{
  "txid": "7e1a752b6f3757608b5f31854366be486f7b9407dea68c0ba7602305b9b75c84",
  "version": 2,
  "locktime": 0,
  "vin": [
    {
      "txid": "acc3ba00869acb582a3f2904ce3a11dd3779350ce234063fc7d0959246213364",
      "vout": 142,
      "prevout": {
        "scriptpubkey": "51202fcdce042a16e9a6ec22899a3b954d41c50b0040bf7255c5d4a6321f2f493b40",
        "scriptpubkey_asm": "OP_PUSHNUM_1 OP_PUSHBYTES_32 2fcdce042a16e9a6ec22899a3b954d41c50b0040bf7255c5d4a6321f2f493b40",
        "scriptpubkey_type": "v1_p2tr",
        "scriptpubkey_address": "bc1p9lxuupp2zm56dmpz3xdrh92dg8zskqzqhae9t3w55cep7t6f8dqq68cxeg",
        "value": 1806
      },
      "scriptsig": "",
      "scriptsig_asm": "",
      "witness": [
        "51144a762693412d32dd0255ed145386bf2a43936713ab620f1311c4ffe67487e7bd00c50a83523832d1dcbdb9a0b43c1ff0d25c49c012e448713b15c9bee27d",
        "202da25198e57646d05dbdee4f8f74165b63fad6e700c9cdbef3b51144aebbd278ac0063036f726401010a746578742f706c61696e00357b2270223a226272632d3230222c226f70223a226d696e74222c227469636b223a22646f6765222c22616d74223a2234323030227d68",
        "c02da25198e57646d05dbdee4f8f74165b63fad6e700c9cdbef3b51144aebbd278"
      ],
      "is_coinbase": false,
      "sequence": 4261412863
    }
  ],
  "vout": [
    {
      "scriptpubkey": "00147a665de7a370f4c9b372ab1fae587500a5bcbdb4",
      "scriptpubkey_asm": "OP_0 OP_PUSHBYTES_20 7a665de7a370f4c9b372ab1fae587500a5bcbdb4",
      "scriptpubkey_type": "v0_p2wpkh",
      "scriptpubkey_address": "bc1q0fn9mearwr6vnvmj4v06ukr4qzjme0d565dzcx",
      "value": 294
    }
  ],
  "size": 294,
  "weight": 540,
  "fee": 1512,
  "status": {
    "confirmed": true,
    "block_height": 834460,
    "block_hash": "00000000000000000000484a79b643b2524bbce82e5d8a442013fa5b8905ed98",
    "block_time": 1710307468
  },
  "hex": "02000000000101643321469295d0c73f0634e20c357937dd113ace04293f2a58cb9a8600bac3ac8e00000000fffffffd0126010000000000001600147a665de7a370f4c9b372ab1fae587500a5bcbdb4034051144a762693412d32dd0255ed145386bf2a43936713ab620f1311c4ffe67487e7bd00c50a83523832d1dcbdb9a0b43c1ff0d25c49c012e448713b15c9bee27d6d202da25198e57646d05dbdee4f8f74165b63fad6e700c9cdbef3b51144aebbd278ac0063036f726401010a746578742f706c61696e00357b2270223a226272632d3230222c226f70223a226d696e74222c227469636b223a22646f6765222c22616d74223a2234323030227d6821c02da25198e57646d05dbdee4f8f74165b63fad6e700c9cdbef3b51144aebbd27800000000"
}