{
  "txid": "7e219d62b739c9bf4e626ddc9e8c497b8a6d24d9052ad7d9176d69d7138edc24",
  "version": 2,
  "locktime": 834637,
  "vin": [
    {
      "txid": "223bfbf6411f9e380493cd8c90835ae581a875ebb9d22997e99f4e10112ad230",
      "vout": 0,
      "prevout": {
        "scriptpubkey": "0014e9a3dec57d1a0f3a1cd88cde2838a36b1d39be23",
        "scriptpubkey_asm": "OP_0 OP_PUSHBYTES_20 e9a3dec57d1a0f3a1cd88cde2838a36b1d39be23",
        "scriptpubkey_type": "v0_p2wpkh",
        "scriptpubkey_address": "bc1qax3aa3targ8n58xc3n0zsw9rdvwnn03rpzpuav",
        "value": 20180300
      },
      "scriptsig": "",
      "scriptsig_asm": "",
      "witness": [
        "304402205642e842fd7d7c4df03a45b3f790e2158c403f0f6c8226bb50bec6639399281c02206d66eefe9c45db7f9e75d63a15268aa88a0eb8254de2b88737fe75df1d0a548c01",
        "022f22a7e305a8440dc9bc480a6a02ce711092db84d19b34fe6b05d29a3bd3cd04"
      ],
      "is_coinbase": false,
      "sequence": 4294967293
    }
  ],
  "vout": [
    {
      "scriptpubkey": "a914652cce9b95f19c354c190e83b4454f1c6764fd0687",
      "scriptpubkey_asm": "OP_HASH160 OP_PUSHBYTES_20 652cce9b95f19c354c190e83b4454f1c6764fd06 OP_EQUAL",
      "scriptpubkey_type": "p2sh",
      "scriptpubkey_address": "3AuyrAgsZkDrwBTL5WJatAsMAZ5jitPR1T",
      "value": 5000000
    },
    {
      "scriptpubkey": "001487031cdfe5024a11c38b325edc41a3c9daff28e4",
      "scriptpubkey_asm": "OP_0 OP_PUSHBYTES_20 87031cdfe5024a11c38b325edc41a3c9daff28e4",
      "scriptpubkey_type": "v0_p2wpkh",
      "scriptpubkey_address": "bc1qsup3ehl9qf9prsutxf0dcsdre8d0728ytpnse7",
      "value": 15178000
    }
  ],
  "size": 223,
  "weight": 565,
  "fee": 2300,
  "status": {
    "confirmed": true,
    "block_height": 834638,
    "block_hash": "000000000000000000025f742c626208ac87e0b7d15054abb4a19ca2d735a54e",
    "block_time": 1710405325
  },
  "hex": "0200000000010130d22a11104e9fe99729d2b9eb75a881e55a83908ccd9304389e1f41f6fb3b220000000000fdffffff02404b4c000000000017a914652cce9b95f19c354c190e83b4454f1c6764fd06871099e7000000000016001487031cdfe5024a11c38b325edc41a3c9daff28e40247304402205642e842fd7d7c4df03a45b3f790e2158c403f0f6c8226bb50bec6639399281c02206d66eefe9c45db7f9e75d63a15268aa88a0eb8254de2b88737fe75df1d0a548c0121022f22a7e305a8440dc9bc480a6a02ce711092db84d19b34fe6b05d29a3bd3cd044dbc0c00"
}