{
  "txid": "7e26c99ef652466d886282a79d45cdadc4ea86a9281e778ac104a9fe9ad6971a",
  "version": 1,
  "locktime": 0,
  "vin": [
    {
      "txid": "dbf385c196eb489f4f83a364bd537368d051cf2acdfb71df308f915b58a1a945",
      "vout": 0,
      "prevout": {
        "scriptpubkey": "0014a42a5848f768099056d984d37b52c196a0c372f1",
        "scriptpubkey_asm": "OP_0 OP_PUSHBYTES_20 a42a5848f768099056d984d37b52c196a0c372f1",
        "scriptpubkey_type": "v0_p2wpkh",
        "scriptpubkey_address": "bc1q5s49sj8hdqyeq4kesnfhk5kpj6svxuh3xkmgf9",
        "value": 5000
      },
      "scriptsig": "",
      "scriptsig_asm": "",
      "witness": [
        "30450221009ccda0f50e4b233801c9173875e40b1af43a316fc868caa22adf59672ab19dfc02202b1952a38a940789aa93b61894fdd285139c4fef56b645a6bb9b3f663886f9f501",
        "02163d0b32d82a38d7510f4ddccfedd6c656f8e4cb5c173ed414732bfb5cdb5857"
      ],
      "is_coinbase": false,
      "sequence": 4294967295
    },
    {
      "txid": "2ec170cb9e5c2168808795d3da770c3bab0b9e8fc84254cc5b52415b60d28a50",
      "vout": 732,
      "prevout": {
        "scriptpubkey": "0014b1e3b046e7dec1af1122646c2080ca74c5874206",
        "scriptpubkey_asm": "OP_0 OP_PUSHBYTES_20 b1e3b046e7dec1af1122646c2080ca74c5874206",
        "scriptpubkey_type": "v0_p2wpkh",
        "scriptpubkey_address": "bc1qk83mq3h8mmq67yfzv3kzpqx2wnzcwssxgdgp34",
        "value": 11682
      },
      "scriptsig": "",
      "scriptsig_asm": "",
      "witness": [
        "3045022100f7dbc4f9db59d73eb3d5716faa10c319876f64966c0127004e8c7cae93f0bdcc022048d1a8fef50e10607752d42c2d582e53dc06f09eddb594142cb5d6ba0118faf401",
        "03864a9f3238b53c4afc38176e5944b7ed2bf4abedb4380b96690e251d9765f67b"
      ],
      "is_coinbase": false,
      "sequence": 4294967295
    },
    {
      "txid": "d4a126883c21533e9d5e700627fbe4d1ed10b400087504d89c73b94e0ffec6ad",
      "vout": 0,
      "prevout": {
        "scriptpubkey": "00143ee351cc6fe00d29a7d1bda1c8ff0f75df217bc3",
        "scriptpubkey_asm": "OP_0 OP_PUSHBYTES_20 3ee351cc6fe00d29a7d1bda1c8ff0f75df217bc3",
        "scriptpubkey_type": "v0_p2wpkh",
        "scriptpubkey_address": "bc1q8m34rnr0uqxjnf73hksu3lc0wh0jz77rtrprn3",
        "value": 15007
      },
      "scriptsig": "",
      "scriptsig_asm": "",
      "witness": [
        "3044022017bd2eb6617db7bc289848891657efb4fc6115eaeba8286c1a079e32b9024a9e022065e65078cee65f9af75fafe1bc82eeabbbe5809f2ea7359d0d81dc2f5e5b03af01",
        "02d15d518fbaf6fbec31beb5f9f4472515ba3c2e4257e70fa16a501334c9dc35bd"
      ],
      "is_coinbase": false,
      "sequence": 4294967295
    },
    {
      "txid": "44d2432dfca4888b0ab416faa818c12e1b217da884515620e1bd578c9b50434c",
      "vout": 45,
      "prevout": {
        "scriptpubkey": "001426f0a81f8eb26313292113333ce744e2b6321736",
        "scriptpubkey_asm": "OP_0 OP_PUSHBYTES_20 26f0a81f8eb26313292113333ce744e2b6321736",
        "scriptpubkey_type": "v0_p2wpkh",
        "scriptpubkey_address": "bc1qymc2s8uwkf33x2fpzvenee6yu2mry9ekvrcm4d",
        "value": 46799
      },
      "scriptsig": "",
      "scriptsig_asm": "",
      "witness": [
        "30440220109692b49ebc42a656250fb73ab000529c72e68508eccc54ceb2ad0f27bda1de02207e32238e590144b5c06be651b8f2152fea8cb891e502d1120a8ddcc983ef600701",
        "020398718045a7fa6e157b6ee22b8a8a7663c1ed409dc1fbe01bc198bbb9576380"
      ],
      "is_coinbase": false,
      "sequence": 4294967295
    },
    {
      "txid": "ae07e6d8e12d390df11968f085b46c2d068953b7a3f37f088ce621a234bc14f4",
      "vout": 3,
      "prevout": {
        "scriptpubkey": "0014fedbfd29563952d6bd439905e26166b6058d82ef",
        "scriptpubkey_asm": "OP_0 OP_PUSHBYTES_20 fedbfd29563952d6bd439905e26166b6058d82ef",
        "scriptpubkey_type": "v0_p2wpkh",
        "scriptpubkey_address": "bc1qlmdl622k89fdd02rnyz7yctxkczcmqh0g5l7j8",
        "value": 84226
      },
      "scriptsig": "",
      "scriptsig_asm": "",
      "witness": [
        "3045022100adad8ff81722e3255be63b824daa70c5f91783fe580ab9b8f118c9882d9619ca02205d09fae4e54597c50564f1ebe88168e86c91abfe24edce2260aa682f4fe84b2601",
        "02d04c3166d98afba37fec705a340b4b12686ae12bfa8519abe4f32669b336c1d0"
      ],
      "is_coinbase": false,
      "sequence": 4294967295
    },
    {
      "txid": "c5c459c90df9a825dd2f8e44500aa3f4ab4dc04ec265c558048eff8754ab8be4",
      "vout": 0,
      "prevout": {
        "scriptpubkey": "0014ca7d8c1470e262de3bc08116ac2429af2e3676d1",
        "scriptpubkey_asm": "OP_0 OP_PUSHBYTES_20 ca7d8c1470e262de3bc08116ac2429af2e3676d1",
        "scriptpubkey_type": "v0_p2wpkh",
        "scriptpubkey_address": "bc1qef7cc9rsuf3duw7qsyt2cfpf4uhrvak34fcrf0",
        "value": 100000
      },
      "scriptsig": "",
      "scriptsig_asm": "",
      "witness": [
        "3045022100dc1b5a8ec6a09f6a5ac8bbb25e6e59bb2a0ceaca5982f474a4b41888e4f45ef402200ad784350c60988f251bf7de217f5a0cb66f705b99c84d2e7634ecb7429e73cf01",
        "02115f8ba0c01eee6bc62943f01c1c2a4e0285c002ed4305ee2be239081a7332b2"
      ],
      "is_coinbase": false,
      "sequence": 4294967295
    },
    {
      "txid": "0799980d77d80a02240184acf3bd2b42c489336a1df2897e9fa10a37ab0fe9ce",
      "vout": 1,
      "prevout": {
        "scriptpubkey": "00143ab668252e9c5cb31ac039ecf7b817656b5a41c3",
        "scriptpubkey_asm": "OP_0 OP_PUSHBYTES_20 3ab668252e9c5cb31ac039ecf7b817656b5a41c3",
        "scriptpubkey_type": "v0_p2wpkh",
        "scriptpubkey_address": "bc1q82mxsffwn3wtxxkq88k00wqhv4445swrwepq72",
        "value": 107250
      },
      "scriptsig": "",
      "scriptsig_asm": "",
      "witness": [
        "3045022100864e9381a400ae796c1acf2768be91893a9442282c680fb93532d2886f73bbb60220471bdedbd62d5668416d98b306fb1d5100d97da9ae14403576b8d92f7cb3860d01",
        "030ffe7c59bbdb7784b4630347091b801b499827b639e82837969b3cb7fa898f14"
      ],
      "is_coinbase": false,
      "sequence": 4294967295
    },
    {
      "txid": "017162c4a8b9b16ccc5fecb2e11752d9cfc12022e87c5974c97a775f4d464e32",
      "vout": 0,
      "prevout": {
        "scriptpubkey": "0014e55c4a4737e4b6779f93e7769b0d739d1f715aa4",
        "scriptpubkey_asm": "OP_0 OP_PUSHBYTES_20 e55c4a4737e4b6779f93e7769b0d739d1f715aa4",
        "scriptpubkey_type": "v0_p2wpkh",
        "scriptpubkey_address": "bc1qu4wy53ehujm808unuamfkrtnn50hzk4y792amt",
        "value": 495165
      },
      "scriptsig": "",
      "scriptsig_asm": "",
      "witness": [
        "3044022028426ffbc087acf0196598ce39262e9b0340ff39f6ffc80d37a80172b4b3aafb022039ccbfe806ce8cbe90d6ce8bc69169ca8dce58bf9d99a18e3bbb323c36c4805e01",
        "031b94e4ed7698bfcf3c7fc6a44a3df76adbf6a6b1ae217f07aff424cbbdde4938"
      ],
      "is_coinbase": false,
      "sequence": 4294967295
    },
    {
      "txid": "e605df4407d0872a17b730700d2c7b355e68bb1fe2100d2a14311b90e7a692f8",
      "vout": 0,
      "prevout": {
        "scriptpubkey": "0014a42a5848f768099056d984d37b52c196a0c372f1",
        "scriptpubkey_asm": "OP_0 OP_PUSHBYTES_20 a42a5848f768099056d984d37b52c196a0c372f1",
        "scriptpubkey_type": "v0_p2wpkh",
        "scriptpubkey_address": "bc1q5s49sj8hdqyeq4kesnfhk5kpj6svxuh3xkmgf9",
        "value": 1398473
      },
      "scriptsig": "",
      "scriptsig_asm": "",
      "witness": [
        "3045022100ed63bc15d99c6068d21470968ae806054b8dde8d70fff4633d76bcd3c048081f02204ea842d642e52c84b744e4f539f42f384817237f077c2ce135abc4154a25d72d01",
        "02163d0b32d82a38d7510f4ddccfedd6c656f8e4cb5c173ed414732bfb5cdb5857"
      ],
      "is_coinbase": false,
      "sequence": 4294967295
    },
    {
      "txid": "53e18ed1c262f385ce4c23e1ed9fb3b13d3e09dbd04908939ed09d68ec4af437",
      "vout": 0,
      "prevout": {
        "scriptpubkey": "0014122da0d74b0d035ac56a5741e7e45fbb70e0df25",
        "scriptpubkey_asm": "OP_0 OP_PUSHBYTES_20 122da0d74b0d035ac56a5741e7e45fbb70e0df25",
        "scriptpubkey_type": "v0_p2wpkh",
        "scriptpubkey_address": "bc1qzgk6p46tp5p443t22aq70ezlhdcwphe97uagxs",
        "value": 21779441
      },
      "scriptsig": "",
      "scriptsig_asm": "",
      "witness": [
        "304402203e79cff4bee2bf687c919c6eb12e0de6192f8e694b00648983e46ae53a5b7e0502206c3b2bae5188c1513e0905dc568bb4e209820af2f76c3219685afd8d61d8c24701",
        "03d5d13c588edccdb3156b8f81171169e1b83c3d45f650ac245c1fc95282d99561"
      ],
      "is_coinbase": false,
      "sequence": 4294967295
    },
    {
      "txid": "40206ced3b23a26a03a544cb981287171b09ec6d6f9f51581d0e98310f3773d6",
      "vout": 0,
      "prevout": {
        "scriptpubkey": "0014ca7d8c1470e262de3bc08116ac2429af2e3676d1",
        "scriptpubkey_asm": "OP_0 OP_PUSHBYTES_20 ca7d8c1470e262de3bc08116ac2429af2e3676d1",
        "scriptpubkey_type": "v0_p2wpkh",
        "scriptpubkey_address": "bc1qef7cc9rsuf3duw7qsyt2cfpf4uhrvak34fcrf0",
        "value": 39900761
      },
      "scriptsig": "",
      "scriptsig_asm": "",
      "witness": [
        "304402207b1eb5fce7f327213d0a5a5365f620bfb6d5ac0fd7d8ea963598f3a43514e2a902201fe5d2ecaaaf835e7c332e84989e923e2a2b6dea1e68cb2f149ba13029386d6e01",
        "02115f8ba0c01eee6bc62943f01c1c2a4e0285c002ed4305ee2be239081a7332b2"
      ],
      "is_coinbase": false,
      "sequence": 4294967295
    },
    {
      "txid": "1ddf9d32b67ec7e10f07739208ecbc3462d349e9dd36d1126fd80482efda67c3",
      "vout": 1,
      "prevout": {
        "scriptpubkey": "0014b37730494e222b70640a34b48135de7be3839b67",
        "scriptpubkey_asm": "OP_0 OP_PUSHBYTES_20 b37730494e222b70640a34b48135de7be3839b67",
        "scriptpubkey_type": "v0_p2wpkh",
        "scriptpubkey_address": "bc1qkdmnqj2wyg4hqeq2xj6gzdw7003c8xm8tf0h8d",
        "value": 169957304
      },
      "scriptsig": "",
      "scriptsig_asm": "",
      "witness": [
        "304502210089953e165d749eb71284efa1f325f4bfa94789a37feb6de72ae3523621b1215802207883ca4753b52ebe080e319fe9db21627a7c4611ac318ef736a76a716c4a06db01",
        "03bd9758ec2cd5ad89bff2d2f2595462028b43869e4fb3bfd68298639c4d06cd15"
      ],
      "is_coinbase": false,
      "sequence": 4294967295
    },
    {
      "txid": "e8bf70ccfef18bbd621c59c20019b4a63a57ab6f049d79f4b3bf9903c61ef16a",
      "vout": 1,
      "prevout": {
        "scriptpubkey": "0014b37730494e222b70640a34b48135de7be3839b67",
        "scriptpubkey_asm": "OP_0 OP_PUSHBYTES_20 b37730494e222b70640a34b48135de7be3839b67",
        "scriptpubkey_type": "v0_p2wpkh",
        "scriptpubkey_address": "bc1qkdmnqj2wyg4hqeq2xj6gzdw7003c8xm8tf0h8d",
        "value": 248553205
      },
      "scriptsig": "",
      "scriptsig_asm": "",
      "witness": [
        "3045022100dc96e5164ccc4cacc35f12489894d7e8f8831e04bb0010f84ec1d16440e04e5802204e771b1863226c0fe9e7a7cb65bca9e24126e174fe12dc140667486fc502dbc701",
        "03bd9758ec2cd5ad89bff2d2f2595462028b43869e4fb3bfd68298639c4d06cd15"
      ],
      "is_coinbase": false,
      "sequence": 4294967295
    },
    {
      "txid": "1a654159214f3677b77698bfba4df9020721f33c1d8a95e3dcff39e769b5de4a",
      "vout": 1,
      "prevout": {
        "scriptpubkey": "0014b37730494e222b70640a34b48135de7be3839b67",
        "scriptpubkey_asm": "OP_0 OP_PUSHBYTES_20 b37730494e222b70640a34b48135de7be3839b67",
        "scriptpubkey_type": "v0_p2wpkh",
        "scriptpubkey_address": "bc1qkdmnqj2wyg4hqeq2xj6gzdw7003c8xm8tf0h8d",
        "value": 279980270
      },
      "scriptsig": "",
      "scriptsig_asm": "",
      "witness": [
        "304402201f69e558f75e7c691998a4695db9167291dabedfd7f529c0f6f878b78054187002202b663b13fe6cc421df39c8a738c7da77e8199aa23f303c54b1b606dbebd6e10501",
        "03bd9758ec2cd5ad89bff2d2f2595462028b43869e4fb3bfd68298639c4d06cd15"
      ],
      "is_coinbase": false,
      "sequence": 4294967295
    },
    {
      "txid": "cb8f8740de1007b891d67f6c86f9f9a69ec9d519a8b8d730b876ba166ce89cb7",
      "vout": 15,
      "prevout": {
        "scriptpubkey": "76a914b37730494e222b70640a34b48135de7be3839b6788ac",
        "scriptpubkey_asm": "OP_DUP OP_HASH160 OP_PUSHBYTES_20 b37730494e222b70640a34b48135de7be3839b67 OP_EQUALVERIFY OP_CHECKSIG",
        "scriptpubkey_type": "p2pkh",
        "scriptpubkey_address": "1HMvji4rtinWQhYmsmfQ7NSWgiE2ZX1yUC",
        "value": 764980000
      },
      "scriptsig": "4830450221008d5e6d080cfc4b90c851e5a7ddf45221e642b06ce326bfa9b8a001fe57f5c7710220774d07a7bab9539502080f088b0ead2b2c2d8a9e0e74edd57e3127809b56afac012103bd9758ec2cd5ad89bff2d2f2595462028b43869e4fb3bfd68298639c4d06cd15",
      "scriptsig_asm": "OP_PUSHBYTES_72 30450221008d5e6d080cfc4b90c851e5a7ddf45221e642b06ce326bfa9b8a001fe57f5c7710220774d07a7bab9539502080f088b0ead2b2c2d8a9e0e74edd57e3127809b56afac01 OP_PUSHBYTES_33 03bd9758ec2cd5ad89bff2d2f2595462028b43869e4fb3bfd68298639c4d06cd15",
      "is_coinbase": false,
      "sequence": 4294967295
    }
  ],
  "vout": [
    {
      "scriptpubkey": "00149ee8a0e559ad1d92f0aa1bd077fdc9420a4f3c06",
      "scriptpubkey_asm": "OP_0 OP_PUSHBYTES_20 9ee8a0e559ad1d92f0aa1bd077fdc9420a4f3c06",
      "scriptpubkey_type": "v0_p2wpkh",
      "scriptpubkey_address": "bc1qnm52pe2e45we9u92r0g80lwfgg9y70qxq87sux",
      "value": 1000000000
    },
    {
      "scriptpubkey": "0014b37730494e222b70640a34b48135de7be3839b67",
      "scriptpubkey_asm": "OP_0 OP_PUSHBYTES_20 b37730494e222b70640a34b48135de7be3839b67",
      "scriptpubkey_type": "v0_p2wpkh",
      "scriptpubkey_address": "bc1qkdmnqj2wyg4hqeq2xj6gzdw7003c8xm8tf0h8d",
      "value": 527397620
    }
  ],
  "size": 2303,
  "weight": 4685,
  "fee": 16963,
  "status": {
    "confirmed": true,
    "block_height": 834638,
    "block_hash": "000000000000000000025f742c626208ac87e0b7d15054abb4a19ca2d735a54e",
    "block_time": 1710405325
  },
  "hex": "0100000000010f45a9a1585b918f30df71fbcd2acf51d0687353bd64a3834f9f48eb96c185f3db0000000000ffffffff508ad2605b41525bcc5442c88f9e0bab3b0c77dad395878068215c9ecb70c12edc02000000ffffffffadc6fe0f4eb9739cd804750800b410edd1e4fb2706705e9d3e53213c8826a1d40000000000ffffffff4c43509b8c57bde120565184a87d211b2ec118a8fa16b40a8b88a4fc2d43d2442d00000000fffffffff414bc34a221e68c087ff3a3b75389062d6cb485f06819f10d392de1d8e607ae0300000000ffffffffe48bab5487ff8e0458c565c24ec04dabf4a30a50448e2fdd25a8f90dc959c4c50000000000ffffffffcee90fab370aa19f7e89f21d6a3389c4422bbdf3ac840124020ad8770d9899070100000000ffffffff324e464d5f777ac974597ce82220c1cfd95217e1b2ec5fcc6cb1b9a8c46271010000000000fffffffff892a6e7901b31142a0d10e21fbb685e357b2c0d7030b7172a87d00744df05e60000000000ffffffff37f44aec689dd09e930849d0db093e3db1b39fede1234cce85f362c2d18ee1530000000000ffffffffd673370f31980e1d58519f6f6dec091b17871298cb44a5036aa2233bed6c20400000000000ffffffffc367daef8204d86f12d136dde949d36234bcec089273070fe1c77eb6329ddf1d0100000000ffffffff6af11ec60399bfb3f4799d046fab573aa6b41900c2591c62bd8bf1fecc70bfe80100000000ffffffff4adeb569e739ffdce3958a1d3cf3210702f94dbabf9876b777364f215941651a0100000000ffffffffb79ce86c16ba76b830d7b8a819d5c99ea6f9f9866c7fd691b80710de40878fcb0f0000006b4830450221008d5e6d080cfc4b90c851e5a7ddf45221e642b06ce326bfa9b8a001fe57f5c7710220774d07a7bab9539502080f088b0ead2b2c2d8a9e0e74edd57e3127809b56afac012103bd9758ec2cd5ad89bff2d2f2595462028b43869e4fb3bfd68298639c4d06cd15ffffffff0200ca9a3b000000001600149ee8a0e559ad1d92f0aa1bd077fdc9420a4f3c06f4726f1f00000000160014b37730494e222b70640a34b48135de7be3839b67024830450221009ccda0f50e4b233801c9173875e40b1af43a316fc868caa22adf59672ab19dfc02202b1952a38a940789aa93b61894fdd285139c4fef56b645a6bb9b3f663886f9f5012102163d0b32d82a38d7510f4ddccfedd6c656f8e4cb5c173ed414732bfb5cdb585702483045022100f7dbc4f9db59d73eb3d5716faa10c319876f64966c0127004e8c7cae93f0bdcc022048d1a8fef50e10607752d42c2d582e53dc06f09eddb594142cb5d6ba0118faf4012103864a9f3238b53c4afc38176e5944b7ed2bf4abedb4380b96690e251d9765f67b02473044022017bd2eb6617db7bc289848891657efb4fc6115eaeba8286c1a079e32b9024a9e022065e65078cee65f9af75fafe1bc82eeabbbe5809f2ea7359d0d81dc2f5e5b03af012102d15d518fbaf6fbec31beb5f9f4472515ba3c2e4257e70fa16a501334c9dc35bd024730440220109692b49ebc42a656250fb73ab000529c72e68508eccc54ceb2ad0f27bda1de02207e32238e590144b5c06be651b8f2152fea8cb891e502d1120a8ddcc983ef60070121020398718045a7fa6e157b6ee22b8a8a7663c1ed409dc1fbe01bc198bbb957638002483045022100adad8ff81722e3255be63b824daa70c5f91783fe580ab9b8f118c9882d9619ca02205d09fae4e54597c50564f1ebe88168e86c91abfe24edce2260aa682f4fe84b26012102d04c3166d98afba37fec705a340b4b12686ae12bfa8519abe4f32669b336c1d002483045022100dc1b5a8ec6a09f6a5ac8bbb25e6e59bb2a0ceaca5982f474a4b41888e4f45ef402200ad784350c60988f251bf7de217f5a0cb66f705b99c84d2e7634ecb7429e73cf012102115f8ba0c01eee6bc62943f01c1c2a4e0285c002ed4305ee2be239081a7332b202483045022100864e9381a400ae796c1acf2768be91893a9442282c680fb93532d2886f73bbb60220471bdedbd62d5668416d98b306fb1d5100d97da9ae14403576b8d92f7cb3860d0121030ffe7c59bbdb7784b4630347091b801b499827b639e82837969b3cb7fa898f1402473044022028426ffbc087acf0196598ce39262e9b0340ff39f6ffc80d37a80172b4b3aafb022039ccbfe806ce8cbe90d6ce8bc69169ca8dce58bf9d99a18e3bbb323c36c4805e0121031b94e4ed7698bfcf3c7fc6a44a3df76adbf6a6b1ae217f07aff424cbbdde493802483045022100ed63bc15d99c6068d21470968ae806054b8dde8d70fff4633d76bcd3c048081f02204ea842d642e52c84b744e4f539f42f384817237f077c2ce135abc4154a25d72d012102163d0b32d82a38d7510f4ddccfedd6c656f8e4cb5c173ed414732bfb5cdb58570247304402203e79cff4bee2bf687c919c6eb12e0de6192f8e694b00648983e46ae53a5b7e0502206c3b2bae5188c1513e0905dc568bb4e209820af2f76c3219685afd8d61d8c247012103d5d13c588edccdb3156b8f81171169e1b83c3d45f650ac245c1fc95282d995610247304402207b1eb5fce7f327213d0a5a5365f620bfb6d5ac0fd7d8ea963598f3a43514e2a902201fe5d2ecaaaf835e7c332e84989e923e2a2b6dea1e68cb2f149ba13029386d6e012102115f8ba0c01eee6bc62943f01c1c2a4e0285c002ed4305ee2be239081a7332b20248304502210089953e165d749eb71284efa1f325f4bfa94789a37feb6de72ae3523621b1215802207883ca4753b52ebe080e319fe9db21627a7c4611ac318ef736a76a716c4a06db012103bd9758ec2cd5ad89bff2d2f2595462028b43869e4fb3bfd68298639c4d06cd1502483045022100dc96e5164ccc4cacc35f12489894d7e8f8831e04bb0010f84ec1d16440e04e5802204e771b1863226c0fe9e7a7cb65bca9e24126e174fe12dc140667486fc502dbc7012103bd9758ec2cd5ad89bff2d2f2595462028b43869e4fb3bfd68298639c4d06cd150247304402201f69e558f75e7c691998a4695db9167291dabedfd7f529c0f6f878b78054187002202b663b13fe6cc421df39c8a738c7da77e8199aa23f303c54b1b606dbebd6e105012103bd9758ec2cd5ad89bff2d2f2595462028b43869e4fb3bfd68298639c4d06cd150000000000"
}