{
  "txid": "7e316d5231638b3bc0fc590d171ea52935f2ed0226dad161cffba84203420146",
  "version": 1,
  "locktime": 0,
  "vin": [
    {
      "txid": "6d1d0296880afd26567c45d2fa9b950210cb1c22388ebbb96000f5792488fb12",
      "vout": 0,
      "prevout": {
        "scriptpubkey": "00146173bfab2ee395d84d28731901475f27a6fb693c",
        "scriptpubkey_asm": "OP_0 OP_PUSHBYTES_20 6173bfab2ee395d84d28731901475f27a6fb693c",
        "scriptpubkey_type": "v0_p2wpkh",
        "scriptpubkey_address": "bc1qv9eml2ewuw2asnfgwvvsz36ly7n0k6fuqt5286",
        "value": 811000
      },
      "scriptsig": "",
      "scriptsig_asm": "",
      "witness": [
        "3045022100c27de5dd2d00c95d1350c5f569b1486bd34f983721d63a9743a708290f8047f6022062213aff0df2276cd4ab27d65a587a27f6248ed8e393eb05115fc4d0ef479b2501",
        "027d93ccaedfab0daf2b8351b7015c6d0fb79396f7327d5197d416a7041bbfe23d"
      ],
      "is_coinbase": false,
      "sequence": 4294967295
    },
    {
      "txid": "64cfa4e64bb0f7befd5f7e8c9d99a52fd0d4fcb37d16ac19228fdb130c025561",
      "vout": 0,
      "prevout": {
        "scriptpubkey": "0014eefc3e30995faae9342ec11d6303d3fd31d525a6",
        "scriptpubkey_asm": "OP_0 OP_PUSHBYTES_20 eefc3e30995faae9342ec11d6303d3fd31d525a6",
        "scriptpubkey_type": "v0_p2wpkh",
        "scriptpubkey_address": "bc1qam7ruvyet74wjdpwcywkxq7nl5ca2fdxs0sagy",
        "value": 7661000
      },
      "scriptsig": "",
      "scriptsig_asm": "",
      "witness": [
        "3045022100d8624ca7d71d605cab288cefdc40e3f0bc4d4a16fb933ce1261cee38a6e32e9e02206d644d218f4e67889a249fa63816406f613c82f17d819c617f7729aa795fde3201",
        "02c5fff1c8b810e553b7653ded69c775451bd9976192dcdfacf9230a1e4c50cf3c"
      ],
      "is_coinbase": false,
      "sequence": 4294967295
    },
    {
      "txid": "1caf74ee0764935d56710d3e5f0c5d52c9e93311a471165eabf4a872e4a5ca1e",
      "vout": 1,
      "prevout": {
        "scriptpubkey": "0014fb3fdb404fa3607f2fd118a6013f129d26f246d5",
        "scriptpubkey_asm": "OP_0 OP_PUSHBYTES_20 fb3fdb404fa3607f2fd118a6013f129d26f246d5",
        "scriptpubkey_type": "v0_p2wpkh",
        "scriptpubkey_address": "bc1qlvlaksz05ds87t73rznqz0cjn5n0y3k4mvmudf",
        "value": 2097415
      },
      "scriptsig": "",
      "scriptsig_asm": "",
      "witness": [
        "3044022032401cd96eae95c6b72c72c17ce7dc4257c8bb9977cadf60159f1f8ad04718d7022067e37474ad5a3957db3dfdadf32d40c1231ce3dc830e6c8a7c2288d7cca2aa8001",
        "0205d9461251119d16c43819454af164e02f00a379e73f3754288ecde92f0e4609"
      ],
      "is_coinbase": false,
      "sequence": 4294967295
    }
  ],
  "vout": [
    {
      "scriptpubkey": "0014fd372d9e5b25d5cabfe0d0ee61ef650e8829b469",
      "scriptpubkey_asm": "OP_0 OP_PUSHBYTES_20 fd372d9e5b25d5cabfe0d0ee61ef650e8829b469",
      "scriptpubkey_type": "v0_p2wpkh",
      "scriptpubkey_address": "bc1ql5mjm8jmyh2u40lq6rhxrmm9p6yzndrfy5749w",
      "value": 4661000
    },
    {
      "scriptpubkey": "0014d540dd30a9c236d644fdb146caed559e101c6db6",
      "scriptpubkey_asm": "OP_0 OP_PUSHBYTES_20 d540dd30a9c236d644fdb146caed559e101c6db6",
      "scriptpubkey_type": "v0_p2wpkh",
      "scriptpubkey_address": "bc1q64qd6v9fcgmdv38ak9rv4m24ncgpcmdkhstq8w",
      "value": 5904230
    }
  ],
  "size": 520,
  "weight": 1105,
  "fee": 4185,
  "status": {
    "confirmed": true,
    "block_height": 834638,
    "block_hash": "000000000000000000025f742c626208ac87e0b7d15054abb4a19ca2d735a54e",
    "block_time": 1710405325
  },
  "hex": "0100000000010312fb882479f50060b9bb8e38221ccb1002959bfad2457c5626fd0a8896021d6d0000000000ffffffff6155020c13db8f2219ac167db3fcd4d02fa5999d8c7e5ffdbef7b04be6a4cf640000000000ffffffff1ecaa5e472a8f4ab5e1671a41133e9c9525d0c5f3e0d71565d936407ee74af1c0100000000ffffffff02081f470000000000160014fd372d9e5b25d5cabfe0d0ee61ef650e8829b46966175a0000000000160014d540dd30a9c236d644fdb146caed559e101c6db602483045022100c27de5dd2d00c95d1350c5f569b1486bd34f983721d63a9743a708290f8047f6022062213aff0df2276cd4ab27d65a587a27f6248ed8e393eb05115fc4d0ef479b250121027d93ccaedfab0daf2b8351b7015c6d0fb79396f7327d5197d416a7041bbfe23d02483045022100d8624ca7d71d605cab288cefdc40e3f0bc4d4a16fb933ce1261cee38a6e32e9e02206d644d218f4e67889a249fa63816406f613c82f17d819c617f7729aa795fde32012102c5fff1c8b810e553b7653ded69c775451bd9976192dcdfacf9230a1e4c50cf3c02473044022032401cd96eae95c6b72c72c17ce7dc4257c8bb9977cadf60159f1f8ad04718d7022067e37474ad5a3957db3dfdadf32d40c1231ce3dc830e6c8a7c2288d7cca2aa8001210205d9461251119d16c43819454af164e02f00a379e73f3754288ecde92f0e460900000000"
}