{
  "txid": "7e65af60e9c8babaf0dded1dae5d84bc6461c23b2b61a59cd2b9984f880b0abc",
  "version": 2,
  "locktime": 0,
  "vin": [
    {
      "txid": "426f08fbaaacdc4b13cb6f428c89487358ea4dac9ed7948a96cfaa3f67ad9d67",
      "vout": 31,
      "prevout": {
        "scriptpubkey": "5120b2ac03870b338ef630374be161fd8a997f56848fb77727cd7dc4b87789d60107",
        "scriptpubkey_asm": "OP_PUSHNUM_1 OP_PUSHBYTES_32 b2ac03870b338ef630374be161fd8a997f56848fb77727cd7dc4b87789d60107",
        "scriptpubkey_type": "v1_p2tr",
        "scriptpubkey_address": "bc1pk2kq8pctxw80vvphf0skrlv2n9l4dpy0kamj0ntacju80zwkqyrsk8nj87",
        "value": 4599
      },
      "scriptsig": "",
      "scriptsig_asm": "",
      "witness": [
        "1e19ca9d3470910ae6291d381d020b1388f3c244ea2eeee9127d049471ab6dc56363b8cf4eecffdaef83d72e99e6996db4072cbfddc493e2f42f1033d9d748c4",
        "2042ed75e2defdd4c8f40ca088194c7701675ace3d43e6b2fc34cd19ed4f23d7feac0063036f726401011e6170706c69636174696f6e2f6a736f6e3b636861727365743d7574662d38004cd37b2270223a22706f772d3230222c226f70223a226d696e74222c227469636b223a2250455045222c22616d74223a2231303030222c22736f6c7574696f6e223a22504550453a62633170636a65387233733875656e746d64767a6e34777337786d3836367879707535756139357371796877756835616d61677565367a73707a733637713a303030303030303030303030303030303030303139393431613561653132383937363539383134343239323533333030353762306461393666336465613163353a3131303139343632343530227d68",
        "c0039ed2fd528e891a28907036b81ec900320c2b9f26f0b27e7e5cfd0fc9102a4d"
      ],
      "is_coinbase": false,
      "sequence": 4294967295
    }
  ],
  "vout": [
    {
      "scriptpubkey": "5120c4b271c607e666bdb5829d5d0f1b67d68c40f29ce9690012eee5e9ddf51cce85",
      "scriptpubkey_asm": "OP_PUSHNUM_1 OP_PUSHBYTES_32 c4b271c607e666bdb5829d5d0f1b67d68c40f29ce9690012eee5e9ddf51cce85",
      "scriptpubkey_type": "v1_p2tr",
      "scriptpubkey_address": "bc1pcje8r3s8uentmdvzn4ws7xm866xypu5ua95sqyhwuh5amague6zspzs67q",
      "value": 546
    }
  ],
  "size": 487,
  "weight": 769,
  "fee": 4053,
  "status": {
    "confirmed": true,
    "block_height": 834460,
    "block_hash": "00000000000000000000484a79b643b2524bbce82e5d8a442013fa5b8905ed98",
    "block_time": 1710307468
  },
  "hex": "02000000000101679dad673faacf968a94d79eac4dea587348898c426fcb134bdcacaafb086f421f00000000ffffffff012202000000000000225120c4b271c607e666bdb5829d5d0f1b67d68c40f29ce9690012eee5e9ddf51cce8503401e19ca9d3470910ae6291d381d020b1388f3c244ea2eeee9127d049471ab6dc56363b8cf4eecffdaef83d72e99e6996db4072cbfddc493e2f42f1033d9d748c4fd20012042ed75e2defdd4c8f40ca088194c7701675ace3d43e6b2fc34cd19ed4f23d7feac0063036f726401011e6170706c69636174696f6e2f6a736f6e3b636861727365743d7574662d38004cd37b2270223a22706f772d3230222c226f70223a226d696e74222c227469636b223a2250455045222c22616d74223a2231303030222c22736f6c7574696f6e223a22504550453a62633170636a65387233733875656e746d64767a6e34777337786d3836367879707535756139357371796877756835616d61677565367a73707a733637713a303030303030303030303030303030303030303139393431613561653132383937363539383134343239323533333030353762306461393666336465613163353a3131303139343632343530227d6821c0039ed2fd528e891a28907036b81ec900320c2b9f26f0b27e7e5cfd0fc9102a4d00000000"
}