{
  "txid": "7e654703002c0dd479e350a9025ba807f74d8eb8e73ad0f31386f378ddb0508d",
  "version": 1,
  "locktime": 0,
  "vin": [
    {
      "txid": "eda397fbc4b8febcbce61ba475ce5113e0bb22358a9fad54e7c31026d4f4f8b2",
      "vout": 1,
      "prevout": {
        "scriptpubkey": "0014654487f7168f3c7b633bd6159265b2dee9fddcb0",
        "scriptpubkey_asm": "OP_0 OP_PUSHBYTES_20 654487f7168f3c7b633bd6159265b2dee9fddcb0",
        "scriptpubkey_type": "v0_p2wpkh",
        "scriptpubkey_address": "bc1qv4zg0ack3u78kcem6c2eyedjmm5lmh9sejuj6e",
        "value": 12966
      },
      "scriptsig": "",
      "scriptsig_asm": "",
      "witness": [
        "3044022019364b17eb4b0891831d5320ceeee5ae3b06aa06f659a7fed4db98b8bc3f5e810220337bc96fd15025a3ada3dd9770cb685606a9bc2b11ef8a86be56e3c9ea45f6ab01",
        "037742986768b0ead7203618d756b859e0b6d2b702eefbfeb56f2a2b77fdd22536"
      ],
      "is_coinbase": false,
      "sequence": 4294967295
    },
    {
      "txid": "68521660dadf2f2e630a4d9d468d8b8815f3b55d4c828119afbd5a6a45b4345a",
      "vout": 52,
      "prevout": {
        "scriptpubkey": "00140db0008451a6c9cf2372941e66e902bb35f3d915",
        "scriptpubkey_asm": "OP_0 OP_PUSHBYTES_20 0db0008451a6c9cf2372941e66e902bb35f3d915",
        "scriptpubkey_type": "v0_p2wpkh",
        "scriptpubkey_address": "bc1qpkcqppz35myu7gmjjs0xd6gzhv6l8kg4lgxazp",
        "value": 1362750
      },
      "scriptsig": "",
      "scriptsig_asm": "",
      "witness": [
        "3044022055da346a9cc7dac88ba2210a163decfd481a827ff499b86875666f6b4f05753a02206d58e7dcafa41d51db38357840c817cbed66f7fbbc41ce74eb392467d1e6cd2d01",
        "02780a6cd75a1da468c186939049e10deeb8c851a7822be1e6862d754b93741c76"
      ],
      "is_coinbase": false,
      "sequence": 4294967295
    }
  ],
  "vout": [
    {
      "scriptpubkey": "76a914dc9857e1f20543d3cae02ed9deacc0e679fc1e0688ac",
      "scriptpubkey_asm": "OP_DUP OP_HASH160 OP_PUSHBYTES_20 dc9857e1f20543d3cae02ed9deacc0e679fc1e06 OP_EQUALVERIFY OP_CHECKSIG",
      "scriptpubkey_type": "p2pkh",
      "scriptpubkey_address": "1M7QACcHyordMorkEc8Mv4p3ZaZ3RpNU8D",
      "value": 1373012
    }
  ],
  "size": 342,
  "weight": 720,
  "fee": 2704,
  "status": {
    "confirmed": true,
    "block_height": 834638,
    "block_hash": "000000000000000000025f742c626208ac87e0b7d15054abb4a19ca2d735a54e",
    "block_time": 1710405325
  },
  "hex": "01000000000102b2f8f4d42610c3e754ad9f8a3522bbe01351ce75a41be6bcbcfeb8c4fb97a3ed0100000000ffffffff5a34b4456a5abdaf1981824c5db5f315888b8d469d4d0a632e2fdfda601652683400000000ffffffff0154f31400000000001976a914dc9857e1f20543d3cae02ed9deacc0e679fc1e0688ac02473044022019364b17eb4b0891831d5320ceeee5ae3b06aa06f659a7fed4db98b8bc3f5e810220337bc96fd15025a3ada3dd9770cb685606a9bc2b11ef8a86be56e3c9ea45f6ab0121037742986768b0ead7203618d756b859e0b6d2b702eefbfeb56f2a2b77fdd2253602473044022055da346a9cc7dac88ba2210a163decfd481a827ff499b86875666f6b4f05753a02206d58e7dcafa41d51db38357840c817cbed66f7fbbc41ce74eb392467d1e6cd2d012102780a6cd75a1da468c186939049e10deeb8c851a7822be1e6862d754b93741c7600000000"
}