{
  "txid": "7e67c6d922bbdbd0b7c9f3ca720dfb0ecf19d77e649c14824159d855ae13de59",
  "version": 2,
  "locktime": 834637,
  "vin": [
    {
      "txid": "3e34f1e743f121578bec051e788ec097078ec7ab69edfd88cd8e22ab02de42c8",
      "vout": 1,
      "prevout": {
        "scriptpubkey": "0014eace0c7f11da67c96db08faef5f41dad6be0f144",
        "scriptpubkey_asm": "OP_0 OP_PUSHBYTES_20 eace0c7f11da67c96db08faef5f41dad6be0f144",
        "scriptpubkey_type": "v0_p2wpkh",
        "scriptpubkey_address": "bc1qat8qclc3mfnujmds37h0taqa4447pu2yy6jp2y",
        "value": 789418833
      },
      "scriptsig": "",
      "scriptsig_asm": "",
      "witness": [
        "304402203f7c4c333bee6fdd2ce28c03cc09dc74cfcf31792422613a555bb52d4bff61f702202639717567854fb9b442bd749379d22275122c0cc8103207c47d35ba9c6f633301",
        "02c9b2d05cb58a8955b6af0a9feecacf8c5e0036fd3ac8bcb815f04eb23a9bea48"
      ],
      "is_coinbase": false,
      "sequence": 4294967294
    }
  ],
  "vout": [
    {
      "scriptpubkey": "00146d58b88d6a4ff43f781a5af90d317d791a0fb165",
      "scriptpubkey_asm": "OP_0 OP_PUSHBYTES_20 6d58b88d6a4ff43f781a5af90d317d791a0fb165",
      "scriptpubkey_type": "v0_p2wpkh",
      "scriptpubkey_address": "bc1qd4vt3rt2fl6r77q6ttus6vta0ydqlvt9uspguj",
      "value": 764079705
    },
    {
      "scriptpubkey": "00146aea1bf96b2f528487b41aea2e9b7543d16aeecf",
      "scriptpubkey_asm": "OP_0 OP_PUSHBYTES_20 6aea1bf96b2f528487b41aea2e9b7543d16aeecf",
      "scriptpubkey_type": "v0_p2wpkh",
      "scriptpubkey_address": "bc1qdt4ph7tt9afgfpa5rt4zaxm4g0gk4mk0s3dmc7",
      "value": 25335322
    }
  ],
  "size": 222,
  "weight": 561,
  "fee": 3806,
  "status": {
    "confirmed": true,
    "block_height": 834638,
    "block_hash": "000000000000000000025f742c626208ac87e0b7d15054abb4a19ca2d735a54e",
    "block_time": 1710405325
  },
  "hex": "02000000000101c842de02ab228ecd88fded69abc78e0797c08e781e05ec8b5721f143e7f1343e0100000000feffffff0259ee8a2d000000001600146d58b88d6a4ff43f781a5af90d317d791a0fb1651a968201000000001600146aea1bf96b2f528487b41aea2e9b7543d16aeecf0247304402203f7c4c333bee6fdd2ce28c03cc09dc74cfcf31792422613a555bb52d4bff61f702202639717567854fb9b442bd749379d22275122c0cc8103207c47d35ba9c6f6333012102c9b2d05cb58a8955b6af0a9feecacf8c5e0036fd3ac8bcb815f04eb23a9bea484dbc0c00"
}