{
  "txid": "7e75a99efbee0f7a8c847305995c26cb289e88eec5e8756153790e0cdf716841",
  "version": 2,
  "locktime": 0,
  "vin": [
    {
      "txid": "acc3ba00869acb582a3f2904ce3a11dd3779350ce234063fc7d0959246213364",
      "vout": 153,
      "prevout": {
        "scriptpubkey": "51203625f1ab1bf10a7dd932dc2e63dded70dbcb13b5e80b109e14d25d10299585c9",
        "scriptpubkey_asm": "OP_PUSHNUM_1 OP_PUSHBYTES_32 3625f1ab1bf10a7dd932dc2e63dded70dbcb13b5e80b109e14d25d10299585c9",
        "scriptpubkey_type": "v1_p2tr",
        "scriptpubkey_address": "bc1pxcjlr2cm7y98mkfjmshx8h0dwrdukya4aq93p8s56fw3q2v4shyszkwmfx",
        "value": 1806
      },
      "scriptsig": "",
      "scriptsig_asm": "",
      "witness": [
        "293b27edaa869cfa6b5bded2f6fc6ad2ba2790493f3c48faad986ac4985d2fbc8f78774b2e00e5dde79ffde4cf8b9a2ee1ae42fc27107e9385043fa2c305bb87",
        "203ddfc287bc8a24df7a8cc7172ee6031c9d73915e12bff188ba0bd2db57ec363bac0063036f726401010a746578742f706c61696e00357b2270223a226272632d3230222c226f70223a226d696e74222c227469636b223a22646f6765222c22616d74223a2234323030227d68",
        "c03ddfc287bc8a24df7a8cc7172ee6031c9d73915e12bff188ba0bd2db57ec363b"
      ],
      "is_coinbase": false,
      "sequence": 4261412863
    }
  ],
  "vout": [
    {
      "scriptpubkey": "00147a665de7a370f4c9b372ab1fae587500a5bcbdb4",
      "scriptpubkey_asm": "OP_0 OP_PUSHBYTES_20 7a665de7a370f4c9b372ab1fae587500a5bcbdb4",
      "scriptpubkey_type": "v0_p2wpkh",
      "scriptpubkey_address": "bc1q0fn9mearwr6vnvmj4v06ukr4qzjme0d565dzcx",
      "value": 294
    }
  ],
  "size": 294,
  "weight": 540,
  "fee": 1512,
  "status": {
    "confirmed": true,
    "block_height": 834460,
    "block_hash": "00000000000000000000484a79b643b2524bbce82e5d8a442013fa5b8905ed98",
    "block_time": 1710307468
  },
  "hex": "02000000000101643321469295d0c73f0634e20c357937dd113ace04293f2a58cb9a8600bac3ac9900000000fffffffd0126010000000000001600147a665de7a370f4c9b372ab1fae587500a5bcbdb40340293b27edaa869cfa6b5bded2f6fc6ad2ba2790493f3c48faad986ac4985d2fbc8f78774b2e00e5dde79ffde4cf8b9a2ee1ae42fc27107e9385043fa2c305bb876d203ddfc287bc8a24df7a8cc7172ee6031c9d73915e12bff188ba0bd2db57ec363bac0063036f726401010a746578742f706c61696e00357b2270223a226272632d3230222c226f70223a226d696e74222c227469636b223a22646f6765222c22616d74223a2234323030227d6821c03ddfc287bc8a24df7a8cc7172ee6031c9d73915e12bff188ba0bd2db57ec363b00000000"
}