{
  "txid": "7e8557172875668a582bab0e5a209fccf07636667d70897f80506ae1b0b17702",
  "version": 2,
  "locktime": 0,
  "vin": [
    {
      "txid": "5daadcf2242fd23113a9782ba6ac3927d6fd90d4f33d13fe7a13dcd4db4bbab2",
      "vout": 4,
      "prevout": {
        "scriptpubkey": "00148dfdf43d274574657ed66ddec84be2aab0e23e73",
        "scriptpubkey_asm": "OP_0 OP_PUSHBYTES_20 8dfdf43d274574657ed66ddec84be2aab0e23e73",
        "scriptpubkey_type": "v0_p2wpkh",
        "scriptpubkey_address": "bc1q3h7lg0f8g46x2lkkdh0vsjlz42cwy0nn3k9ack",
        "value": 294000
      },
      "scriptsig": "",
      "scriptsig_asm": "",
      "witness": [
        "3045022100ac2213f310b8559fa32431298c77c619fb77cc9b956a0c2539a91deedcd35e15022073cb580d11c6cf3632257d456cb36b0af5b514e6fb5232778a9e20b51906a50501",
        "0371163bf950cedbb3198c73856bc03e3bb33c0762d6230e9da53d7fc510f3e371"
      ],
      "is_coinbase": false,
      "sequence": 4294967295
    },
    {
      "txid": "a753807cc758c7bda87733d97dd3c82afb4091347ac130341f855c195895a67b",
      "vout": 1,
      "prevout": {
        "scriptpubkey": "00148dfdf43d274574657ed66ddec84be2aab0e23e73",
        "scriptpubkey_asm": "OP_0 OP_PUSHBYTES_20 8dfdf43d274574657ed66ddec84be2aab0e23e73",
        "scriptpubkey_type": "v0_p2wpkh",
        "scriptpubkey_address": "bc1q3h7lg0f8g46x2lkkdh0vsjlz42cwy0nn3k9ack",
        "value": 1890
      },
      "scriptsig": "",
      "scriptsig_asm": "",
      "witness": [
        "3045022100d503be82e624506b25aac52aa0b65f29f6768f7fbb8d53084bc8802275bf938e02205bdbc2c95e8c07dce37f7199df56818260e07b6667abfa95893f6dcb5b3ef29501",
        "0371163bf950cedbb3198c73856bc03e3bb33c0762d6230e9da53d7fc510f3e371"
      ],
      "is_coinbase": false,
      "sequence": 4294967295
    },
    {
      "txid": "44ac306a1b998dd804fc4c2d0505c915778c44a1c95a28798ce501953f22ce77",
      "vout": 1,
      "prevout": {
        "scriptpubkey": "00148dfdf43d274574657ed66ddec84be2aab0e23e73",
        "scriptpubkey_asm": "OP_0 OP_PUSHBYTES_20 8dfdf43d274574657ed66ddec84be2aab0e23e73",
        "scriptpubkey_type": "v0_p2wpkh",
        "scriptpubkey_address": "bc1q3h7lg0f8g46x2lkkdh0vsjlz42cwy0nn3k9ack",
        "value": 818
      },
      "scriptsig": "",
      "scriptsig_asm": "",
      "witness": [
        "304402201746c47340b8b423e7a83fa7a1c0d3b4776134e8a9c49d5e7946a8adc0e5c0610220086ce466486343a29cf4bf27612f72005edd8f7466c1c5f8485bcb38cb48924d01",
        "0371163bf950cedbb3198c73856bc03e3bb33c0762d6230e9da53d7fc510f3e371"
      ],
      "is_coinbase": false,
      "sequence": 4294967295
    }
  ],
  "vout": [
    {
      "scriptpubkey": "76a914f8edb4d20de24f9a11f624a13cb471f6f994266788ac",
      "scriptpubkey_asm": "OP_DUP OP_HASH160 OP_PUSHBYTES_20 f8edb4d20de24f9a11f624a13cb471f6f9942667 OP_EQUALVERIFY OP_CHECKSIG",
      "scriptpubkey_type": "p2pkh",
      "scriptpubkey_address": "1PhDLhZV6Kfs5HmXcAgFhKELwbQhejS4Ng",
      "value": 294000
    }
  ],
  "size": 492,
  "weight": 993,
  "fee": 2708,
  "status": {
    "confirmed": true,
    "block_height": 834464,
    "block_hash": "0000000000000000000177a0869a911a2b65c9bdcd5a8bcb02b68f305bee848e",
    "block_time": 1710308296
  },
  "hex": "02000000000103b2ba4bdbd4dc137afe133df3d490fdd62739aca62b78a91331d22f24f2dcaa5d0400000000ffffffff7ba69558195c851f3430c17a349140fb2ac8d37dd93377a8bdc758c77c8053a70100000000ffffffff77ce223f9501e58c79285ac9a1448c7715c905052d4cfc04d88d991b6a30ac440100000000ffffffff01707c0400000000001976a914f8edb4d20de24f9a11f624a13cb471f6f994266788ac02483045022100ac2213f310b8559fa32431298c77c619fb77cc9b956a0c2539a91deedcd35e15022073cb580d11c6cf3632257d456cb36b0af5b514e6fb5232778a9e20b51906a50501210371163bf950cedbb3198c73856bc03e3bb33c0762d6230e9da53d7fc510f3e37102483045022100d503be82e624506b25aac52aa0b65f29f6768f7fbb8d53084bc8802275bf938e02205bdbc2c95e8c07dce37f7199df56818260e07b6667abfa95893f6dcb5b3ef29501210371163bf950cedbb3198c73856bc03e3bb33c0762d6230e9da53d7fc510f3e3710247304402201746c47340b8b423e7a83fa7a1c0d3b4776134e8a9c49d5e7946a8adc0e5c0610220086ce466486343a29cf4bf27612f72005edd8f7466c1c5f8485bcb38cb48924d01210371163bf950cedbb3198c73856bc03e3bb33c0762d6230e9da53d7fc510f3e37100000000"
}