{
  "txid": "7e898c156c1553b17ce61bcccfed53064f5b4d25eaa55bacb1880fe18e3856d3",
  "version": 2,
  "locktime": 834424,
  "vin": [
    {
      "txid": "faa8ce5f3bc7ef6972bd21cb3a5e5162835f4e64f272fadb6e0cb7feda2847ec",
      "vout": 1,
      "prevout": {
        "scriptpubkey": "0014eb763232c2f243353e6efdaa15067927d774b805",
        "scriptpubkey_asm": "OP_0 OP_PUSHBYTES_20 eb763232c2f243353e6efdaa15067927d774b805",
        "scriptpubkey_type": "v0_p2wpkh",
        "scriptpubkey_address": "bc1qadmryvkz7fpn20nwlk4p2pneylthfwq9s0zrv8",
        "value": 112585
      },
      "scriptsig": "",
      "scriptsig_asm": "",
      "witness": [
        "3044022024a618ac050cb347b6c0565913aedc553259988b02755e6a31aea4f0875c85ac022059ddb8207ab3c15f82635e0ecf32e64586201de1c37a90681dc9f4605c4ab2f601",
        "023d9b77c72ef060c17626f10596c59c73da5cb69949470f1963d93579d0f7ff6d"
      ],
      "is_coinbase": false,
      "sequence": 4294967293
    }
  ],
  "vout": [
    {
      "scriptpubkey": "0014c451d335eb1e3bfabf0687c38597a36150d2beb9",
      "scriptpubkey_asm": "OP_0 OP_PUSHBYTES_20 c451d335eb1e3bfabf0687c38597a36150d2beb9",
      "scriptpubkey_type": "v0_p2wpkh",
      "scriptpubkey_address": "bc1qc3gaxd0trcal40cxslpct9arv9gd904ez3segs",
      "value": 40956
    },
    {
      "scriptpubkey": "a9143f28933b48121a90703233fdc74fef99ec1284f987",
      "scriptpubkey_asm": "OP_HASH160 OP_PUSHBYTES_20 3f28933b48121a90703233fdc74fef99ec1284f9 OP_EQUAL",
      "scriptpubkey_type": "p2sh",
      "scriptpubkey_address": "37Sy6qZVeNtTfwtGNLBgcUnxJPjs3oyvPZ",
      "value": 70067
    }
  ],
  "size": 223,
  "weight": 565,
  "fee": 1562,
  "status": {
    "confirmed": true,
    "block_height": 834464,
    "block_hash": "0000000000000000000177a0869a911a2b65c9bdcd5a8bcb02b68f305bee848e",
    "block_time": 1710308296
  },
  "hex": "02000000000101ec4728dafeb70c6edbfa72f2644e5f8362515e3acb21bd7269efc73b5fcea8fa0100000000fdffffff02fc9f000000000000160014c451d335eb1e3bfabf0687c38597a36150d2beb9b31101000000000017a9143f28933b48121a90703233fdc74fef99ec1284f98702473044022024a618ac050cb347b6c0565913aedc553259988b02755e6a31aea4f0875c85ac022059ddb8207ab3c15f82635e0ecf32e64586201de1c37a90681dc9f4605c4ab2f60121023d9b77c72ef060c17626f10596c59c73da5cb69949470f1963d93579d0f7ff6d78bb0c00"
}