{
  "txid": "7e92ec8befc0680e150c340fcbd9a4402cd31ce7effa8c7a43c4bacb2039636a",
  "version": 1,
  "locktime": 0,
  "vin": [
    {
      "txid": "ce8c4b21555fd57e586bd137cc59624cd643938ee2e53742a7383ebf52ab740f",
      "vout": 1,
      "prevout": {
        "scriptpubkey": "001479acee7d32ce11a2e8277ea580d3b75bd2964b2c",
        "scriptpubkey_asm": "OP_0 OP_PUSHBYTES_20 79acee7d32ce11a2e8277ea580d3b75bd2964b2c",
        "scriptpubkey_type": "v0_p2wpkh",
        "scriptpubkey_address": "bc1q0xkwulfjecg696p806jcp5aht0ffvjevpd5pne",
        "value": 4888400
      },
      "scriptsig": "",
      "scriptsig_asm": "",
      "witness": [
        "30450221009dcd65c235bdd3867a475162136c655c5c201480004f40ad3718148ecf27367f0220460c67e6c5a2e25df480e3019e88cdac0253988a88d557a1dab21289b69f582e01",
        "03cea11ccf2bb11f3776602648375691d3f7f8bc4fb3c88042f5e4d29132c79dac"
      ],
      "is_coinbase": false,
      "sequence": 4294967295
    }
  ],
  "vout": [
    {
      "scriptpubkey": "0014c55100bf4414ae5dc801c2182dbb35a675a7bf02",
      "scriptpubkey_asm": "OP_0 OP_PUSHBYTES_20 c55100bf4414ae5dc801c2182dbb35a675a7bf02",
      "scriptpubkey_type": "v0_p2wpkh",
      "scriptpubkey_address": "bc1qc4gsp06yzjh9mjqpcgvzmwe45e6600czav08ta",
      "value": 291749
    },
    {
      "scriptpubkey": "00143f1155b49a5a5172e53fe778916230cc3e13b744",
      "scriptpubkey_asm": "OP_0 OP_PUSHBYTES_20 3f1155b49a5a5172e53fe778916230cc3e13b744",
      "scriptpubkey_type": "v0_p2wpkh",
      "scriptpubkey_address": "bc1q8ug4tdy6tfgh9efluaufzc3seslp8d6yr9zel2",
      "value": 4594536
    }
  ],
  "size": 223,
  "weight": 562,
  "fee": 2115,
  "status": {
    "confirmed": true,
    "block_height": 834638,
    "block_hash": "000000000000000000025f742c626208ac87e0b7d15054abb4a19ca2d735a54e",
    "block_time": 1710405325
  },
  "hex": "010000000001010f74ab52bf3e38a74237e5e28e9343d64c6259cc37d16b587ed55f55214b8cce0100000000ffffffff02a573040000000000160014c55100bf4414ae5dc801c2182dbb35a675a7bf02681b4600000000001600143f1155b49a5a5172e53fe778916230cc3e13b744024830450221009dcd65c235bdd3867a475162136c655c5c201480004f40ad3718148ecf27367f0220460c67e6c5a2e25df480e3019e88cdac0253988a88d557a1dab21289b69f582e012103cea11ccf2bb11f3776602648375691d3f7f8bc4fb3c88042f5e4d29132c79dac00000000"
}