{
  "txid": "7e981ee9ad6af81b6b893151cf26abc3c94d1720a01183b9254c6b592dcefb36",
  "version": 2,
  "locktime": 0,
  "vin": [
    {
      "txid": "246d654c08ac53d370d501753f3ac2c90861e2c8cea715ed4b7554841cced399",
      "vout": 41,
      "prevout": {
        "scriptpubkey": "51206cff4eaacb8c14ea637d01da5250c0f41d68ceb22a0ba078c022b6a76795aeef",
        "scriptpubkey_asm": "OP_PUSHNUM_1 OP_PUSHBYTES_32 6cff4eaacb8c14ea637d01da5250c0f41d68ceb22a0ba078c022b6a76795aeef",
        "scriptpubkey_type": "v1_p2tr",
        "scriptpubkey_address": "bc1pdnl5a2kt3s2w5cmaq8d9y5xq7swk3n4j9g96q7xqy2m2weu44mhssk5et2",
        "value": 3042
      },
      "scriptsig": "",
      "scriptsig_asm": "",
      "witness": [
        "d4d09df485ee400a45aae6b8e54ddafc29fd1be2d19bdcd8ab60cb8c42a848efcf3f0eba54c2520a5a408171b7bdf97c78ce7b56c927b734fd682c11602e6381",
        "208193d52217b0bd4a9bf18267d6185735dbe9761fc2d67aac19a22a0a6f45e14dac0063036f726401011e6170706c69636174696f6e2f6a736f6e3b636861727365743d7574662d38004cd27b2270223a22706f772d3230222c226f70223a226d696e74222c227469636b223a2250455045222c22616d74223a2231303030222c22736f6c7574696f6e223a22504550453a62633170756a666d33753333656e70786b38383339796c6b3239323239396b6e6467686c717468396e39647a6c7663647635617076366a717732776e71663a303030303030303030303030303030303030303139393431613561653132383937363539383134343239323533333030353762306461393666336465613163353a36303635393939363236227d68",
        "c1f4929cb66946e40c5d3e5e2b126f88b9a6070d7490abd3aa8e42bf5bbcfe7b9f"
      ],
      "is_coinbase": false,
      "sequence": 4294967295
    }
  ],
  "vout": [
    {
      "scriptpubkey": "5120e493b8f231ccc26b1cf1293f65154a296d36a2ff02ee5995a2fb30d653a166a4",
      "scriptpubkey_asm": "OP_PUSHNUM_1 OP_PUSHBYTES_32 e493b8f231ccc26b1cf1293f65154a296d36a2ff02ee5995a2fb30d653a166a4",
      "scriptpubkey_type": "v1_p2tr",
      "scriptpubkey_address": "bc1pujfm3u33enpxk8839ylk292299kndghlqth9n9dzlvcdv5apv6jqw2wnqf",
      "value": 546
    }
  ],
  "size": 486,
  "weight": 768,
  "fee": 2496,
  "status": {
    "confirmed": true,
    "block_height": 834460,
    "block_hash": "00000000000000000000484a79b643b2524bbce82e5d8a442013fa5b8905ed98",
    "block_time": 1710307468
  },
  "hex": "0200000000010199d3ce1c8454754bed15a7cec8e26108c9c23a3f7501d570d353ac084c656d242900000000ffffffff012202000000000000225120e493b8f231ccc26b1cf1293f65154a296d36a2ff02ee5995a2fb30d653a166a40340d4d09df485ee400a45aae6b8e54ddafc29fd1be2d19bdcd8ab60cb8c42a848efcf3f0eba54c2520a5a408171b7bdf97c78ce7b56c927b734fd682c11602e6381fd1f01208193d52217b0bd4a9bf18267d6185735dbe9761fc2d67aac19a22a0a6f45e14dac0063036f726401011e6170706c69636174696f6e2f6a736f6e3b636861727365743d7574662d38004cd27b2270223a22706f772d3230222c226f70223a226d696e74222c227469636b223a2250455045222c22616d74223a2231303030222c22736f6c7574696f6e223a22504550453a62633170756a666d33753333656e70786b38383339796c6b3239323239396b6e6467686c717468396e39647a6c7663647635617076366a717732776e71663a303030303030303030303030303030303030303139393431613561653132383937363539383134343239323533333030353762306461393666336465613163353a36303635393939363236227d6821c1f4929cb66946e40c5d3e5e2b126f88b9a6070d7490abd3aa8e42bf5bbcfe7b9f00000000"
}