{
  "txid": "7e988284817f893a3a2f9c51a7da982b2f29d7494121f5d83a0008671c865929",
  "version": 1,
  "locktime": 834637,
  "vin": [
    {
      "txid": "a399fe4e4507811e256eb26a32114ea590498a989c01d08e9d673c01d6b6d57c",
      "vout": 52,
      "prevout": {
        "scriptpubkey": "a914615ee1da1eefb2f92a646ffb58a84d72240129f687",
        "scriptpubkey_asm": "OP_HASH160 OP_PUSHBYTES_20 615ee1da1eefb2f92a646ffb58a84d72240129f6 OP_EQUAL",
        "scriptpubkey_type": "p2sh",
        "scriptpubkey_address": "3AZs8gf2Hc6w4KU2BHXQbtPXgnXeqJVeBK",
        "value": 148147
      },
      "scriptsig": "220020669d46392221d421effab0b90a73b9180445c1940b2fd93c22da89e044cfe240",
      "scriptsig_asm": "OP_PUSHBYTES_34 0020669d46392221d421effab0b90a73b9180445c1940b2fd93c22da89e044cfe240",
      "witness": [
        "",
        "304402204acd1420b7dec335a40fd58cbf9eaf0679bdaa6bf239269b5a8b5c15637895ed0220730f4a320d064107d07a0c2a2a17cbad87295f93886b24eb3130307db1e97a1301",
        "304402200113f417364f53e7cf6ccc9213e8fee2f29b19a67c7ffb4ea604afc45b7c7ee902206ff94634871298b1692125b181f199219606aacff07645cde9b5bbf20cf1452301",
        "5221030caf3a5fcb7bced0294c539725586dffcd01c02faa85cf2ca787e289983da69521024501045b0954c128f15c27ffdb1a82a824b598758deed59995a68b9645ad661f2103bba10aad801800c7cf9c3d79a44df9cf4ede0a11320c57078a998c57a6b5576a53ae"
      ],
      "is_coinbase": false,
      "sequence": 4294967293,
      "inner_redeemscript_asm": "OP_0 OP_PUSHBYTES_32 669d46392221d421effab0b90a73b9180445c1940b2fd93c22da89e044cfe240",
      "inner_witnessscript_asm": "OP_PUSHNUM_2 OP_PUSHBYTES_33 030caf3a5fcb7bced0294c539725586dffcd01c02faa85cf2ca787e289983da695 OP_PUSHBYTES_33 024501045b0954c128f15c27ffdb1a82a824b598758deed59995a68b9645ad661f OP_PUSHBYTES_33 03bba10aad801800c7cf9c3d79a44df9cf4ede0a11320c57078a998c57a6b5576a OP_PUSHNUM_3 OP_CHECKMULTISIG"
    },
    {
      "txid": "a399fe4e4507811e256eb26a32114ea590498a989c01d08e9d673c01d6b6d57c",
      "vout": 54,
      "prevout": {
        "scriptpubkey": "a914d2c872a0b9f8e211d7ea823f59c04b2c7098026b87",
        "scriptpubkey_asm": "OP_HASH160 OP_PUSHBYTES_20 d2c872a0b9f8e211d7ea823f59c04b2c7098026b OP_EQUAL",
        "scriptpubkey_type": "p2sh",
        "scriptpubkey_address": "3LuXxBZvMwy2arFZW9zJR9VUGk4C71MPUg",
        "value": 1043615
      },
      "scriptsig": "220020d90ce20ecb25427b96b0721beff66419441fd8c01d93477130457131207bc70d",
      "scriptsig_asm": "OP_PUSHBYTES_34 0020d90ce20ecb25427b96b0721beff66419441fd8c01d93477130457131207bc70d",
      "witness": [
        "",
        "3045022100d6d63bc4d666422add7678c10ca64520102435261bffae1eaafdfbaee2ecf21502205309a81615e628c5c31aeb58f59bd51b1b7792d59e0d478ca55c3ff79cf921b301",
        "3044022068916949b3a8d5a196bba3074d6f3fdad87ae1ddd5dc47266422e4c19c62e54a0220420a25df94651a86e92f9641e046f37133b044632d3cdf7045b00d5ca340ad7101",
        "522103c56e80a4822ae016fb1a1788e1a297febc2225790c05278c8b921c3a2e36e6da210378605f3925b2d5366b2e459e152e412d2d901e88ad997d8e8b05f92c2d09fd6021020a85684b1d3da6061c838df554ba17933ef9dc69bca0eeabf916c66d07e69bc353ae"
      ],
      "is_coinbase": false,
      "sequence": 4294967293,
      "inner_redeemscript_asm": "OP_0 OP_PUSHBYTES_32 d90ce20ecb25427b96b0721beff66419441fd8c01d93477130457131207bc70d",
      "inner_witnessscript_asm": "OP_PUSHNUM_2 OP_PUSHBYTES_33 03c56e80a4822ae016fb1a1788e1a297febc2225790c05278c8b921c3a2e36e6da OP_PUSHBYTES_33 0378605f3925b2d5366b2e459e152e412d2d901e88ad997d8e8b05f92c2d09fd60 OP_PUSHBYTES_33 020a85684b1d3da6061c838df554ba17933ef9dc69bca0eeabf916c66d07e69bc3 OP_PUSHNUM_3 OP_CHECKMULTISIG"
    },
    {
      "txid": "a399fe4e4507811e256eb26a32114ea590498a989c01d08e9d673c01d6b6d57c",
      "vout": 67,
      "prevout": {
        "scriptpubkey": "a91409b95d982f12d30fa2d29e406d8c943ad91633c287",
        "scriptpubkey_asm": "OP_HASH160 OP_PUSHBYTES_20 09b95d982f12d30fa2d29e406d8c943ad91633c2 OP_EQUAL",
        "scriptpubkey_type": "p2sh",
        "scriptpubkey_address": "32aS4hSoh6tfUywL6Frjy34ivHjKND4fef",
        "value": 202287
      },
      "scriptsig": "220020b2503201149e44db0e31e978347bc0fa21667aa226f67a6c09820556db56b74c",
      "scriptsig_asm": "OP_PUSHBYTES_34 0020b2503201149e44db0e31e978347bc0fa21667aa226f67a6c09820556db56b74c",
      "witness": [
        "",
        "3044022009046072fcd86dafbb6009c04380a4a75b565f96e6300c3cc4289d6a69d7eb5d0220442fbc454284096267232af6d847b040326a9f80fd0c6ccbd5f1cb53e7e0cc5701",
        "304402200097e01322f3de5cd8c50723fb5543a6104af8b349060543fafcaf495e06516f022037ba3e5e9d2587620dcd6b073379af58d25959494b24da82fa5c16ec6ebd88e801",
        "522103e57ceda0ed9e310b8fec09e0e2c67a7a4457cda2014cef2aadfa2ff1b30ba1ec2102c84f2aeebc7f3bd16530ddbee4afed92b8dcdbf44237cf530492feeeadef2234210286b6bff382d6252b34742fd303846b5601097b97e2d6e9f234937303ebbfcff953ae"
      ],
      "is_coinbase": false,
      "sequence": 4294967293,
      "inner_redeemscript_asm": "OP_0 OP_PUSHBYTES_32 b2503201149e44db0e31e978347bc0fa21667aa226f67a6c09820556db56b74c",
      "inner_witnessscript_asm": "OP_PUSHNUM_2 OP_PUSHBYTES_33 03e57ceda0ed9e310b8fec09e0e2c67a7a4457cda2014cef2aadfa2ff1b30ba1ec OP_PUSHBYTES_33 02c84f2aeebc7f3bd16530ddbee4afed92b8dcdbf44237cf530492feeeadef2234 OP_PUSHBYTES_33 0286b6bff382d6252b34742fd303846b5601097b97e2d6e9f234937303ebbfcff9 OP_PUSHNUM_3 OP_CHECKMULTISIG"
    },
    {
      "txid": "a399fe4e4507811e256eb26a32114ea590498a989c01d08e9d673c01d6b6d57c",
      "vout": 69,
      "prevout": {
        "scriptpubkey": "a914dad8253c17360df369802224132cd0d56fe3a16b87",
        "scriptpubkey_asm": "OP_HASH160 OP_PUSHBYTES_20 dad8253c17360df369802224132cd0d56fe3a16b OP_EQUAL",
        "scriptpubkey_type": "p2sh",
        "scriptpubkey_address": "3MeAAQqaG3ETdpz7hKehrGCcxvGfhHXdYs",
        "value": 337162
      },
      "scriptsig": "22002065b08cf7dd0182f221dd0581694f74fafdd0b0422251a404e940f60a0c17ccde",
      "scriptsig_asm": "OP_PUSHBYTES_34 002065b08cf7dd0182f221dd0581694f74fafdd0b0422251a404e940f60a0c17ccde",
      "witness": [
        "",
        "3045022100f40dbc550bfd89c89e4711563d5e19943847f3d40ca3d3b6e5398a3602b3ebf70220069ad9da2b00f396165e0256e1279126c8239c491f7fd4046f7ba53a45c140d601",
        "304402200ce5f0f741338df97c7215e77003705167107632094a25745f2252ad8e32cd57022015147ce4d4baaa2713b3c89e86d1e26e531fdb617b819a6f31b68899175543be01",
        "522102df888a7de51d19843d307defd837828e18aea1bf01ee108ed90eac40fd085d0c21023ee688637827674cecf25ccc634f412c164416a559a2dc8e8d838734c99404c12103e9e73a0e2ce1d3451223716c54b7fbec55ca02184ee0402df1a8a58dc3a1787a53ae"
      ],
      "is_coinbase": false,
      "sequence": 4294967293,
      "inner_redeemscript_asm": "OP_0 OP_PUSHBYTES_32 65b08cf7dd0182f221dd0581694f74fafdd0b0422251a404e940f60a0c17ccde",
      "inner_witnessscript_asm": "OP_PUSHNUM_2 OP_PUSHBYTES_33 02df888a7de51d19843d307defd837828e18aea1bf01ee108ed90eac40fd085d0c OP_PUSHBYTES_33 023ee688637827674cecf25ccc634f412c164416a559a2dc8e8d838734c99404c1 OP_PUSHBYTES_33 03e9e73a0e2ce1d3451223716c54b7fbec55ca02184ee0402df1a8a58dc3a1787a OP_PUSHNUM_3 OP_CHECKMULTISIG"
    },
    {
      "txid": "a399fe4e4507811e256eb26a32114ea590498a989c01d08e9d673c01d6b6d57c",
      "vout": 73,
      "prevout": {
        "scriptpubkey": "a91410c0646fc0690a75d731f434a36f961bd693912a87",
        "scriptpubkey_asm": "OP_HASH160 OP_PUSHBYTES_20 10c0646fc0690a75d731f434a36f961bd693912a OP_EQUAL",
        "scriptpubkey_type": "p2sh",
        "scriptpubkey_address": "33DbDGQjfQsHr7TaE7UUGA9MS2343mKost",
        "value": 420069
      },
      "scriptsig": "2200206850d769dca4c6190ec36de95d76449d17027f1c064f979eccff140682ec02aa",
      "scriptsig_asm": "OP_PUSHBYTES_34 00206850d769dca4c6190ec36de95d76449d17027f1c064f979eccff140682ec02aa",
      "witness": [
        "",
        "304402205b60b3a8101f28f3b1f2665f8b5106fe4eb38e4bf65b8a892d8b1b41dd2b4e38022075eefa02d1aae1638dabb2e40c68941f7aafe72b0094a56ab4d166d462010a7101",
        "304402202f08237a2ad754dbb82f59fb75c778807151d529fdbd1c27946a40839745937402200155ca527ee4af707c7c9fae4f342a6f13749f3bf7a5033fe3f5a13be2c3cbf501",
        "522103d1f91a1ee30df3234e13bbf2185649b9a7b0d2210e3037d3de06ee966c7a1aa7210276640a29d7bc20122106e087e110dcff4e0acfd04cc4d5b75ab17206c96462ef2103a7a989e80e7f2129e768f3e3b4bef213cbb04e837026161b9e1827a6f53e777253ae"
      ],
      "is_coinbase": false,
      "sequence": 4294967293,
      "inner_redeemscript_asm": "OP_0 OP_PUSHBYTES_32 6850d769dca4c6190ec36de95d76449d17027f1c064f979eccff140682ec02aa",
      "inner_witnessscript_asm": "OP_PUSHNUM_2 OP_PUSHBYTES_33 03d1f91a1ee30df3234e13bbf2185649b9a7b0d2210e3037d3de06ee966c7a1aa7 OP_PUSHBYTES_33 0276640a29d7bc20122106e087e110dcff4e0acfd04cc4d5b75ab17206c96462ef OP_PUSHBYTES_33 03a7a989e80e7f2129e768f3e3b4bef213cbb04e837026161b9e1827a6f53e7772 OP_PUSHNUM_3 OP_CHECKMULTISIG"
    }
  ],
  "vout": [
    {
      "scriptpubkey": "76a9149cc83effdf335cdef3cb244e43238b6fc567704388ac",
      "scriptpubkey_asm": "OP_DUP OP_HASH160 OP_PUSHBYTES_20 9cc83effdf335cdef3cb244e43238b6fc5677043 OP_EQUALVERIFY OP_CHECKSIG",
      "scriptpubkey_type": "p2pkh",
      "scriptpubkey_address": "1FHzJGYHY3R4eSPvPw167Hk7wH7FAbZ4NX",
      "value": 825000
    },
    {
      "scriptpubkey": "0020615fcf319cd473bff2ce5d165e3b5cf937716d84573e1ea401340bb99ca857b8",
      "scriptpubkey_asm": "OP_0 OP_PUSHBYTES_32 615fcf319cd473bff2ce5d165e3b5cf937716d84573e1ea401340bb99ca857b8",
      "scriptpubkey_type": "v0_p2wsh",
      "scriptpubkey_address": "bc1qv90u7vvu63emlukwt5t9uw6ulymhzmvy2ulpafqpxs9mn89g27uqrh7peu",
      "value": 1310127
    }
  ],
  "size": 1731,
  "weight": 3132,
  "fee": 16153,
  "status": {
    "confirmed": true,
    "block_height": 834638,
    "block_hash": "000000000000000000025f742c626208ac87e0b7d15054abb4a19ca2d735a54e",
    "block_time": 1710405325
  },
  "hex": "010000000001057cd5b6d6013c679d8ed0019c988a4990a54e11326ab26e251e8107454efe99a33400000023220020669d46392221d421effab0b90a73b9180445c1940b2fd93c22da89e044cfe240fdffffff7cd5b6d6013c679d8ed0019c988a4990a54e11326ab26e251e8107454efe99a33600000023220020d90ce20ecb25427b96b0721beff66419441fd8c01d93477130457131207bc70dfdffffff7cd5b6d6013c679d8ed0019c988a4990a54e11326ab26e251e8107454efe99a34300000023220020b2503201149e44db0e31e978347bc0fa21667aa226f67a6c09820556db56b74cfdffffff7cd5b6d6013c679d8ed0019c988a4990a54e11326ab26e251e8107454efe99a3450000002322002065b08cf7dd0182f221dd0581694f74fafdd0b0422251a404e940f60a0c17ccdefdffffff7cd5b6d6013c679d8ed0019c988a4990a54e11326ab26e251e8107454efe99a349000000232200206850d769dca4c6190ec36de95d76449d17027f1c064f979eccff140682ec02aafdffffff02a8960c00000000001976a9149cc83effdf335cdef3cb244e43238b6fc567704388acaffd130000000000220020615fcf319cd473bff2ce5d165e3b5cf937716d84573e1ea401340bb99ca857b8040047304402204acd1420b7dec335a40fd58cbf9eaf0679bdaa6bf239269b5a8b5c15637895ed0220730f4a320d064107d07a0c2a2a17cbad87295f93886b24eb3130307db1e97a130147304402200113f417364f53e7cf6ccc9213e8fee2f29b19a67c7ffb4ea604afc45b7c7ee902206ff94634871298b1692125b181f199219606aacff07645cde9b5bbf20cf1452301695221030caf3a5fcb7bced0294c539725586dffcd01c02faa85cf2ca787e289983da69521024501045b0954c128f15c27ffdb1a82a824b598758deed59995a68b9645ad661f2103bba10aad801800c7cf9c3d79a44df9cf4ede0a11320c57078a998c57a6b5576a53ae0400483045022100d6d63bc4d666422add7678c10ca64520102435261bffae1eaafdfbaee2ecf21502205309a81615e628c5c31aeb58f59bd51b1b7792d59e0d478ca55c3ff79cf921b301473044022068916949b3a8d5a196bba3074d6f3fdad87ae1ddd5dc47266422e4c19c62e54a0220420a25df94651a86e92f9641e046f37133b044632d3cdf7045b00d5ca340ad710169522103c56e80a4822ae016fb1a1788e1a297febc2225790c05278c8b921c3a2e36e6da210378605f3925b2d5366b2e459e152e412d2d901e88ad997d8e8b05f92c2d09fd6021020a85684b1d3da6061c838df554ba17933ef9dc69bca0eeabf916c66d07e69bc353ae0400473044022009046072fcd86dafbb6009c04380a4a75b565f96e6300c3cc4289d6a69d7eb5d0220442fbc454284096267232af6d847b040326a9f80fd0c6ccbd5f1cb53e7e0cc570147304402200097e01322f3de5cd8c50723fb5543a6104af8b349060543fafcaf495e06516f022037ba3e5e9d2587620dcd6b073379af58d25959494b24da82fa5c16ec6ebd88e80169522103e57ceda0ed9e310b8fec09e0e2c67a7a4457cda2014cef2aadfa2ff1b30ba1ec2102c84f2aeebc7f3bd16530ddbee4afed92b8dcdbf44237cf530492feeeadef2234210286b6bff382d6252b34742fd303846b5601097b97e2d6e9f234937303ebbfcff953ae0400483045022100f40dbc550bfd89c89e4711563d5e19943847f3d40ca3d3b6e5398a3602b3ebf70220069ad9da2b00f396165e0256e1279126c8239c491f7fd4046f7ba53a45c140d60147304402200ce5f0f741338df97c7215e77003705167107632094a25745f2252ad8e32cd57022015147ce4d4baaa2713b3c89e86d1e26e531fdb617b819a6f31b68899175543be0169522102df888a7de51d19843d307defd837828e18aea1bf01ee108ed90eac40fd085d0c21023ee688637827674cecf25ccc634f412c164416a559a2dc8e8d838734c99404c12103e9e73a0e2ce1d3451223716c54b7fbec55ca02184ee0402df1a8a58dc3a1787a53ae040047304402205b60b3a8101f28f3b1f2665f8b5106fe4eb38e4bf65b8a892d8b1b41dd2b4e38022075eefa02d1aae1638dabb2e40c68941f7aafe72b0094a56ab4d166d462010a710147304402202f08237a2ad754dbb82f59fb75c778807151d529fdbd1c27946a40839745937402200155ca527ee4af707c7c9fae4f342a6f13749f3bf7a5033fe3f5a13be2c3cbf50169522103d1f91a1ee30df3234e13bbf2185649b9a7b0d2210e3037d3de06ee966c7a1aa7210276640a29d7bc20122106e087e110dcff4e0acfd04cc4d5b75ab17206c96462ef2103a7a989e80e7f2129e768f3e3b4bef213cbb04e837026161b9e1827a6f53e777253ae4dbc0c00"
}