{
  "txid": "7ea10bd1058e36868598d5245894577187acb79aab0eb4875424951915410ed6",
  "version": 2,
  "locktime": 0,
  "vin": [
    {
      "txid": "0eddf93f24b2d392cda3aed855586f759c118678ab0fdf1339c1a2f0871fef42",
      "vout": 9,
      "prevout": {
        "scriptpubkey": "5120fbf15487f8e0d1a083f366d66304e862e9f741339c2074c3077ff25aed969f41",
        "scriptpubkey_asm": "OP_PUSHNUM_1 OP_PUSHBYTES_32 fbf15487f8e0d1a083f366d66304e862e9f741339c2074c3077ff25aed969f41",
        "scriptpubkey_type": "v1_p2tr",
        "scriptpubkey_address": "bc1pl0c4fplcurg6pqlnvmtxxp8gvt5lwsfnnss8fsc80le94mvknaqsu7r8mf",
        "value": 2821
      },
      "scriptsig": "",
      "scriptsig_asm": "",
      "witness": [
        "08b10bd584de49677f220f081cbeb64fdf997774b4d159a9b970d8739c0a9c9ec377d09ea18bf6082072527f5a6eee9e96e9d55c26f29ef07cf5f9ca573eb8b0",
        "20517b6286a138f8b962eeb4d88ab74478b46afb87974a942a0ef317730e5194f8ac0063036f726401011e6170706c69636174696f6e2f6a736f6e3b636861727365743d7574662d38004cbe7b2270223a22706f772d3230222c226f70223a226d696e74222c227469636b223a2250455045222c22616d74223a2231303030222c22736f6c7574696f6e223a22504550453a6263317172713238376168727578703271783033726774706379666a327261786e306175667a646a717a3a303030303030303030303030303030303030303139393431613561653132383937363539383134343239323533333030353762306461393666336465613163353a38323038323130333233227d68",
        "c1f26df831a413724db8123fd1cb518d6560252685500a3c204e36c4bb2a2cc255"
      ],
      "is_coinbase": false,
      "sequence": 4294967295
    }
  ],
  "vout": [
    {
      "scriptpubkey": "001418147f76e3e182a019f11a161c113250fa69bfbc",
      "scriptpubkey_asm": "OP_0 OP_PUSHBYTES_20 18147f76e3e182a019f11a161c113250fa69bfbc",
      "scriptpubkey_type": "v0_p2wpkh",
      "scriptpubkey_address": "bc1qrq287ahruxp2qx03rgtpcyfj2raxn0aufzdjqz",
      "value": 546
    }
  ],
  "size": 454,
  "weight": 700,
  "fee": 2275,
  "status": {
    "confirmed": true,
    "block_height": 834460,
    "block_hash": "00000000000000000000484a79b643b2524bbce82e5d8a442013fa5b8905ed98",
    "block_time": 1710307468
  },
  "hex": "0200000000010142ef1f87f0a2c13913df0fab7886119c756f5855d8aea3cd92d3b2243ff9dd0e0900000000ffffffff01220200000000000016001418147f76e3e182a019f11a161c113250fa69bfbc034008b10bd584de49677f220f081cbeb64fdf997774b4d159a9b970d8739c0a9c9ec377d09ea18bf6082072527f5a6eee9e96e9d55c26f29ef07cf5f9ca573eb8b0fd0b0120517b6286a138f8b962eeb4d88ab74478b46afb87974a942a0ef317730e5194f8ac0063036f726401011e6170706c69636174696f6e2f6a736f6e3b636861727365743d7574662d38004cbe7b2270223a22706f772d3230222c226f70223a226d696e74222c227469636b223a2250455045222c22616d74223a2231303030222c22736f6c7574696f6e223a22504550453a6263317172713238376168727578703271783033726774706379666a327261786e306175667a646a717a3a303030303030303030303030303030303030303139393431613561653132383937363539383134343239323533333030353762306461393666336465613163353a38323038323130333233227d6821c1f26df831a413724db8123fd1cb518d6560252685500a3c204e36c4bb2a2cc25500000000"
}