{
  "txid": "7ea7ab054ab486202a0597c839b8d969953608d4e0048c967139c4ac3a52903f",
  "version": 2,
  "locktime": 0,
  "vin": [
    {
      "txid": "acc3ba00869acb582a3f2904ce3a11dd3779350ce234063fc7d0959246213364",
      "vout": 135,
      "prevout": {
        "scriptpubkey": "512019aca45f72715a42c867d62d145621dad3106e6dd74c64e3f1b045b2e57a58fa",
        "scriptpubkey_asm": "OP_PUSHNUM_1 OP_PUSHBYTES_32 19aca45f72715a42c867d62d145621dad3106e6dd74c64e3f1b045b2e57a58fa",
        "scriptpubkey_type": "v1_p2tr",
        "scriptpubkey_address": "bc1prxk2ghmjw9dy9jr86ck3g43pmtf3qmnd6axxfcl3kpzm9et6traqy5xutl",
        "value": 1806
      },
      "scriptsig": "",
      "scriptsig_asm": "",
      "witness": [
        "5ba42d141f8d335998e15a5be8686f4e1b4386794257d3e62abbc70660b297a176453e7efc6d33201814b2c572c56ad461975f87557117005c1087e37936dd02",
        "201dd00c1b6a733efa9352eb866d9858310f534e2b0850b6a0f4f28f1e479fd177ac0063036f726401010a746578742f706c61696e00357b2270223a226272632d3230222c226f70223a226d696e74222c227469636b223a22646f6765222c22616d74223a2234323030227d68",
        "c11dd00c1b6a733efa9352eb866d9858310f534e2b0850b6a0f4f28f1e479fd177"
      ],
      "is_coinbase": false,
      "sequence": 4261412863
    }
  ],
  "vout": [
    {
      "scriptpubkey": "00147a665de7a370f4c9b372ab1fae587500a5bcbdb4",
      "scriptpubkey_asm": "OP_0 OP_PUSHBYTES_20 7a665de7a370f4c9b372ab1fae587500a5bcbdb4",
      "scriptpubkey_type": "v0_p2wpkh",
      "scriptpubkey_address": "bc1q0fn9mearwr6vnvmj4v06ukr4qzjme0d565dzcx",
      "value": 294
    }
  ],
  "size": 294,
  "weight": 540,
  "fee": 1512,
  "status": {
    "confirmed": true,
    "block_height": 834460,
    "block_hash": "00000000000000000000484a79b643b2524bbce82e5d8a442013fa5b8905ed98",
    "block_time": 1710307468
  },
  "hex": "02000000000101643321469295d0c73f0634e20c357937dd113ace04293f2a58cb9a8600bac3ac8700000000fffffffd0126010000000000001600147a665de7a370f4c9b372ab1fae587500a5bcbdb403405ba42d141f8d335998e15a5be8686f4e1b4386794257d3e62abbc70660b297a176453e7efc6d33201814b2c572c56ad461975f87557117005c1087e37936dd026d201dd00c1b6a733efa9352eb866d9858310f534e2b0850b6a0f4f28f1e479fd177ac0063036f726401010a746578742f706c61696e00357b2270223a226272632d3230222c226f70223a226d696e74222c227469636b223a22646f6765222c22616d74223a2234323030227d6821c11dd00c1b6a733efa9352eb866d9858310f534e2b0850b6a0f4f28f1e479fd17700000000"
}