{
  "txid": "7eac82262c8f68c068c882b747e02bf1be690fd499dfc52e83ff74e95fd90fca",
  "version": 1,
  "locktime": 0,
  "vin": [
    {
      "txid": "49b3f0e6acdc273c9131f7544aae8c2e1116e26fd0c03db032fc3e571857497f",
      "vout": 1,
      "prevout": {
        "scriptpubkey": "001416db4fdaa1a5e03638b67653ecbe811de9ba1ee6",
        "scriptpubkey_asm": "OP_0 OP_PUSHBYTES_20 16db4fdaa1a5e03638b67653ecbe811de9ba1ee6",
        "scriptpubkey_type": "v0_p2wpkh",
        "scriptpubkey_address": "bc1qzmd5lk4p5hsrvw9kwef7e05prh5m58hxq2vjx8",
        "value": 298938161
      },
      "scriptsig": "",
      "scriptsig_asm": "",
      "witness": [
        "3045022100fe13cfa9adcf7668aec8d3486f4a6120d312640ee8600f029f33beecc7f46ae00220613608f25fc108f003632755f26ae169761a86e4e03a2b461537eebb1851d51c01",
        "02c72dfd4bd7a2ad2b24df086f4a10be311f5e876fc21d77fd95df598d5bdf680a"
      ],
      "is_coinbase": false,
      "sequence": 4294967293
    }
  ],
  "vout": [
    {
      "scriptpubkey": "a914ab0be769b5678839bafec05be53e62b3771bb84a87",
      "scriptpubkey_asm": "OP_HASH160 OP_PUSHBYTES_20 ab0be769b5678839bafec05be53e62b3771bb84a OP_EQUAL",
      "scriptpubkey_type": "p2sh",
      "scriptpubkey_address": "3HHRjSwtvdRT2ifv2vAQ9jZX5Ni4SvXwFL",
      "value": 69590000
    },
    {
      "scriptpubkey": "0014d942bff080fe364588379d4f4fff0ae067448907",
      "scriptpubkey_asm": "OP_0 OP_PUSHBYTES_20 d942bff080fe364588379d4f4fff0ae067448907",
      "scriptpubkey_type": "v0_p2wpkh",
      "scriptpubkey_address": "bc1qm9ptluyqlcmytzphn485llc2upn5fzg8r5qu94",
      "value": 229346315
    }
  ],
  "size": 224,
  "weight": 566,
  "fee": 1846,
  "status": {
    "confirmed": true,
    "block_height": 834460,
    "block_hash": "00000000000000000000484a79b643b2524bbce82e5d8a442013fa5b8905ed98",
    "block_time": 1710307468
  },
  "hex": "010000000001017f495718573efc32b03dc0d06fe216112e8cae4a54f731913c27dcace6f0b3490100000000fdffffff02f0db25040000000017a914ab0be769b5678839bafec05be53e62b3771bb84a870b8cab0d00000000160014d942bff080fe364588379d4f4fff0ae06744890702483045022100fe13cfa9adcf7668aec8d3486f4a6120d312640ee8600f029f33beecc7f46ae00220613608f25fc108f003632755f26ae169761a86e4e03a2b461537eebb1851d51c012102c72dfd4bd7a2ad2b24df086f4a10be311f5e876fc21d77fd95df598d5bdf680a00000000"
}