{
  "txid": "7eb18862afa358b74bb004473a46db2098290aeb616bbc42e57e45f8e65a4e29",
  "version": 2,
  "locktime": 0,
  "vin": [
    {
      "txid": "955fb2eaaf3a88c88e260c4d1bc71967f62ff3080f5b338f6d87860878462b66",
      "vout": 1,
      "prevout": {
        "scriptpubkey": "51201cf5ee87ba6a320056ce7811b572e31191dd5d3196cb034363ae5861da6c6bc9",
        "scriptpubkey_asm": "OP_PUSHNUM_1 OP_PUSHBYTES_32 1cf5ee87ba6a320056ce7811b572e31191dd5d3196cb034363ae5861da6c6bc9",
        "scriptpubkey_type": "v1_p2tr",
        "scriptpubkey_address": "bc1prn67apa6dgeqq4kw0qgm2uhrzxga6hf3jm9sxsmr4evxrknvd0ysw52eum",
        "value": 2753
      },
      "scriptsig": "",
      "scriptsig_asm": "",
      "witness": [
        "e69628297840e132537df806ddd7bee4dc56a5b13a9954a985c5abf7409ac428f11c92c9ea324bad9722236a56641fd21326a761aa956264e412c006a0e3a109",
        "2074c9aad624feedb723bd70fc697ae30c1935c547d9b21f66ff95e51c9a2a6772ac0063036f726401010a746578742f706c61696e004c8f7b2270223a2022746170222c20226f70223a2022646d742d6d696e74222c2022646570223a2022333962373532343338626533613435326464623731376230613635346233313662316164343661383139656234343831383933626337313331663738396539616930222c20227469636b223a20226e61746f776c73222c2022626c6b223a2022373035373633227d68",
        "c074c9aad624feedb723bd70fc697ae30c1935c547d9b21f66ff95e51c9a2a6772"
      ],
      "is_coinbase": false,
      "sequence": 4294967293
    }
  ],
  "vout": [
    {
      "scriptpubkey": "5120875b27e2ebaa1189ad1777eb124b8f0cd3dfe933d9a47622ffca147caaca54b5",
      "scriptpubkey_asm": "OP_PUSHNUM_1 OP_PUSHBYTES_32 875b27e2ebaa1189ad1777eb124b8f0cd3dfe933d9a47622ffca147caaca54b5",
      "scriptpubkey_type": "v1_p2tr",
      "scriptpubkey_address": "bc1psadj0cht4ggcntghwl43yju0pnfal6fnmxj8vghleg28e2k22j6s05x69l",
      "value": 546
    }
  ],
  "size": 397,
  "weight": 679,
  "fee": 2207,
  "status": {
    "confirmed": true,
    "block_height": 834460,
    "block_hash": "00000000000000000000484a79b643b2524bbce82e5d8a442013fa5b8905ed98",
    "block_time": 1710307468
  },
  "hex": "02000000000101662b46780886876d8f335b0f08f32ff66719c71b4d0c268ec8883aafeab25f950100000000fdffffff012202000000000000225120875b27e2ebaa1189ad1777eb124b8f0cd3dfe933d9a47622ffca147caaca54b50340e69628297840e132537df806ddd7bee4dc56a5b13a9954a985c5abf7409ac428f11c92c9ea324bad9722236a56641fd21326a761aa956264e412c006a0e3a109c82074c9aad624feedb723bd70fc697ae30c1935c547d9b21f66ff95e51c9a2a6772ac0063036f726401010a746578742f706c61696e004c8f7b2270223a2022746170222c20226f70223a2022646d742d6d696e74222c2022646570223a2022333962373532343338626533613435326464623731376230613635346233313662316164343661383139656234343831383933626337313331663738396539616930222c20227469636b223a20226e61746f776c73222c2022626c6b223a2022373035373633227d6821c074c9aad624feedb723bd70fc697ae30c1935c547d9b21f66ff95e51c9a2a677200000000"
}