{
  "txid": "7eb403d3e797b816fe7c0d1f79f1c0d20281720c5333ef58547a3cea1dbe8559",
  "version": 2,
  "locktime": 0,
  "vin": [
    {
      "txid": "4f9423ae9668c83f186a82ccec3dd0ca3931e0c7d7511a78b005d0d64ad49b69",
      "vout": 16,
      "prevout": {
        "scriptpubkey": "a914fc80d0cf6919bb216c8a7531a7127db941afd21387",
        "scriptpubkey_asm": "OP_HASH160 OP_PUSHBYTES_20 fc80d0cf6919bb216c8a7531a7127db941afd213 OP_EQUAL",
        "scriptpubkey_type": "p2sh",
        "scriptpubkey_address": "3Qi8X9uPXkr6JXUSUyvTyd5TKoAYoxoWoQ",
        "value": 32965000
      },
      "scriptsig": "160014d5f44e1f211d2cde101b07d521ffb377c6233123",
      "scriptsig_asm": "OP_PUSHBYTES_22 0014d5f44e1f211d2cde101b07d521ffb377c6233123",
      "witness": [
        "304402207cf32a274e47f196246631a3dda83564db481ea8a6515108339a01950286b8ab022060d924f254d03f6775be5342ebce6f21a8fff77854e41facfc7077bfe27c2c4801",
        "021f5f15a145f6ad54de9d1f716ba1db15cc151e2d7a339d00eaba3544840a1e55"
      ],
      "is_coinbase": false,
      "sequence": 4294967293,
      "inner_redeemscript_asm": "OP_0 OP_PUSHBYTES_20 d5f44e1f211d2cde101b07d521ffb377c6233123"
    },
    {
      "txid": "091641afa4cab13679818741229c4c3e927b237c22bfadb918a97f824ad4bdc0",
      "vout": 241,
      "prevout": {
        "scriptpubkey": "a914fc80d0cf6919bb216c8a7531a7127db941afd21387",
        "scriptpubkey_asm": "OP_HASH160 OP_PUSHBYTES_20 fc80d0cf6919bb216c8a7531a7127db941afd213 OP_EQUAL",
        "scriptpubkey_type": "p2sh",
        "scriptpubkey_address": "3Qi8X9uPXkr6JXUSUyvTyd5TKoAYoxoWoQ",
        "value": 514231
      },
      "scriptsig": "160014d5f44e1f211d2cde101b07d521ffb377c6233123",
      "scriptsig_asm": "OP_PUSHBYTES_22 0014d5f44e1f211d2cde101b07d521ffb377c6233123",
      "witness": [
        "304402201b689f69b1f9bbd6c725da04d0dbf4b5165e858e79c5a0c5cb55199302716d5b02203d5e7fdc67dd66b8da13e8e1a3997be5ec4035812914d5d2db576853ebddc16e01",
        "021f5f15a145f6ad54de9d1f716ba1db15cc151e2d7a339d00eaba3544840a1e55"
      ],
      "is_coinbase": false,
      "sequence": 4294967293,
      "inner_redeemscript_asm": "OP_0 OP_PUSHBYTES_20 d5f44e1f211d2cde101b07d521ffb377c6233123"
    }
  ],
  "vout": [
    {
      "scriptpubkey": "a914a26850c54eeb69be2bbc40c05af5fd07aac727a187",
      "scriptpubkey_asm": "OP_HASH160 OP_PUSHBYTES_20 a26850c54eeb69be2bbc40c05af5fd07aac727a1 OP_EQUAL",
      "scriptpubkey_type": "p2sh",
      "scriptpubkey_address": "3GVkMb7kQfmDFatLYiXwj5iQX39nF36Nzu",
      "value": 33000000
    },
    {
      "scriptpubkey": "a914fc80d0cf6919bb216c8a7531a7127db941afd21387",
      "scriptpubkey_asm": "OP_HASH160 OP_PUSHBYTES_20 fc80d0cf6919bb216c8a7531a7127db941afd213 OP_EQUAL",
      "scriptpubkey_type": "p2sh",
      "scriptpubkey_address": "3Qi8X9uPXkr6JXUSUyvTyd5TKoAYoxoWoQ",
      "value": 468337
    }
  ],
  "size": 418,
  "weight": 1024,
  "fee": 10894,
  "status": {
    "confirmed": true,
    "block_height": 834638,
    "block_hash": "000000000000000000025f742c626208ac87e0b7d15054abb4a19ca2d735a54e",
    "block_time": 1710405325
  },
  "hex": "02000000000102699bd44ad6d005b0781a51d7c7e03139cad03deccc826a183fc86896ae23944f1000000017160014d5f44e1f211d2cde101b07d521ffb377c6233123fdffffffc0bdd44a827fa918b9adbf227c237b923e4c9c224187817936b1caa4af411609f100000017160014d5f44e1f211d2cde101b07d521ffb377c6233123fdffffff02408af7010000000017a914a26850c54eeb69be2bbc40c05af5fd07aac727a187712507000000000017a914fc80d0cf6919bb216c8a7531a7127db941afd213870247304402207cf32a274e47f196246631a3dda83564db481ea8a6515108339a01950286b8ab022060d924f254d03f6775be5342ebce6f21a8fff77854e41facfc7077bfe27c2c480121021f5f15a145f6ad54de9d1f716ba1db15cc151e2d7a339d00eaba3544840a1e550247304402201b689f69b1f9bbd6c725da04d0dbf4b5165e858e79c5a0c5cb55199302716d5b02203d5e7fdc67dd66b8da13e8e1a3997be5ec4035812914d5d2db576853ebddc16e0121021f5f15a145f6ad54de9d1f716ba1db15cc151e2d7a339d00eaba3544840a1e5500000000"
}