{
  "txid": "7ec2c819b82041ecee3ec8d1202e252febbca1906c8e56a90b5bc8168cd28f4f",
  "version": 1,
  "locktime": 0,
  "vin": [
    {
      "txid": "394d348dda1258e09fce5c3b9c3bf7f2186c3b4e781c2ac3ee51e6c2c593fda0",
      "vout": 1,
      "prevout": {
        "scriptpubkey": "76a9148cb7edbac7873f2322f61918a4d7be791ba3533988ac",
        "scriptpubkey_asm": "OP_DUP OP_HASH160 OP_PUSHBYTES_20 8cb7edbac7873f2322f61918a4d7be791ba35339 OP_EQUALVERIFY OP_CHECKSIG",
        "scriptpubkey_type": "p2pkh",
        "scriptpubkey_address": "1Dq3wScYg375VnC6C4aKsTDbkq5sUXTSas",
        "value": 7205
      },
      "scriptsig": "4730440220066a10bce35de476355503a200abe1ea0d09c84d7dcdcecc53f331978367e1940220625c998037dc77f21eb0e1f64a84c4673cd5eeb41c731b2b3f709b35c542f80601210282a40e43df505d71518121a3daf0de02460c37a90d391c7182000233e9e591d4",
      "scriptsig_asm": "OP_PUSHBYTES_71 30440220066a10bce35de476355503a200abe1ea0d09c84d7dcdcecc53f331978367e1940220625c998037dc77f21eb0e1f64a84c4673cd5eeb41c731b2b3f709b35c542f80601 OP_PUSHBYTES_33 0282a40e43df505d71518121a3daf0de02460c37a90d391c7182000233e9e591d4",
      "is_coinbase": false,
      "sequence": 4294967295
    },
    {
      "txid": "59e09faf72796071cef91de471f2b1e50945b798ee76085efc08aad6834b9265",
      "vout": 1,
      "prevout": {
        "scriptpubkey": "76a9148cb7edbac7873f2322f61918a4d7be791ba3533988ac",
        "scriptpubkey_asm": "OP_DUP OP_HASH160 OP_PUSHBYTES_20 8cb7edbac7873f2322f61918a4d7be791ba35339 OP_EQUALVERIFY OP_CHECKSIG",
        "scriptpubkey_type": "p2pkh",
        "scriptpubkey_address": "1Dq3wScYg375VnC6C4aKsTDbkq5sUXTSas",
        "value": 5670
      },
      "scriptsig": "483045022100c3fe8196d96ef2d9dd40fc2c24890be0a9c4ce902841b12d00db231f96deda6402205d128e7e68671ca41763e8bc3ba6b33b7dcbd96ff4c3492d1ca613958c2f03a301210282a40e43df505d71518121a3daf0de02460c37a90d391c7182000233e9e591d4",
      "scriptsig_asm": "OP_PUSHBYTES_72 3045022100c3fe8196d96ef2d9dd40fc2c24890be0a9c4ce902841b12d00db231f96deda6402205d128e7e68671ca41763e8bc3ba6b33b7dcbd96ff4c3492d1ca613958c2f03a301 OP_PUSHBYTES_33 0282a40e43df505d71518121a3daf0de02460c37a90d391c7182000233e9e591d4",
      "is_coinbase": false,
      "sequence": 4294967295
    }
  ],
  "vout": [
    {
      "scriptpubkey": "76a914deee1c035e456225c499ecfd8ccb57d967d4121b88ac",
      "scriptpubkey_asm": "OP_DUP OP_HASH160 OP_PUSHBYTES_20 deee1c035e456225c499ecfd8ccb57d967d4121b OP_EQUALVERIFY OP_CHECKSIG",
      "scriptpubkey_type": "p2pkh",
      "scriptpubkey_address": "1MKkFiirL2oGtz2fgNKfuEbTGTtiMJiB8W",
      "value": 7840
    }
  ],
  "size": 339,
  "weight": 1356,
  "fee": 5035,
  "status": {
    "confirmed": true,
    "block_height": 834464,
    "block_hash": "0000000000000000000177a0869a911a2b65c9bdcd5a8bcb02b68f305bee848e",
    "block_time": 1710308296
  },
  "hex": "0100000002a0fd93c5c2e651eec32a1c784e3b6c18f2f73b9c3b5cce9fe05812da8d344d39010000006a4730440220066a10bce35de476355503a200abe1ea0d09c84d7dcdcecc53f331978367e1940220625c998037dc77f21eb0e1f64a84c4673cd5eeb41c731b2b3f709b35c542f80601210282a40e43df505d71518121a3daf0de02460c37a90d391c7182000233e9e591d4ffffffff65924b83d6aa08fc5e0876ee98b74509e5b1f271e41df9ce71607972af9fe059010000006b483045022100c3fe8196d96ef2d9dd40fc2c24890be0a9c4ce902841b12d00db231f96deda6402205d128e7e68671ca41763e8bc3ba6b33b7dcbd96ff4c3492d1ca613958c2f03a301210282a40e43df505d71518121a3daf0de02460c37a90d391c7182000233e9e591d4ffffffff01a01e0000000000001976a914deee1c035e456225c499ecfd8ccb57d967d4121b88ac00000000"
}