{
  "txid": "7ecc08350e64b4952b562f739f3e33e50b13b457ddecf1615322a3a191afcba9",
  "version": 2,
  "locktime": 0,
  "vin": [
    {
      "txid": "5440399a01fe588bbf5ddffda28564e520b7b9a2781a33ecd5b8e8fc542b7cd9",
      "vout": 3,
      "prevout": {
        "scriptpubkey": "51205be79b860024d8a4fc41f09b9a892ab0dd1872000868754fd5725049520df73c",
        "scriptpubkey_asm": "OP_PUSHNUM_1 OP_PUSHBYTES_32 5be79b860024d8a4fc41f09b9a892ab0dd1872000868754fd5725049520df73c",
        "scriptpubkey_type": "v1_p2tr",
        "scriptpubkey_address": "bc1pt0nehpsqynv2flzp7zde4zf2krw3susqpp582n74wfgyj5sd7u7q952fqk",
        "value": 81627
      },
      "scriptsig": "",
      "scriptsig_asm": "",
      "witness": [
        "831f89e9c609a3664b3ed443af595d3fcdf10e92aae5ecf5e2907a29814a887dcce85b2741b3683c869c0898a21dfd9cb43ad9a7aa0507328e9d80a3522a5318"
      ],
      "is_coinbase": false,
      "sequence": 4294967295
    }
  ],
  "vout": [
    {
      "scriptpubkey": "5120a500f4dada35963f196be694705835f11e40fca7a766b152f4b12459765e5537",
      "scriptpubkey_asm": "OP_PUSHNUM_1 OP_PUSHBYTES_32 a500f4dada35963f196be694705835f11e40fca7a766b152f4b12459765e5537",
      "scriptpubkey_type": "v1_p2tr",
      "scriptpubkey_address": "bc1p55q0fkk6xktr7xttu628qkp47y0ypl985antz5h5kyj9jaj725msfmms8j",
      "value": 5000
    },
    {
      "scriptpubkey": "51205be79b860024d8a4fc41f09b9a892ab0dd1872000868754fd5725049520df73c",
      "scriptpubkey_asm": "OP_PUSHNUM_1 OP_PUSHBYTES_32 5be79b860024d8a4fc41f09b9a892ab0dd1872000868754fd5725049520df73c",
      "scriptpubkey_type": "v1_p2tr",
      "scriptpubkey_address": "bc1pt0nehpsqynv2flzp7zde4zf2krw3susqpp582n74wfgyj5sd7u7q952fqk",
      "value": 74317
    }
  ],
  "size": 205,
  "weight": 616,
  "fee": 2310,
  "status": {
    "confirmed": true,
    "block_height": 834638,
    "block_hash": "000000000000000000025f742c626208ac87e0b7d15054abb4a19ca2d735a54e",
    "block_time": 1710405325
  },
  "hex": "02000000000101d97c2b54fce8b8d5ec331a78a2b9b720e56485a2fddf5dbf8b58fe019a3940540300000000ffffffff028813000000000000225120a500f4dada35963f196be694705835f11e40fca7a766b152f4b12459765e55374d220100000000002251205be79b860024d8a4fc41f09b9a892ab0dd1872000868754fd5725049520df73c0140831f89e9c609a3664b3ed443af595d3fcdf10e92aae5ecf5e2907a29814a887dcce85b2741b3683c869c0898a21dfd9cb43ad9a7aa0507328e9d80a3522a531800000000"
}