{
  "txid": "7ed9904f2a18765bcf114045d80432e4ed17bf34398beb731640d767a235765b",
  "version": 1,
  "locktime": 0,
  "vin": [
    {
      "txid": "69b3a5e430292316bc650eec9dcda86d9b91f9d60b91ee486765a81089075b7c",
      "vout": 1,
      "prevout": {
        "scriptpubkey": "0014dc6bf86354105de2fcd9868a2b0376d6731cb92f",
        "scriptpubkey_asm": "OP_0 OP_PUSHBYTES_20 dc6bf86354105de2fcd9868a2b0376d6731cb92f",
        "scriptpubkey_type": "v0_p2wpkh",
        "scriptpubkey_address": "bc1qm34lsc65zpw79lxes69zkqmk6ee3ewf0j77s3h",
        "value": 692856678
      },
      "scriptsig": "",
      "scriptsig_asm": "",
      "witness": [
        "3045022100b93e0194139c8b9ffb1533b546d6ec906659424039f4ca2c56a6f33810e3608602203e237f1f88122efd33c254d73ca2bc59c13c561d21becd363012e4a89fe9685801",
        "02174ee672429ff94304321cdae1fc1e487edf658b34bd1d36da03761658a2bb09"
      ],
      "is_coinbase": false,
      "sequence": 4294967295
    }
  ],
  "vout": [
    {
      "scriptpubkey": "00148ea9aeb0224199376eb5b53d03318918afa5b158",
      "scriptpubkey_asm": "OP_0 OP_PUSHBYTES_20 8ea9aeb0224199376eb5b53d03318918afa5b158",
      "scriptpubkey_type": "v0_p2wpkh",
      "scriptpubkey_address": "bc1q3656avpzgxvnwm44k57sxvvfrzh6tv2cn7h8qz",
      "value": 4435743
    },
    {
      "scriptpubkey": "0014dc6bf86354105de2fcd9868a2b0376d6731cb92f",
      "scriptpubkey_asm": "OP_0 OP_PUSHBYTES_20 dc6bf86354105de2fcd9868a2b0376d6731cb92f",
      "scriptpubkey_type": "v0_p2wpkh",
      "scriptpubkey_address": "bc1qm34lsc65zpw79lxes69zkqmk6ee3ewf0j77s3h",
      "value": 314871351
    },
    {
      "scriptpubkey": "76a9149aa9b47151327d70f29c3c4bcccb31f1df1d544488ac",
      "scriptpubkey_asm": "OP_DUP OP_HASH160 OP_PUSHBYTES_20 9aa9b47151327d70f29c3c4bcccb31f1df1d5444 OP_EQUALVERIFY OP_CHECKSIG",
      "scriptpubkey_type": "p2pkh",
      "scriptpubkey_address": "1F6nMqq2KK4LRSRpTa6RqqZyeewQTCRk6y",
      "value": 9980000
    },
    {
      "scriptpubkey": "001470e657cb57571484260de8cae6f6f8baa08990cb",
      "scriptpubkey_asm": "OP_0 OP_PUSHBYTES_20 70e657cb57571484260de8cae6f6f8baa08990cb",
      "scriptpubkey_type": "v0_p2wpkh",
      "scriptpubkey_address": "bc1qwrn90j6h2u2ggfsdar9wdahch2sgnyxt3838m6",
      "value": 40000
    },
    {
      "scriptpubkey": "00209f25cf62dff9897abb5c53c1bc63a80dd6f20cf17e6d0e57a44754639d2a3204",
      "scriptpubkey_asm": "OP_0 OP_PUSHBYTES_32 9f25cf62dff9897abb5c53c1bc63a80dd6f20cf17e6d0e57a44754639d2a3204",
      "scriptpubkey_type": "v0_p2wsh",
      "scriptpubkey_address": "bc1qnuju7ckllxyh4w6u20qmccagpht0yr830eksu4ayga2x88f2xgzqsugevm",
      "value": 315230000
    },
    {
      "scriptpubkey": "51205adab80fe5a195bd38c62d2c19fa98969d9b24a80ac81386a78c337f8aa2bd29",
      "scriptpubkey_asm": "OP_PUSHNUM_1 OP_PUSHBYTES_32 5adab80fe5a195bd38c62d2c19fa98969d9b24a80ac81386a78c337f8aa2bd29",
      "scriptpubkey_type": "v1_p2tr",
      "scriptpubkey_address": "bc1pttdtsrl95x2m6wxx95kpn75cj6wekf9gptyp8p483sehlz4zh55s76632a",
      "value": 194900
    },
    {
      "scriptpubkey": "0014b7ff62fe148cb00fd9dec7f7ae7217cf076c8e50",
      "scriptpubkey_asm": "OP_0 OP_PUSHBYTES_20 b7ff62fe148cb00fd9dec7f7ae7217cf076c8e50",
      "scriptpubkey_type": "v0_p2wpkh",
      "scriptpubkey_address": "bc1qkllk9ls53jcqlkw7clm6uusheurkerjs50d8lc",
      "value": 180000
    },
    {
      "scriptpubkey": "00140582dd7ec33121f54bcdb49ec9dbd2d0b5156107",
      "scriptpubkey_asm": "OP_0 OP_PUSHBYTES_20 0582dd7ec33121f54bcdb49ec9dbd2d0b5156107",
      "scriptpubkey_type": "v0_p2wpkh",
      "scriptpubkey_address": "bc1qqkpd6lkrxysl2j7dkj0vnk7j6z632cg8lrwqq6",
      "value": 62385
    },
    {
      "scriptpubkey": "76a914bc2ae7066f6f218ae18ae372ead0ec4d52126c9b88ac",
      "scriptpubkey_asm": "OP_DUP OP_HASH160 OP_PUSHBYTES_20 bc2ae7066f6f218ae18ae372ead0ec4d52126c9b OP_EQUALVERIFY OP_CHECKSIG",
      "scriptpubkey_type": "p2pkh",
      "scriptpubkey_address": "1J9wRyj99dMLPtLUZ7JboKDqhzeusf1jjP",
      "value": 2912703
    },
    {
      "scriptpubkey": "00142b42889b41f306f7985e6c150aebe3dc91f790af",
      "scriptpubkey_asm": "OP_0 OP_PUSHBYTES_20 2b42889b41f306f7985e6c150aebe3dc91f790af",
      "scriptpubkey_type": "v0_p2wpkh",
      "scriptpubkey_address": "bc1q9dpg3x6p7vr00xz7ds2s46lrmjgl0y90q9genx",
      "value": 70035
    },
    {
      "scriptpubkey": "a9146fa132f1136f47cb462419cd41100551f8da374187",
      "scriptpubkey_asm": "OP_HASH160 OP_PUSHBYTES_20 6fa132f1136f47cb462419cd41100551f8da3741 OP_EQUAL",
      "scriptpubkey_type": "p2sh",
      "scriptpubkey_address": "3BsG392Tct7j8zsKsQ59DqQcxtYSMnNGvC",
      "value": 28085700
    },
    {
      "scriptpubkey": "76a914104b1ad19ac99d5d6c5ad3c8113585feb79bef7788ac",
      "scriptpubkey_asm": "OP_DUP OP_HASH160 OP_PUSHBYTES_20 104b1ad19ac99d5d6c5ad3c8113585feb79bef77 OP_EQUALVERIFY OP_CHECKSIG",
      "scriptpubkey_type": "p2pkh",
      "scriptpubkey_address": "12V9nSVeuSJ6QbVcQDyQdek12uqvD1Fjq1",
      "value": 129127
    },
    {
      "scriptpubkey": "0014c054549ce5f3b906c07a0b178e99400e7c039613",
      "scriptpubkey_asm": "OP_0 OP_PUSHBYTES_20 c054549ce5f3b906c07a0b178e99400e7c039613",
      "scriptpubkey_type": "v0_p2wpkh",
      "scriptpubkey_address": "bc1qcp29f8897wusdsr6pvtcax2qpe7q89snwvfp5k",
      "value": 2890076
    },
    {
      "scriptpubkey": "76a91443cc87b438de1a089be7bd0ec98105529667aea488ac",
      "scriptpubkey_asm": "OP_DUP OP_HASH160 OP_PUSHBYTES_20 43cc87b438de1a089be7bd0ec98105529667aea4 OP_EQUALVERIFY OP_CHECKSIG",
      "scriptpubkey_type": "p2pkh",
      "scriptpubkey_address": "17BVHrTSAasiRkCiivaKWWoh9GYEX6M31J",
      "value": 613441
    },
    {
      "scriptpubkey": "00148919e7671a609c67229caf610179d26190132a5c",
      "scriptpubkey_asm": "OP_0 OP_PUSHBYTES_20 8919e7671a609c67229caf610179d26190132a5c",
      "scriptpubkey_type": "v0_p2wpkh",
      "scriptpubkey_address": "bc1q3yv7wec6vzwxwg5u4assz7wjvxgpx2juhxhtpj",
      "value": 683390
    },
    {
      "scriptpubkey": "00147a4f7c0f42b4ebc4ea93cc052c16e1437a12586f",
      "scriptpubkey_asm": "OP_0 OP_PUSHBYTES_20 7a4f7c0f42b4ebc4ea93cc052c16e1437a12586f",
      "scriptpubkey_type": "v0_p2wpkh",
      "scriptpubkey_address": "bc1q0f8hcr6zkn4uf65neszjc9hpgdapykr0qm7ndp",
      "value": 53926
    },
    {
      "scriptpubkey": "0014a0b774fc9f039cc15ebd67bb7ab2243a0da5189d",
      "scriptpubkey_asm": "OP_0 OP_PUSHBYTES_20 a0b774fc9f039cc15ebd67bb7ab2243a0da5189d",
      "scriptpubkey_type": "v0_p2wpkh",
      "scriptpubkey_address": "bc1q5zmhflylqwwvzh4av7ah4v3y8gx62xyaflft22",
      "value": 203440
    },
    {
      "scriptpubkey": "0014af6cb632bd5980dbc0f271bef19208991b0eb734",
      "scriptpubkey_asm": "OP_0 OP_PUSHBYTES_20 af6cb632bd5980dbc0f271bef19208991b0eb734",
      "scriptpubkey_type": "v0_p2wpkh",
      "scriptpubkey_address": "bc1q4aktvv4atxqdhs8jwxl0rysgnydsade5wvrfgz",
      "value": 2028227
    },
    {
      "scriptpubkey": "0014fec47a49c8e5c71d837fc28dd5a7ba7c2ecb2859",
      "scriptpubkey_asm": "OP_0 OP_PUSHBYTES_20 fec47a49c8e5c71d837fc28dd5a7ba7c2ecb2859",
      "scriptpubkey_type": "v0_p2wpkh",
      "scriptpubkey_address": "bc1qlmz85jwguhr3mqmlc2xatfa60shvk2ze7gapd3",
      "value": 745089
    },
    {
      "scriptpubkey": "76a9147696b051c01acdcf952b523372259cd1322b517788ac",
      "scriptpubkey_asm": "OP_DUP OP_HASH160 OP_PUSHBYTES_20 7696b051c01acdcf952b523372259cd1322b5177 OP_EQUALVERIFY OP_CHECKSIG",
      "scriptpubkey_type": "p2pkh",
      "scriptpubkey_address": "1Bp3Fg5NG1tPTeodkF31uJiMCt8xFXZNRP",
      "value": 7003039
    },
    {
      "scriptpubkey": "00145a95ccba80ac3c0faa436b7de00eab4c13570acc",
      "scriptpubkey_asm": "OP_0 OP_PUSHBYTES_20 5a95ccba80ac3c0faa436b7de00eab4c13570acc",
      "scriptpubkey_type": "v0_p2wpkh",
      "scriptpubkey_address": "bc1qt22uew5q4s7ql2jrdd77qr4tfsf4wzkvlye5mz",
      "value": 250000
    },
    {
      "scriptpubkey": "5120e2d45977884f1267beea23bcc7bac588b59c811d5d32c82b4169327adb245145",
      "scriptpubkey_asm": "OP_PUSHNUM_1 OP_PUSHBYTES_32 e2d45977884f1267beea23bcc7bac588b59c811d5d32c82b4169327adb245145",
      "scriptpubkey_type": "v1_p2tr",
      "scriptpubkey_address": "bc1put29jaugfufx00h2yw7v0wk93z6eeqgat5evs26pdye84key29zsqlqz94",
      "value": 1982726
    },
    {
      "scriptpubkey": "a91458bcf8b12cda9ff181e67c9ba3f74deb552583d787",
      "scriptpubkey_asm": "OP_HASH160 OP_PUSHBYTES_20 58bcf8b12cda9ff181e67c9ba3f74deb552583d7 OP_EQUAL",
      "scriptpubkey_type": "p2sh",
      "scriptpubkey_address": "39nDmPfbxPXdgcE8UhBaBYa2NTpdiRHoWB",
      "value": 104710
    },
    {
      "scriptpubkey": "a914f628163226f8cbc9fe9c56fc0a0803a07397136587",
      "scriptpubkey_asm": "OP_HASH160 OP_PUSHBYTES_20 f628163226f8cbc9fe9c56fc0a0803a073971365 OP_EQUAL",
      "scriptpubkey_type": "p2sh",
      "scriptpubkey_address": "3Q8aB1MiPGxGVCm8KkP7jwtXmUKyUhrPio",
      "value": 62820
    }
  ],
  "size": 959,
  "weight": 3506,
  "fee": 43850,
  "status": {
    "confirmed": true,
    "block_height": 834638,
    "block_hash": "000000000000000000025f742c626208ac87e0b7d15054abb4a19ca2d735a54e",
    "block_time": 1710405325
  },
  "hex": "010000000001017c5b078910a8656748ee910bd6f9919b6da8cd9dec0e65bc16232930e4a5b3690100000000ffffffff181faf4300000000001600148ea9aeb0224199376eb5b53d03318918afa5b158378ec41200000000160014dc6bf86354105de2fcd9868a2b0376d6731cb92f60489800000000001976a9149aa9b47151327d70f29c3c4bcccb31f1df1d544488ac409c00000000000016001470e657cb57571484260de8cae6f6f8baa08990cb3007ca12000000002200209f25cf62dff9897abb5c53c1bc63a80dd6f20cf17e6d0e57a44754639d2a320454f90200000000002251205adab80fe5a195bd38c62d2c19fa98969d9b24a80ac81386a78c337f8aa2bd2920bf020000000000160014b7ff62fe148cb00fd9dec7f7ae7217cf076c8e50b1f30000000000001600140582dd7ec33121f54bcdb49ec9dbd2d0b5156107bf712c00000000001976a914bc2ae7066f6f218ae18ae372ead0ec4d52126c9b88ac93110100000000001600142b42889b41f306f7985e6c150aebe3dc91f790afc48dac010000000017a9146fa132f1136f47cb462419cd41100551f8da37418767f80100000000001976a914104b1ad19ac99d5d6c5ad3c8113585feb79bef7788ac5c192c0000000000160014c054549ce5f3b906c07a0b178e99400e7c039613415c0900000000001976a91443cc87b438de1a089be7bd0ec98105529667aea488ac7e6d0a00000000001600148919e7671a609c67229caf610179d26190132a5ca6d20000000000001600147a4f7c0f42b4ebc4ea93cc052c16e1437a12586fb01a030000000000160014a0b774fc9f039cc15ebd67bb7ab2243a0da5189dc3f21e0000000000160014af6cb632bd5980dbc0f271bef19208991b0eb734815e0b0000000000160014fec47a49c8e5c71d837fc28dd5a7ba7c2ecb28599fdb6a00000000001976a9147696b051c01acdcf952b523372259cd1322b517788ac90d00300000000001600145a95ccba80ac3c0faa436b7de00eab4c13570acc06411e0000000000225120e2d45977884f1267beea23bcc7bac588b59c811d5d32c82b4169327adb245145069901000000000017a91458bcf8b12cda9ff181e67c9ba3f74deb552583d78764f500000000000017a914f628163226f8cbc9fe9c56fc0a0803a0739713658702483045022100b93e0194139c8b9ffb1533b546d6ec906659424039f4ca2c56a6f33810e3608602203e237f1f88122efd33c254d73ca2bc59c13c561d21becd363012e4a89fe96858012102174ee672429ff94304321cdae1fc1e487edf658b34bd1d36da03761658a2bb0900000000"
}