{
  "txid": "7edc338ac66ed0ee8caaa949a6fd0e892455bccfe403da902d6b09c24ee9a7b7",
  "version": 2,
  "locktime": 0,
  "vin": [
    {
      "txid": "acc3ba00869acb582a3f2904ce3a11dd3779350ce234063fc7d0959246213364",
      "vout": 42,
      "prevout": {
        "scriptpubkey": "512093ce32e1cb80109471bb4ccadab2088c0f4e762adcd0b61a0b12c9a959239688",
        "scriptpubkey_asm": "OP_PUSHNUM_1 OP_PUSHBYTES_32 93ce32e1cb80109471bb4ccadab2088c0f4e762adcd0b61a0b12c9a959239688",
        "scriptpubkey_type": "v1_p2tr",
        "scriptpubkey_address": "bc1pj08r9cwtsqgfgudmfn9d4vsg3s85ua32mngtvxstzty6jkfrj6yqdes4md",
        "value": 1806
      },
      "scriptsig": "",
      "scriptsig_asm": "",
      "witness": [
        "614b3d67f9ba63f44593347b4e2900cd638cf104cbc34847f416f948bef215ab7798ebe945eb66f5c3f40cacde823573329d3e69b65547803cfbd77177c501f5",
        "207f27b8068bf7fd745a2a3ed1694c922b69313baa63970b058f60b5cadecdcdc5ac0063036f726401010a746578742f706c61696e00357b2270223a226272632d3230222c226f70223a226d696e74222c227469636b223a22646f6765222c22616d74223a2234323030227d68",
        "c17f27b8068bf7fd745a2a3ed1694c922b69313baa63970b058f60b5cadecdcdc5"
      ],
      "is_coinbase": false,
      "sequence": 4261412863
    }
  ],
  "vout": [
    {
      "scriptpubkey": "00147a665de7a370f4c9b372ab1fae587500a5bcbdb4",
      "scriptpubkey_asm": "OP_0 OP_PUSHBYTES_20 7a665de7a370f4c9b372ab1fae587500a5bcbdb4",
      "scriptpubkey_type": "v0_p2wpkh",
      "scriptpubkey_address": "bc1q0fn9mearwr6vnvmj4v06ukr4qzjme0d565dzcx",
      "value": 294
    }
  ],
  "size": 294,
  "weight": 540,
  "fee": 1512,
  "status": {
    "confirmed": true,
    "block_height": 834460,
    "block_hash": "00000000000000000000484a79b643b2524bbce82e5d8a442013fa5b8905ed98",
    "block_time": 1710307468
  },
  "hex": "02000000000101643321469295d0c73f0634e20c357937dd113ace04293f2a58cb9a8600bac3ac2a00000000fffffffd0126010000000000001600147a665de7a370f4c9b372ab1fae587500a5bcbdb40340614b3d67f9ba63f44593347b4e2900cd638cf104cbc34847f416f948bef215ab7798ebe945eb66f5c3f40cacde823573329d3e69b65547803cfbd77177c501f56d207f27b8068bf7fd745a2a3ed1694c922b69313baa63970b058f60b5cadecdcdc5ac0063036f726401010a746578742f706c61696e00357b2270223a226272632d3230222c226f70223a226d696e74222c227469636b223a22646f6765222c22616d74223a2234323030227d6821c17f27b8068bf7fd745a2a3ed1694c922b69313baa63970b058f60b5cadecdcdc500000000"
}