{
  "txid": "7ede431fd5e0d28973f204643c962a9777230456ad3c903298399d4a054e3dc4",
  "version": 2,
  "locktime": 834462,
  "vin": [
    {
      "txid": "db2fd8f5cad6a3828a25ff53a0343ec5030fcdac870bbae419900ccd7dabd0d5",
      "vout": 5,
      "prevout": {
        "scriptpubkey": "0014469b5dd10a0080e475126267a5d315b9d00bf122",
        "scriptpubkey_asm": "OP_0 OP_PUSHBYTES_20 469b5dd10a0080e475126267a5d315b9d00bf122",
        "scriptpubkey_type": "v0_p2wpkh",
        "scriptpubkey_address": "bc1qg6d4m5g2qzqwgagjvfn6t5c4h8gqhufzmrtze9",
        "value": 30040
      },
      "scriptsig": "",
      "scriptsig_asm": "",
      "witness": [
        "30440220714489924d122e964f58da64d3ff319365e298c41de377c5bc08d9aa07e634fb02200b0b8b0cae6a79fcc077bccbe52d551f13c68e0aebe7f74de06d4eb6ea77dc5e01",
        "03b4435e448aff4fe24ae4b967d3e0d087b5a11577d2f1696a55f8a1fd7404b6dd"
      ],
      "is_coinbase": false,
      "sequence": 4294967294
    },
    {
      "txid": "5981081fe2d4f5f32c01e3ca238d64c9007ea06eb536c5a0037409950dfebf55",
      "vout": 0,
      "prevout": {
        "scriptpubkey": "0014e9bc7a5f897aeee38167a640a33c6596912b977a",
        "scriptpubkey_asm": "OP_0 OP_PUSHBYTES_20 e9bc7a5f897aeee38167a640a33c6596912b977a",
        "scriptpubkey_type": "v0_p2wpkh",
        "scriptpubkey_address": "bc1qax785huf0thw8qt85eq2x0r9j6gjh9m64xygp3",
        "value": 16800
      },
      "scriptsig": "",
      "scriptsig_asm": "",
      "witness": [
        "30440220577788df40e5006e83c19ee95d1ebdbc38c6f507479e058caf0d24db65447ea30220615284b092723f7f6ae0ca881235332e7e34a7adcd6bef56cc0b3eb7bf0f215a01",
        "0238c357d22163b093eeb31bf250064279a51721df151d034c3fb4ebfafda86a07"
      ],
      "is_coinbase": false,
      "sequence": 4294967294
    },
    {
      "txid": "d7f669aa383d45a7028eef8cd438f7aeff4d7138e6904d38a3b254d5236f0874",
      "vout": 115,
      "prevout": {
        "scriptpubkey": "001436ffe40432fa21b059657d5d1de307bef23df7cf",
        "scriptpubkey_asm": "OP_0 OP_PUSHBYTES_20 36ffe40432fa21b059657d5d1de307bef23df7cf",
        "scriptpubkey_type": "v0_p2wpkh",
        "scriptpubkey_address": "bc1qxml7gppjlgsmqkt904w3mcc8hmerma70h9826a",
        "value": 69899
      },
      "scriptsig": "",
      "scriptsig_asm": "",
      "witness": [
        "3044022077f3bbbb3a65fa05fb15664844924d03714bf41d3f7ba6c67397b33f9cb04b9f02202e586a98f3d84f9ea60f5079b2430d47d970fb92806283d45857f3a862b00a1401",
        "032582f95a6769657f15c89a575fadb5b39523b3df6e50c2edd8786b15cbee6f5f"
      ],
      "is_coinbase": false,
      "sequence": 4294967294
    }
  ],
  "vout": [
    {
      "scriptpubkey": "a9140df317a1cfd41153d42199b63059e4dcef3d999f87",
      "scriptpubkey_asm": "OP_HASH160 OP_PUSHBYTES_20 0df317a1cfd41153d42199b63059e4dcef3d999f OP_EQUAL",
      "scriptpubkey_type": "p2sh",
      "scriptpubkey_address": "32xmvPRyQw8Bo4gK42KKWKcgL7UCMa5jpC",
      "value": 110000
    }
  ],
  "size": 488,
  "weight": 983,
  "fee": 6739,
  "status": {
    "confirmed": true,
    "block_height": 834464,
    "block_hash": "0000000000000000000177a0869a911a2b65c9bdcd5a8bcb02b68f305bee848e",
    "block_time": 1710308296
  },
  "hex": "02000000000103d5d0ab7dcd0c9019e4ba0b87accd0f03c53e34a053ff258a82a3d6caf5d82fdb0500000000feffffff55bffe0d95097403a0c536b56ea07e00c9648d23cae3012cf3f5d4e21f0881590000000000feffffff74086f23d554b2a3384d90e638714dffaef738d48cef8e02a7453d38aa69f6d77300000000feffffff01b0ad01000000000017a9140df317a1cfd41153d42199b63059e4dcef3d999f87024730440220714489924d122e964f58da64d3ff319365e298c41de377c5bc08d9aa07e634fb02200b0b8b0cae6a79fcc077bccbe52d551f13c68e0aebe7f74de06d4eb6ea77dc5e012103b4435e448aff4fe24ae4b967d3e0d087b5a11577d2f1696a55f8a1fd7404b6dd024730440220577788df40e5006e83c19ee95d1ebdbc38c6f507479e058caf0d24db65447ea30220615284b092723f7f6ae0ca881235332e7e34a7adcd6bef56cc0b3eb7bf0f215a01210238c357d22163b093eeb31bf250064279a51721df151d034c3fb4ebfafda86a0702473044022077f3bbbb3a65fa05fb15664844924d03714bf41d3f7ba6c67397b33f9cb04b9f02202e586a98f3d84f9ea60f5079b2430d47d970fb92806283d45857f3a862b00a140121032582f95a6769657f15c89a575fadb5b39523b3df6e50c2edd8786b15cbee6f5f9ebb0c00"
}