{
  "txid": "7ee39c538e97395d94b36396eba5f140911d1156f0ac03945cb920f299564261",
  "version": 1,
  "locktime": 0,
  "vin": [
    {
      "txid": "2635cf823dc165076867e7b255c6922de4ec2ecda840d190e9551b3fa83922d9",
      "vout": 1,
      "prevout": {
        "scriptpubkey": "00200b685cc06add0b2e23bcd67f0bef8d364cdc1abcf6fb126958826a7cfe351bf3",
        "scriptpubkey_asm": "OP_0 OP_PUSHBYTES_32 0b685cc06add0b2e23bcd67f0bef8d364cdc1abcf6fb126958826a7cfe351bf3",
        "scriptpubkey_type": "v0_p2wsh",
        "scriptpubkey_address": "bc1qpd59esr2m59jugau6elshmudxexdcx4u7ma3y62csf48el34r0esxcm9ze",
        "value": 22664981
      },
      "scriptsig": "",
      "scriptsig_asm": "",
      "witness": [
        "",
        "30440220632b9288099fb49f97231fa6fd1a5827feafbdec078371286a055fc2ac2db70b0220112661faf2b4a3a6155a85f58356550b050adaee0dc541e9c9dfab253f3b3b7101",
        "304402203af48390599f6b78edd35c2761ad18019f09ae1df29e608b537be25021e5f547022013065326f5a87815f8e8de1cdef210ff41e7d4a76c399b9ea681f76dcab6377201",
        "5221020d2922f329933405a8ba18ee7cdc7b0819f02a113b9e55fb19a44b4cf1549dd42103d26b127f1dd700779f1d579233d99317e6e16075c9e5b6e3c9e069173ddcc3382102b144f7316d67b66aeb3b76095996e974899886c715d431ebb78c22e09a0e7ee353ae"
      ],
      "is_coinbase": false,
      "sequence": 4294967293,
      "inner_witnessscript_asm": "OP_PUSHNUM_2 OP_PUSHBYTES_33 020d2922f329933405a8ba18ee7cdc7b0819f02a113b9e55fb19a44b4cf1549dd4 OP_PUSHBYTES_33 03d26b127f1dd700779f1d579233d99317e6e16075c9e5b6e3c9e069173ddcc338 OP_PUSHBYTES_33 02b144f7316d67b66aeb3b76095996e974899886c715d431ebb78c22e09a0e7ee3 OP_PUSHNUM_3 OP_CHECKMULTISIG"
    }
  ],
  "vout": [
    {
      "scriptpubkey": "a9140012a9bfd6f1b7171d9f751cffb8b3241ef2a1ed87",
      "scriptpubkey_asm": "OP_HASH160 OP_PUSHBYTES_20 0012a9bfd6f1b7171d9f751cffb8b3241ef2a1ed OP_EQUAL",
      "scriptpubkey_type": "p2sh",
      "scriptpubkey_address": "31hQHH3rhVrYSbL9nFmahErkaGKRwLcUkG",
      "value": 78647
    },
    {
      "scriptpubkey": "002057242cf0b1daec2105b9cf09c0057d141d9c36b23e1250fc597afa828aa226f8",
      "scriptpubkey_asm": "OP_0 OP_PUSHBYTES_32 57242cf0b1daec2105b9cf09c0057d141d9c36b23e1250fc597afa828aa226f8",
      "scriptpubkey_type": "v0_p2wsh",
      "scriptpubkey_address": "bc1q2ujzeu93mtkzzpdeeuyuqptazswecd4j8cf9plze0tag9z4zymuqhhdvwy",
      "value": 22582132
    }
  ],
  "size": 380,
  "weight": 758,
  "fee": 4202,
  "status": {
    "confirmed": true,
    "block_height": 834638,
    "block_hash": "000000000000000000025f742c626208ac87e0b7d15054abb4a19ca2d735a54e",
    "block_time": 1710405325
  },
  "hex": "01000000000101d92239a83f1b55e990d140a8cd2eece42d92c655b2e767680765c13d82cf35260100000000fdffffff02373301000000000017a9140012a9bfd6f1b7171d9f751cffb8b3241ef2a1ed87749358010000000022002057242cf0b1daec2105b9cf09c0057d141d9c36b23e1250fc597afa828aa226f804004730440220632b9288099fb49f97231fa6fd1a5827feafbdec078371286a055fc2ac2db70b0220112661faf2b4a3a6155a85f58356550b050adaee0dc541e9c9dfab253f3b3b710147304402203af48390599f6b78edd35c2761ad18019f09ae1df29e608b537be25021e5f547022013065326f5a87815f8e8de1cdef210ff41e7d4a76c399b9ea681f76dcab6377201695221020d2922f329933405a8ba18ee7cdc7b0819f02a113b9e55fb19a44b4cf1549dd42103d26b127f1dd700779f1d579233d99317e6e16075c9e5b6e3c9e069173ddcc3382102b144f7316d67b66aeb3b76095996e974899886c715d431ebb78c22e09a0e7ee353ae00000000"
}