{
  "txid": "7ef71ada196a4fa0287d09f60852b7b108ac663cc92085f6768989f1be64bca6",
  "version": 2,
  "locktime": 834637,
  "vin": [
    {
      "txid": "313338e3f4e0b753a36fff0106d4c024d537a5e023d4a6ec04e386c77a608193",
      "vout": 0,
      "prevout": {
        "scriptpubkey": "0014c9c0fc39bdc25f1ba37401c579de94df8dc17ea5",
        "scriptpubkey_asm": "OP_0 OP_PUSHBYTES_20 c9c0fc39bdc25f1ba37401c579de94df8dc17ea5",
        "scriptpubkey_type": "v0_p2wpkh",
        "scriptpubkey_address": "bc1qe8q0cwdacf03hgm5q8zhnh55m7xuzl49mjcgrp",
        "value": 1908010
      },
      "scriptsig": "",
      "scriptsig_asm": "",
      "witness": [
        "30440220676ea607aae6908867b002ba8021e51d0b32a8fa27fef7a7966eac2e9e7d748c0220412575964ae5f6cc6bc2ebe6177fe0bdd274a934092a3bb9027c6bf4867d9b2301",
        "023aa5714ad80ea346db37c10bbb1f30a570be721f3896ed74beccea1d4c446267"
      ],
      "is_coinbase": false,
      "sequence": 4294967293
    }
  ],
  "vout": [
    {
      "scriptpubkey": "0014e42d1ebd8bf9587d5e400d0feb5afa971e6c6594",
      "scriptpubkey_asm": "OP_0 OP_PUSHBYTES_20 e42d1ebd8bf9587d5e400d0feb5afa971e6c6594",
      "scriptpubkey_type": "v0_p2wpkh",
      "scriptpubkey_address": "bc1qusk3a0vtl9v86hjqp587kkh6ju0xcev5n9lk3r",
      "value": 211228
    },
    {
      "scriptpubkey": "0014f410e9251e16f9343b601e8088ac4206aa395091",
      "scriptpubkey_asm": "OP_0 OP_PUSHBYTES_20 f410e9251e16f9343b601e8088ac4206aa395091",
      "scriptpubkey_type": "v0_p2wpkh",
      "scriptpubkey_address": "bc1q7sgwjfg7zmungwmqr6qg3tzzq64rj5y3drr8cl",
      "value": 1692552
    }
  ],
  "size": 222,
  "weight": 561,
  "fee": 4230,
  "status": {
    "confirmed": true,
    "block_height": 834638,
    "block_hash": "000000000000000000025f742c626208ac87e0b7d15054abb4a19ca2d735a54e",
    "block_time": 1710405325
  },
  "hex": "020000000001019381607ac786e304eca6d423e0a537d524c0d40601ff6fa353b7e0f4e33833310000000000fdffffff021c39030000000000160014e42d1ebd8bf9587d5e400d0feb5afa971e6c659488d3190000000000160014f410e9251e16f9343b601e8088ac4206aa395091024730440220676ea607aae6908867b002ba8021e51d0b32a8fa27fef7a7966eac2e9e7d748c0220412575964ae5f6cc6bc2ebe6177fe0bdd274a934092a3bb9027c6bf4867d9b230121023aa5714ad80ea346db37c10bbb1f30a570be721f3896ed74beccea1d4c4462674dbc0c00"
}