{
  "txid": "7f246e0126b79821c8f055ea427acaa37ef150d6bbdb984f6179bba05182a9bd",
  "version": 2,
  "locktime": 0,
  "vin": [
    {
      "txid": "9372ae3dfda3c55cc80d32f6a77b7498c0fae6149bb70b5c4dab2b9c158edb1e",
      "vout": 29,
      "prevout": {
        "scriptpubkey": "001421c108b0e4e03bfe11a43c4acc2f865a1d109a69",
        "scriptpubkey_asm": "OP_0 OP_PUSHBYTES_20 21c108b0e4e03bfe11a43c4acc2f865a1d109a69",
        "scriptpubkey_type": "v0_p2wpkh",
        "scriptpubkey_address": "bc1qy8qs3v8yuqaluydy839vctuxtgw3pxnf39qury",
        "value": 4994000
      },
      "scriptsig": "",
      "scriptsig_asm": "",
      "witness": [
        "3045022100f52095763e20cb3ce85c98e604ed72644b3924c24b6622687ebf438b672130010220152e05c03583bf157af9d126378533b19f85cd3c893892f0348031ee696ce55501",
        "02d780750e29e1279bc5ffc57723a8c0bc5ecc8aa54fd799d259ae27a6e355a47c"
      ],
      "is_coinbase": false,
      "sequence": 4294967295
    },
    {
      "txid": "f21885fd9eea633659bfbd3b09451b844b2c06b7a57a188b0974265423fe7818",
      "vout": 21,
      "prevout": {
        "scriptpubkey": "0014162331b983ff51e45b13366453dee37b7affb5be",
        "scriptpubkey_asm": "OP_0 OP_PUSHBYTES_20 162331b983ff51e45b13366453dee37b7affb5be",
        "scriptpubkey_type": "v0_p2wpkh",
        "scriptpubkey_address": "bc1qzc3nrwvrlag7gkcnxej98hhr0da0ldd728fxgf",
        "value": 90323575
      },
      "scriptsig": "",
      "scriptsig_asm": "",
      "witness": [
        "30440220514f2d5bcb04651f76d642b1e720fa4da623db6508460387aeeed650ec495ac70220122a291ed44182cf5197330dd27b66c107b9a5452611bb4c44f50a8caf6f3b7601",
        "02197abd3f2e405473669675bf45cf88285d5c9b8c3fcc444aebce5a8dbad0f8d1"
      ],
      "is_coinbase": false,
      "sequence": 4294967295
    }
  ],
  "vout": [
    {
      "scriptpubkey": "76a914b724e3eb90f2f2e7254a6997aeac9a931b7aca0c88ac",
      "scriptpubkey_asm": "OP_DUP OP_HASH160 OP_PUSHBYTES_20 b724e3eb90f2f2e7254a6997aeac9a931b7aca0c OP_EQUALVERIFY OP_CHECKSIG",
      "scriptpubkey_type": "p2pkh",
      "scriptpubkey_address": "1HhNrHkjpKcVmFzi4F7cnFp3cNNDsSAX2K",
      "value": 95314300
    }
  ],
  "size": 343,
  "weight": 721,
  "fee": 3275,
  "status": {
    "confirmed": true,
    "block_height": 834638,
    "block_hash": "000000000000000000025f742c626208ac87e0b7d15054abb4a19ca2d735a54e",
    "block_time": 1710405325
  },
  "hex": "020000000001021edb8e159c2bab4d5c0bb79b14e6fac098747ba7f6320dc85cc5a3fd3dae72931d00000000ffffffff1878fe23542674098b187aa5b7062c4b841b45093bbdbf593663ea9efd8518f21500000000ffffffff017c61ae05000000001976a914b724e3eb90f2f2e7254a6997aeac9a931b7aca0c88ac02483045022100f52095763e20cb3ce85c98e604ed72644b3924c24b6622687ebf438b672130010220152e05c03583bf157af9d126378533b19f85cd3c893892f0348031ee696ce555012102d780750e29e1279bc5ffc57723a8c0bc5ecc8aa54fd799d259ae27a6e355a47c024730440220514f2d5bcb04651f76d642b1e720fa4da623db6508460387aeeed650ec495ac70220122a291ed44182cf5197330dd27b66c107b9a5452611bb4c44f50a8caf6f3b76012102197abd3f2e405473669675bf45cf88285d5c9b8c3fcc444aebce5a8dbad0f8d100000000"
}