{
  "txid": "7f27ae75295c15f1972fefb7955f67f07c9cde459334af8698304bef05a07dc3",
  "version": 2,
  "locktime": 0,
  "vin": [
    {
      "txid": "7aa8f93c8afd2726b376cf747ee134cccef221ac6da1a1c8356a2b9adcf68ce3",
      "vout": 2,
      "prevout": {
        "scriptpubkey": "51206153289c4ef6196f2a230d579ce5e97e97ff4e8c1779ddebb9e4c51df131d632",
        "scriptpubkey_asm": "OP_PUSHNUM_1 OP_PUSHBYTES_32 6153289c4ef6196f2a230d579ce5e97e97ff4e8c1779ddebb9e4c51df131d632",
        "scriptpubkey_type": "v1_p2tr",
        "scriptpubkey_address": "bc1pv9fj38zw7cvk723rp4teee0f06tl7n5vzauam6aeunz3muf36ceq5pllc9",
        "value": 4019
      },
      "scriptsig": "",
      "scriptsig_asm": "",
      "witness": [
        "fc71186ad946447f7fbbf33aa86900c81fa593763fb4941b59505366cfcf9e20b99c308c5668627796106a075652383f2886333c0096d43f02bf535ba44b80d2"
      ],
      "is_coinbase": false,
      "sequence": 2147483649
    }
  ],
  "vout": [
    {
      "scriptpubkey": "5120511c469307f02c96503c1c76f5715dd07eee8703dbb069c9700cad815e221144",
      "scriptpubkey_asm": "OP_PUSHNUM_1 OP_PUSHBYTES_32 511c469307f02c96503c1c76f5715dd07eee8703dbb069c9700cad815e221144",
      "scriptpubkey_type": "v1_p2tr",
      "scriptpubkey_address": "bc1p2ywydyc87qkfv5pur3m02u2a6plwapcrmwcxnjtspjkczh3zz9zqtdlf3m",
      "value": 2132
    }
  ],
  "size": 162,
  "weight": 444,
  "fee": 1887,
  "status": {
    "confirmed": true,
    "block_height": 834638,
    "block_hash": "000000000000000000025f742c626208ac87e0b7d15054abb4a19ca2d735a54e",
    "block_time": 1710405325
  },
  "hex": "02000000000101e38cf6dc9a2b6a35c8a1a16dac21f2cecc34e17e74cf76b32627fd8a3cf9a87a020000000001000080015408000000000000225120511c469307f02c96503c1c76f5715dd07eee8703dbb069c9700cad815e2211440140fc71186ad946447f7fbbf33aa86900c81fa593763fb4941b59505366cfcf9e20b99c308c5668627796106a075652383f2886333c0096d43f02bf535ba44b80d200000000"
}