{
  "txid": "7f2bf8c264bf0178ca76f1a862d39fb8015918a0cac57161a2d2f8eac88549d5",
  "version": 1,
  "locktime": 0,
  "vin": [
    {
      "txid": "b6d99dceb523e44fcc7b34aa84e2a745919270f19b03d93cda663c23ccb706e1",
      "vout": 6,
      "prevout": {
        "scriptpubkey": "0014c7299a6ae04903f8f3a343628b12435ad447f591",
        "scriptpubkey_asm": "OP_0 OP_PUSHBYTES_20 c7299a6ae04903f8f3a343628b12435ad447f591",
        "scriptpubkey_type": "v0_p2wpkh",
        "scriptpubkey_address": "bc1qcu5e56hqfypl3uargd3gkyjrtt2y0av3uvh7vk",
        "value": 34436988
      },
      "scriptsig": "",
      "scriptsig_asm": "",
      "witness": [
        "3043022060bbb968ec5068dbfffff9658562da4b6cc8c5d2f8ae9af9566ef22fe090979f021f364981f83ac109128579290c18c9d6a101bf9fbe66f6a2f37e002e439e71f401",
        "02989696868e16267365101d6b071b97ef1eb440d99b988af4c8cbcd1b00cf7987"
      ],
      "is_coinbase": false,
      "sequence": 4294967295
    }
  ],
  "vout": [
    {
      "scriptpubkey": "76a914105c27aaef0e010b35762f1bfe1054271753720988ac",
      "scriptpubkey_asm": "OP_DUP OP_HASH160 OP_PUSHBYTES_20 105c27aaef0e010b35762f1bfe10542717537209 OP_EQUALVERIFY OP_CHECKSIG",
      "scriptpubkey_type": "p2pkh",
      "scriptpubkey_address": "12VWD7Eyq42unYRDbUsVRkG6CGHV7Lp5FD",
      "value": 977604
    },
    {
      "scriptpubkey": "0014624affd9d56fa0795ca7e7c9122a51cf0b5276d8",
      "scriptpubkey_asm": "OP_0 OP_PUSHBYTES_20 624affd9d56fa0795ca7e7c9122a51cf0b5276d8",
      "scriptpubkey_type": "v0_p2wpkh",
      "scriptpubkey_address": "bc1qvf90lkw4d7s8jh98uly3y2j3eu94yakc2u4c5y",
      "value": 67123
    },
    {
      "scriptpubkey": "a9148a51b9f57a61e8b34deb6e974a641467487bea7187",
      "scriptpubkey_asm": "OP_HASH160 OP_PUSHBYTES_20 8a51b9f57a61e8b34deb6e974a641467487bea71 OP_EQUAL",
      "scriptpubkey_type": "p2sh",
      "scriptpubkey_address": "3EJP5Tzv8imcpoQWZBx1Ltwh6cE6rtffqu",
      "value": 33997
    },
    {
      "scriptpubkey": "76a9148588a9aaf7088ae7a7c34dfc5ca355a04b159f8c88ac",
      "scriptpubkey_asm": "OP_DUP OP_HASH160 OP_PUSHBYTES_20 8588a9aaf7088ae7a7c34dfc5ca355a04b159f8c OP_EQUALVERIFY OP_CHECKSIG",
      "scriptpubkey_type": "p2pkh",
      "scriptpubkey_address": "1DB4b1WgUsPzw7VZ4rmh5zDPV7E8BkDUJz",
      "value": 243164
    },
    {
      "scriptpubkey": "001426b28d51e31f588d6f865c3550a3dccba1c9a98b",
      "scriptpubkey_asm": "OP_0 OP_PUSHBYTES_20 26b28d51e31f588d6f865c3550a3dccba1c9a98b",
      "scriptpubkey_type": "v0_p2wpkh",
      "scriptpubkey_address": "bc1qy6eg650rravg6muxts64pg7uewsun2vtanyycx",
      "value": 125198
    },
    {
      "scriptpubkey": "0014f3cf15296f2c89902f7b21ae527b1008fca037a1",
      "scriptpubkey_asm": "OP_0 OP_PUSHBYTES_20 f3cf15296f2c89902f7b21ae527b1008fca037a1",
      "scriptpubkey_type": "v0_p2wpkh",
      "scriptpubkey_address": "bc1q708322t09jyeqtmmyxh9y7cspr72qdapl9e0zj",
      "value": 142782
    },
    {
      "scriptpubkey": "0014da48f5c213fc728f1eb8053601adfb1145297ce9",
      "scriptpubkey_asm": "OP_0 OP_PUSHBYTES_20 da48f5c213fc728f1eb8053601adfb1145297ce9",
      "scriptpubkey_type": "v0_p2wpkh",
      "scriptpubkey_address": "bc1qmfy0tssnl3eg784cq5mqrt0mz9zjjl8fx4ph5p",
      "value": 14520
    },
    {
      "scriptpubkey": "00149da87ee16995460a981b7951c6f5867ff40e6f02",
      "scriptpubkey_asm": "OP_0 OP_PUSHBYTES_20 9da87ee16995460a981b7951c6f5867ff40e6f02",
      "scriptpubkey_type": "v0_p2wpkh",
      "scriptpubkey_address": "bc1qnk58actfj4rq4xqm09gudavx0l6qumczek0yuu",
      "value": 251409
    },
    {
      "scriptpubkey": "0014981b9ed665338c765fa186bd077d2b0612c10848",
      "scriptpubkey_asm": "OP_0 OP_PUSHBYTES_20 981b9ed665338c765fa186bd077d2b0612c10848",
      "scriptpubkey_type": "v0_p2wpkh",
      "scriptpubkey_address": "bc1qnqdea4n9xwx8vhaps67swlftqcfvzzzg79hnp3",
      "value": 109370
    },
    {
      "scriptpubkey": "76a914e1646e7e369072851b8219f46c5894568a3154b188ac",
      "scriptpubkey_asm": "OP_DUP OP_HASH160 OP_PUSHBYTES_20 e1646e7e369072851b8219f46c5894568a3154b1 OP_EQUALVERIFY OP_CHECKSIG",
      "scriptpubkey_type": "p2pkh",
      "scriptpubkey_address": "1MYmMGpHCFitip5i9AfeBVexnXcb4kLFSu",
      "value": 140920
    },
    {
      "scriptpubkey": "0020ec3ed431d5016da55e800269085e61e265b4c286142ae0203839d35417a0ee86",
      "scriptpubkey_asm": "OP_0 OP_PUSHBYTES_32 ec3ed431d5016da55e800269085e61e265b4c286142ae0203839d35417a0ee86",
      "scriptpubkey_type": "v0_p2wsh",
      "scriptpubkey_address": "bc1qasldgvw4q9k62h5qqf5sshnpufjmfs5xzs4wqgpc88f4g9aqa6rq6awg3u",
      "value": 199140
    },
    {
      "scriptpubkey": "a914c73acb9a287f2ae660f4feb00ba2b5bf3b089ced87",
      "scriptpubkey_asm": "OP_HASH160 OP_PUSHBYTES_20 c73acb9a287f2ae660f4feb00ba2b5bf3b089ced OP_EQUAL",
      "scriptpubkey_type": "p2sh",
      "scriptpubkey_address": "3KrSptVGR4GfzfHBEQf6tMwBbUwvpjzQh6",
      "value": 136004
    },
    {
      "scriptpubkey": "a9143f5eb3a71d4f33dc1b3c4b02576335e9230117ff87",
      "scriptpubkey_asm": "OP_HASH160 OP_PUSHBYTES_20 3f5eb3a71d4f33dc1b3c4b02576335e9230117ff OP_EQUAL",
      "scriptpubkey_type": "p2sh",
      "scriptpubkey_address": "37U5wd761Xt4Xi6m9TUp8x1tJkr9BHmUgx",
      "value": 1597804
    },
    {
      "scriptpubkey": "0014584a5c6b83580c1a6a17aeb2240ab669daa54231",
      "scriptpubkey_asm": "OP_0 OP_PUSHBYTES_20 584a5c6b83580c1a6a17aeb2240ab669daa54231",
      "scriptpubkey_type": "v0_p2wpkh",
      "scriptpubkey_address": "bc1qtp99c6urtqxp56sh46ezgz4kd8d22s33eccaqg",
      "value": 29826762
    },
    {
      "scriptpubkey": "00200d7f285cfcd3f496bf2ff02b055e66cc5a749afc4e8754ae1359f845af0bdd86",
      "scriptpubkey_asm": "OP_0 OP_PUSHBYTES_32 0d7f285cfcd3f496bf2ff02b055e66cc5a749afc4e8754ae1359f845af0bdd86",
      "scriptpubkey_type": "v0_p2wsh",
      "scriptpubkey_address": "bc1qp4ljsh8u606fd0e07q4s2hnxe3d8fxhuf6r4ftsnt8uyttctmkrqduc0tp",
      "value": 36724
    },
    {
      "scriptpubkey": "0014a0cc41d30fb463d9d5e5df062d984ada07d9b805",
      "scriptpubkey_asm": "OP_0 OP_PUSHBYTES_20 a0cc41d30fb463d9d5e5df062d984ada07d9b805",
      "scriptpubkey_type": "v0_p2wpkh",
      "scriptpubkey_address": "bc1q5rxyr5c0k33an409murzmxz2mgranwq99ghprq",
      "value": 19033
    },
    {
      "scriptpubkey": "a9141f3f4920038e65f32440874744ff0cc1435073ff87",
      "scriptpubkey_asm": "OP_HASH160 OP_PUSHBYTES_20 1f3f4920038e65f32440874744ff0cc1435073ff OP_EQUAL",
      "scriptpubkey_type": "p2sh",
      "scriptpubkey_address": "34YEgetvE9wJdSAgNUbfrZbdTj5HuLE22W",
      "value": 359720
    },
    {
      "scriptpubkey": "0014c9eda07c4bb023c7cbac6532f2c76fe47b113f44",
      "scriptpubkey_asm": "OP_0 OP_PUSHBYTES_20 c9eda07c4bb023c7cbac6532f2c76fe47b113f44",
      "scriptpubkey_type": "v0_p2wpkh",
      "scriptpubkey_address": "bc1qe8k6qlztkq3u0javv5e093m0u3a3z06y3k2zuv",
      "value": 137520
    }
  ],
  "size": 754,
  "weight": 2692,
  "fee": 18194,
  "status": {
    "confirmed": true,
    "block_height": 834638,
    "block_hash": "000000000000000000025f742c626208ac87e0b7d15054abb4a19ca2d735a54e",
    "block_time": 1710405325
  },
  "hex": "01000000000101e106b7cc233c66da3cd9039bf170929145a7e284aa347bcc4fe423b5ce9dd9b60600000000ffffffff12c4ea0e00000000001976a914105c27aaef0e010b35762f1bfe1054271753720988ac3306010000000000160014624affd9d56fa0795ca7e7c9122a51cf0b5276d8cd8400000000000017a9148a51b9f57a61e8b34deb6e974a641467487bea7187dcb50300000000001976a9148588a9aaf7088ae7a7c34dfc5ca355a04b159f8c88ac0ee901000000000016001426b28d51e31f588d6f865c3550a3dccba1c9a98bbe2d020000000000160014f3cf15296f2c89902f7b21ae527b1008fca037a1b838000000000000160014da48f5c213fc728f1eb8053601adfb1145297ce911d60300000000001600149da87ee16995460a981b7951c6f5867ff40e6f023aab010000000000160014981b9ed665338c765fa186bd077d2b0612c1084878260200000000001976a914e1646e7e369072851b8219f46c5894568a3154b188ace409030000000000220020ec3ed431d5016da55e800269085e61e265b4c286142ae0203839d35417a0ee86441302000000000017a914c73acb9a287f2ae660f4feb00ba2b5bf3b089ced876c6118000000000017a9143f5eb3a71d4f33dc1b3c4b02576335e9230117ff87ca1ec70100000000160014584a5c6b83580c1a6a17aeb2240ab669daa54231748f0000000000002200200d7f285cfcd3f496bf2ff02b055e66cc5a749afc4e8754ae1359f845af0bdd86594a000000000000160014a0cc41d30fb463d9d5e5df062d984ada07d9b805287d05000000000017a9141f3f4920038e65f32440874744ff0cc1435073ff873019020000000000160014c9eda07c4bb023c7cbac6532f2c76fe47b113f4402463043022060bbb968ec5068dbfffff9658562da4b6cc8c5d2f8ae9af9566ef22fe090979f021f364981f83ac109128579290c18c9d6a101bf9fbe66f6a2f37e002e439e71f4012102989696868e16267365101d6b071b97ef1eb440d99b988af4c8cbcd1b00cf798700000000"
}