{
  "txid": "7f2cf63217d79e92eecea751267843b74741ea78d1d0a2d34bf23ae5c375db1b",
  "version": 2,
  "locktime": 0,
  "vin": [
    {
      "txid": "6e5afffe06f7b447f20491fd5b3f375b3f0c0d2f7db809b22170419d3f28b7e6",
      "vout": 7,
      "prevout": {
        "scriptpubkey": "a914fd364dbfa798c3c47c90c1ebea2962e4b377122f87",
        "scriptpubkey_asm": "OP_HASH160 OP_PUSHBYTES_20 fd364dbfa798c3c47c90c1ebea2962e4b377122f OP_EQUAL",
        "scriptpubkey_type": "p2sh",
        "scriptpubkey_address": "3QmswAVX3Ka3GvwtePJKapaXS26VwAJvjB",
        "value": 600
      },
      "scriptsig": "1600147fea8302dedc30bcb7164d4beaf2f803001a633c",
      "scriptsig_asm": "OP_PUSHBYTES_22 00147fea8302dedc30bcb7164d4beaf2f803001a633c",
      "witness": [
        "3045022100aa6f4d80db818d06e833e153a5a0ed18d6c2c37557ce18d2ff227179ecbcd8b702203c9ae7de09559dea95fba82c9b615d94d1188bdbc65aee6dcb833385e4edb87b01",
        "03ed3e92d2bc2e3e347f0e057a07d8546fe4ed0901b10c5f3823edf13acb704768"
      ],
      "is_coinbase": false,
      "sequence": 4294967295,
      "inner_redeemscript_asm": "OP_0 OP_PUSHBYTES_20 7fea8302dedc30bcb7164d4beaf2f803001a633c"
    },
    {
      "txid": "b1c877cfc70284b20f2f5a85fad1d5ffffa49ca55ab618d31d62579797e1cc5c",
      "vout": 2,
      "prevout": {
        "scriptpubkey": "a914fd364dbfa798c3c47c90c1ebea2962e4b377122f87",
        "scriptpubkey_asm": "OP_HASH160 OP_PUSHBYTES_20 fd364dbfa798c3c47c90c1ebea2962e4b377122f OP_EQUAL",
        "scriptpubkey_type": "p2sh",
        "scriptpubkey_address": "3QmswAVX3Ka3GvwtePJKapaXS26VwAJvjB",
        "value": 600
      },
      "scriptsig": "1600147fea8302dedc30bcb7164d4beaf2f803001a633c",
      "scriptsig_asm": "OP_PUSHBYTES_22 00147fea8302dedc30bcb7164d4beaf2f803001a633c",
      "witness": [
        "3045022100cd2238aa983024f895577eede7b914084921a1054fc22cd36cc0dcd70422d02302204a9bb24c056ad8b0954ab5f82e82d2acafac2e4b2adccdc64f4895cc1afa474101",
        "03ed3e92d2bc2e3e347f0e057a07d8546fe4ed0901b10c5f3823edf13acb704768"
      ],
      "is_coinbase": false,
      "sequence": 4294967295,
      "inner_redeemscript_asm": "OP_0 OP_PUSHBYTES_20 7fea8302dedc30bcb7164d4beaf2f803001a633c"
    },
    {
      "txid": "b1c877cfc70284b20f2f5a85fad1d5ffffa49ca55ab618d31d62579797e1cc5c",
      "vout": 4,
      "prevout": {
        "scriptpubkey": "a914fd364dbfa798c3c47c90c1ebea2962e4b377122f87",
        "scriptpubkey_asm": "OP_HASH160 OP_PUSHBYTES_20 fd364dbfa798c3c47c90c1ebea2962e4b377122f OP_EQUAL",
        "scriptpubkey_type": "p2sh",
        "scriptpubkey_address": "3QmswAVX3Ka3GvwtePJKapaXS26VwAJvjB",
        "value": 600
      },
      "scriptsig": "1600147fea8302dedc30bcb7164d4beaf2f803001a633c",
      "scriptsig_asm": "OP_PUSHBYTES_22 00147fea8302dedc30bcb7164d4beaf2f803001a633c",
      "witness": [
        "304402206396932dad95cc77404af41142dbcd5d4fef01aa0d770849abfbe9c2e9408a4102200725796b5de6640b6c29dabda4cb4d9801499260db0e5aac1d2e57992c9b08f901",
        "03ed3e92d2bc2e3e347f0e057a07d8546fe4ed0901b10c5f3823edf13acb704768"
      ],
      "is_coinbase": false,
      "sequence": 4294967295,
      "inner_redeemscript_asm": "OP_0 OP_PUSHBYTES_20 7fea8302dedc30bcb7164d4beaf2f803001a633c"
    },
    {
      "txid": "d3aaf10d7c3b52beb88fdbb424415564317fd4ca13e8fe662cda32af94122402",
      "vout": 0,
      "prevout": {
        "scriptpubkey": "5120cd6902974261b15a0481ebe9189d923df1d908e44610c7ec44be52450f4207d5",
        "scriptpubkey_asm": "OP_PUSHNUM_1 OP_PUSHBYTES_32 cd6902974261b15a0481ebe9189d923df1d908e44610c7ec44be52450f4207d5",
        "scriptpubkey_type": "v1_p2tr",
        "scriptpubkey_address": "bc1pe45s996zvxc45pypa05338vj8hcajz8ygcgv0mzyhefy2r6zql2shzfg3d",
        "value": 1000
      },
      "scriptsig": "",
      "scriptsig_asm": "",
      "witness": [
        "3a91f1fe536e6cbd31eddca4f91aa11790ca7d8bb67520f697b4d68fd873e166899e9336596ef44d6163364b88f7765ab238f1b2abf394e655518c1d5fd9b06983"
      ],
      "is_coinbase": false,
      "sequence": 4294967295
    },
    {
      "txid": "b53972d68a0531cf982c180f99277567e6ca207b9572f42e28f5d0c4aca2cbd3",
      "vout": 0,
      "prevout": {
        "scriptpubkey": "5120cd6902974261b15a0481ebe9189d923df1d908e44610c7ec44be52450f4207d5",
        "scriptpubkey_asm": "OP_PUSHNUM_1 OP_PUSHBYTES_32 cd6902974261b15a0481ebe9189d923df1d908e44610c7ec44be52450f4207d5",
        "scriptpubkey_type": "v1_p2tr",
        "scriptpubkey_address": "bc1pe45s996zvxc45pypa05338vj8hcajz8ygcgv0mzyhefy2r6zql2shzfg3d",
        "value": 1000
      },
      "scriptsig": "",
      "scriptsig_asm": "",
      "witness": [
        "6d0d32d28e20c9fe3602988ce1cf34b9a0a42d6cb7ec6165079b33453387bb4704abbea4036495e2225baaa0eb2b4c609eb6a908e07e6eda6208f0e5a20b217f83"
      ],
      "is_coinbase": false,
      "sequence": 4294967295
    },
    {
      "txid": "6e5afffe06f7b447f20491fd5b3f375b3f0c0d2f7db809b22170419d3f28b7e6",
      "vout": 9,
      "prevout": {
        "scriptpubkey": "a914fd364dbfa798c3c47c90c1ebea2962e4b377122f87",
        "scriptpubkey_asm": "OP_HASH160 OP_PUSHBYTES_20 fd364dbfa798c3c47c90c1ebea2962e4b377122f OP_EQUAL",
        "scriptpubkey_type": "p2sh",
        "scriptpubkey_address": "3QmswAVX3Ka3GvwtePJKapaXS26VwAJvjB",
        "value": 801382
      },
      "scriptsig": "1600147fea8302dedc30bcb7164d4beaf2f803001a633c",
      "scriptsig_asm": "OP_PUSHBYTES_22 00147fea8302dedc30bcb7164d4beaf2f803001a633c",
      "witness": [
        "304402206d023c8af415409ea437275a7f40a020cca3e4321bcfd7ee6eb7635a1b29e3f102201ed6b14db5e8205e7a52727b54d50f319ba02be6c13c73484c2f7ac2938d8e1401",
        "03ed3e92d2bc2e3e347f0e057a07d8546fe4ed0901b10c5f3823edf13acb704768"
      ],
      "is_coinbase": false,
      "sequence": 4294967295,
      "inner_redeemscript_asm": "OP_0 OP_PUSHBYTES_20 7fea8302dedc30bcb7164d4beaf2f803001a633c"
    }
  ],
  "vout": [
    {
      "scriptpubkey": "a914fd364dbfa798c3c47c90c1ebea2962e4b377122f87",
      "scriptpubkey_asm": "OP_HASH160 OP_PUSHBYTES_20 fd364dbfa798c3c47c90c1ebea2962e4b377122f OP_EQUAL",
      "scriptpubkey_type": "p2sh",
      "scriptpubkey_address": "3QmswAVX3Ka3GvwtePJKapaXS26VwAJvjB",
      "value": 1800
    },
    {
      "scriptpubkey": "5120d13e53b9f5119d79e91ae5e364697c37e0bb24d1f89e5f8ade0922c8f65b4d94",
      "scriptpubkey_asm": "OP_PUSHNUM_1 OP_PUSHBYTES_32 d13e53b9f5119d79e91ae5e364697c37e0bb24d1f89e5f8ade0922c8f65b4d94",
      "scriptpubkey_type": "v1_p2tr",
      "scriptpubkey_address": "bc1p6yl98w04zxwhn6g6uh3kg6tuxlstkfx3lz09lzk7py3v3ajmfk2qdcytwf",
      "value": 1000
    },
    {
      "scriptpubkey": "5120d13e53b9f5119d79e91ae5e364697c37e0bb24d1f89e5f8ade0922c8f65b4d94",
      "scriptpubkey_asm": "OP_PUSHNUM_1 OP_PUSHBYTES_32 d13e53b9f5119d79e91ae5e364697c37e0bb24d1f89e5f8ade0922c8f65b4d94",
      "scriptpubkey_type": "v1_p2tr",
      "scriptpubkey_address": "bc1p6yl98w04zxwhn6g6uh3kg6tuxlstkfx3lz09lzk7py3v3ajmfk2qdcytwf",
      "value": 1000
    },
    {
      "scriptpubkey": "a91482dc9a288b1bc9cc860f3db248c47b0ade54501587",
      "scriptpubkey_asm": "OP_HASH160 OP_PUSHBYTES_20 82dc9a288b1bc9cc860f3db248c47b0ade545015 OP_EQUAL",
      "scriptpubkey_type": "p2sh",
      "scriptpubkey_address": "3Dcx3ByJVRrppSiJ7TjxRUkZFYAG2smFyJ",
      "value": 100500
    },
    {
      "scriptpubkey": "a91482dc9a288b1bc9cc860f3db248c47b0ade54501587",
      "scriptpubkey_asm": "OP_HASH160 OP_PUSHBYTES_20 82dc9a288b1bc9cc860f3db248c47b0ade545015 OP_EQUAL",
      "scriptpubkey_type": "p2sh",
      "scriptpubkey_address": "3Dcx3ByJVRrppSiJ7TjxRUkZFYAG2smFyJ",
      "value": 100500
    },
    {
      "scriptpubkey": "a914ea6b832a05c6ca578baa3836f3f25553d41068a587",
      "scriptpubkey_asm": "OP_HASH160 OP_PUSHBYTES_20 ea6b832a05c6ca578baa3836f3f25553d41068a5 OP_EQUAL",
      "scriptpubkey_type": "p2sh",
      "scriptpubkey_address": "3P4WqXDbSLRhzo2H6MT6YFbvBKBDPLbVtQ",
      "value": 5000
    },
    {
      "scriptpubkey": "a914fd364dbfa798c3c47c90c1ebea2962e4b377122f87",
      "scriptpubkey_asm": "OP_HASH160 OP_PUSHBYTES_20 fd364dbfa798c3c47c90c1ebea2962e4b377122f OP_EQUAL",
      "scriptpubkey_type": "p2sh",
      "scriptpubkey_address": "3QmswAVX3Ka3GvwtePJKapaXS26VwAJvjB",
      "value": 600
    },
    {
      "scriptpubkey": "a914fd364dbfa798c3c47c90c1ebea2962e4b377122f87",
      "scriptpubkey_asm": "OP_HASH160 OP_PUSHBYTES_20 fd364dbfa798c3c47c90c1ebea2962e4b377122f OP_EQUAL",
      "scriptpubkey_type": "p2sh",
      "scriptpubkey_address": "3QmswAVX3Ka3GvwtePJKapaXS26VwAJvjB",
      "value": 600
    },
    {
      "scriptpubkey": "a914fd364dbfa798c3c47c90c1ebea2962e4b377122f87",
      "scriptpubkey_asm": "OP_HASH160 OP_PUSHBYTES_20 fd364dbfa798c3c47c90c1ebea2962e4b377122f OP_EQUAL",
      "scriptpubkey_type": "p2sh",
      "scriptpubkey_address": "3QmswAVX3Ka3GvwtePJKapaXS26VwAJvjB",
      "value": 600
    },
    {
      "scriptpubkey": "a914fd364dbfa798c3c47c90c1ebea2962e4b377122f87",
      "scriptpubkey_asm": "OP_HASH160 OP_PUSHBYTES_20 fd364dbfa798c3c47c90c1ebea2962e4b377122f OP_EQUAL",
      "scriptpubkey_type": "p2sh",
      "scriptpubkey_address": "3QmswAVX3Ka3GvwtePJKapaXS26VwAJvjB",
      "value": 581102
    }
  ],
  "size": 1256,
  "weight": 3326,
  "fee": 12480,
  "status": {
    "confirmed": true,
    "block_height": 834638,
    "block_hash": "000000000000000000025f742c626208ac87e0b7d15054abb4a19ca2d735a54e",
    "block_time": 1710405325
  },
  "hex": "02000000000106e6b7283f9d417021b209b87d2f0d0c3f5b373f5bfd9104f247b4f706feff5a6e07000000171600147fea8302dedc30bcb7164d4beaf2f803001a633cffffffff5ccce1979757621dd318b65aa59ca4ffffd5d1fa855a2f0fb28402c7cf77c8b102000000171600147fea8302dedc30bcb7164d4beaf2f803001a633cffffffff5ccce1979757621dd318b65aa59ca4ffffd5d1fa855a2f0fb28402c7cf77c8b104000000171600147fea8302dedc30bcb7164d4beaf2f803001a633cffffffff02241294af32da2c66fee813cad47f3164554124b4db8fb8be523b7c0df1aad30000000000ffffffffd3cba2acc4d0f5282ef472957b20cae6677527990f182c98cf31058ad67239b50000000000ffffffffe6b7283f9d417021b209b87d2f0d0c3f5b373f5bfd9104f247b4f706feff5a6e09000000171600147fea8302dedc30bcb7164d4beaf2f803001a633cffffffff0a080700000000000017a914fd364dbfa798c3c47c90c1ebea2962e4b377122f87e803000000000000225120d13e53b9f5119d79e91ae5e364697c37e0bb24d1f89e5f8ade0922c8f65b4d94e803000000000000225120d13e53b9f5119d79e91ae5e364697c37e0bb24d1f89e5f8ade0922c8f65b4d94948801000000000017a91482dc9a288b1bc9cc860f3db248c47b0ade54501587948801000000000017a91482dc9a288b1bc9cc860f3db248c47b0ade54501587881300000000000017a914ea6b832a05c6ca578baa3836f3f25553d41068a587580200000000000017a914fd364dbfa798c3c47c90c1ebea2962e4b377122f87580200000000000017a914fd364dbfa798c3c47c90c1ebea2962e4b377122f87580200000000000017a914fd364dbfa798c3c47c90c1ebea2962e4b377122f87eedd08000000000017a914fd364dbfa798c3c47c90c1ebea2962e4b377122f8702483045022100aa6f4d80db818d06e833e153a5a0ed18d6c2c37557ce18d2ff227179ecbcd8b702203c9ae7de09559dea95fba82c9b615d94d1188bdbc65aee6dcb833385e4edb87b012103ed3e92d2bc2e3e347f0e057a07d8546fe4ed0901b10c5f3823edf13acb70476802483045022100cd2238aa983024f895577eede7b914084921a1054fc22cd36cc0dcd70422d02302204a9bb24c056ad8b0954ab5f82e82d2acafac2e4b2adccdc64f4895cc1afa4741012103ed3e92d2bc2e3e347f0e057a07d8546fe4ed0901b10c5f3823edf13acb7047680247304402206396932dad95cc77404af41142dbcd5d4fef01aa0d770849abfbe9c2e9408a4102200725796b5de6640b6c29dabda4cb4d9801499260db0e5aac1d2e57992c9b08f9012103ed3e92d2bc2e3e347f0e057a07d8546fe4ed0901b10c5f3823edf13acb70476801413a91f1fe536e6cbd31eddca4f91aa11790ca7d8bb67520f697b4d68fd873e166899e9336596ef44d6163364b88f7765ab238f1b2abf394e655518c1d5fd9b0698301416d0d32d28e20c9fe3602988ce1cf34b9a0a42d6cb7ec6165079b33453387bb4704abbea4036495e2225baaa0eb2b4c609eb6a908e07e6eda6208f0e5a20b217f830247304402206d023c8af415409ea437275a7f40a020cca3e4321bcfd7ee6eb7635a1b29e3f102201ed6b14db5e8205e7a52727b54d50f319ba02be6c13c73484c2f7ac2938d8e14012103ed3e92d2bc2e3e347f0e057a07d8546fe4ed0901b10c5f3823edf13acb70476800000000"
}