{
  "txid": "7f5584729c3cc91cd810bfef032900c2126d98897b03cf89d115916bb56751ba",
  "version": 2,
  "locktime": 0,
  "vin": [
    {
      "txid": "03c13bce7b9c6452f826982ff404d3fae357f565d3223374645f2b08ca5dba65",
      "vout": 0,
      "prevout": {
        "scriptpubkey": "5120ce1039e86ac13577cd4326765ba3200b544396098351b2e80f43249242f1df4b",
        "scriptpubkey_asm": "OP_PUSHNUM_1 OP_PUSHBYTES_32 ce1039e86ac13577cd4326765ba3200b544396098351b2e80f43249242f1df4b",
        "scriptpubkey_type": "v1_p2tr",
        "scriptpubkey_address": "bc1pecgrn6r2cy6h0n2ryem9hgeqpd2y89sfsdgm96q0gvjfysh3ma9s5qk0xg",
        "value": 546
      },
      "scriptsig": "",
      "scriptsig_asm": "",
      "witness": [
        "b47377239eb8902dd2aa8cfed3c7ecdb95310b85be115858142794d815aa3742829a2f73c60d8b4666d55504bb4ccedb7cbdfb363d2de371eacf3a629c3433fa"
      ],
      "is_coinbase": false,
      "sequence": 4294967295
    },
    {
      "txid": "25df661abc284c400557b489a24295cfb46cc4122b890fdf4b2d7f254e3a1777",
      "vout": 1,
      "prevout": {
        "scriptpubkey": "5120ce1039e86ac13577cd4326765ba3200b544396098351b2e80f43249242f1df4b",
        "scriptpubkey_asm": "OP_PUSHNUM_1 OP_PUSHBYTES_32 ce1039e86ac13577cd4326765ba3200b544396098351b2e80f43249242f1df4b",
        "scriptpubkey_type": "v1_p2tr",
        "scriptpubkey_address": "bc1pecgrn6r2cy6h0n2ryem9hgeqpd2y89sfsdgm96q0gvjfysh3ma9s5qk0xg",
        "value": 77117
      },
      "scriptsig": "",
      "scriptsig_asm": "",
      "witness": [
        "7379dd3eb694395ac8df973e18f18b2d387db834bd637b4f645768db3f4eba3d74454de9128c0e9d7f627c6f3a42716e21a5e15af0016c3158abab9e21f359d8"
      ],
      "is_coinbase": false,
      "sequence": 4294967295
    }
  ],
  "vout": [
    {
      "scriptpubkey": "51208f02b24399453f8b75539ca576988d28980fab307767b85517c75c58a1d1b1d6",
      "scriptpubkey_asm": "OP_PUSHNUM_1 OP_PUSHBYTES_32 8f02b24399453f8b75539ca576988d28980fab307767b85517c75c58a1d1b1d6",
      "scriptpubkey_type": "v1_p2tr",
      "scriptpubkey_address": "bc1p3uptysueg5lcka2nnjjhdxyd9zvql2eswanms4ghcaw93gw3k8tq8v9hle",
      "value": 546
    },
    {
      "scriptpubkey": "5120ce1039e86ac13577cd4326765ba3200b544396098351b2e80f43249242f1df4b",
      "scriptpubkey_asm": "OP_PUSHNUM_1 OP_PUSHBYTES_32 ce1039e86ac13577cd4326765ba3200b544396098351b2e80f43249242f1df4b",
      "scriptpubkey_type": "v1_p2tr",
      "scriptpubkey_address": "bc1pecgrn6r2cy6h0n2ryem9hgeqpd2y89sfsdgm96q0gvjfysh3ma9s5qk0xg",
      "value": 73937
    }
  ],
  "size": 312,
  "weight": 846,
  "fee": 3180,
  "status": {
    "confirmed": true,
    "block_height": 834460,
    "block_hash": "00000000000000000000484a79b643b2524bbce82e5d8a442013fa5b8905ed98",
    "block_time": 1710307468
  },
  "hex": "0200000000010265ba5dca082b5f64743322d365f557e3fad304f42f9826f852649c7bce3bc1030000000000ffffffff77173a4e257f2d4bdf0f892b12c46cb4cf9542a289b45705404c28bc1a66df250100000000ffffffff0222020000000000002251208f02b24399453f8b75539ca576988d28980fab307767b85517c75c58a1d1b1d6d120010000000000225120ce1039e86ac13577cd4326765ba3200b544396098351b2e80f43249242f1df4b0140b47377239eb8902dd2aa8cfed3c7ecdb95310b85be115858142794d815aa3742829a2f73c60d8b4666d55504bb4ccedb7cbdfb363d2de371eacf3a629c3433fa01407379dd3eb694395ac8df973e18f18b2d387db834bd637b4f645768db3f4eba3d74454de9128c0e9d7f627c6f3a42716e21a5e15af0016c3158abab9e21f359d800000000"
}