{
  "txid": "7f633879eeec4f76bea7d75a6a233681400b8912690fcee8417c4de875930a4b",
  "version": 1,
  "locktime": 0,
  "vin": [
    {
      "txid": "39723d06cccadc20452be5806a0feefb52db5fbeb4dd4474e34c2f7291d484c4",
      "vout": 4,
      "prevout": {
        "scriptpubkey": "a914ec264e41ccdcb09c0cb10ed67b16c60aac1e9f4a87",
        "scriptpubkey_asm": "OP_HASH160 OP_PUSHBYTES_20 ec264e41ccdcb09c0cb10ed67b16c60aac1e9f4a OP_EQUAL",
        "scriptpubkey_type": "p2sh",
        "scriptpubkey_address": "3PDfHLnCn4veRucjYhMYCauVLbG28GHFTc",
        "value": 1801430
      },
      "scriptsig": "220020a2943d8937b84e25d579550c5ff0548dacf1a8b464837fa87b07438339724d5e",
      "scriptsig_asm": "OP_PUSHBYTES_34 0020a2943d8937b84e25d579550c5ff0548dacf1a8b464837fa87b07438339724d5e",
      "witness": [
        "",
        "304402204b7ef127e6b14ed031bea2a35ad27a1e78a48d8076467c803d39126e4837c06802203c37e89e96a0adb04ee45c6638e2799a6310b1bdf423f06f28839167e809c62b01",
        "304402207acc6c2948cb5c294e41d39f301bec30043dbf620d606f29e3477e297de2a765022070dfad7c297ee3259ad561c6663f10be96d76b2c4a22c4640281692320ad3de201",
        "522102c6a30cfcbc8ae5c23999953768293acbf510d2f4db2851e6e99ada13edb12afb21027f395f710c36f91b0796756feeb3c7d6a9dd069b11a618d42f9ce073a96920cf2103c6a1f1562f0f2bad514b8f269249cd2866ccc0309fcef6f849e74dace62db20d53ae"
      ],
      "is_coinbase": false,
      "sequence": 4294967293,
      "inner_redeemscript_asm": "OP_0 OP_PUSHBYTES_32 a2943d8937b84e25d579550c5ff0548dacf1a8b464837fa87b07438339724d5e",
      "inner_witnessscript_asm": "OP_PUSHNUM_2 OP_PUSHBYTES_33 02c6a30cfcbc8ae5c23999953768293acbf510d2f4db2851e6e99ada13edb12afb OP_PUSHBYTES_33 027f395f710c36f91b0796756feeb3c7d6a9dd069b11a618d42f9ce073a96920cf OP_PUSHBYTES_33 03c6a1f1562f0f2bad514b8f269249cd2866ccc0309fcef6f849e74dace62db20d OP_PUSHNUM_3 OP_CHECKMULTISIG"
    },
    {
      "txid": "a28372e185dcee7fbf54bf5ec33f076963278b6c6c67f9a0fcf471fad112d4d6",
      "vout": 36,
      "prevout": {
        "scriptpubkey": "a914ec264e41ccdcb09c0cb10ed67b16c60aac1e9f4a87",
        "scriptpubkey_asm": "OP_HASH160 OP_PUSHBYTES_20 ec264e41ccdcb09c0cb10ed67b16c60aac1e9f4a OP_EQUAL",
        "scriptpubkey_type": "p2sh",
        "scriptpubkey_address": "3PDfHLnCn4veRucjYhMYCauVLbG28GHFTc",
        "value": 298500
      },
      "scriptsig": "220020a2943d8937b84e25d579550c5ff0548dacf1a8b464837fa87b07438339724d5e",
      "scriptsig_asm": "OP_PUSHBYTES_34 0020a2943d8937b84e25d579550c5ff0548dacf1a8b464837fa87b07438339724d5e",
      "witness": [
        "",
        "3045022100b0b89aed97c13a49a6fb2be329d465365bf28415c152cdf6ecd026a76c726e460220072605bb86eb3ed30627f461b2f956e2cb55131455211dbc7d4826d4ee1409c101",
        "304402200820c5dfa984c5bb3db035792730278659a705e4df5a8823e84415618a9d1f90022015490c755f7d1465c913f94757636ae62e3fb1188c8aa7c06bf2c19e22e31c8601",
        "522102c6a30cfcbc8ae5c23999953768293acbf510d2f4db2851e6e99ada13edb12afb21027f395f710c36f91b0796756feeb3c7d6a9dd069b11a618d42f9ce073a96920cf2103c6a1f1562f0f2bad514b8f269249cd2866ccc0309fcef6f849e74dace62db20d53ae"
      ],
      "is_coinbase": false,
      "sequence": 4294967293,
      "inner_redeemscript_asm": "OP_0 OP_PUSHBYTES_32 a2943d8937b84e25d579550c5ff0548dacf1a8b464837fa87b07438339724d5e",
      "inner_witnessscript_asm": "OP_PUSHNUM_2 OP_PUSHBYTES_33 02c6a30cfcbc8ae5c23999953768293acbf510d2f4db2851e6e99ada13edb12afb OP_PUSHBYTES_33 027f395f710c36f91b0796756feeb3c7d6a9dd069b11a618d42f9ce073a96920cf OP_PUSHBYTES_33 03c6a1f1562f0f2bad514b8f269249cd2866ccc0309fcef6f849e74dace62db20d OP_PUSHNUM_3 OP_CHECKMULTISIG"
    },
    {
      "txid": "c75babe2e62ecc0109afb64367bb8517597c0ed0479f468e365e63ded20e7932",
      "vout": 4,
      "prevout": {
        "scriptpubkey": "a914ec264e41ccdcb09c0cb10ed67b16c60aac1e9f4a87",
        "scriptpubkey_asm": "OP_HASH160 OP_PUSHBYTES_20 ec264e41ccdcb09c0cb10ed67b16c60aac1e9f4a OP_EQUAL",
        "scriptpubkey_type": "p2sh",
        "scriptpubkey_address": "3PDfHLnCn4veRucjYhMYCauVLbG28GHFTc",
        "value": 755940
      },
      "scriptsig": "220020a2943d8937b84e25d579550c5ff0548dacf1a8b464837fa87b07438339724d5e",
      "scriptsig_asm": "OP_PUSHBYTES_34 0020a2943d8937b84e25d579550c5ff0548dacf1a8b464837fa87b07438339724d5e",
      "witness": [
        "",
        "3045022100fd6211070355fa6acd12ad3dab96783c717f25d3333dc282f34c6046c05bb58802201e158f40c99d6dab8e577c01627c9c01cb39c9cca749893df36e8e6089c2527201",
        "3044022021eb74b10e8e515e6c8aeb040ff0eb39f69362f108d3b7c41c0daa6412c3f2fc02203f53200189d2ca8b9aec2ab571d369c8cdee4e06d49e3ee48a4aee6d1ae5d10801",
        "522102c6a30cfcbc8ae5c23999953768293acbf510d2f4db2851e6e99ada13edb12afb21027f395f710c36f91b0796756feeb3c7d6a9dd069b11a618d42f9ce073a96920cf2103c6a1f1562f0f2bad514b8f269249cd2866ccc0309fcef6f849e74dace62db20d53ae"
      ],
      "is_coinbase": false,
      "sequence": 4294967293,
      "inner_redeemscript_asm": "OP_0 OP_PUSHBYTES_32 a2943d8937b84e25d579550c5ff0548dacf1a8b464837fa87b07438339724d5e",
      "inner_witnessscript_asm": "OP_PUSHNUM_2 OP_PUSHBYTES_33 02c6a30cfcbc8ae5c23999953768293acbf510d2f4db2851e6e99ada13edb12afb OP_PUSHBYTES_33 027f395f710c36f91b0796756feeb3c7d6a9dd069b11a618d42f9ce073a96920cf OP_PUSHBYTES_33 03c6a1f1562f0f2bad514b8f269249cd2866ccc0309fcef6f849e74dace62db20d OP_PUSHNUM_3 OP_CHECKMULTISIG"
    },
    {
      "txid": "d2bb6148888f4b7041a8a2e3857fb2498e1e609d87c6fc4bd29b44449969ca8e",
      "vout": 4,
      "prevout": {
        "scriptpubkey": "a914ec264e41ccdcb09c0cb10ed67b16c60aac1e9f4a87",
        "scriptpubkey_asm": "OP_HASH160 OP_PUSHBYTES_20 ec264e41ccdcb09c0cb10ed67b16c60aac1e9f4a OP_EQUAL",
        "scriptpubkey_type": "p2sh",
        "scriptpubkey_address": "3PDfHLnCn4veRucjYhMYCauVLbG28GHFTc",
        "value": 1289120
      },
      "scriptsig": "220020a2943d8937b84e25d579550c5ff0548dacf1a8b464837fa87b07438339724d5e",
      "scriptsig_asm": "OP_PUSHBYTES_34 0020a2943d8937b84e25d579550c5ff0548dacf1a8b464837fa87b07438339724d5e",
      "witness": [
        "",
        "3045022100b4b620793aeeff99d5dfc7b0557cdaa49172fd60aad43168d73b4f649d500959022056a78baa9eec434f124f9c8e672027b40adf18d32682e01712a979a9ee6d6e8b01",
        "304402203b713a4f86e97531e0e3f322f71585ed85481d0e81a73cb916595b394cfe3a78022045d868d20806a905c13a2b85c4d7105767077212e27cee90dc99f3962746518401",
        "522102c6a30cfcbc8ae5c23999953768293acbf510d2f4db2851e6e99ada13edb12afb21027f395f710c36f91b0796756feeb3c7d6a9dd069b11a618d42f9ce073a96920cf2103c6a1f1562f0f2bad514b8f269249cd2866ccc0309fcef6f849e74dace62db20d53ae"
      ],
      "is_coinbase": false,
      "sequence": 4294967293,
      "inner_redeemscript_asm": "OP_0 OP_PUSHBYTES_32 a2943d8937b84e25d579550c5ff0548dacf1a8b464837fa87b07438339724d5e",
      "inner_witnessscript_asm": "OP_PUSHNUM_2 OP_PUSHBYTES_33 02c6a30cfcbc8ae5c23999953768293acbf510d2f4db2851e6e99ada13edb12afb OP_PUSHBYTES_33 027f395f710c36f91b0796756feeb3c7d6a9dd069b11a618d42f9ce073a96920cf OP_PUSHBYTES_33 03c6a1f1562f0f2bad514b8f269249cd2866ccc0309fcef6f849e74dace62db20d OP_PUSHNUM_3 OP_CHECKMULTISIG"
    },
    {
      "txid": "e31e2102296d512d4c641a0ff567d180137a01f4bf35d71eb3d8e568c95d79b1",
      "vout": 3,
      "prevout": {
        "scriptpubkey": "a914ec264e41ccdcb09c0cb10ed67b16c60aac1e9f4a87",
        "scriptpubkey_asm": "OP_HASH160 OP_PUSHBYTES_20 ec264e41ccdcb09c0cb10ed67b16c60aac1e9f4a OP_EQUAL",
        "scriptpubkey_type": "p2sh",
        "scriptpubkey_address": "3PDfHLnCn4veRucjYhMYCauVLbG28GHFTc",
        "value": 1195430
      },
      "scriptsig": "220020a2943d8937b84e25d579550c5ff0548dacf1a8b464837fa87b07438339724d5e",
      "scriptsig_asm": "OP_PUSHBYTES_34 0020a2943d8937b84e25d579550c5ff0548dacf1a8b464837fa87b07438339724d5e",
      "witness": [
        "",
        "3045022100d89560ba77b0dd1d7b9b7e9fb85c8c54b4a3ecb5b24770ff37147d580b45bcc10220788d18fcc57d94c3c7db30d55e126d5a348be720020b2b4cce7ab1205094c7f601",
        "304402207d955a3087cb3fd17bb619e15541b1cfd199a13549b4c2bea5594a7a058c09e3022044066307f34f3ce330fec4b72a8a62b248a0615eb497a29d0e6f7142da6f4cdb01",
        "522102c6a30cfcbc8ae5c23999953768293acbf510d2f4db2851e6e99ada13edb12afb21027f395f710c36f91b0796756feeb3c7d6a9dd069b11a618d42f9ce073a96920cf2103c6a1f1562f0f2bad514b8f269249cd2866ccc0309fcef6f849e74dace62db20d53ae"
      ],
      "is_coinbase": false,
      "sequence": 4294967293,
      "inner_redeemscript_asm": "OP_0 OP_PUSHBYTES_32 a2943d8937b84e25d579550c5ff0548dacf1a8b464837fa87b07438339724d5e",
      "inner_witnessscript_asm": "OP_PUSHNUM_2 OP_PUSHBYTES_33 02c6a30cfcbc8ae5c23999953768293acbf510d2f4db2851e6e99ada13edb12afb OP_PUSHBYTES_33 027f395f710c36f91b0796756feeb3c7d6a9dd069b11a618d42f9ce073a96920cf OP_PUSHBYTES_33 03c6a1f1562f0f2bad514b8f269249cd2866ccc0309fcef6f849e74dace62db20d OP_PUSHNUM_3 OP_CHECKMULTISIG"
    },
    {
      "txid": "ed05a46ab6957741542c65ead511a412006c896540cbbf0ae1cd1ce1a55d676c",
      "vout": 36,
      "prevout": {
        "scriptpubkey": "a914ec264e41ccdcb09c0cb10ed67b16c60aac1e9f4a87",
        "scriptpubkey_asm": "OP_HASH160 OP_PUSHBYTES_20 ec264e41ccdcb09c0cb10ed67b16c60aac1e9f4a OP_EQUAL",
        "scriptpubkey_type": "p2sh",
        "scriptpubkey_address": "3PDfHLnCn4veRucjYhMYCauVLbG28GHFTc",
        "value": 1671200
      },
      "scriptsig": "220020a2943d8937b84e25d579550c5ff0548dacf1a8b464837fa87b07438339724d5e",
      "scriptsig_asm": "OP_PUSHBYTES_34 0020a2943d8937b84e25d579550c5ff0548dacf1a8b464837fa87b07438339724d5e",
      "witness": [
        "",
        "304402207cecbbcee393ab2cf0d9fe8102f76f2d7878bc76bd493270d0370f93cbe4adad022078298bb66c6039abaa610bc1b978cc231a9f0d9043911527e2fbad3d6d1a146101",
        "3044022054b365aa6981b4d12731a4a3955e8804dacdf45c12eed509072823e2d6c0890902206549c454d5ce5cba2cd5ad1183b5edc1f1241652dbe842a2a2fde40f766f6d8801",
        "522102c6a30cfcbc8ae5c23999953768293acbf510d2f4db2851e6e99ada13edb12afb21027f395f710c36f91b0796756feeb3c7d6a9dd069b11a618d42f9ce073a96920cf2103c6a1f1562f0f2bad514b8f269249cd2866ccc0309fcef6f849e74dace62db20d53ae"
      ],
      "is_coinbase": false,
      "sequence": 4294967293,
      "inner_redeemscript_asm": "OP_0 OP_PUSHBYTES_32 a2943d8937b84e25d579550c5ff0548dacf1a8b464837fa87b07438339724d5e",
      "inner_witnessscript_asm": "OP_PUSHNUM_2 OP_PUSHBYTES_33 02c6a30cfcbc8ae5c23999953768293acbf510d2f4db2851e6e99ada13edb12afb OP_PUSHBYTES_33 027f395f710c36f91b0796756feeb3c7d6a9dd069b11a618d42f9ce073a96920cf OP_PUSHBYTES_33 03c6a1f1562f0f2bad514b8f269249cd2866ccc0309fcef6f849e74dace62db20d OP_PUSHNUM_3 OP_CHECKMULTISIG"
    },
    {
      "txid": "ffb75e4ea71f88fbe263274db25ccff6034cfb61ff9e24b6ae4ba5a2370a509b",
      "vout": 3,
      "prevout": {
        "scriptpubkey": "a914ec264e41ccdcb09c0cb10ed67b16c60aac1e9f4a87",
        "scriptpubkey_asm": "OP_HASH160 OP_PUSHBYTES_20 ec264e41ccdcb09c0cb10ed67b16c60aac1e9f4a OP_EQUAL",
        "scriptpubkey_type": "p2sh",
        "scriptpubkey_address": "3PDfHLnCn4veRucjYhMYCauVLbG28GHFTc",
        "value": 850320
      },
      "scriptsig": "220020a2943d8937b84e25d579550c5ff0548dacf1a8b464837fa87b07438339724d5e",
      "scriptsig_asm": "OP_PUSHBYTES_34 0020a2943d8937b84e25d579550c5ff0548dacf1a8b464837fa87b07438339724d5e",
      "witness": [
        "",
        "304502210084b63f523b7801ab6d01424fb4dd7bbf05cc70b88cb0317bf416545640c570280220373df4cc689939349fcf53f302460e38fd73f29ee24e43f4c8b58a6dc142cebb01",
        "30440220154a05442e8ba2af12723cfbdfe374d88715e0c5cb265ca4ed6c878492f8a9920220748a59c416ec0e4adce3a2bfed170fa4ac859c414919ccfb22090814135ba90001",
        "522102c6a30cfcbc8ae5c23999953768293acbf510d2f4db2851e6e99ada13edb12afb21027f395f710c36f91b0796756feeb3c7d6a9dd069b11a618d42f9ce073a96920cf2103c6a1f1562f0f2bad514b8f269249cd2866ccc0309fcef6f849e74dace62db20d53ae"
      ],
      "is_coinbase": false,
      "sequence": 4294967293,
      "inner_redeemscript_asm": "OP_0 OP_PUSHBYTES_32 a2943d8937b84e25d579550c5ff0548dacf1a8b464837fa87b07438339724d5e",
      "inner_witnessscript_asm": "OP_PUSHNUM_2 OP_PUSHBYTES_33 02c6a30cfcbc8ae5c23999953768293acbf510d2f4db2851e6e99ada13edb12afb OP_PUSHBYTES_33 027f395f710c36f91b0796756feeb3c7d6a9dd069b11a618d42f9ce073a96920cf OP_PUSHBYTES_33 03c6a1f1562f0f2bad514b8f269249cd2866ccc0309fcef6f849e74dace62db20d OP_PUSHNUM_3 OP_CHECKMULTISIG"
    }
  ],
  "vout": [
    {
      "scriptpubkey": "5120550e8c592242523569fbaedf52eec45c5397d8757e67ff0b8ebc58cab113e598",
      "scriptpubkey_asm": "OP_PUSHNUM_1 OP_PUSHBYTES_32 550e8c592242523569fbaedf52eec45c5397d8757e67ff0b8ebc58cab113e598",
      "scriptpubkey_type": "v1_p2tr",
      "scriptpubkey_address": "bc1p258gckfzgffr260m4m049mkyt3fe0kr40enl7zuwh3vv4vgnukvq36d2g7",
      "value": 19546
    },
    {
      "scriptpubkey": "0014280c7cdb3062bb1fbbecc333acc5870832705365",
      "scriptpubkey_asm": "OP_0 OP_PUSHBYTES_20 280c7cdb3062bb1fbbecc333acc5870832705365",
      "scriptpubkey_type": "v0_p2wpkh",
      "scriptpubkey_address": "bc1q9qx8ekesv2a3lwlvcve6e3v8pqe8q5m9yn96fz",
      "value": 7818702
    }
  ],
  "size": 2387,
  "weight": 4235,
  "fee": 23692,
  "status": {
    "confirmed": true,
    "block_height": 834638,
    "block_hash": "000000000000000000025f742c626208ac87e0b7d15054abb4a19ca2d735a54e",
    "block_time": 1710405325
  },
  "hex": "01000000000107c484d491722f4ce37444ddb4be5fdb52fbee0f6a80e52b4520dccacc063d72390400000023220020a2943d8937b84e25d579550c5ff0548dacf1a8b464837fa87b07438339724d5efdffffffd6d412d1fa71f4fca0f9676c6c8b276369073fc35ebf54bf7feedc85e17283a22400000023220020a2943d8937b84e25d579550c5ff0548dacf1a8b464837fa87b07438339724d5efdffffff32790ed2de635e368e469f47d00e7c591785bb6743b6af0901cc2ee6e2ab5bc70400000023220020a2943d8937b84e25d579550c5ff0548dacf1a8b464837fa87b07438339724d5efdffffff8eca699944449bd24bfcc6879d601e8e49b27f85e3a2a841704b8f884861bbd20400000023220020a2943d8937b84e25d579550c5ff0548dacf1a8b464837fa87b07438339724d5efdffffffb1795dc968e5d8b31ed735bff4017a1380d167f50f1a644c2d516d2902211ee30300000023220020a2943d8937b84e25d579550c5ff0548dacf1a8b464837fa87b07438339724d5efdffffff6c675da5e11ccde10abfcb4065896c0012a411d5ea652c54417795b66aa405ed2400000023220020a2943d8937b84e25d579550c5ff0548dacf1a8b464837fa87b07438339724d5efdffffff9b500a37a2a54baeb6249eff61fb4c03f6cf5cb24d2763e2fb881fa74e5eb7ff0300000023220020a2943d8937b84e25d579550c5ff0548dacf1a8b464837fa87b07438339724d5efdffffff025a4c000000000000225120550e8c592242523569fbaedf52eec45c5397d8757e67ff0b8ebc58cab113e598ce4d770000000000160014280c7cdb3062bb1fbbecc333acc5870832705365040047304402204b7ef127e6b14ed031bea2a35ad27a1e78a48d8076467c803d39126e4837c06802203c37e89e96a0adb04ee45c6638e2799a6310b1bdf423f06f28839167e809c62b0147304402207acc6c2948cb5c294e41d39f301bec30043dbf620d606f29e3477e297de2a765022070dfad7c297ee3259ad561c6663f10be96d76b2c4a22c4640281692320ad3de20169522102c6a30cfcbc8ae5c23999953768293acbf510d2f4db2851e6e99ada13edb12afb21027f395f710c36f91b0796756feeb3c7d6a9dd069b11a618d42f9ce073a96920cf2103c6a1f1562f0f2bad514b8f269249cd2866ccc0309fcef6f849e74dace62db20d53ae0400483045022100b0b89aed97c13a49a6fb2be329d465365bf28415c152cdf6ecd026a76c726e460220072605bb86eb3ed30627f461b2f956e2cb55131455211dbc7d4826d4ee1409c10147304402200820c5dfa984c5bb3db035792730278659a705e4df5a8823e84415618a9d1f90022015490c755f7d1465c913f94757636ae62e3fb1188c8aa7c06bf2c19e22e31c860169522102c6a30cfcbc8ae5c23999953768293acbf510d2f4db2851e6e99ada13edb12afb21027f395f710c36f91b0796756feeb3c7d6a9dd069b11a618d42f9ce073a96920cf2103c6a1f1562f0f2bad514b8f269249cd2866ccc0309fcef6f849e74dace62db20d53ae0400483045022100fd6211070355fa6acd12ad3dab96783c717f25d3333dc282f34c6046c05bb58802201e158f40c99d6dab8e577c01627c9c01cb39c9cca749893df36e8e6089c2527201473044022021eb74b10e8e515e6c8aeb040ff0eb39f69362f108d3b7c41c0daa6412c3f2fc02203f53200189d2ca8b9aec2ab571d369c8cdee4e06d49e3ee48a4aee6d1ae5d1080169522102c6a30cfcbc8ae5c23999953768293acbf510d2f4db2851e6e99ada13edb12afb21027f395f710c36f91b0796756feeb3c7d6a9dd069b11a618d42f9ce073a96920cf2103c6a1f1562f0f2bad514b8f269249cd2866ccc0309fcef6f849e74dace62db20d53ae0400483045022100b4b620793aeeff99d5dfc7b0557cdaa49172fd60aad43168d73b4f649d500959022056a78baa9eec434f124f9c8e672027b40adf18d32682e01712a979a9ee6d6e8b0147304402203b713a4f86e97531e0e3f322f71585ed85481d0e81a73cb916595b394cfe3a78022045d868d20806a905c13a2b85c4d7105767077212e27cee90dc99f396274651840169522102c6a30cfcbc8ae5c23999953768293acbf510d2f4db2851e6e99ada13edb12afb21027f395f710c36f91b0796756feeb3c7d6a9dd069b11a618d42f9ce073a96920cf2103c6a1f1562f0f2bad514b8f269249cd2866ccc0309fcef6f849e74dace62db20d53ae0400483045022100d89560ba77b0dd1d7b9b7e9fb85c8c54b4a3ecb5b24770ff37147d580b45bcc10220788d18fcc57d94c3c7db30d55e126d5a348be720020b2b4cce7ab1205094c7f60147304402207d955a3087cb3fd17bb619e15541b1cfd199a13549b4c2bea5594a7a058c09e3022044066307f34f3ce330fec4b72a8a62b248a0615eb497a29d0e6f7142da6f4cdb0169522102c6a30cfcbc8ae5c23999953768293acbf510d2f4db2851e6e99ada13edb12afb21027f395f710c36f91b0796756feeb3c7d6a9dd069b11a618d42f9ce073a96920cf2103c6a1f1562f0f2bad514b8f269249cd2866ccc0309fcef6f849e74dace62db20d53ae040047304402207cecbbcee393ab2cf0d9fe8102f76f2d7878bc76bd493270d0370f93cbe4adad022078298bb66c6039abaa610bc1b978cc231a9f0d9043911527e2fbad3d6d1a146101473044022054b365aa6981b4d12731a4a3955e8804dacdf45c12eed509072823e2d6c0890902206549c454d5ce5cba2cd5ad1183b5edc1f1241652dbe842a2a2fde40f766f6d880169522102c6a30cfcbc8ae5c23999953768293acbf510d2f4db2851e6e99ada13edb12afb21027f395f710c36f91b0796756feeb3c7d6a9dd069b11a618d42f9ce073a96920cf2103c6a1f1562f0f2bad514b8f269249cd2866ccc0309fcef6f849e74dace62db20d53ae040048304502210084b63f523b7801ab6d01424fb4dd7bbf05cc70b88cb0317bf416545640c570280220373df4cc689939349fcf53f302460e38fd73f29ee24e43f4c8b58a6dc142cebb014730440220154a05442e8ba2af12723cfbdfe374d88715e0c5cb265ca4ed6c878492f8a9920220748a59c416ec0e4adce3a2bfed170fa4ac859c414919ccfb22090814135ba9000169522102c6a30cfcbc8ae5c23999953768293acbf510d2f4db2851e6e99ada13edb12afb21027f395f710c36f91b0796756feeb3c7d6a9dd069b11a618d42f9ce073a96920cf2103c6a1f1562f0f2bad514b8f269249cd2866ccc0309fcef6f849e74dace62db20d53ae00000000"
}