{
  "txid": "7f63146c6a994e94c6aac93aaf7cd574396d7c81988d855cae208752ab7eefa8",
  "version": 2,
  "locktime": 0,
  "vin": [
    {
      "txid": "ca49732a8789b812361e997512b66bc3787f1e3ff39f5f0d8b845e09438043f6",
      "vout": 10,
      "prevout": {
        "scriptpubkey": "51203b6ef0c83ee24c00987d67cf431dc60de70a7584c82fa21a9b5129d52f2dffa1",
        "scriptpubkey_asm": "OP_PUSHNUM_1 OP_PUSHBYTES_32 3b6ef0c83ee24c00987d67cf431dc60de70a7584c82fa21a9b5129d52f2dffa1",
        "scriptpubkey_type": "v1_p2tr",
        "scriptpubkey_address": "bc1p8dh0pjp7ufxqpxravl85x8wxphns5avyeqh6yx5m2y5a2tedl7ss4wuanp",
        "value": 2066
      },
      "scriptsig": "",
      "scriptsig_asm": "",
      "witness": [
        "bcc51585a7266719e4bbfcd7a6eca26ef75eab270b94c404e846e06d7a3c588481a2773285b24d48c0c659e030806eeb19114d25073d38aa41ec35094403ded6",
        "207dbb6a06f359ff93a659ef7e5b25f8a8f607eb5e99f74f7643c531bd29040f12ac0063036f726401010a746578742f706c61696e00367b2270223a226272632d3230222c226f70223a226d696e74222c227469636b223a2261616161222c22616d74223a223130303030227d68",
        "c07dbb6a06f359ff93a659ef7e5b25f8a8f607eb5e99f74f7643c531bd29040f12"
      ],
      "is_coinbase": false,
      "sequence": 4261412863
    }
  ],
  "vout": [
    {
      "scriptpubkey": "0014b12a255b419b46c01324705abea5fd2949f55051",
      "scriptpubkey_asm": "OP_0 OP_PUSHBYTES_20 b12a255b419b46c01324705abea5fd2949f55051",
      "scriptpubkey_type": "v0_p2wpkh",
      "scriptpubkey_address": "bc1qky4z2k6pndrvqyeywpdtaf0a99yl25z3zp84r6",
      "value": 294
    }
  ],
  "size": 295,
  "weight": 541,
  "fee": 1772,
  "status": {
    "confirmed": true,
    "block_height": 834460,
    "block_hash": "00000000000000000000484a79b643b2524bbce82e5d8a442013fa5b8905ed98",
    "block_time": 1710307468
  },
  "hex": "02000000000101f6438043095e848b0d5f9ff33f1e7f78c36bb61275991e3612b889872a7349ca0a00000000fffffffd012601000000000000160014b12a255b419b46c01324705abea5fd2949f550510340bcc51585a7266719e4bbfcd7a6eca26ef75eab270b94c404e846e06d7a3c588481a2773285b24d48c0c659e030806eeb19114d25073d38aa41ec35094403ded66e207dbb6a06f359ff93a659ef7e5b25f8a8f607eb5e99f74f7643c531bd29040f12ac0063036f726401010a746578742f706c61696e00367b2270223a226272632d3230222c226f70223a226d696e74222c227469636b223a2261616161222c22616d74223a223130303030227d6821c07dbb6a06f359ff93a659ef7e5b25f8a8f607eb5e99f74f7643c531bd29040f1200000000"
}