{
  "txid": "7f657ffc72bbe5f6bffc9bf31349317a112e6aaf37fa2c7c222bbc76599a89b3",
  "version": 2,
  "locktime": 0,
  "vin": [
    {
      "txid": "3a7029c71c2f261e71a67b22872e57f38433de2b45249d83bfed760f9c5e293d",
      "vout": 0,
      "prevout": {
        "scriptpubkey": "5120515b769f11d0a4e969f4c83a72ef236920a37c8c40ff63e07750c7a700442237",
        "scriptpubkey_asm": "OP_PUSHNUM_1 OP_PUSHBYTES_32 515b769f11d0a4e969f4c83a72ef236920a37c8c40ff63e07750c7a700442237",
        "scriptpubkey_type": "v1_p2tr",
        "scriptpubkey_address": "bc1p29dhd8c36zjwj605eqa89merdys2xlyvgrlk8crh2rr6wqzyygmsalv86t",
        "value": 546
      },
      "scriptsig": "",
      "scriptsig_asm": "",
      "witness": [
        "dd466650bfb327a563d3104b4005507aef15a4918285604d29a41b122a1025baec0a86595f563d0758d386b59018dfe1c119aa4bd3d59b203b58e6756f9bb6a0"
      ],
      "is_coinbase": false,
      "sequence": 4294967295
    },
    {
      "txid": "8ce65ed5a69d89a208eaada07a278a9a5c6ae96e5c187d95d686432d2338fc5c",
      "vout": 1,
      "prevout": {
        "scriptpubkey": "5120515b769f11d0a4e969f4c83a72ef236920a37c8c40ff63e07750c7a700442237",
        "scriptpubkey_asm": "OP_PUSHNUM_1 OP_PUSHBYTES_32 515b769f11d0a4e969f4c83a72ef236920a37c8c40ff63e07750c7a700442237",
        "scriptpubkey_type": "v1_p2tr",
        "scriptpubkey_address": "bc1p29dhd8c36zjwj605eqa89merdys2xlyvgrlk8crh2rr6wqzyygmsalv86t",
        "value": 168898
      },
      "scriptsig": "",
      "scriptsig_asm": "",
      "witness": [
        "14b9d9f48e1ea2dc431659490a9d3e88ec8c974f79201edb82316e72d57a89e7488429d6dd7b7c8a8e7c5a091aa2dde4ac9fa5e13eaaaa55de322787b65efb51"
      ],
      "is_coinbase": false,
      "sequence": 4294967295
    }
  ],
  "vout": [
    {
      "scriptpubkey": "5120ada0cee780508d73d5baad50f47d4fc387e00855dd8297d9f06eb22e8feeb315",
      "scriptpubkey_asm": "OP_PUSHNUM_1 OP_PUSHBYTES_32 ada0cee780508d73d5baad50f47d4fc387e00855dd8297d9f06eb22e8feeb315",
      "scriptpubkey_type": "v1_p2tr",
      "scriptpubkey_address": "bc1p4ksvaeuq2zxh84d644g0gl20cwr7qzz4mkpf0k0sd6ezarlwkv2sfmsvju",
      "value": 546
    },
    {
      "scriptpubkey": "5120515b769f11d0a4e969f4c83a72ef236920a37c8c40ff63e07750c7a700442237",
      "scriptpubkey_asm": "OP_PUSHNUM_1 OP_PUSHBYTES_32 515b769f11d0a4e969f4c83a72ef236920a37c8c40ff63e07750c7a700442237",
      "scriptpubkey_type": "v1_p2tr",
      "scriptpubkey_address": "bc1p29dhd8c36zjwj605eqa89merdys2xlyvgrlk8crh2rr6wqzyygmsalv86t",
      "value": 165294
    }
  ],
  "size": 312,
  "weight": 846,
  "fee": 3604,
  "status": {
    "confirmed": true,
    "block_height": 834638,
    "block_hash": "000000000000000000025f742c626208ac87e0b7d15054abb4a19ca2d735a54e",
    "block_time": 1710405325
  },
  "hex": "020000000001023d295e9c0f76edbf839d24452bde3384f3572e87227ba6711e262f1cc729703a0000000000ffffffff5cfc38232d4386d6957d185c6ee96a5c9a8a277aa0adea08a2899da6d55ee68c0100000000ffffffff022202000000000000225120ada0cee780508d73d5baad50f47d4fc387e00855dd8297d9f06eb22e8feeb315ae85020000000000225120515b769f11d0a4e969f4c83a72ef236920a37c8c40ff63e07750c7a7004422370140dd466650bfb327a563d3104b4005507aef15a4918285604d29a41b122a1025baec0a86595f563d0758d386b59018dfe1c119aa4bd3d59b203b58e6756f9bb6a0014014b9d9f48e1ea2dc431659490a9d3e88ec8c974f79201edb82316e72d57a89e7488429d6dd7b7c8a8e7c5a091aa2dde4ac9fa5e13eaaaa55de322787b65efb5100000000"
}