{
  "txid": "7f7025e4e78f4426eb89ced2bafd1f83045dd8671021a4df6a7e868a9a8c7b35",
  "version": 2,
  "locktime": 0,
  "vin": [
    {
      "txid": "acc3ba00869acb582a3f2904ce3a11dd3779350ce234063fc7d0959246213364",
      "vout": 106,
      "prevout": {
        "scriptpubkey": "5120841045904bc5865d8ab34d1643bfb8c33c3b1b26a63e7770917055682a1e80f3",
        "scriptpubkey_asm": "OP_PUSHNUM_1 OP_PUSHBYTES_32 841045904bc5865d8ab34d1643bfb8c33c3b1b26a63e7770917055682a1e80f3",
        "scriptpubkey_type": "v1_p2tr",
        "scriptpubkey_address": "bc1pssgytyztckr9mz4nf5ty80accv7rkxex5cl8wuy3wp2ks2s7srestxyrug",
        "value": 1806
      },
      "scriptsig": "",
      "scriptsig_asm": "",
      "witness": [
        "8243eb2b28c2bc002d5a07e478d0812487e7a5b6af04bb8a088692fc58a2b3eb0f482e5da414841f3c25039b5b527269f5f7a815dbea50a56adba279a9a5da5e",
        "20c548ffbc9e377ed3b63c119c364a798d652bd02d6b400b0e46d7b3e8b93b14f0ac0063036f726401010a746578742f706c61696e00357b2270223a226272632d3230222c226f70223a226d696e74222c227469636b223a22646f6765222c22616d74223a2234323030227d68",
        "c1c548ffbc9e377ed3b63c119c364a798d652bd02d6b400b0e46d7b3e8b93b14f0"
      ],
      "is_coinbase": false,
      "sequence": 4261412863
    }
  ],
  "vout": [
    {
      "scriptpubkey": "00147a665de7a370f4c9b372ab1fae587500a5bcbdb4",
      "scriptpubkey_asm": "OP_0 OP_PUSHBYTES_20 7a665de7a370f4c9b372ab1fae587500a5bcbdb4",
      "scriptpubkey_type": "v0_p2wpkh",
      "scriptpubkey_address": "bc1q0fn9mearwr6vnvmj4v06ukr4qzjme0d565dzcx",
      "value": 294
    }
  ],
  "size": 294,
  "weight": 540,
  "fee": 1512,
  "status": {
    "confirmed": true,
    "block_height": 834460,
    "block_hash": "00000000000000000000484a79b643b2524bbce82e5d8a442013fa5b8905ed98",
    "block_time": 1710307468
  },
  "hex": "02000000000101643321469295d0c73f0634e20c357937dd113ace04293f2a58cb9a8600bac3ac6a00000000fffffffd0126010000000000001600147a665de7a370f4c9b372ab1fae587500a5bcbdb403408243eb2b28c2bc002d5a07e478d0812487e7a5b6af04bb8a088692fc58a2b3eb0f482e5da414841f3c25039b5b527269f5f7a815dbea50a56adba279a9a5da5e6d20c548ffbc9e377ed3b63c119c364a798d652bd02d6b400b0e46d7b3e8b93b14f0ac0063036f726401010a746578742f706c61696e00357b2270223a226272632d3230222c226f70223a226d696e74222c227469636b223a22646f6765222c22616d74223a2234323030227d6821c1c548ffbc9e377ed3b63c119c364a798d652bd02d6b400b0e46d7b3e8b93b14f000000000"
}