{
  "txid": "7f7de3dd1cc903140d3f34bd00cea01ffe0615879bba9aeeb6037569f531c402",
  "version": 2,
  "locktime": 0,
  "vin": [
    {
      "txid": "b13bb5512a4904c28a6b7957b88edf574e8cb23551fc1dcfe22d6b239df42cf4",
      "vout": 95,
      "prevout": {
        "scriptpubkey": "51204983e078f04b25891ff7ab6d5df8c382e774ae3ab332adce4f1c4f471f28a273",
        "scriptpubkey_asm": "OP_PUSHNUM_1 OP_PUSHBYTES_32 4983e078f04b25891ff7ab6d5df8c382e774ae3ab332adce4f1c4f471f28a273",
        "scriptpubkey_type": "v1_p2tr",
        "scriptpubkey_address": "bc1pfxp7q78sfvjcj8lh4dk4m7xrstnhft36kve2mnj0r385w8eg5fesspds67",
        "value": 2575
      },
      "scriptsig": "",
      "scriptsig_asm": "",
      "witness": [
        "1eeab1fa17392b0060978c449d82e730d25ff112ff72d36e92dd8dc6cc22c33c5d682f1e3c5378f8e9bf65f5aa833ddf772dacd5c747a10828063bb7241901c5",
        "200a25f3b9c215c1e4488cf6e6c07c914df82a6ff3814103c0d9d6a4edc150c2d2ac0063036f726401010a746578742f706c61696e00367b2270223a226272632d3230222c226f70223a226d696e74222c227469636b223a2261616161222c22616d74223a223130303030227d68",
        "c00a25f3b9c215c1e4488cf6e6c07c914df82a6ff3814103c0d9d6a4edc150c2d2"
      ],
      "is_coinbase": false,
      "sequence": 4261412863
    }
  ],
  "vout": [
    {
      "scriptpubkey": "0014ce0b5aa0dac72397a8aa5a85d90a2cfb46f0f630",
      "scriptpubkey_asm": "OP_0 OP_PUSHBYTES_20 ce0b5aa0dac72397a8aa5a85d90a2cfb46f0f630",
      "scriptpubkey_type": "v0_p2wpkh",
      "scriptpubkey_address": "bc1qec944gx6cu3e0292t2zajz3vldr0pa3sh356d9",
      "value": 546
    }
  ],
  "size": 295,
  "weight": 541,
  "fee": 2029,
  "status": {
    "confirmed": true,
    "block_height": 834464,
    "block_hash": "0000000000000000000177a0869a911a2b65c9bdcd5a8bcb02b68f305bee848e",
    "block_time": 1710308296
  },
  "hex": "02000000000101f42cf49d236b2de2cf1dfc5135b28c4e57df8eb857796b8ac204492a51b53bb15f00000000fffffffd012202000000000000160014ce0b5aa0dac72397a8aa5a85d90a2cfb46f0f63003401eeab1fa17392b0060978c449d82e730d25ff112ff72d36e92dd8dc6cc22c33c5d682f1e3c5378f8e9bf65f5aa833ddf772dacd5c747a10828063bb7241901c56e200a25f3b9c215c1e4488cf6e6c07c914df82a6ff3814103c0d9d6a4edc150c2d2ac0063036f726401010a746578742f706c61696e00367b2270223a226272632d3230222c226f70223a226d696e74222c227469636b223a2261616161222c22616d74223a223130303030227d6821c00a25f3b9c215c1e4488cf6e6c07c914df82a6ff3814103c0d9d6a4edc150c2d200000000"
}