{
  "txid": "7f91eec3b26934d7add813437122aeea8bbd34f6003ec520544db0a655a2490b",
  "version": 2,
  "locktime": 0,
  "vin": [
    {
      "txid": "73703875ee92133875010bd525b85bf7213d9ce691e4bee32bdb09fc7c26a104",
      "vout": 0,
      "prevout": {
        "scriptpubkey": "0014ac38c76139de4306db69b02a8a15b6cbbe3bc8e0",
        "scriptpubkey_asm": "OP_0 OP_PUSHBYTES_20 ac38c76139de4306db69b02a8a15b6cbbe3bc8e0",
        "scriptpubkey_type": "v0_p2wpkh",
        "scriptpubkey_address": "bc1q4suvwcfemepsdkmfkq4g59dkewlrhj8qrsrsdf",
        "value": 400100
      },
      "scriptsig": "",
      "scriptsig_asm": "",
      "witness": [
        "3045022100cdb381430acf9dee0fbabf4aa852922d60e0e55f4a739a8e78a9188af235bfbd022044a754a385dba35a2621f9c1bcba89da4ab42fe4c9ca8481819f147eb583e7eb01",
        "02a1a1e02c3c81d907ce0738804106781caafd57b27faa1ebcbe043ff33dce6b39"
      ],
      "is_coinbase": false,
      "sequence": 4294967295
    }
  ],
  "vout": [
    {
      "scriptpubkey": "a914183bd4c542eba51fc1d37d7c7c31949ef76a6be487",
      "scriptpubkey_asm": "OP_HASH160 OP_PUSHBYTES_20 183bd4c542eba51fc1d37d7c7c31949ef76a6be4 OP_EQUAL",
      "scriptpubkey_type": "p2sh",
      "scriptpubkey_address": "33u9pHeV2Fda7BnWtEARCeCfGM1ohiPE9K",
      "value": 397947
    }
  ],
  "size": 193,
  "weight": 442,
  "fee": 2153,
  "status": {
    "confirmed": true,
    "block_height": 834638,
    "block_hash": "000000000000000000025f742c626208ac87e0b7d15054abb4a19ca2d735a54e",
    "block_time": 1710405325
  },
  "hex": "0200000000010104a1267cfc09db2be3bee491e69c3d21f75bb825d50b0175381392ee753870730000000000ffffffff017b1206000000000017a914183bd4c542eba51fc1d37d7c7c31949ef76a6be48702483045022100cdb381430acf9dee0fbabf4aa852922d60e0e55f4a739a8e78a9188af235bfbd022044a754a385dba35a2621f9c1bcba89da4ab42fe4c9ca8481819f147eb583e7eb012102a1a1e02c3c81d907ce0738804106781caafd57b27faa1ebcbe043ff33dce6b3900000000"
}