{
  "txid": "7f9bc724ff18d6838b0b1a9edf2f3c389039813dba2ea749970889a4777130b4",
  "version": 2,
  "locktime": 0,
  "vin": [
    {
      "txid": "a74676eb6e0c28ed218da8576ef0f988cba38beaa765801250630fad1a84afeb",
      "vout": 1,
      "prevout": {
        "scriptpubkey": "76a91495b84707abbc7f06a16df0e4c2b13b002e0b945788ac",
        "scriptpubkey_asm": "OP_DUP OP_HASH160 OP_PUSHBYTES_20 95b84707abbc7f06a16df0e4c2b13b002e0b9457 OP_EQUALVERIFY OP_CHECKSIG",
        "scriptpubkey_type": "p2pkh",
        "scriptpubkey_address": "1EeeSQW1UVN6MxPpgrYTLppn88JUjwFRJ2",
        "value": 151964
      },
      "scriptsig": "473044022049261dc369da0748ce60e9d060462ca56f2646b6061a76c0c2b4159a72e5b3810220106c2fbaf40ad3453376c8583239408ef4df1214ea9559b36ea0f1c1a87fbf42012103f5554799c3e713e9aff9e4b4aff54dd102c206669248a611afcbd0bf31600e09",
      "scriptsig_asm": "OP_PUSHBYTES_71 3044022049261dc369da0748ce60e9d060462ca56f2646b6061a76c0c2b4159a72e5b3810220106c2fbaf40ad3453376c8583239408ef4df1214ea9559b36ea0f1c1a87fbf4201 OP_PUSHBYTES_33 03f5554799c3e713e9aff9e4b4aff54dd102c206669248a611afcbd0bf31600e09",
      "is_coinbase": false,
      "sequence": 4294967295
    }
  ],
  "vout": [
    {
      "scriptpubkey": "a914b3a2e01047e9161703143bdcf2e4c4a0178e49ab87",
      "scriptpubkey_asm": "OP_HASH160 OP_PUSHBYTES_20 b3a2e01047e9161703143bdcf2e4c4a0178e49ab OP_EQUAL",
      "scriptpubkey_type": "p2sh",
      "scriptpubkey_address": "3J4qzemmbVWBkYb3g9YupMJi6UdtXPfv4W",
      "value": 136229
    },
    {
      "scriptpubkey": "76a914df2bfa4afa982ab9018c1a3a7bdc072d9afa79b188ac",
      "scriptpubkey_asm": "OP_DUP OP_HASH160 OP_PUSHBYTES_20 df2bfa4afa982ab9018c1a3a7bdc072d9afa79b1 OP_EQUALVERIFY OP_CHECKSIG",
      "scriptpubkey_type": "p2pkh",
      "scriptpubkey_address": "1MM2NQN3Gp58fhwuS7wxudr93gwjW9ZzdC",
      "value": 7286
    }
  ],
  "size": 223,
  "weight": 892,
  "fee": 8449,
  "status": {
    "confirmed": true,
    "block_height": 834638,
    "block_hash": "000000000000000000025f742c626208ac87e0b7d15054abb4a19ca2d735a54e",
    "block_time": 1710405325
  },
  "hex": "0200000001ebaf841aad0f6350128065a7ea8ba3cb88f9f06e57a88d21ed280c6eeb7646a7010000006a473044022049261dc369da0748ce60e9d060462ca56f2646b6061a76c0c2b4159a72e5b3810220106c2fbaf40ad3453376c8583239408ef4df1214ea9559b36ea0f1c1a87fbf42012103f5554799c3e713e9aff9e4b4aff54dd102c206669248a611afcbd0bf31600e09ffffffff02251402000000000017a914b3a2e01047e9161703143bdcf2e4c4a0178e49ab87761c0000000000001976a914df2bfa4afa982ab9018c1a3a7bdc072d9afa79b188ac00000000"
}