{
  "txid": "7faf7c5a99b19c25e6169c3c30ee3cfc779b4aca265d2b38cbaa632543ed7c70",
  "version": 2,
  "locktime": 0,
  "vin": [
    {
      "txid": "5cf5838ec1a20f69603899696bd1c6cbe051cea9f65c7c39518f6eebb0932a49",
      "vout": 18,
      "prevout": {
        "scriptpubkey": "5120f4bd7834a1be36ee7989ec6c59a15320cfc6f6d119c68c41ca162983f405ea5d",
        "scriptpubkey_asm": "OP_PUSHNUM_1 OP_PUSHBYTES_32 f4bd7834a1be36ee7989ec6c59a15320cfc6f6d119c68c41ca162983f405ea5d",
        "scriptpubkey_type": "v1_p2tr",
        "scriptpubkey_address": "bc1p7j7hsd9phcmwu7vfa3k9ng2nyr8udak3r8rgcsw2zc5c8aq9afws57snkv",
        "value": 1099549
      },
      "scriptsig": "",
      "scriptsig_asm": "",
      "witness": [
        "024cb16ef1810e8c7d1da1376bf1e591b1d04035af9315ff5a68bf27b0437fefe5c325401517a2796938992d1b91151f30e1e89d7aaabbbb9d207b4740c6d011",
        "2029906f2d3932907433b1c0d930d0c2e2f3db08ec2433732237ccd70c206644f9ac",
        "c029906f2d3932907433b1c0d930d0c2e2f3db08ec2433732237ccd70c206644f9"
      ],
      "is_coinbase": false,
      "sequence": 4294967293
    },
    {
      "txid": "a9ddefc99c0d67f04f91379bf04df0a8e77e9fb79926dbc2616ef6e96e720561",
      "vout": 50,
      "prevout": {
        "scriptpubkey": "5120f4bd7834a1be36ee7989ec6c59a15320cfc6f6d119c68c41ca162983f405ea5d",
        "scriptpubkey_asm": "OP_PUSHNUM_1 OP_PUSHBYTES_32 f4bd7834a1be36ee7989ec6c59a15320cfc6f6d119c68c41ca162983f405ea5d",
        "scriptpubkey_type": "v1_p2tr",
        "scriptpubkey_address": "bc1p7j7hsd9phcmwu7vfa3k9ng2nyr8udak3r8rgcsw2zc5c8aq9afws57snkv",
        "value": 900451
      },
      "scriptsig": "",
      "scriptsig_asm": "",
      "witness": [
        "829d10174c6a02ecd50c798d8d2694c769a2ab5a565ff7d8a64714a36a9710440dd39a27a79851b955e318aaa02bce748dfda22dfb11f7f2d7d97296823c47e1",
        "2029906f2d3932907433b1c0d930d0c2e2f3db08ec2433732237ccd70c206644f9ac",
        "c029906f2d3932907433b1c0d930d0c2e2f3db08ec2433732237ccd70c206644f9"
      ],
      "is_coinbase": false,
      "sequence": 4294967293
    }
  ],
  "vout": [
    {
      "scriptpubkey": "51207511a2c988a2eeb3a394adf81be28d99803955a9c6e6cc37d2ad88913b3b851e",
      "scriptpubkey_asm": "OP_PUSHNUM_1 OP_PUSHBYTES_32 7511a2c988a2eeb3a394adf81be28d99803955a9c6e6cc37d2ad88913b3b851e",
      "scriptpubkey_type": "v1_p2tr",
      "scriptpubkey_address": "bc1pw5g69jvg5tht8gu54huphc5dnxqrj4dfcmnvcd7j4kyfzwems50qul0rgl",
      "value": 1711
    },
    {
      "scriptpubkey": "51207511a2c988a2eeb3a394adf81be28d99803955a9c6e6cc37d2ad88913b3b851e",
      "scriptpubkey_asm": "OP_PUSHNUM_1 OP_PUSHBYTES_32 7511a2c988a2eeb3a394adf81be28d99803955a9c6e6cc37d2ad88913b3b851e",
      "scriptpubkey_type": "v1_p2tr",
      "scriptpubkey_address": "bc1pw5g69jvg5tht8gu54huphc5dnxqrj4dfcmnvcd7j4kyfzwems50qul0rgl",
      "value": 1711
    },
    {
      "scriptpubkey": "51207511a2c988a2eeb3a394adf81be28d99803955a9c6e6cc37d2ad88913b3b851e",
      "scriptpubkey_asm": "OP_PUSHNUM_1 OP_PUSHBYTES_32 7511a2c988a2eeb3a394adf81be28d99803955a9c6e6cc37d2ad88913b3b851e",
      "scriptpubkey_type": "v1_p2tr",
      "scriptpubkey_address": "bc1pw5g69jvg5tht8gu54huphc5dnxqrj4dfcmnvcd7j4kyfzwems50qul0rgl",
      "value": 1711
    },
    {
      "scriptpubkey": "51207511a2c988a2eeb3a394adf81be28d99803955a9c6e6cc37d2ad88913b3b851e",
      "scriptpubkey_asm": "OP_PUSHNUM_1 OP_PUSHBYTES_32 7511a2c988a2eeb3a394adf81be28d99803955a9c6e6cc37d2ad88913b3b851e",
      "scriptpubkey_type": "v1_p2tr",
      "scriptpubkey_address": "bc1pw5g69jvg5tht8gu54huphc5dnxqrj4dfcmnvcd7j4kyfzwems50qul0rgl",
      "value": 1711
    },
    {
      "scriptpubkey": "51207511a2c988a2eeb3a394adf81be28d99803955a9c6e6cc37d2ad88913b3b851e",
      "scriptpubkey_asm": "OP_PUSHNUM_1 OP_PUSHBYTES_32 7511a2c988a2eeb3a394adf81be28d99803955a9c6e6cc37d2ad88913b3b851e",
      "scriptpubkey_type": "v1_p2tr",
      "scriptpubkey_address": "bc1pw5g69jvg5tht8gu54huphc5dnxqrj4dfcmnvcd7j4kyfzwems50qul0rgl",
      "value": 1711
    },
    {
      "scriptpubkey": "51207511a2c988a2eeb3a394adf81be28d99803955a9c6e6cc37d2ad88913b3b851e",
      "scriptpubkey_asm": "OP_PUSHNUM_1 OP_PUSHBYTES_32 7511a2c988a2eeb3a394adf81be28d99803955a9c6e6cc37d2ad88913b3b851e",
      "scriptpubkey_type": "v1_p2tr",
      "scriptpubkey_address": "bc1pw5g69jvg5tht8gu54huphc5dnxqrj4dfcmnvcd7j4kyfzwems50qul0rgl",
      "value": 1711
    },
    {
      "scriptpubkey": "51207511a2c988a2eeb3a394adf81be28d99803955a9c6e6cc37d2ad88913b3b851e",
      "scriptpubkey_asm": "OP_PUSHNUM_1 OP_PUSHBYTES_32 7511a2c988a2eeb3a394adf81be28d99803955a9c6e6cc37d2ad88913b3b851e",
      "scriptpubkey_type": "v1_p2tr",
      "scriptpubkey_address": "bc1pw5g69jvg5tht8gu54huphc5dnxqrj4dfcmnvcd7j4kyfzwems50qul0rgl",
      "value": 1711
    },
    {
      "scriptpubkey": "51207511a2c988a2eeb3a394adf81be28d99803955a9c6e6cc37d2ad88913b3b851e",
      "scriptpubkey_asm": "OP_PUSHNUM_1 OP_PUSHBYTES_32 7511a2c988a2eeb3a394adf81be28d99803955a9c6e6cc37d2ad88913b3b851e",
      "scriptpubkey_type": "v1_p2tr",
      "scriptpubkey_address": "bc1pw5g69jvg5tht8gu54huphc5dnxqrj4dfcmnvcd7j4kyfzwems50qul0rgl",
      "value": 1711
    },
    {
      "scriptpubkey": "51207511a2c988a2eeb3a394adf81be28d99803955a9c6e6cc37d2ad88913b3b851e",
      "scriptpubkey_asm": "OP_PUSHNUM_1 OP_PUSHBYTES_32 7511a2c988a2eeb3a394adf81be28d99803955a9c6e6cc37d2ad88913b3b851e",
      "scriptpubkey_type": "v1_p2tr",
      "scriptpubkey_address": "bc1pw5g69jvg5tht8gu54huphc5dnxqrj4dfcmnvcd7j4kyfzwems50qul0rgl",
      "value": 1711
    },
    {
      "scriptpubkey": "51207511a2c988a2eeb3a394adf81be28d99803955a9c6e6cc37d2ad88913b3b851e",
      "scriptpubkey_asm": "OP_PUSHNUM_1 OP_PUSHBYTES_32 7511a2c988a2eeb3a394adf81be28d99803955a9c6e6cc37d2ad88913b3b851e",
      "scriptpubkey_type": "v1_p2tr",
      "scriptpubkey_address": "bc1pw5g69jvg5tht8gu54huphc5dnxqrj4dfcmnvcd7j4kyfzwems50qul0rgl",
      "value": 1711
    },
    {
      "scriptpubkey": "51207511a2c988a2eeb3a394adf81be28d99803955a9c6e6cc37d2ad88913b3b851e",
      "scriptpubkey_asm": "OP_PUSHNUM_1 OP_PUSHBYTES_32 7511a2c988a2eeb3a394adf81be28d99803955a9c6e6cc37d2ad88913b3b851e",
      "scriptpubkey_type": "v1_p2tr",
      "scriptpubkey_address": "bc1pw5g69jvg5tht8gu54huphc5dnxqrj4dfcmnvcd7j4kyfzwems50qul0rgl",
      "value": 1711
    },
    {
      "scriptpubkey": "51207511a2c988a2eeb3a394adf81be28d99803955a9c6e6cc37d2ad88913b3b851e",
      "scriptpubkey_asm": "OP_PUSHNUM_1 OP_PUSHBYTES_32 7511a2c988a2eeb3a394adf81be28d99803955a9c6e6cc37d2ad88913b3b851e",
      "scriptpubkey_type": "v1_p2tr",
      "scriptpubkey_address": "bc1pw5g69jvg5tht8gu54huphc5dnxqrj4dfcmnvcd7j4kyfzwems50qul0rgl",
      "value": 1711
    },
    {
      "scriptpubkey": "51207511a2c988a2eeb3a394adf81be28d99803955a9c6e6cc37d2ad88913b3b851e",
      "scriptpubkey_asm": "OP_PUSHNUM_1 OP_PUSHBYTES_32 7511a2c988a2eeb3a394adf81be28d99803955a9c6e6cc37d2ad88913b3b851e",
      "scriptpubkey_type": "v1_p2tr",
      "scriptpubkey_address": "bc1pw5g69jvg5tht8gu54huphc5dnxqrj4dfcmnvcd7j4kyfzwems50qul0rgl",
      "value": 1711
    },
    {
      "scriptpubkey": "51207511a2c988a2eeb3a394adf81be28d99803955a9c6e6cc37d2ad88913b3b851e",
      "scriptpubkey_asm": "OP_PUSHNUM_1 OP_PUSHBYTES_32 7511a2c988a2eeb3a394adf81be28d99803955a9c6e6cc37d2ad88913b3b851e",
      "scriptpubkey_type": "v1_p2tr",
      "scriptpubkey_address": "bc1pw5g69jvg5tht8gu54huphc5dnxqrj4dfcmnvcd7j4kyfzwems50qul0rgl",
      "value": 1711
    },
    {
      "scriptpubkey": "51207511a2c988a2eeb3a394adf81be28d99803955a9c6e6cc37d2ad88913b3b851e",
      "scriptpubkey_asm": "OP_PUSHNUM_1 OP_PUSHBYTES_32 7511a2c988a2eeb3a394adf81be28d99803955a9c6e6cc37d2ad88913b3b851e",
      "scriptpubkey_type": "v1_p2tr",
      "scriptpubkey_address": "bc1pw5g69jvg5tht8gu54huphc5dnxqrj4dfcmnvcd7j4kyfzwems50qul0rgl",
      "value": 1711
    },
    {
      "scriptpubkey": "51207511a2c988a2eeb3a394adf81be28d99803955a9c6e6cc37d2ad88913b3b851e",
      "scriptpubkey_asm": "OP_PUSHNUM_1 OP_PUSHBYTES_32 7511a2c988a2eeb3a394adf81be28d99803955a9c6e6cc37d2ad88913b3b851e",
      "scriptpubkey_type": "v1_p2tr",
      "scriptpubkey_address": "bc1pw5g69jvg5tht8gu54huphc5dnxqrj4dfcmnvcd7j4kyfzwems50qul0rgl",
      "value": 1711
    },
    {
      "scriptpubkey": "51207511a2c988a2eeb3a394adf81be28d99803955a9c6e6cc37d2ad88913b3b851e",
      "scriptpubkey_asm": "OP_PUSHNUM_1 OP_PUSHBYTES_32 7511a2c988a2eeb3a394adf81be28d99803955a9c6e6cc37d2ad88913b3b851e",
      "scriptpubkey_type": "v1_p2tr",
      "scriptpubkey_address": "bc1pw5g69jvg5tht8gu54huphc5dnxqrj4dfcmnvcd7j4kyfzwems50qul0rgl",
      "value": 1711
    },
    {
      "scriptpubkey": "51207511a2c988a2eeb3a394adf81be28d99803955a9c6e6cc37d2ad88913b3b851e",
      "scriptpubkey_asm": "OP_PUSHNUM_1 OP_PUSHBYTES_32 7511a2c988a2eeb3a394adf81be28d99803955a9c6e6cc37d2ad88913b3b851e",
      "scriptpubkey_type": "v1_p2tr",
      "scriptpubkey_address": "bc1pw5g69jvg5tht8gu54huphc5dnxqrj4dfcmnvcd7j4kyfzwems50qul0rgl",
      "value": 1711
    },
    {
      "scriptpubkey": "51207511a2c988a2eeb3a394adf81be28d99803955a9c6e6cc37d2ad88913b3b851e",
      "scriptpubkey_asm": "OP_PUSHNUM_1 OP_PUSHBYTES_32 7511a2c988a2eeb3a394adf81be28d99803955a9c6e6cc37d2ad88913b3b851e",
      "scriptpubkey_type": "v1_p2tr",
      "scriptpubkey_address": "bc1pw5g69jvg5tht8gu54huphc5dnxqrj4dfcmnvcd7j4kyfzwems50qul0rgl",
      "value": 1711
    },
    {
      "scriptpubkey": "51207511a2c988a2eeb3a394adf81be28d99803955a9c6e6cc37d2ad88913b3b851e",
      "scriptpubkey_asm": "OP_PUSHNUM_1 OP_PUSHBYTES_32 7511a2c988a2eeb3a394adf81be28d99803955a9c6e6cc37d2ad88913b3b851e",
      "scriptpubkey_type": "v1_p2tr",
      "scriptpubkey_address": "bc1pw5g69jvg5tht8gu54huphc5dnxqrj4dfcmnvcd7j4kyfzwems50qul0rgl",
      "value": 1711
    },
    {
      "scriptpubkey": "51207511a2c988a2eeb3a394adf81be28d99803955a9c6e6cc37d2ad88913b3b851e",
      "scriptpubkey_asm": "OP_PUSHNUM_1 OP_PUSHBYTES_32 7511a2c988a2eeb3a394adf81be28d99803955a9c6e6cc37d2ad88913b3b851e",
      "scriptpubkey_type": "v1_p2tr",
      "scriptpubkey_address": "bc1pw5g69jvg5tht8gu54huphc5dnxqrj4dfcmnvcd7j4kyfzwems50qul0rgl",
      "value": 1711
    },
    {
      "scriptpubkey": "51207511a2c988a2eeb3a394adf81be28d99803955a9c6e6cc37d2ad88913b3b851e",
      "scriptpubkey_asm": "OP_PUSHNUM_1 OP_PUSHBYTES_32 7511a2c988a2eeb3a394adf81be28d99803955a9c6e6cc37d2ad88913b3b851e",
      "scriptpubkey_type": "v1_p2tr",
      "scriptpubkey_address": "bc1pw5g69jvg5tht8gu54huphc5dnxqrj4dfcmnvcd7j4kyfzwems50qul0rgl",
      "value": 1711
    },
    {
      "scriptpubkey": "51207511a2c988a2eeb3a394adf81be28d99803955a9c6e6cc37d2ad88913b3b851e",
      "scriptpubkey_asm": "OP_PUSHNUM_1 OP_PUSHBYTES_32 7511a2c988a2eeb3a394adf81be28d99803955a9c6e6cc37d2ad88913b3b851e",
      "scriptpubkey_type": "v1_p2tr",
      "scriptpubkey_address": "bc1pw5g69jvg5tht8gu54huphc5dnxqrj4dfcmnvcd7j4kyfzwems50qul0rgl",
      "value": 1711
    },
    {
      "scriptpubkey": "51207511a2c988a2eeb3a394adf81be28d99803955a9c6e6cc37d2ad88913b3b851e",
      "scriptpubkey_asm": "OP_PUSHNUM_1 OP_PUSHBYTES_32 7511a2c988a2eeb3a394adf81be28d99803955a9c6e6cc37d2ad88913b3b851e",
      "scriptpubkey_type": "v1_p2tr",
      "scriptpubkey_address": "bc1pw5g69jvg5tht8gu54huphc5dnxqrj4dfcmnvcd7j4kyfzwems50qul0rgl",
      "value": 1711
    },
    {
      "scriptpubkey": "51207511a2c988a2eeb3a394adf81be28d99803955a9c6e6cc37d2ad88913b3b851e",
      "scriptpubkey_asm": "OP_PUSHNUM_1 OP_PUSHBYTES_32 7511a2c988a2eeb3a394adf81be28d99803955a9c6e6cc37d2ad88913b3b851e",
      "scriptpubkey_type": "v1_p2tr",
      "scriptpubkey_address": "bc1pw5g69jvg5tht8gu54huphc5dnxqrj4dfcmnvcd7j4kyfzwems50qul0rgl",
      "value": 1711
    },
    {
      "scriptpubkey": "5120f4bd7834a1be36ee7989ec6c59a15320cfc6f6d119c68c41ca162983f405ea5d",
      "scriptpubkey_asm": "OP_PUSHNUM_1 OP_PUSHBYTES_32 f4bd7834a1be36ee7989ec6c59a15320cfc6f6d119c68c41ca162983f405ea5d",
      "scriptpubkey_type": "v1_p2tr",
      "scriptpubkey_address": "bc1p7j7hsd9phcmwu7vfa3k9ng2nyr8udak3r8rgcsw2zc5c8aq9afws57snkv",
      "value": 1940994
    }
  ],
  "size": 1482,
  "weight": 5112,
  "fee": 16231,
  "status": {
    "confirmed": true,
    "block_height": 834460,
    "block_hash": "00000000000000000000484a79b643b2524bbce82e5d8a442013fa5b8905ed98",
    "block_time": 1710307468
  },
  "hex": "02000000000102492a93b0eb6e8f51397c5cf6a9ce51e0cbc6d16b69993860690fa2c18e83f55c1200000000fdffffff6105726ee9f66e61c2db2699b79f7ee7a8f04df09b37914ff0670d9cc9efdda93200000000fdffffff1aaf060000000000002251207511a2c988a2eeb3a394adf81be28d99803955a9c6e6cc37d2ad88913b3b851eaf060000000000002251207511a2c988a2eeb3a394adf81be28d99803955a9c6e6cc37d2ad88913b3b851eaf060000000000002251207511a2c988a2eeb3a394adf81be28d99803955a9c6e6cc37d2ad88913b3b851eaf060000000000002251207511a2c988a2eeb3a394adf81be28d99803955a9c6e6cc37d2ad88913b3b851eaf060000000000002251207511a2c988a2eeb3a394adf81be28d99803955a9c6e6cc37d2ad88913b3b851eaf060000000000002251207511a2c988a2eeb3a394adf81be28d99803955a9c6e6cc37d2ad88913b3b851eaf060000000000002251207511a2c988a2eeb3a394adf81be28d99803955a9c6e6cc37d2ad88913b3b851eaf060000000000002251207511a2c988a2eeb3a394adf81be28d99803955a9c6e6cc37d2ad88913b3b851eaf060000000000002251207511a2c988a2eeb3a394adf81be28d99803955a9c6e6cc37d2ad88913b3b851eaf060000000000002251207511a2c988a2eeb3a394adf81be28d99803955a9c6e6cc37d2ad88913b3b851eaf060000000000002251207511a2c988a2eeb3a394adf81be28d99803955a9c6e6cc37d2ad88913b3b851eaf060000000000002251207511a2c988a2eeb3a394adf81be28d99803955a9c6e6cc37d2ad88913b3b851eaf060000000000002251207511a2c988a2eeb3a394adf81be28d99803955a9c6e6cc37d2ad88913b3b851eaf060000000000002251207511a2c988a2eeb3a394adf81be28d99803955a9c6e6cc37d2ad88913b3b851eaf060000000000002251207511a2c988a2eeb3a394adf81be28d99803955a9c6e6cc37d2ad88913b3b851eaf060000000000002251207511a2c988a2eeb3a394adf81be28d99803955a9c6e6cc37d2ad88913b3b851eaf060000000000002251207511a2c988a2eeb3a394adf81be28d99803955a9c6e6cc37d2ad88913b3b851eaf060000000000002251207511a2c988a2eeb3a394adf81be28d99803955a9c6e6cc37d2ad88913b3b851eaf060000000000002251207511a2c988a2eeb3a394adf81be28d99803955a9c6e6cc37d2ad88913b3b851eaf060000000000002251207511a2c988a2eeb3a394adf81be28d99803955a9c6e6cc37d2ad88913b3b851eaf060000000000002251207511a2c988a2eeb3a394adf81be28d99803955a9c6e6cc37d2ad88913b3b851eaf060000000000002251207511a2c988a2eeb3a394adf81be28d99803955a9c6e6cc37d2ad88913b3b851eaf060000000000002251207511a2c988a2eeb3a394adf81be28d99803955a9c6e6cc37d2ad88913b3b851eaf060000000000002251207511a2c988a2eeb3a394adf81be28d99803955a9c6e6cc37d2ad88913b3b851eaf060000000000002251207511a2c988a2eeb3a394adf81be28d99803955a9c6e6cc37d2ad88913b3b851e029e1d0000000000225120f4bd7834a1be36ee7989ec6c59a15320cfc6f6d119c68c41ca162983f405ea5d0340024cb16ef1810e8c7d1da1376bf1e591b1d04035af9315ff5a68bf27b0437fefe5c325401517a2796938992d1b91151f30e1e89d7aaabbbb9d207b4740c6d011222029906f2d3932907433b1c0d930d0c2e2f3db08ec2433732237ccd70c206644f9ac21c029906f2d3932907433b1c0d930d0c2e2f3db08ec2433732237ccd70c206644f90340829d10174c6a02ecd50c798d8d2694c769a2ab5a565ff7d8a64714a36a9710440dd39a27a79851b955e318aaa02bce748dfda22dfb11f7f2d7d97296823c47e1222029906f2d3932907433b1c0d930d0c2e2f3db08ec2433732237ccd70c206644f9ac21c029906f2d3932907433b1c0d930d0c2e2f3db08ec2433732237ccd70c206644f900000000"
}