{
  "txid": "7fbd9853cdbde7cb5e11eafc0597b1cab3a895a39a05fc9c5b5981a0122bc144",
  "version": 2,
  "locktime": 834637,
  "vin": [
    {
      "txid": "5d6628d684f9038cfacd56ffff298c81b31348b1615377c36052cf2d6db3f377",
      "vout": 1,
      "prevout": {
        "scriptpubkey": "0014bbbee8fb676892855a0b9b57fa98817f2553dbd2",
        "scriptpubkey_asm": "OP_0 OP_PUSHBYTES_20 bbbee8fb676892855a0b9b57fa98817f2553dbd2",
        "scriptpubkey_type": "v0_p2wpkh",
        "scriptpubkey_address": "bc1qhwlw37m8dzfg2kstndtl4xyp0uj48k7jypq5ur",
        "value": 269023082
      },
      "scriptsig": "",
      "scriptsig_asm": "",
      "witness": [
        "3044022054e3f5893a6cf1740fa8979892f321c44716eaa493ef03d3d3cb7a18f575d45b022042a1f742b12ddcde9ab403c86581fbb13ee2924f87a4ebe7a4f751ec44944c2701",
        "03a35ad0a9baa2ee694cb2d3992f501bc94f037125ac49d2298f65c0d12880861c"
      ],
      "is_coinbase": false,
      "sequence": 4294967294
    }
  ],
  "vout": [
    {
      "scriptpubkey": "00148442d32a68e255d56930fd9ec0be7d6adf8ef651",
      "scriptpubkey_asm": "OP_0 OP_PUSHBYTES_20 8442d32a68e255d56930fd9ec0be7d6adf8ef651",
      "scriptpubkey_type": "v0_p2wpkh",
      "scriptpubkey_address": "bc1qs3pdx2nguf2a26fslk0vp0nadt0caaj3n0thyf",
      "value": 1100600
    },
    {
      "scriptpubkey": "00143385a8a758559a4a10af9dbf0c5f55d49cde683e",
      "scriptpubkey_asm": "OP_0 OP_PUSHBYTES_20 3385a8a758559a4a10af9dbf0c5f55d49cde683e",
      "scriptpubkey_type": "v0_p2wpkh",
      "scriptpubkey_address": "bc1qxwz63f6c2kdy5y90nklsch646jwdu6p7uu30eg",
      "value": 267919026
    }
  ],
  "size": 222,
  "weight": 561,
  "fee": 3456,
  "status": {
    "confirmed": true,
    "block_height": 834638,
    "block_hash": "000000000000000000025f742c626208ac87e0b7d15054abb4a19ca2d735a54e",
    "block_time": 1710405325
  },
  "hex": "0200000000010177f3b36d2dcf5260c3775361b14813b3818c29ffff56cdfa8c03f984d628665d0100000000feffffff0238cb1000000000001600148442d32a68e255d56930fd9ec0be7d6adf8ef651b21ef80f000000001600143385a8a758559a4a10af9dbf0c5f55d49cde683e02473044022054e3f5893a6cf1740fa8979892f321c44716eaa493ef03d3d3cb7a18f575d45b022042a1f742b12ddcde9ab403c86581fbb13ee2924f87a4ebe7a4f751ec44944c27012103a35ad0a9baa2ee694cb2d3992f501bc94f037125ac49d2298f65c0d12880861c4dbc0c00"
}