{
  "txid": "7fd985706e29c97769bd5389f3d4e33af7cb37fc061418a372a17d5a4dfddcc5",
  "version": 2,
  "locktime": 0,
  "vin": [
    {
      "txid": "3bbd899e8cfefe6258af804a5246210f1936ddbcf529b0e636a7f649335dc0c8",
      "vout": 3,
      "prevout": {
        "scriptpubkey": "0014bba8257b4fd7dfd63284f052ce76ea67c9c4430f",
        "scriptpubkey_asm": "OP_0 OP_PUSHBYTES_20 bba8257b4fd7dfd63284f052ce76ea67c9c4430f",
        "scriptpubkey_type": "v0_p2wpkh",
        "scriptpubkey_address": "bc1qhw5z27606l0avv5y7pfvuah2vlyugsc0njdyaf",
        "value": 547
      },
      "scriptsig": "",
      "scriptsig_asm": "",
      "witness": [
        "304402207bf5a41612b5dbf8e36125b43e9a45f3224b2c79a0ad278fff381f941262c8f2022078be42f3eebb4937fa5464851204b12058b4e540a6168035cbeb6946aa12c12e81",
        "021096ceca25782ed22b425c9f3177b1e624c713e0f0111e00a54f9a8b185b1c7b"
      ],
      "is_coinbase": false,
      "sequence": 4294967293
    },
    {
      "txid": "1b3ed3f93d0291d0222c1bf9d7026882f9a122443dd9afa876c99a34d3aee79d",
      "vout": 1,
      "prevout": {
        "scriptpubkey": "001410d3b14fee0d889826c7a7e63d69f211eb01c180",
        "scriptpubkey_asm": "OP_0 OP_PUSHBYTES_20 10d3b14fee0d889826c7a7e63d69f211eb01c180",
        "scriptpubkey_type": "v0_p2wpkh",
        "scriptpubkey_address": "bc1qzrfmznlwpkyfsfk85lnr660jz84srsvqyt9jms",
        "value": 605814
      },
      "scriptsig": "",
      "scriptsig_asm": "",
      "witness": [
        "3045022100e83400a332ac2059e22071f00046a3906903c39da4f55bd058f6407e5cffb2990220799aef1b77b87ce12e021a32a65f992ecccf20552bf30b6286ef446aa4f6fe3901",
        "020ed94d142cc261d0bce13ee2662213512f7e6a172bd0ba635ffbdbcee73127c8"
      ],
      "is_coinbase": false,
      "sequence": 4294967293
    }
  ],
  "vout": [
    {
      "scriptpubkey": "001408ac2db42a70b2fea07a556b42c9c5827820752f",
      "scriptpubkey_asm": "OP_0 OP_PUSHBYTES_20 08ac2db42a70b2fea07a556b42c9c5827820752f",
      "scriptpubkey_type": "v0_p2wpkh",
      "scriptpubkey_address": "bc1qpzkzmdp2wze0agr624459jw9sfuzqaf0xhf44r",
      "value": 591600
    },
    {
      "scriptpubkey": "512102b155083b6d4039857d29c800fd78fe2980913e1213935020c6bc2b9394b81f6d21021cc7721a268825fdfa298f40a811daacd5847cb5ff455bc285f5fa371197df512102222222222222222222222222222222222222222222222222222222222222222253ae",
      "scriptpubkey_asm": "OP_PUSHNUM_1 OP_PUSHBYTES_33 02b155083b6d4039857d29c800fd78fe2980913e1213935020c6bc2b9394b81f6d OP_PUSHBYTES_33 021cc7721a268825fdfa298f40a811daacd5847cb5ff455bc285f5fa371197df51 OP_PUSHBYTES_33 022222222222222222222222222222222222222222222222222222222222222222 OP_PUSHNUM_3 OP_CHECKMULTISIG",
      "scriptpubkey_type": "unknown",
      "value": 796
    },
    {
      "scriptpubkey": "5121027c85b28d21b56a08625f8cf6907b87bc9388ab809ddde70c20e958c7d92f27842102c050a5d16aee64c464ff943652aeccbd43598a1e4ee42d6db8b3a99a77e64a7c2102222222222222222222222222222222222222222222222222222222222222222253ae",
      "scriptpubkey_asm": "OP_PUSHNUM_1 OP_PUSHBYTES_33 027c85b28d21b56a08625f8cf6907b87bc9388ab809ddde70c20e958c7d92f2784 OP_PUSHBYTES_33 02c050a5d16aee64c464ff943652aeccbd43598a1e4ee42d6db8b3a99a77e64a7c OP_PUSHBYTES_33 022222222222222222222222222222222222222222222222222222222222222222 OP_PUSHNUM_3 OP_CHECKMULTISIG",
      "scriptpubkey_type": "unknown",
      "value": 796
    },
    {
      "scriptpubkey": "0014bba8257b4fd7dfd63284f052ce76ea67c9c4430f",
      "scriptpubkey_asm": "OP_0 OP_PUSHBYTES_20 bba8257b4fd7dfd63284f052ce76ea67c9c4430f",
      "scriptpubkey_type": "v0_p2wpkh",
      "scriptpubkey_address": "bc1qhw5z27606l0avv5y7pfvuah2vlyugsc0njdyaf",
      "value": 547
    }
  ],
  "size": 599,
  "weight": 1745,
  "fee": 12622,
  "status": {
    "confirmed": true,
    "block_height": 834638,
    "block_hash": "000000000000000000025f742c626208ac87e0b7d15054abb4a19ca2d735a54e",
    "block_time": 1710405325
  },
  "hex": "02000000000102c8c05d3349f6a736e6b029f5bcdd36190f2146524a80af5862fefe8c9e89bd3b0300000000fdffffff9de7aed3349ac976a8afd93d4422a1f9826802d7f91b2c22d091023df9d33e1b0100000000fdffffff04f00609000000000016001408ac2db42a70b2fea07a556b42c9c5827820752f1c0300000000000069512102b155083b6d4039857d29c800fd78fe2980913e1213935020c6bc2b9394b81f6d21021cc7721a268825fdfa298f40a811daacd5847cb5ff455bc285f5fa371197df512102222222222222222222222222222222222222222222222222222222222222222253ae1c03000000000000695121027c85b28d21b56a08625f8cf6907b87bc9388ab809ddde70c20e958c7d92f27842102c050a5d16aee64c464ff943652aeccbd43598a1e4ee42d6db8b3a99a77e64a7c2102222222222222222222222222222222222222222222222222222222222222222253ae2302000000000000160014bba8257b4fd7dfd63284f052ce76ea67c9c4430f0247304402207bf5a41612b5dbf8e36125b43e9a45f3224b2c79a0ad278fff381f941262c8f2022078be42f3eebb4937fa5464851204b12058b4e540a6168035cbeb6946aa12c12e8121021096ceca25782ed22b425c9f3177b1e624c713e0f0111e00a54f9a8b185b1c7b02483045022100e83400a332ac2059e22071f00046a3906903c39da4f55bd058f6407e5cffb2990220799aef1b77b87ce12e021a32a65f992ecccf20552bf30b6286ef446aa4f6fe390121020ed94d142cc261d0bce13ee2662213512f7e6a172bd0ba635ffbdbcee73127c800000000"
}