{
  "txid": "7fdb1dfbf8cecf5c08f3194f5a9151724a3ee636d23de380bfda4a7b65e732ef",
  "version": 2,
  "locktime": 0,
  "vin": [
    {
      "txid": "659b82bf51c32df260f3e3563d90fcbcb0098209af4d18020ca9e1a619ccc8c8",
      "vout": 21,
      "prevout": {
        "scriptpubkey": "512033b10c8a8206d16d95d5d2d398f344d430e0961683e7b1be096a58829e0de20e",
        "scriptpubkey_asm": "OP_PUSHNUM_1 OP_PUSHBYTES_32 33b10c8a8206d16d95d5d2d398f344d430e0961683e7b1be096a58829e0de20e",
        "scriptpubkey_type": "v1_p2tr",
        "scriptpubkey_address": "bc1pxwcsez5zqmgkm9w46tfe3u6y6scwp9sks0nmr0sfdfvg98sdug8qk9c36c",
        "value": 1931
      },
      "scriptsig": "",
      "scriptsig_asm": "",
      "witness": [
        "218656a23dac1db301c59940c92ab07239a8a8f68c06389c8dbe6549a0a5e73510a4519f60a35a48cb4f5f4c866df1174a484fd332af7787fb26ed99f33e23fe",
        "20e1d554d9773c9b94297a7d9fcf7c8772d7dc41e153b755383aced28583c64fa9ac0063036f726401010a746578742f706c61696e00367b2270223a226272632d3230222c226f70223a226d696e74222c227469636b223a2261616161222c22616d74223a223130303030227d68",
        "c0e1d554d9773c9b94297a7d9fcf7c8772d7dc41e153b755383aced28583c64fa9"
      ],
      "is_coinbase": false,
      "sequence": 4261412863
    }
  ],
  "vout": [
    {
      "scriptpubkey": "0014be9f0c070a9b1bd40f5fcb06fba89738d936ceb6",
      "scriptpubkey_asm": "OP_0 OP_PUSHBYTES_20 be9f0c070a9b1bd40f5fcb06fba89738d936ceb6",
      "scriptpubkey_type": "v0_p2wpkh",
      "scriptpubkey_address": "bc1qh60scpc2nvdagr6levr0h2yh8rvndn4k4v5s9g",
      "value": 294
    }
  ],
  "size": 295,
  "weight": 541,
  "fee": 1637,
  "status": {
    "confirmed": true,
    "block_height": 834460,
    "block_hash": "00000000000000000000484a79b643b2524bbce82e5d8a442013fa5b8905ed98",
    "block_time": 1710307468
  },
  "hex": "02000000000101c8c8cc19a6e1a90c02184daf098209b0bcfc903d56e3f360f22dc351bf829b651500000000fffffffd012601000000000000160014be9f0c070a9b1bd40f5fcb06fba89738d936ceb60340218656a23dac1db301c59940c92ab07239a8a8f68c06389c8dbe6549a0a5e73510a4519f60a35a48cb4f5f4c866df1174a484fd332af7787fb26ed99f33e23fe6e20e1d554d9773c9b94297a7d9fcf7c8772d7dc41e153b755383aced28583c64fa9ac0063036f726401010a746578742f706c61696e00367b2270223a226272632d3230222c226f70223a226d696e74222c227469636b223a2261616161222c22616d74223a223130303030227d6821c0e1d554d9773c9b94297a7d9fcf7c8772d7dc41e153b755383aced28583c64fa900000000"
}