{
  "txid": "7ff7fc9b2dba107764709fe07a2a33767b68afd248548cba9b3761898cda7aff",
  "version": 2,
  "locktime": 0,
  "vin": [
    {
      "txid": "a9a9040ca5a9ecd272021a0240b8c60215f79354a159bef2b68e0d1a3abe5eb7",
      "vout": 0,
      "prevout": {
        "scriptpubkey": "512020a07af22925724faae45e3051d8bdf1698c712f952467f9c85941573850fd0a",
        "scriptpubkey_asm": "OP_PUSHNUM_1 OP_PUSHBYTES_32 20a07af22925724faae45e3051d8bdf1698c712f952467f9c85941573850fd0a",
        "scriptpubkey_type": "v1_p2tr",
        "scriptpubkey_address": "bc1pyzs84u3fy4eyl2hytcc9rk9a795ccuf0j5jx07wgt9q4wwzsl59q8cl59f",
        "value": 472349
      },
      "scriptsig": "",
      "scriptsig_asm": "",
      "witness": [
        "63ea3a46cae79739eb0405395230cbcbd7c0466b76e8f2a98711a6de41f2223f792b0ed5e288b3f08525fc03ae7af526d133379c8578d1bffd1ea16c05d1e04c"
      ],
      "is_coinbase": false,
      "sequence": 4294967295
    }
  ],
  "vout": [
    {
      "scriptpubkey": "51206676dba9400730300fda1b06140e65187d8dc5ebbf7d27321e944437aff289d5",
      "scriptpubkey_asm": "OP_PUSHNUM_1 OP_PUSHBYTES_32 6676dba9400730300fda1b06140e65187d8dc5ebbf7d27321e944437aff289d5",
      "scriptpubkey_type": "v1_p2tr",
      "scriptpubkey_address": "bc1pvemdh22qqucrqr76rvrpgrn9rp7cm30tha7jwvs7j3zr0tlj382stx5sad",
      "value": 15675
    },
    {
      "scriptpubkey": "512020a07af22925724faae45e3051d8bdf1698c712f952467f9c85941573850fd0a",
      "scriptpubkey_asm": "OP_PUSHNUM_1 OP_PUSHBYTES_32 20a07af22925724faae45e3051d8bdf1698c712f952467f9c85941573850fd0a",
      "scriptpubkey_type": "v1_p2tr",
      "scriptpubkey_address": "bc1pyzs84u3fy4eyl2hytcc9rk9a795ccuf0j5jx07wgt9q4wwzsl59q8cl59f",
      "value": 454364
    }
  ],
  "size": 205,
  "weight": 616,
  "fee": 2310,
  "status": {
    "confirmed": true,
    "block_height": 834460,
    "block_hash": "00000000000000000000484a79b643b2524bbce82e5d8a442013fa5b8905ed98",
    "block_time": 1710307468
  },
  "hex": "02000000000101b75ebe3a1a0d8eb6f2be59a15493f71502c6b840021a0272d2eca9a50c04a9a90000000000ffffffff023b3d0000000000002251206676dba9400730300fda1b06140e65187d8dc5ebbf7d27321e944437aff289d5dcee06000000000022512020a07af22925724faae45e3051d8bdf1698c712f952467f9c85941573850fd0a014063ea3a46cae79739eb0405395230cbcbd7c0466b76e8f2a98711a6de41f2223f792b0ed5e288b3f08525fc03ae7af526d133379c8578d1bffd1ea16c05d1e04c00000000"
}