{
  "txid": "8004f2962ed7b8b436bfb922ecd0de64ee6c093cf26a518a9f97b4e248e88a6e",
  "version": 1,
  "locktime": 0,
  "vin": [
    {
      "txid": "017b5f44a8e2841ef6e64ddd8b055a83f3601d5165edf839879116203e7d8dc2",
      "vout": 0,
      "prevout": {
        "scriptpubkey": "0014e0c69857d2b65b3f56185fabeeea7036f8d5b5e6",
        "scriptpubkey_asm": "OP_0 OP_PUSHBYTES_20 e0c69857d2b65b3f56185fabeeea7036f8d5b5e6",
        "scriptpubkey_type": "v0_p2wpkh",
        "scriptpubkey_address": "bc1qurrfs47jkedn74sct747a6nsxmudtd0x5wv8gq",
        "value": 885950
      },
      "scriptsig": "",
      "scriptsig_asm": "",
      "witness": [
        "3045022100db5494d90edac453c2f1f84e400a270823cf0c4c17b8bdc9a09a159e9fa7d992022040eeffbfc7b4dd23acbbcd3170f3139aa4c196f29ff0a654484a4da781ece2ee01",
        "038b2a0a07e249c02612e444c17fcf0734133e3d9bb4fd9d7aec1184482e415bc6"
      ],
      "is_coinbase": false,
      "sequence": 4294967293
    }
  ],
  "vout": [
    {
      "scriptpubkey": "0014324409cb7ec4161cd4334e22e02dec1330e30d3b",
      "scriptpubkey_asm": "OP_0 OP_PUSHBYTES_20 324409cb7ec4161cd4334e22e02dec1330e30d3b",
      "scriptpubkey_type": "v0_p2wpkh",
      "scriptpubkey_address": "bc1qxfzqnjm7cstpe4pnfc3wqt0vzvcwxrfm80lt5s",
      "value": 407522
    },
    {
      "scriptpubkey": "a9144e9839c512faa5c376c1e5563b5d2e9f6be25a1387",
      "scriptpubkey_asm": "OP_HASH160 OP_PUSHBYTES_20 4e9839c512faa5c376c1e5563b5d2e9f6be25a13 OP_EQUAL",
      "scriptpubkey_type": "p2sh",
      "scriptpubkey_address": "38razL9smAk2h1b8cd7Uf6ArU12rX7M8JF",
      "value": 476014
    }
  ],
  "size": 224,
  "weight": 566,
  "fee": 2414,
  "status": {
    "confirmed": true,
    "block_height": 834638,
    "block_hash": "000000000000000000025f742c626208ac87e0b7d15054abb4a19ca2d735a54e",
    "block_time": 1710405325
  },
  "hex": "01000000000101c28d7d3e2016918739f8ed65511d60f3835a058bdd4de6f61e84e2a8445f7b010000000000fdffffff02e237060000000000160014324409cb7ec4161cd4334e22e02dec1330e30d3b6e4307000000000017a9144e9839c512faa5c376c1e5563b5d2e9f6be25a138702483045022100db5494d90edac453c2f1f84e400a270823cf0c4c17b8bdc9a09a159e9fa7d992022040eeffbfc7b4dd23acbbcd3170f3139aa4c196f29ff0a654484a4da781ece2ee0121038b2a0a07e249c02612e444c17fcf0734133e3d9bb4fd9d7aec1184482e415bc600000000"
}