{
  "txid": "800c2bb19d5907ebde7f54a749a3410f464919ca1636513d27d4e34d479c9bb2",
  "version": 2,
  "locktime": 0,
  "vin": [
    {
      "txid": "0d911655aefd3608e93a2a7b662a7f275d4ae63e870ff0014d20bf1291b680a3",
      "vout": 0,
      "prevout": {
        "scriptpubkey": "a9144ddbc0007ea14e8b7117d73a33cdc0849f35534b87",
        "scriptpubkey_asm": "OP_HASH160 OP_PUSHBYTES_20 4ddbc0007ea14e8b7117d73a33cdc0849f35534b OP_EQUAL",
        "scriptpubkey_type": "p2sh",
        "scriptpubkey_address": "38nhCp6qHRQihyRindKLBJHntBmEjPHJ2b",
        "value": 1960585
      },
      "scriptsig": "160014a31a0a1443c92d052c67e89a17fca269a366123e",
      "scriptsig_asm": "OP_PUSHBYTES_22 0014a31a0a1443c92d052c67e89a17fca269a366123e",
      "witness": [
        "30440220688023671b42b6b782b6107b733f09ea73f863733dab633703ee87c950e04e9402205d6b2984fd4801cecb08edef8ea34bf37a5da4afd989b812683fd21e6e2dc11301",
        "03a001623ab9f49e5e5dd6b9cf6b49efb60874edca4ea935ef0fcff96be18784ed"
      ],
      "is_coinbase": false,
      "sequence": 4294967293,
      "inner_redeemscript_asm": "OP_0 OP_PUSHBYTES_20 a31a0a1443c92d052c67e89a17fca269a366123e"
    },
    {
      "txid": "5ef6e5de64e7dcf3feeb5b541cf5bae900b6ed441618af6cc089f71735e89051",
      "vout": 0,
      "prevout": {
        "scriptpubkey": "a9144ddbc0007ea14e8b7117d73a33cdc0849f35534b87",
        "scriptpubkey_asm": "OP_HASH160 OP_PUSHBYTES_20 4ddbc0007ea14e8b7117d73a33cdc0849f35534b OP_EQUAL",
        "scriptpubkey_type": "p2sh",
        "scriptpubkey_address": "38nhCp6qHRQihyRindKLBJHntBmEjPHJ2b",
        "value": 1915492
      },
      "scriptsig": "160014a31a0a1443c92d052c67e89a17fca269a366123e",
      "scriptsig_asm": "OP_PUSHBYTES_22 0014a31a0a1443c92d052c67e89a17fca269a366123e",
      "witness": [
        "3044022050a265d4e8d42b73bf8b557995b1e6d0b3345161aa74ee090164f53d07366d5f02200a86056a50d24527942bb4cba2ddd32f6eec12e63fbf677e76dd1a5d5b00130801",
        "03a001623ab9f49e5e5dd6b9cf6b49efb60874edca4ea935ef0fcff96be18784ed"
      ],
      "is_coinbase": false,
      "sequence": 4294967293,
      "inner_redeemscript_asm": "OP_0 OP_PUSHBYTES_20 a31a0a1443c92d052c67e89a17fca269a366123e"
    },
    {
      "txid": "32a6acdbfd37ae7035bc1d64cac47577f6184154ee1aea894fb82b0b52d2b972",
      "vout": 1,
      "prevout": {
        "scriptpubkey": "a9144ddbc0007ea14e8b7117d73a33cdc0849f35534b87",
        "scriptpubkey_asm": "OP_HASH160 OP_PUSHBYTES_20 4ddbc0007ea14e8b7117d73a33cdc0849f35534b OP_EQUAL",
        "scriptpubkey_type": "p2sh",
        "scriptpubkey_address": "38nhCp6qHRQihyRindKLBJHntBmEjPHJ2b",
        "value": 1508670
      },
      "scriptsig": "160014a31a0a1443c92d052c67e89a17fca269a366123e",
      "scriptsig_asm": "OP_PUSHBYTES_22 0014a31a0a1443c92d052c67e89a17fca269a366123e",
      "witness": [
        "3043022053738d5604f1fd7767285e603c3ba5bd915decbbe7c91fb8e5a8953ce0367ef7021f0ec6f7f9cd8692ebae7432d2fa895d13bf477957a4b433000a2b34620e54ee01",
        "03a001623ab9f49e5e5dd6b9cf6b49efb60874edca4ea935ef0fcff96be18784ed"
      ],
      "is_coinbase": false,
      "sequence": 4294967293,
      "inner_redeemscript_asm": "OP_0 OP_PUSHBYTES_20 a31a0a1443c92d052c67e89a17fca269a366123e"
    },
    {
      "txid": "4b046602ae6c19288aa9d8579d871d8be943d6dbaa86f2217d0877102ba675f0",
      "vout": 0,
      "prevout": {
        "scriptpubkey": "a9144ddbc0007ea14e8b7117d73a33cdc0849f35534b87",
        "scriptpubkey_asm": "OP_HASH160 OP_PUSHBYTES_20 4ddbc0007ea14e8b7117d73a33cdc0849f35534b OP_EQUAL",
        "scriptpubkey_type": "p2sh",
        "scriptpubkey_address": "38nhCp6qHRQihyRindKLBJHntBmEjPHJ2b",
        "value": 13197068
      },
      "scriptsig": "160014a31a0a1443c92d052c67e89a17fca269a366123e",
      "scriptsig_asm": "OP_PUSHBYTES_22 0014a31a0a1443c92d052c67e89a17fca269a366123e",
      "witness": [
        "3044022056a7494b8d206573034fb242adb0020fe819b9fa48f618957e19cac357e8505102204e872bf9503216eaf191e810c6a644f73b8eb8bd6e35ce08707ef0065826ecee01",
        "03a001623ab9f49e5e5dd6b9cf6b49efb60874edca4ea935ef0fcff96be18784ed"
      ],
      "is_coinbase": false,
      "sequence": 4294967293,
      "inner_redeemscript_asm": "OP_0 OP_PUSHBYTES_20 a31a0a1443c92d052c67e89a17fca269a366123e"
    },
    {
      "txid": "332381d8dfda568bd4b84827d24f2e1a4688cf24403f5fccb5537ee0f464c7bc",
      "vout": 0,
      "prevout": {
        "scriptpubkey": "a914d79ee4fcebaa266f7797d8b34350140ee85fdb6987",
        "scriptpubkey_asm": "OP_HASH160 OP_PUSHBYTES_20 d79ee4fcebaa266f7797d8b34350140ee85fdb69 OP_EQUAL",
        "scriptpubkey_type": "p2sh",
        "scriptpubkey_address": "3MM7YyC1oFcvtFsQMjFwrdvdWgLPEN73wo",
        "value": 1940285
      },
      "scriptsig": "220020bd3302df740cbf3c1ac7e556e214d1a59d152034196dcfcd0f6b0d995352a9c8",
      "scriptsig_asm": "OP_PUSHBYTES_34 0020bd3302df740cbf3c1ac7e556e214d1a59d152034196dcfcd0f6b0d995352a9c8",
      "witness": [
        "304402203e636ddaa86c84cc91c1393f551687849322d1ae0f5e0d9650c6455f1c06187002207c81198a75c6a3c38a6e0a1c2263225ce35337d41b422b840b3181298a18f00d01",
        "03a001623ab9f49e5e5dd6b9cf6b49efb60874edca4ea935ef0fcff96be18784ed",
        "03669685f8fcaf5cba5129d43d6894c81ab481cebc1487b8f501cc8d2bcd1cf29c",
        "01",
        "765187637514a31a0a1443c92d052c67e89a17fca269a366123e146cdd4972161eb7e92e0bf6331c0add0932782dca67765287637514a31a0a1443c92d052c67e89a17fca269a366123e1458a44b31cf0a5459f8141ad1a2ae8f6322b404d067765387637514ab8d2e0b6a3b3c47f72c88c76b205a252927563314806f6784f42bc9553c78836924bc230f850202ed67548814ab8d2e0b6a3b3c47f72c88c76b205a252927563314e59e68081a13fe5af5c35833cf73377a2fad54ca6868687ba98878a988ac"
      ],
      "is_coinbase": false,
      "sequence": 4294967293,
      "inner_redeemscript_asm": "OP_0 OP_PUSHBYTES_32 bd3302df740cbf3c1ac7e556e214d1a59d152034196dcfcd0f6b0d995352a9c8",
      "inner_witnessscript_asm": "OP_DUP OP_PUSHNUM_1 OP_EQUAL OP_IF OP_DROP OP_PUSHBYTES_20 a31a0a1443c92d052c67e89a17fca269a366123e OP_PUSHBYTES_20 6cdd4972161eb7e92e0bf6331c0add0932782dca OP_ELSE OP_DUP OP_PUSHNUM_2 OP_EQUAL OP_IF OP_DROP OP_PUSHBYTES_20 a31a0a1443c92d052c67e89a17fca269a366123e OP_PUSHBYTES_20 58a44b31cf0a5459f8141ad1a2ae8f6322b404d0 OP_ELSE OP_DUP OP_PUSHNUM_3 OP_EQUAL OP_IF OP_DROP OP_PUSHBYTES_20 ab8d2e0b6a3b3c47f72c88c76b205a2529275633 OP_PUSHBYTES_20 806f6784f42bc9553c78836924bc230f850202ed OP_ELSE OP_PUSHNUM_4 OP_EQUALVERIFY OP_PUSHBYTES_20 ab8d2e0b6a3b3c47f72c88c76b205a2529275633 OP_PUSHBYTES_20 e59e68081a13fe5af5c35833cf73377a2fad54ca OP_ENDIF OP_ENDIF OP_ENDIF OP_ROT OP_HASH160 OP_EQUALVERIFY OP_OVER OP_HASH160 OP_EQUALVERIFY OP_CHECKSIG"
    }
  ],
  "vout": [
    {
      "scriptpubkey": "a914930a128d5431a6cf5171cec3c10e765fbe70239e87",
      "scriptpubkey_asm": "OP_HASH160 OP_PUSHBYTES_20 930a128d5431a6cf5171cec3c10e765fbe70239e OP_EQUAL",
      "scriptpubkey_type": "p2sh",
      "scriptpubkey_address": "3F6VKbBppLMvPZEP5oB79KTgaHBBQbdskh",
      "value": 20000000
    },
    {
      "scriptpubkey": "a9144ddbc0007ea14e8b7117d73a33cdc0849f35534b87",
      "scriptpubkey_asm": "OP_HASH160 OP_PUSHBYTES_20 4ddbc0007ea14e8b7117d73a33cdc0849f35534b OP_EQUAL",
      "scriptpubkey_type": "p2sh",
      "scriptpubkey_address": "38nhCp6qHRQihyRindKLBJHntBmEjPHJ2b",
      "value": 507466
    }
  ],
  "size": 1177,
  "weight": 2395,
  "fee": 14634,
  "status": {
    "confirmed": true,
    "block_height": 834638,
    "block_hash": "000000000000000000025f742c626208ac87e0b7d15054abb4a19ca2d735a54e",
    "block_time": 1710405325
  },
  "hex": "02000000000105a380b69112bf204d01f00f873ee64a5d277f2a667b2a3ae90836fdae5516910d0000000017160014a31a0a1443c92d052c67e89a17fca269a366123efdffffff5190e83517f789c06caf181644edb600e9baf51c545bebfef3dce764dee5f65e0000000017160014a31a0a1443c92d052c67e89a17fca269a366123efdffffff72b9d2520b2bb84f89ea1aee544118f67775c4ca641dbc3570ae37fddbaca6320100000017160014a31a0a1443c92d052c67e89a17fca269a366123efdfffffff075a62b1077087d21f286aadbd643e98b1d879d57d8a98a28196cae0266044b0000000017160014a31a0a1443c92d052c67e89a17fca269a366123efdffffffbcc764f4e07e53b5cc5f3f4024cf88461a2e4fd22748b8d48b56dadfd88123330000000023220020bd3302df740cbf3c1ac7e556e214d1a59d152034196dcfcd0f6b0d995352a9c8fdffffff02002d31010000000017a914930a128d5431a6cf5171cec3c10e765fbe70239e874abe07000000000017a9144ddbc0007ea14e8b7117d73a33cdc0849f35534b87024730440220688023671b42b6b782b6107b733f09ea73f863733dab633703ee87c950e04e9402205d6b2984fd4801cecb08edef8ea34bf37a5da4afd989b812683fd21e6e2dc113012103a001623ab9f49e5e5dd6b9cf6b49efb60874edca4ea935ef0fcff96be18784ed02473044022050a265d4e8d42b73bf8b557995b1e6d0b3345161aa74ee090164f53d07366d5f02200a86056a50d24527942bb4cba2ddd32f6eec12e63fbf677e76dd1a5d5b001308012103a001623ab9f49e5e5dd6b9cf6b49efb60874edca4ea935ef0fcff96be18784ed02463043022053738d5604f1fd7767285e603c3ba5bd915decbbe7c91fb8e5a8953ce0367ef7021f0ec6f7f9cd8692ebae7432d2fa895d13bf477957a4b433000a2b34620e54ee012103a001623ab9f49e5e5dd6b9cf6b49efb60874edca4ea935ef0fcff96be18784ed02473044022056a7494b8d206573034fb242adb0020fe819b9fa48f618957e19cac357e8505102204e872bf9503216eaf191e810c6a644f73b8eb8bd6e35ce08707ef0065826ecee012103a001623ab9f49e5e5dd6b9cf6b49efb60874edca4ea935ef0fcff96be18784ed0547304402203e636ddaa86c84cc91c1393f551687849322d1ae0f5e0d9650c6455f1c06187002207c81198a75c6a3c38a6e0a1c2263225ce35337d41b422b840b3181298a18f00d012103a001623ab9f49e5e5dd6b9cf6b49efb60874edca4ea935ef0fcff96be18784ed2103669685f8fcaf5cba5129d43d6894c81ab481cebc1487b8f501cc8d2bcd1cf29c0101c6765187637514a31a0a1443c92d052c67e89a17fca269a366123e146cdd4972161eb7e92e0bf6331c0add0932782dca67765287637514a31a0a1443c92d052c67e89a17fca269a366123e1458a44b31cf0a5459f8141ad1a2ae8f6322b404d067765387637514ab8d2e0b6a3b3c47f72c88c76b205a252927563314806f6784f42bc9553c78836924bc230f850202ed67548814ab8d2e0b6a3b3c47f72c88c76b205a252927563314e59e68081a13fe5af5c35833cf73377a2fad54ca6868687ba98878a988ac00000000"
}