{
  "txid": "801b1656646d2e028fb9fdb67245580b775efe29900c622c1f36d1907ffa43da",
  "version": 1,
  "locktime": 0,
  "vin": [
    {
      "txid": "b958f4f1428753eb78a225239ada5081ecf926a0ecc90ea1266dbe775070eb1b",
      "vout": 0,
      "prevout": {
        "scriptpubkey": "76a9148d6724a2151ab4a1e78bfb333516271b1adc3dcb88ac",
        "scriptpubkey_asm": "OP_DUP OP_HASH160 OP_PUSHBYTES_20 8d6724a2151ab4a1e78bfb333516271b1adc3dcb OP_EQUALVERIFY OP_CHECKSIG",
        "scriptpubkey_type": "p2pkh",
        "scriptpubkey_address": "1DtfqZG1z7sHN3jteb544dYmakufvkbofv",
        "value": 178936
      },
      "scriptsig": "47304402206a59f170749431027ea76a786a790605649746ab9f10107f6f1af95dd5a85ef0022053fd8eda59c72ae161216dfe8a0fe0483963f65206d36b9a28e2ce79ce0fd9a501210393e3f63b3d58060e89587ae20dc7afc093b7975f9cc866191c0926733c23ac6d",
      "scriptsig_asm": "OP_PUSHBYTES_71 304402206a59f170749431027ea76a786a790605649746ab9f10107f6f1af95dd5a85ef0022053fd8eda59c72ae161216dfe8a0fe0483963f65206d36b9a28e2ce79ce0fd9a501 OP_PUSHBYTES_33 0393e3f63b3d58060e89587ae20dc7afc093b7975f9cc866191c0926733c23ac6d",
      "is_coinbase": false,
      "sequence": 4294967295
    }
  ],
  "vout": [
    {
      "scriptpubkey": "0014e8dbb508feb8287053d5217ab88670330547c827",
      "scriptpubkey_asm": "OP_0 OP_PUSHBYTES_20 e8dbb508feb8287053d5217ab88670330547c827",
      "scriptpubkey_type": "v0_p2wpkh",
      "scriptpubkey_address": "bc1qardm2z87hq58q574y9at3pnsxvz50jp85xaqdp",
      "value": 171798
    }
  ],
  "size": 188,
  "weight": 752,
  "fee": 7138,
  "status": {
    "confirmed": true,
    "block_height": 834638,
    "block_hash": "000000000000000000025f742c626208ac87e0b7d15054abb4a19ca2d735a54e",
    "block_time": 1710405325
  },
  "hex": "01000000011beb705077be6d26a10ec9eca026f9ec8150da9a2325a278eb538742f1f458b9000000006a47304402206a59f170749431027ea76a786a790605649746ab9f10107f6f1af95dd5a85ef0022053fd8eda59c72ae161216dfe8a0fe0483963f65206d36b9a28e2ce79ce0fd9a501210393e3f63b3d58060e89587ae20dc7afc093b7975f9cc866191c0926733c23ac6dffffffff01169f020000000000160014e8dbb508feb8287053d5217ab88670330547c82700000000"
}