{
  "txid": "802ffcc10c75831684179c7958b901c9c9fe618cd7f27444526c24d6f1b32288",
  "version": 1,
  "locktime": 0,
  "vin": [
    {
      "txid": "0d1f372fed9fba4ce87c8d5ab1b56f4746327767eadd2825f6dd2003a3e25ea3",
      "vout": 0,
      "prevout": {
        "scriptpubkey": "001454bb821249ee653324ccdb1aa9c3c2e7fd62bd0c",
        "scriptpubkey_asm": "OP_0 OP_PUSHBYTES_20 54bb821249ee653324ccdb1aa9c3c2e7fd62bd0c",
        "scriptpubkey_type": "v0_p2wpkh",
        "scriptpubkey_address": "bc1q2jacyyjfaejnxfxvmvd2ns7zul7k90gv0y4mnn",
        "value": 58555
      },
      "scriptsig": "",
      "scriptsig_asm": "",
      "witness": [
        "3045022100929d76aa956c44acfb97f1e3dd8bc7748fd1bfd591f507c17733f1431e72b1190220287e0e4fcb2e3bf2b6fac7c96da560997a5b697a48372c3c5623eb655337b5b601",
        "0388c7931ce6bf601be0676216a74798c8a7dd818b4986037401af4574da77903b"
      ],
      "is_coinbase": false,
      "sequence": 4294967295
    }
  ],
  "vout": [
    {
      "scriptpubkey": "0014a87740d3c0a5b2598316a167794de6d9f6bc1f7d",
      "scriptpubkey_asm": "OP_0 OP_PUSHBYTES_20 a87740d3c0a5b2598316a167794de6d9f6bc1f7d",
      "scriptpubkey_type": "v0_p2wpkh",
      "scriptpubkey_address": "bc1q4pm5p57q5ke9nqck59nhjn0xm8mtc8majjd9am",
      "value": 55585
    }
  ],
  "size": 192,
  "weight": 438,
  "fee": 2970,
  "status": {
    "confirmed": true,
    "block_height": 834638,
    "block_hash": "000000000000000000025f742c626208ac87e0b7d15054abb4a19ca2d735a54e",
    "block_time": 1710405325
  },
  "hex": "01000000000101a35ee2a30320ddf62528ddea67773246476fb5b15a8d7ce84cba9fed2f371f0d0000000000ffffffff0121d9000000000000160014a87740d3c0a5b2598316a167794de6d9f6bc1f7d02483045022100929d76aa956c44acfb97f1e3dd8bc7748fd1bfd591f507c17733f1431e72b1190220287e0e4fcb2e3bf2b6fac7c96da560997a5b697a48372c3c5623eb655337b5b601210388c7931ce6bf601be0676216a74798c8a7dd818b4986037401af4574da77903b00000000"
}