{
  "txid": "802fbd6b3e8816a4375caec919cc6d2bc32788b26dd416bd40d584afe32b11ac",
  "version": 2,
  "locktime": 834637,
  "vin": [
    {
      "txid": "0f33158ae5c8ce283f026425a9ed8436015e21db9fafb5b16f2cd7d8e270cd29",
      "vout": 0,
      "prevout": {
        "scriptpubkey": "001484f123f2b6680f903c64e37f39cd0dc8547ad7c4",
        "scriptpubkey_asm": "OP_0 OP_PUSHBYTES_20 84f123f2b6680f903c64e37f39cd0dc8547ad7c4",
        "scriptpubkey_type": "v0_p2wpkh",
        "scriptpubkey_address": "bc1qsncj8u4kdq8eq0ryudlnnngdep28447yxynpn6",
        "value": 16300
      },
      "scriptsig": "",
      "scriptsig_asm": "",
      "witness": [
        "304402202c40140e93fbf492451ec48aa4b79232b4882e6e7da75d57712e1c96f6cc3bbb022021928ae4dc2513b709faa9344e431e725a6465934f746a22be6c7057aa18234201",
        "0341319f9c1dec90b0f11fab39be50f69e7ffbf43fb1cf1ff85959ef7d2cb0ed48"
      ],
      "is_coinbase": false,
      "sequence": 4294967293
    },
    {
      "txid": "225b3f1fc9bfa0b211f73c3a39c55ee607b4a857a40292614894cf4a9f0928bb",
      "vout": 0,
      "prevout": {
        "scriptpubkey": "00149a52adde84ca34a67d9650af85686792b79eeeaf",
        "scriptpubkey_asm": "OP_0 OP_PUSHBYTES_20 9a52adde84ca34a67d9650af85686792b79eeeaf",
        "scriptpubkey_type": "v0_p2wpkh",
        "scriptpubkey_address": "bc1qnff2mh5yeg62vlvk2zhc26r8j2meam404l9v90",
        "value": 204500
      },
      "scriptsig": "",
      "scriptsig_asm": "",
      "witness": [
        "3044022007c85cf533e14d027bd5121e661075d2be2e5f19a9d49d94abb66bbfd7a5c112022003ae30dc709a417c80a6f289af10e4213e804aadfc9e34cb64a1dc716574e5f901",
        "0308bba2e4bfdf5248a73b9d4bf985146dfc83acb31870c2c3bdc6f7eabffb5b0d"
      ],
      "is_coinbase": false,
      "sequence": 4294967293
    },
    {
      "txid": "b626ea6796497bbba2b8f0c8550629672c0acaff4d30cbf789d6e900a1225d4f",
      "vout": 0,
      "prevout": {
        "scriptpubkey": "0014b45a5a0ee19c2b6a2034f76f4ec0ff2d6ec836c2",
        "scriptpubkey_asm": "OP_0 OP_PUSHBYTES_20 b45a5a0ee19c2b6a2034f76f4ec0ff2d6ec836c2",
        "scriptpubkey_type": "v0_p2wpkh",
        "scriptpubkey_address": "bc1qk3d95rhpns4k5gp57ah5as8l94hvsdkz387ndp",
        "value": 45061
      },
      "scriptsig": "",
      "scriptsig_asm": "",
      "witness": [
        "304402207c3b29066c8cdbd4de46f794622f2c6f4f2a6c0f73f1886b3a5d021dba1c3c3802205284a6847d50d6e00142a639c38b1536f55b37ce187661799c618da4e2fcdfda01",
        "034846d53e837e8321768d74ab4618b35531b4da498bf9262a0704b1c62dcc4d9a"
      ],
      "is_coinbase": false,
      "sequence": 4294967293
    },
    {
      "txid": "c60dba531b1fc3679a45cbf8cf172f7c11181f5b7b54af99eeaeb22a3a292ea1",
      "vout": 0,
      "prevout": {
        "scriptpubkey": "00142e9308b4ae922524998684c1793cecf9e4916517",
        "scriptpubkey_asm": "OP_0 OP_PUSHBYTES_20 2e9308b4ae922524998684c1793cecf9e4916517",
        "scriptpubkey_type": "v0_p2wpkh",
        "scriptpubkey_address": "bc1q96fs3d9wjgjjfxvxsnqhj08vl8jfzeghxf3llz",
        "value": 8457200
      },
      "scriptsig": "",
      "scriptsig_asm": "",
      "witness": [
        "3044022025cb556f6cc9043946675d12dcab97049e38736dee3e67aa38c0d7cfac81af0a0220725eec0fc8eb00afff32ab91fee21294e7ef9afa10f911a3e584d91b4a86c1ef01",
        "02ad078aec3419450b54138ca65bede484c551bd8b7b6dee3db94ce8b9113f9081"
      ],
      "is_coinbase": false,
      "sequence": 4294967293
    },
    {
      "txid": "c722d5f397c14e0908bea3ffe7b0eeba050da026574741e24c5a3ba44bee933a",
      "vout": 0,
      "prevout": {
        "scriptpubkey": "0014fd3c76b47ab3c06b174d39603b3d8187d787222b",
        "scriptpubkey_asm": "OP_0 OP_PUSHBYTES_20 fd3c76b47ab3c06b174d39603b3d8187d787222b",
        "scriptpubkey_type": "v0_p2wpkh",
        "scriptpubkey_address": "bc1ql578ddr6k0qxk96d89srk0vpsltcwg3tfl3esj",
        "value": 6700
      },
      "scriptsig": "",
      "scriptsig_asm": "",
      "witness": [
        "304402207061e747506f79ad4e252b71121cb7b83fdfcd426062dde522e752538222c17f0220285de40b7263eae632810ffab13c4a76fad522aaa353775db085852c97f35b9001",
        "02bbcc3ef7211fb141978bc9e99f50cecf9b51f07353ca1f0861baac10dde66b10"
      ],
      "is_coinbase": false,
      "sequence": 4294967293
    },
    {
      "txid": "dcb11b2791e55b27610a3ec950d74ff06927f481bfcfc6bfeb5e47340958eda9",
      "vout": 0,
      "prevout": {
        "scriptpubkey": "00141eea6e91c918683f977acd31690f4ac612b4c65b",
        "scriptpubkey_asm": "OP_0 OP_PUSHBYTES_20 1eea6e91c918683f977acd31690f4ac612b4c65b",
        "scriptpubkey_type": "v0_p2wpkh",
        "scriptpubkey_address": "bc1qrm4xaywfrp5rl9m6e5ckjr62ccftf3jmt0vuma",
        "value": 1302100
      },
      "scriptsig": "",
      "scriptsig_asm": "",
      "witness": [
        "304402202d204bb9253b0bcf045a541295c1343f9dbd354bccf5f3f9e25f7dde390282f40220434fda1b77b92a8373b9a773f5a953b92beb09afeb47dc8bf94507691576790c01",
        "03d4f232eb516c468dfa310b6fc05741470afeb2967cbf0c0d109b79882406ab46"
      ],
      "is_coinbase": false,
      "sequence": 4294967293
    },
    {
      "txid": "f8fba407501d904476bad00efc775a16aeb2a16e8f1689319ed84d0ed63cba6f",
      "vout": 0,
      "prevout": {
        "scriptpubkey": "00147368525e6717c718fc55425d52811c5791951912",
        "scriptpubkey_asm": "OP_0 OP_PUSHBYTES_20 7368525e6717c718fc55425d52811c5791951912",
        "scriptpubkey_type": "v0_p2wpkh",
        "scriptpubkey_address": "bc1qwd59yhn8zlr33lz4gfw49qgu27ge2xgjhdvv27",
        "value": 6283500
      },
      "scriptsig": "",
      "scriptsig_asm": "",
      "witness": [
        "30440220029743dbcfe98b624fc47134ca31df38a25f31169ad7bae985540b0900df6a5902205fd7456b6fa4118e17c9f751bec58761ab189b1dd89dc439d5181c4380b8fa6801",
        "02a5a9d303ff4686bb933959cd6956784aa798e89a16febda17dbf7e3934ccc617"
      ],
      "is_coinbase": false,
      "sequence": 4294967293
    }
  ],
  "vout": [
    {
      "scriptpubkey": "0014842844cfb6979c9f9bda782307ba184545e830d5",
      "scriptpubkey_asm": "OP_0 OP_PUSHBYTES_20 842844cfb6979c9f9bda782307ba184545e830d5",
      "scriptpubkey_type": "v0_p2wpkh",
      "scriptpubkey_address": "bc1qss5yfnakj7wflx760q3s0wscg4z7svx4uttru3",
      "value": 16294382
    }
  ],
  "size": 1079,
  "weight": 2063,
  "fee": 20979,
  "status": {
    "confirmed": true,
    "block_height": 834638,
    "block_hash": "000000000000000000025f742c626208ac87e0b7d15054abb4a19ca2d735a54e",
    "block_time": 1710405325
  },
  "hex": "0200000000010729cd70e2d8d72c6fb1b5af9fdb215e013684eda92564023f28cec8e58a15330f0000000000fdffffffbb28099f4acf9448619202a457a8b407e65ec5393a3cf711b2a0bfc91f3f5b220000000000fdffffff4f5d22a100e9d689f7cb304dffca0a2c67290655c8f0b8a2bb7b499667ea26b60000000000fdffffffa12e293a2ab2aeee99af547b5b1f18117c2f17cff8cb459a67c31f1b53ba0dc60000000000fdffffff3a93ee4ba43b5a4ce241475726a00d05baeeb0e7ffa3be08094ec197f3d522c70000000000fdffffffa9ed580934475eebbfc6cfbf81f42769f04fd750c93e0a61275be591271bb1dc0000000000fdffffff6fba3cd60e4dd89e3189168f6ea1b2ae165a77fc0ed0ba7644901d5007a4fbf80000000000fdffffff01eea1f80000000000160014842844cfb6979c9f9bda782307ba184545e830d50247304402202c40140e93fbf492451ec48aa4b79232b4882e6e7da75d57712e1c96f6cc3bbb022021928ae4dc2513b709faa9344e431e725a6465934f746a22be6c7057aa18234201210341319f9c1dec90b0f11fab39be50f69e7ffbf43fb1cf1ff85959ef7d2cb0ed4802473044022007c85cf533e14d027bd5121e661075d2be2e5f19a9d49d94abb66bbfd7a5c112022003ae30dc709a417c80a6f289af10e4213e804aadfc9e34cb64a1dc716574e5f901210308bba2e4bfdf5248a73b9d4bf985146dfc83acb31870c2c3bdc6f7eabffb5b0d0247304402207c3b29066c8cdbd4de46f794622f2c6f4f2a6c0f73f1886b3a5d021dba1c3c3802205284a6847d50d6e00142a639c38b1536f55b37ce187661799c618da4e2fcdfda0121034846d53e837e8321768d74ab4618b35531b4da498bf9262a0704b1c62dcc4d9a02473044022025cb556f6cc9043946675d12dcab97049e38736dee3e67aa38c0d7cfac81af0a0220725eec0fc8eb00afff32ab91fee21294e7ef9afa10f911a3e584d91b4a86c1ef012102ad078aec3419450b54138ca65bede484c551bd8b7b6dee3db94ce8b9113f90810247304402207061e747506f79ad4e252b71121cb7b83fdfcd426062dde522e752538222c17f0220285de40b7263eae632810ffab13c4a76fad522aaa353775db085852c97f35b90012102bbcc3ef7211fb141978bc9e99f50cecf9b51f07353ca1f0861baac10dde66b100247304402202d204bb9253b0bcf045a541295c1343f9dbd354bccf5f3f9e25f7dde390282f40220434fda1b77b92a8373b9a773f5a953b92beb09afeb47dc8bf94507691576790c012103d4f232eb516c468dfa310b6fc05741470afeb2967cbf0c0d109b79882406ab46024730440220029743dbcfe98b624fc47134ca31df38a25f31169ad7bae985540b0900df6a5902205fd7456b6fa4118e17c9f751bec58761ab189b1dd89dc439d5181c4380b8fa68012102a5a9d303ff4686bb933959cd6956784aa798e89a16febda17dbf7e3934ccc6174dbc0c00"
}