{
  "txid": "803d47a23ac469748775fba1d493af0e609a10756a015214acd2051d2b695e5b",
  "version": 2,
  "locktime": 0,
  "vin": [
    {
      "txid": "b07c457914ff606f6449fc392bb9767b8f05da94fd440fe3abcfab6d73d49e85",
      "vout": 5,
      "prevout": {
        "scriptpubkey": "76a91442fc4d10b33fc0e53715a9b36dca67a2f1a774f388ac",
        "scriptpubkey_asm": "OP_DUP OP_HASH160 OP_PUSHBYTES_20 42fc4d10b33fc0e53715a9b36dca67a2f1a774f3 OP_EQUALVERIFY OP_CHECKSIG",
        "scriptpubkey_type": "p2pkh",
        "scriptpubkey_address": "177BqqxcjRc7R6rJtoc48Gh9RbtLBsEaXy",
        "value": 6957
      },
      "scriptsig": "483045022100f1040b3b720cc144988d412f8f312e055be20dcb9ffc834ff29aa4be12f80b4b02205e2023919418cb20d304b332907d01dc96269d2f30116e28cbcadb425d5b998a012102b832e72e67ad5f5cb315568d8e4d9edf18e8ce5a94cd79b0889f143f3a9a280d",
      "scriptsig_asm": "OP_PUSHBYTES_72 3045022100f1040b3b720cc144988d412f8f312e055be20dcb9ffc834ff29aa4be12f80b4b02205e2023919418cb20d304b332907d01dc96269d2f30116e28cbcadb425d5b998a01 OP_PUSHBYTES_33 02b832e72e67ad5f5cb315568d8e4d9edf18e8ce5a94cd79b0889f143f3a9a280d",
      "is_coinbase": false,
      "sequence": 4294967293
    },
    {
      "txid": "7e077552a84c96845ea5f68577b5b041b2f917e67f68b1d1fc7b490c712bb211",
      "vout": 2,
      "prevout": {
        "scriptpubkey": "76a91442fc4d10b33fc0e53715a9b36dca67a2f1a774f388ac",
        "scriptpubkey_asm": "OP_DUP OP_HASH160 OP_PUSHBYTES_20 42fc4d10b33fc0e53715a9b36dca67a2f1a774f3 OP_EQUALVERIFY OP_CHECKSIG",
        "scriptpubkey_type": "p2pkh",
        "scriptpubkey_address": "177BqqxcjRc7R6rJtoc48Gh9RbtLBsEaXy",
        "value": 10391
      },
      "scriptsig": "4730440220437ab79324b9342ee46be3b71c529d88145115a5cda068c42b26e3e32ceb1fa2022066e03c07f450520a894f1792df766648023d53497a9be0cf149c9f10890df98d012102b832e72e67ad5f5cb315568d8e4d9edf18e8ce5a94cd79b0889f143f3a9a280d",
      "scriptsig_asm": "OP_PUSHBYTES_71 30440220437ab79324b9342ee46be3b71c529d88145115a5cda068c42b26e3e32ceb1fa2022066e03c07f450520a894f1792df766648023d53497a9be0cf149c9f10890df98d01 OP_PUSHBYTES_33 02b832e72e67ad5f5cb315568d8e4d9edf18e8ce5a94cd79b0889f143f3a9a280d",
      "is_coinbase": false,
      "sequence": 4294967293
    },
    {
      "txid": "61cb3ed2c859f63ffa790ac88cf0cd5211ab0e4064d40ffb59a78ca6cb0760b4",
      "vout": 3,
      "prevout": {
        "scriptpubkey": "76a91442fc4d10b33fc0e53715a9b36dca67a2f1a774f388ac",
        "scriptpubkey_asm": "OP_DUP OP_HASH160 OP_PUSHBYTES_20 42fc4d10b33fc0e53715a9b36dca67a2f1a774f3 OP_EQUALVERIFY OP_CHECKSIG",
        "scriptpubkey_type": "p2pkh",
        "scriptpubkey_address": "177BqqxcjRc7R6rJtoc48Gh9RbtLBsEaXy",
        "value": 31797
      },
      "scriptsig": "47304402200cdefe985a4cd84af53a8da52d8571e6cd98b35f5443fd762cded9b49b4a49be0220685d9d69fd6118e1ee244b5c3991db8144cf61e991afaf05aa0305c1d6be12d1012102b832e72e67ad5f5cb315568d8e4d9edf18e8ce5a94cd79b0889f143f3a9a280d",
      "scriptsig_asm": "OP_PUSHBYTES_71 304402200cdefe985a4cd84af53a8da52d8571e6cd98b35f5443fd762cded9b49b4a49be0220685d9d69fd6118e1ee244b5c3991db8144cf61e991afaf05aa0305c1d6be12d101 OP_PUSHBYTES_33 02b832e72e67ad5f5cb315568d8e4d9edf18e8ce5a94cd79b0889f143f3a9a280d",
      "is_coinbase": false,
      "sequence": 4294967293
    },
    {
      "txid": "52ed6484fe56e89552a0526d280b8e8bd1403891f9eec6a25446aeee8c402510",
      "vout": 1,
      "prevout": {
        "scriptpubkey": "76a91442fc4d10b33fc0e53715a9b36dca67a2f1a774f388ac",
        "scriptpubkey_asm": "OP_DUP OP_HASH160 OP_PUSHBYTES_20 42fc4d10b33fc0e53715a9b36dca67a2f1a774f3 OP_EQUALVERIFY OP_CHECKSIG",
        "scriptpubkey_type": "p2pkh",
        "scriptpubkey_address": "177BqqxcjRc7R6rJtoc48Gh9RbtLBsEaXy",
        "value": 961
      },
      "scriptsig": "47304402207843840fce90ce1181f76cbbc7ec57125b773bc07e0de5a768408f261410460b02203f8b476638706f40e835eb62f22b7dd44529dea367f309861bd133674b4b2fd2012102b832e72e67ad5f5cb315568d8e4d9edf18e8ce5a94cd79b0889f143f3a9a280d",
      "scriptsig_asm": "OP_PUSHBYTES_71 304402207843840fce90ce1181f76cbbc7ec57125b773bc07e0de5a768408f261410460b02203f8b476638706f40e835eb62f22b7dd44529dea367f309861bd133674b4b2fd201 OP_PUSHBYTES_33 02b832e72e67ad5f5cb315568d8e4d9edf18e8ce5a94cd79b0889f143f3a9a280d",
      "is_coinbase": false,
      "sequence": 4294967293
    }
  ],
  "vout": [
    {
      "scriptpubkey": "76a91475f1aca8352b4c82c1218a3cff145607f57602ff88ac",
      "scriptpubkey_asm": "OP_DUP OP_HASH160 OP_PUSHBYTES_20 75f1aca8352b4c82c1218a3cff145607f57602ff OP_EQUALVERIFY OP_CHECKSIG",
      "scriptpubkey_type": "p2pkh",
      "scriptpubkey_address": "1BkdaHAhYnj2ctctQySCyoScdPPgTE2tp2",
      "value": 43154
    }
  ],
  "size": 633,
  "weight": 2532,
  "fee": 6952,
  "status": {
    "confirmed": true,
    "block_height": 834464,
    "block_hash": "0000000000000000000177a0869a911a2b65c9bdcd5a8bcb02b68f305bee848e",
    "block_time": 1710308296
  },
  "hex": "0200000004859ed4736dabcfabe30f44fd94da058f7b76b92b39fc49646f60ff1479457cb0050000006b483045022100f1040b3b720cc144988d412f8f312e055be20dcb9ffc834ff29aa4be12f80b4b02205e2023919418cb20d304b332907d01dc96269d2f30116e28cbcadb425d5b998a012102b832e72e67ad5f5cb315568d8e4d9edf18e8ce5a94cd79b0889f143f3a9a280dfdffffff11b22b710c497bfcd1b1687fe617f9b241b0b57785f6a55e84964ca85275077e020000006a4730440220437ab79324b9342ee46be3b71c529d88145115a5cda068c42b26e3e32ceb1fa2022066e03c07f450520a894f1792df766648023d53497a9be0cf149c9f10890df98d012102b832e72e67ad5f5cb315568d8e4d9edf18e8ce5a94cd79b0889f143f3a9a280dfdffffffb46007cba68ca759fb0fd464400eab1152cdf08cc80a79fa3ff659c8d23ecb61030000006a47304402200cdefe985a4cd84af53a8da52d8571e6cd98b35f5443fd762cded9b49b4a49be0220685d9d69fd6118e1ee244b5c3991db8144cf61e991afaf05aa0305c1d6be12d1012102b832e72e67ad5f5cb315568d8e4d9edf18e8ce5a94cd79b0889f143f3a9a280dfdffffff1025408ceeae4654a2c6eef9913840d18b8e0b286d52a05295e856fe8464ed52010000006a47304402207843840fce90ce1181f76cbbc7ec57125b773bc07e0de5a768408f261410460b02203f8b476638706f40e835eb62f22b7dd44529dea367f309861bd133674b4b2fd2012102b832e72e67ad5f5cb315568d8e4d9edf18e8ce5a94cd79b0889f143f3a9a280dfdffffff0192a80000000000001976a91475f1aca8352b4c82c1218a3cff145607f57602ff88ac00000000"
}