{
  "txid": "80547dc73a2729ea79a000d5e5fdf384dabd99257bf46c91cb24a577b33374fd",
  "version": 2,
  "locktime": 0,
  "vin": [
    {
      "txid": "c731a8618bb8da117012ea7a96b502534cba6acfab0a271add60640ec7898bb4",
      "vout": 1,
      "prevout": {
        "scriptpubkey": "5120b4a763b29d2851f7f5c190c1fb83d6ab3ec4af67b4d2f06f34cd14ba2fca0042",
        "scriptpubkey_asm": "OP_PUSHNUM_1 OP_PUSHBYTES_32 b4a763b29d2851f7f5c190c1fb83d6ab3ec4af67b4d2f06f34cd14ba2fca0042",
        "scriptpubkey_type": "v1_p2tr",
        "scriptpubkey_address": "bc1pkjnk8v5a9pgl0awpjrqlhq7k4vlvftm8knf0qme5e52t5t72qppqqs2r3c",
        "value": 877046
      },
      "scriptsig": "",
      "scriptsig_asm": "",
      "witness": [
        "eb7786aaa3c46dfb5e1c0dedfcc9fea8f843bd14f78a64ddfaa09b1786d7b40effa27797c30b0101247fa849f0ea90e30f037695a572839ec0ef3df5102de055"
      ],
      "is_coinbase": false,
      "sequence": 2147483649
    }
  ],
  "vout": [
    {
      "scriptpubkey": "76a91454f836e3d2957a986f742d662991f09b30613d2288ac",
      "scriptpubkey_asm": "OP_DUP OP_HASH160 OP_PUSHBYTES_20 54f836e3d2957a986f742d662991f09b30613d22 OP_EQUALVERIFY OP_CHECKSIG",
      "scriptpubkey_type": "p2pkh",
      "scriptpubkey_address": "18kH7MWRHdStkQat7wySvHyvdhQBXwJh4G",
      "value": 875006
    }
  ],
  "size": 153,
  "weight": 408,
  "fee": 2040,
  "status": {
    "confirmed": true,
    "block_height": 834638,
    "block_hash": "000000000000000000025f742c626208ac87e0b7d15054abb4a19ca2d735a54e",
    "block_time": 1710405325
  },
  "hex": "02000000000101b48b89c70e6460dd1a270aabcf6aba4c5302b5967aea127011dab88b61a831c701000000000100008001fe590d00000000001976a91454f836e3d2957a986f742d662991f09b30613d2288ac0140eb7786aaa3c46dfb5e1c0dedfcc9fea8f843bd14f78a64ddfaa09b1786d7b40effa27797c30b0101247fa849f0ea90e30f037695a572839ec0ef3df5102de05500000000"
}