{
  "txid": "80603641d4ecc43492a3195dc8d2efc326c9d2eb52718bc012246c5f139ac214",
  "version": 1,
  "locktime": 0,
  "vin": [
    {
      "txid": "2db51fe88dd9fd0da2fcffdfa68efa49e9fbf9828bfb40f65b23f4b155bbadf0",
      "vout": 1,
      "prevout": {
        "scriptpubkey": "0014b32487c7eeb6a9367fb13e710164d43791cd7b7b",
        "scriptpubkey_asm": "OP_0 OP_PUSHBYTES_20 b32487c7eeb6a9367fb13e710164d43791cd7b7b",
        "scriptpubkey_type": "v0_p2wpkh",
        "scriptpubkey_address": "bc1qkvjg03lwk65nvla38ecszex5x7gu67mm28u0pp",
        "value": 98378
      },
      "scriptsig": "",
      "scriptsig_asm": "",
      "witness": [
        "30450221009ec025b9ad490f350f314feb9e34b987c5c927fa5b919f62064abbdb6fb71ab10220728d6161f13b8a32b85e32d75135ee553b78fae6e0868dc8752da263e38d081a01",
        "0316f5dd8333b0d6ec0364e45c3c9c38144c97a93881f976118b342fbde7c87956"
      ],
      "is_coinbase": false,
      "sequence": 4294967295
    },
    {
      "txid": "2e8915a677bc705d5ee036a1e6767dbf1a0d795c3b1259e185e3ad015bfbec0f",
      "vout": 0,
      "prevout": {
        "scriptpubkey": "0014c571ee0833b21c7d35aeee2cbb2df61bfb189dd0",
        "scriptpubkey_asm": "OP_0 OP_PUSHBYTES_20 c571ee0833b21c7d35aeee2cbb2df61bfb189dd0",
        "scriptpubkey_type": "v0_p2wpkh",
        "scriptpubkey_address": "bc1qc4c7uzpnkgw86ddwacktkt0kr0a338ws46j2d8",
        "value": 1738650
      },
      "scriptsig": "",
      "scriptsig_asm": "",
      "witness": [
        "304502210092f6c505e60abcb59024556d66643de507676788ff06c36a147a1d43b4ff4848022059f0c197509a2fca8dbdc6e4a50da492a791243d1fed3bd04ba5162fe062890101",
        "039a066aaf262a3029fca4ed54b7b51ffc9f074fc9ed19abc9350a0fe7d5bd25ab"
      ],
      "is_coinbase": false,
      "sequence": 4294967295
    }
  ],
  "vout": [
    {
      "scriptpubkey": "0014f9caa92755f073aa95b98a450948d8956a1a5c36",
      "scriptpubkey_asm": "OP_0 OP_PUSHBYTES_20 f9caa92755f073aa95b98a450948d8956a1a5c36",
      "scriptpubkey_type": "v0_p2wpkh",
      "scriptpubkey_address": "bc1ql892jf647pe649de3fzsjjxcj44p5hpkrslty7",
      "value": 966310
    },
    {
      "scriptpubkey": "001404da466cc91f54093b3796c923bdfc8bedd93b3d",
      "scriptpubkey_asm": "OP_0 OP_PUSHBYTES_20 04da466cc91f54093b3796c923bdfc8bedd93b3d",
      "scriptpubkey_type": "v0_p2wpkh",
      "scriptpubkey_address": "bc1qqndyvmxfra2qjwehjmyj800u30kajweah3qkl5",
      "value": 867604
    }
  ],
  "size": 372,
  "weight": 834,
  "fee": 3114,
  "status": {
    "confirmed": true,
    "block_height": 834638,
    "block_hash": "000000000000000000025f742c626208ac87e0b7d15054abb4a19ca2d735a54e",
    "block_time": 1710405325
  },
  "hex": "01000000000102f0adbb55b1f4235bf640fb8b82f9fbe949fa8ea6dffffca20dfdd98de81fb52d0100000000ffffffff0fecfb5b01ade385e159123b5c790d1abf7d76e6a136e05e5d70bc77a615892e0000000000ffffffff02a6be0e0000000000160014f9caa92755f073aa95b98a450948d8956a1a5c36143d0d000000000016001404da466cc91f54093b3796c923bdfc8bedd93b3d024830450221009ec025b9ad490f350f314feb9e34b987c5c927fa5b919f62064abbdb6fb71ab10220728d6161f13b8a32b85e32d75135ee553b78fae6e0868dc8752da263e38d081a01210316f5dd8333b0d6ec0364e45c3c9c38144c97a93881f976118b342fbde7c879560248304502210092f6c505e60abcb59024556d66643de507676788ff06c36a147a1d43b4ff4848022059f0c197509a2fca8dbdc6e4a50da492a791243d1fed3bd04ba5162fe06289010121039a066aaf262a3029fca4ed54b7b51ffc9f074fc9ed19abc9350a0fe7d5bd25ab00000000"
}