{
  "txid": "8062f212610d05566cf8d41f560655ee4bdf39a204e19e978834de3830593f54",
  "version": 2,
  "locktime": 0,
  "vin": [
    {
      "txid": "7d789ceddfde76a352828d67a9b0c8edcb929572929104eecc28c270f72f09c6",
      "vout": 0,
      "prevout": {
        "scriptpubkey": "a91483947fde713e36b8bd307543c2fa39c54dbaece587",
        "scriptpubkey_asm": "OP_HASH160 OP_PUSHBYTES_20 83947fde713e36b8bd307543c2fa39c54dbaece5 OP_EQUAL",
        "scriptpubkey_type": "p2sh",
        "scriptpubkey_address": "3DgkLbgmtk5uYvn7ifDAxXZScVBrA1jEes",
        "value": 9100000
      },
      "scriptsig": "1600144dc94db7be4eeb97ee115b54b2f4c2d6cd76af83",
      "scriptsig_asm": "OP_PUSHBYTES_22 00144dc94db7be4eeb97ee115b54b2f4c2d6cd76af83",
      "witness": [
        "30450221009068810fb240212ef2cbe51f48c4cbf397a7eb310542dc96eac76b06d13f957f02204d2de62815b225071e9c5154f43fecbfd5a7d5e030efbcf2e1cb6a30d91ee79901",
        "03b8fc4e13d451bc754a0e1166ed2e539b37a2b0b5071c113e11b4a9e9b3385851"
      ],
      "is_coinbase": false,
      "sequence": 4294967295,
      "inner_redeemscript_asm": "OP_0 OP_PUSHBYTES_20 4dc94db7be4eeb97ee115b54b2f4c2d6cd76af83"
    }
  ],
  "vout": [
    {
      "scriptpubkey": "a91483947fde713e36b8bd307543c2fa39c54dbaece587",
      "scriptpubkey_asm": "OP_HASH160 OP_PUSHBYTES_20 83947fde713e36b8bd307543c2fa39c54dbaece5 OP_EQUAL",
      "scriptpubkey_type": "p2sh",
      "scriptpubkey_address": "3DgkLbgmtk5uYvn7ifDAxXZScVBrA1jEes",
      "value": 600
    },
    {
      "scriptpubkey": "a91483947fde713e36b8bd307543c2fa39c54dbaece587",
      "scriptpubkey_asm": "OP_HASH160 OP_PUSHBYTES_20 83947fde713e36b8bd307543c2fa39c54dbaece5 OP_EQUAL",
      "scriptpubkey_type": "p2sh",
      "scriptpubkey_address": "3DgkLbgmtk5uYvn7ifDAxXZScVBrA1jEes",
      "value": 600
    },
    {
      "scriptpubkey": "a91483947fde713e36b8bd307543c2fa39c54dbaece587",
      "scriptpubkey_asm": "OP_HASH160 OP_PUSHBYTES_20 83947fde713e36b8bd307543c2fa39c54dbaece5 OP_EQUAL",
      "scriptpubkey_type": "p2sh",
      "scriptpubkey_address": "3DgkLbgmtk5uYvn7ifDAxXZScVBrA1jEes",
      "value": 600
    },
    {
      "scriptpubkey": "a91483947fde713e36b8bd307543c2fa39c54dbaece587",
      "scriptpubkey_asm": "OP_HASH160 OP_PUSHBYTES_20 83947fde713e36b8bd307543c2fa39c54dbaece5 OP_EQUAL",
      "scriptpubkey_type": "p2sh",
      "scriptpubkey_address": "3DgkLbgmtk5uYvn7ifDAxXZScVBrA1jEes",
      "value": 600
    },
    {
      "scriptpubkey": "a91483947fde713e36b8bd307543c2fa39c54dbaece587",
      "scriptpubkey_asm": "OP_HASH160 OP_PUSHBYTES_20 83947fde713e36b8bd307543c2fa39c54dbaece5 OP_EQUAL",
      "scriptpubkey_type": "p2sh",
      "scriptpubkey_address": "3DgkLbgmtk5uYvn7ifDAxXZScVBrA1jEes",
      "value": 600
    },
    {
      "scriptpubkey": "a91483947fde713e36b8bd307543c2fa39c54dbaece587",
      "scriptpubkey_asm": "OP_HASH160 OP_PUSHBYTES_20 83947fde713e36b8bd307543c2fa39c54dbaece5 OP_EQUAL",
      "scriptpubkey_type": "p2sh",
      "scriptpubkey_address": "3DgkLbgmtk5uYvn7ifDAxXZScVBrA1jEes",
      "value": 600
    },
    {
      "scriptpubkey": "a91483947fde713e36b8bd307543c2fa39c54dbaece587",
      "scriptpubkey_asm": "OP_HASH160 OP_PUSHBYTES_20 83947fde713e36b8bd307543c2fa39c54dbaece5 OP_EQUAL",
      "scriptpubkey_type": "p2sh",
      "scriptpubkey_address": "3DgkLbgmtk5uYvn7ifDAxXZScVBrA1jEes",
      "value": 600
    },
    {
      "scriptpubkey": "a91483947fde713e36b8bd307543c2fa39c54dbaece587",
      "scriptpubkey_asm": "OP_HASH160 OP_PUSHBYTES_20 83947fde713e36b8bd307543c2fa39c54dbaece5 OP_EQUAL",
      "scriptpubkey_type": "p2sh",
      "scriptpubkey_address": "3DgkLbgmtk5uYvn7ifDAxXZScVBrA1jEes",
      "value": 600
    },
    {
      "scriptpubkey": "a91483947fde713e36b8bd307543c2fa39c54dbaece587",
      "scriptpubkey_asm": "OP_HASH160 OP_PUSHBYTES_20 83947fde713e36b8bd307543c2fa39c54dbaece5 OP_EQUAL",
      "scriptpubkey_type": "p2sh",
      "scriptpubkey_address": "3DgkLbgmtk5uYvn7ifDAxXZScVBrA1jEes",
      "value": 600
    },
    {
      "scriptpubkey": "a91483947fde713e36b8bd307543c2fa39c54dbaece587",
      "scriptpubkey_asm": "OP_HASH160 OP_PUSHBYTES_20 83947fde713e36b8bd307543c2fa39c54dbaece5 OP_EQUAL",
      "scriptpubkey_type": "p2sh",
      "scriptpubkey_address": "3DgkLbgmtk5uYvn7ifDAxXZScVBrA1jEes",
      "value": 600
    },
    {
      "scriptpubkey": "a91483947fde713e36b8bd307543c2fa39c54dbaece587",
      "scriptpubkey_asm": "OP_HASH160 OP_PUSHBYTES_20 83947fde713e36b8bd307543c2fa39c54dbaece5 OP_EQUAL",
      "scriptpubkey_type": "p2sh",
      "scriptpubkey_address": "3DgkLbgmtk5uYvn7ifDAxXZScVBrA1jEes",
      "value": 9086282
    }
  ],
  "size": 536,
  "weight": 1814,
  "fee": 7718,
  "status": {
    "confirmed": true,
    "block_height": 834638,
    "block_hash": "000000000000000000025f742c626208ac87e0b7d15054abb4a19ca2d735a54e",
    "block_time": 1710405325
  },
  "hex": "02000000000101c6092ff770c228ccee049192729592cbedc8b0a9678d8252a376dedfed9c787d00000000171600144dc94db7be4eeb97ee115b54b2f4c2d6cd76af83ffffffff0b580200000000000017a91483947fde713e36b8bd307543c2fa39c54dbaece587580200000000000017a91483947fde713e36b8bd307543c2fa39c54dbaece587580200000000000017a91483947fde713e36b8bd307543c2fa39c54dbaece587580200000000000017a91483947fde713e36b8bd307543c2fa39c54dbaece587580200000000000017a91483947fde713e36b8bd307543c2fa39c54dbaece587580200000000000017a91483947fde713e36b8bd307543c2fa39c54dbaece587580200000000000017a91483947fde713e36b8bd307543c2fa39c54dbaece587580200000000000017a91483947fde713e36b8bd307543c2fa39c54dbaece587580200000000000017a91483947fde713e36b8bd307543c2fa39c54dbaece587580200000000000017a91483947fde713e36b8bd307543c2fa39c54dbaece5874aa58a000000000017a91483947fde713e36b8bd307543c2fa39c54dbaece587024830450221009068810fb240212ef2cbe51f48c4cbf397a7eb310542dc96eac76b06d13f957f02204d2de62815b225071e9c5154f43fecbfd5a7d5e030efbcf2e1cb6a30d91ee799012103b8fc4e13d451bc754a0e1166ed2e539b37a2b0b5071c113e11b4a9e9b338585100000000"
}