{
  "txid": "80806828c4f751441dcb7e7092b5f234a3850da315414b4401b7e6cd9f491c13",
  "version": 1,
  "locktime": 0,
  "vin": [
    {
      "txid": "94df6f20970e1f5c4635780cdaa0781a13c9046c70cb35d8108dbdb2877d5a59",
      "vout": 0,
      "prevout": {
        "scriptpubkey": "76a9147f0f6a2f76c096ce1c57abfef413b1f38ec407c588ac",
        "scriptpubkey_asm": "OP_DUP OP_HASH160 OP_PUSHBYTES_20 7f0f6a2f76c096ce1c57abfef413b1f38ec407c5 OP_EQUALVERIFY OP_CHECKSIG",
        "scriptpubkey_type": "p2pkh",
        "scriptpubkey_address": "1CaqHQEhHUgo6JUUCupb7GtGFVkUgnSqR7",
        "value": 1000000
      },
      "scriptsig": "483045022100bf3ec2ec7506a3c3e29f5ee4d39162ccdb063fb547f1749a1cc282b9b7a261c9022029cedd3aea84c612012856cd654a639a3112cfcdf3fa5b7c9815a29496f280010121027db40e505a98750020729f1b08572d2a5a0454ea54f88b70b62b7bf2ee342c89",
      "scriptsig_asm": "OP_PUSHBYTES_72 3045022100bf3ec2ec7506a3c3e29f5ee4d39162ccdb063fb547f1749a1cc282b9b7a261c9022029cedd3aea84c612012856cd654a639a3112cfcdf3fa5b7c9815a29496f2800101 OP_PUSHBYTES_33 027db40e505a98750020729f1b08572d2a5a0454ea54f88b70b62b7bf2ee342c89",
      "is_coinbase": false,
      "sequence": 4294967295
    },
    {
      "txid": "6bb902771f52e7cde26113956eecdb24c9cc5fb6d99b737eebdd93ac6d0142cf",
      "vout": 1,
      "prevout": {
        "scriptpubkey": "76a914a18f6ffb0dfe94c90e8845a5b8e8f0abcfefcaec88ac",
        "scriptpubkey_asm": "OP_DUP OP_HASH160 OP_PUSHBYTES_20 a18f6ffb0dfe94c90e8845a5b8e8f0abcfefcaec OP_EQUALVERIFY OP_CHECKSIG",
        "scriptpubkey_type": "p2pkh",
        "scriptpubkey_address": "1FjFd6KPgzAHf9SKWQgPbXi4R7MhMicjCW",
        "value": 399308
      },
      "scriptsig": "4730440220255120a922100f554308dab412d8151282314439155d8036ff4ef6a19410e7a80220676b4dcc65e95e45ffb919401f05d26d504f6298a0bc59c69a25f8128250fd10012103cc748e1bda9420ca3b2a98ef207626350156f8eec84d6cd1d8e03f8bb7129cc1",
      "scriptsig_asm": "OP_PUSHBYTES_71 30440220255120a922100f554308dab412d8151282314439155d8036ff4ef6a19410e7a80220676b4dcc65e95e45ffb919401f05d26d504f6298a0bc59c69a25f8128250fd1001 OP_PUSHBYTES_33 03cc748e1bda9420ca3b2a98ef207626350156f8eec84d6cd1d8e03f8bb7129cc1",
      "is_coinbase": false,
      "sequence": 4294967295
    }
  ],
  "vout": [
    {
      "scriptpubkey": "76a91403fcf11bc69667fc2b6ebebac99bfd857954a31f88ac",
      "scriptpubkey_asm": "OP_DUP OP_HASH160 OP_PUSHBYTES_20 03fcf11bc69667fc2b6ebebac99bfd857954a31f OP_EQUALVERIFY OP_CHECKSIG",
      "scriptpubkey_type": "p2pkh",
      "scriptpubkey_address": "1N63HMUrEC4n4W7iUscoHxFnrYJdGmEFs",
      "value": 393698
    },
    {
      "scriptpubkey": "76a914e716d089a84759b490f242804b656899bfaab93788ac",
      "scriptpubkey_asm": "OP_DUP OP_HASH160 OP_PUSHBYTES_20 e716d089a84759b490f242804b656899bfaab937 OP_EQUALVERIFY OP_CHECKSIG",
      "scriptpubkey_type": "p2pkh",
      "scriptpubkey_address": "1N4tRVwqMXj2auYkHY2frEQsEzWHrDZTdM",
      "value": 1000000
    }
  ],
  "size": 373,
  "weight": 1492,
  "fee": 5610,
  "status": {
    "confirmed": true,
    "block_height": 834638,
    "block_hash": "000000000000000000025f742c626208ac87e0b7d15054abb4a19ca2d735a54e",
    "block_time": 1710405325
  },
  "hex": "0100000002595a7d87b2bd8d10d835cb706c04c9131a78a0da0c7835465c1f0e97206fdf94000000006b483045022100bf3ec2ec7506a3c3e29f5ee4d39162ccdb063fb547f1749a1cc282b9b7a261c9022029cedd3aea84c612012856cd654a639a3112cfcdf3fa5b7c9815a29496f280010121027db40e505a98750020729f1b08572d2a5a0454ea54f88b70b62b7bf2ee342c89ffffffffcf42016dac93ddeb7e739bd9b65fccc924dbec6e951361e2cde7521f7702b96b010000006a4730440220255120a922100f554308dab412d8151282314439155d8036ff4ef6a19410e7a80220676b4dcc65e95e45ffb919401f05d26d504f6298a0bc59c69a25f8128250fd10012103cc748e1bda9420ca3b2a98ef207626350156f8eec84d6cd1d8e03f8bb7129cc1ffffffff02e2010600000000001976a91403fcf11bc69667fc2b6ebebac99bfd857954a31f88ac40420f00000000001976a914e716d089a84759b490f242804b656899bfaab93788ac00000000"
}