{
  "txid": "8084ec51fa72904745f19e3f6b71486980b8ebb020085e064cf74eb21a294b12",
  "version": 2,
  "locktime": 0,
  "vin": [
    {
      "txid": "0297933275e9b87a592b5fe50eac2574def18b5ac071aa88b863986e7db5e3d6",
      "vout": 3,
      "prevout": {
        "scriptpubkey": "5120314b5c7a7ab5c148ccc624707caf0dcc91ce04c5be32b43bd5ece08c7f23ffc2",
        "scriptpubkey_asm": "OP_PUSHNUM_1 OP_PUSHBYTES_32 314b5c7a7ab5c148ccc624707caf0dcc91ce04c5be32b43bd5ece08c7f23ffc2",
        "scriptpubkey_type": "v1_p2tr",
        "scriptpubkey_address": "bc1px994c7n6khq53nxxy3c8etcdejguupx9hcetgw74ansgclerllpq5fsyw9",
        "value": 3186
      },
      "scriptsig": "",
      "scriptsig_asm": "",
      "witness": [
        "d0df2df5f3d37bab578db0ad1a8e0d0e80b28473c08f18aa14317c32fc19f030fe1ba862995b907e8fec4ad3f54f334cbca8ddadc09cef75f0bd4e891044d33a",
        "20c070e647b00df56d5ee0899da0c8cad63afa16ec4aaec8a6044cee6d4fac39d1ac0063036f726401011e6170706c69636174696f6e2f6a736f6e3b636861727365743d7574662d38004cbf7b2270223a22706f772d3230222c226f70223a226d696e74222c227469636b223a2250455045222c22616d74223a2231303030222c22736f6c7574696f6e223a22504550453a6263317171633839726a7563797a776c77786d7761646c7763797139353668726e726b6a6833637361723a303030303030303030303030303030303030303139393431613561653132383937363539383134343239323533333030353762306461393666336465613163353a3139373336353632343536227d68",
        "c1ebc23c5cb62efa16bafbb201dcb9689a89d3be5df33e83929d6fd8751a90bb42"
      ],
      "is_coinbase": false,
      "sequence": 4294967295
    }
  ],
  "vout": [
    {
      "scriptpubkey": "0014060e51cb98209df71b6eeb7eec1005a6ae398ed2",
      "scriptpubkey_asm": "OP_0 OP_PUSHBYTES_20 060e51cb98209df71b6eeb7eec1005a6ae398ed2",
      "scriptpubkey_type": "v0_p2wpkh",
      "scriptpubkey_address": "bc1qqc89rjucyzwlwxmwadlwcyq956hrnrkjh3csar",
      "value": 546
    }
  ],
  "size": 455,
  "weight": 701,
  "fee": 2640,
  "status": {
    "confirmed": true,
    "block_height": 834460,
    "block_hash": "00000000000000000000484a79b643b2524bbce82e5d8a442013fa5b8905ed98",
    "block_time": 1710307468
  },
  "hex": "02000000000101d6e3b57d6e9863b888aa71c05a8bf1de7425ac0ee55f2b597ab8e975329397020300000000ffffffff012202000000000000160014060e51cb98209df71b6eeb7eec1005a6ae398ed20340d0df2df5f3d37bab578db0ad1a8e0d0e80b28473c08f18aa14317c32fc19f030fe1ba862995b907e8fec4ad3f54f334cbca8ddadc09cef75f0bd4e891044d33afd0c0120c070e647b00df56d5ee0899da0c8cad63afa16ec4aaec8a6044cee6d4fac39d1ac0063036f726401011e6170706c69636174696f6e2f6a736f6e3b636861727365743d7574662d38004cbf7b2270223a22706f772d3230222c226f70223a226d696e74222c227469636b223a2250455045222c22616d74223a2231303030222c22736f6c7574696f6e223a22504550453a6263317171633839726a7563797a776c77786d7761646c7763797139353668726e726b6a6833637361723a303030303030303030303030303030303030303139393431613561653132383937363539383134343239323533333030353762306461393666336465613163353a3139373336353632343536227d6821c1ebc23c5cb62efa16bafbb201dcb9689a89d3be5df33e83929d6fd8751a90bb4200000000"
}