{
  "txid": "808c759f58afcc8cd45273a76329dd5af35bc3338f0d43f57c6291096500db32",
  "version": 1,
  "locktime": 0,
  "vin": [
    {
      "txid": "53e4ad2b7dca08f58e28af1cb2d66cb667c73935e127b7a89b2143cd0a05aa5d",
      "vout": 1,
      "prevout": {
        "scriptpubkey": "0014fd3b1298b110793daf3a53e5fd4c23d0c75e0865",
        "scriptpubkey_asm": "OP_0 OP_PUSHBYTES_20 fd3b1298b110793daf3a53e5fd4c23d0c75e0865",
        "scriptpubkey_type": "v0_p2wpkh",
        "scriptpubkey_address": "bc1ql5a39x93zpunmte620jl6npr6rr4uzr9ghuuzm",
        "value": 12022
      },
      "scriptsig": "",
      "scriptsig_asm": "",
      "witness": [
        "3045022100a28975b77d2f6ffe7b62febd289a53d262b7262dde99a5c334fc8468cb593c5c02203ad478c9f4a09ab2701a341a8154b90a28f74a11bc7ccd98d21a725a73e3d1b001",
        "030b4d198f9ad893d99fd732bb9adddcb056611ca175b87fb81d0d1bc8da2f197b"
      ],
      "is_coinbase": false,
      "sequence": 4294967295
    },
    {
      "txid": "c88bebde23874b893d44e81a3b8c537ae5a104bbeeb941c28ffe202bcd3eb4f2",
      "vout": 11,
      "prevout": {
        "scriptpubkey": "0014fd3b1298b110793daf3a53e5fd4c23d0c75e0865",
        "scriptpubkey_asm": "OP_0 OP_PUSHBYTES_20 fd3b1298b110793daf3a53e5fd4c23d0c75e0865",
        "scriptpubkey_type": "v0_p2wpkh",
        "scriptpubkey_address": "bc1ql5a39x93zpunmte620jl6npr6rr4uzr9ghuuzm",
        "value": 12399
      },
      "scriptsig": "",
      "scriptsig_asm": "",
      "witness": [
        "3045022100b99e2d78f30caaad666d600b44907e0d79edfb98833374530b01fe4562f83a61022067b42d1d9367ef7db6d37c144f3822ba2f39e81cd1d118f1595be9894bc5754601",
        "030b4d198f9ad893d99fd732bb9adddcb056611ca175b87fb81d0d1bc8da2f197b"
      ],
      "is_coinbase": false,
      "sequence": 4294967295
    },
    {
      "txid": "931e7e978c36455a4d25c385e2d905ebc97514835710f9e34746ca0a5b0fd8f8",
      "vout": 1,
      "prevout": {
        "scriptpubkey": "0014fd3b1298b110793daf3a53e5fd4c23d0c75e0865",
        "scriptpubkey_asm": "OP_0 OP_PUSHBYTES_20 fd3b1298b110793daf3a53e5fd4c23d0c75e0865",
        "scriptpubkey_type": "v0_p2wpkh",
        "scriptpubkey_address": "bc1ql5a39x93zpunmte620jl6npr6rr4uzr9ghuuzm",
        "value": 12605
      },
      "scriptsig": "",
      "scriptsig_asm": "",
      "witness": [
        "3044022059b304e569aca3d9dbfd8aeed3199fcf8677d21a7fccfb9cfbfffe39a364b1c10220042a1c1b33cadb83332ea48601e7ce0c01a26ab2aeeb737dd78e654e8f76841001",
        "030b4d198f9ad893d99fd732bb9adddcb056611ca175b87fb81d0d1bc8da2f197b"
      ],
      "is_coinbase": false,
      "sequence": 4294967295
    }
  ],
  "vout": [
    {
      "scriptpubkey": "001457d7778f4dfb6f190139f446f6869dbf73c9ee39",
      "scriptpubkey_asm": "OP_0 OP_PUSHBYTES_20 57d7778f4dfb6f190139f446f6869dbf73c9ee39",
      "scriptpubkey_type": "v0_p2wpkh",
      "scriptpubkey_address": "bc1q2lth0r6dldh3jqfe73r0dp5ahaeunm3e5ygy08",
      "value": 24000
    },
    {
      "scriptpubkey": "0014fd3b1298b110793daf3a53e5fd4c23d0c75e0865",
      "scriptpubkey_asm": "OP_0 OP_PUSHBYTES_20 fd3b1298b110793daf3a53e5fd4c23d0c75e0865",
      "scriptpubkey_type": "v0_p2wpkh",
      "scriptpubkey_address": "bc1ql5a39x93zpunmte620jl6npr6rr4uzr9ghuuzm",
      "value": 5547
    }
  ],
  "size": 520,
  "weight": 1105,
  "fee": 7479,
  "status": {
    "confirmed": true,
    "block_height": 834464,
    "block_hash": "0000000000000000000177a0869a911a2b65c9bdcd5a8bcb02b68f305bee848e",
    "block_time": 1710308296
  },
  "hex": "010000000001035daa050acd43219ba8b727e13539c767b66cd6b21caf288ef508ca7d2bade4530100000000fffffffff2b43ecd2b20fe8fc241b9eebb04a1e57a538c3b1ae8443d894b8723deeb8bc80b00000000fffffffff8d80f5b0aca4647e3f91057831475c9eb05d9e285c3254d5a45368c977e1e930100000000ffffffff02c05d00000000000016001457d7778f4dfb6f190139f446f6869dbf73c9ee39ab15000000000000160014fd3b1298b110793daf3a53e5fd4c23d0c75e086502483045022100a28975b77d2f6ffe7b62febd289a53d262b7262dde99a5c334fc8468cb593c5c02203ad478c9f4a09ab2701a341a8154b90a28f74a11bc7ccd98d21a725a73e3d1b00121030b4d198f9ad893d99fd732bb9adddcb056611ca175b87fb81d0d1bc8da2f197b02483045022100b99e2d78f30caaad666d600b44907e0d79edfb98833374530b01fe4562f83a61022067b42d1d9367ef7db6d37c144f3822ba2f39e81cd1d118f1595be9894bc575460121030b4d198f9ad893d99fd732bb9adddcb056611ca175b87fb81d0d1bc8da2f197b02473044022059b304e569aca3d9dbfd8aeed3199fcf8677d21a7fccfb9cfbfffe39a364b1c10220042a1c1b33cadb83332ea48601e7ce0c01a26ab2aeeb737dd78e654e8f7684100121030b4d198f9ad893d99fd732bb9adddcb056611ca175b87fb81d0d1bc8da2f197b00000000"
}