{
  "txid": "80a119c5c30eeec46ce473e27e1a24f0541e80bfef5b38ae7c2d0b3526f11abc",
  "version": 2,
  "locktime": 0,
  "vin": [
    {
      "txid": "50b58fb49ff522313d1301ead2cf032b966627c1dbf9285ccb397dffc54adfa5",
      "vout": 0,
      "prevout": {
        "scriptpubkey": "0014f8abfd423d1c3bb0cccc9400531114856728d122",
        "scriptpubkey_asm": "OP_0 OP_PUSHBYTES_20 f8abfd423d1c3bb0cccc9400531114856728d122",
        "scriptpubkey_type": "v0_p2wpkh",
        "scriptpubkey_address": "bc1qlz4l6s3arsampnxvjsq9xyg5s4nj35fzk5z9jd",
        "value": 21216805
      },
      "scriptsig": "",
      "scriptsig_asm": "",
      "witness": [
        "3045022100bca5b0ad8cf13352f7831085ce4bb31bb8612a3660cd5bbd0f3ba7e64737f9a9022038a381f09f6b10a448c261bf957c8f9d14763719f210caa960b207799842227c01",
        "03fd91f32e5b7176d1d051d723a0aec44f784b183d8cb601a54539080510e8040d"
      ],
      "is_coinbase": false,
      "sequence": 4294967295
    }
  ],
  "vout": [
    {
      "scriptpubkey": "0014aa9c6e80d8b512c238a0eed8f6686c81212482f3",
      "scriptpubkey_asm": "OP_0 OP_PUSHBYTES_20 aa9c6e80d8b512c238a0eed8f6686c81212482f3",
      "scriptpubkey_type": "v0_p2wpkh",
      "scriptpubkey_address": "bc1q42wxaqxck5fvyw9qamv0v6rvsysjfqhnttwjg0",
      "value": 3000000
    },
    {
      "scriptpubkey": "0014c0fbe4eecdccb273455999b2dec5f3bfd47aa026",
      "scriptpubkey_asm": "OP_0 OP_PUSHBYTES_20 c0fbe4eecdccb273455999b2dec5f3bfd47aa026",
      "scriptpubkey_type": "v0_p2wpkh",
      "scriptpubkey_address": "bc1qcra7fmkdeje8x32enxeda30nhl284gpxgj753k",
      "value": 18214294
    }
  ],
  "size": 223,
  "weight": 562,
  "fee": 2511,
  "status": {
    "confirmed": true,
    "block_height": 834638,
    "block_hash": "000000000000000000025f742c626208ac87e0b7d15054abb4a19ca2d735a54e",
    "block_time": 1710405325
  },
  "hex": "02000000000101a5df4ac5ff7d39cb5c28f9dbc12766962b03cfd2ea01133d3122f59fb48fb5500000000000ffffffff02c0c62d0000000000160014aa9c6e80d8b512c238a0eed8f6686c81212482f396ed150100000000160014c0fbe4eecdccb273455999b2dec5f3bfd47aa02602483045022100bca5b0ad8cf13352f7831085ce4bb31bb8612a3660cd5bbd0f3ba7e64737f9a9022038a381f09f6b10a448c261bf957c8f9d14763719f210caa960b207799842227c012103fd91f32e5b7176d1d051d723a0aec44f784b183d8cb601a54539080510e8040d00000000"
}