{
  "txid": "80b657e3d565bfd82b87fc9dec95c4915bb969a449f8b7371196667fc69dca00",
  "version": 2,
  "locktime": 834462,
  "vin": [
    {
      "txid": "c365c722abaa90b1a2dd9cf4038cb0b497159d84a4fbea01cb4927dd4a5778bf",
      "vout": 0,
      "prevout": {
        "scriptpubkey": "00144b1c28a7de26c179e79bbd7085f389f84d5e18af",
        "scriptpubkey_asm": "OP_0 OP_PUSHBYTES_20 4b1c28a7de26c179e79bbd7085f389f84d5e18af",
        "scriptpubkey_type": "v0_p2wpkh",
        "scriptpubkey_address": "bc1qfvwz3f77ymqhneumh4cgtuuflpx4ux90mgrfwa",
        "value": 171709555
      },
      "scriptsig": "",
      "scriptsig_asm": "",
      "witness": [
        "304402205812607bd8cb4920bbb4ee844b7a332c06d14998a0e793cad2582c706a032e7202202e30e4c09e12923f10f7e280c930cf045f632c1735c98fd4f232f60cddbfe31e01",
        "03c2be84f647d1933e1b2134541c3c77705edbfa03d34d1d5ac1906b7d7f9ac48f"
      ],
      "is_coinbase": false,
      "sequence": 4294967294
    }
  ],
  "vout": [
    {
      "scriptpubkey": "a914cf048f6b2d44ff4f8cbda2d126674680c402896f87",
      "scriptpubkey_asm": "OP_HASH160 OP_PUSHBYTES_20 cf048f6b2d44ff4f8cbda2d126674680c402896f OP_EQUAL",
      "scriptpubkey_type": "p2sh",
      "scriptpubkey_address": "3LZdG6vVkeFJ2PMPtzWWDvfcDS6hzpGNSN",
      "value": 350100
    },
    {
      "scriptpubkey": "0014715addb9adb346f6848334c58bfd1e11c6103266",
      "scriptpubkey_asm": "OP_0 OP_PUSHBYTES_20 715addb9adb346f6848334c58bfd1e11c6103266",
      "scriptpubkey_type": "v0_p2wpkh",
      "scriptpubkey_address": "bc1qw9ddmwddkdr0dpyrxnzchlg7z8rpqvnxfngz4s",
      "value": 171356324
    }
  ],
  "size": 223,
  "weight": 565,
  "fee": 3131,
  "status": {
    "confirmed": true,
    "block_height": 834464,
    "block_hash": "0000000000000000000177a0869a911a2b65c9bdcd5a8bcb02b68f305bee848e",
    "block_time": 1710308296
  },
  "hex": "02000000000101bf78574add2749cb01eafba4849d1597b4b08c03f49cdda2b190aaab22c765c30000000000feffffff02945705000000000017a914cf048f6b2d44ff4f8cbda2d126674680c402896f87a4b0360a00000000160014715addb9adb346f6848334c58bfd1e11c61032660247304402205812607bd8cb4920bbb4ee844b7a332c06d14998a0e793cad2582c706a032e7202202e30e4c09e12923f10f7e280c930cf045f632c1735c98fd4f232f60cddbfe31e012103c2be84f647d1933e1b2134541c3c77705edbfa03d34d1d5ac1906b7d7f9ac48f9ebb0c00"
}