{
  "txid": "80bf6b9feaeba53ac4bcdb7f7f1d7ae501575d333700eedf1b9d6e4d291d0ac9",
  "version": 2,
  "locktime": 0,
  "vin": [
    {
      "txid": "08d92e9e3b4c5a35eb6735a0902a6b65c95f924f19de3f03a6930d3f28d84629",
      "vout": 0,
      "prevout": {
        "scriptpubkey": "5120a8f1c9e34089febb41166d4c73efc0f216f3a9ff0e7304851b460fb0c6c3126f",
        "scriptpubkey_asm": "OP_PUSHNUM_1 OP_PUSHBYTES_32 a8f1c9e34089febb41166d4c73efc0f216f3a9ff0e7304851b460fb0c6c3126f",
        "scriptpubkey_type": "v1_p2tr",
        "scriptpubkey_address": "bc1p4rcunc6q38ltksgkd4x88m7q7gt0820lpeesfpgmgc8mp3krzfhsr6axxh",
        "value": 22000
      },
      "scriptsig": "",
      "scriptsig_asm": "",
      "witness": [
        "6e1c0f0bc205478b7ab0dfd0f7916c91730ef357fec68404da6e248a9d82b90a852d739b40b4ea1bc68ecf41c2df620339678d80991cad4181baf40284605faa",
        "20d7e870d451e7d9049446bd773e746a7a0fd529355fa2beef523eb368aa862d61ac0063036f726401011e6170706c69636174696f6e2f6a736f6e3b636861727365743d7574662d38004cb77b2270223a22706f772d3230222c226f70223a226d696e74222c227469636b223a2250455045222c22616d74223a2231303030222c22736f6c7574696f6e223a22504550453a33436356314e345555394c45747331374e777553577966396e746845757a714c56513a303030303030303030303030303030303030303139393431613561653132383937363539383134343239323533333030353762306461393666336465613163353a3230363533313433393435227d68",
        "c0622ec7e628951f40268acf3dd3204d289dcdec54c93410598d2e422c74fc82f1"
      ],
      "is_coinbase": false,
      "sequence": 4294967293
    }
  ],
  "vout": [
    {
      "scriptpubkey": "a91477cde961f942d709292278892ca2683896bce9ef87",
      "scriptpubkey_asm": "OP_HASH160 OP_PUSHBYTES_20 77cde961f942d709292278892ca2683896bce9ef OP_EQUAL",
      "scriptpubkey_type": "p2sh",
      "scriptpubkey_address": "3CcV1N4UU9LEts17NwuSWyf9nthEuzqLVQ",
      "value": 546
    },
    {
      "scriptpubkey": "5120722561ca0fd8ca97c56394b4734d554d914d3cae7707152eb98f2481d0c9cfed",
      "scriptpubkey_asm": "OP_PUSHNUM_1 OP_PUSHBYTES_32 722561ca0fd8ca97c56394b4734d554d914d3cae7707152eb98f2481d0c9cfed",
      "scriptpubkey_type": "v1_p2tr",
      "scriptpubkey_address": "bc1pwgjkrjs0mr9f03trjj68xn24fkg5609wwur32t4e3ujgr5xfelksss9uga",
      "value": 2996
    },
    {
      "scriptpubkey": "51200abf646ffc81ea80638de35b62fa2042e46332610e40d58b894e9e08fe3d61a5",
      "scriptpubkey_asm": "OP_PUSHNUM_1 OP_PUSHBYTES_32 0abf646ffc81ea80638de35b62fa2042e46332610e40d58b894e9e08fe3d61a5",
      "scriptpubkey_type": "v1_p2tr",
      "scriptpubkey_address": "bc1pp2lkgmlus84gqcududdk973qgtjxxvnppeqdtzuff60q3l3avxjsf65lqp",
      "value": 2996
    },
    {
      "scriptpubkey": "512080d6826feacb3921a8ffe0409598c3e893423cce6215b6316e64321179286371",
      "scriptpubkey_asm": "OP_PUSHNUM_1 OP_PUSHBYTES_32 80d6826feacb3921a8ffe0409598c3e893423cce6215b6316e64321179286371",
      "scriptpubkey_type": "v1_p2tr",
      "scriptpubkey_address": "bc1psrtgyml2evujr28lupqftxxrazf5y0xwvg2mvvtwvsepz7fgvdcshfvrwn",
      "value": 2996
    },
    {
      "scriptpubkey": "00149920e7c84164884bbbd42d43c81130e7abeb7d97",
      "scriptpubkey_asm": "OP_0 OP_PUSHBYTES_20 9920e7c84164884bbbd42d43c81130e7abeb7d97",
      "scriptpubkey_type": "v0_p2wpkh",
      "scriptpubkey_address": "bc1qnysw0jzpvjyyhw7594pusyfsu747klvhy92dem",
      "value": 7776
    }
  ],
  "size": 608,
  "weight": 1337,
  "fee": 4690,
  "status": {
    "confirmed": true,
    "block_height": 834460,
    "block_hash": "00000000000000000000484a79b643b2524bbce82e5d8a442013fa5b8905ed98",
    "block_time": 1710307468
  },
  "hex": "020000000001012946d8283f0d93a6033fde194f925fc9656b2a90a03567eb355a4c3b9e2ed9080000000000fdffffff05220200000000000017a91477cde961f942d709292278892ca2683896bce9ef87b40b000000000000225120722561ca0fd8ca97c56394b4734d554d914d3cae7707152eb98f2481d0c9cfedb40b0000000000002251200abf646ffc81ea80638de35b62fa2042e46332610e40d58b894e9e08fe3d61a5b40b00000000000022512080d6826feacb3921a8ffe0409598c3e893423cce6215b6316e64321179286371601e0000000000001600149920e7c84164884bbbd42d43c81130e7abeb7d9703406e1c0f0bc205478b7ab0dfd0f7916c91730ef357fec68404da6e248a9d82b90a852d739b40b4ea1bc68ecf41c2df620339678d80991cad4181baf40284605faafd040120d7e870d451e7d9049446bd773e746a7a0fd529355fa2beef523eb368aa862d61ac0063036f726401011e6170706c69636174696f6e2f6a736f6e3b636861727365743d7574662d38004cb77b2270223a22706f772d3230222c226f70223a226d696e74222c227469636b223a2250455045222c22616d74223a2231303030222c22736f6c7574696f6e223a22504550453a33436356314e345555394c45747331374e777553577966396e746845757a714c56513a303030303030303030303030303030303030303139393431613561653132383937363539383134343239323533333030353762306461393666336465613163353a3230363533313433393435227d6821c0622ec7e628951f40268acf3dd3204d289dcdec54c93410598d2e422c74fc82f100000000"
}