{
  "txid": "80d544f7cc27c1eda2da5dce085f0c202c492b832998cfdc17892d2a64d9d2cf",
  "version": 2,
  "locktime": 0,
  "vin": [
    {
      "txid": "1599dab6edb7edeefce7f978fb7e661ce055352ce86bc2b1fb5d9cfd9f9115ee",
      "vout": 0,
      "prevout": {
        "scriptpubkey": "51206fdb42cf0fb14f0c52a8947f8cc3df14688d389307915fb3e7fd47d864616e28",
        "scriptpubkey_asm": "OP_PUSHNUM_1 OP_PUSHBYTES_32 6fdb42cf0fb14f0c52a8947f8cc3df14688d389307915fb3e7fd47d864616e28",
        "scriptpubkey_type": "v1_p2tr",
        "scriptpubkey_address": "bc1pdld59nc0k98sc54gj3lces7lz35g6wynq7g4lvl8l4raserpdc5qr3y6nw",
        "value": 34891
      },
      "scriptsig": "",
      "scriptsig_asm": "",
      "witness": [
        "a8238e2cee77427bd48aa31194157d9412f43e39fa881c257e04edf94bc8ae27ccd58cd7d7696f1d060eeb4705d07670b602e20440c0d84931e02e7c9dcbf0ff",
        "20f2d00e1cce0b839d2e197679cac7a15152ec244338032c7767f72c1332d49a65ac0063036f7264010109696d6167652f706e67004d080289504e470d0a1a0a0000000d49484452000001000000010008030000006bac585400000090504c5445f2ce85312d2af4e9817f5e37ebc79ddfd5ccc6bdb58d7a639a9087282077eae6d9c0b9a625a5913f33b9fbd5710000000a0a0afcbe13b87b48925f32c45c5a885d3757504aff7500fda75d877c73ffefe02e5e8adb4e527aaac0b7dbcea9000079a9c1d1272c523d2c1d3157e77e32392a1eaf9e8dd9ccba7b7063514a42deeff5515761f9c12bf4c9470319ffff0000f546511300001b0549444154789ced9d0d7bdbb6ae80dd38f16d1c51895677696b47f3f7d6de73d6ffffef0e091024c00f8972e4d8dd82674d1bdb51fcbe02418892bcc9e43ddee33ddee33ddee33ddee33ddee33ddee33ddee33ddee397890f14977e236f1c1fa2b8f43b7a8b88a9ff350a3ef4c1ffa30df471dffcc305f4f23b01ff40032589ff0b0998fa28797909bde0bf6a03d344e45f1d20de7cc8877cf2ed8086450a3feb20c19830408ffd1202b2fcb182cc5ebee1b037f00ffc26707311bcdee8e20f0c64f39cd1dedcdc64055ca5816e7ea62043cff73d41e37f09015768a0979f0c74f0cbfd0df43799da7859d84414f06b039df0087d2334b814f82708e8a727f620ed6f480b537169de305e0d2ff73ed3f081c6811c0b97060e2304be3531089f0cf82f1ffc641097824b038721e8ef6e5d0cc0f706f8f71cff9a5320dcf93ecaf103033732c24ef14d0802d2c432b2fc83d86f3e7c607b3b14100c824b23cb10fcb3d9ddec84dd4ffb39b5fb6fe2e9f0d2c83234f98cf875053885df2b48e15f7b0d300266e68f669fe9afc6c2507c4b9ee1bf617eae51c01d6400b0eb3fa7e07bb824bf384ebc3e0330026677c6c00c4ac0ec949dcfca607f065c9980bbbb190c0088dbd9dd29fc59f6b480ab328005c026804e81c1b3bfdcfb2915f18f5d1a5ac4746a4be02d94c0ff1bbefb59f20b2d79015765c08d7e5d01b587810202e00fd00d8402620f9786e64193a0a900ba1e0caf8102f8032d06fc2a02667608cca8080e1610e77b24208e4b638bd02970a78b9f53f03a01897628e5e3d2d03c4c27a0fb805bac8403faa0041c01a695f0e9f082b818f211ec03b11dee35d0b57b1d61f710b8888070e9c73d31a32a001361410e0460918160364c6fe4c2f45c01f0dfc1d1001e0f0d1b0649095cce150848e23b03a6084eb115b8c352d03f0cd83e16dfa446c2e505e4f8c9802983b3a945b7c3a044014bf6a4826b1902797e30a05b81993d1c80696006ff9927fb05047b392f402e995e8f8019e4803d18420558053e7e9c96286079904f02f7f0855220a2160bff867f02f453cb3ee34f972870e77e326b42ccd2250424f911d1609bfdeff0e1afdb292d13162b90a705ca6ac0a505cc2ca47ec51dcc006659688ae5105609072920fecc79814b1a88c73d65c0479b032e09205c71902fef13e09320ee85a34d080205a16b10e049ef671eff0e0e0b12ba4a1cdcf83f52c14505c4fcececa74d77b722728756ee52f87d226829409c24ef1e026f622021600afc36035cea03ff4ce227f933124402c8c6e80c021e749ccc4f61cbe00c06c11c8f0664f1cbf267f22014c016cc4733f0908ad304a0031315eefd5040177fca82b840828d82310524f93b3cf4f1c3fed71950292881b200f60b9016f87151580ede44406ca12701a63009dcdb2a58cbfc2fe5f70a92023ae31c02848b5efefb7b2da08241a0ff9bdff124281790ac082502861b305c8f8f8ff0c7fefbd17fff182a102ca9dd0f02665408e693be29708801d7178e2ce0b12f500c1760df6462ff1b055585fcd55df5311e014f26246cfc48560108e8307016015ec383dc9589fcd70a6a435fe1972a4a80a7a7d0c053fcd0e902061bf0d9ed29fd030f4304dcdba8ebbb0ae08d82300322da2716850aba5aa157087860991e3ce6cd7408207e359bcf75f5d3f026fa043c3d7519c89582115340624659d0550393fc7755353791e10f053c3d8d6e60b080ce319f1130cde63f0cfef9bc511f4712906991c73a1e886ae0439980303cbf19fe95829002c410c8f00f3030be80079af663fea004e4f9490028689abc80a7281ff202924dd158cb421de39df3f708787002e6154563625a26204e8d0203390145f7e70d13c01ac224fe8313a0ab5fc515e4053cb1ef1263a35f41d640d91d8ac304f848f33f784d08027e6160f1e9d3a7df7478fe948128198a1474a4c010054305240c7801c03f87e207f1bb89df587cfe140a70d1c73fc0c07488019fe5b919309c0f52fc4e8032064cf1d3f115f8bf3c7301e64bd240c7249053d029a0d840825e38483d16e15b0166e7a300a3e0eb9767cdff4da40008481a28e14f64415e40a9811c7f776b14f2838039ccfd2860b9840478fef6ed598c819c80a2042835301d62209de6923add19317c1080fc0da4c072b95c7df9dda4c0b76756063e670d8cc94f02ca0c648b5d573f18873906027e10a0f1575f21ffbf3d7ffbfdd919b0023e3f45064615302805caf80a04587e30a0f9175f75067c3325c0a7c067e72132d0c3cf9f1c370546e27ff0fc9002abc5e2abdefb5fbe7dd306f41f9900a941d0c11fbdb6f7d4ead904e4c783e75f5a018b6fa604eaf84213c1e7df1202fad33e7e69efc9e5db720343e85949888a03e19b0ec018d002700468095fbefc1e26c000034f22ca0cb843f5570ac84d85e25ff8527bec031d9015f0d5e4beae005f6c0d10fcc5069e9e1206a63d066ecb0d0c1790ee0d18bf3550a1009804be327e37108a0484fc4e40a7815b67e0752320d10644cdc1031750552b13f688e8ab2981cf6622f82a0b80fdbb200722fe32035e409f816e01392bcc0f3d8af56f09fc6a8187449f7eb791e02fac84ece948408702f69af105a443f02f6c0a6803cfcfcf9aff7392bfc0007f3228839d0a8a0d4d08028c2900f835b6ae7f64e0d9b4839f3e07d8e94a9854c09fb97601faf0078309a83e7dd2f8facb277c33dd83bc5bc0534a404e027fd1280268b4673ba1c6ad0219fe458555e0e5e5851f3aa74e8e262a5cf8742201e4927c867f44014103203a008c4a08c06501c3df2ba0f7cc50f0b2948048c1e802321d412440f783c88f068a0444735de78be8db22010506f2c87f40742b9002cc04200568036ddb2f20d3ed0c11301d5dc01fa18078d14404cc808a097801016d9180a21344f2d150c06d87802e037d02fec8be208888ff050c04025e65e0963f1409b8650b05e1cb2e20e0c50a98b7aa4c40aae9ed3a4608057003d1cb5e5103860808f85fd420016907e5029881310594f24b01c86fe7c201060628480bc8bdec14010f05025859447e25f8550b060608488f84948b3710f050c24f067802387e14305f0f11d0e3203b0d66b6f52a010fbd03c01bf009b0f0fcaa45038352a02c0f8ae85f2da01bdd29000109fead9e03c1c066b0804e0591808ecd9c22c0ad7b2660d98ef72b44b10043afc308d89c96025d0a42015d1b192220e0140b3f32e1792b8c5f919f046c31366901e5d7cbe605146faf4f00e72a1610fdc50510ff4687e1dfbcc640b63d1a53005fe44c0a78142a1e4363f075c212c0d26f300136bbddab0ca47be45147001960f99d13f0402f8c044c9c00c207013b8848c0b0abc6a50cc6356209e810200f7cd90bbd8047734b4d080285ae7bc04ff81b45fc231a105805db2a15c08740b700fe2d7ba1ded4760b09e0f09522fc453c065e65a07c53f48a2102c2f92d2f807b30025e8c00474ff8b4421a19385dc1600179fe02018f4901fc512b60e204487cdb0d8e6620da4c7e43fd09206601a7814f8abc3cf222c0ace87fe0c6905ff1e45fd85ed05c3c36e09d0fe3cf6cc63fdf29e0510a784c0888a681e844f9840c00bee2f87b7be560dac04005a92de436c39e2dca80c7a48020db53eb823402c04088bf76fc3903850eb2e8998df0e7fa4b002b0289f1c0fcc872e053820b60f89a7feff8b581213bb0843ab391f0892102fc90778f444fc709c0eeaca4dddfb6ad4b00a5fa0c8c809f8f0efe40c083dfd5b100df0046f3412440effef5bae50560700e8c45df2de081c36504102c7d49f1f37b6b2d3e085803ff419518385bf4264030ca7dc247c8f1e0a79ce002cca2e09a2500e757cbb7373044003fbc19146c9ba60eda04800ee0e0052c4dbcb5812e7e79a5fc40e69c00e505c801b0b4919b0d4f8faa5a9cc63fded5117901940084bf34278cc6e6afaaed49fca309e8e23f707c3a653636bf369054d0c37f5e017397001e1f4f1934e319f097656cb7dbdd6e20bf10f09a3210f3af7d02307ce46f9bd10c2caac0c08e7fc0432f7f24e0540382df0ab0fc07866f4f19d90bca5f4d6f2f469206faa173024203b2f30f8f89fa04d00038307c5519feaa852b4a13ab64834d0802e0214cd3d534af30107038c0c7ae48e81202e20450f6363ae03797d4d23ae1a90e0e8e592b788d81704f76823305613ab80d5217043df01e05f81cc504a0c5123450f5e3ca301b61896f36d432039b4106a25c0ef7737408984a062f6021042c8d802ae0dfb1980f5460eb881cfab025f79dda6c5e25205c014d44aa1670019e7f29f84d05f4ec75adbfe08564f3baaefbe1ed357878eec1449336604ec4942be8021d124901954f00dc758ede2c1c9abf953750551d89005bc0ed38fca619c3c0b904c0b54156001d0a38fca6f102ac82dadd6bccb9f10cab2da0f095f0b75b23a04d1b582cca0d9c4100f1cf2b1010e29b375e7301352d99f8b18241f88a76bec37fd14f1afed619584803c502c6e227010b108037ccb45c00e1e37d5546c086f86b343057de41c8afc4dec7ab0f5080b3067b5dd4c54b0930d519af8fdcaf889ff0f51baf0dbff202ea5a18f00a04bff2f895e30701ccc0421a3841003f0fe01e7a144f9e22c0e1eb776ef81bfd18f0ef2cff5e310344c4f17de9abaa4080b84561b881803fdff8a5a6be84800ade23f2b72b1c01167f6b9a803a1060f9a9140606227cf3dc8b10a0bbcc8619f00d51a1813003c2462f29a347c062c912e040f84af05b01c80f02b801510a1cfd02678258c06b0c841c8e912c040ba62519200458fcad0a042827c0f22b360c74f23b030e9f6602e45f223f0a481b589e222015bd9da117a0df4d0802a13d156e46c0caef7ec504b44e80e13fd86006a0fa79a4055d7d0e062001801a041cb021481a28990a4a04148515a0965c80dffd280013a05506d80a38f0400354fd3d3e1b1820a072020e5680f2065a7190f0c602ccda0ff1b7846f6b991700b0e6486023f94981a692954f3103dd028215927e03230b583201c87f60fc2ff5c1f38380909f92e07060954f08c005852a129035b07c7301066041f8766792009700c0af0f89f6ae04423803acf04b035680a212a07f010aa8b9805db181f105c061c0c2f11f08ccbcf343636b609d1160ea1f3340c792b1802616c00df086e8fe7ea880a2aa9f13a040801dfe5600ec721260bad7da09d848015bb8ce0c0db851e10d98732a7a0ef0020e5c0033e00f0bcc47fb0c1450d8f9a405e05c46d50f04d8210f6703e06d43f7430236921f131fa74356192acbbfb409c005282760e30cec68910c3fdcea55020a2dd8ed7901e690dd138000c50440871c0870856f411d0173a0ec59b5176807ed08505c80de186b005acfdf65200b34d440200030568c9f04b420c0e0ea37b9e70644cfe3bb42af204e804e01ade73f4580f4509c0135f2b70b2a625806504043021417b0913bdfeae08787de019b03f05898046c152c31286f60d1b6f7f7fd06fac90ac36e0f96797766e7380558f4b900e504600a44f45e01557fcfaf6c06b44901ce80ded8bd106017d9de44005c1971604c52806202b4018fbf552a4d08026360898b4b30931cd808f002b6c8ef7aa03f298e26eefd32e31b08586f7186f6bbd50ba88580dd82d18bf50f696089ab1ec8afc39ba4ef02017ffe29051ca73903630b98930018fb8e4e0f7b2fa04d08d826f89d01a8ff3d0288df1830d45c40b0c47e76015b2b60a5df1fdbc5b090af5c755878019b4d9adf1ac073abb412e2f999802d13a090da0b884e329c5b00ece503dc467938080522ac00050ba4697e9a0cf0e42add8b47020e4c80d9460d0208bb43c0f464017e81b043408d698ef791420b9017008d30cc85697e6740e1d11436c5fe382010e0f8790d489c673a5180ec8c82062121a06611e1d334a0c84046806b085e9c00d6065309007e2320c24f25003770b280b04564230004d432748abfc05885190297fcf17881eeafcb18b0c7d773454d605e805a48f478024818182620e5a24880a16cf202b6d951b0a4158639f540d40418175c804e8070dfe7f94f13909091c880030820723c0e70025e02018181782ec0ab4bac01a502016e4e0001297c29207107cda902a2f00280d142db2a58dbd2d51808d1086c63035c025d5ce45a22df0506026a2ee098e417d7a09f47805dd3b51900f7d20a013091b956084e0d11f0960b2007feda3a6fc02780318002f2fcc7903ffc448d330858bb129014f0227a41b6c30303fa617e6d21196009200544fc7ffdf5572201ce2480b541f62a796f800950d28015a0bc0033157803e2da4a6b4d080280270008801110f3ff8511f3879fa9722230c7767160029c81032b01ca196045c00d7836193afead721f470206440254ae04300119fee876a2930584d48100450256d6404200190804c88608f897a67fa016980cf8eb4248800a1320e66737e4bc2a053af02793ad104006cc64e804b81c30ffdcd3694361801484fc6400124091808dd96e98007f0d1150aca0933d16c07b612e8092c0ec64bc46226d000a80e5a7340103ecc22075d86c6402e406402ce028dfbb443c01def25b017b10b04a0ab006cc408f0478033803bc587e5b2a9b4040850950f50f80b8061cfb81868614b0874f16a37e102701c50dbc6033a85442814d00c66f0c34f899e5fec2a86a8323e0984a80e9346dc0f28f2f004f6a292504a89400af204e016b80f12b9a191b2b60ae3c3f0a482540c81f7482c7f10da405500e4801aa45b8940032e0f0152a68600ae406362820390262fe293f163883802d17a0bc006b2010d06be045f0e3759130033203e9043866f9799c59c0da56412fa00e05b42d0978516144f8f663ebcdfc82065802a4464009ffc802e628407901720c0402f0b0980c08545721c483b09a0087d2caa6c086042446c06504a82e014d2800685a129008b148e412608bbf678efc0791004e4038f2e3fbb08f631b30878156800a04808103366c8c7f0bc7c5adca18905d61434beab0960283603399007fb338760b48de8a3eb600ac4c4c405804ac804d0802daf36f151ad8a50c2c95e80a3dbf82ebe7ac818315006be0e64b4a40f25efce3d802707e0e048814b0025081edecf6ce001bf82f6e198814349e9f7a209b02fa17378b059e03e811707b5601d4a19408a81dbf9e2bb9010a7f8f9d7275ced40f7f14ac0ba0fe55f657f3a5702b203102a480e319043481803513a0ac80035b2346017b370892028c8204ff76e3054c265720002eda53b1807d28e0a0c880b202620382df0eff0d7e2c1dad8399bcf00226ddb34042c07174015b6140082003560075054e800a0d4801c4bf217e1a185b6fa048402201c616e0ca000a106340590174b9082ad8e35582c240825f6de8730919fff6502820fe5fc41fc71660166e9880b917e0c680bd53c818d0e39f145801c2001740c3df4e983827d8c9312f203620e37806016860ee0dacc331a0ec2c60aeed75064880fbd4c11c7fe5f85d73a05d7608e830703c9380150ab02773d7510ad03478c0aba79d020b6b15b44c80e3af2a5c06dc04d16404741a388e2f40a180150a6006a214c095013b05f06a080a76a420dcfd55ebce24740bf87eec35703c9380e5d6febfa51a32304f0850923954b0b30a5ab9fb51808a052c16f8068eb609f4a7c4326b4270aee85c029415607a5652200c34f682ded840aca0e9e2c71f85cbeb98003106ac81ef1afafb77077f26fe09542e26c02ddbcce79100aa7f16781f2ab006760cdf0f007f74043fb37006e22a4006284d0802e844c13904e8778f95cb09481b002636078280bd54a0b7430a76d4f9c4fcb5e3cf96417f6e44c45912400aa0950b7bfbb456c005c041c081219b799029301b6a76c241c45f7bfe4555e50d24141ccf24a0b67317ce02387cdd1de43ad08013e00cd428805543bc178a29200b6ef8d38fc2d5774de56e894a0888149c87df08d8fa0b5956dc0053e0042845d70c502fc4caa12f7ebb285ab80ac2e25bfe8400a1208f3fae805a08e0069c027c982e06383005b59b111a59fc630714f6ea4b9d00fea6b8a4002f21c41f712da0b606ac8095e9eabc02fc40d1b9ad8fee5cf84128f0e7cf4db7c4ee1c6ef31220d83171de403ac613a0440aacb88106db41a6c09f0c3f4807b4f7e11b8b8fc7400a6f2f4ad1cfb9804c1d383bff44299e0250f3cddb260570c0e314b0cf16c5ab1cf731be0fc35fc3ad3030fedb36f800a2d30d8cc86f0580012e800c347b5c1f9e4712ec859efb7d061ff85bc4df50abe4cf0d61c83b638b0d8c2960a2b6d6002c8b1b0390b9eb75e31da8955030f7f74335397cc1ef13876fc3cc91f2bdfce9ae137f3bfe89ed6f4301e6c3641c5da35666c9601e867f1e6e8ba9aa0efee047b147a8c45b41eede3c18977f42fd2d5cd3ab1417b0564d101107c621f8d008c69f7cbded96cc0f48030c3fab6064fe893bc459cead0126808f041f49a8d2c07b4f0cbf8a054471767c14800648c00adb7732b0de271c9c64a1b6c7004d0802b65b86b4916fa6d7c0f8fc284079012a1260e6c26d6c20ae6ad970dd62bd6009a0d683059c811f8b80fb4028f346c518b006cc6b0cf54ac970d77b9910d034fd53b35807fc157c64d5200167c12701ca0ba00bc2bd81fdd60958a5f0f7e648906e01616be0ec40c9f1bb01b01e28e04cf813b83a060c08012b27c0fc6d5eb20f0cb88bdde09010ba69c94f9fc326055002acd3028ec144009dc1f9d89d014a01d7b0ad8401c38f3d1f2d91397c7b868816c419bfbdf35a8955103703a605985dfd3dce833711002950fb1458390170427ccf0d307c2920e4e7074d7c0080808e59204884330b98a08025cc545e80372005087a3210f0b39be6919e160150405dc396f37d0009f88e7f9f5bc064eba63453b049c08a0980c9d00888f09900c68fe1f6bebd07f540fc303174089045f0fc02265c406d8b80130055521a9093a11510f1bb0b4d0f2e01765e003cd327000f8fce2f60c205d4410ae034614a568306fc09236760b96c893fc4871b4ff800e0ab49fd02de6408a0012360e98ee5141740750f0f0d57a1012d20e6f7f80a6f0c277e5e19af4780fd0495a533a0c8007d345ca701e24fe32b560076b66f0409f21d5c58c0c45c30b84403ad358093b5ab7b7860b4572a3410eefe3ae6f72d802b21fd8de01bf31b05a69a910055f1306f190f8f718d882990fc75802ff855b7005a12114b236f2960029f27655734037a88060dac99014a7f4d72017196849d35e605800b58950878a349200abba40bf0f2966814c014787e7fb294e3137f9000fa6703fe5c1f70190393c98f1f06641ddd13ee0cacd7ab1fb880d49a7b44d2f46a2d0600090079a180ab28023e7ea081badeae45c1b38360ff03c2f2b3a95de20bfe9de02f167009fa0908700eeac0c08f6cf00fd883f38b821f0520fe2afe95d728805b30fb368fce62ed431400ce9ff88dd7350226fd9c051ae2025065e827ff3c0114fffdef7ffe5f47ff6ffc8505fcfdb7feef6ffd37fc3b8ac2df7865021220a746e16f0c1ac07fa300bf16c6559c15331f1711e0e3e86f263a2b663ef8083f29fc060a7f636afc5f8580b0e095308b28fc8d57560487cc023d51f81baf8bffed055c590238013f7fbe86fda78e5f54c0cfce1072ba5ffaf367d92ffcb5040c8ab25ff82ee0df2e2063e0ac905d21ead89b08481b38276367a42bfa5905605caf80dc3467a2f34527bf874bf25fa013bcb2f80504fc0f72a862391ac0064b0000000049454e44ae426082680063036f726401011e6170706c69636174696f6e2f6a736f6e3b636861727365743d7574662d38004d63017b2270223a22766f7264222c2276223a312c227479223a22696e7363222c22636f6c223a2231343331303833646438383036366162313430326532396164326434633038306531386663613463333532303231663637393766306336356632346539363031222c22696964223a22466c6970706564204f2e502e492e552e4d222c227075626c223a2231455337623370636a527a4667796969714c7278484b546e43686535364c4a485937222c226e6f6e6365223a32342c226d696e746572223a226263317073347973616d6434786b35357736756a3430346672343871727673767967616334796670787a307533366d61707979733438747166396c74356d222c22736967223a22477a3772756c4e356d4f3552747651542f69766457496f4c6c30586831394c553255565654357345707959524a51326950762b4848537230633762555954594c6b4e516c6a395a4a702f542f754b6e4364506a4f4e53303d227d68",
        "c0f2d00e1cce0b839d2e197679cac7a15152ec244338032c7767f72c1332d49a65675a92934efa5e4869b2432a3e00abfc6819367af43949c2edc693b32d23ac05"
      ],
      "is_coinbase": false,
      "sequence": 4294967293
    }
  ],
  "vout": [
    {
      "scriptpubkey": "512085490eedb535a9476b92abea91d4e01b20c223b8a9121309fc8eb7d09090a9d6",
      "scriptpubkey_asm": "OP_PUSHNUM_1 OP_PUSHBYTES_32 85490eedb535a9476b92abea91d4e01b20c223b8a9121309fc8eb7d09090a9d6",
      "scriptpubkey_type": "v1_p2tr",
      "scriptpubkey_address": "bc1ps4ysamd4xk55w6uj404fr48qrvsvygac4yfpxz0u36mapyys48tqf9lt5m",
      "value": 1000
    },
    {
      "scriptpubkey": "51206364bc2d1f4ccff7aab359cc5e90dcefab9fc0746fa397d9e88753b0689c0994",
      "scriptpubkey_asm": "OP_PUSHNUM_1 OP_PUSHBYTES_32 6364bc2d1f4ccff7aab359cc5e90dcefab9fc0746fa397d9e88753b0689c0994",
      "scriptpubkey_type": "v1_p2tr",
      "scriptpubkey_address": "bc1pvdjtctglfn8l024nt8x9ayxua74elsr5d73e0k0gsafmq6yupx2qsnzmcp",
      "value": 7632
    },
    {
      "scriptpubkey": "51200705a5767db892e98125775049b1a13dd9ecdc8aea0df413cabbee683e871012",
      "scriptpubkey_asm": "OP_PUSHNUM_1 OP_PUSHBYTES_32 0705a5767db892e98125775049b1a13dd9ecdc8aea0df413cabbee683e871012",
      "scriptpubkey_type": "v1_p2tr",
      "scriptpubkey_address": "bc1pquz62anahzfwnqf9wagynvdp8hv7ehy2agxlgy72h0hxs058zqfqk8ksyq",
      "value": 2928
    }
  ],
  "size": 7942,
  "weight": 8482,
  "fee": 23331,
  "status": {
    "confirmed": true,
    "block_height": 834464,
    "block_hash": "0000000000000000000177a0869a911a2b65c9bdcd5a8bcb02b68f305bee848e",
    "block_time": 1710308296
  },
  "hex": "02000000000101ee15919ffd9c5dfbb1c26be82c3555e01c667efb78f9e7fceeedb7edb6da99150000000000fdffffff03e80300000000000022512085490eedb535a9476b92abea91d4e01b20c223b8a9121309fc8eb7d09090a9d6d01d0000000000002251206364bc2d1f4ccff7aab359cc5e90dcefab9fc0746fa397d9e88753b0689c0994700b0000000000002251200705a5767db892e98125775049b1a13dd9ecdc8aea0df413cabbee683e8710120340a8238e2cee77427bd48aa31194157d9412f43e39fa881c257e04edf94bc8ae27ccd58cd7d7696f1d060eeb4705d07670b602e20440c0d84931e02e7c9dcbf0fffdc91d20f2d00e1cce0b839d2e197679cac7a15152ec244338032c7767f72c1332d49a65ac0063036f7264010109696d6167652f706e67004d080289504e470d0a1a0a0000000d49484452000001000000010008030000006bac585400000090504c5445f2ce85312d2af4e9817f5e37ebc79ddfd5ccc6bdb58d7a639a9087282077eae6d9c0b9a625a5913f33b9fbd5710000000a0a0afcbe13b87b48925f32c45c5a885d3757504aff7500fda75d877c73ffefe02e5e8adb4e527aaac0b7dbcea9000079a9c1d1272c523d2c1d3157e77e32392a1eaf9e8dd9ccba7b7063514a42deeff5515761f9c12bf4c9470319ffff0000f546511300001b0549444154789ced9d0d7bdbb6ae80dd38f16d1c51895677696b47f3f7d6de73d6ffffef0e091024c00f8972e4d8dd82674d1bdb51fcbe02418892bcc9e43ddee33ddee33ddee33ddee33ddee33ddee33ddee33ddee397890f14977e236f1c1fa2b8f43b7a8b88a9ff350a3ef4c1ffa30df471dffcc305f4f23b01ff40032589ff0b0998fa28797909bde0bf6a03d344e45f1d20de7cc8877cf2ed8086450a3feb20c19830408ffd1202b2fcb182cc5ebee1b037f00ffc26707311bcdee8e20f0c64f39cd1dedcdc64055ca5816e7ea62043cff73d41e37f09015768a0979f0c74f0cbfd0df43799da7859d84414f06b039df0087d2334b814f82708e8a727f620ed6f480b537169de305e0d2ff73ed3f081c6811c0b97060e2304be3531089f0cf82f1ffc641097824b038721e8ef6e5d0cc0f706f8f71cff9a5320dcf93ecaf103033732c24ef14d0802d2c432b2fc83d86f3e7c607b3b14100c824b23cb10fcb3d9ddec84dd4ffb39b5fb6fe2e9f0d2c83234f98cf875053885df2b48e15f7b0d300266e68f669fe9afc6c2507c4b9ee1bf617eae51c01d6400b0eb3fa7e07bb824bf384ebc3e0330026677c6c00c4ac0ec949dcfca607f065c9980bbbb190c0088dbd9dd29fc59f6b480ab328005c026804e81c1b3bfdcfb2915f18f5d1a5ac4746a4be02d94c0ff1bbefb59f20b2d79015765c08d7e5d01b587810202e00fd00d8402620f9786e64193a0a900ba1e0caf8102f8032d06fc2a02667608cca8080e1610e77b24208e4b638bd02970a78b9f53f03a01897628e5e3d2d03c4c27a0fb805bac8403faa0041c01a695f0e9f082b818f211ec03b11dee35d0b57b1d61f710b8888070e9c73d31a32a001361410e0460918160364c6fe4c2f45c01f0dfc1d1001e0f0d1b0649095cce150848e23b03a6084eb115b8c352d03f0cd83e16dfa446c2e505e4f8c9802983b3a945b7c3a044014bf6a4826b1902797e30a05b81993d1c80696006ff9927fb05047b392f402e995e8f8019e4803d18420558053e7e9c96286079904f02f7f0855220a2160bff867f02f453cb3ee34f972870e77e326b42ccd2250424f911d1609bfdeff0e1afdb292d13162b90a705ca6ac0a505cc2ca47ec51dcc006659688ae5105609072920fecc79814b1a88c73d65c0479b032e09205c71902fef13e09320ee85a34d080205a16b10e049ef671eff0e0e0b12ba4a1cdcf83f52c14505c4fcececa74d77b722728756ee52f87d226829409c24ef1e026f622021600afc36035cea03ff4ce227f933124402c8c6e80c021e749ccc4f61cbe00c06c11c8f0664f1cbf267f22014c016cc4733f0908ad304a0031315eefd5040177fca82b840828d82310524f93b3cf4f1c3fed71950292881b200f60b9016f87151580ede44406ca12701a63009dcdb2a58cbfc2fe5f70a92023ae31c02848b5efefb7b2da08241a0ff9bdff124281790ac082502861b305c8f8f8ff0c7fefbd17fff182a102ca9dd0f02665408e693be29708801d7178e2ce0b12f500c1760df6462ff1b055585fcd55df5311e014f26246cfc48560108e8307016015ec383dc9589fcd70a6a435fe1972a4a80a7a7d0c053fcd0e902061bf0d9ed29fd030f4304dcdba8ebbb0ae08d82300322da2716850aba5aa157087860991e3ce6cd7408207e359bcf75f5d3f026fa043c3d7519c89582115340624659d0550393fc7755353791e10f053c3d8d6e60b080ce319f1130cde63f0cfef9bc511f4712906991c73a1e886ae0439980303cbf19fe95829002c410c8f00f3030be80079af663fea004e4f9490028689abc80a7281ff202924dd158cb421de39df3f708787002e6154563625a26204e8d0203390145f7e70d13c01ac224fe8313a0ab5fc515e4053cb1ef1263a35f41d640d91d8ac304f848f33f784d08027e6160f1e9d3a7df7478fe948128198a1474a4c010054305240c7801c03f87e207f1bb89df587cfe140a70d1c73fc0c07488019fe5b919309c0f52fc4e8032064cf1d3f115f8bf3c7301e64bd240c7249053d029a0d840825e38483d16e15b0166e7a300a3e0eb9767cdff4da40008481a28e14f64415e40a9811c7f776b14f2838039ccfd2860b9840478fef6ed598c819c80a2042835301d62209de6923add19317c1080fc0da4c072b95c7df9dda4c0b76756063e670d8cc94f02ca0c648b5d573f18873906027e10a0f1575f21ffbf3d7ffbfdd919b0023e3f45064615302805caf80a04587e30a0f9175f75067c3325c0a7c067e72132d0c3cf9f1c370546e27ff0fc9002abc5e2abdefb5fbe7dd306f41f9900a941d0c11fbdb6f7d4ead904e4c783e75f5a018b6fa604eaf84213c1e7df1202fad33e7e69efc9e5db720343e85949888a03e19b0ec018d002700468095fbefc1e26c000034f22ca0cb843f5570ac84d85e25ff8527bec031d9015f0d5e4beae005f6c0d10fcc5069e9e1206a63d066ecb0d0c1790ee0d18bf3550a1009804be327e37108a0484fc4e40a7815b67e0752320d10644cdc1031750552b13f688e8ab2981cf6622f82a0b80fdbb200722fe32035e409f816e01392bcc0f3d8af56f09fc6a8187449f7eb791e02fac84ece948408702f69af105a443f02f6c0a6803cfcfcf9aff7392bfc0007f3228839d0a8a0d4d08028c2900f835b6ae7f64e0d9b4839f3e07d8e94a9854c09fb97601faf0078309a83e7dd2f8facb277c33dd83bc5bc0534a404e027fd1280268b4673ba1c6ad0219fe458555e0e5e5851f3aa74e8e262a5cf8742201e4927c867f44014103203a008c4a08c06501c3df2ba0f7cc50f0b2948048c1e802321d412440f783c88f068a0444735de78be8db22010506f2c87f40742b9002cc04200568036ddb2f20d3ed0c11301d5dc01fa18078d14404cc808a097801016d9180a21344f2d150c06d87802e037d02fec8be208888ff050c04025e65e0963f1409b8650b05e1cb2e20e0c50a98b7aa4c40aae9ed3a4608057003d1cb5e5103860808f85fd420016907e5029881310594f24b01c86fe7c201060628480bc8bdec14010f05025859447e25f8550b060608488f84948b3710f050c24f067802387e14305f0f11d0e3203b0d66b6f52a010fbd03c01bf009b0f0fcaa45038352a02c0f8ae85f2da01bdd29000109fead9e03c1c066b0804e0591808ecd9c22c0ad7b2660d98ef72b44b10043afc308d89c96025d0a42015d1b192220e0140b3f32e1792b8c5f919f046c31366901e5d7cbe605146faf4f00e72a1610fdc50510ff4687e1dfbcc640b63d1a53005fe44c0a78142a1e4363f075c212c0d26f300136bbddab0ca47be45147001960f99d13f0402f8c044c9c00c207013b8848c0b0abc6a50cc6356209e810200f7cd90bbd8047734b4d080285ae7bc04ff81b45fc231a105805db2a15c08740b700fe2d7ba1ded4760b09e0f09522fc453c065e65a07c53f48a2102c2f92d2f807b30025e8c00474ff8b4421a19385dc1600179fe02018f4901fc512b60e204487cdb0d8e6620da4c7e43fd09206601a7814f8abc3cf222c0ace87fe0c6905ff1e45fd85ed05c3c36e09d0fe3cf6cc63fdf29e0510a784c0888a681e844f9840c00bee2f87b7be560dac04005a92de436c39e2dca80c7a48020db53eb823402c04088bf76fc3903850eb2e8998df0e7fa4b002b0289f1c0fcc872e053820b60f89a7feff8b581213bb0843ab391f0892102fc90778f444fc709c0eeaca4dddfb6ad4b00a5fa0c8c809f8f0efe40c083dfd5b100df0046f3412440effef5bae50560700e8c45df2de081c36504102c7d49f1f37b6b2d3e085803ff419518385bf4264030ca7dc247c8f1e0a79ce002cca2e09a2500e757cbb7373044003fbc19146c9ba60eda04800ee0e0052c4dbcb5812e7e79a5fc40e69c00e505c801b0b4919b0d4f8faa5a9cc63fded5117901940084bf34278cc6e6afaaed49fca309e8e23f707c3a653636bf369054d0c37f5e017397001e1f4f1934e319f097656cb7dbdd6e20bf10f09a3210f3af7d02307ce46f9bd10c2caac0c08e7fc0432f7f24e0540382df0ab0fc07866f4f19d90bca5f4d6f2f469206faa173024203b2f30f8f89fa04d00038307c5519feaa852b4a13ab64834d0802e0214cd3d534af30107038c0c7ae48e81202e20450f6363ae03797d4d23ae1a90e0e8e592b788d81704f76823305613ab80d5217043df01e05f81cc504a0c5123450f5e3ca301b61896f36d432039b4106a25c0ef7737408984a062f6021042c8d802ae0dfb1980f5460eb881cfab025f79dda6c5e25205c014d44aa1670019e7f29f84d05f4ec75adbfe08564f3baaefbe1ed357878eec1449336604ec4942be8021d124901954f00dc758ede2c1c9abf953750551d89005bc0ed38fca619c3c0b904c0b54156001d0a38fca6f102ac82dadd6bccb9f10cab2da0f095f0b75b23a04d1b582cca0d9c4100f1cf2b1010e29b375e7301352d99f8b18241f88a76bec37fd14f1afed619584803c502c6e227010b108037ccb45c00e1e37d5546c086f86b343057de41c8afc4dec7ab0f5080b3067b5dd4c54b0930d519af8fdcaf889ff0f51baf0dbff202ea5a18f00a04bff2f895e30701ccc0421a3841003f0fe01e7a144f9e22c0e1eb776ef81bfd18f0ef2cff5e310344c4f17de9abaa4080b84561b881803fdff8a5a6be84800ade23f2b72b1c01167f6b9a803a1060f9a9140606227cf3dc8b10a0bbcc8619f00d51a1813003c2462f29a347c062c912e040f84af05b01c80f02b801510a1cfd02678258c06b0c841c8e912c040ba62519200458fcad0a042827c0f22b360c74f23b030e9f6602e45f223f0a481b589e222015bd9da117a0df4d0802a13d156e46c0caef7ec504b44e80e13fd86006a0fa79a4055d7d0e062001801a041cb021481a28990a4a04148515a0965c80dffd280013a05506d80a38f0400354fd3d3e1b1820a072020e5680f2065a7190f0c602ccda0ff1b7846f6b991700b0e6486023f94981a692954f3103dd028215927e03230b583201c87f60fc2ff5c1f38380909f92e07060954f08c005852a129035b07c7301066041f8766792009700c0af0f89f6ae04423803acf04b035680a212a07f010aa8b9805db181f105c061c0c2f11f08ccbcf343636b609d1160ea1f3340c792b1802616c00df086e8fe7ea880a2aa9f13a040801dfe5600ec721260bad7da09d848015bb8ce0c0db851e10d98732a7a0ef0020e5c0033e00f0bcc47fb0c1450d8f9a405e05c46d50f04d8210f6703e06d43f7430236921f131fa74356192acbbfb409c005282760e30cec68910c3fdcea55020a2dd8ed7901e690dd138000c50440871c0870856f411d0173a0ec59b5176807ed08505c80de186b005acfdf65200b34d440200030568c9f04b420c0e0ea37b9e70644cfe3bb42af204e804e01ade73f4580f4509c0135f2b70b2a625806504043021417b0913bdfeae08787de019b03f05898046c152c31286f60d1b6f7f7fd06fac90ac36e0f96797766e7380558f4b900e504600a44f45e01557fcfaf6c06b44901ce80ded8bd106017d9de44005c1971604c52806202b4018fbf552a4d08026360898b4b30931cd808f002b6c8ef7aa03f298e26eefd32e31b08586f7186f6bbd50ba88580dd82d18bf50f696089ab1ec8afc39ba4ef02017ffe29051ca73903630b98930018fb8e4e0f7b2fa04d08d826f89d01a8ff3d0288df1830d45c40b0c47e76015b2b60a5df1fdbc5b090af5c755878019b4d9adf1ac073abb412e2f999802d13a090da0b884e329c5b00ece503dc467938080522ac00050ba4697e9a0cf0e42add8b47020e4c80d9460d0208bb43c0f464017e81b043408d698ef791420b9017008d30cc85697e6740e1d11436c5fe382010e0f8790d489c673a5180ec8c82062121a06611e1d334a0c84046806b085e9c00d6065309007e2320c24f25003770b280b04564230004d432748abfc05885190297fcf17881eeafcb18b0c7d773454d605e805a48f478024818182620e5a24880a16cf202b6d951b0a4158639f540d40418175c804e8070dfe7f94f13909091c880030820723c0e70025e02018181782ec0ab4bac01a502016e4e0001297c29207107cda902a2f00280d142db2a58dbd2d51808d1086c63035c025d5ce45a22df0506026a2ee098e417d7a09f47805dd3b51900f7d20a013091b956084e0d11f0960b2007feda3a6fc02780318002f2fcc7903ffc448d330858bb129014f0227a41b6c30303fa617e6d21196009200544fc7ffdf5572201ce2480b541f62a796f800950d28015a0bc0033157803e2da4a6b4d080280270008801110f3ff8511f3879fa9722230c7767160029c81032b01ca196045c00d7836193afead721f470206440254ae04300119fee876a2930584d48100450256d6404200190804c88608f897a67fa016980cf8eb4248800a1320e66737e4bc2a053af02793ad104006cc64e804b81c30ffdcd3694361801484fc6400124091808dd96e98007f0d1150aca0933d16c07b612e8092c0ec64bc46226d000a80e5a7340103ecc22075d86c6402e406402ce028dfbb443c01def25b017b10b04a0ab006cc408f0478033803bc587e5b2a9b4040850950f50f80b8061cfb81868614b0874f16a37e102701c50dbc6033a85442814d00c66f0c34f899e5fec2a86a8323e0984a80e9346dc0f28f2f004f6a292504a89400af204e016b80f12b9a191b2b60ae3c3f0a482540c81f7482c7f10da405500e4801aa45b8940032e0f0152a68600ae406362820390262fe293f163883802d17a0bc006b2010d06be045f0e3759130033203e9043866f9799c59c0da56412fa00e05b42d0978516144f8f663ebcdfc82065802a4464009ffc802e628407901720c0402f0b0980c08545721c483b09a0087d2caa6c086042446c06504a82e014d2800685a129008b148e412608bbf678efc0791004e4038f2e3fbb08f631b30878156800a04808103366c8c7f0bc7c5adca18905d61434beab0960283603399007fb338760b48de8a3eb600ac4c4c405804ac804d0802daf36f151ad8a50c2c95e80a3dbf82ebe7ac818315006be0e64b4a40f25efce3d802707e0e048814b0025081edecf6ce001bf82f6e198814349e9f7a209b02fa17378b059e03e811707b5601d4a19408a81dbf9e2bb9010a7f8f9d7275ced40f7f14ac0ba0fe55f657f3a5702b203102a480e319043481803513a0ac80035b2346017b370892028c8204ff76e3054c265720002eda53b1807d28e0a0c880b202620382df0eff0d7e2c1dad8399bcf00226ddb34042c07174015b6140082003560075054e800a0d4801c4bf217e1a185b6fa048402201c616e0ca000a106340590174b9082ad8e35582c240825f6de8730919fff6502820fe5fc41fc71660166e9880b917e0c680bd53c818d0e39f145801c2001740c3df4e983827d8c9312f203620e37806016860ee0dacc331a0ec2c60aeed75064880fbd4c11c7fe5f85d73a05d7608e830703c9380150ab02773d7510ad03478c0aba79d020b6b15b44c80e3af2a5c06dc04d16404741a388e2f40a180150a6006a214c095013b05f06a080a76a420dcfd55ebce24740bf87eec35703c9380e5d6febfa51a32304f0850923954b0b30a5ab9fb51808a052c16f8068eb609f4a7c4326b4270aee85c029415607a5652200c34f682ded840aca0e9e2c71f85cbeb98003106ac81ef1afafb77077f26fe09542e26c02ddbcce79100aa7f16781f2ab006760cdf0f007f74043fb37006e22a4006284d0802e844c13904e8778f95cb09481b002636078280bd54a0b7430a76d4f9c4fcb5e3cf96417f6e44c45912400aa0950b7bfbb456c005c041c081219b799029301b6a76c241c45f7bfe4555e50d24141ccf24a0b67317ce02387cdd1de43ad08013e00cd428805543bc178a29200b6ef8d38fc2d5774de56e894a0888149c87df08d8fa0b5956dc0053e0042845d70c502fc4caa12f7ebb285ab80ac2e25bfe8400a1208f3fae805a08e0069c027c982e06383005b59b111a59fc630714f6ea4b9d00fea6b8a4002f21c41f712da0b606ac8095e9eabc02fc40d1b9ad8fee5cf84128f0e7cf4db7c4ee1c6ef31220d83171de403ac613a0440aacb88106db41a6c09f0c3f4807b4f7e11b8b8fc7400a6f2f4ad1cfb9804c1d383bff44299e0250f3cddb260570c0e314b0cf16c5ab1cf731be0fc35fc3ad3030fedb36f800a2d30d8cc86f0580012e800c347b5c1f9e4712ec859efb7d061ff85bc4df50abe4cf0d61c83b638b0d8c2960a2b6d6002c8b1b0390b9eb75e31da8955030f7f74335397cc1ef13876fc3cc91f2bdfce9ae137f3bfe89ed6f4301e6c3641c5da35666c9601e867f1e6e8ba9aa0efee047b147a8c45b41eede3c18977f42fd2d5cd3ab1417b0564d101107c621f8d008c69f7cbded96cc0f48030c3fab6064fe893bc459cead0126808f041f49a8d2c07b4f0cbf8a054471767c14800648c00adb7732b0de271c9c64a1b6c7004d0802b65b86b4916fa6d7c0f8fc284079012a1260e6c26d6c20ae6ad970dd62bd6009a0d683059c811f8b80fb4028f346c518b006cc6b0cf54ac970d77b9910d034fd53b35807fc157c64d5200167c12701ca0ba00bc2bd81fdd60958a5f0f7e648906e01616be0ec40c9f1bb01b01e28e04cf813b83a060c08012b27c0fc6d5eb20f0cb88bdde09010ba69c94f9fc326055002acd3028ec144009dc1f9d89d014a01d7b0ad8401c38f3d1f2d91397c7b868816c419bfbdf35a8955103703a605985dfd3dce833711002950fb1458390170427ccf0d307c2920e4e7074d7c0080808e59204884330b98a08025cc545e80372005087a3210f0b39be6919e160150405dc396f37d0009f88e7f9f5bc064eba63453b049c08a0980c9d00888f09900c68fe1f6bebd07f540fc303174089045f0fc02265c406d8b80130055521a9093a11510f1bb0b4d0f2e01765e003cd327000f8fce2f60c205d4410ae034614a568306fc09236760b96c893fc4871b4ff800e0ab49fd02de6408a0012360e98ee5141740750f0f0d57a1012d20e6f7f80a6f0c277e5e19af4780fd0495a533a0c8007d345ca701e24fe32b560076b66f0409f21d5c58c0c45c30b84403ad358093b5ab7b7860b4572a3410eefe3ae6f72d802b21fd8de01bf31b05a69a910055f1306f190f8f718d882990fc75802ff855b7005a12114b236f2960029f27655734037a88060dac99014a7f4d72017196849d35e605800b58950878a349200abba40bf0f2966814c014787e7fb294e3137f9000fa6703fe5c1f70190393c98f1f06641ddd13ee0cacd7ab1fb880d49a7b44d2f46a2d0600090079a180ab28023e7ea081badeae45c1b38360ff03c2f2b3a95de20bfe9de02f167009fa0908700eeac0c08f6cf00fd883f38b821f0520fe2afe95d728805b30fb368fce62ed431400ce9ff88dd7350226fd9c051ae2025065e827ff3c0114fffdef7ffe5f47ff6ffc8505fcfdb7feef6ffd37fc3b8ac2df7865021220a746e16f0c1ac07fa300bf16c6559c15331f1711e0e3e86f263a2b663ef8083f29fc060a7f636afc5f8580b0e095308b28fc8d57560487cc023d51f81baf8bffed055c590238013f7fbe86fda78e5f54c0cfce1072ba5ffaf367d92ffcb5040c8ab25ff82ee0df2e2063e0ac905d21ead89b08481b38276367a42bfa5905605caf80dc3467a2f34527bf874bf25fa013bcb2f80504fc0f72a862391ac0064b0000000049454e44ae426082680063036f726401011e6170706c69636174696f6e2f6a736f6e3b636861727365743d7574662d38004d63017b2270223a22766f7264222c2276223a312c227479223a22696e7363222c22636f6c223a2231343331303833646438383036366162313430326532396164326434633038306531386663613463333532303231663637393766306336356632346539363031222c22696964223a22466c6970706564204f2e502e492e552e4d222c227075626c223a2231455337623370636a527a4667796969714c7278484b546e43686535364c4a485937222c226e6f6e6365223a32342c226d696e746572223a226263317073347973616d6434786b35357736756a3430346672343871727673767967616334796670787a307533366d61707979733438747166396c74356d222c22736967223a22477a3772756c4e356d4f3552747651542f69766457496f4c6c30586831394c553255565654357345707959524a51326950762b4848537230633762555954594c6b4e516c6a395a4a702f542f754b6e4364506a4f4e53303d227d6841c0f2d00e1cce0b839d2e197679cac7a15152ec244338032c7767f72c1332d49a65675a92934efa5e4869b2432a3e00abfc6819367af43949c2edc693b32d23ac0500000000"
}