{
  "txid": "80e54effc477bcf6e47aef64558fa92dd475199f82f49a984e7bb448533a0697",
  "version": 1,
  "locktime": 0,
  "vin": [
    {
      "txid": "0e514328ecf665b428a23068eb98f189063ff9db5f29581fa044372073897a57",
      "vout": 36,
      "prevout": {
        "scriptpubkey": "001448fdaf22233294a91242537455fa1e6112fe1566",
        "scriptpubkey_asm": "OP_0 OP_PUSHBYTES_20 48fdaf22233294a91242537455fa1e6112fe1566",
        "scriptpubkey_type": "v0_p2wpkh",
        "scriptpubkey_address": "bc1qfr767g3rx222jyjz2d69t7s7vyf0u9tx9y4ce6",
        "value": 799521
      },
      "scriptsig": "",
      "scriptsig_asm": "",
      "witness": [
        "304402207582ef7e6946a3cc6188db690afcf4a02fc79acb0a5a761867f60eee23038fb702206185930f56c4d70f97866a6c9d990ad7090c7128d1350dfeabbdd569d4e8c45201",
        "0206f1b235f0f9cfd3f31089ec3acf1aa3b40e04d3e42f92db58490c02f1b752fc"
      ],
      "is_coinbase": false,
      "sequence": 4294967295
    }
  ],
  "vout": [
    {
      "scriptpubkey": "a914eeb3e1334ea2137a6f370e24917ffc18b2f942fc87",
      "scriptpubkey_asm": "OP_HASH160 OP_PUSHBYTES_20 eeb3e1334ea2137a6f370e24917ffc18b2f942fc OP_EQUAL",
      "scriptpubkey_type": "p2sh",
      "scriptpubkey_address": "3PTAETbMP3uHogrFLocT7SHReSLy56MSSN",
      "value": 274727
    },
    {
      "scriptpubkey": "001448fdaf22233294a91242537455fa1e6112fe1566",
      "scriptpubkey_asm": "OP_0 OP_PUSHBYTES_20 48fdaf22233294a91242537455fa1e6112fe1566",
      "scriptpubkey_type": "v0_p2wpkh",
      "scriptpubkey_address": "bc1qfr767g3rx222jyjz2d69t7s7vyf0u9tx9y4ce6",
      "value": 520960
    }
  ],
  "size": 223,
  "weight": 565,
  "fee": 3834,
  "status": {
    "confirmed": true,
    "block_height": 834638,
    "block_hash": "000000000000000000025f742c626208ac87e0b7d15054abb4a19ca2d735a54e",
    "block_time": 1710405325
  },
  "hex": "01000000000101577a8973203744a01f58295fdbf93f0689f198eb6830a228b465f6ec2843510e2400000000ffffffff02273104000000000017a914eeb3e1334ea2137a6f370e24917ffc18b2f942fc8700f307000000000016001448fdaf22233294a91242537455fa1e6112fe15660247304402207582ef7e6946a3cc6188db690afcf4a02fc79acb0a5a761867f60eee23038fb702206185930f56c4d70f97866a6c9d990ad7090c7128d1350dfeabbdd569d4e8c45201210206f1b235f0f9cfd3f31089ec3acf1aa3b40e04d3e42f92db58490c02f1b752fc00000000"
}