{
  "txid": "80ea18f680f86fc90db05e9b6f8bf05eb21a1534caedd72dbfec37bf55818ea4",
  "version": 2,
  "locktime": 0,
  "vin": [
    {
      "txid": "552ddaffcc5e03958140d82f2635918f377dcc6b3411584432a8c92580986cea",
      "vout": 2,
      "prevout": {
        "scriptpubkey": "00149f9b8d4b89304c7ec05fcaa4d43065401f861325",
        "scriptpubkey_asm": "OP_0 OP_PUSHBYTES_20 9f9b8d4b89304c7ec05fcaa4d43065401f861325",
        "scriptpubkey_type": "v0_p2wpkh",
        "scriptpubkey_address": "bc1qn7dc6jufxpx8aszle2jdgvr9gq0cvye9gksctu",
        "value": 138150
      },
      "scriptsig": "",
      "scriptsig_asm": "",
      "witness": [
        "30450221008347a5f973fc983267c9865860733f2b1e54a7b8f8a42ffe217f314170db4d53022062601ebd722daba50e85bbbcc10227a36c25f3d6688309b500aa36d808e537ff01",
        "03cc0d40fbb5fa0b324bad57f7af7a372c0607f83cfd143e71b0d95bea532527de"
      ],
      "is_coinbase": false,
      "sequence": 4294967293
    }
  ],
  "vout": [
    {
      "scriptpubkey": "512007972c4ff3c15b19ed1b027031854a2270b53ccc5458744f9133994cba388b2e",
      "scriptpubkey_asm": "OP_PUSHNUM_1 OP_PUSHBYTES_32 07972c4ff3c15b19ed1b027031854a2270b53ccc5458744f9133994cba388b2e",
      "scriptpubkey_type": "v1_p2tr",
      "scriptpubkey_address": "bc1pq7tjcnlnc9d3nmgmqfcrrp22yfct20xv23v8gnu3xwv5ew3c3vhqkvdjal",
      "value": 1962
    },
    {
      "scriptpubkey": "512007972c4ff3c15b19ed1b027031854a2270b53ccc5458744f9133994cba388b2e",
      "scriptpubkey_asm": "OP_PUSHNUM_1 OP_PUSHBYTES_32 07972c4ff3c15b19ed1b027031854a2270b53ccc5458744f9133994cba388b2e",
      "scriptpubkey_type": "v1_p2tr",
      "scriptpubkey_address": "bc1pq7tjcnlnc9d3nmgmqfcrrp22yfct20xv23v8gnu3xwv5ew3c3vhqkvdjal",
      "value": 1962
    },
    {
      "scriptpubkey": "512007972c4ff3c15b19ed1b027031854a2270b53ccc5458744f9133994cba388b2e",
      "scriptpubkey_asm": "OP_PUSHNUM_1 OP_PUSHBYTES_32 07972c4ff3c15b19ed1b027031854a2270b53ccc5458744f9133994cba388b2e",
      "scriptpubkey_type": "v1_p2tr",
      "scriptpubkey_address": "bc1pq7tjcnlnc9d3nmgmqfcrrp22yfct20xv23v8gnu3xwv5ew3c3vhqkvdjal",
      "value": 1962
    },
    {
      "scriptpubkey": "512007972c4ff3c15b19ed1b027031854a2270b53ccc5458744f9133994cba388b2e",
      "scriptpubkey_asm": "OP_PUSHNUM_1 OP_PUSHBYTES_32 07972c4ff3c15b19ed1b027031854a2270b53ccc5458744f9133994cba388b2e",
      "scriptpubkey_type": "v1_p2tr",
      "scriptpubkey_address": "bc1pq7tjcnlnc9d3nmgmqfcrrp22yfct20xv23v8gnu3xwv5ew3c3vhqkvdjal",
      "value": 1962
    },
    {
      "scriptpubkey": "512007972c4ff3c15b19ed1b027031854a2270b53ccc5458744f9133994cba388b2e",
      "scriptpubkey_asm": "OP_PUSHNUM_1 OP_PUSHBYTES_32 07972c4ff3c15b19ed1b027031854a2270b53ccc5458744f9133994cba388b2e",
      "scriptpubkey_type": "v1_p2tr",
      "scriptpubkey_address": "bc1pq7tjcnlnc9d3nmgmqfcrrp22yfct20xv23v8gnu3xwv5ew3c3vhqkvdjal",
      "value": 1962
    },
    {
      "scriptpubkey": "512007972c4ff3c15b19ed1b027031854a2270b53ccc5458744f9133994cba388b2e",
      "scriptpubkey_asm": "OP_PUSHNUM_1 OP_PUSHBYTES_32 07972c4ff3c15b19ed1b027031854a2270b53ccc5458744f9133994cba388b2e",
      "scriptpubkey_type": "v1_p2tr",
      "scriptpubkey_address": "bc1pq7tjcnlnc9d3nmgmqfcrrp22yfct20xv23v8gnu3xwv5ew3c3vhqkvdjal",
      "value": 1962
    },
    {
      "scriptpubkey": "512007972c4ff3c15b19ed1b027031854a2270b53ccc5458744f9133994cba388b2e",
      "scriptpubkey_asm": "OP_PUSHNUM_1 OP_PUSHBYTES_32 07972c4ff3c15b19ed1b027031854a2270b53ccc5458744f9133994cba388b2e",
      "scriptpubkey_type": "v1_p2tr",
      "scriptpubkey_address": "bc1pq7tjcnlnc9d3nmgmqfcrrp22yfct20xv23v8gnu3xwv5ew3c3vhqkvdjal",
      "value": 1962
    },
    {
      "scriptpubkey": "512007972c4ff3c15b19ed1b027031854a2270b53ccc5458744f9133994cba388b2e",
      "scriptpubkey_asm": "OP_PUSHNUM_1 OP_PUSHBYTES_32 07972c4ff3c15b19ed1b027031854a2270b53ccc5458744f9133994cba388b2e",
      "scriptpubkey_type": "v1_p2tr",
      "scriptpubkey_address": "bc1pq7tjcnlnc9d3nmgmqfcrrp22yfct20xv23v8gnu3xwv5ew3c3vhqkvdjal",
      "value": 1962
    },
    {
      "scriptpubkey": "512007972c4ff3c15b19ed1b027031854a2270b53ccc5458744f9133994cba388b2e",
      "scriptpubkey_asm": "OP_PUSHNUM_1 OP_PUSHBYTES_32 07972c4ff3c15b19ed1b027031854a2270b53ccc5458744f9133994cba388b2e",
      "scriptpubkey_type": "v1_p2tr",
      "scriptpubkey_address": "bc1pq7tjcnlnc9d3nmgmqfcrrp22yfct20xv23v8gnu3xwv5ew3c3vhqkvdjal",
      "value": 1962
    },
    {
      "scriptpubkey": "512007972c4ff3c15b19ed1b027031854a2270b53ccc5458744f9133994cba388b2e",
      "scriptpubkey_asm": "OP_PUSHNUM_1 OP_PUSHBYTES_32 07972c4ff3c15b19ed1b027031854a2270b53ccc5458744f9133994cba388b2e",
      "scriptpubkey_type": "v1_p2tr",
      "scriptpubkey_address": "bc1pq7tjcnlnc9d3nmgmqfcrrp22yfct20xv23v8gnu3xwv5ew3c3vhqkvdjal",
      "value": 1962
    },
    {
      "scriptpubkey": "512007972c4ff3c15b19ed1b027031854a2270b53ccc5458744f9133994cba388b2e",
      "scriptpubkey_asm": "OP_PUSHNUM_1 OP_PUSHBYTES_32 07972c4ff3c15b19ed1b027031854a2270b53ccc5458744f9133994cba388b2e",
      "scriptpubkey_type": "v1_p2tr",
      "scriptpubkey_address": "bc1pq7tjcnlnc9d3nmgmqfcrrp22yfct20xv23v8gnu3xwv5ew3c3vhqkvdjal",
      "value": 1962
    },
    {
      "scriptpubkey": "512007972c4ff3c15b19ed1b027031854a2270b53ccc5458744f9133994cba388b2e",
      "scriptpubkey_asm": "OP_PUSHNUM_1 OP_PUSHBYTES_32 07972c4ff3c15b19ed1b027031854a2270b53ccc5458744f9133994cba388b2e",
      "scriptpubkey_type": "v1_p2tr",
      "scriptpubkey_address": "bc1pq7tjcnlnc9d3nmgmqfcrrp22yfct20xv23v8gnu3xwv5ew3c3vhqkvdjal",
      "value": 1962
    },
    {
      "scriptpubkey": "512007972c4ff3c15b19ed1b027031854a2270b53ccc5458744f9133994cba388b2e",
      "scriptpubkey_asm": "OP_PUSHNUM_1 OP_PUSHBYTES_32 07972c4ff3c15b19ed1b027031854a2270b53ccc5458744f9133994cba388b2e",
      "scriptpubkey_type": "v1_p2tr",
      "scriptpubkey_address": "bc1pq7tjcnlnc9d3nmgmqfcrrp22yfct20xv23v8gnu3xwv5ew3c3vhqkvdjal",
      "value": 1962
    },
    {
      "scriptpubkey": "512007972c4ff3c15b19ed1b027031854a2270b53ccc5458744f9133994cba388b2e",
      "scriptpubkey_asm": "OP_PUSHNUM_1 OP_PUSHBYTES_32 07972c4ff3c15b19ed1b027031854a2270b53ccc5458744f9133994cba388b2e",
      "scriptpubkey_type": "v1_p2tr",
      "scriptpubkey_address": "bc1pq7tjcnlnc9d3nmgmqfcrrp22yfct20xv23v8gnu3xwv5ew3c3vhqkvdjal",
      "value": 1962
    },
    {
      "scriptpubkey": "512007972c4ff3c15b19ed1b027031854a2270b53ccc5458744f9133994cba388b2e",
      "scriptpubkey_asm": "OP_PUSHNUM_1 OP_PUSHBYTES_32 07972c4ff3c15b19ed1b027031854a2270b53ccc5458744f9133994cba388b2e",
      "scriptpubkey_type": "v1_p2tr",
      "scriptpubkey_address": "bc1pq7tjcnlnc9d3nmgmqfcrrp22yfct20xv23v8gnu3xwv5ew3c3vhqkvdjal",
      "value": 1962
    },
    {
      "scriptpubkey": "512007972c4ff3c15b19ed1b027031854a2270b53ccc5458744f9133994cba388b2e",
      "scriptpubkey_asm": "OP_PUSHNUM_1 OP_PUSHBYTES_32 07972c4ff3c15b19ed1b027031854a2270b53ccc5458744f9133994cba388b2e",
      "scriptpubkey_type": "v1_p2tr",
      "scriptpubkey_address": "bc1pq7tjcnlnc9d3nmgmqfcrrp22yfct20xv23v8gnu3xwv5ew3c3vhqkvdjal",
      "value": 1962
    },
    {
      "scriptpubkey": "512007972c4ff3c15b19ed1b027031854a2270b53ccc5458744f9133994cba388b2e",
      "scriptpubkey_asm": "OP_PUSHNUM_1 OP_PUSHBYTES_32 07972c4ff3c15b19ed1b027031854a2270b53ccc5458744f9133994cba388b2e",
      "scriptpubkey_type": "v1_p2tr",
      "scriptpubkey_address": "bc1pq7tjcnlnc9d3nmgmqfcrrp22yfct20xv23v8gnu3xwv5ew3c3vhqkvdjal",
      "value": 1962
    },
    {
      "scriptpubkey": "512007972c4ff3c15b19ed1b027031854a2270b53ccc5458744f9133994cba388b2e",
      "scriptpubkey_asm": "OP_PUSHNUM_1 OP_PUSHBYTES_32 07972c4ff3c15b19ed1b027031854a2270b53ccc5458744f9133994cba388b2e",
      "scriptpubkey_type": "v1_p2tr",
      "scriptpubkey_address": "bc1pq7tjcnlnc9d3nmgmqfcrrp22yfct20xv23v8gnu3xwv5ew3c3vhqkvdjal",
      "value": 1962
    },
    {
      "scriptpubkey": "512007972c4ff3c15b19ed1b027031854a2270b53ccc5458744f9133994cba388b2e",
      "scriptpubkey_asm": "OP_PUSHNUM_1 OP_PUSHBYTES_32 07972c4ff3c15b19ed1b027031854a2270b53ccc5458744f9133994cba388b2e",
      "scriptpubkey_type": "v1_p2tr",
      "scriptpubkey_address": "bc1pq7tjcnlnc9d3nmgmqfcrrp22yfct20xv23v8gnu3xwv5ew3c3vhqkvdjal",
      "value": 1962
    },
    {
      "scriptpubkey": "512007972c4ff3c15b19ed1b027031854a2270b53ccc5458744f9133994cba388b2e",
      "scriptpubkey_asm": "OP_PUSHNUM_1 OP_PUSHBYTES_32 07972c4ff3c15b19ed1b027031854a2270b53ccc5458744f9133994cba388b2e",
      "scriptpubkey_type": "v1_p2tr",
      "scriptpubkey_address": "bc1pq7tjcnlnc9d3nmgmqfcrrp22yfct20xv23v8gnu3xwv5ew3c3vhqkvdjal",
      "value": 1962
    },
    {
      "scriptpubkey": "512007972c4ff3c15b19ed1b027031854a2270b53ccc5458744f9133994cba388b2e",
      "scriptpubkey_asm": "OP_PUSHNUM_1 OP_PUSHBYTES_32 07972c4ff3c15b19ed1b027031854a2270b53ccc5458744f9133994cba388b2e",
      "scriptpubkey_type": "v1_p2tr",
      "scriptpubkey_address": "bc1pq7tjcnlnc9d3nmgmqfcrrp22yfct20xv23v8gnu3xwv5ew3c3vhqkvdjal",
      "value": 1962
    },
    {
      "scriptpubkey": "512007972c4ff3c15b19ed1b027031854a2270b53ccc5458744f9133994cba388b2e",
      "scriptpubkey_asm": "OP_PUSHNUM_1 OP_PUSHBYTES_32 07972c4ff3c15b19ed1b027031854a2270b53ccc5458744f9133994cba388b2e",
      "scriptpubkey_type": "v1_p2tr",
      "scriptpubkey_address": "bc1pq7tjcnlnc9d3nmgmqfcrrp22yfct20xv23v8gnu3xwv5ew3c3vhqkvdjal",
      "value": 1962
    },
    {
      "scriptpubkey": "512007972c4ff3c15b19ed1b027031854a2270b53ccc5458744f9133994cba388b2e",
      "scriptpubkey_asm": "OP_PUSHNUM_1 OP_PUSHBYTES_32 07972c4ff3c15b19ed1b027031854a2270b53ccc5458744f9133994cba388b2e",
      "scriptpubkey_type": "v1_p2tr",
      "scriptpubkey_address": "bc1pq7tjcnlnc9d3nmgmqfcrrp22yfct20xv23v8gnu3xwv5ew3c3vhqkvdjal",
      "value": 1962
    },
    {
      "scriptpubkey": "512007972c4ff3c15b19ed1b027031854a2270b53ccc5458744f9133994cba388b2e",
      "scriptpubkey_asm": "OP_PUSHNUM_1 OP_PUSHBYTES_32 07972c4ff3c15b19ed1b027031854a2270b53ccc5458744f9133994cba388b2e",
      "scriptpubkey_type": "v1_p2tr",
      "scriptpubkey_address": "bc1pq7tjcnlnc9d3nmgmqfcrrp22yfct20xv23v8gnu3xwv5ew3c3vhqkvdjal",
      "value": 1962
    },
    {
      "scriptpubkey": "00149f9b8d4b89304c7ec05fcaa4d43065401f861325",
      "scriptpubkey_asm": "OP_0 OP_PUSHBYTES_20 9f9b8d4b89304c7ec05fcaa4d43065401f861325",
      "scriptpubkey_type": "v0_p2wpkh",
      "scriptpubkey_address": "bc1qn7dc6jufxpx8aszle2jdgvr9gq0cvye9gksctu",
      "value": 77358
    }
  ],
  "size": 1224,
  "weight": 4566,
  "fee": 13704,
  "status": {
    "confirmed": true,
    "block_height": 834460,
    "block_hash": "00000000000000000000484a79b643b2524bbce82e5d8a442013fa5b8905ed98",
    "block_time": 1710307468
  },
  "hex": "02000000000101ea6c988025c9a832445811346bcc7d378f9135262fd8408195035eccffda2d550200000000fdffffff19aa0700000000000022512007972c4ff3c15b19ed1b027031854a2270b53ccc5458744f9133994cba388b2eaa0700000000000022512007972c4ff3c15b19ed1b027031854a2270b53ccc5458744f9133994cba388b2eaa0700000000000022512007972c4ff3c15b19ed1b027031854a2270b53ccc5458744f9133994cba388b2eaa0700000000000022512007972c4ff3c15b19ed1b027031854a2270b53ccc5458744f9133994cba388b2eaa0700000000000022512007972c4ff3c15b19ed1b027031854a2270b53ccc5458744f9133994cba388b2eaa0700000000000022512007972c4ff3c15b19ed1b027031854a2270b53ccc5458744f9133994cba388b2eaa0700000000000022512007972c4ff3c15b19ed1b027031854a2270b53ccc5458744f9133994cba388b2eaa0700000000000022512007972c4ff3c15b19ed1b027031854a2270b53ccc5458744f9133994cba388b2eaa0700000000000022512007972c4ff3c15b19ed1b027031854a2270b53ccc5458744f9133994cba388b2eaa0700000000000022512007972c4ff3c15b19ed1b027031854a2270b53ccc5458744f9133994cba388b2eaa0700000000000022512007972c4ff3c15b19ed1b027031854a2270b53ccc5458744f9133994cba388b2eaa0700000000000022512007972c4ff3c15b19ed1b027031854a2270b53ccc5458744f9133994cba388b2eaa0700000000000022512007972c4ff3c15b19ed1b027031854a2270b53ccc5458744f9133994cba388b2eaa0700000000000022512007972c4ff3c15b19ed1b027031854a2270b53ccc5458744f9133994cba388b2eaa0700000000000022512007972c4ff3c15b19ed1b027031854a2270b53ccc5458744f9133994cba388b2eaa0700000000000022512007972c4ff3c15b19ed1b027031854a2270b53ccc5458744f9133994cba388b2eaa0700000000000022512007972c4ff3c15b19ed1b027031854a2270b53ccc5458744f9133994cba388b2eaa0700000000000022512007972c4ff3c15b19ed1b027031854a2270b53ccc5458744f9133994cba388b2eaa0700000000000022512007972c4ff3c15b19ed1b027031854a2270b53ccc5458744f9133994cba388b2eaa0700000000000022512007972c4ff3c15b19ed1b027031854a2270b53ccc5458744f9133994cba388b2eaa0700000000000022512007972c4ff3c15b19ed1b027031854a2270b53ccc5458744f9133994cba388b2eaa0700000000000022512007972c4ff3c15b19ed1b027031854a2270b53ccc5458744f9133994cba388b2eaa0700000000000022512007972c4ff3c15b19ed1b027031854a2270b53ccc5458744f9133994cba388b2eaa0700000000000022512007972c4ff3c15b19ed1b027031854a2270b53ccc5458744f9133994cba388b2e2e2e0100000000001600149f9b8d4b89304c7ec05fcaa4d43065401f861325024830450221008347a5f973fc983267c9865860733f2b1e54a7b8f8a42ffe217f314170db4d53022062601ebd722daba50e85bbbcc10227a36c25f3d6688309b500aa36d808e537ff012103cc0d40fbb5fa0b324bad57f7af7a372c0607f83cfd143e71b0d95bea532527de00000000"
}