{
  "txid": "80f766a92f0d0231ddaf8793f114142d5c7b9e4c0ff83af3d68abee31d7a97bc",
  "version": 2,
  "locktime": 834565,
  "vin": [
    {
      "txid": "52d55245bd9df320c1dbf14513cc543ba5756b2b4b6102a8dd8a208498969fb2",
      "vout": 0,
      "prevout": {
        "scriptpubkey": "00142ae3df13fafba5b91cb9c78cade5f95a9b40b9fa",
        "scriptpubkey_asm": "OP_0 OP_PUSHBYTES_20 2ae3df13fafba5b91cb9c78cade5f95a9b40b9fa",
        "scriptpubkey_type": "v0_p2wpkh",
        "scriptpubkey_address": "bc1q9t3a7yl6lwjmj89ec7x2me0et2d5pw067a3ek9",
        "value": 142600
      },
      "scriptsig": "",
      "scriptsig_asm": "",
      "witness": [
        "3044022066f05d5874a639d986dc21a5f0c14bc96c323f8db9cec08e1fb80eb421db7c9d0220707093d46480f65a8ad2752feb91b4211b4661e095e9e814bf67e4c42798a44b01",
        "035356be6d42bc80aa9ba87a9a21f1567fab434e2739f4ab0f8b01af06abd9bb1d"
      ],
      "is_coinbase": false,
      "sequence": 4294967293
    }
  ],
  "vout": [
    {
      "scriptpubkey": "0014c318a56234902b4b3c6b793aef488c287080a0c4",
      "scriptpubkey_asm": "OP_0 OP_PUSHBYTES_20 c318a56234902b4b3c6b793aef488c287080a0c4",
      "scriptpubkey_type": "v0_p2wpkh",
      "scriptpubkey_address": "bc1qcvv22c35jq45k0rt0yaw7jyv9pcgpgxylmeegj",
      "value": 50623
    },
    {
      "scriptpubkey": "0014d9d757e10eb82fa52e1c1bf56d7dd688d98b7174",
      "scriptpubkey_asm": "OP_0 OP_PUSHBYTES_20 d9d757e10eb82fa52e1c1bf56d7dd688d98b7174",
      "scriptpubkey_type": "v0_p2wpkh",
      "scriptpubkey_address": "bc1qm8t40cgwhqh62tsur06k6lwk3rvckut5v09pze",
      "value": 82107
    }
  ],
  "size": 222,
  "weight": 561,
  "fee": 9870,
  "status": {
    "confirmed": true,
    "block_height": 834638,
    "block_hash": "000000000000000000025f742c626208ac87e0b7d15054abb4a19ca2d735a54e",
    "block_time": 1710405325
  },
  "hex": "02000000000101b29f969884208adda802614b2b6b75a53b54cc1345f1dbc120f39dbd4552d5520000000000fdffffff02bfc5000000000000160014c318a56234902b4b3c6b793aef488c287080a0c4bb40010000000000160014d9d757e10eb82fa52e1c1bf56d7dd688d98b717402473044022066f05d5874a639d986dc21a5f0c14bc96c323f8db9cec08e1fb80eb421db7c9d0220707093d46480f65a8ad2752feb91b4211b4661e095e9e814bf67e4c42798a44b0121035356be6d42bc80aa9ba87a9a21f1567fab434e2739f4ab0f8b01af06abd9bb1d05bc0c00"
}