{
  "txid": "80fe847f078e1348e40d784a9268cdca5db2948066a4e8dffbcd4eda65b5ba9b",
  "version": 2,
  "locktime": 0,
  "vin": [
    {
      "txid": "9832b8f55fe80f1dee7107538f50f5916f25309794bd171890183d0c0ff25954",
      "vout": 0,
      "prevout": {
        "scriptpubkey": "5120326af9cac7ddccbd9e8a823d63139edfb5d9b4ebd47d09b2c62b3a4a8f752be8",
        "scriptpubkey_asm": "OP_PUSHNUM_1 OP_PUSHBYTES_32 326af9cac7ddccbd9e8a823d63139edfb5d9b4ebd47d09b2c62b3a4a8f752be8",
        "scriptpubkey_type": "v1_p2tr",
        "scriptpubkey_address": "bc1pxf40njk8mhxtm852sg7kxyu7m76and8t637snvkx9vay4rm4905qmw0frk",
        "value": 546
      },
      "scriptsig": "",
      "scriptsig_asm": "",
      "witness": [
        "78e1cc533e46baa41d9070007a5f6831968b56ab543bd84bb89c4effd65beab12dda3aba184b1dd6bfc5a0871dda7f086788da3c2657bddf56b055fd37a27b15"
      ],
      "is_coinbase": false,
      "sequence": 2147483649
    },
    {
      "txid": "dc413da56cbcd72300177ce78377f36759e5d42bbd6bdde7fddb365d90757da4",
      "vout": 5,
      "prevout": {
        "scriptpubkey": "5120326af9cac7ddccbd9e8a823d63139edfb5d9b4ebd47d09b2c62b3a4a8f752be8",
        "scriptpubkey_asm": "OP_PUSHNUM_1 OP_PUSHBYTES_32 326af9cac7ddccbd9e8a823d63139edfb5d9b4ebd47d09b2c62b3a4a8f752be8",
        "scriptpubkey_type": "v1_p2tr",
        "scriptpubkey_address": "bc1pxf40njk8mhxtm852sg7kxyu7m76and8t637snvkx9vay4rm4905qmw0frk",
        "value": 244860
      },
      "scriptsig": "",
      "scriptsig_asm": "",
      "witness": [
        "46be5e4c44a27c806a1dbfa28663dae40c91c99e9bdad500094b715e9818fc12b66c6970fe912f0fd064330c4a896bf9410ee3ce1f9b13e0d8eccb8042833bbe"
      ],
      "is_coinbase": false,
      "sequence": 2147483649
    }
  ],
  "vout": [
    {
      "scriptpubkey": "5120359927961983f137259d81009c0c20f363108a60516c8bf8b7b30d07e1796e2e",
      "scriptpubkey_asm": "OP_PUSHNUM_1 OP_PUSHBYTES_32 359927961983f137259d81009c0c20f363108a60516c8bf8b7b30d07e1796e2e",
      "scriptpubkey_type": "v1_p2tr",
      "scriptpubkey_address": "bc1pxkvj09ses0cnwfvasyqfcrpq7d33pznq29kgh79hkvxs0ctedchql0ynn4",
      "value": 546
    },
    {
      "scriptpubkey": "5120326af9cac7ddccbd9e8a823d63139edfb5d9b4ebd47d09b2c62b3a4a8f752be8",
      "scriptpubkey_asm": "OP_PUSHNUM_1 OP_PUSHBYTES_32 326af9cac7ddccbd9e8a823d63139edfb5d9b4ebd47d09b2c62b3a4a8f752be8",
      "scriptpubkey_type": "v1_p2tr",
      "scriptpubkey_address": "bc1pxf40njk8mhxtm852sg7kxyu7m76and8t637snvkx9vay4rm4905qmw0frk",
      "value": 242539
    }
  ],
  "size": 312,
  "weight": 846,
  "fee": 2321,
  "status": {
    "confirmed": true,
    "block_height": 834464,
    "block_hash": "0000000000000000000177a0869a911a2b65c9bdcd5a8bcb02b68f305bee848e",
    "block_time": 1710308296
  },
  "hex": "020000000001025459f20f0c3d18901817bd949730256f91f5508f530771ee1d0fe85ff5b83298000000000001000080a47d75905d36dbfde7dd6bbd2bd4e55967f37783e77c170023d7bc6ca53d41dc050000000001000080022202000000000000225120359927961983f137259d81009c0c20f363108a60516c8bf8b7b30d07e1796e2e6bb3030000000000225120326af9cac7ddccbd9e8a823d63139edfb5d9b4ebd47d09b2c62b3a4a8f752be8014078e1cc533e46baa41d9070007a5f6831968b56ab543bd84bb89c4effd65beab12dda3aba184b1dd6bfc5a0871dda7f086788da3c2657bddf56b055fd37a27b15014046be5e4c44a27c806a1dbfa28663dae40c91c99e9bdad500094b715e9818fc12b66c6970fe912f0fd064330c4a896bf9410ee3ce1f9b13e0d8eccb8042833bbe00000000"
}