{
  "txid": "8110af875a723e73df94f7181ebd915eafe93e462c635cb69ef14f78593c961e",
  "version": 2,
  "locktime": 0,
  "vin": [
    {
      "txid": "72fdc391efa4f4d94c7125c3578dce48024050832eba3dbeb6bf143f9a494ce4",
      "vout": 0,
      "prevout": {
        "scriptpubkey": "51203bce29096bc6b13e25819990bb9c37843012d0234373ec740e02f54ced873532",
        "scriptpubkey_asm": "OP_PUSHNUM_1 OP_PUSHBYTES_32 3bce29096bc6b13e25819990bb9c37843012d0234373ec740e02f54ced873532",
        "scriptpubkey_type": "v1_p2tr",
        "scriptpubkey_address": "bc1p808zjzttc6cnufvpnxgth8phsscp95prgde7caqwqt65emv8x5eqj847l8",
        "value": 2702
      },
      "scriptsig": "",
      "scriptsig_asm": "",
      "witness": [
        "4cc1486ffd438d629e54ed95dd1940dca3e70bc39a9d18a78af93719718042772166e357eb0ca871bbb808d0a6d6841e965d18ac26c9aa32e67a18c5ac14319c",
        "20fe6545cdf65b385a0a14c8fa1b47ab046c2ec9a4b9d32e40071b75516871137cac0063036f7264010118746578742f706c61696e3b636861727365743d7574662d3800427b2270223a226272632d3230222c226f70223a227472616e73666572222c227469636b223a2263686178222c22616d74223a22323234372e3639323030313035227d68",
        "c1fe6545cdf65b385a0a14c8fa1b47ab046c2ec9a4b9d32e40071b75516871137c"
      ],
      "is_coinbase": false,
      "sequence": 4294967293
    }
  ],
  "vout": [
    {
      "scriptpubkey": "5120341c883f33282792fc251b86eaa43b58b223aa4b893d652c01d3cc8985a722b7",
      "scriptpubkey_asm": "OP_PUSHNUM_1 OP_PUSHBYTES_32 341c883f33282792fc251b86eaa43b58b223aa4b893d652c01d3cc8985a722b7",
      "scriptpubkey_type": "v1_p2tr",
      "scriptpubkey_address": "bc1pxswgs0en9qne9lp9rwrw4fpmtzez82jt3y7k2tqp60xgnpd8y2ms5xhgek",
      "value": 546
    }
  ],
  "size": 333,
  "weight": 615,
  "fee": 2156,
  "status": {
    "confirmed": true,
    "block_height": 834460,
    "block_hash": "00000000000000000000484a79b643b2524bbce82e5d8a442013fa5b8905ed98",
    "block_time": 1710307468
  },
  "hex": "02000000000101e44c499a3f14bfb6be3dba2e8350400248ce8d57c325714cd9f4a4ef91c3fd720000000000fdffffff012202000000000000225120341c883f33282792fc251b86eaa43b58b223aa4b893d652c01d3cc8985a722b703404cc1486ffd438d629e54ed95dd1940dca3e70bc39a9d18a78af93719718042772166e357eb0ca871bbb808d0a6d6841e965d18ac26c9aa32e67a18c5ac14319c8820fe6545cdf65b385a0a14c8fa1b47ab046c2ec9a4b9d32e40071b75516871137cac0063036f7264010118746578742f706c61696e3b636861727365743d7574662d3800427b2270223a226272632d3230222c226f70223a227472616e73666572222c227469636b223a2263686178222c22616d74223a22323234372e3639323030313035227d6821c1fe6545cdf65b385a0a14c8fa1b47ab046c2ec9a4b9d32e40071b75516871137c00000000"
}