{
  "txid": "81112756accded95114f25478a7aa7d5e7bec6f36a3c415b2ca14e466bbf2e5c",
  "version": 2,
  "locktime": 832119,
  "vin": [
    {
      "txid": "ee57205ac594963fc4173f0e525dcafdac50d296f1e2512c7282f96dbb6d70b1",
      "vout": 1,
      "prevout": {
        "scriptpubkey": "00144df265771bafa155c0f9652a33225274f1881c54",
        "scriptpubkey_asm": "OP_0 OP_PUSHBYTES_20 4df265771bafa155c0f9652a33225274f1881c54",
        "scriptpubkey_type": "v0_p2wpkh",
        "scriptpubkey_address": "bc1qfhex2acm47s4ts8ev54rxgjjwnccs8z599n8z9",
        "value": 29441
      },
      "scriptsig": "",
      "scriptsig_asm": "",
      "witness": [
        "304402201d4b7983542c3b1ffcc423e7db5612ad4389799f8b5f5606137b024ecc908e6c02203fe3bb3bd27123dda9c7e067ea76a670f844998ee35f6350e9b7de8e338ad3b601",
        "03fb809a2c05bbb68304e10b10757694c0319f8e1fdfe61e16065cc9cc51d25d29"
      ],
      "is_coinbase": false,
      "sequence": 4294967294
    }
  ],
  "vout": [
    {
      "scriptpubkey": "00140ad51e400452b857eea8d40521590a658cff98b8",
      "scriptpubkey_asm": "OP_0 OP_PUSHBYTES_20 0ad51e400452b857eea8d40521590a658cff98b8",
      "scriptpubkey_type": "v0_p2wpkh",
      "scriptpubkey_address": "bc1qpt23usqy22u90m4g6szjzkg2vkx0lx9clsgg0t",
      "value": 546
    },
    {
      "scriptpubkey": "001415c757379751a4a72c79ab215f09e54fdd134ae4",
      "scriptpubkey_asm": "OP_0 OP_PUSHBYTES_20 15c757379751a4a72c79ab215f09e54fdd134ae4",
      "scriptpubkey_type": "v0_p2wpkh",
      "scriptpubkey_address": "bc1qzhr4wduh2xj2wtre4vs47z09flw3xjhyluskj9",
      "value": 27400
    }
  ],
  "size": 222,
  "weight": 561,
  "fee": 1495,
  "status": {
    "confirmed": true,
    "block_height": 834464,
    "block_hash": "0000000000000000000177a0869a911a2b65c9bdcd5a8bcb02b68f305bee848e",
    "block_time": 1710308296
  },
  "hex": "02000000000101b1706dbb6df982722c51e2f196d250acfdca5d520e3f17c43f9694c55a2057ee0100000000feffffff0222020000000000001600140ad51e400452b857eea8d40521590a658cff98b8086b00000000000016001415c757379751a4a72c79ab215f09e54fdd134ae40247304402201d4b7983542c3b1ffcc423e7db5612ad4389799f8b5f5606137b024ecc908e6c02203fe3bb3bd27123dda9c7e067ea76a670f844998ee35f6350e9b7de8e338ad3b6012103fb809a2c05bbb68304e10b10757694c0319f8e1fdfe61e16065cc9cc51d25d2977b20c00"
}