{
  "txid": "813c07eb9e82396e43b0a4015cdccd90df4e7b7ffd2cbf66b7e1080567f748f5",
  "version": 2,
  "locktime": 0,
  "vin": [
    {
      "txid": "83b1303fd891f1954cd87c1d288a2a6bca51045bdda40133839448bcf0a9a8be",
      "vout": 10,
      "prevout": {
        "scriptpubkey": "5120336affee877c617ee29e59a0e0e8e7729ddf085b7ab9ba2b2ee7b68c57083124",
        "scriptpubkey_asm": "OP_PUSHNUM_1 OP_PUSHBYTES_32 336affee877c617ee29e59a0e0e8e7729ddf085b7ab9ba2b2ee7b68c57083124",
        "scriptpubkey_type": "v1_p2tr",
        "scriptpubkey_address": "bc1pxd40lm5803shac57txswp688w2wa7zzm02um52ewu7mgc4cgxyjqtshqzq",
        "value": 2862
      },
      "scriptsig": "",
      "scriptsig_asm": "",
      "witness": [
        "7438b7d8f7a8cd280c0397e46b7d2fa1379b2982834ebf1103ece68463b3306600a97cd9d5c48f82787f8b22023512862d3407d2bcb17852b50ab3869cdfaa38",
        "20a6a16c51f892be7b495520b92629e1fc53bf8205e7492ea7bfd0ad0c826f67eaac0063036f726401011e6170706c69636174696f6e2f6a736f6e3b636861727365743d7574662d38004cd37b2270223a22706f772d3230222c226f70223a226d696e74222c227469636b223a2250455045222c22616d74223a2231303030222c22736f6c7574696f6e223a22504550453a62633170687834336d6b6632633236366e63707a6c7a7067307636616b6a73713470386379736379327a706d746e38326e367a616c7667713972663737363a303030303030303030303030303030303030303139393431613561653132383937363539383134343239323533333030353762306461393666336465613163353a3630373832303638313833227d68",
        "c143aa8de0991fd4b61b82f8195f6c835bc5de941a82824922fffa09f24edd0022"
      ],
      "is_coinbase": false,
      "sequence": 4294967295
    }
  ],
  "vout": [
    {
      "scriptpubkey": "5120b9ab1dd92ac2b5a9e022f88287b35db4a00a84f8243045083b5ccea9e85dfb10",
      "scriptpubkey_asm": "OP_PUSHNUM_1 OP_PUSHBYTES_32 b9ab1dd92ac2b5a9e022f88287b35db4a00a84f8243045083b5ccea9e85dfb10",
      "scriptpubkey_type": "v1_p2tr",
      "scriptpubkey_address": "bc1phx43mkf2c266ncpzlzpg0v6akjsq4p8cyscy2zpmtn82n6zalvgq9rf776",
      "value": 546
    }
  ],
  "size": 487,
  "weight": 769,
  "fee": 2316,
  "status": {
    "confirmed": true,
    "block_height": 834460,
    "block_hash": "00000000000000000000484a79b643b2524bbce82e5d8a442013fa5b8905ed98",
    "block_time": 1710307468
  },
  "hex": "02000000000101bea8a9f0bc4894833301a4dd5b0451ca6b2a8a281d7cd84c95f191d83f30b1830a00000000ffffffff012202000000000000225120b9ab1dd92ac2b5a9e022f88287b35db4a00a84f8243045083b5ccea9e85dfb1003407438b7d8f7a8cd280c0397e46b7d2fa1379b2982834ebf1103ece68463b3306600a97cd9d5c48f82787f8b22023512862d3407d2bcb17852b50ab3869cdfaa38fd200120a6a16c51f892be7b495520b92629e1fc53bf8205e7492ea7bfd0ad0c826f67eaac0063036f726401011e6170706c69636174696f6e2f6a736f6e3b636861727365743d7574662d38004cd37b2270223a22706f772d3230222c226f70223a226d696e74222c227469636b223a2250455045222c22616d74223a2231303030222c22736f6c7574696f6e223a22504550453a62633170687834336d6b6632633236366e63707a6c7a7067307636616b6a73713470386379736379327a706d746e38326e367a616c7667713972663737363a303030303030303030303030303030303030303139393431613561653132383937363539383134343239323533333030353762306461393666336465613163353a3630373832303638313833227d6821c143aa8de0991fd4b61b82f8195f6c835bc5de941a82824922fffa09f24edd002200000000"
}