{
  "txid": "8156a3a8fbaa654b1e8b87fd5d059eb6a7aac9c758640527df295252bbe9a5fd",
  "version": 2,
  "locktime": 0,
  "vin": [
    {
      "txid": "9d760f816c49fed61b2f413c86a439ef5cd05afa42ba92ac4133962fa5fbaac2",
      "vout": 1,
      "prevout": {
        "scriptpubkey": "51209a71e412e54e650ae07aee4533e0bd768bcb5ce88e5fecc534699cf8c14940d9",
        "scriptpubkey_asm": "OP_PUSHNUM_1 OP_PUSHBYTES_32 9a71e412e54e650ae07aee4533e0bd768bcb5ce88e5fecc534699cf8c14940d9",
        "scriptpubkey_type": "v1_p2tr",
        "scriptpubkey_address": "bc1pnfc7gyh9fejs4cr6aezn8c9aw69ukh8g3e07e3f5dxw03s2fgrvsnfrcxj",
        "value": 3141
      },
      "scriptsig": "",
      "scriptsig_asm": "",
      "witness": [
        "7e7be9ca0bf1b9f8e830da9f1872a505aaaed45ee58f10df9b24147acbdc7e91b0c3ef99607aa1322d85423f068da21a4ba0ff7b4be4070ad4832aacbac1dc44",
        "20855cf625a86a05bbe827869f775491a54364bd6bb40fe83441919deb5e86c5d4ac0063036f7264010118746578742f706c61696e3b636861727365743d7574662d38004c867b2270223a22746170222c226f70223a22646d742d6d696e74222c22646570223a22666231343834623834663431336431356137616366383563326235393261616233343664336262383831386532313738616530393461346161333261353437656930222c227469636b223a2273616e64626f78222c22626c6b223a22323930373232227d68",
        "c1855cf625a86a05bbe827869f775491a54364bd6bb40fe83441919deb5e86c5d4e4aaa4cbb1fe882c7aaf737d343c3c707b99eec8d2d6d2ee285dc306da44b2a4"
      ],
      "is_coinbase": false,
      "sequence": 4294967293
    }
  ],
  "vout": [
    {
      "scriptpubkey": "5120a9cc25c4ee0b606ac11ce228cd2642706ecefffbb5d44907052aaf6a77119c83",
      "scriptpubkey_asm": "OP_PUSHNUM_1 OP_PUSHBYTES_32 a9cc25c4ee0b606ac11ce228cd2642706ecefffbb5d44907052aaf6a77119c83",
      "scriptpubkey_type": "v1_p2tr",
      "scriptpubkey_address": "bc1p48xzt38wpdsx4sguug5v6fjzwphvallmkh2yjpc992hk5ac3njpsdr9q02",
      "value": 546
    }
  ],
  "size": 434,
  "weight": 716,
  "fee": 2595,
  "status": {
    "confirmed": true,
    "block_height": 834460,
    "block_hash": "00000000000000000000484a79b643b2524bbce82e5d8a442013fa5b8905ed98",
    "block_time": 1710307468
  },
  "hex": "02000000000101c2aafba52f963341ac92ba42fa5ad05cef39a4863c412f1bd6fe496c810f769d0100000000fdffffff012202000000000000225120a9cc25c4ee0b606ac11ce228cd2642706ecefffbb5d44907052aaf6a77119c8303407e7be9ca0bf1b9f8e830da9f1872a505aaaed45ee58f10df9b24147acbdc7e91b0c3ef99607aa1322d85423f068da21a4ba0ff7b4be4070ad4832aacbac1dc44cd20855cf625a86a05bbe827869f775491a54364bd6bb40fe83441919deb5e86c5d4ac0063036f7264010118746578742f706c61696e3b636861727365743d7574662d38004c867b2270223a22746170222c226f70223a22646d742d6d696e74222c22646570223a22666231343834623834663431336431356137616366383563326235393261616233343664336262383831386532313738616530393461346161333261353437656930222c227469636b223a2273616e64626f78222c22626c6b223a22323930373232227d6841c1855cf625a86a05bbe827869f775491a54364bd6bb40fe83441919deb5e86c5d4e4aaa4cbb1fe882c7aaf737d343c3c707b99eec8d2d6d2ee285dc306da44b2a400000000"
}