{
  "txid": "8159c21795df9ca9bf0817d8d1d74fd8594722a23d877a1e639072e839d676f5",
  "version": 2,
  "locktime": 834550,
  "vin": [
    {
      "txid": "72ec6462ad92b69509c66a05ef1b0c41b9f59a4eca6ececf3fd79e259b3d6c40",
      "vout": 6,
      "prevout": {
        "scriptpubkey": "00148a28c19f57887f719536e0edade8e6a8b5175482",
        "scriptpubkey_asm": "OP_0 OP_PUSHBYTES_20 8a28c19f57887f719536e0edade8e6a8b5175482",
        "scriptpubkey_type": "v0_p2wpkh",
        "scriptpubkey_address": "bc1q3g5vr86h3plhr9fkurk6m68x4z63w4yzp5seeq",
        "value": 126338
      },
      "scriptsig": "",
      "scriptsig_asm": "",
      "witness": [
        "304402202b76e6c95cff31f727346ed5f1ca09a006cea3956166a078f84288cc4bdc272a0220286e00345d52e9b2fb0c498767149de96d761415c31e9c41f3ad78cc85f07b3501",
        "038cd4b38ede67f34d4892f43ea31ca70158b0550633d355792466e0b783ee7b2f"
      ],
      "is_coinbase": false,
      "sequence": 4294967293
    },
    {
      "txid": "688239d9cc0c0ed2c115fb13121e95a191345805755c80659da3819b693253fc",
      "vout": 0,
      "prevout": {
        "scriptpubkey": "00147ddbea76157965867c6b7192f8bfd9232650c0f3",
        "scriptpubkey_asm": "OP_0 OP_PUSHBYTES_20 7ddbea76157965867c6b7192f8bfd9232650c0f3",
        "scriptpubkey_type": "v0_p2wpkh",
        "scriptpubkey_address": "bc1q0hd75as409jcvlrtwxf0307eyvn9ps8nn6ex9k",
        "value": 5329
      },
      "scriptsig": "",
      "scriptsig_asm": "",
      "witness": [
        "30440220500dd0169a71650a8df412a9b8f69c960aa7a17e167aeb3f7273e584fd1feec202200ba553fcc293641406b1181a0bc8152d9ba166613bba6a406166d0d4e582a66701",
        "039ef15ec4c17fcebc3062efc9445cffd490b630bda995bf9bcf82ad8b2a00f86a"
      ],
      "is_coinbase": false,
      "sequence": 4294967293
    },
    {
      "txid": "8b6cf4c1ce3a56c6f4c21aed7f92fd18a6534302d8e707a2f93baf32021ba14f",
      "vout": 4,
      "prevout": {
        "scriptpubkey": "001412c2c67a74e478088e6ca26be8c406dfe4a24b4e",
        "scriptpubkey_asm": "OP_0 OP_PUSHBYTES_20 12c2c67a74e478088e6ca26be8c406dfe4a24b4e",
        "scriptpubkey_type": "v0_p2wpkh",
        "scriptpubkey_address": "bc1qztpvv7n5u3uq3rnv5f4733qxmlj2yj6wdekymf",
        "value": 987711
      },
      "scriptsig": "",
      "scriptsig_asm": "",
      "witness": [
        "304402200cb4969dbeed1a76e04648247fb3cf2392cb3a35dce01e0c4d429c91fda9e71502200450c9dcefe3241073ef92f5cc78a73584173fa02e365ba2e609487a9bc1ab7a01",
        "033a594cd90b5b4c80785d36b9eb154c291eaedff366761063ab034769b715e675"
      ],
      "is_coinbase": false,
      "sequence": 4294967293
    }
  ],
  "vout": [
    {
      "scriptpubkey": "0014b60633d3617e2983283f91fc018eacf2cb1fdf24",
      "scriptpubkey_asm": "OP_0 OP_PUSHBYTES_20 b60633d3617e2983283f91fc018eacf2cb1fdf24",
      "scriptpubkey_type": "v0_p2wpkh",
      "scriptpubkey_address": "bc1qkcrr85mp0c5cx2plj87qrr4v7t93lheyhy9wft",
      "value": 1112733
    }
  ],
  "size": 487,
  "weight": 979,
  "fee": 6645,
  "status": {
    "confirmed": true,
    "block_height": 834552,
    "block_hash": "00000000000000000001dd0468a70c94f619251d286585cff57aeb4bd9ede330",
    "block_time": 1710355598
  },
  "hex": "02000000000103406c3d9b259ed73fcfce6eca4e9af5b9410c1bef056ac60995b692ad6264ec720600000000fdfffffffc5332699b81a39d65805c7505583491a1951e1213fb15c1d20e0cccd93982680000000000fdffffff4fa11b0232af3bf9a207e7d8024353a618fd927fed1ac2f4c6563acec1f46c8b0400000000fdffffff019dfa100000000000160014b60633d3617e2983283f91fc018eacf2cb1fdf240247304402202b76e6c95cff31f727346ed5f1ca09a006cea3956166a078f84288cc4bdc272a0220286e00345d52e9b2fb0c498767149de96d761415c31e9c41f3ad78cc85f07b350121038cd4b38ede67f34d4892f43ea31ca70158b0550633d355792466e0b783ee7b2f024730440220500dd0169a71650a8df412a9b8f69c960aa7a17e167aeb3f7273e584fd1feec202200ba553fcc293641406b1181a0bc8152d9ba166613bba6a406166d0d4e582a6670121039ef15ec4c17fcebc3062efc9445cffd490b630bda995bf9bcf82ad8b2a00f86a0247304402200cb4969dbeed1a76e04648247fb3cf2392cb3a35dce01e0c4d429c91fda9e71502200450c9dcefe3241073ef92f5cc78a73584173fa02e365ba2e609487a9bc1ab7a0121033a594cd90b5b4c80785d36b9eb154c291eaedff366761063ab034769b715e675f6bb0c00"
}