{
  "txid": "815d4153654775ff14bfb50fdc22845f5f50b037d2e536f8d79fed1718892981",
  "version": 1,
  "locktime": 0,
  "vin": [
    {
      "txid": "1bf688e140ee15e59fded7d3add986dd8bd93bb9f2db7fc05b66cd85cdbcedc9",
      "vout": 1,
      "prevout": {
        "scriptpubkey": "0014d4ca3fab76b009b1917742a99b3f7113a2d6f98e",
        "scriptpubkey_asm": "OP_0 OP_PUSHBYTES_20 d4ca3fab76b009b1917742a99b3f7113a2d6f98e",
        "scriptpubkey_type": "v0_p2wpkh",
        "scriptpubkey_address": "bc1q6n9rl2mkkqymrythg25ek0m3zw3dd7vwte2zn8",
        "value": 104291
      },
      "scriptsig": "",
      "scriptsig_asm": "",
      "witness": [
        "3044022062280fae94d96feb474a8ca7830dc4a4cb69eed2df65bff19471de5f3bb0540e02204597da612ce55039407b25dca6082f11b79074debd8dc3c8e827505ca22fb7e101",
        "020025f792986ebc98a48f2040ad511975a243db4ebbe406e680bcdb4c5b87b909"
      ],
      "is_coinbase": false,
      "sequence": 4294967295
    }
  ],
  "vout": [
    {
      "scriptpubkey": "76a914e4736b44fc2bc375f7ded9e30236ea89774495ab88ac",
      "scriptpubkey_asm": "OP_DUP OP_HASH160 OP_PUSHBYTES_20 e4736b44fc2bc375f7ded9e30236ea89774495ab OP_EQUALVERIFY OP_CHECKSIG",
      "scriptpubkey_type": "p2pkh",
      "scriptpubkey_address": "1MpwLC7K6aqP5HeDzzidfgTpCMKBeKgdz3",
      "value": 28000
    },
    {
      "scriptpubkey": "0014d4ca3fab76b009b1917742a99b3f7113a2d6f98e",
      "scriptpubkey_asm": "OP_0 OP_PUSHBYTES_20 d4ca3fab76b009b1917742a99b3f7113a2d6f98e",
      "scriptpubkey_type": "v0_p2wpkh",
      "scriptpubkey_address": "bc1q6n9rl2mkkqymrythg25ek0m3zw3dd7vwte2zn8",
      "value": 72403
    }
  ],
  "size": 225,
  "weight": 573,
  "fee": 3888,
  "status": {
    "confirmed": true,
    "block_height": 834638,
    "block_hash": "000000000000000000025f742c626208ac87e0b7d15054abb4a19ca2d735a54e",
    "block_time": 1710405325
  },
  "hex": "01000000000101c9edbccd85cd665bc07fdbf2b93bd98bdd86d9add3d7de9fe515ee40e188f61b0100000000ffffffff02606d0000000000001976a914e4736b44fc2bc375f7ded9e30236ea89774495ab88acd31a010000000000160014d4ca3fab76b009b1917742a99b3f7113a2d6f98e02473044022062280fae94d96feb474a8ca7830dc4a4cb69eed2df65bff19471de5f3bb0540e02204597da612ce55039407b25dca6082f11b79074debd8dc3c8e827505ca22fb7e10121020025f792986ebc98a48f2040ad511975a243db4ebbe406e680bcdb4c5b87b90900000000"
}