{
  "txid": "816f56296ff7e2b3531510167da60e590487f2561e7d5e1c07a1453120210f03",
  "version": 2,
  "locktime": 0,
  "vin": [
    {
      "txid": "c0b0913a57e37faeb5e9fad88b33b0ad4d3734c04211b75c80c2b9328e23e7c0",
      "vout": 11,
      "prevout": {
        "scriptpubkey": "5120f1768c246d76ff8a45c86e479459158c70d9b33887ba83b7b633606f1b0bb536",
        "scriptpubkey_asm": "OP_PUSHNUM_1 OP_PUSHBYTES_32 f1768c246d76ff8a45c86e479459158c70d9b33887ba83b7b633606f1b0bb536",
        "scriptpubkey_type": "v1_p2tr",
        "scriptpubkey_address": "bc1p79mgcfrdwmlc53wgderegkg433cdnvecs7ag8dakxdsx7xctk5mqnszxzv",
        "value": 257356
      },
      "scriptsig": "",
      "scriptsig_asm": "",
      "witness": [
        "820c087eae725555656f0ae6aec72de088e953e37b946f26b79f4b4816d9ca97d9b11c696381f96666d0cdadf92714b9804a831f3b8c18cc0180ec5e2ae95876"
      ],
      "is_coinbase": false,
      "sequence": 4294967295
    }
  ],
  "vout": [
    {
      "scriptpubkey": "5120f1768c246d76ff8a45c86e479459158c70d9b33887ba83b7b633606f1b0bb536",
      "scriptpubkey_asm": "OP_PUSHNUM_1 OP_PUSHBYTES_32 f1768c246d76ff8a45c86e479459158c70d9b33887ba83b7b633606f1b0bb536",
      "scriptpubkey_type": "v1_p2tr",
      "scriptpubkey_address": "bc1p79mgcfrdwmlc53wgderegkg433cdnvecs7ag8dakxdsx7xctk5mqnszxzv",
      "value": 600
    },
    {
      "scriptpubkey": "5120f1768c246d76ff8a45c86e479459158c70d9b33887ba83b7b633606f1b0bb536",
      "scriptpubkey_asm": "OP_PUSHNUM_1 OP_PUSHBYTES_32 f1768c246d76ff8a45c86e479459158c70d9b33887ba83b7b633606f1b0bb536",
      "scriptpubkey_type": "v1_p2tr",
      "scriptpubkey_address": "bc1p79mgcfrdwmlc53wgderegkg433cdnvecs7ag8dakxdsx7xctk5mqnszxzv",
      "value": 600
    },
    {
      "scriptpubkey": "5120f1768c246d76ff8a45c86e479459158c70d9b33887ba83b7b633606f1b0bb536",
      "scriptpubkey_asm": "OP_PUSHNUM_1 OP_PUSHBYTES_32 f1768c246d76ff8a45c86e479459158c70d9b33887ba83b7b633606f1b0bb536",
      "scriptpubkey_type": "v1_p2tr",
      "scriptpubkey_address": "bc1p79mgcfrdwmlc53wgderegkg433cdnvecs7ag8dakxdsx7xctk5mqnszxzv",
      "value": 600
    },
    {
      "scriptpubkey": "5120f1768c246d76ff8a45c86e479459158c70d9b33887ba83b7b633606f1b0bb536",
      "scriptpubkey_asm": "OP_PUSHNUM_1 OP_PUSHBYTES_32 f1768c246d76ff8a45c86e479459158c70d9b33887ba83b7b633606f1b0bb536",
      "scriptpubkey_type": "v1_p2tr",
      "scriptpubkey_address": "bc1p79mgcfrdwmlc53wgderegkg433cdnvecs7ag8dakxdsx7xctk5mqnszxzv",
      "value": 600
    },
    {
      "scriptpubkey": "5120f1768c246d76ff8a45c86e479459158c70d9b33887ba83b7b633606f1b0bb536",
      "scriptpubkey_asm": "OP_PUSHNUM_1 OP_PUSHBYTES_32 f1768c246d76ff8a45c86e479459158c70d9b33887ba83b7b633606f1b0bb536",
      "scriptpubkey_type": "v1_p2tr",
      "scriptpubkey_address": "bc1p79mgcfrdwmlc53wgderegkg433cdnvecs7ag8dakxdsx7xctk5mqnszxzv",
      "value": 600
    },
    {
      "scriptpubkey": "5120f1768c246d76ff8a45c86e479459158c70d9b33887ba83b7b633606f1b0bb536",
      "scriptpubkey_asm": "OP_PUSHNUM_1 OP_PUSHBYTES_32 f1768c246d76ff8a45c86e479459158c70d9b33887ba83b7b633606f1b0bb536",
      "scriptpubkey_type": "v1_p2tr",
      "scriptpubkey_address": "bc1p79mgcfrdwmlc53wgderegkg433cdnvecs7ag8dakxdsx7xctk5mqnszxzv",
      "value": 600
    },
    {
      "scriptpubkey": "5120f1768c246d76ff8a45c86e479459158c70d9b33887ba83b7b633606f1b0bb536",
      "scriptpubkey_asm": "OP_PUSHNUM_1 OP_PUSHBYTES_32 f1768c246d76ff8a45c86e479459158c70d9b33887ba83b7b633606f1b0bb536",
      "scriptpubkey_type": "v1_p2tr",
      "scriptpubkey_address": "bc1p79mgcfrdwmlc53wgderegkg433cdnvecs7ag8dakxdsx7xctk5mqnszxzv",
      "value": 247951
    }
  ],
  "size": 420,
  "weight": 1476,
  "fee": 5805,
  "status": {
    "confirmed": true,
    "block_height": 834460,
    "block_hash": "00000000000000000000484a79b643b2524bbce82e5d8a442013fa5b8905ed98",
    "block_time": 1710307468
  },
  "hex": "02000000000101c0e7238e32b9c2805cb71142c034374dadb0338bd8fae9b5ae7fe3573a91b0c00b00000000ffffffff075802000000000000225120f1768c246d76ff8a45c86e479459158c70d9b33887ba83b7b633606f1b0bb5365802000000000000225120f1768c246d76ff8a45c86e479459158c70d9b33887ba83b7b633606f1b0bb5365802000000000000225120f1768c246d76ff8a45c86e479459158c70d9b33887ba83b7b633606f1b0bb5365802000000000000225120f1768c246d76ff8a45c86e479459158c70d9b33887ba83b7b633606f1b0bb5365802000000000000225120f1768c246d76ff8a45c86e479459158c70d9b33887ba83b7b633606f1b0bb5365802000000000000225120f1768c246d76ff8a45c86e479459158c70d9b33887ba83b7b633606f1b0bb5368fc8030000000000225120f1768c246d76ff8a45c86e479459158c70d9b33887ba83b7b633606f1b0bb5360140820c087eae725555656f0ae6aec72de088e953e37b946f26b79f4b4816d9ca97d9b11c696381f96666d0cdadf92714b9804a831f3b8c18cc0180ec5e2ae9587600000000"
}