{
  "txid": "817909d72da92a8b27e9a3aeccf697cfe0eb2c0521173f19ee05ca2f21b34356",
  "version": 2,
  "locktime": 0,
  "vin": [
    {
      "txid": "07de2af134b8618f35d028222457fd70c45182a1555bf6bd5e1eac026c6a0b1d",
      "vout": 1,
      "prevout": {
        "scriptpubkey": "0014193667f2e54f9e79408c7503ae037d2e3b642a94",
        "scriptpubkey_asm": "OP_0 OP_PUSHBYTES_20 193667f2e54f9e79408c7503ae037d2e3b642a94",
        "scriptpubkey_type": "v0_p2wpkh",
        "scriptpubkey_address": "bc1qrymx0uh9f708jsyvw5p6uqma9cakg255gkkaxg",
        "value": 1090353
      },
      "scriptsig": "",
      "scriptsig_asm": "",
      "witness": [
        "304402204c23f965bfcfc549d48742bd6e67b0de4866978ab283081afb11de7d934304700220562aa162bbf8ccbb874c226f86e6f4e1e0309f6174e5848214c9f507302d486901",
        "03d57efe6b72d75b3c1be05038ca5d18133990fe62fca9503f9ad42296b94d5b26"
      ],
      "is_coinbase": false,
      "sequence": 4294967295
    }
  ],
  "vout": [
    {
      "scriptpubkey": "76a914f4f20b680204a22131d21359884b8aada37837d088ac",
      "scriptpubkey_asm": "OP_DUP OP_HASH160 OP_PUSHBYTES_20 f4f20b680204a22131d21359884b8aada37837d0 OP_EQUALVERIFY OP_CHECKSIG",
      "scriptpubkey_type": "p2pkh",
      "scriptpubkey_address": "1PL9qMib1RdbuxKNPGgHU8N5KP83thUCVE",
      "value": 139959
    },
    {
      "scriptpubkey": "001439503714639965fe1db6944cfc849d13304e54e7",
      "scriptpubkey_asm": "OP_0 OP_PUSHBYTES_20 39503714639965fe1db6944cfc849d13304e54e7",
      "scriptpubkey_type": "v0_p2wpkh",
      "scriptpubkey_address": "bc1q89grw9rrn9jlu8dkj3x0epyazvcyu4885dawhq",
      "value": 948829
    }
  ],
  "size": 225,
  "weight": 573,
  "fee": 1565,
  "status": {
    "confirmed": true,
    "block_height": 834464,
    "block_hash": "0000000000000000000177a0869a911a2b65c9bdcd5a8bcb02b68f305bee848e",
    "block_time": 1710308296
  },
  "hex": "020000000001011d0b6a6c02ac1e5ebdf65b55a18251c470fd57242228d0358f61b834f12ade070100000000ffffffff02b7220200000000001976a914f4f20b680204a22131d21359884b8aada37837d088ac5d7a0e000000000016001439503714639965fe1db6944cfc849d13304e54e70247304402204c23f965bfcfc549d48742bd6e67b0de4866978ab283081afb11de7d934304700220562aa162bbf8ccbb874c226f86e6f4e1e0309f6174e5848214c9f507302d4869012103d57efe6b72d75b3c1be05038ca5d18133990fe62fca9503f9ad42296b94d5b2600000000"
}