{
  "txid": "817a2ff30db424c792c2b8d75bde952639fd4fafb1ff10615153ad977de8b712",
  "version": 1,
  "locktime": 0,
  "vin": [
    {
      "txid": "ffccbe23894b98a22a4c89d6a4cc02676e090f61f1daa1f17e318a51b85068c8",
      "vout": 2,
      "prevout": {
        "scriptpubkey": "001493daf7d5776ae0e41b3ae5beb278b5f45d808182",
        "scriptpubkey_asm": "OP_0 OP_PUSHBYTES_20 93daf7d5776ae0e41b3ae5beb278b5f45d808182",
        "scriptpubkey_type": "v0_p2wpkh",
        "scriptpubkey_address": "bc1qj0d004thdtswgxe6uklty79473wcpqvzfwtpc6",
        "value": 2726971
      },
      "scriptsig": "",
      "scriptsig_asm": "",
      "witness": [
        "304402205bb9c2d2c12bda1ed3f26f4aba000b52a6b7a4fdcd60be1944b158bf0a49679f02203fd1a731d7f10f6daf32b288be3c62c4a68f293a183b75f191805775343df4ec01",
        "0234ea0b6e74a027150ad00e4fe5e104c16e4b18512a010a08ec53b47b3664b74a"
      ],
      "is_coinbase": false,
      "sequence": 4294967293
    },
    {
      "txid": "1f04ee3a9de4c9b1b0671da9e8bad6b578303cdb60528875c8a40b11757c9718",
      "vout": 8,
      "prevout": {
        "scriptpubkey": "00140ab73a5b1a7a8297677d64d50f33bbc20574d1c7",
        "scriptpubkey_asm": "OP_0 OP_PUSHBYTES_20 0ab73a5b1a7a8297677d64d50f33bbc20574d1c7",
        "scriptpubkey_type": "v0_p2wpkh",
        "scriptpubkey_address": "bc1qp2mn5kc602pfwemavn2s7vamcgzhf5w8splu73",
        "value": 2112127
      },
      "scriptsig": "",
      "scriptsig_asm": "",
      "witness": [
        "30450221008299f45e416a17270bed13bea4111df39d4f10bb2e381d0a646ff7678d6b0d0c02204ed2b7dca920f981d51b017f10c01be8353536a6e4b78914a5b96dd30aedfc0601",
        "02c84f9b2f8f96996e78505455df9be66e5cedcf98cbb4171ec0cf2e035e0a3816"
      ],
      "is_coinbase": false,
      "sequence": 4294967293
    },
    {
      "txid": "042db03a5ff614d381199221496940f55955548c10210027f4aceaeb04c32108",
      "vout": 3,
      "prevout": {
        "scriptpubkey": "00144963c4bc283a589c8e1451bfbd95af0b2a5920a2",
        "scriptpubkey_asm": "OP_0 OP_PUSHBYTES_20 4963c4bc283a589c8e1451bfbd95af0b2a5920a2",
        "scriptpubkey_type": "v0_p2wpkh",
        "scriptpubkey_address": "bc1qf93uf0pg8fvfers52xlmm9d0pv49jg9zzthrzd",
        "value": 1514620
      },
      "scriptsig": "",
      "scriptsig_asm": "",
      "witness": [
        "304502210099235510a3538d71f3ec473ef0b4117fbd7af4e1aa4376b172cec4880aeff84102201fa97541b87923a4055bf87c6346f8b4cd9d20047e75a8c5226cf22cd195039801",
        "0200ccb27036db7172665344008acbc26d5733938bc599639c4d22f25bea8ddc96"
      ],
      "is_coinbase": false,
      "sequence": 4294967293
    },
    {
      "txid": "7ac540bcd9ba3f0f8c57192ce60e5b9776a09cfc0141a3b2dbd44225ad3a2c2b",
      "vout": 5,
      "prevout": {
        "scriptpubkey": "00143bd5de930ff687af78fccdb6c077d8a0872cfb59",
        "scriptpubkey_asm": "OP_0 OP_PUSHBYTES_20 3bd5de930ff687af78fccdb6c077d8a0872cfb59",
        "scriptpubkey_type": "v0_p2wpkh",
        "scriptpubkey_address": "bc1q802aayc076r6778uekmvqa7c5zrje76eupylju",
        "value": 461071
      },
      "scriptsig": "",
      "scriptsig_asm": "",
      "witness": [
        "3044022006142a8e5a4c62674f262f0a38f07b088ffad91fbd8632c9015ce2d50002251902206a6afe78b2b5f6c5fe7ce805c682cff606f06ce4547deeb404c6af7a283ac8cf01",
        "0233b9645dc9f53d61a0a692ab67faced3e5f9153f1c3670b4544464897e190e8f"
      ],
      "is_coinbase": false,
      "sequence": 4294967293
    }
  ],
  "vout": [
    {
      "scriptpubkey": "00145cb5ca751b666cd9126074ef95f3fbb6e75fb892",
      "scriptpubkey_asm": "OP_0 OP_PUSHBYTES_20 5cb5ca751b666cd9126074ef95f3fbb6e75fb892",
      "scriptpubkey_type": "v0_p2wpkh",
      "scriptpubkey_address": "bc1qtj6u5agmvekdjynqwnhetulmkmn4lwyjc2q3v6",
      "value": 6805300
    }
  ],
  "size": 637,
  "weight": 1252,
  "fee": 9489,
  "status": {
    "confirmed": true,
    "block_height": 834638,
    "block_hash": "000000000000000000025f742c626208ac87e0b7d15054abb4a19ca2d735a54e",
    "block_time": 1710405325
  },
  "hex": "01000000000104c86850b8518a317ef1a1daf1610f096e6702cca4d6894c2aa2984b8923beccff0200000000fdffffff18977c75110ba4c875885260db3c3078b5d6bae8a91d67b0b1c9e49d3aee041f0800000000fdffffff0821c304ebeaacf4270021108c545559f540694921921981d314f65f3ab02d040300000000fdffffff2b2c3aad2542d4dbb2a34101fc9ca076975b0ee62c19578c0f3fbad9bc40c57a0500000000fdffffff0134d76700000000001600145cb5ca751b666cd9126074ef95f3fbb6e75fb8920247304402205bb9c2d2c12bda1ed3f26f4aba000b52a6b7a4fdcd60be1944b158bf0a49679f02203fd1a731d7f10f6daf32b288be3c62c4a68f293a183b75f191805775343df4ec01210234ea0b6e74a027150ad00e4fe5e104c16e4b18512a010a08ec53b47b3664b74a024830450221008299f45e416a17270bed13bea4111df39d4f10bb2e381d0a646ff7678d6b0d0c02204ed2b7dca920f981d51b017f10c01be8353536a6e4b78914a5b96dd30aedfc06012102c84f9b2f8f96996e78505455df9be66e5cedcf98cbb4171ec0cf2e035e0a38160248304502210099235510a3538d71f3ec473ef0b4117fbd7af4e1aa4376b172cec4880aeff84102201fa97541b87923a4055bf87c6346f8b4cd9d20047e75a8c5226cf22cd195039801210200ccb27036db7172665344008acbc26d5733938bc599639c4d22f25bea8ddc9602473044022006142a8e5a4c62674f262f0a38f07b088ffad91fbd8632c9015ce2d50002251902206a6afe78b2b5f6c5fe7ce805c682cff606f06ce4547deeb404c6af7a283ac8cf01210233b9645dc9f53d61a0a692ab67faced3e5f9153f1c3670b4544464897e190e8f00000000"
}