{
  "txid": "817e1591e4aa336dfd0bb42419920cf29832e62b9ec4b07daf023fe55ca4cc6f",
  "version": 2,
  "locktime": 0,
  "vin": [
    {
      "txid": "c10e48caeee8756d57fbce0e4f26c1d08bb9f0d4a35c2d26269682da8df04dac",
      "vout": 62,
      "prevout": {
        "scriptpubkey": "512052b0c4d52625c3e767ea199d64e9ef708ed821dec8f0fa14c55b60f4d7c0b499",
        "scriptpubkey_asm": "OP_PUSHNUM_1 OP_PUSHBYTES_32 52b0c4d52625c3e767ea199d64e9ef708ed821dec8f0fa14c55b60f4d7c0b499",
        "scriptpubkey_type": "v1_p2tr",
        "scriptpubkey_address": "bc1p22cvf4fxyhp7wel2rxwkf600wz8dsgw7erc059x9tds0f47qkjvs77qf7v",
        "value": 3634
      },
      "scriptsig": "",
      "scriptsig_asm": "",
      "witness": [
        "f818dc55556d14de0ea4bfabc78ee49906db317fc7afaf8fc931e8a4cecc27499df7feb10bc65b092edae2ba58368e00b6d08f868b2be2f8c876fbcd1da7fb1b",
        "209f9d9c364d9b0fb28fe5d5eeca84b13423a6771df8405a5d0a70972578f48c43ac0063036f726401011e6170706c69636174696f6e2f6a736f6e3b636861727365743d7574662d38004cd37b2270223a22706f772d3230222c226f70223a226d696e74222c227469636b223a2250455045222c22616d74223a2231303030222c22736f6c7574696f6e223a22504550453a6263317071336e67663775716e73667434706d37357236397371616c6c30637068747278677773757a6d657864356c337039333566366d713666337664383a303030303030303030303030303030303030303139393431613561653132383937363539383134343239323533333030353762306461393666336465613163353a3436393430343630303837227d68",
        "c1406c0f2a67700582b42f36a71eb03478d57ba1acdc179ee1ec758acb282de3fd"
      ],
      "is_coinbase": false,
      "sequence": 4294967295
    }
  ],
  "vout": [
    {
      "scriptpubkey": "5120046684fb809c12ba877ea0f45803bffbf01bac6643a1c16f266d3f1096344eb6",
      "scriptpubkey_asm": "OP_PUSHNUM_1 OP_PUSHBYTES_32 046684fb809c12ba877ea0f45803bffbf01bac6643a1c16f266d3f1096344eb6",
      "scriptpubkey_type": "v1_p2tr",
      "scriptpubkey_address": "bc1pq3ngf7uqnsft4pm75r69sqall0cphtrxgwsuzmexd5l3p935f6mq6f3vd8",
      "value": 546
    }
  ],
  "size": 487,
  "weight": 769,
  "fee": 3088,
  "status": {
    "confirmed": true,
    "block_height": 834460,
    "block_hash": "00000000000000000000484a79b643b2524bbce82e5d8a442013fa5b8905ed98",
    "block_time": 1710307468
  },
  "hex": "02000000000101ac4df08dda829626262d5ca3d4f0b98bd0c1264f0ecefb576d75e8eeca480ec13e00000000ffffffff012202000000000000225120046684fb809c12ba877ea0f45803bffbf01bac6643a1c16f266d3f1096344eb60340f818dc55556d14de0ea4bfabc78ee49906db317fc7afaf8fc931e8a4cecc27499df7feb10bc65b092edae2ba58368e00b6d08f868b2be2f8c876fbcd1da7fb1bfd2001209f9d9c364d9b0fb28fe5d5eeca84b13423a6771df8405a5d0a70972578f48c43ac0063036f726401011e6170706c69636174696f6e2f6a736f6e3b636861727365743d7574662d38004cd37b2270223a22706f772d3230222c226f70223a226d696e74222c227469636b223a2250455045222c22616d74223a2231303030222c22736f6c7574696f6e223a22504550453a6263317071336e67663775716e73667434706d37357236397371616c6c30637068747278677773757a6d657864356c337039333566366d713666337664383a303030303030303030303030303030303030303139393431613561653132383937363539383134343239323533333030353762306461393666336465613163353a3436393430343630303837227d6821c1406c0f2a67700582b42f36a71eb03478d57ba1acdc179ee1ec758acb282de3fd00000000"
}