{
  "txid": "818c13eaf4509e2c83ad278749a4b8163acd53f8a99bea07b58e23c5e5d08c00",
  "version": 1,
  "locktime": 0,
  "vin": [
    {
      "txid": "ad672d373123d7cd70cb7ed5dbade3ad187d9ae138679d1c78f6ab52c3ca1e1c",
      "vout": 21,
      "prevout": {
        "scriptpubkey": "00141a0687bb3cebe77c84cb8a7b2ea548e235ee4f32",
        "scriptpubkey_asm": "OP_0 OP_PUSHBYTES_20 1a0687bb3cebe77c84cb8a7b2ea548e235ee4f32",
        "scriptpubkey_type": "v0_p2wpkh",
        "scriptpubkey_address": "bc1qrgrg0weua0nhepxt3fajaf2gug67unejrg9rmm",
        "value": 272000
      },
      "scriptsig": "",
      "scriptsig_asm": "",
      "witness": [
        "304402207f90e278bd4b9328d946146919cbff6754449c238b6c60535839818d6a8be1e402202735a27e20fba40352d1de92822eac4781bdd150aa77ab96f570896bfd11e47201",
        "037188f95a91f5cf66c6b15c1caaa0dbe3c2ccc8b2c5072ea3091164c40ab8fb0c"
      ],
      "is_coinbase": false,
      "sequence": 4294967295
    }
  ],
  "vout": [
    {
      "scriptpubkey": "76a9147a497485fbc7d54ebcd2d31d947839214ebde9be88ac",
      "scriptpubkey_asm": "OP_DUP OP_HASH160 OP_PUSHBYTES_20 7a497485fbc7d54ebcd2d31d947839214ebde9be OP_EQUALVERIFY OP_CHECKSIG",
      "scriptpubkey_type": "p2pkh",
      "scriptpubkey_address": "1C9bSAANTMneFgSXbSvCth6XquRxn1FZp6",
      "value": 259005
    },
    {
      "scriptpubkey": "00141a0687bb3cebe77c84cb8a7b2ea548e235ee4f32",
      "scriptpubkey_asm": "OP_0 OP_PUSHBYTES_20 1a0687bb3cebe77c84cb8a7b2ea548e235ee4f32",
      "scriptpubkey_type": "v0_p2wpkh",
      "scriptpubkey_address": "bc1qrgrg0weua0nhepxt3fajaf2gug67unejrg9rmm",
      "value": 9107
    }
  ],
  "size": 225,
  "weight": 573,
  "fee": 3888,
  "status": {
    "confirmed": true,
    "block_height": 834638,
    "block_hash": "000000000000000000025f742c626208ac87e0b7d15054abb4a19ca2d735a54e",
    "block_time": 1710405325
  },
  "hex": "010000000001011c1ecac352abf6781c9d6738e19a7d18ade3addbd57ecb70cdd72331372d67ad1500000000ffffffff02bdf30300000000001976a9147a497485fbc7d54ebcd2d31d947839214ebde9be88ac93230000000000001600141a0687bb3cebe77c84cb8a7b2ea548e235ee4f320247304402207f90e278bd4b9328d946146919cbff6754449c238b6c60535839818d6a8be1e402202735a27e20fba40352d1de92822eac4781bdd150aa77ab96f570896bfd11e4720121037188f95a91f5cf66c6b15c1caaa0dbe3c2ccc8b2c5072ea3091164c40ab8fb0c00000000"
}