{
  "txid": "81a1ad2ac4e0b5fc0bfc1c843991619c8307e8843adedefdd6c60c93ca9d3af2",
  "version": 2,
  "locktime": 0,
  "vin": [
    {
      "txid": "8a09f785cbe3af79f7479bc68d00c51c27070dacc6b33ace4994bbfb2af0f5b3",
      "vout": 0,
      "prevout": {
        "scriptpubkey": "0014f4ec42ea0210bbb7a9520867586ab2e0988a0097",
        "scriptpubkey_asm": "OP_0 OP_PUSHBYTES_20 f4ec42ea0210bbb7a9520867586ab2e0988a0097",
        "scriptpubkey_type": "v0_p2wpkh",
        "scriptpubkey_address": "bc1q7nky96szzzam022jppn4s64juzvg5qyhwe0xmc",
        "value": 264000
      },
      "scriptsig": "",
      "scriptsig_asm": "",
      "witness": [
        "304402201bf573afe0e0c108924cb22917a256b12aa379c2e541f0cb3380206337bc9e0d022062c2863ed0344c8ad218f64c49b89dfaca3a399c1356ce55c513cab069696ccd01",
        "033791f5c0ccf5d3f88ad1c6474acd194001f828690708303289ae58c9185400a2"
      ],
      "is_coinbase": false,
      "sequence": 4294967293
    }
  ],
  "vout": [
    {
      "scriptpubkey": "00145f35a124069683ddeb2f1726e9a1173f9340c87e",
      "scriptpubkey_asm": "OP_0 OP_PUSHBYTES_20 5f35a124069683ddeb2f1726e9a1173f9340c87e",
      "scriptpubkey_type": "v0_p2wpkh",
      "scriptpubkey_address": "bc1qtu66zfqxj6pam6e0zunwnggh87f5pjr7vdr5cd",
      "value": 200000
    },
    {
      "scriptpubkey": "0014fb7a185fc47428a9992c09f70c6add47a5c19223",
      "scriptpubkey_asm": "OP_0 OP_PUSHBYTES_20 fb7a185fc47428a9992c09f70c6add47a5c19223",
      "scriptpubkey_type": "v0_p2wpkh",
      "scriptpubkey_address": "bc1qldapsh7yws52nxfvp8msc6kag7jury3rxrw4dm",
      "value": 30000
    },
    {
      "scriptpubkey": "0014f4ec42ea0210bbb7a9520867586ab2e0988a0097",
      "scriptpubkey_asm": "OP_0 OP_PUSHBYTES_20 f4ec42ea0210bbb7a9520867586ab2e0988a0097",
      "scriptpubkey_type": "v0_p2wpkh",
      "scriptpubkey_address": "bc1q7nky96szzzam022jppn4s64juzvg5qyhwe0xmc",
      "value": 30868
    }
  ],
  "size": 253,
  "weight": 685,
  "fee": 3132,
  "status": {
    "confirmed": true,
    "block_height": 834638,
    "block_hash": "000000000000000000025f742c626208ac87e0b7d15054abb4a19ca2d735a54e",
    "block_time": 1710405325
  },
  "hex": "02000000000101b3f5f02afbbb9449ce3ab3c6ac0d07271cc5008dc69b47f779afe3cb85f7098a0000000000fdffffff03400d0300000000001600145f35a124069683ddeb2f1726e9a1173f9340c87e3075000000000000160014fb7a185fc47428a9992c09f70c6add47a5c192239478000000000000160014f4ec42ea0210bbb7a9520867586ab2e0988a00970247304402201bf573afe0e0c108924cb22917a256b12aa379c2e541f0cb3380206337bc9e0d022062c2863ed0344c8ad218f64c49b89dfaca3a399c1356ce55c513cab069696ccd0121033791f5c0ccf5d3f88ad1c6474acd194001f828690708303289ae58c9185400a200000000"
}