{
  "txid": "81a838f897e3a2bdcd4629db143bcd7d7f3997b332905a1bebaf225b9aa54441",
  "version": 2,
  "locktime": 0,
  "vin": [
    {
      "txid": "20596949eae7b2616fb044b5f5c38e39a8fbedfa0945e97d5ae8f2083cf7420f",
      "vout": 7,
      "prevout": {
        "scriptpubkey": "0020a084754d706c05d3c4eb7ee1665834a66db631a48e2d969ce57223469a848e31",
        "scriptpubkey_asm": "OP_0 OP_PUSHBYTES_32 a084754d706c05d3c4eb7ee1665834a66db631a48e2d969ce57223469a848e31",
        "scriptpubkey_type": "v0_p2wsh",
        "scriptpubkey_address": "bc1q5zz82ntsdsza838t0mskvkp55ekmvvdy3cked889wg35dx5y3ccsuw4rf8",
        "value": 3000000
      },
      "scriptsig": "",
      "scriptsig_asm": "",
      "witness": [
        "",
        "304402206c306c09125743f9a27e8ca71733ca0b123345579e649faf786d74be2de5c07302201aa54286d462e5e2a8d8f6532080cba27a46cbe2de10317a6fb752bd87742e5f01",
        "3044022045545e7b99fe3a12a9e3d48b0e02ef0429d24c2e98ab2259fe557bc5db14b0fa02201d3f4f14667296c5875de5858a039def845cc4276bff3507172d09852f13234c01",
        "522102a224fbbef39c47a78c5fd581114f25980c5c361d7354a5eba2a4677cc2be92bc21031bf7d4b9e029c7a37c2eb253d2c57a9f62480be7ed7bcc464fce48d629deb14e52ae"
      ],
      "is_coinbase": false,
      "sequence": 4294967295,
      "inner_witnessscript_asm": "OP_PUSHNUM_2 OP_PUSHBYTES_33 02a224fbbef39c47a78c5fd581114f25980c5c361d7354a5eba2a4677cc2be92bc OP_PUSHBYTES_33 031bf7d4b9e029c7a37c2eb253d2c57a9f62480be7ed7bcc464fce48d629deb14e OP_PUSHNUM_2 OP_CHECKMULTISIG"
    }
  ],
  "vout": [
    {
      "scriptpubkey": "5120f9ee84d1d8e91963b024c7e313c4714d409b64ab5f46277b82503d10535bb427",
      "scriptpubkey_asm": "OP_PUSHNUM_1 OP_PUSHBYTES_32 f9ee84d1d8e91963b024c7e313c4714d409b64ab5f46277b82503d10535bb427",
      "scriptpubkey_type": "v1_p2tr",
      "scriptpubkey_address": "bc1pl8hgf5wcayvk8vpycl3383r3f4qfke9ttarzw7uz2q73q56mksnsex8sms",
      "value": 53122
    },
    {
      "scriptpubkey": "51203117fcd0e3b4b0d8a7058381a033c757469cfc4a61beaedc92613e2759fc129f",
      "scriptpubkey_asm": "OP_PUSHNUM_1 OP_PUSHBYTES_32 3117fcd0e3b4b0d8a7058381a033c757469cfc4a61beaedc92613e2759fc129f",
      "scriptpubkey_type": "v1_p2tr",
      "scriptpubkey_address": "bc1pxytle58rkjcd3fc9swq6qv782arfelz2vxl2ahyjvylzwk0uz20s4u5fke",
      "value": 2944819
    }
  ],
  "size": 357,
  "weight": 768,
  "fee": 2059,
  "status": {
    "confirmed": true,
    "block_height": 834464,
    "block_hash": "0000000000000000000177a0869a911a2b65c9bdcd5a8bcb02b68f305bee848e",
    "block_time": 1710308296
  },
  "hex": "020000000001010f42f73c08f2e85a7de94509faedfba8398ec3f5b544b06f61b2e7ea496959200700000000ffffffff0282cf000000000000225120f9ee84d1d8e91963b024c7e313c4714d409b64ab5f46277b82503d10535bb42733ef2c00000000002251203117fcd0e3b4b0d8a7058381a033c757469cfc4a61beaedc92613e2759fc129f040047304402206c306c09125743f9a27e8ca71733ca0b123345579e649faf786d74be2de5c07302201aa54286d462e5e2a8d8f6532080cba27a46cbe2de10317a6fb752bd87742e5f01473044022045545e7b99fe3a12a9e3d48b0e02ef0429d24c2e98ab2259fe557bc5db14b0fa02201d3f4f14667296c5875de5858a039def845cc4276bff3507172d09852f13234c0147522102a224fbbef39c47a78c5fd581114f25980c5c361d7354a5eba2a4677cc2be92bc21031bf7d4b9e029c7a37c2eb253d2c57a9f62480be7ed7bcc464fce48d629deb14e52ae00000000"
}