{
  "txid": "81b211124200c2b3ec489e6289ba20b3cc928cddf80451b8dfd902a03cbe5058",
  "version": 1,
  "locktime": 0,
  "vin": [
    {
      "txid": "47c05709f690c47d6d0d3eae56ecc4d2821392aa7ca21eb4abeb3a36e02a58af",
      "vout": 1,
      "prevout": {
        "scriptpubkey": "00149efc90db57fb4567edcdd31cb4ac07c3c502824e",
        "scriptpubkey_asm": "OP_0 OP_PUSHBYTES_20 9efc90db57fb4567edcdd31cb4ac07c3c502824e",
        "scriptpubkey_type": "v0_p2wpkh",
        "scriptpubkey_address": "bc1qnm7fpk6hldzk0mwd6vwtftq8c0zs9qjwk2w7zz",
        "value": 197621
      },
      "scriptsig": "",
      "scriptsig_asm": "",
      "witness": [
        "304402206324efb115650672abdc54c9fd817a1db65ee2bb24e7d050650de38429080fa102205c63bf101d4fbc31831a11c9b99b1c7d7bc6dacfc46cb1713b738d41f77a175701",
        "02cf9733ad7723d585e9219da62fc13d7eeee40127ab47ad317784d436f1b26e60"
      ],
      "is_coinbase": false,
      "sequence": 4294967295
    }
  ],
  "vout": [
    {
      "scriptpubkey": "001418459fdfeb7eab1429dc9b59341befced29d0baa",
      "scriptpubkey_asm": "OP_0 OP_PUSHBYTES_20 18459fdfeb7eab1429dc9b59341befced29d0baa",
      "scriptpubkey_type": "v0_p2wpkh",
      "scriptpubkey_address": "bc1qrpzelhlt0643g2wundvngxl0emff6za24hqlqe",
      "value": 2720
    },
    {
      "scriptpubkey": "0014c99bc4f00bb497794f3d5e78c56ade7cd01f5899",
      "scriptpubkey_asm": "OP_0 OP_PUSHBYTES_20 c99bc4f00bb497794f3d5e78c56ade7cd01f5899",
      "scriptpubkey_type": "v0_p2wpkh",
      "scriptpubkey_address": "bc1qexdufuqtkjthjneateuv26k70ngp7kyewee8l9",
      "value": 192106
    }
  ],
  "size": 222,
  "weight": 561,
  "fee": 2795,
  "status": {
    "confirmed": true,
    "block_height": 834638,
    "block_hash": "000000000000000000025f742c626208ac87e0b7d15054abb4a19ca2d735a54e",
    "block_time": 1710405325
  },
  "hex": "01000000000101af582ae0363aebabb41ea27caa921382d2c4ec56ae3e0d6d7dc490f60957c0470100000000ffffffff02a00a00000000000016001418459fdfeb7eab1429dc9b59341befced29d0baa6aee020000000000160014c99bc4f00bb497794f3d5e78c56ade7cd01f58990247304402206324efb115650672abdc54c9fd817a1db65ee2bb24e7d050650de38429080fa102205c63bf101d4fbc31831a11c9b99b1c7d7bc6dacfc46cb1713b738d41f77a1757012102cf9733ad7723d585e9219da62fc13d7eeee40127ab47ad317784d436f1b26e6000000000"
}