{
  "txid": "81b3b214a11d78d72f44384710db6c0669b0389b8a3ff57483c9ae0bfb48a0cd",
  "version": 1,
  "locktime": 0,
  "vin": [
    {
      "txid": "d33d151dfc599bf9da2d862c6bcf393df16edb7b223285d2d4438e53bca343d0",
      "vout": 0,
      "prevout": {
        "scriptpubkey": "51208737963ba1e064ee424820e7cf09a28cbd579f9809e05e61de0309ae5d6d1001",
        "scriptpubkey_asm": "OP_PUSHNUM_1 OP_PUSHBYTES_32 8737963ba1e064ee424820e7cf09a28cbd579f9809e05e61de0309ae5d6d1001",
        "scriptpubkey_type": "v1_p2tr",
        "scriptpubkey_address": "bc1psumevwapupjwusjgyrnu7zdz3j7408ucp8s9ucw7qvy6uhtdzqqs8fdvcz",
        "value": 6546
      },
      "scriptsig": "",
      "scriptsig_asm": "",
      "witness": [
        "8e3b08da65d8e0bf920fbc1554f92f9e581ff284b06962f417fe99c72c83a049fdc1b86eee272fb12fdd58f174e0b6627eb4cf3964e63c36878115fed62280e8",
        "20fc4c1d5570c9448733dd875ae0f594833e343cd81eccf4d89c065b4316bfb55aac0063036f7264010118746578742f706c61696e3b636861727365743d7574662d38003d7b2270223a226272632d3230222c226f70223a227472616e73666572222c227469636b223a226f726469222c22616d74223a223536372e38303632227d68",
        "c1fc4c1d5570c9448733dd875ae0f594833e343cd81eccf4d89c065b4316bfb55a"
      ],
      "is_coinbase": false,
      "sequence": 4294967295
    }
  ],
  "vout": [
    {
      "scriptpubkey": "0020cb04434d4f67c40ae019b92f9bcb43baa3825e002f360cef2cc890488387ba0c",
      "scriptpubkey_asm": "OP_0 OP_PUSHBYTES_32 cb04434d4f67c40ae019b92f9bcb43baa3825e002f360cef2cc890488387ba0c",
      "scriptpubkey_type": "v0_p2wsh",
      "scriptpubkey_address": "bc1qevzyxn20vlzq4cqehyhehj6rh23cyhsq9umqemevezgy3qu8hgxq78qfj8",
      "value": 546
    }
  ],
  "size": 328,
  "weight": 610,
  "fee": 6000,
  "status": {
    "confirmed": true,
    "block_height": 834460,
    "block_hash": "00000000000000000000484a79b643b2524bbce82e5d8a442013fa5b8905ed98",
    "block_time": 1710307468
  },
  "hex": "01000000000101d043a3bc538e43d4d28532227bdb6ef13d39cf6b2c862ddaf99b59fc1d153dd30000000000ffffffff012202000000000000220020cb04434d4f67c40ae019b92f9bcb43baa3825e002f360cef2cc890488387ba0c03408e3b08da65d8e0bf920fbc1554f92f9e581ff284b06962f417fe99c72c83a049fdc1b86eee272fb12fdd58f174e0b6627eb4cf3964e63c36878115fed62280e88320fc4c1d5570c9448733dd875ae0f594833e343cd81eccf4d89c065b4316bfb55aac0063036f7264010118746578742f706c61696e3b636861727365743d7574662d38003d7b2270223a226272632d3230222c226f70223a227472616e73666572222c227469636b223a226f726469222c22616d74223a223536372e38303632227d6821c1fc4c1d5570c9448733dd875ae0f594833e343cd81eccf4d89c065b4316bfb55a00000000"
}