{
  "txid": "81c922bc8d5a3d5f9713446db8c11c88bd9d4e8d708b5941fabf1b7310f7a4cf",
  "version": 2,
  "locktime": 0,
  "vin": [
    {
      "txid": "218a08bab79907339249d13cd8f4852765fa2b1fcb0b07415d63d67359efffcd",
      "vout": 0,
      "prevout": {
        "scriptpubkey": "5120345fd8e0c3f4936204d6c27bf642002ba182b027da7ffd3988055b336e0ab3cf",
        "scriptpubkey_asm": "OP_PUSHNUM_1 OP_PUSHBYTES_32 345fd8e0c3f4936204d6c27bf642002ba182b027da7ffd3988055b336e0ab3cf",
        "scriptpubkey_type": "v1_p2tr",
        "scriptpubkey_address": "bc1px30a3cxr7jfkypxkcfalvssq9wsc9vp8mfll6wvgq4dnxms2k08shhddht",
        "value": 21765
      },
      "scriptsig": "",
      "scriptsig_asm": "",
      "witness": [
        "a9310ebe9a4f1fbda6229dc7a56056ccf46ef10f4949e5b0bd0b3abbfdc7b63b54e51dd56f9955812e4c919b551990265bf8e9770f97840749e13e6b97199634",
        "20f2d00e1cce0b839d2e197679cac7a15152ec244338032c7767f72c1332d49a65ac0063036f726401010a696d6167652f6a706567004d0802ffd8ffe000104a46494600010100000100010000ffe201d84943435f50524f46494c45000101000001c800000000043000006d6e74725247422058595a2007e00001000100000000000061637370000000000000000000000000000000000000000000000000000000010000f6d6000100000000d32d0000000000000000000000000000000000000000000000000000000000000000000000000000000000000000000000000000000964657363000000f0000000247258595a00000114000000146758595a00000128000000146258595a0000013c00000014777470740000015000000014725452430000016400000028675452430000016400000028625452430000016400000028637072740000018c0000003c6d6c756300000000000000010000000c656e5553000000080000001c007300520047004258595a200000000000006fa2000038f50000039058595a2000000000000062990000b785000018da58595a2000000000000024a000000f840000b6cf58595a20000000000000f6d6000100000000d32d706172610000000000040000000266660000f2a700000d59000013d000000a5b00000000000000006d6c756300000000000000010000000c656e5553000000200000001c0047006f006f0067006c006500200049006e0063002e00200032003000310036ffdb0043000302020302020303030304030304050805050404054d08020a070706080c0a0c0c0b0a0b0b0d0e12100d0e110e0b0b1016101113141515150c0f171816141812141514ffdb00430103040405040509050509140d0b0d1414141414141414141414141414141414141414141414141414141414141414141414141414141414141414141414141414ffc00011080200020003012200021101031101ffc400190001010101010100000000000000000000000709080a06ffc40014100100000000000000000000000000000000ffc4001c0101000203010101000000000000000000000607040508020903ffc40014110100000000000000000000000000000000ffda000c03010002110311003f00caa000000000000000000000000000000000000000000000000000000000000000000000000000000000000000000000000000000000000000000000000000000000000000000000000000000000000000000000000000000000000000000000000000000000000000000000000000000000000000000000000000000000000000000000000000000000000000000000000000000000000000000000000000000000000000000000000000000000000000000000000000000000000000000000000000000000000000000000000000000000000000000000000000000000000000000000000000000000000000000000000000000000000000000000000000000000000000000000000000000000000000004d08020000000000000000000000000000000000000000000000000000000000000000000000000000000000000000000000000000000000000000000000000000000000000000000000000000000000000000000000000000000000000000000000000000000000000000000000000000000000000000000000000000000000000000000000000000000000000000000000000000000000000000000000000000000000000000000000000000000000000000000000000000000000000000000000000000000000000000000000000000000000000000000000000000000000000001daa03ad57400000000000000000000000038a8072529700000000000000000000000000000000000000000000000000000000000074900e83596000a1809937a8d00e1f554000000000000000000000ae80c77a4880643ca1e0256d60000000000000000000000000000000000000000000002a402d04b40000014001336f80014301326f51a01c3eaa80015d018ef40000009100c879000000000574063bd2440321e50f012b6b000000000000000000000000000000000000000000152016825a000000a00099b7c000a1809937a8d00e1f554000000000000ae80c77a0004880643c8002ba031de8001c640266d50000000000000000000000000000000000000000002a402d04b40000014001336f80014301326f51a01c3eaa80000015d018ef400000000004d080200000000000e3201336a800000000000000000000000000000000000000000152016825a000000a00099b7c000a1809937a8d00e1f554000dd20171b944000000000000000000001e6f4041dd36000000000000000000000000000000000000000000000a900b412d00000050004cdbe00050c04c9bd6b680a09f3f0001f600348b20000000000000000000000001e6340689698000000000000000000000000000000000000000000002a402d04b40014001336f80014301326f5ada02827cfc000598041dd36000c8c0190c470900fc990000f4c003c3d8003230064311c2403f26400026e03c3d8000000000000000000000000000000000000000002a402d04b40014001336f80014301326f5ada02827cfc000598041dd36000c8c0190c470900fc990000f4c003c3d8003230064311c2403f26400026e03c3d8000000000000000000000000000000000000000002a402d04b40014001336f80014301326f5ada02827cfc0007d800d22c8000000000000000000000000798d01a25a6000000000000000000000000000000000000000000000a900b412d00050004cdbe00050c04c9bd6b680a09f3f0001f600348b20000000000000000000000001e6340689698000000000000000000000000000000000000000000002a402d04b40014001336f80014301326f5ada02827cfc0007d800d22c8000000000000000000000000798d01a254d0802a6000000000000000000000000000000000000000000000a900b412d00050004cdbe00050c04c9bd6b680a09f3f0001f600348b20000000000000000000000001e6340689698000000000000000000000000000000000000000000000002a402d04b54001336f80014301326f5ada02827cfc0007d800d22c8000000000000000000000000798d01a25a6000000000000000000000000000000000000000000000000a900b412d50004cdbe00050c04c9bd6b680a09f3f0001f600348b20000000000000000000000001e6340689698000000000000000000000000000000000000000000000002a402d04b54001336f80014301326f5ada02827cfc00000000000000000060780dc3b214001336f9cda039f15a0000000000000000000000000000000000000000000000002a402d04b4000000000000000000001d0602e54ec000000000000000000000000000000001c54039294b8000000000000000000000000000000002a402d04b4000000000000000000001d0602e54ec000000000000000000000000000000001c54039294b8000000000000000000000000000000002a402d04b4000000000000000000001d0602e54ec000001ba6039294bb0b0075aae80000000006e980e4a52ec2c01d6aba0000001c54039294b8000000000000000000000000000000002a402d04b4000000000000000000001d0602e54ec000001ba6039294bb4cbb0b0075aae80000000006e980e4a52ec2c01d6aba0000001c54039294b8000000000000000000000000000000002a402d04b4000000000000000000001d0602e54ec000001ba6039294bb0b0075aae80000000006e980e4a52ec2c01d6aba0000001c54039294b8000000000000000000000000000000002a402d04b4000000000000000000001d0602e54ec000001ba6039294bb0b0075aae80000000006e980e4a52ec2c01d6aba0000001c54039294b8000000000000003fffd9680063036f726401011e6170706c69636174696f6e2f6a736f6e3b636861727365743d7574662d38004d4b017b2270223a22766f7264222c2276223a312c227479223a22696e7363222c22636f6c223a2230323336303866343162323735633034313737386331353733383530366633633665336536313539646139333364333761343531373566643833313436666237222c22696964223a224e4f4445205341544f534849222c227075626c223a2231455337623370636a527a4667796969714c7278484b546e43686535364c4a485937222c226e6f6e6365223a3432322c226d696e746572223a22626331716a7a79746b7176336c676636756e6b373572367733717364796b63617179637a386b74717472222c22736967223a22473751384d716c576b554a744b662f384f314653503033634242687051633356764141344a754b6f6f5762364167586f5134616b7472694c6362554c4c5269376e6d5371687668655530625178767a42555046344a7a673d227d68",
        "c1f2d00e1cce0b839d2e197679cac7a15152ec244338032c7767f72c1332d49a65675a92934efa5e4869b2432a3e00abfc6819367af43949c2edc693b32d23ac05"
      ],
      "is_coinbase": false,
      "sequence": 4294967293
    }
  ],
  "vout": [
    {
      "scriptpubkey": "00149088bb0191fa13ae4edea0f4e8820d25b1d01302",
      "scriptpubkey_asm": "OP_0 OP_PUSHBYTES_20 9088bb0191fa13ae4edea0f4e8820d25b1d01302",
      "scriptpubkey_type": "v0_p2wpkh",
      "scriptpubkey_address": "bc1qjzytkqv3lgf6unk75r6w3qsdykcaqycz8ktqtr",
      "value": 1000
    },
    {
      "scriptpubkey": "5120690fc8b7fefd11506ba7a7176eca71153a3c0390a407d6de8bb6a33aa12dcdf0",
      "scriptpubkey_asm": "OP_PUSHNUM_1 OP_PUSHBYTES_32 690fc8b7fefd11506ba7a7176eca71153a3c0390a407d6de8bb6a33aa12dcdf0",
      "scriptpubkey_type": "v1_p2tr",
      "scriptpubkey_address": "bc1pdy8u3dl7l5g4q6a85utkajn3z5arcqus5sradh5tk63n4gfdehcqryzwum",
      "value": 6729
    },
    {
      "scriptpubkey": "51200705a5767db892e98125775049b1a13dd9ecdc8aea0df413cabbee683e871012",
      "scriptpubkey_asm": "OP_PUSHNUM_1 OP_PUSHBYTES_32 0705a5767db892e98125775049b1a13dd9ecdc8aea0df413cabbee683e871012",
      "scriptpubkey_type": "v1_p2tr",
      "scriptpubkey_address": "bc1pquz62anahzfwnqf9wagynvdp8hv7ehy2agxlgy72h0hxs058zqfqk8ksyq",
      "value": 2915
    }
  ],
  "size": 3539,
  "weight": 4043,
  "fee": 11121,
  "status": {
    "confirmed": true,
    "block_height": 834464,
    "block_hash": "0000000000000000000177a0869a911a2b65c9bdcd5a8bcb02b68f305bee848e",
    "block_time": 1710308296
  },
  "hex": "02000000000101cdffef5973d6635d41070bcb1f2bfa652785f4d83cd14992330799b7ba088a210000000000fdffffff03e8030000000000001600149088bb0191fa13ae4edea0f4e8820d25b1d01302491a000000000000225120690fc8b7fefd11506ba7a7176eca71153a3c0390a407d6de8bb6a33aa12dcdf0630b0000000000002251200705a5767db892e98125775049b1a13dd9ecdc8aea0df413cabbee683e8710120340a9310ebe9a4f1fbda6229dc7a56056ccf46ef10f4949e5b0bd0b3abbfdc7b63b54e51dd56f9955812e4c919b551990265bf8e9770f97840749e13e6b97199634fda20c20f2d00e1cce0b839d2e197679cac7a15152ec244338032c7767f72c1332d49a65ac0063036f726401010a696d6167652f6a706567004d0802ffd8ffe000104a46494600010100000100010000ffe201d84943435f50524f46494c45000101000001c800000000043000006d6e74725247422058595a2007e00001000100000000000061637370000000000000000000000000000000000000000000000000000000010000f6d6000100000000d32d0000000000000000000000000000000000000000000000000000000000000000000000000000000000000000000000000000000964657363000000f0000000247258595a00000114000000146758595a00000128000000146258595a0000013c00000014777470740000015000000014725452430000016400000028675452430000016400000028625452430000016400000028637072740000018c0000003c6d6c756300000000000000010000000c656e5553000000080000001c007300520047004258595a200000000000006fa2000038f50000039058595a2000000000000062990000b785000018da58595a2000000000000024a000000f840000b6cf58595a20000000000000f6d6000100000000d32d706172610000000000040000000266660000f2a700000d59000013d000000a5b00000000000000006d6c756300000000000000010000000c656e5553000000200000001c0047006f006f0067006c006500200049006e0063002e00200032003000310036ffdb0043000302020302020303030304030304050805050404054d08020a070706080c0a0c0c0b0a0b0b0d0e12100d0e110e0b0b1016101113141515150c0f171816141812141514ffdb00430103040405040509050509140d0b0d1414141414141414141414141414141414141414141414141414141414141414141414141414141414141414141414141414ffc00011080200020003012200021101031101ffc400190001010101010100000000000000000000000709080a06ffc40014100100000000000000000000000000000000ffc4001c0101000203010101000000000000000000000607040508020903ffc40014110100000000000000000000000000000000ffda000c03010002110311003f00caa000000000000000000000000000000000000000000000000000000000000000000000000000000000000000000000000000000000000000000000000000000000000000000000000000000000000000000000000000000000000000000000000000000000000000000000000000000000000000000000000000000000000000000000000000000000000000000000000000000000000000000000000000000000000000000000000000000000000000000000000000000000000000000000000000000000000000000000000000000000000000000000000000000000000000000000000000000000000000000000000000000000000000000000000000000000000000000000000000000000000000004d08020000000000000000000000000000000000000000000000000000000000000000000000000000000000000000000000000000000000000000000000000000000000000000000000000000000000000000000000000000000000000000000000000000000000000000000000000000000000000000000000000000000000000000000000000000000000000000000000000000000000000000000000000000000000000000000000000000000000000000000000000000000000000000000000000000000000000000000000000000000000000000000000000000000000000001daa03ad57400000000000000000000000038a8072529700000000000000000000000000000000000000000000000000000000000074900e83596000a1809937a8d00e1f554000000000000000000000ae80c77a4880643ca1e0256d60000000000000000000000000000000000000000000002a402d04b40000014001336f80014301326f51a01c3eaa80015d018ef40000009100c879000000000574063bd2440321e50f012b6b000000000000000000000000000000000000000000152016825a000000a00099b7c000a1809937a8d00e1f554000000000000ae80c77a0004880643c8002ba031de8001c640266d50000000000000000000000000000000000000000002a402d04b40000014001336f80014301326f51a01c3eaa80000015d018ef400000000004d080200000000000e3201336a800000000000000000000000000000000000000000152016825a000000a00099b7c000a1809937a8d00e1f554000dd20171b944000000000000000000001e6f4041dd36000000000000000000000000000000000000000000000a900b412d00000050004cdbe00050c04c9bd6b680a09f3f0001f600348b20000000000000000000000001e6340689698000000000000000000000000000000000000000000002a402d04b40014001336f80014301326f5ada02827cfc000598041dd36000c8c0190c470900fc990000f4c003c3d8003230064311c2403f26400026e03c3d8000000000000000000000000000000000000000002a402d04b40014001336f80014301326f5ada02827cfc000598041dd36000c8c0190c470900fc990000f4c003c3d8003230064311c2403f26400026e03c3d8000000000000000000000000000000000000000002a402d04b40014001336f80014301326f5ada02827cfc0007d800d22c8000000000000000000000000798d01a25a6000000000000000000000000000000000000000000000a900b412d00050004cdbe00050c04c9bd6b680a09f3f0001f600348b20000000000000000000000001e6340689698000000000000000000000000000000000000000000002a402d04b40014001336f80014301326f5ada02827cfc0007d800d22c8000000000000000000000000798d01a254d0802a6000000000000000000000000000000000000000000000a900b412d00050004cdbe00050c04c9bd6b680a09f3f0001f600348b20000000000000000000000001e6340689698000000000000000000000000000000000000000000000002a402d04b54001336f80014301326f5ada02827cfc0007d800d22c8000000000000000000000000798d01a25a6000000000000000000000000000000000000000000000000a900b412d50004cdbe00050c04c9bd6b680a09f3f0001f600348b20000000000000000000000001e6340689698000000000000000000000000000000000000000000000002a402d04b54001336f80014301326f5ada02827cfc00000000000000000060780dc3b214001336f9cda039f15a0000000000000000000000000000000000000000000000002a402d04b4000000000000000000001d0602e54ec000000000000000000000000000000001c54039294b8000000000000000000000000000000002a402d04b4000000000000000000001d0602e54ec000000000000000000000000000000001c54039294b8000000000000000000000000000000002a402d04b4000000000000000000001d0602e54ec000001ba6039294bb0b0075aae80000000006e980e4a52ec2c01d6aba0000001c54039294b8000000000000000000000000000000002a402d04b4000000000000000000001d0602e54ec000001ba6039294bb4cbb0b0075aae80000000006e980e4a52ec2c01d6aba0000001c54039294b8000000000000000000000000000000002a402d04b4000000000000000000001d0602e54ec000001ba6039294bb0b0075aae80000000006e980e4a52ec2c01d6aba0000001c54039294b8000000000000000000000000000000002a402d04b4000000000000000000001d0602e54ec000001ba6039294bb0b0075aae80000000006e980e4a52ec2c01d6aba0000001c54039294b8000000000000003fffd9680063036f726401011e6170706c69636174696f6e2f6a736f6e3b636861727365743d7574662d38004d4b017b2270223a22766f7264222c2276223a312c227479223a22696e7363222c22636f6c223a2230323336303866343162323735633034313737386331353733383530366633633665336536313539646139333364333761343531373566643833313436666237222c22696964223a224e4f4445205341544f534849222c227075626c223a2231455337623370636a527a4667796969714c7278484b546e43686535364c4a485937222c226e6f6e6365223a3432322c226d696e746572223a22626331716a7a79746b7176336c676636756e6b373572367733717364796b63617179637a386b74717472222c22736967223a22473751384d716c576b554a744b662f384f314653503033634242687051633356764141344a754b6f6f5762364167586f5134616b7472694c6362554c4c5269376e6d5371687668655530625178767a42555046344a7a673d227d6841c1f2d00e1cce0b839d2e197679cac7a15152ec244338032c7767f72c1332d49a65675a92934efa5e4869b2432a3e00abfc6819367af43949c2edc693b32d23ac0500000000"
}