{
  "txid": "81d3d2ceb730d93f2117e2f6f5a80f16dbd18e753acf200a9b90d782901c00d4",
  "version": 1,
  "locktime": 0,
  "vin": [
    {
      "txid": "49819598d290cd159cab8339f9506d44ceb9739f8a93064f2a18ed7a392030ad",
      "vout": 1,
      "prevout": {
        "scriptpubkey": "76a914ca9e8f95be8005337060f6e47ee68331560ad27288ac",
        "scriptpubkey_asm": "OP_DUP OP_HASH160 OP_PUSHBYTES_20 ca9e8f95be8005337060f6e47ee68331560ad272 OP_EQUALVERIFY OP_CHECKSIG",
        "scriptpubkey_type": "p2pkh",
        "scriptpubkey_address": "1KUMSkfCi6SjStxAQoyUvUoZrACshmFedW",
        "value": 949908
      },
      "scriptsig": "473044022037a2c4b51837e27c731cdea7c1c0c6923d806b513e2e6297495e9f1ce15d05c602205d949e1de960fdf142700fc8cc8f78391eb5cd96fa60ff6999ff6cecee481845012102fe40e059c88eedbded63730c52759522f2fe96cce17df76d4855966b604558d3",
      "scriptsig_asm": "OP_PUSHBYTES_71 3044022037a2c4b51837e27c731cdea7c1c0c6923d806b513e2e6297495e9f1ce15d05c602205d949e1de960fdf142700fc8cc8f78391eb5cd96fa60ff6999ff6cecee48184501 OP_PUSHBYTES_33 02fe40e059c88eedbded63730c52759522f2fe96cce17df76d4855966b604558d3",
      "is_coinbase": false,
      "sequence": 4294967293
    },
    {
      "txid": "600dfd866b41d1e79b96fb0beaf3125c573cb0df494722f9bee51f47ac03377a",
      "vout": 2,
      "prevout": {
        "scriptpubkey": "76a914ca9e8f95be8005337060f6e47ee68331560ad27288ac",
        "scriptpubkey_asm": "OP_DUP OP_HASH160 OP_PUSHBYTES_20 ca9e8f95be8005337060f6e47ee68331560ad272 OP_EQUALVERIFY OP_CHECKSIG",
        "scriptpubkey_type": "p2pkh",
        "scriptpubkey_address": "1KUMSkfCi6SjStxAQoyUvUoZrACshmFedW",
        "value": 642357
      },
      "scriptsig": "483045022100fc1a875a167168cbac0394d634615fc46a39dffc994b5b25509d4913e88b24ec02200d523f0d0bf4c35dc0959ecccf17a606adf0e4728c28d0cfcbcfed63789b5519012102fe40e059c88eedbded63730c52759522f2fe96cce17df76d4855966b604558d3",
      "scriptsig_asm": "OP_PUSHBYTES_72 3045022100fc1a875a167168cbac0394d634615fc46a39dffc994b5b25509d4913e88b24ec02200d523f0d0bf4c35dc0959ecccf17a606adf0e4728c28d0cfcbcfed63789b551901 OP_PUSHBYTES_33 02fe40e059c88eedbded63730c52759522f2fe96cce17df76d4855966b604558d3",
      "is_coinbase": false,
      "sequence": 4294967293
    }
  ],
  "vout": [
    {
      "scriptpubkey": "76a91476edd56af6e6dffe601c3b6d54fd4153ee10329788ac",
      "scriptpubkey_asm": "OP_DUP OP_HASH160 OP_PUSHBYTES_20 76edd56af6e6dffe601c3b6d54fd4153ee103297 OP_EQUALVERIFY OP_CHECKSIG",
      "scriptpubkey_type": "p2pkh",
      "scriptpubkey_address": "1BqqecJQyRRu73cYqmhEuGucufFRCTxEZV",
      "value": 1024147
    },
    {
      "scriptpubkey": "76a914ca9e8f95be8005337060f6e47ee68331560ad27288ac",
      "scriptpubkey_asm": "OP_DUP OP_HASH160 OP_PUSHBYTES_20 ca9e8f95be8005337060f6e47ee68331560ad272 OP_EQUALVERIFY OP_CHECKSIG",
      "scriptpubkey_type": "p2pkh",
      "scriptpubkey_address": "1KUMSkfCi6SjStxAQoyUvUoZrACshmFedW",
      "value": 562396
    }
  ],
  "size": 373,
  "weight": 1492,
  "fee": 5722,
  "status": {
    "confirmed": true,
    "block_height": 834638,
    "block_hash": "000000000000000000025f742c626208ac87e0b7d15054abb4a19ca2d735a54e",
    "block_time": 1710405325
  },
  "hex": "0100000002ad3020397aed182a4f06938a9f73b9ce446d50f93983ab9c15cd90d298958149010000006a473044022037a2c4b51837e27c731cdea7c1c0c6923d806b513e2e6297495e9f1ce15d05c602205d949e1de960fdf142700fc8cc8f78391eb5cd96fa60ff6999ff6cecee481845012102fe40e059c88eedbded63730c52759522f2fe96cce17df76d4855966b604558d3fdffffff7a3703ac471fe5bef9224749dfb03c575c12f3ea0bfb969be7d1416b86fd0d60020000006b483045022100fc1a875a167168cbac0394d634615fc46a39dffc994b5b25509d4913e88b24ec02200d523f0d0bf4c35dc0959ecccf17a606adf0e4728c28d0cfcbcfed63789b5519012102fe40e059c88eedbded63730c52759522f2fe96cce17df76d4855966b604558d3fdffffff0293a00f00000000001976a91476edd56af6e6dffe601c3b6d54fd4153ee10329788acdc940800000000001976a914ca9e8f95be8005337060f6e47ee68331560ad27288ac00000000"
}