{
  "txid": "81dc454d2a424048b4c525a04c22f2eaca189e1ac8babc9aa4c016657f3736ad",
  "version": 2,
  "locktime": 0,
  "vin": [
    {
      "txid": "246d654c08ac53d370d501753f3ac2c90861e2c8cea715ed4b7554841cced399",
      "vout": 64,
      "prevout": {
        "scriptpubkey": "5120a15362996950b526f3a32e2384c2b2054eeab65294d1d9db01e61139cd75635b",
        "scriptpubkey_asm": "OP_PUSHNUM_1 OP_PUSHBYTES_32 a15362996950b526f3a32e2384c2b2054eeab65294d1d9db01e61139cd75635b",
        "scriptpubkey_type": "v1_p2tr",
        "scriptpubkey_address": "bc1p59fk9xtf2z6jduar9c3cfs4jq48w4djjjngankcpucgnnnt4vddsjck0ru",
        "value": 3055
      },
      "scriptsig": "",
      "scriptsig_asm": "",
      "witness": [
        "a4099d8c345dd8db999ecf91beaa415d1c92f94ce6a7db518f7f9356d2da63fc41af020d20041b08097a6e71c5289515ea1be04464532e9eedd3b54235c879e8",
        "2005d03a7a4cda03f1fda83b18bae3ddda3a595877d215614dbdbf73a0cbad9585ac0063036f726401011e6170706c69636174696f6e2f6a736f6e3b636861727365743d7574662d38004cd37b2270223a22706f772d3230222c226f70223a226d696e74222c227469636b223a2250455045222c22616d74223a2231303030222c22736f6c7574696f6e223a22504550453a62633170756a666d33753333656e70786b38383339796c6b3239323239396b6e6467686c717468396e39647a6c7663647635617076366a717732776e71663a303030303030303030303030303030303030303139393431613561653132383937363539383134343239323533333030353762306461393666336465613163353a3631363131353236353639227d68",
        "c1f4929cb66946e40c5d3e5e2b126f88b9a6070d7490abd3aa8e42bf5bbcfe7b9f"
      ],
      "is_coinbase": false,
      "sequence": 4294967295
    }
  ],
  "vout": [
    {
      "scriptpubkey": "5120e493b8f231ccc26b1cf1293f65154a296d36a2ff02ee5995a2fb30d653a166a4",
      "scriptpubkey_asm": "OP_PUSHNUM_1 OP_PUSHBYTES_32 e493b8f231ccc26b1cf1293f65154a296d36a2ff02ee5995a2fb30d653a166a4",
      "scriptpubkey_type": "v1_p2tr",
      "scriptpubkey_address": "bc1pujfm3u33enpxk8839ylk292299kndghlqth9n9dzlvcdv5apv6jqw2wnqf",
      "value": 546
    }
  ],
  "size": 487,
  "weight": 769,
  "fee": 2509,
  "status": {
    "confirmed": true,
    "block_height": 834460,
    "block_hash": "00000000000000000000484a79b643b2524bbce82e5d8a442013fa5b8905ed98",
    "block_time": 1710307468
  },
  "hex": "0200000000010199d3ce1c8454754bed15a7cec8e26108c9c23a3f7501d570d353ac084c656d244000000000ffffffff012202000000000000225120e493b8f231ccc26b1cf1293f65154a296d36a2ff02ee5995a2fb30d653a166a40340a4099d8c345dd8db999ecf91beaa415d1c92f94ce6a7db518f7f9356d2da63fc41af020d20041b08097a6e71c5289515ea1be04464532e9eedd3b54235c879e8fd20012005d03a7a4cda03f1fda83b18bae3ddda3a595877d215614dbdbf73a0cbad9585ac0063036f726401011e6170706c69636174696f6e2f6a736f6e3b636861727365743d7574662d38004cd37b2270223a22706f772d3230222c226f70223a226d696e74222c227469636b223a2250455045222c22616d74223a2231303030222c22736f6c7574696f6e223a22504550453a62633170756a666d33753333656e70786b38383339796c6b3239323239396b6e6467686c717468396e39647a6c7663647635617076366a717732776e71663a303030303030303030303030303030303030303139393431613561653132383937363539383134343239323533333030353762306461393666336465613163353a3631363131353236353639227d6821c1f4929cb66946e40c5d3e5e2b126f88b9a6070d7490abd3aa8e42bf5bbcfe7b9f00000000"
}