{
  "txid": "81e08e7193424b87bd10456d01c6a8eab1088504873b7dbb4f2f57e50525afeb",
  "version": 2,
  "locktime": 0,
  "vin": [
    {
      "txid": "acc3ba00869acb582a3f2904ce3a11dd3779350ce234063fc7d0959246213364",
      "vout": 245,
      "prevout": {
        "scriptpubkey": "5120508b8114744b3dd308496b5753851c9293b37a945970acb47b6ab1b1220cae49",
        "scriptpubkey_asm": "OP_PUSHNUM_1 OP_PUSHBYTES_32 508b8114744b3dd308496b5753851c9293b37a945970acb47b6ab1b1220cae49",
        "scriptpubkey_type": "v1_p2tr",
        "scriptpubkey_address": "bc1p2z9cz9r5fv7axzzfddt48pguj2fmx755t9c2edrmd2cmzgsv4eysm0zdtz",
        "value": 1806
      },
      "scriptsig": "",
      "scriptsig_asm": "",
      "witness": [
        "7a76e87bc1ab8437923b3173bff48a4d9a12e7d0fcc90879350edad7712d56009a1be144e8275c32bd6fc6d4d8548cb484c13af4eab02fcac7104ecfea93e335",
        "20e2acafb6352a0a75eb77cd65d02d4e89c3b722f127d8d2fe30e34fe83b992e5aac0063036f726401010a746578742f706c61696e00357b2270223a226272632d3230222c226f70223a226d696e74222c227469636b223a22646f6765222c22616d74223a2234323030227d68",
        "c0e2acafb6352a0a75eb77cd65d02d4e89c3b722f127d8d2fe30e34fe83b992e5a"
      ],
      "is_coinbase": false,
      "sequence": 4261412863
    }
  ],
  "vout": [
    {
      "scriptpubkey": "00147a665de7a370f4c9b372ab1fae587500a5bcbdb4",
      "scriptpubkey_asm": "OP_0 OP_PUSHBYTES_20 7a665de7a370f4c9b372ab1fae587500a5bcbdb4",
      "scriptpubkey_type": "v0_p2wpkh",
      "scriptpubkey_address": "bc1q0fn9mearwr6vnvmj4v06ukr4qzjme0d565dzcx",
      "value": 294
    }
  ],
  "size": 294,
  "weight": 540,
  "fee": 1512,
  "status": {
    "confirmed": true,
    "block_height": 834460,
    "block_hash": "00000000000000000000484a79b643b2524bbce82e5d8a442013fa5b8905ed98",
    "block_time": 1710307468
  },
  "hex": "02000000000101643321469295d0c73f0634e20c357937dd113ace04293f2a58cb9a8600bac3acf500000000fffffffd0126010000000000001600147a665de7a370f4c9b372ab1fae587500a5bcbdb403407a76e87bc1ab8437923b3173bff48a4d9a12e7d0fcc90879350edad7712d56009a1be144e8275c32bd6fc6d4d8548cb484c13af4eab02fcac7104ecfea93e3356d20e2acafb6352a0a75eb77cd65d02d4e89c3b722f127d8d2fe30e34fe83b992e5aac0063036f726401010a746578742f706c61696e00357b2270223a226272632d3230222c226f70223a226d696e74222c227469636b223a22646f6765222c22616d74223a2234323030227d6821c0e2acafb6352a0a75eb77cd65d02d4e89c3b722f127d8d2fe30e34fe83b992e5a00000000"
}