{
  "txid": "81e27781d8e21f909cc12bd273f13ce10082e24350115f49474d079de6bcb1eb",
  "version": 1,
  "locktime": 0,
  "vin": [
    {
      "txid": "e8e4cddcb9cd2d90cf9f04aacaf4b4b7d4b2a61e7a6cebff286ec1250432cf65",
      "vout": 1,
      "prevout": {
        "scriptpubkey": "5120fb69ab678eebed01e558536b60fd2dad30340c88fa7e7350dc3f124706ef03ba",
        "scriptpubkey_asm": "OP_PUSHNUM_1 OP_PUSHBYTES_32 fb69ab678eebed01e558536b60fd2dad30340c88fa7e7350dc3f124706ef03ba",
        "scriptpubkey_type": "v1_p2tr",
        "scriptpubkey_address": "bc1pld56keuwa0ksre2c2d4kplfd45crgryglfl8x5xu8ufywph0qwaqhk5pkc",
        "value": 826446
      },
      "scriptsig": "",
      "scriptsig_asm": "",
      "witness": [
        "4a2fda91d14ffa1bb9eef38d9e6a565067fdafcbe625f5d356d880ba4b5725c86d5f705ea0123dc104aca65f867e2b36fcb36eafa803ccc248a799b3a59d159901"
      ],
      "is_coinbase": false,
      "sequence": 4294967295
    }
  ],
  "vout": [
    {
      "scriptpubkey": "512009c732390c56cf11017dc955339168ff71a4c86d6390a48f5233ac51f46a4923",
      "scriptpubkey_asm": "OP_PUSHNUM_1 OP_PUSHBYTES_32 09c732390c56cf11017dc955339168ff71a4c86d6390a48f5233ac51f46a4923",
      "scriptpubkey_type": "v1_p2tr",
      "scriptpubkey_address": "bc1pp8rnywgv2m83zqtae92n8ytglac6fjrdvwg2fr6jxwk9rar2fy3szevtuj",
      "value": 22812
    },
    {
      "scriptpubkey": "002051d299656592b9a664a3e9cf504d142ab77fbe29ff6266f5734de3c47228db0e",
      "scriptpubkey_asm": "OP_0 OP_PUSHBYTES_32 51d299656592b9a664a3e9cf504d142ab77fbe29ff6266f5734de3c47228db0e",
      "scriptpubkey_type": "v0_p2wsh",
      "scriptpubkey_address": "bc1q28ffjet9j2u6ve9ra884qng592mhl03fla3xdatnfh3ugu3gmv8qdualwk",
      "value": 800400
    }
  ],
  "size": 206,
  "weight": 617,
  "fee": 3234,
  "status": {
    "confirmed": true,
    "block_height": 834638,
    "block_hash": "000000000000000000025f742c626208ac87e0b7d15054abb4a19ca2d735a54e",
    "block_time": 1710405325
  },
  "hex": "0100000000010165cf320425c16e28ffeb6c7a1ea6b2d4b7b4f4caaa049fcf902dcdb9dccde4e80100000000ffffffff021c5900000000000022512009c732390c56cf11017dc955339168ff71a4c86d6390a48f5233ac51f46a492390360c000000000022002051d299656592b9a664a3e9cf504d142ab77fbe29ff6266f5734de3c47228db0e01414a2fda91d14ffa1bb9eef38d9e6a565067fdafcbe625f5d356d880ba4b5725c86d5f705ea0123dc104aca65f867e2b36fcb36eafa803ccc248a799b3a59d15990100000000"
}