{
  "txid": "81e3987b9bfc31fa87f13483a8eb2c0fb4b731112a0fe6f6befc8d6d525f3cf5",
  "version": 2,
  "locktime": 0,
  "vin": [
    {
      "txid": "120a834d7679881222bce0497e7fa2e430036ce82a1f469bd8e91ab0cb012ee4",
      "vout": 0,
      "prevout": {
        "scriptpubkey": "0014710e431872054d5b904ae40f11ea2a7168da3395",
        "scriptpubkey_asm": "OP_0 OP_PUSHBYTES_20 710e431872054d5b904ae40f11ea2a7168da3395",
        "scriptpubkey_type": "v0_p2wpkh",
        "scriptpubkey_address": "bc1qwy8yxxrjq4x4hyz2us83r632w95d5vu4lfpzwk",
        "value": 6436
      },
      "scriptsig": "",
      "scriptsig_asm": "",
      "witness": [
        "3045022100a8d37d6498591c4db489ed45f68aa548d6a7581268e5228ad649c8ec093773df0220647fcc43d0e7913dc30d53ef3410197a28826db14c8367f8d90d24b3e03b68ec01",
        "03c4bb6f37e578e75246c99f77ee705fc3693d41870a3f5c258946550bc679db84"
      ],
      "is_coinbase": false,
      "sequence": 4294967295
    },
    {
      "txid": "3fbddf4f668853902bb21b86253f7c2891edfdc5ee7196e37bd7daee6256c806",
      "vout": 0,
      "prevout": {
        "scriptpubkey": "001408d96c5014ae9ea6c6eca7e8695d3f1428f484e6",
        "scriptpubkey_asm": "OP_0 OP_PUSHBYTES_20 08d96c5014ae9ea6c6eca7e8695d3f1428f484e6",
        "scriptpubkey_type": "v0_p2wpkh",
        "scriptpubkey_address": "bc1qprvkc5q54602d3hv5l5xjhflzs50fp8x0x7arr",
        "value": 10453
      },
      "scriptsig": "",
      "scriptsig_asm": "",
      "witness": [
        "3045022100d83d3a171cb4a3d840aff4c238d921dfd8e7b12639129479dc94ff3f1bdb84b80220626fb4437a1025fc67f86b43df0657e36a9b72fc4358a50683fd90cd70116ef201",
        "0370a07c6e6b9460e7f78b05a4a02eda37f820e22182c066d3e58a8c5e1e8c4426"
      ],
      "is_coinbase": false,
      "sequence": 4294967295
    },
    {
      "txid": "6eb44a502d52d6e3f926c7a2e2c87b4286b5c73ff6a0272477e3ecbf0aaf0523",
      "vout": 0,
      "prevout": {
        "scriptpubkey": "00146046623bf24dc4041308d84c77b8a3b8f6d9e61e",
        "scriptpubkey_asm": "OP_0 OP_PUSHBYTES_20 6046623bf24dc4041308d84c77b8a3b8f6d9e61e",
        "scriptpubkey_type": "v0_p2wpkh",
        "scriptpubkey_address": "bc1qvprxywljfhzqgycgmpx80w9rhrmdnes7u2whgf",
        "value": 6077
      },
      "scriptsig": "",
      "scriptsig_asm": "",
      "witness": [
        "30440220605493013a0dd7dd328c77505305a79f222f998e0688ad33efdfbe5a084b58740220538361b488c5523ead688eac44a7bb1a7835d27c04f2551106cce034b126bf6601",
        "02106e8f48ef0fc0db11322dfef1a82d1021b098e033bb65962854413e8fc0bbfc"
      ],
      "is_coinbase": false,
      "sequence": 4294967295
    },
    {
      "txid": "dbe978bb38f3f043905cafd0b6a045963f27785e6c6f9b72287c49d3af44dc7f",
      "vout": 0,
      "prevout": {
        "scriptpubkey": "00149b65bd80ee235d9a378eae497f3b7fdab80896a6",
        "scriptpubkey_asm": "OP_0 OP_PUSHBYTES_20 9b65bd80ee235d9a378eae497f3b7fdab80896a6",
        "scriptpubkey_type": "v0_p2wpkh",
        "scriptpubkey_address": "bc1qndjmmq8wydwe5duw4eyh7wmlm2uq394xvk0xx5",
        "value": 11661
      },
      "scriptsig": "",
      "scriptsig_asm": "",
      "witness": [
        "304402200f6642fb62fa14ec7d52c4028292b126d6349d3b790bfd2bba96797bdbc4720c02205885715712dcb90c2d5933e26589761f41df4a9044b1b8c835366d73dcc8932e01",
        "02935b4378f521068156e2f283af9e0e60964d9d8d1f57a92a9c5b929a576283ca"
      ],
      "is_coinbase": false,
      "sequence": 4294967295
    }
  ],
  "vout": [
    {
      "scriptpubkey": "0014ee03b5800d30a9f8fcc39563d08c38152e61fc72",
      "scriptpubkey_asm": "OP_0 OP_PUSHBYTES_20 ee03b5800d30a9f8fcc39563d08c38152e61fc72",
      "scriptpubkey_type": "v0_p2wpkh",
      "scriptpubkey_address": "bc1qacpmtqqdxz5l3lxrj43aprpcz5hxrlrjjkxzq0",
      "value": 358
    },
    {
      "scriptpubkey": "0014c8bd98a21c2593c185528da84bc9aa00579ed8c9",
      "scriptpubkey_asm": "OP_0 OP_PUSHBYTES_20 c8bd98a21c2593c185528da84bc9aa00579ed8c9",
      "scriptpubkey_type": "v0_p2wpkh",
      "scriptpubkey_address": "bc1qez7e3gsuykfurp2j3k5yhjd2qpteakxfrev0qa",
      "value": 30507
    }
  ],
  "size": 668,
  "weight": 1376,
  "fee": 3762,
  "status": {
    "confirmed": true,
    "block_height": 834464,
    "block_hash": "0000000000000000000177a0869a911a2b65c9bdcd5a8bcb02b68f305bee848e",
    "block_time": 1710308296
  },
  "hex": "02000000000104e42e01cbb01ae9d89b461f2ae86c0330e4a27f7e49e0bc22128879764d830a120000000000ffffffff06c85662eedad77be39671eec5fded91287c3f25861bb22b905388664fdfbd3f0000000000ffffffff2305af0abfece3772427a0f63fc7b586427bc8e2a2c726f9e3d6522d504ab46e0000000000ffffffff7fdc44afd3497c28729b6f6c5e78273f9645a0b6d0af5c9043f0f338bb78e9db0000000000ffffffff026601000000000000160014ee03b5800d30a9f8fcc39563d08c38152e61fc722b77000000000000160014c8bd98a21c2593c185528da84bc9aa00579ed8c902483045022100a8d37d6498591c4db489ed45f68aa548d6a7581268e5228ad649c8ec093773df0220647fcc43d0e7913dc30d53ef3410197a28826db14c8367f8d90d24b3e03b68ec012103c4bb6f37e578e75246c99f77ee705fc3693d41870a3f5c258946550bc679db8402483045022100d83d3a171cb4a3d840aff4c238d921dfd8e7b12639129479dc94ff3f1bdb84b80220626fb4437a1025fc67f86b43df0657e36a9b72fc4358a50683fd90cd70116ef201210370a07c6e6b9460e7f78b05a4a02eda37f820e22182c066d3e58a8c5e1e8c4426024730440220605493013a0dd7dd328c77505305a79f222f998e0688ad33efdfbe5a084b58740220538361b488c5523ead688eac44a7bb1a7835d27c04f2551106cce034b126bf66012102106e8f48ef0fc0db11322dfef1a82d1021b098e033bb65962854413e8fc0bbfc0247304402200f6642fb62fa14ec7d52c4028292b126d6349d3b790bfd2bba96797bdbc4720c02205885715712dcb90c2d5933e26589761f41df4a9044b1b8c835366d73dcc8932e012102935b4378f521068156e2f283af9e0e60964d9d8d1f57a92a9c5b929a576283ca00000000"
}