{
  "txid": "81f7a995c91656eef2e125c83bd92467fe53bfa56008296ac6214acce6adfb13",
  "version": 2,
  "locktime": 0,
  "vin": [
    {
      "txid": "0c86c33183010597b4d25870b8407f139982987d6f5a93862d81f904aabd6ddf",
      "vout": 0,
      "prevout": {
        "scriptpubkey": "5120cfa3db4c9e4774c0579b1156717c77de6087582e884f42a8d0bcac4274525e80",
        "scriptpubkey_asm": "OP_PUSHNUM_1 OP_PUSHBYTES_32 cfa3db4c9e4774c0579b1156717c77de6087582e884f42a8d0bcac4274525e80",
        "scriptpubkey_type": "v1_p2tr",
        "scriptpubkey_address": "bc1pe73akny7ga6vq4umz9t8zlrhmesgwkpw3p8592xshjkyyazjt6qqn2x925",
        "value": 2826
      },
      "scriptsig": "",
      "scriptsig_asm": "",
      "witness": [
        "9c50c7bcd4cd9707417ac4e4a7de931773ef5fdc3128e6069edcc299372d1ac560f5caf367c7112db84cef23c01e75477d81d0c6450aba05a680653ef48083d8",
        "20892df1f2630856e8a42f3e44c09ec1d0b80e4a88792a02ad5c7efae437c8b1c0ac0063036f7264010118746578742f706c61696e3b636861727365743d7574662d38003b7b2270223a226272632d3230222c226f70223a227472616e73666572222c227469636b223a2261616161222c22616d74223a22343830303030227d68",
        "c0892df1f2630856e8a42f3e44c09ec1d0b80e4a88792a02ad5c7efae437c8b1c0"
      ],
      "is_coinbase": false,
      "sequence": 4294967293
    }
  ],
  "vout": [
    {
      "scriptpubkey": "51204de8f4ab77db8c556255717e12cca191b9e077a57fc56fcfe3b3dafc56aee116",
      "scriptpubkey_asm": "OP_PUSHNUM_1 OP_PUSHBYTES_32 4de8f4ab77db8c556255717e12cca191b9e077a57fc56fcfe3b3dafc56aee116",
      "scriptpubkey_type": "v1_p2tr",
      "scriptpubkey_address": "bc1pfh50f2mhmwx92cj4w9lp9n9pjxu7qaa90lzklnlrk0d0c44wuytqrfkpfs",
      "value": 546
    }
  ],
  "size": 326,
  "weight": 608,
  "fee": 2280,
  "status": {
    "confirmed": true,
    "block_height": 834460,
    "block_hash": "00000000000000000000484a79b643b2524bbce82e5d8a442013fa5b8905ed98",
    "block_time": 1710307468
  },
  "hex": "02000000000101df6dbdaa04f9812d86935a6f7d988299137f40b87058d2b49705018331c3860c0000000000fdffffff0122020000000000002251204de8f4ab77db8c556255717e12cca191b9e077a57fc56fcfe3b3dafc56aee11603409c50c7bcd4cd9707417ac4e4a7de931773ef5fdc3128e6069edcc299372d1ac560f5caf367c7112db84cef23c01e75477d81d0c6450aba05a680653ef48083d88120892df1f2630856e8a42f3e44c09ec1d0b80e4a88792a02ad5c7efae437c8b1c0ac0063036f7264010118746578742f706c61696e3b636861727365743d7574662d38003b7b2270223a226272632d3230222c226f70223a227472616e73666572222c227469636b223a2261616161222c22616d74223a22343830303030227d6821c0892df1f2630856e8a42f3e44c09ec1d0b80e4a88792a02ad5c7efae437c8b1c000000000"
}