{
  "txid": "81fced3ba74758ceb872813e94ce557ffe9cb2bc61fe4d18b16c8f40f68d4e70",
  "version": 2,
  "locktime": 0,
  "vin": [
    {
      "txid": "f12cfec5cbe58dec565de69f06a1b35f739a96254ef6c671dc3d74b04865d2be",
      "vout": 1,
      "prevout": {
        "scriptpubkey": "0014260245078df51de8a9efae2363660a9ca6db1f31",
        "scriptpubkey_asm": "OP_0 OP_PUSHBYTES_20 260245078df51de8a9efae2363660a9ca6db1f31",
        "scriptpubkey_type": "v0_p2wpkh",
        "scriptpubkey_address": "bc1qycpy2pud75w732004c3kxes2njndk8e3py3jes",
        "value": 36789
      },
      "scriptsig": "",
      "scriptsig_asm": "",
      "witness": [
        "3045022100acafefa650fc3f979236ba474cea96cab8a19b92f96e8e87026eeac975baafe50220699b6eab55af4cc2085ea1ddd2c66c96302f5db9e906c8c4bc35675e0228539701",
        "02044c148cc9bf2493e1d13ce13d6b81d508766df0dd52ccf352e516834fef8dc6"
      ],
      "is_coinbase": false,
      "sequence": 4294967293
    }
  ],
  "vout": [
    {
      "scriptpubkey": "0014deeeb55fc9768185675b4f54443411134e88f8bb",
      "scriptpubkey_asm": "OP_0 OP_PUSHBYTES_20 deeeb55fc9768185675b4f54443411134e88f8bb",
      "scriptpubkey_type": "v0_p2wpkh",
      "scriptpubkey_address": "bc1qmmht2h7fw6qc2e6mfa2ygdq3zd8g379mc9wymz",
      "value": 30000
    }
  ],
  "size": 192,
  "weight": 438,
  "fee": 6789,
  "status": {
    "confirmed": true,
    "block_height": 834638,
    "block_hash": "000000000000000000025f742c626208ac87e0b7d15054abb4a19ca2d735a54e",
    "block_time": 1710405325
  },
  "hex": "02000000000101bed26548b0743ddc71c6f64e25969a735fb3a1069fe65d56ec8de5cbc5fe2cf10100000000fdffffff013075000000000000160014deeeb55fc9768185675b4f54443411134e88f8bb02483045022100acafefa650fc3f979236ba474cea96cab8a19b92f96e8e87026eeac975baafe50220699b6eab55af4cc2085ea1ddd2c66c96302f5db9e906c8c4bc35675e02285397012102044c148cc9bf2493e1d13ce13d6b81d508766df0dd52ccf352e516834fef8dc600000000"
}