{
  "txid": "81fda39873c6ebb85ff1a277c9acf4b0651b1911d0fd5e7a960a28da58d88e24",
  "version": 1,
  "locktime": 834637,
  "vin": [
    {
      "txid": "c23cc13fe7ff36feaec7f5cffea55b4e093c3c95393b3e36043f4efb10456440",
      "vout": 1,
      "prevout": {
        "scriptpubkey": "0020eeb3d39f8ebcfd239cf6a16348a8b46066011d8d05687a462bb1d87e46513df6",
        "scriptpubkey_asm": "OP_0 OP_PUSHBYTES_32 eeb3d39f8ebcfd239cf6a16348a8b46066011d8d05687a462bb1d87e46513df6",
        "scriptpubkey_type": "v0_p2wsh",
        "scriptpubkey_address": "bc1qa6ea88uwhn7j888k59353295vpnqz8vdq458533tk8v8u3j38hmqaek3jk",
        "value": 13356084
      },
      "scriptsig": "",
      "scriptsig_asm": "",
      "witness": [
        "",
        "304402206605275675de7d79df047262264a644211eb67a1d08641b37cf1312a634a9f4702200b1575f211a1c4e6f31c3befed32ac0164e70dd97f5106e602ee69f2a122768401",
        "30440220169f1889a24169da1ab185e070f0027f19a68233544df84479b6415852855543022076e405167fcc7da97bad513a5d11f05d624e134af38f3f638a6d15dbab3930e801",
        "522103110c37cfe93ba971e21702993f7f548ffa0735be5f7a6bff61dd04f93b7965b3210348b0be16f04fed3202c51fdb2a4b0d56f08b154b85896e1437b062f76f5091082103f3180330e02e59fbb0bb39cb5cbcea193b95ed842f9f51c31d0bb97668252e1853ae"
      ],
      "is_coinbase": false,
      "sequence": 4294967293,
      "inner_witnessscript_asm": "OP_PUSHNUM_2 OP_PUSHBYTES_33 03110c37cfe93ba971e21702993f7f548ffa0735be5f7a6bff61dd04f93b7965b3 OP_PUSHBYTES_33 0348b0be16f04fed3202c51fdb2a4b0d56f08b154b85896e1437b062f76f509108 OP_PUSHBYTES_33 03f3180330e02e59fbb0bb39cb5cbcea193b95ed842f9f51c31d0bb97668252e18 OP_PUSHNUM_3 OP_CHECKMULTISIG"
    }
  ],
  "vout": [
    {
      "scriptpubkey": "a9144c73a074dc48157a2efcf5ad5ce9200b0cbd2fb087",
      "scriptpubkey_asm": "OP_HASH160 OP_PUSHBYTES_20 4c73a074dc48157a2efcf5ad5ce9200b0cbd2fb0 OP_EQUAL",
      "scriptpubkey_type": "p2sh",
      "scriptpubkey_address": "38fFo1geYr3gyCa2QBvuJJr3B6nhrh9NyA",
      "value": 1403066
    },
    {
      "scriptpubkey": "0020ab34aa1e4c1766792bbf3df0893b33222b8ecbcbd3dc9f091823e0f63500f327",
      "scriptpubkey_asm": "OP_0 OP_PUSHBYTES_32 ab34aa1e4c1766792bbf3df0893b33222b8ecbcbd3dc9f091823e0f63500f327",
      "scriptpubkey_type": "v0_p2wsh",
      "scriptpubkey_address": "bc1q4v6258jvzan8j2al8hcgjwenyg4caj7t60wf7zgcy0s0vdgq7vns5wsgh0",
      "value": 11948911
    }
  ],
  "size": 380,
  "weight": 758,
  "fee": 4107,
  "status": {
    "confirmed": true,
    "block_height": 834638,
    "block_hash": "000000000000000000025f742c626208ac87e0b7d15054abb4a19ca2d735a54e",
    "block_time": 1710405325
  },
  "hex": "0100000000010140644510fb4e3f04363e3b39953c3c094e5ba5fecff5c7aefe36ffe73fc13cc20100000000fdffffff02ba6815000000000017a9144c73a074dc48157a2efcf5ad5ce9200b0cbd2fb0876f53b60000000000220020ab34aa1e4c1766792bbf3df0893b33222b8ecbcbd3dc9f091823e0f63500f327040047304402206605275675de7d79df047262264a644211eb67a1d08641b37cf1312a634a9f4702200b1575f211a1c4e6f31c3befed32ac0164e70dd97f5106e602ee69f2a1227684014730440220169f1889a24169da1ab185e070f0027f19a68233544df84479b6415852855543022076e405167fcc7da97bad513a5d11f05d624e134af38f3f638a6d15dbab3930e80169522103110c37cfe93ba971e21702993f7f548ffa0735be5f7a6bff61dd04f93b7965b3210348b0be16f04fed3202c51fdb2a4b0d56f08b154b85896e1437b062f76f5091082103f3180330e02e59fbb0bb39cb5cbcea193b95ed842f9f51c31d0bb97668252e1853ae4dbc0c00"
}