{
  "txid": "82004e7a7b50d39c92b1cee4344b662c075e22816fb20399580212a66d122d9c",
  "version": 2,
  "locktime": 834637,
  "vin": [
    {
      "txid": "c5bc6da10f0c3ca7cc53dbe3f92cf0dd798570189f808b54bb88c453bd63bf45",
      "vout": 1,
      "prevout": {
        "scriptpubkey": "0014da80d2ffef781d4f6e683c263a2da55ed7f588e6",
        "scriptpubkey_asm": "OP_0 OP_PUSHBYTES_20 da80d2ffef781d4f6e683c263a2da55ed7f588e6",
        "scriptpubkey_type": "v0_p2wpkh",
        "scriptpubkey_address": "bc1qm2qd9ll00qw57mng8snr5td9tmtltz8xw0vl7h",
        "value": 21400248
      },
      "scriptsig": "",
      "scriptsig_asm": "",
      "witness": [
        "30440220569d9f0df3c6fa0c9e72b1456ba92daa82de3f91494f8e2b5fd284ed714181b102201203de3370907238be4be5abcb7a4002ef38d6e93e183cfc525a9731949d70c001",
        "03278f9c9f80a04f9ef088cf7f42a9a502a4a6acbc1947194e4631f91deb6db4cb"
      ],
      "is_coinbase": false,
      "sequence": 4294967293
    }
  ],
  "vout": [
    {
      "scriptpubkey": "00141841ce85c7d90014bc8f5510e23adac5aa51b95e",
      "scriptpubkey_asm": "OP_0 OP_PUSHBYTES_20 1841ce85c7d90014bc8f5510e23adac5aa51b95e",
      "scriptpubkey_type": "v0_p2wpkh",
      "scriptpubkey_address": "bc1qrpquapw8myqpf0y025gwywk6ck49rw277gr925",
      "value": 13976990
    },
    {
      "scriptpubkey": "001462fc0f0ae2dee494b8f871345f7665b28c94ba36",
      "scriptpubkey_asm": "OP_0 OP_PUSHBYTES_20 62fc0f0ae2dee494b8f871345f7665b28c94ba36",
      "scriptpubkey_type": "v0_p2wpkh",
      "scriptpubkey_address": "bc1qvt7q7zhzmmjffw8cwy697an9k2xffw3kfutxjc",
      "value": 7420000
    }
  ],
  "size": 222,
  "weight": 561,
  "fee": 3258,
  "status": {
    "confirmed": true,
    "block_height": 834638,
    "block_hash": "000000000000000000025f742c626208ac87e0b7d15054abb4a19ca2d735a54e",
    "block_time": 1710405325
  },
  "hex": "0200000000010145bf63bd53c488bb548b809f18708579ddf02cf9e3db53cca73c0c0fa16dbcc50100000000fdffffff029e45d500000000001600141841ce85c7d90014bc8f5510e23adac5aa51b95e603871000000000016001462fc0f0ae2dee494b8f871345f7665b28c94ba36024730440220569d9f0df3c6fa0c9e72b1456ba92daa82de3f91494f8e2b5fd284ed714181b102201203de3370907238be4be5abcb7a4002ef38d6e93e183cfc525a9731949d70c0012103278f9c9f80a04f9ef088cf7f42a9a502a4a6acbc1947194e4631f91deb6db4cb4dbc0c00"
}