{
  "txid": "82165279ff017d9ab50e7aba8aa5b6e7c40dce4c88d69dcaa7cecf50ab313606",
  "version": 2,
  "locktime": 834637,
  "vin": [
    {
      "txid": "1c458f8adfb5c24e6219e920287a37b0d96f812666ed48e0f287868ed38319be",
      "vout": 0,
      "prevout": {
        "scriptpubkey": "0014d28c6f4618aa45ae5765676b00993c58a2a93cd6",
        "scriptpubkey_asm": "OP_0 OP_PUSHBYTES_20 d28c6f4618aa45ae5765676b00993c58a2a93cd6",
        "scriptpubkey_type": "v0_p2wpkh",
        "scriptpubkey_address": "bc1q62xx73sc4fz6u4m9va4spxfutz32j0xknqufwk",
        "value": 234746444
      },
      "scriptsig": "",
      "scriptsig_asm": "",
      "witness": [
        "304402207ddd2296c9e60a365a04616930ebd4a8a5432631ed4d915303884627265ea78e02201e7c16a15a9ecfc325c08a4c197cb955fbe86e4e1b1f36385fa02db4e3e458af01",
        "02891401b4f024b621a7b4011399e5f23362e7d04f8adcc770843a66a85c1a54b3"
      ],
      "is_coinbase": false,
      "sequence": 4294967294
    }
  ],
  "vout": [
    {
      "scriptpubkey": "a9148a2ec18381dcd8208015cad639e31b8c77ef366387",
      "scriptpubkey_asm": "OP_HASH160 OP_PUSHBYTES_20 8a2ec18381dcd8208015cad639e31b8c77ef3663 OP_EQUAL",
      "scriptpubkey_type": "p2sh",
      "scriptpubkey_address": "3EHfBg42wrh9a7xqqSj4gn1NiozKeUGxUw",
      "value": 2891800
    },
    {
      "scriptpubkey": "001481a1950406250cf0cba651a9cc6164462dbdeaf3",
      "scriptpubkey_asm": "OP_0 OP_PUSHBYTES_20 81a1950406250cf0cba651a9cc6164462dbdeaf3",
      "scriptpubkey_type": "v0_p2wpkh",
      "scriptpubkey_address": "bc1qsxse2pqxy5x0pjax2x5ucctygckmm6hnt685cz",
      "value": 231851164
    }
  ],
  "size": 223,
  "weight": 565,
  "fee": 3480,
  "status": {
    "confirmed": true,
    "block_height": 834638,
    "block_hash": "000000000000000000025f742c626208ac87e0b7d15054abb4a19ca2d735a54e",
    "block_time": 1710405325
  },
  "hex": "02000000000101be1983d38e8687f2e048ed6626816fd9b0377a2820e919624ec2b5df8a8f451c0000000000feffffff0218202c000000000017a9148a2ec18381dcd8208015cad639e31b8c77ef3663879cc4d10d0000000016001481a1950406250cf0cba651a9cc6164462dbdeaf30247304402207ddd2296c9e60a365a04616930ebd4a8a5432631ed4d915303884627265ea78e02201e7c16a15a9ecfc325c08a4c197cb955fbe86e4e1b1f36385fa02db4e3e458af012102891401b4f024b621a7b4011399e5f23362e7d04f8adcc770843a66a85c1a54b34dbc0c00"
}