{
  "txid": "822828130ddca55f7b943fcfe1bd331cdfe357430c6d8d1292d110bf44862661",
  "version": 2,
  "locktime": 0,
  "vin": [
    {
      "txid": "0922b68bca7566feacc3c1f70d8e910340c509fd4f7234d7c4bbb26d11d304bf",
      "vout": 2,
      "prevout": {
        "scriptpubkey": "001411b3de97ebde821358ce5c1700330116e5d7303c",
        "scriptpubkey_asm": "OP_0 OP_PUSHBYTES_20 11b3de97ebde821358ce5c1700330116e5d7303c",
        "scriptpubkey_type": "v0_p2wpkh",
        "scriptpubkey_address": "bc1qzxeaa9ltm6ppxkxwtstsqvcpzmjawvpuswcyj9",
        "value": 39684
      },
      "scriptsig": "",
      "scriptsig_asm": "",
      "witness": [
        "3045022100b6a0eba9edbc29cde12d57a09ec92438ebeaf84d6841f8acf27f06e00f00b11a02205985f1dfda76965d3001dff9aa09ca6c49ebb565bd9de5d10e56e1a2e18b3dd201",
        "031fde1fc2d5e32d21a3d7870b17def989ec539799c18d5c929c1391acd9aa8247"
      ],
      "is_coinbase": false,
      "sequence": 4294967295
    }
  ],
  "vout": [
    {
      "scriptpubkey": "001454364819747f37606835ec00b4f4cfd7da5dd43e",
      "scriptpubkey_asm": "OP_0 OP_PUSHBYTES_20 54364819747f37606835ec00b4f4cfd7da5dd43e",
      "scriptpubkey_type": "v0_p2wpkh",
      "scriptpubkey_address": "bc1q2smysxt50umkq6p4asqtfax06ld9m4p7xmjmyn",
      "value": 333
    },
    {
      "scriptpubkey": "512103dfbb06e1838752c899f9cf0f2cec45e92b2590b7160f1284ae99dc91b6bdc10121021074e94afa549a00c09e7e11aa14712a05ed5fe093af492a95fb64238b070e3d2102020202020202020202020202020202020202020202020202020202020202020253ae",
      "scriptpubkey_asm": "OP_PUSHNUM_1 OP_PUSHBYTES_33 03dfbb06e1838752c899f9cf0f2cec45e92b2590b7160f1284ae99dc91b6bdc101 OP_PUSHBYTES_33 021074e94afa549a00c09e7e11aa14712a05ed5fe093af492a95fb64238b070e3d OP_PUSHBYTES_33 020202020202020202020202020202020202020202020202020202020202020202 OP_PUSHNUM_3 OP_CHECKMULTISIG",
      "scriptpubkey_type": "unknown",
      "value": 801
    },
    {
      "scriptpubkey": "001411b3de97ebde821358ce5c1700330116e5d7303c",
      "scriptpubkey_asm": "OP_0 OP_PUSHBYTES_20 11b3de97ebde821358ce5c1700330116e5d7303c",
      "scriptpubkey_type": "v0_p2wpkh",
      "scriptpubkey_address": "bc1qzxeaa9ltm6ppxkxwtstsqvcpzmjawvpuswcyj9",
      "value": 33460
    }
  ],
  "size": 337,
  "weight": 1018,
  "fee": 5090,
  "status": {
    "confirmed": true,
    "block_height": 834460,
    "block_hash": "00000000000000000000484a79b643b2524bbce82e5d8a442013fa5b8905ed98",
    "block_time": 1710307468
  },
  "hex": "02000000000101bf04d3116db2bbc4d734724ffd09c54003918e0df7c1c3acfe6675ca8bb622090200000000ffffffff034d0100000000000016001454364819747f37606835ec00b4f4cfd7da5dd43e210300000000000069512103dfbb06e1838752c899f9cf0f2cec45e92b2590b7160f1284ae99dc91b6bdc10121021074e94afa549a00c09e7e11aa14712a05ed5fe093af492a95fb64238b070e3d2102020202020202020202020202020202020202020202020202020202020202020253aeb48200000000000016001411b3de97ebde821358ce5c1700330116e5d7303c02483045022100b6a0eba9edbc29cde12d57a09ec92438ebeaf84d6841f8acf27f06e00f00b11a02205985f1dfda76965d3001dff9aa09ca6c49ebb565bd9de5d10e56e1a2e18b3dd20121031fde1fc2d5e32d21a3d7870b17def989ec539799c18d5c929c1391acd9aa824700000000"
}