{
  "txid": "8230a1fd29e3dc4ae4891e3be52206c7a55da54b44ad8ae6f6234b45ce37f753",
  "version": 1,
  "locktime": 0,
  "vin": [
    {
      "txid": "3c527bbeeb19e11a855b00e03dee7d8b4a4b3cabc934c513293fc895adeba6db",
      "vout": 1,
      "prevout": {
        "scriptpubkey": "0014f56f84b1d0916b6cbcb91e6f6f53f56a02d7e8e2",
        "scriptpubkey_asm": "OP_0 OP_PUSHBYTES_20 f56f84b1d0916b6cbcb91e6f6f53f56a02d7e8e2",
        "scriptpubkey_type": "v0_p2wpkh",
        "scriptpubkey_address": "bc1q74hcfvwsj94ke09erehk75l4dgpd068zxv20tc",
        "value": 24026
      },
      "scriptsig": "",
      "scriptsig_asm": "",
      "witness": [
        "30450221008285c6a487dc1dd86afda6b70d31b3a966e7ebddf0b3072d6abc40a7fe25c0ed02201126d5e970f1f90cbd3ef6e2308ca79d58211567d0925f325eb3ceb02a78b6d101",
        "03e836d9a5317027f10283489cb1e6a9c18aba100e4e01f36a7963b0a0b0841095"
      ],
      "is_coinbase": false,
      "sequence": 4294967295
    }
  ],
  "vout": [
    {
      "scriptpubkey": "76a91443ab89de99f2d11131fd758f5df20e82d44f6e8788ac",
      "scriptpubkey_asm": "OP_DUP OP_HASH160 OP_PUSHBYTES_20 43ab89de99f2d11131fd758f5df20e82d44f6e87 OP_EQUALVERIFY OP_CHECKSIG",
      "scriptpubkey_type": "p2pkh",
      "scriptpubkey_address": "17AomZVek6FgeSjU4YgcDq1RhjhJJXUZhS",
      "value": 16360
    },
    {
      "scriptpubkey": "0014f56f84b1d0916b6cbcb91e6f6f53f56a02d7e8e2",
      "scriptpubkey_asm": "OP_0 OP_PUSHBYTES_20 f56f84b1d0916b6cbcb91e6f6f53f56a02d7e8e2",
      "scriptpubkey_type": "v0_p2wpkh",
      "scriptpubkey_address": "bc1q74hcfvwsj94ke09erehk75l4dgpd068zxv20tc",
      "value": 3778
    }
  ],
  "size": 226,
  "weight": 574,
  "fee": 3888,
  "status": {
    "confirmed": true,
    "block_height": 834638,
    "block_hash": "000000000000000000025f742c626208ac87e0b7d15054abb4a19ca2d735a54e",
    "block_time": 1710405325
  },
  "hex": "01000000000101dba6ebad95c83f2913c534c9ab3c4b4a8b7dee3de0005b851ae119ebbe7b523c0100000000ffffffff02e83f0000000000001976a91443ab89de99f2d11131fd758f5df20e82d44f6e8788acc20e000000000000160014f56f84b1d0916b6cbcb91e6f6f53f56a02d7e8e2024830450221008285c6a487dc1dd86afda6b70d31b3a966e7ebddf0b3072d6abc40a7fe25c0ed02201126d5e970f1f90cbd3ef6e2308ca79d58211567d0925f325eb3ceb02a78b6d1012103e836d9a5317027f10283489cb1e6a9c18aba100e4e01f36a7963b0a0b084109500000000"
}