{
  "txid": "8242101f9bd09461d4a8071eff46bd5c2853e3e4b1109ebc295703fc45bce8d3",
  "version": 1,
  "locktime": 0,
  "vin": [
    {
      "txid": "895c8f042dca11dcf99b12efbd80b5d0ffef494702ff8d5555e1feaacac91626",
      "vout": 1,
      "prevout": {
        "scriptpubkey": "001448721845d8d8ad552aecdd259053f9fcc1f10a72",
        "scriptpubkey_asm": "OP_0 OP_PUSHBYTES_20 48721845d8d8ad552aecdd259053f9fcc1f10a72",
        "scriptpubkey_type": "v0_p2wpkh",
        "scriptpubkey_address": "bc1qfpeps3wcmzk422hvm5jeq5lelnqlzznjwyfy69",
        "value": 5106444640
      },
      "scriptsig": "",
      "scriptsig_asm": "",
      "witness": [
        "30440220358d13e09dd3259858c4e8e1177b1cce7d6e0e151492fa698928a5f12169467e0220544a3958bb0033ab381402f85892cf9451a17da7681cd68c49a331dbf47ff45301",
        "02dc8683704adb6dbea6d1e0bb392ab45b57dcc9c5f919b7d59389fdd9fb096f25"
      ],
      "is_coinbase": false,
      "sequence": 4294967295
    }
  ],
  "vout": [
    {
      "scriptpubkey": "0014bb7b3e9d6eeda4b32e983019cd29df56955ecbeb",
      "scriptpubkey_asm": "OP_0 OP_PUSHBYTES_20 bb7b3e9d6eeda4b32e983019cd29df56955ecbeb",
      "scriptpubkey_type": "v0_p2wpkh",
      "scriptpubkey_address": "bc1qhdana8twakjtxt5cxqvu62wl2624ajltl3klvn",
      "value": 3700000
    },
    {
      "scriptpubkey": "001448721845d8d8ad552aecdd259053f9fcc1f10a72",
      "scriptpubkey_asm": "OP_0 OP_PUSHBYTES_20 48721845d8d8ad552aecdd259053f9fcc1f10a72",
      "scriptpubkey_type": "v0_p2wpkh",
      "scriptpubkey_address": "bc1qfpeps3wcmzk422hvm5jeq5lelnqlzznjwyfy69",
      "value": 5102742271
    }
  ],
  "size": 222,
  "weight": 561,
  "fee": 2369,
  "status": {
    "confirmed": true,
    "block_height": 834638,
    "block_hash": "000000000000000000025f742c626208ac87e0b7d15054abb4a19ca2d735a54e",
    "block_time": 1710405325
  },
  "hex": "010000000001012616c9caaafee155558dff024749efffd0b580bdef129bf9dc11ca2d048f5c890100000000ffffffff022075380000000000160014bb7b3e9d6eeda4b32e983019cd29df56955ecbebffaa25300100000016001448721845d8d8ad552aecdd259053f9fcc1f10a72024730440220358d13e09dd3259858c4e8e1177b1cce7d6e0e151492fa698928a5f12169467e0220544a3958bb0033ab381402f85892cf9451a17da7681cd68c49a331dbf47ff453012102dc8683704adb6dbea6d1e0bb392ab45b57dcc9c5f919b7d59389fdd9fb096f2500000000"
}