{
  "txid": "824c9b33d01799162eb0f5238337ccb6ef32a4a6999182c37316f4f29dfe5890",
  "version": 1,
  "locktime": 0,
  "vin": [
    {
      "txid": "4bdb2b4dc22c235ef2d525a311549dbe9fd1ac5cc444cbdb8583292a260c7ca1",
      "vout": 7,
      "prevout": {
        "scriptpubkey": "00141295cbfabd355e5bd66417ccaf49cc4898b33d6e",
        "scriptpubkey_asm": "OP_0 OP_PUSHBYTES_20 1295cbfabd355e5bd66417ccaf49cc4898b33d6e",
        "scriptpubkey_type": "v0_p2wpkh",
        "scriptpubkey_address": "bc1qz22uh74ax409h4nyzlx27jwvfzvtx0twkgdsc4",
        "value": 218851
      },
      "scriptsig": "",
      "scriptsig_asm": "",
      "witness": [
        "3044022076eaf47ca07fa1fbb3f7b3eb4156eaa480612e625456f9b9bec010a8ea33df0902205954498b4b9d4a2244647e3527d01e3c2be54300412969a87d7584bcc2d4d3cd01",
        "02d6635b439685afe449f4ca4397d599197c467094d86a9ae274b2608974df63f5"
      ],
      "is_coinbase": false,
      "sequence": 4294967295
    }
  ],
  "vout": [
    {
      "scriptpubkey": "76a9147173986a1d2bdaa191d60d009650e691a597241788ac",
      "scriptpubkey_asm": "OP_DUP OP_HASH160 OP_PUSHBYTES_20 7173986a1d2bdaa191d60d009650e691a5972417 OP_EQUALVERIFY OP_CHECKSIG",
      "scriptpubkey_type": "p2pkh",
      "scriptpubkey_address": "1BLsqPGR4kp5nxNPjsRpmSupohp5vAGDDL",
      "value": 215800
    }
  ],
  "size": 194,
  "weight": 449,
  "fee": 3051,
  "status": {
    "confirmed": true,
    "block_height": 834638,
    "block_hash": "000000000000000000025f742c626208ac87e0b7d15054abb4a19ca2d735a54e",
    "block_time": 1710405325
  },
  "hex": "01000000000101a17c0c262a298385dbcb44c45cacd19fbe9d5411a325d5f25e232cc24d2bdb4b0700000000ffffffff01f84a0300000000001976a9147173986a1d2bdaa191d60d009650e691a597241788ac02473044022076eaf47ca07fa1fbb3f7b3eb4156eaa480612e625456f9b9bec010a8ea33df0902205954498b4b9d4a2244647e3527d01e3c2be54300412969a87d7584bcc2d4d3cd012102d6635b439685afe449f4ca4397d599197c467094d86a9ae274b2608974df63f500000000"
}