{
  "txid": "824fa1787cb630d21b94b07aeff37f04a550280c6b210a2141b1a75fed78a19f",
  "version": 2,
  "locktime": 0,
  "vin": [
    {
      "txid": "c54cf728619a00496ccf1df6f2d999af693a09be58643f61ca976c456e39efab",
      "vout": 1,
      "prevout": {
        "scriptpubkey": "00145e9e4af622d508583995f46776c0e30db7382172",
        "scriptpubkey_asm": "OP_0 OP_PUSHBYTES_20 5e9e4af622d508583995f46776c0e30db7382172",
        "scriptpubkey_type": "v0_p2wpkh",
        "scriptpubkey_address": "bc1qt60y4a3z65y9swv473nhds8rpkmnsgtjgn8dq9",
        "value": 6245398
      },
      "scriptsig": "",
      "scriptsig_asm": "",
      "witness": [
        "304402205e70ea2b60e3b7c6dbbeabec7f2092c358e79c2f5e57ad376e13f0cfdfef0c020220392db0e82cb5ed694642e3b86ad3e528aa093cc4e2e623717c0bdb385def45e501",
        "02949992578a5e1a4a28f3ed7a395ec71a2ce82b6ee9539312251aeb2801b0452a"
      ],
      "is_coinbase": false,
      "sequence": 4294967295
    }
  ],
  "vout": [
    {
      "scriptpubkey": "00145e9e4af622d508583995f46776c0e30db7382172",
      "scriptpubkey_asm": "OP_0 OP_PUSHBYTES_20 5e9e4af622d508583995f46776c0e30db7382172",
      "scriptpubkey_type": "v0_p2wpkh",
      "scriptpubkey_address": "bc1qt60y4a3z65y9swv473nhds8rpkmnsgtjgn8dq9",
      "value": 6212809
    },
    {
      "scriptpubkey": "a914d694fe86541e93f9ad4884b4381f58b7d34e0fad87",
      "scriptpubkey_asm": "OP_HASH160 OP_PUSHBYTES_20 d694fe86541e93f9ad4884b4381f58b7d34e0fad OP_EQUAL",
      "scriptpubkey_type": "p2sh",
      "scriptpubkey_address": "3MFd1txFf1BLUqsE7gfFZLSEZKhp8uML3P",
      "value": 30500
    }
  ],
  "size": 223,
  "weight": 565,
  "fee": 2089,
  "status": {
    "confirmed": true,
    "block_height": 834638,
    "block_hash": "000000000000000000025f742c626208ac87e0b7d15054abb4a19ca2d735a54e",
    "block_time": 1710405325
  },
  "hex": "02000000000101abef396e456c97ca613f6458be093a69af99d9f2f61dcf6c49009a6128f74cc50100000000ffffffff02c9cc5e00000000001600145e9e4af622d508583995f46776c0e30db7382172247700000000000017a914d694fe86541e93f9ad4884b4381f58b7d34e0fad870247304402205e70ea2b60e3b7c6dbbeabec7f2092c358e79c2f5e57ad376e13f0cfdfef0c020220392db0e82cb5ed694642e3b86ad3e528aa093cc4e2e623717c0bdb385def45e5012102949992578a5e1a4a28f3ed7a395ec71a2ce82b6ee9539312251aeb2801b0452a00000000"
}