{
  "txid": "825217c06a33d7e84618c185fe02ab5d03330098d3e3374503f5e5be4a9408e4",
  "version": 2,
  "locktime": 0,
  "vin": [
    {
      "txid": "79298b07a6e857441f398b716e7863506a1310c58b67d0ce13ae2e2a90140429",
      "vout": 0,
      "prevout": {
        "scriptpubkey": "001456aa0e909fa174badc8f4dcf089c4aca97e760ca",
        "scriptpubkey_asm": "OP_0 OP_PUSHBYTES_20 56aa0e909fa174badc8f4dcf089c4aca97e760ca",
        "scriptpubkey_type": "v0_p2wpkh",
        "scriptpubkey_address": "bc1q264qayyl596t4hy0fh8s38z2e2t7wcx2yz3vkc",
        "value": 178667
      },
      "scriptsig": "",
      "scriptsig_asm": "",
      "witness": [
        "304402201b3fe22a7e3d9ec9bdbcdf61f610bc8b8d2ee61e7a2ace2d56911ca0d342b5f60220782a55b64d584052f171b2065b7fe59b8b3af436a1aee209b448410eaa457e5501",
        "028dd102f5c9f00a45212a496f260220f91f8e13aab132b3c120a64c824b61b88a"
      ],
      "is_coinbase": false,
      "sequence": 4294967293
    }
  ],
  "vout": [
    {
      "scriptpubkey": "0014e4dd3b073a57846c86d788dae750b5969384b4b2",
      "scriptpubkey_asm": "OP_0 OP_PUSHBYTES_20 e4dd3b073a57846c86d788dae750b5969384b4b2",
      "scriptpubkey_type": "v0_p2wpkh",
      "scriptpubkey_address": "bc1qunwnkpe627zxepkh3rdww594j6fcfd9jx8herm",
      "value": 85687
    },
    {
      "scriptpubkey": "a9147b02fafc67f680abf62342f8a6273815b6618d1c87",
      "scriptpubkey_asm": "OP_HASH160 OP_PUSHBYTES_20 7b02fafc67f680abf62342f8a6273815b6618d1c OP_EQUAL",
      "scriptpubkey_type": "p2sh",
      "scriptpubkey_address": "3CuScDozwjuaxzGTEyW6MogXythRkKH3Nw",
      "value": 89000
    }
  ],
  "size": 223,
  "weight": 565,
  "fee": 3980,
  "status": {
    "confirmed": true,
    "block_height": 834638,
    "block_hash": "000000000000000000025f742c626208ac87e0b7d15054abb4a19ca2d735a54e",
    "block_time": 1710405325
  },
  "hex": "02000000000101290414902a2eae13ced0678bc510136a5063786e718b391f4457e8a6078b29790000000000fdffffff02b74e010000000000160014e4dd3b073a57846c86d788dae750b5969384b4b2a85b01000000000017a9147b02fafc67f680abf62342f8a6273815b6618d1c870247304402201b3fe22a7e3d9ec9bdbcdf61f610bc8b8d2ee61e7a2ace2d56911ca0d342b5f60220782a55b64d584052f171b2065b7fe59b8b3af436a1aee209b448410eaa457e550121028dd102f5c9f00a45212a496f260220f91f8e13aab132b3c120a64c824b61b88a00000000"
}