{
  "txid": "826028c8ceb00cc8a72262b28ab4697c9ed5100076cc27dc76381c8491c78c10",
  "version": 2,
  "locktime": 834637,
  "vin": [
    {
      "txid": "a3be5b6c843f8c9f87e38b02f182017072b3df459a1a7e3f227fbcdeb1373d1b",
      "vout": 1,
      "prevout": {
        "scriptpubkey": "76a9141135404b232bde6e8c9b149488af446955901a2988ac",
        "scriptpubkey_asm": "OP_DUP OP_HASH160 OP_PUSHBYTES_20 1135404b232bde6e8c9b149488af446955901a29 OP_EQUALVERIFY OP_CHECKSIG",
        "scriptpubkey_type": "p2pkh",
        "scriptpubkey_address": "12ZzHDWR8P5hxzUdw7heHiyrZ7UdVB6B6n",
        "value": 671200
      },
      "scriptsig": "47304402203b69988a53787a8c52300dd7050ef78951e5786b95a7948559400d1618707f03022043710f3d97b0dd6f55f172e37038cdf7b4470e119db4137dad2d26b1f57ac44101210336cd6419f5d270153dfa16dc1ad8a7488fc1f1add70a4c61a69bdfe3c54269ed",
      "scriptsig_asm": "OP_PUSHBYTES_71 304402203b69988a53787a8c52300dd7050ef78951e5786b95a7948559400d1618707f03022043710f3d97b0dd6f55f172e37038cdf7b4470e119db4137dad2d26b1f57ac44101 OP_PUSHBYTES_33 0336cd6419f5d270153dfa16dc1ad8a7488fc1f1add70a4c61a69bdfe3c54269ed",
      "is_coinbase": false,
      "sequence": 4294967293
    }
  ],
  "vout": [
    {
      "scriptpubkey": "0014f7a85fbdefcab2a0d4bd96b1f3b0e1aba2c724f6",
      "scriptpubkey_asm": "OP_0 OP_PUSHBYTES_20 f7a85fbdefcab2a0d4bd96b1f3b0e1aba2c724f6",
      "scriptpubkey_type": "v0_p2wpkh",
      "scriptpubkey_address": "bc1q7759l000e2e2p49aj6cl8v8p4w3vwf8kw4ha3y",
      "value": 100000
    },
    {
      "scriptpubkey": "76a9141135404b232bde6e8c9b149488af446955901a2988ac",
      "scriptpubkey_asm": "OP_DUP OP_HASH160 OP_PUSHBYTES_20 1135404b232bde6e8c9b149488af446955901a29 OP_EQUALVERIFY OP_CHECKSIG",
      "scriptpubkey_type": "p2pkh",
      "scriptpubkey_address": "12ZzHDWR8P5hxzUdw7heHiyrZ7UdVB6B6n",
      "value": 565100
    }
  ],
  "size": 222,
  "weight": 888,
  "fee": 6100,
  "status": {
    "confirmed": true,
    "block_height": 834638,
    "block_hash": "000000000000000000025f742c626208ac87e0b7d15054abb4a19ca2d735a54e",
    "block_time": 1710405325
  },
  "hex": "02000000011b3d37b1debc7f223f7e1a9a45dfb372700182f1028be3879f8c3f846c5bbea3010000006a47304402203b69988a53787a8c52300dd7050ef78951e5786b95a7948559400d1618707f03022043710f3d97b0dd6f55f172e37038cdf7b4470e119db4137dad2d26b1f57ac44101210336cd6419f5d270153dfa16dc1ad8a7488fc1f1add70a4c61a69bdfe3c54269edfdffffff02a086010000000000160014f7a85fbdefcab2a0d4bd96b1f3b0e1aba2c724f66c9f0800000000001976a9141135404b232bde6e8c9b149488af446955901a2988ac4dbc0c00"
}