{
  "txid": "827222dfb15cd981db3a21b420f704883b44ff9bf471b67780507500b9bb0472",
  "version": 1,
  "locktime": 0,
  "vin": [
    {
      "txid": "16536d5d3a4447a78662dbed1bf2749a7e4c837f333843bf28d160182b4adff7",
      "vout": 2,
      "prevout": {
        "scriptpubkey": "a914ae28e15b66a0af6bea28e4f5a931688a374368e687",
        "scriptpubkey_asm": "OP_HASH160 OP_PUSHBYTES_20 ae28e15b66a0af6bea28e4f5a931688a374368e6 OP_EQUAL",
        "scriptpubkey_type": "p2sh",
        "scriptpubkey_address": "3HZtULQNXdScBb3PFWcgt43nu3MdrBK2pu",
        "value": 14082
      },
      "scriptsig": "16001426e6f95d4e783a68110e5033e76d319e9c35f6c6",
      "scriptsig_asm": "OP_PUSHBYTES_22 001426e6f95d4e783a68110e5033e76d319e9c35f6c6",
      "witness": [
        "3044022022cea64b18d7fd41a4444ff9e224070aa78d9be6fd051e1ffc9403baa448539402202714a3815cf131ec921a8cbe71184a804ebf7eb8cf1adec4d46f177cfefce67001",
        "021aab1b1918b7a42efdf8fa947cc6fe84fb6a4831953cf8b3f0bb927dde1827dd"
      ],
      "is_coinbase": false,
      "sequence": 4294967295,
      "inner_redeemscript_asm": "OP_0 OP_PUSHBYTES_20 26e6f95d4e783a68110e5033e76d319e9c35f6c6"
    },
    {
      "txid": "d2eef82fd502abf8f9a7834cf1230f7816f59bad3f0b0966fb849e095ea06294",
      "vout": 1,
      "prevout": {
        "scriptpubkey": "a914ae28e15b66a0af6bea28e4f5a931688a374368e687",
        "scriptpubkey_asm": "OP_HASH160 OP_PUSHBYTES_20 ae28e15b66a0af6bea28e4f5a931688a374368e6 OP_EQUAL",
        "scriptpubkey_type": "p2sh",
        "scriptpubkey_address": "3HZtULQNXdScBb3PFWcgt43nu3MdrBK2pu",
        "value": 7087
      },
      "scriptsig": "16001426e6f95d4e783a68110e5033e76d319e9c35f6c6",
      "scriptsig_asm": "OP_PUSHBYTES_22 001426e6f95d4e783a68110e5033e76d319e9c35f6c6",
      "witness": [
        "3044022077fc965e17d0b801063894a0971e984e19f1bd4a3a78bedc1d18efb6c5675a0e02203e5c1f9d430505c27d452fbb4c8b63a79c8bb219ba199ba55990b1541fd5963501",
        "021aab1b1918b7a42efdf8fa947cc6fe84fb6a4831953cf8b3f0bb927dde1827dd"
      ],
      "is_coinbase": false,
      "sequence": 4294967295,
      "inner_redeemscript_asm": "OP_0 OP_PUSHBYTES_20 26e6f95d4e783a68110e5033e76d319e9c35f6c6"
    },
    {
      "txid": "56b8f755faf9f98fb23b3f8b76513d6dd0b24573c284f379be25eec0d5f45a20",
      "vout": 6,
      "prevout": {
        "scriptpubkey": "a914ae28e15b66a0af6bea28e4f5a931688a374368e687",
        "scriptpubkey_asm": "OP_HASH160 OP_PUSHBYTES_20 ae28e15b66a0af6bea28e4f5a931688a374368e6 OP_EQUAL",
        "scriptpubkey_type": "p2sh",
        "scriptpubkey_address": "3HZtULQNXdScBb3PFWcgt43nu3MdrBK2pu",
        "value": 4447
      },
      "scriptsig": "16001426e6f95d4e783a68110e5033e76d319e9c35f6c6",
      "scriptsig_asm": "OP_PUSHBYTES_22 001426e6f95d4e783a68110e5033e76d319e9c35f6c6",
      "witness": [
        "3045022100c12f5fbe87e65035cb281d5cd045abb48e92dd59dfabbece97f1c42535c227590220246be5a7a98347fb87d6e36a91bcba9e2b5a23ea0ac5ed8e424896a5cb14f55501",
        "021aab1b1918b7a42efdf8fa947cc6fe84fb6a4831953cf8b3f0bb927dde1827dd"
      ],
      "is_coinbase": false,
      "sequence": 4294967295,
      "inner_redeemscript_asm": "OP_0 OP_PUSHBYTES_20 26e6f95d4e783a68110e5033e76d319e9c35f6c6"
    },
    {
      "txid": "31601f283cd5b8a4a172cffd810c60749cf17d08e5e0bff531cdc2b491cdf854",
      "vout": 2,
      "prevout": {
        "scriptpubkey": "a914ae28e15b66a0af6bea28e4f5a931688a374368e687",
        "scriptpubkey_asm": "OP_HASH160 OP_PUSHBYTES_20 ae28e15b66a0af6bea28e4f5a931688a374368e6 OP_EQUAL",
        "scriptpubkey_type": "p2sh",
        "scriptpubkey_address": "3HZtULQNXdScBb3PFWcgt43nu3MdrBK2pu",
        "value": 3869
      },
      "scriptsig": "16001426e6f95d4e783a68110e5033e76d319e9c35f6c6",
      "scriptsig_asm": "OP_PUSHBYTES_22 001426e6f95d4e783a68110e5033e76d319e9c35f6c6",
      "witness": [
        "3045022100eb9b70abe6b231a7d6e117731210567b710f3096ba434703f69f842b7d889fbc02202467ee4c3fd3956d7da031d01fcf6c1ec511ffb902e884e1a9a85471357de04b01",
        "021aab1b1918b7a42efdf8fa947cc6fe84fb6a4831953cf8b3f0bb927dde1827dd"
      ],
      "is_coinbase": false,
      "sequence": 4294967295,
      "inner_redeemscript_asm": "OP_0 OP_PUSHBYTES_20 26e6f95d4e783a68110e5033e76d319e9c35f6c6"
    },
    {
      "txid": "41211e4d58adfe005fe6ba8233d37742f12df4ae512c8550867c290c1b9504b2",
      "vout": 0,
      "prevout": {
        "scriptpubkey": "a914ae28e15b66a0af6bea28e4f5a931688a374368e687",
        "scriptpubkey_asm": "OP_HASH160 OP_PUSHBYTES_20 ae28e15b66a0af6bea28e4f5a931688a374368e6 OP_EQUAL",
        "scriptpubkey_type": "p2sh",
        "scriptpubkey_address": "3HZtULQNXdScBb3PFWcgt43nu3MdrBK2pu",
        "value": 1800
      },
      "scriptsig": "16001426e6f95d4e783a68110e5033e76d319e9c35f6c6",
      "scriptsig_asm": "OP_PUSHBYTES_22 001426e6f95d4e783a68110e5033e76d319e9c35f6c6",
      "witness": [
        "304402205952119b30091c363bab1a23cfe97b0ea8a4bb8f6f3061864f84b407861b920b022071e2d87aecb24c52a2a4898adfe0da692c583907b6dc165e52778888812f300201",
        "021aab1b1918b7a42efdf8fa947cc6fe84fb6a4831953cf8b3f0bb927dde1827dd"
      ],
      "is_coinbase": false,
      "sequence": 4294967295,
      "inner_redeemscript_asm": "OP_0 OP_PUSHBYTES_20 26e6f95d4e783a68110e5033e76d319e9c35f6c6"
    },
    {
      "txid": "c630fcee1025df30055e499ef2b0008cd9e08dc4b68f170ee04987b3557e9094",
      "vout": 0,
      "prevout": {
        "scriptpubkey": "a914ae28e15b66a0af6bea28e4f5a931688a374368e687",
        "scriptpubkey_asm": "OP_HASH160 OP_PUSHBYTES_20 ae28e15b66a0af6bea28e4f5a931688a374368e6 OP_EQUAL",
        "scriptpubkey_type": "p2sh",
        "scriptpubkey_address": "3HZtULQNXdScBb3PFWcgt43nu3MdrBK2pu",
        "value": 1800
      },
      "scriptsig": "16001426e6f95d4e783a68110e5033e76d319e9c35f6c6",
      "scriptsig_asm": "OP_PUSHBYTES_22 001426e6f95d4e783a68110e5033e76d319e9c35f6c6",
      "witness": [
        "3045022100ed00e7955ba24914c65eca6cb429634c4ba30e003243edaa88e52dc94a80c66602206d36debed5de936375180df7c0e7002f20e333b53642e6da58a12785b3b4b61901",
        "021aab1b1918b7a42efdf8fa947cc6fe84fb6a4831953cf8b3f0bb927dde1827dd"
      ],
      "is_coinbase": false,
      "sequence": 4294967295,
      "inner_redeemscript_asm": "OP_0 OP_PUSHBYTES_20 26e6f95d4e783a68110e5033e76d319e9c35f6c6"
    },
    {
      "txid": "c41b5ab54113368d3d3e2f5551477aa4136ea94e79adc8279b41f4e4f7ec0b9c",
      "vout": 1,
      "prevout": {
        "scriptpubkey": "a914ae28e15b66a0af6bea28e4f5a931688a374368e687",
        "scriptpubkey_asm": "OP_HASH160 OP_PUSHBYTES_20 ae28e15b66a0af6bea28e4f5a931688a374368e6 OP_EQUAL",
        "scriptpubkey_type": "p2sh",
        "scriptpubkey_address": "3HZtULQNXdScBb3PFWcgt43nu3MdrBK2pu",
        "value": 1595
      },
      "scriptsig": "16001426e6f95d4e783a68110e5033e76d319e9c35f6c6",
      "scriptsig_asm": "OP_PUSHBYTES_22 001426e6f95d4e783a68110e5033e76d319e9c35f6c6",
      "witness": [
        "3045022100e30a8ea6e6010376fd937df2739f27077945695512d16c2df7b2e7aee4d1a1b5022038bfccb50a5804cec3b614ae29225ab192ce62d5aa67d65e8d5b6389e4dded7601",
        "021aab1b1918b7a42efdf8fa947cc6fe84fb6a4831953cf8b3f0bb927dde1827dd"
      ],
      "is_coinbase": false,
      "sequence": 4294967295,
      "inner_redeemscript_asm": "OP_0 OP_PUSHBYTES_20 26e6f95d4e783a68110e5033e76d319e9c35f6c6"
    },
    {
      "txid": "ab5f7496b0c0cc5f1aaa0d78c7bfbfc58c734c4fd7deea1f58059668f38d4fef",
      "vout": 0,
      "prevout": {
        "scriptpubkey": "a914ae28e15b66a0af6bea28e4f5a931688a374368e687",
        "scriptpubkey_asm": "OP_HASH160 OP_PUSHBYTES_20 ae28e15b66a0af6bea28e4f5a931688a374368e6 OP_EQUAL",
        "scriptpubkey_type": "p2sh",
        "scriptpubkey_address": "3HZtULQNXdScBb3PFWcgt43nu3MdrBK2pu",
        "value": 1200
      },
      "scriptsig": "16001426e6f95d4e783a68110e5033e76d319e9c35f6c6",
      "scriptsig_asm": "OP_PUSHBYTES_22 001426e6f95d4e783a68110e5033e76d319e9c35f6c6",
      "witness": [
        "3045022100aace1df0c6dfd80ab48bed73e7ad242b32136f98bceb9b84185fd78d79534999022020b6b7ed1df036bfca0455aab3201a5cb10f19baf60113e09f88174242b34ed801",
        "021aab1b1918b7a42efdf8fa947cc6fe84fb6a4831953cf8b3f0bb927dde1827dd"
      ],
      "is_coinbase": false,
      "sequence": 4294967295,
      "inner_redeemscript_asm": "OP_0 OP_PUSHBYTES_20 26e6f95d4e783a68110e5033e76d319e9c35f6c6"
    },
    {
      "txid": "56b8f755faf9f98fb23b3f8b76513d6dd0b24573c284f379be25eec0d5f45a20",
      "vout": 0,
      "prevout": {
        "scriptpubkey": "a914ae28e15b66a0af6bea28e4f5a931688a374368e687",
        "scriptpubkey_asm": "OP_HASH160 OP_PUSHBYTES_20 ae28e15b66a0af6bea28e4f5a931688a374368e6 OP_EQUAL",
        "scriptpubkey_type": "p2sh",
        "scriptpubkey_address": "3HZtULQNXdScBb3PFWcgt43nu3MdrBK2pu",
        "value": 1200
      },
      "scriptsig": "16001426e6f95d4e783a68110e5033e76d319e9c35f6c6",
      "scriptsig_asm": "OP_PUSHBYTES_22 001426e6f95d4e783a68110e5033e76d319e9c35f6c6",
      "witness": [
        "3045022100ed371232e5404026e392535046d530ad9b16352d11b14f5fbf9ee68d39a80902022019a379568768996af403dfd6f3b56e08e0fb4a1a5f1a6b89ee2192c1749b3de201",
        "021aab1b1918b7a42efdf8fa947cc6fe84fb6a4831953cf8b3f0bb927dde1827dd"
      ],
      "is_coinbase": false,
      "sequence": 4294967295,
      "inner_redeemscript_asm": "OP_0 OP_PUSHBYTES_20 26e6f95d4e783a68110e5033e76d319e9c35f6c6"
    },
    {
      "txid": "3297775dd545ba0bd026c40405feabb0f2c85b50104bb952289a2aae9b0bea6d",
      "vout": 0,
      "prevout": {
        "scriptpubkey": "a914ae28e15b66a0af6bea28e4f5a931688a374368e687",
        "scriptpubkey_asm": "OP_HASH160 OP_PUSHBYTES_20 ae28e15b66a0af6bea28e4f5a931688a374368e6 OP_EQUAL",
        "scriptpubkey_type": "p2sh",
        "scriptpubkey_address": "3HZtULQNXdScBb3PFWcgt43nu3MdrBK2pu",
        "value": 1200
      },
      "scriptsig": "16001426e6f95d4e783a68110e5033e76d319e9c35f6c6",
      "scriptsig_asm": "OP_PUSHBYTES_22 001426e6f95d4e783a68110e5033e76d319e9c35f6c6",
      "witness": [
        "3045022100974a1a1572b596372a7d0510ad15a3a6cae5188ec00b26c3386c8182618a863202204f9df5d8c6dc24831b16203c3c4faddb39524c2364877b55f6ebc8363b4b3f1a01",
        "021aab1b1918b7a42efdf8fa947cc6fe84fb6a4831953cf8b3f0bb927dde1827dd"
      ],
      "is_coinbase": false,
      "sequence": 4294967295,
      "inner_redeemscript_asm": "OP_0 OP_PUSHBYTES_20 26e6f95d4e783a68110e5033e76d319e9c35f6c6"
    },
    {
      "txid": "ae21de38793c3f82c9cd50ca7db5d21cc26025484cd436c06fc09602088e5778",
      "vout": 0,
      "prevout": {
        "scriptpubkey": "a914ae28e15b66a0af6bea28e4f5a931688a374368e687",
        "scriptpubkey_asm": "OP_HASH160 OP_PUSHBYTES_20 ae28e15b66a0af6bea28e4f5a931688a374368e6 OP_EQUAL",
        "scriptpubkey_type": "p2sh",
        "scriptpubkey_address": "3HZtULQNXdScBb3PFWcgt43nu3MdrBK2pu",
        "value": 1200
      },
      "scriptsig": "16001426e6f95d4e783a68110e5033e76d319e9c35f6c6",
      "scriptsig_asm": "OP_PUSHBYTES_22 001426e6f95d4e783a68110e5033e76d319e9c35f6c6",
      "witness": [
        "30440220494cf105f4a5a122f1de686a74bce1e52cb291a5210ba3bc410c3cd83a8eb14d022027f068725c2f368b77428343799ad1d82376c737be097953696ef8edd52479f801",
        "021aab1b1918b7a42efdf8fa947cc6fe84fb6a4831953cf8b3f0bb927dde1827dd"
      ],
      "is_coinbase": false,
      "sequence": 4294967295,
      "inner_redeemscript_asm": "OP_0 OP_PUSHBYTES_20 26e6f95d4e783a68110e5033e76d319e9c35f6c6"
    },
    {
      "txid": "40e96d23db208443b9175a7bd764bc6070044050b5bbbcbf33721411d8685979",
      "vout": 0,
      "prevout": {
        "scriptpubkey": "a914ae28e15b66a0af6bea28e4f5a931688a374368e687",
        "scriptpubkey_asm": "OP_HASH160 OP_PUSHBYTES_20 ae28e15b66a0af6bea28e4f5a931688a374368e6 OP_EQUAL",
        "scriptpubkey_type": "p2sh",
        "scriptpubkey_address": "3HZtULQNXdScBb3PFWcgt43nu3MdrBK2pu",
        "value": 1200
      },
      "scriptsig": "16001426e6f95d4e783a68110e5033e76d319e9c35f6c6",
      "scriptsig_asm": "OP_PUSHBYTES_22 001426e6f95d4e783a68110e5033e76d319e9c35f6c6",
      "witness": [
        "3044022008ef922fb90194ea7ce4973a2742a1520ba21a5088dfca5f109721f89b99990702202496c4cec7bfe00a28188f2bbe31ccf7794fa8761a156f68f55efe05f6a094a901",
        "021aab1b1918b7a42efdf8fa947cc6fe84fb6a4831953cf8b3f0bb927dde1827dd"
      ],
      "is_coinbase": false,
      "sequence": 4294967295,
      "inner_redeemscript_asm": "OP_0 OP_PUSHBYTES_20 26e6f95d4e783a68110e5033e76d319e9c35f6c6"
    },
    {
      "txid": "5a7ff544b8b63d5c818c3be8a2a832275e83e0bffd894460f406a3c6dd3a1f2b",
      "vout": 0,
      "prevout": {
        "scriptpubkey": "a914ae28e15b66a0af6bea28e4f5a931688a374368e687",
        "scriptpubkey_asm": "OP_HASH160 OP_PUSHBYTES_20 ae28e15b66a0af6bea28e4f5a931688a374368e6 OP_EQUAL",
        "scriptpubkey_type": "p2sh",
        "scriptpubkey_address": "3HZtULQNXdScBb3PFWcgt43nu3MdrBK2pu",
        "value": 1200
      },
      "scriptsig": "16001426e6f95d4e783a68110e5033e76d319e9c35f6c6",
      "scriptsig_asm": "OP_PUSHBYTES_22 001426e6f95d4e783a68110e5033e76d319e9c35f6c6",
      "witness": [
        "30450221008762a2b014152997ddacdcd90095cfe6285465155b361cf24434fa3079bd4c6e02203233fec8dfcd4687c935deff4e41718f5ab1ad9532e5e9e914806bacfbbfd06d01",
        "021aab1b1918b7a42efdf8fa947cc6fe84fb6a4831953cf8b3f0bb927dde1827dd"
      ],
      "is_coinbase": false,
      "sequence": 4294967295,
      "inner_redeemscript_asm": "OP_0 OP_PUSHBYTES_20 26e6f95d4e783a68110e5033e76d319e9c35f6c6"
    },
    {
      "txid": "b21a2d62dde3238b7850a8fbe7ea88ac83ead2012c912a9a172470438ecd9b19",
      "vout": 0,
      "prevout": {
        "scriptpubkey": "a914ae28e15b66a0af6bea28e4f5a931688a374368e687",
        "scriptpubkey_asm": "OP_HASH160 OP_PUSHBYTES_20 ae28e15b66a0af6bea28e4f5a931688a374368e6 OP_EQUAL",
        "scriptpubkey_type": "p2sh",
        "scriptpubkey_address": "3HZtULQNXdScBb3PFWcgt43nu3MdrBK2pu",
        "value": 1200
      },
      "scriptsig": "16001426e6f95d4e783a68110e5033e76d319e9c35f6c6",
      "scriptsig_asm": "OP_PUSHBYTES_22 001426e6f95d4e783a68110e5033e76d319e9c35f6c6",
      "witness": [
        "3045022100908daf56a7537cb1be7b123d8b8052ada0d3cbb6cca44d6055ffbb837e4a618202204ba673da910bb9ed21dc1a557d3179bd6bb3abdaa2f10e8b6871aac72f5e123401",
        "021aab1b1918b7a42efdf8fa947cc6fe84fb6a4831953cf8b3f0bb927dde1827dd"
      ],
      "is_coinbase": false,
      "sequence": 4294967295,
      "inner_redeemscript_asm": "OP_0 OP_PUSHBYTES_20 26e6f95d4e783a68110e5033e76d319e9c35f6c6"
    },
    {
      "txid": "2fd0f15346337fc1bc5153da4e1fec1c7da151a0e805b5c735ac3b80c4877712",
      "vout": 0,
      "prevout": {
        "scriptpubkey": "a914ae28e15b66a0af6bea28e4f5a931688a374368e687",
        "scriptpubkey_asm": "OP_HASH160 OP_PUSHBYTES_20 ae28e15b66a0af6bea28e4f5a931688a374368e6 OP_EQUAL",
        "scriptpubkey_type": "p2sh",
        "scriptpubkey_address": "3HZtULQNXdScBb3PFWcgt43nu3MdrBK2pu",
        "value": 1200
      },
      "scriptsig": "16001426e6f95d4e783a68110e5033e76d319e9c35f6c6",
      "scriptsig_asm": "OP_PUSHBYTES_22 001426e6f95d4e783a68110e5033e76d319e9c35f6c6",
      "witness": [
        "3044022020fa00e58e92012e4592c05d5214b533a4919a9f01f7bdcb1596d41872c6192e02203cb58d0a49a151d1cae291bc1f4bdb038475ae1a080a8d1ecd67ae710e8fe67001",
        "021aab1b1918b7a42efdf8fa947cc6fe84fb6a4831953cf8b3f0bb927dde1827dd"
      ],
      "is_coinbase": false,
      "sequence": 4294967295,
      "inner_redeemscript_asm": "OP_0 OP_PUSHBYTES_20 26e6f95d4e783a68110e5033e76d319e9c35f6c6"
    },
    {
      "txid": "efa5975f49f92489bb9daaf73fcb01b5d337ed98d44a970fcfad578cfcf85be1",
      "vout": 0,
      "prevout": {
        "scriptpubkey": "a914ae28e15b66a0af6bea28e4f5a931688a374368e687",
        "scriptpubkey_asm": "OP_HASH160 OP_PUSHBYTES_20 ae28e15b66a0af6bea28e4f5a931688a374368e6 OP_EQUAL",
        "scriptpubkey_type": "p2sh",
        "scriptpubkey_address": "3HZtULQNXdScBb3PFWcgt43nu3MdrBK2pu",
        "value": 1200
      },
      "scriptsig": "16001426e6f95d4e783a68110e5033e76d319e9c35f6c6",
      "scriptsig_asm": "OP_PUSHBYTES_22 001426e6f95d4e783a68110e5033e76d319e9c35f6c6",
      "witness": [
        "3044022030070a7faa5dd283e2e494b258e6220535319ed189c9cde2cd171fadffae1a6802205624c65b1b5a14d07afacca99017813994a9a6f693ed77c8396022fbb110952c01",
        "021aab1b1918b7a42efdf8fa947cc6fe84fb6a4831953cf8b3f0bb927dde1827dd"
      ],
      "is_coinbase": false,
      "sequence": 4294967295,
      "inner_redeemscript_asm": "OP_0 OP_PUSHBYTES_20 26e6f95d4e783a68110e5033e76d319e9c35f6c6"
    },
    {
      "txid": "2e17bcf3c15c71f16a7489327cd4079004cf2747cb0e472b519617f3cfa0019a",
      "vout": 0,
      "prevout": {
        "scriptpubkey": "a914ae28e15b66a0af6bea28e4f5a931688a374368e687",
        "scriptpubkey_asm": "OP_HASH160 OP_PUSHBYTES_20 ae28e15b66a0af6bea28e4f5a931688a374368e6 OP_EQUAL",
        "scriptpubkey_type": "p2sh",
        "scriptpubkey_address": "3HZtULQNXdScBb3PFWcgt43nu3MdrBK2pu",
        "value": 1200
      },
      "scriptsig": "16001426e6f95d4e783a68110e5033e76d319e9c35f6c6",
      "scriptsig_asm": "OP_PUSHBYTES_22 001426e6f95d4e783a68110e5033e76d319e9c35f6c6",
      "witness": [
        "3045022100a5cbf7d1da03ac5592ef854765011000c9434d594529818d96fc068a77fd7f8102201f3de9ccbebea2467c8c3f8f6aaf2534065cfdcb8dae2944c471d683439b797601",
        "021aab1b1918b7a42efdf8fa947cc6fe84fb6a4831953cf8b3f0bb927dde1827dd"
      ],
      "is_coinbase": false,
      "sequence": 4294967295,
      "inner_redeemscript_asm": "OP_0 OP_PUSHBYTES_20 26e6f95d4e783a68110e5033e76d319e9c35f6c6"
    }
  ],
  "vout": [
    {
      "scriptpubkey": "5120cc6289a551330cbaf093f425e64052e868a4df3f8217b9c5ccf9d445a2f41983",
      "scriptpubkey_asm": "OP_PUSHNUM_1 OP_PUSHBYTES_32 cc6289a551330cbaf093f425e64052e868a4df3f8217b9c5ccf9d445a2f41983",
      "scriptpubkey_type": "v1_p2tr",
      "scriptpubkey_address": "bc1pe33gnf23xvxt4uyn7sj7vszjap52fhelsgtmn3wvl82ytgh5rxps5kz79y",
      "value": 9490
    },
    {
      "scriptpubkey": "5120fd9e41f4f2ac414e9d084f26bcd485ca0472dbabd5c84e558e29f1aebdbe66a2",
      "scriptpubkey_asm": "OP_PUSHNUM_1 OP_PUSHBYTES_32 fd9e41f4f2ac414e9d084f26bcd485ca0472dbabd5c84e558e29f1aebdbe66a2",
      "scriptpubkey_type": "v1_p2tr",
      "scriptpubkey_address": "bc1plk0yra8j43q5a8ggfunte4y9egz89kat6hyyu4vw98c6a0d7v63q5kmwnz",
      "value": 20750
    }
  ],
  "size": 3015,
  "weight": 6567,
  "fee": 16440,
  "status": {
    "confirmed": true,
    "block_height": 834464,
    "block_hash": "0000000000000000000177a0869a911a2b65c9bdcd5a8bcb02b68f305bee848e",
    "block_time": 1710308296
  },
  "hex": "01000000000111f7df4a2b1860d128bf4338337f834c7e9a74f21beddb6286a747443a5d6d5316020000001716001426e6f95d4e783a68110e5033e76d319e9c35f6c6ffffffff9462a05e099e84fb66090b3fad9bf516780f23f14c83a7f9f8ab02d52ff8eed2010000001716001426e6f95d4e783a68110e5033e76d319e9c35f6c6ffffffff205af4d5c0ee25be79f384c27345b2d06d3d51768b3f3bb28ff9f9fa55f7b856060000001716001426e6f95d4e783a68110e5033e76d319e9c35f6c6ffffffff54f8cd91b4c2cd31f5bfe0e5087df19c74600c81fdcf72a1a4b8d53c281f6031020000001716001426e6f95d4e783a68110e5033e76d319e9c35f6c6ffffffffb204951b0c297c8650852c51aef42df14277d33382bae65f00fead584d1e2141000000001716001426e6f95d4e783a68110e5033e76d319e9c35f6c6ffffffff94907e55b38749e00e178fb6c48de0d98c00b0f29e495e0530df2510eefc30c6000000001716001426e6f95d4e783a68110e5033e76d319e9c35f6c6ffffffff9c0becf7e4f4419b27c8ad794ea96e13a47a4751552f3e3d8d361341b55a1bc4010000001716001426e6f95d4e783a68110e5033e76d319e9c35f6c6ffffffffef4f8df3689605581feaded74f4c738cc5bfbfc7780daa1a5fccc0b096745fab000000001716001426e6f95d4e783a68110e5033e76d319e9c35f6c6ffffffff205af4d5c0ee25be79f384c27345b2d06d3d51768b3f3bb28ff9f9fa55f7b856000000001716001426e6f95d4e783a68110e5033e76d319e9c35f6c6ffffffff6dea0b9bae2a9a2852b94b10505bc8f2b0abfe0504c426d00bba45d55d779732000000001716001426e6f95d4e783a68110e5033e76d319e9c35f6c6ffffffff78578e080296c06fc036d44c482560c21cd2b57dca50cdc9823f3c7938de21ae000000001716001426e6f95d4e783a68110e5033e76d319e9c35f6c6ffffffff795968d811147233bfbcbbb55040047060bc64d77b5a17b9438420db236de940000000001716001426e6f95d4e783a68110e5033e76d319e9c35f6c6ffffffff2b1f3addc6a306f4604489fdbfe0835e2732a8a2e83b8c815c3db6b844f57f5a000000001716001426e6f95d4e783a68110e5033e76d319e9c35f6c6ffffffff199bcd8e437024179a2a912c01d2ea83ac88eae7fba850788b23e3dd622d1ab2000000001716001426e6f95d4e783a68110e5033e76d319e9c35f6c6ffffffff127787c4803bac35c7b505e8a051a17d1cec1f4eda5351bcc17f334653f1d02f000000001716001426e6f95d4e783a68110e5033e76d319e9c35f6c6ffffffffe15bf8fc8c57adcf0f974ad498ed37d3b501cb3ff7aa9dbb8924f9495f97a5ef000000001716001426e6f95d4e783a68110e5033e76d319e9c35f6c6ffffffff9a01a0cff31796512b470ecb4727cf049007d47c3289746af1715cc1f3bc172e000000001716001426e6f95d4e783a68110e5033e76d319e9c35f6c6ffffffff021225000000000000225120cc6289a551330cbaf093f425e64052e868a4df3f8217b9c5ccf9d445a2f419830e51000000000000225120fd9e41f4f2ac414e9d084f26bcd485ca0472dbabd5c84e558e29f1aebdbe66a202473044022022cea64b18d7fd41a4444ff9e224070aa78d9be6fd051e1ffc9403baa448539402202714a3815cf131ec921a8cbe71184a804ebf7eb8cf1adec4d46f177cfefce6700121021aab1b1918b7a42efdf8fa947cc6fe84fb6a4831953cf8b3f0bb927dde1827dd02473044022077fc965e17d0b801063894a0971e984e19f1bd4a3a78bedc1d18efb6c5675a0e02203e5c1f9d430505c27d452fbb4c8b63a79c8bb219ba199ba55990b1541fd596350121021aab1b1918b7a42efdf8fa947cc6fe84fb6a4831953cf8b3f0bb927dde1827dd02483045022100c12f5fbe87e65035cb281d5cd045abb48e92dd59dfabbece97f1c42535c227590220246be5a7a98347fb87d6e36a91bcba9e2b5a23ea0ac5ed8e424896a5cb14f5550121021aab1b1918b7a42efdf8fa947cc6fe84fb6a4831953cf8b3f0bb927dde1827dd02483045022100eb9b70abe6b231a7d6e117731210567b710f3096ba434703f69f842b7d889fbc02202467ee4c3fd3956d7da031d01fcf6c1ec511ffb902e884e1a9a85471357de04b0121021aab1b1918b7a42efdf8fa947cc6fe84fb6a4831953cf8b3f0bb927dde1827dd0247304402205952119b30091c363bab1a23cfe97b0ea8a4bb8f6f3061864f84b407861b920b022071e2d87aecb24c52a2a4898adfe0da692c583907b6dc165e52778888812f30020121021aab1b1918b7a42efdf8fa947cc6fe84fb6a4831953cf8b3f0bb927dde1827dd02483045022100ed00e7955ba24914c65eca6cb429634c4ba30e003243edaa88e52dc94a80c66602206d36debed5de936375180df7c0e7002f20e333b53642e6da58a12785b3b4b6190121021aab1b1918b7a42efdf8fa947cc6fe84fb6a4831953cf8b3f0bb927dde1827dd02483045022100e30a8ea6e6010376fd937df2739f27077945695512d16c2df7b2e7aee4d1a1b5022038bfccb50a5804cec3b614ae29225ab192ce62d5aa67d65e8d5b6389e4dded760121021aab1b1918b7a42efdf8fa947cc6fe84fb6a4831953cf8b3f0bb927dde1827dd02483045022100aace1df0c6dfd80ab48bed73e7ad242b32136f98bceb9b84185fd78d79534999022020b6b7ed1df036bfca0455aab3201a5cb10f19baf60113e09f88174242b34ed80121021aab1b1918b7a42efdf8fa947cc6fe84fb6a4831953cf8b3f0bb927dde1827dd02483045022100ed371232e5404026e392535046d530ad9b16352d11b14f5fbf9ee68d39a80902022019a379568768996af403dfd6f3b56e08e0fb4a1a5f1a6b89ee2192c1749b3de20121021aab1b1918b7a42efdf8fa947cc6fe84fb6a4831953cf8b3f0bb927dde1827dd02483045022100974a1a1572b596372a7d0510ad15a3a6cae5188ec00b26c3386c8182618a863202204f9df5d8c6dc24831b16203c3c4faddb39524c2364877b55f6ebc8363b4b3f1a0121021aab1b1918b7a42efdf8fa947cc6fe84fb6a4831953cf8b3f0bb927dde1827dd024730440220494cf105f4a5a122f1de686a74bce1e52cb291a5210ba3bc410c3cd83a8eb14d022027f068725c2f368b77428343799ad1d82376c737be097953696ef8edd52479f80121021aab1b1918b7a42efdf8fa947cc6fe84fb6a4831953cf8b3f0bb927dde1827dd02473044022008ef922fb90194ea7ce4973a2742a1520ba21a5088dfca5f109721f89b99990702202496c4cec7bfe00a28188f2bbe31ccf7794fa8761a156f68f55efe05f6a094a90121021aab1b1918b7a42efdf8fa947cc6fe84fb6a4831953cf8b3f0bb927dde1827dd024830450221008762a2b014152997ddacdcd90095cfe6285465155b361cf24434fa3079bd4c6e02203233fec8dfcd4687c935deff4e41718f5ab1ad9532e5e9e914806bacfbbfd06d0121021aab1b1918b7a42efdf8fa947cc6fe84fb6a4831953cf8b3f0bb927dde1827dd02483045022100908daf56a7537cb1be7b123d8b8052ada0d3cbb6cca44d6055ffbb837e4a618202204ba673da910bb9ed21dc1a557d3179bd6bb3abdaa2f10e8b6871aac72f5e12340121021aab1b1918b7a42efdf8fa947cc6fe84fb6a4831953cf8b3f0bb927dde1827dd02473044022020fa00e58e92012e4592c05d5214b533a4919a9f01f7bdcb1596d41872c6192e02203cb58d0a49a151d1cae291bc1f4bdb038475ae1a080a8d1ecd67ae710e8fe6700121021aab1b1918b7a42efdf8fa947cc6fe84fb6a4831953cf8b3f0bb927dde1827dd02473044022030070a7faa5dd283e2e494b258e6220535319ed189c9cde2cd171fadffae1a6802205624c65b1b5a14d07afacca99017813994a9a6f693ed77c8396022fbb110952c0121021aab1b1918b7a42efdf8fa947cc6fe84fb6a4831953cf8b3f0bb927dde1827dd02483045022100a5cbf7d1da03ac5592ef854765011000c9434d594529818d96fc068a77fd7f8102201f3de9ccbebea2467c8c3f8f6aaf2534065cfdcb8dae2944c471d683439b79760121021aab1b1918b7a42efdf8fa947cc6fe84fb6a4831953cf8b3f0bb927dde1827dd00000000"
}