{
  "txid": "82759072950f9f88c64a7e33bd096899bc70d3d9ffc667b90b15d1698c2b06eb",
  "version": 1,
  "locktime": 0,
  "vin": [
    {
      "txid": "3d96a17acc55a5a903e96309312be3f9ec6fd65a8685cb82d07e5061b2176a32",
      "vout": 28,
      "prevout": {
        "scriptpubkey": "00145b0b37a3963c9b008fb81a57dc0b403e1ca57339",
        "scriptpubkey_asm": "OP_0 OP_PUSHBYTES_20 5b0b37a3963c9b008fb81a57dc0b403e1ca57339",
        "scriptpubkey_type": "v0_p2wpkh",
        "scriptpubkey_address": "bc1qtv9n0guk8jdspracrftacz6q8cw22ueez983su",
        "value": 772806
      },
      "scriptsig": "",
      "scriptsig_asm": "",
      "witness": [
        "3045022100de30d972ba6a5e808221b57cc01d8e00a0340c8d5a62fabc4e0af9b5d1f3a66602204087540ada4b7d2cf0ab2de182c840a446fb1dffb1795f1cff67e14f6511b59801",
        "02bd4f19d6e6a17592817da9b11ca6fe5b43a81f4b2d9f8fd62292da72628c6d38"
      ],
      "is_coinbase": false,
      "sequence": 4294967295
    }
  ],
  "vout": [
    {
      "scriptpubkey": "a9146fa32b8a2be486e963bc368045d9528177ef6d6787",
      "scriptpubkey_asm": "OP_HASH160 OP_PUSHBYTES_20 6fa32b8a2be486e963bc368045d9528177ef6d67 OP_EQUAL",
      "scriptpubkey_type": "p2sh",
      "scriptpubkey_address": "3BsJQ6Ku5s6eJMpQG4aFmZgbpDdSnCXsdW",
      "value": 68047
    },
    {
      "scriptpubkey": "00145b0b37a3963c9b008fb81a57dc0b403e1ca57339",
      "scriptpubkey_asm": "OP_0 OP_PUSHBYTES_20 5b0b37a3963c9b008fb81a57dc0b403e1ca57339",
      "scriptpubkey_type": "v0_p2wpkh",
      "scriptpubkey_address": "bc1qtv9n0guk8jdspracrftacz6q8cw22ueez983su",
      "value": 700925
    }
  ],
  "size": 224,
  "weight": 566,
  "fee": 3834,
  "status": {
    "confirmed": true,
    "block_height": 834638,
    "block_hash": "000000000000000000025f742c626208ac87e0b7d15054abb4a19ca2d735a54e",
    "block_time": 1710405325
  },
  "hex": "01000000000101326a17b261507ed082cb85865ad66fecf9e32b310963e903a9a555cc7aa1963d1c00000000ffffffff02cf0901000000000017a9146fa32b8a2be486e963bc368045d9528177ef6d6787fdb10a00000000001600145b0b37a3963c9b008fb81a57dc0b403e1ca5733902483045022100de30d972ba6a5e808221b57cc01d8e00a0340c8d5a62fabc4e0af9b5d1f3a66602204087540ada4b7d2cf0ab2de182c840a446fb1dffb1795f1cff67e14f6511b598012102bd4f19d6e6a17592817da9b11ca6fe5b43a81f4b2d9f8fd62292da72628c6d3800000000"
}