{
  "txid": "827ae2d8af0ea350e9093cffdb2e21244e1bd645ea48f21023fc085a67577755",
  "version": 1,
  "locktime": 0,
  "vin": [
    {
      "txid": "888888888e8331bcd008fcf633cd90ca1ab62a2a7abc98436ac80f18191e1c88",
      "vout": 0,
      "prevout": {
        "scriptpubkey": "51209bd89ca7e03cf6dc940a5f5c6e5e1b8ca17e31224127312423e4bbe9612d281a",
        "scriptpubkey_asm": "OP_PUSHNUM_1 OP_PUSHBYTES_32 9bd89ca7e03cf6dc940a5f5c6e5e1b8ca17e31224127312423e4bbe9612d281a",
        "scriptpubkey_type": "v1_p2tr",
        "scriptpubkey_address": "bc1pn0vfeflq8nmde9q2tawxuhsm3jshuvfzgynnzfpruja7jcfd9qdqzs4u7a",
        "value": 11923
      },
      "scriptsig": "",
      "scriptsig_asm": "",
      "witness": [
        "6fa95a4bb18dbf4d5f000fd987f290d468bac7a47e8c160287794adaa9f34df2bc8eeaaebd1e7b7d9e5c7bbb8746a40be3744cae2947f5a3aeb49488673533a1",
        "20b45a9ed8be961ae9776db234f21e7b6aabe8b15c60b8f3b876b6d23b2db4d9c2ac00630461746f6d03646d7446a16461726773a46474696d651a65f137c0656e6f6e63651a0001000168626974776f726b636b3838383838383838382e386b6d696e745f7469636b657268696e66696e69747968",
        "c1b45a9ed8be961ae9776db234f21e7b6aabe8b15c60b8f3b876b6d23b2db4d9c2"
      ],
      "is_coinbase": false,
      "sequence": 4294967295
    }
  ],
  "vout": [
    {
      "scriptpubkey": "5120ee5d73a166b5fcf6fb0e22e1428770d9455bcd536c28912b437450303ef41201",
      "scriptpubkey_asm": "OP_PUSHNUM_1 OP_PUSHBYTES_32 ee5d73a166b5fcf6fb0e22e1428770d9455bcd536c28912b437450303ef41201",
      "scriptpubkey_type": "v1_p2tr",
      "scriptpubkey_address": "bc1paewh8gtxkh70d7cwyts59pmsm9z4hn2nds5fz26rw3grq0h5zgqsmngref",
      "value": 9999
    }
  ],
  "size": 314,
  "weight": 596,
  "fee": 1924,
  "status": {
    "confirmed": true,
    "block_height": 834460,
    "block_hash": "00000000000000000000484a79b643b2524bbce82e5d8a442013fa5b8905ed98",
    "block_time": 1710307468
  },
  "hex": "01000000000101881c1e19180fc86a4398bc7a2a2ab61aca90cd33f6fc08d0bc31838e888888880000000000ffffffff010f27000000000000225120ee5d73a166b5fcf6fb0e22e1428770d9455bcd536c28912b437450303ef4120103406fa95a4bb18dbf4d5f000fd987f290d468bac7a47e8c160287794adaa9f34df2bc8eeaaebd1e7b7d9e5c7bbb8746a40be3744cae2947f5a3aeb49488673533a17520b45a9ed8be961ae9776db234f21e7b6aabe8b15c60b8f3b876b6d23b2db4d9c2ac00630461746f6d03646d7446a16461726773a46474696d651a65f137c0656e6f6e63651a0001000168626974776f726b636b3838383838383838382e386b6d696e745f7469636b657268696e66696e6974796821c1b45a9ed8be961ae9776db234f21e7b6aabe8b15c60b8f3b876b6d23b2db4d9c200000000"
}