{
  "txid": "827d08ebda90e1c613b0ecd9e75fa046792cc459695852bb0c28b8771455f6ae",
  "version": 1,
  "locktime": 0,
  "vin": [
    {
      "txid": "a8ae8ef0ff1cf7b1de54ff5a7d0010974e4d0ea87778d1ae0485ea95a9f30da7",
      "vout": 11,
      "prevout": {
        "scriptpubkey": "a914004ba6a639558bb5c41b7fab7b6527af8968a24f87",
        "scriptpubkey_asm": "OP_HASH160 OP_PUSHBYTES_20 004ba6a639558bb5c41b7fab7b6527af8968a24f OP_EQUAL",
        "scriptpubkey_type": "p2sh",
        "scriptpubkey_address": "31iaYsA2QjycQnN781oyvfCrCbt4RidKEm",
        "value": 46071214
      },
      "scriptsig": "16001479fa22c019fe288105ee89919a4ad859d00d08d7",
      "scriptsig_asm": "OP_PUSHBYTES_22 001479fa22c019fe288105ee89919a4ad859d00d08d7",
      "witness": [
        "304402204debbfb7505fb33fb8678dcb66fe9847542aea816723be8254c11cf27dc7631702203ce85b672d803d9b0563d8df4e0e5f2fc86b91e88910be1354d741db0b2988dd01",
        "03ed69d618a99f6ee0c54f5f9f8e66832188e8ff627731358e9ef8bf9e09a79078"
      ],
      "is_coinbase": false,
      "sequence": 4294967293,
      "inner_redeemscript_asm": "OP_0 OP_PUSHBYTES_20 79fa22c019fe288105ee89919a4ad859d00d08d7"
    }
  ],
  "vout": [
    {
      "scriptpubkey": "0014b5715aaf87063872f73749eaa74d7f1e1b7c755e",
      "scriptpubkey_asm": "OP_0 OP_PUSHBYTES_20 b5715aaf87063872f73749eaa74d7f1e1b7c755e",
      "scriptpubkey_type": "v0_p2wpkh",
      "scriptpubkey_address": "bc1qk4c44tu8qcu89aehf842wntlrcdhca2703v2su",
      "value": 4070989
    },
    {
      "scriptpubkey": "a914f862f5536832f5e8fb7bcc9b1c9ef061c5dcb48d87",
      "scriptpubkey_asm": "OP_HASH160 OP_PUSHBYTES_20 f862f5536832f5e8fb7bcc9b1c9ef061c5dcb48d OP_EQUAL",
      "scriptpubkey_type": "p2sh",
      "scriptpubkey_address": "3QLN3ruKEqWMrWijvQbTSvBY8a3FKCEKFA",
      "value": 208269
    },
    {
      "scriptpubkey": "a9142970f8a8f6a50bbdf562ce32632cf1344758094487",
      "scriptpubkey_asm": "OP_HASH160 OP_PUSHBYTES_20 2970f8a8f6a50bbdf562ce32632cf13447580944 OP_EQUAL",
      "scriptpubkey_type": "p2sh",
      "scriptpubkey_address": "35U8xo2FWnVjt45qmuqp8zCbd1G5DVcUC9",
      "value": 6648
    },
    {
      "scriptpubkey": "76a9140384b6d5a038d49fc5f343b6eb0f6d0ea1b2d46988ac",
      "scriptpubkey_asm": "OP_DUP OP_HASH160 OP_PUSHBYTES_20 0384b6d5a038d49fc5f343b6eb0f6d0ea1b2d469 OP_EQUALVERIFY OP_CHECKSIG",
      "scriptpubkey_type": "p2pkh",
      "scriptpubkey_address": "1Kc1ijdQeWELvyZFidME1yGCYProXmHrz",
      "value": 304864
    },
    {
      "scriptpubkey": "a914004ba6a639558bb5c41b7fab7b6527af8968a24f87",
      "scriptpubkey_asm": "OP_HASH160 OP_PUSHBYTES_20 004ba6a639558bb5c41b7fab7b6527af8968a24f OP_EQUAL",
      "scriptpubkey_type": "p2sh",
      "scriptpubkey_address": "31iaYsA2QjycQnN781oyvfCrCbt4RidKEm",
      "value": 41472956
    }
  ],
  "size": 344,
  "weight": 1049,
  "fee": 7488,
  "status": {
    "confirmed": true,
    "block_height": 834638,
    "block_hash": "000000000000000000025f742c626208ac87e0b7d15054abb4a19ca2d735a54e",
    "block_time": 1710405325
  },
  "hex": "01000000000101a70df3a995ea8504aed17877a80e4d4e9710007d5aff54deb1f71cfff08eaea80b0000001716001479fa22c019fe288105ee89919a4ad859d00d08d7fdffffff054d1e3e0000000000160014b5715aaf87063872f73749eaa74d7f1e1b7c755e8d2d03000000000017a914f862f5536832f5e8fb7bcc9b1c9ef061c5dcb48d87f81900000000000017a9142970f8a8f6a50bbdf562ce32632cf1344758094487e0a60400000000001976a9140384b6d5a038d49fc5f343b6eb0f6d0ea1b2d46988acbcd378020000000017a914004ba6a639558bb5c41b7fab7b6527af8968a24f870247304402204debbfb7505fb33fb8678dcb66fe9847542aea816723be8254c11cf27dc7631702203ce85b672d803d9b0563d8df4e0e5f2fc86b91e88910be1354d741db0b2988dd012103ed69d618a99f6ee0c54f5f9f8e66832188e8ff627731358e9ef8bf9e09a7907800000000"
}