{
  "txid": "828494c33dc8328558611acd7f69f86702c2fc1e6ff389ee2a6611611aa65219",
  "version": 2,
  "locktime": 0,
  "vin": [
    {
      "txid": "2ee7e9bc2f0f43192f5d2dcb9ba2f7bf417e46f7a86aea7e61bf494a2116911f",
      "vout": 12,
      "prevout": {
        "scriptpubkey": "51206e4cff441f4d2d414e939e3a90409978fd5d45b5c3e5f17f6359f95c08ea277a",
        "scriptpubkey_asm": "OP_PUSHNUM_1 OP_PUSHBYTES_32 6e4cff441f4d2d414e939e3a90409978fd5d45b5c3e5f17f6359f95c08ea277a",
        "scriptpubkey_type": "v1_p2tr",
        "scriptpubkey_address": "bc1pdex073qlf5k5zn5nncafqsye0r7463d4c0jlzlmrt8u4cz82yaaqewht3x",
        "value": 2862
      },
      "scriptsig": "",
      "scriptsig_asm": "",
      "witness": [
        "c3507607452fb285241cd795da56d68a823e4953c254cefb36d15a14029190b02085b090a02e69377186a317b7c32be2c1dbfa60fc0aaa858e9c20e314855311",
        "2083375dffb574f8063f695ab76d18dd3551d73c2c0ae7f56424e76a808cf027ffac0063036f726401011e6170706c69636174696f6e2f6a736f6e3b636861727365743d7574662d38004cd37b2270223a22706f772d3230222c226f70223a226d696e74222c227469636b223a2250455045222c22616d74223a2231303030222c22736f6c7574696f6e223a22504550453a6263317032643677617a36736d6332646c33337861686b7364747a70793379397164713670677072776d3535376d303063646135303976733972333779633a303030303030303030303030303030303030303139393431613561653132383937363539383134343239323533333030353762306461393666336465613163353a3230383238373636333436227d68",
        "c0c302becc0a7fa5f96ff01f380e695b2faa1e460e5e66e108f6410cf3df3f4a28"
      ],
      "is_coinbase": false,
      "sequence": 4294967295
    }
  ],
  "vout": [
    {
      "scriptpubkey": "51205374ee8b50de14dfc626eded06ac41244850341a0a02376e94f6defc37b47959",
      "scriptpubkey_asm": "OP_PUSHNUM_1 OP_PUSHBYTES_32 5374ee8b50de14dfc626eded06ac41244850341a0a02376e94f6defc37b47959",
      "scriptpubkey_type": "v1_p2tr",
      "scriptpubkey_address": "bc1p2d6waz6smc2dl33xahksdtzpy3y9qdq6pgprwm557m00cda509vs9r37yc",
      "value": 546
    }
  ],
  "size": 487,
  "weight": 769,
  "fee": 2316,
  "status": {
    "confirmed": true,
    "block_height": 834460,
    "block_hash": "00000000000000000000484a79b643b2524bbce82e5d8a442013fa5b8905ed98",
    "block_time": 1710307468
  },
  "hex": "020000000001011f9116214a49bf617eea6aa8f7467e41bff7a29bcb2d5d2f19430f2fbce9e72e0c00000000ffffffff0122020000000000002251205374ee8b50de14dfc626eded06ac41244850341a0a02376e94f6defc37b479590340c3507607452fb285241cd795da56d68a823e4953c254cefb36d15a14029190b02085b090a02e69377186a317b7c32be2c1dbfa60fc0aaa858e9c20e314855311fd20012083375dffb574f8063f695ab76d18dd3551d73c2c0ae7f56424e76a808cf027ffac0063036f726401011e6170706c69636174696f6e2f6a736f6e3b636861727365743d7574662d38004cd37b2270223a22706f772d3230222c226f70223a226d696e74222c227469636b223a2250455045222c22616d74223a2231303030222c22736f6c7574696f6e223a22504550453a6263317032643677617a36736d6332646c33337861686b7364747a70793379397164713670677072776d3535376d303063646135303976733972333779633a303030303030303030303030303030303030303139393431613561653132383937363539383134343239323533333030353762306461393666336465613163353a3230383238373636333436227d6821c0c302becc0a7fa5f96ff01f380e695b2faa1e460e5e66e108f6410cf3df3f4a2800000000"
}