{
  "txid": "829ee5ba6a51e654f3c4110f8a36732e315d1ed1444ae304cb0e15cb24ce5f4e",
  "version": 2,
  "locktime": 833158,
  "vin": [
    {
      "txid": "e5d10a9e6956c9e8d79594f5acb20223f51b9cf4a1ed78c9517e4184ca68a9b3",
      "vout": 184,
      "prevout": {
        "scriptpubkey": "a9149bd64e211265ab1253de7d62f36365c9e0cf857c87",
        "scriptpubkey_asm": "OP_HASH160 OP_PUSHBYTES_20 9bd64e211265ab1253de7d62f36365c9e0cf857c OP_EQUAL",
        "scriptpubkey_type": "p2sh",
        "scriptpubkey_address": "3Fu1PTpfSJFDLEAqGEW46NVbgoWR7ojAyo",
        "value": 16511
      },
      "scriptsig": "22002096e2d092c0427b023c04d0f4e8c131204e9d8dd82cb6cb090d6f58c3d9b85960",
      "scriptsig_asm": "OP_PUSHBYTES_34 002096e2d092c0427b023c04d0f4e8c131204e9d8dd82cb6cb090d6f58c3d9b85960",
      "witness": [
        "",
        "3044022052e054510e0d6db8c2d1195b5be113dfdf4d8d99c9e264b4dfd4a101d6d532fc022050b618e2e5f347ec6ec4c005bf589dcd8c4b04c812efec29225dd3a05813832001",
        "2102eddf2257db044b1ce1dc9b1b4a78c304106962322abcc761ad7c00feed482ffaad21038aade0256f0b09b295318a9e7dd9c05ae6c50253bb0dd4feb6749e64736ee844ac73640380ca00b268"
      ],
      "is_coinbase": false,
      "sequence": 51840,
      "inner_redeemscript_asm": "OP_0 OP_PUSHBYTES_32 96e2d092c0427b023c04d0f4e8c131204e9d8dd82cb6cb090d6f58c3d9b85960",
      "inner_witnessscript_asm": "OP_PUSHBYTES_33 02eddf2257db044b1ce1dc9b1b4a78c304106962322abcc761ad7c00feed482ffa OP_CHECKSIGVERIFY OP_PUSHBYTES_33 038aade0256f0b09b295318a9e7dd9c05ae6c50253bb0dd4feb6749e64736ee844 OP_CHECKSIG OP_IFDUP OP_NOTIF OP_PUSHBYTES_3 80ca00 OP_CSV OP_ENDIF"
    },
    {
      "txid": "5af87b760cad8ed080fc6cf2ba70040e31c89af5b746a968d4e783806a3ebf49",
      "vout": 47,
      "prevout": {
        "scriptpubkey": "a9149bd64e211265ab1253de7d62f36365c9e0cf857c87",
        "scriptpubkey_asm": "OP_HASH160 OP_PUSHBYTES_20 9bd64e211265ab1253de7d62f36365c9e0cf857c OP_EQUAL",
        "scriptpubkey_type": "p2sh",
        "scriptpubkey_address": "3Fu1PTpfSJFDLEAqGEW46NVbgoWR7ojAyo",
        "value": 35920
      },
      "scriptsig": "22002096e2d092c0427b023c04d0f4e8c131204e9d8dd82cb6cb090d6f58c3d9b85960",
      "scriptsig_asm": "OP_PUSHBYTES_34 002096e2d092c0427b023c04d0f4e8c131204e9d8dd82cb6cb090d6f58c3d9b85960",
      "witness": [
        "",
        "30440220557b674e096640c7361e2ea9028dc56fb906f281203e01029370aefc485e36b7022015dcc281395064fec31588f4c963a01c273ba528380f53fcc6b421d4a35191f201",
        "2102eddf2257db044b1ce1dc9b1b4a78c304106962322abcc761ad7c00feed482ffaad21038aade0256f0b09b295318a9e7dd9c05ae6c50253bb0dd4feb6749e64736ee844ac73640380ca00b268"
      ],
      "is_coinbase": false,
      "sequence": 51840,
      "inner_redeemscript_asm": "OP_0 OP_PUSHBYTES_32 96e2d092c0427b023c04d0f4e8c131204e9d8dd82cb6cb090d6f58c3d9b85960",
      "inner_witnessscript_asm": "OP_PUSHBYTES_33 02eddf2257db044b1ce1dc9b1b4a78c304106962322abcc761ad7c00feed482ffa OP_CHECKSIGVERIFY OP_PUSHBYTES_33 038aade0256f0b09b295318a9e7dd9c05ae6c50253bb0dd4feb6749e64736ee844 OP_CHECKSIG OP_IFDUP OP_NOTIF OP_PUSHBYTES_3 80ca00 OP_CSV OP_ENDIF"
    },
    {
      "txid": "65f2cac5fce95ac6d8566e21533e6382fbc5425b2fb878f614d39812e45af804",
      "vout": 391,
      "prevout": {
        "scriptpubkey": "a9149bd64e211265ab1253de7d62f36365c9e0cf857c87",
        "scriptpubkey_asm": "OP_HASH160 OP_PUSHBYTES_20 9bd64e211265ab1253de7d62f36365c9e0cf857c OP_EQUAL",
        "scriptpubkey_type": "p2sh",
        "scriptpubkey_address": "3Fu1PTpfSJFDLEAqGEW46NVbgoWR7ojAyo",
        "value": 35511
      },
      "scriptsig": "22002096e2d092c0427b023c04d0f4e8c131204e9d8dd82cb6cb090d6f58c3d9b85960",
      "scriptsig_asm": "OP_PUSHBYTES_34 002096e2d092c0427b023c04d0f4e8c131204e9d8dd82cb6cb090d6f58c3d9b85960",
      "witness": [
        "",
        "30440220086c2c1e5a406fa92ab5d75afc76b3fdea9f40395f1be929495d6f5def79b5b1022071b9597c42305751ba8d0e10da3d986e9adee40b9a4b7ae32551dc833fd2380001",
        "2102eddf2257db044b1ce1dc9b1b4a78c304106962322abcc761ad7c00feed482ffaad21038aade0256f0b09b295318a9e7dd9c05ae6c50253bb0dd4feb6749e64736ee844ac73640380ca00b268"
      ],
      "is_coinbase": false,
      "sequence": 51840,
      "inner_redeemscript_asm": "OP_0 OP_PUSHBYTES_32 96e2d092c0427b023c04d0f4e8c131204e9d8dd82cb6cb090d6f58c3d9b85960",
      "inner_witnessscript_asm": "OP_PUSHBYTES_33 02eddf2257db044b1ce1dc9b1b4a78c304106962322abcc761ad7c00feed482ffa OP_CHECKSIGVERIFY OP_PUSHBYTES_33 038aade0256f0b09b295318a9e7dd9c05ae6c50253bb0dd4feb6749e64736ee844 OP_CHECKSIG OP_IFDUP OP_NOTIF OP_PUSHBYTES_3 80ca00 OP_CSV OP_ENDIF"
    },
    {
      "txid": "7f540c947af7a13d0e1ae01b43722467041dc85d8f8cede9b3d863778575f7ab",
      "vout": 94,
      "prevout": {
        "scriptpubkey": "a9149bd64e211265ab1253de7d62f36365c9e0cf857c87",
        "scriptpubkey_asm": "OP_HASH160 OP_PUSHBYTES_20 9bd64e211265ab1253de7d62f36365c9e0cf857c OP_EQUAL",
        "scriptpubkey_type": "p2sh",
        "scriptpubkey_address": "3Fu1PTpfSJFDLEAqGEW46NVbgoWR7ojAyo",
        "value": 52807
      },
      "scriptsig": "22002096e2d092c0427b023c04d0f4e8c131204e9d8dd82cb6cb090d6f58c3d9b85960",
      "scriptsig_asm": "OP_PUSHBYTES_34 002096e2d092c0427b023c04d0f4e8c131204e9d8dd82cb6cb090d6f58c3d9b85960",
      "witness": [
        "",
        "304402203cf6e30e4f16d6aea678e5e601eec1b574b5e8831e571383e9bb6fafabccdc9a022070e0054c25fb4228e646b2fb1b9e846b594ce507b25aaa9422c4aa7c38a8c0c201",
        "2102eddf2257db044b1ce1dc9b1b4a78c304106962322abcc761ad7c00feed482ffaad21038aade0256f0b09b295318a9e7dd9c05ae6c50253bb0dd4feb6749e64736ee844ac73640380ca00b268"
      ],
      "is_coinbase": false,
      "sequence": 51840,
      "inner_redeemscript_asm": "OP_0 OP_PUSHBYTES_32 96e2d092c0427b023c04d0f4e8c131204e9d8dd82cb6cb090d6f58c3d9b85960",
      "inner_witnessscript_asm": "OP_PUSHBYTES_33 02eddf2257db044b1ce1dc9b1b4a78c304106962322abcc761ad7c00feed482ffa OP_CHECKSIGVERIFY OP_PUSHBYTES_33 038aade0256f0b09b295318a9e7dd9c05ae6c50253bb0dd4feb6749e64736ee844 OP_CHECKSIG OP_IFDUP OP_NOTIF OP_PUSHBYTES_3 80ca00 OP_CSV OP_ENDIF"
    },
    {
      "txid": "3e13dbb523dd719f24acf3cb7096b1d4faf2af21b63159f886b436ebc03d7c94",
      "vout": 109,
      "prevout": {
        "scriptpubkey": "a9149bd64e211265ab1253de7d62f36365c9e0cf857c87",
        "scriptpubkey_asm": "OP_HASH160 OP_PUSHBYTES_20 9bd64e211265ab1253de7d62f36365c9e0cf857c OP_EQUAL",
        "scriptpubkey_type": "p2sh",
        "scriptpubkey_address": "3Fu1PTpfSJFDLEAqGEW46NVbgoWR7ojAyo",
        "value": 29503
      },
      "scriptsig": "22002096e2d092c0427b023c04d0f4e8c131204e9d8dd82cb6cb090d6f58c3d9b85960",
      "scriptsig_asm": "OP_PUSHBYTES_34 002096e2d092c0427b023c04d0f4e8c131204e9d8dd82cb6cb090d6f58c3d9b85960",
      "witness": [
        "",
        "3044022037075fe91bc846075bbbb4c0dfde3078e9efe3e09c1e4f6fcbe47ae972051dd102204dd7491fa46ce222fa1bb78cb8de7a3442778e33e24626aa3e8517d76ff7cd3101",
        "2102eddf2257db044b1ce1dc9b1b4a78c304106962322abcc761ad7c00feed482ffaad21038aade0256f0b09b295318a9e7dd9c05ae6c50253bb0dd4feb6749e64736ee844ac73640380ca00b268"
      ],
      "is_coinbase": false,
      "sequence": 51840,
      "inner_redeemscript_asm": "OP_0 OP_PUSHBYTES_32 96e2d092c0427b023c04d0f4e8c131204e9d8dd82cb6cb090d6f58c3d9b85960",
      "inner_witnessscript_asm": "OP_PUSHBYTES_33 02eddf2257db044b1ce1dc9b1b4a78c304106962322abcc761ad7c00feed482ffa OP_CHECKSIGVERIFY OP_PUSHBYTES_33 038aade0256f0b09b295318a9e7dd9c05ae6c50253bb0dd4feb6749e64736ee844 OP_CHECKSIG OP_IFDUP OP_NOTIF OP_PUSHBYTES_3 80ca00 OP_CSV OP_ENDIF"
    },
    {
      "txid": "15b802f54d14e13bc601d425688a26cb9692eed925f4bbe58a756787e7281195",
      "vout": 81,
      "prevout": {
        "scriptpubkey": "a9149bd64e211265ab1253de7d62f36365c9e0cf857c87",
        "scriptpubkey_asm": "OP_HASH160 OP_PUSHBYTES_20 9bd64e211265ab1253de7d62f36365c9e0cf857c OP_EQUAL",
        "scriptpubkey_type": "p2sh",
        "scriptpubkey_address": "3Fu1PTpfSJFDLEAqGEW46NVbgoWR7ojAyo",
        "value": 27147
      },
      "scriptsig": "22002096e2d092c0427b023c04d0f4e8c131204e9d8dd82cb6cb090d6f58c3d9b85960",
      "scriptsig_asm": "OP_PUSHBYTES_34 002096e2d092c0427b023c04d0f4e8c131204e9d8dd82cb6cb090d6f58c3d9b85960",
      "witness": [
        "",
        "304402204971480e51b2f6cac9b04ff7db4595af38dc3a6e0becca4778e3091725d79000022031ca7b26f93b9b3399d8a30f15bfbfa92899ad0d2e93aaf49c3890b94dc5c38c01",
        "2102eddf2257db044b1ce1dc9b1b4a78c304106962322abcc761ad7c00feed482ffaad21038aade0256f0b09b295318a9e7dd9c05ae6c50253bb0dd4feb6749e64736ee844ac73640380ca00b268"
      ],
      "is_coinbase": false,
      "sequence": 51840,
      "inner_redeemscript_asm": "OP_0 OP_PUSHBYTES_32 96e2d092c0427b023c04d0f4e8c131204e9d8dd82cb6cb090d6f58c3d9b85960",
      "inner_witnessscript_asm": "OP_PUSHBYTES_33 02eddf2257db044b1ce1dc9b1b4a78c304106962322abcc761ad7c00feed482ffa OP_CHECKSIGVERIFY OP_PUSHBYTES_33 038aade0256f0b09b295318a9e7dd9c05ae6c50253bb0dd4feb6749e64736ee844 OP_CHECKSIG OP_IFDUP OP_NOTIF OP_PUSHBYTES_3 80ca00 OP_CSV OP_ENDIF"
    },
    {
      "txid": "ab6e5f10908b40c99afaa5a45a1d4b2f0fc48810c8c58c1620038537cf17a681",
      "vout": 117,
      "prevout": {
        "scriptpubkey": "a9149bd64e211265ab1253de7d62f36365c9e0cf857c87",
        "scriptpubkey_asm": "OP_HASH160 OP_PUSHBYTES_20 9bd64e211265ab1253de7d62f36365c9e0cf857c OP_EQUAL",
        "scriptpubkey_type": "p2sh",
        "scriptpubkey_address": "3Fu1PTpfSJFDLEAqGEW46NVbgoWR7ojAyo",
        "value": 44241
      },
      "scriptsig": "22002096e2d092c0427b023c04d0f4e8c131204e9d8dd82cb6cb090d6f58c3d9b85960",
      "scriptsig_asm": "OP_PUSHBYTES_34 002096e2d092c0427b023c04d0f4e8c131204e9d8dd82cb6cb090d6f58c3d9b85960",
      "witness": [
        "",
        "3044022041405923b9e2a65514648cf96502771199d87c90c4221efb5f8d9ea81022a33502205c3662bf481a72e132eaa97bc9cf7c690e955b95fef8ab127fb55d9dbd4b257a01",
        "2102eddf2257db044b1ce1dc9b1b4a78c304106962322abcc761ad7c00feed482ffaad21038aade0256f0b09b295318a9e7dd9c05ae6c50253bb0dd4feb6749e64736ee844ac73640380ca00b268"
      ],
      "is_coinbase": false,
      "sequence": 51840,
      "inner_redeemscript_asm": "OP_0 OP_PUSHBYTES_32 96e2d092c0427b023c04d0f4e8c131204e9d8dd82cb6cb090d6f58c3d9b85960",
      "inner_witnessscript_asm": "OP_PUSHBYTES_33 02eddf2257db044b1ce1dc9b1b4a78c304106962322abcc761ad7c00feed482ffa OP_CHECKSIGVERIFY OP_PUSHBYTES_33 038aade0256f0b09b295318a9e7dd9c05ae6c50253bb0dd4feb6749e64736ee844 OP_CHECKSIG OP_IFDUP OP_NOTIF OP_PUSHBYTES_3 80ca00 OP_CSV OP_ENDIF"
    },
    {
      "txid": "bb5226c1c3c7ca22d6c7ce46011e060eb56929d09d257eb3a0b3198e8e88ea02",
      "vout": 104,
      "prevout": {
        "scriptpubkey": "a9149bd64e211265ab1253de7d62f36365c9e0cf857c87",
        "scriptpubkey_asm": "OP_HASH160 OP_PUSHBYTES_20 9bd64e211265ab1253de7d62f36365c9e0cf857c OP_EQUAL",
        "scriptpubkey_type": "p2sh",
        "scriptpubkey_address": "3Fu1PTpfSJFDLEAqGEW46NVbgoWR7ojAyo",
        "value": 157783
      },
      "scriptsig": "22002096e2d092c0427b023c04d0f4e8c131204e9d8dd82cb6cb090d6f58c3d9b85960",
      "scriptsig_asm": "OP_PUSHBYTES_34 002096e2d092c0427b023c04d0f4e8c131204e9d8dd82cb6cb090d6f58c3d9b85960",
      "witness": [
        "",
        "304402206979855a0c716679182dcd4535250e62add1da39cfbf69a757f91379cd3728a7022021b99e1aa7b7e4a9481ef7a4b7e6d220362b921d4706e0e08d57c738e85db24201",
        "2102eddf2257db044b1ce1dc9b1b4a78c304106962322abcc761ad7c00feed482ffaad21038aade0256f0b09b295318a9e7dd9c05ae6c50253bb0dd4feb6749e64736ee844ac73640380ca00b268"
      ],
      "is_coinbase": false,
      "sequence": 51840,
      "inner_redeemscript_asm": "OP_0 OP_PUSHBYTES_32 96e2d092c0427b023c04d0f4e8c131204e9d8dd82cb6cb090d6f58c3d9b85960",
      "inner_witnessscript_asm": "OP_PUSHBYTES_33 02eddf2257db044b1ce1dc9b1b4a78c304106962322abcc761ad7c00feed482ffa OP_CHECKSIGVERIFY OP_PUSHBYTES_33 038aade0256f0b09b295318a9e7dd9c05ae6c50253bb0dd4feb6749e64736ee844 OP_CHECKSIG OP_IFDUP OP_NOTIF OP_PUSHBYTES_3 80ca00 OP_CSV OP_ENDIF"
    },
    {
      "txid": "bb5226c1c3c7ca22d6c7ce46011e060eb56929d09d257eb3a0b3198e8e88ea02",
      "vout": 161,
      "prevout": {
        "scriptpubkey": "a9149bd64e211265ab1253de7d62f36365c9e0cf857c87",
        "scriptpubkey_asm": "OP_HASH160 OP_PUSHBYTES_20 9bd64e211265ab1253de7d62f36365c9e0cf857c OP_EQUAL",
        "scriptpubkey_type": "p2sh",
        "scriptpubkey_address": "3Fu1PTpfSJFDLEAqGEW46NVbgoWR7ojAyo",
        "value": 47244
      },
      "scriptsig": "22002096e2d092c0427b023c04d0f4e8c131204e9d8dd82cb6cb090d6f58c3d9b85960",
      "scriptsig_asm": "OP_PUSHBYTES_34 002096e2d092c0427b023c04d0f4e8c131204e9d8dd82cb6cb090d6f58c3d9b85960",
      "witness": [
        "",
        "304402204b60627e70a35673868cb9c8ec9163a61bbb2361e555a7aef25d64b03fee338002204f98c3fb752aadaa1b68e9892b3572b59a266806ab456505bfd04b1ac659558801",
        "2102eddf2257db044b1ce1dc9b1b4a78c304106962322abcc761ad7c00feed482ffaad21038aade0256f0b09b295318a9e7dd9c05ae6c50253bb0dd4feb6749e64736ee844ac73640380ca00b268"
      ],
      "is_coinbase": false,
      "sequence": 51840,
      "inner_redeemscript_asm": "OP_0 OP_PUSHBYTES_32 96e2d092c0427b023c04d0f4e8c131204e9d8dd82cb6cb090d6f58c3d9b85960",
      "inner_witnessscript_asm": "OP_PUSHBYTES_33 02eddf2257db044b1ce1dc9b1b4a78c304106962322abcc761ad7c00feed482ffa OP_CHECKSIGVERIFY OP_PUSHBYTES_33 038aade0256f0b09b295318a9e7dd9c05ae6c50253bb0dd4feb6749e64736ee844 OP_CHECKSIG OP_IFDUP OP_NOTIF OP_PUSHBYTES_3 80ca00 OP_CSV OP_ENDIF"
    },
    {
      "txid": "482b9b787e3928e72654957be82c2e4eced9f40288703644f880918697e31596",
      "vout": 193,
      "prevout": {
        "scriptpubkey": "a9149bd64e211265ab1253de7d62f36365c9e0cf857c87",
        "scriptpubkey_asm": "OP_HASH160 OP_PUSHBYTES_20 9bd64e211265ab1253de7d62f36365c9e0cf857c OP_EQUAL",
        "scriptpubkey_type": "p2sh",
        "scriptpubkey_address": "3Fu1PTpfSJFDLEAqGEW46NVbgoWR7ojAyo",
        "value": 35004
      },
      "scriptsig": "22002096e2d092c0427b023c04d0f4e8c131204e9d8dd82cb6cb090d6f58c3d9b85960",
      "scriptsig_asm": "OP_PUSHBYTES_34 002096e2d092c0427b023c04d0f4e8c131204e9d8dd82cb6cb090d6f58c3d9b85960",
      "witness": [
        "",
        "304402205d05aabfbd4efb0d505d6e59cd05b5011a3c844057046d314e5c6a8895fea2bd02205e101abb5cb5d7d47274d6a1362e9b0b44491801e24252343e58cbab2ff76d4801",
        "2102eddf2257db044b1ce1dc9b1b4a78c304106962322abcc761ad7c00feed482ffaad21038aade0256f0b09b295318a9e7dd9c05ae6c50253bb0dd4feb6749e64736ee844ac73640380ca00b268"
      ],
      "is_coinbase": false,
      "sequence": 51840,
      "inner_redeemscript_asm": "OP_0 OP_PUSHBYTES_32 96e2d092c0427b023c04d0f4e8c131204e9d8dd82cb6cb090d6f58c3d9b85960",
      "inner_witnessscript_asm": "OP_PUSHBYTES_33 02eddf2257db044b1ce1dc9b1b4a78c304106962322abcc761ad7c00feed482ffa OP_CHECKSIGVERIFY OP_PUSHBYTES_33 038aade0256f0b09b295318a9e7dd9c05ae6c50253bb0dd4feb6749e64736ee844 OP_CHECKSIG OP_IFDUP OP_NOTIF OP_PUSHBYTES_3 80ca00 OP_CSV OP_ENDIF"
    }
  ],
  "vout": [
    {
      "scriptpubkey": "a91414a7c89e76b8d39ccdc4d31c08febfb5afdd5fd187",
      "scriptpubkey_asm": "OP_HASH160 OP_PUSHBYTES_20 14a7c89e76b8d39ccdc4d31c08febfb5afdd5fd1 OP_EQUAL",
      "scriptpubkey_type": "p2sh",
      "scriptpubkey_address": "33aESCCpyAkuU4CCdGi1NkbgkokLMY2SKF",
      "value": 468659
    }
  ],
  "size": 2334,
  "weight": 4740,
  "fee": 13012,
  "status": {
    "confirmed": true,
    "block_height": 834464,
    "block_hash": "0000000000000000000177a0869a911a2b65c9bdcd5a8bcb02b68f305bee848e",
    "block_time": 1710308296
  },
  "hex": "0200000000010ab3a968ca84417e51c978eda1f49c1bf52302b2acf59495d7e8c956699e0ad1e5b80000002322002096e2d092c0427b023c04d0f4e8c131204e9d8dd82cb6cb090d6f58c3d9b8596080ca000049bf3e6a8083e7d468a946b7f59ac8310e0470baf26cfc80d08ead0c767bf85a2f0000002322002096e2d092c0427b023c04d0f4e8c131204e9d8dd82cb6cb090d6f58c3d9b8596080ca000004f85ae41298d314f678b82f5b42c5fb82633e53216e56d8c65ae9fcc5caf265870100002322002096e2d092c0427b023c04d0f4e8c131204e9d8dd82cb6cb090d6f58c3d9b8596080ca0000abf775857763d8b3e9ed8c8f5dc81d04672472431be01a0e3da1f77a940c547f5e0000002322002096e2d092c0427b023c04d0f4e8c131204e9d8dd82cb6cb090d6f58c3d9b8596080ca0000947c3dc0eb36b486f85931b621aff2fad4b19670cbf3ac249f71dd23b5db133e6d0000002322002096e2d092c0427b023c04d0f4e8c131204e9d8dd82cb6cb090d6f58c3d9b8596080ca0000951128e78767758ae5bbf425d9ee9296cb268a6825d401c63be1144df502b815510000002322002096e2d092c0427b023c04d0f4e8c131204e9d8dd82cb6cb090d6f58c3d9b8596080ca000081a617cf37850320168cc5c81088c40f2f4b1d5aa4a5fa9ac9408b90105f6eab750000002322002096e2d092c0427b023c04d0f4e8c131204e9d8dd82cb6cb090d6f58c3d9b8596080ca000002ea888e8e19b3a0b37e259dd02969b50e061e0146cec7d622cac7c3c12652bb680000002322002096e2d092c0427b023c04d0f4e8c131204e9d8dd82cb6cb090d6f58c3d9b8596080ca000002ea888e8e19b3a0b37e259dd02969b50e061e0146cec7d622cac7c3c12652bba10000002322002096e2d092c0427b023c04d0f4e8c131204e9d8dd82cb6cb090d6f58c3d9b8596080ca00009615e397869180f84436708802f4d9ce4e2e2ce87b955426e728397e789b2b48c10000002322002096e2d092c0427b023c04d0f4e8c131204e9d8dd82cb6cb090d6f58c3d9b8596080ca000001b32607000000000017a91414a7c89e76b8d39ccdc4d31c08febfb5afdd5fd1870300473044022052e054510e0d6db8c2d1195b5be113dfdf4d8d99c9e264b4dfd4a101d6d532fc022050b618e2e5f347ec6ec4c005bf589dcd8c4b04c812efec29225dd3a058138320014e2102eddf2257db044b1ce1dc9b1b4a78c304106962322abcc761ad7c00feed482ffaad21038aade0256f0b09b295318a9e7dd9c05ae6c50253bb0dd4feb6749e64736ee844ac73640380ca00b26803004730440220557b674e096640c7361e2ea9028dc56fb906f281203e01029370aefc485e36b7022015dcc281395064fec31588f4c963a01c273ba528380f53fcc6b421d4a35191f2014e2102eddf2257db044b1ce1dc9b1b4a78c304106962322abcc761ad7c00feed482ffaad21038aade0256f0b09b295318a9e7dd9c05ae6c50253bb0dd4feb6749e64736ee844ac73640380ca00b26803004730440220086c2c1e5a406fa92ab5d75afc76b3fdea9f40395f1be929495d6f5def79b5b1022071b9597c42305751ba8d0e10da3d986e9adee40b9a4b7ae32551dc833fd23800014e2102eddf2257db044b1ce1dc9b1b4a78c304106962322abcc761ad7c00feed482ffaad21038aade0256f0b09b295318a9e7dd9c05ae6c50253bb0dd4feb6749e64736ee844ac73640380ca00b268030047304402203cf6e30e4f16d6aea678e5e601eec1b574b5e8831e571383e9bb6fafabccdc9a022070e0054c25fb4228e646b2fb1b9e846b594ce507b25aaa9422c4aa7c38a8c0c2014e2102eddf2257db044b1ce1dc9b1b4a78c304106962322abcc761ad7c00feed482ffaad21038aade0256f0b09b295318a9e7dd9c05ae6c50253bb0dd4feb6749e64736ee844ac73640380ca00b2680300473044022037075fe91bc846075bbbb4c0dfde3078e9efe3e09c1e4f6fcbe47ae972051dd102204dd7491fa46ce222fa1bb78cb8de7a3442778e33e24626aa3e8517d76ff7cd31014e2102eddf2257db044b1ce1dc9b1b4a78c304106962322abcc761ad7c00feed482ffaad21038aade0256f0b09b295318a9e7dd9c05ae6c50253bb0dd4feb6749e64736ee844ac73640380ca00b268030047304402204971480e51b2f6cac9b04ff7db4595af38dc3a6e0becca4778e3091725d79000022031ca7b26f93b9b3399d8a30f15bfbfa92899ad0d2e93aaf49c3890b94dc5c38c014e2102eddf2257db044b1ce1dc9b1b4a78c304106962322abcc761ad7c00feed482ffaad21038aade0256f0b09b295318a9e7dd9c05ae6c50253bb0dd4feb6749e64736ee844ac73640380ca00b2680300473044022041405923b9e2a65514648cf96502771199d87c90c4221efb5f8d9ea81022a33502205c3662bf481a72e132eaa97bc9cf7c690e955b95fef8ab127fb55d9dbd4b257a014e2102eddf2257db044b1ce1dc9b1b4a78c304106962322abcc761ad7c00feed482ffaad21038aade0256f0b09b295318a9e7dd9c05ae6c50253bb0dd4feb6749e64736ee844ac73640380ca00b268030047304402206979855a0c716679182dcd4535250e62add1da39cfbf69a757f91379cd3728a7022021b99e1aa7b7e4a9481ef7a4b7e6d220362b921d4706e0e08d57c738e85db242014e2102eddf2257db044b1ce1dc9b1b4a78c304106962322abcc761ad7c00feed482ffaad21038aade0256f0b09b295318a9e7dd9c05ae6c50253bb0dd4feb6749e64736ee844ac73640380ca00b268030047304402204b60627e70a35673868cb9c8ec9163a61bbb2361e555a7aef25d64b03fee338002204f98c3fb752aadaa1b68e9892b3572b59a266806ab456505bfd04b1ac6595588014e2102eddf2257db044b1ce1dc9b1b4a78c304106962322abcc761ad7c00feed482ffaad21038aade0256f0b09b295318a9e7dd9c05ae6c50253bb0dd4feb6749e64736ee844ac73640380ca00b268030047304402205d05aabfbd4efb0d505d6e59cd05b5011a3c844057046d314e5c6a8895fea2bd02205e101abb5cb5d7d47274d6a1362e9b0b44491801e24252343e58cbab2ff76d48014e2102eddf2257db044b1ce1dc9b1b4a78c304106962322abcc761ad7c00feed482ffaad21038aade0256f0b09b295318a9e7dd9c05ae6c50253bb0dd4feb6749e64736ee844ac73640380ca00b26886b60c00"
}