{
  "txid": "829fae39d50851cd3ac28b2172bdf571784ecc2bdbd5b4018f75e54aabd29538",
  "version": 2,
  "locktime": 0,
  "vin": [
    {
      "txid": "4b3bd0851f0ff84fd31b710fb48f9320f4ba0d6f0f5c81c38a84cfd9488fc19a",
      "vout": 4,
      "prevout": {
        "scriptpubkey": "51202cf01b4490599205ac1af9dd1218026d4c019b90029dc4d30b5d4e56db9c0a73",
        "scriptpubkey_asm": "OP_PUSHNUM_1 OP_PUSHBYTES_32 2cf01b4490599205ac1af9dd1218026d4c019b90029dc4d30b5d4e56db9c0a73",
        "scriptpubkey_type": "v1_p2tr",
        "scriptpubkey_address": "bc1p9ncpk3ystxfqttq6l8w3yxqzd4xqrxusq2wuf5ctt489dkuupfesf7nurd",
        "value": 600
      },
      "scriptsig": "",
      "scriptsig_asm": "",
      "witness": [
        "01cdc1b2ebde3bec6ba4440d0f6fbefa2e3d83b53183dd3e38f918481d7ef23be8bf7711dfb0b26de7803438f28fdf316fede72c2b5cf87eac94584411e14c38"
      ],
      "is_coinbase": false,
      "sequence": 4294967295
    },
    {
      "txid": "2226552bf6076015545f405f3b474713e287a72a3ee9685c97223e9cbe36b617",
      "vout": 3,
      "prevout": {
        "scriptpubkey": "51202cf01b4490599205ac1af9dd1218026d4c019b90029dc4d30b5d4e56db9c0a73",
        "scriptpubkey_asm": "OP_PUSHNUM_1 OP_PUSHBYTES_32 2cf01b4490599205ac1af9dd1218026d4c019b90029dc4d30b5d4e56db9c0a73",
        "scriptpubkey_type": "v1_p2tr",
        "scriptpubkey_address": "bc1p9ncpk3ystxfqttq6l8w3yxqzd4xqrxusq2wuf5ctt489dkuupfesf7nurd",
        "value": 600
      },
      "scriptsig": "",
      "scriptsig_asm": "",
      "witness": [
        "1937c44fd88a129dd13f012999ce973a37721da4846b6da25b02786712e1df13eb402ad892bf6056349339800f6678aa6ef2d35da316b81ea697424d547bfb2d"
      ],
      "is_coinbase": false,
      "sequence": 4294967295
    },
    {
      "txid": "1134636a24e0b7571e43355977ea84c5cc7f4844cf4e8c034f9646645d991bda",
      "vout": 1,
      "prevout": {
        "scriptpubkey": "5120237d05134193fc6796e6a6f06afc6cdb0c5b5ac345d0d960f35a4ef6977a8526",
        "scriptpubkey_asm": "OP_PUSHNUM_1 OP_PUSHBYTES_32 237d05134193fc6796e6a6f06afc6cdb0c5b5ac345d0d960f35a4ef6977a8526",
        "scriptpubkey_type": "v1_p2tr",
        "scriptpubkey_address": "bc1pyd7s2y6pj07x09hx5mcx4lrvmvx9kkkrghgdjc8ntf80d9m6s5nqllx4gk",
        "value": 546
      },
      "scriptsig": "",
      "scriptsig_asm": "",
      "witness": [
        "611ee2c213c45b7f2e39c0cb7d47f61d32ae99e5ba66a04dfbec18ca7edecb54ae651d9d4258464e6496a277a1dd2b1b1976389ae6eca8ca36add59ebfd1560c83"
      ],
      "is_coinbase": false,
      "sequence": 4294967295
    },
    {
      "txid": "2226552bf6076015545f405f3b474713e287a72a3ee9685c97223e9cbe36b617",
      "vout": 5,
      "prevout": {
        "scriptpubkey": "51202cf01b4490599205ac1af9dd1218026d4c019b90029dc4d30b5d4e56db9c0a73",
        "scriptpubkey_asm": "OP_PUSHNUM_1 OP_PUSHBYTES_32 2cf01b4490599205ac1af9dd1218026d4c019b90029dc4d30b5d4e56db9c0a73",
        "scriptpubkey_type": "v1_p2tr",
        "scriptpubkey_address": "bc1p9ncpk3ystxfqttq6l8w3yxqzd4xqrxusq2wuf5ctt489dkuupfesf7nurd",
        "value": 1856686
      },
      "scriptsig": "",
      "scriptsig_asm": "",
      "witness": [
        "d6162fe9be2fc0436376a0f9dec84c3e395a4e43b9805f459a4af06df53c76fbf469ca6b0e6f2c0ab6493f7b8c446ccacc4c1d80b7778f1aa88a04b17dcaf718"
      ],
      "is_coinbase": false,
      "sequence": 4294967295
    }
  ],
  "vout": [
    {
      "scriptpubkey": "51202cf01b4490599205ac1af9dd1218026d4c019b90029dc4d30b5d4e56db9c0a73",
      "scriptpubkey_asm": "OP_PUSHNUM_1 OP_PUSHBYTES_32 2cf01b4490599205ac1af9dd1218026d4c019b90029dc4d30b5d4e56db9c0a73",
      "scriptpubkey_type": "v1_p2tr",
      "scriptpubkey_address": "bc1p9ncpk3ystxfqttq6l8w3yxqzd4xqrxusq2wuf5ctt489dkuupfesf7nurd",
      "value": 1200
    },
    {
      "scriptpubkey": "51202cf01b4490599205ac1af9dd1218026d4c019b90029dc4d30b5d4e56db9c0a73",
      "scriptpubkey_asm": "OP_PUSHNUM_1 OP_PUSHBYTES_32 2cf01b4490599205ac1af9dd1218026d4c019b90029dc4d30b5d4e56db9c0a73",
      "scriptpubkey_type": "v1_p2tr",
      "scriptpubkey_address": "bc1p9ncpk3ystxfqttq6l8w3yxqzd4xqrxusq2wuf5ctt489dkuupfesf7nurd",
      "value": 546
    },
    {
      "scriptpubkey": "5120237d05134193fc6796e6a6f06afc6cdb0c5b5ac345d0d960f35a4ef6977a8526",
      "scriptpubkey_asm": "OP_PUSHNUM_1 OP_PUSHBYTES_32 237d05134193fc6796e6a6f06afc6cdb0c5b5ac345d0d960f35a4ef6977a8526",
      "scriptpubkey_type": "v1_p2tr",
      "scriptpubkey_address": "bc1pyd7s2y6pj07x09hx5mcx4lrvmvx9kkkrghgdjc8ntf80d9m6s5nqllx4gk",
      "value": 220000
    },
    {
      "scriptpubkey": "51202cf01b4490599205ac1af9dd1218026d4c019b90029dc4d30b5d4e56db9c0a73",
      "scriptpubkey_asm": "OP_PUSHNUM_1 OP_PUSHBYTES_32 2cf01b4490599205ac1af9dd1218026d4c019b90029dc4d30b5d4e56db9c0a73",
      "scriptpubkey_type": "v1_p2tr",
      "scriptpubkey_address": "bc1p9ncpk3ystxfqttq6l8w3yxqzd4xqrxusq2wuf5ctt489dkuupfesf7nurd",
      "value": 600
    },
    {
      "scriptpubkey": "51202cf01b4490599205ac1af9dd1218026d4c019b90029dc4d30b5d4e56db9c0a73",
      "scriptpubkey_asm": "OP_PUSHNUM_1 OP_PUSHBYTES_32 2cf01b4490599205ac1af9dd1218026d4c019b90029dc4d30b5d4e56db9c0a73",
      "scriptpubkey_type": "v1_p2tr",
      "scriptpubkey_address": "bc1p9ncpk3ystxfqttq6l8w3yxqzd4xqrxusq2wuf5ctt489dkuupfesf7nurd",
      "value": 600
    },
    {
      "scriptpubkey": "51202cf01b4490599205ac1af9dd1218026d4c019b90029dc4d30b5d4e56db9c0a73",
      "scriptpubkey_asm": "OP_PUSHNUM_1 OP_PUSHBYTES_32 2cf01b4490599205ac1af9dd1218026d4c019b90029dc4d30b5d4e56db9c0a73",
      "scriptpubkey_type": "v1_p2tr",
      "scriptpubkey_address": "bc1p9ncpk3ystxfqttq6l8w3yxqzd4xqrxusq2wuf5ctt489dkuupfesf7nurd",
      "value": 1627502
    }
  ],
  "size": 699,
  "weight": 1995,
  "fee": 7984,
  "status": {
    "confirmed": true,
    "block_height": 834638,
    "block_hash": "000000000000000000025f742c626208ac87e0b7d15054abb4a19ca2d735a54e",
    "block_time": 1710405325
  },
  "hex": "020000000001049ac18f48d9cf848ac3815c0f6f0dbaf420938fb40f711bd34ff80f1f85d03b4b0400000000ffffffff17b636be9c3e22975c68e93e2aa787e21347473b5f405f54156007f62b5526220300000000ffffffffda1b995d6446964f038c4ecf44487fccc584ea775935431e57b7e0246a6334110100000000ffffffff17b636be9c3e22975c68e93e2aa787e21347473b5f405f54156007f62b5526220500000000ffffffff06b0040000000000002251202cf01b4490599205ac1af9dd1218026d4c019b90029dc4d30b5d4e56db9c0a7322020000000000002251202cf01b4490599205ac1af9dd1218026d4c019b90029dc4d30b5d4e56db9c0a73605b030000000000225120237d05134193fc6796e6a6f06afc6cdb0c5b5ac345d0d960f35a4ef6977a852658020000000000002251202cf01b4490599205ac1af9dd1218026d4c019b90029dc4d30b5d4e56db9c0a7358020000000000002251202cf01b4490599205ac1af9dd1218026d4c019b90029dc4d30b5d4e56db9c0a736ed51800000000002251202cf01b4490599205ac1af9dd1218026d4c019b90029dc4d30b5d4e56db9c0a73014001cdc1b2ebde3bec6ba4440d0f6fbefa2e3d83b53183dd3e38f918481d7ef23be8bf7711dfb0b26de7803438f28fdf316fede72c2b5cf87eac94584411e14c3801401937c44fd88a129dd13f012999ce973a37721da4846b6da25b02786712e1df13eb402ad892bf6056349339800f6678aa6ef2d35da316b81ea697424d547bfb2d0141611ee2c213c45b7f2e39c0cb7d47f61d32ae99e5ba66a04dfbec18ca7edecb54ae651d9d4258464e6496a277a1dd2b1b1976389ae6eca8ca36add59ebfd1560c830140d6162fe9be2fc0436376a0f9dec84c3e395a4e43b9805f459a4af06df53c76fbf469ca6b0e6f2c0ab6493f7b8c446ccacc4c1d80b7778f1aa88a04b17dcaf71800000000"
}