{
  "txid": "82a82a6b4dba188469243523e4a6fd024e405d66d0aeb4589663081e40a5993f",
  "version": 2,
  "locktime": 0,
  "vin": [
    {
      "txid": "d1f2e56bb0b5c87466a28cf0fb59f1bc198978e6338eafb988f343191f77d743",
      "vout": 7,
      "prevout": {
        "scriptpubkey": "5120fe7922b2c47b2ed041f6a2f7d3e68d257a2a7ae7d5328a54e12a615d57ec6cea",
        "scriptpubkey_asm": "OP_PUSHNUM_1 OP_PUSHBYTES_32 fe7922b2c47b2ed041f6a2f7d3e68d257a2a7ae7d5328a54e12a615d57ec6cea",
        "scriptpubkey_type": "v1_p2tr",
        "scriptpubkey_address": "bc1pleuj9vky0vhdqs0k5tma8e5dy4az57h865eg548p9fs464lvdn4q2mkfcc",
        "value": 3093
      },
      "scriptsig": "",
      "scriptsig_asm": "",
      "witness": [
        "667cfdd53e16f8ee9a1343573cc89cc7274810b7f877dd3eacd61622255b697fb852a7a46db2d7d98dca37a479742ad2f411b1ac1b540645e01a2f33a2e79c52",
        "208057c0d51199858280f1f556eddbe243577e88a28777bdb38a683689c16c4c9cac0063036f726401010a746578742f706c61696e004c8f7b2270223a2022746170222c20226f70223a2022646d742d6d696e74222c2022646570223a2022333962373532343338626533613435326464623731376230613635346233313662316164343661383139656234343831383933626337313331663738396539616930222c20227469636b223a20226e61746f776c73222c2022626c6b223a2022373036323537227d68",
        "c18057c0d51199858280f1f556eddbe243577e88a28777bdb38a683689c16c4c9c"
      ],
      "is_coinbase": false,
      "sequence": 4294967293
    }
  ],
  "vout": [
    {
      "scriptpubkey": "51202c5c7b584418f7df16e266886880e520a408eb99881dc4d7bb8770bb5b3cbbc9",
      "scriptpubkey_asm": "OP_PUSHNUM_1 OP_PUSHBYTES_32 2c5c7b584418f7df16e266886880e520a408eb99881dc4d7bb8770bb5b3cbbc9",
      "scriptpubkey_type": "v1_p2tr",
      "scriptpubkey_address": "bc1p93w8kkzyrrma79hzv6yx3q89yzjq36ue3qwuf4amsactkkeuh0ysjzsu97",
      "value": 546
    }
  ],
  "size": 397,
  "weight": 679,
  "fee": 2547,
  "status": {
    "confirmed": true,
    "block_height": 834464,
    "block_hash": "0000000000000000000177a0869a911a2b65c9bdcd5a8bcb02b68f305bee848e",
    "block_time": 1710308296
  },
  "hex": "0200000000010143d7771f1943f388b9af8e33e6788919bcf159fbf08ca26674c8b5b06be5f2d10700000000fdffffff0122020000000000002251202c5c7b584418f7df16e266886880e520a408eb99881dc4d7bb8770bb5b3cbbc90340667cfdd53e16f8ee9a1343573cc89cc7274810b7f877dd3eacd61622255b697fb852a7a46db2d7d98dca37a479742ad2f411b1ac1b540645e01a2f33a2e79c52c8208057c0d51199858280f1f556eddbe243577e88a28777bdb38a683689c16c4c9cac0063036f726401010a746578742f706c61696e004c8f7b2270223a2022746170222c20226f70223a2022646d742d6d696e74222c2022646570223a2022333962373532343338626533613435326464623731376230613635346233313662316164343661383139656234343831383933626337313331663738396539616930222c20227469636b223a20226e61746f776c73222c2022626c6b223a2022373036323537227d6821c18057c0d51199858280f1f556eddbe243577e88a28777bdb38a683689c16c4c9c00000000"
}