{
  "txid": "82bc13847269f69b43bf20f546160f90fa3002f55b62923f8e2c1366a231ac8f",
  "version": 2,
  "locktime": 0,
  "vin": [
    {
      "txid": "34f81e406211aff7ee9458a76b9fac0811964632078425553cd0b30bbd48e1fd",
      "vout": 1,
      "prevout": {
        "scriptpubkey": "76a9144bbc4245efa14521af318e33e09b06010ffb25c088ac",
        "scriptpubkey_asm": "OP_DUP OP_HASH160 OP_PUSHBYTES_20 4bbc4245efa14521af318e33e09b06010ffb25c0 OP_EQUALVERIFY OP_CHECKSIG",
        "scriptpubkey_type": "p2pkh",
        "scriptpubkey_address": "17uTCqvidaD2AgPm83bZhWdVZAiMigkFdU",
        "value": 688560
      },
      "scriptsig": "473044022076bdec72bf20b3de23000d1409b8f427f13e729b387c3d4691256a49fc8f9d4a02206c35c815168b0099ae11de8b8d79ffc52288696b8365c77f9529b780764ce9ce0121024189618e3bc0387ac860e70eb4805b050e97b6498a74018fabe217483291f8b2",
      "scriptsig_asm": "OP_PUSHBYTES_71 3044022076bdec72bf20b3de23000d1409b8f427f13e729b387c3d4691256a49fc8f9d4a02206c35c815168b0099ae11de8b8d79ffc52288696b8365c77f9529b780764ce9ce01 OP_PUSHBYTES_33 024189618e3bc0387ac860e70eb4805b050e97b6498a74018fabe217483291f8b2",
      "is_coinbase": false,
      "sequence": 4294967293
    }
  ],
  "vout": [
    {
      "scriptpubkey": "a914f5524384b1bea6b9a07510d889b7eced497c505e87",
      "scriptpubkey_asm": "OP_HASH160 OP_PUSHBYTES_20 f5524384b1bea6b9a07510d889b7eced497c505e OP_EQUAL",
      "scriptpubkey_type": "p2sh",
      "scriptpubkey_address": "3Q4A2KwKihauxvWcytwrRnUJyqKJtQCR6C",
      "value": 300000
    },
    {
      "scriptpubkey": "76a9144bbc4245efa14521af318e33e09b06010ffb25c088ac",
      "scriptpubkey_asm": "OP_DUP OP_HASH160 OP_PUSHBYTES_20 4bbc4245efa14521af318e33e09b06010ffb25c0 OP_EQUALVERIFY OP_CHECKSIG",
      "scriptpubkey_type": "p2pkh",
      "scriptpubkey_address": "17uTCqvidaD2AgPm83bZhWdVZAiMigkFdU",
      "value": 362775
    }
  ],
  "size": 223,
  "weight": 892,
  "fee": 25785,
  "status": {
    "confirmed": true,
    "block_height": 834638,
    "block_hash": "000000000000000000025f742c626208ac87e0b7d15054abb4a19ca2d735a54e",
    "block_time": 1710405325
  },
  "hex": "0200000001fde148bd0bb3d03c552584073246961108ac9f6ba75894eef7af1162401ef834010000006a473044022076bdec72bf20b3de23000d1409b8f427f13e729b387c3d4691256a49fc8f9d4a02206c35c815168b0099ae11de8b8d79ffc52288696b8365c77f9529b780764ce9ce0121024189618e3bc0387ac860e70eb4805b050e97b6498a74018fabe217483291f8b2fdffffff02e09304000000000017a914f5524384b1bea6b9a07510d889b7eced497c505e8717890500000000001976a9144bbc4245efa14521af318e33e09b06010ffb25c088ac00000000"
}