{
  "txid": "82e586e5f5503fcfbf7ea5344c18c3343a805804db31bbcf0638c12bc9a7e409",
  "version": 2,
  "locktime": 0,
  "vin": [
    {
      "txid": "acc3ba00869acb582a3f2904ce3a11dd3779350ce234063fc7d0959246213364",
      "vout": 34,
      "prevout": {
        "scriptpubkey": "51204a30daa5bf84a1f474de58da81ac8ca84616f6f8d300543718d3fc6e04298371",
        "scriptpubkey_asm": "OP_PUSHNUM_1 OP_PUSHBYTES_32 4a30daa5bf84a1f474de58da81ac8ca84616f6f8d300543718d3fc6e04298371",
        "scriptpubkey_type": "v1_p2tr",
        "scriptpubkey_address": "bc1pfgcd4fdlsjslgax7trdgrtyv4prpdahc6vq9gdcc607xuppfsdcsnfzadr",
        "value": 1806
      },
      "scriptsig": "",
      "scriptsig_asm": "",
      "witness": [
        "7644d79bab0ec7d5025ebf6c82f7604256f50e996fbc9bf0aa68f8310328ecfa23629011ff544185f0bce004a3a018a19ece80e26ecb1ba1a07cc1de921917d4",
        "2072f9a7180f2b7a39e2b2680ad185cb75b5c35b23e7b88a41a07de1e5b6a0c58eac0063036f726401010a746578742f706c61696e00357b2270223a226272632d3230222c226f70223a226d696e74222c227469636b223a22646f6765222c22616d74223a2234323030227d68",
        "c172f9a7180f2b7a39e2b2680ad185cb75b5c35b23e7b88a41a07de1e5b6a0c58e"
      ],
      "is_coinbase": false,
      "sequence": 4261412863
    }
  ],
  "vout": [
    {
      "scriptpubkey": "00147a665de7a370f4c9b372ab1fae587500a5bcbdb4",
      "scriptpubkey_asm": "OP_0 OP_PUSHBYTES_20 7a665de7a370f4c9b372ab1fae587500a5bcbdb4",
      "scriptpubkey_type": "v0_p2wpkh",
      "scriptpubkey_address": "bc1q0fn9mearwr6vnvmj4v06ukr4qzjme0d565dzcx",
      "value": 294
    }
  ],
  "size": 294,
  "weight": 540,
  "fee": 1512,
  "status": {
    "confirmed": true,
    "block_height": 834460,
    "block_hash": "00000000000000000000484a79b643b2524bbce82e5d8a442013fa5b8905ed98",
    "block_time": 1710307468
  },
  "hex": "02000000000101643321469295d0c73f0634e20c357937dd113ace04293f2a58cb9a8600bac3ac2200000000fffffffd0126010000000000001600147a665de7a370f4c9b372ab1fae587500a5bcbdb403407644d79bab0ec7d5025ebf6c82f7604256f50e996fbc9bf0aa68f8310328ecfa23629011ff544185f0bce004a3a018a19ece80e26ecb1ba1a07cc1de921917d46d2072f9a7180f2b7a39e2b2680ad185cb75b5c35b23e7b88a41a07de1e5b6a0c58eac0063036f726401010a746578742f706c61696e00357b2270223a226272632d3230222c226f70223a226d696e74222c227469636b223a22646f6765222c22616d74223a2234323030227d6821c172f9a7180f2b7a39e2b2680ad185cb75b5c35b23e7b88a41a07de1e5b6a0c58e00000000"
}