{
  "txid": "82ecc4b7cf336b078777818ae90353f1357d058cd46812811c4a0930c56377a2",
  "version": 1,
  "locktime": 0,
  "vin": [
    {
      "txid": "d856eab2c8d9e123b115fca70d78facc68c789e9f5acbaff251459b967f051d9",
      "vout": 0,
      "prevout": {
        "scriptpubkey": "5120d70d1d8fe74e150f866c6f8a57af00527550121eef0d26efdeb1f8ab63dce51c",
        "scriptpubkey_asm": "OP_PUSHNUM_1 OP_PUSHBYTES_32 d70d1d8fe74e150f866c6f8a57af00527550121eef0d26efdeb1f8ab63dce51c",
        "scriptpubkey_type": "v1_p2tr",
        "scriptpubkey_address": "bc1p6ux3mrl8fc2slpnvd7990tcq2f64qys7auxjdm77k8u2kc7uu5wqg8tzan",
        "value": 2710
      },
      "scriptsig": "",
      "scriptsig_asm": "",
      "witness": [
        "1459aa3067877151e2f98f5d928537a448176fc024ff6855b9abe7b79f9cced2a05960a7f56c43149cf5383e7b50ff5895d1d0375983a17226108b22a8bbe36483",
        "20be11f1d0580232188e877ef283eb5a1efd4e9e5290a2633605d666f59ad3fff2ac00630461746f6d03646d742ca16461726773a36b6d696e745f7469636b657263627463656e6f6e63651a000a551b6474696d651a65f10e4668",
        "c0be11f1d0580232188e877ef283eb5a1efd4e9e5290a2633605d666f59ad3fff2"
      ],
      "is_coinbase": false,
      "sequence": 4294967293
    }
  ],
  "vout": [
    {
      "scriptpubkey": "51209d6dbbf9bad17d0135e06ea56ec304df985f9f9bc809fa52ae6789a0947e0300",
      "scriptpubkey_asm": "OP_PUSHNUM_1 OP_PUSHBYTES_32 9d6dbbf9bad17d0135e06ea56ec304df985f9f9bc809fa52ae6789a0947e0300",
      "scriptpubkey_type": "v1_p2tr",
      "scriptpubkey_address": "bc1pn4kmh7d6697szd0qd6jkascym7v9l8umeqyl554wv7y6p9r7qvqquzkndh",
      "value": 1000
    }
  ],
  "size": 289,
  "weight": 571,
  "fee": 1710,
  "status": {
    "confirmed": true,
    "block_height": 834460,
    "block_hash": "00000000000000000000484a79b643b2524bbce82e5d8a442013fa5b8905ed98",
    "block_time": 1710307468
  },
  "hex": "01000000000101d951f067b9591425ffbaacf5e989c768ccfa780da7fc15b123e1d9c8b2ea56d80000000000fdffffff01e8030000000000002251209d6dbbf9bad17d0135e06ea56ec304df985f9f9bc809fa52ae6789a0947e030003411459aa3067877151e2f98f5d928537a448176fc024ff6855b9abe7b79f9cced2a05960a7f56c43149cf5383e7b50ff5895d1d0375983a17226108b22a8bbe364835b20be11f1d0580232188e877ef283eb5a1efd4e9e5290a2633605d666f59ad3fff2ac00630461746f6d03646d742ca16461726773a36b6d696e745f7469636b657263627463656e6f6e63651a000a551b6474696d651a65f10e466821c0be11f1d0580232188e877ef283eb5a1efd4e9e5290a2633605d666f59ad3fff200000000"
}