{
  "txid": "82ec89ff416fc243c527a30735d97617984ab0043b7e1678ff86a4cce193e5b1",
  "version": 2,
  "locktime": 0,
  "vin": [
    {
      "txid": "8486ecb4df0880316dd6e82b3971b4df187aff23765bc3a47f8d78bb53aa273c",
      "vout": 76,
      "prevout": {
        "scriptpubkey": "51204edb98ca4a8fdc34743cbbca92b0762eb9c9b26c18a55f572bf1710601c78b23",
        "scriptpubkey_asm": "OP_PUSHNUM_1 OP_PUSHBYTES_32 4edb98ca4a8fdc34743cbbca92b0762eb9c9b26c18a55f572bf1710601c78b23",
        "scriptpubkey_type": "v1_p2tr",
        "scriptpubkey_address": "bc1pfmde3jj23lwrgapuh09f9vrk96uunvnvrzj474et79csvqw83v3ssuqd3k",
        "value": 2575
      },
      "scriptsig": "",
      "scriptsig_asm": "",
      "witness": [
        "fd4f721e36d74ae273c271f2fb38ef4fa46e5f86e1bc2c80a56960278232bed06768019181aba1cbf3ec3277526ee53d3e104866d14fa862f0619322f58c3496",
        "2075a17fdc9b13c6b2a8b173316a5adc00c0f7b2ccca3179e45907dab1bf34d9c0ac0063036f726401010a746578742f706c61696e00367b2270223a226272632d3230222c226f70223a226d696e74222c227469636b223a2261616161222c22616d74223a223130303030227d68",
        "c175a17fdc9b13c6b2a8b173316a5adc00c0f7b2ccca3179e45907dab1bf34d9c0"
      ],
      "is_coinbase": false,
      "sequence": 4261412863
    }
  ],
  "vout": [
    {
      "scriptpubkey": "0014ddd7ef12ea6f78edcc1e8e7afa12c01ab59f3339",
      "scriptpubkey_asm": "OP_0 OP_PUSHBYTES_20 ddd7ef12ea6f78edcc1e8e7afa12c01ab59f3339",
      "scriptpubkey_type": "v0_p2wpkh",
      "scriptpubkey_address": "bc1qmht77yh2dauwmnq73ea05ykqr26e7veea8spz6",
      "value": 546
    }
  ],
  "size": 295,
  "weight": 541,
  "fee": 2029,
  "status": {
    "confirmed": true,
    "block_height": 834460,
    "block_hash": "00000000000000000000484a79b643b2524bbce82e5d8a442013fa5b8905ed98",
    "block_time": 1710307468
  },
  "hex": "020000000001013c27aa53bb788d7fa4c35b7623ff7a18dfb471392be8d66d318008dfb4ec86844c00000000fffffffd012202000000000000160014ddd7ef12ea6f78edcc1e8e7afa12c01ab59f33390340fd4f721e36d74ae273c271f2fb38ef4fa46e5f86e1bc2c80a56960278232bed06768019181aba1cbf3ec3277526ee53d3e104866d14fa862f0619322f58c34966e2075a17fdc9b13c6b2a8b173316a5adc00c0f7b2ccca3179e45907dab1bf34d9c0ac0063036f726401010a746578742f706c61696e00367b2270223a226272632d3230222c226f70223a226d696e74222c227469636b223a2261616161222c22616d74223a223130303030227d6821c175a17fdc9b13c6b2a8b173316a5adc00c0f7b2ccca3179e45907dab1bf34d9c000000000"
}