{
  "txid": "82f7ec6dfbf9bb507d69da194bc0f1c77cfff635f3fc96cd9be3f155907459a7",
  "version": 1,
  "locktime": 0,
  "vin": [
    {
      "txid": "94d873c87a106475156e651ce4ffe529cedf34a4ee3778cb4a68767c953377e4",
      "vout": 1,
      "prevout": {
        "scriptpubkey": "76a914b293612cdc34494f03506486140df7946feaa2cb88ac",
        "scriptpubkey_asm": "OP_DUP OP_HASH160 OP_PUSHBYTES_20 b293612cdc34494f03506486140df7946feaa2cb OP_EQUALVERIFY OP_CHECKSIG",
        "scriptpubkey_type": "p2pkh",
        "scriptpubkey_address": "1HHDqG3HwyBEuf1v2hXwCHhHqGTtPRAfS7",
        "value": 60794
      },
      "scriptsig": "4830450221009734d3386019f866a4bd73aadf20800f8fb5c526c26391f8e22a7bd152b53e810220758b8f9781924af05397c5361e7d854dbbb1b9ba368fb39a646a8806af75fce9012103d5b24e199227395e1a92a39697667445bb46f4f9ba9004264e5325db7a616fad",
      "scriptsig_asm": "OP_PUSHBYTES_72 30450221009734d3386019f866a4bd73aadf20800f8fb5c526c26391f8e22a7bd152b53e810220758b8f9781924af05397c5361e7d854dbbb1b9ba368fb39a646a8806af75fce901 OP_PUSHBYTES_33 03d5b24e199227395e1a92a39697667445bb46f4f9ba9004264e5325db7a616fad",
      "is_coinbase": false,
      "sequence": 4294967295
    }
  ],
  "vout": [
    {
      "scriptpubkey": "a914dd5e711fbdcb3ec5ff26a7d9a9f64db78eddb10887",
      "scriptpubkey_asm": "OP_HASH160 OP_PUSHBYTES_20 dd5e711fbdcb3ec5ff26a7d9a9f64db78eddb108 OP_EQUAL",
      "scriptpubkey_type": "p2sh",
      "scriptpubkey_address": "3MsWPskgyBKTFPhqnaboW84G9X1dTEHgNc",
      "value": 53384
    }
  ],
  "size": 190,
  "weight": 760,
  "fee": 7410,
  "status": {
    "confirmed": true,
    "block_height": 834464,
    "block_hash": "0000000000000000000177a0869a911a2b65c9bdcd5a8bcb02b68f305bee848e",
    "block_time": 1710308296
  },
  "hex": "0100000001e47733957c76684acb7837eea434dfce29e5ffe41c656e157564107ac873d894010000006b4830450221009734d3386019f866a4bd73aadf20800f8fb5c526c26391f8e22a7bd152b53e810220758b8f9781924af05397c5361e7d854dbbb1b9ba368fb39a646a8806af75fce9012103d5b24e199227395e1a92a39697667445bb46f4f9ba9004264e5325db7a616fadffffffff0188d000000000000017a914dd5e711fbdcb3ec5ff26a7d9a9f64db78eddb1088700000000"
}