{
  "txid": "82f9f96db7bdbb9e70626747632e373b34eefd50d613dfea7092744169591b6e",
  "version": 2,
  "locktime": 0,
  "vin": [
    {
      "txid": "888888888b51e3b36711a5ddfcfb786fc30ac3aacb13c5f168de8be7e5045fd8",
      "vout": 2,
      "prevout": {
        "scriptpubkey": "a914506764a3226203d38d56914f7c27020b59602fe287",
        "scriptpubkey_asm": "OP_HASH160 OP_PUSHBYTES_20 506764a3226203d38d56914f7c27020b59602fe2 OP_EQUAL",
        "scriptpubkey_type": "p2sh",
        "scriptpubkey_address": "3929qmbYYxAST12ceKRWKxcRFwXNnrXnfE",
        "value": 2795
      },
      "scriptsig": "16001414fd7bf29cccd4d685568afb5303c99a5772d6e4",
      "scriptsig_asm": "OP_PUSHBYTES_22 001414fd7bf29cccd4d685568afb5303c99a5772d6e4",
      "witness": [
        "30440220181dac444d139dda217a89a0483d13a63d15442888b2fef80e7f5f2304274e450220366144231f99a53407dd064bd326810d2d1a31b4ce35b5db365285da22ce20dc01",
        "021374056db26c3f35632eb16718f4f7c3e9db07a89fb2c2a3c92606e4f3a35719"
      ],
      "is_coinbase": false,
      "sequence": 4294967293,
      "inner_redeemscript_asm": "OP_0 OP_PUSHBYTES_20 14fd7bf29cccd4d685568afb5303c99a5772d6e4"
    },
    {
      "txid": "888888888ed24b319e2e5610c5b0d81ac8ab442b4e5eb69c966beaaa32dabdbf",
      "vout": 2,
      "prevout": {
        "scriptpubkey": "a914506764a3226203d38d56914f7c27020b59602fe287",
        "scriptpubkey_asm": "OP_HASH160 OP_PUSHBYTES_20 506764a3226203d38d56914f7c27020b59602fe2 OP_EQUAL",
        "scriptpubkey_type": "p2sh",
        "scriptpubkey_address": "3929qmbYYxAST12ceKRWKxcRFwXNnrXnfE",
        "value": 2795
      },
      "scriptsig": "16001414fd7bf29cccd4d685568afb5303c99a5772d6e4",
      "scriptsig_asm": "OP_PUSHBYTES_22 001414fd7bf29cccd4d685568afb5303c99a5772d6e4",
      "witness": [
        "304402207c52a0c824265a79982d873a2fee044481d34e9d42a81450849945768ba72dac02207bcce4f41aa8bdf30c783fe8aa95ed2c2f29335ff6daff28af26a740767bd8d401",
        "021374056db26c3f35632eb16718f4f7c3e9db07a89fb2c2a3c92606e4f3a35719"
      ],
      "is_coinbase": false,
      "sequence": 4294967293,
      "inner_redeemscript_asm": "OP_0 OP_PUSHBYTES_20 14fd7bf29cccd4d685568afb5303c99a5772d6e4"
    },
    {
      "txid": "8888888884a17f686d0fbe170ca99b6885a850a63ffa5c27943efbcd44fc2bf7",
      "vout": 2,
      "prevout": {
        "scriptpubkey": "a914506764a3226203d38d56914f7c27020b59602fe287",
        "scriptpubkey_asm": "OP_HASH160 OP_PUSHBYTES_20 506764a3226203d38d56914f7c27020b59602fe2 OP_EQUAL",
        "scriptpubkey_type": "p2sh",
        "scriptpubkey_address": "3929qmbYYxAST12ceKRWKxcRFwXNnrXnfE",
        "value": 2795
      },
      "scriptsig": "16001414fd7bf29cccd4d685568afb5303c99a5772d6e4",
      "scriptsig_asm": "OP_PUSHBYTES_22 001414fd7bf29cccd4d685568afb5303c99a5772d6e4",
      "witness": [
        "3044022072d759ed9aa0e531e4af4079a36a95814c9b5bf471b4dbb2f55da80f79822b20022028a55e79114534c505eb4c9599b68965ee22b680853b22fcd413ccd6fb587dc901",
        "021374056db26c3f35632eb16718f4f7c3e9db07a89fb2c2a3c92606e4f3a35719"
      ],
      "is_coinbase": false,
      "sequence": 4294967293,
      "inner_redeemscript_asm": "OP_0 OP_PUSHBYTES_20 14fd7bf29cccd4d685568afb5303c99a5772d6e4"
    },
    {
      "txid": "888888888f08ce21f350c4b9c9d5d4d45fcc5f873c9b6d2cc0daf96022f07d53",
      "vout": 2,
      "prevout": {
        "scriptpubkey": "a914506764a3226203d38d56914f7c27020b59602fe287",
        "scriptpubkey_asm": "OP_HASH160 OP_PUSHBYTES_20 506764a3226203d38d56914f7c27020b59602fe2 OP_EQUAL",
        "scriptpubkey_type": "p2sh",
        "scriptpubkey_address": "3929qmbYYxAST12ceKRWKxcRFwXNnrXnfE",
        "value": 2795
      },
      "scriptsig": "16001414fd7bf29cccd4d685568afb5303c99a5772d6e4",
      "scriptsig_asm": "OP_PUSHBYTES_22 001414fd7bf29cccd4d685568afb5303c99a5772d6e4",
      "witness": [
        "304402201ffd8382936dc6e04d12d367a5857b9ebdcd4f6fba30f93fa76e957880d92f8402203b59edead29c18c0684971092a0d0473515aed7ce680d426be37dec96cf1f29301",
        "021374056db26c3f35632eb16718f4f7c3e9db07a89fb2c2a3c92606e4f3a35719"
      ],
      "is_coinbase": false,
      "sequence": 4294967293,
      "inner_redeemscript_asm": "OP_0 OP_PUSHBYTES_20 14fd7bf29cccd4d685568afb5303c99a5772d6e4"
    },
    {
      "txid": "8888888885f826caab0de279a2560dd7ad9c91d66f780521b3c5e8968d794c49",
      "vout": 2,
      "prevout": {
        "scriptpubkey": "a914506764a3226203d38d56914f7c27020b59602fe287",
        "scriptpubkey_asm": "OP_HASH160 OP_PUSHBYTES_20 506764a3226203d38d56914f7c27020b59602fe2 OP_EQUAL",
        "scriptpubkey_type": "p2sh",
        "scriptpubkey_address": "3929qmbYYxAST12ceKRWKxcRFwXNnrXnfE",
        "value": 2795
      },
      "scriptsig": "16001414fd7bf29cccd4d685568afb5303c99a5772d6e4",
      "scriptsig_asm": "OP_PUSHBYTES_22 001414fd7bf29cccd4d685568afb5303c99a5772d6e4",
      "witness": [
        "3044022008c715d1b8d8b7bf97a7305b9b3710aa71d0ce9b3b839d6d6ee95ffe4c9534e202205e88d3e640c716ba3d6df22d79795f1778e27a6609b56055c9484ecb878bb4ab01",
        "021374056db26c3f35632eb16718f4f7c3e9db07a89fb2c2a3c92606e4f3a35719"
      ],
      "is_coinbase": false,
      "sequence": 4294967293,
      "inner_redeemscript_asm": "OP_0 OP_PUSHBYTES_20 14fd7bf29cccd4d685568afb5303c99a5772d6e4"
    },
    {
      "txid": "8888888885320edb900999145adc7283df82fd89b49368b0706321e6b49efeae",
      "vout": 2,
      "prevout": {
        "scriptpubkey": "a914506764a3226203d38d56914f7c27020b59602fe287",
        "scriptpubkey_asm": "OP_HASH160 OP_PUSHBYTES_20 506764a3226203d38d56914f7c27020b59602fe2 OP_EQUAL",
        "scriptpubkey_type": "p2sh",
        "scriptpubkey_address": "3929qmbYYxAST12ceKRWKxcRFwXNnrXnfE",
        "value": 2795
      },
      "scriptsig": "16001414fd7bf29cccd4d685568afb5303c99a5772d6e4",
      "scriptsig_asm": "OP_PUSHBYTES_22 001414fd7bf29cccd4d685568afb5303c99a5772d6e4",
      "witness": [
        "304402205e016a872bcf5706303bf93fc44b27e21afe319fd607f476672008dd73292a99022003eb01c89d58f0b84b0498a7b67c088364c929367be9eecee50f20009b1bb47e01",
        "021374056db26c3f35632eb16718f4f7c3e9db07a89fb2c2a3c92606e4f3a35719"
      ],
      "is_coinbase": false,
      "sequence": 4294967293,
      "inner_redeemscript_asm": "OP_0 OP_PUSHBYTES_20 14fd7bf29cccd4d685568afb5303c99a5772d6e4"
    },
    {
      "txid": "888888888978d52d532ccbf648dff132157c90d17eb5f864e8746f3df5411585",
      "vout": 2,
      "prevout": {
        "scriptpubkey": "a914506764a3226203d38d56914f7c27020b59602fe287",
        "scriptpubkey_asm": "OP_HASH160 OP_PUSHBYTES_20 506764a3226203d38d56914f7c27020b59602fe2 OP_EQUAL",
        "scriptpubkey_type": "p2sh",
        "scriptpubkey_address": "3929qmbYYxAST12ceKRWKxcRFwXNnrXnfE",
        "value": 2795
      },
      "scriptsig": "16001414fd7bf29cccd4d685568afb5303c99a5772d6e4",
      "scriptsig_asm": "OP_PUSHBYTES_22 001414fd7bf29cccd4d685568afb5303c99a5772d6e4",
      "witness": [
        "30440220610e5f3f4d631c710187e911a79fa57c7fdbefa2074768aa7cb53bc3de15899602205065bef28b89e2863520769e293d72228a937e48f43cc0e3da1d6b3124759f2801",
        "021374056db26c3f35632eb16718f4f7c3e9db07a89fb2c2a3c92606e4f3a35719"
      ],
      "is_coinbase": false,
      "sequence": 4294967293,
      "inner_redeemscript_asm": "OP_0 OP_PUSHBYTES_20 14fd7bf29cccd4d685568afb5303c99a5772d6e4"
    },
    {
      "txid": "8888888886816211bb9f96decdb73127e95c0ce78906680caca9f6926aa43671",
      "vout": 2,
      "prevout": {
        "scriptpubkey": "a914506764a3226203d38d56914f7c27020b59602fe287",
        "scriptpubkey_asm": "OP_HASH160 OP_PUSHBYTES_20 506764a3226203d38d56914f7c27020b59602fe2 OP_EQUAL",
        "scriptpubkey_type": "p2sh",
        "scriptpubkey_address": "3929qmbYYxAST12ceKRWKxcRFwXNnrXnfE",
        "value": 2795
      },
      "scriptsig": "16001414fd7bf29cccd4d685568afb5303c99a5772d6e4",
      "scriptsig_asm": "OP_PUSHBYTES_22 001414fd7bf29cccd4d685568afb5303c99a5772d6e4",
      "witness": [
        "30440220699013db3f9745e3922b8691afd3503641b595d6f6b555f6332317c8c70b3133022022f9870254b836358345d28382745619c94d1759bca8c371b36e17f817f2ac6801",
        "021374056db26c3f35632eb16718f4f7c3e9db07a89fb2c2a3c92606e4f3a35719"
      ],
      "is_coinbase": false,
      "sequence": 4294967293,
      "inner_redeemscript_asm": "OP_0 OP_PUSHBYTES_20 14fd7bf29cccd4d685568afb5303c99a5772d6e4"
    },
    {
      "txid": "88888888884d699557101926eb63af940b4d7a654d4861c6026087da7c5c9bfc",
      "vout": 2,
      "prevout": {
        "scriptpubkey": "a914506764a3226203d38d56914f7c27020b59602fe287",
        "scriptpubkey_asm": "OP_HASH160 OP_PUSHBYTES_20 506764a3226203d38d56914f7c27020b59602fe2 OP_EQUAL",
        "scriptpubkey_type": "p2sh",
        "scriptpubkey_address": "3929qmbYYxAST12ceKRWKxcRFwXNnrXnfE",
        "value": 2795
      },
      "scriptsig": "16001414fd7bf29cccd4d685568afb5303c99a5772d6e4",
      "scriptsig_asm": "OP_PUSHBYTES_22 001414fd7bf29cccd4d685568afb5303c99a5772d6e4",
      "witness": [
        "304402202753e8e16be9464ae9c48859cf31abe2f20960a95ae426875d722be50b5250720220483a71694d75fe3ee7d1f5626b5910cb99891de6f62896f7be1a394f42379a6301",
        "021374056db26c3f35632eb16718f4f7c3e9db07a89fb2c2a3c92606e4f3a35719"
      ],
      "is_coinbase": false,
      "sequence": 4294967293,
      "inner_redeemscript_asm": "OP_0 OP_PUSHBYTES_20 14fd7bf29cccd4d685568afb5303c99a5772d6e4"
    },
    {
      "txid": "21faa13cfb8a3f199b27b0d8caa7d15d370f61d8527b64ee3d168fa96ea7f9ba",
      "vout": 1,
      "prevout": {
        "scriptpubkey": "76a914cebb2851a9c7cfe2582c12ecaf7f3ff4383d1dc088ac",
        "scriptpubkey_asm": "OP_DUP OP_HASH160 OP_PUSHBYTES_20 cebb2851a9c7cfe2582c12ecaf7f3ff4383d1dc0 OP_EQUALVERIFY OP_CHECKSIG",
        "scriptpubkey_type": "p2pkh",
        "scriptpubkey_address": "1Kr6QSydW9bFQG1mXiPNNu6WpJGmUa9i1g",
        "value": 42413486991
      },
      "scriptsig": "46304302200f939d8253a58b47ce68f39162fc24e4090238101fa55519f57b4dad683d17bd021f7b6aababa790f172e630ad3699eef198e9edfc3d472f2e3f7dceb4ff79a72f012103786af4b32017ec640dba2d2a7e1fd5aa4a231a658e4cbc114d51c031576e19bc",
      "scriptsig_asm": "OP_PUSHBYTES_70 304302200f939d8253a58b47ce68f39162fc24e4090238101fa55519f57b4dad683d17bd021f7b6aababa790f172e630ad3699eef198e9edfc3d472f2e3f7dceb4ff79a72f01 OP_PUSHBYTES_33 03786af4b32017ec640dba2d2a7e1fd5aa4a231a658e4cbc114d51c031576e19bc",
      "is_coinbase": false,
      "sequence": 4294967293
    }
  ],
  "vout": [
    {
      "scriptpubkey": "a914be1d706a970c913eaad3eb494a9b5f67c46d28fc87",
      "scriptpubkey_asm": "OP_HASH160 OP_PUSHBYTES_20 be1d706a970c913eaad3eb494a9b5f67c46d28fc OP_EQUAL",
      "scriptpubkey_type": "p2sh",
      "scriptpubkey_address": "3K2FaTWczEVRMx5mn8FMibUcAoeGSBvMzi",
      "value": 248030000
    },
    {
      "scriptpubkey": "76a914cebb2851a9c7cfe2582c12ecaf7f3ff4383d1dc088ac",
      "scriptpubkey_asm": "OP_DUP OP_HASH160 OP_PUSHBYTES_20 cebb2851a9c7cfe2582c12ecaf7f3ff4383d1dc0 OP_EQUALVERIFY OP_CHECKSIG",
      "scriptpubkey_type": "p2pkh",
      "scriptpubkey_address": "1Kr6QSydW9bFQG1mXiPNNu6WpJGmUa9i1g",
      "value": 42165018946
    }
  ],
  "size": 1764,
  "weight": 4158,
  "fee": 463200,
  "status": {
    "confirmed": true,
    "block_height": 834638,
    "block_hash": "000000000000000000025f742c626208ac87e0b7d15054abb4a19ca2d735a54e",
    "block_time": 1710405325
  },
  "hex": "0200000000010ad85f04e5e78bde68f1c513cbaac30ac36f78fbfcdda51167b3e3518b88888888020000001716001414fd7bf29cccd4d685568afb5303c99a5772d6e4fdffffffbfbdda32aaea6b969cb65e4e2b44abc81ad8b0c510562e9e314bd28e88888888020000001716001414fd7bf29cccd4d685568afb5303c99a5772d6e4fdfffffff72bfc44cdfb3e94275cfa3fa650a885689ba90c17be0f6d687fa18488888888020000001716001414fd7bf29cccd4d685568afb5303c99a5772d6e4fdffffff537df02260f9dac02c6d9b3c875fcc5fd4d4d5c9b9c450f321ce088f88888888020000001716001414fd7bf29cccd4d685568afb5303c99a5772d6e4fdffffff494c798d96e8c5b32105786fd6919cadd70d56a279e20dabca26f88588888888020000001716001414fd7bf29cccd4d685568afb5303c99a5772d6e4fdffffffaefe9eb4e6216370b06893b489fd82df8372dc5a14990990db0e328588888888020000001716001414fd7bf29cccd4d685568afb5303c99a5772d6e4fdffffff851541f53d6f74e864f8b57ed1907c1532f1df48f6cb2c532dd5788988888888020000001716001414fd7bf29cccd4d685568afb5303c99a5772d6e4fdffffff7136a46a92f6a9ac0c680689e70c5ce92731b7cdde969fbb1162818688888888020000001716001414fd7bf29cccd4d685568afb5303c99a5772d6e4fdfffffffc9b5c7cda876002c661484d657a4d0b94af63eb2619105795694d8888888888020000001716001414fd7bf29cccd4d685568afb5303c99a5772d6e4fdffffffbaf9a76ea98f163dee647b52d8610f375dd1a7cad8b0279b193f8afb3ca1fa21010000006946304302200f939d8253a58b47ce68f39162fc24e4090238101fa55519f57b4dad683d17bd021f7b6aababa790f172e630ad3699eef198e9edfc3d472f2e3f7dceb4ff79a72f012103786af4b32017ec640dba2d2a7e1fd5aa4a231a658e4cbc114d51c031576e19bcfdffffff0230a3c80e0000000017a914be1d706a970c913eaad3eb494a9b5f67c46d28fc8742213bd1090000001976a914cebb2851a9c7cfe2582c12ecaf7f3ff4383d1dc088ac024730440220181dac444d139dda217a89a0483d13a63d15442888b2fef80e7f5f2304274e450220366144231f99a53407dd064bd326810d2d1a31b4ce35b5db365285da22ce20dc0121021374056db26c3f35632eb16718f4f7c3e9db07a89fb2c2a3c92606e4f3a357190247304402207c52a0c824265a79982d873a2fee044481d34e9d42a81450849945768ba72dac02207bcce4f41aa8bdf30c783fe8aa95ed2c2f29335ff6daff28af26a740767bd8d40121021374056db26c3f35632eb16718f4f7c3e9db07a89fb2c2a3c92606e4f3a3571902473044022072d759ed9aa0e531e4af4079a36a95814c9b5bf471b4dbb2f55da80f79822b20022028a55e79114534c505eb4c9599b68965ee22b680853b22fcd413ccd6fb587dc90121021374056db26c3f35632eb16718f4f7c3e9db07a89fb2c2a3c92606e4f3a357190247304402201ffd8382936dc6e04d12d367a5857b9ebdcd4f6fba30f93fa76e957880d92f8402203b59edead29c18c0684971092a0d0473515aed7ce680d426be37dec96cf1f2930121021374056db26c3f35632eb16718f4f7c3e9db07a89fb2c2a3c92606e4f3a3571902473044022008c715d1b8d8b7bf97a7305b9b3710aa71d0ce9b3b839d6d6ee95ffe4c9534e202205e88d3e640c716ba3d6df22d79795f1778e27a6609b56055c9484ecb878bb4ab0121021374056db26c3f35632eb16718f4f7c3e9db07a89fb2c2a3c92606e4f3a357190247304402205e016a872bcf5706303bf93fc44b27e21afe319fd607f476672008dd73292a99022003eb01c89d58f0b84b0498a7b67c088364c929367be9eecee50f20009b1bb47e0121021374056db26c3f35632eb16718f4f7c3e9db07a89fb2c2a3c92606e4f3a35719024730440220610e5f3f4d631c710187e911a79fa57c7fdbefa2074768aa7cb53bc3de15899602205065bef28b89e2863520769e293d72228a937e48f43cc0e3da1d6b3124759f280121021374056db26c3f35632eb16718f4f7c3e9db07a89fb2c2a3c92606e4f3a35719024730440220699013db3f9745e3922b8691afd3503641b595d6f6b555f6332317c8c70b3133022022f9870254b836358345d28382745619c94d1759bca8c371b36e17f817f2ac680121021374056db26c3f35632eb16718f4f7c3e9db07a89fb2c2a3c92606e4f3a357190247304402202753e8e16be9464ae9c48859cf31abe2f20960a95ae426875d722be50b5250720220483a71694d75fe3ee7d1f5626b5910cb99891de6f62896f7be1a394f42379a630121021374056db26c3f35632eb16718f4f7c3e9db07a89fb2c2a3c92606e4f3a357190000000000"
}