{
  "txid": "82fa56e84ec7e396f97806f0617814b2da473e6475be1d93cefa5216ebb473bf",
  "version": 2,
  "locktime": 834463,
  "vin": [
    {
      "txid": "098c2489bdbb5d728fd74327edf0303f0a2185bf5871b636ab9322cdfe7e73d5",
      "vout": 0,
      "prevout": {
        "scriptpubkey": "00142c802562bdaf4f9370360ff5b37eea49223b7329",
        "scriptpubkey_asm": "OP_0 OP_PUSHBYTES_20 2c802562bdaf4f9370360ff5b37eea49223b7329",
        "scriptpubkey_type": "v0_p2wpkh",
        "scriptpubkey_address": "bc1q9jqz2c4a4a8exupkpl6mxlh2fy3rkuefk9ftl7",
        "value": 200000000
      },
      "scriptsig": "",
      "scriptsig_asm": "",
      "witness": [
        "304402207d01d5fadf6101ec5c3bc5f8bb4eb133e4d57f1e4677c60d5a756b434407379802201de14e179075dd9a3e8eb082f14efcc8cd840b9ca375d56f570105d40a967ada01",
        "020b7616d48bd94e1dd94b554cd446aefde3917a4f6bb670472a70a3dc5224ade3"
      ],
      "is_coinbase": false,
      "sequence": 4294967294
    }
  ],
  "vout": [
    {
      "scriptpubkey": "a914983bc87c668e9bf22659be458aff6bf6e3b92e2f87",
      "scriptpubkey_asm": "OP_HASH160 OP_PUSHBYTES_20 983bc87c668e9bf22659be458aff6bf6e3b92e2f OP_EQUAL",
      "scriptpubkey_type": "p2sh",
      "scriptpubkey_address": "3FZxFWQx2sce6EFBezQggv25XNNJiBPeUC",
      "value": 39210100
    },
    {
      "scriptpubkey": "00142ff031d3279c350964561a68db57bf92703f297e",
      "scriptpubkey_asm": "OP_0 OP_PUSHBYTES_20 2ff031d3279c350964561a68db57bf92703f297e",
      "scriptpubkey_type": "v0_p2wpkh",
      "scriptpubkey_address": "bc1q9lcrr5e8ns6sjezkrf5dk4aljfcr72t7yvanrd",
      "value": 160786769
    }
  ],
  "size": 223,
  "weight": 565,
  "fee": 3131,
  "status": {
    "confirmed": true,
    "block_height": 834464,
    "block_hash": "0000000000000000000177a0869a911a2b65c9bdcd5a8bcb02b68f305bee848e",
    "block_time": 1710308296
  },
  "hex": "02000000000101d5737efecd2293ab36b67158bf85210a3f30f0ed2743d78f725dbbbd89248c090000000000feffffff02744c56020000000017a914983bc87c668e9bf22659be458aff6bf6e3b92e2f8751699509000000001600142ff031d3279c350964561a68db57bf92703f297e0247304402207d01d5fadf6101ec5c3bc5f8bb4eb133e4d57f1e4677c60d5a756b434407379802201de14e179075dd9a3e8eb082f14efcc8cd840b9ca375d56f570105d40a967ada0121020b7616d48bd94e1dd94b554cd446aefde3917a4f6bb670472a70a3dc5224ade39fbb0c00"
}