{
  "txid": "82fb88c35a2dee24d11109ecfa65b9e3ad6e10d37f16538c3a87cecf69d5ceec",
  "version": 2,
  "locktime": 834637,
  "vin": [
    {
      "txid": "b5798b2a855d4b583ea3af7764392d5e117a86c743c181d12a62871fccb7e3d7",
      "vout": 1,
      "prevout": {
        "scriptpubkey": "0014dc250b73169b4f4a0e312543507da0c92a7842c1",
        "scriptpubkey_asm": "OP_0 OP_PUSHBYTES_20 dc250b73169b4f4a0e312543507da0c92a7842c1",
        "scriptpubkey_type": "v0_p2wpkh",
        "scriptpubkey_address": "bc1qmsjskucknd855r33y4p4qldqey48sskpvk5gya",
        "value": 494300
      },
      "scriptsig": "",
      "scriptsig_asm": "",
      "witness": [
        "3044022027c127fcddefb773c023709a2215a114022e6e0b18154f8dc907cd145b65116602203faf9b6e415851d96977161d426ab98bd6fc595206d130073a11f1ddf26bc89a01",
        "025d008776e09542d6bbc5eef51c54d7e46fdfd0a3c27edf77cde9422d5b0cd8b2"
      ],
      "is_coinbase": false,
      "sequence": 4294967293
    }
  ],
  "vout": [
    {
      "scriptpubkey": "0014a36a6847efa886ab3ca363acf9547334544c61b4",
      "scriptpubkey_asm": "OP_0 OP_PUSHBYTES_20 a36a6847efa886ab3ca363acf9547334544c61b4",
      "scriptpubkey_type": "v0_p2wpkh",
      "scriptpubkey_address": "bc1q5d4xs3l04zr2k09rvwk0j4rnx32yccd5xm8p4q",
      "value": 200000
    },
    {
      "scriptpubkey": "0014028fe57842635b55aa28217accf87df3a7685ce2",
      "scriptpubkey_asm": "OP_0 OP_PUSHBYTES_20 028fe57842635b55aa28217accf87df3a7685ce2",
      "scriptpubkey_type": "v0_p2wpkh",
      "scriptpubkey_address": "bc1qq28727zzvdd4t23gy9ave7ra7wnksh8z9p5uh6",
      "value": 290700
    }
  ],
  "size": 222,
  "weight": 561,
  "fee": 3600,
  "status": {
    "confirmed": true,
    "block_height": 834638,
    "block_hash": "000000000000000000025f742c626208ac87e0b7d15054abb4a19ca2d735a54e",
    "block_time": 1710405325
  },
  "hex": "02000000000101d7e3b7cc1f87622ad181c143c7867a115e2d396477afa33e584b5d852a8b79b50100000000fdffffff02400d030000000000160014a36a6847efa886ab3ca363acf9547334544c61b48c6f040000000000160014028fe57842635b55aa28217accf87df3a7685ce202473044022027c127fcddefb773c023709a2215a114022e6e0b18154f8dc907cd145b65116602203faf9b6e415851d96977161d426ab98bd6fc595206d130073a11f1ddf26bc89a0121025d008776e09542d6bbc5eef51c54d7e46fdfd0a3c27edf77cde9422d5b0cd8b24dbc0c00"
}