{
  "txid": "83008d633b3f9725000f57cbfb5a1735b40dc93828f13b7926bfd9803d0a9af6",
  "version": 2,
  "locktime": 0,
  "vin": [
    {
      "txid": "5606b8ac2cac919e269c623f8dcba2125320d6f460d8af86de397ecd05e3840f",
      "vout": 2,
      "prevout": {
        "scriptpubkey": "5120c899eab0f6fd72e0708ac0e2dbdfd66d6453d4ce09881a21bae3d017a1523aaa",
        "scriptpubkey_asm": "OP_PUSHNUM_1 OP_PUSHBYTES_32 c899eab0f6fd72e0708ac0e2dbdfd66d6453d4ce09881a21bae3d017a1523aaa",
        "scriptpubkey_type": "v1_p2tr",
        "scriptpubkey_address": "bc1pezv74v8kl4ewquy2cr3dhh7kd4j984xwpxyp5gd6u0gp0g2j824qzth48j",
        "value": 3426
      },
      "scriptsig": "",
      "scriptsig_asm": "",
      "witness": [
        "d34ae98c9d17c2864965ea87cdc86b8dd46f632eb4d166744c9ffd661f5eedb920f7232142fda2f95ac52a19ebfbc37871755da793d2f36d4ea49aa814f430cf",
        "20d2c6de6b4ccecb19818f937adaa5ddb9417ffcf21df2069d986095ee34c6d114ac0063036f726401011e6170706c69636174696f6e2f6a736f6e3b636861727365743d7574662d38004cd07b2270223a22706f772d3230222c226f70223a226d696e74222c227469636b223a2250554e4b222c22616d74223a2231222c22736f6c7574696f6e223a2250554e4b3a6263317079326c633774336c746371643470656833653670703839386a3635763778726d736d7a6e7a366b397a63356a66303578366877717a7167336e793a303030303030303030303030303030303030303164363332346233346661396639643231623835373366623937656538666534396465643439313934373962643a3431353332343037373135227d68",
        "c10012eef0dd5686971201ee0affa8d24f6230a970f914fa050cfc5fbfb49107dd"
      ],
      "is_coinbase": false,
      "sequence": 4294967295
    }
  ],
  "vout": [
    {
      "scriptpubkey": "512022bf8f2e3f5e00da87378e74109ca796a8cf187b86c5316ac5162924be86d5dc",
      "scriptpubkey_asm": "OP_PUSHNUM_1 OP_PUSHBYTES_32 22bf8f2e3f5e00da87378e74109ca796a8cf187b86c5316ac5162924be86d5dc",
      "scriptpubkey_type": "v1_p2tr",
      "scriptpubkey_address": "bc1py2lc7t3ltcqd4peh3e6pp898j65v7xrmsmznz6k9zc5jf05x6hwqzqg3ny",
      "value": 546
    }
  ],
  "size": 484,
  "weight": 766,
  "fee": 2880,
  "status": {
    "confirmed": true,
    "block_height": 834638,
    "block_hash": "000000000000000000025f742c626208ac87e0b7d15054abb4a19ca2d735a54e",
    "block_time": 1710405325
  },
  "hex": "020000000001010f84e305cd7e39de86afd860f4d6205312a2cb8d3f629c269e91ac2cacb806560200000000ffffffff01220200000000000022512022bf8f2e3f5e00da87378e74109ca796a8cf187b86c5316ac5162924be86d5dc0340d34ae98c9d17c2864965ea87cdc86b8dd46f632eb4d166744c9ffd661f5eedb920f7232142fda2f95ac52a19ebfbc37871755da793d2f36d4ea49aa814f430cffd1d0120d2c6de6b4ccecb19818f937adaa5ddb9417ffcf21df2069d986095ee34c6d114ac0063036f726401011e6170706c69636174696f6e2f6a736f6e3b636861727365743d7574662d38004cd07b2270223a22706f772d3230222c226f70223a226d696e74222c227469636b223a2250554e4b222c22616d74223a2231222c22736f6c7574696f6e223a2250554e4b3a6263317079326c633774336c746371643470656833653670703839386a3635763778726d736d7a6e7a366b397a63356a66303578366877717a7167336e793a303030303030303030303030303030303030303164363332346233346661396639643231623835373366623937656538666534396465643439313934373962643a3431353332343037373135227d6821c10012eef0dd5686971201ee0affa8d24f6230a970f914fa050cfc5fbfb49107dd00000000"
}