{
  "txid": "830e054117ccf4eca91299ed59f2d16c78c457c3df37f1b93100d476a9475dd4",
  "version": 2,
  "locktime": 0,
  "vin": [
    {
      "txid": "5ca4584aa1a69b4c45eb191cacc0b584800767c1ee6c3ebabf53b84c9d292b12",
      "vout": 1,
      "prevout": {
        "scriptpubkey": "a914e01ce4f0da5a6cc56eb6754c64dd1b14ffe3e01787",
        "scriptpubkey_asm": "OP_HASH160 OP_PUSHBYTES_20 e01ce4f0da5a6cc56eb6754c64dd1b14ffe3e017 OP_EQUAL",
        "scriptpubkey_type": "p2sh",
        "scriptpubkey_address": "3N81u8CYDRGvYKJJ3zX3r6G6FnaKvYZjDC",
        "value": 207304
      },
      "scriptsig": "16001413a1492ebf1f920fdfe3930772177c13f9626664",
      "scriptsig_asm": "OP_PUSHBYTES_22 001413a1492ebf1f920fdfe3930772177c13f9626664",
      "witness": [
        "304402207460515197bd0944df9fc67ea1daab2606da6237095b010700484355a59f9f9702201ef39aca2f143c1731d5bfd40d4e79db695bd2880bda0910c4b455d6247fc77a01",
        "02532e421a0aaadbe9b93b66952fa2b8324c2345c409c54dd30d6d19246d42ff53"
      ],
      "is_coinbase": false,
      "sequence": 4294967293,
      "inner_redeemscript_asm": "OP_0 OP_PUSHBYTES_20 13a1492ebf1f920fdfe3930772177c13f9626664"
    }
  ],
  "vout": [
    {
      "scriptpubkey": "512073abe2cee02a05b27791e2dc601a3541ed33471de533cb841a11edd85409e909",
      "scriptpubkey_asm": "OP_PUSHNUM_1 OP_PUSHBYTES_32 73abe2cee02a05b27791e2dc601a3541ed33471de533cb841a11edd85409e909",
      "scriptpubkey_type": "v1_p2tr",
      "scriptpubkey_address": "bc1pww479nhq9gzmyau3utwxqx34g8knx3cau5euhpq6z8kas4qfayysk4c6ne",
      "value": 24488
    },
    {
      "scriptpubkey": "a914e01ce4f0da5a6cc56eb6754c64dd1b14ffe3e01787",
      "scriptpubkey_asm": "OP_HASH160 OP_PUSHBYTES_20 e01ce4f0da5a6cc56eb6754c64dd1b14ffe3e017 OP_EQUAL",
      "scriptpubkey_type": "p2sh",
      "scriptpubkey_address": "3N81u8CYDRGvYKJJ3zX3r6G6FnaKvYZjDC",
      "value": 180869
    }
  ],
  "size": 258,
  "weight": 705,
  "fee": 1947,
  "status": {
    "confirmed": true,
    "block_height": 834464,
    "block_hash": "0000000000000000000177a0869a911a2b65c9bdcd5a8bcb02b68f305bee848e",
    "block_time": 1710308296
  },
  "hex": "02000000000101122b299d4cb853bfba3e6ceec167078084b5c0ac1c19eb454c9ba6a14a58a45c010000001716001413a1492ebf1f920fdfe3930772177c13f9626664fdffffff02a85f00000000000022512073abe2cee02a05b27791e2dc601a3541ed33471de533cb841a11edd85409e90985c202000000000017a914e01ce4f0da5a6cc56eb6754c64dd1b14ffe3e017870247304402207460515197bd0944df9fc67ea1daab2606da6237095b010700484355a59f9f9702201ef39aca2f143c1731d5bfd40d4e79db695bd2880bda0910c4b455d6247fc77a012102532e421a0aaadbe9b93b66952fa2b8324c2345c409c54dd30d6d19246d42ff5300000000"
}