{
  "txid": "8313c1e235440b1f0566e1ffd62ddaeac071c3c38668502df5f94580fb0274f5",
  "version": 1,
  "locktime": 0,
  "vin": [
    {
      "txid": "888888888db970e0de413c9b47908826148ba53c347736be56e80f81fc8474d8",
      "vout": 0,
      "prevout": {
        "scriptpubkey": "51201c4797c755bb67e429ea79529fc147acec69e62c24a9393c3ef6b5e77f883705",
        "scriptpubkey_asm": "OP_PUSHNUM_1 OP_PUSHBYTES_32 1c4797c755bb67e429ea79529fc147acec69e62c24a9393c3ef6b5e77f883705",
        "scriptpubkey_type": "v1_p2tr",
        "scriptpubkey_address": "bc1pr3re0364hdn7g20209ffls284nkxne3vyj5nj0p77667wlugxuzsyg7csy",
        "value": 11923
      },
      "scriptsig": "",
      "scriptsig_asm": "",
      "witness": [
        "d7894c960e7e8cfba57c3b5fa58d464d4d859cb92be8af029d4ddccf9e55296540461902d7cc4683ef652d5083fda2987b5c87e141b2a3c076302dc4799bf228",
        "20288fe10385924d019ca2d9b0367651fb2df57f8842b5648100f5af9b72e8cb2bac00630461746f6d03646d7446a16461726773a46474696d651a65f13467656e6f6e63651a0001000368626974776f726b636b3838383838383838382e386b6d696e745f7469636b657268696e66696e69747968",
        "c1288fe10385924d019ca2d9b0367651fb2df57f8842b5648100f5af9b72e8cb2b"
      ],
      "is_coinbase": false,
      "sequence": 4294967295
    }
  ],
  "vout": [
    {
      "scriptpubkey": "5120ee5d73a166b5fcf6fb0e22e1428770d9455bcd536c28912b437450303ef41201",
      "scriptpubkey_asm": "OP_PUSHNUM_1 OP_PUSHBYTES_32 ee5d73a166b5fcf6fb0e22e1428770d9455bcd536c28912b437450303ef41201",
      "scriptpubkey_type": "v1_p2tr",
      "scriptpubkey_address": "bc1paewh8gtxkh70d7cwyts59pmsm9z4hn2nds5fz26rw3grq0h5zgqsmngref",
      "value": 9999
    }
  ],
  "size": 314,
  "weight": 596,
  "fee": 1924,
  "status": {
    "confirmed": true,
    "block_height": 834460,
    "block_hash": "00000000000000000000484a79b643b2524bbce82e5d8a442013fa5b8905ed98",
    "block_time": 1710307468
  },
  "hex": "01000000000101d87484fc810fe856be3677343ca58b14268890479b3c41dee070b98d888888880000000000ffffffff010f27000000000000225120ee5d73a166b5fcf6fb0e22e1428770d9455bcd536c28912b437450303ef412010340d7894c960e7e8cfba57c3b5fa58d464d4d859cb92be8af029d4ddccf9e55296540461902d7cc4683ef652d5083fda2987b5c87e141b2a3c076302dc4799bf2287520288fe10385924d019ca2d9b0367651fb2df57f8842b5648100f5af9b72e8cb2bac00630461746f6d03646d7446a16461726773a46474696d651a65f13467656e6f6e63651a0001000368626974776f726b636b3838383838383838382e386b6d696e745f7469636b657268696e66696e6974796821c1288fe10385924d019ca2d9b0367651fb2df57f8842b5648100f5af9b72e8cb2b00000000"
}