{
  "txid": "832386f97e25dabb6d6bf0c8020c6572407d824b11f9d089037491515b50d46c",
  "version": 2,
  "locktime": 0,
  "vin": [
    {
      "txid": "33198a5cbe2a53fc30099ab53009144888cef479020e7acbc065183b03c26d7b",
      "vout": 12,
      "prevout": {
        "scriptpubkey": "5120c2115ec421a71d8386937eecf0d2ff8c435c4e8352792ebc57798b76efa31af6",
        "scriptpubkey_asm": "OP_PUSHNUM_1 OP_PUSHBYTES_32 c2115ec421a71d8386937eecf0d2ff8c435c4e8352792ebc57798b76efa31af6",
        "scriptpubkey_type": "v1_p2tr",
        "scriptpubkey_address": "bc1pcgg4a3pp5uwc8p5n0mk0p5hl33p4cn5r2fuja0zh0x9hdmarrtmqj4gh7u",
        "value": 2658
      },
      "scriptsig": "",
      "scriptsig_asm": "",
      "witness": [
        "89fc85bc2f7014ac7b16e134f1bdf1368bf589660156f48925e795c47b443264bad37c1e6d16b860e95c1695babd96980f371c0c6ab2a26abb97519ecf3f2b19",
        "20c33df4e66514b50025979f690f2224f04d186e203769caa50c15016c8e3f6c7fac0063036f726401011e6170706c69636174696f6e2f6a736f6e3b636861727365743d7574662d38004cbf7b2270223a22706f772d3230222c226f70223a226d696e74222c227469636b223a2250455045222c22616d74223a2231303030222c22736f6c7574696f6e223a22504550453a626331717832636c7935673578376b356a6b7376396d61346332753661646c7a78657470616e387071733a303030303030303030303030303030303030303139393431613561653132383937363539383134343239323533333030353762306461393666336465613163353a3635393931323934353635227d68",
        "c1da2c9a1920efdfbecd176e4adbb0ca1150e62509fd8a3a19d8331b0c89a8a97b"
      ],
      "is_coinbase": false,
      "sequence": 4294967295
    }
  ],
  "vout": [
    {
      "scriptpubkey": "001432b1f2511437ad495a0c2efb5c2b9aeb7e236561",
      "scriptpubkey_asm": "OP_0 OP_PUSHBYTES_20 32b1f2511437ad495a0c2efb5c2b9aeb7e236561",
      "scriptpubkey_type": "v0_p2wpkh",
      "scriptpubkey_address": "bc1qx2cly5g5x7k5jksv9ma4c2u6adlzxetpan8pqs",
      "value": 546
    }
  ],
  "size": 455,
  "weight": 701,
  "fee": 2112,
  "status": {
    "confirmed": true,
    "block_height": 834460,
    "block_hash": "00000000000000000000484a79b643b2524bbce82e5d8a442013fa5b8905ed98",
    "block_time": 1710307468
  },
  "hex": "020000000001017b6dc2033b1865c0cb7a0e0279f4ce8848140930b59a0930fc532abe5c8a19330c00000000ffffffff01220200000000000016001432b1f2511437ad495a0c2efb5c2b9aeb7e236561034089fc85bc2f7014ac7b16e134f1bdf1368bf589660156f48925e795c47b443264bad37c1e6d16b860e95c1695babd96980f371c0c6ab2a26abb97519ecf3f2b19fd0c0120c33df4e66514b50025979f690f2224f04d186e203769caa50c15016c8e3f6c7fac0063036f726401011e6170706c69636174696f6e2f6a736f6e3b636861727365743d7574662d38004cbf7b2270223a22706f772d3230222c226f70223a226d696e74222c227469636b223a2250455045222c22616d74223a2231303030222c22736f6c7574696f6e223a22504550453a626331717832636c7935673578376b356a6b7376396d61346332753661646c7a78657470616e387071733a303030303030303030303030303030303030303139393431613561653132383937363539383134343239323533333030353762306461393666336465613163353a3635393931323934353635227d6821c1da2c9a1920efdfbecd176e4adbb0ca1150e62509fd8a3a19d8331b0c89a8a97b00000000"
}