{
  "txid": "8336e695305d3d09e868595b7bb0cd2113cc4b5a8fa2a3fb82d0b773c29f9d7c",
  "version": 1,
  "locktime": 0,
  "vin": [
    {
      "txid": "4407d689765e67e7ac99b0f96834fbf845a92a3ec2a56c032df7228d02f421b1",
      "vout": 3,
      "prevout": {
        "scriptpubkey": "76a914c1ff5f4b3a7b9fb43639f8a8ecf53f608983bb6488ac",
        "scriptpubkey_asm": "OP_DUP OP_HASH160 OP_PUSHBYTES_20 c1ff5f4b3a7b9fb43639f8a8ecf53f608983bb64 OP_EQUALVERIFY OP_CHECKSIG",
        "scriptpubkey_type": "p2pkh",
        "scriptpubkey_address": "1JgmLbfckxmmKdqAyfayaP37RtaFjB4ovp",
        "value": 52419
      },
      "scriptsig": "483045022100feeafd13943ece155a277351b5649a3b69186de24f90785a8e2cd3170eb6c0c902201b072cb2ef7eeff1eea8ba185dfca77c5bb6b38e521fd008835d46c50c73aa5c0121038b572d6693afe809ed2df3233ba99b67415a60655a71fa5f06a3cf982e7d37e7",
      "scriptsig_asm": "OP_PUSHBYTES_72 3045022100feeafd13943ece155a277351b5649a3b69186de24f90785a8e2cd3170eb6c0c902201b072cb2ef7eeff1eea8ba185dfca77c5bb6b38e521fd008835d46c50c73aa5c01 OP_PUSHBYTES_33 038b572d6693afe809ed2df3233ba99b67415a60655a71fa5f06a3cf982e7d37e7",
      "is_coinbase": false,
      "sequence": 4294967295
    }
  ],
  "vout": [
    {
      "scriptpubkey": "76a9145192aab0e1617a7ecd92123059ca9a8fe1a734fb88ac",
      "scriptpubkey_asm": "OP_DUP OP_HASH160 OP_PUSHBYTES_20 5192aab0e1617a7ecd92123059ca9a8fe1a734fb OP_EQUALVERIFY OP_CHECKSIG",
      "scriptpubkey_type": "p2pkh",
      "scriptpubkey_address": "18SKS8AUEah84BwURDXH3rXXd8FpAhSQzm",
      "value": 48852
    }
  ],
  "size": 192,
  "weight": 768,
  "fee": 3567,
  "status": {
    "confirmed": true,
    "block_height": 834638,
    "block_hash": "000000000000000000025f742c626208ac87e0b7d15054abb4a19ca2d735a54e",
    "block_time": 1710405325
  },
  "hex": "0100000001b121f4028d22f72d036ca5c23e2aa945f8fb3468f9b099ace7675e7689d60744030000006b483045022100feeafd13943ece155a277351b5649a3b69186de24f90785a8e2cd3170eb6c0c902201b072cb2ef7eeff1eea8ba185dfca77c5bb6b38e521fd008835d46c50c73aa5c0121038b572d6693afe809ed2df3233ba99b67415a60655a71fa5f06a3cf982e7d37e7ffffffff01d4be0000000000001976a9145192aab0e1617a7ecd92123059ca9a8fe1a734fb88ac00000000"
}