{
  "txid": "833e3c6bcfacc13492dddceb9c3e2adeea2b4f83d93f6bec9a01a44bfd5f4501",
  "version": 2,
  "locktime": 0,
  "vin": [
    {
      "txid": "8486ecb4df0880316dd6e82b3971b4df187aff23765bc3a47f8d78bb53aa273c",
      "vout": 66,
      "prevout": {
        "scriptpubkey": "5120e99657faf5a240196f4e0b0a49bd14f9c61c0e4efe33d7b8aa657dcfec9ceb76",
        "scriptpubkey_asm": "OP_PUSHNUM_1 OP_PUSHBYTES_32 e99657faf5a240196f4e0b0a49bd14f9c61c0e4efe33d7b8aa657dcfec9ceb76",
        "scriptpubkey_type": "v1_p2tr",
        "scriptpubkey_address": "bc1paxt907h45fqpjm6wpv9yn0g5l8rpcrjwlcea0w92v47ulmyuadmqq4mpzv",
        "value": 2575
      },
      "scriptsig": "",
      "scriptsig_asm": "",
      "witness": [
        "13a638cf7be60a410608a7e73a939275f28bdffc663d17adc2632d7a95af11f0eabccb3efaf011ad4ccfa05c3bbb49727ddc337b351b7f343e94b9505bdd68bd",
        "201e6045c3196c2ef34e1b433fd395febe97d464962cbadfa2b7494d9e1150ef3dac0063036f726401010a746578742f706c61696e00367b2270223a226272632d3230222c226f70223a226d696e74222c227469636b223a2261616161222c22616d74223a223130303030227d68",
        "c01e6045c3196c2ef34e1b433fd395febe97d464962cbadfa2b7494d9e1150ef3d"
      ],
      "is_coinbase": false,
      "sequence": 4261412863
    }
  ],
  "vout": [
    {
      "scriptpubkey": "0014ddd7ef12ea6f78edcc1e8e7afa12c01ab59f3339",
      "scriptpubkey_asm": "OP_0 OP_PUSHBYTES_20 ddd7ef12ea6f78edcc1e8e7afa12c01ab59f3339",
      "scriptpubkey_type": "v0_p2wpkh",
      "scriptpubkey_address": "bc1qmht77yh2dauwmnq73ea05ykqr26e7veea8spz6",
      "value": 546
    }
  ],
  "size": 295,
  "weight": 541,
  "fee": 2029,
  "status": {
    "confirmed": true,
    "block_height": 834460,
    "block_hash": "00000000000000000000484a79b643b2524bbce82e5d8a442013fa5b8905ed98",
    "block_time": 1710307468
  },
  "hex": "020000000001013c27aa53bb788d7fa4c35b7623ff7a18dfb471392be8d66d318008dfb4ec86844200000000fffffffd012202000000000000160014ddd7ef12ea6f78edcc1e8e7afa12c01ab59f3339034013a638cf7be60a410608a7e73a939275f28bdffc663d17adc2632d7a95af11f0eabccb3efaf011ad4ccfa05c3bbb49727ddc337b351b7f343e94b9505bdd68bd6e201e6045c3196c2ef34e1b433fd395febe97d464962cbadfa2b7494d9e1150ef3dac0063036f726401010a746578742f706c61696e00367b2270223a226272632d3230222c226f70223a226d696e74222c227469636b223a2261616161222c22616d74223a223130303030227d6821c01e6045c3196c2ef34e1b433fd395febe97d464962cbadfa2b7494d9e1150ef3d00000000"
}