{
  "txid": "8342a39271ac2ea89ecc6f53f99b36051b94134b4b0465475ec36b48522d90c0",
  "version": 2,
  "locktime": 0,
  "vin": [
    {
      "txid": "8486ecb4df0880316dd6e82b3971b4df187aff23765bc3a47f8d78bb53aa273c",
      "vout": 63,
      "prevout": {
        "scriptpubkey": "5120e8dba9b64ad12d828f5d090c65a0e55b1e9df618666f81561b646b2d42a8d54a",
        "scriptpubkey_asm": "OP_PUSHNUM_1 OP_PUSHBYTES_32 e8dba9b64ad12d828f5d090c65a0e55b1e9df618666f81561b646b2d42a8d54a",
        "scriptpubkey_type": "v1_p2tr",
        "scriptpubkey_address": "bc1pard6ndj26ykc9r6apyxxtg89tv0fmascvehcz4smv34j6s4g649q6pv7aw",
        "value": 2575
      },
      "scriptsig": "",
      "scriptsig_asm": "",
      "witness": [
        "df216e48ff45e5b72b6f117adb52a90126d76cc30457393b352865954445500ec9c16fdb12efb70e5dc702ab820a63f105a6dc11de17b37c7907c1effc811988",
        "20751f531167432e36bc0f9cc56a9005b175d9ca9e4a00eaef6b6017925002f680ac0063036f726401010a746578742f706c61696e00367b2270223a226272632d3230222c226f70223a226d696e74222c227469636b223a2261616161222c22616d74223a223130303030227d68",
        "c1751f531167432e36bc0f9cc56a9005b175d9ca9e4a00eaef6b6017925002f680"
      ],
      "is_coinbase": false,
      "sequence": 4261412863
    }
  ],
  "vout": [
    {
      "scriptpubkey": "0014ddd7ef12ea6f78edcc1e8e7afa12c01ab59f3339",
      "scriptpubkey_asm": "OP_0 OP_PUSHBYTES_20 ddd7ef12ea6f78edcc1e8e7afa12c01ab59f3339",
      "scriptpubkey_type": "v0_p2wpkh",
      "scriptpubkey_address": "bc1qmht77yh2dauwmnq73ea05ykqr26e7veea8spz6",
      "value": 546
    }
  ],
  "size": 295,
  "weight": 541,
  "fee": 2029,
  "status": {
    "confirmed": true,
    "block_height": 834460,
    "block_hash": "00000000000000000000484a79b643b2524bbce82e5d8a442013fa5b8905ed98",
    "block_time": 1710307468
  },
  "hex": "020000000001013c27aa53bb788d7fa4c35b7623ff7a18dfb471392be8d66d318008dfb4ec86843f00000000fffffffd012202000000000000160014ddd7ef12ea6f78edcc1e8e7afa12c01ab59f33390340df216e48ff45e5b72b6f117adb52a90126d76cc30457393b352865954445500ec9c16fdb12efb70e5dc702ab820a63f105a6dc11de17b37c7907c1effc8119886e20751f531167432e36bc0f9cc56a9005b175d9ca9e4a00eaef6b6017925002f680ac0063036f726401010a746578742f706c61696e00367b2270223a226272632d3230222c226f70223a226d696e74222c227469636b223a2261616161222c22616d74223a223130303030227d6821c1751f531167432e36bc0f9cc56a9005b175d9ca9e4a00eaef6b6017925002f68000000000"
}