{
  "txid": "835d922ab34992eb523ae79468800af340042e5ca31e3c374397f9a9f2dd78db",
  "version": 1,
  "locktime": 0,
  "vin": [
    {
      "txid": "d6afbcf93199f1efe6eb4e9413af9ab7a4506bbc428b6d2852a11726820aa12c",
      "vout": 1,
      "prevout": {
        "scriptpubkey": "00142aa0b2bda1a368ca010fb395e7241a524d513bcb",
        "scriptpubkey_asm": "OP_0 OP_PUSHBYTES_20 2aa0b2bda1a368ca010fb395e7241a524d513bcb",
        "scriptpubkey_type": "v0_p2wpkh",
        "scriptpubkey_address": "bc1q92st90dp5d5v5qg0kw27wfq62fx4zw7tqwk3s9",
        "value": 185192
      },
      "scriptsig": "",
      "scriptsig_asm": "",
      "witness": [
        "304402207197dedffa356421672e8c5131db59af933ce06f7bdca57b22e3046233d1c821022069ecfc699ee2e90607ddc278ebc51153fe9656439c13921f5bdc6b6bc34bda7001",
        "02f7517622ccdf7a0d4a91bd308b7abe01504038c92b9d5f03233ced6969ae35fb"
      ],
      "is_coinbase": false,
      "sequence": 4294967295
    }
  ],
  "vout": [
    {
      "scriptpubkey": "76a914d2e8dc4e605f429f72b2f3c94c2089d44e73df6388ac",
      "scriptpubkey_asm": "OP_DUP OP_HASH160 OP_PUSHBYTES_20 d2e8dc4e605f429f72b2f3c94c2089d44e73df63 OP_EQUALVERIFY OP_CHECKSIG",
      "scriptpubkey_type": "p2pkh",
      "scriptpubkey_address": "1LEBrinmNUEJSVf592oGwVJMrfM9sL4ijb",
      "value": 102005
    },
    {
      "scriptpubkey": "00142aa0b2bda1a368ca010fb395e7241a524d513bcb",
      "scriptpubkey_asm": "OP_0 OP_PUSHBYTES_20 2aa0b2bda1a368ca010fb395e7241a524d513bcb",
      "scriptpubkey_type": "v0_p2wpkh",
      "scriptpubkey_address": "bc1q92st90dp5d5v5qg0kw27wfq62fx4zw7tqwk3s9",
      "value": 79299
    }
  ],
  "size": 225,
  "weight": 573,
  "fee": 3888,
  "status": {
    "confirmed": true,
    "block_height": 834638,
    "block_hash": "000000000000000000025f742c626208ac87e0b7d15054abb4a19ca2d735a54e",
    "block_time": 1710405325
  },
  "hex": "010000000001012ca10a822617a152286d8b42bc6b50a4b79aaf13944eebe6eff19931f9bcafd60100000000ffffffff02758e0100000000001976a914d2e8dc4e605f429f72b2f3c94c2089d44e73df6388acc3350100000000001600142aa0b2bda1a368ca010fb395e7241a524d513bcb0247304402207197dedffa356421672e8c5131db59af933ce06f7bdca57b22e3046233d1c821022069ecfc699ee2e90607ddc278ebc51153fe9656439c13921f5bdc6b6bc34bda70012102f7517622ccdf7a0d4a91bd308b7abe01504038c92b9d5f03233ced6969ae35fb00000000"
}