{
  "txid": "835e1179786a2caea92a848095d62be48af6b27f04b636892e70edb599096a83",
  "version": 2,
  "locktime": 0,
  "vin": [
    {
      "txid": "b13bb5512a4904c28a6b7957b88edf574e8cb23551fc1dcfe22d6b239df42cf4",
      "vout": 98,
      "prevout": {
        "scriptpubkey": "5120f3bc8cbe0f9604108ec9bd06d011a8c33765d290f45293b93d0455510c40c980",
        "scriptpubkey_asm": "OP_PUSHNUM_1 OP_PUSHBYTES_32 f3bc8cbe0f9604108ec9bd06d011a8c33765d290f45293b93d0455510c40c980",
        "scriptpubkey_type": "v1_p2tr",
        "scriptpubkey_address": "bc1p7w7ge0s0jczpprkfh5rdqydgcvmkt55s73ff8wfaq324zrzqexqq6gfysy",
        "value": 2575
      },
      "scriptsig": "",
      "scriptsig_asm": "",
      "witness": [
        "d8dd50c09adff010d586d33c01e040de32b33de9d1b2423be7bbf29b3fb7308364fd64000b233bb59354246e06d44206d65da9fc9f4b6228c6c205d8026e17ca",
        "20efe37d62ee85b102f4d665e46cbb79f1ed3626c58ef81bd0211333b71bc92a04ac0063036f726401010a746578742f706c61696e00367b2270223a226272632d3230222c226f70223a226d696e74222c227469636b223a2261616161222c22616d74223a223130303030227d68",
        "c1efe37d62ee85b102f4d665e46cbb79f1ed3626c58ef81bd0211333b71bc92a04"
      ],
      "is_coinbase": false,
      "sequence": 4261412863
    }
  ],
  "vout": [
    {
      "scriptpubkey": "0014ce0b5aa0dac72397a8aa5a85d90a2cfb46f0f630",
      "scriptpubkey_asm": "OP_0 OP_PUSHBYTES_20 ce0b5aa0dac72397a8aa5a85d90a2cfb46f0f630",
      "scriptpubkey_type": "v0_p2wpkh",
      "scriptpubkey_address": "bc1qec944gx6cu3e0292t2zajz3vldr0pa3sh356d9",
      "value": 546
    }
  ],
  "size": 295,
  "weight": 541,
  "fee": 2029,
  "status": {
    "confirmed": true,
    "block_height": 834464,
    "block_hash": "0000000000000000000177a0869a911a2b65c9bdcd5a8bcb02b68f305bee848e",
    "block_time": 1710308296
  },
  "hex": "02000000000101f42cf49d236b2de2cf1dfc5135b28c4e57df8eb857796b8ac204492a51b53bb16200000000fffffffd012202000000000000160014ce0b5aa0dac72397a8aa5a85d90a2cfb46f0f6300340d8dd50c09adff010d586d33c01e040de32b33de9d1b2423be7bbf29b3fb7308364fd64000b233bb59354246e06d44206d65da9fc9f4b6228c6c205d8026e17ca6e20efe37d62ee85b102f4d665e46cbb79f1ed3626c58ef81bd0211333b71bc92a04ac0063036f726401010a746578742f706c61696e00367b2270223a226272632d3230222c226f70223a226d696e74222c227469636b223a2261616161222c22616d74223a223130303030227d6821c1efe37d62ee85b102f4d665e46cbb79f1ed3626c58ef81bd0211333b71bc92a0400000000"
}