{
  "txid": "8364be172ce150337eb679b9b34a26692e6feb02af1546248613bf2e36150769",
  "version": 2,
  "locktime": 0,
  "vin": [
    {
      "txid": "d18ed70056c00a6cd5de0ccb10b1ae8f7dd5250f9d0f22c727aba826d03302c8",
      "vout": 2,
      "prevout": {
        "scriptpubkey": "51201972b5438795d88915fb093361f9fc2adc821eb47353427d6599630ba1b5fc2d",
        "scriptpubkey_asm": "OP_PUSHNUM_1 OP_PUSHBYTES_32 1972b5438795d88915fb093361f9fc2adc821eb47353427d6599630ba1b5fc2d",
        "scriptpubkey_type": "v1_p2tr",
        "scriptpubkey_address": "bc1pr9et2su8jhvgj90mpyekr70u9twgy845wdf5ylt9n93shgd4lsks50636z",
        "value": 3010
      },
      "scriptsig": "",
      "scriptsig_asm": "",
      "witness": [
        "ffdf362399d90a4eaa1db2c7cb4d6cabb2ef81c8a701ab82a1bc12b3b195cbf06e3c69c9355f5a1c41ffbcfd042284c3cb795c2e06f453f381293b22a4b90b9f",
        "204bd85c0d1f449a693d5f267b353e7539d9514a55b43582fdf801244f9a977bc9ac0063036f726401011e6170706c69636174696f6e2f6a736f6e3b636861727365743d7574662d38004cbf7b2270223a22706f772d3230222c226f70223a226d696e74222c227469636b223a2250455045222c22616d74223a2231303030222c22736f6c7574696f6e223a22504550453a6263317168337833756334707a796478716436757776376e3732676874787a33753937306564663078613a303030303030303030303030303030303030303139393431613561653132383937363539383134343239323533333030353762306461393666336465613163353a3133323038333835343936227d68",
        "c1e5c6b8d70510d88b341fcdd9a2aa08913e89d9e736480c530fde3fe13419cdab"
      ],
      "is_coinbase": false,
      "sequence": 4294967295
    }
  ],
  "vout": [
    {
      "scriptpubkey": "0014bc4d1e62a1111a60375c733d3f291759851e17cf",
      "scriptpubkey_asm": "OP_0 OP_PUSHBYTES_20 bc4d1e62a1111a60375c733d3f291759851e17cf",
      "scriptpubkey_type": "v0_p2wpkh",
      "scriptpubkey_address": "bc1qh3x3uc4pzydxqd6uwv7n72ghtxz3u970edf0xa",
      "value": 546
    }
  ],
  "size": 455,
  "weight": 701,
  "fee": 2464,
  "status": {
    "confirmed": true,
    "block_height": 834460,
    "block_hash": "00000000000000000000484a79b643b2524bbce82e5d8a442013fa5b8905ed98",
    "block_time": 1710307468
  },
  "hex": "02000000000101c80233d026a8ab27c7220f9d0f25d57d8faeb110cb0cded56c0ac05600d78ed10200000000ffffffff012202000000000000160014bc4d1e62a1111a60375c733d3f291759851e17cf0340ffdf362399d90a4eaa1db2c7cb4d6cabb2ef81c8a701ab82a1bc12b3b195cbf06e3c69c9355f5a1c41ffbcfd042284c3cb795c2e06f453f381293b22a4b90b9ffd0c01204bd85c0d1f449a693d5f267b353e7539d9514a55b43582fdf801244f9a977bc9ac0063036f726401011e6170706c69636174696f6e2f6a736f6e3b636861727365743d7574662d38004cbf7b2270223a22706f772d3230222c226f70223a226d696e74222c227469636b223a2250455045222c22616d74223a2231303030222c22736f6c7574696f6e223a22504550453a6263317168337833756334707a796478716436757776376e3732676874787a33753937306564663078613a303030303030303030303030303030303030303139393431613561653132383937363539383134343239323533333030353762306461393666336465613163353a3133323038333835343936227d6821c1e5c6b8d70510d88b341fcdd9a2aa08913e89d9e736480c530fde3fe13419cdab00000000"
}