{
  "txid": "8364022cbc702107c5f9f980961757187a20eed12e7ff1969ecf13d5035a239e",
  "version": 1,
  "locktime": 0,
  "vin": [
    {
      "txid": "888888fb1085a52ff6dcbb041b873a5161b197322120f04503d0c01987298c7f",
      "vout": 0,
      "prevout": {
        "scriptpubkey": "512095f8a4b6a48682fc120893fa110f8105bd11df89eac86a5018fc85cce5a18e14",
        "scriptpubkey_asm": "OP_PUSHNUM_1 OP_PUSHBYTES_32 95f8a4b6a48682fc120893fa110f8105bd11df89eac86a5018fc85cce5a18e14",
        "scriptpubkey_type": "v1_p2tr",
        "scriptpubkey_address": "bc1pjhu2fd4ys6p0cysgj0apzrupqk73rhufatyx55qcljzueedp3c2qs6qgp0",
        "value": 11622
      },
      "scriptsig": "",
      "scriptsig_asm": "",
      "witness": [
        "282b510a0fee019d21681b7fe01d6c35ca3d5efaa1c3cd1622334938cd86ae720c2d38f37c2e91555faabe60354e3b422c5cfd5faf66612c906cc1d2f679c374",
        "20dfa7325ed77fab28d796d113dcead29a7490c58aaa244f71cf02d52f6b761081ac00630461746f6d03646d7440a16461726773a46474696d651a65dc4918656e6f6e63650068626974776f726b63693838383838382e31356b6d696e745f7469636b657268696e66696e69747968",
        "c0dfa7325ed77fab28d796d113dcead29a7490c58aaa244f71cf02d52f6b761081"
      ],
      "is_coinbase": false,
      "sequence": 0
    }
  ],
  "vout": [
    {
      "scriptpubkey": "51200d2714e7deae4b333de84acccd844ae45cf4c3fd597d7d3c632c9992e9c9d34e",
      "scriptpubkey_asm": "OP_PUSHNUM_1 OP_PUSHBYTES_32 0d2714e7deae4b333de84acccd844ae45cf4c3fd597d7d3c632c9992e9c9d34e",
      "scriptpubkey_type": "v1_p2tr",
      "scriptpubkey_address": "bc1pp5n3fe774e9nx00gftxvmpz2u3w0fslat97h60rr9jve96wf6d8qttg56w",
      "value": 9999
    }
  ],
  "size": 308,
  "weight": 590,
  "fee": 1623,
  "status": {
    "confirmed": true,
    "block_height": 834464,
    "block_hash": "0000000000000000000177a0869a911a2b65c9bdcd5a8bcb02b68f305bee848e",
    "block_time": 1710308296
  },
  "hex": "010000000001017f8c298719c0d00345f020213297b161513a871b04bbdcf62fa58510fb888888000000000000000000010f270000000000002251200d2714e7deae4b333de84acccd844ae45cf4c3fd597d7d3c632c9992e9c9d34e0340282b510a0fee019d21681b7fe01d6c35ca3d5efaa1c3cd1622334938cd86ae720c2d38f37c2e91555faabe60354e3b422c5cfd5faf66612c906cc1d2f679c3746f20dfa7325ed77fab28d796d113dcead29a7490c58aaa244f71cf02d52f6b761081ac00630461746f6d03646d7440a16461726773a46474696d651a65dc4918656e6f6e63650068626974776f726b63693838383838382e31356b6d696e745f7469636b657268696e66696e6974796821c0dfa7325ed77fab28d796d113dcead29a7490c58aaa244f71cf02d52f6b76108100000000"
}