{
  "txid": "8369c7f07b9e909c1152679abc04e036e59a26eb7312b1f6fe2b8a050555d087",
  "version": 1,
  "locktime": 0,
  "vin": [
    {
      "txid": "354281f12006beb087e6a42fcdce2e3125f976799b7727cf0188d7103a523078",
      "vout": 0,
      "prevout": {
        "scriptpubkey": "5120fd913b953a6b4b01d65f10180ea7eac1ac7b113a0d90ae2534104f975870b314",
        "scriptpubkey_asm": "OP_PUSHNUM_1 OP_PUSHBYTES_32 fd913b953a6b4b01d65f10180ea7eac1ac7b113a0d90ae2534104f975870b314",
        "scriptpubkey_type": "v1_p2tr",
        "scriptpubkey_address": "bc1plkgnh9f6dd9sr4jlzqvqafl2cxk8kyf6pkg2uff5zp8ewkrskv2q6txgey",
        "value": 2346
      },
      "scriptsig": "",
      "scriptsig_asm": "",
      "witness": [
        "cb0aa5aff10a7cfe746a8262025b08b34fe4345bf415186b1b3e5eb3e890497e80bb0f03b9059e48fe3f729f42a1c801b29ba5521c3fff9db79445eb7d4436a1",
        "20eaa1f2aee3605678f4ae74eef63c12d0ba1e5b576fa05e05ca6abdde2c47533cac0063036f726401010a746578742f706c61696e003e7b2270223a226272632d3230222c226f70223a227472616e73666572222c227469636b223a2253415453222c22616d74223a22353030303030303030227d68",
        "c0eaa1f2aee3605678f4ae74eef63c12d0ba1e5b576fa05e05ca6abdde2c47533c"
      ],
      "is_coinbase": false,
      "sequence": 4294967293
    }
  ],
  "vout": [
    {
      "scriptpubkey": "512017759eaa5f880b96aa811036e6e290b15fa63cdc4015f4e5993f35b30f0f09db",
      "scriptpubkey_asm": "OP_PUSHNUM_1 OP_PUSHBYTES_32 17759eaa5f880b96aa811036e6e290b15fa63cdc4015f4e5993f35b30f0f09db",
      "scriptpubkey_type": "v1_p2tr",
      "scriptpubkey_address": "bc1pza6ea2jl3q9ed25pzqmwdc5sk906v0xugq2lfeve8u6mxrc0p8ds9r9fg2",
      "value": 546
    }
  ],
  "size": 315,
  "weight": 597,
  "fee": 1800,
  "status": {
    "confirmed": true,
    "block_height": 834460,
    "block_hash": "00000000000000000000484a79b643b2524bbce82e5d8a442013fa5b8905ed98",
    "block_time": 1710307468
  },
  "hex": "010000000001017830523a10d78801cf27779b7976f925312ececd2fa4e687b0be0620f18142350000000000fdffffff01220200000000000022512017759eaa5f880b96aa811036e6e290b15fa63cdc4015f4e5993f35b30f0f09db0340cb0aa5aff10a7cfe746a8262025b08b34fe4345bf415186b1b3e5eb3e890497e80bb0f03b9059e48fe3f729f42a1c801b29ba5521c3fff9db79445eb7d4436a17620eaa1f2aee3605678f4ae74eef63c12d0ba1e5b576fa05e05ca6abdde2c47533cac0063036f726401010a746578742f706c61696e003e7b2270223a226272632d3230222c226f70223a227472616e73666572222c227469636b223a2253415453222c22616d74223a22353030303030303030227d6821c0eaa1f2aee3605678f4ae74eef63c12d0ba1e5b576fa05e05ca6abdde2c47533c00000000"
}