{
  "txid": "836b1602ab6e6c798cbba19e82bc22ea5887c64e01a317607f809e9c37ebf984",
  "version": 2,
  "locktime": 834458,
  "vin": [
    {
      "txid": "d302f437ed494ff4e535aabae0ee51204561f6d747c5e0e1a567478e9ee6773e",
      "vout": 0,
      "prevout": {
        "scriptpubkey": "0014674f06ce44217f831bd3b199388e6aec7d86f029",
        "scriptpubkey_asm": "OP_0 OP_PUSHBYTES_20 674f06ce44217f831bd3b199388e6aec7d86f029",
        "scriptpubkey_type": "v0_p2wpkh",
        "scriptpubkey_address": "bc1qva8sdnjyy9lcxx7nkxvn3rn2a37cdupf3gwh8q",
        "value": 18926456
      },
      "scriptsig": "",
      "scriptsig_asm": "",
      "witness": [
        "3044022052ffaf8df8e65dedb9088dd4886ff8d200977d4a8c2178faa8063e51a5ed38450220245d7aeae3030f99d8cc77dbbb9c0c676f96a6631cfa31ca14eded62886a243001",
        "03380047296922d4c515325601f5f4861c70f71bc91a1d67d1b0353ea0340f19dc"
      ],
      "is_coinbase": false,
      "sequence": 4294967293
    }
  ],
  "vout": [
    {
      "scriptpubkey": "00147905278e32c809388971ce40dffb4fbf05b4da96",
      "scriptpubkey_asm": "OP_0 OP_PUSHBYTES_20 7905278e32c809388971ce40dffb4fbf05b4da96",
      "scriptpubkey_type": "v0_p2wpkh",
      "scriptpubkey_address": "bc1q0yzj0r3jeqyn3zt3eeqdl760huzmfk5kf02mpy",
      "value": 120339
    },
    {
      "scriptpubkey": "0014663e665a584bdc069b4ec1e4b9c054598b5ea7fd",
      "scriptpubkey_asm": "OP_0 OP_PUSHBYTES_20 663e665a584bdc069b4ec1e4b9c054598b5ea7fd",
      "scriptpubkey_type": "v0_p2wpkh",
      "scriptpubkey_address": "bc1qvclxvkjcf0wqdx6wc8jtnsz5tx94afladqahdv",
      "value": 18804425
    }
  ],
  "size": 222,
  "weight": 561,
  "fee": 1692,
  "status": {
    "confirmed": true,
    "block_height": 834460,
    "block_hash": "00000000000000000000484a79b643b2524bbce82e5d8a442013fa5b8905ed98",
    "block_time": 1710307468
  },
  "hex": "020000000001013e77e69e8e4767a5e1e0c547d7f661452051eee0baaa35e5f44f49ed37f402d30000000000fdffffff0213d60100000000001600147905278e32c809388971ce40dffb4fbf05b4da96c9ee1e0100000000160014663e665a584bdc069b4ec1e4b9c054598b5ea7fd02473044022052ffaf8df8e65dedb9088dd4886ff8d200977d4a8c2178faa8063e51a5ed38450220245d7aeae3030f99d8cc77dbbb9c0c676f96a6631cfa31ca14eded62886a2430012103380047296922d4c515325601f5f4861c70f71bc91a1d67d1b0353ea0340f19dc9abb0c00"
}