{
  "txid": "836b141e7f726d7bce6a5eb0c24600d4146f9bf06335974c64f22f4336f87492",
  "version": 1,
  "locktime": 0,
  "vin": [
    {
      "txid": "8fb5bfefd2df366cc7d4f631c83a2f1ba7d2c2d43fbdb0c74968cca271650a9e",
      "vout": 0,
      "prevout": {
        "scriptpubkey": "00142dab2e7a728f6d07632c683811cad816130525c4",
        "scriptpubkey_asm": "OP_0 OP_PUSHBYTES_20 2dab2e7a728f6d07632c683811cad816130525c4",
        "scriptpubkey_type": "v0_p2wpkh",
        "scriptpubkey_address": "bc1q9k4ju7nj3akswcevdquprjkczcfs2fwydpn4lg",
        "value": 397093
      },
      "scriptsig": "",
      "scriptsig_asm": "",
      "witness": [
        "3045022100c0d898728eb04ede56efd27467166a7d7b5dcc7d1b7a12c4f7db34358719625b0220598bd2c05605fdfb4daa385a067bce673ece396bc8afc9c27745ad88ac33cdea01",
        "02f7f083abb15490601f93b06fb1e93bfd3465ce24d81f3a64a661dccd084ff291"
      ],
      "is_coinbase": false,
      "sequence": 4294967295
    }
  ],
  "vout": [
    {
      "scriptpubkey": "00142927a136d297eef1509a8002d6381e0bad9bd06f",
      "scriptpubkey_asm": "OP_0 OP_PUSHBYTES_20 2927a136d297eef1509a8002d6381e0bad9bd06f",
      "scriptpubkey_type": "v0_p2wpkh",
      "scriptpubkey_address": "bc1q9yn6zdkjjlh0z5y6sqpdvwq7pwkeh5r0ka28ad",
      "value": 132567
    },
    {
      "scriptpubkey": "001405b84b4ce7373f0016631f10f0a445155b4ed9f7",
      "scriptpubkey_asm": "OP_0 OP_PUSHBYTES_20 05b84b4ce7373f0016631f10f0a445155b4ed9f7",
      "scriptpubkey_type": "v0_p2wpkh",
      "scriptpubkey_address": "bc1qqkuykn88xulsq9nrrug0pfz9z4d5ak0h6s0awr",
      "value": 262986
    }
  ],
  "size": 223,
  "weight": 562,
  "fee": 1540,
  "status": {
    "confirmed": true,
    "block_height": 834464,
    "block_hash": "0000000000000000000177a0869a911a2b65c9bdcd5a8bcb02b68f305bee848e",
    "block_time": 1710308296
  },
  "hex": "010000000001019e0a6571a2cc6849c7b0bd3fd4c2d2a71b2f3ac831f6d4c76c36dfd2efbfb58f0000000000ffffffff02d7050200000000001600142927a136d297eef1509a8002d6381e0bad9bd06f4a0304000000000016001405b84b4ce7373f0016631f10f0a445155b4ed9f702483045022100c0d898728eb04ede56efd27467166a7d7b5dcc7d1b7a12c4f7db34358719625b0220598bd2c05605fdfb4daa385a067bce673ece396bc8afc9c27745ad88ac33cdea012102f7f083abb15490601f93b06fb1e93bfd3465ce24d81f3a64a661dccd084ff29100000000"
}