{
  "txid": "836ba1041dd73136db41d8c4b587fab80b840bfbbe4723e1d6fa16c7c60a9b9f",
  "version": 2,
  "locktime": 834550,
  "vin": [
    {
      "txid": "42c0d3b4c73d53c5a4f0b7243e53957f13204f2458df526e01902d9840b788c2",
      "vout": 0,
      "prevout": {
        "scriptpubkey": "001440b9d5f8df75184039a09819e0358c847d8513c9",
        "scriptpubkey_asm": "OP_0 OP_PUSHBYTES_20 40b9d5f8df75184039a09819e0358c847d8513c9",
        "scriptpubkey_type": "v0_p2wpkh",
        "scriptpubkey_address": "bc1qgzuat7xlw5vyqwdqnqv7qdvvs37c2y7fztyrla",
        "value": 13738582
      },
      "scriptsig": "",
      "scriptsig_asm": "",
      "witness": [
        "3044022051970d0ce3b5b7cda892357610e8598010670987c44d26b3963d052025c44e2b02205eb7bdee55d4e178e9dc4b41eae92057a361883b0b8b717d987a1766d567d70d01",
        "03322d9012c2b510df27e97befff0dd429575029d2c968204e5b0b989e7d60ba59"
      ],
      "is_coinbase": false,
      "sequence": 4294967294
    }
  ],
  "vout": [
    {
      "scriptpubkey": "00141d963ea58fbb2686035b4946f6680ec2040db824",
      "scriptpubkey_asm": "OP_0 OP_PUSHBYTES_20 1d963ea58fbb2686035b4946f6680ec2040db824",
      "scriptpubkey_type": "v0_p2wpkh",
      "scriptpubkey_address": "bc1qrktrafv0hvngvq6mf9r0v6qwcgzqmwpyrz76jn",
      "value": 504023
    },
    {
      "scriptpubkey": "0014efd84304cef96549e802eef28e9f686373f977b0",
      "scriptpubkey_asm": "OP_0 OP_PUSHBYTES_20 efd84304cef96549e802eef28e9f686373f977b0",
      "scriptpubkey_type": "v0_p2wpkh",
      "scriptpubkey_address": "bc1qalvyxpxwl9j5n6qzamega8mgvdeljaaslhnmvn",
      "value": 13230753
    }
  ],
  "size": 222,
  "weight": 561,
  "fee": 3806,
  "status": {
    "confirmed": true,
    "block_height": 834638,
    "block_hash": "000000000000000000025f742c626208ac87e0b7d15054abb4a19ca2d735a54e",
    "block_time": 1710405325
  },
  "hex": "02000000000101c288b740982d90016e52df58244f20137f95533e24b7f0a4c5533dc7b4d3c0420000000000feffffff02d7b00700000000001600141d963ea58fbb2686035b4946f6680ec2040db824a1e2c90000000000160014efd84304cef96549e802eef28e9f686373f977b002473044022051970d0ce3b5b7cda892357610e8598010670987c44d26b3963d052025c44e2b02205eb7bdee55d4e178e9dc4b41eae92057a361883b0b8b717d987a1766d567d70d012103322d9012c2b510df27e97befff0dd429575029d2c968204e5b0b989e7d60ba59f6bb0c00"
}