{
  "txid": "83899a6e4500677dfbf1c727fcc538bb2760c326e417e82e7b55c03065dec520",
  "version": 2,
  "locktime": 0,
  "vin": [
    {
      "txid": "553f9567a28ded6c2c908a3934b4eb4b48ffa2a8b3f94c12f449215645535859",
      "vout": 2,
      "prevout": {
        "scriptpubkey": "5120ef25c8865f291b18fa403c06622477cf0ef8c88cab9bf04bc01d7e6747792c82",
        "scriptpubkey_asm": "OP_PUSHNUM_1 OP_PUSHBYTES_32 ef25c8865f291b18fa403c06622477cf0ef8c88cab9bf04bc01d7e6747792c82",
        "scriptpubkey_type": "v1_p2tr",
        "scriptpubkey_address": "bc1pauju3pjl9yd337jq8srxyfrheu803jyv4wdlqj7qr4lxw3me9jpqr32k5j",
        "value": 546
      },
      "scriptsig": "",
      "scriptsig_asm": "",
      "witness": [
        "cc5cd162f9d3d179dcb813fdefe83545336a2eaaa4a92a727c615c2f6fd00116632ceb99f1492058df8ee121182b9980f48a5f61a30546356ecff26af15e733c"
      ],
      "is_coinbase": false,
      "sequence": 4294967295
    },
    {
      "txid": "553f9567a28ded6c2c908a3934b4eb4b48ffa2a8b3f94c12f449215645535859",
      "vout": 9,
      "prevout": {
        "scriptpubkey": "001455b047dd56d995cf1e4c0f3dd49c7f44c667b9be",
        "scriptpubkey_asm": "OP_0 OP_PUSHBYTES_20 55b047dd56d995cf1e4c0f3dd49c7f44c667b9be",
        "scriptpubkey_type": "v0_p2wpkh",
        "scriptpubkey_address": "bc1q2kcy0h2kmx2u78jvpu7af8rlgnrx0wd7glpp7p",
        "value": 6047569
      },
      "scriptsig": "",
      "scriptsig_asm": "",
      "witness": [
        "304402205e94a5a1608ae1527c5eff3fb222889498389485a873cd5bed47cb906595b5b30220613f2c91e9724c2a418e5fc07aee4005053e2f139a9adc7acc1bd59171cc7a9001",
        "03b077e8beebfe7d29b6326227111663fea6a2d3cd6a96e539a0b290699372c586"
      ],
      "is_coinbase": false,
      "sequence": 4294967295
    }
  ],
  "vout": [
    {
      "scriptpubkey": "512007a26635a55a4e15577f0da0803b2b8c3753cef0a94b4784d8ddd783a3be985d",
      "scriptpubkey_asm": "OP_PUSHNUM_1 OP_PUSHBYTES_32 07a26635a55a4e15577f0da0803b2b8c3753cef0a94b4784d8ddd783a3be985d",
      "scriptpubkey_type": "v1_p2tr",
      "scriptpubkey_address": "bc1pq73xvdd9tf8p24mlpksgqwet3sm48nhs49950pxcmhtc8ga7npwsw6fpfs",
      "value": 546
    },
    {
      "scriptpubkey": "001455b047dd56d995cf1e4c0f3dd49c7f44c667b9be",
      "scriptpubkey_asm": "OP_0 OP_PUSHBYTES_20 55b047dd56d995cf1e4c0f3dd49c7f44c667b9be",
      "scriptpubkey_type": "v0_p2wpkh",
      "scriptpubkey_address": "bc1q2kcy0h2kmx2u78jvpu7af8rlgnrx0wd7glpp7p",
      "value": 6045319
    }
  ],
  "size": 341,
  "weight": 839,
  "fee": 2250,
  "status": {
    "confirmed": true,
    "block_height": 834464,
    "block_hash": "0000000000000000000177a0869a911a2b65c9bdcd5a8bcb02b68f305bee848e",
    "block_time": 1710308296
  },
  "hex": "0200000000010259585345562149f4124cf9b3a8a2ff484bebb434398a902c6ced8da267953f550200000000ffffffff59585345562149f4124cf9b3a8a2ff484bebb434398a902c6ced8da267953f550900000000ffffffff02220200000000000022512007a26635a55a4e15577f0da0803b2b8c3753cef0a94b4784d8ddd783a3be985d873e5c000000000016001455b047dd56d995cf1e4c0f3dd49c7f44c667b9be0140cc5cd162f9d3d179dcb813fdefe83545336a2eaaa4a92a727c615c2f6fd00116632ceb99f1492058df8ee121182b9980f48a5f61a30546356ecff26af15e733c0247304402205e94a5a1608ae1527c5eff3fb222889498389485a873cd5bed47cb906595b5b30220613f2c91e9724c2a418e5fc07aee4005053e2f139a9adc7acc1bd59171cc7a90012103b077e8beebfe7d29b6326227111663fea6a2d3cd6a96e539a0b290699372c58600000000"
}