{
  "txid": "838a91750115716cd9be0aa19d2c466eebe4bcff2da969521e558e74e8ecf065",
  "version": 2,
  "locktime": 0,
  "vin": [
    {
      "txid": "170ddc048280acba8d9cffa7102d2b4b13d21625b1dcdc53c72b24d8d0cd9f28",
      "vout": 1,
      "prevout": {
        "scriptpubkey": "51209dead1c03201f35382995522bac27b2dad1f828411c66c177d7853cfadd3ba71",
        "scriptpubkey_asm": "OP_PUSHNUM_1 OP_PUSHBYTES_32 9dead1c03201f35382995522bac27b2dad1f828411c66c177d7853cfadd3ba71",
        "scriptpubkey_type": "v1_p2tr",
        "scriptpubkey_address": "bc1pnh4drspjq8e48q5e253t4snm9kk3lq5yz8rxc9ma0pfultwnhfcsv2jxxs",
        "value": 80413
      },
      "scriptsig": "",
      "scriptsig_asm": "",
      "witness": [
        "e07511249de0dbfd09dd35529fdc9c05e5d978c09c40944b87d2bfe9ee4a24970eafe8bf81c5bdef69f5f1ef85280dd72eff84781fd2fd05a3216762fe20e93c"
      ],
      "is_coinbase": false,
      "sequence": 4294967293
    }
  ],
  "vout": [
    {
      "scriptpubkey": "51206054b7fabad8a04305ec5af48865c9ea2dedea0609b0898800c20975c81cb423",
      "scriptpubkey_asm": "OP_PUSHNUM_1 OP_PUSHBYTES_32 6054b7fabad8a04305ec5af48865c9ea2dedea0609b0898800c20975c81cb423",
      "scriptpubkey_type": "v1_p2tr",
      "scriptpubkey_address": "bc1pvp2t0746mzsyxp0vtt6gsewfagk7m6sxpxcgnzqqcgyhtjquks3sgqmph9",
      "value": 3130
    },
    {
      "scriptpubkey": "51209dead1c03201f35382995522bac27b2dad1f828411c66c177d7853cfadd3ba71",
      "scriptpubkey_asm": "OP_PUSHNUM_1 OP_PUSHBYTES_32 9dead1c03201f35382995522bac27b2dad1f828411c66c177d7853cfadd3ba71",
      "scriptpubkey_type": "v1_p2tr",
      "scriptpubkey_address": "bc1pnh4drspjq8e48q5e253t4snm9kk3lq5yz8rxc9ma0pfultwnhfcsv2jxxs",
      "value": 74665
    }
  ],
  "size": 205,
  "weight": 616,
  "fee": 2618,
  "status": {
    "confirmed": true,
    "block_height": 834638,
    "block_hash": "000000000000000000025f742c626208ac87e0b7d15054abb4a19ca2d735a54e",
    "block_time": 1710405325
  },
  "hex": "02000000000101289fcdd0d8242bc753dcdcb12516d2134b2b2d10a7ff9c8dbaac808204dc0d170100000000fdffffff023a0c0000000000002251206054b7fabad8a04305ec5af48865c9ea2dedea0609b0898800c20975c81cb423a9230100000000002251209dead1c03201f35382995522bac27b2dad1f828411c66c177d7853cfadd3ba710140e07511249de0dbfd09dd35529fdc9c05e5d978c09c40944b87d2bfe9ee4a24970eafe8bf81c5bdef69f5f1ef85280dd72eff84781fd2fd05a3216762fe20e93c00000000"
}