{
  "txid": "83921e142baf96bdcc921e2c91ebcf3e6b673e0bb95ebdd625ecdc469adb6920",
  "version": 1,
  "locktime": 0,
  "vin": [
    {
      "txid": "0f5b6d38ec4e6c63052f670e9c87373382f2def20da81f3ca0f374c661fdd093",
      "vout": 4,
      "prevout": {
        "scriptpubkey": "001481924ed950ebf9ea85a16ef07d07ef26ec7ad50e",
        "scriptpubkey_asm": "OP_0 OP_PUSHBYTES_20 81924ed950ebf9ea85a16ef07d07ef26ec7ad50e",
        "scriptpubkey_type": "v0_p2wpkh",
        "scriptpubkey_address": "bc1qsxfyak2sa0u74pdpdmc86pl0ymk844gwc9qffd",
        "value": 115689
      },
      "scriptsig": "",
      "scriptsig_asm": "",
      "witness": [
        "30440220150c81f362d748cc83278e8d12e45e1630aeab3e90644af050f952bd63ba1e2a022036b175d22e27a0bfc88bf067c23c25a4b6a71b1b88c0c7bbf7792c711baa4ea201",
        "027d1b7b6080593f58dd2a5c7e3bd1cc84c008eb377f21eaaad46b88ea1867e4e1"
      ],
      "is_coinbase": false,
      "sequence": 4294967295
    }
  ],
  "vout": [
    {
      "scriptpubkey": "a9148b32b1b86f894d7bb6a29ad7c6b791263ca40c0087",
      "scriptpubkey_asm": "OP_HASH160 OP_PUSHBYTES_20 8b32b1b86f894d7bb6a29ad7c6b791263ca40c00 OP_EQUAL",
      "scriptpubkey_type": "p2sh",
      "scriptpubkey_address": "3EP2aWCxzEzjpzyi9Xc7Bbobh6t3SdgQrK",
      "value": 110000
    },
    {
      "scriptpubkey": "001481924ed950ebf9ea85a16ef07d07ef26ec7ad50e",
      "scriptpubkey_asm": "OP_0 OP_PUSHBYTES_20 81924ed950ebf9ea85a16ef07d07ef26ec7ad50e",
      "scriptpubkey_type": "v0_p2wpkh",
      "scriptpubkey_address": "bc1qsxfyak2sa0u74pdpdmc86pl0ymk844gwc9qffd",
      "value": 1855
    }
  ],
  "size": 223,
  "weight": 565,
  "fee": 3834,
  "status": {
    "confirmed": true,
    "block_height": 834638,
    "block_hash": "000000000000000000025f742c626208ac87e0b7d15054abb4a19ca2d735a54e",
    "block_time": 1710405325
  },
  "hex": "0100000000010193d0fd61c674f3a03c1fa80df2def2823337879c0e672f05636c4eec386d5b0f0400000000ffffffff02b0ad01000000000017a9148b32b1b86f894d7bb6a29ad7c6b791263ca40c00873f0700000000000016001481924ed950ebf9ea85a16ef07d07ef26ec7ad50e024730440220150c81f362d748cc83278e8d12e45e1630aeab3e90644af050f952bd63ba1e2a022036b175d22e27a0bfc88bf067c23c25a4b6a71b1b88c0c7bbf7792c711baa4ea20121027d1b7b6080593f58dd2a5c7e3bd1cc84c008eb377f21eaaad46b88ea1867e4e100000000"
}