{
  "txid": "83b1303fd891f1954cd87c1d288a2a6bca51045bdda40133839448bcf0a9a8be",
  "version": 2,
  "locktime": 0,
  "vin": [
    {
      "txid": "74f650a91c1240b68ade3bf6f8b212ce76dcc68db4c5c39f574f9c670cc775bd",
      "vout": 0,
      "prevout": {
        "scriptpubkey": "5120daa433e08bd93700414adc43d4dc9b2c15f1c34c277175ab6c4ed2d33fa4de45",
        "scriptpubkey_asm": "OP_PUSHNUM_1 OP_PUSHBYTES_32 daa433e08bd93700414adc43d4dc9b2c15f1c34c277175ab6c4ed2d33fa4de45",
        "scriptpubkey_type": "v1_p2tr",
        "scriptpubkey_address": "bc1pm2jr8cytmymsqs22m3pafhym9s2lrs6vyacht2mvfmfdx0aymezs6xa4ts",
        "value": 141000
      },
      "scriptsig": "",
      "scriptsig_asm": "",
      "witness": [
        "67b1d2c7bcb6993a24d4c3217497c023bafa541fd93382dd0678da82fe284ca9bdee6c674491c198c13faed1567a5953420219d22d6c080f2c061cc97cb00cf4",
        "20b8dda7a300cc73a1b480fc2f82396e9fa61106c9b746d584e176ebb9a0326d78ac0063036f726401011e6170706c69636174696f6e2f6a736f6e3b636861727365743d7574662d38004cd37b2270223a22706f772d3230222c226f70223a226d696e74222c227469636b223a2250455045222c22616d74223a2231303030222c22736f6c7574696f6e223a22504550453a62633170687834336d6b6632633236366e63707a6c7a7067307636616b6a73713470386379736379327a706d746e38326e367a616c7667713972663737363a303030303030303030303030303030303030303139393431613561653132383937363539383134343239323533333030353762306461393666336465613163353a3332303830373231383732227d68",
        "c143aa8de0991fd4b61b82f8195f6c835bc5de941a82824922fffa09f24edd0022"
      ],
      "is_coinbase": false,
      "sequence": 4294967293
    }
  ],
  "vout": [
    {
      "scriptpubkey": "5120b9ab1dd92ac2b5a9e022f88287b35db4a00a84f8243045083b5ccea9e85dfb10",
      "scriptpubkey_asm": "OP_PUSHNUM_1 OP_PUSHBYTES_32 b9ab1dd92ac2b5a9e022f88287b35db4a00a84f8243045083b5ccea9e85dfb10",
      "scriptpubkey_type": "v1_p2tr",
      "scriptpubkey_address": "bc1phx43mkf2c266ncpzlzpg0v6akjsq4p8cyscy2zpmtn82n6zalvgq9rf776",
      "value": 546
    },
    {
      "scriptpubkey": "5120534c19991ca727a1547938fc560e5f01fb6bcd7f127c2d94b6fa62b94ac97bcf",
      "scriptpubkey_asm": "OP_PUSHNUM_1 OP_PUSHBYTES_32 534c19991ca727a1547938fc560e5f01fb6bcd7f127c2d94b6fa62b94ac97bcf",
      "scriptpubkey_type": "v1_p2tr",
      "scriptpubkey_address": "bc1p2dxpnxgu5un6z4re8r79vrjlq8akhntlzf7zm99klf3tjjkf008s8cufv3",
      "value": 2862
    },
    {
      "scriptpubkey": "512022738f6cd5f6c623d4bac3d0c04a739b7ad2bf02750781eab22bea099dc87ee7",
      "scriptpubkey_asm": "OP_PUSHNUM_1 OP_PUSHBYTES_32 22738f6cd5f6c623d4bac3d0c04a739b7ad2bf02750781eab22bea099dc87ee7",
      "scriptpubkey_type": "v1_p2tr",
      "scriptpubkey_address": "bc1pyfec7mx47mrz8496c0gvqjnnndad90czw5rcr64j904qn8wg0mnstzppa8",
      "value": 2850
    },
    {
      "scriptpubkey": "51201e6bc0c9e79427bc67150805d7f2ff27c6725b4ff6461c9e347ad2851cfb4d09",
      "scriptpubkey_asm": "OP_PUSHNUM_1 OP_PUSHBYTES_32 1e6bc0c9e79427bc67150805d7f2ff27c6725b4ff6461c9e347ad2851cfb4d09",
      "scriptpubkey_type": "v1_p2tr",
      "scriptpubkey_address": "bc1pre4upj08jsnmcec4pqza0uhlylr8yk607erpe8350tfg288mf5ysqzsc22",
      "value": 2850
    },
    {
      "scriptpubkey": "512081bd79b34e6f883f65852802db9560d1a5c4fc4c917d0ba4d7fbeef1d32781be",
      "scriptpubkey_asm": "OP_PUSHNUM_1 OP_PUSHBYTES_32 81bd79b34e6f883f65852802db9560d1a5c4fc4c917d0ba4d7fbeef1d32781be",
      "scriptpubkey_type": "v1_p2tr",
      "scriptpubkey_address": "bc1psx7hnv6wd7yr7ev99qpdh9tq6xjuflzvj97shfxhl0h0r5e8sxlqf6rjmw",
      "value": 2850
    },
    {
      "scriptpubkey": "51202d9843cd493fbc45346894f3abd7f16d05a9bf53d67321589f514b1f0c7a422c",
      "scriptpubkey_asm": "OP_PUSHNUM_1 OP_PUSHBYTES_32 2d9843cd493fbc45346894f3abd7f16d05a9bf53d67321589f514b1f0c7a422c",
      "scriptpubkey_type": "v1_p2tr",
      "scriptpubkey_address": "bc1p9kvy8n2f877y2drgjne6h4l3d5z6n06n6eejzkyl29937rr6ggkq9hd0aa",
      "value": 2850
    },
    {
      "scriptpubkey": "5120d4aade987f24b132083c15c4a3b8dcad99d20f5c0710567536472c4e5800dc89",
      "scriptpubkey_asm": "OP_PUSHNUM_1 OP_PUSHBYTES_32 d4aade987f24b132083c15c4a3b8dcad99d20f5c0710567536472c4e5800dc89",
      "scriptpubkey_type": "v1_p2tr",
      "scriptpubkey_address": "bc1p6j4daxrlyjcnyzpuzhz28wxu4kvayr6uqug9vafkgukyukqqmjysdpruy7",
      "value": 2862
    },
    {
      "scriptpubkey": "5120048d7b8f5bb6e7f234ff7ec5fe3ccf2304d3237449c0eacb6ac1e4f906046dc4",
      "scriptpubkey_asm": "OP_PUSHNUM_1 OP_PUSHBYTES_32 048d7b8f5bb6e7f234ff7ec5fe3ccf2304d3237449c0eacb6ac1e4f906046dc4",
      "scriptpubkey_type": "v1_p2tr",
      "scriptpubkey_address": "bc1pqjxhhr6mkmnlyd8l0mzlu0x0yvzdxgm5f8qw4jm2c8j0jpsydhzq5hqgz8",
      "value": 2850
    },
    {
      "scriptpubkey": "51208c29fe0582e489c28ceac0191ccb4880b4ea9da6e80a8afdaeef841e110a6060",
      "scriptpubkey_asm": "OP_PUSHNUM_1 OP_PUSHBYTES_32 8c29fe0582e489c28ceac0191ccb4880b4ea9da6e80a8afdaeef841e110a6060",
      "scriptpubkey_type": "v1_p2tr",
      "scriptpubkey_address": "bc1p3s5lupvzujyu9r82cqv3ej6gsz6w48dxaq9g4ldwa7zpuyg2vpsqwv4yju",
      "value": 2862
    },
    {
      "scriptpubkey": "512010ef07e2f9010f217ecfea01a3407e5ffe06f9b2c938bfd3b22c9d7449ac6c50",
      "scriptpubkey_asm": "OP_PUSHNUM_1 OP_PUSHBYTES_32 10ef07e2f9010f217ecfea01a3407e5ffe06f9b2c938bfd3b22c9d7449ac6c50",
      "scriptpubkey_type": "v1_p2tr",
      "scriptpubkey_address": "bc1pzrhs0cheqy8jzlk0agq6xsr7tllqd7djeyutl5aj9jwhgjdvd3gqyay6rp",
      "value": 2862
    },
    {
      "scriptpubkey": "5120336affee877c617ee29e59a0e0e8e7729ddf085b7ab9ba2b2ee7b68c57083124",
      "scriptpubkey_asm": "OP_PUSHNUM_1 OP_PUSHBYTES_32 336affee877c617ee29e59a0e0e8e7729ddf085b7ab9ba2b2ee7b68c57083124",
      "scriptpubkey_type": "v1_p2tr",
      "scriptpubkey_address": "bc1pxd40lm5803shac57txswp688w2wa7zzm02um52ewu7mgc4cgxyjqtshqzq",
      "value": 2862
    },
    {
      "scriptpubkey": "5120631debf5175241f4ebd24330e62f3405c6b32ede40d75c495c75eb3bd9eec0d5",
      "scriptpubkey_asm": "OP_PUSHNUM_1 OP_PUSHBYTES_32 631debf5175241f4ebd24330e62f3405c6b32ede40d75c495c75eb3bd9eec0d5",
      "scriptpubkey_type": "v1_p2tr",
      "scriptpubkey_address": "bc1pvvw7hagh2fqlf67jgvcwvte5qhrtxtk7grt4cj2uwh4nhk0wcr2su3klwv",
      "value": 2862
    },
    {
      "scriptpubkey": "51209f704e0e73afe7482c5be1a15d1ea2b3852a111f781fc7ee417ec21de18fe34c",
      "scriptpubkey_asm": "OP_PUSHNUM_1 OP_PUSHBYTES_32 9f704e0e73afe7482c5be1a15d1ea2b3852a111f781fc7ee417ec21de18fe34c",
      "scriptpubkey_type": "v1_p2tr",
      "scriptpubkey_address": "bc1pnacyurnn4ln5stzmuxs4684zkwzj5ygl0q0u0mjp0mppmcv0udxqges5ye",
      "value": 2862
    },
    {
      "scriptpubkey": "5120a983b61a585556b9ca07451a259d55b88a734eb544c8f6c0b112e6409044ec13",
      "scriptpubkey_asm": "OP_PUSHNUM_1 OP_PUSHBYTES_32 a983b61a585556b9ca07451a259d55b88a734eb544c8f6c0b112e6409044ec13",
      "scriptpubkey_type": "v1_p2tr",
      "scriptpubkey_address": "bc1p4xpmvxjc24ttnjs8g5dzt824hz98xn44gny0ds93ztnypyzyasfs26wnda",
      "value": 2862
    },
    {
      "scriptpubkey": "51205c26825da3f676a752c22e83fc784a3aac0b7d64d61de6f3f80f2c77a45e4348",
      "scriptpubkey_asm": "OP_PUSHNUM_1 OP_PUSHBYTES_32 5c26825da3f676a752c22e83fc784a3aac0b7d64d61de6f3f80f2c77a45e4348",
      "scriptpubkey_type": "v1_p2tr",
      "scriptpubkey_address": "bc1ptsngyhdr7em2w5kz96plc7z282kqklty6cw7dulcpuk80fz7gdyqk3lhmt",
      "value": 2862
    },
    {
      "scriptpubkey": "5120e9c1e441ae8b8d21fda1669a41836248c1e89587a6b0c1703926713664e19b42",
      "scriptpubkey_asm": "OP_PUSHNUM_1 OP_PUSHBYTES_32 e9c1e441ae8b8d21fda1669a41836248c1e89587a6b0c1703926713664e19b42",
      "scriptpubkey_type": "v1_p2tr",
      "scriptpubkey_address": "bc1pa8q7gsdw3wxjrldpv6dyrqmzfrq739v856cvzupeyecnve8pndpqrjrqvs",
      "value": 2850
    },
    {
      "scriptpubkey": "512072da502345e6e05e788d7d8c09c9d7e7796d423560dff91f546f854caa82925b",
      "scriptpubkey_asm": "OP_PUSHNUM_1 OP_PUSHBYTES_32 72da502345e6e05e788d7d8c09c9d7e7796d423560dff91f546f854caa82925b",
      "scriptpubkey_type": "v1_p2tr",
      "scriptpubkey_address": "bc1pwtd9qg69ums9u7yd0kxqnjwhuauk6s34vr0lj865d7z5e25zjfdsh92s0m",
      "value": 2862
    },
    {
      "scriptpubkey": "5120dbd012149cef7907da4e26c76e49f7842fcf37820e519b97dafbd318a8442072",
      "scriptpubkey_asm": "OP_PUSHNUM_1 OP_PUSHBYTES_32 dbd012149cef7907da4e26c76e49f7842fcf37820e519b97dafbd318a8442072",
      "scriptpubkey_type": "v1_p2tr",
      "scriptpubkey_address": "bc1pm0gpy9yuaaus0kjwymrkuj0hsshu7duzpegeh976l0f332zyypeqe2elff",
      "value": 2862
    },
    {
      "scriptpubkey": "51208cb27b371d3bf0f1ef8549dd0d63a1dda017ee79ba976567ad0f4f3d3063416a",
      "scriptpubkey_asm": "OP_PUSHNUM_1 OP_PUSHBYTES_32 8cb27b371d3bf0f1ef8549dd0d63a1dda017ee79ba976567ad0f4f3d3063416a",
      "scriptpubkey_type": "v1_p2tr",
      "scriptpubkey_address": "bc1p3je8kdca80c0rmu9f8ws6capmksp0mneh2tk2eadpa8n6vrrg94q6w4wcx",
      "value": 2862
    },
    {
      "scriptpubkey": "51205491a52f8cd59a4bdebd066740b9e476febb64f7ab3fc76843db8918d89066cb",
      "scriptpubkey_asm": "OP_PUSHNUM_1 OP_PUSHBYTES_32 5491a52f8cd59a4bdebd066740b9e476febb64f7ab3fc76843db8918d89066cb",
      "scriptpubkey_type": "v1_p2tr",
      "scriptpubkey_address": "bc1p2jg62tuv6kdyhh4aqen5pw0ywmltke8h4vluw6zrmwy33kysvm9sre9m4q",
      "value": 2862
    },
    {
      "scriptpubkey": "51200e9828ab8499e6409864ad8adfea9f1f07fe14c817e298227ce335f9770e2b9b",
      "scriptpubkey_asm": "OP_PUSHNUM_1 OP_PUSHBYTES_32 0e9828ab8499e6409864ad8adfea9f1f07fe14c817e298227ce335f9770e2b9b",
      "scriptpubkey_type": "v1_p2tr",
      "scriptpubkey_address": "bc1pp6vz32uyn8nypxry4k9dl65lrurlu9xgzl3fsgnuuv6ljacw9wds979dq8",
      "value": 2862
    },
    {
      "scriptpubkey": "5120f142dcbce9c9aff52ca5c05281f6c505004f72ca2a1fe1f0865f8ad84b401a70",
      "scriptpubkey_asm": "OP_PUSHNUM_1 OP_PUSHBYTES_32 f142dcbce9c9aff52ca5c05281f6c505004f72ca2a1fe1f0865f8ad84b401a70",
      "scriptpubkey_type": "v1_p2tr",
      "scriptpubkey_address": "bc1p79pde08fexhl2t99cpfgrak9q5qy7uk29g07ruyxt79dsj6qrfcqz3m37w",
      "value": 2862
    },
    {
      "scriptpubkey": "512060f7773b835bec3c2dedf793ec587e136506dd9b2c5be83aded8b9d90807516d",
      "scriptpubkey_asm": "OP_PUSHNUM_1 OP_PUSHBYTES_32 60f7773b835bec3c2dedf793ec587e136506dd9b2c5be83aded8b9d90807516d",
      "scriptpubkey_type": "v1_p2tr",
      "scriptpubkey_address": "bc1pvrmhwwurt0krct0d77f7ckr7zdjsdhvm93d7swk7mzuajzq829kszgvhsy",
      "value": 2862
    },
    {
      "scriptpubkey": "5120753777784e892504c3cb77e58dc813ffed1bb73f242482dc8c6acd736a1bff3a",
      "scriptpubkey_asm": "OP_PUSHNUM_1 OP_PUSHBYTES_32 753777784e892504c3cb77e58dc813ffed1bb73f242482dc8c6acd736a1bff3a",
      "scriptpubkey_type": "v1_p2tr",
      "scriptpubkey_address": "bc1pw5mhw7zw3yjsfs7twljcmjqnllk3hdelysjg9hyvdtxhx6smluaqz43gdv",
      "value": 2862
    },
    {
      "scriptpubkey": "512072d10abebbc97d953bba702fa2bc5339d094b9e9756d3199dab543b2669efc4c",
      "scriptpubkey_asm": "OP_PUSHNUM_1 OP_PUSHBYTES_32 72d10abebbc97d953bba702fa2bc5339d094b9e9756d3199dab543b2669efc4c",
      "scriptpubkey_type": "v1_p2tr",
      "scriptpubkey_address": "bc1pwtgs404me97e2wa6wqh690zn88gffw0fw4knrxw6k4pmye57l3xqquvmy2",
      "value": 2862
    },
    {
      "scriptpubkey": "5120c522377a207e349eeb2e5d46c3b8edfad9fe6269e898c569bdeaee57a67f48b1",
      "scriptpubkey_asm": "OP_PUSHNUM_1 OP_PUSHBYTES_32 c522377a207e349eeb2e5d46c3b8edfad9fe6269e898c569bdeaee57a67f48b1",
      "scriptpubkey_type": "v1_p2tr",
      "scriptpubkey_address": "bc1pc53rw73q0c6fa6ewt4rv8w8dltvlucnfazvv26daath90fnlfzcsngwtds",
      "value": 2862
    },
    {
      "scriptpubkey": "001495572fcaefe54428116b0752fbf2de9589e067d3",
      "scriptpubkey_asm": "OP_0 OP_PUSHBYTES_20 95572fcaefe54428116b0752fbf2de9589e067d3",
      "scriptpubkey_type": "v0_p2wpkh",
      "scriptpubkey_address": "bc1qj4tjljh0u4zzsyttqaf0huk7jky7qe7nrsmk5d",
      "value": 53388
    }
  ],
  "size": 1593,
  "weight": 5193,
  "fee": 15588,
  "status": {
    "confirmed": true,
    "block_height": 834460,
    "block_hash": "00000000000000000000484a79b643b2524bbce82e5d8a442013fa5b8905ed98",
    "block_time": 1710307468
  },
  "hex": "02000000000101bd75c70c679c4f579fc3c5b48dc6dc76ce12b2f8f63bde8ab640121ca950f6740000000000fdffffff1b2202000000000000225120b9ab1dd92ac2b5a9e022f88287b35db4a00a84f8243045083b5ccea9e85dfb102e0b000000000000225120534c19991ca727a1547938fc560e5f01fb6bcd7f127c2d94b6fa62b94ac97bcf220b00000000000022512022738f6cd5f6c623d4bac3d0c04a739b7ad2bf02750781eab22bea099dc87ee7220b0000000000002251201e6bc0c9e79427bc67150805d7f2ff27c6725b4ff6461c9e347ad2851cfb4d09220b00000000000022512081bd79b34e6f883f65852802db9560d1a5c4fc4c917d0ba4d7fbeef1d32781be220b0000000000002251202d9843cd493fbc45346894f3abd7f16d05a9bf53d67321589f514b1f0c7a422c2e0b000000000000225120d4aade987f24b132083c15c4a3b8dcad99d20f5c0710567536472c4e5800dc89220b000000000000225120048d7b8f5bb6e7f234ff7ec5fe3ccf2304d3237449c0eacb6ac1e4f906046dc42e0b0000000000002251208c29fe0582e489c28ceac0191ccb4880b4ea9da6e80a8afdaeef841e110a60602e0b00000000000022512010ef07e2f9010f217ecfea01a3407e5ffe06f9b2c938bfd3b22c9d7449ac6c502e0b000000000000225120336affee877c617ee29e59a0e0e8e7729ddf085b7ab9ba2b2ee7b68c570831242e0b000000000000225120631debf5175241f4ebd24330e62f3405c6b32ede40d75c495c75eb3bd9eec0d52e0b0000000000002251209f704e0e73afe7482c5be1a15d1ea2b3852a111f781fc7ee417ec21de18fe34c2e0b000000000000225120a983b61a585556b9ca07451a259d55b88a734eb544c8f6c0b112e6409044ec132e0b0000000000002251205c26825da3f676a752c22e83fc784a3aac0b7d64d61de6f3f80f2c77a45e4348220b000000000000225120e9c1e441ae8b8d21fda1669a41836248c1e89587a6b0c1703926713664e19b422e0b00000000000022512072da502345e6e05e788d7d8c09c9d7e7796d423560dff91f546f854caa82925b2e0b000000000000225120dbd012149cef7907da4e26c76e49f7842fcf37820e519b97dafbd318a84420722e0b0000000000002251208cb27b371d3bf0f1ef8549dd0d63a1dda017ee79ba976567ad0f4f3d3063416a2e0b0000000000002251205491a52f8cd59a4bdebd066740b9e476febb64f7ab3fc76843db8918d89066cb2e0b0000000000002251200e9828ab8499e6409864ad8adfea9f1f07fe14c817e298227ce335f9770e2b9b2e0b000000000000225120f142dcbce9c9aff52ca5c05281f6c505004f72ca2a1fe1f0865f8ad84b401a702e0b00000000000022512060f7773b835bec3c2dedf793ec587e136506dd9b2c5be83aded8b9d90807516d2e0b000000000000225120753777784e892504c3cb77e58dc813ffed1bb73f242482dc8c6acd736a1bff3a2e0b00000000000022512072d10abebbc97d953bba702fa2bc5339d094b9e9756d3199dab543b2669efc4c2e0b000000000000225120c522377a207e349eeb2e5d46c3b8edfad9fe6269e898c569bdeaee57a67f48b18cd000000000000016001495572fcaefe54428116b0752fbf2de9589e067d3034067b1d2c7bcb6993a24d4c3217497c023bafa541fd93382dd0678da82fe284ca9bdee6c674491c198c13faed1567a5953420219d22d6c080f2c061cc97cb00cf4fd200120b8dda7a300cc73a1b480fc2f82396e9fa61106c9b746d584e176ebb9a0326d78ac0063036f726401011e6170706c69636174696f6e2f6a736f6e3b636861727365743d7574662d38004cd37b2270223a22706f772d3230222c226f70223a226d696e74222c227469636b223a2250455045222c22616d74223a2231303030222c22736f6c7574696f6e223a22504550453a62633170687834336d6b6632633236366e63707a6c7a7067307636616b6a73713470386379736379327a706d746e38326e367a616c7667713972663737363a303030303030303030303030303030303030303139393431613561653132383937363539383134343239323533333030353762306461393666336465613163353a3332303830373231383732227d6821c143aa8de0991fd4b61b82f8195f6c835bc5de941a82824922fffa09f24edd002200000000"
}