{
  "txid": "83c58937d81962c11ef39d84386438a80ec20b6f40eda53486f56c9c9a451d35",
  "version": 2,
  "locktime": 834637,
  "vin": [
    {
      "txid": "098613fb6ecf597581eaf7d9e9d7a5c65979c89a6b58f687b514b52a707e2304",
      "vout": 0,
      "prevout": {
        "scriptpubkey": "0014b093e87d19a795ea220481be7955c106cce098c2",
        "scriptpubkey_asm": "OP_0 OP_PUSHBYTES_20 b093e87d19a795ea220481be7955c106cce098c2",
        "scriptpubkey_type": "v0_p2wpkh",
        "scriptpubkey_address": "bc1qkzf7slge57275gsysxl8j4wpqmxwpxxz8nfu67",
        "value": 280435684
      },
      "scriptsig": "",
      "scriptsig_asm": "",
      "witness": [
        "304402206d7072c48e0c15010ba8762c9edd8ab1cc01c13d274f806ac0f1a793592f9b0b0220761a111cf5ab1448feae7fc4e528a07500c9b0ad7a2bfa76ff107304c155b70f01",
        "03285a9ceaabb15e988297fbefe54431d903e670d21dce51f49ac5d0de7d03de9d"
      ],
      "is_coinbase": false,
      "sequence": 4294967294
    }
  ],
  "vout": [
    {
      "scriptpubkey": "001426b066bac35022ac2e263827dcd924188556af71",
      "scriptpubkey_asm": "OP_0 OP_PUSHBYTES_20 26b066bac35022ac2e263827dcd924188556af71",
      "scriptpubkey_type": "v0_p2wpkh",
      "scriptpubkey_address": "bc1qy6cxdwkr2q32ct3x8qnaekfyrzz4dtm393ywv2",
      "value": 263907704
    },
    {
      "scriptpubkey": "a9146b6ea7ffbfe8ba353b0dd97f316465458cff882187",
      "scriptpubkey_asm": "OP_HASH160 OP_PUSHBYTES_20 6b6ea7ffbfe8ba353b0dd97f316465458cff8821 OP_EQUAL",
      "scriptpubkey_type": "p2sh",
      "scriptpubkey_address": "3BV4nbmwSrCX8L7LzYUQcJTFUdVcpupYsT",
      "value": 16524500
    }
  ],
  "size": 223,
  "weight": 565,
  "fee": 3480,
  "status": {
    "confirmed": true,
    "block_height": 834638,
    "block_hash": "000000000000000000025f742c626208ac87e0b7d15054abb4a19ca2d735a54e",
    "block_time": 1710405325
  },
  "hex": "0200000000010104237e702ab514b587f6586b9ac87959c6a5d7e9d9f7ea817559cf6efb1386090000000000feffffff0278e9ba0f0000000016001426b066bac35022ac2e263827dcd924188556af71d424fc000000000017a9146b6ea7ffbfe8ba353b0dd97f316465458cff8821870247304402206d7072c48e0c15010ba8762c9edd8ab1cc01c13d274f806ac0f1a793592f9b0b0220761a111cf5ab1448feae7fc4e528a07500c9b0ad7a2bfa76ff107304c155b70f012103285a9ceaabb15e988297fbefe54431d903e670d21dce51f49ac5d0de7d03de9d4dbc0c00"
}