{
  "txid": "83eca7e15818ee0d7ee40481736cfec306f904ec786c8523ccb45c95e4b526dc",
  "version": 2,
  "locktime": 0,
  "vin": [
    {
      "txid": "45db67f9ce75e75de08b377bbdb2425b234e6e93f61c1687f2c5ed2fc7b85766",
      "vout": 0,
      "prevout": {
        "scriptpubkey": "5120284391c7a6a1c8f8094ab30f3e321fb55a50edd7d8e63de749862efe5e3e5d7f",
        "scriptpubkey_asm": "OP_PUSHNUM_1 OP_PUSHBYTES_32 284391c7a6a1c8f8094ab30f3e321fb55a50edd7d8e63de749862efe5e3e5d7f",
        "scriptpubkey_type": "v1_p2tr",
        "scriptpubkey_address": "bc1p9pper3ax58y0sz22kv8nuvslk4d9pmwhmrnrme6fsch0uh37t4lspnzj79",
        "value": 47293
      },
      "scriptsig": "",
      "scriptsig_asm": "",
      "witness": [
        "2a82d8bf3f5775d700095ad0fe3aaf9dd3310c1595d32a2fd8f81d76917e2567e09c191eb3a81f3ea2f8628b56ed80dbd8c3e16fc0e440287d460719190464e6",
        "20f2d00e1cce0b839d2e197679cac7a15152ec244338032c7767f72c1332d49a65ac0063036f7264010109696d6167652f706e67004d080289504e470d0a1a0a0000000d4948445200000020000000200806000000737a7af4000002d94944415458c363601805c311fc3f63f39f58b54c945af6fb90f27f74fe9f6fcf19fe5c17fc4f8ca32876000b9724dc11ff1fdac12df9ff5a082e0e731436c088cbe077efde81350b090931e27300c8a720cbe016db49331c9378c360f5428481f5cc3f0698c58ca2ef189835de41d8408037044096832c0661101be618acf10db43c525d0fce87590ea2ff725f058b81e441ea18a1e03f10e00d0198039043015f88808218ecc3afda0cb8829ac5f60edcf72007208702ce2880598a8b8d3354a0001f1b6f0828ca42128ff38f6486bd1c73c162720a720c8f1e3c6280898340907a2ac144ba4ead8a21e8561b9cef754414c54e1662533b1b1b1b4135d5efbde0ec56c16d609a8b9b1345ce50dbf4fff9aba719a9960db1590e03dbf49a183cced76295233904e42fd933fcd2f8058f066490fdd0024c4f953f0117db61d8cce075be0e438eec28000190e52a6a2a0c0c9718186e6bec6658a77a1f9226d49c18383838c0e2309f832c07019f0913c1f476869310c9230442404850086f0abf73eb0e38241204f6333872ed078bb57c4b65f8f1e3078acf61e0485d2398f69e3787705dc0c5c5455425a27ac3154cf7fccb05e31aaed9f0140f8a73928a7264ceb76fdf1839d83988aec94a9826c343009c2d91b21b3ad89a94425c6df8eefd3b46624d0a011d801e0264556694643d5808801cc1c0f083be0e58f0c191e1acac0e34f1fd80e4027a3a009410bdfe132e8a612522bc286610a56e8384528037c181ca047e1e4130fbfee3bb8cc815158c8f4b1d2eb514458146a4c0ffff7fdf32b0703232683308fe97d516671093156460fcc5c2f09fed0fc3e1b25778f5af368ffc1f7a7239e3d3c48effc7ae5d6400b119a9199cb95b3dff7f7af305ec187e3e01b0d864efed703b4016333a5730483a02835e1a12fa8cb48cdff885b6ff618ef9f8e903c3cca3310c371d1632e88b9f62f8b1722a03e7946c46ba27ba674b800da3a70cff41a141f75c004a03fff77680831f940646c1a000007cbd6781e94544b90000000049454e44ae426082680063036f726401011e6170706c69636174696f6e2f6a736f6e3b636861727365743d7574662d38004d5d017b2270223a22766f7264222c2276223a312c227479223a22696e7363222c22636f6c223a2239376335383839396131316637303165373539656134666463643735623131343330343031313434653965623835336461623063646163346361336466353537222c22696964223a22426c6f636b42656573222c227075626c223a2231455337623370636a527a4667796969714c7278484b546e43686535364c4a485937222c226e6f6e6365223a313131302c226d696e746572223a2262633170753638343632737437386d64736475756c6b65796a6e716a6c676337387473687775393330306a3979323437786a6a3830796c7175796e6d706e222c22736967223a224849446150777941577945553576666e54653132416d4c3463677334483658376435624f5a4a586e6862354d6650646172796a5672676c3776636339624c5a654f5578386e6b56774d785a6741496151597730794431593d227d68",
        "c0f2d00e1cce0b839d2e197679cac7a15152ec244338032c7767f72c1332d49a65675a92934efa5e4869b2432a3e00abfc6819367af43949c2edc693b32d23ac05"
      ],
      "is_coinbase": false,
      "sequence": 4294967293
    }
  ],
  "vout": [
    {
      "scriptpubkey": "5120e68f5d2a0bf1f6d8379cfdb2494c12fa31e3ae17770b17be4522abe34a47793e",
      "scriptpubkey_asm": "OP_PUSHNUM_1 OP_PUSHBYTES_32 e68f5d2a0bf1f6d8379cfdb2494c12fa31e3ae17770b17be4522abe34a47793e",
      "scriptpubkey_type": "v1_p2tr",
      "scriptpubkey_address": "bc1pu68462st78mdsduulkeyjnqjlgc78tshwu9300j9y247xjj80ylquynmpn",
      "value": 1000
    },
    {
      "scriptpubkey": "a91436ef2050189c78f7cf99dea805ed1afc0b49d24787",
      "scriptpubkey_asm": "OP_HASH160 OP_PUSHBYTES_20 36ef2050189c78f7cf99dea805ed1afc0b49d247 OP_EQUAL",
      "scriptpubkey_type": "p2sh",
      "scriptpubkey_address": "36hUsgcXCY2fBJSGrRjUHxgPbg3yaDoFJd",
      "value": 37730
    },
    {
      "scriptpubkey": "51200705a5767db892e98125775049b1a13dd9ecdc8aea0df413cabbee683e871012",
      "scriptpubkey_asm": "OP_PUSHNUM_1 OP_PUSHBYTES_32 0705a5767db892e98125775049b1a13dd9ecdc8aea0df413cabbee683e871012",
      "scriptpubkey_type": "v1_p2tr",
      "scriptpubkey_address": "bc1pquz62anahzfwnqf9wagynvdp8hv7ehy2agxlgy72h0hxs058zqfqk8ksyq",
      "value": 2920
    }
  ],
  "size": 1545,
  "weight": 2052,
  "fee": 5643,
  "status": {
    "confirmed": true,
    "block_height": 834464,
    "block_hash": "0000000000000000000177a0869a911a2b65c9bdcd5a8bcb02b68f305bee848e",
    "block_time": 1710308296
  },
  "hex": "020000000001016657b8c72fedc5f287161cf6936e4e235b42b2bd7b378be05de775cef967db450000000000fdffffff03e803000000000000225120e68f5d2a0bf1f6d8379cfdb2494c12fa31e3ae17770b17be4522abe34a47793e629300000000000017a91436ef2050189c78f7cf99dea805ed1afc0b49d24787680b0000000000002251200705a5767db892e98125775049b1a13dd9ecdc8aea0df413cabbee683e87101203402a82d8bf3f5775d700095ad0fe3aaf9dd3310c1595d32a2fd8f81d76917e2567e09c191eb3a81f3ea2f8628b56ed80dbd8c3e16fc0e440287d460719190464e6fdd70420f2d00e1cce0b839d2e197679cac7a15152ec244338032c7767f72c1332d49a65ac0063036f7264010109696d6167652f706e67004d080289504e470d0a1a0a0000000d4948445200000020000000200806000000737a7af4000002d94944415458c363601805c311fc3f63f39f58b54c945af6fb90f27f74fe9f6fcf19fe5c17fc4f8ca32876000b9724dc11ff1fdac12df9ff5a082e0e731436c088cbe077efde81350b090931e27300c8a720cbe016db49331c9378c360f5428481f5cc3f0698c58ca2ef189835de41d8408037044096832c0661101be618acf10db43c525d0fce87590ea2ff725f058b81e441ea18a1e03f10e00d0198039043015f88808218ecc3afda0cb8829ac5f60edcf72007208702ce2880598a8b8d3354a0001f1b6f0828ca42128ff38f6486bd1c73c162720a720c8f1e3c6280898340907a2ac144ba4ead8a21e8561b9cef754414c54e1662533b1b1b1b4135d5efbde0ec56c16d609a8b9b1345ce50dbf4fff9aba719a9960db1590e03dbf49a183cced76295233904e42fd933fcd2f8058f066490fdd0024c4f953f0117db61d8cce075be0e438eec28000190e52a6a2a0c0c9718186e6bec6658a77a1f9226d49c18383838c0e2309f832c07019f0913c1f476869310c9230442404850086f0abf73eb0e38241204f6333872ed078bb57c4b65f8f1e3078acf61e0485d2398f69e3787705dc0c5c5455425a27ac3154cf7fccb05e31aaed9f0140f8a73928a7264ceb76fdf1839d83988aec94a9826c343009c2d91b21b3ad89a94425c6df8eefd3b46624d0a011d801e0264556694643d5808801cc1c0f083be0e58f0c191e1acac0e34f1fd80e4027a3a009410bdfe132e8a612522bc286610a56e8384528037c181ca047e1e4130fbfee3bb8cc815158c8f4b1d2eb514458146a4c0ffff7fdf32b0703232683308fe97d516671093156460fcc5c2f09fed0fc3e1b25778f5af368ffc1f7a7239e3d3c48effc7ae5d6400b119a9199cb95b3dff7f7af305ec187e3e01b0d864efed703b4016333a5730483a02835e1a12fa8cb48cdff885b6ff618ef9f8e903c3cca3310c371d1632e88b9f62f8b1722a03e7946c46ba27ba674b800da3a70cff41a141f75c004a03fff77680831f940646c1a000007cbd6781e94544b90000000049454e44ae426082680063036f726401011e6170706c69636174696f6e2f6a736f6e3b636861727365743d7574662d38004d5d017b2270223a22766f7264222c2276223a312c227479223a22696e7363222c22636f6c223a2239376335383839396131316637303165373539656134666463643735623131343330343031313434653965623835336461623063646163346361336466353537222c22696964223a22426c6f636b42656573222c227075626c223a2231455337623370636a527a4667796969714c7278484b546e43686535364c4a485937222c226e6f6e6365223a313131302c226d696e746572223a2262633170753638343632737437386d64736475756c6b65796a6e716a6c676337387473687775393330306a3979323437786a6a3830796c7175796e6d706e222c22736967223a224849446150777941577945553576666e54653132416d4c3463677334483658376435624f5a4a586e6862354d6650646172796a5672676c3776636339624c5a654f5578386e6b56774d785a6741496151597730794431593d227d6841c0f2d00e1cce0b839d2e197679cac7a15152ec244338032c7767f72c1332d49a65675a92934efa5e4869b2432a3e00abfc6819367af43949c2edc693b32d23ac0500000000"
}