{
  "txid": "83ed294f10065db0a646ff4029e965c1b6314a5a627406e4d17e006e9766406a",
  "version": 2,
  "locktime": 0,
  "vin": [
    {
      "txid": "bd349b15a4265e05ada5b1141ea34e76a8f6c0a75bf8b584f10c33764ce70ecd",
      "vout": 3,
      "prevout": {
        "scriptpubkey": "00148e8054f239330c9d98e0dd5044434fbca4ad957b",
        "scriptpubkey_asm": "OP_0 OP_PUSHBYTES_20 8e8054f239330c9d98e0dd5044434fbca4ad957b",
        "scriptpubkey_type": "v0_p2wpkh",
        "scriptpubkey_address": "bc1q36q9fu3exvxfmx8qm4gygs60hjj2m9tmnszpz7",
        "value": 36928542
      },
      "scriptsig": "",
      "scriptsig_asm": "",
      "witness": [
        "304402200dcdbbd70c0b55fab77b6660fa2a370be4ab344c8ec2112fef964a48dee8a7c2022062bdf12d707e3cc407d5c2065e98e623b22e822e17b10e3d7ca23dd8ba42066601",
        "031786e7b0075ddd81839e9061e6c049564644b811a20c76b2b01b49861587ff95"
      ],
      "is_coinbase": false,
      "sequence": 4294967295
    }
  ],
  "vout": [
    {
      "scriptpubkey": "0014d6db177607af59cc97fbf74ce3281d7816979845",
      "scriptpubkey_asm": "OP_0 OP_PUSHBYTES_20 d6db177607af59cc97fbf74ce3281d7816979845",
      "scriptpubkey_type": "v0_p2wpkh",
      "scriptpubkey_address": "bc1q6md3was84avue9lm7axwx2qa0qtf0xz94te2d2",
      "value": 101543
    },
    {
      "scriptpubkey": "00146e15b04c0c79e27e6306d7173fff910399b98e69",
      "scriptpubkey_asm": "OP_0 OP_PUSHBYTES_20 6e15b04c0c79e27e6306d7173fff910399b98e69",
      "scriptpubkey_type": "v0_p2wpkh",
      "scriptpubkey_address": "bc1qdc2mqnqv0838uccx6utnllu3qwvmnrnfn8q5pj",
      "value": 120965
    },
    {
      "scriptpubkey": "76a91444604aaeff2d64b50b7900aee46708316810d78188ac",
      "scriptpubkey_asm": "OP_DUP OP_HASH160 OP_PUSHBYTES_20 44604aaeff2d64b50b7900aee46708316810d781 OP_EQUALVERIFY OP_CHECKSIG",
      "scriptpubkey_type": "p2pkh",
      "scriptpubkey_address": "17EYJWfBidp9AfKMALMbatouhcLuuW5H5z",
      "value": 1000000
    },
    {
      "scriptpubkey": "00207ca7d1cc8abb427e670c982c521c2249954831ab8df1a21335dab431139b42f0",
      "scriptpubkey_asm": "OP_0 OP_PUSHBYTES_32 7ca7d1cc8abb427e670c982c521c2249954831ab8df1a21335dab431139b42f0",
      "scriptpubkey_type": "v0_p2wsh",
      "scriptpubkey_address": "bc1q0jnarny2hdp8uecvnqk9y8pzfx25svdt3hc6yye4m26rzyumgtcqxpaxz6",
      "value": 2644639
    },
    {
      "scriptpubkey": "0014f6de76e896c928ed1ee927013006ff74ee0ea8d6",
      "scriptpubkey_asm": "OP_0 OP_PUSHBYTES_20 f6de76e896c928ed1ee927013006ff74ee0ea8d6",
      "scriptpubkey_type": "v0_p2wpkh",
      "scriptpubkey_address": "bc1q7m08d6ykey5w68hfyuqnqphlwnhqa2xkaz69ft",
      "value": 33057411
    }
  ],
  "size": 330,
  "weight": 993,
  "fee": 3984,
  "status": {
    "confirmed": true,
    "block_height": 834638,
    "block_hash": "000000000000000000025f742c626208ac87e0b7d15054abb4a19ca2d735a54e",
    "block_time": 1710405325
  },
  "hex": "02000000000101cd0ee74c76330cf184b5f85ba7c0f6a8764ea31e14b1a5ad055e26a4159b34bd0300000000ffffffff05a78c010000000000160014d6db177607af59cc97fbf74ce3281d781697984585d80100000000001600146e15b04c0c79e27e6306d7173fff910399b98e6940420f00000000001976a91444604aaeff2d64b50b7900aee46708316810d78188ac9f5a2800000000002200207ca7d1cc8abb427e670c982c521c2249954831ab8df1a21335dab431139b42f0836af80100000000160014f6de76e896c928ed1ee927013006ff74ee0ea8d60247304402200dcdbbd70c0b55fab77b6660fa2a370be4ab344c8ec2112fef964a48dee8a7c2022062bdf12d707e3cc407d5c2065e98e623b22e822e17b10e3d7ca23dd8ba4206660121031786e7b0075ddd81839e9061e6c049564644b811a20c76b2b01b49861587ff9500000000"
}