{
  "txid": "83ed96125a09c6a44132a796bde8b7cfd1b7a2570115afba3b8ee9bb1b5311c7",
  "version": 1,
  "locktime": 0,
  "vin": [
    {
      "txid": "96173f558bde9ee194236c31719f87e5bbb7b97942c786fc0b9eed8a608412aa",
      "vout": 145,
      "prevout": {
        "scriptpubkey": "76a914a46b93ec343e993f0ad376bd60b336e32ac4ad4b88ac",
        "scriptpubkey_asm": "OP_DUP OP_HASH160 OP_PUSHBYTES_20 a46b93ec343e993f0ad376bd60b336e32ac4ad4b OP_EQUALVERIFY OP_CHECKSIG",
        "scriptpubkey_type": "p2pkh",
        "scriptpubkey_address": "1FzNh6huLwT3u1gpHk7ADpfxTHGgpgUtaT",
        "value": 916632
      },
      "scriptsig": "483045022100e746d6cc9b404ca4adb8f8a75632b9c4c38e759a4407f6f052e01bf7bf7d6fe902202551ab524051d45fcde560af3b70a5bcb3e9f0d80d3f1ebfaf3c45665875ad490121032f3551defafdaa73c963821b84466df90a18d6a9710e014b7109ee262a635653",
      "scriptsig_asm": "OP_PUSHBYTES_72 3045022100e746d6cc9b404ca4adb8f8a75632b9c4c38e759a4407f6f052e01bf7bf7d6fe902202551ab524051d45fcde560af3b70a5bcb3e9f0d80d3f1ebfaf3c45665875ad4901 OP_PUSHBYTES_33 032f3551defafdaa73c963821b84466df90a18d6a9710e014b7109ee262a635653",
      "is_coinbase": false,
      "sequence": 4294967295
    }
  ],
  "vout": [
    {
      "scriptpubkey": "a91483a39964f5ce6892276e0bb1aabcb5123e7a577087",
      "scriptpubkey_asm": "OP_HASH160 OP_PUSHBYTES_20 83a39964f5ce6892276e0bb1aabcb5123e7a5770 OP_EQUAL",
      "scriptpubkey_type": "p2sh",
      "scriptpubkey_address": "3Dh4RkATts9DrCMbJj5ZbZjsKpeBnqNdAS",
      "value": 272163
    },
    {
      "scriptpubkey": "76a914112047567af25e6bde099b33e6551e97d93f0b8c88ac",
      "scriptpubkey_asm": "OP_DUP OP_HASH160 OP_PUSHBYTES_20 112047567af25e6bde099b33e6551e97d93f0b8c OP_EQUALVERIFY OP_CHECKSIG",
      "scriptpubkey_type": "p2pkh",
      "scriptpubkey_address": "12ZZA2GtQWoQLsSwXH5umH5k5XMtTuJHzR",
      "value": 635285
    }
  ],
  "size": 224,
  "weight": 896,
  "fee": 9184,
  "status": {
    "confirmed": true,
    "block_height": 834638,
    "block_hash": "000000000000000000025f742c626208ac87e0b7d15054abb4a19ca2d735a54e",
    "block_time": 1710405325
  },
  "hex": "0100000001aa1284608aed9e0bfc86c74279b9b7bbe5879f71316c2394e19ede8b553f1796910000006b483045022100e746d6cc9b404ca4adb8f8a75632b9c4c38e759a4407f6f052e01bf7bf7d6fe902202551ab524051d45fcde560af3b70a5bcb3e9f0d80d3f1ebfaf3c45665875ad490121032f3551defafdaa73c963821b84466df90a18d6a9710e014b7109ee262a635653ffffffff02232704000000000017a91483a39964f5ce6892276e0bb1aabcb5123e7a57708795b10900000000001976a914112047567af25e6bde099b33e6551e97d93f0b8c88ac00000000"
}