{
  "txid": "83ed46d4a973f050cf9a1fd62b25f58b5bf17d88e2eccfb6223753a44e6a60b2",
  "version": 1,
  "locktime": 0,
  "vin": [
    {
      "txid": "3c66867ab50e86998e90e314f9a5f9a706fc7d4cbabba0233d0c7d762d3a5253",
      "vout": 0,
      "prevout": {
        "scriptpubkey": "0014ef866281e247060e162fbe26b8289bb1785ce123",
        "scriptpubkey_asm": "OP_0 OP_PUSHBYTES_20 ef866281e247060e162fbe26b8289bb1785ce123",
        "scriptpubkey_type": "v0_p2wpkh",
        "scriptpubkey_address": "bc1qa7rx9q0zgurqu930hcnts2ymk9u9ecfrjr0rke",
        "value": 91303
      },
      "scriptsig": "",
      "scriptsig_asm": "",
      "witness": [
        "30440220651663e3df2af51c1742a5ba057eb66405d0e6256b0d6342ac8634c768dd754e022019d0f139278e093b54cc80b6254ba06fa0803be635ef25bf5a4361bef120c29801",
        "03ae4f3cbf705d04675b4be1c1c73e75366f2259ee007e8ee9cca5e925deac0ddf"
      ],
      "is_coinbase": false,
      "sequence": 4294967295
    }
  ],
  "vout": [
    {
      "scriptpubkey": "00143e64128e7b1cec4c24cb7be0edd5a0e754c0324f",
      "scriptpubkey_asm": "OP_0 OP_PUSHBYTES_20 3e64128e7b1cec4c24cb7be0edd5a0e754c0324f",
      "scriptpubkey_type": "v0_p2wpkh",
      "scriptpubkey_address": "bc1q8ejp9rnmrnkycfxt00swm4dqua2vqvj0e6wr99",
      "value": 88333
    }
  ],
  "size": 191,
  "weight": 437,
  "fee": 2970,
  "status": {
    "confirmed": true,
    "block_height": 834552,
    "block_hash": "00000000000000000001dd0468a70c94f619251d286585cff57aeb4bd9ede330",
    "block_time": 1710355598
  },
  "hex": "0100000000010153523a2d767d0c3d23a0bbba4c7dfc06a7f9a5f914e3908e99860eb57a86663c0000000000ffffffff010d590100000000001600143e64128e7b1cec4c24cb7be0edd5a0e754c0324f024730440220651663e3df2af51c1742a5ba057eb66405d0e6256b0d6342ac8634c768dd754e022019d0f139278e093b54cc80b6254ba06fa0803be635ef25bf5a4361bef120c298012103ae4f3cbf705d04675b4be1c1c73e75366f2259ee007e8ee9cca5e925deac0ddf00000000"
}