{
  "txid": "8408d865d9e135889f0758a62220b6b85c3d93fc7f18becdb1acc6f377224864",
  "version": 2,
  "locktime": 0,
  "vin": [
    {
      "txid": "8486ecb4df0880316dd6e82b3971b4df187aff23765bc3a47f8d78bb53aa273c",
      "vout": 101,
      "prevout": {
        "scriptpubkey": "51207f3ff181a1536834186b3bec2c62e40735875e8c982cb6b66c8c85f88ec1ccf9",
        "scriptpubkey_asm": "OP_PUSHNUM_1 OP_PUSHBYTES_32 7f3ff181a1536834186b3bec2c62e40735875e8c982cb6b66c8c85f88ec1ccf9",
        "scriptpubkey_type": "v1_p2tr",
        "scriptpubkey_address": "bc1p0ullrqdp2d5rgxrt80kzcchyqu6cwh5vnqktddnv3jzl3rkpenusq8q4va",
        "value": 2575
      },
      "scriptsig": "",
      "scriptsig_asm": "",
      "witness": [
        "32e3e3ae88445ede1cb23906313ab9e3fb2250fa8738ba417131db47331531131ee020d819fdbd7718d350450b40186578b65d5d17d48add58bf4811a6f11a65",
        "20d1dd10b05cf78a8abf891b51feb68da19042e08b5fb2737bf61098344823229cac0063036f726401010a746578742f706c61696e00367b2270223a226272632d3230222c226f70223a226d696e74222c227469636b223a2261616161222c22616d74223a223130303030227d68",
        "c1d1dd10b05cf78a8abf891b51feb68da19042e08b5fb2737bf61098344823229c"
      ],
      "is_coinbase": false,
      "sequence": 4261412863
    }
  ],
  "vout": [
    {
      "scriptpubkey": "0014ddd7ef12ea6f78edcc1e8e7afa12c01ab59f3339",
      "scriptpubkey_asm": "OP_0 OP_PUSHBYTES_20 ddd7ef12ea6f78edcc1e8e7afa12c01ab59f3339",
      "scriptpubkey_type": "v0_p2wpkh",
      "scriptpubkey_address": "bc1qmht77yh2dauwmnq73ea05ykqr26e7veea8spz6",
      "value": 546
    }
  ],
  "size": 295,
  "weight": 541,
  "fee": 2029,
  "status": {
    "confirmed": true,
    "block_height": 834460,
    "block_hash": "00000000000000000000484a79b643b2524bbce82e5d8a442013fa5b8905ed98",
    "block_time": 1710307468
  },
  "hex": "020000000001013c27aa53bb788d7fa4c35b7623ff7a18dfb471392be8d66d318008dfb4ec86846500000000fffffffd012202000000000000160014ddd7ef12ea6f78edcc1e8e7afa12c01ab59f3339034032e3e3ae88445ede1cb23906313ab9e3fb2250fa8738ba417131db47331531131ee020d819fdbd7718d350450b40186578b65d5d17d48add58bf4811a6f11a656e20d1dd10b05cf78a8abf891b51feb68da19042e08b5fb2737bf61098344823229cac0063036f726401010a746578742f706c61696e00367b2270223a226272632d3230222c226f70223a226d696e74222c227469636b223a2261616161222c22616d74223a223130303030227d6821c1d1dd10b05cf78a8abf891b51feb68da19042e08b5fb2737bf61098344823229c00000000"
}