{
  "txid": "84201fc071fe4e6cb27e0b23e03592206caa6d7ed04d92110d33b25ecbdb2135",
  "version": 2,
  "locktime": 834432,
  "vin": [
    {
      "txid": "4f9643d6e77cf4820ffa557ec75d346854826a147f1a5aeae71afb3d42f99bc9",
      "vout": 1,
      "prevout": {
        "scriptpubkey": "001402629a3659b1ab44ca3ab49c5da4d05eebc94f5d",
        "scriptpubkey_asm": "OP_0 OP_PUSHBYTES_20 02629a3659b1ab44ca3ab49c5da4d05eebc94f5d",
        "scriptpubkey_type": "v0_p2wpkh",
        "scriptpubkey_address": "bc1qqf3f5djekx45fj36kjw9mfxstm4ujn6ay2cvku",
        "value": 419417
      },
      "scriptsig": "",
      "scriptsig_asm": "",
      "witness": [
        "304402204946f57666c9b9c580e6c57da2efe8962a30032725a6bda1912295b7ed733dfa02201482495a7d624c813dfc745748fd96aa3cec5dc298a1d0e8259d4ab74170ac1201",
        "03a59b641ba57ed209ac535341a5542ff5a5763b35ec4135ee25cbe1f509c53ae9"
      ],
      "is_coinbase": false,
      "sequence": 4294967293
    }
  ],
  "vout": [
    {
      "scriptpubkey": "001465feb1fc6b9d4f141be233d5c712fd5881b28090",
      "scriptpubkey_asm": "OP_0 OP_PUSHBYTES_20 65feb1fc6b9d4f141be233d5c712fd5881b28090",
      "scriptpubkey_type": "v0_p2wpkh",
      "scriptpubkey_address": "bc1qvhltrlrtn483gxlzx02uwyhatzqm9qysnxpv8v",
      "value": 418218
    }
  ],
  "size": 191,
  "weight": 437,
  "fee": 1199,
  "status": {
    "confirmed": true,
    "block_height": 834464,
    "block_hash": "0000000000000000000177a0869a911a2b65c9bdcd5a8bcb02b68f305bee848e",
    "block_time": 1710308296
  },
  "hex": "02000000000101c99bf9423dfb1ae7ea5a1a7f146a825468345dc77e55fa0f82f47ce7d643964f0100000000fdffffff01aa6106000000000016001465feb1fc6b9d4f141be233d5c712fd5881b280900247304402204946f57666c9b9c580e6c57da2efe8962a30032725a6bda1912295b7ed733dfa02201482495a7d624c813dfc745748fd96aa3cec5dc298a1d0e8259d4ab74170ac12012103a59b641ba57ed209ac535341a5542ff5a5763b35ec4135ee25cbe1f509c53ae980bb0c00"
}