{
  "txid": "8440c504ef7bf0273f4476335f218b44e0f32c5b49c27e84fff3ca399635e1b8",
  "version": 1,
  "locktime": 0,
  "vin": [
    {
      "txid": "a466008318e0de4520190c67faac23844849d93193fc54f98069a6afa1cee925",
      "vout": 1,
      "prevout": {
        "scriptpubkey": "0014e8fb8a084ffbcb655548dee6b3b43bac3b1db7f7",
        "scriptpubkey_asm": "OP_0 OP_PUSHBYTES_20 e8fb8a084ffbcb655548dee6b3b43bac3b1db7f7",
        "scriptpubkey_type": "v0_p2wpkh",
        "scriptpubkey_address": "bc1qarac5zz0l09k242gmmnt8dpm4sa3mdlhrrnpp4",
        "value": 375069
      },
      "scriptsig": "",
      "scriptsig_asm": "",
      "witness": [
        "3044022043c9922f24dbb94613188026de40554cb16e59f25723a6e0c81989605dcd328b0220553191a3c8b3df23ae2f33d3ffb635b50468d1ee70905ad589410c0ca5ac64c101",
        "037a87182dc277434d11118e91d83b2dcf5dbebca18d441138e067c9e6707d2ac4"
      ],
      "is_coinbase": false,
      "sequence": 4294967295
    }
  ],
  "vout": [
    {
      "scriptpubkey": "76a914669c14949477f8cb012c49dd9519a864d842c00688ac",
      "scriptpubkey_asm": "OP_DUP OP_HASH160 OP_PUSHBYTES_20 669c14949477f8cb012c49dd9519a864d842c006 OP_EQUALVERIFY OP_CHECKSIG",
      "scriptpubkey_type": "p2pkh",
      "scriptpubkey_address": "1AMYuDuPNPJwA6UQzh4EeKcxNk3y3dDHyM",
      "value": 68000
    },
    {
      "scriptpubkey": "001483666c8d7ce96825ace174097501572d9c632141",
      "scriptpubkey_asm": "OP_0 OP_PUSHBYTES_20 83666c8d7ce96825ace174097501572d9c632141",
      "scriptpubkey_type": "v0_p2wpkh",
      "scriptpubkey_address": "bc1qsdnxertua95ztt8pwsyh2q2h9kwxxg2pdj3sut",
      "value": 304927
    }
  ],
  "size": 225,
  "weight": 573,
  "fee": 2142,
  "status": {
    "confirmed": true,
    "block_height": 834638,
    "block_hash": "000000000000000000025f742c626208ac87e0b7d15054abb4a19ca2d735a54e",
    "block_time": 1710405325
  },
  "hex": "0100000000010125e9cea1afa66980f954fc9331d949488423acfa670c192045dee018830066a40100000000ffffffff02a0090100000000001976a914669c14949477f8cb012c49dd9519a864d842c00688ac1fa704000000000016001483666c8d7ce96825ace174097501572d9c63214102473044022043c9922f24dbb94613188026de40554cb16e59f25723a6e0c81989605dcd328b0220553191a3c8b3df23ae2f33d3ffb635b50468d1ee70905ad589410c0ca5ac64c10121037a87182dc277434d11118e91d83b2dcf5dbebca18d441138e067c9e6707d2ac400000000"
}