{
  "txid": "84417a1ab812f5d1ade9c24877c20b36c9a8ae5806643c9da7c6a9fde0781072",
  "version": 2,
  "locktime": 0,
  "vin": [
    {
      "txid": "b13bb5512a4904c28a6b7957b88edf574e8cb23551fc1dcfe22d6b239df42cf4",
      "vout": 63,
      "prevout": {
        "scriptpubkey": "5120f820e6fa190bc07598d31b5cbfe59e240600babf4a28b07944f4843fac0c4240",
        "scriptpubkey_asm": "OP_PUSHNUM_1 OP_PUSHBYTES_32 f820e6fa190bc07598d31b5cbfe59e240600babf4a28b07944f4843fac0c4240",
        "scriptpubkey_type": "v1_p2tr",
        "scriptpubkey_address": "bc1plqswd7sep0q8txxnrdwtlev7ysrqpw4lfg5tq72y7jzrltqvgfqq2u5xgy",
        "value": 2575
      },
      "scriptsig": "",
      "scriptsig_asm": "",
      "witness": [
        "d2decf23095d10f6586bbb9578d11ab4e978118be16adfafbc322a1ce4aaece74249f8c93a3ee9a75deb6057b98237f5b6989decec84ced56d933e1ccecec415",
        "2044c7126fadb36573a41a3ff910354dc8c033c7a8bcc19160dd7deaa83c563d98ac0063036f726401010a746578742f706c61696e00367b2270223a226272632d3230222c226f70223a226d696e74222c227469636b223a2261616161222c22616d74223a223130303030227d68",
        "c144c7126fadb36573a41a3ff910354dc8c033c7a8bcc19160dd7deaa83c563d98"
      ],
      "is_coinbase": false,
      "sequence": 4261412863
    }
  ],
  "vout": [
    {
      "scriptpubkey": "0014ce0b5aa0dac72397a8aa5a85d90a2cfb46f0f630",
      "scriptpubkey_asm": "OP_0 OP_PUSHBYTES_20 ce0b5aa0dac72397a8aa5a85d90a2cfb46f0f630",
      "scriptpubkey_type": "v0_p2wpkh",
      "scriptpubkey_address": "bc1qec944gx6cu3e0292t2zajz3vldr0pa3sh356d9",
      "value": 546
    }
  ],
  "size": 295,
  "weight": 541,
  "fee": 2029,
  "status": {
    "confirmed": true,
    "block_height": 834464,
    "block_hash": "0000000000000000000177a0869a911a2b65c9bdcd5a8bcb02b68f305bee848e",
    "block_time": 1710308296
  },
  "hex": "02000000000101f42cf49d236b2de2cf1dfc5135b28c4e57df8eb857796b8ac204492a51b53bb13f00000000fffffffd012202000000000000160014ce0b5aa0dac72397a8aa5a85d90a2cfb46f0f6300340d2decf23095d10f6586bbb9578d11ab4e978118be16adfafbc322a1ce4aaece74249f8c93a3ee9a75deb6057b98237f5b6989decec84ced56d933e1ccecec4156e2044c7126fadb36573a41a3ff910354dc8c033c7a8bcc19160dd7deaa83c563d98ac0063036f726401010a746578742f706c61696e00367b2270223a226272632d3230222c226f70223a226d696e74222c227469636b223a2261616161222c22616d74223a223130303030227d6821c144c7126fadb36573a41a3ff910354dc8c033c7a8bcc19160dd7deaa83c563d9800000000"
}