{
  "txid": "844180c0a4f8625627a583a4eecf22bca9fca008b9e6ec8e22fb01b677de87d8",
  "version": 2,
  "locktime": 0,
  "vin": [
    {
      "txid": "96b15da74aa86e8993ed0512bcc901d58ad37f961691131e910c129770699cdc",
      "vout": 1,
      "prevout": {
        "scriptpubkey": "0014a051700116e42b67441d8af731c9f8425e5fb465",
        "scriptpubkey_asm": "OP_0 OP_PUSHBYTES_20 a051700116e42b67441d8af731c9f8425e5fb465",
        "scriptpubkey_type": "v0_p2wpkh",
        "scriptpubkey_address": "bc1q5pghqqgkus4kw3qa3tmnrj0cgf09ldr9ynwumz",
        "value": 4626260
      },
      "scriptsig": "",
      "scriptsig_asm": "",
      "witness": [
        "304402206b364122fb0ac02a576712eb3d1d8e8ecf44bea3093dd696172261f5f9bf88ba02200526418413b8170d5f72504a71048c4605cf49fa93242b70728401603a9942dc01",
        "020702d4ccdc4699ca93ad0d43eaf8bcd313ef260ce5bf248dcf06ad2358f8101e"
      ],
      "is_coinbase": false,
      "sequence": 4294967295
    }
  ],
  "vout": [
    {
      "scriptpubkey": "0014bf3c19bc60efa590a92119054519b9fc6577e7da",
      "scriptpubkey_asm": "OP_0 OP_PUSHBYTES_20 bf3c19bc60efa590a92119054519b9fc6577e7da",
      "scriptpubkey_type": "v0_p2wpkh",
      "scriptpubkey_address": "bc1qhu7pn0rqa7jep2fpryz52xdel3jh0e76adwkhk",
      "value": 2000000
    },
    {
      "scriptpubkey": "0014a051700116e42b67441d8af731c9f8425e5fb465",
      "scriptpubkey_asm": "OP_0 OP_PUSHBYTES_20 a051700116e42b67441d8af731c9f8425e5fb465",
      "scriptpubkey_type": "v0_p2wpkh",
      "scriptpubkey_address": "bc1q5pghqqgkus4kw3qa3tmnrj0cgf09ldr9ynwumz",
      "value": 2623440
    }
  ],
  "size": 222,
  "weight": 561,
  "fee": 2820,
  "status": {
    "confirmed": true,
    "block_height": 834638,
    "block_hash": "000000000000000000025f742c626208ac87e0b7d15054abb4a19ca2d735a54e",
    "block_time": 1710405325
  },
  "hex": "02000000000101dc9c697097120c911e139116967fd38ad501c9bc1205ed93896ea84aa75db1960100000000ffffffff0280841e0000000000160014bf3c19bc60efa590a92119054519b9fc6577e7dad007280000000000160014a051700116e42b67441d8af731c9f8425e5fb4650247304402206b364122fb0ac02a576712eb3d1d8e8ecf44bea3093dd696172261f5f9bf88ba02200526418413b8170d5f72504a71048c4605cf49fa93242b70728401603a9942dc0121020702d4ccdc4699ca93ad0d43eaf8bcd313ef260ce5bf248dcf06ad2358f8101e00000000"
}