{
  "txid": "844e1ddbbde58cddd1f0f0cfb828941401a48627e38e80c1e08fdaba1da0217a",
  "version": 1,
  "locktime": 0,
  "vin": [
    {
      "txid": "79f6c88131ae2b68a41db2d449105d999583aa6bc70adc4ed769ce34861b5f2a",
      "vout": 0,
      "prevout": {
        "scriptpubkey": "76a914e73b7e097b7996e40c187059fdc15bc1d142fabd88ac",
        "scriptpubkey_asm": "OP_DUP OP_HASH160 OP_PUSHBYTES_20 e73b7e097b7996e40c187059fdc15bc1d142fabd OP_EQUALVERIFY OP_CHECKSIG",
        "scriptpubkey_type": "p2pkh",
        "scriptpubkey_address": "1N5eMuvmPZpb9QhqCfyNzZJwtXPcEGtAHU",
        "value": 127205
      },
      "scriptsig": "473044022079544c5dffe63ecf70f7039581ec6923b7673641e20fcd46a6bc5bd46755c5aa0220015bd0fae088ee69c3bdcf6b7736d2da24099229d03a3c542f72053b94aeb7110121030116e9c4fd8d23dabf497a93e2c3398cabcae600c04d616ba3fc36861f87a9c3",
      "scriptsig_asm": "OP_PUSHBYTES_71 3044022079544c5dffe63ecf70f7039581ec6923b7673641e20fcd46a6bc5bd46755c5aa0220015bd0fae088ee69c3bdcf6b7736d2da24099229d03a3c542f72053b94aeb71101 OP_PUSHBYTES_33 030116e9c4fd8d23dabf497a93e2c3398cabcae600c04d616ba3fc36861f87a9c3",
      "is_coinbase": false,
      "sequence": 4294967295
    },
    {
      "txid": "f237319f5d21b9fc6c7adbd8e15c78e45f6402b025da643806547796efc16f9a",
      "vout": 1,
      "prevout": {
        "scriptpubkey": "76a914bcda134f633641afe08615f5abb6e2b6b88463e088ac",
        "scriptpubkey_asm": "OP_DUP OP_HASH160 OP_PUSHBYTES_20 bcda134f633641afe08615f5abb6e2b6b88463e0 OP_EQUALVERIFY OP_CHECKSIG",
        "scriptpubkey_type": "p2pkh",
        "scriptpubkey_address": "1JDZHDDaxKWBjw28f4PZzU6mGJWR7N5psk",
        "value": 36328
      },
      "scriptsig": "48304502210097b91a4150fc02b632d0ca6b0775aa48aa86c9fc3971affd38113c42d5b01f0f02207966ca75fd0a2120c7c4eee67ea0fa60771bb59ab44512ef7e1de85cd2d6d1980121033951051ec06f5da5195860729abc88eb850f1f2a3df1bd4b040c31ed8f97fadb",
      "scriptsig_asm": "OP_PUSHBYTES_72 304502210097b91a4150fc02b632d0ca6b0775aa48aa86c9fc3971affd38113c42d5b01f0f02207966ca75fd0a2120c7c4eee67ea0fa60771bb59ab44512ef7e1de85cd2d6d19801 OP_PUSHBYTES_33 033951051ec06f5da5195860729abc88eb850f1f2a3df1bd4b040c31ed8f97fadb",
      "is_coinbase": false,
      "sequence": 4294967295
    }
  ],
  "vout": [
    {
      "scriptpubkey": "0014b6d7fce0e2d38d33a9769d4bb0199696ad5f1743",
      "scriptpubkey_asm": "OP_0 OP_PUSHBYTES_20 b6d7fce0e2d38d33a9769d4bb0199696ad5f1743",
      "scriptpubkey_type": "v0_p2wpkh",
      "scriptpubkey_address": "bc1qkmtlec8z6wxn82tkn49mqxvkj6k4796rgqm7r2",
      "value": 128888
    },
    {
      "scriptpubkey": "76a91407278c296fd8c64419432159f930b58cc75bbd5788ac",
      "scriptpubkey_asm": "OP_DUP OP_HASH160 OP_PUSHBYTES_20 07278c296fd8c64419432159f930b58cc75bbd57 OP_EQUALVERIFY OP_CHECKSIG",
      "scriptpubkey_type": "p2pkh",
      "scriptpubkey_address": "1eq79odDjXW8UBJ3b9LVNFz28Aj3Kqvyx",
      "value": 29451
    }
  ],
  "size": 370,
  "weight": 1480,
  "fee": 5194,
  "status": {
    "confirmed": true,
    "block_height": 834460,
    "block_hash": "00000000000000000000484a79b643b2524bbce82e5d8a442013fa5b8905ed98",
    "block_time": 1710307468
  },
  "hex": "01000000022a5f1b8634ce69d74edc0ac76baa8395995d1049d4b21da4682bae3181c8f679000000006a473044022079544c5dffe63ecf70f7039581ec6923b7673641e20fcd46a6bc5bd46755c5aa0220015bd0fae088ee69c3bdcf6b7736d2da24099229d03a3c542f72053b94aeb7110121030116e9c4fd8d23dabf497a93e2c3398cabcae600c04d616ba3fc36861f87a9c3ffffffff9a6fc1ef967754063864da25b002645fe4785ce1d8db7a6cfcb9215d9f3137f2010000006b48304502210097b91a4150fc02b632d0ca6b0775aa48aa86c9fc3971affd38113c42d5b01f0f02207966ca75fd0a2120c7c4eee67ea0fa60771bb59ab44512ef7e1de85cd2d6d1980121033951051ec06f5da5195860729abc88eb850f1f2a3df1bd4b040c31ed8f97fadbffffffff0278f7010000000000160014b6d7fce0e2d38d33a9769d4bb0199696ad5f17430b730000000000001976a91407278c296fd8c64419432159f930b58cc75bbd5788ac00000000"
}