{
  "txid": "844f3b206a00629e64993e9d67c0e7b4bba364a8c2646b0f0cfef92e692c38df",
  "version": 2,
  "locktime": 0,
  "vin": [
    {
      "txid": "69a8067c3c3975eb770a5a8d2b00dbc56773ea18dc41ee5f161bb36efeacb1b4",
      "vout": 1,
      "prevout": {
        "scriptpubkey": "0014033e92c6df47f6afcff493c6b5554f0370d3c3ea",
        "scriptpubkey_asm": "OP_0 OP_PUSHBYTES_20 033e92c6df47f6afcff493c6b5554f0370d3c3ea",
        "scriptpubkey_type": "v0_p2wpkh",
        "scriptpubkey_address": "bc1qqvlf93klglm2lnl5j0rt2420qdcd8sl2qgxxv4",
        "value": 30551
      },
      "scriptsig": "",
      "scriptsig_asm": "",
      "witness": [
        "3045022100b6a1d56e204e74a2656055400d09f96171c9e122722f0800f583b177858acd7602205164023532c521b28f0cae557713c6232deb8f11f0a0e98bfa86bfa49d8a2c2001",
        "02947a44add621b510f2e5d04f8ee6bcc6988bc27d9c8d4762b0b04092076ca7e5"
      ],
      "is_coinbase": false,
      "sequence": 4294967295
    }
  ],
  "vout": [
    {
      "scriptpubkey": "76a914b43953fa36f92c96653ad2c4f92a88800e8ac8e088ac",
      "scriptpubkey_asm": "OP_DUP OP_HASH160 OP_PUSHBYTES_20 b43953fa36f92c96653ad2c4f92a88800e8ac8e0 OP_EQUALVERIFY OP_CHECKSIG",
      "scriptpubkey_type": "p2pkh",
      "scriptpubkey_address": "1HRwJkaNCDikTXskqsjtYLaJ6iduX4NLzs",
      "value": 21000
    },
    {
      "scriptpubkey": "0014f5b27f95aee2e1a8eb756f204d71a357039658f7",
      "scriptpubkey_asm": "OP_0 OP_PUSHBYTES_20 f5b27f95aee2e1a8eb756f204d71a357039658f7",
      "scriptpubkey_type": "v0_p2wpkh",
      "scriptpubkey_address": "bc1q7ke8l9dwuts636m4dusy6udr2upevk8hhrp2sg",
      "value": 7986
    }
  ],
  "size": 226,
  "weight": 574,
  "fee": 1565,
  "status": {
    "confirmed": true,
    "block_height": 834464,
    "block_hash": "0000000000000000000177a0869a911a2b65c9bdcd5a8bcb02b68f305bee848e",
    "block_time": 1710308296
  },
  "hex": "02000000000101b4b1acfe6eb31b165fee41dc18ea7367c5db002b8d5a0a77eb75393c7c06a8690100000000ffffffff0208520000000000001976a914b43953fa36f92c96653ad2c4f92a88800e8ac8e088ac321f000000000000160014f5b27f95aee2e1a8eb756f204d71a357039658f702483045022100b6a1d56e204e74a2656055400d09f96171c9e122722f0800f583b177858acd7602205164023532c521b28f0cae557713c6232deb8f11f0a0e98bfa86bfa49d8a2c20012102947a44add621b510f2e5d04f8ee6bcc6988bc27d9c8d4762b0b04092076ca7e500000000"
}