{
  "txid": "8455798ea34fb3a8ddd3a3d70117e3627caedc79e2b8e153f6dc9d90e4030cd9",
  "version": 2,
  "locktime": 0,
  "vin": [
    {
      "txid": "81d17a84342b3a85fbe8bcc43c84adb6df8f3adfe192dde53b8ede4500f4fafc",
      "vout": 1,
      "prevout": {
        "scriptpubkey": "0014c199c7fb629ddbbe9b35403e2000e8cc28004f6c",
        "scriptpubkey_asm": "OP_0 OP_PUSHBYTES_20 c199c7fb629ddbbe9b35403e2000e8cc28004f6c",
        "scriptpubkey_type": "v0_p2wpkh",
        "scriptpubkey_address": "bc1qcxvu07mznhdmaxe4gqlzqq8ges5qqnmvup33dt",
        "value": 546
      },
      "scriptsig": "",
      "scriptsig_asm": "",
      "witness": [
        "3045022100e61ac30704a460960456d15c550c7b8146af565a82cc34421d6efdac905934e9022071f5267f14f779f7dca3787125486b11e9a878285c083d9faa3f1eb7ee2a94a101",
        "0254a30526d93e1a892cc415af7f0d706a48a3b452e049d857938cb5e0f9db4725"
      ],
      "is_coinbase": false,
      "sequence": 4294967293
    },
    {
      "txid": "e92e453d4c742e4ed597d0b4ddb74d524527e3ff5b57cfbc6d0647d90132f9c4",
      "vout": 1,
      "prevout": {
        "scriptpubkey": "0014c199c7fb629ddbbe9b35403e2000e8cc28004f6c",
        "scriptpubkey_asm": "OP_0 OP_PUSHBYTES_20 c199c7fb629ddbbe9b35403e2000e8cc28004f6c",
        "scriptpubkey_type": "v0_p2wpkh",
        "scriptpubkey_address": "bc1qcxvu07mznhdmaxe4gqlzqq8ges5qqnmvup33dt",
        "value": 546
      },
      "scriptsig": "",
      "scriptsig_asm": "",
      "witness": [
        "3045022100ff62906e6cf423df8e7a9c73434a250df19b3d0d6d83cb2dd7c3c3d167adc7930220092eb00be72023b008d3ac3ba725c98b7443d972fdaf9b87c7c2b8330993bad201",
        "0254a30526d93e1a892cc415af7f0d706a48a3b452e049d857938cb5e0f9db4725"
      ],
      "is_coinbase": false,
      "sequence": 4294967293
    },
    {
      "txid": "ab8af87dcddd4cc1f437e461b3ea6a4f536dd4828a03bd914ac014a10c8a8766",
      "vout": 6,
      "prevout": {
        "scriptpubkey": "0014c199c7fb629ddbbe9b35403e2000e8cc28004f6c",
        "scriptpubkey_asm": "OP_0 OP_PUSHBYTES_20 c199c7fb629ddbbe9b35403e2000e8cc28004f6c",
        "scriptpubkey_type": "v0_p2wpkh",
        "scriptpubkey_address": "bc1qcxvu07mznhdmaxe4gqlzqq8ges5qqnmvup33dt",
        "value": 519036
      },
      "scriptsig": "",
      "scriptsig_asm": "",
      "witness": [
        "30450221009e7eac515bd3062a174e5fc51e553438be62a88b9804ceeaa102c1737808e73802201f8509060fa4fb9a2879db14382b758a69ec0330b0be2e23edbea4b95611320b01",
        "0254a30526d93e1a892cc415af7f0d706a48a3b452e049d857938cb5e0f9db4725"
      ],
      "is_coinbase": false,
      "sequence": 4294967293
    }
  ],
  "vout": [
    {
      "scriptpubkey": "0014c6e54fdb9bc93049c69f362241c5568a45cc9fc4",
      "scriptpubkey_asm": "OP_0 OP_PUSHBYTES_20 c6e54fdb9bc93049c69f362241c5568a45cc9fc4",
      "scriptpubkey_type": "v0_p2wpkh",
      "scriptpubkey_address": "bc1qcmj5lkumeycyn35lxc3yr32k3fzue87yrjrna6",
      "value": 546
    },
    {
      "scriptpubkey": "0014c6e54fdb9bc93049c69f362241c5568a45cc9fc4",
      "scriptpubkey_asm": "OP_0 OP_PUSHBYTES_20 c6e54fdb9bc93049c69f362241c5568a45cc9fc4",
      "scriptpubkey_type": "v0_p2wpkh",
      "scriptpubkey_address": "bc1qcmj5lkumeycyn35lxc3yr32k3fzue87yrjrna6",
      "value": 546
    },
    {
      "scriptpubkey": "0014fb7a185fc47428a9992c09f70c6add47a5c19223",
      "scriptpubkey_asm": "OP_0 OP_PUSHBYTES_20 fb7a185fc47428a9992c09f70c6add47a5c19223",
      "scriptpubkey_type": "v0_p2wpkh",
      "scriptpubkey_address": "bc1qldapsh7yws52nxfvp8msc6kag7jury3rxrw4dm",
      "value": 30000
    },
    {
      "scriptpubkey": "0014c199c7fb629ddbbe9b35403e2000e8cc28004f6c",
      "scriptpubkey_asm": "OP_0 OP_PUSHBYTES_20 c199c7fb629ddbbe9b35403e2000e8cc28004f6c",
      "scriptpubkey_type": "v0_p2wpkh",
      "scriptpubkey_address": "bc1qcxvu07mznhdmaxe4gqlzqq8ges5qqnmvup33dt",
      "value": 482975
    }
  ],
  "size": 583,
  "weight": 1354,
  "fee": 6061,
  "status": {
    "confirmed": true,
    "block_height": 834464,
    "block_hash": "0000000000000000000177a0869a911a2b65c9bdcd5a8bcb02b68f305bee848e",
    "block_time": 1710308296
  },
  "hex": "02000000000103fcfaf40045de8e3be5dd92e1df3a8fdfb6ad843cc4bce8fb853a2b34847ad1810100000000fdffffffc4f93201d947066dbccf575bffe32745524db7ddb4d097d54e2e744c3d452ee90100000000fdffffff66878a0ca114c04a91bd038a82d46d534f6aeab361e437f4c14cddcd7df88aab0600000000fdffffff042202000000000000160014c6e54fdb9bc93049c69f362241c5568a45cc9fc42202000000000000160014c6e54fdb9bc93049c69f362241c5568a45cc9fc43075000000000000160014fb7a185fc47428a9992c09f70c6add47a5c192239f5e070000000000160014c199c7fb629ddbbe9b35403e2000e8cc28004f6c02483045022100e61ac30704a460960456d15c550c7b8146af565a82cc34421d6efdac905934e9022071f5267f14f779f7dca3787125486b11e9a878285c083d9faa3f1eb7ee2a94a101210254a30526d93e1a892cc415af7f0d706a48a3b452e049d857938cb5e0f9db472502483045022100ff62906e6cf423df8e7a9c73434a250df19b3d0d6d83cb2dd7c3c3d167adc7930220092eb00be72023b008d3ac3ba725c98b7443d972fdaf9b87c7c2b8330993bad201210254a30526d93e1a892cc415af7f0d706a48a3b452e049d857938cb5e0f9db4725024830450221009e7eac515bd3062a174e5fc51e553438be62a88b9804ceeaa102c1737808e73802201f8509060fa4fb9a2879db14382b758a69ec0330b0be2e23edbea4b95611320b01210254a30526d93e1a892cc415af7f0d706a48a3b452e049d857938cb5e0f9db472500000000"
}