{
  "txid": "8456318d54dc9ff82e8cd115714b2142630fd7d965ad91e74623cac85d4b4cf3",
  "version": 2,
  "locktime": 0,
  "vin": [
    {
      "txid": "acc3ba00869acb582a3f2904ce3a11dd3779350ce234063fc7d0959246213364",
      "vout": 192,
      "prevout": {
        "scriptpubkey": "51204025814ba58af64d1a59a9e3ad37098d5b4a3ada86fcabe03dcc2823a272e68f",
        "scriptpubkey_asm": "OP_PUSHNUM_1 OP_PUSHBYTES_32 4025814ba58af64d1a59a9e3ad37098d5b4a3ada86fcabe03dcc2823a272e68f",
        "scriptpubkey_type": "v1_p2tr",
        "scriptpubkey_address": "bc1pgqjczja93tmy6xje48366dcf34d55wk6sm72hcpaes5z8gnju68sm0muwq",
        "value": 1806
      },
      "scriptsig": "",
      "scriptsig_asm": "",
      "witness": [
        "d27a2698bc4c0f675148bc0b61ffcd77e80be279c85f31a112009556f9c656ca5bb6c565ca97e3883724678698f7b27903f11bca4663a47f1b935bc945b5baec",
        "201458b5b7c17e7549de29b211094676ae57b650cd89349c1239c69b9593d0071dac0063036f726401010a746578742f706c61696e00357b2270223a226272632d3230222c226f70223a226d696e74222c227469636b223a22646f6765222c22616d74223a2234323030227d68",
        "c01458b5b7c17e7549de29b211094676ae57b650cd89349c1239c69b9593d0071d"
      ],
      "is_coinbase": false,
      "sequence": 4261412863
    }
  ],
  "vout": [
    {
      "scriptpubkey": "00147a665de7a370f4c9b372ab1fae587500a5bcbdb4",
      "scriptpubkey_asm": "OP_0 OP_PUSHBYTES_20 7a665de7a370f4c9b372ab1fae587500a5bcbdb4",
      "scriptpubkey_type": "v0_p2wpkh",
      "scriptpubkey_address": "bc1q0fn9mearwr6vnvmj4v06ukr4qzjme0d565dzcx",
      "value": 294
    }
  ],
  "size": 294,
  "weight": 540,
  "fee": 1512,
  "status": {
    "confirmed": true,
    "block_height": 834460,
    "block_hash": "00000000000000000000484a79b643b2524bbce82e5d8a442013fa5b8905ed98",
    "block_time": 1710307468
  },
  "hex": "02000000000101643321469295d0c73f0634e20c357937dd113ace04293f2a58cb9a8600bac3acc000000000fffffffd0126010000000000001600147a665de7a370f4c9b372ab1fae587500a5bcbdb40340d27a2698bc4c0f675148bc0b61ffcd77e80be279c85f31a112009556f9c656ca5bb6c565ca97e3883724678698f7b27903f11bca4663a47f1b935bc945b5baec6d201458b5b7c17e7549de29b211094676ae57b650cd89349c1239c69b9593d0071dac0063036f726401010a746578742f706c61696e00357b2270223a226272632d3230222c226f70223a226d696e74222c227469636b223a22646f6765222c22616d74223a2234323030227d6821c01458b5b7c17e7549de29b211094676ae57b650cd89349c1239c69b9593d0071d00000000"
}