{
  "txid": "846123cb02f04ff614664339caac3d2e0a0b1f0bd090983cfdf60e302f005af1",
  "version": 2,
  "locktime": 0,
  "vin": [
    {
      "txid": "b98d5e48554c92e3cf10b2d56ce40c562ce84e9b02207080fca285c641111bbd",
      "vout": 0,
      "prevout": {
        "scriptpubkey": "512027f9f38d96c4916221d5b4b9619e16ca6e0c3bc56f77a3cef51422652c330f0c",
        "scriptpubkey_asm": "OP_PUSHNUM_1 OP_PUSHBYTES_32 27f9f38d96c4916221d5b4b9619e16ca6e0c3bc56f77a3cef51422652c330f0c",
        "scriptpubkey_type": "v1_p2tr",
        "scriptpubkey_address": "bc1pylul8rvkcjgkygw4kjukr8skefhqcw79dam68nh4zs3x2tpnpuxqfdzs05",
        "value": 68775
      },
      "scriptsig": "",
      "scriptsig_asm": "",
      "witness": [
        "0077adf3326f76aa0f06ed8440c9ba8271e8a91c3ebdcfbbba929c7e0894a71f4f36a278ca31e6012ab6101f79825cb5d6201b594fa9c2b762112430f1628d50"
      ],
      "is_coinbase": false,
      "sequence": 4294967295
    }
  ],
  "vout": [
    {
      "scriptpubkey": "a91469fc7d7092e2d1e123e7b396326636c48845e70987",
      "scriptpubkey_asm": "OP_HASH160 OP_PUSHBYTES_20 69fc7d7092e2d1e123e7b396326636c48845e709 OP_EQUAL",
      "scriptpubkey_type": "p2sh",
      "scriptpubkey_address": "3BMRLzseroejDAGJN1DjC5pf8ZdLJV62Cf",
      "value": 67475
    }
  ],
  "size": 151,
  "weight": 400,
  "fee": 1300,
  "status": {
    "confirmed": true,
    "block_height": 834460,
    "block_hash": "00000000000000000000484a79b643b2524bbce82e5d8a442013fa5b8905ed98",
    "block_time": 1710307468
  },
  "hex": "02000000000101bd1b1141c685a2fc807020029b4ee82c560ce46cd5b210cfe3924c55485e8db90000000000ffffffff01930701000000000017a91469fc7d7092e2d1e123e7b396326636c48845e7098701400077adf3326f76aa0f06ed8440c9ba8271e8a91c3ebdcfbbba929c7e0894a71f4f36a278ca31e6012ab6101f79825cb5d6201b594fa9c2b762112430f1628d5000000000"
}