{
  "txid": "846660cc77403b96fb502e1a9f0021793371087654d11febf841a6104bb58ce1",
  "version": 2,
  "locktime": 0,
  "vin": [
    {
      "txid": "75389a3123d139dc9a7a18be2c14b111476dbbfbb8d01a0c813a4fb20446452b",
      "vout": 0,
      "prevout": {
        "scriptpubkey": "5120df6f45c9903f18bd12bae24aba59280e07d4716587208fa9bef57e3ea46c4a05",
        "scriptpubkey_asm": "OP_PUSHNUM_1 OP_PUSHBYTES_32 df6f45c9903f18bd12bae24aba59280e07d4716587208fa9bef57e3ea46c4a05",
        "scriptpubkey_type": "v1_p2tr",
        "scriptpubkey_address": "bc1pmah5tjvs8uvt6y46uf9t5kfgpcragut9susgl2d774lrafrvfgzs7rgjuf",
        "value": 2207
      },
      "scriptsig": "",
      "scriptsig_asm": "",
      "witness": [
        "e14d25decf47057379a3fce062d48916581329f96cc42642572ba22392be62c37711392e7a560442f834eef49ce778bd72b10bf1cc32b07c4c46eab0fe31992c",
        "20d6007efddda286765da26051eed9d30f46571a948bd4de3d865b89fed7c86062ac0063036f7264010118746578742f706c61696e3b636861727365743d7574662d3800367b2270223a226272632d3230222c226f70223a227472616e73666572222c227469636b223a2242544373222c22616d74223a2235227d68",
        "c1d6007efddda286765da26051eed9d30f46571a948bd4de3d865b89fed7c86062"
      ],
      "is_coinbase": false,
      "sequence": 4294967293
    }
  ],
  "vout": [
    {
      "scriptpubkey": "51207ac9e65382b5df491899dbc00f48630ad8c032d2af73edf246a18c5deaf141a0",
      "scriptpubkey_asm": "OP_PUSHNUM_1 OP_PUSHBYTES_32 7ac9e65382b5df491899dbc00f48630ad8c032d2af73edf246a18c5deaf141a0",
      "scriptpubkey_type": "v1_p2tr",
      "scriptpubkey_address": "bc1p0ty7v5uzkh05jxyem0qq7jrrptvvqvkj4ae7mujx5xx9m6h3gxsqqp485h",
      "value": 546
    }
  ],
  "size": 321,
  "weight": 603,
  "fee": 1661,
  "status": {
    "confirmed": true,
    "block_height": 834464,
    "block_hash": "0000000000000000000177a0869a911a2b65c9bdcd5a8bcb02b68f305bee848e",
    "block_time": 1710308296
  },
  "hex": "020000000001012b454604b24f3a810c1ad0b8fbbb6d4711b1142cbe187a9adc39d123319a38750000000000fdffffff0122020000000000002251207ac9e65382b5df491899dbc00f48630ad8c032d2af73edf246a18c5deaf141a00340e14d25decf47057379a3fce062d48916581329f96cc42642572ba22392be62c37711392e7a560442f834eef49ce778bd72b10bf1cc32b07c4c46eab0fe31992c7c20d6007efddda286765da26051eed9d30f46571a948bd4de3d865b89fed7c86062ac0063036f7264010118746578742f706c61696e3b636861727365743d7574662d3800367b2270223a226272632d3230222c226f70223a227472616e73666572222c227469636b223a2242544373222c22616d74223a2235227d6821c1d6007efddda286765da26051eed9d30f46571a948bd4de3d865b89fed7c8606200000000"
}