{
  "txid": "84a1b53d4e73c607e76165ad9a4d6d1d36729e83ed798dd1a2f7a0e70d53ae3b",
  "version": 2,
  "locktime": 834637,
  "vin": [
    {
      "txid": "43433d9b6a70bbb606a12bec0cab9a5b66d7d1c8ba03e3b4dd3b780ea59c2827",
      "vout": 1,
      "prevout": {
        "scriptpubkey": "00141bfc4adf0c415c18f8f781ce6334cca15c6e8d00",
        "scriptpubkey_asm": "OP_0 OP_PUSHBYTES_20 1bfc4adf0c415c18f8f781ce6334cca15c6e8d00",
        "scriptpubkey_type": "v0_p2wpkh",
        "scriptpubkey_address": "bc1qr07y4hcvg9wp378hs88xxdxv59wxargqduwgvv",
        "value": 83888
      },
      "scriptsig": "",
      "scriptsig_asm": "",
      "witness": [
        "3044022044ac53f4631fd37dba089f48dbfc659c9739a7ff8a84fa52983fce81b3fef7c202200e074b5642fc18820573a6ea87918c6e77bf664ffe298ae6a8167c89760360b901",
        "034fa207fb2f949ca7eefbc26142bbd8fe787e1e845039f5a80ed80104f6258c7a"
      ],
      "is_coinbase": false,
      "sequence": 4294967293
    }
  ],
  "vout": [
    {
      "scriptpubkey": "0014b5a9cee01213fa790bac316d8fe375be3bb8d8ab",
      "scriptpubkey_asm": "OP_0 OP_PUSHBYTES_20 b5a9cee01213fa790bac316d8fe375be3bb8d8ab",
      "scriptpubkey_type": "v0_p2wpkh",
      "scriptpubkey_address": "bc1qkk5uacqjz0a8jzavx9kclcm4hcam3k9trm85y6",
      "value": 53808
    },
    {
      "scriptpubkey": "0014e6166e6d0f9cd0af5e8b984cf74a25f504a7ab51",
      "scriptpubkey_asm": "OP_0 OP_PUSHBYTES_20 e6166e6d0f9cd0af5e8b984cf74a25f504a7ab51",
      "scriptpubkey_type": "v0_p2wpkh",
      "scriptpubkey_address": "bc1quctxumg0nng27h5tnpx0wj3975z20263luut8f",
      "value": 27965
    }
  ],
  "size": 222,
  "weight": 561,
  "fee": 2115,
  "status": {
    "confirmed": true,
    "block_height": 834638,
    "block_hash": "000000000000000000025f742c626208ac87e0b7d15054abb4a19ca2d735a54e",
    "block_time": 1710405325
  },
  "hex": "0200000000010127289ca50e783bddb4e303bac8d1d7665b9aab0cec2ba106b6bb706a9b3d43430100000000fdffffff0230d2000000000000160014b5a9cee01213fa790bac316d8fe375be3bb8d8ab3d6d000000000000160014e6166e6d0f9cd0af5e8b984cf74a25f504a7ab5102473044022044ac53f4631fd37dba089f48dbfc659c9739a7ff8a84fa52983fce81b3fef7c202200e074b5642fc18820573a6ea87918c6e77bf664ffe298ae6a8167c89760360b90121034fa207fb2f949ca7eefbc26142bbd8fe787e1e845039f5a80ed80104f6258c7a4dbc0c00"
}