{
  "txid": "84a5c9ce69cec019071deaabeabfbec1fb39192256c21e54adc0e6fab1075214",
  "version": 2,
  "locktime": 0,
  "vin": [
    {
      "txid": "0a63ed1d19cdeaa5719e96f9be9cecc7a6186f99974bfc30702677ebed57a982",
      "vout": 1,
      "prevout": {
        "scriptpubkey": "0014b6494d094a04fb6e57d8d9a42783b9cb6030f155",
        "scriptpubkey_asm": "OP_0 OP_PUSHBYTES_20 b6494d094a04fb6e57d8d9a42783b9cb6030f155",
        "scriptpubkey_type": "v0_p2wpkh",
        "scriptpubkey_address": "bc1qkey56z22qnaku47cmxjz0qaeedsrpu24z3yj85",
        "value": 40020
      },
      "scriptsig": "",
      "scriptsig_asm": "",
      "witness": [
        "3045022100d5fd88c28fd1453acfda76d25c92d33e7979699e3bb03af1634c5631696905f902205d59d6783d9974489d48a1471effeb492557f097c2d13fd97f379c4a386412f701",
        "022ae8f70f9cd5e204f56bc84f4eb1d62cb7f7bbd2081b39298b33bea2e699c8ca"
      ],
      "is_coinbase": false,
      "sequence": 4294967295
    },
    {
      "txid": "5f8165c5bd320d7adc194d1e9fcb0887dfd17543fa949cc6356e611e2746e960",
      "vout": 0,
      "prevout": {
        "scriptpubkey": "00147c6b88000d8ef9bf7b1bd1d670b819b9424bab87",
        "scriptpubkey_asm": "OP_0 OP_PUSHBYTES_20 7c6b88000d8ef9bf7b1bd1d670b819b9424bab87",
        "scriptpubkey_type": "v0_p2wpkh",
        "scriptpubkey_address": "bc1q034csqqd3mum77cm68t8pwqeh9pyh2u83nn5z5",
        "value": 17473
      },
      "scriptsig": "",
      "scriptsig_asm": "",
      "witness": [
        "3045022100d977f6ac2e2e0c212171eac801939cb1f7715ddbe0298fdbf97803ab5ac91d3d02205f68c68919441159b14b99ff263427b74b428f749fa38d2cf665a101ac8c61e101",
        "03d165dccfa0b9a480117ec9b4eb2b11b39f9c4dbdf278ef76bf26c29f21d1d9a7"
      ],
      "is_coinbase": false,
      "sequence": 4294967295
    },
    {
      "txid": "f3f0872289c78d7224366d41af87b66c12232de1c923001683753bb8423e3ba1",
      "vout": 0,
      "prevout": {
        "scriptpubkey": "00141f7049f270036a45646f2b1cfebddfa65048f546",
        "scriptpubkey_asm": "OP_0 OP_PUSHBYTES_20 1f7049f270036a45646f2b1cfebddfa65048f546",
        "scriptpubkey_type": "v0_p2wpkh",
        "scriptpubkey_address": "bc1qracynunsqd4y2er09vw0a0wl5egy3a2xgst73r",
        "value": 4787
      },
      "scriptsig": "",
      "scriptsig_asm": "",
      "witness": [
        "3045022100aefa6d834ead85ec23251a583738d2ab0082ffd8eca184879706aa5a709e3cbc0220689e8fa57a3c05bc7afc06acf605b1f17556b66871d7d827339a2bfc9dbac86a01",
        "02242b9acadea85f5877b4e1bec0da32e4eadc5b015fe19ebbd11d6a8e0032da00"
      ],
      "is_coinbase": false,
      "sequence": 4294967295
    }
  ],
  "vout": [
    {
      "scriptpubkey": "76a91490228f178f8e56f3c0f0b56c8b31a0cea0f5693c88ac",
      "scriptpubkey_asm": "OP_DUP OP_HASH160 OP_PUSHBYTES_20 90228f178f8e56f3c0f0b56c8b31a0cea0f5693c OP_EQUALVERIFY OP_CHECKSIG",
      "scriptpubkey_type": "p2pkh",
      "scriptpubkey_address": "1E97hpfN2czWvdD46cqf2PSMTjVF9JZeHq",
      "value": 54457
    }
  ],
  "size": 493,
  "weight": 994,
  "fee": 7823,
  "status": {
    "confirmed": true,
    "block_height": 834638,
    "block_hash": "000000000000000000025f742c626208ac87e0b7d15054abb4a19ca2d735a54e",
    "block_time": 1710405325
  },
  "hex": "0200000000010382a957edeb77267030fc4b97996f18a6c7ec9cbef9969e71a5eacd191ded630a0100000000ffffffff60e946271e616e35c69c94fa4375d1df8708cb9f1e4d19dc7a0d32bdc565815f0000000000ffffffffa13b3e42b83b7583160023c9e12d23126cb687af416d3624728dc7892287f0f30000000000ffffffff01b9d40000000000001976a91490228f178f8e56f3c0f0b56c8b31a0cea0f5693c88ac02483045022100d5fd88c28fd1453acfda76d25c92d33e7979699e3bb03af1634c5631696905f902205d59d6783d9974489d48a1471effeb492557f097c2d13fd97f379c4a386412f70121022ae8f70f9cd5e204f56bc84f4eb1d62cb7f7bbd2081b39298b33bea2e699c8ca02483045022100d977f6ac2e2e0c212171eac801939cb1f7715ddbe0298fdbf97803ab5ac91d3d02205f68c68919441159b14b99ff263427b74b428f749fa38d2cf665a101ac8c61e1012103d165dccfa0b9a480117ec9b4eb2b11b39f9c4dbdf278ef76bf26c29f21d1d9a702483045022100aefa6d834ead85ec23251a583738d2ab0082ffd8eca184879706aa5a709e3cbc0220689e8fa57a3c05bc7afc06acf605b1f17556b66871d7d827339a2bfc9dbac86a012102242b9acadea85f5877b4e1bec0da32e4eadc5b015fe19ebbd11d6a8e0032da0000000000"
}