{
  "txid": "84a8ec26e786866d90c520e188e54fd7a2c92c3261731d7f03ac76d26325812c",
  "version": 2,
  "locktime": 0,
  "vin": [
    {
      "txid": "e835c4d922fbed17c48b3bb466ba1ffc020ede84c1303bdb67ca1f883dd615bb",
      "vout": 19,
      "prevout": {
        "scriptpubkey": "5120c6c670b21d8f737ed054ade69bcdb1784583a6b19aaab444c2ce4ae8cf690b47",
        "scriptpubkey_asm": "OP_PUSHNUM_1 OP_PUSHBYTES_32 c6c670b21d8f737ed054ade69bcdb1784583a6b19aaab444c2ce4ae8cf690b47",
        "scriptpubkey_type": "v1_p2tr",
        "scriptpubkey_address": "bc1pcmr8pvsa3aeha5z54hnfhnd30pzc8f43n24tg3xzee9w3nmfpdrs6p2exg",
        "value": 3248
      },
      "scriptsig": "",
      "scriptsig_asm": "",
      "witness": [
        "526b29b544b5850fb4e0a4c8f29fb6219c4f8c70de1d3931e826428ff7aee93f6a2121d709ce7debbf24786ab43b3afacd35c98f522a556ea49bcf47cc0d8f20",
        "206aea94356328e57d6dd9f6cb875f0b7f1e951c2a14654e844a53da15f58a0ea8ac0063036f726401011e6170706c69636174696f6e2f6a736f6e3b636861727365743d7574662d38004cd37b2270223a22706f772d3230222c226f70223a226d696e74222c227469636b223a2250455045222c22616d74223a2231303030222c22736f6c7574696f6e223a22504550453a626331703378336875706e76383064666366666c34333367327a3776713378706c63673364666d79716365336d6c6d6e78397767753872717265763032653a303030303030303030303030303030303030303139393431613561653132383937363539383134343239323533333030353762306461393666336465613163353a3133323730343033373833227d68",
        "c0bf69a78b1b6433fca38fda21525e43a6c565682ca08e513a8f66feb668723930"
      ],
      "is_coinbase": false,
      "sequence": 4294967295
    }
  ],
  "vout": [
    {
      "scriptpubkey": "512089a37e066c3bda9c253fac62850bcc044c1fe1116a76406331dff73315c8e1c6",
      "scriptpubkey_asm": "OP_PUSHNUM_1 OP_PUSHBYTES_32 89a37e066c3bda9c253fac62850bcc044c1fe1116a76406331dff73315c8e1c6",
      "scriptpubkey_type": "v1_p2tr",
      "scriptpubkey_address": "bc1p3x3hupnv80dfcffl433g2z7vq3xplcg3dfmyqce3mlmnx9wgu8rqrev02e",
      "value": 546
    }
  ],
  "size": 487,
  "weight": 769,
  "fee": 2702,
  "status": {
    "confirmed": true,
    "block_height": 834460,
    "block_hash": "00000000000000000000484a79b643b2524bbce82e5d8a442013fa5b8905ed98",
    "block_time": 1710307468
  },
  "hex": "02000000000101bb15d63d881fca67db3b30c184de0e02fc1fba66b43b8bc417edfb22d9c435e81300000000ffffffff01220200000000000022512089a37e066c3bda9c253fac62850bcc044c1fe1116a76406331dff73315c8e1c60340526b29b544b5850fb4e0a4c8f29fb6219c4f8c70de1d3931e826428ff7aee93f6a2121d709ce7debbf24786ab43b3afacd35c98f522a556ea49bcf47cc0d8f20fd2001206aea94356328e57d6dd9f6cb875f0b7f1e951c2a14654e844a53da15f58a0ea8ac0063036f726401011e6170706c69636174696f6e2f6a736f6e3b636861727365743d7574662d38004cd37b2270223a22706f772d3230222c226f70223a226d696e74222c227469636b223a2250455045222c22616d74223a2231303030222c22736f6c7574696f6e223a22504550453a626331703378336875706e76383064666366666c34333367327a3776713378706c63673364666d79716365336d6c6d6e78397767753872717265763032653a303030303030303030303030303030303030303139393431613561653132383937363539383134343239323533333030353762306461393666336465613163353a3133323730343033373833227d6821c0bf69a78b1b6433fca38fda21525e43a6c565682ca08e513a8f66feb66872393000000000"
}