{
  "txid": "84b05e280255dc579e7669685ca3cec0dbadf921a91acbce7ae886c7468d0f66",
  "version": 2,
  "locktime": 0,
  "vin": [
    {
      "txid": "4ec5ada27763a033281548980f00f28b5282032440b41f684d09011e9878321d",
      "vout": 3,
      "prevout": {
        "scriptpubkey": "512044625eaf4b46b58ab24b7470489ece2ca5d469cc261f5c596ca1e6157ff79a2a",
        "scriptpubkey_asm": "OP_PUSHNUM_1 OP_PUSHBYTES_32 44625eaf4b46b58ab24b7470489ece2ca5d469cc261f5c596ca1e6157ff79a2a",
        "scriptpubkey_type": "v1_p2tr",
        "scriptpubkey_address": "bc1pg339at6tg66c4vjtw3cy38kw9jjag6wvyc04cktv58np2llhng4qtrauya",
        "value": 600
      },
      "scriptsig": "",
      "scriptsig_asm": "",
      "witness": [
        "88339574cc2a5dbf0b7ced27a04f40f9072de5399a598d2ab79a40fb04653a6f5723a2e9e3561e948599b5ea0940e88bffdfd3e79e62a037b8528f1fb1c49be6"
      ],
      "is_coinbase": false,
      "sequence": 4294967295
    },
    {
      "txid": "4ec5ada27763a033281548980f00f28b5282032440b41f684d09011e9878321d",
      "vout": 4,
      "prevout": {
        "scriptpubkey": "512044625eaf4b46b58ab24b7470489ece2ca5d469cc261f5c596ca1e6157ff79a2a",
        "scriptpubkey_asm": "OP_PUSHNUM_1 OP_PUSHBYTES_32 44625eaf4b46b58ab24b7470489ece2ca5d469cc261f5c596ca1e6157ff79a2a",
        "scriptpubkey_type": "v1_p2tr",
        "scriptpubkey_address": "bc1pg339at6tg66c4vjtw3cy38kw9jjag6wvyc04cktv58np2llhng4qtrauya",
        "value": 600
      },
      "scriptsig": "",
      "scriptsig_asm": "",
      "witness": [
        "b60820001dcd7ca69047fe4da2a28f3a79714ecff5141e642e181a65d1aab608fdf7b54f11513edc468a6e616b665b234c4075a73d9d33813d6102d1c7cb9300"
      ],
      "is_coinbase": false,
      "sequence": 4294967295
    },
    {
      "txid": "2a82eeffe409b07e3281a682ad62d795eda28672aab75b0a040100e9a15f7f4f",
      "vout": 0,
      "prevout": {
        "scriptpubkey": "a9141d47973f6a89b826b517229c5660d0afe379bf1d87",
        "scriptpubkey_asm": "OP_HASH160 OP_PUSHBYTES_20 1d47973f6a89b826b517229c5660d0afe379bf1d OP_EQUAL",
        "scriptpubkey_type": "p2sh",
        "scriptpubkey_address": "34MqHKiu4VvS5rPYe4PLifrmynHDnpNfFH",
        "value": 546
      },
      "scriptsig": "16001473f38c43314bc6a1f54df8bd4a6e84a9bc9aaa11",
      "scriptsig_asm": "OP_PUSHBYTES_22 001473f38c43314bc6a1f54df8bd4a6e84a9bc9aaa11",
      "witness": [
        "304402204d2c79c98151cdf863fa9eea3e125b8aa21dc1baad548655b5bcf494eb88360502200b7df7e4238112c6b07839f9984b1fa167cb1bf3b425b3639b6f9949d19395a583",
        "03eceb4ea2e7c167ba9316cee3c82d81e9634eacf0804ef24f9ad7f5b8b79b88f4"
      ],
      "is_coinbase": false,
      "sequence": 4294967295,
      "inner_redeemscript_asm": "OP_0 OP_PUSHBYTES_20 73f38c43314bc6a1f54df8bd4a6e84a9bc9aaa11"
    },
    {
      "txid": "4ec5ada27763a033281548980f00f28b5282032440b41f684d09011e9878321d",
      "vout": 5,
      "prevout": {
        "scriptpubkey": "512044625eaf4b46b58ab24b7470489ece2ca5d469cc261f5c596ca1e6157ff79a2a",
        "scriptpubkey_asm": "OP_PUSHNUM_1 OP_PUSHBYTES_32 44625eaf4b46b58ab24b7470489ece2ca5d469cc261f5c596ca1e6157ff79a2a",
        "scriptpubkey_type": "v1_p2tr",
        "scriptpubkey_address": "bc1pg339at6tg66c4vjtw3cy38kw9jjag6wvyc04cktv58np2llhng4qtrauya",
        "value": 719951
      },
      "scriptsig": "",
      "scriptsig_asm": "",
      "witness": [
        "691b232848e34aa90f53bc5e77c3865e09e305e2a15da37065bcaf4d6bc2a8a7b948b945a024cafd41ca06431f66a61fb0cff2f08f13f21dd6704fdcad26b025"
      ],
      "is_coinbase": false,
      "sequence": 4294967295
    },
    {
      "txid": "cf65596486a75f416a7a6ce8a28c6a1ac5724e28b80a8dc05a594a584f961fdc",
      "vout": 1,
      "prevout": {
        "scriptpubkey": "512044625eaf4b46b58ab24b7470489ece2ca5d469cc261f5c596ca1e6157ff79a2a",
        "scriptpubkey_asm": "OP_PUSHNUM_1 OP_PUSHBYTES_32 44625eaf4b46b58ab24b7470489ece2ca5d469cc261f5c596ca1e6157ff79a2a",
        "scriptpubkey_type": "v1_p2tr",
        "scriptpubkey_address": "bc1pg339at6tg66c4vjtw3cy38kw9jjag6wvyc04cktv58np2llhng4qtrauya",
        "value": 60326
      },
      "scriptsig": "",
      "scriptsig_asm": "",
      "witness": [
        "924650565ffaebcf4fed989839fbbeefe688b521fb5b83b6176d262475fb8e0f9d4e602d7c558299c4738daed9fc10b8faa573bd5f51d0e33ed11d1dac0e8ad3"
      ],
      "is_coinbase": false,
      "sequence": 4294967295
    }
  ],
  "vout": [
    {
      "scriptpubkey": "512044625eaf4b46b58ab24b7470489ece2ca5d469cc261f5c596ca1e6157ff79a2a",
      "scriptpubkey_asm": "OP_PUSHNUM_1 OP_PUSHBYTES_32 44625eaf4b46b58ab24b7470489ece2ca5d469cc261f5c596ca1e6157ff79a2a",
      "scriptpubkey_type": "v1_p2tr",
      "scriptpubkey_address": "bc1pg339at6tg66c4vjtw3cy38kw9jjag6wvyc04cktv58np2llhng4qtrauya",
      "value": 1200
    },
    {
      "scriptpubkey": "512044625eaf4b46b58ab24b7470489ece2ca5d469cc261f5c596ca1e6157ff79a2a",
      "scriptpubkey_asm": "OP_PUSHNUM_1 OP_PUSHBYTES_32 44625eaf4b46b58ab24b7470489ece2ca5d469cc261f5c596ca1e6157ff79a2a",
      "scriptpubkey_type": "v1_p2tr",
      "scriptpubkey_address": "bc1pg339at6tg66c4vjtw3cy38kw9jjag6wvyc04cktv58np2llhng4qtrauya",
      "value": 546
    },
    {
      "scriptpubkey": "a9141d47973f6a89b826b517229c5660d0afe379bf1d87",
      "scriptpubkey_asm": "OP_HASH160 OP_PUSHBYTES_20 1d47973f6a89b826b517229c5660d0afe379bf1d OP_EQUAL",
      "scriptpubkey_type": "p2sh",
      "scriptpubkey_address": "34MqHKiu4VvS5rPYe4PLifrmynHDnpNfFH",
      "value": 756196
    },
    {
      "scriptpubkey": "512044625eaf4b46b58ab24b7470489ece2ca5d469cc261f5c596ca1e6157ff79a2a",
      "scriptpubkey_asm": "OP_PUSHNUM_1 OP_PUSHBYTES_32 44625eaf4b46b58ab24b7470489ece2ca5d469cc261f5c596ca1e6157ff79a2a",
      "scriptpubkey_type": "v1_p2tr",
      "scriptpubkey_address": "bc1pg339at6tg66c4vjtw3cy38kw9jjag6wvyc04cktv58np2llhng4qtrauya",
      "value": 600
    },
    {
      "scriptpubkey": "512044625eaf4b46b58ab24b7470489ece2ca5d469cc261f5c596ca1e6157ff79a2a",
      "scriptpubkey_asm": "OP_PUSHNUM_1 OP_PUSHBYTES_32 44625eaf4b46b58ab24b7470489ece2ca5d469cc261f5c596ca1e6157ff79a2a",
      "scriptpubkey_type": "v1_p2tr",
      "scriptpubkey_address": "bc1pg339at6tg66c4vjtw3cy38kw9jjag6wvyc04cktv58np2llhng4qtrauya",
      "value": 600
    },
    {
      "scriptpubkey": "512044625eaf4b46b58ab24b7470489ece2ca5d469cc261f5c596ca1e6157ff79a2a",
      "scriptpubkey_asm": "OP_PUSHNUM_1 OP_PUSHBYTES_32 44625eaf4b46b58ab24b7470489ece2ca5d469cc261f5c596ca1e6157ff79a2a",
      "scriptpubkey_type": "v1_p2tr",
      "scriptpubkey_address": "bc1pg339at6tg66c4vjtw3cy38kw9jjag6wvyc04cktv58np2llhng4qtrauya",
      "value": 14196
    }
  ],
  "size": 858,
  "weight": 2313,
  "fee": 8685,
  "status": {
    "confirmed": true,
    "block_height": 834460,
    "block_hash": "00000000000000000000484a79b643b2524bbce82e5d8a442013fa5b8905ed98",
    "block_time": 1710307468
  },
  "hex": "020000000001051d3278981e01094d681fb440240382528bf2000f9848152833a06377a2adc54e0300000000ffffffff1d3278981e01094d681fb440240382528bf2000f9848152833a06377a2adc54e0400000000ffffffff4f7f5fa1e90001040a5bb7aa7286a2ed95d762ad82a681327eb009e4ffee822a000000001716001473f38c43314bc6a1f54df8bd4a6e84a9bc9aaa11ffffffff1d3278981e01094d681fb440240382528bf2000f9848152833a06377a2adc54e0500000000ffffffffdc1f964f584a595ac08d0ab8284e72c51a6a8ca2e86c7a6a415fa786645965cf0100000000ffffffff06b00400000000000022512044625eaf4b46b58ab24b7470489ece2ca5d469cc261f5c596ca1e6157ff79a2a220200000000000022512044625eaf4b46b58ab24b7470489ece2ca5d469cc261f5c596ca1e6157ff79a2ae4890b000000000017a9141d47973f6a89b826b517229c5660d0afe379bf1d87580200000000000022512044625eaf4b46b58ab24b7470489ece2ca5d469cc261f5c596ca1e6157ff79a2a580200000000000022512044625eaf4b46b58ab24b7470489ece2ca5d469cc261f5c596ca1e6157ff79a2a743700000000000022512044625eaf4b46b58ab24b7470489ece2ca5d469cc261f5c596ca1e6157ff79a2a014088339574cc2a5dbf0b7ced27a04f40f9072de5399a598d2ab79a40fb04653a6f5723a2e9e3561e948599b5ea0940e88bffdfd3e79e62a037b8528f1fb1c49be60140b60820001dcd7ca69047fe4da2a28f3a79714ecff5141e642e181a65d1aab608fdf7b54f11513edc468a6e616b665b234c4075a73d9d33813d6102d1c7cb93000247304402204d2c79c98151cdf863fa9eea3e125b8aa21dc1baad548655b5bcf494eb88360502200b7df7e4238112c6b07839f9984b1fa167cb1bf3b425b3639b6f9949d19395a5832103eceb4ea2e7c167ba9316cee3c82d81e9634eacf0804ef24f9ad7f5b8b79b88f40140691b232848e34aa90f53bc5e77c3865e09e305e2a15da37065bcaf4d6bc2a8a7b948b945a024cafd41ca06431f66a61fb0cff2f08f13f21dd6704fdcad26b0250140924650565ffaebcf4fed989839fbbeefe688b521fb5b83b6176d262475fb8e0f9d4e602d7c558299c4738daed9fc10b8faa573bd5f51d0e33ed11d1dac0e8ad300000000"
}