{
  "txid": "84b42b5184434cece8408c5e0e8708938487adcee6b8622c0ba478dbc361edd2",
  "version": 1,
  "locktime": 0,
  "vin": [
    {
      "txid": "5ef25a5251e875714c49b0dde0aeb1ea9cd0de8b7c8a66927b9c8c2c59898d00",
      "vout": 0,
      "prevout": {
        "scriptpubkey": "5120dfed28d21262b4fdd79ce39ac071ac7d20469ab74239b19186b765c740fc8be7",
        "scriptpubkey_asm": "OP_PUSHNUM_1 OP_PUSHBYTES_32 dfed28d21262b4fdd79ce39ac071ac7d20469ab74239b19186b765c740fc8be7",
        "scriptpubkey_type": "v1_p2tr",
        "scriptpubkey_address": "bc1pmlkj35sjv260m4uuuwdvqudv05sydx4hggumryvxkajuws8u30nsus9rct",
        "value": 2431
      },
      "scriptsig": "",
      "scriptsig_asm": "",
      "witness": [
        "fc7588d52efe5a25f05d452a9b4c73d859d9164ad1f91628f6846154630ed51baf92ce73be6670b75832803faabcb7dc32c5347e07c66db5e907cb2a1f0989a3",
        "2066540c6741546d2f88c7a6e079b705a33a9cef200cdf7724b13aedb9a4c33c81ac0063036f7264010118746578742f706c61696e3b636861727365743d7574662d3800397b2270223a226272632d3230222c226f70223a227472616e73666572222c227469636b223a22696e6473222c22616d74223a2232353030227d68",
        "c166540c6741546d2f88c7a6e079b705a33a9cef200cdf7724b13aedb9a4c33c81"
      ],
      "is_coinbase": false,
      "sequence": 4294967293
    }
  ],
  "vout": [
    {
      "scriptpubkey": "001473480904a72d4d438b33766761d4677630e8328e",
      "scriptpubkey_asm": "OP_0 OP_PUSHBYTES_20 73480904a72d4d438b33766761d4677630e8328e",
      "scriptpubkey_type": "v0_p2wpkh",
      "scriptpubkey_address": "bc1qwdyqjp9894x58zenwenkr4r8wccwsv5wlswm8v",
      "value": 546
    }
  ],
  "size": 312,
  "weight": 558,
  "fee": 1885,
  "status": {
    "confirmed": true,
    "block_height": 834460,
    "block_hash": "00000000000000000000484a79b643b2524bbce82e5d8a442013fa5b8905ed98",
    "block_time": 1710307468
  },
  "hex": "01000000000101008d89592c8c9c7b92668a7c8bded09ceab1aee0ddb0494c7175e851525af25e0000000000fdffffff01220200000000000016001473480904a72d4d438b33766761d4677630e8328e0340fc7588d52efe5a25f05d452a9b4c73d859d9164ad1f91628f6846154630ed51baf92ce73be6670b75832803faabcb7dc32c5347e07c66db5e907cb2a1f0989a37f2066540c6741546d2f88c7a6e079b705a33a9cef200cdf7724b13aedb9a4c33c81ac0063036f7264010118746578742f706c61696e3b636861727365743d7574662d3800397b2270223a226272632d3230222c226f70223a227472616e73666572222c227469636b223a22696e6473222c22616d74223a2232353030227d6821c166540c6741546d2f88c7a6e079b705a33a9cef200cdf7724b13aedb9a4c33c8100000000"
}