{
  "txid": "84dea50bef01b32d92d902b0f1c53e5d42fe5a75204e83f565cd70e93fd28a27",
  "version": 2,
  "locktime": 0,
  "vin": [
    {
      "txid": "8486ecb4df0880316dd6e82b3971b4df187aff23765bc3a47f8d78bb53aa273c",
      "vout": 22,
      "prevout": {
        "scriptpubkey": "5120dcaf66811decef0b4972f852ddd8f5ed3b2984764c16f6efb4845536fc3a8518",
        "scriptpubkey_asm": "OP_PUSHNUM_1 OP_PUSHBYTES_32 dcaf66811decef0b4972f852ddd8f5ed3b2984764c16f6efb4845536fc3a8518",
        "scriptpubkey_type": "v1_p2tr",
        "scriptpubkey_address": "bc1pmjhkdqgaanhskjtjlpfdmk84a5ajnprkfst0dma5s32ndlp6s5vqspkjcv",
        "value": 2575
      },
      "scriptsig": "",
      "scriptsig_asm": "",
      "witness": [
        "3feb080954c1d5d2c0522e0d5f02bcd638497f6c8a193cd1026cc05f4316d3e8904e6b98ad2a9aeaa91d02392eafa01082fa6c7b09a8f21bc7068644a9765d0b",
        "20fbc4c81c04310fb3e3b3be14b2b15fdaeea00d51601ab33d50ba93d15fe0d0a6ac0063036f726401010a746578742f706c61696e00367b2270223a226272632d3230222c226f70223a226d696e74222c227469636b223a2261616161222c22616d74223a223130303030227d68",
        "c1fbc4c81c04310fb3e3b3be14b2b15fdaeea00d51601ab33d50ba93d15fe0d0a6"
      ],
      "is_coinbase": false,
      "sequence": 4261412863
    }
  ],
  "vout": [
    {
      "scriptpubkey": "0014ddd7ef12ea6f78edcc1e8e7afa12c01ab59f3339",
      "scriptpubkey_asm": "OP_0 OP_PUSHBYTES_20 ddd7ef12ea6f78edcc1e8e7afa12c01ab59f3339",
      "scriptpubkey_type": "v0_p2wpkh",
      "scriptpubkey_address": "bc1qmht77yh2dauwmnq73ea05ykqr26e7veea8spz6",
      "value": 546
    }
  ],
  "size": 295,
  "weight": 541,
  "fee": 2029,
  "status": {
    "confirmed": true,
    "block_height": 834460,
    "block_hash": "00000000000000000000484a79b643b2524bbce82e5d8a442013fa5b8905ed98",
    "block_time": 1710307468
  },
  "hex": "020000000001013c27aa53bb788d7fa4c35b7623ff7a18dfb471392be8d66d318008dfb4ec86841600000000fffffffd012202000000000000160014ddd7ef12ea6f78edcc1e8e7afa12c01ab59f333903403feb080954c1d5d2c0522e0d5f02bcd638497f6c8a193cd1026cc05f4316d3e8904e6b98ad2a9aeaa91d02392eafa01082fa6c7b09a8f21bc7068644a9765d0b6e20fbc4c81c04310fb3e3b3be14b2b15fdaeea00d51601ab33d50ba93d15fe0d0a6ac0063036f726401010a746578742f706c61696e00367b2270223a226272632d3230222c226f70223a226d696e74222c227469636b223a2261616161222c22616d74223a223130303030227d6821c1fbc4c81c04310fb3e3b3be14b2b15fdaeea00d51601ab33d50ba93d15fe0d0a600000000"
}