{
  "txid": "84df2c3d71d1dae9f957b06e3b14132eb8b02bf4fab6ff3b00d60295276c3d82",
  "version": 2,
  "locktime": 0,
  "vin": [
    {
      "txid": "3f69fae8ca9bdd774ca5294e86509449f431bb44e2206cae9f7f495b7952d9e2",
      "vout": 23,
      "prevout": {
        "scriptpubkey": "5120fe9e0cecdf1efa21ea121b6389b4eb5b2c30b413a42b71886548dbf70c4dcd4c",
        "scriptpubkey_asm": "OP_PUSHNUM_1 OP_PUSHBYTES_32 fe9e0cecdf1efa21ea121b6389b4eb5b2c30b413a42b71886548dbf70c4dcd4c",
        "scriptpubkey_type": "v1_p2tr",
        "scriptpubkey_address": "bc1pl60qemxlrmazr6sjrd3cnd8ttvkrpdqn5s4hrzr9frdlwrzde4xq0drrut",
        "value": 2996
      },
      "scriptsig": "",
      "scriptsig_asm": "",
      "witness": [
        "5fbf4e9dce792e3b5a2195b46129cab013f6358ab686e9e4a2ae953c3c39cfae4da7e09adffd802bab15c5b18ffa97d4452dd5e9b9c1be2ed6039ef25e04fb0f",
        "20b2ad95e7fe18bce9fa70b2e63451961c7fa893d08bde1f9c093fcb01af0a0a96ac0063036f726401011e6170706c69636174696f6e2f6a736f6e3b636861727365743d7574662d38004cb77b2270223a22706f772d3230222c226f70223a226d696e74222c227469636b223a2250455045222c22616d74223a2231303030222c22736f6c7574696f6e223a22504550453a334d524d3246744a42504c46315958564766504d33656556746675364446734762623a303030303030303030303030303030303030303139393431613561653132383937363539383134343239323533333030353762306461393666336465613163353a3534353637353438313437227d68",
        "c06b70a06f37e9fa1ff7e7bec8bd1210228b25051d0c17b5264cdd8c73b544f454"
      ],
      "is_coinbase": false,
      "sequence": 4294967295
    }
  ],
  "vout": [
    {
      "scriptpubkey": "a914d86bcd8c487ad519e95c6557e7463d579cce14a287",
      "scriptpubkey_asm": "OP_HASH160 OP_PUSHBYTES_20 d86bcd8c487ad519e95c6557e7463d579cce14a2 OP_EQUAL",
      "scriptpubkey_type": "p2sh",
      "scriptpubkey_address": "3MRM2FtJBPLF1YXVGfPM3eeVtfu6DFsGbb",
      "value": 546
    }
  ],
  "size": 448,
  "weight": 697,
  "fee": 2450,
  "status": {
    "confirmed": true,
    "block_height": 834460,
    "block_hash": "00000000000000000000484a79b643b2524bbce82e5d8a442013fa5b8905ed98",
    "block_time": 1710307468
  },
  "hex": "02000000000101e2d952795b497f9fae6c20e244bb31f4499450864e29a54c77dd9bcae8fa693f1700000000ffffffff01220200000000000017a914d86bcd8c487ad519e95c6557e7463d579cce14a28703405fbf4e9dce792e3b5a2195b46129cab013f6358ab686e9e4a2ae953c3c39cfae4da7e09adffd802bab15c5b18ffa97d4452dd5e9b9c1be2ed6039ef25e04fb0ffd040120b2ad95e7fe18bce9fa70b2e63451961c7fa893d08bde1f9c093fcb01af0a0a96ac0063036f726401011e6170706c69636174696f6e2f6a736f6e3b636861727365743d7574662d38004cb77b2270223a22706f772d3230222c226f70223a226d696e74222c227469636b223a2250455045222c22616d74223a2231303030222c22736f6c7574696f6e223a22504550453a334d524d3246744a42504c46315958564766504d33656556746675364446734762623a303030303030303030303030303030303030303139393431613561653132383937363539383134343239323533333030353762306461393666336465613163353a3534353637353438313437227d6821c06b70a06f37e9fa1ff7e7bec8bd1210228b25051d0c17b5264cdd8c73b544f45400000000"
}