{
  "txid": "84e0603e3b52bf10844fffb049e0f0cada2eb09f23a6508502b7bddb097a7443",
  "version": 2,
  "locktime": 0,
  "vin": [
    {
      "txid": "ffe82e75847a6bf57be1da82ffccc7c3f59c987bf92013592146264c6907db90",
      "vout": 0,
      "prevout": {
        "scriptpubkey": "5120126760f8c4d1f7fca045170cd4af3739ef86547341a1c9cbcc731c91b50a7d4d",
        "scriptpubkey_asm": "OP_PUSHNUM_1 OP_PUSHBYTES_32 126760f8c4d1f7fca045170cd4af3739ef86547341a1c9cbcc731c91b50a7d4d",
        "scriptpubkey_type": "v1_p2tr",
        "scriptpubkey_address": "bc1pzfnkp7xy68mlegz9zuxdfteh88hcv4rngxsunj7vwvwfrdg204xs2g75x5",
        "value": 2841
      },
      "scriptsig": "",
      "scriptsig_asm": "",
      "witness": [
        "46a5f2a4e47b4914415f47a3ec2f9127b3579e4e18aacee23758f3386e5d36cdd78e6e0de2996e4b18cd354544eef90754640a1759f8418ec5628d71dc12d864",
        "20c5fdc3c82d4d4ae6309c81930b4ee31c49a17929239be8abdec2fa1f09c21df3ac0063036f7264010118746578742f706c61696e3b636861727365743d7574662d38003f7b2270223a226272632d3230222c226f70223a227472616e73666572222c227469636b223a2273617473222c22616d74223a2234323237373235343437227d68",
        "c1c5fdc3c82d4d4ae6309c81930b4ee31c49a17929239be8abdec2fa1f09c21df3"
      ],
      "is_coinbase": false,
      "sequence": 4294967293
    }
  ],
  "vout": [
    {
      "scriptpubkey": "5120742288b396237ebbaffece721aceefa81ceca33331dc368ebb51c44ea24a965f",
      "scriptpubkey_asm": "OP_PUSHNUM_1 OP_PUSHBYTES_32 742288b396237ebbaffece721aceefa81ceca33331dc368ebb51c44ea24a965f",
      "scriptpubkey_type": "v1_p2tr",
      "scriptpubkey_address": "bc1pws3g3vukydlthtl7eeep4nh04qwwegenx8wrdr4m28zyagj2je0sdnu6ta",
      "value": 546
    }
  ],
  "size": 330,
  "weight": 612,
  "fee": 2295,
  "status": {
    "confirmed": true,
    "block_height": 834460,
    "block_hash": "00000000000000000000484a79b643b2524bbce82e5d8a442013fa5b8905ed98",
    "block_time": 1710307468
  },
  "hex": "0200000000010190db07694c264621591320f97b989cf5c3c7ccff82dae17bf56b7a84752ee8ff0000000000fdffffff012202000000000000225120742288b396237ebbaffece721aceefa81ceca33331dc368ebb51c44ea24a965f034046a5f2a4e47b4914415f47a3ec2f9127b3579e4e18aacee23758f3386e5d36cdd78e6e0de2996e4b18cd354544eef90754640a1759f8418ec5628d71dc12d8648520c5fdc3c82d4d4ae6309c81930b4ee31c49a17929239be8abdec2fa1f09c21df3ac0063036f7264010118746578742f706c61696e3b636861727365743d7574662d38003f7b2270223a226272632d3230222c226f70223a227472616e73666572222c227469636b223a2273617473222c22616d74223a2234323237373235343437227d6821c1c5fdc3c82d4d4ae6309c81930b4ee31c49a17929239be8abdec2fa1f09c21df300000000"
}