{
  "txid": "84e1fd4d2e63790e8a000e9f7ad232d67ce8e94b9820499b75d595aa53380a0e",
  "version": 2,
  "locktime": 0,
  "vin": [
    {
      "txid": "01ec4286fc0828e7f83acf354a76389bf8d67a2cb88cd4af30ffa9e81beb41ee",
      "vout": 5,
      "prevout": {
        "scriptpubkey": "00149fba6cb6005ce005d5186a79236e838bcc3bfe4d",
        "scriptpubkey_asm": "OP_0 OP_PUSHBYTES_20 9fba6cb6005ce005d5186a79236e838bcc3bfe4d",
        "scriptpubkey_type": "v0_p2wpkh",
        "scriptpubkey_address": "bc1qn7axedsqtnsqt4gcdfujxm5r30xrhljdusrlh7",
        "value": 300
      },
      "scriptsig": "",
      "scriptsig_asm": "",
      "witness": [
        "3045022100cac3195e441dd4d728d5b3f0c18091968f26fcf9674f3c28617150b87e91e92a022015b9bb1edbefa434f70bff83ec65fd12af085cf1b203626801f714cdc514366001",
        "031794606ec74be67febc1e46b72b04344214dda9624b0120ef285f73556e041bd"
      ],
      "is_coinbase": false,
      "sequence": 4294967295
    },
    {
      "txid": "01ec4286fc0828e7f83acf354a76389bf8d67a2cb88cd4af30ffa9e81beb41ee",
      "vout": 6,
      "prevout": {
        "scriptpubkey": "00149fba6cb6005ce005d5186a79236e838bcc3bfe4d",
        "scriptpubkey_asm": "OP_0 OP_PUSHBYTES_20 9fba6cb6005ce005d5186a79236e838bcc3bfe4d",
        "scriptpubkey_type": "v0_p2wpkh",
        "scriptpubkey_address": "bc1qn7axedsqtnsqt4gcdfujxm5r30xrhljdusrlh7",
        "value": 300
      },
      "scriptsig": "",
      "scriptsig_asm": "",
      "witness": [
        "3045022100865d2200ba0fbc30b03f7552e76c78701a267b256089256e861e2117257631750220345ca0b2ecd2843b2e4737e8c0e6c6b94f9cc2fc122f3b206323f5f6a93fb29101",
        "031794606ec74be67febc1e46b72b04344214dda9624b0120ef285f73556e041bd"
      ],
      "is_coinbase": false,
      "sequence": 4294967295
    },
    {
      "txid": "672ba7aed801964183adf0d8c6735e0f900868d090eba424a4aeb5ab7b7e6e92",
      "vout": 0,
      "prevout": {
        "scriptpubkey": "5120db62d6af2043c2d15691f3a8a309062016e144cf2e169966e3ea19946f2177c2",
        "scriptpubkey_asm": "OP_PUSHNUM_1 OP_PUSHBYTES_32 db62d6af2043c2d15691f3a8a309062016e144cf2e169966e3ea19946f2177c2",
        "scriptpubkey_type": "v1_p2tr",
        "scriptpubkey_address": "bc1pmd3ddteqg0pdz4537w52xzgxyqtwz3x09ctfjehragvegmepwlpqtlw7kc",
        "value": 330
      },
      "scriptsig": "",
      "scriptsig_asm": "",
      "witness": [
        "a13af01daf3c3a4905dcbfc7bfab93e87740cd6e218164abda9685463358715bf2a33b1b54573b055a6a067daf73768c99117140cfa76ffaf6f4577bd6fe8f1883"
      ],
      "is_coinbase": false,
      "sequence": 4294967295
    },
    {
      "txid": "62dbe354c60f0993add76ad8abe657709c85ea104fd2dff539be60989ff9fedc",
      "vout": 3,
      "prevout": {
        "scriptpubkey": "a9143ced718de0730f491ac56d49d2231d3691e2224d87",
        "scriptpubkey_asm": "OP_HASH160 OP_PUSHBYTES_20 3ced718de0730f491ac56d49d2231d3691e2224d OP_EQUAL",
        "scriptpubkey_type": "p2sh",
        "scriptpubkey_address": "37FAuvSHkwFJUWBrBW9svNsDMf9ou8YENg",
        "value": 1832237
      },
      "scriptsig": "16001476912ead807388aa2ec322753aaee1d88f6f2a25",
      "scriptsig_asm": "OP_PUSHBYTES_22 001476912ead807388aa2ec322753aaee1d88f6f2a25",
      "witness": [
        "3044022068a0d35bac2aa7429036ff3b8ae8949498534f684cc2f173c0f57c81dc120df602206aa56a793f949d6fbc277433640dc53f5328c75d17be6914cf8b98a9bfc0785f01",
        "0219d125cbf6eefdb514d69f30834826666cbe811c6e817b2c758360ab19f01acd"
      ],
      "is_coinbase": false,
      "sequence": 4294967295,
      "inner_redeemscript_asm": "OP_0 OP_PUSHBYTES_20 76912ead807388aa2ec322753aaee1d88f6f2a25"
    },
    {
      "txid": "01ec4286fc0828e7f83acf354a76389bf8d67a2cb88cd4af30ffa9e81beb41ee",
      "vout": 0,
      "prevout": {
        "scriptpubkey": "00149fba6cb6005ce005d5186a79236e838bcc3bfe4d",
        "scriptpubkey_asm": "OP_0 OP_PUSHBYTES_20 9fba6cb6005ce005d5186a79236e838bcc3bfe4d",
        "scriptpubkey_type": "v0_p2wpkh",
        "scriptpubkey_address": "bc1qn7axedsqtnsqt4gcdfujxm5r30xrhljdusrlh7",
        "value": 600
      },
      "scriptsig": "",
      "scriptsig_asm": "",
      "witness": [
        "3045022100eaeaa72813bd3d6b5ceed91e883fd9e81947e8643618267ed45952e0c4ee8b73022026467b7b9635590a5f4104eb69d15ffbb5f770ae789aceffddf9edd34a4f3f4301",
        "031794606ec74be67febc1e46b72b04344214dda9624b0120ef285f73556e041bd"
      ],
      "is_coinbase": false,
      "sequence": 4294967295
    }
  ],
  "vout": [
    {
      "scriptpubkey": "00149fba6cb6005ce005d5186a79236e838bcc3bfe4d",
      "scriptpubkey_asm": "OP_0 OP_PUSHBYTES_20 9fba6cb6005ce005d5186a79236e838bcc3bfe4d",
      "scriptpubkey_type": "v0_p2wpkh",
      "scriptpubkey_address": "bc1qn7axedsqtnsqt4gcdfujxm5r30xrhljdusrlh7",
      "value": 600
    },
    {
      "scriptpubkey": "5120ec11afdbaf374031f0b5dba142d5fa953dd4b1b9232f687c674a686c7203dd27",
      "scriptpubkey_asm": "OP_PUSHNUM_1 OP_PUSHBYTES_32 ec11afdbaf374031f0b5dba142d5fa953dd4b1b9232f687c674a686c7203dd27",
      "scriptpubkey_type": "v1_p2tr",
      "scriptpubkey_address": "bc1pasg6lka0xaqrru94mws59406j57afvdeyvhkslr8ff5xcusrm5nsxd0jq0",
      "value": 330
    },
    {
      "scriptpubkey": "5120db62d6af2043c2d15691f3a8a309062016e144cf2e169966e3ea19946f2177c2",
      "scriptpubkey_asm": "OP_PUSHNUM_1 OP_PUSHBYTES_32 db62d6af2043c2d15691f3a8a309062016e144cf2e169966e3ea19946f2177c2",
      "scriptpubkey_type": "v1_p2tr",
      "scriptpubkey_address": "bc1pmd3ddteqg0pdz4537w52xzgxyqtwz3x09ctfjehragvegmepwlpqtlw7kc",
      "value": 1190000
    },
    {
      "scriptpubkey": "0014762f29707b331e8099812e695c2ff0db63e6f702",
      "scriptpubkey_asm": "OP_0 OP_PUSHBYTES_20 762f29707b331e8099812e695c2ff0db63e6f702",
      "scriptpubkey_type": "v0_p2wpkh",
      "scriptpubkey_address": "bc1qwchjjurmxv0gpxvp9e54ctlsmd37daczufgcnt",
      "value": 5950
    },
    {
      "scriptpubkey": "a9143ced718de0730f491ac56d49d2231d3691e2224d87",
      "scriptpubkey_asm": "OP_HASH160 OP_PUSHBYTES_20 3ced718de0730f491ac56d49d2231d3691e2224d OP_EQUAL",
      "scriptpubkey_type": "p2sh",
      "scriptpubkey_address": "37FAuvSHkwFJUWBrBW9svNsDMf9ou8YENg",
      "value": 628402
    },
    {
      "scriptpubkey": "00149fba6cb6005ce005d5186a79236e838bcc3bfe4d",
      "scriptpubkey_asm": "OP_0 OP_PUSHBYTES_20 9fba6cb6005ce005d5186a79236e838bcc3bfe4d",
      "scriptpubkey_type": "v0_p2wpkh",
      "scriptpubkey_address": "bc1qn7axedsqtnsqt4gcdfujxm5r30xrhljdusrlh7",
      "value": 300
    },
    {
      "scriptpubkey": "00149fba6cb6005ce005d5186a79236e838bcc3bfe4d",
      "scriptpubkey_asm": "OP_0 OP_PUSHBYTES_20 9fba6cb6005ce005d5186a79236e838bcc3bfe4d",
      "scriptpubkey_type": "v0_p2wpkh",
      "scriptpubkey_address": "bc1qn7axedsqtnsqt4gcdfujxm5r30xrhljdusrlh7",
      "value": 300
    }
  ],
  "size": 980,
  "weight": 2420,
  "fee": 7885,
  "status": {
    "confirmed": true,
    "block_height": 834464,
    "block_hash": "0000000000000000000177a0869a911a2b65c9bdcd5a8bcb02b68f305bee848e",
    "block_time": 1710308296
  },
  "hex": "02000000000105ee41eb1be8a9ff30afd48cb82c7ad6f89b38764a35cf3af8e72808fc8642ec010500000000ffffffffee41eb1be8a9ff30afd48cb82c7ad6f89b38764a35cf3af8e72808fc8642ec010600000000ffffffff926e7e7babb5aea424a4eb90d06808900f5e73c6d8f0ad83419601d8aea72b670000000000ffffffffdcfef99f9860be39f5dfd24f10ea859c7057e6abd86ad7ad93090fc654e3db62030000001716001476912ead807388aa2ec322753aaee1d88f6f2a25ffffffffee41eb1be8a9ff30afd48cb82c7ad6f89b38764a35cf3af8e72808fc8642ec010000000000ffffffff0758020000000000001600149fba6cb6005ce005d5186a79236e838bcc3bfe4d4a01000000000000225120ec11afdbaf374031f0b5dba142d5fa953dd4b1b9232f687c674a686c7203dd277028120000000000225120db62d6af2043c2d15691f3a8a309062016e144cf2e169966e3ea19946f2177c23e17000000000000160014762f29707b331e8099812e695c2ff0db63e6f702b29609000000000017a9143ced718de0730f491ac56d49d2231d3691e2224d872c010000000000001600149fba6cb6005ce005d5186a79236e838bcc3bfe4d2c010000000000001600149fba6cb6005ce005d5186a79236e838bcc3bfe4d02483045022100cac3195e441dd4d728d5b3f0c18091968f26fcf9674f3c28617150b87e91e92a022015b9bb1edbefa434f70bff83ec65fd12af085cf1b203626801f714cdc51436600121031794606ec74be67febc1e46b72b04344214dda9624b0120ef285f73556e041bd02483045022100865d2200ba0fbc30b03f7552e76c78701a267b256089256e861e2117257631750220345ca0b2ecd2843b2e4737e8c0e6c6b94f9cc2fc122f3b206323f5f6a93fb2910121031794606ec74be67febc1e46b72b04344214dda9624b0120ef285f73556e041bd0141a13af01daf3c3a4905dcbfc7bfab93e87740cd6e218164abda9685463358715bf2a33b1b54573b055a6a067daf73768c99117140cfa76ffaf6f4577bd6fe8f188302473044022068a0d35bac2aa7429036ff3b8ae8949498534f684cc2f173c0f57c81dc120df602206aa56a793f949d6fbc277433640dc53f5328c75d17be6914cf8b98a9bfc0785f01210219d125cbf6eefdb514d69f30834826666cbe811c6e817b2c758360ab19f01acd02483045022100eaeaa72813bd3d6b5ceed91e883fd9e81947e8643618267ed45952e0c4ee8b73022026467b7b9635590a5f4104eb69d15ffbb5f770ae789aceffddf9edd34a4f3f430121031794606ec74be67febc1e46b72b04344214dda9624b0120ef285f73556e041bd00000000"
}