{
  "txid": "84f48b67aef958b5a386b607949f45486266b34c5f9ba3d1c902f7d33ad99f93",
  "version": 2,
  "locktime": 0,
  "vin": [
    {
      "txid": "bf9f73f20a97c0a4f1f708643a4280f71cf3ea32ab54689e3b32fc47e86aaa99",
      "vout": 0,
      "prevout": {
        "scriptpubkey": "0014a0f5fef71dd68869604592becf347a977e2087d0",
        "scriptpubkey_asm": "OP_0 OP_PUSHBYTES_20 a0f5fef71dd68869604592becf347a977e2087d0",
        "scriptpubkey_type": "v0_p2wpkh",
        "scriptpubkey_address": "bc1q5r6laaca66yxjcz9j2lv7dr6jalzpp7skcpscv",
        "value": 4909107
      },
      "scriptsig": "",
      "scriptsig_asm": "",
      "witness": [
        "304402202c35c775a8a04c97a47537b625181fb81d7977d07ece0c7c8badd02e6cea478b02205907318abf73c4b6c8a601830a1fd0c63260861e124b9a337340f7b88bf6670b01",
        "02756c3cebbccc3f4fa12909fec00d3e30b99a45c7c1e59509e25cd24cf0069ade"
      ],
      "is_coinbase": false,
      "sequence": 4294967295
    }
  ],
  "vout": [
    {
      "scriptpubkey": "0014a0f5fef71dd68869604592becf347a977e2087d0",
      "scriptpubkey_asm": "OP_0 OP_PUSHBYTES_20 a0f5fef71dd68869604592becf347a977e2087d0",
      "scriptpubkey_type": "v0_p2wpkh",
      "scriptpubkey_address": "bc1q5r6laaca66yxjcz9j2lv7dr6jalzpp7skcpscv",
      "value": 1986598
    },
    {
      "scriptpubkey": "00140aba61b095303878eb2c7a03d03f032ca4c281ac",
      "scriptpubkey_asm": "OP_0 OP_PUSHBYTES_20 0aba61b095303878eb2c7a03d03f032ca4c281ac",
      "scriptpubkey_type": "v0_p2wpkh",
      "scriptpubkey_address": "bc1qp2axrvy4xqu836ev0gpaq0cr9jjv9qdvq7xrsl",
      "value": 2920409
    }
  ],
  "size": 222,
  "weight": 561,
  "fee": 2100,
  "status": {
    "confirmed": true,
    "block_height": 834638,
    "block_hash": "000000000000000000025f742c626208ac87e0b7d15054abb4a19ca2d735a54e",
    "block_time": 1710405325
  },
  "hex": "0200000000010199aa6ae847fc323b9e6854ab32eaf31cf780423a6408f7f1a4c0970af2739fbf0000000000ffffffff0226501e0000000000160014a0f5fef71dd68869604592becf347a977e2087d0d98f2c00000000001600140aba61b095303878eb2c7a03d03f032ca4c281ac0247304402202c35c775a8a04c97a47537b625181fb81d7977d07ece0c7c8badd02e6cea478b02205907318abf73c4b6c8a601830a1fd0c63260861e124b9a337340f7b88bf6670b012102756c3cebbccc3f4fa12909fec00d3e30b99a45c7c1e59509e25cd24cf0069ade00000000"
}