{
  "txid": "84fdc1a1e915cae357bbed97393ad3ff808b8f32e9816770b2563f5553b69cad",
  "version": 2,
  "locktime": 0,
  "vin": [
    {
      "txid": "4ee77778659dcfe8d7a4e15882fc6193f4f3d5f6607624e256337b44c2280af5",
      "vout": 59,
      "prevout": {
        "scriptpubkey": "51206c0f4d1b4a4033813aac1d402a606cf2c6258df86258c62877cebc84de9f0bf1",
        "scriptpubkey_asm": "OP_PUSHNUM_1 OP_PUSHBYTES_32 6c0f4d1b4a4033813aac1d402a606cf2c6258df86258c62877cebc84de9f0bf1",
        "scriptpubkey_type": "v1_p2tr",
        "scriptpubkey_address": "bc1pds856x62gqeczw4vr4qz5crv7trztr0cvfvvv2rhe67gfh5lp0csfmdwrc",
        "value": 2075
      },
      "scriptsig": "",
      "scriptsig_asm": "",
      "witness": [
        "d3ae7a87e351773b804f131a3c1f33b95e0d8d4036d51abdcbc6970a5a37ac40d770f9b58e3a4d0970af270e915d8bfd52ab9ce4e3de41438c4085a73a4c067a",
        "20a0c6f32784b7d388ac5c966d015387c535d802eed38c9d79a230b23888ae4762ac0063036f7264010118746578742f706c61696e3b636861727365743d7574662d3800357b2270223a224252432d313030222c226f70223a226d696e74222c227469636b223a22696e73222c22616d74223a2231303030227d68",
        "c0c50eac15d7d7889f5ad84f80015e8a209129aeea937c37fa4b8bc0f9be289730"
      ],
      "is_coinbase": false,
      "sequence": 4294967295
    }
  ],
  "vout": [
    {
      "scriptpubkey": "00143e2325412b554cacdd163a93a42204c4707f8851",
      "scriptpubkey_asm": "OP_0 OP_PUSHBYTES_20 3e2325412b554cacdd163a93a42204c4707f8851",
      "scriptpubkey_type": "v0_p2wpkh",
      "scriptpubkey_address": "bc1q8c3j2sft24x2ehgk82f6ggsyc3c8lzz3yw9wsu",
      "value": 546
    }
  ],
  "size": 308,
  "weight": 554,
  "fee": 1529,
  "status": {
    "confirmed": true,
    "block_height": 834464,
    "block_hash": "0000000000000000000177a0869a911a2b65c9bdcd5a8bcb02b68f305bee848e",
    "block_time": 1710308296
  },
  "hex": "02000000000101f50a28c2447b3356e2247660f6d5f3f49361fc8258e1a4d7e8cf9d657877e74e3b00000000ffffffff0122020000000000001600143e2325412b554cacdd163a93a42204c4707f88510340d3ae7a87e351773b804f131a3c1f33b95e0d8d4036d51abdcbc6970a5a37ac40d770f9b58e3a4d0970af270e915d8bfd52ab9ce4e3de41438c4085a73a4c067a7b20a0c6f32784b7d388ac5c966d015387c535d802eed38c9d79a230b23888ae4762ac0063036f7264010118746578742f706c61696e3b636861727365743d7574662d3800357b2270223a224252432d313030222c226f70223a226d696e74222c227469636b223a22696e73222c22616d74223a2231303030227d6821c0c50eac15d7d7889f5ad84f80015e8a209129aeea937c37fa4b8bc0f9be28973000000000"
}