{
  "txid": "850a93d11a35c42c331ea1118385dcecc91cc7a14dbdeb362d2f0f7f86d362a0",
  "version": 2,
  "locktime": 0,
  "vin": [
    {
      "txid": "3f69fae8ca9bdd774ca5294e86509449f431bb44e2206cae9f7f495b7952d9e2",
      "vout": 2,
      "prevout": {
        "scriptpubkey": "51205b1ba8c0077cfa6137bf21e12becd5ad07b82a32850026fd5e2dc05528bb2d75",
        "scriptpubkey_asm": "OP_PUSHNUM_1 OP_PUSHBYTES_32 5b1ba8c0077cfa6137bf21e12becd5ad07b82a32850026fd5e2dc05528bb2d75",
        "scriptpubkey_type": "v1_p2tr",
        "scriptpubkey_address": "bc1ptvd63sq80naxzdaly8sjhmx445rms23js5qzdl279hq9229m946sekk2pa",
        "value": 2996
      },
      "scriptsig": "",
      "scriptsig_asm": "",
      "witness": [
        "61368e310d4c1a216a335de27e2d21c864c85398f648a058141cae0ef89b3166f70fda6c7a946736fcd6247555e45736bd7dc06ccdd8e605844d9ab0e4ef5390",
        "20559ed80152419b0e579753ed9c5efe926006c1d7479cc8fd5e871a1f6d5696b7ac0063036f726401011e6170706c69636174696f6e2f6a736f6e3b636861727365743d7574662d38004cb77b2270223a22706f772d3230222c226f70223a226d696e74222c227469636b223a2250455045222c22616d74223a2231303030222c22736f6c7574696f6e223a22504550453a334d524d3246744a42504c46315958564766504d33656556746675364446734762623a303030303030303030303030303030303030303139393431613561653132383937363539383134343239323533333030353762306461393666336465613163353a3533333637333331343234227d68",
        "c16b70a06f37e9fa1ff7e7bec8bd1210228b25051d0c17b5264cdd8c73b544f454"
      ],
      "is_coinbase": false,
      "sequence": 4294967295
    }
  ],
  "vout": [
    {
      "scriptpubkey": "a914d86bcd8c487ad519e95c6557e7463d579cce14a287",
      "scriptpubkey_asm": "OP_HASH160 OP_PUSHBYTES_20 d86bcd8c487ad519e95c6557e7463d579cce14a2 OP_EQUAL",
      "scriptpubkey_type": "p2sh",
      "scriptpubkey_address": "3MRM2FtJBPLF1YXVGfPM3eeVtfu6DFsGbb",
      "value": 546
    }
  ],
  "size": 448,
  "weight": 697,
  "fee": 2450,
  "status": {
    "confirmed": true,
    "block_height": 834460,
    "block_hash": "00000000000000000000484a79b643b2524bbce82e5d8a442013fa5b8905ed98",
    "block_time": 1710307468
  },
  "hex": "02000000000101e2d952795b497f9fae6c20e244bb31f4499450864e29a54c77dd9bcae8fa693f0200000000ffffffff01220200000000000017a914d86bcd8c487ad519e95c6557e7463d579cce14a287034061368e310d4c1a216a335de27e2d21c864c85398f648a058141cae0ef89b3166f70fda6c7a946736fcd6247555e45736bd7dc06ccdd8e605844d9ab0e4ef5390fd040120559ed80152419b0e579753ed9c5efe926006c1d7479cc8fd5e871a1f6d5696b7ac0063036f726401011e6170706c69636174696f6e2f6a736f6e3b636861727365743d7574662d38004cb77b2270223a22706f772d3230222c226f70223a226d696e74222c227469636b223a2250455045222c22616d74223a2231303030222c22736f6c7574696f6e223a22504550453a334d524d3246744a42504c46315958564766504d33656556746675364446734762623a303030303030303030303030303030303030303139393431613561653132383937363539383134343239323533333030353762306461393666336465613163353a3533333637333331343234227d6821c16b70a06f37e9fa1ff7e7bec8bd1210228b25051d0c17b5264cdd8c73b544f45400000000"
}