{
  "txid": "850d9841ec040916948e2fd554f5d2fa310efd0cea960679224797b640a2a31f",
  "version": 2,
  "locktime": 834637,
  "vin": [
    {
      "txid": "808bf8edc74945f9ffc7f37097725dc0aa06658625029d2cb6a49d2925b8f54b",
      "vout": 1,
      "prevout": {
        "scriptpubkey": "001431eeb0596a1f5bb68f03d07232b9fc4205b06b8b",
        "scriptpubkey_asm": "OP_0 OP_PUSHBYTES_20 31eeb0596a1f5bb68f03d07232b9fc4205b06b8b",
        "scriptpubkey_type": "v0_p2wpkh",
        "scriptpubkey_address": "bc1qx8htqkt2radmdrcr6per9w0uggzmq6utlzu0mk",
        "value": 1627413
      },
      "scriptsig": "",
      "scriptsig_asm": "",
      "witness": [
        "304402206cfd05fe40a9dad349b2375b2f83cff1c195b393d13eaf0f15a2fee9544a91c70220745f8d0555716b886c5e4c3b78ebc57b5936d2c58f803f25fd07817d23af706501",
        "03ebf9f207a396a46fc56c971382dcc3b8b9c566e4e9d3ba93477be96670a61158"
      ],
      "is_coinbase": false,
      "sequence": 4294967293
    }
  ],
  "vout": [
    {
      "scriptpubkey": "0014d6ef544b6bbda4d983522de8dc2fc7ed7359dd8b",
      "scriptpubkey_asm": "OP_0 OP_PUSHBYTES_20 d6ef544b6bbda4d983522de8dc2fc7ed7359dd8b",
      "scriptpubkey_type": "v0_p2wpkh",
      "scriptpubkey_address": "bc1q6mh4gjmthkjdnq6j9h5dct78a4e4nhvt9vg2q2",
      "value": 1531023
    },
    {
      "scriptpubkey": "0014201e26fe980d81031d5179a4f4f2ca81df1083f3",
      "scriptpubkey_asm": "OP_0 OP_PUSHBYTES_20 201e26fe980d81031d5179a4f4f2ca81df1083f3",
      "scriptpubkey_type": "v0_p2wpkh",
      "scriptpubkey_address": "bc1qyq0zdl5cpkqsx8230xj0fuk2s803pqlng3jkmf",
      "value": 94134
    }
  ],
  "size": 222,
  "weight": 561,
  "fee": 2256,
  "status": {
    "confirmed": true,
    "block_height": 834638,
    "block_hash": "000000000000000000025f742c626208ac87e0b7d15054abb4a19ca2d735a54e",
    "block_time": 1710405325
  },
  "hex": "020000000001014bf5b825299da4b62c9d0225866506aac05d729770f3c7fff94549c7edf88b800100000000fdffffff028f5c170000000000160014d6ef544b6bbda4d983522de8dc2fc7ed7359dd8bb66f010000000000160014201e26fe980d81031d5179a4f4f2ca81df1083f30247304402206cfd05fe40a9dad349b2375b2f83cff1c195b393d13eaf0f15a2fee9544a91c70220745f8d0555716b886c5e4c3b78ebc57b5936d2c58f803f25fd07817d23af7065012103ebf9f207a396a46fc56c971382dcc3b8b9c566e4e9d3ba93477be96670a611584dbc0c00"
}