{
  "txid": "850d61429436d22ce52592003928f4b075747adb0bfbd69a31b45d5296b56455",
  "version": 2,
  "locktime": 0,
  "vin": [
    {
      "txid": "b91771cda0cfc67f6ec936035613e56a680077a15fc263c19efe04ee10078489",
      "vout": 0,
      "prevout": {
        "scriptpubkey": "512093a26450a2daac1b796367ec9428d001df79e183d8fe0ea7f522d99a57cac898",
        "scriptpubkey_asm": "OP_PUSHNUM_1 OP_PUSHBYTES_32 93a26450a2daac1b796367ec9428d001df79e183d8fe0ea7f522d99a57cac898",
        "scriptpubkey_type": "v1_p2tr",
        "scriptpubkey_address": "bc1pjw3xg59zm2kpk7trvlkfg2xsq80hncvrmrlqafl4ytve5472ezvqmfmtf3",
        "value": 600
      },
      "scriptsig": "",
      "scriptsig_asm": "",
      "witness": [
        "7267ebf0353475c881152955a20bc7276daa9ed1778a4dd3b086411ed7c0a1da51a93765ebed2212820ca5e01c17595acb59c6231703620b5e1b3981d26deba3"
      ],
      "is_coinbase": false,
      "sequence": 4294967295
    },
    {
      "txid": "b91771cda0cfc67f6ec936035613e56a680077a15fc263c19efe04ee10078489",
      "vout": 1,
      "prevout": {
        "scriptpubkey": "512093a26450a2daac1b796367ec9428d001df79e183d8fe0ea7f522d99a57cac898",
        "scriptpubkey_asm": "OP_PUSHNUM_1 OP_PUSHBYTES_32 93a26450a2daac1b796367ec9428d001df79e183d8fe0ea7f522d99a57cac898",
        "scriptpubkey_type": "v1_p2tr",
        "scriptpubkey_address": "bc1pjw3xg59zm2kpk7trvlkfg2xsq80hncvrmrlqafl4ytve5472ezvqmfmtf3",
        "value": 600
      },
      "scriptsig": "",
      "scriptsig_asm": "",
      "witness": [
        "144901688a216abc36e1e225f7585c50688a9c6b0d8d1c0966241bfa6a07ba48a49445ba0c668fbcbe2e7a861015e451a95bcd400c568fb23e8020ca4cf5a629"
      ],
      "is_coinbase": false,
      "sequence": 4294967295
    },
    {
      "txid": "0b530528ac8e1fbfe065e1800a64c98af24b20385b2bbefff52b821d6cd51ea1",
      "vout": 0,
      "prevout": {
        "scriptpubkey": "51209f5aa4da29768116a9fbb93b86e6dff3925d0c28a1006baf171302ecaca72fc3",
        "scriptpubkey_asm": "OP_PUSHNUM_1 OP_PUSHBYTES_32 9f5aa4da29768116a9fbb93b86e6dff3925d0c28a1006baf171302ecaca72fc3",
        "scriptpubkey_type": "v1_p2tr",
        "scriptpubkey_address": "bc1pnad2fk3fw6q3d20mhyacdekl7wf96rpg5yqxhtchzvpwet989lpsmvuc9n",
        "value": 546
      },
      "scriptsig": "",
      "scriptsig_asm": "",
      "witness": [
        "f0535214fc10fd6171880f40e6a4afd150a3a0f977b791226bdb0792978a76d896f9a883ec052abb598739e54f2b9f84623d0e4a34d7d0a523e7758772e5d1fd83"
      ],
      "is_coinbase": false,
      "sequence": 4294967295
    },
    {
      "txid": "b91771cda0cfc67f6ec936035613e56a680077a15fc263c19efe04ee10078489",
      "vout": 2,
      "prevout": {
        "scriptpubkey": "512093a26450a2daac1b796367ec9428d001df79e183d8fe0ea7f522d99a57cac898",
        "scriptpubkey_asm": "OP_PUSHNUM_1 OP_PUSHBYTES_32 93a26450a2daac1b796367ec9428d001df79e183d8fe0ea7f522d99a57cac898",
        "scriptpubkey_type": "v1_p2tr",
        "scriptpubkey_address": "bc1pjw3xg59zm2kpk7trvlkfg2xsq80hncvrmrlqafl4ytve5472ezvqmfmtf3",
        "value": 188645
      },
      "scriptsig": "",
      "scriptsig_asm": "",
      "witness": [
        "3d9bd4dd6e85a4844dde02db446196d0d9c19ca2edb79a4699ba36ac8a1e8508ceb568e5afd9458461b67e0421a172cf63daafdc15e98b0c61c3681a4258290e"
      ],
      "is_coinbase": false,
      "sequence": 4294967295
    }
  ],
  "vout": [
    {
      "scriptpubkey": "512093a26450a2daac1b796367ec9428d001df79e183d8fe0ea7f522d99a57cac898",
      "scriptpubkey_asm": "OP_PUSHNUM_1 OP_PUSHBYTES_32 93a26450a2daac1b796367ec9428d001df79e183d8fe0ea7f522d99a57cac898",
      "scriptpubkey_type": "v1_p2tr",
      "scriptpubkey_address": "bc1pjw3xg59zm2kpk7trvlkfg2xsq80hncvrmrlqafl4ytve5472ezvqmfmtf3",
      "value": 1200
    },
    {
      "scriptpubkey": "512093a26450a2daac1b796367ec9428d001df79e183d8fe0ea7f522d99a57cac898",
      "scriptpubkey_asm": "OP_PUSHNUM_1 OP_PUSHBYTES_32 93a26450a2daac1b796367ec9428d001df79e183d8fe0ea7f522d99a57cac898",
      "scriptpubkey_type": "v1_p2tr",
      "scriptpubkey_address": "bc1pjw3xg59zm2kpk7trvlkfg2xsq80hncvrmrlqafl4ytve5472ezvqmfmtf3",
      "value": 546
    },
    {
      "scriptpubkey": "51209f5aa4da29768116a9fbb93b86e6dff3925d0c28a1006baf171302ecaca72fc3",
      "scriptpubkey_asm": "OP_PUSHNUM_1 OP_PUSHBYTES_32 9f5aa4da29768116a9fbb93b86e6dff3925d0c28a1006baf171302ecaca72fc3",
      "scriptpubkey_type": "v1_p2tr",
      "scriptpubkey_address": "bc1pnad2fk3fw6q3d20mhyacdekl7wf96rpg5yqxhtchzvpwet989lpsmvuc9n",
      "value": 171000
    },
    {
      "scriptpubkey": "512093a26450a2daac1b796367ec9428d001df79e183d8fe0ea7f522d99a57cac898",
      "scriptpubkey_asm": "OP_PUSHNUM_1 OP_PUSHBYTES_32 93a26450a2daac1b796367ec9428d001df79e183d8fe0ea7f522d99a57cac898",
      "scriptpubkey_type": "v1_p2tr",
      "scriptpubkey_address": "bc1pjw3xg59zm2kpk7trvlkfg2xsq80hncvrmrlqafl4ytve5472ezvqmfmtf3",
      "value": 600
    },
    {
      "scriptpubkey": "512093a26450a2daac1b796367ec9428d001df79e183d8fe0ea7f522d99a57cac898",
      "scriptpubkey_asm": "OP_PUSHNUM_1 OP_PUSHBYTES_32 93a26450a2daac1b796367ec9428d001df79e183d8fe0ea7f522d99a57cac898",
      "scriptpubkey_type": "v1_p2tr",
      "scriptpubkey_address": "bc1pjw3xg59zm2kpk7trvlkfg2xsq80hncvrmrlqafl4ytve5472ezvqmfmtf3",
      "value": 600
    },
    {
      "scriptpubkey": "512093a26450a2daac1b796367ec9428d001df79e183d8fe0ea7f522d99a57cac898",
      "scriptpubkey_asm": "OP_PUSHNUM_1 OP_PUSHBYTES_32 93a26450a2daac1b796367ec9428d001df79e183d8fe0ea7f522d99a57cac898",
      "scriptpubkey_type": "v1_p2tr",
      "scriptpubkey_address": "bc1pjw3xg59zm2kpk7trvlkfg2xsq80hncvrmrlqafl4ytve5472ezvqmfmtf3",
      "value": 8960
    }
  ],
  "size": 699,
  "weight": 1995,
  "fee": 7485,
  "status": {
    "confirmed": true,
    "block_height": 834638,
    "block_hash": "000000000000000000025f742c626208ac87e0b7d15054abb4a19ca2d735a54e",
    "block_time": 1710405325
  },
  "hex": "0200000000010489840710ee04fe9ec163c25fa17700686ae513560336c96e7fc6cfa0cd7117b90000000000ffffffff89840710ee04fe9ec163c25fa17700686ae513560336c96e7fc6cfa0cd7117b90100000000ffffffffa11ed56c1d822bf5ffbe2b5b38204bf28ac9640a80e165e0bf1f8eac2805530b0000000000ffffffff89840710ee04fe9ec163c25fa17700686ae513560336c96e7fc6cfa0cd7117b90200000000ffffffff06b00400000000000022512093a26450a2daac1b796367ec9428d001df79e183d8fe0ea7f522d99a57cac898220200000000000022512093a26450a2daac1b796367ec9428d001df79e183d8fe0ea7f522d99a57cac898f89b0200000000002251209f5aa4da29768116a9fbb93b86e6dff3925d0c28a1006baf171302ecaca72fc3580200000000000022512093a26450a2daac1b796367ec9428d001df79e183d8fe0ea7f522d99a57cac898580200000000000022512093a26450a2daac1b796367ec9428d001df79e183d8fe0ea7f522d99a57cac898002300000000000022512093a26450a2daac1b796367ec9428d001df79e183d8fe0ea7f522d99a57cac89801407267ebf0353475c881152955a20bc7276daa9ed1778a4dd3b086411ed7c0a1da51a93765ebed2212820ca5e01c17595acb59c6231703620b5e1b3981d26deba30140144901688a216abc36e1e225f7585c50688a9c6b0d8d1c0966241bfa6a07ba48a49445ba0c668fbcbe2e7a861015e451a95bcd400c568fb23e8020ca4cf5a6290141f0535214fc10fd6171880f40e6a4afd150a3a0f977b791226bdb0792978a76d896f9a883ec052abb598739e54f2b9f84623d0e4a34d7d0a523e7758772e5d1fd8301403d9bd4dd6e85a4844dde02db446196d0d9c19ca2edb79a4699ba36ac8a1e8508ceb568e5afd9458461b67e0421a172cf63daafdc15e98b0c61c3681a4258290e00000000"
}