{
  "txid": "85191581505bba5048b1a6ae39a1e3adf65b5f38018406f0d5563cbf51e534c5",
  "version": 1,
  "locktime": 0,
  "vin": [
    {
      "txid": "1270a5bf5bbb42dfb7d0bc9b693bb9e168c4d0d8c692334664fae2429e3efd9c",
      "vout": 1,
      "prevout": {
        "scriptpubkey": "51209d6dbbf9bad17d0135e06ea56ec304df985f9f9bc809fa52ae6789a0947e0300",
        "scriptpubkey_asm": "OP_PUSHNUM_1 OP_PUSHBYTES_32 9d6dbbf9bad17d0135e06ea56ec304df985f9f9bc809fa52ae6789a0947e0300",
        "scriptpubkey_type": "v1_p2tr",
        "scriptpubkey_address": "bc1pn4kmh7d6697szd0qd6jkascym7v9l8umeqyl554wv7y6p9r7qvqquzkndh",
        "value": 343782
      },
      "scriptsig": "",
      "scriptsig_asm": "",
      "witness": [
        "43e070c662f1d6ae24b9a30704b7a344c969724910702ebc11623968d2294144e38fca5a5042696c86773a79f2307ab883d18e7dbcd70d13a425e45db0e6d524"
      ],
      "is_coinbase": false,
      "sequence": 3489671936
    }
  ],
  "vout": [
    {
      "scriptpubkey": "5120afabe64c64b02761c80f068a3000ecd8eadb2f0ea5ef7281bb42cb7056b3ce1a",
      "scriptpubkey_asm": "OP_PUSHNUM_1 OP_PUSHBYTES_32 afabe64c64b02761c80f068a3000ecd8eadb2f0ea5ef7281bb42cb7056b3ce1a",
      "scriptpubkey_type": "v1_p2tr",
      "scriptpubkey_address": "bc1p4747vnrykqnkrjq0q69rqq8vmr4dktcw5hhh9qdmgt9hq44necdq5w03u2",
      "value": 3344
    },
    {
      "scriptpubkey": "51209d6dbbf9bad17d0135e06ea56ec304df985f9f9bc809fa52ae6789a0947e0300",
      "scriptpubkey_asm": "OP_PUSHNUM_1 OP_PUSHBYTES_32 9d6dbbf9bad17d0135e06ea56ec304df985f9f9bc809fa52ae6789a0947e0300",
      "scriptpubkey_type": "v1_p2tr",
      "scriptpubkey_address": "bc1pn4kmh7d6697szd0qd6jkascym7v9l8umeqyl554wv7y6p9r7qvqquzkndh",
      "value": 337974
    }
  ],
  "size": 205,
  "weight": 616,
  "fee": 2464,
  "status": {
    "confirmed": true,
    "block_height": 834460,
    "block_hash": "00000000000000000000484a79b643b2524bbce82e5d8a442013fa5b8905ed98",
    "block_time": 1710307468
  },
  "hex": "010000000001019cfd3e9e42e2fa64463392c6d8d0c468e1b93b699bbcd0b7df42bb5bbfa570120100000000002b00d002100d000000000000225120afabe64c64b02761c80f068a3000ecd8eadb2f0ea5ef7281bb42cb7056b3ce1a36280500000000002251209d6dbbf9bad17d0135e06ea56ec304df985f9f9bc809fa52ae6789a0947e0300014043e070c662f1d6ae24b9a30704b7a344c969724910702ebc11623968d2294144e38fca5a5042696c86773a79f2307ab883d18e7dbcd70d13a425e45db0e6d52400000000"
}