{
  "txid": "8519bad4672807650d689487a8f1ed93ea0d75875b5e5bd3b1e02e5b436fa358",
  "version": 2,
  "locktime": 0,
  "vin": [
    {
      "txid": "c10e48caeee8756d57fbce0e4f26c1d08bb9f0d4a35c2d26269682da8df04dac",
      "vout": 27,
      "prevout": {
        "scriptpubkey": "5120f5cb09ad0cf06c9977f24394afe614dddc1cc26da885345105c67edff6b9aaa8",
        "scriptpubkey_asm": "OP_PUSHNUM_1 OP_PUSHBYTES_32 f5cb09ad0cf06c9977f24394afe614dddc1cc26da885345105c67edff6b9aaa8",
        "scriptpubkey_type": "v1_p2tr",
        "scriptpubkey_address": "bc1p7h9sntgv7pkfjaljgw22les5mhwpesnd4zzng5g9celdla4e425qc2gykt",
        "value": 3634
      },
      "scriptsig": "",
      "scriptsig_asm": "",
      "witness": [
        "6af1518151e7808a24b254fd70708114ac6764316a2077dc226ef4202fb1b844c67e046e7418bd24359128f0d60b027ff8861fb2f960ca6409cde91e7fa6e6fd",
        "2031f1683e8c28b1a43314d5b64860770ba8e524308b31402f62fcefcb7b72e802ac0063036f726401011e6170706c69636174696f6e2f6a736f6e3b636861727365743d7574662d38004cd37b2270223a22706f772d3230222c226f70223a226d696e74222c227469636b223a2250455045222c22616d74223a2231303030222c22736f6c7574696f6e223a22504550453a6263317071336e67663775716e73667434706d37357236397371616c6c30637068747278677773757a6d657864356c337039333566366d713666337664383a303030303030303030303030303030303030303139393431613561653132383937363539383134343239323533333030353762306461393666336465613163353a3633323639393935383237227d68",
        "c0406c0f2a67700582b42f36a71eb03478d57ba1acdc179ee1ec758acb282de3fd"
      ],
      "is_coinbase": false,
      "sequence": 4294967295
    }
  ],
  "vout": [
    {
      "scriptpubkey": "5120046684fb809c12ba877ea0f45803bffbf01bac6643a1c16f266d3f1096344eb6",
      "scriptpubkey_asm": "OP_PUSHNUM_1 OP_PUSHBYTES_32 046684fb809c12ba877ea0f45803bffbf01bac6643a1c16f266d3f1096344eb6",
      "scriptpubkey_type": "v1_p2tr",
      "scriptpubkey_address": "bc1pq3ngf7uqnsft4pm75r69sqall0cphtrxgwsuzmexd5l3p935f6mq6f3vd8",
      "value": 546
    }
  ],
  "size": 487,
  "weight": 769,
  "fee": 3088,
  "status": {
    "confirmed": true,
    "block_height": 834460,
    "block_hash": "00000000000000000000484a79b643b2524bbce82e5d8a442013fa5b8905ed98",
    "block_time": 1710307468
  },
  "hex": "02000000000101ac4df08dda829626262d5ca3d4f0b98bd0c1264f0ecefb576d75e8eeca480ec11b00000000ffffffff012202000000000000225120046684fb809c12ba877ea0f45803bffbf01bac6643a1c16f266d3f1096344eb603406af1518151e7808a24b254fd70708114ac6764316a2077dc226ef4202fb1b844c67e046e7418bd24359128f0d60b027ff8861fb2f960ca6409cde91e7fa6e6fdfd20012031f1683e8c28b1a43314d5b64860770ba8e524308b31402f62fcefcb7b72e802ac0063036f726401011e6170706c69636174696f6e2f6a736f6e3b636861727365743d7574662d38004cd37b2270223a22706f772d3230222c226f70223a226d696e74222c227469636b223a2250455045222c22616d74223a2231303030222c22736f6c7574696f6e223a22504550453a6263317071336e67663775716e73667434706d37357236397371616c6c30637068747278677773757a6d657864356c337039333566366d713666337664383a303030303030303030303030303030303030303139393431613561653132383937363539383134343239323533333030353762306461393666336465613163353a3633323639393935383237227d6821c0406c0f2a67700582b42f36a71eb03478d57ba1acdc179ee1ec758acb282de3fd00000000"
}