{
  "txid": "851a10c20be1bf696009b7452283a1c1801ae3f628340a366511f972cb27e709",
  "version": 1,
  "locktime": 0,
  "vin": [
    {
      "txid": "7e2875fe3876848ebaa9aae4373b3427b9fb5cdf092758266731417036b3b606",
      "vout": 0,
      "prevout": {
        "scriptpubkey": "0014a107320d5f80f76537b1882879f76aafb806435c",
        "scriptpubkey_asm": "OP_0 OP_PUSHBYTES_20 a107320d5f80f76537b1882879f76aafb806435c",
        "scriptpubkey_type": "v0_p2wpkh",
        "scriptpubkey_address": "bc1q5yrnyr2lsrmk2da33q58nam247uqvs6uavlm7a",
        "value": 883952
      },
      "scriptsig": "",
      "scriptsig_asm": "",
      "witness": [
        "30440220668d23266e49f8cd5dc84a962000dcae7f4adf949707d058fb8a0bd194fc3e3702201c7aab6f8af66d927395f8a221fdce88ae48c18cd37c9b70bc5874d1751fd25301",
        "03c7878caf455e296b6705a472f8407086bae9ca64aa8bb745d4b991c396f4083d"
      ],
      "is_coinbase": false,
      "sequence": 4294967295
    },
    {
      "txid": "ffa13bccf65569ef00f7cdaef3fef8440f59faa1da4958d2fdb8279ede6df7f8",
      "vout": 0,
      "prevout": {
        "scriptpubkey": "00142c06eb056025039f1fa5c10c763d018f456957ec",
        "scriptpubkey_asm": "OP_0 OP_PUSHBYTES_20 2c06eb056025039f1fa5c10c763d018f456957ec",
        "scriptpubkey_type": "v0_p2wpkh",
        "scriptpubkey_address": "bc1q9srwkptqy5pe78a9cyx8v0gp3azkj4lvs2tnxr",
        "value": 2424
      },
      "scriptsig": "",
      "scriptsig_asm": "",
      "witness": [
        "30440220643770f838be2b3f935c413a2280e4c4b8d608c0026da716079bed537402be4e02204fa18572dc775cf1bd36caad78e4840a247ef472b3b39066e8c09b584b3a661101",
        "02de63d60edab39c1a7c6875e661a27755fa452147f65740bb2136b2693fd9efb8"
      ],
      "is_coinbase": false,
      "sequence": 4294967295
    },
    {
      "txid": "3cffe277d153a7e5c0c030cd26330342115a1795938af110faddaf44e37e45d3",
      "vout": 0,
      "prevout": {
        "scriptpubkey": "0014a107320d5f80f76537b1882879f76aafb806435c",
        "scriptpubkey_asm": "OP_0 OP_PUSHBYTES_20 a107320d5f80f76537b1882879f76aafb806435c",
        "scriptpubkey_type": "v0_p2wpkh",
        "scriptpubkey_address": "bc1q5yrnyr2lsrmk2da33q58nam247uqvs6uavlm7a",
        "value": 283521
      },
      "scriptsig": "",
      "scriptsig_asm": "",
      "witness": [
        "3045022100f33809d7cd3990411c468b358a8cdc02ad810ab541abc8a515cf03a57c6517b602203ad645394cbdce9b21e2642e3780a439dc2519ad6763f9c24873dea528e718d601",
        "03c7878caf455e296b6705a472f8407086bae9ca64aa8bb745d4b991c396f4083d"
      ],
      "is_coinbase": false,
      "sequence": 4294967295
    }
  ],
  "vout": [
    {
      "scriptpubkey": "0014a514edec4de3f7fa2b5356c3537a869bc9fa99c8",
      "scriptpubkey_asm": "OP_0 OP_PUSHBYTES_20 a514edec4de3f7fa2b5356c3537a869bc9fa99c8",
      "scriptpubkey_type": "v0_p2wpkh",
      "scriptpubkey_address": "bc1q552wmmzdu0ml526n2mp4x75xn0yl4xwgeaxjvm",
      "value": 865885
    },
    {
      "scriptpubkey": "0014c03f99423f9ec26dae057a6ac1ab7772cf48e1f5",
      "scriptpubkey_asm": "OP_0 OP_PUSHBYTES_20 c03f99423f9ec26dae057a6ac1ab7772cf48e1f5",
      "scriptpubkey_type": "v0_p2wpkh",
      "scriptpubkey_address": "bc1qcqlejs3lnmpxmts90f4vr2mhwt853c04hme476",
      "value": 299827
    }
  ],
  "size": 519,
  "weight": 1104,
  "fee": 4185,
  "status": {
    "confirmed": true,
    "block_height": 834638,
    "block_hash": "000000000000000000025f742c626208ac87e0b7d15054abb4a19ca2d735a54e",
    "block_time": 1710405325
  },
  "hex": "0100000000010306b6b3367041316726582709df5cfbb927343b37e4aaa9ba8e847638fe75287e0000000000fffffffff8f76dde9e27b8fdd25849daa1fa590f44f8fef3aecdf700ef6955f6cc3ba1ff0000000000ffffffffd3457ee344afddfa10f18a9395175a1142033326cd30c0c0e5a753d177e2ff3c0000000000ffffffff025d360d0000000000160014a514edec4de3f7fa2b5356c3537a869bc9fa99c83393040000000000160014c03f99423f9ec26dae057a6ac1ab7772cf48e1f5024730440220668d23266e49f8cd5dc84a962000dcae7f4adf949707d058fb8a0bd194fc3e3702201c7aab6f8af66d927395f8a221fdce88ae48c18cd37c9b70bc5874d1751fd253012103c7878caf455e296b6705a472f8407086bae9ca64aa8bb745d4b991c396f4083d024730440220643770f838be2b3f935c413a2280e4c4b8d608c0026da716079bed537402be4e02204fa18572dc775cf1bd36caad78e4840a247ef472b3b39066e8c09b584b3a6611012102de63d60edab39c1a7c6875e661a27755fa452147f65740bb2136b2693fd9efb802483045022100f33809d7cd3990411c468b358a8cdc02ad810ab541abc8a515cf03a57c6517b602203ad645394cbdce9b21e2642e3780a439dc2519ad6763f9c24873dea528e718d6012103c7878caf455e296b6705a472f8407086bae9ca64aa8bb745d4b991c396f4083d00000000"
}