{
  "txid": "852cf9b19c5b25d74374b5d3ee968a899c30d3ac33be1673cff532f252009399",
  "version": 1,
  "locktime": 0,
  "vin": [
    {
      "txid": "888888866b34d21d6b1b066a4d60060643879adf54b06da4b7f701bc419af72a",
      "vout": 0,
      "prevout": {
        "scriptpubkey": "5120a22dd2e9f8570485a8084db263786dd294061a34f6bf7c9016f27c0b0fa94683",
        "scriptpubkey_asm": "OP_PUSHNUM_1 OP_PUSHBYTES_32 a22dd2e9f8570485a8084db263786dd294061a34f6bf7c9016f27c0b0fa94683",
        "scriptpubkey_type": "v1_p2tr",
        "scriptpubkey_address": "bc1p5gka960c2uzgt2qgfkexx7rd622qvx3576lheyqk7f7qkrafg6ps775ecf",
        "value": 11627
      },
      "scriptsig": "",
      "scriptsig_asm": "",
      "witness": [
        "fb9b2625581375db859e24aff0011a87459f101f2114257fd867fbb87b070ab35e7d7739318546c94dee8b779e12c84898e720d79ce00cf750db91ae76a5198883",
        "206e52c938c29c99e9a77647b2895f750d08ffac8b4128f105ecf15445f35d3cc5ac00630461746f6d03646d7442a16461726773a468626974776f726b6367383838383838386b6d696e745f7469636b657268696e66696e697479656e6f6e63651a001c58306474696d651a65dc4ea568",
        "c06e52c938c29c99e9a77647b2895f750d08ffac8b4128f105ecf15445f35d3cc5"
      ],
      "is_coinbase": false,
      "sequence": 4294967293
    }
  ],
  "vout": [
    {
      "scriptpubkey": "5120bf94882e5d0c036449dc3f1782adc8fe707e6d03ea0ecdd97e048b8da94a44b1",
      "scriptpubkey_asm": "OP_PUSHNUM_1 OP_PUSHBYTES_32 bf94882e5d0c036449dc3f1782adc8fe707e6d03ea0ecdd97e048b8da94a44b1",
      "scriptpubkey_type": "v1_p2tr",
      "scriptpubkey_address": "bc1ph72gstjapspkgjwu8utc9twglec8umgrag8vmkt7qj9cm222gjcsurlt3p",
      "value": 9999
    }
  ],
  "size": 311,
  "weight": 593,
  "fee": 1628,
  "status": {
    "confirmed": true,
    "block_height": 834464,
    "block_hash": "0000000000000000000177a0869a911a2b65c9bdcd5a8bcb02b68f305bee848e",
    "block_time": 1710308296
  },
  "hex": "010000000001012af79a41bc01f7b7a46db054df9a87430606604d6a061b6b1dd2346b868888880000000000fdffffff010f27000000000000225120bf94882e5d0c036449dc3f1782adc8fe707e6d03ea0ecdd97e048b8da94a44b10341fb9b2625581375db859e24aff0011a87459f101f2114257fd867fbb87b070ab35e7d7739318546c94dee8b779e12c84898e720d79ce00cf750db91ae76a519888371206e52c938c29c99e9a77647b2895f750d08ffac8b4128f105ecf15445f35d3cc5ac00630461746f6d03646d7442a16461726773a468626974776f726b6367383838383838386b6d696e745f7469636b657268696e66696e697479656e6f6e63651a001c58306474696d651a65dc4ea56821c06e52c938c29c99e9a77647b2895f750d08ffac8b4128f105ecf15445f35d3cc500000000"
}