{
  "txid": "8552656766a0b5d8442206500b4d4e3d35958b9501d3e19764741864b16a4853",
  "version": 2,
  "locktime": 0,
  "vin": [
    {
      "txid": "dad497dd599fe859097c0a9e6ece8e92998ce488ea097315fd32d77a109832e6",
      "vout": 2,
      "prevout": {
        "scriptpubkey": "5120fd85569c7d2f78a19aa67ef22cd8cce487c5b0dd58a04b05c926f7c188056374",
        "scriptpubkey_asm": "OP_PUSHNUM_1 OP_PUSHBYTES_32 fd85569c7d2f78a19aa67ef22cd8cce487c5b0dd58a04b05c926f7c188056374",
        "scriptpubkey_type": "v1_p2tr",
        "scriptpubkey_address": "bc1plkz4d8ra9au2rx4x0mezekxvujrutvxatzsykpwfymmurzq9vd6qvd6mws",
        "value": 1107000
      },
      "scriptsig": "",
      "scriptsig_asm": "",
      "witness": [
        "c72cf87b017ce2ca35b5a4bca565efd0b7b5cc89c8b323a20909d3771f8439e1691dcb06ff5c1ba047732e28000486ba58dd9b4256a5431223bff1ef27fa01b9"
      ],
      "is_coinbase": false,
      "sequence": 4294967293
    }
  ],
  "vout": [
    {
      "scriptpubkey": "51200e0537f64938e0518dd48dfb3034c78c7aa4e63c93c7b62beccabfab942c04be",
      "scriptpubkey_asm": "OP_PUSHNUM_1 OP_PUSHBYTES_32 0e0537f64938e0518dd48dfb3034c78c7aa4e63c93c7b62beccabfab942c04be",
      "scriptpubkey_type": "v1_p2tr",
      "scriptpubkey_address": "bc1ppczn0ajf8rs9rrw53hanqdx833a2fe3uj0rmv2lve2l6h9pvqjlq7ufhxv",
      "value": 3010
    },
    {
      "scriptpubkey": "5120fd85569c7d2f78a19aa67ef22cd8cce487c5b0dd58a04b05c926f7c188056374",
      "scriptpubkey_asm": "OP_PUSHNUM_1 OP_PUSHBYTES_32 fd85569c7d2f78a19aa67ef22cd8cce487c5b0dd58a04b05c926f7c188056374",
      "scriptpubkey_type": "v1_p2tr",
      "scriptpubkey_address": "bc1plkz4d8ra9au2rx4x0mezekxvujrutvxatzsykpwfymmurzq9vd6qvd6mws",
      "value": 1101526
    }
  ],
  "size": 205,
  "weight": 616,
  "fee": 2464,
  "status": {
    "confirmed": true,
    "block_height": 834464,
    "block_hash": "0000000000000000000177a0869a911a2b65c9bdcd5a8bcb02b68f305bee848e",
    "block_time": 1710308296
  },
  "hex": "02000000000101e63298107ad732fd157309ea88e48c99928ece6e9e0a7c0959e89f59dd97d4da0200000000fdffffff02c20b0000000000002251200e0537f64938e0518dd48dfb3034c78c7aa4e63c93c7b62beccabfab942c04bed6ce100000000000225120fd85569c7d2f78a19aa67ef22cd8cce487c5b0dd58a04b05c926f7c1880563740140c72cf87b017ce2ca35b5a4bca565efd0b7b5cc89c8b323a20909d3771f8439e1691dcb06ff5c1ba047732e28000486ba58dd9b4256a5431223bff1ef27fa01b900000000"
}