{
  "txid": "855995aa6cfad55562207d5fc8d8c644f80e61b4699d9810cddb8025ef40b0fe",
  "version": 2,
  "locktime": 0,
  "vin": [
    {
      "txid": "a7708cddec5b38c9898a9cea52b0f377c8a59d6c1440e52d1ec7b420bc42027b",
      "vout": 1,
      "prevout": {
        "scriptpubkey": "5120db62d6af2043c2d15691f3a8a309062016e144cf2e169966e3ea19946f2177c2",
        "scriptpubkey_asm": "OP_PUSHNUM_1 OP_PUSHBYTES_32 db62d6af2043c2d15691f3a8a309062016e144cf2e169966e3ea19946f2177c2",
        "scriptpubkey_type": "v1_p2tr",
        "scriptpubkey_address": "bc1pmd3ddteqg0pdz4537w52xzgxyqtwz3x09ctfjehragvegmepwlpqtlw7kc",
        "value": 43694
      },
      "scriptsig": "",
      "scriptsig_asm": "",
      "witness": [
        "4d8cc2b861b4ae1933a63f45cf67db26d19dc0e339bc043507141631eda2ecb937587c118284c8a0e351b6f0d85cad013c56096b4fcadec6423291dc7228e413"
      ],
      "is_coinbase": false,
      "sequence": 4294967295
    }
  ],
  "vout": [
    {
      "scriptpubkey": "5120f662e231dd011cbc697dcd9c02936a12cb0516e1d485e69796079612def4b05c",
      "scriptpubkey_asm": "OP_PUSHNUM_1 OP_PUSHBYTES_32 f662e231dd011cbc697dcd9c02936a12cb0516e1d485e69796079612def4b05c",
      "scriptpubkey_type": "v1_p2tr",
      "scriptpubkey_address": "bc1p7e3wyvwaqywtc6taekwq9ym2zt9s29hp6jz7d9ukq7tp9hh5kpwqmax4kv",
      "value": 4000
    },
    {
      "scriptpubkey": "5120db62d6af2043c2d15691f3a8a309062016e144cf2e169966e3ea19946f2177c2",
      "scriptpubkey_asm": "OP_PUSHNUM_1 OP_PUSHBYTES_32 db62d6af2043c2d15691f3a8a309062016e144cf2e169966e3ea19946f2177c2",
      "scriptpubkey_type": "v1_p2tr",
      "scriptpubkey_address": "bc1pmd3ddteqg0pdz4537w52xzgxyqtwz3x09ctfjehragvegmepwlpqtlw7kc",
      "value": 37538
    }
  ],
  "size": 205,
  "weight": 616,
  "fee": 2156,
  "status": {
    "confirmed": true,
    "block_height": 834460,
    "block_hash": "00000000000000000000484a79b643b2524bbce82e5d8a442013fa5b8905ed98",
    "block_time": 1710307468
  },
  "hex": "020000000001017b0242bc20b4c71e2de540146c9da5c877f3b052ea9c8a89c9385becdd8c70a70100000000ffffffff02a00f000000000000225120f662e231dd011cbc697dcd9c02936a12cb0516e1d485e69796079612def4b05ca292000000000000225120db62d6af2043c2d15691f3a8a309062016e144cf2e169966e3ea19946f2177c201404d8cc2b861b4ae1933a63f45cf67db26d19dc0e339bc043507141631eda2ecb937587c118284c8a0e351b6f0d85cad013c56096b4fcadec6423291dc7228e41300000000"
}