{
  "txid": "8564b8d6a3a16b00c0e986c0fa030b5d14876d5d4a4ea696885e524b5bae5bbc",
  "version": 2,
  "locktime": 0,
  "vin": [
    {
      "txid": "448dfab8487cc1b41fde048cc85bb6eaf5039f0ab52616e1ca67346594b31797",
      "vout": 1,
      "prevout": {
        "scriptpubkey": "512098f8eac4004bc7cf3453bfb0e3aee939fc511bde7f58e465b134ac7d13795435",
        "scriptpubkey_asm": "OP_PUSHNUM_1 OP_PUSHBYTES_32 98f8eac4004bc7cf3453bfb0e3aee939fc511bde7f58e465b134ac7d13795435",
        "scriptpubkey_type": "v1_p2tr",
        "scriptpubkey_address": "bc1pnruw43qqf0ru7dznh7cw8thf8879zx770avwged3xjk86yme2s6sxhsgqh",
        "value": 225801
      },
      "scriptsig": "",
      "scriptsig_asm": "",
      "witness": [
        "cbac149ba9c9764acc2eea6c8c6d748a23ff8f2d820c569fcced709a54fa6bba6e58bfa8b8e0280c0a42eb5ca02ba2e7f6b63414552c098dce3c29f7b73ff471"
      ],
      "is_coinbase": false,
      "sequence": 4294967295
    }
  ],
  "vout": [
    {
      "scriptpubkey": "512018f54727f59d2a4eab39f168e4bae343bfab79789a9ef8656a6f0b2a36b7dfea",
      "scriptpubkey_asm": "OP_PUSHNUM_1 OP_PUSHBYTES_32 18f54727f59d2a4eab39f168e4bae343bfab79789a9ef8656a6f0b2a36b7dfea",
      "scriptpubkey_type": "v1_p2tr",
      "scriptpubkey_address": "bc1prr65wfl4n54ya2ee795wfwhrgwl6k7tcn200set2du9j5d4hml4qhqhmkx",
      "value": 4000
    },
    {
      "scriptpubkey": "512098f8eac4004bc7cf3453bfb0e3aee939fc511bde7f58e465b134ac7d13795435",
      "scriptpubkey_asm": "OP_PUSHNUM_1 OP_PUSHBYTES_32 98f8eac4004bc7cf3453bfb0e3aee939fc511bde7f58e465b134ac7d13795435",
      "scriptpubkey_type": "v1_p2tr",
      "scriptpubkey_address": "bc1pnruw43qqf0ru7dznh7cw8thf8879zx770avwged3xjk86yme2s6sxhsgqh",
      "value": 219799
    }
  ],
  "size": 205,
  "weight": 616,
  "fee": 2002,
  "status": {
    "confirmed": true,
    "block_height": 834464,
    "block_hash": "0000000000000000000177a0869a911a2b65c9bdcd5a8bcb02b68f305bee848e",
    "block_time": 1710308296
  },
  "hex": "020000000001019717b394653467cae11626b50a9f03f5eab65bc88c04de1fb4c17c48b8fa8d440100000000ffffffff02a00f00000000000022512018f54727f59d2a4eab39f168e4bae343bfab79789a9ef8656a6f0b2a36b7dfea975a03000000000022512098f8eac4004bc7cf3453bfb0e3aee939fc511bde7f58e465b134ac7d137954350140cbac149ba9c9764acc2eea6c8c6d748a23ff8f2d820c569fcced709a54fa6bba6e58bfa8b8e0280c0a42eb5ca02ba2e7f6b63414552c098dce3c29f7b73ff47100000000"
}