{
  "txid": "857546b56d3fb6d378283067ac0df9e82c4aa1d6a24850bac7799d7dff32174f",
  "version": 2,
  "locktime": 0,
  "vin": [
    {
      "txid": "7e8106c0d8998bed27a7f4174a2a2318caeda391b3099f593363efe62e01c201",
      "vout": 10,
      "prevout": {
        "scriptpubkey": "0014eafd2e5b14bb3c84767d93157a3bad642d182b98",
        "scriptpubkey_asm": "OP_0 OP_PUSHBYTES_20 eafd2e5b14bb3c84767d93157a3bad642d182b98",
        "scriptpubkey_type": "v0_p2wpkh",
        "scriptpubkey_address": "bc1qat7jukc5hv7gganajv2h5wadvsk3s2uc2jdec7",
        "value": 65794
      },
      "scriptsig": "",
      "scriptsig_asm": "",
      "witness": [
        "304402203fc885d4a3febcd392f3e6cae7cb853d0f8625ac2bf1baa047cbcca5bfa4438502206991c1a42b39924e78e475743afb116922e83a56d87957e9e8494dc38d026ceb01",
        "033cefe511fc0ed7c2fd7c37269f74c9bacb40bf51ff94234d9701cb9b674adf4f"
      ],
      "is_coinbase": false,
      "sequence": 4294967295
    },
    {
      "txid": "0a84a57e5df0d55ef6eeb1da82a6ec305bd3e1494b5b8f257c0b0f3250518039",
      "vout": 0,
      "prevout": {
        "scriptpubkey": "001456cc731644db9fc3efb8b32073daabe90bce2b4d",
        "scriptpubkey_asm": "OP_0 OP_PUSHBYTES_20 56cc731644db9fc3efb8b32073daabe90bce2b4d",
        "scriptpubkey_type": "v0_p2wpkh",
        "scriptpubkey_address": "bc1q2mx8x9jymw0u8mackvs88k4tay9uu26dnpzudu",
        "value": 87724
      },
      "scriptsig": "",
      "scriptsig_asm": "",
      "witness": [
        "3044022047ea602585b456516461139188c68172157071b99691e06661806813dc40bff602203c0e39934f5b0f5c9c8e18aaa5b043467db4421422e310dd59e8b80a4991b95e01",
        "02b27eac64572c40b53a9ca1635150d1ca3c2383c5202a595d8f79f53adb651f86"
      ],
      "is_coinbase": false,
      "sequence": 4294967295
    },
    {
      "txid": "4967a7dc8b2517f1a8282b13848cec42e878511d14bfcef515f86248c54aece2",
      "vout": 125,
      "prevout": {
        "scriptpubkey": "001449b4f7ad1624bd04d820c7fd9abb7e88ec7e63db",
        "scriptpubkey_asm": "OP_0 OP_PUSHBYTES_20 49b4f7ad1624bd04d820c7fd9abb7e88ec7e63db",
        "scriptpubkey_type": "v0_p2wpkh",
        "scriptpubkey_address": "bc1qfx600tgkyj7sfkpqcl7e4wm73rk8uc7masx3av",
        "value": 87925
      },
      "scriptsig": "",
      "scriptsig_asm": "",
      "witness": [
        "3045022100c6bfd307ad46437ede6fc0533d09dadd94915f9dd8632aacb25927620c0ef2ba022059c0da9b6bb84f928cf4a0945f7e47da88e29d02db5a921595fe8a4332aed25501",
        "031b7e2e2028f3e342cc821d3fc0ddaa158dc6331e36431a4a517ecfa9b9f28d99"
      ],
      "is_coinbase": false,
      "sequence": 4294967295
    },
    {
      "txid": "cd0d515048bc37fd75588c83a6aa7220fc5f9a25f9000a41d2cc1ba2867caa9d",
      "vout": 0,
      "prevout": {
        "scriptpubkey": "0014390a766006d009cefe3383f27b10ce4de95171f7",
        "scriptpubkey_asm": "OP_0 OP_PUSHBYTES_20 390a766006d009cefe3383f27b10ce4de95171f7",
        "scriptpubkey_type": "v0_p2wpkh",
        "scriptpubkey_address": "bc1q8y98vcqx6qyual3ns0e8kyxwfh54zu0hnqz9mn",
        "value": 118011
      },
      "scriptsig": "",
      "scriptsig_asm": "",
      "witness": [
        "3045022100bc47399f9aef5f5e4dc434024ff36878f81af6ff5e06fd2d481302c41a0357a80220757a41775649fff68ebb7520dcc6e12f84194d5447693de595cec9489cd19ec501",
        "022e5ef7fde095e94fd85daacef34399f3d1c7fa648bcb1eb2cc6ce13fcefe2f83"
      ],
      "is_coinbase": false,
      "sequence": 4294967295
    },
    {
      "txid": "5966efbaa71d6d6edf5e87f67855854b8d71cd0503d1aed2f8c01aa3c94568a4",
      "vout": 1,
      "prevout": {
        "scriptpubkey": "0014d938222ad02403ea4c176d7c1026097e986a7be0",
        "scriptpubkey_asm": "OP_0 OP_PUSHBYTES_20 d938222ad02403ea4c176d7c1026097e986a7be0",
        "scriptpubkey_type": "v0_p2wpkh",
        "scriptpubkey_address": "bc1qmyuzy2ksysp75nqhd47pqfsf06vx57lqsv4pta",
        "value": 1001911
      },
      "scriptsig": "",
      "scriptsig_asm": "",
      "witness": [
        "3044022011eccf07e830941c1c146c6d4f1d80ca919fdeaa53724126d13f6e8e32d51886022031ff088768dd3fb42d8c4205c558d0067ba4a60ce35b2f38c70cb9754f90d52101",
        "03cf91973633fc5d24c6a22e3a7aa0103344f0433e3258a030d25271a434758754"
      ],
      "is_coinbase": false,
      "sequence": 4294967295
    },
    {
      "txid": "1bb969cc8cb1c21ee57438a84d3cc9c656af0966875db958b2a0f2322aa76098",
      "vout": 160,
      "prevout": {
        "scriptpubkey": "00142784207e91f01eaf95c6a96249de665922ba9a7a",
        "scriptpubkey_asm": "OP_0 OP_PUSHBYTES_20 2784207e91f01eaf95c6a96249de665922ba9a7a",
        "scriptpubkey_type": "v0_p2wpkh",
        "scriptpubkey_address": "bc1qy7zzql537q02l9wx493ynhnxty3t4xn6se9js4",
        "value": 87204
      },
      "scriptsig": "",
      "scriptsig_asm": "",
      "witness": [
        "304402206c6b5e585217f815d9cbcd839e815b1384030f513551b6fc6920d0f0c0617a38022003b3d27e3b2bf1955c02ae4e07d5ac682a9e2c403843c7871483b4af35c985d801",
        "03e9622d6cf791e540c17b9d920c876a135e68c6d7b3806c08dd8a95bbd5d21627"
      ],
      "is_coinbase": false,
      "sequence": 4294967295
    },
    {
      "txid": "57d4fd87ffc0cb9e33ed55bf3dad56192480ec367982121abc0169d72300e898",
      "vout": 67,
      "prevout": {
        "scriptpubkey": "001446c8c6bb94b57d93dbb9d00774f710f65b2df6c9",
        "scriptpubkey_asm": "OP_0 OP_PUSHBYTES_20 46c8c6bb94b57d93dbb9d00774f710f65b2df6c9",
        "scriptpubkey_type": "v0_p2wpkh",
        "scriptpubkey_address": "bc1qgmyvdwu5k47e8kae6qrhfacs7edjmakfmy2xw9",
        "value": 78087
      },
      "scriptsig": "",
      "scriptsig_asm": "",
      "witness": [
        "3045022100abdb07bf8c4e6db203bf75980188fd183e20c6d7ffe549ed706669c8b981c25102203f69194abe8624817a8ca6ef2dce301b6ffdaed3fd83212b49ffef542680f3d801",
        "027dcc39e85bad795ce2bb1d0b778eba03e63b73e0c5aba625813cef8be1e65036"
      ],
      "is_coinbase": false,
      "sequence": 4294967295
    }
  ],
  "vout": [
    {
      "scriptpubkey": "0014e4e7521a4ecabef0034065a8170376fad4d25630",
      "scriptpubkey_asm": "OP_0 OP_PUSHBYTES_20 e4e7521a4ecabef0034065a8170376fad4d25630",
      "scriptpubkey_type": "v0_p2wpkh",
      "scriptpubkey_address": "bc1qunn4yxjwe2l0qq6qvk5pwqmklt2dy43sskjf4k",
      "value": 516472
    },
    {
      "scriptpubkey": "0014b7bff1a57e35f02c92106f17273d0dc68065693e",
      "scriptpubkey_asm": "OP_0 OP_PUSHBYTES_20 b7bff1a57e35f02c92106f17273d0dc68065693e",
      "scriptpubkey_type": "v0_p2wpkh",
      "scriptpubkey_address": "bc1qk7llrft7xhczeyssdutjw0gdc6qx26f708rw7d",
      "value": 1001949
    }
  ],
  "size": 1113,
  "weight": 2190,
  "fee": 8235,
  "status": {
    "confirmed": true,
    "block_height": 834638,
    "block_hash": "000000000000000000025f742c626208ac87e0b7d15054abb4a19ca2d735a54e",
    "block_time": 1710405325
  },
  "hex": "0200000000010701c2012ee6ef6333599f09b391a3edca18232a4a17f4a727ed8b99d8c006817e0a00000000ffffffff39805150320f0b7c258f5b4b49e1d35b30eca682dab1eef65ed5f05d7ea5840a0000000000ffffffffe2ec4ac54862f815f5cebf141d5178e842ec8c84132b28a8f117258bdca767497d00000000ffffffff9daa7c86a21bccd2410a00f9259a5ffc2072aaa6838c5875fd37bc4850510dcd0000000000ffffffffa46845c9a31ac0f8d2aed10305cd718d4b855578f6875edf6e6d1da7baef66590100000000ffffffff9860a72a32f2a0b258b95d876609af56c6c93c4da83874e51ec2b18ccc69b91ba000000000ffffffff98e80023d76901bc1a12827936ec80241956ad3dbf55ed339ecbc0ff87fdd4574300000000ffffffff0278e1070000000000160014e4e7521a4ecabef0034065a8170376fad4d25630dd490f0000000000160014b7bff1a57e35f02c92106f17273d0dc68065693e0247304402203fc885d4a3febcd392f3e6cae7cb853d0f8625ac2bf1baa047cbcca5bfa4438502206991c1a42b39924e78e475743afb116922e83a56d87957e9e8494dc38d026ceb0121033cefe511fc0ed7c2fd7c37269f74c9bacb40bf51ff94234d9701cb9b674adf4f02473044022047ea602585b456516461139188c68172157071b99691e06661806813dc40bff602203c0e39934f5b0f5c9c8e18aaa5b043467db4421422e310dd59e8b80a4991b95e012102b27eac64572c40b53a9ca1635150d1ca3c2383c5202a595d8f79f53adb651f8602483045022100c6bfd307ad46437ede6fc0533d09dadd94915f9dd8632aacb25927620c0ef2ba022059c0da9b6bb84f928cf4a0945f7e47da88e29d02db5a921595fe8a4332aed2550121031b7e2e2028f3e342cc821d3fc0ddaa158dc6331e36431a4a517ecfa9b9f28d9902483045022100bc47399f9aef5f5e4dc434024ff36878f81af6ff5e06fd2d481302c41a0357a80220757a41775649fff68ebb7520dcc6e12f84194d5447693de595cec9489cd19ec50121022e5ef7fde095e94fd85daacef34399f3d1c7fa648bcb1eb2cc6ce13fcefe2f8302473044022011eccf07e830941c1c146c6d4f1d80ca919fdeaa53724126d13f6e8e32d51886022031ff088768dd3fb42d8c4205c558d0067ba4a60ce35b2f38c70cb9754f90d521012103cf91973633fc5d24c6a22e3a7aa0103344f0433e3258a030d25271a4347587540247304402206c6b5e585217f815d9cbcd839e815b1384030f513551b6fc6920d0f0c0617a38022003b3d27e3b2bf1955c02ae4e07d5ac682a9e2c403843c7871483b4af35c985d8012103e9622d6cf791e540c17b9d920c876a135e68c6d7b3806c08dd8a95bbd5d2162702483045022100abdb07bf8c4e6db203bf75980188fd183e20c6d7ffe549ed706669c8b981c25102203f69194abe8624817a8ca6ef2dce301b6ffdaed3fd83212b49ffef542680f3d80121027dcc39e85bad795ce2bb1d0b778eba03e63b73e0c5aba625813cef8be1e6503600000000"
}