{
  "txid": "858c5086b54258bab7ef61fdbf4c08f78b87380dc8627684df1cb4d2e5d3f1e0",
  "version": 1,
  "locktime": 0,
  "vin": [
    {
      "txid": "0c78cde4af74e9134731423e749ef1f5a76bc9ad2a617f9e3b29a0d1916ae423",
      "vout": 4,
      "prevout": {
        "scriptpubkey": "001427de8399a446ab2227f1a63fde4a491138f93028",
        "scriptpubkey_asm": "OP_0 OP_PUSHBYTES_20 27de8399a446ab2227f1a63fde4a491138f93028",
        "scriptpubkey_type": "v0_p2wpkh",
        "scriptpubkey_address": "bc1qyl0g8xdyg64jyfl35claujjfzyu0jvpgw28a42",
        "value": 34230529
      },
      "scriptsig": "",
      "scriptsig_asm": "",
      "witness": [
        "304502210086b73e873001d02cd9d853aabb59346f9e5f5c0a8a722f7d72a10b7d44efcb8f02205f2dc5a5b31c007f805b5269cbeba8ffe1593d0de5fca66db37ec3a45b1ee31501",
        "0216cadc6d535db0b273b76950430c2ad6c68cad055e4a36b653063b5488ec8284"
      ],
      "is_coinbase": false,
      "sequence": 4294967295
    }
  ],
  "vout": [
    {
      "scriptpubkey": "0014089a7244d81490c35e03cc55b8ea1098eca51328",
      "scriptpubkey_asm": "OP_0 OP_PUSHBYTES_20 089a7244d81490c35e03cc55b8ea1098eca51328",
      "scriptpubkey_type": "v0_p2wpkh",
      "scriptpubkey_address": "bc1qpzd8y3xczjgvxhsre32m36ssnrk22yegu48xze",
      "value": 272600
    },
    {
      "scriptpubkey": "76a91406e9e6306e4ff15d8a9844b12c9db9daa709675888ac",
      "scriptpubkey_asm": "OP_DUP OP_HASH160 OP_PUSHBYTES_20 06e9e6306e4ff15d8a9844b12c9db9daa7096758 OP_EQUALVERIFY OP_CHECKSIG",
      "scriptpubkey_type": "p2pkh",
      "scriptpubkey_address": "1dZFkYGk1vArGnVWY3MMVjqpuzgHiXESE",
      "value": 680386
    },
    {
      "scriptpubkey": "76a914b58b4a978d70e0c5ba0d4ed91129c867f03e9da388ac",
      "scriptpubkey_asm": "OP_DUP OP_HASH160 OP_PUSHBYTES_20 b58b4a978d70e0c5ba0d4ed91129c867f03e9da3 OP_EQUALVERIFY OP_CHECKSIG",
      "scriptpubkey_type": "p2pkh",
      "scriptpubkey_address": "1HYvArdcQNaffbT3ZYShn3MXeY1BBKzud5",
      "value": 13520
    },
    {
      "scriptpubkey": "0014f29b910910ef5f28b50a8342878f99ade261b5f2",
      "scriptpubkey_asm": "OP_0 OP_PUSHBYTES_20 f29b910910ef5f28b50a8342878f99ade261b5f2",
      "scriptpubkey_type": "v0_p2wpkh",
      "scriptpubkey_address": "bc1q72dezzgsaa0j3dg2sdpg0rue4h3xrd0jzqs9eu",
      "value": 108804
    },
    {
      "scriptpubkey": "001473d4b10fdbb3159e18783f3de6c7781e23232e49",
      "scriptpubkey_asm": "OP_0 OP_PUSHBYTES_20 73d4b10fdbb3159e18783f3de6c7781e23232e49",
      "scriptpubkey_type": "v0_p2wpkh",
      "scriptpubkey_address": "bc1qw02tzr7mkv2euxrc8u77d3mcrc3jxtjf5suddm",
      "value": 1320513
    },
    {
      "scriptpubkey": "001490ffede1df3fb3559d66832ce5c503cfb7623f5a",
      "scriptpubkey_asm": "OP_0 OP_PUSHBYTES_20 90ffede1df3fb3559d66832ce5c503cfb7623f5a",
      "scriptpubkey_type": "v0_p2wpkh",
      "scriptpubkey_address": "bc1qjrl7mcwl87e4t8txsvkwt3gre7mky066js7vr2",
      "value": 68039
    },
    {
      "scriptpubkey": "a914560504ed92dc7bdef22f2b5d0aed4674115cb06987",
      "scriptpubkey_asm": "OP_HASH160 OP_PUSHBYTES_20 560504ed92dc7bdef22f2b5d0aed4674115cb069 OP_EQUAL",
      "scriptpubkey_type": "p2sh",
      "scriptpubkey_address": "39Xr3nUFcbHNEFXjXp6v1QcSzFYkiWMT8x",
      "value": 113942
    },
    {
      "scriptpubkey": "00145c62e5845f38481dd80fdadfe311b27fbe25fb5b",
      "scriptpubkey_asm": "OP_0 OP_PUSHBYTES_20 5c62e5845f38481dd80fdadfe311b27fbe25fb5b",
      "scriptpubkey_type": "v0_p2wpkh",
      "scriptpubkey_address": "bc1qt33wtpzl8pypmkq0mt07xydj07lzt76m3y5q96",
      "value": 528672
    },
    {
      "scriptpubkey": "0014985f71fd7a1693a2dd90508cb6a98e957b815222",
      "scriptpubkey_asm": "OP_0 OP_PUSHBYTES_20 985f71fd7a1693a2dd90508cb6a98e957b815222",
      "scriptpubkey_type": "v0_p2wpkh",
      "scriptpubkey_address": "bc1qnp0hrlt6z6f69hvs2zxtd2vwj4acz53zcpzzjg",
      "value": 21788738
    },
    {
      "scriptpubkey": "a914bc5b2906464b1b825242e29a367382bf62fdee1287",
      "scriptpubkey_asm": "OP_HASH160 OP_PUSHBYTES_20 bc5b2906464b1b825242e29a367382bf62fdee12 OP_EQUAL",
      "scriptpubkey_type": "p2sh",
      "scriptpubkey_address": "3JrxAXt1jGiKXfeRtmFGX4Kx2T8MVxeU51",
      "value": 68042
    },
    {
      "scriptpubkey": "0014a4619c73d8a824b9401703cb52b558c9e45d2776",
      "scriptpubkey_asm": "OP_0 OP_PUSHBYTES_20 a4619c73d8a824b9401703cb52b558c9e45d2776",
      "scriptpubkey_type": "v0_p2wpkh",
      "scriptpubkey_address": "bc1q53secu7c4qjtjsqhq0949d2ce8j96fmkyhu6rh",
      "value": 106369
    },
    {
      "scriptpubkey": "00141ac733d14ceeed33682e55d067e79ed591711965",
      "scriptpubkey_asm": "OP_0 OP_PUSHBYTES_20 1ac733d14ceeed33682e55d067e79ed591711965",
      "scriptpubkey_type": "v0_p2wpkh",
      "scriptpubkey_address": "bc1qrtrn852vamknx6pw2hgx0eu76kghzxt9pzn35h",
      "value": 27260
    },
    {
      "scriptpubkey": "001478df2ff20fa51378f705ee9362508f5f0ab3786e",
      "scriptpubkey_asm": "OP_0 OP_PUSHBYTES_20 78df2ff20fa51378f705ee9362508f5f0ab3786e",
      "scriptpubkey_type": "v0_p2wpkh",
      "scriptpubkey_address": "bc1q0r0jlus055fh3ac9a6fky5y0tu9tx7rwramg6t",
      "value": 2721266
    },
    {
      "scriptpubkey": "a91447812fa90af9c6c356cf2a78b2a951caa9b619de87",
      "scriptpubkey_asm": "OP_HASH160 OP_PUSHBYTES_20 47812fa90af9c6c356cf2a78b2a951caa9b619de OP_EQUAL",
      "scriptpubkey_type": "p2sh",
      "scriptpubkey_address": "38D6fBBcBGpaMk5eNfeoZyaGbEsTdcoTXX",
      "value": 1340520
    },
    {
      "scriptpubkey": "0014b75d68937f62377b8e33d81655e07420bc79e663",
      "scriptpubkey_asm": "OP_0 OP_PUSHBYTES_20 b75d68937f62377b8e33d81655e07420bc79e663",
      "scriptpubkey_type": "v0_p2wpkh",
      "scriptpubkey_address": "bc1qkawk3ymlvgmhhr3nmqt9tcr5yz78nenr2n8a60",
      "value": 251744
    },
    {
      "scriptpubkey": "a914d9f6a8636d9302dc77a70f58aa534285b77dc86f87",
      "scriptpubkey_asm": "OP_HASH160 OP_PUSHBYTES_20 d9f6a8636d9302dc77a70f58aa534285b77dc86f OP_EQUAL",
      "scriptpubkey_type": "p2sh",
      "scriptpubkey_address": "3MZW3Fda8CJekMKWURVH1gThqCjGLC1bRJ",
      "value": 14886
    },
    {
      "scriptpubkey": "76a9145ac2c7bde59cf4fd8e3598bd013ad4fb23efd3ec88ac",
      "scriptpubkey_asm": "OP_DUP OP_HASH160 OP_PUSHBYTES_20 5ac2c7bde59cf4fd8e3598bd013ad4fb23efd3ec OP_EQUALVERIFY OP_CHECKSIG",
      "scriptpubkey_type": "p2pkh",
      "scriptpubkey_address": "19Gu9qKmgEtB29BQMwmvFBnAKUWtHaGHVs",
      "value": 500000
    },
    {
      "scriptpubkey": "00140620d5533cdef3dc83416d28dcfe314e22dfd076",
      "scriptpubkey_asm": "OP_0 OP_PUSHBYTES_20 0620d5533cdef3dc83416d28dcfe314e22dfd076",
      "scriptpubkey_type": "v0_p2wpkh",
      "scriptpubkey_address": "bc1qqcsd25eummeaeq6pd55del33fc3dl5rka3m3x4",
      "value": 297862
    },
    {
      "scriptpubkey": "a9145299db0a9bbbabf0ae9be6dc5005eb68dc84c5b787",
      "scriptpubkey_asm": "OP_HASH160 OP_PUSHBYTES_20 5299db0a9bbbabf0ae9be6dc5005eb68dc84c5b7 OP_EQUAL",
      "scriptpubkey_type": "p2sh",
      "scriptpubkey_address": "39DmeMHFDN7MEDizJwymFncqhF3dCN9SP7",
      "value": 567684
    },
    {
      "scriptpubkey": "a91467b6ed0a7eeb18ca8bb7754c3d9492644f4a984287",
      "scriptpubkey_asm": "OP_HASH160 OP_PUSHBYTES_20 67b6ed0a7eeb18ca8bb7754c3d9492644f4a9842 OP_EQUAL",
      "scriptpubkey_type": "p2sh",
      "scriptpubkey_address": "3B9QfDghmZ2nr3zHVT5MJ126M58GB7xCYt",
      "value": 170101
    },
    {
      "scriptpubkey": "a9149972c71a9e6f49c671caa0492754d4184c52f64e87",
      "scriptpubkey_asm": "OP_HASH160 OP_PUSHBYTES_20 9972c71a9e6f49c671caa0492754d4184c52f64e OP_EQUAL",
      "scriptpubkey_type": "p2sh",
      "scriptpubkey_address": "3FgNonsUJddPvDLFfwjAEgu5KSifubELEx",
      "value": 34022
    },
    {
      "scriptpubkey": "00141fd7dbbb6335111cbc8257aa5d3a3d3f04898f12",
      "scriptpubkey_asm": "OP_0 OP_PUSHBYTES_20 1fd7dbbb6335111cbc8257aa5d3a3d3f04898f12",
      "scriptpubkey_type": "v0_p2wpkh",
      "scriptpubkey_address": "bc1qrltahwmrx5g3e0yz27496w3a8uzgnrcjak5psl",
      "value": 2587712
    },
    {
      "scriptpubkey": "76a914e08bf0a4430d87b398b31f8ba1d94914070dd22f88ac",
      "scriptpubkey_asm": "OP_DUP OP_HASH160 OP_PUSHBYTES_20 e08bf0a4430d87b398b31f8ba1d94914070dd22f OP_EQUALVERIFY OP_CHECKSIG",
      "scriptpubkey_type": "p2pkh",
      "scriptpubkey_address": "1MUJ1Az1mwDLioBs5A6ffQDabLg6odL6Gm",
      "value": 625955
    }
  ],
  "size": 893,
  "weight": 3242,
  "fee": 21892,
  "status": {
    "confirmed": true,
    "block_height": 834638,
    "block_hash": "000000000000000000025f742c626208ac87e0b7d15054abb4a19ca2d735a54e",
    "block_time": 1710405325
  },
  "hex": "0100000000010123e46a91d1a0293b9e7f612aadc96ba7f5f19e743e42314713e974afe4cd780c0400000000ffffffff17d828040000000000160014089a7244d81490c35e03cc55b8ea1098eca51328c2610a00000000001976a91406e9e6306e4ff15d8a9844b12c9db9daa709675888acd0340000000000001976a914b58b4a978d70e0c5ba0d4ed91129c867f03e9da388ac04a9010000000000160014f29b910910ef5f28b50a8342878f99ade261b5f2412614000000000016001473d4b10fdbb3159e18783f3de6c7781e23232e49c70901000000000016001490ffede1df3fb3559d66832ce5c503cfb7623f5a16bd01000000000017a914560504ed92dc7bdef22f2b5d0aed4674115cb0698720110800000000001600145c62e5845f38481dd80fdadfe311b27fbe25fb5b42784c0100000000160014985f71fd7a1693a2dd90508cb6a98e957b815222ca0901000000000017a914bc5b2906464b1b825242e29a367382bf62fdee1287819f010000000000160014a4619c73d8a824b9401703cb52b558c9e45d27767c6a0000000000001600141ac733d14ceeed33682e55d067e79ed591711965f28529000000000016001478df2ff20fa51378f705ee9362508f5f0ab3786e687414000000000017a91447812fa90af9c6c356cf2a78b2a951caa9b619de8760d7030000000000160014b75d68937f62377b8e33d81655e07420bc79e663263a00000000000017a914d9f6a8636d9302dc77a70f58aa534285b77dc86f8720a10700000000001976a9145ac2c7bde59cf4fd8e3598bd013ad4fb23efd3ec88ac868b0400000000001600140620d5533cdef3dc83416d28dcfe314e22dfd07684a908000000000017a9145299db0a9bbbabf0ae9be6dc5005eb68dc84c5b787759802000000000017a91467b6ed0a7eeb18ca8bb7754c3d9492644f4a984287e68400000000000017a9149972c71a9e6f49c671caa0492754d4184c52f64e87407c2700000000001600141fd7dbbb6335111cbc8257aa5d3a3d3f04898f12238d0900000000001976a914e08bf0a4430d87b398b31f8ba1d94914070dd22f88ac0248304502210086b73e873001d02cd9d853aabb59346f9e5f5c0a8a722f7d72a10b7d44efcb8f02205f2dc5a5b31c007f805b5269cbeba8ffe1593d0de5fca66db37ec3a45b1ee31501210216cadc6d535db0b273b76950430c2ad6c68cad055e4a36b653063b5488ec828400000000"
}