{
  "txid": "85954b8070762e3a89333300bf650f3be61c3e4fc636ebd7d0741e1046b5c9c1",
  "version": 2,
  "locktime": 0,
  "vin": [
    {
      "txid": "4fb635d71dbef87e1e9b7208c98bbfaceac8865135a6e0be3d584ff581170534",
      "vout": 0,
      "prevout": {
        "scriptpubkey": "51209f186ed8324c00fcd0fd19f655334925cfaeaacf18c2349dc94cd71285a808c3",
        "scriptpubkey_asm": "OP_PUSHNUM_1 OP_PUSHBYTES_32 9f186ed8324c00fcd0fd19f655334925cfaeaacf18c2349dc94cd71285a808c3",
        "scriptpubkey_type": "v1_p2tr",
        "scriptpubkey_address": "bc1pnuvxakpjfsq0e58ar8m92v6fyh86a2k0rrprf8wffnt39pdgprps7awulj",
        "value": 3130
      },
      "scriptsig": "",
      "scriptsig_asm": "",
      "witness": [
        "359f236d6d8478e7ebcfc020ed91734686f96d9defdd7f0983e1049a3e3c93e24f7b47942a4188be6bb8fe57bd0d2be0b3cf0fa453dc7d58ad43c36150ed6390",
        "2017201645166040c914743681742a7f169f9795ac5ad37811569e81b0094eaf68ac0063036f7264010118746578742f706c61696e3b636861727365743d7574662d3800387b2270223a226272632d3230222c226f70223a227472616e73666572222c227469636b223a22736c6f72222c22616d74223a22393939227d68",
        "c117201645166040c914743681742a7f169f9795ac5ad37811569e81b0094eaf68"
      ],
      "is_coinbase": false,
      "sequence": 4294967293
    }
  ],
  "vout": [
    {
      "scriptpubkey": "512050a4c479de63d47b0ab01ed2c4937410439d45bd6f8f8c55c2f4c5198e91ef73",
      "scriptpubkey_asm": "OP_PUSHNUM_1 OP_PUSHBYTES_32 50a4c479de63d47b0ab01ed2c4937410439d45bd6f8f8c55c2f4c5198e91ef73",
      "scriptpubkey_type": "v1_p2tr",
      "scriptpubkey_address": "bc1p2zjvg7w7v028kz4srmfvfym5zppe63dad78cc4wz7nz3nr53aaesx8emsv",
      "value": 546
    }
  ],
  "size": 323,
  "weight": 605,
  "fee": 2584,
  "status": {
    "confirmed": true,
    "block_height": 834638,
    "block_hash": "000000000000000000025f742c626208ac87e0b7d15054abb4a19ca2d735a54e",
    "block_time": 1710405325
  },
  "hex": "0200000000010134051781f54f583dbee0a6355186c8eaacbf8bc908729b1e7ef8be1dd735b64f0000000000fdffffff01220200000000000022512050a4c479de63d47b0ab01ed2c4937410439d45bd6f8f8c55c2f4c5198e91ef730340359f236d6d8478e7ebcfc020ed91734686f96d9defdd7f0983e1049a3e3c93e24f7b47942a4188be6bb8fe57bd0d2be0b3cf0fa453dc7d58ad43c36150ed63907e2017201645166040c914743681742a7f169f9795ac5ad37811569e81b0094eaf68ac0063036f7264010118746578742f706c61696e3b636861727365743d7574662d3800387b2270223a226272632d3230222c226f70223a227472616e73666572222c227469636b223a22736c6f72222c22616d74223a22393939227d6821c117201645166040c914743681742a7f169f9795ac5ad37811569e81b0094eaf6800000000"
}