{
  "txid": "859b3b38d452ef89a659cf90b2ab373426e5784b82268b1361761917f28d625d",
  "version": 2,
  "locktime": 0,
  "vin": [
    {
      "txid": "388f32bc27e745157e89eb544e8ef4113c40706d5009b9733e72cc401a2abec9",
      "vout": 0,
      "prevout": {
        "scriptpubkey": "001469240714591c5a5c19b846c3feefb0fa775a1833",
        "scriptpubkey_asm": "OP_0 OP_PUSHBYTES_20 69240714591c5a5c19b846c3feefb0fa775a1833",
        "scriptpubkey_type": "v0_p2wpkh",
        "scriptpubkey_address": "bc1qdyjqw9zer3d9cxdcgmplamaslfm45xpnpwwnyr",
        "value": 11240867
      },
      "scriptsig": "",
      "scriptsig_asm": "",
      "witness": [
        "3045022100f70f340e68ab8ccd4a51a3cad26c3479c94bb330f0f117d4b9b26171f9cb1109022012f1a1ed07e344bff77a36aa4be88b65fbd0155f9129a9717e4f87e7cc0e5d6801",
        "022aec8fa416c9c12ad1619e6167eb4691b6eca4a1b914f3010157cf977a241adc"
      ],
      "is_coinbase": false,
      "sequence": 4294967295
    },
    {
      "txid": "3362acccdc0e136fc09815d3a178ac6306e0b77fc8b95f42102c902880db6131",
      "vout": 0,
      "prevout": {
        "scriptpubkey": "001469240714591c5a5c19b846c3feefb0fa775a1833",
        "scriptpubkey_asm": "OP_0 OP_PUSHBYTES_20 69240714591c5a5c19b846c3feefb0fa775a1833",
        "scriptpubkey_type": "v0_p2wpkh",
        "scriptpubkey_address": "bc1qdyjqw9zer3d9cxdcgmplamaslfm45xpnpwwnyr",
        "value": 19044
      },
      "scriptsig": "",
      "scriptsig_asm": "",
      "witness": [
        "3044022042a46fd062f7766e2fcd65f5860b923240b5a714f2aaa44b3674d1ac42d3ab2c0220183f4db9fdab547f3429f1ba028fa211dd349da27bcf93696d054c572623704701",
        "022aec8fa416c9c12ad1619e6167eb4691b6eca4a1b914f3010157cf977a241adc"
      ],
      "is_coinbase": false,
      "sequence": 4294967295
    }
  ],
  "vout": [
    {
      "scriptpubkey": "001469240714591c5a5c19b846c3feefb0fa775a1833",
      "scriptpubkey_asm": "OP_0 OP_PUSHBYTES_20 69240714591c5a5c19b846c3feefb0fa775a1833",
      "scriptpubkey_type": "v0_p2wpkh",
      "scriptpubkey_address": "bc1qdyjqw9zer3d9cxdcgmplamaslfm45xpnpwwnyr",
      "value": 5628103
    },
    {
      "scriptpubkey": "76a914013f6868aaf3ccc52cdb109f8857051502b174cf88ac",
      "scriptpubkey_asm": "OP_DUP OP_HASH160 OP_PUSHBYTES_20 013f6868aaf3ccc52cdb109f8857051502b174cf OP_EQUALVERIFY OP_CHECKSIG",
      "scriptpubkey_type": "p2pkh",
      "scriptpubkey_address": "17bdr5u4j7tGvNGSLzjr5Pww3L8HMEunR",
      "value": 5628559
    }
  ],
  "size": 374,
  "weight": 845,
  "fee": 3249,
  "status": {
    "confirmed": true,
    "block_height": 834638,
    "block_hash": "000000000000000000025f742c626208ac87e0b7d15054abb4a19ca2d735a54e",
    "block_time": 1710405325
  },
  "hex": "02000000000102c9be2a1a40cc723e73b909506d70403c11f48e4e54eb897e1545e727bc328f380000000000ffffffff3161db8028902c10425fb9c87fb7e00663ac78a1d31598c06f130edcccac62330000000000ffffffff02c7e055000000000016001469240714591c5a5c19b846c3feefb0fa775a18338fe25500000000001976a914013f6868aaf3ccc52cdb109f8857051502b174cf88ac02483045022100f70f340e68ab8ccd4a51a3cad26c3479c94bb330f0f117d4b9b26171f9cb1109022012f1a1ed07e344bff77a36aa4be88b65fbd0155f9129a9717e4f87e7cc0e5d680121022aec8fa416c9c12ad1619e6167eb4691b6eca4a1b914f3010157cf977a241adc02473044022042a46fd062f7766e2fcd65f5860b923240b5a714f2aaa44b3674d1ac42d3ab2c0220183f4db9fdab547f3429f1ba028fa211dd349da27bcf93696d054c57262370470121022aec8fa416c9c12ad1619e6167eb4691b6eca4a1b914f3010157cf977a241adc00000000"
}