{
  "txid": "85b2e06e50010d3a2e5efb6e7e413b58a38ef3555f2d7b864a116719bf5da207",
  "version": 2,
  "locktime": 0,
  "vin": [
    {
      "txid": "3a2f35ec50fbb30823bf1b6691541b8a9d35bce10cf95f96ba4348eefaf56f09",
      "vout": 1,
      "prevout": {
        "scriptpubkey": "51204431baf74b253b09349b1ee34b1c724788ff9ffbadb0e01ace4405f8c95883d0",
        "scriptpubkey_asm": "OP_PUSHNUM_1 OP_PUSHBYTES_32 4431baf74b253b09349b1ee34b1c724788ff9ffbadb0e01ace4405f8c95883d0",
        "scriptpubkey_type": "v1_p2tr",
        "scriptpubkey_address": "bc1pgscm4a6ty5asjdymrm35k8rjg7y0l8lm4kcwqxkwgszl3j2cs0gqjsukdc",
        "value": 27110
      },
      "scriptsig": "",
      "scriptsig_asm": "",
      "witness": [
        "16061a6d2d2e0d55fcfb3b30836c636a36abc7b34001dc0b124e33818583ef74418cd67aee9dbbb0ccdef613174d5209ee5ad527294a9e7fa5855552946531f7"
      ],
      "is_coinbase": false,
      "sequence": 4294967293
    },
    {
      "txid": "90d0bd1dcf935e6d9dee212e64a225d151e3b41f7c6fff65d4f4a1513c378dee",
      "vout": 2,
      "prevout": {
        "scriptpubkey": "5120e7bbc3b1df4755ec8290382541bb73b9389bb0cf92950feec59d74cf204094d2",
        "scriptpubkey_asm": "OP_PUSHNUM_1 OP_PUSHBYTES_32 e7bbc3b1df4755ec8290382541bb73b9389bb0cf92950feec59d74cf204094d2",
        "scriptpubkey_type": "v1_p2tr",
        "scriptpubkey_address": "bc1pu7au8vwlga27eq5s8qj5rwmnhyufhvx0j22slmk9n46v7gzqjnfql2vtlx",
        "value": 15471
      },
      "scriptsig": "",
      "scriptsig_asm": "",
      "witness": [
        "3646a5afb7316968b558ee9b8ab4fe7fe0e2bffdf1cad7e354a804b2174c492fe24a49cdbe9fa26bc40b1868c2ccf89a517180b7ef91e6cc82b3a68282aae369"
      ],
      "is_coinbase": false,
      "sequence": 4294967293
    },
    {
      "txid": "48af44274ff70d91afff3f51f272eb9bf9fc0dd5aa1538e2a6a2a5b6c1eae127",
      "vout": 1,
      "prevout": {
        "scriptpubkey": "5120f9408438ac303380f977992f376b0c21733e087626a1455087576b590c1ef02e",
        "scriptpubkey_asm": "OP_PUSHNUM_1 OP_PUSHBYTES_32 f9408438ac303380f977992f376b0c21733e087626a1455087576b590c1ef02e",
        "scriptpubkey_type": "v1_p2tr",
        "scriptpubkey_address": "bc1pl9qggw9vxqecp7thnyhnw6cvy9enuzrky6s525y82a44jrq77qhq9je5nl",
        "value": 10000
      },
      "scriptsig": "",
      "scriptsig_asm": "",
      "witness": [
        "79ba56f8b90d2ed5b13bc9f86499ea3029805a47dbacca10294fcf448e35031288943bbec20b72157f2850651d7c5bb8452cf9b1e3121979fb26e82aed965241"
      ],
      "is_coinbase": false,
      "sequence": 4294967293
    }
  ],
  "vout": [
    {
      "scriptpubkey": "51208dee7157f500578d82dd0d7820b27dca2008d9b96d65271aafb81e72d456d06c",
      "scriptpubkey_asm": "OP_PUSHNUM_1 OP_PUSHBYTES_32 8dee7157f500578d82dd0d7820b27dca2008d9b96d65271aafb81e72d456d06c",
      "scriptpubkey_type": "v1_p2tr",
      "scriptpubkey_address": "bc1p3hh8z4l4qptcmqkap4uzpvnaegsq3kded4jjwx40hq0894zk6pkq7tjt0y",
      "value": 49982
    }
  ],
  "size": 376,
  "weight": 904,
  "fee": 2599,
  "status": {
    "confirmed": true,
    "block_height": 834460,
    "block_hash": "00000000000000000000484a79b643b2524bbce82e5d8a442013fa5b8905ed98",
    "block_time": 1710307468
  },
  "hex": "02000000000103096ff5faee4843ba965ff90ce1bc359d8a1b5491661bbf2308b3fb50ec352f3a0100000000fdffffffee8d373c51a1f4d465ff6f7c1fb4e351d125a2642e21ee9d6d5e93cf1dbdd0900200000000fdffffff27e1eac1b6a5a2a6e23815aad50dfcf99beb72f2513fffaf910df74f2744af480100000000fdffffff013ec30000000000002251208dee7157f500578d82dd0d7820b27dca2008d9b96d65271aafb81e72d456d06c014016061a6d2d2e0d55fcfb3b30836c636a36abc7b34001dc0b124e33818583ef74418cd67aee9dbbb0ccdef613174d5209ee5ad527294a9e7fa5855552946531f701403646a5afb7316968b558ee9b8ab4fe7fe0e2bffdf1cad7e354a804b2174c492fe24a49cdbe9fa26bc40b1868c2ccf89a517180b7ef91e6cc82b3a68282aae369014079ba56f8b90d2ed5b13bc9f86499ea3029805a47dbacca10294fcf448e35031288943bbec20b72157f2850651d7c5bb8452cf9b1e3121979fb26e82aed96524100000000"
}