{
  "txid": "85b6c84b4fbe49ccf6c91e5c9edfe7e0958c2734b4b96fde7a636599d1e529ea",
  "version": 1,
  "locktime": 0,
  "vin": [
    {
      "txid": "ce7b6f07d8740498cd346c68bfc63b37831e71ca79b7ff57afb4b2943999abc9",
      "vout": 96,
      "prevout": {
        "scriptpubkey": "0014acd69b76bde5967c0e64795fc7b49eb2bac877a3",
        "scriptpubkey_asm": "OP_0 OP_PUSHBYTES_20 acd69b76bde5967c0e64795fc7b49eb2bac877a3",
        "scriptpubkey_type": "v0_p2wpkh",
        "scriptpubkey_address": "bc1q4ntfka4aukt8crny090u0dy7k2avsaar888qux",
        "value": 1403300
      },
      "scriptsig": "",
      "scriptsig_asm": "",
      "witness": [
        "304402207d1a36f265656c66be0f7178d6fa041ea8482a83fad9cbb4c8d7cec2a624de87022032e767c39b560f34182272fb507b63e3d26ef4836a697aebe19a99f62a6d6ae901",
        "032e9c0187141e6c8162732352cb293730557df0fe968631d439b8f96110e213f0"
      ],
      "is_coinbase": false,
      "sequence": 4294967295
    },
    {
      "txid": "2b513959377d60d892e887f0971e109f662f4d8f12ab4a4e6cc1822f53de73ce",
      "vout": 1,
      "prevout": {
        "scriptpubkey": "0014c825b14252a565889275f62c2ccefa476db68394",
        "scriptpubkey_asm": "OP_0 OP_PUSHBYTES_20 c825b14252a565889275f62c2ccefa476db68394",
        "scriptpubkey_type": "v0_p2wpkh",
        "scriptpubkey_address": "bc1qeqjmzsjj54jc3yn47ckzenh6gakmdqu53fj0xn",
        "value": 591694
      },
      "scriptsig": "",
      "scriptsig_asm": "",
      "witness": [
        "30440220592515eadf11878ed7655a29a77e5da200531e23e8031a55cba7dc2c40b75161022070af87ac3a4a9e843471df6b98c1a3523b597d1aa57b05ba20cf8093a209ac4801",
        "034caff1dcc8b76b909ede20510181d931e144197802a1503ddcbb94199e367665"
      ],
      "is_coinbase": false,
      "sequence": 4294967295
    }
  ],
  "vout": [
    {
      "scriptpubkey": "0014ba0239e982ca73d044ecfae275db9bcb8a7e2540",
      "scriptpubkey_asm": "OP_0 OP_PUSHBYTES_20 ba0239e982ca73d044ecfae275db9bcb8a7e2540",
      "scriptpubkey_type": "v0_p2wpkh",
      "scriptpubkey_address": "bc1qhgprn6vzefeaq38vlt38tkumew98uf2qm3lj4v",
      "value": 1532972
    },
    {
      "scriptpubkey": "00148351fe64c6420ce75fd8e921e92d935982cd6178",
      "scriptpubkey_asm": "OP_0 OP_PUSHBYTES_20 8351fe64c6420ce75fd8e921e92d935982cd6178",
      "scriptpubkey_type": "v0_p2wpkh",
      "scriptpubkey_address": "bc1qsdgluexxggxwwh7cays7jtvntxpv6ctcwuyv4q",
      "value": 459096
    }
  ],
  "size": 370,
  "weight": 832,
  "fee": 2926,
  "status": {
    "confirmed": true,
    "block_height": 834460,
    "block_hash": "00000000000000000000484a79b643b2524bbce82e5d8a442013fa5b8905ed98",
    "block_time": 1710307468
  },
  "hex": "01000000000102c9ab993994b2b4af57ffb779ca711e83373bc6bf686c34cd980474d8076f7bce6000000000ffffffffce73de532f82c16c4e4aab128f4d2f669f101e97f087e892d8607d375939512b0100000000ffffffff022c64170000000000160014ba0239e982ca73d044ecfae275db9bcb8a7e254058010700000000001600148351fe64c6420ce75fd8e921e92d935982cd61780247304402207d1a36f265656c66be0f7178d6fa041ea8482a83fad9cbb4c8d7cec2a624de87022032e767c39b560f34182272fb507b63e3d26ef4836a697aebe19a99f62a6d6ae90121032e9c0187141e6c8162732352cb293730557df0fe968631d439b8f96110e213f0024730440220592515eadf11878ed7655a29a77e5da200531e23e8031a55cba7dc2c40b75161022070af87ac3a4a9e843471df6b98c1a3523b597d1aa57b05ba20cf8093a209ac480121034caff1dcc8b76b909ede20510181d931e144197802a1503ddcbb94199e36766500000000"
}