{
  "txid": "85b968dadb55c3130efb9ae5da3a0e4561af5e888b18acce732587546477ff80",
  "version": 2,
  "locktime": 834637,
  "vin": [
    {
      "txid": "e30b02fa79743dc016ab9985380f8d25d63a5500dc9d653e2eca2b2a57504112",
      "vout": 1,
      "prevout": {
        "scriptpubkey": "00149f484803c4c26c1a305a9b73c8861d4b1bcd52a9",
        "scriptpubkey_asm": "OP_0 OP_PUSHBYTES_20 9f484803c4c26c1a305a9b73c8861d4b1bcd52a9",
        "scriptpubkey_type": "v0_p2wpkh",
        "scriptpubkey_address": "bc1qnayysq7ycfkp5vz6ndeu3psafvdu654f7hj5as",
        "value": 105703
      },
      "scriptsig": "",
      "scriptsig_asm": "",
      "witness": [
        "30440220727ad5e88bb4aac9a6dbad9c365e84f49ac967503c2a527bfb61d47c52d90df80220398cde4c47e06fc7291527737cfe125712c11e903f194df743a14f84dbd53cbf01",
        "021e09644980e07b948b7b2fc294dcf5f0644e112bfa2dc217de735a123ff90bf3"
      ],
      "is_coinbase": false,
      "sequence": 4294967293
    },
    {
      "txid": "1ea3b1fc72363cf783e79e1c776e1ac5019f2810c428980d964af0160d0ae21c",
      "vout": 0,
      "prevout": {
        "scriptpubkey": "0014cf5c810aad3f276b27990368e47d3fd7030fc075",
        "scriptpubkey_asm": "OP_0 OP_PUSHBYTES_20 cf5c810aad3f276b27990368e47d3fd7030fc075",
        "scriptpubkey_type": "v0_p2wpkh",
        "scriptpubkey_address": "bc1qeawgzz4d8unkkfueqd5wglfl6upslsr42wng2x",
        "value": 206400
      },
      "scriptsig": "",
      "scriptsig_asm": "",
      "witness": [
        "30440220525d47f2cf3731d20c4ebc1c65b939b2586c4a8b7c7d35ec7308a85f2df8b12d022029ab20712f0207355e8cfd61bc7d17b4a92fac46ae8e2ddd866df85cd42177e001",
        "03b94d5eb579ef673d86fa0039c54a8be18824e24acf56e8c6ce00f40258c04e1a"
      ],
      "is_coinbase": false,
      "sequence": 4294967293
    }
  ],
  "vout": [
    {
      "scriptpubkey": "0014935b05423eabb5f7d81552118c69cd05878b3783",
      "scriptpubkey_asm": "OP_0 OP_PUSHBYTES_20 935b05423eabb5f7d81552118c69cd05878b3783",
      "scriptpubkey_type": "v0_p2wpkh",
      "scriptpubkey_address": "bc1qjdds2s374w6l0kq42ggcc6wdqkrckdurjaayru",
      "value": 304767
    }
  ],
  "size": 339,
  "weight": 708,
  "fee": 7336,
  "status": {
    "confirmed": true,
    "block_height": 834638,
    "block_hash": "000000000000000000025f742c626208ac87e0b7d15054abb4a19ca2d735a54e",
    "block_time": 1710405325
  },
  "hex": "02000000000102124150572a2bca2e3e659ddc00553ad6258d0f388599ab16c03d7479fa020be30100000000fdffffff1ce20a0d16f04a960d9828c410289f01c51a6e771c9ee783f73c3672fcb1a31e0000000000fdffffff017fa6040000000000160014935b05423eabb5f7d81552118c69cd05878b3783024730440220727ad5e88bb4aac9a6dbad9c365e84f49ac967503c2a527bfb61d47c52d90df80220398cde4c47e06fc7291527737cfe125712c11e903f194df743a14f84dbd53cbf0121021e09644980e07b948b7b2fc294dcf5f0644e112bfa2dc217de735a123ff90bf3024730440220525d47f2cf3731d20c4ebc1c65b939b2586c4a8b7c7d35ec7308a85f2df8b12d022029ab20712f0207355e8cfd61bc7d17b4a92fac46ae8e2ddd866df85cd42177e0012103b94d5eb579ef673d86fa0039c54a8be18824e24acf56e8c6ce00f40258c04e1a4dbc0c00"
}