{
  "txid": "85cbbab41dd733e16efb15f8acb3670416a96f0d89bb8dfbe58cfd04ff2e6199",
  "version": 1,
  "locktime": 0,
  "vin": [
    {
      "txid": "d7905c3b21eef414262c957aef0f16a58bf6d8baf4fb98cf153e671ab24a706e",
      "vout": 0,
      "prevout": {
        "scriptpubkey": "5120d9b8e13e237213b10fcf9a3ab8ccfecb586e9f3ffdb095fe63afd4e7e4cb8fcd",
        "scriptpubkey_asm": "OP_PUSHNUM_1 OP_PUSHBYTES_32 d9b8e13e237213b10fcf9a3ab8ccfecb586e9f3ffdb095fe63afd4e7e4cb8fcd",
        "scriptpubkey_type": "v1_p2tr",
        "scriptpubkey_address": "bc1pmxuwz03rwgfmzr70ngat3n87edvxa8ellkcftlnr4l2w0ext3lxs5dgfhw",
        "value": 3100
      },
      "scriptsig": "",
      "scriptsig_asm": "",
      "witness": [
        "1c84cba249ccc0de640a87b0abfde8418b1ad6dc090a5b18ce852b65165d763ffc42b314c0729429b4d1f001d7930515c2fb58c0f5999815022be25b2d01153201"
      ],
      "is_coinbase": false,
      "sequence": 4294967295
    },
    {
      "txid": "b84c44a1b6cf169d433ce8a8b4ce8d5acb16174024e012cd2464d95862f30bc3",
      "vout": 0,
      "prevout": {
        "scriptpubkey": "5120fb9f12ec9b2b8a8a44b26f08915817183186e162b88b263d52d15673904d1156",
        "scriptpubkey_asm": "OP_PUSHNUM_1 OP_PUSHBYTES_32 fb9f12ec9b2b8a8a44b26f08915817183186e162b88b263d52d15673904d1156",
        "scriptpubkey_type": "v1_p2tr",
        "scriptpubkey_address": "bc1plw039mym9w9g539jduyfzkqhrqccdctzhz9jv02j69t88yzdz9tq7kuxp9",
        "value": 2500
      },
      "scriptsig": "",
      "scriptsig_asm": "",
      "witness": [
        "678ee7afbeeae856fc9f441448ba81bf9f3f4554fe7cceaeb00da20f4b6695f29b70756a1c06f0c591da039bcddf92d47076a3747254f3e28a72f54dd88cd4e001"
      ],
      "is_coinbase": false,
      "sequence": 4294967295
    },
    {
      "txid": "eb0fa7ce6a5ce383a411b37d1732166e7f55c6a5423098dd35c269095ef459ee",
      "vout": 0,
      "prevout": {
        "scriptpubkey": "512088e64370a1f11752cd8ed9cb9c4619593f233695888bdab0532a8d5b32a201e0",
        "scriptpubkey_asm": "OP_PUSHNUM_1 OP_PUSHBYTES_32 88e64370a1f11752cd8ed9cb9c4619593f233695888bdab0532a8d5b32a201e0",
        "scriptpubkey_type": "v1_p2tr",
        "scriptpubkey_address": "bc1p3rnyxu9p7yt49nvwm89ec3setyljxd543z9a4vzn92x4kv4zq8sq5xdej5",
        "value": 2500
      },
      "scriptsig": "",
      "scriptsig_asm": "",
      "witness": [
        "22861c6b04614c19b7a49d5b9b4f236143b9fabd9cfdd2dacfeabc794c6c7bdb5d517ab5a7bd426cd1878ab26a83eeae17681b7c6365c8d96832cd302260c58d01"
      ],
      "is_coinbase": false,
      "sequence": 4294967295
    },
    {
      "txid": "b5fc38d0833237e3d7dc29de09c7ca15afe9894a3dad020f8fcdd6003977d1d1",
      "vout": 0,
      "prevout": {
        "scriptpubkey": "51207418084480bbe20ba1d3f53ce6bd92be871cb69efd7588b5f8812252de6a718d",
        "scriptpubkey_asm": "OP_PUSHNUM_1 OP_PUSHBYTES_32 7418084480bbe20ba1d3f53ce6bd92be871cb69efd7588b5f8812252de6a718d",
        "scriptpubkey_type": "v1_p2tr",
        "scriptpubkey_address": "bc1pwsvqs3yqh03qhgwn757wd0vjh6r3ed57l46c3d0csy399hn2wxxse0ezmj",
        "value": 2500
      },
      "scriptsig": "",
      "scriptsig_asm": "",
      "witness": [
        "4f76026d7b1c225f8995d8b20ec5256a84a9669c26a51233e99cc4dd2a6317a842db2a83296f1aba89399a9e67ab7749569424a1b63c1d6a20de0e2e6622c2a501"
      ],
      "is_coinbase": false,
      "sequence": 4294967295
    },
    {
      "txid": "3742f0cb916e203d0ff0e7e1ee85c703f007612edfe4c2f112386f54b5b204a3",
      "vout": 0,
      "prevout": {
        "scriptpubkey": "512029f89cfc4760c324003671858873455b5a44a13554bfeac7c7f38057017c2a4e",
        "scriptpubkey_asm": "OP_PUSHNUM_1 OP_PUSHBYTES_32 29f89cfc4760c324003671858873455b5a44a13554bfeac7c7f38057017c2a4e",
        "scriptpubkey_type": "v1_p2tr",
        "scriptpubkey_address": "bc1p98ufelz8vrpjgqpkwxzcsu69tddyfgf42jl743787wq9wqtu9f8qy8xs79",
        "value": 2500
      },
      "scriptsig": "",
      "scriptsig_asm": "",
      "witness": [
        "80b95156432e31ba8185639fc8d7d1dd6738ab1a0d04e2461885fac285ff1ec7794b49bf639129e81ac04341c67e2299a820982749074f78f130c3861edc2ce801"
      ],
      "is_coinbase": false,
      "sequence": 4294967295
    },
    {
      "txid": "cf2e58ce3e6a3ce918e0cabb3a50301130a75157ce5c87f5f093ea1f5f624f39",
      "vout": 0,
      "prevout": {
        "scriptpubkey": "512058288b43172a6b7c41397a42204ef56f26c65a50a9f31976a2a6b02198396d66",
        "scriptpubkey_asm": "OP_PUSHNUM_1 OP_PUSHBYTES_32 58288b43172a6b7c41397a42204ef56f26c65a50a9f31976a2a6b02198396d66",
        "scriptpubkey_type": "v1_p2tr",
        "scriptpubkey_address": "bc1ptq5gksch9f4hcsfe0fpzqnh4dunvvkjs48e3ja4z56czrxped4nq2u608a",
        "value": 2500
      },
      "scriptsig": "",
      "scriptsig_asm": "",
      "witness": [
        "14597b1dfa51b820ec6b970546036e5c641279b429bd6172005ecb6f6ab93eef4295f73606f49c1332ad257677a680d85adf1f2e892f3aed3d0fda825707634c01"
      ],
      "is_coinbase": false,
      "sequence": 4294967295
    },
    {
      "txid": "90ef3b6066ddd5d601779478a42724bcc493fc9c77bbd5db12115803bb5cf87b",
      "vout": 0,
      "prevout": {
        "scriptpubkey": "5120c2dcadcbc864c23d13992b5153efe617335a1f51a2eb2f7d2953f3ac02a3354d",
        "scriptpubkey_asm": "OP_PUSHNUM_1 OP_PUSHBYTES_32 c2dcadcbc864c23d13992b5153efe617335a1f51a2eb2f7d2953f3ac02a3354d",
        "scriptpubkey_type": "v1_p2tr",
        "scriptpubkey_address": "bc1pctw2mj7gvnpr6yue9dg48mlxzue458635t4j7lff20e6cq4rx4xsxw0qep",
        "value": 2500
      },
      "scriptsig": "",
      "scriptsig_asm": "",
      "witness": [
        "c3f21138164311a991eb95336692ece60759d6c485a2c3ce15cceb63f3d4b26e0fe75636a70147fd0408755934db97d3973f9f1ee7574a233c84bc86c8ff962b01"
      ],
      "is_coinbase": false,
      "sequence": 4294967295
    },
    {
      "txid": "09fc4195b38ef1dbc4626b20a2f7651ef62158243235f4bcf2be6f2462498bce",
      "vout": 0,
      "prevout": {
        "scriptpubkey": "512011437b006df3893aa2432f8f00f8cde5b447840073f8e0c146cffe72f2096bba",
        "scriptpubkey_asm": "OP_PUSHNUM_1 OP_PUSHBYTES_32 11437b006df3893aa2432f8f00f8cde5b447840073f8e0c146cffe72f2096bba",
        "scriptpubkey_type": "v1_p2tr",
        "scriptpubkey_address": "bc1pz9phkqrd7wyn4gjr978sp7xduk6y0pqqw0uwps2xell89usfdwaqshkhr7",
        "value": 2500
      },
      "scriptsig": "",
      "scriptsig_asm": "",
      "witness": [
        "acfe8b3ae78007a70a21613ae325fd2602f1d6572434ce71031d338618fbdf2e3ad2addaa765d523191ecf61a6e7bcd5bbc46851e78e7a3378cfdbaa7d03c14301"
      ],
      "is_coinbase": false,
      "sequence": 4294967295
    },
    {
      "txid": "4b7f6ba1992ee71a78053f005cd49a6c688e766496e3cbbb722e27bfc53a5716",
      "vout": 0,
      "prevout": {
        "scriptpubkey": "51201f017ce849940772ff1de5ce6ad2111d60ee5453c401d0f477829c36f5ebc99b",
        "scriptpubkey_asm": "OP_PUSHNUM_1 OP_PUSHBYTES_32 1f017ce849940772ff1de5ce6ad2111d60ee5453c401d0f477829c36f5ebc99b",
        "scriptpubkey_type": "v1_p2tr",
        "scriptpubkey_address": "bc1pruqhe6zfjsrh9lcauh8x45s3r4swu4zncsqaparhs2wrda0texdszmcqlq",
        "value": 2500
      },
      "scriptsig": "",
      "scriptsig_asm": "",
      "witness": [
        "6f8e9e3bd33adfedcb53f3e8c756390b80607d4106fd8a7cc68386bb4ab2dfc120198f93fbd2b1db6c0a7fad7d81091a614074f89b08ff9a58187febe3baf7ba01"
      ],
      "is_coinbase": false,
      "sequence": 4294967295
    },
    {
      "txid": "d8862cc96468a20dbcce40b1e0018a2b9576c67c5283a82213dca8b0a9a8f8d6",
      "vout": 0,
      "prevout": {
        "scriptpubkey": "512046f8455594577d50887f1999e66dd62bebafaa121b08179cdbbf5ce75a58af12",
        "scriptpubkey_asm": "OP_PUSHNUM_1 OP_PUSHBYTES_32 46f8455594577d50887f1999e66dd62bebafaa121b08179cdbbf5ce75a58af12",
        "scriptpubkey_type": "v1_p2tr",
        "scriptpubkey_address": "bc1pgmuy24v52a74pzrlrxv7vmwk9046l2sjrvyp08xmhawwwkjc4ufq8r38sj",
        "value": 2500
      },
      "scriptsig": "",
      "scriptsig_asm": "",
      "witness": [
        "cf97c22a573262e743e37ba35fdf0d16116312396e11c8f34a0e0ca1546d9e94a2036d35ae1035d572accc985ab9bb9b30d1d30148b39c0b46ff5b6b15213f0501"
      ],
      "is_coinbase": false,
      "sequence": 4294967295
    },
    {
      "txid": "d4405f8d23be525d0e5995301ab659deb6d023817b15390214874d9c5c7d0fed",
      "vout": 0,
      "prevout": {
        "scriptpubkey": "51205b97a201c9198406b1e3a7d5b4129259a6aacd6bfcca3ed4b58a4416668830ef",
        "scriptpubkey_asm": "OP_PUSHNUM_1 OP_PUSHBYTES_32 5b97a201c9198406b1e3a7d5b4129259a6aacd6bfcca3ed4b58a4416668830ef",
        "scriptpubkey_type": "v1_p2tr",
        "scriptpubkey_address": "bc1ptwt6yqwfrxzqdv0r5l2mgy5jtxn24nttln9ra4943fzpve5gxrhsa2yx5z",
        "value": 2500
      },
      "scriptsig": "",
      "scriptsig_asm": "",
      "witness": [
        "0085c50769aff31f76d94e98b5c8bd84830428768653c0207d8c4be55acfdd19fa145f8352d2a15cc2ca1fe7bed4ac6d1cfad849eec79551ed12a5de94d5ecb801"
      ],
      "is_coinbase": false,
      "sequence": 4294967295
    },
    {
      "txid": "ce7109c70d8d98e7695ae8af85b0b039819d3973546bb112ab14312fe134f765",
      "vout": 0,
      "prevout": {
        "scriptpubkey": "5120a1fab3b73c61a8c0ccbda7e73b3c56b0bbd0467877c546151a5eb5b0b65406b5",
        "scriptpubkey_asm": "OP_PUSHNUM_1 OP_PUSHBYTES_32 a1fab3b73c61a8c0ccbda7e73b3c56b0bbd0467877c546151a5eb5b0b65406b5",
        "scriptpubkey_type": "v1_p2tr",
        "scriptpubkey_address": "bc1p58at8deuvx5vpn9a5lnnk0zkkzaaq3ncwlz5v9g6t66mpdj5q66sqwjx30",
        "value": 2500
      },
      "scriptsig": "",
      "scriptsig_asm": "",
      "witness": [
        "fe6f5b9cf67804b0752750a65522b3d244d1df4f67b6dd4de85ed869d5ddabb9aca9f1919494dfd58fcb5804a4bea128bc07b10111e0cf26a5eb74764902403a01"
      ],
      "is_coinbase": false,
      "sequence": 4294967295
    },
    {
      "txid": "f5f9cc06ec8f8665e1e645f83f1fce17bcff5d7cfbd8e40f6644cce4601732a4",
      "vout": 0,
      "prevout": {
        "scriptpubkey": "51208d23346f1262e90d79c19ce377b9eea8cce8033294e9497bd4eeac0ee0dfe543",
        "scriptpubkey_asm": "OP_PUSHNUM_1 OP_PUSHBYTES_32 8d23346f1262e90d79c19ce377b9eea8cce8033294e9497bd4eeac0ee0dfe543",
        "scriptpubkey_type": "v1_p2tr",
        "scriptpubkey_address": "bc1p353ngmcjvt5s67wpnn3h0w0w4rxwsqejjn55j775a6kqacxlu4pspxzgut",
        "value": 2500
      },
      "scriptsig": "",
      "scriptsig_asm": "",
      "witness": [
        "b3f3fc827c8b36e4bb1436f5ea276fa7d48dc054619bfbdfddf1e841a6d650c6c3751e9328ecb81b0e56058962de7b56bc644c2d3f1a9c9c5040ec18e5168a2501"
      ],
      "is_coinbase": false,
      "sequence": 4294967295
    },
    {
      "txid": "e7834d1d26cdda47e33f3878bf6e8a4ea7e30ded12549cbaf44d0754f5bc7d66",
      "vout": 0,
      "prevout": {
        "scriptpubkey": "5120bc4d6d07b73ce8c69c6595a0f4520391eded4bb060acfbcfad9b73bf62aba9ff",
        "scriptpubkey_asm": "OP_PUSHNUM_1 OP_PUSHBYTES_32 bc4d6d07b73ce8c69c6595a0f4520391eded4bb060acfbcfad9b73bf62aba9ff",
        "scriptpubkey_type": "v1_p2tr",
        "scriptpubkey_address": "bc1ph3xk6pah8n5vd8r9jks0g5srj8k76jasvzk0hnadndem7c4t48lsun7nk7",
        "value": 2500
      },
      "scriptsig": "",
      "scriptsig_asm": "",
      "witness": [
        "4db2ece38fd75ff1d05a0f8fbbd3597ab84c832c4f3d5a6a84f2523ae626294399f4ea1e9aa6e0b584dbe088b926c88925cb8b1d6bb5be0f5b8a4a7a865a34bc01"
      ],
      "is_coinbase": false,
      "sequence": 4294967295
    },
    {
      "txid": "0a2a581392cd5c3d03fc6d2d596cb7a32bbf69ec192187dfbcab6762d5b2dff6",
      "vout": 0,
      "prevout": {
        "scriptpubkey": "512015afaac577c97c230e2876945b2f9e70b40a84a0bad4527a8697d045085b5a35",
        "scriptpubkey_asm": "OP_PUSHNUM_1 OP_PUSHBYTES_32 15afaac577c97c230e2876945b2f9e70b40a84a0bad4527a8697d045085b5a35",
        "scriptpubkey_type": "v1_p2tr",
        "scriptpubkey_address": "bc1pzkh643the97zxr3gw629ktu7wz6q4p9qht29y75xjlgy2zzmtg6sxed8eq",
        "value": 2500
      },
      "scriptsig": "",
      "scriptsig_asm": "",
      "witness": [
        "9a1ba40400316f97f2f2f868a0d60b39561b34829efba8663aab9a35f5333949bbe164904dafbb46ac3d99827ff9b98c01273d97fba6f514fcdb8815fec7ae5001"
      ],
      "is_coinbase": false,
      "sequence": 4294967295
    },
    {
      "txid": "86cb000d2544ef381b5aef4389763ea2d85dd50329e420a349e331b06207ebfd",
      "vout": 0,
      "prevout": {
        "scriptpubkey": "51207da9d4d5c7c25b550bd59ed18508ab0b39af65587ed68d22411bd27d654b8061",
        "scriptpubkey_asm": "OP_PUSHNUM_1 OP_PUSHBYTES_32 7da9d4d5c7c25b550bd59ed18508ab0b39af65587ed68d22411bd27d654b8061",
        "scriptpubkey_type": "v1_p2tr",
        "scriptpubkey_address": "bc1p0k5af4w8cfd42z74nmgc2z9tpvu67e2c0mtg6gjpr0f86e2tspsswedf3a",
        "value": 2500
      },
      "scriptsig": "",
      "scriptsig_asm": "",
      "witness": [
        "64d742abdf557ea23bd60d10dc32e39e3afbcdae2148e4e384b590db5ffa1a9cd644be9bbe8b5fa409f652bb1659a243a195a8b75a6e80666a6d273c0cb7466e01"
      ],
      "is_coinbase": false,
      "sequence": 4294967295
    },
    {
      "txid": "826a698f23b0d4a1ac63e45a3b6f739a0e4ed0782dd23875d2d29eebfd2edb8d",
      "vout": 0,
      "prevout": {
        "scriptpubkey": "5120e5b46df9a18925c2d1f2f237f8bf91944716c27e5d732b0bd697c6cfb4409d16",
        "scriptpubkey_asm": "OP_PUSHNUM_1 OP_PUSHBYTES_32 e5b46df9a18925c2d1f2f237f8bf91944716c27e5d732b0bd697c6cfb4409d16",
        "scriptpubkey_type": "v1_p2tr",
        "scriptpubkey_address": "bc1puk6xm7dp3yju950j7gml30u3j3r3dsn7t4ejkz7kjlrvldzqn5tq87wlqg",
        "value": 2500
      },
      "scriptsig": "",
      "scriptsig_asm": "",
      "witness": [
        "8e86feb3445421a56ca608e24a7657ec8f4b0994a78d0c6ba9739febe1b6e5f29617c04ff77bbd60e87b4c510817a8677c485d5eee82a96090e85900379e396201"
      ],
      "is_coinbase": false,
      "sequence": 4294967295
    },
    {
      "txid": "7f363dd72ae50f89f771606aa08b33b13cfcdef94152406cc2cf4f21d9dfbd78",
      "vout": 0,
      "prevout": {
        "scriptpubkey": "512010f9f0258e729f5035417cfde19135be3a591c54abf6c0780796423db0ed9b33",
        "scriptpubkey_asm": "OP_PUSHNUM_1 OP_PUSHBYTES_32 10f9f0258e729f5035417cfde19135be3a591c54abf6c0780796423db0ed9b33",
        "scriptpubkey_type": "v1_p2tr",
        "scriptpubkey_address": "bc1pzrulqfvww204qd2p0n77ryf4hca9j8z540mvq7q8jeprmv8dnvesqrjpmv",
        "value": 2500
      },
      "scriptsig": "",
      "scriptsig_asm": "",
      "witness": [
        "0d50ac5efa9e316d1552ea851281b37a1054ea460a88393604acd76ae783a89c7c640dffd9b9d79af20fdc3b67be6aa0e02fe723844fdb5ebfeccea3c1521ddf01"
      ],
      "is_coinbase": false,
      "sequence": 4294967295
    },
    {
      "txid": "bcc69c9af8bf359a95d824cb28dcbb05612af74abdd76e30ad110b1e7be7be66",
      "vout": 0,
      "prevout": {
        "scriptpubkey": "51200257f54258ab64221c906665ef841422e54462fda2de34f6560db5103d760738",
        "scriptpubkey_asm": "OP_PUSHNUM_1 OP_PUSHBYTES_32 0257f54258ab64221c906665ef841422e54462fda2de34f6560db5103d760738",
        "scriptpubkey_type": "v1_p2tr",
        "scriptpubkey_address": "bc1pqftl2sjc4djzy8ysvej7lpq5ytj5gcha5t0rfajkpk63q0tkquuqvkuev7",
        "value": 2500
      },
      "scriptsig": "",
      "scriptsig_asm": "",
      "witness": [
        "2d54a6cbe18436d0661b976c4024e0f25defa3c35f63a715a19f01afd99530064cd9b14562cdb079d74fb286b6c85294d34193c5f27e7ad9ec7f0b8ff524e3d901"
      ],
      "is_coinbase": false,
      "sequence": 4294967295
    },
    {
      "txid": "c86748c232075112f3478ce568a008ec041ff14bd3ba2a77bec4f7b3091ccb85",
      "vout": 0,
      "prevout": {
        "scriptpubkey": "5120aa7ca80879013af394f39a74d483095553ff69bd4a669154eb0ac00e892f7064",
        "scriptpubkey_asm": "OP_PUSHNUM_1 OP_PUSHBYTES_32 aa7ca80879013af394f39a74d483095553ff69bd4a669154eb0ac00e892f7064",
        "scriptpubkey_type": "v1_p2tr",
        "scriptpubkey_address": "bc1p4f72szreqya0898nnf6dfqcf24fl76daffnfz48tptqqazf0wpjq72lmgr",
        "value": 2500
      },
      "scriptsig": "",
      "scriptsig_asm": "",
      "witness": [
        "340438add54ba69498b0674c5b785f06a828be39b085757d5f9fe20377ee91b07325348e200b07484190ade6b641b68256e005a9ab50553dc3bf26a6f3ea7e6d01"
      ],
      "is_coinbase": false,
      "sequence": 4294967295
    },
    {
      "txid": "7cbe70c8bb838390f55d39f8177f89065d34001303651af1600b5c015cd51d69",
      "vout": 0,
      "prevout": {
        "scriptpubkey": "5120e01efe46ac24536b86c47b7bad7d636d91b41c4e9d07cd7c3609be909ab83c4b",
        "scriptpubkey_asm": "OP_PUSHNUM_1 OP_PUSHBYTES_32 e01efe46ac24536b86c47b7bad7d636d91b41c4e9d07cd7c3609be909ab83c4b",
        "scriptpubkey_type": "v1_p2tr",
        "scriptpubkey_address": "bc1puq00u34vy3fkhpky0da66ltrdkgmg8zwn5ru6lpkpxlfpx4c839s2rvz5a",
        "value": 2500
      },
      "scriptsig": "",
      "scriptsig_asm": "",
      "witness": [
        "94d277308bf414bdfb32931512da9f84716359141ffa14544e41bfcca1cd25834d6eea483c2a619aa63004320c93bd5f2c26e44fe6b44b8cf02771a5955d845501"
      ],
      "is_coinbase": false,
      "sequence": 4294967295
    },
    {
      "txid": "f59c9b01dbbe161c928f448662852b647f83da1fd798a2811501d5ae98bab290",
      "vout": 0,
      "prevout": {
        "scriptpubkey": "5120fd12e9ca878a06be8126fe811002511b2e219d75e952ac10cb7e673c71777ae3",
        "scriptpubkey_asm": "OP_PUSHNUM_1 OP_PUSHBYTES_32 fd12e9ca878a06be8126fe811002511b2e219d75e952ac10cb7e673c71777ae3",
        "scriptpubkey_type": "v1_p2tr",
        "scriptpubkey_address": "bc1pl5fwnj583grtaqfxl6q3qqj3rvhzr8t4a9f2cyxt0enncuth0t3ska78y4",
        "value": 2500
      },
      "scriptsig": "",
      "scriptsig_asm": "",
      "witness": [
        "e83903c56bd8dbfb2b58832aa66d125d2c83e092bf3bcd1ff50034a38929679b5f40f3aea464f38ea0fd6c05439913da183af9fff9086cb3c06522d8379a1fda01"
      ],
      "is_coinbase": false,
      "sequence": 4294967295
    }
  ],
  "vout": [
    {
      "scriptpubkey": "002094ab40c0a28e18698e92435c885720a2cbac827e7d62e6db12dfa979124b8884",
      "scriptpubkey_asm": "OP_0 OP_PUSHBYTES_32 94ab40c0a28e18698e92435c885720a2cbac827e7d62e6db12dfa979124b8884",
      "scriptpubkey_type": "v0_p2wsh",
      "scriptpubkey_address": "bc1qjj45ps9z3cvxnr5jgdwgs4eq5t96eqn7043wdkcjm75hjyjt3zzqe2cgks",
      "value": 37058
    }
  ],
  "size": 2431,
  "weight": 5296,
  "fee": 18542,
  "status": {
    "confirmed": true,
    "block_height": 834460,
    "block_hash": "00000000000000000000484a79b643b2524bbce82e5d8a442013fa5b8905ed98",
    "block_time": 1710307468
  },
  "hex": "010000000001166e704ab21a673e15cf98fbf4bad8f68ba5160fef7a952c2614f4ee213b5c90d70000000000ffffffffc30bf36258d96424cd12e024401716cb5a8dceb4a8e83c439d16cfb6a1444cb80000000000ffffffffee59f45e0969c235dd983042a5c6557f6e1632177db311a483e35c6acea70feb0000000000ffffffffd1d1773900d6cd8f0f02ad3d4a89e9af15cac709de29dcd7e3373283d038fcb50000000000ffffffffa304b2b5546f3812f1c2e4df2e6107f003c785eee1e7f00f3d206e91cbf042370000000000ffffffff394f625f1fea93f0f5875cce5751a7301130503abbcae018e93c6a3ece582ecf0000000000ffffffff7bf85cbb03581112dbd5bb779cfc93c4bc2427a478947701d6d5dd66603bef900000000000ffffffffce8b4962246fbef2bcf43532245821f61e65f7a2206b62c4dbf18eb39541fc090000000000ffffffff16573ac5bf272e72bbcbe39664768e686c9ad45c003f05781ae72e99a16b7f4b0000000000ffffffffd6f8a8a9b0a8dc1322a883527cc676952b8a01e0b140cebc0da26864c92c86d80000000000ffffffffed0f7d5c9c4d87140239157b8123d0b6de59b61a3095590e5d52be238d5f40d40000000000ffffffff65f734e12f3114ab12b16b5473399d8139b0b085afe85a69e7988d0dc70971ce0000000000ffffffffa4321760e4cc44660fe4d8fb7c5dffbc17ce1f3ff845e6e165868fec06ccf9f50000000000ffffffff667dbcf554074df4ba9c5412ed0de3a74e8a6ebf78383fe347dacd261d4d83e70000000000fffffffff6dfb2d56267abbcdf872119ec69bf2ba3b76c592d6dfc033d5ccd9213582a0a0000000000fffffffffdeb0762b031e349a320e42903d55dd8a23e768943ef5a1b38ef44250d00cb860000000000ffffffff8ddb2efdeb9ed2d27538d22d78d04e0e9a736f3b5ae463aca1d4b0238f696a820000000000ffffffff78bddfd9214fcfc26c405241f9defc3cb1338ba06a6071f7890fe52ad73d367f0000000000ffffffff66bee77b1e0b11ad306ed7bd4af72a6105bbdc28cb24d8959a35bff89a9cc6bc0000000000ffffffff85cb1c09b3f7c4be772abad34bf11f04ec08a068e58c47f312510732c24867c80000000000ffffffff691dd55c015c0b60f11a65031300345d06897f17f8395df5908383bbc870be7c0000000000ffffffff90b2ba98aed5011581a298d71fda837f642b856286448f921c16bedb019b9cf50000000000ffffffff01c29000000000000022002094ab40c0a28e18698e92435c885720a2cbac827e7d62e6db12dfa979124b888401411c84cba249ccc0de640a87b0abfde8418b1ad6dc090a5b18ce852b65165d763ffc42b314c0729429b4d1f001d7930515c2fb58c0f5999815022be25b2d011532010141678ee7afbeeae856fc9f441448ba81bf9f3f4554fe7cceaeb00da20f4b6695f29b70756a1c06f0c591da039bcddf92d47076a3747254f3e28a72f54dd88cd4e001014122861c6b04614c19b7a49d5b9b4f236143b9fabd9cfdd2dacfeabc794c6c7bdb5d517ab5a7bd426cd1878ab26a83eeae17681b7c6365c8d96832cd302260c58d0101414f76026d7b1c225f8995d8b20ec5256a84a9669c26a51233e99cc4dd2a6317a842db2a83296f1aba89399a9e67ab7749569424a1b63c1d6a20de0e2e6622c2a501014180b95156432e31ba8185639fc8d7d1dd6738ab1a0d04e2461885fac285ff1ec7794b49bf639129e81ac04341c67e2299a820982749074f78f130c3861edc2ce801014114597b1dfa51b820ec6b970546036e5c641279b429bd6172005ecb6f6ab93eef4295f73606f49c1332ad257677a680d85adf1f2e892f3aed3d0fda825707634c010141c3f21138164311a991eb95336692ece60759d6c485a2c3ce15cceb63f3d4b26e0fe75636a70147fd0408755934db97d3973f9f1ee7574a233c84bc86c8ff962b010141acfe8b3ae78007a70a21613ae325fd2602f1d6572434ce71031d338618fbdf2e3ad2addaa765d523191ecf61a6e7bcd5bbc46851e78e7a3378cfdbaa7d03c1430101416f8e9e3bd33adfedcb53f3e8c756390b80607d4106fd8a7cc68386bb4ab2dfc120198f93fbd2b1db6c0a7fad7d81091a614074f89b08ff9a58187febe3baf7ba010141cf97c22a573262e743e37ba35fdf0d16116312396e11c8f34a0e0ca1546d9e94a2036d35ae1035d572accc985ab9bb9b30d1d30148b39c0b46ff5b6b15213f050101410085c50769aff31f76d94e98b5c8bd84830428768653c0207d8c4be55acfdd19fa145f8352d2a15cc2ca1fe7bed4ac6d1cfad849eec79551ed12a5de94d5ecb8010141fe6f5b9cf67804b0752750a65522b3d244d1df4f67b6dd4de85ed869d5ddabb9aca9f1919494dfd58fcb5804a4bea128bc07b10111e0cf26a5eb74764902403a010141b3f3fc827c8b36e4bb1436f5ea276fa7d48dc054619bfbdfddf1e841a6d650c6c3751e9328ecb81b0e56058962de7b56bc644c2d3f1a9c9c5040ec18e5168a250101414db2ece38fd75ff1d05a0f8fbbd3597ab84c832c4f3d5a6a84f2523ae626294399f4ea1e9aa6e0b584dbe088b926c88925cb8b1d6bb5be0f5b8a4a7a865a34bc0101419a1ba40400316f97f2f2f868a0d60b39561b34829efba8663aab9a35f5333949bbe164904dafbb46ac3d99827ff9b98c01273d97fba6f514fcdb8815fec7ae5001014164d742abdf557ea23bd60d10dc32e39e3afbcdae2148e4e384b590db5ffa1a9cd644be9bbe8b5fa409f652bb1659a243a195a8b75a6e80666a6d273c0cb7466e0101418e86feb3445421a56ca608e24a7657ec8f4b0994a78d0c6ba9739febe1b6e5f29617c04ff77bbd60e87b4c510817a8677c485d5eee82a96090e85900379e39620101410d50ac5efa9e316d1552ea851281b37a1054ea460a88393604acd76ae783a89c7c640dffd9b9d79af20fdc3b67be6aa0e02fe723844fdb5ebfeccea3c1521ddf0101412d54a6cbe18436d0661b976c4024e0f25defa3c35f63a715a19f01afd99530064cd9b14562cdb079d74fb286b6c85294d34193c5f27e7ad9ec7f0b8ff524e3d9010141340438add54ba69498b0674c5b785f06a828be39b085757d5f9fe20377ee91b07325348e200b07484190ade6b641b68256e005a9ab50553dc3bf26a6f3ea7e6d01014194d277308bf414bdfb32931512da9f84716359141ffa14544e41bfcca1cd25834d6eea483c2a619aa63004320c93bd5f2c26e44fe6b44b8cf02771a5955d8455010141e83903c56bd8dbfb2b58832aa66d125d2c83e092bf3bcd1ff50034a38929679b5f40f3aea464f38ea0fd6c05439913da183af9fff9086cb3c06522d8379a1fda0100000000"
}