{
  "txid": "85d59a9ce722db2f1f307c8038b8ce5bdd22d0aaddbfb11816e49cdf32c03d27",
  "version": 1,
  "locktime": 0,
  "vin": [
    {
      "txid": "8888888f9abebfc5c91827e4a2b74134d3ca4afc5dfe5c39bb1bc86688705e81",
      "vout": 0,
      "prevout": {
        "scriptpubkey": "5120ccaf4d143052fbc3059053db85a59a428323110dd0e613cd1b085992e72f5d6a",
        "scriptpubkey_asm": "OP_PUSHNUM_1 OP_PUSHBYTES_32 ccaf4d143052fbc3059053db85a59a428323110dd0e613cd1b085992e72f5d6a",
        "scriptpubkey_type": "v1_p2tr",
        "scriptpubkey_address": "bc1pejh569ps2tauxpvs20dctfv6g2pjxygd6rnp8ngmppve9ee0t44qgpzv0u",
        "value": 12212
      },
      "scriptsig": "",
      "scriptsig_asm": "",
      "witness": [
        "1cf61e7450e90ca8aa281f5e78e6b7d4590892a978a7a7059de9133372eeebae05bfb289263daf0cee702394dbd85d05dc07c82253e2f1a492224ad3fcf9c95b",
        "20dfa7325ed77fab28d796d113dcead29a7490c58aaa244f71cf02d52f6b761081ac00630461746f6d03646d7440a16461726773a46474696d651a65e13dc0656e6f6e63650068626974776f726b6369383838383838382e326b6d696e745f7469636b657268696e66696e69747968",
        "c1dfa7325ed77fab28d796d113dcead29a7490c58aaa244f71cf02d52f6b761081"
      ],
      "is_coinbase": false,
      "sequence": 0
    }
  ],
  "vout": [
    {
      "scriptpubkey": "5120aa73a09e037f0130ff41b85fc1c2b235c29eeb6a4c900ef0707074ea4526c74b",
      "scriptpubkey_asm": "OP_PUSHNUM_1 OP_PUSHBYTES_32 aa73a09e037f0130ff41b85fc1c2b235c29eeb6a4c900ef0707074ea4526c74b",
      "scriptpubkey_type": "v1_p2tr",
      "scriptpubkey_address": "bc1p4fe6p8sr0uqnpl6php0urs4jxhpfa6m2fjgqaurswp6w53fxca9s0375pw",
      "value": 9999
    }
  ],
  "size": 308,
  "weight": 590,
  "fee": 2213,
  "status": {
    "confirmed": true,
    "block_height": 834464,
    "block_hash": "0000000000000000000177a0869a911a2b65c9bdcd5a8bcb02b68f305bee848e",
    "block_time": 1710308296
  },
  "hex": "01000000000101815e708866c81bbb395cfe5dfc4acad33441b7a2e42718c9c5bfbe9a8f888888000000000000000000010f27000000000000225120aa73a09e037f0130ff41b85fc1c2b235c29eeb6a4c900ef0707074ea4526c74b03401cf61e7450e90ca8aa281f5e78e6b7d4590892a978a7a7059de9133372eeebae05bfb289263daf0cee702394dbd85d05dc07c82253e2f1a492224ad3fcf9c95b6f20dfa7325ed77fab28d796d113dcead29a7490c58aaa244f71cf02d52f6b761081ac00630461746f6d03646d7440a16461726773a46474696d651a65e13dc0656e6f6e63650068626974776f726b6369383838383838382e326b6d696e745f7469636b657268696e66696e6974796821c1dfa7325ed77fab28d796d113dcead29a7490c58aaa244f71cf02d52f6b76108100000000"
}