{
  "txid": "85df591de56d39839d2443eec41d81a1049cecf5a7ece846e616800940778e2a",
  "version": 2,
  "locktime": 0,
  "vin": [
    {
      "txid": "acc3ba00869acb582a3f2904ce3a11dd3779350ce234063fc7d0959246213364",
      "vout": 297,
      "prevout": {
        "scriptpubkey": "51200bc42ee1627e1471cfec26479ead9db56c06ffb74d089b951ba6560acd1b93e2",
        "scriptpubkey_asm": "OP_PUSHNUM_1 OP_PUSHBYTES_32 0bc42ee1627e1471cfec26479ead9db56c06ffb74d089b951ba6560acd1b93e2",
        "scriptpubkey_type": "v1_p2tr",
        "scriptpubkey_address": "bc1pp0zzactz0c28rnlvyereatvak4kqdlahf5yfh9gm5etq4ngmj03qau79yj",
        "value": 1806
      },
      "scriptsig": "",
      "scriptsig_asm": "",
      "witness": [
        "fd1cf55c8290ecc931f75ccf34d444a5485e2ae049121d35516a4a497e69f2bfad8cf714692550d585589879b0a02a2c8bfa2a0e54dff023c49f2346b3d06d0e",
        "20941d31c92c30de3578f6f8a10f87871c8757f1eaad780a0c06f487ed17a8303bac0063036f726401010a746578742f706c61696e00357b2270223a226272632d3230222c226f70223a226d696e74222c227469636b223a22646f6765222c22616d74223a2234323030227d68",
        "c0941d31c92c30de3578f6f8a10f87871c8757f1eaad780a0c06f487ed17a8303b"
      ],
      "is_coinbase": false,
      "sequence": 4261412863
    }
  ],
  "vout": [
    {
      "scriptpubkey": "00147a665de7a370f4c9b372ab1fae587500a5bcbdb4",
      "scriptpubkey_asm": "OP_0 OP_PUSHBYTES_20 7a665de7a370f4c9b372ab1fae587500a5bcbdb4",
      "scriptpubkey_type": "v0_p2wpkh",
      "scriptpubkey_address": "bc1q0fn9mearwr6vnvmj4v06ukr4qzjme0d565dzcx",
      "value": 294
    }
  ],
  "size": 294,
  "weight": 540,
  "fee": 1512,
  "status": {
    "confirmed": true,
    "block_height": 834460,
    "block_hash": "00000000000000000000484a79b643b2524bbce82e5d8a442013fa5b8905ed98",
    "block_time": 1710307468
  },
  "hex": "02000000000101643321469295d0c73f0634e20c357937dd113ace04293f2a58cb9a8600bac3ac2901000000fffffffd0126010000000000001600147a665de7a370f4c9b372ab1fae587500a5bcbdb40340fd1cf55c8290ecc931f75ccf34d444a5485e2ae049121d35516a4a497e69f2bfad8cf714692550d585589879b0a02a2c8bfa2a0e54dff023c49f2346b3d06d0e6d20941d31c92c30de3578f6f8a10f87871c8757f1eaad780a0c06f487ed17a8303bac0063036f726401010a746578742f706c61696e00357b2270223a226272632d3230222c226f70223a226d696e74222c227469636b223a22646f6765222c22616d74223a2234323030227d6821c0941d31c92c30de3578f6f8a10f87871c8757f1eaad780a0c06f487ed17a8303b00000000"
}