{
  "txid": "85f353f7ba11efb38ccf91e31cfc26a76fa197746df672773a3c67a4f19d3fa0",
  "version": 1,
  "locktime": 0,
  "vin": [
    {
      "txid": "e6b676c15902b703408b251dd2b085c2856723bc01b45125a4fe218dbbac7cd8",
      "vout": 4,
      "prevout": {
        "scriptpubkey": "0014acda03fa7646a3c3d8927bd7466d1e5000abee57",
        "scriptpubkey_asm": "OP_0 OP_PUSHBYTES_20 acda03fa7646a3c3d8927bd7466d1e5000abee57",
        "scriptpubkey_type": "v0_p2wpkh",
        "scriptpubkey_address": "bc1q4ndq87nkg63u8kyj00t5vmg72qq2hmjh7jxcvg",
        "value": 40267110
      },
      "scriptsig": "",
      "scriptsig_asm": "",
      "witness": [
        "3045022100e697aa43d589b09d2bf53a564893baa10ee268bec90a11c872c97c49e578d9a502201f28b9168e7faef612f0cfb3ee5e164dcd549bbb7be6526e582c79ff44fe520601",
        "03f4148501f7bf762a448dd6590d5276cb4fd09abde50317c6186305fd6490d581"
      ],
      "is_coinbase": false,
      "sequence": 4294967295
    }
  ],
  "vout": [
    {
      "scriptpubkey": "00146cdf0fbfc5f42c7dab0fdd999da7803a400a7c0a",
      "scriptpubkey_asm": "OP_0 OP_PUSHBYTES_20 6cdf0fbfc5f42c7dab0fdd999da7803a400a7c0a",
      "scriptpubkey_type": "v0_p2wpkh",
      "scriptpubkey_address": "bc1qdn0sl0797sk8m2c0mkvemfuq8fqq5lq2v04dqz",
      "value": 54358
    },
    {
      "scriptpubkey": "0014faa2d12e322de7652bd7d80e9b5593b8453c29fc",
      "scriptpubkey_asm": "OP_0 OP_PUSHBYTES_20 faa2d12e322de7652bd7d80e9b5593b8453c29fc",
      "scriptpubkey_type": "v0_p2wpkh",
      "scriptpubkey_address": "bc1ql23dzt3j9hnk227hmq8fk4vnhpznc20us6q98k",
      "value": 5231928
    },
    {
      "scriptpubkey": "00148c1235da3b8187b3ed3a6944773daec8557a609a",
      "scriptpubkey_asm": "OP_0 OP_PUSHBYTES_20 8c1235da3b8187b3ed3a6944773daec8557a609a",
      "scriptpubkey_type": "v0_p2wpkh",
      "scriptpubkey_address": "bc1q3sfrtk3msxrm8mf6d9z8w0dwep2h5cy6zvwh43",
      "value": 158010
    },
    {
      "scriptpubkey": "0014369624e0038641c71b88f62801917fa1bb1fc89c",
      "scriptpubkey_asm": "OP_0 OP_PUSHBYTES_20 369624e0038641c71b88f62801917fa1bb1fc89c",
      "scriptpubkey_type": "v0_p2wpkh",
      "scriptpubkey_address": "bc1qx6tzfcqrsequwxug7c5qrytl5xa3ljyulg8t7p",
      "value": 10360
    },
    {
      "scriptpubkey": "a9149489d213263bfffa87b3a93a7084b33b1837d37087",
      "scriptpubkey_asm": "OP_HASH160 OP_PUSHBYTES_20 9489d213263bfffa87b3a93a7084b33b1837d370 OP_EQUAL",
      "scriptpubkey_type": "p2sh",
      "scriptpubkey_address": "3FER2stLpf9BrHr41NsHMEBLRunmVjZhkK",
      "value": 873093
    },
    {
      "scriptpubkey": "00146880581b59938fa0c5f9cc3fae59594cb14d4fe7",
      "scriptpubkey_asm": "OP_0 OP_PUSHBYTES_20 6880581b59938fa0c5f9cc3fae59594cb14d4fe7",
      "scriptpubkey_type": "v0_p2wpkh",
      "scriptpubkey_address": "bc1qdzq9sx6ejw86p30eesl6uk2efjc56nl8287pkv",
      "value": 33972
    },
    {
      "scriptpubkey": "76a9142afe8fc0c16398052b06ba71949077aa6e1dd67d88ac",
      "scriptpubkey_asm": "OP_DUP OP_HASH160 OP_PUSHBYTES_20 2afe8fc0c16398052b06ba71949077aa6e1dd67d OP_EQUALVERIFY OP_CHECKSIG",
      "scriptpubkey_type": "p2pkh",
      "scriptpubkey_address": "14vLLJYHtANiAb2wqtT9ivYHgG1scKZkNv",
      "value": 164352
    },
    {
      "scriptpubkey": "001453fa0ed32649136eb44e4b6f01226ae1f947e6ff",
      "scriptpubkey_asm": "OP_0 OP_PUSHBYTES_20 53fa0ed32649136eb44e4b6f01226ae1f947e6ff",
      "scriptpubkey_type": "v0_p2wpkh",
      "scriptpubkey_address": "bc1q20aqa5exfyfkadzwfdhszgn2u8u50ehlcjwguv",
      "value": 52790
    },
    {
      "scriptpubkey": "00146b7f54d8b91c0c9d2f78a78b4a0450267e40df76",
      "scriptpubkey_asm": "OP_0 OP_PUSHBYTES_20 6b7f54d8b91c0c9d2f78a78b4a0450267e40df76",
      "scriptpubkey_type": "v0_p2wpkh",
      "scriptpubkey_address": "bc1qddl4fk9ersxf6tmc57955pzsyelyphmkq2uk94",
      "value": 101921
    },
    {
      "scriptpubkey": "00142b2e3203f4b4f092aa18fb3358343d6c675701f7",
      "scriptpubkey_asm": "OP_0 OP_PUSHBYTES_20 2b2e3203f4b4f092aa18fb3358343d6c675701f7",
      "scriptpubkey_type": "v0_p2wpkh",
      "scriptpubkey_address": "bc1q9vhryql5kncf92sclve4sdpad3n4wq0h6tnjwm",
      "value": 244465
    },
    {
      "scriptpubkey": "a9143f6b7c317b410ff83a1e9319f7afe24912b4549d87",
      "scriptpubkey_asm": "OP_HASH160 OP_PUSHBYTES_20 3f6b7c317b410ff83a1e9319f7afe24912b4549d OP_EQUAL",
      "scriptpubkey_type": "p2sh",
      "scriptpubkey_address": "37UMFpuiGx5xQC45L9SryGu1uQ9KuWA88G",
      "value": 10132
    },
    {
      "scriptpubkey": "76a914c0438153290ad01347695aad162b4758cf692ade88ac",
      "scriptpubkey_asm": "OP_DUP OP_HASH160 OP_PUSHBYTES_20 c0438153290ad01347695aad162b4758cf692ade OP_EQUALVERIFY OP_CHECKSIG",
      "scriptpubkey_type": "p2pkh",
      "scriptpubkey_address": "1JXbcB3n1T4nf1FrWkTWUVKws3wALkpaSE",
      "value": 1040850
    },
    {
      "scriptpubkey": "76a91498c9bbd7652a258110fff388808b542aad3cbefe88ac",
      "scriptpubkey_asm": "OP_DUP OP_HASH160 OP_PUSHBYTES_20 98c9bbd7652a258110fff388808b542aad3cbefe OP_EQUALVERIFY OP_CHECKSIG",
      "scriptpubkey_type": "p2pkh",
      "scriptpubkey_address": "1EvsNsBoTS5jD7VhLup1sETb6Gkr7RuAWb",
      "value": 23075417
    },
    {
      "scriptpubkey": "a914cc47a62f17f99c98999a2cd095bec9e44e18180487",
      "scriptpubkey_asm": "OP_HASH160 OP_PUSHBYTES_20 cc47a62f17f99c98999a2cd095bec9e44e181804 OP_EQUAL",
      "scriptpubkey_type": "p2sh",
      "scriptpubkey_address": "3LK9bwvejx11hW8U3rrUAYDJhwsRWuDnPA",
      "value": 8730906
    },
    {
      "scriptpubkey": "001400257e76136d325574c199b6b3312231132ab273",
      "scriptpubkey_asm": "OP_0 OP_PUSHBYTES_20 00257e76136d325574c199b6b3312231132ab273",
      "scriptpubkey_type": "v0_p2wpkh",
      "scriptpubkey_address": "bc1qqqjhuasnd5e92axpnxmtxvfzxyfj4vnnfdawp4",
      "value": 203320
    },
    {
      "scriptpubkey": "a914e724867306aa472236cd0f64bfd08ca4c54edb5b87",
      "scriptpubkey_asm": "OP_HASH160 OP_PUSHBYTES_20 e724867306aa472236cd0f64bfd08ca4c54edb5b OP_EQUAL",
      "scriptpubkey_type": "p2sh",
      "scriptpubkey_address": "3NmBmfu35HwQsrwEDXSERMuZfYxWueNZga",
      "value": 16306
    },
    {
      "scriptpubkey": "76a9149081be8c7286dcd97b1bfcf33810a183a1cef43388ac",
      "scriptpubkey_asm": "OP_DUP OP_HASH160 OP_PUSHBYTES_20 9081be8c7286dcd97b1bfcf33810a183a1cef433 OP_EQUALVERIFY OP_CHECKSIG",
      "scriptpubkey_type": "p2pkh",
      "scriptpubkey_address": "1EB5jREAjvhX22dbACHUZk5UWNvRoFZunu",
      "value": 86420
    },
    {
      "scriptpubkey": "a914770ce51fe3566cb60345e033cd493845a297451c87",
      "scriptpubkey_asm": "OP_HASH160 OP_PUSHBYTES_20 770ce51fe3566cb60345e033cd493845a297451c OP_EQUAL",
      "scriptpubkey_type": "p2sh",
      "scriptpubkey_address": "3CYVnLGsEkKbr2PFFKz1aHvdgGdvordWXV",
      "value": 130808
    },
    {
      "scriptpubkey": "00149790d929763ea78686f7c2e8fc614c9c4da4e7df",
      "scriptpubkey_asm": "OP_0 OP_PUSHBYTES_20 9790d929763ea78686f7c2e8fc614c9c4da4e7df",
      "scriptpubkey_type": "v0_p2wpkh",
      "scriptpubkey_address": "bc1qj7gdj2tk86ncdphhct50cc2vn3x6fe7l38x9tc",
      "value": 29211
    }
  ],
  "size": 767,
  "weight": 2738,
  "fee": 18491,
  "status": {
    "confirmed": true,
    "block_height": 834638,
    "block_hash": "000000000000000000025f742c626208ac87e0b7d15054abb4a19ca2d735a54e",
    "block_time": 1710405325
  },
  "hex": "01000000000101d87cacbb8d21fea42551b401bc236785c285b0d21d258b4003b70259c176b6e60400000000ffffffff1356d40000000000001600146cdf0fbfc5f42c7dab0fdd999da7803a400a7c0a38d54f0000000000160014faa2d12e322de7652bd7d80e9b5593b8453c29fc3a690200000000001600148c1235da3b8187b3ed3a6944773daec8557a609a7828000000000000160014369624e0038641c71b88f62801917fa1bb1fc89c85520d000000000017a9149489d213263bfffa87b3a93a7084b33b1837d37087b4840000000000001600146880581b59938fa0c5f9cc3fae59594cb14d4fe700820200000000001976a9142afe8fc0c16398052b06ba71949077aa6e1dd67d88ac36ce00000000000016001453fa0ed32649136eb44e4b6f01226ae1f947e6ff218e0100000000001600146b7f54d8b91c0c9d2f78a78b4a0450267e40df76f1ba0300000000001600142b2e3203f4b4f092aa18fb3358343d6c675701f7942700000000000017a9143f6b7c317b410ff83a1e9319f7afe24912b4549d87d2e10f00000000001976a914c0438153290ad01347695aad162b4758cf692ade88ac591a6001000000001976a91498c9bbd7652a258110fff388808b542aad3cbefe88ac1a3985000000000017a914cc47a62f17f99c98999a2cd095bec9e44e18180487381a03000000000016001400257e76136d325574c199b6b3312231132ab273b23f00000000000017a914e724867306aa472236cd0f64bfd08ca4c54edb5b8794510100000000001976a9149081be8c7286dcd97b1bfcf33810a183a1cef43388acf8fe01000000000017a914770ce51fe3566cb60345e033cd493845a297451c871b720000000000001600149790d929763ea78686f7c2e8fc614c9c4da4e7df02483045022100e697aa43d589b09d2bf53a564893baa10ee268bec90a11c872c97c49e578d9a502201f28b9168e7faef612f0cfb3ee5e164dcd549bbb7be6526e582c79ff44fe5206012103f4148501f7bf762a448dd6590d5276cb4fd09abde50317c6186305fd6490d58100000000"
}