{
  "txid": "86003177b4516596a8532d2e420d77dbe9996a139a5234bfb302b046a5771ec0",
  "version": 2,
  "locktime": 0,
  "vin": [
    {
      "txid": "1f5b131bf76a423fe3e8ce88b92657df1e18b85751de933c9c6c9047453a17aa",
      "vout": 1,
      "prevout": {
        "scriptpubkey": "00149c0a9f112688c85fcb4417b05c8dec775e4cab36",
        "scriptpubkey_asm": "OP_0 OP_PUSHBYTES_20 9c0a9f112688c85fcb4417b05c8dec775e4cab36",
        "scriptpubkey_type": "v0_p2wpkh",
        "scriptpubkey_address": "bc1qns9f7yfx3ry9lj6yz7c9er0vwa0ye2eklpzqfw",
        "value": 316359921
      },
      "scriptsig": "",
      "scriptsig_asm": "",
      "witness": [
        "304402202296401acc1012abbf17bb71ee2110ae25e53d33c2a7b9bee973ddca5c29adac022071387ea96752b9064d48b1301f02a16317393e4c5e4da64121cb7a95315a115501",
        "02616129debb96ad4f83f00ad5ef5d16ffd7878e7f5dcfb1b193451680631635ee"
      ],
      "is_coinbase": false,
      "sequence": 4294967293
    }
  ],
  "vout": [
    {
      "scriptpubkey": "0014863b5afb08dd32e3d04aed89c723d2b099bfbd73",
      "scriptpubkey_asm": "OP_0 OP_PUSHBYTES_20 863b5afb08dd32e3d04aed89c723d2b099bfbd73",
      "scriptpubkey_type": "v0_p2wpkh",
      "scriptpubkey_address": "bc1qsca447cgm5ew85z2akyuwg7jkzvml0tn4ukcv8",
      "value": 50100864
    },
    {
      "scriptpubkey": "00149c0a9f112688c85fcb4417b05c8dec775e4cab36",
      "scriptpubkey_asm": "OP_0 OP_PUSHBYTES_20 9c0a9f112688c85fcb4417b05c8dec775e4cab36",
      "scriptpubkey_type": "v0_p2wpkh",
      "scriptpubkey_address": "bc1qns9f7yfx3ry9lj6yz7c9er0vwa0ye2eklpzqfw",
      "value": 266257224
    }
  ],
  "size": 222,
  "weight": 561,
  "fee": 1833,
  "status": {
    "confirmed": true,
    "block_height": 834460,
    "block_hash": "00000000000000000000484a79b643b2524bbce82e5d8a442013fa5b8905ed98",
    "block_time": 1710307468
  },
  "hex": "02000000000101aa173a4547906c9c3c93de5157b8181edf5726b988cee8e33f426af71b135b1f0100000000fdffffff02807afc0200000000160014863b5afb08dd32e3d04aed89c723d2b099bfbd7348c3de0f000000001600149c0a9f112688c85fcb4417b05c8dec775e4cab360247304402202296401acc1012abbf17bb71ee2110ae25e53d33c2a7b9bee973ddca5c29adac022071387ea96752b9064d48b1301f02a16317393e4c5e4da64121cb7a95315a1155012102616129debb96ad4f83f00ad5ef5d16ffd7878e7f5dcfb1b193451680631635ee00000000"
}