{
  "txid": "8612636b7e6b06f90ab40705a5166b8860d46bc5c3c77ec825b1f4578c830ffb",
  "version": 1,
  "locktime": 0,
  "vin": [
    {
      "txid": "8d6fc5954b46fe0927148f062b492466ea5169e54ca846e4fa79de8289e4aa5b",
      "vout": 1,
      "prevout": {
        "scriptpubkey": "0014c533fb7eb2f98c904d19c0b69be415e7b0932ac5",
        "scriptpubkey_asm": "OP_0 OP_PUSHBYTES_20 c533fb7eb2f98c904d19c0b69be415e7b0932ac5",
        "scriptpubkey_type": "v0_p2wpkh",
        "scriptpubkey_address": "bc1qc5elkl4jlxxfqngeczmfheq4u7cfx2k9j9ckmc",
        "value": 137764
      },
      "scriptsig": "",
      "scriptsig_asm": "",
      "witness": [
        "304402205fa241baf5056a853299c6afdb5140a192902ee45ce98466dabc7237fedaebdc0220202ad18b77d2b5da8ebc7a6ce84b5aca7b778d12eea947e0b2ac5c4f7503961c01",
        "029bb92aef16a3df7e0df9e13ddbdc793a87d130cbecca3ef957a975c7e2210c24"
      ],
      "is_coinbase": false,
      "sequence": 4294967295
    }
  ],
  "vout": [
    {
      "scriptpubkey": "a914cb0bd7bfd52afca9f963c13c3182f6f4ce64934387",
      "scriptpubkey_asm": "OP_HASH160 OP_PUSHBYTES_20 cb0bd7bfd52afca9f963c13c3182f6f4ce649343 OP_EQUAL",
      "scriptpubkey_type": "p2sh",
      "scriptpubkey_address": "3LCdHLQnyBwPmFJTkEnMi3LhmdWp4EQphr",
      "value": 134767
    }
  ],
  "size": 192,
  "weight": 441,
  "fee": 2997,
  "status": {
    "confirmed": true,
    "block_height": 834638,
    "block_hash": "000000000000000000025f742c626208ac87e0b7d15054abb4a19ca2d735a54e",
    "block_time": 1710405325
  },
  "hex": "010000000001015baae48982de79fae446a84ce56951ea6624492b068f142709fe464b95c56f8d0100000000ffffffff016f0e02000000000017a914cb0bd7bfd52afca9f963c13c3182f6f4ce649343870247304402205fa241baf5056a853299c6afdb5140a192902ee45ce98466dabc7237fedaebdc0220202ad18b77d2b5da8ebc7a6ce84b5aca7b778d12eea947e0b2ac5c4f7503961c0121029bb92aef16a3df7e0df9e13ddbdc793a87d130cbecca3ef957a975c7e2210c2400000000"
}