{
  "txid": "861429d2121729bca3b7fc35df621f1a95d612abb575bbbbf57f29c661d8ec0f",
  "version": 1,
  "locktime": 0,
  "vin": [
    {
      "txid": "ef17577d35139629d0ea4252dc0bc96a6584a8e206e356f54df8e47e5a3ba771",
      "vout": 0,
      "prevout": {
        "scriptpubkey": "76a91445067ed7e9624cb8d88a8b28b3db32df7ca27fe888ac",
        "scriptpubkey_asm": "OP_DUP OP_HASH160 OP_PUSHBYTES_20 45067ed7e9624cb8d88a8b28b3db32df7ca27fe8 OP_EQUALVERIFY OP_CHECKSIG",
        "scriptpubkey_type": "p2pkh",
        "scriptpubkey_address": "17HyQYvDtheUbWzAykTScnB6nWCBrEVzgW",
        "value": 546
      },
      "scriptsig": "47304402202bf0347a98ed7fc2c252b979415f0a3af3b80a143a6c17923595fe2d3e8a9a02022024b4398af8fbea1822deb923fda35a42e4ddb48ad45d2cb4661285142eddb9a0012103239522adbfaf68366dd547e4fe58dccefe1613d83a18ca1d5e7b217135f5e55f",
      "scriptsig_asm": "OP_PUSHBYTES_71 304402202bf0347a98ed7fc2c252b979415f0a3af3b80a143a6c17923595fe2d3e8a9a02022024b4398af8fbea1822deb923fda35a42e4ddb48ad45d2cb4661285142eddb9a001 OP_PUSHBYTES_33 03239522adbfaf68366dd547e4fe58dccefe1613d83a18ca1d5e7b217135f5e55f",
      "is_coinbase": false,
      "sequence": 2147483649
    },
    {
      "txid": "84b3b0d162096e4943b0b762be938ac988ec595bd61590e660db4b00b70a54f5",
      "vout": 1,
      "prevout": {
        "scriptpubkey": "76a91445067ed7e9624cb8d88a8b28b3db32df7ca27fe888ac",
        "scriptpubkey_asm": "OP_DUP OP_HASH160 OP_PUSHBYTES_20 45067ed7e9624cb8d88a8b28b3db32df7ca27fe8 OP_EQUALVERIFY OP_CHECKSIG",
        "scriptpubkey_type": "p2pkh",
        "scriptpubkey_address": "17HyQYvDtheUbWzAykTScnB6nWCBrEVzgW",
        "value": 44996
      },
      "scriptsig": "47304402207f60c4e5d003516b8b3b6c126a9de97428437a3f53914fced45f0db70d4fcd1f022073946141d3729207ec16ffd725c2f897ed29dc236a1cf7b54b3fe63953f8c240012103239522adbfaf68366dd547e4fe58dccefe1613d83a18ca1d5e7b217135f5e55f",
      "scriptsig_asm": "OP_PUSHBYTES_71 304402207f60c4e5d003516b8b3b6c126a9de97428437a3f53914fced45f0db70d4fcd1f022073946141d3729207ec16ffd725c2f897ed29dc236a1cf7b54b3fe63953f8c24001 OP_PUSHBYTES_33 03239522adbfaf68366dd547e4fe58dccefe1613d83a18ca1d5e7b217135f5e55f",
      "is_coinbase": false,
      "sequence": 2147483649
    }
  ],
  "vout": [
    {
      "scriptpubkey": "512032a3755773920f03568100846b0a12faf7f8d24740693337a610951815a5ee3c",
      "scriptpubkey_asm": "OP_PUSHNUM_1 OP_PUSHBYTES_32 32a3755773920f03568100846b0a12faf7f8d24740693337a610951815a5ee3c",
      "scriptpubkey_type": "v1_p2tr",
      "scriptpubkey_address": "bc1px23h24mnjg8sx45pqzzxkzsjltml35j8gp5nxdaxzz23s9d9ac7q6pxehq",
      "value": 546
    },
    {
      "scriptpubkey": "76a91445067ed7e9624cb8d88a8b28b3db32df7ca27fe888ac",
      "scriptpubkey_asm": "OP_DUP OP_HASH160 OP_PUSHBYTES_20 45067ed7e9624cb8d88a8b28b3db32df7ca27fe8 OP_EQUALVERIFY OP_CHECKSIG",
      "scriptpubkey_type": "p2pkh",
      "scriptpubkey_address": "17HyQYvDtheUbWzAykTScnB6nWCBrEVzgW",
      "value": 38884
    }
  ],
  "size": 381,
  "weight": 1524,
  "fee": 6112,
  "status": {
    "confirmed": true,
    "block_height": 834638,
    "block_hash": "000000000000000000025f742c626208ac87e0b7d15054abb4a19ca2d735a54e",
    "block_time": 1710405325
  },
  "hex": "010000000271a73b5a7ee4f84df556e306e2a884656ac90bdc5242ead0299613357d5717ef000000006a47304402202bf0347a98ed7fc2c252b979415f0a3af3b80a143a6c17923595fe2d3e8a9a02022024b4398af8fbea1822deb923fda35a42e4ddb48ad45d2cb4661285142eddb9a0012103239522adbfaf68366dd547e4fe58dccefe1613d83a18ca1d5e7b217135f5e55f01000080f5540ab7004bdb60e69015d65b59ec88c98a93be62b7b043496e0962d1b0b384010000006a47304402207f60c4e5d003516b8b3b6c126a9de97428437a3f53914fced45f0db70d4fcd1f022073946141d3729207ec16ffd725c2f897ed29dc236a1cf7b54b3fe63953f8c240012103239522adbfaf68366dd547e4fe58dccefe1613d83a18ca1d5e7b217135f5e55f0100008002220200000000000022512032a3755773920f03568100846b0a12faf7f8d24740693337a610951815a5ee3ce4970000000000001976a91445067ed7e9624cb8d88a8b28b3db32df7ca27fe888ac00000000"
}