{
  "txid": "862937f5972ad3bbd69475cc04dc7c9eedc5bf48dd225ebb513fbf697b4d1b5f",
  "version": 2,
  "locktime": 834637,
  "vin": [
    {
      "txid": "ffaa91cb56f697e8c9b9134405a1f9f8d6b430617fd05ce436318ed362becbda",
      "vout": 1,
      "prevout": {
        "scriptpubkey": "0014b10120ed319f28bb7440e9d9e1a4a7dbc4f8fa64",
        "scriptpubkey_asm": "OP_0 OP_PUSHBYTES_20 b10120ed319f28bb7440e9d9e1a4a7dbc4f8fa64",
        "scriptpubkey_type": "v0_p2wpkh",
        "scriptpubkey_address": "bc1qkyqjpmf3nu5tkazqa8v7rf98m0z037nyc4g7ng",
        "value": 251291352
      },
      "scriptsig": "",
      "scriptsig_asm": "",
      "witness": [
        "30440220630e79a4c6d5cc2d47378771013b8004949fadae63c40741a66048fb5931ed5d02203b0918bc689e6500ef9050dcfbe1ab1c68d999d158d2d5f399b0c837fdb2587101",
        "02bec8500cad9d831d3e02e1cb1c01bd551d5855dfc7b1309a2543e4d8cec73a69"
      ],
      "is_coinbase": false,
      "sequence": 4294967294
    }
  ],
  "vout": [
    {
      "scriptpubkey": "00143c594e0c9e42f7ac0fd98319d29119d640629066",
      "scriptpubkey_asm": "OP_0 OP_PUSHBYTES_20 3c594e0c9e42f7ac0fd98319d29119d640629066",
      "scriptpubkey_type": "v0_p2wpkh",
      "scriptpubkey_address": "bc1q83v5ury7gtm6cr7esvva9yge6eqx9yrxj7hwhg",
      "value": 249773272
    },
    {
      "scriptpubkey": "a9147b71178483c079da954fd260073e31318937e75a87",
      "scriptpubkey_asm": "OP_HASH160 OP_PUSHBYTES_20 7b71178483c079da954fd260073e31318937e75a OP_EQUAL",
      "scriptpubkey_type": "p2sh",
      "scriptpubkey_address": "3CwiWu87sEt4dNqt7gQrBfsnHyCVmTdckS",
      "value": 1514600
    }
  ],
  "size": 223,
  "weight": 565,
  "fee": 3480,
  "status": {
    "confirmed": true,
    "block_height": 834638,
    "block_hash": "000000000000000000025f742c626208ac87e0b7d15054abb4a19ca2d735a54e",
    "block_time": 1710405325
  },
  "hex": "02000000000101dacbbe62d38e3136e45cd07f6130b4d6f8f9a1054413b9c9e897f656cb91aaff0100000000feffffff02d83ce30e000000001600143c594e0c9e42f7ac0fd98319d29119d640629066681c17000000000017a9147b71178483c079da954fd260073e31318937e75a87024730440220630e79a4c6d5cc2d47378771013b8004949fadae63c40741a66048fb5931ed5d02203b0918bc689e6500ef9050dcfbe1ab1c68d999d158d2d5f399b0c837fdb25871012102bec8500cad9d831d3e02e1cb1c01bd551d5855dfc7b1309a2543e4d8cec73a694dbc0c00"
}