{
  "txid": "8633ca380177f2cf0640837881a84e52a397ef61b2d43cd8f6fcced9c8cc778c",
  "version": 2,
  "locktime": 0,
  "vin": [
    {
      "txid": "3166b03258b5f1b9c2e49c7d5734d1e565e7f37800f7bc3e6ee61fed2bed8a94",
      "vout": 0,
      "prevout": {
        "scriptpubkey": "a91449425b72b1ad9ebd74a150d93c6fa865dd7e2b6287",
        "scriptpubkey_asm": "OP_HASH160 OP_PUSHBYTES_20 49425b72b1ad9ebd74a150d93c6fa865dd7e2b62 OP_EQUAL",
        "scriptpubkey_type": "p2sh",
        "scriptpubkey_address": "38NNk8N4q11JHVhmSaYva1gpqE1g7WDCaF",
        "value": 150000000
      },
      "scriptsig": "1600145dadd3e487a78cf7488c1ec2d560d1eff6431082",
      "scriptsig_asm": "OP_PUSHBYTES_22 00145dadd3e487a78cf7488c1ec2d560d1eff6431082",
      "witness": [
        "304402203888baafba21ed526c40ba519ef9b1c1878d63923321248ed98589ab87d1278002207486db141e50c38ea0b4f6cfc87f487453025ba937223a6099f1bfbb755a8ed901",
        "0302b8295a4448ece2297ea6ac7228a48dc29d539c6de4a7e0255276e60e099f78"
      ],
      "is_coinbase": false,
      "sequence": 0,
      "inner_redeemscript_asm": "OP_0 OP_PUSHBYTES_20 5dadd3e487a78cf7488c1ec2d560d1eff6431082"
    },
    {
      "txid": "ddd07dec9280e658184703352767875287c421d62b8c1d86442f6fc96a409791",
      "vout": 1,
      "prevout": {
        "scriptpubkey": "a91449425b72b1ad9ebd74a150d93c6fa865dd7e2b6287",
        "scriptpubkey_asm": "OP_HASH160 OP_PUSHBYTES_20 49425b72b1ad9ebd74a150d93c6fa865dd7e2b62 OP_EQUAL",
        "scriptpubkey_type": "p2sh",
        "scriptpubkey_address": "38NNk8N4q11JHVhmSaYva1gpqE1g7WDCaF",
        "value": 92224
      },
      "scriptsig": "1600145dadd3e487a78cf7488c1ec2d560d1eff6431082",
      "scriptsig_asm": "OP_PUSHBYTES_22 00145dadd3e487a78cf7488c1ec2d560d1eff6431082",
      "witness": [
        "3044022007690d960ffd708e2a7c93e67767d8f8c66ebc2ebb9e03cc439b549f2cb131e902206d9b0ec559a85d45fa2fedb8c7334c3933f9df322e178c2665b598a596e75dd901",
        "0302b8295a4448ece2297ea6ac7228a48dc29d539c6de4a7e0255276e60e099f78"
      ],
      "is_coinbase": false,
      "sequence": 0,
      "inner_redeemscript_asm": "OP_0 OP_PUSHBYTES_20 5dadd3e487a78cf7488c1ec2d560d1eff6431082"
    },
    {
      "txid": "15218aa8499eac0f9078af34053a1398413a9a0c1de3fce2347f0856d3286357",
      "vout": 0,
      "prevout": {
        "scriptpubkey": "a91449425b72b1ad9ebd74a150d93c6fa865dd7e2b6287",
        "scriptpubkey_asm": "OP_HASH160 OP_PUSHBYTES_20 49425b72b1ad9ebd74a150d93c6fa865dd7e2b62 OP_EQUAL",
        "scriptpubkey_type": "p2sh",
        "scriptpubkey_address": "38NNk8N4q11JHVhmSaYva1gpqE1g7WDCaF",
        "value": 142470363
      },
      "scriptsig": "1600145dadd3e487a78cf7488c1ec2d560d1eff6431082",
      "scriptsig_asm": "OP_PUSHBYTES_22 00145dadd3e487a78cf7488c1ec2d560d1eff6431082",
      "witness": [
        "3044022029939437a65b13c82c06c4d2e0d790f6ac3e057ef244faaebfceec85b12a3351022068def90f316914916d00816fb3b6acd1af3f0e6be0c0f63b2e7fba8f5830435601",
        "0302b8295a4448ece2297ea6ac7228a48dc29d539c6de4a7e0255276e60e099f78"
      ],
      "is_coinbase": false,
      "sequence": 0,
      "inner_redeemscript_asm": "OP_0 OP_PUSHBYTES_20 5dadd3e487a78cf7488c1ec2d560d1eff6431082"
    }
  ],
  "vout": [
    {
      "scriptpubkey": "00141c02ce5426307102f9c76c96c68001124b9e6e3e",
      "scriptpubkey_asm": "OP_0 OP_PUSHBYTES_20 1c02ce5426307102f9c76c96c68001124b9e6e3e",
      "scriptpubkey_type": "v0_p2wpkh",
      "scriptpubkey_address": "bc1qrspvu4pxxpcs97w8djtvdqqpzf9eum37r2jcvf",
      "value": 292000000
    },
    {
      "scriptpubkey": "a91449425b72b1ad9ebd74a150d93c6fa865dd7e2b6287",
      "scriptpubkey_asm": "OP_HASH160 OP_PUSHBYTES_20 49425b72b1ad9ebd74a150d93c6fa865dd7e2b62 OP_EQUAL",
      "scriptpubkey_type": "p2sh",
      "scriptpubkey_address": "38NNk8N4q11JHVhmSaYva1gpqE1g7WDCaF",
      "value": 553443
    }
  ],
  "size": 588,
  "weight": 1383,
  "fee": 9144,
  "status": {
    "confirmed": true,
    "block_height": 834638,
    "block_hash": "000000000000000000025f742c626208ac87e0b7d15054abb4a19ca2d735a54e",
    "block_time": 1710405325
  },
  "hex": "02000000000103948aed2bed1fe66e3ebcf70078f3e765e5d134577d9ce4c2b9f1b55832b0663100000000171600145dadd3e487a78cf7488c1ec2d560d1eff6431082000000009197406ac96f2f44861d8c2bd621c487528767273503471858e68092ec7dd0dd01000000171600145dadd3e487a78cf7488c1ec2d560d1eff643108200000000576328d356087f34e2fce31d0c9a3a4198133a0534af78900fac9e49a88a211500000000171600145dadd3e487a78cf7488c1ec2d560d1eff6431082000000000200916711000000001600141c02ce5426307102f9c76c96c68001124b9e6e3ee37108000000000017a91449425b72b1ad9ebd74a150d93c6fa865dd7e2b62870247304402203888baafba21ed526c40ba519ef9b1c1878d63923321248ed98589ab87d1278002207486db141e50c38ea0b4f6cfc87f487453025ba937223a6099f1bfbb755a8ed901210302b8295a4448ece2297ea6ac7228a48dc29d539c6de4a7e0255276e60e099f7802473044022007690d960ffd708e2a7c93e67767d8f8c66ebc2ebb9e03cc439b549f2cb131e902206d9b0ec559a85d45fa2fedb8c7334c3933f9df322e178c2665b598a596e75dd901210302b8295a4448ece2297ea6ac7228a48dc29d539c6de4a7e0255276e60e099f7802473044022029939437a65b13c82c06c4d2e0d790f6ac3e057ef244faaebfceec85b12a3351022068def90f316914916d00816fb3b6acd1af3f0e6be0c0f63b2e7fba8f5830435601210302b8295a4448ece2297ea6ac7228a48dc29d539c6de4a7e0255276e60e099f7800000000"
}