{
  "txid": "865146eff87493d955018723da8ffe2a83473a8432a4cfdc673a712d15646c6f",
  "version": 2,
  "locktime": 0,
  "vin": [
    {
      "txid": "b2682f3fc7dac851d080247901bebff58491e7c009fe507cb19fc87283b61d9d",
      "vout": 1,
      "prevout": {
        "scriptpubkey": "5120426c88094861f04aab106a513e6426a2150dbc919c318666f20ca7961ca57877",
        "scriptpubkey_asm": "OP_PUSHNUM_1 OP_PUSHBYTES_32 426c88094861f04aab106a513e6426a2150dbc919c318666f20ca7961ca57877",
        "scriptpubkey_type": "v1_p2tr",
        "scriptpubkey_address": "bc1pgfkgsz2gv8cy42csdfgnuepx5g2sm0y3nsccvehjpjnev8990pms7jp9n5",
        "value": 1820021
      },
      "scriptsig": "",
      "scriptsig_asm": "",
      "witness": [
        "a47ea945978f1b788c32212d84eda386f029ec05bf9c73a576d355344b7472aaaf01e28ece78ec52340f2063cd78b34fce700fdd651eb5bc3e5995e34915b209"
      ],
      "is_coinbase": false,
      "sequence": 4294967295
    }
  ],
  "vout": [
    {
      "scriptpubkey": "512070812404d87daa3af87d7d9ead7718ec8f5b9c262da7f933ac97583c6ae35199",
      "scriptpubkey_asm": "OP_PUSHNUM_1 OP_PUSHBYTES_32 70812404d87daa3af87d7d9ead7718ec8f5b9c262da7f933ac97583c6ae35199",
      "scriptpubkey_type": "v1_p2tr",
      "scriptpubkey_address": "bc1pwzqjgpxc0k4r47ra0k026accaj84h8px9knljvavjavrc6hr2xvs8uw4rc",
      "value": 4256
    },
    {
      "scriptpubkey": "5120426c88094861f04aab106a513e6426a2150dbc919c318666f20ca7961ca57877",
      "scriptpubkey_asm": "OP_PUSHNUM_1 OP_PUSHBYTES_32 426c88094861f04aab106a513e6426a2150dbc919c318666f20ca7961ca57877",
      "scriptpubkey_type": "v1_p2tr",
      "scriptpubkey_address": "bc1pgfkgsz2gv8cy42csdfgnuepx5g2sm0y3nsccvehjpjnev8990pms7jp9n5",
      "value": 1813581
    }
  ],
  "size": 205,
  "weight": 616,
  "fee": 2184,
  "status": {
    "confirmed": true,
    "block_height": 834638,
    "block_hash": "000000000000000000025f742c626208ac87e0b7d15054abb4a19ca2d735a54e",
    "block_time": 1710405325
  },
  "hex": "020000000001019d1db68372c89fb17c50fe09c0e79184f5bfbe01792480d051c8dac73f2f68b20100000000ffffffff02a01000000000000022512070812404d87daa3af87d7d9ead7718ec8f5b9c262da7f933ac97583c6ae351994dac1b0000000000225120426c88094861f04aab106a513e6426a2150dbc919c318666f20ca7961ca578770140a47ea945978f1b788c32212d84eda386f029ec05bf9c73a576d355344b7472aaaf01e28ece78ec52340f2063cd78b34fce700fdd651eb5bc3e5995e34915b20900000000"
}