{
  "txid": "8653e98db1837b29bc6f84fa0fe01f1e9428b5c140f359b1d14a5726aedd9690",
  "version": 1,
  "locktime": 0,
  "vin": [
    {
      "txid": "45e8154374dcbac049c680c90fc24cdd73a67474382d60d1b4638eef0a942be8",
      "vout": 1,
      "prevout": {
        "scriptpubkey": "0014aa7b80d96ff28e8329bf46425f797e8db2edb94e",
        "scriptpubkey_asm": "OP_0 OP_PUSHBYTES_20 aa7b80d96ff28e8329bf46425f797e8db2edb94e",
        "scriptpubkey_type": "v0_p2wpkh",
        "scriptpubkey_address": "bc1q4facpkt0728gx2dlgep977t73kewmw2wh785ml",
        "value": 137424
      },
      "scriptsig": "",
      "scriptsig_asm": "",
      "witness": [
        "3044022015fa8e572450ca7dc7e9df37ae514507675e1d75495e79148db7bdf08f4d1a4e0220156c898e8aa7632b636565b920f33e8bc74a6ea07ac390c1006b04de63b1c0b401",
        "037b58919119acf847d06ce6be264d1bc070ec2033b0bf0944c88d6a2c151fcda8"
      ],
      "is_coinbase": false,
      "sequence": 4294967295
    }
  ],
  "vout": [
    {
      "scriptpubkey": "76a914ba783aaa8dada56b1627144140f6aa612cff3f4288ac",
      "scriptpubkey_asm": "OP_DUP OP_HASH160 OP_PUSHBYTES_20 ba783aaa8dada56b1627144140f6aa612cff3f42 OP_EQUALVERIFY OP_CHECKSIG",
      "scriptpubkey_type": "p2pkh",
      "scriptpubkey_address": "1HzxiMG1DLhNoADL2pzJDaHKpH9jgkYqMt",
      "value": 134373
    }
  ],
  "size": 194,
  "weight": 449,
  "fee": 3051,
  "status": {
    "confirmed": true,
    "block_height": 834638,
    "block_hash": "000000000000000000025f742c626208ac87e0b7d15054abb4a19ca2d735a54e",
    "block_time": 1710405325
  },
  "hex": "01000000000101e82b940aef8e63b4d1602d387474a673dd4cc20fc980c649c0badc744315e8450100000000ffffffff01e50c0200000000001976a914ba783aaa8dada56b1627144140f6aa612cff3f4288ac02473044022015fa8e572450ca7dc7e9df37ae514507675e1d75495e79148db7bdf08f4d1a4e0220156c898e8aa7632b636565b920f33e8bc74a6ea07ac390c1006b04de63b1c0b40121037b58919119acf847d06ce6be264d1bc070ec2033b0bf0944c88d6a2c151fcda800000000"
}