{
  "txid": "8664c750ee7d618f862ed441ab6bb3df65fb98f855a4ddb9bb95e1a0dba626b2",
  "version": 1,
  "locktime": 0,
  "vin": [
    {
      "txid": "dab400902000fb3872ac4c4c30c60c591d2c82841031eb246651d8008b8b8ad3",
      "vout": 3,
      "prevout": {
        "scriptpubkey": "76a914c46e98594d1a5c3d313eb88d4790dba81422ae8788ac",
        "scriptpubkey_asm": "OP_DUP OP_HASH160 OP_PUSHBYTES_20 c46e98594d1a5c3d313eb88d4790dba81422ae87 OP_EQUALVERIFY OP_CHECKSIG",
        "scriptpubkey_type": "p2pkh",
        "scriptpubkey_address": "1Judvt9ihNZNMVgoj2LGjZQj49QssMBTwR",
        "value": 1407562
      },
      "scriptsig": "483045022100b965d6375b0d77a2003a1822007065234e3f90482a15ca1f7141c7935efd0e840220544f32e4122e14dcfc7c3c90ffd595f51ea86cc308f1a0f9e987d36e5d09a98f01210350e371eb46733bc5a19515087e36a997d38d7e7c4c7658da5d0afc7c95c77061",
      "scriptsig_asm": "OP_PUSHBYTES_72 3045022100b965d6375b0d77a2003a1822007065234e3f90482a15ca1f7141c7935efd0e840220544f32e4122e14dcfc7c3c90ffd595f51ea86cc308f1a0f9e987d36e5d09a98f01 OP_PUSHBYTES_33 0350e371eb46733bc5a19515087e36a997d38d7e7c4c7658da5d0afc7c95c77061",
      "is_coinbase": false,
      "sequence": 4294967295
    }
  ],
  "vout": [
    {
      "scriptpubkey": "76a91437157093495007da5a0d5b7fe4dbd78d9ce33fbe88ac",
      "scriptpubkey_asm": "OP_DUP OP_HASH160 OP_PUSHBYTES_20 37157093495007da5a0d5b7fe4dbd78d9ce33fbe OP_EQUALVERIFY OP_CHECKSIG",
      "scriptpubkey_type": "p2pkh",
      "scriptpubkey_address": "162FrDCv89puGPUu2ciBvc59udQTXhLEyx",
      "value": 1361734
    },
    {
      "scriptpubkey": "76a9141eeec96d1b7e84919c558349225d6fd1ec8b4beb88ac",
      "scriptpubkey_asm": "OP_DUP OP_HASH160 OP_PUSHBYTES_20 1eeec96d1b7e84919c558349225d6fd1ec8b4beb OP_EQUALVERIFY OP_CHECKSIG",
      "scriptpubkey_type": "p2pkh",
      "scriptpubkey_address": "13pZKxLcTpcCWKCumSsQ2CbSDSeZEnpk7i",
      "value": 40630
    }
  ],
  "size": 226,
  "weight": 904,
  "fee": 5198,
  "status": {
    "confirmed": true,
    "block_height": 834638,
    "block_hash": "000000000000000000025f742c626208ac87e0b7d15054abb4a19ca2d735a54e",
    "block_time": 1710405325
  },
  "hex": "0100000001d38a8b8b00d8516624eb311084822c1d590cc6304c4cac7238fb00209000b4da030000006b483045022100b965d6375b0d77a2003a1822007065234e3f90482a15ca1f7141c7935efd0e840220544f32e4122e14dcfc7c3c90ffd595f51ea86cc308f1a0f9e987d36e5d09a98f01210350e371eb46733bc5a19515087e36a997d38d7e7c4c7658da5d0afc7c95c77061ffffffff0246c71400000000001976a91437157093495007da5a0d5b7fe4dbd78d9ce33fbe88acb69e0000000000001976a9141eeec96d1b7e84919c558349225d6fd1ec8b4beb88ac00000000"
}