{
  "txid": "86799ca49832bff5fffde205f976160115c9c5b8d8de9f53309565a02421ae41",
  "version": 2,
  "locktime": 0,
  "vin": [
    {
      "txid": "556d1372cc6566c09671ff84f13b2227134ac70a941f8f325af7f34844fefb74",
      "vout": 3,
      "prevout": {
        "scriptpubkey": "51205e77ecffb3ce04e72958e6bc6168b2d69157b97328435c4129b25eb9e0741a0a",
        "scriptpubkey_asm": "OP_PUSHNUM_1 OP_PUSHBYTES_32 5e77ecffb3ce04e72958e6bc6168b2d69157b97328435c4129b25eb9e0741a0a",
        "scriptpubkey_type": "v1_p2tr",
        "scriptpubkey_address": "bc1ptem7elaneczww22cu67xz69j66g40wtn9pp4csffkf0tncr5rg9q6j0xef",
        "value": 555
      },
      "scriptsig": "",
      "scriptsig_asm": "",
      "witness": [
        "03553dd9215059d34465d0186d62538695085440597791ad9be5d2a9ade0d19797d5f00fc0cad89073ddac3ac081f4d754ef77e34e797303524a08019fc805db"
      ],
      "is_coinbase": false,
      "sequence": 4294967295
    },
    {
      "txid": "556d1372cc6566c09671ff84f13b2227134ac70a941f8f325af7f34844fefb74",
      "vout": 12,
      "prevout": {
        "scriptpubkey": "51205e77ecffb3ce04e72958e6bc6168b2d69157b97328435c4129b25eb9e0741a0a",
        "scriptpubkey_asm": "OP_PUSHNUM_1 OP_PUSHBYTES_32 5e77ecffb3ce04e72958e6bc6168b2d69157b97328435c4129b25eb9e0741a0a",
        "scriptpubkey_type": "v1_p2tr",
        "scriptpubkey_address": "bc1ptem7elaneczww22cu67xz69j66g40wtn9pp4csffkf0tncr5rg9q6j0xef",
        "value": 7802400
      },
      "scriptsig": "",
      "scriptsig_asm": "",
      "witness": [
        "1fe45401f5b702168c83f709eaf749b701676272a1de44f504e667c2f1e6a9b6c2e38e32a819d3943b5bf5fbe3259543e8e59e2cb9dc46e658e888d6dcf33ebb"
      ],
      "is_coinbase": false,
      "sequence": 4294967295
    }
  ],
  "vout": [
    {
      "scriptpubkey": "0014882da4beca7abc72b6075f9a3e2d7e29b85811b7",
      "scriptpubkey_asm": "OP_0 OP_PUSHBYTES_20 882da4beca7abc72b6075f9a3e2d7e29b85811b7",
      "scriptpubkey_type": "v0_p2wpkh",
      "scriptpubkey_address": "bc1q3qk6f0k202789ds8t7drutt79xu9sydhdx4mtg",
      "value": 555
    },
    {
      "scriptpubkey": "51205e77ecffb3ce04e72958e6bc6168b2d69157b97328435c4129b25eb9e0741a0a",
      "scriptpubkey_asm": "OP_PUSHNUM_1 OP_PUSHBYTES_32 5e77ecffb3ce04e72958e6bc6168b2d69157b97328435c4129b25eb9e0741a0a",
      "scriptpubkey_type": "v1_p2tr",
      "scriptpubkey_address": "bc1ptem7elaneczww22cu67xz69j66g40wtn9pp4csffkf0tncr5rg9q6j0xef",
      "value": 7799400
    }
  ],
  "size": 300,
  "weight": 798,
  "fee": 3000,
  "status": {
    "confirmed": true,
    "block_height": 834638,
    "block_hash": "000000000000000000025f742c626208ac87e0b7d15054abb4a19ca2d735a54e",
    "block_time": 1710405325
  },
  "hex": "0200000000010274fbfe4448f3f75a328f1f940ac74a1327223bf184ff7196c06665cc72136d550300000000ffffffff74fbfe4448f3f75a328f1f940ac74a1327223bf184ff7196c06665cc72136d550c00000000ffffffff022b02000000000000160014882da4beca7abc72b6075f9a3e2d7e29b85811b768027700000000002251205e77ecffb3ce04e72958e6bc6168b2d69157b97328435c4129b25eb9e0741a0a014003553dd9215059d34465d0186d62538695085440597791ad9be5d2a9ade0d19797d5f00fc0cad89073ddac3ac081f4d754ef77e34e797303524a08019fc805db01401fe45401f5b702168c83f709eaf749b701676272a1de44f504e667c2f1e6a9b6c2e38e32a819d3943b5bf5fbe3259543e8e59e2cb9dc46e658e888d6dcf33ebb00000000"
}