{
  "txid": "868e263a7fc0bb0b98f009ac13ebc0ed6d4d1a91837fdc7bd1f40a64d5764ad8",
  "version": 1,
  "locktime": 0,
  "vin": [
    {
      "txid": "ecca381fd85cccf1a7b195e45a11e616b5361739e056f05918e6c4ed1a9906db",
      "vout": 0,
      "prevout": {
        "scriptpubkey": "5120db2ac4225e31d14a1dcc2e750d0b06921e290dc2b94829ba485a3f9540b8ceb4",
        "scriptpubkey_asm": "OP_PUSHNUM_1 OP_PUSHBYTES_32 db2ac4225e31d14a1dcc2e750d0b06921e290dc2b94829ba485a3f9540b8ceb4",
        "scriptpubkey_type": "v1_p2tr",
        "scriptpubkey_address": "bc1pmv4vggj7x8g558wv9e6s6zcxjg0zjrwzh9yznwjgtgle2s9ce66q0c8qgx",
        "value": 3085
      },
      "scriptsig": "",
      "scriptsig_asm": "",
      "witness": [
        "67306caeccbc147c54bceb8f17fefe86fc4de27a887684d5e92a019015b2b53f15b868a58c90fa658aa19d3d34b013aafa40a3ac1e92ed70af3a73c6251a574b",
        "2080a89e7db06a055901e315e2ce41fef8057807e08b47ed14caf02542f3efcf38ac0063036f726401010a746578742f706c61696e003e7b2270223a22746170222c226f70223a22746f6b656e2d7472616e73666572222c227469636b223a2224534f5241222c22616d74223a223130303030227d68",
        "c080a89e7db06a055901e315e2ce41fef8057807e08b47ed14caf02542f3efcf38"
      ],
      "is_coinbase": false,
      "sequence": 4294967293
    }
  ],
  "vout": [
    {
      "scriptpubkey": "5120d191e3c5c4b78caa7df639d4486afdab7967b1320a4407127508c9256a377809",
      "scriptpubkey_asm": "OP_PUSHNUM_1 OP_PUSHBYTES_32 d191e3c5c4b78caa7df639d4486afdab7967b1320a4407127508c9256a377809",
      "scriptpubkey_type": "v1_p2tr",
      "scriptpubkey_address": "bc1p6xg783wyk7x25l0k882ys6ha4duk0vfjpfzqwyn4pryj263h0qyspfheey",
      "value": 835
    }
  ],
  "size": 315,
  "weight": 597,
  "fee": 2250,
  "status": {
    "confirmed": true,
    "block_height": 834638,
    "block_hash": "000000000000000000025f742c626208ac87e0b7d15054abb4a19ca2d735a54e",
    "block_time": 1710405325
  },
  "hex": "01000000000101db06991aedc4e61859f056e0391736b516e6115ae495b1a7f1cc5cd81f38caec0000000000fdffffff014303000000000000225120d191e3c5c4b78caa7df639d4486afdab7967b1320a4407127508c9256a377809034067306caeccbc147c54bceb8f17fefe86fc4de27a887684d5e92a019015b2b53f15b868a58c90fa658aa19d3d34b013aafa40a3ac1e92ed70af3a73c6251a574b762080a89e7db06a055901e315e2ce41fef8057807e08b47ed14caf02542f3efcf38ac0063036f726401010a746578742f706c61696e003e7b2270223a22746170222c226f70223a22746f6b656e2d7472616e73666572222c227469636b223a2224534f5241222c22616d74223a223130303030227d6821c080a89e7db06a055901e315e2ce41fef8057807e08b47ed14caf02542f3efcf3800000000"
}