{
  "txid": "869dde638c3e7d9f549c753c7a606a38c77ffdc1f1366b123ca5ea11fd34008e",
  "version": 2,
  "locktime": 0,
  "vin": [
    {
      "txid": "acc3ba00869acb582a3f2904ce3a11dd3779350ce234063fc7d0959246213364",
      "vout": 242,
      "prevout": {
        "scriptpubkey": "51202d0eb1ab63bac3f03ae27b2018e0e9f45d0af1f7948ec46aac22ad9ae21cd89f",
        "scriptpubkey_asm": "OP_PUSHNUM_1 OP_PUSHBYTES_32 2d0eb1ab63bac3f03ae27b2018e0e9f45d0af1f7948ec46aac22ad9ae21cd89f",
        "scriptpubkey_type": "v1_p2tr",
        "scriptpubkey_address": "bc1p958tr2mrhtplqwhz0vsp3c8f73ws4u0hjj8vg64vy2ke4csumz0s6dq7mx",
        "value": 1806
      },
      "scriptsig": "",
      "scriptsig_asm": "",
      "witness": [
        "47657e3a373994c8e27d9209a23dd985c24ef30de6a8719284a02541530d1854fa92a2f78a94538275023b2ab2f704848d7e925cc8b656548a09ea0d7b871068",
        "20b1b7d309308bf1826af8f9cfcc4f542a7f8b94001b4be1321afde4d6bab7351dac0063036f726401010a746578742f706c61696e00357b2270223a226272632d3230222c226f70223a226d696e74222c227469636b223a22646f6765222c22616d74223a2234323030227d68",
        "c1b1b7d309308bf1826af8f9cfcc4f542a7f8b94001b4be1321afde4d6bab7351d"
      ],
      "is_coinbase": false,
      "sequence": 4261412863
    }
  ],
  "vout": [
    {
      "scriptpubkey": "00147a665de7a370f4c9b372ab1fae587500a5bcbdb4",
      "scriptpubkey_asm": "OP_0 OP_PUSHBYTES_20 7a665de7a370f4c9b372ab1fae587500a5bcbdb4",
      "scriptpubkey_type": "v0_p2wpkh",
      "scriptpubkey_address": "bc1q0fn9mearwr6vnvmj4v06ukr4qzjme0d565dzcx",
      "value": 294
    }
  ],
  "size": 294,
  "weight": 540,
  "fee": 1512,
  "status": {
    "confirmed": true,
    "block_height": 834460,
    "block_hash": "00000000000000000000484a79b643b2524bbce82e5d8a442013fa5b8905ed98",
    "block_time": 1710307468
  },
  "hex": "02000000000101643321469295d0c73f0634e20c357937dd113ace04293f2a58cb9a8600bac3acf200000000fffffffd0126010000000000001600147a665de7a370f4c9b372ab1fae587500a5bcbdb4034047657e3a373994c8e27d9209a23dd985c24ef30de6a8719284a02541530d1854fa92a2f78a94538275023b2ab2f704848d7e925cc8b656548a09ea0d7b8710686d20b1b7d309308bf1826af8f9cfcc4f542a7f8b94001b4be1321afde4d6bab7351dac0063036f726401010a746578742f706c61696e00357b2270223a226272632d3230222c226f70223a226d696e74222c227469636b223a22646f6765222c22616d74223a2234323030227d6821c1b1b7d309308bf1826af8f9cfcc4f542a7f8b94001b4be1321afde4d6bab7351d00000000"
}