{
  "txid": "86a6e2174c3e73cb2ec30cc8cdf51dc04068cd33b9fc33c7e0fd8bfe2c5c6d94",
  "version": 1,
  "locktime": 0,
  "vin": [
    {
      "txid": "78d866c1132accc31d0008e0567bcf74a2ed89896086836914a235a80aad991f",
      "vout": 0,
      "prevout": {
        "scriptpubkey": "0014764e0e10eeb3f9b64476adf069446ad6a8dc22d2",
        "scriptpubkey_asm": "OP_0 OP_PUSHBYTES_20 764e0e10eeb3f9b64476adf069446ad6a8dc22d2",
        "scriptpubkey_type": "v0_p2wpkh",
        "scriptpubkey_address": "bc1qwe8quy8wk0umv3rk4hcxj3r2665dcgkj2zpxnj",
        "value": 95882
      },
      "scriptsig": "",
      "scriptsig_asm": "",
      "witness": [
        "30440220536af670dc9a59edd75cbbd1cd82204b28b06d6c08d1a0a17bcaa45a52697bc80220565d26613b19b8d9a90a209c9ddee970ebc43dba8029358ca8acb026763a0f6d01",
        "037e92ce8807ed4138ef0146e561251b1b184b5e1902dd68d809caeb7afb0c1592"
      ],
      "is_coinbase": false,
      "sequence": 4294967295
    }
  ],
  "vout": [
    {
      "scriptpubkey": "001442664a21b3b4f21256f345838f255913387e310a",
      "scriptpubkey_asm": "OP_0 OP_PUSHBYTES_20 42664a21b3b4f21256f345838f255913387e310a",
      "scriptpubkey_type": "v0_p2wpkh",
      "scriptpubkey_address": "bc1qgfny5gdnknepy4hngkpc7f2ezvu8uvg2r99h99",
      "value": 24624
    },
    {
      "scriptpubkey": "0014764e0e10eeb3f9b64476adf069446ad6a8dc22d2",
      "scriptpubkey_asm": "OP_0 OP_PUSHBYTES_20 764e0e10eeb3f9b64476adf069446ad6a8dc22d2",
      "scriptpubkey_type": "v0_p2wpkh",
      "scriptpubkey_address": "bc1qwe8quy8wk0umv3rk4hcxj3r2665dcgkj2zpxnj",
      "value": 67451
    }
  ],
  "size": 222,
  "weight": 561,
  "fee": 3807,
  "status": {
    "confirmed": true,
    "block_height": 834638,
    "block_hash": "000000000000000000025f742c626208ac87e0b7d15054abb4a19ca2d735a54e",
    "block_time": 1710405325
  },
  "hex": "010000000001011f99ad0aa835a214698386608989eda274cf7b56e008001dc3cc2a13c166d8780000000000ffffffff02306000000000000016001442664a21b3b4f21256f345838f255913387e310a7b07010000000000160014764e0e10eeb3f9b64476adf069446ad6a8dc22d2024730440220536af670dc9a59edd75cbbd1cd82204b28b06d6c08d1a0a17bcaa45a52697bc80220565d26613b19b8d9a90a209c9ddee970ebc43dba8029358ca8acb026763a0f6d0121037e92ce8807ed4138ef0146e561251b1b184b5e1902dd68d809caeb7afb0c159200000000"
}