{
  "txid": "86aee3e584742df2bd31e6fb6b48a627e249703cbd4ac9de223ff32b24e3d836",
  "version": 2,
  "locktime": 0,
  "vin": [
    {
      "txid": "acc3ba00869acb582a3f2904ce3a11dd3779350ce234063fc7d0959246213364",
      "vout": 92,
      "prevout": {
        "scriptpubkey": "5120f083bdafd04b87169b9478046bd88d17e2f57a1f6fb92723cfb6f2922a55bd9e",
        "scriptpubkey_asm": "OP_PUSHNUM_1 OP_PUSHBYTES_32 f083bdafd04b87169b9478046bd88d17e2f57a1f6fb92723cfb6f2922a55bd9e",
        "scriptpubkey_type": "v1_p2tr",
        "scriptpubkey_address": "bc1p7zpmmt7sfwr3dxu50qzxhkydzl3027sld7ujwg70kmefy2j4hk0q5pe3wz",
        "value": 1806
      },
      "scriptsig": "",
      "scriptsig_asm": "",
      "witness": [
        "e0d9309090859f3465e5ad8fd333efeaa32f1b4fb88226346c6acddadd26dee9bdd530b5f82d8635586da5f9e767795876f961b9c1f1ec5666577c24fe6772d5",
        "20982a6a41f4bafe8545461932d9eba61aa23c6ea016a38c4691300123618637ceac0063036f726401010a746578742f706c61696e00357b2270223a226272632d3230222c226f70223a226d696e74222c227469636b223a22646f6765222c22616d74223a2234323030227d68",
        "c0982a6a41f4bafe8545461932d9eba61aa23c6ea016a38c4691300123618637ce"
      ],
      "is_coinbase": false,
      "sequence": 4261412863
    }
  ],
  "vout": [
    {
      "scriptpubkey": "00147a665de7a370f4c9b372ab1fae587500a5bcbdb4",
      "scriptpubkey_asm": "OP_0 OP_PUSHBYTES_20 7a665de7a370f4c9b372ab1fae587500a5bcbdb4",
      "scriptpubkey_type": "v0_p2wpkh",
      "scriptpubkey_address": "bc1q0fn9mearwr6vnvmj4v06ukr4qzjme0d565dzcx",
      "value": 294
    }
  ],
  "size": 294,
  "weight": 540,
  "fee": 1512,
  "status": {
    "confirmed": true,
    "block_height": 834460,
    "block_hash": "00000000000000000000484a79b643b2524bbce82e5d8a442013fa5b8905ed98",
    "block_time": 1710307468
  },
  "hex": "02000000000101643321469295d0c73f0634e20c357937dd113ace04293f2a58cb9a8600bac3ac5c00000000fffffffd0126010000000000001600147a665de7a370f4c9b372ab1fae587500a5bcbdb40340e0d9309090859f3465e5ad8fd333efeaa32f1b4fb88226346c6acddadd26dee9bdd530b5f82d8635586da5f9e767795876f961b9c1f1ec5666577c24fe6772d56d20982a6a41f4bafe8545461932d9eba61aa23c6ea016a38c4691300123618637ceac0063036f726401010a746578742f706c61696e00357b2270223a226272632d3230222c226f70223a226d696e74222c227469636b223a22646f6765222c22616d74223a2234323030227d6821c0982a6a41f4bafe8545461932d9eba61aa23c6ea016a38c4691300123618637ce00000000"
}