{
  "txid": "86b602dae84b49526f5ba1ed6f85bd4bb2e51cab2c85f7c457a6a94ccbebe3f0",
  "version": 2,
  "locktime": 834637,
  "vin": [
    {
      "txid": "2289ba5f9795e5156d9b3f59fe2c4c56aaf0010f712a90c4b5f2787502735847",
      "vout": 160,
      "prevout": {
        "scriptpubkey": "00147947e6b711696844eda5e9527d8a047388e282a7",
        "scriptpubkey_asm": "OP_0 OP_PUSHBYTES_20 7947e6b711696844eda5e9527d8a047388e282a7",
        "scriptpubkey_type": "v0_p2wpkh",
        "scriptpubkey_address": "bc1q09r7ddc3d95yfmd9a9f8mzsywwyw9q48fhwrt3",
        "value": 8957
      },
      "scriptsig": "",
      "scriptsig_asm": "",
      "witness": [
        "304402201a2f8d038b30f02c6964422e4280f2b3f78517bc9222c02e8e2310fb168a9bbc0220644856d5002532b4626f1c797e264134e1c3a92a113ad3578faa9cfa9110688501",
        "0332b328db7c2ee3b72f88c177e556b7a61c9f02ef0eef92dffdcb2ddddcd71437"
      ],
      "is_coinbase": false,
      "sequence": 4294967293
    },
    {
      "txid": "1c3c4ce42f6f6b34f3b6f32b9369cc077c027842bba7127717945b881f76c5bc",
      "vout": 139,
      "prevout": {
        "scriptpubkey": "0014fb0eaf83888b3abb23e8f7213007c329dc221b2c",
        "scriptpubkey_asm": "OP_0 OP_PUSHBYTES_20 fb0eaf83888b3abb23e8f7213007c329dc221b2c",
        "scriptpubkey_type": "v0_p2wpkh",
        "scriptpubkey_address": "bc1qlv82lqug3vatkglg7usnqp7r98wzyxevs4x5vc",
        "value": 39491
      },
      "scriptsig": "",
      "scriptsig_asm": "",
      "witness": [
        "304402202ead67e59ce0b6b205bd1ab74c2472766de9115fd028c6f072058835b00908b00220091b0c5339367cfc55907f176c86cdb818258f5182b9682513bf357b82f5a94501",
        "02937fb7b230762a9aee3d3dc17d7df383605e75984114796ca7cc2b0fc137b216"
      ],
      "is_coinbase": false,
      "sequence": 4294967293
    },
    {
      "txid": "266b0f6544f96cd40575cbb677669e867a8114390a77a67a0b375fbd3b4ae8f2",
      "vout": 81,
      "prevout": {
        "scriptpubkey": "00147947e6b711696844eda5e9527d8a047388e282a7",
        "scriptpubkey_asm": "OP_0 OP_PUSHBYTES_20 7947e6b711696844eda5e9527d8a047388e282a7",
        "scriptpubkey_type": "v0_p2wpkh",
        "scriptpubkey_address": "bc1q09r7ddc3d95yfmd9a9f8mzsywwyw9q48fhwrt3",
        "value": 68839
      },
      "scriptsig": "",
      "scriptsig_asm": "",
      "witness": [
        "304402207e50f294907dd1e1028afb4cf153aa523140d2ab29f15cc5749b686eb91a9e2d0220496b6a5afee98048ca8c9584cd03d0036c784e5a6b8a6259c9f728987fff8fe601",
        "0332b328db7c2ee3b72f88c177e556b7a61c9f02ef0eef92dffdcb2ddddcd71437"
      ],
      "is_coinbase": false,
      "sequence": 4294967293
    }
  ],
  "vout": [
    {
      "scriptpubkey": "00144b7b2447339663068f3c587773c22a81ee30cb43",
      "scriptpubkey_asm": "OP_0 OP_PUSHBYTES_20 4b7b2447339663068f3c587773c22a81ee30cb43",
      "scriptpubkey_type": "v0_p2wpkh",
      "scriptpubkey_address": "bc1qfdajg3enje3sdreutpmh8s32s8hrpj6r3a7hsq",
      "value": 111677
    },
    {
      "scriptpubkey": "0014936d28651484d5c30b1c7772eeb775f4df5fd295",
      "scriptpubkey_asm": "OP_0 OP_PUSHBYTES_20 936d28651484d5c30b1c7772eeb775f4df5fd295",
      "scriptpubkey_type": "v0_p2wpkh",
      "scriptpubkey_address": "bc1qjdkjseg5sn2uxzcuwaewadm47n04l554h5j2xv",
      "value": 1455
    }
  ],
  "size": 518,
  "weight": 1103,
  "fee": 4155,
  "status": {
    "confirmed": true,
    "block_height": 834638,
    "block_hash": "000000000000000000025f742c626208ac87e0b7d15054abb4a19ca2d735a54e",
    "block_time": 1710405325
  },
  "hex": "02000000000103475873027578f2b5c4902a710f01f0aa564c2cfe593f9b6d15e595975fba8922a000000000fdffffffbcc5761f885b94177712a7bb4278027c07cc69932bf3b6f3346b6f2fe44c3c1c8b00000000fdfffffff2e84a3bbd5f370b7aa6770a3914817a869e6677b6cb7505d46cf944650f6b265100000000fdffffff023db40100000000001600144b7b2447339663068f3c587773c22a81ee30cb43af05000000000000160014936d28651484d5c30b1c7772eeb775f4df5fd2950247304402201a2f8d038b30f02c6964422e4280f2b3f78517bc9222c02e8e2310fb168a9bbc0220644856d5002532b4626f1c797e264134e1c3a92a113ad3578faa9cfa9110688501210332b328db7c2ee3b72f88c177e556b7a61c9f02ef0eef92dffdcb2ddddcd714370247304402202ead67e59ce0b6b205bd1ab74c2472766de9115fd028c6f072058835b00908b00220091b0c5339367cfc55907f176c86cdb818258f5182b9682513bf357b82f5a945012102937fb7b230762a9aee3d3dc17d7df383605e75984114796ca7cc2b0fc137b2160247304402207e50f294907dd1e1028afb4cf153aa523140d2ab29f15cc5749b686eb91a9e2d0220496b6a5afee98048ca8c9584cd03d0036c784e5a6b8a6259c9f728987fff8fe601210332b328db7c2ee3b72f88c177e556b7a61c9f02ef0eef92dffdcb2ddddcd714374dbc0c00"
}