{
  "txid": "86c5aac0592d3316df8ac7d37652a2ff9e95ca3cf670bfde9f26ca47d9b17498",
  "version": 2,
  "locktime": 0,
  "vin": [
    {
      "txid": "b92e5121b166a982e681d148bc7c4661f88f34019451292f8388d9796428d2ab",
      "vout": 1,
      "prevout": {
        "scriptpubkey": "00146ee283be1b7facecff6eacd7cd9591379916e8a1",
        "scriptpubkey_asm": "OP_0 OP_PUSHBYTES_20 6ee283be1b7facecff6eacd7cd9591379916e8a1",
        "scriptpubkey_type": "v0_p2wpkh",
        "scriptpubkey_address": "bc1qdm3g80sm07kwelmw4ntum9v3x7v3d69pfjph0n",
        "value": 2398562
      },
      "scriptsig": "",
      "scriptsig_asm": "",
      "witness": [
        "304502210083b0226fa00e64ef68b716a16f3a81ae1b6d749f88a70cad992d18020780d234022000e1d73c84fd186b869a959f3edfad121fda08cd133152a47b2e59dc010e36a601",
        "02fbfeeb2056727355f2f1967a0e96c13a0e09476cd07e30fee55c3efb19625846"
      ],
      "is_coinbase": false,
      "sequence": 4294967295
    },
    {
      "txid": "d7f6cbd2b51e20de82d44cde0ff5879c64743dd254257d3dd583fefed8fb4c45",
      "vout": 0,
      "prevout": {
        "scriptpubkey": "00146ee283be1b7facecff6eacd7cd9591379916e8a1",
        "scriptpubkey_asm": "OP_0 OP_PUSHBYTES_20 6ee283be1b7facecff6eacd7cd9591379916e8a1",
        "scriptpubkey_type": "v0_p2wpkh",
        "scriptpubkey_address": "bc1qdm3g80sm07kwelmw4ntum9v3x7v3d69pfjph0n",
        "value": 8802800
      },
      "scriptsig": "",
      "scriptsig_asm": "",
      "witness": [
        "30440220798768a53eba967bde6ed554a7e77d8600a80663ff62894bb267ddac50088cf5022064d70e2093b502e2e6fcf5cd9bf7f781d1fa228581f01a8405ac81a02b12cf1201",
        "02fbfeeb2056727355f2f1967a0e96c13a0e09476cd07e30fee55c3efb19625846"
      ],
      "is_coinbase": false,
      "sequence": 4294967295
    }
  ],
  "vout": [
    {
      "scriptpubkey": "0014b1c54daf15b711814afc3705917c616a0cb269e0",
      "scriptpubkey_asm": "OP_0 OP_PUSHBYTES_20 b1c54daf15b711814afc3705917c616a0cb269e0",
      "scriptpubkey_type": "v0_p2wpkh",
      "scriptpubkey_address": "bc1qk8z5mtc4kugczjhuxuzezlrpdgxty60qpwp79k",
      "value": 4029944
    },
    {
      "scriptpubkey": "00146ee283be1b7facecff6eacd7cd9591379916e8a1",
      "scriptpubkey_asm": "OP_0 OP_PUSHBYTES_20 6ee283be1b7facecff6eacd7cd9591379916e8a1",
      "scriptpubkey_type": "v0_p2wpkh",
      "scriptpubkey_address": "bc1qdm3g80sm07kwelmw4ntum9v3x7v3d69pfjph0n",
      "value": 7168401
    }
  ],
  "size": 371,
  "weight": 833,
  "fee": 3017,
  "status": {
    "confirmed": true,
    "block_height": 834638,
    "block_hash": "000000000000000000025f742c626208ac87e0b7d15054abb4a19ca2d735a54e",
    "block_time": 1710405325
  },
  "hex": "02000000000102abd2286479d988832f29519401348ff861467cbc48d181e682a966b121512eb90100000000ffffffff454cfbd8fefe83d53d7d2554d23d74649c87f50fde4cd482de201eb5d2cbf6d70000000000ffffffff02f87d3d0000000000160014b1c54daf15b711814afc3705917c616a0cb269e091616d00000000001600146ee283be1b7facecff6eacd7cd9591379916e8a10248304502210083b0226fa00e64ef68b716a16f3a81ae1b6d749f88a70cad992d18020780d234022000e1d73c84fd186b869a959f3edfad121fda08cd133152a47b2e59dc010e36a6012102fbfeeb2056727355f2f1967a0e96c13a0e09476cd07e30fee55c3efb19625846024730440220798768a53eba967bde6ed554a7e77d8600a80663ff62894bb267ddac50088cf5022064d70e2093b502e2e6fcf5cd9bf7f781d1fa228581f01a8405ac81a02b12cf12012102fbfeeb2056727355f2f1967a0e96c13a0e09476cd07e30fee55c3efb1962584600000000"
}