{
  "txid": "86e07b9b5052aa371de87260945555c358155f7bc461e8d5b50ebd09d19c8380",
  "version": 2,
  "locktime": 0,
  "vin": [
    {
      "txid": "426f08fbaaacdc4b13cb6f428c89487358ea4dac9ed7948a96cfaa3f67ad9d67",
      "vout": 26,
      "prevout": {
        "scriptpubkey": "51209aebf31855d59ed6cb19db8db56644f81592f93eff68d982bbd95e5ff93eaccd",
        "scriptpubkey_asm": "OP_PUSHNUM_1 OP_PUSHBYTES_32 9aebf31855d59ed6cb19db8db56644f81592f93eff68d982bbd95e5ff93eaccd",
        "scriptpubkey_type": "v1_p2tr",
        "scriptpubkey_address": "bc1pnt4lxxz46k0ddjcemwxm2ejylq2e97f7la5dnq4mm909l7f74nxsf4thmp",
        "value": 4599
      },
      "scriptsig": "",
      "scriptsig_asm": "",
      "witness": [
        "672eec7692c37a86bd26b0b6ffa81e3b1a43ee52d2002779439e7880fdf98687c35121bd887fba143872bff38efbb86798c484059924a6cc3ff78dac5283281d",
        "20916472c6348069d97b7fa25f37899441ffabb4630a6cd9cc5815fed8e99e8609ac0063036f726401011e6170706c69636174696f6e2f6a736f6e3b636861727365743d7574662d38004cd37b2270223a22706f772d3230222c226f70223a226d696e74222c227469636b223a2250455045222c22616d74223a2231303030222c22736f6c7574696f6e223a22504550453a62633170636a65387233733875656e746d64767a6e34777337786d3836367879707535756139357371796877756835616d61677565367a73707a733637713a303030303030303030303030303030303030303139393431613561653132383937363539383134343239323533333030353762306461393666336465613163353a3338323536343636353838227d68",
        "c0039ed2fd528e891a28907036b81ec900320c2b9f26f0b27e7e5cfd0fc9102a4d"
      ],
      "is_coinbase": false,
      "sequence": 4294967295
    }
  ],
  "vout": [
    {
      "scriptpubkey": "5120c4b271c607e666bdb5829d5d0f1b67d68c40f29ce9690012eee5e9ddf51cce85",
      "scriptpubkey_asm": "OP_PUSHNUM_1 OP_PUSHBYTES_32 c4b271c607e666bdb5829d5d0f1b67d68c40f29ce9690012eee5e9ddf51cce85",
      "scriptpubkey_type": "v1_p2tr",
      "scriptpubkey_address": "bc1pcje8r3s8uentmdvzn4ws7xm866xypu5ua95sqyhwuh5amague6zspzs67q",
      "value": 546
    }
  ],
  "size": 487,
  "weight": 769,
  "fee": 4053,
  "status": {
    "confirmed": true,
    "block_height": 834460,
    "block_hash": "00000000000000000000484a79b643b2524bbce82e5d8a442013fa5b8905ed98",
    "block_time": 1710307468
  },
  "hex": "02000000000101679dad673faacf968a94d79eac4dea587348898c426fcb134bdcacaafb086f421a00000000ffffffff012202000000000000225120c4b271c607e666bdb5829d5d0f1b67d68c40f29ce9690012eee5e9ddf51cce850340672eec7692c37a86bd26b0b6ffa81e3b1a43ee52d2002779439e7880fdf98687c35121bd887fba143872bff38efbb86798c484059924a6cc3ff78dac5283281dfd200120916472c6348069d97b7fa25f37899441ffabb4630a6cd9cc5815fed8e99e8609ac0063036f726401011e6170706c69636174696f6e2f6a736f6e3b636861727365743d7574662d38004cd37b2270223a22706f772d3230222c226f70223a226d696e74222c227469636b223a2250455045222c22616d74223a2231303030222c22736f6c7574696f6e223a22504550453a62633170636a65387233733875656e746d64767a6e34777337786d3836367879707535756139357371796877756835616d61677565367a73707a733637713a303030303030303030303030303030303030303139393431613561653132383937363539383134343239323533333030353762306461393666336465613163353a3338323536343636353838227d6821c0039ed2fd528e891a28907036b81ec900320c2b9f26f0b27e7e5cfd0fc9102a4d00000000"
}