{
  "txid": "86e09de1f4dd2ff1d164cef1ec22720421bb4d8d1a6554ecf163cd5eef84cab1",
  "version": 2,
  "locktime": 834630,
  "vin": [
    {
      "txid": "3cf360cdabf001056d0ee2ec30f7237e916b480fdff751d3b57c9b3c05c0bfca",
      "vout": 1,
      "prevout": {
        "scriptpubkey": "0014caa31c7bdc47dd890b301b882ba974e41ae2eb63",
        "scriptpubkey_asm": "OP_0 OP_PUSHBYTES_20 caa31c7bdc47dd890b301b882ba974e41ae2eb63",
        "scriptpubkey_type": "v0_p2wpkh",
        "scriptpubkey_address": "bc1qe233c77uglwcjzesrwyzh2t5usdw96mrfltmvl",
        "value": 3105679
      },
      "scriptsig": "",
      "scriptsig_asm": "",
      "witness": [
        "3044022027ed316e9466ae222d2f7344fc959b4485a3fdfba8e34d8734dee413b2d7e29e022052d257875fbcfde29fa0402a74e1ce5d55ae057fc1f6a6a63f241bdde8489ee801",
        "0249d21ff4989032b1143d7beb13d82ee2659ec7a7b029af61b3ed9f8bc3b6d00c"
      ],
      "is_coinbase": false,
      "sequence": 4294967293
    }
  ],
  "vout": [
    {
      "scriptpubkey": "0014889e9e3a0cfb3727c0679ceddd30eafe1758bd3e",
      "scriptpubkey_asm": "OP_0 OP_PUSHBYTES_20 889e9e3a0cfb3727c0679ceddd30eafe1758bd3e",
      "scriptpubkey_type": "v0_p2wpkh",
      "scriptpubkey_address": "bc1q3z0fuwsvlvmj0sr8nnka6v82lct430f7ysjuu2",
      "value": 191000
    },
    {
      "scriptpubkey": "0014448183d998627d3fbb37ad56e5074a3bca2a73ce",
      "scriptpubkey_asm": "OP_0 OP_PUSHBYTES_20 448183d998627d3fbb37ad56e5074a3bca2a73ce",
      "scriptpubkey_type": "v0_p2wpkh",
      "scriptpubkey_address": "bc1qgjqc8kvcvf7nlweh44tw2p62809z5u7whych6q",
      "value": 2912400
    }
  ],
  "size": 222,
  "weight": 561,
  "fee": 2279,
  "status": {
    "confirmed": true,
    "block_height": 834638,
    "block_hash": "000000000000000000025f742c626208ac87e0b7d15054abb4a19ca2d735a54e",
    "block_time": 1710405325
  },
  "hex": "02000000000101cabfc0053c9b7cb5d351f7df0f486b917e23f730ece20e6d0501f0abcd60f33c0100000000fdffffff0218ea020000000000160014889e9e3a0cfb3727c0679ceddd30eafe1758bd3e90702c0000000000160014448183d998627d3fbb37ad56e5074a3bca2a73ce02473044022027ed316e9466ae222d2f7344fc959b4485a3fdfba8e34d8734dee413b2d7e29e022052d257875fbcfde29fa0402a74e1ce5d55ae057fc1f6a6a63f241bdde8489ee801210249d21ff4989032b1143d7beb13d82ee2659ec7a7b029af61b3ed9f8bc3b6d00c46bc0c00"
}