{
  "txid": "86e67d2d97850bce7595ed9f6468623152e8af46953208ecdff8bc0296a87acb",
  "version": 2,
  "locktime": 834637,
  "vin": [
    {
      "txid": "03b43df2c909ed9390f32bfb3398d0f6e59f76301cf11595850500954052d5bf",
      "vout": 0,
      "prevout": {
        "scriptpubkey": "00149578318e2c327debb3205dcad89246f5c8ea3d8a",
        "scriptpubkey_asm": "OP_0 OP_PUSHBYTES_20 9578318e2c327debb3205dcad89246f5c8ea3d8a",
        "scriptpubkey_type": "v0_p2wpkh",
        "scriptpubkey_address": "bc1qj4urrr3vxf77hveqth9d3yjx7hyw50v22trgcm",
        "value": 2500000
      },
      "scriptsig": "",
      "scriptsig_asm": "",
      "witness": [
        "3044022016ca8a4ef4ac74832f701a17e0c99aa04fa79a3a02b92dd9bdb1b48a8b8f560302201a6e912483d42f3e851a798450a5b53ec382f2ba9a15706bac2ab673102cbacc01",
        "028c0f4a2cc4d4228be270e31f5bed5f82ab40e18cda71669fb07644c1af4a18f0"
      ],
      "is_coinbase": false,
      "sequence": 4294967293
    }
  ],
  "vout": [
    {
      "scriptpubkey": "a9140c62248f55d0c6fea099c53892b3626a0806661e87",
      "scriptpubkey_asm": "OP_HASH160 OP_PUSHBYTES_20 0c62248f55d0c6fea099c53892b3626a0806661e OP_EQUAL",
      "scriptpubkey_type": "p2sh",
      "scriptpubkey_address": "32pVbvmYe8mhpmGkRfKjnwmWAr8wtTjnxb",
      "value": 2327932
    },
    {
      "scriptpubkey": "a9148e1b031744a653d27daaf013290814b3f85e646487",
      "scriptpubkey_asm": "OP_HASH160 OP_PUSHBYTES_20 8e1b031744a653d27daaf013290814b3f85e6464 OP_EQUAL",
      "scriptpubkey_type": "p2sh",
      "scriptpubkey_address": "3EeQEceg1KMTJv4D669hTkXfUvADNRQVoD",
      "value": 168350
    }
  ],
  "size": 224,
  "weight": 569,
  "fee": 3718,
  "status": {
    "confirmed": true,
    "block_height": 834638,
    "block_hash": "000000000000000000025f742c626208ac87e0b7d15054abb4a19ca2d735a54e",
    "block_time": 1710405325
  },
  "hex": "02000000000101bfd55240950005859515f11c30769fe5f6d09833fb2bf39093ed09c9f23db4030000000000fdffffff027c8523000000000017a9140c62248f55d0c6fea099c53892b3626a0806661e879e9102000000000017a9148e1b031744a653d27daaf013290814b3f85e64648702473044022016ca8a4ef4ac74832f701a17e0c99aa04fa79a3a02b92dd9bdb1b48a8b8f560302201a6e912483d42f3e851a798450a5b53ec382f2ba9a15706bac2ab673102cbacc0121028c0f4a2cc4d4228be270e31f5bed5f82ab40e18cda71669fb07644c1af4a18f04dbc0c00"
}