{
  "txid": "8704408e78c3bf2ccb4ab46d2f2c0dcaa9e6d64a159293fda0b9f3591690f6f5",
  "version": 2,
  "locktime": 0,
  "vin": [
    {
      "txid": "3dbe5f3130efaca080a7e8af00a3b33efd0bc44bc09e989a94e05c948b93883d",
      "vout": 8,
      "prevout": {
        "scriptpubkey": "76a9148a4da10894987d2eae5e5a6e0c2387ba118eab1188ac",
        "scriptpubkey_asm": "OP_DUP OP_HASH160 OP_PUSHBYTES_20 8a4da10894987d2eae5e5a6e0c2387ba118eab11 OP_EQUALVERIFY OP_CHECKSIG",
        "scriptpubkey_type": "p2pkh",
        "scriptpubkey_address": "1DcHFEVfkSqd7shXSqcGvMNSVh3knjQQKi",
        "value": 9854
      },
      "scriptsig": "483045022100ec94a79308c958847c8405db2effca00a6e1626441d18df7645da4fa9be3915a02205bc46874de7345ec37b451f292b1b3ee5acd3446ddda025ed1288a3cb5950a85012103484475c342f7aed0d2e60ddb444a3b2de4b6a81895d0a832ce22e3cc10d717cd",
      "scriptsig_asm": "OP_PUSHBYTES_72 3045022100ec94a79308c958847c8405db2effca00a6e1626441d18df7645da4fa9be3915a02205bc46874de7345ec37b451f292b1b3ee5acd3446ddda025ed1288a3cb5950a8501 OP_PUSHBYTES_33 03484475c342f7aed0d2e60ddb444a3b2de4b6a81895d0a832ce22e3cc10d717cd",
      "is_coinbase": false,
      "sequence": 4294967293
    },
    {
      "txid": "88f42b6db572fc7844808dbdb9acb2374ebdae83d6e09a2f3094c5bfeedd33d4",
      "vout": 0,
      "prevout": {
        "scriptpubkey": "76a9148a4da10894987d2eae5e5a6e0c2387ba118eab1188ac",
        "scriptpubkey_asm": "OP_DUP OP_HASH160 OP_PUSHBYTES_20 8a4da10894987d2eae5e5a6e0c2387ba118eab11 OP_EQUALVERIFY OP_CHECKSIG",
        "scriptpubkey_type": "p2pkh",
        "scriptpubkey_address": "1DcHFEVfkSqd7shXSqcGvMNSVh3knjQQKi",
        "value": 9525
      },
      "scriptsig": "48304502210091ef6fdcdb5d4b7f1a8b0bf9e65d47d3b29c4bf9a285699fddc5781309725e8f022068e4d356f1c26d9b338ed75bcf15fd97a7ecd3f87b721e489c221997e576edb7012103484475c342f7aed0d2e60ddb444a3b2de4b6a81895d0a832ce22e3cc10d717cd",
      "scriptsig_asm": "OP_PUSHBYTES_72 304502210091ef6fdcdb5d4b7f1a8b0bf9e65d47d3b29c4bf9a285699fddc5781309725e8f022068e4d356f1c26d9b338ed75bcf15fd97a7ecd3f87b721e489c221997e576edb701 OP_PUSHBYTES_33 03484475c342f7aed0d2e60ddb444a3b2de4b6a81895d0a832ce22e3cc10d717cd",
      "is_coinbase": false,
      "sequence": 4294967293
    },
    {
      "txid": "23324a0435f759f29d27db9333a922b9e385e226ebefbad7532d0eba9f865ddc",
      "vout": 0,
      "prevout": {
        "scriptpubkey": "76a9148a4da10894987d2eae5e5a6e0c2387ba118eab1188ac",
        "scriptpubkey_asm": "OP_DUP OP_HASH160 OP_PUSHBYTES_20 8a4da10894987d2eae5e5a6e0c2387ba118eab11 OP_EQUALVERIFY OP_CHECKSIG",
        "scriptpubkey_type": "p2pkh",
        "scriptpubkey_address": "1DcHFEVfkSqd7shXSqcGvMNSVh3knjQQKi",
        "value": 14051
      },
      "scriptsig": "483045022100bf8a065b9153027870584cc61f069b9f491f87f36f0ae5871db8e3ae292f012c02205fe21ed5aa836c2144b3f8cce4eb929691c57fd63474fd2cd8c14b5829de5792012103484475c342f7aed0d2e60ddb444a3b2de4b6a81895d0a832ce22e3cc10d717cd",
      "scriptsig_asm": "OP_PUSHBYTES_72 3045022100bf8a065b9153027870584cc61f069b9f491f87f36f0ae5871db8e3ae292f012c02205fe21ed5aa836c2144b3f8cce4eb929691c57fd63474fd2cd8c14b5829de579201 OP_PUSHBYTES_33 03484475c342f7aed0d2e60ddb444a3b2de4b6a81895d0a832ce22e3cc10d717cd",
      "is_coinbase": false,
      "sequence": 4294967293
    },
    {
      "txid": "12b4809045e2e9a2d1ea0643ac070d6a2ce04bff5363f0ff1eb9fc1fb637ada2",
      "vout": 0,
      "prevout": {
        "scriptpubkey": "76a9148a4da10894987d2eae5e5a6e0c2387ba118eab1188ac",
        "scriptpubkey_asm": "OP_DUP OP_HASH160 OP_PUSHBYTES_20 8a4da10894987d2eae5e5a6e0c2387ba118eab11 OP_EQUALVERIFY OP_CHECKSIG",
        "scriptpubkey_type": "p2pkh",
        "scriptpubkey_address": "1DcHFEVfkSqd7shXSqcGvMNSVh3knjQQKi",
        "value": 12968
      },
      "scriptsig": "47304402200142eeef10e5165077a12631517a930cef4997e697cdcd7d604a0d9787fa123d02203d81bf40750817f706890feaee42c5feb277dbcc2dfad7e53928b7cd969f6fa8012103484475c342f7aed0d2e60ddb444a3b2de4b6a81895d0a832ce22e3cc10d717cd",
      "scriptsig_asm": "OP_PUSHBYTES_71 304402200142eeef10e5165077a12631517a930cef4997e697cdcd7d604a0d9787fa123d02203d81bf40750817f706890feaee42c5feb277dbcc2dfad7e53928b7cd969f6fa801 OP_PUSHBYTES_33 03484475c342f7aed0d2e60ddb444a3b2de4b6a81895d0a832ce22e3cc10d717cd",
      "is_coinbase": false,
      "sequence": 4294967293
    }
  ],
  "vout": [
    {
      "scriptpubkey": "001464642864e3ece3947f371a8f52678de6bf265050",
      "scriptpubkey_asm": "OP_0 OP_PUSHBYTES_20 64642864e3ece3947f371a8f52678de6bf265050",
      "scriptpubkey_type": "v0_p2wpkh",
      "scriptpubkey_address": "bc1qv3jzse8ran3eglehr284yeudu6ljv5zs0dnwhe",
      "value": 27731
    },
    {
      "scriptpubkey": "0014c415a3f9e1b8755b8a96942502e13d4ba6b436cb",
      "scriptpubkey_asm": "OP_0 OP_PUSHBYTES_20 c415a3f9e1b8755b8a96942502e13d4ba6b436cb",
      "scriptpubkey_type": "v0_p2wpkh",
      "scriptpubkey_address": "bc1qcs26870php64hz5kjsjs9cfafwntgdktn5n2th",
      "value": 8527
    }
  ],
  "size": 663,
  "weight": 2652,
  "fee": 10140,
  "status": {
    "confirmed": true,
    "block_height": 834460,
    "block_hash": "00000000000000000000484a79b643b2524bbce82e5d8a442013fa5b8905ed98",
    "block_time": 1710307468
  },
  "hex": "02000000043d88938b945ce0949a989ec04bc40bfd3eb3a300afe8a780a0acef30315fbe3d080000006b483045022100ec94a79308c958847c8405db2effca00a6e1626441d18df7645da4fa9be3915a02205bc46874de7345ec37b451f292b1b3ee5acd3446ddda025ed1288a3cb5950a85012103484475c342f7aed0d2e60ddb444a3b2de4b6a81895d0a832ce22e3cc10d717cdfdffffffd433ddeebfc594302f9ae0d683aebd4e37b2acb9bd8d804478fc72b56d2bf488000000006b48304502210091ef6fdcdb5d4b7f1a8b0bf9e65d47d3b29c4bf9a285699fddc5781309725e8f022068e4d356f1c26d9b338ed75bcf15fd97a7ecd3f87b721e489c221997e576edb7012103484475c342f7aed0d2e60ddb444a3b2de4b6a81895d0a832ce22e3cc10d717cdfdffffffdc5d869fba0e2d53d7baefeb26e285e3b922a93393db279df259f735044a3223000000006b483045022100bf8a065b9153027870584cc61f069b9f491f87f36f0ae5871db8e3ae292f012c02205fe21ed5aa836c2144b3f8cce4eb929691c57fd63474fd2cd8c14b5829de5792012103484475c342f7aed0d2e60ddb444a3b2de4b6a81895d0a832ce22e3cc10d717cdfdffffffa2ad37b61ffcb91efff06353ff4be02c6a0d07ac4306ead1a2e9e2459080b412000000006a47304402200142eeef10e5165077a12631517a930cef4997e697cdcd7d604a0d9787fa123d02203d81bf40750817f706890feaee42c5feb277dbcc2dfad7e53928b7cd969f6fa8012103484475c342f7aed0d2e60ddb444a3b2de4b6a81895d0a832ce22e3cc10d717cdfdffffff02536c00000000000016001464642864e3ece3947f371a8f52678de6bf2650504f21000000000000160014c415a3f9e1b8755b8a96942502e13d4ba6b436cb00000000"
}