{
  "txid": "87066e286356b7fe565c089ddd872510fcfb771d0bc8e090afb155743db0827b",
  "version": 1,
  "locktime": 0,
  "vin": [
    {
      "txid": "88888888885196b991992ff2e0ef850034b6267a5ffce59e9961c204b25957e9",
      "vout": 0,
      "prevout": {
        "scriptpubkey": "51205cebb8360948f0d953b9604ed31fa4ae559299174586aa91ff2cae8d53c6b43a",
        "scriptpubkey_asm": "OP_PUSHNUM_1 OP_PUSHBYTES_32 5cebb8360948f0d953b9604ed31fa4ae559299174586aa91ff2cae8d53c6b43a",
        "scriptpubkey_type": "v1_p2tr",
        "scriptpubkey_address": "bc1ptn4msdsffrcdj5aevp8dx8ay4e2e9xghgkr24y0l9jhg657xksaqvvc2qg",
        "value": 12787
      },
      "scriptsig": "",
      "scriptsig_asm": "",
      "witness": [
        "66c72b98fe3b22700d74a4aad1eef14be9b4805d249f94c5424caa3ef9d1d1669afd33773cc3aa3bf51fdb0b170e5bd643c29926d3a9037cf2f5ae0b03a12b75",
        "201bc0e5e32e9f9154b1a77dcd33f2b70f506f64e9db8f689531a4f08bf14f1fc6ac00630461746f6d03646d7444a16461726773a46474696d651a65f0e2c4656e6f6e63651904e568626974776f726b636b3838383838383838382e376b6d696e745f7469636b657268696e66696e69747968",
        "c01bc0e5e32e9f9154b1a77dcd33f2b70f506f64e9db8f689531a4f08bf14f1fc6"
      ],
      "is_coinbase": false,
      "sequence": 1
    }
  ],
  "vout": [
    {
      "scriptpubkey": "5120847df59ad498762bf8afb0c04d22a13f1f1eeaf157651909b5b6bc194445c05b",
      "scriptpubkey_asm": "OP_PUSHNUM_1 OP_PUSHBYTES_32 847df59ad498762bf8afb0c04d22a13f1f1eeaf157651909b5b6bc194445c05b",
      "scriptpubkey_type": "v1_p2tr",
      "scriptpubkey_address": "bc1ps37ltxk5npmzh790krqy6g4p8u03a6h32aj3jzd4k67pj3z9cpdsfg0xxt",
      "value": 9999
    }
  ],
  "size": 312,
  "weight": 594,
  "fee": 2788,
  "status": {
    "confirmed": true,
    "block_height": 834460,
    "block_hash": "00000000000000000000484a79b643b2524bbce82e5d8a442013fa5b8905ed98",
    "block_time": 1710307468
  },
  "hex": "01000000000101e95759b204c261999ee5fc5f7a26b6340085efe0f22f9991b996518888888888000000000001000000010f27000000000000225120847df59ad498762bf8afb0c04d22a13f1f1eeaf157651909b5b6bc194445c05b034066c72b98fe3b22700d74a4aad1eef14be9b4805d249f94c5424caa3ef9d1d1669afd33773cc3aa3bf51fdb0b170e5bd643c29926d3a9037cf2f5ae0b03a12b7573201bc0e5e32e9f9154b1a77dcd33f2b70f506f64e9db8f689531a4f08bf14f1fc6ac00630461746f6d03646d7444a16461726773a46474696d651a65f0e2c4656e6f6e63651904e568626974776f726b636b3838383838383838382e376b6d696e745f7469636b657268696e66696e6974796821c01bc0e5e32e9f9154b1a77dcd33f2b70f506f64e9db8f689531a4f08bf14f1fc600000000"
}