{
  "txid": "87205f407511c09aa210c7a394129ba1213a78fa99ab66e9a0c79de3664b96a3",
  "version": 2,
  "locktime": 0,
  "vin": [
    {
      "txid": "868d6f1f08e7b6240836004d4c418eb82bf2f18e740c0bd6b55a2bb3374e362b",
      "vout": 0,
      "prevout": {
        "scriptpubkey": "001470aae9a82ce1e75e17d27b9d6ae64e8fbc0568d7",
        "scriptpubkey_asm": "OP_0 OP_PUSHBYTES_20 70aae9a82ce1e75e17d27b9d6ae64e8fbc0568d7",
        "scriptpubkey_type": "v0_p2wpkh",
        "scriptpubkey_address": "bc1qwz4wn2pvu8n4u97j0wwk4ejw377q26xh6smmr3",
        "value": 1118447
      },
      "scriptsig": "",
      "scriptsig_asm": "",
      "witness": [
        "304402206df07764d8a251ac32f6b7e11fc28b28701ee4672a4ddcb432c6500b589ba4a202202b2e43985d82a2fcf33d981b274fcf01973fc0ed0a76135d7391e800e55216d201",
        "03c6bb2e5db8a3700d610c83f83b94dd74cde9b45af26e76a73f42c9ded74952f3"
      ],
      "is_coinbase": false,
      "sequence": 4294967295
    }
  ],
  "vout": [
    {
      "scriptpubkey": "00146b13e0a23159bff64fb9b4c24059ad5afef6b1ce",
      "scriptpubkey_asm": "OP_0 OP_PUSHBYTES_20 6b13e0a23159bff64fb9b4c24059ad5afef6b1ce",
      "scriptpubkey_type": "v0_p2wpkh",
      "scriptpubkey_address": "bc1qdvf7pg33txllvnaeknpyqkddttl0dvwwz85hha",
      "value": 575142
    },
    {
      "scriptpubkey": "76a91441d9097b014ede50ee83401ad7ecf99c4ba86e1088ac",
      "scriptpubkey_asm": "OP_DUP OP_HASH160 OP_PUSHBYTES_20 41d9097b014ede50ee83401ad7ecf99c4ba86e10 OP_EQUALVERIFY OP_CHECKSIG",
      "scriptpubkey_type": "p2pkh",
      "scriptpubkey_address": "171AvU41SNd5S1SJNS2iVs5bhMTLQmwnkY",
      "value": 541055
    }
  ],
  "size": 225,
  "weight": 573,
  "fee": 2250,
  "status": {
    "confirmed": true,
    "block_height": 834638,
    "block_hash": "000000000000000000025f742c626208ac87e0b7d15054abb4a19ca2d735a54e",
    "block_time": 1710405325
  },
  "hex": "020000000001012b364e37b32b5ab5d60b0c748ef1f22bb88e414c4d00360824b6e7081f6f8d860000000000ffffffff02a6c60800000000001600146b13e0a23159bff64fb9b4c24059ad5afef6b1ce7f410800000000001976a91441d9097b014ede50ee83401ad7ecf99c4ba86e1088ac0247304402206df07764d8a251ac32f6b7e11fc28b28701ee4672a4ddcb432c6500b589ba4a202202b2e43985d82a2fcf33d981b274fcf01973fc0ed0a76135d7391e800e55216d2012103c6bb2e5db8a3700d610c83f83b94dd74cde9b45af26e76a73f42c9ded74952f300000000"
}