{
  "txid": "872f81136150bcee7853b80b5af56742e4f1b3b5f149510ca9e96c0f5e707b58",
  "version": 1,
  "locktime": 0,
  "vin": [
    {
      "txid": "80422f0c22cf6838a16c2798d8e52596bdab5a679164565b6fd49bd750bd0329",
      "vout": 0,
      "prevout": {
        "scriptpubkey": "0014847639f34543accf64814c92ca3a394cc39513ef",
        "scriptpubkey_asm": "OP_0 OP_PUSHBYTES_20 847639f34543accf64814c92ca3a394cc39513ef",
        "scriptpubkey_type": "v0_p2wpkh",
        "scriptpubkey_address": "bc1qs3mrnu69gwkv7eypfjfv5w3efnpe2yl03rqwys",
        "value": 186766
      },
      "scriptsig": "",
      "scriptsig_asm": "",
      "witness": [
        "3044022008d3a7836471427ddfbb07ce612f4ad8819d99b2d5b20a72bf954a9d1339cfc10220659ac19061cf2e4660f61b43aebe99291246753522d19d2821037eda82c3dd2c01",
        "031b1139d3f2d98ff10b53996b580dc58f07359bcffa3f83d6db62b04c4ad775b4"
      ],
      "is_coinbase": false,
      "sequence": 4294967295
    }
  ],
  "vout": [
    {
      "scriptpubkey": "a914ce91076bafda74db7966a1f4d4d034a461e0e15987",
      "scriptpubkey_asm": "OP_HASH160 OP_PUSHBYTES_20 ce91076bafda74db7966a1f4d4d034a461e0e159 OP_EQUAL",
      "scriptpubkey_type": "p2sh",
      "scriptpubkey_address": "3LXErrLfVrURi7eumCAwbErympHxajg1Fn",
      "value": 183769
    }
  ],
  "size": 192,
  "weight": 441,
  "fee": 2997,
  "status": {
    "confirmed": true,
    "block_height": 834638,
    "block_hash": "000000000000000000025f742c626208ac87e0b7d15054abb4a19ca2d735a54e",
    "block_time": 1710405325
  },
  "hex": "010000000001012903bd50d79bd46f5b566491675aabbd9625e5d898276ca13868cf220c2f42800000000000ffffffff01d9cd02000000000017a914ce91076bafda74db7966a1f4d4d034a461e0e1598702473044022008d3a7836471427ddfbb07ce612f4ad8819d99b2d5b20a72bf954a9d1339cfc10220659ac19061cf2e4660f61b43aebe99291246753522d19d2821037eda82c3dd2c0121031b1139d3f2d98ff10b53996b580dc58f07359bcffa3f83d6db62b04c4ad775b400000000"
}