{
  "txid": "8732ef9a6fb98fab923f74ebc531cfb8eae1c72657c95a1fac23211ab9553b11",
  "version": 2,
  "locktime": 0,
  "vin": [
    {
      "txid": "9958185f63acd252be4efcd318c276c182deeec3e791487bcc16a09b0d01a702",
      "vout": 0,
      "prevout": {
        "scriptpubkey": "51206438e9926e8541797f0422a3e43d10e2e5bb8680f5c5d2e07b7076b6c63efba1",
        "scriptpubkey_asm": "OP_PUSHNUM_1 OP_PUSHBYTES_32 6438e9926e8541797f0422a3e43d10e2e5bb8680f5c5d2e07b7076b6c63efba1",
        "scriptpubkey_type": "v1_p2tr",
        "scriptpubkey_address": "bc1pvsuwnynws4qhjlcyy237g0gsutjmhp5q7hza9crmwpmtd337lwssg9mlnj",
        "value": 546
      },
      "scriptsig": "",
      "scriptsig_asm": "",
      "witness": [
        "f29b56ee03bbc4030d87bd3db09d6ff9843dea3524d91cd3c914c6281298d926ef0ddf425564c619ad5be0346239de2bbf4901b62589f95cc38234b7f0f0048d"
      ],
      "is_coinbase": false,
      "sequence": 2147483649
    },
    {
      "txid": "d5435d236e84d767f4f3cedef694ac19ca4382c5532a8e87b4b761e6bf15ee20",
      "vout": 1,
      "prevout": {
        "scriptpubkey": "51206438e9926e8541797f0422a3e43d10e2e5bb8680f5c5d2e07b7076b6c63efba1",
        "scriptpubkey_asm": "OP_PUSHNUM_1 OP_PUSHBYTES_32 6438e9926e8541797f0422a3e43d10e2e5bb8680f5c5d2e07b7076b6c63efba1",
        "scriptpubkey_type": "v1_p2tr",
        "scriptpubkey_address": "bc1pvsuwnynws4qhjlcyy237g0gsutjmhp5q7hza9crmwpmtd337lwssg9mlnj",
        "value": 154867
      },
      "scriptsig": "",
      "scriptsig_asm": "",
      "witness": [
        "0c118a1a31ebd6f8c463b0083cb942629a95f8818f91eb6fd1c6cd04410f077014ce5424c6a9d22ce3a34cb54db8e080dc47893c417eb0b7229569830da5dbc6"
      ],
      "is_coinbase": false,
      "sequence": 2147483649
    }
  ],
  "vout": [
    {
      "scriptpubkey": "5120973f085316521fb9007271809d34e2abd0f266fbb5df4c37246ee538f9067bd0",
      "scriptpubkey_asm": "OP_PUSHNUM_1 OP_PUSHBYTES_32 973f085316521fb9007271809d34e2abd0f266fbb5df4c37246ee538f9067bd0",
      "scriptpubkey_type": "v1_p2tr",
      "scriptpubkey_address": "bc1pjulss5ck2g0mjqrjwxqf6d8z40g0yehmkh05cdeydmjn37gx00gq2ukv3p",
      "value": 546
    },
    {
      "scriptpubkey": "51206438e9926e8541797f0422a3e43d10e2e5bb8680f5c5d2e07b7076b6c63efba1",
      "scriptpubkey_asm": "OP_PUSHNUM_1 OP_PUSHBYTES_32 6438e9926e8541797f0422a3e43d10e2e5bb8680f5c5d2e07b7076b6c63efba1",
      "scriptpubkey_type": "v1_p2tr",
      "scriptpubkey_address": "bc1pvsuwnynws4qhjlcyy237g0gsutjmhp5q7hza9crmwpmtd337lwssg9mlnj",
      "value": 151491
    }
  ],
  "size": 312,
  "weight": 846,
  "fee": 3376,
  "status": {
    "confirmed": true,
    "block_height": 834464,
    "block_hash": "0000000000000000000177a0869a911a2b65c9bdcd5a8bcb02b68f305bee848e",
    "block_time": 1710308296
  },
  "hex": "0200000000010202a7010d9ba016cc7b4891e7c3eede82c176c218d3fc4ebe52d2ac635f18589900000000000100008020ee15bfe661b7b4878e2a53c58243ca19ac94f6decef3f467d7846e235d43d5010000000001000080022202000000000000225120973f085316521fb9007271809d34e2abd0f266fbb5df4c37246ee538f9067bd0c34f0200000000002251206438e9926e8541797f0422a3e43d10e2e5bb8680f5c5d2e07b7076b6c63efba10140f29b56ee03bbc4030d87bd3db09d6ff9843dea3524d91cd3c914c6281298d926ef0ddf425564c619ad5be0346239de2bbf4901b62589f95cc38234b7f0f0048d01400c118a1a31ebd6f8c463b0083cb942629a95f8818f91eb6fd1c6cd04410f077014ce5424c6a9d22ce3a34cb54db8e080dc47893c417eb0b7229569830da5dbc600000000"
}