{
  "txid": "8749f80ffdcb60630f9c8ee5da26565e0978af401c4447f93242d3918e45e83c",
  "version": 2,
  "locktime": 0,
  "vin": [
    {
      "txid": "19ccbf03a621df8827476b081309dbee3246e8fcfec3a459b1c60fea2371cbc5",
      "vout": 1,
      "prevout": {
        "scriptpubkey": "5120ea0bedb1eadaeb7b5e310d7befdadfb5b592cec03cfa82aa27d8e3d35d0246dd",
        "scriptpubkey_asm": "OP_PUSHNUM_1 OP_PUSHBYTES_32 ea0bedb1eadaeb7b5e310d7befdadfb5b592cec03cfa82aa27d8e3d35d0246dd",
        "scriptpubkey_type": "v1_p2tr",
        "scriptpubkey_address": "bc1pag97mv02mt4hkh33p4a7lkklkk6e9nkq8nag9238mr3axhgzgmwsmkd2yh",
        "value": 961522
      },
      "scriptsig": "",
      "scriptsig_asm": "",
      "witness": [
        "e0fd0f88c3e3bbb8a95ac4d572e9b51c572562f124355abdfd5de77b33cf1189f02634cf739e665fb35df536b3eb61d454b6d3a8e424ea75eae5bdec69584edc"
      ],
      "is_coinbase": false,
      "sequence": 4294967295
    }
  ],
  "vout": [
    {
      "scriptpubkey": "512093fed4b0bf505c2ab3afda21699f20570cdff8d3a5c9b5aeb00b56ddb24f0e99",
      "scriptpubkey_asm": "OP_PUSHNUM_1 OP_PUSHBYTES_32 93fed4b0bf505c2ab3afda21699f20570cdff8d3a5c9b5aeb00b56ddb24f0e99",
      "scriptpubkey_type": "v1_p2tr",
      "scriptpubkey_address": "bc1pj0ldfv9l2pwz4va0mgskn8eq2uxdl7xn5hymtt4spdtdmvj0p6vsn50xrl",
      "value": 4000
    },
    {
      "scriptpubkey": "5120ea0bedb1eadaeb7b5e310d7befdadfb5b592cec03cfa82aa27d8e3d35d0246dd",
      "scriptpubkey_asm": "OP_PUSHNUM_1 OP_PUSHBYTES_32 ea0bedb1eadaeb7b5e310d7befdadfb5b592cec03cfa82aa27d8e3d35d0246dd",
      "scriptpubkey_type": "v1_p2tr",
      "scriptpubkey_address": "bc1pag97mv02mt4hkh33p4a7lkklkk6e9nkq8nag9238mr3axhgzgmwsmkd2yh",
      "value": 955674
    }
  ],
  "size": 205,
  "weight": 616,
  "fee": 1848,
  "status": {
    "confirmed": true,
    "block_height": 834460,
    "block_hash": "00000000000000000000484a79b643b2524bbce82e5d8a442013fa5b8905ed98",
    "block_time": 1710307468
  },
  "hex": "02000000000101c5cb7123ea0fc6b159a4c3fefce84632eedb0913086b472788df21a603bfcc190100000000ffffffff02a00f00000000000022512093fed4b0bf505c2ab3afda21699f20570cdff8d3a5c9b5aeb00b56ddb24f0e991a950e0000000000225120ea0bedb1eadaeb7b5e310d7befdadfb5b592cec03cfa82aa27d8e3d35d0246dd0140e0fd0f88c3e3bbb8a95ac4d572e9b51c572562f124355abdfd5de77b33cf1189f02634cf739e665fb35df536b3eb61d454b6d3a8e424ea75eae5bdec69584edc00000000"
}