{
  "txid": "874debde408dd3f22bfb8145218c00df618dc688bef3f5c04348a0fb9d86b357",
  "version": 2,
  "locktime": 0,
  "vin": [
    {
      "txid": "1b22c3d941a8d749c5bcac527a8a35b4da2aa10702a85cde6283acefc3af0e21",
      "vout": 13,
      "prevout": {
        "scriptpubkey": "001468d4f3dcae4cfff39fb1012c20da65eec769f3cd",
        "scriptpubkey_asm": "OP_0 OP_PUSHBYTES_20 68d4f3dcae4cfff39fb1012c20da65eec769f3cd",
        "scriptpubkey_type": "v0_p2wpkh",
        "scriptpubkey_address": "bc1qdr208h9wfnll88a3qykzpkn9amrknu7d6psa5s",
        "value": 45017
      },
      "scriptsig": "",
      "scriptsig_asm": "",
      "witness": [
        "30450221009c6f24ba36779fdabeaa6912e44b7e0fdd3eaeea1b0afa460c9eadb24e24415702204d19bf2ee3a1a6e7ea36649be5e2cdcdc55e564dfae04636bb506bc707b7cf8301",
        "0320db8d08437138743fc63af9c451fdceb703f238691159d6e3ff02e5490c4757"
      ],
      "is_coinbase": false,
      "sequence": 4294967293
    }
  ],
  "vout": [
    {
      "scriptpubkey": "00148d47472a2b4b98557d713d3796696afe9415e1e5",
      "scriptpubkey_asm": "OP_0 OP_PUSHBYTES_20 8d47472a2b4b98557d713d3796696afe9415e1e5",
      "scriptpubkey_type": "v0_p2wpkh",
      "scriptpubkey_address": "bc1q34r5w23tfwv92lt385mev6t2l62ptc09jlav5t",
      "value": 37325
    },
    {
      "scriptpubkey": "001468d4f3dcae4cfff39fb1012c20da65eec769f3cd",
      "scriptpubkey_asm": "OP_0 OP_PUSHBYTES_20 68d4f3dcae4cfff39fb1012c20da65eec769f3cd",
      "scriptpubkey_type": "v0_p2wpkh",
      "scriptpubkey_address": "bc1qdr208h9wfnll88a3qykzpkn9amrknu7d6psa5s",
      "value": 6162
    }
  ],
  "size": 223,
  "weight": 562,
  "fee": 1530,
  "status": {
    "confirmed": true,
    "block_height": 834464,
    "block_hash": "0000000000000000000177a0869a911a2b65c9bdcd5a8bcb02b68f305bee848e",
    "block_time": 1710308296
  },
  "hex": "02000000000101210eafc3efac8362de5ca80207a12adab4358a7a52acbcc549d7a841d9c3221b0d00000000fdffffff02cd910000000000001600148d47472a2b4b98557d713d3796696afe9415e1e5121800000000000016001468d4f3dcae4cfff39fb1012c20da65eec769f3cd024830450221009c6f24ba36779fdabeaa6912e44b7e0fdd3eaeea1b0afa460c9eadb24e24415702204d19bf2ee3a1a6e7ea36649be5e2cdcdc55e564dfae04636bb506bc707b7cf8301210320db8d08437138743fc63af9c451fdceb703f238691159d6e3ff02e5490c475700000000"
}