{
  "txid": "87547bb63b6666397f72ba04f2cf50af5e762a028bc153cfbfdf44de9da8e009",
  "version": 2,
  "locktime": 0,
  "vin": [
    {
      "txid": "00e2ad0165ccd45fac719469ee67e6e112520cbc3b60002b630eeb2042a649dd",
      "vout": 1,
      "prevout": {
        "scriptpubkey": "5120c1804a117e3656926d8275a19ec9b4ceb06e357bf1028bc8aed4d7de3558188c",
        "scriptpubkey_asm": "OP_PUSHNUM_1 OP_PUSHBYTES_32 c1804a117e3656926d8275a19ec9b4ceb06e357bf1028bc8aed4d7de3558188c",
        "scriptpubkey_type": "v1_p2tr",
        "scriptpubkey_address": "bc1pcxqy5yt7xetfymvzwkseajd5e6cxudtm7ypghj9w6ntaud2crzxq0qg8cg",
        "value": 97702
      },
      "scriptsig": "",
      "scriptsig_asm": "",
      "witness": [
        "ed21594a9d93857c3dacdec8f2199bd129e13887d00dec0e0e5a9b14e76fbdf6bfab8f5daec00b23a54f307d3122302bc2157b438cdfd58fdb132c1c1323e4a6"
      ],
      "is_coinbase": false,
      "sequence": 4294967295
    },
    {
      "txid": "04754d270f4537d7620b576e44e57f0b78f523693fa1fd2a7d7ebb5af4840c5b",
      "vout": 3,
      "prevout": {
        "scriptpubkey": "5120c1804a117e3656926d8275a19ec9b4ceb06e357bf1028bc8aed4d7de3558188c",
        "scriptpubkey_asm": "OP_PUSHNUM_1 OP_PUSHBYTES_32 c1804a117e3656926d8275a19ec9b4ceb06e357bf1028bc8aed4d7de3558188c",
        "scriptpubkey_type": "v1_p2tr",
        "scriptpubkey_address": "bc1pcxqy5yt7xetfymvzwkseajd5e6cxudtm7ypghj9w6ntaud2crzxq0qg8cg",
        "value": 83800
      },
      "scriptsig": "",
      "scriptsig_asm": "",
      "witness": [
        "96c4026481021d810bc34b31987a5fac54170913c15621bad9bbe14c964b59f71b0d7996f26aa18c2694a2c153920c8c76209b0a9a6689cad7ab39c627655856"
      ],
      "is_coinbase": false,
      "sequence": 4294967295
    },
    {
      "txid": "3cdc095364fc9586cdb8d0d96d13a9815643a43fd2ad59ea52bbfdcbfa146078",
      "vout": 1,
      "prevout": {
        "scriptpubkey": "5120c1804a117e3656926d8275a19ec9b4ceb06e357bf1028bc8aed4d7de3558188c",
        "scriptpubkey_asm": "OP_PUSHNUM_1 OP_PUSHBYTES_32 c1804a117e3656926d8275a19ec9b4ceb06e357bf1028bc8aed4d7de3558188c",
        "scriptpubkey_type": "v1_p2tr",
        "scriptpubkey_address": "bc1pcxqy5yt7xetfymvzwkseajd5e6cxudtm7ypghj9w6ntaud2crzxq0qg8cg",
        "value": 32201
      },
      "scriptsig": "",
      "scriptsig_asm": "",
      "witness": [
        "582b4614b8b620fd2a880a95e3b8e80de275afdca31838571cce6fa0d460a22ee2e06f926a638a5466d8a7f2cb7466c4ec62723ba64f8d01d5eb0cc3cbe198fd"
      ],
      "is_coinbase": false,
      "sequence": 4294967295
    },
    {
      "txid": "567265c95e86733ac0454d0139cbc56e855e4a777b538340292c12c83eca23c6",
      "vout": 0,
      "prevout": {
        "scriptpubkey": "5120c1804a117e3656926d8275a19ec9b4ceb06e357bf1028bc8aed4d7de3558188c",
        "scriptpubkey_asm": "OP_PUSHNUM_1 OP_PUSHBYTES_32 c1804a117e3656926d8275a19ec9b4ceb06e357bf1028bc8aed4d7de3558188c",
        "scriptpubkey_type": "v1_p2tr",
        "scriptpubkey_address": "bc1pcxqy5yt7xetfymvzwkseajd5e6cxudtm7ypghj9w6ntaud2crzxq0qg8cg",
        "value": 6000
      },
      "scriptsig": "",
      "scriptsig_asm": "",
      "witness": [
        "f2a1fc230111f55c0caf57b62634a8e45a9de7c42e6e9d9498331c73012ef7c7c8d348851e41a1ba2448f2cb13060ce346a04f00b4b64d4ff6d7f39cea161bf0"
      ],
      "is_coinbase": false,
      "sequence": 4294967295
    },
    {
      "txid": "d6f5910a2ab2d636bdac45af8e33936997b0b7a477a9518b75b62134adebf57c",
      "vout": 0,
      "prevout": {
        "scriptpubkey": "5120c1804a117e3656926d8275a19ec9b4ceb06e357bf1028bc8aed4d7de3558188c",
        "scriptpubkey_asm": "OP_PUSHNUM_1 OP_PUSHBYTES_32 c1804a117e3656926d8275a19ec9b4ceb06e357bf1028bc8aed4d7de3558188c",
        "scriptpubkey_type": "v1_p2tr",
        "scriptpubkey_address": "bc1pcxqy5yt7xetfymvzwkseajd5e6cxudtm7ypghj9w6ntaud2crzxq0qg8cg",
        "value": 1200
      },
      "scriptsig": "",
      "scriptsig_asm": "",
      "witness": [
        "a83900ed6a4958ce452978167da872c496ec1509f4c6d18eafc5eec4669a07c9c9e949b027c0a84ccada262094bcc704290af7a2c5d8738157520d47fbc73e2b"
      ],
      "is_coinbase": false,
      "sequence": 4294967295
    },
    {
      "txid": "fa41c2ab90e2c5e50ed2e555545885b2a7163df60e05b1e427651ec4733c67c6",
      "vout": 0,
      "prevout": {
        "scriptpubkey": "5120c1804a117e3656926d8275a19ec9b4ceb06e357bf1028bc8aed4d7de3558188c",
        "scriptpubkey_asm": "OP_PUSHNUM_1 OP_PUSHBYTES_32 c1804a117e3656926d8275a19ec9b4ceb06e357bf1028bc8aed4d7de3558188c",
        "scriptpubkey_type": "v1_p2tr",
        "scriptpubkey_address": "bc1pcxqy5yt7xetfymvzwkseajd5e6cxudtm7ypghj9w6ntaud2crzxq0qg8cg",
        "value": 1200
      },
      "scriptsig": "",
      "scriptsig_asm": "",
      "witness": [
        "d6d81e9a21561abd5d9ce222af25fd5c8eb1ff6c1a682d127910360a3cb7e6df83235330ce282ee6b5929c314aa1624dec5050f165d66624e5b308ab44c8d89e"
      ],
      "is_coinbase": false,
      "sequence": 4294967295
    },
    {
      "txid": "f45c80dad7b475b1b7c1ef33e25df5d2d8e292f58bc80fd4c0252864394f8c9a",
      "vout": 0,
      "prevout": {
        "scriptpubkey": "5120c1804a117e3656926d8275a19ec9b4ceb06e357bf1028bc8aed4d7de3558188c",
        "scriptpubkey_asm": "OP_PUSHNUM_1 OP_PUSHBYTES_32 c1804a117e3656926d8275a19ec9b4ceb06e357bf1028bc8aed4d7de3558188c",
        "scriptpubkey_type": "v1_p2tr",
        "scriptpubkey_address": "bc1pcxqy5yt7xetfymvzwkseajd5e6cxudtm7ypghj9w6ntaud2crzxq0qg8cg",
        "value": 1200
      },
      "scriptsig": "",
      "scriptsig_asm": "",
      "witness": [
        "70b92aab37029f22152afd46039e05c7e0740fa9bf69558e4e1d68189559a1a5a3b3fc356481d4c3693d27051123c6e424c17d3dbeba3f4c9a7ebcc48af0b602"
      ],
      "is_coinbase": false,
      "sequence": 4294967295
    },
    {
      "txid": "90c76ed87d01b737117a80469b0748c2ea172e963cbc4cd0dc8debfe7f79b38f",
      "vout": 0,
      "prevout": {
        "scriptpubkey": "5120c1804a117e3656926d8275a19ec9b4ceb06e357bf1028bc8aed4d7de3558188c",
        "scriptpubkey_asm": "OP_PUSHNUM_1 OP_PUSHBYTES_32 c1804a117e3656926d8275a19ec9b4ceb06e357bf1028bc8aed4d7de3558188c",
        "scriptpubkey_type": "v1_p2tr",
        "scriptpubkey_address": "bc1pcxqy5yt7xetfymvzwkseajd5e6cxudtm7ypghj9w6ntaud2crzxq0qg8cg",
        "value": 1200
      },
      "scriptsig": "",
      "scriptsig_asm": "",
      "witness": [
        "158e1dae64b608a83f9a9f3c6c7dfcf83a64bec0494997f40d59554e7843766d26179c0d909dd67542e90bea66395a7718c2d613ca8ddfd1712684641b4359c5"
      ],
      "is_coinbase": false,
      "sequence": 4294967295
    },
    {
      "txid": "2c0c5026e48f644138ff1f9665aacd51be17a31d26925e504eaa9eb0ee3e5496",
      "vout": 0,
      "prevout": {
        "scriptpubkey": "5120c1804a117e3656926d8275a19ec9b4ceb06e357bf1028bc8aed4d7de3558188c",
        "scriptpubkey_asm": "OP_PUSHNUM_1 OP_PUSHBYTES_32 c1804a117e3656926d8275a19ec9b4ceb06e357bf1028bc8aed4d7de3558188c",
        "scriptpubkey_type": "v1_p2tr",
        "scriptpubkey_address": "bc1pcxqy5yt7xetfymvzwkseajd5e6cxudtm7ypghj9w6ntaud2crzxq0qg8cg",
        "value": 1200
      },
      "scriptsig": "",
      "scriptsig_asm": "",
      "witness": [
        "3cf574719331b059f8a2cb32aa7ed7f8ff3016f10d848c203ca486eaa50029dc8e1bc992a0c5dbd1da8adabbf8e3af3c0fb881243bbb09eeab0fef3d5a08075c"
      ],
      "is_coinbase": false,
      "sequence": 4294967295
    },
    {
      "txid": "9240608dae5b8f6b3d86db2ecf6b1bf3f56f8a67c15a7cccd57db4740010bd32",
      "vout": 0,
      "prevout": {
        "scriptpubkey": "5120c1804a117e3656926d8275a19ec9b4ceb06e357bf1028bc8aed4d7de3558188c",
        "scriptpubkey_asm": "OP_PUSHNUM_1 OP_PUSHBYTES_32 c1804a117e3656926d8275a19ec9b4ceb06e357bf1028bc8aed4d7de3558188c",
        "scriptpubkey_type": "v1_p2tr",
        "scriptpubkey_address": "bc1pcxqy5yt7xetfymvzwkseajd5e6cxudtm7ypghj9w6ntaud2crzxq0qg8cg",
        "value": 1200
      },
      "scriptsig": "",
      "scriptsig_asm": "",
      "witness": [
        "3ebfa354f5fb12cb22cd62437837f117b3624fa23769f17edcc9df9de28e27d98b69a4a7a4babdb3561ade68d4abf1e8f5569013d4e5714acda3954dcc73e7fd"
      ],
      "is_coinbase": false,
      "sequence": 4294967295
    },
    {
      "txid": "8e4a9c684dbc53598d7f22d3c5fb5a4fdb92397734ff8897c5ec471d85c7926f",
      "vout": 0,
      "prevout": {
        "scriptpubkey": "5120c1804a117e3656926d8275a19ec9b4ceb06e357bf1028bc8aed4d7de3558188c",
        "scriptpubkey_asm": "OP_PUSHNUM_1 OP_PUSHBYTES_32 c1804a117e3656926d8275a19ec9b4ceb06e357bf1028bc8aed4d7de3558188c",
        "scriptpubkey_type": "v1_p2tr",
        "scriptpubkey_address": "bc1pcxqy5yt7xetfymvzwkseajd5e6cxudtm7ypghj9w6ntaud2crzxq0qg8cg",
        "value": 1200
      },
      "scriptsig": "",
      "scriptsig_asm": "",
      "witness": [
        "edc5e6761d38db3fe118cfc1a316d238660261257a36c26185bde4766396e87d173a589e97efb92c053403fdd831d7ae031f1dea251ee5ef79b233fc0b93da98"
      ],
      "is_coinbase": false,
      "sequence": 4294967295
    },
    {
      "txid": "6951137d7aa493ebec43bae64706fc4e103ffb0cdd20bc2656f22ccb4eab0196",
      "vout": 0,
      "prevout": {
        "scriptpubkey": "5120c1804a117e3656926d8275a19ec9b4ceb06e357bf1028bc8aed4d7de3558188c",
        "scriptpubkey_asm": "OP_PUSHNUM_1 OP_PUSHBYTES_32 c1804a117e3656926d8275a19ec9b4ceb06e357bf1028bc8aed4d7de3558188c",
        "scriptpubkey_type": "v1_p2tr",
        "scriptpubkey_address": "bc1pcxqy5yt7xetfymvzwkseajd5e6cxudtm7ypghj9w6ntaud2crzxq0qg8cg",
        "value": 1200
      },
      "scriptsig": "",
      "scriptsig_asm": "",
      "witness": [
        "8673b9c6fa09ceffd5e7e25c68e62fa0ddf37041fa5b8f4d07ba81f7be2cf361b1a1c3f31b4b85e71b44614cc6db559bca7dcd9f25622dcfe412f32ba646c0a4"
      ],
      "is_coinbase": false,
      "sequence": 4294967295
    },
    {
      "txid": "bb7d6e8c5a90d583a37411503b572e9364de584f46551d8c8836c98658d15a6c",
      "vout": 0,
      "prevout": {
        "scriptpubkey": "5120c1804a117e3656926d8275a19ec9b4ceb06e357bf1028bc8aed4d7de3558188c",
        "scriptpubkey_asm": "OP_PUSHNUM_1 OP_PUSHBYTES_32 c1804a117e3656926d8275a19ec9b4ceb06e357bf1028bc8aed4d7de3558188c",
        "scriptpubkey_type": "v1_p2tr",
        "scriptpubkey_address": "bc1pcxqy5yt7xetfymvzwkseajd5e6cxudtm7ypghj9w6ntaud2crzxq0qg8cg",
        "value": 1200
      },
      "scriptsig": "",
      "scriptsig_asm": "",
      "witness": [
        "44915fda674c979b6177bf41c3aa47b832d8c68505cbe6922de46f6a875fd19ef6acd2cdbbb74d1f0827a463abac5945a3e9308198dd6d8e76f2bf9c429a33cc"
      ],
      "is_coinbase": false,
      "sequence": 4294967295
    },
    {
      "txid": "e3b2e7535ee3609ab313eb2be81db744b791c638626c590699081400b12bb4f5",
      "vout": 0,
      "prevout": {
        "scriptpubkey": "5120c1804a117e3656926d8275a19ec9b4ceb06e357bf1028bc8aed4d7de3558188c",
        "scriptpubkey_asm": "OP_PUSHNUM_1 OP_PUSHBYTES_32 c1804a117e3656926d8275a19ec9b4ceb06e357bf1028bc8aed4d7de3558188c",
        "scriptpubkey_type": "v1_p2tr",
        "scriptpubkey_address": "bc1pcxqy5yt7xetfymvzwkseajd5e6cxudtm7ypghj9w6ntaud2crzxq0qg8cg",
        "value": 1200
      },
      "scriptsig": "",
      "scriptsig_asm": "",
      "witness": [
        "de10ee3a81a6aa35d690259f7e6d951356bcb15bf223f39a0fb07d2a21dda0df0207ec8b0ab3b00875cf5de97221c7f98b0aa1a4722d3417ef8409669831ea22"
      ],
      "is_coinbase": false,
      "sequence": 4294967295
    },
    {
      "txid": "2b93e36568e5e78684f83a2c5a52a47ceb0e00b50cbbf73103a91768f02c591d",
      "vout": 0,
      "prevout": {
        "scriptpubkey": "5120c1804a117e3656926d8275a19ec9b4ceb06e357bf1028bc8aed4d7de3558188c",
        "scriptpubkey_asm": "OP_PUSHNUM_1 OP_PUSHBYTES_32 c1804a117e3656926d8275a19ec9b4ceb06e357bf1028bc8aed4d7de3558188c",
        "scriptpubkey_type": "v1_p2tr",
        "scriptpubkey_address": "bc1pcxqy5yt7xetfymvzwkseajd5e6cxudtm7ypghj9w6ntaud2crzxq0qg8cg",
        "value": 1200
      },
      "scriptsig": "",
      "scriptsig_asm": "",
      "witness": [
        "1ca2a08626bf0ceabf68ef76064bebfe3c6d2483e6922121e5f9e6a354140ccfc819977345bb53ff8879c5c6006eac321807ad1ff453b46260994f6d58f4dbf5"
      ],
      "is_coinbase": false,
      "sequence": 4294967295
    },
    {
      "txid": "36007db2b9a33452252db2f4449d4dd32e4c5671be3e7954c4941433896420c6",
      "vout": 0,
      "prevout": {
        "scriptpubkey": "5120c1804a117e3656926d8275a19ec9b4ceb06e357bf1028bc8aed4d7de3558188c",
        "scriptpubkey_asm": "OP_PUSHNUM_1 OP_PUSHBYTES_32 c1804a117e3656926d8275a19ec9b4ceb06e357bf1028bc8aed4d7de3558188c",
        "scriptpubkey_type": "v1_p2tr",
        "scriptpubkey_address": "bc1pcxqy5yt7xetfymvzwkseajd5e6cxudtm7ypghj9w6ntaud2crzxq0qg8cg",
        "value": 1200
      },
      "scriptsig": "",
      "scriptsig_asm": "",
      "witness": [
        "0d516500ba7703a943208ad74aa1e7604c0ccdc23e4deb761df42ad9deded9649ee0b0a6bcb935fb97f0ff30126b20a268ef0c45609ab9a5dee7319a0655f9a1"
      ],
      "is_coinbase": false,
      "sequence": 4294967295
    },
    {
      "txid": "d6f5910a2ab2d636bdac45af8e33936997b0b7a477a9518b75b62134adebf57c",
      "vout": 5,
      "prevout": {
        "scriptpubkey": "5120c1804a117e3656926d8275a19ec9b4ceb06e357bf1028bc8aed4d7de3558188c",
        "scriptpubkey_asm": "OP_PUSHNUM_1 OP_PUSHBYTES_32 c1804a117e3656926d8275a19ec9b4ceb06e357bf1028bc8aed4d7de3558188c",
        "scriptpubkey_type": "v1_p2tr",
        "scriptpubkey_address": "bc1pcxqy5yt7xetfymvzwkseajd5e6cxudtm7ypghj9w6ntaud2crzxq0qg8cg",
        "value": 600
      },
      "scriptsig": "",
      "scriptsig_asm": "",
      "witness": [
        "9071cc03dce3ca180c19d78c197838bac1f3598a3b07080968e9c78169138fd7d0cd1d01e2d6d18b0a5d2f67160ab2cbbfeb93d088adbfc20b4e5237f1c06465"
      ],
      "is_coinbase": false,
      "sequence": 4294967295
    },
    {
      "txid": "d6f5910a2ab2d636bdac45af8e33936997b0b7a477a9518b75b62134adebf57c",
      "vout": 4,
      "prevout": {
        "scriptpubkey": "5120c1804a117e3656926d8275a19ec9b4ceb06e357bf1028bc8aed4d7de3558188c",
        "scriptpubkey_asm": "OP_PUSHNUM_1 OP_PUSHBYTES_32 c1804a117e3656926d8275a19ec9b4ceb06e357bf1028bc8aed4d7de3558188c",
        "scriptpubkey_type": "v1_p2tr",
        "scriptpubkey_address": "bc1pcxqy5yt7xetfymvzwkseajd5e6cxudtm7ypghj9w6ntaud2crzxq0qg8cg",
        "value": 600
      },
      "scriptsig": "",
      "scriptsig_asm": "",
      "witness": [
        "40a7e8853707f607291e3046a383f022a5877cd75a76a2da4ca3681db886d1c0ee7c4cd537a8cdd42906298729d9c81b0fe36425dfed256a4f42f2b7650fbef8"
      ],
      "is_coinbase": false,
      "sequence": 4294967295
    },
    {
      "txid": "fa41c2ab90e2c5e50ed2e555545885b2a7163df60e05b1e427651ec4733c67c6",
      "vout": 5,
      "prevout": {
        "scriptpubkey": "5120c1804a117e3656926d8275a19ec9b4ceb06e357bf1028bc8aed4d7de3558188c",
        "scriptpubkey_asm": "OP_PUSHNUM_1 OP_PUSHBYTES_32 c1804a117e3656926d8275a19ec9b4ceb06e357bf1028bc8aed4d7de3558188c",
        "scriptpubkey_type": "v1_p2tr",
        "scriptpubkey_address": "bc1pcxqy5yt7xetfymvzwkseajd5e6cxudtm7ypghj9w6ntaud2crzxq0qg8cg",
        "value": 600
      },
      "scriptsig": "",
      "scriptsig_asm": "",
      "witness": [
        "36ba3a39be33b37ec1156a06898c98d72507d4375331f26dd1a44fb82697f17a86e5fefd29e1120a19b85f3c69d1057d42be2855209aa5a55319c23cdca1dd79"
      ],
      "is_coinbase": false,
      "sequence": 4294967295
    },
    {
      "txid": "fa41c2ab90e2c5e50ed2e555545885b2a7163df60e05b1e427651ec4733c67c6",
      "vout": 4,
      "prevout": {
        "scriptpubkey": "5120c1804a117e3656926d8275a19ec9b4ceb06e357bf1028bc8aed4d7de3558188c",
        "scriptpubkey_asm": "OP_PUSHNUM_1 OP_PUSHBYTES_32 c1804a117e3656926d8275a19ec9b4ceb06e357bf1028bc8aed4d7de3558188c",
        "scriptpubkey_type": "v1_p2tr",
        "scriptpubkey_address": "bc1pcxqy5yt7xetfymvzwkseajd5e6cxudtm7ypghj9w6ntaud2crzxq0qg8cg",
        "value": 600
      },
      "scriptsig": "",
      "scriptsig_asm": "",
      "witness": [
        "30c49b837631893aa3dd5fe51a7d7a84ea2e47d32a8ede8b963c36ee1216c87ca354b2020ca24d1c3eb36b696e63f80f436bcbb4112c36291887d063d9a50c55"
      ],
      "is_coinbase": false,
      "sequence": 4294967295
    },
    {
      "txid": "f45c80dad7b475b1b7c1ef33e25df5d2d8e292f58bc80fd4c0252864394f8c9a",
      "vout": 4,
      "prevout": {
        "scriptpubkey": "5120c1804a117e3656926d8275a19ec9b4ceb06e357bf1028bc8aed4d7de3558188c",
        "scriptpubkey_asm": "OP_PUSHNUM_1 OP_PUSHBYTES_32 c1804a117e3656926d8275a19ec9b4ceb06e357bf1028bc8aed4d7de3558188c",
        "scriptpubkey_type": "v1_p2tr",
        "scriptpubkey_address": "bc1pcxqy5yt7xetfymvzwkseajd5e6cxudtm7ypghj9w6ntaud2crzxq0qg8cg",
        "value": 600
      },
      "scriptsig": "",
      "scriptsig_asm": "",
      "witness": [
        "d93638bda3c1b5095c6d71bde7d748e698a48b188f0e68e3e125b8222bff1b864a4922df2006a299a91a869e8d3f9dfef538d4617650dc1fc744c279ad5dbcd9"
      ],
      "is_coinbase": false,
      "sequence": 4294967295
    },
    {
      "txid": "8e4a9c684dbc53598d7f22d3c5fb5a4fdb92397734ff8897c5ec471d85c7926f",
      "vout": 4,
      "prevout": {
        "scriptpubkey": "5120c1804a117e3656926d8275a19ec9b4ceb06e357bf1028bc8aed4d7de3558188c",
        "scriptpubkey_asm": "OP_PUSHNUM_1 OP_PUSHBYTES_32 c1804a117e3656926d8275a19ec9b4ceb06e357bf1028bc8aed4d7de3558188c",
        "scriptpubkey_type": "v1_p2tr",
        "scriptpubkey_address": "bc1pcxqy5yt7xetfymvzwkseajd5e6cxudtm7ypghj9w6ntaud2crzxq0qg8cg",
        "value": 600
      },
      "scriptsig": "",
      "scriptsig_asm": "",
      "witness": [
        "3d2ee0d42ac84ff26c5e7ab2cae00939f6f7ecbb6e3acd0fc56c00f8225dfb4345b30c916d4bdcf75475b5c18f3d57abef77d693b9cb1514898f21d081c3007e"
      ],
      "is_coinbase": false,
      "sequence": 4294967295
    },
    {
      "txid": "567265c95e86733ac0454d0139cbc56e855e4a777b538340292c12c83eca23c6",
      "vout": 20,
      "prevout": {
        "scriptpubkey": "5120c1804a117e3656926d8275a19ec9b4ceb06e357bf1028bc8aed4d7de3558188c",
        "scriptpubkey_asm": "OP_PUSHNUM_1 OP_PUSHBYTES_32 c1804a117e3656926d8275a19ec9b4ceb06e357bf1028bc8aed4d7de3558188c",
        "scriptpubkey_type": "v1_p2tr",
        "scriptpubkey_address": "bc1pcxqy5yt7xetfymvzwkseajd5e6cxudtm7ypghj9w6ntaud2crzxq0qg8cg",
        "value": 600
      },
      "scriptsig": "",
      "scriptsig_asm": "",
      "witness": [
        "d4c1857aab38389ccb336a51e96a01a934af3f018adbfde730379a4f173331e7d2d4d4246745e6815b5dc81bd75b31e7067041bf9f48aa87d4fb11cd3609a40e"
      ],
      "is_coinbase": false,
      "sequence": 4294967295
    }
  ],
  "vout": [
    {
      "scriptpubkey": "5120e01613d1892e68fd9c1dc4975f947dd51cbef0d91af02f35c2e6a5416857d6f7",
      "scriptpubkey_asm": "OP_PUSHNUM_1 OP_PUSHBYTES_32 e01613d1892e68fd9c1dc4975f947dd51cbef0d91af02f35c2e6a5416857d6f7",
      "scriptpubkey_type": "v1_p2tr",
      "scriptpubkey_address": "bc1puqtp85vf9e50m8qacjt4l9ra65wtauxertcz7dwzu6j5z6zh6mmstcc07s",
      "value": 217663
    }
  ],
  "size": 2516,
  "weight": 5504,
  "fee": 20640,
  "status": {
    "confirmed": true,
    "block_height": 834460,
    "block_hash": "00000000000000000000484a79b643b2524bbce82e5d8a442013fa5b8905ed98",
    "block_time": 1710307468
  },
  "hex": "02000000000117dd49a64220eb0e632b00603bbc0c5212e1e667ee699471ac5fd4cc6501ade2000100000000ffffffff5b0c84f45abb7e7d2afda13f6923f5780b7fe5446e570b62d737450f274d75040300000000ffffffff786014facbfdbb52ea59add23fa4435681a9136dd9d0b8cd8695fc645309dc3c0100000000ffffffffc623ca3ec8122c294083537b774a5e856ec5cb39014d45c03a73865ec96572560000000000ffffffff7cf5ebad3421b6758b51a977a4b7b0976993338eaf45acbd36d6b22a0a91f5d60000000000ffffffffc6673c73c41e6527e4b1050ef63d16a7b285585455e5d20ee5c5e290abc241fa0000000000ffffffff9a8c4f39642825c0d40fc88bf592e2d8d2f55de233efc1b7b175b4d7da805cf40000000000ffffffff8fb3797ffeeb8ddcd04cbc3c962e17eac248079b46807a1137b7017dd86ec7900000000000ffffffff96543eeeb09eaa4e505e92261da317be51cdaa65961fff3841648fe426500c2c0000000000ffffffff32bd100074b47dd5cc7c5ac1678a6ff5f31b6bcf2edb863d6b8f5bae8d6040920000000000ffffffff6f92c7851d47ecc59788ff34773992db4f5afbc5d3227f8d5953bc4d689c4a8e0000000000ffffffff9601ab4ecb2cf25626bc20dd0cfb3f104efc0647e6ba43eceb93a47a7d1351690000000000ffffffff6c5ad15886c936888c1d55464f58de64932e573b501174a383d5905a8c6e7dbb0000000000fffffffff5b42bb10014089906596c6238c691b744b71de82beb13b39a60e35e53e7b2e30000000000ffffffff1d592cf06817a90331f7bb0cb5000eeb7ca4525a2c3af88486e7e56865e3932b0000000000ffffffffc6206489331494c454793ebe71564c2ed34d9d44f4b22d255234a3b9b27d00360000000000ffffffff7cf5ebad3421b6758b51a977a4b7b0976993338eaf45acbd36d6b22a0a91f5d60500000000ffffffff7cf5ebad3421b6758b51a977a4b7b0976993338eaf45acbd36d6b22a0a91f5d60400000000ffffffffc6673c73c41e6527e4b1050ef63d16a7b285585455e5d20ee5c5e290abc241fa0500000000ffffffffc6673c73c41e6527e4b1050ef63d16a7b285585455e5d20ee5c5e290abc241fa0400000000ffffffff9a8c4f39642825c0d40fc88bf592e2d8d2f55de233efc1b7b175b4d7da805cf40400000000ffffffff6f92c7851d47ecc59788ff34773992db4f5afbc5d3227f8d5953bc4d689c4a8e0400000000ffffffffc623ca3ec8122c294083537b774a5e856ec5cb39014d45c03a73865ec96572561400000000ffffffff013f52030000000000225120e01613d1892e68fd9c1dc4975f947dd51cbef0d91af02f35c2e6a5416857d6f70140ed21594a9d93857c3dacdec8f2199bd129e13887d00dec0e0e5a9b14e76fbdf6bfab8f5daec00b23a54f307d3122302bc2157b438cdfd58fdb132c1c1323e4a6014096c4026481021d810bc34b31987a5fac54170913c15621bad9bbe14c964b59f71b0d7996f26aa18c2694a2c153920c8c76209b0a9a6689cad7ab39c6276558560140582b4614b8b620fd2a880a95e3b8e80de275afdca31838571cce6fa0d460a22ee2e06f926a638a5466d8a7f2cb7466c4ec62723ba64f8d01d5eb0cc3cbe198fd0140f2a1fc230111f55c0caf57b62634a8e45a9de7c42e6e9d9498331c73012ef7c7c8d348851e41a1ba2448f2cb13060ce346a04f00b4b64d4ff6d7f39cea161bf00140a83900ed6a4958ce452978167da872c496ec1509f4c6d18eafc5eec4669a07c9c9e949b027c0a84ccada262094bcc704290af7a2c5d8738157520d47fbc73e2b0140d6d81e9a21561abd5d9ce222af25fd5c8eb1ff6c1a682d127910360a3cb7e6df83235330ce282ee6b5929c314aa1624dec5050f165d66624e5b308ab44c8d89e014070b92aab37029f22152afd46039e05c7e0740fa9bf69558e4e1d68189559a1a5a3b3fc356481d4c3693d27051123c6e424c17d3dbeba3f4c9a7ebcc48af0b6020140158e1dae64b608a83f9a9f3c6c7dfcf83a64bec0494997f40d59554e7843766d26179c0d909dd67542e90bea66395a7718c2d613ca8ddfd1712684641b4359c501403cf574719331b059f8a2cb32aa7ed7f8ff3016f10d848c203ca486eaa50029dc8e1bc992a0c5dbd1da8adabbf8e3af3c0fb881243bbb09eeab0fef3d5a08075c01403ebfa354f5fb12cb22cd62437837f117b3624fa23769f17edcc9df9de28e27d98b69a4a7a4babdb3561ade68d4abf1e8f5569013d4e5714acda3954dcc73e7fd0140edc5e6761d38db3fe118cfc1a316d238660261257a36c26185bde4766396e87d173a589e97efb92c053403fdd831d7ae031f1dea251ee5ef79b233fc0b93da9801408673b9c6fa09ceffd5e7e25c68e62fa0ddf37041fa5b8f4d07ba81f7be2cf361b1a1c3f31b4b85e71b44614cc6db559bca7dcd9f25622dcfe412f32ba646c0a4014044915fda674c979b6177bf41c3aa47b832d8c68505cbe6922de46f6a875fd19ef6acd2cdbbb74d1f0827a463abac5945a3e9308198dd6d8e76f2bf9c429a33cc0140de10ee3a81a6aa35d690259f7e6d951356bcb15bf223f39a0fb07d2a21dda0df0207ec8b0ab3b00875cf5de97221c7f98b0aa1a4722d3417ef8409669831ea2201401ca2a08626bf0ceabf68ef76064bebfe3c6d2483e6922121e5f9e6a354140ccfc819977345bb53ff8879c5c6006eac321807ad1ff453b46260994f6d58f4dbf501400d516500ba7703a943208ad74aa1e7604c0ccdc23e4deb761df42ad9deded9649ee0b0a6bcb935fb97f0ff30126b20a268ef0c45609ab9a5dee7319a0655f9a101409071cc03dce3ca180c19d78c197838bac1f3598a3b07080968e9c78169138fd7d0cd1d01e2d6d18b0a5d2f67160ab2cbbfeb93d088adbfc20b4e5237f1c06465014040a7e8853707f607291e3046a383f022a5877cd75a76a2da4ca3681db886d1c0ee7c4cd537a8cdd42906298729d9c81b0fe36425dfed256a4f42f2b7650fbef8014036ba3a39be33b37ec1156a06898c98d72507d4375331f26dd1a44fb82697f17a86e5fefd29e1120a19b85f3c69d1057d42be2855209aa5a55319c23cdca1dd79014030c49b837631893aa3dd5fe51a7d7a84ea2e47d32a8ede8b963c36ee1216c87ca354b2020ca24d1c3eb36b696e63f80f436bcbb4112c36291887d063d9a50c550140d93638bda3c1b5095c6d71bde7d748e698a48b188f0e68e3e125b8222bff1b864a4922df2006a299a91a869e8d3f9dfef538d4617650dc1fc744c279ad5dbcd901403d2ee0d42ac84ff26c5e7ab2cae00939f6f7ecbb6e3acd0fc56c00f8225dfb4345b30c916d4bdcf75475b5c18f3d57abef77d693b9cb1514898f21d081c3007e0140d4c1857aab38389ccb336a51e96a01a934af3f018adbfde730379a4f173331e7d2d4d4246745e6815b5dc81bd75b31e7067041bf9f48aa87d4fb11cd3609a40e00000000"
}