{
  "txid": "87578ff4c3a7291d57b752134e7befdcc448dcaf5d462e30c4d43bfc67e0c9e5",
  "version": 2,
  "locktime": 0,
  "vin": [
    {
      "txid": "53b14b2b88749a454044c55a745d5bd44866b16f51fda3ccce582de1f2a1cd4f",
      "vout": 1,
      "prevout": {
        "scriptpubkey": "5120d0f2033f0cc7ea9a5f6c028982b0923d0cbe9738bf88a9d8391ed1bcedf4424a",
        "scriptpubkey_asm": "OP_PUSHNUM_1 OP_PUSHBYTES_32 d0f2033f0cc7ea9a5f6c028982b0923d0cbe9738bf88a9d8391ed1bcedf4424a",
        "scriptpubkey_type": "v1_p2tr",
        "scriptpubkey_address": "bc1p6reqx0cvcl4f5hmvq2yc9vyj85xta9ech7y2nkpermgmem05gf9q46ww2m",
        "value": 893794
      },
      "scriptsig": "",
      "scriptsig_asm": "",
      "witness": [
        "d627124516e01c689061521c64148815a7d65894c1f8fb0683e3cee9ea56401bbc6d7dc6dc525d1f79c506541c19d7cb025601d0eadad93da8741813ce1692ce"
      ],
      "is_coinbase": false,
      "sequence": 4294967293
    }
  ],
  "vout": [
    {
      "scriptpubkey": "51203c0c8c9a74fb882bae96b27b2729eb8645bae1d0e1894a5fd3247575cea24671",
      "scriptpubkey_asm": "OP_PUSHNUM_1 OP_PUSHBYTES_32 3c0c8c9a74fb882bae96b27b2729eb8645bae1d0e1894a5fd3247575cea24671",
      "scriptpubkey_type": "v1_p2tr",
      "scriptpubkey_address": "bc1p8sxgexn5lwyzht5kkfajw20tsezm4cwsuxy55h7ny36htn4zgecsgwh6tp",
      "value": 2856
    },
    {
      "scriptpubkey": "5120d0f2033f0cc7ea9a5f6c028982b0923d0cbe9738bf88a9d8391ed1bcedf4424a",
      "scriptpubkey_asm": "OP_PUSHNUM_1 OP_PUSHBYTES_32 d0f2033f0cc7ea9a5f6c028982b0923d0cbe9738bf88a9d8391ed1bcedf4424a",
      "scriptpubkey_type": "v1_p2tr",
      "scriptpubkey_address": "bc1p6reqx0cvcl4f5hmvq2yc9vyj85xta9ech7y2nkpermgmem05gf9q46ww2m",
      "value": 888628
    }
  ],
  "size": 205,
  "weight": 616,
  "fee": 2310,
  "status": {
    "confirmed": true,
    "block_height": 834638,
    "block_hash": "000000000000000000025f742c626208ac87e0b7d15054abb4a19ca2d735a54e",
    "block_time": 1710405325
  },
  "hex": "020000000001014fcda1f2e12d58cecca3fd516fb16648d45b5d745ac54440459a74882b4bb1530100000000fdffffff02280b0000000000002251203c0c8c9a74fb882bae96b27b2729eb8645bae1d0e1894a5fd3247575cea24671348f0d0000000000225120d0f2033f0cc7ea9a5f6c028982b0923d0cbe9738bf88a9d8391ed1bcedf4424a0140d627124516e01c689061521c64148815a7d65894c1f8fb0683e3cee9ea56401bbc6d7dc6dc525d1f79c506541c19d7cb025601d0eadad93da8741813ce1692ce00000000"
}