{
  "txid": "8759a2ec09c960f7cef83d72ccdcff7cc33007dbb0b694f50cdbeb611c04b3e0",
  "version": 2,
  "locktime": 0,
  "vin": [
    {
      "txid": "e5bb51f42a7ae17dcfe068249af13db4f6798921112c0fab48b4eacb213459ee",
      "vout": 0,
      "prevout": {
        "scriptpubkey": "00146a05818f832a304a3cc1a5e02a4a36ea5bf6e83a",
        "scriptpubkey_asm": "OP_0 OP_PUSHBYTES_20 6a05818f832a304a3cc1a5e02a4a36ea5bf6e83a",
        "scriptpubkey_type": "v0_p2wpkh",
        "scriptpubkey_address": "bc1qdgzcrrur9gcy50xp5hsz5j3kafdld6p6fhts2u",
        "value": 20000
      },
      "scriptsig": "",
      "scriptsig_asm": "",
      "witness": [
        "3044022063af32eebf5351d7cc7cd8de8917f2c1b038fb32c04ba05706bf7e04ee5bd62f022033673739e3232a54cf7df871f0560d628cea723704b53baceaf10add80624d3d01",
        "02cce35e9accd9a5a20c99ec0489ecd74754f58cb07c4a99abd7c238117251ce54"
      ],
      "is_coinbase": false,
      "sequence": 4294967295
    }
  ],
  "vout": [
    {
      "scriptpubkey": "0014161ee977b5df4c254fb63926a59c21d8997a1721",
      "scriptpubkey_asm": "OP_0 OP_PUSHBYTES_20 161ee977b5df4c254fb63926a59c21d8997a1721",
      "scriptpubkey_type": "v0_p2wpkh",
      "scriptpubkey_address": "bc1qzc0wjaa4maxz2nak8yn2t8ppmzvh59epp6333w",
      "value": 18768
    }
  ],
  "size": 191,
  "weight": 437,
  "fee": 1232,
  "status": {
    "confirmed": true,
    "block_height": 834460,
    "block_hash": "00000000000000000000484a79b643b2524bbce82e5d8a442013fa5b8905ed98",
    "block_time": 1710307468
  },
  "hex": "02000000000101ee593421cbeab448ab0f2c11218979f6b43df19a2468e0cf7de17a2af451bbe50000000000ffffffff015049000000000000160014161ee977b5df4c254fb63926a59c21d8997a172102473044022063af32eebf5351d7cc7cd8de8917f2c1b038fb32c04ba05706bf7e04ee5bd62f022033673739e3232a54cf7df871f0560d628cea723704b53baceaf10add80624d3d012102cce35e9accd9a5a20c99ec0489ecd74754f58cb07c4a99abd7c238117251ce5400000000"
}