{
  "txid": "8760a9a598d21752a31fa221ae9061439c16a2bc1ddceeb322f051d304672e9d",
  "version": 2,
  "locktime": 0,
  "vin": [
    {
      "txid": "acc3ba00869acb582a3f2904ce3a11dd3779350ce234063fc7d0959246213364",
      "vout": 165,
      "prevout": {
        "scriptpubkey": "512033fc564c8ff0f44c6ab053649364b624dfa8a953b91db8c9268937299776ac71",
        "scriptpubkey_asm": "OP_PUSHNUM_1 OP_PUSHBYTES_32 33fc564c8ff0f44c6ab053649364b624dfa8a953b91db8c9268937299776ac71",
        "scriptpubkey_type": "v1_p2tr",
        "scriptpubkey_address": "bc1px079vny07r6yc64s2djfxe9kyn06322nhywm3jfx3ymjn9mk43csg5zyjt",
        "value": 1806
      },
      "scriptsig": "",
      "scriptsig_asm": "",
      "witness": [
        "9373ea4ecf6d002dd6b9a53ed7c6551a66896fb2613d95db978cef43a180488113511455fa5130f65341291a7340d0e2aa0e20b5d0cd60828ff00a86511fffde",
        "20df134e8b3ae7974684062f1bdb360b1c5fbdfb29855051764159ecfc8c68867bac0063036f726401010a746578742f706c61696e00357b2270223a226272632d3230222c226f70223a226d696e74222c227469636b223a22646f6765222c22616d74223a2234323030227d68",
        "c0df134e8b3ae7974684062f1bdb360b1c5fbdfb29855051764159ecfc8c68867b"
      ],
      "is_coinbase": false,
      "sequence": 4261412863
    }
  ],
  "vout": [
    {
      "scriptpubkey": "00147a665de7a370f4c9b372ab1fae587500a5bcbdb4",
      "scriptpubkey_asm": "OP_0 OP_PUSHBYTES_20 7a665de7a370f4c9b372ab1fae587500a5bcbdb4",
      "scriptpubkey_type": "v0_p2wpkh",
      "scriptpubkey_address": "bc1q0fn9mearwr6vnvmj4v06ukr4qzjme0d565dzcx",
      "value": 294
    }
  ],
  "size": 294,
  "weight": 540,
  "fee": 1512,
  "status": {
    "confirmed": true,
    "block_height": 834460,
    "block_hash": "00000000000000000000484a79b643b2524bbce82e5d8a442013fa5b8905ed98",
    "block_time": 1710307468
  },
  "hex": "02000000000101643321469295d0c73f0634e20c357937dd113ace04293f2a58cb9a8600bac3aca500000000fffffffd0126010000000000001600147a665de7a370f4c9b372ab1fae587500a5bcbdb403409373ea4ecf6d002dd6b9a53ed7c6551a66896fb2613d95db978cef43a180488113511455fa5130f65341291a7340d0e2aa0e20b5d0cd60828ff00a86511fffde6d20df134e8b3ae7974684062f1bdb360b1c5fbdfb29855051764159ecfc8c68867bac0063036f726401010a746578742f706c61696e00357b2270223a226272632d3230222c226f70223a226d696e74222c227469636b223a22646f6765222c22616d74223a2234323030227d6821c0df134e8b3ae7974684062f1bdb360b1c5fbdfb29855051764159ecfc8c68867b00000000"
}