{
  "txid": "876d29c04c72a94d35f4d61ad94b2ed6d3b12df7020c271f261de4f924df509e",
  "version": 2,
  "locktime": 0,
  "vin": [
    {
      "txid": "acc3ba00869acb582a3f2904ce3a11dd3779350ce234063fc7d0959246213364",
      "vout": 258,
      "prevout": {
        "scriptpubkey": "512020c1d3353b508816d8b127040d1554a0e9edc587c4d506297885ac90a565bca2",
        "scriptpubkey_asm": "OP_PUSHNUM_1 OP_PUSHBYTES_32 20c1d3353b508816d8b127040d1554a0e9edc587c4d506297885ac90a565bca2",
        "scriptpubkey_type": "v1_p2tr",
        "scriptpubkey_address": "bc1pyrqaxdfm2zypdk93yuzq69255r57m3v8cn2sv2tcskkfpft9hj3q3alm07",
        "value": 1806
      },
      "scriptsig": "",
      "scriptsig_asm": "",
      "witness": [
        "b6c72569a5866bccf0e9713205fd9aa2eaaf2dc41b891599d16bb525ea642adde2864f92739727295f2b94cc78ad0f0b9ff62ae7aea7cca726bbaacc47e717ef",
        "202f74fe9fd535f45ea9fe513dbac773d3fe8f32dc2fb514e5300eb6f551ed0f2eac0063036f726401010a746578742f706c61696e00357b2270223a226272632d3230222c226f70223a226d696e74222c227469636b223a22646f6765222c22616d74223a2234323030227d68",
        "c02f74fe9fd535f45ea9fe513dbac773d3fe8f32dc2fb514e5300eb6f551ed0f2e"
      ],
      "is_coinbase": false,
      "sequence": 4261412863
    }
  ],
  "vout": [
    {
      "scriptpubkey": "00147a665de7a370f4c9b372ab1fae587500a5bcbdb4",
      "scriptpubkey_asm": "OP_0 OP_PUSHBYTES_20 7a665de7a370f4c9b372ab1fae587500a5bcbdb4",
      "scriptpubkey_type": "v0_p2wpkh",
      "scriptpubkey_address": "bc1q0fn9mearwr6vnvmj4v06ukr4qzjme0d565dzcx",
      "value": 294
    }
  ],
  "size": 294,
  "weight": 540,
  "fee": 1512,
  "status": {
    "confirmed": true,
    "block_height": 834460,
    "block_hash": "00000000000000000000484a79b643b2524bbce82e5d8a442013fa5b8905ed98",
    "block_time": 1710307468
  },
  "hex": "02000000000101643321469295d0c73f0634e20c357937dd113ace04293f2a58cb9a8600bac3ac0201000000fffffffd0126010000000000001600147a665de7a370f4c9b372ab1fae587500a5bcbdb40340b6c72569a5866bccf0e9713205fd9aa2eaaf2dc41b891599d16bb525ea642adde2864f92739727295f2b94cc78ad0f0b9ff62ae7aea7cca726bbaacc47e717ef6d202f74fe9fd535f45ea9fe513dbac773d3fe8f32dc2fb514e5300eb6f551ed0f2eac0063036f726401010a746578742f706c61696e00357b2270223a226272632d3230222c226f70223a226d696e74222c227469636b223a22646f6765222c22616d74223a2234323030227d6821c02f74fe9fd535f45ea9fe513dbac773d3fe8f32dc2fb514e5300eb6f551ed0f2e00000000"
}