{
  "txid": "8785d3c76a07ad5c69f9326806299ce1f919035aed99b47b332d5cccdd9d4ded",
  "version": 2,
  "locktime": 0,
  "vin": [
    {
      "txid": "3b2c413bb3a8ef0fb32d6ecd455d3a0c40381c2fc88def6a87a69f8ed259e04b",
      "vout": 0,
      "prevout": {
        "scriptpubkey": "5120efd419c4dd2b5ea32e4fea20c41c7d75bc4c6cc389a7316c5a868574da3ab6e6",
        "scriptpubkey_asm": "OP_PUSHNUM_1 OP_PUSHBYTES_32 efd419c4dd2b5ea32e4fea20c41c7d75bc4c6cc389a7316c5a868574da3ab6e6",
        "scriptpubkey_type": "v1_p2tr",
        "scriptpubkey_address": "bc1pal2pn3xa9d02xtj0agsvg8rawk7ycmxr3xnnzmz6s6zhfk36kmnq6fuph4",
        "value": 2826
      },
      "scriptsig": "",
      "scriptsig_asm": "",
      "witness": [
        "f6caa6611ed052d0b5434bc2e5ea18b10110fb2280e8ddc05e15cf8ccc41565108f88ba9098a44df3b0b35ee43869f949a7c8d0a517a7cfd14c98a6170fbd953",
        "209df88d902b09b40fe1351fcb5ea764a195e7eaa6761f94d682d960422772b726ac0063036f7264010118746578742f706c61696e3b636861727365743d7574662d38003a7b2270223a226272632d3230222c226f70223a227472616e73666572222c227469636b223a2252534b20222c22616d74223a223130303030227d68",
        "c09df88d902b09b40fe1351fcb5ea764a195e7eaa6761f94d682d960422772b726"
      ],
      "is_coinbase": false,
      "sequence": 4294967293
    }
  ],
  "vout": [
    {
      "scriptpubkey": "512061950f2a8e4f4c9a2805c8a0d0863939f0baaa3cf30f736d47f5bb09b8bd4b48",
      "scriptpubkey_asm": "OP_PUSHNUM_1 OP_PUSHBYTES_32 61950f2a8e4f4c9a2805c8a0d0863939f0baaa3cf30f736d47f5bb09b8bd4b48",
      "scriptpubkey_type": "v1_p2tr",
      "scriptpubkey_address": "bc1pvx2s725wfaxf52q9ezsdpp3e88ct423u7v8hxm287kasnw9afdyq37lecs",
      "value": 546
    }
  ],
  "size": 325,
  "weight": 607,
  "fee": 2280,
  "status": {
    "confirmed": true,
    "block_height": 834460,
    "block_hash": "00000000000000000000484a79b643b2524bbce82e5d8a442013fa5b8905ed98",
    "block_time": 1710307468
  },
  "hex": "020000000001014be059d28e9fa6876aef8dc82f1c38400c3a5d45cd6e2db30fefa8b33b412c3b0000000000fdffffff01220200000000000022512061950f2a8e4f4c9a2805c8a0d0863939f0baaa3cf30f736d47f5bb09b8bd4b480340f6caa6611ed052d0b5434bc2e5ea18b10110fb2280e8ddc05e15cf8ccc41565108f88ba9098a44df3b0b35ee43869f949a7c8d0a517a7cfd14c98a6170fbd95380209df88d902b09b40fe1351fcb5ea764a195e7eaa6761f94d682d960422772b726ac0063036f7264010118746578742f706c61696e3b636861727365743d7574662d38003a7b2270223a226272632d3230222c226f70223a227472616e73666572222c227469636b223a2252534b20222c22616d74223a223130303030227d6821c09df88d902b09b40fe1351fcb5ea764a195e7eaa6761f94d682d960422772b72600000000"
}