{
  "txid": "87899fc5a9cf3c7b43c23509f6aeae12fa32cb76cebe9e33d39505cd8608db26",
  "version": 1,
  "locktime": 0,
  "vin": [
    {
      "txid": "643505f4e4855ad48d2418b8bfb9855fff06545ecfd05fc2bdd9e7ed162549d6",
      "vout": 1,
      "prevout": {
        "scriptpubkey": "76a914c4d9e65fdad7060a453f8de84e11817c0cb2719b88ac",
        "scriptpubkey_asm": "OP_DUP OP_HASH160 OP_PUSHBYTES_20 c4d9e65fdad7060a453f8de84e11817c0cb2719b OP_EQUALVERIFY OP_CHECKSIG",
        "scriptpubkey_type": "p2pkh",
        "scriptpubkey_address": "1JwrUYrfAczHmDMVePpno2m7TsCRtFa8Ui",
        "value": 2752
      },
      "scriptsig": "473044022033bc0ad2e74b179372e9ed79c54518ed5d92711df68b093402bc4f895d74add10220627a34cff7930ac57b8fe408fc6c3262abbbf720a53b59cf0d753f2dc56abe91012103e078f25e9688f4317f16b0b517afbc9d581f4a21abecd5f465b6609bb89e5fbe",
      "scriptsig_asm": "OP_PUSHBYTES_71 3044022033bc0ad2e74b179372e9ed79c54518ed5d92711df68b093402bc4f895d74add10220627a34cff7930ac57b8fe408fc6c3262abbbf720a53b59cf0d753f2dc56abe9101 OP_PUSHBYTES_33 03e078f25e9688f4317f16b0b517afbc9d581f4a21abecd5f465b6609bb89e5fbe",
      "is_coinbase": false,
      "sequence": 4294967295
    },
    {
      "txid": "af7399230fcd8967526ec64313ac7cd1c9c20d32b302c26be3c7bc25ac36b162",
      "vout": 1,
      "prevout": {
        "scriptpubkey": "76a914d80aef8d18ab675c32d18165852d929b7646c88e88ac",
        "scriptpubkey_asm": "OP_DUP OP_HASH160 OP_PUSHBYTES_20 d80aef8d18ab675c32d18165852d929b7646c88e OP_EQUALVERIFY OP_CHECKSIG",
        "scriptpubkey_type": "p2pkh",
        "scriptpubkey_address": "1LhL4GLMHuabGQsdeCayZidafqFYzPGsk4",
        "value": 2849
      },
      "scriptsig": "483045022100a973d539df7aeeb8615030bbcc2b8c354ab7c1d6b434e35155938f81e5b35609022052332e1770a87a12cd1b017657b7e5f00b1c5f56512b6a3c7793e403353b136b01210393c51a336e12dab3f2aae4bc8702b78fce28f78aaaaa6b99441a78662219a64a",
      "scriptsig_asm": "OP_PUSHBYTES_72 3045022100a973d539df7aeeb8615030bbcc2b8c354ab7c1d6b434e35155938f81e5b35609022052332e1770a87a12cd1b017657b7e5f00b1c5f56512b6a3c7793e403353b136b01 OP_PUSHBYTES_33 0393c51a336e12dab3f2aae4bc8702b78fce28f78aaaaa6b99441a78662219a64a",
      "is_coinbase": false,
      "sequence": 4294967295
    },
    {
      "txid": "7f9bcea8202bc4172c58a205a702f0bd9c3f5f2f6cee5c201bb0cd68b0b93229",
      "vout": 158,
      "prevout": {
        "scriptpubkey": "76a914ee5fc16ebb597a7ec194f776f93bd7d7629f184688ac",
        "scriptpubkey_asm": "OP_DUP OP_HASH160 OP_PUSHBYTES_20 ee5fc16ebb597a7ec194f776f93bd7d7629f1846 OP_EQUALVERIFY OP_CHECKSIG",
        "scriptpubkey_type": "p2pkh",
        "scriptpubkey_address": "1NjQXsXKGqWMTKZAAdM9LJDk68BBHsGVah",
        "value": 214818
      },
      "scriptsig": "483045022100deeb97e28dea1932350ed76440b464dd59dc719213414d92fad1c553e16f6ef702204a49bf0f8fc2536419341fa2bdeb917d63fc85a2a1e521c35fc9697aa3632d3b01210330db6849bd03706cef70acc16d8cf0b801a93d1f7d937b5d31b5a72a5c115e77",
      "scriptsig_asm": "OP_PUSHBYTES_72 3045022100deeb97e28dea1932350ed76440b464dd59dc719213414d92fad1c553e16f6ef702204a49bf0f8fc2536419341fa2bdeb917d63fc85a2a1e521c35fc9697aa3632d3b01 OP_PUSHBYTES_33 0330db6849bd03706cef70acc16d8cf0b801a93d1f7d937b5d31b5a72a5c115e77",
      "is_coinbase": false,
      "sequence": 4294967295
    }
  ],
  "vout": [
    {
      "scriptpubkey": "001405d1bd751252c144efbf04cfba812ce3613c83f1",
      "scriptpubkey_asm": "OP_0 OP_PUSHBYTES_20 05d1bd751252c144efbf04cfba812ce3613c83f1",
      "scriptpubkey_type": "v0_p2wpkh",
      "scriptpubkey_address": "bc1qqhgm6agj2tq5fmalqn8m4qfvudsneql3l5gnr5",
      "value": 215160
    }
  ],
  "size": 484,
  "weight": 1936,
  "fee": 5259,
  "status": {
    "confirmed": true,
    "block_height": 834464,
    "block_hash": "0000000000000000000177a0869a911a2b65c9bdcd5a8bcb02b68f305bee848e",
    "block_time": 1710308296
  },
  "hex": "0100000003d6492516ede7d9bdc25fd0cf5e5406ff5f85b9bfb818248dd45a85e4f4053564010000006a473044022033bc0ad2e74b179372e9ed79c54518ed5d92711df68b093402bc4f895d74add10220627a34cff7930ac57b8fe408fc6c3262abbbf720a53b59cf0d753f2dc56abe91012103e078f25e9688f4317f16b0b517afbc9d581f4a21abecd5f465b6609bb89e5fbeffffffff62b136ac25bcc7e36bc202b3320dc2c9d17cac1343c66e526789cd0f239973af010000006b483045022100a973d539df7aeeb8615030bbcc2b8c354ab7c1d6b434e35155938f81e5b35609022052332e1770a87a12cd1b017657b7e5f00b1c5f56512b6a3c7793e403353b136b01210393c51a336e12dab3f2aae4bc8702b78fce28f78aaaaa6b99441a78662219a64affffffff2932b9b068cdb01b205cee6c2f5f3f9cbdf002a705a2582c17c42b20a8ce9b7f9e0000006b483045022100deeb97e28dea1932350ed76440b464dd59dc719213414d92fad1c553e16f6ef702204a49bf0f8fc2536419341fa2bdeb917d63fc85a2a1e521c35fc9697aa3632d3b01210330db6849bd03706cef70acc16d8cf0b801a93d1f7d937b5d31b5a72a5c115e77ffffffff01784803000000000016001405d1bd751252c144efbf04cfba812ce3613c83f100000000"
}