{
  "txid": "878e637261705bc7591c6aab1f8146879e79fa7b3e64ded2f0d9a804bb09cf7c",
  "version": 2,
  "locktime": 0,
  "vin": [
    {
      "txid": "635d7ceaa629060bc4a55fb8e1bc31d31f7b7b70e259ff2328ceb5dd37d055cf",
      "vout": 1,
      "prevout": {
        "scriptpubkey": "0014906bec4a6da4bc33cfb03b3473c97c0a8abd7804",
        "scriptpubkey_asm": "OP_0 OP_PUSHBYTES_20 906bec4a6da4bc33cfb03b3473c97c0a8abd7804",
        "scriptpubkey_type": "v0_p2wpkh",
        "scriptpubkey_address": "bc1qjp47cjnd5j7r8nas8v688jtup29t67qyqt6qxu",
        "value": 7582244
      },
      "scriptsig": "",
      "scriptsig_asm": "",
      "witness": [
        "30440220142fa9c225c79108ee0366db26e79a5e40873a4d0b1e878d2cb59b1b5e459b2a02207e01d0ffc243490e52f12119e361ddfcd1a4359dab7ea38702c82afd5980160301",
        "0347de421d1f5d1ec63029f041cfe3391f012810085dcb3ab820d85fd01c92ad2f"
      ],
      "is_coinbase": false,
      "sequence": 4294967295
    }
  ],
  "vout": [
    {
      "scriptpubkey": "a914b12bc4f2da5ee4862b19f7b684a97102c69524d787",
      "scriptpubkey_asm": "OP_HASH160 OP_PUSHBYTES_20 b12bc4f2da5ee4862b19f7b684a97102c69524d7 OP_EQUAL",
      "scriptpubkey_type": "p2sh",
      "scriptpubkey_address": "3HqoxeKAH3uuEQ4pe7z6kfLvChSXBXePnp",
      "value": 763840
    },
    {
      "scriptpubkey": "0014778cc7b214f022979367132e949e48600f508669",
      "scriptpubkey_asm": "OP_0 OP_PUSHBYTES_20 778cc7b214f022979367132e949e48600f508669",
      "scriptpubkey_type": "v0_p2wpkh",
      "scriptpubkey_address": "bc1qw7xv0vs57q3f0ym8zvhff8jgvq84ppnfd374vn",
      "value": 6814583
    }
  ],
  "size": 223,
  "weight": 565,
  "fee": 3821,
  "status": {
    "confirmed": true,
    "block_height": 834638,
    "block_hash": "000000000000000000025f742c626208ac87e0b7d15054abb4a19ca2d735a54e",
    "block_time": 1710405325
  },
  "hex": "02000000000101cf55d037ddb5ce2823ff59e2707b7b1fd331bce1b85fa5c40b0629a6ea7c5d630100000000ffffffff02c0a70b000000000017a914b12bc4f2da5ee4862b19f7b684a97102c69524d78777fb670000000000160014778cc7b214f022979367132e949e48600f508669024730440220142fa9c225c79108ee0366db26e79a5e40873a4d0b1e878d2cb59b1b5e459b2a02207e01d0ffc243490e52f12119e361ddfcd1a4359dab7ea38702c82afd5980160301210347de421d1f5d1ec63029f041cfe3391f012810085dcb3ab820d85fd01c92ad2f00000000"
}