{
  "txid": "87933d47a46febdba269c16b780cd882d28f5ee3a26d702a1e3070de7baf623b",
  "version": 2,
  "locktime": 0,
  "vin": [
    {
      "txid": "acc3ba00869acb582a3f2904ce3a11dd3779350ce234063fc7d0959246213364",
      "vout": 290,
      "prevout": {
        "scriptpubkey": "5120cb912989d274d1b792eb83daec842af163171e409bf4fbbf9a75d44976d06249",
        "scriptpubkey_asm": "OP_PUSHNUM_1 OP_PUSHBYTES_32 cb912989d274d1b792eb83daec842af163171e409bf4fbbf9a75d44976d06249",
        "scriptpubkey_type": "v1_p2tr",
        "scriptpubkey_address": "bc1pewgjnzwjwngm0yhts0dwepp27933w8jqn060h0u6wh2yjaksvfysd2wn9a",
        "value": 1806
      },
      "scriptsig": "",
      "scriptsig_asm": "",
      "witness": [
        "79ad750d240205c22592d0292d7689756c9e5076220ff80061a17881a529da278b5ca7f0e781a80830b7ca9c6de830131882fc18e7145f9ad0645a2bffc041a6",
        "20545a769eabf9764170536c9ba0b1b86ae0c2dcd47b209e372c6933959dbd55e2ac0063036f726401010a746578742f706c61696e00357b2270223a226272632d3230222c226f70223a226d696e74222c227469636b223a22646f6765222c22616d74223a2234323030227d68",
        "c1545a769eabf9764170536c9ba0b1b86ae0c2dcd47b209e372c6933959dbd55e2"
      ],
      "is_coinbase": false,
      "sequence": 4261412863
    }
  ],
  "vout": [
    {
      "scriptpubkey": "00147a665de7a370f4c9b372ab1fae587500a5bcbdb4",
      "scriptpubkey_asm": "OP_0 OP_PUSHBYTES_20 7a665de7a370f4c9b372ab1fae587500a5bcbdb4",
      "scriptpubkey_type": "v0_p2wpkh",
      "scriptpubkey_address": "bc1q0fn9mearwr6vnvmj4v06ukr4qzjme0d565dzcx",
      "value": 294
    }
  ],
  "size": 294,
  "weight": 540,
  "fee": 1512,
  "status": {
    "confirmed": true,
    "block_height": 834460,
    "block_hash": "00000000000000000000484a79b643b2524bbce82e5d8a442013fa5b8905ed98",
    "block_time": 1710307468
  },
  "hex": "02000000000101643321469295d0c73f0634e20c357937dd113ace04293f2a58cb9a8600bac3ac2201000000fffffffd0126010000000000001600147a665de7a370f4c9b372ab1fae587500a5bcbdb4034079ad750d240205c22592d0292d7689756c9e5076220ff80061a17881a529da278b5ca7f0e781a80830b7ca9c6de830131882fc18e7145f9ad0645a2bffc041a66d20545a769eabf9764170536c9ba0b1b86ae0c2dcd47b209e372c6933959dbd55e2ac0063036f726401010a746578742f706c61696e00357b2270223a226272632d3230222c226f70223a226d696e74222c227469636b223a22646f6765222c22616d74223a2234323030227d6821c1545a769eabf9764170536c9ba0b1b86ae0c2dcd47b209e372c6933959dbd55e200000000"
}