{
  "txid": "87a018d99d9c8f83fdb33c408a5d68c532eb9c550878994942cd11a885f6b636",
  "version": 1,
  "locktime": 0,
  "vin": [
    {
      "txid": "b1bc319892b5a8c59c15d1850f422f8a777bbaa2321762d45ddad7c405eb9cd9",
      "vout": 1,
      "prevout": {
        "scriptpubkey": "00207250d91085a77a4568fa4cfd5bebb59f0b9cb3530f8154cd4fab6d28abd548fe",
        "scriptpubkey_asm": "OP_0 OP_PUSHBYTES_32 7250d91085a77a4568fa4cfd5bebb59f0b9cb3530f8154cd4fab6d28abd548fe",
        "scriptpubkey_type": "v0_p2wsh",
        "scriptpubkey_address": "bc1qwfgdjyy95aay2686fn74h6a4nu9eev6np7q4fn204dkj3274frlqrskvx0",
        "value": 173063151
      },
      "scriptsig": "",
      "scriptsig_asm": "",
      "witness": [
        "",
        "3045022100db31bba3133ecba2d53eb024d99980189e9560cbd6a29fcf624596df5077538602200fd469ab237b37963f45926e03b64d4ce8272e3128535a80a955e3383736174901",
        "3044022062be2adff62fd035257dc59589f6c8ed07eb1e89a2d6251247f75e3d9e1ab2e202205d87b5ea758bf8cb12d234ea73e6656318c3ae3382b47f03d7cc57d5751bee5701",
        "5221030fac04165b606dea3b8f81ada5eb66ca181d5215c873fcf46623ea7cf8e98b1b2102b7836a2a9d3ff095415383cb23a5f4f1badd75e44adb17537962eafe3ded3b602102f8cb472df1ae03cfa6b65b013add7862c7d3ac3684a8a92a44192faace228aee53ae"
      ],
      "is_coinbase": false,
      "sequence": 4294967295,
      "inner_witnessscript_asm": "OP_PUSHNUM_2 OP_PUSHBYTES_33 030fac04165b606dea3b8f81ada5eb66ca181d5215c873fcf46623ea7cf8e98b1b OP_PUSHBYTES_33 02b7836a2a9d3ff095415383cb23a5f4f1badd75e44adb17537962eafe3ded3b60 OP_PUSHBYTES_33 02f8cb472df1ae03cfa6b65b013add7862c7d3ac3684a8a92a44192faace228aee OP_PUSHNUM_3 OP_CHECKMULTISIG"
    }
  ],
  "vout": [
    {
      "scriptpubkey": "001473a129bf2c40dbd850f75e74cb6f819c5211918b",
      "scriptpubkey_asm": "OP_0 OP_PUSHBYTES_20 73a129bf2c40dbd850f75e74cb6f819c5211918b",
      "scriptpubkey_type": "v0_p2wpkh",
      "scriptpubkey_address": "bc1qwwsjn0evgrdas58hte6vkmupn3fpryvtrt2xe6",
      "value": 74779
    },
    {
      "scriptpubkey": "00207250d91085a77a4568fa4cfd5bebb59f0b9cb3530f8154cd4fab6d28abd548fe",
      "scriptpubkey_asm": "OP_0 OP_PUSHBYTES_32 7250d91085a77a4568fa4cfd5bebb59f0b9cb3530f8154cd4fab6d28abd548fe",
      "scriptpubkey_type": "v0_p2wsh",
      "scriptpubkey_address": "bc1qwfgdjyy95aay2686fn74h6a4nu9eev6np7q4fn204dkj3274frlqrskvx0",
      "value": 172984612
    }
  ],
  "size": 380,
  "weight": 755,
  "fee": 3760,
  "status": {
    "confirmed": true,
    "block_height": 834638,
    "block_hash": "000000000000000000025f742c626208ac87e0b7d15054abb4a19ca2d735a54e",
    "block_time": 1710405325
  },
  "hex": "01000000000101d99ceb05c4d7da5dd4621732a2ba7b778a2f420f85d1159cc5a8b5929831bcb10100000000ffffffff021b2401000000000016001473a129bf2c40dbd850f75e74cb6f819c5211918b24894f0a000000002200207250d91085a77a4568fa4cfd5bebb59f0b9cb3530f8154cd4fab6d28abd548fe0400483045022100db31bba3133ecba2d53eb024d99980189e9560cbd6a29fcf624596df5077538602200fd469ab237b37963f45926e03b64d4ce8272e3128535a80a955e3383736174901473044022062be2adff62fd035257dc59589f6c8ed07eb1e89a2d6251247f75e3d9e1ab2e202205d87b5ea758bf8cb12d234ea73e6656318c3ae3382b47f03d7cc57d5751bee5701695221030fac04165b606dea3b8f81ada5eb66ca181d5215c873fcf46623ea7cf8e98b1b2102b7836a2a9d3ff095415383cb23a5f4f1badd75e44adb17537962eafe3ded3b602102f8cb472df1ae03cfa6b65b013add7862c7d3ac3684a8a92a44192faace228aee53ae00000000"
}