{
  "txid": "87a2c54dc30a58883b1527e035ca6d366331fa98fdbbb4837ea8f0cc79d741e8",
  "version": 1,
  "locktime": 0,
  "vin": [
    {
      "txid": "7c5c228d8be15a445d3cb4a8887c006df40049d1bd504791ec006c2ae75ca86d",
      "vout": 1,
      "prevout": {
        "scriptpubkey": "001418544f6b3e0ce5e266fe95506c4d9f408d65228c",
        "scriptpubkey_asm": "OP_0 OP_PUSHBYTES_20 18544f6b3e0ce5e266fe95506c4d9f408d65228c",
        "scriptpubkey_type": "v0_p2wpkh",
        "scriptpubkey_address": "bc1qrp2y76e7pnj7yeh7j4gxcnvlgzxk2g5var0dh3",
        "value": 415074
      },
      "scriptsig": "",
      "scriptsig_asm": "",
      "witness": [
        "304402204be496059452c2d2c39c12f25f9ce76f9e98bba9a28659ac32ab62b3b1c9d58702200f25e9038aad5e11769a5ec3a5a3f7604b498cd6333fcc15746390645fd00cbb01",
        "03a48b2d99cc5f4d5a3617f13b7f6335e5ca767f337c2a1ebb7f3e0a94aa425c9b"
      ],
      "is_coinbase": false,
      "sequence": 4294967295
    }
  ],
  "vout": [
    {
      "scriptpubkey": "76a91439fea5b7a16c0261720e1dabec66f8b022de3d4488ac",
      "scriptpubkey_asm": "OP_DUP OP_HASH160 OP_PUSHBYTES_20 39fea5b7a16c0261720e1dabec66f8b022de3d44 OP_EQUALVERIFY OP_CHECKSIG",
      "scriptpubkey_type": "p2pkh",
      "scriptpubkey_address": "16Hea9C6ZuY52G9nJNgQVcGNYBH8iURrww",
      "value": 204245
    },
    {
      "scriptpubkey": "001418544f6b3e0ce5e266fe95506c4d9f408d65228c",
      "scriptpubkey_asm": "OP_0 OP_PUSHBYTES_20 18544f6b3e0ce5e266fe95506c4d9f408d65228c",
      "scriptpubkey_type": "v0_p2wpkh",
      "scriptpubkey_address": "bc1qrp2y76e7pnj7yeh7j4gxcnvlgzxk2g5var0dh3",
      "value": 206941
    }
  ],
  "size": 225,
  "weight": 573,
  "fee": 3888,
  "status": {
    "confirmed": true,
    "block_height": 834638,
    "block_hash": "000000000000000000025f742c626208ac87e0b7d15054abb4a19ca2d735a54e",
    "block_time": 1710405325
  },
  "hex": "010000000001016da85ce72a6c00ec914750bdd14900f46d007c88a8b43c5d445ae18b8d225c7c0100000000ffffffff02d51d0300000000001976a91439fea5b7a16c0261720e1dabec66f8b022de3d4488ac5d2803000000000016001418544f6b3e0ce5e266fe95506c4d9f408d65228c0247304402204be496059452c2d2c39c12f25f9ce76f9e98bba9a28659ac32ab62b3b1c9d58702200f25e9038aad5e11769a5ec3a5a3f7604b498cd6333fcc15746390645fd00cbb012103a48b2d99cc5f4d5a3617f13b7f6335e5ca767f337c2a1ebb7f3e0a94aa425c9b00000000"
}