{
  "txid": "87a36f7e534fd45b9ddaacc09ed6353d1b3cae443dec0d72ee0fa8b8c49fddac",
  "version": 2,
  "locktime": 0,
  "vin": [
    {
      "txid": "6d2eb1a70202006909ecceb3f85587dbc9083b34838fa98a7a99c03124fef700",
      "vout": 0,
      "prevout": {
        "scriptpubkey": "5120ad2f454063c07edc0f20890ac09e93c284f3adf33ab068d2de3fb64d82478d37",
        "scriptpubkey_asm": "OP_PUSHNUM_1 OP_PUSHBYTES_32 ad2f454063c07edc0f20890ac09e93c284f3adf33ab068d2de3fb64d82478d37",
        "scriptpubkey_type": "v1_p2tr",
        "scriptpubkey_address": "bc1p45h52srrcpldcreq3y9vp85nc2z08t0n82cx35k787mymqj835mskywupp",
        "value": 546
      },
      "scriptsig": "",
      "scriptsig_asm": "",
      "witness": [
        "ccde1cb95cf98acbd6dc10852db669d6083475b29bda3c41c98999546667869a2df5110e4966d19dea1b63cd581bc05a41f115b62fa6f8fcfe43b75e2a48158f"
      ],
      "is_coinbase": false,
      "sequence": 2147483649
    },
    {
      "txid": "27734926f939a79eac3ff01c06e5346ba382875c68404c536441d13fbc507d24",
      "vout": 50,
      "prevout": {
        "scriptpubkey": "5120ad2f454063c07edc0f20890ac09e93c284f3adf33ab068d2de3fb64d82478d37",
        "scriptpubkey_asm": "OP_PUSHNUM_1 OP_PUSHBYTES_32 ad2f454063c07edc0f20890ac09e93c284f3adf33ab068d2de3fb64d82478d37",
        "scriptpubkey_type": "v1_p2tr",
        "scriptpubkey_address": "bc1p45h52srrcpldcreq3y9vp85nc2z08t0n82cx35k787mymqj835mskywupp",
        "value": 195063
      },
      "scriptsig": "",
      "scriptsig_asm": "",
      "witness": [
        "f73b6a79cd173f5df407846b0f0ec770116e47e92a5424ac54cc2001c875e8a28c8d5ee6cee12d9c17e51c9d4be3624a54b3a3888166281fed724f7c72351ff2"
      ],
      "is_coinbase": false,
      "sequence": 2147483649
    }
  ],
  "vout": [
    {
      "scriptpubkey": "00145b33ea3d7db6a6ed62a3bd168541858909c6b543",
      "scriptpubkey_asm": "OP_0 OP_PUSHBYTES_20 5b33ea3d7db6a6ed62a3bd168541858909c6b543",
      "scriptpubkey_type": "v0_p2wpkh",
      "scriptpubkey_address": "bc1qtve750tak6nw6c4rh5tg2sv93yyudd2rcrg3kx",
      "value": 546
    },
    {
      "scriptpubkey": "5120ad2f454063c07edc0f20890ac09e93c284f3adf33ab068d2de3fb64d82478d37",
      "scriptpubkey_asm": "OP_PUSHNUM_1 OP_PUSHBYTES_32 ad2f454063c07edc0f20890ac09e93c284f3adf33ab068d2de3fb64d82478d37",
      "scriptpubkey_type": "v1_p2tr",
      "scriptpubkey_address": "bc1p45h52srrcpldcreq3y9vp85nc2z08t0n82cx35k787mymqj835mskywupp",
      "value": 192078
    }
  ],
  "size": 300,
  "weight": 798,
  "fee": 2985,
  "status": {
    "confirmed": true,
    "block_height": 834460,
    "block_hash": "00000000000000000000484a79b643b2524bbce82e5d8a442013fa5b8905ed98",
    "block_time": 1710307468
  },
  "hex": "0200000000010200f7fe2431c0997a8aa98f83343b08c9db8755f8b3ceec0969000202a7b12e6d000000000001000080247d50bc3fd14164534c40685c8782a36b34e5061cf03fac9ea739f9264973273200000000010000800222020000000000001600145b33ea3d7db6a6ed62a3bd168541858909c6b5434eee020000000000225120ad2f454063c07edc0f20890ac09e93c284f3adf33ab068d2de3fb64d82478d370140ccde1cb95cf98acbd6dc10852db669d6083475b29bda3c41c98999546667869a2df5110e4966d19dea1b63cd581bc05a41f115b62fa6f8fcfe43b75e2a48158f0140f73b6a79cd173f5df407846b0f0ec770116e47e92a5424ac54cc2001c875e8a28c8d5ee6cee12d9c17e51c9d4be3624a54b3a3888166281fed724f7c72351ff200000000"
}