{
  "txid": "87a36b486397703f39846e521f2e1a54879a8b13d7cd70d4f8b416da6da2e500",
  "version": 2,
  "locktime": 0,
  "vin": [
    {
      "txid": "000000e84e8370a484207cb225994339ceaed3914091d1246db40c982199ee72",
      "vout": 1,
      "prevout": {
        "scriptpubkey": "512027b71e916d29e7d00e2fe8df58d72472b6d70ca07748706865510c818c5a10d8",
        "scriptpubkey_asm": "OP_PUSHNUM_1 OP_PUSHBYTES_32 27b71e916d29e7d00e2fe8df58d72472b6d70ca07748706865510c818c5a10d8",
        "scriptpubkey_type": "v1_p2tr",
        "scriptpubkey_address": "bc1py7m3aytd98naqr30ar0434eyw2mdwr9qway8q6r92yxgrrz6zrvqu605pn",
        "value": 232686
      },
      "scriptsig": "",
      "scriptsig_asm": "",
      "witness": [
        "8a4f52c809f72327f1f556f765917bf66b98d6daf82a99a96a0515d34dc14eb278799dc3ec50c41d69afa1734b4881d0f21f725cd530dbd787f711eeca41ec52"
      ],
      "is_coinbase": false,
      "sequence": 4294967295
    },
    {
      "txid": "00000064f88c7db03f55059bd4981d600301b4424441b3691cdab6b8bd50cddb",
      "vout": 1,
      "prevout": {
        "scriptpubkey": "512027b71e916d29e7d00e2fe8df58d72472b6d70ca07748706865510c818c5a10d8",
        "scriptpubkey_asm": "OP_PUSHNUM_1 OP_PUSHBYTES_32 27b71e916d29e7d00e2fe8df58d72472b6d70ca07748706865510c818c5a10d8",
        "scriptpubkey_type": "v1_p2tr",
        "scriptpubkey_address": "bc1py7m3aytd98naqr30ar0434eyw2mdwr9qway8q6r92yxgrrz6zrvqu605pn",
        "value": 181291
      },
      "scriptsig": "",
      "scriptsig_asm": "",
      "witness": [
        "26459f2dcbd05feac6ace3bb176ef3f626722a94a4dbfad959cd3959f77ef91cffd50ed60ff7558ea8b42027cbd5e89680d909e54ae437fb22d4a5ae2fca4ace"
      ],
      "is_coinbase": false,
      "sequence": 4294967295
    }
  ],
  "vout": [
    {
      "scriptpubkey": "5120eef6334871b0181997441c9a3ef2fa6e4cc2e47ed29dbce21c2a0b27cc3a40f4",
      "scriptpubkey_asm": "OP_PUSHNUM_1 OP_PUSHBYTES_32 eef6334871b0181997441c9a3ef2fa6e4cc2e47ed29dbce21c2a0b27cc3a40f4",
      "scriptpubkey_type": "v1_p2tr",
      "scriptpubkey_address": "bc1pammrxjr3kqvpn96yrjdrauh6dexv9er762wmecsu9g9j0np6gr6q6cpcwe",
      "value": 411087
    }
  ],
  "size": 269,
  "weight": 674,
  "fee": 2890,
  "status": {
    "confirmed": true,
    "block_height": 834638,
    "block_hash": "000000000000000000025f742c626208ac87e0b7d15054abb4a19ca2d735a54e",
    "block_time": 1710405325
  },
  "hex": "0200000000010272ee9921980cb46d24d1914091d3aece39439925b27c2084a470834ee80000000100000000ffffffffdbcd50bdb8b6da1c69b3414442b40103601d98d49b05553fb07d8cf8640000000100000000ffffffff01cf45060000000000225120eef6334871b0181997441c9a3ef2fa6e4cc2e47ed29dbce21c2a0b27cc3a40f401408a4f52c809f72327f1f556f765917bf66b98d6daf82a99a96a0515d34dc14eb278799dc3ec50c41d69afa1734b4881d0f21f725cd530dbd787f711eeca41ec52014026459f2dcbd05feac6ace3bb176ef3f626722a94a4dbfad959cd3959f77ef91cffd50ed60ff7558ea8b42027cbd5e89680d909e54ae437fb22d4a5ae2fca4ace00000000"
}