{
  "txid": "87b443922d7d60bb7f0253071619d1e31912c44aa70f50875e962484b33c55ba",
  "version": 1,
  "locktime": 0,
  "vin": [
    {
      "txid": "b238c17e12849a8db971c5a5959246c07299ee743a90ab337700d47f3eff7187",
      "vout": 1,
      "prevout": {
        "scriptpubkey": "00142e0cba3ee94f95fc57a95cb0910fae1505f415cc",
        "scriptpubkey_asm": "OP_0 OP_PUSHBYTES_20 2e0cba3ee94f95fc57a95cb0910fae1505f415cc",
        "scriptpubkey_type": "v0_p2wpkh",
        "scriptpubkey_address": "bc1q9cxt50hff72lc4aftjcfzrawz5zlg9wv5pc838",
        "value": 32009
      },
      "scriptsig": "",
      "scriptsig_asm": "",
      "witness": [
        "30440220398ecfed152c20dfdf00faf56918e8248174d39a6de0f1212fe3254381cd44a00220379379026eaefa106964f203ba839d1818cb7df4c5b9fe68725135d9df3f7c5f01",
        "022d0d487b53b061204241ad4b83357fc84545826b1c9d0667b0d602d4d8107e8c"
      ],
      "is_coinbase": false,
      "sequence": 4294967295
    },
    {
      "txid": "c8ecc3800fbdc667bde41564bb27adf9de192dd938a527bc16694a105e240b5e",
      "vout": 1,
      "prevout": {
        "scriptpubkey": "0014e8b44b0529e3c2a2cabae95210c6d91c1dbfcc50",
        "scriptpubkey_asm": "OP_0 OP_PUSHBYTES_20 e8b44b0529e3c2a2cabae95210c6d91c1dbfcc50",
        "scriptpubkey_type": "v0_p2wpkh",
        "scriptpubkey_address": "bc1qaz6ykpffu0p29j46a9fpp3kerswmlnzs8jdc8d",
        "value": 587810
      },
      "scriptsig": "",
      "scriptsig_asm": "",
      "witness": [
        "3045022100b35f7e6c87a872958fee81642b4b9c46a9011a886cb7279ee6d5f36dabc2bcea02205155b3b49e0a695b28eb6947f7ac7c6510e531b7ae1191021ad1ad903a67ec8901",
        "03c96484ac83af89849f746a8505633b1df935fbf229c9eaca9ad1832e42ae8f41"
      ],
      "is_coinbase": false,
      "sequence": 4294967295
    }
  ],
  "vout": [
    {
      "scriptpubkey": "76a914641c8b1d74a53dc9415821e37a366cbb61c3a76a88ac",
      "scriptpubkey_asm": "OP_DUP OP_HASH160 OP_PUSHBYTES_20 641c8b1d74a53dc9415821e37a366cbb61c3a76a OP_EQUALVERIFY OP_CHECKSIG",
      "scriptpubkey_type": "p2pkh",
      "scriptpubkey_address": "1A8LmR3QNNdPB23HSfHoTzXEwYoL9vhdwc",
      "value": 559782
    },
    {
      "scriptpubkey": "0014cd79f57026a345455cc97875a620d1c5bc93a906",
      "scriptpubkey_asm": "OP_0 OP_PUSHBYTES_20 cd79f57026a345455cc97875a620d1c5bc93a906",
      "scriptpubkey_type": "v0_p2wpkh",
      "scriptpubkey_address": "bc1qe4ul2upx5dz52hxf0p66vgx3ck7f82gx80ak6w",
      "value": 54563
    }
  ],
  "size": 374,
  "weight": 845,
  "fee": 5474,
  "status": {
    "confirmed": true,
    "block_height": 834638,
    "block_hash": "000000000000000000025f742c626208ac87e0b7d15054abb4a19ca2d735a54e",
    "block_time": 1710405325
  },
  "hex": "010000000001028771ff3e7fd4007733ab903a74ee9972c0469295a5c571b98d9a84127ec138b20100000000ffffffff5e0b245e104a6916bc27a538d92d19def9ad27bb6415e4bd67c6bd0f80c3ecc80100000000ffffffff02a68a0800000000001976a914641c8b1d74a53dc9415821e37a366cbb61c3a76a88ac23d5000000000000160014cd79f57026a345455cc97875a620d1c5bc93a906024730440220398ecfed152c20dfdf00faf56918e8248174d39a6de0f1212fe3254381cd44a00220379379026eaefa106964f203ba839d1818cb7df4c5b9fe68725135d9df3f7c5f0121022d0d487b53b061204241ad4b83357fc84545826b1c9d0667b0d602d4d8107e8c02483045022100b35f7e6c87a872958fee81642b4b9c46a9011a886cb7279ee6d5f36dabc2bcea02205155b3b49e0a695b28eb6947f7ac7c6510e531b7ae1191021ad1ad903a67ec89012103c96484ac83af89849f746a8505633b1df935fbf229c9eaca9ad1832e42ae8f4100000000"
}