{
  "txid": "87b605a0130a50d51332c5a74b6277ee3e8c85828498fef4ba3337cc83690d5f",
  "version": 2,
  "locktime": 834458,
  "vin": [
    {
      "txid": "75e5bb43b09ff16d8353a4018c4484d1cea1f965287460112d645aea4337b083",
      "vout": 1,
      "prevout": {
        "scriptpubkey": "76a9145ff909d8ef43d6b53c83863b676b3caf1c7b045288ac",
        "scriptpubkey_asm": "OP_DUP OP_HASH160 OP_PUSHBYTES_20 5ff909d8ef43d6b53c83863b676b3caf1c7b0452 OP_EQUALVERIFY OP_CHECKSIG",
        "scriptpubkey_type": "p2pkh",
        "scriptpubkey_address": "19kTXikhXhDqRj9CKKMZibLQLGUAreFeNX",
        "value": 71767100
      },
      "scriptsig": "473044022011ae23a0e4ce4f28c8f0a01d7094791000f6cf71035d282c70e22ca058ef1f74022018ad52a56cef0886d8407340de1247c081063ee28dd02b7174449b0600ab54a2014104736ec1bf1502f32113084f285fcdddf559e0abb8a5025cfcf2256388dd581dff58822a5154d4f8b34198f721a696e3f1f63992a0662ac563e78dd1d36309982e",
      "scriptsig_asm": "OP_PUSHBYTES_71 3044022011ae23a0e4ce4f28c8f0a01d7094791000f6cf71035d282c70e22ca058ef1f74022018ad52a56cef0886d8407340de1247c081063ee28dd02b7174449b0600ab54a201 OP_PUSHBYTES_65 04736ec1bf1502f32113084f285fcdddf559e0abb8a5025cfcf2256388dd581dff58822a5154d4f8b34198f721a696e3f1f63992a0662ac563e78dd1d36309982e",
      "is_coinbase": false,
      "sequence": 4294967293
    },
    {
      "txid": "8b7d7f06f9ba89e8cb5c365f9678132203f6135df2b9b1e3ea532cb0f8e2745c",
      "vout": 1,
      "prevout": {
        "scriptpubkey": "76a914c9c3f48ad9d85a961c8273270f58dc100f567cab88ac",
        "scriptpubkey_asm": "OP_DUP OP_HASH160 OP_PUSHBYTES_20 c9c3f48ad9d85a961c8273270f58dc100f567cab OP_EQUALVERIFY OP_CHECKSIG",
        "scriptpubkey_type": "p2pkh",
        "scriptpubkey_address": "1KPqZmUydZzoMdKG2fgrTB9MyzyYobWxET",
        "value": 26219000
      },
      "scriptsig": "4730440220178e6054ca3d0d8545bc9754d644cd681a327210233ee530aeabf7a935238d0e022024bc00e72796a720272f21e3a42944f71e82b93061c10d8970baa1a62cb31a1d014104b6093ff9cfe67910f6580bafeefcf893096f4d9e3ffc0b05d62482803a0756d69818591441a5843a2eaafc387113464b0e45c89f722027159d45f7246b98704e",
      "scriptsig_asm": "OP_PUSHBYTES_71 30440220178e6054ca3d0d8545bc9754d644cd681a327210233ee530aeabf7a935238d0e022024bc00e72796a720272f21e3a42944f71e82b93061c10d8970baa1a62cb31a1d01 OP_PUSHBYTES_65 04b6093ff9cfe67910f6580bafeefcf893096f4d9e3ffc0b05d62482803a0756d69818591441a5843a2eaafc387113464b0e45c89f722027159d45f7246b98704e",
      "is_coinbase": false,
      "sequence": 4294967293
    },
    {
      "txid": "a71de85814ea8dbd0ee83a7e6d8790c8b37bf6601586c63b77420df763933d52",
      "vout": 1,
      "prevout": {
        "scriptpubkey": "76a914dea9ff4ae5a14df2e4213890576b73ae9071c81d88ac",
        "scriptpubkey_asm": "OP_DUP OP_HASH160 OP_PUSHBYTES_20 dea9ff4ae5a14df2e4213890576b73ae9071c81d OP_EQUALVERIFY OP_CHECKSIG",
        "scriptpubkey_type": "p2pkh",
        "scriptpubkey_address": "1MJLfCgb12D1cuR4gaMmdiJjVtMhZJdcHY",
        "value": 349927500
      },
      "scriptsig": "47304402205bcdd060feb86695c08b532423be79bf08faab4d882b275e38ec60b85a4efadc022024bd24e200fffbc86fe68bb818aed2247a20eb8b7d78b9300de8f05b62de0d12014104ddd917d5fb0e624d33b517467cbb2013b2a4739f8cfcb5e2ba4d7d3c9a7883e7688f2dd667b6b5d1ae94f7039a8e826576853d29218d840bf0ae43b4eeded58f",
      "scriptsig_asm": "OP_PUSHBYTES_71 304402205bcdd060feb86695c08b532423be79bf08faab4d882b275e38ec60b85a4efadc022024bd24e200fffbc86fe68bb818aed2247a20eb8b7d78b9300de8f05b62de0d1201 OP_PUSHBYTES_65 04ddd917d5fb0e624d33b517467cbb2013b2a4739f8cfcb5e2ba4d7d3c9a7883e7688f2dd667b6b5d1ae94f7039a8e826576853d29218d840bf0ae43b4eeded58f",
      "is_coinbase": false,
      "sequence": 4294967293
    }
  ],
  "vout": [
    {
      "scriptpubkey": "0014d32eaffbc6e22e310761f79bf410fb16af10725a",
      "scriptpubkey_asm": "OP_0 OP_PUSHBYTES_20 d32eaffbc6e22e310761f79bf410fb16af10725a",
      "scriptpubkey_type": "v0_p2wpkh",
      "scriptpubkey_address": "bc1q6vh2l77xughrzpmp77dlgy8mz6h3quj6xthtn7",
      "value": 447906628
    }
  ],
  "size": 578,
  "weight": 2312,
  "fee": 6972,
  "status": {
    "confirmed": true,
    "block_height": 834460,
    "block_hash": "00000000000000000000484a79b643b2524bbce82e5d8a442013fa5b8905ed98",
    "block_time": 1710307468
  },
  "hex": "020000000383b03743ea5a642d1160742865f9a1ced184448c01a453836df19fb043bbe575010000008a473044022011ae23a0e4ce4f28c8f0a01d7094791000f6cf71035d282c70e22ca058ef1f74022018ad52a56cef0886d8407340de1247c081063ee28dd02b7174449b0600ab54a2014104736ec1bf1502f32113084f285fcdddf559e0abb8a5025cfcf2256388dd581dff58822a5154d4f8b34198f721a696e3f1f63992a0662ac563e78dd1d36309982efdffffff5c74e2f8b02c53eae3b1b9f25d13f603221378965f365ccbe889baf9067f7d8b010000008a4730440220178e6054ca3d0d8545bc9754d644cd681a327210233ee530aeabf7a935238d0e022024bc00e72796a720272f21e3a42944f71e82b93061c10d8970baa1a62cb31a1d014104b6093ff9cfe67910f6580bafeefcf893096f4d9e3ffc0b05d62482803a0756d69818591441a5843a2eaafc387113464b0e45c89f722027159d45f7246b98704efdffffff523d9363f70d42773bc6861560f67bb3c890876d7e3ae80ebd8dea1458e81da7010000008a47304402205bcdd060feb86695c08b532423be79bf08faab4d882b275e38ec60b85a4efadc022024bd24e200fffbc86fe68bb818aed2247a20eb8b7d78b9300de8f05b62de0d12014104ddd917d5fb0e624d33b517467cbb2013b2a4739f8cfcb5e2ba4d7d3c9a7883e7688f2dd667b6b5d1ae94f7039a8e826576853d29218d840bf0ae43b4eeded58ffdffffff014483b21a00000000160014d32eaffbc6e22e310761f79bf410fb16af10725a9abb0c00"
}