{
  "txid": "87d98b40b83042fec970e989f97adfb05a59f680815a3675db5232351bc1ee22",
  "version": 2,
  "locktime": 0,
  "vin": [
    {
      "txid": "79a2f0cd87342272b9543b694a521dee549d6a796569adc800973d36ca35d85b",
      "vout": 5,
      "prevout": {
        "scriptpubkey": "51207bf905c9d2ef2bae70fc455ed7c3c9c61f310ee5135802805e6256ecec191751",
        "scriptpubkey_asm": "OP_PUSHNUM_1 OP_PUSHBYTES_32 7bf905c9d2ef2bae70fc455ed7c3c9c61f310ee5135802805e6256ecec191751",
        "scriptpubkey_type": "v1_p2tr",
        "scriptpubkey_address": "bc1p00ustjwjau46uu8ug40d0s7fcc0nzrh9zdvq9qz7vftwemqezagskg3rlx",
        "value": 425207
      },
      "scriptsig": "",
      "scriptsig_asm": "",
      "witness": [
        "f87968b619ef10407bab004e6ff71b07559a475a645db9ac963f759e7c43f76075cc2fe913de855c0cf707715342b16e7e5ad28929933e73f401cb801f8323c4"
      ],
      "is_coinbase": false,
      "sequence": 2147483649
    },
    {
      "txid": "4aeb89e358b2e2602cdd59e4df34e242aa27e08821303b2e7be9e51327492181",
      "vout": 5,
      "prevout": {
        "scriptpubkey": "51207bf905c9d2ef2bae70fc455ed7c3c9c61f310ee5135802805e6256ecec191751",
        "scriptpubkey_asm": "OP_PUSHNUM_1 OP_PUSHBYTES_32 7bf905c9d2ef2bae70fc455ed7c3c9c61f310ee5135802805e6256ecec191751",
        "scriptpubkey_type": "v1_p2tr",
        "scriptpubkey_address": "bc1p00ustjwjau46uu8ug40d0s7fcc0nzrh9zdvq9qz7vftwemqezagskg3rlx",
        "value": 51374
      },
      "scriptsig": "",
      "scriptsig_asm": "",
      "witness": [
        "ceb2552502e9fc2bcd4bc40ffaea768ff1e7856d42ec35cd4e27ec8ee256d84be417e475db3246897a2f325ac5a2457dd52ed69188e9671ee3e78c1941d5cfd5"
      ],
      "is_coinbase": false,
      "sequence": 2147483649
    },
    {
      "txid": "6fc51632cd5223188cd82ea06028644f4111455413b40c7e5c44316e1e84c6fa",
      "vout": 2,
      "prevout": {
        "scriptpubkey": "51207bf905c9d2ef2bae70fc455ed7c3c9c61f310ee5135802805e6256ecec191751",
        "scriptpubkey_asm": "OP_PUSHNUM_1 OP_PUSHBYTES_32 7bf905c9d2ef2bae70fc455ed7c3c9c61f310ee5135802805e6256ecec191751",
        "scriptpubkey_type": "v1_p2tr",
        "scriptpubkey_address": "bc1p00ustjwjau46uu8ug40d0s7fcc0nzrh9zdvq9qz7vftwemqezagskg3rlx",
        "value": 26000
      },
      "scriptsig": "",
      "scriptsig_asm": "",
      "witness": [
        "ede4d4c5f7e33de70634d1c35d013407854be45e2672979ef5ec36a0c970181dbf1f6cde2a9a8be26f4a2b188c71c6f74fa8e77a00a9ecd20ecb554fc1aa15d2"
      ],
      "is_coinbase": false,
      "sequence": 2147483649
    },
    {
      "txid": "f20877dbf1d9079e1da81340bb4c63943dce2156ecf678ace0b5bc501d306526",
      "vout": 5,
      "prevout": {
        "scriptpubkey": "51207bf905c9d2ef2bae70fc455ed7c3c9c61f310ee5135802805e6256ecec191751",
        "scriptpubkey_asm": "OP_PUSHNUM_1 OP_PUSHBYTES_32 7bf905c9d2ef2bae70fc455ed7c3c9c61f310ee5135802805e6256ecec191751",
        "scriptpubkey_type": "v1_p2tr",
        "scriptpubkey_address": "bc1p00ustjwjau46uu8ug40d0s7fcc0nzrh9zdvq9qz7vftwemqezagskg3rlx",
        "value": 20759
      },
      "scriptsig": "",
      "scriptsig_asm": "",
      "witness": [
        "8b2275d95ff5f80a3d82714673e2ec0f225ed41508ca1ee0042329069b327db20b1947a6ae99085cd6b1dcf33083eb30c3d1427b6249de79ccbce4c3974be82a"
      ],
      "is_coinbase": false,
      "sequence": 2147483649
    },
    {
      "txid": "647ab89e85469ddbb92399e02b820632108a61fefd9ed453c63d23d39d061e3a",
      "vout": 1,
      "prevout": {
        "scriptpubkey": "51207bf905c9d2ef2bae70fc455ed7c3c9c61f310ee5135802805e6256ecec191751",
        "scriptpubkey_asm": "OP_PUSHNUM_1 OP_PUSHBYTES_32 7bf905c9d2ef2bae70fc455ed7c3c9c61f310ee5135802805e6256ecec191751",
        "scriptpubkey_type": "v1_p2tr",
        "scriptpubkey_address": "bc1p00ustjwjau46uu8ug40d0s7fcc0nzrh9zdvq9qz7vftwemqezagskg3rlx",
        "value": 1801
      },
      "scriptsig": "",
      "scriptsig_asm": "",
      "witness": [
        "229e973e55a0c663b32e6e2901dc130409b165dfd8f87bd749ab33544197ca7bca51c3892609290989164783e1eebe3285dff2a196083023033906030d847af2"
      ],
      "is_coinbase": false,
      "sequence": 2147483649
    },
    {
      "txid": "ada02fcad0b43dfd262432543464a14444ef21d23bc12339fd283f9d81430a17",
      "vout": 0,
      "prevout": {
        "scriptpubkey": "51207bf905c9d2ef2bae70fc455ed7c3c9c61f310ee5135802805e6256ecec191751",
        "scriptpubkey_asm": "OP_PUSHNUM_1 OP_PUSHBYTES_32 7bf905c9d2ef2bae70fc455ed7c3c9c61f310ee5135802805e6256ecec191751",
        "scriptpubkey_type": "v1_p2tr",
        "scriptpubkey_address": "bc1p00ustjwjau46uu8ug40d0s7fcc0nzrh9zdvq9qz7vftwemqezagskg3rlx",
        "value": 1200
      },
      "scriptsig": "",
      "scriptsig_asm": "",
      "witness": [
        "ac794a5a5558986ebd7a302bf77fce79afa8a3084790bdbe9bcdca07b6b3969b5e0d7363ca246d0a160c7561bd9630fb5aa69d1cb36767caa6d21eda55ee0aa5"
      ],
      "is_coinbase": false,
      "sequence": 2147483649
    },
    {
      "txid": "ee087ce0caa2f65039bd9d738f34a4ba3b848073c99ecf4ea8c6753baa205eaa",
      "vout": 0,
      "prevout": {
        "scriptpubkey": "51207bf905c9d2ef2bae70fc455ed7c3c9c61f310ee5135802805e6256ecec191751",
        "scriptpubkey_asm": "OP_PUSHNUM_1 OP_PUSHBYTES_32 7bf905c9d2ef2bae70fc455ed7c3c9c61f310ee5135802805e6256ecec191751",
        "scriptpubkey_type": "v1_p2tr",
        "scriptpubkey_address": "bc1p00ustjwjau46uu8ug40d0s7fcc0nzrh9zdvq9qz7vftwemqezagskg3rlx",
        "value": 1200
      },
      "scriptsig": "",
      "scriptsig_asm": "",
      "witness": [
        "9217e7257573e243a03a3d6038a10ebd7c41c84a0079fc57bba3c8c279d8f57932e5ed10504b57039e8e6af837eaf7416af794fb777bb0f4c198b212aa04f397"
      ],
      "is_coinbase": false,
      "sequence": 2147483649
    },
    {
      "txid": "1c49a287d05382d8edf8b96d14a94e6b4fae682cb36c1f8378a6838b17f9b211",
      "vout": 0,
      "prevout": {
        "scriptpubkey": "51207bf905c9d2ef2bae70fc455ed7c3c9c61f310ee5135802805e6256ecec191751",
        "scriptpubkey_asm": "OP_PUSHNUM_1 OP_PUSHBYTES_32 7bf905c9d2ef2bae70fc455ed7c3c9c61f310ee5135802805e6256ecec191751",
        "scriptpubkey_type": "v1_p2tr",
        "scriptpubkey_address": "bc1p00ustjwjau46uu8ug40d0s7fcc0nzrh9zdvq9qz7vftwemqezagskg3rlx",
        "value": 1200
      },
      "scriptsig": "",
      "scriptsig_asm": "",
      "witness": [
        "edf090ae856d9f42cd6ac41f8986df68e8eefb3dc2a81057c5836cf5534006a02b7f1be8cde807fcdbb3c6d66ae541fb616ad260238a5ea7cdea1263789a69f2"
      ],
      "is_coinbase": false,
      "sequence": 2147483649
    },
    {
      "txid": "21c531fadf41756a4de32cb9a40ac0314c52f10ebb45d93d24314cc19fb3ed49",
      "vout": 0,
      "prevout": {
        "scriptpubkey": "51207bf905c9d2ef2bae70fc455ed7c3c9c61f310ee5135802805e6256ecec191751",
        "scriptpubkey_asm": "OP_PUSHNUM_1 OP_PUSHBYTES_32 7bf905c9d2ef2bae70fc455ed7c3c9c61f310ee5135802805e6256ecec191751",
        "scriptpubkey_type": "v1_p2tr",
        "scriptpubkey_address": "bc1p00ustjwjau46uu8ug40d0s7fcc0nzrh9zdvq9qz7vftwemqezagskg3rlx",
        "value": 1200
      },
      "scriptsig": "",
      "scriptsig_asm": "",
      "witness": [
        "7ff793f2e6468db1add58ae92af45b4a845e21ac6e023d4e52fca1d44de0b90e755b4e1f7d4c34abdac0f8a14c2b8c09b6576546028309c2cca7e7c7ccce7142"
      ],
      "is_coinbase": false,
      "sequence": 2147483649
    },
    {
      "txid": "4aeb89e358b2e2602cdd59e4df34e242aa27e08821303b2e7be9e51327492181",
      "vout": 0,
      "prevout": {
        "scriptpubkey": "51207bf905c9d2ef2bae70fc455ed7c3c9c61f310ee5135802805e6256ecec191751",
        "scriptpubkey_asm": "OP_PUSHNUM_1 OP_PUSHBYTES_32 7bf905c9d2ef2bae70fc455ed7c3c9c61f310ee5135802805e6256ecec191751",
        "scriptpubkey_type": "v1_p2tr",
        "scriptpubkey_address": "bc1p00ustjwjau46uu8ug40d0s7fcc0nzrh9zdvq9qz7vftwemqezagskg3rlx",
        "value": 1200
      },
      "scriptsig": "",
      "scriptsig_asm": "",
      "witness": [
        "0ab5e711b1b3635a0e30254cdd36926cd769b93399ea2a1aec32d2b50987e0fe98f2399aba09444567d443650500109fd78c43e42ea66874fc4dc1426f6d7519"
      ],
      "is_coinbase": false,
      "sequence": 2147483649
    },
    {
      "txid": "6179fc0a31faba19bf5dbb83099b71f5b0cb36db0c181d16a01eeaa513e09702",
      "vout": 0,
      "prevout": {
        "scriptpubkey": "51207bf905c9d2ef2bae70fc455ed7c3c9c61f310ee5135802805e6256ecec191751",
        "scriptpubkey_asm": "OP_PUSHNUM_1 OP_PUSHBYTES_32 7bf905c9d2ef2bae70fc455ed7c3c9c61f310ee5135802805e6256ecec191751",
        "scriptpubkey_type": "v1_p2tr",
        "scriptpubkey_address": "bc1p00ustjwjau46uu8ug40d0s7fcc0nzrh9zdvq9qz7vftwemqezagskg3rlx",
        "value": 1200
      },
      "scriptsig": "",
      "scriptsig_asm": "",
      "witness": [
        "ed6994072a072483b2e1d7f73ee9dbd9d391f31a08ce8de42940592fff31b15e63abab4fa3b972e1d93f460a976fcfe35e18a653c8f1bc0f43e205f747d5a94b"
      ],
      "is_coinbase": false,
      "sequence": 2147483649
    },
    {
      "txid": "3c7594d07280edad4909c78d750c82662027d5d89dd6868a02b4ef9267da8ff9",
      "vout": 0,
      "prevout": {
        "scriptpubkey": "51207bf905c9d2ef2bae70fc455ed7c3c9c61f310ee5135802805e6256ecec191751",
        "scriptpubkey_asm": "OP_PUSHNUM_1 OP_PUSHBYTES_32 7bf905c9d2ef2bae70fc455ed7c3c9c61f310ee5135802805e6256ecec191751",
        "scriptpubkey_type": "v1_p2tr",
        "scriptpubkey_address": "bc1p00ustjwjau46uu8ug40d0s7fcc0nzrh9zdvq9qz7vftwemqezagskg3rlx",
        "value": 1200
      },
      "scriptsig": "",
      "scriptsig_asm": "",
      "witness": [
        "dce907b5518af2f6941d67b43be2eae2b0fcf8650c8583df9c60864be0185a977685887efb0f2b6dc0848b7296689c2379ac5cb2c44d65500c57f5873baa7f6a"
      ],
      "is_coinbase": false,
      "sequence": 2147483649
    },
    {
      "txid": "79a2f0cd87342272b9543b694a521dee549d6a796569adc800973d36ca35d85b",
      "vout": 0,
      "prevout": {
        "scriptpubkey": "51207bf905c9d2ef2bae70fc455ed7c3c9c61f310ee5135802805e6256ecec191751",
        "scriptpubkey_asm": "OP_PUSHNUM_1 OP_PUSHBYTES_32 7bf905c9d2ef2bae70fc455ed7c3c9c61f310ee5135802805e6256ecec191751",
        "scriptpubkey_type": "v1_p2tr",
        "scriptpubkey_address": "bc1p00ustjwjau46uu8ug40d0s7fcc0nzrh9zdvq9qz7vftwemqezagskg3rlx",
        "value": 1200
      },
      "scriptsig": "",
      "scriptsig_asm": "",
      "witness": [
        "1af374c9e692dcdc9f99ae05eab3b988b14f3131db9b58b79ff6cafabf71285b6f101c20ba6c77d096471b6993ed9e92c23b6644a3f67f6b401fa41ee12163d0"
      ],
      "is_coinbase": false,
      "sequence": 2147483649
    },
    {
      "txid": "163a9ef01f13654ff52ea5275db0a5480bd2a71f40815717a92f405b63b6a420",
      "vout": 0,
      "prevout": {
        "scriptpubkey": "51207bf905c9d2ef2bae70fc455ed7c3c9c61f310ee5135802805e6256ecec191751",
        "scriptpubkey_asm": "OP_PUSHNUM_1 OP_PUSHBYTES_32 7bf905c9d2ef2bae70fc455ed7c3c9c61f310ee5135802805e6256ecec191751",
        "scriptpubkey_type": "v1_p2tr",
        "scriptpubkey_address": "bc1p00ustjwjau46uu8ug40d0s7fcc0nzrh9zdvq9qz7vftwemqezagskg3rlx",
        "value": 1200
      },
      "scriptsig": "",
      "scriptsig_asm": "",
      "witness": [
        "1edc2568e0810a7b324c38caaaf96b49736934b75d8063520a0a0ae7cf4684812085379f519f4f01bb0fccca03fe453e0ac323dba7fed9615596535c286b68f2"
      ],
      "is_coinbase": false,
      "sequence": 2147483649
    },
    {
      "txid": "605637a317cc35af0767ee92b21106687ae67f37633be9f3da2352bc7a95dfbf",
      "vout": 0,
      "prevout": {
        "scriptpubkey": "51207bf905c9d2ef2bae70fc455ed7c3c9c61f310ee5135802805e6256ecec191751",
        "scriptpubkey_asm": "OP_PUSHNUM_1 OP_PUSHBYTES_32 7bf905c9d2ef2bae70fc455ed7c3c9c61f310ee5135802805e6256ecec191751",
        "scriptpubkey_type": "v1_p2tr",
        "scriptpubkey_address": "bc1p00ustjwjau46uu8ug40d0s7fcc0nzrh9zdvq9qz7vftwemqezagskg3rlx",
        "value": 1200
      },
      "scriptsig": "",
      "scriptsig_asm": "",
      "witness": [
        "d4e7218d10a625f671409c77cc2665e45ab72c5dcdc77181904f0a4a65cfd985ff6f6f523a6314a82aeeba4e3cbee6c93eaa161becc5a169d0a0c9a3935a009c"
      ],
      "is_coinbase": false,
      "sequence": 2147483649
    },
    {
      "txid": "1e28ce75deb336e65c86dcc45ae5616c791dc69da538a612045637da11550972",
      "vout": 0,
      "prevout": {
        "scriptpubkey": "51207bf905c9d2ef2bae70fc455ed7c3c9c61f310ee5135802805e6256ecec191751",
        "scriptpubkey_asm": "OP_PUSHNUM_1 OP_PUSHBYTES_32 7bf905c9d2ef2bae70fc455ed7c3c9c61f310ee5135802805e6256ecec191751",
        "scriptpubkey_type": "v1_p2tr",
        "scriptpubkey_address": "bc1p00ustjwjau46uu8ug40d0s7fcc0nzrh9zdvq9qz7vftwemqezagskg3rlx",
        "value": 1200
      },
      "scriptsig": "",
      "scriptsig_asm": "",
      "witness": [
        "87b1b49ba0987297267a1b552419868661094661800c56c9a1efe57673371c9148be0381743acff17b08b66a3a27feed5efcdf1a74b517c38bddc59a37e6407f"
      ],
      "is_coinbase": false,
      "sequence": 2147483649
    },
    {
      "txid": "62e00a86c59e74e879ee063ac2844b2bc85986b269d1ccb40ffe5399c1faac90",
      "vout": 0,
      "prevout": {
        "scriptpubkey": "51207bf905c9d2ef2bae70fc455ed7c3c9c61f310ee5135802805e6256ecec191751",
        "scriptpubkey_asm": "OP_PUSHNUM_1 OP_PUSHBYTES_32 7bf905c9d2ef2bae70fc455ed7c3c9c61f310ee5135802805e6256ecec191751",
        "scriptpubkey_type": "v1_p2tr",
        "scriptpubkey_address": "bc1p00ustjwjau46uu8ug40d0s7fcc0nzrh9zdvq9qz7vftwemqezagskg3rlx",
        "value": 1200
      },
      "scriptsig": "",
      "scriptsig_asm": "",
      "witness": [
        "b144541aabeebdb6de9cc40eb6eb6ba163036f3e745dff93a4a0b1bd211ac34446e2861dffe484daaa9e7a8eda833e5afca9fcfe6374a9f595afbb76bbae8f7d"
      ],
      "is_coinbase": false,
      "sequence": 2147483649
    },
    {
      "txid": "f20877dbf1d9079e1da81340bb4c63943dce2156ecf678ace0b5bc501d306526",
      "vout": 0,
      "prevout": {
        "scriptpubkey": "51207bf905c9d2ef2bae70fc455ed7c3c9c61f310ee5135802805e6256ecec191751",
        "scriptpubkey_asm": "OP_PUSHNUM_1 OP_PUSHBYTES_32 7bf905c9d2ef2bae70fc455ed7c3c9c61f310ee5135802805e6256ecec191751",
        "scriptpubkey_type": "v1_p2tr",
        "scriptpubkey_address": "bc1p00ustjwjau46uu8ug40d0s7fcc0nzrh9zdvq9qz7vftwemqezagskg3rlx",
        "value": 1200
      },
      "scriptsig": "",
      "scriptsig_asm": "",
      "witness": [
        "18a74cc22f4ce03e017f80ef234776c735e468caf8814d86e289f55928562b6cedefe920ffe4cd949862e58aba14117a8cc5b87d8799703d202e7146bd6d415a"
      ],
      "is_coinbase": false,
      "sequence": 2147483649
    }
  ],
  "vout": [
    {
      "scriptpubkey": "51207bf905c9d2ef2bae70fc455ed7c3c9c61f310ee5135802805e6256ecec191751",
      "scriptpubkey_asm": "OP_PUSHNUM_1 OP_PUSHBYTES_32 7bf905c9d2ef2bae70fc455ed7c3c9c61f310ee5135802805e6256ecec191751",
      "scriptpubkey_type": "v1_p2tr",
      "scriptpubkey_address": "bc1p00ustjwjau46uu8ug40d0s7fcc0nzrh9zdvq9qz7vftwemqezagskg3rlx",
      "value": 524421
    }
  ],
  "size": 1981,
  "weight": 4354,
  "fee": 16320,
  "status": {
    "confirmed": true,
    "block_height": 834638,
    "block_hash": "000000000000000000025f742c626208ac87e0b7d15054abb4a19ca2d735a54e",
    "block_time": 1710405325
  },
  "hex": "020000000001125bd835ca363d9700c8ad6965796a9d54ee1d524a693b54b972223487cdf0a2790500000000010000808121492713e5e97b2e3b302188e027aa42e234dfe459dd2c60e2b258e389eb4a050000000001000080fac6841e6e31445c7e0cb413544511414f642860a02ed88c182352cd3216c56f0200000000010000802665301d50bcb5e0ac78f6ec5621ce3d94634cbb4013a81d9e07d9f1db7708f20500000000010000803a1e069dd3233dc653d49efdfe618a103206822be09923b9db9d46859eb87a64010000000001000080170a43819d3f28fd3923c13bd221ef4444a1643454322426fd3db4d0ca2fa0ad000000000001000080aa5e20aa3b75c6a84ecf9ec97380843bbaa4348f739dbd3950f6a2cae07c08ee00000000000100008011b2f9178b83a678831f6cb32c68ae4f6b4ea9146db9f8edd88253d087a2491c00000000000100008049edb39fc14c31243dd945bb0ef1524c31c00aa4b92ce34d6a7541dffa31c5210000000000010000808121492713e5e97b2e3b302188e027aa42e234dfe459dd2c60e2b258e389eb4a0000000000010000800297e013a5ea1ea0161d180cdb36cbb0f5719b0983bb5dbf19bafa310afc7961000000000001000080f98fda6792efb4028a86d69dd8d5272066820c758dc70949aded8072d094753c0000000000010000805bd835ca363d9700c8ad6965796a9d54ee1d524a693b54b972223487cdf0a27900000000000100008020a4b6635b402fa9175781401fa7d20b48a5b05d27a52ef54f65131ff09e3a16000000000001000080bfdf957abc5223daf3e93b63377fe67a680611b292ee6707af35cc17a337566000000000000100008072095511da37560412a638a59dc61d796c61e55ac4dc865ce636b3de75ce281e00000000000100008090acfac19953fe0fb4ccd169b28659c82b4b84c23a06ee79e8749ec5860ae0620000000000010000802665301d50bcb5e0ac78f6ec5621ce3d94634cbb4013a81d9e07d9f1db7708f20000000000010000800185000800000000002251207bf905c9d2ef2bae70fc455ed7c3c9c61f310ee5135802805e6256ecec1917510140f87968b619ef10407bab004e6ff71b07559a475a645db9ac963f759e7c43f76075cc2fe913de855c0cf707715342b16e7e5ad28929933e73f401cb801f8323c40140ceb2552502e9fc2bcd4bc40ffaea768ff1e7856d42ec35cd4e27ec8ee256d84be417e475db3246897a2f325ac5a2457dd52ed69188e9671ee3e78c1941d5cfd50140ede4d4c5f7e33de70634d1c35d013407854be45e2672979ef5ec36a0c970181dbf1f6cde2a9a8be26f4a2b188c71c6f74fa8e77a00a9ecd20ecb554fc1aa15d201408b2275d95ff5f80a3d82714673e2ec0f225ed41508ca1ee0042329069b327db20b1947a6ae99085cd6b1dcf33083eb30c3d1427b6249de79ccbce4c3974be82a0140229e973e55a0c663b32e6e2901dc130409b165dfd8f87bd749ab33544197ca7bca51c3892609290989164783e1eebe3285dff2a196083023033906030d847af20140ac794a5a5558986ebd7a302bf77fce79afa8a3084790bdbe9bcdca07b6b3969b5e0d7363ca246d0a160c7561bd9630fb5aa69d1cb36767caa6d21eda55ee0aa501409217e7257573e243a03a3d6038a10ebd7c41c84a0079fc57bba3c8c279d8f57932e5ed10504b57039e8e6af837eaf7416af794fb777bb0f4c198b212aa04f3970140edf090ae856d9f42cd6ac41f8986df68e8eefb3dc2a81057c5836cf5534006a02b7f1be8cde807fcdbb3c6d66ae541fb616ad260238a5ea7cdea1263789a69f201407ff793f2e6468db1add58ae92af45b4a845e21ac6e023d4e52fca1d44de0b90e755b4e1f7d4c34abdac0f8a14c2b8c09b6576546028309c2cca7e7c7ccce714201400ab5e711b1b3635a0e30254cdd36926cd769b93399ea2a1aec32d2b50987e0fe98f2399aba09444567d443650500109fd78c43e42ea66874fc4dc1426f6d75190140ed6994072a072483b2e1d7f73ee9dbd9d391f31a08ce8de42940592fff31b15e63abab4fa3b972e1d93f460a976fcfe35e18a653c8f1bc0f43e205f747d5a94b0140dce907b5518af2f6941d67b43be2eae2b0fcf8650c8583df9c60864be0185a977685887efb0f2b6dc0848b7296689c2379ac5cb2c44d65500c57f5873baa7f6a01401af374c9e692dcdc9f99ae05eab3b988b14f3131db9b58b79ff6cafabf71285b6f101c20ba6c77d096471b6993ed9e92c23b6644a3f67f6b401fa41ee12163d001401edc2568e0810a7b324c38caaaf96b49736934b75d8063520a0a0ae7cf4684812085379f519f4f01bb0fccca03fe453e0ac323dba7fed9615596535c286b68f20140d4e7218d10a625f671409c77cc2665e45ab72c5dcdc77181904f0a4a65cfd985ff6f6f523a6314a82aeeba4e3cbee6c93eaa161becc5a169d0a0c9a3935a009c014087b1b49ba0987297267a1b552419868661094661800c56c9a1efe57673371c9148be0381743acff17b08b66a3a27feed5efcdf1a74b517c38bddc59a37e6407f0140b144541aabeebdb6de9cc40eb6eb6ba163036f3e745dff93a4a0b1bd211ac34446e2861dffe484daaa9e7a8eda833e5afca9fcfe6374a9f595afbb76bbae8f7d014018a74cc22f4ce03e017f80ef234776c735e468caf8814d86e289f55928562b6cedefe920ffe4cd949862e58aba14117a8cc5b87d8799703d202e7146bd6d415a00000000"
}