{
  "txid": "87ee281e2cf217a72c31ef2f075bb0cc7cf483af12f4face8a9b663ef0747aa8",
  "version": 2,
  "locktime": 831919,
  "vin": [
    {
      "txid": "c0754b3975084c3388e53ac003fa44fe411122b95849c9b4a471c70c52722d0e",
      "vout": 1,
      "prevout": {
        "scriptpubkey": "00144e4965f7262dbe8ef20569405d2a206f23a578f0",
        "scriptpubkey_asm": "OP_0 OP_PUSHBYTES_20 4e4965f7262dbe8ef20569405d2a206f23a578f0",
        "scriptpubkey_type": "v0_p2wpkh",
        "scriptpubkey_address": "bc1qfeyktaex9klgaus9d9q9623qdu36278s5zpxjn",
        "value": 12570
      },
      "scriptsig": "",
      "scriptsig_asm": "",
      "witness": [
        "304402201620c52fdbde49db6f2ed182e396b101610d22df21b6133eafa8a83c598bd05002207b47cf75868c9b6f8ea733afeab8348042a20742bac494811c6f99ca9e0e915201",
        "026a51488f684b0d50225a7841feb03a28c9bfce0e789f4eebd099949a6eafef3b"
      ],
      "is_coinbase": false,
      "sequence": 4294967293
    }
  ],
  "vout": [
    {
      "scriptpubkey": "0014faf5d56432f94cb666c7b06dcaeb757ab74dd8c9",
      "scriptpubkey_asm": "OP_0 OP_PUSHBYTES_20 faf5d56432f94cb666c7b06dcaeb757ab74dd8c9",
      "scriptpubkey_type": "v0_p2wpkh",
      "scriptpubkey_address": "bc1qlt6a2epjl9xtvek8kpku46m402m5mkxfd2szq8",
      "value": 11360
    }
  ],
  "size": 191,
  "weight": 437,
  "fee": 1210,
  "status": {
    "confirmed": true,
    "block_height": 834464,
    "block_hash": "0000000000000000000177a0869a911a2b65c9bdcd5a8bcb02b68f305bee848e",
    "block_time": 1710308296
  },
  "hex": "020000000001010e2d72520cc771a4b4c94958b9221141fe44fa03c03ae588334c0875394b75c00100000000fdffffff01602c000000000000160014faf5d56432f94cb666c7b06dcaeb757ab74dd8c90247304402201620c52fdbde49db6f2ed182e396b101610d22df21b6133eafa8a83c598bd05002207b47cf75868c9b6f8ea733afeab8348042a20742bac494811c6f99ca9e0e91520121026a51488f684b0d50225a7841feb03a28c9bfce0e789f4eebd099949a6eafef3bafb10c00"
}