{
  "txid": "87fb548a7b44401c9879a0a05382cd592438e59102010c1701ca75d538d11da6",
  "version": 2,
  "locktime": 0,
  "vin": [
    {
      "txid": "fb13fce49e4744123c7fb00c3e2a5b0506ebcf0c2abd07c9f653b720cd61ca98",
      "vout": 11,
      "prevout": {
        "scriptpubkey": "5120ad723a998ffb5e1fcbc4afe407f35d5c564d3955a7c9dd76115af5c32c2507c9",
        "scriptpubkey_asm": "OP_PUSHNUM_1 OP_PUSHBYTES_32 ad723a998ffb5e1fcbc4afe407f35d5c564d3955a7c9dd76115af5c32c2507c9",
        "scriptpubkey_type": "v1_p2tr",
        "scriptpubkey_address": "bc1p44er4xv0ld0plj7y4ljq0u6at3ty6w245lya6as3tt6uxtp9qlysv72qaa",
        "value": 10000
      },
      "scriptsig": "",
      "scriptsig_asm": "",
      "witness": [
        "3d712000dec8248eb274b80f626c1a1a0d8a3bf46e7d4f92fe5e96c974c4798ac9dcd1c1dcee3e046998e80fa9c58e826e5a184d811da22b0298f9ef9c03c14c"
      ],
      "is_coinbase": false,
      "sequence": 4294967295
    },
    {
      "txid": "fb13fce49e4744123c7fb00c3e2a5b0506ebcf0c2abd07c9f653b720cd61ca98",
      "vout": 10,
      "prevout": {
        "scriptpubkey": "5120ad723a998ffb5e1fcbc4afe407f35d5c564d3955a7c9dd76115af5c32c2507c9",
        "scriptpubkey_asm": "OP_PUSHNUM_1 OP_PUSHBYTES_32 ad723a998ffb5e1fcbc4afe407f35d5c564d3955a7c9dd76115af5c32c2507c9",
        "scriptpubkey_type": "v1_p2tr",
        "scriptpubkey_address": "bc1p44er4xv0ld0plj7y4ljq0u6at3ty6w245lya6as3tt6uxtp9qlysv72qaa",
        "value": 10000
      },
      "scriptsig": "",
      "scriptsig_asm": "",
      "witness": [
        "725030654053b1034436a42ecf3d5697ad3f0d22373020d5b9f1026a41b197ffe0dc80bb0d10baf98ae9f0e922365fa299f6dd12375b3cc884d8db9046b6c892"
      ],
      "is_coinbase": false,
      "sequence": 4294967295
    },
    {
      "txid": "fb13fce49e4744123c7fb00c3e2a5b0506ebcf0c2abd07c9f653b720cd61ca98",
      "vout": 8,
      "prevout": {
        "scriptpubkey": "5120ad723a998ffb5e1fcbc4afe407f35d5c564d3955a7c9dd76115af5c32c2507c9",
        "scriptpubkey_asm": "OP_PUSHNUM_1 OP_PUSHBYTES_32 ad723a998ffb5e1fcbc4afe407f35d5c564d3955a7c9dd76115af5c32c2507c9",
        "scriptpubkey_type": "v1_p2tr",
        "scriptpubkey_address": "bc1p44er4xv0ld0plj7y4ljq0u6at3ty6w245lya6as3tt6uxtp9qlysv72qaa",
        "value": 10000
      },
      "scriptsig": "",
      "scriptsig_asm": "",
      "witness": [
        "09db186bfacd3f7bc65b7c4d83f0caf8593861db23e33e5b6169e6b1baabb62751973566e1834dd14217bc55b07b7bc138fa8016ff8b4414fb544456eed53ae8"
      ],
      "is_coinbase": false,
      "sequence": 4294967295
    },
    {
      "txid": "fb13fce49e4744123c7fb00c3e2a5b0506ebcf0c2abd07c9f653b720cd61ca98",
      "vout": 7,
      "prevout": {
        "scriptpubkey": "5120ad723a998ffb5e1fcbc4afe407f35d5c564d3955a7c9dd76115af5c32c2507c9",
        "scriptpubkey_asm": "OP_PUSHNUM_1 OP_PUSHBYTES_32 ad723a998ffb5e1fcbc4afe407f35d5c564d3955a7c9dd76115af5c32c2507c9",
        "scriptpubkey_type": "v1_p2tr",
        "scriptpubkey_address": "bc1p44er4xv0ld0plj7y4ljq0u6at3ty6w245lya6as3tt6uxtp9qlysv72qaa",
        "value": 10000
      },
      "scriptsig": "",
      "scriptsig_asm": "",
      "witness": [
        "6e44b191cf5b06da5c8767f9b56f288d19a147a1f6bc4bf2a22ecc9408d7037c6d8f2776eeada17db3cd3812109701bafe1980c8b60ba864207237bac2734586"
      ],
      "is_coinbase": false,
      "sequence": 4294967295
    },
    {
      "txid": "fb13fce49e4744123c7fb00c3e2a5b0506ebcf0c2abd07c9f653b720cd61ca98",
      "vout": 6,
      "prevout": {
        "scriptpubkey": "5120ad723a998ffb5e1fcbc4afe407f35d5c564d3955a7c9dd76115af5c32c2507c9",
        "scriptpubkey_asm": "OP_PUSHNUM_1 OP_PUSHBYTES_32 ad723a998ffb5e1fcbc4afe407f35d5c564d3955a7c9dd76115af5c32c2507c9",
        "scriptpubkey_type": "v1_p2tr",
        "scriptpubkey_address": "bc1p44er4xv0ld0plj7y4ljq0u6at3ty6w245lya6as3tt6uxtp9qlysv72qaa",
        "value": 10000
      },
      "scriptsig": "",
      "scriptsig_asm": "",
      "witness": [
        "b686fca26906e013eb0d745aa16b3439dd9596e845ac967df4c238139e3f832635b002d1cc4cfc18beed8b1fe96ab2400e7d999544edea2648ade84fc8e51c9f"
      ],
      "is_coinbase": false,
      "sequence": 4294967295
    },
    {
      "txid": "fb13fce49e4744123c7fb00c3e2a5b0506ebcf0c2abd07c9f653b720cd61ca98",
      "vout": 4,
      "prevout": {
        "scriptpubkey": "5120ad723a998ffb5e1fcbc4afe407f35d5c564d3955a7c9dd76115af5c32c2507c9",
        "scriptpubkey_asm": "OP_PUSHNUM_1 OP_PUSHBYTES_32 ad723a998ffb5e1fcbc4afe407f35d5c564d3955a7c9dd76115af5c32c2507c9",
        "scriptpubkey_type": "v1_p2tr",
        "scriptpubkey_address": "bc1p44er4xv0ld0plj7y4ljq0u6at3ty6w245lya6as3tt6uxtp9qlysv72qaa",
        "value": 10000
      },
      "scriptsig": "",
      "scriptsig_asm": "",
      "witness": [
        "9b1860a3575e4add68424181b101f3e10137be9cc9c02cc1bcc5472b201baf8ac99b51cd14b371cdaa7b6b7d5cbe73e0227f561ca3daebed265562082af5be72"
      ],
      "is_coinbase": false,
      "sequence": 4294967295
    }
  ],
  "vout": [
    {
      "scriptpubkey": "51206cc32bcb6894502f155a0fa8a762d8ea0e3d80b28b668669718788370158cc06",
      "scriptpubkey_asm": "OP_PUSHNUM_1 OP_PUSHBYTES_32 6cc32bcb6894502f155a0fa8a762d8ea0e3d80b28b668669718788370158cc06",
      "scriptpubkey_type": "v1_p2tr",
      "scriptpubkey_address": "bc1pdnpjhjmgj3gz7926p752wckcag8rmq9j3dngv6t3s7yrwq2cesrqqynn4x",
      "value": 47000
    },
    {
      "scriptpubkey": "5120ad723a998ffb5e1fcbc4afe407f35d5c564d3955a7c9dd76115af5c32c2507c9",
      "scriptpubkey_asm": "OP_PUSHNUM_1 OP_PUSHBYTES_32 ad723a998ffb5e1fcbc4afe407f35d5c564d3955a7c9dd76115af5c32c2507c9",
      "scriptpubkey_type": "v1_p2tr",
      "scriptpubkey_address": "bc1p44er4xv0ld0plj7y4ljq0u6at3ty6w245lya6as3tt6uxtp9qlysv72qaa",
      "value": 7260
    }
  ],
  "size": 740,
  "weight": 1766,
  "fee": 5740,
  "status": {
    "confirmed": true,
    "block_height": 834460,
    "block_hash": "00000000000000000000484a79b643b2524bbce82e5d8a442013fa5b8905ed98",
    "block_time": 1710307468
  },
  "hex": "0200000000010698ca61cd20b753f6c907bd2a0ccfeb06055b2a3e0cb07f3c1244479ee4fc13fb0b00000000ffffffff98ca61cd20b753f6c907bd2a0ccfeb06055b2a3e0cb07f3c1244479ee4fc13fb0a00000000ffffffff98ca61cd20b753f6c907bd2a0ccfeb06055b2a3e0cb07f3c1244479ee4fc13fb0800000000ffffffff98ca61cd20b753f6c907bd2a0ccfeb06055b2a3e0cb07f3c1244479ee4fc13fb0700000000ffffffff98ca61cd20b753f6c907bd2a0ccfeb06055b2a3e0cb07f3c1244479ee4fc13fb0600000000ffffffff98ca61cd20b753f6c907bd2a0ccfeb06055b2a3e0cb07f3c1244479ee4fc13fb0400000000ffffffff0298b70000000000002251206cc32bcb6894502f155a0fa8a762d8ea0e3d80b28b668669718788370158cc065c1c000000000000225120ad723a998ffb5e1fcbc4afe407f35d5c564d3955a7c9dd76115af5c32c2507c901403d712000dec8248eb274b80f626c1a1a0d8a3bf46e7d4f92fe5e96c974c4798ac9dcd1c1dcee3e046998e80fa9c58e826e5a184d811da22b0298f9ef9c03c14c0140725030654053b1034436a42ecf3d5697ad3f0d22373020d5b9f1026a41b197ffe0dc80bb0d10baf98ae9f0e922365fa299f6dd12375b3cc884d8db9046b6c892014009db186bfacd3f7bc65b7c4d83f0caf8593861db23e33e5b6169e6b1baabb62751973566e1834dd14217bc55b07b7bc138fa8016ff8b4414fb544456eed53ae801406e44b191cf5b06da5c8767f9b56f288d19a147a1f6bc4bf2a22ecc9408d7037c6d8f2776eeada17db3cd3812109701bafe1980c8b60ba864207237bac27345860140b686fca26906e013eb0d745aa16b3439dd9596e845ac967df4c238139e3f832635b002d1cc4cfc18beed8b1fe96ab2400e7d999544edea2648ade84fc8e51c9f01409b1860a3575e4add68424181b101f3e10137be9cc9c02cc1bcc5472b201baf8ac99b51cd14b371cdaa7b6b7d5cbe73e0227f561ca3daebed265562082af5be7200000000"
}