{
  "txid": "880a93d550587dd1c6d086366d90a4558ac1cf2a6857602283f4ade14c7a6ca4",
  "version": 2,
  "locktime": 0,
  "vin": [
    {
      "txid": "dd1efb404a05509f28b165d4239a0e8b9beebefe71f1812898a34e04eb127e7c",
      "vout": 0,
      "prevout": {
        "scriptpubkey": "0014b6e394794b44746ba82cb488c1e0f7a37348d412",
        "scriptpubkey_asm": "OP_0 OP_PUSHBYTES_20 b6e394794b44746ba82cb488c1e0f7a37348d412",
        "scriptpubkey_type": "v0_p2wpkh",
        "scriptpubkey_address": "bc1qkm3eg72tg36xh2pvkjyvrc8h5de534qjg4rjjh",
        "value": 135778
      },
      "scriptsig": "",
      "scriptsig_asm": "",
      "witness": [
        "3044022040ca38062fea63134786442acf772cd972b28980f12fbdbd5af01843fc24c73102201c4754a18e42d2a9a20e6415b63888de438779d0b1be10ccdc98075d0f24c3c301",
        "02b34ed0f25162672e29331eaa71339805f2826e5a097c763c7b67ed1c67888ab4"
      ],
      "is_coinbase": false,
      "sequence": 4294967295
    }
  ],
  "vout": [
    {
      "scriptpubkey": "0014b6e394794b44746ba82cb488c1e0f7a37348d412",
      "scriptpubkey_asm": "OP_0 OP_PUSHBYTES_20 b6e394794b44746ba82cb488c1e0f7a37348d412",
      "scriptpubkey_type": "v0_p2wpkh",
      "scriptpubkey_address": "bc1qkm3eg72tg36xh2pvkjyvrc8h5de534qjg4rjjh",
      "value": 600
    },
    {
      "scriptpubkey": "0014b6e394794b44746ba82cb488c1e0f7a37348d412",
      "scriptpubkey_asm": "OP_0 OP_PUSHBYTES_20 b6e394794b44746ba82cb488c1e0f7a37348d412",
      "scriptpubkey_type": "v0_p2wpkh",
      "scriptpubkey_address": "bc1qkm3eg72tg36xh2pvkjyvrc8h5de534qjg4rjjh",
      "value": 600
    },
    {
      "scriptpubkey": "0014b6e394794b44746ba82cb488c1e0f7a37348d412",
      "scriptpubkey_asm": "OP_0 OP_PUSHBYTES_20 b6e394794b44746ba82cb488c1e0f7a37348d412",
      "scriptpubkey_type": "v0_p2wpkh",
      "scriptpubkey_address": "bc1qkm3eg72tg36xh2pvkjyvrc8h5de534qjg4rjjh",
      "value": 600
    },
    {
      "scriptpubkey": "0014b6e394794b44746ba82cb488c1e0f7a37348d412",
      "scriptpubkey_asm": "OP_0 OP_PUSHBYTES_20 b6e394794b44746ba82cb488c1e0f7a37348d412",
      "scriptpubkey_type": "v0_p2wpkh",
      "scriptpubkey_address": "bc1qkm3eg72tg36xh2pvkjyvrc8h5de534qjg4rjjh",
      "value": 600
    },
    {
      "scriptpubkey": "0014b6e394794b44746ba82cb488c1e0f7a37348d412",
      "scriptpubkey_asm": "OP_0 OP_PUSHBYTES_20 b6e394794b44746ba82cb488c1e0f7a37348d412",
      "scriptpubkey_type": "v0_p2wpkh",
      "scriptpubkey_address": "bc1qkm3eg72tg36xh2pvkjyvrc8h5de534qjg4rjjh",
      "value": 600
    },
    {
      "scriptpubkey": "0014b6e394794b44746ba82cb488c1e0f7a37348d412",
      "scriptpubkey_asm": "OP_0 OP_PUSHBYTES_20 b6e394794b44746ba82cb488c1e0f7a37348d412",
      "scriptpubkey_type": "v0_p2wpkh",
      "scriptpubkey_address": "bc1qkm3eg72tg36xh2pvkjyvrc8h5de534qjg4rjjh",
      "value": 600
    },
    {
      "scriptpubkey": "0014b6e394794b44746ba82cb488c1e0f7a37348d412",
      "scriptpubkey_asm": "OP_0 OP_PUSHBYTES_20 b6e394794b44746ba82cb488c1e0f7a37348d412",
      "scriptpubkey_type": "v0_p2wpkh",
      "scriptpubkey_address": "bc1qkm3eg72tg36xh2pvkjyvrc8h5de534qjg4rjjh",
      "value": 600
    },
    {
      "scriptpubkey": "0014b6e394794b44746ba82cb488c1e0f7a37348d412",
      "scriptpubkey_asm": "OP_0 OP_PUSHBYTES_20 b6e394794b44746ba82cb488c1e0f7a37348d412",
      "scriptpubkey_type": "v0_p2wpkh",
      "scriptpubkey_address": "bc1qkm3eg72tg36xh2pvkjyvrc8h5de534qjg4rjjh",
      "value": 600
    },
    {
      "scriptpubkey": "0014b6e394794b44746ba82cb488c1e0f7a37348d412",
      "scriptpubkey_asm": "OP_0 OP_PUSHBYTES_20 b6e394794b44746ba82cb488c1e0f7a37348d412",
      "scriptpubkey_type": "v0_p2wpkh",
      "scriptpubkey_address": "bc1qkm3eg72tg36xh2pvkjyvrc8h5de534qjg4rjjh",
      "value": 600
    },
    {
      "scriptpubkey": "0014b6e394794b44746ba82cb488c1e0f7a37348d412",
      "scriptpubkey_asm": "OP_0 OP_PUSHBYTES_20 b6e394794b44746ba82cb488c1e0f7a37348d412",
      "scriptpubkey_type": "v0_p2wpkh",
      "scriptpubkey_address": "bc1qkm3eg72tg36xh2pvkjyvrc8h5de534qjg4rjjh",
      "value": 600
    },
    {
      "scriptpubkey": "0014b6e394794b44746ba82cb488c1e0f7a37348d412",
      "scriptpubkey_asm": "OP_0 OP_PUSHBYTES_20 b6e394794b44746ba82cb488c1e0f7a37348d412",
      "scriptpubkey_type": "v0_p2wpkh",
      "scriptpubkey_address": "bc1qkm3eg72tg36xh2pvkjyvrc8h5de534qjg4rjjh",
      "value": 123478
    }
  ],
  "size": 501,
  "weight": 1677,
  "fee": 6300,
  "status": {
    "confirmed": true,
    "block_height": 834638,
    "block_hash": "000000000000000000025f742c626208ac87e0b7d15054abb4a19ca2d735a54e",
    "block_time": 1710405325
  },
  "hex": "020000000001017c7e12eb044ea3982881f171febeee9b8b0e9a23d465b1289f50054a40fb1edd0000000000ffffffff0b5802000000000000160014b6e394794b44746ba82cb488c1e0f7a37348d4125802000000000000160014b6e394794b44746ba82cb488c1e0f7a37348d4125802000000000000160014b6e394794b44746ba82cb488c1e0f7a37348d4125802000000000000160014b6e394794b44746ba82cb488c1e0f7a37348d4125802000000000000160014b6e394794b44746ba82cb488c1e0f7a37348d4125802000000000000160014b6e394794b44746ba82cb488c1e0f7a37348d4125802000000000000160014b6e394794b44746ba82cb488c1e0f7a37348d4125802000000000000160014b6e394794b44746ba82cb488c1e0f7a37348d4125802000000000000160014b6e394794b44746ba82cb488c1e0f7a37348d4125802000000000000160014b6e394794b44746ba82cb488c1e0f7a37348d41256e2010000000000160014b6e394794b44746ba82cb488c1e0f7a37348d41202473044022040ca38062fea63134786442acf772cd972b28980f12fbdbd5af01843fc24c73102201c4754a18e42d2a9a20e6415b63888de438779d0b1be10ccdc98075d0f24c3c3012102b34ed0f25162672e29331eaa71339805f2826e5a097c763c7b67ed1c67888ab400000000"
}