{
  "txid": "880e5231be0dfa9722db86a78f55c93fb220f9f7244301b03b3d2a2659e425a5",
  "version": 2,
  "locktime": 0,
  "vin": [
    {
      "txid": "c10e48caeee8756d57fbce0e4f26c1d08bb9f0d4a35c2d26269682da8df04dac",
      "vout": 26,
      "prevout": {
        "scriptpubkey": "51203bd311ce7ba086d9f0d3fc353ad0e621f25e1b87b10a1242d9327503dfa230c7",
        "scriptpubkey_asm": "OP_PUSHNUM_1 OP_PUSHBYTES_32 3bd311ce7ba086d9f0d3fc353ad0e621f25e1b87b10a1242d9327503dfa230c7",
        "scriptpubkey_type": "v1_p2tr",
        "scriptpubkey_address": "bc1p80f3rnnm5zrdnuxnls6n458xy8e9uxu8ky9pyskexf6s8hazxrrsn0vrpy",
        "value": 3634
      },
      "scriptsig": "",
      "scriptsig_asm": "",
      "witness": [
        "5615d6331487d2ba8631316b42d7a57a496d526d721c64315130eb23912946f8a5a4be613400da24625bed24e5e5ba39d607466d44595943ba846354e313ccf2",
        "20d3a42ccdf5562af6aa82824c251fc90eb7d06968e7971808cda5e3833cc18290ac0063036f726401011e6170706c69636174696f6e2f6a736f6e3b636861727365743d7574662d38004cd37b2270223a22706f772d3230222c226f70223a226d696e74222c227469636b223a2250455045222c22616d74223a2231303030222c22736f6c7574696f6e223a22504550453a6263317071336e67663775716e73667434706d37357236397371616c6c30637068747278677773757a6d657864356c337039333566366d713666337664383a303030303030303030303030303030303030303139393431613561653132383937363539383134343239323533333030353762306461393666336465613163353a3138303433393638393639227d68",
        "c0406c0f2a67700582b42f36a71eb03478d57ba1acdc179ee1ec758acb282de3fd"
      ],
      "is_coinbase": false,
      "sequence": 4294967295
    }
  ],
  "vout": [
    {
      "scriptpubkey": "5120046684fb809c12ba877ea0f45803bffbf01bac6643a1c16f266d3f1096344eb6",
      "scriptpubkey_asm": "OP_PUSHNUM_1 OP_PUSHBYTES_32 046684fb809c12ba877ea0f45803bffbf01bac6643a1c16f266d3f1096344eb6",
      "scriptpubkey_type": "v1_p2tr",
      "scriptpubkey_address": "bc1pq3ngf7uqnsft4pm75r69sqall0cphtrxgwsuzmexd5l3p935f6mq6f3vd8",
      "value": 546
    }
  ],
  "size": 487,
  "weight": 769,
  "fee": 3088,
  "status": {
    "confirmed": true,
    "block_height": 834460,
    "block_hash": "00000000000000000000484a79b643b2524bbce82e5d8a442013fa5b8905ed98",
    "block_time": 1710307468
  },
  "hex": "02000000000101ac4df08dda829626262d5ca3d4f0b98bd0c1264f0ecefb576d75e8eeca480ec11a00000000ffffffff012202000000000000225120046684fb809c12ba877ea0f45803bffbf01bac6643a1c16f266d3f1096344eb603405615d6331487d2ba8631316b42d7a57a496d526d721c64315130eb23912946f8a5a4be613400da24625bed24e5e5ba39d607466d44595943ba846354e313ccf2fd200120d3a42ccdf5562af6aa82824c251fc90eb7d06968e7971808cda5e3833cc18290ac0063036f726401011e6170706c69636174696f6e2f6a736f6e3b636861727365743d7574662d38004cd37b2270223a22706f772d3230222c226f70223a226d696e74222c227469636b223a2250455045222c22616d74223a2231303030222c22736f6c7574696f6e223a22504550453a6263317071336e67663775716e73667434706d37357236397371616c6c30637068747278677773757a6d657864356c337039333566366d713666337664383a303030303030303030303030303030303030303139393431613561653132383937363539383134343239323533333030353762306461393666336465613163353a3138303433393638393639227d6821c0406c0f2a67700582b42f36a71eb03478d57ba1acdc179ee1ec758acb282de3fd00000000"
}