{
  "txid": "8813c2a33b99e4da47f5221db0ae89c19f1fbc292e2cac88a7688521534ad9d5",
  "version": 2,
  "locktime": 0,
  "vin": [
    {
      "txid": "acc3ba00869acb582a3f2904ce3a11dd3779350ce234063fc7d0959246213364",
      "vout": 88,
      "prevout": {
        "scriptpubkey": "51203736c9d8ed16342ac53b090c8c50d389930700eea28ca78aa3f14f9c9eeab300",
        "scriptpubkey_asm": "OP_PUSHNUM_1 OP_PUSHBYTES_32 3736c9d8ed16342ac53b090c8c50d389930700eea28ca78aa3f14f9c9eeab300",
        "scriptpubkey_type": "v1_p2tr",
        "scriptpubkey_address": "bc1pxumvnk8dzc6z43fmpyxgc5xn3xfswq8w52x20z4r798ee8h2kvqq5k2fl9",
        "value": 1806
      },
      "scriptsig": "",
      "scriptsig_asm": "",
      "witness": [
        "540e00f037f0e18ffbfbbaefb98ae68cea53e9c3268d835717926ea9c5a91d8e179dff1b3aa3fd9b6025ac152e804f66a88b0c3d26a86b9c1227da878b08e944",
        "20a73a347fdadc8ecf5c5477f64d48eac76080004a76fa3250fe07ce4eb1bcf60aac0063036f726401010a746578742f706c61696e00357b2270223a226272632d3230222c226f70223a226d696e74222c227469636b223a22646f6765222c22616d74223a2234323030227d68",
        "c1a73a347fdadc8ecf5c5477f64d48eac76080004a76fa3250fe07ce4eb1bcf60a"
      ],
      "is_coinbase": false,
      "sequence": 4261412863
    }
  ],
  "vout": [
    {
      "scriptpubkey": "00147a665de7a370f4c9b372ab1fae587500a5bcbdb4",
      "scriptpubkey_asm": "OP_0 OP_PUSHBYTES_20 7a665de7a370f4c9b372ab1fae587500a5bcbdb4",
      "scriptpubkey_type": "v0_p2wpkh",
      "scriptpubkey_address": "bc1q0fn9mearwr6vnvmj4v06ukr4qzjme0d565dzcx",
      "value": 294
    }
  ],
  "size": 294,
  "weight": 540,
  "fee": 1512,
  "status": {
    "confirmed": true,
    "block_height": 834460,
    "block_hash": "00000000000000000000484a79b643b2524bbce82e5d8a442013fa5b8905ed98",
    "block_time": 1710307468
  },
  "hex": "02000000000101643321469295d0c73f0634e20c357937dd113ace04293f2a58cb9a8600bac3ac5800000000fffffffd0126010000000000001600147a665de7a370f4c9b372ab1fae587500a5bcbdb40340540e00f037f0e18ffbfbbaefb98ae68cea53e9c3268d835717926ea9c5a91d8e179dff1b3aa3fd9b6025ac152e804f66a88b0c3d26a86b9c1227da878b08e9446d20a73a347fdadc8ecf5c5477f64d48eac76080004a76fa3250fe07ce4eb1bcf60aac0063036f726401010a746578742f706c61696e00357b2270223a226272632d3230222c226f70223a226d696e74222c227469636b223a22646f6765222c22616d74223a2234323030227d6821c1a73a347fdadc8ecf5c5477f64d48eac76080004a76fa3250fe07ce4eb1bcf60a00000000"
}