{
  "txid": "88156ea569541b40115cd983d9f4f91ee92160f8d5e7c33aee0179f8a84649cb",
  "version": 2,
  "locktime": 0,
  "vin": [
    {
      "txid": "4ee77778659dcfe8d7a4e15882fc6193f4f3d5f6607624e256337b44c2280af5",
      "vout": 19,
      "prevout": {
        "scriptpubkey": "5120d09b2623b941af6e6e813a4ad8569b1e53bc9f1d8708c47b6be0c5933ca79752",
        "scriptpubkey_asm": "OP_PUSHNUM_1 OP_PUSHBYTES_32 d09b2623b941af6e6e813a4ad8569b1e53bc9f1d8708c47b6be0c5933ca79752",
        "scriptpubkey_type": "v1_p2tr",
        "scriptpubkey_address": "bc1p6zdjvgaegxhkum5p8f9ds45mrefme8casuyvg7mturzex098jafqgmrzl0",
        "value": 2075
      },
      "scriptsig": "",
      "scriptsig_asm": "",
      "witness": [
        "6bb4170e5045c43167e5ad4c48cb4b13ce430ffe6c01c141c86a193f7b6637365a57ba4fb3d23dd71b34d05c292376c0eb292f2849082f4176bde0b97854c760",
        "20f9f5605ddfeb01af416bb72bd67704c6e0ef95894783c22ca06c9d042d81d4c3ac0063036f7264010118746578742f706c61696e3b636861727365743d7574662d3800357b2270223a224252432d313030222c226f70223a226d696e74222c227469636b223a22696e73222c22616d74223a2231303030227d68",
        "c0c50eac15d7d7889f5ad84f80015e8a209129aeea937c37fa4b8bc0f9be289730"
      ],
      "is_coinbase": false,
      "sequence": 4294967295
    }
  ],
  "vout": [
    {
      "scriptpubkey": "00143e2325412b554cacdd163a93a42204c4707f8851",
      "scriptpubkey_asm": "OP_0 OP_PUSHBYTES_20 3e2325412b554cacdd163a93a42204c4707f8851",
      "scriptpubkey_type": "v0_p2wpkh",
      "scriptpubkey_address": "bc1q8c3j2sft24x2ehgk82f6ggsyc3c8lzz3yw9wsu",
      "value": 546
    }
  ],
  "size": 308,
  "weight": 554,
  "fee": 1529,
  "status": {
    "confirmed": true,
    "block_height": 834464,
    "block_hash": "0000000000000000000177a0869a911a2b65c9bdcd5a8bcb02b68f305bee848e",
    "block_time": 1710308296
  },
  "hex": "02000000000101f50a28c2447b3356e2247660f6d5f3f49361fc8258e1a4d7e8cf9d657877e74e1300000000ffffffff0122020000000000001600143e2325412b554cacdd163a93a42204c4707f885103406bb4170e5045c43167e5ad4c48cb4b13ce430ffe6c01c141c86a193f7b6637365a57ba4fb3d23dd71b34d05c292376c0eb292f2849082f4176bde0b97854c7607b20f9f5605ddfeb01af416bb72bd67704c6e0ef95894783c22ca06c9d042d81d4c3ac0063036f7264010118746578742f706c61696e3b636861727365743d7574662d3800357b2270223a224252432d313030222c226f70223a226d696e74222c227469636b223a22696e73222c22616d74223a2231303030227d6821c0c50eac15d7d7889f5ad84f80015e8a209129aeea937c37fa4b8bc0f9be28973000000000"
}