{
  "txid": "881f33f0b38947e6f66bf1b7ceb3bf55e7d4586c9ce107134bdc464dffc72d4d",
  "version": 2,
  "locktime": 0,
  "vin": [
    {
      "txid": "e054c137725b7a5d163dade8f5cd68c0927a2e8b00d920927dab9a7ba934ce5f",
      "vout": 17,
      "prevout": {
        "scriptpubkey": "51208ba86b0e4b55287781ba06fca27f981755fa15797cbf999f5607a8010915c42b",
        "scriptpubkey_asm": "OP_PUSHNUM_1 OP_PUSHBYTES_32 8ba86b0e4b55287781ba06fca27f981755fa15797cbf999f5607a8010915c42b",
        "scriptpubkey_type": "v1_p2tr",
        "scriptpubkey_address": "bc1p3w5xkrjt25580qd6qm72ylucza2l59te0jlen86kq75qzzg4cs4s7mq92k",
        "value": 2658
      },
      "scriptsig": "",
      "scriptsig_asm": "",
      "witness": [
        "eccbccef3587702b48070c38981e4052c13c9fa888cdb66d2b19819d5b18c13c75f0efbcd2314f2c0b08851aaf853f89c1b600336138d6be8c2b1b26985c4fcb",
        "20ac39ad1709cdedab5051f7170043805f469d9cbc55eac7d0cf0a8a5a676a294eac0063036f726401011e6170706c69636174696f6e2f6a736f6e3b636861727365743d7574662d38004cbf7b2270223a22706f772d3230222c226f70223a226d696e74222c227469636b223a2250455045222c22616d74223a2231303030222c22736f6c7574696f6e223a22504550453a6263317139736a36303977756e7468646a636d7a746a796379766475616e653071716b78726e773932653a303030303030303030303030303030303030303139393431613561653132383937363539383134343239323533333030353762306461393666336465613163353a3134373634313335313538227d68",
        "c0a0e509a599b6542378e5ac7959d344a1bebc95ec9899fd4ccf1904beefe3f047"
      ],
      "is_coinbase": false,
      "sequence": 4294967295
    }
  ],
  "vout": [
    {
      "scriptpubkey": "00142c25a795dc9aeed963625c898231bcecf2f002c6",
      "scriptpubkey_asm": "OP_0 OP_PUSHBYTES_20 2c25a795dc9aeed963625c898231bcecf2f002c6",
      "scriptpubkey_type": "v0_p2wpkh",
      "scriptpubkey_address": "bc1q9sj609wunthdjcmztjycyvduane0qqkxrnw92e",
      "value": 546
    }
  ],
  "size": 455,
  "weight": 701,
  "fee": 2112,
  "status": {
    "confirmed": true,
    "block_height": 834460,
    "block_hash": "00000000000000000000484a79b643b2524bbce82e5d8a442013fa5b8905ed98",
    "block_time": 1710307468
  },
  "hex": "020000000001015fce34a97b9aab7d9220d9008b2e7a92c068cdf5e8ad3d165d7a5b7237c154e01100000000ffffffff0122020000000000001600142c25a795dc9aeed963625c898231bcecf2f002c60340eccbccef3587702b48070c38981e4052c13c9fa888cdb66d2b19819d5b18c13c75f0efbcd2314f2c0b08851aaf853f89c1b600336138d6be8c2b1b26985c4fcbfd0c0120ac39ad1709cdedab5051f7170043805f469d9cbc55eac7d0cf0a8a5a676a294eac0063036f726401011e6170706c69636174696f6e2f6a736f6e3b636861727365743d7574662d38004cbf7b2270223a22706f772d3230222c226f70223a226d696e74222c227469636b223a2250455045222c22616d74223a2231303030222c22736f6c7574696f6e223a22504550453a6263317139736a36303977756e7468646a636d7a746a796379766475616e653071716b78726e773932653a303030303030303030303030303030303030303139393431613561653132383937363539383134343239323533333030353762306461393666336465613163353a3134373634313335313538227d6821c0a0e509a599b6542378e5ac7959d344a1bebc95ec9899fd4ccf1904beefe3f04700000000"
}