{
  "txid": "88259a5412270ef7d7ad5e193bd1fb80116876572be64e5ed4ee0655a90663ea",
  "version": 2,
  "locktime": 0,
  "vin": [
    {
      "txid": "43a08b5f7c255108d248e0555f2228ddc3cbbfbd6bce222c5f0b013ed49922a8",
      "vout": 0,
      "prevout": {
        "scriptpubkey": "001487339717e717b53415b9097890ce7d459001f214",
        "scriptpubkey_asm": "OP_0 OP_PUSHBYTES_20 87339717e717b53415b9097890ce7d459001f214",
        "scriptpubkey_type": "v0_p2wpkh",
        "scriptpubkey_address": "bc1qsueew9l8z76ng9dep9ufpnnagkgqrus5c4wupu",
        "value": 149498
      },
      "scriptsig": "",
      "scriptsig_asm": "",
      "witness": [
        "30440220253e9be7b2ff213482e3146567fb0ac05528edabd3cafbc3e0e284500a4b40dc02203c03b914e7799b7ef9d3359aa869200dac18011f3fe519e30b34ecb583213bb401",
        "03aa35cf61cd13ade8c6720548186debe3deb933fb4d2952083232dfb5fed35262"
      ],
      "is_coinbase": false,
      "sequence": 4294967295
    },
    {
      "txid": "8fd9d2065f56374aca67ca91ad91c0ce92b7b63ba353c3d003e889b7a6f3380b",
      "vout": 0,
      "prevout": {
        "scriptpubkey": "001487339717e717b53415b9097890ce7d459001f214",
        "scriptpubkey_asm": "OP_0 OP_PUSHBYTES_20 87339717e717b53415b9097890ce7d459001f214",
        "scriptpubkey_type": "v0_p2wpkh",
        "scriptpubkey_address": "bc1qsueew9l8z76ng9dep9ufpnnagkgqrus5c4wupu",
        "value": 6440
      },
      "scriptsig": "",
      "scriptsig_asm": "",
      "witness": [
        "304502210097fdaa37e30223a3a597b4c9b717a614a8f9ce9fddc32ca78ee765e22f487893022070b540997d95a83296c385263eb5157882b4d4172819f24be978b7e19a87838001",
        "03aa35cf61cd13ade8c6720548186debe3deb933fb4d2952083232dfb5fed35262"
      ],
      "is_coinbase": false,
      "sequence": 4294967295
    }
  ],
  "vout": [
    {
      "scriptpubkey": "76a9142acde74349633336f87c0e6172d108da7847f32f88ac",
      "scriptpubkey_asm": "OP_DUP OP_HASH160 OP_PUSHBYTES_20 2acde74349633336f87c0e6172d108da7847f32f OP_EQUALVERIFY OP_CHECKSIG",
      "scriptpubkey_type": "p2pkh",
      "scriptpubkey_address": "14uL3UV5tjhKmKagTSEa6UkF2S3pxjZNER",
      "value": 21907
    },
    {
      "scriptpubkey": "001487339717e717b53415b9097890ce7d459001f214",
      "scriptpubkey_asm": "OP_0 OP_PUSHBYTES_20 87339717e717b53415b9097890ce7d459001f214",
      "scriptpubkey_type": "v0_p2wpkh",
      "scriptpubkey_address": "bc1qsueew9l8z76ng9dep9ufpnnagkgqrus5c4wupu",
      "value": 130086
    }
  ],
  "size": 374,
  "weight": 845,
  "fee": 3945,
  "status": {
    "confirmed": true,
    "block_height": 834638,
    "block_hash": "000000000000000000025f742c626208ac87e0b7d15054abb4a19ca2d735a54e",
    "block_time": 1710405325
  },
  "hex": "02000000000102a82299d43e010b5f2c22ce6bbdbfcbc3dd28225f55e048d20851257c5f8ba0430000000000ffffffff0b38f3a6b789e803d0c353a33bb6b792cec091ad91ca67ca4a37565f06d2d98f0000000000ffffffff0293550000000000001976a9142acde74349633336f87c0e6172d108da7847f32f88ac26fc01000000000016001487339717e717b53415b9097890ce7d459001f214024730440220253e9be7b2ff213482e3146567fb0ac05528edabd3cafbc3e0e284500a4b40dc02203c03b914e7799b7ef9d3359aa869200dac18011f3fe519e30b34ecb583213bb4012103aa35cf61cd13ade8c6720548186debe3deb933fb4d2952083232dfb5fed352620248304502210097fdaa37e30223a3a597b4c9b717a614a8f9ce9fddc32ca78ee765e22f487893022070b540997d95a83296c385263eb5157882b4d4172819f24be978b7e19a878380012103aa35cf61cd13ade8c6720548186debe3deb933fb4d2952083232dfb5fed3526200000000"
}