{
  "txid": "8837c643f7f3b1f69bc64edfed58a79b48488d4e6ea3a0aa5827f91b0e11d369",
  "version": 2,
  "locktime": 0,
  "vin": [
    {
      "txid": "b13bb5512a4904c28a6b7957b88edf574e8cb23551fc1dcfe22d6b239df42cf4",
      "vout": 25,
      "prevout": {
        "scriptpubkey": "51203a2381da7c8ab6e04cf93cd40d79afa796ea6dbb389841b32e44dbbe3f8bacc3",
        "scriptpubkey_asm": "OP_PUSHNUM_1 OP_PUSHBYTES_32 3a2381da7c8ab6e04cf93cd40d79afa796ea6dbb389841b32e44dbbe3f8bacc3",
        "scriptpubkey_type": "v1_p2tr",
        "scriptpubkey_address": "bc1p8g3crknu32mwqn8e8n2q67d057tw5mdm8zvyrvewgndmu0ut4npsaxsq68",
        "value": 2575
      },
      "scriptsig": "",
      "scriptsig_asm": "",
      "witness": [
        "f47a149627db7829310b96d891299b4cb7c3df1bd27ef643db67897c2f97a2a8c369af346c279ef5af22fc1c034fc5af231d102ec3d321d5e234d8fbfeb1faab",
        "20b4625776e78d0c1097bbf4f566115f2b5ee0cacede8b33c3f2d1d9817ca580c6ac0063036f726401010a746578742f706c61696e00367b2270223a226272632d3230222c226f70223a226d696e74222c227469636b223a2261616161222c22616d74223a223130303030227d68",
        "c1b4625776e78d0c1097bbf4f566115f2b5ee0cacede8b33c3f2d1d9817ca580c6"
      ],
      "is_coinbase": false,
      "sequence": 4261412863
    }
  ],
  "vout": [
    {
      "scriptpubkey": "0014ce0b5aa0dac72397a8aa5a85d90a2cfb46f0f630",
      "scriptpubkey_asm": "OP_0 OP_PUSHBYTES_20 ce0b5aa0dac72397a8aa5a85d90a2cfb46f0f630",
      "scriptpubkey_type": "v0_p2wpkh",
      "scriptpubkey_address": "bc1qec944gx6cu3e0292t2zajz3vldr0pa3sh356d9",
      "value": 546
    }
  ],
  "size": 295,
  "weight": 541,
  "fee": 2029,
  "status": {
    "confirmed": true,
    "block_height": 834464,
    "block_hash": "0000000000000000000177a0869a911a2b65c9bdcd5a8bcb02b68f305bee848e",
    "block_time": 1710308296
  },
  "hex": "02000000000101f42cf49d236b2de2cf1dfc5135b28c4e57df8eb857796b8ac204492a51b53bb11900000000fffffffd012202000000000000160014ce0b5aa0dac72397a8aa5a85d90a2cfb46f0f6300340f47a149627db7829310b96d891299b4cb7c3df1bd27ef643db67897c2f97a2a8c369af346c279ef5af22fc1c034fc5af231d102ec3d321d5e234d8fbfeb1faab6e20b4625776e78d0c1097bbf4f566115f2b5ee0cacede8b33c3f2d1d9817ca580c6ac0063036f726401010a746578742f706c61696e00367b2270223a226272632d3230222c226f70223a226d696e74222c227469636b223a2261616161222c22616d74223a223130303030227d6821c1b4625776e78d0c1097bbf4f566115f2b5ee0cacede8b33c3f2d1d9817ca580c600000000"
}