{
  "txid": "88410e3cec606eeb8f541059246f9eec996f8c9f0e34b8a26cb4dc074eab74a1",
  "version": 2,
  "locktime": 834148,
  "vin": [
    {
      "txid": "df79749daca99309ba17aea025d13fc559623b743b2939825da44c412b768b53",
      "vout": 1,
      "prevout": {
        "scriptpubkey": "00144eefeaaa86b7752df87b1bffecce3f4a72433630",
        "scriptpubkey_asm": "OP_0 OP_PUSHBYTES_20 4eefeaaa86b7752df87b1bffecce3f4a72433630",
        "scriptpubkey_type": "v0_p2wpkh",
        "scriptpubkey_address": "bc1qfmh7425xka6jm7rmr0l7en3lffeyxd3sxyn3jg",
        "value": 60855
      },
      "scriptsig": "",
      "scriptsig_asm": "",
      "witness": [
        "304402201752b984467fd2dbd56149fe652939ffffaa5ed9d664a6657c7c730beae842a302206ebece74e6cf40f4718427a97a966eb15cee9e243428b678b8d1f34eeffe106401",
        "03a971dd55ee14dc88a603854175954d823a1ad89c8c3c36494230d061ba85f046"
      ],
      "is_coinbase": false,
      "sequence": 4294967293
    }
  ],
  "vout": [
    {
      "scriptpubkey": "0014af31224154c9f3ffeaa800a5f443b8f10046bdc5",
      "scriptpubkey_asm": "OP_0 OP_PUSHBYTES_20 af31224154c9f3ffeaa800a5f443b8f10046bdc5",
      "scriptpubkey_type": "v0_p2wpkh",
      "scriptpubkey_address": "bc1q4ucjys25e8ell64gqzjlgsac7yqyd0w9jcu0gy",
      "value": 8529
    },
    {
      "scriptpubkey": "0014c30889cdaf08224786357f0d95b75824fa97a5b5",
      "scriptpubkey_asm": "OP_0 OP_PUSHBYTES_20 c30889cdaf08224786357f0d95b75824fa97a5b5",
      "scriptpubkey_type": "v0_p2wpkh",
      "scriptpubkey_address": "bc1qcvygnnd0pq3y0p340uxetd6cynaf0fd4a4dgd0",
      "value": 50775
    }
  ],
  "size": 222,
  "weight": 561,
  "fee": 1551,
  "status": {
    "confirmed": true,
    "block_height": 834464,
    "block_hash": "0000000000000000000177a0869a911a2b65c9bdcd5a8bcb02b68f305bee848e",
    "block_time": 1710308296
  },
  "hex": "02000000000101538b762b414ca45d8239293b743b6259c53fd125a0ae17ba0993a9ac9d7479df0100000000fdffffff025121000000000000160014af31224154c9f3ffeaa800a5f443b8f10046bdc557c6000000000000160014c30889cdaf08224786357f0d95b75824fa97a5b50247304402201752b984467fd2dbd56149fe652939ffffaa5ed9d664a6657c7c730beae842a302206ebece74e6cf40f4718427a97a966eb15cee9e243428b678b8d1f34eeffe1064012103a971dd55ee14dc88a603854175954d823a1ad89c8c3c36494230d061ba85f04664ba0c00"
}