{
  "txid": "8856c8742cb8f53f03bba5cfdbf6a0a871a6d5e5608d73a47aad69ec45ba1631",
  "version": 1,
  "locktime": 0,
  "vin": [
    {
      "txid": "38358096a21a658f02e96fd55914943c9a35a3a14b871061fb7fe5764a392a45",
      "vout": 1,
      "prevout": {
        "scriptpubkey": "00207250d91085a77a4568fa4cfd5bebb59f0b9cb3530f8154cd4fab6d28abd548fe",
        "scriptpubkey_asm": "OP_0 OP_PUSHBYTES_32 7250d91085a77a4568fa4cfd5bebb59f0b9cb3530f8154cd4fab6d28abd548fe",
        "scriptpubkey_type": "v0_p2wsh",
        "scriptpubkey_address": "bc1qwfgdjyy95aay2686fn74h6a4nu9eev6np7q4fn204dkj3274frlqrskvx0",
        "value": 191188256
      },
      "scriptsig": "",
      "scriptsig_asm": "",
      "witness": [
        "",
        "3045022100bbd03a636a2a55d88aa1cf8d7771fd5b3c48cfb96d3fefe7c15d1de49be3fc3e02200623388b5c41f8e4d9daedb31ce288a1804988143fb7571c3b7e8878e5ffca2501",
        "30440220032d85772d1e247cdc32116997335285e5a7e69fea7483efa2e7b45f0d2a555b022070d730c9a1c4d7e40633a16a0f226b9f1187db416525ffef9975325ac1da6cd001",
        "5221030fac04165b606dea3b8f81ada5eb66ca181d5215c873fcf46623ea7cf8e98b1b2102b7836a2a9d3ff095415383cb23a5f4f1badd75e44adb17537962eafe3ded3b602102f8cb472df1ae03cfa6b65b013add7862c7d3ac3684a8a92a44192faace228aee53ae"
      ],
      "is_coinbase": false,
      "sequence": 4294967295,
      "inner_witnessscript_asm": "OP_PUSHNUM_2 OP_PUSHBYTES_33 030fac04165b606dea3b8f81ada5eb66ca181d5215c873fcf46623ea7cf8e98b1b OP_PUSHBYTES_33 02b7836a2a9d3ff095415383cb23a5f4f1badd75e44adb17537962eafe3ded3b60 OP_PUSHBYTES_33 02f8cb472df1ae03cfa6b65b013add7862c7d3ac3684a8a92a44192faace228aee OP_PUSHNUM_3 OP_CHECKMULTISIG"
    }
  ],
  "vout": [
    {
      "scriptpubkey": "00149999acc4c05bc0ac22397bcae36783e45768944d",
      "scriptpubkey_asm": "OP_0 OP_PUSHBYTES_20 9999acc4c05bc0ac22397bcae36783e45768944d",
      "scriptpubkey_type": "v0_p2wpkh",
      "scriptpubkey_address": "bc1qnxv6e3xqt0q2cg3e009wxeuru3tk39zdryn0zp",
      "value": 19379
    },
    {
      "scriptpubkey": "00207250d91085a77a4568fa4cfd5bebb59f0b9cb3530f8154cd4fab6d28abd548fe",
      "scriptpubkey_asm": "OP_0 OP_PUSHBYTES_32 7250d91085a77a4568fa4cfd5bebb59f0b9cb3530f8154cd4fab6d28abd548fe",
      "scriptpubkey_type": "v0_p2wsh",
      "scriptpubkey_address": "bc1qwfgdjyy95aay2686fn74h6a4nu9eev6np7q4fn204dkj3274frlqrskvx0",
      "value": 191165117
    }
  ],
  "size": 380,
  "weight": 755,
  "fee": 3760,
  "status": {
    "confirmed": true,
    "block_height": 834638,
    "block_hash": "000000000000000000025f742c626208ac87e0b7d15054abb4a19ca2d735a54e",
    "block_time": 1710405325
  },
  "hex": "01000000000101452a394a76e57ffb6110874ba1a3359a3c941459d56fe9028f651aa2968035380100000000ffffffff02b34b0000000000001600149999acc4c05bc0ac22397bcae36783e45768944dbdf2640b000000002200207250d91085a77a4568fa4cfd5bebb59f0b9cb3530f8154cd4fab6d28abd548fe0400483045022100bbd03a636a2a55d88aa1cf8d7771fd5b3c48cfb96d3fefe7c15d1de49be3fc3e02200623388b5c41f8e4d9daedb31ce288a1804988143fb7571c3b7e8878e5ffca25014730440220032d85772d1e247cdc32116997335285e5a7e69fea7483efa2e7b45f0d2a555b022070d730c9a1c4d7e40633a16a0f226b9f1187db416525ffef9975325ac1da6cd001695221030fac04165b606dea3b8f81ada5eb66ca181d5215c873fcf46623ea7cf8e98b1b2102b7836a2a9d3ff095415383cb23a5f4f1badd75e44adb17537962eafe3ded3b602102f8cb472df1ae03cfa6b65b013add7862c7d3ac3684a8a92a44192faace228aee53ae00000000"
}