{
  "txid": "88588f6378a395181fccbf09117c6bf7ff237d6647406fb17d9c37d9a25149d8",
  "version": 2,
  "locktime": 0,
  "vin": [
    {
      "txid": "8e775d06f761902dedad1512f9764722f2b12ae71ac6c1a9ed518078afbbc16f",
      "vout": 1,
      "prevout": {
        "scriptpubkey": "512099785cec106a4f53b5f0128152c8e600a984aced525a64135c355833e2a847ab",
        "scriptpubkey_asm": "OP_PUSHNUM_1 OP_PUSHBYTES_32 99785cec106a4f53b5f0128152c8e600a984aced525a64135c355833e2a847ab",
        "scriptpubkey_type": "v1_p2tr",
        "scriptpubkey_address": "bc1pn9u9emqsdf848d0sz2q49j8xqz5cft8d2fdxgy6ux4vr8c4gg74sfxnkua",
        "value": 10540
      },
      "scriptsig": "",
      "scriptsig_asm": "",
      "witness": [
        "26957445b162647f7448250b0747fc48706323cac724bc34809143a6b37377407198f6a5bb4347011207f140fe587378b12113eb3ed4d95a28451211e264d35f"
      ],
      "is_coinbase": false,
      "sequence": 4294967293
    }
  ],
  "vout": [
    {
      "scriptpubkey": "5120d0150338046f520bd30971c5bd92d4426ebfc2bc9630564ef38c1dadfdfebc1e",
      "scriptpubkey_asm": "OP_PUSHNUM_1 OP_PUSHBYTES_32 d0150338046f520bd30971c5bd92d4426ebfc2bc9630564ef38c1dadfdfebc1e",
      "scriptpubkey_type": "v1_p2tr",
      "scriptpubkey_address": "bc1p6q2sxwqydafqh5cfw8zmmyk5gfhtls4ujcc9vnhn3sw6ml07hs0qetmnqp",
      "value": 2218
    },
    {
      "scriptpubkey": "512099785cec106a4f53b5f0128152c8e600a984aced525a64135c355833e2a847ab",
      "scriptpubkey_asm": "OP_PUSHNUM_1 OP_PUSHBYTES_32 99785cec106a4f53b5f0128152c8e600a984aced525a64135c355833e2a847ab",
      "scriptpubkey_type": "v1_p2tr",
      "scriptpubkey_address": "bc1pn9u9emqsdf848d0sz2q49j8xqz5cft8d2fdxgy6ux4vr8c4gg74sfxnkua",
      "value": 6628
    }
  ],
  "size": 205,
  "weight": 616,
  "fee": 1694,
  "status": {
    "confirmed": true,
    "block_height": 834464,
    "block_hash": "0000000000000000000177a0869a911a2b65c9bdcd5a8bcb02b68f305bee848e",
    "block_time": 1710308296
  },
  "hex": "020000000001016fc1bbaf788051eda9c1c61ae72ab1f2224776f91215aded2d9061f7065d778e0100000000fdffffff02aa08000000000000225120d0150338046f520bd30971c5bd92d4426ebfc2bc9630564ef38c1dadfdfebc1ee41900000000000022512099785cec106a4f53b5f0128152c8e600a984aced525a64135c355833e2a847ab014026957445b162647f7448250b0747fc48706323cac724bc34809143a6b37377407198f6a5bb4347011207f140fe587378b12113eb3ed4d95a28451211e264d35f00000000"
}