{
  "txid": "885b538b492494e20bdb1cf146226229d29aae3c94942faaa8fe7fe84295fd30",
  "version": 2,
  "locktime": 0,
  "vin": [
    {
      "txid": "c10e48caeee8756d57fbce0e4f26c1d08bb9f0d4a35c2d26269682da8df04dac",
      "vout": 57,
      "prevout": {
        "scriptpubkey": "5120a48f139352847e896f6a38b049471c59b91e164c8b51e3a5c670d2c231401b49",
        "scriptpubkey_asm": "OP_PUSHNUM_1 OP_PUSHBYTES_32 a48f139352847e896f6a38b049471c59b91e164c8b51e3a5c670d2c231401b49",
        "scriptpubkey_type": "v1_p2tr",
        "scriptpubkey_address": "bc1p5j838y6js3lgjmm28zcyj3cutxu3u9jv3dg78fwxwrfvyv2qrdysqlknvj",
        "value": 3634
      },
      "scriptsig": "",
      "scriptsig_asm": "",
      "witness": [
        "7eb60a57c14de8b14f4b9a5b71548f4e0593c896cb398316d14f57f3f80c79df29e4484e012ad1832a6aeb6e0e74c7b10d4a9a96be9d35c5dfbc5a271e0fdf75",
        "208af3fc7a56178d36c29d4d6dbaa586194a821352b66e0d40af6884e8e056908dac0063036f726401011e6170706c69636174696f6e2f6a736f6e3b636861727365743d7574662d38004cd37b2270223a22706f772d3230222c226f70223a226d696e74222c227469636b223a2250455045222c22616d74223a2231303030222c22736f6c7574696f6e223a22504550453a6263317071336e67663775716e73667434706d37357236397371616c6c30637068747278677773757a6d657864356c337039333566366d713666337664383a303030303030303030303030303030303030303139393431613561653132383937363539383134343239323533333030353762306461393666336465613163353a3432393634363336363536227d68",
        "c1406c0f2a67700582b42f36a71eb03478d57ba1acdc179ee1ec758acb282de3fd"
      ],
      "is_coinbase": false,
      "sequence": 4294967295
    }
  ],
  "vout": [
    {
      "scriptpubkey": "5120046684fb809c12ba877ea0f45803bffbf01bac6643a1c16f266d3f1096344eb6",
      "scriptpubkey_asm": "OP_PUSHNUM_1 OP_PUSHBYTES_32 046684fb809c12ba877ea0f45803bffbf01bac6643a1c16f266d3f1096344eb6",
      "scriptpubkey_type": "v1_p2tr",
      "scriptpubkey_address": "bc1pq3ngf7uqnsft4pm75r69sqall0cphtrxgwsuzmexd5l3p935f6mq6f3vd8",
      "value": 546
    }
  ],
  "size": 487,
  "weight": 769,
  "fee": 3088,
  "status": {
    "confirmed": true,
    "block_height": 834460,
    "block_hash": "00000000000000000000484a79b643b2524bbce82e5d8a442013fa5b8905ed98",
    "block_time": 1710307468
  },
  "hex": "02000000000101ac4df08dda829626262d5ca3d4f0b98bd0c1264f0ecefb576d75e8eeca480ec13900000000ffffffff012202000000000000225120046684fb809c12ba877ea0f45803bffbf01bac6643a1c16f266d3f1096344eb603407eb60a57c14de8b14f4b9a5b71548f4e0593c896cb398316d14f57f3f80c79df29e4484e012ad1832a6aeb6e0e74c7b10d4a9a96be9d35c5dfbc5a271e0fdf75fd2001208af3fc7a56178d36c29d4d6dbaa586194a821352b66e0d40af6884e8e056908dac0063036f726401011e6170706c69636174696f6e2f6a736f6e3b636861727365743d7574662d38004cd37b2270223a22706f772d3230222c226f70223a226d696e74222c227469636b223a2250455045222c22616d74223a2231303030222c22736f6c7574696f6e223a22504550453a6263317071336e67663775716e73667434706d37357236397371616c6c30637068747278677773757a6d657864356c337039333566366d713666337664383a303030303030303030303030303030303030303139393431613561653132383937363539383134343239323533333030353762306461393666336465613163353a3432393634363336363536227d6821c1406c0f2a67700582b42f36a71eb03478d57ba1acdc179ee1ec758acb282de3fd00000000"
}