{
  "txid": "88636e66e0d266dcdc7520cb8fc311bf6087bc34d1f6005a6d2f6c85854e0aea",
  "version": 1,
  "locktime": 0,
  "vin": [
    {
      "txid": "9b224ad62ab1c70f1660fc3d051083fae13108e907a385db265d22aecfabd65a",
      "vout": 1,
      "prevout": {
        "scriptpubkey": "51209d6dbbf9bad17d0135e06ea56ec304df985f9f9bc809fa52ae6789a0947e0300",
        "scriptpubkey_asm": "OP_PUSHNUM_1 OP_PUSHBYTES_32 9d6dbbf9bad17d0135e06ea56ec304df985f9f9bc809fa52ae6789a0947e0300",
        "scriptpubkey_type": "v1_p2tr",
        "scriptpubkey_address": "bc1pn4kmh7d6697szd0qd6jkascym7v9l8umeqyl554wv7y6p9r7qvqquzkndh",
        "value": 362477
      },
      "scriptsig": "",
      "scriptsig_asm": "",
      "witness": [
        "9bfeabdb78435e6b328456c6e6536aa13f004be9fa6f102cfefead8650ba390610fd149f21284cabd7ef83ca78fa75bc04449b5d2683b7060a374fb14f35f848"
      ],
      "is_coinbase": false,
      "sequence": 2147484415
    }
  ],
  "vout": [
    {
      "scriptpubkey": "51209fcc490c88aae8b556bbeb78315e34e9bd622a3c31af3698c0afa4631aba7a8f",
      "scriptpubkey_asm": "OP_PUSHNUM_1 OP_PUSHBYTES_32 9fcc490c88aae8b556bbeb78315e34e9bd622a3c31af3698c0afa4631aba7a8f",
      "scriptpubkey_type": "v1_p2tr",
      "scriptpubkey_address": "bc1pnlxyjryg4t5t244madurzh35ax7ky23uxxhndxxq47jxxx46028sa08rmx",
      "value": 2764
    },
    {
      "scriptpubkey": "51209d6dbbf9bad17d0135e06ea56ec304df985f9f9bc809fa52ae6789a0947e0300",
      "scriptpubkey_asm": "OP_PUSHNUM_1 OP_PUSHBYTES_32 9d6dbbf9bad17d0135e06ea56ec304df985f9f9bc809fa52ae6789a0947e0300",
      "scriptpubkey_type": "v1_p2tr",
      "scriptpubkey_address": "bc1pn4kmh7d6697szd0qd6jkascym7v9l8umeqyl554wv7y6p9r7qvqquzkndh",
      "value": 357865
    }
  ],
  "size": 205,
  "weight": 616,
  "fee": 1848,
  "status": {
    "confirmed": true,
    "block_height": 834460,
    "block_hash": "00000000000000000000484a79b643b2524bbce82e5d8a442013fa5b8905ed98",
    "block_time": 1710307468
  },
  "hex": "010000000001015ad6abcfae225d26db85a307e90831e1fa8310053dfc60160fc7b12ad64a229b0100000000ff02008002cc0a0000000000002251209fcc490c88aae8b556bbeb78315e34e9bd622a3c31af3698c0afa4631aba7a8fe9750500000000002251209d6dbbf9bad17d0135e06ea56ec304df985f9f9bc809fa52ae6789a0947e030001409bfeabdb78435e6b328456c6e6536aa13f004be9fa6f102cfefead8650ba390610fd149f21284cabd7ef83ca78fa75bc04449b5d2683b7060a374fb14f35f84800000000"
}