{
  "txid": "88888889c16ac289e7788fe16ba2064d4cf8c5c94d23fe5ce572cf342ca0f5d7",
  "version": 1,
  "locktime": 0,
  "vin": [
    {
      "txid": "70000f44659783b53221edd4dc6dad158d85b3b3140f5c99de1db4951db6f5ee",
      "vout": 18,
      "prevout": {
        "scriptpubkey": "5120b8371c918973da24ab00bd42877054a21c9aa9adffbbb3deeb53968b28ebb159",
        "scriptpubkey_asm": "OP_PUSHNUM_1 OP_PUSHBYTES_32 b8371c918973da24ab00bd42877054a21c9aa9adffbbb3deeb53968b28ebb159",
        "scriptpubkey_type": "v1_p2tr",
        "scriptpubkey_address": "bc1phqm3eyvfw0dzf2cqh4pgwuz55gwf42ddl7am8hht2wtgk28tk9vs42kmes",
        "value": 14847
      },
      "scriptsig": "",
      "scriptsig_asm": "",
      "witness": [
        "d428ee4b544e053d2370432612a715055852162b4c641712d7a626651be44f4ef8dfcb0185550244b8faa82863a29f79ea6a38a8422e82d7cfb53c32ddebcb78"
      ],
      "is_coinbase": false,
      "sequence": 1078771002
    }
  ],
  "vout": [
    {
      "scriptpubkey": "5120ce914d401807cdbdc908a098d9baa08635784a15835f757657c471d110e9da7c",
      "scriptpubkey_asm": "OP_PUSHNUM_1 OP_PUSHBYTES_32 ce914d401807cdbdc908a098d9baa08635784a15835f757657c471d110e9da7c",
      "scriptpubkey_type": "v1_p2tr",
      "scriptpubkey_address": "bc1pe6g56sqcqlxmmjgg5zvdnw4qsc6hsjs4sd0h2ajhc3cazy8fmf7qz6dldu",
      "value": 11627
    },
    {
      "scriptpubkey": "5120b8371c918973da24ab00bd42877054a21c9aa9adffbbb3deeb53968b28ebb159",
      "scriptpubkey_asm": "OP_PUSHNUM_1 OP_PUSHBYTES_32 b8371c918973da24ab00bd42877054a21c9aa9adffbbb3deeb53968b28ebb159",
      "scriptpubkey_type": "v1_p2tr",
      "scriptpubkey_address": "bc1phqm3eyvfw0dzf2cqh4pgwuz55gwf42ddl7am8hht2wtgk28tk9vs42kmes",
      "value": 1526
    }
  ],
  "size": 205,
  "weight": 616,
  "fee": 1694,
  "status": {
    "confirmed": true,
    "block_height": 834464,
    "block_hash": "0000000000000000000177a0869a911a2b65c9bdcd5a8bcb02b68f305bee848e",
    "block_time": 1710308296
  },
  "hex": "01000000000101eef5b61d95b41dde995c0f14b3b3858d15ad6ddcd4ed2132b5839765440f007012000000003abd4c40026b2d000000000000225120ce914d401807cdbdc908a098d9baa08635784a15835f757657c471d110e9da7cf605000000000000225120b8371c918973da24ab00bd42877054a21c9aa9adffbbb3deeb53968b28ebb1590140d428ee4b544e053d2370432612a715055852162b4c641712d7a626651be44f4ef8dfcb0185550244b8faa82863a29f79ea6a38a8422e82d7cfb53c32ddebcb7800000000"
}