{
  "txid": "888888888dc9f154173c3e0748c369cfa919f59fa6c71e6f6e3569d0e65ce8ba",
  "version": 1,
  "locktime": 0,
  "vin": [
    {
      "txid": "888888888aebbcbb57f75c2b2ddbc3935073e86731e3196038dc67a45df478c4",
      "vout": 1,
      "prevout": {
        "scriptpubkey": "512093db24fa9a31d03624560c24bc678ef6143e8cbb4fe9cd39f5f731f7beabf37e",
        "scriptpubkey_asm": "OP_PUSHNUM_1 OP_PUSHBYTES_32 93db24fa9a31d03624560c24bc678ef6143e8cbb4fe9cd39f5f731f7beabf37e",
        "scriptpubkey_type": "v1_p2tr",
        "scriptpubkey_address": "bc1pj0djf756x8grvfzkpsjtceuw7c2rar9mfl5u6w047ucl004t7dlqge98q0",
        "value": 5512448
      },
      "scriptsig": "",
      "scriptsig_asm": "",
      "witness": [
        "3437b8058c1f1d9c578326b486cfc2f1aaa439e04862304be496777f5eb571c871efe2176b7380f854aec0b2d9b5b19172c2512ba962c1ba496296d96778f258"
      ],
      "is_coinbase": false,
      "sequence": 1407676897
    }
  ],
  "vout": [
    {
      "scriptpubkey": "5120b88700b6ea3284c85629a98de76700516cd52eaeabb6312c44a906d0d9d8195b",
      "scriptpubkey_asm": "OP_PUSHNUM_1 OP_PUSHBYTES_32 b88700b6ea3284c85629a98de76700516cd52eaeabb6312c44a906d0d9d8195b",
      "scriptpubkey_type": "v1_p2tr",
      "scriptpubkey_address": "bc1phzrspdh2x2zvs43f4xx7wecq29kd2t4w4wmrztzy4yrdpkwcr9ds7dkwz7",
      "value": 12071
    },
    {
      "scriptpubkey": "512093db24fa9a31d03624560c24bc678ef6143e8cbb4fe9cd39f5f731f7beabf37e",
      "scriptpubkey_asm": "OP_PUSHNUM_1 OP_PUSHBYTES_32 93db24fa9a31d03624560c24bc678ef6143e8cbb4fe9cd39f5f731f7beabf37e",
      "scriptpubkey_type": "v1_p2tr",
      "scriptpubkey_address": "bc1pj0djf756x8grvfzkpsjtceuw7c2rar9mfl5u6w047ucl004t7dlqge98q0",
      "value": 5498221
    }
  ],
  "size": 205,
  "weight": 616,
  "fee": 2156,
  "status": {
    "confirmed": true,
    "block_height": 834460,
    "block_hash": "00000000000000000000484a79b643b2524bbce82e5d8a442013fa5b8905ed98",
    "block_time": 1710307468
  },
  "hex": "01000000000101c478f45da467dc386019e33167e8735093c3db2d2b5cf757bbbceb8a888888880100000000e171e75302272f000000000000225120b88700b6ea3284c85629a98de76700516cd52eaeabb6312c44a906d0d9d8195b6de553000000000022512093db24fa9a31d03624560c24bc678ef6143e8cbb4fe9cd39f5f731f7beabf37e01403437b8058c1f1d9c578326b486cfc2f1aaa439e04862304be496777f5eb571c871efe2176b7380f854aec0b2d9b5b19172c2512ba962c1ba496296d96778f25800000000"
}