{
  "txid": "8888888353507aaef23d6ebe4b4cf8710e6b7956bcf5b226a4ee9100f222ecba",
  "version": 1,
  "locktime": 0,
  "vin": [
    {
      "txid": "70000f44659783b53221edd4dc6dad158d85b3b3140f5c99de1db4951db6f5ee",
      "vout": 5,
      "prevout": {
        "scriptpubkey": "5120b8371c918973da24ab00bd42877054a21c9aa9adffbbb3deeb53968b28ebb159",
        "scriptpubkey_asm": "OP_PUSHNUM_1 OP_PUSHBYTES_32 b8371c918973da24ab00bd42877054a21c9aa9adffbbb3deeb53968b28ebb159",
        "scriptpubkey_type": "v1_p2tr",
        "scriptpubkey_address": "bc1phqm3eyvfw0dzf2cqh4pgwuz55gwf42ddl7am8hht2wtgk28tk9vs42kmes",
        "value": 14847
      },
      "scriptsig": "",
      "scriptsig_asm": "",
      "witness": [
        "a0a25ff2d041553fe0c80085af0203ba971033738396a7e155c1e1529bcc5a3a6fbef4bb975088d60caee13ac676ee9626a5185dfca7a2ff21d29b0fb6362211"
      ],
      "is_coinbase": false,
      "sequence": 2866292902
    }
  ],
  "vout": [
    {
      "scriptpubkey": "512091f0235b4cc772a97d0f4bc777674a6810493ff4e707b9ff5336341d84867dc0",
      "scriptpubkey_asm": "OP_PUSHNUM_1 OP_PUSHBYTES_32 91f0235b4cc772a97d0f4bc777674a6810493ff4e707b9ff5336341d84867dc0",
      "scriptpubkey_type": "v1_p2tr",
      "scriptpubkey_address": "bc1pj8czxk6vcae2jlg0f0rhwe62dqgyj0l5uurmnl6nxc6pmpyx0hqqrqxxkx",
      "value": 11627
    },
    {
      "scriptpubkey": "5120b8371c918973da24ab00bd42877054a21c9aa9adffbbb3deeb53968b28ebb159",
      "scriptpubkey_asm": "OP_PUSHNUM_1 OP_PUSHBYTES_32 b8371c918973da24ab00bd42877054a21c9aa9adffbbb3deeb53968b28ebb159",
      "scriptpubkey_type": "v1_p2tr",
      "scriptpubkey_address": "bc1phqm3eyvfw0dzf2cqh4pgwuz55gwf42ddl7am8hht2wtgk28tk9vs42kmes",
      "value": 1526
    }
  ],
  "size": 205,
  "weight": 616,
  "fee": 1694,
  "status": {
    "confirmed": true,
    "block_height": 834464,
    "block_hash": "0000000000000000000177a0869a911a2b65c9bdcd5a8bcb02b68f305bee848e",
    "block_time": 1710308296
  },
  "hex": "01000000000101eef5b61d95b41dde995c0f14b3b3858d15ad6ddcd4ed2132b5839765440f00700500000000a628d8aa026b2d00000000000022512091f0235b4cc772a97d0f4bc777674a6810493ff4e707b9ff5336341d84867dc0f605000000000000225120b8371c918973da24ab00bd42877054a21c9aa9adffbbb3deeb53968b28ebb1590140a0a25ff2d041553fe0c80085af0203ba971033738396a7e155c1e1529bcc5a3a6fbef4bb975088d60caee13ac676ee9626a5185dfca7a2ff21d29b0fb636221100000000"
}