{
  "txid": "88888889ed090e513834283d181250f228d2de3d5f25091c88fb37d9d0fe4d87",
  "version": 1,
  "locktime": 0,
  "vin": [
    {
      "txid": "0000004307aba1ca4ab9a6a283b5d7c9fa44626d330c65295307136f4e3059c6",
      "vout": 1,
      "prevout": {
        "scriptpubkey": "51202156a5ebde4294e23443a02f64fdaedd8afb494174c55aa9690a969555172765",
        "scriptpubkey_asm": "OP_PUSHNUM_1 OP_PUSHBYTES_32 2156a5ebde4294e23443a02f64fdaedd8afb494174c55aa9690a969555172765",
        "scriptpubkey_type": "v1_p2tr",
        "scriptpubkey_address": "bc1py9t2t677g22wydzr5qhkfldwmk90kj2pwnz442tfp2tf24ghyajsn95pzz",
        "value": 6851
      },
      "scriptsig": "",
      "scriptsig_asm": "",
      "witness": [
        "d52a37d6bad4afef8473963bdd38b39fde28f3e0747c87e3c35e13043ba4c33bf5f6bb5a0c0804e3c039b9d4c13471ee5119ed122dbddaebbe4b665d6fe42318"
      ],
      "is_coinbase": false,
      "sequence": 6746720
    },
    {
      "txid": "000000bb0b4b5b43af5ba70774740d6154ab80850af21519f955425916c4f659",
      "vout": 1,
      "prevout": {
        "scriptpubkey": "51202156a5ebde4294e23443a02f64fdaedd8afb494174c55aa9690a969555172765",
        "scriptpubkey_asm": "OP_PUSHNUM_1 OP_PUSHBYTES_32 2156a5ebde4294e23443a02f64fdaedd8afb494174c55aa9690a969555172765",
        "scriptpubkey_type": "v1_p2tr",
        "scriptpubkey_address": "bc1py9t2t677g22wydzr5qhkfldwmk90kj2pwnz442tfp2tf24ghyajsn95pzz",
        "value": 6630
      },
      "scriptsig": "",
      "scriptsig_asm": "",
      "witness": [
        "52edd3417f83b37f3c7c16e78953f16a10b64703c174f94b9d842a8282d51ff1df3b8946803aae4634f8558225629205751c4ca6ac7f484598d68b72ec1ea8e7"
      ],
      "is_coinbase": false,
      "sequence": 4294967293
    }
  ],
  "vout": [
    {
      "scriptpubkey": "5120fcead8db7f3ce374eeecb291b1a3cf097c94b2a938c87ec06c92a294795684ad",
      "scriptpubkey_asm": "OP_PUSHNUM_1 OP_PUSHBYTES_32 fcead8db7f3ce374eeecb291b1a3cf097c94b2a938c87ec06c92a294795684ad",
      "scriptpubkey_type": "v1_p2tr",
      "scriptpubkey_address": "bc1pln4d3kml8n3hfmhvk2gmrg70p97ffv4f8ry8asrvj23fg72ksjks2nzsf8",
      "value": 11632
    }
  ],
  "size": 269,
  "weight": 674,
  "fee": 1849,
  "status": {
    "confirmed": true,
    "block_height": 834464,
    "block_hash": "0000000000000000000177a0869a911a2b65c9bdcd5a8bcb02b68f305bee848e",
    "block_time": 1710308296
  },
  "hex": "01000000000102c659304e6f13075329650c336d6244fac9d7b583a2a6b94acaa1ab0743000000010000000060f2660059f6c416594255f91915f20a8580ab54610d747407a75baf435b4b0bbb0000000100000000fdffffff01702d000000000000225120fcead8db7f3ce374eeecb291b1a3cf097c94b2a938c87ec06c92a294795684ad0140d52a37d6bad4afef8473963bdd38b39fde28f3e0747c87e3c35e13043ba4c33bf5f6bb5a0c0804e3c039b9d4c13471ee5119ed122dbddaebbe4b665d6fe42318014052edd3417f83b37f3c7c16e78953f16a10b64703c174f94b9d842a8282d51ff1df3b8946803aae4634f8558225629205751c4ca6ac7f484598d68b72ec1ea8e700000000"
}