{
  "txid": "88888887cb4ddb85f76b62fcc06bba467af11692aad5f62a2e80ca35495f97e0",
  "version": 1,
  "locktime": 0,
  "vin": [
    {
      "txid": "8888888d843cfad3b04bcee3db6f80b5d133fbc519afa5bfc3ccbd18ff146c15",
      "vout": 1,
      "prevout": {
        "scriptpubkey": "5120760dfedfd8c7387802f2e5e29be2d0792e67dc9d29090d8782e2f1435ff245ab",
        "scriptpubkey_asm": "OP_PUSHNUM_1 OP_PUSHBYTES_32 760dfedfd8c7387802f2e5e29be2d0792e67dc9d29090d8782e2f1435ff245ab",
        "scriptpubkey_type": "v1_p2tr",
        "scriptpubkey_address": "bc1pwcxlah7ccuu8sqhjuh3fhcks0yhx0hya9yysmpuzutc5xhljgk4syhntcu",
        "value": 3785059
      },
      "scriptsig": "",
      "scriptsig_asm": "",
      "witness": [
        "3cbc9635a702af014122cb73b3601245c133ddce9147097d5a68c0193337891015771c7b41021755835337f0896d3ea324a7e424963c830fc68c5d302977ac62"
      ],
      "is_coinbase": false,
      "sequence": 2881735837
    }
  ],
  "vout": [
    {
      "scriptpubkey": "5120ff128def53c293f5bdf2a99d31a00493c03b95472621929c19f7bd0b70ad196a",
      "scriptpubkey_asm": "OP_PUSHNUM_1 OP_PUSHBYTES_32 ff128def53c293f5bdf2a99d31a00493c03b95472621929c19f7bd0b70ad196a",
      "scriptpubkey_type": "v1_p2tr",
      "scriptpubkey_address": "bc1plufgmm6nc2flt00j4xwnrgqyj0qrh928ycse98qe777sku9dr94qvjm9gh",
      "value": 11627
    },
    {
      "scriptpubkey": "5120760dfedfd8c7387802f2e5e29be2d0792e67dc9d29090d8782e2f1435ff245ab",
      "scriptpubkey_asm": "OP_PUSHNUM_1 OP_PUSHBYTES_32 760dfedfd8c7387802f2e5e29be2d0792e67dc9d29090d8782e2f1435ff245ab",
      "scriptpubkey_type": "v1_p2tr",
      "scriptpubkey_address": "bc1pwcxlah7ccuu8sqhjuh3fhcks0yhx0hya9yysmpuzutc5xhljgk4syhntcu",
      "value": 3771738
    }
  ],
  "size": 205,
  "weight": 616,
  "fee": 1694,
  "status": {
    "confirmed": true,
    "block_height": 834464,
    "block_hash": "0000000000000000000177a0869a911a2b65c9bdcd5a8bcb02b68f305bee848e",
    "block_time": 1710308296
  },
  "hex": "01000000000101156c14ff18bdccc3bfa5af19c5fb33d1b5806fdbe3ce4bb0d3fa3c848d88888801000000009dccc3ab026b2d000000000000225120ff128def53c293f5bdf2a99d31a00493c03b95472621929c19f7bd0b70ad196a5a8d390000000000225120760dfedfd8c7387802f2e5e29be2d0792e67dc9d29090d8782e2f1435ff245ab01403cbc9635a702af014122cb73b3601245c133ddce9147097d5a68c0193337891015771c7b41021755835337f0896d3ea324a7e424963c830fc68c5d302977ac6200000000"
}