{
  "txid": "888888888db970e0de413c9b47908826148ba53c347736be56e80f81fc8474d8",
  "version": 1,
  "locktime": 0,
  "vin": [
    {
      "txid": "888888888b9f016ecb2a5c87b7188c6994f1503eabdef52ce5b2e34f96e9f581",
      "vout": 1,
      "prevout": {
        "scriptpubkey": "51200feda00c9bfe50b868d8cc194774c445ee9005913c14b3aa5c45862c569dffca",
        "scriptpubkey_asm": "OP_PUSHNUM_1 OP_PUSHBYTES_32 0feda00c9bfe50b868d8cc194774c445ee9005913c14b3aa5c45862c569dffca",
        "scriptpubkey_type": "v1_p2tr",
        "scriptpubkey_address": "bc1pplk6qrymlegts6xcesv5waxyghhfqpv38s2t82jugkrzc45all9qm3mv57",
        "value": 8008725
      },
      "scriptsig": "",
      "scriptsig_asm": "",
      "witness": [
        "50f3c981ec8a67ccc9d50cd3d6d4300a430c4b8fc25938debb93fbafcdc04044dcf3ec7f2d7cef48850d811f0ca790c5ad0eea9fd0a946e7caaadb2bb5bacd61"
      ],
      "is_coinbase": false,
      "sequence": 652251065
    }
  ],
  "vout": [
    {
      "scriptpubkey": "51201c4797c755bb67e429ea79529fc147acec69e62c24a9393c3ef6b5e77f883705",
      "scriptpubkey_asm": "OP_PUSHNUM_1 OP_PUSHBYTES_32 1c4797c755bb67e429ea79529fc147acec69e62c24a9393c3ef6b5e77f883705",
      "scriptpubkey_type": "v1_p2tr",
      "scriptpubkey_address": "bc1pr3re0364hdn7g20209ffls284nkxne3vyj5nj0p77667wlugxuzsyg7csy",
      "value": 11923
    },
    {
      "scriptpubkey": "51200feda00c9bfe50b868d8cc194774c445ee9005913c14b3aa5c45862c569dffca",
      "scriptpubkey_asm": "OP_PUSHNUM_1 OP_PUSHBYTES_32 0feda00c9bfe50b868d8cc194774c445ee9005913c14b3aa5c45862c569dffca",
      "scriptpubkey_type": "v1_p2tr",
      "scriptpubkey_address": "bc1pplk6qrymlegts6xcesv5waxyghhfqpv38s2t82jugkrzc45all9qm3mv57",
      "value": 7994800
    }
  ],
  "size": 205,
  "weight": 616,
  "fee": 2002,
  "status": {
    "confirmed": true,
    "block_height": 834460,
    "block_hash": "00000000000000000000484a79b643b2524bbce82e5d8a442013fa5b8905ed98",
    "block_time": 1710307468
  },
  "hex": "0100000000010181f5e9964fe3b2e52cf5deab3e50f194698c18b7875c2acb6e019f8b888888880100000000b98fe02602932e0000000000002251201c4797c755bb67e429ea79529fc147acec69e62c24a9393c3ef6b5e77f883705b0fd7900000000002251200feda00c9bfe50b868d8cc194774c445ee9005913c14b3aa5c45862c569dffca014050f3c981ec8a67ccc9d50cd3d6d4300a430c4b8fc25938debb93fbafcdc04044dcf3ec7f2d7cef48850d811f0ca790c5ad0eea9fd0a946e7caaadb2bb5bacd6100000000"
}