{
  "txid": "888888888cbd57f3a45be3c64e05dfc7a23f1fcbbe2e487f51e2a4cde40c875d",
  "version": 1,
  "locktime": 0,
  "vin": [
    {
      "txid": "8888888888bff446b3884b85d830f0b5cc5b6a596780f6f3f2ed4d82e226ad93",
      "vout": 1,
      "prevout": {
        "scriptpubkey": "5120c9778f0f7116a0fa90e759ca54b375f5c38d7db5875a2860af8354d65a8671e2",
        "scriptpubkey_asm": "OP_PUSHNUM_1 OP_PUSHBYTES_32 c9778f0f7116a0fa90e759ca54b375f5c38d7db5875a2860af8354d65a8671e2",
        "scriptpubkey_type": "v1_p2tr",
        "scriptpubkey_address": "bc1pe9mc7rm3z6s04y88t899fvm47hpc6ld4sadzsc90sd2dvk5xw83qeh2mmm",
        "value": 96264731
      },
      "scriptsig": "",
      "scriptsig_asm": "",
      "witness": [
        "e2de9489c5a1f6a9921b76f199c40fd9ed35a3d066a079dc0f356efadc811e17f7f918ba9075c15c12c74d487ebcea0d9b0b7045d607f434509f313f58f3b20e"
      ],
      "is_coinbase": false,
      "sequence": 1524582426
    }
  ],
  "vout": [
    {
      "scriptpubkey": "512082648e90a2c703e260808bfeded998329947abf5b76e49c33bfd613e9aabb4df",
      "scriptpubkey_asm": "OP_PUSHNUM_1 OP_PUSHBYTES_32 82648e90a2c703e260808bfeded998329947abf5b76e49c33bfd613e9aabb4df",
      "scriptpubkey_type": "v1_p2tr",
      "scriptpubkey_address": "bc1psfjgay9zcup7ycyq30ldakvcx2v502l4kahynseml4snax4tkn0s2hlpve",
      "value": 12071
    },
    {
      "scriptpubkey": "5120c9778f0f7116a0fa90e759ca54b375f5c38d7db5875a2860af8354d65a8671e2",
      "scriptpubkey_asm": "OP_PUSHNUM_1 OP_PUSHBYTES_32 c9778f0f7116a0fa90e759ca54b375f5c38d7db5875a2860af8354d65a8671e2",
      "scriptpubkey_type": "v1_p2tr",
      "scriptpubkey_address": "bc1pe9mc7rm3z6s04y88t899fvm47hpc6ld4sadzsc90sd2dvk5xw83qeh2mmm",
      "value": 96250504
    }
  ],
  "size": 205,
  "weight": 616,
  "fee": 2156,
  "status": {
    "confirmed": true,
    "block_height": 834460,
    "block_hash": "00000000000000000000484a79b643b2524bbce82e5d8a442013fa5b8905ed98",
    "block_time": 1710307468
  },
  "hex": "0100000000010193ad26e2824dedf2f3f68067596a5bccb5f030d8854b88b346f4bf888888888801000000001a48df5a02272f00000000000022512082648e90a2c703e260808bfeded998329947abf5b76e49c33bfd613e9aabb4df88aabc0500000000225120c9778f0f7116a0fa90e759ca54b375f5c38d7db5875a2860af8354d65a8671e20140e2de9489c5a1f6a9921b76f199c40fd9ed35a3d066a079dc0f356efadc811e17f7f918ba9075c15c12c74d487ebcea0d9b0b7045d607f434509f313f58f3b20e00000000"
}