{
  "txid": "888888854ea0180628d0994915970e0870a45e29f20f50df949679f47d11d20d",
  "version": 1,
  "locktime": 0,
  "vin": [
    {
      "txid": "d79ed1dbf66450aca74597996c7408a273666fc57a394f2800df9814ecead111",
      "vout": 21,
      "prevout": {
        "scriptpubkey": "5120e0b9252acbf755a4bda0486449eb82e5691af131c94b32872179575f8756178a",
        "scriptpubkey_asm": "OP_PUSHNUM_1 OP_PUSHBYTES_32 e0b9252acbf755a4bda0486449eb82e5691af131c94b32872179575f8756178a",
        "scriptpubkey_type": "v1_p2tr",
        "scriptpubkey_address": "bc1puzuj22kt7a26f0dqfpjyn6uzu4534uf3e99n9pep09t4lp6kz79qs0s9mt",
        "value": 14948
      },
      "scriptsig": "",
      "scriptsig_asm": "",
      "witness": [
        "dd28e34808ec4b904c8e5933c687d7fa716dba759a2ac166767f512b1d5ea777cf7c1a4431bc39caf85d9e1231fc9570c220d2619f8c4fc18b143a00eff7953f"
      ],
      "is_coinbase": false,
      "sequence": 5860418
    }
  ],
  "vout": [
    {
      "scriptpubkey": "512090ebad0830adaf2cc378ccc206a402dcdb3d4baa4be3111a9d3933b83961fa8e",
      "scriptpubkey_asm": "OP_PUSHNUM_1 OP_PUSHBYTES_32 90ebad0830adaf2cc378ccc206a402dcdb3d4baa4be3111a9d3933b83961fa8e",
      "scriptpubkey_type": "v1_p2tr",
      "scriptpubkey_address": "bc1pjr466zps4khjesmcenpqdfqzmndn6ja2f033zx5a8yemswtpl28q6dhjl6",
      "value": 11704
    },
    {
      "scriptpubkey": "5120e0b9252acbf755a4bda0486449eb82e5691af131c94b32872179575f8756178a",
      "scriptpubkey_asm": "OP_PUSHNUM_1 OP_PUSHBYTES_32 e0b9252acbf755a4bda0486449eb82e5691af131c94b32872179575f8756178a",
      "scriptpubkey_type": "v1_p2tr",
      "scriptpubkey_address": "bc1puzuj22kt7a26f0dqfpjyn6uzu4534uf3e99n9pep09t4lp6kz79qs0s9mt",
      "value": 1627
    }
  ],
  "size": 205,
  "weight": 616,
  "fee": 1617,
  "status": {
    "confirmed": true,
    "block_height": 834464,
    "block_hash": "0000000000000000000177a0869a911a2b65c9bdcd5a8bcb02b68f305bee848e",
    "block_time": 1710308296
  },
  "hex": "0100000000010111d1eaec1498df00284f397ac56f6673a208746c999745a7ac5064f6dbd19ed71500000000426c590002b82d00000000000022512090ebad0830adaf2cc378ccc206a402dcdb3d4baa4be3111a9d3933b83961fa8e5b06000000000000225120e0b9252acbf755a4bda0486449eb82e5691af131c94b32872179575f8756178a0140dd28e34808ec4b904c8e5933c687d7fa716dba759a2ac166767f512b1d5ea777cf7c1a4431bc39caf85d9e1231fc9570c220d2619f8c4fc18b143a00eff7953f00000000"
}