{
  "txid": "888888888a7aaa5b9aaaff982926fa6f3aeba92551f2587c385bb39ca6d54398",
  "version": 1,
  "locktime": 0,
  "vin": [
    {
      "txid": "888888888dc9f154173c3e0748c369cfa919f59fa6c71e6f6e3569d0e65ce8ba",
      "vout": 1,
      "prevout": {
        "scriptpubkey": "512093db24fa9a31d03624560c24bc678ef6143e8cbb4fe9cd39f5f731f7beabf37e",
        "scriptpubkey_asm": "OP_PUSHNUM_1 OP_PUSHBYTES_32 93db24fa9a31d03624560c24bc678ef6143e8cbb4fe9cd39f5f731f7beabf37e",
        "scriptpubkey_type": "v1_p2tr",
        "scriptpubkey_address": "bc1pj0djf756x8grvfzkpsjtceuw7c2rar9mfl5u6w047ucl004t7dlqge98q0",
        "value": 5498221
      },
      "scriptsig": "",
      "scriptsig_asm": "",
      "witness": [
        "bea4ea718c8a52eb3abf50d12fb5c952c7e004b9a05afcd37a448408dba84530de873b0a694f92cd1b922fce28a89f277f8145b9cc8bbce29782f059b86abf3f"
      ],
      "is_coinbase": false,
      "sequence": 79593512
    }
  ],
  "vout": [
    {
      "scriptpubkey": "5120a1106d59fd9479ad1e733832816fd0122d720c13f414464446ea21dccc9ad6c7",
      "scriptpubkey_asm": "OP_PUSHNUM_1 OP_PUSHBYTES_32 a1106d59fd9479ad1e733832816fd0122d720c13f414464446ea21dccc9ad6c7",
      "scriptpubkey_type": "v1_p2tr",
      "scriptpubkey_address": "bc1p5ygx6k0aj3u668nn8qegzm7szgkhyrqn7s2yv3zxagsaeny66mrs0yhtqx",
      "value": 12071
    },
    {
      "scriptpubkey": "512093db24fa9a31d03624560c24bc678ef6143e8cbb4fe9cd39f5f731f7beabf37e",
      "scriptpubkey_asm": "OP_PUSHNUM_1 OP_PUSHBYTES_32 93db24fa9a31d03624560c24bc678ef6143e8cbb4fe9cd39f5f731f7beabf37e",
      "scriptpubkey_type": "v1_p2tr",
      "scriptpubkey_address": "bc1pj0djf756x8grvfzkpsjtceuw7c2rar9mfl5u6w047ucl004t7dlqge98q0",
      "value": 5483994
    }
  ],
  "size": 205,
  "weight": 616,
  "fee": 2156,
  "status": {
    "confirmed": true,
    "block_height": 834460,
    "block_hash": "00000000000000000000484a79b643b2524bbce82e5d8a442013fa5b8905ed98",
    "block_time": 1710307468
  },
  "hex": "01000000000101bae85ce6d069356e6f1ec7a69ff519a9cf69c348073e3c1754f1c98d8888888801000000002880be0402272f000000000000225120a1106d59fd9479ad1e733832816fd0122d720c13f414464446ea21dccc9ad6c7daad53000000000022512093db24fa9a31d03624560c24bc678ef6143e8cbb4fe9cd39f5f731f7beabf37e0140bea4ea718c8a52eb3abf50d12fb5c952c7e004b9a05afcd37a448408dba84530de873b0a694f92cd1b922fce28a89f277f8145b9cc8bbce29782f059b86abf3f00000000"
}