{
  "txid": "888888888bbcd8ebed5b2302e018eae1a271df1cd36d3c90b6c1d494e865e9c4",
  "version": 1,
  "locktime": 0,
  "vin": [
    {
      "txid": "8888888889b8791600dec5ff4d46e590e3c001f04b28f735520ab45605022d9b",
      "vout": 1,
      "prevout": {
        "scriptpubkey": "5120ec1d23ca1d993f14656ffc92968d7aea7d929a134974587750ffc8eac219e55a",
        "scriptpubkey_asm": "OP_PUSHNUM_1 OP_PUSHBYTES_32 ec1d23ca1d993f14656ffc92968d7aea7d929a134974587750ffc8eac219e55a",
        "scriptpubkey_type": "v1_p2tr",
        "scriptpubkey_address": "bc1paswj8jsanyl3get0ljffdrt6af7e9xsnf969sa6sllyw4sseu4dq5dyztu",
        "value": 59204
      },
      "scriptsig": "",
      "scriptsig_asm": "",
      "witness": [
        "98c2b6bcec5088915192ad1fdd7a4776750b25cbdf138ac6825e3c65b1aea417d985cdde08209ed7d6e4f0299c4167b42d8a94bab42934cd6730e1926d8fb95c"
      ],
      "is_coinbase": false,
      "sequence": 1927488287
    }
  ],
  "vout": [
    {
      "scriptpubkey": "5120b3ccead3791d872365400bd499421a731a049829fe4d4e51f09a55d5836f18ca",
      "scriptpubkey_asm": "OP_PUSHNUM_1 OP_PUSHBYTES_32 b3ccead3791d872365400bd499421a731a049829fe4d4e51f09a55d5836f18ca",
      "scriptpubkey_type": "v1_p2tr",
      "scriptpubkey_address": "bc1pk0xw45merkrjxe2qp02fjss6wvdqfxpflex5u50snf2atqm0rr9q67ruly",
      "value": 11781
    },
    {
      "scriptpubkey": "5120ec1d23ca1d993f14656ffc92968d7aea7d929a134974587750ffc8eac219e55a",
      "scriptpubkey_asm": "OP_PUSHNUM_1 OP_PUSHBYTES_32 ec1d23ca1d993f14656ffc92968d7aea7d929a134974587750ffc8eac219e55a",
      "scriptpubkey_type": "v1_p2tr",
      "scriptpubkey_address": "bc1paswj8jsanyl3get0ljffdrt6af7e9xsnf969sa6sllyw4sseu4dq5dyztu",
      "value": 45729
    }
  ],
  "size": 205,
  "weight": 616,
  "fee": 1694,
  "status": {
    "confirmed": true,
    "block_height": 834460,
    "block_hash": "00000000000000000000484a79b643b2524bbce82e5d8a442013fa5b8905ed98",
    "block_time": 1710307468
  },
  "hex": "010000000001019b2d020556b40a5235f7284bf001c0e390e5464dffc5de001679b8898888888801000000001f23e37202052e000000000000225120b3ccead3791d872365400bd499421a731a049829fe4d4e51f09a55d5836f18caa1b2000000000000225120ec1d23ca1d993f14656ffc92968d7aea7d929a134974587750ffc8eac219e55a014098c2b6bcec5088915192ad1fdd7a4776750b25cbdf138ac6825e3c65b1aea417d985cdde08209ed7d6e4f0299c4167b42d8a94bab42934cd6730e1926d8fb95c00000000"
}