{
  "txid": "88888886ef1da7b7abd6c607bb0171115e7395d86fe5b2c55effdf4c0d63df2e",
  "version": 1,
  "locktime": 0,
  "vin": [
    {
      "txid": "d79ed1dbf66450aca74597996c7408a273666fc57a394f2800df9814ecead111",
      "vout": 19,
      "prevout": {
        "scriptpubkey": "5120e0b9252acbf755a4bda0486449eb82e5691af131c94b32872179575f8756178a",
        "scriptpubkey_asm": "OP_PUSHNUM_1 OP_PUSHBYTES_32 e0b9252acbf755a4bda0486449eb82e5691af131c94b32872179575f8756178a",
        "scriptpubkey_type": "v1_p2tr",
        "scriptpubkey_address": "bc1puzuj22kt7a26f0dqfpjyn6uzu4534uf3e99n9pep09t4lp6kz79qs0s9mt",
        "value": 14948
      },
      "scriptsig": "",
      "scriptsig_asm": "",
      "witness": [
        "774aacb66b19a67ce9b46934a999c9f3b77b0bb95c7fe3559d8108281ddcc1ee3097c8a9242458f0250681369cb15911acc009830a4bfe9d0658a56f29f1412d"
      ],
      "is_coinbase": false,
      "sequence": 19526132
    }
  ],
  "vout": [
    {
      "scriptpubkey": "512019c51d089a890fd2ce7b2456f0d7cd21dad018200676cbfa9b31f59b4b093dd3",
      "scriptpubkey_asm": "OP_PUSHNUM_1 OP_PUSHBYTES_32 19c51d089a890fd2ce7b2456f0d7cd21dad018200676cbfa9b31f59b4b093dd3",
      "scriptpubkey_type": "v1_p2tr",
      "scriptpubkey_address": "bc1pr8z36zy63y8a9nnmy3t0p47dy8ddqxpqqemvh75mx86ekjcf8hfsmggsud",
      "value": 11704
    },
    {
      "scriptpubkey": "5120e0b9252acbf755a4bda0486449eb82e5691af131c94b32872179575f8756178a",
      "scriptpubkey_asm": "OP_PUSHNUM_1 OP_PUSHBYTES_32 e0b9252acbf755a4bda0486449eb82e5691af131c94b32872179575f8756178a",
      "scriptpubkey_type": "v1_p2tr",
      "scriptpubkey_address": "bc1puzuj22kt7a26f0dqfpjyn6uzu4534uf3e99n9pep09t4lp6kz79qs0s9mt",
      "value": 1627
    }
  ],
  "size": 205,
  "weight": 616,
  "fee": 1617,
  "status": {
    "confirmed": true,
    "block_height": 834464,
    "block_hash": "0000000000000000000177a0869a911a2b65c9bdcd5a8bcb02b68f305bee848e",
    "block_time": 1710308296
  },
  "hex": "0100000000010111d1eaec1498df00284f397ac56f6673a208746c999745a7ac5064f6dbd19ed71300000000f4f1290102b82d00000000000022512019c51d089a890fd2ce7b2456f0d7cd21dad018200676cbfa9b31f59b4b093dd35b06000000000000225120e0b9252acbf755a4bda0486449eb82e5691af131c94b32872179575f8756178a0140774aacb66b19a67ce9b46934a999c9f3b77b0bb95c7fe3559d8108281ddcc1ee3097c8a9242458f0250681369cb15911acc009830a4bfe9d0658a56f29f1412d00000000"
}