{
  "txid": "8888888fdae01f985c0c02d75036a96a0add0c63fe89e5fec26387ed46984193",
  "version": 1,
  "locktime": 0,
  "vin": [
    {
      "txid": "d79ed1dbf66450aca74597996c7408a273666fc57a394f2800df9814ecead111",
      "vout": 18,
      "prevout": {
        "scriptpubkey": "5120e0b9252acbf755a4bda0486449eb82e5691af131c94b32872179575f8756178a",
        "scriptpubkey_asm": "OP_PUSHNUM_1 OP_PUSHBYTES_32 e0b9252acbf755a4bda0486449eb82e5691af131c94b32872179575f8756178a",
        "scriptpubkey_type": "v1_p2tr",
        "scriptpubkey_address": "bc1puzuj22kt7a26f0dqfpjyn6uzu4534uf3e99n9pep09t4lp6kz79qs0s9mt",
        "value": 14948
      },
      "scriptsig": "",
      "scriptsig_asm": "",
      "witness": [
        "054c926af893ceb1b0d8680c6b5c8fad4ab3aa7954c0ac9e497b3ed9388854274a6958b2693a7fbec76d757c6f97f3234d55762ed4d39193b6a2db944d23df42"
      ],
      "is_coinbase": false,
      "sequence": 1516297
    }
  ],
  "vout": [
    {
      "scriptpubkey": "51207819cf2d0566ee31821fac4da85f3e5ab1ae7cd4603a5c8fbcaa3c13e03ff6fb",
      "scriptpubkey_asm": "OP_PUSHNUM_1 OP_PUSHBYTES_32 7819cf2d0566ee31821fac4da85f3e5ab1ae7cd4603a5c8fbcaa3c13e03ff6fb",
      "scriptpubkey_type": "v1_p2tr",
      "scriptpubkey_address": "bc1p0qvu7tg9vmhrrqsl43x6she7t2c6ulx5vqa9erau4g7p8cpl7masjza0vm",
      "value": 11704
    },
    {
      "scriptpubkey": "5120e0b9252acbf755a4bda0486449eb82e5691af131c94b32872179575f8756178a",
      "scriptpubkey_asm": "OP_PUSHNUM_1 OP_PUSHBYTES_32 e0b9252acbf755a4bda0486449eb82e5691af131c94b32872179575f8756178a",
      "scriptpubkey_type": "v1_p2tr",
      "scriptpubkey_address": "bc1puzuj22kt7a26f0dqfpjyn6uzu4534uf3e99n9pep09t4lp6kz79qs0s9mt",
      "value": 1627
    }
  ],
  "size": 205,
  "weight": 616,
  "fee": 1617,
  "status": {
    "confirmed": true,
    "block_height": 834464,
    "block_hash": "0000000000000000000177a0869a911a2b65c9bdcd5a8bcb02b68f305bee848e",
    "block_time": 1710308296
  },
  "hex": "0100000000010111d1eaec1498df00284f397ac56f6673a208746c999745a7ac5064f6dbd19ed712000000000923170002b82d0000000000002251207819cf2d0566ee31821fac4da85f3e5ab1ae7cd4603a5c8fbcaa3c13e03ff6fb5b06000000000000225120e0b9252acbf755a4bda0486449eb82e5691af131c94b32872179575f8756178a0140054c926af893ceb1b0d8680c6b5c8fad4ab3aa7954c0ac9e497b3ed9388854274a6958b2693a7fbec76d757c6f97f3234d55762ed4d39193b6a2db944d23df4200000000"
}