{
  "txid": "888888888bf06eec593d9ffd2761dbb82e4124cae57c8c2abd0149258daa4535",
  "version": 1,
  "locktime": 956867400,
  "vin": [
    {
      "txid": "9ea1635f0ba12dd54d98b544f233f2ef5b5b5b7262035f081088752af829b6b9",
      "vout": 14,
      "prevout": {
        "scriptpubkey": "0014a4bf7e4f90b3a592a7facd92ade7c0d77fdd5dd3",
        "scriptpubkey_asm": "OP_0 OP_PUSHBYTES_20 a4bf7e4f90b3a592a7facd92ade7c0d77fdd5dd3",
        "scriptpubkey_type": "v0_p2wpkh",
        "scriptpubkey_address": "bc1q5jlhunuskwje9fl6ekf2me7q6ala6hwn2m67xx",
        "value": 13653
      },
      "scriptsig": "",
      "scriptsig_asm": "",
      "witness": [
        "304402207bc1ac21e21d842c6847ead11016de017d854c3d054e2f29d85036116b90ec8802200315ab8ffe79068f2ae0708e104d8aa4ff2f6e23251facf12f571065721d6fa001",
        "0355dd2fdc99df63aa338ccefb97ebddf2a6facf55860239b79fc356fae080b725"
      ],
      "is_coinbase": false,
      "sequence": 2147483792
    }
  ],
  "vout": [
    {
      "scriptpubkey": "512039742d67fed8f93a1a949850e2106e1421c30c0c944d3f6ac167ab92b4cba3e2",
      "scriptpubkey_asm": "OP_PUSHNUM_1 OP_PUSHBYTES_32 39742d67fed8f93a1a949850e2106e1421c30c0c944d3f6ac167ab92b4cba3e2",
      "scriptpubkey_type": "v1_p2tr",
      "scriptpubkey_address": "bc1p896z6el7mrun5x55npgwyyrwzssuxrqvj3xn76kpv74e9dxt503qd7dex2",
      "value": 11945
    }
  ],
  "size": 203,
  "weight": 485,
  "fee": 1708,
  "status": {
    "confirmed": true,
    "block_height": 834552,
    "block_hash": "00000000000000000001dd0468a70c94f619251d286585cff57aeb4bd9ede330",
    "block_time": 1710355598
  },
  "hex": "01000000000101b9b629f82a758810085f0362725b5b5beff233f244b5984dd52da10b5f63a19e0e000000009000008001a92e00000000000022512039742d67fed8f93a1a949850e2106e1421c30c0c944d3f6ac167ab92b4cba3e20247304402207bc1ac21e21d842c6847ead11016de017d854c3d054e2f29d85036116b90ec8802200315ab8ffe79068f2ae0708e104d8aa4ff2f6e23251facf12f571065721d6fa001210355dd2fdc99df63aa338ccefb97ebddf2a6facf55860239b79fc356fae080b72548a30839"
}