{
  "txid": "888888888b2cefa68094568a5fed9f49e6115671acaf50487616d75208366ea7",
  "version": 1,
  "locktime": 0,
  "vin": [
    {
      "txid": "888888888b807d7deacb63060319c91f135c6d56471828da35b4173f77eb13af",
      "vout": 1,
      "prevout": {
        "scriptpubkey": "5120c9778f0f7116a0fa90e759ca54b375f5c38d7db5875a2860af8354d65a8671e2",
        "scriptpubkey_asm": "OP_PUSHNUM_1 OP_PUSHBYTES_32 c9778f0f7116a0fa90e759ca54b375f5c38d7db5875a2860af8354d65a8671e2",
        "scriptpubkey_type": "v1_p2tr",
        "scriptpubkey_address": "bc1pe9mc7rm3z6s04y88t899fvm47hpc6ld4sadzsc90sd2dvk5xw83qeh2mmm",
        "value": 96392774
      },
      "scriptsig": "",
      "scriptsig_asm": "",
      "witness": [
        "b9bcd0dd7322ccfbc16df5abd7ff1fc681fdc17691b5805f91acfc5eca4844919396b2e78a1c53ac5a1e710f606536f4adfcd12acf708d01ec76a9fd4412179a"
      ],
      "is_coinbase": false,
      "sequence": 4058101120
    }
  ],
  "vout": [
    {
      "scriptpubkey": "512071871117358cf359802c6b1dd2953fbe85f7aa7fff0c0d74ee2a979537b13930",
      "scriptpubkey_asm": "OP_PUSHNUM_1 OP_PUSHBYTES_32 71871117358cf359802c6b1dd2953fbe85f7aa7fff0c0d74ee2a979537b13930",
      "scriptpubkey_type": "v1_p2tr",
      "scriptpubkey_address": "bc1pwxr3z9e43ne4nqpvdvwa99flh6zl02nlluxq6a8w92te2da38ycq5n5h8t",
      "value": 12071
    },
    {
      "scriptpubkey": "5120c9778f0f7116a0fa90e759ca54b375f5c38d7db5875a2860af8354d65a8671e2",
      "scriptpubkey_asm": "OP_PUSHNUM_1 OP_PUSHBYTES_32 c9778f0f7116a0fa90e759ca54b375f5c38d7db5875a2860af8354d65a8671e2",
      "scriptpubkey_type": "v1_p2tr",
      "scriptpubkey_address": "bc1pe9mc7rm3z6s04y88t899fvm47hpc6ld4sadzsc90sd2dvk5xw83qeh2mmm",
      "value": 96378547
    }
  ],
  "size": 205,
  "weight": 616,
  "fee": 2156,
  "status": {
    "confirmed": true,
    "block_height": 834460,
    "block_hash": "00000000000000000000484a79b643b2524bbce82e5d8a442013fa5b8905ed98",
    "block_time": 1710307468
  },
  "hex": "01000000000101af13eb773f17b435da281847566d5c131fc919030663cbea7d7d808b88888888010000000080b5e1f102272f00000000000022512071871117358cf359802c6b1dd2953fbe85f7aa7fff0c0d74ee2a979537b13930b39ebe0500000000225120c9778f0f7116a0fa90e759ca54b375f5c38d7db5875a2860af8354d65a8671e20140b9bcd0dd7322ccfbc16df5abd7ff1fc681fdc17691b5805f91acfc5eca4844919396b2e78a1c53ac5a1e710f606536f4adfcd12acf708d01ec76a9fd4412179a00000000"
}