{
  "txid": "888888888ccb1ccc4b32b85f7ae5474a274b72134ef0aaf91f420b23898826e7",
  "version": 1,
  "locktime": 0,
  "vin": [
    {
      "txid": "888888888b433768998e87dfd3ebbe73af41ce94075eee7bf913d1de682615b0",
      "vout": 1,
      "prevout": {
        "scriptpubkey": "5120c9778f0f7116a0fa90e759ca54b375f5c38d7db5875a2860af8354d65a8671e2",
        "scriptpubkey_asm": "OP_PUSHNUM_1 OP_PUSHBYTES_32 c9778f0f7116a0fa90e759ca54b375f5c38d7db5875a2860af8354d65a8671e2",
        "scriptpubkey_type": "v1_p2tr",
        "scriptpubkey_address": "bc1pe9mc7rm3z6s04y88t899fvm47hpc6ld4sadzsc90sd2dvk5xw83qeh2mmm",
        "value": 96236277
      },
      "scriptsig": "",
      "scriptsig_asm": "",
      "witness": [
        "5264436155a226a690819206ee0eef47d0527a14a06eb2f2d214392df17b4806efd072aa043836003c9f5df2771fbc428b64fa00292caacce0730b15f407104f"
      ],
      "is_coinbase": false,
      "sequence": 3543624421
    }
  ],
  "vout": [
    {
      "scriptpubkey": "5120bc18d7b3719959062a0818a6e9e6b90f635b13141dd02119afc46824cb8c6ba7",
      "scriptpubkey_asm": "OP_PUSHNUM_1 OP_PUSHBYTES_32 bc18d7b3719959062a0818a6e9e6b90f635b13141dd02119afc46824cb8c6ba7",
      "scriptpubkey_type": "v1_p2tr",
      "scriptpubkey_address": "bc1phsvd0vm3n9vsv2sgrznwne4epa34kyc5rhgzzxd0c35zfjuvdwnsuruv5u",
      "value": 12071
    },
    {
      "scriptpubkey": "5120c9778f0f7116a0fa90e759ca54b375f5c38d7db5875a2860af8354d65a8671e2",
      "scriptpubkey_asm": "OP_PUSHNUM_1 OP_PUSHBYTES_32 c9778f0f7116a0fa90e759ca54b375f5c38d7db5875a2860af8354d65a8671e2",
      "scriptpubkey_type": "v1_p2tr",
      "scriptpubkey_address": "bc1pe9mc7rm3z6s04y88t899fvm47hpc6ld4sadzsc90sd2dvk5xw83qeh2mmm",
      "value": 96222050
    }
  ],
  "size": 205,
  "weight": 616,
  "fee": 2156,
  "status": {
    "confirmed": true,
    "block_height": 834460,
    "block_hash": "00000000000000000000484a79b643b2524bbce82e5d8a442013fa5b8905ed98",
    "block_time": 1710307468
  },
  "hex": "01000000000101b0152668ded113f97bee5e0794ce41af73beebd3df878e996837438b888888880100000000e56a37d302272f000000000000225120bc18d7b3719959062a0818a6e9e6b90f635b13141dd02119afc46824cb8c6ba7623bbc0500000000225120c9778f0f7116a0fa90e759ca54b375f5c38d7db5875a2860af8354d65a8671e201405264436155a226a690819206ee0eef47d0527a14a06eb2f2d214392df17b4806efd072aa043836003c9f5df2771fbc428b64fa00292caacce0730b15f407104f00000000"
}