{
  "txid": "888888888ef6f52e344a2bae0a3ea4a8d6ff96774a8c16f814f2c04abcc76e5e",
  "version": 1,
  "locktime": 0,
  "vin": [
    {
      "txid": "888888888943f90c692cc88075a0538e82e43cc4d8029f2ce1c8ef67d0dc663c",
      "vout": 1,
      "prevout": {
        "scriptpubkey": "5120e18d3dc17684673f3ce35b007c6a48ad9d5388d94e1321baa2c1dcc7f7cef85a",
        "scriptpubkey_asm": "OP_PUSHNUM_1 OP_PUSHBYTES_32 e18d3dc17684673f3ce35b007c6a48ad9d5388d94e1321baa2c1dcc7f7cef85a",
        "scriptpubkey_type": "v1_p2tr",
        "scriptpubkey_address": "bc1puxxnmstks3nn708rtvq8c6jg4kw48zxefcfjrw4zc8wv0a7wlpdqlncjy8",
        "value": 9289825
      },
      "scriptsig": "",
      "scriptsig_asm": "",
      "witness": [
        "be67c797c452488f63a00114726f0ee2fc0daee4b1eccc3180ce8af912baaf1da707087810783b1d45864127aba6335cdf5caa234a3098082aa36d655ada7c9a"
      ],
      "is_coinbase": false,
      "sequence": 3612844246
    }
  ],
  "vout": [
    {
      "scriptpubkey": "512010800209a0b060cfa1e33f31490d965f83d2ad80299b733da28112976aefdf28",
      "scriptpubkey_asm": "OP_PUSHNUM_1 OP_PUSHBYTES_32 10800209a0b060cfa1e33f31490d965f83d2ad80299b733da28112976aefdf28",
      "scriptpubkey_type": "v1_p2tr",
      "scriptpubkey_address": "bc1pzzqqyzdqkpsvlg0r8uc5jrvkt7pa9tvq9xdhx0dzsyffw6h0mu5q7jzqwv",
      "value": 11923
    },
    {
      "scriptpubkey": "5120e18d3dc17684673f3ce35b007c6a48ad9d5388d94e1321baa2c1dcc7f7cef85a",
      "scriptpubkey_asm": "OP_PUSHNUM_1 OP_PUSHBYTES_32 e18d3dc17684673f3ce35b007c6a48ad9d5388d94e1321baa2c1dcc7f7cef85a",
      "scriptpubkey_type": "v1_p2tr",
      "scriptpubkey_address": "bc1puxxnmstks3nn708rtvq8c6jg4kw48zxefcfjrw4zc8wv0a7wlpdqlncjy8",
      "value": 9275900
    }
  ],
  "size": 205,
  "weight": 616,
  "fee": 2002,
  "status": {
    "confirmed": true,
    "block_height": 834552,
    "block_hash": "00000000000000000001dd0468a70c94f619251d286585cff57aeb4bd9ede330",
    "block_time": 1710355598
  },
  "hex": "010000000001013c66dcd067efc8e12c9f02d8c43ce4828e53a07580c82c690cf94389888888880100000000d6a057d702932e00000000000022512010800209a0b060cfa1e33f31490d965f83d2ad80299b733da28112976aefdf28fc898d0000000000225120e18d3dc17684673f3ce35b007c6a48ad9d5388d94e1321baa2c1dcc7f7cef85a0140be67c797c452488f63a00114726f0ee2fc0daee4b1eccc3180ce8af912baaf1da707087810783b1d45864127aba6335cdf5caa234a3098082aa36d655ada7c9a00000000"
}