{
  "txid": "888888888aebbcbb57f75c2b2ddbc3935073e86731e3196038dc67a45df478c4",
  "version": 1,
  "locktime": 0,
  "vin": [
    {
      "txid": "888888888a254b845b08573bc1f8c92fea59ddc4e619a2289a51a72f0caac630",
      "vout": 1,
      "prevout": {
        "scriptpubkey": "512093db24fa9a31d03624560c24bc678ef6143e8cbb4fe9cd39f5f731f7beabf37e",
        "scriptpubkey_asm": "OP_PUSHNUM_1 OP_PUSHBYTES_32 93db24fa9a31d03624560c24bc678ef6143e8cbb4fe9cd39f5f731f7beabf37e",
        "scriptpubkey_type": "v1_p2tr",
        "scriptpubkey_address": "bc1pj0djf756x8grvfzkpsjtceuw7c2rar9mfl5u6w047ucl004t7dlqge98q0",
        "value": 5526675
      },
      "scriptsig": "",
      "scriptsig_asm": "",
      "witness": [
        "90e4950c95604ba92fb96a57e175dcb0a9edb9fcdd4915f861ae496860397b23a2f7a67f343788fdfc0bda0979e7fecfb411924972c0b53a8e21f8028f57721f"
      ],
      "is_coinbase": false,
      "sequence": 2559431484
    }
  ],
  "vout": [
    {
      "scriptpubkey": "5120b1aad344bca225959cf33c5dbd5a5a05da39ece30fb5b1d07ca3b44747baae0d",
      "scriptpubkey_asm": "OP_PUSHNUM_1 OP_PUSHBYTES_32 b1aad344bca225959cf33c5dbd5a5a05da39ece30fb5b1d07ca3b44747baae0d",
      "scriptpubkey_type": "v1_p2tr",
      "scriptpubkey_address": "bc1pkx4dx39u5gjet88n83wm6kj6qhdrnm8rp76mr5ru5w6yw3a64cxs8f7as5",
      "value": 12071
    },
    {
      "scriptpubkey": "512093db24fa9a31d03624560c24bc678ef6143e8cbb4fe9cd39f5f731f7beabf37e",
      "scriptpubkey_asm": "OP_PUSHNUM_1 OP_PUSHBYTES_32 93db24fa9a31d03624560c24bc678ef6143e8cbb4fe9cd39f5f731f7beabf37e",
      "scriptpubkey_type": "v1_p2tr",
      "scriptpubkey_address": "bc1pj0djf756x8grvfzkpsjtceuw7c2rar9mfl5u6w047ucl004t7dlqge98q0",
      "value": 5512448
    }
  ],
  "size": 205,
  "weight": 616,
  "fee": 2156,
  "status": {
    "confirmed": true,
    "block_height": 834460,
    "block_hash": "00000000000000000000484a79b643b2524bbce82e5d8a442013fa5b8905ed98",
    "block_time": 1710307468
  },
  "hex": "0100000000010130c6aa0c2fa7519a28a219e6c4dd59ea2fc9f8c13b57085b844b258a8888888801000000003cd38d9802272f000000000000225120b1aad344bca225959cf33c5dbd5a5a05da39ece30fb5b1d07ca3b44747baae0d001d54000000000022512093db24fa9a31d03624560c24bc678ef6143e8cbb4fe9cd39f5f731f7beabf37e014090e4950c95604ba92fb96a57e175dcb0a9edb9fcdd4915f861ae496860397b23a2f7a67f343788fdfc0bda0979e7fecfb411924972c0b53a8e21f8028f57721f00000000"
}