{
  "txid": "888888f40ae7ae00a4cc40fc549ee76b03ec1914cce19536e77301bfe5f359c6",
  "version": 1,
  "locktime": 0,
  "vin": [
    {
      "txid": "2ecf0491b04fec1f9c867d70391f4bda40d98c0b8caab55ea28000f59e948553",
      "vout": 12,
      "prevout": {
        "scriptpubkey": "512025f35105929f9bf5d8b4361e931d6ae52420af89765bd9d2033017792c93d634",
        "scriptpubkey_asm": "OP_PUSHNUM_1 OP_PUSHBYTES_32 25f35105929f9bf5d8b4361e931d6ae52420af89765bd9d2033017792c93d634",
        "scriptpubkey_type": "v1_p2tr",
        "scriptpubkey_address": "bc1pyhe4zpvjn7dltk95xc0fx8t2u5jzptufwedan5srxqthjtyn6c6qnr7yht",
        "value": 14869
      },
      "scriptsig": "",
      "scriptsig_asm": "",
      "witness": [
        "1d22f6c3ec9c557e9fb09911a0ca9dac58408cabcb6cb98ada7ea7df624abef510780af7ce4429b1285a6f12a78f01add1907a8625e597180770b02dfcae259f"
      ],
      "is_coinbase": false,
      "sequence": 1601075568
    }
  ],
  "vout": [
    {
      "scriptpubkey": "5120dd6d618f0a7ff5e4cd28088b817307f2e15383411c5c9a1ba9b929f4f3f512b4",
      "scriptpubkey_asm": "OP_PUSHNUM_1 OP_PUSHBYTES_32 dd6d618f0a7ff5e4cd28088b817307f2e15383411c5c9a1ba9b929f4f3f512b4",
      "scriptpubkey_type": "v1_p2tr",
      "scriptpubkey_address": "bc1pm4kkrrc20l67fnfgpz9czuc87ts48q6pr3wf5xafhy5lful4z26qd5txle",
      "value": 11622
    },
    {
      "scriptpubkey": "512025f35105929f9bf5d8b4361e931d6ae52420af89765bd9d2033017792c93d634",
      "scriptpubkey_asm": "OP_PUSHNUM_1 OP_PUSHBYTES_32 25f35105929f9bf5d8b4361e931d6ae52420af89765bd9d2033017792c93d634",
      "scriptpubkey_type": "v1_p2tr",
      "scriptpubkey_address": "bc1pyhe4zpvjn7dltk95xc0fx8t2u5jzptufwedan5srxqthjtyn6c6qnr7yht",
      "value": 1553
    }
  ],
  "size": 205,
  "weight": 616,
  "fee": 1694,
  "status": {
    "confirmed": true,
    "block_height": 834464,
    "block_hash": "0000000000000000000177a0869a911a2b65c9bdcd5a8bcb02b68f305bee848e",
    "block_time": 1710308296
  },
  "hex": "010000000001015385949ef50080a25eb5aa8c0b8cd940da4b1f39707d869c1fec4fb09104cf2e0c0000000070796e5f02662d000000000000225120dd6d618f0a7ff5e4cd28088b817307f2e15383411c5c9a1ba9b929f4f3f512b4110600000000000022512025f35105929f9bf5d8b4361e931d6ae52420af89765bd9d2033017792c93d63401401d22f6c3ec9c557e9fb09911a0ca9dac58408cabcb6cb98ada7ea7df624abef510780af7ce4429b1285a6f12a78f01add1907a8625e597180770b02dfcae259f00000000"
}