{
  "txid": "888888888cca5aef9449639228414263d5d5d6dfd6df3c4269793023e2e07854",
  "version": 1,
  "locktime": 0,
  "vin": [
    {
      "txid": "8888888888945f99b422fbd5397ea5629cb69f338333234cf32c054f85cdc5dd",
      "vout": 1,
      "prevout": {
        "scriptpubkey": "5120c9778f0f7116a0fa90e759ca54b375f5c38d7db5875a2860af8354d65a8671e2",
        "scriptpubkey_asm": "OP_PUSHNUM_1 OP_PUSHBYTES_32 c9778f0f7116a0fa90e759ca54b375f5c38d7db5875a2860af8354d65a8671e2",
        "scriptpubkey_type": "v1_p2tr",
        "scriptpubkey_address": "bc1pe9mc7rm3z6s04y88t899fvm47hpc6ld4sadzsc90sd2dvk5xw83qeh2mmm",
        "value": 96335866
      },
      "scriptsig": "",
      "scriptsig_asm": "",
      "witness": [
        "0e76f013fd77d5581ea7094b312962e5e48f27cb076e17f0d2c3e336487735158f442c20d2c035a1f1694052a0111b5efbf9d911f5db2c3fe4e1baa3a395c8cc"
      ],
      "is_coinbase": false,
      "sequence": 2486338320
    }
  ],
  "vout": [
    {
      "scriptpubkey": "5120f83c5873ef2b8ad582b1260cc53897ba11b1fb54be1dc6eeda005bddbb05d390",
      "scriptpubkey_asm": "OP_PUSHNUM_1 OP_PUSHBYTES_32 f83c5873ef2b8ad582b1260cc53897ba11b1fb54be1dc6eeda005bddbb05d390",
      "scriptpubkey_type": "v1_p2tr",
      "scriptpubkey_address": "bc1plq79sul09w9dtq43ycxv2wyhhggmr765hcwudmk6qpdamwc96wgqw4q93u",
      "value": 12071
    },
    {
      "scriptpubkey": "5120c9778f0f7116a0fa90e759ca54b375f5c38d7db5875a2860af8354d65a8671e2",
      "scriptpubkey_asm": "OP_PUSHNUM_1 OP_PUSHBYTES_32 c9778f0f7116a0fa90e759ca54b375f5c38d7db5875a2860af8354d65a8671e2",
      "scriptpubkey_type": "v1_p2tr",
      "scriptpubkey_address": "bc1pe9mc7rm3z6s04y88t899fvm47hpc6ld4sadzsc90sd2dvk5xw83qeh2mmm",
      "value": 96321639
    }
  ],
  "size": 205,
  "weight": 616,
  "fee": 2156,
  "status": {
    "confirmed": true,
    "block_height": 834460,
    "block_hash": "00000000000000000000484a79b643b2524bbce82e5d8a442013fa5b8905ed98",
    "block_time": 1710307468
  },
  "hex": "01000000000101ddc5cd854f052cf34c233383339fb69c62a57e39d5fb22b4995f94888888888801000000001083329402272f000000000000225120f83c5873ef2b8ad582b1260cc53897ba11b1fb54be1dc6eeda005bddbb05d39067c0bd0500000000225120c9778f0f7116a0fa90e759ca54b375f5c38d7db5875a2860af8354d65a8671e201400e76f013fd77d5581ea7094b312962e5e48f27cb076e17f0d2c3e336487735158f442c20d2c035a1f1694052a0111b5efbf9d911f5db2c3fe4e1baa3a395c8cc00000000"
}