{
  "txid": "88888888885788a49e6d6d65a41f81f18fea043e74e6f2611d4fe7abeb2f1188",
  "version": 1,
  "locktime": 0,
  "vin": [
    {
      "txid": "88888888899a398581ffeb54159bddf99ebc3dcfdb81b1787da521a438a0b4f2",
      "vout": 1,
      "prevout": {
        "scriptpubkey": "512097dd27902f96dfea2738704cd035abf0fc75d9ee323e4039811da77c940aaee4",
        "scriptpubkey_asm": "OP_PUSHNUM_1 OP_PUSHBYTES_32 97dd27902f96dfea2738704cd035abf0fc75d9ee323e4039811da77c940aaee4",
        "scriptpubkey_type": "v1_p2tr",
        "scriptpubkey_address": "bc1pjlwj0yp0jm075fecwpxdqddt7r78tk0wxglyqwvprknhe9q24mjqvgpd0h",
        "value": 963911
      },
      "scriptsig": "",
      "scriptsig_asm": "",
      "witness": [
        "9ecaed925e264e773feb4172b1fc823fba9dc6725a73f28c53215c40305947a9f556ac8baf5ae9cec487bd5d91927f6ffe235f6414273366b1a20107f8d9484d"
      ],
      "is_coinbase": false,
      "sequence": 2816938458
    }
  ],
  "vout": [
    {
      "scriptpubkey": "5120c7eec91281fe622e54f2822d88e5a91f995936c830549e12ea16b05b6b729349",
      "scriptpubkey_asm": "OP_PUSHNUM_1 OP_PUSHBYTES_32 c7eec91281fe622e54f2822d88e5a91f995936c830549e12ea16b05b6b729349",
      "scriptpubkey_type": "v1_p2tr",
      "scriptpubkey_address": "bc1pclhvjy5ple3zu48jsgkc3edfr7v4jdkgxp2fuyh2z6c9k6mjjdyspvvgxw",
      "value": 11923
    },
    {
      "scriptpubkey": "512097dd27902f96dfea2738704cd035abf0fc75d9ee323e4039811da77c940aaee4",
      "scriptpubkey_asm": "OP_PUSHNUM_1 OP_PUSHBYTES_32 97dd27902f96dfea2738704cd035abf0fc75d9ee323e4039811da77c940aaee4",
      "scriptpubkey_type": "v1_p2tr",
      "scriptpubkey_address": "bc1pjlwj0yp0jm075fecwpxdqddt7r78tk0wxglyqwvprknhe9q24mjqvgpd0h",
      "value": 949986
    }
  ],
  "size": 205,
  "weight": 616,
  "fee": 2002,
  "status": {
    "confirmed": true,
    "block_height": 834464,
    "block_hash": "0000000000000000000177a0869a911a2b65c9bdcd5a8bcb02b68f305bee848e",
    "block_time": 1710308296
  },
  "hex": "01000000000101f2b4a038a421a57d78b181dbcf3dbc9ef9dd9b1554ebff8185399a89888888880100000000da11e7a702932e000000000000225120c7eec91281fe622e54f2822d88e5a91f995936c830549e12ea16b05b6b729349e27e0e000000000022512097dd27902f96dfea2738704cd035abf0fc75d9ee323e4039811da77c940aaee401409ecaed925e264e773feb4172b1fc823fba9dc6725a73f28c53215c40305947a9f556ac8baf5ae9cec487bd5d91927f6ffe235f6414273366b1a20107f8d9484d00000000"
}