{
  "txid": "888888888b433768998e87dfd3ebbe73af41ce94075eee7bf913d1de682615b0",
  "version": 1,
  "locktime": 0,
  "vin": [
    {
      "txid": "888888888cbd57f3a45be3c64e05dfc7a23f1fcbbe2e487f51e2a4cde40c875d",
      "vout": 1,
      "prevout": {
        "scriptpubkey": "5120c9778f0f7116a0fa90e759ca54b375f5c38d7db5875a2860af8354d65a8671e2",
        "scriptpubkey_asm": "OP_PUSHNUM_1 OP_PUSHBYTES_32 c9778f0f7116a0fa90e759ca54b375f5c38d7db5875a2860af8354d65a8671e2",
        "scriptpubkey_type": "v1_p2tr",
        "scriptpubkey_address": "bc1pe9mc7rm3z6s04y88t899fvm47hpc6ld4sadzsc90sd2dvk5xw83qeh2mmm",
        "value": 96250504
      },
      "scriptsig": "",
      "scriptsig_asm": "",
      "witness": [
        "6994f5649bdfa8ee18fdbf29d0d73b88a00025eddd59c75410d6416d109c7e229fa614e123045d14782f6a36263a5edc44e4fc345a198d1dc20b9c57fae2a30a"
      ],
      "is_coinbase": false,
      "sequence": 132648800
    }
  ],
  "vout": [
    {
      "scriptpubkey": "5120a381853360367d0727625af34b875c687f3199c9f41d34025094935fc3d6225c",
      "scriptpubkey_asm": "OP_PUSHNUM_1 OP_PUSHBYTES_32 a381853360367d0727625af34b875c687f3199c9f41d34025094935fc3d6225c",
      "scriptpubkey_type": "v1_p2tr",
      "scriptpubkey_address": "bc1p5wqc2vmqxe7swfmztte5hp6udplnrxwf7swngqjsjjf4ls7kyfwqvhyd9y",
      "value": 12071
    },
    {
      "scriptpubkey": "5120c9778f0f7116a0fa90e759ca54b375f5c38d7db5875a2860af8354d65a8671e2",
      "scriptpubkey_asm": "OP_PUSHNUM_1 OP_PUSHBYTES_32 c9778f0f7116a0fa90e759ca54b375f5c38d7db5875a2860af8354d65a8671e2",
      "scriptpubkey_type": "v1_p2tr",
      "scriptpubkey_address": "bc1pe9mc7rm3z6s04y88t899fvm47hpc6ld4sadzsc90sd2dvk5xw83qeh2mmm",
      "value": 96236277
    }
  ],
  "size": 205,
  "weight": 616,
  "fee": 2156,
  "status": {
    "confirmed": true,
    "block_height": 834460,
    "block_hash": "00000000000000000000484a79b643b2524bbce82e5d8a442013fa5b8905ed98",
    "block_time": 1710307468
  },
  "hex": "010000000001015d870ce4cda4e2517f482ebecb1f3fa2c7df054ec6e35ba4f357bd8c888888880100000000600fe80702272f000000000000225120a381853360367d0727625af34b875c687f3199c9f41d34025094935fc3d6225cf572bc0500000000225120c9778f0f7116a0fa90e759ca54b375f5c38d7db5875a2860af8354d65a8671e201406994f5649bdfa8ee18fdbf29d0d73b88a00025eddd59c75410d6416d109c7e229fa614e123045d14782f6a36263a5edc44e4fc345a198d1dc20b9c57fae2a30a00000000"
}