{
  "txid": "888888888ff8e932b2879e60050869364b130e1d2f72dc1733bac70e0d48c2b6",
  "version": 1,
  "locktime": 0,
  "vin": [
    {
      "txid": "888888888eb43356ea6a46c72d995bd68af6a1532f5e3f3f7ee222f2307a2cde",
      "vout": 1,
      "prevout": {
        "scriptpubkey": "512089fe3ca26e72c6b34d92e2a2aa1567c967a0b3c092167f2490aea67234195c14",
        "scriptpubkey_asm": "OP_PUSHNUM_1 OP_PUSHBYTES_32 89fe3ca26e72c6b34d92e2a2aa1567c967a0b3c092167f2490aea67234195c14",
        "scriptpubkey_type": "v1_p2tr",
        "scriptpubkey_address": "bc1p38lregnwwtrtxnvju23259t8e9n6pv7qjgt87fys46n8ydqets2q28fhdh",
        "value": 836261
      },
      "scriptsig": "",
      "scriptsig_asm": "",
      "witness": [
        "fb498bea7e51467a84d85870fc8c94b300f8a4976c28a0fa20e6dabac2258e5d0e49e4bd8e5f4fdb21e29e3b3e36a9e5b41430b539b2e4f2cac1d0a39558647a"
      ],
      "is_coinbase": false,
      "sequence": 2876400382
    }
  ],
  "vout": [
    {
      "scriptpubkey": "51201fa88047804bb93c898809d8f3d31068e9c8d8b03160748c430ba6162e0e5b4f",
      "scriptpubkey_asm": "OP_PUSHNUM_1 OP_PUSHBYTES_32 1fa88047804bb93c898809d8f3d31068e9c8d8b03160748c430ba6162e0e5b4f",
      "scriptpubkey_type": "v1_p2tr",
      "scriptpubkey_address": "bc1pr75gq3uqfwunezvgp8v085csdr5u3k9sx9s8frzrpwnpvtswtd8swf0rmf",
      "value": 11936
    },
    {
      "scriptpubkey": "512089fe3ca26e72c6b34d92e2a2aa1567c967a0b3c092167f2490aea67234195c14",
      "scriptpubkey_asm": "OP_PUSHNUM_1 OP_PUSHBYTES_32 89fe3ca26e72c6b34d92e2a2aa1567c967a0b3c092167f2490aea67234195c14",
      "scriptpubkey_type": "v1_p2tr",
      "scriptpubkey_address": "bc1p38lregnwwtrtxnvju23259t8e9n6pv7qjgt87fys46n8ydqets2q28fhdh",
      "value": 822323
    }
  ],
  "size": 205,
  "weight": 616,
  "fee": 2002,
  "status": {
    "confirmed": true,
    "block_height": 834460,
    "block_hash": "00000000000000000000484a79b643b2524bbce82e5d8a442013fa5b8905ed98",
    "block_time": 1710307468
  },
  "hex": "01000000000101de2c7a30f222e27e3f3f5e2f53a1f68ad65b992dc7466aea5633b48e888888880100000000fe6272ab02a02e0000000000002251201fa88047804bb93c898809d8f3d31068e9c8d8b03160748c430ba6162e0e5b4f338c0c000000000022512089fe3ca26e72c6b34d92e2a2aa1567c967a0b3c092167f2490aea67234195c140140fb498bea7e51467a84d85870fc8c94b300f8a4976c28a0fa20e6dabac2258e5d0e49e4bd8e5f4fdb21e29e3b3e36a9e5b41430b539b2e4f2cac1d0a39558647a00000000"
}