{
  "txid": "8888888888945f99b422fbd5397ea5629cb69f338333234cf32c054f85cdc5dd",
  "version": 1,
  "locktime": 0,
  "vin": [
    {
      "txid": "888888888f56c70ca13614dbaf8f1d70c0a11e0013abcce294b232383838bac4",
      "vout": 1,
      "prevout": {
        "scriptpubkey": "5120c9778f0f7116a0fa90e759ca54b375f5c38d7db5875a2860af8354d65a8671e2",
        "scriptpubkey_asm": "OP_PUSHNUM_1 OP_PUSHBYTES_32 c9778f0f7116a0fa90e759ca54b375f5c38d7db5875a2860af8354d65a8671e2",
        "scriptpubkey_type": "v1_p2tr",
        "scriptpubkey_address": "bc1pe9mc7rm3z6s04y88t899fvm47hpc6ld4sadzsc90sd2dvk5xw83qeh2mmm",
        "value": 96350093
      },
      "scriptsig": "",
      "scriptsig_asm": "",
      "witness": [
        "d3aba47088a3d08e37e1134f099a1562e53c4294ac23ef950a01f80da7fee18885cfd02035c973f589d21f347ddd0d3446df74f3c44a63f55b5491bdf37e9367"
      ],
      "is_coinbase": false,
      "sequence": 2912289328
    }
  ],
  "vout": [
    {
      "scriptpubkey": "5120c9cd23600ae94b6905d297511781c07b81d5b443402821e341da24cd781c05af",
      "scriptpubkey_asm": "OP_PUSHNUM_1 OP_PUSHBYTES_32 c9cd23600ae94b6905d297511781c07b81d5b443402821e341da24cd781c05af",
      "scriptpubkey_type": "v1_p2tr",
      "scriptpubkey_address": "bc1pe8xjxcq2a99kjpwjjag30qwq0wqatdzrgq5zrc6pmgjv67quqkhs3uhdvl",
      "value": 12071
    },
    {
      "scriptpubkey": "5120c9778f0f7116a0fa90e759ca54b375f5c38d7db5875a2860af8354d65a8671e2",
      "scriptpubkey_asm": "OP_PUSHNUM_1 OP_PUSHBYTES_32 c9778f0f7116a0fa90e759ca54b375f5c38d7db5875a2860af8354d65a8671e2",
      "scriptpubkey_type": "v1_p2tr",
      "scriptpubkey_address": "bc1pe9mc7rm3z6s04y88t899fvm47hpc6ld4sadzsc90sd2dvk5xw83qeh2mmm",
      "value": 96335866
    }
  ],
  "size": 205,
  "weight": 616,
  "fee": 2156,
  "status": {
    "confirmed": true,
    "block_height": 834460,
    "block_hash": "00000000000000000000484a79b643b2524bbce82e5d8a442013fa5b8905ed98",
    "block_time": 1710307468
  },
  "hex": "01000000000101c4ba38383832b294e2ccab13001ea1c0701d8fafdb1436a10cc7568f888888880100000000300296ad02272f000000000000225120c9cd23600ae94b6905d297511781c07b81d5b443402821e341da24cd781c05affaf7bd0500000000225120c9778f0f7116a0fa90e759ca54b375f5c38d7db5875a2860af8354d65a8671e20140d3aba47088a3d08e37e1134f099a1562e53c4294ac23ef950a01f80da7fee18885cfd02035c973f589d21f347ddd0d3446df74f3c44a63f55b5491bdf37e936700000000"
}