{
  "txid": "888888888c8a04ed1c3ab7c90dcbe92706c5600bb68540782d7fdc04ba8b5a5b",
  "version": 1,
  "locktime": 938289563,
  "vin": [
    {
      "txid": "113727a3553b7d60187bd9d47bbbb099269ee88415c69fa08add2d2029340d84",
      "vout": 8,
      "prevout": {
        "scriptpubkey": "00142867a44744e1d6cba280701afc23a355384a5f04",
        "scriptpubkey_asm": "OP_0 OP_PUSHBYTES_20 2867a44744e1d6cba280701afc23a355384a5f04",
        "scriptpubkey_type": "v0_p2wpkh",
        "scriptpubkey_address": "bc1q9pn6g36yu8tvhg5qwqd0cgar25uy5hcy0swndc",
        "value": 13131
      },
      "scriptsig": "",
      "scriptsig_asm": "",
      "witness": [
        "304402205d9deb3ceea5b7e8ba822e2e3c52cc2ddb70cd93218e31553934fd0340846a60022010fbb23eef8af73cb98f940d5cfe117efcd16a791faff901c80503ee5f57e10101",
        "0334e33dcde003bed7a9736eab4bbcd0061f6e2ac79bc936a96b7974c8bbbb2038"
      ],
      "is_coinbase": false,
      "sequence": 2147483788
    }
  ],
  "vout": [
    {
      "scriptpubkey": "51206e504ea94f99b12ad0dfd9a5f51577d7ca72007c6804c01733a2c7467b7798c0",
      "scriptpubkey_asm": "OP_PUSHNUM_1 OP_PUSHBYTES_32 6e504ea94f99b12ad0dfd9a5f51577d7ca72007c6804c01733a2c7467b7798c0",
      "scriptpubkey_type": "v1_p2tr",
      "scriptpubkey_address": "bc1pdegya220nxcj45xlmxjl29th6l98yqrudqzvq9en5tr5v7mhnrqqaygj9e",
      "value": 11667
    }
  ],
  "size": 203,
  "weight": 485,
  "fee": 1464,
  "status": {
    "confirmed": true,
    "block_height": 834460,
    "block_hash": "00000000000000000000484a79b643b2524bbce82e5d8a442013fa5b8905ed98",
    "block_time": 1710307468
  },
  "hex": "01000000000101840d3429202ddd8aa09fc61584e89e2699b0bb7bd4d97b18607d3b55a327371108000000008c00008001932d0000000000002251206e504ea94f99b12ad0dfd9a5f51577d7ca72007c6804c01733a2c7467b7798c00247304402205d9deb3ceea5b7e8ba822e2e3c52cc2ddb70cd93218e31553934fd0340846a60022010fbb23eef8af73cb98f940d5cfe117efcd16a791faff901c80503ee5f57e10101210334e33dcde003bed7a9736eab4bbcd0061f6e2ac79bc936a96b7974c8bbbb20389b29ed37"
}