{
  "txid": "88888888912b8940d306e98a9123f73cf0b83c2d9b750ce7c546d4d479a2dac6",
  "version": 1,
  "locktime": 0,
  "vin": [
    {
      "txid": "d79ed1dbf66450aca74597996c7408a273666fc57a394f2800df9814ecead111",
      "vout": 27,
      "prevout": {
        "scriptpubkey": "5120e0b9252acbf755a4bda0486449eb82e5691af131c94b32872179575f8756178a",
        "scriptpubkey_asm": "OP_PUSHNUM_1 OP_PUSHBYTES_32 e0b9252acbf755a4bda0486449eb82e5691af131c94b32872179575f8756178a",
        "scriptpubkey_type": "v1_p2tr",
        "scriptpubkey_address": "bc1puzuj22kt7a26f0dqfpjyn6uzu4534uf3e99n9pep09t4lp6kz79qs0s9mt",
        "value": 14948
      },
      "scriptsig": "",
      "scriptsig_asm": "",
      "witness": [
        "7028b112b63c290eecd883e4ce8f0b8c7fdc4364b005ca9a2eed89063f8f6579a08760f5308df0cf61afb87c8e08a4ed654c0b697d06a4e1cb1fe275b45f83a6"
      ],
      "is_coinbase": false,
      "sequence": 13424498
    }
  ],
  "vout": [
    {
      "scriptpubkey": "51204940cd831cae34fd259fadff1d7dc01b75d7009ffa57bb8475b1be1befe79eb7",
      "scriptpubkey_asm": "OP_PUSHNUM_1 OP_PUSHBYTES_32 4940cd831cae34fd259fadff1d7dc01b75d7009ffa57bb8475b1be1befe79eb7",
      "scriptpubkey_type": "v1_p2tr",
      "scriptpubkey_address": "bc1pf9qvmqcu4c606fvl4hl36lwqrd6awqyllftmhpr4kxlphml8n6mslekapl",
      "value": 11704
    },
    {
      "scriptpubkey": "5120e0b9252acbf755a4bda0486449eb82e5691af131c94b32872179575f8756178a",
      "scriptpubkey_asm": "OP_PUSHNUM_1 OP_PUSHBYTES_32 e0b9252acbf755a4bda0486449eb82e5691af131c94b32872179575f8756178a",
      "scriptpubkey_type": "v1_p2tr",
      "scriptpubkey_address": "bc1puzuj22kt7a26f0dqfpjyn6uzu4534uf3e99n9pep09t4lp6kz79qs0s9mt",
      "value": 1627
    }
  ],
  "size": 205,
  "weight": 616,
  "fee": 1617,
  "status": {
    "confirmed": true,
    "block_height": 834464,
    "block_hash": "0000000000000000000177a0869a911a2b65c9bdcd5a8bcb02b68f305bee848e",
    "block_time": 1710308296
  },
  "hex": "0100000000010111d1eaec1498df00284f397ac56f6673a208746c999745a7ac5064f6dbd19ed71b0000000072d7cc0002b82d0000000000002251204940cd831cae34fd259fadff1d7dc01b75d7009ffa57bb8475b1be1befe79eb75b06000000000000225120e0b9252acbf755a4bda0486449eb82e5691af131c94b32872179575f8756178a01407028b112b63c290eecd883e4ce8f0b8c7fdc4364b005ca9a2eed89063f8f6579a08760f5308df0cf61afb87c8e08a4ed654c0b697d06a4e1cb1fe275b45f83a600000000"
}