{
  "txid": "888888888e40746c51f6fc98eea98e50568e0cb93a44e4721b5bc73de34bbe0d",
  "version": 1,
  "locktime": 1619116512,
  "vin": [
    {
      "txid": "113727a3553b7d60187bd9d47bbbb099269ee88415c69fa08add2d2029340d84",
      "vout": 3,
      "prevout": {
        "scriptpubkey": "00142867a44744e1d6cba280701afc23a355384a5f04",
        "scriptpubkey_asm": "OP_0 OP_PUSHBYTES_20 2867a44744e1d6cba280701afc23a355384a5f04",
        "scriptpubkey_type": "v0_p2wpkh",
        "scriptpubkey_address": "bc1q9pn6g36yu8tvhg5qwqd0cgar25uy5hcy0swndc",
        "value": 13131
      },
      "scriptsig": "",
      "scriptsig_asm": "",
      "witness": [
        "3045022100e440064578e7e085708f39be1c7d54f2002cae2c26bdd15a18665d70356c8e2b02202080c8d8c06cea68951f3b691368559b6362834172478c9a8448f2ccb6a8e0db01",
        "0334e33dcde003bed7a9736eab4bbcd0061f6e2ac79bc936a96b7974c8bbbb2038"
      ],
      "is_coinbase": false,
      "sequence": 2147483718
    }
  ],
  "vout": [
    {
      "scriptpubkey": "51206e504ea94f99b12ad0dfd9a5f51577d7ca72007c6804c01733a2c7467b7798c0",
      "scriptpubkey_asm": "OP_PUSHNUM_1 OP_PUSHBYTES_32 6e504ea94f99b12ad0dfd9a5f51577d7ca72007c6804c01733a2c7467b7798c0",
      "scriptpubkey_type": "v1_p2tr",
      "scriptpubkey_address": "bc1pdegya220nxcj45xlmxjl29th6l98yqrudqzvq9en5tr5v7mhnrqqaygj9e",
      "value": 11667
    }
  ],
  "size": 204,
  "weight": 486,
  "fee": 1464,
  "status": {
    "confirmed": true,
    "block_height": 834460,
    "block_hash": "00000000000000000000484a79b643b2524bbce82e5d8a442013fa5b8905ed98",
    "block_time": 1710307468
  },
  "hex": "01000000000101840d3429202ddd8aa09fc61584e89e2699b0bb7bd4d97b18607d3b55a327371103000000004600008001932d0000000000002251206e504ea94f99b12ad0dfd9a5f51577d7ca72007c6804c01733a2c7467b7798c002483045022100e440064578e7e085708f39be1c7d54f2002cae2c26bdd15a18665d70356c8e2b02202080c8d8c06cea68951f3b691368559b6362834172478c9a8448f2ccb6a8e0db01210334e33dcde003bed7a9736eab4bbcd0061f6e2ac79bc936a96b7974c8bbbb2038e0c18160"
}