{
  "txid": "888888888f56c70ca13614dbaf8f1d70c0a11e0013abcce294b232383838bac4",
  "version": 1,
  "locktime": 0,
  "vin": [
    {
      "txid": "8888888889204e3e7549e06d77b4161d5d01aec23ddd86c803717f18f0023c85",
      "vout": 1,
      "prevout": {
        "scriptpubkey": "5120c9778f0f7116a0fa90e759ca54b375f5c38d7db5875a2860af8354d65a8671e2",
        "scriptpubkey_asm": "OP_PUSHNUM_1 OP_PUSHBYTES_32 c9778f0f7116a0fa90e759ca54b375f5c38d7db5875a2860af8354d65a8671e2",
        "scriptpubkey_type": "v1_p2tr",
        "scriptpubkey_address": "bc1pe9mc7rm3z6s04y88t899fvm47hpc6ld4sadzsc90sd2dvk5xw83qeh2mmm",
        "value": 96364320
      },
      "scriptsig": "",
      "scriptsig_asm": "",
      "witness": [
        "8829bbdf527fc8fed25f41339c41fa473b5324d835d1a22a5b7b8e1be255910c2ddef607b4ec48bc8a5a2cf8fce748448c852f65d1689bcc5a7facea1c169c0c"
      ],
      "is_coinbase": false,
      "sequence": 651726258
    }
  ],
  "vout": [
    {
      "scriptpubkey": "512055c5375fe396ddf8ca35f6adc7cc5de94c7fbdfed87db4f62d82b161d11f7250",
      "scriptpubkey_asm": "OP_PUSHNUM_1 OP_PUSHBYTES_32 55c5375fe396ddf8ca35f6adc7cc5de94c7fbdfed87db4f62d82b161d11f7250",
      "scriptpubkey_type": "v1_p2tr",
      "scriptpubkey_address": "bc1p2hznwhlrjmwl3j3476ku0nzaa9x8l007mp7mfa3ds2ckr5glwfgqkhwya9",
      "value": 12071
    },
    {
      "scriptpubkey": "5120c9778f0f7116a0fa90e759ca54b375f5c38d7db5875a2860af8354d65a8671e2",
      "scriptpubkey_asm": "OP_PUSHNUM_1 OP_PUSHBYTES_32 c9778f0f7116a0fa90e759ca54b375f5c38d7db5875a2860af8354d65a8671e2",
      "scriptpubkey_type": "v1_p2tr",
      "scriptpubkey_address": "bc1pe9mc7rm3z6s04y88t899fvm47hpc6ld4sadzsc90sd2dvk5xw83qeh2mmm",
      "value": 96350093
    }
  ],
  "size": 205,
  "weight": 616,
  "fee": 2156,
  "status": {
    "confirmed": true,
    "block_height": 834460,
    "block_hash": "00000000000000000000484a79b643b2524bbce82e5d8a442013fa5b8905ed98",
    "block_time": 1710307468
  },
  "hex": "01000000000101853c02f0187f7103c886dd3dc2ae015d1d16b4776de049753e4e2089888888880100000000b28dd82602272f00000000000022512055c5375fe396ddf8ca35f6adc7cc5de94c7fbdfed87db4f62d82b161d11f72508d2fbe0500000000225120c9778f0f7116a0fa90e759ca54b375f5c38d7db5875a2860af8354d65a8671e201408829bbdf527fc8fed25f41339c41fa473b5324d835d1a22a5b7b8e1be255910c2ddef607b4ec48bc8a5a2cf8fce748448c852f65d1689bcc5a7facea1c169c0c00000000"
}