{
  "txid": "888888888802907c18aa30727d47277de1956f4e8f4140667b8761189a025124",
  "version": 1,
  "locktime": 1207982305,
  "vin": [
    {
      "txid": "113727a3553b7d60187bd9d47bbbb099269ee88415c69fa08add2d2029340d84",
      "vout": 1,
      "prevout": {
        "scriptpubkey": "00142867a44744e1d6cba280701afc23a355384a5f04",
        "scriptpubkey_asm": "OP_0 OP_PUSHBYTES_20 2867a44744e1d6cba280701afc23a355384a5f04",
        "scriptpubkey_type": "v0_p2wpkh",
        "scriptpubkey_address": "bc1q9pn6g36yu8tvhg5qwqd0cgar25uy5hcy0swndc",
        "value": 13131
      },
      "scriptsig": "",
      "scriptsig_asm": "",
      "witness": [
        "3045022100b5d6613ba9c5b563819abb147ec2c1392b7c8906c094684eaa2bde8809b26cfa0220102479b2021ba6cbe443492230fadd5febc51806e12000ad4f305082ec40123a01",
        "0334e33dcde003bed7a9736eab4bbcd0061f6e2ac79bc936a96b7974c8bbbb2038"
      ],
      "is_coinbase": false,
      "sequence": 2147483954
    }
  ],
  "vout": [
    {
      "scriptpubkey": "51206e504ea94f99b12ad0dfd9a5f51577d7ca72007c6804c01733a2c7467b7798c0",
      "scriptpubkey_asm": "OP_PUSHNUM_1 OP_PUSHBYTES_32 6e504ea94f99b12ad0dfd9a5f51577d7ca72007c6804c01733a2c7467b7798c0",
      "scriptpubkey_type": "v1_p2tr",
      "scriptpubkey_address": "bc1pdegya220nxcj45xlmxjl29th6l98yqrudqzvq9en5tr5v7mhnrqqaygj9e",
      "value": 11667
    }
  ],
  "size": 204,
  "weight": 486,
  "fee": 1464,
  "status": {
    "confirmed": true,
    "block_height": 834460,
    "block_hash": "00000000000000000000484a79b643b2524bbce82e5d8a442013fa5b8905ed98",
    "block_time": 1710307468
  },
  "hex": "01000000000101840d3429202ddd8aa09fc61584e89e2699b0bb7bd4d97b18607d3b55a327371101000000003201008001932d0000000000002251206e504ea94f99b12ad0dfd9a5f51577d7ca72007c6804c01733a2c7467b7798c002483045022100b5d6613ba9c5b563819abb147ec2c1392b7c8906c094684eaa2bde8809b26cfa0220102479b2021ba6cbe443492230fadd5febc51806e12000ad4f305082ec40123a01210334e33dcde003bed7a9736eab4bbcd0061f6e2ac79bc936a96b7974c8bbbb2038e1580048"
}