{
  "txid": "8888888888696c3cb78d6095de671ff31da0f64a503468f2caad70ed612d47c0",
  "version": 1,
  "locktime": 0,
  "vin": [
    {
      "txid": "888888888ade72e74d61ba84d0f97a288df334103d6d8d1887a20aec502ed092",
      "vout": 1,
      "prevout": {
        "scriptpubkey": "5120b1623eea6d63795f083c801550a1588bc35c23fa549e6199a3f077e4406c436a",
        "scriptpubkey_asm": "OP_PUSHNUM_1 OP_PUSHBYTES_32 b1623eea6d63795f083c801550a1588bc35c23fa549e6199a3f077e4406c436a",
        "scriptpubkey_type": "v1_p2tr",
        "scriptpubkey_address": "bc1pk93ra6ndvdu47zpusq24pg2c30p4cgl62j0xrxdr7pm7gsrvgd4q3q5rg8",
        "value": 9429075
      },
      "scriptsig": "",
      "scriptsig_asm": "",
      "witness": [
        "c3271f5cd9d2a2583ef1ad068091f24262e52c30974d810d0dee6b058ec13e9927370ffbe5b3f3f4e578744981db7cefd560b3141c51ec0a51f7d455a01cd01a"
      ],
      "is_coinbase": false,
      "sequence": 1986185223
    }
  ],
  "vout": [
    {
      "scriptpubkey": "51200063930e1fec702be5ff9fac9f6bbcaedfa2f293e26f6997586710a3bc799ec8",
      "scriptpubkey_asm": "OP_PUSHNUM_1 OP_PUSHBYTES_32 0063930e1fec702be5ff9fac9f6bbcaedfa2f293e26f6997586710a3bc799ec8",
      "scriptpubkey_type": "v1_p2tr",
      "scriptpubkey_address": "bc1pqp3exrsla3czhe0ln7kf76au4m069u5nufhkn96cvug280renmyqaw8wlx",
      "value": 11923
    },
    {
      "scriptpubkey": "5120b1623eea6d63795f083c801550a1588bc35c23fa549e6199a3f077e4406c436a",
      "scriptpubkey_asm": "OP_PUSHNUM_1 OP_PUSHBYTES_32 b1623eea6d63795f083c801550a1588bc35c23fa549e6199a3f077e4406c436a",
      "scriptpubkey_type": "v1_p2tr",
      "scriptpubkey_address": "bc1pk93ra6ndvdu47zpusq24pg2c30p4cgl62j0xrxdr7pm7gsrvgd4q3q5rg8",
      "value": 9415150
    }
  ],
  "size": 205,
  "weight": 616,
  "fee": 2002,
  "status": {
    "confirmed": true,
    "block_height": 834460,
    "block_hash": "00000000000000000000484a79b643b2524bbce82e5d8a442013fa5b8905ed98",
    "block_time": 1710307468
  },
  "hex": "0100000000010192d02e50ec0aa287188d6d3d1034f38d287af9d084ba614de772de8a88888888010000000007c8627602932e0000000000002251200063930e1fec702be5ff9fac9f6bbcaedfa2f293e26f6997586710a3bc799ec8eea98f0000000000225120b1623eea6d63795f083c801550a1588bc35c23fa549e6199a3f077e4406c436a0140c3271f5cd9d2a2583ef1ad068091f24262e52c30974d810d0dee6b058ec13e9927370ffbe5b3f3f4e578744981db7cefd560b3141c51ec0a51f7d455a01cd01a00000000"
}