{
  "txid": "8888888f9abebfc5c91827e4a2b74134d3ca4afc5dfe5c39bb1bc86688705e81",
  "version": 1,
  "locktime": 0,
  "vin": [
    {
      "txid": "88888886827c51d83a0618d56702b9053f763ff4e738a331c3be7fb3169ab490",
      "vout": 1,
      "prevout": {
        "scriptpubkey": "5120cfa2ad38a459d718628bff2b1b28480bab674a57808ed720771852ad87538f60",
        "scriptpubkey_asm": "OP_PUSHNUM_1 OP_PUSHBYTES_32 cfa2ad38a459d718628bff2b1b28480bab674a57808ed720771852ad87538f60",
        "scriptpubkey_type": "v1_p2tr",
        "scriptpubkey_address": "bc1pe7326w9yt8t3sc5tlu43k2zgpw4kwjjhsz8dwgrhrpf2mp6n3asqnpl4c2",
        "value": 5175
      },
      "scriptsig": "",
      "scriptsig_asm": "",
      "witness": [
        "3723473ac660dfa7e135c5178d27ccb4a52b3ba0afbfd7a4d73c500cd93b4ca297124f03ad28aebdaca4d5ee3ded4f782c21d115f89ff967dc9d1bd2ddfac908"
      ],
      "is_coinbase": false,
      "sequence": 1762298852
    },
    {
      "txid": "8888888c06589ff7a0ce793ef7cac0100a50a4c7a186067ce5a2dfa0bd21c1bb",
      "vout": 1,
      "prevout": {
        "scriptpubkey": "5120cfa2ad38a459d718628bff2b1b28480bab674a57808ed720771852ad87538f60",
        "scriptpubkey_asm": "OP_PUSHNUM_1 OP_PUSHBYTES_32 cfa2ad38a459d718628bff2b1b28480bab674a57808ed720771852ad87538f60",
        "scriptpubkey_type": "v1_p2tr",
        "scriptpubkey_address": "bc1pe7326w9yt8t3sc5tlu43k2zgpw4kwjjhsz8dwgrhrpf2mp6n3asqnpl4c2",
        "value": 5175
      },
      "scriptsig": "",
      "scriptsig_asm": "",
      "witness": [
        "1a6a202342c98c980b24f7b3388251d317822245a223b37a900a93cffe5b64b7e6cdfacacfac65d8eed5bba6cf3db6ad1f50dab59a71342a3d68b5dadc0ce40d"
      ],
      "is_coinbase": false,
      "sequence": 4294967295
    },
    {
      "txid": "88888886412237679ff609f8b8b1ea747c55408f6deedab3554cb1e1c90152d1",
      "vout": 1,
      "prevout": {
        "scriptpubkey": "5120cfa2ad38a459d718628bff2b1b28480bab674a57808ed720771852ad87538f60",
        "scriptpubkey_asm": "OP_PUSHNUM_1 OP_PUSHBYTES_32 cfa2ad38a459d718628bff2b1b28480bab674a57808ed720771852ad87538f60",
        "scriptpubkey_type": "v1_p2tr",
        "scriptpubkey_address": "bc1pe7326w9yt8t3sc5tlu43k2zgpw4kwjjhsz8dwgrhrpf2mp6n3asqnpl4c2",
        "value": 5175
      },
      "scriptsig": "",
      "scriptsig_asm": "",
      "witness": [
        "04ae3f1b1333a98187b6e8cc1ecf6917a463965ec6c9c8dcb57d1e85f028e7dc7b0b7fb713b0e52d72d9c2c9f4b2955d7ba2e709d6839d4af6df3556fc2b5166"
      ],
      "is_coinbase": false,
      "sequence": 4294967295
    }
  ],
  "vout": [
    {
      "scriptpubkey": "5120ccaf4d143052fbc3059053db85a59a428323110dd0e613cd1b085992e72f5d6a",
      "scriptpubkey_asm": "OP_PUSHNUM_1 OP_PUSHBYTES_32 ccaf4d143052fbc3059053db85a59a428323110dd0e613cd1b085992e72f5d6a",
      "scriptpubkey_type": "v1_p2tr",
      "scriptpubkey_address": "bc1pejh569ps2tauxpvs20dctfv6g2pjxygd6rnp8ngmppve9ee0t44qgpzv0u",
      "value": 12212
    },
    {
      "scriptpubkey": "5120cfa2ad38a459d718628bff2b1b28480bab674a57808ed720771852ad87538f60",
      "scriptpubkey_asm": "OP_PUSHNUM_1 OP_PUSHBYTES_32 cfa2ad38a459d718628bff2b1b28480bab674a57808ed720771852ad87538f60",
      "scriptpubkey_type": "v1_p2tr",
      "scriptpubkey_address": "bc1pe7326w9yt8t3sc5tlu43k2zgpw4kwjjhsz8dwgrhrpf2mp6n3asqnpl4c2",
      "value": 1003
    }
  ],
  "size": 419,
  "weight": 1076,
  "fee": 2310,
  "status": {
    "confirmed": true,
    "block_height": 834464,
    "block_hash": "0000000000000000000177a0869a911a2b65c9bdcd5a8bcb02b68f305bee848e",
    "block_time": 1710308296
  },
  "hex": "0100000000010390b49a16b37fbec331a338e7f43f763f05b90267d518063ad8517c82868888880100000000e48b0a69bbc121bda0dfa2e57c0686a1c7a4500a10c0caf73e79cea0f79f58068c8888880100000000ffffffffd15201c9e1b14c55b3daee6d8f40557c74eab1b8f809f69f67372241868888880100000000ffffffff02b42f000000000000225120ccaf4d143052fbc3059053db85a59a428323110dd0e613cd1b085992e72f5d6aeb03000000000000225120cfa2ad38a459d718628bff2b1b28480bab674a57808ed720771852ad87538f6001403723473ac660dfa7e135c5178d27ccb4a52b3ba0afbfd7a4d73c500cd93b4ca297124f03ad28aebdaca4d5ee3ded4f782c21d115f89ff967dc9d1bd2ddfac90801401a6a202342c98c980b24f7b3388251d317822245a223b37a900a93cffe5b64b7e6cdfacacfac65d8eed5bba6cf3db6ad1f50dab59a71342a3d68b5dadc0ce40d014004ae3f1b1333a98187b6e8cc1ecf6917a463965ec6c9c8dcb57d1e85f028e7dc7b0b7fb713b0e52d72d9c2c9f4b2955d7ba2e709d6839d4af6df3556fc2b516600000000"
}