{
  "txid": "888888888cae9de737ea4305fa7b5797bef0b91da88681e7fd80ef9eac497a3b",
  "version": 1,
  "locktime": 0,
  "vin": [
    {
      "txid": "888888888ea1bd842543db96ea8b4ef7612e89f2a17296553ffae8b90bc5cd94",
      "vout": 1,
      "prevout": {
        "scriptpubkey": "512097dd27902f96dfea2738704cd035abf0fc75d9ee323e4039811da77c940aaee4",
        "scriptpubkey_asm": "OP_PUSHNUM_1 OP_PUSHBYTES_32 97dd27902f96dfea2738704cd035abf0fc75d9ee323e4039811da77c940aaee4",
        "scriptpubkey_type": "v1_p2tr",
        "scriptpubkey_address": "bc1pjlwj0yp0jm075fecwpxdqddt7r78tk0wxglyqwvprknhe9q24mjqvgpd0h",
        "value": 992667
      },
      "scriptsig": "",
      "scriptsig_asm": "",
      "witness": [
        "f188b218e8b380f94fc690cbce0ecbc19b286f8fc810e4e74b9124bb5144860cb05de0af928b86fba80092c4e46eacf15889703333bed1ca097d21cbf5fb8870"
      ],
      "is_coinbase": false,
      "sequence": 338499383
    }
  ],
  "vout": [
    {
      "scriptpubkey": "51207f6224eefbb0c35741a4dae4f4e0d1cbb036b73f91651a6323190da19e6e93cd",
      "scriptpubkey_asm": "OP_PUSHNUM_1 OP_PUSHBYTES_32 7f6224eefbb0c35741a4dae4f4e0d1cbb036b73f91651a6323190da19e6e93cd",
      "scriptpubkey_type": "v1_p2tr",
      "scriptpubkey_address": "bc1p0a3zfmhmkrp4wsdymtj0fcx3ewcrddelj9j35cerryx6r8nwj0xsllnswr",
      "value": 12071
    },
    {
      "scriptpubkey": "512097dd27902f96dfea2738704cd035abf0fc75d9ee323e4039811da77c940aaee4",
      "scriptpubkey_asm": "OP_PUSHNUM_1 OP_PUSHBYTES_32 97dd27902f96dfea2738704cd035abf0fc75d9ee323e4039811da77c940aaee4",
      "scriptpubkey_type": "v1_p2tr",
      "scriptpubkey_address": "bc1pjlwj0yp0jm075fecwpxdqddt7r78tk0wxglyqwvprknhe9q24mjqvgpd0h",
      "value": 978440
    }
  ],
  "size": 205,
  "weight": 616,
  "fee": 2156,
  "status": {
    "confirmed": true,
    "block_height": 834460,
    "block_hash": "00000000000000000000484a79b643b2524bbce82e5d8a442013fa5b8905ed98",
    "block_time": 1710307468
  },
  "hex": "0100000000010194cdc50bb9e8fa3f559672a1f2892e61f74e8bea96db432584bda18e88888888010000000037172d1402272f0000000000002251207f6224eefbb0c35741a4dae4f4e0d1cbb036b73f91651a6323190da19e6e93cd08ee0e000000000022512097dd27902f96dfea2738704cd035abf0fc75d9ee323e4039811da77c940aaee40140f188b218e8b380f94fc690cbce0ecbc19b286f8fc810e4e74b9124bb5144860cb05de0af928b86fba80092c4e46eacf15889703333bed1ca097d21cbf5fb887000000000"
}