{
  "txid": "888888888e8331bcd008fcf633cd90ca1ab62a2a7abc98436ac80f18191e1c88",
  "version": 1,
  "locktime": 0,
  "vin": [
    {
      "txid": "888888888eadb16db22d5c24c474b0d684c75b119c745d5e4fd0943158901442",
      "vout": 1,
      "prevout": {
        "scriptpubkey": "5120b1623eea6d63795f083c801550a1588bc35c23fa549e6199a3f077e4406c436a",
        "scriptpubkey_asm": "OP_PUSHNUM_1 OP_PUSHBYTES_32 b1623eea6d63795f083c801550a1588bc35c23fa549e6199a3f077e4406c436a",
        "scriptpubkey_type": "v1_p2tr",
        "scriptpubkey_address": "bc1pk93ra6ndvdu47zpusq24pg2c30p4cgl62j0xrxdr7pm7gsrvgd4q3q5rg8",
        "value": 9401225
      },
      "scriptsig": "",
      "scriptsig_asm": "",
      "witness": [
        "669e324343173587f6dd61c4be53086c1b64bcbe13a72ba0aeb192466511a5e2a78d7f0ff4ee944daf81034b57f3ad3bb9f06ee4cfad13352247fa89a65b9574"
      ],
      "is_coinbase": false,
      "sequence": 3830324571
    }
  ],
  "vout": [
    {
      "scriptpubkey": "51209bd89ca7e03cf6dc940a5f5c6e5e1b8ca17e31224127312423e4bbe9612d281a",
      "scriptpubkey_asm": "OP_PUSHNUM_1 OP_PUSHBYTES_32 9bd89ca7e03cf6dc940a5f5c6e5e1b8ca17e31224127312423e4bbe9612d281a",
      "scriptpubkey_type": "v1_p2tr",
      "scriptpubkey_address": "bc1pn0vfeflq8nmde9q2tawxuhsm3jshuvfzgynnzfpruja7jcfd9qdqzs4u7a",
      "value": 11923
    },
    {
      "scriptpubkey": "5120b1623eea6d63795f083c801550a1588bc35c23fa549e6199a3f077e4406c436a",
      "scriptpubkey_asm": "OP_PUSHNUM_1 OP_PUSHBYTES_32 b1623eea6d63795f083c801550a1588bc35c23fa549e6199a3f077e4406c436a",
      "scriptpubkey_type": "v1_p2tr",
      "scriptpubkey_address": "bc1pk93ra6ndvdu47zpusq24pg2c30p4cgl62j0xrxdr7pm7gsrvgd4q3q5rg8",
      "value": 9387300
    }
  ],
  "size": 205,
  "weight": 616,
  "fee": 2002,
  "status": {
    "confirmed": true,
    "block_height": 834460,
    "block_hash": "00000000000000000000484a79b643b2524bbce82e5d8a442013fa5b8905ed98",
    "block_time": 1710307468
  },
  "hex": "01000000000101421490583194d04f5e5d749c115bc784d6b074c4245c2db26db1ad8e8888888801000000005b1d4ee402932e0000000000002251209bd89ca7e03cf6dc940a5f5c6e5e1b8ca17e31224127312423e4bbe9612d281a243d8f0000000000225120b1623eea6d63795f083c801550a1588bc35c23fa549e6199a3f077e4406c436a0140669e324343173587f6dd61c4be53086c1b64bcbe13a72ba0aeb192466511a5e2a78d7f0ff4ee944daf81034b57f3ad3bb9f06ee4cfad13352247fa89a65b957400000000"
}