{
  "txid": "888888888a9ee56ef0456db7da89a9f32cf8da5d82a7df4b1351cd08f4d672fe",
  "version": 1,
  "locktime": 0,
  "vin": [
    {
      "txid": "888888888eaa20086a45ea7e182944a495ec6558228996cac59dbcb718fa4746",
      "vout": 1,
      "prevout": {
        "scriptpubkey": "51200feda00c9bfe50b868d8cc194774c445ee9005913c14b3aa5c45862c569dffca",
        "scriptpubkey_asm": "OP_PUSHNUM_1 OP_PUSHBYTES_32 0feda00c9bfe50b868d8cc194774c445ee9005913c14b3aa5c45862c569dffca",
        "scriptpubkey_type": "v1_p2tr",
        "scriptpubkey_address": "bc1pplk6qrymlegts6xcesv5waxyghhfqpv38s2t82jugkrzc45all9qm3mv57",
        "value": 7980875
      },
      "scriptsig": "",
      "scriptsig_asm": "",
      "witness": [
        "adc0d49a10db356b24aa992d06af96120be5d36f918ed9f7260d3682d258e112fd8d553b9a8d20dcd9099e27b328efb9abf6a188949b52b10a19b54f28f19d24"
      ],
      "is_coinbase": false,
      "sequence": 2679574624
    }
  ],
  "vout": [
    {
      "scriptpubkey": "512066598c1d25590cdf876660657d68c0a1c9c835d950a4e084038d98282ae57baa",
      "scriptpubkey_asm": "OP_PUSHNUM_1 OP_PUSHBYTES_32 66598c1d25590cdf876660657d68c0a1c9c835d950a4e084038d98282ae57baa",
      "scriptpubkey_type": "v1_p2tr",
      "scriptpubkey_address": "bc1pvevcc8f9tyxdlpmxvpjh66xq58yusdwe2zjwppqr3kvzs2h90w4q60l78n",
      "value": 11923
    },
    {
      "scriptpubkey": "51200feda00c9bfe50b868d8cc194774c445ee9005913c14b3aa5c45862c569dffca",
      "scriptpubkey_asm": "OP_PUSHNUM_1 OP_PUSHBYTES_32 0feda00c9bfe50b868d8cc194774c445ee9005913c14b3aa5c45862c569dffca",
      "scriptpubkey_type": "v1_p2tr",
      "scriptpubkey_address": "bc1pplk6qrymlegts6xcesv5waxyghhfqpv38s2t82jugkrzc45all9qm3mv57",
      "value": 7966950
    }
  ],
  "size": 205,
  "weight": 616,
  "fee": 2002,
  "status": {
    "confirmed": true,
    "block_height": 834460,
    "block_hash": "00000000000000000000484a79b643b2524bbce82e5d8a442013fa5b8905ed98",
    "block_time": 1710307468
  },
  "hex": "010000000001014647fa18b7bc9dc5ca9689225865ec95a44429187eea456a0820aa8e8888888801000000006010b79f02932e00000000000022512066598c1d25590cdf876660657d68c0a1c9c835d950a4e084038d98282ae57baae6907900000000002251200feda00c9bfe50b868d8cc194774c445ee9005913c14b3aa5c45862c569dffca0140adc0d49a10db356b24aa992d06af96120be5d36f918ed9f7260d3682d258e112fd8d553b9a8d20dcd9099e27b328efb9abf6a188949b52b10a19b54f28f19d2400000000"
}