{
  "txid": "888888888a69908385d068162c195c1056c4a636a8e821feed0f357b5e735fe8",
  "version": 1,
  "locktime": 0,
  "vin": [
    {
      "txid": "888888888e93519d0c3f2fdf397cc1e747954f2abaa0581f02ac58a64c738d9c",
      "vout": 1,
      "prevout": {
        "scriptpubkey": "51204bd743891b88005eb3ef3bb49ff5715a43689c6d9a443908965d29cf3ae0a820",
        "scriptpubkey_asm": "OP_PUSHNUM_1 OP_PUSHBYTES_32 4bd743891b88005eb3ef3bb49ff5715a43689c6d9a443908965d29cf3ae0a820",
        "scriptpubkey_type": "v1_p2tr",
        "scriptpubkey_address": "bc1pf0t58zgm3qq9avl08w6flat3tfpk38rdnfzrjzykt55u7whq4qsqyqpnru",
        "value": 9777200
      },
      "scriptsig": "",
      "scriptsig_asm": "",
      "witness": [
        "82fba8d1b521a01ec0b797f61a3c7c44d0bdf184937fd443e6d1199e36d8d1ace1b7d1b8000e664719b03a8d496aefc36f9651fa2cd4c9572b77f9428951eea4"
      ],
      "is_coinbase": false,
      "sequence": 4252161664
    }
  ],
  "vout": [
    {
      "scriptpubkey": "512070f52b233b47059bfd941348f7305b6cbfed065867a1c155ab04398d12a7615d",
      "scriptpubkey_asm": "OP_PUSHNUM_1 OP_PUSHBYTES_32 70f52b233b47059bfd941348f7305b6cbfed065867a1c155ab04398d12a7615d",
      "scriptpubkey_type": "v1_p2tr",
      "scriptpubkey_address": "bc1pwr6jkgemguzehlv5zdy0wvzmdjl76pjcv7suz4dtqsuc6y48v9ws8llekv",
      "value": 11923
    },
    {
      "scriptpubkey": "51204bd743891b88005eb3ef3bb49ff5715a43689c6d9a443908965d29cf3ae0a820",
      "scriptpubkey_asm": "OP_PUSHNUM_1 OP_PUSHBYTES_32 4bd743891b88005eb3ef3bb49ff5715a43689c6d9a443908965d29cf3ae0a820",
      "scriptpubkey_type": "v1_p2tr",
      "scriptpubkey_address": "bc1pf0t58zgm3qq9avl08w6flat3tfpk38rdnfzrjzykt55u7whq4qsqyqpnru",
      "value": 9763275
    }
  ],
  "size": 205,
  "weight": 616,
  "fee": 2002,
  "status": {
    "confirmed": true,
    "block_height": 834460,
    "block_hash": "00000000000000000000484a79b643b2524bbce82e5d8a442013fa5b8905ed98",
    "block_time": 1710307468
  },
  "hex": "010000000001019c8d734ca658ac021f58a0ba2a4f9547e7c17c39df2f3f0c9d51938e88888888010000000080d672fd02932e00000000000022512070f52b233b47059bfd941348f7305b6cbfed065867a1c155ab04398d12a7615dcbf99400000000002251204bd743891b88005eb3ef3bb49ff5715a43689c6d9a443908965d29cf3ae0a820014082fba8d1b521a01ec0b797f61a3c7c44d0bdf184937fd443e6d1199e36d8d1ace1b7d1b8000e664719b03a8d496aefc36f9651fa2cd4c9572b77f9428951eea400000000"
}