{
  "txid": "88888889b656f3adf91a60cc3865a0be4b18ac92c9313e6780c061213789b61b",
  "version": 1,
  "locktime": 0,
  "vin": [
    {
      "txid": "d79ed1dbf66450aca74597996c7408a273666fc57a394f2800df9814ecead111",
      "vout": 23,
      "prevout": {
        "scriptpubkey": "5120e0b9252acbf755a4bda0486449eb82e5691af131c94b32872179575f8756178a",
        "scriptpubkey_asm": "OP_PUSHNUM_1 OP_PUSHBYTES_32 e0b9252acbf755a4bda0486449eb82e5691af131c94b32872179575f8756178a",
        "scriptpubkey_type": "v1_p2tr",
        "scriptpubkey_address": "bc1puzuj22kt7a26f0dqfpjyn6uzu4534uf3e99n9pep09t4lp6kz79qs0s9mt",
        "value": 14948
      },
      "scriptsig": "",
      "scriptsig_asm": "",
      "witness": [
        "4c07f7d15d653d910aff0960a47920bd370e615a30b66f0ba17a73eedea47abc8a56322b1a550980a47069759fd424c3a93f1ef65f9d88fbdf50ad3a351aaa90"
      ],
      "is_coinbase": false,
      "sequence": 2559669
    }
  ],
  "vout": [
    {
      "scriptpubkey": "5120494060998da0047b099694595a48c6d42810dd0a9f1ed661f866c5299c067432",
      "scriptpubkey_asm": "OP_PUSHNUM_1 OP_PUSHBYTES_32 494060998da0047b099694595a48c6d42810dd0a9f1ed661f866c5299c067432",
      "scriptpubkey_type": "v1_p2tr",
      "scriptpubkey_address": "bc1pf9qxpxvd5qz8kzvkj3v45jxx6s5pphg2nu0dvc0cvmzjn8qxwseqe8xujf",
      "value": 11704
    },
    {
      "scriptpubkey": "5120e0b9252acbf755a4bda0486449eb82e5691af131c94b32872179575f8756178a",
      "scriptpubkey_asm": "OP_PUSHNUM_1 OP_PUSHBYTES_32 e0b9252acbf755a4bda0486449eb82e5691af131c94b32872179575f8756178a",
      "scriptpubkey_type": "v1_p2tr",
      "scriptpubkey_address": "bc1puzuj22kt7a26f0dqfpjyn6uzu4534uf3e99n9pep09t4lp6kz79qs0s9mt",
      "value": 1627
    }
  ],
  "size": 205,
  "weight": 616,
  "fee": 1617,
  "status": {
    "confirmed": true,
    "block_height": 834464,
    "block_hash": "0000000000000000000177a0869a911a2b65c9bdcd5a8bcb02b68f305bee848e",
    "block_time": 1710308296
  },
  "hex": "0100000000010111d1eaec1498df00284f397ac56f6673a208746c999745a7ac5064f6dbd19ed71700000000b50e270002b82d000000000000225120494060998da0047b099694595a48c6d42810dd0a9f1ed661f866c5299c0674325b06000000000000225120e0b9252acbf755a4bda0486449eb82e5691af131c94b32872179575f8756178a01404c07f7d15d653d910aff0960a47920bd370e615a30b66f0ba17a73eedea47abc8a56322b1a550980a47069759fd424c3a93f1ef65f9d88fbdf50ad3a351aaa9000000000"
}