{
  "txid": "888888888a001cc6b58c7b734783a664cbd85faa2a74e9b54c181782fe5f3298",
  "version": 1,
  "locktime": 0,
  "vin": [
    {
      "txid": "888888888e6f09f332149f6b66f0ffa8a08175697fb5660973ba0ebbd3db5a8e",
      "vout": 1,
      "prevout": {
        "scriptpubkey": "5120ddbeb644d349684ea823dfcc800ed0e2c8b89e3540bc826ba4b2b1612090435c",
        "scriptpubkey_asm": "OP_PUSHNUM_1 OP_PUSHBYTES_32 ddbeb644d349684ea823dfcc800ed0e2c8b89e3540bc826ba4b2b1612090435c",
        "scriptpubkey_type": "v1_p2tr",
        "scriptpubkey_address": "bc1pmkltv3xnf95ya2prmlxgqrksutyt3834gz7gy6ayk2ckzgysgdwqq0wrqv",
        "value": 9846825
      },
      "scriptsig": "",
      "scriptsig_asm": "",
      "witness": [
        "88377c409d4f82a62b291916dc1dae8b41ff2732831c27cfaf964b76c9e4377c9e464830bfe531705be61e05a8baaaabbf0d93a7afa232dbdd079166963946c6"
      ],
      "is_coinbase": false,
      "sequence": 2966324579
    }
  ],
  "vout": [
    {
      "scriptpubkey": "51207d70b5636adf533a62e9404c419780d2241eb7028d43dfa9c45c44ff592d54bc",
      "scriptpubkey_asm": "OP_PUSHNUM_1 OP_PUSHBYTES_32 7d70b5636adf533a62e9404c419780d2241eb7028d43dfa9c45c44ff592d54bc",
      "scriptpubkey_type": "v1_p2tr",
      "scriptpubkey_address": "bc1p04ct2cm2mafn5chfgpxyr9uq6gjpadcz34pal2wyt3z07kfd2j7qz488t9",
      "value": 11923
    },
    {
      "scriptpubkey": "5120ddbeb644d349684ea823dfcc800ed0e2c8b89e3540bc826ba4b2b1612090435c",
      "scriptpubkey_asm": "OP_PUSHNUM_1 OP_PUSHBYTES_32 ddbeb644d349684ea823dfcc800ed0e2c8b89e3540bc826ba4b2b1612090435c",
      "scriptpubkey_type": "v1_p2tr",
      "scriptpubkey_address": "bc1pmkltv3xnf95ya2prmlxgqrksutyt3834gz7gy6ayk2ckzgysgdwqq0wrqv",
      "value": 9832900
    }
  ],
  "size": 205,
  "weight": 616,
  "fee": 2002,
  "status": {
    "confirmed": true,
    "block_height": 834460,
    "block_hash": "00000000000000000000484a79b643b2524bbce82e5d8a442013fa5b8905ed98",
    "block_time": 1710307468
  },
  "hex": "010000000001018e5adbd3bb0eba730966b57f697581a0a8fff0666b9f1432f3096f8e8888888801000000006385ceb002932e0000000000002251207d70b5636adf533a62e9404c419780d2241eb7028d43dfa9c45c44ff592d54bcc409960000000000225120ddbeb644d349684ea823dfcc800ed0e2c8b89e3540bc826ba4b2b1612090435c014088377c409d4f82a62b291916dc1dae8b41ff2732831c27cfaf964b76c9e4377c9e464830bfe531705be61e05a8baaaabbf0d93a7afa232dbdd079166963946c600000000"
}