{
  "txid": "88888881da6986319e491fdd888ff13d111424e4e11d8ba7e8ba467422dfd322",
  "version": 1,
  "locktime": 0,
  "vin": [
    {
      "txid": "d79ed1dbf66450aca74597996c7408a273666fc57a394f2800df9814ecead111",
      "vout": 22,
      "prevout": {
        "scriptpubkey": "5120e0b9252acbf755a4bda0486449eb82e5691af131c94b32872179575f8756178a",
        "scriptpubkey_asm": "OP_PUSHNUM_1 OP_PUSHBYTES_32 e0b9252acbf755a4bda0486449eb82e5691af131c94b32872179575f8756178a",
        "scriptpubkey_type": "v1_p2tr",
        "scriptpubkey_address": "bc1puzuj22kt7a26f0dqfpjyn6uzu4534uf3e99n9pep09t4lp6kz79qs0s9mt",
        "value": 14948
      },
      "scriptsig": "",
      "scriptsig_asm": "",
      "witness": [
        "1b6fe5cb7540a77f7bb27541f2cf43cc8733a5f4a9f710b877adb454434feb31c1a5afbaeb38babd6c3b993977cba12f8cfdd95e2ef6311253e278a5f15842d6"
      ],
      "is_coinbase": false,
      "sequence": 12311610
    }
  ],
  "vout": [
    {
      "scriptpubkey": "5120205e5c1b87c55fb07e21424b6923738cddc6a55b58450bb75529f01d719a3d8f",
      "scriptpubkey_asm": "OP_PUSHNUM_1 OP_PUSHBYTES_32 205e5c1b87c55fb07e21424b6923738cddc6a55b58450bb75529f01d719a3d8f",
      "scriptpubkey_type": "v1_p2tr",
      "scriptpubkey_address": "bc1pyp09cxu8c40mql3pgf9kjgmn3nwudf2mtpzshd6498cp6uv68k8sd9m0fr",
      "value": 11704
    },
    {
      "scriptpubkey": "5120e0b9252acbf755a4bda0486449eb82e5691af131c94b32872179575f8756178a",
      "scriptpubkey_asm": "OP_PUSHNUM_1 OP_PUSHBYTES_32 e0b9252acbf755a4bda0486449eb82e5691af131c94b32872179575f8756178a",
      "scriptpubkey_type": "v1_p2tr",
      "scriptpubkey_address": "bc1puzuj22kt7a26f0dqfpjyn6uzu4534uf3e99n9pep09t4lp6kz79qs0s9mt",
      "value": 1627
    }
  ],
  "size": 205,
  "weight": 616,
  "fee": 1617,
  "status": {
    "confirmed": true,
    "block_height": 834464,
    "block_hash": "0000000000000000000177a0869a911a2b65c9bdcd5a8bcb02b68f305bee848e",
    "block_time": 1710308296
  },
  "hex": "0100000000010111d1eaec1498df00284f397ac56f6673a208746c999745a7ac5064f6dbd19ed716000000003adcbb0002b82d000000000000225120205e5c1b87c55fb07e21424b6923738cddc6a55b58450bb75529f01d719a3d8f5b06000000000000225120e0b9252acbf755a4bda0486449eb82e5691af131c94b32872179575f8756178a01401b6fe5cb7540a77f7bb27541f2cf43cc8733a5f4a9f710b877adb454434feb31c1a5afbaeb38babd6c3b993977cba12f8cfdd95e2ef6311253e278a5f15842d600000000"
}