{
  "txid": "88888885d4c7ccbd4ecbc573e4fc67d39f52d20035dc5b44e3f27bd18c07a2e5",
  "version": 1,
  "locktime": 0,
  "vin": [
    {
      "txid": "d79ed1dbf66450aca74597996c7408a273666fc57a394f2800df9814ecead111",
      "vout": 39,
      "prevout": {
        "scriptpubkey": "5120c8f22e65b51f321cf6d360f4d7a0444f7fe9698d8f9c767834e6e6e12e2640b3",
        "scriptpubkey_asm": "OP_PUSHNUM_1 OP_PUSHBYTES_32 c8f22e65b51f321cf6d360f4d7a0444f7fe9698d8f9c767834e6e6e12e2640b3",
        "scriptpubkey_type": "v1_p2tr",
        "scriptpubkey_address": "bc1perezued4ruepeaknvr6d0gzyfal7j6vd37w8v7p5umnwzt3xgzestcwgn9",
        "value": 14948
      },
      "scriptsig": "",
      "scriptsig_asm": "",
      "witness": [
        "54dd1369226987fe26cb5315c3ba2baf2243cff00862b5d7e710216fe8fbab1c8a45d15eaa2f86135176fd6dbb3e684d3aea85d4485391d4019bad75898a4781"
      ],
      "is_coinbase": false,
      "sequence": 6777465
    }
  ],
  "vout": [
    {
      "scriptpubkey": "5120a32bf588cdfe9de53cd5b6440f937c64158a1e0b94a78fdea49613414eaf237d",
      "scriptpubkey_asm": "OP_PUSHNUM_1 OP_PUSHBYTES_32 a32bf588cdfe9de53cd5b6440f937c64158a1e0b94a78fdea49613414eaf237d",
      "scriptpubkey_type": "v1_p2tr",
      "scriptpubkey_address": "bc1p5v4ltzxdl6w720x4kezqlymuvs2c58stjjnclh4yjcf5zn40yd7sst7262",
      "value": 11704
    },
    {
      "scriptpubkey": "5120c8f22e65b51f321cf6d360f4d7a0444f7fe9698d8f9c767834e6e6e12e2640b3",
      "scriptpubkey_asm": "OP_PUSHNUM_1 OP_PUSHBYTES_32 c8f22e65b51f321cf6d360f4d7a0444f7fe9698d8f9c767834e6e6e12e2640b3",
      "scriptpubkey_type": "v1_p2tr",
      "scriptpubkey_address": "bc1perezued4ruepeaknvr6d0gzyfal7j6vd37w8v7p5umnwzt3xgzestcwgn9",
      "value": 1627
    }
  ],
  "size": 205,
  "weight": 616,
  "fee": 1617,
  "status": {
    "confirmed": true,
    "block_height": 834464,
    "block_hash": "0000000000000000000177a0869a911a2b65c9bdcd5a8bcb02b68f305bee848e",
    "block_time": 1710308296
  },
  "hex": "0100000000010111d1eaec1498df00284f397ac56f6673a208746c999745a7ac5064f6dbd19ed72700000000796a670002b82d000000000000225120a32bf588cdfe9de53cd5b6440f937c64158a1e0b94a78fdea49613414eaf237d5b06000000000000225120c8f22e65b51f321cf6d360f4d7a0444f7fe9698d8f9c767834e6e6e12e2640b3014054dd1369226987fe26cb5315c3ba2baf2243cff00862b5d7e710216fe8fbab1c8a45d15eaa2f86135176fd6dbb3e684d3aea85d4485391d4019bad75898a478100000000"
}