{
  "txid": "8888888cbdc0354cf161a0667703a689e80b52134f6dbf35df2bc9c0f46f9430",
  "version": 1,
  "locktime": 0,
  "vin": [
    {
      "txid": "88888881aa537ef07f8ad5e1d2e9c353adeb0c1f2148064fe6db8762f4d91e54",
      "vout": 1,
      "prevout": {
        "scriptpubkey": "5120619d9aa1f571f4e30e3f70bceaf87057259bdad02e77d384a50a6f163b115090",
        "scriptpubkey_asm": "OP_PUSHNUM_1 OP_PUSHBYTES_32 619d9aa1f571f4e30e3f70bceaf87057259bdad02e77d384a50a6f163b115090",
        "scriptpubkey_type": "v1_p2tr",
        "scriptpubkey_address": "bc1pvxwe4g04w86wxr3lwz7w47rs2ujehkks9ema8p99pfh3vwc32zgqk3kdcz",
        "value": 5948
      },
      "scriptsig": "",
      "scriptsig_asm": "",
      "witness": [
        "86d47090b3164a67b5f0bfe4dcbaff39a22122d6a3f68aa10dcc7dfff0a6750fc0be8b7687152db3010c252d443ef63ffff42a6a2fb298398110381eae796bfc"
      ],
      "is_coinbase": false,
      "sequence": 3606837395
    },
    {
      "txid": "888888a345f8debd427a92684c0b0937c251753ebbf0a089b4d98318d5a8c6fe",
      "vout": 1,
      "prevout": {
        "scriptpubkey": "5120619d9aa1f571f4e30e3f70bceaf87057259bdad02e77d384a50a6f163b115090",
        "scriptpubkey_asm": "OP_PUSHNUM_1 OP_PUSHBYTES_32 619d9aa1f571f4e30e3f70bceaf87057259bdad02e77d384a50a6f163b115090",
        "scriptpubkey_type": "v1_p2tr",
        "scriptpubkey_address": "bc1pvxwe4g04w86wxr3lwz7w47rs2ujehkks9ema8p99pfh3vwc32zgqk3kdcz",
        "value": 5237
      },
      "scriptsig": "",
      "scriptsig_asm": "",
      "witness": [
        "0016d5f9e92c4a5f604be099d5e7de323b659c387f8efe038ab627046c270404bb484534f5926f4d9bd315f4199f16f0102ccd762c75647c427c68d7b63a3571"
      ],
      "is_coinbase": false,
      "sequence": 4294967295
    },
    {
      "txid": "8888888529b9b4db4c1787d4e1e79f355763bf5f4fa38c494bd49806b764b678",
      "vout": 1,
      "prevout": {
        "scriptpubkey": "5120619d9aa1f571f4e30e3f70bceaf87057259bdad02e77d384a50a6f163b115090",
        "scriptpubkey_asm": "OP_PUSHNUM_1 OP_PUSHBYTES_32 619d9aa1f571f4e30e3f70bceaf87057259bdad02e77d384a50a6f163b115090",
        "scriptpubkey_type": "v1_p2tr",
        "scriptpubkey_address": "bc1pvxwe4g04w86wxr3lwz7w47rs2ujehkks9ema8p99pfh3vwc32zgqk3kdcz",
        "value": 4873
      },
      "scriptsig": "",
      "scriptsig_asm": "",
      "witness": [
        "a60784202adda4cae236f6418a912312324156c81daf55176f973d8b3521fa80f01ddea2baf310a9c6c279ebb65fcd909aa9a85cd5da768e85509f3804a2cb9e"
      ],
      "is_coinbase": false,
      "sequence": 4294967295
    }
  ],
  "vout": [
    {
      "scriptpubkey": "5120833374bd0ea7077e46aae789c385abd7973f3276c560be22d857036936b6e1a3",
      "scriptpubkey_asm": "OP_PUSHNUM_1 OP_PUSHBYTES_32 833374bd0ea7077e46aae789c385abd7973f3276c560be22d857036936b6e1a3",
      "scriptpubkey_type": "v1_p2tr",
      "scriptpubkey_address": "bc1psvehf0gw5urhu342u7yu8pdt67tn7vnkc4stugkc2upkjd4kux3slntxpv",
      "value": 12212
    },
    {
      "scriptpubkey": "5120619d9aa1f571f4e30e3f70bceaf87057259bdad02e77d384a50a6f163b115090",
      "scriptpubkey_asm": "OP_PUSHNUM_1 OP_PUSHBYTES_32 619d9aa1f571f4e30e3f70bceaf87057259bdad02e77d384a50a6f163b115090",
      "scriptpubkey_type": "v1_p2tr",
      "scriptpubkey_address": "bc1pvxwe4g04w86wxr3lwz7w47rs2ujehkks9ema8p99pfh3vwc32zgqk3kdcz",
      "value": 1536
    }
  ],
  "size": 419,
  "weight": 1076,
  "fee": 2310,
  "status": {
    "confirmed": true,
    "block_height": 834464,
    "block_hash": "0000000000000000000177a0869a911a2b65c9bdcd5a8bcb02b68f305bee848e",
    "block_time": 1710308296
  },
  "hex": "01000000000103541ed9f46287dbe64f0648211f0cebad53c3e9d2e1d58a7ff07e53aa81888888010000000093f8fbd6fec6a8d51883d9b489a0f0bb3e7551c237090b4c68927a42bddef845a38888880100000000ffffffff78b664b70698d44b498ca34f5fbf6357359fe7e1d487174cdbb4b929858888880100000000ffffffff02b42f000000000000225120833374bd0ea7077e46aae789c385abd7973f3276c560be22d857036936b6e1a30006000000000000225120619d9aa1f571f4e30e3f70bceaf87057259bdad02e77d384a50a6f163b115090014086d47090b3164a67b5f0bfe4dcbaff39a22122d6a3f68aa10dcc7dfff0a6750fc0be8b7687152db3010c252d443ef63ffff42a6a2fb298398110381eae796bfc01400016d5f9e92c4a5f604be099d5e7de323b659c387f8efe038ab627046c270404bb484534f5926f4d9bd315f4199f16f0102ccd762c75647c427c68d7b63a35710140a60784202adda4cae236f6418a912312324156c81daf55176f973d8b3521fa80f01ddea2baf310a9c6c279ebb65fcd909aa9a85cd5da768e85509f3804a2cb9e00000000"
}