{
  "txid": "888888888e93519d0c3f2fdf397cc1e747954f2abaa0581f02ac58a64c738d9c",
  "version": 1,
  "locktime": 0,
  "vin": [
    {
      "txid": "888888888af7d9b14a92beb5a25d222e5ab6aba42b63e8cf6815866dd1889c22",
      "vout": 1,
      "prevout": {
        "scriptpubkey": "51204bd743891b88005eb3ef3bb49ff5715a43689c6d9a443908965d29cf3ae0a820",
        "scriptpubkey_asm": "OP_PUSHNUM_1 OP_PUSHBYTES_32 4bd743891b88005eb3ef3bb49ff5715a43689c6d9a443908965d29cf3ae0a820",
        "scriptpubkey_type": "v1_p2tr",
        "scriptpubkey_address": "bc1pf0t58zgm3qq9avl08w6flat3tfpk38rdnfzrjzykt55u7whq4qsqyqpnru",
        "value": 9791125
      },
      "scriptsig": "",
      "scriptsig_asm": "",
      "witness": [
        "0e3a0af2f6d136671b02992ee27d07b339987dcad144e839aa729a28e21b4e4833ef0af8f226e1c3e9c6a99486f159ca2b937c417e829c7718ccea2192de8706"
      ],
      "is_coinbase": false,
      "sequence": 469337440
    }
  ],
  "vout": [
    {
      "scriptpubkey": "5120d49b5f5a32b44a8d38986b5ccea167b304653ccd9633d0be842fbade94b59f7f",
      "scriptpubkey_asm": "OP_PUSHNUM_1 OP_PUSHBYTES_32 d49b5f5a32b44a8d38986b5ccea167b304653ccd9633d0be842fbade94b59f7f",
      "scriptpubkey_type": "v1_p2tr",
      "scriptpubkey_address": "bc1p6jd47k3jk39g6wycddwvagt8kvzx20xdjceap05y97ada994nalslppuvj",
      "value": 11923
    },
    {
      "scriptpubkey": "51204bd743891b88005eb3ef3bb49ff5715a43689c6d9a443908965d29cf3ae0a820",
      "scriptpubkey_asm": "OP_PUSHNUM_1 OP_PUSHBYTES_32 4bd743891b88005eb3ef3bb49ff5715a43689c6d9a443908965d29cf3ae0a820",
      "scriptpubkey_type": "v1_p2tr",
      "scriptpubkey_address": "bc1pf0t58zgm3qq9avl08w6flat3tfpk38rdnfzrjzykt55u7whq4qsqyqpnru",
      "value": 9777200
    }
  ],
  "size": 205,
  "weight": 616,
  "fee": 2002,
  "status": {
    "confirmed": true,
    "block_height": 834460,
    "block_hash": "00000000000000000000484a79b643b2524bbce82e5d8a442013fa5b8905ed98",
    "block_time": 1710307468
  },
  "hex": "01000000000101229c88d16d861568cfe8632ba4abb65a2e225da2b5be924ab1d9f78a8888888801000000006085f91b02932e000000000000225120d49b5f5a32b44a8d38986b5ccea167b304653ccd9633d0be842fbade94b59f7f30309500000000002251204bd743891b88005eb3ef3bb49ff5715a43689c6d9a443908965d29cf3ae0a82001400e3a0af2f6d136671b02992ee27d07b339987dcad144e839aa729a28e21b4e4833ef0af8f226e1c3e9c6a99486f159ca2b937c417e829c7718ccea2192de870600000000"
}