{
  "txid": "888888888d862b2a01bc66843be59c26f041434998079b958c48c9a0249a3921",
  "version": 1,
  "locktime": 0,
  "vin": [
    {
      "txid": "888888888ff63f546593326fdd0f1c48a896e78636175a4d480457afac2282a2",
      "vout": 1,
      "prevout": {
        "scriptpubkey": "512097dd27902f96dfea2738704cd035abf0fc75d9ee323e4039811da77c940aaee4",
        "scriptpubkey_asm": "OP_PUSHNUM_1 OP_PUSHBYTES_32 97dd27902f96dfea2738704cd035abf0fc75d9ee323e4039811da77c940aaee4",
        "scriptpubkey_type": "v1_p2tr",
        "scriptpubkey_address": "bc1pjlwj0yp0jm075fecwpxdqddt7r78tk0wxglyqwvprknhe9q24mjqvgpd0h",
        "value": 1021121
      },
      "scriptsig": "",
      "scriptsig_asm": "",
      "witness": [
        "af71bf84883f8c8cf494ab583310ec7f34cf83016d10f68cac82a675b077434e46b41b3cec1220fd726775434413b054c35a3f87f6d83210fd34a27016644a21"
      ],
      "is_coinbase": false,
      "sequence": 756373883
    }
  ],
  "vout": [
    {
      "scriptpubkey": "512005b0acad168da2fa1e8d5b404285c32fbb0e153d196999ddd1b596a5a387ddf7",
      "scriptpubkey_asm": "OP_PUSHNUM_1 OP_PUSHBYTES_32 05b0acad168da2fa1e8d5b404285c32fbb0e153d196999ddd1b596a5a387ddf7",
      "scriptpubkey_type": "v1_p2tr",
      "scriptpubkey_address": "bc1pqkc2etgk3k30585dtdqy9pwr97asu9far95enhw3kkt2tgu8mhmstdpskw",
      "value": 12071
    },
    {
      "scriptpubkey": "512097dd27902f96dfea2738704cd035abf0fc75d9ee323e4039811da77c940aaee4",
      "scriptpubkey_asm": "OP_PUSHNUM_1 OP_PUSHBYTES_32 97dd27902f96dfea2738704cd035abf0fc75d9ee323e4039811da77c940aaee4",
      "scriptpubkey_type": "v1_p2tr",
      "scriptpubkey_address": "bc1pjlwj0yp0jm075fecwpxdqddt7r78tk0wxglyqwvprknhe9q24mjqvgpd0h",
      "value": 1006894
    }
  ],
  "size": 205,
  "weight": 616,
  "fee": 2156,
  "status": {
    "confirmed": true,
    "block_height": 834460,
    "block_hash": "00000000000000000000484a79b643b2524bbce82e5d8a442013fa5b8905ed98",
    "block_time": 1710307468
  },
  "hex": "01000000000101a28222acaf5704484d5a173686e796a8481c0fdd6f329365543ff68f8888888801000000007b59152d02272f00000000000022512005b0acad168da2fa1e8d5b404285c32fbb0e153d196999ddd1b596a5a387ddf72e5d0f000000000022512097dd27902f96dfea2738704cd035abf0fc75d9ee323e4039811da77c940aaee40140af71bf84883f8c8cf494ab583310ec7f34cf83016d10f68cac82a675b077434e46b41b3cec1220fd726775434413b054c35a3f87f6d83210fd34a27016644a2100000000"
}