{
  "txid": "8888888889e098999b374bddd8b39861652e97d4a8f34dbf5c98aa1dd25c99a7",
  "version": 1,
  "locktime": 0,
  "vin": [
    {
      "txid": "888888888f7ffd957a99caeb9215fa5fd859a66d19e9adc4e202b5c1f8037778",
      "vout": 1,
      "prevout": {
        "scriptpubkey": "5120c9778f0f7116a0fa90e759ca54b375f5c38d7db5875a2860af8354d65a8671e2",
        "scriptpubkey_asm": "OP_PUSHNUM_1 OP_PUSHBYTES_32 c9778f0f7116a0fa90e759ca54b375f5c38d7db5875a2860af8354d65a8671e2",
        "scriptpubkey_type": "v1_p2tr",
        "scriptpubkey_address": "bc1pe9mc7rm3z6s04y88t899fvm47hpc6ld4sadzsc90sd2dvk5xw83qeh2mmm",
        "value": 96293185
      },
      "scriptsig": "",
      "scriptsig_asm": "",
      "witness": [
        "4e0eee80414dfa60aa95f25f44a4027bf653b9ef092908a0e56fd52d8eb00b2efcc6b35bd42073ab3bd2389d02b9801d9603fbcf2d156b13e767225fea463c80"
      ],
      "is_coinbase": false,
      "sequence": 1874281885
    }
  ],
  "vout": [
    {
      "scriptpubkey": "5120311142e1ce54501c39842c9e1d197d5212f180c1c00058f94bf1cff844d86edb",
      "scriptpubkey_asm": "OP_PUSHNUM_1 OP_PUSHBYTES_32 311142e1ce54501c39842c9e1d197d5212f180c1c00058f94bf1cff844d86edb",
      "scriptpubkey_type": "v1_p2tr",
      "scriptpubkey_address": "bc1pxyg59cww23gpcwvy9j0p6xta2gf0rqxpcqq9372t788ls3xcdmds3a5myh",
      "value": 12071
    },
    {
      "scriptpubkey": "5120c9778f0f7116a0fa90e759ca54b375f5c38d7db5875a2860af8354d65a8671e2",
      "scriptpubkey_asm": "OP_PUSHNUM_1 OP_PUSHBYTES_32 c9778f0f7116a0fa90e759ca54b375f5c38d7db5875a2860af8354d65a8671e2",
      "scriptpubkey_type": "v1_p2tr",
      "scriptpubkey_address": "bc1pe9mc7rm3z6s04y88t899fvm47hpc6ld4sadzsc90sd2dvk5xw83qeh2mmm",
      "value": 96278958
    }
  ],
  "size": 205,
  "weight": 616,
  "fee": 2156,
  "status": {
    "confirmed": true,
    "block_height": 834460,
    "block_hash": "00000000000000000000484a79b643b2524bbce82e5d8a442013fa5b8905ed98",
    "block_time": 1710307468
  },
  "hex": "01000000000101787703f8c1b502e2c4ade9196da659d85ffa1592ebca997a95fd7f8f8888888801000000009d45b76f02272f000000000000225120311142e1ce54501c39842c9e1d197d5212f180c1c00058f94bf1cff844d86edbae19bd0500000000225120c9778f0f7116a0fa90e759ca54b375f5c38d7db5875a2860af8354d65a8671e201404e0eee80414dfa60aa95f25f44a4027bf653b9ef092908a0e56fd52d8eb00b2efcc6b35bd42073ab3bd2389d02b9801d9603fbcf2d156b13e767225fea463c8000000000"
}