{
  "txid": "888888888ea1bd842543db96ea8b4ef7612e89f2a17296553ffae8b90bc5cd94",
  "version": 1,
  "locktime": 0,
  "vin": [
    {
      "txid": "888888888d862b2a01bc66843be59c26f041434998079b958c48c9a0249a3921",
      "vout": 1,
      "prevout": {
        "scriptpubkey": "512097dd27902f96dfea2738704cd035abf0fc75d9ee323e4039811da77c940aaee4",
        "scriptpubkey_asm": "OP_PUSHNUM_1 OP_PUSHBYTES_32 97dd27902f96dfea2738704cd035abf0fc75d9ee323e4039811da77c940aaee4",
        "scriptpubkey_type": "v1_p2tr",
        "scriptpubkey_address": "bc1pjlwj0yp0jm075fecwpxdqddt7r78tk0wxglyqwvprknhe9q24mjqvgpd0h",
        "value": 1006894
      },
      "scriptsig": "",
      "scriptsig_asm": "",
      "witness": [
        "79ab55c67b4855072e49cd436f2044cff914dfaee6ef4cf479eaf86c2798dcdceac6895a41ec8fa4eaf2a0c45bfa27088d096451c28d5f53510e3afdb8bf769d"
      ],
      "is_coinbase": false,
      "sequence": 3315046365
    }
  ],
  "vout": [
    {
      "scriptpubkey": "5120753ef6f984fdce3c44c9c698d2254bd5636a73a62176ed7b49d666de04df4d0d",
      "scriptpubkey_asm": "OP_PUSHNUM_1 OP_PUSHBYTES_32 753ef6f984fdce3c44c9c698d2254bd5636a73a62176ed7b49d666de04df4d0d",
      "scriptpubkey_type": "v1_p2tr",
      "scriptpubkey_address": "bc1pw5l0d7vylh8rc3xfc6vdyf2t643k5uaxy9mw676f6endupxlf5xstkjzcf",
      "value": 12071
    },
    {
      "scriptpubkey": "512097dd27902f96dfea2738704cd035abf0fc75d9ee323e4039811da77c940aaee4",
      "scriptpubkey_asm": "OP_PUSHNUM_1 OP_PUSHBYTES_32 97dd27902f96dfea2738704cd035abf0fc75d9ee323e4039811da77c940aaee4",
      "scriptpubkey_type": "v1_p2tr",
      "scriptpubkey_address": "bc1pjlwj0yp0jm075fecwpxdqddt7r78tk0wxglyqwvprknhe9q24mjqvgpd0h",
      "value": 992667
    }
  ],
  "size": 205,
  "weight": 616,
  "fee": 2156,
  "status": {
    "confirmed": true,
    "block_height": 834460,
    "block_hash": "00000000000000000000484a79b643b2524bbce82e5d8a442013fa5b8905ed98",
    "block_time": 1710307468
  },
  "hex": "0100000000010121399a24a0c9488c959b0798494341f0269ce53b8466bc012a2b868d888888880100000000dd9797c502272f000000000000225120753ef6f984fdce3c44c9c698d2254bd5636a73a62176ed7b49d666de04df4d0d9b250f000000000022512097dd27902f96dfea2738704cd035abf0fc75d9ee323e4039811da77c940aaee4014079ab55c67b4855072e49cd436f2044cff914dfaee6ef4cf479eaf86c2798dcdceac6895a41ec8fa4eaf2a0c45bfa27088d096451c28d5f53510e3afdb8bf769d00000000"
}