{
  "txid": "888888888cc09aaec3138cccaa43631ebe941b3423ffc4d973f7823f89bedb2c",
  "version": 1,
  "locktime": 0,
  "vin": [
    {
      "txid": "888888888cca5aef9449639228414263d5d5d6dfd6df3c4269793023e2e07854",
      "vout": 1,
      "prevout": {
        "scriptpubkey": "5120c9778f0f7116a0fa90e759ca54b375f5c38d7db5875a2860af8354d65a8671e2",
        "scriptpubkey_asm": "OP_PUSHNUM_1 OP_PUSHBYTES_32 c9778f0f7116a0fa90e759ca54b375f5c38d7db5875a2860af8354d65a8671e2",
        "scriptpubkey_type": "v1_p2tr",
        "scriptpubkey_address": "bc1pe9mc7rm3z6s04y88t899fvm47hpc6ld4sadzsc90sd2dvk5xw83qeh2mmm",
        "value": 96321639
      },
      "scriptsig": "",
      "scriptsig_asm": "",
      "witness": [
        "0e5e43f1ea82ef8f56b8eacb592123587f300fe07d0a805ffda888df46bf90f4ac06a35219d0c4cd747c9d4aba56c64869032aa9563b0868ae5d7df3ad5eb611"
      ],
      "is_coinbase": false,
      "sequence": 1798317181
    }
  ],
  "vout": [
    {
      "scriptpubkey": "51209f34d0da7309f9ec7b46478b16f7c39cdfc541d9d54176a8a0a885bd52a1cb84",
      "scriptpubkey_asm": "OP_PUSHNUM_1 OP_PUSHBYTES_32 9f34d0da7309f9ec7b46478b16f7c39cdfc541d9d54176a8a0a885bd52a1cb84",
      "scriptpubkey_type": "v1_p2tr",
      "scriptpubkey_address": "bc1pnu6dpknnp8u7c76xg793da7rnn0u2swe64qhd29q4zzm654pewzqfgkgxk",
      "value": 12071
    },
    {
      "scriptpubkey": "5120c9778f0f7116a0fa90e759ca54b375f5c38d7db5875a2860af8354d65a8671e2",
      "scriptpubkey_asm": "OP_PUSHNUM_1 OP_PUSHBYTES_32 c9778f0f7116a0fa90e759ca54b375f5c38d7db5875a2860af8354d65a8671e2",
      "scriptpubkey_type": "v1_p2tr",
      "scriptpubkey_address": "bc1pe9mc7rm3z6s04y88t899fvm47hpc6ld4sadzsc90sd2dvk5xw83qeh2mmm",
      "value": 96307412
    }
  ],
  "size": 205,
  "weight": 616,
  "fee": 2156,
  "status": {
    "confirmed": true,
    "block_height": 834460,
    "block_hash": "00000000000000000000484a79b643b2524bbce82e5d8a442013fa5b8905ed98",
    "block_time": 1710307468
  },
  "hex": "010000000001015478e0e223307969423cdfd6dfd6d5d56342412892634994ef5aca8c8888888801000000007d24306b02272f0000000000002251209f34d0da7309f9ec7b46478b16f7c39cdfc541d9d54176a8a0a885bd52a1cb84d488bd0500000000225120c9778f0f7116a0fa90e759ca54b375f5c38d7db5875a2860af8354d65a8671e201400e5e43f1ea82ef8f56b8eacb592123587f300fe07d0a805ffda888df46bf90f4ac06a35219d0c4cd747c9d4aba56c64869032aa9563b0868ae5d7df3ad5eb61100000000"
}