{
  "txid": "888888888e40e019a6501b32192f79c8c13e671c5febd25ad9df318e901c9815",
  "version": 1,
  "locktime": 1035336920,
  "vin": [
    {
      "txid": "9ea1635f0ba12dd54d98b544f233f2ef5b5b5b7262035f081088752af829b6b9",
      "vout": 15,
      "prevout": {
        "scriptpubkey": "0014a4bf7e4f90b3a592a7facd92ade7c0d77fdd5dd3",
        "scriptpubkey_asm": "OP_0 OP_PUSHBYTES_20 a4bf7e4f90b3a592a7facd92ade7c0d77fdd5dd3",
        "scriptpubkey_type": "v0_p2wpkh",
        "scriptpubkey_address": "bc1q5jlhunuskwje9fl6ekf2me7q6ala6hwn2m67xx",
        "value": 13653
      },
      "scriptsig": "",
      "scriptsig_asm": "",
      "witness": [
        "30440220773d9c5f2e5d41f8c5d8258a3b2c3606f1c56d39d4564150d11505add7157fb102206a53870298f2ebb3d345c42f13eb4cdf16af4ad32e236b8988dac62fddf185e101",
        "0355dd2fdc99df63aa338ccefb97ebddf2a6facf55860239b79fc356fae080b725"
      ],
      "is_coinbase": false,
      "sequence": 2147483695
    }
  ],
  "vout": [
    {
      "scriptpubkey": "512039742d67fed8f93a1a949850e2106e1421c30c0c944d3f6ac167ab92b4cba3e2",
      "scriptpubkey_asm": "OP_PUSHNUM_1 OP_PUSHBYTES_32 39742d67fed8f93a1a949850e2106e1421c30c0c944d3f6ac167ab92b4cba3e2",
      "scriptpubkey_type": "v1_p2tr",
      "scriptpubkey_address": "bc1p896z6el7mrun5x55npgwyyrwzssuxrqvj3xn76kpv74e9dxt503qd7dex2",
      "value": 11945
    }
  ],
  "size": 203,
  "weight": 485,
  "fee": 1708,
  "status": {
    "confirmed": true,
    "block_height": 834552,
    "block_hash": "00000000000000000001dd0468a70c94f619251d286585cff57aeb4bd9ede330",
    "block_time": 1710355598
  },
  "hex": "01000000000101b9b629f82a758810085f0362725b5b5beff233f244b5984dd52da10b5f63a19e0f000000002f00008001a92e00000000000022512039742d67fed8f93a1a949850e2106e1421c30c0c944d3f6ac167ab92b4cba3e2024730440220773d9c5f2e5d41f8c5d8258a3b2c3606f1c56d39d4564150d11505add7157fb102206a53870298f2ebb3d345c42f13eb4cdf16af4ad32e236b8988dac62fddf185e101210355dd2fdc99df63aa338ccefb97ebddf2a6facf55860239b79fc356fae080b725d8fcb53d"
}