{
  "txid": "88888889a24f20478ab1566c20719c7586f7efdf936bf703d4faff903266655f",
  "version": 1,
  "locktime": 0,
  "vin": [
    {
      "txid": "d79ed1dbf66450aca74597996c7408a273666fc57a394f2800df9814ecead111",
      "vout": 40,
      "prevout": {
        "scriptpubkey": "5120c8f22e65b51f321cf6d360f4d7a0444f7fe9698d8f9c767834e6e6e12e2640b3",
        "scriptpubkey_asm": "OP_PUSHNUM_1 OP_PUSHBYTES_32 c8f22e65b51f321cf6d360f4d7a0444f7fe9698d8f9c767834e6e6e12e2640b3",
        "scriptpubkey_type": "v1_p2tr",
        "scriptpubkey_address": "bc1perezued4ruepeaknvr6d0gzyfal7j6vd37w8v7p5umnwzt3xgzestcwgn9",
        "value": 14948
      },
      "scriptsig": "",
      "scriptsig_asm": "",
      "witness": [
        "c3cb64d5a1717f940ea22eed5faadf35c608e550c9ef0b71f2627e0b6f19ffa857cc55a8f6bc23a8612e186017ac4afe9004bab3e426e1bc47aa46dc712c6639"
      ],
      "is_coinbase": false,
      "sequence": 41617237
    }
  ],
  "vout": [
    {
      "scriptpubkey": "51208937a3281455cf876aa56ce2c2f12175b7454a81cc77913d7023b89c4bc1a4f5",
      "scriptpubkey_asm": "OP_PUSHNUM_1 OP_PUSHBYTES_32 8937a3281455cf876aa56ce2c2f12175b7454a81cc77913d7023b89c4bc1a4f5",
      "scriptpubkey_type": "v1_p2tr",
      "scriptpubkey_address": "bc1p3ym6x2q52h8cw649dn3v9ufpwkm52j5pe3mez0tsywufcj7p5n6sq3w5v5",
      "value": 11704
    },
    {
      "scriptpubkey": "5120c8f22e65b51f321cf6d360f4d7a0444f7fe9698d8f9c767834e6e6e12e2640b3",
      "scriptpubkey_asm": "OP_PUSHNUM_1 OP_PUSHBYTES_32 c8f22e65b51f321cf6d360f4d7a0444f7fe9698d8f9c767834e6e6e12e2640b3",
      "scriptpubkey_type": "v1_p2tr",
      "scriptpubkey_address": "bc1perezued4ruepeaknvr6d0gzyfal7j6vd37w8v7p5umnwzt3xgzestcwgn9",
      "value": 1627
    }
  ],
  "size": 205,
  "weight": 616,
  "fee": 1617,
  "status": {
    "confirmed": true,
    "block_height": 834464,
    "block_hash": "0000000000000000000177a0869a911a2b65c9bdcd5a8bcb02b68f305bee848e",
    "block_time": 1710308296
  },
  "hex": "0100000000010111d1eaec1498df00284f397ac56f6673a208746c999745a7ac5064f6dbd19ed7280000000055077b0202b82d0000000000002251208937a3281455cf876aa56ce2c2f12175b7454a81cc77913d7023b89c4bc1a4f55b06000000000000225120c8f22e65b51f321cf6d360f4d7a0444f7fe9698d8f9c767834e6e6e12e2640b30140c3cb64d5a1717f940ea22eed5faadf35c608e550c9ef0b71f2627e0b6f19ffa857cc55a8f6bc23a8612e186017ac4afe9004bab3e426e1bc47aa46dc712c663900000000"
}