{
  "txid": "8888888b4084dbce3865a4a66115712b632611c76c21e8e5fc990fb03426213c",
  "version": 1,
  "locktime": 0,
  "vin": [
    {
      "txid": "888888f6aea9077342028aa823cda72961aa920edae7e64175299b912f69f84e",
      "vout": 1,
      "prevout": {
        "scriptpubkey": "5120b9fca91a73c757f9f9a106ebd267033b437430c58cd8c9521db9048d82e5fdc6",
        "scriptpubkey_asm": "OP_PUSHNUM_1 OP_PUSHBYTES_32 b9fca91a73c757f9f9a106ebd267033b437430c58cd8c9521db9048d82e5fdc6",
        "scriptpubkey_type": "v1_p2tr",
        "scriptpubkey_address": "bc1ph872jxnncatln7dpqm4ayecr8dphgvx93nvvj5sahyzgmqh9lhrqw5jff2",
        "value": 5276
      },
      "scriptsig": "",
      "scriptsig_asm": "",
      "witness": [
        "5c18a018b54e38fb2c30b0f0cef4c13c6ae49a7b812af505bd8d682a0fe871c50afae220979c8054d038f20f524f493e268cb099a82bd2bdc0bb4a006d87d678"
      ],
      "is_coinbase": false,
      "sequence": 724759630
    },
    {
      "txid": "8888888c44f560bca0393936109c493ea8bf88e8b1d9d53ff2996138b8d19b38",
      "vout": 1,
      "prevout": {
        "scriptpubkey": "5120b9fca91a73c757f9f9a106ebd267033b437430c58cd8c9521db9048d82e5fdc6",
        "scriptpubkey_asm": "OP_PUSHNUM_1 OP_PUSHBYTES_32 b9fca91a73c757f9f9a106ebd267033b437430c58cd8c9521db9048d82e5fdc6",
        "scriptpubkey_type": "v1_p2tr",
        "scriptpubkey_address": "bc1ph872jxnncatln7dpqm4ayecr8dphgvx93nvvj5sahyzgmqh9lhrqw5jff2",
        "value": 4983
      },
      "scriptsig": "",
      "scriptsig_asm": "",
      "witness": [
        "cd972285303d7994d4eb7a9ab8836713000b96547674ced4ff034bbf919766c35e3eaa3cd4f11f4a18fc78f7b2151eeb74e83ccdc46201283636d5d0979f8caf"
      ],
      "is_coinbase": false,
      "sequence": 4294967295
    },
    {
      "txid": "888888895ca4bf14d9bff006b0ef3aed66d1e751c6ae5041662f828b5105fcef",
      "vout": 1,
      "prevout": {
        "scriptpubkey": "5120b9fca91a73c757f9f9a106ebd267033b437430c58cd8c9521db9048d82e5fdc6",
        "scriptpubkey_asm": "OP_PUSHNUM_1 OP_PUSHBYTES_32 b9fca91a73c757f9f9a106ebd267033b437430c58cd8c9521db9048d82e5fdc6",
        "scriptpubkey_type": "v1_p2tr",
        "scriptpubkey_address": "bc1ph872jxnncatln7dpqm4ayecr8dphgvx93nvvj5sahyzgmqh9lhrqw5jff2",
        "value": 4983
      },
      "scriptsig": "",
      "scriptsig_asm": "",
      "witness": [
        "51de0b4bb4b7b2b2da7b34365c64285f620338f56ced2d9c06491c0a7275b8bf4e660d0419b76ffdae11e74cbc8740629ab2a02472907dc041b6ac7696549d94"
      ],
      "is_coinbase": false,
      "sequence": 4294967295
    }
  ],
  "vout": [
    {
      "scriptpubkey": "512053634e9f962a6ae52a3875692066bacbd07810d589953beb93d92a54b9364a32",
      "scriptpubkey_asm": "OP_PUSHNUM_1 OP_PUSHBYTES_32 53634e9f962a6ae52a3875692066bacbd07810d589953beb93d92a54b9364a32",
      "scriptpubkey_type": "v1_p2tr",
      "scriptpubkey_address": "bc1p2d35a8uk9f4w223cw45jqe46e0g8syx43x2nh6unmy49fwfkfgeqncexjx",
      "value": 12204
    },
    {
      "scriptpubkey": "5120b9fca91a73c757f9f9a106ebd267033b437430c58cd8c9521db9048d82e5fdc6",
      "scriptpubkey_asm": "OP_PUSHNUM_1 OP_PUSHBYTES_32 b9fca91a73c757f9f9a106ebd267033b437430c58cd8c9521db9048d82e5fdc6",
      "scriptpubkey_type": "v1_p2tr",
      "scriptpubkey_address": "bc1ph872jxnncatln7dpqm4ayecr8dphgvx93nvvj5sahyzgmqh9lhrqw5jff2",
      "value": 728
    }
  ],
  "size": 419,
  "weight": 1076,
  "fee": 2310,
  "status": {
    "confirmed": true,
    "block_height": 834464,
    "block_hash": "0000000000000000000177a0869a911a2b65c9bdcd5a8bcb02b68f305bee848e",
    "block_time": 1710308296
  },
  "hex": "010000000001034ef8692f919b297541e6e7da0e92aa6129a7cd23a88a02427307a9aef688888801000000004ef4322b389bd1b8386199f23fd5d9b1e888bfa83e499c10363939a0bc60f5448c8888880100000000ffffffffeffc05518b822f664150aec651e7d166ed3aefb006f0bfd914bfa45c898888880100000000ffffffff02ac2f00000000000022512053634e9f962a6ae52a3875692066bacbd07810d589953beb93d92a54b9364a32d802000000000000225120b9fca91a73c757f9f9a106ebd267033b437430c58cd8c9521db9048d82e5fdc601405c18a018b54e38fb2c30b0f0cef4c13c6ae49a7b812af505bd8d682a0fe871c50afae220979c8054d038f20f524f493e268cb099a82bd2bdc0bb4a006d87d6780140cd972285303d7994d4eb7a9ab8836713000b96547674ced4ff034bbf919766c35e3eaa3cd4f11f4a18fc78f7b2151eeb74e83ccdc46201283636d5d0979f8caf014051de0b4bb4b7b2b2da7b34365c64285f620338f56ced2d9c06491c0a7275b8bf4e660d0419b76ffdae11e74cbc8740629ab2a02472907dc041b6ac7696549d9400000000"
}