{
  "txid": "88888888885196b991992ff2e0ef850034b6267a5ffce59e9961c204b25957e9",
  "version": 1,
  "locktime": 0,
  "vin": [
    {
      "txid": "eaf2bff5add1287a57d34e4dfd93a843724c160e819ad9561bba27083cfd670d",
      "vout": 49,
      "prevout": {
        "scriptpubkey": "5120847df59ad498762bf8afb0c04d22a13f1f1eeaf157651909b5b6bc194445c05b",
        "scriptpubkey_asm": "OP_PUSHNUM_1 OP_PUSHBYTES_32 847df59ad498762bf8afb0c04d22a13f1f1eeaf157651909b5b6bc194445c05b",
        "scriptpubkey_type": "v1_p2tr",
        "scriptpubkey_address": "bc1ps37ltxk5npmzh790krqy6g4p8u03a6h32aj3jzd4k67pj3z9cpdsfg0xxt",
        "value": 17778
      },
      "scriptsig": "",
      "scriptsig_asm": "",
      "witness": [
        "ed9afd924a59c34f1f00e27bc14cba66b9b38f5acfc4736760954603da2e67dfb73579b31fd468405da38fc729506205b9a17212bf59f7881288a6d452081f8e"
      ],
      "is_coinbase": false,
      "sequence": 910345399
    }
  ],
  "vout": [
    {
      "scriptpubkey": "51205cebb8360948f0d953b9604ed31fa4ae559299174586aa91ff2cae8d53c6b43a",
      "scriptpubkey_asm": "OP_PUSHNUM_1 OP_PUSHBYTES_32 5cebb8360948f0d953b9604ed31fa4ae559299174586aa91ff2cae8d53c6b43a",
      "scriptpubkey_type": "v1_p2tr",
      "scriptpubkey_address": "bc1ptn4msdsffrcdj5aevp8dx8ay4e2e9xghgkr24y0l9jhg657xksaqvvc2qg",
      "value": 12787
    },
    {
      "scriptpubkey": "5120847df59ad498762bf8afb0c04d22a13f1f1eeaf157651909b5b6bc194445c05b",
      "scriptpubkey_asm": "OP_PUSHNUM_1 OP_PUSHBYTES_32 847df59ad498762bf8afb0c04d22a13f1f1eeaf157651909b5b6bc194445c05b",
      "scriptpubkey_type": "v1_p2tr",
      "scriptpubkey_address": "bc1ps37ltxk5npmzh790krqy6g4p8u03a6h32aj3jzd4k67pj3z9cpdsfg0xxt",
      "value": 2219
    }
  ],
  "size": 205,
  "weight": 616,
  "fee": 2772,
  "status": {
    "confirmed": true,
    "block_height": 834460,
    "block_hash": "00000000000000000000484a79b643b2524bbce82e5d8a442013fa5b8905ed98",
    "block_time": 1710307468
  },
  "hex": "010000000001010d67fd3c0827ba1b56d99a810e164c7243a893fd4d4ed3577a28d1adf5bff2ea3100000000b7c4423602f3310000000000002251205cebb8360948f0d953b9604ed31fa4ae559299174586aa91ff2cae8d53c6b43aab08000000000000225120847df59ad498762bf8afb0c04d22a13f1f1eeaf157651909b5b6bc194445c05b0140ed9afd924a59c34f1f00e27bc14cba66b9b38f5acfc4736760954603da2e67dfb73579b31fd468405da38fc729506205b9a17212bf59f7881288a6d452081f8e00000000"
}