{
  "txid": "8888888888bff446b3884b85d830f0b5cc5b6a596780f6f3f2ed4d82e226ad93",
  "version": 1,
  "locktime": 0,
  "vin": [
    {
      "txid": "8888888889e098999b374bddd8b39861652e97d4a8f34dbf5c98aa1dd25c99a7",
      "vout": 1,
      "prevout": {
        "scriptpubkey": "5120c9778f0f7116a0fa90e759ca54b375f5c38d7db5875a2860af8354d65a8671e2",
        "scriptpubkey_asm": "OP_PUSHNUM_1 OP_PUSHBYTES_32 c9778f0f7116a0fa90e759ca54b375f5c38d7db5875a2860af8354d65a8671e2",
        "scriptpubkey_type": "v1_p2tr",
        "scriptpubkey_address": "bc1pe9mc7rm3z6s04y88t899fvm47hpc6ld4sadzsc90sd2dvk5xw83qeh2mmm",
        "value": 96278958
      },
      "scriptsig": "",
      "scriptsig_asm": "",
      "witness": [
        "8c6f69fc42129bbb3c42264e9b0c367c3a2bd2bf6f741581feb63d15f4504fddd61edca4fb5df52682d22cf35cde737f1564e45c9d4b8d15d0098615a65bb799"
      ],
      "is_coinbase": false,
      "sequence": 21176520
    }
  ],
  "vout": [
    {
      "scriptpubkey": "512058a07bad9a8546eac4b809050e401f6882de6e83b884576224496c1f51f29e86",
      "scriptpubkey_asm": "OP_PUSHNUM_1 OP_PUSHBYTES_32 58a07bad9a8546eac4b809050e401f6882de6e83b884576224496c1f51f29e86",
      "scriptpubkey_type": "v1_p2tr",
      "scriptpubkey_address": "bc1ptzs8htv6s4rw439cpyzsusqldzpdum5rhzz9wc3yf9kp750jn6rqlmfy00",
      "value": 12071
    },
    {
      "scriptpubkey": "5120c9778f0f7116a0fa90e759ca54b375f5c38d7db5875a2860af8354d65a8671e2",
      "scriptpubkey_asm": "OP_PUSHNUM_1 OP_PUSHBYTES_32 c9778f0f7116a0fa90e759ca54b375f5c38d7db5875a2860af8354d65a8671e2",
      "scriptpubkey_type": "v1_p2tr",
      "scriptpubkey_address": "bc1pe9mc7rm3z6s04y88t899fvm47hpc6ld4sadzsc90sd2dvk5xw83qeh2mmm",
      "value": 96264731
    }
  ],
  "size": 205,
  "weight": 616,
  "fee": 2156,
  "status": {
    "confirmed": true,
    "block_height": 834460,
    "block_hash": "00000000000000000000484a79b643b2524bbce82e5d8a442013fa5b8905ed98",
    "block_time": 1710307468
  },
  "hex": "01000000000101a7995cd21daa985cbf4df3a8d4972e656198b3d8dd4b379b9998e089888888880100000000c820430102272f00000000000022512058a07bad9a8546eac4b809050e401f6882de6e83b884576224496c1f51f29e861be2bc0500000000225120c9778f0f7116a0fa90e759ca54b375f5c38d7db5875a2860af8354d65a8671e201408c6f69fc42129bbb3c42264e9b0c367c3a2bd2bf6f741581feb63d15f4504fddd61edca4fb5df52682d22cf35cde737f1564e45c9d4b8d15d0098615a65bb79900000000"
}