{
  "txid": "888888888eadb16db22d5c24c474b0d684c75b119c745d5e4fd0943158901442",
  "version": 1,
  "locktime": 0,
  "vin": [
    {
      "txid": "8888888888696c3cb78d6095de671ff31da0f64a503468f2caad70ed612d47c0",
      "vout": 1,
      "prevout": {
        "scriptpubkey": "5120b1623eea6d63795f083c801550a1588bc35c23fa549e6199a3f077e4406c436a",
        "scriptpubkey_asm": "OP_PUSHNUM_1 OP_PUSHBYTES_32 b1623eea6d63795f083c801550a1588bc35c23fa549e6199a3f077e4406c436a",
        "scriptpubkey_type": "v1_p2tr",
        "scriptpubkey_address": "bc1pk93ra6ndvdu47zpusq24pg2c30p4cgl62j0xrxdr7pm7gsrvgd4q3q5rg8",
        "value": 9415150
      },
      "scriptsig": "",
      "scriptsig_asm": "",
      "witness": [
        "974da14340c04e3a6878aac09d2012aaa4c9c1dcbef72f92c6440260919c3f1749630b8dfbe045985c9662eda19fb9b941b0f7087b7ff646dcb8dad540ad216a"
      ],
      "is_coinbase": false,
      "sequence": 751167129
    }
  ],
  "vout": [
    {
      "scriptpubkey": "512059de335e9698714eb1c224e2673e8361cf3e2b17747ed173aac986669f7ee369",
      "scriptpubkey_asm": "OP_PUSHNUM_1 OP_PUSHBYTES_32 59de335e9698714eb1c224e2673e8361cf3e2b17747ed173aac986669f7ee369",
      "scriptpubkey_type": "v1_p2tr",
      "scriptpubkey_address": "bc1pt80rxh5knpc5avwzyn3xw05rv88nu2chw3ldzua2exrxd8m7ud5spnpzvu",
      "value": 11923
    },
    {
      "scriptpubkey": "5120b1623eea6d63795f083c801550a1588bc35c23fa549e6199a3f077e4406c436a",
      "scriptpubkey_asm": "OP_PUSHNUM_1 OP_PUSHBYTES_32 b1623eea6d63795f083c801550a1588bc35c23fa549e6199a3f077e4406c436a",
      "scriptpubkey_type": "v1_p2tr",
      "scriptpubkey_address": "bc1pk93ra6ndvdu47zpusq24pg2c30p4cgl62j0xrxdr7pm7gsrvgd4q3q5rg8",
      "value": 9401225
    }
  ],
  "size": 205,
  "weight": 616,
  "fee": 2002,
  "status": {
    "confirmed": true,
    "block_height": 834460,
    "block_hash": "00000000000000000000484a79b643b2524bbce82e5d8a442013fa5b8905ed98",
    "block_time": 1710307468
  },
  "hex": "01000000000101c0472d61ed70adcaf26834504af6a01df31f67de95608db73c6c698888888888010000000099e6c52c02932e00000000000022512059de335e9698714eb1c224e2673e8361cf3e2b17747ed173aac986669f7ee36989738f0000000000225120b1623eea6d63795f083c801550a1588bc35c23fa549e6199a3f077e4406c436a0140974da14340c04e3a6878aac09d2012aaa4c9c1dcbef72f92c6440260919c3f1749630b8dfbe045985c9662eda19fb9b941b0f7087b7ff646dcb8dad540ad216a00000000"
}