{
  "txid": "8888888b23b9dba320e95ffb0f8fb1780fda383fdefd5761106f1692d1f2df00",
  "version": 1,
  "locktime": 0,
  "vin": [
    {
      "txid": "d79ed1dbf66450aca74597996c7408a273666fc57a394f2800df9814ecead111",
      "vout": 25,
      "prevout": {
        "scriptpubkey": "5120e0b9252acbf755a4bda0486449eb82e5691af131c94b32872179575f8756178a",
        "scriptpubkey_asm": "OP_PUSHNUM_1 OP_PUSHBYTES_32 e0b9252acbf755a4bda0486449eb82e5691af131c94b32872179575f8756178a",
        "scriptpubkey_type": "v1_p2tr",
        "scriptpubkey_address": "bc1puzuj22kt7a26f0dqfpjyn6uzu4534uf3e99n9pep09t4lp6kz79qs0s9mt",
        "value": 14948
      },
      "scriptsig": "",
      "scriptsig_asm": "",
      "witness": [
        "16da3651f0e59d944296f4546988b700fa96d95abc189cf1621ce2ca7df5a2308445896836c02f3c733d3277dcb74958d0f7ed21db3f0de6ff1139e4451fc431"
      ],
      "is_coinbase": false,
      "sequence": 11851132
    }
  ],
  "vout": [
    {
      "scriptpubkey": "512012ecda67b6f01a6fb701b9f7787a1d0ee1ad9fa0ede374b546b3fd8ba227ca87",
      "scriptpubkey_asm": "OP_PUSHNUM_1 OP_PUSHBYTES_32 12ecda67b6f01a6fb701b9f7787a1d0ee1ad9fa0ede374b546b3fd8ba227ca87",
      "scriptpubkey_type": "v1_p2tr",
      "scriptpubkey_address": "bc1pztkd5eak7qdxldcph8mhs7sapms6m8aqah3hfd2xk07chg38e2rsxtxkug",
      "value": 11704
    },
    {
      "scriptpubkey": "5120e0b9252acbf755a4bda0486449eb82e5691af131c94b32872179575f8756178a",
      "scriptpubkey_asm": "OP_PUSHNUM_1 OP_PUSHBYTES_32 e0b9252acbf755a4bda0486449eb82e5691af131c94b32872179575f8756178a",
      "scriptpubkey_type": "v1_p2tr",
      "scriptpubkey_address": "bc1puzuj22kt7a26f0dqfpjyn6uzu4534uf3e99n9pep09t4lp6kz79qs0s9mt",
      "value": 1627
    }
  ],
  "size": 205,
  "weight": 616,
  "fee": 1617,
  "status": {
    "confirmed": true,
    "block_height": 834464,
    "block_hash": "0000000000000000000177a0869a911a2b65c9bdcd5a8bcb02b68f305bee848e",
    "block_time": 1710308296
  },
  "hex": "0100000000010111d1eaec1498df00284f397ac56f6673a208746c999745a7ac5064f6dbd19ed719000000007cd5b40002b82d00000000000022512012ecda67b6f01a6fb701b9f7787a1d0ee1ad9fa0ede374b546b3fd8ba227ca875b06000000000000225120e0b9252acbf755a4bda0486449eb82e5691af131c94b32872179575f8756178a014016da3651f0e59d944296f4546988b700fa96d95abc189cf1621ce2ca7df5a2308445896836c02f3c733d3277dcb74958d0f7ed21db3f0de6ff1139e4451fc43100000000"
}