{
  "txid": "88888881d1a6e9563a2c8e4afd1a8105409e9e505b6f438ad39124aafe07da75",
  "version": 1,
  "locktime": 0,
  "vin": [
    {
      "txid": "d79ed1dbf66450aca74597996c7408a273666fc57a394f2800df9814ecead111",
      "vout": 17,
      "prevout": {
        "scriptpubkey": "5120e0b9252acbf755a4bda0486449eb82e5691af131c94b32872179575f8756178a",
        "scriptpubkey_asm": "OP_PUSHNUM_1 OP_PUSHBYTES_32 e0b9252acbf755a4bda0486449eb82e5691af131c94b32872179575f8756178a",
        "scriptpubkey_type": "v1_p2tr",
        "scriptpubkey_address": "bc1puzuj22kt7a26f0dqfpjyn6uzu4534uf3e99n9pep09t4lp6kz79qs0s9mt",
        "value": 14948
      },
      "scriptsig": "",
      "scriptsig_asm": "",
      "witness": [
        "993d777f1eaf49822050a456f54fe0daf6d665df44b8a98fdb43f8f36f58596597e86558b0c17edd30e8e39e2e2ee7b164c636f4792bc1e064d84d48eca53048"
      ],
      "is_coinbase": false,
      "sequence": 11910301
    }
  ],
  "vout": [
    {
      "scriptpubkey": "5120857f43ac07e1936fc23c7740730de9c7f92073f487507bdbc95e5ec62d034fa3",
      "scriptpubkey_asm": "OP_PUSHNUM_1 OP_PUSHBYTES_32 857f43ac07e1936fc23c7740730de9c7f92073f487507bdbc95e5ec62d034fa3",
      "scriptpubkey_type": "v1_p2tr",
      "scriptpubkey_address": "bc1ps4l58tq8uxfkls3uwaq8xr0fclujqul5sag8hk7fte0vvtgrf73shrpn7r",
      "value": 11704
    },
    {
      "scriptpubkey": "5120e0b9252acbf755a4bda0486449eb82e5691af131c94b32872179575f8756178a",
      "scriptpubkey_asm": "OP_PUSHNUM_1 OP_PUSHBYTES_32 e0b9252acbf755a4bda0486449eb82e5691af131c94b32872179575f8756178a",
      "scriptpubkey_type": "v1_p2tr",
      "scriptpubkey_address": "bc1puzuj22kt7a26f0dqfpjyn6uzu4534uf3e99n9pep09t4lp6kz79qs0s9mt",
      "value": 1627
    }
  ],
  "size": 205,
  "weight": 616,
  "fee": 1617,
  "status": {
    "confirmed": true,
    "block_height": 834464,
    "block_hash": "0000000000000000000177a0869a911a2b65c9bdcd5a8bcb02b68f305bee848e",
    "block_time": 1710308296
  },
  "hex": "0100000000010111d1eaec1498df00284f397ac56f6673a208746c999745a7ac5064f6dbd19ed711000000009dbcb50002b82d000000000000225120857f43ac07e1936fc23c7740730de9c7f92073f487507bdbc95e5ec62d034fa35b06000000000000225120e0b9252acbf755a4bda0486449eb82e5691af131c94b32872179575f8756178a0140993d777f1eaf49822050a456f54fe0daf6d665df44b8a98fdb43f8f36f58596597e86558b0c17edd30e8e39e2e2ee7b164c636f4792bc1e064d84d48eca5304800000000"
}