{
  "txid": "88888887d8789236e657c3a88541e7ba8f1bd0e85916972fe2dc95571972b106",
  "version": 1,
  "locktime": 0,
  "vin": [
    {
      "txid": "d79ed1dbf66450aca74597996c7408a273666fc57a394f2800df9814ecead111",
      "vout": 13,
      "prevout": {
        "scriptpubkey": "5120e0b9252acbf755a4bda0486449eb82e5691af131c94b32872179575f8756178a",
        "scriptpubkey_asm": "OP_PUSHNUM_1 OP_PUSHBYTES_32 e0b9252acbf755a4bda0486449eb82e5691af131c94b32872179575f8756178a",
        "scriptpubkey_type": "v1_p2tr",
        "scriptpubkey_address": "bc1puzuj22kt7a26f0dqfpjyn6uzu4534uf3e99n9pep09t4lp6kz79qs0s9mt",
        "value": 14948
      },
      "scriptsig": "",
      "scriptsig_asm": "",
      "witness": [
        "25c9fb7c68f7d37cb14d8192b074f9517ab5c66a06c41bf7a2dc542008cc49cace6b2603f112a3728d90b4a9992348ed2ac0d6839b18a1acbfbfa3c4d8e62238"
      ],
      "is_coinbase": false,
      "sequence": 11617556
    }
  ],
  "vout": [
    {
      "scriptpubkey": "51200cbdf1c84a5df3a812f3b4e43b6c3c6032c360928f71e4b7648551bd1d8fcc51",
      "scriptpubkey_asm": "OP_PUSHNUM_1 OP_PUSHBYTES_32 0cbdf1c84a5df3a812f3b4e43b6c3c6032c360928f71e4b7648551bd1d8fcc51",
      "scriptpubkey_type": "v1_p2tr",
      "scriptpubkey_address": "bc1ppj7lrjz2the6syhnknjrkmpuvqevxcyj3ac7fdmys4gm68v0e3gssvnxt4",
      "value": 11704
    },
    {
      "scriptpubkey": "5120e0b9252acbf755a4bda0486449eb82e5691af131c94b32872179575f8756178a",
      "scriptpubkey_asm": "OP_PUSHNUM_1 OP_PUSHBYTES_32 e0b9252acbf755a4bda0486449eb82e5691af131c94b32872179575f8756178a",
      "scriptpubkey_type": "v1_p2tr",
      "scriptpubkey_address": "bc1puzuj22kt7a26f0dqfpjyn6uzu4534uf3e99n9pep09t4lp6kz79qs0s9mt",
      "value": 1627
    }
  ],
  "size": 205,
  "weight": 616,
  "fee": 1617,
  "status": {
    "confirmed": true,
    "block_height": 834464,
    "block_hash": "0000000000000000000177a0869a911a2b65c9bdcd5a8bcb02b68f305bee848e",
    "block_time": 1710308296
  },
  "hex": "0100000000010111d1eaec1498df00284f397ac56f6673a208746c999745a7ac5064f6dbd19ed70d000000001445b10002b82d0000000000002251200cbdf1c84a5df3a812f3b4e43b6c3c6032c360928f71e4b7648551bd1d8fcc515b06000000000000225120e0b9252acbf755a4bda0486449eb82e5691af131c94b32872179575f8756178a014025c9fb7c68f7d37cb14d8192b074f9517ab5c66a06c41bf7a2dc542008cc49cace6b2603f112a3728d90b4a9992348ed2ac0d6839b18a1acbfbfa3c4d8e6223800000000"
}