{
  "txid": "888888888a63827572605e6dd12099cbb0c5d31e58519dd2ba8b15bae0ff7b5d",
  "version": 1,
  "locktime": 0,
  "vin": [
    {
      "txid": "8888888888c5daf7dcf022d5b14576369b056188f96d1fae9e5a147d1e342201",
      "vout": 1,
      "prevout": {
        "scriptpubkey": "5120e18d3dc17684673f3ce35b007c6a48ad9d5388d94e1321baa2c1dcc7f7cef85a",
        "scriptpubkey_asm": "OP_PUSHNUM_1 OP_PUSHBYTES_32 e18d3dc17684673f3ce35b007c6a48ad9d5388d94e1321baa2c1dcc7f7cef85a",
        "scriptpubkey_type": "v1_p2tr",
        "scriptpubkey_address": "bc1puxxnmstks3nn708rtvq8c6jg4kw48zxefcfjrw4zc8wv0a7wlpdqlncjy8",
        "value": 9846825
      },
      "scriptsig": "",
      "scriptsig_asm": "",
      "witness": [
        "7e225fcd00bf4da3e158f728cbe2ec5c0b41fe0ae941dff2a5ecf8ed68d36c41d0e550032d8083db21e0c5778016e85584ec56dc60ff8f46a95f45fda46fedce"
      ],
      "is_coinbase": false,
      "sequence": 1656665503
    }
  ],
  "vout": [
    {
      "scriptpubkey": "5120600a780ed1c0f46667a89229f3d4698a47ef212dcd49b4552408fdbfb7122468",
      "scriptpubkey_asm": "OP_PUSHNUM_1 OP_PUSHBYTES_32 600a780ed1c0f46667a89229f3d4698a47ef212dcd49b4552408fdbfb7122468",
      "scriptpubkey_type": "v1_p2tr",
      "scriptpubkey_address": "bc1pvq98srk3cr6xveagjg5l84rf3fr77gfde4ymg4fypr7mldcjy35qxyq8jd",
      "value": 11923
    },
    {
      "scriptpubkey": "5120e18d3dc17684673f3ce35b007c6a48ad9d5388d94e1321baa2c1dcc7f7cef85a",
      "scriptpubkey_asm": "OP_PUSHNUM_1 OP_PUSHBYTES_32 e18d3dc17684673f3ce35b007c6a48ad9d5388d94e1321baa2c1dcc7f7cef85a",
      "scriptpubkey_type": "v1_p2tr",
      "scriptpubkey_address": "bc1puxxnmstks3nn708rtvq8c6jg4kw48zxefcfjrw4zc8wv0a7wlpdqlncjy8",
      "value": 9832900
    }
  ],
  "size": 205,
  "weight": 616,
  "fee": 2002,
  "status": {
    "confirmed": true,
    "block_height": 834460,
    "block_hash": "00000000000000000000484a79b643b2524bbce82e5d8a442013fa5b8905ed98",
    "block_time": 1710307468
  },
  "hex": "010000000001010122341e7d145a9eae1f6df98861059b367645b1d522f0dcf7dac5888888888801000000009fb5be6202932e000000000000225120600a780ed1c0f46667a89229f3d4698a47ef212dcd49b4552408fdbfb7122468c409960000000000225120e18d3dc17684673f3ce35b007c6a48ad9d5388d94e1321baa2c1dcc7f7cef85a01407e225fcd00bf4da3e158f728cbe2ec5c0b41fe0ae941dff2a5ecf8ed68d36c41d0e550032d8083db21e0c5778016e85584ec56dc60ff8f46a95f45fda46fedce00000000"
}