{
  "txid": "888888888ba299c0b23aaa1afdd936104e765d96de71d532555352c09c8e3f05",
  "version": 1,
  "locktime": 0,
  "vin": [
    {
      "txid": "d1716b94c93f1cf5da22bd3247eb50d14acbd084e7b3172dbc35283fdb1e7db5",
      "vout": 3,
      "prevout": {
        "scriptpubkey": "5120a7dac81ce35d99d3f17e5d942ea2211fefd42d3df778d795e82b4d134f2431bb",
        "scriptpubkey_asm": "OP_PUSHNUM_1 OP_PUSHBYTES_32 a7dac81ce35d99d3f17e5d942ea2211fefd42d3df778d795e82b4d134f2431bb",
        "scriptpubkey_type": "v1_p2tr",
        "scriptpubkey_address": "bc1p5ldvs88rtkva8ut7tk2zag3prlhagtfa7aud090g9dx3xneyxxas2jcjvc",
        "value": 17948
      },
      "scriptsig": "",
      "scriptsig_asm": "",
      "witness": [
        "4166602168b7c83b45085ee397bae54d776fbcdc9381d6c7686de212a182f73e42ae0a71508e5ec68d5452e6b6a350b588f8556994a1f55a74e27fc1fd8422be"
      ],
      "is_coinbase": false,
      "sequence": 2280502777
    }
  ],
  "vout": [
    {
      "scriptpubkey": "5120e3f1d7f530aeaf36b3945a12bd3564edc1e621ec61ca74ec9fce689d418d87f5",
      "scriptpubkey_asm": "OP_PUSHNUM_1 OP_PUSHBYTES_32 e3f1d7f530aeaf36b3945a12bd3564edc1e621ec61ca74ec9fce689d418d87f5",
      "scriptpubkey_type": "v1_p2tr",
      "scriptpubkey_address": "bc1pu0ca0afs46hndvu5tgft6dtyahq7vg0vv898fmylee5f6svdsl6svpsjya",
      "value": 11787
    },
    {
      "scriptpubkey": "5120a7dac81ce35d99d3f17e5d942ea2211fefd42d3df778d795e82b4d134f2431bb",
      "scriptpubkey_asm": "OP_PUSHNUM_1 OP_PUSHBYTES_32 a7dac81ce35d99d3f17e5d942ea2211fefd42d3df778d795e82b4d134f2431bb",
      "scriptpubkey_type": "v1_p2tr",
      "scriptpubkey_address": "bc1p5ldvs88rtkva8ut7tk2zag3prlhagtfa7aud090g9dx3xneyxxas2jcjvc",
      "value": 4467
    }
  ],
  "size": 205,
  "weight": 616,
  "fee": 1694,
  "status": {
    "confirmed": true,
    "block_height": 834460,
    "block_hash": "00000000000000000000484a79b643b2524bbce82e5d8a442013fa5b8905ed98",
    "block_time": 1710307468
  },
  "hex": "01000000000101b57d1edb3f2835bc2d17b3e784d0cb4ad150eb4732bd22daf51c3fc9946b71d10300000000f9b5ed87020b2e000000000000225120e3f1d7f530aeaf36b3945a12bd3564edc1e621ec61ca74ec9fce689d418d87f57311000000000000225120a7dac81ce35d99d3f17e5d942ea2211fefd42d3df778d795e82b4d134f2431bb01404166602168b7c83b45085ee397bae54d776fbcdc9381d6c7686de212a182f73e42ae0a71508e5ec68d5452e6b6a350b588f8556994a1f55a74e27fc1fd8422be00000000"
}