{
  "txid": "888888888f7ffd957a99caeb9215fa5fd859a66d19e9adc4e202b5c1f8037778",
  "version": 1,
  "locktime": 0,
  "vin": [
    {
      "txid": "888888888cc09aaec3138cccaa43631ebe941b3423ffc4d973f7823f89bedb2c",
      "vout": 1,
      "prevout": {
        "scriptpubkey": "5120c9778f0f7116a0fa90e759ca54b375f5c38d7db5875a2860af8354d65a8671e2",
        "scriptpubkey_asm": "OP_PUSHNUM_1 OP_PUSHBYTES_32 c9778f0f7116a0fa90e759ca54b375f5c38d7db5875a2860af8354d65a8671e2",
        "scriptpubkey_type": "v1_p2tr",
        "scriptpubkey_address": "bc1pe9mc7rm3z6s04y88t899fvm47hpc6ld4sadzsc90sd2dvk5xw83qeh2mmm",
        "value": 96307412
      },
      "scriptsig": "",
      "scriptsig_asm": "",
      "witness": [
        "b1fecc778e4bc0ea54a91c3092d5353001ca5c0ed3f00540b4f25eae1fd7a0e6402e14c5cc90307f34652287bd61cc25b4cf8a14a3c220b9da961677ec46c69e"
      ],
      "is_coinbase": false,
      "sequence": 2309493187
    }
  ],
  "vout": [
    {
      "scriptpubkey": "512044eafe9a8be348d6e4bbd640043892e9321154bb2f7e88fb5d022ca4fe67d810",
      "scriptpubkey_asm": "OP_PUSHNUM_1 OP_PUSHBYTES_32 44eafe9a8be348d6e4bbd640043892e9321154bb2f7e88fb5d022ca4fe67d810",
      "scriptpubkey_type": "v1_p2tr",
      "scriptpubkey_address": "bc1pgn40ax5tudydde9m6eqqgwyjayepz49m9alg376aqgk2fln8mqgql9m52r",
      "value": 12071
    },
    {
      "scriptpubkey": "5120c9778f0f7116a0fa90e759ca54b375f5c38d7db5875a2860af8354d65a8671e2",
      "scriptpubkey_asm": "OP_PUSHNUM_1 OP_PUSHBYTES_32 c9778f0f7116a0fa90e759ca54b375f5c38d7db5875a2860af8354d65a8671e2",
      "scriptpubkey_type": "v1_p2tr",
      "scriptpubkey_address": "bc1pe9mc7rm3z6s04y88t899fvm47hpc6ld4sadzsc90sd2dvk5xw83qeh2mmm",
      "value": 96293185
    }
  ],
  "size": 205,
  "weight": 616,
  "fee": 2156,
  "status": {
    "confirmed": true,
    "block_height": 834460,
    "block_hash": "00000000000000000000484a79b643b2524bbce82e5d8a442013fa5b8905ed98",
    "block_time": 1710307468
  },
  "hex": "010000000001012cdbbe893f82f773d9c4ff23341b94be1e6343aacc8c13c3ae9ac08c888888880100000000c311a88902272f00000000000022512044eafe9a8be348d6e4bbd640043892e9321154bb2f7e88fb5d022ca4fe67d8104151bd0500000000225120c9778f0f7116a0fa90e759ca54b375f5c38d7db5875a2860af8354d65a8671e20140b1fecc778e4bc0ea54a91c3092d5353001ca5c0ed3f00540b4f25eae1fd7a0e6402e14c5cc90307f34652287bd61cc25b4cf8a14a3c220b9da961677ec46c69e00000000"
}