{
  "txid": "88aa4846f29a1034655fb2aba40de2d9471248755ddce97cb3cf90c937488295",
  "version": 1,
  "locktime": 0,
  "vin": [
    {
      "txid": "22203d7f2330822e23c39dc5e27012c187d27a94a8105bd05c041021d80c0ff6",
      "vout": 1,
      "prevout": {
        "scriptpubkey": "0014ae8ef19370b542f21122631983ca6734c1dee5cf",
        "scriptpubkey_asm": "OP_0 OP_PUSHBYTES_20 ae8ef19370b542f21122631983ca6734c1dee5cf",
        "scriptpubkey_type": "v0_p2wpkh",
        "scriptpubkey_address": "bc1q4680rymsk4p0yyfzvvvc8jn8xnqaaew0eljgc2",
        "value": 122070939
      },
      "scriptsig": "",
      "scriptsig_asm": "",
      "witness": [
        "3044022034541cb5dca9c7441f754a105b9080c23e85577d8eabeaf4ac3982611926903002203a7af3ccccd1134060b6387136b8540d5caa20c63b04445f40038c1614c5ed4001",
        "03186c973d6746161f02e8bd8d880c0227e425a13df11d12032aaefa20eed86c73"
      ],
      "is_coinbase": false,
      "sequence": 4294967295
    }
  ],
  "vout": [
    {
      "scriptpubkey": "0014b21310f825458c904ddf552cd0aea2ce0a618bc1",
      "scriptpubkey_asm": "OP_0 OP_PUSHBYTES_20 b21310f825458c904ddf552cd0aea2ce0a618bc1",
      "scriptpubkey_type": "v0_p2wpkh",
      "scriptpubkey_address": "bc1qkgf3p7p9gkxfqnwl25kdpt4zec9xrz7ph4f3lj",
      "value": 1597147
    },
    {
      "scriptpubkey": "0014ae8ef19370b542f21122631983ca6734c1dee5cf",
      "scriptpubkey_asm": "OP_0 OP_PUSHBYTES_20 ae8ef19370b542f21122631983ca6734c1dee5cf",
      "scriptpubkey_type": "v0_p2wpkh",
      "scriptpubkey_address": "bc1q4680rymsk4p0yyfzvvvc8jn8xnqaaew0eljgc2",
      "value": 120469985
    }
  ],
  "size": 222,
  "weight": 561,
  "fee": 3807,
  "status": {
    "confirmed": true,
    "block_height": 834638,
    "block_hash": "000000000000000000025f742c626208ac87e0b7d15054abb4a19ca2d735a54e",
    "block_time": 1710405325
  },
  "hex": "01000000000101f60f0cd82110045cd05b10a8947ad287c11270e2c59dc3232e8230237f3d20220100000000ffffffff02db5e180000000000160014b21310f825458c904ddf552cd0aea2ce0a618bc1e1392e0700000000160014ae8ef19370b542f21122631983ca6734c1dee5cf02473044022034541cb5dca9c7441f754a105b9080c23e85577d8eabeaf4ac3982611926903002203a7af3ccccd1134060b6387136b8540d5caa20c63b04445f40038c1614c5ed40012103186c973d6746161f02e8bd8d880c0227e425a13df11d12032aaefa20eed86c7300000000"
}