{
  "txid": "88b18a7cd273df6a7349fac20a5e96828dddd693c078b7641b838155ddfdf334",
  "version": 1,
  "locktime": 0,
  "vin": [
    {
      "txid": "2136b5ea401c99ba05772201c39c0cff5721be0dbdf86e61217f8741346f9401",
      "vout": 1,
      "prevout": {
        "scriptpubkey": "76a9144ffcfbd3c6f78475208077fcd7fa63af702db39888ac",
        "scriptpubkey_asm": "OP_DUP OP_HASH160 OP_PUSHBYTES_20 4ffcfbd3c6f78475208077fcd7fa63af702db398 OP_EQUALVERIFY OP_CHECKSIG",
        "scriptpubkey_type": "p2pkh",
        "scriptpubkey_address": "18HwSmg85ZrZEd4m2cqQcNRhaKesBYVdsa",
        "value": 14182
      },
      "scriptsig": "483045022100f9996c0d0458879c78d762a3a1f31f11c30370ebe8334f1e4dbeaf8d5b1cf22902202b6ee012562fd38354727a9fd35c47627df29b19109c4891c922f6c1e638973e01210302c1d4897fb411f77aae19978422278ca478df1a970d5b9eaaf231c7a4bfe779",
      "scriptsig_asm": "OP_PUSHBYTES_72 3045022100f9996c0d0458879c78d762a3a1f31f11c30370ebe8334f1e4dbeaf8d5b1cf22902202b6ee012562fd38354727a9fd35c47627df29b19109c4891c922f6c1e638973e01 OP_PUSHBYTES_33 0302c1d4897fb411f77aae19978422278ca478df1a970d5b9eaaf231c7a4bfe779",
      "is_coinbase": false,
      "sequence": 4294967295
    },
    {
      "txid": "dd34fb5be9d1b0c78fb581d2f8a113a653eac6f19845d043754c0bf84ac551d5",
      "vout": 125,
      "prevout": {
        "scriptpubkey": "76a914861b752a5656025fa1eb5e02e3363db3bc97ab3a88ac",
        "scriptpubkey_asm": "OP_DUP OP_HASH160 OP_PUSHBYTES_20 861b752a5656025fa1eb5e02e3363db3bc97ab3a OP_EQUALVERIFY OP_CHECKSIG",
        "scriptpubkey_type": "p2pkh",
        "scriptpubkey_address": "1DE6SVtjo1VF8yCjhtMSsZDasEkdbDuRfo",
        "value": 95444
      },
      "scriptsig": "483045022100fa90aeeb8e70bccb3c29ff7859670275d658a29b9f8753604f9059ed89ce7e7d02201f95ef4849895c8d3884970e60c8bf3c8797c7962c29dde312721938bc3f4c09012103a9f2f3e906f75d54279f5e5e68e3e75ecd426432ab01dee4e831f83443d5d540",
      "scriptsig_asm": "OP_PUSHBYTES_72 3045022100fa90aeeb8e70bccb3c29ff7859670275d658a29b9f8753604f9059ed89ce7e7d02201f95ef4849895c8d3884970e60c8bf3c8797c7962c29dde312721938bc3f4c0901 OP_PUSHBYTES_33 03a9f2f3e906f75d54279f5e5e68e3e75ecd426432ab01dee4e831f83443d5d540",
      "is_coinbase": false,
      "sequence": 4294967295
    },
    {
      "txid": "fde37474d3ad8d6278af9b14997b9ed16a5df7b46935f23dfb7281bb5004d7e7",
      "vout": 124,
      "prevout": {
        "scriptpubkey": "76a914d131f3ca72b83971e42217bd5f31980f4439149d88ac",
        "scriptpubkey_asm": "OP_DUP OP_HASH160 OP_PUSHBYTES_20 d131f3ca72b83971e42217bd5f31980f4439149d OP_EQUALVERIFY OP_CHECKSIG",
        "scriptpubkey_type": "p2pkh",
        "scriptpubkey_address": "1L584qhw9U34co8xywUqi7VDw9L61xVpuq",
        "value": 128045
      },
      "scriptsig": "47304402203bfd6503c3696e882bff12afced3ec3421256774ef82b2afbffb83bbdc02e6940220579cbb7a7f2026f9faf887af3a6bf6c8cb67a8f48cb3b7ccd3dbfa2c7a372f4f012102df0e26012a5430818c1ead5d6f027b5c16eaa61828deeafb4e35f07675ca8984",
      "scriptsig_asm": "OP_PUSHBYTES_71 304402203bfd6503c3696e882bff12afced3ec3421256774ef82b2afbffb83bbdc02e6940220579cbb7a7f2026f9faf887af3a6bf6c8cb67a8f48cb3b7ccd3dbfa2c7a372f4f01 OP_PUSHBYTES_33 02df0e26012a5430818c1ead5d6f027b5c16eaa61828deeafb4e35f07675ca8984",
      "is_coinbase": false,
      "sequence": 4294967295
    },
    {
      "txid": "583f3a6c070a770fd1913b90e322d410722335c635e4ceb597636b6465c48c43",
      "vout": 50,
      "prevout": {
        "scriptpubkey": "76a9142ea62e22fa7910b8a78eabc3a437696aad082a6688ac",
        "scriptpubkey_asm": "OP_DUP OP_HASH160 OP_PUSHBYTES_20 2ea62e22fa7910b8a78eabc3a437696aad082a66 OP_EQUALVERIFY OP_CHECKSIG",
        "scriptpubkey_type": "p2pkh",
        "scriptpubkey_address": "15FfAEFK5YqQjXrfkCHhwUAjQPrqBbiTQu",
        "value": 271438
      },
      "scriptsig": "47304402201c5fd205e9009f5c64fdda0ebc798582b1ea18362f87df6729af54db64b36cb102200e6a4db9b939c29c54d0e54b38f86932c9325cbfcbeb69ef0524dd260d970fc6012103079e6f48fed652422c13c417eefb21f4b65a05530eb0feb300cede4e43cb4498",
      "scriptsig_asm": "OP_PUSHBYTES_71 304402201c5fd205e9009f5c64fdda0ebc798582b1ea18362f87df6729af54db64b36cb102200e6a4db9b939c29c54d0e54b38f86932c9325cbfcbeb69ef0524dd260d970fc601 OP_PUSHBYTES_33 03079e6f48fed652422c13c417eefb21f4b65a05530eb0feb300cede4e43cb4498",
      "is_coinbase": false,
      "sequence": 4294967295
    },
    {
      "txid": "b8df3b9936b2fddbc8d9811814d6d1e1ecc68a9a45d9605fafeb91d6344b7552",
      "vout": 34,
      "prevout": {
        "scriptpubkey": "76a91464d57b8ccff5e69d07797c76b3d96ceed731514088ac",
        "scriptpubkey_asm": "OP_DUP OP_HASH160 OP_PUSHBYTES_20 64d57b8ccff5e69d07797c76b3d96ceed7315140 OP_EQUALVERIFY OP_CHECKSIG",
        "scriptpubkey_type": "p2pkh",
        "scriptpubkey_address": "1ACAKDVPywphKrGRGyG8jSmRFAuXdKKZgm",
        "value": 437521
      },
      "scriptsig": "473044022027d6b77b8dcca9a364c7c4634cd9a43e5b801ae552e9feaa779d08bf480403c902203c6ae67c387fdebf5a08fc27fcf3bda8b09e6c150cdc77e0eff23f110e6ee0c501210207adde36882ad3c5d594e9fa0e3e69cd33a7250647473db34c9ef5b5e94c804e",
      "scriptsig_asm": "OP_PUSHBYTES_71 3044022027d6b77b8dcca9a364c7c4634cd9a43e5b801ae552e9feaa779d08bf480403c902203c6ae67c387fdebf5a08fc27fcf3bda8b09e6c150cdc77e0eff23f110e6ee0c501 OP_PUSHBYTES_33 0207adde36882ad3c5d594e9fa0e3e69cd33a7250647473db34c9ef5b5e94c804e",
      "is_coinbase": false,
      "sequence": 4294967295
    }
  ],
  "vout": [
    {
      "scriptpubkey": "0014557216d682ff357cffa98b2ec193d5920247e26c",
      "scriptpubkey_asm": "OP_0 OP_PUSHBYTES_20 557216d682ff357cffa98b2ec193d5920247e26c",
      "scriptpubkey_type": "v0_p2wpkh",
      "scriptpubkey_address": "bc1q24epd45zlu6helaf3vhvry74jgpy0cnv6wqkq7",
      "value": 913523
    },
    {
      "scriptpubkey": "76a91490e813afd419039ea9a63eb0310fd5fb3b8aca9888ac",
      "scriptpubkey_asm": "OP_DUP OP_HASH160 OP_PUSHBYTES_20 90e813afd419039ea9a63eb0310fd5fb3b8aca98 OP_EQUALVERIFY OP_CHECKSIG",
      "scriptpubkey_type": "p2pkh",
      "scriptpubkey_address": "1EDCKcM264NN6Q5E3jfSmJLWGU2ckh1mA3",
      "value": 2137
    }
  ],
  "size": 812,
  "weight": 3248,
  "fee": 30970,
  "status": {
    "confirmed": true,
    "block_height": 834638,
    "block_hash": "000000000000000000025f742c626208ac87e0b7d15054abb4a19ca2d735a54e",
    "block_time": 1710405325
  },
  "hex": "010000000501946f3441877f21616ef8bd0dbe2157ff0c9cc301227705ba991c40eab53621010000006b483045022100f9996c0d0458879c78d762a3a1f31f11c30370ebe8334f1e4dbeaf8d5b1cf22902202b6ee012562fd38354727a9fd35c47627df29b19109c4891c922f6c1e638973e01210302c1d4897fb411f77aae19978422278ca478df1a970d5b9eaaf231c7a4bfe779ffffffffd551c54af80b4c7543d04598f1c6ea53a613a1f8d281b58fc7b0d1e95bfb34dd7d0000006b483045022100fa90aeeb8e70bccb3c29ff7859670275d658a29b9f8753604f9059ed89ce7e7d02201f95ef4849895c8d3884970e60c8bf3c8797c7962c29dde312721938bc3f4c09012103a9f2f3e906f75d54279f5e5e68e3e75ecd426432ab01dee4e831f83443d5d540ffffffffe7d70450bb8172fb3df23569b4f75d6ad19e7b99149baf78628dadd37474e3fd7c0000006a47304402203bfd6503c3696e882bff12afced3ec3421256774ef82b2afbffb83bbdc02e6940220579cbb7a7f2026f9faf887af3a6bf6c8cb67a8f48cb3b7ccd3dbfa2c7a372f4f012102df0e26012a5430818c1ead5d6f027b5c16eaa61828deeafb4e35f07675ca8984ffffffff438cc465646b6397b5cee435c635237210d422e3903b91d10f770a076c3a3f58320000006a47304402201c5fd205e9009f5c64fdda0ebc798582b1ea18362f87df6729af54db64b36cb102200e6a4db9b939c29c54d0e54b38f86932c9325cbfcbeb69ef0524dd260d970fc6012103079e6f48fed652422c13c417eefb21f4b65a05530eb0feb300cede4e43cb4498ffffffff52754b34d691ebaf5f60d9459a8ac6ece1d1d6141881d9c8dbfdb236993bdfb8220000006a473044022027d6b77b8dcca9a364c7c4634cd9a43e5b801ae552e9feaa779d08bf480403c902203c6ae67c387fdebf5a08fc27fcf3bda8b09e6c150cdc77e0eff23f110e6ee0c501210207adde36882ad3c5d594e9fa0e3e69cd33a7250647473db34c9ef5b5e94c804effffffff0273f00d0000000000160014557216d682ff357cffa98b2ec193d5920247e26c59080000000000001976a91490e813afd419039ea9a63eb0310fd5fb3b8aca9888ac00000000"
}