{
  "txid": "88caea9fa731401104fede6d8c55a0a209f5b47d9b2e1faf7b93b1e40100b48a",
  "version": 2,
  "locktime": 834617,
  "vin": [
    {
      "txid": "055fcb804abceb297982920a9657efcb73c9e063d6b4716d208942917e3452b9",
      "vout": 1,
      "prevout": {
        "scriptpubkey": "0014a3c3b81cf5767154da35b0e91a1ae8a6934857d4",
        "scriptpubkey_asm": "OP_0 OP_PUSHBYTES_20 a3c3b81cf5767154da35b0e91a1ae8a6934857d4",
        "scriptpubkey_type": "v0_p2wpkh",
        "scriptpubkey_address": "bc1q50pms884wec4fk34kr535xhg56f5s475tpaqha",
        "value": 4360000
      },
      "scriptsig": "",
      "scriptsig_asm": "",
      "witness": [
        "30440220364b1ef5c5eb33e148c7dfad232a35f0a7832a91b8897b0cc562997d6232353d02200ff0ffd239ccef87319ae07ab68d46679d0bd15208a304cc6c38a905401b2ac401",
        "0215b9092f84a792c90ddde532f7e574f9c5130c1552c2f41f724449beae1ccc3a"
      ],
      "is_coinbase": false,
      "sequence": 4294967293
    },
    {
      "txid": "e6914677cab32161c5109c402999881490dbec6abcb4007fbb762de711e71b41",
      "vout": 0,
      "prevout": {
        "scriptpubkey": "0014a3c3b81cf5767154da35b0e91a1ae8a6934857d4",
        "scriptpubkey_asm": "OP_0 OP_PUSHBYTES_20 a3c3b81cf5767154da35b0e91a1ae8a6934857d4",
        "scriptpubkey_type": "v0_p2wpkh",
        "scriptpubkey_address": "bc1q50pms884wec4fk34kr535xhg56f5s475tpaqha",
        "value": 99960000
      },
      "scriptsig": "",
      "scriptsig_asm": "",
      "witness": [
        "304402203adf81697ad98e38b6c1d8fcf53bdbf657ec619e10fd00bb5f0f07f90e669ebc02202acf894513e3cfa05e32f46f9c9ab5548a8da6023c59241b780b9255b2b25c0901",
        "0215b9092f84a792c90ddde532f7e574f9c5130c1552c2f41f724449beae1ccc3a"
      ],
      "is_coinbase": false,
      "sequence": 4294967293
    }
  ],
  "vout": [
    {
      "scriptpubkey": "a914f8f5620b60e9de36c1e504158cd9b11f7cc3b27787",
      "scriptpubkey_asm": "OP_HASH160 OP_PUSHBYTES_20 f8f5620b60e9de36c1e504158cd9b11f7cc3b277 OP_EQUAL",
      "scriptpubkey_type": "p2sh",
      "scriptpubkey_address": "3QPPTdHhoQNV5MQffau83MmptQ7uzG6Utb",
      "value": 50000000
    },
    {
      "scriptpubkey": "00141b97543b8cd70fa192633378c8c55e89fdaa1da9",
      "scriptpubkey_asm": "OP_0 OP_PUSHBYTES_20 1b97543b8cd70fa192633378c8c55e89fdaa1da9",
      "scriptpubkey_type": "v0_p2wpkh",
      "scriptpubkey_address": "bc1qrwt4gwuv6u86rynrxduv3327387658dfnhmaqx",
      "value": 54311400
    }
  ],
  "size": 371,
  "weight": 836,
  "fee": 8600,
  "status": {
    "confirmed": true,
    "block_height": 834638,
    "block_hash": "000000000000000000025f742c626208ac87e0b7d15054abb4a19ca2d735a54e",
    "block_time": 1710405325
  },
  "hex": "02000000000102b952347e914289206d71b4d663e0c973cbef57960a92827929ebbc4a80cb5f050100000000fdffffff411be711e72d76bb7f00b4bc6aecdb9014889929409c10c56121b3ca774691e60000000000fdffffff0280f0fa020000000017a914f8f5620b60e9de36c1e504158cd9b11f7cc3b27787e8b93c03000000001600141b97543b8cd70fa192633378c8c55e89fdaa1da9024730440220364b1ef5c5eb33e148c7dfad232a35f0a7832a91b8897b0cc562997d6232353d02200ff0ffd239ccef87319ae07ab68d46679d0bd15208a304cc6c38a905401b2ac401210215b9092f84a792c90ddde532f7e574f9c5130c1552c2f41f724449beae1ccc3a0247304402203adf81697ad98e38b6c1d8fcf53bdbf657ec619e10fd00bb5f0f07f90e669ebc02202acf894513e3cfa05e32f46f9c9ab5548a8da6023c59241b780b9255b2b25c0901210215b9092f84a792c90ddde532f7e574f9c5130c1552c2f41f724449beae1ccc3a39bc0c00"
}