{
  "txid": "88d0efbe681e09bfbbd6bae2698e1e8b697f3080a627ad653d91902d61c4fe70",
  "version": 2,
  "locktime": 0,
  "vin": [
    {
      "txid": "0ad82719c5568c4acd81b83e609db57306639901211bd5a5b68a6fc3de4e1473",
      "vout": 1,
      "prevout": {
        "scriptpubkey": "51206ea4d7fee09c9787ccb471f7d5b4574052ecca795f73b4e9e4cf8022835a9806",
        "scriptpubkey_asm": "OP_PUSHNUM_1 OP_PUSHBYTES_32 6ea4d7fee09c9787ccb471f7d5b4574052ecca795f73b4e9e4cf8022835a9806",
        "scriptpubkey_type": "v1_p2tr",
        "scriptpubkey_address": "bc1pd6jd0lhqnjtc0n95w8matdzhgpfwejnetaemf60ye7qz9q66nqrq3rn6zw",
        "value": 2834
      },
      "scriptsig": "",
      "scriptsig_asm": "",
      "witness": [
        "e5db30796d7943dbd6a229e69c1e8f4c504f5ccac0c4be1ce581ad08914b30f767be92d63d8e9af0f50ba86044905984a821d0dde0a78602fc188e31a41aef87",
        "20a3fd2e35b9570535ea3b5b00c0368f8441c7d8ccdb92574858e0f8ed4f2de5b7ac0063036f726401011e6170706c69636174696f6e2f6a736f6e3b636861727365743d7574662d38004cbf7b2270223a22706f772d3230222c226f70223a226d696e74222c227469636b223a2250455045222c22616d74223a2231303030222c22736f6c7574696f6e223a22504550453a6263317173637064736c337671777466366a733538786832307637717775716839336e777737783763793a303030303030303030303030303030303030303139393431613561653132383937363539383134343239323533333030353762306461393666336465613163353a3433393533333934303830227d68",
        "c1962df30d9be27fcd73fd9a4053b3728334e273f9929aba028483b2e810075667"
      ],
      "is_coinbase": false,
      "sequence": 4294967295
    }
  ],
  "vout": [
    {
      "scriptpubkey": "00148602d87e2c03969d4a1439aea7b3c0770172c66e",
      "scriptpubkey_asm": "OP_0 OP_PUSHBYTES_20 8602d87e2c03969d4a1439aea7b3c0770172c66e",
      "scriptpubkey_type": "v0_p2wpkh",
      "scriptpubkey_address": "bc1qscpdsl3vqwtf6js58xh20v7qwuqh93nww7x7cy",
      "value": 546
    }
  ],
  "size": 455,
  "weight": 701,
  "fee": 2288,
  "status": {
    "confirmed": true,
    "block_height": 834460,
    "block_hash": "00000000000000000000484a79b643b2524bbce82e5d8a442013fa5b8905ed98",
    "block_time": 1710307468
  },
  "hex": "0200000000010173144edec36f8ab6a5d51b210199630673b59d603eb881cd4a8c56c51927d80a0100000000ffffffff0122020000000000001600148602d87e2c03969d4a1439aea7b3c0770172c66e0340e5db30796d7943dbd6a229e69c1e8f4c504f5ccac0c4be1ce581ad08914b30f767be92d63d8e9af0f50ba86044905984a821d0dde0a78602fc188e31a41aef87fd0c0120a3fd2e35b9570535ea3b5b00c0368f8441c7d8ccdb92574858e0f8ed4f2de5b7ac0063036f726401011e6170706c69636174696f6e2f6a736f6e3b636861727365743d7574662d38004cbf7b2270223a22706f772d3230222c226f70223a226d696e74222c227469636b223a2250455045222c22616d74223a2231303030222c22736f6c7574696f6e223a22504550453a6263317173637064736c337671777466366a733538786832307637717775716839336e777737783763793a303030303030303030303030303030303030303139393431613561653132383937363539383134343239323533333030353762306461393666336465613163353a3433393533333934303830227d6821c1962df30d9be27fcd73fd9a4053b3728334e273f9929aba028483b2e81007566700000000"
}