{
  "txid": "88d1d95cc355a06b94ad6db1a8c31ebca7ea5badaf9a00648bfd3ffb622f9f83",
  "version": 2,
  "locktime": 0,
  "vin": [
    {
      "txid": "e4abcd7505c094f0b1f92eabda32d3fc358a450c19767e3d52071e80cb614bdc",
      "vout": 0,
      "prevout": {
        "scriptpubkey": "0014271fa742d55c0622f3577c29d115243dadb00795",
        "scriptpubkey_asm": "OP_0 OP_PUSHBYTES_20 271fa742d55c0622f3577c29d115243dadb00795",
        "scriptpubkey_type": "v0_p2wpkh",
        "scriptpubkey_address": "bc1qyu06wsk4tsrz9u6h0s5az9fy8kkmqpu4x74ql6",
        "value": 62400
      },
      "scriptsig": "",
      "scriptsig_asm": "",
      "witness": [
        "30440220132f6b463f663a40f5ee9b6d35acce507c68c762df35576e7c3ecfcf4cc3610902207aa8126f897ff8f991d985a26fede5a9c0c2653d6d69caa615f2f0929fea393301",
        "02758cbbec53e20a891ac20d0b9a1ef022bea39a283ceed8d9e1fe8bafe3a57ea1"
      ],
      "is_coinbase": false,
      "sequence": 0
    }
  ],
  "vout": [
    {
      "scriptpubkey": "00142a630b451d18a5a1f3ec6c2d8c9369106989c997",
      "scriptpubkey_asm": "OP_0 OP_PUSHBYTES_20 2a630b451d18a5a1f3ec6c2d8c9369106989c997",
      "scriptpubkey_type": "v0_p2wpkh",
      "scriptpubkey_address": "bc1q9f3sk3garzj6rulvdskceymfzp5cnjvhay493d",
      "value": 44556
    },
    {
      "scriptpubkey": "0014113f11730ef5dfd03e532094e750ccf9a4873278",
      "scriptpubkey_asm": "OP_0 OP_PUSHBYTES_20 113f11730ef5dfd03e532094e750ccf9a4873278",
      "scriptpubkey_type": "v0_p2wpkh",
      "scriptpubkey_address": "bc1qzyl3zucw7h0aq0jnyz2ww5xvlxjgwvnc97h3sn",
      "value": 16309
    }
  ],
  "size": 222,
  "weight": 561,
  "fee": 1535,
  "status": {
    "confirmed": true,
    "block_height": 834464,
    "block_hash": "0000000000000000000177a0869a911a2b65c9bdcd5a8bcb02b68f305bee848e",
    "block_time": 1710308296
  },
  "hex": "02000000000101dc4b61cb801e07523d7e76190c458a35fcd332daab2ef9b1f094c00575cdabe4000000000000000000020cae0000000000001600142a630b451d18a5a1f3ec6c2d8c9369106989c997b53f000000000000160014113f11730ef5dfd03e532094e750ccf9a4873278024730440220132f6b463f663a40f5ee9b6d35acce507c68c762df35576e7c3ecfcf4cc3610902207aa8126f897ff8f991d985a26fede5a9c0c2653d6d69caa615f2f0929fea3933012102758cbbec53e20a891ac20d0b9a1ef022bea39a283ceed8d9e1fe8bafe3a57ea100000000"
}