{
  "txid": "88d8be2a4a31a7912d67db02fe61abf8cf800d7a01837f9b9c8836baeda2119b",
  "version": 2,
  "locktime": 0,
  "vin": [
    {
      "txid": "3374507309ed2cbacba60ec48f56b9fc9bf157d39725d240ba97af84bf79df8e",
      "vout": 1,
      "prevout": {
        "scriptpubkey": "5120366e07389b96c0e2f1cbbfd60b2663f5ec5cf278e019171f06c62c54a819b48f",
        "scriptpubkey_asm": "OP_PUSHNUM_1 OP_PUSHBYTES_32 366e07389b96c0e2f1cbbfd60b2663f5ec5cf278e019171f06c62c54a819b48f",
        "scriptpubkey_type": "v1_p2tr",
        "scriptpubkey_address": "bc1pxehqwwymjmqw9uwthltqkfnr7hk9euncuqv3w8cxcck9f2qekj8s5jd9z2",
        "value": 30425
      },
      "scriptsig": "",
      "scriptsig_asm": "",
      "witness": [
        "cb73bbdd5e3d94857891c141cb8b736c34f98149116801237205701adcf7a035e0fe0ddb1c9dcb450e7b31572dd75d41539c4365402be954df42d2a677e6fe20"
      ],
      "is_coinbase": false,
      "sequence": 4294967295
    }
  ],
  "vout": [
    {
      "scriptpubkey": "5120df2e085dcc4d6c2afe4f7d2476f818a578d1a39e4bcf9deea6ebfc6efabccfc0",
      "scriptpubkey_asm": "OP_PUSHNUM_1 OP_PUSHBYTES_32 df2e085dcc4d6c2afe4f7d2476f818a578d1a39e4bcf9deea6ebfc6efabccfc0",
      "scriptpubkey_type": "v1_p2tr",
      "scriptpubkey_address": "bc1pmuhqshwvf4kz4lj005j8d7qc54udrgu7f08emm4xa07xa74uelqq7tlj9p",
      "value": 11790
    },
    {
      "scriptpubkey": "5120366e07389b96c0e2f1cbbfd60b2663f5ec5cf278e019171f06c62c54a819b48f",
      "scriptpubkey_asm": "OP_PUSHNUM_1 OP_PUSHBYTES_32 366e07389b96c0e2f1cbbfd60b2663f5ec5cf278e019171f06c62c54a819b48f",
      "scriptpubkey_type": "v1_p2tr",
      "scriptpubkey_address": "bc1pxehqwwymjmqw9uwthltqkfnr7hk9euncuqv3w8cxcck9f2qekj8s5jd9z2",
      "value": 16325
    }
  ],
  "size": 205,
  "weight": 616,
  "fee": 2310,
  "status": {
    "confirmed": true,
    "block_height": 834638,
    "block_hash": "000000000000000000025f742c626208ac87e0b7d15054abb4a19ca2d735a54e",
    "block_time": 1710405325
  },
  "hex": "020000000001018edf79bf84af97ba40d22597d357f19bfcb9568fc40ea6cbba2ced09735074330100000000ffffffff020e2e000000000000225120df2e085dcc4d6c2afe4f7d2476f818a578d1a39e4bcf9deea6ebfc6efabccfc0c53f000000000000225120366e07389b96c0e2f1cbbfd60b2663f5ec5cf278e019171f06c62c54a819b48f0140cb73bbdd5e3d94857891c141cb8b736c34f98149116801237205701adcf7a035e0fe0ddb1c9dcb450e7b31572dd75d41539c4365402be954df42d2a677e6fe2000000000"
}