{
  "txid": "89023584833268c72ef5dd1ef665bbd1e8a0cf69ad02d129ab7b167410ca3d99",
  "version": 2,
  "locktime": 0,
  "vin": [
    {
      "txid": "67599d7ef119a94ca9d8e04874a7d9dddcfe22abbdec174535471b685c1d1170",
      "vout": 0,
      "prevout": {
        "scriptpubkey": "5120ea0bedb1eadaeb7b5e310d7befdadfb5b592cec03cfa82aa27d8e3d35d0246dd",
        "scriptpubkey_asm": "OP_PUSHNUM_1 OP_PUSHBYTES_32 ea0bedb1eadaeb7b5e310d7befdadfb5b592cec03cfa82aa27d8e3d35d0246dd",
        "scriptpubkey_type": "v1_p2tr",
        "scriptpubkey_address": "bc1pag97mv02mt4hkh33p4a7lkklkk6e9nkq8nag9238mr3axhgzgmwsmkd2yh",
        "value": 330
      },
      "scriptsig": "",
      "scriptsig_asm": "",
      "witness": [
        "403d18c0cdf84d8ff93792844d6aa7ce105f994ae163817dbea3b3c7a2689a012402b6d8cee08474d09d9d553a9ad126d85785bede951332fd343fc9a7117e83"
      ],
      "is_coinbase": false,
      "sequence": 4294967295
    },
    {
      "txid": "8749f80ffdcb60630f9c8ee5da26565e0978af401c4447f93242d3918e45e83c",
      "vout": 1,
      "prevout": {
        "scriptpubkey": "5120ea0bedb1eadaeb7b5e310d7befdadfb5b592cec03cfa82aa27d8e3d35d0246dd",
        "scriptpubkey_asm": "OP_PUSHNUM_1 OP_PUSHBYTES_32 ea0bedb1eadaeb7b5e310d7befdadfb5b592cec03cfa82aa27d8e3d35d0246dd",
        "scriptpubkey_type": "v1_p2tr",
        "scriptpubkey_address": "bc1pag97mv02mt4hkh33p4a7lkklkk6e9nkq8nag9238mr3axhgzgmwsmkd2yh",
        "value": 955674
      },
      "scriptsig": "",
      "scriptsig_asm": "",
      "witness": [
        "c0d6485f24d425e51bd71bbc3cd9853b14777c649860a96e2ef6d98a23afa6b9016426528cac63d16053fba85849d70a60aebc2a17b0c6e28f477abb74ddf52c"
      ],
      "is_coinbase": false,
      "sequence": 4294967295
    }
  ],
  "vout": [
    {
      "scriptpubkey": "5120679bed2a5d4969a7b72ad2e5389579052cc65c18766d81b0b955b71c1993cf5f",
      "scriptpubkey_asm": "OP_PUSHNUM_1 OP_PUSHBYTES_32 679bed2a5d4969a7b72ad2e5389579052cc65c18766d81b0b955b71c1993cf5f",
      "scriptpubkey_type": "v1_p2tr",
      "scriptpubkey_address": "bc1pv7d762jaf9560de26tjn39teq5kvvhqcwekcrv9e2km3cxvnea0ss97w8c",
      "value": 330
    },
    {
      "scriptpubkey": "5120ea0bedb1eadaeb7b5e310d7befdadfb5b592cec03cfa82aa27d8e3d35d0246dd",
      "scriptpubkey_asm": "OP_PUSHNUM_1 OP_PUSHBYTES_32 ea0bedb1eadaeb7b5e310d7befdadfb5b592cec03cfa82aa27d8e3d35d0246dd",
      "scriptpubkey_type": "v1_p2tr",
      "scriptpubkey_address": "bc1pag97mv02mt4hkh33p4a7lkklkk6e9nkq8nag9238mr3axhgzgmwsmkd2yh",
      "value": 953130
    }
  ],
  "size": 312,
  "weight": 846,
  "fee": 2544,
  "status": {
    "confirmed": true,
    "block_height": 834460,
    "block_hash": "00000000000000000000484a79b643b2524bbce82e5d8a442013fa5b8905ed98",
    "block_time": 1710307468
  },
  "hex": "0200000000010270111d5c681b47354517ecbdab22fedcddd9a77448e0d8a94ca919f17e9d59670000000000ffffffff3ce8458e91d34232f947441c40af78095e5626dae58e9c0f6360cbfd0ff849870100000000ffffffff024a01000000000000225120679bed2a5d4969a7b72ad2e5389579052cc65c18766d81b0b955b71c1993cf5f2a8b0e0000000000225120ea0bedb1eadaeb7b5e310d7befdadfb5b592cec03cfa82aa27d8e3d35d0246dd0140403d18c0cdf84d8ff93792844d6aa7ce105f994ae163817dbea3b3c7a2689a012402b6d8cee08474d09d9d553a9ad126d85785bede951332fd343fc9a7117e830140c0d6485f24d425e51bd71bbc3cd9853b14777c649860a96e2ef6d98a23afa6b9016426528cac63d16053fba85849d70a60aebc2a17b0c6e28f477abb74ddf52c00000000"
}