{
  "txid": "891a4afcc573b65af4e3b33bbc39c17e498a2963ebba329844c37ca6d5f28e57",
  "version": 2,
  "locktime": 0,
  "vin": [
    {
      "txid": "4b6365e3abb9afb26d178170b721cc4189547a86e002004eb0d799bb3bcb81ea",
      "vout": 0,
      "prevout": {
        "scriptpubkey": "5120ad2f454063c07edc0f20890ac09e93c284f3adf33ab068d2de3fb64d82478d37",
        "scriptpubkey_asm": "OP_PUSHNUM_1 OP_PUSHBYTES_32 ad2f454063c07edc0f20890ac09e93c284f3adf33ab068d2de3fb64d82478d37",
        "scriptpubkey_type": "v1_p2tr",
        "scriptpubkey_address": "bc1p45h52srrcpldcreq3y9vp85nc2z08t0n82cx35k787mymqj835mskywupp",
        "value": 546
      },
      "scriptsig": "",
      "scriptsig_asm": "",
      "witness": [
        "ed57c76321df77c40f241603cfd9bbf1780c4140e22c01ef796b15ad3c0589e0da60abd60619b9a46c1f9b89e8467d0f57b06033f09a52714b05ff012f66096f"
      ],
      "is_coinbase": false,
      "sequence": 2147483649
    },
    {
      "txid": "a127da85f9c1fe4f279476cd323e49399c0ae8e8e3a380cb5ae90d124b980bf2",
      "vout": 1,
      "prevout": {
        "scriptpubkey": "5120ad2f454063c07edc0f20890ac09e93c284f3adf33ab068d2de3fb64d82478d37",
        "scriptpubkey_asm": "OP_PUSHNUM_1 OP_PUSHBYTES_32 ad2f454063c07edc0f20890ac09e93c284f3adf33ab068d2de3fb64d82478d37",
        "scriptpubkey_type": "v1_p2tr",
        "scriptpubkey_address": "bc1p45h52srrcpldcreq3y9vp85nc2z08t0n82cx35k787mymqj835mskywupp",
        "value": 264438
      },
      "scriptsig": "",
      "scriptsig_asm": "",
      "witness": [
        "435b1fe8d9e38313f5c0911bf690e0875a686ce2a7d43db9e6fe912a38a3159e4dca6b28e624a26684566453ed9bf5015906504ab3871b07e4124027b8a00bdc"
      ],
      "is_coinbase": false,
      "sequence": 2147483649
    }
  ],
  "vout": [
    {
      "scriptpubkey": "512083bdf4de8794f9fd0257fd476d154332e991c9ad5352058d7c97b4b53a709af2",
      "scriptpubkey_asm": "OP_PUSHNUM_1 OP_PUSHBYTES_32 83bdf4de8794f9fd0257fd476d154332e991c9ad5352058d7c97b4b53a709af2",
      "scriptpubkey_type": "v1_p2tr",
      "scriptpubkey_address": "bc1psw7lfh58jnul6qjhl4rk692rxt5erjdd2dfqtrtuj76t2wnsnteqy2nu4g",
      "value": 546
    },
    {
      "scriptpubkey": "5120ad2f454063c07edc0f20890ac09e93c284f3adf33ab068d2de3fb64d82478d37",
      "scriptpubkey_asm": "OP_PUSHNUM_1 OP_PUSHBYTES_32 ad2f454063c07edc0f20890ac09e93c284f3adf33ab068d2de3fb64d82478d37",
      "scriptpubkey_type": "v1_p2tr",
      "scriptpubkey_address": "bc1p45h52srrcpldcreq3y9vp85nc2z08t0n82cx35k787mymqj835mskywupp",
      "value": 261062
    }
  ],
  "size": 312,
  "weight": 846,
  "fee": 3376,
  "status": {
    "confirmed": true,
    "block_height": 834638,
    "block_hash": "000000000000000000025f742c626208ac87e0b7d15054abb4a19ca2d735a54e",
    "block_time": 1710405325
  },
  "hex": "02000000000102ea81cb3bbb99d7b04e0002e0867a548941cc21b77081176db2afb9abe365634b000000000001000080f20b984b120de95acb80a3e3e8e80a9c39493e32cd7694274ffec1f985da27a101000000000100008002220200000000000022512083bdf4de8794f9fd0257fd476d154332e991c9ad5352058d7c97b4b53a709af2c6fb030000000000225120ad2f454063c07edc0f20890ac09e93c284f3adf33ab068d2de3fb64d82478d370140ed57c76321df77c40f241603cfd9bbf1780c4140e22c01ef796b15ad3c0589e0da60abd60619b9a46c1f9b89e8467d0f57b06033f09a52714b05ff012f66096f0140435b1fe8d9e38313f5c0911bf690e0875a686ce2a7d43db9e6fe912a38a3159e4dca6b28e624a26684566453ed9bf5015906504ab3871b07e4124027b8a00bdc00000000"
}