{
  "txid": "89207ea8dce53ae6c135327149228e42ae1ad6c4ab3738833c98a1489b86b924",
  "version": 2,
  "locktime": 0,
  "vin": [
    {
      "txid": "2264280ceb96bd4e8d1917c0bc1f1e5e5b310c11af10b6fe3f02e5b53b389306",
      "vout": 25,
      "prevout": {
        "scriptpubkey": "0014163acb20d81db3179aa7b9a187908b5a205ced1d",
        "scriptpubkey_asm": "OP_0 OP_PUSHBYTES_20 163acb20d81db3179aa7b9a187908b5a205ced1d",
        "scriptpubkey_type": "v0_p2wpkh",
        "scriptpubkey_address": "bc1qzcavkgxcrke30x48hxsc0yyttgs9emgagm3uzh",
        "value": 104000
      },
      "scriptsig": "",
      "scriptsig_asm": "",
      "witness": [
        "304502210090c9b5e0a1d3b0be149f531b3169abb5f48cccc708cb1df831470dcc27fa0dbb022054942752069873e6eb30ceca7b6b41215a627cc4122ba5bb1550c75d5f8e1bf201",
        "0344b7687f4fcb651c6f297b93eeb37a95f581557e5103d469f35a32589883def1"
      ],
      "is_coinbase": false,
      "sequence": 4294967295
    },
    {
      "txid": "57d0e8d0aa8626bd79db1b0b5b0a485e7e57234c62c8c3aea2d0da0fee9885a5",
      "vout": 30,
      "prevout": {
        "scriptpubkey": "0014163acb20d81db3179aa7b9a187908b5a205ced1d",
        "scriptpubkey_asm": "OP_0 OP_PUSHBYTES_20 163acb20d81db3179aa7b9a187908b5a205ced1d",
        "scriptpubkey_type": "v0_p2wpkh",
        "scriptpubkey_address": "bc1qzcavkgxcrke30x48hxsc0yyttgs9emgagm3uzh",
        "value": 21000
      },
      "scriptsig": "",
      "scriptsig_asm": "",
      "witness": [
        "30440220762fd29808be788d635e41020a275f0dc583e21fd7ea6aab0c12cf4413a3fa2502202ed7429a21212e65ea3aa0e1b0e04744829dd2f5f0392db39171f74398059c9e01",
        "0344b7687f4fcb651c6f297b93eeb37a95f581557e5103d469f35a32589883def1"
      ],
      "is_coinbase": false,
      "sequence": 4294967295
    },
    {
      "txid": "5e73c831147f8661de209f93618a8886c328e0116452297419e4e9347c3a0ec2",
      "vout": 1,
      "prevout": {
        "scriptpubkey": "0014163acb20d81db3179aa7b9a187908b5a205ced1d",
        "scriptpubkey_asm": "OP_0 OP_PUSHBYTES_20 163acb20d81db3179aa7b9a187908b5a205ced1d",
        "scriptpubkey_type": "v0_p2wpkh",
        "scriptpubkey_address": "bc1qzcavkgxcrke30x48hxsc0yyttgs9emgagm3uzh",
        "value": 20576
      },
      "scriptsig": "",
      "scriptsig_asm": "",
      "witness": [
        "304402206b214e2127b63e69c82af3b0135a76256f24ebd1489360aaa37b79314260d45a022039bf359fcf916b8a7263f80b223a5fcf09baae399925a29af0d7ecca3ff74a2b01",
        "0344b7687f4fcb651c6f297b93eeb37a95f581557e5103d469f35a32589883def1"
      ],
      "is_coinbase": false,
      "sequence": 4294967295
    }
  ],
  "vout": [
    {
      "scriptpubkey": "76a914c82371dd309726da263f2cd26e7f0440c5bfac8c88ac",
      "scriptpubkey_asm": "OP_DUP OP_HASH160 OP_PUSHBYTES_20 c82371dd309726da263f2cd26e7f0440c5bfac8c OP_EQUALVERIFY OP_CHECKSIG",
      "scriptpubkey_type": "p2pkh",
      "scriptpubkey_address": "1KFEc7Y1XPH7CudGBwuhBYYockMn6KQgC6",
      "value": 125000
    },
    {
      "scriptpubkey": "0014163acb20d81db3179aa7b9a187908b5a205ced1d",
      "scriptpubkey_asm": "OP_0 OP_PUSHBYTES_20 163acb20d81db3179aa7b9a187908b5a205ced1d",
      "scriptpubkey_type": "v0_p2wpkh",
      "scriptpubkey_address": "bc1qzcavkgxcrke30x48hxsc0yyttgs9emgagm3uzh",
      "value": 17510
    }
  ],
  "size": 522,
  "weight": 1116,
  "fee": 3066,
  "status": {
    "confirmed": true,
    "block_height": 834464,
    "block_hash": "0000000000000000000177a0869a911a2b65c9bdcd5a8bcb02b68f305bee848e",
    "block_time": 1710308296
  },
  "hex": "020000000001030693383bb5e5023ffeb610af110c315b5e1e1fbcc017198d4ebd96eb0c2864221900000000ffffffffa58598ee0fdad0a2aec3c8624c23577e5e480a5b0b1bdb79bd2686aad0e8d0571e00000000ffffffffc20e3a7c34e9e4197429526411e028c386888a61939f20de61867f1431c8735e0100000000ffffffff0248e80100000000001976a914c82371dd309726da263f2cd26e7f0440c5bfac8c88ac6644000000000000160014163acb20d81db3179aa7b9a187908b5a205ced1d0248304502210090c9b5e0a1d3b0be149f531b3169abb5f48cccc708cb1df831470dcc27fa0dbb022054942752069873e6eb30ceca7b6b41215a627cc4122ba5bb1550c75d5f8e1bf201210344b7687f4fcb651c6f297b93eeb37a95f581557e5103d469f35a32589883def1024730440220762fd29808be788d635e41020a275f0dc583e21fd7ea6aab0c12cf4413a3fa2502202ed7429a21212e65ea3aa0e1b0e04744829dd2f5f0392db39171f74398059c9e01210344b7687f4fcb651c6f297b93eeb37a95f581557e5103d469f35a32589883def10247304402206b214e2127b63e69c82af3b0135a76256f24ebd1489360aaa37b79314260d45a022039bf359fcf916b8a7263f80b223a5fcf09baae399925a29af0d7ecca3ff74a2b01210344b7687f4fcb651c6f297b93eeb37a95f581557e5103d469f35a32589883def100000000"
}