{
  "txid": "892ac99de9efffb8790ee35510fcc34f87980d445eb4ac1cddd42dc01f93effa",
  "version": 1,
  "locktime": 0,
  "vin": [
    {
      "txid": "7e26c99ef652466d886282a79d45cdadc4ea86a9281e778ac104a9fe9ad6971a",
      "vout": 1,
      "prevout": {
        "scriptpubkey": "0014b37730494e222b70640a34b48135de7be3839b67",
        "scriptpubkey_asm": "OP_0 OP_PUSHBYTES_20 b37730494e222b70640a34b48135de7be3839b67",
        "scriptpubkey_type": "v0_p2wpkh",
        "scriptpubkey_address": "bc1qkdmnqj2wyg4hqeq2xj6gzdw7003c8xm8tf0h8d",
        "value": 527397620
      },
      "scriptsig": "",
      "scriptsig_asm": "",
      "witness": [
        "3044022008c179ce839c2c1208e156f2d4a810e0a92378ba5ef466e9cb3aa058ab015e2202203b690f975c7061b5086c64e71615163698f70e3a2a63cc8a78b2d0b4b7c406c501",
        "03bd9758ec2cd5ad89bff2d2f2595462028b43869e4fb3bfd68298639c4d06cd15"
      ],
      "is_coinbase": false,
      "sequence": 4294967295
    },
    {
      "txid": "6f27338a30abe4dd888d4df232014612ba94900e9795715a2eb989e1216a9af5",
      "vout": 1,
      "prevout": {
        "scriptpubkey": "0014b37730494e222b70640a34b48135de7be3839b67",
        "scriptpubkey_asm": "OP_0 OP_PUSHBYTES_20 b37730494e222b70640a34b48135de7be3839b67",
        "scriptpubkey_type": "v0_p2wpkh",
        "scriptpubkey_address": "bc1qkdmnqj2wyg4hqeq2xj6gzdw7003c8xm8tf0h8d",
        "value": 1089996270
      },
      "scriptsig": "",
      "scriptsig_asm": "",
      "witness": [
        "3045022100c65d300a9fbe21a9e273e9fd1e09f9700ae46ad8c7e3f79f6e6e01c8457b285b0220737dfd6619491398c7be98d06bc0cff664edf2aef38c3fea24e2f5d44769eae901",
        "03bd9758ec2cd5ad89bff2d2f2595462028b43869e4fb3bfd68298639c4d06cd15"
      ],
      "is_coinbase": false,
      "sequence": 4294967295
    }
  ],
  "vout": [
    {
      "scriptpubkey": "00149ee8a0e559ad1d92f0aa1bd077fdc9420a4f3c06",
      "scriptpubkey_asm": "OP_0 OP_PUSHBYTES_20 9ee8a0e559ad1d92f0aa1bd077fdc9420a4f3c06",
      "scriptpubkey_type": "v0_p2wpkh",
      "scriptpubkey_address": "bc1qnm52pe2e45we9u92r0g80lwfgg9y70qxq87sux",
      "value": 1000000000
    },
    {
      "scriptpubkey": "0014b37730494e222b70640a34b48135de7be3839b67",
      "scriptpubkey_asm": "OP_0 OP_PUSHBYTES_20 b37730494e222b70640a34b48135de7be3839b67",
      "scriptpubkey_type": "v0_p2wpkh",
      "scriptpubkey_address": "bc1qkdmnqj2wyg4hqeq2xj6gzdw7003c8xm8tf0h8d",
      "value": 617390379
    }
  ],
  "size": 371,
  "weight": 833,
  "fee": 3511,
  "status": {
    "confirmed": true,
    "block_height": 834638,
    "block_hash": "000000000000000000025f742c626208ac87e0b7d15054abb4a19ca2d735a54e",
    "block_time": 1710405325
  },
  "hex": "010000000001021a97d69afea904c18a771e28a986eac4adcd459da78262886d4652f69ec9267e0100000000fffffffff59a6a21e189b92e5a7195970e9094ba12460132f24d8d88dde4ab308a33276f0100000000ffffffff0200ca9a3b000000001600149ee8a0e559ad1d92f0aa1bd077fdc9420a4f3c062ba1cc2400000000160014b37730494e222b70640a34b48135de7be3839b6702473044022008c179ce839c2c1208e156f2d4a810e0a92378ba5ef466e9cb3aa058ab015e2202203b690f975c7061b5086c64e71615163698f70e3a2a63cc8a78b2d0b4b7c406c5012103bd9758ec2cd5ad89bff2d2f2595462028b43869e4fb3bfd68298639c4d06cd1502483045022100c65d300a9fbe21a9e273e9fd1e09f9700ae46ad8c7e3f79f6e6e01c8457b285b0220737dfd6619491398c7be98d06bc0cff664edf2aef38c3fea24e2f5d44769eae9012103bd9758ec2cd5ad89bff2d2f2595462028b43869e4fb3bfd68298639c4d06cd1500000000"
}