{
  "txid": "892f45f0d6b31d4dd4117e426cbd6fece1870b38dd8732dc47310249861df253",
  "version": 1,
  "locktime": 0,
  "vin": [
    {
      "txid": "ec178b2c87611812176880f609680046afd23a5ad28546240dd1cea728a8e7b4",
      "vout": 29,
      "prevout": {
        "scriptpubkey": "0014c2df88d978c16d8284d7e5e4b178551047805a87",
        "scriptpubkey_asm": "OP_0 OP_PUSHBYTES_20 c2df88d978c16d8284d7e5e4b178551047805a87",
        "scriptpubkey_type": "v0_p2wpkh",
        "scriptpubkey_address": "bc1qct0c3ktcc9kc9pxhuhjtz7z4zprcqk584vme5v",
        "value": 70329
      },
      "scriptsig": "",
      "scriptsig_asm": "",
      "witness": [
        "304502210090fedf39bcbfee49626f9e493a70b8c51b0fb09ee388e9b6038a365c42b6c780022073c7edba9302ece93616a1ebbbcbb884a0ed66d53d30f95a5486fb6ba902c6db01",
        "02e858d8e373e1578687055155539b072e55f1bdbf2214edc6e9f424ebcfb9d42c"
      ],
      "is_coinbase": false,
      "sequence": 4294967293
    },
    {
      "txid": "e2b7fb779e5508a2ac63ebb4ebab8d98e4f3427b5291c88d9b701bb3a5b75da1",
      "vout": 19,
      "prevout": {
        "scriptpubkey": "0014769122d23f7b48dc9c3fde390e1adab75b241e00",
        "scriptpubkey_asm": "OP_0 OP_PUSHBYTES_20 769122d23f7b48dc9c3fde390e1adab75b241e00",
        "scriptpubkey_type": "v0_p2wpkh",
        "scriptpubkey_address": "bc1qw6gj953l0dyde8plmcusuxk6kadjg8sqmrnkms",
        "value": 70317
      },
      "scriptsig": "",
      "scriptsig_asm": "",
      "witness": [
        "3045022100b50e5fa39d6059f0d4a23ecd641dfc7d2ef57d68ac47e69854dbb85a45af6f250220485000fe4aad98b808411c84a226247bb5fcd51c2369c2b521baff837ac7631f01",
        "03f8762bac1ee066a55817e6a32146703b41112fe7632e19a26125c99c1c5d5cbb"
      ],
      "is_coinbase": false,
      "sequence": 4294967293
    },
    {
      "txid": "6a3ae8525afd51efac11e0c08abe54fd51bc628a92eb109b7646534aca8be45d",
      "vout": 47,
      "prevout": {
        "scriptpubkey": "001434e7d0150fd1aa996a9076d78da1c47b6342b359",
        "scriptpubkey_asm": "OP_0 OP_PUSHBYTES_20 34e7d0150fd1aa996a9076d78da1c47b6342b359",
        "scriptpubkey_type": "v0_p2wpkh",
        "scriptpubkey_address": "bc1qxnnaq9g06x4fj65swmtcmgwy0d359v6eu5uk7g",
        "value": 70312
      },
      "scriptsig": "",
      "scriptsig_asm": "",
      "witness": [
        "3044022026ccee76b06fd683cf3727c30bdf005ece8b740fc9c614fee59bbf48372144e30220124bbac07b64b93bf89f21c1b383d3acb920f5fb0ab133c685d7492d4c56878601",
        "02c3bc5e656bf39ce4eb1aabb5f6dc2b047a1b88f9de6c9b2a8ddc72402db4e6f9"
      ],
      "is_coinbase": false,
      "sequence": 4294967293
    },
    {
      "txid": "72a2b0634acf6c47fcb924fff909bc69b285f007cdac8d0b3e847622de0b40b8",
      "vout": 109,
      "prevout": {
        "scriptpubkey": "0014ea09cc449503e869c105a9bc4f2566e6e4004f96",
        "scriptpubkey_asm": "OP_0 OP_PUSHBYTES_20 ea09cc449503e869c105a9bc4f2566e6e4004f96",
        "scriptpubkey_type": "v0_p2wpkh",
        "scriptpubkey_address": "bc1qagyuc3y4q05xnsg94x7y7ftxumjqqnuks82kj3",
        "value": 70310
      },
      "scriptsig": "",
      "scriptsig_asm": "",
      "witness": [
        "3044022008afd9ab67685e33626dc90f3bdab7caf4e5978aaefc8f88972cb5dae60565fb022044e9021fcee18dd1bca3aa41549547beb3825f605b5c8313fac91e50f9c17b2b01",
        "03e744a83103edd480898e076ade158e6cda7903d2f24feced6269535647032df0"
      ],
      "is_coinbase": false,
      "sequence": 4294967293
    },
    {
      "txid": "9373d82e811976599ae11318028dc347fabd06a6c614a3e96f9755ecfbbd657d",
      "vout": 94,
      "prevout": {
        "scriptpubkey": "0014c8ad98216da22b0a4473b68d2528583a260a27a1",
        "scriptpubkey_asm": "OP_0 OP_PUSHBYTES_20 c8ad98216da22b0a4473b68d2528583a260a27a1",
        "scriptpubkey_type": "v0_p2wpkh",
        "scriptpubkey_address": "bc1qezkesgtd5g4s53rnk6xj22zc8gnq5faphk60mk",
        "value": 70309
      },
      "scriptsig": "",
      "scriptsig_asm": "",
      "witness": [
        "304402205fe151d33d8e34f8dbcb132912d8db0e81ce14c999054a9e4423deaf81b10d430220485c5fdf49bba6033f1e9a3fb4b092038e1a5533f28c558885baf86dd4e111a701",
        "03c2f10709a7408bb8afbe0a81f400d3fdffe564e03cf99b443085c1d0ee09bc00"
      ],
      "is_coinbase": false,
      "sequence": 4294967293
    },
    {
      "txid": "6a3c9df5015bb693c22a315b5856d2fe573238dab36edbff738ae9ce57507939",
      "vout": 93,
      "prevout": {
        "scriptpubkey": "0014a86201c1453878a1e6dd9248db85bca9d6ba2aeb",
        "scriptpubkey_asm": "OP_0 OP_PUSHBYTES_20 a86201c1453878a1e6dd9248db85bca9d6ba2aeb",
        "scriptpubkey_type": "v0_p2wpkh",
        "scriptpubkey_address": "bc1q4p3qrs298pu2rekajfydhpdu48tt52htytsyty",
        "value": 70301
      },
      "scriptsig": "",
      "scriptsig_asm": "",
      "witness": [
        "3045022100af729bf4b302c310dc0350acba0cc1219e107544f63ab1f709ae23c015fa259702201f8ac4a5de9d6a2b2414bbad8e7b07c5c057d72d064e88f3c3ef9ff30e80f65101",
        "029e48f2b1e036f3662c67bfd47f49b682936de1c66cf2a2a47143158eb52b2794"
      ],
      "is_coinbase": false,
      "sequence": 4294967293
    }
  ],
  "vout": [
    {
      "scriptpubkey": "001410b810679b272437ca7b40b2603497f1acf78b44",
      "scriptpubkey_asm": "OP_0 OP_PUSHBYTES_20 10b810679b272437ca7b40b2603497f1acf78b44",
      "scriptpubkey_type": "v0_p2wpkh",
      "scriptpubkey_address": "bc1qzzupqeumyujr0jnmgzexqdyh7xk00z6yqn3zjh",
      "value": 408318
    }
  ],
  "size": 934,
  "weight": 1795,
  "fee": 13560,
  "status": {
    "confirmed": true,
    "block_height": 834638,
    "block_hash": "000000000000000000025f742c626208ac87e0b7d15054abb4a19ca2d735a54e",
    "block_time": 1710405325
  },
  "hex": "01000000000106b4e7a828a7ced10d244685d25a3ad2af46006809f6806817121861872c8b17ec1d00000000fdffffffa15db7a5b31b709b8dc891527b42f3e4988dabebb4eb63aca208559e77fbb7e21300000000fdffffff5de48bca4a5346769b10eb928a62bc51fd54be8ac0e011acef51fd5a52e83a6a2f00000000fdffffffb8400bde2276843e0b8daccd07f085b269bc09f9ff24b9fc476ccf4a63b0a2726d00000000fdffffff7d65bdfbec55976fe9a314c6a606bdfa47c38d021813e19a597619812ed873935e00000000fdffffff39795057cee98a73ffdb6eb3da383257fed256585b312ac293b65b01f59d3c6a5d00000000fdffffff01fe3a06000000000016001410b810679b272437ca7b40b2603497f1acf78b440248304502210090fedf39bcbfee49626f9e493a70b8c51b0fb09ee388e9b6038a365c42b6c780022073c7edba9302ece93616a1ebbbcbb884a0ed66d53d30f95a5486fb6ba902c6db012102e858d8e373e1578687055155539b072e55f1bdbf2214edc6e9f424ebcfb9d42c02483045022100b50e5fa39d6059f0d4a23ecd641dfc7d2ef57d68ac47e69854dbb85a45af6f250220485000fe4aad98b808411c84a226247bb5fcd51c2369c2b521baff837ac7631f012103f8762bac1ee066a55817e6a32146703b41112fe7632e19a26125c99c1c5d5cbb02473044022026ccee76b06fd683cf3727c30bdf005ece8b740fc9c614fee59bbf48372144e30220124bbac07b64b93bf89f21c1b383d3acb920f5fb0ab133c685d7492d4c568786012102c3bc5e656bf39ce4eb1aabb5f6dc2b047a1b88f9de6c9b2a8ddc72402db4e6f902473044022008afd9ab67685e33626dc90f3bdab7caf4e5978aaefc8f88972cb5dae60565fb022044e9021fcee18dd1bca3aa41549547beb3825f605b5c8313fac91e50f9c17b2b012103e744a83103edd480898e076ade158e6cda7903d2f24feced6269535647032df00247304402205fe151d33d8e34f8dbcb132912d8db0e81ce14c999054a9e4423deaf81b10d430220485c5fdf49bba6033f1e9a3fb4b092038e1a5533f28c558885baf86dd4e111a7012103c2f10709a7408bb8afbe0a81f400d3fdffe564e03cf99b443085c1d0ee09bc0002483045022100af729bf4b302c310dc0350acba0cc1219e107544f63ab1f709ae23c015fa259702201f8ac4a5de9d6a2b2414bbad8e7b07c5c057d72d064e88f3c3ef9ff30e80f6510121029e48f2b1e036f3662c67bfd47f49b682936de1c66cf2a2a47143158eb52b279400000000"
}