{
  "txid": "89340f47d618eeadebce54ac293b9e0c360b27fdfcb1fc1ecdb3528fee8404c2",
  "version": 1,
  "locktime": 0,
  "vin": [
    {
      "txid": "ac1b653f9cf4a82e6b3580516844fe779f3149cc89a5e7f83cafb3f7d2695cda",
      "vout": 1,
      "prevout": {
        "scriptpubkey": "0014d701b23f193cbc3a35dd3bc84efece4e7604324d",
        "scriptpubkey_asm": "OP_0 OP_PUSHBYTES_20 d701b23f193cbc3a35dd3bc84efece4e7604324d",
        "scriptpubkey_type": "v0_p2wpkh",
        "scriptpubkey_address": "bc1q6uqmy0ce8j7r5dwa80yyalkwfemqgvjdturj2a",
        "value": 371486
      },
      "scriptsig": "",
      "scriptsig_asm": "",
      "witness": [
        "30450221009f71fecccd8305ed2041ffcbd0f0eac82ce33feede0c8edce3f507d9105826b1022067883d24ad10ce2bc9d11d01023f16710e4e7cf601783cea43e2fa2fe52df44c01",
        "02c635b55dca2688975a072bfc19dad758d3aad2e0bdcabb8efd1d13d979be203d"
      ],
      "is_coinbase": false,
      "sequence": 4294967295
    },
    {
      "txid": "0747cd4d9818daaef913f8a911180464d1098f4415db50437610e49b985674a6",
      "vout": 12,
      "prevout": {
        "scriptpubkey": "00143aafc3bc025adef10d97ea2d1dbd1eef6e179d68",
        "scriptpubkey_asm": "OP_0 OP_PUSHBYTES_20 3aafc3bc025adef10d97ea2d1dbd1eef6e179d68",
        "scriptpubkey_type": "v0_p2wpkh",
        "scriptpubkey_address": "bc1q82hu80qztt00zrvhagk3m0g7aahp08tglg5axr",
        "value": 714811
      },
      "scriptsig": "",
      "scriptsig_asm": "",
      "witness": [
        "3045022100d901e11718c4094e39458cdf6fc912e188afab9cf139fe1eb30e674b452728bf02202ba54c02aebcb903334d844bd1530900054e1b9ae13d253d02d8c8ed4bee7e5f01",
        "03768903376695a2288df6c21b56e0ee6f6fc26fe51089ed8ee937e986ea3cf865"
      ],
      "is_coinbase": false,
      "sequence": 4294967295
    },
    {
      "txid": "8ffd47dfa978a3c7eac3721c24dd42841142a7b38e3449a7b553627ddbfa188e",
      "vout": 17,
      "prevout": {
        "scriptpubkey": "0014b722e90ef5ea8f0fd64e6b357ea0093cd6593c9b",
        "scriptpubkey_asm": "OP_0 OP_PUSHBYTES_20 b722e90ef5ea8f0fd64e6b357ea0093cd6593c9b",
        "scriptpubkey_type": "v0_p2wpkh",
        "scriptpubkey_address": "bc1qku3wjrh4a28sl4jwdv6hagqf8nt9j0ymn4qpfx",
        "value": 1106084
      },
      "scriptsig": "",
      "scriptsig_asm": "",
      "witness": [
        "3044022002b4a5df0a3d485b800ece1d27a7920a227de2078f61cb35ede11230f699b06a0220173ab0b6905620ee4839dc340e6f337a2760844ddf13e4fc2e2cbd4f124d3de301",
        "026ce4c9c2f985a4b53e71b775b643f7abbdb1553813c9bd46e574aa4b6aca2ef2"
      ],
      "is_coinbase": false,
      "sequence": 4294967295
    }
  ],
  "vout": [
    {
      "scriptpubkey": "a914308bbc4edfc2cf245074c76ed78b7e44ef6d0ac687",
      "scriptpubkey_asm": "OP_HASH160 OP_PUSHBYTES_20 308bbc4edfc2cf245074c76ed78b7e44ef6d0ac6 OP_EQUAL",
      "scriptpubkey_type": "p2sh",
      "scriptpubkey_address": "367hkkSeWp7rSCjr6q7aTpa4ivE6sGVmeA",
      "value": 2051867
    },
    {
      "scriptpubkey": "001493245a96c69c254373d6a5061162e9d48cb2d25e",
      "scriptpubkey_asm": "OP_0 OP_PUSHBYTES_20 93245a96c69c254373d6a5061162e9d48cb2d25e",
      "scriptpubkey_type": "v0_p2wpkh",
      "scriptpubkey_address": "bc1qjvj949kxnsj5xu7k55rpzchf6jxt95j72ggvlq",
      "value": 135540
    }
  ],
  "size": 521,
  "weight": 1109,
  "fee": 4974,
  "status": {
    "confirmed": true,
    "block_height": 834552,
    "block_hash": "00000000000000000001dd0468a70c94f619251d286585cff57aeb4bd9ede330",
    "block_time": 1710355598
  },
  "hex": "01000000000103da5c69d2f7b3af3cf8e7a589cc49319f77fe44685180356b2ea8f49c3f651bac0100000000ffffffffa67456989be410764350db15448f09d164041811a9f813f9aeda18984dcd47070c00000000ffffffff8e18fadb7d6253b5a749348eb3a742118442dd241c72c3eac7a378a9df47fd8f1100000000ffffffff021b4f1f000000000017a914308bbc4edfc2cf245074c76ed78b7e44ef6d0ac687741102000000000016001493245a96c69c254373d6a5061162e9d48cb2d25e024830450221009f71fecccd8305ed2041ffcbd0f0eac82ce33feede0c8edce3f507d9105826b1022067883d24ad10ce2bc9d11d01023f16710e4e7cf601783cea43e2fa2fe52df44c012102c635b55dca2688975a072bfc19dad758d3aad2e0bdcabb8efd1d13d979be203d02483045022100d901e11718c4094e39458cdf6fc912e188afab9cf139fe1eb30e674b452728bf02202ba54c02aebcb903334d844bd1530900054e1b9ae13d253d02d8c8ed4bee7e5f012103768903376695a2288df6c21b56e0ee6f6fc26fe51089ed8ee937e986ea3cf86502473044022002b4a5df0a3d485b800ece1d27a7920a227de2078f61cb35ede11230f699b06a0220173ab0b6905620ee4839dc340e6f337a2760844ddf13e4fc2e2cbd4f124d3de30121026ce4c9c2f985a4b53e71b775b643f7abbdb1553813c9bd46e574aa4b6aca2ef200000000"
}