{
  "txid": "8936c41426939fe5f07e1b5ea80ed2512cbee0c0c0818c443a5f46e6bd59aac3",
  "version": 1,
  "locktime": 0,
  "vin": [
    {
      "txid": "453fb62c26896049fbdf0b3589e585fe82e634731c1d2c2b0508fb27096a2d2b",
      "vout": 1,
      "prevout": {
        "scriptpubkey": "00141d59c920f20d01613e2e9ee2385562a9f55bfe6a",
        "scriptpubkey_asm": "OP_0 OP_PUSHBYTES_20 1d59c920f20d01613e2e9ee2385562a9f55bfe6a",
        "scriptpubkey_type": "v0_p2wpkh",
        "scriptpubkey_address": "bc1qr4vujg8jp5qkz03wnm3rs4tz4864hln24f6929",
        "value": 866271
      },
      "scriptsig": "",
      "scriptsig_asm": "",
      "witness": [
        "3045022100e5dbe9a97aac84a7333699c0d7306f5c593fd62d4f2b6a40d0c340f4b098e9cd022025f3b33306db5cf3b015ef16477fd6b81ffdb470ad0e75652ebd3004ca5ff65201",
        "0383770358957d2cd9d8058ef031a3b90d96aa7ae472ffdcdd7c99b56f824cbe6a"
      ],
      "is_coinbase": false,
      "sequence": 4294967293
    }
  ],
  "vout": [
    {
      "scriptpubkey": "a9141b5303eac0d6b6067d3e4bcf68e44b24651214a987",
      "scriptpubkey_asm": "OP_HASH160 OP_PUSHBYTES_20 1b5303eac0d6b6067d3e4bcf68e44b24651214a9 OP_EQUAL",
      "scriptpubkey_type": "p2sh",
      "scriptpubkey_address": "34BVcj9D65uAZCCKHWdC9vgVgCuDS81RqY",
      "value": 410000
    },
    {
      "scriptpubkey": "001499aa3cf4c58edabf61a032f8124aa79eecf3ad12",
      "scriptpubkey_asm": "OP_0 OP_PUSHBYTES_20 99aa3cf4c58edabf61a032f8124aa79eecf3ad12",
      "scriptpubkey_type": "v0_p2wpkh",
      "scriptpubkey_address": "bc1qnx4reax93mdt7cdqxtupyj48nmk08tgjwf38t6",
      "value": 453999
    }
  ],
  "size": 224,
  "weight": 566,
  "fee": 2272,
  "status": {
    "confirmed": true,
    "block_height": 834552,
    "block_hash": "00000000000000000001dd0468a70c94f619251d286585cff57aeb4bd9ede330",
    "block_time": 1710355598
  },
  "hex": "010000000001012b2d6a0927fb08052b2c1d1c7334e682fe85e589350bdffb496089262cb63f450100000000fdffffff02904106000000000017a9141b5303eac0d6b6067d3e4bcf68e44b24651214a9876fed06000000000016001499aa3cf4c58edabf61a032f8124aa79eecf3ad1202483045022100e5dbe9a97aac84a7333699c0d7306f5c593fd62d4f2b6a40d0c340f4b098e9cd022025f3b33306db5cf3b015ef16477fd6b81ffdb470ad0e75652ebd3004ca5ff65201210383770358957d2cd9d8058ef031a3b90d96aa7ae472ffdcdd7c99b56f824cbe6a00000000"
}