{
  "txid": "893e4a13cb12e73fd2f83de13a4289151922538fdc845db6e3a0da5b9ced2aa8",
  "version": 1,
  "locktime": 0,
  "vin": [
    {
      "txid": "ac235bcfe412fe1e434d3b1c03e1e88ca91f1a0fd132008084eb941589f5bac8",
      "vout": 4,
      "prevout": {
        "scriptpubkey": "51202527112d08bfd1257aaa8dfc356a3248b81d8ac9c06bfcaff3a31570a7fc8e3f",
        "scriptpubkey_asm": "OP_PUSHNUM_1 OP_PUSHBYTES_32 2527112d08bfd1257aaa8dfc356a3248b81d8ac9c06bfcaff3a31570a7fc8e3f",
        "scriptpubkey_type": "v1_p2tr",
        "scriptpubkey_address": "bc1py5n3ztgghlgj27423h7r263jfzupmzkfcp4letln5v2hpflu3cls3vcqhv",
        "value": 14000
      },
      "scriptsig": "",
      "scriptsig_asm": "",
      "witness": [
        "50f6d25d710adb1f7d3998e080a0753006f040d315ea8d605a9589cf8431035ed05ade7bd3f6b1ad1e46ad6f634977b02305922fb1560686b0412afaf12cb8b8"
      ],
      "is_coinbase": false,
      "sequence": 4294967293
    }
  ],
  "vout": [
    {
      "scriptpubkey": "512072e29abda7fbb06f8daf53bdbdc60081c2a2742f0955a77419eb5daa1dd21aba",
      "scriptpubkey_asm": "OP_PUSHNUM_1 OP_PUSHBYTES_32 72e29abda7fbb06f8daf53bdbdc60081c2a2742f0955a77419eb5daa1dd21aba",
      "scriptpubkey_type": "v1_p2tr",
      "scriptpubkey_address": "bc1pwt3f40d8lwcxlrd02w7mm3sqs8p2yap0p926waqeadw658wjr2aqmsanjl",
      "value": 2346
    },
    {
      "scriptpubkey": "5120f667578b85bed256c7fcb9f2cda488d5281e52ca42e7dd4bc21e95149562f09f",
      "scriptpubkey_asm": "OP_PUSHNUM_1 OP_PUSHBYTES_32 f667578b85bed256c7fcb9f2cda488d5281e52ca42e7dd4bc21e95149562f09f",
      "scriptpubkey_type": "v1_p2tr",
      "scriptpubkey_address": "bc1p7en40zu9hmf9d3luh8evmfyg655pu5k2gtna6j7zr623f9tz7z0stfnwav",
      "value": 2113
    },
    {
      "scriptpubkey": "51202527112d08bfd1257aaa8dfc356a3248b81d8ac9c06bfcaff3a31570a7fc8e3f",
      "scriptpubkey_asm": "OP_PUSHNUM_1 OP_PUSHBYTES_32 2527112d08bfd1257aaa8dfc356a3248b81d8ac9c06bfcaff3a31570a7fc8e3f",
      "scriptpubkey_type": "v1_p2tr",
      "scriptpubkey_address": "bc1py5n3ztgghlgj27423h7r263jfzupmzkfcp4letln5v2hpflu3cls3vcqhv",
      "value": 7165
    }
  ],
  "size": 248,
  "weight": 788,
  "fee": 2376,
  "status": {
    "confirmed": true,
    "block_height": 834460,
    "block_hash": "00000000000000000000484a79b643b2524bbce82e5d8a442013fa5b8905ed98",
    "block_time": 1710307468
  },
  "hex": "01000000000101c8baf5891594eb84800032d10f1a1fa98ce8e1031c3b4d431efe12e4cf5b23ac0400000000fdffffff032a0900000000000022512072e29abda7fbb06f8daf53bdbdc60081c2a2742f0955a77419eb5daa1dd21aba4108000000000000225120f667578b85bed256c7fcb9f2cda488d5281e52ca42e7dd4bc21e95149562f09ffd1b0000000000002251202527112d08bfd1257aaa8dfc356a3248b81d8ac9c06bfcaff3a31570a7fc8e3f014050f6d25d710adb1f7d3998e080a0753006f040d315ea8d605a9589cf8431035ed05ade7bd3f6b1ad1e46ad6f634977b02305922fb1560686b0412afaf12cb8b800000000"
}