{
  "txid": "89431b8dc29ccc26985d898dd7aa4907fb287a3fcfd487393ee789e0daa4a49c",
  "version": 1,
  "locktime": 0,
  "vin": [
    {
      "txid": "8ff5a709d5eb8c04f5d80d530cf18ebc2fe703d941d1a2ce51466633e8498e79",
      "vout": 22,
      "prevout": {
        "scriptpubkey": "00147c85e3946a9b55c234fa3f51f1a2dcd96f6d308a",
        "scriptpubkey_asm": "OP_0 OP_PUSHBYTES_20 7c85e3946a9b55c234fa3f51f1a2dcd96f6d308a",
        "scriptpubkey_type": "v0_p2wpkh",
        "scriptpubkey_address": "bc1q0jz789r2nd2uyd868aglrgkum9hk6vy2ncsequ",
        "value": 117361975
      },
      "scriptsig": "",
      "scriptsig_asm": "",
      "witness": [
        "3045022100fba13401dd3e04e2a840945451089482ef96efe826fe515544794b3936d2a63c02202063f99facec1560cd813f8f05bfc46babef2b8a715c3192bf7b3a09b1a789ce01",
        "03628d87a05219b55ef471cb70db7827227e4e09b7fb019e2543f9421e491d5e99"
      ],
      "is_coinbase": false,
      "sequence": 4294967295
    }
  ],
  "vout": [
    {
      "scriptpubkey": "001412a57a0a1b7dc726d97c9b53d6b95d238a64986b",
      "scriptpubkey_asm": "OP_0 OP_PUSHBYTES_20 12a57a0a1b7dc726d97c9b53d6b95d238a64986b",
      "scriptpubkey_type": "v0_p2wpkh",
      "scriptpubkey_address": "bc1qz2jh5zsm0hrjdktundfadw2ayw9xfxrt574uyw",
      "value": 93759642
    },
    {
      "scriptpubkey": "00147c85e3946a9b55c234fa3f51f1a2dcd96f6d308a",
      "scriptpubkey_asm": "OP_0 OP_PUSHBYTES_20 7c85e3946a9b55c234fa3f51f1a2dcd96f6d308a",
      "scriptpubkey_type": "v0_p2wpkh",
      "scriptpubkey_address": "bc1q0jz789r2nd2uyd868aglrgkum9hk6vy2ncsequ",
      "value": 23598526
    }
  ],
  "size": 223,
  "weight": 562,
  "fee": 3807,
  "status": {
    "confirmed": true,
    "block_height": 834638,
    "block_hash": "000000000000000000025f742c626208ac87e0b7d15054abb4a19ca2d735a54e",
    "block_time": 1710405325
  },
  "hex": "01000000000101798e49e833664651cea2d141d903e72fbc8ef10c530dd8f5048cebd509a7f58f1600000000ffffffff029aa896050000000016001412a57a0a1b7dc726d97c9b53d6b95d238a64986bbe156801000000001600147c85e3946a9b55c234fa3f51f1a2dcd96f6d308a02483045022100fba13401dd3e04e2a840945451089482ef96efe826fe515544794b3936d2a63c02202063f99facec1560cd813f8f05bfc46babef2b8a715c3192bf7b3a09b1a789ce012103628d87a05219b55ef471cb70db7827227e4e09b7fb019e2543f9421e491d5e9900000000"
}