{
  "txid": "894c6342bbbc6bb8a6aac41776ec0802f4f856844bef75aff772fe2e362a6c83",
  "version": 2,
  "locktime": 0,
  "vin": [
    {
      "txid": "acc3ba00869acb582a3f2904ce3a11dd3779350ce234063fc7d0959246213364",
      "vout": 220,
      "prevout": {
        "scriptpubkey": "5120975a6cd50a83e8059e297fd3590307c1664bb47cb2aa5e7177a4b7917c67c22f",
        "scriptpubkey_asm": "OP_PUSHNUM_1 OP_PUSHBYTES_32 975a6cd50a83e8059e297fd3590307c1664bb47cb2aa5e7177a4b7917c67c22f",
        "scriptpubkey_type": "v1_p2tr",
        "scriptpubkey_address": "bc1pjadxe4g2s05qt83f0lf4jqc8c9nyhdruk249uuth5jmezlr8cghsltrjhe",
        "value": 1806
      },
      "scriptsig": "",
      "scriptsig_asm": "",
      "witness": [
        "48f700d0e227100fefc5da35630420857656b8384a82e349f4a20202a1c1b061ffcd73520ea673b8fb598d43203c3f875beca41b7832987134bcff70b6f28b2c",
        "203a88d2183ba5291d6699c24752a0a52b87559786e7b8e8df78e478d1c5dc66dcac0063036f726401010a746578742f706c61696e00357b2270223a226272632d3230222c226f70223a226d696e74222c227469636b223a22646f6765222c22616d74223a2234323030227d68",
        "c13a88d2183ba5291d6699c24752a0a52b87559786e7b8e8df78e478d1c5dc66dc"
      ],
      "is_coinbase": false,
      "sequence": 4261412863
    }
  ],
  "vout": [
    {
      "scriptpubkey": "00147a665de7a370f4c9b372ab1fae587500a5bcbdb4",
      "scriptpubkey_asm": "OP_0 OP_PUSHBYTES_20 7a665de7a370f4c9b372ab1fae587500a5bcbdb4",
      "scriptpubkey_type": "v0_p2wpkh",
      "scriptpubkey_address": "bc1q0fn9mearwr6vnvmj4v06ukr4qzjme0d565dzcx",
      "value": 294
    }
  ],
  "size": 294,
  "weight": 540,
  "fee": 1512,
  "status": {
    "confirmed": true,
    "block_height": 834460,
    "block_hash": "00000000000000000000484a79b643b2524bbce82e5d8a442013fa5b8905ed98",
    "block_time": 1710307468
  },
  "hex": "02000000000101643321469295d0c73f0634e20c357937dd113ace04293f2a58cb9a8600bac3acdc00000000fffffffd0126010000000000001600147a665de7a370f4c9b372ab1fae587500a5bcbdb4034048f700d0e227100fefc5da35630420857656b8384a82e349f4a20202a1c1b061ffcd73520ea673b8fb598d43203c3f875beca41b7832987134bcff70b6f28b2c6d203a88d2183ba5291d6699c24752a0a52b87559786e7b8e8df78e478d1c5dc66dcac0063036f726401010a746578742f706c61696e00357b2270223a226272632d3230222c226f70223a226d696e74222c227469636b223a22646f6765222c22616d74223a2234323030227d6821c13a88d2183ba5291d6699c24752a0a52b87559786e7b8e8df78e478d1c5dc66dc00000000"
}