{
  "txid": "894d64b630d030d27ed1f01865fb97f2d191adf7eac737d8ff1e1bc245b9a046",
  "version": 1,
  "locktime": 0,
  "vin": [
    {
      "txid": "16311b38bbe2670d3a6e323bf44b879a019ba9e73c4bebb6841baf4a28c9b1f4",
      "vout": 162,
      "prevout": {
        "scriptpubkey": "001493f6d0a5dff88f8edb84c51e55451169748ed6db",
        "scriptpubkey_asm": "OP_0 OP_PUSHBYTES_20 93f6d0a5dff88f8edb84c51e55451169748ed6db",
        "scriptpubkey_type": "v0_p2wpkh",
        "scriptpubkey_address": "bc1qj0mdpfwllz8cakuyc50923g3d96ga4kmyv6yn0",
        "value": 242922
      },
      "scriptsig": "",
      "scriptsig_asm": "",
      "witness": [
        "3045022100eba2cc5281925ed5abd89954dd64b2babb709d3447e4dd43273b36b2442d80a7022016db18a6cb57253046a065fa718624ff68d0ca9158ce7c9153009c1e0c07458801",
        "03f83d3fecfa9194654fab354dc74e4b299f29665b1d472a6659ae8bb1ae9c2680"
      ],
      "is_coinbase": false,
      "sequence": 4294967295
    }
  ],
  "vout": [
    {
      "scriptpubkey": "76a914b87552f80cb5d8ad574578debf27200e2a6eec8088ac",
      "scriptpubkey_asm": "OP_DUP OP_HASH160 OP_PUSHBYTES_20 b87552f80cb5d8ad574578debf27200e2a6eec80 OP_EQUALVERIFY OP_CHECKSIG",
      "scriptpubkey_type": "p2pkh",
      "scriptpubkey_address": "1HpKt7qwrwei58CCYwhajJZ5fbfCbyBZ6J",
      "value": 239871
    }
  ],
  "size": 195,
  "weight": 450,
  "fee": 3051,
  "status": {
    "confirmed": true,
    "block_height": 834638,
    "block_hash": "000000000000000000025f742c626208ac87e0b7d15054abb4a19ca2d735a54e",
    "block_time": 1710405325
  },
  "hex": "01000000000101f4b1c9284aaf1b84b6eb4b3ce7a99b019a874bf43b326e3a0d67e2bb381b3116a200000000ffffffff01ffa80300000000001976a914b87552f80cb5d8ad574578debf27200e2a6eec8088ac02483045022100eba2cc5281925ed5abd89954dd64b2babb709d3447e4dd43273b36b2442d80a7022016db18a6cb57253046a065fa718624ff68d0ca9158ce7c9153009c1e0c074588012103f83d3fecfa9194654fab354dc74e4b299f29665b1d472a6659ae8bb1ae9c268000000000"
}