{
  "txid": "895c8f042dca11dcf99b12efbd80b5d0ffef494702ff8d5555e1feaacac91626",
  "version": 1,
  "locktime": 0,
  "vin": [
    {
      "txid": "d0fd211e1582829c4199038a3b80f81bb312a5592ae58ee9e815dc608c9bb3d1",
      "vout": 1,
      "prevout": {
        "scriptpubkey": "001448721845d8d8ad552aecdd259053f9fcc1f10a72",
        "scriptpubkey_asm": "OP_0 OP_PUSHBYTES_20 48721845d8d8ad552aecdd259053f9fcc1f10a72",
        "scriptpubkey_type": "v0_p2wpkh",
        "scriptpubkey_address": "bc1qfpeps3wcmzk422hvm5jeq5lelnqlzznjwyfy69",
        "value": 5106650909
      },
      "scriptsig": "",
      "scriptsig_asm": "",
      "witness": [
        "304402204e623d1a7216612d5b2ad7e3c519cbcba3a264e7fb411606c08eb61064e7bb6c02200e62c18a9cf1f1d635eddf4afd8ac871acf0f3e5ece6fac52c321bc95878fa5c01",
        "02dc8683704adb6dbea6d1e0bb392ab45b57dcc9c5f919b7d59389fdd9fb096f25"
      ],
      "is_coinbase": false,
      "sequence": 4294967295
    }
  ],
  "vout": [
    {
      "scriptpubkey": "0014af0f300cd5e09a31e5adfab951304eba33931790",
      "scriptpubkey_asm": "OP_0 OP_PUSHBYTES_20 af0f300cd5e09a31e5adfab951304eba33931790",
      "scriptpubkey_type": "v0_p2wpkh",
      "scriptpubkey_address": "bc1q4u8nqrx4uzdrreddl2u4zvzwhgeex9us9vdmth",
      "value": 203900
    },
    {
      "scriptpubkey": "001448721845d8d8ad552aecdd259053f9fcc1f10a72",
      "scriptpubkey_asm": "OP_0 OP_PUSHBYTES_20 48721845d8d8ad552aecdd259053f9fcc1f10a72",
      "scriptpubkey_type": "v0_p2wpkh",
      "scriptpubkey_address": "bc1qfpeps3wcmzk422hvm5jeq5lelnqlzznjwyfy69",
      "value": 5106444640
    }
  ],
  "size": 222,
  "weight": 561,
  "fee": 2369,
  "status": {
    "confirmed": true,
    "block_height": 834638,
    "block_hash": "000000000000000000025f742c626208ac87e0b7d15054abb4a19ca2d735a54e",
    "block_time": 1710405325
  },
  "hex": "01000000000101d1b39b8c60dc15e8e98ee52a59a512b31bf8803b8a0399419c8282151e21fdd00100000000ffffffff027c1c030000000000160014af0f300cd5e09a31e5adfab951304eba3393179060295e300100000016001448721845d8d8ad552aecdd259053f9fcc1f10a720247304402204e623d1a7216612d5b2ad7e3c519cbcba3a264e7fb411606c08eb61064e7bb6c02200e62c18a9cf1f1d635eddf4afd8ac871acf0f3e5ece6fac52c321bc95878fa5c012102dc8683704adb6dbea6d1e0bb392ab45b57dcc9c5f919b7d59389fdd9fb096f2500000000"
}