{
  "txid": "8972ab46c5c794bfb7db4e00f68584fba246e838b431a4a84f10e7c136ab3d16",
  "version": 2,
  "locktime": 0,
  "vin": [
    {
      "txid": "d18ed70056c00a6cd5de0ccb10b1ae8f7dd5250f9d0f22c727aba826d03302c8",
      "vout": 19,
      "prevout": {
        "scriptpubkey": "51206545071f026c1816d5526dd02167046f85cc4ac2154ffbfe922bf6be5cd6dead",
        "scriptpubkey_asm": "OP_PUSHNUM_1 OP_PUSHBYTES_32 6545071f026c1816d5526dd02167046f85cc4ac2154ffbfe922bf6be5cd6dead",
        "scriptpubkey_type": "v1_p2tr",
        "scriptpubkey_address": "bc1pv4zsw8czdsvpd42jdhgzzecyd7zucjkzz48lhl5j90mtuhxkm6ks6gpgyq",
        "value": 3010
      },
      "scriptsig": "",
      "scriptsig_asm": "",
      "witness": [
        "3e5abacdfdc6cf8b5852bc25e4a3abec8a678580eddba473133334e51832b19dc10e8d281dd1d2d539801a6a6da568556779e279f45da9197b8916851f19187b",
        "20e96e87b3759d5cd5e617d7661fdc576effd855a05f287cf1ad3623457b109d5bac0063036f726401011e6170706c69636174696f6e2f6a736f6e3b636861727365743d7574662d38004cbf7b2270223a22706f772d3230222c226f70223a226d696e74222c227469636b223a2250455045222c22616d74223a2231303030222c22736f6c7574696f6e223a22504550453a6263317168337833756334707a796478716436757776376e3732676874787a33753937306564663078613a303030303030303030303030303030303030303139393431613561653132383937363539383134343239323533333030353762306461393666336465613163353a3138333633383939363031227d68",
        "c1e5c6b8d70510d88b341fcdd9a2aa08913e89d9e736480c530fde3fe13419cdab"
      ],
      "is_coinbase": false,
      "sequence": 4294967295
    }
  ],
  "vout": [
    {
      "scriptpubkey": "0014bc4d1e62a1111a60375c733d3f291759851e17cf",
      "scriptpubkey_asm": "OP_0 OP_PUSHBYTES_20 bc4d1e62a1111a60375c733d3f291759851e17cf",
      "scriptpubkey_type": "v0_p2wpkh",
      "scriptpubkey_address": "bc1qh3x3uc4pzydxqd6uwv7n72ghtxz3u970edf0xa",
      "value": 546
    }
  ],
  "size": 455,
  "weight": 701,
  "fee": 2464,
  "status": {
    "confirmed": true,
    "block_height": 834460,
    "block_hash": "00000000000000000000484a79b643b2524bbce82e5d8a442013fa5b8905ed98",
    "block_time": 1710307468
  },
  "hex": "02000000000101c80233d026a8ab27c7220f9d0f25d57d8faeb110cb0cded56c0ac05600d78ed11300000000ffffffff012202000000000000160014bc4d1e62a1111a60375c733d3f291759851e17cf03403e5abacdfdc6cf8b5852bc25e4a3abec8a678580eddba473133334e51832b19dc10e8d281dd1d2d539801a6a6da568556779e279f45da9197b8916851f19187bfd0c0120e96e87b3759d5cd5e617d7661fdc576effd855a05f287cf1ad3623457b109d5bac0063036f726401011e6170706c69636174696f6e2f6a736f6e3b636861727365743d7574662d38004cbf7b2270223a22706f772d3230222c226f70223a226d696e74222c227469636b223a2250455045222c22616d74223a2231303030222c22736f6c7574696f6e223a22504550453a6263317168337833756334707a796478716436757776376e3732676874787a33753937306564663078613a303030303030303030303030303030303030303139393431613561653132383937363539383134343239323533333030353762306461393666336465613163353a3138333633383939363031227d6821c1e5c6b8d70510d88b341fcdd9a2aa08913e89d9e736480c530fde3fe13419cdab00000000"
}