{
  "txid": "897967a478729fd11f19fe5d8301dfb66eb32bb8687c13afd7c13a78f23a5531",
  "version": 1,
  "locktime": 0,
  "vin": [
    {
      "txid": "148d7c0ae548a910ab82eacc32043d423cfc4e63fed29f613fb3a76001b83a45",
      "vout": 1,
      "prevout": {
        "scriptpubkey": "76a914b5be080fa5deb3238348ac6aa0240d574b56414488ac",
        "scriptpubkey_asm": "OP_DUP OP_HASH160 OP_PUSHBYTES_20 b5be080fa5deb3238348ac6aa0240d574b564144 OP_EQUALVERIFY OP_CHECKSIG",
        "scriptpubkey_type": "p2pkh",
        "scriptpubkey_address": "1HZxxLkrATEcDBmdXqNLxxUXUhCSy97E2T",
        "value": 278942676
      },
      "scriptsig": "473044022022d6877dcd3694902521909ae8114e7a3ad098ab2a8e52bca620d620e53237ea02206f8ccfd266e8461b4f3441613a7c67294ef2dfd72a08a8130d406acc7877b8b7012103b5fa04d793ed42510aa5e5a8583d11c54490cbba6aa7cbd3d2ade0d9244a0db8",
      "scriptsig_asm": "OP_PUSHBYTES_71 3044022022d6877dcd3694902521909ae8114e7a3ad098ab2a8e52bca620d620e53237ea02206f8ccfd266e8461b4f3441613a7c67294ef2dfd72a08a8130d406acc7877b8b701 OP_PUSHBYTES_33 03b5fa04d793ed42510aa5e5a8583d11c54490cbba6aa7cbd3d2ade0d9244a0db8",
      "is_coinbase": false,
      "sequence": 4294967293
    }
  ],
  "vout": [
    {
      "scriptpubkey": "76a914082dbe6b0663744507081c3046b2eeadae09a89f88ac",
      "scriptpubkey_asm": "OP_DUP OP_HASH160 OP_PUSHBYTES_20 082dbe6b0663744507081c3046b2eeadae09a89f OP_EQUALVERIFY OP_CHECKSIG",
      "scriptpubkey_type": "p2pkh",
      "scriptpubkey_address": "1kFCsX6o9Zk72JCvb3qHMXFUAauuUwpRW",
      "value": 560000
    },
    {
      "scriptpubkey": "76a914b5be080fa5deb3238348ac6aa0240d574b56414488ac",
      "scriptpubkey_asm": "OP_DUP OP_HASH160 OP_PUSHBYTES_20 b5be080fa5deb3238348ac6aa0240d574b564144 OP_EQUALVERIFY OP_CHECKSIG",
      "scriptpubkey_type": "p2pkh",
      "scriptpubkey_address": "1HZxxLkrATEcDBmdXqNLxxUXUhCSy97E2T",
      "value": 278375896
    }
  ],
  "size": 225,
  "weight": 900,
  "fee": 6780,
  "status": {
    "confirmed": true,
    "block_height": 834638,
    "block_hash": "000000000000000000025f742c626208ac87e0b7d15054abb4a19ca2d735a54e",
    "block_time": 1710405325
  },
  "hex": "0100000001453ab80160a7b33f619fd2fe634efc3c423d0432ccea82ab10a948e50a7c8d14010000006a473044022022d6877dcd3694902521909ae8114e7a3ad098ab2a8e52bca620d620e53237ea02206f8ccfd266e8461b4f3441613a7c67294ef2dfd72a08a8130d406acc7877b8b7012103b5fa04d793ed42510aa5e5a8583d11c54490cbba6aa7cbd3d2ade0d9244a0db8fdffffff02808b0800000000001976a914082dbe6b0663744507081c3046b2eeadae09a89f88acd8ad9710000000001976a914b5be080fa5deb3238348ac6aa0240d574b56414488ac00000000"
}