{
  "txid": "898317d173769f2943bac260acabc0b66bcb802bd92d2efe8c5728f81a646e3d",
  "version": 1,
  "locktime": 0,
  "vin": [
    {
      "txid": "01713f829e6d8aacb0fea4586f9bc0069b16544ee44ee926862524c762754094",
      "vout": 1,
      "prevout": {
        "scriptpubkey": "0014b3da0cb523a5f802e64f717e443eb477b497f489",
        "scriptpubkey_asm": "OP_0 OP_PUSHBYTES_20 b3da0cb523a5f802e64f717e443eb477b497f489",
        "scriptpubkey_type": "v0_p2wpkh",
        "scriptpubkey_address": "bc1qk0dqedfr5huq9ej0w9lyg045w76f0ayfnaguhz",
        "value": 255836
      },
      "scriptsig": "",
      "scriptsig_asm": "",
      "witness": [
        "3044022011b40c3d93d4ca8b1fed04512b2fcfd2f2037d3ca894f18f710f6690a38374f602206dadad321ee66d01f68a8d1e93823644dcffd6c59196c91a30334b7df1027c7b01",
        "034c8db3e707a1d20b837dc318fd5f8e6512066676b587bef9725874a799accc23"
      ],
      "is_coinbase": false,
      "sequence": 4294967295
    }
  ],
  "vout": [
    {
      "scriptpubkey": "001490b7c79401c8b1f55d8f9d039a5b1b547bd8da97",
      "scriptpubkey_asm": "OP_0 OP_PUSHBYTES_20 90b7c79401c8b1f55d8f9d039a5b1b547bd8da97",
      "scriptpubkey_type": "v0_p2wpkh",
      "scriptpubkey_address": "bc1qjzmu09qpezcl2hv0n5pe5kcm23aa3k5hgh0e5w",
      "value": 155437
    },
    {
      "scriptpubkey": "0014b3da0cb523a5f802e64f717e443eb477b497f489",
      "scriptpubkey_asm": "OP_0 OP_PUSHBYTES_20 b3da0cb523a5f802e64f717e443eb477b497f489",
      "scriptpubkey_type": "v0_p2wpkh",
      "scriptpubkey_address": "bc1qk0dqedfr5huq9ej0w9lyg045w76f0ayfnaguhz",
      "value": 96592
    }
  ],
  "size": 222,
  "weight": 561,
  "fee": 3807,
  "status": {
    "confirmed": true,
    "block_height": 834638,
    "block_hash": "000000000000000000025f742c626208ac87e0b7d15054abb4a19ca2d735a54e",
    "block_time": 1710405325
  },
  "hex": "0100000000010194407562c724258626e94ee44e54169b06c09b6f58a4feb0ac8a6d9e823f71010100000000ffffffff022d5f02000000000016001490b7c79401c8b1f55d8f9d039a5b1b547bd8da975079010000000000160014b3da0cb523a5f802e64f717e443eb477b497f48902473044022011b40c3d93d4ca8b1fed04512b2fcfd2f2037d3ca894f18f710f6690a38374f602206dadad321ee66d01f68a8d1e93823644dcffd6c59196c91a30334b7df1027c7b0121034c8db3e707a1d20b837dc318fd5f8e6512066676b587bef9725874a799accc2300000000"
}