{
  "txid": "8990d1e75556bce3b4e7e0fa03177c3c0dabb88c9b029c1a906a8e2804d4c418",
  "version": 2,
  "locktime": 0,
  "vin": [
    {
      "txid": "e064261e0585e1155dce16ff6bd787de9d4408eb218ede775c44e84108bdb7ae",
      "vout": 5,
      "prevout": {
        "scriptpubkey": "0014df7ce7e5c6e865fb4c85ad3d4f6ca00324d03d14",
        "scriptpubkey_asm": "OP_0 OP_PUSHBYTES_20 df7ce7e5c6e865fb4c85ad3d4f6ca00324d03d14",
        "scriptpubkey_type": "v0_p2wpkh",
        "scriptpubkey_address": "bc1qma7w0ewxapjlkny945757m9qqvjdq0g5pj3267",
        "value": 223737
      },
      "scriptsig": "",
      "scriptsig_asm": "",
      "witness": [
        "3045022100ffd7a4ef4e554d5b7474af3f06d87785ddf3d11941af1ca3057db3ac8be5581202201e11bcda4026824e81da84fb048344898fe8e58474c804e5cf279ac62554edf301",
        "02ddfca916b884995cf054c5caf19f8dab7c07f5b8388ac3b367d7966056c3f0fc"
      ],
      "is_coinbase": false,
      "sequence": 0
    },
    {
      "txid": "c1f131ad7afa5f98096056531688a14945bbb9018e32bb19c2e741e0e34881cb",
      "vout": 15,
      "prevout": {
        "scriptpubkey": "0014f05de174726b1df6d8f312371817846dc45b4138",
        "scriptpubkey_asm": "OP_0 OP_PUSHBYTES_20 f05de174726b1df6d8f312371817846dc45b4138",
        "scriptpubkey_type": "v0_p2wpkh",
        "scriptpubkey_address": "bc1q7pw7zarjdvwldk8nzgm3s9uydhz9ksfcz3qrnr",
        "value": 501486
      },
      "scriptsig": "",
      "scriptsig_asm": "",
      "witness": [
        "3045022100d1769db5d924856025dc0b43fc202901160d6a805baa0728f27e6d84933f52800220622f0a55f0c98bb45a385c56b3d60dde96973e8f4723ab88a96e49873d94842e01",
        "02970215d1e7e8b0ab6174f685020cda5ffdcb96101128c680d69d3f6a453fc7f0"
      ],
      "is_coinbase": false,
      "sequence": 0
    }
  ],
  "vout": [
    {
      "scriptpubkey": "0020b92911b28bb40b3b60f585c78b08411300f9d4548a9c6e53720b365eda541024",
      "scriptpubkey_asm": "OP_0 OP_PUSHBYTES_32 b92911b28bb40b3b60f585c78b08411300f9d4548a9c6e53720b365eda541024",
      "scriptpubkey_type": "v0_p2wsh",
      "scriptpubkey_address": "bc1qhy53rv5tks9nkc84shrckzzpzvq0n4z532wxu5mjpvm9akj5zqjq6nmt6l",
      "value": 719903
    }
  ],
  "size": 353,
  "weight": 758,
  "fee": 5320,
  "status": {
    "confirmed": true,
    "block_height": 834460,
    "block_hash": "00000000000000000000484a79b643b2524bbce82e5d8a442013fa5b8905ed98",
    "block_time": 1710307468
  },
  "hex": "02000000000102aeb7bd0841e8445c77de8e21eb08449dde87d76bff16ce5d15e185051e2664e0050000000000000000cb8148e3e041e7c219bb328e01b9bb4549a1881653566009985ffa7aad31f1c10f0000000000000000011ffc0a0000000000220020b92911b28bb40b3b60f585c78b08411300f9d4548a9c6e53720b365eda54102402483045022100ffd7a4ef4e554d5b7474af3f06d87785ddf3d11941af1ca3057db3ac8be5581202201e11bcda4026824e81da84fb048344898fe8e58474c804e5cf279ac62554edf3012102ddfca916b884995cf054c5caf19f8dab7c07f5b8388ac3b367d7966056c3f0fc02483045022100d1769db5d924856025dc0b43fc202901160d6a805baa0728f27e6d84933f52800220622f0a55f0c98bb45a385c56b3d60dde96973e8f4723ab88a96e49873d94842e012102970215d1e7e8b0ab6174f685020cda5ffdcb96101128c680d69d3f6a453fc7f000000000"
}