{
  "txid": "899a60eb9fe3eebedc12dda882d03b61dfa8baaae45902433f3eeefb69a5c708",
  "version": 1,
  "locktime": 0,
  "vin": [
    {
      "txid": "888888888b2cefa68094568a5fed9f49e6115671acaf50487616d75208366ea7",
      "vout": 0,
      "prevout": {
        "scriptpubkey": "512071871117358cf359802c6b1dd2953fbe85f7aa7fff0c0d74ee2a979537b13930",
        "scriptpubkey_asm": "OP_PUSHNUM_1 OP_PUSHBYTES_32 71871117358cf359802c6b1dd2953fbe85f7aa7fff0c0d74ee2a979537b13930",
        "scriptpubkey_type": "v1_p2tr",
        "scriptpubkey_address": "bc1pwxr3z9e43ne4nqpvdvwa99flh6zl02nlluxq6a8w92te2da38ycq5n5h8t",
        "value": 12071
      },
      "scriptsig": "",
      "scriptsig_asm": "",
      "witness": [
        "5c2aa48b24dd064d49932b73241482306796f01f785b2cc4f7f6046542c99aa03adea9ce97035ecce426fc956696bf6e7099946e149b70b5dfdaf86171750b26",
        "20964ac4b39c9655d5bed1908c028e5b13bdcc67f011169207c5b2bcfd1aaffa8cac00630461746f6d03646d7446a16461726773a46474696d651a65f131e1656e6f6e63651a0001001368626974776f726b636b3838383838383838382e386b6d696e745f7469636b657268696e66696e69747968",
        "c1964ac4b39c9655d5bed1908c028e5b13bdcc67f011169207c5b2bcfd1aaffa8c"
      ],
      "is_coinbase": false,
      "sequence": 4294967295
    }
  ],
  "vout": [
    {
      "scriptpubkey": "5120c9778f0f7116a0fa90e759ca54b375f5c38d7db5875a2860af8354d65a8671e2",
      "scriptpubkey_asm": "OP_PUSHNUM_1 OP_PUSHBYTES_32 c9778f0f7116a0fa90e759ca54b375f5c38d7db5875a2860af8354d65a8671e2",
      "scriptpubkey_type": "v1_p2tr",
      "scriptpubkey_address": "bc1pe9mc7rm3z6s04y88t899fvm47hpc6ld4sadzsc90sd2dvk5xw83qeh2mmm",
      "value": 9999
    }
  ],
  "size": 314,
  "weight": 596,
  "fee": 2072,
  "status": {
    "confirmed": true,
    "block_height": 834460,
    "block_hash": "00000000000000000000484a79b643b2524bbce82e5d8a442013fa5b8905ed98",
    "block_time": 1710307468
  },
  "hex": "01000000000101a76e360852d716764850afac715611e6499fed5f8a569480a6ef2c8b888888880000000000ffffffff010f27000000000000225120c9778f0f7116a0fa90e759ca54b375f5c38d7db5875a2860af8354d65a8671e203405c2aa48b24dd064d49932b73241482306796f01f785b2cc4f7f6046542c99aa03adea9ce97035ecce426fc956696bf6e7099946e149b70b5dfdaf86171750b267520964ac4b39c9655d5bed1908c028e5b13bdcc67f011169207c5b2bcfd1aaffa8cac00630461746f6d03646d7446a16461726773a46474696d651a65f131e1656e6f6e63651a0001001368626974776f726b636b3838383838383838382e386b6d696e745f7469636b657268696e66696e6974796821c1964ac4b39c9655d5bed1908c028e5b13bdcc67f011169207c5b2bcfd1aaffa8c00000000"
}