{
  "txid": "89a3698e7a773840e0ea749bc429101a3a3706277b9d5282722cfd05278c4a65",
  "version": 1,
  "locktime": 0,
  "vin": [
    {
      "txid": "7f7f77e843b8305adf1affdde3f79ba498e6ac7679c484ab6596f8c93728d65c",
      "vout": 0,
      "prevout": {
        "scriptpubkey": "0014ed6a2c31bd156e21d3133037790240aa3e2815e3",
        "scriptpubkey_asm": "OP_0 OP_PUSHBYTES_20 ed6a2c31bd156e21d3133037790240aa3e2815e3",
        "scriptpubkey_type": "v0_p2wpkh",
        "scriptpubkey_address": "bc1qa44zcvdaz4hzr5cnxqmhjqjq4glzs90rz969hh",
        "value": 46198
      },
      "scriptsig": "",
      "scriptsig_asm": "",
      "witness": [
        "304402201c13fc1ec0473de952d55c9272a7d2ed12ad08c5331e88ceb0d516d46406345502202b0739684186a68a740e56ccfac4b98ed3021102d226043260e6fdb03a35dfa401",
        "03919501ecbdf7591ef3bbc9e56cc9fba7794676bb4cc64250937a671e60139d04"
      ],
      "is_coinbase": false,
      "sequence": 4294967295
    }
  ],
  "vout": [
    {
      "scriptpubkey": "76a91487d01993aba5a85f722ae6d12b73673ec0a9381288ac",
      "scriptpubkey_asm": "OP_DUP OP_HASH160 OP_PUSHBYTES_20 87d01993aba5a85f722ae6d12b73673ec0a93812 OP_EQUALVERIFY OP_CHECKSIG",
      "scriptpubkey_type": "p2pkh",
      "scriptpubkey_address": "1DP7Ww5Gjys3ySeGWoHNpsDJpiposfMfkt",
      "value": 40844
    },
    {
      "scriptpubkey": "0014ed6a2c31bd156e21d3133037790240aa3e2815e3",
      "scriptpubkey_asm": "OP_0 OP_PUSHBYTES_20 ed6a2c31bd156e21d3133037790240aa3e2815e3",
      "scriptpubkey_type": "v0_p2wpkh",
      "scriptpubkey_address": "bc1qa44zcvdaz4hzr5cnxqmhjqjq4glzs90rz969hh",
      "value": 1466
    }
  ],
  "size": 225,
  "weight": 573,
  "fee": 3888,
  "status": {
    "confirmed": true,
    "block_height": 834638,
    "block_hash": "000000000000000000025f742c626208ac87e0b7d15054abb4a19ca2d735a54e",
    "block_time": 1710405325
  },
  "hex": "010000000001015cd62837c9f89665ab84c47976ace698a49bf7e3ddff1adf5a30b843e8777f7f0000000000ffffffff028c9f0000000000001976a91487d01993aba5a85f722ae6d12b73673ec0a9381288acba05000000000000160014ed6a2c31bd156e21d3133037790240aa3e2815e30247304402201c13fc1ec0473de952d55c9272a7d2ed12ad08c5331e88ceb0d516d46406345502202b0739684186a68a740e56ccfac4b98ed3021102d226043260e6fdb03a35dfa4012103919501ecbdf7591ef3bbc9e56cc9fba7794676bb4cc64250937a671e60139d0400000000"
}