{
  "txid": "89a311aa7fd60268c5c9b4144d88a4e8d210db42283ab2cb09271ee34bd7796e",
  "version": 1,
  "locktime": 0,
  "vin": [
    {
      "txid": "7d08f30dcb068b6935d83d22faf79c86acc7c3288b9041f474de8d990feaba37",
      "vout": 139,
      "prevout": {
        "scriptpubkey": "0014398fcca22302452a4cc3bcdd91fae90e3f2610a1",
        "scriptpubkey_asm": "OP_0 OP_PUSHBYTES_20 398fcca22302452a4cc3bcdd91fae90e3f2610a1",
        "scriptpubkey_type": "v0_p2wpkh",
        "scriptpubkey_address": "bc1q8x8ueg3rqfzj5nxrhnwer7hfpcljvy9pfrnzym",
        "value": 485704
      },
      "scriptsig": "",
      "scriptsig_asm": "",
      "witness": [
        "304502210089ad1fbcb8a982ebf2fa980ff6b7edce2acf22c410a49346dbc3079a1f92d67b0220167afcfc85c2cd158b0f9cd744bb4eddf0d680935cf020b236ef6b883a37116701",
        "03f32d0d4698ae0db8cf5da8edc701d335a44403b6c903115688e7435db06fe2ee"
      ],
      "is_coinbase": false,
      "sequence": 4294967295
    }
  ],
  "vout": [
    {
      "scriptpubkey": "76a914a75aeb7a412dd8b760f1a6f3ac3c27eb360db20f88ac",
      "scriptpubkey_asm": "OP_DUP OP_HASH160 OP_PUSHBYTES_20 a75aeb7a412dd8b760f1a6f3ac3c27eb360db20f OP_EQUALVERIFY OP_CHECKSIG",
      "scriptpubkey_type": "p2pkh",
      "scriptpubkey_address": "1GFtmFsu1RDmzJMppEvtMgny7AYKoRkKxn",
      "value": 482653
    }
  ],
  "size": 195,
  "weight": 450,
  "fee": 3051,
  "status": {
    "confirmed": true,
    "block_height": 834638,
    "block_hash": "000000000000000000025f742c626208ac87e0b7d15054abb4a19ca2d735a54e",
    "block_time": 1710405325
  },
  "hex": "0100000000010137baea0f998dde74f441908b28c3c7ac869cf7fa223dd835698b06cb0df3087d8b00000000ffffffff015d5d0700000000001976a914a75aeb7a412dd8b760f1a6f3ac3c27eb360db20f88ac0248304502210089ad1fbcb8a982ebf2fa980ff6b7edce2acf22c410a49346dbc3079a1f92d67b0220167afcfc85c2cd158b0f9cd744bb4eddf0d680935cf020b236ef6b883a371167012103f32d0d4698ae0db8cf5da8edc701d335a44403b6c903115688e7435db06fe2ee00000000"
}