{
  "txid": "89a53ae8789a005d9e17c3206fedc25582a87977600f55da02f842e0cc1f4980",
  "version": 2,
  "locktime": 0,
  "vin": [
    {
      "txid": "73e26d7ba55a3f96b773af405a05e3bd397da27f4598071070c1a79bb15681fb",
      "vout": 0,
      "prevout": {
        "scriptpubkey": "001453d8a0ab3fee6459bd5a89e6e1fe504e86b903a9",
        "scriptpubkey_asm": "OP_0 OP_PUSHBYTES_20 53d8a0ab3fee6459bd5a89e6e1fe504e86b903a9",
        "scriptpubkey_type": "v0_p2wpkh",
        "scriptpubkey_address": "bc1q20v2p2elaej9n02638nwrljsf6rtjqaf9kqhdx",
        "value": 41273
      },
      "scriptsig": "",
      "scriptsig_asm": "",
      "witness": [
        "3045022100dfdb7c4a017702298243e163da54e4e7dd9eea4cc1d3b5676e95632de53365bf022050cdb91da21b60ed1eb4a450f4ac832dffdd55cf40799be3d1161f53d677b7e101",
        "02712073f2978fed807ab48b8655e76ff7c7336aa38a340c50c0b0abd1c2762b26"
      ],
      "is_coinbase": false,
      "sequence": 4294967295
    }
  ],
  "vout": [
    {
      "scriptpubkey": "00146edce8e554921e1b65e7497e2967ddb1ed952ad2",
      "scriptpubkey_asm": "OP_0 OP_PUSHBYTES_20 6edce8e554921e1b65e7497e2967ddb1ed952ad2",
      "scriptpubkey_type": "v0_p2wpkh",
      "scriptpubkey_address": "bc1qdmww3e25jg0pke08f9lzje7ak8ke22kjpqhyvt",
      "value": 39735
    }
  ],
  "size": 192,
  "weight": 438,
  "fee": 1538,
  "status": {
    "confirmed": true,
    "block_height": 834460,
    "block_hash": "00000000000000000000484a79b643b2524bbce82e5d8a442013fa5b8905ed98",
    "block_time": 1710307468
  },
  "hex": "02000000000101fb8156b19ba7c170100798457fa27d39bde3055a40af73b7963f5aa57b6de2730000000000ffffffff01379b0000000000001600146edce8e554921e1b65e7497e2967ddb1ed952ad202483045022100dfdb7c4a017702298243e163da54e4e7dd9eea4cc1d3b5676e95632de53365bf022050cdb91da21b60ed1eb4a450f4ac832dffdd55cf40799be3d1161f53d677b7e1012102712073f2978fed807ab48b8655e76ff7c7336aa38a340c50c0b0abd1c2762b2600000000"
}