{
  "txid": "89b42658bfe122ffc5a249f9204aa8ba77922b264ac4670b35694e0660b04613",
  "version": 2,
  "locktime": 0,
  "vin": [
    {
      "txid": "bb396584838b8d0b76e8420c3795187018800ac577c7426ae6fd37e1313636c8",
      "vout": 1,
      "prevout": {
        "scriptpubkey": "a9142c21151d54bd219dcc4c52e1cb38672dab8e36cc87",
        "scriptpubkey_asm": "OP_HASH160 OP_PUSHBYTES_20 2c21151d54bd219dcc4c52e1cb38672dab8e36cc OP_EQUAL",
        "scriptpubkey_type": "p2sh",
        "scriptpubkey_address": "35iMHbUZeTssxBodiHwEEkb32jpBfVueEL",
        "value": 966654294
      },
      "scriptsig": "1600147c846a806f4d9e516c9fb2fe364f28eac4e3c3fc",
      "scriptsig_asm": "OP_PUSHBYTES_22 00147c846a806f4d9e516c9fb2fe364f28eac4e3c3fc",
      "witness": [
        "30450221009ea9db2c85d2644cbe609a90d3afd0f16583cb430016910a617182c3517dce8802205eb92134026f949740af98515fa2dd1afb50fc7e3a476036817e3762a623cbac01",
        "03789a9d83798d4cbf688f9969a94084ee1655059e137b43492ee94dc4538790ab"
      ],
      "is_coinbase": false,
      "sequence": 4294967295,
      "inner_redeemscript_asm": "OP_0 OP_PUSHBYTES_20 7c846a806f4d9e516c9fb2fe364f28eac4e3c3fc"
    }
  ],
  "vout": [
    {
      "scriptpubkey": "a9141bdc44e0f94859e52c23ee56399495d3c9eaedf887",
      "scriptpubkey_asm": "OP_HASH160 OP_PUSHBYTES_20 1bdc44e0f94859e52c23ee56399495d3c9eaedf8 OP_EQUAL",
      "scriptpubkey_type": "p2sh",
      "scriptpubkey_address": "34EL3HX5YNiv25HzHZX7agqvas6zhSh2EJ",
      "value": 214299856
    },
    {
      "scriptpubkey": "a9142c21151d54bd219dcc4c52e1cb38672dab8e36cc87",
      "scriptpubkey_asm": "OP_HASH160 OP_PUSHBYTES_20 2c21151d54bd219dcc4c52e1cb38672dab8e36cc OP_EQUAL",
      "scriptpubkey_type": "p2sh",
      "scriptpubkey_address": "35iMHbUZeTssxBodiHwEEkb32jpBfVueEL",
      "value": 752351795
    }
  ],
  "size": 248,
  "weight": 662,
  "fee": 2643,
  "status": {
    "confirmed": true,
    "block_height": 834638,
    "block_hash": "000000000000000000025f742c626208ac87e0b7d15054abb4a19ca2d735a54e",
    "block_time": 1710405325
  },
  "hex": "02000000000101c8363631e137fde66a42c777c50a8018701895370c42e8760b8d8b83846539bb01000000171600147c846a806f4d9e516c9fb2fe364f28eac4e3c3fcffffffff02d0f4c50c0000000017a9141bdc44e0f94859e52c23ee56399495d3c9eaedf88733fad72c0000000017a9142c21151d54bd219dcc4c52e1cb38672dab8e36cc87024830450221009ea9db2c85d2644cbe609a90d3afd0f16583cb430016910a617182c3517dce8802205eb92134026f949740af98515fa2dd1afb50fc7e3a476036817e3762a623cbac012103789a9d83798d4cbf688f9969a94084ee1655059e137b43492ee94dc4538790ab00000000"
}