{
  "txid": "89b5005a00d77d1608540f2d27f6b140e0ef33a01ae9c1d1b6aea027bd00b16d",
  "version": 2,
  "locktime": 0,
  "vin": [
    {
      "txid": "cff18b4559633437c6b86c4dda97cfb257bbb38034c432a508417c66c18b6b72",
      "vout": 24,
      "prevout": {
        "scriptpubkey": "51206ddc302908315a0321cc451cb64f5cec6f89a6c1106d5ea2486c2f24aff7d80d",
        "scriptpubkey_asm": "OP_PUSHNUM_1 OP_PUSHBYTES_32 6ddc302908315a0321cc451cb64f5cec6f89a6c1106d5ea2486c2f24aff7d80d",
        "scriptpubkey_type": "v1_p2tr",
        "scriptpubkey_address": "bc1pdhwrq2ggx9dqxgwvg5wtvn6ua3hcnfkpzpk4agjgdshjftlhmqxstnmw6z",
        "value": 3634
      },
      "scriptsig": "",
      "scriptsig_asm": "",
      "witness": [
        "358e53a40a6302a0a8cac0027e971b0bc3d485e8e6d4bda72b5239edabb5e2095e3b860a685c4c30ed6ddab9cf80a2c10e00bdeb37b70113e6758264daad95fd",
        "2036912092af70a280d646a9c7ee415c523221d4e08e04812fddb1f04a1e7176b8ac0063036f726401011e6170706c69636174696f6e2f6a736f6e3b636861727365743d7574662d38004cd37b2270223a22706f772d3230222c226f70223a226d696e74222c227469636b223a2250455045222c22616d74223a2231303030222c22736f6c7574696f6e223a22504550453a6263317077687170676e37766634707478386574387339353863796b6a6338306130393377387733716d6d6737726c39717177616c6a37733339766c36733a303030303030303030303030303030303030303139393431613561653132383937363539383134343239323533333030353762306461393666336465613163353a3335353032313138303139227d68",
        "c1260555bf4608a4bfce181158d7f81c023e0988279add2c55cd9091c8ce8f4140"
      ],
      "is_coinbase": false,
      "sequence": 4294967295
    }
  ],
  "vout": [
    {
      "scriptpubkey": "512075c0144fcc4d42b31f2b3c0b43e096960efebcb171dd106f68f0fe5001ddfcbd",
      "scriptpubkey_asm": "OP_PUSHNUM_1 OP_PUSHBYTES_32 75c0144fcc4d42b31f2b3c0b43e096960efebcb171dd106f68f0fe5001ddfcbd",
      "scriptpubkey_type": "v1_p2tr",
      "scriptpubkey_address": "bc1pwhqpgn7vf4ptx8et8s958cykjc80a093w8w3qmmg7rl9qqwalj7s39vl6s",
      "value": 546
    }
  ],
  "size": 487,
  "weight": 769,
  "fee": 3088,
  "status": {
    "confirmed": true,
    "block_height": 834460,
    "block_hash": "00000000000000000000484a79b643b2524bbce82e5d8a442013fa5b8905ed98",
    "block_time": 1710307468
  },
  "hex": "02000000000101726b8bc1667c4108a532c43480b3bb57b2cf97da4d6cb8c637346359458bf1cf1800000000ffffffff01220200000000000022512075c0144fcc4d42b31f2b3c0b43e096960efebcb171dd106f68f0fe5001ddfcbd0340358e53a40a6302a0a8cac0027e971b0bc3d485e8e6d4bda72b5239edabb5e2095e3b860a685c4c30ed6ddab9cf80a2c10e00bdeb37b70113e6758264daad95fdfd20012036912092af70a280d646a9c7ee415c523221d4e08e04812fddb1f04a1e7176b8ac0063036f726401011e6170706c69636174696f6e2f6a736f6e3b636861727365743d7574662d38004cd37b2270223a22706f772d3230222c226f70223a226d696e74222c227469636b223a2250455045222c22616d74223a2231303030222c22736f6c7574696f6e223a22504550453a6263317077687170676e37766634707478386574387339353863796b6a6338306130393377387733716d6d6737726c39717177616c6a37733339766c36733a303030303030303030303030303030303030303139393431613561653132383937363539383134343239323533333030353762306461393666336465613163353a3335353032313138303139227d6821c1260555bf4608a4bfce181158d7f81c023e0988279add2c55cd9091c8ce8f414000000000"
}