{
  "txid": "89c329df92003d368173a60bd4c482393ccfa62c6023d7d3e335be7ff18e9a1f",
  "version": 2,
  "locktime": 0,
  "vin": [
    {
      "txid": "54af04ea7d7e589966fce50fda7a3a42b0aeffb823ede87d52e48889f4c3d89a",
      "vout": 35,
      "prevout": {
        "scriptpubkey": "512006e10184ceff11fdb27518ea09b2193f50585dff754ae25bacef98a2cc9b920f",
        "scriptpubkey_asm": "OP_PUSHNUM_1 OP_PUSHBYTES_32 06e10184ceff11fdb27518ea09b2193f50585dff754ae25bacef98a2cc9b920f",
        "scriptpubkey_type": "v1_p2tr",
        "scriptpubkey_address": "bc1pqmssrpxwluglmvn4rr4qnvse8ag9sh0lw49wykava7v29nymjg8sqnv00g",
        "value": 10000
      },
      "scriptsig": "",
      "scriptsig_asm": "",
      "witness": [
        "cab58e95eda2a0ec5bed5e0ac63c4c9ab00ab0ad56dafb1cbc900b23303a7577e0e491a89de8659356e1987c7ad80d788e776eb53bb26d91be2912a20bb0711b"
      ],
      "is_coinbase": false,
      "sequence": 4294967293
    },
    {
      "txid": "0b926ce2bde0487c7efab5aa886bd557e8b6be89842c68e952eb68f9f13ec43c",
      "vout": 1,
      "prevout": {
        "scriptpubkey": "a91444b2c2c599dbfdb9dcccbcd155780466a17265a187",
        "scriptpubkey_asm": "OP_HASH160 OP_PUSHBYTES_20 44b2c2c599dbfdb9dcccbcd155780466a17265a1 OP_EQUAL",
        "scriptpubkey_type": "p2sh",
        "scriptpubkey_address": "37xG27EVCwe8TKsutGC2dNYPR2aMRTUtd7",
        "value": 195799
      },
      "scriptsig": "1600140f1c83b7ea9e7fefd2b10aac8c680ede85e3d50f",
      "scriptsig_asm": "OP_PUSHBYTES_22 00140f1c83b7ea9e7fefd2b10aac8c680ede85e3d50f",
      "witness": [
        "30440220086d520fc290fc76ffe75da51a76d9d4bd5a1cbaff2bef5abe1d8f7db376d5aa022001b64df8fbafe7266394c82a8dfe948b8fcd8485947e7f9b8c7e5052b10e3fd801",
        "032efcd4fd0e251037171e8052c58a15ae55f8f959e13948555586147ebe7aa623"
      ],
      "is_coinbase": false,
      "sequence": 4294967293,
      "inner_redeemscript_asm": "OP_0 OP_PUSHBYTES_20 0f1c83b7ea9e7fefd2b10aac8c680ede85e3d50f"
    }
  ],
  "vout": [
    {
      "scriptpubkey": "51207626d14b1403cd6fc869f694f93e680dfa7de4d596498f4446626eb853d724ac",
      "scriptpubkey_asm": "OP_PUSHNUM_1 OP_PUSHBYTES_32 7626d14b1403cd6fc869f694f93e680dfa7de4d596498f4446626eb853d724ac",
      "scriptpubkey_type": "v1_p2tr",
      "scriptpubkey_address": "bc1pwcndzjc5q0xkljrf7620j0ngpha8mex4jeyc73zxvfhts57hyjkqsmj3c0",
      "value": 10000
    },
    {
      "scriptpubkey": "a91444b2c2c599dbfdb9dcccbcd155780466a17265a187",
      "scriptpubkey_asm": "OP_HASH160 OP_PUSHBYTES_20 44b2c2c599dbfdb9dcccbcd155780466a17265a1 OP_EQUAL",
      "scriptpubkey_type": "p2sh",
      "scriptpubkey_address": "37xG27EVCwe8TKsutGC2dNYPR2aMRTUtd7",
      "value": 192851
    }
  ],
  "size": 365,
  "weight": 935,
  "fee": 2948,
  "status": {
    "confirmed": true,
    "block_height": 834464,
    "block_hash": "0000000000000000000177a0869a911a2b65c9bdcd5a8bcb02b68f305bee848e",
    "block_time": 1710308296
  },
  "hex": "020000000001029ad8c3f48988e4527de8ed23b8ffaeb0423a7ada0fe5fc6699587e7dea04af542300000000fdffffff3cc43ef1f968eb52e9682c8489beb6e857d56b88aab5fa7e7c48e0bde26c920b01000000171600140f1c83b7ea9e7fefd2b10aac8c680ede85e3d50ffdffffff0210270000000000002251207626d14b1403cd6fc869f694f93e680dfa7de4d596498f4446626eb853d724ac53f102000000000017a91444b2c2c599dbfdb9dcccbcd155780466a17265a1870140cab58e95eda2a0ec5bed5e0ac63c4c9ab00ab0ad56dafb1cbc900b23303a7577e0e491a89de8659356e1987c7ad80d788e776eb53bb26d91be2912a20bb0711b024730440220086d520fc290fc76ffe75da51a76d9d4bd5a1cbaff2bef5abe1d8f7db376d5aa022001b64df8fbafe7266394c82a8dfe948b8fcd8485947e7f9b8c7e5052b10e3fd80121032efcd4fd0e251037171e8052c58a15ae55f8f959e13948555586147ebe7aa62300000000"
}