{
  "txid": "89d16d94844468705d365d8b252aa7c02267eb321a24f57ee2ab1f9c0b693d9b",
  "version": 2,
  "locktime": 0,
  "vin": [
    {
      "txid": "96687a8d1942358cf75789681a31860dc055fd9fb1d62d0ad3add7eadf139e50",
      "vout": 1,
      "prevout": {
        "scriptpubkey": "51209d4a5843f437c2033cfb8e6bcb1be3c0ce6c9eec7e9916de09d5a176911cbd37",
        "scriptpubkey_asm": "OP_PUSHNUM_1 OP_PUSHBYTES_32 9d4a5843f437c2033cfb8e6bcb1be3c0ce6c9eec7e9916de09d5a176911cbd37",
        "scriptpubkey_type": "v1_p2tr",
        "scriptpubkey_address": "bc1pn499ssl5xlpqx08m3e4ukxlrcr8xe8hv06v3dhsf6kshdyguh5msv0s6qm",
        "value": 5502
      },
      "scriptsig": "",
      "scriptsig_asm": "",
      "witness": [
        "b956be7d215772683947585ac729ebe4b992f9da45365a445a5cb322df568f6b6629687d966c8b0fecea9d7e6189eaaf2c3f55f6bbe866b4731dd2e6b1c82336"
      ],
      "is_coinbase": false,
      "sequence": 4294967293
    }
  ],
  "vout": [
    {
      "scriptpubkey": "5120594d4c637ce0f4cc67ee6df3fc103708bf87f9c26c6476c427c7aabbf30bd5da",
      "scriptpubkey_asm": "OP_PUSHNUM_1 OP_PUSHBYTES_32 594d4c637ce0f4cc67ee6df3fc103708bf87f9c26c6476c427c7aabbf30bd5da",
      "scriptpubkey_type": "v1_p2tr",
      "scriptpubkey_address": "bc1pt9x5ccmuur6vcelwdhelcyphpzlc07wzd3j8d3p8c74thuct6hdq3kdsgf",
      "value": 3726
    }
  ],
  "size": 162,
  "weight": 444,
  "fee": 1776,
  "status": {
    "confirmed": true,
    "block_height": 834460,
    "block_hash": "00000000000000000000484a79b643b2524bbce82e5d8a442013fa5b8905ed98",
    "block_time": 1710307468
  },
  "hex": "02000000000101509e13dfead7add30a2dd6b19ffd55c00d86311a688957f78c3542198d7a68960100000000fdffffff018e0e000000000000225120594d4c637ce0f4cc67ee6df3fc103708bf87f9c26c6476c427c7aabbf30bd5da0140b956be7d215772683947585ac729ebe4b992f9da45365a445a5cb322df568f6b6629687d966c8b0fecea9d7e6189eaaf2c3f55f6bbe866b4731dd2e6b1c8233600000000"
}