{
  "txid": "89d5d85cc435eac6031a322cdf84c458bbc958ed4a911b062027a1d26be5f545",
  "version": 2,
  "locktime": 0,
  "vin": [
    {
      "txid": "b17840f1eb2798210441335b9911ee184531b78a9c1f50a24bd20db1a27305d2",
      "vout": 21,
      "prevout": {
        "scriptpubkey": "00149725b3cfddf6435270921cd31786a73dd43eb91c",
        "scriptpubkey_asm": "OP_0 OP_PUSHBYTES_20 9725b3cfddf6435270921cd31786a73dd43eb91c",
        "scriptpubkey_type": "v0_p2wpkh",
        "scriptpubkey_address": "bc1qjujm8n7a7ep4yuyjrnf30p488h2rawguxcg8ny",
        "value": 523372
      },
      "scriptsig": "",
      "scriptsig_asm": "",
      "witness": [
        "3045022100e6b9159945563e3f3d1cfe48f4aef09abf1a838ab0e9d5ce4dd4f085fb837c15022030a19eb9a16f1b3dea283b63366602e48239c3910ba842a81828e55d8adf3efc01",
        "023b356dcb55035f542bdef5da39cf1246523fd76a2ecf507ded59d5d8107fb4eb"
      ],
      "is_coinbase": false,
      "sequence": 4294967295
    }
  ],
  "vout": [
    {
      "scriptpubkey": "5120a4cf18e45fb85949087a4a15f28d4600a9b953bf353ac9785fdcdfd20fad867f",
      "scriptpubkey_asm": "OP_PUSHNUM_1 OP_PUSHBYTES_32 a4cf18e45fb85949087a4a15f28d4600a9b953bf353ac9785fdcdfd20fad867f",
      "scriptpubkey_type": "v1_p2tr",
      "scriptpubkey_address": "bc1p5n833ezlhpv5jzr6fg2l9r2xqz5mj5alx5avj7zlmn0ayradsels0ue69y",
      "value": 35353
    },
    {
      "scriptpubkey": "00149725b3cfddf6435270921cd31786a73dd43eb91c",
      "scriptpubkey_asm": "OP_0 OP_PUSHBYTES_20 9725b3cfddf6435270921cd31786a73dd43eb91c",
      "scriptpubkey_type": "v0_p2wpkh",
      "scriptpubkey_address": "bc1qjujm8n7a7ep4yuyjrnf30p488h2rawguxcg8ny",
      "value": 486030
    }
  ],
  "size": 235,
  "weight": 610,
  "fee": 1989,
  "status": {
    "confirmed": true,
    "block_height": 834460,
    "block_hash": "00000000000000000000484a79b643b2524bbce82e5d8a442013fa5b8905ed98",
    "block_time": 1710307468
  },
  "hex": "02000000000101d20573a2b10dd24ba2501f9c8ab7314518ee11995b334104219827ebf14078b11500000000ffffffff02198a000000000000225120a4cf18e45fb85949087a4a15f28d4600a9b953bf353ac9785fdcdfd20fad867f8e6a0700000000001600149725b3cfddf6435270921cd31786a73dd43eb91c02483045022100e6b9159945563e3f3d1cfe48f4aef09abf1a838ab0e9d5ce4dd4f085fb837c15022030a19eb9a16f1b3dea283b63366602e48239c3910ba842a81828e55d8adf3efc0121023b356dcb55035f542bdef5da39cf1246523fd76a2ecf507ded59d5d8107fb4eb00000000"
}