{
  "txid": "89d70619c8bac49ccdea66141c7e319f00d7577e0236496b83b122899a03c860",
  "version": 2,
  "locktime": 834458,
  "vin": [
    {
      "txid": "377fc54a980a6c25e4d07723437c3caa12108d39f3567d2c0f4487c15a09d504",
      "vout": 0,
      "prevout": {
        "scriptpubkey": "00147f8b9d9a404b20243d77734aabee520f41c14302",
        "scriptpubkey_asm": "OP_0 OP_PUSHBYTES_20 7f8b9d9a404b20243d77734aabee520f41c14302",
        "scriptpubkey_type": "v0_p2wpkh",
        "scriptpubkey_address": "bc1q079emxjqfvszg0thwd92hmjjpaquzscz3r8qd5",
        "value": 9768
      },
      "scriptsig": "",
      "scriptsig_asm": "",
      "witness": [
        "3044022060ef49a252e5d2d095149079ec6262d8b0f9fb880421a71b2fb02bbe6f5b2e86022006273c553e81dd80c6ab3f5659a9e31786d000fdceaf7a5f8fc93e7b228a654e01",
        "0384f8ca6441d80e68396c58dc806c5f196c0f67fd7185de4ab10a299ffeb2994a"
      ],
      "is_coinbase": false,
      "sequence": 4294967293
    }
  ],
  "vout": [
    {
      "scriptpubkey": "76a914031a588c3c9741c48aedf46c03946de2c38841c288ac",
      "scriptpubkey_asm": "OP_DUP OP_HASH160 OP_PUSHBYTES_20 031a588c3c9741c48aedf46c03946de2c38841c2 OP_EQUALVERIFY OP_CHECKSIG",
      "scriptpubkey_type": "p2pkh",
      "scriptpubkey_address": "1HQb7xiDGhc6P8DXuUf8ctnfsNVhK9Nwd",
      "value": 3030
    },
    {
      "scriptpubkey": "00140d03f0e4c17dc38ec7d6b00ee0a95628b2da58f1",
      "scriptpubkey_asm": "OP_0 OP_PUSHBYTES_20 0d03f0e4c17dc38ec7d6b00ee0a95628b2da58f1",
      "scriptpubkey_type": "v0_p2wpkh",
      "scriptpubkey_address": "bc1qp5plpexp0hpca37kkq8wp22k9zed5k83dudpeu",
      "value": 4860
    }
  ],
  "size": 225,
  "weight": 573,
  "fee": 1878,
  "status": {
    "confirmed": true,
    "block_height": 834460,
    "block_hash": "00000000000000000000484a79b643b2524bbce82e5d8a442013fa5b8905ed98",
    "block_time": 1710307468
  },
  "hex": "0200000000010104d5095ac187440f2c7d56f3398d1012aa3c7c432377d0e4256c0a984ac57f370000000000fdffffff02d60b0000000000001976a914031a588c3c9741c48aedf46c03946de2c38841c288acfc120000000000001600140d03f0e4c17dc38ec7d6b00ee0a95628b2da58f102473044022060ef49a252e5d2d095149079ec6262d8b0f9fb880421a71b2fb02bbe6f5b2e86022006273c553e81dd80c6ab3f5659a9e31786d000fdceaf7a5f8fc93e7b228a654e01210384f8ca6441d80e68396c58dc806c5f196c0f67fd7185de4ab10a299ffeb2994a9abb0c00"
}