{
  "txid": "89d88aa4701fc8afe67b6871c3cae0070c79900a4c0ca2eeb0aa11d6b453dd0f",
  "version": 2,
  "locktime": 0,
  "vin": [
    {
      "txid": "ce7b60a823836799be552b363b3206d4c3207cf4557c119df33f2d239f07206e",
      "vout": 1,
      "prevout": {
        "scriptpubkey": "0014a9ed37f972a4ccb282385b51a51940c274d240e6",
        "scriptpubkey_asm": "OP_0 OP_PUSHBYTES_20 a9ed37f972a4ccb282385b51a51940c274d240e6",
        "scriptpubkey_type": "v0_p2wpkh",
        "scriptpubkey_address": "bc1q48kn07tj5nxt9q3ctdg62x2qcf6dys8xjk99g8",
        "value": 252156330
      },
      "scriptsig": "",
      "scriptsig_asm": "",
      "witness": [
        "304502210085d78798ee1a14563aefb8621877eecac3495277b6ca71c10569e035a7694b040220499a65cb7086fa3a91a95b0cb71639cd6396e31e9a3c8e2140785ad15917328d01",
        "02999bda5de9b853a08ad1202a44ca60a0f749fb370fd1d7a7602b824109da84f8"
      ],
      "is_coinbase": false,
      "sequence": 4294967293
    }
  ],
  "vout": [
    {
      "scriptpubkey": "76a914e413cd0f13f3f819b3a77697ed6fc3d5e22479aa88ac",
      "scriptpubkey_asm": "OP_DUP OP_HASH160 OP_PUSHBYTES_20 e413cd0f13f3f819b3a77697ed6fc3d5e22479aa OP_EQUALVERIFY OP_CHECKSIG",
      "scriptpubkey_type": "p2pkh",
      "scriptpubkey_address": "1MnxnY5Aijm4XbbqkVe1S72AyF2Tto3Bjz",
      "value": 408931
    },
    {
      "scriptpubkey": "00145416aeaadd13713c0028804098ead255a030eb86",
      "scriptpubkey_asm": "OP_0 OP_PUSHBYTES_20 5416aeaadd13713c0028804098ead255a030eb86",
      "scriptpubkey_type": "v0_p2wpkh",
      "scriptpubkey_address": "bc1q2st2a2kazdcncqpgspqf36kj2ksrp6uxnpx6ss",
      "value": 251742842
    }
  ],
  "size": 226,
  "weight": 574,
  "fee": 4557,
  "status": {
    "confirmed": true,
    "block_height": 834638,
    "block_hash": "000000000000000000025f742c626208ac87e0b7d15054abb4a19ca2d735a54e",
    "block_time": 1710405325
  },
  "hex": "020000000001016e20079f232d3ff39d117c55f47c20c3d406323b362b55be99678323a8607bce0100000000fdffffff02633d0600000000001976a914e413cd0f13f3f819b3a77697ed6fc3d5e22479aa88ac7a4a010f000000001600145416aeaadd13713c0028804098ead255a030eb860248304502210085d78798ee1a14563aefb8621877eecac3495277b6ca71c10569e035a7694b040220499a65cb7086fa3a91a95b0cb71639cd6396e31e9a3c8e2140785ad15917328d012102999bda5de9b853a08ad1202a44ca60a0f749fb370fd1d7a7602b824109da84f800000000"
}