{
  "txid": "89daa601b73311e42dee11cd34c8c16e2432471bc8b8f3d27a413fb4c59dd6dd",
  "version": 1,
  "locktime": 0,
  "vin": [
    {
      "txid": "11954c3dfe207fd19c847975a0e846c71252192d48180aaad9bf0eb55185ec0b",
      "vout": 1,
      "prevout": {
        "scriptpubkey": "00143f3e9fc7b0cfff4a9007cec482afb815d44be4f6",
        "scriptpubkey_asm": "OP_0 OP_PUSHBYTES_20 3f3e9fc7b0cfff4a9007cec482afb815d44be4f6",
        "scriptpubkey_type": "v0_p2wpkh",
        "scriptpubkey_address": "bc1q8ulfl3asell54yq8emzg9taczh2yhe8kwlpl2f",
        "value": 3975933
      },
      "scriptsig": "",
      "scriptsig_asm": "",
      "witness": [
        "3045022100d03ff2f882745aa51a693b16631d7b836b6f016a9266beca8d5668fcb77f9747022058be8b745d035c6d31e8238836cee041089ca72d6a9a911d39250d04bbdcb00b01",
        "029e7f5e9d74a504d59e019d24f94c5af53a111e5ec4603bb726d80c9112e70876"
      ],
      "is_coinbase": false,
      "sequence": 4294967295
    }
  ],
  "vout": [
    {
      "scriptpubkey": "76a914f8d22526e4a7c392989b8c615da04adedd1b187988ac",
      "scriptpubkey_asm": "OP_DUP OP_HASH160 OP_PUSHBYTES_20 f8d22526e4a7c392989b8c615da04adedd1b1879 OP_EQUALVERIFY OP_CHECKSIG",
      "scriptpubkey_type": "p2pkh",
      "scriptpubkey_address": "1PgeKiN9p9DxBsEGQhYJ7qcdmcDCc4wDQU",
      "value": 1500000
    },
    {
      "scriptpubkey": "00143f3e9fc7b0cfff4a9007cec482afb815d44be4f6",
      "scriptpubkey_asm": "OP_0 OP_PUSHBYTES_20 3f3e9fc7b0cfff4a9007cec482afb815d44be4f6",
      "scriptpubkey_type": "v0_p2wpkh",
      "scriptpubkey_address": "bc1q8ulfl3asell54yq8emzg9taczh2yhe8kwlpl2f",
      "value": 2472045
    }
  ],
  "size": 226,
  "weight": 574,
  "fee": 3888,
  "status": {
    "confirmed": true,
    "block_height": 834638,
    "block_hash": "000000000000000000025f742c626208ac87e0b7d15054abb4a19ca2d735a54e",
    "block_time": 1710405325
  },
  "hex": "010000000001010bec8551b50ebfd9aa0a18482d195212c746e8a07579849cd17f20fe3d4c95110100000000ffffffff0260e31600000000001976a914f8d22526e4a7c392989b8c615da04adedd1b187988ac6db82500000000001600143f3e9fc7b0cfff4a9007cec482afb815d44be4f602483045022100d03ff2f882745aa51a693b16631d7b836b6f016a9266beca8d5668fcb77f9747022058be8b745d035c6d31e8238836cee041089ca72d6a9a911d39250d04bbdcb00b0121029e7f5e9d74a504d59e019d24f94c5af53a111e5ec4603bb726d80c9112e7087600000000"
}