{
  "txid": "89e0764625c9cb43c175bf4a2aef78f2c8b557243f37ffce7842b6ad2eb31adf",
  "version": 1,
  "locktime": 0,
  "vin": [
    {
      "txid": "1caf74ee0764935d56710d3e5f0c5d52c9e93311a471165eabf4a872e4a5ca1e",
      "vout": 0,
      "prevout": {
        "scriptpubkey": "0014d79ca3bbd8a55e283af19e2bf881721cf2a63c11",
        "scriptpubkey_asm": "OP_0 OP_PUSHBYTES_20 d79ca3bbd8a55e283af19e2bf881721cf2a63c11",
        "scriptpubkey_type": "v0_p2wpkh",
        "scriptpubkey_address": "bc1q67w28w7c540zswh3nc4l3qtjrne2v0q3wrwe78",
        "value": 3411000
      },
      "scriptsig": "",
      "scriptsig_asm": "",
      "witness": [
        "30440220768cb85ee706fcc09f9fb1bc3e6ec2c198ebe0229609ab966e2f6e6f19441bbc02203f7e9c5226d12627f804001cdeeb4b592e75f3964be504b9a041d855ebe3d88901",
        "02bd18b98dd78f14b6b16bf2c7a93d797116a305f4f2dac107770825f144e2f2ce"
      ],
      "is_coinbase": false,
      "sequence": 4294967295
    },
    {
      "txid": "fcd72b60ba82ae145c393320d441ae9dcf3cd3bb471aeb0314542ad5daabc875",
      "vout": 0,
      "prevout": {
        "scriptpubkey": "0014f04a8876f9c99db15aa1e801bdbdb3775a8b720c",
        "scriptpubkey_asm": "OP_0 OP_PUSHBYTES_20 f04a8876f9c99db15aa1e801bdbdb3775a8b720c",
        "scriptpubkey_type": "v0_p2wpkh",
        "scriptpubkey_address": "bc1q7p9gsaheexwmzk4paqqmm0dnwadgkusv7qrg9c",
        "value": 1233862
      },
      "scriptsig": "",
      "scriptsig_asm": "",
      "witness": [
        "3045022100b36b71bc2675e644d7f4930f8a6fece0356ad15bf3b6608cc15c405239dcfdf402207724c48dc03182e2cc2be2c66d3aff6e1262d7667442f3740cf87f304b0536c501",
        "03e1fde5a23bf7daefd96693782d4047d4c096c261075516151a60037cd646f11b"
      ],
      "is_coinbase": false,
      "sequence": 4294967295
    }
  ],
  "vout": [
    {
      "scriptpubkey": "0014ff00857ea3518cef242ff35503eaed7a6e28e227",
      "scriptpubkey_asm": "OP_0 OP_PUSHBYTES_20 ff00857ea3518cef242ff35503eaed7a6e28e227",
      "scriptpubkey_type": "v0_p2wpkh",
      "scriptpubkey_address": "bc1qluqg2l4r2xxw7fp07d2s86hd0fhz3c38fmy69l",
      "value": 508712
    },
    {
      "scriptpubkey": "0014976d4f739ee38fb4aaf998c5da016ba33974e966",
      "scriptpubkey_asm": "OP_0 OP_PUSHBYTES_20 976d4f739ee38fb4aaf998c5da016ba33974e966",
      "scriptpubkey_type": "v0_p2wpkh",
      "scriptpubkey_address": "bc1qjak57uu7uw8mf2henrza5qtt5vuhf6txaavwct",
      "value": 4133000
    }
  ],
  "size": 371,
  "weight": 833,
  "fee": 3150,
  "status": {
    "confirmed": true,
    "block_height": 834638,
    "block_hash": "000000000000000000025f742c626208ac87e0b7d15054abb4a19ca2d735a54e",
    "block_time": 1710405325
  },
  "hex": "010000000001021ecaa5e472a8f4ab5e1671a41133e9c9525d0c5f3e0d71565d936407ee74af1c0000000000ffffffff75c8abdad52a541403eb1a47bbd33ccf9dae41d42033395c14ae82ba602bd7fc0000000000ffffffff0228c3070000000000160014ff00857ea3518cef242ff35503eaed7a6e28e22788103f0000000000160014976d4f739ee38fb4aaf998c5da016ba33974e966024730440220768cb85ee706fcc09f9fb1bc3e6ec2c198ebe0229609ab966e2f6e6f19441bbc02203f7e9c5226d12627f804001cdeeb4b592e75f3964be504b9a041d855ebe3d889012102bd18b98dd78f14b6b16bf2c7a93d797116a305f4f2dac107770825f144e2f2ce02483045022100b36b71bc2675e644d7f4930f8a6fece0356ad15bf3b6608cc15c405239dcfdf402207724c48dc03182e2cc2be2c66d3aff6e1262d7667442f3740cf87f304b0536c5012103e1fde5a23bf7daefd96693782d4047d4c096c261075516151a60037cd646f11b00000000"
}