{
  "txid": "89e1a2dc4491c787b59afc4fcce6683038bea98fb0a7e1db598c5eb775c20085",
  "version": 2,
  "locktime": 834637,
  "vin": [
    {
      "txid": "05b0ab9e186a891133458510c8dddf7912bbbaf930637f0467247c0229808fa0",
      "vout": 0,
      "prevout": {
        "scriptpubkey": "0014ce0f747a2e4dc15e77c16d6389c4df6bd2c3cd51",
        "scriptpubkey_asm": "OP_0 OP_PUSHBYTES_20 ce0f747a2e4dc15e77c16d6389c4df6bd2c3cd51",
        "scriptpubkey_type": "v0_p2wpkh",
        "scriptpubkey_address": "bc1qec8hg73wfhq4ua7pd43cn3xld0fv8n236kghc2",
        "value": 264469310
      },
      "scriptsig": "",
      "scriptsig_asm": "",
      "witness": [
        "3044022038f80ed6836df2d82748d4355c30bd8a38d912cddcbee633e54fee85852e1ce202203c90bc459e37e09807540fe07fd6afb692d89dea941004687ce64174b56efa0801",
        "0350ae52918861610e0641b8e37cd0268385514facaaeb706bcf6af36fdecd91e2"
      ],
      "is_coinbase": false,
      "sequence": 4294967294
    }
  ],
  "vout": [
    {
      "scriptpubkey": "76a914b7c45b0716144bc9fb8628fc36e963b640ba5f9c88ac",
      "scriptpubkey_asm": "OP_DUP OP_HASH160 OP_PUSHBYTES_20 b7c45b0716144bc9fb8628fc36e963b640ba5f9c OP_EQUALVERIFY OP_CHECKSIG",
      "scriptpubkey_type": "p2pkh",
      "scriptpubkey_address": "1Hkft8X4hAAiHD2fs4CgDcywhu5entzqhx",
      "value": 1100600
    },
    {
      "scriptpubkey": "0014fd725ac58a916f63888f9f444e168cd4dea235d9",
      "scriptpubkey_asm": "OP_0 OP_PUSHBYTES_20 fd725ac58a916f63888f9f444e168cd4dea235d9",
      "scriptpubkey_type": "v0_p2wpkh",
      "scriptpubkey_address": "bc1ql4e943v2j9hk8zy0nazyu95v6n02ydwenus37j",
      "value": 263365180
    }
  ],
  "size": 225,
  "weight": 573,
  "fee": 3530,
  "status": {
    "confirmed": true,
    "block_height": 834638,
    "block_hash": "000000000000000000025f742c626208ac87e0b7d15054abb4a19ca2d735a54e",
    "block_time": 1710405325
  },
  "hex": "02000000000101a08f8029027c2467047f6330f9babb1279dfddc81085453311896a189eabb0050000000000feffffff0238cb1000000000001976a914b7c45b0716144bc9fb8628fc36e963b640ba5f9c88ac3ca2b20f00000000160014fd725ac58a916f63888f9f444e168cd4dea235d902473044022038f80ed6836df2d82748d4355c30bd8a38d912cddcbee633e54fee85852e1ce202203c90bc459e37e09807540fe07fd6afb692d89dea941004687ce64174b56efa0801210350ae52918861610e0641b8e37cd0268385514facaaeb706bcf6af36fdecd91e24dbc0c00"
}