{
  "txid": "89ed49b703083dd2c866865e8bc0f626556708e73104c12e04b293850b5ae418",
  "version": 2,
  "locktime": 0,
  "vin": [
    {
      "txid": "767b17e6868eb54efb3692e01fdafc2acd2bef87c0780d94d0e321104524e508",
      "vout": 5,
      "prevout": {
        "scriptpubkey": "51207297ccb59d2b74382cae2bd46312305e6b417c84a3c606236062534d1c6cce29",
        "scriptpubkey_asm": "OP_PUSHNUM_1 OP_PUSHBYTES_32 7297ccb59d2b74382cae2bd46312305e6b417c84a3c606236062534d1c6cce29",
        "scriptpubkey_type": "v1_p2tr",
        "scriptpubkey_address": "bc1pw2tuedva9d6rst9w902xxy3ste45zlyy50rqvgmqvff568rvec5s89c7tq",
        "value": 6977036
      },
      "scriptsig": "",
      "scriptsig_asm": "",
      "witness": [
        "c3cbbae07059123913499af207b0a8eded98beb174235c348692580dbdd93810e36e29a6d91443ffb06a9c3272b83e9c7f7ee085ee88e9fe87fb85cf02e5d0e0"
      ],
      "is_coinbase": false,
      "sequence": 4294967295
    },
    {
      "txid": "217cc8662b2f4e33a1b0c06f523f2837eab5ac408e9b2b4d1c3d1b7bf62bfb3b",
      "vout": 5,
      "prevout": {
        "scriptpubkey": "51207297ccb59d2b74382cae2bd46312305e6b417c84a3c606236062534d1c6cce29",
        "scriptpubkey_asm": "OP_PUSHNUM_1 OP_PUSHBYTES_32 7297ccb59d2b74382cae2bd46312305e6b417c84a3c606236062534d1c6cce29",
        "scriptpubkey_type": "v1_p2tr",
        "scriptpubkey_address": "bc1pw2tuedva9d6rst9w902xxy3ste45zlyy50rqvgmqvff568rvec5s89c7tq",
        "value": 192126
      },
      "scriptsig": "",
      "scriptsig_asm": "",
      "witness": [
        "1e91053920a8ab6bc89b9f24db28714088a14da1b1c011881d36ae750965376feb28bac26848265ee3222d8774398ee94e3ebcdce7c1c6b3048331fb91cce8c5"
      ],
      "is_coinbase": false,
      "sequence": 4294967295
    }
  ],
  "vout": [
    {
      "scriptpubkey": "51207297ccb59d2b74382cae2bd46312305e6b417c84a3c606236062534d1c6cce29",
      "scriptpubkey_asm": "OP_PUSHNUM_1 OP_PUSHBYTES_32 7297ccb59d2b74382cae2bd46312305e6b417c84a3c606236062534d1c6cce29",
      "scriptpubkey_type": "v1_p2tr",
      "scriptpubkey_address": "bc1pw2tuedva9d6rst9w902xxy3ste45zlyy50rqvgmqvff568rvec5s89c7tq",
      "value": 600
    },
    {
      "scriptpubkey": "51207297ccb59d2b74382cae2bd46312305e6b417c84a3c606236062534d1c6cce29",
      "scriptpubkey_asm": "OP_PUSHNUM_1 OP_PUSHBYTES_32 7297ccb59d2b74382cae2bd46312305e6b417c84a3c606236062534d1c6cce29",
      "scriptpubkey_type": "v1_p2tr",
      "scriptpubkey_address": "bc1pw2tuedva9d6rst9w902xxy3ste45zlyy50rqvgmqvff568rvec5s89c7tq",
      "value": 600
    },
    {
      "scriptpubkey": "51207297ccb59d2b74382cae2bd46312305e6b417c84a3c606236062534d1c6cce29",
      "scriptpubkey_asm": "OP_PUSHNUM_1 OP_PUSHBYTES_32 7297ccb59d2b74382cae2bd46312305e6b417c84a3c606236062534d1c6cce29",
      "scriptpubkey_type": "v1_p2tr",
      "scriptpubkey_address": "bc1pw2tuedva9d6rst9w902xxy3ste45zlyy50rqvgmqvff568rvec5s89c7tq",
      "value": 7163898
    }
  ],
  "size": 355,
  "weight": 1018,
  "fee": 4064,
  "status": {
    "confirmed": true,
    "block_height": 834638,
    "block_hash": "000000000000000000025f742c626208ac87e0b7d15054abb4a19ca2d735a54e",
    "block_time": 1710405325
  },
  "hex": "0200000000010208e524451021e3d0940d78c087ef2bcd2afcda1fe09236fb4eb58e86e6177b760500000000ffffffff3bfb2bf67b1b3d1c4d2b9b8e40acb5ea37283f526fc0b0a1334e2f2b66c87c210500000000ffffffff0358020000000000002251207297ccb59d2b74382cae2bd46312305e6b417c84a3c606236062534d1c6cce2958020000000000002251207297ccb59d2b74382cae2bd46312305e6b417c84a3c606236062534d1c6cce29fa4f6d00000000002251207297ccb59d2b74382cae2bd46312305e6b417c84a3c606236062534d1c6cce290140c3cbbae07059123913499af207b0a8eded98beb174235c348692580dbdd93810e36e29a6d91443ffb06a9c3272b83e9c7f7ee085ee88e9fe87fb85cf02e5d0e001401e91053920a8ab6bc89b9f24db28714088a14da1b1c011881d36ae750965376feb28bac26848265ee3222d8774398ee94e3ebcdce7c1c6b3048331fb91cce8c500000000"
}