{
  "txid": "89edfd3453a10f6ce442b656437923479ca3b35b820f4ecac1c1b6e82cc93b5a",
  "version": 2,
  "locktime": 0,
  "vin": [
    {
      "txid": "dc6b9976ebadd3c0b67ad59f82f4246dcc22e25f6c2587ef4c913cc79ca5818a",
      "vout": 0,
      "prevout": {
        "scriptpubkey": "512022666d52623c417e430b10a1d68053ce2343189f8ee955c6ef9eaa528c4d179a",
        "scriptpubkey_asm": "OP_PUSHNUM_1 OP_PUSHBYTES_32 22666d52623c417e430b10a1d68053ce2343189f8ee955c6ef9eaa528c4d179a",
        "scriptpubkey_type": "v1_p2tr",
        "scriptpubkey_address": "bc1pyfnx65nz83qhusctzzsadqznec35xxyl3m54t3h0n6499rzdz7dq09eg35",
        "value": 1000
      },
      "scriptsig": "",
      "scriptsig_asm": "",
      "witness": [
        "a5a65a02f33fddd39073a88174f12cb16530389e2e79e00e07cb3f13bea9760b7c388f066425ee23270c4126d812ec208e75865b9ee561356c328b95e102d50d"
      ],
      "is_coinbase": false,
      "sequence": 4294967295
    },
    {
      "txid": "06709fb70ea9ccaf111adc7beccd278ec67a45195bd428ba6938d71158035774",
      "vout": 1,
      "prevout": {
        "scriptpubkey": "512022666d52623c417e430b10a1d68053ce2343189f8ee955c6ef9eaa528c4d179a",
        "scriptpubkey_asm": "OP_PUSHNUM_1 OP_PUSHBYTES_32 22666d52623c417e430b10a1d68053ce2343189f8ee955c6ef9eaa528c4d179a",
        "scriptpubkey_type": "v1_p2tr",
        "scriptpubkey_address": "bc1pyfnx65nz83qhusctzzsadqznec35xxyl3m54t3h0n6499rzdz7dq09eg35",
        "value": 389065
      },
      "scriptsig": "",
      "scriptsig_asm": "",
      "witness": [
        "9e629c56b60fa86b323d840a1235c2ddd78c2e094c12b0652fc518495cd0d81216601643c38b18f3a79a68b66ae8d707555f1d027d792f67779c390dc2e63f13"
      ],
      "is_coinbase": false,
      "sequence": 4294967295
    }
  ],
  "vout": [
    {
      "scriptpubkey": "5120fe9c7cc610903d401365536b27cf93179f8711831e020d9ae8a04554ca56a53a",
      "scriptpubkey_asm": "OP_PUSHNUM_1 OP_PUSHBYTES_32 fe9c7cc610903d401365536b27cf93179f8711831e020d9ae8a04554ca56a53a",
      "scriptpubkey_type": "v1_p2tr",
      "scriptpubkey_address": "bc1pl6w8e3ssjq75qym92d4j0nunz70cwyvrrcpqmxhg5pz4fjjk55aq5fpaf3",
      "value": 1000
    },
    {
      "scriptpubkey": "512022666d52623c417e430b10a1d68053ce2343189f8ee955c6ef9eaa528c4d179a",
      "scriptpubkey_asm": "OP_PUSHNUM_1 OP_PUSHBYTES_32 22666d52623c417e430b10a1d68053ce2343189f8ee955c6ef9eaa528c4d179a",
      "scriptpubkey_type": "v1_p2tr",
      "scriptpubkey_address": "bc1pyfnx65nz83qhusctzzsadqznec35xxyl3m54t3h0n6499rzdz7dq09eg35",
      "value": 386309
    }
  ],
  "size": 312,
  "weight": 846,
  "fee": 2756,
  "status": {
    "confirmed": true,
    "block_height": 834464,
    "block_hash": "0000000000000000000177a0869a911a2b65c9bdcd5a8bcb02b68f305bee848e",
    "block_time": 1710308296
  },
  "hex": "020000000001028a81a59cc73c914cef87256c5fe222cc6d24f4829fd57ab6c0d3adeb76996bdc0000000000ffffffff7457035811d73869ba28d45b19457ac68e27cdec7bdc1a11afcca90eb79f70060100000000ffffffff02e803000000000000225120fe9c7cc610903d401365536b27cf93179f8711831e020d9ae8a04554ca56a53a05e505000000000022512022666d52623c417e430b10a1d68053ce2343189f8ee955c6ef9eaa528c4d179a0140a5a65a02f33fddd39073a88174f12cb16530389e2e79e00e07cb3f13bea9760b7c388f066425ee23270c4126d812ec208e75865b9ee561356c328b95e102d50d01409e629c56b60fa86b323d840a1235c2ddd78c2e094c12b0652fc518495cd0d81216601643c38b18f3a79a68b66ae8d707555f1d027d792f67779c390dc2e63f1300000000"
}