{
  "txid": "8a05f652b44f71aad20f58a04644f00f6ba6c8426d02373b841740cedd89ab9d",
  "version": 2,
  "locktime": 0,
  "vin": [
    {
      "txid": "e6afba12b462921cbe7c47280a7058bef1b510e2714bbd2108ab4d371a035da6",
      "vout": 1,
      "prevout": {
        "scriptpubkey": "5120c87666374d225bd91ebc67189eade4f4aa0f26886c7f75e5e7de6d2372389cc6",
        "scriptpubkey_asm": "OP_PUSHNUM_1 OP_PUSHBYTES_32 c87666374d225bd91ebc67189eade4f4aa0f26886c7f75e5e7de6d2372389cc6",
        "scriptpubkey_type": "v1_p2tr",
        "scriptpubkey_address": "bc1pepmxvd6dyfdaj84uvuvfat0y7j4q7f5gd3lhte08mekjxu3cnnrq9w93cl",
        "value": 10416385
      },
      "scriptsig": "",
      "scriptsig_asm": "",
      "witness": [
        "8096acc18c484bc20945df86aa20cb33583b9143e7b80c14b859a9861e98b246e6bca2b6dc733795b774dc95de51b0591a5bc470b44b12cb173d43fe98b9d0b5"
      ],
      "is_coinbase": false,
      "sequence": 4294967295
    }
  ],
  "vout": [
    {
      "scriptpubkey": "a914dc628961801766372f426bfd45630efd337275d587",
      "scriptpubkey_asm": "OP_HASH160 OP_PUSHBYTES_20 dc628961801766372f426bfd45630efd337275d5 OP_EQUAL",
      "scriptpubkey_type": "p2sh",
      "scriptpubkey_address": "3MnJdC7p4VDURx9hWSG9GpywDPPixn5s9R",
      "value": 141184
    },
    {
      "scriptpubkey": "00148f49e84e73796be6e8ca514c936ee1e5671ba593",
      "scriptpubkey_asm": "OP_0 OP_PUSHBYTES_20 8f49e84e73796be6e8ca514c936ee1e5671ba593",
      "scriptpubkey_type": "v0_p2wpkh",
      "scriptpubkey_address": "bc1q3ay7snnn0947d6x229xfxmhpu4n3hfvne2x4cf",
      "value": 32715
    },
    {
      "scriptpubkey": "00141ea6701cc334f9b316d378ea2a3ab10336bc0a20",
      "scriptpubkey_asm": "OP_0 OP_PUSHBYTES_20 1ea6701cc334f9b316d378ea2a3ab10336bc0a20",
      "scriptpubkey_type": "v0_p2wpkh",
      "scriptpubkey_address": "bc1qr6n8q8xrxnumx9kn0r4z5w43qvmtcz3q8hdy35",
      "value": 38954
    },
    {
      "scriptpubkey": "0014f11218ef00179e47c4a24dad70c0a094538a976a",
      "scriptpubkey_asm": "OP_0 OP_PUSHBYTES_20 f11218ef00179e47c4a24dad70c0a094538a976a",
      "scriptpubkey_type": "v0_p2wpkh",
      "scriptpubkey_address": "bc1q7yfp3mcqz70y039zfkkhps9qj3fc49m20d9sq4",
      "value": 61645
    },
    {
      "scriptpubkey": "5120c87666374d225bd91ebc67189eade4f4aa0f26886c7f75e5e7de6d2372389cc6",
      "scriptpubkey_asm": "OP_PUSHNUM_1 OP_PUSHBYTES_32 c87666374d225bd91ebc67189eade4f4aa0f26886c7f75e5e7de6d2372389cc6",
      "scriptpubkey_type": "v1_p2tr",
      "scriptpubkey_address": "bc1pepmxvd6dyfdaj84uvuvfat0y7j4q7f5gd3lhte08mekjxu3cnnrq9w93cl",
      "value": 10137384
    }
  ],
  "size": 287,
  "weight": 944,
  "fee": 4503,
  "status": {
    "confirmed": true,
    "block_height": 834638,
    "block_hash": "000000000000000000025f742c626208ac87e0b7d15054abb4a19ca2d735a54e",
    "block_time": 1710405325
  },
  "hex": "02000000000101a65d031a374dab0821bd4b71e210b5f1be58700a28477cbe1c9262b412baafe60100000000ffffffff05802702000000000017a914dc628961801766372f426bfd45630efd337275d587cb7f0000000000001600148f49e84e73796be6e8ca514c936ee1e5671ba5932a980000000000001600141ea6701cc334f9b316d378ea2a3ab10336bc0a20cdf0000000000000160014f11218ef00179e47c4a24dad70c0a094538a976a28af9a0000000000225120c87666374d225bd91ebc67189eade4f4aa0f26886c7f75e5e7de6d2372389cc601408096acc18c484bc20945df86aa20cb33583b9143e7b80c14b859a9861e98b246e6bca2b6dc733795b774dc95de51b0591a5bc470b44b12cb173d43fe98b9d0b500000000"
}