{
  "txid": "8a160b1143d1c2d99e83c011c8faf7474e6b796a7fd3d28544ec086ac9d29854",
  "version": 1,
  "locktime": 0,
  "vin": [
    {
      "txid": "ce4602228db69d0c4bdaa62784bb0fa9f857fe9d53247f24f9d930c45a3ca431",
      "vout": 128,
      "prevout": {
        "scriptpubkey": "0014b29a984c14ab0c9cfa2227cc3c95c300d9a6982c",
        "scriptpubkey_asm": "OP_0 OP_PUSHBYTES_20 b29a984c14ab0c9cfa2227cc3c95c300d9a6982c",
        "scriptpubkey_type": "v0_p2wpkh",
        "scriptpubkey_address": "bc1qk2dfsnq54vxfe73zylxre9wrqrv6dxpvxdt323",
        "value": 162429
      },
      "scriptsig": "",
      "scriptsig_asm": "",
      "witness": [
        "3045022100e98fb18000170e785d041fd0e6a428e1ae2d0133a3af7b7d2d15ef024c242cc702204a6355160090bdcf9e5caf7ebf404b8be2bef5dfaa2810cc306b62b98555569b01",
        "029a8ce354310cf49a46d771d5f8689f9e73726064ce358fc53c2bf4fc17adc335"
      ],
      "is_coinbase": false,
      "sequence": 4294967295
    }
  ],
  "vout": [
    {
      "scriptpubkey": "76a9145dba9e7bba3aee0a13d2915cb4524bb9c975213a88ac",
      "scriptpubkey_asm": "OP_DUP OP_HASH160 OP_PUSHBYTES_20 5dba9e7bba3aee0a13d2915cb4524bb9c975213a OP_EQUALVERIFY OP_CHECKSIG",
      "scriptpubkey_type": "p2pkh",
      "scriptpubkey_address": "19YbQMw6Z5eHXEW64YhCKPGYL9oD6qZPKY",
      "value": 159378
    }
  ],
  "size": 195,
  "weight": 450,
  "fee": 3051,
  "status": {
    "confirmed": true,
    "block_height": 834638,
    "block_hash": "000000000000000000025f742c626208ac87e0b7d15054abb4a19ca2d735a54e",
    "block_time": 1710405325
  },
  "hex": "0100000000010131a43c5ac430d9f9247f24539dfe57f8a90fbb8427a6da4b0c9db68d220246ce8000000000ffffffff01926e0200000000001976a9145dba9e7bba3aee0a13d2915cb4524bb9c975213a88ac02483045022100e98fb18000170e785d041fd0e6a428e1ae2d0133a3af7b7d2d15ef024c242cc702204a6355160090bdcf9e5caf7ebf404b8be2bef5dfaa2810cc306b62b98555569b0121029a8ce354310cf49a46d771d5f8689f9e73726064ce358fc53c2bf4fc17adc33500000000"
}