{
  "txid": "8a26a0852b5240947925b864d91db59995cbf1158ad0189e108452c5e96bb477",
  "version": 2,
  "locktime": 0,
  "vin": [
    {
      "txid": "5c451836809f97ec5f99e6248305667bac62e94b1a77262b2651ca4eee42ea35",
      "vout": 24,
      "prevout": {
        "scriptpubkey": "0014cd0447af5e3a08cb12a7a6e8ea68081ef5b119ef",
        "scriptpubkey_asm": "OP_0 OP_PUSHBYTES_20 cd0447af5e3a08cb12a7a6e8ea68081ef5b119ef",
        "scriptpubkey_type": "v0_p2wpkh",
        "scriptpubkey_address": "bc1qe5zy0t678gyvky485m5w56qgrm6mzx00msthe8",
        "value": 54560
      },
      "scriptsig": "",
      "scriptsig_asm": "",
      "witness": [
        "3045022100f2e6e7056a099039cf34644b84b0ed511837c65befd21c1a51ae706c8bb724d4022020b9c44cf632e376ec4c2382603d53601c37f35b25998484912e757c6481748801",
        "03a1ccb4f01d76869542173e7483b969afc49c0ae2f960a81ab779a43febd6240c"
      ],
      "is_coinbase": false,
      "sequence": 4294967295
    }
  ],
  "vout": [
    {
      "scriptpubkey": "a914daf9d7e02386317746a396769b2bbfdc4323922e87",
      "scriptpubkey_asm": "OP_HASH160 OP_PUSHBYTES_20 daf9d7e02386317746a396769b2bbfdc4323922e OP_EQUAL",
      "scriptpubkey_type": "p2sh",
      "scriptpubkey_address": "3MerXn2NmqGkcBrdpae4mhfPfpf22JxMom",
      "value": 51869
    }
  ],
  "size": 193,
  "weight": 442,
  "fee": 2691,
  "status": {
    "confirmed": true,
    "block_height": 834460,
    "block_hash": "00000000000000000000484a79b643b2524bbce82e5d8a442013fa5b8905ed98",
    "block_time": 1710307468
  },
  "hex": "0200000000010135ea42ee4eca51262b26771a4be962ac7b66058324e6995fec979f803618455c1800000000ffffffff019dca00000000000017a914daf9d7e02386317746a396769b2bbfdc4323922e8702483045022100f2e6e7056a099039cf34644b84b0ed511837c65befd21c1a51ae706c8bb724d4022020b9c44cf632e376ec4c2382603d53601c37f35b25998484912e757c64817488012103a1ccb4f01d76869542173e7483b969afc49c0ae2f960a81ab779a43febd6240c00000000"
}