{
  "txid": "8a2dc1effd2eb43309862428d11c32e2076372a4c0cd4b0b8169a7a23157ee53",
  "version": 2,
  "locktime": 0,
  "vin": [
    {
      "txid": "8486ecb4df0880316dd6e82b3971b4df187aff23765bc3a47f8d78bb53aa273c",
      "vout": 114,
      "prevout": {
        "scriptpubkey": "5120d44ebb57bd22799eabafe75df3bedcadebf8aad2a164ac04fc4c984c981ace29",
        "scriptpubkey_asm": "OP_PUSHNUM_1 OP_PUSHBYTES_32 d44ebb57bd22799eabafe75df3bedcadebf8aad2a164ac04fc4c984c981ace29",
        "scriptpubkey_type": "v1_p2tr",
        "scriptpubkey_address": "bc1p638tk4aayfuea2a0uawl80ku4h4l32kj59j2cp8ufjvyexq6ec5s452hr0",
        "value": 2575
      },
      "scriptsig": "",
      "scriptsig_asm": "",
      "witness": [
        "d4fd245a3f8e6f445f2887604e91c66dd792d8a95fe90407b9f93dc0aab24d5dd3d67fce1dbafe85bde2e5d001b582f475c41cb350004f285d72d84194c6f163",
        "20b7ee439a25c2368705296fb296aa722441321a86ef3c215b89d27dc74aca471eac0063036f726401010a746578742f706c61696e00367b2270223a226272632d3230222c226f70223a226d696e74222c227469636b223a2261616161222c22616d74223a223130303030227d68",
        "c1b7ee439a25c2368705296fb296aa722441321a86ef3c215b89d27dc74aca471e"
      ],
      "is_coinbase": false,
      "sequence": 4261412863
    }
  ],
  "vout": [
    {
      "scriptpubkey": "0014ddd7ef12ea6f78edcc1e8e7afa12c01ab59f3339",
      "scriptpubkey_asm": "OP_0 OP_PUSHBYTES_20 ddd7ef12ea6f78edcc1e8e7afa12c01ab59f3339",
      "scriptpubkey_type": "v0_p2wpkh",
      "scriptpubkey_address": "bc1qmht77yh2dauwmnq73ea05ykqr26e7veea8spz6",
      "value": 546
    }
  ],
  "size": 295,
  "weight": 541,
  "fee": 2029,
  "status": {
    "confirmed": true,
    "block_height": 834460,
    "block_hash": "00000000000000000000484a79b643b2524bbce82e5d8a442013fa5b8905ed98",
    "block_time": 1710307468
  },
  "hex": "020000000001013c27aa53bb788d7fa4c35b7623ff7a18dfb471392be8d66d318008dfb4ec86847200000000fffffffd012202000000000000160014ddd7ef12ea6f78edcc1e8e7afa12c01ab59f33390340d4fd245a3f8e6f445f2887604e91c66dd792d8a95fe90407b9f93dc0aab24d5dd3d67fce1dbafe85bde2e5d001b582f475c41cb350004f285d72d84194c6f1636e20b7ee439a25c2368705296fb296aa722441321a86ef3c215b89d27dc74aca471eac0063036f726401010a746578742f706c61696e00367b2270223a226272632d3230222c226f70223a226d696e74222c227469636b223a2261616161222c22616d74223a223130303030227d6821c1b7ee439a25c2368705296fb296aa722441321a86ef3c215b89d27dc74aca471e00000000"
}