{
  "txid": "8a40e64b80a6068544de68edce9fac41e278471c86e3cef12991cb295527ceda",
  "version": 2,
  "locktime": 0,
  "vin": [
    {
      "txid": "c1663fc47afde7bbb1d83e6bc0a45340fdc5a9ebdec523fef4b51e392ed21f58",
      "vout": 14,
      "prevout": {
        "scriptpubkey": "512016ffed2348ab59d2212de84ac9bce728dffd70faf787b8969b9dbe41648b9a2e",
        "scriptpubkey_asm": "OP_PUSHNUM_1 OP_PUSHBYTES_32 16ffed2348ab59d2212de84ac9bce728dffd70faf787b8969b9dbe41648b9a2e",
        "scriptpubkey_type": "v1_p2tr",
        "scriptpubkey_address": "bc1pzml76g6g4dvaygfdap9vn0889r0l6u8677rm395mnklyzeytnghq75t6ew",
        "value": 2207
      },
      "scriptsig": "",
      "scriptsig_asm": "",
      "witness": [
        "837ca039ac2b3c3472cba058bd4587900a4931d6e9f3cd18790fb1f096f0b189b7a02c0142d19616de16dc7e87fb61f5f19be47ac02aa6de16d0a0123ce1e582",
        "207032ee843decbd988846916f2eddd8a285ad501e7faaf6837a7b83a184111f85ac0063036f7264010118746578742f706c61696e3b636861727365743d7574662d3800357b2270223a226272632d3230222c226f70223a226d696e74222c227469636b223a22646f6765222c22616d74223a2234323030227d68",
        "c179e7bed0f3caf3813f5bc798799f48026ddc2f656deda6db0c9486dd4ef951ea"
      ],
      "is_coinbase": false,
      "sequence": 4294967295
    }
  ],
  "vout": [
    {
      "scriptpubkey": "5120d5104f8c67a3c8dcf41733f38c1be1855ad29ee4847592a882747f48f31e49bd",
      "scriptpubkey_asm": "OP_PUSHNUM_1 OP_PUSHBYTES_32 d5104f8c67a3c8dcf41733f38c1be1855ad29ee4847592a882747f48f31e49bd",
      "scriptpubkey_type": "v1_p2tr",
      "scriptpubkey_address": "bc1p65gylrr850ydeaqhx0eccxlps4dd98hys36e92yzw3l53uc7fx7spxq2f0",
      "value": 546
    }
  ],
  "size": 320,
  "weight": 602,
  "fee": 1661,
  "status": {
    "confirmed": true,
    "block_height": 834464,
    "block_hash": "0000000000000000000177a0869a911a2b65c9bdcd5a8bcb02b68f305bee848e",
    "block_time": 1710308296
  },
  "hex": "02000000000101581fd22e391eb5f4fe23c5deeba9c5fd4053a4c06b3ed8b1bbe7fd7ac43f66c10e00000000ffffffff012202000000000000225120d5104f8c67a3c8dcf41733f38c1be1855ad29ee4847592a882747f48f31e49bd0340837ca039ac2b3c3472cba058bd4587900a4931d6e9f3cd18790fb1f096f0b189b7a02c0142d19616de16dc7e87fb61f5f19be47ac02aa6de16d0a0123ce1e5827b207032ee843decbd988846916f2eddd8a285ad501e7faaf6837a7b83a184111f85ac0063036f7264010118746578742f706c61696e3b636861727365743d7574662d3800357b2270223a226272632d3230222c226f70223a226d696e74222c227469636b223a22646f6765222c22616d74223a2234323030227d6821c179e7bed0f3caf3813f5bc798799f48026ddc2f656deda6db0c9486dd4ef951ea00000000"
}