{
  "txid": "8a41830affed7cfaf909813bf2844d06c74a5c2dcd8ef070db3c93ba2e0c6b3f",
  "version": 2,
  "locktime": 834636,
  "vin": [
    {
      "txid": "095f73354464bf99d8f9143db58bc358a413005824d7446031f2a778b6a79384",
      "vout": 13,
      "prevout": {
        "scriptpubkey": "0014fb23e517ea47bd6d892c0353cb73b6f16f19cbdd",
        "scriptpubkey_asm": "OP_0 OP_PUSHBYTES_20 fb23e517ea47bd6d892c0353cb73b6f16f19cbdd",
        "scriptpubkey_type": "v0_p2wpkh",
        "scriptpubkey_address": "bc1qlv3729l2g77kmzfvqdfukuak79h3nj7aa96jnj",
        "value": 466438
      },
      "scriptsig": "",
      "scriptsig_asm": "",
      "witness": [
        "304402202171b5f9594bca64395667d1b874effb50ce19f4b49178094545b641501a7c710220028f56b42ab2fd16cb8673101d14c878e15473cabbe6c822d0de997b8eb9875d01",
        "034e09f5e7c552b5be6a0d178ccc8f43310c07fe3768d5c9d1fb4cba97f079be2f"
      ],
      "is_coinbase": false,
      "sequence": 4294967293
    },
    {
      "txid": "54c57dd4c027fec7d2aaf2ec07bf10519b0e96472868239c8c86500b07f3f8d5",
      "vout": 0,
      "prevout": {
        "scriptpubkey": "001463fc4ac686659491856c498108751c1881c0af24",
        "scriptpubkey_asm": "OP_0 OP_PUSHBYTES_20 63fc4ac686659491856c498108751c1881c0af24",
        "scriptpubkey_type": "v0_p2wpkh",
        "scriptpubkey_address": "bc1qv07y435xvk2frptvfxqssagurzquptey6vs6dn",
        "value": 413689
      },
      "scriptsig": "",
      "scriptsig_asm": "",
      "witness": [
        "3044022052ffc2a10253767341976b5b67eb727f14faa8fee4bba2bfc567688d979a821102205328e409dbb3507f25a87a05966374284f58feff1d4b3e91cd41d9ea805feb6901",
        "03e89ea2eec61547faf67ae854f26050d9b54a6206f81309726aca75bbf8a2c4f1"
      ],
      "is_coinbase": false,
      "sequence": 4294967293
    },
    {
      "txid": "d6bded401702c96c1840076c4d15ab96cdf267174be2ce6a00b3db79868ebc95",
      "vout": 0,
      "prevout": {
        "scriptpubkey": "001415a94a8dd34aedf99859d5bf0fee66544fd36b44",
        "scriptpubkey_asm": "OP_0 OP_PUSHBYTES_20 15a94a8dd34aedf99859d5bf0fee66544fd36b44",
        "scriptpubkey_type": "v0_p2wpkh",
        "scriptpubkey_address": "bc1qzk554rwnftklnxze6klslmnx238ax66yt75wxl",
        "value": 510944
      },
      "scriptsig": "",
      "scriptsig_asm": "",
      "witness": [
        "304402206415a2584f8b83a859fc5af90b993b8c21617e21a3d8d0035efab9a53cb028310220452c8d2d381fc5b098b6655ea6abcda3eb307efe0d5074ba023d32e438f1c9ba01",
        "02ab66c70e03c18f454d123835f6811f78b683a1b32992c273a38ddba31abe2c26"
      ],
      "is_coinbase": false,
      "sequence": 4294967293
    }
  ],
  "vout": [
    {
      "scriptpubkey": "00145805e2479523b92d544975c1b59c577b0072b51a",
      "scriptpubkey_asm": "OP_0 OP_PUSHBYTES_20 5805e2479523b92d544975c1b59c577b0072b51a",
      "scriptpubkey_type": "v0_p2wpkh",
      "scriptpubkey_address": "bc1qtqz7y3u4ywuj64zfwhqmt8zh0vq89dg627jvex",
      "value": 360351
    },
    {
      "scriptpubkey": "00200eb74c51f4bcc214c71af26d5391277d32a85049916a4631c56319df2277bd88",
      "scriptpubkey_asm": "OP_0 OP_PUSHBYTES_32 0eb74c51f4bcc214c71af26d5391277d32a85049916a4631c56319df2277bd88",
      "scriptpubkey_type": "v0_p2wsh",
      "scriptpubkey_address": "bc1qp6m5c505hnppf3c67fk48yf805e2s5zfj94yvvw9vvva7gnhhkyqhce9pq",
      "value": 1026125
    }
  ],
  "size": 530,
  "weight": 1151,
  "fee": 4595,
  "status": {
    "confirmed": true,
    "block_height": 834638,
    "block_hash": "000000000000000000025f742c626208ac87e0b7d15054abb4a19ca2d735a54e",
    "block_time": 1710405325
  },
  "hex": "020000000001038493a7b678a7f2316044d724580013a458c38bb53d14f9d899bf644435735f090d00000000fdffffffd5f8f3070b50868c9c23682847960e9b5110bf07ecf2aad2c7fe27c0d47dc5540000000000fdffffff95bc8e8679dbb3006acee24b1767f2cd96ab154d6c0740186cc9021740edbdd60000000000fdffffff029f7f0500000000001600145805e2479523b92d544975c1b59c577b0072b51a4da80f00000000002200200eb74c51f4bcc214c71af26d5391277d32a85049916a4631c56319df2277bd880247304402202171b5f9594bca64395667d1b874effb50ce19f4b49178094545b641501a7c710220028f56b42ab2fd16cb8673101d14c878e15473cabbe6c822d0de997b8eb9875d0121034e09f5e7c552b5be6a0d178ccc8f43310c07fe3768d5c9d1fb4cba97f079be2f02473044022052ffc2a10253767341976b5b67eb727f14faa8fee4bba2bfc567688d979a821102205328e409dbb3507f25a87a05966374284f58feff1d4b3e91cd41d9ea805feb69012103e89ea2eec61547faf67ae854f26050d9b54a6206f81309726aca75bbf8a2c4f10247304402206415a2584f8b83a859fc5af90b993b8c21617e21a3d8d0035efab9a53cb028310220452c8d2d381fc5b098b6655ea6abcda3eb307efe0d5074ba023d32e438f1c9ba012102ab66c70e03c18f454d123835f6811f78b683a1b32992c273a38ddba31abe2c264cbc0c00"
}