{
  "txid": "8a4ad9e18a6639b620a5518c182b966c97fdaa06f88d56e91c7ee99b1e43aa8d",
  "version": 2,
  "locktime": 834637,
  "vin": [
    {
      "txid": "ede1738abc91fcde346780c1fae8ac48bc05416cc3874559ca28061972514fef",
      "vout": 0,
      "prevout": {
        "scriptpubkey": "00142a5bed7bfe1af8e73661ed7f0c4c7ae908d3de3c",
        "scriptpubkey_asm": "OP_0 OP_PUSHBYTES_20 2a5bed7bfe1af8e73661ed7f0c4c7ae908d3de3c",
        "scriptpubkey_type": "v0_p2wpkh",
        "scriptpubkey_address": "bc1q9fd767l7rtuwwdnpa4lscnr6ayyd8h3u7qd7fm",
        "value": 2894495
      },
      "scriptsig": "",
      "scriptsig_asm": "",
      "witness": [
        "3044022028f4cf98d2ce7d0a285ad54694b8522f46108d1011e4a7fb56d6caf13286bb7b02203949e939bdbb0bee3d19b39bd0ba9034051be17b8909fed9a8ea64c9a1abeca501",
        "0318e7dd259abebccedd8ab477caae79d13a4c64ef00635194cba474c009b9dc5e"
      ],
      "is_coinbase": false,
      "sequence": 4294967293
    }
  ],
  "vout": [
    {
      "scriptpubkey": "0014bb963c2aca6b2cfec81c424d414a621fb4710b4c",
      "scriptpubkey_asm": "OP_0 OP_PUSHBYTES_20 bb963c2aca6b2cfec81c424d414a621fb4710b4c",
      "scriptpubkey_type": "v0_p2wpkh",
      "scriptpubkey_address": "bc1qhwtrc2k2dvk0ajqugfx5zjnzr768zz6vrwn62d",
      "value": 1445005
    },
    {
      "scriptpubkey": "00141dd51d6e0bfc4c1064caf24d2f19c174993abf4b",
      "scriptpubkey_asm": "OP_0 OP_PUSHBYTES_20 1dd51d6e0bfc4c1064caf24d2f19c174993abf4b",
      "scriptpubkey_type": "v0_p2wpkh",
      "scriptpubkey_address": "bc1qrh236mstl3xpqex27fxj7xwpwjvn406t0dahgs",
      "value": 1447248
    }
  ],
  "size": 222,
  "weight": 561,
  "fee": 2242,
  "status": {
    "confirmed": true,
    "block_height": 834638,
    "block_hash": "000000000000000000025f742c626208ac87e0b7d15054abb4a19ca2d735a54e",
    "block_time": 1710405325
  },
  "hex": "02000000000101ef4f5172190628ca594587c36c4105bc48ace8fac1806734defc91bc8a73e1ed0000000000fdffffff028d0c160000000000160014bb963c2aca6b2cfec81c424d414a621fb4710b4c50151600000000001600141dd51d6e0bfc4c1064caf24d2f19c174993abf4b02473044022028f4cf98d2ce7d0a285ad54694b8522f46108d1011e4a7fb56d6caf13286bb7b02203949e939bdbb0bee3d19b39bd0ba9034051be17b8909fed9a8ea64c9a1abeca501210318e7dd259abebccedd8ab477caae79d13a4c64ef00635194cba474c009b9dc5e4dbc0c00"
}