{
  "txid": "8a65208a2f456b92a25da0605eda8dc7cf899cdc8320cac31fb63ed08cce04ab",
  "version": 2,
  "locktime": 0,
  "vin": [
    {
      "txid": "4bc2866564ade0612088b0a975af57da4284541d0ddb5fb5839f5398909713b3",
      "vout": 4,
      "prevout": {
        "scriptpubkey": "512077768cc8fcf3ad1b7db44739b0096730d1704bc01a34892ba1f9520d266d91bd",
        "scriptpubkey_asm": "OP_PUSHNUM_1 OP_PUSHBYTES_32 77768cc8fcf3ad1b7db44739b0096730d1704bc01a34892ba1f9520d266d91bd",
        "scriptpubkey_type": "v1_p2tr",
        "scriptpubkey_address": "bc1pwamgej8u7wk3kld5guumqzt8xrghqj7qrg6gj2apl9fq6fndjx7sh8sfe0",
        "value": 128802
      },
      "scriptsig": "",
      "scriptsig_asm": "",
      "witness": [
        "b4c5d069afe57ed0a5931ef9ab147a2dfd89a2edba65863981afb148877ece3cc8bab63563477a1f5865525f8e94b9a08199107703cd2fc5bff5adf893d2ca81"
      ],
      "is_coinbase": false,
      "sequence": 4294967293
    },
    {
      "txid": "26e922c80aff9db03d0473df7efe0ed32cc5d364c6c8f9d21998ca14d9b0ea8a",
      "vout": 1,
      "prevout": {
        "scriptpubkey": "512077768cc8fcf3ad1b7db44739b0096730d1704bc01a34892ba1f9520d266d91bd",
        "scriptpubkey_asm": "OP_PUSHNUM_1 OP_PUSHBYTES_32 77768cc8fcf3ad1b7db44739b0096730d1704bc01a34892ba1f9520d266d91bd",
        "scriptpubkey_type": "v1_p2tr",
        "scriptpubkey_address": "bc1pwamgej8u7wk3kld5guumqzt8xrghqj7qrg6gj2apl9fq6fndjx7sh8sfe0",
        "value": 100285
      },
      "scriptsig": "",
      "scriptsig_asm": "",
      "witness": [
        "ead61a458f3fea2adff7b7f396a717f01815fdbf9db4b46694d1c778f1e8242e144d85b6a3592b84b45221b94b0a4d4f20e5699db035496054aa7969db59c672"
      ],
      "is_coinbase": false,
      "sequence": 4294967293
    }
  ],
  "vout": [
    {
      "scriptpubkey": "0014419a04f8f1f34d939ad766168c54a5b3af433bdd",
      "scriptpubkey_asm": "OP_0 OP_PUSHBYTES_20 419a04f8f1f34d939ad766168c54a5b3af433bdd",
      "scriptpubkey_type": "v0_p2wpkh",
      "scriptpubkey_address": "bc1qgxdqf7837dxe8xkhvctgc499kwh5xw7ap3uwhs",
      "value": 100000
    },
    {
      "scriptpubkey": "0014fb7a185fc47428a9992c09f70c6add47a5c19223",
      "scriptpubkey_asm": "OP_0 OP_PUSHBYTES_20 fb7a185fc47428a9992c09f70c6add47a5c19223",
      "scriptpubkey_type": "v0_p2wpkh",
      "scriptpubkey_address": "bc1qldapsh7yws52nxfvp8msc6kag7jury3rxrw4dm",
      "value": 30000
    },
    {
      "scriptpubkey": "512077768cc8fcf3ad1b7db44739b0096730d1704bc01a34892ba1f9520d266d91bd",
      "scriptpubkey_asm": "OP_PUSHNUM_1 OP_PUSHBYTES_32 77768cc8fcf3ad1b7db44739b0096730d1704bc01a34892ba1f9520d266d91bd",
      "scriptpubkey_type": "v1_p2tr",
      "scriptpubkey_address": "bc1pwamgej8u7wk3kld5guumqzt8xrghqj7qrg6gj2apl9fq6fndjx7sh8sfe0",
      "value": 94236
    }
  ],
  "size": 331,
  "weight": 922,
  "fee": 4851,
  "status": {
    "confirmed": true,
    "block_height": 834638,
    "block_hash": "000000000000000000025f742c626208ac87e0b7d15054abb4a19ca2d735a54e",
    "block_time": 1710405325
  },
  "hex": "02000000000102b313979098539f83b55fdb0d1d548442da57af75a9b0882061e0ad646586c24b0400000000fdffffff8aeab0d914ca9819d2f9c8c664d3c52cd30efe7edf73043db09dff0ac822e9260100000000fdffffff03a086010000000000160014419a04f8f1f34d939ad766168c54a5b3af433bdd3075000000000000160014fb7a185fc47428a9992c09f70c6add47a5c192231c7001000000000022512077768cc8fcf3ad1b7db44739b0096730d1704bc01a34892ba1f9520d266d91bd0140b4c5d069afe57ed0a5931ef9ab147a2dfd89a2edba65863981afb148877ece3cc8bab63563477a1f5865525f8e94b9a08199107703cd2fc5bff5adf893d2ca810140ead61a458f3fea2adff7b7f396a717f01815fdbf9db4b46694d1c778f1e8242e144d85b6a3592b84b45221b94b0a4d4f20e5699db035496054aa7969db59c67200000000"
}