{
  "txid": "8a688ed2b74cda40548d4fe3f3c1740fb017f83bbcdaf985478eaab1365da4f8",
  "version": 2,
  "locktime": 0,
  "vin": [
    {
      "txid": "1481480560a0985e2f8f0dd2e4e889acc356f4a7cd82fc525c6366715e001abf",
      "vout": 1,
      "prevout": {
        "scriptpubkey": "51205241117dcf2923096d607633f4dad556d4fe68355b69793955297ba31e24b6bd",
        "scriptpubkey_asm": "OP_PUSHNUM_1 OP_PUSHBYTES_32 5241117dcf2923096d607633f4dad556d4fe68355b69793955297ba31e24b6bd",
        "scriptpubkey_type": "v1_p2tr",
        "scriptpubkey_address": "bc1p2fq3zlw09y3sjmtqwcelfkk42m20u6p4td5hjw2499a6x83yk67s0nujke",
        "value": 30698
      },
      "scriptsig": "",
      "scriptsig_asm": "",
      "witness": [
        "6e87fbadc3015e6403d6f0754e7701c4f40708886cb24b4667613f91f5263f44337f89b4eb6c6e7ab4ce0874d540ef9466a5e94544b87c135952a83b90f0d088"
      ],
      "is_coinbase": false,
      "sequence": 4294967293
    }
  ],
  "vout": [
    {
      "scriptpubkey": "512047cd98481fbede3de1434d8f1816bc63416ec08edee4b55f32c3a58c77660303",
      "scriptpubkey_asm": "OP_PUSHNUM_1 OP_PUSHBYTES_32 47cd98481fbede3de1434d8f1816bc63416ec08edee4b55f32c3a58c77660303",
      "scriptpubkey_type": "v1_p2tr",
      "scriptpubkey_address": "bc1pglxesjqlhm0rmc2rfk83s94uvdqkasywmmjt2hejcwjccamxqvpsvhrh83",
      "value": 2646
    },
    {
      "scriptpubkey": "51205e5033105a1ad16585e54e8b927d5a8e81495424e873daa50cc9faaf07d27bf2",
      "scriptpubkey_asm": "OP_PUSHNUM_1 OP_PUSHBYTES_32 5e5033105a1ad16585e54e8b927d5a8e81495424e873daa50cc9faaf07d27bf2",
      "scriptpubkey_type": "v1_p2tr",
      "scriptpubkey_address": "bc1ptegrxyz6rtgktp09f69eyl2636q5j4pyapea4fgve8a27p7j00eqej250x",
      "value": 25742
    }
  ],
  "size": 205,
  "weight": 616,
  "fee": 2310,
  "status": {
    "confirmed": true,
    "block_height": 834460,
    "block_hash": "00000000000000000000484a79b643b2524bbce82e5d8a442013fa5b8905ed98",
    "block_time": 1710307468
  },
  "hex": "02000000000101bf1a005e7166635c52fc82cda7f456c3ac89e8e4d20d8f2f5e98a060054881140100000000fdffffff02560a00000000000022512047cd98481fbede3de1434d8f1816bc63416ec08edee4b55f32c3a58c776603038e640000000000002251205e5033105a1ad16585e54e8b927d5a8e81495424e873daa50cc9faaf07d27bf201406e87fbadc3015e6403d6f0754e7701c4f40708886cb24b4667613f91f5263f44337f89b4eb6c6e7ab4ce0874d540ef9466a5e94544b87c135952a83b90f0d08800000000"
}