{
  "txid": "8a766c63d4d5225d7040968751c714a71c790e115d897cfaf0b7543219dbd840",
  "version": 2,
  "locktime": 0,
  "vin": [
    {
      "txid": "84704ee4e7eb886b6ea9ea7e25df826d0a031f5ea3dd1f5a9b4cb631d41af831",
      "vout": 4,
      "prevout": {
        "scriptpubkey": "001417dfa1122d09d03f2af935411a0f79bd6e1fcab7",
        "scriptpubkey_asm": "OP_0 OP_PUSHBYTES_20 17dfa1122d09d03f2af935411a0f79bd6e1fcab7",
        "scriptpubkey_type": "v0_p2wpkh",
        "scriptpubkey_address": "bc1qzl06zy3dp8gr72hex4q35rmeh4hplj4hryl3jy",
        "value": 187991
      },
      "scriptsig": "",
      "scriptsig_asm": "",
      "witness": [
        "304402201624272f9c8e09eba7e7617dd58546fd1140eb5d792958f0b6ad8032b0133e36022050c2586fdb0df44d0b4d4d27dd34a6a2f32568e47086f481a0babeedab8afd2201",
        "02f1443ed1b26dffc6cc86305a3261463fc4162bd5148dea5f353c2ac49f78a9e3"
      ],
      "is_coinbase": false,
      "sequence": 4294967293
    }
  ],
  "vout": [
    {
      "scriptpubkey": "a914c951ea3bd341b96eaa97e242b95b3609c1efdcca87",
      "scriptpubkey_asm": "OP_HASH160 OP_PUSHBYTES_20 c951ea3bd341b96eaa97e242b95b3609c1efdcca OP_EQUAL",
      "scriptpubkey_type": "p2sh",
      "scriptpubkey_address": "3L3Vset6P7Dy5Upm6kE7NkVTPxhQGeNTyY",
      "value": 59373
    },
    {
      "scriptpubkey": "a914059d2c13890c5c91bb7b5f751f84fef54345005987",
      "scriptpubkey_asm": "OP_HASH160 OP_PUSHBYTES_20 059d2c13890c5c91bb7b5f751f84fef543450059 OP_EQUAL",
      "scriptpubkey_type": "p2sh",
      "scriptpubkey_address": "32Chb1wF85pekCdki2ssCwQHbD84scZJ1R",
      "value": 59373
    },
    {
      "scriptpubkey": "a9142e571d6d664ed5f2a45811ba1337d98a8869fbf587",
      "scriptpubkey_asm": "OP_HASH160 OP_PUSHBYTES_20 2e571d6d664ed5f2a45811ba1337d98a8869fbf5 OP_EQUAL",
      "scriptpubkey_type": "p2sh",
      "scriptpubkey_address": "35v3NDm8WabSuqGXPT94kraUsp4NieoXbM",
      "value": 59349
    }
  ],
  "size": 256,
  "weight": 697,
  "fee": 9896,
  "status": {
    "confirmed": true,
    "block_height": 834638,
    "block_hash": "000000000000000000025f742c626208ac87e0b7d15054abb4a19ca2d735a54e",
    "block_time": 1710405325
  },
  "hex": "0200000000010131f81ad431b64c9b5a1fdda35e1f030a6d82df257eeaa96e6b88ebe7e44e70840400000000fdffffff03ede700000000000017a914c951ea3bd341b96eaa97e242b95b3609c1efdcca87ede700000000000017a914059d2c13890c5c91bb7b5f751f84fef54345005987d5e700000000000017a9142e571d6d664ed5f2a45811ba1337d98a8869fbf5870247304402201624272f9c8e09eba7e7617dd58546fd1140eb5d792958f0b6ad8032b0133e36022050c2586fdb0df44d0b4d4d27dd34a6a2f32568e47086f481a0babeedab8afd22012102f1443ed1b26dffc6cc86305a3261463fc4162bd5148dea5f353c2ac49f78a9e300000000"
}