{
  "txid": "8a843c2fc2db153123d56d0a1d7c2aa2ec0552aa0c9297bf1d2756404e9348be",
  "version": 1,
  "locktime": 0,
  "vin": [
    {
      "txid": "46e77548a430c3d694ee25b8bfb788dd774544c4043c2f99bc4c02258945b328",
      "vout": 0,
      "prevout": {
        "scriptpubkey": "a914f8b299cf94b5fc7190bbab3378de62a36511f14c87",
        "scriptpubkey_asm": "OP_HASH160 OP_PUSHBYTES_20 f8b299cf94b5fc7190bbab3378de62a36511f14c OP_EQUAL",
        "scriptpubkey_type": "p2sh",
        "scriptpubkey_address": "3QN1TX99KiNEQ9kYBfSTyfxkMmGhQo5fd1",
        "value": 7486576
      },
      "scriptsig": "1600143b45f2459cb8334dad137c03ba29c15f86c6ef56",
      "scriptsig_asm": "OP_PUSHBYTES_22 00143b45f2459cb8334dad137c03ba29c15f86c6ef56",
      "witness": [
        "3045022100a85789a47707b1517c3dfc62b493f446008bf204b34416ff9f90f0950b67446d0220009897fa500caedc0d6bb2ca557aab29ef87bf9c32246a137fea0f3b5c042a5701",
        "039457aebf7562cfd1fdc816f42fc0c3924d20c9f001f2043a0598de3f06ce30c4"
      ],
      "is_coinbase": false,
      "sequence": 4294967295,
      "inner_redeemscript_asm": "OP_0 OP_PUSHBYTES_20 3b45f2459cb8334dad137c03ba29c15f86c6ef56"
    }
  ],
  "vout": [
    {
      "scriptpubkey": "a914621c9ac8d75ce8c005e89fd2b8a629989d1c8fdc87",
      "scriptpubkey_asm": "OP_HASH160 OP_PUSHBYTES_20 621c9ac8d75ce8c005e89fd2b8a629989d1c8fdc OP_EQUAL",
      "scriptpubkey_type": "p2sh",
      "scriptpubkey_address": "3AdnQpwrftkZDm98KCPGYhuELp68edkHrq",
      "value": 7483900
    }
  ],
  "size": 216,
  "weight": 534,
  "fee": 2676,
  "status": {
    "confirmed": true,
    "block_height": 834638,
    "block_hash": "000000000000000000025f742c626208ac87e0b7d15054abb4a19ca2d735a54e",
    "block_time": 1710405325
  },
  "hex": "0100000000010128b3458925024cbc992f3c04c4444577dd88b7bfb825ee94d6c330a44875e74600000000171600143b45f2459cb8334dad137c03ba29c15f86c6ef56ffffffff01fc3172000000000017a914621c9ac8d75ce8c005e89fd2b8a629989d1c8fdc8702483045022100a85789a47707b1517c3dfc62b493f446008bf204b34416ff9f90f0950b67446d0220009897fa500caedc0d6bb2ca557aab29ef87bf9c32246a137fea0f3b5c042a570121039457aebf7562cfd1fdc816f42fc0c3924d20c9f001f2043a0598de3f06ce30c400000000"
}