{
  "txid": "8a9748e009f07add863ddc530e2b9b6714ce11f5a889c4a3ccf517125b34a16d",
  "version": 2,
  "locktime": 0,
  "vin": [
    {
      "txid": "5c3864e3e852ec96346d84fbc3195b536ef1db1891f28d4b48dba69c282b1a0d",
      "vout": 6,
      "prevout": {
        "scriptpubkey": "512050d6c5574fd29a2bd7504c8ff06b1c0257ace96dd81f3e8d49b33fb01e9997ed",
        "scriptpubkey_asm": "OP_PUSHNUM_1 OP_PUSHBYTES_32 50d6c5574fd29a2bd7504c8ff06b1c0257ace96dd81f3e8d49b33fb01e9997ed",
        "scriptpubkey_type": "v1_p2tr",
        "scriptpubkey_address": "bc1p2rtv246062dzh46sfj8lq6cuqft6e6tdmq0nar2fkvlmq85ejlksn7fnpt",
        "value": 3055
      },
      "scriptsig": "",
      "scriptsig_asm": "",
      "witness": [
        "31bf1a9b5b994d7ac43f68db4d1c641d0fdc684d403e328b0b2454f79eef619d9580741681af284873b5c9ddb0f5715b0bb2c409a349650ccf434a296da163eb",
        "20936e7d79c80da8495c911efd78269c303c9537c91ea45ab63103faee31d58bd9ac0063036f726401011e6170706c69636174696f6e2f6a736f6e3b636861727365743d7574662d38004cd37b2270223a22706f772d3230222c226f70223a226d696e74222c227469636b223a2250455045222c22616d74223a2231303030222c22736f6c7574696f6e223a22504550453a626331703237796d68736b396a36716e706b7367767973363471356663717670646465716a6832716a796c6330793861667138663261727375637776796b3a303030303030303030303030303030303030303139393431613561653132383937363539383134343239323533333030353762306461393666336465613163353a3533343234333738313439227d68",
        "c029e6ca6c8c5ab61eaab81da0d3884f0ac7596b050aac6663ac46dee308a1dbc8"
      ],
      "is_coinbase": false,
      "sequence": 4294967295
    }
  ],
  "vout": [
    {
      "scriptpubkey": "51205789bbc2c5968130da086121aa8289c01816b72095d40913f8790fd480e95747",
      "scriptpubkey_asm": "OP_PUSHNUM_1 OP_PUSHBYTES_32 5789bbc2c5968130da086121aa8289c01816b72095d40913f8790fd480e95747",
      "scriptpubkey_type": "v1_p2tr",
      "scriptpubkey_address": "bc1p27ymhsk9j6qnpksgvys64q5fcqvpddeqjh2qjylc0y8afq8f2arsucwvyk",
      "value": 546
    }
  ],
  "size": 487,
  "weight": 769,
  "fee": 2509,
  "status": {
    "confirmed": true,
    "block_height": 834460,
    "block_hash": "00000000000000000000484a79b643b2524bbce82e5d8a442013fa5b8905ed98",
    "block_time": 1710307468
  },
  "hex": "020000000001010d1a2b289ca6db484b8df29118dbf16e535b19c3fb846d3496ec52e8e364385c0600000000ffffffff0122020000000000002251205789bbc2c5968130da086121aa8289c01816b72095d40913f8790fd480e95747034031bf1a9b5b994d7ac43f68db4d1c641d0fdc684d403e328b0b2454f79eef619d9580741681af284873b5c9ddb0f5715b0bb2c409a349650ccf434a296da163ebfd200120936e7d79c80da8495c911efd78269c303c9537c91ea45ab63103faee31d58bd9ac0063036f726401011e6170706c69636174696f6e2f6a736f6e3b636861727365743d7574662d38004cd37b2270223a22706f772d3230222c226f70223a226d696e74222c227469636b223a2250455045222c22616d74223a2231303030222c22736f6c7574696f6e223a22504550453a626331703237796d68736b396a36716e706b7367767973363471356663717670646465716a6832716a796c6330793861667138663261727375637776796b3a303030303030303030303030303030303030303139393431613561653132383937363539383134343239323533333030353762306461393666336465613163353a3533343234333738313439227d6821c029e6ca6c8c5ab61eaab81da0d3884f0ac7596b050aac6663ac46dee308a1dbc800000000"
}