{
  "txid": "8a9f5238a30730e1f48702a4b796cac78c54ab0cf9ed0b60fd0fe46fe84899e1",
  "version": 2,
  "locktime": 0,
  "vin": [
    {
      "txid": "e60d617bb99fda48e502b94d6ee3197b4d13544cf7602484c3979caa9a470339",
      "vout": 1,
      "prevout": {
        "scriptpubkey": "0014192e80ed2c7c412bdc2a6c8f371d15cb90f3c85b",
        "scriptpubkey_asm": "OP_0 OP_PUSHBYTES_20 192e80ed2c7c412bdc2a6c8f371d15cb90f3c85b",
        "scriptpubkey_type": "v0_p2wpkh",
        "scriptpubkey_address": "bc1qryhgpmfv03qjhhp2dj8nw8g4ewg08jzmgy3cyx",
        "value": 121750902
      },
      "scriptsig": "",
      "scriptsig_asm": "",
      "witness": [
        "3044022034ffaa1458e9f7c0ee387f9b871c5fa8e60d3ce39fe2e338628af6d7ea769c3e02203cbca5574dae4b952cf314a07c8c115794b27327377c7dddac2533fac1aff63601",
        "03b01bd095f648ea829f000207087f16622431077bb5cc0875225ada601375c885"
      ],
      "is_coinbase": false,
      "sequence": 4294967293
    }
  ],
  "vout": [
    {
      "scriptpubkey": "a914cb7932a627ca2797f7ef236f942326c8c5e3afdf87",
      "scriptpubkey_asm": "OP_HASH160 OP_PUSHBYTES_20 cb7932a627ca2797f7ef236f942326c8c5e3afdf OP_EQUAL",
      "scriptpubkey_type": "p2sh",
      "scriptpubkey_address": "3LEtHTbmA1QQWByG88dDapSVA6PVa1i6yS",
      "value": 222245
    },
    {
      "scriptpubkey": "0014192e80ed2c7c412bdc2a6c8f371d15cb90f3c85b",
      "scriptpubkey_asm": "OP_0 OP_PUSHBYTES_20 192e80ed2c7c412bdc2a6c8f371d15cb90f3c85b",
      "scriptpubkey_type": "v0_p2wpkh",
      "scriptpubkey_address": "bc1qryhgpmfv03qjhhp2dj8nw8g4ewg08jzmgy3cyx",
      "value": 121522125
    }
  ],
  "size": 223,
  "weight": 565,
  "fee": 6532,
  "status": {
    "confirmed": true,
    "block_height": 834638,
    "block_hash": "000000000000000000025f742c626208ac87e0b7d15054abb4a19ca2d735a54e",
    "block_time": 1710405325
  },
  "hex": "020000000001013903479aaa9c97c3842460f74c54134d7b19e36e4db902e548da9fb97b610de60100000000fdffffff02256403000000000017a914cb7932a627ca2797f7ef236f942326c8c5e3afdf87cd473e0700000000160014192e80ed2c7c412bdc2a6c8f371d15cb90f3c85b02473044022034ffaa1458e9f7c0ee387f9b871c5fa8e60d3ce39fe2e338628af6d7ea769c3e02203cbca5574dae4b952cf314a07c8c115794b27327377c7dddac2533fac1aff636012103b01bd095f648ea829f000207087f16622431077bb5cc0875225ada601375c88500000000"
}