{
  "txid": "8aa951de6e9f5c1b616c392308e5d933c1c08f9c72c7fbe3f5dca11bce472154",
  "version": 2,
  "locktime": 834637,
  "vin": [
    {
      "txid": "8695cb301804326104f26cb0ceb2c242131d1554111b150734db616c6762329d",
      "vout": 0,
      "prevout": {
        "scriptpubkey": "00146e66cc5972c7d41834374477b16337cbecad9461",
        "scriptpubkey_asm": "OP_0 OP_PUSHBYTES_20 6e66cc5972c7d41834374477b16337cbecad9461",
        "scriptpubkey_type": "v0_p2wpkh",
        "scriptpubkey_address": "bc1qdenvcktjcl2psdphg3mmzcehe0k2m9rp8vtm47",
        "value": 512983
      },
      "scriptsig": "",
      "scriptsig_asm": "",
      "witness": [
        "304402205b70d17c4645a7d1982f5072d56b3969f819bbc82d5dba0a4eab1d367846e5020220719de42ea30e39e541ec77319c0b21510f9796bd0698e6b4a8a65d1406812e8801",
        "0281dcf9a3b9c99c0d0e4ef96def9b80a7b47bc39c6d83a3d9b681af323c5465dd"
      ],
      "is_coinbase": false,
      "sequence": 4294967293
    }
  ],
  "vout": [
    {
      "scriptpubkey": "00143a9273eb411a89b08afa6f2d5abd36b6ad95c97b",
      "scriptpubkey_asm": "OP_0 OP_PUSHBYTES_20 3a9273eb411a89b08afa6f2d5abd36b6ad95c97b",
      "scriptpubkey_type": "v0_p2wpkh",
      "scriptpubkey_address": "bc1q82f8866pr2ympzh6duk440fkk6ketjtmzyze3f",
      "value": 198391
    },
    {
      "scriptpubkey": "001402745ebf91b39647d8272ce94d99cb8344ce61ae",
      "scriptpubkey_asm": "OP_0 OP_PUSHBYTES_20 02745ebf91b39647d8272ce94d99cb8344ce61ae",
      "scriptpubkey_type": "v0_p2wpkh",
      "scriptpubkey_address": "bc1qqf69a0u3kwty0kp89n55mxwtsdzvucdwuc4ges",
      "value": 310362
    }
  ],
  "size": 222,
  "weight": 561,
  "fee": 4230,
  "status": {
    "confirmed": true,
    "block_height": 834638,
    "block_hash": "000000000000000000025f742c626208ac87e0b7d15054abb4a19ca2d735a54e",
    "block_time": 1710405325
  },
  "hex": "020000000001019d3262676c61db3407151b1154151d1342c2b2ceb06cf2046132041830cb95860000000000fdffffff02f7060300000000001600143a9273eb411a89b08afa6f2d5abd36b6ad95c97b5abc04000000000016001402745ebf91b39647d8272ce94d99cb8344ce61ae0247304402205b70d17c4645a7d1982f5072d56b3969f819bbc82d5dba0a4eab1d367846e5020220719de42ea30e39e541ec77319c0b21510f9796bd0698e6b4a8a65d1406812e8801210281dcf9a3b9c99c0d0e4ef96def9b80a7b47bc39c6d83a3d9b681af323c5465dd4dbc0c00"
}