{
  "txid": "8af23c9636af900f3a7e0f66fd227919b1075c9989132588928d3219a84d4547",
  "version": 1,
  "locktime": 0,
  "vin": [
    {
      "txid": "f67d9bd5bcfbe451694966d7448bfa5daae24f4a037dab2428c6e71694474fc7",
      "vout": 1,
      "prevout": {
        "scriptpubkey": "00146595e9b399a1ed12c19e2146d035b8cee4c49f33",
        "scriptpubkey_asm": "OP_0 OP_PUSHBYTES_20 6595e9b399a1ed12c19e2146d035b8cee4c49f33",
        "scriptpubkey_type": "v0_p2wpkh",
        "scriptpubkey_address": "bc1qvk27nvue58k39sv7y9rdqddcemjvf8enjtqzqn",
        "value": 1857349
      },
      "scriptsig": "",
      "scriptsig_asm": "",
      "witness": [
        "304402201f9931db7284e1a4c80503f7736755879253109227bdfb1ac33f236c52bba8630220623cf7617a02e6771b0b2c59fef6c0ca7ecab7253dc1c1f5c418a59a0f7fde3701",
        "03965a1df7d77c23a375ce8c9f19bee615acc9d70e9ebb034a537c5455dff7e2e8"
      ],
      "is_coinbase": false,
      "sequence": 4294967295
    },
    {
      "txid": "9b123c0f245333876c22551a53db801a28c970a95fc723534386c03999a0d171",
      "vout": 1,
      "prevout": {
        "scriptpubkey": "001480c89717ed4e3024580dbd3c54ee011b7d43fa1b",
        "scriptpubkey_asm": "OP_0 OP_PUSHBYTES_20 80c89717ed4e3024580dbd3c54ee011b7d43fa1b",
        "scriptpubkey_type": "v0_p2wpkh",
        "scriptpubkey_address": "bc1qsryfw9ldfcczgkqdh579fmsprd7587smsruv3h",
        "value": 29017410
      },
      "scriptsig": "",
      "scriptsig_asm": "",
      "witness": [
        "30440220579bd698f8a5baa2d78495351e1c0a25f93d54549cda36a99df93c3f056ae7ca02201cb4383b7fecc4d72aed2be2947e023df110d130f5e3443edc677f19ee73b08201",
        "0382161a3ae8c253666ccce1994f46b979da29f0fd549474e5cd31b2b52056c837"
      ],
      "is_coinbase": false,
      "sequence": 4294967295
    }
  ],
  "vout": [
    {
      "scriptpubkey": "00146c2a7b4b03573846cbcf3468566127fd4d5fc8ec",
      "scriptpubkey_asm": "OP_0 OP_PUSHBYTES_20 6c2a7b4b03573846cbcf3468566127fd4d5fc8ec",
      "scriptpubkey_type": "v0_p2wpkh",
      "scriptpubkey_address": "bc1qds48kjcr2uuydj70x359vcf8l4x4lj8vkskyj6",
      "value": 135042
    },
    {
      "scriptpubkey": "001433c1218b07fd5a2dee49b56b74791c054ef8b1b0",
      "scriptpubkey_asm": "OP_0 OP_PUSHBYTES_20 33c1218b07fd5a2dee49b56b74791c054ef8b1b0",
      "scriptpubkey_type": "v0_p2wpkh",
      "scriptpubkey_address": "bc1qx0qjrzc8l4dzmmjfk44hg7guq4803vdsghgf3w",
      "value": 1721502
    },
    {
      "scriptpubkey": "001454fc2f6a003168ae866dccbbefcb0dc5f43c09c9",
      "scriptpubkey_asm": "OP_0 OP_PUSHBYTES_20 54fc2f6a003168ae866dccbbefcb0dc5f43c09c9",
      "scriptpubkey_type": "v0_p2wpkh",
      "scriptpubkey_address": "bc1q2n7z76sqx952apndeja7ljcdch6rczwflmj2fh",
      "value": 4998822
    },
    {
      "scriptpubkey": "00149bca7d965924fc557ca917afcf64a8ce2f9a79b0",
      "scriptpubkey_asm": "OP_0 OP_PUSHBYTES_20 9bca7d965924fc557ca917afcf64a8ce2f9a79b0",
      "scriptpubkey_type": "v0_p2wpkh",
      "scriptpubkey_address": "bc1qn098m9jeyn792l9fz7hu7e9geche57dswmewtm",
      "value": 24015613
    }
  ],
  "size": 432,
  "weight": 1080,
  "fee": 3780,
  "status": {
    "confirmed": true,
    "block_height": 834460,
    "block_hash": "00000000000000000000484a79b643b2524bbce82e5d8a442013fa5b8905ed98",
    "block_time": 1710307468
  },
  "hex": "01000000000102c74f479416e7c62824ab7d034a4fe2aa5dfa8b44d766496951e4fbbcd59b7df60100000000ffffffff71d1a09939c086435323c75fa970c9281a80db531a55226c873353240f3c129b0100000000ffffffff04820f0200000000001600146c2a7b4b03573846cbcf3468566127fd4d5fc8ec9e441a000000000016001433c1218b07fd5a2dee49b56b74791c054ef8b1b0a6464c000000000016001454fc2f6a003168ae866dccbbefcb0dc5f43c09c9fd726e01000000001600149bca7d965924fc557ca917afcf64a8ce2f9a79b00247304402201f9931db7284e1a4c80503f7736755879253109227bdfb1ac33f236c52bba8630220623cf7617a02e6771b0b2c59fef6c0ca7ecab7253dc1c1f5c418a59a0f7fde37012103965a1df7d77c23a375ce8c9f19bee615acc9d70e9ebb034a537c5455dff7e2e8024730440220579bd698f8a5baa2d78495351e1c0a25f93d54549cda36a99df93c3f056ae7ca02201cb4383b7fecc4d72aed2be2947e023df110d130f5e3443edc677f19ee73b08201210382161a3ae8c253666ccce1994f46b979da29f0fd549474e5cd31b2b52056c83700000000"
}