{
  "txid": "8b1e85f304b485451d76fb227ef09a4b2d921926ca34b2e8159a453a1fb50c16",
  "version": 2,
  "locktime": 0,
  "vin": [
    {
      "txid": "5f846d283984d01eb9829d816f88218abd33effc15a08222518615da3e5f47c5",
      "vout": 18,
      "prevout": {
        "scriptpubkey": "5120ab63a0ec51934db5b620baeebed6d908a73ac29cd93f5a4d33818db2a21f68cb",
        "scriptpubkey_asm": "OP_PUSHNUM_1 OP_PUSHBYTES_32 ab63a0ec51934db5b620baeebed6d908a73ac29cd93f5a4d33818db2a21f68cb",
        "scriptpubkey_type": "v1_p2tr",
        "scriptpubkey_address": "bc1p4d36pmz3jdxmtd3qhthta4kepznn4s5umyl45nfnsxxm9gsldr9shnvru7",
        "value": 2862
      },
      "scriptsig": "",
      "scriptsig_asm": "",
      "witness": [
        "df9b2927936010bec0112c03bb7a24387ae0d86de48db129a11d648601e793ff01f3a474d9429ae15a79996c8b18956e604a935702c794be1b1df4975d77a362",
        "20d0e6f09ec707cd866eff617d9f26806f33c7a64ce121fd74397be2f015935fbdac0063036f726401011e6170706c69636174696f6e2f6a736f6e3b636861727365743d7574662d38004cd37b2270223a22706f772d3230222c226f70223a226d696e74222c227469636b223a2250455045222c22616d74223a2231303030222c22736f6c7574696f6e223a22504550453a626331706d6c3973653572666b6c3076393075786c7972667871717a366c34797364637172647371683735656c727133396676647164777139777276736e3a303030303030303030303030303030303030303139393431613561653132383937363539383134343239323533333030353762306461393666336465613163353a3238363632303339323037227d68",
        "c03beca27a4fc825f712a8ee0e92a93b2e9ce7496e1e1c5bfb1b103e51f3be77b5"
      ],
      "is_coinbase": false,
      "sequence": 4294967295
    }
  ],
  "vout": [
    {
      "scriptpubkey": "5120dfcb0cd069b7dec2bf86f906930002d7ea4837001b600bfa99f8c112a58d035c",
      "scriptpubkey_asm": "OP_PUSHNUM_1 OP_PUSHBYTES_32 dfcb0cd069b7dec2bf86f906930002d7ea4837001b600bfa99f8c112a58d035c",
      "scriptpubkey_type": "v1_p2tr",
      "scriptpubkey_address": "bc1pml9se5rfkl0v90uxlyrfxqqz6l4ysdcqrdsqh75elrq39fvdqdwq9wrvsn",
      "value": 546
    }
  ],
  "size": 487,
  "weight": 769,
  "fee": 2316,
  "status": {
    "confirmed": true,
    "block_height": 834460,
    "block_hash": "00000000000000000000484a79b643b2524bbce82e5d8a442013fa5b8905ed98",
    "block_time": 1710307468
  },
  "hex": "02000000000101c5475f3eda1586512282a015fcef33bd8a21886f819d82b91ed08439286d845f1200000000ffffffff012202000000000000225120dfcb0cd069b7dec2bf86f906930002d7ea4837001b600bfa99f8c112a58d035c0340df9b2927936010bec0112c03bb7a24387ae0d86de48db129a11d648601e793ff01f3a474d9429ae15a79996c8b18956e604a935702c794be1b1df4975d77a362fd200120d0e6f09ec707cd866eff617d9f26806f33c7a64ce121fd74397be2f015935fbdac0063036f726401011e6170706c69636174696f6e2f6a736f6e3b636861727365743d7574662d38004cd37b2270223a22706f772d3230222c226f70223a226d696e74222c227469636b223a2250455045222c22616d74223a2231303030222c22736f6c7574696f6e223a22504550453a626331706d6c3973653572666b6c3076393075786c7972667871717a366c34797364637172647371683735656c727133396676647164777139777276736e3a303030303030303030303030303030303030303139393431613561653132383937363539383134343239323533333030353762306461393666336465613163353a3238363632303339323037227d6821c03beca27a4fc825f712a8ee0e92a93b2e9ce7496e1e1c5bfb1b103e51f3be77b500000000"
}