{
  "txid": "8b27a452d1c0d29f04406f3ea1be8e3c3ad23138e84cf07d68e1e30d474fa284",
  "version": 1,
  "locktime": 0,
  "vin": [
    {
      "txid": "ae743ad5edee6a1b2ea0aac5f9fc9445f7260abe05f6707865cb03427ac1f384",
      "vout": 162,
      "prevout": {
        "scriptpubkey": "0014fbfe4d49e486783148490ae949f646c52fd6ccea",
        "scriptpubkey_asm": "OP_0 OP_PUSHBYTES_20 fbfe4d49e486783148490ae949f646c52fd6ccea",
        "scriptpubkey_type": "v0_p2wpkh",
        "scriptpubkey_address": "bc1ql0ly6j0yseurzjzfpt55najxc5hadn82lsl42m",
        "value": 2701073
      },
      "scriptsig": "",
      "scriptsig_asm": "",
      "witness": [
        "304402200cfe34b233b1a4d9a9462966e24975022951173c1e6ccc7a575f202d027b8ce2022026ce6aa753ac5779e14292baa1e0548f1a370fb2960d8f064eab98b5e5d1ea0b01",
        "0200aead96329870fb4b7e562bbea0ba146d1268b31c21f3385244493914bee79c"
      ],
      "is_coinbase": false,
      "sequence": 4294967295
    }
  ],
  "vout": [
    {
      "scriptpubkey": "001412a57a0a1b7dc726d97c9b53d6b95d238a64986b",
      "scriptpubkey_asm": "OP_0 OP_PUSHBYTES_20 12a57a0a1b7dc726d97c9b53d6b95d238a64986b",
      "scriptpubkey_type": "v0_p2wpkh",
      "scriptpubkey_address": "bc1qz2jh5zsm0hrjdktundfadw2ayw9xfxrt574uyw",
      "value": 408282
    },
    {
      "scriptpubkey": "0014fbfe4d49e486783148490ae949f646c52fd6ccea",
      "scriptpubkey_asm": "OP_0 OP_PUSHBYTES_20 fbfe4d49e486783148490ae949f646c52fd6ccea",
      "scriptpubkey_type": "v0_p2wpkh",
      "scriptpubkey_address": "bc1ql0ly6j0yseurzjzfpt55najxc5hadn82lsl42m",
      "value": 2288984
    }
  ],
  "size": 222,
  "weight": 561,
  "fee": 3807,
  "status": {
    "confirmed": true,
    "block_height": 834638,
    "block_hash": "000000000000000000025f742c626208ac87e0b7d15054abb4a19ca2d735a54e",
    "block_time": 1710405325
  },
  "hex": "0100000000010184f3c17a4203cb657870f605be0a26f74594fcf9c5aaa02e1b6aeeedd53a74aea200000000ffffffff02da3a06000000000016001412a57a0a1b7dc726d97c9b53d6b95d238a64986b58ed220000000000160014fbfe4d49e486783148490ae949f646c52fd6ccea0247304402200cfe34b233b1a4d9a9462966e24975022951173c1e6ccc7a575f202d027b8ce2022026ce6aa753ac5779e14292baa1e0548f1a370fb2960d8f064eab98b5e5d1ea0b01210200aead96329870fb4b7e562bbea0ba146d1268b31c21f3385244493914bee79c00000000"
}