{
  "txid": "8b560155c1240016b6f1400bb53026b0791c7c0d784f0afd2a31251a9b5c5dd5",
  "version": 2,
  "locktime": 834637,
  "vin": [
    {
      "txid": "504a922475f145773961efed58657d34899afb4a80ed02fbbf22f273c3061409",
      "vout": 25,
      "prevout": {
        "scriptpubkey": "0014945bb9e6d027b03715d07dc4de118630e071558e",
        "scriptpubkey_asm": "OP_0 OP_PUSHBYTES_20 945bb9e6d027b03715d07dc4de118630e071558e",
        "scriptpubkey_type": "v0_p2wpkh",
        "scriptpubkey_address": "bc1qj3dmneksy7crw9ws0hzduyvxxrs8z4vwgrvpt0",
        "value": 158715
      },
      "scriptsig": "",
      "scriptsig_asm": "",
      "witness": [
        "304402203abccadd6c2e087e52e39ea361dba7385ac1629dc78431450fe19d9d6683dcba022053ca4d9dbc4d2d236467534084700a7aa6ff3bc3d81fb00608dff456afd640ea01",
        "02d231e0c26eabbfa01a129203e489a1113bcb993a0b27e88fadce85e3c0f146ad"
      ],
      "is_coinbase": false,
      "sequence": 4294967294
    },
    {
      "txid": "4c79c569b82fbc6d90d6bf3e4866868bfcca177eccd04acfa61c00105c6be7c5",
      "vout": 0,
      "prevout": {
        "scriptpubkey": "0014ac3fb4932d9245af46b9b9caf04cf7f3a2ed17a4",
        "scriptpubkey_asm": "OP_0 OP_PUSHBYTES_20 ac3fb4932d9245af46b9b9caf04cf7f3a2ed17a4",
        "scriptpubkey_type": "v0_p2wpkh",
        "scriptpubkey_address": "bc1q4slmfyedjfz6734eh890qn8h7w3w69ayr8c336",
        "value": 1200000
      },
      "scriptsig": "",
      "scriptsig_asm": "",
      "witness": [
        "3044022016b39a07f869b4db8f225ea6141c246ee3ecbe9710ed74da1b6647d99b06c9af022009d83f8c2a0d5836367720695b7abd5dc7b01308d8ad1f573b0487352394c0d701",
        "038940ae0eb29a9771cca444ba91e364709180f367be9ee567a3704ce3dee4f24a"
      ],
      "is_coinbase": false,
      "sequence": 4294967294
    }
  ],
  "vout": [
    {
      "scriptpubkey": "76a9141a255d35e5db4ff344cc689ef3ba51ff57ea233688ac",
      "scriptpubkey_asm": "OP_DUP OP_HASH160 OP_PUSHBYTES_20 1a255d35e5db4ff344cc689ef3ba51ff57ea2336 OP_EQUALVERIFY OP_CHECKSIG",
      "scriptpubkey_type": "p2pkh",
      "scriptpubkey_address": "13PFL6HDLsuZaAi7CvETsdwnMJ6hi7kn7x",
      "value": 1352291
    }
  ],
  "size": 342,
  "weight": 720,
  "fee": 6424,
  "status": {
    "confirmed": true,
    "block_height": 834638,
    "block_hash": "000000000000000000025f742c626208ac87e0b7d15054abb4a19ca2d735a54e",
    "block_time": 1710405325
  },
  "hex": "02000000000102091406c373f222bffb02ed804afb9a89347d6558edef61397745f17524924a501900000000feffffffc5e76b5c10001ca6cf4ad0cc7e17cafc8b8666483ebfd6906dbc2fb869c5794c0000000000feffffff0163a21400000000001976a9141a255d35e5db4ff344cc689ef3ba51ff57ea233688ac0247304402203abccadd6c2e087e52e39ea361dba7385ac1629dc78431450fe19d9d6683dcba022053ca4d9dbc4d2d236467534084700a7aa6ff3bc3d81fb00608dff456afd640ea012102d231e0c26eabbfa01a129203e489a1113bcb993a0b27e88fadce85e3c0f146ad02473044022016b39a07f869b4db8f225ea6141c246ee3ecbe9710ed74da1b6647d99b06c9af022009d83f8c2a0d5836367720695b7abd5dc7b01308d8ad1f573b0487352394c0d70121038940ae0eb29a9771cca444ba91e364709180f367be9ee567a3704ce3dee4f24a4dbc0c00"
}