{
  "txid": "8b64d85ae3550441fcd09a3965c80540750f8ad41619b9ec7c0cc3e5b2eeb6bd",
  "version": 1,
  "locktime": 0,
  "vin": [
    {
      "txid": "2289676990d2474b99261b17192db4ddd5fc16d3f3069089a7d9dc62b8c8cf0f",
      "vout": 1,
      "prevout": {
        "scriptpubkey": "0014c1f3929f4fc36762664fea2974d4a1c1bdc608e5",
        "scriptpubkey_asm": "OP_0 OP_PUSHBYTES_20 c1f3929f4fc36762664fea2974d4a1c1bdc608e5",
        "scriptpubkey_type": "v0_p2wpkh",
        "scriptpubkey_address": "bc1qc8ee9860cdnkyej0ag5hf49pcx7uvz89lkwpr9",
        "value": 443519577
      },
      "scriptsig": "",
      "scriptsig_asm": "",
      "witness": [
        "3044022076117ef10292486eaa902c561d5353a110c6daaf44cfe6db897f256863c7d8d402207c71a13d4ee0ef8f516c44714cdfd64ececcc7857ebbffafa7f087e5fd62e5df01",
        "024e25212a28bef7a443204df8d684b441a35d7a282a0e34cc8ac49165dd16930d"
      ],
      "is_coinbase": false,
      "sequence": 4294967295
    }
  ],
  "vout": [
    {
      "scriptpubkey": "00145ec38afdb9615acf8b4c3a0e34a17f1b2867915b",
      "scriptpubkey_asm": "OP_0 OP_PUSHBYTES_20 5ec38afdb9615acf8b4c3a0e34a17f1b2867915b",
      "scriptpubkey_type": "v0_p2wpkh",
      "scriptpubkey_address": "bc1qtmpc4ldev9dvlz6v8g8rfgtlrv5x0y2mevammf",
      "value": 2854524
    },
    {
      "scriptpubkey": "0014c1f3929f4fc36762664fea2974d4a1c1bdc608e5",
      "scriptpubkey_asm": "OP_0 OP_PUSHBYTES_20 c1f3929f4fc36762664fea2974d4a1c1bdc608e5",
      "scriptpubkey_type": "v0_p2wpkh",
      "scriptpubkey_address": "bc1qc8ee9860cdnkyej0ag5hf49pcx7uvz89lkwpr9",
      "value": 440663023
    }
  ],
  "size": 222,
  "weight": 561,
  "fee": 2030,
  "status": {
    "confirmed": true,
    "block_height": 834460,
    "block_hash": "00000000000000000000484a79b643b2524bbce82e5d8a442013fa5b8905ed98",
    "block_time": 1710307468
  },
  "hex": "010000000001010fcfc8b862dcd9a7899006f3d316fcd5ddb42d19171b26994b47d290696789220100000000ffffffff027c8e2b00000000001600145ec38afdb9615acf8b4c3a0e34a17f1b2867915beffb431a00000000160014c1f3929f4fc36762664fea2974d4a1c1bdc608e502473044022076117ef10292486eaa902c561d5353a110c6daaf44cfe6db897f256863c7d8d402207c71a13d4ee0ef8f516c44714cdfd64ececcc7857ebbffafa7f087e5fd62e5df0121024e25212a28bef7a443204df8d684b441a35d7a282a0e34cc8ac49165dd16930d00000000"
}