{
  "txid": "8b6847d7cc36e6369432813aa3e5b5e162e0f84d5dc0d5e29ab7fe37f350b77d",
  "version": 1,
  "locktime": 0,
  "vin": [
    {
      "txid": "08cd07258ef6be9f5ab32fb44ba46d3d2036fc28d9f0a8a4d7dcdae21ce9688c",
      "vout": 0,
      "prevout": {
        "scriptpubkey": "00149deae053790e2ce7f327a0737b18bf857bb6a3fe",
        "scriptpubkey_asm": "OP_0 OP_PUSHBYTES_20 9deae053790e2ce7f327a0737b18bf857bb6a3fe",
        "scriptpubkey_type": "v0_p2wpkh",
        "scriptpubkey_address": "bc1qnh4wq5mepckw0ue85pehkx9ls4amdgl7tvnaza",
        "value": 6033
      },
      "scriptsig": "",
      "scriptsig_asm": "",
      "witness": [
        "30440220097da5a903d9067256c81e09c2dfff3b50f59dbd50792980354fb257d8c11963022065cdb568f5ad56819d959889c3c9126e649c297c100945330a4c7a9e6ecd3bd901",
        "03b410390fbcb449f3bba717669254792c7ba711897079961617fadffc02ef4314"
      ],
      "is_coinbase": false,
      "sequence": 4294967295
    },
    {
      "txid": "31ea3b2fa2e8f52c5df58ebb964b9f3cf0bcd609aaaff1960337c2f795283f77",
      "vout": 1,
      "prevout": {
        "scriptpubkey": "00142c800d1e590bc8e6ecb841d287b0a89c3a56666a",
        "scriptpubkey_asm": "OP_0 OP_PUSHBYTES_20 2c800d1e590bc8e6ecb841d287b0a89c3a56666a",
        "scriptpubkey_type": "v0_p2wpkh",
        "scriptpubkey_address": "bc1q9jqq68jep0ywdm9cg8fg0v9gnsa9ven2xqqngz",
        "value": 8287
      },
      "scriptsig": "",
      "scriptsig_asm": "",
      "witness": [
        "30450221009aed3b321bb96a3e0fec84ff43ac5089c638c41fd5979c69d74e7d53654b0ff102205782a273a672739c757d750a95187a9470187a05c1a404e5a4781e3b7bf9028a01",
        "034bfddf1815d7164018d23d4a94e94cfbce4e59036095304d934cec80855b5a8d"
      ],
      "is_coinbase": false,
      "sequence": 4294967295
    }
  ],
  "vout": [
    {
      "scriptpubkey": "00148e3d64b84aa345a17e9dc77ea29e4a79a0719af3",
      "scriptpubkey_asm": "OP_0 OP_PUSHBYTES_20 8e3d64b84aa345a17e9dc77ea29e4a79a0719af3",
      "scriptpubkey_type": "v0_p2wpkh",
      "scriptpubkey_address": "bc1q3c7kfwz25dz6zl5acal298j20xs8rxhn7gw0x3",
      "value": 9548
    }
  ],
  "size": 340,
  "weight": 709,
  "fee": 4772,
  "status": {
    "confirmed": true,
    "block_height": 834638,
    "block_hash": "000000000000000000025f742c626208ac87e0b7d15054abb4a19ca2d735a54e",
    "block_time": 1710405325
  },
  "hex": "010000000001028c68e91ce2dadcd7a4a8f0d928fc36203d6da44bb42fb35a9fbef68e2507cd080000000000ffffffff773f2895f7c2370396f1afaa09d6bcf03c9f4b96bb8ef55d2cf5e8a22f3bea310100000000ffffffff014c250000000000001600148e3d64b84aa345a17e9dc77ea29e4a79a0719af3024730440220097da5a903d9067256c81e09c2dfff3b50f59dbd50792980354fb257d8c11963022065cdb568f5ad56819d959889c3c9126e649c297c100945330a4c7a9e6ecd3bd9012103b410390fbcb449f3bba717669254792c7ba711897079961617fadffc02ef4314024830450221009aed3b321bb96a3e0fec84ff43ac5089c638c41fd5979c69d74e7d53654b0ff102205782a273a672739c757d750a95187a9470187a05c1a404e5a4781e3b7bf9028a0121034bfddf1815d7164018d23d4a94e94cfbce4e59036095304d934cec80855b5a8d00000000"
}