{
  "txid": "8b8b6e6ef79ee377cb877ec25de30e975444ea26d97aa5fd6a5728897491b59d",
  "version": 2,
  "locktime": 834637,
  "vin": [
    {
      "txid": "3a84c5ec7c7392846d46b134a6ec54080ab61c1d976077a5675187a5d5a978a4",
      "vout": 0,
      "prevout": {
        "scriptpubkey": "00145380d944b7efa0364f8c514d46591e64c7fe4d14",
        "scriptpubkey_asm": "OP_0 OP_PUSHBYTES_20 5380d944b7efa0364f8c514d46591e64c7fe4d14",
        "scriptpubkey_type": "v0_p2wpkh",
        "scriptpubkey_address": "bc1q2wqdj39ha7srvnuv29x5vkg7vnrlung5sqz972",
        "value": 344590
      },
      "scriptsig": "",
      "scriptsig_asm": "",
      "witness": [
        "304402201ee10bad831b1a6e0ffe4a62a0f52c3cd3fb87787a2d01637f43eb0f5e1484b90220542374862b918c30664ba5d3bf9f3992f210e4d2a5a06f7f189e8983c45b256b01",
        "0227d26be05a8c88967db40a178f495aa732ee56ebd5f0f4660a8047a08a952865"
      ],
      "is_coinbase": false,
      "sequence": 4294967293
    },
    {
      "txid": "3f34961fc3c44ae00eab34ed285942f37b869f50a6016003c2e287a76e2e1ba1",
      "vout": 0,
      "prevout": {
        "scriptpubkey": "0014108fb90eef01d890f58ef33917b76a61b8655f35",
        "scriptpubkey_asm": "OP_0 OP_PUSHBYTES_20 108fb90eef01d890f58ef33917b76a61b8655f35",
        "scriptpubkey_type": "v0_p2wpkh",
        "scriptpubkey_address": "bc1qzz8mjrh0q8vfpavw7vu30dm2vxux2he4gznt9m",
        "value": 270200
      },
      "scriptsig": "",
      "scriptsig_asm": "",
      "witness": [
        "30440220123b1622a16f85d3c3b791bf86315818d71aedc289e88756a65f3b73a8217ab7022015258930905766122ff6c97f7a32dd0854c4f89b87a8d7da9399302f1b1c80f501",
        "021a2be6830427e6b65d1f99ec7acdc83c76f2778b711e11910acf763cb397e94b"
      ],
      "is_coinbase": false,
      "sequence": 4294967293
    },
    {
      "txid": "c11c6624e203827ee36709feb3a5c3097de250122b354c7b283f1dce17c690c1",
      "vout": 0,
      "prevout": {
        "scriptpubkey": "0014c84b842d7ac571cc95441215fc26d19856d3dc49",
        "scriptpubkey_asm": "OP_0 OP_PUSHBYTES_20 c84b842d7ac571cc95441215fc26d19856d3dc49",
        "scriptpubkey_type": "v0_p2wpkh",
        "scriptpubkey_address": "bc1qep9cgtt6c4cue92yzg2lcfk3nptd8hzf06r5nu",
        "value": 279074
      },
      "scriptsig": "",
      "scriptsig_asm": "",
      "witness": [
        "304402204c4e2591d0e39d2b19ec1ef7969176c001224725736f16d96a45b3656f6ad89c02207ddf9526ec03f96d5cb8d7d6a085ed09e26da2944be894341ff9ea9024411aa501",
        "02868f91b8dcc89d3e755b27fdfa6d86a2dc840769ce3609d0ad0f6790a276e152"
      ],
      "is_coinbase": false,
      "sequence": 4294967293
    }
  ],
  "vout": [
    {
      "scriptpubkey": "001414e829fb5361b7002e704593ceedf2d13aa0ddd0",
      "scriptpubkey_asm": "OP_0 OP_PUSHBYTES_20 14e829fb5361b7002e704593ceedf2d13aa0ddd0",
      "scriptpubkey_type": "v0_p2wpkh",
      "scriptpubkey_address": "bc1qzn5zn76nvxmsqtnsgkfuam0j6ya2phwsnn4kuh",
      "value": 140000
    },
    {
      "scriptpubkey": "a914adda6bc321993d0020710da32dd5ad741b54c79287",
      "scriptpubkey_asm": "OP_HASH160 OP_PUSHBYTES_20 adda6bc321993d0020710da32dd5ad741b54c792 OP_EQUAL",
      "scriptpubkey_type": "p2sh",
      "scriptpubkey_address": "3HYGUtDQeC2fxEMq9i6tL6cKDwz9Z3GuVz",
      "value": 742600
    }
  ],
  "size": 519,
  "weight": 1107,
  "fee": 11264,
  "status": {
    "confirmed": true,
    "block_height": 834638,
    "block_hash": "000000000000000000025f742c626208ac87e0b7d15054abb4a19ca2d735a54e",
    "block_time": 1710405325
  },
  "hex": "02000000000103a478a9d5a5875167a57760971d1cb60a0854eca634b1466d8492737cecc5843a0000000000fdffffffa11b2e6ea787e2c2036001a6509f867bf3425928ed34ab0ee04ac4c31f96343f0000000000fdffffffc190c617ce1d3f287b4c352b1250e27d09c3a5b3fe0967e37e8203e224661cc10000000000fdffffff02e02202000000000016001414e829fb5361b7002e704593ceedf2d13aa0ddd0c8540b000000000017a914adda6bc321993d0020710da32dd5ad741b54c792870247304402201ee10bad831b1a6e0ffe4a62a0f52c3cd3fb87787a2d01637f43eb0f5e1484b90220542374862b918c30664ba5d3bf9f3992f210e4d2a5a06f7f189e8983c45b256b01210227d26be05a8c88967db40a178f495aa732ee56ebd5f0f4660a8047a08a952865024730440220123b1622a16f85d3c3b791bf86315818d71aedc289e88756a65f3b73a8217ab7022015258930905766122ff6c97f7a32dd0854c4f89b87a8d7da9399302f1b1c80f50121021a2be6830427e6b65d1f99ec7acdc83c76f2778b711e11910acf763cb397e94b0247304402204c4e2591d0e39d2b19ec1ef7969176c001224725736f16d96a45b3656f6ad89c02207ddf9526ec03f96d5cb8d7d6a085ed09e26da2944be894341ff9ea9024411aa5012102868f91b8dcc89d3e755b27fdfa6d86a2dc840769ce3609d0ad0f6790a276e1524dbc0c00"
}