{
  "txid": "8b97c2be125d2d4d404c3383fd8072b25d46a482aaaccf55730a56742fb157e5",
  "version": 2,
  "locktime": 834637,
  "vin": [
    {
      "txid": "99f12bc99f420c60d28263fc8d546f75acd2d7c8cd485e42658dab9f06930fb8",
      "vout": 1,
      "prevout": {
        "scriptpubkey": "0014700a0ab671b38ccf1b0620720d4aab8a7ce74694",
        "scriptpubkey_asm": "OP_0 OP_PUSHBYTES_20 700a0ab671b38ccf1b0620720d4aab8a7ce74694",
        "scriptpubkey_type": "v0_p2wpkh",
        "scriptpubkey_address": "bc1qwq9q4dn3kwxv7xcxypeq6j4t3f7ww355de8fqt",
        "value": 299271226
      },
      "scriptsig": "",
      "scriptsig_asm": "",
      "witness": [
        "304402207f435936a5333f7b6df239c857cfa22091e9dceabb0faeb21904524dbccb72f502206fe90d78b67a95ac3c20fc40aaa989b11b79b37b943c19f345fd9b1d299cd37301",
        "039d7b7826bcba697254bc9c02e3100e18ea36d9c21373eeb3451cb6208917e739"
      ],
      "is_coinbase": false,
      "sequence": 4294967294
    }
  ],
  "vout": [
    {
      "scriptpubkey": "a914c33c85d5b8c31abbe38db99284f5325ae45a942b87",
      "scriptpubkey_asm": "OP_HASH160 OP_PUSHBYTES_20 c33c85d5b8c31abbe38db99284f5325ae45a942b OP_EQUAL",
      "scriptpubkey_type": "p2sh",
      "scriptpubkey_address": "3KVLC9YCeAj5F4L3hYsgBettLVuSEsmfH3",
      "value": 2753300
    },
    {
      "scriptpubkey": "00147fccb0948337851c7ddd2c5c54df479a3e54c628",
      "scriptpubkey_asm": "OP_0 OP_PUSHBYTES_20 7fccb0948337851c7ddd2c5c54df479a3e54c628",
      "scriptpubkey_type": "v0_p2wpkh",
      "scriptpubkey_address": "bc1q0lxtp9yrx7z3clwa93w9fh68ngl9f33gr7djnv",
      "value": 296514446
    }
  ],
  "size": 223,
  "weight": 565,
  "fee": 3480,
  "status": {
    "confirmed": true,
    "block_height": 834638,
    "block_hash": "000000000000000000025f742c626208ac87e0b7d15054abb4a19ca2d735a54e",
    "block_time": 1710405325
  },
  "hex": "02000000000101b80f93069fab8d65425e48cdc8d7d2ac756f548dfc6382d2600c429fc92bf1990100000000feffffff0214032a000000000017a914c33c85d5b8c31abbe38db99284f5325ae45a942b878e73ac11000000001600147fccb0948337851c7ddd2c5c54df479a3e54c6280247304402207f435936a5333f7b6df239c857cfa22091e9dceabb0faeb21904524dbccb72f502206fe90d78b67a95ac3c20fc40aaa989b11b79b37b943c19f345fd9b1d299cd3730121039d7b7826bcba697254bc9c02e3100e18ea36d9c21373eeb3451cb6208917e7394dbc0c00"
}