{
  "txid": "8b9a53853b065136c05816068fe0ae929e570f4357f8d58bcc10655c2a2c0cf4",
  "version": 2,
  "locktime": 834458,
  "vin": [
    {
      "txid": "30bdb8374fbe625b7792cfb135ecaad17c2f3c4d6b875bf321db009dc2e42cf4",
      "vout": 0,
      "prevout": {
        "scriptpubkey": "0014b6a4317101cbfacd05081783572576de468e2557",
        "scriptpubkey_asm": "OP_0 OP_PUSHBYTES_20 b6a4317101cbfacd05081783572576de468e2557",
        "scriptpubkey_type": "v0_p2wpkh",
        "scriptpubkey_address": "bc1qk6jrzugpe0av6pggz7p4wftkmerguf2hls53yl",
        "value": 441755
      },
      "scriptsig": "",
      "scriptsig_asm": "",
      "witness": [
        "3044022014013f6f469e9f2788afcf610133aafcacdac744dca0ce12466863b84897a3600220116bb99bf20702d9ae60c2dcab5d6797467fcbf323900f56236a2c8ac7ea396001",
        "02a1df2d5c1afd690127f2146921a42c821bd82918cd8cdbf094d378b708ea6aef"
      ],
      "is_coinbase": false,
      "sequence": 4294967293
    }
  ],
  "vout": [
    {
      "scriptpubkey": "a914646f7e73d003a707819e051219b7b03a0102c08687",
      "scriptpubkey_asm": "OP_HASH160 OP_PUSHBYTES_20 646f7e73d003a707819e051219b7b03a0102c086 OP_EQUAL",
      "scriptpubkey_type": "p2sh",
      "scriptpubkey_address": "3Ar54TnMaApnuBspptiw8SWKfVxk7tr3oV",
      "value": 24209
    },
    {
      "scriptpubkey": "00145cde75b73094384ad3239f00c87a2b74eb6d24c5",
      "scriptpubkey_asm": "OP_0 OP_PUSHBYTES_20 5cde75b73094384ad3239f00c87a2b74eb6d24c5",
      "scriptpubkey_type": "v0_p2wpkh",
      "scriptpubkey_address": "bc1qtn08tdesjsuy45ernuqvs73twn4k6fx95pjvnx",
      "value": 415700
    }
  ],
  "size": 223,
  "weight": 565,
  "fee": 1846,
  "status": {
    "confirmed": true,
    "block_height": 834460,
    "block_hash": "00000000000000000000484a79b643b2524bbce82e5d8a442013fa5b8905ed98",
    "block_time": 1710307468
  },
  "hex": "02000000000101f42ce4c29d00db21f35b876b4d3c2f7cd1aaec35b1cf92775b62be4f37b8bd300000000000fdffffff02915e00000000000017a914646f7e73d003a707819e051219b7b03a0102c08687d4570600000000001600145cde75b73094384ad3239f00c87a2b74eb6d24c502473044022014013f6f469e9f2788afcf610133aafcacdac744dca0ce12466863b84897a3600220116bb99bf20702d9ae60c2dcab5d6797467fcbf323900f56236a2c8ac7ea3960012102a1df2d5c1afd690127f2146921a42c821bd82918cd8cdbf094d378b708ea6aef9abb0c00"
}