{
  "txid": "8b9bfd1407a6648fb1e213157458e1444bbd0d9663515d543409ada3cf276619",
  "version": 2,
  "locktime": 0,
  "vin": [
    {
      "txid": "69ff5d25de2941132d736710f3c7eab309dc737c2f75dd444256d61cfcb1ddf8",
      "vout": 0,
      "prevout": {
        "scriptpubkey": "5120561e26dc54ca42aa1d2deb3cbd46dd7d8a093b7ef5544e2033e67579153c962e",
        "scriptpubkey_asm": "OP_PUSHNUM_1 OP_PUSHBYTES_32 561e26dc54ca42aa1d2deb3cbd46dd7d8a093b7ef5544e2033e67579153c962e",
        "scriptpubkey_type": "v1_p2tr",
        "scriptpubkey_address": "bc1p2c0zdhz5efp258fdav7t63ka0k9qjwm7742yugpnue6hj9fujchq5lhlzz",
        "value": 2500
      },
      "scriptsig": "",
      "scriptsig_asm": "",
      "witness": [
        "e24358d6baea720bb9da95b05afbec2508b7d3feec6136bcbb2a77e54526761697b939d187a14d637cf027a0de389af8b3c62e5f46fe888bd27a77ce27e78cf301"
      ],
      "is_coinbase": false,
      "sequence": 4294967295
    }
  ],
  "vout": [
    {
      "scriptpubkey": "76a914afbc586159ab1a7ae76a345ba9225a5dd5b18c0e88ac",
      "scriptpubkey_asm": "OP_DUP OP_HASH160 OP_PUSHBYTES_20 afbc586159ab1a7ae76a345ba9225a5dd5b18c0e OP_EQUALVERIFY OP_CHECKSIG",
      "scriptpubkey_type": "p2pkh",
      "scriptpubkey_address": "1H2Ct2Yq8mgnq9HSi5gFzPNhEo1FgDLRyy",
      "value": 1268
    }
  ],
  "size": 154,
  "weight": 409,
  "fee": 1232,
  "status": {
    "confirmed": true,
    "block_height": 834460,
    "block_hash": "00000000000000000000484a79b643b2524bbce82e5d8a442013fa5b8905ed98",
    "block_time": 1710307468
  },
  "hex": "02000000000101f8ddb1fc1cd6564244dd752f7c73dc09b3eac7f31067732d134129de255dff690000000000ffffffff01f4040000000000001976a914afbc586159ab1a7ae76a345ba9225a5dd5b18c0e88ac0141e24358d6baea720bb9da95b05afbec2508b7d3feec6136bcbb2a77e54526761697b939d187a14d637cf027a0de389af8b3c62e5f46fe888bd27a77ce27e78cf30100000000"
}