{
  "txid": "8bb0611bed8947b3fdb1e2447d01aae17e1165cd56a154d81e13d45a390c3447",
  "version": 2,
  "locktime": 0,
  "vin": [
    {
      "txid": "8e47ad27abffcfaf9e0802fd405467d3a4e53569b78a3461dd04f7da964ee0b7",
      "vout": 4,
      "prevout": {
        "scriptpubkey": "0014b7c97e794134e223320361ddbd5ff4b7f8bc888e",
        "scriptpubkey_asm": "OP_0 OP_PUSHBYTES_20 b7c97e794134e223320361ddbd5ff4b7f8bc888e",
        "scriptpubkey_type": "v0_p2wpkh",
        "scriptpubkey_address": "bc1qklyhu72pxn3zxvsrv8wm6hl5klutezywcujmma",
        "value": 1572778
      },
      "scriptsig": "",
      "scriptsig_asm": "",
      "witness": [
        "304402206eb2bc73c9f52b67fbb1464b78a816b08bc75c4c8a734f8f2e0e969572b4d28902204b4c0549be201d172e74fc502f676c188378278e2ba431cd77d959812b3bb10401",
        "02b33ab0a64462696e39065c18c6fcfc15f3c08b4b8f16d16d181846652bcaa0d2"
      ],
      "is_coinbase": false,
      "sequence": 4294967295
    }
  ],
  "vout": [
    {
      "scriptpubkey": "0014b7c97e794134e223320361ddbd5ff4b7f8bc888e",
      "scriptpubkey_asm": "OP_0 OP_PUSHBYTES_20 b7c97e794134e223320361ddbd5ff4b7f8bc888e",
      "scriptpubkey_type": "v0_p2wpkh",
      "scriptpubkey_address": "bc1qklyhu72pxn3zxvsrv8wm6hl5klutezywcujmma",
      "value": 808
    },
    {
      "scriptpubkey": "512103a04486e4a648d1bacb697f1e0da965c00ba58558d701fde17b107e267e2cb222210394dac483e0890707c4d3b1221710f397928b6203241c42c71f2808738b27cb4a2102020202020202020202020202020202020202020202020202020202020202020253ae",
      "scriptpubkey_asm": "OP_PUSHNUM_1 OP_PUSHBYTES_33 03a04486e4a648d1bacb697f1e0da965c00ba58558d701fde17b107e267e2cb222 OP_PUSHBYTES_33 0394dac483e0890707c4d3b1221710f397928b6203241c42c71f2808738b27cb4a OP_PUSHBYTES_33 020202020202020202020202020202020202020202020202020202020202020202 OP_PUSHNUM_3 OP_CHECKMULTISIG",
      "scriptpubkey_type": "unknown",
      "value": 809
    },
    {
      "scriptpubkey": "512103a581c52de0d98c17d6765ceb7fed773e1cb7acfb08c3be4cce8fac374aa2553a2103064f67d946fc465ce42cca7daa710969b645e0983f6040f6334eb3b52e657ae82102020202020202020202020202020202020202020202020202020202020202020253ae",
      "scriptpubkey_asm": "OP_PUSHNUM_1 OP_PUSHBYTES_33 03a581c52de0d98c17d6765ceb7fed773e1cb7acfb08c3be4cce8fac374aa2553a OP_PUSHBYTES_33 03064f67d946fc465ce42cca7daa710969b645e0983f6040f6334eb3b52e657ae8 OP_PUSHBYTES_33 020202020202020202020202020202020202020202020202020202020202020202 OP_PUSHNUM_3 OP_CHECKMULTISIG",
      "scriptpubkey_type": "unknown",
      "value": 809
    },
    {
      "scriptpubkey": "001420123e4942db45c3c5971b141304c3ff6f5c06c7",
      "scriptpubkey_asm": "OP_0 OP_PUSHBYTES_20 20123e4942db45c3c5971b141304c3ff6f5c06c7",
      "scriptpubkey_type": "v0_p2wpkh",
      "scriptpubkey_address": "bc1qyqfruj2zmdzu83vhrv2pxpxrlah4cpk88c9zvd",
      "value": 12000
    },
    {
      "scriptpubkey": "0014b7c97e794134e223320361ddbd5ff4b7f8bc888e",
      "scriptpubkey_asm": "OP_0 OP_PUSHBYTES_20 b7c97e794134e223320361ddbd5ff4b7f8bc888e",
      "scriptpubkey_type": "v0_p2wpkh",
      "scriptpubkey_address": "bc1qklyhu72pxn3zxvsrv8wm6hl5klutezywcujmma",
      "value": 1547241
    }
  ],
  "size": 481,
  "weight": 1597,
  "fee": 11111,
  "status": {
    "confirmed": true,
    "block_height": 834638,
    "block_hash": "000000000000000000025f742c626208ac87e0b7d15054abb4a19ca2d735a54e",
    "block_time": 1710405325
  },
  "hex": "02000000000101b7e04e96daf704dd61348ab76935e5a4d3675440fd02089eafcfffab27ad478e0400000000ffffffff052803000000000000160014b7c97e794134e223320361ddbd5ff4b7f8bc888e290300000000000069512103a04486e4a648d1bacb697f1e0da965c00ba58558d701fde17b107e267e2cb222210394dac483e0890707c4d3b1221710f397928b6203241c42c71f2808738b27cb4a2102020202020202020202020202020202020202020202020202020202020202020253ae290300000000000069512103a581c52de0d98c17d6765ceb7fed773e1cb7acfb08c3be4cce8fac374aa2553a2103064f67d946fc465ce42cca7daa710969b645e0983f6040f6334eb3b52e657ae82102020202020202020202020202020202020202020202020202020202020202020253aee02e00000000000016001420123e4942db45c3c5971b141304c3ff6f5c06c7e99b170000000000160014b7c97e794134e223320361ddbd5ff4b7f8bc888e0247304402206eb2bc73c9f52b67fbb1464b78a816b08bc75c4c8a734f8f2e0e969572b4d28902204b4c0549be201d172e74fc502f676c188378278e2ba431cd77d959812b3bb104012102b33ab0a64462696e39065c18c6fcfc15f3c08b4b8f16d16d181846652bcaa0d200000000"
}