{
  "txid": "8bccaefc07ad1a757fea5ef60b27c2c6cb1967dc6bf5e525b4072629b3774fba",
  "version": 1,
  "locktime": 0,
  "vin": [
    {
      "txid": "8cac700e429565ffd43c2546f4b3c9dd7938731a46b41b16704a0910b40c1df4",
      "vout": 0,
      "prevout": {
        "scriptpubkey": "76a914ca9e8f95be8005337060f6e47ee68331560ad27288ac",
        "scriptpubkey_asm": "OP_DUP OP_HASH160 OP_PUSHBYTES_20 ca9e8f95be8005337060f6e47ee68331560ad272 OP_EQUALVERIFY OP_CHECKSIG",
        "scriptpubkey_type": "p2pkh",
        "scriptpubkey_address": "1KUMSkfCi6SjStxAQoyUvUoZrACshmFedW",
        "value": 1363426
      },
      "scriptsig": "483045022100e24ea3e9abc3b2294b2eaf033815d89b8a8fe7236cd3c33dc6da1d3f2e0ccdc6022017f950f7726b3678a13e324c4d4f32d6a09e446ecc9b5a4c18e80028aa76519c012102fe40e059c88eedbded63730c52759522f2fe96cce17df76d4855966b604558d3",
      "scriptsig_asm": "OP_PUSHBYTES_72 3045022100e24ea3e9abc3b2294b2eaf033815d89b8a8fe7236cd3c33dc6da1d3f2e0ccdc6022017f950f7726b3678a13e324c4d4f32d6a09e446ecc9b5a4c18e80028aa76519c01 OP_PUSHBYTES_33 02fe40e059c88eedbded63730c52759522f2fe96cce17df76d4855966b604558d3",
      "is_coinbase": false,
      "sequence": 4294967293
    },
    {
      "txid": "04a1f80b1b657b778f07faf6d21fe46919271009fb60bf5ad448848f83a82eae",
      "vout": 1,
      "prevout": {
        "scriptpubkey": "76a914ca9e8f95be8005337060f6e47ee68331560ad27288ac",
        "scriptpubkey_asm": "OP_DUP OP_HASH160 OP_PUSHBYTES_20 ca9e8f95be8005337060f6e47ee68331560ad272 OP_EQUALVERIFY OP_CHECKSIG",
        "scriptpubkey_type": "p2pkh",
        "scriptpubkey_address": "1KUMSkfCi6SjStxAQoyUvUoZrACshmFedW",
        "value": 8653
      },
      "scriptsig": "483045022100dda5b631357ac4563266d64b04e7fb756c6514c7f58ea135c4608d5e93a6d9690220077b1904fab0f968d1ea7b0213ba10f4dc205a75cc0f56ca472157abc0d6469f012102fe40e059c88eedbded63730c52759522f2fe96cce17df76d4855966b604558d3",
      "scriptsig_asm": "OP_PUSHBYTES_72 3045022100dda5b631357ac4563266d64b04e7fb756c6514c7f58ea135c4608d5e93a6d9690220077b1904fab0f968d1ea7b0213ba10f4dc205a75cc0f56ca472157abc0d6469f01 OP_PUSHBYTES_33 02fe40e059c88eedbded63730c52759522f2fe96cce17df76d4855966b604558d3",
      "is_coinbase": false,
      "sequence": 4294967293
    },
    {
      "txid": "09f2f31975f8cf469442366990aca42fa3ff5ec1cd3d92e0d831925434904718",
      "vout": 1,
      "prevout": {
        "scriptpubkey": "76a914ca9e8f95be8005337060f6e47ee68331560ad27288ac",
        "scriptpubkey_asm": "OP_DUP OP_HASH160 OP_PUSHBYTES_20 ca9e8f95be8005337060f6e47ee68331560ad272 OP_EQUALVERIFY OP_CHECKSIG",
        "scriptpubkey_type": "p2pkh",
        "scriptpubkey_address": "1KUMSkfCi6SjStxAQoyUvUoZrACshmFedW",
        "value": 7619
      },
      "scriptsig": "47304402200e1109be463df1eb2a8e0b712334782ca4b72ceb278d6bdf217e228bb1eb1c0a02206b55e5ca88c3b7cafee10b4647e34fee0e365b6e15879945b1e0af1df9f219f0012102fe40e059c88eedbded63730c52759522f2fe96cce17df76d4855966b604558d3",
      "scriptsig_asm": "OP_PUSHBYTES_71 304402200e1109be463df1eb2a8e0b712334782ca4b72ceb278d6bdf217e228bb1eb1c0a02206b55e5ca88c3b7cafee10b4647e34fee0e365b6e15879945b1e0af1df9f219f001 OP_PUSHBYTES_33 02fe40e059c88eedbded63730c52759522f2fe96cce17df76d4855966b604558d3",
      "is_coinbase": false,
      "sequence": 4294967293
    }
  ],
  "vout": [
    {
      "scriptpubkey": "a91436b28598b325fdb1cb28346bcfc18d8e01cae7e287",
      "scriptpubkey_asm": "OP_HASH160 OP_PUSHBYTES_20 36b28598b325fdb1cb28346bcfc18d8e01cae7e2 OP_EQUAL",
      "scriptpubkey_type": "p2sh",
      "scriptpubkey_address": "36gEGpTGzUHX6gwhAmuexhHRayk6BXUxSy",
      "value": 1367353
    },
    {
      "scriptpubkey": "76a914ca9e8f95be8005337060f6e47ee68331560ad27288ac",
      "scriptpubkey_asm": "OP_DUP OP_HASH160 OP_PUSHBYTES_20 ca9e8f95be8005337060f6e47ee68331560ad272 OP_EQUALVERIFY OP_CHECKSIG",
      "scriptpubkey_type": "p2pkh",
      "scriptpubkey_address": "1KUMSkfCi6SjStxAQoyUvUoZrACshmFedW",
      "value": 3837
    }
  ],
  "size": 519,
  "weight": 2076,
  "fee": 8508,
  "status": {
    "confirmed": true,
    "block_height": 834638,
    "block_hash": "000000000000000000025f742c626208ac87e0b7d15054abb4a19ca2d735a54e",
    "block_time": 1710405325
  },
  "hex": "0100000003f41d0cb410094a70161bb4461a733879ddc9b3f446253cd4ff6595420e70ac8c000000006b483045022100e24ea3e9abc3b2294b2eaf033815d89b8a8fe7236cd3c33dc6da1d3f2e0ccdc6022017f950f7726b3678a13e324c4d4f32d6a09e446ecc9b5a4c18e80028aa76519c012102fe40e059c88eedbded63730c52759522f2fe96cce17df76d4855966b604558d3fdffffffae2ea8838f8448d45abf60fb0910271969e41fd2f6fa078f777b651b0bf8a104010000006b483045022100dda5b631357ac4563266d64b04e7fb756c6514c7f58ea135c4608d5e93a6d9690220077b1904fab0f968d1ea7b0213ba10f4dc205a75cc0f56ca472157abc0d6469f012102fe40e059c88eedbded63730c52759522f2fe96cce17df76d4855966b604558d3fdffffff18479034549231d8e0923dcdc15effa32fa4ac906936429446cff87519f3f209010000006a47304402200e1109be463df1eb2a8e0b712334782ca4b72ceb278d6bdf217e228bb1eb1c0a02206b55e5ca88c3b7cafee10b4647e34fee0e365b6e15879945b1e0af1df9f219f0012102fe40e059c88eedbded63730c52759522f2fe96cce17df76d4855966b604558d3fdffffff0239dd14000000000017a91436b28598b325fdb1cb28346bcfc18d8e01cae7e287fd0e0000000000001976a914ca9e8f95be8005337060f6e47ee68331560ad27288ac00000000"
}