{
  "txid": "8bcd754972982d42431a429967c073e722767d0e8863a1a1fc9449fa26017cca",
  "version": 2,
  "locktime": 0,
  "vin": [
    {
      "txid": "4ee77778659dcfe8d7a4e15882fc6193f4f3d5f6607624e256337b44c2280af5",
      "vout": 55,
      "prevout": {
        "scriptpubkey": "51206ccc442cb627f557b0e67d7470b4df618fffca50d66f5f1bb4e6e4b7eb0e6e49",
        "scriptpubkey_asm": "OP_PUSHNUM_1 OP_PUSHBYTES_32 6ccc442cb627f557b0e67d7470b4df618fffca50d66f5f1bb4e6e4b7eb0e6e49",
        "scriptpubkey_type": "v1_p2tr",
        "scriptpubkey_address": "bc1pdnxygt9kyl640v8x0468pdxlvx8lljjs6eh47xa5umjt06cwdeys702ar7",
        "value": 2075
      },
      "scriptsig": "",
      "scriptsig_asm": "",
      "witness": [
        "43cbf78a56ad2cc26cccfb960f0bbcea282d104951dbd0e0373556c912cb24b8e3b0eea81d162201b5d0ea7ed1772975eb9fa350c988606fabafb83391d66662",
        "20432c25953fc851aa475f4149558dd3a5920b7359217afd67d784e05f67ab6df1ac0063036f7264010118746578742f706c61696e3b636861727365743d7574662d3800357b2270223a224252432d313030222c226f70223a226d696e74222c227469636b223a22696e73222c22616d74223a2231303030227d68",
        "c0c50eac15d7d7889f5ad84f80015e8a209129aeea937c37fa4b8bc0f9be289730"
      ],
      "is_coinbase": false,
      "sequence": 4294967295
    }
  ],
  "vout": [
    {
      "scriptpubkey": "00143e2325412b554cacdd163a93a42204c4707f8851",
      "scriptpubkey_asm": "OP_0 OP_PUSHBYTES_20 3e2325412b554cacdd163a93a42204c4707f8851",
      "scriptpubkey_type": "v0_p2wpkh",
      "scriptpubkey_address": "bc1q8c3j2sft24x2ehgk82f6ggsyc3c8lzz3yw9wsu",
      "value": 546
    }
  ],
  "size": 308,
  "weight": 554,
  "fee": 1529,
  "status": {
    "confirmed": true,
    "block_height": 834464,
    "block_hash": "0000000000000000000177a0869a911a2b65c9bdcd5a8bcb02b68f305bee848e",
    "block_time": 1710308296
  },
  "hex": "02000000000101f50a28c2447b3356e2247660f6d5f3f49361fc8258e1a4d7e8cf9d657877e74e3700000000ffffffff0122020000000000001600143e2325412b554cacdd163a93a42204c4707f8851034043cbf78a56ad2cc26cccfb960f0bbcea282d104951dbd0e0373556c912cb24b8e3b0eea81d162201b5d0ea7ed1772975eb9fa350c988606fabafb83391d666627b20432c25953fc851aa475f4149558dd3a5920b7359217afd67d784e05f67ab6df1ac0063036f7264010118746578742f706c61696e3b636861727365743d7574662d3800357b2270223a224252432d313030222c226f70223a226d696e74222c227469636b223a22696e73222c22616d74223a2231303030227d6821c0c50eac15d7d7889f5ad84f80015e8a209129aeea937c37fa4b8bc0f9be28973000000000"
}