{
  "txid": "8bdbe4439df7f63259203666efaebe82944e614a4de380d1ae2ab79631774ce9",
  "version": 2,
  "locktime": 0,
  "vin": [
    {
      "txid": "ecb4f12693b70c6f51d52ab3d4642308462da25786bcbb3d0fa44ad759dd47e4",
      "vout": 0,
      "prevout": {
        "scriptpubkey": "512066851279a50d9dfa5c31b7d87e2a24b7bebe87c213098ac0bf6ba6d289f3a60c",
        "scriptpubkey_asm": "OP_PUSHNUM_1 OP_PUSHBYTES_32 66851279a50d9dfa5c31b7d87e2a24b7bebe87c213098ac0bf6ba6d289f3a60c",
        "scriptpubkey_type": "v1_p2tr",
        "scriptpubkey_address": "bc1pv6z3y7d9pkwl5hp3klv8u23yk7ltap7zzvyc4s9ldwnd9z0n5cxquyjmst",
        "value": 5000
      },
      "scriptsig": "",
      "scriptsig_asm": "",
      "witness": [
        "ff7724fa7ebbebf1f47ff255cdcc306d04f6293bec5f4ab7d98e9dcea10ef809b4c1bdf8a76b1c1b618d8406e8dc3aff58ad505590949a763081af84db7fad8c",
        "20a8a0d2265261e934bbaae7252d5b9c4bcfef29d8828fea4c68ad779f0b920410ac0063036f7264010118746578742f706c61696e3b636861727365743d7574662d3800377b2270223a226272632d3230222c226f70223a226d696e74222c227469636b223a2244656a65222c22616d74223a22313030303030227d68",
        "c1caf53b97816d2f6026cd9598fba6a4369f3cd2dd4e2ce77fbd40d7d9d69cea0a"
      ],
      "is_coinbase": false,
      "sequence": 4294967293
    }
  ],
  "vout": [
    {
      "scriptpubkey": "51203a94fd5bc650b4bf903185bf791dd7916de9575fd5153621fb0e4e480430218c",
      "scriptpubkey_asm": "OP_PUSHNUM_1 OP_PUSHBYTES_32 3a94fd5bc650b4bf903185bf791dd7916de9575fd5153621fb0e4e480430218c",
      "scriptpubkey_type": "v1_p2tr",
      "scriptpubkey_address": "bc1p82206k7x2z6tlyp3sklhj8whj9k7j46l652nvg0mpe8ysppsyxxqu3mxqm",
      "value": 546
    },
    {
      "scriptpubkey": "0014ea388d60ed19a3dcd5381652e2ff7715293e998f",
      "scriptpubkey_asm": "OP_0 OP_PUSHBYTES_20 ea388d60ed19a3dcd5381652e2ff7715293e998f",
      "scriptpubkey_type": "v0_p2wpkh",
      "scriptpubkey_address": "bc1qagug6c8drx3ae4fczefw9lmhz55naxv0z8w5wz",
      "value": 1724
    }
  ],
  "size": 353,
  "weight": 728,
  "fee": 2730,
  "status": {
    "confirmed": true,
    "block_height": 834460,
    "block_hash": "00000000000000000000484a79b643b2524bbce82e5d8a442013fa5b8905ed98",
    "block_time": 1710307468
  },
  "hex": "02000000000101e447dd59d74aa40f3dbbbc8657a22d46082364d4b32ad5516f0cb79326f1b4ec0000000000fdffffff0222020000000000002251203a94fd5bc650b4bf903185bf791dd7916de9575fd5153621fb0e4e480430218cbc06000000000000160014ea388d60ed19a3dcd5381652e2ff7715293e998f0340ff7724fa7ebbebf1f47ff255cdcc306d04f6293bec5f4ab7d98e9dcea10ef809b4c1bdf8a76b1c1b618d8406e8dc3aff58ad505590949a763081af84db7fad8c7d20a8a0d2265261e934bbaae7252d5b9c4bcfef29d8828fea4c68ad779f0b920410ac0063036f7264010118746578742f706c61696e3b636861727365743d7574662d3800377b2270223a226272632d3230222c226f70223a226d696e74222c227469636b223a2244656a65222c22616d74223a22313030303030227d6821c1caf53b97816d2f6026cd9598fba6a4369f3cd2dd4e2ce77fbd40d7d9d69cea0a00000000"
}