{
  "txid": "8be3e0f46e1e2e1f898e2646e642428c3c1b196aa98d5ad73771b93b580f1625",
  "version": 2,
  "locktime": 0,
  "vin": [
    {
      "txid": "198e11bcf75d64cfb73f05be2dedc53d3fea6b358fb737e2bb4d17531c0115c1",
      "vout": 1,
      "prevout": {
        "scriptpubkey": "00143cf26bad208c34b9b0719dacc0ab7376b01785b1",
        "scriptpubkey_asm": "OP_0 OP_PUSHBYTES_20 3cf26bad208c34b9b0719dacc0ab7376b01785b1",
        "scriptpubkey_type": "v0_p2wpkh",
        "scriptpubkey_address": "bc1q8nexhtfq3s6tnvr3nkkvp2mnw6cp0pd3u9rqnz",
        "value": 4277782
      },
      "scriptsig": "",
      "scriptsig_asm": "",
      "witness": [
        "304402203647ce62d4996a2bfe4fe5e7e047f2add88c5d9fda30b3c5f1895ae367cdd987022067d611d6504cbe28786306e84b3b02a37cb55d90efd1581943e6fcb2133bd8e201",
        "039a37cc451068a8e393748350a87709af9e8385dd4d8eb69be45a0178ab48a998"
      ],
      "is_coinbase": false,
      "sequence": 4294967293
    }
  ],
  "vout": [
    {
      "scriptpubkey": "00143a5f3267ff8915d11fb463ee45313fe05284a577",
      "scriptpubkey_asm": "OP_0 OP_PUSHBYTES_20 3a5f3267ff8915d11fb463ee45313fe05284a577",
      "scriptpubkey_type": "v0_p2wpkh",
      "scriptpubkey_address": "bc1q8f0nyell3y2az8a5v0hy2vflupfgffth9led22",
      "value": 88213
    },
    {
      "scriptpubkey": "76a9149905a30642e44b8a5bb20716ef7be9997c36629488ac",
      "scriptpubkey_asm": "OP_DUP OP_HASH160 OP_PUSHBYTES_20 9905a30642e44b8a5bb20716ef7be9997c366294 OP_EQUALVERIFY OP_CHECKSIG",
      "scriptpubkey_type": "p2pkh",
      "scriptpubkey_address": "1Ex791ALs6DLfi1YgP6WKeVHBdKBXhuNsK",
      "value": 8866
    },
    {
      "scriptpubkey": "0014ee035a71e58530477f77ba536818c2e185bf4c46",
      "scriptpubkey_asm": "OP_0 OP_PUSHBYTES_20 ee035a71e58530477f77ba536818c2e185bf4c46",
      "scriptpubkey_type": "v0_p2wpkh",
      "scriptpubkey_address": "bc1qacp45u09s5cywlmhhffksxxzuxzm7nzxs9pmrf",
      "value": 98509
    },
    {
      "scriptpubkey": "0014c8de6b187342fde24cdd25abf010eb49b64dc6c5",
      "scriptpubkey_asm": "OP_0 OP_PUSHBYTES_20 c8de6b187342fde24cdd25abf010eb49b64dc6c5",
      "scriptpubkey_type": "v0_p2wpkh",
      "scriptpubkey_address": "bc1qer0xkxrngt77ynxayk4lqy8tfxmym3k9qvuly3",
      "value": 59755
    },
    {
      "scriptpubkey": "5120d07dc1d63c5902ed4f603f033855d35647883969dc8eb8b5c8724a223deb89c5",
      "scriptpubkey_asm": "OP_PUSHNUM_1 OP_PUSHBYTES_32 d07dc1d63c5902ed4f603f033855d35647883969dc8eb8b5c8724a223deb89c5",
      "scriptpubkey_type": "v1_p2tr",
      "scriptpubkey_address": "bc1p6p7ur43utypw6nmq8upns4wn2ercswtfmj8t3dwgwf9zy00t38zslyz57t",
      "value": 4018655
    }
  ],
  "size": 330,
  "weight": 993,
  "fee": 3784,
  "status": {
    "confirmed": true,
    "block_height": 834638,
    "block_hash": "000000000000000000025f742c626208ac87e0b7d15054abb4a19ca2d735a54e",
    "block_time": 1710405325
  },
  "hex": "02000000000101c115011c53174dbbe237b78f356bea3f3dc5ed2dbe053fb7cf645df7bc118e190100000000fdffffff0595580100000000001600143a5f3267ff8915d11fb463ee45313fe05284a577a2220000000000001976a9149905a30642e44b8a5bb20716ef7be9997c36629488accd80010000000000160014ee035a71e58530477f77ba536818c2e185bf4c466be9000000000000160014c8de6b187342fde24cdd25abf010eb49b64dc6c5df513d0000000000225120d07dc1d63c5902ed4f603f033855d35647883969dc8eb8b5c8724a223deb89c50247304402203647ce62d4996a2bfe4fe5e7e047f2add88c5d9fda30b3c5f1895ae367cdd987022067d611d6504cbe28786306e84b3b02a37cb55d90efd1581943e6fcb2133bd8e20121039a37cc451068a8e393748350a87709af9e8385dd4d8eb69be45a0178ab48a99800000000"
}