{
  "txid": "8beb4806122ac789520d3e71ee205ef1f418003f2c3a4dbcf048bc68713fef71",
  "version": 2,
  "locktime": 0,
  "vin": [
    {
      "txid": "945ba8d4ae757dce36cd5e5b9cb282a5396c6e6972016ea5d78f63b2e8fe9e52",
      "vout": 9,
      "prevout": {
        "scriptpubkey": "51205ec93b6e06b97b5574ec30ff93ecf80c7fa6fd07305dc7dba2df67ab21af069c",
        "scriptpubkey_asm": "OP_PUSHNUM_1 OP_PUSHBYTES_32 5ec93b6e06b97b5574ec30ff93ecf80c7fa6fd07305dc7dba2df67ab21af069c",
        "scriptpubkey_type": "v1_p2tr",
        "scriptpubkey_address": "bc1ptmynkmsxh9a42a8vxrle8m8cp3l6dlg8xpwu0kazman6kgd0q6wqlushka",
        "value": 2862
      },
      "scriptsig": "",
      "scriptsig_asm": "",
      "witness": [
        "9fde9e5904a3c36b44b6538d8eb3dc1be8125142556ec4fbe58f75e26157927f8f43614beaf28f6ddc83d0eef510dd408b369ce8d0f1d40c8e5d07d741837868",
        "200c069dd6fc4eef76cdd32433985c81702845d4019f2403fe0d73f43ce45f90b2ac0063036f726401011e6170706c69636174696f6e2f6a736f6e3b636861727365743d7574662d38004cd37b2270223a22706f772d3230222c226f70223a226d696e74222c227469636b223a2250455045222c22616d74223a2231303030222c22736f6c7574696f6e223a22504550453a62633170367a67656779647861737432786571616535763930396434396a323636786e707a6178776634386336786b736871703766797a717734733761663a303030303030303030303030303030303030303139393431613561653132383937363539383134343239323533333030353762306461393666336465613163353a3130333631363733323637227d68",
        "c05067337a99a00666fd957e65b5c212a7b30f6b410af3fccba2d4635da920c85e"
      ],
      "is_coinbase": false,
      "sequence": 4294967295
    }
  ],
  "vout": [
    {
      "scriptpubkey": "5120d0919411a6ec16a3641dcd185795b52c95ad1a61174ce4d4f8d1ad0b803e4904",
      "scriptpubkey_asm": "OP_PUSHNUM_1 OP_PUSHBYTES_32 d0919411a6ec16a3641dcd185795b52c95ad1a61174ce4d4f8d1ad0b803e4904",
      "scriptpubkey_type": "v1_p2tr",
      "scriptpubkey_address": "bc1p6zgegydxast2xeqae5v909d49j266xnpzaxwf48c6xkshqp7fyzqw4s7af",
      "value": 546
    }
  ],
  "size": 487,
  "weight": 769,
  "fee": 2316,
  "status": {
    "confirmed": true,
    "block_height": 834460,
    "block_hash": "00000000000000000000484a79b643b2524bbce82e5d8a442013fa5b8905ed98",
    "block_time": 1710307468
  },
  "hex": "02000000000101529efee8b2638fd7a56e0172696e6c39a582b29c5b5ecd36ce7d75aed4a85b940900000000ffffffff012202000000000000225120d0919411a6ec16a3641dcd185795b52c95ad1a61174ce4d4f8d1ad0b803e490403409fde9e5904a3c36b44b6538d8eb3dc1be8125142556ec4fbe58f75e26157927f8f43614beaf28f6ddc83d0eef510dd408b369ce8d0f1d40c8e5d07d741837868fd2001200c069dd6fc4eef76cdd32433985c81702845d4019f2403fe0d73f43ce45f90b2ac0063036f726401011e6170706c69636174696f6e2f6a736f6e3b636861727365743d7574662d38004cd37b2270223a22706f772d3230222c226f70223a226d696e74222c227469636b223a2250455045222c22616d74223a2231303030222c22736f6c7574696f6e223a22504550453a62633170367a67656779647861737432786571616535763930396434396a323636786e707a6178776634386336786b736871703766797a717734733761663a303030303030303030303030303030303030303139393431613561653132383937363539383134343239323533333030353762306461393666336465613163353a3130333631363733323637227d6821c05067337a99a00666fd957e65b5c212a7b30f6b410af3fccba2d4635da920c85e00000000"
}