{
  "txid": "8bfb5bd6a1da16e1be0f8089c9d524ea3b5c8507c82b80242ee129d35a14658d",
  "version": 1,
  "locktime": 0,
  "vin": [
    {
      "txid": "f1940875c61148309bec70d69f9abc56276ae18d8375ab40001db34dd40bb715",
      "vout": 1,
      "prevout": {
        "scriptpubkey": "00145e93f3ece3cfe619fca9e156115117cfce0351f5",
        "scriptpubkey_asm": "OP_0 OP_PUSHBYTES_20 5e93f3ece3cfe619fca9e156115117cfce0351f5",
        "scriptpubkey_type": "v0_p2wpkh",
        "scriptpubkey_address": "bc1qt6fl8m8relnpnl9fu9tpz5ghel8qx504f4auwn",
        "value": 4666
      },
      "scriptsig": "",
      "scriptsig_asm": "",
      "witness": [
        "3045022100f7d7f66d5026671d4633705a08c13f0a15780fbf363069fca8bf545d75239d0402200f9845d6372343bd469cbafb9ac892a078c5e04309beb257bc32d95e83bf28d401",
        "03990cdda3b9379bdbf1112925a1e4ec4f294e06ed471ab246cd573ef19ea76818"
      ],
      "is_coinbase": false,
      "sequence": 4294967293
    }
  ],
  "vout": [
    {
      "scriptpubkey": "5120684abbd43aecf759dafe959800da34cf0c272df3fb9b1a57f4c233a015b0b838",
      "scriptpubkey_asm": "OP_PUSHNUM_1 OP_PUSHBYTES_32 684abbd43aecf759dafe959800da34cf0c272df3fb9b1a57f4c233a015b0b838",
      "scriptpubkey_type": "v1_p2tr",
      "scriptpubkey_address": "bc1pdp9th4p6anm4nkh7jkvqpk35euxzwt0nlwd354l5cge6q9dshquq0f7j0v",
      "value": 2286
    }
  ],
  "size": 204,
  "weight": 486,
  "fee": 2380,
  "status": {
    "confirmed": true,
    "block_height": 834638,
    "block_hash": "000000000000000000025f742c626208ac87e0b7d15054abb4a19ca2d735a54e",
    "block_time": 1710405325
  },
  "hex": "0100000000010115b70bd44db31d0040ab75838de16a2756bc9a9fd670ec9b304811c6750894f10100000000fdffffff01ee08000000000000225120684abbd43aecf759dafe959800da34cf0c272df3fb9b1a57f4c233a015b0b83802483045022100f7d7f66d5026671d4633705a08c13f0a15780fbf363069fca8bf545d75239d0402200f9845d6372343bd469cbafb9ac892a078c5e04309beb257bc32d95e83bf28d4012103990cdda3b9379bdbf1112925a1e4ec4f294e06ed471ab246cd573ef19ea7681800000000"
}