{
  "txid": "8c00190dd2be9fa05ac863b24a12074b5f41f669eaec23862220e2b6795182fa",
  "version": 1,
  "locktime": 0,
  "vin": [
    {
      "txid": "20e6da1fd28663fc130f39661263be689bd663666c32aaab2c39db914243f5fb",
      "vout": 14,
      "prevout": {
        "scriptpubkey": "00143e2392392beb9a4d19ab6b0d60fff5d03d204038",
        "scriptpubkey_asm": "OP_0 OP_PUSHBYTES_20 3e2392392beb9a4d19ab6b0d60fff5d03d204038",
        "scriptpubkey_type": "v0_p2wpkh",
        "scriptpubkey_address": "bc1q8c3eywftawdy6xdtdvxkpll46q7jqspcdwzupe",
        "value": 1694956
      },
      "scriptsig": "",
      "scriptsig_asm": "",
      "witness": [
        "3045022100a9c41da41d09f9fc073f5a101fc48a2b60b12c55d1704ed3991e471aa326d0180220210d006d968513a6fa443c73cae74cac7f5247c89e1f4e5de8a00870f70a2e6601",
        "0259e6a13dbede76a73735a16610427614cee886a9bce2588504fadf46053d474e"
      ],
      "is_coinbase": false,
      "sequence": 4294967295
    },
    {
      "txid": "56ee4798e84d219e65e9bb0ca703268bff55d8e30468b86702019382ec3eeb50",
      "vout": 0,
      "prevout": {
        "scriptpubkey": "00147521eafa06e1d3cf3ba34f417acf684bfb69d583",
        "scriptpubkey_asm": "OP_0 OP_PUSHBYTES_20 7521eafa06e1d3cf3ba34f417acf684bfb69d583",
        "scriptpubkey_type": "v0_p2wpkh",
        "scriptpubkey_address": "bc1qw5s747sxu8fu7warfaqh4nmgf0akn4vrjd6pgw",
        "value": 1107
      },
      "scriptsig": "",
      "scriptsig_asm": "",
      "witness": [
        "304402203ce8ce9245ec30b0bf9b898030e79d691c6f745351890140b89b41cc8a0f2138022063bf9af0d4947a78a4151d70df7a82e9d551568db68d3ec4d3094faa1c74feeb01",
        "030d1dee31ccb0bfd022affce9f9edb765f369d9fcabf9186f0684bb77b326d017"
      ],
      "is_coinbase": false,
      "sequence": 4294967295
    },
    {
      "txid": "8c1b33817f526c9296b49d0a89572e9b410f1cb8a875eefa43b9ce9395f89a01",
      "vout": 0,
      "prevout": {
        "scriptpubkey": "00148286da5a2fdfeff779b627355cff0fb3a4ee7d35",
        "scriptpubkey_asm": "OP_0 OP_PUSHBYTES_20 8286da5a2fdfeff779b627355cff0fb3a4ee7d35",
        "scriptpubkey_type": "v0_p2wpkh",
        "scriptpubkey_address": "bc1qs2rd5k30mlhlw7dkyu64elc0kwjwulf48a06hx",
        "value": 886
      },
      "scriptsig": "",
      "scriptsig_asm": "",
      "witness": [
        "3045022100d1fa36f6a614d4f1c83c0a8743cbed3f7887690f8559700a7f08414289d95825022071d0df48796d0714ce796cf5aa87c4125aa6f9143a9ef167cc9e95a98252918101",
        "020c5399b4fddffa81356e5037f829ea8605d67bef2dbd7a47b3b2b15f6c1ad078"
      ],
      "is_coinbase": false,
      "sequence": 4294967295
    },
    {
      "txid": "8cf4b9b5b587ec07ecdf6c6af50dfcfaecf515a0c1f5ff12cd3ace0adf23050e",
      "vout": 0,
      "prevout": {
        "scriptpubkey": "00148286da5a2fdfeff779b627355cff0fb3a4ee7d35",
        "scriptpubkey_asm": "OP_0 OP_PUSHBYTES_20 8286da5a2fdfeff779b627355cff0fb3a4ee7d35",
        "scriptpubkey_type": "v0_p2wpkh",
        "scriptpubkey_address": "bc1qs2rd5k30mlhlw7dkyu64elc0kwjwulf48a06hx",
        "value": 997
      },
      "scriptsig": "",
      "scriptsig_asm": "",
      "witness": [
        "30440220248b7800eeac7638b892a61f93d78999cf6fec2a3d67fcf0fc54b6e4441d53f1022029f21f35d68474c6c66f1dbb25c1e4b9d687af800ae48bd36e0aaa3b733f107301",
        "020c5399b4fddffa81356e5037f829ea8605d67bef2dbd7a47b3b2b15f6c1ad078"
      ],
      "is_coinbase": false,
      "sequence": 4294967295
    },
    {
      "txid": "f93fe7f7db9c95d42589e2796957eadb1f3a1e903e14e58330bf6e579eb8a860",
      "vout": 0,
      "prevout": {
        "scriptpubkey": "00148286da5a2fdfeff779b627355cff0fb3a4ee7d35",
        "scriptpubkey_asm": "OP_0 OP_PUSHBYTES_20 8286da5a2fdfeff779b627355cff0fb3a4ee7d35",
        "scriptpubkey_type": "v0_p2wpkh",
        "scriptpubkey_address": "bc1qs2rd5k30mlhlw7dkyu64elc0kwjwulf48a06hx",
        "value": 1004
      },
      "scriptsig": "",
      "scriptsig_asm": "",
      "witness": [
        "3045022100d7dc28eea8d6ebd219eb19296916b0c9d88fadf8977db053e83d1f9ca2dd5eb4022049afe548ba5ddb2ebcc79afdcc1ed7446734cef484cf79d6bb5a00ce827df96c01",
        "020c5399b4fddffa81356e5037f829ea8605d67bef2dbd7a47b3b2b15f6c1ad078"
      ],
      "is_coinbase": false,
      "sequence": 4294967295
    },
    {
      "txid": "fad9d6b4fb7f71211ff7e7fefe66dd1b745f6c5b0499044da008c3368d3b7ba8",
      "vout": 0,
      "prevout": {
        "scriptpubkey": "0014256c034f7ac4923e8875d210760936cf2949f555",
        "scriptpubkey_asm": "OP_0 OP_PUSHBYTES_20 256c034f7ac4923e8875d210760936cf2949f555",
        "scriptpubkey_type": "v0_p2wpkh",
        "scriptpubkey_address": "bc1qy4kqxnm6cjfrazr46gg8vzfkeu55na24h0acsa",
        "value": 2090
      },
      "scriptsig": "",
      "scriptsig_asm": "",
      "witness": [
        "3045022100fcfa9f2fedb1b8d23a012cbecd6a98f733fb6ad7fa5328346b4322a549278ff602200d74f107030c38b87be156d931ad7cb80fccaff519feef5168854c741ee4213001",
        "02ea4551981f560d91872dc9280980644e8c52421cba3fb50cf2cef3ea349fbac5"
      ],
      "is_coinbase": false,
      "sequence": 4294967295
    }
  ],
  "vout": [
    {
      "scriptpubkey": "76a9140b9101e216400017f11de5f71f0fe0ba20db915788ac",
      "scriptpubkey_asm": "OP_DUP OP_HASH160 OP_PUSHBYTES_20 0b9101e216400017f11de5f71f0fe0ba20db9157 OP_EQUALVERIFY OP_CHECKSIG",
      "scriptpubkey_type": "p2pkh",
      "scriptpubkey_address": "124A9Q5RLLSVeMWi9yyxvaoCYD8Aos6fZG",
      "value": 1696068
    }
  ],
  "size": 938,
  "weight": 1808,
  "fee": 4972,
  "status": {
    "confirmed": true,
    "block_height": 834464,
    "block_hash": "0000000000000000000177a0869a911a2b65c9bdcd5a8bcb02b68f305bee848e",
    "block_time": 1710308296
  },
  "hex": "01000000000106fbf5434291db392cabaa326c6663d69b68be631266390f13fc6386d21fdae6200e00000000ffffffff50eb3eec8293010267b86804e3d855ff8b2603a70cbbe9659e214de89847ee560000000000ffffffff019af89593ceb943faee75a8b81c0f419b2e57890a9db496926c527f81331b8c0000000000ffffffff0e0523df0ace3acd12fff5c1a015f5ecfafc0df56a6cdfec07ec87b5b5b9f48c0000000000ffffffff60a8b89e576ebf3083e5143e901e3a1fdbea576979e28925d4959cdbf7e73ff90000000000ffffffffa87b3b8d36c308a04d0499045b6c5f741bdd66fefee7f71f21717ffbb4d6d9fa0000000000ffffffff0144e11900000000001976a9140b9101e216400017f11de5f71f0fe0ba20db915788ac02483045022100a9c41da41d09f9fc073f5a101fc48a2b60b12c55d1704ed3991e471aa326d0180220210d006d968513a6fa443c73cae74cac7f5247c89e1f4e5de8a00870f70a2e6601210259e6a13dbede76a73735a16610427614cee886a9bce2588504fadf46053d474e0247304402203ce8ce9245ec30b0bf9b898030e79d691c6f745351890140b89b41cc8a0f2138022063bf9af0d4947a78a4151d70df7a82e9d551568db68d3ec4d3094faa1c74feeb0121030d1dee31ccb0bfd022affce9f9edb765f369d9fcabf9186f0684bb77b326d01702483045022100d1fa36f6a614d4f1c83c0a8743cbed3f7887690f8559700a7f08414289d95825022071d0df48796d0714ce796cf5aa87c4125aa6f9143a9ef167cc9e95a9825291810121020c5399b4fddffa81356e5037f829ea8605d67bef2dbd7a47b3b2b15f6c1ad078024730440220248b7800eeac7638b892a61f93d78999cf6fec2a3d67fcf0fc54b6e4441d53f1022029f21f35d68474c6c66f1dbb25c1e4b9d687af800ae48bd36e0aaa3b733f10730121020c5399b4fddffa81356e5037f829ea8605d67bef2dbd7a47b3b2b15f6c1ad07802483045022100d7dc28eea8d6ebd219eb19296916b0c9d88fadf8977db053e83d1f9ca2dd5eb4022049afe548ba5ddb2ebcc79afdcc1ed7446734cef484cf79d6bb5a00ce827df96c0121020c5399b4fddffa81356e5037f829ea8605d67bef2dbd7a47b3b2b15f6c1ad07802483045022100fcfa9f2fedb1b8d23a012cbecd6a98f733fb6ad7fa5328346b4322a549278ff602200d74f107030c38b87be156d931ad7cb80fccaff519feef5168854c741ee42130012102ea4551981f560d91872dc9280980644e8c52421cba3fb50cf2cef3ea349fbac500000000"
}