{
  "txid": "8c0078b31019640c61301a28dbe9931d449ae82cdc72b16f25afe678d0f7fa35",
  "version": 1,
  "locktime": 0,
  "vin": [
    {
      "txid": "34cd87b518fc699266df6ca6196b840a24d47fc575281021ad2877bea3daa926",
      "vout": 1,
      "prevout": {
        "scriptpubkey": "00149cbed6e18d56692cd3aa394c9ba389947dfeff04",
        "scriptpubkey_asm": "OP_0 OP_PUSHBYTES_20 9cbed6e18d56692cd3aa394c9ba389947dfeff04",
        "scriptpubkey_type": "v0_p2wpkh",
        "scriptpubkey_address": "bc1qnjlddcvd2e5je5a289xfhgufj37lalcysjdmx0",
        "value": 399212
      },
      "scriptsig": "",
      "scriptsig_asm": "",
      "witness": [
        "304402201f96092b7c6b4276dd28cd3421c8eddd4b35393cbfa2cabbd901f0ab43a93a0c0220387422ffc403ee9d41e7ae9ef5643f3ea3813c205323495604969d00cee3f47201",
        "03d8f0d78fdccc8ff87e23de3ba6df2c70bab29877446b785d5e954c1a77045aa4"
      ],
      "is_coinbase": false,
      "sequence": 4294967295
    }
  ],
  "vout": [
    {
      "scriptpubkey": "76a914ee9e9f6de4193be2102be5959a5c36b2959334f788ac",
      "scriptpubkey_asm": "OP_DUP OP_HASH160 OP_PUSHBYTES_20 ee9e9f6de4193be2102be5959a5c36b2959334f7 OP_EQUALVERIFY OP_CHECKSIG",
      "scriptpubkey_type": "p2pkh",
      "scriptpubkey_address": "1NkhqxcvWLFDaGCKsfo4E93w9JGKrU7vQK",
      "value": 115685
    },
    {
      "scriptpubkey": "00145d9cd2f0945bf1e6e53d78dd62900d0570c72b44",
      "scriptpubkey_asm": "OP_0 OP_PUSHBYTES_20 5d9cd2f0945bf1e6e53d78dd62900d0570c72b44",
      "scriptpubkey_type": "v0_p2wpkh",
      "scriptpubkey_address": "bc1qtkwd9uy5t0c7defa0rwk9yqdq4cvw26yurqquu",
      "value": 280672
    }
  ],
  "size": 225,
  "weight": 573,
  "fee": 2855,
  "status": {
    "confirmed": true,
    "block_height": 834638,
    "block_hash": "000000000000000000025f742c626208ac87e0b7d15054abb4a19ca2d735a54e",
    "block_time": 1710405325
  },
  "hex": "0100000000010126a9daa3be7728ad21102875c57fd4240a846b19a66cdf669269fc18b587cd340100000000ffffffff02e5c30100000000001976a914ee9e9f6de4193be2102be5959a5c36b2959334f788ac60480400000000001600145d9cd2f0945bf1e6e53d78dd62900d0570c72b440247304402201f96092b7c6b4276dd28cd3421c8eddd4b35393cbfa2cabbd901f0ab43a93a0c0220387422ffc403ee9d41e7ae9ef5643f3ea3813c205323495604969d00cee3f472012103d8f0d78fdccc8ff87e23de3ba6df2c70bab29877446b785d5e954c1a77045aa400000000"
}