{
  "txid": "8c03eba988751bfc3a00892dd40a7140f767991e472149e71eeb79ee3a29b7d3",
  "version": 2,
  "locktime": 0,
  "vin": [
    {
      "txid": "8486ecb4df0880316dd6e82b3971b4df187aff23765bc3a47f8d78bb53aa273c",
      "vout": 41,
      "prevout": {
        "scriptpubkey": "51200165d62d0211fe8c570872440a0310d3341b65e0b4b7c67f50e48049a97f40e7",
        "scriptpubkey_asm": "OP_PUSHNUM_1 OP_PUSHBYTES_32 0165d62d0211fe8c570872440a0310d3341b65e0b4b7c67f50e48049a97f40e7",
        "scriptpubkey_type": "v1_p2tr",
        "scriptpubkey_address": "bc1pq9javtgzz8lgc4cgwfzq5qcs6v6pke0qkjmuvl6sujqyn2tlgrns0cmy7p",
        "value": 2575
      },
      "scriptsig": "",
      "scriptsig_asm": "",
      "witness": [
        "31a24864f62104933fc0a756a90639164ba9b30e12b4af86d9ff25f179c6e7aca713bcbc375c4f5ac613ff17e5f158b773d7a8554b702e150efd57f8b4203f57",
        "2026d6fd8a0f159f4b3a46d759b1f259677bb200c76e85b1a5deea83e38040b6b2ac0063036f726401010a746578742f706c61696e00367b2270223a226272632d3230222c226f70223a226d696e74222c227469636b223a2261616161222c22616d74223a223130303030227d68",
        "c126d6fd8a0f159f4b3a46d759b1f259677bb200c76e85b1a5deea83e38040b6b2"
      ],
      "is_coinbase": false,
      "sequence": 4261412863
    }
  ],
  "vout": [
    {
      "scriptpubkey": "0014ddd7ef12ea6f78edcc1e8e7afa12c01ab59f3339",
      "scriptpubkey_asm": "OP_0 OP_PUSHBYTES_20 ddd7ef12ea6f78edcc1e8e7afa12c01ab59f3339",
      "scriptpubkey_type": "v0_p2wpkh",
      "scriptpubkey_address": "bc1qmht77yh2dauwmnq73ea05ykqr26e7veea8spz6",
      "value": 546
    }
  ],
  "size": 295,
  "weight": 541,
  "fee": 2029,
  "status": {
    "confirmed": true,
    "block_height": 834460,
    "block_hash": "00000000000000000000484a79b643b2524bbce82e5d8a442013fa5b8905ed98",
    "block_time": 1710307468
  },
  "hex": "020000000001013c27aa53bb788d7fa4c35b7623ff7a18dfb471392be8d66d318008dfb4ec86842900000000fffffffd012202000000000000160014ddd7ef12ea6f78edcc1e8e7afa12c01ab59f3339034031a24864f62104933fc0a756a90639164ba9b30e12b4af86d9ff25f179c6e7aca713bcbc375c4f5ac613ff17e5f158b773d7a8554b702e150efd57f8b4203f576e2026d6fd8a0f159f4b3a46d759b1f259677bb200c76e85b1a5deea83e38040b6b2ac0063036f726401010a746578742f706c61696e00367b2270223a226272632d3230222c226f70223a226d696e74222c227469636b223a2261616161222c22616d74223a223130303030227d6821c126d6fd8a0f159f4b3a46d759b1f259677bb200c76e85b1a5deea83e38040b6b200000000"
}