{
  "txid": "8c0c61e66aa62b5c851018f2971aa32ced258ba4b68ab2a6d63c770f787a3e58",
  "version": 1,
  "locktime": 834636,
  "vin": [
    {
      "txid": "7215511e0b9f645d2d1344c105a7f5c5381108ed73effbed618d8e3b465d7969",
      "vout": 1,
      "prevout": {
        "scriptpubkey": "0020aaabfcf76818d703ddc6be1ede8eea949cde15d44f73ae6098c7ffabe4c3f74a",
        "scriptpubkey_asm": "OP_0 OP_PUSHBYTES_32 aaabfcf76818d703ddc6be1ede8eea949cde15d44f73ae6098c7ffabe4c3f74a",
        "scriptpubkey_type": "v0_p2wsh",
        "scriptpubkey_address": "bc1q424leamgrrts8hwxhc0darh2jjwdu9w5fae6ucyccll6hexr7a9qeq2dga",
        "value": 49601972
      },
      "scriptsig": "",
      "scriptsig_asm": "",
      "witness": [
        "",
        "304402207611102b7be3a6fd9496a62252263cee8c7f13fc17b28443bed4934a26fc0808022060deb2785aec19857c609caf74524e849c66f3f2259cdd4b57600431242311b901",
        "3044022015a39b3ed0c8319158f990b7fa3bc6a0f99c1a00173ade1672a4a7937a0f085c022075416d86953cbb2de9d8fe653a9f201eec4419426fc87121d0e0ca02df4695a401",
        "52210266b9ebb5b8d99ad57154ea7c432f4d601d07cb4c53b8b446488300f3edfd8cc92103742abd2770d10a05cdb3c66389b951b0e3fd15a1a05e22452f3b3cbcc4dc783821036fd2772cb128b6ec0c042bfc94e4166f9b469af56297a83fa27a270c6d75cee153ae"
      ],
      "is_coinbase": false,
      "sequence": 4294967295,
      "inner_witnessscript_asm": "OP_PUSHNUM_2 OP_PUSHBYTES_33 0266b9ebb5b8d99ad57154ea7c432f4d601d07cb4c53b8b446488300f3edfd8cc9 OP_PUSHBYTES_33 03742abd2770d10a05cdb3c66389b951b0e3fd15a1a05e22452f3b3cbcc4dc7838 OP_PUSHBYTES_33 036fd2772cb128b6ec0c042bfc94e4166f9b469af56297a83fa27a270c6d75cee1 OP_PUSHNUM_3 OP_CHECKMULTISIG"
    }
  ],
  "vout": [
    {
      "scriptpubkey": "0014cd2189500dbb75ec643f621dd20a82c5ae1bb046",
      "scriptpubkey_asm": "OP_0 OP_PUSHBYTES_20 cd2189500dbb75ec643f621dd20a82c5ae1bb046",
      "scriptpubkey_type": "v0_p2wpkh",
      "scriptpubkey_address": "bc1qe5scj5qdhd67ceplvgwayz5zckhphvzx9chjav",
      "value": 65360
    },
    {
      "scriptpubkey": "00149a8833ed37cf5ba7fd007ae79a78615e946aa9b2",
      "scriptpubkey_asm": "OP_0 OP_PUSHBYTES_20 9a8833ed37cf5ba7fd007ae79a78615e946aa9b2",
      "scriptpubkey_type": "v0_p2wpkh",
      "scriptpubkey_address": "bc1qn2yr8mfhead60lgq0tne57rpt62x42djlqasvc",
      "value": 70956
    },
    {
      "scriptpubkey": "0020763696911634d1e3a2a8d2c3838a2d9f0aef9910244a7d45ae0ed8faea778db2",
      "scriptpubkey_asm": "OP_0 OP_PUSHBYTES_32 763696911634d1e3a2a8d2c3838a2d9f0aef9910244a7d45ae0ed8faea778db2",
      "scriptpubkey_type": "v0_p2wsh",
      "scriptpubkey_address": "bc1qwcmfdygkxng78g4g6tpc8z3dnu9wlxgsy39863dwpmv046nh3keqssqp9q",
      "value": 49461346
    }
  ],
  "size": 410,
  "weight": 878,
  "fee": 4310,
  "status": {
    "confirmed": true,
    "block_height": 834638,
    "block_hash": "000000000000000000025f742c626208ac87e0b7d15054abb4a19ca2d735a54e",
    "block_time": 1710405325
  },
  "hex": "0100000000010169795d463b8e8d61edfbef73ed081138c5f5a705c144132d5d649f0b1e5115720100000000ffffffff0350ff000000000000160014cd2189500dbb75ec643f621dd20a82c5ae1bb0462c150100000000001600149a8833ed37cf5ba7fd007ae79a78615e946aa9b262b8f20200000000220020763696911634d1e3a2a8d2c3838a2d9f0aef9910244a7d45ae0ed8faea778db2040047304402207611102b7be3a6fd9496a62252263cee8c7f13fc17b28443bed4934a26fc0808022060deb2785aec19857c609caf74524e849c66f3f2259cdd4b57600431242311b901473044022015a39b3ed0c8319158f990b7fa3bc6a0f99c1a00173ade1672a4a7937a0f085c022075416d86953cbb2de9d8fe653a9f201eec4419426fc87121d0e0ca02df4695a4016952210266b9ebb5b8d99ad57154ea7c432f4d601d07cb4c53b8b446488300f3edfd8cc92103742abd2770d10a05cdb3c66389b951b0e3fd15a1a05e22452f3b3cbcc4dc783821036fd2772cb128b6ec0c042bfc94e4166f9b469af56297a83fa27a270c6d75cee153ae4cbc0c00"
}