{
  "txid": "8c11d6644a623eeeb8692a801c6e50a6404623fd24cfcd3d39f160b42963fac9",
  "version": 2,
  "locktime": 0,
  "vin": [
    {
      "txid": "acc3ba00869acb582a3f2904ce3a11dd3779350ce234063fc7d0959246213364",
      "vout": 240,
      "prevout": {
        "scriptpubkey": "512092c90512c02680457389140dcc40f8bda846905089026399d40744d6b6418c5b",
        "scriptpubkey_asm": "OP_PUSHNUM_1 OP_PUSHBYTES_32 92c90512c02680457389140dcc40f8bda846905089026399d40744d6b6418c5b",
        "scriptpubkey_type": "v1_p2tr",
        "scriptpubkey_address": "bc1pjtys2ykqy6qy2uufzsxucs8chk5ydyzs3ypx8xw5qazdddjp33dsr9xud2",
        "value": 1806
      },
      "scriptsig": "",
      "scriptsig_asm": "",
      "witness": [
        "d114f0630b0fa4f3111c720f6be1834890f13a7d2d0bde10f446b4b1c6fcbed74d3c7383a06f1764d3bc1a87de8542f890f824891656dc42755167c4a6fef244",
        "20e34abf428d2be45016076feb90b7cd34ca267840c2e6d89b3daf5749ef873454ac0063036f726401010a746578742f706c61696e00357b2270223a226272632d3230222c226f70223a226d696e74222c227469636b223a22646f6765222c22616d74223a2234323030227d68",
        "c0e34abf428d2be45016076feb90b7cd34ca267840c2e6d89b3daf5749ef873454"
      ],
      "is_coinbase": false,
      "sequence": 4261412863
    }
  ],
  "vout": [
    {
      "scriptpubkey": "00147a665de7a370f4c9b372ab1fae587500a5bcbdb4",
      "scriptpubkey_asm": "OP_0 OP_PUSHBYTES_20 7a665de7a370f4c9b372ab1fae587500a5bcbdb4",
      "scriptpubkey_type": "v0_p2wpkh",
      "scriptpubkey_address": "bc1q0fn9mearwr6vnvmj4v06ukr4qzjme0d565dzcx",
      "value": 294
    }
  ],
  "size": 294,
  "weight": 540,
  "fee": 1512,
  "status": {
    "confirmed": true,
    "block_height": 834460,
    "block_hash": "00000000000000000000484a79b643b2524bbce82e5d8a442013fa5b8905ed98",
    "block_time": 1710307468
  },
  "hex": "02000000000101643321469295d0c73f0634e20c357937dd113ace04293f2a58cb9a8600bac3acf000000000fffffffd0126010000000000001600147a665de7a370f4c9b372ab1fae587500a5bcbdb40340d114f0630b0fa4f3111c720f6be1834890f13a7d2d0bde10f446b4b1c6fcbed74d3c7383a06f1764d3bc1a87de8542f890f824891656dc42755167c4a6fef2446d20e34abf428d2be45016076feb90b7cd34ca267840c2e6d89b3daf5749ef873454ac0063036f726401010a746578742f706c61696e00357b2270223a226272632d3230222c226f70223a226d696e74222c227469636b223a22646f6765222c22616d74223a2234323030227d6821c0e34abf428d2be45016076feb90b7cd34ca267840c2e6d89b3daf5749ef87345400000000"
}