{
  "txid": "8c2371bbe86b475b781d99302dece9305b546ad411d6522b233de74f55c760d6",
  "version": 2,
  "locktime": 0,
  "vin": [
    {
      "txid": "6f241096fd5ce60e38fe9538fca4c722b9646199a1c5a6684efc26b65c9ce9e3",
      "vout": 1,
      "prevout": {
        "scriptpubkey": "001479485eaa66f9ef0332542a865327d18e97d7d78b",
        "scriptpubkey_asm": "OP_0 OP_PUSHBYTES_20 79485eaa66f9ef0332542a865327d18e97d7d78b",
        "scriptpubkey_type": "v0_p2wpkh",
        "scriptpubkey_address": "bc1q09y9a2nxl8hsxvj592r9xf7336ta04ut42pg32",
        "value": 11820300
      },
      "scriptsig": "",
      "scriptsig_asm": "",
      "witness": [
        "3045022100a5feb4bd25e729ad5449a380333247702efcb363c9b4d70aed71da30528317210220336a185259ad8a67ba17356fd994571ec2d3452b357c93d24df8e667079c679901",
        "03a11c61d7a08c383e1da33139cc01ab92b7b1b3c44512809f929754903c3d3835"
      ],
      "is_coinbase": false,
      "sequence": 4294967295
    }
  ],
  "vout": [
    {
      "scriptpubkey": "001454dec0f2d25b8fb2156e4e842d5dc1e57d80be35",
      "scriptpubkey_asm": "OP_0 OP_PUSHBYTES_20 54dec0f2d25b8fb2156e4e842d5dc1e57d80be35",
      "scriptpubkey_type": "v0_p2wpkh",
      "scriptpubkey_address": "bc1q2n0vpukjtw8my9twf6zz6hwpu47cp034xgfyrk",
      "value": 2051963
    },
    {
      "scriptpubkey": "00140ef70d6e61d8b9d32707dc341eed329b9af09ec2",
      "scriptpubkey_asm": "OP_0 OP_PUSHBYTES_20 0ef70d6e61d8b9d32707dc341eed329b9af09ec2",
      "scriptpubkey_type": "v0_p2wpkh",
      "scriptpubkey_address": "bc1qpmms6mnpmzuaxfc8ms6pamfjnwd0p8kzhqdvgn",
      "value": 9766240
    }
  ],
  "size": 223,
  "weight": 562,
  "fee": 2097,
  "status": {
    "confirmed": true,
    "block_height": 834638,
    "block_hash": "000000000000000000025f742c626208ac87e0b7d15054abb4a19ca2d735a54e",
    "block_time": 1710405325
  },
  "hex": "02000000000101e3e99c5cb626fc4e68a6c5a1996164b922c7a4fc3895fe380ee65cfd9610246f0100000000ffffffff027b4f1f000000000016001454dec0f2d25b8fb2156e4e842d5dc1e57d80be3560059500000000001600140ef70d6e61d8b9d32707dc341eed329b9af09ec202483045022100a5feb4bd25e729ad5449a380333247702efcb363c9b4d70aed71da30528317210220336a185259ad8a67ba17356fd994571ec2d3452b357c93d24df8e667079c6799012103a11c61d7a08c383e1da33139cc01ab92b7b1b3c44512809f929754903c3d383500000000"
}