{
  "txid": "8c4edb54071e56342fb8ee5af6337541964708bb757a339092866ebd42a07262",
  "version": 2,
  "locktime": 0,
  "vin": [
    {
      "txid": "2677f0cc16295d3474f28a154b1f482a390392460de0558eacc808632b30485c",
      "vout": 0,
      "prevout": {
        "scriptpubkey": "001449d874ec8f89a62d216d16c2453485a960017db7",
        "scriptpubkey_asm": "OP_0 OP_PUSHBYTES_20 49d874ec8f89a62d216d16c2453485a960017db7",
        "scriptpubkey_type": "v0_p2wpkh",
        "scriptpubkey_address": "bc1qf8v8fmy03xnz6gtdzmpy2dy949sqzldhh05dzk",
        "value": 831167
      },
      "scriptsig": "",
      "scriptsig_asm": "",
      "witness": [
        "3045022100847fe5d04a9e1f9cb8ca65a4be741ea74ccdfabe85a6be5a7b5e3791a01bf51702201edb58bc614f34be2f384897ea81afe1ba8304e790b5a65a002ba29bb0f4adc101",
        "02f51b0cb0f3726e7549cc5ab9f527f6c102eac820fce0ce0c555dbdf107c17457"
      ],
      "is_coinbase": false,
      "sequence": 4294967295
    },
    {
      "txid": "74deafedac0c02c07375ad0f345f38383f353faa8126986f1bae19fb2a55c127",
      "vout": 0,
      "prevout": {
        "scriptpubkey": "001449d874ec8f89a62d216d16c2453485a960017db7",
        "scriptpubkey_asm": "OP_0 OP_PUSHBYTES_20 49d874ec8f89a62d216d16c2453485a960017db7",
        "scriptpubkey_type": "v0_p2wpkh",
        "scriptpubkey_address": "bc1qf8v8fmy03xnz6gtdzmpy2dy949sqzldhh05dzk",
        "value": 17742
      },
      "scriptsig": "",
      "scriptsig_asm": "",
      "witness": [
        "3044022011b6cc93e685c2b6f22b38ab33ae543426d27933930e30aec54b90761242872402200db8448824861ae4de10ea3b0e07cbc90b41589fe15f8fad542f5c6799c7d89101",
        "02f51b0cb0f3726e7549cc5ab9f527f6c102eac820fce0ce0c555dbdf107c17457"
      ],
      "is_coinbase": false,
      "sequence": 4294967295
    }
  ],
  "vout": [
    {
      "scriptpubkey": "a914be24376ba2d4b811a6bc0ebe797141edf62133c087",
      "scriptpubkey_asm": "OP_HASH160 OP_PUSHBYTES_20 be24376ba2d4b811a6bc0ebe797141edf62133c0 OP_EQUAL",
      "scriptpubkey_type": "p2sh",
      "scriptpubkey_address": "3K2PhMfZHZZzvvW4GwmNnJzVPn1CedZVAi",
      "value": 147053
    },
    {
      "scriptpubkey": "001449d874ec8f89a62d216d16c2453485a960017db7",
      "scriptpubkey_asm": "OP_0 OP_PUSHBYTES_20 49d874ec8f89a62d216d16c2453485a960017db7",
      "scriptpubkey_type": "v0_p2wpkh",
      "scriptpubkey_address": "bc1qf8v8fmy03xnz6gtdzmpy2dy949sqzldhh05dzk",
      "value": 698375
    }
  ],
  "size": 372,
  "weight": 837,
  "fee": 3481,
  "status": {
    "confirmed": true,
    "block_height": 834638,
    "block_hash": "000000000000000000025f742c626208ac87e0b7d15054abb4a19ca2d735a54e",
    "block_time": 1710405325
  },
  "hex": "020000000001025c48302b6308c8ac8e55e00d469203392a481f4b158af274345d2916ccf077260000000000ffffffff27c1552afb19ae1b6f982681aa3f353f38385f340fad7573c0020cacedafde740000000000ffffffff026d3e02000000000017a914be24376ba2d4b811a6bc0ebe797141edf62133c08707a80a000000000016001449d874ec8f89a62d216d16c2453485a960017db702483045022100847fe5d04a9e1f9cb8ca65a4be741ea74ccdfabe85a6be5a7b5e3791a01bf51702201edb58bc614f34be2f384897ea81afe1ba8304e790b5a65a002ba29bb0f4adc1012102f51b0cb0f3726e7549cc5ab9f527f6c102eac820fce0ce0c555dbdf107c1745702473044022011b6cc93e685c2b6f22b38ab33ae543426d27933930e30aec54b90761242872402200db8448824861ae4de10ea3b0e07cbc90b41589fe15f8fad542f5c6799c7d891012102f51b0cb0f3726e7549cc5ab9f527f6c102eac820fce0ce0c555dbdf107c1745700000000"
}