{
  "txid": "8c547dc77dd09374fb80915b4ec11dca61f8f8bc4d3d3bf799054ef4b43001ae",
  "version": 2,
  "locktime": 0,
  "vin": [
    {
      "txid": "313ca4bf9d9de4266b08c6c7906265f03bd48e561802b701921ee0a909bbaa12",
      "vout": 1,
      "prevout": {
        "scriptpubkey": "76a9144184b07933c36ec00d9f8f1bda66298a673f661d88ac",
        "scriptpubkey_asm": "OP_DUP OP_HASH160 OP_PUSHBYTES_20 4184b07933c36ec00d9f8f1bda66298a673f661d OP_EQUALVERIFY OP_CHECKSIG",
        "scriptpubkey_type": "p2pkh",
        "scriptpubkey_address": "16yRstRXStVJJ1TN2S4DCWifyrCsetpma7",
        "value": 487812
      },
      "scriptsig": "483045022100ff84aab991423969d2cefbccbb588939ce2bf85d87ca84641174509c74b859ec022000f99532a44dc9a39de0de642650bb165574667ece41c575e2ee919504d5f8ca0121021c80a1f237ce3c631207fa3c127d45a7a684c772a04f6bd1fb3cc73c64d198d9",
      "scriptsig_asm": "OP_PUSHBYTES_72 3045022100ff84aab991423969d2cefbccbb588939ce2bf85d87ca84641174509c74b859ec022000f99532a44dc9a39de0de642650bb165574667ece41c575e2ee919504d5f8ca01 OP_PUSHBYTES_33 021c80a1f237ce3c631207fa3c127d45a7a684c772a04f6bd1fb3cc73c64d198d9",
      "is_coinbase": false,
      "sequence": 4294967295
    },
    {
      "txid": "214671fbd15c307ac8c46492a3ba86dc6fee6b27def66cf079f6fc783e9b20e3",
      "vout": 1,
      "prevout": {
        "scriptpubkey": "76a9144184b07933c36ec00d9f8f1bda66298a673f661d88ac",
        "scriptpubkey_asm": "OP_DUP OP_HASH160 OP_PUSHBYTES_20 4184b07933c36ec00d9f8f1bda66298a673f661d OP_EQUALVERIFY OP_CHECKSIG",
        "scriptpubkey_type": "p2pkh",
        "scriptpubkey_address": "16yRstRXStVJJ1TN2S4DCWifyrCsetpma7",
        "value": 14920
      },
      "scriptsig": "4830450221008830b16d4674e34427b3638d5af492cc2c570504634421e109c067e46983c4ce022053bd49ae20f4b85b50b19f8d7325968034b1a9c252a3af83e063b517b4b5d8340121021c80a1f237ce3c631207fa3c127d45a7a684c772a04f6bd1fb3cc73c64d198d9",
      "scriptsig_asm": "OP_PUSHBYTES_72 30450221008830b16d4674e34427b3638d5af492cc2c570504634421e109c067e46983c4ce022053bd49ae20f4b85b50b19f8d7325968034b1a9c252a3af83e063b517b4b5d83401 OP_PUSHBYTES_33 021c80a1f237ce3c631207fa3c127d45a7a684c772a04f6bd1fb3cc73c64d198d9",
      "is_coinbase": false,
      "sequence": 4294967295
    },
    {
      "txid": "83421d982257ba04864279b7f8d3ee9072e8253adb95dc5ed73afed9c003d62e",
      "vout": 1,
      "prevout": {
        "scriptpubkey": "76a9144184b07933c36ec00d9f8f1bda66298a673f661d88ac",
        "scriptpubkey_asm": "OP_DUP OP_HASH160 OP_PUSHBYTES_20 4184b07933c36ec00d9f8f1bda66298a673f661d OP_EQUALVERIFY OP_CHECKSIG",
        "scriptpubkey_type": "p2pkh",
        "scriptpubkey_address": "16yRstRXStVJJ1TN2S4DCWifyrCsetpma7",
        "value": 11243
      },
      "scriptsig": "483045022100c7d9f1c053bb93b021ebd99aefc4b5e3809dec42c51e2271556a18833f71158a022004f24bb95cc3a9fd99cafecc550944bcf5d71f9490ed5c640b4f3757c3dafedf0121021c80a1f237ce3c631207fa3c127d45a7a684c772a04f6bd1fb3cc73c64d198d9",
      "scriptsig_asm": "OP_PUSHBYTES_72 3045022100c7d9f1c053bb93b021ebd99aefc4b5e3809dec42c51e2271556a18833f71158a022004f24bb95cc3a9fd99cafecc550944bcf5d71f9490ed5c640b4f3757c3dafedf01 OP_PUSHBYTES_33 021c80a1f237ce3c631207fa3c127d45a7a684c772a04f6bd1fb3cc73c64d198d9",
      "is_coinbase": false,
      "sequence": 4294967295
    }
  ],
  "vout": [
    {
      "scriptpubkey": "001419673628539501935af165a62c8c5492eb7948e6",
      "scriptpubkey_asm": "OP_0 OP_PUSHBYTES_20 19673628539501935af165a62c8c5492eb7948e6",
      "scriptpubkey_type": "v0_p2wpkh",
      "scriptpubkey_address": "bc1qr9nnv2znj5qexkh3vknzerz5jt4hjj8xs627sd",
      "value": 500000
    },
    {
      "scriptpubkey": "76a9144184b07933c36ec00d9f8f1bda66298a673f661d88ac",
      "scriptpubkey_asm": "OP_DUP OP_HASH160 OP_PUSHBYTES_20 4184b07933c36ec00d9f8f1bda66298a673f661d OP_EQUALVERIFY OP_CHECKSIG",
      "scriptpubkey_type": "p2pkh",
      "scriptpubkey_address": "16yRstRXStVJJ1TN2S4DCWifyrCsetpma7",
      "value": 8410
    }
  ],
  "size": 519,
  "weight": 2076,
  "fee": 5565,
  "status": {
    "confirmed": true,
    "block_height": 834464,
    "block_hash": "0000000000000000000177a0869a911a2b65c9bdcd5a8bcb02b68f305bee848e",
    "block_time": 1710308296
  },
  "hex": "020000000312aabb09a9e01e9201b70218568ed43bf0656290c7c6086b26e49d9dbfa43c31010000006b483045022100ff84aab991423969d2cefbccbb588939ce2bf85d87ca84641174509c74b859ec022000f99532a44dc9a39de0de642650bb165574667ece41c575e2ee919504d5f8ca0121021c80a1f237ce3c631207fa3c127d45a7a684c772a04f6bd1fb3cc73c64d198d9ffffffffe3209b3e78fcf679f06cf6de276bee6fdc86baa39264c4c87a305cd1fb714621010000006b4830450221008830b16d4674e34427b3638d5af492cc2c570504634421e109c067e46983c4ce022053bd49ae20f4b85b50b19f8d7325968034b1a9c252a3af83e063b517b4b5d8340121021c80a1f237ce3c631207fa3c127d45a7a684c772a04f6bd1fb3cc73c64d198d9ffffffff2ed603c0d9fe3ad75edc95db3a25e87290eed3f8b779428604ba5722981d4283010000006b483045022100c7d9f1c053bb93b021ebd99aefc4b5e3809dec42c51e2271556a18833f71158a022004f24bb95cc3a9fd99cafecc550944bcf5d71f9490ed5c640b4f3757c3dafedf0121021c80a1f237ce3c631207fa3c127d45a7a684c772a04f6bd1fb3cc73c64d198d9ffffffff0220a107000000000016001419673628539501935af165a62c8c5492eb7948e6da200000000000001976a9144184b07933c36ec00d9f8f1bda66298a673f661d88ac00000000"
}