{
  "txid": "8c5c6ab7df99aa229b44fd08e3cacf48592c1aafa7b1918f920708f43b7c416d",
  "version": 2,
  "locktime": 0,
  "vin": [
    {
      "txid": "8486ecb4df0880316dd6e82b3971b4df187aff23765bc3a47f8d78bb53aa273c",
      "vout": 103,
      "prevout": {
        "scriptpubkey": "5120f57838005c8da15770e5feb82a1f69e4035e08fd9853081957623c7b940a5066",
        "scriptpubkey_asm": "OP_PUSHNUM_1 OP_PUSHBYTES_32 f57838005c8da15770e5feb82a1f69e4035e08fd9853081957623c7b940a5066",
        "scriptpubkey_type": "v1_p2tr",
        "scriptpubkey_address": "bc1p74ursqzu3ks4wu89l6uz58mfusp4uz8anpfssx2hvg78h9q22pnqry65d3",
        "value": 2575
      },
      "scriptsig": "",
      "scriptsig_asm": "",
      "witness": [
        "33679f6e4572464dee5d9e4e687480957e413f4263050f7220294e5aa521b03ed22cd17dd47c5e6b8025482b3955754c8136bba190d521137a59b3630e985aa2",
        "20476e4aade07fcbc331175ba32a066bb98316e87a2cccf449cf972f06c7786216ac0063036f726401010a746578742f706c61696e00367b2270223a226272632d3230222c226f70223a226d696e74222c227469636b223a2261616161222c22616d74223a223130303030227d68",
        "c0476e4aade07fcbc331175ba32a066bb98316e87a2cccf449cf972f06c7786216"
      ],
      "is_coinbase": false,
      "sequence": 4261412863
    }
  ],
  "vout": [
    {
      "scriptpubkey": "0014ddd7ef12ea6f78edcc1e8e7afa12c01ab59f3339",
      "scriptpubkey_asm": "OP_0 OP_PUSHBYTES_20 ddd7ef12ea6f78edcc1e8e7afa12c01ab59f3339",
      "scriptpubkey_type": "v0_p2wpkh",
      "scriptpubkey_address": "bc1qmht77yh2dauwmnq73ea05ykqr26e7veea8spz6",
      "value": 546
    }
  ],
  "size": 295,
  "weight": 541,
  "fee": 2029,
  "status": {
    "confirmed": true,
    "block_height": 834460,
    "block_hash": "00000000000000000000484a79b643b2524bbce82e5d8a442013fa5b8905ed98",
    "block_time": 1710307468
  },
  "hex": "020000000001013c27aa53bb788d7fa4c35b7623ff7a18dfb471392be8d66d318008dfb4ec86846700000000fffffffd012202000000000000160014ddd7ef12ea6f78edcc1e8e7afa12c01ab59f3339034033679f6e4572464dee5d9e4e687480957e413f4263050f7220294e5aa521b03ed22cd17dd47c5e6b8025482b3955754c8136bba190d521137a59b3630e985aa26e20476e4aade07fcbc331175ba32a066bb98316e87a2cccf449cf972f06c7786216ac0063036f726401010a746578742f706c61696e00367b2270223a226272632d3230222c226f70223a226d696e74222c227469636b223a2261616161222c22616d74223a223130303030227d6821c0476e4aade07fcbc331175ba32a066bb98316e87a2cccf449cf972f06c778621600000000"
}