{
  "txid": "8c6eb49c8345d211eb5d7eaa109f63d9a696baab723ba2da06e559167b70076d",
  "version": 2,
  "locktime": 0,
  "vin": [
    {
      "txid": "aba9634019a3f44a0038ab36af8af184905989b88cfa8cffd5e78a8372806978",
      "vout": 1,
      "prevout": {
        "scriptpubkey": "0014858ccaca6c4e482f629fdbcc5539e695d8673ea2",
        "scriptpubkey_asm": "OP_0 OP_PUSHBYTES_20 858ccaca6c4e482f629fdbcc5539e695d8673ea2",
        "scriptpubkey_type": "v0_p2wpkh",
        "scriptpubkey_address": "bc1qskxv4jnvfeyz7c5lm0x92w0xjhvxw04zpzg6gn",
        "value": 116226
      },
      "scriptsig": "",
      "scriptsig_asm": "",
      "witness": [
        "3045022100ad0c4470844826e796bf0be4d8d3bdec15899bf671ad1b3c2c45f07daf52fa16022056f63a8e12b2cd43d229e22f5788cc1240634a25556a9df48e1d428b74c5feba01",
        "0224f14b181a0f77d670b063836b8942eaafb9714de6ee5bcf9b5ecfaeb76446d1"
      ],
      "is_coinbase": false,
      "sequence": 4294967293
    }
  ],
  "vout": [
    {
      "scriptpubkey": "51207a31300834f7c8e99673d7b0ea7147a30e7992344c70e3869c9500feebb41085",
      "scriptpubkey_asm": "OP_PUSHNUM_1 OP_PUSHBYTES_32 7a31300834f7c8e99673d7b0ea7147a30e7992344c70e3869c9500feebb41085",
      "scriptpubkey_type": "v1_p2tr",
      "scriptpubkey_address": "bc1p0gcnqzp57lywn9nn67cw5u285v88ny35f3cw8p5uj5q0a6a5zzzskqccj9",
      "value": 1962
    },
    {
      "scriptpubkey": "51207a31300834f7c8e99673d7b0ea7147a30e7992344c70e3869c9500feebb41085",
      "scriptpubkey_asm": "OP_PUSHNUM_1 OP_PUSHBYTES_32 7a31300834f7c8e99673d7b0ea7147a30e7992344c70e3869c9500feebb41085",
      "scriptpubkey_type": "v1_p2tr",
      "scriptpubkey_address": "bc1p0gcnqzp57lywn9nn67cw5u285v88ny35f3cw8p5uj5q0a6a5zzzskqccj9",
      "value": 1962
    },
    {
      "scriptpubkey": "51207a31300834f7c8e99673d7b0ea7147a30e7992344c70e3869c9500feebb41085",
      "scriptpubkey_asm": "OP_PUSHNUM_1 OP_PUSHBYTES_32 7a31300834f7c8e99673d7b0ea7147a30e7992344c70e3869c9500feebb41085",
      "scriptpubkey_type": "v1_p2tr",
      "scriptpubkey_address": "bc1p0gcnqzp57lywn9nn67cw5u285v88ny35f3cw8p5uj5q0a6a5zzzskqccj9",
      "value": 1962
    },
    {
      "scriptpubkey": "51207a31300834f7c8e99673d7b0ea7147a30e7992344c70e3869c9500feebb41085",
      "scriptpubkey_asm": "OP_PUSHNUM_1 OP_PUSHBYTES_32 7a31300834f7c8e99673d7b0ea7147a30e7992344c70e3869c9500feebb41085",
      "scriptpubkey_type": "v1_p2tr",
      "scriptpubkey_address": "bc1p0gcnqzp57lywn9nn67cw5u285v88ny35f3cw8p5uj5q0a6a5zzzskqccj9",
      "value": 1962
    },
    {
      "scriptpubkey": "51207a31300834f7c8e99673d7b0ea7147a30e7992344c70e3869c9500feebb41085",
      "scriptpubkey_asm": "OP_PUSHNUM_1 OP_PUSHBYTES_32 7a31300834f7c8e99673d7b0ea7147a30e7992344c70e3869c9500feebb41085",
      "scriptpubkey_type": "v1_p2tr",
      "scriptpubkey_address": "bc1p0gcnqzp57lywn9nn67cw5u285v88ny35f3cw8p5uj5q0a6a5zzzskqccj9",
      "value": 1962
    },
    {
      "scriptpubkey": "51207a31300834f7c8e99673d7b0ea7147a30e7992344c70e3869c9500feebb41085",
      "scriptpubkey_asm": "OP_PUSHNUM_1 OP_PUSHBYTES_32 7a31300834f7c8e99673d7b0ea7147a30e7992344c70e3869c9500feebb41085",
      "scriptpubkey_type": "v1_p2tr",
      "scriptpubkey_address": "bc1p0gcnqzp57lywn9nn67cw5u285v88ny35f3cw8p5uj5q0a6a5zzzskqccj9",
      "value": 1962
    },
    {
      "scriptpubkey": "51207a31300834f7c8e99673d7b0ea7147a30e7992344c70e3869c9500feebb41085",
      "scriptpubkey_asm": "OP_PUSHNUM_1 OP_PUSHBYTES_32 7a31300834f7c8e99673d7b0ea7147a30e7992344c70e3869c9500feebb41085",
      "scriptpubkey_type": "v1_p2tr",
      "scriptpubkey_address": "bc1p0gcnqzp57lywn9nn67cw5u285v88ny35f3cw8p5uj5q0a6a5zzzskqccj9",
      "value": 1962
    },
    {
      "scriptpubkey": "51207a31300834f7c8e99673d7b0ea7147a30e7992344c70e3869c9500feebb41085",
      "scriptpubkey_asm": "OP_PUSHNUM_1 OP_PUSHBYTES_32 7a31300834f7c8e99673d7b0ea7147a30e7992344c70e3869c9500feebb41085",
      "scriptpubkey_type": "v1_p2tr",
      "scriptpubkey_address": "bc1p0gcnqzp57lywn9nn67cw5u285v88ny35f3cw8p5uj5q0a6a5zzzskqccj9",
      "value": 1962
    },
    {
      "scriptpubkey": "51207a31300834f7c8e99673d7b0ea7147a30e7992344c70e3869c9500feebb41085",
      "scriptpubkey_asm": "OP_PUSHNUM_1 OP_PUSHBYTES_32 7a31300834f7c8e99673d7b0ea7147a30e7992344c70e3869c9500feebb41085",
      "scriptpubkey_type": "v1_p2tr",
      "scriptpubkey_address": "bc1p0gcnqzp57lywn9nn67cw5u285v88ny35f3cw8p5uj5q0a6a5zzzskqccj9",
      "value": 1962
    },
    {
      "scriptpubkey": "51207a31300834f7c8e99673d7b0ea7147a30e7992344c70e3869c9500feebb41085",
      "scriptpubkey_asm": "OP_PUSHNUM_1 OP_PUSHBYTES_32 7a31300834f7c8e99673d7b0ea7147a30e7992344c70e3869c9500feebb41085",
      "scriptpubkey_type": "v1_p2tr",
      "scriptpubkey_address": "bc1p0gcnqzp57lywn9nn67cw5u285v88ny35f3cw8p5uj5q0a6a5zzzskqccj9",
      "value": 1962
    },
    {
      "scriptpubkey": "51207a31300834f7c8e99673d7b0ea7147a30e7992344c70e3869c9500feebb41085",
      "scriptpubkey_asm": "OP_PUSHNUM_1 OP_PUSHBYTES_32 7a31300834f7c8e99673d7b0ea7147a30e7992344c70e3869c9500feebb41085",
      "scriptpubkey_type": "v1_p2tr",
      "scriptpubkey_address": "bc1p0gcnqzp57lywn9nn67cw5u285v88ny35f3cw8p5uj5q0a6a5zzzskqccj9",
      "value": 1962
    },
    {
      "scriptpubkey": "51207a31300834f7c8e99673d7b0ea7147a30e7992344c70e3869c9500feebb41085",
      "scriptpubkey_asm": "OP_PUSHNUM_1 OP_PUSHBYTES_32 7a31300834f7c8e99673d7b0ea7147a30e7992344c70e3869c9500feebb41085",
      "scriptpubkey_type": "v1_p2tr",
      "scriptpubkey_address": "bc1p0gcnqzp57lywn9nn67cw5u285v88ny35f3cw8p5uj5q0a6a5zzzskqccj9",
      "value": 1962
    },
    {
      "scriptpubkey": "51207a31300834f7c8e99673d7b0ea7147a30e7992344c70e3869c9500feebb41085",
      "scriptpubkey_asm": "OP_PUSHNUM_1 OP_PUSHBYTES_32 7a31300834f7c8e99673d7b0ea7147a30e7992344c70e3869c9500feebb41085",
      "scriptpubkey_type": "v1_p2tr",
      "scriptpubkey_address": "bc1p0gcnqzp57lywn9nn67cw5u285v88ny35f3cw8p5uj5q0a6a5zzzskqccj9",
      "value": 1962
    },
    {
      "scriptpubkey": "51207a31300834f7c8e99673d7b0ea7147a30e7992344c70e3869c9500feebb41085",
      "scriptpubkey_asm": "OP_PUSHNUM_1 OP_PUSHBYTES_32 7a31300834f7c8e99673d7b0ea7147a30e7992344c70e3869c9500feebb41085",
      "scriptpubkey_type": "v1_p2tr",
      "scriptpubkey_address": "bc1p0gcnqzp57lywn9nn67cw5u285v88ny35f3cw8p5uj5q0a6a5zzzskqccj9",
      "value": 1962
    },
    {
      "scriptpubkey": "51207a31300834f7c8e99673d7b0ea7147a30e7992344c70e3869c9500feebb41085",
      "scriptpubkey_asm": "OP_PUSHNUM_1 OP_PUSHBYTES_32 7a31300834f7c8e99673d7b0ea7147a30e7992344c70e3869c9500feebb41085",
      "scriptpubkey_type": "v1_p2tr",
      "scriptpubkey_address": "bc1p0gcnqzp57lywn9nn67cw5u285v88ny35f3cw8p5uj5q0a6a5zzzskqccj9",
      "value": 1962
    },
    {
      "scriptpubkey": "51207a31300834f7c8e99673d7b0ea7147a30e7992344c70e3869c9500feebb41085",
      "scriptpubkey_asm": "OP_PUSHNUM_1 OP_PUSHBYTES_32 7a31300834f7c8e99673d7b0ea7147a30e7992344c70e3869c9500feebb41085",
      "scriptpubkey_type": "v1_p2tr",
      "scriptpubkey_address": "bc1p0gcnqzp57lywn9nn67cw5u285v88ny35f3cw8p5uj5q0a6a5zzzskqccj9",
      "value": 1962
    },
    {
      "scriptpubkey": "51207a31300834f7c8e99673d7b0ea7147a30e7992344c70e3869c9500feebb41085",
      "scriptpubkey_asm": "OP_PUSHNUM_1 OP_PUSHBYTES_32 7a31300834f7c8e99673d7b0ea7147a30e7992344c70e3869c9500feebb41085",
      "scriptpubkey_type": "v1_p2tr",
      "scriptpubkey_address": "bc1p0gcnqzp57lywn9nn67cw5u285v88ny35f3cw8p5uj5q0a6a5zzzskqccj9",
      "value": 1962
    },
    {
      "scriptpubkey": "51207a31300834f7c8e99673d7b0ea7147a30e7992344c70e3869c9500feebb41085",
      "scriptpubkey_asm": "OP_PUSHNUM_1 OP_PUSHBYTES_32 7a31300834f7c8e99673d7b0ea7147a30e7992344c70e3869c9500feebb41085",
      "scriptpubkey_type": "v1_p2tr",
      "scriptpubkey_address": "bc1p0gcnqzp57lywn9nn67cw5u285v88ny35f3cw8p5uj5q0a6a5zzzskqccj9",
      "value": 1962
    },
    {
      "scriptpubkey": "51207a31300834f7c8e99673d7b0ea7147a30e7992344c70e3869c9500feebb41085",
      "scriptpubkey_asm": "OP_PUSHNUM_1 OP_PUSHBYTES_32 7a31300834f7c8e99673d7b0ea7147a30e7992344c70e3869c9500feebb41085",
      "scriptpubkey_type": "v1_p2tr",
      "scriptpubkey_address": "bc1p0gcnqzp57lywn9nn67cw5u285v88ny35f3cw8p5uj5q0a6a5zzzskqccj9",
      "value": 1962
    },
    {
      "scriptpubkey": "51207a31300834f7c8e99673d7b0ea7147a30e7992344c70e3869c9500feebb41085",
      "scriptpubkey_asm": "OP_PUSHNUM_1 OP_PUSHBYTES_32 7a31300834f7c8e99673d7b0ea7147a30e7992344c70e3869c9500feebb41085",
      "scriptpubkey_type": "v1_p2tr",
      "scriptpubkey_address": "bc1p0gcnqzp57lywn9nn67cw5u285v88ny35f3cw8p5uj5q0a6a5zzzskqccj9",
      "value": 1962
    },
    {
      "scriptpubkey": "51207a31300834f7c8e99673d7b0ea7147a30e7992344c70e3869c9500feebb41085",
      "scriptpubkey_asm": "OP_PUSHNUM_1 OP_PUSHBYTES_32 7a31300834f7c8e99673d7b0ea7147a30e7992344c70e3869c9500feebb41085",
      "scriptpubkey_type": "v1_p2tr",
      "scriptpubkey_address": "bc1p0gcnqzp57lywn9nn67cw5u285v88ny35f3cw8p5uj5q0a6a5zzzskqccj9",
      "value": 1962
    },
    {
      "scriptpubkey": "51207a31300834f7c8e99673d7b0ea7147a30e7992344c70e3869c9500feebb41085",
      "scriptpubkey_asm": "OP_PUSHNUM_1 OP_PUSHBYTES_32 7a31300834f7c8e99673d7b0ea7147a30e7992344c70e3869c9500feebb41085",
      "scriptpubkey_type": "v1_p2tr",
      "scriptpubkey_address": "bc1p0gcnqzp57lywn9nn67cw5u285v88ny35f3cw8p5uj5q0a6a5zzzskqccj9",
      "value": 1962
    },
    {
      "scriptpubkey": "51207a31300834f7c8e99673d7b0ea7147a30e7992344c70e3869c9500feebb41085",
      "scriptpubkey_asm": "OP_PUSHNUM_1 OP_PUSHBYTES_32 7a31300834f7c8e99673d7b0ea7147a30e7992344c70e3869c9500feebb41085",
      "scriptpubkey_type": "v1_p2tr",
      "scriptpubkey_address": "bc1p0gcnqzp57lywn9nn67cw5u285v88ny35f3cw8p5uj5q0a6a5zzzskqccj9",
      "value": 1962
    },
    {
      "scriptpubkey": "51207a31300834f7c8e99673d7b0ea7147a30e7992344c70e3869c9500feebb41085",
      "scriptpubkey_asm": "OP_PUSHNUM_1 OP_PUSHBYTES_32 7a31300834f7c8e99673d7b0ea7147a30e7992344c70e3869c9500feebb41085",
      "scriptpubkey_type": "v1_p2tr",
      "scriptpubkey_address": "bc1p0gcnqzp57lywn9nn67cw5u285v88ny35f3cw8p5uj5q0a6a5zzzskqccj9",
      "value": 1962
    },
    {
      "scriptpubkey": "0014858ccaca6c4e482f629fdbcc5539e695d8673ea2",
      "scriptpubkey_asm": "OP_0 OP_PUSHBYTES_20 858ccaca6c4e482f629fdbcc5539e695d8673ea2",
      "scriptpubkey_type": "v0_p2wpkh",
      "scriptpubkey_address": "bc1qskxv4jnvfeyz7c5lm0x92w0xjhvxw04zpzg6gn",
      "value": 55434
    }
  ],
  "size": 1224,
  "weight": 4566,
  "fee": 13704,
  "status": {
    "confirmed": true,
    "block_height": 834460,
    "block_hash": "00000000000000000000484a79b643b2524bbce82e5d8a442013fa5b8905ed98",
    "block_time": 1710307468
  },
  "hex": "0200000000010178698072838ae7d5ff8cfa8cb889599084f18aaf36ab38004af4a3194063a9ab0100000000fdffffff19aa070000000000002251207a31300834f7c8e99673d7b0ea7147a30e7992344c70e3869c9500feebb41085aa070000000000002251207a31300834f7c8e99673d7b0ea7147a30e7992344c70e3869c9500feebb41085aa070000000000002251207a31300834f7c8e99673d7b0ea7147a30e7992344c70e3869c9500feebb41085aa070000000000002251207a31300834f7c8e99673d7b0ea7147a30e7992344c70e3869c9500feebb41085aa070000000000002251207a31300834f7c8e99673d7b0ea7147a30e7992344c70e3869c9500feebb41085aa070000000000002251207a31300834f7c8e99673d7b0ea7147a30e7992344c70e3869c9500feebb41085aa070000000000002251207a31300834f7c8e99673d7b0ea7147a30e7992344c70e3869c9500feebb41085aa070000000000002251207a31300834f7c8e99673d7b0ea7147a30e7992344c70e3869c9500feebb41085aa070000000000002251207a31300834f7c8e99673d7b0ea7147a30e7992344c70e3869c9500feebb41085aa070000000000002251207a31300834f7c8e99673d7b0ea7147a30e7992344c70e3869c9500feebb41085aa070000000000002251207a31300834f7c8e99673d7b0ea7147a30e7992344c70e3869c9500feebb41085aa070000000000002251207a31300834f7c8e99673d7b0ea7147a30e7992344c70e3869c9500feebb41085aa070000000000002251207a31300834f7c8e99673d7b0ea7147a30e7992344c70e3869c9500feebb41085aa070000000000002251207a31300834f7c8e99673d7b0ea7147a30e7992344c70e3869c9500feebb41085aa070000000000002251207a31300834f7c8e99673d7b0ea7147a30e7992344c70e3869c9500feebb41085aa070000000000002251207a31300834f7c8e99673d7b0ea7147a30e7992344c70e3869c9500feebb41085aa070000000000002251207a31300834f7c8e99673d7b0ea7147a30e7992344c70e3869c9500feebb41085aa070000000000002251207a31300834f7c8e99673d7b0ea7147a30e7992344c70e3869c9500feebb41085aa070000000000002251207a31300834f7c8e99673d7b0ea7147a30e7992344c70e3869c9500feebb41085aa070000000000002251207a31300834f7c8e99673d7b0ea7147a30e7992344c70e3869c9500feebb41085aa070000000000002251207a31300834f7c8e99673d7b0ea7147a30e7992344c70e3869c9500feebb41085aa070000000000002251207a31300834f7c8e99673d7b0ea7147a30e7992344c70e3869c9500feebb41085aa070000000000002251207a31300834f7c8e99673d7b0ea7147a30e7992344c70e3869c9500feebb41085aa070000000000002251207a31300834f7c8e99673d7b0ea7147a30e7992344c70e3869c9500feebb410858ad8000000000000160014858ccaca6c4e482f629fdbcc5539e695d8673ea202483045022100ad0c4470844826e796bf0be4d8d3bdec15899bf671ad1b3c2c45f07daf52fa16022056f63a8e12b2cd43d229e22f5788cc1240634a25556a9df48e1d428b74c5feba01210224f14b181a0f77d670b063836b8942eaafb9714de6ee5bcf9b5ecfaeb76446d100000000"
}