{
  "txid": "8c7a920b3e9d239c6d508f45f4e40556638dd30e899879290166375a164744d9",
  "version": 2,
  "locktime": 0,
  "vin": [
    {
      "txid": "f0752c823a69c4eca2c2028f953c5bd4a306b892d7f749952c96fb60ca069115",
      "vout": 1,
      "prevout": {
        "scriptpubkey": "a9148f8e3eb356c1d26d158fddb7d0d4205933062f2e87",
        "scriptpubkey_asm": "OP_HASH160 OP_PUSHBYTES_20 8f8e3eb356c1d26d158fddb7d0d4205933062f2e OP_EQUAL",
        "scriptpubkey_type": "p2sh",
        "scriptpubkey_address": "3En4xKsDg7eip4Lpz9WbvXsaBwpYwcMHk4",
        "value": 181062
      },
      "scriptsig": "1600148f8f16026f59435cfbcfd79dec4445c9fcff0df1",
      "scriptsig_asm": "OP_PUSHBYTES_22 00148f8f16026f59435cfbcfd79dec4445c9fcff0df1",
      "witness": [
        "304402205b782a5ca0f4f4494d0927a797e3aa91546e635219be04c5f014e4db90c696a6022041279050d3f866b1018e1de1e85851593afb510cd56f8a9fc15bf3c3fa718e7301",
        "023777ec94bff708f39976c5b5c4fcc8fdd7cc96004a44960ab50b7eb0eb9ad072"
      ],
      "is_coinbase": false,
      "sequence": 4294967293,
      "inner_redeemscript_asm": "OP_0 OP_PUSHBYTES_20 8f8f16026f59435cfbcfd79dec4445c9fcff0df1"
    }
  ],
  "vout": [
    {
      "scriptpubkey": "a9148f8e3eb356c1d26d158fddb7d0d4205933062f2e87",
      "scriptpubkey_asm": "OP_HASH160 OP_PUSHBYTES_20 8f8e3eb356c1d26d158fddb7d0d4205933062f2e OP_EQUAL",
      "scriptpubkey_type": "p2sh",
      "scriptpubkey_address": "3En4xKsDg7eip4Lpz9WbvXsaBwpYwcMHk4",
      "value": 600
    },
    {
      "scriptpubkey": "a9148f8e3eb356c1d26d158fddb7d0d4205933062f2e87",
      "scriptpubkey_asm": "OP_HASH160 OP_PUSHBYTES_20 8f8e3eb356c1d26d158fddb7d0d4205933062f2e OP_EQUAL",
      "scriptpubkey_type": "p2sh",
      "scriptpubkey_address": "3En4xKsDg7eip4Lpz9WbvXsaBwpYwcMHk4",
      "value": 600
    },
    {
      "scriptpubkey": "a9148f8e3eb356c1d26d158fddb7d0d4205933062f2e87",
      "scriptpubkey_asm": "OP_HASH160 OP_PUSHBYTES_20 8f8e3eb356c1d26d158fddb7d0d4205933062f2e OP_EQUAL",
      "scriptpubkey_type": "p2sh",
      "scriptpubkey_address": "3En4xKsDg7eip4Lpz9WbvXsaBwpYwcMHk4",
      "value": 177695
    }
  ],
  "size": 279,
  "weight": 789,
  "fee": 2167,
  "status": {
    "confirmed": true,
    "block_height": 834464,
    "block_hash": "0000000000000000000177a0869a911a2b65c9bdcd5a8bcb02b68f305bee848e",
    "block_time": 1710308296
  },
  "hex": "02000000000101159106ca60fb962c9549f7d792b806a3d45b3c958f02c2a2ecc4693a822c75f001000000171600148f8f16026f59435cfbcfd79dec4445c9fcff0df1fdffffff03580200000000000017a9148f8e3eb356c1d26d158fddb7d0d4205933062f2e87580200000000000017a9148f8e3eb356c1d26d158fddb7d0d4205933062f2e871fb602000000000017a9148f8e3eb356c1d26d158fddb7d0d4205933062f2e870247304402205b782a5ca0f4f4494d0927a797e3aa91546e635219be04c5f014e4db90c696a6022041279050d3f866b1018e1de1e85851593afb510cd56f8a9fc15bf3c3fa718e730121023777ec94bff708f39976c5b5c4fcc8fdd7cc96004a44960ab50b7eb0eb9ad07200000000"
}