{
  "txid": "8c84a56cc66296a3599f325dbbdd268669b07a29ee29cecf1b7351be6cb050a9",
  "version": 2,
  "locktime": 0,
  "vin": [
    {
      "txid": "b1aca71f1c5125c5e1e955c0256b46982f69b5790c1aca7c55449637325c938b",
      "vout": 0,
      "prevout": {
        "scriptpubkey": "001490e9aa6e42a06ae69064d29d0396ec911f9094d6",
        "scriptpubkey_asm": "OP_0 OP_PUSHBYTES_20 90e9aa6e42a06ae69064d29d0396ec911f9094d6",
        "scriptpubkey_type": "v0_p2wpkh",
        "scriptpubkey_address": "bc1qjr565mjz5p4wdyry62ws89hvjy0ep9xk02hzz5",
        "value": 21190191
      },
      "scriptsig": "",
      "scriptsig_asm": "",
      "witness": [
        "304402205fc8d1e0dd1a15f2f1322aeac6889d8d454a072183a320a4a772b07464369f4f0220670e6a53e0e97d287f326ad817fd57a0581b754bf5370d21ddff41970efc075401",
        "032717e00b9d5d0cdfed41162ff4a05ea2f123753d3b2a54e196f719f11838164a"
      ],
      "is_coinbase": false,
      "sequence": 4294967295
    }
  ],
  "vout": [
    {
      "scriptpubkey": "a914b69adb13e0624314a4882a08e85765bc855f268d87",
      "scriptpubkey_asm": "OP_HASH160 OP_PUSHBYTES_20 b69adb13e0624314a4882a08e85765bc855f268d OP_EQUAL",
      "scriptpubkey_type": "p2sh",
      "scriptpubkey_address": "3JLYR2NsWe3Su3qhB84vAtD3hxgpf1hgW3",
      "value": 7314400
    },
    {
      "scriptpubkey": "0014222ddf356478a4bdb4d54af55342d4d1cf6fc8a3",
      "scriptpubkey_asm": "OP_0 OP_PUSHBYTES_20 222ddf356478a4bdb4d54af55342d4d1cf6fc8a3",
      "scriptpubkey_type": "v0_p2wpkh",
      "scriptpubkey_address": "bc1qygka7dty0zjtmdx4ft64xsk5688klj9ryt2pdj",
      "value": 13872131
    }
  ],
  "size": 223,
  "weight": 565,
  "fee": 3660,
  "status": {
    "confirmed": true,
    "block_height": 834638,
    "block_hash": "000000000000000000025f742c626208ac87e0b7d15054abb4a19ca2d735a54e",
    "block_time": 1710405325
  },
  "hex": "020000000001018b935c32379644557cca1a0c79b5692f98466b25c055e9e1c525511c1fa7acb10000000000ffffffff02e09b6f000000000017a914b69adb13e0624314a4882a08e85765bc855f268d8703acd30000000000160014222ddf356478a4bdb4d54af55342d4d1cf6fc8a30247304402205fc8d1e0dd1a15f2f1322aeac6889d8d454a072183a320a4a772b07464369f4f0220670e6a53e0e97d287f326ad817fd57a0581b754bf5370d21ddff41970efc07540121032717e00b9d5d0cdfed41162ff4a05ea2f123753d3b2a54e196f719f11838164a00000000"
}