{
  "txid": "8c850c8ece0bd7c7874c24d43b690b3372c94c98b31141058f2c39dd3c461194",
  "version": 1,
  "locktime": 0,
  "vin": [
    {
      "txid": "76f887979a6e497ace793ec62dc9e7e081afe716c5e168d46368c8f5b6d587a2",
      "vout": 1,
      "prevout": {
        "scriptpubkey": "00143bcf9b27639c3594c9c80fc720f0509120629ef4",
        "scriptpubkey_asm": "OP_0 OP_PUSHBYTES_20 3bcf9b27639c3594c9c80fc720f0509120629ef4",
        "scriptpubkey_type": "v0_p2wpkh",
        "scriptpubkey_address": "bc1q808ekfmrns6efjwgplrjpuzsjysx98h5ws2wtj",
        "value": 8112
      },
      "scriptsig": "",
      "scriptsig_asm": "",
      "witness": [
        "3045022100d0f89e93472ba26034ea4329476be86bb25eaba37a8e33a635e8b4e599a508450220438b6d28b3d35356958017ddfbffe566672c02ca227322f10c95a690db7b340201",
        "02a9c2661795f04f8cf0a0aff197ccb06429ca92ae270f94a2d234e7aba259c1ba"
      ],
      "is_coinbase": false,
      "sequence": 4294967295
    },
    {
      "txid": "e8776ac26c91778f6bd2d9ea6df9b32354773e4b4f75fabf8ce6579c84f654ce",
      "vout": 1,
      "prevout": {
        "scriptpubkey": "00143bcf9b27639c3594c9c80fc720f0509120629ef4",
        "scriptpubkey_asm": "OP_0 OP_PUSHBYTES_20 3bcf9b27639c3594c9c80fc720f0509120629ef4",
        "scriptpubkey_type": "v0_p2wpkh",
        "scriptpubkey_address": "bc1q808ekfmrns6efjwgplrjpuzsjysx98h5ws2wtj",
        "value": 16590
      },
      "scriptsig": "",
      "scriptsig_asm": "",
      "witness": [
        "304502210086674f04918555721efd1c09d7875d0f62d14563c7e123dd29e39f3f4f6ccada02201a6c6de8928a80388598f959d492e63d2dcb750e171b5668b143f948c7a177e701",
        "02a9c2661795f04f8cf0a0aff197ccb06429ca92ae270f94a2d234e7aba259c1ba"
      ],
      "is_coinbase": false,
      "sequence": 4294967295
    },
    {
      "txid": "395876b584e0cd59f6f4365140042d3807de1b5643c04e62eccc51f198f1a33b",
      "vout": 1,
      "prevout": {
        "scriptpubkey": "00143bcf9b27639c3594c9c80fc720f0509120629ef4",
        "scriptpubkey_asm": "OP_0 OP_PUSHBYTES_20 3bcf9b27639c3594c9c80fc720f0509120629ef4",
        "scriptpubkey_type": "v0_p2wpkh",
        "scriptpubkey_address": "bc1q808ekfmrns6efjwgplrjpuzsjysx98h5ws2wtj",
        "value": 4410
      },
      "scriptsig": "",
      "scriptsig_asm": "",
      "witness": [
        "304502210096aefca296fb092095697dda4b43d066bfe7698b26ed9a6c61a56ee05d8a8ab70220617a1e0fb366fd0a33d62195a3a64e4b7d951ffc5b7274e3f87e51db44d9b07d01",
        "02a9c2661795f04f8cf0a0aff197ccb06429ca92ae270f94a2d234e7aba259c1ba"
      ],
      "is_coinbase": false,
      "sequence": 4294967295
    }
  ],
  "vout": [
    {
      "scriptpubkey": "76a91432ca346e21e1d4cf99f05f9e0c37c232b84530b388ac",
      "scriptpubkey_asm": "OP_DUP OP_HASH160 OP_PUSHBYTES_20 32ca346e21e1d4cf99f05f9e0c37c232b84530b3 OP_EQUALVERIFY OP_CHECKSIG",
      "scriptpubkey_type": "p2pkh",
      "scriptpubkey_address": "15dZ22cDRZcT4oeEyebfj8DsZ51QApFbAp",
      "value": 22389
    }
  ],
  "size": 493,
  "weight": 994,
  "fee": 6723,
  "status": {
    "confirmed": true,
    "block_height": 834638,
    "block_hash": "000000000000000000025f742c626208ac87e0b7d15054abb4a19ca2d735a54e",
    "block_time": 1710405325
  },
  "hex": "01000000000103a287d5b6f5c86863d468e1c516e7af81e0e7c92dc63e79ce7a496e9a9787f8760100000000ffffffffce54f6849c57e68cbffa754f4b3e775423b3f96dead9d26b8f77916cc26a77e80100000000ffffffff3ba3f198f151ccec624ec043561bde07382d04405136f4f659cde084b57658390100000000ffffffff0175570000000000001976a91432ca346e21e1d4cf99f05f9e0c37c232b84530b388ac02483045022100d0f89e93472ba26034ea4329476be86bb25eaba37a8e33a635e8b4e599a508450220438b6d28b3d35356958017ddfbffe566672c02ca227322f10c95a690db7b3402012102a9c2661795f04f8cf0a0aff197ccb06429ca92ae270f94a2d234e7aba259c1ba0248304502210086674f04918555721efd1c09d7875d0f62d14563c7e123dd29e39f3f4f6ccada02201a6c6de8928a80388598f959d492e63d2dcb750e171b5668b143f948c7a177e7012102a9c2661795f04f8cf0a0aff197ccb06429ca92ae270f94a2d234e7aba259c1ba0248304502210096aefca296fb092095697dda4b43d066bfe7698b26ed9a6c61a56ee05d8a8ab70220617a1e0fb366fd0a33d62195a3a64e4b7d951ffc5b7274e3f87e51db44d9b07d012102a9c2661795f04f8cf0a0aff197ccb06429ca92ae270f94a2d234e7aba259c1ba00000000"
}