{
  "txid": "8c8d824bce640e4084f8eef22625e07f9bc28e35a2085143be08b11bc07d87e1",
  "version": 2,
  "locktime": 0,
  "vin": [
    {
      "txid": "acc3ba00869acb582a3f2904ce3a11dd3779350ce234063fc7d0959246213364",
      "vout": 185,
      "prevout": {
        "scriptpubkey": "51201d7cc171c838b7bfe4be1f7344e45cfa71c3a620ae7e45bd1f57cc70017c0eeb",
        "scriptpubkey_asm": "OP_PUSHNUM_1 OP_PUSHBYTES_32 1d7cc171c838b7bfe4be1f7344e45cfa71c3a620ae7e45bd1f57cc70017c0eeb",
        "scriptpubkey_type": "v1_p2tr",
        "scriptpubkey_address": "bc1pr47vzuwg8zmmle97rae5fezulfcu8f3q4elyt0gl2lx8qqtupm4sg4zy0u",
        "value": 1806
      },
      "scriptsig": "",
      "scriptsig_asm": "",
      "witness": [
        "054ad0890925b7eb19b71e97e90e696c8c15ba7f3b76bc43d839545928418bccf2c68ae5edd9ce4d115b34d1fa16ffcb8d47162a24369f4b4a5750c4bd2e022a",
        "20fd535d1fcb41457af6cec2feef6fdf5a0caae9567a6dc06fc0eac12286e5f0f9ac0063036f726401010a746578742f706c61696e00357b2270223a226272632d3230222c226f70223a226d696e74222c227469636b223a22646f6765222c22616d74223a2234323030227d68",
        "c0fd535d1fcb41457af6cec2feef6fdf5a0caae9567a6dc06fc0eac12286e5f0f9"
      ],
      "is_coinbase": false,
      "sequence": 4261412863
    }
  ],
  "vout": [
    {
      "scriptpubkey": "00147a665de7a370f4c9b372ab1fae587500a5bcbdb4",
      "scriptpubkey_asm": "OP_0 OP_PUSHBYTES_20 7a665de7a370f4c9b372ab1fae587500a5bcbdb4",
      "scriptpubkey_type": "v0_p2wpkh",
      "scriptpubkey_address": "bc1q0fn9mearwr6vnvmj4v06ukr4qzjme0d565dzcx",
      "value": 294
    }
  ],
  "size": 294,
  "weight": 540,
  "fee": 1512,
  "status": {
    "confirmed": true,
    "block_height": 834460,
    "block_hash": "00000000000000000000484a79b643b2524bbce82e5d8a442013fa5b8905ed98",
    "block_time": 1710307468
  },
  "hex": "02000000000101643321469295d0c73f0634e20c357937dd113ace04293f2a58cb9a8600bac3acb900000000fffffffd0126010000000000001600147a665de7a370f4c9b372ab1fae587500a5bcbdb40340054ad0890925b7eb19b71e97e90e696c8c15ba7f3b76bc43d839545928418bccf2c68ae5edd9ce4d115b34d1fa16ffcb8d47162a24369f4b4a5750c4bd2e022a6d20fd535d1fcb41457af6cec2feef6fdf5a0caae9567a6dc06fc0eac12286e5f0f9ac0063036f726401010a746578742f706c61696e00357b2270223a226272632d3230222c226f70223a226d696e74222c227469636b223a22646f6765222c22616d74223a2234323030227d6821c0fd535d1fcb41457af6cec2feef6fdf5a0caae9567a6dc06fc0eac12286e5f0f900000000"
}