{
  "txid": "8c9d4f7269885e73e6ce067cc0f0b4af65145ec69c64d087d77d055ebd96d05f",
  "version": 2,
  "locktime": 0,
  "vin": [
    {
      "txid": "d07a71abf0385ed6f21913543807fa5ec4e43027b96209fb362f8b62b5248c9c",
      "vout": 0,
      "prevout": {
        "scriptpubkey": "00145972bfa1d5bbf8a44c086215e95e36e24eed6764",
        "scriptpubkey_asm": "OP_0 OP_PUSHBYTES_20 5972bfa1d5bbf8a44c086215e95e36e24eed6764",
        "scriptpubkey_type": "v0_p2wpkh",
        "scriptpubkey_address": "bc1qt9etlgw4h0u2gnqgvg27jh3kuf8w6emykucsq4",
        "value": 609896
      },
      "scriptsig": "",
      "scriptsig_asm": "",
      "witness": [
        "30440220529ec81382d9aa2f1119cd72c06fc6637ddf8582aa3abb89f72749cbd800d17f02202ea15592f84793cfa4b2a9fbc8f9426893f7e6dc711e45c2115af51fd2e61fde01",
        "02c3ee51ef9ab999da4bdd5d84321a66380c035178406435d4e114c4d8ca4f84cc"
      ],
      "is_coinbase": false,
      "sequence": 4294967295
    },
    {
      "txid": "0c4f2bdf97869bcb14d9c0227ac72e53571999268132c4653a1f5f26abca16b8",
      "vout": 2,
      "prevout": {
        "scriptpubkey": "00145972bfa1d5bbf8a44c086215e95e36e24eed6764",
        "scriptpubkey_asm": "OP_0 OP_PUSHBYTES_20 5972bfa1d5bbf8a44c086215e95e36e24eed6764",
        "scriptpubkey_type": "v0_p2wpkh",
        "scriptpubkey_address": "bc1qt9etlgw4h0u2gnqgvg27jh3kuf8w6emykucsq4",
        "value": 646468
      },
      "scriptsig": "",
      "scriptsig_asm": "",
      "witness": [
        "304402203ef2b01289daaf0170537960c48c16f7ac9a4e0df79f7f98bd2bb7ccfd6ba4da02202c7fd13bf6c7650718c8cc4c8cb72c2382e840b8a45d997cf71e5042be6ee9f801",
        "02c3ee51ef9ab999da4bdd5d84321a66380c035178406435d4e114c4d8ca4f84cc"
      ],
      "is_coinbase": false,
      "sequence": 4294967295
    },
    {
      "txid": "dbba043113070be351094ac537c9f2ea32875047f6de67919e8407573850cd10",
      "vout": 0,
      "prevout": {
        "scriptpubkey": "00145972bfa1d5bbf8a44c086215e95e36e24eed6764",
        "scriptpubkey_asm": "OP_0 OP_PUSHBYTES_20 5972bfa1d5bbf8a44c086215e95e36e24eed6764",
        "scriptpubkey_type": "v0_p2wpkh",
        "scriptpubkey_address": "bc1qt9etlgw4h0u2gnqgvg27jh3kuf8w6emykucsq4",
        "value": 659788
      },
      "scriptsig": "",
      "scriptsig_asm": "",
      "witness": [
        "3045022100e90890f341ed74b53a2abc891d4316566c040daf8cc67f1ef336029678bf872802205515aeab6cfc43d0cb3116b5e698a0323fbd7252591c564fd3224a60f9154c6601",
        "02c3ee51ef9ab999da4bdd5d84321a66380c035178406435d4e114c4d8ca4f84cc"
      ],
      "is_coinbase": false,
      "sequence": 4294967295
    },
    {
      "txid": "9f258fb8836ac3631eef0836c44caa0c5ce3313e123016f898569e44136d2812",
      "vout": 0,
      "prevout": {
        "scriptpubkey": "00145972bfa1d5bbf8a44c086215e95e36e24eed6764",
        "scriptpubkey_asm": "OP_0 OP_PUSHBYTES_20 5972bfa1d5bbf8a44c086215e95e36e24eed6764",
        "scriptpubkey_type": "v0_p2wpkh",
        "scriptpubkey_address": "bc1qt9etlgw4h0u2gnqgvg27jh3kuf8w6emykucsq4",
        "value": 1708019
      },
      "scriptsig": "",
      "scriptsig_asm": "",
      "witness": [
        "3044022069ac0e415655b09e549d60d76228012f93e17c2ebc551b5bcacc35f660949d8c02204d4ef8b80d3d7eb3c004f4b7d60a1bcb1dd6d8159bee8889ae9cc26afd4f98f501",
        "02c3ee51ef9ab999da4bdd5d84321a66380c035178406435d4e114c4d8ca4f84cc"
      ],
      "is_coinbase": false,
      "sequence": 4294967295
    },
    {
      "txid": "b85090fdc902f855fec28b5ffc6246cb4a165f250e197b3b991c109e2eebabf3",
      "vout": 2,
      "prevout": {
        "scriptpubkey": "00145972bfa1d5bbf8a44c086215e95e36e24eed6764",
        "scriptpubkey_asm": "OP_0 OP_PUSHBYTES_20 5972bfa1d5bbf8a44c086215e95e36e24eed6764",
        "scriptpubkey_type": "v0_p2wpkh",
        "scriptpubkey_address": "bc1qt9etlgw4h0u2gnqgvg27jh3kuf8w6emykucsq4",
        "value": 969897
      },
      "scriptsig": "",
      "scriptsig_asm": "",
      "witness": [
        "30440220232f3240803c435fe2c905a6147963e5b8f0dd5357ead3978fa7a3d1612ab81a022055e33d06c455f082549665625e273647b61e14e02f2e60087f644c9aed43144301",
        "02c3ee51ef9ab999da4bdd5d84321a66380c035178406435d4e114c4d8ca4f84cc"
      ],
      "is_coinbase": false,
      "sequence": 4294967295
    },
    {
      "txid": "49f9765a4c2f916d52766ae2d99695c86c0a3ad8acb724c69fc4eeb4249cf5a8",
      "vout": 0,
      "prevout": {
        "scriptpubkey": "00145972bfa1d5bbf8a44c086215e95e36e24eed6764",
        "scriptpubkey_asm": "OP_0 OP_PUSHBYTES_20 5972bfa1d5bbf8a44c086215e95e36e24eed6764",
        "scriptpubkey_type": "v0_p2wpkh",
        "scriptpubkey_address": "bc1qt9etlgw4h0u2gnqgvg27jh3kuf8w6emykucsq4",
        "value": 705094
      },
      "scriptsig": "",
      "scriptsig_asm": "",
      "witness": [
        "3044022016fedb958dce9691153caf985957e6c16929ec01406b5ba3b1d8de8406642e5f0220583ade3d52573930d9a9ee7a6add7720847929e61146c45bc5e2c8a2734fa9dd01",
        "02c3ee51ef9ab999da4bdd5d84321a66380c035178406435d4e114c4d8ca4f84cc"
      ],
      "is_coinbase": false,
      "sequence": 4294967295
    }
  ],
  "vout": [
    {
      "scriptpubkey": "00145972bfa1d5bbf8a44c086215e95e36e24eed6764",
      "scriptpubkey_asm": "OP_0 OP_PUSHBYTES_20 5972bfa1d5bbf8a44c086215e95e36e24eed6764",
      "scriptpubkey_type": "v0_p2wpkh",
      "scriptpubkey_address": "bc1qt9etlgw4h0u2gnqgvg27jh3kuf8w6emykucsq4",
      "value": 1291900
    },
    {
      "scriptpubkey": "0014d956421fd7548434f8b06de7786e57ec824dbaf5",
      "scriptpubkey_asm": "OP_0 OP_PUSHBYTES_20 d956421fd7548434f8b06de7786e57ec824dbaf5",
      "scriptpubkey_type": "v0_p2wpkh",
      "scriptpubkey_address": "bc1qm9tyy87h2jzrf79sdhnhsmjhajpymwh4t59af9",
      "value": 4000000
    }
  ],
  "size": 963,
  "weight": 1917,
  "fee": 7262,
  "status": {
    "confirmed": true,
    "block_height": 834638,
    "block_hash": "000000000000000000025f742c626208ac87e0b7d15054abb4a19ca2d735a54e",
    "block_time": 1710405325
  },
  "hex": "020000000001069c8c24b5628b2f36fb0962b92730e4c45efa0738541319f2d65e38f0ab717ad00000000000ffffffffb816caab265f1f3a65c4328126991957532ec77a22c0d914cb9b8697df2b4f0c0200000000ffffffff10cd50385707849e9167def647508732eaf2c937c54a0951e30b07133104badb0000000000ffffffff12286d13449e5698f81630123e31e35c0caa4cc43608ef1e63c36a83b88f259f0000000000fffffffff3abeb2e9e101c993b7b190e255f164acb4662fc5f8bc2fe55f802c9fd9050b80200000000ffffffffa8f59c24b4eec49fc624b7acd83a0a6cc89596d9e26a76526d912f4c5a76f9490000000000ffffffff027cb61300000000001600145972bfa1d5bbf8a44c086215e95e36e24eed676400093d0000000000160014d956421fd7548434f8b06de7786e57ec824dbaf5024730440220529ec81382d9aa2f1119cd72c06fc6637ddf8582aa3abb89f72749cbd800d17f02202ea15592f84793cfa4b2a9fbc8f9426893f7e6dc711e45c2115af51fd2e61fde012102c3ee51ef9ab999da4bdd5d84321a66380c035178406435d4e114c4d8ca4f84cc0247304402203ef2b01289daaf0170537960c48c16f7ac9a4e0df79f7f98bd2bb7ccfd6ba4da02202c7fd13bf6c7650718c8cc4c8cb72c2382e840b8a45d997cf71e5042be6ee9f8012102c3ee51ef9ab999da4bdd5d84321a66380c035178406435d4e114c4d8ca4f84cc02483045022100e90890f341ed74b53a2abc891d4316566c040daf8cc67f1ef336029678bf872802205515aeab6cfc43d0cb3116b5e698a0323fbd7252591c564fd3224a60f9154c66012102c3ee51ef9ab999da4bdd5d84321a66380c035178406435d4e114c4d8ca4f84cc02473044022069ac0e415655b09e549d60d76228012f93e17c2ebc551b5bcacc35f660949d8c02204d4ef8b80d3d7eb3c004f4b7d60a1bcb1dd6d8159bee8889ae9cc26afd4f98f5012102c3ee51ef9ab999da4bdd5d84321a66380c035178406435d4e114c4d8ca4f84cc024730440220232f3240803c435fe2c905a6147963e5b8f0dd5357ead3978fa7a3d1612ab81a022055e33d06c455f082549665625e273647b61e14e02f2e60087f644c9aed431443012102c3ee51ef9ab999da4bdd5d84321a66380c035178406435d4e114c4d8ca4f84cc02473044022016fedb958dce9691153caf985957e6c16929ec01406b5ba3b1d8de8406642e5f0220583ade3d52573930d9a9ee7a6add7720847929e61146c45bc5e2c8a2734fa9dd012102c3ee51ef9ab999da4bdd5d84321a66380c035178406435d4e114c4d8ca4f84cc00000000"
}