{
  "txid": "8ca7c70de07c7282176150bdca86ed7c501be6437e9a03e4da022354f1c32edf",
  "version": 2,
  "locktime": 0,
  "vin": [
    {
      "txid": "a9d6d8fde1bd17ed327402282a0455900065968fe10dbfdd8bb253aa37aa80b4",
      "vout": 1,
      "prevout": {
        "scriptpubkey": "0014192e80ed2c7c412bdc2a6c8f371d15cb90f3c85b",
        "scriptpubkey_asm": "OP_0 OP_PUSHBYTES_20 192e80ed2c7c412bdc2a6c8f371d15cb90f3c85b",
        "scriptpubkey_type": "v0_p2wpkh",
        "scriptpubkey_address": "bc1qryhgpmfv03qjhhp2dj8nw8g4ewg08jzmgy3cyx",
        "value": 266295376
      },
      "scriptsig": "",
      "scriptsig_asm": "",
      "witness": [
        "304402207adc56fd26ff10d80089f17ca6ceeb76a050ab66ee40dd6c53741f72cfd24b2602203a1135e6e0b8dd6f613d628dca5bf1aaff9b4841dd31e4183c291858d0da7a4001",
        "03b01bd095f648ea829f000207087f16622431077bb5cc0875225ada601375c885"
      ],
      "is_coinbase": false,
      "sequence": 4294967293
    }
  ],
  "vout": [
    {
      "scriptpubkey": "0014192e80ed2c7c412bdc2a6c8f371d15cb90f3c85b",
      "scriptpubkey_asm": "OP_0 OP_PUSHBYTES_20 192e80ed2c7c412bdc2a6c8f371d15cb90f3c85b",
      "scriptpubkey_type": "v0_p2wpkh",
      "scriptpubkey_address": "bc1qryhgpmfv03qjhhp2dj8nw8g4ewg08jzmgy3cyx",
      "value": 266162735
    },
    {
      "scriptpubkey": "001484366fcefed8fafeb2891900f4aea7b1485dbe99",
      "scriptpubkey_asm": "OP_0 OP_PUSHBYTES_20 84366fcefed8fafeb2891900f4aea7b1485dbe99",
      "scriptpubkey_type": "v0_p2wpkh",
      "scriptpubkey_address": "bc1qssmxlnh7mra0av5fryq0ft48k9y9m05eqjy40k",
      "value": 126155
    }
  ],
  "size": 222,
  "weight": 561,
  "fee": 6486,
  "status": {
    "confirmed": true,
    "block_height": 834638,
    "block_hash": "000000000000000000025f742c626208ac87e0b7d15054abb4a19ca2d735a54e",
    "block_time": 1710405325
  },
  "hex": "02000000000101b480aa37aa53b28bddbf0de18f9665009055042a28027432ed17bde1fdd8d6a90100000000fdffffff022f52dd0f00000000160014192e80ed2c7c412bdc2a6c8f371d15cb90f3c85bcbec01000000000016001484366fcefed8fafeb2891900f4aea7b1485dbe990247304402207adc56fd26ff10d80089f17ca6ceeb76a050ab66ee40dd6c53741f72cfd24b2602203a1135e6e0b8dd6f613d628dca5bf1aaff9b4841dd31e4183c291858d0da7a40012103b01bd095f648ea829f000207087f16622431077bb5cc0875225ada601375c88500000000"
}