{
  "txid": "8cac2fc2351a19f77e3537d6e9f79749809da3eec2ce4671ade8c225bb621ef9",
  "version": 2,
  "locktime": 0,
  "vin": [
    {
      "txid": "b13bb5512a4904c28a6b7957b88edf574e8cb23551fc1dcfe22d6b239df42cf4",
      "vout": 90,
      "prevout": {
        "scriptpubkey": "512043151bfb0888b02a506acbd8b0a6537ae99345b198a10f6edf6dc813cf1af995",
        "scriptpubkey_asm": "OP_PUSHNUM_1 OP_PUSHBYTES_32 43151bfb0888b02a506acbd8b0a6537ae99345b198a10f6edf6dc813cf1af995",
        "scriptpubkey_type": "v1_p2tr",
        "scriptpubkey_address": "bc1pgv23h7cg3zcz55r2e0vtpfjn0t5ex3d3nzss7mkldhyp8nc6lx2sn2y35x",
        "value": 2575
      },
      "scriptsig": "",
      "scriptsig_asm": "",
      "witness": [
        "3663eab2bca25d6308ec0ffc158845538798043d13533bf270a21bc669987a2d4669381371046d5bff67cd9f47637d5ba7649ccb0d3df8db980eaebca95f1a90",
        "20d75381f061cfd3e16f81d081c469b9fe95211b8b7f6eaf6be228da376d723704ac0063036f726401010a746578742f706c61696e00367b2270223a226272632d3230222c226f70223a226d696e74222c227469636b223a2261616161222c22616d74223a223130303030227d68",
        "c1d75381f061cfd3e16f81d081c469b9fe95211b8b7f6eaf6be228da376d723704"
      ],
      "is_coinbase": false,
      "sequence": 4261412863
    }
  ],
  "vout": [
    {
      "scriptpubkey": "0014ce0b5aa0dac72397a8aa5a85d90a2cfb46f0f630",
      "scriptpubkey_asm": "OP_0 OP_PUSHBYTES_20 ce0b5aa0dac72397a8aa5a85d90a2cfb46f0f630",
      "scriptpubkey_type": "v0_p2wpkh",
      "scriptpubkey_address": "bc1qec944gx6cu3e0292t2zajz3vldr0pa3sh356d9",
      "value": 546
    }
  ],
  "size": 295,
  "weight": 541,
  "fee": 2029,
  "status": {
    "confirmed": true,
    "block_height": 834464,
    "block_hash": "0000000000000000000177a0869a911a2b65c9bdcd5a8bcb02b68f305bee848e",
    "block_time": 1710308296
  },
  "hex": "02000000000101f42cf49d236b2de2cf1dfc5135b28c4e57df8eb857796b8ac204492a51b53bb15a00000000fffffffd012202000000000000160014ce0b5aa0dac72397a8aa5a85d90a2cfb46f0f63003403663eab2bca25d6308ec0ffc158845538798043d13533bf270a21bc669987a2d4669381371046d5bff67cd9f47637d5ba7649ccb0d3df8db980eaebca95f1a906e20d75381f061cfd3e16f81d081c469b9fe95211b8b7f6eaf6be228da376d723704ac0063036f726401010a746578742f706c61696e00367b2270223a226272632d3230222c226f70223a226d696e74222c227469636b223a2261616161222c22616d74223a223130303030227d6821c1d75381f061cfd3e16f81d081c469b9fe95211b8b7f6eaf6be228da376d72370400000000"
}