{
  "txid": "8cad0ce4183bec55417bf7ffd6e88b288fb47dfce7a47594244481b6fa38474c",
  "version": 2,
  "locktime": 0,
  "vin": [
    {
      "txid": "dfef53ed33cf7c435d457ae2e8dcdc15d887050813121b4b282c2dcbc5532fc0",
      "vout": 0,
      "prevout": {
        "scriptpubkey": "00140dd859bd1fa86f870336c86833a24694cabcdcde",
        "scriptpubkey_asm": "OP_0 OP_PUSHBYTES_20 0dd859bd1fa86f870336c86833a24694cabcdcde",
        "scriptpubkey_type": "v0_p2wpkh",
        "scriptpubkey_address": "bc1qphv9n0gl4phcwqekep5r8gjxjn9tehx7ey7q7a",
        "value": 17245
      },
      "scriptsig": "",
      "scriptsig_asm": "",
      "witness": [
        "304402200e1ab25e8c6dddeaccfccc5c0b447b4c944874ad4259788e3e149bb5a384637002205ec4d28409a45f1f88f06edf2989b6f7ad6e33b376ca482893e505d81d3916a001",
        "0247e2624a420f4628a2e8892f8f570dc17decb73185bb322def265829d2b39ecb"
      ],
      "is_coinbase": false,
      "sequence": 4294967293
    }
  ],
  "vout": [
    {
      "scriptpubkey": "00148dd9cc2612268aab9c418d015dcb6d66f0be70b2",
      "scriptpubkey_asm": "OP_0 OP_PUSHBYTES_20 8dd9cc2612268aab9c418d015dcb6d66f0be70b2",
      "scriptpubkey_type": "v0_p2wpkh",
      "scriptpubkey_address": "bc1q3hvucfsjy692h8zp35q4mjmdvmctuu9jr5dcpk",
      "value": 1191
    },
    {
      "scriptpubkey": "001434f147cd7befe57bac34d62835d53545446af498",
      "scriptpubkey_asm": "OP_0 OP_PUSHBYTES_20 34f147cd7befe57bac34d62835d53545446af498",
      "scriptpubkey_type": "v0_p2wpkh",
      "scriptpubkey_address": "bc1qxnc50ntmaljhhtp56c5rt4f4g4zx4aycexr7v3",
      "value": 13669
    }
  ],
  "size": 222,
  "weight": 561,
  "fee": 2385,
  "status": {
    "confirmed": true,
    "block_height": 834552,
    "block_hash": "00000000000000000001dd0468a70c94f619251d286585cff57aeb4bd9ede330",
    "block_time": 1710355598
  },
  "hex": "02000000000101c02f53c5cb2d2c284b1b1213080587d815dcdce8e27a455d437ccf33ed53efdf0000000000fdffffff02a7040000000000001600148dd9cc2612268aab9c418d015dcb6d66f0be70b2653500000000000016001434f147cd7befe57bac34d62835d53545446af4980247304402200e1ab25e8c6dddeaccfccc5c0b447b4c944874ad4259788e3e149bb5a384637002205ec4d28409a45f1f88f06edf2989b6f7ad6e33b376ca482893e505d81d3916a001210247e2624a420f4628a2e8892f8f570dc17decb73185bb322def265829d2b39ecb00000000"
}