{
  "txid": "8cbe833cd2e0cabf04a7c6b2dab874253ad1caa1b1fbd54e0f797c622486248b",
  "version": 1,
  "locktime": 0,
  "vin": [
    {
      "txid": "93bdce82381d4399222eda4d9cb21db6f9dda9224dcd86bcdbfd992e2fa2215f",
      "vout": 4,
      "prevout": {
        "scriptpubkey": "00147e69c6de67dba3a1757dee971dfe31288e3013a6",
        "scriptpubkey_asm": "OP_0 OP_PUSHBYTES_20 7e69c6de67dba3a1757dee971dfe31288e3013a6",
        "scriptpubkey_type": "v0_p2wpkh",
        "scriptpubkey_address": "bc1q0e5udhn8mw36zataa6t3ml339z8rqyaxdzqwlf",
        "value": 2445192
      },
      "scriptsig": "",
      "scriptsig_asm": "",
      "witness": [
        "304402204a5301edb85bde1efdf7f9068c71ed74a29afe3e8acb899d1a4ff1c0fe0e615f02204643ba26cdc481977138a06a3f080409a1d9efead2f3039329d6eaef0d87a3c701",
        "03fb5fdc9d7d6903a6aefb9257747935fb0f9ea244f49e88b5743be423afab6bd5"
      ],
      "is_coinbase": false,
      "sequence": 0
    },
    {
      "txid": "702f3231796b4232edef5aec84844442be70f682adc09dd4997518daefcd4ceb",
      "vout": 0,
      "prevout": {
        "scriptpubkey": "00147e69c6de67dba3a1757dee971dfe31288e3013a6",
        "scriptpubkey_asm": "OP_0 OP_PUSHBYTES_20 7e69c6de67dba3a1757dee971dfe31288e3013a6",
        "scriptpubkey_type": "v0_p2wpkh",
        "scriptpubkey_address": "bc1q0e5udhn8mw36zataa6t3ml339z8rqyaxdzqwlf",
        "value": 1500000
      },
      "scriptsig": "",
      "scriptsig_asm": "",
      "witness": [
        "3045022100da38a56dcd45ef9e99809df8f0b0b07881ec0f26c17ea29d469832c1daf15f730220484f360d097b4cfcfc6afd2bab5988920c301c8e499fce9d18f44c340462b04d01",
        "03fb5fdc9d7d6903a6aefb9257747935fb0f9ea244f49e88b5743be423afab6bd5"
      ],
      "is_coinbase": false,
      "sequence": 0
    }
  ],
  "vout": [
    {
      "scriptpubkey": "76a91465f2052f5698addc1d12bf971bca1eea2426817888ac",
      "scriptpubkey_asm": "OP_DUP OP_HASH160 OP_PUSHBYTES_20 65f2052f5698addc1d12bf971bca1eea24268178 OP_EQUALVERIFY OP_CHECKSIG",
      "scriptpubkey_type": "p2pkh",
      "scriptpubkey_address": "1AJ3BEjubJoQJNadRA4jJZ6kJyfb4Pnfs6",
      "value": 3941376
    }
  ],
  "size": 343,
  "weight": 721,
  "fee": 3816,
  "status": {
    "confirmed": true,
    "block_height": 834638,
    "block_hash": "000000000000000000025f742c626208ac87e0b7d15054abb4a19ca2d735a54e",
    "block_time": 1710405325
  },
  "hex": "010000000001025f21a22f2e99fddbbc86cd4d22a9ddf9b61db29c4dda2e2299431d3882cebd93040000000000000000eb4ccdefda187599d49dc0ad82f670be42448484ec5aefed32426b7931322f700000000000000000000100243c00000000001976a91465f2052f5698addc1d12bf971bca1eea2426817888ac0247304402204a5301edb85bde1efdf7f9068c71ed74a29afe3e8acb899d1a4ff1c0fe0e615f02204643ba26cdc481977138a06a3f080409a1d9efead2f3039329d6eaef0d87a3c7012103fb5fdc9d7d6903a6aefb9257747935fb0f9ea244f49e88b5743be423afab6bd502483045022100da38a56dcd45ef9e99809df8f0b0b07881ec0f26c17ea29d469832c1daf15f730220484f360d097b4cfcfc6afd2bab5988920c301c8e499fce9d18f44c340462b04d012103fb5fdc9d7d6903a6aefb9257747935fb0f9ea244f49e88b5743be423afab6bd500000000"
}