{
  "txid": "8cc819f70fed9bf7c5d7e7805cb58e6bf61a9f25581aac3d3495b332ef5892a8",
  "version": 1,
  "locktime": 0,
  "vin": [
    {
      "txid": "d613230e77e4da20d455dc7c9b9cae06290d4e343cea593af48259bbe9e6c900",
      "vout": 59,
      "prevout": {
        "scriptpubkey": "00140871ca06d66271e2d4e1e290fc51cf94faa91c0f",
        "scriptpubkey_asm": "OP_0 OP_PUSHBYTES_20 0871ca06d66271e2d4e1e290fc51cf94faa91c0f",
        "scriptpubkey_type": "v0_p2wpkh",
        "scriptpubkey_address": "bc1qppcu5pkkvfc7948pu2g0c5w0jna2j8q0z8tkz2",
        "value": 3739654
      },
      "scriptsig": "",
      "scriptsig_asm": "",
      "witness": [
        "304502210099b50cca2a9dbd72af29bc0c0bee989729e25e000eca7b8392cc6e12213925210220633c73ad449fb9b475938be773f49d0225c860cc7e6102e0a90d622997736bb501",
        "02bf84e5c34abb25969e8fd418b9034515133d1e425a6d58db9fb1773bfc8e5e3e"
      ],
      "is_coinbase": false,
      "sequence": 0
    }
  ],
  "vout": [
    {
      "scriptpubkey": "76a9141a169a0ee2a555b24bd4380a1def0285e1526f2588ac",
      "scriptpubkey_asm": "OP_DUP OP_HASH160 OP_PUSHBYTES_20 1a169a0ee2a555b24bd4380a1def0285e1526f25 OP_EQUALVERIFY OP_CHECKSIG",
      "scriptpubkey_type": "p2pkh",
      "scriptpubkey_address": "13NwePUSAwigAfk6sZHqiq5kWmSLYQ5TGC",
      "value": 3737846
    }
  ],
  "size": 195,
  "weight": 450,
  "fee": 1808,
  "status": {
    "confirmed": true,
    "block_height": 834638,
    "block_hash": "000000000000000000025f742c626208ac87e0b7d15054abb4a19ca2d735a54e",
    "block_time": 1710405325
  },
  "hex": "0100000000010100c9e6e9bb5982f43a59ea3c344e0d2906ae9c9b7cdc55d420dae4770e2313d63b000000000000000001f6083900000000001976a9141a169a0ee2a555b24bd4380a1def0285e1526f2588ac0248304502210099b50cca2a9dbd72af29bc0c0bee989729e25e000eca7b8392cc6e12213925210220633c73ad449fb9b475938be773f49d0225c860cc7e6102e0a90d622997736bb5012102bf84e5c34abb25969e8fd418b9034515133d1e425a6d58db9fb1773bfc8e5e3e00000000"
}