{
  "txid": "8cd2e9f1726cf923447878ba18c0fbdd1c1698710acdfe5b6dd052cc3bd193fe",
  "version": 2,
  "locktime": 0,
  "vin": [
    {
      "txid": "065d81ed7de6930869cf6b2909fb243596cc0ca954e90d0c3429691222ad45cf",
      "vout": 1,
      "prevout": {
        "scriptpubkey": "5120f0bfd95b701636f4c20cf6a20b491a2a54a0e0067799646d97f5dee02867f31a",
        "scriptpubkey_asm": "OP_PUSHNUM_1 OP_PUSHBYTES_32 f0bfd95b701636f4c20cf6a20b491a2a54a0e0067799646d97f5dee02867f31a",
        "scriptpubkey_type": "v1_p2tr",
        "scriptpubkey_address": "bc1p7zlajkmszcm0fssv763qkjg69f22pcqxw7vkgmvh7h0wq2r87vdqjhrtga",
        "value": 925231
      },
      "scriptsig": "",
      "scriptsig_asm": "",
      "witness": [
        "b0bb9abf48a92d280ad6085c7a6cfe8d80c8662b4d5176c1a570ffc9b72f49b7c4f3c14fff98a943f58f40ef73851130f0561c3de96f5bec18e18b3542db6f86"
      ],
      "is_coinbase": false,
      "sequence": 4294967295
    },
    {
      "txid": "9fe5282c94af9770f523bcf0f175dd9e29ec60c82a6ecdc68353c3ffaea81cf0",
      "vout": 5,
      "prevout": {
        "scriptpubkey": "5120f0bfd95b701636f4c20cf6a20b491a2a54a0e0067799646d97f5dee02867f31a",
        "scriptpubkey_asm": "OP_PUSHNUM_1 OP_PUSHBYTES_32 f0bfd95b701636f4c20cf6a20b491a2a54a0e0067799646d97f5dee02867f31a",
        "scriptpubkey_type": "v1_p2tr",
        "scriptpubkey_address": "bc1p7zlajkmszcm0fssv763qkjg69f22pcqxw7vkgmvh7h0wq2r87vdqjhrtga",
        "value": 518498
      },
      "scriptsig": "",
      "scriptsig_asm": "",
      "witness": [
        "e4db931457cb4d032846e156cf93c49f439bbc4850eb6d763494c4f8585d2487890b14a4700cf3a6c95297cbb935b001f511c5d9a0ab3aa413ca35af297ec254"
      ],
      "is_coinbase": false,
      "sequence": 4294967295
    }
  ],
  "vout": [
    {
      "scriptpubkey": "001441353afb50433406bf24a8bdb3b95f3e097b1973",
      "scriptpubkey_asm": "OP_0 OP_PUSHBYTES_20 41353afb50433406bf24a8bdb3b95f3e097b1973",
      "scriptpubkey_type": "v0_p2wpkh",
      "scriptpubkey_address": "bc1qgy6n476sgv6qd0ey4z7m8w2l8cyhkxtnz20hvy",
      "value": 1400000
    },
    {
      "scriptpubkey": "5120f0bfd95b701636f4c20cf6a20b491a2a54a0e0067799646d97f5dee02867f31a",
      "scriptpubkey_asm": "OP_PUSHNUM_1 OP_PUSHBYTES_32 f0bfd95b701636f4c20cf6a20b491a2a54a0e0067799646d97f5dee02867f31a",
      "scriptpubkey_type": "v1_p2tr",
      "scriptpubkey_address": "bc1p7zlajkmszcm0fssv763qkjg69f22pcqxw7vkgmvh7h0wq2r87vdqjhrtga",
      "value": 41135
    }
  ],
  "size": 300,
  "weight": 798,
  "fee": 2594,
  "status": {
    "confirmed": true,
    "block_height": 834552,
    "block_hash": "00000000000000000001dd0468a70c94f619251d286585cff57aeb4bd9ede330",
    "block_time": 1710355598
  },
  "hex": "02000000000102cf45ad22126929340c0de954a90ccc963524fb09296bcf690893e67ded815d060100000000fffffffff01ca8aeffc35383c6cd6e2ac860ec299edd75f1f0bc23f57097af942c28e59f0500000000ffffffff02c05c15000000000016001441353afb50433406bf24a8bdb3b95f3e097b1973afa0000000000000225120f0bfd95b701636f4c20cf6a20b491a2a54a0e0067799646d97f5dee02867f31a0140b0bb9abf48a92d280ad6085c7a6cfe8d80c8662b4d5176c1a570ffc9b72f49b7c4f3c14fff98a943f58f40ef73851130f0561c3de96f5bec18e18b3542db6f860140e4db931457cb4d032846e156cf93c49f439bbc4850eb6d763494c4f8585d2487890b14a4700cf3a6c95297cbb935b001f511c5d9a0ab3aa413ca35af297ec25400000000"
}