{
  "txid": "8cd7350dff3e2e553cc031423f7a38d82a4510437d7cbf110dd816cfdd76a638",
  "version": 1,
  "locktime": 0,
  "vin": [
    {
      "txid": "1fea4fd06f8718bf4bc0b308ea2b581c39b1ea2572172585589d74ff7b4ee2d9",
      "vout": 1433,
      "prevout": {
        "scriptpubkey": "0014125ff51bd3e16819cec3a2b081d819746372f425",
        "scriptpubkey_asm": "OP_0 OP_PUSHBYTES_20 125ff51bd3e16819cec3a2b081d819746372f425",
        "scriptpubkey_type": "v0_p2wpkh",
        "scriptpubkey_address": "bc1qzf0l2x7nu95pnnkr52cgrkqew33h9ap9gn0eht",
        "value": 131086
      },
      "scriptsig": "",
      "scriptsig_asm": "",
      "witness": [
        "304402205a426698a08f1f421293be8420399d6453f5ff541fa0f3907f6168b760f40865022071333b4a2c5416ece621a340d0c06f132f0e7cb4e86156a8dfebd2c90400a33101",
        "03132dca8bdb61ea2eee9bdb350ba5a1ce9d8a80836d6972f98b52c2ae60f38701"
      ],
      "is_coinbase": false,
      "sequence": 4294967295
    },
    {
      "txid": "2430519f61f8f64c8df2a2dae05e07b451da15a3f6bbd7246ce79368779d7b71",
      "vout": 1353,
      "prevout": {
        "scriptpubkey": "0014125ff51bd3e16819cec3a2b081d819746372f425",
        "scriptpubkey_asm": "OP_0 OP_PUSHBYTES_20 125ff51bd3e16819cec3a2b081d819746372f425",
        "scriptpubkey_type": "v0_p2wpkh",
        "scriptpubkey_address": "bc1qzf0l2x7nu95pnnkr52cgrkqew33h9ap9gn0eht",
        "value": 163486
      },
      "scriptsig": "",
      "scriptsig_asm": "",
      "witness": [
        "3045022100fd66a16793f287ffc1df4d02aecf7d16990a8c4f24cd2baeffb81ba2ee524d7b022000b34d80b325d113893591ef7fbff0094d7ed6c9d3a02abbc6568c36ec7660af01",
        "03132dca8bdb61ea2eee9bdb350ba5a1ce9d8a80836d6972f98b52c2ae60f38701"
      ],
      "is_coinbase": false,
      "sequence": 4294967295
    },
    {
      "txid": "2b93e82d03d8e35adb3db258ef76eef4ca6f8319decf39f2b618311c14682572",
      "vout": 566,
      "prevout": {
        "scriptpubkey": "0014125ff51bd3e16819cec3a2b081d819746372f425",
        "scriptpubkey_asm": "OP_0 OP_PUSHBYTES_20 125ff51bd3e16819cec3a2b081d819746372f425",
        "scriptpubkey_type": "v0_p2wpkh",
        "scriptpubkey_address": "bc1qzf0l2x7nu95pnnkr52cgrkqew33h9ap9gn0eht",
        "value": 162461
      },
      "scriptsig": "",
      "scriptsig_asm": "",
      "witness": [
        "3045022100921d03f5fb3d99a5b664a7020e14394a56af573c6187df8e7e70d8f9175a4d19022026435b767b7dd93825bb26462efe3db2093661a7448f508fc8f3ec4035f9cc6101",
        "03132dca8bdb61ea2eee9bdb350ba5a1ce9d8a80836d6972f98b52c2ae60f38701"
      ],
      "is_coinbase": false,
      "sequence": 4294967295
    },
    {
      "txid": "2d96565447b9df4ed292bb25618ba4b2761f2a9de233d3fa6babfa63205d8069",
      "vout": 1105,
      "prevout": {
        "scriptpubkey": "0014125ff51bd3e16819cec3a2b081d819746372f425",
        "scriptpubkey_asm": "OP_0 OP_PUSHBYTES_20 125ff51bd3e16819cec3a2b081d819746372f425",
        "scriptpubkey_type": "v0_p2wpkh",
        "scriptpubkey_address": "bc1qzf0l2x7nu95pnnkr52cgrkqew33h9ap9gn0eht",
        "value": 154413
      },
      "scriptsig": "",
      "scriptsig_asm": "",
      "witness": [
        "3045022100eb9d7637df607fc79ba76e84d4268f0e2bdcfcd60ce6c9ed7b61e75b9154bc8902206ccdd8fa03c07d094c4e8785422d79e511f3320d75b6b5a6916db0081dc2e79501",
        "03132dca8bdb61ea2eee9bdb350ba5a1ce9d8a80836d6972f98b52c2ae60f38701"
      ],
      "is_coinbase": false,
      "sequence": 4294967295
    },
    {
      "txid": "374d1e1ba0b98e7f9f0e87793c5173ec5f809a8f82cd2e55ee6783d739df43a8",
      "vout": 912,
      "prevout": {
        "scriptpubkey": "0014125ff51bd3e16819cec3a2b081d819746372f425",
        "scriptpubkey_asm": "OP_0 OP_PUSHBYTES_20 125ff51bd3e16819cec3a2b081d819746372f425",
        "scriptpubkey_type": "v0_p2wpkh",
        "scriptpubkey_address": "bc1qzf0l2x7nu95pnnkr52cgrkqew33h9ap9gn0eht",
        "value": 81883
      },
      "scriptsig": "",
      "scriptsig_asm": "",
      "witness": [
        "3045022100c2404bdb10c950cbc264bc690e9066cd876dad0f22c1f0c9d0d6ae0230a77b6d022063f5e3d92c12e7601c773cd6cbfc42466c9b00daba636a3b35e624504e21b6d201",
        "03132dca8bdb61ea2eee9bdb350ba5a1ce9d8a80836d6972f98b52c2ae60f38701"
      ],
      "is_coinbase": false,
      "sequence": 4294967295
    },
    {
      "txid": "52b391471776ccb7d0c8ab3e62d0f568a97e5459ed5371d5c3bd0e2593c74cfb",
      "vout": 259,
      "prevout": {
        "scriptpubkey": "0014125ff51bd3e16819cec3a2b081d819746372f425",
        "scriptpubkey_asm": "OP_0 OP_PUSHBYTES_20 125ff51bd3e16819cec3a2b081d819746372f425",
        "scriptpubkey_type": "v0_p2wpkh",
        "scriptpubkey_address": "bc1qzf0l2x7nu95pnnkr52cgrkqew33h9ap9gn0eht",
        "value": 168097
      },
      "scriptsig": "",
      "scriptsig_asm": "",
      "witness": [
        "304402205ad9d05bc5124bcbc936bb0276b9d29f9cc9da6c716c38ba2ea3e0457eed91c102204c98ccb88a898e5548918eafabaf830f4d6d587a9a107beb37ee0a3ceac647f301",
        "03132dca8bdb61ea2eee9bdb350ba5a1ce9d8a80836d6972f98b52c2ae60f38701"
      ],
      "is_coinbase": false,
      "sequence": 4294967295
    },
    {
      "txid": "53d5e68836d5c9739edfb3411d18dec19205940777640dcba544f7fcd85c6b7b",
      "vout": 1321,
      "prevout": {
        "scriptpubkey": "0014125ff51bd3e16819cec3a2b081d819746372f425",
        "scriptpubkey_asm": "OP_0 OP_PUSHBYTES_20 125ff51bd3e16819cec3a2b081d819746372f425",
        "scriptpubkey_type": "v0_p2wpkh",
        "scriptpubkey_address": "bc1qzf0l2x7nu95pnnkr52cgrkqew33h9ap9gn0eht",
        "value": 159810
      },
      "scriptsig": "",
      "scriptsig_asm": "",
      "witness": [
        "3044022059edf4eb30576e004d38d4b4c704d93cd62fb140dd983ff7e527f40755776a1f0220349aeb889a2a10ebf887a937309f130de5b709b2e4ffcff7f363286d5709c48c01",
        "03132dca8bdb61ea2eee9bdb350ba5a1ce9d8a80836d6972f98b52c2ae60f38701"
      ],
      "is_coinbase": false,
      "sequence": 4294967295
    },
    {
      "txid": "55d9efb751165cad19e5e6a4a89b1614bca8f927551315d6c406b3918636de20",
      "vout": 843,
      "prevout": {
        "scriptpubkey": "0014125ff51bd3e16819cec3a2b081d819746372f425",
        "scriptpubkey_asm": "OP_0 OP_PUSHBYTES_20 125ff51bd3e16819cec3a2b081d819746372f425",
        "scriptpubkey_type": "v0_p2wpkh",
        "scriptpubkey_address": "bc1qzf0l2x7nu95pnnkr52cgrkqew33h9ap9gn0eht",
        "value": 164512
      },
      "scriptsig": "",
      "scriptsig_asm": "",
      "witness": [
        "30440220013a704c7397f6cc4948dfd1224473234e32ec678d444da9f4a127119e6d679e022030879653e1324dd87916f744d02eca969048cbed463c87d557ab2f0ef8d9315201",
        "03132dca8bdb61ea2eee9bdb350ba5a1ce9d8a80836d6972f98b52c2ae60f38701"
      ],
      "is_coinbase": false,
      "sequence": 4294967295
    },
    {
      "txid": "5f817444bf700b5a1d65830dbd648334f845a1f59311a44542002995a5b80666",
      "vout": 1450,
      "prevout": {
        "scriptpubkey": "0014125ff51bd3e16819cec3a2b081d819746372f425",
        "scriptpubkey_asm": "OP_0 OP_PUSHBYTES_20 125ff51bd3e16819cec3a2b081d819746372f425",
        "scriptpubkey_type": "v0_p2wpkh",
        "scriptpubkey_address": "bc1qzf0l2x7nu95pnnkr52cgrkqew33h9ap9gn0eht",
        "value": 145696
      },
      "scriptsig": "",
      "scriptsig_asm": "",
      "witness": [
        "3045022100d7a24bc2bd7612c813e908d0db11c43b43744222e107dbab37ec23e0f6d378020220143ab3ca8bb35a960669b1335456c0813170e458ad6510f90957767a5f75419501",
        "03132dca8bdb61ea2eee9bdb350ba5a1ce9d8a80836d6972f98b52c2ae60f38701"
      ],
      "is_coinbase": false,
      "sequence": 4294967295
    },
    {
      "txid": "6198aaa273f988eebb41564a6c609784810b9c4fc2961083c2e16e5f1c8a5906",
      "vout": 1326,
      "prevout": {
        "scriptpubkey": "0014125ff51bd3e16819cec3a2b081d819746372f425",
        "scriptpubkey_asm": "OP_0 OP_PUSHBYTES_20 125ff51bd3e16819cec3a2b081d819746372f425",
        "scriptpubkey_type": "v0_p2wpkh",
        "scriptpubkey_address": "bc1qzf0l2x7nu95pnnkr52cgrkqew33h9ap9gn0eht",
        "value": 152465
      },
      "scriptsig": "",
      "scriptsig_asm": "",
      "witness": [
        "3044022022213366dd7bd07759472d025f299c6e6e5f2cd44915a75e5ab97b414208a99b02207407ddd4dd188889554c120e0046f64234424032f1c9594fa32848bee3a308c401",
        "03132dca8bdb61ea2eee9bdb350ba5a1ce9d8a80836d6972f98b52c2ae60f38701"
      ],
      "is_coinbase": false,
      "sequence": 4294967295
    },
    {
      "txid": "6e6d1faa14e34e670ad15e4642135cccdcd275c3a73cfbd47102620b12770dc1",
      "vout": 1326,
      "prevout": {
        "scriptpubkey": "0014125ff51bd3e16819cec3a2b081d819746372f425",
        "scriptpubkey_asm": "OP_0 OP_PUSHBYTES_20 125ff51bd3e16819cec3a2b081d819746372f425",
        "scriptpubkey_type": "v0_p2wpkh",
        "scriptpubkey_address": "bc1qzf0l2x7nu95pnnkr52cgrkqew33h9ap9gn0eht",
        "value": 148754
      },
      "scriptsig": "",
      "scriptsig_asm": "",
      "witness": [
        "3045022100ab50606a5e326ddf816997f8a075088dcabaf12b4044daa4f15d978852a63bf3022063b16dab63e207c3571193b5550ef080bc71c4fdd47db4dee7ca39708dc2847701",
        "03132dca8bdb61ea2eee9bdb350ba5a1ce9d8a80836d6972f98b52c2ae60f38701"
      ],
      "is_coinbase": false,
      "sequence": 4294967295
    },
    {
      "txid": "9aea4cf2e91430cfdfd5c8c12d12678c2713ff5c35e4a0d4890d3653dedcb5b0",
      "vout": 189,
      "prevout": {
        "scriptpubkey": "0014125ff51bd3e16819cec3a2b081d819746372f425",
        "scriptpubkey_asm": "OP_0 OP_PUSHBYTES_20 125ff51bd3e16819cec3a2b081d819746372f425",
        "scriptpubkey_type": "v0_p2wpkh",
        "scriptpubkey_address": "bc1qzf0l2x7nu95pnnkr52cgrkqew33h9ap9gn0eht",
        "value": 58365
      },
      "scriptsig": "",
      "scriptsig_asm": "",
      "witness": [
        "304402204d77affd42b8a14fe92936782f50f575cf2ea56a71560b772d8a5a49576b78b50220195b67529464cbc48eeb535c61b90169afeddb5372840cd7bc26ac2bc05fa70c01",
        "03132dca8bdb61ea2eee9bdb350ba5a1ce9d8a80836d6972f98b52c2ae60f38701"
      ],
      "is_coinbase": false,
      "sequence": 4294967295
    },
    {
      "txid": "a0fb9c838fc5acb7809b6879a0e2f6b4a0513bf835f01897d804c718f712b3bc",
      "vout": 1327,
      "prevout": {
        "scriptpubkey": "0014125ff51bd3e16819cec3a2b081d819746372f425",
        "scriptpubkey_asm": "OP_0 OP_PUSHBYTES_20 125ff51bd3e16819cec3a2b081d819746372f425",
        "scriptpubkey_type": "v0_p2wpkh",
        "scriptpubkey_address": "bc1qzf0l2x7nu95pnnkr52cgrkqew33h9ap9gn0eht",
        "value": 164689
      },
      "scriptsig": "",
      "scriptsig_asm": "",
      "witness": [
        "3044022100a111a6b0835056bb5e35e3145519eaf153efb6023391430d0711809f071e5cf9021f4af3404542de496b9308f23bbd78dc75e2648aeca09c3484181619caa6827301",
        "03132dca8bdb61ea2eee9bdb350ba5a1ce9d8a80836d6972f98b52c2ae60f38701"
      ],
      "is_coinbase": false,
      "sequence": 4294967295
    },
    {
      "txid": "a9cbc0b0ac3ea5890b12699e06a35db0722c87622b6b17edbfedcf394526e075",
      "vout": 0,
      "prevout": {
        "scriptpubkey": "0014f329dbe343524fb526240f59cda9129d5f198fba",
        "scriptpubkey_asm": "OP_0 OP_PUSHBYTES_20 f329dbe343524fb526240f59cda9129d5f198fba",
        "scriptpubkey_type": "v0_p2wpkh",
        "scriptpubkey_address": "bc1q7v5ahc6r2f8m2f3ypavum2gjn403nra60h58tk",
        "value": 129405
      },
      "scriptsig": "",
      "scriptsig_asm": "",
      "witness": [
        "3045022100bd547abd256d0b33c53f2a42bbb630eb01eb2a4ebed7433478d441d9f0c57af802203063695da99f139f80687bd12074894751a25a62cd1e63eae1f88f7aa57b412e01",
        "03ff9f6b9db25a5bbcdc13f30c72ddcb3064746c60f2a4d861702c9b42f6811173"
      ],
      "is_coinbase": false,
      "sequence": 4294967295
    },
    {
      "txid": "c281bf861b3ce978d06274f96b77332ed9da9026524d25cd5dfaf172627c32ab",
      "vout": 1112,
      "prevout": {
        "scriptpubkey": "0014125ff51bd3e16819cec3a2b081d819746372f425",
        "scriptpubkey_asm": "OP_0 OP_PUSHBYTES_20 125ff51bd3e16819cec3a2b081d819746372f425",
        "scriptpubkey_type": "v0_p2wpkh",
        "scriptpubkey_address": "bc1qzf0l2x7nu95pnnkr52cgrkqew33h9ap9gn0eht",
        "value": 116850
      },
      "scriptsig": "",
      "scriptsig_asm": "",
      "witness": [
        "30440220498176c3e0c3c7ba5c7ae34dd51ab51210d1cf0fe2172e5733dbb55601e6ba4e022024699377b9e250170bfa56f04aec58ebea2a19aa0f3144a1b7a1770eacb6663b01",
        "03132dca8bdb61ea2eee9bdb350ba5a1ce9d8a80836d6972f98b52c2ae60f38701"
      ],
      "is_coinbase": false,
      "sequence": 4294967295
    },
    {
      "txid": "d2fc79810b4070ed773afd65b689a7476b53f58e72ab5e95b21016c834d37a79",
      "vout": 416,
      "prevout": {
        "scriptpubkey": "0014125ff51bd3e16819cec3a2b081d819746372f425",
        "scriptpubkey_asm": "OP_0 OP_PUSHBYTES_20 125ff51bd3e16819cec3a2b081d819746372f425",
        "scriptpubkey_type": "v0_p2wpkh",
        "scriptpubkey_address": "bc1qzf0l2x7nu95pnnkr52cgrkqew33h9ap9gn0eht",
        "value": 129903
      },
      "scriptsig": "",
      "scriptsig_asm": "",
      "witness": [
        "30440220095e14f84a2a36f1fec176fff9acb70e2e52594baff66a2b39a8e77dc4864e48022060c6c1c388d140d0601d879a364caf4dd26385f89a261b14173efd2c7a85a18401",
        "03132dca8bdb61ea2eee9bdb350ba5a1ce9d8a80836d6972f98b52c2ae60f38701"
      ],
      "is_coinbase": false,
      "sequence": 4294967295
    },
    {
      "txid": "d98d4b6d67becb113fc948135c8dd1bd9b622758828036fd1a19e932652c0a02",
      "vout": 261,
      "prevout": {
        "scriptpubkey": "0014125ff51bd3e16819cec3a2b081d819746372f425",
        "scriptpubkey_asm": "OP_0 OP_PUSHBYTES_20 125ff51bd3e16819cec3a2b081d819746372f425",
        "scriptpubkey_type": "v0_p2wpkh",
        "scriptpubkey_address": "bc1qzf0l2x7nu95pnnkr52cgrkqew33h9ap9gn0eht",
        "value": 169493
      },
      "scriptsig": "",
      "scriptsig_asm": "",
      "witness": [
        "3044022015053140ff92e85c73ba9908f0bdba65fbd8d8e11ca58be3035e91a86f2754220220716b4433510dcc118794f7d1440cff2b20a52dd5fdd8997bb69d162c256cd21701",
        "03132dca8bdb61ea2eee9bdb350ba5a1ce9d8a80836d6972f98b52c2ae60f38701"
      ],
      "is_coinbase": false,
      "sequence": 4294967295
    },
    {
      "txid": "e5dc2c5757356f62bcdcceba12443af352ede34fbc933fafa3f59f5f761a97c4",
      "vout": 254,
      "prevout": {
        "scriptpubkey": "0014125ff51bd3e16819cec3a2b081d819746372f425",
        "scriptpubkey_asm": "OP_0 OP_PUSHBYTES_20 125ff51bd3e16819cec3a2b081d819746372f425",
        "scriptpubkey_type": "v0_p2wpkh",
        "scriptpubkey_address": "bc1qzf0l2x7nu95pnnkr52cgrkqew33h9ap9gn0eht",
        "value": 186713
      },
      "scriptsig": "",
      "scriptsig_asm": "",
      "witness": [
        "304502210096055be28ec0c62bb80acd58928db2a847cd7d970c52fbcbbace15d21ac623d1022013fe745b4f523e019695ae67a680ed5e527058af0e727673c456d2f4d885639d01",
        "03132dca8bdb61ea2eee9bdb350ba5a1ce9d8a80836d6972f98b52c2ae60f38701"
      ],
      "is_coinbase": false,
      "sequence": 4294967295
    },
    {
      "txid": "ea2726ce26b1d5baedf1635209ceb5276cfbdac1135e50f4ee4a72af80947329",
      "vout": 1,
      "prevout": {
        "scriptpubkey": "0014bdae325a1aae157d5d395a9a985eaa6638db48f1",
        "scriptpubkey_asm": "OP_0 OP_PUSHBYTES_20 bdae325a1aae157d5d395a9a985eaa6638db48f1",
        "scriptpubkey_type": "v0_p2wpkh",
        "scriptpubkey_address": "bc1qhkhryks64c2h6hfet2dfsh42vcudkj83mr6jd8",
        "value": 165380
      },
      "scriptsig": "",
      "scriptsig_asm": "",
      "witness": [
        "3045022100b7646289a0b3a247989530706c8688ee1cbb0ec44232004ba43cc40c9c61d136022058e2d9b365ff432ef913eb93f4a6a2bfab8de87e0a86d19f2e5ad7952a1414fc01",
        "03aae771c2897326e75f9740f3cbb566204b2032cca36bdd421991819770c08c01"
      ],
      "is_coinbase": false,
      "sequence": 4294967295
    },
    {
      "txid": "f4e68b3e33a23c619c7307754fa95c51512d603ec83d0ab5f26b039e154c031d",
      "vout": 1302,
      "prevout": {
        "scriptpubkey": "0014125ff51bd3e16819cec3a2b081d819746372f425",
        "scriptpubkey_asm": "OP_0 OP_PUSHBYTES_20 125ff51bd3e16819cec3a2b081d819746372f425",
        "scriptpubkey_type": "v0_p2wpkh",
        "scriptpubkey_address": "bc1qzf0l2x7nu95pnnkr52cgrkqew33h9ap9gn0eht",
        "value": 163514
      },
      "scriptsig": "",
      "scriptsig_asm": "",
      "witness": [
        "3044022027ae8f00e9602c34636a7e247f934dc2c3c52dfebd376ea7fc78bc7b127317450220120a2d1efd8c9e9e9c6a55b2500bf8d51a30145bd2b222ef2c8e04f614d0bc5601",
        "03132dca8bdb61ea2eee9bdb350ba5a1ce9d8a80836d6972f98b52c2ae60f38701"
      ],
      "is_coinbase": false,
      "sequence": 4294967295
    },
    {
      "txid": "fbd4cd0139cb37b5307f8b9e6a8c0be1c3459645c749d2d58f6aec6429569a58",
      "vout": 693,
      "prevout": {
        "scriptpubkey": "0014125ff51bd3e16819cec3a2b081d819746372f425",
        "scriptpubkey_asm": "OP_0 OP_PUSHBYTES_20 125ff51bd3e16819cec3a2b081d819746372f425",
        "scriptpubkey_type": "v0_p2wpkh",
        "scriptpubkey_address": "bc1qzf0l2x7nu95pnnkr52cgrkqew33h9ap9gn0eht",
        "value": 138505
      },
      "scriptsig": "",
      "scriptsig_asm": "",
      "witness": [
        "30450221008ce4e41b2ff8f4c68ab5305754b6752d6c78e5097cd100af9fd200b6d8ad1eea0220412db4ad477249d2baed90b9c10e8915f16a53da7c75e6f77d31e55163a38e9b01",
        "03132dca8bdb61ea2eee9bdb350ba5a1ce9d8a80836d6972f98b52c2ae60f38701"
      ],
      "is_coinbase": false,
      "sequence": 4294967295
    }
  ],
  "vout": [
    {
      "scriptpubkey": "76a914e21c5c2a85c1433d4cfa9b9eb79c4087a88ca3ed88ac",
      "scriptpubkey_asm": "OP_DUP OP_HASH160 OP_PUSHBYTES_20 e21c5c2a85c1433d4cfa9b9eb79c4087a88ca3ed OP_EQUALVERIFY OP_CHECKSIG",
      "scriptpubkey_type": "p2pkh",
      "scriptpubkey_address": "1McZgqsmGT6t2ue6HLkDP2SNypjcP99JXa",
      "value": 3033400
    }
  ],
  "size": 3164,
  "weight": 5879,
  "fee": 22080,
  "status": {
    "confirmed": true,
    "block_height": 834638,
    "block_hash": "000000000000000000025f742c626208ac87e0b7d15054abb4a19ca2d735a54e",
    "block_time": 1710405325
  },
  "hex": "01000000000115d9e24e7bff749d588525177225eab1391c582bea08b3c04bbf18876fd04fea1f9905000000ffffffff717b9d776893e76c24d7bbf6a315da51b4075ee0daa2f28d4cf6f8619f5130244905000000ffffffff722568141c3118b6f239cfde19836fcaf4ee76ef58b23ddb5ae3d8032de8932b3602000000ffffffff69805d2063faab6bfad333e29d2a1f76b2a48b6125bb92d24edfb9475456962d5104000000ffffffffa843df39d78367ee552ecd828f9a805fec73513c79870e9f7f8eb9a01b1e4d379003000000fffffffffb4cc793250ebdc3d57153ed59547ea968f5d0623eabc8d0b7cc76174791b3520301000000ffffffff7b6b5cd8fcf744a5cb0d647707940592c1de181d41b3df9e73c9d53688e6d5532905000000ffffffff20de368691b306c4d615135527f9a8bc14169ba8a4e6e519ad5c1651b7efd9554b03000000ffffffff6606b8a59529004245a41193f5a145f8348364bd0d83651d5a0b70bf4474815faa05000000ffffffff06598a1c5f6ee1c2831096c24f9c0b818497606c4a5641bbee88f973a2aa98612e05000000ffffffffc10d77120b620271d4fb3ca7c375d2dccc5c1342465ed10a674ee314aa1f6d6e2e05000000ffffffffb0b5dcde53360d89d4a0e4355cff13278c67122dc1c8d5dfcf3014e9f24cea9abd00000000ffffffffbcb312f718c704d89718f035f83b51a0b4f6e2a079689b80b7acc58f839cfba02f05000000ffffffff75e0264539cfedbfed176b2b62872c72b05da3069e69120b89a53eacb0c0cba90000000000ffffffffab327c6272f1fa5dcd254d522690dad92e33776bf97462d078e93c1b86bf81c25804000000ffffffff797ad334c81610b2955eab728ef5536b47a789b665fd3a77ed70400b8179fcd2a001000000ffffffff020a2c6532e9191afd3680825827629bbdd18d5c1348c93f11cbbe676d4b8dd90501000000ffffffffc4971a765f9ff5a3af3f93bc4fe3ed52f33a4412bacedcbc626f3557572cdce5fe00000000ffffffff29739480af724aeef4505e13c1dafb6c27b5ce095263f1edbad5b126ce2627ea0100000000ffffffff1d034c159e036bf2b50a3dc83e602d51515ca94f7507739c613ca2333e8be6f41605000000ffffffff589a562964ec6a8fd5d249c7459645c3e10b8c6a9e8b7f30b537cb3901cdd4fbb502000000ffffffff0138492e00000000001976a914e21c5c2a85c1433d4cfa9b9eb79c4087a88ca3ed88ac0247304402205a426698a08f1f421293be8420399d6453f5ff541fa0f3907f6168b760f40865022071333b4a2c5416ece621a340d0c06f132f0e7cb4e86156a8dfebd2c90400a331012103132dca8bdb61ea2eee9bdb350ba5a1ce9d8a80836d6972f98b52c2ae60f3870102483045022100fd66a16793f287ffc1df4d02aecf7d16990a8c4f24cd2baeffb81ba2ee524d7b022000b34d80b325d113893591ef7fbff0094d7ed6c9d3a02abbc6568c36ec7660af012103132dca8bdb61ea2eee9bdb350ba5a1ce9d8a80836d6972f98b52c2ae60f3870102483045022100921d03f5fb3d99a5b664a7020e14394a56af573c6187df8e7e70d8f9175a4d19022026435b767b7dd93825bb26462efe3db2093661a7448f508fc8f3ec4035f9cc61012103132dca8bdb61ea2eee9bdb350ba5a1ce9d8a80836d6972f98b52c2ae60f3870102483045022100eb9d7637df607fc79ba76e84d4268f0e2bdcfcd60ce6c9ed7b61e75b9154bc8902206ccdd8fa03c07d094c4e8785422d79e511f3320d75b6b5a6916db0081dc2e795012103132dca8bdb61ea2eee9bdb350ba5a1ce9d8a80836d6972f98b52c2ae60f3870102483045022100c2404bdb10c950cbc264bc690e9066cd876dad0f22c1f0c9d0d6ae0230a77b6d022063f5e3d92c12e7601c773cd6cbfc42466c9b00daba636a3b35e624504e21b6d2012103132dca8bdb61ea2eee9bdb350ba5a1ce9d8a80836d6972f98b52c2ae60f387010247304402205ad9d05bc5124bcbc936bb0276b9d29f9cc9da6c716c38ba2ea3e0457eed91c102204c98ccb88a898e5548918eafabaf830f4d6d587a9a107beb37ee0a3ceac647f3012103132dca8bdb61ea2eee9bdb350ba5a1ce9d8a80836d6972f98b52c2ae60f3870102473044022059edf4eb30576e004d38d4b4c704d93cd62fb140dd983ff7e527f40755776a1f0220349aeb889a2a10ebf887a937309f130de5b709b2e4ffcff7f363286d5709c48c012103132dca8bdb61ea2eee9bdb350ba5a1ce9d8a80836d6972f98b52c2ae60f38701024730440220013a704c7397f6cc4948dfd1224473234e32ec678d444da9f4a127119e6d679e022030879653e1324dd87916f744d02eca969048cbed463c87d557ab2f0ef8d93152012103132dca8bdb61ea2eee9bdb350ba5a1ce9d8a80836d6972f98b52c2ae60f3870102483045022100d7a24bc2bd7612c813e908d0db11c43b43744222e107dbab37ec23e0f6d378020220143ab3ca8bb35a960669b1335456c0813170e458ad6510f90957767a5f754195012103132dca8bdb61ea2eee9bdb350ba5a1ce9d8a80836d6972f98b52c2ae60f3870102473044022022213366dd7bd07759472d025f299c6e6e5f2cd44915a75e5ab97b414208a99b02207407ddd4dd188889554c120e0046f64234424032f1c9594fa32848bee3a308c4012103132dca8bdb61ea2eee9bdb350ba5a1ce9d8a80836d6972f98b52c2ae60f3870102483045022100ab50606a5e326ddf816997f8a075088dcabaf12b4044daa4f15d978852a63bf3022063b16dab63e207c3571193b5550ef080bc71c4fdd47db4dee7ca39708dc28477012103132dca8bdb61ea2eee9bdb350ba5a1ce9d8a80836d6972f98b52c2ae60f387010247304402204d77affd42b8a14fe92936782f50f575cf2ea56a71560b772d8a5a49576b78b50220195b67529464cbc48eeb535c61b90169afeddb5372840cd7bc26ac2bc05fa70c012103132dca8bdb61ea2eee9bdb350ba5a1ce9d8a80836d6972f98b52c2ae60f3870102473044022100a111a6b0835056bb5e35e3145519eaf153efb6023391430d0711809f071e5cf9021f4af3404542de496b9308f23bbd78dc75e2648aeca09c3484181619caa68273012103132dca8bdb61ea2eee9bdb350ba5a1ce9d8a80836d6972f98b52c2ae60f3870102483045022100bd547abd256d0b33c53f2a42bbb630eb01eb2a4ebed7433478d441d9f0c57af802203063695da99f139f80687bd12074894751a25a62cd1e63eae1f88f7aa57b412e012103ff9f6b9db25a5bbcdc13f30c72ddcb3064746c60f2a4d861702c9b42f6811173024730440220498176c3e0c3c7ba5c7ae34dd51ab51210d1cf0fe2172e5733dbb55601e6ba4e022024699377b9e250170bfa56f04aec58ebea2a19aa0f3144a1b7a1770eacb6663b012103132dca8bdb61ea2eee9bdb350ba5a1ce9d8a80836d6972f98b52c2ae60f38701024730440220095e14f84a2a36f1fec176fff9acb70e2e52594baff66a2b39a8e77dc4864e48022060c6c1c388d140d0601d879a364caf4dd26385f89a261b14173efd2c7a85a184012103132dca8bdb61ea2eee9bdb350ba5a1ce9d8a80836d6972f98b52c2ae60f3870102473044022015053140ff92e85c73ba9908f0bdba65fbd8d8e11ca58be3035e91a86f2754220220716b4433510dcc118794f7d1440cff2b20a52dd5fdd8997bb69d162c256cd217012103132dca8bdb61ea2eee9bdb350ba5a1ce9d8a80836d6972f98b52c2ae60f387010248304502210096055be28ec0c62bb80acd58928db2a847cd7d970c52fbcbbace15d21ac623d1022013fe745b4f523e019695ae67a680ed5e527058af0e727673c456d2f4d885639d012103132dca8bdb61ea2eee9bdb350ba5a1ce9d8a80836d6972f98b52c2ae60f3870102483045022100b7646289a0b3a247989530706c8688ee1cbb0ec44232004ba43cc40c9c61d136022058e2d9b365ff432ef913eb93f4a6a2bfab8de87e0a86d19f2e5ad7952a1414fc012103aae771c2897326e75f9740f3cbb566204b2032cca36bdd421991819770c08c0102473044022027ae8f00e9602c34636a7e247f934dc2c3c52dfebd376ea7fc78bc7b127317450220120a2d1efd8c9e9e9c6a55b2500bf8d51a30145bd2b222ef2c8e04f614d0bc56012103132dca8bdb61ea2eee9bdb350ba5a1ce9d8a80836d6972f98b52c2ae60f38701024830450221008ce4e41b2ff8f4c68ab5305754b6752d6c78e5097cd100af9fd200b6d8ad1eea0220412db4ad477249d2baed90b9c10e8915f16a53da7c75e6f77d31e55163a38e9b012103132dca8bdb61ea2eee9bdb350ba5a1ce9d8a80836d6972f98b52c2ae60f3870100000000"
}