{
  "txid": "8cdeb451a15e78ff17261ab5a01032c843b251ea217db256d61b90cbaf2a2d2a",
  "version": 2,
  "locktime": 0,
  "vin": [
    {
      "txid": "8c7ef09bd83d8e6a614027fba3c74f3767fe3db59523ee4ed11816e7fbec861f",
      "vout": 0,
      "prevout": {
        "scriptpubkey": "0014ee5d2424b69ef6b2a1ce610f82d0afea7457eeae",
        "scriptpubkey_asm": "OP_0 OP_PUSHBYTES_20 ee5d2424b69ef6b2a1ce610f82d0afea7457eeae",
        "scriptpubkey_type": "v0_p2wpkh",
        "scriptpubkey_address": "bc1qaewjgf9knmmt9gwwvy8c9590af690m4wpt6p4s",
        "value": 4677
      },
      "scriptsig": "",
      "scriptsig_asm": "",
      "witness": [
        "30440220211aa4f60520ce4713277b6a31c6ad6726c3ee00ffe11ee6ad86726d480a454f02205eeb5db6acd30ea71c27d30b742e9f8d5bd0985ca1e7d0513850d278a3ee17ce01",
        "03f85f2659bdf2f9d407b8631c24c12a8e2ae51afbe2ba97464d813aea028908f5"
      ],
      "is_coinbase": false,
      "sequence": 2147483648
    }
  ],
  "vout": [
    {
      "scriptpubkey": "0014212b69aea3f9e47b580cc16b69cd72abca598af7",
      "scriptpubkey_asm": "OP_0 OP_PUSHBYTES_20 212b69aea3f9e47b580cc16b69cd72abca598af7",
      "scriptpubkey_type": "v0_p2wpkh",
      "scriptpubkey_address": "bc1qyy4knt4rl8j8kkqvc94knntj4099nzhhmcpa3q",
      "value": 2997
    }
  ],
  "size": 191,
  "weight": 437,
  "fee": 1680,
  "status": {
    "confirmed": true,
    "block_height": 834638,
    "block_hash": "000000000000000000025f742c626208ac87e0b7d15054abb4a19ca2d735a54e",
    "block_time": 1710405325
  },
  "hex": "020000000001011f86ecfbe71618d14eee2395b53dfe67374fc7a3fb2740616a8e3dd89bf07e8c00000000000000008001b50b000000000000160014212b69aea3f9e47b580cc16b69cd72abca598af7024730440220211aa4f60520ce4713277b6a31c6ad6726c3ee00ffe11ee6ad86726d480a454f02205eeb5db6acd30ea71c27d30b742e9f8d5bd0985ca1e7d0513850d278a3ee17ce012103f85f2659bdf2f9d407b8631c24c12a8e2ae51afbe2ba97464d813aea028908f500000000"
}