{
  "txid": "8ce9a8b63e5b39b9210755dbdef464483d8446a0f5ac00282e1e3b8a8678e7e8",
  "version": 1,
  "locktime": 0,
  "vin": [
    {
      "txid": "9495d6f0531f4bef4363832a7269ae4009366fd90db68fab9e0cfa30b84345a2",
      "vout": 0,
      "prevout": {
        "scriptpubkey": "76a9143e4d8d444abec4d17af2f08fea978913d734361c88ac",
        "scriptpubkey_asm": "OP_DUP OP_HASH160 OP_PUSHBYTES_20 3e4d8d444abec4d17af2f08fea978913d734361c OP_EQUALVERIFY OP_CHECKSIG",
        "scriptpubkey_type": "p2pkh",
        "scriptpubkey_address": "16gRoHjxxchmTmR9xhpbNa5GjnbGm8HQJk",
        "value": 6495
      },
      "scriptsig": "48304502210082bcd041ad5ba570e8a84cea0647efc726381885c0b07c14852526a8e915b73d0220184f223976871b2c45e2d28286a5699f3bb62ca29f46e8fdbd3560f6a2c318d7012103d02234ae7e228d14370054adf90154ceb954eafba8c75e2004451a75d8825cbc",
      "scriptsig_asm": "OP_PUSHBYTES_72 304502210082bcd041ad5ba570e8a84cea0647efc726381885c0b07c14852526a8e915b73d0220184f223976871b2c45e2d28286a5699f3bb62ca29f46e8fdbd3560f6a2c318d701 OP_PUSHBYTES_33 03d02234ae7e228d14370054adf90154ceb954eafba8c75e2004451a75d8825cbc",
      "is_coinbase": false,
      "sequence": 4294967295
    },
    {
      "txid": "3b8ff3303350ff2e774b995533c83487a74b382cf53f8612b9ff2900ef5ded4c",
      "vout": 0,
      "prevout": {
        "scriptpubkey": "76a9143e4d8d444abec4d17af2f08fea978913d734361c88ac",
        "scriptpubkey_asm": "OP_DUP OP_HASH160 OP_PUSHBYTES_20 3e4d8d444abec4d17af2f08fea978913d734361c OP_EQUALVERIFY OP_CHECKSIG",
        "scriptpubkey_type": "p2pkh",
        "scriptpubkey_address": "16gRoHjxxchmTmR9xhpbNa5GjnbGm8HQJk",
        "value": 61196
      },
      "scriptsig": "483045022100fd913de47b229aee441c1cb5cc981046c4688acaae06119843c8c937490fa63e022037814325ae32cfc6f14553c51deef88f2e4ad61a732cec7a46e209e5ff8af18a012103d02234ae7e228d14370054adf90154ceb954eafba8c75e2004451a75d8825cbc",
      "scriptsig_asm": "OP_PUSHBYTES_72 3045022100fd913de47b229aee441c1cb5cc981046c4688acaae06119843c8c937490fa63e022037814325ae32cfc6f14553c51deef88f2e4ad61a732cec7a46e209e5ff8af18a01 OP_PUSHBYTES_33 03d02234ae7e228d14370054adf90154ceb954eafba8c75e2004451a75d8825cbc",
      "is_coinbase": false,
      "sequence": 4294967295
    },
    {
      "txid": "d82d5c6ca7631d9a495fb389ea488881463a4a96f7df549df91537368a7d0785",
      "vout": 0,
      "prevout": {
        "scriptpubkey": "76a9143e4d8d444abec4d17af2f08fea978913d734361c88ac",
        "scriptpubkey_asm": "OP_DUP OP_HASH160 OP_PUSHBYTES_20 3e4d8d444abec4d17af2f08fea978913d734361c OP_EQUALVERIFY OP_CHECKSIG",
        "scriptpubkey_type": "p2pkh",
        "scriptpubkey_address": "16gRoHjxxchmTmR9xhpbNa5GjnbGm8HQJk",
        "value": 236332
      },
      "scriptsig": "47304402206af3b0e35c1099f407b51a3fbd93e3171fd035e647a5aa8694fa99384a695ce502206c648ea9d3b47b2d4ee491200004848cc0da3a4bfe88af391ae11a74816a8918012103d02234ae7e228d14370054adf90154ceb954eafba8c75e2004451a75d8825cbc",
      "scriptsig_asm": "OP_PUSHBYTES_71 304402206af3b0e35c1099f407b51a3fbd93e3171fd035e647a5aa8694fa99384a695ce502206c648ea9d3b47b2d4ee491200004848cc0da3a4bfe88af391ae11a74816a891801 OP_PUSHBYTES_33 03d02234ae7e228d14370054adf90154ceb954eafba8c75e2004451a75d8825cbc",
      "is_coinbase": false,
      "sequence": 4294967295
    }
  ],
  "vout": [
    {
      "scriptpubkey": "0014acab07b263ea9219fe338f5c8ac7f061f575c8b1",
      "scriptpubkey_asm": "OP_0 OP_PUSHBYTES_20 acab07b263ea9219fe338f5c8ac7f061f575c8b1",
      "scriptpubkey_type": "v0_p2wpkh",
      "scriptpubkey_address": "bc1q4j4s0vnra2fpnl3n3awg43lsv86htj93g4528e",
      "value": 298820
    }
  ],
  "size": 484,
  "weight": 1936,
  "fee": 5203,
  "status": {
    "confirmed": true,
    "block_height": 834464,
    "block_hash": "0000000000000000000177a0869a911a2b65c9bdcd5a8bcb02b68f305bee848e",
    "block_time": 1710308296
  },
  "hex": "0100000003a24543b830fa0c9eab8fb60dd96f360940ae69722a836343ef4b1f53f0d69594000000006b48304502210082bcd041ad5ba570e8a84cea0647efc726381885c0b07c14852526a8e915b73d0220184f223976871b2c45e2d28286a5699f3bb62ca29f46e8fdbd3560f6a2c318d7012103d02234ae7e228d14370054adf90154ceb954eafba8c75e2004451a75d8825cbcffffffff4ced5def0029ffb912863ff52c384ba78734c83355994b772eff503330f38f3b000000006b483045022100fd913de47b229aee441c1cb5cc981046c4688acaae06119843c8c937490fa63e022037814325ae32cfc6f14553c51deef88f2e4ad61a732cec7a46e209e5ff8af18a012103d02234ae7e228d14370054adf90154ceb954eafba8c75e2004451a75d8825cbcffffffff85077d8a363715f99d54dff7964a3a46818848ea89b35f499a1d63a76c5c2dd8000000006a47304402206af3b0e35c1099f407b51a3fbd93e3171fd035e647a5aa8694fa99384a695ce502206c648ea9d3b47b2d4ee491200004848cc0da3a4bfe88af391ae11a74816a8918012103d02234ae7e228d14370054adf90154ceb954eafba8c75e2004451a75d8825cbcffffffff01448f040000000000160014acab07b263ea9219fe338f5c8ac7f061f575c8b100000000"
}