{
  "txid": "8ceceecc07521be40ee25297c5316d56756788b48e992d90d235ac49ca9854bf",
  "version": 2,
  "locktime": 0,
  "vin": [
    {
      "txid": "573166c074d1f9d97e74b7e445ae9eee4071bb54005e0e28be99fe4fa5597b23",
      "vout": 30,
      "prevout": {
        "scriptpubkey": "5120ae28d228fac4dc66b32ba97cb3558338a1b412872e8f07aa1f751dc9277bca2b",
        "scriptpubkey_asm": "OP_PUSHNUM_1 OP_PUSHBYTES_32 ae28d228fac4dc66b32ba97cb3558338a1b412872e8f07aa1f751dc9277bca2b",
        "scriptpubkey_type": "v1_p2tr",
        "scriptpubkey_address": "bc1p4c5dy286cnwxdvet497tx4vr8zsmgy58968s02slw5wujfmmeg4stp243t",
        "value": 3055
      },
      "scriptsig": "",
      "scriptsig_asm": "",
      "witness": [
        "4edc8633bfaa7f312914cd37aa1782b37840839b39ab25360fb14dd3aac11c8751a197210aa1a9cbbe3cf54b0cf7ffcfc1d6ae701b3589f956efb1614f4066db",
        "2053e055364dcfec4e55e999eb33743c42347da23d3afa047e55be805ecb0d8a07ac0063036f726401011e6170706c69636174696f6e2f6a736f6e3b636861727365743d7574662d38004cd37b2270223a22706f772d3230222c226f70223a226d696e74222c227469636b223a2250455045222c22616d74223a2231303030222c22736f6c7574696f6e223a22504550453a6263317070376e727a37746333726c6d6d72373773676a6b6b7561677073323971776830617261393430777a616878666b6d6e61687770717877667139703a303030303030303030303030303030303030303139393431613561653132383937363539383134343239323533333030353762306461393666336465613163353a3134383732353334373931227d68",
        "c1f1b4027b27384657c547a9d6289f3be45ec463ffc50ccbf57ef9c2d60d2b0f32"
      ],
      "is_coinbase": false,
      "sequence": 4294967295
    }
  ],
  "vout": [
    {
      "scriptpubkey": "51200fa631797888ffbd8fde82256b73a80c14503aefe8fa5abdc2edcc9b6e7dbb82",
      "scriptpubkey_asm": "OP_PUSHNUM_1 OP_PUSHBYTES_32 0fa631797888ffbd8fde82256b73a80c14503aefe8fa5abdc2edcc9b6e7dbb82",
      "scriptpubkey_type": "v1_p2tr",
      "scriptpubkey_address": "bc1pp7nrz7tc3rlmmr77sgjkkuagps29qwh0ara940wzahxfkmnahwpqxwfq9p",
      "value": 546
    }
  ],
  "size": 487,
  "weight": 769,
  "fee": 2509,
  "status": {
    "confirmed": true,
    "block_height": 834460,
    "block_hash": "00000000000000000000484a79b643b2524bbce82e5d8a442013fa5b8905ed98",
    "block_time": 1710307468
  },
  "hex": "02000000000101237b59a54ffe99be280e5e0054bb7140ee9eae45e4b7747ed9f9d174c06631571e00000000ffffffff0122020000000000002251200fa631797888ffbd8fde82256b73a80c14503aefe8fa5abdc2edcc9b6e7dbb8203404edc8633bfaa7f312914cd37aa1782b37840839b39ab25360fb14dd3aac11c8751a197210aa1a9cbbe3cf54b0cf7ffcfc1d6ae701b3589f956efb1614f4066dbfd20012053e055364dcfec4e55e999eb33743c42347da23d3afa047e55be805ecb0d8a07ac0063036f726401011e6170706c69636174696f6e2f6a736f6e3b636861727365743d7574662d38004cd37b2270223a22706f772d3230222c226f70223a226d696e74222c227469636b223a2250455045222c22616d74223a2231303030222c22736f6c7574696f6e223a22504550453a6263317070376e727a37746333726c6d6d72373773676a6b6b7561677073323971776830617261393430777a616878666b6d6e61687770717877667139703a303030303030303030303030303030303030303139393431613561653132383937363539383134343239323533333030353762306461393666336465613163353a3134383732353334373931227d6821c1f1b4027b27384657c547a9d6289f3be45ec463ffc50ccbf57ef9c2d60d2b0f3200000000"
}