{
  "txid": "8d1db6e351895158ab17d482ce481af1230b851648088dd4d291e5f0a3a7c5ac",
  "version": 2,
  "locktime": 0,
  "vin": [
    {
      "txid": "fc81dd82f074dc7b351b648b67a97b59b0e38ca3b24b9d30be1fb372facd0459",
      "vout": 1,
      "prevout": {
        "scriptpubkey": "0014192e80ed2c7c412bdc2a6c8f371d15cb90f3c85b",
        "scriptpubkey_asm": "OP_0 OP_PUSHBYTES_20 192e80ed2c7c412bdc2a6c8f371d15cb90f3c85b",
        "scriptpubkey_type": "v0_p2wpkh",
        "scriptpubkey_address": "bc1qryhgpmfv03qjhhp2dj8nw8g4ewg08jzmgy3cyx",
        "value": 299362440
      },
      "scriptsig": "",
      "scriptsig_asm": "",
      "witness": [
        "3044022002cc153eee614acd35af262ef9f12948f570f9c7f955026f4403aeee09d23a5b0220667558a06e1156d222ef6790a55fec7ddc35e8761699c0db3d2d0722c63c742f01",
        "03b01bd095f648ea829f000207087f16622431077bb5cc0875225ada601375c885"
      ],
      "is_coinbase": false,
      "sequence": 4294967293
    }
  ],
  "vout": [
    {
      "scriptpubkey": "76a91445a1c2a0e16063df0dc6c173b2687b3e74c3f56f88ac",
      "scriptpubkey_asm": "OP_DUP OP_HASH160 OP_PUSHBYTES_20 45a1c2a0e16063df0dc6c173b2687b3e74c3f56f OP_EQUALVERIFY OP_CHECKSIG",
      "scriptpubkey_type": "p2pkh",
      "scriptpubkey_address": "17MBQY8VvyhxWmJrd91VCFxEaytUnsmu28",
      "value": 178975935
    },
    {
      "scriptpubkey": "0014192e80ed2c7c412bdc2a6c8f371d15cb90f3c85b",
      "scriptpubkey_asm": "OP_0 OP_PUSHBYTES_20 192e80ed2c7c412bdc2a6c8f371d15cb90f3c85b",
      "scriptpubkey_type": "v0_p2wpkh",
      "scriptpubkey_address": "bc1qryhgpmfv03qjhhp2dj8nw8g4ewg08jzmgy3cyx",
      "value": 120379881
    }
  ],
  "size": 225,
  "weight": 573,
  "fee": 6624,
  "status": {
    "confirmed": true,
    "block_height": 834464,
    "block_hash": "0000000000000000000177a0869a911a2b65c9bdcd5a8bcb02b68f305bee848e",
    "block_time": 1710308296
  },
  "hex": "020000000001015904cdfa72b31fbe309d4bb2a38ce3b0597ba9678b641b357bdc74f082dd81fc0100000000fdffffff02bff4aa0a000000001976a91445a1c2a0e16063df0dc6c173b2687b3e74c3f56f88ace9d92c0700000000160014192e80ed2c7c412bdc2a6c8f371d15cb90f3c85b02473044022002cc153eee614acd35af262ef9f12948f570f9c7f955026f4403aeee09d23a5b0220667558a06e1156d222ef6790a55fec7ddc35e8761699c0db3d2d0722c63c742f012103b01bd095f648ea829f000207087f16622431077bb5cc0875225ada601375c88500000000"
}