{
  "txid": "8d28c37bd01a65cff065a3d0279f16f7251fc8fe51837bbd9d9ed7ffe74d0afc",
  "version": 1,
  "locktime": 0,
  "vin": [
    {
      "txid": "40ce97f8728107fa685759296ac8ded88c07600775f7a45d071166c9f55813e3",
      "vout": 2,
      "prevout": {
        "scriptpubkey": "001449a33b0ef18bcf18bd76cb255bc638a084b35f97",
        "scriptpubkey_asm": "OP_0 OP_PUSHBYTES_20 49a33b0ef18bcf18bd76cb255bc638a084b35f97",
        "scriptpubkey_type": "v0_p2wpkh",
        "scriptpubkey_address": "bc1qfx3nkrh3308330tkevj4h33c5zztxhuhkv5hl4",
        "value": 600
      },
      "scriptsig": "",
      "scriptsig_asm": "",
      "witness": [
        "3045022100d6aca2d880e07d61bb60680cf9c69c42406f4ec23bb7d1f8e86b88fdc19c2779022027d92aa8b01371194f41bca87cfe320a79d3981ad089a230afe03a34ccda1bfe01",
        "025c665fce48654121de2285d0d19a42be7ede5f13d10772778195a1030155e244"
      ],
      "is_coinbase": false,
      "sequence": 4294967293
    },
    {
      "txid": "40ce97f8728107fa685759296ac8ded88c07600775f7a45d071166c9f55813e3",
      "vout": 3,
      "prevout": {
        "scriptpubkey": "001449a33b0ef18bcf18bd76cb255bc638a084b35f97",
        "scriptpubkey_asm": "OP_0 OP_PUSHBYTES_20 49a33b0ef18bcf18bd76cb255bc638a084b35f97",
        "scriptpubkey_type": "v0_p2wpkh",
        "scriptpubkey_address": "bc1qfx3nkrh3308330tkevj4h33c5zztxhuhkv5hl4",
        "value": 600
      },
      "scriptsig": "",
      "scriptsig_asm": "",
      "witness": [
        "30440220377c2f77b8cd1b2854b11eae8a9f00634cd6be857d244cc508ba982c5334917c022034e9470e5dd38e75def4d002f56f95381f573e13a31332dd029d6c1ddb09465e01",
        "025c665fce48654121de2285d0d19a42be7ede5f13d10772778195a1030155e244"
      ],
      "is_coinbase": false,
      "sequence": 4294967293
    },
    {
      "txid": "586dcd703d18bb78f68ae1cd3a04631323bff8735882309a92321a3829d0d135",
      "vout": 0,
      "prevout": {
        "scriptpubkey": "5120409cad91010a9f399e6aa06017a16a14290ef7a6a5ffa3c82a79b5d2c34cc222",
        "scriptpubkey_asm": "OP_PUSHNUM_1 OP_PUSHBYTES_32 409cad91010a9f399e6aa06017a16a14290ef7a6a5ffa3c82a79b5d2c34cc222",
        "scriptpubkey_type": "v1_p2tr",
        "scriptpubkey_address": "bc1pgzw2mygpp20nn8n25psp0gt2zs5saaax5hl68jp20x6a9s6vcg3qsu9vy4",
        "value": 868
      },
      "scriptsig": "",
      "scriptsig_asm": "",
      "witness": [
        "f5e93e059bf9c4108102d770291d38de96748343efb9cde1b0093bd0c3eb057f2e2a30465b273fd06a7eb3840a03ba2d56fcbe5ad16a5e3a71cdaf6dcceda42483"
      ],
      "is_coinbase": false,
      "sequence": 4294967293
    },
    {
      "txid": "8cc7949d360b8f5f4be84ae342e2be4c80bb526446208316d416c712aac9752a",
      "vout": 2,
      "prevout": {
        "scriptpubkey": "001449a33b0ef18bcf18bd76cb255bc638a084b35f97",
        "scriptpubkey_asm": "OP_0 OP_PUSHBYTES_20 49a33b0ef18bcf18bd76cb255bc638a084b35f97",
        "scriptpubkey_type": "v0_p2wpkh",
        "scriptpubkey_address": "bc1qfx3nkrh3308330tkevj4h33c5zztxhuhkv5hl4",
        "value": 1651076
      },
      "scriptsig": "",
      "scriptsig_asm": "",
      "witness": [
        "3045022100a2cc2f1ab8e9ea3d175520aefa8392680926b5d71aca444fdb9d9ab4ee0a485b022016d7fd39a711eb3ff858473366dcac23758efdcfb90e596331ab3ef9d0ea362001",
        "025c665fce48654121de2285d0d19a42be7ede5f13d10772778195a1030155e244"
      ],
      "is_coinbase": false,
      "sequence": 4294967293
    }
  ],
  "vout": [
    {
      "scriptpubkey": "001449a33b0ef18bcf18bd76cb255bc638a084b35f97",
      "scriptpubkey_asm": "OP_0 OP_PUSHBYTES_20 49a33b0ef18bcf18bd76cb255bc638a084b35f97",
      "scriptpubkey_type": "v0_p2wpkh",
      "scriptpubkey_address": "bc1qfx3nkrh3308330tkevj4h33c5zztxhuhkv5hl4",
      "value": 1200
    },
    {
      "scriptpubkey": "001449a33b0ef18bcf18bd76cb255bc638a084b35f97",
      "scriptpubkey_asm": "OP_0 OP_PUSHBYTES_20 49a33b0ef18bcf18bd76cb255bc638a084b35f97",
      "scriptpubkey_type": "v0_p2wpkh",
      "scriptpubkey_address": "bc1qfx3nkrh3308330tkevj4h33c5zztxhuhkv5hl4",
      "value": 868
    },
    {
      "scriptpubkey": "a914a31a4e23012277f03b43cdb54c60b0ce8365e2db87",
      "scriptpubkey_asm": "OP_HASH160 OP_PUSHBYTES_20 a31a4e23012277f03b43cdb54c60b0ce8365e2db OP_EQUAL",
      "scriptpubkey_type": "p2sh",
      "scriptpubkey_address": "3GZRaXkNvHSdyHzi6MuLbifo4ensAMiM72",
      "value": 1070300
    },
    {
      "scriptpubkey": "5120d11b52ebc5e8a1d3010b1d1494ea526494e651bfe81d7e9ba3b7779623f954ba",
      "scriptpubkey_asm": "OP_PUSHNUM_1 OP_PUSHBYTES_32 d11b52ebc5e8a1d3010b1d1494ea526494e651bfe81d7e9ba3b7779623f954ba",
      "scriptpubkey_type": "v1_p2tr",
      "scriptpubkey_address": "bc1p6yd49679azsaxqgtr52ff6jjvj2wv5dlaqwhaxarkamevgle2jaqs8vlnr",
      "value": 29700
    },
    {
      "scriptpubkey": "001449a33b0ef18bcf18bd76cb255bc638a084b35f97",
      "scriptpubkey_asm": "OP_0 OP_PUSHBYTES_20 49a33b0ef18bcf18bd76cb255bc638a084b35f97",
      "scriptpubkey_type": "v0_p2wpkh",
      "scriptpubkey_address": "bc1qfx3nkrh3308330tkevj4h33c5zztxhuhkv5hl4",
      "value": 543596
    }
  ],
  "size": 734,
  "weight": 1760,
  "fee": 7480,
  "status": {
    "confirmed": true,
    "block_height": 834638,
    "block_hash": "000000000000000000025f742c626208ac87e0b7d15054abb4a19ca2d735a54e",
    "block_time": 1710405325
  },
  "hex": "01000000000104e31358f5c96611075da4f7750760078cd8dec86a29595768fa078172f897ce400200000000fdffffffe31358f5c96611075da4f7750760078cd8dec86a29595768fa078172f897ce400300000000fdffffff35d1d029381a32929a30825873f8bf231363043acde18af678bb183d70cd6d580000000000fdffffff2a75c9aa12c716d4168320466452bb804cbee242e34ae84b5f8f0b369d94c78c0200000000fdffffff05b00400000000000016001449a33b0ef18bcf18bd76cb255bc638a084b35f97640300000000000016001449a33b0ef18bcf18bd76cb255bc638a084b35f97dc5410000000000017a914a31a4e23012277f03b43cdb54c60b0ce8365e2db870474000000000000225120d11b52ebc5e8a1d3010b1d1494ea526494e651bfe81d7e9ba3b7779623f954ba6c4b08000000000016001449a33b0ef18bcf18bd76cb255bc638a084b35f9702483045022100d6aca2d880e07d61bb60680cf9c69c42406f4ec23bb7d1f8e86b88fdc19c2779022027d92aa8b01371194f41bca87cfe320a79d3981ad089a230afe03a34ccda1bfe0121025c665fce48654121de2285d0d19a42be7ede5f13d10772778195a1030155e244024730440220377c2f77b8cd1b2854b11eae8a9f00634cd6be857d244cc508ba982c5334917c022034e9470e5dd38e75def4d002f56f95381f573e13a31332dd029d6c1ddb09465e0121025c665fce48654121de2285d0d19a42be7ede5f13d10772778195a1030155e2440141f5e93e059bf9c4108102d770291d38de96748343efb9cde1b0093bd0c3eb057f2e2a30465b273fd06a7eb3840a03ba2d56fcbe5ad16a5e3a71cdaf6dcceda4248302483045022100a2cc2f1ab8e9ea3d175520aefa8392680926b5d71aca444fdb9d9ab4ee0a485b022016d7fd39a711eb3ff858473366dcac23758efdcfb90e596331ab3ef9d0ea36200121025c665fce48654121de2285d0d19a42be7ede5f13d10772778195a1030155e24400000000"
}