{
  "txid": "8d423895ffd10527bcdbcd8bca0468716cda0c5a6fd8483e9dbf4e5bc6d5ebd4",
  "version": 2,
  "locktime": 0,
  "vin": [
    {
      "txid": "2fb47628bada8b1a50f394b2ab8e4b0bff1ffafb7cf15386f74fb606ea7dc261",
      "vout": 47,
      "prevout": {
        "scriptpubkey": "00145e7c35d342420cf212909fae9aea2d718f4249f8",
        "scriptpubkey_asm": "OP_0 OP_PUSHBYTES_20 5e7c35d342420cf212909fae9aea2d718f4249f8",
        "scriptpubkey_type": "v0_p2wpkh",
        "scriptpubkey_address": "bc1qte7rt56zggx0yy5sn7hf463dwx85yj0cck3fuh",
        "value": 74773
      },
      "scriptsig": "",
      "scriptsig_asm": "",
      "witness": [
        "3045022100c812f095501366e02e4fdbb6abcb634e7e68f5b8e97e29642776d8aa067bb6460220261c0752f5a0065699a1cf31f6358b786248bbe3ac62b1492080c247982a09cd01",
        "02933ec79aa0a1ac0a2326a3b6bc73a52ad9fb84f0625c2afff98d6381e1792fec"
      ],
      "is_coinbase": false,
      "sequence": 4294967295
    }
  ],
  "vout": [
    {
      "scriptpubkey": "76a9143b82c03ae30ef2f49f86f624ba42d420c2acfa7688ac",
      "scriptpubkey_asm": "OP_DUP OP_HASH160 OP_PUSHBYTES_20 3b82c03ae30ef2f49f86f624ba42d420c2acfa76 OP_EQUALVERIFY OP_CHECKSIG",
      "scriptpubkey_type": "p2pkh",
      "scriptpubkey_address": "16RfW3tARry8S17DFWfgghcDzJmtSaoNnb",
      "value": 72595
    }
  ],
  "size": 195,
  "weight": 450,
  "fee": 2178,
  "status": {
    "confirmed": true,
    "block_height": 834638,
    "block_hash": "000000000000000000025f742c626208ac87e0b7d15054abb4a19ca2d735a54e",
    "block_time": 1710405325
  },
  "hex": "0200000000010161c27dea06b64ff78653f17cfbfa1fff0b4b8eabb294f3501a8bdaba2876b42f2f00000000ffffffff01931b0100000000001976a9143b82c03ae30ef2f49f86f624ba42d420c2acfa7688ac02483045022100c812f095501366e02e4fdbb6abcb634e7e68f5b8e97e29642776d8aa067bb6460220261c0752f5a0065699a1cf31f6358b786248bbe3ac62b1492080c247982a09cd012102933ec79aa0a1ac0a2326a3b6bc73a52ad9fb84f0625c2afff98d6381e1792fec00000000"
}