{
  "txid": "8d4415f547b96c3d024c313c0c34be7932d36dae133461921d07d007047efb10",
  "version": 2,
  "locktime": 0,
  "vin": [
    {
      "txid": "2ec861de74f4ee19bb41c910c8cd041538f2ad94a92729115e72c7b6159441b7",
      "vout": 1,
      "prevout": {
        "scriptpubkey": "5120caa8e19109a5f787546ff2c519eee19c5f380d40603138e885af5aec91177826",
        "scriptpubkey_asm": "OP_PUSHNUM_1 OP_PUSHBYTES_32 caa8e19109a5f787546ff2c519eee19c5f380d40603138e885af5aec91177826",
        "scriptpubkey_type": "v1_p2tr",
        "scriptpubkey_address": "bc1pe25wrygf5hmcw4r07tz3nmhpn30nsr2qvqcn36y94adweygh0qnqpsfc0x",
        "value": 2862
      },
      "scriptsig": "",
      "scriptsig_asm": "",
      "witness": [
        "60cb3be1e8627d54a4e03a50347542419eed0583d06c8e2d00e30f6f789205a7ccb7df34a0fe333b58f2e2cf95a92210bbe71a42d703391357a9d4a8b7642563",
        "203ae58a2895d56332d66d8432cd3b5b230351be2e1f8a141a361bf30358d09befac0063036f726401011e6170706c69636174696f6e2f6a736f6e3b636861727365743d7574662d38004cd37b2270223a22706f772d3230222c226f70223a226d696e74222c227469636b223a2250455045222c22616d74223a2231303030222c22736f6c7574696f6e223a22504550453a62633170746e776d6a6c6e30347468677938776d3632347175746a357163736676646a7179343676366b67747337656e6330797367633871666d646135723a303030303030303030303030303030303030303139393431613561653132383937363539383134343239323533333030353762306461393666336465613163353a3235343236363830373236227d68",
        "c1b3bc6f424055c5ec6ac1dc8b207f1ba18c4db693056bc938ea6425d8b7a62268"
      ],
      "is_coinbase": false,
      "sequence": 4294967295
    }
  ],
  "vout": [
    {
      "scriptpubkey": "51205cddb97e6faaee821ddbd2aa0e2e5406209636402574cd590b87b33c3c90460e",
      "scriptpubkey_asm": "OP_PUSHNUM_1 OP_PUSHBYTES_32 5cddb97e6faaee821ddbd2aa0e2e5406209636402574cd590b87b33c3c90460e",
      "scriptpubkey_type": "v1_p2tr",
      "scriptpubkey_address": "bc1ptnwmjln04thgy8wm624qutj5qcsfvdjqy46v6kgts7enc0ysgc8qfmda5r",
      "value": 546
    }
  ],
  "size": 487,
  "weight": 769,
  "fee": 2316,
  "status": {
    "confirmed": true,
    "block_height": 834460,
    "block_hash": "00000000000000000000484a79b643b2524bbce82e5d8a442013fa5b8905ed98",
    "block_time": 1710307468
  },
  "hex": "02000000000101b7419415b6c7725e112927a994adf2381504cdc810c941bb19eef474de61c82e0100000000ffffffff0122020000000000002251205cddb97e6faaee821ddbd2aa0e2e5406209636402574cd590b87b33c3c90460e034060cb3be1e8627d54a4e03a50347542419eed0583d06c8e2d00e30f6f789205a7ccb7df34a0fe333b58f2e2cf95a92210bbe71a42d703391357a9d4a8b7642563fd2001203ae58a2895d56332d66d8432cd3b5b230351be2e1f8a141a361bf30358d09befac0063036f726401011e6170706c69636174696f6e2f6a736f6e3b636861727365743d7574662d38004cd37b2270223a22706f772d3230222c226f70223a226d696e74222c227469636b223a2250455045222c22616d74223a2231303030222c22736f6c7574696f6e223a22504550453a62633170746e776d6a6c6e30347468677938776d3632347175746a357163736676646a7179343676366b67747337656e6330797367633871666d646135723a303030303030303030303030303030303030303139393431613561653132383937363539383134343239323533333030353762306461393666336465613163353a3235343236363830373236227d6821c1b3bc6f424055c5ec6ac1dc8b207f1ba18c4db693056bc938ea6425d8b7a6226800000000"
}