{
  "txid": "8d48ec0c5083ab0f5428bf26360e7221fe02ae2fb371c18902d27241b072522e",
  "version": 2,
  "locktime": 0,
  "vin": [
    {
      "txid": "1787c655800909c785fd8cb53583a49053765a968662e088dd009fa0ced9997f",
      "vout": 1,
      "prevout": {
        "scriptpubkey": "00141027b7e52c6c37b4f15c3acdc1e44db9207d7724",
        "scriptpubkey_asm": "OP_0 OP_PUSHBYTES_20 1027b7e52c6c37b4f15c3acdc1e44db9207d7724",
        "scriptpubkey_type": "v0_p2wpkh",
        "scriptpubkey_address": "bc1qzqnm0efvdsmmfu2u8txurezdhys86aey0vf5nr",
        "value": 2280653
      },
      "scriptsig": "",
      "scriptsig_asm": "",
      "witness": [
        "304502210095f9c33be0b355b293b68052f0378f0803a436c5592a0eae50337b23acded31c02207a98f91df94e2a5abf39a537fdf3c7e7ccb882f06d584e501c9db8ae8778967701",
        "030679aa5727d9f0a4602048ff799d9a5f9151eb8aae09ea75276712989374e60d"
      ],
      "is_coinbase": false,
      "sequence": 4294967295
    }
  ],
  "vout": [
    {
      "scriptpubkey": "00141027b7e52c6c37b4f15c3acdc1e44db9207d7724",
      "scriptpubkey_asm": "OP_0 OP_PUSHBYTES_20 1027b7e52c6c37b4f15c3acdc1e44db9207d7724",
      "scriptpubkey_type": "v0_p2wpkh",
      "scriptpubkey_address": "bc1qzqnm0efvdsmmfu2u8txurezdhys86aey0vf5nr",
      "value": 1104946
    },
    {
      "scriptpubkey": "00143136e5d764bed974c348244c71c07698bbabec63",
      "scriptpubkey_asm": "OP_0 OP_PUSHBYTES_20 3136e5d764bed974c348244c71c07698bbabec63",
      "scriptpubkey_type": "v0_p2wpkh",
      "scriptpubkey_address": "bc1qxymwt4myhmvhfs6gy3x8rsrknza6hmrr36uf50",
      "value": 1172073
    }
  ],
  "size": 223,
  "weight": 562,
  "fee": 3634,
  "status": {
    "confirmed": true,
    "block_height": 834638,
    "block_hash": "000000000000000000025f742c626208ac87e0b7d15054abb4a19ca2d735a54e",
    "block_time": 1710405325
  },
  "hex": "020000000001017f99d9cea09f00dd88e06286965a765390a48335b58cfd85c709098055c687170100000000ffffffff0232dc1000000000001600141027b7e52c6c37b4f15c3acdc1e44db9207d772469e21100000000001600143136e5d764bed974c348244c71c07698bbabec630248304502210095f9c33be0b355b293b68052f0378f0803a436c5592a0eae50337b23acded31c02207a98f91df94e2a5abf39a537fdf3c7e7ccb882f06d584e501c9db8ae877896770121030679aa5727d9f0a4602048ff799d9a5f9151eb8aae09ea75276712989374e60d00000000"
}