{
  "txid": "8d4b0c071ded6acfe348b76e44043232a893842416e33431172d041ad4be5690",
  "version": 1,
  "locktime": 0,
  "vin": [
    {
      "txid": "abadb8cc8a57e2f725ce3c1e2cc402aca658a4d29a041bd2f61502727dd3352a",
      "vout": 210,
      "prevout": {
        "scriptpubkey": "00149f2200f2db0a255e21df78e1cd01bcaa3f32388c",
        "scriptpubkey_asm": "OP_0 OP_PUSHBYTES_20 9f2200f2db0a255e21df78e1cd01bcaa3f32388c",
        "scriptpubkey_type": "v0_p2wpkh",
        "scriptpubkey_address": "bc1qnu3qpukmpgj4ugwl0rsu6qdu4glnywyv3tn64y",
        "value": 168508
      },
      "scriptsig": "",
      "scriptsig_asm": "",
      "witness": [
        "3045022100f19ddff6b1fffc0700b962bf4003946b0b05af9560127b210083a42bb779d83c022021260b4f9808fbda7b8c4f21335e169b085e30795f7b2e07489a5bde0b8cdf0601",
        "03810179de69ce114d75538fdda872b2c3f1cd471ddd02fd4a9f88b8598f4b34d8"
      ],
      "is_coinbase": false,
      "sequence": 4294967295
    }
  ],
  "vout": [
    {
      "scriptpubkey": "0014ff5f35f67743c1f168c201a32dba6e5d63dbfa6a",
      "scriptpubkey_asm": "OP_0 OP_PUSHBYTES_20 ff5f35f67743c1f168c201a32dba6e5d63dbfa6a",
      "scriptpubkey_type": "v0_p2wpkh",
      "scriptpubkey_address": "bc1qla0ntanhg0qlz6xzqx3jmwnwt43ah7n2r208pz",
      "value": 165538
    }
  ],
  "size": 192,
  "weight": 438,
  "fee": 2970,
  "status": {
    "confirmed": true,
    "block_height": 834638,
    "block_hash": "000000000000000000025f742c626208ac87e0b7d15054abb4a19ca2d735a54e",
    "block_time": 1710405325
  },
  "hex": "010000000001012a35d37d720215f6d21b049ad2a458a6ac02c42c1e3cce25f7e2578accb8adabd200000000ffffffff01a286020000000000160014ff5f35f67743c1f168c201a32dba6e5d63dbfa6a02483045022100f19ddff6b1fffc0700b962bf4003946b0b05af9560127b210083a42bb779d83c022021260b4f9808fbda7b8c4f21335e169b085e30795f7b2e07489a5bde0b8cdf06012103810179de69ce114d75538fdda872b2c3f1cd471ddd02fd4a9f88b8598f4b34d800000000"
}