{
  "txid": "8d53024b5340e46556051eae86e17f94f80283692ab6ecf7a21e485133736e9b",
  "version": 2,
  "locktime": 0,
  "vin": [
    {
      "txid": "ed1a896d53c1f83c97cf26993d4342bfa7c692aaadeaa0b181c6edbcb0dc9d7c",
      "vout": 0,
      "prevout": {
        "scriptpubkey": "5120a556220d75294c8e132dc87f96c430e6424dadf3c54e0bfcde3f9cfd2920c532",
        "scriptpubkey_asm": "OP_PUSHNUM_1 OP_PUSHBYTES_32 a556220d75294c8e132dc87f96c430e6424dadf3c54e0bfcde3f9cfd2920c532",
        "scriptpubkey_type": "v1_p2tr",
        "scriptpubkey_address": "bc1p54tzyrt499xguyedepled3psuepymt0nc48qhlx787w062fqc5eqtq8ypj",
        "value": 3846
      },
      "scriptsig": "",
      "scriptsig_asm": "",
      "witness": [
        "eded587f83406bae56ea28258d1552484ded8c3231563f241d598830f6feb61065e79c3dd1e9b02e3039d476befe63d6e8b82a2742271f36bf8ef7af0a2af041",
        "20bbc75f6a796e2c194ecd5829b1e5fae769ac9faf9fb2ce04a1dc17190170c495ac0063036f72640101106170706c69636174696f6e2f6a736f6e00387b2270223a226272632d3230222c226f70223a227472616e73666572222c227469636b223a22314f6e38222c22616d74223a22313332227d68",
        "c0bbc75f6a796e2c194ecd5829b1e5fae769ac9faf9fb2ce04a1dc17190170c495"
      ],
      "is_coinbase": false,
      "sequence": 4294967293
    }
  ],
  "vout": [
    {
      "scriptpubkey": "51204b3def6b7bdf9758a317f5eafc03b3a744cc6bb7dad731af7edbfbb555c2be75",
      "scriptpubkey_asm": "OP_PUSHNUM_1 OP_PUSHBYTES_32 4b3def6b7bdf9758a317f5eafc03b3a744cc6bb7dad731af7edbfbb555c2be75",
      "scriptpubkey_type": "v1_p2tr",
      "scriptpubkey_address": "bc1pfv7776mmm7t43gch7h40cqan5azvc6ahmttnrtm7m0am24wzhe6smdt3m6",
      "value": 546
    }
  ],
  "size": 315,
  "weight": 597,
  "fee": 3300,
  "status": {
    "confirmed": true,
    "block_height": 834460,
    "block_hash": "00000000000000000000484a79b643b2524bbce82e5d8a442013fa5b8905ed98",
    "block_time": 1710307468
  },
  "hex": "020000000001017c9ddcb0bcedc681b1a0eaadaa92c6a7bf42433d9926cf973cf8c1536d891aed0000000000fdffffff0122020000000000002251204b3def6b7bdf9758a317f5eafc03b3a744cc6bb7dad731af7edbfbb555c2be750340eded587f83406bae56ea28258d1552484ded8c3231563f241d598830f6feb61065e79c3dd1e9b02e3039d476befe63d6e8b82a2742271f36bf8ef7af0a2af0417620bbc75f6a796e2c194ecd5829b1e5fae769ac9faf9fb2ce04a1dc17190170c495ac0063036f72640101106170706c69636174696f6e2f6a736f6e00387b2270223a226272632d3230222c226f70223a227472616e73666572222c227469636b223a22314f6e38222c22616d74223a22313332227d6821c0bbc75f6a796e2c194ecd5829b1e5fae769ac9faf9fb2ce04a1dc17190170c49500000000"
}