{
  "txid": "8d644a04753fb70f399769ae91c7cf763af69f277260bcac0c26dfc2695ce989",
  "version": 2,
  "locktime": 0,
  "vin": [
    {
      "txid": "acc3ba00869acb582a3f2904ce3a11dd3779350ce234063fc7d0959246213364",
      "vout": 188,
      "prevout": {
        "scriptpubkey": "5120700b54f39e128227d9e4ae9ca1fa7bcefbeb7f25ef671cb8b0ac6cc83f4ecb9b",
        "scriptpubkey_asm": "OP_PUSHNUM_1 OP_PUSHBYTES_32 700b54f39e128227d9e4ae9ca1fa7bcefbeb7f25ef671cb8b0ac6cc83f4ecb9b",
        "scriptpubkey_type": "v1_p2tr",
        "scriptpubkey_address": "bc1pwq94fuu7z2pz0k0y46w2r7nmema7kle9aan3ew9s43kvs06wewdsv0l2ve",
        "value": 1806
      },
      "scriptsig": "",
      "scriptsig_asm": "",
      "witness": [
        "fb870a3e584aac41205fbf60fac863738dc2923af5cb00f3331292b536a9848e8082075205593f1938f2de4d1d62e8210c8b05d553289be937e48a4d4a579c0e",
        "20abf469ec58c11d86b66ba18e76f98eeeec8005570551ee059d54beb027a24210ac0063036f726401010a746578742f706c61696e00357b2270223a226272632d3230222c226f70223a226d696e74222c227469636b223a22646f6765222c22616d74223a2234323030227d68",
        "c1abf469ec58c11d86b66ba18e76f98eeeec8005570551ee059d54beb027a24210"
      ],
      "is_coinbase": false,
      "sequence": 4261412863
    }
  ],
  "vout": [
    {
      "scriptpubkey": "00147a665de7a370f4c9b372ab1fae587500a5bcbdb4",
      "scriptpubkey_asm": "OP_0 OP_PUSHBYTES_20 7a665de7a370f4c9b372ab1fae587500a5bcbdb4",
      "scriptpubkey_type": "v0_p2wpkh",
      "scriptpubkey_address": "bc1q0fn9mearwr6vnvmj4v06ukr4qzjme0d565dzcx",
      "value": 294
    }
  ],
  "size": 294,
  "weight": 540,
  "fee": 1512,
  "status": {
    "confirmed": true,
    "block_height": 834460,
    "block_hash": "00000000000000000000484a79b643b2524bbce82e5d8a442013fa5b8905ed98",
    "block_time": 1710307468
  },
  "hex": "02000000000101643321469295d0c73f0634e20c357937dd113ace04293f2a58cb9a8600bac3acbc00000000fffffffd0126010000000000001600147a665de7a370f4c9b372ab1fae587500a5bcbdb40340fb870a3e584aac41205fbf60fac863738dc2923af5cb00f3331292b536a9848e8082075205593f1938f2de4d1d62e8210c8b05d553289be937e48a4d4a579c0e6d20abf469ec58c11d86b66ba18e76f98eeeec8005570551ee059d54beb027a24210ac0063036f726401010a746578742f706c61696e00357b2270223a226272632d3230222c226f70223a226d696e74222c227469636b223a22646f6765222c22616d74223a2234323030227d6821c1abf469ec58c11d86b66ba18e76f98eeeec8005570551ee059d54beb027a2421000000000"
}