{
  "txid": "8d644475a04da3daeb324a5d3c6a3ba2c4c1ebb36a7b0985581bc249bf480089",
  "version": 2,
  "locktime": 0,
  "vin": [
    {
      "txid": "a723e85ee8ec6bd3f90ca84c53b174cd6141489bc63f0eb39c7dcd0495127479",
      "vout": 1,
      "prevout": {
        "scriptpubkey": "76a914752934726e98dd0cddcfab5068046eeff858cd3a88ac",
        "scriptpubkey_asm": "OP_DUP OP_HASH160 OP_PUSHBYTES_20 752934726e98dd0cddcfab5068046eeff858cd3a OP_EQUALVERIFY OP_CHECKSIG",
        "scriptpubkey_type": "p2pkh",
        "scriptpubkey_address": "1BgVRQiBb1jvgFJUQKV8mGkTVhtqw8kZ4Z",
        "value": 188474
      },
      "scriptsig": "4730440220735b12efc6e2153b7090446fc4f920cec41e76d9788ce6b159f75226fa35d3bb022062816cd9a73fefbc688b079804af93486f6844c5febc3d0f31d085913f378706012102375499642336a490ef053f347b4cef07ddbc495dcc7db919a8b8c1dffa3d474a",
      "scriptsig_asm": "OP_PUSHBYTES_71 30440220735b12efc6e2153b7090446fc4f920cec41e76d9788ce6b159f75226fa35d3bb022062816cd9a73fefbc688b079804af93486f6844c5febc3d0f31d085913f37870601 OP_PUSHBYTES_33 02375499642336a490ef053f347b4cef07ddbc495dcc7db919a8b8c1dffa3d474a",
      "is_coinbase": false,
      "sequence": 4294967295
    }
  ],
  "vout": [
    {
      "scriptpubkey": "001417b09e35eb95463bfefd5bb20d672363d0c275b5",
      "scriptpubkey_asm": "OP_0 OP_PUSHBYTES_20 17b09e35eb95463bfefd5bb20d672363d0c275b5",
      "scriptpubkey_type": "v0_p2wpkh",
      "scriptpubkey_address": "bc1qz7cfud0tj4rrhlhatweq6eerv0gvyad485r9h0",
      "value": 100000
    },
    {
      "scriptpubkey": "76a914752934726e98dd0cddcfab5068046eeff858cd3a88ac",
      "scriptpubkey_asm": "OP_DUP OP_HASH160 OP_PUSHBYTES_20 752934726e98dd0cddcfab5068046eeff858cd3a OP_EQUALVERIFY OP_CHECKSIG",
      "scriptpubkey_type": "p2pkh",
      "scriptpubkey_address": "1BgVRQiBb1jvgFJUQKV8mGkTVhtqw8kZ4Z",
      "value": 84632
    }
  ],
  "size": 222,
  "weight": 888,
  "fee": 3842,
  "status": {
    "confirmed": true,
    "block_height": 834638,
    "block_hash": "000000000000000000025f742c626208ac87e0b7d15054abb4a19ca2d735a54e",
    "block_time": 1710405325
  },
  "hex": "02000000017974129504cd7d9cb30e3fc69b484161cd74b1534ca80cf9d36bece85ee823a7010000006a4730440220735b12efc6e2153b7090446fc4f920cec41e76d9788ce6b159f75226fa35d3bb022062816cd9a73fefbc688b079804af93486f6844c5febc3d0f31d085913f378706012102375499642336a490ef053f347b4cef07ddbc495dcc7db919a8b8c1dffa3d474affffffff02a08601000000000016001417b09e35eb95463bfefd5bb20d672363d0c275b5984a0100000000001976a914752934726e98dd0cddcfab5068046eeff858cd3a88ac00000000"
}