{
  "txid": "8d6a071535c5f2f1654530d2a637b206f49da89589201ea8f0c7116d8539d32f",
  "version": 2,
  "locktime": 0,
  "vin": [
    {
      "txid": "c456bc4eb0bb4f8ceaed34c61a6695ec02e1d3b5817ec0bcf0ae0c3a1c5eb727",
      "vout": 13,
      "prevout": {
        "scriptpubkey": "a91463e20eb92186890bb18d2f48ff7116d796ae811c87",
        "scriptpubkey_asm": "OP_HASH160 OP_PUSHBYTES_20 63e20eb92186890bb18d2f48ff7116d796ae811c OP_EQUAL",
        "scriptpubkey_type": "p2sh",
        "scriptpubkey_address": "3Ao9dHZJu7LFFfUoYhob6sazGyXuK77fBJ",
        "value": 2528771
      },
      "scriptsig": "1600140d3edad1d8df2140536f0add480c7125b8d0df8f",
      "scriptsig_asm": "OP_PUSHBYTES_22 00140d3edad1d8df2140536f0add480c7125b8d0df8f",
      "witness": [
        "3045022100ef57dfd007d1ab88f7f791e0a243b96d3b3accd224b7f411b396327c713a11ff02200ba68a27d135b245d350d43561a8d692800a7df35727961942c4eca00f65cc6801",
        "0327724e25a58fbe7a1e5b0dc344f34e11ab4fe6ec009769ba516da6bfc2f086b5"
      ],
      "is_coinbase": false,
      "sequence": 4294967293,
      "inner_redeemscript_asm": "OP_0 OP_PUSHBYTES_20 0d3edad1d8df2140536f0add480c7125b8d0df8f"
    },
    {
      "txid": "891545dbd0182b30b8d857a4416b345be7db38c48950fe8c134064274c950688",
      "vout": 0,
      "prevout": {
        "scriptpubkey": "a914037ab2cdeb9ea60cbb9e380081cbc6b88f76a0cd87",
        "scriptpubkey_asm": "OP_HASH160 OP_PUSHBYTES_20 037ab2cdeb9ea60cbb9e380081cbc6b88f76a0cd OP_EQUAL",
        "scriptpubkey_type": "p2sh",
        "scriptpubkey_address": "321QwMgJcF4xwRyVaV9W13p31zm37up2rt",
        "value": 21857591
      },
      "scriptsig": "160014a8401f5104aadc76f164bee379cc08e207f9465d",
      "scriptsig_asm": "OP_PUSHBYTES_22 0014a8401f5104aadc76f164bee379cc08e207f9465d",
      "witness": [
        "3045022100eaf118b0e8b0f40d1266e48bca678488aaac13c78e631eec7befd785f1ddb07e02204ce2ffbfa54d5a3ada411479ee90a40c50231545b3d9436bda7da625e945028901",
        "0395245381b08930c5dd881cfc5cd89d8ccca7aef16c8ee4ec147a2ec2a4f8df1f"
      ],
      "is_coinbase": false,
      "sequence": 4294967293,
      "inner_redeemscript_asm": "OP_0 OP_PUSHBYTES_20 a8401f5104aadc76f164bee379cc08e207f9465d"
    },
    {
      "txid": "f6033e4291054e6299bdd9d1d8a090b13f0f23735d7136701db52b15b193d00c",
      "vout": 0,
      "prevout": {
        "scriptpubkey": "a9143a9404ae429754454d64642ee38c9ca3f23ec28287",
        "scriptpubkey_asm": "OP_HASH160 OP_PUSHBYTES_20 3a9404ae429754454d64642ee38c9ca3f23ec282 OP_EQUAL",
        "scriptpubkey_type": "p2sh",
        "scriptpubkey_address": "372kSAGUcaM7jinL6EkrtxWTYKVGaD2Cnj",
        "value": 40000000
      },
      "scriptsig": "1600144d5201ab092c03b79f23ae30e118e01dd9c25f64",
      "scriptsig_asm": "OP_PUSHBYTES_22 00144d5201ab092c03b79f23ae30e118e01dd9c25f64",
      "witness": [
        "30440220483d9363371dae3cc276a2af1f6a97866e7757e0303cf01543e51b9b7433835c0220567291ae6eebe9f1ad04684a624c944d0e8a2aac67328b3c534a470ba9a1c36c01",
        "0398cae5603b36545e86e0f3371a5c50b48ecce0276de43cc3193480e9194863b6"
      ],
      "is_coinbase": false,
      "sequence": 4294967293,
      "inner_redeemscript_asm": "OP_0 OP_PUSHBYTES_20 4d5201ab092c03b79f23ae30e118e01dd9c25f64"
    }
  ],
  "vout": [
    {
      "scriptpubkey": "00141d5bfa3bbeb7ce4e78aa6e32828a969fd48b4d4a",
      "scriptpubkey_asm": "OP_0 OP_PUSHBYTES_20 1d5bfa3bbeb7ce4e78aa6e32828a969fd48b4d4a",
      "scriptpubkey_type": "v0_p2wpkh",
      "scriptpubkey_address": "bc1qr4dl5wa7kl8yu792dceg9z5knl2gkn220lk7a9",
      "value": 64381966
    }
  ],
  "size": 558,
  "weight": 1257,
  "fee": 4396,
  "status": {
    "confirmed": true,
    "block_height": 834460,
    "block_hash": "00000000000000000000484a79b643b2524bbce82e5d8a442013fa5b8905ed98",
    "block_time": 1710307468
  },
  "hex": "0200000000010327b75e1c3a0caef0bcc07e81b5d3e102ec95661ac634edea8c4fbbb04ebc56c40d000000171600140d3edad1d8df2140536f0add480c7125b8d0df8ffdffffff8806954c276440138cfe5089c438dbe75b346b41a457d8b8302b18d0db4515890000000017160014a8401f5104aadc76f164bee379cc08e207f9465dfdffffff0cd093b1152bb51d7036715d73230f3fb190a0d8d1d9bd99624e0591423e03f600000000171600144d5201ab092c03b79f23ae30e118e01dd9c25f64fdffffff010e64d603000000001600141d5bfa3bbeb7ce4e78aa6e32828a969fd48b4d4a02483045022100ef57dfd007d1ab88f7f791e0a243b96d3b3accd224b7f411b396327c713a11ff02200ba68a27d135b245d350d43561a8d692800a7df35727961942c4eca00f65cc6801210327724e25a58fbe7a1e5b0dc344f34e11ab4fe6ec009769ba516da6bfc2f086b502483045022100eaf118b0e8b0f40d1266e48bca678488aaac13c78e631eec7befd785f1ddb07e02204ce2ffbfa54d5a3ada411479ee90a40c50231545b3d9436bda7da625e945028901210395245381b08930c5dd881cfc5cd89d8ccca7aef16c8ee4ec147a2ec2a4f8df1f024730440220483d9363371dae3cc276a2af1f6a97866e7757e0303cf01543e51b9b7433835c0220567291ae6eebe9f1ad04684a624c944d0e8a2aac67328b3c534a470ba9a1c36c01210398cae5603b36545e86e0f3371a5c50b48ecce0276de43cc3193480e9194863b600000000"
}