{
  "txid": "8d74cdf783d64ec2801a5c9018a3687bd644ac42d5f3bc77224a47b90dd359a9",
  "version": 2,
  "locktime": 0,
  "vin": [
    {
      "txid": "006cee82da34170cdc93bd8de6fb40598b0bf3915afd84cd1f5a7563ec9f9e0b",
      "vout": 1,
      "prevout": {
        "scriptpubkey": "51204ceade159734eff1b3fb7261e148055cbc39d247d9c58091c833ecb0ae8d7df8",
        "scriptpubkey_asm": "OP_PUSHNUM_1 OP_PUSHBYTES_32 4ceade159734eff1b3fb7261e148055cbc39d247d9c58091c833ecb0ae8d7df8",
        "scriptpubkey_type": "v1_p2tr",
        "scriptpubkey_address": "bc1pfn4du9vhxnhlrvlmwfs7zjq9tj7rn5j8m8zcpywgx0ktpt5d0huqmzzgdg",
        "value": 788030
      },
      "scriptsig": "",
      "scriptsig_asm": "",
      "witness": [
        "cf59e06bb289134b00b4f6f9340cd13595ca3e95f025dae6bbcf823a13d28d8144184321ddfa49b4f9d5ba72408a38b7f904202872a78af2d144374e0e7eb705"
      ],
      "is_coinbase": false,
      "sequence": 0
    }
  ],
  "vout": [
    {
      "scriptpubkey": "5120e03013f991e279a5bb87bb4cdb119427a9bd04d214ab6903dbb32a9a76d41b59",
      "scriptpubkey_asm": "OP_PUSHNUM_1 OP_PUSHBYTES_32 e03013f991e279a5bb87bb4cdb119427a9bd04d214ab6903dbb32a9a76d41b59",
      "scriptpubkey_type": "v1_p2tr",
      "scriptpubkey_address": "bc1puqcp87v3ufu6twu8hdxdkyv5y75m6pxjzj4kjq7mkv4f5ak5rdvsm6dhs2",
      "value": 285388
    },
    {
      "scriptpubkey": "0020d43c77fce3c9b1c170d16d953517d2b18cb549e3571629f98122f2769f009f88",
      "scriptpubkey_asm": "OP_0 OP_PUSHBYTES_32 d43c77fce3c9b1c170d16d953517d2b18cb549e3571629f98122f2769f009f88",
      "scriptpubkey_type": "v0_p2wsh",
      "scriptpubkey_address": "bc1q6s780l8rexcuzux3dk2n297jkxxt2j0r2utzn7vpyte8d8cqn7yqp06ewn",
      "value": 500000
    }
  ],
  "size": 205,
  "weight": 616,
  "fee": 2642,
  "status": {
    "confirmed": true,
    "block_height": 834464,
    "block_hash": "0000000000000000000177a0869a911a2b65c9bdcd5a8bcb02b68f305bee848e",
    "block_time": 1710308296
  },
  "hex": "020000000001010b9e9fec63755a1fcd84fd5a91f30b8b5940fbe68dbd93dc0c1734da82ee6c0001000000000000000002cc5a040000000000225120e03013f991e279a5bb87bb4cdb119427a9bd04d214ab6903dbb32a9a76d41b5920a1070000000000220020d43c77fce3c9b1c170d16d953517d2b18cb549e3571629f98122f2769f009f880140cf59e06bb289134b00b4f6f9340cd13595ca3e95f025dae6bbcf823a13d28d8144184321ddfa49b4f9d5ba72408a38b7f904202872a78af2d144374e0e7eb70500000000"
}