{
  "txid": "8d767a9227b54640684c4a1fc3a43fe07b01fc73f9f77583760456507c5bc6a0",
  "version": 1,
  "locktime": 834637,
  "vin": [
    {
      "txid": "0a9bd77771a4121b17fc5af9c0d847d0ecfd827a12f33ee616c4a38ae7152f98",
      "vout": 0,
      "prevout": {
        "scriptpubkey": "a914bdaa10dfeea8bc4f53958c0d9eea75c8cf838bf487",
        "scriptpubkey_asm": "OP_HASH160 OP_PUSHBYTES_20 bdaa10dfeea8bc4f53958c0d9eea75c8cf838bf4 OP_EQUAL",
        "scriptpubkey_type": "p2sh",
        "scriptpubkey_address": "3JysNBnY8bmAJMazpQnY3Fc7EAYtCiN5aT",
        "value": 8402347
      },
      "scriptsig": "0047304402200cd41cc0376bda63f5fba884f8fbf5f38a531e21c16da8d657b76bfee9c74068022075bcecbe5478cbb88944b43af5673581b7b7203d700855682489f9b38f94ed2a01473044022052c00df7567be9209fa92c967c6e029522bc52744d1d67643e28413dd3a13520022077bab853836988d5570f07ebb5854002001e1c19335534124ed906413b66f943014c6952210377409a98623e2443f9f958b67c7d041e74a55ff71e3069be92c541c125dba8aa2103409252272897edf075eed51aa2e1da17681de161b8321a055cab16ee96a8473d2103e179b1d9d5ea6114aebcb5013fbe1396ab9e64a237b3439c63f000b2b3ac2c3753ae",
      "scriptsig_asm": "OP_0 OP_PUSHBYTES_71 304402200cd41cc0376bda63f5fba884f8fbf5f38a531e21c16da8d657b76bfee9c74068022075bcecbe5478cbb88944b43af5673581b7b7203d700855682489f9b38f94ed2a01 OP_PUSHBYTES_71 3044022052c00df7567be9209fa92c967c6e029522bc52744d1d67643e28413dd3a13520022077bab853836988d5570f07ebb5854002001e1c19335534124ed906413b66f94301 OP_PUSHDATA1 52210377409a98623e2443f9f958b67c7d041e74a55ff71e3069be92c541c125dba8aa2103409252272897edf075eed51aa2e1da17681de161b8321a055cab16ee96a8473d2103e179b1d9d5ea6114aebcb5013fbe1396ab9e64a237b3439c63f000b2b3ac2c3753ae",
      "is_coinbase": false,
      "sequence": 4294967295,
      "inner_redeemscript_asm": "OP_PUSHNUM_2 OP_PUSHBYTES_33 0377409a98623e2443f9f958b67c7d041e74a55ff71e3069be92c541c125dba8aa OP_PUSHBYTES_33 03409252272897edf075eed51aa2e1da17681de161b8321a055cab16ee96a8473d OP_PUSHBYTES_33 03e179b1d9d5ea6114aebcb5013fbe1396ab9e64a237b3439c63f000b2b3ac2c37 OP_PUSHNUM_3 OP_CHECKMULTISIG"
    }
  ],
  "vout": [
    {
      "scriptpubkey": "512071874d4a052398e360fe7c872339736f5c2762c3eff81e224d1356fb49ec7ea0",
      "scriptpubkey_asm": "OP_PUSHNUM_1 OP_PUSHBYTES_32 71874d4a052398e360fe7c872339736f5c2762c3eff81e224d1356fb49ec7ea0",
      "scriptpubkey_type": "v1_p2tr",
      "scriptpubkey_address": "bc1pwxr56js9ywvwxc870jrjxwtndawzwckralupugjdzdt0kj0v06sq6vzrl2",
      "value": 8287
    },
    {
      "scriptpubkey": "76a9140b9eb370726d00a00990c219f0575a6dd0f30e8b88ac",
      "scriptpubkey_asm": "OP_DUP OP_HASH160 OP_PUSHBYTES_20 0b9eb370726d00a00990c219f0575a6dd0f30e8b OP_EQUALVERIFY OP_CHECKSIG",
      "scriptpubkey_type": "p2pkh",
      "scriptpubkey_address": "124SYqyVVr41ZvmeNdb9AKv68eNJADR8fw",
      "value": 3315184
    },
    {
      "scriptpubkey": "0020247d951dd011119cea8887c00412aec1cb2159686c79afa05785ec255fe25379",
      "scriptpubkey_asm": "OP_0 OP_PUSHBYTES_32 247d951dd011119cea8887c00412aec1cb2159686c79afa05785ec255fe25379",
      "scriptpubkey_type": "v0_p2wsh",
      "scriptpubkey_address": "bc1qy37e28wszygee65gslqqgy4wc89jzktgd3u6lgzhshkz2hlz2dusrpsd0r",
      "value": 5068176
    }
  ],
  "size": 423,
  "weight": 1692,
  "fee": 10700,
  "status": {
    "confirmed": true,
    "block_height": 834638,
    "block_hash": "000000000000000000025f742c626208ac87e0b7d15054abb4a19ca2d735a54e",
    "block_time": 1710405325
  },
  "hex": "0100000001982f15e78aa3c416e63ef3127a82fdecd047d8c0f95afc171b12a47177d79b0a00000000fc0047304402200cd41cc0376bda63f5fba884f8fbf5f38a531e21c16da8d657b76bfee9c74068022075bcecbe5478cbb88944b43af5673581b7b7203d700855682489f9b38f94ed2a01473044022052c00df7567be9209fa92c967c6e029522bc52744d1d67643e28413dd3a13520022077bab853836988d5570f07ebb5854002001e1c19335534124ed906413b66f943014c6952210377409a98623e2443f9f958b67c7d041e74a55ff71e3069be92c541c125dba8aa2103409252272897edf075eed51aa2e1da17681de161b8321a055cab16ee96a8473d2103e179b1d9d5ea6114aebcb5013fbe1396ab9e64a237b3439c63f000b2b3ac2c3753aeffffffff035f2000000000000022512071874d4a052398e360fe7c872339736f5c2762c3eff81e224d1356fb49ec7ea0f0953200000000001976a9140b9eb370726d00a00990c219f0575a6dd0f30e8b88ac90554d0000000000220020247d951dd011119cea8887c00412aec1cb2159686c79afa05785ec255fe253794dbc0c00"
}