{
  "txid": "8d8f9ce2baec7a5db57aa559f20d80e2bcc18647d85086c7a702b5117045ee0e",
  "version": 2,
  "locktime": 0,
  "vin": [
    {
      "txid": "90967d1caa4037a036cf03ecb8cb703a22b62c149a51823d6b2359c964127bb2",
      "vout": 5,
      "prevout": {
        "scriptpubkey": "512062788e33245345425f257ce348df8f9ca70ab21597570291c398580f6b7dccb1",
        "scriptpubkey_asm": "OP_PUSHNUM_1 OP_PUSHBYTES_32 62788e33245345425f257ce348df8f9ca70ab21597570291c398580f6b7dccb1",
        "scriptpubkey_type": "v1_p2tr",
        "scriptpubkey_address": "bc1pvfuguvey2dz5yhe90n353hu0njns4vs4jats9ywrnpvq76maejcsc68dn9",
        "value": 2217000
      },
      "scriptsig": "",
      "scriptsig_asm": "",
      "witness": [
        "e0c046fdcce9ccedf01152f580fbb17e586d2c222d4305406092fb9f731672ddffcf958877d0ffaafb781369985bcc8180fd7e2d66caf90d9c8d32111f041a1a"
      ],
      "is_coinbase": false,
      "sequence": 4294967293
    }
  ],
  "vout": [
    {
      "scriptpubkey": "5120d5ef92be5520ac7df9e88b54d2bacc2ff3ec04db3c9e3ee1c9fdea2bea1f6af6",
      "scriptpubkey_asm": "OP_PUSHNUM_1 OP_PUSHBYTES_32 d5ef92be5520ac7df9e88b54d2bacc2ff3ec04db3c9e3ee1c9fdea2bea1f6af6",
      "scriptpubkey_type": "v1_p2tr",
      "scriptpubkey_address": "bc1p6hhe90j4yzk8m70g3d2d9wkv9le7cpxm8j0racwflh4zh6sldtmqv60lch",
      "value": 2826
    },
    {
      "scriptpubkey": "512062788e33245345425f257ce348df8f9ca70ab21597570291c398580f6b7dccb1",
      "scriptpubkey_asm": "OP_PUSHNUM_1 OP_PUSHBYTES_32 62788e33245345425f257ce348df8f9ca70ab21597570291c398580f6b7dccb1",
      "scriptpubkey_type": "v1_p2tr",
      "scriptpubkey_address": "bc1pvfuguvey2dz5yhe90n353hu0njns4vs4jats9ywrnpvq76maejcsc68dn9",
      "value": 2211864
    }
  ],
  "size": 205,
  "weight": 616,
  "fee": 2310,
  "status": {
    "confirmed": true,
    "block_height": 834638,
    "block_hash": "000000000000000000025f742c626208ac87e0b7d15054abb4a19ca2d735a54e",
    "block_time": 1710405325
  },
  "hex": "02000000000101b27b1264c959236b3d82519a142cb6223a70cbb8ec03cf36a03740aa1c7d96900500000000fdffffff020a0b000000000000225120d5ef92be5520ac7df9e88b54d2bacc2ff3ec04db3c9e3ee1c9fdea2bea1f6af618c021000000000022512062788e33245345425f257ce348df8f9ca70ab21597570291c398580f6b7dccb10140e0c046fdcce9ccedf01152f580fbb17e586d2c222d4305406092fb9f731672ddffcf958877d0ffaafb781369985bcc8180fd7e2d66caf90d9c8d32111f041a1a00000000"
}