{
  "txid": "8d999bfb99c62433c7e718d721e42c0ac92c2d71447e4f4d7a62d47be3a46eea",
  "version": 2,
  "locktime": 0,
  "vin": [
    {
      "txid": "acc3ba00869acb582a3f2904ce3a11dd3779350ce234063fc7d0959246213364",
      "vout": 54,
      "prevout": {
        "scriptpubkey": "51200e1e1be36b650859f3a17eb08c00616d514bc4ec1af99986e5d03e65fe30d24e",
        "scriptpubkey_asm": "OP_PUSHNUM_1 OP_PUSHBYTES_32 0e1e1be36b650859f3a17eb08c00616d514bc4ec1af99986e5d03e65fe30d24e",
        "scriptpubkey_type": "v1_p2tr",
        "scriptpubkey_address": "bc1ppc0phcmtv5y9nuap06cgcqrpd4g5h38vrtuenph96qlxtl3s6f8qw3axpl",
        "value": 1806
      },
      "scriptsig": "",
      "scriptsig_asm": "",
      "witness": [
        "ee487d22b4c806ae57a03ffc0394685cfff87a3a76dffaba0956bd9cb0a76448d0a60c7ecd99e67eb11eab78610d3d103485c197672a0af0d7d982c909eb28b5",
        "20cd446cc8510134f801aeddb3d85f895dc8bd10accd8c0267c8ae03e4a11398f7ac0063036f726401010a746578742f706c61696e00357b2270223a226272632d3230222c226f70223a226d696e74222c227469636b223a22646f6765222c22616d74223a2234323030227d68",
        "c1cd446cc8510134f801aeddb3d85f895dc8bd10accd8c0267c8ae03e4a11398f7"
      ],
      "is_coinbase": false,
      "sequence": 4261412863
    }
  ],
  "vout": [
    {
      "scriptpubkey": "00147a665de7a370f4c9b372ab1fae587500a5bcbdb4",
      "scriptpubkey_asm": "OP_0 OP_PUSHBYTES_20 7a665de7a370f4c9b372ab1fae587500a5bcbdb4",
      "scriptpubkey_type": "v0_p2wpkh",
      "scriptpubkey_address": "bc1q0fn9mearwr6vnvmj4v06ukr4qzjme0d565dzcx",
      "value": 294
    }
  ],
  "size": 294,
  "weight": 540,
  "fee": 1512,
  "status": {
    "confirmed": true,
    "block_height": 834460,
    "block_hash": "00000000000000000000484a79b643b2524bbce82e5d8a442013fa5b8905ed98",
    "block_time": 1710307468
  },
  "hex": "02000000000101643321469295d0c73f0634e20c357937dd113ace04293f2a58cb9a8600bac3ac3600000000fffffffd0126010000000000001600147a665de7a370f4c9b372ab1fae587500a5bcbdb40340ee487d22b4c806ae57a03ffc0394685cfff87a3a76dffaba0956bd9cb0a76448d0a60c7ecd99e67eb11eab78610d3d103485c197672a0af0d7d982c909eb28b56d20cd446cc8510134f801aeddb3d85f895dc8bd10accd8c0267c8ae03e4a11398f7ac0063036f726401010a746578742f706c61696e00357b2270223a226272632d3230222c226f70223a226d696e74222c227469636b223a22646f6765222c22616d74223a2234323030227d6821c1cd446cc8510134f801aeddb3d85f895dc8bd10accd8c0267c8ae03e4a11398f700000000"
}