{
  "txid": "8d9af69afd20f913bb8ff0757e7d7b7de2e46919694d64fec0b8520fa6978f24",
  "version": 2,
  "locktime": 0,
  "vin": [
    {
      "txid": "190fc6168a57c4771c15a7d272903a80e395cd0c87b288e748e52eac36b6e801",
      "vout": 1,
      "prevout": {
        "scriptpubkey": "5120b7d5fcdcc03564168d2c102f2e804e38aa188f96665b04db1e84184c57f73b0b",
        "scriptpubkey_asm": "OP_PUSHNUM_1 OP_PUSHBYTES_32 b7d5fcdcc03564168d2c102f2e804e38aa188f96665b04db1e84184c57f73b0b",
        "scriptpubkey_type": "v1_p2tr",
        "scriptpubkey_address": "bc1pkl2lehxqx4jpdrfvzqhjaqzw8z4p3rukvedsfkc7ssvyc4lh8v9sy3rqrw",
        "value": 65110
      },
      "scriptsig": "",
      "scriptsig_asm": "",
      "witness": [
        "1dad28e263e350bc3135cbf3463c592a9b7ae05d2a6bd4a408f41a0a206ea068efd707b0b55b134f6c28bcff3dd7557ab169925b0a1923460ad2742892a1b3b1"
      ],
      "is_coinbase": false,
      "sequence": 4294967295
    }
  ],
  "vout": [
    {
      "scriptpubkey": "001448dfa704897f78fdfbc2b9534055dd9b219ef5a8",
      "scriptpubkey_asm": "OP_0 OP_PUSHBYTES_20 48dfa704897f78fdfbc2b9534055dd9b219ef5a8",
      "scriptpubkey_type": "v0_p2wpkh",
      "scriptpubkey_address": "bc1qfr06wpyf0au0m77zh9f5q4wanvseaadgq9qhf9",
      "value": 12478
    },
    {
      "scriptpubkey": "5120b7d5fcdcc03564168d2c102f2e804e38aa188f96665b04db1e84184c57f73b0b",
      "scriptpubkey_asm": "OP_PUSHNUM_1 OP_PUSHBYTES_32 b7d5fcdcc03564168d2c102f2e804e38aa188f96665b04db1e84184c57f73b0b",
      "scriptpubkey_type": "v1_p2tr",
      "scriptpubkey_address": "bc1pkl2lehxqx4jpdrfvzqhjaqzw8z4p3rukvedsfkc7ssvyc4lh8v9sy3rqrw",
      "value": 50644
    }
  ],
  "size": 193,
  "weight": 568,
  "fee": 1988,
  "status": {
    "confirmed": true,
    "block_height": 834460,
    "block_hash": "00000000000000000000484a79b643b2524bbce82e5d8a442013fa5b8905ed98",
    "block_time": 1710307468
  },
  "hex": "0200000000010101e8b636ac2ee548e788b2870ccd95e3803a9072d2a7151c77c4578a16c60f190100000000ffffffff02be3000000000000016001448dfa704897f78fdfbc2b9534055dd9b219ef5a8d4c5000000000000225120b7d5fcdcc03564168d2c102f2e804e38aa188f96665b04db1e84184c57f73b0b01401dad28e263e350bc3135cbf3463c592a9b7ae05d2a6bd4a408f41a0a206ea068efd707b0b55b134f6c28bcff3dd7557ab169925b0a1923460ad2742892a1b3b100000000"
}