{
  "txid": "8db8d1a0db74f1b6688942f8fd627e8072bba21cf4848648b8e3efb238baaf86",
  "version": 1,
  "locktime": 0,
  "vin": [
    {
      "txid": "12407e96afd7379f406ba732d80f2016d48519fdb32e8defdedf99f582dc93dd",
      "vout": 0,
      "prevout": {
        "scriptpubkey": "5120fece469f7450639bbeaac049256f2794a1f4c7ca64f698646761114aff7c9d43",
        "scriptpubkey_asm": "OP_PUSHNUM_1 OP_PUSHBYTES_32 fece469f7450639bbeaac049256f2794a1f4c7ca64f698646761114aff7c9d43",
        "scriptpubkey_type": "v1_p2tr",
        "scriptpubkey_address": "bc1plm8yd8m52p3eh042cpyj2me8jjslf372vnmfser8vyg54lmun4pspemgaz",
        "value": 2889
      },
      "scriptsig": "",
      "scriptsig_asm": "",
      "witness": [
        "1219a98bf056d412dfa3208d7982930ec3fe25a56bd8f9a8bdcea8e280e27063ff9bda035f640d85e78a25113a3dd993f69051d23c05582c38f3fead98b94a4c",
        "20dfa7325ed77fab28d796d113dcead29a7490c58aaa244f71cf02d52f6b761081ac00630461746f6d03646d7437a16461726773a46474696d651a65ee53c9656e6f6e63650068626974776f726b6364313234306b6d696e745f7469636b657264766d707868",
        "c1dfa7325ed77fab28d796d113dcead29a7490c58aaa244f71cf02d52f6b761081"
      ],
      "is_coinbase": false,
      "sequence": 0
    }
  ],
  "vout": [
    {
      "scriptpubkey": "512054cc7579813b3bac013df56bd482fcbc458bde08182a10f20e7052c7ca676054",
      "scriptpubkey_asm": "OP_PUSHNUM_1 OP_PUSHBYTES_32 54cc7579813b3bac013df56bd482fcbc458bde08182a10f20e7052c7ca676054",
      "scriptpubkey_type": "v1_p2tr",
      "scriptpubkey_address": "bc1p2nx827vp8va6cqfa744afqhuh3zchhsgrq4ppuswwpfv0jn8vp2q83wdq2",
      "value": 1000
    }
  ],
  "size": 299,
  "weight": 581,
  "fee": 1889,
  "status": {
    "confirmed": true,
    "block_height": 834464,
    "block_hash": "0000000000000000000177a0869a911a2b65c9bdcd5a8bcb02b68f305bee848e",
    "block_time": 1710308296
  },
  "hex": "01000000000101dd93dc82f599dfdeef8d2eb3fd1985d416200fd832a76b409f37d7af967e401200000000000000000001e80300000000000022512054cc7579813b3bac013df56bd482fcbc458bde08182a10f20e7052c7ca67605403401219a98bf056d412dfa3208d7982930ec3fe25a56bd8f9a8bdcea8e280e27063ff9bda035f640d85e78a25113a3dd993f69051d23c05582c38f3fead98b94a4c6620dfa7325ed77fab28d796d113dcead29a7490c58aaa244f71cf02d52f6b761081ac00630461746f6d03646d7437a16461726773a46474696d651a65ee53c9656e6f6e63650068626974776f726b6364313234306b6d696e745f7469636b657264766d70786821c1dfa7325ed77fab28d796d113dcead29a7490c58aaa244f71cf02d52f6b76108100000000"
}