{
  "txid": "8db84f0ea2a6ebf26bbab4bbe685cd6bea94cb0d03af70dea5486ef8bfa40d5c",
  "version": 2,
  "locktime": 0,
  "vin": [
    {
      "txid": "ffccbe23894b98a22a4c89d6a4cc02676e090f61f1daa1f17e318a51b85068c8",
      "vout": 11,
      "prevout": {
        "scriptpubkey": "0014386c9cc10a3b5d55059a2e2a0260aecba9b9be12",
        "scriptpubkey_asm": "OP_0 OP_PUSHBYTES_20 386c9cc10a3b5d55059a2e2a0260aecba9b9be12",
        "scriptpubkey_type": "v0_p2wpkh",
        "scriptpubkey_address": "bc1q8pkfesg28dw42pv69c4qyc9wew5mn0sjrjuup6",
        "value": 1388570
      },
      "scriptsig": "",
      "scriptsig_asm": "",
      "witness": [
        "304402200cc8915e457aa0cc67a8feeb7fd4bcad3f49f8f3b9b8f854ee2cad271288f7c70220607cc37cbdd035c5638b9432e58abd6e291ea64dfd7f4ebc1218e6340fb072b801",
        "0301aa7c5a215c1c5884b1bb12a35a7a685cb226d07e535184c4cdc84d06d2f4fb"
      ],
      "is_coinbase": false,
      "sequence": 4294967293
    }
  ],
  "vout": [
    {
      "scriptpubkey": "a914df4324cae42010afe57f2834efb3b4ff7409730687",
      "scriptpubkey_asm": "OP_HASH160 OP_PUSHBYTES_20 df4324cae42010afe57f2834efb3b4ff74097306 OP_EQUAL",
      "scriptpubkey_type": "p2sh",
      "scriptpubkey_address": "3N3X3Ypc47x4zpWwMhiWqGsAVftc4UtNx6",
      "value": 1385129
    }
  ],
  "size": 192,
  "weight": 441,
  "fee": 3441,
  "status": {
    "confirmed": true,
    "block_height": 834638,
    "block_hash": "000000000000000000025f742c626208ac87e0b7d15054abb4a19ca2d735a54e",
    "block_time": 1710405325
  },
  "hex": "02000000000101c86850b8518a317ef1a1daf1610f096e6702cca4d6894c2aa2984b8923beccff0b00000000fdffffff01a92215000000000017a914df4324cae42010afe57f2834efb3b4ff74097306870247304402200cc8915e457aa0cc67a8feeb7fd4bcad3f49f8f3b9b8f854ee2cad271288f7c70220607cc37cbdd035c5638b9432e58abd6e291ea64dfd7f4ebc1218e6340fb072b801210301aa7c5a215c1c5884b1bb12a35a7a685cb226d07e535184c4cdc84d06d2f4fb00000000"
}