{
  "txid": "8dc13ba68b4259cf1498be2fa79bce99fcf62f90f3118ca375d92aae6ff894af",
  "version": 2,
  "locktime": 0,
  "vin": [
    {
      "txid": "c5096aa3054fb2b5709682d509c7e60d0f6d4ca0ca189d2cc9e3ed31ad99ce62",
      "vout": 0,
      "prevout": {
        "scriptpubkey": "0014354b7ff58f6e254a2dbb80fbf24fb9849206a8e3",
        "scriptpubkey_asm": "OP_0 OP_PUSHBYTES_20 354b7ff58f6e254a2dbb80fbf24fb9849206a8e3",
        "scriptpubkey_type": "v0_p2wpkh",
        "scriptpubkey_address": "bc1qx49hlav0dcj55tdmsralynaesjfqd28r4ljtpx",
        "value": 100000000
      },
      "scriptsig": "",
      "scriptsig_asm": "",
      "witness": [
        "304402205b8ff41acf692b2300f5b34b158b5b8b3344bf2efa27d341842944df32bf3e8102201d985dd6b843e18e11fe9d23fc25de77374f6b648aefc0317fede611dc7f4f6b01",
        "0389530eea0a4a5bbee191764304b961a3dd23bb54e73a615e820d1ac06fc8a82e"
      ],
      "is_coinbase": false,
      "sequence": 4294967295
    }
  ],
  "vout": [
    {
      "scriptpubkey": "0014e29a03b8ff61d91ffbe35628b61a24fad8a50e33",
      "scriptpubkey_asm": "OP_0 OP_PUSHBYTES_20 e29a03b8ff61d91ffbe35628b61a24fad8a50e33",
      "scriptpubkey_type": "v0_p2wpkh",
      "scriptpubkey_address": "bc1qu2dq8w8lv8v3l7lr2c5tvx3yltv22r3nhkx7w0",
      "value": 99996420
    }
  ],
  "size": 191,
  "weight": 437,
  "fee": 3580,
  "status": {
    "confirmed": true,
    "block_height": 834638,
    "block_hash": "000000000000000000025f742c626208ac87e0b7d15054abb4a19ca2d735a54e",
    "block_time": 1710405325
  },
  "hex": "0200000000010162ce99ad31ede3c92c9d18caa04c6d0f0de6c709d5829670b5b24f05a36a09c50000000000ffffffff0104d3f50500000000160014e29a03b8ff61d91ffbe35628b61a24fad8a50e330247304402205b8ff41acf692b2300f5b34b158b5b8b3344bf2efa27d341842944df32bf3e8102201d985dd6b843e18e11fe9d23fc25de77374f6b648aefc0317fede611dc7f4f6b01210389530eea0a4a5bbee191764304b961a3dd23bb54e73a615e820d1ac06fc8a82e00000000"
}