{
  "txid": "8dc88fdc368379de71e4043ec066ceaccc9a4b646a4af2cb05353814887336d0",
  "version": 1,
  "locktime": 0,
  "vin": [
    {
      "txid": "88888886ef1da7b7abd6c607bb0171115e7395d86fe5b2c55effdf4c0d63df2e",
      "vout": 0,
      "prevout": {
        "scriptpubkey": "512019c51d089a890fd2ce7b2456f0d7cd21dad018200676cbfa9b31f59b4b093dd3",
        "scriptpubkey_asm": "OP_PUSHNUM_1 OP_PUSHBYTES_32 19c51d089a890fd2ce7b2456f0d7cd21dad018200676cbfa9b31f59b4b093dd3",
        "scriptpubkey_type": "v1_p2tr",
        "scriptpubkey_address": "bc1pr8z36zy63y8a9nnmy3t0p47dy8ddqxpqqemvh75mx86ekjcf8hfsmggsud",
        "value": 11704
      },
      "scriptsig": "",
      "scriptsig_asm": "",
      "witness": [
        "7e947297dd6984ef1d2348501648ecd1e3b367d383ba2ac1e121d1408840d0846cbfbad4aa8fc0b2e8b3c9ce5c01ee80c3c3ff535bf9799c66879d0f02d092f8",
        "20c939a6c99941b6d3b54ce120ec99b1597a9557352a600150e097bc361ea60299ac00630461746f6d03646d7442a16461726773a46474696d651a65dc0bc4656e6f6e6365190e9668626974776f726b6369383838383838382e316b6d696e745f7469636b657268696e66696e69747968",
        "c0c939a6c99941b6d3b54ce120ec99b1597a9557352a600150e097bc361ea60299"
      ],
      "is_coinbase": false,
      "sequence": 1
    }
  ],
  "vout": [
    {
      "scriptpubkey": "5120b510c4cbbd9adad0840a5f50b2fbc7bb1d8231996d5f115e52bb89456507f42a",
      "scriptpubkey_asm": "OP_PUSHNUM_1 OP_PUSHBYTES_32 b510c4cbbd9adad0840a5f50b2fbc7bb1d8231996d5f115e52bb89456507f42a",
      "scriptpubkey_type": "v1_p2tr",
      "scriptpubkey_address": "bc1pk5gvfjaantddppq2tagt9778hvwcyvved403zhjjhwy52eg87s4qdwylgf",
      "value": 9999
    }
  ],
  "size": 310,
  "weight": 592,
  "fee": 1705,
  "status": {
    "confirmed": true,
    "block_height": 834464,
    "block_hash": "0000000000000000000177a0869a911a2b65c9bdcd5a8bcb02b68f305bee848e",
    "block_time": 1710308296
  },
  "hex": "010000000001012edf630d4cdfff5ec5b2e56fd895735e117101bb07c6d6abb7a71def86888888000000000001000000010f27000000000000225120b510c4cbbd9adad0840a5f50b2fbc7bb1d8231996d5f115e52bb89456507f42a03407e947297dd6984ef1d2348501648ecd1e3b367d383ba2ac1e121d1408840d0846cbfbad4aa8fc0b2e8b3c9ce5c01ee80c3c3ff535bf9799c66879d0f02d092f87120c939a6c99941b6d3b54ce120ec99b1597a9557352a600150e097bc361ea60299ac00630461746f6d03646d7442a16461726773a46474696d651a65dc0bc4656e6f6e6365190e9668626974776f726b6369383838383838382e316b6d696e745f7469636b657268696e66696e6974796821c0c939a6c99941b6d3b54ce120ec99b1597a9557352a600150e097bc361ea6029900000000"
}