{
  "txid": "8dcab0e8e4f37eca49f2468f75b6a5fbc1345de51df17079cb804f41d232690d",
  "version": 2,
  "locktime": 0,
  "vin": [
    {
      "txid": "01ccd0a625d44b8b9eebc53c6ed6b209734074f856afb2ab6e237fbe2af0c932",
      "vout": 0,
      "prevout": {
        "scriptpubkey": "a9149cecd8e3d0544551ef5ecde0193847a30709454087",
        "scriptpubkey_asm": "OP_HASH160 OP_PUSHBYTES_20 9cecd8e3d0544551ef5ecde0193847a307094540 OP_EQUAL",
        "scriptpubkey_type": "p2sh",
        "scriptpubkey_address": "3Fzm4uLCB64m9aCsckV4jbDpsMBP7mR5d9",
        "value": 2000000
      },
      "scriptsig": "1600148d08094429a06184135d810a3fef6d62e1566c27",
      "scriptsig_asm": "OP_PUSHBYTES_22 00148d08094429a06184135d810a3fef6d62e1566c27",
      "witness": [
        "304402200130f8f3a9f1e23c14b8a62be2b50e87e2a948af62681eea5282b074b6c9cce902204b15b9bb18373d46e964c12806c510ab329c3f5f1037688e0300d5550859c36a01",
        "03a71e47f991dd65a774f4f4d12c685f9824843f356bd80d089f2ffbc8549037f6"
      ],
      "is_coinbase": false,
      "sequence": 4294967293,
      "inner_redeemscript_asm": "OP_0 OP_PUSHBYTES_20 8d08094429a06184135d810a3fef6d62e1566c27"
    }
  ],
  "vout": [
    {
      "scriptpubkey": "a9141ccc6bb271e45644a4674de511d22f276d3ccbbe87",
      "scriptpubkey_asm": "OP_HASH160 OP_PUSHBYTES_20 1ccc6bb271e45644a4674de511d22f276d3ccbbe OP_EQUAL",
      "scriptpubkey_type": "p2sh",
      "scriptpubkey_address": "34KHjK9QaAiZBhD1mgrSFj9mYd4wf7ziWV",
      "value": 1061577
    },
    {
      "scriptpubkey": "a91490753ada3374fbc3c8c3367ebc69d5cff22e4afb87",
      "scriptpubkey_asm": "OP_HASH160 OP_PUSHBYTES_20 90753ada3374fbc3c8c3367ebc69d5cff22e4afb OP_EQUAL",
      "scriptpubkey_type": "p2sh",
      "scriptpubkey_address": "3ErqfSebFMnmFkPKcCUpsr4wa3P4GQbE5o",
      "value": 10722
    },
    {
      "scriptpubkey": "a9149cecd8e3d0544551ef5ecde0193847a30709454087",
      "scriptpubkey_asm": "OP_HASH160 OP_PUSHBYTES_20 9cecd8e3d0544551ef5ecde0193847a307094540 OP_EQUAL",
      "scriptpubkey_type": "p2sh",
      "scriptpubkey_address": "3Fzm4uLCB64m9aCsckV4jbDpsMBP7mR5d9",
      "value": 924304
    }
  ],
  "size": 279,
  "weight": 789,
  "fee": 3397,
  "status": {
    "confirmed": true,
    "block_height": 834638,
    "block_hash": "000000000000000000025f742c626208ac87e0b7d15054abb4a19ca2d735a54e",
    "block_time": 1710405325
  },
  "hex": "0200000000010132c9f02abe7f236eabb2af56f874407309b2d66e3cc5eb9e8b4bd425a6d0cc0100000000171600148d08094429a06184135d810a3fef6d62e1566c27fdffffff03c93210000000000017a9141ccc6bb271e45644a4674de511d22f276d3ccbbe87e22900000000000017a91490753ada3374fbc3c8c3367ebc69d5cff22e4afb87901a0e000000000017a9149cecd8e3d0544551ef5ecde0193847a307094540870247304402200130f8f3a9f1e23c14b8a62be2b50e87e2a948af62681eea5282b074b6c9cce902204b15b9bb18373d46e964c12806c510ab329c3f5f1037688e0300d5550859c36a012103a71e47f991dd65a774f4f4d12c685f9824843f356bd80d089f2ffbc8549037f600000000"
}