{
  "txid": "8de3a0296dfd7dc41476adfc06e4bdf447227e5dd0d4e9317e32bf2231b900eb",
  "version": 2,
  "locktime": 833571,
  "vin": [
    {
      "txid": "53d66fe8d44411c0bf16fbfc5add0032ba97461b30855a0699260fd14b029ed8",
      "vout": 0,
      "prevout": {
        "scriptpubkey": "001411eff967d1f543551d840d448ffe1bbcd942eb4a",
        "scriptpubkey_asm": "OP_0 OP_PUSHBYTES_20 11eff967d1f543551d840d448ffe1bbcd942eb4a",
        "scriptpubkey_type": "v0_p2wpkh",
        "scriptpubkey_address": "bc1qz8hlje7374p428vyp4zgllsmhnv596628f4tpd",
        "value": 4300
      },
      "scriptsig": "",
      "scriptsig_asm": "",
      "witness": [
        "304402205db85c4a692b352cb8e71a21d7286c8e31b72e8ac92907e401274418aada378602206139fb2ea17369d3d6afff7e6dbbc737f3282f6418d553eb20a8bd735f21d27b01",
        "02c981766a2b46028272389b335432840ee4676df5788f73db84d3c1f086394e82"
      ],
      "is_coinbase": false,
      "sequence": 4294967293
    }
  ],
  "vout": [
    {
      "scriptpubkey": "00147ad2eb0e87f61682003f4096699f5f5098f4c6a5",
      "scriptpubkey_asm": "OP_0 OP_PUSHBYTES_20 7ad2eb0e87f61682003f4096699f5f5098f4c6a5",
      "scriptpubkey_type": "v0_p2wpkh",
      "scriptpubkey_address": "bc1q0tfwkr587ctgyqplgztxn86l2zv0f349mqar5s",
      "value": 1090
    },
    {
      "scriptpubkey": "76a9140645b88f0c44f0e0453c28f8d233e5e53565266988ac",
      "scriptpubkey_asm": "OP_DUP OP_HASH160 OP_PUSHBYTES_20 0645b88f0c44f0e0453c28f8d233e5e535652669 OP_EQUALVERIFY OP_CHECKSIG",
      "scriptpubkey_type": "p2pkh",
      "scriptpubkey_address": "1aAaStQV49KfBBYk6gL3ZBi4SHKR11vmD",
      "value": 1626
    }
  ],
  "size": 225,
  "weight": 573,
  "fee": 1584,
  "status": {
    "confirmed": true,
    "block_height": 834464,
    "block_hash": "0000000000000000000177a0869a911a2b65c9bdcd5a8bcb02b68f305bee848e",
    "block_time": 1710308296
  },
  "hex": "02000000000101d89e024bd10f2699065a85301b4697ba3200dd5afcfb16bfc01144d4e86fd6530000000000fdffffff0242040000000000001600147ad2eb0e87f61682003f4096699f5f5098f4c6a55a060000000000001976a9140645b88f0c44f0e0453c28f8d233e5e53565266988ac0247304402205db85c4a692b352cb8e71a21d7286c8e31b72e8ac92907e401274418aada378602206139fb2ea17369d3d6afff7e6dbbc737f3282f6418d553eb20a8bd735f21d27b012102c981766a2b46028272389b335432840ee4676df5788f73db84d3c1f086394e8223b80c00"
}