{
  "txid": "8deefe00c6109d149f44e14ec9bf524d0f56e39e7555f486dbffb711962f5a88",
  "version": 2,
  "locktime": 0,
  "vin": [
    {
      "txid": "e054c137725b7a5d163dade8f5cd68c0927a2e8b00d920927dab9a7ba934ce5f",
      "vout": 10,
      "prevout": {
        "scriptpubkey": "5120d61f1ebcf1c55414620820b7809c2c576f1c1a9e5e7c03fccda2d8fe1c6f97a7",
        "scriptpubkey_asm": "OP_PUSHNUM_1 OP_PUSHBYTES_32 d61f1ebcf1c55414620820b7809c2c576f1c1a9e5e7c03fccda2d8fe1c6f97a7",
        "scriptpubkey_type": "v1_p2tr",
        "scriptpubkey_address": "bc1p6c03a083c42pgcsgyzmcp8pv2ah3cx57te7q8lxd5tv0u8r0j7nsufm9h3",
        "value": 2658
      },
      "scriptsig": "",
      "scriptsig_asm": "",
      "witness": [
        "f25fd6a940f1a7f0c9d38f93d147a8d5d51ce6f42bc5cfde0378559e1ec1075c4911400c5b911e52742945136b4510fa537f4fe420493fe8ecd41936824d25b4",
        "204dec1760f40ddf5becbfbce96a1780c0b86ab6f56508b6616538aced5e50cbfeac0063036f726401011e6170706c69636174696f6e2f6a736f6e3b636861727365743d7574662d38004cbf7b2270223a22706f772d3230222c226f70223a226d696e74222c227469636b223a2250455045222c22616d74223a2231303030222c22736f6c7574696f6e223a22504550453a6263317139736a36303977756e7468646a636d7a746a796379766475616e653071716b78726e773932653a303030303030303030303030303030303030303139393431613561653132383937363539383134343239323533333030353762306461393666336465613163353a3531303732353235363230227d68",
        "c1a0e509a599b6542378e5ac7959d344a1bebc95ec9899fd4ccf1904beefe3f047"
      ],
      "is_coinbase": false,
      "sequence": 4294967295
    }
  ],
  "vout": [
    {
      "scriptpubkey": "00142c25a795dc9aeed963625c898231bcecf2f002c6",
      "scriptpubkey_asm": "OP_0 OP_PUSHBYTES_20 2c25a795dc9aeed963625c898231bcecf2f002c6",
      "scriptpubkey_type": "v0_p2wpkh",
      "scriptpubkey_address": "bc1q9sj609wunthdjcmztjycyvduane0qqkxrnw92e",
      "value": 546
    }
  ],
  "size": 455,
  "weight": 701,
  "fee": 2112,
  "status": {
    "confirmed": true,
    "block_height": 834460,
    "block_hash": "00000000000000000000484a79b643b2524bbce82e5d8a442013fa5b8905ed98",
    "block_time": 1710307468
  },
  "hex": "020000000001015fce34a97b9aab7d9220d9008b2e7a92c068cdf5e8ad3d165d7a5b7237c154e00a00000000ffffffff0122020000000000001600142c25a795dc9aeed963625c898231bcecf2f002c60340f25fd6a940f1a7f0c9d38f93d147a8d5d51ce6f42bc5cfde0378559e1ec1075c4911400c5b911e52742945136b4510fa537f4fe420493fe8ecd41936824d25b4fd0c01204dec1760f40ddf5becbfbce96a1780c0b86ab6f56508b6616538aced5e50cbfeac0063036f726401011e6170706c69636174696f6e2f6a736f6e3b636861727365743d7574662d38004cbf7b2270223a22706f772d3230222c226f70223a226d696e74222c227469636b223a2250455045222c22616d74223a2231303030222c22736f6c7574696f6e223a22504550453a6263317139736a36303977756e7468646a636d7a746a796379766475616e653071716b78726e773932653a303030303030303030303030303030303030303139393431613561653132383937363539383134343239323533333030353762306461393666336465613163353a3531303732353235363230227d6821c1a0e509a599b6542378e5ac7959d344a1bebc95ec9899fd4ccf1904beefe3f04700000000"
}