{
  "txid": "8e3a97745b758681bfb940dba95d63a759cb63d10c55ffdb98843ac014fbc260",
  "version": 2,
  "locktime": 0,
  "vin": [
    {
      "txid": "55170373e08f3a7c67b9a40682bf6cd8f666dbb4d419d73d2f772463efec4798",
      "vout": 1,
      "prevout": {
        "scriptpubkey": "0014d0772fea03f387c56ebb4ec3dff3cc26be733dcd",
        "scriptpubkey_asm": "OP_0 OP_PUSHBYTES_20 d0772fea03f387c56ebb4ec3dff3cc26be733dcd",
        "scriptpubkey_type": "v0_p2wpkh",
        "scriptpubkey_address": "bc1q6pmjl6sr7wru2m4mfmpalu7vy6l8x0wdgxnphp",
        "value": 246303
      },
      "scriptsig": "",
      "scriptsig_asm": "",
      "witness": [
        "30450221009a73558c4859dbc1a9f893e81ae86b6f8286cc85abb36ee4739182a44699c2c702203a665f5ba34cc644a39be296f3cd3df79e56a3582455b8ffdb160a531c4b7ba301",
        "03deb9e30cc8aec0e670e6eaaa9f8154fe4378e4a797ab10f51b2be67a33d414ff"
      ],
      "is_coinbase": false,
      "sequence": 4294967295
    }
  ],
  "vout": [
    {
      "scriptpubkey": "0014e43dc2d669cf81687b7b0a0631e5f68b9981c676",
      "scriptpubkey_asm": "OP_0 OP_PUSHBYTES_20 e43dc2d669cf81687b7b0a0631e5f68b9981c676",
      "scriptpubkey_type": "v0_p2wpkh",
      "scriptpubkey_address": "bc1qus7u94nfe7qks7mmpgrrre0k3wvcr3nk6zufg4",
      "value": 69248
    },
    {
      "scriptpubkey": "00148a069db7b1f455fbcbacac4e059992cdddb182f8",
      "scriptpubkey_asm": "OP_0 OP_PUSHBYTES_20 8a069db7b1f455fbcbacac4e059992cdddb182f8",
      "scriptpubkey_type": "v0_p2wpkh",
      "scriptpubkey_address": "bc1q3grfmda3732lhjav438qtxvjehwmrqhcyv33eq",
      "value": 175532
    }
  ],
  "size": 223,
  "weight": 562,
  "fee": 1523,
  "status": {
    "confirmed": true,
    "block_height": 834464,
    "block_hash": "0000000000000000000177a0869a911a2b65c9bdcd5a8bcb02b68f305bee848e",
    "block_time": 1710308296
  },
  "hex": "020000000001019847ecef6324772f3dd719d4b4db66f6d86cbf8206a4b9677c3a8fe0730317550100000000ffffffff02800e010000000000160014e43dc2d669cf81687b7b0a0631e5f68b9981c676acad0200000000001600148a069db7b1f455fbcbacac4e059992cdddb182f8024830450221009a73558c4859dbc1a9f893e81ae86b6f8286cc85abb36ee4739182a44699c2c702203a665f5ba34cc644a39be296f3cd3df79e56a3582455b8ffdb160a531c4b7ba3012103deb9e30cc8aec0e670e6eaaa9f8154fe4378e4a797ab10f51b2be67a33d414ff00000000"
}