{
  "txid": "8e47ad27abffcfaf9e0802fd405467d3a4e53569b78a3461dd04f7da964ee0b7",
  "version": 2,
  "locktime": 0,
  "vin": [
    {
      "txid": "2cff0c2f6f3b95dd33388be72b1488a1fea1821fdd0b5f94d416bcb6fbdd5b79",
      "vout": 4,
      "prevout": {
        "scriptpubkey": "0014b7c97e794134e223320361ddbd5ff4b7f8bc888e",
        "scriptpubkey_asm": "OP_0 OP_PUSHBYTES_20 b7c97e794134e223320361ddbd5ff4b7f8bc888e",
        "scriptpubkey_type": "v0_p2wpkh",
        "scriptpubkey_address": "bc1qklyhu72pxn3zxvsrv8wm6hl5klutezywcujmma",
        "value": 1597492
      },
      "scriptsig": "",
      "scriptsig_asm": "",
      "witness": [
        "304402207c452f1edd071600d13c552bf32f7ab5e36ab729afc11807d7000ad7ee56050402202076dc6ebe05c585e9f676f0c13f1cd86bccdf689e56770d5319a765f99e1a5d01",
        "02b33ab0a64462696e39065c18c6fcfc15f3c08b4b8f16d16d181846652bcaa0d2"
      ],
      "is_coinbase": false,
      "sequence": 4294967295
    }
  ],
  "vout": [
    {
      "scriptpubkey": "0014b7c97e794134e223320361ddbd5ff4b7f8bc888e",
      "scriptpubkey_asm": "OP_0 OP_PUSHBYTES_20 b7c97e794134e223320361ddbd5ff4b7f8bc888e",
      "scriptpubkey_type": "v0_p2wpkh",
      "scriptpubkey_address": "bc1qklyhu72pxn3zxvsrv8wm6hl5klutezywcujmma",
      "value": 808
    },
    {
      "scriptpubkey": "512102dda621ea5aa78172619f4c1c27d91c1875e7e3dc683cce9fc987d28bda0c44cc21026d57cc06521d7c6d2fdb19a1a5170342357a07e171723aaf2ed6cb49a421e41f2102020202020202020202020202020202020202020202020202020202020202020253ae",
      "scriptpubkey_asm": "OP_PUSHNUM_1 OP_PUSHBYTES_33 02dda621ea5aa78172619f4c1c27d91c1875e7e3dc683cce9fc987d28bda0c44cc OP_PUSHBYTES_33 026d57cc06521d7c6d2fdb19a1a5170342357a07e171723aaf2ed6cb49a421e41f OP_PUSHBYTES_33 020202020202020202020202020202020202020202020202020202020202020202 OP_PUSHNUM_3 OP_CHECKMULTISIG",
      "scriptpubkey_type": "unknown",
      "value": 809
    },
    {
      "scriptpubkey": "51210214d993987432d8fad1f59505c19ba28ff551fa7574eb70205e666f83d7b7d26221034e52bf99f9df534cedd337581546349316c5a5bfa0b56d6a5ac336090f750e3b2102020202020202020202020202020202020202020202020202020202020202020253ae",
      "scriptpubkey_asm": "OP_PUSHNUM_1 OP_PUSHBYTES_33 0214d993987432d8fad1f59505c19ba28ff551fa7574eb70205e666f83d7b7d262 OP_PUSHBYTES_33 034e52bf99f9df534cedd337581546349316c5a5bfa0b56d6a5ac336090f750e3b OP_PUSHBYTES_33 020202020202020202020202020202020202020202020202020202020202020202 OP_PUSHNUM_3 OP_CHECKMULTISIG",
      "scriptpubkey_type": "unknown",
      "value": 809
    },
    {
      "scriptpubkey": "001420123e4942db45c3c5971b141304c3ff6f5c06c7",
      "scriptpubkey_asm": "OP_0 OP_PUSHBYTES_20 20123e4942db45c3c5971b141304c3ff6f5c06c7",
      "scriptpubkey_type": "v0_p2wpkh",
      "scriptpubkey_address": "bc1qyqfruj2zmdzu83vhrv2pxpxrlah4cpk88c9zvd",
      "value": 12000
    },
    {
      "scriptpubkey": "0014b7c97e794134e223320361ddbd5ff4b7f8bc888e",
      "scriptpubkey_asm": "OP_0 OP_PUSHBYTES_20 b7c97e794134e223320361ddbd5ff4b7f8bc888e",
      "scriptpubkey_type": "v0_p2wpkh",
      "scriptpubkey_address": "bc1qklyhu72pxn3zxvsrv8wm6hl5klutezywcujmma",
      "value": 1572778
    }
  ],
  "size": 481,
  "weight": 1597,
  "fee": 10288,
  "status": {
    "confirmed": true,
    "block_height": 834638,
    "block_hash": "000000000000000000025f742c626208ac87e0b7d15054abb4a19ca2d735a54e",
    "block_time": 1710405325
  },
  "hex": "02000000000101795bddfbb6bc16d4945f0bdd1f82a1fea188142be78b3833dd953b6f2f0cff2c0400000000ffffffff052803000000000000160014b7c97e794134e223320361ddbd5ff4b7f8bc888e290300000000000069512102dda621ea5aa78172619f4c1c27d91c1875e7e3dc683cce9fc987d28bda0c44cc21026d57cc06521d7c6d2fdb19a1a5170342357a07e171723aaf2ed6cb49a421e41f2102020202020202020202020202020202020202020202020202020202020202020253ae29030000000000006951210214d993987432d8fad1f59505c19ba28ff551fa7574eb70205e666f83d7b7d26221034e52bf99f9df534cedd337581546349316c5a5bfa0b56d6a5ac336090f750e3b2102020202020202020202020202020202020202020202020202020202020202020253aee02e00000000000016001420123e4942db45c3c5971b141304c3ff6f5c06c7aaff170000000000160014b7c97e794134e223320361ddbd5ff4b7f8bc888e0247304402207c452f1edd071600d13c552bf32f7ab5e36ab729afc11807d7000ad7ee56050402202076dc6ebe05c585e9f676f0c13f1cd86bccdf689e56770d5319a765f99e1a5d012102b33ab0a64462696e39065c18c6fcfc15f3c08b4b8f16d16d181846652bcaa0d200000000"
}