{
  "txid": "8e5185048cb94ffb141ff86ab57550092d0d9e9ea007786ce95df1b75520c428",
  "version": 1,
  "locktime": 0,
  "vin": [
    {
      "txid": "bf62bb7fa6c8d5b477a7320da54771b98316f7742a562aae59a8e7e4c414ac2e",
      "vout": 1,
      "prevout": {
        "scriptpubkey": "76a914e4972c8157e65cb0a09a3e69876e7080f183d5be88ac",
        "scriptpubkey_asm": "OP_DUP OP_HASH160 OP_PUSHBYTES_20 e4972c8157e65cb0a09a3e69876e7080f183d5be OP_EQUALVERIFY OP_CHECKSIG",
        "scriptpubkey_type": "p2pkh",
        "scriptpubkey_address": "1MqgAUsLcDvgUBXnhRQA72No3jdo6S9zWr",
        "value": 832680
      },
      "scriptsig": "4730440220256db9349c1f80806fdeb6e59a49b0b1d6fa1262d945ac897f35fabe6a24e62602200fcf4fae81eaa497d6899da5d8e12b7dedd1960b9c8365f90e7a4bb54252c4b20121026cedd450da5d8f3a5e2bb4df0de2d41df8351067a055aa1c911ea84db963eaf8",
      "scriptsig_asm": "OP_PUSHBYTES_71 30440220256db9349c1f80806fdeb6e59a49b0b1d6fa1262d945ac897f35fabe6a24e62602200fcf4fae81eaa497d6899da5d8e12b7dedd1960b9c8365f90e7a4bb54252c4b201 OP_PUSHBYTES_33 026cedd450da5d8f3a5e2bb4df0de2d41df8351067a055aa1c911ea84db963eaf8",
      "is_coinbase": false,
      "sequence": 4294967295
    }
  ],
  "vout": [
    {
      "scriptpubkey": "6a36a2825c6379100132034bae0a27d09eb962ff64ba5bcb393b4f38bccce097b6fec9030631bbce25267c8b9a43f6d73683b919ad2498ba",
      "scriptpubkey_asm": "OP_RETURN OP_PUSHBYTES_54 a2825c6379100132034bae0a27d09eb962ff64ba5bcb393b4f38bccce097b6fec9030631bbce25267c8b9a43f6d73683b919ad2498ba",
      "scriptpubkey_type": "op_return",
      "value": 0
    },
    {
      "scriptpubkey": "76a914e4972c8157e65cb0a09a3e69876e7080f183d5be88ac",
      "scriptpubkey_asm": "OP_DUP OP_HASH160 OP_PUSHBYTES_20 e4972c8157e65cb0a09a3e69876e7080f183d5be OP_EQUALVERIFY OP_CHECKSIG",
      "scriptpubkey_type": "p2pkh",
      "scriptpubkey_address": "1MqgAUsLcDvgUBXnhRQA72No3jdo6S9zWr",
      "value": 828192
    }
  ],
  "size": 256,
  "weight": 1024,
  "fee": 4488,
  "status": {
    "confirmed": true,
    "block_height": 834552,
    "block_hash": "00000000000000000001dd0468a70c94f619251d286585cff57aeb4bd9ede330",
    "block_time": 1710355598
  },
  "hex": "01000000012eac14c4e4e7a859ae2a562a74f71683b97147a50d32a777b4d5c8a67fbb62bf010000006a4730440220256db9349c1f80806fdeb6e59a49b0b1d6fa1262d945ac897f35fabe6a24e62602200fcf4fae81eaa497d6899da5d8e12b7dedd1960b9c8365f90e7a4bb54252c4b20121026cedd450da5d8f3a5e2bb4df0de2d41df8351067a055aa1c911ea84db963eaf8ffffffff020000000000000000386a36a2825c6379100132034bae0a27d09eb962ff64ba5bcb393b4f38bccce097b6fec9030631bbce25267c8b9a43f6d73683b919ad2498ba20a30c00000000001976a914e4972c8157e65cb0a09a3e69876e7080f183d5be88ac00000000"
}