{
  "txid": "8e5df9232a48547127ca916e61f23bb6433803ec0fc95f78869cf13f8f816c65",
  "version": 2,
  "locktime": 0,
  "vin": [
    {
      "txid": "acc3ba00869acb582a3f2904ce3a11dd3779350ce234063fc7d0959246213364",
      "vout": 186,
      "prevout": {
        "scriptpubkey": "51208f0f12fdbb71f47c4677cb98d934b95b015b7bcdcd192bdfca3df577b8f69dbe",
        "scriptpubkey_asm": "OP_PUSHNUM_1 OP_PUSHBYTES_32 8f0f12fdbb71f47c4677cb98d934b95b015b7bcdcd192bdfca3df577b8f69dbe",
        "scriptpubkey_type": "v1_p2tr",
        "scriptpubkey_address": "bc1p3u839ldmw868c3nhewvdjd9etvq4k77de5vjhh728h6h0w8knklqw92gc4",
        "value": 1806
      },
      "scriptsig": "",
      "scriptsig_asm": "",
      "witness": [
        "6cb77984f3eba415aa5da0f57962558f0f1bff60c415165b1dbb1a7e3dfdf145d52f8aa44efd2491caee94c875f33866b6a3a48755cb549f25467c07ce2d3877",
        "207d694344ae4edac0c43d43b3ca802a2f92b26e68ac1c28dd9d438753440e4ebcac0063036f726401010a746578742f706c61696e00357b2270223a226272632d3230222c226f70223a226d696e74222c227469636b223a22646f6765222c22616d74223a2234323030227d68",
        "c07d694344ae4edac0c43d43b3ca802a2f92b26e68ac1c28dd9d438753440e4ebc"
      ],
      "is_coinbase": false,
      "sequence": 4261412863
    }
  ],
  "vout": [
    {
      "scriptpubkey": "00147a665de7a370f4c9b372ab1fae587500a5bcbdb4",
      "scriptpubkey_asm": "OP_0 OP_PUSHBYTES_20 7a665de7a370f4c9b372ab1fae587500a5bcbdb4",
      "scriptpubkey_type": "v0_p2wpkh",
      "scriptpubkey_address": "bc1q0fn9mearwr6vnvmj4v06ukr4qzjme0d565dzcx",
      "value": 294
    }
  ],
  "size": 294,
  "weight": 540,
  "fee": 1512,
  "status": {
    "confirmed": true,
    "block_height": 834460,
    "block_hash": "00000000000000000000484a79b643b2524bbce82e5d8a442013fa5b8905ed98",
    "block_time": 1710307468
  },
  "hex": "02000000000101643321469295d0c73f0634e20c357937dd113ace04293f2a58cb9a8600bac3acba00000000fffffffd0126010000000000001600147a665de7a370f4c9b372ab1fae587500a5bcbdb403406cb77984f3eba415aa5da0f57962558f0f1bff60c415165b1dbb1a7e3dfdf145d52f8aa44efd2491caee94c875f33866b6a3a48755cb549f25467c07ce2d38776d207d694344ae4edac0c43d43b3ca802a2f92b26e68ac1c28dd9d438753440e4ebcac0063036f726401010a746578742f706c61696e00357b2270223a226272632d3230222c226f70223a226d696e74222c227469636b223a22646f6765222c22616d74223a2234323030227d6821c07d694344ae4edac0c43d43b3ca802a2f92b26e68ac1c28dd9d438753440e4ebc00000000"
}