{
  "txid": "8e5d2c73f16db3465998dd683d089d8e2aa810781e71d4973e84bc5eb6f0402d",
  "version": 2,
  "locktime": 834637,
  "vin": [
    {
      "txid": "eb79684817a71f066e5f69f5e53d1d14f806acf9746668e8826c32ba4491b9bc",
      "vout": 1,
      "prevout": {
        "scriptpubkey": "00149d9a30dadc11eb04b6c74e0debc998a88edfca91",
        "scriptpubkey_asm": "OP_0 OP_PUSHBYTES_20 9d9a30dadc11eb04b6c74e0debc998a88edfca91",
        "scriptpubkey_type": "v0_p2wpkh",
        "scriptpubkey_address": "bc1qnkdrpkkuz84sfdk8fcx7hjvc4z8dlj53pved63",
        "value": 573569
      },
      "scriptsig": "",
      "scriptsig_asm": "",
      "witness": [
        "3044022049ea862021e107a033b1277f56f7556e16a49f04b1491b45079f7b54d0ef27c802204c6b54e32f9a87c9d90df62c381295ebb2a4992f180600a32fd0382075b218db01",
        "03b01f4d22303604a4c13d45c0fa3d662ab387452009681946a9a1e3358f1ba4d2"
      ],
      "is_coinbase": false,
      "sequence": 4294967293
    }
  ],
  "vout": [
    {
      "scriptpubkey": "001433f36cf4419e72682409934e96ff9e78ca996177",
      "scriptpubkey_asm": "OP_0 OP_PUSHBYTES_20 33f36cf4419e72682409934e96ff9e78ca996177",
      "scriptpubkey_type": "v0_p2wpkh",
      "scriptpubkey_address": "bc1qx0ekeazpneexsfqfjd8fdlu70r9fjcthvtk869",
      "value": 230957
    },
    {
      "scriptpubkey": "0014bbcdc6abc8bb376333eab9f6892a654cad43732a",
      "scriptpubkey_asm": "OP_0 OP_PUSHBYTES_20 bbcdc6abc8bb376333eab9f6892a654cad43732a",
      "scriptpubkey_type": "v0_p2wpkh",
      "scriptpubkey_address": "bc1qh0xud27ghvmkxvl2h8mgj2n9fjk5xue2mtql2f",
      "value": 336902
    }
  ],
  "size": 222,
  "weight": 561,
  "fee": 5710,
  "status": {
    "confirmed": true,
    "block_height": 834638,
    "block_hash": "000000000000000000025f742c626208ac87e0b7d15054abb4a19ca2d735a54e",
    "block_time": 1710405325
  },
  "hex": "02000000000101bcb99144ba326c82e8686674f9ac06f8141d3de5f5695f6e061fa717486879eb0100000000fdffffff022d8603000000000016001433f36cf4419e72682409934e96ff9e78ca9961770624050000000000160014bbcdc6abc8bb376333eab9f6892a654cad43732a02473044022049ea862021e107a033b1277f56f7556e16a49f04b1491b45079f7b54d0ef27c802204c6b54e32f9a87c9d90df62c381295ebb2a4992f180600a32fd0382075b218db012103b01f4d22303604a4c13d45c0fa3d662ab387452009681946a9a1e3358f1ba4d24dbc0c00"
}