{
  "txid": "8e6172636c39fd528b628d91284f964990b7be16d6187881377dcc44af62aa9b",
  "version": 2,
  "locktime": 0,
  "vin": [
    {
      "txid": "e054c137725b7a5d163dade8f5cd68c0927a2e8b00d920927dab9a7ba934ce5f",
      "vout": 2,
      "prevout": {
        "scriptpubkey": "5120af6f51441597754a689ebb22ea196be63d2b8e0c5084808f3382c96381fd6e2e",
        "scriptpubkey_asm": "OP_PUSHNUM_1 OP_PUSHBYTES_32 af6f51441597754a689ebb22ea196be63d2b8e0c5084808f3382c96381fd6e2e",
        "scriptpubkey_type": "v1_p2tr",
        "scriptpubkey_address": "bc1p4ah4z3q4ja6556y7hv3w5xttuc7jhrsv2zzgprenstyk8q0adchqjk8uch",
        "value": 2658
      },
      "scriptsig": "",
      "scriptsig_asm": "",
      "witness": [
        "e22f5fdb2434be050df389ba50e84d4ad4ebe261a680fa0e0146a3fdde6074916c88442e7aba3a68c6dd4090c09fe479f462811f7151282991ffd7927745c201",
        "20e038c41d860b55e2a978d141941362aff4ac57d58df39b8d3df180a011dc7e6aac0063036f726401011e6170706c69636174696f6e2f6a736f6e3b636861727365743d7574662d38004cbf7b2270223a22706f772d3230222c226f70223a226d696e74222c227469636b223a2250455045222c22616d74223a2231303030222c22736f6c7574696f6e223a22504550453a6263317139736a36303977756e7468646a636d7a746a796379766475616e653071716b78726e773932653a303030303030303030303030303030303030303139393431613561653132383937363539383134343239323533333030353762306461393666336465613163353a3435343231313530373836227d68",
        "c1a0e509a599b6542378e5ac7959d344a1bebc95ec9899fd4ccf1904beefe3f047"
      ],
      "is_coinbase": false,
      "sequence": 4294967295
    }
  ],
  "vout": [
    {
      "scriptpubkey": "00142c25a795dc9aeed963625c898231bcecf2f002c6",
      "scriptpubkey_asm": "OP_0 OP_PUSHBYTES_20 2c25a795dc9aeed963625c898231bcecf2f002c6",
      "scriptpubkey_type": "v0_p2wpkh",
      "scriptpubkey_address": "bc1q9sj609wunthdjcmztjycyvduane0qqkxrnw92e",
      "value": 546
    }
  ],
  "size": 455,
  "weight": 701,
  "fee": 2112,
  "status": {
    "confirmed": true,
    "block_height": 834460,
    "block_hash": "00000000000000000000484a79b643b2524bbce82e5d8a442013fa5b8905ed98",
    "block_time": 1710307468
  },
  "hex": "020000000001015fce34a97b9aab7d9220d9008b2e7a92c068cdf5e8ad3d165d7a5b7237c154e00200000000ffffffff0122020000000000001600142c25a795dc9aeed963625c898231bcecf2f002c60340e22f5fdb2434be050df389ba50e84d4ad4ebe261a680fa0e0146a3fdde6074916c88442e7aba3a68c6dd4090c09fe479f462811f7151282991ffd7927745c201fd0c0120e038c41d860b55e2a978d141941362aff4ac57d58df39b8d3df180a011dc7e6aac0063036f726401011e6170706c69636174696f6e2f6a736f6e3b636861727365743d7574662d38004cbf7b2270223a22706f772d3230222c226f70223a226d696e74222c227469636b223a2250455045222c22616d74223a2231303030222c22736f6c7574696f6e223a22504550453a6263317139736a36303977756e7468646a636d7a746a796379766475616e653071716b78726e773932653a303030303030303030303030303030303030303139393431613561653132383937363539383134343239323533333030353762306461393666336465613163353a3435343231313530373836227d6821c1a0e509a599b6542378e5ac7959d344a1bebc95ec9899fd4ccf1904beefe3f04700000000"
}