{
  "txid": "8e679ea1b4ad3c36c57cffaf9c81293ee6f30dcc3b356537480c973f97fb4fb3",
  "version": 1,
  "locktime": 0,
  "vin": [
    {
      "txid": "ba31d20668507df87741aaa86d760d3a1316af1d6cbe3536eca5d8d6b79102d0",
      "vout": 0,
      "prevout": {
        "scriptpubkey": "00141f8cc03064f55ff33adb85e070acc9cd4ec84b8a",
        "scriptpubkey_asm": "OP_0 OP_PUSHBYTES_20 1f8cc03064f55ff33adb85e070acc9cd4ec84b8a",
        "scriptpubkey_type": "v0_p2wpkh",
        "scriptpubkey_address": "bc1qr7xvqvry740lxwkmshs8ptxfe48vsju2d45x5y",
        "value": 344753
      },
      "scriptsig": "",
      "scriptsig_asm": "",
      "witness": [
        "3044022031a342efceac413507fcb9817d8a5877e079b7264147f4ac94b0b5426f893639022000ba8ce088f86a28791e5721bb0aab40ef4608b2cf79226c407c254e19f64e2001",
        "03a292e9a924c13bbf5cf312c88629404d4476c4b44480882dcc0c8371ed0c72c8"
      ],
      "is_coinbase": false,
      "sequence": 4294967295
    }
  ],
  "vout": [
    {
      "scriptpubkey": "76a91435ab8b6af8e22c41c1120d5950632d5587889a6b88ac",
      "scriptpubkey_asm": "OP_DUP OP_HASH160 OP_PUSHBYTES_20 35ab8b6af8e22c41c1120d5950632d5587889a6b OP_EQUALVERIFY OP_CHECKSIG",
      "scriptpubkey_type": "p2pkh",
      "scriptpubkey_address": "15tnKJ6sE8TAKE76XnFC6SG9DrK2uJ24Tm",
      "value": 343521
    }
  ],
  "size": 194,
  "weight": 449,
  "fee": 1232,
  "status": {
    "confirmed": true,
    "block_height": 834464,
    "block_hash": "0000000000000000000177a0869a911a2b65c9bdcd5a8bcb02b68f305bee848e",
    "block_time": 1710308296
  },
  "hex": "01000000000101d00291b7d6d8a5ec3635be6c1daf16133a0d766da8aa4177f87d506806d231ba0000000000ffffffff01e13d0500000000001976a91435ab8b6af8e22c41c1120d5950632d5587889a6b88ac02473044022031a342efceac413507fcb9817d8a5877e079b7264147f4ac94b0b5426f893639022000ba8ce088f86a28791e5721bb0aab40ef4608b2cf79226c407c254e19f64e20012103a292e9a924c13bbf5cf312c88629404d4476c4b44480882dcc0c8371ed0c72c800000000"
}