{
  "txid": "8e6ada5bc3323f297f3f3e8e244be2c711c354b5725f2d94a61adcf4ca4a41ae",
  "version": 1,
  "locktime": 0,
  "vin": [
    {
      "txid": "888888888730deb3f2df09846510abded8d2b7a6fc390833cdcb7d2c07015627",
      "vout": 0,
      "prevout": {
        "scriptpubkey": "51200c3883dcf2359a39f3652acbfb464b55f1cc0778886465ebc36844b4ba7952cf",
        "scriptpubkey_asm": "OP_PUSHNUM_1 OP_PUSHBYTES_32 0c3883dcf2359a39f3652acbfb464b55f1cc0778886465ebc36844b4ba7952cf",
        "scriptpubkey_type": "v1_p2tr",
        "scriptpubkey_address": "bc1ppsug8h8jxkdrnum99t9lk3jt2hcucpmc3pjxt67rdpztfwne2t8sf83jcx",
        "value": 11627
      },
      "scriptsig": "",
      "scriptsig_asm": "",
      "witness": [
        "0ebfb538371ed66611f6a2be04a6aa04ea438a0e708d67830965f58cab19e3032ef04de6a11d66e0c036f309c5e1571acc3ae03d4afe9342e0d2c75ec9224d62",
        "2013a939ea1940d8c5201bfe1926963ae16aa1fbaefc90a6b00388399ce0b4657cac00630461746f6d03646d7446a16461726773a46474696d651a65ef0e6d656e6f6e63651a0001000968626974776f726b636b3838383838383838382e376b6d696e745f7469636b657268696e66696e69747968",
        "c013a939ea1940d8c5201bfe1926963ae16aa1fbaefc90a6b00388399ce0b4657c"
      ],
      "is_coinbase": false,
      "sequence": 4294967295
    }
  ],
  "vout": [
    {
      "scriptpubkey": "51205a263ceb749a9db19b79bdaab5c1862ca038177143914ee1a994d2591cdf79a7",
      "scriptpubkey_asm": "OP_PUSHNUM_1 OP_PUSHBYTES_32 5a263ceb749a9db19b79bdaab5c1862ca038177143914ee1a994d2591cdf79a7",
      "scriptpubkey_type": "v1_p2tr",
      "scriptpubkey_address": "bc1ptgnre6m5n2wmrxmehk4ttsvx9jsrs9m3gwg5acdfjnf9j8xl0xnsmagkgl",
      "value": 9999
    }
  ],
  "size": 314,
  "weight": 596,
  "fee": 1628,
  "status": {
    "confirmed": true,
    "block_height": 834464,
    "block_hash": "0000000000000000000177a0869a911a2b65c9bdcd5a8bcb02b68f305bee848e",
    "block_time": 1710308296
  },
  "hex": "01000000000101275601072c7dcbcd330839fca6b7d2d8deab10658409dff2b3de3087888888880000000000ffffffff010f270000000000002251205a263ceb749a9db19b79bdaab5c1862ca038177143914ee1a994d2591cdf79a703400ebfb538371ed66611f6a2be04a6aa04ea438a0e708d67830965f58cab19e3032ef04de6a11d66e0c036f309c5e1571acc3ae03d4afe9342e0d2c75ec9224d62752013a939ea1940d8c5201bfe1926963ae16aa1fbaefc90a6b00388399ce0b4657cac00630461746f6d03646d7446a16461726773a46474696d651a65ef0e6d656e6f6e63651a0001000968626974776f726b636b3838383838383838382e376b6d696e745f7469636b657268696e66696e6974796821c013a939ea1940d8c5201bfe1926963ae16aa1fbaefc90a6b00388399ce0b4657c00000000"
}