{
  "txid": "8e78ac5b942dd5ccbbb047493d36dc36da77b6dacdb2f8b4214ff1a7ac16ba0d",
  "version": 2,
  "locktime": 0,
  "vin": [
    {
      "txid": "acc3ba00869acb582a3f2904ce3a11dd3779350ce234063fc7d0959246213364",
      "vout": 270,
      "prevout": {
        "scriptpubkey": "51209af4a6cf5390cd286eb69e9cc7399d105bbe673a31e325fa16d7f7995696d187",
        "scriptpubkey_asm": "OP_PUSHNUM_1 OP_PUSHBYTES_32 9af4a6cf5390cd286eb69e9cc7399d105bbe673a31e325fa16d7f7995696d187",
        "scriptpubkey_type": "v1_p2tr",
        "scriptpubkey_address": "bc1pnt62dn6njrxjsm4kn6wvwwvazpdmuee6x83jt7sk6lmej45k6xrs5v65zf",
        "value": 1806
      },
      "scriptsig": "",
      "scriptsig_asm": "",
      "witness": [
        "3cbe7f7c0ae8812007863409b4d94e2bef24b0fdafeac6b4498089bcae406943dfcc9184d6872ea0a30b4de3894036896481cc77eb16b64aea5328aca3e96640",
        "207a57a231ccf8218199cf78f372fd2bc5004310b7788513f4a31eaabd85ab8237ac0063036f726401010a746578742f706c61696e00357b2270223a226272632d3230222c226f70223a226d696e74222c227469636b223a22646f6765222c22616d74223a2234323030227d68",
        "c07a57a231ccf8218199cf78f372fd2bc5004310b7788513f4a31eaabd85ab8237"
      ],
      "is_coinbase": false,
      "sequence": 4261412863
    }
  ],
  "vout": [
    {
      "scriptpubkey": "00147a665de7a370f4c9b372ab1fae587500a5bcbdb4",
      "scriptpubkey_asm": "OP_0 OP_PUSHBYTES_20 7a665de7a370f4c9b372ab1fae587500a5bcbdb4",
      "scriptpubkey_type": "v0_p2wpkh",
      "scriptpubkey_address": "bc1q0fn9mearwr6vnvmj4v06ukr4qzjme0d565dzcx",
      "value": 294
    }
  ],
  "size": 294,
  "weight": 540,
  "fee": 1512,
  "status": {
    "confirmed": true,
    "block_height": 834460,
    "block_hash": "00000000000000000000484a79b643b2524bbce82e5d8a442013fa5b8905ed98",
    "block_time": 1710307468
  },
  "hex": "02000000000101643321469295d0c73f0634e20c357937dd113ace04293f2a58cb9a8600bac3ac0e01000000fffffffd0126010000000000001600147a665de7a370f4c9b372ab1fae587500a5bcbdb403403cbe7f7c0ae8812007863409b4d94e2bef24b0fdafeac6b4498089bcae406943dfcc9184d6872ea0a30b4de3894036896481cc77eb16b64aea5328aca3e966406d207a57a231ccf8218199cf78f372fd2bc5004310b7788513f4a31eaabd85ab8237ac0063036f726401010a746578742f706c61696e00357b2270223a226272632d3230222c226f70223a226d696e74222c227469636b223a22646f6765222c22616d74223a2234323030227d6821c07a57a231ccf8218199cf78f372fd2bc5004310b7788513f4a31eaabd85ab823700000000"
}