{
  "txid": "8e7fe0d1e7dd571f8a298d45c06ba5f3352ad6d4ae32bc051c0fcbc8533c0f86",
  "version": 1,
  "locktime": 0,
  "vin": [
    {
      "txid": "20344fc40a52696d2872e5cc74a5f7f2bfd1ae9e20eeb9e77f79f035ae3d8d27",
      "vout": 0,
      "prevout": {
        "scriptpubkey": "51200575580cf5b2c2b6a4fc980ac710516b91459c91e06ebe615bb3b3a3826d6bd4",
        "scriptpubkey_asm": "OP_PUSHNUM_1 OP_PUSHBYTES_32 0575580cf5b2c2b6a4fc980ac710516b91459c91e06ebe615bb3b3a3826d6bd4",
        "scriptpubkey_type": "v1_p2tr",
        "scriptpubkey_address": "bc1pq464sr84ktptdf8unq9vwyz3dwg5t8y3uphtuc2mkwe68qndd02qvnzdkx",
        "value": 2631
      },
      "scriptsig": "",
      "scriptsig_asm": "",
      "witness": [
        "01abf822222ac84b84f6abb2586afa5c7b200e55aafb10378cd13cce501578d3b060caccedb9c736e4404b297fe896fd28f5159e9187ec8809c96711f4e20f0c83",
        "20be11f1d0580232188e877ef283eb5a1efd4e9e5290a2633605d666f59ad3fff2ac00630461746f6d036e667443a16461726773a468626974776f726b6364323033346d726571756573745f7265616c6d6a6175746f6e796d6f7573656e6f6e63651a0069d6bb6474696d651a65efaf4a68",
        "c0be11f1d0580232188e877ef283eb5a1efd4e9e5290a2633605d666f59ad3fff2"
      ],
      "is_coinbase": false,
      "sequence": 4294967293
    }
  ],
  "vout": [
    {
      "scriptpubkey": "51209d6dbbf9bad17d0135e06ea56ec304df985f9f9bc809fa52ae6789a0947e0300",
      "scriptpubkey_asm": "OP_PUSHNUM_1 OP_PUSHBYTES_32 9d6dbbf9bad17d0135e06ea56ec304df985f9f9bc809fa52ae6789a0947e0300",
      "scriptpubkey_type": "v1_p2tr",
      "scriptpubkey_address": "bc1pn4kmh7d6697szd0qd6jkascym7v9l8umeqyl554wv7y6p9r7qvqquzkndh",
      "value": 1000
    }
  ],
  "size": 312,
  "weight": 594,
  "fee": 1631,
  "status": {
    "confirmed": true,
    "block_height": 834464,
    "block_hash": "0000000000000000000177a0869a911a2b65c9bdcd5a8bcb02b68f305bee848e",
    "block_time": 1710308296
  },
  "hex": "01000000000101278d3dae35f0797fe7b9ee209eaed1bff2f7a574cce572286d69520ac44f34200000000000fdffffff01e8030000000000002251209d6dbbf9bad17d0135e06ea56ec304df985f9f9bc809fa52ae6789a0947e0300034101abf822222ac84b84f6abb2586afa5c7b200e55aafb10378cd13cce501578d3b060caccedb9c736e4404b297fe896fd28f5159e9187ec8809c96711f4e20f0c837220be11f1d0580232188e877ef283eb5a1efd4e9e5290a2633605d666f59ad3fff2ac00630461746f6d036e667443a16461726773a468626974776f726b6364323033346d726571756573745f7265616c6d6a6175746f6e796d6f7573656e6f6e63651a0069d6bb6474696d651a65efaf4a6821c0be11f1d0580232188e877ef283eb5a1efd4e9e5290a2633605d666f59ad3fff200000000"
}