{
  "txid": "8e9be9693396b0533854a53c5bbd47c7168657d1964389b03b024b810f962ec7",
  "version": 2,
  "locktime": 0,
  "vin": [
    {
      "txid": "5b285b69237916c3abf87d99cd51ebe7b7abe576a6e9f80f4eafb056b9870e6e",
      "vout": 3,
      "prevout": {
        "scriptpubkey": "00146b3c8f630d31f04d11d4b01593f596d12b1ce449",
        "scriptpubkey_asm": "OP_0 OP_PUSHBYTES_20 6b3c8f630d31f04d11d4b01593f596d12b1ce449",
        "scriptpubkey_type": "v0_p2wpkh",
        "scriptpubkey_address": "bc1qdv7g7ccdx8cy6yw5kq2e8avk6y43eezfq9prv7",
        "value": 547368
      },
      "scriptsig": "",
      "scriptsig_asm": "",
      "witness": [
        "3045022100ad67a94c662d9d683080d30d7a9389c591027b118141c5654e737c4cc821e7b102202b5d1a7e8d675e550e5634f967afb057d238ff5a08d3c3fddf470a30186294c401",
        "022e988ce7cf1c7b4ab09c8d8a845caf9436032e06bdc0e252515dc96ace9d9ca4"
      ],
      "is_coinbase": false,
      "sequence": 4294967293
    },
    {
      "txid": "6826447d8e5b6bd451e5db6eda17f23ed74c7e75a75ab793fccfbc1913b677d1",
      "vout": 1,
      "prevout": {
        "scriptpubkey": "0014c2fe48fc4ceb54c3cb5017a1fb48d97933760303",
        "scriptpubkey_asm": "OP_0 OP_PUSHBYTES_20 c2fe48fc4ceb54c3cb5017a1fb48d97933760303",
        "scriptpubkey_type": "v0_p2wpkh",
        "scriptpubkey_address": "bc1qctly3lzvad2v8j6sz7slkjxe0yehvqcrkr4ya5",
        "value": 1000008
      },
      "scriptsig": "",
      "scriptsig_asm": "",
      "witness": [
        "304402207e00bd8e7bac9bfc19e955b223e920115326d5b3ea6d710dcd94f8756a6914b8022029ce8c8bd1b7dc3072db027f1b92fce3eb3f7ae1aa0e7c266016d2e0e15dbb6301",
        "0386c8c92f81569b62c5d9e2e38fe6555d3f13e5827e8de6585f9607f07201c326"
      ],
      "is_coinbase": false,
      "sequence": 4294967293
    },
    {
      "txid": "965dff2413656fe0bee8b1420b8f1e81c445f24ddc85aee83d302006376317aa",
      "vout": 46,
      "prevout": {
        "scriptpubkey": "00149bf5b1d0dc15bb33bfe35c158fc614cf30154bc3",
        "scriptpubkey_asm": "OP_0 OP_PUSHBYTES_20 9bf5b1d0dc15bb33bfe35c158fc614cf30154bc3",
        "scriptpubkey_type": "v0_p2wpkh",
        "scriptpubkey_address": "bc1qn06mr5xuzkan80lrts2cl3s5eucp2j7r5pxuup",
        "value": 5308
      },
      "scriptsig": "",
      "scriptsig_asm": "",
      "witness": [
        "3045022100b683e34fd1f6bd0b08d859d404be26ea13c807620bc0beb59eb173f524dde51702206d2c0b79de6507c09a95cf0e981f26fd7896ac163463fd0c5428fa303af9f44a01",
        "038fa08e82987a91d213262f361e963884686211850ce06afac55998f8b95a0714"
      ],
      "is_coinbase": false,
      "sequence": 4294967293
    },
    {
      "txid": "d9d98137dcb59214452d3390c942ec29efbc2bf2d5cecf197e4ad888e1b97f6a",
      "vout": 1,
      "prevout": {
        "scriptpubkey": "001491d365ef775e1ae2bdbb565f764ef1bcffbb0b96",
        "scriptpubkey_asm": "OP_0 OP_PUSHBYTES_20 91d365ef775e1ae2bdbb565f764ef1bcffbb0b96",
        "scriptpubkey_type": "v0_p2wpkh",
        "scriptpubkey_address": "bc1qj8fktmmhtcdw90dm2e0hvnh3hnlmkzuk7zt9md",
        "value": 1000000
      },
      "scriptsig": "",
      "scriptsig_asm": "",
      "witness": [
        "30450221008c0c778cd64053d2a1bcff28f5b74fe5b53bd96a584e065a387b4d885bac6ca2022069614a6f5f5c19bfadd5814dcbf51a83fe5860bc7e5476116e67da16228f8bb001",
        "027fc7cf840a34f1996c7c19b1c3936279e865a6d2d39397e1d555f044d5aad977"
      ],
      "is_coinbase": false,
      "sequence": 4294967293
    },
    {
      "txid": "66ef730a89d3712821e0aa39c17c07bce7fb792e13d57eeba3d261d8e0fc1020",
      "vout": 0,
      "prevout": {
        "scriptpubkey": "0014ff360a3ae0a42004e94b1c1e38e951ea11d1b441",
        "scriptpubkey_asm": "OP_0 OP_PUSHBYTES_20 ff360a3ae0a42004e94b1c1e38e951ea11d1b441",
        "scriptpubkey_type": "v0_p2wpkh",
        "scriptpubkey_address": "bc1qlumq5whq5ssqf62trs0r3623aggardzpyhmzyn",
        "value": 225287
      },
      "scriptsig": "",
      "scriptsig_asm": "",
      "witness": [
        "3045022100ccd3b2f7751c61b992a1683bfb392c6a0ab44ab6fb35a838b5f589218b8d5d2002203edb33f0222aea62d246ed651738b078901dd754761a24e20e15a6971a526fc701",
        "028ea7da0fd3c3b5eed8e1047e035a4fea5de616a6adcd28abb2b2ff6177d870bd"
      ],
      "is_coinbase": false,
      "sequence": 4294967293
    },
    {
      "txid": "21140d69e8ed63c485e036e3ba4003d4377984069f00a4c9d4678e5643418791",
      "vout": 0,
      "prevout": {
        "scriptpubkey": "00142eff74ada4c8adcab52df03101233b4f4d715790",
        "scriptpubkey_asm": "OP_0 OP_PUSHBYTES_20 2eff74ada4c8adcab52df03101233b4f4d715790",
        "scriptpubkey_type": "v0_p2wpkh",
        "scriptpubkey_address": "bc1q9mlhftdyezku4dfd7qcszgemfaxhz4usylgve2",
        "value": 1000000
      },
      "scriptsig": "",
      "scriptsig_asm": "",
      "witness": [
        "3045022100e85d9c803119fd6bae860193a75a68046fd040c8be67dcdf77021ef6c49f498402201752fbf7e92e147240e1c46439592cda9be42a2a01bcf844d067cec328d5675301",
        "02ac8ef2d138aa7fad179f092bce2398d811f4fc6319f98b975a36b00585011e86"
      ],
      "is_coinbase": false,
      "sequence": 4294967293
    }
  ],
  "vout": [
    {
      "scriptpubkey": "00143bbdad971c926e7479fae32886310688d4ff73e7",
      "scriptpubkey_asm": "OP_0 OP_PUSHBYTES_20 3bbdad971c926e7479fae32886310688d4ff73e7",
      "scriptpubkey_type": "v0_p2wpkh",
      "scriptpubkey_address": "bc1q8w76m9cujfh8g706uv5gvvgx3r207ul8nssy4e",
      "value": 1000884
    },
    {
      "scriptpubkey": "00203764862942da804d340077a7273e773f9ec324715738298e710a8d248bd1662d",
      "scriptpubkey_asm": "OP_0 OP_PUSHBYTES_32 3764862942da804d340077a7273e773f9ec324715738298e710a8d248bd1662d",
      "scriptpubkey_type": "v0_p2wsh",
      "scriptpubkey_address": "bc1qxajgv22zm2qy6dqqw7njw0nh870vxfr32uuznrn3p2xjfz73vcks3aql4y",
      "value": 2770678
    }
  ],
  "size": 979,
  "weight": 1969,
  "fee": 6409,
  "status": {
    "confirmed": true,
    "block_height": 834460,
    "block_hash": "00000000000000000000484a79b643b2524bbce82e5d8a442013fa5b8905ed98",
    "block_time": 1710307468
  },
  "hex": "020000000001066e0e87b956b0af4e0ff8e9a676e5abb7e7eb51cd997df8abc3167923695b285b0300000000fdffffffd177b61319bccffc93b75aa7757e4cd73ef217da6edbe551d46b5b8e7d4426680100000000fdffffffaa1763370620303de8ae85dc4df245c4811e8f0b42b1e8bee06f651324ff5d962e00000000fdffffff6a7fb9e188d84a7e19cfced5f22bbcef29ec42c990332d451492b5dc3781d9d90100000000fdffffff2010fce0d861d2a3eb7ed5132e79fbe7bc077cc139aae0212871d3890a73ef660000000000fdffffff91874143568e67d4c9a4009f06847937d40340bae336e085c463ede8690d14210000000000fdffffff02b4450f00000000001600143bbdad971c926e7479fae32886310688d4ff73e7f6462a00000000002200203764862942da804d340077a7273e773f9ec324715738298e710a8d248bd1662d02483045022100ad67a94c662d9d683080d30d7a9389c591027b118141c5654e737c4cc821e7b102202b5d1a7e8d675e550e5634f967afb057d238ff5a08d3c3fddf470a30186294c40121022e988ce7cf1c7b4ab09c8d8a845caf9436032e06bdc0e252515dc96ace9d9ca40247304402207e00bd8e7bac9bfc19e955b223e920115326d5b3ea6d710dcd94f8756a6914b8022029ce8c8bd1b7dc3072db027f1b92fce3eb3f7ae1aa0e7c266016d2e0e15dbb6301210386c8c92f81569b62c5d9e2e38fe6555d3f13e5827e8de6585f9607f07201c32602483045022100b683e34fd1f6bd0b08d859d404be26ea13c807620bc0beb59eb173f524dde51702206d2c0b79de6507c09a95cf0e981f26fd7896ac163463fd0c5428fa303af9f44a0121038fa08e82987a91d213262f361e963884686211850ce06afac55998f8b95a0714024830450221008c0c778cd64053d2a1bcff28f5b74fe5b53bd96a584e065a387b4d885bac6ca2022069614a6f5f5c19bfadd5814dcbf51a83fe5860bc7e5476116e67da16228f8bb00121027fc7cf840a34f1996c7c19b1c3936279e865a6d2d39397e1d555f044d5aad97702483045022100ccd3b2f7751c61b992a1683bfb392c6a0ab44ab6fb35a838b5f589218b8d5d2002203edb33f0222aea62d246ed651738b078901dd754761a24e20e15a6971a526fc70121028ea7da0fd3c3b5eed8e1047e035a4fea5de616a6adcd28abb2b2ff6177d870bd02483045022100e85d9c803119fd6bae860193a75a68046fd040c8be67dcdf77021ef6c49f498402201752fbf7e92e147240e1c46439592cda9be42a2a01bcf844d067cec328d56753012102ac8ef2d138aa7fad179f092bce2398d811f4fc6319f98b975a36b00585011e8600000000"
}