{
  "txid": "8eb1eaf6e5b17328b174bb6c2597f5e2ec3d1a9b24e68c467cd7f74f5b83b37d",
  "version": 2,
  "locktime": 0,
  "vin": [
    {
      "txid": "e606810251aa607c7ea96315583b6cd7db20d2892267f90338ecc1b06737fc58",
      "vout": 1,
      "prevout": {
        "scriptpubkey": "0014cd0510c72968ff420646613718717f13f103973b",
        "scriptpubkey_asm": "OP_0 OP_PUSHBYTES_20 cd0510c72968ff420646613718717f13f103973b",
        "scriptpubkey_type": "v0_p2wpkh",
        "scriptpubkey_address": "bc1qe5z3p3efdrl5ypjxvym3sutlz0cs89em4vtr0z",
        "value": 658867
      },
      "scriptsig": "",
      "scriptsig_asm": "",
      "witness": [
        "3045022100fa69ef869c75f4cdef0d4518218ebe1d72668c6edbbf97ed19a3d85661317ce002202045eb67d57bd3275500407019d087abcaf3883cf83bcdc0cd898d5a30f4433901",
        "02b7f7bd3865def8432cc248490e4f2fe83c192eb1d44e608c2a60f15cda3cc696"
      ],
      "is_coinbase": false,
      "sequence": 4294967295
    }
  ],
  "vout": [
    {
      "scriptpubkey": "a91417d5688462b406c95e8241a8b3206820ccfbf6f587",
      "scriptpubkey_asm": "OP_HASH160 OP_PUSHBYTES_20 17d5688462b406c95e8241a8b3206820ccfbf6f5 OP_EQUAL",
      "scriptpubkey_type": "p2sh",
      "scriptpubkey_address": "33s37pepwgnQQ6TqAkWzT8fcjiU7Wq9DQN",
      "value": 231198
    },
    {
      "scriptpubkey": "0014cd0510c72968ff420646613718717f13f103973b",
      "scriptpubkey_asm": "OP_0 OP_PUSHBYTES_20 cd0510c72968ff420646613718717f13f103973b",
      "scriptpubkey_type": "v0_p2wpkh",
      "scriptpubkey_address": "bc1qe5z3p3efdrl5ypjxvym3sutlz0cs89em4vtr0z",
      "value": 425134
    }
  ],
  "size": 224,
  "weight": 566,
  "fee": 2535,
  "status": {
    "confirmed": true,
    "block_height": 834638,
    "block_hash": "000000000000000000025f742c626208ac87e0b7d15054abb4a19ca2d735a54e",
    "block_time": 1710405325
  },
  "hex": "0200000000010158fc3767b0c1ec3803f9672289d220dbd76c3b581563a97e7c60aa51028106e60100000000ffffffff021e8703000000000017a91417d5688462b406c95e8241a8b3206820ccfbf6f587ae7c060000000000160014cd0510c72968ff420646613718717f13f103973b02483045022100fa69ef869c75f4cdef0d4518218ebe1d72668c6edbbf97ed19a3d85661317ce002202045eb67d57bd3275500407019d087abcaf3883cf83bcdc0cd898d5a30f44339012102b7f7bd3865def8432cc248490e4f2fe83c192eb1d44e608c2a60f15cda3cc69600000000"
}