{
  "txid": "8ebd3a03eac106274b59fb07a3bafcc760ba578dcd91e3fa81f6136fa7678765",
  "version": 2,
  "locktime": 0,
  "vin": [
    {
      "txid": "8486ecb4df0880316dd6e82b3971b4df187aff23765bc3a47f8d78bb53aa273c",
      "vout": 58,
      "prevout": {
        "scriptpubkey": "5120e783f8f4a850d00db985fe1b5e1c23ea181aaf3f78ece1258000258bcf525c1a",
        "scriptpubkey_asm": "OP_PUSHNUM_1 OP_PUSHBYTES_32 e783f8f4a850d00db985fe1b5e1c23ea181aaf3f78ece1258000258bcf525c1a",
        "scriptpubkey_type": "v1_p2tr",
        "scriptpubkey_address": "bc1pu7pl3a9g2rgqmwv9lcd4u8pragvp4tel0rkwzfvqqqjchn6jtsdqhfccn6",
        "value": 2575
      },
      "scriptsig": "",
      "scriptsig_asm": "",
      "witness": [
        "d1ee5496312df55f3e61946e25ea2851d330a294c0d3cc0bda26c6a574b74c297bdd470b4d30af515d2db33a46c29daa37aaed7b70d66925bf0c82ca70ec284a",
        "20ba4f56149b6fd2602578a881877d09f46c6ff9fc2ece7d1783dc608effb0c39fac0063036f726401010a746578742f706c61696e00367b2270223a226272632d3230222c226f70223a226d696e74222c227469636b223a2261616161222c22616d74223a223130303030227d68",
        "c0ba4f56149b6fd2602578a881877d09f46c6ff9fc2ece7d1783dc608effb0c39f"
      ],
      "is_coinbase": false,
      "sequence": 4261412863
    }
  ],
  "vout": [
    {
      "scriptpubkey": "0014ddd7ef12ea6f78edcc1e8e7afa12c01ab59f3339",
      "scriptpubkey_asm": "OP_0 OP_PUSHBYTES_20 ddd7ef12ea6f78edcc1e8e7afa12c01ab59f3339",
      "scriptpubkey_type": "v0_p2wpkh",
      "scriptpubkey_address": "bc1qmht77yh2dauwmnq73ea05ykqr26e7veea8spz6",
      "value": 546
    }
  ],
  "size": 295,
  "weight": 541,
  "fee": 2029,
  "status": {
    "confirmed": true,
    "block_height": 834460,
    "block_hash": "00000000000000000000484a79b643b2524bbce82e5d8a442013fa5b8905ed98",
    "block_time": 1710307468
  },
  "hex": "020000000001013c27aa53bb788d7fa4c35b7623ff7a18dfb471392be8d66d318008dfb4ec86843a00000000fffffffd012202000000000000160014ddd7ef12ea6f78edcc1e8e7afa12c01ab59f33390340d1ee5496312df55f3e61946e25ea2851d330a294c0d3cc0bda26c6a574b74c297bdd470b4d30af515d2db33a46c29daa37aaed7b70d66925bf0c82ca70ec284a6e20ba4f56149b6fd2602578a881877d09f46c6ff9fc2ece7d1783dc608effb0c39fac0063036f726401010a746578742f706c61696e00367b2270223a226272632d3230222c226f70223a226d696e74222c227469636b223a2261616161222c22616d74223a223130303030227d6821c0ba4f56149b6fd2602578a881877d09f46c6ff9fc2ece7d1783dc608effb0c39f00000000"
}