{
  "txid": "8ecd0e72a2635db88210e864319cbdc01703efa59ea4cb44ab77a5b096980b80",
  "version": 2,
  "locktime": 0,
  "vin": [
    {
      "txid": "f5ae995b6b91f3f406a8fb25e8f0e4c7a9303298115a5755434576bfc1770b32",
      "vout": 4,
      "prevout": {
        "scriptpubkey": "0014b7c97e794134e223320361ddbd5ff4b7f8bc888e",
        "scriptpubkey_asm": "OP_0 OP_PUSHBYTES_20 b7c97e794134e223320361ddbd5ff4b7f8bc888e",
        "scriptpubkey_type": "v0_p2wpkh",
        "scriptpubkey_address": "bc1qklyhu72pxn3zxvsrv8wm6hl5klutezywcujmma",
        "value": 1521704
      },
      "scriptsig": "",
      "scriptsig_asm": "",
      "witness": [
        "3044022067a0942cd38248e8cf872fc4fd4e12ea0ace36fe37960f543e148aadbd5b3b60022004c555322f20e667b31586bb475bf64844992c535942d6dd3e2f6da7ebc2b33a01",
        "02b33ab0a64462696e39065c18c6fcfc15f3c08b4b8f16d16d181846652bcaa0d2"
      ],
      "is_coinbase": false,
      "sequence": 4294967295
    }
  ],
  "vout": [
    {
      "scriptpubkey": "0014b7c97e794134e223320361ddbd5ff4b7f8bc888e",
      "scriptpubkey_asm": "OP_0 OP_PUSHBYTES_20 b7c97e794134e223320361ddbd5ff4b7f8bc888e",
      "scriptpubkey_type": "v0_p2wpkh",
      "scriptpubkey_address": "bc1qklyhu72pxn3zxvsrv8wm6hl5klutezywcujmma",
      "value": 808
    },
    {
      "scriptpubkey": "5121031e249459ad88a84faf8327f3e9503e8a8985ce0471bb64c3fb454591984a56912102f611f6c58c414b3c5a6b2945c584b36adea2e66a2ba4c6082dc83b99584a04252102020202020202020202020202020202020202020202020202020202020202020253ae",
      "scriptpubkey_asm": "OP_PUSHNUM_1 OP_PUSHBYTES_33 031e249459ad88a84faf8327f3e9503e8a8985ce0471bb64c3fb454591984a5691 OP_PUSHBYTES_33 02f611f6c58c414b3c5a6b2945c584b36adea2e66a2ba4c6082dc83b99584a0425 OP_PUSHBYTES_33 020202020202020202020202020202020202020202020202020202020202020202 OP_PUSHNUM_3 OP_CHECKMULTISIG",
      "scriptpubkey_type": "unknown",
      "value": 809
    },
    {
      "scriptpubkey": "51210357d955e8414f8af37e9eac8be3fe69dfe6a096cef0a987df242e12f094b20ade21027a061648d97a51d54db0582b54feb9be34747fc97ee5d276fdf80235ca1c98912102020202020202020202020202020202020202020202020202020202020202020253ae",
      "scriptpubkey_asm": "OP_PUSHNUM_1 OP_PUSHBYTES_33 0357d955e8414f8af37e9eac8be3fe69dfe6a096cef0a987df242e12f094b20ade OP_PUSHBYTES_33 027a061648d97a51d54db0582b54feb9be34747fc97ee5d276fdf80235ca1c9891 OP_PUSHBYTES_33 020202020202020202020202020202020202020202020202020202020202020202 OP_PUSHNUM_3 OP_CHECKMULTISIG",
      "scriptpubkey_type": "unknown",
      "value": 809
    },
    {
      "scriptpubkey": "001420123e4942db45c3c5971b141304c3ff6f5c06c7",
      "scriptpubkey_asm": "OP_0 OP_PUSHBYTES_20 20123e4942db45c3c5971b141304c3ff6f5c06c7",
      "scriptpubkey_type": "v0_p2wpkh",
      "scriptpubkey_address": "bc1qyqfruj2zmdzu83vhrv2pxpxrlah4cpk88c9zvd",
      "value": 12000
    },
    {
      "scriptpubkey": "0014b7c97e794134e223320361ddbd5ff4b7f8bc888e",
      "scriptpubkey_asm": "OP_0 OP_PUSHBYTES_20 b7c97e794134e223320361ddbd5ff4b7f8bc888e",
      "scriptpubkey_type": "v0_p2wpkh",
      "scriptpubkey_address": "bc1qklyhu72pxn3zxvsrv8wm6hl5klutezywcujmma",
      "value": 1496167
    }
  ],
  "size": 481,
  "weight": 1597,
  "fee": 11111,
  "status": {
    "confirmed": true,
    "block_height": 834638,
    "block_hash": "000000000000000000025f742c626208ac87e0b7d15054abb4a19ca2d735a54e",
    "block_time": 1710405325
  },
  "hex": "02000000000101320b77c1bf76454355575a11983230a9c7e4f0e825fba806f4f3916b5b99aef50400000000ffffffff052803000000000000160014b7c97e794134e223320361ddbd5ff4b7f8bc888e2903000000000000695121031e249459ad88a84faf8327f3e9503e8a8985ce0471bb64c3fb454591984a56912102f611f6c58c414b3c5a6b2945c584b36adea2e66a2ba4c6082dc83b99584a04252102020202020202020202020202020202020202020202020202020202020202020253ae29030000000000006951210357d955e8414f8af37e9eac8be3fe69dfe6a096cef0a987df242e12f094b20ade21027a061648d97a51d54db0582b54feb9be34747fc97ee5d276fdf80235ca1c98912102020202020202020202020202020202020202020202020202020202020202020253aee02e00000000000016001420123e4942db45c3c5971b141304c3ff6f5c06c767d4160000000000160014b7c97e794134e223320361ddbd5ff4b7f8bc888e02473044022067a0942cd38248e8cf872fc4fd4e12ea0ace36fe37960f543e148aadbd5b3b60022004c555322f20e667b31586bb475bf64844992c535942d6dd3e2f6da7ebc2b33a012102b33ab0a64462696e39065c18c6fcfc15f3c08b4b8f16d16d181846652bcaa0d200000000"
}