{
  "txid": "8ecd0fbe1a0bc6f32ebda1b99459ff5a9e82ff2733ef5f8b0420755659ccd109",
  "version": 2,
  "locktime": 0,
  "vin": [
    {
      "txid": "a8f81c027f9b08651599f25b6922bbeacdd9317302123b9c89e77d70a573fdd8",
      "vout": 18,
      "prevout": {
        "scriptpubkey": "512086df1de0a65ff720717ff69f2ea3704e8c0ddc6a604f3ba3209c5face7171c31",
        "scriptpubkey_asm": "OP_PUSHNUM_1 OP_PUSHBYTES_32 86df1de0a65ff720717ff69f2ea3704e8c0ddc6a604f3ba3209c5face7171c31",
        "scriptpubkey_type": "v1_p2tr",
        "scriptpubkey_address": "bc1psm03mc9xtlmjqutl760jagmsf6xqmhr2vp8nhgeqn306eechrscsa7zy0d",
        "value": 2142
      },
      "scriptsig": "",
      "scriptsig_asm": "",
      "witness": [
        "a7d23829ece2d5317f32c0b6427224338b3a596e3d591167ece9643e33cf580c7aa70f023a796f64534bac72eefaff2c648ef87b9db8b9aa74702e5f9c8dbc1d",
        "200f5c9d41c0c633434a9efa31c7390202073cdf8f3d12ebc5d98b2b1ea843022aac0063036f7264010118746578742f706c61696e3b636861727365743d7574662d3800347b2270223a226272632d3230222c226f70223a226d696e74222c227469636b223a2248554855222c22616d74223a22313030227d68",
        "c00f5c9d41c0c633434a9efa31c7390202073cdf8f3d12ebc5d98b2b1ea843022a"
      ],
      "is_coinbase": false,
      "sequence": 4294967293
    }
  ],
  "vout": [
    {
      "scriptpubkey": "51205586147a241628faf0ca3864b4d5e24feb47858b3e2e46d32947748abc0680d6",
      "scriptpubkey_asm": "OP_PUSHNUM_1 OP_PUSHBYTES_32 5586147a241628faf0ca3864b4d5e24feb47858b3e2e46d32947748abc0680d6",
      "scriptpubkey_type": "v1_p2tr",
      "scriptpubkey_address": "bc1p2krpg73yzc504ux28pjtf40zfl450pvt8chyd5efga6g40qxsrtq3fe5j5",
      "value": 330
    }
  ],
  "size": 319,
  "weight": 601,
  "fee": 1812,
  "status": {
    "confirmed": true,
    "block_height": 834460,
    "block_hash": "00000000000000000000484a79b643b2524bbce82e5d8a442013fa5b8905ed98",
    "block_time": 1710307468
  },
  "hex": "02000000000101d8fd73a5707de7899c3b12027331d9cdeabb22695bf2991565089b7f021cf8a81200000000fdffffff014a010000000000002251205586147a241628faf0ca3864b4d5e24feb47858b3e2e46d32947748abc0680d60340a7d23829ece2d5317f32c0b6427224338b3a596e3d591167ece9643e33cf580c7aa70f023a796f64534bac72eefaff2c648ef87b9db8b9aa74702e5f9c8dbc1d7a200f5c9d41c0c633434a9efa31c7390202073cdf8f3d12ebc5d98b2b1ea843022aac0063036f7264010118746578742f706c61696e3b636861727365743d7574662d3800347b2270223a226272632d3230222c226f70223a226d696e74222c227469636b223a2248554855222c22616d74223a22313030227d6821c00f5c9d41c0c633434a9efa31c7390202073cdf8f3d12ebc5d98b2b1ea843022a00000000"
}