{
  "txid": "8ecf7c0bba830dfd339172926ab4ae8fa3d2bc054286b6838bb41e1a519ba5f5",
  "version": 1,
  "locktime": 0,
  "vin": [
    {
      "txid": "40d13ef8423af3a8bb2b47ea635c415e921f501e24800d7a651e8a896e6d4510",
      "vout": 1,
      "prevout": {
        "scriptpubkey": "00143f1ab689e36c4485c68901388a8651562f6d3eb9",
        "scriptpubkey_asm": "OP_0 OP_PUSHBYTES_20 3f1ab689e36c4485c68901388a8651562f6d3eb9",
        "scriptpubkey_type": "v0_p2wpkh",
        "scriptpubkey_address": "bc1q8udtdz0rd3zgt35fqyug4pj32chk604e9d2yf7",
        "value": 273485
      },
      "scriptsig": "",
      "scriptsig_asm": "",
      "witness": [
        "3045022100fc69baad897bd295eb8ef9654475174907e878e655e11fc8a3d00ad73608fb3c0220027e5c00d3ca1e6b5f51af55620d52b558f868c14702b5abaf71511c4322e55701",
        "02e32b9fa1c2b88028ecb8efe473ba6f5b34f7cb1e19298b0c1a08a760e49797bd"
      ],
      "is_coinbase": false,
      "sequence": 4294967295
    }
  ],
  "vout": [
    {
      "scriptpubkey": "76a9141db0d9fb0263df6955b13d4a0f2870058fa9e33588ac",
      "scriptpubkey_asm": "OP_DUP OP_HASH160 OP_PUSHBYTES_20 1db0d9fb0263df6955b13d4a0f2870058fa9e335 OP_EQUALVERIFY OP_CHECKSIG",
      "scriptpubkey_type": "p2pkh",
      "scriptpubkey_address": "13hzTRM7zmTz59HABfNLBsNXFr9LHk7JGX",
      "value": 68047
    },
    {
      "scriptpubkey": "00143f1ab689e36c4485c68901388a8651562f6d3eb9",
      "scriptpubkey_asm": "OP_0 OP_PUSHBYTES_20 3f1ab689e36c4485c68901388a8651562f6d3eb9",
      "scriptpubkey_type": "v0_p2wpkh",
      "scriptpubkey_address": "bc1q8udtdz0rd3zgt35fqyug4pj32chk604e9d2yf7",
      "value": 201550
    }
  ],
  "size": 226,
  "weight": 574,
  "fee": 3888,
  "status": {
    "confirmed": true,
    "block_height": 834638,
    "block_hash": "000000000000000000025f742c626208ac87e0b7d15054abb4a19ca2d735a54e",
    "block_time": 1710405325
  },
  "hex": "0100000000010110456d6e898a1e657a0d80241e501f925e415c63ea472bbba8f33a42f83ed1400100000000ffffffff02cf090100000000001976a9141db0d9fb0263df6955b13d4a0f2870058fa9e33588ac4e130300000000001600143f1ab689e36c4485c68901388a8651562f6d3eb902483045022100fc69baad897bd295eb8ef9654475174907e878e655e11fc8a3d00ad73608fb3c0220027e5c00d3ca1e6b5f51af55620d52b558f868c14702b5abaf71511c4322e557012102e32b9fa1c2b88028ecb8efe473ba6f5b34f7cb1e19298b0c1a08a760e49797bd00000000"
}