{
  "txid": "8ee22c841ad7966a3c32bb360ed4a99c22990faa10465aadb1efa70e8a307a89",
  "version": 2,
  "locktime": 832112,
  "vin": [
    {
      "txid": "b4e5d0e07cdaf669dfbfcaab815b766239377643ebde8251cec0cdc699f9e6f4",
      "vout": 12,
      "prevout": {
        "scriptpubkey": "a91424d7aa8a0550958849cce64eb83f83fd30606a8d87",
        "scriptpubkey_asm": "OP_HASH160 OP_PUSHBYTES_20 24d7aa8a0550958849cce64eb83f83fd30606a8d OP_EQUAL",
        "scriptpubkey_type": "p2sh",
        "scriptpubkey_address": "353pcCRSqcG6wJVpzfWqZjkJyqPyC2C9md",
        "value": 80000
      },
      "scriptsig": "16001473458f32994103b8dbecf4653bd34e96d4eb98df",
      "scriptsig_asm": "OP_PUSHBYTES_22 001473458f32994103b8dbecf4653bd34e96d4eb98df",
      "witness": [
        "304402202196449213e0b33e796c24884485020157b8491c695fe1ddd33345c41d6f3f9a022078ed1b4a8d58e95ba623c0bb610d00b385f26f9034bd2ae6494fd83e5e0d83f001",
        "025af0332e526210b532b40b80ac8da36e41fb37e565f25e0c508f64230d22cca1"
      ],
      "is_coinbase": false,
      "sequence": 4294967293,
      "inner_redeemscript_asm": "OP_0 OP_PUSHBYTES_20 73458f32994103b8dbecf4653bd34e96d4eb98df"
    },
    {
      "txid": "306756e2f669cd232ae55ad625c9156833e8136125ac1c5e6f91cc4de5ac62c6",
      "vout": 0,
      "prevout": {
        "scriptpubkey": "a9142ca87708ab0f07f0ad6d8d5db0d6ee5e4e7aeec387",
        "scriptpubkey_asm": "OP_HASH160 OP_PUSHBYTES_20 2ca87708ab0f07f0ad6d8d5db0d6ee5e4e7aeec3 OP_EQUAL",
        "scriptpubkey_type": "p2sh",
        "scriptpubkey_address": "35m9U8qrw4hNDX5zAHsStpxGHqBet5cixc",
        "value": 7500
      },
      "scriptsig": "160014e6dab2182d66cc3801a255d5b4a5e3bdcca7041c",
      "scriptsig_asm": "OP_PUSHBYTES_22 0014e6dab2182d66cc3801a255d5b4a5e3bdcca7041c",
      "witness": [
        "304402205b8d87b2fc99d14f9ffc2a3505a8f0c007806218215c5bd1ffb4c9a84803468302203b613a7e60e6b4b858101d1ba7a4747427dee08af07b5410b4d6eb33a07a122401",
        "02ccc8847980fa3dd07d2d898b2c5980352cda1a0867c2724ae36ab0e3764c9f0b"
      ],
      "is_coinbase": false,
      "sequence": 4294967293,
      "inner_redeemscript_asm": "OP_0 OP_PUSHBYTES_20 e6dab2182d66cc3801a255d5b4a5e3bdcca7041c"
    },
    {
      "txid": "c2211459fd050ec37cd78c1a70cd525772dd29d23b61cf06ae44a40a2e667a72",
      "vout": 0,
      "prevout": {
        "scriptpubkey": "a914e9aa8b81b7b30faa493eb1fe9bb17979c5aa3fb787",
        "scriptpubkey_asm": "OP_HASH160 OP_PUSHBYTES_20 e9aa8b81b7b30faa493eb1fe9bb17979c5aa3fb7 OP_EQUAL",
        "scriptpubkey_type": "p2sh",
        "scriptpubkey_address": "3NzXfunmSLqPcP2M7hWh2eCuU2Co29Zygx",
        "value": 300000
      },
      "scriptsig": "160014a11b05faa7f063d3b32161902935074aa3302d6e",
      "scriptsig_asm": "OP_PUSHBYTES_22 0014a11b05faa7f063d3b32161902935074aa3302d6e",
      "witness": [
        "304402201e4c7d407f50f6319e49d8181a4dd8774dd420584b5a659531d179ef458039c3022034566687b379bb3497fdfc65c2c8ec67576f3b96bc7b0c5ebe2041b63fd0f2ef01",
        "039c07b245af8d0e66db7185eec35b260859b7661aa52d1fe50fd223d180a853dc"
      ],
      "is_coinbase": false,
      "sequence": 4294967293,
      "inner_redeemscript_asm": "OP_0 OP_PUSHBYTES_20 a11b05faa7f063d3b32161902935074aa3302d6e"
    },
    {
      "txid": "23694b59b4d570d8beb8b2b537315553348f6562bace29010e8d095ccc1374c5",
      "vout": 0,
      "prevout": {
        "scriptpubkey": "a9141a25de87a4204e84f724ea150c71c98585dbfb4387",
        "scriptpubkey_asm": "OP_HASH160 OP_PUSHBYTES_20 1a25de87a4204e84f724ea150c71c98585dbfb43 OP_EQUAL",
        "scriptpubkey_type": "p2sh",
        "scriptpubkey_address": "345GrjVdMqjga6zZzyunjigr2bdcSmzUtR",
        "value": 186925
      },
      "scriptsig": "160014f62c79e7776b02ef8b9ce1b449280a2f1d8a7fb9",
      "scriptsig_asm": "OP_PUSHBYTES_22 0014f62c79e7776b02ef8b9ce1b449280a2f1d8a7fb9",
      "witness": [
        "3044022004ff7f2bea438abcf2ea3f6234ca0593fab6660948481b2a14950f7fea5dc6a002207d962c2380607fcbd0ac8fc57154998563803e0c661abdfca0e49ba175c543cd01",
        "03340580e17b64ab7b0067c9d85c01ef76363785b6590fcfadfad3aa5bf2af0404"
      ],
      "is_coinbase": false,
      "sequence": 4294967293,
      "inner_redeemscript_asm": "OP_0 OP_PUSHBYTES_20 f62c79e7776b02ef8b9ce1b449280a2f1d8a7fb9"
    }
  ],
  "vout": [
    {
      "scriptpubkey": "76a9143a8f5c286498bb8a752f628fed6c228383d6e20388ac",
      "scriptpubkey_asm": "OP_DUP OP_HASH160 OP_PUSHBYTES_20 3a8f5c286498bb8a752f628fed6c228383d6e203 OP_EQUALVERIFY OP_CHECKSIG",
      "scriptpubkey_type": "p2pkh",
      "scriptpubkey_address": "16LdvxGrS5n8S9mfA3bq78NQNYoXdiAJgG",
      "value": 570000
    }
  ],
  "size": 730,
  "weight": 1630,
  "fee": 4425,
  "status": {
    "confirmed": true,
    "block_height": 834464,
    "block_hash": "0000000000000000000177a0869a911a2b65c9bdcd5a8bcb02b68f305bee848e",
    "block_time": 1710308296
  },
  "hex": "02000000000104f4e6f999c6cdc0ce5182deeb4376373962765b81abcabfdf69f6da7ce0d0e5b40c0000001716001473458f32994103b8dbecf4653bd34e96d4eb98dffdffffffc662ace54dcc916f5e1cac256113e8336815c925d65ae52a23cd69f6e25667300000000017160014e6dab2182d66cc3801a255d5b4a5e3bdcca7041cfdffffff727a662e0aa444ae06cf613bd229dd725752cd701a8cd77cc30e05fd591421c20000000017160014a11b05faa7f063d3b32161902935074aa3302d6efdffffffc57413cc5c098d0e0129ceba62658f3453553137b5b2b8bed870d5b4594b69230000000017160014f62c79e7776b02ef8b9ce1b449280a2f1d8a7fb9fdffffff0190b20800000000001976a9143a8f5c286498bb8a752f628fed6c228383d6e20388ac0247304402202196449213e0b33e796c24884485020157b8491c695fe1ddd33345c41d6f3f9a022078ed1b4a8d58e95ba623c0bb610d00b385f26f9034bd2ae6494fd83e5e0d83f00121025af0332e526210b532b40b80ac8da36e41fb37e565f25e0c508f64230d22cca10247304402205b8d87b2fc99d14f9ffc2a3505a8f0c007806218215c5bd1ffb4c9a84803468302203b613a7e60e6b4b858101d1ba7a4747427dee08af07b5410b4d6eb33a07a1224012102ccc8847980fa3dd07d2d898b2c5980352cda1a0867c2724ae36ab0e3764c9f0b0247304402201e4c7d407f50f6319e49d8181a4dd8774dd420584b5a659531d179ef458039c3022034566687b379bb3497fdfc65c2c8ec67576f3b96bc7b0c5ebe2041b63fd0f2ef0121039c07b245af8d0e66db7185eec35b260859b7661aa52d1fe50fd223d180a853dc02473044022004ff7f2bea438abcf2ea3f6234ca0593fab6660948481b2a14950f7fea5dc6a002207d962c2380607fcbd0ac8fc57154998563803e0c661abdfca0e49ba175c543cd012103340580e17b64ab7b0067c9d85c01ef76363785b6590fcfadfad3aa5bf2af040470b20c00"
}