{
  "txid": "8f07ed0bb51d111a7e8b6c310c8f13636fddaf34a6345761cb842b28b8e1041d",
  "version": 2,
  "locktime": 0,
  "vin": [
    {
      "txid": "50008b3d73a39c6c1612bf1bc73b2efec240db8ab196a1d6a54190be9caa6177",
      "vout": 1,
      "prevout": {
        "scriptpubkey": "a914f01a60d24d4aa15e13d4da56b6281f68a7b25e7c87",
        "scriptpubkey_asm": "OP_HASH160 OP_PUSHBYTES_20 f01a60d24d4aa15e13d4da56b6281f68a7b25e7c OP_EQUAL",
        "scriptpubkey_type": "p2sh",
        "scriptpubkey_address": "3PaZhNbWSF4EsmfsqTE4gWsN1G7BjmqPN3",
        "value": 1775884
      },
      "scriptsig": "1600140c1e85be4e5459b9957c35e6f0f511ab35b36994",
      "scriptsig_asm": "OP_PUSHBYTES_22 00140c1e85be4e5459b9957c35e6f0f511ab35b36994",
      "witness": [
        "304502210080893e4f959f4f0841d0aade04e7dcb492c9181876c4e821bd1906c3fce471d2022014f0e3e745bce1dc1e46200c1883d2060dea29a88c1bd13fc2abb1c13b94a6bb01",
        "029e8797f86ae98d65abc886812cb2be69ca9f7049cfa1f9a24184263745967fc9"
      ],
      "is_coinbase": false,
      "sequence": 4294967293,
      "inner_redeemscript_asm": "OP_0 OP_PUSHBYTES_20 0c1e85be4e5459b9957c35e6f0f511ab35b36994"
    }
  ],
  "vout": [
    {
      "scriptpubkey": "51202737ef85dd4c3e5ee88bdf7469c7913e8e65c80b2eeea910bc01a35a49682d30",
      "scriptpubkey_asm": "OP_PUSHNUM_1 OP_PUSHBYTES_32 2737ef85dd4c3e5ee88bdf7469c7913e8e65c80b2eeea910bc01a35a49682d30",
      "scriptpubkey_type": "v1_p2tr",
      "scriptpubkey_address": "bc1pyum7lpwafsl9a6ytma6xn3u3868xtjqt9mh2jy9uqx345jtg95cqg8l7lp",
      "value": 204389
    },
    {
      "scriptpubkey": "a914f01a60d24d4aa15e13d4da56b6281f68a7b25e7c87",
      "scriptpubkey_asm": "OP_HASH160 OP_PUSHBYTES_20 f01a60d24d4aa15e13d4da56b6281f68a7b25e7c OP_EQUAL",
      "scriptpubkey_type": "p2sh",
      "scriptpubkey_address": "3PaZhNbWSF4EsmfsqTE4gWsN1G7BjmqPN3",
      "value": 1568840
    }
  ],
  "size": 259,
  "weight": 706,
  "fee": 2655,
  "status": {
    "confirmed": true,
    "block_height": 834638,
    "block_hash": "000000000000000000025f742c626208ac87e0b7d15054abb4a19ca2d735a54e",
    "block_time": 1710405325
  },
  "hex": "020000000001017761aa9cbe9041a5d6a196b18adb40c2fe2e3bc71bbf12166c9ca3733d8b005001000000171600140c1e85be4e5459b9957c35e6f0f511ab35b36994fdffffff02651e0300000000002251202737ef85dd4c3e5ee88bdf7469c7913e8e65c80b2eeea910bc01a35a49682d3048f017000000000017a914f01a60d24d4aa15e13d4da56b6281f68a7b25e7c870248304502210080893e4f959f4f0841d0aade04e7dcb492c9181876c4e821bd1906c3fce471d2022014f0e3e745bce1dc1e46200c1883d2060dea29a88c1bd13fc2abb1c13b94a6bb0121029e8797f86ae98d65abc886812cb2be69ca9f7049cfa1f9a24184263745967fc900000000"
}