{
  "txid": "8f267cdc60335f9c8cd006739be87d9f04f0e96bf394638bf87d54b2a405d05f",
  "version": 2,
  "locktime": 0,
  "vin": [
    {
      "txid": "4549f92c7b39aa04ec2225080d3146ca56cbbb0ca8dde13c429a550cff898ad3",
      "vout": 22,
      "prevout": {
        "scriptpubkey": "0014a143dcc42f2eed32ea3e6913e0fab45d763a639d",
        "scriptpubkey_asm": "OP_0 OP_PUSHBYTES_20 a143dcc42f2eed32ea3e6913e0fab45d763a639d",
        "scriptpubkey_type": "v0_p2wpkh",
        "scriptpubkey_address": "bc1q59pae3p09mkn9637dyf7p745t4mr5cuarfmvpv",
        "value": 160780
      },
      "scriptsig": "",
      "scriptsig_asm": "",
      "witness": [
        "3045022100aed0ab2f66d5d085b7e99e448ce08f4ee884fa6acc71f3dada0619d4b9d1f3c602202a1fa2b801b091ce535f0dfea6e439cc8f2ea25c8da73211f9e81f07d071960081",
        "03d0ea3039fabf9b27bdcee328882cee6fe30d477868eadc7724f0515299aae176"
      ],
      "is_coinbase": false,
      "sequence": 4294967290
    },
    {
      "txid": "0fd5cb2f2abf465668fb737f2756a45985f113d9059c588410a87baec45cb05b",
      "vout": 0,
      "prevout": {
        "scriptpubkey": "0014f9d5a266cd2de4885740b6ae510e623b7cd67ab3",
        "scriptpubkey_asm": "OP_0 OP_PUSHBYTES_20 f9d5a266cd2de4885740b6ae510e623b7cd67ab3",
        "scriptpubkey_type": "v0_p2wpkh",
        "scriptpubkey_address": "bc1ql826yekd9hjgs46qk6h9zrnz8d7dv74nsf9g2l",
        "value": 829143
      },
      "scriptsig": "",
      "scriptsig_asm": "",
      "witness": [
        "3044022059011b443f06a877766412194d21c653cebd0c20792a734d900e1b424f8e8da8022078720e152e4aee60c9f914014655bd724d3bcde320bc1bedb31db331711a780281",
        "037065bfd2709d2d96f9e607495b84eed2f808866d382be175ec533ae042359574"
      ],
      "is_coinbase": false,
      "sequence": 4294967290
    }
  ],
  "vout": [
    {
      "scriptpubkey": "00146907148a22a7052a5712ce60462d81207524069c",
      "scriptpubkey_asm": "OP_0 OP_PUSHBYTES_20 6907148a22a7052a5712ce60462d81207524069c",
      "scriptpubkey_type": "v0_p2wpkh",
      "scriptpubkey_address": "bc1qdyr3fz3z5uzj54cjeesyvtvpyp6jgp5uwangz6",
      "value": 55676
    },
    {
      "scriptpubkey": "0014adcadcc60967d9a77fabdc9798311b6c758d0f94",
      "scriptpubkey_asm": "OP_0 OP_PUSHBYTES_20 adcadcc60967d9a77fabdc9798311b6c758d0f94",
      "scriptpubkey_type": "v0_p2wpkh",
      "scriptpubkey_address": "bc1q4h9de3sfvlv6wlatmjtesvgmd36c6ru588hsza",
      "value": 931317
    }
  ],
  "size": 371,
  "weight": 833,
  "fee": 2930,
  "status": {
    "confirmed": true,
    "block_height": 834464,
    "block_hash": "0000000000000000000177a0869a911a2b65c9bdcd5a8bcb02b68f305bee848e",
    "block_time": 1710308296
  },
  "hex": "02000000000102d38a89ff0c559a423ce1dda80cbbcb56ca46310d082522ec04aa397b2cf949451600000000faffffff5bb05cc4ae7ba81084589c05d913f18559a456277f73fb685646bf2a2fcbd50f0000000000faffffff027cd90000000000001600146907148a22a7052a5712ce60462d81207524069cf5350e0000000000160014adcadcc60967d9a77fabdc9798311b6c758d0f9402483045022100aed0ab2f66d5d085b7e99e448ce08f4ee884fa6acc71f3dada0619d4b9d1f3c602202a1fa2b801b091ce535f0dfea6e439cc8f2ea25c8da73211f9e81f07d0719600812103d0ea3039fabf9b27bdcee328882cee6fe30d477868eadc7724f0515299aae17602473044022059011b443f06a877766412194d21c653cebd0c20792a734d900e1b424f8e8da8022078720e152e4aee60c9f914014655bd724d3bcde320bc1bedb31db331711a78028121037065bfd2709d2d96f9e607495b84eed2f808866d382be175ec533ae04235957400000000"
}