{
  "txid": "8f2bea76e84bbd50f2653dde51904cd9ec30fb30a3cf7ce63c8117e66cb1e42e",
  "version": 1,
  "locktime": 0,
  "vin": [
    {
      "txid": "81f4a7a737e2b96c3b7d06ec4712c8eaaf913dc3ca4af284e7f1e1d421bf75be",
      "vout": 10,
      "prevout": {
        "scriptpubkey": "0014ca28f788988da13ba7369a6f652571b4e014ed79",
        "scriptpubkey_asm": "OP_0 OP_PUSHBYTES_20 ca28f788988da13ba7369a6f652571b4e014ed79",
        "scriptpubkey_type": "v0_p2wpkh",
        "scriptpubkey_address": "bc1qeg500zyc3ksnhfeknfhk2ft3knspfmte49fhn9",
        "value": 452292
      },
      "scriptsig": "",
      "scriptsig_asm": "",
      "witness": [
        "3044022029d214507311cd25915610612c8f1dd7f2ebf2177f30268d4c160144a74acbde02206759b00cdf575ce872859a6da1c9719fcc4cf294087eff2b1ac0442ef35c314e01",
        "02b5c9052f1b8925193e7abbcf0c6d108ec59e387a5e1a23796890b309376decea"
      ],
      "is_coinbase": false,
      "sequence": 4294967295
    }
  ],
  "vout": [
    {
      "scriptpubkey": "a9140acdf36495a5be00f6008c033f2e2ae77e17758487",
      "scriptpubkey_asm": "OP_HASH160 OP_PUSHBYTES_20 0acdf36495a5be00f6008c033f2e2ae77e177584 OP_EQUAL",
      "scriptpubkey_type": "p2sh",
      "scriptpubkey_address": "32g9QAtSZVuyXi5E9xm75cnM3Sfna9Kfdn",
      "value": 21310
    },
    {
      "scriptpubkey": "a914dc59ab70fd7e7df7444d870062e1ecdc451843a587",
      "scriptpubkey_asm": "OP_HASH160 OP_PUSHBYTES_20 dc59ab70fd7e7df7444d870062e1ecdc451843a5 OP_EQUAL",
      "scriptpubkey_type": "p2sh",
      "scriptpubkey_address": "3Mn8176bxfkkiMMrNsZiJSYT3vW9DnYsVf",
      "value": 167847
    },
    {
      "scriptpubkey": "00149308bee6c7a2db40f9ce8be41a98cf0c2ea288ab",
      "scriptpubkey_asm": "OP_0 OP_PUSHBYTES_20 9308bee6c7a2db40f9ce8be41a98cf0c2ea288ab",
      "scriptpubkey_type": "v0_p2wpkh",
      "scriptpubkey_address": "bc1qjvytaek85td5p7ww30jp4xx0psh29z9tgz8mxs",
      "value": 47663
    },
    {
      "scriptpubkey": "76a9146d076fb04c65168f00c020492c5375e1bfa5160f88ac",
      "scriptpubkey_asm": "OP_DUP OP_HASH160 OP_PUSHBYTES_20 6d076fb04c65168f00c020492c5375e1bfa5160f OP_EQUALVERIFY OP_CHECKSIG",
      "scriptpubkey_type": "p2pkh",
      "scriptpubkey_address": "1AwVZbK4X97jgqvxdpder93kkYAQyMG71E",
      "value": 58730
    },
    {
      "scriptpubkey": "001451cda121a01c4993d56836426abf14363c17dc21",
      "scriptpubkey_asm": "OP_0 OP_PUSHBYTES_20 51cda121a01c4993d56836426abf14363c17dc21",
      "scriptpubkey_type": "v0_p2wpkh",
      "scriptpubkey_address": "bc1q28x6zgdqr3ye84tgxepx40c5xc7p0hppl69jwz",
      "value": 137528
    },
    {
      "scriptpubkey": "00149daedd2a34a4b76d3e027e31bc18f7f3593db770",
      "scriptpubkey_asm": "OP_0 OP_PUSHBYTES_20 9daedd2a34a4b76d3e027e31bc18f7f3593db770",
      "scriptpubkey_type": "v0_p2wpkh",
      "scriptpubkey_address": "bc1qnkhd62355jmk60sz0ccmcx8h7dvnmdms6jsmyl",
      "value": 11925
    }
  ],
  "size": 351,
  "weight": 1077,
  "fee": 7289,
  "status": {
    "confirmed": true,
    "block_height": 834638,
    "block_hash": "000000000000000000025f742c626208ac87e0b7d15054abb4a19ca2d735a54e",
    "block_time": 1710405325
  },
  "hex": "01000000000101be75bf21d4e1f1e784f24acac33d91afeac81247ec067d3b6cb9e237a7a7f4810a00000000ffffffff063e5300000000000017a9140acdf36495a5be00f6008c033f2e2ae77e17758487a78f02000000000017a914dc59ab70fd7e7df7444d870062e1ecdc451843a5872fba0000000000001600149308bee6c7a2db40f9ce8be41a98cf0c2ea288ab6ae50000000000001976a9146d076fb04c65168f00c020492c5375e1bfa5160f88ac381902000000000016001451cda121a01c4993d56836426abf14363c17dc21952e0000000000001600149daedd2a34a4b76d3e027e31bc18f7f3593db77002473044022029d214507311cd25915610612c8f1dd7f2ebf2177f30268d4c160144a74acbde02206759b00cdf575ce872859a6da1c9719fcc4cf294087eff2b1ac0442ef35c314e012102b5c9052f1b8925193e7abbcf0c6d108ec59e387a5e1a23796890b309376decea00000000"
}