{
  "txid": "8f40974a37ce9865fb4560d2be69716014c511403b8d6c16096f5982200d80bc",
  "version": 1,
  "locktime": 0,
  "vin": [
    {
      "txid": "e369bd1194a6bc1dad0b61252ebfc9bb80895f41468e6074b303798e567ce266",
      "vout": 3896,
      "prevout": {
        "scriptpubkey": "76a9145d196994f01d493859e6b10831d923561ff283b088ac",
        "scriptpubkey_asm": "OP_DUP OP_HASH160 OP_PUSHBYTES_20 5d196994f01d493859e6b10831d923561ff283b0 OP_EQUALVERIFY OP_CHECKSIG",
        "scriptpubkey_type": "p2pkh",
        "scriptpubkey_address": "19VGHXYxV6aftJpaEj1ticXNCoQSYM8RTh",
        "value": 89055
      },
      "scriptsig": "483045022100bf7cee746052093aed5c53b8226cb7a29d64cea17008e7400f33f4b7ed8c933102204a58fdefe40b44899e64a51e0f602981ed27175c93cd721cbcfe671646f1d0eb01410446d365e043ff2aea841ed22a037af261fe787026aba239c5be07df055eafc57f952661ab28ea119b7410980c1200b8f8c53cde935d8f46ee2f157eaf94dea107",
      "scriptsig_asm": "OP_PUSHBYTES_72 3045022100bf7cee746052093aed5c53b8226cb7a29d64cea17008e7400f33f4b7ed8c933102204a58fdefe40b44899e64a51e0f602981ed27175c93cd721cbcfe671646f1d0eb01 OP_PUSHBYTES_65 0446d365e043ff2aea841ed22a037af261fe787026aba239c5be07df055eafc57f952661ab28ea119b7410980c1200b8f8c53cde935d8f46ee2f157eaf94dea107",
      "is_coinbase": false,
      "sequence": 4294967295
    },
    {
      "txid": "a9908b949a2b5b3b7222c7245005417b5942811374dd5d6673f4bafc6d94ef89",
      "vout": 7,
      "prevout": {
        "scriptpubkey": "76a9145d196994f01d493859e6b10831d923561ff283b088ac",
        "scriptpubkey_asm": "OP_DUP OP_HASH160 OP_PUSHBYTES_20 5d196994f01d493859e6b10831d923561ff283b0 OP_EQUALVERIFY OP_CHECKSIG",
        "scriptpubkey_type": "p2pkh",
        "scriptpubkey_address": "19VGHXYxV6aftJpaEj1ticXNCoQSYM8RTh",
        "value": 36145
      },
      "scriptsig": "47304402201ecfae7ecd4576e0895f28832614649099b3e98695603ba79e3a6d7230b821970220309eae6c7d84832706c4774a42e38524eb2197fc56e5e6522b3f6bd7a033d48501410446d365e043ff2aea841ed22a037af261fe787026aba239c5be07df055eafc57f952661ab28ea119b7410980c1200b8f8c53cde935d8f46ee2f157eaf94dea107",
      "scriptsig_asm": "OP_PUSHBYTES_71 304402201ecfae7ecd4576e0895f28832614649099b3e98695603ba79e3a6d7230b821970220309eae6c7d84832706c4774a42e38524eb2197fc56e5e6522b3f6bd7a033d48501 OP_PUSHBYTES_65 0446d365e043ff2aea841ed22a037af261fe787026aba239c5be07df055eafc57f952661ab28ea119b7410980c1200b8f8c53cde935d8f46ee2f157eaf94dea107",
      "is_coinbase": false,
      "sequence": 4294967295
    }
  ],
  "vout": [
    {
      "scriptpubkey": "00142690c794c782e6aeb1cb089238cb9c3bae2a21e4",
      "scriptpubkey_asm": "OP_0 OP_PUSHBYTES_20 2690c794c782e6aeb1cb089238cb9c3bae2a21e4",
      "scriptpubkey_type": "v0_p2wpkh",
      "scriptpubkey_address": "bc1qy6gv09x8stn2avwtpzfr3juu8whz5g0yf0cqy2",
      "value": 116939
    }
  ],
  "size": 400,
  "weight": 1600,
  "fee": 8261,
  "status": {
    "confirmed": true,
    "block_height": 834460,
    "block_hash": "00000000000000000000484a79b643b2524bbce82e5d8a442013fa5b8905ed98",
    "block_time": 1710307468
  },
  "hex": "010000000266e27c568e7903b374608e46415f8980bbc9bf2e25610bad1dbca69411bd69e3380f00008b483045022100bf7cee746052093aed5c53b8226cb7a29d64cea17008e7400f33f4b7ed8c933102204a58fdefe40b44899e64a51e0f602981ed27175c93cd721cbcfe671646f1d0eb01410446d365e043ff2aea841ed22a037af261fe787026aba239c5be07df055eafc57f952661ab28ea119b7410980c1200b8f8c53cde935d8f46ee2f157eaf94dea107ffffffff89ef946dfcbaf473665ddd74138142597b41055024c722723b5b2b9a948b90a9070000008a47304402201ecfae7ecd4576e0895f28832614649099b3e98695603ba79e3a6d7230b821970220309eae6c7d84832706c4774a42e38524eb2197fc56e5e6522b3f6bd7a033d48501410446d365e043ff2aea841ed22a037af261fe787026aba239c5be07df055eafc57f952661ab28ea119b7410980c1200b8f8c53cde935d8f46ee2f157eaf94dea107ffffffff01cbc80100000000001600142690c794c782e6aeb1cb089238cb9c3bae2a21e400000000"
}