{
  "txid": "8f607366d3e27a776f5b8db05c5381d909fc979bc823ca772d8a0549ac796ef8",
  "version": 2,
  "locktime": 0,
  "vin": [
    {
      "txid": "10e5640392798bc6067e23dde163b66165b9e22663886bb43e295fa2886e60b6",
      "vout": 1,
      "prevout": {
        "scriptpubkey": "0014ecfb32752ffb77937f6b038c199c4cb40e0f07db",
        "scriptpubkey_asm": "OP_0 OP_PUSHBYTES_20 ecfb32752ffb77937f6b038c199c4cb40e0f07db",
        "scriptpubkey_type": "v0_p2wpkh",
        "scriptpubkey_address": "bc1qananyaf0ldmexlmtqwxpn8zvks8q7p7m4dzzsv",
        "value": 155953028
      },
      "scriptsig": "",
      "scriptsig_asm": "",
      "witness": [
        "3045022100c6b4025ce57de556adba8b3ea973156a1cbf203cf57092ae2fc1ec152c031d4502205771a07596db2fafcf6cc2e43a7ce255282ecdca384777807bc682d51bfe9e0401",
        "0258bb6f0155fb409f6cfecea2f85e4bc9555aa479cf4442d372fa2b8713169800"
      ],
      "is_coinbase": false,
      "sequence": 4294967295
    }
  ],
  "vout": [
    {
      "scriptpubkey": "001474f8a6d6b5fb2803cc6f3b36e70e0a96afdc590f",
      "scriptpubkey_asm": "OP_0 OP_PUSHBYTES_20 74f8a6d6b5fb2803cc6f3b36e70e0a96afdc590f",
      "scriptpubkey_type": "v0_p2wpkh",
      "scriptpubkey_address": "bc1qwnu2d444lv5q8nr08vmwwrs2j6hackg00rrydg",
      "value": 745567
    },
    {
      "scriptpubkey": "0014a25d9b1337ec69592e8339716803d006dfed97b0",
      "scriptpubkey_asm": "OP_0 OP_PUSHBYTES_20 a25d9b1337ec69592e8339716803d006dfed97b0",
      "scriptpubkey_type": "v0_p2wpkh",
      "scriptpubkey_address": "bc1q5fwekyeha354jt5r89cksq7sqm07m9asqrpc0r",
      "value": 155205364
    }
  ],
  "size": 223,
  "weight": 562,
  "fee": 2097,
  "status": {
    "confirmed": true,
    "block_height": 834638,
    "block_hash": "000000000000000000025f742c626208ac87e0b7d15054abb4a19ca2d735a54e",
    "block_time": 1710405325
  },
  "hex": "02000000000101b6606e88a25f293eb46b886326e2b96561b663e1dd237e06c68b79920364e5100100000000ffffffff025f600b000000000016001474f8a6d6b5fb2803cc6f3b36e70e0a96afdc590ff43e400900000000160014a25d9b1337ec69592e8339716803d006dfed97b002483045022100c6b4025ce57de556adba8b3ea973156a1cbf203cf57092ae2fc1ec152c031d4502205771a07596db2fafcf6cc2e43a7ce255282ecdca384777807bc682d51bfe9e0401210258bb6f0155fb409f6cfecea2f85e4bc9555aa479cf4442d372fa2b871316980000000000"
}