{
  "txid": "8f648d2f81702a89404c19100a71c7146e52782ed486f081b0d29f91be613e92",
  "version": 2,
  "locktime": 834550,
  "vin": [
    {
      "txid": "2ff1c8f1f0d950f53fcd78f93e0c6ed08d401d9d6fa0a9e7eb933cfd5b5ece60",
      "vout": 154,
      "prevout": {
        "scriptpubkey": "00146952ae824a2b3e5c8b10fce0c2adb268fb086cc7",
        "scriptpubkey_asm": "OP_0 OP_PUSHBYTES_20 6952ae824a2b3e5c8b10fce0c2adb268fb086cc7",
        "scriptpubkey_type": "v0_p2wpkh",
        "scriptpubkey_address": "bc1qd9f2aqj29vl9ezcslnsv9tdjdrassmx8yf9kk7",
        "value": 46824
      },
      "scriptsig": "",
      "scriptsig_asm": "",
      "witness": [
        "304402207d5b8d1ff82dffb5b33f80b7a1c6a23c19fd5a4e596a5d1d63b3ab74ef2ab07302204a9c8c7580fcc97adecb6b7cb3906177f372681eb22aa0592872ab2dacc52b5701",
        "02d2ec8a310484163689517bfe9ae9dec8351984a50e2bd32b96efffd318348dda"
      ],
      "is_coinbase": false,
      "sequence": 4294967293
    },
    {
      "txid": "07d5520d1caee5c908305da0ec2056facd3e8aba9aada4d6c667816713e5112f",
      "vout": 173,
      "prevout": {
        "scriptpubkey": "001453b86649ebbd44bfac66e230deaee17cd737b470",
        "scriptpubkey_asm": "OP_0 OP_PUSHBYTES_20 53b86649ebbd44bfac66e230deaee17cd737b470",
        "scriptpubkey_type": "v0_p2wpkh",
        "scriptpubkey_address": "bc1q2wuxvj0th4ztltrxugcdathp0ntn0drsuen90d",
        "value": 1148080
      },
      "scriptsig": "",
      "scriptsig_asm": "",
      "witness": [
        "30440220705a62a071d500acbfb8030ca96a033f45d70a4bc4e7a06f2618314c9e2d6502022069ef993cbe794d6e1733109477196ae352b8a96b2e1cd8f35928dba756b3d1ac01",
        "037720390de3f8ae187707ed8c862d21cd584d70c039492105b00070c3fc987a39"
      ],
      "is_coinbase": false,
      "sequence": 4294967293
    }
  ],
  "vout": [
    {
      "scriptpubkey": "a9144943cb96eb5530a3ac86dc3868db9023d32bc50187",
      "scriptpubkey_asm": "OP_HASH160 OP_PUSHBYTES_20 4943cb96eb5530a3ac86dc3868db9023d32bc501 OP_EQUAL",
      "scriptpubkey_type": "p2sh",
      "scriptpubkey_address": "38NQU3b4i9PWZ52DRf1P3XGUigJqbbGP9o",
      "value": 191289
    },
    {
      "scriptpubkey": "0014f40bb1b96ae8afa73d12c63eea9429b1c9cd5838",
      "scriptpubkey_asm": "OP_0 OP_PUSHBYTES_20 f40bb1b96ae8afa73d12c63eea9429b1c9cd5838",
      "scriptpubkey_type": "v0_p2wpkh",
      "scriptpubkey_address": "bc1q7s9mrwt2azh6w0gjcclw49pfk8yu6kpct5peza",
      "value": 1000885
    }
  ],
  "size": 371,
  "weight": 836,
  "fee": 2730,
  "status": {
    "confirmed": true,
    "block_height": 834552,
    "block_hash": "00000000000000000001dd0468a70c94f619251d286585cff57aeb4bd9ede330",
    "block_time": 1710355598
  },
  "hex": "0200000000010260ce5e5bfd3c93ebe7a9a06f9d1d408dd06e0c3ef978cd3ff550d9f0f1c8f12f9a00000000fdffffff2f11e513678167c6d6a4ad9aba8a3ecdfa5620eca05d3008c9e5ae1c0d52d507ad00000000fdffffff0239eb02000000000017a9144943cb96eb5530a3ac86dc3868db9023d32bc50187b5450f0000000000160014f40bb1b96ae8afa73d12c63eea9429b1c9cd58380247304402207d5b8d1ff82dffb5b33f80b7a1c6a23c19fd5a4e596a5d1d63b3ab74ef2ab07302204a9c8c7580fcc97adecb6b7cb3906177f372681eb22aa0592872ab2dacc52b57012102d2ec8a310484163689517bfe9ae9dec8351984a50e2bd32b96efffd318348dda024730440220705a62a071d500acbfb8030ca96a033f45d70a4bc4e7a06f2618314c9e2d6502022069ef993cbe794d6e1733109477196ae352b8a96b2e1cd8f35928dba756b3d1ac0121037720390de3f8ae187707ed8c862d21cd584d70c039492105b00070c3fc987a39f6bb0c00"
}