{
  "txid": "8f654f4732bb511b1a5e9e0930f546daaa31a3f7b717699862e908ea6e776d3b",
  "version": 2,
  "locktime": 0,
  "vin": [
    {
      "txid": "9a9c372229a89a42ff593bb0d11f001642f3ab4faa9b442ed4a5a4797a6933d1",
      "vout": 1,
      "prevout": {
        "scriptpubkey": "0014fac1c6ffbfd8d36ecf4b00b39ae12b9f351d617c",
        "scriptpubkey_asm": "OP_0 OP_PUSHBYTES_20 fac1c6ffbfd8d36ecf4b00b39ae12b9f351d617c",
        "scriptpubkey_type": "v0_p2wpkh",
        "scriptpubkey_address": "bc1qltqudlalmrfkan6tqzee4cftnu636ctuf5mnwc",
        "value": 222609
      },
      "scriptsig": "",
      "scriptsig_asm": "",
      "witness": [
        "3044022002c9b4ca39c880a4e98409ceeca1ff3b3f3e8729e4016e2984b0999d209d6be302202004093b03969262d176becea04cad9a3a7451f456b4a505c3472a920f05a4e401",
        "03fcc703bf89c4b052cb5c20059f3026f91e72f5be975db6f0cbed878ee1b53d09"
      ],
      "is_coinbase": false,
      "sequence": 0
    },
    {
      "txid": "674d8f2e888895ef820e910d207e06df9c7db296c08cc8be3f3231fca1fdc237",
      "vout": 9,
      "prevout": {
        "scriptpubkey": "0014eec8751db2353d67c2e44104b03aaaa59558f971",
        "scriptpubkey_asm": "OP_0 OP_PUSHBYTES_20 eec8751db2353d67c2e44104b03aaaa59558f971",
        "scriptpubkey_type": "v0_p2wpkh",
        "scriptpubkey_address": "bc1qamy828djx57k0shygyztqw425k2437t3fczn8h",
        "value": 8562980
      },
      "scriptsig": "",
      "scriptsig_asm": "",
      "witness": [
        "3045022100b343acf835b30e8e6d4692dc48f696443bd586368571ae0f6a06592f513899ec02204534df7319db7e2468c63137b096781444298f893c4efa683bb0f28415f78dce01",
        "0217b81a5b60e266eb38fa864fc0b48e67e399bfc5c2c408de4316ec4720965227"
      ],
      "is_coinbase": false,
      "sequence": 0
    }
  ],
  "vout": [
    {
      "scriptpubkey": "a914fa7254ceccf8bef895c49dce408dd39b11389a0b87",
      "scriptpubkey_asm": "OP_HASH160 OP_PUSHBYTES_20 fa7254ceccf8bef895c49dce408dd39b11389a0b OP_EQUAL",
      "scriptpubkey_type": "p2sh",
      "scriptpubkey_address": "3QXFpNsq5RoFhoKq9rThHfiSnvs5yzhcJD",
      "value": 1428942
    },
    {
      "scriptpubkey": "0014ffc45c821c037f87c24ecb2a9d810913bf9b69c7",
      "scriptpubkey_asm": "OP_0 OP_PUSHBYTES_20 ffc45c821c037f87c24ecb2a9d810913bf9b69c7",
      "scriptpubkey_type": "v0_p2wpkh",
      "scriptpubkey_address": "bc1qllz9eqsuqdlc0sjwev4fmqgfzwlek6w8wfqzr5",
      "value": 7351004
    }
  ],
  "size": 372,
  "weight": 837,
  "fee": 5643,
  "status": {
    "confirmed": true,
    "block_height": 834638,
    "block_hash": "000000000000000000025f742c626208ac87e0b7d15054abb4a19ca2d735a54e",
    "block_time": 1710405325
  },
  "hex": "02000000000102d133697a79a4a5d42e449baa4fabf34216001fd1b03b59ff429aa82922379c9a01000000000000000037c2fda1fc31323fbec88cc096b27d9cdf067e200d910e82ef9588882e8f4d6709000000000000000002cecd15000000000017a914fa7254ceccf8bef895c49dce408dd39b11389a0b87dc2a700000000000160014ffc45c821c037f87c24ecb2a9d810913bf9b69c702473044022002c9b4ca39c880a4e98409ceeca1ff3b3f3e8729e4016e2984b0999d209d6be302202004093b03969262d176becea04cad9a3a7451f456b4a505c3472a920f05a4e4012103fcc703bf89c4b052cb5c20059f3026f91e72f5be975db6f0cbed878ee1b53d0902483045022100b343acf835b30e8e6d4692dc48f696443bd586368571ae0f6a06592f513899ec02204534df7319db7e2468c63137b096781444298f893c4efa683bb0f28415f78dce01210217b81a5b60e266eb38fa864fc0b48e67e399bfc5c2c408de4316ec472096522700000000"
}