{
  "txid": "8f82186c8a18f34a42c4fa2f536f6de0523d6cc772c383875d19a2b0dd463bc7",
  "version": 1,
  "locktime": 0,
  "vin": [
    {
      "txid": "63b9b658f285efac0baa4bd05b5fe6d46580c4c603de344296c1eb64a6511058",
      "vout": 0,
      "prevout": {
        "scriptpubkey": "a914430589af44a74ecec0c261537bae234fc65a480887",
        "scriptpubkey_asm": "OP_HASH160 OP_PUSHBYTES_20 430589af44a74ecec0c261537bae234fc65a4808 OP_EQUAL",
        "scriptpubkey_type": "p2sh",
        "scriptpubkey_address": "37oPqAuYmFNAyPS5VnbjtGa27mNDcKAL4G",
        "value": 200000000
      },
      "scriptsig": "00473044022076a361fd9da294b0cad3e01dfdc9aa467df81e24751b76b8d2ee1d13c71635d002203cd21ad751e36b7d0fd71a592221713c9eb7d66dd900d1655f520b3aa8258c9701483045022100b0462bced7d5a1b66fcdb628180869f7ac4b48272688cb5b58823a07a21e756702206c96b327a2885bb4b7cf91f5eb6b26c539450da68d6952349c9e8bc6c29cb399014c695221026dfed6c33fe13edc613d644e832e66623ce3ffd27aa83acd564b97deba25a61a210374d3d89d96db639e765fa7b2d6d8e4ae55dcd6bc1088612afb03a243739022ad21028138fb1fd9a7deaf31160197df159beb14329835ad4f4ed132aff2a7a22a5c1553ae",
      "scriptsig_asm": "OP_0 OP_PUSHBYTES_71 3044022076a361fd9da294b0cad3e01dfdc9aa467df81e24751b76b8d2ee1d13c71635d002203cd21ad751e36b7d0fd71a592221713c9eb7d66dd900d1655f520b3aa8258c9701 OP_PUSHBYTES_72 3045022100b0462bced7d5a1b66fcdb628180869f7ac4b48272688cb5b58823a07a21e756702206c96b327a2885bb4b7cf91f5eb6b26c539450da68d6952349c9e8bc6c29cb39901 OP_PUSHDATA1 5221026dfed6c33fe13edc613d644e832e66623ce3ffd27aa83acd564b97deba25a61a210374d3d89d96db639e765fa7b2d6d8e4ae55dcd6bc1088612afb03a243739022ad21028138fb1fd9a7deaf31160197df159beb14329835ad4f4ed132aff2a7a22a5c1553ae",
      "is_coinbase": false,
      "sequence": 4294967295,
      "inner_redeemscript_asm": "OP_PUSHNUM_2 OP_PUSHBYTES_33 026dfed6c33fe13edc613d644e832e66623ce3ffd27aa83acd564b97deba25a61a OP_PUSHBYTES_33 0374d3d89d96db639e765fa7b2d6d8e4ae55dcd6bc1088612afb03a243739022ad OP_PUSHBYTES_33 028138fb1fd9a7deaf31160197df159beb14329835ad4f4ed132aff2a7a22a5c15 OP_PUSHNUM_3 OP_CHECKMULTISIG"
    }
  ],
  "vout": [
    {
      "scriptpubkey": "a9145a6d069885221037eab1939851fa9d22a3c59ca787",
      "scriptpubkey_asm": "OP_HASH160 OP_PUSHBYTES_20 5a6d069885221037eab1939851fa9d22a3c59ca7 OP_EQUAL",
      "scriptpubkey_type": "p2sh",
      "scriptpubkey_address": "39w9M3wGRi2XFaBkC6aze9we6UEgUWukzs",
      "value": 164882854
    },
    {
      "scriptpubkey": "a91479f217d9c4b76802926b26a474555d0fee5d5d8c87",
      "scriptpubkey_asm": "OP_HASH160 OP_PUSHBYTES_20 79f217d9c4b76802926b26a474555d0fee5d5d8c OP_EQUAL",
      "scriptpubkey_type": "p2sh",
      "scriptpubkey_address": "3Coohgb248RCYTiWUCutrQus6dj6WrRs6y",
      "value": 35085186
    }
  ],
  "size": 370,
  "weight": 1480,
  "fee": 31960,
  "status": {
    "confirmed": true,
    "block_height": 834638,
    "block_hash": "000000000000000000025f742c626208ac87e0b7d15054abb4a19ca2d735a54e",
    "block_time": 1710405325
  },
  "hex": "0100000001581051a664ebc1964234de03c6c48065d4e65f5bd04baa0bacef85f258b6b96300000000fdfd0000473044022076a361fd9da294b0cad3e01dfdc9aa467df81e24751b76b8d2ee1d13c71635d002203cd21ad751e36b7d0fd71a592221713c9eb7d66dd900d1655f520b3aa8258c9701483045022100b0462bced7d5a1b66fcdb628180869f7ac4b48272688cb5b58823a07a21e756702206c96b327a2885bb4b7cf91f5eb6b26c539450da68d6952349c9e8bc6c29cb399014c695221026dfed6c33fe13edc613d644e832e66623ce3ffd27aa83acd564b97deba25a61a210374d3d89d96db639e765fa7b2d6d8e4ae55dcd6bc1088612afb03a243739022ad21028138fb1fd9a7deaf31160197df159beb14329835ad4f4ed132aff2a7a22a5c1553aeffffffff02a6e9d3090000000017a9145a6d069885221037eab1939851fa9d22a3c59ca787825b17020000000017a91479f217d9c4b76802926b26a474555d0fee5d5d8c8700000000"
}