{
  "txid": "8f8fd499397a381b3e8c53f6073c80e1600143d189528e774d222dfeb871aacb",
  "version": 1,
  "locktime": 0,
  "vin": [
    {
      "txid": "1c46fd0e1db119c0bb808ec8241f8aa1c261e6bcc0d289773127450aa1a20f96",
      "vout": 213,
      "prevout": {
        "scriptpubkey": "00146bddc06ceeb8d8905c41f46edaeb317d338945aa",
        "scriptpubkey_asm": "OP_0 OP_PUSHBYTES_20 6bddc06ceeb8d8905c41f46edaeb317d338945aa",
        "scriptpubkey_type": "v0_p2wpkh",
        "scriptpubkey_address": "bc1qd0wuqm8whrvfqhzp73hd46e305ecj3d22ck4em",
        "value": 730792
      },
      "scriptsig": "",
      "scriptsig_asm": "",
      "witness": [
        "304402201ba781a96f028dfe5db04893cca39c4615867f9e9fd39594ca900f5ee7ea9bb102203f9d40aedd7dc4d783cd24062e62ae38591360d179f905b05703678ffa20448701",
        "02faca195263c6bbf2a2da01019ccf0264d1a337974aeee5cf0d1f4e41af44a57b"
      ],
      "is_coinbase": false,
      "sequence": 4294967295
    }
  ],
  "vout": [
    {
      "scriptpubkey": "00140e7c7d826d28e9dead2b2461c6a1b8e10a82a787",
      "scriptpubkey_asm": "OP_0 OP_PUSHBYTES_20 0e7c7d826d28e9dead2b2461c6a1b8e10a82a787",
      "scriptpubkey_type": "v0_p2wpkh",
      "scriptpubkey_address": "bc1qpe78mqnd9r5aatfty3sudgdcuy9g9fu8yqu6fg",
      "value": 250251
    },
    {
      "scriptpubkey": "00146bddc06ceeb8d8905c41f46edaeb317d338945aa",
      "scriptpubkey_asm": "OP_0 OP_PUSHBYTES_20 6bddc06ceeb8d8905c41f46edaeb317d338945aa",
      "scriptpubkey_type": "v0_p2wpkh",
      "scriptpubkey_address": "bc1qd0wuqm8whrvfqhzp73hd46e305ecj3d22ck4em",
      "value": 476734
    }
  ],
  "size": 222,
  "weight": 561,
  "fee": 3807,
  "status": {
    "confirmed": true,
    "block_height": 834638,
    "block_hash": "000000000000000000025f742c626208ac87e0b7d15054abb4a19ca2d735a54e",
    "block_time": 1710405325
  },
  "hex": "01000000000101960fa2a10a4527317789d2c0bce661c2a18a1f24c88e80bbc019b11d0efd461cd500000000ffffffff028bd10300000000001600140e7c7d826d28e9dead2b2461c6a1b8e10a82a7873e460700000000001600146bddc06ceeb8d8905c41f46edaeb317d338945aa0247304402201ba781a96f028dfe5db04893cca39c4615867f9e9fd39594ca900f5ee7ea9bb102203f9d40aedd7dc4d783cd24062e62ae38591360d179f905b05703678ffa204487012102faca195263c6bbf2a2da01019ccf0264d1a337974aeee5cf0d1f4e41af44a57b00000000"
}