{
  "txid": "8f9750b86c285722a1eddebea0ba0a086a477d144fc6e5ed0d04fb46ca9c6558",
  "version": 2,
  "locktime": 0,
  "vin": [
    {
      "txid": "9b14f63031a5534a1dad8380994b06c78ef5eb0f727170d9c0533e70d82c5e9e",
      "vout": 2,
      "prevout": {
        "scriptpubkey": "00146e46501a2e537878c93f2e2f24ba43efa1164283",
        "scriptpubkey_asm": "OP_0 OP_PUSHBYTES_20 6e46501a2e537878c93f2e2f24ba43efa1164283",
        "scriptpubkey_type": "v0_p2wpkh",
        "scriptpubkey_address": "bc1qder9qx3w2du83jfl9chjfwjra7s3vs5rt0mp3c",
        "value": 2902979
      },
      "scriptsig": "",
      "scriptsig_asm": "",
      "witness": [
        "30440220475f52552733232462ab12bd6a4c7dd605011df6d62244c775df56f7d037c60202204bb9fed0a6f04c44ee2a799f327f501a45dc07ce5b47d154a0cfabe50d15a6c501",
        "03546d1386ce39e527c574bd9d6203055ebf40e5d8d435c86122937d0753efc66d"
      ],
      "is_coinbase": false,
      "sequence": 4294967295
    },
    {
      "txid": "731ca90d86a5e7a2d1ac50acbb489c895ce93d5ae3aaa9bcf0cb192d96041ec3",
      "vout": 40,
      "prevout": {
        "scriptpubkey": "00146e46501a2e537878c93f2e2f24ba43efa1164283",
        "scriptpubkey_asm": "OP_0 OP_PUSHBYTES_20 6e46501a2e537878c93f2e2f24ba43efa1164283",
        "scriptpubkey_type": "v0_p2wpkh",
        "scriptpubkey_address": "bc1qder9qx3w2du83jfl9chjfwjra7s3vs5rt0mp3c",
        "value": 1362797
      },
      "scriptsig": "",
      "scriptsig_asm": "",
      "witness": [
        "304402205d46f6727cd5bf057282e803ed33c55cc48381bc3b1ac0765246ef22a8e7c8ec02207ab2a24a9d6d695e409243f2fd92d4233c3c98bfd5e40c9c6db13c3c8da07b3901",
        "03546d1386ce39e527c574bd9d6203055ebf40e5d8d435c86122937d0753efc66d"
      ],
      "is_coinbase": false,
      "sequence": 4294967295
    },
    {
      "txid": "72b4355bf4e680e8271055a87bd728d0736be9bb18007c547bade7b9a49e2ad2",
      "vout": 5,
      "prevout": {
        "scriptpubkey": "00146e46501a2e537878c93f2e2f24ba43efa1164283",
        "scriptpubkey_asm": "OP_0 OP_PUSHBYTES_20 6e46501a2e537878c93f2e2f24ba43efa1164283",
        "scriptpubkey_type": "v0_p2wpkh",
        "scriptpubkey_address": "bc1qder9qx3w2du83jfl9chjfwjra7s3vs5rt0mp3c",
        "value": 1838847
      },
      "scriptsig": "",
      "scriptsig_asm": "",
      "witness": [
        "30440220401c4a25a4712e9a6a9fa8d61ad5493d57a6fd363a048dd3305fd8abeb4ce30e022074937240bb61960277ef57332405b170e0a7227740dce6c14bd2e0826d1d254f01",
        "03546d1386ce39e527c574bd9d6203055ebf40e5d8d435c86122937d0753efc66d"
      ],
      "is_coinbase": false,
      "sequence": 4294967295
    }
  ],
  "vout": [
    {
      "scriptpubkey": "00146e46501a2e537878c93f2e2f24ba43efa1164283",
      "scriptpubkey_asm": "OP_0 OP_PUSHBYTES_20 6e46501a2e537878c93f2e2f24ba43efa1164283",
      "scriptpubkey_type": "v0_p2wpkh",
      "scriptpubkey_address": "bc1qder9qx3w2du83jfl9chjfwjra7s3vs5rt0mp3c",
      "value": 2698972
    },
    {
      "scriptpubkey": "a9144eb13d67f799ee32fb99be4e15d16a08854d952387",
      "scriptpubkey_asm": "OP_HASH160 OP_PUSHBYTES_20 4eb13d67f799ee32fb99be4e15d16a08854d9523 OP_EQUAL",
      "scriptpubkey_type": "p2sh",
      "scriptpubkey_address": "38s6xMAMedkak3rtJg7jzhYTG2uY7FMn79",
      "value": 3400779
    }
  ],
  "size": 519,
  "weight": 1107,
  "fee": 4872,
  "status": {
    "confirmed": true,
    "block_height": 834638,
    "block_hash": "000000000000000000025f742c626208ac87e0b7d15054abb4a19ca2d735a54e",
    "block_time": 1710405325
  },
  "hex": "020000000001039e5e2cd8703e53c0d97071720febf58ec7064b998083ad1d4a53a53130f6149b0200000000ffffffffc31e04962d19cbf0bca9aae35a3de95c899c48bbac50acd1a2e7a5860da91c732800000000ffffffffd22a9ea4b9e7ad7b547c0018bbe96b73d028d77ba8551027e880e6f45b35b4720500000000ffffffff02dc2e2900000000001600146e46501a2e537878c93f2e2f24ba43efa11642834be433000000000017a9144eb13d67f799ee32fb99be4e15d16a08854d952387024730440220475f52552733232462ab12bd6a4c7dd605011df6d62244c775df56f7d037c60202204bb9fed0a6f04c44ee2a799f327f501a45dc07ce5b47d154a0cfabe50d15a6c5012103546d1386ce39e527c574bd9d6203055ebf40e5d8d435c86122937d0753efc66d0247304402205d46f6727cd5bf057282e803ed33c55cc48381bc3b1ac0765246ef22a8e7c8ec02207ab2a24a9d6d695e409243f2fd92d4233c3c98bfd5e40c9c6db13c3c8da07b39012103546d1386ce39e527c574bd9d6203055ebf40e5d8d435c86122937d0753efc66d024730440220401c4a25a4712e9a6a9fa8d61ad5493d57a6fd363a048dd3305fd8abeb4ce30e022074937240bb61960277ef57332405b170e0a7227740dce6c14bd2e0826d1d254f012103546d1386ce39e527c574bd9d6203055ebf40e5d8d435c86122937d0753efc66d00000000"
}