{
  "txid": "8f9f2eaa5462843403bf1bcdd5aa07adb83796dcd62a6b7189f2e5b90502d5f5",
  "version": 1,
  "locktime": 0,
  "vin": [
    {
      "txid": "88888881da6986319e491fdd888ff13d111424e4e11d8ba7e8ba467422dfd322",
      "vout": 0,
      "prevout": {
        "scriptpubkey": "5120205e5c1b87c55fb07e21424b6923738cddc6a55b58450bb75529f01d719a3d8f",
        "scriptpubkey_asm": "OP_PUSHNUM_1 OP_PUSHBYTES_32 205e5c1b87c55fb07e21424b6923738cddc6a55b58450bb75529f01d719a3d8f",
        "scriptpubkey_type": "v1_p2tr",
        "scriptpubkey_address": "bc1pyp09cxu8c40mql3pgf9kjgmn3nwudf2mtpzshd6498cp6uv68k8sd9m0fr",
        "value": 11704
      },
      "scriptsig": "",
      "scriptsig_asm": "",
      "witness": [
        "18c0ed00d92efb56d3477a1170ac21777ac769e3d7167c2db71e7aa7d5d1effad7d8b89ee0776511b5ca8b40c9cd82a16f8c5d555c9c1d152c7f51a3476cf26c",
        "20c939a6c99941b6d3b54ce120ec99b1597a9557352a600150e097bc361ea60299ac00630461746f6d03646d7442a16461726773a46474696d651a65dc1930656e6f6e63651903e868626974776f726b6369383838383838382e316b6d696e745f7469636b657268696e66696e69747968",
        "c1c939a6c99941b6d3b54ce120ec99b1597a9557352a600150e097bc361ea60299"
      ],
      "is_coinbase": false,
      "sequence": 1
    }
  ],
  "vout": [
    {
      "scriptpubkey": "5120b510c4cbbd9adad0840a5f50b2fbc7bb1d8231996d5f115e52bb89456507f42a",
      "scriptpubkey_asm": "OP_PUSHNUM_1 OP_PUSHBYTES_32 b510c4cbbd9adad0840a5f50b2fbc7bb1d8231996d5f115e52bb89456507f42a",
      "scriptpubkey_type": "v1_p2tr",
      "scriptpubkey_address": "bc1pk5gvfjaantddppq2tagt9778hvwcyvved403zhjjhwy52eg87s4qdwylgf",
      "value": 9999
    }
  ],
  "size": 310,
  "weight": 592,
  "fee": 1705,
  "status": {
    "confirmed": true,
    "block_height": 834464,
    "block_hash": "0000000000000000000177a0869a911a2b65c9bdcd5a8bcb02b68f305bee848e",
    "block_time": 1710308296
  },
  "hex": "0100000000010122d3df227446bae8a78b1de1e42414113df18f88dd1f499e318669da81888888000000000001000000010f27000000000000225120b510c4cbbd9adad0840a5f50b2fbc7bb1d8231996d5f115e52bb89456507f42a034018c0ed00d92efb56d3477a1170ac21777ac769e3d7167c2db71e7aa7d5d1effad7d8b89ee0776511b5ca8b40c9cd82a16f8c5d555c9c1d152c7f51a3476cf26c7120c939a6c99941b6d3b54ce120ec99b1597a9557352a600150e097bc361ea60299ac00630461746f6d03646d7442a16461726773a46474696d651a65dc1930656e6f6e63651903e868626974776f726b6369383838383838382e316b6d696e745f7469636b657268696e66696e6974796821c1c939a6c99941b6d3b54ce120ec99b1597a9557352a600150e097bc361ea6029900000000"
}