{
  "txid": "8fa7787a69a1602a4d323a5256e7198e6bec18916878979bad48baad4a46a2b3",
  "version": 2,
  "locktime": 0,
  "vin": [
    {
      "txid": "363f60e87ad3152f872dc6740f908e19eda732feffaea21cce8a049cad69a0c9",
      "vout": 1,
      "prevout": {
        "scriptpubkey": "5120abe2f29b8bf237c46de02c162143f21c3341909cd778df09f84a58bea91e8fe1",
        "scriptpubkey_asm": "OP_PUSHNUM_1 OP_PUSHBYTES_32 abe2f29b8bf237c46de02c162143f21c3341909cd778df09f84a58bea91e8fe1",
        "scriptpubkey_type": "v1_p2tr",
        "scriptpubkey_address": "bc1p40309xut7gmugm0q9stzzsljrse5ryyu6aud7z0cffvta2g73lssawc44u",
        "value": 144490
      },
      "scriptsig": "",
      "scriptsig_asm": "",
      "witness": [
        "5816d2595f35658349e45f10615be2fcdcdcecade345565d3002ce87f1cafad5c8494b20af55d54088f608638fc1ca506b7b19dba21389ab0cd74ff31f2aed04"
      ],
      "is_coinbase": false,
      "sequence": 4294967295
    }
  ],
  "vout": [
    {
      "scriptpubkey": "51201713644ee9df9554b34b88ef5635b99d0add5ff5ca68c7a81225616be0757c7f",
      "scriptpubkey_asm": "OP_PUSHNUM_1 OP_PUSHBYTES_32 1713644ee9df9554b34b88ef5635b99d0add5ff5ca68c7a81225616be0757c7f",
      "scriptpubkey_type": "v1_p2tr",
      "scriptpubkey_address": "bc1pzufkgnhfm724fv6t3rh4vdden59d6hl4ef5v02qjy4skhcr403lsalx7a3",
      "value": 143269
    }
  ],
  "size": 162,
  "weight": 444,
  "fee": 1221,
  "status": {
    "confirmed": true,
    "block_height": 834464,
    "block_hash": "0000000000000000000177a0869a911a2b65c9bdcd5a8bcb02b68f305bee848e",
    "block_time": 1710308296
  },
  "hex": "02000000000101c9a069ad9c048ace1ca2aefffe32a7ed198e900f74c62d872f15d37ae8603f360100000000ffffffff01a52f0200000000002251201713644ee9df9554b34b88ef5635b99d0add5ff5ca68c7a81225616be0757c7f01405816d2595f35658349e45f10615be2fcdcdcecade345565d3002ce87f1cafad5c8494b20af55d54088f608638fc1ca506b7b19dba21389ab0cd74ff31f2aed0400000000"
}