{
  "txid": "8fb03d4b9df622007bc138108b6a38e9bac71f91940676029da29d89504e72e9",
  "version": 2,
  "locktime": 834637,
  "vin": [
    {
      "txid": "0519d1b6dfb09c57ecf590f30ebcdf26de63f805ddfeaeed5ffbe99674a603f0",
      "vout": 0,
      "prevout": {
        "scriptpubkey": "a914b1dd0f4f0fcf120507eefac409df60c3d4a7200287",
        "scriptpubkey_asm": "OP_HASH160 OP_PUSHBYTES_20 b1dd0f4f0fcf120507eefac409df60c3d4a72002 OP_EQUAL",
        "scriptpubkey_type": "p2sh",
        "scriptpubkey_address": "3HuUM14icqN6GNE4sZBws19gGKbFzbWJ7w",
        "value": 43708686
      },
      "scriptsig": "16001498cda384c998e8a53f38686f1b5261176b440754",
      "scriptsig_asm": "OP_PUSHBYTES_22 001498cda384c998e8a53f38686f1b5261176b440754",
      "witness": [
        "304402207159792141002e70d4278105e07d9be04adf678b2b58864b69863060d655c29602204ddaf604661c1b5867d9edfb305a9085f5fe95fdae5b11fed6857ad8bc67e60901",
        "024125437dabca9691f524d78ae2f0b29038612395414fcf448d093721a2d8ef96"
      ],
      "is_coinbase": false,
      "sequence": 4294967294,
      "inner_redeemscript_asm": "OP_0 OP_PUSHBYTES_20 98cda384c998e8a53f38686f1b5261176b440754"
    }
  ],
  "vout": [
    {
      "scriptpubkey": "a914001ef3fbd757d953861cdb8aa3acf6531ee7fa6787",
      "scriptpubkey_asm": "OP_HASH160 OP_PUSHBYTES_20 001ef3fbd757d953861cdb8aa3acf6531ee7fa67 OP_EQUAL",
      "scriptpubkey_type": "p2sh",
      "scriptpubkey_address": "31hf1CZdruoVxEJzA4Bg4UiiiSkabeJ9jk",
      "value": 50014
    },
    {
      "scriptpubkey": "a914f849b32ed845b19bb57bbe975955749bfedb5db187",
      "scriptpubkey_asm": "OP_HASH160 OP_PUSHBYTES_20 f849b32ed845b19bb57bbe975955749bfedb5db1 OP_EQUAL",
      "scriptpubkey_type": "p2sh",
      "scriptpubkey_address": "3QKqnsviXynhwU69YwgZh17b2d3VVoxFs9",
      "value": 43655815
    }
  ],
  "size": 247,
  "weight": 661,
  "fee": 2857,
  "status": {
    "confirmed": true,
    "block_height": 834638,
    "block_hash": "000000000000000000025f742c626208ac87e0b7d15054abb4a19ca2d735a54e",
    "block_time": 1710405325
  },
  "hex": "02000000000101f003a67496e9fb5fedaefedd05f863de26dfbc0ef390f5ec579cb0dfb6d11905000000001716001498cda384c998e8a53f38686f1b5261176b440754feffffff025ec300000000000017a914001ef3fbd757d953861cdb8aa3acf6531ee7fa678787229a020000000017a914f849b32ed845b19bb57bbe975955749bfedb5db1870247304402207159792141002e70d4278105e07d9be04adf678b2b58864b69863060d655c29602204ddaf604661c1b5867d9edfb305a9085f5fe95fdae5b11fed6857ad8bc67e6090121024125437dabca9691f524d78ae2f0b29038612395414fcf448d093721a2d8ef964dbc0c00"
}