{
  "txid": "8fcf3762ced81771b824c50c3543210f06fa1b3276cd8bb5741ab82d10bd9735",
  "version": 2,
  "locktime": 0,
  "vin": [
    {
      "txid": "16fa3fe39f58a8b448629a25a39bf50b61af3e42c43cc33d5a49e96116674c21",
      "vout": 0,
      "prevout": {
        "scriptpubkey": "00141d2609ce791ff231a8f9c44caaf8a7237095054b",
        "scriptpubkey_asm": "OP_0 OP_PUSHBYTES_20 1d2609ce791ff231a8f9c44caaf8a7237095054b",
        "scriptpubkey_type": "v0_p2wpkh",
        "scriptpubkey_address": "bc1qr5nqnnnerlerr28ec3x24798ydcf2p2tlfj8vu",
        "value": 496536
      },
      "scriptsig": "",
      "scriptsig_asm": "",
      "witness": [
        "304402206e1d802bdf16af9c338b62e089d0ff9f36708ab7ed4fe9872338c94861edbf83022028304c26ad7689a9a04bb7d05f6a7cd9b4b2feac7e08710bf89ac7a143b140c201",
        "03fe0f0c5209494608d4faaaa17a44956fa1d882d6face9dadb5cfd277e55a1804"
      ],
      "is_coinbase": false,
      "sequence": 2147483648
    },
    {
      "txid": "f89ca3e58a06abdef90fde34eff9a10c743d3b6750c14e007b2a08b817c49c91",
      "vout": 1,
      "prevout": {
        "scriptpubkey": "0014b7590f7e45c2a733730947bfee8d220a644a7b53",
        "scriptpubkey_asm": "OP_0 OP_PUSHBYTES_20 b7590f7e45c2a733730947bfee8d220a644a7b53",
        "scriptpubkey_type": "v0_p2wpkh",
        "scriptpubkey_address": "bc1qkavs7lj9c2nnxucfg7l7arfzpfjy576nezyuz6",
        "value": 111541
      },
      "scriptsig": "",
      "scriptsig_asm": "",
      "witness": [
        "3045022100be2da9600c2a20f3f0c8277d837a9aa80224cfd3deb7cc148af8dadf52fda56e02203021f08e8cad09b0664eae46e37d3a6897f870263f6efaf15ee5dbf3ab5fe31e01",
        "03a1b8720e29ea2d8482b1b33f79c7fea3171fd183e69e4fd0f9b6ee86bb104605"
      ],
      "is_coinbase": false,
      "sequence": 2147483648
    }
  ],
  "vout": [
    {
      "scriptpubkey": "0014dd0eccbe4f72b0315302383c36ac3debe367ea38",
      "scriptpubkey_asm": "OP_0 OP_PUSHBYTES_20 dd0eccbe4f72b0315302383c36ac3debe367ea38",
      "scriptpubkey_type": "v0_p2wpkh",
      "scriptpubkey_address": "bc1qm58ve0j0w2crz5cz8q7rdtpaa03k063c3wvrqe",
      "value": 544766
    },
    {
      "scriptpubkey": "001432ef888ef5781317db907379389144b1cef17ecd",
      "scriptpubkey_asm": "OP_0 OP_PUSHBYTES_20 32ef888ef5781317db907379389144b1cef17ecd",
      "scriptpubkey_type": "v0_p2wpkh",
      "scriptpubkey_address": "bc1qxthc3rh40qf30kuswdun3y2yk880zlkddw5c5l",
      "value": 59031
    }
  ],
  "size": 371,
  "weight": 833,
  "fee": 4280,
  "status": {
    "confirmed": true,
    "block_height": 834638,
    "block_hash": "000000000000000000025f742c626208ac87e0b7d15054abb4a19ca2d735a54e",
    "block_time": 1710405325
  },
  "hex": "02000000000102214c671661e9495a3dc33cc4423eaf610bf59ba3259a6248b4a8589fe33ffa16000000000000000080919cc417b8082a7b004ec150673b3d740ca1f9ef34de0ff9deab068ae5a39cf801000000000000008002fe4f080000000000160014dd0eccbe4f72b0315302383c36ac3debe367ea3897e600000000000016001432ef888ef5781317db907379389144b1cef17ecd0247304402206e1d802bdf16af9c338b62e089d0ff9f36708ab7ed4fe9872338c94861edbf83022028304c26ad7689a9a04bb7d05f6a7cd9b4b2feac7e08710bf89ac7a143b140c2012103fe0f0c5209494608d4faaaa17a44956fa1d882d6face9dadb5cfd277e55a180402483045022100be2da9600c2a20f3f0c8277d837a9aa80224cfd3deb7cc148af8dadf52fda56e02203021f08e8cad09b0664eae46e37d3a6897f870263f6efaf15ee5dbf3ab5fe31e012103a1b8720e29ea2d8482b1b33f79c7fea3171fd183e69e4fd0f9b6ee86bb10460500000000"
}