{
  "txid": "8fd19991af0e905c6c8ee2f4e311a27e940a98a09f1fb7e4bacca9379d5bf7dc",
  "version": 2,
  "locktime": 0,
  "vin": [
    {
      "txid": "135d993977a161f8a5b694000ed257e48ecdc1ee11bfee7d2f521f4a88227415",
      "vout": 0,
      "prevout": {
        "scriptpubkey": "a91436ef2050189c78f7cf99dea805ed1afc0b49d24787",
        "scriptpubkey_asm": "OP_HASH160 OP_PUSHBYTES_20 36ef2050189c78f7cf99dea805ed1afc0b49d247 OP_EQUAL",
        "scriptpubkey_type": "p2sh",
        "scriptpubkey_address": "36hUsgcXCY2fBJSGrRjUHxgPbg3yaDoFJd",
        "value": 600
      },
      "scriptsig": "160014e450c2dcc921b24addcf7af355a5dba79df81797",
      "scriptsig_asm": "OP_PUSHBYTES_22 0014e450c2dcc921b24addcf7af355a5dba79df81797",
      "witness": [
        "3045022100870343cb4c2e1ba6d966aca99d597658ec62da9aea19b98da5de20bc07761fe90220272781f6fbf879de37334ca0144a53835b565e7df72cba7fd5e86774122eb8f001",
        "03c8b3edf68549b02059d02b52e075906bfdb5c8324cd0ffb8f4938d11b088ef29"
      ],
      "is_coinbase": false,
      "sequence": 4294967295,
      "inner_redeemscript_asm": "OP_0 OP_PUSHBYTES_20 e450c2dcc921b24addcf7af355a5dba79df81797"
    },
    {
      "txid": "135d993977a161f8a5b694000ed257e48ecdc1ee11bfee7d2f521f4a88227415",
      "vout": 1,
      "prevout": {
        "scriptpubkey": "a91436ef2050189c78f7cf99dea805ed1afc0b49d24787",
        "scriptpubkey_asm": "OP_HASH160 OP_PUSHBYTES_20 36ef2050189c78f7cf99dea805ed1afc0b49d247 OP_EQUAL",
        "scriptpubkey_type": "p2sh",
        "scriptpubkey_address": "36hUsgcXCY2fBJSGrRjUHxgPbg3yaDoFJd",
        "value": 600
      },
      "scriptsig": "160014e450c2dcc921b24addcf7af355a5dba79df81797",
      "scriptsig_asm": "OP_PUSHBYTES_22 0014e450c2dcc921b24addcf7af355a5dba79df81797",
      "witness": [
        "3045022100bb37f405ec84f0ffc1b6719581f99e6581ec1f51d31ed2e64372e7234965c70a022005362a62bef0b5da83b094397f48d18e3174497d5650dbeff8a95140f840e63201",
        "03c8b3edf68549b02059d02b52e075906bfdb5c8324cd0ffb8f4938d11b088ef29"
      ],
      "is_coinbase": false,
      "sequence": 4294967295,
      "inner_redeemscript_asm": "OP_0 OP_PUSHBYTES_20 e450c2dcc921b24addcf7af355a5dba79df81797"
    },
    {
      "txid": "7b1267a231e95ffc4a5e2b5a1ea62c5aa0916b3e9debaf1414733bbce297d6c6",
      "vout": 16,
      "prevout": {
        "scriptpubkey": "5120d40299c07dc4aff229e63d976deb4bc4fac7449c733d132fe98697b6fb5aed5e",
        "scriptpubkey_asm": "OP_PUSHNUM_1 OP_PUSHBYTES_32 d40299c07dc4aff229e63d976deb4bc4fac7449c733d132fe98697b6fb5aed5e",
        "scriptpubkey_type": "v1_p2tr",
        "scriptpubkey_address": "bc1p6spfnsracjhly20x8ktkm66tcnavw3yuwv73xtlfs6tmd766a40qd5ks8d",
        "value": 1000
      },
      "scriptsig": "",
      "scriptsig_asm": "",
      "witness": [
        "4b26318800f75054d00b83c59032fbc08cfdd46b013181e6c9df35ef563e0bf61394ab2145102a2aa895233c24e54f6febc4e32d5ca2b2347efe87498772f2e883"
      ],
      "is_coinbase": false,
      "sequence": 4294967295
    },
    {
      "txid": "1cb84d5faa6d4c0b95e792dd83d3cd4fa3a6bc898c299edd11028d6f3c8b9277",
      "vout": 1,
      "prevout": {
        "scriptpubkey": "a91436ef2050189c78f7cf99dea805ed1afc0b49d24787",
        "scriptpubkey_asm": "OP_HASH160 OP_PUSHBYTES_20 36ef2050189c78f7cf99dea805ed1afc0b49d247 OP_EQUAL",
        "scriptpubkey_type": "p2sh",
        "scriptpubkey_address": "36hUsgcXCY2fBJSGrRjUHxgPbg3yaDoFJd",
        "value": 24608
      },
      "scriptsig": "160014e450c2dcc921b24addcf7af355a5dba79df81797",
      "scriptsig_asm": "OP_PUSHBYTES_22 0014e450c2dcc921b24addcf7af355a5dba79df81797",
      "witness": [
        "3045022100aaa6b704417a9f1797d82a29f33906692e0171033c14eb0f363d57d38e407dd302204869aac660d893bd0c303dfd9f9770d620c6536a870840f8fae3162421a3be3401",
        "03c8b3edf68549b02059d02b52e075906bfdb5c8324cd0ffb8f4938d11b088ef29"
      ],
      "is_coinbase": false,
      "sequence": 4294967295,
      "inner_redeemscript_asm": "OP_0 OP_PUSHBYTES_20 e450c2dcc921b24addcf7af355a5dba79df81797"
    },
    {
      "txid": "70be72d50c118abbe7719a9909190e1e8acf1481aea0497d244439d7204d325e",
      "vout": 1,
      "prevout": {
        "scriptpubkey": "a91436ef2050189c78f7cf99dea805ed1afc0b49d24787",
        "scriptpubkey_asm": "OP_HASH160 OP_PUSHBYTES_20 36ef2050189c78f7cf99dea805ed1afc0b49d247 OP_EQUAL",
        "scriptpubkey_type": "p2sh",
        "scriptpubkey_address": "36hUsgcXCY2fBJSGrRjUHxgPbg3yaDoFJd",
        "value": 20964
      },
      "scriptsig": "160014e450c2dcc921b24addcf7af355a5dba79df81797",
      "scriptsig_asm": "OP_PUSHBYTES_22 0014e450c2dcc921b24addcf7af355a5dba79df81797",
      "witness": [
        "3045022100b1f9fa04960fb8f9c7a8475249c133a6b070088968cdbbc4520a6a413469a76902205e346864ce27cae853b1a04dccc1f5d618b6c4cd472732ed07096a19982d35f201",
        "03c8b3edf68549b02059d02b52e075906bfdb5c8324cd0ffb8f4938d11b088ef29"
      ],
      "is_coinbase": false,
      "sequence": 4294967295,
      "inner_redeemscript_asm": "OP_0 OP_PUSHBYTES_20 e450c2dcc921b24addcf7af355a5dba79df81797"
    }
  ],
  "vout": [
    {
      "scriptpubkey": "a91436ef2050189c78f7cf99dea805ed1afc0b49d24787",
      "scriptpubkey_asm": "OP_HASH160 OP_PUSHBYTES_20 36ef2050189c78f7cf99dea805ed1afc0b49d247 OP_EQUAL",
      "scriptpubkey_type": "p2sh",
      "scriptpubkey_address": "36hUsgcXCY2fBJSGrRjUHxgPbg3yaDoFJd",
      "value": 1200
    },
    {
      "scriptpubkey": "5120202b4297096c56f4ed37e92489390a82689b8e82ed95538dc972086efce9ff6a",
      "scriptpubkey_asm": "OP_PUSHNUM_1 OP_PUSHBYTES_32 202b4297096c56f4ed37e92489390a82689b8e82ed95538dc972086efce9ff6a",
      "scriptpubkey_type": "v1_p2tr",
      "scriptpubkey_address": "bc1pyq4599cfd3t0fmfhayjgjwg2sf5fhr5zak248rwfwgyxal8fla4q0svpar",
      "value": 1000
    },
    {
      "scriptpubkey": "5120d40299c07dc4aff229e63d976deb4bc4fac7449c733d132fe98697b6fb5aed5e",
      "scriptpubkey_asm": "OP_PUSHNUM_1 OP_PUSHBYTES_32 d40299c07dc4aff229e63d976deb4bc4fac7449c733d132fe98697b6fb5aed5e",
      "scriptpubkey_type": "v1_p2tr",
      "scriptpubkey_address": "bc1p6spfnsracjhly20x8ktkm66tcnavw3yuwv73xtlfs6tmd766a40qd5ks8d",
      "value": 16821
    },
    {
      "scriptpubkey": "a914ea6b832a05c6ca578baa3836f3f25553d41068a587",
      "scriptpubkey_asm": "OP_HASH160 OP_PUSHBYTES_20 ea6b832a05c6ca578baa3836f3f25553d41068a5 OP_EQUAL",
      "scriptpubkey_type": "p2sh",
      "scriptpubkey_address": "3P4WqXDbSLRhzo2H6MT6YFbvBKBDPLbVtQ",
      "value": 580
    },
    {
      "scriptpubkey": "a91436ef2050189c78f7cf99dea805ed1afc0b49d24787",
      "scriptpubkey_asm": "OP_HASH160 OP_PUSHBYTES_20 36ef2050189c78f7cf99dea805ed1afc0b49d247 OP_EQUAL",
      "scriptpubkey_type": "p2sh",
      "scriptpubkey_address": "36hUsgcXCY2fBJSGrRjUHxgPbg3yaDoFJd",
      "value": 600
    },
    {
      "scriptpubkey": "a91436ef2050189c78f7cf99dea805ed1afc0b49d24787",
      "scriptpubkey_asm": "OP_HASH160 OP_PUSHBYTES_20 36ef2050189c78f7cf99dea805ed1afc0b49d247 OP_EQUAL",
      "scriptpubkey_type": "p2sh",
      "scriptpubkey_address": "36hUsgcXCY2fBJSGrRjUHxgPbg3yaDoFJd",
      "value": 600
    },
    {
      "scriptpubkey": "a91436ef2050189c78f7cf99dea805ed1afc0b49d24787",
      "scriptpubkey_asm": "OP_HASH160 OP_PUSHBYTES_20 36ef2050189c78f7cf99dea805ed1afc0b49d247 OP_EQUAL",
      "scriptpubkey_type": "p2sh",
      "scriptpubkey_address": "36hUsgcXCY2fBJSGrRjUHxgPbg3yaDoFJd",
      "value": 15428
    }
  ],
  "size": 1054,
  "weight": 2713,
  "fee": 11543,
  "status": {
    "confirmed": true,
    "block_height": 834552,
    "block_hash": "00000000000000000001dd0468a70c94f619251d286585cff57aeb4bd9ede330",
    "block_time": 1710355598
  },
  "hex": "02000000000105157422884a1f522f7deebf11eec1cd8ee457d20e0094b6a5f861a17739995d130000000017160014e450c2dcc921b24addcf7af355a5dba79df81797ffffffff157422884a1f522f7deebf11eec1cd8ee457d20e0094b6a5f861a17739995d130100000017160014e450c2dcc921b24addcf7af355a5dba79df81797ffffffffc6d697e2bc3b731414afeb9d3e6b91a05a2ca61e5a2b5e4afc5fe931a267127b1000000000ffffffff77928b3c6f8d0211dd9e298c89bca6a34fcdd383dd92e7950b4c6daa5f4db81c0100000017160014e450c2dcc921b24addcf7af355a5dba79df81797ffffffff5e324d20d73944247d49a0ae8114cf8a1e0e1909999a71e7bb8a110cd572be700100000017160014e450c2dcc921b24addcf7af355a5dba79df81797ffffffff07b00400000000000017a91436ef2050189c78f7cf99dea805ed1afc0b49d24787e803000000000000225120202b4297096c56f4ed37e92489390a82689b8e82ed95538dc972086efce9ff6ab541000000000000225120d40299c07dc4aff229e63d976deb4bc4fac7449c733d132fe98697b6fb5aed5e440200000000000017a914ea6b832a05c6ca578baa3836f3f25553d41068a587580200000000000017a91436ef2050189c78f7cf99dea805ed1afc0b49d24787580200000000000017a91436ef2050189c78f7cf99dea805ed1afc0b49d24787443c00000000000017a91436ef2050189c78f7cf99dea805ed1afc0b49d2478702483045022100870343cb4c2e1ba6d966aca99d597658ec62da9aea19b98da5de20bc07761fe90220272781f6fbf879de37334ca0144a53835b565e7df72cba7fd5e86774122eb8f0012103c8b3edf68549b02059d02b52e075906bfdb5c8324cd0ffb8f4938d11b088ef2902483045022100bb37f405ec84f0ffc1b6719581f99e6581ec1f51d31ed2e64372e7234965c70a022005362a62bef0b5da83b094397f48d18e3174497d5650dbeff8a95140f840e632012103c8b3edf68549b02059d02b52e075906bfdb5c8324cd0ffb8f4938d11b088ef2901414b26318800f75054d00b83c59032fbc08cfdd46b013181e6c9df35ef563e0bf61394ab2145102a2aa895233c24e54f6febc4e32d5ca2b2347efe87498772f2e88302483045022100aaa6b704417a9f1797d82a29f33906692e0171033c14eb0f363d57d38e407dd302204869aac660d893bd0c303dfd9f9770d620c6536a870840f8fae3162421a3be34012103c8b3edf68549b02059d02b52e075906bfdb5c8324cd0ffb8f4938d11b088ef2902483045022100b1f9fa04960fb8f9c7a8475249c133a6b070088968cdbbc4520a6a413469a76902205e346864ce27cae853b1a04dccc1f5d618b6c4cd472732ed07096a19982d35f2012103c8b3edf68549b02059d02b52e075906bfdb5c8324cd0ffb8f4938d11b088ef2900000000"
}