{
  "txid": "8ffa91f2fe706360ef61524a7070376f76336ecedd9cdda18757db84fd09c3cd",
  "version": 2,
  "locktime": 834637,
  "vin": [
    {
      "txid": "1892b0474f62a4fd1d40b5c19a99be1e418aa77091df39db20905aedfa254485",
      "vout": 1,
      "prevout": {
        "scriptpubkey": "76a914787c4997be907e51837a99cd83e8ec77334a76f688ac",
        "scriptpubkey_asm": "OP_DUP OP_HASH160 OP_PUSHBYTES_20 787c4997be907e51837a99cd83e8ec77334a76f6 OP_EQUALVERIFY OP_CHECKSIG",
        "scriptpubkey_type": "p2pkh",
        "scriptpubkey_address": "1Bz4yfYdmoT57XUEztnnfsCrv6oyoytqCs",
        "value": 171360
      },
      "scriptsig": "473044022066918f0403daa37a36eef19744d4fe2c86c28893dd2321da568e28a66728a82302200933997fcd3e36714968c57ab4bfb4a5f2b01f9ae7f7b418dd47c9dc73c6e297012103d877f8d7d121d14b606342a4c354ff8a660926cd9290e02eee4dee82f1c93a36",
      "scriptsig_asm": "OP_PUSHBYTES_71 3044022066918f0403daa37a36eef19744d4fe2c86c28893dd2321da568e28a66728a82302200933997fcd3e36714968c57ab4bfb4a5f2b01f9ae7f7b418dd47c9dc73c6e29701 OP_PUSHBYTES_33 03d877f8d7d121d14b606342a4c354ff8a660926cd9290e02eee4dee82f1c93a36",
      "is_coinbase": false,
      "sequence": 4294967293
    },
    {
      "txid": "72d5f24fd7f4903b4c4db4c360e9a5fb310771397dee549cafb56ae341be3bcb",
      "vout": 0,
      "prevout": {
        "scriptpubkey": "76a9144589ffc0cc7b6386aa457a658b6006cfd3637b0188ac",
        "scriptpubkey_asm": "OP_DUP OP_HASH160 OP_PUSHBYTES_20 4589ffc0cc7b6386aa457a658b6006cfd3637b01 OP_EQUALVERIFY OP_CHECKSIG",
        "scriptpubkey_type": "p2pkh",
        "scriptpubkey_address": "17LgwaVLYnmQUADFc9NA9Lj7BK7bgZ7Cjh",
        "value": 115004
      },
      "scriptsig": "47304402200b54be53e3a810b6805bf4440b143b381a363479aaed4beef5f3c4bd819aebd7022050d131f62fbf070707429e18f62a439cdad2977976d342de9b42fd59e8a29dea01210205d043c85bbae5c4308a64bf26b07b785b3be22459666f14351078369f454444",
      "scriptsig_asm": "OP_PUSHBYTES_71 304402200b54be53e3a810b6805bf4440b143b381a363479aaed4beef5f3c4bd819aebd7022050d131f62fbf070707429e18f62a439cdad2977976d342de9b42fd59e8a29dea01 OP_PUSHBYTES_33 0205d043c85bbae5c4308a64bf26b07b785b3be22459666f14351078369f454444",
      "is_coinbase": false,
      "sequence": 4294967293
    }
  ],
  "vout": [
    {
      "scriptpubkey": "0014e2c1e885f63602e4ae6cde664c28d476655d109a",
      "scriptpubkey_asm": "OP_0 OP_PUSHBYTES_20 e2c1e885f63602e4ae6cde664c28d476655d109a",
      "scriptpubkey_type": "v0_p2wpkh",
      "scriptpubkey_address": "bc1qutq73p0kxcpwftnvmenyc2x5wej46yy6lf6zmr",
      "value": 280000
    }
  ],
  "size": 335,
  "weight": 1340,
  "fee": 6364,
  "status": {
    "confirmed": true,
    "block_height": 834638,
    "block_hash": "000000000000000000025f742c626208ac87e0b7d15054abb4a19ca2d735a54e",
    "block_time": 1710405325
  },
  "hex": "0200000002854425faed5a9020db39df9170a78a411ebe999ac1b5401dfda4624f47b09218010000006a473044022066918f0403daa37a36eef19744d4fe2c86c28893dd2321da568e28a66728a82302200933997fcd3e36714968c57ab4bfb4a5f2b01f9ae7f7b418dd47c9dc73c6e297012103d877f8d7d121d14b606342a4c354ff8a660926cd9290e02eee4dee82f1c93a36fdffffffcb3bbe41e36ab5af9c54ee7d39710731fba5e960c3b44d4c3b90f4d74ff2d572000000006a47304402200b54be53e3a810b6805bf4440b143b381a363479aaed4beef5f3c4bd819aebd7022050d131f62fbf070707429e18f62a439cdad2977976d342de9b42fd59e8a29dea01210205d043c85bbae5c4308a64bf26b07b785b3be22459666f14351078369f454444fdffffff01c045040000000000160014e2c1e885f63602e4ae6cde664c28d476655d109a4dbc0c00"
}