{
  "txid": "8ffde53f5b878f9d8d6da369013adbdc2a290ad237b5fe6d2870f27b033622ef",
  "version": 1,
  "locktime": 0,
  "vin": [
    {
      "txid": "854129a04c08c73280f6a1132a09c7fb32452b010e34d4da8d634068ddfc7576",
      "vout": 68,
      "prevout": {
        "scriptpubkey": "00142d44714c3bc7a5d0c98311e1005dffe0380985dc",
        "scriptpubkey_asm": "OP_0 OP_PUSHBYTES_20 2d44714c3bc7a5d0c98311e1005dffe0380985dc",
        "scriptpubkey_type": "v0_p2wpkh",
        "scriptpubkey_address": "bc1q94z8znpmc7japjvrz8ssqh0luquqnpwuu8z4fk",
        "value": 1042613
      },
      "scriptsig": "",
      "scriptsig_asm": "",
      "witness": [
        "304502210099d23184e68f8741b660ef1e8340975a3d3dbe847fe7b409e0df2ec5ba52580a0220361528edd56e7482dd43087df245fca3406c7c41ba7af0861570a5847a80717b01",
        "028259201cd3d51c6a4d7a2346d7347a16b6c3041492136da51b693bef56091de6"
      ],
      "is_coinbase": false,
      "sequence": 4294967293
    }
  ],
  "vout": [
    {
      "scriptpubkey": "a914eae0ecfc3720ea62a69f5de5031a46db1831ecee87",
      "scriptpubkey_asm": "OP_HASH160 OP_PUSHBYTES_20 eae0ecfc3720ea62a69f5de5031a46db1831ecee OP_EQUAL",
      "scriptpubkey_type": "p2sh",
      "scriptpubkey_address": "3P6wVYai9SrwQXBug4WH2Zdqa9bDSgbsQg",
      "value": 1041392
    }
  ],
  "size": 193,
  "weight": 442,
  "fee": 1221,
  "status": {
    "confirmed": true,
    "block_height": 834464,
    "block_hash": "0000000000000000000177a0869a911a2b65c9bdcd5a8bcb02b68f305bee848e",
    "block_time": 1710308296
  },
  "hex": "010000000001017675fcdd6840638ddad4340e012b4532fbc7092a13a1f68032c7084ca02941854400000000fdffffff01f0e30f000000000017a914eae0ecfc3720ea62a69f5de5031a46db1831ecee870248304502210099d23184e68f8741b660ef1e8340975a3d3dbe847fe7b409e0df2ec5ba52580a0220361528edd56e7482dd43087df245fca3406c7c41ba7af0861570a5847a80717b0121028259201cd3d51c6a4d7a2346d7347a16b6c3041492136da51b693bef56091de600000000"
}