{
  "txid": "9005ce579a43b1ea968532718d2df5cef8d1d9d0f63ff2571ff92fe3ddadb156",
  "version": 1,
  "locktime": 0,
  "vin": [
    {
      "txid": "538defd9ee6191182d2f3185884bd6ef28f563a975209ac0fad537b3256a4618",
      "vout": 0,
      "prevout": {
        "scriptpubkey": "0014572ee8804c9f25cb0e9f5632db30ef4106e9265e",
        "scriptpubkey_asm": "OP_0 OP_PUSHBYTES_20 572ee8804c9f25cb0e9f5632db30ef4106e9265e",
        "scriptpubkey_type": "v0_p2wpkh",
        "scriptpubkey_address": "bc1q2uhw3qzvnujukr5l2cedkv80gyrwjfj78nh5pc",
        "value": 19932046
      },
      "scriptsig": "",
      "scriptsig_asm": "",
      "witness": [
        "3045022100ab497bff55353f273b0187a948de503251fc910f6bd5605ca8125dbc81dd4377022050cec5acb0602e5f7bb01a77adae3cec6dab7b31d70f7e405500a8d06db3b10001",
        "02ac10e097b97fd5e997b4fe0d368dd8bd51e98e4c06c0c07a59da4f43d982af52"
      ],
      "is_coinbase": false,
      "sequence": 4294967293
    },
    {
      "txid": "7a087b342c05a80b289d3b0f936ad18661c0329ced6d83a9f2b24dfb15b5e695",
      "vout": 1,
      "prevout": {
        "scriptpubkey": "0014f4fef053524cdd7b783141e4d4998ba5642ed1ff",
        "scriptpubkey_asm": "OP_0 OP_PUSHBYTES_20 f4fef053524cdd7b783141e4d4998ba5642ed1ff",
        "scriptpubkey_type": "v0_p2wpkh",
        "scriptpubkey_address": "bc1q7nl0q56jfnwhk7p3g8jdfxvt54jza50lgerlph",
        "value": 40540136
      },
      "scriptsig": "",
      "scriptsig_asm": "",
      "witness": [
        "3045022100828132c59b777534a56da62cd88749c5c4251a6ecf66060d037e871207d45724022055a4baf4227ebba65210436c21a19d45c93ec77e6551e10934fb8625e27fea2501",
        "027f956023a959856e127fb01a15e890e5b9557dea0d642afb8c9510f4df9d7297"
      ],
      "is_coinbase": false,
      "sequence": 4294967293
    }
  ],
  "vout": [
    {
      "scriptpubkey": "00144f090f7625a7d4224af683d885f8688d1ee773fc",
      "scriptpubkey_asm": "OP_0 OP_PUSHBYTES_20 4f090f7625a7d4224af683d885f8688d1ee773fc",
      "scriptpubkey_type": "v0_p2wpkh",
      "scriptpubkey_address": "bc1qfuys7a395l2zyjhks0vgt7rg350wwulu3xu89x",
      "value": 10466541
    },
    {
      "scriptpubkey": "001443c0068aeaa52e73489579f4273d84acc1eb4815",
      "scriptpubkey_asm": "OP_0 OP_PUSHBYTES_20 43c0068aeaa52e73489579f4273d84acc1eb4815",
      "scriptpubkey_type": "v0_p2wpkh",
      "scriptpubkey_address": "bc1qg0qqdzh255h8xjy4086zw0vy4nq7kjq4rkp29y",
      "value": 50000000
    }
  ],
  "size": 372,
  "weight": 834,
  "fee": 5641,
  "status": {
    "confirmed": true,
    "block_height": 834638,
    "block_hash": "000000000000000000025f742c626208ac87e0b7d15054abb4a19ca2d735a54e",
    "block_time": 1710405325
  },
  "hex": "0100000000010218466a25b337d5fac09a2075a963f528efd64b8885312f2d189161eed9ef8d530000000000fdffffff95e6b515fb4db2f2a9836ded9c32c06186d16a930f3b9d280ba8052c347b087a0100000000fdffffff02edb49f00000000001600144f090f7625a7d4224af683d885f8688d1ee773fc80f0fa020000000016001443c0068aeaa52e73489579f4273d84acc1eb481502483045022100ab497bff55353f273b0187a948de503251fc910f6bd5605ca8125dbc81dd4377022050cec5acb0602e5f7bb01a77adae3cec6dab7b31d70f7e405500a8d06db3b100012102ac10e097b97fd5e997b4fe0d368dd8bd51e98e4c06c0c07a59da4f43d982af5202483045022100828132c59b777534a56da62cd88749c5c4251a6ecf66060d037e871207d45724022055a4baf4227ebba65210436c21a19d45c93ec77e6551e10934fb8625e27fea250121027f956023a959856e127fb01a15e890e5b9557dea0d642afb8c9510f4df9d729700000000"
}