{
  "txid": "9008c80895976491b9cb22afc42388886d626f4e45d2e78ff01a7fde4460b4f0",
  "version": 2,
  "locktime": 0,
  "vin": [
    {
      "txid": "3d4900229854b34a45483c57a59a161f56bea8863722659e725b2f80ecbde71b",
      "vout": 0,
      "prevout": {
        "scriptpubkey": "0014225a3a0b14091aff3aad517d792900a542edacb7",
        "scriptpubkey_asm": "OP_0 OP_PUSHBYTES_20 225a3a0b14091aff3aad517d792900a542edacb7",
        "scriptpubkey_type": "v0_p2wpkh",
        "scriptpubkey_address": "bc1qyfdr5zc5pyd07w4d297hj2gq54pwmt9hel9td8",
        "value": 114000
      },
      "scriptsig": "",
      "scriptsig_asm": "",
      "witness": [
        "3045022100d1f97e8a509b8bfcde934cacebca2b20de098e04b08eaae53f8724a171807f87022055dd28af8c9b58ba8e990bf2f6afe370887142731838823f0fbb8f36360ad81701",
        "027c80389657410bfb5681744527c31289755858e48cdd22f30631bfa4a8b88c6c"
      ],
      "is_coinbase": false,
      "sequence": 4294967293
    }
  ],
  "vout": [
    {
      "scriptpubkey": "0014ee7b96518dba749110b3c54b8340e42ebf7a51c3",
      "scriptpubkey_asm": "OP_0 OP_PUSHBYTES_20 ee7b96518dba749110b3c54b8340e42ebf7a51c3",
      "scriptpubkey_type": "v0_p2wpkh",
      "scriptpubkey_address": "bc1qaeaev5vdhf6fzy9nc49cxs8y96lh55wrpx9e8t",
      "value": 790
    },
    {
      "scriptpubkey": "51210396e61f642932f8918bafb63efa1a71abb58429baea41d4798ec478c17c8e54002102195465a029099fb2d96d7fa8fec636eb16067bf543a65ef1d91210ee1677da002102020202020202020202020202020202020202020202020202020202020202020253ae",
      "scriptpubkey_asm": "OP_PUSHNUM_1 OP_PUSHBYTES_33 0396e61f642932f8918bafb63efa1a71abb58429baea41d4798ec478c17c8e5400 OP_PUSHBYTES_33 02195465a029099fb2d96d7fa8fec636eb16067bf543a65ef1d91210ee1677da00 OP_PUSHBYTES_33 020202020202020202020202020202020202020202020202020202020202020202 OP_PUSHNUM_3 OP_CHECKMULTISIG",
      "scriptpubkey_type": "unknown",
      "value": 790
    },
    {
      "scriptpubkey": "512103a9315df0ce3df018d91038b307f6035c68927699304ee1b9ac2538d942a0ee0021024eadabb86202f01ddb1c748e9ade05cb9f918614a8445a98e3f2b910df8588002102020202020202020202020202020202020202020202020202020202020202020253ae",
      "scriptpubkey_asm": "OP_PUSHNUM_1 OP_PUSHBYTES_33 03a9315df0ce3df018d91038b307f6035c68927699304ee1b9ac2538d942a0ee00 OP_PUSHBYTES_33 024eadabb86202f01ddb1c748e9ade05cb9f918614a8445a98e3f2b910df858800 OP_PUSHBYTES_33 020202020202020202020202020202020202020202020202020202020202020202 OP_PUSHNUM_3 OP_CHECKMULTISIG",
      "scriptpubkey_type": "unknown",
      "value": 790
    },
    {
      "scriptpubkey": "0014225a3a0b14091aff3aad517d792900a542edacb7",
      "scriptpubkey_asm": "OP_0 OP_PUSHBYTES_20 225a3a0b14091aff3aad517d792900a542edacb7",
      "scriptpubkey_type": "v0_p2wpkh",
      "scriptpubkey_address": "bc1qyfdr5zc5pyd07w4d297hj2gq54pwmt9hel9td8",
      "value": 104619
    }
  ],
  "size": 451,
  "weight": 1474,
  "fee": 7011,
  "status": {
    "confirmed": true,
    "block_height": 834464,
    "block_hash": "0000000000000000000177a0869a911a2b65c9bdcd5a8bcb02b68f305bee848e",
    "block_time": 1710308296
  },
  "hex": "020000000001011be7bdec802f5b729e65223786a8be561f169aa5573c48454ab354982200493d0000000000fdffffff041603000000000000160014ee7b96518dba749110b3c54b8340e42ebf7a51c316030000000000006951210396e61f642932f8918bafb63efa1a71abb58429baea41d4798ec478c17c8e54002102195465a029099fb2d96d7fa8fec636eb16067bf543a65ef1d91210ee1677da002102020202020202020202020202020202020202020202020202020202020202020253ae160300000000000069512103a9315df0ce3df018d91038b307f6035c68927699304ee1b9ac2538d942a0ee0021024eadabb86202f01ddb1c748e9ade05cb9f918614a8445a98e3f2b910df8588002102020202020202020202020202020202020202020202020202020202020202020253aeab98010000000000160014225a3a0b14091aff3aad517d792900a542edacb702483045022100d1f97e8a509b8bfcde934cacebca2b20de098e04b08eaae53f8724a171807f87022055dd28af8c9b58ba8e990bf2f6afe370887142731838823f0fbb8f36360ad8170121027c80389657410bfb5681744527c31289755858e48cdd22f30631bfa4a8b88c6c00000000"
}