{
  "txid": "900ec60f825fb759438b76088b34a45d4760ece68878a1589e743747ae4cadbd",
  "version": 2,
  "locktime": 0,
  "vin": [
    {
      "txid": "a2efeff08428590a82afcb45016ead5a6c63aa56ba49b230b73b29963381cdc7",
      "vout": 1,
      "prevout": {
        "scriptpubkey": "0014c74d5b477736b3699036c5cdd0d488e25079ad41",
        "scriptpubkey_asm": "OP_0 OP_PUSHBYTES_20 c74d5b477736b3699036c5cdd0d488e25079ad41",
        "scriptpubkey_type": "v0_p2wpkh",
        "scriptpubkey_address": "bc1qcax4k3mhx6eknypkchxap4ygufg8nt2p87yjem",
        "value": 918486
      },
      "scriptsig": "",
      "scriptsig_asm": "",
      "witness": [
        "3044022018d1539f6f45e9a2c1fea88ac71578c6526b425ec203dac8f3c66125c696c7cd0220585f39fd7488b2a0cfea875c9d62b74b40636c20beb7e7057e15651f1ffd721c01",
        "0348dc22fba0f1e36ae174e7e1f9e7adb4b9c48b06a0d5e1130059ba483005fdd4"
      ],
      "is_coinbase": false,
      "sequence": 4294967295
    },
    {
      "txid": "cbc1603d7f781785f58cf8f27c6dca07fdd3ca86fc50d09854f494ece51b445d",
      "vout": 1,
      "prevout": {
        "scriptpubkey": "0014c74d5b477736b3699036c5cdd0d488e25079ad41",
        "scriptpubkey_asm": "OP_0 OP_PUSHBYTES_20 c74d5b477736b3699036c5cdd0d488e25079ad41",
        "scriptpubkey_type": "v0_p2wpkh",
        "scriptpubkey_address": "bc1qcax4k3mhx6eknypkchxap4ygufg8nt2p87yjem",
        "value": 900666
      },
      "scriptsig": "",
      "scriptsig_asm": "",
      "witness": [
        "3045022100b7650e29e3e17bc3575849da08a6e5c416c8dd8fd89e61bb49d82c77412577b102204f6deda5f1083e8ea392e2bcc3495a155dd5717ccdaa5bd1bbdd12fd2b7ab20601",
        "0348dc22fba0f1e36ae174e7e1f9e7adb4b9c48b06a0d5e1130059ba483005fdd4"
      ],
      "is_coinbase": false,
      "sequence": 4294967295
    },
    {
      "txid": "bde29d6425179a26d2c0b493136450a69e27c3c83e69dd479ebb5eef9e18c5cb",
      "vout": 1,
      "prevout": {
        "scriptpubkey": "0014c74d5b477736b3699036c5cdd0d488e25079ad41",
        "scriptpubkey_asm": "OP_0 OP_PUSHBYTES_20 c74d5b477736b3699036c5cdd0d488e25079ad41",
        "scriptpubkey_type": "v0_p2wpkh",
        "scriptpubkey_address": "bc1qcax4k3mhx6eknypkchxap4ygufg8nt2p87yjem",
        "value": 872987
      },
      "scriptsig": "",
      "scriptsig_asm": "",
      "witness": [
        "3045022100e6fbc2f6dcf87bed9733edf2786c8deed05b35d0f299af26c03edb94b61a0a5b022059ce038d548cabc6dbd78ac589cb11d80642f80ad24f7e4c799eddba308d8d8c01",
        "0348dc22fba0f1e36ae174e7e1f9e7adb4b9c48b06a0d5e1130059ba483005fdd4"
      ],
      "is_coinbase": false,
      "sequence": 4294967295
    }
  ],
  "vout": [
    {
      "scriptpubkey": "a914c46eba86f96b969861fe29032d7f186104ad7b4487",
      "scriptpubkey_asm": "OP_HASH160 OP_PUSHBYTES_20 c46eba86f96b969861fe29032d7f186104ad7b44 OP_EQUAL",
      "scriptpubkey_type": "p2sh",
      "scriptpubkey_address": "3Kbf1hfxbT2wh7x2WDK6Vuc9gPqbd1wVkd",
      "value": 2043930
    },
    {
      "scriptpubkey": "0014c74d5b477736b3699036c5cdd0d488e25079ad41",
      "scriptpubkey_asm": "OP_0 OP_PUSHBYTES_20 c74d5b477736b3699036c5cdd0d488e25079ad41",
      "scriptpubkey_type": "v0_p2wpkh",
      "scriptpubkey_address": "bc1qcax4k3mhx6eknypkchxap4ygufg8nt2p87yjem",
      "value": 643649
    }
  ],
  "size": 521,
  "weight": 1109,
  "fee": 4560,
  "status": {
    "confirmed": true,
    "block_height": 834638,
    "block_hash": "000000000000000000025f742c626208ac87e0b7d15054abb4a19ca2d735a54e",
    "block_time": 1710405325
  },
  "hex": "02000000000103c7cd813396293bb730b249ba56aa636c5aad6e0145cbaf820a592884f0efefa20100000000ffffffff5d441be5ec94f45498d050fc86cad3fd07ca6d7cf2f88cf58517787f3d60c1cb0100000000ffffffffcbc5189eef5ebb9e47dd693ec8c3279ea650641393b4c0d2269a1725649de2bd0100000000ffffffff021a301f000000000017a914c46eba86f96b969861fe29032d7f186104ad7b448741d2090000000000160014c74d5b477736b3699036c5cdd0d488e25079ad4102473044022018d1539f6f45e9a2c1fea88ac71578c6526b425ec203dac8f3c66125c696c7cd0220585f39fd7488b2a0cfea875c9d62b74b40636c20beb7e7057e15651f1ffd721c01210348dc22fba0f1e36ae174e7e1f9e7adb4b9c48b06a0d5e1130059ba483005fdd402483045022100b7650e29e3e17bc3575849da08a6e5c416c8dd8fd89e61bb49d82c77412577b102204f6deda5f1083e8ea392e2bcc3495a155dd5717ccdaa5bd1bbdd12fd2b7ab20601210348dc22fba0f1e36ae174e7e1f9e7adb4b9c48b06a0d5e1130059ba483005fdd402483045022100e6fbc2f6dcf87bed9733edf2786c8deed05b35d0f299af26c03edb94b61a0a5b022059ce038d548cabc6dbd78ac589cb11d80642f80ad24f7e4c799eddba308d8d8c01210348dc22fba0f1e36ae174e7e1f9e7adb4b9c48b06a0d5e1130059ba483005fdd400000000"
}