{
  "txid": "90229739e9b58541785f51c111148ddf29842281907d1f5365e187bdfcf8c409",
  "version": 2,
  "locktime": 0,
  "vin": [
    {
      "txid": "b6c93ae7db451f67602faae77204fdb42eecff26671cd4a74ec93411c73c2954",
      "vout": 1,
      "prevout": {
        "scriptpubkey": "0014e0e85d519d594af18f2b7d5b9238f64f571f7248",
        "scriptpubkey_asm": "OP_0 OP_PUSHBYTES_20 e0e85d519d594af18f2b7d5b9238f64f571f7248",
        "scriptpubkey_type": "v0_p2wpkh",
        "scriptpubkey_address": "bc1qur5965vat990rret04deyw8kfat37ujgf6sxr0",
        "value": 34083
      },
      "scriptsig": "",
      "scriptsig_asm": "",
      "witness": [
        "30450221008275738dc066f70209761ccbbbae4ebe51c46c24a6d303cb9b89f20cff5544c1022034e4aa5d1424e52558d9f7c9e23bbcd6bef4bfa1718804ca541e83cd2bf6ad2a01",
        "033b19577df2756de3bff093fe6b811dd8b4bfa5b9ecc7b46127263ef29ae33047"
      ],
      "is_coinbase": false,
      "sequence": 4294967295
    }
  ],
  "vout": [
    {
      "scriptpubkey": "51204d725abcdd3fb79aa432e9c73929d12a57032e0c1ccdabcbd74442b1e9032273",
      "scriptpubkey_asm": "OP_PUSHNUM_1 OP_PUSHBYTES_32 4d725abcdd3fb79aa432e9c73929d12a57032e0c1ccdabcbd74442b1e9032273",
      "scriptpubkey_type": "v1_p2tr",
      "scriptpubkey_address": "bc1pf4e940xa87me4fpja8rnj2w39ftsxtsvrnx6hj7hg3ptr6gryfesd23gxd",
      "value": 29000
    },
    {
      "scriptpubkey": "0014e0e85d519d594af18f2b7d5b9238f64f571f7248",
      "scriptpubkey_asm": "OP_0 OP_PUSHBYTES_20 e0e85d519d594af18f2b7d5b9238f64f571f7248",
      "scriptpubkey_type": "v0_p2wpkh",
      "scriptpubkey_address": "bc1qur5965vat990rret04deyw8kfat37ujgf6sxr0",
      "value": 2941
    }
  ],
  "size": 235,
  "weight": 610,
  "fee": 2142,
  "status": {
    "confirmed": true,
    "block_height": 834460,
    "block_hash": "00000000000000000000484a79b643b2524bbce82e5d8a442013fa5b8905ed98",
    "block_time": 1710307468
  },
  "hex": "0200000000010154293cc71134c94ea7d41c6726ffec2eb4fd0472e7aa2f60671f45dbe73ac9b60100000000ffffffff0248710000000000002251204d725abcdd3fb79aa432e9c73929d12a57032e0c1ccdabcbd74442b1e90322737d0b000000000000160014e0e85d519d594af18f2b7d5b9238f64f571f7248024830450221008275738dc066f70209761ccbbbae4ebe51c46c24a6d303cb9b89f20cff5544c1022034e4aa5d1424e52558d9f7c9e23bbcd6bef4bfa1718804ca541e83cd2bf6ad2a0121033b19577df2756de3bff093fe6b811dd8b4bfa5b9ecc7b46127263ef29ae3304700000000"
}