{
  "txid": "9027d14acea41cc45fe0a51fec5a33097524a6ae73e3a846e5ccf93005235804",
  "version": 2,
  "locktime": 0,
  "vin": [
    {
      "txid": "e2b37f9fce60d88f2ec0280779d556b06f8fed243c644163ade169b8c1261741",
      "vout": 1,
      "prevout": {
        "scriptpubkey": "5120d02c29efaf91536cdcee336da87eda7b06b8fe2deda4de17b659f5642b3f67e6",
        "scriptpubkey_asm": "OP_PUSHNUM_1 OP_PUSHBYTES_32 d02c29efaf91536cdcee336da87eda7b06b8fe2deda4de17b659f5642b3f67e6",
        "scriptpubkey_type": "v1_p2tr",
        "scriptpubkey_address": "bc1p6qkznma0j9fkeh8wxdk6slk60vrt3l3dakjdu9akt86kg2elvlnq5z5v80",
        "value": 546
      },
      "scriptsig": "",
      "scriptsig_asm": "",
      "witness": [
        "a7173012145b17632f2a88ae0112cd3134ea591c6a25fe312f39d76680cba500e5608092b0ca5ca7fbf2700cdf4d4e9371d964e8192ce5bc357f541c5b0f9cd1"
      ],
      "is_coinbase": false,
      "sequence": 2147483649
    },
    {
      "txid": "a1faa23d73b8edeb3b38f63bd8aff1315715bcfb2d267db2802b9c47f5e649c3",
      "vout": 0,
      "prevout": {
        "scriptpubkey": "5120d02c29efaf91536cdcee336da87eda7b06b8fe2deda4de17b659f5642b3f67e6",
        "scriptpubkey_asm": "OP_PUSHNUM_1 OP_PUSHBYTES_32 d02c29efaf91536cdcee336da87eda7b06b8fe2deda4de17b659f5642b3f67e6",
        "scriptpubkey_type": "v1_p2tr",
        "scriptpubkey_address": "bc1p6qkznma0j9fkeh8wxdk6slk60vrt3l3dakjdu9akt86kg2elvlnq5z5v80",
        "value": 500000
      },
      "scriptsig": "",
      "scriptsig_asm": "",
      "witness": [
        "9cc692b5ef7d50468fe7da4095627174d5374e459c795b796aa41423716619423798c574006831bc5fccbfb65088cd9820db813746aaf820734b1b3e7f7ffbfb"
      ],
      "is_coinbase": false,
      "sequence": 2147483649
    }
  ],
  "vout": [
    {
      "scriptpubkey": "512066a0e690ac3729063aadc9f2a25fec73d64d7e1775cdbc761e90f4c2c5b04536",
      "scriptpubkey_asm": "OP_PUSHNUM_1 OP_PUSHBYTES_32 66a0e690ac3729063aadc9f2a25fec73d64d7e1775cdbc761e90f4c2c5b04536",
      "scriptpubkey_type": "v1_p2tr",
      "scriptpubkey_address": "bc1pv6swdy9vxu5svw4de8e2yhlvw0ty6lshwhxmcas7jr6v93dsg5mq7px63t",
      "value": 546
    },
    {
      "scriptpubkey": "5120d02c29efaf91536cdcee336da87eda7b06b8fe2deda4de17b659f5642b3f67e6",
      "scriptpubkey_asm": "OP_PUSHNUM_1 OP_PUSHBYTES_32 d02c29efaf91536cdcee336da87eda7b06b8fe2deda4de17b659f5642b3f67e6",
      "scriptpubkey_type": "v1_p2tr",
      "scriptpubkey_address": "bc1p6qkznma0j9fkeh8wxdk6slk60vrt3l3dakjdu9akt86kg2elvlnq5z5v80",
      "value": 496835
    }
  ],
  "size": 312,
  "weight": 846,
  "fee": 3165,
  "status": {
    "confirmed": true,
    "block_height": 834460,
    "block_hash": "00000000000000000000484a79b643b2524bbce82e5d8a442013fa5b8905ed98",
    "block_time": 1710307468
  },
  "hex": "02000000000102411726c1b869e1ad6341643c24ed8f6fb056d5790728c02e8fd860ce9f7fb3e2010000000001000080c349e6f5479c2b80b27d262dfbbc155731f1afd83bf6383bebedb8733da2faa100000000000100008002220200000000000022512066a0e690ac3729063aadc9f2a25fec73d64d7e1775cdbc761e90f4c2c5b04536c394070000000000225120d02c29efaf91536cdcee336da87eda7b06b8fe2deda4de17b659f5642b3f67e60140a7173012145b17632f2a88ae0112cd3134ea591c6a25fe312f39d76680cba500e5608092b0ca5ca7fbf2700cdf4d4e9371d964e8192ce5bc357f541c5b0f9cd101409cc692b5ef7d50468fe7da4095627174d5374e459c795b796aa41423716619423798c574006831bc5fccbfb65088cd9820db813746aaf820734b1b3e7f7ffbfb00000000"
}