{
  "txid": "902d07ef61a6330dae40a656b7f8dc8372f7e575bfd7cd47f17588dfcb6c735c",
  "version": 1,
  "locktime": 0,
  "vin": [
    {
      "txid": "d6b49ba51bb762a1fc8b9bfdbf3ddb013982341eb5143ba852b7388945ed135a",
      "vout": 0,
      "prevout": {
        "scriptpubkey": "001414e144e05f2f9c917ad494b64e81942f8d798afb",
        "scriptpubkey_asm": "OP_0 OP_PUSHBYTES_20 14e144e05f2f9c917ad494b64e81942f8d798afb",
        "scriptpubkey_type": "v0_p2wpkh",
        "scriptpubkey_address": "bc1qzns5fczl97wfz7k5jjmyaqv597xhnzhmhq6ruj",
        "value": 9925
      },
      "scriptsig": "",
      "scriptsig_asm": "",
      "witness": [
        "304402202ed94a2d40ad17df484b388b9ec8bde09c022a35a5ba401c2a2e171365003cec022062246277c3d8e8aa62cd3d1241d70eb1a6a33f9b695b0fd2e298644287fadb5701",
        "02780ce994a34fbb082cf04928fc5cee4b4f7285b0b04db016aa7d4b8b73eedee3"
      ],
      "is_coinbase": false,
      "sequence": 4294967295
    },
    {
      "txid": "fc5d0bb68500bd327e55928d5ecda175feaee643687ddaef9e1533521248025b",
      "vout": 1,
      "prevout": {
        "scriptpubkey": "001414e144e05f2f9c917ad494b64e81942f8d798afb",
        "scriptpubkey_asm": "OP_0 OP_PUSHBYTES_20 14e144e05f2f9c917ad494b64e81942f8d798afb",
        "scriptpubkey_type": "v0_p2wpkh",
        "scriptpubkey_address": "bc1qzns5fczl97wfz7k5jjmyaqv597xhnzhmhq6ruj",
        "value": 21328
      },
      "scriptsig": "",
      "scriptsig_asm": "",
      "witness": [
        "3045022100af5e46f8b2259853a12c3058e4d1d222b0567a167c7b6016f86d96ad361a17aa02204e1dd958184df2c7c19b68f115bc31d151061b2cacca26ebce07532b6747134601",
        "02780ce994a34fbb082cf04928fc5cee4b4f7285b0b04db016aa7d4b8b73eedee3"
      ],
      "is_coinbase": false,
      "sequence": 4294967295
    },
    {
      "txid": "ab29d44883510a3404968ccbf0b6c687ca943c06e06cf6ccf4e09324eaff3251",
      "vout": 1,
      "prevout": {
        "scriptpubkey": "001414e144e05f2f9c917ad494b64e81942f8d798afb",
        "scriptpubkey_asm": "OP_0 OP_PUSHBYTES_20 14e144e05f2f9c917ad494b64e81942f8d798afb",
        "scriptpubkey_type": "v0_p2wpkh",
        "scriptpubkey_address": "bc1qzns5fczl97wfz7k5jjmyaqv597xhnzhmhq6ruj",
        "value": 93584
      },
      "scriptsig": "",
      "scriptsig_asm": "",
      "witness": [
        "30450221009f0bde1afc4eff48d3939be178d87ad1443f754a241fda928c7dc1fe11c49d5902202f55246f2974680a6691be46932ab37bc7a2e63966545471d67c1604b4920d7b01",
        "02780ce994a34fbb082cf04928fc5cee4b4f7285b0b04db016aa7d4b8b73eedee3"
      ],
      "is_coinbase": false,
      "sequence": 4294967295
    },
    {
      "txid": "86da2fa6c29c04b79bab35c1248bd032beaa8884f3c07ff94f61ac04c88f67a0",
      "vout": 1,
      "prevout": {
        "scriptpubkey": "001414e144e05f2f9c917ad494b64e81942f8d798afb",
        "scriptpubkey_asm": "OP_0 OP_PUSHBYTES_20 14e144e05f2f9c917ad494b64e81942f8d798afb",
        "scriptpubkey_type": "v0_p2wpkh",
        "scriptpubkey_address": "bc1qzns5fczl97wfz7k5jjmyaqv597xhnzhmhq6ruj",
        "value": 189700
      },
      "scriptsig": "",
      "scriptsig_asm": "",
      "witness": [
        "30450221008f7064217b7629e6cfa6385f84d2822f713508e852204464f0ee10d45d0c10ca022045daa2cb1be9583820084395fb25cc3ff440f7d5ca1a1ee875fc2378f9d2b46001",
        "02780ce994a34fbb082cf04928fc5cee4b4f7285b0b04db016aa7d4b8b73eedee3"
      ],
      "is_coinbase": false,
      "sequence": 4294967295
    }
  ],
  "vout": [
    {
      "scriptpubkey": "00146021c9773f0c98dbc68c2d8cd2df59a80847fac0",
      "scriptpubkey_asm": "OP_0 OP_PUSHBYTES_20 6021c9773f0c98dbc68c2d8cd2df59a80847fac0",
      "scriptpubkey_type": "v0_p2wpkh",
      "scriptpubkey_address": "bc1qvqsujaelpjvdh35v9kxd9h6e4qyy07kqhn88cy",
      "value": 299559
    },
    {
      "scriptpubkey": "001414e144e05f2f9c917ad494b64e81942f8d798afb",
      "scriptpubkey_asm": "OP_0 OP_PUSHBYTES_20 14e144e05f2f9c917ad494b64e81942f8d798afb",
      "scriptpubkey_type": "v0_p2wpkh",
      "scriptpubkey_address": "bc1qzns5fczl97wfz7k5jjmyaqv597xhnzhmhq6ruj",
      "value": 5663
    }
  ],
  "size": 669,
  "weight": 1377,
  "fee": 9315,
  "status": {
    "confirmed": true,
    "block_height": 834638,
    "block_hash": "000000000000000000025f742c626208ac87e0b7d15054abb4a19ca2d735a54e",
    "block_time": 1710405325
  },
  "hex": "010000000001045a13ed458938b752a83b14b51e34823901db3dbffd9b8bfca162b71ba59bb4d60000000000ffffffff5b0248125233159eefda7d6843e6aefe75a1cd5e8d92557e32bd0085b60b5dfc0100000000ffffffff5132ffea2493e0f4ccf66ce0063c94ca87c6b6f0cb8c9604340a518348d429ab0100000000ffffffffa0678fc804ac614ff97fc0f38488aabe32d08b24c135ab9bb7049cc2a62fda860100000000ffffffff0227920400000000001600146021c9773f0c98dbc68c2d8cd2df59a80847fac01f1600000000000016001414e144e05f2f9c917ad494b64e81942f8d798afb0247304402202ed94a2d40ad17df484b388b9ec8bde09c022a35a5ba401c2a2e171365003cec022062246277c3d8e8aa62cd3d1241d70eb1a6a33f9b695b0fd2e298644287fadb57012102780ce994a34fbb082cf04928fc5cee4b4f7285b0b04db016aa7d4b8b73eedee302483045022100af5e46f8b2259853a12c3058e4d1d222b0567a167c7b6016f86d96ad361a17aa02204e1dd958184df2c7c19b68f115bc31d151061b2cacca26ebce07532b67471346012102780ce994a34fbb082cf04928fc5cee4b4f7285b0b04db016aa7d4b8b73eedee3024830450221009f0bde1afc4eff48d3939be178d87ad1443f754a241fda928c7dc1fe11c49d5902202f55246f2974680a6691be46932ab37bc7a2e63966545471d67c1604b4920d7b012102780ce994a34fbb082cf04928fc5cee4b4f7285b0b04db016aa7d4b8b73eedee3024830450221008f7064217b7629e6cfa6385f84d2822f713508e852204464f0ee10d45d0c10ca022045daa2cb1be9583820084395fb25cc3ff440f7d5ca1a1ee875fc2378f9d2b460012102780ce994a34fbb082cf04928fc5cee4b4f7285b0b04db016aa7d4b8b73eedee300000000"
}