{
  "txid": "902e9a8479a71c5e97eed59cd2d0b3ebb984fe169875946899679fce177a3e46",
  "version": 1,
  "locktime": 0,
  "vin": [
    {
      "txid": "980fec720cb0e51b637bfc69f0a95a7d3d7e46d44944cd8eac2286148ba21e47",
      "vout": 9,
      "prevout": {
        "scriptpubkey": "0014466e2363282157d9a8cc77858b265007b55b126e",
        "scriptpubkey_asm": "OP_0 OP_PUSHBYTES_20 466e2363282157d9a8cc77858b265007b55b126e",
        "scriptpubkey_type": "v0_p2wpkh",
        "scriptpubkey_address": "bc1qgehzxcegy9tan2xvw7zckfjsq764kynwffvr82",
        "value": 450000
      },
      "scriptsig": "",
      "scriptsig_asm": "",
      "witness": [
        "3045022100bafe081f16b58e0fb08094ba8691ecba81d79e6475f5c6af72d55dd9993d24e1022017b7d3b7a8e2ec707026fe71ad01d5e019b2f9aaf51af136228aee4c7cb128f501",
        "03daee9230846f99a4c2b307f4e48d85ecc4679dc3b674ec0054d0d045e55c6dae"
      ],
      "is_coinbase": false,
      "sequence": 4294967295
    }
  ],
  "vout": [
    {
      "scriptpubkey": "0014bf7efea88e5b680597c24e15bdc9d9f99df85d12",
      "scriptpubkey_asm": "OP_0 OP_PUSHBYTES_20 bf7efea88e5b680597c24e15bdc9d9f99df85d12",
      "scriptpubkey_type": "v0_p2wpkh",
      "scriptpubkey_address": "bc1qhal0a2ywtd5qt97zfc2mmjwelxwlshgj85lpc6",
      "value": 445000
    },
    {
      "scriptpubkey": "0014466e2363282157d9a8cc77858b265007b55b126e",
      "scriptpubkey_asm": "OP_0 OP_PUSHBYTES_20 466e2363282157d9a8cc77858b265007b55b126e",
      "scriptpubkey_type": "v0_p2wpkh",
      "scriptpubkey_address": "bc1qgehzxcegy9tan2xvw7zckfjsq764kynwffvr82",
      "value": 1193
    },
    {
      "scriptpubkey": "6a403d3a4554482e4554483a3078343735613731386245424138463538623064394334414438303843373135373339614435343736363a302f312f303a74643a3730",
      "scriptpubkey_asm": "OP_RETURN OP_PUSHBYTES_64 3d3a4554482e4554483a3078343735613731386245424138463538623064394334414438303843373135373339614435343736363a302f312f303a74643a3730",
      "scriptpubkey_type": "op_return",
      "value": 0
    }
  ],
  "size": 298,
  "weight": 862,
  "fee": 3807,
  "status": {
    "confirmed": true,
    "block_height": 834638,
    "block_hash": "000000000000000000025f742c626208ac87e0b7d15054abb4a19ca2d735a54e",
    "block_time": 1710405325
  },
  "hex": "01000000000101471ea28b148622ac8ecd4449d4467e3d7d5aa9f069fc7b631be5b00c72ec0f980900000000ffffffff0348ca060000000000160014bf7efea88e5b680597c24e15bdc9d9f99df85d12a904000000000000160014466e2363282157d9a8cc77858b265007b55b126e0000000000000000426a403d3a4554482e4554483a3078343735613731386245424138463538623064394334414438303843373135373339614435343736363a302f312f303a74643a373002483045022100bafe081f16b58e0fb08094ba8691ecba81d79e6475f5c6af72d55dd9993d24e1022017b7d3b7a8e2ec707026fe71ad01d5e019b2f9aaf51af136228aee4c7cb128f5012103daee9230846f99a4c2b307f4e48d85ecc4679dc3b674ec0054d0d045e55c6dae00000000"
}