{
  "txid": "903ad787eb000ebda9b7cf38c3895051e48f4ef2994dbb653ba6b5d33f339c38",
  "version": 2,
  "locktime": 0,
  "vin": [
    {
      "txid": "75492e6132e589e37ddf2d6a09ada034d3583564f978a9813749369056004063",
      "vout": 1,
      "prevout": {
        "scriptpubkey": "a9140d294065779345d7a29be5e279ade24a31bc8a1687",
        "scriptpubkey_asm": "OP_HASH160 OP_PUSHBYTES_20 0d294065779345d7a29be5e279ade24a31bc8a16 OP_EQUAL",
        "scriptpubkey_type": "p2sh",
        "scriptpubkey_address": "32tc8FBgRmDs3SRwYAjpSPLJh5YAbTcxya",
        "value": 110555
      },
      "scriptsig": "1600142f8b46d53edf554a11f47df01e2873f2f240d498",
      "scriptsig_asm": "OP_PUSHBYTES_22 00142f8b46d53edf554a11f47df01e2873f2f240d498",
      "witness": [
        "3044022066a9da0575234afa8b76c28007e532a78040a19f8ad0493df69dec4d95d9282302206c9a099c1ef2cdb04a583cc44ffe0cf5bda6c47164299a587e5868996290a96701",
        "0253cec1e8a67b358c05a225c3c6c0df51694a432b5cdb05ff2e9e1b78e142ee89"
      ],
      "is_coinbase": false,
      "sequence": 2147483649,
      "inner_redeemscript_asm": "OP_0 OP_PUSHBYTES_20 2f8b46d53edf554a11f47df01e2873f2f240d498"
    },
    {
      "txid": "5a4e7c45407d80f87e8c01d297cb49ef7e88556f14358da2fa5afd68dfb6f8ac",
      "vout": 1,
      "prevout": {
        "scriptpubkey": "a9140d294065779345d7a29be5e279ade24a31bc8a1687",
        "scriptpubkey_asm": "OP_HASH160 OP_PUSHBYTES_20 0d294065779345d7a29be5e279ade24a31bc8a16 OP_EQUAL",
        "scriptpubkey_type": "p2sh",
        "scriptpubkey_address": "32tc8FBgRmDs3SRwYAjpSPLJh5YAbTcxya",
        "value": 75373
      },
      "scriptsig": "1600142f8b46d53edf554a11f47df01e2873f2f240d498",
      "scriptsig_asm": "OP_PUSHBYTES_22 00142f8b46d53edf554a11f47df01e2873f2f240d498",
      "witness": [
        "30450221008092c68777472bd2609ff30ca7f2c4f4ef8e1175945e964fd7b37178ae414eb002205cf600fac2894983def9cfa5117b65ba543ba8d88e13be69d8fb6773cdaac9bd01",
        "0253cec1e8a67b358c05a225c3c6c0df51694a432b5cdb05ff2e9e1b78e142ee89"
      ],
      "is_coinbase": false,
      "sequence": 2147483649,
      "inner_redeemscript_asm": "OP_0 OP_PUSHBYTES_20 2f8b46d53edf554a11f47df01e2873f2f240d498"
    }
  ],
  "vout": [
    {
      "scriptpubkey": "51204a1b42bd62818af15e389e84e898c7d72069efa0b8f878d799bd9c088aac5c1b",
      "scriptpubkey_asm": "OP_PUSHNUM_1 OP_PUSHBYTES_32 4a1b42bd62818af15e389e84e898c7d72069efa0b8f878d799bd9c088aac5c1b",
      "scriptpubkey_type": "v1_p2tr",
      "scriptpubkey_address": "bc1pfgd590tzsx90zh3cn6zw3xx86usxnmaqhru834uehkwq3z4vtsdsh8yrns",
      "value": 150000
    },
    {
      "scriptpubkey": "a9140d294065779345d7a29be5e279ade24a31bc8a1687",
      "scriptpubkey_asm": "OP_HASH160 OP_PUSHBYTES_20 0d294065779345d7a29be5e279ade24a31bc8a16 OP_EQUAL",
      "scriptpubkey_type": "p2sh",
      "scriptpubkey_address": "32tc8FBgRmDs3SRwYAjpSPLJh5YAbTcxya",
      "value": 31122
    }
  ],
  "size": 430,
  "weight": 1069,
  "fee": 4806,
  "status": {
    "confirmed": true,
    "block_height": 834638,
    "block_hash": "000000000000000000025f742c626208ac87e0b7d15054abb4a19ca2d735a54e",
    "block_time": 1710405325
  },
  "hex": "02000000000102634000569036493781a978f9643558d334a0ad096a2ddf7de389e532612e497501000000171600142f8b46d53edf554a11f47df01e2873f2f240d49801000080acf8b6df68fd5afaa28d35146f55887eef49cb97d2018c7ef8807d40457c4e5a01000000171600142f8b46d53edf554a11f47df01e2873f2f240d4980100008002f0490200000000002251204a1b42bd62818af15e389e84e898c7d72069efa0b8f878d799bd9c088aac5c1b927900000000000017a9140d294065779345d7a29be5e279ade24a31bc8a168702473044022066a9da0575234afa8b76c28007e532a78040a19f8ad0493df69dec4d95d9282302206c9a099c1ef2cdb04a583cc44ffe0cf5bda6c47164299a587e5868996290a96701210253cec1e8a67b358c05a225c3c6c0df51694a432b5cdb05ff2e9e1b78e142ee89024830450221008092c68777472bd2609ff30ca7f2c4f4ef8e1175945e964fd7b37178ae414eb002205cf600fac2894983def9cfa5117b65ba543ba8d88e13be69d8fb6773cdaac9bd01210253cec1e8a67b358c05a225c3c6c0df51694a432b5cdb05ff2e9e1b78e142ee8900000000"
}