{
  "txid": "903d757c6a163a3ea489cf28de8c37ff4fb81b7977912a1f86747971752e5ccf",
  "version": 1,
  "locktime": 0,
  "vin": [
    {
      "txid": "c142841c81905c461bdca67baa18610aac25c19db96b948b376d6074838c64df",
      "vout": 1,
      "prevout": {
        "scriptpubkey": "76a9147d8d61c8ecac49c6705727333c2b64b5371c2c5388ac",
        "scriptpubkey_asm": "OP_DUP OP_HASH160 OP_PUSHBYTES_20 7d8d61c8ecac49c6705727333c2b64b5371c2c53 OP_EQUALVERIFY OP_CHECKSIG",
        "scriptpubkey_type": "p2pkh",
        "scriptpubkey_address": "1CSrqNVAQbRoWJvBRorvS73n7Wmv4of3v7",
        "value": 204233187
      },
      "scriptsig": "47304402200b57a07eb12394ad6f703a2f1d3c525603875a86af4c3065349cc5c69623df1e0220119a237cdc9c26a89387926e1a29f950c47f35056e27e78689c74ce4a761f8b7012103b33c6f19da7ba075e7198399a1abbfd444d19050ef54b123d26216d2167559b0",
      "scriptsig_asm": "OP_PUSHBYTES_71 304402200b57a07eb12394ad6f703a2f1d3c525603875a86af4c3065349cc5c69623df1e0220119a237cdc9c26a89387926e1a29f950c47f35056e27e78689c74ce4a761f8b701 OP_PUSHBYTES_33 03b33c6f19da7ba075e7198399a1abbfd444d19050ef54b123d26216d2167559b0",
      "is_coinbase": false,
      "sequence": 4294967295
    }
  ],
  "vout": [
    {
      "scriptpubkey": "a914e8e1eed6b8348e2fe9c6a2ee3580e5a0ba68564987",
      "scriptpubkey_asm": "OP_HASH160 OP_PUSHBYTES_20 e8e1eed6b8348e2fe9c6a2ee3580e5a0ba685649 OP_EQUAL",
      "scriptpubkey_type": "p2sh",
      "scriptpubkey_address": "3NvPM9RDY2J8SeNC352ViC42HTDWqff2pW",
      "value": 23163400
    },
    {
      "scriptpubkey": "76a9147d8d61c8ecac49c6705727333c2b64b5371c2c5388ac",
      "scriptpubkey_asm": "OP_DUP OP_HASH160 OP_PUSHBYTES_20 7d8d61c8ecac49c6705727333c2b64b5371c2c53 OP_EQUALVERIFY OP_CHECKSIG",
      "scriptpubkey_type": "p2pkh",
      "scriptpubkey_address": "1CSrqNVAQbRoWJvBRorvS73n7Wmv4of3v7",
      "value": 181065267
    }
  ],
  "size": 223,
  "weight": 892,
  "fee": 4520,
  "status": {
    "confirmed": true,
    "block_height": 834638,
    "block_hash": "000000000000000000025f742c626208ac87e0b7d15054abb4a19ca2d735a54e",
    "block_time": 1710405325
  },
  "hex": "0100000001df648c8374606d378b946bb99dc125ac0a6118aa7ba6dc1b465c90811c8442c1010000006a47304402200b57a07eb12394ad6f703a2f1d3c525603875a86af4c3065349cc5c69623df1e0220119a237cdc9c26a89387926e1a29f950c47f35056e27e78689c74ce4a761f8b7012103b33c6f19da7ba075e7198399a1abbfd444d19050ef54b123d26216d2167559b0ffffffff02087261010000000017a914e8e1eed6b8348e2fe9c6a2ee3580e5a0ba6856498733d6ca0a000000001976a9147d8d61c8ecac49c6705727333c2b64b5371c2c5388ac00000000"
}