{
  "txid": "90493fc320ab74f81b57d0599c42b5b95d10565249504c4cecdadacc6ba2c470",
  "version": 2,
  "locktime": 0,
  "vin": [
    {
      "txid": "8c79f35838cbe06310e068352adcfb6e4a5e6fbbd608514f16e1316bebad5ce2",
      "vout": 0,
      "prevout": {
        "scriptpubkey": "a91473d9a324f24de66a66a0085cc8b19f17cf670e9787",
        "scriptpubkey_asm": "OP_HASH160 OP_PUSHBYTES_20 73d9a324f24de66a66a0085cc8b19f17cf670e97 OP_EQUAL",
        "scriptpubkey_type": "p2sh",
        "scriptpubkey_address": "3CFaMJoVpp8em14zjb352B2oazCc7RccnN",
        "value": 31478
      },
      "scriptsig": "220020a6ad08f21ef067063b39e4d8b0542f1d08ffe56658aa55fb89bb4f7ecc7155c6",
      "scriptsig_asm": "OP_PUSHBYTES_34 0020a6ad08f21ef067063b39e4d8b0542f1d08ffe56658aa55fb89bb4f7ecc7155c6",
      "witness": [
        "304402205dc26cdc96d941255f3e2900dd3df389cb38ae7ffd86df4bdba9c3176211feba0220117006ca9fa539dd3914ce398038f5a74dbb847ca1de95f888ff078e4f989e4001",
        "028e14e8944dc7205a9c570aeab9ce2bb75774b15cb601a8ace6d18ec6a0a15d6a",
        "02c65a192e9c6edd51d6345f8c6b546f94d51f86c863939c2220d3d35e38c335b7",
        "01",
        "76518763751450d473e2f86610ca16d9a006af91e8ee4a56b582147aaba39189d25c5c5bca3f0f064628265ac8a4376776528763751450d473e2f86610ca16d9a006af91e8ee4a56b58214953b39eb7ff2c00cc02485636367a19f4e2275966776538763751445ede86cb2ca10b4a92c7fc0bcc27f4d10b8339114e74729524af1d34739768d5e272ce72351dd5b106754881445ede86cb2ca10b4a92c7fc0bcc27f4d10b83391145870a3def1c5ba007713541678e69c523c96d3206868687ba98878a988ac"
      ],
      "is_coinbase": false,
      "sequence": 4294967293,
      "inner_redeemscript_asm": "OP_0 OP_PUSHBYTES_32 a6ad08f21ef067063b39e4d8b0542f1d08ffe56658aa55fb89bb4f7ecc7155c6",
      "inner_witnessscript_asm": "OP_DUP OP_PUSHNUM_1 OP_EQUAL OP_IF OP_DROP OP_PUSHBYTES_20 50d473e2f86610ca16d9a006af91e8ee4a56b582 OP_PUSHBYTES_20 7aaba39189d25c5c5bca3f0f064628265ac8a437 OP_ELSE OP_DUP OP_PUSHNUM_2 OP_EQUAL OP_IF OP_DROP OP_PUSHBYTES_20 50d473e2f86610ca16d9a006af91e8ee4a56b582 OP_PUSHBYTES_20 953b39eb7ff2c00cc02485636367a19f4e227596 OP_ELSE OP_DUP OP_PUSHNUM_3 OP_EQUAL OP_IF OP_DROP OP_PUSHBYTES_20 45ede86cb2ca10b4a92c7fc0bcc27f4d10b83391 OP_PUSHBYTES_20 e74729524af1d34739768d5e272ce72351dd5b10 OP_ELSE OP_PUSHNUM_4 OP_EQUALVERIFY OP_PUSHBYTES_20 45ede86cb2ca10b4a92c7fc0bcc27f4d10b83391 OP_PUSHBYTES_20 5870a3def1c5ba007713541678e69c523c96d320 OP_ENDIF OP_ENDIF OP_ENDIF OP_ROT OP_HASH160 OP_EQUALVERIFY OP_OVER OP_HASH160 OP_EQUALVERIFY OP_CHECKSIG"
    }
  ],
  "vout": [
    {
      "scriptpubkey": "0014cb7546228d7d953f4643f0678c768a33cbaece29",
      "scriptpubkey_asm": "OP_0 OP_PUSHBYTES_20 cb7546228d7d953f4643f0678c768a33cbaece29",
      "scriptpubkey_type": "v0_p2wpkh",
      "scriptpubkey_address": "bc1qed65vg5d0k2n73jr7pncca52x096an3fwaqdtu",
      "value": 1100
    },
    {
      "scriptpubkey": "a914b6037a9b5fee537fece2d8285c17638a018b676487",
      "scriptpubkey_asm": "OP_HASH160 OP_PUSHBYTES_20 b6037a9b5fee537fece2d8285c17638a018b6764 OP_EQUAL",
      "scriptpubkey_type": "p2sh",
      "scriptpubkey_address": "3JHR5BF5aAxQBuJVVyM7Xk7iz4t3murejg",
      "value": 26950
    }
  ],
  "size": 493,
  "weight": 940,
  "fee": 3428,
  "status": {
    "confirmed": true,
    "block_height": 834460,
    "block_hash": "00000000000000000000484a79b643b2524bbce82e5d8a442013fa5b8905ed98",
    "block_time": 1710307468
  },
  "hex": "02000000000101e25cadeb6b31e1164f5108d6bb6f5e4a6efbdc2a3568e01063e0cb3858f3798c0000000023220020a6ad08f21ef067063b39e4d8b0542f1d08ffe56658aa55fb89bb4f7ecc7155c6fdffffff024c04000000000000160014cb7546228d7d953f4643f0678c768a33cbaece29466900000000000017a914b6037a9b5fee537fece2d8285c17638a018b6764870547304402205dc26cdc96d941255f3e2900dd3df389cb38ae7ffd86df4bdba9c3176211feba0220117006ca9fa539dd3914ce398038f5a74dbb847ca1de95f888ff078e4f989e400121028e14e8944dc7205a9c570aeab9ce2bb75774b15cb601a8ace6d18ec6a0a15d6a2102c65a192e9c6edd51d6345f8c6b546f94d51f86c863939c2220d3d35e38c335b70101c676518763751450d473e2f86610ca16d9a006af91e8ee4a56b582147aaba39189d25c5c5bca3f0f064628265ac8a4376776528763751450d473e2f86610ca16d9a006af91e8ee4a56b58214953b39eb7ff2c00cc02485636367a19f4e2275966776538763751445ede86cb2ca10b4a92c7fc0bcc27f4d10b8339114e74729524af1d34739768d5e272ce72351dd5b106754881445ede86cb2ca10b4a92c7fc0bcc27f4d10b83391145870a3def1c5ba007713541678e69c523c96d3206868687ba98878a988ac00000000"
}