{
  "txid": "904d039ce2f3825ae1fee72b75c39c5cd26247bf887a3f5378f57a49c13d8875",
  "version": 2,
  "locktime": 0,
  "vin": [
    {
      "txid": "872705ec6a1e783ad0bcf5453c1fa18cdd87be94bb5836598b72fd4c9a5d3044",
      "vout": 4,
      "prevout": {
        "scriptpubkey": "5120098d204e02a54b1b9a278aa436230d4189a651ac80fd75252be86eaf8ff92d8a",
        "scriptpubkey_asm": "OP_PUSHNUM_1 OP_PUSHBYTES_32 098d204e02a54b1b9a278aa436230d4189a651ac80fd75252be86eaf8ff92d8a",
        "scriptpubkey_type": "v1_p2tr",
        "scriptpubkey_address": "bc1ppxxjqnsz5493hx3832jrvgcdgxy6v5dvsr7h2fftaph2lrle9k9q9fcej7",
        "value": 60103519
      },
      "scriptsig": "",
      "scriptsig_asm": "",
      "witness": [
        "285bfe3d14d06cafa578c2323cd8b122a651a73f0c1190bc5e42f39dc54e21513b31df3243f2e4c05ddca6064af22b8bf70d7d309e518fbbdc3348d5fb03dcc1"
      ],
      "is_coinbase": false,
      "sequence": 4294967295
    }
  ],
  "vout": [
    {
      "scriptpubkey": "0014ad63b32ef8db8899d855cb08429ead380119cac9",
      "scriptpubkey_asm": "OP_0 OP_PUSHBYTES_20 ad63b32ef8db8899d855cb08429ead380119cac9",
      "scriptpubkey_type": "v0_p2wpkh",
      "scriptpubkey_address": "bc1q443mxthcmwyfnkz4evyy984d8qq3njkf3yvr76",
      "value": 129000
    },
    {
      "scriptpubkey": "0014efd67e1f24fb57ca9073b827516e661f6d415742",
      "scriptpubkey_asm": "OP_0 OP_PUSHBYTES_20 efd67e1f24fb57ca9073b827516e661f6d415742",
      "scriptpubkey_type": "v0_p2wpkh",
      "scriptpubkey_address": "bc1qalt8u8eyldtu4yrnhqn4zmnxrak5z46zqvk3ww",
      "value": 59972292
    }
  ],
  "size": 181,
  "weight": 520,
  "fee": 2227,
  "status": {
    "confirmed": true,
    "block_height": 834552,
    "block_hash": "00000000000000000001dd0468a70c94f619251d286585cff57aeb4bd9ede330",
    "block_time": 1710355598
  },
  "hex": "0200000000010144305d9a4cfd728b593658bb94be87dd8ca11f3c45f5bcd03a781e6aec0527870400000000ffffffff02e8f7010000000000160014ad63b32ef8db8899d855cb08429ead380119cac9c41a930300000000160014efd67e1f24fb57ca9073b827516e661f6d4157420140285bfe3d14d06cafa578c2323cd8b122a651a73f0c1190bc5e42f39dc54e21513b31df3243f2e4c05ddca6064af22b8bf70d7d309e518fbbdc3348d5fb03dcc100000000"
}