{
  "txid": "905514727f24de3b3bdf37701954a3915824290e12561ce42960ff0733a28b84",
  "version": 2,
  "locktime": 0,
  "vin": [
    {
      "txid": "b381d02616b1510deac1de6e69073d4d070d796f29a989734a371b6e729a005d",
      "vout": 17,
      "prevout": {
        "scriptpubkey": "0014649bef1654ce7ebc3f0b0542397c9d5e84b83eeb",
        "scriptpubkey_asm": "OP_0 OP_PUSHBYTES_20 649bef1654ce7ebc3f0b0542397c9d5e84b83eeb",
        "scriptpubkey_type": "v0_p2wpkh",
        "scriptpubkey_address": "bc1qvjd779j5eeltc0ctq4prjlyat6zts0htnt92pm",
        "value": 4656100
      },
      "scriptsig": "",
      "scriptsig_asm": "",
      "witness": [
        "3045022100dcb3849b6f82bc3da7346b6707d48bc1378ea9c79924e2cdeb49cb130f1ee9ca02201eb42275c1d1562be4ce64e697190349045b06ef48d51d5f57f72324d3f9d17201",
        "03b7198a51a00fb5622af4c70499f1ae90a38c4ea5d1c5085d7709a2f6418e3935"
      ],
      "is_coinbase": false,
      "sequence": 0
    },
    {
      "txid": "73a945dc002104a12169c12a3a8a79bb8180d74d386105d90238f4774913e7b3",
      "vout": 91,
      "prevout": {
        "scriptpubkey": "0014dc79251dc33292746cb570ca2f877ac36d3993a9",
        "scriptpubkey_asm": "OP_0 OP_PUSHBYTES_20 dc79251dc33292746cb570ca2f877ac36d3993a9",
        "scriptpubkey_type": "v0_p2wpkh",
        "scriptpubkey_address": "bc1qm3uj28wrx2f8gm94wr9zlpm6cdknnyafjnpy3d",
        "value": 7544000
      },
      "scriptsig": "",
      "scriptsig_asm": "",
      "witness": [
        "3045022100f3b760c229eda5bb4c47df1fde8e8e899240f4284668a9811391e3875b013da102205139ce32ef1683c4e0a2546dfe8079aa6f5f7342fb107a5025cf5e009c86c8ad01",
        "031b2614d44c9e7847aa3c62ba89e176adfa1824104fcca1d184f7022f3a2f599f"
      ],
      "is_coinbase": false,
      "sequence": 0
    },
    {
      "txid": "fac1629d3654091185b3aa7b98fec48ecb1a0b5b68f4ff4c31fa74708fed7de3",
      "vout": 0,
      "prevout": {
        "scriptpubkey": "001429ef629e487d82f59f5d7efdf26c323d025c8879",
        "scriptpubkey_asm": "OP_0 OP_PUSHBYTES_20 29ef629e487d82f59f5d7efdf26c323d025c8879",
        "scriptpubkey_type": "v0_p2wpkh",
        "scriptpubkey_address": "bc1q98hk98jg0kp0t86a0m7lympj85p9ezre287h3y",
        "value": 5605455
      },
      "scriptsig": "",
      "scriptsig_asm": "",
      "witness": [
        "3044022048113838cbe175809112dba9befe6ec20bedebfb9296c1aebac5f09c92f9a3cb02206f45468d26f39f0b283b7820f9ef487086446e29e760cd2ad4010e529bc2df6901",
        "02029e680b99dbfccd421253c549b17929b12c47ae56fc4e80b79b7913c4680fef"
      ],
      "is_coinbase": false,
      "sequence": 0
    },
    {
      "txid": "d2874c8c8baafb6b2d30a2b94cb0cf195673b995511068a01e068febe73a8127",
      "vout": 3,
      "prevout": {
        "scriptpubkey": "0014ef8faec8c7f5a22bf231d5a14ef66c3f29d7a88e",
        "scriptpubkey_asm": "OP_0 OP_PUSHBYTES_20 ef8faec8c7f5a22bf231d5a14ef66c3f29d7a88e",
        "scriptpubkey_type": "v0_p2wpkh",
        "scriptpubkey_address": "bc1qa786ajx87k3zhu336ks5aanv8u5a02yw4uhjru",
        "value": 12925771
      },
      "scriptsig": "",
      "scriptsig_asm": "",
      "witness": [
        "3045022100ee6a96416993b4105da0da714bec14eb7b535e973b8fe983e35d3b22e49c7f4202204c5dddc9e88e2e561cd28e7b898462a5bcdfb24fa43357b14bdadf281ab6f8c201",
        "022eaad210b786a0d285ca2294ec9226ae60a93378cddb76b456efe76789d9edaa"
      ],
      "is_coinbase": false,
      "sequence": 0
    }
  ],
  "vout": [
    {
      "scriptpubkey": "76a914580c5dda70b5347d72d7c41807ead58eb2a006d488ac",
      "scriptpubkey_asm": "OP_DUP OP_HASH160 OP_PUSHBYTES_20 580c5dda70b5347d72d7c41807ead58eb2a006d4 OP_EQUALVERIFY OP_CHECKSIG",
      "scriptpubkey_type": "p2pkh",
      "scriptpubkey_address": "192ZH8TJScn7Np6J77ryNrDffKu8EYtTaC",
      "value": 30725620
    }
  ],
  "size": 641,
  "weight": 1265,
  "fee": 5706,
  "status": {
    "confirmed": true,
    "block_height": 834638,
    "block_hash": "000000000000000000025f742c626208ac87e0b7d15054abb4a19ca2d735a54e",
    "block_time": 1710405325
  },
  "hex": "020000000001045d009a726e1b374a7389a9296f790d074d3d07696edec1ea0d51b11626d081b3110000000000000000b3e7134977f43802d90561384dd78081bb798a3a2ac16921a1042100dc45a9735b0000000000000000e37ded8f7074fa314cfff4685b0b1acb8ec4fe987baab385110954369d62c1fa00000000000000000027813ae7eb8f061ea068105195b9735619cfb04cb9a2302d6bfbaa8b8c4c87d203000000000000000001f4d5d401000000001976a914580c5dda70b5347d72d7c41807ead58eb2a006d488ac02483045022100dcb3849b6f82bc3da7346b6707d48bc1378ea9c79924e2cdeb49cb130f1ee9ca02201eb42275c1d1562be4ce64e697190349045b06ef48d51d5f57f72324d3f9d172012103b7198a51a00fb5622af4c70499f1ae90a38c4ea5d1c5085d7709a2f6418e393502483045022100f3b760c229eda5bb4c47df1fde8e8e899240f4284668a9811391e3875b013da102205139ce32ef1683c4e0a2546dfe8079aa6f5f7342fb107a5025cf5e009c86c8ad0121031b2614d44c9e7847aa3c62ba89e176adfa1824104fcca1d184f7022f3a2f599f02473044022048113838cbe175809112dba9befe6ec20bedebfb9296c1aebac5f09c92f9a3cb02206f45468d26f39f0b283b7820f9ef487086446e29e760cd2ad4010e529bc2df69012102029e680b99dbfccd421253c549b17929b12c47ae56fc4e80b79b7913c4680fef02483045022100ee6a96416993b4105da0da714bec14eb7b535e973b8fe983e35d3b22e49c7f4202204c5dddc9e88e2e561cd28e7b898462a5bcdfb24fa43357b14bdadf281ab6f8c20121022eaad210b786a0d285ca2294ec9226ae60a93378cddb76b456efe76789d9edaa00000000"
}