{
  "txid": "90577ee4cd8e4e94b2c0e63d8006e2fe343bb6ad78e6f071f9e90f9e54c7406a",
  "version": 1,
  "locktime": 0,
  "vin": [
    {
      "txid": "f74fa0a9e63b78b48dd26044abe74719dd4f6131eb36e81e4172be48e306901f",
      "vout": 7,
      "prevout": {
        "scriptpubkey": "0014823b3f3860395217042db451675d76b2cca78112",
        "scriptpubkey_asm": "OP_0 OP_PUSHBYTES_20 823b3f3860395217042db451675d76b2cca78112",
        "scriptpubkey_type": "v0_p2wpkh",
        "scriptpubkey_address": "bc1qsgan7wrq89fpwppdk3gkwhtkktx20qgjwyr45p",
        "value": 636233
      },
      "scriptsig": "",
      "scriptsig_asm": "",
      "witness": [
        "3045022100ec738a7a0c7c87b00f62ba69301d7b2f070db1127c03d4269f6ed3847208802b02200379183355e33f5deca705686bc98683520f6e50676cc8f1e577bdc5e6e753ee01",
        "0343a5b610318502ea719a7616471c6326324b4c0e49537003aaaecbbccf1277fe"
      ],
      "is_coinbase": false,
      "sequence": 4294967295
    }
  ],
  "vout": [
    {
      "scriptpubkey": "76a9141de76fbe4945d5ac7ac453451a1a93cd4f7cf91488ac",
      "scriptpubkey_asm": "OP_DUP OP_HASH160 OP_PUSHBYTES_20 1de76fbe4945d5ac7ac453451a1a93cd4f7cf914 OP_EQUALVERIFY OP_CHECKSIG",
      "scriptpubkey_type": "p2pkh",
      "scriptpubkey_address": "13j7r44hXDximMJroeEpbEaCzfy8jwiqMt",
      "value": 634553
    }
  ],
  "size": 195,
  "weight": 450,
  "fee": 1680,
  "status": {
    "confirmed": true,
    "block_height": 834638,
    "block_hash": "000000000000000000025f742c626208ac87e0b7d15054abb4a19ca2d735a54e",
    "block_time": 1710405325
  },
  "hex": "010000000001011f9006e348be72411ee836eb31614fdd1947e7ab4460d28db4783be6a9a04ff70700000000ffffffff01b9ae0900000000001976a9141de76fbe4945d5ac7ac453451a1a93cd4f7cf91488ac02483045022100ec738a7a0c7c87b00f62ba69301d7b2f070db1127c03d4269f6ed3847208802b02200379183355e33f5deca705686bc98683520f6e50676cc8f1e577bdc5e6e753ee01210343a5b610318502ea719a7616471c6326324b4c0e49537003aaaecbbccf1277fe00000000"
}