{
  "txid": "905c1f304ace286b3eba316810cd3e54ed43aca9162d8ab1749f15fd6305edcc",
  "version": 2,
  "locktime": 0,
  "vin": [
    {
      "txid": "591a70633e951571198d1a3ea03b7d843457e34636861bb6e3bfffc433283fa2",
      "vout": 1,
      "prevout": {
        "scriptpubkey": "76a914a02708e979a57856ca3bcf6b66fde5085062838388ac",
        "scriptpubkey_asm": "OP_DUP OP_HASH160 OP_PUSHBYTES_20 a02708e979a57856ca3bcf6b66fde50850628383 OP_EQUALVERIFY OP_CHECKSIG",
        "scriptpubkey_type": "p2pkh",
        "scriptpubkey_address": "1FbosszbgZbFuY8FUv2BJipqNKACacuUhd",
        "value": 1403315484
      },
      "scriptsig": "4730440220306bb019ea312a370f66c86fcacdb9e70650f282a4b9580df154cc3b1eb883f00220136860cc092728235f3e77ab41a0951f0e07b0c020f47de29b4c1ff396705d4c01210392f18e3542fef907e0f9914c1938f52a1050eb26353e1ff4761269f9043af084",
      "scriptsig_asm": "OP_PUSHBYTES_71 30440220306bb019ea312a370f66c86fcacdb9e70650f282a4b9580df154cc3b1eb883f00220136860cc092728235f3e77ab41a0951f0e07b0c020f47de29b4c1ff396705d4c01 OP_PUSHBYTES_33 0392f18e3542fef907e0f9914c1938f52a1050eb26353e1ff4761269f9043af084",
      "is_coinbase": false,
      "sequence": 4294967295
    }
  ],
  "vout": [
    {
      "scriptpubkey": "0014336bf918c3ba486bf817ae840570c502de0dc363",
      "scriptpubkey_asm": "OP_0 OP_PUSHBYTES_20 336bf918c3ba486bf817ae840570c502de0dc363",
      "scriptpubkey_type": "v0_p2wpkh",
      "scriptpubkey_address": "bc1qxd4ljxxrhfyxh7qh46zq2ux9qt0qmsmrkdae6k",
      "value": 693000
    },
    {
      "scriptpubkey": "76a914a02708e979a57856ca3bcf6b66fde5085062838388ac",
      "scriptpubkey_asm": "OP_DUP OP_HASH160 OP_PUSHBYTES_20 a02708e979a57856ca3bcf6b66fde50850628383 OP_EQUALVERIFY OP_CHECKSIG",
      "scriptpubkey_type": "p2pkh",
      "scriptpubkey_address": "1FbosszbgZbFuY8FUv2BJipqNKACacuUhd",
      "value": 1402615802
    }
  ],
  "size": 222,
  "weight": 888,
  "fee": 6682,
  "status": {
    "confirmed": true,
    "block_height": 834638,
    "block_hash": "000000000000000000025f742c626208ac87e0b7d15054abb4a19ca2d735a54e",
    "block_time": 1710405325
  },
  "hex": "0200000001a23f2833c4ffbfe3b61b863646e35734847d3ba03e1a8d197115953e63701a59010000006a4730440220306bb019ea312a370f66c86fcacdb9e70650f282a4b9580df154cc3b1eb883f00220136860cc092728235f3e77ab41a0951f0e07b0c020f47de29b4c1ff396705d4c01210392f18e3542fef907e0f9914c1938f52a1050eb26353e1ff4761269f9043af084ffffffff0208930a0000000000160014336bf918c3ba486bf817ae840570c502de0dc363fa379a53000000001976a914a02708e979a57856ca3bcf6b66fde5085062838388ac00000000"
}