{
  "txid": "908d538ee1cb3b270730965424c15ee1085c16fc8b54d1e92e91d870a8184ade",
  "version": 1,
  "locktime": 0,
  "vin": [
    {
      "txid": "3fff128842e3ce41b52552c55baaec1a82adbb27bce3d39c0ef16319680a98f0",
      "vout": 560,
      "prevout": {
        "scriptpubkey": "00141753d7aae8c8c86f356988d3008b808d7bcd7bf9",
        "scriptpubkey_asm": "OP_0 OP_PUSHBYTES_20 1753d7aae8c8c86f356988d3008b808d7bcd7bf9",
        "scriptpubkey_type": "v0_p2wpkh",
        "scriptpubkey_address": "bc1qzafa02hgeryx7dtf3rfspzuq34au67le9h5g9k",
        "value": 157477
      },
      "scriptsig": "",
      "scriptsig_asm": "",
      "witness": [
        "304402203590430ad78beb1ecf9df4af2718039112b3be624ccb70e3de068702ee6358fc02207bf7359aca9cb72f2431ed42d9f2ba82f4ca55cca87d6a25e93e154d6a6dc82401",
        "0237918a975e558f424ba40c67bf0d0a817c5160ca5bcd204454b638f57dc01e87"
      ],
      "is_coinbase": false,
      "sequence": 4294967294
    }
  ],
  "vout": [
    {
      "scriptpubkey": "0014af5870e82ac0db3c2ed820a3fa060b2c72c55c37",
      "scriptpubkey_asm": "OP_0 OP_PUSHBYTES_20 af5870e82ac0db3c2ed820a3fa060b2c72c55c37",
      "scriptpubkey_type": "v0_p2wpkh",
      "scriptpubkey_address": "bc1q4av8p6p2crdnctkcyz3l5pst93ev2hphsjdml6",
      "value": 154507
    }
  ],
  "size": 191,
  "weight": 437,
  "fee": 2970,
  "status": {
    "confirmed": true,
    "block_height": 834638,
    "block_hash": "000000000000000000025f742c626208ac87e0b7d15054abb4a19ca2d735a54e",
    "block_time": 1710405325
  },
  "hex": "01000000000101f0980a681963f10e9cd3e3bc27bbad821aecaa5bc55225b541cee3428812ff3f3002000000feffffff018b5b020000000000160014af5870e82ac0db3c2ed820a3fa060b2c72c55c370247304402203590430ad78beb1ecf9df4af2718039112b3be624ccb70e3de068702ee6358fc02207bf7359aca9cb72f2431ed42d9f2ba82f4ca55cca87d6a25e93e154d6a6dc82401210237918a975e558f424ba40c67bf0d0a817c5160ca5bcd204454b638f57dc01e8700000000"
}