{
  "txid": "908d758db520926623f9eb6548fafd08fe07f61da958b0dd3a3289324195993e",
  "version": 2,
  "locktime": 833156,
  "vin": [
    {
      "txid": "cc67e80dc9e1f82f791f25443dba038a8b779bcbccacb24c2c3eaacfd78fe02b",
      "vout": 0,
      "prevout": {
        "scriptpubkey": "a91445469ee3eadf132bd4fad5904ef11397471bd0f487",
        "scriptpubkey_asm": "OP_HASH160 OP_PUSHBYTES_20 45469ee3eadf132bd4fad5904ef11397471bd0f4 OP_EQUAL",
        "scriptpubkey_type": "p2sh",
        "scriptpubkey_address": "381K9bAfU4fVmMSro4WfxvgiKKcHRizahN",
        "value": 100000
      },
      "scriptsig": "16001448e70d6801d29ac6fcbcabb66137d0909ed43674",
      "scriptsig_asm": "OP_PUSHBYTES_22 001448e70d6801d29ac6fcbcabb66137d0909ed43674",
      "witness": [
        "304402201d2fceee8c40606d7264473643c36cbb21daa3d02c5fd8f2496b1d85ca000b180220633b45df06cb5868b9f63a9eb6fb983212df8cb16aa0bb02d5f67198105ec77401",
        "02bdc76974f8c7008b8e25b2960cc4d1b328755ec4c2d45ab9f235de35dee16ee4"
      ],
      "is_coinbase": false,
      "sequence": 4294967294,
      "inner_redeemscript_asm": "OP_0 OP_PUSHBYTES_20 48e70d6801d29ac6fcbcabb66137d0909ed43674"
    }
  ],
  "vout": [
    {
      "scriptpubkey": "76a914a687f406ac2f2001c1c881772488c8fed9bd474188ac",
      "scriptpubkey_asm": "OP_DUP OP_HASH160 OP_PUSHBYTES_20 a687f406ac2f2001c1c881772488c8fed9bd4741 OP_EQUALVERIFY OP_CHECKSIG",
      "scriptpubkey_type": "p2pkh",
      "scriptpubkey_address": "1GBY33JPXtMa3hSU2XKh84G9BqPZ5s7k7C",
      "value": 37190
    },
    {
      "scriptpubkey": "76a914b2691974701d89e988a93ee5af666190c17d887188ac",
      "scriptpubkey_asm": "OP_DUP OP_HASH160 OP_PUSHBYTES_20 b2691974701d89e988a93ee5af666190c17d8871 OP_EQUALVERIFY OP_CHECKSIG",
      "scriptpubkey_type": "p2pkh",
      "scriptpubkey_address": "1HGMBanKMabCobVA3LhnstePXCW7bbJgDL",
      "value": 61006
    }
  ],
  "size": 251,
  "weight": 677,
  "fee": 1804,
  "status": {
    "confirmed": true,
    "block_height": 834464,
    "block_hash": "0000000000000000000177a0869a911a2b65c9bdcd5a8bcb02b68f305bee848e",
    "block_time": 1710308296
  },
  "hex": "020000000001012be08fd7cfaa3e2c4cb2accccb9b778b8a03ba3d44251f792ff8e1c90de867cc000000001716001448e70d6801d29ac6fcbcabb66137d0909ed43674feffffff0246910000000000001976a914a687f406ac2f2001c1c881772488c8fed9bd474188ac4eee0000000000001976a914b2691974701d89e988a93ee5af666190c17d887188ac0247304402201d2fceee8c40606d7264473643c36cbb21daa3d02c5fd8f2496b1d85ca000b180220633b45df06cb5868b9f63a9eb6fb983212df8cb16aa0bb02d5f67198105ec774012102bdc76974f8c7008b8e25b2960cc4d1b328755ec4c2d45ab9f235de35dee16ee484b60c00"
}