{
  "txid": "908f32cf4db4d6f57cb4648627b7e0fdd2fb570ee190febb1e55c5dc951ec361",
  "version": 1,
  "locktime": 0,
  "vin": [
    {
      "txid": "6a79629cba248d0a40e2715b5696308c3d50cce0f00f298a60ada01fb74f9888",
      "vout": 1,
      "prevout": {
        "scriptpubkey": "0014f2dd1a60b9bba681a3435578f2823374a7e6c51d",
        "scriptpubkey_asm": "OP_0 OP_PUSHBYTES_20 f2dd1a60b9bba681a3435578f2823374a7e6c51d",
        "scriptpubkey_type": "v0_p2wpkh",
        "scriptpubkey_address": "bc1q7tw35c9ehwngrg6r24u09q3nwjn7d3gatce9zl",
        "value": 261954
      },
      "scriptsig": "",
      "scriptsig_asm": "",
      "witness": [
        "3045022100e83e2843de4e26c60492078e3b39deb4e1956b889b16e21239cf000f4097d050022043bfa57d12625c408207f2b37cf21828d9538bfd1975587bde4dec188956664d01",
        "0330e760e15491af29b384d386d2aeab5eba46db2c51a644ba0beffeea21a56275"
      ],
      "is_coinbase": false,
      "sequence": 4294967295
    },
    {
      "txid": "f078d794c8895ea87b27a1ed0a766a2e0c4324b8796a092f4cfac544b0df7f44",
      "vout": 0,
      "prevout": {
        "scriptpubkey": "0014d22de66511244abad357e6af42b8bf7455a4ed35",
        "scriptpubkey_asm": "OP_0 OP_PUSHBYTES_20 d22de66511244abad357e6af42b8bf7455a4ed35",
        "scriptpubkey_type": "v0_p2wpkh",
        "scriptpubkey_address": "bc1q6gk7veg3y39t456hu6h59w9lw326fmf4qvves8",
        "value": 8030629
      },
      "scriptsig": "",
      "scriptsig_asm": "",
      "witness": [
        "3045022100f0725d9e205d009d0cbb165058fcc46f66dacf1bdc7596480a4732ac18ea283b022025cf3485e55299e55100dfe1ade766ebc2adfb9172db2a3bcb0bff7e8190a1be01",
        "03f9cd872b01a05ebc20f3c922842af7402c6c7ec091a45957760b45983e46f4da"
      ],
      "is_coinbase": false,
      "sequence": 4294967295
    }
  ],
  "vout": [
    {
      "scriptpubkey": "0014d28df503e0528a8898648bf61b0660486c23c700",
      "scriptpubkey_asm": "OP_0 OP_PUSHBYTES_20 d28df503e0528a8898648bf61b0660486c23c700",
      "scriptpubkey_type": "v0_p2wpkh",
      "scriptpubkey_address": "bc1q62xl2qlq229g3xry30mpkpnqfpkz83cqp5l5s8",
      "value": 1777100
    },
    {
      "scriptpubkey": "001458fd7dd0fe860ca4dfcc5d14dc55fe774bcebafc",
      "scriptpubkey_asm": "OP_0 OP_PUSHBYTES_20 58fd7dd0fe860ca4dfcc5d14dc55fe774bcebafc",
      "scriptpubkey_type": "v0_p2wpkh",
      "scriptpubkey_address": "bc1qtr7hm587scx2fh7vt52dc407wa9uawhugr4nst",
      "value": 6510917
    }
  ],
  "size": 372,
  "weight": 834,
  "fee": 4566,
  "status": {
    "confirmed": true,
    "block_height": 834552,
    "block_hash": "00000000000000000001dd0468a70c94f619251d286585cff57aeb4bd9ede330",
    "block_time": 1710355598
  },
  "hex": "0100000000010288984fb71fa0ad608a290ff0e0cc503d8c3096565b71e2400a8d24ba9c62796a0100000000ffffffff447fdfb044c5fa4c2f096a79b824430c2e6a760aeda1277ba85e89c894d778f00000000000ffffffff02cc1d1b0000000000160014d28df503e0528a8898648bf61b0660486c23c700455963000000000016001458fd7dd0fe860ca4dfcc5d14dc55fe774bcebafc02483045022100e83e2843de4e26c60492078e3b39deb4e1956b889b16e21239cf000f4097d050022043bfa57d12625c408207f2b37cf21828d9538bfd1975587bde4dec188956664d01210330e760e15491af29b384d386d2aeab5eba46db2c51a644ba0beffeea21a5627502483045022100f0725d9e205d009d0cbb165058fcc46f66dacf1bdc7596480a4732ac18ea283b022025cf3485e55299e55100dfe1ade766ebc2adfb9172db2a3bcb0bff7e8190a1be012103f9cd872b01a05ebc20f3c922842af7402c6c7ec091a45957760b45983e46f4da00000000"
}