{
  "txid": "909884b7d0b8e514ba9f1bc9925cbc0b4f817d5c5570fed07cbe3409bc8fe82c",
  "version": 1,
  "locktime": 0,
  "vin": [
    {
      "txid": "a7ed2af034a3904fffeb9ea98f0fed90c683c323e066e6c8e3d0494bbbb5b18c",
      "vout": 0,
      "prevout": {
        "scriptpubkey": "76a91459769a1a9528da6cfd3893b9392290f1f600e67188ac",
        "scriptpubkey_asm": "OP_DUP OP_HASH160 OP_PUSHBYTES_20 59769a1a9528da6cfd3893b9392290f1f600e671 OP_EQUALVERIFY OP_CHECKSIG",
        "scriptpubkey_type": "p2pkh",
        "scriptpubkey_address": "19A3DgZemXncGj71irqPQfrUWRkjjQf3vU",
        "value": 1945760
      },
      "scriptsig": "483045022100d3ef1e24aacb9735d99a6b59e6b2bc4b179b38c473a9f8b6ac9579d4caeec54902201e6bf53ae767ff315c7ead82b7199b1543240aa30db9c71fdae42cb89b3b94c4012103f9d15d2d0fe8e00698dff5913395a721f02003164f2ada9d20638065c5b0b95b",
      "scriptsig_asm": "OP_PUSHBYTES_72 3045022100d3ef1e24aacb9735d99a6b59e6b2bc4b179b38c473a9f8b6ac9579d4caeec54902201e6bf53ae767ff315c7ead82b7199b1543240aa30db9c71fdae42cb89b3b94c401 OP_PUSHBYTES_33 03f9d15d2d0fe8e00698dff5913395a721f02003164f2ada9d20638065c5b0b95b",
      "is_coinbase": false,
      "sequence": 4294967295
    }
  ],
  "vout": [
    {
      "scriptpubkey": "76a9144122cc3478c49600f59821e752cf518b12430f7088ac",
      "scriptpubkey_asm": "OP_DUP OP_HASH160 OP_PUSHBYTES_20 4122cc3478c49600f59821e752cf518b12430f70 OP_EQUALVERIFY OP_CHECKSIG",
      "scriptpubkey_type": "p2pkh",
      "scriptpubkey_address": "16wQcFj1n3LNHmBWunrQ66aU81dZuA4aa8",
      "value": 1900000
    },
    {
      "scriptpubkey": "76a9140bf7a23ab152e46fe15973841a988b6e6826960888ac",
      "scriptpubkey_asm": "OP_DUP OP_HASH160 OP_PUSHBYTES_20 0bf7a23ab152e46fe15973841a988b6e68269608 OP_EQUALVERIFY OP_CHECKSIG",
      "scriptpubkey_type": "p2pkh",
      "scriptpubkey_address": "126H6176SmbnX5CY8T86MADW4MhhHivtEC",
      "value": 38754
    }
  ],
  "size": 226,
  "weight": 904,
  "fee": 7006,
  "status": {
    "confirmed": true,
    "block_height": 834638,
    "block_hash": "000000000000000000025f742c626208ac87e0b7d15054abb4a19ca2d735a54e",
    "block_time": 1710405325
  },
  "hex": "01000000018cb1b5bb4b49d0e3c8e666e023c383c690ed0f8fa99eebff4f90a334f02aeda7000000006b483045022100d3ef1e24aacb9735d99a6b59e6b2bc4b179b38c473a9f8b6ac9579d4caeec54902201e6bf53ae767ff315c7ead82b7199b1543240aa30db9c71fdae42cb89b3b94c4012103f9d15d2d0fe8e00698dff5913395a721f02003164f2ada9d20638065c5b0b95bffffffff02e0fd1c00000000001976a9144122cc3478c49600f59821e752cf518b12430f7088ac62970000000000001976a9140bf7a23ab152e46fe15973841a988b6e6826960888ac00000000"
}