{
  "txid": "90ac90affb81cd7d368cc6425498d4e235dcd925f9b56bb04959b2b3f4a9dfdb",
  "version": 2,
  "locktime": 0,
  "vin": [
    {
      "txid": "bf899f7f311ba5c8b61e803b49a3ea032763625577dd24fc46e4691b8f62b9dc",
      "vout": 8,
      "prevout": {
        "scriptpubkey": "0014367c215409354150f225d62ba8f5be8cba514e21",
        "scriptpubkey_asm": "OP_0 OP_PUSHBYTES_20 367c215409354150f225d62ba8f5be8cba514e21",
        "scriptpubkey_type": "v0_p2wpkh",
        "scriptpubkey_address": "bc1qxe7zz4qfx4q4pu396c463ad73ja9zn3p6t7j9m",
        "value": 155276
      },
      "scriptsig": "",
      "scriptsig_asm": "",
      "witness": [
        "304402203366c142c1836d34c7ea5435d67657a15519d98e1fd3b402bb5c2be47a7a31a002200ab19dec938cb751f8997d1aefd83e69f577312892a74be37a1630d13f704e4101",
        "02c0d3d990ee8024d7726ca942fd5f476a78b6ed55ffc7e3a236d80251a0034e2f"
      ],
      "is_coinbase": false,
      "sequence": 4294967293
    },
    {
      "txid": "7a078690e67f15e3fba17fd5f8ead0e74dc101a1f565d7ec44fe267754b72fdf",
      "vout": 0,
      "prevout": {
        "scriptpubkey": "0014367c215409354150f225d62ba8f5be8cba514e21",
        "scriptpubkey_asm": "OP_0 OP_PUSHBYTES_20 367c215409354150f225d62ba8f5be8cba514e21",
        "scriptpubkey_type": "v0_p2wpkh",
        "scriptpubkey_address": "bc1qxe7zz4qfx4q4pu396c463ad73ja9zn3p6t7j9m",
        "value": 149134
      },
      "scriptsig": "",
      "scriptsig_asm": "",
      "witness": [
        "30440220764a6f10dfc1a719cbfcd50c12c501e57326752d58cb89ed4874320055ef5266022036d8fe25da077a077f931708af8cac5538b853085d79f9c47a1aad94e950cc5b01",
        "02c0d3d990ee8024d7726ca942fd5f476a78b6ed55ffc7e3a236d80251a0034e2f"
      ],
      "is_coinbase": false,
      "sequence": 4294967293
    }
  ],
  "vout": [
    {
      "scriptpubkey": "0014a5f7d0e1f15d8d52ad4ee38a204faa91d1f5dec5",
      "scriptpubkey_asm": "OP_0 OP_PUSHBYTES_20 a5f7d0e1f15d8d52ad4ee38a204faa91d1f5dec5",
      "scriptpubkey_type": "v0_p2wpkh",
      "scriptpubkey_address": "bc1q5hmapc03tkx49t2wuw9zqna2j8glthk9jwuawf",
      "value": 302510
    }
  ],
  "size": 339,
  "weight": 708,
  "fee": 1900,
  "status": {
    "confirmed": true,
    "block_height": 834464,
    "block_hash": "0000000000000000000177a0869a911a2b65c9bdcd5a8bcb02b68f305bee848e",
    "block_time": 1710308296
  },
  "hex": "02000000000102dcb9628f1b69e446fc24dd775562632703eaa3493b801eb6c8a51b317f9f89bf0800000000fdffffffdf2fb7547726fe44ecd765f5a101c14de7d0eaf8d57fa1fbe3157fe69086077a0000000000fdffffff01ae9d040000000000160014a5f7d0e1f15d8d52ad4ee38a204faa91d1f5dec50247304402203366c142c1836d34c7ea5435d67657a15519d98e1fd3b402bb5c2be47a7a31a002200ab19dec938cb751f8997d1aefd83e69f577312892a74be37a1630d13f704e41012102c0d3d990ee8024d7726ca942fd5f476a78b6ed55ffc7e3a236d80251a0034e2f024730440220764a6f10dfc1a719cbfcd50c12c501e57326752d58cb89ed4874320055ef5266022036d8fe25da077a077f931708af8cac5538b853085d79f9c47a1aad94e950cc5b012102c0d3d990ee8024d7726ca942fd5f476a78b6ed55ffc7e3a236d80251a0034e2f00000000"
}