{
  "txid": "90b22ecd1aec05105687e856b863ff3fbf8720d8436c013ec0db3dcc478794b4",
  "version": 1,
  "locktime": 0,
  "vin": [
    {
      "txid": "3b7dc918e5671037effad7848727da3d3bf302b05f5ded9bec89449460473bbb",
      "vout": 16,
      "prevout": {
        "scriptpubkey": "0014f8d9f2203c6f0773983392a487d45c0c818f9573",
        "scriptpubkey_asm": "OP_0 OP_PUSHBYTES_20 f8d9f2203c6f0773983392a487d45c0c818f9573",
        "scriptpubkey_type": "v0_p2wpkh",
        "scriptpubkey_address": "bc1qlrvlygpudurh8xpnj2jg04zupjqcl9tnk5np40",
        "value": 37079526
      },
      "scriptsig": "",
      "scriptsig_asm": "",
      "witness": [
        "30440220780ad409b4d13eb1882aaf2e7a53a206734aa302279d6859e254a7f0a7633556022011fd0cbdf5d4374513ef60f850b7059c6a093ab9e46beb002505b7cba0623cf301",
        "022bf8c45da789f695d59f93983c813ec205203056e19ec5d3fbefa809af67e2ec"
      ],
      "is_coinbase": false,
      "sequence": 4294967295
    }
  ],
  "vout": [
    {
      "scriptpubkey": "76a9146085312a9c500ff9cc35b571b0a1e5efb7fb9f1688ac",
      "scriptpubkey_asm": "OP_DUP OP_HASH160 OP_PUSHBYTES_20 6085312a9c500ff9cc35b571b0a1e5efb7fb9f16 OP_EQUALVERIFY OP_CHECKSIG",
      "scriptpubkey_type": "p2pkh",
      "scriptpubkey_address": "19oMRmCWMYuhnP5W61ABrjjxHc6RphZh11",
      "value": 100000
    },
    {
      "scriptpubkey": "0014ad4cc1cc859c57477bf90d0f944360d90a3998bf",
      "scriptpubkey_asm": "OP_0 OP_PUSHBYTES_20 ad4cc1cc859c57477bf90d0f944360d90a3998bf",
      "scriptpubkey_type": "v0_p2wpkh",
      "scriptpubkey_address": "bc1q44xvrny9n3t5w7lep58egsmqmy9rnx9lt6u0tc",
      "value": 36977942
    }
  ],
  "size": 225,
  "weight": 573,
  "fee": 1584,
  "status": {
    "confirmed": true,
    "block_height": 834464,
    "block_hash": "0000000000000000000177a0869a911a2b65c9bdcd5a8bcb02b68f305bee848e",
    "block_time": 1710308296
  },
  "hex": "01000000000101bb3b4760944489ec9bed5d5fb002f33b3dda278784d7faef371067e518c97d3b1000000000ffffffff02a0860100000000001976a9146085312a9c500ff9cc35b571b0a1e5efb7fb9f1688ac163d340200000000160014ad4cc1cc859c57477bf90d0f944360d90a3998bf024730440220780ad409b4d13eb1882aaf2e7a53a206734aa302279d6859e254a7f0a7633556022011fd0cbdf5d4374513ef60f850b7059c6a093ab9e46beb002505b7cba0623cf30121022bf8c45da789f695d59f93983c813ec205203056e19ec5d3fbefa809af67e2ec00000000"
}