{
  "txid": "90be57e7b35ae0d4a53a56e52170562d756962dd09b8dd94fe9c5a41fffc4894",
  "version": 2,
  "locktime": 834459,
  "vin": [
    {
      "txid": "03277874fd074c4d58806f9a7307fd93927e745483f4b04a47a109f627d13b54",
      "vout": 0,
      "prevout": {
        "scriptpubkey": "00146e11529dd979d58193fa8c501ca066a3d9f2defb",
        "scriptpubkey_asm": "OP_0 OP_PUSHBYTES_20 6e11529dd979d58193fa8c501ca066a3d9f2defb",
        "scriptpubkey_type": "v0_p2wpkh",
        "scriptpubkey_address": "bc1qdcg498we082cryl633gpegrx50vl9hhm87tdh6",
        "value": 1000539
      },
      "scriptsig": "",
      "scriptsig_asm": "",
      "witness": [
        "304402205d11874ccd157326c475c42683a63e82b7800bb364d15b427441802d9f0ae27f0220543b34b6b7be0b94cd4189003aa969d031acf1b45c431f114e0fb988119e94fc01",
        "02d6e6dcc246f5371beffd54bd130bae2dec8d4c60e6f1d0924a3f7b67c03eda00"
      ],
      "is_coinbase": false,
      "sequence": 4294967294
    },
    {
      "txid": "ce67757ae5eb177e17805bdecf009e5c77b73620e73c2c00f396679766e17f16",
      "vout": 16,
      "prevout": {
        "scriptpubkey": "001456ac984427e103bfb947f948a996537f592a53e7",
        "scriptpubkey_asm": "OP_0 OP_PUSHBYTES_20 56ac984427e103bfb947f948a996537f592a53e7",
        "scriptpubkey_type": "v0_p2wpkh",
        "scriptpubkey_address": "bc1q26kfs3p8uypmlw28l9y2n9jn0avj55l8e0n5ae",
        "value": 391505
      },
      "scriptsig": "",
      "scriptsig_asm": "",
      "witness": [
        "304402204d52af8201bef2b457c10e888a9d277e8bc9c42e1acc39630f8d961212190d1a02204fa4adae7c9a5ed21b9376957a640251bb453eed03fe46f103aaae252e756f5901",
        "03f79715362e134cd82afefd52f4fb532a43d14effe64a9a85dc2bd9d6a6b7e48c"
      ],
      "is_coinbase": false,
      "sequence": 4294967294
    },
    {
      "txid": "f849d59cc0228a55c9c9a2b99a8d13e8bf3ee122c9a5eb9532ab7cffa2612287",
      "vout": 127,
      "prevout": {
        "scriptpubkey": "00141a040a977dde0efaa9c4bb36ab33fd760b456a0b",
        "scriptpubkey_asm": "OP_0 OP_PUSHBYTES_20 1a040a977dde0efaa9c4bb36ab33fd760b456a0b",
        "scriptpubkey_type": "v0_p2wpkh",
        "scriptpubkey_address": "bc1qrgzq49mamc8042wyhvm2kvlawc9526stavy209",
        "value": 426214
      },
      "scriptsig": "",
      "scriptsig_asm": "",
      "witness": [
        "304402206a2b75ea6946b2a15a3577acea986ff4e4618321e44d3b6bbd3dcf36e459905102201f4fcb23c0a2c424712302dad0c3c10f0fc8a4f0e9c817af844a2fb04b2341d901",
        "032e3bf7faa51b5481780e01e689d5d8fdbdf1e6faa1c12f02ce57742f58e38614"
      ],
      "is_coinbase": false,
      "sequence": 4294967294
    }
  ],
  "vout": [
    {
      "scriptpubkey": "0014ecc0400a6999bc0397ebc277be717f0e6b969c3e",
      "scriptpubkey_asm": "OP_0 OP_PUSHBYTES_20 ecc0400a6999bc0397ebc277be717f0e6b969c3e",
      "scriptpubkey_type": "v0_p2wpkh",
      "scriptpubkey_address": "bc1qanqyqznfnx7q89ltcfmmuutlpe4ed8p79pg8lw",
      "value": 1226444
    },
    {
      "scriptpubkey": "76a9146453ff2a62c2f586a0e25bca570db127d455e51288ac",
      "scriptpubkey_asm": "OP_DUP OP_HASH160 OP_PUSHBYTES_20 6453ff2a62c2f586a0e25bca570db127d455e512 OP_EQUALVERIFY OP_CHECKSIG",
      "scriptpubkey_type": "p2pkh",
      "scriptpubkey_address": "1A9VCNyaY3r8vcx5RSUGRQD186s5mpNfQu",
      "value": 584200
    }
  ],
  "size": 521,
  "weight": 1115,
  "fee": 7614,
  "status": {
    "confirmed": true,
    "block_height": 834460,
    "block_hash": "00000000000000000000484a79b643b2524bbce82e5d8a442013fa5b8905ed98",
    "block_time": 1710307468
  },
  "hex": "02000000000103543bd127f609a1474ab0f48354747e9293fd07739a6f80584d4c07fd747827030000000000feffffff167fe166976796f3002c3ce72036b7775c9e00cfde5b80177e17ebe57a7567ce1000000000feffffff872261a2ff7cab3295eba5c922e13ebfe8138d9ab9a2c9c9558a22c09cd549f87f00000000feffffff02ccb6120000000000160014ecc0400a6999bc0397ebc277be717f0e6b969c3e08ea0800000000001976a9146453ff2a62c2f586a0e25bca570db127d455e51288ac0247304402205d11874ccd157326c475c42683a63e82b7800bb364d15b427441802d9f0ae27f0220543b34b6b7be0b94cd4189003aa969d031acf1b45c431f114e0fb988119e94fc012102d6e6dcc246f5371beffd54bd130bae2dec8d4c60e6f1d0924a3f7b67c03eda000247304402204d52af8201bef2b457c10e888a9d277e8bc9c42e1acc39630f8d961212190d1a02204fa4adae7c9a5ed21b9376957a640251bb453eed03fe46f103aaae252e756f59012103f79715362e134cd82afefd52f4fb532a43d14effe64a9a85dc2bd9d6a6b7e48c0247304402206a2b75ea6946b2a15a3577acea986ff4e4618321e44d3b6bbd3dcf36e459905102201f4fcb23c0a2c424712302dad0c3c10f0fc8a4f0e9c817af844a2fb04b2341d90121032e3bf7faa51b5481780e01e689d5d8fdbdf1e6faa1c12f02ce57742f58e386149bbb0c00"
}