{
  "txid": "90c32b1af80079f25601acfa9357e8f5a4593f85b2b13da93b7bf4b64ec98bbc",
  "version": 2,
  "locktime": 0,
  "vin": [
    {
      "txid": "be7c6e555c67ba80cbc21f49fe14c6367a0373d0ba323156cc695e1571764c7b",
      "vout": 0,
      "prevout": {
        "scriptpubkey": "0014e6d0bc609ef1fa9226480feb6233a296cf07a176",
        "scriptpubkey_asm": "OP_0 OP_PUSHBYTES_20 e6d0bc609ef1fa9226480feb6233a296cf07a176",
        "scriptpubkey_type": "v0_p2wpkh",
        "scriptpubkey_address": "bc1qumgtccy778afyfjgpl4kyvazjm8s0gtkhu7hdj",
        "value": 10000
      },
      "scriptsig": "",
      "scriptsig_asm": "",
      "witness": [
        "3045022100e431dbe5fd4042f17278cb800e49091aa3bf9e88f15c4fddf678006a7c1ff046022036609045d1d4ebe4097ef457bc81f931fe696b9e6badae05bbf6311faa1cbb5001",
        "021f0b4a7ee9d2180c26051e42e990ae9b0010ff37843c984ba1af9b2b9d0da705"
      ],
      "is_coinbase": false,
      "sequence": 4294967293
    }
  ],
  "vout": [
    {
      "scriptpubkey": "001408f27114a5070e84a63d99fce1ba36dd60470fb4",
      "scriptpubkey_asm": "OP_0 OP_PUSHBYTES_20 08f27114a5070e84a63d99fce1ba36dd60470fb4",
      "scriptpubkey_type": "v0_p2wpkh",
      "scriptpubkey_address": "bc1qpre8z999qu8gff3an87wrw3km4sywra5rettek",
      "value": 4511
    }
  ],
  "size": 192,
  "weight": 438,
  "fee": 5489,
  "status": {
    "confirmed": true,
    "block_height": 834638,
    "block_hash": "000000000000000000025f742c626208ac87e0b7d15054abb4a19ca2d735a54e",
    "block_time": 1710405325
  },
  "hex": "020000000001017b4c7671155e69cc563132bad073037a36c614fe491fc2cb80ba675c556e7cbe0000000000fdffffff019f1100000000000016001408f27114a5070e84a63d99fce1ba36dd60470fb402483045022100e431dbe5fd4042f17278cb800e49091aa3bf9e88f15c4fddf678006a7c1ff046022036609045d1d4ebe4097ef457bc81f931fe696b9e6badae05bbf6311faa1cbb500121021f0b4a7ee9d2180c26051e42e990ae9b0010ff37843c984ba1af9b2b9d0da70500000000"
}