{
  "txid": "90e470d2c5110f20fb9c2f4dc762de341f13821f2029544926712a421598f4a8",
  "version": 2,
  "locktime": 0,
  "vin": [
    {
      "txid": "1aa9ae2bfae3a585be1ba12d0f7149f49212e09dd590f751a73e7a14c0851800",
      "vout": 1,
      "prevout": {
        "scriptpubkey": "5120c72861b366e563f9a878a6b6f6bc081d9b61d7885410714b0d88a36e57441db4",
        "scriptpubkey_asm": "OP_PUSHNUM_1 OP_PUSHBYTES_32 c72861b366e563f9a878a6b6f6bc081d9b61d7885410714b0d88a36e57441db4",
        "scriptpubkey_type": "v1_p2tr",
        "scriptpubkey_address": "bc1pcu5xrvmxu43ln2rc56m0d0qgrkdkr4ug2sg8zjcd3z3ku46yrk6qgp526g",
        "value": 335534
      },
      "scriptsig": "",
      "scriptsig_asm": "",
      "witness": [
        "285601284a4b35f51015594c3daf4975dbb992b67bb722c8d3e9203b2617db3bee559905f5116e6d1dcce31f8d3a0c26127f1c92e0243f029e36ef769386ab59"
      ],
      "is_coinbase": false,
      "sequence": 4294967295
    }
  ],
  "vout": [
    {
      "scriptpubkey": "5120e1924f865d42a6b4d2cb34440782d9a785b33b1f179a3eb508ad941ce4422a9d",
      "scriptpubkey_asm": "OP_PUSHNUM_1 OP_PUSHBYTES_32 e1924f865d42a6b4d2cb34440782d9a785b33b1f179a3eb508ad941ce4422a9d",
      "scriptpubkey_type": "v1_p2tr",
      "scriptpubkey_address": "bc1puxfylpjag2ntf5ktx3zq0qke57zmxwclz7dradgg4k2peezz92wsvh99r9",
      "value": 5000
    },
    {
      "scriptpubkey": "5120c72861b366e563f9a878a6b6f6bc081d9b61d7885410714b0d88a36e57441db4",
      "scriptpubkey_asm": "OP_PUSHNUM_1 OP_PUSHBYTES_32 c72861b366e563f9a878a6b6f6bc081d9b61d7885410714b0d88a36e57441db4",
      "scriptpubkey_type": "v1_p2tr",
      "scriptpubkey_address": "bc1pcu5xrvmxu43ln2rc56m0d0qgrkdkr4ug2sg8zjcd3z3ku46yrk6qgp526g",
      "value": 328224
    }
  ],
  "size": 205,
  "weight": 616,
  "fee": 2310,
  "status": {
    "confirmed": true,
    "block_height": 834638,
    "block_hash": "000000000000000000025f742c626208ac87e0b7d15054abb4a19ca2d735a54e",
    "block_time": 1710405325
  },
  "hex": "02000000000101001885c0147a3ea751f790d59de01292f449710f2da11bbe85a5e3fa2baea91a0100000000ffffffff028813000000000000225120e1924f865d42a6b4d2cb34440782d9a785b33b1f179a3eb508ad941ce4422a9d2002050000000000225120c72861b366e563f9a878a6b6f6bc081d9b61d7885410714b0d88a36e57441db40140285601284a4b35f51015594c3daf4975dbb992b67bb722c8d3e9203b2617db3bee559905f5116e6d1dcce31f8d3a0c26127f1c92e0243f029e36ef769386ab5900000000"
}