{
  "txid": "90e946d607cd2eb6b496edbf0a583186f4d252687cc22a652511b4b06d29098c",
  "version": 1,
  "locktime": 0,
  "vin": [
    {
      "txid": "621ffb935b2e8e608d2b054c61bd19d01c784b0a109dbfcf4044584de449d815",
      "vout": 0,
      "prevout": {
        "scriptpubkey": "002004d8126fe5fdbffeac6f9a9fb4a941dd425ec8e431fde68f2b2355569f8e3a40",
        "scriptpubkey_asm": "OP_0 OP_PUSHBYTES_32 04d8126fe5fdbffeac6f9a9fb4a941dd425ec8e431fde68f2b2355569f8e3a40",
        "scriptpubkey_type": "v0_p2wsh",
        "scriptpubkey_address": "bc1qqnvpyml9lkllatr0n20mf22pm4p9aj8yx877dretyd24d8uw8fqqn22qwc",
        "value": 427268153
      },
      "scriptsig": "",
      "scriptsig_asm": "",
      "witness": [
        "",
        "3044022061cf26cdde21065ccbfd3fd0a390d77b17098f0adb1389d99d5c39befa7b35f802203ad61ca19a27ef2f31cf6d32d6f95b3fc36a8010a822db7bcbc21485c74be60201",
        "3044022043a28d1e97abe7e26a3f06e4531ff5f380a754fe8f00b3c31e400aa4a9917bd402207c17b04969a2397f8f83da3dc6a1d227fab6f6745c56143a39a3f1f6f391836701",
        "5221032efd115deb3116d841c07e1a97866735f55fdc9917daf6e46f88529f3c8f19042103791df87fae5a6b2b1f1a50464cd1abf699639da5d9f5a47fc75b6993f19ee8ae2103d58772e631adb05204f54d32364b7894c7a292c957bfd90ada34889d4e4b6f6253ae"
      ],
      "is_coinbase": false,
      "sequence": 4294967295,
      "inner_witnessscript_asm": "OP_PUSHNUM_2 OP_PUSHBYTES_33 032efd115deb3116d841c07e1a97866735f55fdc9917daf6e46f88529f3c8f1904 OP_PUSHBYTES_33 03791df87fae5a6b2b1f1a50464cd1abf699639da5d9f5a47fc75b6993f19ee8ae OP_PUSHBYTES_33 03d58772e631adb05204f54d32364b7894c7a292c957bfd90ada34889d4e4b6f62 OP_PUSHNUM_3 OP_CHECKMULTISIG"
    }
  ],
  "vout": [
    {
      "scriptpubkey": "76a914ba7f6c6ed5dcdf7c34fd3ec48adb1943b0012dd288ac",
      "scriptpubkey_asm": "OP_DUP OP_HASH160 OP_PUSHBYTES_20 ba7f6c6ed5dcdf7c34fd3ec48adb1943b0012dd2 OP_EQUALVERIFY OP_CHECKSIG",
      "scriptpubkey_type": "p2pkh",
      "scriptpubkey_address": "1J17LE45HGLfeDLswK6aaJukDNa2sbNW3Q",
      "value": 146840
    },
    {
      "scriptpubkey": "a9149f8f3416a2e99631287e00f32709ba76e71eca2f87",
      "scriptpubkey_asm": "OP_HASH160 OP_PUSHBYTES_20 9f8f3416a2e99631287e00f32709ba76e71eca2f OP_EQUAL",
      "scriptpubkey_type": "p2sh",
      "scriptpubkey_address": "3GEguzjyDTb4VooEDnavaxRT29LJVev5QX",
      "value": 50000
    },
    {
      "scriptpubkey": "00208009d41f8a56003d426f56944d9526d2aef8371d00d7ce7ea882aef5a5510abe",
      "scriptpubkey_asm": "OP_0 OP_PUSHBYTES_32 8009d41f8a56003d426f56944d9526d2aef8371d00d7ce7ea882aef5a5510abe",
      "scriptpubkey_type": "v0_p2wsh",
      "scriptpubkey_address": "bc1qsqyag8u22cqr6sn0262ym9fx62h0sdcaqrtuul4gs2h0tf23p2lqnmah7t",
      "value": 426801095
    },
    {
      "scriptpubkey": "a91408f4c86f3b634db7da3ca88ffdb58df54b15954e87",
      "scriptpubkey_asm": "OP_HASH160 OP_PUSHBYTES_20 08f4c86f3b634db7da3ca88ffdb58df54b15954e OP_EQUAL",
      "scriptpubkey_type": "p2sh",
      "scriptpubkey_address": "32WNZtuXKrAjKD6Qh85ZnTPvgBtpjUgzJ8",
      "value": 50000
    },
    {
      "scriptpubkey": "76a914c5607b9c6f18578e905648b31cffef0dc584cc1e88ac",
      "scriptpubkey_asm": "OP_DUP OP_HASH160 OP_PUSHBYTES_20 c5607b9c6f18578e905648b31cffef0dc584cc1e OP_EQUALVERIFY OP_CHECKSIG",
      "scriptpubkey_type": "p2pkh",
      "scriptpubkey_address": "1JzdhY9FKJnsasutFQCS3cioxCPRdkb3kF",
      "value": 211183
    }
  ],
  "size": 480,
  "weight": 1158,
  "fee": 9035,
  "status": {
    "confirmed": true,
    "block_height": 834638,
    "block_hash": "000000000000000000025f742c626208ac87e0b7d15054abb4a19ca2d735a54e",
    "block_time": 1710405325
  },
  "hex": "0100000000010115d849e44d584440cfbf9d100a4b781cd019bd614c052b8d608e2e5b93fb1f620000000000ffffffff05983d0200000000001976a914ba7f6c6ed5dcdf7c34fd3ec48adb1943b0012dd288ac50c300000000000017a9149f8f3416a2e99631287e00f32709ba76e71eca2f87c7777019000000002200208009d41f8a56003d426f56944d9526d2aef8371d00d7ce7ea882aef5a5510abe50c300000000000017a91408f4c86f3b634db7da3ca88ffdb58df54b15954e87ef380300000000001976a914c5607b9c6f18578e905648b31cffef0dc584cc1e88ac0400473044022061cf26cdde21065ccbfd3fd0a390d77b17098f0adb1389d99d5c39befa7b35f802203ad61ca19a27ef2f31cf6d32d6f95b3fc36a8010a822db7bcbc21485c74be60201473044022043a28d1e97abe7e26a3f06e4531ff5f380a754fe8f00b3c31e400aa4a9917bd402207c17b04969a2397f8f83da3dc6a1d227fab6f6745c56143a39a3f1f6f391836701695221032efd115deb3116d841c07e1a97866735f55fdc9917daf6e46f88529f3c8f19042103791df87fae5a6b2b1f1a50464cd1abf699639da5d9f5a47fc75b6993f19ee8ae2103d58772e631adb05204f54d32364b7894c7a292c957bfd90ada34889d4e4b6f6253ae00000000"
}