{
  "txid": "90ec5bf5ce1f90648627aa93704532842e982a1edd93e6764b7a4ad040ff307e",
  "version": 2,
  "locktime": 0,
  "vin": [
    {
      "txid": "73acb735985241142deca7c7e1d70e8f69df75a6121b1fdd5d5fbdfb1abb90ca",
      "vout": 6,
      "prevout": {
        "scriptpubkey": "5120c37f979043e0944e07eb241a82df7b73ccf803eeeb93abdd9a27af42d9ac2063",
        "scriptpubkey_asm": "OP_PUSHNUM_1 OP_PUSHBYTES_32 c37f979043e0944e07eb241a82df7b73ccf803eeeb93abdd9a27af42d9ac2063",
        "scriptpubkey_type": "v1_p2tr",
        "scriptpubkey_address": "bc1pcdle0yzruz2yupltysdg9hmmw0x0sqlwawf6hhv6y7h59kdvyp3spcw08n",
        "value": 600
      },
      "scriptsig": "",
      "scriptsig_asm": "",
      "witness": [
        "d3edb8618240f4a66b3f533481be5d8b85e6f18673370b53d5bf5426f9ce6f48bee33e21f1511729b17e48785ce23dc5c631d346ebb3d609441af6fada46be47"
      ],
      "is_coinbase": false,
      "sequence": 4294967295
    },
    {
      "txid": "73acb735985241142deca7c7e1d70e8f69df75a6121b1fdd5d5fbdfb1abb90ca",
      "vout": 7,
      "prevout": {
        "scriptpubkey": "5120c37f979043e0944e07eb241a82df7b73ccf803eeeb93abdd9a27af42d9ac2063",
        "scriptpubkey_asm": "OP_PUSHNUM_1 OP_PUSHBYTES_32 c37f979043e0944e07eb241a82df7b73ccf803eeeb93abdd9a27af42d9ac2063",
        "scriptpubkey_type": "v1_p2tr",
        "scriptpubkey_address": "bc1pcdle0yzruz2yupltysdg9hmmw0x0sqlwawf6hhv6y7h59kdvyp3spcw08n",
        "value": 600
      },
      "scriptsig": "",
      "scriptsig_asm": "",
      "witness": [
        "1491d6a06fd932554b62744404b6eb70094938a7b7235e3547b957a9df9494f2dc736c1fb4717911e0505675810ff2edd385cad51ca7efd2f42c1c46bf149ac0"
      ],
      "is_coinbase": false,
      "sequence": 4294967295
    },
    {
      "txid": "c1b2c739e2b8a9cdc591816ac27d9d624c468630da4717c46e002d75242f764e",
      "vout": 1,
      "prevout": {
        "scriptpubkey": "51203f1c37e15d8a32c2ea3d4b815c0bed028d18ed06e26043c6e936f898b8919602",
        "scriptpubkey_asm": "OP_PUSHNUM_1 OP_PUSHBYTES_32 3f1c37e15d8a32c2ea3d4b815c0bed028d18ed06e26043c6e936f898b8919602",
        "scriptpubkey_type": "v1_p2tr",
        "scriptpubkey_address": "bc1p8uwr0c2a3gev963afwq4czldq2x33mgxufsy83hfxmuf3wy3jcpqd295n7",
        "value": 1000
      },
      "scriptsig": "",
      "scriptsig_asm": "",
      "witness": [
        "a45e7bb3e1c88b361ac9fe907bf61b31aaf751075f5cc115d50973ed6f383c2f55c5de418e9f01fa70d15e39ccb405e440badc053401c9838a28633debb59f9483"
      ],
      "is_coinbase": false,
      "sequence": 4294967295
    },
    {
      "txid": "73acb735985241142deca7c7e1d70e8f69df75a6121b1fdd5d5fbdfb1abb90ca",
      "vout": 10,
      "prevout": {
        "scriptpubkey": "5120c37f979043e0944e07eb241a82df7b73ccf803eeeb93abdd9a27af42d9ac2063",
        "scriptpubkey_asm": "OP_PUSHNUM_1 OP_PUSHBYTES_32 c37f979043e0944e07eb241a82df7b73ccf803eeeb93abdd9a27af42d9ac2063",
        "scriptpubkey_type": "v1_p2tr",
        "scriptpubkey_address": "bc1pcdle0yzruz2yupltysdg9hmmw0x0sqlwawf6hhv6y7h59kdvyp3spcw08n",
        "value": 19985328
      },
      "scriptsig": "",
      "scriptsig_asm": "",
      "witness": [
        "5237ae37c3cfe08fe687a35dfd0b7f0c537c0f4ce52bac58f15eefc50418c560c9c6aadc553c769d50cd4d249dbe14fb2b696059cf1d9a66f9918c205efcdc46"
      ],
      "is_coinbase": false,
      "sequence": 4294967295
    }
  ],
  "vout": [
    {
      "scriptpubkey": "5120c37f979043e0944e07eb241a82df7b73ccf803eeeb93abdd9a27af42d9ac2063",
      "scriptpubkey_asm": "OP_PUSHNUM_1 OP_PUSHBYTES_32 c37f979043e0944e07eb241a82df7b73ccf803eeeb93abdd9a27af42d9ac2063",
      "scriptpubkey_type": "v1_p2tr",
      "scriptpubkey_address": "bc1pcdle0yzruz2yupltysdg9hmmw0x0sqlwawf6hhv6y7h59kdvyp3spcw08n",
      "value": 1200
    },
    {
      "scriptpubkey": "5120c37f979043e0944e07eb241a82df7b73ccf803eeeb93abdd9a27af42d9ac2063",
      "scriptpubkey_asm": "OP_PUSHNUM_1 OP_PUSHBYTES_32 c37f979043e0944e07eb241a82df7b73ccf803eeeb93abdd9a27af42d9ac2063",
      "scriptpubkey_type": "v1_p2tr",
      "scriptpubkey_address": "bc1pcdle0yzruz2yupltysdg9hmmw0x0sqlwawf6hhv6y7h59kdvyp3spcw08n",
      "value": 1000
    },
    {
      "scriptpubkey": "51203f1c37e15d8a32c2ea3d4b815c0bed028d18ed06e26043c6e936f898b8919602",
      "scriptpubkey_asm": "OP_PUSHNUM_1 OP_PUSHBYTES_32 3f1c37e15d8a32c2ea3d4b815c0bed028d18ed06e26043c6e936f898b8919602",
      "scriptpubkey_type": "v1_p2tr",
      "scriptpubkey_address": "bc1p8uwr0c2a3gev963afwq4czldq2x33mgxufsy83hfxmuf3wy3jcpqd295n7",
      "value": 321092
    },
    {
      "scriptpubkey": "a914ea6b832a05c6ca578baa3836f3f25553d41068a587",
      "scriptpubkey_asm": "OP_HASH160 OP_PUSHBYTES_20 ea6b832a05c6ca578baa3836f3f25553d41068a5 OP_EQUAL",
      "scriptpubkey_type": "p2sh",
      "scriptpubkey_address": "3P4WqXDbSLRhzo2H6MT6YFbvBKBDPLbVtQ",
      "value": 8042
    },
    {
      "scriptpubkey": "5120c37f979043e0944e07eb241a82df7b73ccf803eeeb93abdd9a27af42d9ac2063",
      "scriptpubkey_asm": "OP_PUSHNUM_1 OP_PUSHBYTES_32 c37f979043e0944e07eb241a82df7b73ccf803eeeb93abdd9a27af42d9ac2063",
      "scriptpubkey_type": "v1_p2tr",
      "scriptpubkey_address": "bc1pcdle0yzruz2yupltysdg9hmmw0x0sqlwawf6hhv6y7h59kdvyp3spcw08n",
      "value": 600
    },
    {
      "scriptpubkey": "5120c37f979043e0944e07eb241a82df7b73ccf803eeeb93abdd9a27af42d9ac2063",
      "scriptpubkey_asm": "OP_PUSHNUM_1 OP_PUSHBYTES_32 c37f979043e0944e07eb241a82df7b73ccf803eeeb93abdd9a27af42d9ac2063",
      "scriptpubkey_type": "v1_p2tr",
      "scriptpubkey_address": "bc1pcdle0yzruz2yupltysdg9hmmw0x0sqlwawf6hhv6y7h59kdvyp3spcw08n",
      "value": 600
    },
    {
      "scriptpubkey": "5120c37f979043e0944e07eb241a82df7b73ccf803eeeb93abdd9a27af42d9ac2063",
      "scriptpubkey_asm": "OP_PUSHNUM_1 OP_PUSHBYTES_32 c37f979043e0944e07eb241a82df7b73ccf803eeeb93abdd9a27af42d9ac2063",
      "scriptpubkey_type": "v1_p2tr",
      "scriptpubkey_address": "bc1pcdle0yzruz2yupltysdg9hmmw0x0sqlwawf6hhv6y7h59kdvyp3spcw08n",
      "value": 19646482
    }
  ],
  "size": 731,
  "weight": 2123,
  "fee": 8512,
  "status": {
    "confirmed": true,
    "block_height": 834464,
    "block_hash": "0000000000000000000177a0869a911a2b65c9bdcd5a8bcb02b68f305bee848e",
    "block_time": 1710308296
  },
  "hex": "02000000000104ca90bb1afbbd5f5ddd1f1b12a675df698f0ed7e1c7a7ec2d1441529835b7ac730600000000ffffffffca90bb1afbbd5f5ddd1f1b12a675df698f0ed7e1c7a7ec2d1441529835b7ac730700000000ffffffff4e762f24752d006ec41747da3086464c629d7dc26a8191c5cda9b8e239c7b2c10100000000ffffffffca90bb1afbbd5f5ddd1f1b12a675df698f0ed7e1c7a7ec2d1441529835b7ac730a00000000ffffffff07b004000000000000225120c37f979043e0944e07eb241a82df7b73ccf803eeeb93abdd9a27af42d9ac2063e803000000000000225120c37f979043e0944e07eb241a82df7b73ccf803eeeb93abdd9a27af42d9ac206344e60400000000002251203f1c37e15d8a32c2ea3d4b815c0bed028d18ed06e26043c6e936f898b89196026a1f00000000000017a914ea6b832a05c6ca578baa3836f3f25553d41068a5875802000000000000225120c37f979043e0944e07eb241a82df7b73ccf803eeeb93abdd9a27af42d9ac20635802000000000000225120c37f979043e0944e07eb241a82df7b73ccf803eeeb93abdd9a27af42d9ac206312c82b0100000000225120c37f979043e0944e07eb241a82df7b73ccf803eeeb93abdd9a27af42d9ac20630140d3edb8618240f4a66b3f533481be5d8b85e6f18673370b53d5bf5426f9ce6f48bee33e21f1511729b17e48785ce23dc5c631d346ebb3d609441af6fada46be4701401491d6a06fd932554b62744404b6eb70094938a7b7235e3547b957a9df9494f2dc736c1fb4717911e0505675810ff2edd385cad51ca7efd2f42c1c46bf149ac00141a45e7bb3e1c88b361ac9fe907bf61b31aaf751075f5cc115d50973ed6f383c2f55c5de418e9f01fa70d15e39ccb405e440badc053401c9838a28633debb59f948301405237ae37c3cfe08fe687a35dfd0b7f0c537c0f4ce52bac58f15eefc50418c560c9c6aadc553c769d50cd4d249dbe14fb2b696059cf1d9a66f9918c205efcdc4600000000"
}