{
  "txid": "90fe4aabd2952cec384983efc97cdcd430768b8f8e31992f8bc332a40af48222",
  "version": 2,
  "locktime": 834621,
  "vin": [
    {
      "txid": "cef9a61a88d15884a9ff2ac3921890f671d3e7f9041e5c981095a20bdae5b8fe",
      "vout": 0,
      "prevout": {
        "scriptpubkey": "001479c3b68c5c92397cf7cde4176f1d0aa1c05975e0",
        "scriptpubkey_asm": "OP_0 OP_PUSHBYTES_20 79c3b68c5c92397cf7cde4176f1d0aa1c05975e0",
        "scriptpubkey_type": "v0_p2wpkh",
        "scriptpubkey_address": "bc1q08pmdrzujguhea7dustk78g258q9ja0q5yqr67",
        "value": 791701710
      },
      "scriptsig": "",
      "scriptsig_asm": "",
      "witness": [
        "3044022042138fbe317ba1a97d548a8ff93cc2ca6c8926e0859a4a24137d49c228061a600220416ebaceacc7bb870a4bec1ff888245292d14655791681caa70eebcb0abf2cd101",
        "034dac94ee99deebaa9a37cb448ef254f3e789c9c1b94d27b47ebd94cf31b2a88c"
      ],
      "is_coinbase": false,
      "sequence": 4294967294
    }
  ],
  "vout": [
    {
      "scriptpubkey": "00141c2b0018ff932f200cacb876135fa1c2ea8a419b",
      "scriptpubkey_asm": "OP_0 OP_PUSHBYTES_20 1c2b0018ff932f200cacb876135fa1c2ea8a419b",
      "scriptpubkey_type": "v0_p2wpkh",
      "scriptpubkey_address": "bc1qrs4sqx8ljvhjqr9vhpmpxhapct4g5svmg092t9",
      "value": 138100
    },
    {
      "scriptpubkey": "00147abe33b6e40efba537eb65b14d4d609f88ff7c18",
      "scriptpubkey_asm": "OP_0 OP_PUSHBYTES_20 7abe33b6e40efba537eb65b14d4d609f88ff7c18",
      "scriptpubkey_type": "v0_p2wpkh",
      "scriptpubkey_address": "bc1q02lr8dhypma62dltvkc56ntqn7y07lqcw6zevg",
      "value": 791560154
    }
  ],
  "size": 222,
  "weight": 561,
  "fee": 3456,
  "status": {
    "confirmed": true,
    "block_height": 834638,
    "block_hash": "000000000000000000025f742c626208ac87e0b7d15054abb4a19ca2d735a54e",
    "block_time": 1710405325
  },
  "hex": "02000000000101feb8e5da0ba29510985c1e04f9e7d371f6901892c32affa98458d1881aa6f9ce0000000000feffffff02741b0200000000001600141c2b0018ff932f200cacb876135fa1c2ea8a419bda3f2e2f000000001600147abe33b6e40efba537eb65b14d4d609f88ff7c1802473044022042138fbe317ba1a97d548a8ff93cc2ca6c8926e0859a4a24137d49c228061a600220416ebaceacc7bb870a4bec1ff888245292d14655791681caa70eebcb0abf2cd10121034dac94ee99deebaa9a37cb448ef254f3e789c9c1b94d27b47ebd94cf31b2a88c3dbc0c00"
}