{
  "txid": "90ff83f08b27f364e5e046ca664c562525b0a2f2cade2992a3c8d1430280d248",
  "version": 1,
  "locktime": 0,
  "vin": [
    {
      "txid": "028611119d79daaa3dd0cc332d0f0f22e0c90b03b04c8026c2ef0b28d0c1eb95",
      "vout": 0,
      "prevout": {
        "scriptpubkey": "5120ab5dbae262a6e99164dc4b4da9fc95c5028fb5879d1365f71dee86fb05e6ba8a",
        "scriptpubkey_asm": "OP_PUSHNUM_1 OP_PUSHBYTES_32 ab5dbae262a6e99164dc4b4da9fc95c5028fb5879d1365f71dee86fb05e6ba8a",
        "scriptpubkey_type": "v1_p2tr",
        "scriptpubkey_address": "bc1p4dwm4cnz5m5ezexufdx6nly4c5pgldv8n5fktacaa6r0kp0xh29q6k6l5v",
        "value": 2346
      },
      "scriptsig": "",
      "scriptsig_asm": "",
      "witness": [
        "c7af347e948041ec432aff256fcbc905afe6338b5ba1239f17ae366907543e4575472531c52cbc1af4020b15837d6875201bf807ed65d4cb3743b817481bf6f2",
        "20f92a3f7531c3fee33f3ff249fb759f4a325ebbbef347336ec0ab02ce6d6c133eac0063036f726401010a746578742f706c61696e003e7b2270223a226272632d3230222c226f70223a227472616e73666572222c227469636b223a2253415453222c22616d74223a22313030303030303030227d68",
        "c1f92a3f7531c3fee33f3ff249fb759f4a325ebbbef347336ec0ab02ce6d6c133e"
      ],
      "is_coinbase": false,
      "sequence": 4294967293
    }
  ],
  "vout": [
    {
      "scriptpubkey": "51205d11997dd9e87a9b60702c004e7d1fb9e41bdba98651ec51c1f6e1eb28077325",
      "scriptpubkey_asm": "OP_PUSHNUM_1 OP_PUSHBYTES_32 5d11997dd9e87a9b60702c004e7d1fb9e41bdba98651ec51c1f6e1eb28077325",
      "scriptpubkey_type": "v1_p2tr",
      "scriptpubkey_address": "bc1pt5gejlweapafkcrs9sqyulglh8jphkafseg7c5wp7ms7k2q8wvjs9caa9f",
      "value": 546
    }
  ],
  "size": 315,
  "weight": 597,
  "fee": 1800,
  "status": {
    "confirmed": true,
    "block_height": 834460,
    "block_hash": "00000000000000000000484a79b643b2524bbce82e5d8a442013fa5b8905ed98",
    "block_time": 1710307468
  },
  "hex": "0100000000010195ebc1d0280befc226804cb0030bc9e0220f0f2d33ccd03daada799d111186020000000000fdffffff0122020000000000002251205d11997dd9e87a9b60702c004e7d1fb9e41bdba98651ec51c1f6e1eb280773250340c7af347e948041ec432aff256fcbc905afe6338b5ba1239f17ae366907543e4575472531c52cbc1af4020b15837d6875201bf807ed65d4cb3743b817481bf6f27620f92a3f7531c3fee33f3ff249fb759f4a325ebbbef347336ec0ab02ce6d6c133eac0063036f726401010a746578742f706c61696e003e7b2270223a226272632d3230222c226f70223a227472616e73666572222c227469636b223a2253415453222c22616d74223a22313030303030303030227d6821c1f92a3f7531c3fee33f3ff249fb759f4a325ebbbef347336ec0ab02ce6d6c133e00000000"
}