{
  "txid": "91014d045d15da8fac001b4e677e8e6095aa5bf801bea8cef8f8e809d40f3998",
  "version": 2,
  "locktime": 0,
  "vin": [
    {
      "txid": "569928d3b4aa72e73f1ec6a281bda14a436f89cb2b3e1cd5531aadbcf1d469ad",
      "vout": 1,
      "prevout": {
        "scriptpubkey": "001457713fd947522ae6b98de65568daacbc4fbee17f",
        "scriptpubkey_asm": "OP_0 OP_PUSHBYTES_20 57713fd947522ae6b98de65568daacbc4fbee17f",
        "scriptpubkey_type": "v0_p2wpkh",
        "scriptpubkey_address": "bc1q2acnlk282g4wdwvdue2k3k4vh38mactl4csf5m",
        "value": 54332320
      },
      "scriptsig": "",
      "scriptsig_asm": "",
      "witness": [
        "304402201558fd70a2345c5f700824337132952e837fbd36fb4d94a02628807d62af4e1302205b834a60796604855aa02d989b9c99bd12339718b002942d0e2c9e5196a7a55701",
        "02524fe62f4657fa1308c83ad6af141a9ff6b45fe394d34f019b376301b7c07876"
      ],
      "is_coinbase": false,
      "sequence": 4294967295
    }
  ],
  "vout": [
    {
      "scriptpubkey": "00146327c18a3b25c4fe9e104e797fe79c5f0ffc5de8",
      "scriptpubkey_asm": "OP_0 OP_PUSHBYTES_20 6327c18a3b25c4fe9e104e797fe79c5f0ffc5de8",
      "scriptpubkey_type": "v0_p2wpkh",
      "scriptpubkey_address": "bc1qvvnurz3myhz0a8ssfeuhleuutu8lch0gl027c2",
      "value": 4747757
    },
    {
      "scriptpubkey": "001457713fd947522ae6b98de65568daacbc4fbee17f",
      "scriptpubkey_asm": "OP_0 OP_PUSHBYTES_20 57713fd947522ae6b98de65568daacbc4fbee17f",
      "scriptpubkey_type": "v0_p2wpkh",
      "scriptpubkey_address": "bc1q2acnlk282g4wdwvdue2k3k4vh38mactl4csf5m",
      "value": 49582474
    }
  ],
  "size": 222,
  "weight": 561,
  "fee": 2089,
  "status": {
    "confirmed": true,
    "block_height": 834552,
    "block_hash": "00000000000000000001dd0468a70c94f619251d286585cff57aeb4bd9ede330",
    "block_time": 1710355598
  },
  "hex": "02000000000101ad69d4f1bcad1a53d51c3e2bcb896f434aa1bd81a2c61e3fe772aab4d32899560100000000ffffffff02ed714800000000001600146327c18a3b25c4fe9e104e797fe79c5f0ffc5de88a91f4020000000016001457713fd947522ae6b98de65568daacbc4fbee17f0247304402201558fd70a2345c5f700824337132952e837fbd36fb4d94a02628807d62af4e1302205b834a60796604855aa02d989b9c99bd12339718b002942d0e2c9e5196a7a557012102524fe62f4657fa1308c83ad6af141a9ff6b45fe394d34f019b376301b7c0787600000000"
}