{
  "txid": "9101aae6da0efa1b3dfcfb3fc3d29f833790ffa3fb453496ab6038c9f21a57f5",
  "version": 2,
  "locktime": 0,
  "vin": [
    {
      "txid": "acc3ba00869acb582a3f2904ce3a11dd3779350ce234063fc7d0959246213364",
      "vout": 266,
      "prevout": {
        "scriptpubkey": "51200afa9183d0c08891182eb20c3d10a0617190a56914f96b2530ad56ac6e964afb",
        "scriptpubkey_asm": "OP_PUSHNUM_1 OP_PUSHBYTES_32 0afa9183d0c08891182eb20c3d10a0617190a56914f96b2530ad56ac6e964afb",
        "scriptpubkey_type": "v1_p2tr",
        "scriptpubkey_address": "bc1pptafrq7sczyfzxpwkgxr6y9qv9cepftfznukkffs44t2cm5kftasqfm787",
        "value": 1806
      },
      "scriptsig": "",
      "scriptsig_asm": "",
      "witness": [
        "2eed46c476cfa4f9746fdb0244b4d81ee2fc20285b6495f8306f62f402bb2d44df4d5b9997e04eb1ec9487d00a270f8357f350d7e9b9b89208631bd465134830",
        "2059886f8577089cd0cf146464d6152333989110fd86f36a532103bae813e15333ac0063036f726401010a746578742f706c61696e00357b2270223a226272632d3230222c226f70223a226d696e74222c227469636b223a22646f6765222c22616d74223a2234323030227d68",
        "c059886f8577089cd0cf146464d6152333989110fd86f36a532103bae813e15333"
      ],
      "is_coinbase": false,
      "sequence": 4261412863
    }
  ],
  "vout": [
    {
      "scriptpubkey": "00147a665de7a370f4c9b372ab1fae587500a5bcbdb4",
      "scriptpubkey_asm": "OP_0 OP_PUSHBYTES_20 7a665de7a370f4c9b372ab1fae587500a5bcbdb4",
      "scriptpubkey_type": "v0_p2wpkh",
      "scriptpubkey_address": "bc1q0fn9mearwr6vnvmj4v06ukr4qzjme0d565dzcx",
      "value": 294
    }
  ],
  "size": 294,
  "weight": 540,
  "fee": 1512,
  "status": {
    "confirmed": true,
    "block_height": 834460,
    "block_hash": "00000000000000000000484a79b643b2524bbce82e5d8a442013fa5b8905ed98",
    "block_time": 1710307468
  },
  "hex": "02000000000101643321469295d0c73f0634e20c357937dd113ace04293f2a58cb9a8600bac3ac0a01000000fffffffd0126010000000000001600147a665de7a370f4c9b372ab1fae587500a5bcbdb403402eed46c476cfa4f9746fdb0244b4d81ee2fc20285b6495f8306f62f402bb2d44df4d5b9997e04eb1ec9487d00a270f8357f350d7e9b9b89208631bd4651348306d2059886f8577089cd0cf146464d6152333989110fd86f36a532103bae813e15333ac0063036f726401010a746578742f706c61696e00357b2270223a226272632d3230222c226f70223a226d696e74222c227469636b223a22646f6765222c22616d74223a2234323030227d6821c059886f8577089cd0cf146464d6152333989110fd86f36a532103bae813e1533300000000"
}