{
  "txid": "9106a079c941883909fa260020d50a9b694a9591869905182e82fad78f1cd2db",
  "version": 1,
  "locktime": 0,
  "vin": [
    {
      "txid": "4c5a1618519891c500956a4e5ea8aba4a8b4a5b1d3601707185094b359de46f4",
      "vout": 13,
      "prevout": {
        "scriptpubkey": "00147da7984ab333b18f83c20717cde74995d998d694",
        "scriptpubkey_asm": "OP_0 OP_PUSHBYTES_20 7da7984ab333b18f83c20717cde74995d998d694",
        "scriptpubkey_type": "v0_p2wpkh",
        "scriptpubkey_address": "bc1q0knesj4nxwcclq7zqutume6fjhve3455kt4rxd",
        "value": 184691
      },
      "scriptsig": "",
      "scriptsig_asm": "",
      "witness": [
        "3045022100b0aa9cb20e00c33eb09357d0a642340e2a06956b405c56c1c5e9d0fe5945aa0b02202706a129914cd61f68b86eb22ebf8a11ed8e75591e00a060c36485918c37149901",
        "02aa36ba86bee9c1c34512e41b151be58d4ad8f8f4b727ae798382fc531bec3fc2"
      ],
      "is_coinbase": false,
      "sequence": 4294967293
    },
    {
      "txid": "b3f8c1432c1ff8611855e951d48f5706c66a29ccea1990951ba2c2c1408c2d87",
      "vout": 0,
      "prevout": {
        "scriptpubkey": "0014eb014a761e003d853c09340ee6ce7610aa22bd15",
        "scriptpubkey_asm": "OP_0 OP_PUSHBYTES_20 eb014a761e003d853c09340ee6ce7610aa22bd15",
        "scriptpubkey_type": "v0_p2wpkh",
        "scriptpubkey_address": "bc1qavq55as7qq7c20qfxs8wdnnkzz4z90g4xj8usj",
        "value": 184181
      },
      "scriptsig": "",
      "scriptsig_asm": "",
      "witness": [
        "3044022062aead867b0c28bec7a5402c2c5cf09f7d8854d2d67b245db4970df2463c97190220615689357a3188d402261b6b728481008bafc4daa2074e2f519438f50b0c78cf01",
        "0371d54e79874caf2c429dcc384ef75a2c5c60b7d710856bf22a805a6a3f95c218"
      ],
      "is_coinbase": false,
      "sequence": 4294967293
    },
    {
      "txid": "55f98c1efaff104f03b87255ed5ef29f41f27df0ece0b9a25fb314a912ef1b4d",
      "vout": 25,
      "prevout": {
        "scriptpubkey": "00143d7ad5f6f20f9d83dd0fbd8c558b81a4ca6be75a",
        "scriptpubkey_asm": "OP_0 OP_PUSHBYTES_20 3d7ad5f6f20f9d83dd0fbd8c558b81a4ca6be75a",
        "scriptpubkey_type": "v0_p2wpkh",
        "scriptpubkey_address": "bc1q84adtahjp7wc8hg0hkx9tzup5n9xhe6689ccer",
        "value": 183964
      },
      "scriptsig": "",
      "scriptsig_asm": "",
      "witness": [
        "304402201aecd6f563e4e01c79c7491b8cf0bf05f5228bdc361d9a292a226e3f746c7e95022027871f04754e53df470aad23e21e30a4545b3cd3257ddb96a56ce76b6fba3b3b01",
        "02060679497d69e140d93234e94ecbf802269ee2dd70b69969b7adf63273c931d1"
      ],
      "is_coinbase": false,
      "sequence": 4294967293
    }
  ],
  "vout": [
    {
      "scriptpubkey": "a9143977dc8132fb5e780a29c9696bf1485b5c67c07787",
      "scriptpubkey_asm": "OP_HASH160 OP_PUSHBYTES_20 3977dc8132fb5e780a29c9696bf1485b5c67c077 OP_EQUAL",
      "scriptpubkey_type": "p2sh",
      "scriptpubkey_address": "36vt2bCVMEXZqK2fkT1MbGXKJEv4h52Xie",
      "value": 545148
    }
  ],
  "size": 489,
  "weight": 984,
  "fee": 7688,
  "status": {
    "confirmed": true,
    "block_height": 834638,
    "block_hash": "000000000000000000025f742c626208ac87e0b7d15054abb4a19ca2d735a54e",
    "block_time": 1710405325
  },
  "hex": "01000000000103f446de59b3945018071760d3b1a5b4a8a4aba85e4e6a9500c591985118165a4c0d00000000fdffffff872d8c40c1c2a21b959019eacc296ac606578fd451e9551861f81f2c43c1f8b30000000000fdffffff4d1bef12a914b35fa2b9e0ecf07df2419ff25eed5572b8034f10fffa1e8cf9551900000000fdffffff017c5108000000000017a9143977dc8132fb5e780a29c9696bf1485b5c67c0778702483045022100b0aa9cb20e00c33eb09357d0a642340e2a06956b405c56c1c5e9d0fe5945aa0b02202706a129914cd61f68b86eb22ebf8a11ed8e75591e00a060c36485918c371499012102aa36ba86bee9c1c34512e41b151be58d4ad8f8f4b727ae798382fc531bec3fc202473044022062aead867b0c28bec7a5402c2c5cf09f7d8854d2d67b245db4970df2463c97190220615689357a3188d402261b6b728481008bafc4daa2074e2f519438f50b0c78cf01210371d54e79874caf2c429dcc384ef75a2c5c60b7d710856bf22a805a6a3f95c2180247304402201aecd6f563e4e01c79c7491b8cf0bf05f5228bdc361d9a292a226e3f746c7e95022027871f04754e53df470aad23e21e30a4545b3cd3257ddb96a56ce76b6fba3b3b012102060679497d69e140d93234e94ecbf802269ee2dd70b69969b7adf63273c931d100000000"
}