{
  "txid": "91235731f97f5dcf65d7b8cfc7b82b6ad2ee05c4229ea9879ffd693f7356f5d6",
  "version": 2,
  "locktime": 0,
  "vin": [
    {
      "txid": "246d654c08ac53d370d501753f3ac2c90861e2c8cea715ed4b7554841cced399",
      "vout": 39,
      "prevout": {
        "scriptpubkey": "51208172f887a7e9ffffc3350e720ec0108792e1cc4654d81461fa0b6af346c7f4df",
        "scriptpubkey_asm": "OP_PUSHNUM_1 OP_PUSHBYTES_32 8172f887a7e9ffffc3350e720ec0108792e1cc4654d81461fa0b6af346c7f4df",
        "scriptpubkey_type": "v1_p2tr",
        "scriptpubkey_address": "bc1ps9e03pa8a8lllse4peeqasqss7fwrnzx2nvpgc06pd40x3k87n0svkmsv2",
        "value": 3055
      },
      "scriptsig": "",
      "scriptsig_asm": "",
      "witness": [
        "133868523c5ed5df99f3bcd0a09413fbd52bb034d99ff0bc8cc92f9951516705aa7d5fd3b810980b0ecc80ac2b1b5f0fabd4dc0eaad7dbbcfe4553c96a755263",
        "20a181628b4b2423e392f09f35e58e77dc93647701bdcd3467498f1751ab0c5cdbac0063036f726401011e6170706c69636174696f6e2f6a736f6e3b636861727365743d7574662d38004cd37b2270223a22706f772d3230222c226f70223a226d696e74222c227469636b223a2250455045222c22616d74223a2231303030222c22736f6c7574696f6e223a22504550453a62633170756a666d33753333656e70786b38383339796c6b3239323239396b6e6467686c717468396e39647a6c7663647635617076366a717732776e71663a303030303030303030303030303030303030303139393431613561653132383937363539383134343239323533333030353762306461393666336465613163353a3432343330313633343533227d68",
        "c1f4929cb66946e40c5d3e5e2b126f88b9a6070d7490abd3aa8e42bf5bbcfe7b9f"
      ],
      "is_coinbase": false,
      "sequence": 4294967295
    }
  ],
  "vout": [
    {
      "scriptpubkey": "5120e493b8f231ccc26b1cf1293f65154a296d36a2ff02ee5995a2fb30d653a166a4",
      "scriptpubkey_asm": "OP_PUSHNUM_1 OP_PUSHBYTES_32 e493b8f231ccc26b1cf1293f65154a296d36a2ff02ee5995a2fb30d653a166a4",
      "scriptpubkey_type": "v1_p2tr",
      "scriptpubkey_address": "bc1pujfm3u33enpxk8839ylk292299kndghlqth9n9dzlvcdv5apv6jqw2wnqf",
      "value": 546
    }
  ],
  "size": 487,
  "weight": 769,
  "fee": 2509,
  "status": {
    "confirmed": true,
    "block_height": 834460,
    "block_hash": "00000000000000000000484a79b643b2524bbce82e5d8a442013fa5b8905ed98",
    "block_time": 1710307468
  },
  "hex": "0200000000010199d3ce1c8454754bed15a7cec8e26108c9c23a3f7501d570d353ac084c656d242700000000ffffffff012202000000000000225120e493b8f231ccc26b1cf1293f65154a296d36a2ff02ee5995a2fb30d653a166a40340133868523c5ed5df99f3bcd0a09413fbd52bb034d99ff0bc8cc92f9951516705aa7d5fd3b810980b0ecc80ac2b1b5f0fabd4dc0eaad7dbbcfe4553c96a755263fd200120a181628b4b2423e392f09f35e58e77dc93647701bdcd3467498f1751ab0c5cdbac0063036f726401011e6170706c69636174696f6e2f6a736f6e3b636861727365743d7574662d38004cd37b2270223a22706f772d3230222c226f70223a226d696e74222c227469636b223a2250455045222c22616d74223a2231303030222c22736f6c7574696f6e223a22504550453a62633170756a666d33753333656e70786b38383339796c6b3239323239396b6e6467686c717468396e39647a6c7663647635617076366a717732776e71663a303030303030303030303030303030303030303139393431613561653132383937363539383134343239323533333030353762306461393666336465613163353a3432343330313633343533227d6821c1f4929cb66946e40c5d3e5e2b126f88b9a6070d7490abd3aa8e42bf5bbcfe7b9f00000000"
}