{
  "txid": "9137d59f9fab575066c34d0c8d1adbf06d76873e35264068512e6a001106ada7",
  "version": 2,
  "locktime": 0,
  "vin": [
    {
      "txid": "31aae6facab4887a97d897e26c1e048033b5437627dd58c2c580183e6138b518",
      "vout": 2,
      "prevout": {
        "scriptpubkey": "0014f60834ef165253c571b11ce9fa74e46692fc5ec1",
        "scriptpubkey_asm": "OP_0 OP_PUSHBYTES_20 f60834ef165253c571b11ce9fa74e46692fc5ec1",
        "scriptpubkey_type": "v0_p2wpkh",
        "scriptpubkey_address": "bc1q7cyrfmck2ffu2ud3rn5l5a8yv6f0chkp0zpemf",
        "value": 524720966
      },
      "scriptsig": "",
      "scriptsig_asm": "",
      "witness": [
        "3045022100d33bd0da013807beb0d1a1b78c66619ee698f42a098f3e8e1d6374453edec7d102204fc65beed906142e7ac601c1d5af575bf92036d97247a59325ed02afbbbd3a4f01",
        "026e5628506ecd33242e5ceb5fdafe4d3066b5c0f159b3c05a621ef65f177ea286"
      ],
      "is_coinbase": false,
      "sequence": 4294967293
    }
  ],
  "vout": [
    {
      "scriptpubkey": "a91403c478e6dfdcba9e3fe3dd85668590e02f1587cb87",
      "scriptpubkey_asm": "OP_HASH160 OP_PUSHBYTES_20 03c478e6dfdcba9e3fe3dd85668590e02f1587cb OP_EQUAL",
      "scriptpubkey_type": "p2sh",
      "scriptpubkey_address": "322wKFaGJHwatPvR8gSJSZLeVY9R5iWsxi",
      "value": 17464057
    },
    {
      "scriptpubkey": "0014f60834ef165253c571b11ce9fa74e46692fc5ec1",
      "scriptpubkey_asm": "OP_0 OP_PUSHBYTES_20 f60834ef165253c571b11ce9fa74e46692fc5ec1",
      "scriptpubkey_type": "v0_p2wpkh",
      "scriptpubkey_address": "bc1q7cyrfmck2ffu2ud3rn5l5a8yv6f0chkp0zpemf",
      "value": 507252559
    }
  ],
  "size": 224,
  "weight": 566,
  "fee": 4350,
  "status": {
    "confirmed": true,
    "block_height": 834638,
    "block_hash": "000000000000000000025f742c626208ac87e0b7d15054abb4a19ca2d735a54e",
    "block_time": 1710405325
  },
  "hex": "0200000000010118b538613e1880c5c258dd277643b53380041e6ce297d8977a88b4cafae6aa310200000000fdffffff02f97a0a010000000017a91403c478e6dfdcba9e3fe3dd85668590e02f1587cb874f0f3c1e00000000160014f60834ef165253c571b11ce9fa74e46692fc5ec102483045022100d33bd0da013807beb0d1a1b78c66619ee698f42a098f3e8e1d6374453edec7d102204fc65beed906142e7ac601c1d5af575bf92036d97247a59325ed02afbbbd3a4f0121026e5628506ecd33242e5ceb5fdafe4d3066b5c0f159b3c05a621ef65f177ea28600000000"
}