{
  "txid": "9145f71698b5ddfe75d65a91abaaf52bc64ddb46f74b84e20bdaa84c95fc3999",
  "version": 1,
  "locktime": 0,
  "vin": [
    {
      "txid": "68f00960dd7dfe89581b5af581f8cb64a936bb90526c9dc79ea7416527205511",
      "vout": 0,
      "prevout": {
        "scriptpubkey": "0014e6ee22c062a95d4db770d1b85f85dd4a7677cdfa",
        "scriptpubkey_asm": "OP_0 OP_PUSHBYTES_20 e6ee22c062a95d4db770d1b85f85dd4a7677cdfa",
        "scriptpubkey_type": "v0_p2wpkh",
        "scriptpubkey_address": "bc1qumhz9srz49w5mdms6xu9lpwaffm80n06d6c0sa",
        "value": 1335194
      },
      "scriptsig": "",
      "scriptsig_asm": "",
      "witness": [
        "3044022014974ed74a58f39ad2cfb6bb54a8090c3624de22c27a7d5cb8d62f62c9e973fc0220602a89feac45f5a83cedf9b3b09708a866ef8f01e8446b678af749f55a95749901",
        "0201176e78fd8de26e8fa16d4b860a14adae52c5074e5d09a6c92f1b8e381a0af6"
      ],
      "is_coinbase": false,
      "sequence": 4294967295
    }
  ],
  "vout": [
    {
      "scriptpubkey": "a9140cc7307d2c10ccf02fe3a3e35b640ead051648c987",
      "scriptpubkey_asm": "OP_HASH160 OP_PUSHBYTES_20 0cc7307d2c10ccf02fe3a3e35b640ead051648c9 OP_EQUAL",
      "scriptpubkey_type": "p2sh",
      "scriptpubkey_address": "32raemXfn5vLiHgjbRCKqh6xRkcdYyFpDi",
      "value": 1079252
    },
    {
      "scriptpubkey": "0014e6ee22c062a95d4db770d1b85f85dd4a7677cdfa",
      "scriptpubkey_asm": "OP_0 OP_PUSHBYTES_20 e6ee22c062a95d4db770d1b85f85dd4a7677cdfa",
      "scriptpubkey_type": "v0_p2wpkh",
      "scriptpubkey_address": "bc1qumhz9srz49w5mdms6xu9lpwaffm80n06d6c0sa",
      "value": 252108
    }
  ],
  "size": 223,
  "weight": 565,
  "fee": 3834,
  "status": {
    "confirmed": true,
    "block_height": 834638,
    "block_hash": "000000000000000000025f742c626208ac87e0b7d15054abb4a19ca2d735a54e",
    "block_time": 1710405325
  },
  "hex": "01000000000101115520276541a79ec79d6c5290bb36a964cbf881f55a1b5889fe7ddd6009f0680000000000ffffffff02d47710000000000017a9140cc7307d2c10ccf02fe3a3e35b640ead051648c987ccd8030000000000160014e6ee22c062a95d4db770d1b85f85dd4a7677cdfa02473044022014974ed74a58f39ad2cfb6bb54a8090c3624de22c27a7d5cb8d62f62c9e973fc0220602a89feac45f5a83cedf9b3b09708a866ef8f01e8446b678af749f55a95749901210201176e78fd8de26e8fa16d4b860a14adae52c5074e5d09a6c92f1b8e381a0af600000000"
}