{
  "txid": "91488054f9ad3cb2298acb82f976ef320e14bd14c84a882f87c3e8a84923683f",
  "version": 1,
  "locktime": 0,
  "vin": [
    {
      "txid": "614ac01dd2def2bd6c413898133ebbde93b45932dce4929649260867175a38dc",
      "vout": 0,
      "prevout": {
        "scriptpubkey": "5120a09a839a19f1478f67fe803c1fdc7d13d4ce6e5b09bd202da6495b3bdd436829",
        "scriptpubkey_asm": "OP_PUSHNUM_1 OP_PUSHBYTES_32 a09a839a19f1478f67fe803c1fdc7d13d4ce6e5b09bd202da6495b3bdd436829",
        "scriptpubkey_type": "v1_p2tr",
        "scriptpubkey_address": "bc1p5zdg8xse79rc7el7sq7plhraz02vumjmpx7jqtdxf9dnhh2rdq5sfd8jmx",
        "value": 546
      },
      "scriptsig": "",
      "scriptsig_asm": "",
      "witness": [
        "6d84f211e7395827ef93f4c62497bd2b4206cd73b2dd57f9e4eaf4f55905bbec4834fa56d8d762fbcfbde7939d1d626bbcfe72cd4e174c0fe7db7ddd62102412"
      ],
      "is_coinbase": false,
      "sequence": 4294967293
    },
    {
      "txid": "8e4ec98577cedad5bb4b41695f34bb0a1db1f94b0c7fc8e710d5c2b6dd2cd77d",
      "vout": 2,
      "prevout": {
        "scriptpubkey": "5120a09a839a19f1478f67fe803c1fdc7d13d4ce6e5b09bd202da6495b3bdd436829",
        "scriptpubkey_asm": "OP_PUSHNUM_1 OP_PUSHBYTES_32 a09a839a19f1478f67fe803c1fdc7d13d4ce6e5b09bd202da6495b3bdd436829",
        "scriptpubkey_type": "v1_p2tr",
        "scriptpubkey_address": "bc1p5zdg8xse79rc7el7sq7plhraz02vumjmpx7jqtdxf9dnhh2rdq5sfd8jmx",
        "value": 6809
      },
      "scriptsig": "",
      "scriptsig_asm": "",
      "witness": [
        "5892f81751fef1c10e3d30a06aa7d9d32e6072fcf4415266160d910c162fc63f12e21592aaaa7804b6ac5696d80864a838a11c98fed5a3514db41ade0ad3414e"
      ],
      "is_coinbase": false,
      "sequence": 4294967293
    }
  ],
  "vout": [
    {
      "scriptpubkey": "5120203970139a540a210b5d1af2a9d1194c931fd49cd243610b12149a6f563d23f2",
      "scriptpubkey_asm": "OP_PUSHNUM_1 OP_PUSHBYTES_32 203970139a540a210b5d1af2a9d1194c931fd49cd243610b12149a6f563d23f2",
      "scriptpubkey_type": "v1_p2tr",
      "scriptpubkey_address": "bc1pyquhqyu62s9zzz6arte2n5gefjf3l4yu6fpkzzcjzjdx743ay0eqh3ljk2",
      "value": 546
    },
    {
      "scriptpubkey": "5120a09a839a19f1478f67fe803c1fdc7d13d4ce6e5b09bd202da6495b3bdd436829",
      "scriptpubkey_asm": "OP_PUSHNUM_1 OP_PUSHBYTES_32 a09a839a19f1478f67fe803c1fdc7d13d4ce6e5b09bd202da6495b3bdd436829",
      "scriptpubkey_type": "v1_p2tr",
      "scriptpubkey_address": "bc1p5zdg8xse79rc7el7sq7plhraz02vumjmpx7jqtdxf9dnhh2rdq5sfd8jmx",
      "value": 4040
    }
  ],
  "size": 312,
  "weight": 846,
  "fee": 2769,
  "status": {
    "confirmed": true,
    "block_height": 834552,
    "block_hash": "00000000000000000001dd0468a70c94f619251d286585cff57aeb4bd9ede330",
    "block_time": 1710355598
  },
  "hex": "01000000000102dc385a17670826499692e4dc3259b493debb3e139838416cbdf2ded21dc04a610000000000fdffffff7dd72cddb6c2d510e7c87f0c4bf9b11d0abb345f69414bbbd5dace7785c94e8e0200000000fdffffff022202000000000000225120203970139a540a210b5d1af2a9d1194c931fd49cd243610b12149a6f563d23f2c80f000000000000225120a09a839a19f1478f67fe803c1fdc7d13d4ce6e5b09bd202da6495b3bdd43682901406d84f211e7395827ef93f4c62497bd2b4206cd73b2dd57f9e4eaf4f55905bbec4834fa56d8d762fbcfbde7939d1d626bbcfe72cd4e174c0fe7db7ddd6210241201405892f81751fef1c10e3d30a06aa7d9d32e6072fcf4415266160d910c162fc63f12e21592aaaa7804b6ac5696d80864a838a11c98fed5a3514db41ade0ad3414e00000000"
}