{
  "txid": "91501df65d1b70b69f6c404ae620de4062349999117c8b3a74a4fd13816c2105",
  "version": 2,
  "locktime": 0,
  "vin": [
    {
      "txid": "acc3ba00869acb582a3f2904ce3a11dd3779350ce234063fc7d0959246213364",
      "vout": 160,
      "prevout": {
        "scriptpubkey": "5120b8a59b4244d95093f51fd4c9f6be001c4f5f2d3a032bd02bf8ed0af10dde0c4d",
        "scriptpubkey_asm": "OP_PUSHNUM_1 OP_PUSHBYTES_32 b8a59b4244d95093f51fd4c9f6be001c4f5f2d3a032bd02bf8ed0af10dde0c4d",
        "scriptpubkey_type": "v1_p2tr",
        "scriptpubkey_address": "bc1phzjeksjym9gf8agl6nyld0sqr3847tf6qv4aq2lca590zrw7p3xsxntu7r",
        "value": 1806
      },
      "scriptsig": "",
      "scriptsig_asm": "",
      "witness": [
        "033cb85d3f415fd5404a1e13b4f90ccc38b546d5630830261492228cc508bfb3da5f78908f698ad9369a8cd24cce72886646ae180d285dff2f4cb2da124b4276",
        "2008cb8db82253774c7c3eb755066e45c6980c609a2bc7b002fe56c0025f8a92c4ac0063036f726401010a746578742f706c61696e00357b2270223a226272632d3230222c226f70223a226d696e74222c227469636b223a22646f6765222c22616d74223a2234323030227d68",
        "c108cb8db82253774c7c3eb755066e45c6980c609a2bc7b002fe56c0025f8a92c4"
      ],
      "is_coinbase": false,
      "sequence": 4261412863
    }
  ],
  "vout": [
    {
      "scriptpubkey": "00147a665de7a370f4c9b372ab1fae587500a5bcbdb4",
      "scriptpubkey_asm": "OP_0 OP_PUSHBYTES_20 7a665de7a370f4c9b372ab1fae587500a5bcbdb4",
      "scriptpubkey_type": "v0_p2wpkh",
      "scriptpubkey_address": "bc1q0fn9mearwr6vnvmj4v06ukr4qzjme0d565dzcx",
      "value": 294
    }
  ],
  "size": 294,
  "weight": 540,
  "fee": 1512,
  "status": {
    "confirmed": true,
    "block_height": 834460,
    "block_hash": "00000000000000000000484a79b643b2524bbce82e5d8a442013fa5b8905ed98",
    "block_time": 1710307468
  },
  "hex": "02000000000101643321469295d0c73f0634e20c357937dd113ace04293f2a58cb9a8600bac3aca000000000fffffffd0126010000000000001600147a665de7a370f4c9b372ab1fae587500a5bcbdb40340033cb85d3f415fd5404a1e13b4f90ccc38b546d5630830261492228cc508bfb3da5f78908f698ad9369a8cd24cce72886646ae180d285dff2f4cb2da124b42766d2008cb8db82253774c7c3eb755066e45c6980c609a2bc7b002fe56c0025f8a92c4ac0063036f726401010a746578742f706c61696e00357b2270223a226272632d3230222c226f70223a226d696e74222c227469636b223a22646f6765222c22616d74223a2234323030227d6821c108cb8db82253774c7c3eb755066e45c6980c609a2bc7b002fe56c0025f8a92c400000000"
}