{
  "txid": "9152662afc5b0b642a85dbfddec329585aa5e65c32ff9e4e9b25e98bf241819f",
  "version": 1,
  "locktime": 0,
  "vin": [
    {
      "txid": "678ec5cb518c2abde6471e191c0d681fd5363be2108d7bfd252107bf4b82d7ca",
      "vout": 0,
      "prevout": {
        "scriptpubkey": "0014be22855068c3db812119d5f114cf2f3864f25e89",
        "scriptpubkey_asm": "OP_0 OP_PUSHBYTES_20 be22855068c3db812119d5f114cf2f3864f25e89",
        "scriptpubkey_type": "v0_p2wpkh",
        "scriptpubkey_address": "bc1qhc3g25rgc0dczgge6hc3fne08pj0yh5fcr94gk",
        "value": 54912
      },
      "scriptsig": "",
      "scriptsig_asm": "",
      "witness": [
        "3045022100bfc9acbd5ef9d1eb63064434d67045a2656f4621941d8785a608c214bbf1c7e5022047bcdc46103ecba937a2a016d40856f6503ab8ad9a8b28e55dc022677567c27001",
        "02fe411be47062c46ebab17652578ee4d7ddc7a8a0e62539c8cba2e2a2e4d2e5cb"
      ],
      "is_coinbase": false,
      "sequence": 4294967295
    }
  ],
  "vout": [
    {
      "scriptpubkey": "a914c24044241a74e8de746405667ad230bcf042c8b687",
      "scriptpubkey_asm": "OP_HASH160 OP_PUSHBYTES_20 c24044241a74e8de746405667ad230bcf042c8b6 OP_EQUAL",
      "scriptpubkey_type": "p2sh",
      "scriptpubkey_address": "3KQ813uwomByStUzXxoXpejtd6VE7ksVBF",
      "value": 51915
    }
  ],
  "size": 193,
  "weight": 442,
  "fee": 2997,
  "status": {
    "confirmed": true,
    "block_height": 834638,
    "block_hash": "000000000000000000025f742c626208ac87e0b7d15054abb4a19ca2d735a54e",
    "block_time": 1710405325
  },
  "hex": "01000000000101cad7824bbf072125fd7b8d10e23b36d51f680d1c191e47e6bd2a8c51cbc58e670000000000ffffffff01cbca00000000000017a914c24044241a74e8de746405667ad230bcf042c8b68702483045022100bfc9acbd5ef9d1eb63064434d67045a2656f4621941d8785a608c214bbf1c7e5022047bcdc46103ecba937a2a016d40856f6503ab8ad9a8b28e55dc022677567c270012102fe411be47062c46ebab17652578ee4d7ddc7a8a0e62539c8cba2e2a2e4d2e5cb00000000"
}