{
  "txid": "9153a496c8c2b2a763b309fdd7421936006521f7f30f1dc293c84f3a6d432dc4",
  "version": 2,
  "locktime": 0,
  "vin": [
    {
      "txid": "feb3a69ce75b51da3a120fbb66e6255e9cd97520defabb79c1b812b3374a9fae",
      "vout": 0,
      "prevout": {
        "scriptpubkey": "5120daabf5514833b9f964e750762e908fc6f2f8e7f16a69122f7ff076c32dbe44d8",
        "scriptpubkey_asm": "OP_PUSHNUM_1 OP_PUSHBYTES_32 daabf5514833b9f964e750762e908fc6f2f8e7f16a69122f7ff076c32dbe44d8",
        "scriptpubkey_type": "v1_p2tr",
        "scriptpubkey_address": "bc1pm24l252gxwulje882pmzayy0cme03el3df53ytml7pmvxtd7gnvqe9pxeu",
        "value": 2856
      },
      "scriptsig": "",
      "scriptsig_asm": "",
      "witness": [
        "a0d40ac03bcd44f3e44460d16e5291e3870a58b6f2b208b1f087d9ea89ed62c5fb0f0e1cd34b323931febadb9778aa840c96027d155779050f6f98f31a77697d",
        "20c5fdc3c82d4d4ae6309c81930b4ee31c49a17929239be8abdec2fa1f09c21df3ac0063036f7264010118746578742f706c61696e3b636861727365743d7574662d3800417b2270223a226272632d3230222c226f70223a227472616e73666572222c227469636b223a226f726469222c22616d74223a223639382e3434363930393231227d68",
        "c1c5fdc3c82d4d4ae6309c81930b4ee31c49a17929239be8abdec2fa1f09c21df3"
      ],
      "is_coinbase": false,
      "sequence": 4294967293
    }
  ],
  "vout": [
    {
      "scriptpubkey": "5120742288b396237ebbaffece721aceefa81ceca33331dc368ebb51c44ea24a965f",
      "scriptpubkey_asm": "OP_PUSHNUM_1 OP_PUSHBYTES_32 742288b396237ebbaffece721aceefa81ceca33331dc368ebb51c44ea24a965f",
      "scriptpubkey_type": "v1_p2tr",
      "scriptpubkey_address": "bc1pws3g3vukydlthtl7eeep4nh04qwwegenx8wrdr4m28zyagj2je0sdnu6ta",
      "value": 546
    }
  ],
  "size": 332,
  "weight": 614,
  "fee": 2310,
  "status": {
    "confirmed": true,
    "block_height": 834460,
    "block_hash": "00000000000000000000484a79b643b2524bbce82e5d8a442013fa5b8905ed98",
    "block_time": 1710307468
  },
  "hex": "02000000000101ae9f4a37b312b8c179bbfade2075d99c5e25e666bb0f123ada515be79ca6b3fe0000000000fdffffff012202000000000000225120742288b396237ebbaffece721aceefa81ceca33331dc368ebb51c44ea24a965f0340a0d40ac03bcd44f3e44460d16e5291e3870a58b6f2b208b1f087d9ea89ed62c5fb0f0e1cd34b323931febadb9778aa840c96027d155779050f6f98f31a77697d8720c5fdc3c82d4d4ae6309c81930b4ee31c49a17929239be8abdec2fa1f09c21df3ac0063036f7264010118746578742f706c61696e3b636861727365743d7574662d3800417b2270223a226272632d3230222c226f70223a227472616e73666572222c227469636b223a226f726469222c22616d74223a223639382e3434363930393231227d6821c1c5fdc3c82d4d4ae6309c81930b4ee31c49a17929239be8abdec2fa1f09c21df300000000"
}