{
  "txid": "9168d29b8378f3dd2f062bb32cf24630c15819a94bf030a4a38737eb9c206713",
  "version": 1,
  "locktime": 0,
  "vin": [
    {
      "txid": "73f3b8544acb210f385835c189e63d9c71f9c79623341aa12320f23a88c40013",
      "vout": 0,
      "prevout": {
        "scriptpubkey": "0014538237d757b9ba664f1907acce8de7b2c4422861",
        "scriptpubkey_asm": "OP_0 OP_PUSHBYTES_20 538237d757b9ba664f1907acce8de7b2c4422861",
        "scriptpubkey_type": "v0_p2wpkh",
        "scriptpubkey_address": "bc1q2wpr046hhxaxvnceq7kvar08ktzyy2rp80pu9g",
        "value": 6032
      },
      "scriptsig": "",
      "scriptsig_asm": "",
      "witness": [
        "3045022100dfd449a177cae7e242a86a1c3357d75303b30b45540ab6c2fb640007ad0057010220373363e2c37c5bcf96f4ff3bc2bca7f947ee9c197ab5d25407c76e6b2aa7940c01",
        "02e3db2acc80a1095dc99072cdbee3f45f8f6e724350ba1618932f6eca18b43535"
      ],
      "is_coinbase": false,
      "sequence": 4294967295
    }
  ],
  "vout": [
    {
      "scriptpubkey": "0014c7f5b4f16a749ceea55171ebd34783b330a4541e",
      "scriptpubkey_asm": "OP_0 OP_PUSHBYTES_20 c7f5b4f16a749ceea55171ebd34783b330a4541e",
      "scriptpubkey_type": "v0_p2wpkh",
      "scriptpubkey_address": "bc1qcl6mfut2wjwwaf23w84ax3urkvc2g4q7jkfyvn",
      "value": 4833
    }
  ],
  "size": 192,
  "weight": 438,
  "fee": 1199,
  "status": {
    "confirmed": true,
    "block_height": 834464,
    "block_hash": "0000000000000000000177a0869a911a2b65c9bdcd5a8bcb02b68f305bee848e",
    "block_time": 1710308296
  },
  "hex": "010000000001011300c4883af22023a11a342396c7f9719c3de689c13558380f21cb4a54b8f3730000000000ffffffff01e112000000000000160014c7f5b4f16a749ceea55171ebd34783b330a4541e02483045022100dfd449a177cae7e242a86a1c3357d75303b30b45540ab6c2fb640007ad0057010220373363e2c37c5bcf96f4ff3bc2bca7f947ee9c197ab5d25407c76e6b2aa7940c012102e3db2acc80a1095dc99072cdbee3f45f8f6e724350ba1618932f6eca18b4353500000000"
}