{
  "txid": "9173489af300be09c4c06c7dab6f92c5554712f12dabac3f0f72502b28246690",
  "version": 1,
  "locktime": 0,
  "vin": [
    {
      "txid": "19eb328178c374611b6cb821e2c287353e46778bed8e573fa54619146f143052",
      "vout": 2,
      "prevout": {
        "scriptpubkey": "0014741ef6e3d2225ae2b0bdf14361f0a9d940ff661b",
        "scriptpubkey_asm": "OP_0 OP_PUSHBYTES_20 741ef6e3d2225ae2b0bdf14361f0a9d940ff661b",
        "scriptpubkey_type": "v0_p2wpkh",
        "scriptpubkey_address": "bc1qws00dc7jyfdw9v9a79pkru9fm9q07esmth8ku3",
        "value": 3335604
      },
      "scriptsig": "",
      "scriptsig_asm": "",
      "witness": [
        "3044022014514e22f7018e0d83e960f3db5fcd7ee3db71aef20a71de00806ac1d2605a000220378379d34c90b0ddaf7ad7a5a351501796dad8b626792ae04b2fedf323e8373101",
        "029e045132f8d2b8695835999f4bba746a58454ca0dfed54e8a589a53c5589f32e"
      ],
      "is_coinbase": false,
      "sequence": 4294967295
    },
    {
      "txid": "7f1dcb8c5592246bc657e7e2a5517644d6c9b40da2f703a553e8c190a8d9574b",
      "vout": 2,
      "prevout": {
        "scriptpubkey": "0014568ec9a394ae91a281b555851892503fc4b062ee",
        "scriptpubkey_asm": "OP_0 OP_PUSHBYTES_20 568ec9a394ae91a281b555851892503fc4b062ee",
        "scriptpubkey_type": "v0_p2wpkh",
        "scriptpubkey_address": "bc1q268vngu546g69qd42kz33yjs8lztqchw9np3lx",
        "value": 254344
      },
      "scriptsig": "",
      "scriptsig_asm": "",
      "witness": [
        "304402203d71fe76d6eb1d0cb1bc8eece582258325a51e63d47ee3b1e8cd41eae395aa4d0220222b883a3cc6b7cee8a4a0598667be7802d12293c5be1da6def7cf9489d339e501",
        "02845a28059f382bc2a6a80c84a512fee0e974eb878a2c26692f1996d085210fad"
      ],
      "is_coinbase": false,
      "sequence": 4294967295
    },
    {
      "txid": "ebd0764e44508c45433eec0f723c6d9c9d0f2d685b76fbdcbd57121280da8839",
      "vout": 2,
      "prevout": {
        "scriptpubkey": "0014f996f873611cd2249acf22252afdeb39290caaf6",
        "scriptpubkey_asm": "OP_0 OP_PUSHBYTES_20 f996f873611cd2249acf22252afdeb39290caaf6",
        "scriptpubkey_type": "v0_p2wpkh",
        "scriptpubkey_address": "bc1qlxt0sumprnfzfxk0ygjj4l0t8y5se2hk7uhrqr",
        "value": 2442483
      },
      "scriptsig": "",
      "scriptsig_asm": "",
      "witness": [
        "3044022000e6641aa3b337c7a94fcb4ac1d5d9e9f96bf2793749cbd3d62708a71cf52bf702204ebfdc5029e80237226ab7940ed6c2a27572248386531870a9aa1cae952f6e3001",
        "0206e3a0538d8a375b989a1012f11b9df59de11f8095b21b0657cb37781441f527"
      ],
      "is_coinbase": false,
      "sequence": 4294967295
    }
  ],
  "vout": [
    {
      "scriptpubkey": "6a40904d17227a5ad4bcaa3ee34d4426b360c3e0b1e46033a5df80f325cfd658db63f2b0d960a31929a117038df40b14fdfe7ae462bfe36d4e8ca21170393b06ee80",
      "scriptpubkey_asm": "OP_RETURN OP_PUSHBYTES_64 904d17227a5ad4bcaa3ee34d4426b360c3e0b1e46033a5df80f325cfd658db63f2b0d960a31929a117038df40b14fdfe7ae462bfe36d4e8ca21170393b06ee80",
      "scriptpubkey_type": "op_return",
      "value": 0
    },
    {
      "scriptpubkey": "00149012e6e7d893161b7276866830ea6ee655ef05f8",
      "scriptpubkey_asm": "OP_0 OP_PUSHBYTES_20 9012e6e7d893161b7276866830ea6ee655ef05f8",
      "scriptpubkey_type": "v0_p2wpkh",
      "scriptpubkey_address": "bc1qjqfwde7cjvtpkunkse5rp6nwue277p0chvkgc4",
      "value": 175000
    },
    {
      "scriptpubkey": "0014e136fda3a7b80b54323c79a14893e270f380a20d",
      "scriptpubkey_asm": "OP_0 OP_PUSHBYTES_20 e136fda3a7b80b54323c79a14893e270f380a20d",
      "scriptpubkey_type": "v0_p2wpkh",
      "scriptpubkey_address": "bc1quym0mga8hq94gv3u0xs53ylzwrecpgsdtxklhh",
      "value": 848437
    },
    {
      "scriptpubkey": "00142f26861e8b9898d396afb499db96e9d7142ec0f5",
      "scriptpubkey_asm": "OP_0 OP_PUSHBYTES_20 2f26861e8b9898d396afb499db96e9d7142ec0f5",
      "scriptpubkey_type": "v0_p2wpkh",
      "scriptpubkey_address": "bc1q9ungv85tnzvd8940kjvah9hf6u2zas846vffq9",
      "value": 5003630
    }
  ],
  "size": 624,
  "weight": 1527,
  "fee": 5364,
  "status": {
    "confirmed": true,
    "block_height": 834460,
    "block_hash": "00000000000000000000484a79b643b2524bbce82e5d8a442013fa5b8905ed98",
    "block_time": 1710307468
  },
  "hex": "010000000001035230146f141946a53f578eed8b77463e3587c2e221b86c1b6174c3788132eb190200000000ffffffff4b57d9a890c1e853a503f7a20db4c9d6447651a5e2e757c66b2492558ccb1d7f0200000000ffffffff3988da80121257bddcfb765b682d0f9d9c6d3c720fec3e43458c50444e76d0eb0200000000ffffffff040000000000000000426a40904d17227a5ad4bcaa3ee34d4426b360c3e0b1e46033a5df80f325cfd658db63f2b0d960a31929a117038df40b14fdfe7ae462bfe36d4e8ca21170393b06ee8098ab0200000000001600149012e6e7d893161b7276866830ea6ee655ef05f835f20c0000000000160014e136fda3a7b80b54323c79a14893e270f380a20d6e594c00000000001600142f26861e8b9898d396afb499db96e9d7142ec0f502473044022014514e22f7018e0d83e960f3db5fcd7ee3db71aef20a71de00806ac1d2605a000220378379d34c90b0ddaf7ad7a5a351501796dad8b626792ae04b2fedf323e837310121029e045132f8d2b8695835999f4bba746a58454ca0dfed54e8a589a53c5589f32e0247304402203d71fe76d6eb1d0cb1bc8eece582258325a51e63d47ee3b1e8cd41eae395aa4d0220222b883a3cc6b7cee8a4a0598667be7802d12293c5be1da6def7cf9489d339e5012102845a28059f382bc2a6a80c84a512fee0e974eb878a2c26692f1996d085210fad02473044022000e6641aa3b337c7a94fcb4ac1d5d9e9f96bf2793749cbd3d62708a71cf52bf702204ebfdc5029e80237226ab7940ed6c2a27572248386531870a9aa1cae952f6e3001210206e3a0538d8a375b989a1012f11b9df59de11f8095b21b0657cb37781441f52700000000"
}