{
  "txid": "917312b205bc24c9fbbfeb42dbd55a5395ffe42ff0107eb521b09a95f3376f2b",
  "version": 2,
  "locktime": 834551,
  "vin": [
    {
      "txid": "574661ec89154752e0b78b16845d3f5ffe1a9f85f9d5aa1a1a6435f9bca046a3",
      "vout": 0,
      "prevout": {
        "scriptpubkey": "00143d93b88f4dabd27125d3ae48e30dc7b5e8e2c181",
        "scriptpubkey_asm": "OP_0 OP_PUSHBYTES_20 3d93b88f4dabd27125d3ae48e30dc7b5e8e2c181",
        "scriptpubkey_type": "v0_p2wpkh",
        "scriptpubkey_address": "bc1q8kfm3r6d40f8zfwn4eywxrw8kh5w9svpy40478",
        "value": 20478534
      },
      "scriptsig": "",
      "scriptsig_asm": "",
      "witness": [
        "30440220066576ac8ac5d4525a6068b4841b74514acb23947dc0100e591251a38bd7b9d1022064519613ff7ea6f81989b2849c0b0acab6965dd24fd929095423e1ef235326d901",
        "03b5a0383c641c0cc9309a30e50d86f837b1de7d3ce949db8cd23f29aabf3bec13"
      ],
      "is_coinbase": false,
      "sequence": 4294967293
    }
  ],
  "vout": [
    {
      "scriptpubkey": "a914e321d6ba6d55e1888538d3dd9cb88548f9a4714487",
      "scriptpubkey_asm": "OP_HASH160 OP_PUSHBYTES_20 e321d6ba6d55e1888538d3dd9cb88548f9a47144 OP_EQUAL",
      "scriptpubkey_type": "p2sh",
      "scriptpubkey_address": "3NPyrFQ6ZJ3koEbjiRH47AW3fdsXx7SDNF",
      "value": 20472984
    }
  ],
  "size": 192,
  "weight": 441,
  "fee": 5550,
  "status": {
    "confirmed": true,
    "block_height": 834552,
    "block_hash": "00000000000000000001dd0468a70c94f619251d286585cff57aeb4bd9ede330",
    "block_time": 1710355598
  },
  "hex": "02000000000101a346a0bcf935641a1aaad5f9859f1afe5f3f5d84168bb7e052471589ec6146570000000000fdffffff01986438010000000017a914e321d6ba6d55e1888538d3dd9cb88548f9a4714487024730440220066576ac8ac5d4525a6068b4841b74514acb23947dc0100e591251a38bd7b9d1022064519613ff7ea6f81989b2849c0b0acab6965dd24fd929095423e1ef235326d9012103b5a0383c641c0cc9309a30e50d86f837b1de7d3ce949db8cd23f29aabf3bec13f7bb0c00"
}