{
  "txid": "9173999f88a4c8f86bed545a45b6117c45a70de247d2f3b348544ccfa37958e2",
  "version": 2,
  "locktime": 0,
  "vin": [
    {
      "txid": "2008c6b3f802cdb351eef707c39610629665de523694791fa00bed9fb9e0da55",
      "vout": 5,
      "prevout": {
        "scriptpubkey": "0014c46b114ec17085a21c3f60562c785af03eb744fe",
        "scriptpubkey_asm": "OP_0 OP_PUSHBYTES_20 c46b114ec17085a21c3f60562c785af03eb744fe",
        "scriptpubkey_type": "v0_p2wpkh",
        "scriptpubkey_address": "bc1qc343znkpwzz6y8plvptzc7z67qltw387mh7sp6",
        "value": 300
      },
      "scriptsig": "",
      "scriptsig_asm": "",
      "witness": [
        "304402205e5e6cdb6b214004185ddd027427dbaeec440cd2f59b060fc2e1d8d7719522fe02204ff56a25c195fafb7d7d1125737c7003f63cbc3f04c8f127f543bfe5800dc9ea01",
        "02515ffe91263e7b20df539811af23188e76ee8eb317913e27b349f4f874dc9509"
      ],
      "is_coinbase": false,
      "sequence": 4294967295
    },
    {
      "txid": "2008c6b3f802cdb351eef707c39610629665de523694791fa00bed9fb9e0da55",
      "vout": 6,
      "prevout": {
        "scriptpubkey": "0014c46b114ec17085a21c3f60562c785af03eb744fe",
        "scriptpubkey_asm": "OP_0 OP_PUSHBYTES_20 c46b114ec17085a21c3f60562c785af03eb744fe",
        "scriptpubkey_type": "v0_p2wpkh",
        "scriptpubkey_address": "bc1qc343znkpwzz6y8plvptzc7z67qltw387mh7sp6",
        "value": 300
      },
      "scriptsig": "",
      "scriptsig_asm": "",
      "witness": [
        "304402202df01fca25c7a340456eb61ed16d3f1c18b2e4d7a9d283be40109b28e332f27e02202fb5b1e62fee224d5a07ad2ee6915a063f16d43ca316d029540d98432e875e3101",
        "02515ffe91263e7b20df539811af23188e76ee8eb317913e27b349f4f874dc9509"
      ],
      "is_coinbase": false,
      "sequence": 4294967295
    },
    {
      "txid": "379f31591166aa8e047ce14e7db4f6d012edf2e6e7308e0ae68f9eb464badead",
      "vout": 0,
      "prevout": {
        "scriptpubkey": "0014f7b2fc347ae010b412cf661738c41cd729893413",
        "scriptpubkey_asm": "OP_0 OP_PUSHBYTES_20 f7b2fc347ae010b412cf661738c41cd729893413",
        "scriptpubkey_type": "v0_p2wpkh",
        "scriptpubkey_address": "bc1q77e0cdr6uqgtgyk0vctn33qu6u5cjdqnmj9f2g",
        "value": 546
      },
      "scriptsig": "",
      "scriptsig_asm": "",
      "witness": [
        "3045022100d32bc0d20303b0597ec2745d5b5401056c44ec5766384f2e087ac3a57ddffa02022045b44fdf5787ebbcf29d979ee780ac405a1716a99dcb568bacf0959e68a71e8383",
        "03e01cd0e93a2195b4efd63aa466d9c1bb9c3ead178a30769dadfe4e075606ae26"
      ],
      "is_coinbase": false,
      "sequence": 4294967295
    },
    {
      "txid": "a3fec169bf49dd607480fe00e4661b64e0e44ef0f58079fab89a5f1209505a16",
      "vout": 0,
      "prevout": {
        "scriptpubkey": "00140a7575f82f5705cc124a3da60af266aa95915579",
        "scriptpubkey_asm": "OP_0 OP_PUSHBYTES_20 0a7575f82f5705cc124a3da60af266aa95915579",
        "scriptpubkey_type": "v0_p2wpkh",
        "scriptpubkey_address": "bc1qpf6ht7p02uzucyj28knq4unx422ez4te5hc4hh",
        "value": 13781623
      },
      "scriptsig": "",
      "scriptsig_asm": "",
      "witness": [
        "3045022100811b6fd99a4c60a1b7e508e39c5eeeb787aee2759238212930e3e728778f67b1022036b1c479f8f25e9a64fa778de85ad505cf2165b92bc08ec2e95b222c7ac0421801",
        "03f327bccdd4dd2fce0a54709ca6a4aecb3be0d6e76691639725f2ea6980d375d0"
      ],
      "is_coinbase": false,
      "sequence": 4294967295
    },
    {
      "txid": "2008c6b3f802cdb351eef707c39610629665de523694791fa00bed9fb9e0da55",
      "vout": 0,
      "prevout": {
        "scriptpubkey": "0014c46b114ec17085a21c3f60562c785af03eb744fe",
        "scriptpubkey_asm": "OP_0 OP_PUSHBYTES_20 c46b114ec17085a21c3f60562c785af03eb744fe",
        "scriptpubkey_type": "v0_p2wpkh",
        "scriptpubkey_address": "bc1qc343znkpwzz6y8plvptzc7z67qltw387mh7sp6",
        "value": 600
      },
      "scriptsig": "",
      "scriptsig_asm": "",
      "witness": [
        "30440220629df595e789c660cf687b7040a3a8667653188f95c0a39270df404ba07177dd022016929535d4f08c5306efd51d36389b8b529e366e75bb44e82f84bc25c3b9dcf901",
        "02515ffe91263e7b20df539811af23188e76ee8eb317913e27b349f4f874dc9509"
      ],
      "is_coinbase": false,
      "sequence": 4294967295
    }
  ],
  "vout": [
    {
      "scriptpubkey": "0014c46b114ec17085a21c3f60562c785af03eb744fe",
      "scriptpubkey_asm": "OP_0 OP_PUSHBYTES_20 c46b114ec17085a21c3f60562c785af03eb744fe",
      "scriptpubkey_type": "v0_p2wpkh",
      "scriptpubkey_address": "bc1qc343znkpwzz6y8plvptzc7z67qltw387mh7sp6",
      "value": 600
    },
    {
      "scriptpubkey": "00140a7575f82f5705cc124a3da60af266aa95915579",
      "scriptpubkey_asm": "OP_0 OP_PUSHBYTES_20 0a7575f82f5705cc124a3da60af266aa95915579",
      "scriptpubkey_type": "v0_p2wpkh",
      "scriptpubkey_address": "bc1qpf6ht7p02uzucyj28knq4unx422ez4te5hc4hh",
      "value": 546
    },
    {
      "scriptpubkey": "0014f7b2fc347ae010b412cf661738c41cd729893413",
      "scriptpubkey_asm": "OP_0 OP_PUSHBYTES_20 f7b2fc347ae010b412cf661738c41cd729893413",
      "scriptpubkey_type": "v0_p2wpkh",
      "scriptpubkey_address": "bc1q77e0cdr6uqgtgyk0vctn33qu6u5cjdqnmj9f2g",
      "value": 11900000
    },
    {
      "scriptpubkey": "00140a7575f82f5705cc124a3da60af266aa95915579",
      "scriptpubkey_asm": "OP_0 OP_PUSHBYTES_20 0a7575f82f5705cc124a3da60af266aa95915579",
      "scriptpubkey_type": "v0_p2wpkh",
      "scriptpubkey_address": "bc1qpf6ht7p02uzucyj28knq4unx422ez4te5hc4hh",
      "value": 1874390
    },
    {
      "scriptpubkey": "0014c46b114ec17085a21c3f60562c785af03eb744fe",
      "scriptpubkey_asm": "OP_0 OP_PUSHBYTES_20 c46b114ec17085a21c3f60562c785af03eb744fe",
      "scriptpubkey_type": "v0_p2wpkh",
      "scriptpubkey_address": "bc1qc343znkpwzz6y8plvptzc7z67qltw387mh7sp6",
      "value": 300
    },
    {
      "scriptpubkey": "0014c46b114ec17085a21c3f60562c785af03eb744fe",
      "scriptpubkey_asm": "OP_0 OP_PUSHBYTES_20 c46b114ec17085a21c3f60562c785af03eb744fe",
      "scriptpubkey_type": "v0_p2wpkh",
      "scriptpubkey_address": "bc1qc343znkpwzz6y8plvptzc7z67qltw387mh7sp6",
      "value": 300
    }
  ],
  "size": 940,
  "weight": 2143,
  "fee": 7233,
  "status": {
    "confirmed": true,
    "block_height": 834460,
    "block_hash": "00000000000000000000484a79b643b2524bbce82e5d8a442013fa5b8905ed98",
    "block_time": 1710307468
  },
  "hex": "0200000000010555dae0b99fed0ba01f79943652de6596621096c307f7ee51b3cd02f8b3c608200500000000ffffffff55dae0b99fed0ba01f79943652de6596621096c307f7ee51b3cd02f8b3c608200600000000ffffffffaddeba64b49e8fe60a8e30e7e6f2ed12d0f6b47d4ee17c048eaa661159319f370000000000ffffffff165a5009125f9ab8fa7980f5f04ee4e0641b66e400fe807460dd49bf69c1fea30000000000ffffffff55dae0b99fed0ba01f79943652de6596621096c307f7ee51b3cd02f8b3c608200000000000ffffffff065802000000000000160014c46b114ec17085a21c3f60562c785af03eb744fe22020000000000001600140a7575f82f5705cc124a3da60af266aa959155796094b50000000000160014f7b2fc347ae010b412cf661738c41cd729893413d6991c00000000001600140a7575f82f5705cc124a3da60af266aa959155792c01000000000000160014c46b114ec17085a21c3f60562c785af03eb744fe2c01000000000000160014c46b114ec17085a21c3f60562c785af03eb744fe0247304402205e5e6cdb6b214004185ddd027427dbaeec440cd2f59b060fc2e1d8d7719522fe02204ff56a25c195fafb7d7d1125737c7003f63cbc3f04c8f127f543bfe5800dc9ea012102515ffe91263e7b20df539811af23188e76ee8eb317913e27b349f4f874dc95090247304402202df01fca25c7a340456eb61ed16d3f1c18b2e4d7a9d283be40109b28e332f27e02202fb5b1e62fee224d5a07ad2ee6915a063f16d43ca316d029540d98432e875e31012102515ffe91263e7b20df539811af23188e76ee8eb317913e27b349f4f874dc950902483045022100d32bc0d20303b0597ec2745d5b5401056c44ec5766384f2e087ac3a57ddffa02022045b44fdf5787ebbcf29d979ee780ac405a1716a99dcb568bacf0959e68a71e83832103e01cd0e93a2195b4efd63aa466d9c1bb9c3ead178a30769dadfe4e075606ae2602483045022100811b6fd99a4c60a1b7e508e39c5eeeb787aee2759238212930e3e728778f67b1022036b1c479f8f25e9a64fa778de85ad505cf2165b92bc08ec2e95b222c7ac04218012103f327bccdd4dd2fce0a54709ca6a4aecb3be0d6e76691639725f2ea6980d375d0024730440220629df595e789c660cf687b7040a3a8667653188f95c0a39270df404ba07177dd022016929535d4f08c5306efd51d36389b8b529e366e75bb44e82f84bc25c3b9dcf9012102515ffe91263e7b20df539811af23188e76ee8eb317913e27b349f4f874dc950900000000"
}