{
  "txid": "9174daa11811e6c54d5bb37467d1cf3b48d23a735ba8a4829dc5d2fcb2fc3b09",
  "version": 2,
  "locktime": 0,
  "vin": [
    {
      "txid": "8486ecb4df0880316dd6e82b3971b4df187aff23765bc3a47f8d78bb53aa273c",
      "vout": 28,
      "prevout": {
        "scriptpubkey": "512059d3868775f86383dfb3682748b16335b7c6dd1f9318b5b30313a843f5149d14",
        "scriptpubkey_asm": "OP_PUSHNUM_1 OP_PUSHBYTES_32 59d3868775f86383dfb3682748b16335b7c6dd1f9318b5b30313a843f5149d14",
        "scriptpubkey_type": "v1_p2tr",
        "scriptpubkey_address": "bc1pt8fcdpm4lp3c8handqn53vtrxkmudhgljvvttvcrzw5y8ag5n52qsuyxwp",
        "value": 2575
      },
      "scriptsig": "",
      "scriptsig_asm": "",
      "witness": [
        "45b0f721ebe537112a0d0d6d2e4609805531c8ed8e22c88d168bd5360e1ce5e30339e05c2e39d3059bb0e67768cb9bace790d2ead346dc575b8c2df0063315a8",
        "20c6d3f7cc8e403be88425b8c05ec62a1a12a1ba40128976c0670078ec0dc9b79dac0063036f726401010a746578742f706c61696e00367b2270223a226272632d3230222c226f70223a226d696e74222c227469636b223a2261616161222c22616d74223a223130303030227d68",
        "c1c6d3f7cc8e403be88425b8c05ec62a1a12a1ba40128976c0670078ec0dc9b79d"
      ],
      "is_coinbase": false,
      "sequence": 4261412863
    }
  ],
  "vout": [
    {
      "scriptpubkey": "0014ddd7ef12ea6f78edcc1e8e7afa12c01ab59f3339",
      "scriptpubkey_asm": "OP_0 OP_PUSHBYTES_20 ddd7ef12ea6f78edcc1e8e7afa12c01ab59f3339",
      "scriptpubkey_type": "v0_p2wpkh",
      "scriptpubkey_address": "bc1qmht77yh2dauwmnq73ea05ykqr26e7veea8spz6",
      "value": 546
    }
  ],
  "size": 295,
  "weight": 541,
  "fee": 2029,
  "status": {
    "confirmed": true,
    "block_height": 834460,
    "block_hash": "00000000000000000000484a79b643b2524bbce82e5d8a442013fa5b8905ed98",
    "block_time": 1710307468
  },
  "hex": "020000000001013c27aa53bb788d7fa4c35b7623ff7a18dfb471392be8d66d318008dfb4ec86841c00000000fffffffd012202000000000000160014ddd7ef12ea6f78edcc1e8e7afa12c01ab59f3339034045b0f721ebe537112a0d0d6d2e4609805531c8ed8e22c88d168bd5360e1ce5e30339e05c2e39d3059bb0e67768cb9bace790d2ead346dc575b8c2df0063315a86e20c6d3f7cc8e403be88425b8c05ec62a1a12a1ba40128976c0670078ec0dc9b79dac0063036f726401010a746578742f706c61696e00367b2270223a226272632d3230222c226f70223a226d696e74222c227469636b223a2261616161222c22616d74223a223130303030227d6821c1c6d3f7cc8e403be88425b8c05ec62a1a12a1ba40128976c0670078ec0dc9b79d00000000"
}