{
  "txid": "917945d603efdcb0c708802ec4567fe503434a758347254b653b8c7d4827f60b",
  "version": 1,
  "locktime": 0,
  "vin": [
    {
      "txid": "9c88c312ec70e6affbe6e38c9638bfaddc004b8054459c07d67393f61e886eb8",
      "vout": 0,
      "prevout": {
        "scriptpubkey": "5120fa70e5554dbda2ffd95352de7f123858556e0c9f743df617f06177bd2235e8a2",
        "scriptpubkey_asm": "OP_PUSHNUM_1 OP_PUSHBYTES_32 fa70e5554dbda2ffd95352de7f123858556e0c9f743df617f06177bd2235e8a2",
        "scriptpubkey_type": "v1_p2tr",
        "scriptpubkey_address": "bc1plfcw242dhk30lk2n2t087y3ctp2kurylws7lv9lsv9mm6g34az3qwhw20q",
        "value": 5000
      },
      "scriptsig": "",
      "scriptsig_asm": "",
      "witness": [
        "7a81b614334dd7b896a2a6a73b389a58e9b00ef19e2c2b941bf7429dd3c450be9e31998269ea07a9052accfc61ee9f1e860c91bcfc90596b45b67384bdc85b8301"
      ],
      "is_coinbase": false,
      "sequence": 4294967295
    }
  ],
  "vout": [
    {
      "scriptpubkey": "5120ab182acc31085512247c485d9c87b70c033de283c9dd61a4f989c5be6b50d442",
      "scriptpubkey_asm": "OP_PUSHNUM_1 OP_PUSHBYTES_32 ab182acc31085512247c485d9c87b70c033de283c9dd61a4f989c5be6b50d442",
      "scriptpubkey_type": "v1_p2tr",
      "scriptpubkey_address": "bc1p4vvz4np3pp23yfrufpweepahpspnmc5re8wkrf8e38zmu66s63pqskqtdc",
      "value": 2748
    },
    {
      "scriptpubkey": "a914bc4724e24d76ceea526ea1a9f2c1ffb15d94a33d87",
      "scriptpubkey_asm": "OP_HASH160 OP_PUSHBYTES_20 bc4724e24d76ceea526ea1a9f2c1ffb15d94a33d OP_EQUAL",
      "scriptpubkey_type": "p2sh",
      "scriptpubkey_address": "3JrYBnVG14KmT29rpxbmtnMBGuJ4y7HBAs",
      "value": 695
    }
  ],
  "size": 195,
  "weight": 573,
  "fee": 1557,
  "status": {
    "confirmed": true,
    "block_height": 834464,
    "block_hash": "0000000000000000000177a0869a911a2b65c9bdcd5a8bcb02b68f305bee848e",
    "block_time": 1710308296
  },
  "hex": "01000000000101b86e881ef69373d6079c4554804b00dcadbf38968ce3e6fbafe670ec12c3889c0000000000ffffffff02bc0a000000000000225120ab182acc31085512247c485d9c87b70c033de283c9dd61a4f989c5be6b50d442b70200000000000017a914bc4724e24d76ceea526ea1a9f2c1ffb15d94a33d8701417a81b614334dd7b896a2a6a73b389a58e9b00ef19e2c2b941bf7429dd3c450be9e31998269ea07a9052accfc61ee9f1e860c91bcfc90596b45b67384bdc85b830100000000"
}