{
  "txid": "91841aff383692268b6e6e8dd4db468b193980f06a11a674593ced444c5f092b",
  "version": 2,
  "locktime": 0,
  "vin": [
    {
      "txid": "721507c34872e849c2bff649a13c0fac62860c8d11835c294d8a13317308db18",
      "vout": 1,
      "prevout": {
        "scriptpubkey": "a914c405be2ec2685d0bbb27dad866ae5701f06ce5f087",
        "scriptpubkey_asm": "OP_HASH160 OP_PUSHBYTES_20 c405be2ec2685d0bbb27dad866ae5701f06ce5f0 OP_EQUAL",
        "scriptpubkey_type": "p2sh",
        "scriptpubkey_address": "3KZVFAbbPGQeJaNsXwZLVnoL6GjdBYJJRP",
        "value": 42698
      },
      "scriptsig": "160014cfeefdae0ac5da7764901cb6fa82bfe6272d950d",
      "scriptsig_asm": "OP_PUSHBYTES_22 0014cfeefdae0ac5da7764901cb6fa82bfe6272d950d",
      "witness": [
        "30440220626fa0ec6bc7892e5e1e16a2658eea713b614b55030e84c0489c926eddd45155022062a0724a3090f77d5394dfc592affa4eacc88d30be7c0c6ccec4392465d05afc01",
        "02224394425ac8f50dfebc28934ae14eae2de0fc5e795f4b7c97a1d43b520fbb9c"
      ],
      "is_coinbase": false,
      "sequence": 4294967293,
      "inner_redeemscript_asm": "OP_0 OP_PUSHBYTES_20 cfeefdae0ac5da7764901cb6fa82bfe6272d950d"
    },
    {
      "txid": "c1059fff9af75dab4d1dfb2bbc494fb1f8a9c6451545d955c482e4b075c9ff4c",
      "vout": 1,
      "prevout": {
        "scriptpubkey": "a914c405be2ec2685d0bbb27dad866ae5701f06ce5f087",
        "scriptpubkey_asm": "OP_HASH160 OP_PUSHBYTES_20 c405be2ec2685d0bbb27dad866ae5701f06ce5f0 OP_EQUAL",
        "scriptpubkey_type": "p2sh",
        "scriptpubkey_address": "3KZVFAbbPGQeJaNsXwZLVnoL6GjdBYJJRP",
        "value": 53451
      },
      "scriptsig": "160014cfeefdae0ac5da7764901cb6fa82bfe6272d950d",
      "scriptsig_asm": "OP_PUSHBYTES_22 0014cfeefdae0ac5da7764901cb6fa82bfe6272d950d",
      "witness": [
        "304402203af811e5984b7236e7627f06cf36a92d342edc8f4fe93af1398448dfa02bee1902207413ad98631419568d374998b4e9ab7ef1ce9d2cd3c87bbe689512aa109c46fb01",
        "02224394425ac8f50dfebc28934ae14eae2de0fc5e795f4b7c97a1d43b520fbb9c"
      ],
      "is_coinbase": false,
      "sequence": 4294967293,
      "inner_redeemscript_asm": "OP_0 OP_PUSHBYTES_20 cfeefdae0ac5da7764901cb6fa82bfe6272d950d"
    }
  ],
  "vout": [
    {
      "scriptpubkey": "5120175d515c35577834ad0689fc3c8846283bf4310b7dcbc62fa41089eca7dec029",
      "scriptpubkey_asm": "OP_PUSHNUM_1 OP_PUSHBYTES_32 175d515c35577834ad0689fc3c8846283bf4310b7dcbc62fa41089eca7dec029",
      "scriptpubkey_type": "v1_p2tr",
      "scriptpubkey_address": "bc1pzaw4zhp42aurftgx387rezzx9qalgvgt0h9uvtayzzy7ef77cq5s69sjt9",
      "value": 92137
    }
  ],
  "size": 397,
  "weight": 940,
  "fee": 4012,
  "status": {
    "confirmed": true,
    "block_height": 834638,
    "block_hash": "000000000000000000025f742c626208ac87e0b7d15054abb4a19ca2d735a54e",
    "block_time": 1710405325
  },
  "hex": "0200000000010218db087331138a4d295c83118d0c8662ac0f3ca149f6bfc249e87248c30715720100000017160014cfeefdae0ac5da7764901cb6fa82bfe6272d950dfdffffff4cffc975b0e482c455d9451545c6a9f8b14f49bc2bfb1d4dab5df79aff9f05c10100000017160014cfeefdae0ac5da7764901cb6fa82bfe6272d950dfdffffff01e967010000000000225120175d515c35577834ad0689fc3c8846283bf4310b7dcbc62fa41089eca7dec029024730440220626fa0ec6bc7892e5e1e16a2658eea713b614b55030e84c0489c926eddd45155022062a0724a3090f77d5394dfc592affa4eacc88d30be7c0c6ccec4392465d05afc012102224394425ac8f50dfebc28934ae14eae2de0fc5e795f4b7c97a1d43b520fbb9c0247304402203af811e5984b7236e7627f06cf36a92d342edc8f4fe93af1398448dfa02bee1902207413ad98631419568d374998b4e9ab7ef1ce9d2cd3c87bbe689512aa109c46fb012102224394425ac8f50dfebc28934ae14eae2de0fc5e795f4b7c97a1d43b520fbb9c00000000"
}