{
  "txid": "91a2f03502d4fb54854bb4a85ddcd4724e4caf0545ec2dd7103bc9ee001ac49e",
  "version": 2,
  "locktime": 834637,
  "vin": [
    {
      "txid": "6f9558627aa174d26b5c33d38cd7972fd1fcd7050313bce8503aa9ab62e8ba95",
      "vout": 1,
      "prevout": {
        "scriptpubkey": "00149aafdf6be7da645bdefe869b2a75a627c082bf54",
        "scriptpubkey_asm": "OP_0 OP_PUSHBYTES_20 9aafdf6be7da645bdefe869b2a75a627c082bf54",
        "scriptpubkey_type": "v0_p2wpkh",
        "scriptpubkey_address": "bc1qn2ha76l8mfj9hhh7s6dj5adxylqg90658ymnsh",
        "value": 152698731
      },
      "scriptsig": "",
      "scriptsig_asm": "",
      "witness": [
        "30440220549751f8d3b01bbe07219ee4f9ee895a9c28e1bc9ebd4e86e7b362983adc4a83022050c3b6b27e42e437923b93268892d1a82224267fd24d518a169582a3263552cd01",
        "0220165688cc2ff96803b00bc89fd23a607e2c08fee7239d68c269c1b0c94d764c"
      ],
      "is_coinbase": false,
      "sequence": 4294967293
    }
  ],
  "vout": [
    {
      "scriptpubkey": "0014704bd690b433571f2e9d9a590477fa09ba6ca587",
      "scriptpubkey_asm": "OP_0 OP_PUSHBYTES_20 704bd690b433571f2e9d9a590477fa09ba6ca587",
      "scriptpubkey_type": "v0_p2wpkh",
      "scriptpubkey_address": "bc1qwp9ady95xdt37t5anfvsgal6pxaxefv8xj4d4v",
      "value": 311780
    },
    {
      "scriptpubkey": "00146597bf374d9d96179cbde929c8e902a887686b30",
      "scriptpubkey_asm": "OP_0 OP_PUSHBYTES_20 6597bf374d9d96179cbde929c8e902a887686b30",
      "scriptpubkey_type": "v0_p2wpkh",
      "scriptpubkey_address": "bc1qvktm7d6dnktp089aay5u36gz4zrks6eseauw3w",
      "value": 152383140
    }
  ],
  "size": 222,
  "weight": 561,
  "fee": 3811,
  "status": {
    "confirmed": true,
    "block_height": 834638,
    "block_hash": "000000000000000000025f742c626208ac87e0b7d15054abb4a19ca2d735a54e",
    "block_time": 1710405325
  },
  "hex": "0200000000010195bae862aba93a50e8bc130305d7fcd12f97d78cd3335c6bd274a17a6258956f0100000000fdffffff02e4c1040000000000160014704bd690b433571f2e9d9a590477fa09ba6ca587a42e1509000000001600146597bf374d9d96179cbde929c8e902a887686b30024730440220549751f8d3b01bbe07219ee4f9ee895a9c28e1bc9ebd4e86e7b362983adc4a83022050c3b6b27e42e437923b93268892d1a82224267fd24d518a169582a3263552cd01210220165688cc2ff96803b00bc89fd23a607e2c08fee7239d68c269c1b0c94d764c4dbc0c00"
}