{
  "txid": "91ad77f3dcdc62bdf81d147ea6bc03a1c48543c546f92612276358eec846ae70",
  "version": 2,
  "locktime": 0,
  "vin": [
    {
      "txid": "8a688ed2b74cda40548d4fe3f3c1740fb017f83bbcdaf985478eaab1365da4f8",
      "vout": 0,
      "prevout": {
        "scriptpubkey": "512047cd98481fbede3de1434d8f1816bc63416ec08edee4b55f32c3a58c77660303",
        "scriptpubkey_asm": "OP_PUSHNUM_1 OP_PUSHBYTES_32 47cd98481fbede3de1434d8f1816bc63416ec08edee4b55f32c3a58c77660303",
        "scriptpubkey_type": "v1_p2tr",
        "scriptpubkey_address": "bc1pglxesjqlhm0rmc2rfk83s94uvdqkasywmmjt2hejcwjccamxqvpsvhrh83",
        "value": 2646
      },
      "scriptsig": "",
      "scriptsig_asm": "",
      "witness": [
        "10da2efec819b7bfe5db19e22236572b62c303f26de09bbe37fd302579440b6759cd6a1b532bb5370712cc8f9ed3409cb7ef51bd37ca12621ea0d94844149211",
        "20938291955f3c6621d449f238736438d650e965c0f727c69ce10f227cb12c707eac0063036f7264010118746578742f706c61696e3b636861727365743d7574662d3800387b2270223a226272632d3230222c226f70223a227472616e73666572222c227469636b223a2273686e74222c22616d74223a22343536227d68",
        "c1938291955f3c6621d449f238736438d650e965c0f727c69ce10f227cb12c707e"
      ],
      "is_coinbase": false,
      "sequence": 4294967293
    }
  ],
  "vout": [
    {
      "scriptpubkey": "00149c477159161000d9922282bf95809890b518f720",
      "scriptpubkey_asm": "OP_0 OP_PUSHBYTES_20 9c477159161000d9922282bf95809890b518f720",
      "scriptpubkey_type": "v0_p2wpkh",
      "scriptpubkey_address": "bc1qn3rhzkgkzqqdny3zs2letqycjz633aeq3un2g6",
      "value": 546
    }
  ],
  "size": 311,
  "weight": 557,
  "fee": 2100,
  "status": {
    "confirmed": true,
    "block_height": 834460,
    "block_hash": "00000000000000000000484a79b643b2524bbce82e5d8a442013fa5b8905ed98",
    "block_time": 1710307468
  },
  "hex": "02000000000101f8a45d36b1aa8e4785f9dabc3bf817b00f74c1f3e34f8d5440da4cb7d28e688a0000000000fdffffff0122020000000000001600149c477159161000d9922282bf95809890b518f720034010da2efec819b7bfe5db19e22236572b62c303f26de09bbe37fd302579440b6759cd6a1b532bb5370712cc8f9ed3409cb7ef51bd37ca12621ea0d948441492117e20938291955f3c6621d449f238736438d650e965c0f727c69ce10f227cb12c707eac0063036f7264010118746578742f706c61696e3b636861727365743d7574662d3800387b2270223a226272632d3230222c226f70223a227472616e73666572222c227469636b223a2273686e74222c22616d74223a22343536227d6821c1938291955f3c6621d449f238736438d650e965c0f727c69ce10f227cb12c707e00000000"
}