{
  "txid": "91bba3a17be20c5687347a4614318c60880e9604b95cc37566dd1e05523e60e6",
  "version": 2,
  "locktime": 834637,
  "vin": [
    {
      "txid": "ea86ffbe68c9e6faa629693cf3b709cd80a197785707061d1cad0507637ff41b",
      "vout": 1,
      "prevout": {
        "scriptpubkey": "00147919c8666efdce2e6ffefbba280d3a0e8d5d922a",
        "scriptpubkey_asm": "OP_0 OP_PUSHBYTES_20 7919c8666efdce2e6ffefbba280d3a0e8d5d922a",
        "scriptpubkey_type": "v0_p2wpkh",
        "scriptpubkey_address": "bc1q0yvusenwlh8zuml7lwazsrf6p6x4my32lt9nz7",
        "value": 33664
      },
      "scriptsig": "",
      "scriptsig_asm": "",
      "witness": [
        "3044022036c861c066dd77818be24488b5ce075ef6f804a7895beab4149f7f1a0b2742c3022066270a672fadf9b8dd5e83d68c65f752d89e4275c6b67cf2d32518f70baec84c01",
        "023547f00a44b5585c67c5a3ca62b62bf7f8b2eb2881815f795afff8cdd3574564"
      ],
      "is_coinbase": false,
      "sequence": 4294967294
    }
  ],
  "vout": [
    {
      "scriptpubkey": "00142d42cc16c51e273effab83498c6ffc993dbbcc74",
      "scriptpubkey_asm": "OP_0 OP_PUSHBYTES_20 2d42cc16c51e273effab83498c6ffc993dbbcc74",
      "scriptpubkey_type": "v0_p2wpkh",
      "scriptpubkey_address": "bc1q94pvc9k9rcnnalatsdyccmluny7mhnr5yc6684",
      "value": 3919
    },
    {
      "scriptpubkey": "0014b1f737472f05192d1c341393fccddbcb21fc2984",
      "scriptpubkey_asm": "OP_0 OP_PUSHBYTES_20 b1f737472f05192d1c341393fccddbcb21fc2984",
      "scriptpubkey_type": "v0_p2wpkh",
      "scriptpubkey_address": "bc1qk8mnw3e0q5vj68p5zwflenwmevslc2vycfl7kk",
      "value": 27500
    }
  ],
  "size": 222,
  "weight": 561,
  "fee": 2245,
  "status": {
    "confirmed": true,
    "block_height": 834638,
    "block_hash": "000000000000000000025f742c626208ac87e0b7d15054abb4a19ca2d735a54e",
    "block_time": 1710405325
  },
  "hex": "020000000001011bf47f630705ad1c1d0607577897a180cd09b7f33c6929a6fae6c968beff86ea0100000000feffffff024f0f0000000000001600142d42cc16c51e273effab83498c6ffc993dbbcc746c6b000000000000160014b1f737472f05192d1c341393fccddbcb21fc298402473044022036c861c066dd77818be24488b5ce075ef6f804a7895beab4149f7f1a0b2742c3022066270a672fadf9b8dd5e83d68c65f752d89e4275c6b67cf2d32518f70baec84c0121023547f00a44b5585c67c5a3ca62b62bf7f8b2eb2881815f795afff8cdd35745644dbc0c00"
}