{
  "txid": "91bc2c1bb459941b49b6d28fe39e906fe00386a203a94b72f5a1c4960c10e36e",
  "version": 2,
  "locktime": 0,
  "vin": [
    {
      "txid": "acc3ba00869acb582a3f2904ce3a11dd3779350ce234063fc7d0959246213364",
      "vout": 193,
      "prevout": {
        "scriptpubkey": "51203129c9b99e6d30a1b4beef2c25f58d411cc7ce20ca091c5260bc64bdce86af18",
        "scriptpubkey_asm": "OP_PUSHNUM_1 OP_PUSHBYTES_32 3129c9b99e6d30a1b4beef2c25f58d411cc7ce20ca091c5260bc64bdce86af18",
        "scriptpubkey_type": "v1_p2tr",
        "scriptpubkey_address": "bc1pxy5unwv7d5c2rd97aukztavdgywv0n3qegy3c5nqh3jtmn5x4uvq4ltwnz",
        "value": 1806
      },
      "scriptsig": "",
      "scriptsig_asm": "",
      "witness": [
        "026ebee9b3e53816b992bc07be3f9c7f086624fe6093bf8ffa6c45413e8cc4a472938f57e3739c6f5e58cda2b1ec90b6192e54d51bf95cbe7bcb842330276c6b",
        "2035f25b168854e08df22ea29610163bd2052efbc6649632b5eb1b824eb72d1efcac0063036f726401010a746578742f706c61696e00357b2270223a226272632d3230222c226f70223a226d696e74222c227469636b223a22646f6765222c22616d74223a2234323030227d68",
        "c135f25b168854e08df22ea29610163bd2052efbc6649632b5eb1b824eb72d1efc"
      ],
      "is_coinbase": false,
      "sequence": 4261412863
    }
  ],
  "vout": [
    {
      "scriptpubkey": "00147a665de7a370f4c9b372ab1fae587500a5bcbdb4",
      "scriptpubkey_asm": "OP_0 OP_PUSHBYTES_20 7a665de7a370f4c9b372ab1fae587500a5bcbdb4",
      "scriptpubkey_type": "v0_p2wpkh",
      "scriptpubkey_address": "bc1q0fn9mearwr6vnvmj4v06ukr4qzjme0d565dzcx",
      "value": 294
    }
  ],
  "size": 294,
  "weight": 540,
  "fee": 1512,
  "status": {
    "confirmed": true,
    "block_height": 834460,
    "block_hash": "00000000000000000000484a79b643b2524bbce82e5d8a442013fa5b8905ed98",
    "block_time": 1710307468
  },
  "hex": "02000000000101643321469295d0c73f0634e20c357937dd113ace04293f2a58cb9a8600bac3acc100000000fffffffd0126010000000000001600147a665de7a370f4c9b372ab1fae587500a5bcbdb40340026ebee9b3e53816b992bc07be3f9c7f086624fe6093bf8ffa6c45413e8cc4a472938f57e3739c6f5e58cda2b1ec90b6192e54d51bf95cbe7bcb842330276c6b6d2035f25b168854e08df22ea29610163bd2052efbc6649632b5eb1b824eb72d1efcac0063036f726401010a746578742f706c61696e00357b2270223a226272632d3230222c226f70223a226d696e74222c227469636b223a22646f6765222c22616d74223a2234323030227d6821c135f25b168854e08df22ea29610163bd2052efbc6649632b5eb1b824eb72d1efc00000000"
}