{
  "txid": "91c023eff478100e94768b16a8c6b0c95a3d8abaa51e47117196c26064ad5a71",
  "version": 1,
  "locktime": 0,
  "vin": [
    {
      "txid": "1a82f3e26e86c7186acf3a5f4f17a113932d1bb948dd5385941c7ea139f75d04",
      "vout": 4,
      "prevout": {
        "scriptpubkey": "0014514f0df114d64841e4481a28f67b6bb5f8696fa4",
        "scriptpubkey_asm": "OP_0 OP_PUSHBYTES_20 514f0df114d64841e4481a28f67b6bb5f8696fa4",
        "scriptpubkey_type": "v0_p2wpkh",
        "scriptpubkey_address": "bc1q298smug56eyyrezgrg50v7mtkhuxjmaygyh3kw",
        "value": 1190256
      },
      "scriptsig": "",
      "scriptsig_asm": "",
      "witness": [
        "3045022100d0a9c0478de065a3936b7231ccbc75c650c2be47f18f90d53e168f8690216b6602205e8f12c88df235f004a2a39fa4ff499ad73901f99cf7b1f62ca13d102e82e0b901",
        "0235ec336be241493f1c34db3d834f06ad5655c1eb0fc262bb6163d09690b4e5e3"
      ],
      "is_coinbase": false,
      "sequence": 4294967295
    }
  ],
  "vout": [
    {
      "scriptpubkey": "76a91459780080d1b9c7e8882a799f961b98ec07a041a488ac",
      "scriptpubkey_asm": "OP_DUP OP_HASH160 OP_PUSHBYTES_20 59780080d1b9c7e8882a799f961b98ec07a041a4 OP_EQUALVERIFY OP_CHECKSIG",
      "scriptpubkey_type": "p2pkh",
      "scriptpubkey_address": "19A4txRpA8HHvnmz1EReiwqzQDA1xvqjEh",
      "value": 68082
    },
    {
      "scriptpubkey": "0014514f0df114d64841e4481a28f67b6bb5f8696fa4",
      "scriptpubkey_asm": "OP_0 OP_PUSHBYTES_20 514f0df114d64841e4481a28f67b6bb5f8696fa4",
      "scriptpubkey_type": "v0_p2wpkh",
      "scriptpubkey_address": "bc1q298smug56eyyrezgrg50v7mtkhuxjmaygyh3kw",
      "value": 1118286
    }
  ],
  "size": 226,
  "weight": 574,
  "fee": 3888,
  "status": {
    "confirmed": true,
    "block_height": 834638,
    "block_hash": "000000000000000000025f742c626208ac87e0b7d15054abb4a19ca2d735a54e",
    "block_time": 1710405325
  },
  "hex": "01000000000101045df739a17e1c948553dd48b91b2d9313a1174f5f3acf6a18c7866ee2f3821a0400000000ffffffff02f2090100000000001976a91459780080d1b9c7e8882a799f961b98ec07a041a488ac4e10110000000000160014514f0df114d64841e4481a28f67b6bb5f8696fa402483045022100d0a9c0478de065a3936b7231ccbc75c650c2be47f18f90d53e168f8690216b6602205e8f12c88df235f004a2a39fa4ff499ad73901f99cf7b1f62ca13d102e82e0b901210235ec336be241493f1c34db3d834f06ad5655c1eb0fc262bb6163d09690b4e5e300000000"
}