{
  "txid": "91c44bbc37eb54b1717e2b2e4362746ceed5a25910fe3f4014556d1683de4855",
  "version": 2,
  "locktime": 0,
  "vin": [
    {
      "txid": "7ecc08350e64b4952b562f739f3e33e50b13b457ddecf1615322a3a191afcba9",
      "vout": 0,
      "prevout": {
        "scriptpubkey": "5120a500f4dada35963f196be694705835f11e40fca7a766b152f4b12459765e5537",
        "scriptpubkey_asm": "OP_PUSHNUM_1 OP_PUSHBYTES_32 a500f4dada35963f196be694705835f11e40fca7a766b152f4b12459765e5537",
        "scriptpubkey_type": "v1_p2tr",
        "scriptpubkey_address": "bc1p55q0fkk6xktr7xttu628qkp47y0ypl985antz5h5kyj9jaj725msfmms8j",
        "value": 5000
      },
      "scriptsig": "",
      "scriptsig_asm": "",
      "witness": [
        "ee0b511baed17eb7cc5988c8a2fdbaa68fa58d92fccb059a9f662a2c1a7212aa2829e5943ed694c7c5977fed6336e512a6d1190b63669b15832af13524378826",
        "2022c9c380d59ac24dddef460dba9eb3c15ec392dc711e3af3cc10b10be2321ff8ac0063036f7264010118746578742f706c61696e3b636861727365743d7574662d38003a7b2270223a226272632d3230222c226f70223a227472616e73666572222c227469636b223a2274736878222c22616d74223a223130303030227d68",
        "c03840d29d51e8fb5af3bc38742d78d58314d06602926f62535f29793a4f291650"
      ],
      "is_coinbase": false,
      "sequence": 4294967293
    }
  ],
  "vout": [
    {
      "scriptpubkey": "51205be79b860024d8a4fc41f09b9a892ab0dd1872000868754fd5725049520df73c",
      "scriptpubkey_asm": "OP_PUSHNUM_1 OP_PUSHBYTES_32 5be79b860024d8a4fc41f09b9a892ab0dd1872000868754fd5725049520df73c",
      "scriptpubkey_type": "v1_p2tr",
      "scriptpubkey_address": "bc1pt0nehpsqynv2flzp7zde4zf2krw3susqpp582n74wfgyj5sd7u7q952fqk",
      "value": 330
    },
    {
      "scriptpubkey": "0014acef21cc912f1f4dd68a10a8277f9b75480ae9e4",
      "scriptpubkey_asm": "OP_0 OP_PUSHBYTES_20 acef21cc912f1f4dd68a10a8277f9b75480ae9e4",
      "scriptpubkey_type": "v0_p2wpkh",
      "scriptpubkey_address": "bc1q4nhjrny39u05m452zz5zwlumw4yq460yftyevx",
      "value": 1925
    }
  ],
  "size": 356,
  "weight": 731,
  "fee": 2745,
  "status": {
    "confirmed": true,
    "block_height": 834638,
    "block_hash": "000000000000000000025f742c626208ac87e0b7d15054abb4a19ca2d735a54e",
    "block_time": 1710405325
  },
  "hex": "02000000000101a9cbaf91a1a3225361f1ecdd57b4130be5333e9f732f562b95b4640e3508cc7e0000000000fdffffff024a010000000000002251205be79b860024d8a4fc41f09b9a892ab0dd1872000868754fd5725049520df73c8507000000000000160014acef21cc912f1f4dd68a10a8277f9b75480ae9e40340ee0b511baed17eb7cc5988c8a2fdbaa68fa58d92fccb059a9f662a2c1a7212aa2829e5943ed694c7c5977fed6336e512a6d1190b63669b15832af13524378826802022c9c380d59ac24dddef460dba9eb3c15ec392dc711e3af3cc10b10be2321ff8ac0063036f7264010118746578742f706c61696e3b636861727365743d7574662d38003a7b2270223a226272632d3230222c226f70223a227472616e73666572222c227469636b223a2274736878222c22616d74223a223130303030227d6821c03840d29d51e8fb5af3bc38742d78d58314d06602926f62535f29793a4f29165000000000"
}