{
  "txid": "91c6d2c8760a90ac611e770005db3c1cdda6e2be72ec6ca8a6419b28d73b4b56",
  "version": 2,
  "locktime": 0,
  "vin": [
    {
      "txid": "d82a45a4c03f121064610ea27e7bdc678b43b7018ea2e3669577fbbcfd743e64",
      "vout": 2,
      "prevout": {
        "scriptpubkey": "00143ef08ab4e879df454eff0e93ca901f959d786946",
        "scriptpubkey_asm": "OP_0 OP_PUSHBYTES_20 3ef08ab4e879df454eff0e93ca901f959d786946",
        "scriptpubkey_type": "v0_p2wpkh",
        "scriptpubkey_address": "bc1q8mcg4d8g08052nhlp6fu4yqljkwhs62xymhcpr",
        "value": 94000
      },
      "scriptsig": "",
      "scriptsig_asm": "",
      "witness": [
        "3044022034b33d61d1164fe7bca85293e073afe0be5ea204ce3c29fabd8286f81d365cc902206f5a6c06b996fc9539b01b78989405f6f4d591a614ace328549e6c5b20a83f3001",
        "02cab72711cba364b127e261522e6c873ebb6b571439af2f7a0e615b6b59b67296"
      ],
      "is_coinbase": false,
      "sequence": 4294967293
    }
  ],
  "vout": [
    {
      "scriptpubkey": "5120cc789e9232269e422df940756890828332f9b4f07e42fd01b738fcc59f703823",
      "scriptpubkey_asm": "OP_PUSHNUM_1 OP_PUSHBYTES_32 cc789e9232269e422df940756890828332f9b4f07e42fd01b738fcc59f703823",
      "scriptpubkey_type": "v1_p2tr",
      "scriptpubkey_address": "bc1pe3ufay3jy60yyt0egp6k3yyzsve0nd8s0ep06qdh8r7vt8ms8q3snj57tp",
      "value": 2960
    },
    {
      "scriptpubkey": "00143ef08ab4e879df454eff0e93ca901f959d786946",
      "scriptpubkey_asm": "OP_0 OP_PUSHBYTES_20 3ef08ab4e879df454eff0e93ca901f959d786946",
      "scriptpubkey_type": "v0_p2wpkh",
      "scriptpubkey_address": "bc1q8mcg4d8g08052nhlp6fu4yqljkwhs62xymhcpr",
      "value": 88439
    }
  ],
  "size": 234,
  "weight": 609,
  "fee": 2601,
  "status": {
    "confirmed": true,
    "block_height": 834638,
    "block_hash": "000000000000000000025f742c626208ac87e0b7d15054abb4a19ca2d735a54e",
    "block_time": 1710405325
  },
  "hex": "02000000000101643e74fdbcfb779566e3a28e01b7438b67dc7b7ea20e616410123fc0a4452ad80200000000fdffffff02900b000000000000225120cc789e9232269e422df940756890828332f9b4f07e42fd01b738fcc59f70382377590100000000001600143ef08ab4e879df454eff0e93ca901f959d78694602473044022034b33d61d1164fe7bca85293e073afe0be5ea204ce3c29fabd8286f81d365cc902206f5a6c06b996fc9539b01b78989405f6f4d591a614ace328549e6c5b20a83f30012102cab72711cba364b127e261522e6c873ebb6b571439af2f7a0e615b6b59b6729600000000"
}