{
  "txid": "91d677a0fb9060e510b0d174829cc12222035e41022b96103a7424ca3ce710c5",
  "version": 2,
  "locktime": 834459,
  "vin": [
    {
      "txid": "c4f70cbc429fedca9d41ac197f0ff132535f73ab34e3eb5d033c94be09e0dca3",
      "vout": 1,
      "prevout": {
        "scriptpubkey": "00149e06472ac41a2e83670c51e3d445c4e9726a0071",
        "scriptpubkey_asm": "OP_0 OP_PUSHBYTES_20 9e06472ac41a2e83670c51e3d445c4e9726a0071",
        "scriptpubkey_type": "v0_p2wpkh",
        "scriptpubkey_address": "bc1qncryw2kyrghgxecv283ag3wya9ex5qr35nmhm5",
        "value": 692400
      },
      "scriptsig": "",
      "scriptsig_asm": "",
      "witness": [
        "3044022000fc6b044a4e5fd2b5c1d42d4bc41380e7e32fe71a74e0c971b530ed8f59bfc502203d4fb3872655d568461db00777ff75e3da7d2cab9760b6245aa4491e825f1ad901",
        "026b7d5dbfd785f68d5c18c4e15b78f8fe0d0c754d4e4cea6cd15e1d68ce39c1b7"
      ],
      "is_coinbase": false,
      "sequence": 4294967293
    }
  ],
  "vout": [
    {
      "scriptpubkey": "00145a36d8b833bf750bda6c23ba1d2d0319ee147daf",
      "scriptpubkey_asm": "OP_0 OP_PUSHBYTES_20 5a36d8b833bf750bda6c23ba1d2d0319ee147daf",
      "scriptpubkey_type": "v0_p2wpkh",
      "scriptpubkey_address": "bc1qtgmd3wpnha6shknvywap6tgrr8hpgld0fm6vd5",
      "value": 69812
    },
    {
      "scriptpubkey": "00145c604e5e94d40043d0b3767cd5bfddc5259c6113",
      "scriptpubkey_asm": "OP_0 OP_PUSHBYTES_20 5c604e5e94d40043d0b3767cd5bfddc5259c6113",
      "scriptpubkey_type": "v0_p2wpkh",
      "scriptpubkey_address": "bc1qt3syuh556sqy859nwe7dt07ac5jeccgnaey48l",
      "value": 618781
    }
  ],
  "size": 222,
  "weight": 561,
  "fee": 3807,
  "status": {
    "confirmed": true,
    "block_height": 834460,
    "block_hash": "00000000000000000000484a79b643b2524bbce82e5d8a442013fa5b8905ed98",
    "block_time": 1710307468
  },
  "hex": "02000000000101a3dce009be943c035debe334ab735f5332f10f7f19ac419dcaed9f42bc0cf7c40100000000fdffffff02b4100100000000001600145a36d8b833bf750bda6c23ba1d2d0319ee147daf1d710900000000001600145c604e5e94d40043d0b3767cd5bfddc5259c611302473044022000fc6b044a4e5fd2b5c1d42d4bc41380e7e32fe71a74e0c971b530ed8f59bfc502203d4fb3872655d568461db00777ff75e3da7d2cab9760b6245aa4491e825f1ad90121026b7d5dbfd785f68d5c18c4e15b78f8fe0d0c754d4e4cea6cd15e1d68ce39c1b79bbb0c00"
}