{
  "txid": "91dcfb839003e14412e5aa90a8f5220b66678b1e0fd8f2ff7656f1f2e025ae5d",
  "version": 1,
  "locktime": 0,
  "vin": [
    {
      "txid": "b2c9f4f8112fcf83ec20172a901cdf657f58b5a17a432186b57e1d578badd8d1",
      "vout": 1,
      "prevout": {
        "scriptpubkey": "76a9149e303e41190f54513fe021e2f3ff92ebbf1f832888ac",
        "scriptpubkey_asm": "OP_DUP OP_HASH160 OP_PUSHBYTES_20 9e303e41190f54513fe021e2f3ff92ebbf1f8328 OP_EQUALVERIFY OP_CHECKSIG",
        "scriptpubkey_type": "p2pkh",
        "scriptpubkey_address": "1FRRZJeEwyt9e9pQGdvnEpnpjxvWduTRSj",
        "value": 35821
      },
      "scriptsig": "483045022100e965c745db241e7501af3906fbf0cc6a243e0298cd3ecb40165a9cebefc22e2a02207a448f282e93b8a512202f4fd43d14e0f87749861018c7d5f78618ac274c4cc50121039d487e850e243c7b74161f604435a29831df493034de159a4a32765533d98558",
      "scriptsig_asm": "OP_PUSHBYTES_72 3045022100e965c745db241e7501af3906fbf0cc6a243e0298cd3ecb40165a9cebefc22e2a02207a448f282e93b8a512202f4fd43d14e0f87749861018c7d5f78618ac274c4cc501 OP_PUSHBYTES_33 039d487e850e243c7b74161f604435a29831df493034de159a4a32765533d98558",
      "is_coinbase": false,
      "sequence": 4294967295
    },
    {
      "txid": "a734670975f2c30cc2b328d75612ac93c74186a7e168a240bd6341a05a08fa95",
      "vout": 1,
      "prevout": {
        "scriptpubkey": "76a9147efa20afea7f7ffaa268c5203edec8dbce16c88388ac",
        "scriptpubkey_asm": "OP_DUP OP_HASH160 OP_PUSHBYTES_20 7efa20afea7f7ffaa268c5203edec8dbce16c883 OP_EQUALVERIFY OP_CHECKSIG",
        "scriptpubkey_type": "p2pkh",
        "scriptpubkey_address": "1CaPnM7gPUzE1LLsQNjjSfd4wccHt43xSA",
        "value": 63008
      },
      "scriptsig": "483045022100ea439c482e27af532c343c400d1a1d20060d6ca9e30e64a6defd929cc7de01390220536a06d53fbe6e2f4fc8c77fb843a69da1d366609128c810b3592f7632db959d012102943393e6c62bb29332bb18ada80aef27068322be24ea1f0f4affa69e29f0948a",
      "scriptsig_asm": "OP_PUSHBYTES_72 3045022100ea439c482e27af532c343c400d1a1d20060d6ca9e30e64a6defd929cc7de01390220536a06d53fbe6e2f4fc8c77fb843a69da1d366609128c810b3592f7632db959d01 OP_PUSHBYTES_33 02943393e6c62bb29332bb18ada80aef27068322be24ea1f0f4affa69e29f0948a",
      "is_coinbase": false,
      "sequence": 4294967295
    },
    {
      "txid": "a5d6c521b463e798496afc97551d22d395d2e55407bbaa1420b9bddbed578fa9",
      "vout": 1,
      "prevout": {
        "scriptpubkey": "76a914529983197219dfb20cd0fe18b54b05a8ef97eff988ac",
        "scriptpubkey_asm": "OP_DUP OP_HASH160 OP_PUSHBYTES_20 529983197219dfb20cd0fe18b54b05a8ef97eff9 OP_EQUALVERIFY OP_CHECKSIG",
        "scriptpubkey_type": "p2pkh",
        "scriptpubkey_address": "18XkJwRNxgVXoDQmsuWBfRrLaSNrFFD2Tk",
        "value": 69562
      },
      "scriptsig": "483045022100c6a6dcfde5706693df64ef646fe5a816372dd6937fac9226e9b771eaa675f0e80220016b09348d42f66a4e50b66a3085edc132acc0d09e19bfb0f98774906cf82547012103444681cb107db4e0876c5ff311800f4e5f04b7d962d3550c531c50f94245f84e",
      "scriptsig_asm": "OP_PUSHBYTES_72 3045022100c6a6dcfde5706693df64ef646fe5a816372dd6937fac9226e9b771eaa675f0e80220016b09348d42f66a4e50b66a3085edc132acc0d09e19bfb0f98774906cf8254701 OP_PUSHBYTES_33 03444681cb107db4e0876c5ff311800f4e5f04b7d962d3550c531c50f94245f84e",
      "is_coinbase": false,
      "sequence": 4294967295
    }
  ],
  "vout": [
    {
      "scriptpubkey": "76a91475391fd1c19e99e01f250c3157ad61302d8cf7b188ac",
      "scriptpubkey_asm": "OP_DUP OP_HASH160 OP_PUSHBYTES_20 75391fd1c19e99e01f250c3157ad61302d8cf7b1 OP_EQUALVERIFY OP_CHECKSIG",
      "scriptpubkey_type": "p2pkh",
      "scriptpubkey_address": "1BgpVWZgUyJVivgtFeBBpVgo8FHupYaVrC",
      "value": 136065
    },
    {
      "scriptpubkey": "76a914623504a4cdf9f675c5b3edc88e1419f9308fc00c88ac",
      "scriptpubkey_asm": "OP_DUP OP_HASH160 OP_PUSHBYTES_20 623504a4cdf9f675c5b3edc88e1419f9308fc00c OP_EQUALVERIFY OP_CHECKSIG",
      "scriptpubkey_type": "p2pkh",
      "scriptpubkey_address": "19xGjZjLZHAfbqHBFobsvWNhzB9Z5kfATR",
      "value": 14578
    }
  ],
  "size": 522,
  "weight": 2088,
  "fee": 17748,
  "status": {
    "confirmed": true,
    "block_height": 834638,
    "block_hash": "000000000000000000025f742c626208ac87e0b7d15054abb4a19ca2d735a54e",
    "block_time": 1710405325
  },
  "hex": "0100000003d1d8ad8b571d7eb58621437aa1b5587f65df1c902a1720ec83cf2f11f8f4c9b2010000006b483045022100e965c745db241e7501af3906fbf0cc6a243e0298cd3ecb40165a9cebefc22e2a02207a448f282e93b8a512202f4fd43d14e0f87749861018c7d5f78618ac274c4cc50121039d487e850e243c7b74161f604435a29831df493034de159a4a32765533d98558ffffffff95fa085aa04163bd40a268e1a78641c793ac1256d728b3c20cc3f275096734a7010000006b483045022100ea439c482e27af532c343c400d1a1d20060d6ca9e30e64a6defd929cc7de01390220536a06d53fbe6e2f4fc8c77fb843a69da1d366609128c810b3592f7632db959d012102943393e6c62bb29332bb18ada80aef27068322be24ea1f0f4affa69e29f0948affffffffa98f57eddbbdb92014aabb0754e5d295d3221d5597fc6a4998e763b421c5d6a5010000006b483045022100c6a6dcfde5706693df64ef646fe5a816372dd6937fac9226e9b771eaa675f0e80220016b09348d42f66a4e50b66a3085edc132acc0d09e19bfb0f98774906cf82547012103444681cb107db4e0876c5ff311800f4e5f04b7d962d3550c531c50f94245f84effffffff0281130200000000001976a91475391fd1c19e99e01f250c3157ad61302d8cf7b188acf2380000000000001976a914623504a4cdf9f675c5b3edc88e1419f9308fc00c88ac00000000"
}