{
  "txid": "91f512a6372949ef37fee9f44b9ec329c6d5f65dec5ae6c6241e599caf118888",
  "version": 2,
  "locktime": 0,
  "vin": [
    {
      "txid": "0297933275e9b87a592b5fe50eac2574def18b5ac071aa88b863986e7db5e3d6",
      "vout": 2,
      "prevout": {
        "scriptpubkey": "51206faf264fa08411627672f7ce62454ad5a8b6b590c5471679edce4e23b85e479e",
        "scriptpubkey_asm": "OP_PUSHNUM_1 OP_PUSHBYTES_32 6faf264fa08411627672f7ce62454ad5a8b6b590c5471679edce4e23b85e479e",
        "scriptpubkey_type": "v1_p2tr",
        "scriptpubkey_address": "bc1pd7hjvnaqssgkyanj7l8xy3226k5tddvsc4r3v70dee8z8wz7g70qtzg7dw",
        "value": 3186
      },
      "scriptsig": "",
      "scriptsig_asm": "",
      "witness": [
        "fa2b8396041b724d4e7fe4ecca5e28b4ecebffcd046f7ef13ce9ce3b188d6f81ac4596f8f161933609c0f492081412e8a6643222a0c59269b69b9466cefbf39e",
        "2060008877fcfdf2cff418dcc9571a1240ae643a8ad3d3132c386a62d2aa2955c9ac0063036f726401011e6170706c69636174696f6e2f6a736f6e3b636861727365743d7574662d38004cbf7b2270223a22706f772d3230222c226f70223a226d696e74222c227469636b223a2250455045222c22616d74223a2231303030222c22736f6c7574696f6e223a22504550453a6263317171633839726a7563797a776c77786d7761646c7763797139353668726e726b6a6833637361723a303030303030303030303030303030303030303139393431613561653132383937363539383134343239323533333030353762306461393666336465613163353a3638343237303638353638227d68",
        "c0ebc23c5cb62efa16bafbb201dcb9689a89d3be5df33e83929d6fd8751a90bb42"
      ],
      "is_coinbase": false,
      "sequence": 4294967295
    }
  ],
  "vout": [
    {
      "scriptpubkey": "0014060e51cb98209df71b6eeb7eec1005a6ae398ed2",
      "scriptpubkey_asm": "OP_0 OP_PUSHBYTES_20 060e51cb98209df71b6eeb7eec1005a6ae398ed2",
      "scriptpubkey_type": "v0_p2wpkh",
      "scriptpubkey_address": "bc1qqc89rjucyzwlwxmwadlwcyq956hrnrkjh3csar",
      "value": 546
    }
  ],
  "size": 455,
  "weight": 701,
  "fee": 2640,
  "status": {
    "confirmed": true,
    "block_height": 834460,
    "block_hash": "00000000000000000000484a79b643b2524bbce82e5d8a442013fa5b8905ed98",
    "block_time": 1710307468
  },
  "hex": "02000000000101d6e3b57d6e9863b888aa71c05a8bf1de7425ac0ee55f2b597ab8e975329397020200000000ffffffff012202000000000000160014060e51cb98209df71b6eeb7eec1005a6ae398ed20340fa2b8396041b724d4e7fe4ecca5e28b4ecebffcd046f7ef13ce9ce3b188d6f81ac4596f8f161933609c0f492081412e8a6643222a0c59269b69b9466cefbf39efd0c012060008877fcfdf2cff418dcc9571a1240ae643a8ad3d3132c386a62d2aa2955c9ac0063036f726401011e6170706c69636174696f6e2f6a736f6e3b636861727365743d7574662d38004cbf7b2270223a22706f772d3230222c226f70223a226d696e74222c227469636b223a2250455045222c22616d74223a2231303030222c22736f6c7574696f6e223a22504550453a6263317171633839726a7563797a776c77786d7761646c7763797139353668726e726b6a6833637361723a303030303030303030303030303030303030303139393431613561653132383937363539383134343239323533333030353762306461393666336465613163353a3638343237303638353638227d6821c0ebc23c5cb62efa16bafbb201dcb9689a89d3be5df33e83929d6fd8751a90bb4200000000"
}