{
  "txid": "92018026d521ced65ea9bf282b6d1dbee8f72ab32cb8b12b7fa515bda4be60e8",
  "version": 2,
  "locktime": 834442,
  "vin": [
    {
      "txid": "d29888912618fb50ee1f17a6968465b3f5c3ed02f1886168f5506654d275a228",
      "vout": 3,
      "prevout": {
        "scriptpubkey": "0014641254f29800ae75d7aa036777d01370f0f82148",
        "scriptpubkey_asm": "OP_0 OP_PUSHBYTES_20 641254f29800ae75d7aa036777d01370f0f82148",
        "scriptpubkey_type": "v0_p2wpkh",
        "scriptpubkey_address": "bc1qvsf9fu5cqzh8t4a2qdnh05qnwrc0sg2gcuj6vp",
        "value": 100000
      },
      "scriptsig": "",
      "scriptsig_asm": "",
      "witness": [
        "30440220338ab1dfdf5efa205855430eb2fc982135ec384df2fcb855ae6f565c5ef4cb1d0220527cba95970729b440979e40266bf9d16702225a36bdce0f1b4ddc9e7574574c01",
        "03cf321b8b9a22458212974019275243e9a93dd4a20ed880b15ccce2d4610207e2"
      ],
      "is_coinbase": false,
      "sequence": 4294967293
    }
  ],
  "vout": [
    {
      "scriptpubkey": "0014a4d392d39a8c10b14c19b5198e837e999da9021a",
      "scriptpubkey_asm": "OP_0 OP_PUSHBYTES_20 a4d392d39a8c10b14c19b5198e837e999da9021a",
      "scriptpubkey_type": "v0_p2wpkh",
      "scriptpubkey_address": "bc1q5nfe95u63sgtznqek5vcaqm7nxw6jqs6f934yw",
      "value": 98700
    }
  ],
  "size": 191,
  "weight": 437,
  "fee": 1300,
  "status": {
    "confirmed": true,
    "block_height": 834460,
    "block_hash": "00000000000000000000484a79b643b2524bbce82e5d8a442013fa5b8905ed98",
    "block_time": 1710307468
  },
  "hex": "0200000000010128a275d2546650f5686188f102edc3f5b3658496a6171fee50fb1826918898d20300000000fdffffff018c81010000000000160014a4d392d39a8c10b14c19b5198e837e999da9021a024730440220338ab1dfdf5efa205855430eb2fc982135ec384df2fcb855ae6f565c5ef4cb1d0220527cba95970729b440979e40266bf9d16702225a36bdce0f1b4ddc9e7574574c012103cf321b8b9a22458212974019275243e9a93dd4a20ed880b15ccce2d4610207e28abb0c00"
}