{
  "txid": "9202ac89a242769a93b799d05ea95b49805762144adbdfa086c76024a552cd3e",
  "version": 2,
  "locktime": 834551,
  "vin": [
    {
      "txid": "0ac4a5aba8a019870a6c9d970711be0861f1ccc6dc5ffc0a03269224c28c0314",
      "vout": 1,
      "prevout": {
        "scriptpubkey": "001419c9f5bb4304ea6a22da86f2798b62013fe47868",
        "scriptpubkey_asm": "OP_0 OP_PUSHBYTES_20 19c9f5bb4304ea6a22da86f2798b62013fe47868",
        "scriptpubkey_type": "v0_p2wpkh",
        "scriptpubkey_address": "bc1qr8yltw6rqn4x5gk6sme8nzmzqyl7g7rgm2cvzd",
        "value": 29697154
      },
      "scriptsig": "",
      "scriptsig_asm": "",
      "witness": [
        "3044022069293a141e584f89354a1358a0804b4e39c7b98f7cba3470e062de33cccce59f02203a35297c836df5e6371dfde393bfc53e362023903a0dab0161f9e5e449d9195c01",
        "0300d2ceff453b39176765794db57e3ee86fe6a39c77508d03824195c86239fe04"
      ],
      "is_coinbase": false,
      "sequence": 4294967293
    }
  ],
  "vout": [
    {
      "scriptpubkey": "0014352a38d7f0f04488bb20617107aeeb6f3228d369",
      "scriptpubkey_asm": "OP_0 OP_PUSHBYTES_20 352a38d7f0f04488bb20617107aeeb6f3228d369",
      "scriptpubkey_type": "v0_p2wpkh",
      "scriptpubkey_address": "bc1qx54r34ls7pzg3weqv9cs0thtduez35mfa0qy4d",
      "value": 2834630
    },
    {
      "scriptpubkey": "0014fa154d57635c24695e1f40aa5c2a1144da37d4d6",
      "scriptpubkey_asm": "OP_0 OP_PUSHBYTES_20 fa154d57635c24695e1f40aa5c2a1144da37d4d6",
      "scriptpubkey_type": "v0_p2wpkh",
      "scriptpubkey_address": "bc1qlg2564mrtsjxjhslgz49c2s3gndr04xkjsndnp",
      "value": 26595908
    },
    {
      "scriptpubkey": "a914e8f39df1b8fd86c7cdc99cab3509acffc15856cb87",
      "scriptpubkey_asm": "OP_HASH160 OP_PUSHBYTES_20 e8f39df1b8fd86c7cdc99cab3509acffc15856cb OP_EQUAL",
      "scriptpubkey_type": "p2sh",
      "scriptpubkey_address": "3NvkXrP5qJsoTHDBQtRb1x5WHkeEE5xFzg",
      "value": 263502
    }
  ],
  "size": 254,
  "weight": 689,
  "fee": 3114,
  "status": {
    "confirmed": true,
    "block_height": 834552,
    "block_hash": "00000000000000000001dd0468a70c94f619251d286585cff57aeb4bd9ede330",
    "block_time": 1710355598
  },
  "hex": "0200000000010114038cc2249226030afc5fdcc6ccf16108be1107979d6c0a8719a0a8aba5c40a0100000000fdffffff03c6402b0000000000160014352a38d7f0f04488bb20617107aeeb6f3228d36944d2950100000000160014fa154d57635c24695e1f40aa5c2a1144da37d4d64e0504000000000017a914e8f39df1b8fd86c7cdc99cab3509acffc15856cb8702473044022069293a141e584f89354a1358a0804b4e39c7b98f7cba3470e062de33cccce59f02203a35297c836df5e6371dfde393bfc53e362023903a0dab0161f9e5e449d9195c01210300d2ceff453b39176765794db57e3ee86fe6a39c77508d03824195c86239fe04f7bb0c00"
}