{
  "txid": "9207dae1e01abe402e5e0b37b418bbd46fac4c047aa1c0ec712e3a548681913f",
  "version": 2,
  "locktime": 0,
  "vin": [
    {
      "txid": "12848a1f84ad552475e874cce291926f292412de23b7537898e98c7370f2e86c",
      "vout": 9,
      "prevout": {
        "scriptpubkey": "512073501292001684ee059ba8b00c9e7dfe47f870b364c996684776705c466ac773",
        "scriptpubkey_asm": "OP_PUSHNUM_1 OP_PUSHBYTES_32 73501292001684ee059ba8b00c9e7dfe47f870b364c996684776705c466ac773",
        "scriptpubkey_type": "v1_p2tr",
        "scriptpubkey_address": "bc1pwdgp9ysqz6zwupvm4zcqe8nalerlsu9nvnyev6z8wec9c3n2caesw73lq5",
        "value": 2358
      },
      "scriptsig": "",
      "scriptsig_asm": "",
      "witness": [
        "4399e9ea9101f0bfb868b0d9282e319b4481ad70c0fa710d593bb02760194dc4686a0a9dca32b3e5e7115c59ef42594ff1746872b316a979d6bf6f05f6a526b1",
        "20df527f96f9c7825c87224a0ad956f76a521232b566a33a9efed556e01521547cac0063036f7264010118746578742f706c61696e3b636861727365743d7574662d3800377b2270223a226272632d3230222c226f70223a226d696e74222c227469636b223a22424f424f222c22616d74223a22313030303030227d68",
        "c1507504f881a2548efcb0bd8b5287fd78c473d5bd35b181abdd5c5cd6d10de204"
      ],
      "is_coinbase": false,
      "sequence": 4294967295
    }
  ],
  "vout": [
    {
      "scriptpubkey": "512048d62e6aa4ce9b4b4d760b1dc0c3e46b46d84be76ae456792a664139e7aaa19c",
      "scriptpubkey_asm": "OP_PUSHNUM_1 OP_PUSHBYTES_32 48d62e6aa4ce9b4b4d760b1dc0c3e46b46d84be76ae456792a664139e7aaa19c",
      "scriptpubkey_type": "v1_p2tr",
      "scriptpubkey_address": "bc1pfrtzu64ye6d5kntkpvwupslyddrdsjl8dtj9v7f2veqnnea25xwqu8ycu4",
      "value": 546
    }
  ],
  "size": 322,
  "weight": 604,
  "fee": 1812,
  "status": {
    "confirmed": true,
    "block_height": 834460,
    "block_hash": "00000000000000000000484a79b643b2524bbce82e5d8a442013fa5b8905ed98",
    "block_time": 1710307468
  },
  "hex": "020000000001016ce8f270738ce9987853b723de1224296f9291e2cc74e8752455ad841f8a84120900000000ffffffff01220200000000000022512048d62e6aa4ce9b4b4d760b1dc0c3e46b46d84be76ae456792a664139e7aaa19c03404399e9ea9101f0bfb868b0d9282e319b4481ad70c0fa710d593bb02760194dc4686a0a9dca32b3e5e7115c59ef42594ff1746872b316a979d6bf6f05f6a526b17d20df527f96f9c7825c87224a0ad956f76a521232b566a33a9efed556e01521547cac0063036f7264010118746578742f706c61696e3b636861727365743d7574662d3800377b2270223a226272632d3230222c226f70223a226d696e74222c227469636b223a22424f424f222c22616d74223a22313030303030227d6821c1507504f881a2548efcb0bd8b5287fd78c473d5bd35b181abdd5c5cd6d10de20400000000"
}