{
  "txid": "92154cb01b0745d9aea6eb9e419824b1fca60886f9684a2c1dd948751c1cc687",
  "version": 1,
  "locktime": 0,
  "vin": [
    {
      "txid": "00000a2d1a9e29116b539b85b6e893213b1ed95a08b7526a8d59a4b088fc6571",
      "vout": 0,
      "prevout": {
        "scriptpubkey": "51204b918d31f22461021ed54e354ac9dcbbe94b98edcfd3615b76c068b08222a87f",
        "scriptpubkey_asm": "OP_PUSHNUM_1 OP_PUSHBYTES_32 4b918d31f22461021ed54e354ac9dcbbe94b98edcfd3615b76c068b08222a87f",
        "scriptpubkey_type": "v1_p2tr",
        "scriptpubkey_address": "bc1pfwgc6v0jy3ssy8k4fc654jwuh055hx8delfkzkmkcp5tpq3z4pls7tx8q3",
        "value": 2908
      },
      "scriptsig": "",
      "scriptsig_asm": "",
      "witness": [
        "2a04c865a94d007280d5d4a3109a226a889692de3a39daa5aec1aa4462b2a9f739f7963f4a703cc414e78d5c982d8819c2aa374e6d3ec7a1fc4bd4067cd934d383",
        "20be11f1d0580232188e877ef283eb5a1efd4e9e5290a2633605d666f59ad3fff2ac00630461746f6d03646d743da16461726773a468626974776f726b6364303030306b6d696e745f7469636b65726670686f746f6e656e6f6e63651a007aebab6474696d651a65f1f44e68",
        "c0be11f1d0580232188e877ef283eb5a1efd4e9e5290a2633605d666f59ad3fff2"
      ],
      "is_coinbase": false,
      "sequence": 4294967293
    }
  ],
  "vout": [
    {
      "scriptpubkey": "512065fd3d423ea46a70505248db989e7302bfbbdd64ee4193dd9a59f69894f0de48",
      "scriptpubkey_asm": "OP_PUSHNUM_1 OP_PUSHBYTES_32 65fd3d423ea46a70505248db989e7302bfbbdd64ee4193dd9a59f69894f0de48",
      "scriptpubkey_type": "v1_p2tr",
      "scriptpubkey_address": "bc1pvh7n6s375348q5zjfrde38nnq2lmhhtyaeqe8hv6t8mf398smeyqnug47s",
      "value": 1000
    }
  ],
  "size": 306,
  "weight": 588,
  "fee": 1908,
  "status": {
    "confirmed": true,
    "block_height": 834552,
    "block_hash": "00000000000000000001dd0468a70c94f619251d286585cff57aeb4bd9ede330",
    "block_time": 1710355598
  },
  "hex": "010000000001017165fc88b0a4598d6a52b7085ad91e3b2193e8b6859b536b11299e1a2d0a00000000000000fdffffff01e80300000000000022512065fd3d423ea46a70505248db989e7302bfbbdd64ee4193dd9a59f69894f0de4803412a04c865a94d007280d5d4a3109a226a889692de3a39daa5aec1aa4462b2a9f739f7963f4a703cc414e78d5c982d8819c2aa374e6d3ec7a1fc4bd4067cd934d3836c20be11f1d0580232188e877ef283eb5a1efd4e9e5290a2633605d666f59ad3fff2ac00630461746f6d03646d743da16461726773a468626974776f726b6364303030306b6d696e745f7469636b65726670686f746f6e656e6f6e63651a007aebab6474696d651a65f1f44e6821c0be11f1d0580232188e877ef283eb5a1efd4e9e5290a2633605d666f59ad3fff200000000"
}