{
  "txid": "921a3d090a8f862d0071602ea7bcfac8aade06bb4d682d312133cff1a027327d",
  "version": 1,
  "locktime": 0,
  "vin": [
    {
      "txid": "e85876f4d2199663177bcd618ef995e7309520dd0936ff0411f49f0bf7f3d786",
      "vout": 1,
      "prevout": {
        "scriptpubkey": "0014aef94627f7968dc851c11dffa18a9e90dd8fe5f4",
        "scriptpubkey_asm": "OP_0 OP_PUSHBYTES_20 aef94627f7968dc851c11dffa18a9e90dd8fe5f4",
        "scriptpubkey_type": "v0_p2wpkh",
        "scriptpubkey_address": "bc1q4mu5vflhj6xus5wprhl6rz57jrwcle05ju0xjw",
        "value": 147135
      },
      "scriptsig": "",
      "scriptsig_asm": "",
      "witness": [
        "3044022028188dcf1496dcc29a0ab8890c16ad442c602c4b8d6909b77899dfd9d51ae61702203f1ffc6010000e024bfe0604fd5e4dd2a21a5d7275e65d5db5d029e86944c51a01",
        "0396229d2179fd658aadcce4ae882061155e82e7d78145cf91957d09a12c677e63"
      ],
      "is_coinbase": false,
      "sequence": 4294967295
    }
  ],
  "vout": [
    {
      "scriptpubkey": "76a9147e61aefc468020b50067875ea8a5d00d327ce5ee88ac",
      "scriptpubkey_asm": "OP_DUP OP_HASH160 OP_PUSHBYTES_20 7e61aefc468020b50067875ea8a5d00d327ce5ee OP_EQUALVERIFY OP_CHECKSIG",
      "scriptpubkey_type": "p2pkh",
      "scriptpubkey_address": "1CXFALphSvBpFiXEBKtqKsuDSPauF3vjqR",
      "value": 144084
    }
  ],
  "size": 194,
  "weight": 449,
  "fee": 3051,
  "status": {
    "confirmed": true,
    "block_height": 834638,
    "block_hash": "000000000000000000025f742c626208ac87e0b7d15054abb4a19ca2d735a54e",
    "block_time": 1710405325
  },
  "hex": "0100000000010186d7f3f70b9ff41104ff3609dd209530e795f98e61cd7b17639619d2f47658e80100000000ffffffff01d4320200000000001976a9147e61aefc468020b50067875ea8a5d00d327ce5ee88ac02473044022028188dcf1496dcc29a0ab8890c16ad442c602c4b8d6909b77899dfd9d51ae61702203f1ffc6010000e024bfe0604fd5e4dd2a21a5d7275e65d5db5d029e86944c51a01210396229d2179fd658aadcce4ae882061155e82e7d78145cf91957d09a12c677e6300000000"
}