{
  "txid": "921b6972870e18520f1072d0f20d7cc4d477574539865b9e2429d8995bab8bf3",
  "version": 1,
  "locktime": 0,
  "vin": [
    {
      "txid": "c4419e75a6caf1ee01e92c7fd27c2db87399f9f817a75b6f187b13789825c096",
      "vout": 2,
      "prevout": {
        "scriptpubkey": "76a914c13fcd289089016745aefdb53c857e7a94ddde8a88ac",
        "scriptpubkey_asm": "OP_DUP OP_HASH160 OP_PUSHBYTES_20 c13fcd289089016745aefdb53c857e7a94ddde8a OP_EQUALVERIFY OP_CHECKSIG",
        "scriptpubkey_type": "p2pkh",
        "scriptpubkey_address": "1Jcor2HvsYbsy3CUTNVT1aTUiztRFBpx4P",
        "value": 220696
      },
      "scriptsig": "47304402205f6ffb2ed4720182b5873bb61fcc3ee00f883dd2c53da8ed2e672c2026a2efe602207740eedd0d75bb77a5fc9d2b7a69ce8ede00f30caa824e65d44cd9684dd1f34f81210354c50be75c920bbeffcf2e196abb5f776fe0a47aae3ab2a31951801b29143334",
      "scriptsig_asm": "OP_PUSHBYTES_71 304402205f6ffb2ed4720182b5873bb61fcc3ee00f883dd2c53da8ed2e672c2026a2efe602207740eedd0d75bb77a5fc9d2b7a69ce8ede00f30caa824e65d44cd9684dd1f34f81 OP_PUSHBYTES_33 0354c50be75c920bbeffcf2e196abb5f776fe0a47aae3ab2a31951801b29143334",
      "is_coinbase": false,
      "sequence": 4294967295
    },
    {
      "txid": "7c748149548feb19a5c7e72c26ece2b637a79361f51cbc4363fa054cd04646c6",
      "vout": 0,
      "prevout": {
        "scriptpubkey": "76a914c13fcd289089016745aefdb53c857e7a94ddde8a88ac",
        "scriptpubkey_asm": "OP_DUP OP_HASH160 OP_PUSHBYTES_20 c13fcd289089016745aefdb53c857e7a94ddde8a OP_EQUALVERIFY OP_CHECKSIG",
        "scriptpubkey_type": "p2pkh",
        "scriptpubkey_address": "1Jcor2HvsYbsy3CUTNVT1aTUiztRFBpx4P",
        "value": 4912596
      },
      "scriptsig": "47304402200570e77ddbc3beffbc9c13e2c8a89da1515d1ca9bfe77828e8ec2b3476d6f4a702207e607394de69b1ddee8232d8103e2f94a4cd780a17b2c9128bb83bfffbfa550b81210354c50be75c920bbeffcf2e196abb5f776fe0a47aae3ab2a31951801b29143334",
      "scriptsig_asm": "OP_PUSHBYTES_71 304402200570e77ddbc3beffbc9c13e2c8a89da1515d1ca9bfe77828e8ec2b3476d6f4a702207e607394de69b1ddee8232d8103e2f94a4cd780a17b2c9128bb83bfffbfa550b81 OP_PUSHBYTES_33 0354c50be75c920bbeffcf2e196abb5f776fe0a47aae3ab2a31951801b29143334",
      "is_coinbase": false,
      "sequence": 4294967295
    }
  ],
  "vout": [
    {
      "scriptpubkey": "a914c19b511be417d66436a5eac091db01006245f95b87",
      "scriptpubkey_asm": "OP_HASH160 OP_PUSHBYTES_20 c19b511be417d66436a5eac091db01006245f95b OP_EQUAL",
      "scriptpubkey_type": "p2sh",
      "scriptpubkey_address": "3KLiQAo6DkBjby544PCzfDd2jMQBXXkHZF",
      "value": 1340659
    },
    {
      "scriptpubkey": "76a914c13fcd289089016745aefdb53c857e7a94ddde8a88ac",
      "scriptpubkey_asm": "OP_DUP OP_HASH160 OP_PUSHBYTES_20 c13fcd289089016745aefdb53c857e7a94ddde8a OP_EQUALVERIFY OP_CHECKSIG",
      "scriptpubkey_type": "p2pkh",
      "scriptpubkey_address": "1Jcor2HvsYbsy3CUTNVT1aTUiztRFBpx4P",
      "value": 3785613
    }
  ],
  "size": 370,
  "weight": 1480,
  "fee": 7020,
  "status": {
    "confirmed": true,
    "block_height": 834638,
    "block_hash": "000000000000000000025f742c626208ac87e0b7d15054abb4a19ca2d735a54e",
    "block_time": 1710405325
  },
  "hex": "010000000296c0259878137b186f5ba717f8f99973b82d7cd27f2ce901eef1caa6759e41c4020000006a47304402205f6ffb2ed4720182b5873bb61fcc3ee00f883dd2c53da8ed2e672c2026a2efe602207740eedd0d75bb77a5fc9d2b7a69ce8ede00f30caa824e65d44cd9684dd1f34f81210354c50be75c920bbeffcf2e196abb5f776fe0a47aae3ab2a31951801b29143334ffffffffc64646d04c05fa6343bc1cf56193a737b6e2ec262ce7c7a519eb8f544981747c000000006a47304402200570e77ddbc3beffbc9c13e2c8a89da1515d1ca9bfe77828e8ec2b3476d6f4a702207e607394de69b1ddee8232d8103e2f94a4cd780a17b2c9128bb83bfffbfa550b81210354c50be75c920bbeffcf2e196abb5f776fe0a47aae3ab2a31951801b29143334ffffffff02f37414000000000017a914c19b511be417d66436a5eac091db01006245f95b878dc33900000000001976a914c13fcd289089016745aefdb53c857e7a94ddde8a88ac00000000"
}