{
  "txid": "92459b3f14f695553abb5d42713a348e02efe9034e236e135c181984d9307459",
  "version": 2,
  "locktime": 0,
  "vin": [
    {
      "txid": "ee5ee9952e61530a3932fee71d30e8cd39b8854708b042490507b7e1f8372ebf",
      "vout": 1,
      "prevout": {
        "scriptpubkey": "0014224bab1597738224a57ddf7427588532780d2d19",
        "scriptpubkey_asm": "OP_0 OP_PUSHBYTES_20 224bab1597738224a57ddf7427588532780d2d19",
        "scriptpubkey_type": "v0_p2wpkh",
        "scriptpubkey_address": "bc1qyf96k9vhwwpzfftama6zwky9xfuq6tgelk6d9v",
        "value": 160959448
      },
      "scriptsig": "",
      "scriptsig_asm": "",
      "witness": [
        "3045022100ca6a13353b0373d3af0a954a2c2f67e922eb545bbd65baf307b530541355b09102203c8d74242abf9735fd3cdd8823721839a6080de31ef8c5716ca01111895f55f601",
        "03f019031005dbec77c730f5e6598e9fcac3b57bb9b7fdd12450da1d7850695a3e"
      ],
      "is_coinbase": false,
      "sequence": 4294967295
    }
  ],
  "vout": [
    {
      "scriptpubkey": "00141ab20cf5c88524a590a89c3f02bf27bde41168cd",
      "scriptpubkey_asm": "OP_0 OP_PUSHBYTES_20 1ab20cf5c88524a590a89c3f02bf27bde41168cd",
      "scriptpubkey_type": "v0_p2wpkh",
      "scriptpubkey_address": "bc1qr2eqeawgs5j2ty9gnsls90e8hhjpz6xdpwahga",
      "value": 923012
    },
    {
      "scriptpubkey": "0014224bab1597738224a57ddf7427588532780d2d19",
      "scriptpubkey_asm": "OP_0 OP_PUSHBYTES_20 224bab1597738224a57ddf7427588532780d2d19",
      "scriptpubkey_type": "v0_p2wpkh",
      "scriptpubkey_address": "bc1qyf96k9vhwwpzfftama6zwky9xfuq6tgelk6d9v",
      "value": 160034339
    }
  ],
  "size": 223,
  "weight": 562,
  "fee": 2097,
  "status": {
    "confirmed": true,
    "block_height": 834638,
    "block_hash": "000000000000000000025f742c626208ac87e0b7d15054abb4a19ca2d735a54e",
    "block_time": 1710405325
  },
  "hex": "02000000000101bf2e37f8e1b707054942b0084785b839cde8301de7fe32390a53612e95e95eee0100000000ffffffff0284150e00000000001600141ab20cf5c88524a590a89c3f02bf27bde41168cd23ee890900000000160014224bab1597738224a57ddf7427588532780d2d1902483045022100ca6a13353b0373d3af0a954a2c2f67e922eb545bbd65baf307b530541355b09102203c8d74242abf9735fd3cdd8823721839a6080de31ef8c5716ca01111895f55f6012103f019031005dbec77c730f5e6598e9fcac3b57bb9b7fdd12450da1d7850695a3e00000000"
}