{
  "txid": "925c9e11ff464190f5b5b8199785683fb613f6432bddd20f435536762f97cb44",
  "version": 1,
  "locktime": 0,
  "vin": [
    {
      "txid": "d3be672a3f24b1ead85c618bd18445d1bf5dd0533512ce64c992a2f2eb9cdb6e",
      "vout": 0,
      "prevout": {
        "scriptpubkey": "0014569c8052190206d18fe4dbc9bd0f04717f2050e9",
        "scriptpubkey_asm": "OP_0 OP_PUSHBYTES_20 569c8052190206d18fe4dbc9bd0f04717f2050e9",
        "scriptpubkey_type": "v0_p2wpkh",
        "scriptpubkey_address": "bc1q26wgq5seqgrdrrlym0ym6rcyw9ljq58frtf9mq",
        "value": 99000000
      },
      "scriptsig": "",
      "scriptsig_asm": "",
      "witness": [
        "30450221008a3df3c7b9d836e77e5ba02b2ee7baae295a698acde94e5eed81f1c51d649f7e022002db0f88baba5d1a48dd9b39cdf7beec399cffcca70759903707a91c040c9d0d01",
        "02f664d662e504a156e9d8f3798f78921adc5e80be1a0020dd85de2bdc3468857e"
      ],
      "is_coinbase": false,
      "sequence": 4294967295
    }
  ],
  "vout": [
    {
      "scriptpubkey": "00149f0a951561a76bc7a10eb5a19978f37bf0016327",
      "scriptpubkey_asm": "OP_0 OP_PUSHBYTES_20 9f0a951561a76bc7a10eb5a19978f37bf0016327",
      "scriptpubkey_type": "v0_p2wpkh",
      "scriptpubkey_address": "bc1qnu9f29tp5a4u0ggwkksej78n00cqzce8wc38sy",
      "value": 98993220
    }
  ],
  "size": 192,
  "weight": 438,
  "fee": 6780,
  "status": {
    "confirmed": true,
    "block_height": 834638,
    "block_hash": "000000000000000000025f742c626208ac87e0b7d15054abb4a19ca2d735a54e",
    "block_time": 1710405325
  },
  "hex": "010000000001016edb9cebf2a292c964ce123553d05dbfd14584d18b615cd8eab1243f2a67bed30000000000ffffffff014484e605000000001600149f0a951561a76bc7a10eb5a19978f37bf0016327024830450221008a3df3c7b9d836e77e5ba02b2ee7baae295a698acde94e5eed81f1c51d649f7e022002db0f88baba5d1a48dd9b39cdf7beec399cffcca70759903707a91c040c9d0d012102f664d662e504a156e9d8f3798f78921adc5e80be1a0020dd85de2bdc3468857e00000000"
}