{
  "txid": "9267e6f73d630388687ebffb4099a79059256fca5ba398f9719387dbec47180c",
  "version": 2,
  "locktime": 0,
  "vin": [
    {
      "txid": "acc3ba00869acb582a3f2904ce3a11dd3779350ce234063fc7d0959246213364",
      "vout": 150,
      "prevout": {
        "scriptpubkey": "512097e8689760e1547b10db3ed02816202bb3f8f922569f264c579d801dff622c69",
        "scriptpubkey_asm": "OP_PUSHNUM_1 OP_PUSHBYTES_32 97e8689760e1547b10db3ed02816202bb3f8f922569f264c579d801dff622c69",
        "scriptpubkey_type": "v1_p2tr",
        "scriptpubkey_address": "bc1pjl5x39mqu928kyxm8mgzs93q9wel37fz260jvnzhnkqpmlmz935skpa8hq",
        "value": 1806
      },
      "scriptsig": "",
      "scriptsig_asm": "",
      "witness": [
        "1e84a7885c3ed8751bbc4bc24af4cb9937e59fd1236c02ac8a19b13963b8a77966a0336b5dab05c39abd5195612eda7c1173a49f16233ad0e9fff42e12170324",
        "20d9ea8ddf3b377596f8e4c5cb7e8461a7be4b784bd8caf35ec438ac07d62c3114ac0063036f726401010a746578742f706c61696e00357b2270223a226272632d3230222c226f70223a226d696e74222c227469636b223a22646f6765222c22616d74223a2234323030227d68",
        "c0d9ea8ddf3b377596f8e4c5cb7e8461a7be4b784bd8caf35ec438ac07d62c3114"
      ],
      "is_coinbase": false,
      "sequence": 4261412863
    }
  ],
  "vout": [
    {
      "scriptpubkey": "00147a665de7a370f4c9b372ab1fae587500a5bcbdb4",
      "scriptpubkey_asm": "OP_0 OP_PUSHBYTES_20 7a665de7a370f4c9b372ab1fae587500a5bcbdb4",
      "scriptpubkey_type": "v0_p2wpkh",
      "scriptpubkey_address": "bc1q0fn9mearwr6vnvmj4v06ukr4qzjme0d565dzcx",
      "value": 294
    }
  ],
  "size": 294,
  "weight": 540,
  "fee": 1512,
  "status": {
    "confirmed": true,
    "block_height": 834460,
    "block_hash": "00000000000000000000484a79b643b2524bbce82e5d8a442013fa5b8905ed98",
    "block_time": 1710307468
  },
  "hex": "02000000000101643321469295d0c73f0634e20c357937dd113ace04293f2a58cb9a8600bac3ac9600000000fffffffd0126010000000000001600147a665de7a370f4c9b372ab1fae587500a5bcbdb403401e84a7885c3ed8751bbc4bc24af4cb9937e59fd1236c02ac8a19b13963b8a77966a0336b5dab05c39abd5195612eda7c1173a49f16233ad0e9fff42e121703246d20d9ea8ddf3b377596f8e4c5cb7e8461a7be4b784bd8caf35ec438ac07d62c3114ac0063036f726401010a746578742f706c61696e00357b2270223a226272632d3230222c226f70223a226d696e74222c227469636b223a22646f6765222c22616d74223a2234323030227d6821c0d9ea8ddf3b377596f8e4c5cb7e8461a7be4b784bd8caf35ec438ac07d62c311400000000"
}