{
  "txid": "9278238b23672bcbc13affb08fd8ace4d0306dbf9e3a7882bd6cd03db8eaacd0",
  "version": 2,
  "locktime": 0,
  "vin": [
    {
      "txid": "f478a47f421523436909af12d19f36fc8717bb9d99c1e17760e503bc99ed1825",
      "vout": 1,
      "prevout": {
        "scriptpubkey": "0014074382000e04ac6ae9168880580bc70cb9b455e2",
        "scriptpubkey_asm": "OP_0 OP_PUSHBYTES_20 074382000e04ac6ae9168880580bc70cb9b455e2",
        "scriptpubkey_type": "v0_p2wpkh",
        "scriptpubkey_address": "bc1qqapcyqqwqjkx46gk3zq9sz78pjumg40zaqxp0t",
        "value": 29252
      },
      "scriptsig": "",
      "scriptsig_asm": "",
      "witness": [
        "30450221009195da2aa2896a8768f5846b313106ea44f13d2824c521192f229319c0534d31022053b1203c1c3529da310bdee4021ec7b1d0be2c51ff14ec06d52d010b53cba4d001",
        "027ba6d0caf28573ec2858f0e508f8d9402bcb2938015e25cea61ca001991bbfd5"
      ],
      "is_coinbase": false,
      "sequence": 4294967295
    }
  ],
  "vout": [
    {
      "scriptpubkey": "6a2a1a9b0f4f1f14ff40195bb96cf2bcce41c177c1aa4736613a427d7834d74ba46fefd468bb817f7d959393",
      "scriptpubkey_asm": "OP_RETURN OP_PUSHBYTES_42 1a9b0f4f1f14ff40195bb96cf2bcce41c177c1aa4736613a427d7834d74ba46fefd468bb817f7d959393",
      "scriptpubkey_type": "op_return",
      "value": 0
    },
    {
      "scriptpubkey": "0014074382000e04ac6ae9168880580bc70cb9b455e2",
      "scriptpubkey_asm": "OP_0 OP_PUSHBYTES_20 074382000e04ac6ae9168880580bc70cb9b455e2",
      "scriptpubkey_type": "v0_p2wpkh",
      "scriptpubkey_address": "bc1qqapcyqqwqjkx46gk3zq9sz78pjumg40zaqxp0t",
      "value": 27541
    }
  ],
  "size": 245,
  "weight": 650,
  "fee": 1711,
  "status": {
    "confirmed": true,
    "block_height": 834464,
    "block_hash": "0000000000000000000177a0869a911a2b65c9bdcd5a8bcb02b68f305bee848e",
    "block_time": 1710308296
  },
  "hex": "020000000001012518ed99bc03e56077e1c1999dbb1787fc369fd112af0969432315427fa478f40100000000ffffffff0200000000000000002c6a2a1a9b0f4f1f14ff40195bb96cf2bcce41c177c1aa4736613a427d7834d74ba46fefd468bb817f7d959393956b000000000000160014074382000e04ac6ae9168880580bc70cb9b455e2024830450221009195da2aa2896a8768f5846b313106ea44f13d2824c521192f229319c0534d31022053b1203c1c3529da310bdee4021ec7b1d0be2c51ff14ec06d52d010b53cba4d00121027ba6d0caf28573ec2858f0e508f8d9402bcb2938015e25cea61ca001991bbfd500000000"
}