{
  "txid": "927a44fe896ad089a853dbe41bbec352e70091fcdc56d1661ada059c2b29f887",
  "version": 2,
  "locktime": 0,
  "vin": [
    {
      "txid": "d18ed70056c00a6cd5de0ccb10b1ae8f7dd5250f9d0f22c727aba826d03302c8",
      "vout": 21,
      "prevout": {
        "scriptpubkey": "51208c0d026ac620ba0405cd6b691febc6c3cb60bd3c7a18c7c41b5541496e395ec1",
        "scriptpubkey_asm": "OP_PUSHNUM_1 OP_PUSHBYTES_32 8c0d026ac620ba0405cd6b691febc6c3cb60bd3c7a18c7c41b5541496e395ec1",
        "scriptpubkey_type": "v1_p2tr",
        "scriptpubkey_address": "bc1p3sxsy6kxyzaqgpwddd53l67xc09kp0fu0gvv03qm24q5jm3etmqs520lpp",
        "value": 3010
      },
      "scriptsig": "",
      "scriptsig_asm": "",
      "witness": [
        "bb06c0b2742b313b056cbed5991191963bf7afb075eaba9bbe6db924febf6b7d91150045eb96f935cf6516e635fbc3b8e25860765d56400b1b0ddc262560084d",
        "20f22d08e08434e5f41cacd50c43e1cb498e676b35ec05679a52ef525ef5a8b993ac0063036f726401011e6170706c69636174696f6e2f6a736f6e3b636861727365743d7574662d38004cbf7b2270223a22706f772d3230222c226f70223a226d696e74222c227469636b223a2250455045222c22616d74223a2231303030222c22736f6c7574696f6e223a22504550453a6263317168337833756334707a796478716436757776376e3732676874787a33753937306564663078613a303030303030303030303030303030303030303139393431613561653132383937363539383134343239323533333030353762306461393666336465613163353a3131343935393437323234227d68",
        "c0e5c6b8d70510d88b341fcdd9a2aa08913e89d9e736480c530fde3fe13419cdab"
      ],
      "is_coinbase": false,
      "sequence": 4294967295
    }
  ],
  "vout": [
    {
      "scriptpubkey": "0014bc4d1e62a1111a60375c733d3f291759851e17cf",
      "scriptpubkey_asm": "OP_0 OP_PUSHBYTES_20 bc4d1e62a1111a60375c733d3f291759851e17cf",
      "scriptpubkey_type": "v0_p2wpkh",
      "scriptpubkey_address": "bc1qh3x3uc4pzydxqd6uwv7n72ghtxz3u970edf0xa",
      "value": 546
    }
  ],
  "size": 455,
  "weight": 701,
  "fee": 2464,
  "status": {
    "confirmed": true,
    "block_height": 834460,
    "block_hash": "00000000000000000000484a79b643b2524bbce82e5d8a442013fa5b8905ed98",
    "block_time": 1710307468
  },
  "hex": "02000000000101c80233d026a8ab27c7220f9d0f25d57d8faeb110cb0cded56c0ac05600d78ed11500000000ffffffff012202000000000000160014bc4d1e62a1111a60375c733d3f291759851e17cf0340bb06c0b2742b313b056cbed5991191963bf7afb075eaba9bbe6db924febf6b7d91150045eb96f935cf6516e635fbc3b8e25860765d56400b1b0ddc262560084dfd0c0120f22d08e08434e5f41cacd50c43e1cb498e676b35ec05679a52ef525ef5a8b993ac0063036f726401011e6170706c69636174696f6e2f6a736f6e3b636861727365743d7574662d38004cbf7b2270223a22706f772d3230222c226f70223a226d696e74222c227469636b223a2250455045222c22616d74223a2231303030222c22736f6c7574696f6e223a22504550453a6263317168337833756334707a796478716436757776376e3732676874787a33753937306564663078613a303030303030303030303030303030303030303139393431613561653132383937363539383134343239323533333030353762306461393666336465613163353a3131343935393437323234227d6821c0e5c6b8d70510d88b341fcdd9a2aa08913e89d9e736480c530fde3fe13419cdab00000000"
}