{
  "txid": "9280293c579316ab2bcbde6d71e54ae58a682804d999fda218953dbc8b4c5f62",
  "version": 1,
  "locktime": 0,
  "vin": [
    {
      "txid": "9618900a8f70e7c9626f39288a12c80cf1b1f73767745d33416406a8c6557b89",
      "vout": 0,
      "prevout": {
        "scriptpubkey": "512044d306a78ee0b7b11f2229eb57ecb58488aed89e4670e085e965f2c335570a4a",
        "scriptpubkey_asm": "OP_PUSHNUM_1 OP_PUSHBYTES_32 44d306a78ee0b7b11f2229eb57ecb58488aed89e4670e085e965f2c335570a4a",
        "scriptpubkey_type": "v1_p2tr",
        "scriptpubkey_address": "bc1pgnfsdfuwuzmmz8ez98440m94sjy2aky7gecwpp0fvhevxd2hpf9quzd24q",
        "value": 2646
      },
      "scriptsig": "",
      "scriptsig_asm": "",
      "witness": [
        "a2bb0520442da17e72981f635f089ec611c392c54abeb9229387ab592db91da0bce6afbef70cf5aa95f60df45875bdde5fe09a8367dac6ad74276778e0c0e831",
        "208c5797aa32cf03adfb7bd7fbfaaafe71dafda26b75e29e07063dbb1d54bdcc20ac0063036f726401010a746578742f706c61696e003f7b2270223a22746170222c226f70223a22746f6b656e2d7472616e73666572222c227469636b223a22434845455345222c22616d74223a223135303030227d68",
        "c18c5797aa32cf03adfb7bd7fbfaaafe71dafda26b75e29e07063dbb1d54bdcc20"
      ],
      "is_coinbase": false,
      "sequence": 4294967293
    }
  ],
  "vout": [
    {
      "scriptpubkey": "5120effe53e0b9f93e669c05e3dc33680e5a527158e8bbcf92608d4fb10f29aaa149",
      "scriptpubkey_asm": "OP_PUSHNUM_1 OP_PUSHBYTES_32 effe53e0b9f93e669c05e3dc33680e5a527158e8bbcf92608d4fb10f29aaa149",
      "scriptpubkey_type": "v1_p2tr",
      "scriptpubkey_address": "bc1pall98c9elylxd8q9u0wrx6qwtff8zk8gh08eycydf7cs72d259ys33mvkx",
      "value": 546
    }
  ],
  "size": 316,
  "weight": 598,
  "fee": 2100,
  "status": {
    "confirmed": true,
    "block_height": 834460,
    "block_hash": "00000000000000000000484a79b643b2524bbce82e5d8a442013fa5b8905ed98",
    "block_time": 1710307468
  },
  "hex": "01000000000101897b55c6a8066441335d746737f7b1f10cc8128a28396f62c9e7708f0a9018960000000000fdffffff012202000000000000225120effe53e0b9f93e669c05e3dc33680e5a527158e8bbcf92608d4fb10f29aaa1490340a2bb0520442da17e72981f635f089ec611c392c54abeb9229387ab592db91da0bce6afbef70cf5aa95f60df45875bdde5fe09a8367dac6ad74276778e0c0e83177208c5797aa32cf03adfb7bd7fbfaaafe71dafda26b75e29e07063dbb1d54bdcc20ac0063036f726401010a746578742f706c61696e003f7b2270223a22746170222c226f70223a22746f6b656e2d7472616e73666572222c227469636b223a22434845455345222c22616d74223a223135303030227d6821c18c5797aa32cf03adfb7bd7fbfaaafe71dafda26b75e29e07063dbb1d54bdcc2000000000"
}