{
  "txid": "92848ce1d291c3c1aa0e5aa5b21491bfb2c5af723c176b29af98b4e4a57391ad",
  "version": 1,
  "locktime": 0,
  "vin": [
    {
      "txid": "851298960362063bd8f2f651beef38bdd552909cb20f2c6a9383294fdd626c79",
      "vout": 1,
      "prevout": {
        "scriptpubkey": "0014121a32e860e94d41af5a7519b2b74c41a9e8fb45",
        "scriptpubkey_asm": "OP_0 OP_PUSHBYTES_20 121a32e860e94d41af5a7519b2b74c41a9e8fb45",
        "scriptpubkey_type": "v0_p2wpkh",
        "scriptpubkey_address": "bc1qzgdr96rqa9x5rt66w5vm9d6vgx573769x57phw",
        "value": 596667
      },
      "scriptsig": "",
      "scriptsig_asm": "",
      "witness": [
        "304402200a7fe098dc7eda5100613f74e36ebbad0a43a2ac32a46e616731c781779a8c12022029487bc6ca4dfc70e9815da6f089a7f5ed418d865534b23e82995cfe5b8a458e01",
        "0340934e72e4e33a6442adf47840de188032c8e2770b532233cb2738f62073022b"
      ],
      "is_coinbase": false,
      "sequence": 4294967295
    },
    {
      "txid": "1b7f729b1ea8f088f495eb3cf188f96ab47d7a4f0a5c55ee9bb6ab0e187bd587",
      "vout": 0,
      "prevout": {
        "scriptpubkey": "0014f14bdda649859f56230b2ec35c158b6799cd7ea6",
        "scriptpubkey_asm": "OP_0 OP_PUSHBYTES_20 f14bdda649859f56230b2ec35c158b6799cd7ea6",
        "scriptpubkey_type": "v0_p2wpkh",
        "scriptpubkey_address": "bc1q799amfjfsk04vgct9mp4c9vtv7vu6l4xysacnm",
        "value": 3022555
      },
      "scriptsig": "",
      "scriptsig_asm": "",
      "witness": [
        "3045022100f15c3e28f0bce51657a35d51210f60316e6c87e08902d642f0e7dedad9a6dac102206c31cae484f0cd716bbf2980cfea339a8265398cc5d36ff76c56ba5f07faac1601",
        "023f8f5217c3032423130511076f20b1a23fddbce330f7131821f3d3aef3810549"
      ],
      "is_coinbase": false,
      "sequence": 4294967295
    }
  ],
  "vout": [
    {
      "scriptpubkey": "a91499d5dc20f2449b2ada41ddc06a04652150d2f92187",
      "scriptpubkey_asm": "OP_HASH160 OP_PUSHBYTES_20 99d5dc20f2449b2ada41ddc06a04652150d2f921 OP_EQUAL",
      "scriptpubkey_type": "p2sh",
      "scriptpubkey_address": "3FiRW8zYZ8LChf7uvvygmSE5Lg2LP7dcYK",
      "value": 679500
    },
    {
      "scriptpubkey": "001438015ccd42697bb169e753ecce9d20667f503e84",
      "scriptpubkey_asm": "OP_0 OP_PUSHBYTES_20 38015ccd42697bb169e753ecce9d20667f503e84",
      "scriptpubkey_type": "v0_p2wpkh",
      "scriptpubkey_address": "bc1q8qq4en2zd9amz60820kva8fqvel4q05yvads3d",
      "value": 2936593
    }
  ],
  "size": 372,
  "weight": 837,
  "fee": 3129,
  "status": {
    "confirmed": true,
    "block_height": 834638,
    "block_hash": "000000000000000000025f742c626208ac87e0b7d15054abb4a19ca2d735a54e",
    "block_time": 1710405325
  },
  "hex": "01000000000102796c62dd4f2983936a2c0fb29c9052d5bd38efbe51f6f2d83b066203969812850100000000ffffffff87d57b180eabb69bee555c0a4f7a7db46af988f13ceb95f488f0a81e9b727f1b0000000000ffffffff024c5e0a000000000017a91499d5dc20f2449b2ada41ddc06a04652150d2f9218711cf2c000000000016001438015ccd42697bb169e753ecce9d20667f503e840247304402200a7fe098dc7eda5100613f74e36ebbad0a43a2ac32a46e616731c781779a8c12022029487bc6ca4dfc70e9815da6f089a7f5ed418d865534b23e82995cfe5b8a458e01210340934e72e4e33a6442adf47840de188032c8e2770b532233cb2738f62073022b02483045022100f15c3e28f0bce51657a35d51210f60316e6c87e08902d642f0e7dedad9a6dac102206c31cae484f0cd716bbf2980cfea339a8265398cc5d36ff76c56ba5f07faac160121023f8f5217c3032423130511076f20b1a23fddbce330f7131821f3d3aef381054900000000"
}