{
  "txid": "929ef760d05cc55d231f090a215e1a783abc00a9115d1708e3fd1aacccd5d5be",
  "version": 1,
  "locktime": 0,
  "vin": [
    {
      "txid": "8165576c77e60b9b6dd5f4b028b377de31a1e83d63a839a0cebae60df80ca0b6",
      "vout": 1,
      "prevout": {
        "scriptpubkey": "00145dfa00d35953e7173ed0e9e3b8beaa66824f6e56",
        "scriptpubkey_asm": "OP_0 OP_PUSHBYTES_20 5dfa00d35953e7173ed0e9e3b8beaa66824f6e56",
        "scriptpubkey_type": "v0_p2wpkh",
        "scriptpubkey_address": "bc1qthaqp56e20n3w0ksa83m3042v6py7mjk0qphvn",
        "value": 26974
      },
      "scriptsig": "",
      "scriptsig_asm": "",
      "witness": [
        "30440220054561391b6fbd14ed55dee2e78ad824ffa02b68da926a7221213385537e31ee022056b5f20e91ce63dfb5d7cb4667db411bfc37987743361dc1c4b9f932a1d1ad0b01",
        "03d901ef14559fb1360360902e5cf2a74346217ba6aa1f35135a1358769cbe9872"
      ],
      "is_coinbase": false,
      "sequence": 4294967295
    },
    {
      "txid": "facdce76dc935b27ec8c39a635b5d53a29e033a273e891c03dacec3a5311e148",
      "vout": 2,
      "prevout": {
        "scriptpubkey": "0014d2b120ef6d4301789007053335b79215d992fef4",
        "scriptpubkey_asm": "OP_0 OP_PUSHBYTES_20 d2b120ef6d4301789007053335b79215d992fef4",
        "scriptpubkey_type": "v0_p2wpkh",
        "scriptpubkey_address": "bc1q62cjpmmdgvqh3yq8q5entdujzhve9lh5jv3c5k",
        "value": 1998566
      },
      "scriptsig": "",
      "scriptsig_asm": "",
      "witness": [
        "3045022100cc184680f0c52b4662730e0a82b6d01c6e2e83391c5d9772218ec0d99dae2b1b0220510e3f11272d243ca478b399fe562d0376200eeb783fb71402fb74a6cbecab4401",
        "0299f7ed6cc5929dde2fe2904058103e50b8fe7c1c1cfa7d00972457b6435b94f5"
      ],
      "is_coinbase": false,
      "sequence": 4294967295
    }
  ],
  "vout": [
    {
      "scriptpubkey": "0014883eec6b71885e06501a91bf54fd659194b57283",
      "scriptpubkey_asm": "OP_0 OP_PUSHBYTES_20 883eec6b71885e06501a91bf54fd659194b57283",
      "scriptpubkey_type": "v0_p2wpkh",
      "scriptpubkey_address": "bc1q3qlwc6m33p0qv5q6jxl4flt9jx2t2u5rfhwxfs",
      "value": 1989980
    },
    {
      "scriptpubkey": "00149591e54b8af1e4a5819c614378d13f9c77175ba5",
      "scriptpubkey_asm": "OP_0 OP_PUSHBYTES_20 9591e54b8af1e4a5819c614378d13f9c77175ba5",
      "scriptpubkey_type": "v0_p2wpkh",
      "scriptpubkey_address": "bc1qjkg72ju278j2tqvuv9ph35fln3m3wka9ruuk2k",
      "value": 30164
    }
  ],
  "size": 371,
  "weight": 833,
  "fee": 5396,
  "status": {
    "confirmed": true,
    "block_height": 834638,
    "block_hash": "000000000000000000025f742c626208ac87e0b7d15054abb4a19ca2d735a54e",
    "block_time": 1710405325
  },
  "hex": "01000000000102b6a00cf80de6bacea039a8633de8a131de77b328b0f4d56d9b0be6776c5765810100000000ffffffff48e111533aecac3dc091e873a233e0293ad5b535a6398cec275b93dc76cecdfa0200000000ffffffff025c5d1e0000000000160014883eec6b71885e06501a91bf54fd659194b57283d4750000000000001600149591e54b8af1e4a5819c614378d13f9c77175ba5024730440220054561391b6fbd14ed55dee2e78ad824ffa02b68da926a7221213385537e31ee022056b5f20e91ce63dfb5d7cb4667db411bfc37987743361dc1c4b9f932a1d1ad0b012103d901ef14559fb1360360902e5cf2a74346217ba6aa1f35135a1358769cbe987202483045022100cc184680f0c52b4662730e0a82b6d01c6e2e83391c5d9772218ec0d99dae2b1b0220510e3f11272d243ca478b399fe562d0376200eeb783fb71402fb74a6cbecab4401210299f7ed6cc5929dde2fe2904058103e50b8fe7c1c1cfa7d00972457b6435b94f500000000"
}