{
  "txid": "92b0dfd5ac0b6e2e8dae164570747de735b1c26b71b5afb813e26ba22622fda8",
  "version": 2,
  "locktime": 0,
  "vin": [
    {
      "txid": "a2f304e5655bb15ebcb38ff17d815fab5ef607b9a6dc680f58ff92f47249032d",
      "vout": 0,
      "prevout": {
        "scriptpubkey": "00145d48b073d809e3f05307fae0ec57a26b241a2859",
        "scriptpubkey_asm": "OP_0 OP_PUSHBYTES_20 5d48b073d809e3f05307fae0ec57a26b241a2859",
        "scriptpubkey_type": "v0_p2wpkh",
        "scriptpubkey_address": "bc1qt4ytqu7cp83lq5c8ltswc4azdvjp52zeypp277",
        "value": 473947
      },
      "scriptsig": "",
      "scriptsig_asm": "",
      "witness": [
        "3045022100fb12a1fdad3bea46ca0217472ac74a8cebb8787cc54f9e8e2ada5b799c7c940502202f5728df3adc10fb6ed07ea055b02274a458e658c711d098e9177633d4afd7a901",
        "0259350c1860c82d6655390a64c38be59235c0070a6980c09ef502680ad1218226"
      ],
      "is_coinbase": false,
      "sequence": 4294967295
    }
  ],
  "vout": [
    {
      "scriptpubkey": "a914bf3246a8c14d0fec82e3f16490366bc49b601d6787",
      "scriptpubkey_asm": "OP_HASH160 OP_PUSHBYTES_20 bf3246a8c14d0fec82e3f16490366bc49b601d67 OP_EQUAL",
      "scriptpubkey_type": "p2sh",
      "scriptpubkey_address": "3K7yDRRhjdvXaEwYNGpYPDAQz5x9ciPv2s",
      "value": 471660
    }
  ],
  "size": 193,
  "weight": 442,
  "fee": 2287,
  "status": {
    "confirmed": true,
    "block_height": 834638,
    "block_hash": "000000000000000000025f742c626208ac87e0b7d15054abb4a19ca2d735a54e",
    "block_time": 1710405325
  },
  "hex": "020000000001012d034972f492ff580f68dca6b907f65eab5f817df18fb3bc5eb15b65e504f3a20000000000ffffffff016c3207000000000017a914bf3246a8c14d0fec82e3f16490366bc49b601d678702483045022100fb12a1fdad3bea46ca0217472ac74a8cebb8787cc54f9e8e2ada5b799c7c940502202f5728df3adc10fb6ed07ea055b02274a458e658c711d098e9177633d4afd7a901210259350c1860c82d6655390a64c38be59235c0070a6980c09ef502680ad121822600000000"
}