{
  "txid": "92c4618d656fe03028aa08440aef6292eba92b6fd3e181593f73dcf794f8d368",
  "version": 2,
  "locktime": 0,
  "vin": [
    {
      "txid": "acc3ba00869acb582a3f2904ce3a11dd3779350ce234063fc7d0959246213364",
      "vout": 141,
      "prevout": {
        "scriptpubkey": "51202b4d20525f3de65e4fb06c596ea89061e0ebefae68121427ffdefb6393c2a8fb",
        "scriptpubkey_asm": "OP_PUSHNUM_1 OP_PUSHBYTES_32 2b4d20525f3de65e4fb06c596ea89061e0ebefae68121427ffdefb6393c2a8fb",
        "scriptpubkey_type": "v1_p2tr",
        "scriptpubkey_address": "bc1p9dxjq5jl8hn9unasd3vka2ysv8swhmawdqfpgfllmmak8y7z4rasrzkcvy",
        "value": 1806
      },
      "scriptsig": "",
      "scriptsig_asm": "",
      "witness": [
        "db0b6d521951165994638f124fa9a6eb5f60abddabf8cbb9ae02e2cea79cf308b7c49f10edd48c5e5729ab5d0b4e6d3795b7c752a469ce3891f0c9830aa6f821",
        "202543492f2c3235e7ac1b704cbd69b7cf4546523d3eac18aabdc2e0546c9135d4ac0063036f726401010a746578742f706c61696e00357b2270223a226272632d3230222c226f70223a226d696e74222c227469636b223a22646f6765222c22616d74223a2234323030227d68",
        "c02543492f2c3235e7ac1b704cbd69b7cf4546523d3eac18aabdc2e0546c9135d4"
      ],
      "is_coinbase": false,
      "sequence": 4261412863
    }
  ],
  "vout": [
    {
      "scriptpubkey": "00147a665de7a370f4c9b372ab1fae587500a5bcbdb4",
      "scriptpubkey_asm": "OP_0 OP_PUSHBYTES_20 7a665de7a370f4c9b372ab1fae587500a5bcbdb4",
      "scriptpubkey_type": "v0_p2wpkh",
      "scriptpubkey_address": "bc1q0fn9mearwr6vnvmj4v06ukr4qzjme0d565dzcx",
      "value": 294
    }
  ],
  "size": 294,
  "weight": 540,
  "fee": 1512,
  "status": {
    "confirmed": true,
    "block_height": 834460,
    "block_hash": "00000000000000000000484a79b643b2524bbce82e5d8a442013fa5b8905ed98",
    "block_time": 1710307468
  },
  "hex": "02000000000101643321469295d0c73f0634e20c357937dd113ace04293f2a58cb9a8600bac3ac8d00000000fffffffd0126010000000000001600147a665de7a370f4c9b372ab1fae587500a5bcbdb40340db0b6d521951165994638f124fa9a6eb5f60abddabf8cbb9ae02e2cea79cf308b7c49f10edd48c5e5729ab5d0b4e6d3795b7c752a469ce3891f0c9830aa6f8216d202543492f2c3235e7ac1b704cbd69b7cf4546523d3eac18aabdc2e0546c9135d4ac0063036f726401010a746578742f706c61696e00357b2270223a226272632d3230222c226f70223a226d696e74222c227469636b223a22646f6765222c22616d74223a2234323030227d6821c02543492f2c3235e7ac1b704cbd69b7cf4546523d3eac18aabdc2e0546c9135d400000000"
}