{
  "txid": "92cb1a0676c7228afdd1203a467b785976f485c98d8d37474fb95894d6d08d62",
  "version": 2,
  "locktime": 0,
  "vin": [
    {
      "txid": "20878947e7310a967c6fafe79ffddc34dadf611a7fc98b04a8a334f1a02bed5a",
      "vout": 1,
      "prevout": {
        "scriptpubkey": "00142d32dacf0cb80787fa24eac35d0baf7066289eec",
        "scriptpubkey_asm": "OP_0 OP_PUSHBYTES_20 2d32dacf0cb80787fa24eac35d0baf7066289eec",
        "scriptpubkey_type": "v0_p2wpkh",
        "scriptpubkey_address": "bc1q95ed4ncvhqrc073yatp46za0wpnz38hvlhgdsk",
        "value": 8138810
      },
      "scriptsig": "",
      "scriptsig_asm": "",
      "witness": [
        "304402207bdf0311861c6010036485e3786401bec0743fa33b451376858f27eda58757820220092ca003aeadf3190ac1ac7d448e7ed286a95a48dab4a5d6dea83bd7490dc42a01",
        "02cc104a0cc952692f99f0a86ae245f13b7723fb0916ce4ccb59cfe867415f54a6"
      ],
      "is_coinbase": false,
      "sequence": 4294967293
    }
  ],
  "vout": [
    {
      "scriptpubkey": "0014968fc78f35aa17deb2999fb0d6e5cb1380cae481",
      "scriptpubkey_asm": "OP_0 OP_PUSHBYTES_20 968fc78f35aa17deb2999fb0d6e5cb1380cae481",
      "scriptpubkey_type": "v0_p2wpkh",
      "scriptpubkey_address": "bc1qj68u0re44gtaav5en7cddewtzwqv4eypwdfugx",
      "value": 8137272
    }
  ],
  "size": 191,
  "weight": 437,
  "fee": 1538,
  "status": {
    "confirmed": true,
    "block_height": 834460,
    "block_hash": "00000000000000000000484a79b643b2524bbce82e5d8a442013fa5b8905ed98",
    "block_time": 1710307468
  },
  "hex": "020000000001015aed2ba0f134a3a8048bc97f1a61dfda34dcfd9fe7af6f7c960a31e7478987200100000000fdffffff01382a7c0000000000160014968fc78f35aa17deb2999fb0d6e5cb1380cae4810247304402207bdf0311861c6010036485e3786401bec0743fa33b451376858f27eda58757820220092ca003aeadf3190ac1ac7d448e7ed286a95a48dab4a5d6dea83bd7490dc42a012102cc104a0cc952692f99f0a86ae245f13b7723fb0916ce4ccb59cfe867415f54a600000000"
}