{
  "txid": "92d15c970cf7adc0cdf4fb1df38307c93f979bc85ac655d7b07fb874779559f2",
  "version": 1,
  "locktime": 0,
  "vin": [
    {
      "txid": "5c2ac258532a003caf05680f31e33ccef423fa293e20dc21077f09f3cae080b6",
      "vout": 0,
      "prevout": {
        "scriptpubkey": "76a914c2046bc87c6b17efc6e138152da73abdc50850c088ac",
        "scriptpubkey_asm": "OP_DUP OP_HASH160 OP_PUSHBYTES_20 c2046bc87c6b17efc6e138152da73abdc50850c0 OP_EQUALVERIFY OP_CHECKSIG",
        "scriptpubkey_type": "p2pkh",
        "scriptpubkey_address": "1JgsPPpktYq6MH6Ps5QMTMDrTPx1JH8GUz",
        "value": 682964
      },
      "scriptsig": "483045022100af9c4ea36ac166eb44addd62ef2f5a6c7f0d8e5348a6de96b01a8a56b9ecf1260220172a2b526915b22721c606b0c9421ea8d432cb5ebe3008dc995ee157a01bae12012103a6da76cbd1ae1c7ed42c2b78e2724dcb9dfe8f2aab7fdd72a09059d84ed0445e",
      "scriptsig_asm": "OP_PUSHBYTES_72 3045022100af9c4ea36ac166eb44addd62ef2f5a6c7f0d8e5348a6de96b01a8a56b9ecf1260220172a2b526915b22721c606b0c9421ea8d432cb5ebe3008dc995ee157a01bae1201 OP_PUSHBYTES_33 03a6da76cbd1ae1c7ed42c2b78e2724dcb9dfe8f2aab7fdd72a09059d84ed0445e",
      "is_coinbase": false,
      "sequence": 4294967295
    },
    {
      "txid": "a72e6125096608c7d3ec076f8b59ea6aaa15382bbad2e3e25ceed99c4b66dabb",
      "vout": 0,
      "prevout": {
        "scriptpubkey": "76a914ec41acc2954a6d8b9404f0cd28a9e0b994b03ba988ac",
        "scriptpubkey_asm": "OP_DUP OP_HASH160 OP_PUSHBYTES_20 ec41acc2954a6d8b9404f0cd28a9e0b994b03ba9 OP_EQUALVERIFY OP_CHECKSIG",
        "scriptpubkey_type": "p2pkh",
        "scriptpubkey_address": "1NYD9SXeamyZt6PLgUn2iW1bbftqgLZDqJ",
        "value": 633272
      },
      "scriptsig": "473044022034a68fa6cc3201db19c267294ca351e6178a98a8978f3b67e263ce6156df14ef0220118db021776cc124a4ab7909d51a944c85ffcf73cff36a1707a51007d3270a90012103e903d6fb3e016abaeea7362959fc434df3dd94e520dc078fdf6e74264311c617",
      "scriptsig_asm": "OP_PUSHBYTES_71 3044022034a68fa6cc3201db19c267294ca351e6178a98a8978f3b67e263ce6156df14ef0220118db021776cc124a4ab7909d51a944c85ffcf73cff36a1707a51007d3270a9001 OP_PUSHBYTES_33 03e903d6fb3e016abaeea7362959fc434df3dd94e520dc078fdf6e74264311c617",
      "is_coinbase": false,
      "sequence": 4294967295
    }
  ],
  "vout": [
    {
      "scriptpubkey": "a914065fabd1dc053469ad25ef65f6462b6569385afa87",
      "scriptpubkey_asm": "OP_HASH160 OP_PUSHBYTES_20 065fabd1dc053469ad25ef65f6462b6569385afa OP_EQUAL",
      "scriptpubkey_type": "p2sh",
      "scriptpubkey_address": "32Gib3X3SKzmMNjoeNVMWsFrvnV9iNN4e2",
      "value": 682780
    },
    {
      "scriptpubkey": "76a914c5475b94e4df4756461dab135043006c89d9f85688ac",
      "scriptpubkey_asm": "OP_DUP OP_HASH160 OP_PUSHBYTES_20 c5475b94e4df4756461dab135043006c89d9f856 OP_EQUALVERIFY OP_CHECKSIG",
      "scriptpubkey_type": "p2pkh",
      "scriptpubkey_address": "1Jz7bpB4cF9Qhru4SAcYFE4vuDp41ytV1f",
      "value": 627876
    }
  ],
  "size": 371,
  "weight": 1484,
  "fee": 5580,
  "status": {
    "confirmed": true,
    "block_height": 834638,
    "block_hash": "000000000000000000025f742c626208ac87e0b7d15054abb4a19ca2d735a54e",
    "block_time": 1710405325
  },
  "hex": "0100000002b680e0caf3097f0721dc203e29fa23f4ce3ce3310f6805af3c002a5358c22a5c000000006b483045022100af9c4ea36ac166eb44addd62ef2f5a6c7f0d8e5348a6de96b01a8a56b9ecf1260220172a2b526915b22721c606b0c9421ea8d432cb5ebe3008dc995ee157a01bae12012103a6da76cbd1ae1c7ed42c2b78e2724dcb9dfe8f2aab7fdd72a09059d84ed0445effffffffbbda664b9cd9ee5ce2e3d2ba2b3815aa6aea598b6f07ecd3c708660925612ea7000000006a473044022034a68fa6cc3201db19c267294ca351e6178a98a8978f3b67e263ce6156df14ef0220118db021776cc124a4ab7909d51a944c85ffcf73cff36a1707a51007d3270a90012103e903d6fb3e016abaeea7362959fc434df3dd94e520dc078fdf6e74264311c617ffffffff021c6b0a000000000017a914065fabd1dc053469ad25ef65f6462b6569385afa87a4940900000000001976a914c5475b94e4df4756461dab135043006c89d9f85688ac00000000"
}