{
  "txid": "92d89fe23bb0f6bacf6aafb223b11ef92d19ecf13fa40b520e6ae6d3cabc7c09",
  "version": 2,
  "locktime": 0,
  "vin": [
    {
      "txid": "2e8ec197d28e2e290e77067caad46e6ab6b66e13ce14b06d6885b444573335bf",
      "vout": 1,
      "prevout": {
        "scriptpubkey": "5120457618ae409e9d5dacc7e83609d1c4c0541553fdd596cc94b1d2f88696e89d94",
        "scriptpubkey_asm": "OP_PUSHNUM_1 OP_PUSHBYTES_32 457618ae409e9d5dacc7e83609d1c4c0541553fdd596cc94b1d2f88696e89d94",
        "scriptpubkey_type": "v1_p2tr",
        "scriptpubkey_address": "bc1pg4mp3tjqn6w4mtx8aqmqn5wycp2p25la6ktve9936tugd9hgnk2qf3eslv",
        "value": 2353
      },
      "scriptsig": "",
      "scriptsig_asm": "",
      "witness": [
        "b15f20a482099b4065a312cdad27522d057a824648a24c49b9430b38917b68ce481d51739de3b7f10ba0c8b3e4761501837bd5488aa158f9552ee5b89e019b24",
        "20a3ed60676721ebaf610bb9ef8284bfdc3115305efc02496780444f910c24bff3ac0063036f7264010118746578742f706c61696e3b636861727365743d7574662d3800073030372e62746368",
        "c0fd409ad511758e81df4d2d0a2798ae74e4a32b94ead6fc2e8c8f070bdb6b8097"
      ],
      "is_coinbase": false,
      "sequence": 4294967295
    }
  ],
  "vout": [
    {
      "scriptpubkey": "51206ae861785fbdae9bc6163a8a8ed044e8a921c6b7483a2a8d02c6c44e7f26fcd3",
      "scriptpubkey_asm": "OP_PUSHNUM_1 OP_PUSHBYTES_32 6ae861785fbdae9bc6163a8a8ed044e8a921c6b7483a2a8d02c6c44e7f26fcd3",
      "scriptpubkey_type": "v1_p2tr",
      "scriptpubkey_address": "bc1pdt5xz7zlhkhfh3sk829ga5zyaz5jr34hfqaz4rgzcmzyulexlnfsf3qkja",
      "value": 546
    }
  ],
  "size": 274,
  "weight": 556,
  "fee": 1807,
  "status": {
    "confirmed": true,
    "block_height": 834460,
    "block_hash": "00000000000000000000484a79b643b2524bbce82e5d8a442013fa5b8905ed98",
    "block_time": 1710307468
  },
  "hex": "02000000000101bf35335744b485686db014ce136eb6b66a6ed4aa7c06770e292e8ed297c18e2e0100000000ffffffff0122020000000000002251206ae861785fbdae9bc6163a8a8ed044e8a921c6b7483a2a8d02c6c44e7f26fcd30340b15f20a482099b4065a312cdad27522d057a824648a24c49b9430b38917b68ce481d51739de3b7f10ba0c8b3e4761501837bd5488aa158f9552ee5b89e019b244d20a3ed60676721ebaf610bb9ef8284bfdc3115305efc02496780444f910c24bff3ac0063036f7264010118746578742f706c61696e3b636861727365743d7574662d3800073030372e6274636821c0fd409ad511758e81df4d2d0a2798ae74e4a32b94ead6fc2e8c8f070bdb6b809700000000"
}