{
  "txid": "9301a7089fa335c83f736a448d3cc32795d206dfafbab5d952e80554a2814e95",
  "version": 2,
  "locktime": 0,
  "vin": [
    {
      "txid": "acc3ba00869acb582a3f2904ce3a11dd3779350ce234063fc7d0959246213364",
      "vout": 212,
      "prevout": {
        "scriptpubkey": "5120241f038f5b321f93a608061ad512d6899ffaf66ce186e50b2fe6a88f22a5bdc2",
        "scriptpubkey_asm": "OP_PUSHNUM_1 OP_PUSHBYTES_32 241f038f5b321f93a608061ad512d6899ffaf66ce186e50b2fe6a88f22a5bdc2",
        "scriptpubkey_type": "v1_p2tr",
        "scriptpubkey_address": "bc1pys0s8r6mxg0e8fsgqcdd2ykk3x0l4anvuxrw2ze0u65g7g49hhpq2rkscu",
        "value": 1806
      },
      "scriptsig": "",
      "scriptsig_asm": "",
      "witness": [
        "ce0fd730df764542cbaa6a2242ba554b51b5908b1742d720dd05bde4be9c3132cb1862c30476cb2dfb3db79990be2f0105412cd79f34b704c26c2376b34229e3",
        "20ae169e8e4acb085623ce1b25eb4feed10c09158056c4f83227b6aa79251f06b6ac0063036f726401010a746578742f706c61696e00357b2270223a226272632d3230222c226f70223a226d696e74222c227469636b223a22646f6765222c22616d74223a2234323030227d68",
        "c0ae169e8e4acb085623ce1b25eb4feed10c09158056c4f83227b6aa79251f06b6"
      ],
      "is_coinbase": false,
      "sequence": 4261412863
    }
  ],
  "vout": [
    {
      "scriptpubkey": "00147a665de7a370f4c9b372ab1fae587500a5bcbdb4",
      "scriptpubkey_asm": "OP_0 OP_PUSHBYTES_20 7a665de7a370f4c9b372ab1fae587500a5bcbdb4",
      "scriptpubkey_type": "v0_p2wpkh",
      "scriptpubkey_address": "bc1q0fn9mearwr6vnvmj4v06ukr4qzjme0d565dzcx",
      "value": 294
    }
  ],
  "size": 294,
  "weight": 540,
  "fee": 1512,
  "status": {
    "confirmed": true,
    "block_height": 834460,
    "block_hash": "00000000000000000000484a79b643b2524bbce82e5d8a442013fa5b8905ed98",
    "block_time": 1710307468
  },
  "hex": "02000000000101643321469295d0c73f0634e20c357937dd113ace04293f2a58cb9a8600bac3acd400000000fffffffd0126010000000000001600147a665de7a370f4c9b372ab1fae587500a5bcbdb40340ce0fd730df764542cbaa6a2242ba554b51b5908b1742d720dd05bde4be9c3132cb1862c30476cb2dfb3db79990be2f0105412cd79f34b704c26c2376b34229e36d20ae169e8e4acb085623ce1b25eb4feed10c09158056c4f83227b6aa79251f06b6ac0063036f726401010a746578742f706c61696e00357b2270223a226272632d3230222c226f70223a226d696e74222c227469636b223a22646f6765222c22616d74223a2234323030227d6821c0ae169e8e4acb085623ce1b25eb4feed10c09158056c4f83227b6aa79251f06b600000000"
}