{
  "txid": "930d10248d6ef210cecbcc5e26358f1c1eb44a7e56c7514472c548427c239b84",
  "version": 2,
  "locktime": 0,
  "vin": [
    {
      "txid": "3f69fae8ca9bdd774ca5294e86509449f431bb44e2206cae9f7f495b7952d9e2",
      "vout": 17,
      "prevout": {
        "scriptpubkey": "5120bb5cf8873334d88a996a8586f25834c946ba683434771980a7f2ba9348776643",
        "scriptpubkey_asm": "OP_PUSHNUM_1 OP_PUSHBYTES_32 bb5cf8873334d88a996a8586f25834c946ba683434771980a7f2ba9348776643",
        "scriptpubkey_type": "v1_p2tr",
        "scriptpubkey_address": "bc1phdw03penxnvg4xt2skr0ykp5e9rt56p5x3m3nq9872afxjrhvepsmt6kw2",
        "value": 2996
      },
      "scriptsig": "",
      "scriptsig_asm": "",
      "witness": [
        "0bd8c4b99bff430f916689eaf357924564a3d6b4fd0be6272be7d58134d1297feab84efec4970b4aa571a43c8dd3d739ced4d957075e74ce21b8160434339c30",
        "201fbfefb7aaef9c57a48599f327f1698ae1854bc2337c317c6edd9c9454326afcac0063036f726401011e6170706c69636174696f6e2f6a736f6e3b636861727365743d7574662d38004cb77b2270223a22706f772d3230222c226f70223a226d696e74222c227469636b223a2250455045222c22616d74223a2231303030222c22736f6c7574696f6e223a22504550453a334d524d3246744a42504c46315958564766504d33656556746675364446734762623a303030303030303030303030303030303030303139393431613561653132383937363539383134343239323533333030353762306461393666336465613163353a3635393932393937323536227d68",
        "c16b70a06f37e9fa1ff7e7bec8bd1210228b25051d0c17b5264cdd8c73b544f454"
      ],
      "is_coinbase": false,
      "sequence": 4294967295
    }
  ],
  "vout": [
    {
      "scriptpubkey": "a914d86bcd8c487ad519e95c6557e7463d579cce14a287",
      "scriptpubkey_asm": "OP_HASH160 OP_PUSHBYTES_20 d86bcd8c487ad519e95c6557e7463d579cce14a2 OP_EQUAL",
      "scriptpubkey_type": "p2sh",
      "scriptpubkey_address": "3MRM2FtJBPLF1YXVGfPM3eeVtfu6DFsGbb",
      "value": 546
    }
  ],
  "size": 448,
  "weight": 697,
  "fee": 2450,
  "status": {
    "confirmed": true,
    "block_height": 834460,
    "block_hash": "00000000000000000000484a79b643b2524bbce82e5d8a442013fa5b8905ed98",
    "block_time": 1710307468
  },
  "hex": "02000000000101e2d952795b497f9fae6c20e244bb31f4499450864e29a54c77dd9bcae8fa693f1100000000ffffffff01220200000000000017a914d86bcd8c487ad519e95c6557e7463d579cce14a28703400bd8c4b99bff430f916689eaf357924564a3d6b4fd0be6272be7d58134d1297feab84efec4970b4aa571a43c8dd3d739ced4d957075e74ce21b8160434339c30fd0401201fbfefb7aaef9c57a48599f327f1698ae1854bc2337c317c6edd9c9454326afcac0063036f726401011e6170706c69636174696f6e2f6a736f6e3b636861727365743d7574662d38004cb77b2270223a22706f772d3230222c226f70223a226d696e74222c227469636b223a2250455045222c22616d74223a2231303030222c22736f6c7574696f6e223a22504550453a334d524d3246744a42504c46315958564766504d33656556746675364446734762623a303030303030303030303030303030303030303139393431613561653132383937363539383134343239323533333030353762306461393666336465613163353a3635393932393937323536227d6821c16b70a06f37e9fa1ff7e7bec8bd1210228b25051d0c17b5264cdd8c73b544f45400000000"
}