{
  "txid": "930f84256814c4be0be52a186ba1be78ca63ca4d53d9110da0b9b9510465b886",
  "version": 2,
  "locktime": 0,
  "vin": [
    {
      "txid": "d2bcb8137f5e8a10e61a5c866a3e58c4c3b81deb84147035ef816e6a267f1556",
      "vout": 44,
      "prevout": {
        "scriptpubkey": "a91402bed949b41853082ffb6b7c83da526ae8417a7287",
        "scriptpubkey_asm": "OP_HASH160 OP_PUSHBYTES_20 02bed949b41853082ffb6b7c83da526ae8417a72 OP_EQUAL",
        "scriptpubkey_type": "p2sh",
        "scriptpubkey_address": "31wXuLH5AKBWoZsK4VJS5wG75nTUAWYnWf",
        "value": 1000000000
      },
      "scriptsig": "160014046d9192b16e45a93235fc94c30120308b380304",
      "scriptsig_asm": "OP_PUSHBYTES_22 0014046d9192b16e45a93235fc94c30120308b380304",
      "witness": [
        "3045022100cf4c576eda103b8340d22c70a7c877fb0184e02ba6ceffa2ffc707918a5255a402206cee65aa3028b35b3a77f944bf7ced6ed34e9f7134de77bc3568d0a490a2f9a501",
        "03e3e39d22da5b4890c91cc5a912384bfaa8540af0748c576032721dfee464f6f4"
      ],
      "is_coinbase": false,
      "sequence": 4294967295,
      "inner_redeemscript_asm": "OP_0 OP_PUSHBYTES_20 046d9192b16e45a93235fc94c30120308b380304"
    }
  ],
  "vout": [
    {
      "scriptpubkey": "a9142c21151d54bd219dcc4c52e1cb38672dab8e36cc87",
      "scriptpubkey_asm": "OP_HASH160 OP_PUSHBYTES_20 2c21151d54bd219dcc4c52e1cb38672dab8e36cc OP_EQUAL",
      "scriptpubkey_type": "p2sh",
      "scriptpubkey_address": "35iMHbUZeTssxBodiHwEEkb32jpBfVueEL",
      "value": 997305763
    },
    {
      "scriptpubkey": "76a9140937ab6ddce01a588aa7df10b0d32437d53cfaad88ac",
      "scriptpubkey_asm": "OP_DUP OP_HASH160 OP_PUSHBYTES_20 0937ab6ddce01a588aa7df10b0d32437d53cfaad OP_EQUALVERIFY OP_CHECKSIG",
      "scriptpubkey_type": "p2pkh",
      "scriptpubkey_address": "1qjmiqD8Sig5myLyNjhs4Yc82gSUj3twg",
      "value": 2691562
    }
  ],
  "size": 250,
  "weight": 670,
  "fee": 2675,
  "status": {
    "confirmed": true,
    "block_height": 834638,
    "block_hash": "000000000000000000025f742c626208ac87e0b7d15054abb4a19ca2d735a54e",
    "block_time": 1710405325
  },
  "hex": "0200000000010156157f266a6e81ef35701484eb1db8c3c4583e6a865c1ae6108a5e7f13b8bcd22c00000017160014046d9192b16e45a93235fc94c30120308b380304ffffffff02a3ad713b0000000017a9142c21151d54bd219dcc4c52e1cb38672dab8e36cc87ea112900000000001976a9140937ab6ddce01a588aa7df10b0d32437d53cfaad88ac02483045022100cf4c576eda103b8340d22c70a7c877fb0184e02ba6ceffa2ffc707918a5255a402206cee65aa3028b35b3a77f944bf7ced6ed34e9f7134de77bc3568d0a490a2f9a5012103e3e39d22da5b4890c91cc5a912384bfaa8540af0748c576032721dfee464f6f400000000"
}