{
  "txid": "9320514680fa08c400c18ffe3de8a7378add2ac7c5a282fb8e8a5c0d2605fce1",
  "version": 1,
  "locktime": 0,
  "vin": [
    {
      "txid": "b5f6d347ed5a23919d8a9673f797f529da8e5399989a104dbe6cb6ac175863c2",
      "vout": 0,
      "prevout": {
        "scriptpubkey": "001412f0dd7639f482655816d60ba2e07d42a2502155",
        "scriptpubkey_asm": "OP_0 OP_PUSHBYTES_20 12f0dd7639f482655816d60ba2e07d42a2502155",
        "scriptpubkey_type": "v0_p2wpkh",
        "scriptpubkey_address": "bc1qztcd6a3e7jpx2kqk6c969crag239qg24wgcdsc",
        "value": 1300000
      },
      "scriptsig": "",
      "scriptsig_asm": "",
      "witness": [
        "3045022100f7bcaf97a1ef7146ddabc421d6bd765c01bdad8f9b37f9937af50efd2a56ad3d02202d5c2e41360591b62f40b209ea43f46ec58ce23265344d85fbebafbb182a463401",
        "0291e009b3791a4cc7dc9bd5c01b704b8430a9c013e7e8d1eb8025710624673247"
      ],
      "is_coinbase": false,
      "sequence": 4294967295
    }
  ],
  "vout": [
    {
      "scriptpubkey": "00149a450d9bfa353826cc213f2626838cf9f0c12970",
      "scriptpubkey_asm": "OP_0 OP_PUSHBYTES_20 9a450d9bfa353826cc213f2626838cf9f0c12970",
      "scriptpubkey_type": "v0_p2wpkh",
      "scriptpubkey_address": "bc1qnfzsmxl6x5uzdnpp8unzdquvl8cvz2ts4fng39",
      "value": 1298460
    }
  ],
  "size": 192,
  "weight": 438,
  "fee": 1540,
  "status": {
    "confirmed": true,
    "block_height": 834460,
    "block_hash": "00000000000000000000484a79b643b2524bbce82e5d8a442013fa5b8905ed98",
    "block_time": 1710307468
  },
  "hex": "01000000000101c2635817acb66cbe4d109a9899538eda29f597f773968a9d91235aed47d3f6b50000000000ffffffff011cd01300000000001600149a450d9bfa353826cc213f2626838cf9f0c1297002483045022100f7bcaf97a1ef7146ddabc421d6bd765c01bdad8f9b37f9937af50efd2a56ad3d02202d5c2e41360591b62f40b209ea43f46ec58ce23265344d85fbebafbb182a463401210291e009b3791a4cc7dc9bd5c01b704b8430a9c013e7e8d1eb802571062467324700000000"
}