{
  "txid": "9344199726f0eb987bef254f511032b98a917b2a7a938bc12a10d48a73504bbc",
  "version": 1,
  "locktime": 0,
  "vin": [
    {
      "txid": "45a0223b4bd32c23e11b472e4e44e7bb954bdd7f108d7f0f6ace7b3e77a8da23",
      "vout": 0,
      "prevout": {
        "scriptpubkey": "a91479454a378507af609c0e16139cfa76321c65315087",
        "scriptpubkey_asm": "OP_HASH160 OP_PUSHBYTES_20 79454a378507af609c0e16139cfa76321c653150 OP_EQUAL",
        "scriptpubkey_type": "p2sh",
        "scriptpubkey_address": "3CkEh6uGAynCxf9xD53pNSwEkuxPxDcwWQ",
        "value": 7487735
      },
      "scriptsig": "1600142d34cec198b1d376611bc7ae8244086e070f563b",
      "scriptsig_asm": "OP_PUSHBYTES_22 00142d34cec198b1d376611bc7ae8244086e070f563b",
      "witness": [
        "3045022100d7eae4d9525fe5ee59e84f8812369e9a99e1b5abcc22d055616ec7af28acd33002200e120d512560a77810a329b3dcba839739c807bf19e6fd8f366141c78c8f6f6e01",
        "03dc0992fb894cb29b0c0ddc0c9b4509f1e9a1f02337c3524154e3b9081cd29e10"
      ],
      "is_coinbase": false,
      "sequence": 4294967295,
      "inner_redeemscript_asm": "OP_0 OP_PUSHBYTES_20 2d34cec198b1d376611bc7ae8244086e070f563b"
    }
  ],
  "vout": [
    {
      "scriptpubkey": "00142ffc21441b13318cc65bf75f0d26e4563967c8c0",
      "scriptpubkey_asm": "OP_0 OP_PUSHBYTES_20 2ffc21441b13318cc65bf75f0d26e4563967c8c0",
      "scriptpubkey_type": "v0_p2wpkh",
      "scriptpubkey_address": "bc1q9l7zz3qmzvcce3jm7a0s6fhy2cuk0jxqnxhj4v",
      "value": 2726479
    },
    {
      "scriptpubkey": "0014195970673353dc6295a89226c4fe91a81f162afb",
      "scriptpubkey_asm": "OP_0 OP_PUSHBYTES_20 195970673353dc6295a89226c4fe91a81f162afb",
      "scriptpubkey_type": "v0_p2wpkh",
      "scriptpubkey_address": "bc1qr9vhqeen20wx99dgjgnvfl534q03v2hm64gagg",
      "value": 272316
    },
    {
      "scriptpubkey": "a9149831fb3aa7d271084c504ba45fd2474e53e1bdff87",
      "scriptpubkey_asm": "OP_HASH160 OP_PUSHBYTES_20 9831fb3aa7d271084c504ba45fd2474e53e1bdff OP_EQUAL",
      "scriptpubkey_type": "p2sh",
      "scriptpubkey_address": "3FZkWU6ei5UBc5wmW5RmT8eToyfXHFZUQq",
      "value": 33521
    },
    {
      "scriptpubkey": "0014e432e5edb603d11ce1d13335f8ead148a822e52c",
      "scriptpubkey_asm": "OP_0 OP_PUSHBYTES_20 e432e5edb603d11ce1d13335f8ead148a822e52c",
      "scriptpubkey_type": "v0_p2wpkh",
      "scriptpubkey_address": "bc1qusewtmdkq0g3ecw3xv6l36k3fz5z9efvvz7tqf",
      "value": 842462
    },
    {
      "scriptpubkey": "76a9149a35128a07d269c6f6d850268331df307b67214e88ac",
      "scriptpubkey_asm": "OP_DUP OP_HASH160 OP_PUSHBYTES_20 9a35128a07d269c6f6d850268331df307b67214e OP_EQUALVERIFY OP_CHECKSIG",
      "scriptpubkey_type": "p2pkh",
      "scriptpubkey_address": "1F4Ne5Y17Q5ngNGNVKnzTmoKjocuKCNjSx",
      "value": 68106
    },
    {
      "scriptpubkey": "0014dcdb96fb5f7f3f3093a3eac4b1c214e3b351205a",
      "scriptpubkey_asm": "OP_0 OP_PUSHBYTES_20 dcdb96fb5f7f3f3093a3eac4b1c214e3b351205a",
      "scriptpubkey_type": "v0_p2wpkh",
      "scriptpubkey_address": "bc1qmnded76l0ulnpyaratztrss5uwe4zgz6apqr28",
      "value": 27236
    },
    {
      "scriptpubkey": "0014f04c707a2ab1d96a5cafdef31ddc6f4e25fe6143",
      "scriptpubkey_asm": "OP_0 OP_PUSHBYTES_20 f04c707a2ab1d96a5cafdef31ddc6f4e25fe6143",
      "scriptpubkey_type": "v0_p2wpkh",
      "scriptpubkey_address": "bc1q7px8q732k8vk5h90mme3mhr0fcjluc2r9a08e0",
      "value": 1777105
    },
    {
      "scriptpubkey": "00146ac902d3eb5799bceec97e43c62498e92a16f47a",
      "scriptpubkey_asm": "OP_0 OP_PUSHBYTES_20 6ac902d3eb5799bceec97e43c62498e92a16f47a",
      "scriptpubkey_type": "v0_p2wpkh",
      "scriptpubkey_address": "bc1qdtys95lt27vmemkf0epuvfycay4pdar6eknpnj",
      "value": 385389
    },
    {
      "scriptpubkey": "00148696e35f78627766bf4d7617081fdfa3a657c56d",
      "scriptpubkey_asm": "OP_0 OP_PUSHBYTES_20 8696e35f78627766bf4d7617081fdfa3a657c56d",
      "scriptpubkey_type": "v0_p2wpkh",
      "scriptpubkey_address": "bc1qs6twxhmcvfmkd06dwctss87l5wn903td9u9lzj",
      "value": 78169
    },
    {
      "scriptpubkey": "0014b0726b426199dd0c96078f6e1212285e1e80654e",
      "scriptpubkey_asm": "OP_0 OP_PUSHBYTES_20 b0726b426199dd0c96078f6e1212285e1e80654e",
      "scriptpubkey_type": "v0_p2wpkh",
      "scriptpubkey_address": "bc1qkpexksnpn8wse9s83ahpyy3gtc0gqe2wc3vnqz",
      "value": 307246
    },
    {
      "scriptpubkey": "00146472b7e6b1764b79a46a765add45bcf36b80bda2",
      "scriptpubkey_asm": "OP_0 OP_PUSHBYTES_20 6472b7e6b1764b79a46a765add45bcf36b80bda2",
      "scriptpubkey_type": "v0_p2wpkh",
      "scriptpubkey_address": "bc1qv3et0e43we9hnfr2wedd63du7d4cp0dzhkwxv5",
      "value": 588410
    },
    {
      "scriptpubkey": "0014b7c30e3f91f5e3c95a503fa5dcecda8c8b8f39e0",
      "scriptpubkey_asm": "OP_0 OP_PUSHBYTES_20 b7c30e3f91f5e3c95a503fa5dcecda8c8b8f39e0",
      "scriptpubkey_type": "v0_p2wpkh",
      "scriptpubkey_address": "bc1qklpsu0u37h3ujkjs87jaemx63j9c7w0qvn0sv9",
      "value": 24601
    },
    {
      "scriptpubkey": "00146c86fe974d4677f481cf8964fc14346c023da12d",
      "scriptpubkey_asm": "OP_0 OP_PUSHBYTES_20 6c86fe974d4677f481cf8964fc14346c023da12d",
      "scriptpubkey_type": "v0_p2wpkh",
      "scriptpubkey_address": "bc1qdjr0a96dgemlfqw039j0c9p5dsprmgfd3383tx",
      "value": 108949
    },
    {
      "scriptpubkey": "76a914e6c28736df870345bef0daf46855c5f4c58c529588ac",
      "scriptpubkey_asm": "OP_DUP OP_HASH160 OP_PUSHBYTES_20 e6c28736df870345bef0daf46855c5f4c58c5295 OP_EQUALVERIFY OP_CHECKSIG",
      "scriptpubkey_type": "p2pkh",
      "scriptpubkey_address": "1N39TBCxV7cjxzpJvZHMqfLvqhy6G4jJYM",
      "value": 164161
    },
    {
      "scriptpubkey": "0014b442523c02d6e49f34e5e0a829d79fd522eca90a",
      "scriptpubkey_asm": "OP_0 OP_PUSHBYTES_20 b442523c02d6e49f34e5e0a829d79fd522eca90a",
      "scriptpubkey_type": "v0_p2wpkh",
      "scriptpubkey_address": "bc1qk3p9y0qz6mjf7d89uz5zn4ul653we2g27w0kkm",
      "value": 68091
    }
  ],
  "size": 656,
  "weight": 2294,
  "fee": 15494,
  "status": {
    "confirmed": true,
    "block_height": 834638,
    "block_hash": "000000000000000000025f742c626208ac87e0b7d15054abb4a19ca2d735a54e",
    "block_time": 1710405325
  },
  "hex": "0100000000010123daa8773e7bce6a0f7f8d107fdd4b95bbe7444e2e471be1232cd34b3b22a04500000000171600142d34cec198b1d376611bc7ae8244086e070f563bffffffff0f4f9a2900000000001600142ffc21441b13318cc65bf75f0d26e4563967c8c0bc27040000000000160014195970673353dc6295a89226c4fe91a81f162afbf18200000000000017a9149831fb3aa7d271084c504ba45fd2474e53e1bdff87deda0c0000000000160014e432e5edb603d11ce1d13335f8ead148a822e52c0a0a0100000000001976a9149a35128a07d269c6f6d850268331df307b67214e88ac646a000000000000160014dcdb96fb5f7f3f3093a3eac4b1c214e3b351205ad11d1b0000000000160014f04c707a2ab1d96a5cafdef31ddc6f4e25fe61436de10500000000001600146ac902d3eb5799bceec97e43c62498e92a16f47a59310100000000001600148696e35f78627766bf4d7617081fdfa3a657c56d2eb0040000000000160014b0726b426199dd0c96078f6e1212285e1e80654e7afa0800000000001600146472b7e6b1764b79a46a765add45bcf36b80bda21960000000000000160014b7c30e3f91f5e3c95a503fa5dcecda8c8b8f39e095a90100000000001600146c86fe974d4677f481cf8964fc14346c023da12d41810200000000001976a914e6c28736df870345bef0daf46855c5f4c58c529588acfb09010000000000160014b442523c02d6e49f34e5e0a829d79fd522eca90a02483045022100d7eae4d9525fe5ee59e84f8812369e9a99e1b5abcc22d055616ec7af28acd33002200e120d512560a77810a329b3dcba839739c807bf19e6fd8f366141c78c8f6f6e012103dc0992fb894cb29b0c0ddc0c9b4509f1e9a1f02337c3524154e3b9081cd29e1000000000"
}