{
  "txid": "934548bb4b93faabff276b5ad2fc6109a883eadf8ad35c2d27fb0b839903c90e",
  "version": 1,
  "locktime": 0,
  "vin": [
    {
      "txid": "0f220d4ff367ba778eeb336cc312978df378a820c0b7e2a7720dce101fe00700",
      "vout": 1,
      "prevout": {
        "scriptpubkey": "001422ff9e94fe0e2086503ae67bfad8744137e7d705",
        "scriptpubkey_asm": "OP_0 OP_PUSHBYTES_20 22ff9e94fe0e2086503ae67bfad8744137e7d705",
        "scriptpubkey_type": "v0_p2wpkh",
        "scriptpubkey_address": "bc1qytlea987pcsgv5p6ueal4kr5gym704c94c825w",
        "value": 6657
      },
      "scriptsig": "",
      "scriptsig_asm": "",
      "witness": [
        "3044022065013b54ef3fb66a0663c2b6e36229f9bea9bd4badf0985e7d57a06e6e46982102205af83b7e37603a257caf19a39f324bc09fd49c0e469540b615d84d706004cd5f01",
        "032da0a9775a0f0dc7173555c0ea176630e0dd337bfd28218d24ba2ad0b351525d"
      ],
      "is_coinbase": false,
      "sequence": 4294967295
    },
    {
      "txid": "4638d33e34fa7ef45d7e87bd2a03cbfc813b6d9d6b0b263722474794c9231d41",
      "vout": 1,
      "prevout": {
        "scriptpubkey": "001422ff9e94fe0e2086503ae67bfad8744137e7d705",
        "scriptpubkey_asm": "OP_0 OP_PUSHBYTES_20 22ff9e94fe0e2086503ae67bfad8744137e7d705",
        "scriptpubkey_type": "v0_p2wpkh",
        "scriptpubkey_address": "bc1qytlea987pcsgv5p6ueal4kr5gym704c94c825w",
        "value": 23839
      },
      "scriptsig": "",
      "scriptsig_asm": "",
      "witness": [
        "304402207a2c802d47610d9b5041a887a789c886952e5fc812db97596ce8276234d28723022030a9c9cffaf496b348d36055e483e0631305bd59b127f4d005ae6a80d4f51e5401",
        "032da0a9775a0f0dc7173555c0ea176630e0dd337bfd28218d24ba2ad0b351525d"
      ],
      "is_coinbase": false,
      "sequence": 4294967295
    },
    {
      "txid": "8089e4d6eb522d983a8b5ff3fbfc121c25ef97aba5dfd65b1c39b34aabfdf5b5",
      "vout": 1,
      "prevout": {
        "scriptpubkey": "001422ff9e94fe0e2086503ae67bfad8744137e7d705",
        "scriptpubkey_asm": "OP_0 OP_PUSHBYTES_20 22ff9e94fe0e2086503ae67bfad8744137e7d705",
        "scriptpubkey_type": "v0_p2wpkh",
        "scriptpubkey_address": "bc1qytlea987pcsgv5p6ueal4kr5gym704c94c825w",
        "value": 21334
      },
      "scriptsig": "",
      "scriptsig_asm": "",
      "witness": [
        "3045022100db71c4cc0d900da0398206445029d9f61576696dd8b80687d25de346ba992f5b022014556c861e07c0680c06074d2050a3e055bc99712bc1d5bb43856544214173af01",
        "032da0a9775a0f0dc7173555c0ea176630e0dd337bfd28218d24ba2ad0b351525d"
      ],
      "is_coinbase": false,
      "sequence": 4294967295
    }
  ],
  "vout": [
    {
      "scriptpubkey": "76a9146f4847956a8ccbf9bce8da287b07f01c0470384e88ac",
      "scriptpubkey_asm": "OP_DUP OP_HASH160 OP_PUSHBYTES_20 6f4847956a8ccbf9bce8da287b07f01c0470384e OP_EQUALVERIFY OP_CHECKSIG",
      "scriptpubkey_type": "p2pkh",
      "scriptpubkey_address": "1B9QbNRuJqMyeMEMxqTWoJ4MN1uuM5zCLv",
      "value": 45107
    }
  ],
  "size": 491,
  "weight": 992,
  "fee": 6723,
  "status": {
    "confirmed": true,
    "block_height": 834638,
    "block_hash": "000000000000000000025f742c626208ac87e0b7d15054abb4a19ca2d735a54e",
    "block_time": 1710405325
  },
  "hex": "010000000001030007e01f10ce0d72a7e2b7c020a878f38d9712c36c33eb8e77ba67f34f0d220f0100000000ffffffff411d23c99447472237260b6b9d6d3b81fccb032abd877e5df47efa343ed338460100000000ffffffffb5f5fdab4ab3391c5bd6dfa5ab97ef251c12fcfbf35f8b3a982d52ebd6e489800100000000ffffffff0133b00000000000001976a9146f4847956a8ccbf9bce8da287b07f01c0470384e88ac02473044022065013b54ef3fb66a0663c2b6e36229f9bea9bd4badf0985e7d57a06e6e46982102205af83b7e37603a257caf19a39f324bc09fd49c0e469540b615d84d706004cd5f0121032da0a9775a0f0dc7173555c0ea176630e0dd337bfd28218d24ba2ad0b351525d0247304402207a2c802d47610d9b5041a887a789c886952e5fc812db97596ce8276234d28723022030a9c9cffaf496b348d36055e483e0631305bd59b127f4d005ae6a80d4f51e540121032da0a9775a0f0dc7173555c0ea176630e0dd337bfd28218d24ba2ad0b351525d02483045022100db71c4cc0d900da0398206445029d9f61576696dd8b80687d25de346ba992f5b022014556c861e07c0680c06074d2050a3e055bc99712bc1d5bb43856544214173af0121032da0a9775a0f0dc7173555c0ea176630e0dd337bfd28218d24ba2ad0b351525d00000000"
}