{
  "txid": "934c00af139fb1784417969cb765dd19640814270530dd0a21ed88450f041fb0",
  "version": 2,
  "locktime": 0,
  "vin": [
    {
      "txid": "e3f35da49c00a93648c637bcad54603b7075b93880155a544ca18ad37e470a3a",
      "vout": 332,
      "prevout": {
        "scriptpubkey": "0014d32c190056b4c428d9806d01a229b295896646a5",
        "scriptpubkey_asm": "OP_0 OP_PUSHBYTES_20 d32c190056b4c428d9806d01a229b295896646a5",
        "scriptpubkey_type": "v0_p2wpkh",
        "scriptpubkey_address": "bc1q6vkpjqzkknzz3kvqd5q6y2djjkykv349zd90n7",
        "value": 178126
      },
      "scriptsig": "",
      "scriptsig_asm": "",
      "witness": [
        "304402201614bce0c76a8f481511a483850a90ca188b3f336addde31f454606f7b9a7cdd022042e0717a56b9d67617bc2f25ec87d5083922985781535b418e301556fbd3825801",
        "03a428cc6cb4011dd4ff293045ce74f3e8fe8edd6e5d768a248265cbd016e29551"
      ],
      "is_coinbase": false,
      "sequence": 4294967293
    }
  ],
  "vout": [
    {
      "scriptpubkey": "001436b8294b02090b39cea8d8719ee5270e3733c301",
      "scriptpubkey_asm": "OP_0 OP_PUSHBYTES_20 36b8294b02090b39cea8d8719ee5270e3733c301",
      "scriptpubkey_type": "v0_p2wpkh",
      "scriptpubkey_address": "bc1qx6uzjjczpy9nnn4gmpceaef8pcmn8scps4ygtt",
      "value": 176670
    }
  ],
  "size": 191,
  "weight": 437,
  "fee": 1456,
  "status": {
    "confirmed": true,
    "block_height": 834552,
    "block_hash": "00000000000000000001dd0468a70c94f619251d286585cff57aeb4bd9ede330",
    "block_time": 1710355598
  },
  "hex": "020000000001013a0a477ed38aa14c545a158038b975703b6054adbc37c64836a9009ca45df3e34c01000000fdffffff011eb202000000000016001436b8294b02090b39cea8d8719ee5270e3733c3010247304402201614bce0c76a8f481511a483850a90ca188b3f336addde31f454606f7b9a7cdd022042e0717a56b9d67617bc2f25ec87d5083922985781535b418e301556fbd38258012103a428cc6cb4011dd4ff293045ce74f3e8fe8edd6e5d768a248265cbd016e2955100000000"
}