{
  "txid": "935171cc550745c318b2718afd7cc0b8d5fdf308f69a81136498bfc35a30f30d",
  "version": 1,
  "locktime": 0,
  "vin": [
    {
      "txid": "8f9a30701a19b8dba48b63365ac52f96872cc5657eaca65a55343d56ead3e39e",
      "vout": 13,
      "prevout": {
        "scriptpubkey": "00142b67f8cb36702fd32fb5aadfeaa25fee1068a5a8",
        "scriptpubkey_asm": "OP_0 OP_PUSHBYTES_20 2b67f8cb36702fd32fb5aadfeaa25fee1068a5a8",
        "scriptpubkey_type": "v0_p2wpkh",
        "scriptpubkey_address": "bc1q9dnl3jekwqhaxta44t074gjlacgx3fdgza8dgk",
        "value": 54130509
      },
      "scriptsig": "",
      "scriptsig_asm": "",
      "witness": [
        "304402204c0459ac510844e876e0780c80b00de9b7480de5970e028884a3ac309cc0e0340220051a82f012df797b24cd0f691bfa937b763e0db5e4f512cdbecb7df91543a3dc01",
        "02ee3a5f9fb8d76f7a2f11a54ca6d14ff40fa01306408bb3a654bb4f1d0e07a05b"
      ],
      "is_coinbase": false,
      "sequence": 4294967295
    }
  ],
  "vout": [
    {
      "scriptpubkey": "76a9147d99a9c5139c4976ef11efe806c637f99ea4f28f88ac",
      "scriptpubkey_asm": "OP_DUP OP_HASH160 OP_PUSHBYTES_20 7d99a9c5139c4976ef11efe806c637f99ea4f28f OP_EQUALVERIFY OP_CHECKSIG",
      "scriptpubkey_type": "p2pkh",
      "scriptpubkey_address": "1CT7YgbAjb3E18FJFCC2g1a3ATvzTTrHWS",
      "value": 17559
    },
    {
      "scriptpubkey": "001402cfa04db55339a3218ee31d4d61c0018b7d4307",
      "scriptpubkey_asm": "OP_0 OP_PUSHBYTES_20 02cfa04db55339a3218ee31d4d61c0018b7d4307",
      "scriptpubkey_type": "v0_p2wpkh",
      "scriptpubkey_address": "bc1qqt86qnd42vu6xgvwuvw56cwqqx9h6sc87jhpyt",
      "value": 4117385
    },
    {
      "scriptpubkey": "00140863c5364b99ba3984339de79209b782cceab636",
      "scriptpubkey_asm": "OP_0 OP_PUSHBYTES_20 0863c5364b99ba3984339de79209b782cceab636",
      "scriptpubkey_type": "v0_p2wpkh",
      "scriptpubkey_address": "bc1qpp3u2djtnxarnppnnhneyzdhstxw4d3krm0jxm",
      "value": 13715
    },
    {
      "scriptpubkey": "001484a0c253b8d4f403b9071b21159ce98f13ae15ca",
      "scriptpubkey_asm": "OP_0 OP_PUSHBYTES_20 84a0c253b8d4f403b9071b21159ce98f13ae15ca",
      "scriptpubkey_type": "v0_p2wpkh",
      "scriptpubkey_address": "bc1qsjsvy5ac6n6q8wg8rvs3t88f3uf6u9w226prdt",
      "value": 33990
    },
    {
      "scriptpubkey": "001471a93222b4fa11f0a8731242340cc53a48e87468",
      "scriptpubkey_asm": "OP_0 OP_PUSHBYTES_20 71a93222b4fa11f0a8731242340cc53a48e87468",
      "scriptpubkey_type": "v0_p2wpkh",
      "scriptpubkey_address": "bc1qwx5nyg45lgglp2rnzfprgrx98fywsargfz06zh",
      "value": 33999
    },
    {
      "scriptpubkey": "0014c2be8ba99b712ffb068ff1d4cdc8faa6fa1c82b5",
      "scriptpubkey_asm": "OP_0 OP_PUSHBYTES_20 c2be8ba99b712ffb068ff1d4cdc8faa6fa1c82b5",
      "scriptpubkey_type": "v0_p2wpkh",
      "scriptpubkey_address": "bc1qc2lgh2vmwyhlkp50782vmj865mapeq44yjkdm3",
      "value": 3584361
    },
    {
      "scriptpubkey": "76a914163fd900a7abbf66855ed3155d1d82e4a65cd21688ac",
      "scriptpubkey_asm": "OP_DUP OP_HASH160 OP_PUSHBYTES_20 163fd900a7abbf66855ed3155d1d82e4a65cd216 OP_EQUALVERIFY OP_CHECKSIG",
      "scriptpubkey_type": "p2pkh",
      "scriptpubkey_address": "132eMSAcX5ngnhs53qdptaNN2yL1MnqR9A",
      "value": 144820
    },
    {
      "scriptpubkey": "0014e3c66a620f4b89f168e7a73afbe8e19a6f2fbc0a",
      "scriptpubkey_asm": "OP_0 OP_PUSHBYTES_20 e3c66a620f4b89f168e7a73afbe8e19a6f2fbc0a",
      "scriptpubkey_type": "v0_p2wpkh",
      "scriptpubkey_address": "bc1qu0rx5cs0fwylz6885ua0h68pnfhjl0q2zm407h",
      "value": 595263
    },
    {
      "scriptpubkey": "0014caf81f2d70756034d4e1f782b0689ea825028e57",
      "scriptpubkey_asm": "OP_0 OP_PUSHBYTES_20 caf81f2d70756034d4e1f782b0689ea825028e57",
      "scriptpubkey_type": "v0_p2wpkh",
      "scriptpubkey_address": "bc1qetup7ttsw4srf48p77ptq6y74qjs9rjhe227hk",
      "value": 37349717
    },
    {
      "scriptpubkey": "a914da70ddefec32877f5f0b461afeb0ac98c4bcd3f187",
      "scriptpubkey_asm": "OP_HASH160 OP_PUSHBYTES_20 da70ddefec32877f5f0b461afeb0ac98c4bcd3f1 OP_EQUAL",
      "scriptpubkey_type": "p2sh",
      "scriptpubkey_address": "3Mc2SVgp36ecJgQf7Jixb7uVD5v6fWAncT",
      "value": 60849
    },
    {
      "scriptpubkey": "a914f54deabe1104ca54b717f33806b58fa781c540ef87",
      "scriptpubkey_asm": "OP_HASH160 OP_PUSHBYTES_20 f54deabe1104ca54b717f33806b58fa781c540ef OP_EQUAL",
      "scriptpubkey_type": "p2sh",
      "scriptpubkey_address": "3Q44pJoJRSgFmeEXmcoMEgRRiUCbm4S2jJ",
      "value": 319526
    },
    {
      "scriptpubkey": "0014b04be6b597cdaa728e2e46245c1a9fccbffcdf6a",
      "scriptpubkey_asm": "OP_0 OP_PUSHBYTES_20 b04be6b597cdaa728e2e46245c1a9fccbffcdf6a",
      "scriptpubkey_type": "v0_p2wpkh",
      "scriptpubkey_address": "bc1qkp97ddvhek489r3wgcj9cx5lejllehm2zjxfrf",
      "value": 54143
    },
    {
      "scriptpubkey": "00148e62dd4b6bed5615f8cc7f94c94983709909447d",
      "scriptpubkey_asm": "OP_0 OP_PUSHBYTES_20 8e62dd4b6bed5615f8cc7f94c94983709909447d",
      "scriptpubkey_type": "v0_p2wpkh",
      "scriptpubkey_address": "bc1q3e3d6jmta4tpt7xv072vjjvrwzvsj3ra5kke3m",
      "value": 7791955
    }
  ],
  "size": 571,
  "weight": 1957,
  "fee": 13227,
  "status": {
    "confirmed": true,
    "block_height": 834638,
    "block_hash": "000000000000000000025f742c626208ac87e0b7d15054abb4a19ca2d735a54e",
    "block_time": 1710405325
  },
  "hex": "010000000001019ee3d3ea563d34555aa6ac7e65c52c87962fc55a36638ba4dbb8191a70309a8f0d00000000ffffffff0d97440000000000001976a9147d99a9c5139c4976ef11efe806c637f99ea4f28f88ac89d33e000000000016001402cfa04db55339a3218ee31d4d61c0018b7d430793350000000000001600140863c5364b99ba3984339de79209b782cceab636c68400000000000016001484a0c253b8d4f403b9071b21159ce98f13ae15cacf8400000000000016001471a93222b4fa11f0a8731242340cc53a48e8746869b1360000000000160014c2be8ba99b712ffb068ff1d4cdc8faa6fa1c82b5b4350200000000001976a914163fd900a7abbf66855ed3155d1d82e4a65cd21688ac3f15090000000000160014e3c66a620f4b89f168e7a73afbe8e19a6f2fbc0a55e9390200000000160014caf81f2d70756034d4e1f782b0689ea825028e57b1ed00000000000017a914da70ddefec32877f5f0b461afeb0ac98c4bcd3f18726e004000000000017a914f54deabe1104ca54b717f33806b58fa781c540ef877fd3000000000000160014b04be6b597cdaa728e2e46245c1a9fccbffcdf6a53e57600000000001600148e62dd4b6bed5615f8cc7f94c94983709909447d0247304402204c0459ac510844e876e0780c80b00de9b7480de5970e028884a3ac309cc0e0340220051a82f012df797b24cd0f691bfa937b763e0db5e4f512cdbecb7df91543a3dc012102ee3a5f9fb8d76f7a2f11a54ca6d14ff40fa01306408bb3a654bb4f1d0e07a05b00000000"
}