{
  "txid": "9356d379aaad972d8ccd01b42526052de6992979bf7cbfff7864aa33f86c42e1",
  "version": 2,
  "locktime": 834462,
  "vin": [
    {
      "txid": "1d6e3d1c386fca2f43fd2e9952cea3d4582cf4dfba9fae3de88b011e052e0ad5",
      "vout": 13,
      "prevout": {
        "scriptpubkey": "00144852d7d80edda0c9b76307651df9ca5a169214a6",
        "scriptpubkey_asm": "OP_0 OP_PUSHBYTES_20 4852d7d80edda0c9b76307651df9ca5a169214a6",
        "scriptpubkey_type": "v0_p2wpkh",
        "scriptpubkey_address": "bc1qfpfd0kqwmksvndmrqaj3m7w2tgtfy99xdzj8e3",
        "value": 299000
      },
      "scriptsig": "",
      "scriptsig_asm": "",
      "witness": [
        "30440220082f879d9b634c226b26295eab28ae23db0b1b08cc1583f501ee1a8806548fd602203c17bce1d08bf410b125d690a4aeb8a3e9448d6a8936f06c716e12e284fa454001",
        "02f0320449bfc47c8dc5ee08e115eff1a9c26023a9448c7bebaa4efe1bd2ea943c"
      ],
      "is_coinbase": false,
      "sequence": 4294967294
    },
    {
      "txid": "6fcf0ca1e9cdd25ea1228000be87bd293f595a2fc232964a3f47752ece52c80f",
      "vout": 20,
      "prevout": {
        "scriptpubkey": "0014cd8d8850a78030546549c41130748c89b75c3e1c",
        "scriptpubkey_asm": "OP_0 OP_PUSHBYTES_20 cd8d8850a78030546549c41130748c89b75c3e1c",
        "scriptpubkey_type": "v0_p2wpkh",
        "scriptpubkey_address": "bc1qekxcs598sqc9ge2fcsgnqayv3xm4c0suj5y5tn",
        "value": 5249897
      },
      "scriptsig": "",
      "scriptsig_asm": "",
      "witness": [
        "304402207bebb86927586a34d85978c0faa1a7b2ec88d6557bf613ec7a7fe72ced92ab7902205654a694ecae9d6f55b111ac630fee9a93afbf0310c0d20bb9dd3f48a1a7175201",
        "032e0e74c9433720c0c5b6bcd149b02349621f5f58760e4007c048ccf3acf055de"
      ],
      "is_coinbase": false,
      "sequence": 4294967294
    }
  ],
  "vout": [
    {
      "scriptpubkey": "0014378e69441387b76d253cf8581e3990f3bbb6ce8a",
      "scriptpubkey_asm": "OP_0 OP_PUSHBYTES_20 378e69441387b76d253cf8581e3990f3bbb6ce8a",
      "scriptpubkey_type": "v0_p2wpkh",
      "scriptpubkey_address": "bc1qx78xj3qns7mk6ffulpvpuwvs7wamdn52fuuvsz",
      "value": 5544000
    }
  ],
  "size": 339,
  "weight": 708,
  "fee": 4897,
  "status": {
    "confirmed": true,
    "block_height": 834464,
    "block_hash": "0000000000000000000177a0869a911a2b65c9bdcd5a8bcb02b68f305bee848e",
    "block_time": 1710308296
  },
  "hex": "02000000000102d50a2e051e018be83dae9fbadff42c58d4a3ce52992efd432fca6f381c3d6e1d0d00000000feffffff0fc852ce2e75473f4a9632c22f5a593f29bd87be008022a15ed2cde9a10ccf6f1400000000feffffff014098540000000000160014378e69441387b76d253cf8581e3990f3bbb6ce8a024730440220082f879d9b634c226b26295eab28ae23db0b1b08cc1583f501ee1a8806548fd602203c17bce1d08bf410b125d690a4aeb8a3e9448d6a8936f06c716e12e284fa4540012102f0320449bfc47c8dc5ee08e115eff1a9c26023a9448c7bebaa4efe1bd2ea943c0247304402207bebb86927586a34d85978c0faa1a7b2ec88d6557bf613ec7a7fe72ced92ab7902205654a694ecae9d6f55b111ac630fee9a93afbf0310c0d20bb9dd3f48a1a717520121032e0e74c9433720c0c5b6bcd149b02349621f5f58760e4007c048ccf3acf055de9ebb0c00"
}