{
  "txid": "9397eeaf9f5700aa1a7e468a1b1027c1ce2a34d6a7854a83373a5c0e9427d9d1",
  "version": 2,
  "locktime": 834637,
  "vin": [
    {
      "txid": "6889fe972431d8b19692db52199bc65869e11e6db2ab6f1fe42b1d8ea583c85d",
      "vout": 1,
      "prevout": {
        "scriptpubkey": "00142b2521935f7963978ee49ed6750c09d0d9398bb2",
        "scriptpubkey_asm": "OP_0 OP_PUSHBYTES_20 2b2521935f7963978ee49ed6750c09d0d9398bb2",
        "scriptpubkey_type": "v0_p2wpkh",
        "scriptpubkey_address": "bc1q9vjjry6l093e0rhynmt82rqf6rvnnzajdaj0kv",
        "value": 522811
      },
      "scriptsig": "",
      "scriptsig_asm": "",
      "witness": [
        "3044022061b1e272902efea374fc708d9fad5c663d41bf817ba79aec3a7991fad4a0899f022069f6a3f5229ca2d597d9df888d429d069a6d5f6992e34706f25571c2d878c74201",
        "0244f80509521c0f02d41c4bb5925d0661987b7d894e026ae8c62f8022799df817"
      ],
      "is_coinbase": false,
      "sequence": 4294967293
    }
  ],
  "vout": [
    {
      "scriptpubkey": "00142889aca29040859e5fd0d9c9ef2e583a3b602d1e",
      "scriptpubkey_asm": "OP_0 OP_PUSHBYTES_20 2889aca29040859e5fd0d9c9ef2e583a3b602d1e",
      "scriptpubkey_type": "v0_p2wpkh",
      "scriptpubkey_address": "bc1q9zy6eg5sgzzeuh7sm8y77tjc8gakqtg74tzdhj",
      "value": 41636
    },
    {
      "scriptpubkey": "0014f89048a0dac745f06a23417ff06cb7998d795a2d",
      "scriptpubkey_asm": "OP_0 OP_PUSHBYTES_20 f89048a0dac745f06a23417ff06cb7998d795a2d",
      "scriptpubkey_type": "v0_p2wpkh",
      "scriptpubkey_address": "bc1qlzgy3gx6cazlq63rg9llqm9hnxxhjk3d999qym",
      "value": 38511
    },
    {
      "scriptpubkey": "00148a6f90c38e35481773e1389b83cc0fbb3feac336",
      "scriptpubkey_asm": "OP_0 OP_PUSHBYTES_20 8a6f90c38e35481773e1389b83cc0fbb3feac336",
      "scriptpubkey_type": "v0_p2wpkh",
      "scriptpubkey_address": "bc1q3fhepsuwx4ypwulp8zdc8nq0hvl74sekuqnk5h",
      "value": 360033
    },
    {
      "scriptpubkey": "a914cb57f74799ef6a471a29b30987adb25da429a31387",
      "scriptpubkey_asm": "OP_HASH160 OP_PUSHBYTES_20 cb57f74799ef6a471a29b30987adb25da429a313 OP_EQUAL",
      "scriptpubkey_type": "p2sh",
      "scriptpubkey_address": "3LECUTxyow3YPCHbySgw38NCETmB5aqv1a",
      "value": 37175
    },
    {
      "scriptpubkey": "00141bbf844bacff443ca6725bb5e89d6b0e37783436",
      "scriptpubkey_asm": "OP_0 OP_PUSHBYTES_20 1bbf844bacff443ca6725bb5e89d6b0e37783436",
      "scriptpubkey_type": "v0_p2wpkh",
      "scriptpubkey_address": "bc1qrwlcgjavlazrefnjtw6738ttpcmhsdpk4jv2va",
      "value": 39346
    }
  ],
  "size": 316,
  "weight": 937,
  "fee": 6110,
  "status": {
    "confirmed": true,
    "block_height": 834638,
    "block_hash": "000000000000000000025f742c626208ac87e0b7d15054abb4a19ca2d735a54e",
    "block_time": 1710405325
  },
  "hex": "020000000001015dc883a58e1d2be41f6fabb26d1ee16958c69b1952db9296b1d8312497fe89680100000000fdffffff05a4a20000000000001600142889aca29040859e5fd0d9c9ef2e583a3b602d1e6f96000000000000160014f89048a0dac745f06a23417ff06cb7998d795a2d617e0500000000001600148a6f90c38e35481773e1389b83cc0fbb3feac336379100000000000017a914cb57f74799ef6a471a29b30987adb25da429a31387b2990000000000001600141bbf844bacff443ca6725bb5e89d6b0e3778343602473044022061b1e272902efea374fc708d9fad5c663d41bf817ba79aec3a7991fad4a0899f022069f6a3f5229ca2d597d9df888d429d069a6d5f6992e34706f25571c2d878c74201210244f80509521c0f02d41c4bb5925d0661987b7d894e026ae8c62f8022799df8174dbc0c00"
}