{
  "txid": "939f2e05d65545d6ed3da9468b67f0e94615083403fb86fc4f1a8c276c2cfb86",
  "version": 2,
  "locktime": 0,
  "vin": [
    {
      "txid": "acc3ba00869acb582a3f2904ce3a11dd3779350ce234063fc7d0959246213364",
      "vout": 51,
      "prevout": {
        "scriptpubkey": "5120958e53448a71c0264cc2bbebf51d4fd84fdaae31828f1a04bbccf5f1a4165fd8",
        "scriptpubkey_asm": "OP_PUSHNUM_1 OP_PUSHBYTES_32 958e53448a71c0264cc2bbebf51d4fd84fdaae31828f1a04bbccf5f1a4165fd8",
        "scriptpubkey_type": "v1_p2tr",
        "scriptpubkey_address": "bc1pjk89x3y2w8qzvnxzh04l2820mp8a4t33s2835p9men6lrfqktlvq3pvlsm",
        "value": 1806
      },
      "scriptsig": "",
      "scriptsig_asm": "",
      "witness": [
        "02cd8e731eb27d9401791a7af56d782b6e3b78198bb26e0a616005dc5fafa5c2aa0a43b261c37828f133af07dccfd35e732acdc5dfa208aff94a8657b4dec6e0",
        "2065cdebd94b56658cdb4fe5ccc855f58724a3e49efd0381af703b06725fd79922ac0063036f726401010a746578742f706c61696e00357b2270223a226272632d3230222c226f70223a226d696e74222c227469636b223a22646f6765222c22616d74223a2234323030227d68",
        "c065cdebd94b56658cdb4fe5ccc855f58724a3e49efd0381af703b06725fd79922"
      ],
      "is_coinbase": false,
      "sequence": 4261412863
    }
  ],
  "vout": [
    {
      "scriptpubkey": "00147a665de7a370f4c9b372ab1fae587500a5bcbdb4",
      "scriptpubkey_asm": "OP_0 OP_PUSHBYTES_20 7a665de7a370f4c9b372ab1fae587500a5bcbdb4",
      "scriptpubkey_type": "v0_p2wpkh",
      "scriptpubkey_address": "bc1q0fn9mearwr6vnvmj4v06ukr4qzjme0d565dzcx",
      "value": 294
    }
  ],
  "size": 294,
  "weight": 540,
  "fee": 1512,
  "status": {
    "confirmed": true,
    "block_height": 834460,
    "block_hash": "00000000000000000000484a79b643b2524bbce82e5d8a442013fa5b8905ed98",
    "block_time": 1710307468
  },
  "hex": "02000000000101643321469295d0c73f0634e20c357937dd113ace04293f2a58cb9a8600bac3ac3300000000fffffffd0126010000000000001600147a665de7a370f4c9b372ab1fae587500a5bcbdb4034002cd8e731eb27d9401791a7af56d782b6e3b78198bb26e0a616005dc5fafa5c2aa0a43b261c37828f133af07dccfd35e732acdc5dfa208aff94a8657b4dec6e06d2065cdebd94b56658cdb4fe5ccc855f58724a3e49efd0381af703b06725fd79922ac0063036f726401010a746578742f706c61696e00357b2270223a226272632d3230222c226f70223a226d696e74222c227469636b223a22646f6765222c22616d74223a2234323030227d6821c065cdebd94b56658cdb4fe5ccc855f58724a3e49efd0381af703b06725fd7992200000000"
}