{
  "txid": "93b14882192a4c7a1a3a98118255807c1b7831433401651df0a911c64115fdbe",
  "version": 2,
  "locktime": 0,
  "vin": [
    {
      "txid": "a5254f0e7f9171b5bc979917ca87f6bc8419f71fdc3fb512f37965df3b9420a9",
      "vout": 1,
      "prevout": {
        "scriptpubkey": "00149505822e8afaa3c5d9f1ac3178c54659e3626843",
        "scriptpubkey_asm": "OP_0 OP_PUSHBYTES_20 9505822e8afaa3c5d9f1ac3178c54659e3626843",
        "scriptpubkey_type": "v0_p2wpkh",
        "scriptpubkey_address": "bc1qj5zcyt52l23utk034sch332xt83ky6zrn9tu5j",
        "value": 772644
      },
      "scriptsig": "",
      "scriptsig_asm": "",
      "witness": [
        "304402200dd8ff7b30b46b74d7d0f9f0dc22bbe8e51bfbec0f1f5f8f620a28af4021bc3402201a62b517c09a3aeddf7d2a25b973ecea60572b2fed8c1151791d4677996b1c2801",
        "03d3605b83a1d7a6ad13d0bdda345cfd3643ab4b83f86d88d163baf2de53774a70"
      ],
      "is_coinbase": false,
      "sequence": 4294967295
    }
  ],
  "vout": [
    {
      "scriptpubkey": "76a91426468c9edbbe6080f1cf543636c781ea048b6a7d88ac",
      "scriptpubkey_asm": "OP_DUP OP_HASH160 OP_PUSHBYTES_20 26468c9edbbe6080f1cf543636c781ea048b6a7d OP_EQUALVERIFY OP_CHECKSIG",
      "scriptpubkey_type": "p2pkh",
      "scriptpubkey_address": "14VPC9Abo2TDD88QpffXqVCw6miGUgPYLq",
      "value": 185600
    },
    {
      "scriptpubkey": "0014456b6741148fb0c811e11c3bf6497b628c657e7f",
      "scriptpubkey_asm": "OP_0 OP_PUSHBYTES_20 456b6741148fb0c811e11c3bf6497b628c657e7f",
      "scriptpubkey_type": "v0_p2wpkh",
      "scriptpubkey_address": "bc1qg44kwsg537cvsy0prsalvjtmv2xx2lnlpg0k5u",
      "value": 583115
    }
  ],
  "size": 225,
  "weight": 573,
  "fee": 3929,
  "status": {
    "confirmed": true,
    "block_height": 834638,
    "block_hash": "000000000000000000025f742c626208ac87e0b7d15054abb4a19ca2d735a54e",
    "block_time": 1710405325
  },
  "hex": "02000000000101a920943bdf6579f312b53fdc1ff71984bcf687ca179997bcb571917f0e4f25a50100000000ffffffff0200d50200000000001976a91426468c9edbbe6080f1cf543636c781ea048b6a7d88accbe5080000000000160014456b6741148fb0c811e11c3bf6497b628c657e7f0247304402200dd8ff7b30b46b74d7d0f9f0dc22bbe8e51bfbec0f1f5f8f620a28af4021bc3402201a62b517c09a3aeddf7d2a25b973ecea60572b2fed8c1151791d4677996b1c28012103d3605b83a1d7a6ad13d0bdda345cfd3643ab4b83f86d88d163baf2de53774a7000000000"
}