{
  "txid": "93b570cb1d91ecd4eeb63db2d7cd76dd9063d5748f20e3e05d9a6c680c066133",
  "version": 2,
  "locktime": 0,
  "vin": [
    {
      "txid": "74dfb4de2a2e26574be54bfd13bde1a31af8cab8c09012055a47d40f9f8bd7ba",
      "vout": 1,
      "prevout": {
        "scriptpubkey": "00149d4975d22cb1e1385e658d19e121f081d75cb873",
        "scriptpubkey_asm": "OP_0 OP_PUSHBYTES_20 9d4975d22cb1e1385e658d19e121f081d75cb873",
        "scriptpubkey_type": "v0_p2wpkh",
        "scriptpubkey_address": "bc1qn4yht53vk8snshn935v7zg0ss8t4ewrnp2f6dj",
        "value": 33208024
      },
      "scriptsig": "",
      "scriptsig_asm": "",
      "witness": [
        "30440220262b7288356f908d927be394b267427435afd785283250ccce74931cfdf00d75022037908266328deabded7048283723263a61864dd9000bb05e96f439ff72b4b99801",
        "03d03b94af516f4f2c8beb6bdb0e4df652008ab794db0812235cb65d9cd5f564e7"
      ],
      "is_coinbase": false,
      "sequence": 4294967293
    }
  ],
  "vout": [
    {
      "scriptpubkey": "a9147c05181d04069933e5371156f18102dc6dab9c2b87",
      "scriptpubkey_asm": "OP_HASH160 OP_PUSHBYTES_20 7c05181d04069933e5371156f18102dc6dab9c2b OP_EQUAL",
      "scriptpubkey_type": "p2sh",
      "scriptpubkey_address": "3CzmpHH2YsHXXWxzRXsRvivHccNjnuPjgs",
      "value": 488900
    },
    {
      "scriptpubkey": "001446f9867ecdcc8016a6d99a510ffca2f83b9d0b12",
      "scriptpubkey_asm": "OP_0 OP_PUSHBYTES_20 46f9867ecdcc8016a6d99a510ffca2f83b9d0b12",
      "scriptpubkey_type": "v0_p2wpkh",
      "scriptpubkey_address": "bc1qgmucvlkdejqpdfkenfgsll9zlqae6zcjeapn24",
      "value": 32717570
    }
  ],
  "size": 223,
  "weight": 565,
  "fee": 1554,
  "status": {
    "confirmed": true,
    "block_height": 834464,
    "block_hash": "0000000000000000000177a0869a911a2b65c9bdcd5a8bcb02b68f305bee848e",
    "block_time": 1710308296
  },
  "hex": "02000000000101bad78b9f0fd4475a051290c0b8caf81aa3e1bd13fd4be54b57262e2adeb4df740100000000fdffffff02c47507000000000017a9147c05181d04069933e5371156f18102dc6dab9c2b87023bf3010000000016001446f9867ecdcc8016a6d99a510ffca2f83b9d0b12024730440220262b7288356f908d927be394b267427435afd785283250ccce74931cfdf00d75022037908266328deabded7048283723263a61864dd9000bb05e96f439ff72b4b998012103d03b94af516f4f2c8beb6bdb0e4df652008ab794db0812235cb65d9cd5f564e700000000"
}