{
  "txid": "93bba324688af65b727f0c9c08f0fb45e2a2389b269939b1414f4818b071c598",
  "version": 2,
  "locktime": 0,
  "vin": [
    {
      "txid": "82ab03a3a097cca953d63e1fa97af77211ef87abf6eeb789bcea2dd96c1bd5d4",
      "vout": 0,
      "prevout": {
        "scriptpubkey": "51208a212cbf8ed7e355dd44433b6d9f7c918eb657219f6481ee698ec42985aeb12f",
        "scriptpubkey_asm": "OP_PUSHNUM_1 OP_PUSHBYTES_32 8a212cbf8ed7e355dd44433b6d9f7c918eb657219f6481ee698ec42985aeb12f",
        "scriptpubkey_type": "v1_p2tr",
        "scriptpubkey_address": "bc1p3gsje0uw6l34th2ygvakm8mujx8tv4epnajgrmnf3mzznpdwkyhssnjr76",
        "value": 5000
      },
      "scriptsig": "",
      "scriptsig_asm": "",
      "witness": [
        "d6cf19708c498a0ed9b5ef26add3c90ef9b26020f8e0e9fac6969e2aee82abc866231a06a98270f998acb3f9abc86977196f96e322dc701ab2b6b436d146b87c01"
      ],
      "is_coinbase": false,
      "sequence": 4294967295
    }
  ],
  "vout": [
    {
      "scriptpubkey": "00143919d928e617770c9b365142cb95d85743baba29",
      "scriptpubkey_asm": "OP_0 OP_PUSHBYTES_20 3919d928e617770c9b365142cb95d85743baba29",
      "scriptpubkey_type": "v0_p2wpkh",
      "scriptpubkey_address": "bc1q8yvaj28xzamsexek29pvh9wc2apm4w3fu7zfkh",
      "value": 3792
    }
  ],
  "size": 151,
  "weight": 397,
  "fee": 1208,
  "status": {
    "confirmed": true,
    "block_height": 834552,
    "block_hash": "00000000000000000001dd0468a70c94f619251d286585cff57aeb4bd9ede330",
    "block_time": 1710355598
  },
  "hex": "02000000000101d4d51b6cd92deabc89b7eef6ab87ef1172f77aa91f3ed653a9cc97a0a303ab820000000000ffffffff01d00e0000000000001600143919d928e617770c9b365142cb95d85743baba290141d6cf19708c498a0ed9b5ef26add3c90ef9b26020f8e0e9fac6969e2aee82abc866231a06a98270f998acb3f9abc86977196f96e322dc701ab2b6b436d146b87c0100000000"
}