{
  "txid": "93be193605b4a6decb7cb4312e3d45cbfbebc5869e619a209539bf58eeaae8d6",
  "version": 2,
  "locktime": 0,
  "vin": [
    {
      "txid": "f2ac939f5265ffa5165f202ab9cbf23bfa7756dbaa9531e52a2b5652fc62dee7",
      "vout": 1,
      "prevout": {
        "scriptpubkey": "76a91490a421f034b270484ce5631b11db2eb3a02c493d88ac",
        "scriptpubkey_asm": "OP_DUP OP_HASH160 OP_PUSHBYTES_20 90a421f034b270484ce5631b11db2eb3a02c493d OP_EQUALVERIFY OP_CHECKSIG",
        "scriptpubkey_type": "p2pkh",
        "scriptpubkey_address": "1EBnvkmPrdgXhh95PLvMmrR9ciuZF6YUE7",
        "value": 4026174
      },
      "scriptsig": "4730440220279f184b23323483fcacdde930bc2b0fc2fd02f9120ff9f2634da1572f2615930220664585732fc7f0404fd78db6c12e65e2cd569d0b5fdd07a42c13b2065d11d6750121029251a4cebcde7fca93eac786398b3b7d7f1e8875744a91a3aedd817543293b1e",
      "scriptsig_asm": "OP_PUSHBYTES_71 30440220279f184b23323483fcacdde930bc2b0fc2fd02f9120ff9f2634da1572f2615930220664585732fc7f0404fd78db6c12e65e2cd569d0b5fdd07a42c13b2065d11d67501 OP_PUSHBYTES_33 029251a4cebcde7fca93eac786398b3b7d7f1e8875744a91a3aedd817543293b1e",
      "is_coinbase": false,
      "sequence": 4294967293
    }
  ],
  "vout": [
    {
      "scriptpubkey": "a9142a9d3606b2579d59993eb119c54016d22ab505a387",
      "scriptpubkey_asm": "OP_HASH160 OP_PUSHBYTES_20 2a9d3606b2579d59993eb119c54016d22ab505a3 OP_EQUAL",
      "scriptpubkey_type": "p2sh",
      "scriptpubkey_address": "35aLdpEUDA6KKRQ9F4ZYNKd7bP5oGpMz25",
      "value": 1500000
    },
    {
      "scriptpubkey": "76a91490a421f034b270484ce5631b11db2eb3a02c493d88ac",
      "scriptpubkey_asm": "OP_DUP OP_HASH160 OP_PUSHBYTES_20 90a421f034b270484ce5631b11db2eb3a02c493d OP_EQUALVERIFY OP_CHECKSIG",
      "scriptpubkey_type": "p2pkh",
      "scriptpubkey_address": "1EBnvkmPrdgXhh95PLvMmrR9ciuZF6YUE7",
      "value": 2521399
    }
  ],
  "size": 223,
  "weight": 892,
  "fee": 4775,
  "status": {
    "confirmed": true,
    "block_height": 834552,
    "block_hash": "00000000000000000001dd0468a70c94f619251d286585cff57aeb4bd9ede330",
    "block_time": 1710355598
  },
  "hex": "0200000001e7de62fc52562b2ae53195aadb5677fa3bf2cbb92a205f16a5ff65529f93acf2010000006a4730440220279f184b23323483fcacdde930bc2b0fc2fd02f9120ff9f2634da1572f2615930220664585732fc7f0404fd78db6c12e65e2cd569d0b5fdd07a42c13b2065d11d6750121029251a4cebcde7fca93eac786398b3b7d7f1e8875744a91a3aedd817543293b1efdffffff0260e316000000000017a9142a9d3606b2579d59993eb119c54016d22ab505a38737792600000000001976a91490a421f034b270484ce5631b11db2eb3a02c493d88ac00000000"
}