{
  "txid": "93cfbd9bf9359b18fa3b3ec84c33f08704998a205530275f903e1c5eb9f5f590",
  "version": 2,
  "locktime": 0,
  "vin": [
    {
      "txid": "7dd021ceb37ec6b7a56f5b6ce6bb585488c5cdd6c2d986679ad2596bf6196fc3",
      "vout": 1,
      "prevout": {
        "scriptpubkey": "001410160f96d2633e7dc37a0a8631ff607406b0b63b",
        "scriptpubkey_asm": "OP_0 OP_PUSHBYTES_20 10160f96d2633e7dc37a0a8631ff607406b0b63b",
        "scriptpubkey_type": "v0_p2wpkh",
        "scriptpubkey_address": "bc1qzqtql9kjvvl8msm6p2rrrlmqwsrtpd3mjrhrr6",
        "value": 26621
      },
      "scriptsig": "",
      "scriptsig_asm": "",
      "witness": [
        "3045022100b1ed08f8e0e278611d34d84e3abee678d4151c7baa628a71e8e04fd117cb0b75022060768880a666ea2bf2f4b560cc8a7fb42c740f7c5ccb0467e3a2db66ce0d7c9b01",
        "03b54a39d3f1355ef74341f18f24fec63fd876a6bb61199673dec939b308d58087"
      ],
      "is_coinbase": false,
      "sequence": 4294967295
    }
  ],
  "vout": [
    {
      "scriptpubkey": "0014cac2bda4bb2ea54419f748ba0c7963545f823542",
      "scriptpubkey_asm": "OP_0 OP_PUSHBYTES_20 cac2bda4bb2ea54419f748ba0c7963545f823542",
      "scriptpubkey_type": "v0_p2wpkh",
      "scriptpubkey_address": "bc1qetptmf9m96j5gx0hfzaqc7tr230cyd2zd3u0kq",
      "value": 20400
    },
    {
      "scriptpubkey": "001410160f96d2633e7dc37a0a8631ff607406b0b63b",
      "scriptpubkey_asm": "OP_0 OP_PUSHBYTES_20 10160f96d2633e7dc37a0a8631ff607406b0b63b",
      "scriptpubkey_type": "v0_p2wpkh",
      "scriptpubkey_address": "bc1qzqtql9kjvvl8msm6p2rrrlmqwsrtpd3mjrhrr6",
      "value": 4091
    }
  ],
  "size": 223,
  "weight": 562,
  "fee": 2130,
  "status": {
    "confirmed": true,
    "block_height": 834638,
    "block_hash": "000000000000000000025f742c626208ac87e0b7d15054abb4a19ca2d735a54e",
    "block_time": 1710405325
  },
  "hex": "02000000000101c36f19f66b59d29a6786d9c2d6cdc5885458bbe66c5b6fa5b7c67eb3ce21d07d0100000000ffffffff02b04f000000000000160014cac2bda4bb2ea54419f748ba0c7963545f823542fb0f00000000000016001410160f96d2633e7dc37a0a8631ff607406b0b63b02483045022100b1ed08f8e0e278611d34d84e3abee678d4151c7baa628a71e8e04fd117cb0b75022060768880a666ea2bf2f4b560cc8a7fb42c740f7c5ccb0467e3a2db66ce0d7c9b012103b54a39d3f1355ef74341f18f24fec63fd876a6bb61199673dec939b308d5808700000000"
}