{
  "txid": "93cf1f595ac8d95cbb7924e7999268e25fde9125e6e3b2cb547c9b74b121bceb",
  "version": 1,
  "locktime": 0,
  "vin": [
    {
      "txid": "8c805df4da3566a0eafdbd9517817ae91f14380e25847d97da50ec76a9656aa6",
      "vout": 1,
      "prevout": {
        "scriptpubkey": "76a914192099721d41ca9fa6785112e5ef3a35c265aa0e88ac",
        "scriptpubkey_asm": "OP_DUP OP_HASH160 OP_PUSHBYTES_20 192099721d41ca9fa6785112e5ef3a35c265aa0e OP_EQUALVERIFY OP_CHECKSIG",
        "scriptpubkey_type": "p2pkh",
        "scriptpubkey_address": "13HrwqpAi1WWiaERLZmQP7yvrDx8dWbGPN",
        "value": 1449190
      },
      "scriptsig": "47304402205ad680ab6a644fa9c7b5b95f2666dd25dd5d441da0fbd65621743d2b5f3c0864022025e89c68d0e5614a96da8895b8116bd8e8a6cbe00df7b215335324442688c744012102057d48b19fd8b86f7b84688a6ad611b8c4b74dd2cd449ca9f3fc157147f3b452",
      "scriptsig_asm": "OP_PUSHBYTES_71 304402205ad680ab6a644fa9c7b5b95f2666dd25dd5d441da0fbd65621743d2b5f3c0864022025e89c68d0e5614a96da8895b8116bd8e8a6cbe00df7b215335324442688c74401 OP_PUSHBYTES_33 02057d48b19fd8b86f7b84688a6ad611b8c4b74dd2cd449ca9f3fc157147f3b452",
      "is_coinbase": false,
      "sequence": 4294967295
    }
  ],
  "vout": [
    {
      "scriptpubkey": "76a914ac8f10cab770ab48da35ac567e84879c5161528588ac",
      "scriptpubkey_asm": "OP_DUP OP_HASH160 OP_PUSHBYTES_20 ac8f10cab770ab48da35ac567e84879c51615285 OP_EQUALVERIFY OP_CHECKSIG",
      "scriptpubkey_type": "p2pkh",
      "scriptpubkey_address": "1GjQcNFxS32xKLUBywnWNnXpptrTBeZ6w8",
      "value": 1088118
    },
    {
      "scriptpubkey": "76a9146213754aadd5ea63ff8dba9445cb3fdc87a96c9a88ac",
      "scriptpubkey_asm": "OP_DUP OP_HASH160 OP_PUSHBYTES_20 6213754aadd5ea63ff8dba9445cb3fdc87a96c9a OP_EQUALVERIFY OP_CHECKSIG",
      "scriptpubkey_type": "p2pkh",
      "scriptpubkey_address": "19waXn47Yd21ZrxqueZENMTBcK7GHj1ytM",
      "value": 353388
    }
  ],
  "size": 225,
  "weight": 900,
  "fee": 7684,
  "status": {
    "confirmed": true,
    "block_height": 834638,
    "block_hash": "000000000000000000025f742c626208ac87e0b7d15054abb4a19ca2d735a54e",
    "block_time": 1710405325
  },
  "hex": "0100000001a66a65a976ec50da977d84250e38141fe97a811795bdfdeaa06635daf45d808c010000006a47304402205ad680ab6a644fa9c7b5b95f2666dd25dd5d441da0fbd65621743d2b5f3c0864022025e89c68d0e5614a96da8895b8116bd8e8a6cbe00df7b215335324442688c744012102057d48b19fd8b86f7b84688a6ad611b8c4b74dd2cd449ca9f3fc157147f3b452ffffffff02769a1000000000001976a914ac8f10cab770ab48da35ac567e84879c5161528588ac6c640500000000001976a9146213754aadd5ea63ff8dba9445cb3fdc87a96c9a88ac00000000"
}