{
  "txid": "93d28416e2975a5bd74cfdeebf5fa99c99da629f5fa1a52f2823c812ec210cd8",
  "version": 2,
  "locktime": 0,
  "vin": [
    {
      "txid": "659b82bf51c32df260f3e3563d90fcbcb0098209af4d18020ca9e1a619ccc8c8",
      "vout": 14,
      "prevout": {
        "scriptpubkey": "512068c7e19d453d4e758f06953f3fa2d752bbdf541804d80ca2b19b4f1144c26741",
        "scriptpubkey_asm": "OP_PUSHNUM_1 OP_PUSHBYTES_32 68c7e19d453d4e758f06953f3fa2d752bbdf541804d80ca2b19b4f1144c26741",
        "scriptpubkey_type": "v1_p2tr",
        "scriptpubkey_address": "bc1pdrr7r8298488trcxj5lnlgkh22aa74qcqnvqeg43nd83z3xzvaqsh8jcay",
        "value": 1931
      },
      "scriptsig": "",
      "scriptsig_asm": "",
      "witness": [
        "65d24e7eb73b2b9b46adbc085dd5de2777c499195d7af7b43378d642ad200d264a30054ba13e875a6d2e30fdd9321914269c9a9dcb3e695ce000db1730a6f976",
        "204d78fbfa5b50c111ee01916cda63927993df0256248c72ea1384f7334eb0aeadac0063036f726401010a746578742f706c61696e00367b2270223a226272632d3230222c226f70223a226d696e74222c227469636b223a2261616161222c22616d74223a223130303030227d68",
        "c04d78fbfa5b50c111ee01916cda63927993df0256248c72ea1384f7334eb0aead"
      ],
      "is_coinbase": false,
      "sequence": 4261412863
    }
  ],
  "vout": [
    {
      "scriptpubkey": "0014be9f0c070a9b1bd40f5fcb06fba89738d936ceb6",
      "scriptpubkey_asm": "OP_0 OP_PUSHBYTES_20 be9f0c070a9b1bd40f5fcb06fba89738d936ceb6",
      "scriptpubkey_type": "v0_p2wpkh",
      "scriptpubkey_address": "bc1qh60scpc2nvdagr6levr0h2yh8rvndn4k4v5s9g",
      "value": 294
    }
  ],
  "size": 295,
  "weight": 541,
  "fee": 1637,
  "status": {
    "confirmed": true,
    "block_height": 834460,
    "block_hash": "00000000000000000000484a79b643b2524bbce82e5d8a442013fa5b8905ed98",
    "block_time": 1710307468
  },
  "hex": "02000000000101c8c8cc19a6e1a90c02184daf098209b0bcfc903d56e3f360f22dc351bf829b650e00000000fffffffd012601000000000000160014be9f0c070a9b1bd40f5fcb06fba89738d936ceb6034065d24e7eb73b2b9b46adbc085dd5de2777c499195d7af7b43378d642ad200d264a30054ba13e875a6d2e30fdd9321914269c9a9dcb3e695ce000db1730a6f9766e204d78fbfa5b50c111ee01916cda63927993df0256248c72ea1384f7334eb0aeadac0063036f726401010a746578742f706c61696e00367b2270223a226272632d3230222c226f70223a226d696e74222c227469636b223a2261616161222c22616d74223a223130303030227d6821c04d78fbfa5b50c111ee01916cda63927993df0256248c72ea1384f7334eb0aead00000000"
}