{
  "txid": "93ff5438847545f0cff55e7299f10e70e1445252bb2e188a6ff7186595588dd5",
  "version": 1,
  "locktime": 0,
  "vin": [
    {
      "txid": "3ee3271720cabb318cc8b2eebcee9baa5863854bdca5aefa3d0f9b0f90b702ab",
      "vout": 0,
      "prevout": {
        "scriptpubkey": "5120a1c62b38d1ba310a892b20f0896875e8bf2adeeabd29399c2c18844f455071da",
        "scriptpubkey_asm": "OP_PUSHNUM_1 OP_PUSHBYTES_32 a1c62b38d1ba310a892b20f0896875e8bf2adeeabd29399c2c18844f455071da",
        "scriptpubkey_type": "v1_p2tr",
        "scriptpubkey_address": "bc1p58rzkwx3hgcs4zftyrcgj6r4azlj4hh2h55nn8pvrzzy732sw8dqdrfmdy",
        "value": 2856
      },
      "scriptsig": "",
      "scriptsig_asm": "",
      "witness": [
        "95253180052b26ff7c9193d4e4b1897174b39a919ce48f7ccaf81cd2ab4d7cce6e599debd91742d1daa5b74d5b7eb7da324cc86cdc77c81f9a2a9acbe18b588b83",
        "20be11f1d0580232188e877ef283eb5a1efd4e9e5290a2633605d666f59ad3fff2ac00630461746f6d03646d742da16461726773a36b6d696e745f7469636b657264646f6765656e6f6e63651a00859be96474696d651a65f1355468",
        "c0be11f1d0580232188e877ef283eb5a1efd4e9e5290a2633605d666f59ad3fff2"
      ],
      "is_coinbase": false,
      "sequence": 4294967293
    }
  ],
  "vout": [
    {
      "scriptpubkey": "51208fe1767885d17c27b305545e70dcb21ed67996322ce6c15c4380a9ea247b0039",
      "scriptpubkey_asm": "OP_PUSHNUM_1 OP_PUSHBYTES_32 8fe1767885d17c27b305545e70dcb21ed67996322ce6c15c4380a9ea247b0039",
      "scriptpubkey_type": "v1_p2tr",
      "scriptpubkey_address": "bc1p3lshv7y9697z0vc92308ph9jrmt8n93j9nnvzhzrsz575frmqqus9g2c7p",
      "value": 1000
    }
  ],
  "size": 290,
  "weight": 572,
  "fee": 1856,
  "status": {
    "confirmed": true,
    "block_height": 834460,
    "block_hash": "00000000000000000000484a79b643b2524bbce82e5d8a442013fa5b8905ed98",
    "block_time": 1710307468
  },
  "hex": "01000000000101ab02b7900f9b0f3dfaaea5dc4b856358aa9beebceeb2c88c31bbca201727e33e0000000000fdffffff01e8030000000000002251208fe1767885d17c27b305545e70dcb21ed67996322ce6c15c4380a9ea247b0039034195253180052b26ff7c9193d4e4b1897174b39a919ce48f7ccaf81cd2ab4d7cce6e599debd91742d1daa5b74d5b7eb7da324cc86cdc77c81f9a2a9acbe18b588b835c20be11f1d0580232188e877ef283eb5a1efd4e9e5290a2633605d666f59ad3fff2ac00630461746f6d03646d742da16461726773a36b6d696e745f7469636b657264646f6765656e6f6e63651a00859be96474696d651a65f135546821c0be11f1d0580232188e877ef283eb5a1efd4e9e5290a2633605d666f59ad3fff200000000"
}