{
  "txid": "94004f1e307c3a0ed43e0270049c61dadb0c6900c7b7181b58c4d768b3475e34",
  "version": 2,
  "locktime": 834637,
  "vin": [
    {
      "txid": "80df754d14969bcab751be0023336c72e3f8b8f958e22ad119e3b4f8bd1b0601",
      "vout": 0,
      "prevout": {
        "scriptpubkey": "0014d62eb5e8285eae0cd755c048fcdc8eac0346e1aa",
        "scriptpubkey_asm": "OP_0 OP_PUSHBYTES_20 d62eb5e8285eae0cd755c048fcdc8eac0346e1aa",
        "scriptpubkey_type": "v0_p2wpkh",
        "scriptpubkey_address": "bc1q6chtt6pgt6hqe464cpy0ehyw4sp5dcd25lzy77",
        "value": 1255702
      },
      "scriptsig": "",
      "scriptsig_asm": "",
      "witness": [
        "304402204f906d622291074c7beac218bfbd497d105786a61a4966cbac930bc32bcfd621022047734b0e7513a8f34843881cfab72173e4c58d3546d5c42caa65d39c99bfb3c001",
        "026974e29f9add373fe88fb95afff3c138555eac4e764ae5079dd74b10fb5c19e8"
      ],
      "is_coinbase": false,
      "sequence": 4294967294
    },
    {
      "txid": "6fe3e2fad87a76efc48335e2b220fba7b89e506a51c2cb6458207640ac850369",
      "vout": 9,
      "prevout": {
        "scriptpubkey": "0014c0181fa543f6fdd642b4e82fa74ab76bcb029000",
        "scriptpubkey_asm": "OP_0 OP_PUSHBYTES_20 c0181fa543f6fdd642b4e82fa74ab76bcb029000",
        "scriptpubkey_type": "v0_p2wpkh",
        "scriptpubkey_address": "bc1qcqvplf2r7m7avs45aqh6wj4hd09s9yqqr373xj",
        "value": 6190669
      },
      "scriptsig": "",
      "scriptsig_asm": "",
      "witness": [
        "304402200ea5eec61e24ef54027fa699c31c1d0fdabde05e00ae94af965bf51a2f8839c1022035c8ef6c801c689d457eb3a0ac598a12e2109f72c50ead92e84057ae36c4010701",
        "02fbd4ebdff79867badf546942ca21019e4f5db17b3a2ef8ccb6b78cc47022af6e"
      ],
      "is_coinbase": false,
      "sequence": 4294967294
    }
  ],
  "vout": [
    {
      "scriptpubkey": "0014f00836f60ad4793d057722c25fc9721f0ba7f9a1",
      "scriptpubkey_asm": "OP_0 OP_PUSHBYTES_20 f00836f60ad4793d057722c25fc9721f0ba7f9a1",
      "scriptpubkey_type": "v0_p2wpkh",
      "scriptpubkey_address": "bc1q7qyrdas263un6pthytp9ljtjru9607dpsegl4k",
      "value": 1120087
    },
    {
      "scriptpubkey": "0014d0129a08c58d6c508a9f8c55d52c809225d6073a",
      "scriptpubkey_asm": "OP_0 OP_PUSHBYTES_20 d0129a08c58d6c508a9f8c55d52c809225d6073a",
      "scriptpubkey_type": "v0_p2wpkh",
      "scriptpubkey_address": "bc1q6qff5zx934k9pz5l332a2tyqjgjavpe6fg324c",
      "value": 6320670
    }
  ],
  "size": 370,
  "weight": 832,
  "fee": 5614,
  "status": {
    "confirmed": true,
    "block_height": 834638,
    "block_hash": "000000000000000000025f742c626208ac87e0b7d15054abb4a19ca2d735a54e",
    "block_time": 1710405325
  },
  "hex": "0200000000010201061bbdf8b4e319d12ae258f9b8f8e3726c332300be51b7ca9b96144d75df800000000000feffffff690385ac4076205864cbc2516a509eb8a7fb20b2e23583c4ef767ad8fae2e36f0900000000feffffff025717110000000000160014f00836f60ad4793d057722c25fc9721f0ba7f9a11e72600000000000160014d0129a08c58d6c508a9f8c55d52c809225d6073a0247304402204f906d622291074c7beac218bfbd497d105786a61a4966cbac930bc32bcfd621022047734b0e7513a8f34843881cfab72173e4c58d3546d5c42caa65d39c99bfb3c00121026974e29f9add373fe88fb95afff3c138555eac4e764ae5079dd74b10fb5c19e80247304402200ea5eec61e24ef54027fa699c31c1d0fdabde05e00ae94af965bf51a2f8839c1022035c8ef6c801c689d457eb3a0ac598a12e2109f72c50ead92e84057ae36c40107012102fbd4ebdff79867badf546942ca21019e4f5db17b3a2ef8ccb6b78cc47022af6e4dbc0c00"
}