{
  "txid": "9409542217a10329ef0095e92a29e4464059948371ae9a3d6c58319a52052c90",
  "version": 1,
  "locktime": 0,
  "vin": [
    {
      "txid": "a5da04dd632cdb6d2406473d8e6aceb784fa869c18684401ad376f9d4427bb58",
      "vout": 13,
      "prevout": {
        "scriptpubkey": "001460eef45d8c0c304a8c318ebe6245e53953e2de2e",
        "scriptpubkey_asm": "OP_0 OP_PUSHBYTES_20 60eef45d8c0c304a8c318ebe6245e53953e2de2e",
        "scriptpubkey_type": "v0_p2wpkh",
        "scriptpubkey_address": "bc1qvrh0ghvvpscy4rp336lxy30989f79h3wy670je",
        "value": 915184
      },
      "scriptsig": "",
      "scriptsig_asm": "",
      "witness": [
        "3045022100934d19487ca2df3ba2082e334b564ea9e0878bacd2975176bca004cbcf983fdc02207cb877e27fa718ba7941b14a4b09ab39d78b9c5bedd16a88afef90b92b1df4ab01",
        "0276b3f28c6ef3c45af4afa5c9ee43baee31af7adf02d905bfb4ba603af9307337"
      ],
      "is_coinbase": false,
      "sequence": 4294967295
    },
    {
      "txid": "e63d97beae700fecf902ee49964e624c1f44a55bba87d42a64892070a039237d",
      "vout": 2,
      "prevout": {
        "scriptpubkey": "001460eef45d8c0c304a8c318ebe6245e53953e2de2e",
        "scriptpubkey_asm": "OP_0 OP_PUSHBYTES_20 60eef45d8c0c304a8c318ebe6245e53953e2de2e",
        "scriptpubkey_type": "v0_p2wpkh",
        "scriptpubkey_address": "bc1qvrh0ghvvpscy4rp336lxy30989f79h3wy670je",
        "value": 2730612
      },
      "scriptsig": "",
      "scriptsig_asm": "",
      "witness": [
        "30440220339a8ff0e53b2f3c8bb44e32ca2628ea9bdf259e5617c7145f1f0b3cc20d162902201453cdea34667ff580888b69e35136ff280fad1c35939573138dee9b2bd094a201",
        "0276b3f28c6ef3c45af4afa5c9ee43baee31af7adf02d905bfb4ba603af9307337"
      ],
      "is_coinbase": false,
      "sequence": 4294967295
    },
    {
      "txid": "e0148557fa6287e172899c6ce99e9dea4c77939ef0bda8af3a483647787eb041",
      "vout": 2,
      "prevout": {
        "scriptpubkey": "001460eef45d8c0c304a8c318ebe6245e53953e2de2e",
        "scriptpubkey_asm": "OP_0 OP_PUSHBYTES_20 60eef45d8c0c304a8c318ebe6245e53953e2de2e",
        "scriptpubkey_type": "v0_p2wpkh",
        "scriptpubkey_address": "bc1qvrh0ghvvpscy4rp336lxy30989f79h3wy670je",
        "value": 1945248
      },
      "scriptsig": "",
      "scriptsig_asm": "",
      "witness": [
        "30450221009e0ab1da732f971aad642da027a3d935dc78e2438d64e4532ae2a6f24201fdb0022076035cd836d2bcf490d0e48ff3bad8d09ca5d4fb3d0b7e7243f91bf41346298d01",
        "0276b3f28c6ef3c45af4afa5c9ee43baee31af7adf02d905bfb4ba603af9307337"
      ],
      "is_coinbase": false,
      "sequence": 4294967295
    }
  ],
  "vout": [
    {
      "scriptpubkey": "a914bcdd41092f18a24dd37b5ca1dc22e6dcae93438f87",
      "scriptpubkey_asm": "OP_HASH160 OP_PUSHBYTES_20 bcdd41092f18a24dd37b5ca1dc22e6dcae93438f OP_EQUAL",
      "scriptpubkey_type": "p2sh",
      "scriptpubkey_address": "3Jue1cFKgfJMAHwpa4VTnEwPd4rj4NNQ6M",
      "value": 5584375
    }
  ],
  "size": 490,
  "weight": 985,
  "fee": 6669,
  "status": {
    "confirmed": true,
    "block_height": 834638,
    "block_hash": "000000000000000000025f742c626208ac87e0b7d15054abb4a19ca2d735a54e",
    "block_time": 1710405325
  },
  "hex": "0100000000010358bb27449d6f37ad014468189c86fa84b7ce6a8e3d4706246ddb2c63dd04daa50d00000000ffffffff7d2339a0702089642ad487ba5ba5441f4c624e9649ee02f9ec0f70aebe973de60200000000ffffffff41b07e784736483aafa8bdf09e93774cea9d9ee96c9c8972e18762fa578514e00200000000ffffffff01f73555000000000017a914bcdd41092f18a24dd37b5ca1dc22e6dcae93438f8702483045022100934d19487ca2df3ba2082e334b564ea9e0878bacd2975176bca004cbcf983fdc02207cb877e27fa718ba7941b14a4b09ab39d78b9c5bedd16a88afef90b92b1df4ab01210276b3f28c6ef3c45af4afa5c9ee43baee31af7adf02d905bfb4ba603af9307337024730440220339a8ff0e53b2f3c8bb44e32ca2628ea9bdf259e5617c7145f1f0b3cc20d162902201453cdea34667ff580888b69e35136ff280fad1c35939573138dee9b2bd094a201210276b3f28c6ef3c45af4afa5c9ee43baee31af7adf02d905bfb4ba603af9307337024830450221009e0ab1da732f971aad642da027a3d935dc78e2438d64e4532ae2a6f24201fdb0022076035cd836d2bcf490d0e48ff3bad8d09ca5d4fb3d0b7e7243f91bf41346298d01210276b3f28c6ef3c45af4afa5c9ee43baee31af7adf02d905bfb4ba603af930733700000000"
}