{
  "txid": "9435e09487f12fa449e9e898d890af6eb2037fab659ac1b91aa157d8d3316212",
  "version": 2,
  "locktime": 0,
  "vin": [
    {
      "txid": "c10e48caeee8756d57fbce0e4f26c1d08bb9f0d4a35c2d26269682da8df04dac",
      "vout": 61,
      "prevout": {
        "scriptpubkey": "5120d2e6f76c8ee8404f8909cfda252d81f33065b777f86bd4881ab1e3aea74aa0a9",
        "scriptpubkey_asm": "OP_PUSHNUM_1 OP_PUSHBYTES_32 d2e6f76c8ee8404f8909cfda252d81f33065b777f86bd4881ab1e3aea74aa0a9",
        "scriptpubkey_type": "v1_p2tr",
        "scriptpubkey_address": "bc1p6tn0wmywapqylzgfeldz2tvp7vcxtdmhlp4afzq6k836af625z5sr9ts5d",
        "value": 3634
      },
      "scriptsig": "",
      "scriptsig_asm": "",
      "witness": [
        "9d590612420fe3fbecca366db068de2da11b40d5e17ef2a4a9ce990ced7e183dd71ace49bb2da1f588c9722a09eb532ab47c4b9733e87e8c78f16aa461f4f17a",
        "201ebb55e04bd4157d1401aa4eedb7c79d998662d2cde8330044b599b9f2c1d03cac0063036f726401011e6170706c69636174696f6e2f6a736f6e3b636861727365743d7574662d38004cd37b2270223a22706f772d3230222c226f70223a226d696e74222c227469636b223a2250455045222c22616d74223a2231303030222c22736f6c7574696f6e223a22504550453a6263317071336e67663775716e73667434706d37357236397371616c6c30637068747278677773757a6d657864356c337039333566366d713666337664383a303030303030303030303030303030303030303139393431613561653132383937363539383134343239323533333030353762306461393666336465613163353a3332383431313430323837227d68",
        "c1406c0f2a67700582b42f36a71eb03478d57ba1acdc179ee1ec758acb282de3fd"
      ],
      "is_coinbase": false,
      "sequence": 4294967295
    }
  ],
  "vout": [
    {
      "scriptpubkey": "5120046684fb809c12ba877ea0f45803bffbf01bac6643a1c16f266d3f1096344eb6",
      "scriptpubkey_asm": "OP_PUSHNUM_1 OP_PUSHBYTES_32 046684fb809c12ba877ea0f45803bffbf01bac6643a1c16f266d3f1096344eb6",
      "scriptpubkey_type": "v1_p2tr",
      "scriptpubkey_address": "bc1pq3ngf7uqnsft4pm75r69sqall0cphtrxgwsuzmexd5l3p935f6mq6f3vd8",
      "value": 546
    }
  ],
  "size": 487,
  "weight": 769,
  "fee": 3088,
  "status": {
    "confirmed": true,
    "block_height": 834460,
    "block_hash": "00000000000000000000484a79b643b2524bbce82e5d8a442013fa5b8905ed98",
    "block_time": 1710307468
  },
  "hex": "02000000000101ac4df08dda829626262d5ca3d4f0b98bd0c1264f0ecefb576d75e8eeca480ec13d00000000ffffffff012202000000000000225120046684fb809c12ba877ea0f45803bffbf01bac6643a1c16f266d3f1096344eb603409d590612420fe3fbecca366db068de2da11b40d5e17ef2a4a9ce990ced7e183dd71ace49bb2da1f588c9722a09eb532ab47c4b9733e87e8c78f16aa461f4f17afd2001201ebb55e04bd4157d1401aa4eedb7c79d998662d2cde8330044b599b9f2c1d03cac0063036f726401011e6170706c69636174696f6e2f6a736f6e3b636861727365743d7574662d38004cd37b2270223a22706f772d3230222c226f70223a226d696e74222c227469636b223a2250455045222c22616d74223a2231303030222c22736f6c7574696f6e223a22504550453a6263317071336e67663775716e73667434706d37357236397371616c6c30637068747278677773757a6d657864356c337039333566366d713666337664383a303030303030303030303030303030303030303139393431613561653132383937363539383134343239323533333030353762306461393666336465613163353a3332383431313430323837227d6821c1406c0f2a67700582b42f36a71eb03478d57ba1acdc179ee1ec758acb282de3fd00000000"
}