{
  "txid": "9439909b5870e894f40bb73f77152f831e64a7b83c63152824a5b0bd00025e4e",
  "version": 2,
  "locktime": 0,
  "vin": [
    {
      "txid": "ae6b2942d93396007756ebdfdc6576365a838083250a1166c37b7caf6008eabc",
      "vout": 1,
      "prevout": {
        "scriptpubkey": "51209f7e8f5f72f0d93e7d06f9e7900d3d17b1b82fc28b83c27357edeea5826c2d30",
        "scriptpubkey_asm": "OP_PUSHNUM_1 OP_PUSHBYTES_32 9f7e8f5f72f0d93e7d06f9e7900d3d17b1b82fc28b83c27357edeea5826c2d30",
        "scriptpubkey_type": "v1_p2tr",
        "scriptpubkey_address": "bc1pnalg7hmj7rvnulgxl8neqrfaz7cmst7z3wpuyu6hahh2tqnv95cqw2q2sn",
        "value": 1357534
      },
      "scriptsig": "",
      "scriptsig_asm": "",
      "witness": [
        "32c69112b0470d8524d343c003b25c0cc5f79ec7930ee98b73f7436ce166e477eba72d8db74eb67cec16df45c08e1ce44769666d9428bd041447e72cc4fdc401"
      ],
      "is_coinbase": false,
      "sequence": 4294967295
    }
  ],
  "vout": [
    {
      "scriptpubkey": "5120b73e1cef34988ded420c361d84b5ea921072288c387a40ad0ff0fd6f1374df62",
      "scriptpubkey_asm": "OP_PUSHNUM_1 OP_PUSHBYTES_32 b73e1cef34988ded420c361d84b5ea921072288c387a40ad0ff0fd6f1374df62",
      "scriptpubkey_type": "v1_p2tr",
      "scriptpubkey_address": "bc1pkulpeme5nzx76ssvxcwcfd02jgg8y2yv8payptg07r7k7ym5ma3qa27jcn",
      "value": 4618
    },
    {
      "scriptpubkey": "51209f7e8f5f72f0d93e7d06f9e7900d3d17b1b82fc28b83c27357edeea5826c2d30",
      "scriptpubkey_asm": "OP_PUSHNUM_1 OP_PUSHBYTES_32 9f7e8f5f72f0d93e7d06f9e7900d3d17b1b82fc28b83c27357edeea5826c2d30",
      "scriptpubkey_type": "v1_p2tr",
      "scriptpubkey_address": "bc1pnalg7hmj7rvnulgxl8neqrfaz7cmst7z3wpuyu6hahh2tqnv95cqw2q2sn",
      "value": 1350760
    }
  ],
  "size": 205,
  "weight": 616,
  "fee": 2156,
  "status": {
    "confirmed": true,
    "block_height": 834460,
    "block_hash": "00000000000000000000484a79b643b2524bbce82e5d8a442013fa5b8905ed98",
    "block_time": 1710307468
  },
  "hex": "02000000000101bcea0860af7c7bc366110a258380835a367665dcdfeb5677009633d942296bae0100000000ffffffff020a12000000000000225120b73e1cef34988ded420c361d84b5ea921072288c387a40ad0ff0fd6f1374df62689c1400000000002251209f7e8f5f72f0d93e7d06f9e7900d3d17b1b82fc28b83c27357edeea5826c2d30014032c69112b0470d8524d343c003b25c0cc5f79ec7930ee98b73f7436ce166e477eba72d8db74eb67cec16df45c08e1ce44769666d9428bd041447e72cc4fdc40100000000"
}