{
  "txid": "944982f057f7a2c88b54ebf5956f587388d1350ae295b4df480ac39cc2aef7e3",
  "version": 2,
  "locktime": 0,
  "vin": [
    {
      "txid": "c10e48caeee8756d57fbce0e4f26c1d08bb9f0d4a35c2d26269682da8df04dac",
      "vout": 30,
      "prevout": {
        "scriptpubkey": "51204339aee149f893d424dcd917e6ee24117600685254e8ac55ca158b4ba0e1c07d",
        "scriptpubkey_asm": "OP_PUSHNUM_1 OP_PUSHBYTES_32 4339aee149f893d424dcd917e6ee24117600685254e8ac55ca158b4ba0e1c07d",
        "scriptpubkey_type": "v1_p2tr",
        "scriptpubkey_address": "bc1pgvu6ac2flzfagfxumyt7dm3yz9mqq6zj2n52c4w2zk95hg8pcp7s225s0x",
        "value": 3634
      },
      "scriptsig": "",
      "scriptsig_asm": "",
      "witness": [
        "3cc503744acc127b7a63475575e39b772e8544f3073bff322ce7e9dc6b9287a872fb9fa2f016f7897dcc52f29c66b802e744ba1da4f8fb084049021d1285b57d",
        "206ff82ec66f19d700acfc54e619cea6b056cec6e51b58c69a75fb6f81a2e5b812ac0063036f726401011e6170706c69636174696f6e2f6a736f6e3b636861727365743d7574662d38004cd37b2270223a22706f772d3230222c226f70223a226d696e74222c227469636b223a2250455045222c22616d74223a2231303030222c22736f6c7574696f6e223a22504550453a6263317071336e67663775716e73667434706d37357236397371616c6c30637068747278677773757a6d657864356c337039333566366d713666337664383a303030303030303030303030303030303030303139393431613561653132383937363539383134343239323533333030353762306461393666336465613163353a3435393635313836373036227d68",
        "c0406c0f2a67700582b42f36a71eb03478d57ba1acdc179ee1ec758acb282de3fd"
      ],
      "is_coinbase": false,
      "sequence": 4294967295
    }
  ],
  "vout": [
    {
      "scriptpubkey": "5120046684fb809c12ba877ea0f45803bffbf01bac6643a1c16f266d3f1096344eb6",
      "scriptpubkey_asm": "OP_PUSHNUM_1 OP_PUSHBYTES_32 046684fb809c12ba877ea0f45803bffbf01bac6643a1c16f266d3f1096344eb6",
      "scriptpubkey_type": "v1_p2tr",
      "scriptpubkey_address": "bc1pq3ngf7uqnsft4pm75r69sqall0cphtrxgwsuzmexd5l3p935f6mq6f3vd8",
      "value": 546
    }
  ],
  "size": 487,
  "weight": 769,
  "fee": 3088,
  "status": {
    "confirmed": true,
    "block_height": 834460,
    "block_hash": "00000000000000000000484a79b643b2524bbce82e5d8a442013fa5b8905ed98",
    "block_time": 1710307468
  },
  "hex": "02000000000101ac4df08dda829626262d5ca3d4f0b98bd0c1264f0ecefb576d75e8eeca480ec11e00000000ffffffff012202000000000000225120046684fb809c12ba877ea0f45803bffbf01bac6643a1c16f266d3f1096344eb603403cc503744acc127b7a63475575e39b772e8544f3073bff322ce7e9dc6b9287a872fb9fa2f016f7897dcc52f29c66b802e744ba1da4f8fb084049021d1285b57dfd2001206ff82ec66f19d700acfc54e619cea6b056cec6e51b58c69a75fb6f81a2e5b812ac0063036f726401011e6170706c69636174696f6e2f6a736f6e3b636861727365743d7574662d38004cd37b2270223a22706f772d3230222c226f70223a226d696e74222c227469636b223a2250455045222c22616d74223a2231303030222c22736f6c7574696f6e223a22504550453a6263317071336e67663775716e73667434706d37357236397371616c6c30637068747278677773757a6d657864356c337039333566366d713666337664383a303030303030303030303030303030303030303139393431613561653132383937363539383134343239323533333030353762306461393666336465613163353a3435393635313836373036227d6821c0406c0f2a67700582b42f36a71eb03478d57ba1acdc179ee1ec758acb282de3fd00000000"
}