{
  "txid": "94514171a18c90b3d1805067978ebd1c9e8420ea54b9133ce5e7519c6827e79c",
  "version": 2,
  "locktime": 0,
  "vin": [
    {
      "txid": "aafe35f525126dcc8f019cf03d2e059dfbe3935b01dbba8a84d13b8832b7949f",
      "vout": 2,
      "prevout": {
        "scriptpubkey": "0014d73442618ca7cc39b65f5b49d0749bc878774d51",
        "scriptpubkey_asm": "OP_0 OP_PUSHBYTES_20 d73442618ca7cc39b65f5b49d0749bc878774d51",
        "scriptpubkey_type": "v0_p2wpkh",
        "scriptpubkey_address": "bc1q6u6yycvv5lxrndjltdyaqaymepu8wn23erdkfw",
        "value": 592652
      },
      "scriptsig": "",
      "scriptsig_asm": "",
      "witness": [
        "30440220131d1c30cadedea010585d77ed742daaee40b5b399009f063f3374e1219a491a02201a6e613cdbb97366273e2505f79118a31c9e7b3a75823e1ddb157b17426f5dfa01",
        "028dcca8c7e5217ce5d2961d74700a236130c9c71016224b1acef464ed9401e81a"
      ],
      "is_coinbase": false,
      "sequence": 4294967293
    }
  ],
  "vout": [
    {
      "scriptpubkey": "00145fc35767946987b7390c202fb8ca4d0e272a007f",
      "scriptpubkey_asm": "OP_0 OP_PUSHBYTES_20 5fc35767946987b7390c202fb8ca4d0e272a007f",
      "scriptpubkey_type": "v0_p2wpkh",
      "scriptpubkey_address": "bc1qtlp4weu5dxrmwwgvyqhm3jjdpcnj5qrl2s7utn",
      "value": 587528
    }
  ],
  "size": 191,
  "weight": 437,
  "fee": 5124,
  "status": {
    "confirmed": true,
    "block_height": 834638,
    "block_hash": "000000000000000000025f742c626208ac87e0b7d15054abb4a19ca2d735a54e",
    "block_time": 1710405325
  },
  "hex": "020000000001019f94b732883bd1848abadb015b93e3fb9d052e3df09c018fcc6d1225f535feaa0200000000fdffffff0108f70800000000001600145fc35767946987b7390c202fb8ca4d0e272a007f024730440220131d1c30cadedea010585d77ed742daaee40b5b399009f063f3374e1219a491a02201a6e613cdbb97366273e2505f79118a31c9e7b3a75823e1ddb157b17426f5dfa0121028dcca8c7e5217ce5d2961d74700a236130c9c71016224b1acef464ed9401e81a00000000"
}