{
  "txid": "9457b7551379a290f80d2eba79f9913dd417e21113cc3691597c3519ec39ad38",
  "version": 2,
  "locktime": 0,
  "vin": [
    {
      "txid": "36170b79a4b679e22f1ab4be0c11525fff52aabd97dd4d17764f078a0c184b87",
      "vout": 1,
      "prevout": {
        "scriptpubkey": "001470178aabcf579f29af8a615f57ccac1c5c55dfb0",
        "scriptpubkey_asm": "OP_0 OP_PUSHBYTES_20 70178aabcf579f29af8a615f57ccac1c5c55dfb0",
        "scriptpubkey_type": "v0_p2wpkh",
        "scriptpubkey_address": "bc1qwqtc4270270jntu2v9040n9vr3w9thaslq5kz2",
        "value": 400118
      },
      "scriptsig": "",
      "scriptsig_asm": "",
      "witness": [
        "30440220606294751be4256f4365741b677834180f2baf8a6f9a6dceeae64471cf422f62022069e1abda1f519595f77d6e9c06861d4db0b5b0b84b5ed54b82e758f851d4213401",
        "038af395ded7d369c5524f4c300f9b605b6d3347d43b2080267fd79d475176ab6b"
      ],
      "is_coinbase": false,
      "sequence": 4294967295
    }
  ],
  "vout": [
    {
      "scriptpubkey": "0014478ef42a571224d1155c13aa84f8130f3b82e0f1",
      "scriptpubkey_asm": "OP_0 OP_PUSHBYTES_20 478ef42a571224d1155c13aa84f8130f3b82e0f1",
      "scriptpubkey_type": "v0_p2wpkh",
      "scriptpubkey_address": "bc1qg780g2jhzgjdz92uzw4gf7qnpuac9c8363g2vk",
      "value": 347750
    },
    {
      "scriptpubkey": "0014a0b6eeb8ff43075d92e4a26c0b4e4fbb8137a841",
      "scriptpubkey_asm": "OP_0 OP_PUSHBYTES_20 a0b6eeb8ff43075d92e4a26c0b4e4fbb8137a841",
      "scriptpubkey_type": "v0_p2wpkh",
      "scriptpubkey_address": "bc1q5zmwaw8lgvr4myhy5fkqknj0hwqn02zpq0ej7z",
      "value": 50845
    }
  ],
  "size": 222,
  "weight": 561,
  "fee": 1523,
  "status": {
    "confirmed": true,
    "block_height": 834464,
    "block_hash": "0000000000000000000177a0869a911a2b65c9bdcd5a8bcb02b68f305bee848e",
    "block_time": 1710308296
  },
  "hex": "02000000000101874b180c8a074f76174ddd97bdaa52ff5f52110cbeb41a2fe279b6a4790b17360100000000ffffffff02664e050000000000160014478ef42a571224d1155c13aa84f8130f3b82e0f19dc6000000000000160014a0b6eeb8ff43075d92e4a26c0b4e4fbb8137a841024730440220606294751be4256f4365741b677834180f2baf8a6f9a6dceeae64471cf422f62022069e1abda1f519595f77d6e9c06861d4db0b5b0b84b5ed54b82e758f851d421340121038af395ded7d369c5524f4c300f9b605b6d3347d43b2080267fd79d475176ab6b00000000"
}