{
  "txid": "945f624a68af13879d803fb82fd3be8e3993e23c4c638909d2fa11c7aebffa67",
  "version": 2,
  "locktime": 0,
  "vin": [
    {
      "txid": "ec9ceba39d35d7db192d676eb28c1a351f8a644dea365d80ed1545124c6d0529",
      "vout": 1,
      "prevout": {
        "scriptpubkey": "512062788e33245345425f257ce348df8f9ca70ab21597570291c398580f6b7dccb1",
        "scriptpubkey_asm": "OP_PUSHNUM_1 OP_PUSHBYTES_32 62788e33245345425f257ce348df8f9ca70ab21597570291c398580f6b7dccb1",
        "scriptpubkey_type": "v1_p2tr",
        "scriptpubkey_address": "bc1pvfuguvey2dz5yhe90n353hu0njns4vs4jats9ywrnpvq76maejcsc68dn9",
        "value": 2197679
      },
      "scriptsig": "",
      "scriptsig_asm": "",
      "witness": [
        "91270dcf9adae3543a13111d5f1b55b992c316347f5ef3f23e1f1e1076fa8861bde5adfc1093c267385f0c06aa3c911c0b3c6836f9fb02c1cc79103569b443d8"
      ],
      "is_coinbase": false,
      "sequence": 4294967293
    }
  ],
  "vout": [
    {
      "scriptpubkey": "5120beb2b31d474e5591ebc60653794f8f9c2abaadb92a1165ab5fab9108f2ecac10",
      "scriptpubkey_asm": "OP_PUSHNUM_1 OP_PUSHBYTES_32 beb2b31d474e5591ebc60653794f8f9c2abaadb92a1165ab5fab9108f2ecac10",
      "scriptpubkey_type": "v1_p2tr",
      "scriptpubkey_address": "bc1ph6etx828fe2er67xqefhjnu0ns4t4tde9ggkt26l4wgs3uhv4sgqqjdn3a",
      "value": 2826
    },
    {
      "scriptpubkey": "512062788e33245345425f257ce348df8f9ca70ab21597570291c398580f6b7dccb1",
      "scriptpubkey_asm": "OP_PUSHNUM_1 OP_PUSHBYTES_32 62788e33245345425f257ce348df8f9ca70ab21597570291c398580f6b7dccb1",
      "scriptpubkey_type": "v1_p2tr",
      "scriptpubkey_address": "bc1pvfuguvey2dz5yhe90n353hu0njns4vs4jats9ywrnpvq76maejcsc68dn9",
      "value": 2192543
    }
  ],
  "size": 205,
  "weight": 616,
  "fee": 2310,
  "status": {
    "confirmed": true,
    "block_height": 834638,
    "block_hash": "000000000000000000025f742c626208ac87e0b7d15054abb4a19ca2d735a54e",
    "block_time": 1710405325
  },
  "hex": "0200000000010129056d4c124515ed805d36ea4d648a1f351a8cb26e672d19dbd7359da3eb9cec0100000000fdffffff020a0b000000000000225120beb2b31d474e5591ebc60653794f8f9c2abaadb92a1165ab5fab9108f2ecac109f7421000000000022512062788e33245345425f257ce348df8f9ca70ab21597570291c398580f6b7dccb1014091270dcf9adae3543a13111d5f1b55b992c316347f5ef3f23e1f1e1076fa8861bde5adfc1093c267385f0c06aa3c911c0b3c6836f9fb02c1cc79103569b443d800000000"
}