{
  "txid": "947506106adc4c2e6fcb8b5f31d8251dcfa10626a0fff1d69c9b23d59118f6b8",
  "version": 1,
  "locktime": 0,
  "vin": [
    {
      "txid": "ca5517c2bd809942aec22f2f84b3dcd53e87caa34bcee5fa920a8f95b2b11212",
      "vout": 1,
      "prevout": {
        "scriptpubkey": "0014607a6bb992b8e0a39c6f563d1c6d1891a29c9494",
        "scriptpubkey_asm": "OP_0 OP_PUSHBYTES_20 607a6bb992b8e0a39c6f563d1c6d1891a29c9494",
        "scriptpubkey_type": "v0_p2wpkh",
        "scriptpubkey_address": "bc1qvpaxhwvjhrs288r02c73cmgcjx3fe9y5r78prn",
        "value": 422433
      },
      "scriptsig": "",
      "scriptsig_asm": "",
      "witness": [
        "3044022059ee755a62c97704f76bc5687833f0610cf33784965cdac106b8b7071cd7c2810220143239acaf0482090d137e1c9fcf8db70eea8a2d2a73c6acef9886d69526838501",
        "020b87e42507e1c593c09d6b1eae62f82ae0b8933b248d8116c0e43ff2ce84f39d"
      ],
      "is_coinbase": false,
      "sequence": 4294967295
    }
  ],
  "vout": [
    {
      "scriptpubkey": "a91444e6b854b008793b21911aa56c7ec0b16c18cabc87",
      "scriptpubkey_asm": "OP_HASH160 OP_PUSHBYTES_20 44e6b854b008793b21911aa56c7ec0b16c18cabc OP_EQUAL",
      "scriptpubkey_type": "p2sh",
      "scriptpubkey_address": "37yLGJE2nruVhe7o9HqqxCTF8YtybKYVDH",
      "value": 160000
    },
    {
      "scriptpubkey": "0014607a6bb992b8e0a39c6f563d1c6d1891a29c9494",
      "scriptpubkey_asm": "OP_0 OP_PUSHBYTES_20 607a6bb992b8e0a39c6f563d1c6d1891a29c9494",
      "scriptpubkey_type": "v0_p2wpkh",
      "scriptpubkey_address": "bc1qvpaxhwvjhrs288r02c73cmgcjx3fe9y5r78prn",
      "value": 258599
    }
  ],
  "size": 223,
  "weight": 565,
  "fee": 3834,
  "status": {
    "confirmed": true,
    "block_height": 834638,
    "block_hash": "000000000000000000025f742c626208ac87e0b7d15054abb4a19ca2d735a54e",
    "block_time": 1710405325
  },
  "hex": "010000000001011212b1b2958f0a92fae5ce4ba3ca873ed5dcb3842f2fc2ae429980bdc21755ca0100000000ffffffff02007102000000000017a91444e6b854b008793b21911aa56c7ec0b16c18cabc8727f2030000000000160014607a6bb992b8e0a39c6f563d1c6d1891a29c949402473044022059ee755a62c97704f76bc5687833f0610cf33784965cdac106b8b7071cd7c2810220143239acaf0482090d137e1c9fcf8db70eea8a2d2a73c6acef9886d6952683850121020b87e42507e1c593c09d6b1eae62f82ae0b8933b248d8116c0e43ff2ce84f39d00000000"
}