{
  "txid": "94cd49c87637f19d7222a856f1eee2d30825079582ece28d52ab06814516abd4",
  "version": 2,
  "locktime": 0,
  "vin": [
    {
      "txid": "7001510278e282e763a5552e802bc643a1cb9d413a55bf2f5c53d7a0ee13e67b",
      "vout": 1,
      "prevout": {
        "scriptpubkey": "a9147fa175d802d08690d15101c5f5be494a4919b5ea87",
        "scriptpubkey_asm": "OP_HASH160 OP_PUSHBYTES_20 7fa175d802d08690d15101c5f5be494a4919b5ea OP_EQUAL",
        "scriptpubkey_type": "p2sh",
        "scriptpubkey_address": "3DKsANCvug58x7hS5zMZsLhzegkj7RAK3A",
        "value": 20546
      },
      "scriptsig": "160014a1a84accbb100f72e7013b079beb1f93523bbded",
      "scriptsig_asm": "OP_PUSHBYTES_22 0014a1a84accbb100f72e7013b079beb1f93523bbded",
      "witness": [
        "3045022100865c1aee6c2e8abc79824e3dbb7b2205c6ee2b92c34a584f1c5e8c314c532a100220043ad2e8c89d686b2c3cea99ceddb35c1fe27fd763b55de7842f719773409e4401",
        "026b18a438029f9d251dbf968189a4dfe6a8249db9727707cbeefddebb3287af87"
      ],
      "is_coinbase": false,
      "sequence": 4294967295,
      "inner_redeemscript_asm": "OP_0 OP_PUSHBYTES_20 a1a84accbb100f72e7013b079beb1f93523bbded"
    }
  ],
  "vout": [
    {
      "scriptpubkey": "a9147fa175d802d08690d15101c5f5be494a4919b5ea87",
      "scriptpubkey_asm": "OP_HASH160 OP_PUSHBYTES_20 7fa175d802d08690d15101c5f5be494a4919b5ea OP_EQUAL",
      "scriptpubkey_type": "p2sh",
      "scriptpubkey_address": "3DKsANCvug58x7hS5zMZsLhzegkj7RAK3A",
      "value": 600
    },
    {
      "scriptpubkey": "a9147fa175d802d08690d15101c5f5be494a4919b5ea87",
      "scriptpubkey_asm": "OP_HASH160 OP_PUSHBYTES_20 7fa175d802d08690d15101c5f5be494a4919b5ea OP_EQUAL",
      "scriptpubkey_type": "p2sh",
      "scriptpubkey_address": "3DKsANCvug58x7hS5zMZsLhzegkj7RAK3A",
      "value": 600
    },
    {
      "scriptpubkey": "a9147fa175d802d08690d15101c5f5be494a4919b5ea87",
      "scriptpubkey_asm": "OP_HASH160 OP_PUSHBYTES_20 7fa175d802d08690d15101c5f5be494a4919b5ea OP_EQUAL",
      "scriptpubkey_type": "p2sh",
      "scriptpubkey_address": "3DKsANCvug58x7hS5zMZsLhzegkj7RAK3A",
      "value": 600
    },
    {
      "scriptpubkey": "a9147fa175d802d08690d15101c5f5be494a4919b5ea87",
      "scriptpubkey_asm": "OP_HASH160 OP_PUSHBYTES_20 7fa175d802d08690d15101c5f5be494a4919b5ea OP_EQUAL",
      "scriptpubkey_type": "p2sh",
      "scriptpubkey_address": "3DKsANCvug58x7hS5zMZsLhzegkj7RAK3A",
      "value": 600
    },
    {
      "scriptpubkey": "a9147fa175d802d08690d15101c5f5be494a4919b5ea87",
      "scriptpubkey_asm": "OP_HASH160 OP_PUSHBYTES_20 7fa175d802d08690d15101c5f5be494a4919b5ea OP_EQUAL",
      "scriptpubkey_type": "p2sh",
      "scriptpubkey_address": "3DKsANCvug58x7hS5zMZsLhzegkj7RAK3A",
      "value": 600
    },
    {
      "scriptpubkey": "a9147fa175d802d08690d15101c5f5be494a4919b5ea87",
      "scriptpubkey_asm": "OP_HASH160 OP_PUSHBYTES_20 7fa175d802d08690d15101c5f5be494a4919b5ea OP_EQUAL",
      "scriptpubkey_type": "p2sh",
      "scriptpubkey_address": "3DKsANCvug58x7hS5zMZsLhzegkj7RAK3A",
      "value": 600
    },
    {
      "scriptpubkey": "a9147fa175d802d08690d15101c5f5be494a4919b5ea87",
      "scriptpubkey_asm": "OP_HASH160 OP_PUSHBYTES_20 7fa175d802d08690d15101c5f5be494a4919b5ea OP_EQUAL",
      "scriptpubkey_type": "p2sh",
      "scriptpubkey_address": "3DKsANCvug58x7hS5zMZsLhzegkj7RAK3A",
      "value": 600
    },
    {
      "scriptpubkey": "a9147fa175d802d08690d15101c5f5be494a4919b5ea87",
      "scriptpubkey_asm": "OP_HASH160 OP_PUSHBYTES_20 7fa175d802d08690d15101c5f5be494a4919b5ea OP_EQUAL",
      "scriptpubkey_type": "p2sh",
      "scriptpubkey_address": "3DKsANCvug58x7hS5zMZsLhzegkj7RAK3A",
      "value": 600
    },
    {
      "scriptpubkey": "a9147fa175d802d08690d15101c5f5be494a4919b5ea87",
      "scriptpubkey_asm": "OP_HASH160 OP_PUSHBYTES_20 7fa175d802d08690d15101c5f5be494a4919b5ea OP_EQUAL",
      "scriptpubkey_type": "p2sh",
      "scriptpubkey_address": "3DKsANCvug58x7hS5zMZsLhzegkj7RAK3A",
      "value": 600
    },
    {
      "scriptpubkey": "a9147fa175d802d08690d15101c5f5be494a4919b5ea87",
      "scriptpubkey_asm": "OP_HASH160 OP_PUSHBYTES_20 7fa175d802d08690d15101c5f5be494a4919b5ea OP_EQUAL",
      "scriptpubkey_type": "p2sh",
      "scriptpubkey_address": "3DKsANCvug58x7hS5zMZsLhzegkj7RAK3A",
      "value": 600
    },
    {
      "scriptpubkey": "a9147fa175d802d08690d15101c5f5be494a4919b5ea87",
      "scriptpubkey_asm": "OP_HASH160 OP_PUSHBYTES_20 7fa175d802d08690d15101c5f5be494a4919b5ea OP_EQUAL",
      "scriptpubkey_type": "p2sh",
      "scriptpubkey_address": "3DKsANCvug58x7hS5zMZsLhzegkj7RAK3A",
      "value": 7282
    }
  ],
  "size": 536,
  "weight": 1814,
  "fee": 7264,
  "status": {
    "confirmed": true,
    "block_height": 834464,
    "block_hash": "0000000000000000000177a0869a911a2b65c9bdcd5a8bcb02b68f305bee848e",
    "block_time": 1710308296
  },
  "hex": "020000000001017be613eea0d7535c2fbf553a419dcba143c62b802e55a563e782e278025101700100000017160014a1a84accbb100f72e7013b079beb1f93523bbdedffffffff0b580200000000000017a9147fa175d802d08690d15101c5f5be494a4919b5ea87580200000000000017a9147fa175d802d08690d15101c5f5be494a4919b5ea87580200000000000017a9147fa175d802d08690d15101c5f5be494a4919b5ea87580200000000000017a9147fa175d802d08690d15101c5f5be494a4919b5ea87580200000000000017a9147fa175d802d08690d15101c5f5be494a4919b5ea87580200000000000017a9147fa175d802d08690d15101c5f5be494a4919b5ea87580200000000000017a9147fa175d802d08690d15101c5f5be494a4919b5ea87580200000000000017a9147fa175d802d08690d15101c5f5be494a4919b5ea87580200000000000017a9147fa175d802d08690d15101c5f5be494a4919b5ea87580200000000000017a9147fa175d802d08690d15101c5f5be494a4919b5ea87721c00000000000017a9147fa175d802d08690d15101c5f5be494a4919b5ea8702483045022100865c1aee6c2e8abc79824e3dbb7b2205c6ee2b92c34a584f1c5e8c314c532a100220043ad2e8c89d686b2c3cea99ceddb35c1fe27fd763b55de7842f719773409e440121026b18a438029f9d251dbf968189a4dfe6a8249db9727707cbeefddebb3287af8700000000"
}