{
  "txid": "94ebb121cdaae52da30d0caa2c586d6e9e0bcdfc2161737e4ff35e2997744cac",
  "version": 2,
  "locktime": 0,
  "vin": [
    {
      "txid": "4ee77778659dcfe8d7a4e15882fc6193f4f3d5f6607624e256337b44c2280af5",
      "vout": 62,
      "prevout": {
        "scriptpubkey": "51203c5f863c7540a5916e3e844f214663e49840de3dd8d02ea682d105f56fbc60ea",
        "scriptpubkey_asm": "OP_PUSHNUM_1 OP_PUSHBYTES_32 3c5f863c7540a5916e3e844f214663e49840de3dd8d02ea682d105f56fbc60ea",
        "scriptpubkey_type": "v1_p2tr",
        "scriptpubkey_address": "bc1p830cv0r4gzjezm37s38jz3nrujvyph3amrgzaf5z6yzl2mauvr4q0wjnrw",
        "value": 2075
      },
      "scriptsig": "",
      "scriptsig_asm": "",
      "witness": [
        "ca2b02e8a5e983715343f505729a2b53cf1cc21c665da97c8049e573632fe230449ec65a54f395f2d57469b7c396688daf400313ef7f13ef0c8cf8898efe02bf",
        "2059151de743ef7bcbedd072b10905fe107dae503fcae3f85e41779a1f168e61c7ac0063036f7264010118746578742f706c61696e3b636861727365743d7574662d3800357b2270223a224252432d313030222c226f70223a226d696e74222c227469636b223a22696e73222c22616d74223a2231303030227d68",
        "c0c50eac15d7d7889f5ad84f80015e8a209129aeea937c37fa4b8bc0f9be289730"
      ],
      "is_coinbase": false,
      "sequence": 4294967295
    }
  ],
  "vout": [
    {
      "scriptpubkey": "00143e2325412b554cacdd163a93a42204c4707f8851",
      "scriptpubkey_asm": "OP_0 OP_PUSHBYTES_20 3e2325412b554cacdd163a93a42204c4707f8851",
      "scriptpubkey_type": "v0_p2wpkh",
      "scriptpubkey_address": "bc1q8c3j2sft24x2ehgk82f6ggsyc3c8lzz3yw9wsu",
      "value": 546
    }
  ],
  "size": 308,
  "weight": 554,
  "fee": 1529,
  "status": {
    "confirmed": true,
    "block_height": 834464,
    "block_hash": "0000000000000000000177a0869a911a2b65c9bdcd5a8bcb02b68f305bee848e",
    "block_time": 1710308296
  },
  "hex": "02000000000101f50a28c2447b3356e2247660f6d5f3f49361fc8258e1a4d7e8cf9d657877e74e3e00000000ffffffff0122020000000000001600143e2325412b554cacdd163a93a42204c4707f88510340ca2b02e8a5e983715343f505729a2b53cf1cc21c665da97c8049e573632fe230449ec65a54f395f2d57469b7c396688daf400313ef7f13ef0c8cf8898efe02bf7b2059151de743ef7bcbedd072b10905fe107dae503fcae3f85e41779a1f168e61c7ac0063036f7264010118746578742f706c61696e3b636861727365743d7574662d3800357b2270223a224252432d313030222c226f70223a226d696e74222c227469636b223a22696e73222c22616d74223a2231303030227d6821c0c50eac15d7d7889f5ad84f80015e8a209129aeea937c37fa4b8bc0f9be28973000000000"
}