{
  "txid": "94f4ba22de000eb4de31e30fe52976fe7a443f5396bfd7ca86682c5ec7e59f5d",
  "version": 2,
  "locktime": 0,
  "vin": [
    {
      "txid": "acc3ba00869acb582a3f2904ce3a11dd3779350ce234063fc7d0959246213364",
      "vout": 71,
      "prevout": {
        "scriptpubkey": "512054b54b47179cc17478af6cf7788efc7b3cf35b0ec70fbe8861121174dbcbdc85",
        "scriptpubkey_asm": "OP_PUSHNUM_1 OP_PUSHBYTES_32 54b54b47179cc17478af6cf7788efc7b3cf35b0ec70fbe8861121174dbcbdc85",
        "scriptpubkey_type": "v1_p2tr",
        "scriptpubkey_address": "bc1p2j65k3chnnqhg790dnmh3rhu0v70xkcwcu8mazrpzgghfk7tmjzsh0sw3m",
        "value": 1806
      },
      "scriptsig": "",
      "scriptsig_asm": "",
      "witness": [
        "1ae1fed1febf6943d669c22c1c113516b2ebd6627e23e5209ea7cfa62cd71a5753668b8080b7d4ae9889f4ffb1087ff0a424b78f249c782994257a6598fd69ba",
        "20ea3accfa9ae1cc3ccb203956ce22c33df3c57cf6c9ad1de06f925e1fe86fd44bac0063036f726401010a746578742f706c61696e00357b2270223a226272632d3230222c226f70223a226d696e74222c227469636b223a22646f6765222c22616d74223a2234323030227d68",
        "c0ea3accfa9ae1cc3ccb203956ce22c33df3c57cf6c9ad1de06f925e1fe86fd44b"
      ],
      "is_coinbase": false,
      "sequence": 4261412863
    }
  ],
  "vout": [
    {
      "scriptpubkey": "00147a665de7a370f4c9b372ab1fae587500a5bcbdb4",
      "scriptpubkey_asm": "OP_0 OP_PUSHBYTES_20 7a665de7a370f4c9b372ab1fae587500a5bcbdb4",
      "scriptpubkey_type": "v0_p2wpkh",
      "scriptpubkey_address": "bc1q0fn9mearwr6vnvmj4v06ukr4qzjme0d565dzcx",
      "value": 294
    }
  ],
  "size": 294,
  "weight": 540,
  "fee": 1512,
  "status": {
    "confirmed": true,
    "block_height": 834460,
    "block_hash": "00000000000000000000484a79b643b2524bbce82e5d8a442013fa5b8905ed98",
    "block_time": 1710307468
  },
  "hex": "02000000000101643321469295d0c73f0634e20c357937dd113ace04293f2a58cb9a8600bac3ac4700000000fffffffd0126010000000000001600147a665de7a370f4c9b372ab1fae587500a5bcbdb403401ae1fed1febf6943d669c22c1c113516b2ebd6627e23e5209ea7cfa62cd71a5753668b8080b7d4ae9889f4ffb1087ff0a424b78f249c782994257a6598fd69ba6d20ea3accfa9ae1cc3ccb203956ce22c33df3c57cf6c9ad1de06f925e1fe86fd44bac0063036f726401010a746578742f706c61696e00357b2270223a226272632d3230222c226f70223a226d696e74222c227469636b223a22646f6765222c22616d74223a2234323030227d6821c0ea3accfa9ae1cc3ccb203956ce22c33df3c57cf6c9ad1de06f925e1fe86fd44b00000000"
}