{
  "txid": "94f50caa126f720468e8e0d3b6058451c9924c80a6b3169e4923d974c511ea79",
  "version": 2,
  "locktime": 834637,
  "vin": [
    {
      "txid": "fa928cdadefddf0aeb7027e05d97be567352fb973a357e6054bc06454a88c917",
      "vout": 1,
      "prevout": {
        "scriptpubkey": "00147a99e5bce7a593542b5ab6b15b8d692ca96d5684",
        "scriptpubkey_asm": "OP_0 OP_PUSHBYTES_20 7a99e5bce7a593542b5ab6b15b8d692ca96d5684",
        "scriptpubkey_type": "v0_p2wpkh",
        "scriptpubkey_address": "bc1q02v7t0885kf4g266k6c4hrtf9j5k645y8chvq7",
        "value": 701953012
      },
      "scriptsig": "",
      "scriptsig_asm": "",
      "witness": [
        "304402205001e9e8675afe67d2234ad3f6248ba27b0463f3cc8de33d4382e2abd0027307022007630b06c5006af4e6682c54fb1eaac62064e7a1fd8b4e1223157d88ed81c68c01",
        "031f70297cfa89b305c8cb7dc4a0d5a6f70be294a01f8c407e20a05929b81d72a9"
      ],
      "is_coinbase": false,
      "sequence": 4294967294
    }
  ],
  "vout": [
    {
      "scriptpubkey": "0014c73f945b49c729cf283a6f11058bde0f94a811bb",
      "scriptpubkey_asm": "OP_0 OP_PUSHBYTES_20 c73f945b49c729cf283a6f11058bde0f94a811bb",
      "scriptpubkey_type": "v0_p2wpkh",
      "scriptpubkey_address": "bc1qculegk6fcu5u72p6dugstz77p722sydm0a0345",
      "value": 699196432
    },
    {
      "scriptpubkey": "a914eebc52a133e8f0ace39edb9aea59a638ec38a7b887",
      "scriptpubkey_asm": "OP_HASH160 OP_PUSHBYTES_20 eebc52a133e8f0ace39edb9aea59a638ec38a7b8 OP_EQUAL",
      "scriptpubkey_type": "p2sh",
      "scriptpubkey_address": "3PTLM6Tr44nG1uftFnneshFwkAGvVBsEt8",
      "value": 2753100
    }
  ],
  "size": 223,
  "weight": 565,
  "fee": 3480,
  "status": {
    "confirmed": true,
    "block_height": 834638,
    "block_hash": "000000000000000000025f742c626208ac87e0b7d15054abb4a19ca2d735a54e",
    "block_time": 1710405325
  },
  "hex": "0200000000010117c9884a4506bc54607e353a97fb527356be975de02770eb0adffddeda8c92fa0100000000feffffff0210e4ac2900000000160014c73f945b49c729cf283a6f11058bde0f94a811bb4c022a000000000017a914eebc52a133e8f0ace39edb9aea59a638ec38a7b8870247304402205001e9e8675afe67d2234ad3f6248ba27b0463f3cc8de33d4382e2abd0027307022007630b06c5006af4e6682c54fb1eaac62064e7a1fd8b4e1223157d88ed81c68c0121031f70297cfa89b305c8cb7dc4a0d5a6f70be294a01f8c407e20a05929b81d72a94dbc0c00"
}