{
  "txid": "95051a11278974f4ebdebd576b0c5c0b53e0d1c4935f299e279632798ce749e3",
  "version": 2,
  "locktime": 0,
  "vin": [
    {
      "txid": "061b62a9ef7e4c42385f0de28dd4a3eb00be4754db440af47491396e1e551285",
      "vout": 23,
      "prevout": {
        "scriptpubkey": "5120d4456f43aa466cab7004b3c799078f1b5d1bba79c154f92dfb28531601258536",
        "scriptpubkey_asm": "OP_PUSHNUM_1 OP_PUSHBYTES_32 d4456f43aa466cab7004b3c799078f1b5d1bba79c154f92dfb28531601258536",
        "scriptpubkey_type": "v1_p2tr",
        "scriptpubkey_address": "bc1p63zk7sa2gek2kuqyk0rejpu0rdw3hwnec920jt0m9pf3vqf9s5mqq4dfkq",
        "value": 2220
      },
      "scriptsig": "",
      "scriptsig_asm": "",
      "witness": [
        "4b1d705c5a1d79d7363f1567910070240c3cab16b08c0293d62701fae9067df9a55b2f745535857612a4df11fa1fcd68b3c811d8053296a20e7a29d8f3f85bb8",
        "20430f9651e3d91fa760a1795a6719919ac98f32f93f52ef96f39bc18c503581f1ac0063036f7264010118746578742f706c61696e3b636861727365743d7574662d3800367b2270223a226272632d3230222c226f70223a226d696e74222c227469636b223a2261616161222c22616d74223a223130303030227d68",
        "c1430f9651e3d91fa760a1795a6719919ac98f32f93f52ef96f39bc18c503581f1"
      ],
      "is_coinbase": false,
      "sequence": 4294967293
    }
  ],
  "vout": [
    {
      "scriptpubkey": "a914a8bc3251efd8c6fdbadcb1233994ae953944e4f087",
      "scriptpubkey_asm": "OP_HASH160 OP_PUSHBYTES_20 a8bc3251efd8c6fdbadcb1233994ae953944e4f0 OP_EQUAL",
      "scriptpubkey_type": "p2sh",
      "scriptpubkey_address": "3H5Ctu24hXXM5NKwSjCoVmFaXNeSe4R5FM",
      "value": 540
    }
  ],
  "size": 310,
  "weight": 559,
  "fee": 1680,
  "status": {
    "confirmed": true,
    "block_height": 834460,
    "block_hash": "00000000000000000000484a79b643b2524bbce82e5d8a442013fa5b8905ed98",
    "block_time": 1710307468
  },
  "hex": "020000000001018512551e6e399174f40a44db5447be00eba3d48de20d5f38424c7eefa9621b061700000000fdffffff011c0200000000000017a914a8bc3251efd8c6fdbadcb1233994ae953944e4f08703404b1d705c5a1d79d7363f1567910070240c3cab16b08c0293d62701fae9067df9a55b2f745535857612a4df11fa1fcd68b3c811d8053296a20e7a29d8f3f85bb87c20430f9651e3d91fa760a1795a6719919ac98f32f93f52ef96f39bc18c503581f1ac0063036f7264010118746578742f706c61696e3b636861727365743d7574662d3800367b2270223a226272632d3230222c226f70223a226d696e74222c227469636b223a2261616161222c22616d74223a223130303030227d6821c1430f9651e3d91fa760a1795a6719919ac98f32f93f52ef96f39bc18c503581f100000000"
}