{
  "txid": "950935223f090e4837b54e5d99e9223756ead5160993201e1883ba689006399b",
  "version": 1,
  "locktime": 0,
  "vin": [
    {
      "txid": "115b10ee77bddb6e311c663cd855f7a0393802d17f950d6a33d60885334718d2",
      "vout": 1,
      "prevout": {
        "scriptpubkey": "0014b70cbb947ed6ce079fb2c0e59262c4e79e6c048e",
        "scriptpubkey_asm": "OP_0 OP_PUSHBYTES_20 b70cbb947ed6ce079fb2c0e59262c4e79e6c048e",
        "scriptpubkey_type": "v0_p2wpkh",
        "scriptpubkey_address": "bc1qkuxth9r76m8q08ajcrjeyckyu70xcpywt0dcc3",
        "value": 2690192221
      },
      "scriptsig": "",
      "scriptsig_asm": "",
      "witness": [
        "3045022100bf1a14f41d94ae87c2a5fcc7785a48ff0187edce2ad25c94ac1b2afd8ce0940202201bbe8ba674e2b147332a24f41039374b74f28cb5e512a83c4c00144eaec156d801",
        "02d18176f9ac39366415370c2b0d773d486ccf68e3bb51bb4ccdda29e350951fdb"
      ],
      "is_coinbase": false,
      "sequence": 4294967293
    }
  ],
  "vout": [
    {
      "scriptpubkey": "00141af5635d317f5e4b7720a126247b70097856842e",
      "scriptpubkey_asm": "OP_0 OP_PUSHBYTES_20 1af5635d317f5e4b7720a126247b70097856842e",
      "scriptpubkey_type": "v0_p2wpkh",
      "scriptpubkey_address": "bc1qrt6kxhf30a0ykaeq5ynzg7msp9u9dppw25slr6",
      "value": 200000000
    },
    {
      "scriptpubkey": "001447dda2baeb24f3ebd80bf1b867a4b7007c6fdf47",
      "scriptpubkey_asm": "OP_0 OP_PUSHBYTES_20 47dda2baeb24f3ebd80bf1b867a4b7007c6fdf47",
      "scriptpubkey_type": "v0_p2wpkh",
      "scriptpubkey_address": "bc1qglw69whtyne7hkqt7xux0f9hqp7xlh6883cvez",
      "value": 2490185171
    }
  ],
  "size": 223,
  "weight": 562,
  "fee": 7050,
  "status": {
    "confirmed": true,
    "block_height": 834638,
    "block_hash": "000000000000000000025f742c626208ac87e0b7d15054abb4a19ca2d735a54e",
    "block_time": 1710405325
  },
  "hex": "01000000000101d21847338508d6336a0d957fd1023839a0f755d83c661c316edbbd77ee105b110100000000fdffffff0200c2eb0b000000001600141af5635d317f5e4b7720a126247b70097856842ed3356d940000000016001447dda2baeb24f3ebd80bf1b867a4b7007c6fdf4702483045022100bf1a14f41d94ae87c2a5fcc7785a48ff0187edce2ad25c94ac1b2afd8ce0940202201bbe8ba674e2b147332a24f41039374b74f28cb5e512a83c4c00144eaec156d8012102d18176f9ac39366415370c2b0d773d486ccf68e3bb51bb4ccdda29e350951fdb00000000"
}