{
  "txid": "950dc7a272cdc559569325c25bde0f9407c18aa2c4da2c56f2d9cb68fd1cf1c1",
  "version": 1,
  "locktime": 0,
  "vin": [
    {
      "txid": "2bf36746f0748ae5dfecbb1a335e35e9f2bb5dabae5ca2070613db958eea1b19",
      "vout": 75,
      "prevout": {
        "scriptpubkey": "001443a04397b38bd3139c69172e8d73ce2b7cd84741",
        "scriptpubkey_asm": "OP_0 OP_PUSHBYTES_20 43a04397b38bd3139c69172e8d73ce2b7cd84741",
        "scriptpubkey_type": "v0_p2wpkh",
        "scriptpubkey_address": "bc1qgwsy89an30f388rfzuhg6u7w9d7ds36p3lwek4",
        "value": 610998
      },
      "scriptsig": "",
      "scriptsig_asm": "",
      "witness": [
        "304402202c83008e4af6978e00cf8268f71b8e6982306194b651b4f8ee84ca8bd858eefd02207a911b660250dbbe530f86806214df350e5734a138ca99997a990faddeaf36f701",
        "02fe1e2c8415ff89f4714eb9ac656ae6e95554c820717928fa09c9fc8e1a81f062"
      ],
      "is_coinbase": false,
      "sequence": 4294967295
    },
    {
      "txid": "bbc09c6ac05404a5a5663433eab8fc855e66887bb59fb97e3c471f8480af5cd6",
      "vout": 0,
      "prevout": {
        "scriptpubkey": "00147b5661d2c97098de38114578d9a9678a86e1ac0a",
        "scriptpubkey_asm": "OP_0 OP_PUSHBYTES_20 7b5661d2c97098de38114578d9a9678a86e1ac0a",
        "scriptpubkey_type": "v0_p2wpkh",
        "scriptpubkey_address": "bc1q0dtxr5kfwzvduwq3g4udn2t832rwrtq246xecp",
        "value": 1404
      },
      "scriptsig": "",
      "scriptsig_asm": "",
      "witness": [
        "30450221008f719fae3c12d923598f01024aa5295be61058ed3a219e2287158991eabbc56302206a364b6c9a074c671bb26a3e51dd75148775d87242b1983420d4f7b230877d8601",
        "032ebc548f685a953b9ec1108c903ae0e41b63acbacddc86c88fd1fac11586a26d"
      ],
      "is_coinbase": false,
      "sequence": 4294967295
    }
  ],
  "vout": [
    {
      "scriptpubkey": "a9148c11a3467abf7a78d7870c26bffebf5da1fcb8da87",
      "scriptpubkey_asm": "OP_HASH160 OP_PUSHBYTES_20 8c11a3467abf7a78d7870c26bffebf5da1fcb8da OP_EQUAL",
      "scriptpubkey_type": "p2sh",
      "scriptpubkey_address": "3ETdettW6csrqwDLCJ2BkQSDXnMBqdEBuX",
      "value": 608814
    }
  ],
  "size": 341,
  "weight": 713,
  "fee": 3588,
  "status": {
    "confirmed": true,
    "block_height": 834638,
    "block_hash": "000000000000000000025f742c626208ac87e0b7d15054abb4a19ca2d735a54e",
    "block_time": 1710405325
  },
  "hex": "01000000000102191bea8e95db130607a25caeab5dbbf2e9355e331abbecdfe58a74f04667f32b4b00000000ffffffffd65caf80841f473c7eb99fb57b88665e85fcb8ea333466a5a50454c06a9cc0bb0000000000ffffffff012e4a09000000000017a9148c11a3467abf7a78d7870c26bffebf5da1fcb8da870247304402202c83008e4af6978e00cf8268f71b8e6982306194b651b4f8ee84ca8bd858eefd02207a911b660250dbbe530f86806214df350e5734a138ca99997a990faddeaf36f7012102fe1e2c8415ff89f4714eb9ac656ae6e95554c820717928fa09c9fc8e1a81f062024830450221008f719fae3c12d923598f01024aa5295be61058ed3a219e2287158991eabbc56302206a364b6c9a074c671bb26a3e51dd75148775d87242b1983420d4f7b230877d860121032ebc548f685a953b9ec1108c903ae0e41b63acbacddc86c88fd1fac11586a26d00000000"
}