{
  "txid": "95200409c9cf6f13a0e4ae6149a16a4225c2e988da03c0199974f2fa41eee059",
  "version": 2,
  "locktime": 0,
  "vin": [
    {
      "txid": "d3c3f03e5a62a7e8f9b8a1dc3b35f03fe6e064ccfa344d522a72284bb5703190",
      "vout": 52,
      "prevout": {
        "scriptpubkey": "001415867123bf15202553f8ffadb02d6ee240463d1d",
        "scriptpubkey_asm": "OP_0 OP_PUSHBYTES_20 15867123bf15202553f8ffadb02d6ee240463d1d",
        "scriptpubkey_type": "v0_p2wpkh",
        "scriptpubkey_address": "bc1qzkr8zgalz5sz25lcl7kmqttwufqyv0ga827dxs",
        "value": 9356685
      },
      "scriptsig": "",
      "scriptsig_asm": "",
      "witness": [
        "3045022100d4711deff3860d6ba03b5357ec85076fb6b879cda1b32cb02b9102d941ced1910220341d2fdb7521a356179634e90e8e0b5ce990f95f989fd45cd258a0b3ef8432dc01",
        "03a457aece6ba336175c1d3304d8155ea3c6b2659ae22857022614317b50c564eb"
      ],
      "is_coinbase": false,
      "sequence": 0
    }
  ],
  "vout": [
    {
      "scriptpubkey": "00149dadca47998a78d3841cce3d2186b2dae715ec1b",
      "scriptpubkey_asm": "OP_0 OP_PUSHBYTES_20 9dadca47998a78d3841cce3d2186b2dae715ec1b",
      "scriptpubkey_type": "v0_p2wpkh",
      "scriptpubkey_address": "bc1qnkku53ue3fud8pquec7jrp4jmtn3tmqmwtelr6",
      "value": 6632792
    },
    {
      "scriptpubkey": "001451a324eccd77444dca222d4218807f16a6dfd467",
      "scriptpubkey_asm": "OP_0 OP_PUSHBYTES_20 51a324eccd77444dca222d4218807f16a6dfd467",
      "scriptpubkey_type": "v0_p2wpkh",
      "scriptpubkey_address": "bc1q2x3jfmxdwazymj3z94pp3qrlz6ndl4r8h9j002",
      "value": 2721381
    }
  ],
  "size": 223,
  "weight": 562,
  "fee": 2512,
  "status": {
    "confirmed": true,
    "block_height": 834638,
    "block_hash": "000000000000000000025f742c626208ac87e0b7d15054abb4a19ca2d735a54e",
    "block_time": 1710405325
  },
  "hex": "02000000000101903170b54b28722a524d34facc64e0e63ff0353bdca1b8f9e8a7625a3ef0c3d33400000000000000000258356500000000001600149dadca47998a78d3841cce3d2186b2dae715ec1b658629000000000016001451a324eccd77444dca222d4218807f16a6dfd46702483045022100d4711deff3860d6ba03b5357ec85076fb6b879cda1b32cb02b9102d941ced1910220341d2fdb7521a356179634e90e8e0b5ce990f95f989fd45cd258a0b3ef8432dc012103a457aece6ba336175c1d3304d8155ea3c6b2659ae22857022614317b50c564eb00000000"
}