{
  "txid": "952254b6117063f7d1621155751d0a28e459b73d8151ff3718f74cb4fb4ebfb0",
  "version": 2,
  "locktime": 834637,
  "vin": [
    {
      "txid": "358db79be1ce3a9310f2517615a25401f2167acb685b5977d6b6c0e68df44ddc",
      "vout": 0,
      "prevout": {
        "scriptpubkey": "76a91469f7926b0874d5890b0f9e83a65709d21a76000388ac",
        "scriptpubkey_asm": "OP_DUP OP_HASH160 OP_PUSHBYTES_20 69f7926b0874d5890b0f9e83a65709d21a760003 OP_EQUALVERIFY OP_CHECKSIG",
        "scriptpubkey_type": "p2pkh",
        "scriptpubkey_address": "1AfJXk4vV4toeKjKoUR1okx7ash3Vc6XFR",
        "value": 399194
      },
      "scriptsig": "4730440220591fc240ad42b061dc1ffcc6bab3a608015dae4559aea3293ed3c64f476ee65702206d3114ebad0f821ba941f732abbfefc73b151acac05c0db737e4a600fb90455401210254d74da530db61228cf866d9fe8dbdec72880ea398e9be2a588e9a860c136e38",
      "scriptsig_asm": "OP_PUSHBYTES_71 30440220591fc240ad42b061dc1ffcc6bab3a608015dae4559aea3293ed3c64f476ee65702206d3114ebad0f821ba941f732abbfefc73b151acac05c0db737e4a600fb90455401 OP_PUSHBYTES_33 0254d74da530db61228cf866d9fe8dbdec72880ea398e9be2a588e9a860c136e38",
      "is_coinbase": false,
      "sequence": 4294967293
    }
  ],
  "vout": [
    {
      "scriptpubkey": "0014e9cf1d7e150d368cb3b88397661dd5327fa6bbdb",
      "scriptpubkey_asm": "OP_0 OP_PUSHBYTES_20 e9cf1d7e150d368cb3b88397661dd5327fa6bbdb",
      "scriptpubkey_type": "v0_p2wpkh",
      "scriptpubkey_address": "bc1qa8836ls4p5mgevacswtkv8w4xfl6dw7mkhcl3n",
      "value": 396170
    }
  ],
  "size": 188,
  "weight": 752,
  "fee": 3024,
  "status": {
    "confirmed": true,
    "block_height": 834638,
    "block_hash": "000000000000000000025f742c626208ac87e0b7d15054abb4a19ca2d735a54e",
    "block_time": 1710405325
  },
  "hex": "0200000001dc4df48de6c0b6d677595b68cb7a16f20154a2157651f210933acee19bb78d35000000006a4730440220591fc240ad42b061dc1ffcc6bab3a608015dae4559aea3293ed3c64f476ee65702206d3114ebad0f821ba941f732abbfefc73b151acac05c0db737e4a600fb90455401210254d74da530db61228cf866d9fe8dbdec72880ea398e9be2a588e9a860c136e38fdffffff018a0b060000000000160014e9cf1d7e150d368cb3b88397661dd5327fa6bbdb4dbc0c00"
}