{
  "txid": "95289013d5a17629dd7b88013ff65dba34389e4b682b4c4afdae455ebb8ccb78",
  "version": 2,
  "locktime": 0,
  "vin": [
    {
      "txid": "50ebb0afcb3303678a337202c0f409e07bfeebe0c7091b499d78eb1a93fde6c1",
      "vout": 0,
      "prevout": {
        "scriptpubkey": "5120ad2f454063c07edc0f20890ac09e93c284f3adf33ab068d2de3fb64d82478d37",
        "scriptpubkey_asm": "OP_PUSHNUM_1 OP_PUSHBYTES_32 ad2f454063c07edc0f20890ac09e93c284f3adf33ab068d2de3fb64d82478d37",
        "scriptpubkey_type": "v1_p2tr",
        "scriptpubkey_address": "bc1p45h52srrcpldcreq3y9vp85nc2z08t0n82cx35k787mymqj835mskywupp",
        "value": 546
      },
      "scriptsig": "",
      "scriptsig_asm": "",
      "witness": [
        "16d0df58d778945e439cb4e985591b486e47c3faeb2302579a36ecff7f38d9c89be1f3a7c903daca828edd843dd0173f272db56918c6ffcdb07ca91ed0ff9e54"
      ],
      "is_coinbase": false,
      "sequence": 2147483649
    },
    {
      "txid": "26cb1d85596de4fe734621c27bc7b3ac32e3313c596f1177b1df73185bb803c2",
      "vout": 1,
      "prevout": {
        "scriptpubkey": "5120ad2f454063c07edc0f20890ac09e93c284f3adf33ab068d2de3fb64d82478d37",
        "scriptpubkey_asm": "OP_PUSHNUM_1 OP_PUSHBYTES_32 ad2f454063c07edc0f20890ac09e93c284f3adf33ab068d2de3fb64d82478d37",
        "scriptpubkey_type": "v1_p2tr",
        "scriptpubkey_address": "bc1p45h52srrcpldcreq3y9vp85nc2z08t0n82cx35k787mymqj835mskywupp",
        "value": 301816
      },
      "scriptsig": "",
      "scriptsig_asm": "",
      "witness": [
        "2868021f036e8e9f94afba54a2d9be40df063ae2cce244f0913b8129db7481faf8989ebb1ee124863bd73717593b7543a11d58e239053896226ea0382a83c9e9"
      ],
      "is_coinbase": false,
      "sequence": 2147483649
    }
  ],
  "vout": [
    {
      "scriptpubkey": "00145f152b53fc9f6325a4c9349dbabd295a65cb7cc6",
      "scriptpubkey_asm": "OP_0 OP_PUSHBYTES_20 5f152b53fc9f6325a4c9349dbabd295a65cb7cc6",
      "scriptpubkey_type": "v0_p2wpkh",
      "scriptpubkey_address": "bc1qtu2jk5luna3jtfxfxjwm40fftfjuklxxeyuk72",
      "value": 546
    },
    {
      "scriptpubkey": "5120ad2f454063c07edc0f20890ac09e93c284f3adf33ab068d2de3fb64d82478d37",
      "scriptpubkey_asm": "OP_PUSHNUM_1 OP_PUSHBYTES_32 ad2f454063c07edc0f20890ac09e93c284f3adf33ab068d2de3fb64d82478d37",
      "scriptpubkey_type": "v1_p2tr",
      "scriptpubkey_address": "bc1p45h52srrcpldcreq3y9vp85nc2z08t0n82cx35k787mymqj835mskywupp",
      "value": 298831
    }
  ],
  "size": 300,
  "weight": 798,
  "fee": 2985,
  "status": {
    "confirmed": true,
    "block_height": 834460,
    "block_hash": "00000000000000000000484a79b643b2524bbce82e5d8a442013fa5b8905ed98",
    "block_time": 1710307468
  },
  "hex": "02000000000102c1e6fd931aeb789d491b09c7e0ebfe7be009f4c00272338a670333cbafb0eb50000000000001000080c203b85b1873dfb177116f593c31e332acb3c77bc2214673fee46d59851dcb260100000000010000800222020000000000001600145f152b53fc9f6325a4c9349dbabd295a65cb7cc64f8f040000000000225120ad2f454063c07edc0f20890ac09e93c284f3adf33ab068d2de3fb64d82478d37014016d0df58d778945e439cb4e985591b486e47c3faeb2302579a36ecff7f38d9c89be1f3a7c903daca828edd843dd0173f272db56918c6ffcdb07ca91ed0ff9e5401402868021f036e8e9f94afba54a2d9be40df063ae2cce244f0913b8129db7481faf8989ebb1ee124863bd73717593b7543a11d58e239053896226ea0382a83c9e900000000"
}