{
  "txid": "953b9a5b1ce8907ad7497c3735052c8efca51c927cb2c72bdd8ef5c8093ad928",
  "version": 2,
  "locktime": 0,
  "vin": [
    {
      "txid": "0ba1c760510d35a11685862ba84b29c1232052f3fbe89ac7789777dc3d709fcd",
      "vout": 0,
      "prevout": {
        "scriptpubkey": "0014d3462dc85d37a618364acfdf95d84ed36007a8af",
        "scriptpubkey_asm": "OP_0 OP_PUSHBYTES_20 d3462dc85d37a618364acfdf95d84ed36007a8af",
        "scriptpubkey_type": "v0_p2wpkh",
        "scriptpubkey_address": "bc1q6drzmjzax7npsdj2el0etkzw6dsq0290le8u5j",
        "value": 593991
      },
      "scriptsig": "",
      "scriptsig_asm": "",
      "witness": [
        "3045022100a56a78830578f78a692a37053edebaa55ffc7910d5caa36260e1be77da636aa402204224d43720ba22dc64c43ee6cefae9cd2fd29d95390f7f5c558eed86dad0b16701",
        "025333e3797ca3c5aa6ca8b7dfd2ab0ba5402c53a9472077e7eea9ead2a989c5c8"
      ],
      "is_coinbase": false,
      "sequence": 4294967295
    }
  ],
  "vout": [
    {
      "scriptpubkey": "0014c34f7803faf52e5ae2cbabd70ba50a1682d9de4f",
      "scriptpubkey_asm": "OP_0 OP_PUSHBYTES_20 c34f7803faf52e5ae2cbabd70ba50a1682d9de4f",
      "scriptpubkey_type": "v0_p2wpkh",
      "scriptpubkey_address": "bc1qcd8hsql675h94ckt40tshfg2z6pdnhj09c2rzg",
      "value": 592325
    }
  ],
  "size": 192,
  "weight": 438,
  "fee": 1666,
  "status": {
    "confirmed": true,
    "block_height": 834552,
    "block_hash": "00000000000000000001dd0468a70c94f619251d286585cff57aeb4bd9ede330",
    "block_time": 1710355598
  },
  "hex": "02000000000101cd9f703ddc779778c79ae8fbf3522023c1294ba82b868516a1350d5160c7a10b0000000000ffffffff01c509090000000000160014c34f7803faf52e5ae2cbabd70ba50a1682d9de4f02483045022100a56a78830578f78a692a37053edebaa55ffc7910d5caa36260e1be77da636aa402204224d43720ba22dc64c43ee6cefae9cd2fd29d95390f7f5c558eed86dad0b1670121025333e3797ca3c5aa6ca8b7dfd2ab0ba5402c53a9472077e7eea9ead2a989c5c800000000"
}