{
  "txid": "9541e1db3fa8f9382d164db0d2a23e4b4106e32676452bf192d39c0954675a7b",
  "version": 2,
  "locktime": 0,
  "vin": [
    {
      "txid": "62c96a16d680081bc87dbc1c14e891e3698bba9abe89783affa54c69680ae91a",
      "vout": 2,
      "prevout": {
        "scriptpubkey": "00147b7d9771620085be387c104b14f3fe2e31c9115d",
        "scriptpubkey_asm": "OP_0 OP_PUSHBYTES_20 7b7d9771620085be387c104b14f3fe2e31c9115d",
        "scriptpubkey_type": "v0_p2wpkh",
        "scriptpubkey_address": "bc1q0d7ewutzqzzmuwruzp93ful79ccujy2ahynven",
        "value": 98012285
      },
      "scriptsig": "",
      "scriptsig_asm": "",
      "witness": [
        "30440220096fc80db3455b92e048a9da89f52c41643f2f6a40dd1b8a1033f5b279eb652202201f4592e606c3cf8dad9601437760dacdc4fab0e15e558667e9f8088484286eab01",
        "0306eba2900bce1faa35a9f5e457c5d56e741fd5e53eaff087526302631bdcee7e"
      ],
      "is_coinbase": false,
      "sequence": 4294967293
    }
  ],
  "vout": [
    {
      "scriptpubkey": "0014b23baa7bebe92f6c6b49973aea6418fecbf57864",
      "scriptpubkey_asm": "OP_0 OP_PUSHBYTES_20 b23baa7bebe92f6c6b49973aea6418fecbf57864",
      "scriptpubkey_type": "v0_p2wpkh",
      "scriptpubkey_address": "bc1qkga657ltayhkc66fjuaw5eqclm9l27ry6d6mu0",
      "value": 26913
    },
    {
      "scriptpubkey": "a914b3e5a8fae496a9fe41a25583942964de7bdc430187",
      "scriptpubkey_asm": "OP_HASH160 OP_PUSHBYTES_20 b3e5a8fae496a9fe41a25583942964de7bdc4301 OP_EQUAL",
      "scriptpubkey_type": "p2sh",
      "scriptpubkey_address": "3J6DzwfokV8hsKkXvnvChd7zcZJYfSru1Y",
      "value": 1301550
    },
    {
      "scriptpubkey": "001481dec07d04057bbf4a236118cea4e4d7ca1a9e61",
      "scriptpubkey_asm": "OP_0 OP_PUSHBYTES_20 81dec07d04057bbf4a236118cea4e4d7ca1a9e61",
      "scriptpubkey_type": "v0_p2wpkh",
      "scriptpubkey_address": "bc1qs80vqlgyq4am7j3rvyvvaf8y6l9p48np5ex90w",
      "value": 96678632
    }
  ],
  "size": 254,
  "weight": 689,
  "fee": 5190,
  "status": {
    "confirmed": true,
    "block_height": 834638,
    "block_hash": "000000000000000000025f742c626208ac87e0b7d15054abb4a19ca2d735a54e",
    "block_time": 1710405325
  },
  "hex": "020000000001011ae90a68694ca5ff3a7889be9aba8b69e391e8141cbc7dc81b0880d6166ac9620200000000fdffffff032169000000000000160014b23baa7bebe92f6c6b49973aea6418fecbf578642edc13000000000017a914b3e5a8fae496a9fe41a25583942964de7bdc430187e832c3050000000016001481dec07d04057bbf4a236118cea4e4d7ca1a9e61024730440220096fc80db3455b92e048a9da89f52c41643f2f6a40dd1b8a1033f5b279eb652202201f4592e606c3cf8dad9601437760dacdc4fab0e15e558667e9f8088484286eab01210306eba2900bce1faa35a9f5e457c5d56e741fd5e53eaff087526302631bdcee7e00000000"
}