{
  "txid": "9542009a58267a74683aa062884724a07c0286e0ae81bdb149904601b3b4db59",
  "version": 2,
  "locktime": 0,
  "vin": [
    {
      "txid": "1efcaba8682540eef647f7e91afe803fe0964fdb78088a6a6fe84eaf62de99f6",
      "vout": 2,
      "prevout": {
        "scriptpubkey": "512041ef26b70cf3671e43d2f100887d00eae6e7520b29703de19eb2ca79ee1a8125",
        "scriptpubkey_asm": "OP_PUSHNUM_1 OP_PUSHBYTES_32 41ef26b70cf3671e43d2f100887d00eae6e7520b29703de19eb2ca79ee1a8125",
        "scriptpubkey_type": "v1_p2tr",
        "scriptpubkey_address": "bc1pg8hjddcv7dn3us7j7yqgslgqatnww5st99crmcv7kt98nms6syjsvlhqc3",
        "value": 600
      },
      "scriptsig": "",
      "scriptsig_asm": "",
      "witness": [
        "816de5df2a7e1e0e93177c81242110bc853a9ac59170a410180b3ae117afc44c1e3bc9421d325ff7946a958aa1959bea11049f14968aecccb33741b6eeba6714"
      ],
      "is_coinbase": false,
      "sequence": 4294967295
    },
    {
      "txid": "dd39fedc50dbc54b8e212ba41ac07f6fccb73740a4043ba863f97c598be71535",
      "vout": 20,
      "prevout": {
        "scriptpubkey": "512041ef26b70cf3671e43d2f100887d00eae6e7520b29703de19eb2ca79ee1a8125",
        "scriptpubkey_asm": "OP_PUSHNUM_1 OP_PUSHBYTES_32 41ef26b70cf3671e43d2f100887d00eae6e7520b29703de19eb2ca79ee1a8125",
        "scriptpubkey_type": "v1_p2tr",
        "scriptpubkey_address": "bc1pg8hjddcv7dn3us7j7yqgslgqatnww5st99crmcv7kt98nms6syjsvlhqc3",
        "value": 600
      },
      "scriptsig": "",
      "scriptsig_asm": "",
      "witness": [
        "3101e09cbc98e955a926010f86584a679eb5a3920f864a519627b548461d6741b9e4cf096d6c4e7ed524eae1e24bb64bae3f30bb47b1f7820405ec0123eb96e0"
      ],
      "is_coinbase": false,
      "sequence": 4294967295
    },
    {
      "txid": "9ed4a931bb280aed5c9175fc4240a00e06040a3049fd790c7eb1236c37522ff4",
      "vout": 1,
      "prevout": {
        "scriptpubkey": "5120491806c7b5d7420b77cf7940a0d089de6885d1f6eae8ac71ff11f08d7834e202",
        "scriptpubkey_asm": "OP_PUSHNUM_1 OP_PUSHBYTES_32 491806c7b5d7420b77cf7940a0d089de6885d1f6eae8ac71ff11f08d7834e202",
        "scriptpubkey_type": "v1_p2tr",
        "scriptpubkey_address": "bc1pfyvqd3a46apqka7009q2p5yfme5gt50kat52cu0lz8cg67p5ugpqae2wg0",
        "value": 10000
      },
      "scriptsig": "",
      "scriptsig_asm": "",
      "witness": [
        "ab38a006c78787da6462579d59732ec2906d8f6f68f0c63e964d624f176c6bab8b166aca7411d8ead07a4265d4f21ef430a8ba596dded9af8b11f95a6be44b9383"
      ],
      "is_coinbase": false,
      "sequence": 4294967295
    },
    {
      "txid": "dd39fedc50dbc54b8e212ba41ac07f6fccb73740a4043ba863f97c598be71535",
      "vout": 27,
      "prevout": {
        "scriptpubkey": "512041ef26b70cf3671e43d2f100887d00eae6e7520b29703de19eb2ca79ee1a8125",
        "scriptpubkey_asm": "OP_PUSHNUM_1 OP_PUSHBYTES_32 41ef26b70cf3671e43d2f100887d00eae6e7520b29703de19eb2ca79ee1a8125",
        "scriptpubkey_type": "v1_p2tr",
        "scriptpubkey_address": "bc1pg8hjddcv7dn3us7j7yqgslgqatnww5st99crmcv7kt98nms6syjsvlhqc3",
        "value": 2046286
      },
      "scriptsig": "",
      "scriptsig_asm": "",
      "witness": [
        "e956da50df21a5b7a12db146fcdca8fb15f901ceec30431d7b19dadf6b021d55e559afbc1668eb07333827304cb1d9493aad43679daba8db212c7e3522fa5ede"
      ],
      "is_coinbase": false,
      "sequence": 4294967295
    }
  ],
  "vout": [
    {
      "scriptpubkey": "512041ef26b70cf3671e43d2f100887d00eae6e7520b29703de19eb2ca79ee1a8125",
      "scriptpubkey_asm": "OP_PUSHNUM_1 OP_PUSHBYTES_32 41ef26b70cf3671e43d2f100887d00eae6e7520b29703de19eb2ca79ee1a8125",
      "scriptpubkey_type": "v1_p2tr",
      "scriptpubkey_address": "bc1pg8hjddcv7dn3us7j7yqgslgqatnww5st99crmcv7kt98nms6syjsvlhqc3",
      "value": 1200
    },
    {
      "scriptpubkey": "512041ef26b70cf3671e43d2f100887d00eae6e7520b29703de19eb2ca79ee1a8125",
      "scriptpubkey_asm": "OP_PUSHNUM_1 OP_PUSHBYTES_32 41ef26b70cf3671e43d2f100887d00eae6e7520b29703de19eb2ca79ee1a8125",
      "scriptpubkey_type": "v1_p2tr",
      "scriptpubkey_address": "bc1pg8hjddcv7dn3us7j7yqgslgqatnww5st99crmcv7kt98nms6syjsvlhqc3",
      "value": 10000
    },
    {
      "scriptpubkey": "5120491806c7b5d7420b77cf7940a0d089de6885d1f6eae8ac71ff11f08d7834e202",
      "scriptpubkey_asm": "OP_PUSHNUM_1 OP_PUSHBYTES_32 491806c7b5d7420b77cf7940a0d089de6885d1f6eae8ac71ff11f08d7834e202",
      "scriptpubkey_type": "v1_p2tr",
      "scriptpubkey_address": "bc1pfyvqd3a46apqka7009q2p5yfme5gt50kat52cu0lz8cg67p5ugpqae2wg0",
      "value": 660000
    },
    {
      "scriptpubkey": "512041ef26b70cf3671e43d2f100887d00eae6e7520b29703de19eb2ca79ee1a8125",
      "scriptpubkey_asm": "OP_PUSHNUM_1 OP_PUSHBYTES_32 41ef26b70cf3671e43d2f100887d00eae6e7520b29703de19eb2ca79ee1a8125",
      "scriptpubkey_type": "v1_p2tr",
      "scriptpubkey_address": "bc1pg8hjddcv7dn3us7j7yqgslgqatnww5st99crmcv7kt98nms6syjsvlhqc3",
      "value": 600
    },
    {
      "scriptpubkey": "512041ef26b70cf3671e43d2f100887d00eae6e7520b29703de19eb2ca79ee1a8125",
      "scriptpubkey_asm": "OP_PUSHNUM_1 OP_PUSHBYTES_32 41ef26b70cf3671e43d2f100887d00eae6e7520b29703de19eb2ca79ee1a8125",
      "scriptpubkey_type": "v1_p2tr",
      "scriptpubkey_address": "bc1pg8hjddcv7dn3us7j7yqgslgqatnww5st99crmcv7kt98nms6syjsvlhqc3",
      "value": 600
    },
    {
      "scriptpubkey": "512041ef26b70cf3671e43d2f100887d00eae6e7520b29703de19eb2ca79ee1a8125",
      "scriptpubkey_asm": "OP_PUSHNUM_1 OP_PUSHBYTES_32 41ef26b70cf3671e43d2f100887d00eae6e7520b29703de19eb2ca79ee1a8125",
      "scriptpubkey_type": "v1_p2tr",
      "scriptpubkey_address": "bc1pg8hjddcv7dn3us7j7yqgslgqatnww5st99crmcv7kt98nms6syjsvlhqc3",
      "value": 1377601
    }
  ],
  "size": 699,
  "weight": 1995,
  "fee": 7485,
  "status": {
    "confirmed": true,
    "block_height": 834638,
    "block_hash": "000000000000000000025f742c626208ac87e0b7d15054abb4a19ca2d735a54e",
    "block_time": 1710405325
  },
  "hex": "02000000000104f699de62af4ee86f6a8a0878db4f96e03f80fe1ae9f747f6ee402568a8abfc1e0200000000ffffffff3515e78b597cf963a83b04a44037b7cc6f7fc01aa42b218e4bc5db50dcfe39dd1400000000fffffffff42f52376c23b17e0c79fd49300a04060ea04042fc75915ced0a28bb31a9d49e0100000000ffffffff3515e78b597cf963a83b04a44037b7cc6f7fc01aa42b218e4bc5db50dcfe39dd1b00000000ffffffff06b00400000000000022512041ef26b70cf3671e43d2f100887d00eae6e7520b29703de19eb2ca79ee1a8125102700000000000022512041ef26b70cf3671e43d2f100887d00eae6e7520b29703de19eb2ca79ee1a812520120a0000000000225120491806c7b5d7420b77cf7940a0d089de6885d1f6eae8ac71ff11f08d7834e202580200000000000022512041ef26b70cf3671e43d2f100887d00eae6e7520b29703de19eb2ca79ee1a8125580200000000000022512041ef26b70cf3671e43d2f100887d00eae6e7520b29703de19eb2ca79ee1a8125410515000000000022512041ef26b70cf3671e43d2f100887d00eae6e7520b29703de19eb2ca79ee1a81250140816de5df2a7e1e0e93177c81242110bc853a9ac59170a410180b3ae117afc44c1e3bc9421d325ff7946a958aa1959bea11049f14968aecccb33741b6eeba671401403101e09cbc98e955a926010f86584a679eb5a3920f864a519627b548461d6741b9e4cf096d6c4e7ed524eae1e24bb64bae3f30bb47b1f7820405ec0123eb96e00141ab38a006c78787da6462579d59732ec2906d8f6f68f0c63e964d624f176c6bab8b166aca7411d8ead07a4265d4f21ef430a8ba596dded9af8b11f95a6be44b93830140e956da50df21a5b7a12db146fcdca8fb15f901ceec30431d7b19dadf6b021d55e559afbc1668eb07333827304cb1d9493aad43679daba8db212c7e3522fa5ede00000000"
}