{
  "txid": "954fc6d2f8581e4af6d1ac4935b84696b977349404cc339611324fd76c737c25",
  "version": 2,
  "locktime": 0,
  "vin": [
    {
      "txid": "109400248424d7bd4e04c5693bbd90d106627b613b99ac3fb75662d6d60ff867",
      "vout": 2,
      "prevout": {
        "scriptpubkey": "5120d5726fe1f52c1f58299616011946af48f93405e9466758b74c110c8759c07d3a",
        "scriptpubkey_asm": "OP_PUSHNUM_1 OP_PUSHBYTES_32 d5726fe1f52c1f58299616011946af48f93405e9466758b74c110c8759c07d3a",
        "scriptpubkey_type": "v1_p2tr",
        "scriptpubkey_address": "bc1p64exlc049s04s2vkzcq3j340frungp0fgen43d6vzyxgwkwq05aqsj353c",
        "value": 25931
      },
      "scriptsig": "",
      "scriptsig_asm": "",
      "witness": [
        "509a50f63e34616650e75b197a6e2eed4a80eca6aae4289a7ec0f863a06dbe5232bc6074e05fc0f20913a7d6a90063ef41ade0b8ef5ea627c0350e104c97cf82"
      ],
      "is_coinbase": false,
      "sequence": 4294967295
    }
  ],
  "vout": [
    {
      "scriptpubkey": "a9143bf9a698e8766ea7d92c363770a8b9f1ee64fb6287",
      "scriptpubkey_asm": "OP_HASH160 OP_PUSHBYTES_20 3bf9a698e8766ea7d92c363770a8b9f1ee64fb62 OP_EQUAL",
      "scriptpubkey_type": "p2sh",
      "scriptpubkey_address": "37A8ruEYCP8UABQT46oZvGHYGKvC3YvzQh",
      "value": 23500
    }
  ],
  "size": 151,
  "weight": 400,
  "fee": 2431,
  "status": {
    "confirmed": true,
    "block_height": 834638,
    "block_hash": "000000000000000000025f742c626208ac87e0b7d15054abb4a19ca2d735a54e",
    "block_time": 1710405325
  },
  "hex": "0200000000010167f80fd6d66256b73fac993b617b6206d190bd3b69c5044ebdd72484240094100200000000ffffffff01cc5b00000000000017a9143bf9a698e8766ea7d92c363770a8b9f1ee64fb62870140509a50f63e34616650e75b197a6e2eed4a80eca6aae4289a7ec0f863a06dbe5232bc6074e05fc0f20913a7d6a90063ef41ade0b8ef5ea627c0350e104c97cf8200000000"
}