{
  "txid": "955fb2eaaf3a88c88e260c4d1bc71967f62ff3080f5b338f6d87860878462b66",
  "version": 2,
  "locktime": 0,
  "vin": [
    {
      "txid": "8807fd4da2ec762843df24c352d4917a399020c17ce476859afcbae590d0aaea",
      "vout": 0,
      "prevout": {
        "scriptpubkey": "5120c1578a7278ddf029ba45c0b8bd696970966c743000c1a8bd63b85e5f783bc3a2",
        "scriptpubkey_asm": "OP_PUSHNUM_1 OP_PUSHBYTES_32 c1578a7278ddf029ba45c0b8bd696970966c743000c1a8bd63b85e5f783bc3a2",
        "scriptpubkey_type": "v1_p2tr",
        "scriptpubkey_address": "bc1pc9tc5uncmhcznwj9czut66tfwztxcapsqrq630trhp0977pmcw3qz0aqt8",
        "value": 29557
      },
      "scriptsig": "",
      "scriptsig_asm": "",
      "witness": [
        "1b17d5a21b654c68e8a9d792d796de8a7a4ff090451e44a7f2bff7ff4d1d1723cabd61488cc4af376e567f3ce96b4ff8bf648081bab91cacb505030098317e15",
        "2074c9aad624feedb723bd70fc697ae30c1935c547d9b21f66ff95e51c9a2a6772ac0063036f726401010a746578742f706c61696e004c8f7b2270223a2022746170222c20226f70223a2022646d742d6d696e74222c2022646570223a2022333962373532343338626533613435326464623731376230613635346233313662316164343661383139656234343831383933626337313331663738396539616930222c20227469636b223a20226e61746f776c73222c2022626c6b223a2022373035373632227d68",
        "c174c9aad624feedb723bd70fc697ae30c1935c547d9b21f66ff95e51c9a2a6772"
      ],
      "is_coinbase": false,
      "sequence": 4294967293
    }
  ],
  "vout": [
    {
      "scriptpubkey": "5120875b27e2ebaa1189ad1777eb124b8f0cd3dfe933d9a47622ffca147caaca54b5",
      "scriptpubkey_asm": "OP_PUSHNUM_1 OP_PUSHBYTES_32 875b27e2ebaa1189ad1777eb124b8f0cd3dfe933d9a47622ffca147caaca54b5",
      "scriptpubkey_type": "v1_p2tr",
      "scriptpubkey_address": "bc1psadj0cht4ggcntghwl43yju0pnfal6fnmxj8vghleg28e2k22j6s05x69l",
      "value": 546
    },
    {
      "scriptpubkey": "51201cf5ee87ba6a320056ce7811b572e31191dd5d3196cb034363ae5861da6c6bc9",
      "scriptpubkey_asm": "OP_PUSHNUM_1 OP_PUSHBYTES_32 1cf5ee87ba6a320056ce7811b572e31191dd5d3196cb034363ae5861da6c6bc9",
      "scriptpubkey_type": "v1_p2tr",
      "scriptpubkey_address": "bc1prn67apa6dgeqq4kw0qgm2uhrzxga6hf3jm9sxsmr4evxrknvd0ysw52eum",
      "value": 2753
    },
    {
      "scriptpubkey": "51209abffbc9f12cedba1d46caf308806f3f5099029f780a59bc7546f2609b652715",
      "scriptpubkey_asm": "OP_PUSHNUM_1 OP_PUSHBYTES_32 9abffbc9f12cedba1d46caf308806f3f5099029f780a59bc7546f2609b652715",
      "scriptpubkey_type": "v1_p2tr",
      "scriptpubkey_address": "bc1pn2llhj039nkm582xetes3qr08agfjq5l0q99n0r4gmexpxm9yu2s6ye5fe",
      "value": 2753
    },
    {
      "scriptpubkey": "5120877aeefcd1398dadcb855ab1ddec53ab77b764c1632f400aa2b64284a5248880",
      "scriptpubkey_asm": "OP_PUSHNUM_1 OP_PUSHBYTES_32 877aeefcd1398dadcb855ab1ddec53ab77b764c1632f400aa2b64284a5248880",
      "scriptpubkey_type": "v1_p2tr",
      "scriptpubkey_address": "bc1psaawalx38xx6mju9t2cammzn4dmmwexpvvh5qz4zkepgfffy3zqqh4sp9s",
      "value": 2753
    },
    {
      "scriptpubkey": "512080b218388c9d8871cee9da389070eb133770077d556c96bec15204a9c1935853",
      "scriptpubkey_asm": "OP_PUSHNUM_1 OP_PUSHBYTES_32 80b218388c9d8871cee9da389070eb133770077d556c96bec15204a9c1935853",
      "scriptpubkey_type": "v1_p2tr",
      "scriptpubkey_address": "bc1pszepswyvnky8rnhfmgufqu8tzvmhqpma24kfd0kp2gz2nsvntpfsy2wzsh",
      "value": 2753
    },
    {
      "scriptpubkey": "512056a5fabcfe59fd15154e6c42c1dc04f3e908418ebc80ffdbc87beaa2d2631b77",
      "scriptpubkey_asm": "OP_PUSHNUM_1 OP_PUSHBYTES_32 56a5fabcfe59fd15154e6c42c1dc04f3e908418ebc80ffdbc87beaa2d2631b77",
      "scriptpubkey_type": "v1_p2tr",
      "scriptpubkey_address": "bc1p26jl4087t873292wd3pvrhqy705sssvwhjq0lk7g004295nrrdms5ytcut",
      "value": 2753
    },
    {
      "scriptpubkey": "512055294fcfdfb343bee7d84cf4531c3485a66fd3e073597dc77618281106b2b03b",
      "scriptpubkey_asm": "OP_PUSHNUM_1 OP_PUSHBYTES_32 55294fcfdfb343bee7d84cf4531c3485a66fd3e073597dc77618281106b2b03b",
      "scriptpubkey_type": "v1_p2tr",
      "scriptpubkey_address": "bc1p2555ln7lkdpmae7cfn69x8p5sknxl5lqwdvhm3mkrq5pzp4jkqasjyfxjr",
      "value": 2753
    },
    {
      "scriptpubkey": "51201bbfede4c86285d4a535b9dc6256b5bc97026284b3348069b65d28ed626db5fa",
      "scriptpubkey_asm": "OP_PUSHNUM_1 OP_PUSHBYTES_32 1bbfede4c86285d4a535b9dc6256b5bc97026284b3348069b65d28ed626db5fa",
      "scriptpubkey_type": "v1_p2tr",
      "scriptpubkey_address": "bc1prwl7mexgv2zafff4h8wxy444hjtsyc5ykv6gq6dkt55w6cndkhaqle9jc6",
      "value": 2753
    },
    {
      "scriptpubkey": "001484306f02e84950eb425978beb4106e8896c4fca6",
      "scriptpubkey_asm": "OP_0 OP_PUSHBYTES_20 84306f02e84950eb425978beb4106e8896c4fca6",
      "scriptpubkey_type": "v0_p2wpkh",
      "scriptpubkey_address": "bc1qsscx7qhgf9gwksje0zltgyrw3ztvfl9x6zj6m2",
      "value": 3214
    }
  ],
  "size": 729,
  "weight": 2007,
  "fee": 6526,
  "status": {
    "confirmed": true,
    "block_height": 834460,
    "block_hash": "00000000000000000000484a79b643b2524bbce82e5d8a442013fa5b8905ed98",
    "block_time": 1710307468
  },
  "hex": "02000000000101eaaad090e5bafc9a8576e47cc12090397a91d452c324df432876eca24dfd07880000000000fdffffff092202000000000000225120875b27e2ebaa1189ad1777eb124b8f0cd3dfe933d9a47622ffca147caaca54b5c10a0000000000002251201cf5ee87ba6a320056ce7811b572e31191dd5d3196cb034363ae5861da6c6bc9c10a0000000000002251209abffbc9f12cedba1d46caf308806f3f5099029f780a59bc7546f2609b652715c10a000000000000225120877aeefcd1398dadcb855ab1ddec53ab77b764c1632f400aa2b64284a5248880c10a00000000000022512080b218388c9d8871cee9da389070eb133770077d556c96bec15204a9c1935853c10a00000000000022512056a5fabcfe59fd15154e6c42c1dc04f3e908418ebc80ffdbc87beaa2d2631b77c10a00000000000022512055294fcfdfb343bee7d84cf4531c3485a66fd3e073597dc77618281106b2b03bc10a0000000000002251201bbfede4c86285d4a535b9dc6256b5bc97026284b3348069b65d28ed626db5fa8e0c00000000000016001484306f02e84950eb425978beb4106e8896c4fca603401b17d5a21b654c68e8a9d792d796de8a7a4ff090451e44a7f2bff7ff4d1d1723cabd61488cc4af376e567f3ce96b4ff8bf648081bab91cacb505030098317e15c82074c9aad624feedb723bd70fc697ae30c1935c547d9b21f66ff95e51c9a2a6772ac0063036f726401010a746578742f706c61696e004c8f7b2270223a2022746170222c20226f70223a2022646d742d6d696e74222c2022646570223a2022333962373532343338626533613435326464623731376230613635346233313662316164343661383139656234343831383933626337313331663738396539616930222c20227469636b223a20226e61746f776c73222c2022626c6b223a2022373035373632227d6821c174c9aad624feedb723bd70fc697ae30c1935c547d9b21f66ff95e51c9a2a677200000000"
}