{
  "txid": "955f8f4c2917f58ff30ea7c8a5a0a07915865174d761aeacb5bd38e5dff4b2bd",
  "version": 2,
  "locktime": 0,
  "vin": [
    {
      "txid": "2e746db3267f20632ebe6892c6950d331adc3a41ae2baff4fce31c4b749f51c5",
      "vout": 38,
      "prevout": {
        "scriptpubkey": "0014e7d0ecc4ca008d37db31a2128fa6f2ade0312ded",
        "scriptpubkey_asm": "OP_0 OP_PUSHBYTES_20 e7d0ecc4ca008d37db31a2128fa6f2ade0312ded",
        "scriptpubkey_type": "v0_p2wpkh",
        "scriptpubkey_address": "bc1qulgwe3x2qzxn0ke35gfglfhj4hsrzt0dw46mh8",
        "value": 3995000
      },
      "scriptsig": "",
      "scriptsig_asm": "",
      "witness": [
        "304402200851a874f3d2f7b97f6862eb670315d8cc538ed3aa630bdbdbf83d49f6259e1f022045186899a3d332346d11528805755c081ac5a73cc0b656a8acc868c747dc7bc101",
        "0231fcb6f0d6b60d4a74d4c47bf747ad05642f694beb718d2b491b4aa7858240f0"
      ],
      "is_coinbase": false,
      "sequence": 4294967295
    }
  ],
  "vout": [
    {
      "scriptpubkey": "a9141e40511e57ada2b74d989abbabfc936de19917a587",
      "scriptpubkey_asm": "OP_HASH160 OP_PUSHBYTES_20 1e40511e57ada2b74d989abbabfc936de19917a5 OP_EQUAL",
      "scriptpubkey_type": "p2sh",
      "scriptpubkey_address": "34SyF7WfrF36fYN7KhYuZ3vm3fgm1Hg65o",
      "value": 2760000
    },
    {
      "scriptpubkey": "0014fea476dbdfaef7887f1a176460fea7c371f3678c",
      "scriptpubkey_asm": "OP_0 OP_PUSHBYTES_20 fea476dbdfaef7887f1a176460fea7c371f3678c",
      "scriptpubkey_type": "v0_p2wpkh",
      "scriptpubkey_address": "bc1ql6j8dk7l4mmcslc6zajxpl48cdclxeuv7l5axj",
      "value": 1232453
    }
  ],
  "size": 223,
  "weight": 565,
  "fee": 2547,
  "status": {
    "confirmed": true,
    "block_height": 834638,
    "block_hash": "000000000000000000025f742c626208ac87e0b7d15054abb4a19ca2d735a54e",
    "block_time": 1710405325
  },
  "hex": "02000000000101c5519f744b1ce3fcf4af2bae413adc1a330d95c69268be2e63207f26b36d742e2600000000ffffffff02401d2a000000000017a9141e40511e57ada2b74d989abbabfc936de19917a58745ce120000000000160014fea476dbdfaef7887f1a176460fea7c371f3678c0247304402200851a874f3d2f7b97f6862eb670315d8cc538ed3aa630bdbdbf83d49f6259e1f022045186899a3d332346d11528805755c081ac5a73cc0b656a8acc868c747dc7bc101210231fcb6f0d6b60d4a74d4c47bf747ad05642f694beb718d2b491b4aa7858240f000000000"
}