{
  "txid": "9576654613bf8c0e1edef4bf3d075f9a353062c8701c490f1dd797e8eed7af6f",
  "version": 1,
  "locktime": 0,
  "vin": [
    {
      "txid": "182cb5c6e99decc853eb3c5608a783a08230e63c7fb6cd4d2cf6233f1cca684f",
      "vout": 5,
      "prevout": {
        "scriptpubkey": "a91440a97d4cf541846c3f8aac5d609c83aba9dcc90487",
        "scriptpubkey_asm": "OP_HASH160 OP_PUSHBYTES_20 40a97d4cf541846c3f8aac5d609c83aba9dcc904 OP_EQUAL",
        "scriptpubkey_type": "p2sh",
        "scriptpubkey_address": "37avD9vkEPHf2f9rXufvnJXkGvEyjj5Baw",
        "value": 519747
      },
      "scriptsig": "220020addb77d8201638d1911127e4222df9b2a3c949976b0a2854c6124f882d7c2446",
      "scriptsig_asm": "OP_PUSHBYTES_34 0020addb77d8201638d1911127e4222df9b2a3c949976b0a2854c6124f882d7c2446",
      "witness": [
        "",
        "30440220587352dadbd007d16a14c82241ed31e86a4590b01b2158cd9ec867fd74e98cf702204436ed78ab16df1d1262412bc4f0bf5d370111e9b460c502349aceffdb70f1b201",
        "30450221009e7d89c4ec43552a71458c3392bb5059c70dd39446c47efe52a609db86cd28b6022035524207a39cfcebf17cc353c3ec3f452e2ab5165c1d3bc0d345b02ff0bff45801",
        "52210228263071fd4f321adbb3ff2746492f93c442d1d42f5e2a2f2f87c5c680cd3b4e2103bc8b32f937b621da74624ebb67019c7ddbfb1f2570c90e2a9dfbf2b23434c60c52ae"
      ],
      "is_coinbase": false,
      "sequence": 4294967295,
      "inner_redeemscript_asm": "OP_0 OP_PUSHBYTES_32 addb77d8201638d1911127e4222df9b2a3c949976b0a2854c6124f882d7c2446",
      "inner_witnessscript_asm": "OP_PUSHNUM_2 OP_PUSHBYTES_33 0228263071fd4f321adbb3ff2746492f93c442d1d42f5e2a2f2f87c5c680cd3b4e OP_PUSHBYTES_33 03bc8b32f937b621da74624ebb67019c7ddbfb1f2570c90e2a9dfbf2b23434c60c OP_PUSHNUM_2 OP_CHECKMULTISIG"
    },
    {
      "txid": "bbaeeb981c2fcc1f93dfa9eed4202ae5b3251f62adf8cae8ce875aae4589c330",
      "vout": 1,
      "prevout": {
        "scriptpubkey": "a91440a97d4cf541846c3f8aac5d609c83aba9dcc90487",
        "scriptpubkey_asm": "OP_HASH160 OP_PUSHBYTES_20 40a97d4cf541846c3f8aac5d609c83aba9dcc904 OP_EQUAL",
        "scriptpubkey_type": "p2sh",
        "scriptpubkey_address": "37avD9vkEPHf2f9rXufvnJXkGvEyjj5Baw",
        "value": 167239
      },
      "scriptsig": "220020addb77d8201638d1911127e4222df9b2a3c949976b0a2854c6124f882d7c2446",
      "scriptsig_asm": "OP_PUSHBYTES_34 0020addb77d8201638d1911127e4222df9b2a3c949976b0a2854c6124f882d7c2446",
      "witness": [
        "",
        "30440220193d53164a58dcdcd24c060db0ffb1124fd075375c040202d071064cc786e6ac0220285babfbbda9298181fddf30c8c12bcaa1757fe52eb38b5bdbed41205ff1f3e801",
        "3045022100b661fc0bd29684118ae24a3f69ba8bf31a39d1a06a5016a9157b9fb256e642fa022000e3c5c1406b7d0fcac8b091993aee9bca7cdbcbb79916ad9d7fbf6f96b311c001",
        "52210228263071fd4f321adbb3ff2746492f93c442d1d42f5e2a2f2f87c5c680cd3b4e2103bc8b32f937b621da74624ebb67019c7ddbfb1f2570c90e2a9dfbf2b23434c60c52ae"
      ],
      "is_coinbase": false,
      "sequence": 4294967295,
      "inner_redeemscript_asm": "OP_0 OP_PUSHBYTES_32 addb77d8201638d1911127e4222df9b2a3c949976b0a2854c6124f882d7c2446",
      "inner_witnessscript_asm": "OP_PUSHNUM_2 OP_PUSHBYTES_33 0228263071fd4f321adbb3ff2746492f93c442d1d42f5e2a2f2f87c5c680cd3b4e OP_PUSHBYTES_33 03bc8b32f937b621da74624ebb67019c7ddbfb1f2570c90e2a9dfbf2b23434c60c OP_PUSHNUM_2 OP_CHECKMULTISIG"
    },
    {
      "txid": "9fc294a338f23447177c81656a3ca7ee85e556a322d0606dc6eb9384e38351a5",
      "vout": 8,
      "prevout": {
        "scriptpubkey": "a91440a97d4cf541846c3f8aac5d609c83aba9dcc90487",
        "scriptpubkey_asm": "OP_HASH160 OP_PUSHBYTES_20 40a97d4cf541846c3f8aac5d609c83aba9dcc904 OP_EQUAL",
        "scriptpubkey_type": "p2sh",
        "scriptpubkey_address": "37avD9vkEPHf2f9rXufvnJXkGvEyjj5Baw",
        "value": 53983
      },
      "scriptsig": "220020addb77d8201638d1911127e4222df9b2a3c949976b0a2854c6124f882d7c2446",
      "scriptsig_asm": "OP_PUSHBYTES_34 0020addb77d8201638d1911127e4222df9b2a3c949976b0a2854c6124f882d7c2446",
      "witness": [
        "",
        "3044022078e96a69392aff7c8f57399514ff0ea289e1c7bf42ddf18ec1f041b69f060a0e022051b4b0ee5f4b96473fd7a82fe4278207603bccfcaea3e3c20b45611da4fdd0a101",
        "3044022024b4081ae3d86c2e89a046075a177ddf031292f6733d9747f569ee605004600102206a2a117f9cd98530fa961368a13b087eb92e689bcdbd32da5b3800cd2066cae101",
        "52210228263071fd4f321adbb3ff2746492f93c442d1d42f5e2a2f2f87c5c680cd3b4e2103bc8b32f937b621da74624ebb67019c7ddbfb1f2570c90e2a9dfbf2b23434c60c52ae"
      ],
      "is_coinbase": false,
      "sequence": 4294967295,
      "inner_redeemscript_asm": "OP_0 OP_PUSHBYTES_32 addb77d8201638d1911127e4222df9b2a3c949976b0a2854c6124f882d7c2446",
      "inner_witnessscript_asm": "OP_PUSHNUM_2 OP_PUSHBYTES_33 0228263071fd4f321adbb3ff2746492f93c442d1d42f5e2a2f2f87c5c680cd3b4e OP_PUSHBYTES_33 03bc8b32f937b621da74624ebb67019c7ddbfb1f2570c90e2a9dfbf2b23434c60c OP_PUSHNUM_2 OP_CHECKMULTISIG"
    },
    {
      "txid": "e2b11ea8ba60b2761c7a353ea3b7172aed52886cffd5444ac01d263c6d4aea44",
      "vout": 1,
      "prevout": {
        "scriptpubkey": "a91440a97d4cf541846c3f8aac5d609c83aba9dcc90487",
        "scriptpubkey_asm": "OP_HASH160 OP_PUSHBYTES_20 40a97d4cf541846c3f8aac5d609c83aba9dcc904 OP_EQUAL",
        "scriptpubkey_type": "p2sh",
        "scriptpubkey_address": "37avD9vkEPHf2f9rXufvnJXkGvEyjj5Baw",
        "value": 3955258
      },
      "scriptsig": "220020addb77d8201638d1911127e4222df9b2a3c949976b0a2854c6124f882d7c2446",
      "scriptsig_asm": "OP_PUSHBYTES_34 0020addb77d8201638d1911127e4222df9b2a3c949976b0a2854c6124f882d7c2446",
      "witness": [
        "",
        "304402205fdb1313a6bf1c1efbd91d640921ba29bb4a716c4ea194ae5788d5eb16f9cbc502203030542a14b037f52434700c1b283c08b728106e089ba9db06db3197719557d801",
        "3045022100d68d62afe72d4b8101b0f7459e226bf445b6b71a2dc769e39e8ef35f03974f6e022007b033eb25019d4bc3d3c24d3d01f80ce17a4085ad119475f4aba43bcbe5e1d601",
        "52210228263071fd4f321adbb3ff2746492f93c442d1d42f5e2a2f2f87c5c680cd3b4e2103bc8b32f937b621da74624ebb67019c7ddbfb1f2570c90e2a9dfbf2b23434c60c52ae"
      ],
      "is_coinbase": false,
      "sequence": 4294967295,
      "inner_redeemscript_asm": "OP_0 OP_PUSHBYTES_32 addb77d8201638d1911127e4222df9b2a3c949976b0a2854c6124f882d7c2446",
      "inner_witnessscript_asm": "OP_PUSHNUM_2 OP_PUSHBYTES_33 0228263071fd4f321adbb3ff2746492f93c442d1d42f5e2a2f2f87c5c680cd3b4e OP_PUSHBYTES_33 03bc8b32f937b621da74624ebb67019c7ddbfb1f2570c90e2a9dfbf2b23434c60c OP_PUSHNUM_2 OP_CHECKMULTISIG"
    }
  ],
  "vout": [
    {
      "scriptpubkey": "76a9146185f72ddf3f3eaf46ad0c72d81b687adefcda8688ac",
      "scriptpubkey_asm": "OP_DUP OP_HASH160 OP_PUSHBYTES_20 6185f72ddf3f3eaf46ad0c72d81b687adefcda86 OP_EQUALVERIFY OP_CHECKSIG",
      "scriptpubkey_type": "p2pkh",
      "scriptpubkey_address": "19tf2hQjGMZNeX35aExSATDQqnUwZNnxMT",
      "value": 1190568
    },
    {
      "scriptpubkey": "a91440a97d4cf541846c3f8aac5d609c83aba9dcc90487",
      "scriptpubkey_asm": "OP_HASH160 OP_PUSHBYTES_20 40a97d4cf541846c3f8aac5d609c83aba9dcc904 OP_EQUAL",
      "scriptpubkey_type": "p2sh",
      "scriptpubkey_address": "37avD9vkEPHf2f9rXufvnJXkGvEyjj5Baw",
      "value": 3494841
    }
  ],
  "size": 1257,
  "weight": 2397,
  "fee": 10818,
  "status": {
    "confirmed": true,
    "block_height": 834638,
    "block_hash": "000000000000000000025f742c626208ac87e0b7d15054abb4a19ca2d735a54e",
    "block_time": 1710405325
  },
  "hex": "010000000001044f68ca1c3f23f62c4dcdb67f3ce63082a083a708563ceb53c8ec9de9c6b52c180500000023220020addb77d8201638d1911127e4222df9b2a3c949976b0a2854c6124f882d7c2446ffffffff30c38945ae5a87cee8caf8ad621f25b3e52a20d4eea9df931fcc2f1c98ebaebb0100000023220020addb77d8201638d1911127e4222df9b2a3c949976b0a2854c6124f882d7c2446ffffffffa55183e38493ebc66d60d022a356e585eea73c6a65817c174734f238a394c29f0800000023220020addb77d8201638d1911127e4222df9b2a3c949976b0a2854c6124f882d7c2446ffffffff44ea4a6d3c261dc04a44d5ff6c8852ed2a17b7a33e357a1c76b260baa81eb1e20100000023220020addb77d8201638d1911127e4222df9b2a3c949976b0a2854c6124f882d7c2446ffffffff02a82a1200000000001976a9146185f72ddf3f3eaf46ad0c72d81b687adefcda8688acb95335000000000017a91440a97d4cf541846c3f8aac5d609c83aba9dcc9048704004730440220587352dadbd007d16a14c82241ed31e86a4590b01b2158cd9ec867fd74e98cf702204436ed78ab16df1d1262412bc4f0bf5d370111e9b460c502349aceffdb70f1b2014830450221009e7d89c4ec43552a71458c3392bb5059c70dd39446c47efe52a609db86cd28b6022035524207a39cfcebf17cc353c3ec3f452e2ab5165c1d3bc0d345b02ff0bff458014752210228263071fd4f321adbb3ff2746492f93c442d1d42f5e2a2f2f87c5c680cd3b4e2103bc8b32f937b621da74624ebb67019c7ddbfb1f2570c90e2a9dfbf2b23434c60c52ae04004730440220193d53164a58dcdcd24c060db0ffb1124fd075375c040202d071064cc786e6ac0220285babfbbda9298181fddf30c8c12bcaa1757fe52eb38b5bdbed41205ff1f3e801483045022100b661fc0bd29684118ae24a3f69ba8bf31a39d1a06a5016a9157b9fb256e642fa022000e3c5c1406b7d0fcac8b091993aee9bca7cdbcbb79916ad9d7fbf6f96b311c0014752210228263071fd4f321adbb3ff2746492f93c442d1d42f5e2a2f2f87c5c680cd3b4e2103bc8b32f937b621da74624ebb67019c7ddbfb1f2570c90e2a9dfbf2b23434c60c52ae0400473044022078e96a69392aff7c8f57399514ff0ea289e1c7bf42ddf18ec1f041b69f060a0e022051b4b0ee5f4b96473fd7a82fe4278207603bccfcaea3e3c20b45611da4fdd0a101473044022024b4081ae3d86c2e89a046075a177ddf031292f6733d9747f569ee605004600102206a2a117f9cd98530fa961368a13b087eb92e689bcdbd32da5b3800cd2066cae1014752210228263071fd4f321adbb3ff2746492f93c442d1d42f5e2a2f2f87c5c680cd3b4e2103bc8b32f937b621da74624ebb67019c7ddbfb1f2570c90e2a9dfbf2b23434c60c52ae040047304402205fdb1313a6bf1c1efbd91d640921ba29bb4a716c4ea194ae5788d5eb16f9cbc502203030542a14b037f52434700c1b283c08b728106e089ba9db06db3197719557d801483045022100d68d62afe72d4b8101b0f7459e226bf445b6b71a2dc769e39e8ef35f03974f6e022007b033eb25019d4bc3d3c24d3d01f80ce17a4085ad119475f4aba43bcbe5e1d6014752210228263071fd4f321adbb3ff2746492f93c442d1d42f5e2a2f2f87c5c680cd3b4e2103bc8b32f937b621da74624ebb67019c7ddbfb1f2570c90e2a9dfbf2b23434c60c52ae00000000"
}