{
  "txid": "957e3dd7be77c9679a5508cff9efbd4034aa1a6d39d1ed5564e3138bae30bd90",
  "version": 1,
  "locktime": 0,
  "vin": [
    {
      "txid": "6fd1de382d7f9722c67fcc6721ff19217d2184d02f068227520839d8d20ad0a8",
      "vout": 0,
      "prevout": {
        "scriptpubkey": "0014cb4997ebaa7ad45ed386009e4d207270c21a1723",
        "scriptpubkey_asm": "OP_0 OP_PUSHBYTES_20 cb4997ebaa7ad45ed386009e4d207270c21a1723",
        "scriptpubkey_type": "v0_p2wpkh",
        "scriptpubkey_address": "bc1qedye06a20t29a5uxqz0y6grjwrpp59erpsk9eg",
        "value": 373594
      },
      "scriptsig": "",
      "scriptsig_asm": "",
      "witness": [
        "3044022000907f7041174a62f912240da2c67876d70594247e2f0bf8308a6df67bf4b78402207ba8763164746686da6140688ca3550db09988ea30cb6aa479bba1419e80b51401",
        "02f4824f1a762da1a0086ca192230cd45a257e9be1aa2aaa331d3133a4bca1db06"
      ],
      "is_coinbase": false,
      "sequence": 4294967295
    }
  ],
  "vout": [
    {
      "scriptpubkey": "a9146e98f7d9029143673d4be0b317b85272b21c649287",
      "scriptpubkey_asm": "OP_HASH160 OP_PUSHBYTES_20 6e98f7d9029143673d4be0b317b85272b21c6492 OP_EQUAL",
      "scriptpubkey_type": "p2sh",
      "scriptpubkey_address": "3BmoW4NCUDrYa58MAfQhrxgjBWfeAVwrjP",
      "value": 370597
    }
  ],
  "size": 192,
  "weight": 441,
  "fee": 2997,
  "status": {
    "confirmed": true,
    "block_height": 834464,
    "block_hash": "0000000000000000000177a0869a911a2b65c9bdcd5a8bcb02b68f305bee848e",
    "block_time": 1710308296
  },
  "hex": "01000000000101a8d00ad2d83908522782062fd084217d2119ff2167cc7fc622977f2d38ded16f0000000000ffffffff01a5a705000000000017a9146e98f7d9029143673d4be0b317b85272b21c64928702473044022000907f7041174a62f912240da2c67876d70594247e2f0bf8308a6df67bf4b78402207ba8763164746686da6140688ca3550db09988ea30cb6aa479bba1419e80b514012102f4824f1a762da1a0086ca192230cd45a257e9be1aa2aaa331d3133a4bca1db0600000000"
}