{
  "txid": "9582540c38fce4b277c47ce50be1cc3b53640c25ea14355033643f3766d60c66",
  "version": 2,
  "locktime": 0,
  "vin": [
    {
      "txid": "3f92131d50136e663ec12d527a9bcb9e050219d773d4a2229ed4a931d590da95",
      "vout": 1,
      "prevout": {
        "scriptpubkey": "51203f14c9c89a650d2f93b4c8b753ed099a1199dee666ce8b1d9a378b7bc8c7e936",
        "scriptpubkey_asm": "OP_PUSHNUM_1 OP_PUSHBYTES_32 3f14c9c89a650d2f93b4c8b753ed099a1199dee666ce8b1d9a378b7bc8c7e936",
        "scriptpubkey_type": "v1_p2tr",
        "scriptpubkey_address": "bc1p8u2vnjy6v5xjlya5ezm48mgfnggenhhxvm8gk8v6x79hhjx8aymquxgh2q",
        "value": 225018
      },
      "scriptsig": "",
      "scriptsig_asm": "",
      "witness": [
        "034b229f5f53404cb1603403f8be20c38725c07892ba33027022080d0f14cc74c5a08645cc98f76d1c7c81e3fbd99840a962cb98244f0972bff34e1b96f81627",
        "0063036f7264510a746578742f706c61696e000d3833343633382e6269746d617068",
        "c09ed19b6c204ee43619e43b11a3a30f698ee87a9d75f0d2142efd69ee47fd911e"
      ],
      "is_coinbase": false,
      "sequence": 4294967293
    }
  ],
  "vout": [
    {
      "scriptpubkey": "0014b4e2d54269fdfe704ea43a9cf1a9778d0aef4a85",
      "scriptpubkey_asm": "OP_0 OP_PUSHBYTES_20 b4e2d54269fdfe704ea43a9cf1a9778d0aef4a85",
      "scriptpubkey_type": "v0_p2wpkh",
      "scriptpubkey_address": "bc1qkn3d2snflhl8qn4y82w0r2th359w7j59fzjwz2",
      "value": 294
    },
    {
      "scriptpubkey": "51208fd1d34dd15e5093b9870b13912673061f620880bd824f2a02a8b046ee8be03e",
      "scriptpubkey_asm": "OP_PUSHNUM_1 OP_PUSHBYTES_32 8fd1d34dd15e5093b9870b13912673061f620880bd824f2a02a8b046ee8be03e",
      "scriptpubkey_type": "v1_p2tr",
      "scriptpubkey_address": "bc1p3lgaxnw3tegf8wv8pvfezfnnqc0kyzyqhkpy72sz4zcydm5tuqlq35jhl4",
      "value": 222084
    }
  ],
  "size": 262,
  "weight": 637,
  "fee": 2640,
  "status": {
    "confirmed": true,
    "block_height": 834638,
    "block_hash": "000000000000000000025f742c626208ac87e0b7d15054abb4a19ca2d735a54e",
    "block_time": 1710405325
  },
  "hex": "0200000000010195da90d531a9d49e22a2d473d71902059ecb9b7a522dc13e666e13501d13923f0100000000fdffffff022601000000000000160014b4e2d54269fdfe704ea43a9cf1a9778d0aef4a8584630300000000002251208fd1d34dd15e5093b9870b13912673061f620880bd824f2a02a8b046ee8be03e0340034b229f5f53404cb1603403f8be20c38725c07892ba33027022080d0f14cc74c5a08645cc98f76d1c7c81e3fbd99840a962cb98244f0972bff34e1b96f81627220063036f7264510a746578742f706c61696e000d3833343633382e6269746d61706821c09ed19b6c204ee43619e43b11a3a30f698ee87a9d75f0d2142efd69ee47fd911e00000000"
}