{
  "txid": "958813406364057b4615566f1ed758a99a21e58d38e97331b680c06c209ee694",
  "version": 2,
  "locktime": 0,
  "vin": [
    {
      "txid": "304685258605cd9da92209731642c74b7830895aa5a5e949680b55cdef503c18",
      "vout": 0,
      "prevout": {
        "scriptpubkey": "5120c4a3f5efb1bf4d61b4bc8fdd72f78824a87aa6ba5ca7391b3d72f690617005b4",
        "scriptpubkey_asm": "OP_PUSHNUM_1 OP_PUSHBYTES_32 c4a3f5efb1bf4d61b4bc8fdd72f78824a87aa6ba5ca7391b3d72f690617005b4",
        "scriptpubkey_type": "v1_p2tr",
        "scriptpubkey_address": "bc1pcj3ltma3haxkrd9u3lwh9augyj584f46tjnnjxeawtmfqctsqk6qdglswt",
        "value": 3312
      },
      "scriptsig": "",
      "scriptsig_asm": "",
      "witness": [
        "5e4f7156033563ac8db0e74c827ad9a0b0296f8721b272b1d6caa01dfc92043e1683f1f577d778d93bfd4361cae87abd6c9a6467e890639b709a5c812aa40af4",
        "20c0918ac338897c6f8f3b723c05c629dff665a1d75a51da24bb79ea0f4bf597e5ac0063036f7264510a746578742f706c61696e000d3833343436302e6269746d6170680063036f7264510a746578742f706c61696e52022601000d3833343436312e6269746d6170680063036f7264510a746578742f706c61696e52024c02000d3833343436322e6269746d6170680063036f7264510a746578742f706c61696e52027203000d3833343436332e6269746d6170680063036f7264510a746578742f706c61696e52029804000d3833343436342e6269746d6170680063036f7264510a746578742f706c61696e5202be05000d3833343436352e6269746d6170680063036f7264510a746578742f706c61696e5202e406000d3833343436362e6269746d6170680063036f7264510a746578742f706c61696e52020a08000d3833343436372e6269746d617068",
        "c1c0918ac338897c6f8f3b723c05c629dff665a1d75a51da24bb79ea0f4bf597e5"
      ],
      "is_coinbase": false,
      "sequence": 4294967293
    }
  ],
  "vout": [
    {
      "scriptpubkey": "001456940c90976f6c396680ef0c7dabb11d447838ec",
      "scriptpubkey_asm": "OP_0 OP_PUSHBYTES_20 56940c90976f6c396680ef0c7dabb11d447838ec",
      "scriptpubkey_type": "v0_p2wpkh",
      "scriptpubkey_address": "bc1q262qeyyhdakrje5qaux8m2a3r4z8sw8vu5mysh",
      "value": 2352
    }
  ],
  "size": 521,
  "weight": 767,
  "fee": 960,
  "status": {
    "confirmed": true,
    "block_height": 834460,
    "block_hash": "00000000000000000000484a79b643b2524bbce82e5d8a442013fa5b8905ed98",
    "block_time": 1710307468
  },
  "hex": "02000000000101183c50efcd550b6849e9a5a55a8930784bc74216730922a99dcd0586258546300000000000fdffffff01300900000000000016001456940c90976f6c396680ef0c7dabb11d447838ec03405e4f7156033563ac8db0e74c827ad9a0b0296f8721b272b1d6caa01dfc92043e1683f1f577d778d93bfd4361cae87abd6c9a6467e890639b709a5c812aa40af4fd4e0120c0918ac338897c6f8f3b723c05c629dff665a1d75a51da24bb79ea0f4bf597e5ac0063036f7264510a746578742f706c61696e000d3833343436302e6269746d6170680063036f7264510a746578742f706c61696e52022601000d3833343436312e6269746d6170680063036f7264510a746578742f706c61696e52024c02000d3833343436322e6269746d6170680063036f7264510a746578742f706c61696e52027203000d3833343436332e6269746d6170680063036f7264510a746578742f706c61696e52029804000d3833343436342e6269746d6170680063036f7264510a746578742f706c61696e5202be05000d3833343436352e6269746d6170680063036f7264510a746578742f706c61696e5202e406000d3833343436362e6269746d6170680063036f7264510a746578742f706c61696e52020a08000d3833343436372e6269746d61706821c1c0918ac338897c6f8f3b723c05c629dff665a1d75a51da24bb79ea0f4bf597e500000000"
}