{
  "txid": "958e82458f1384fe0fccabf06ea3399e8522be4b5ef95c882ecf932f33b06b68",
  "version": 2,
  "locktime": 0,
  "vin": [
    {
      "txid": "573166c074d1f9d97e74b7e445ae9eee4071bb54005e0e28be99fe4fa5597b23",
      "vout": 36,
      "prevout": {
        "scriptpubkey": "512094abe8d64720d1f6f6d1fb32addd51d4c258886f0bca50e7d684317bb0f94b53",
        "scriptpubkey_asm": "OP_PUSHNUM_1 OP_PUSHBYTES_32 94abe8d64720d1f6f6d1fb32addd51d4c258886f0bca50e7d684317bb0f94b53",
        "scriptpubkey_type": "v1_p2tr",
        "scriptpubkey_address": "bc1pjj4734j8yrgldak3lve2mh236np93zr0p099pe7ksschhv8efdfswft3w6",
        "value": 3055
      },
      "scriptsig": "",
      "scriptsig_asm": "",
      "witness": [
        "c87c8cf702bac9c6fa04016ab4f9a6acd3649e18eadab31906afb52224454fdf4784cc920f02c2d1cef89a509f1a184839d5cc681d3b8b5ab9111720de92e9d1",
        "20345169a968e8435545c6f7b1c1235dc51f9b4a7cf35a5424a5ebaff56461f06cac0063036f726401011e6170706c69636174696f6e2f6a736f6e3b636861727365743d7574662d38004cd37b2270223a22706f772d3230222c226f70223a226d696e74222c227469636b223a2250455045222c22616d74223a2231303030222c22736f6c7574696f6e223a22504550453a6263317070376e727a37746333726c6d6d72373773676a6b6b7561677073323971776830617261393430777a616878666b6d6e61687770717877667139703a303030303030303030303030303030303030303139393431613561653132383937363539383134343239323533333030353762306461393666336465613163353a3130313933373630333737227d68",
        "c1f1b4027b27384657c547a9d6289f3be45ec463ffc50ccbf57ef9c2d60d2b0f32"
      ],
      "is_coinbase": false,
      "sequence": 4294967295
    }
  ],
  "vout": [
    {
      "scriptpubkey": "51200fa631797888ffbd8fde82256b73a80c14503aefe8fa5abdc2edcc9b6e7dbb82",
      "scriptpubkey_asm": "OP_PUSHNUM_1 OP_PUSHBYTES_32 0fa631797888ffbd8fde82256b73a80c14503aefe8fa5abdc2edcc9b6e7dbb82",
      "scriptpubkey_type": "v1_p2tr",
      "scriptpubkey_address": "bc1pp7nrz7tc3rlmmr77sgjkkuagps29qwh0ara940wzahxfkmnahwpqxwfq9p",
      "value": 546
    }
  ],
  "size": 487,
  "weight": 769,
  "fee": 2509,
  "status": {
    "confirmed": true,
    "block_height": 834460,
    "block_hash": "00000000000000000000484a79b643b2524bbce82e5d8a442013fa5b8905ed98",
    "block_time": 1710307468
  },
  "hex": "02000000000101237b59a54ffe99be280e5e0054bb7140ee9eae45e4b7747ed9f9d174c06631572400000000ffffffff0122020000000000002251200fa631797888ffbd8fde82256b73a80c14503aefe8fa5abdc2edcc9b6e7dbb820340c87c8cf702bac9c6fa04016ab4f9a6acd3649e18eadab31906afb52224454fdf4784cc920f02c2d1cef89a509f1a184839d5cc681d3b8b5ab9111720de92e9d1fd200120345169a968e8435545c6f7b1c1235dc51f9b4a7cf35a5424a5ebaff56461f06cac0063036f726401011e6170706c69636174696f6e2f6a736f6e3b636861727365743d7574662d38004cd37b2270223a22706f772d3230222c226f70223a226d696e74222c227469636b223a2250455045222c22616d74223a2231303030222c22736f6c7574696f6e223a22504550453a6263317070376e727a37746333726c6d6d72373773676a6b6b7561677073323971776830617261393430777a616878666b6d6e61687770717877667139703a303030303030303030303030303030303030303139393431613561653132383937363539383134343239323533333030353762306461393666336465613163353a3130313933373630333737227d6821c1f1b4027b27384657c547a9d6289f3be45ec463ffc50ccbf57ef9c2d60d2b0f3200000000"
}