{
  "txid": "95a91c1545c8511270f94ba25a3dc83a1dc96fe30e8aeb431d035dc37172d01f",
  "version": 2,
  "locktime": 0,
  "vin": [
    {
      "txid": "0ad82719c5568c4acd81b83e609db57306639901211bd5a5b68a6fc3de4e1473",
      "vout": 6,
      "prevout": {
        "scriptpubkey": "512052cc9b49312f0d9a5fbe41744851b68ff6d3d7d8b8ce32d9b03e79cf8140852d",
        "scriptpubkey_asm": "OP_PUSHNUM_1 OP_PUSHBYTES_32 52cc9b49312f0d9a5fbe41744851b68ff6d3d7d8b8ce32d9b03e79cf8140852d",
        "scriptpubkey_type": "v1_p2tr",
        "scriptpubkey_address": "bc1p2txfkjf39uxe5ha7g96ys5dk3lmd847chr8r9kds8euulq2qs5ksrf7472",
        "value": 2834
      },
      "scriptsig": "",
      "scriptsig_asm": "",
      "witness": [
        "b50197dc9e2760841d91c9634d95874e34b56fe6ab807bf629f66c4c9db322970371b76e50199b84e174b30d56911580c1252948aabf31d9ef0bcac7dbf3a5ff",
        "20def8325d596aa0c466e69396fca9aecc181c13131ec04efe2263a3d145b60196ac0063036f726401011e6170706c69636174696f6e2f6a736f6e3b636861727365743d7574662d38004cbf7b2270223a22706f772d3230222c226f70223a226d696e74222c227469636b223a2250455045222c22616d74223a2231303030222c22736f6c7574696f6e223a22504550453a6263317173637064736c337671777466366a733538786832307637717775716839336e777737783763793a303030303030303030303030303030303030303139393431613561653132383937363539383134343239323533333030353762306461393666336465613163353a3339303934313739313531227d68",
        "c1962df30d9be27fcd73fd9a4053b3728334e273f9929aba028483b2e810075667"
      ],
      "is_coinbase": false,
      "sequence": 4294967295
    }
  ],
  "vout": [
    {
      "scriptpubkey": "00148602d87e2c03969d4a1439aea7b3c0770172c66e",
      "scriptpubkey_asm": "OP_0 OP_PUSHBYTES_20 8602d87e2c03969d4a1439aea7b3c0770172c66e",
      "scriptpubkey_type": "v0_p2wpkh",
      "scriptpubkey_address": "bc1qscpdsl3vqwtf6js58xh20v7qwuqh93nww7x7cy",
      "value": 546
    }
  ],
  "size": 455,
  "weight": 701,
  "fee": 2288,
  "status": {
    "confirmed": true,
    "block_height": 834460,
    "block_hash": "00000000000000000000484a79b643b2524bbce82e5d8a442013fa5b8905ed98",
    "block_time": 1710307468
  },
  "hex": "0200000000010173144edec36f8ab6a5d51b210199630673b59d603eb881cd4a8c56c51927d80a0600000000ffffffff0122020000000000001600148602d87e2c03969d4a1439aea7b3c0770172c66e0340b50197dc9e2760841d91c9634d95874e34b56fe6ab807bf629f66c4c9db322970371b76e50199b84e174b30d56911580c1252948aabf31d9ef0bcac7dbf3a5fffd0c0120def8325d596aa0c466e69396fca9aecc181c13131ec04efe2263a3d145b60196ac0063036f726401011e6170706c69636174696f6e2f6a736f6e3b636861727365743d7574662d38004cbf7b2270223a22706f772d3230222c226f70223a226d696e74222c227469636b223a2250455045222c22616d74223a2231303030222c22736f6c7574696f6e223a22504550453a6263317173637064736c337671777466366a733538786832307637717775716839336e777737783763793a303030303030303030303030303030303030303139393431613561653132383937363539383134343239323533333030353762306461393666336465613163353a3339303934313739313531227d6821c1962df30d9be27fcd73fd9a4053b3728334e273f9929aba028483b2e81007566700000000"
}