{
  "txid": "95afe2c38a58919edd94178ede7b3be71146b831563c69f9dc0809bfc9bfdc72",
  "version": 1,
  "locktime": 834637,
  "vin": [
    {
      "txid": "05b8f01d96c83ecc007191b553e2cbae372750727f0509a3a75ff02bdf9491ca",
      "vout": 208,
      "prevout": {
        "scriptpubkey": "00144196b284ea9eed93ac3b8f370eae582a3b7aa072",
        "scriptpubkey_asm": "OP_0 OP_PUSHBYTES_20 4196b284ea9eed93ac3b8f370eae582a3b7aa072",
        "scriptpubkey_type": "v0_p2wpkh",
        "scriptpubkey_address": "bc1qgxtt9p82nmke8tpm3umsatjc9gah4grjk4qvj7",
        "value": 153718
      },
      "scriptsig": "",
      "scriptsig_asm": "",
      "witness": [
        "3044022025333e064fc0c363808e6eb9023293c2282c896115708bb8d2ce2f8b9b9881af02201abc8e83236f0e10133a507c7452e96eb979a9e10203e21f4f36aeaab566d9ac01",
        "02e515611ae00cfb0ae407d095edb830aeec3eae57271df0a0203431eaf6f3345c"
      ],
      "is_coinbase": false,
      "sequence": 4294967293
    }
  ],
  "vout": [
    {
      "scriptpubkey": "76a91408996315c494e53f58d6b16160037b17c68c7edc88ac",
      "scriptpubkey_asm": "OP_DUP OP_HASH160 OP_PUSHBYTES_20 08996315c494e53f58d6b16160037b17c68c7edc OP_EQUALVERIFY OP_CHECKSIG",
      "scriptpubkey_type": "p2pkh",
      "scriptpubkey_address": "1nUA47uuPQBqNRBBr5tUY3HkvAef64PcL",
      "value": 150000
    }
  ],
  "size": 194,
  "weight": 449,
  "fee": 3718,
  "status": {
    "confirmed": true,
    "block_height": 834638,
    "block_hash": "000000000000000000025f742c626208ac87e0b7d15054abb4a19ca2d735a54e",
    "block_time": 1710405325
  },
  "hex": "01000000000101ca9194df2bf05fa7a309057f72502737aecbe253b5917100cc3ec8961df0b805d000000000fdffffff01f0490200000000001976a91408996315c494e53f58d6b16160037b17c68c7edc88ac02473044022025333e064fc0c363808e6eb9023293c2282c896115708bb8d2ce2f8b9b9881af02201abc8e83236f0e10133a507c7452e96eb979a9e10203e21f4f36aeaab566d9ac012102e515611ae00cfb0ae407d095edb830aeec3eae57271df0a0203431eaf6f3345c4dbc0c00"
}