{
  "txid": "95bf117e466468f468056019c713372d9696d4e9f3a08fa75f3c1a285cf40991",
  "version": 2,
  "locktime": 0,
  "vin": [
    {
      "txid": "abdcbb8bcefa0f088373ceda41a70fe1aeaa3823b969e1169e2a29269068d8dc",
      "vout": 21,
      "prevout": {
        "scriptpubkey": "5120c15bfb24c676c1317bcca10b31bbbf9dd95adbc2d2e2cbfc02afa02066067bb8",
        "scriptpubkey_asm": "OP_PUSHNUM_1 OP_PUSHBYTES_32 c15bfb24c676c1317bcca10b31bbbf9dd95adbc2d2e2cbfc02afa02066067bb8",
        "scriptpubkey_type": "v1_p2tr",
        "scriptpubkey_address": "bc1pc9dlkfxxwmqnz77v5y9nrwalnhv44k7z6t3vhlqz47szqesx0wuqsppy7a",
        "value": 2522
      },
      "scriptsig": "",
      "scriptsig_asm": "",
      "witness": [
        "4b002166a22a27666e333009b769fc47de36f19da8704af90b6bed16b353c64145c9e6df2984350c2c4e048e4867c34d778b09e123525dbc10c850560bb58f18",
        "20f343b07faf822d7493e6d9dede652aef6c6393a4a92916427c3a9896bef33cd1ac0063036f7264010118746578742f706c61696e3b636861727365743d7574662d3800387b2270223a226272632d3230222c226f70223a227472616e73666572222c227469636b223a226f726e6a222c22616d74223a22313030227d68",
        "c125dced391475af84759664675c16f5ed581b243a944241d7ee258c8cfb80c9db"
      ],
      "is_coinbase": false,
      "sequence": 4294967295
    }
  ],
  "vout": [
    {
      "scriptpubkey": "512060e7b9d91ee3091b65165528563dba11a47299520ea2fc67070ec6ac303fc05d",
      "scriptpubkey_asm": "OP_PUSHNUM_1 OP_PUSHBYTES_32 60e7b9d91ee3091b65165528563dba11a47299520ea2fc67070ec6ac303fc05d",
      "scriptpubkey_type": "v1_p2tr",
      "scriptpubkey_address": "bc1pvrnmnkg7uvy3kegk2559v0d6zxj89x2jp630cec8pmr2cvplcpwsn3pn79",
      "value": 546
    }
  ],
  "size": 323,
  "weight": 605,
  "fee": 1976,
  "status": {
    "confirmed": true,
    "block_height": 834460,
    "block_hash": "00000000000000000000484a79b643b2524bbce82e5d8a442013fa5b8905ed98",
    "block_time": 1710307468
  },
  "hex": "02000000000101dcd8689026292a9e16e169b92338aaaee10fa741dace7383080fface8bbbdcab1500000000ffffffff01220200000000000022512060e7b9d91ee3091b65165528563dba11a47299520ea2fc67070ec6ac303fc05d03404b002166a22a27666e333009b769fc47de36f19da8704af90b6bed16b353c64145c9e6df2984350c2c4e048e4867c34d778b09e123525dbc10c850560bb58f187e20f343b07faf822d7493e6d9dede652aef6c6393a4a92916427c3a9896bef33cd1ac0063036f7264010118746578742f706c61696e3b636861727365743d7574662d3800387b2270223a226272632d3230222c226f70223a227472616e73666572222c227469636b223a226f726e6a222c22616d74223a22313030227d6821c125dced391475af84759664675c16f5ed581b243a944241d7ee258c8cfb80c9db00000000"
}