{
  "txid": "95c8dd4f9d2ccfc2396a9452fb60758da5f4cfe120b3047407073b96fc770eb6",
  "version": 2,
  "locktime": 834637,
  "vin": [
    {
      "txid": "993dcbf166c7b5771120a9efebd38c81ba90399e262342bb32fc182ab14f6288",
      "vout": 1,
      "prevout": {
        "scriptpubkey": "001469baca78f78be07254d67d866769f441fcabb6da",
        "scriptpubkey_asm": "OP_0 OP_PUSHBYTES_20 69baca78f78be07254d67d866769f441fcabb6da",
        "scriptpubkey_type": "v0_p2wpkh",
        "scriptpubkey_address": "bc1qdxav578h30s8y4xk0krxw605g872hdk6ty3hkw",
        "value": 5005626
      },
      "scriptsig": "",
      "scriptsig_asm": "",
      "witness": [
        "304402202a288e065d03966bca2286b64b736aba94dc8548c40f8a31603f6ffa820765530220452fdac5dd325724902df61342b6a4f3f958a59952b12f2ae8615a1b1b638ddd01",
        "033fc25f114500341c28d18c29f74837f9920d4244f7d7b93e5fcf06f5fc412148"
      ],
      "is_coinbase": false,
      "sequence": 4294967293
    }
  ],
  "vout": [
    {
      "scriptpubkey": "0014f6c0acbfe9fd50b7264f65d62bc696e95c2eff4e",
      "scriptpubkey_asm": "OP_0 OP_PUSHBYTES_20 f6c0acbfe9fd50b7264f65d62bc696e95c2eff4e",
      "scriptpubkey_type": "v0_p2wpkh",
      "scriptpubkey_address": "bc1q7mq2e0lfl4gtwfj0vhtzh35ka9wzal6wa4nvep",
      "value": 1053082
    },
    {
      "scriptpubkey": "0014c1615193dbc8fd7fa6ba11ab1c286f2134692214",
      "scriptpubkey_asm": "OP_0 OP_PUSHBYTES_20 c1615193dbc8fd7fa6ba11ab1c286f2134692214",
      "scriptpubkey_type": "v0_p2wpkh",
      "scriptpubkey_address": "bc1qc9s4ry7mer7hlf46zx43c2r0yy6xjgs5dwnkl5",
      "value": 3948737
    }
  ],
  "size": 222,
  "weight": 561,
  "fee": 3807,
  "status": {
    "confirmed": true,
    "block_height": 834638,
    "block_hash": "000000000000000000025f742c626208ac87e0b7d15054abb4a19ca2d735a54e",
    "block_time": 1710405325
  },
  "hex": "0200000000010188624fb12a18fc32bb4223269e3990ba818cd3ebefa9201177b5c766f1cb3d990100000000fdffffff029a11100000000000160014f6c0acbfe9fd50b7264f65d62bc696e95c2eff4ec1403c0000000000160014c1615193dbc8fd7fa6ba11ab1c286f21346922140247304402202a288e065d03966bca2286b64b736aba94dc8548c40f8a31603f6ffa820765530220452fdac5dd325724902df61342b6a4f3f958a59952b12f2ae8615a1b1b638ddd0121033fc25f114500341c28d18c29f74837f9920d4244f7d7b93e5fcf06f5fc4121484dbc0c00"
}