{
  "txid": "95cfe227d908b2d4dbb9639713305c82ebfbf2dace04a58674c630eb3a05cbbc",
  "version": 2,
  "locktime": 0,
  "vin": [
    {
      "txid": "7364696ab5a21507bdbe3cf58e4d248099a9115f1979681412537031e6040732",
      "vout": 1,
      "prevout": {
        "scriptpubkey": "5120c8ef2b6bf8b5c941a59a042c68788bdfe655af342c8b999c1d0ddfecda04651f",
        "scriptpubkey_asm": "OP_PUSHNUM_1 OP_PUSHBYTES_32 c8ef2b6bf8b5c941a59a042c68788bdfe655af342c8b999c1d0ddfecda04651f",
        "scriptpubkey_type": "v1_p2tr",
        "scriptpubkey_address": "bc1perhjk6lckhy5rfv6qskxs7ytmln9tte59j9en8qaph07eksyv50sp6v644",
        "value": 546
      },
      "scriptsig": "",
      "scriptsig_asm": "",
      "witness": [
        "9b01b02a8148a492b33371b4fd153f728cdb3cac0edee26ae3be9493f5a0d4018ad21d1c0f1e7b40a1a2a297c83b9857ffbeb8af99c166787a84c759338ebcbb01"
      ],
      "is_coinbase": false,
      "sequence": 4294967295
    },
    {
      "txid": "ee47e5e085abd5a66c33793c6ca0877e5aba45c97fe2b5fe1a282bc6235938e9",
      "vout": 3,
      "prevout": {
        "scriptpubkey": "a9146e676bdb63bf263ecd3271489fd35ac2efdffc8687",
        "scriptpubkey_asm": "OP_HASH160 OP_PUSHBYTES_20 6e676bdb63bf263ecd3271489fd35ac2efdffc86 OP_EQUAL",
        "scriptpubkey_type": "p2sh",
        "scriptpubkey_address": "3Bkn9V2tiBpbYMH6v8CBi7iegeaQq8cd4d",
        "value": 800477
      },
      "scriptsig": "160014130c8a677b61619dcefdca5ac7ad928a089ad08e",
      "scriptsig_asm": "OP_PUSHBYTES_22 0014130c8a677b61619dcefdca5ac7ad928a089ad08e",
      "witness": [
        "3044022007c9eef6db537de1da83e26bafb46b8031de2d4d218d70c5f71ebe753aa25121022021002eb525a36b814a89242c930a6b1d355283b65544427fcf6679b7fb13e83701",
        "03558252c32d2e6bae7d8c9c083c8f0d65ffaefe1c33f8c3c0f40831ea4ce09273"
      ],
      "is_coinbase": false,
      "sequence": 4294967295,
      "inner_redeemscript_asm": "OP_0 OP_PUSHBYTES_20 130c8a677b61619dcefdca5ac7ad928a089ad08e"
    }
  ],
  "vout": [
    {
      "scriptpubkey": "5120c33fd30719c99b544a5adbd433317f909a34a735cab3bbad1e0fffb684276f1c",
      "scriptpubkey_asm": "OP_PUSHNUM_1 OP_PUSHBYTES_32 c33fd30719c99b544a5adbd433317f909a34a735cab3bbad1e0fffb684276f1c",
      "scriptpubkey_type": "v1_p2tr",
      "scriptpubkey_address": "bc1pcvlaxpceexd4gjj6m02rxvtljzdrffe4e2emhtg7pllmdpp8duwqy5tg6t",
      "value": 546
    },
    {
      "scriptpubkey": "a9147c50a49f527653800d698ded4c752381a40d199087",
      "scriptpubkey_asm": "OP_HASH160 OP_PUSHBYTES_20 7c50a49f527653800d698ded4c752381a40d1990 OP_EQUAL",
      "scriptpubkey_type": "p2sh",
      "scriptpubkey_address": "3D2LKWSpRji4hx4Sk4K83CCPStzDuLDhgg",
      "value": 547
    },
    {
      "scriptpubkey": "a914ea6b832a05c6ca578baa3836f3f25553d41068a587",
      "scriptpubkey_asm": "OP_HASH160 OP_PUSHBYTES_20 ea6b832a05c6ca578baa3836f3f25553d41068a5 OP_EQUAL",
      "scriptpubkey_type": "p2sh",
      "scriptpubkey_address": "3P4WqXDbSLRhzo2H6MT6YFbvBKBDPLbVtQ",
      "value": 579
    },
    {
      "scriptpubkey": "a9146e676bdb63bf263ecd3271489fd35ac2efdffc8687",
      "scriptpubkey_asm": "OP_HASH160 OP_PUSHBYTES_20 6e676bdb63bf263ecd3271489fd35ac2efdffc86 OP_EQUAL",
      "scriptpubkey_type": "p2sh",
      "scriptpubkey_address": "3Bkn9V2tiBpbYMH6v8CBi7iegeaQq8cd4d",
      "value": 794866
    }
  ],
  "size": 430,
  "weight": 1192,
  "fee": 4485,
  "status": {
    "confirmed": true,
    "block_height": 834638,
    "block_hash": "000000000000000000025f742c626208ac87e0b7d15054abb4a19ca2d735a54e",
    "block_time": 1710405325
  },
  "hex": "02000000000102320704e631705312146879195f11a99980244d8ef53cbebd0715a2b56a6964730100000000ffffffffe9385923c62b281afeb5e27fc945ba5a7e87a06c3c79336ca6d5ab85e0e547ee0300000017160014130c8a677b61619dcefdca5ac7ad928a089ad08effffffff042202000000000000225120c33fd30719c99b544a5adbd433317f909a34a735cab3bbad1e0fffb684276f1c230200000000000017a9147c50a49f527653800d698ded4c752381a40d199087430200000000000017a914ea6b832a05c6ca578baa3836f3f25553d41068a587f2200c000000000017a9146e676bdb63bf263ecd3271489fd35ac2efdffc868701419b01b02a8148a492b33371b4fd153f728cdb3cac0edee26ae3be9493f5a0d4018ad21d1c0f1e7b40a1a2a297c83b9857ffbeb8af99c166787a84c759338ebcbb0102473044022007c9eef6db537de1da83e26bafb46b8031de2d4d218d70c5f71ebe753aa25121022021002eb525a36b814a89242c930a6b1d355283b65544427fcf6679b7fb13e837012103558252c32d2e6bae7d8c9c083c8f0d65ffaefe1c33f8c3c0f40831ea4ce0927300000000"
}