{
  "txid": "95db7484473c415b6f6a1d204bb5c34fe290996d1d3825fd9189ffaf79253d7d",
  "version": 2,
  "locktime": 0,
  "vin": [
    {
      "txid": "38b9d961cb3dde65ea66dbe285767fc8ca5be7815c3a6ce1115899741593d616",
      "vout": 1,
      "prevout": {
        "scriptpubkey": "5120aacb326943df69511cbe1752b4bffedfe55c521844184d449d0715cae5d41017",
        "scriptpubkey_asm": "OP_PUSHNUM_1 OP_PUSHBYTES_32 aacb326943df69511cbe1752b4bffedfe55c521844184d449d0715cae5d41017",
        "scriptpubkey_type": "v1_p2tr",
        "scriptpubkey_address": "bc1p4t9ny62rma54z897zaftf0l7mlj4c5scgsvy63yaqu2u4ew5zqts6538cp",
        "value": 106958
      },
      "scriptsig": "",
      "scriptsig_asm": "",
      "witness": [
        "c4adc690dd7016c567448b131c9ed6346bbc0bff3d8bb04307d3281802192008aab79a07900816626dfb4eea8e359eadb1aeaf374f42161fab937bf9e4426cc9"
      ],
      "is_coinbase": false,
      "sequence": 4294967295
    },
    {
      "txid": "6238d81a2dadd9b15fcdabbf3266824b7b294938084b9ebb054f024142c3a465",
      "vout": 0,
      "prevout": {
        "scriptpubkey": "51209cff2ef0a03938926ceb588fc0dd9ad553e43d74599b3c20c7965de5030ea643",
        "scriptpubkey_asm": "OP_PUSHNUM_1 OP_PUSHBYTES_32 9cff2ef0a03938926ceb588fc0dd9ad553e43d74599b3c20c7965de5030ea643",
        "scriptpubkey_type": "v1_p2tr",
        "scriptpubkey_address": "bc1pnnljau9q8yufym8ttz8uphv664f7g0t5txdncgx8jew72qcw5eps62ga56",
        "value": 100000
      },
      "scriptsig": "",
      "scriptsig_asm": "",
      "witness": [
        "1b031d60c0bd7be900ad0ca33536ff27c38ad54bf1beb9be005a8ac5674639e9ac67295372cc4b0c175d888641eb07ce39c9029b467e7a0987f0b835fe265e2d83"
      ],
      "is_coinbase": false,
      "sequence": 4294967295
    }
  ],
  "vout": [
    {
      "scriptpubkey": "5120aacb326943df69511cbe1752b4bffedfe55c521844184d449d0715cae5d41017",
      "scriptpubkey_asm": "OP_PUSHNUM_1 OP_PUSHBYTES_32 aacb326943df69511cbe1752b4bffedfe55c521844184d449d0715cae5d41017",
      "scriptpubkey_type": "v1_p2tr",
      "scriptpubkey_address": "bc1p4t9ny62rma54z897zaftf0l7mlj4c5scgsvy63yaqu2u4ew5zqts6538cp",
      "value": 100000
    },
    {
      "scriptpubkey": "51209cff2ef0a03938926ceb588fc0dd9ad553e43d74599b3c20c7965de5030ea643",
      "scriptpubkey_asm": "OP_PUSHNUM_1 OP_PUSHBYTES_32 9cff2ef0a03938926ceb588fc0dd9ad553e43d74599b3c20c7965de5030ea643",
      "scriptpubkey_type": "v1_p2tr",
      "scriptpubkey_address": "bc1pnnljau9q8yufym8ttz8uphv664f7g0t5txdncgx8jew72qcw5eps62ga56",
      "value": 100000
    },
    {
      "scriptpubkey": "0014e5cb2de82fd4c136218c67a310fde879344c1bef",
      "scriptpubkey_asm": "OP_0 OP_PUSHBYTES_20 e5cb2de82fd4c136218c67a310fde879344c1bef",
      "scriptpubkey_type": "v0_p2wpkh",
      "scriptpubkey_address": "bc1quh9jm6p06nqnvgvvv733pl0g0y6ycxl0aas2t4",
      "value": 2000
    },
    {
      "scriptpubkey": "5120aacb326943df69511cbe1752b4bffedfe55c521844184d449d0715cae5d41017",
      "scriptpubkey_asm": "OP_PUSHNUM_1 OP_PUSHBYTES_32 aacb326943df69511cbe1752b4bffedfe55c521844184d449d0715cae5d41017",
      "scriptpubkey_type": "v1_p2tr",
      "scriptpubkey_address": "bc1p4t9ny62rma54z897zaftf0l7mlj4c5scgsvy63yaqu2u4ew5zqts6538cp",
      "value": 869
    }
  ],
  "size": 387,
  "weight": 1143,
  "fee": 4089,
  "status": {
    "confirmed": true,
    "block_height": 834638,
    "block_hash": "000000000000000000025f742c626208ac87e0b7d15054abb4a19ca2d735a54e",
    "block_time": 1710405325
  },
  "hex": "0200000000010216d6931574995811e16c3a5c81e75bcac87f7685e2db66ea65de3dcb61d9b9380100000000ffffffff65a4c34241024f05bb9e4b083849297b4b826632bfabcd5fb1d9ad2d1ad838620000000000ffffffff04a086010000000000225120aacb326943df69511cbe1752b4bffedfe55c521844184d449d0715cae5d41017a0860100000000002251209cff2ef0a03938926ceb588fc0dd9ad553e43d74599b3c20c7965de5030ea643d007000000000000160014e5cb2de82fd4c136218c67a310fde879344c1bef6503000000000000225120aacb326943df69511cbe1752b4bffedfe55c521844184d449d0715cae5d410170140c4adc690dd7016c567448b131c9ed6346bbc0bff3d8bb04307d3281802192008aab79a07900816626dfb4eea8e359eadb1aeaf374f42161fab937bf9e4426cc901411b031d60c0bd7be900ad0ca33536ff27c38ad54bf1beb9be005a8ac5674639e9ac67295372cc4b0c175d888641eb07ce39c9029b467e7a0987f0b835fe265e2d8300000000"
}