{
  "txid": "95f6023b7272b594abc5470d97aafeb2acac563ff67a2bf172d6ce3a8aaa09da",
  "version": 1,
  "locktime": 0,
  "vin": [
    {
      "txid": "12400a09921cb9614f78f65f27d0aeb0857847bab0455360aa1eb67afeb26781",
      "vout": 0,
      "prevout": {
        "scriptpubkey": "5120e3093ed11794240d1042a57e714afee29335c1c4a5f42ab6c59d01d828690933",
        "scriptpubkey_asm": "OP_PUSHNUM_1 OP_PUSHBYTES_32 e3093ed11794240d1042a57e714afee29335c1c4a5f42ab6c59d01d828690933",
        "scriptpubkey_type": "v1_p2tr",
        "scriptpubkey_address": "bc1puvyna5ghjsjq6yzz54l8zjh7u2fntswy5h6z4dk9n5qas2rfpyes3agvxx",
        "value": 3034
      },
      "scriptsig": "",
      "scriptsig_asm": "",
      "witness": [
        "2a9f93a99509a18c0813becfa7f2465ea4f08802a58703eca50d65ac2971b6ac58cb1cc4df71f2b1575f4df401ce67776615bf63b54842ff87bcb598771d6d00",
        "20dfa7325ed77fab28d796d113dcead29a7490c58aaa244f71cf02d52f6b761081ac00630461746f6d03646d7437a16461726773a46474696d651a65edd16f656e6f6e63650068626974776f726b6364313234306b6d696e745f7469636b657264766d707868",
        "c1dfa7325ed77fab28d796d113dcead29a7490c58aaa244f71cf02d52f6b761081"
      ],
      "is_coinbase": false,
      "sequence": 0
    }
  ],
  "vout": [
    {
      "scriptpubkey": "0014fee280141d858d4048606b1379c35e291248b7f1",
      "scriptpubkey_asm": "OP_0 OP_PUSHBYTES_20 fee280141d858d4048606b1379c35e291248b7f1",
      "scriptpubkey_type": "v0_p2wpkh",
      "scriptpubkey_address": "bc1qlm3gq9qaskx5qjrqdvfhns679yfy3dl3yvarqn",
      "value": 1000
    }
  ],
  "size": 287,
  "weight": 533,
  "fee": 2034,
  "status": {
    "confirmed": true,
    "block_height": 834464,
    "block_hash": "0000000000000000000177a0869a911a2b65c9bdcd5a8bcb02b68f305bee848e",
    "block_time": 1710308296
  },
  "hex": "010000000001018167b2fe7ab61eaa605345b0ba477885b0aed0275ff6784f61b91c92090a401200000000000000000001e803000000000000160014fee280141d858d4048606b1379c35e291248b7f103402a9f93a99509a18c0813becfa7f2465ea4f08802a58703eca50d65ac2971b6ac58cb1cc4df71f2b1575f4df401ce67776615bf63b54842ff87bcb598771d6d006620dfa7325ed77fab28d796d113dcead29a7490c58aaa244f71cf02d52f6b761081ac00630461746f6d03646d7437a16461726773a46474696d651a65edd16f656e6f6e63650068626974776f726b6364313234306b6d696e745f7469636b657264766d70786821c1dfa7325ed77fab28d796d113dcead29a7490c58aaa244f71cf02d52f6b76108100000000"
}