{
  "txid": "96047183f58322c63eef4f9568a9dd301e73ce14b879f2470d28e83298db2dda",
  "version": 2,
  "locktime": 0,
  "vin": [
    {
      "txid": "43a57709272c9be8d4704f73e21c3fd556a4d73379d11a2677be00955cea8c2e",
      "vout": 75,
      "prevout": {
        "scriptpubkey": "00141d4f9d25b35a570f377663ee86dc30e02eee808c",
        "scriptpubkey_asm": "OP_0 OP_PUSHBYTES_20 1d4f9d25b35a570f377663ee86dc30e02eee808c",
        "scriptpubkey_type": "v0_p2wpkh",
        "scriptpubkey_address": "bc1qr48e6fdntfts7dmkv0hgdhpsuqhwaqyv2su5ws",
        "value": 50933763
      },
      "scriptsig": "",
      "scriptsig_asm": "",
      "witness": [
        "304402206395710e242c51935faf9bed47addc90a6b6c844a9362896f3071f7cc499f0c802201ba141f49ececb1ee0cb7a07e2a8101e0b98aadd6080b1fb6cabee5ac4b985a101",
        "0302d6aa5c489b8a78743bb27c596010d4c42d0d4aff16918eed4cc65ec0765b29"
      ],
      "is_coinbase": false,
      "sequence": 4294967293
    }
  ],
  "vout": [
    {
      "scriptpubkey": "00145ea91ae0bd68f66edac681fcb67c276aba3ad14c",
      "scriptpubkey_asm": "OP_0 OP_PUSHBYTES_20 5ea91ae0bd68f66edac681fcb67c276aba3ad14c",
      "scriptpubkey_type": "v0_p2wpkh",
      "scriptpubkey_address": "bc1qt6534c9adrmxakkxs87tvlp8d2ar452vrc0ptm",
      "value": 50923609
    }
  ],
  "size": 191,
  "weight": 437,
  "fee": 10154,
  "status": {
    "confirmed": true,
    "block_height": 834638,
    "block_hash": "000000000000000000025f742c626208ac87e0b7d15054abb4a19ca2d735a54e",
    "block_time": 1710405325
  },
  "hex": "020000000001012e8cea5c9500be77261ad17933d7a456d53f1ce2734f70d4e89b2c270977a5434b00000000fdffffff0159080903000000001600145ea91ae0bd68f66edac681fcb67c276aba3ad14c0247304402206395710e242c51935faf9bed47addc90a6b6c844a9362896f3071f7cc499f0c802201ba141f49ececb1ee0cb7a07e2a8101e0b98aadd6080b1fb6cabee5ac4b985a101210302d6aa5c489b8a78743bb27c596010d4c42d0d4aff16918eed4cc65ec0765b2900000000"
}