{
  "txid": "9608843146ca38d716f36f79a7e137c18b9b2b1cf88dd7ef189e5fd93553234c",
  "version": 2,
  "locktime": 0,
  "vin": [
    {
      "txid": "895eaa0909ec73b0d89e0d2603c02b2159b9df442f109be6f678d42d8a4dedfb",
      "vout": 1,
      "prevout": {
        "scriptpubkey": "001497cd5b6b8fbaff270bb2eea84e8f72848b5b8f23",
        "scriptpubkey_asm": "OP_0 OP_PUSHBYTES_20 97cd5b6b8fbaff270bb2eea84e8f72848b5b8f23",
        "scriptpubkey_type": "v0_p2wpkh",
        "scriptpubkey_address": "bc1qjlx4k6u0htljwzaja65yarmjsj94hrernqpw0m",
        "value": 380042
      },
      "scriptsig": "",
      "scriptsig_asm": "",
      "witness": [
        "3045022100c860e9cd3d9267edbbdd5a434f1545ddf6a4398f4ca15b1e5ec4e4d51cb4ddc40220522bd6d94d7d80d15a605d3b59ba21ad5ac61128068da594588399d8acfd587c01",
        "03a26b50423f8e02511c95de237dab3c4621a36541b0dac138fe5790f9faca0864"
      ],
      "is_coinbase": false,
      "sequence": 4294967295
    },
    {
      "txid": "a2781241b706bc1643331f4fb6a3db789420f99bc52dd554f0dac110039fc68c",
      "vout": 1,
      "prevout": {
        "scriptpubkey": "001497cd5b6b8fbaff270bb2eea84e8f72848b5b8f23",
        "scriptpubkey_asm": "OP_0 OP_PUSHBYTES_20 97cd5b6b8fbaff270bb2eea84e8f72848b5b8f23",
        "scriptpubkey_type": "v0_p2wpkh",
        "scriptpubkey_address": "bc1qjlx4k6u0htljwzaja65yarmjsj94hrernqpw0m",
        "value": 360003
      },
      "scriptsig": "",
      "scriptsig_asm": "",
      "witness": [
        "3044022054ec2980c3fabbb889cee89d14319e0d68ea03009e7b3dae8ff2e61d7d968b8f02205db9f69b986e199414d0c1f5c0761a3ce1cb9c91ac22a3a3295bb6301e6a8dfc01",
        "03a26b50423f8e02511c95de237dab3c4621a36541b0dac138fe5790f9faca0864"
      ],
      "is_coinbase": false,
      "sequence": 4294967295
    },
    {
      "txid": "da6c721a6ae9791a7d24de1c43c3445934d86896639b86ff01cf1268f37bb3d5",
      "vout": 1,
      "prevout": {
        "scriptpubkey": "001497cd5b6b8fbaff270bb2eea84e8f72848b5b8f23",
        "scriptpubkey_asm": "OP_0 OP_PUSHBYTES_20 97cd5b6b8fbaff270bb2eea84e8f72848b5b8f23",
        "scriptpubkey_type": "v0_p2wpkh",
        "scriptpubkey_address": "bc1qjlx4k6u0htljwzaja65yarmjsj94hrernqpw0m",
        "value": 334358
      },
      "scriptsig": "",
      "scriptsig_asm": "",
      "witness": [
        "304402205f59400a00923f5095823b9f447166b4d2db6dde4d1945c1b7c018b0eea986610220399cabfb9acaffa9d96b577d9d7491314f2bf548d144ae72baecd5ada5edca3301",
        "03a26b50423f8e02511c95de237dab3c4621a36541b0dac138fe5790f9faca0864"
      ],
      "is_coinbase": false,
      "sequence": 4294967295
    },
    {
      "txid": "2c763c4566c241b6a2d47ce01b9949e02410f8a8d71dd92cf135ac421281b0c1",
      "vout": 1,
      "prevout": {
        "scriptpubkey": "001497cd5b6b8fbaff270bb2eea84e8f72848b5b8f23",
        "scriptpubkey_asm": "OP_0 OP_PUSHBYTES_20 97cd5b6b8fbaff270bb2eea84e8f72848b5b8f23",
        "scriptpubkey_type": "v0_p2wpkh",
        "scriptpubkey_address": "bc1qjlx4k6u0htljwzaja65yarmjsj94hrernqpw0m",
        "value": 273039
      },
      "scriptsig": "",
      "scriptsig_asm": "",
      "witness": [
        "3045022100f6f48bda7123a1bbb543925a20c87454a1c3df232df8dd3e898a6bfa743c568a0220652c9ef78d46d7bb2c9dd1dc7199820c5c7acc512593fe53614c793965aad53f01",
        "03a26b50423f8e02511c95de237dab3c4621a36541b0dac138fe5790f9faca0864"
      ],
      "is_coinbase": false,
      "sequence": 4294967295
    },
    {
      "txid": "1ad9065f8805c46f421130a3457e98cccb918847e28c5d414bb53884bc023f13",
      "vout": 0,
      "prevout": {
        "scriptpubkey": "001497cd5b6b8fbaff270bb2eea84e8f72848b5b8f23",
        "scriptpubkey_asm": "OP_0 OP_PUSHBYTES_20 97cd5b6b8fbaff270bb2eea84e8f72848b5b8f23",
        "scriptpubkey_type": "v0_p2wpkh",
        "scriptpubkey_address": "bc1qjlx4k6u0htljwzaja65yarmjsj94hrernqpw0m",
        "value": 10000
      },
      "scriptsig": "",
      "scriptsig_asm": "",
      "witness": [
        "3044022040641fccc1dd8f19056358b541911fe78f5ce3bceed27841ed87b8690f20041b0220026570dd20fd771f47e3be27329ca2761ca82ee865910096224fcbf6ba2d85af01",
        "03a26b50423f8e02511c95de237dab3c4621a36541b0dac138fe5790f9faca0864"
      ],
      "is_coinbase": false,
      "sequence": 4294967295
    }
  ],
  "vout": [
    {
      "scriptpubkey": "0014b1c69bd023229876be7df804522f89cd093a418c",
      "scriptpubkey_asm": "OP_0 OP_PUSHBYTES_20 b1c69bd023229876be7df804522f89cd093a418c",
      "scriptpubkey_type": "v0_p2wpkh",
      "scriptpubkey_address": "bc1qk8rfh5pry2v8d0nalqz9ytufe5yn5svvxejf9r",
      "value": 1350000
    }
  ],
  "size": 785,
  "weight": 1523,
  "fee": 7442,
  "status": {
    "confirmed": true,
    "block_height": 834638,
    "block_hash": "000000000000000000025f742c626208ac87e0b7d15054abb4a19ca2d735a54e",
    "block_time": 1710405325
  },
  "hex": "02000000000105fbed4d8a2dd478f6e69b102f44dfb959212bc003260d9ed8b073ec0909aa5e890100000000ffffffff8cc69f0310c1daf054d52dc59bf9209478dba3b64f1f334316bc06b7411278a20100000000ffffffffd5b37bf36812cf01ff869b639668d8345944c3431cde247d1a79e96a1a726cda0100000000ffffffffc1b0811242ac35f12cd91dd7a8f81024e049991be07cd4a2b641c266453c762c0100000000ffffffff133f02bc8438b54b415d8ce2478891cbcc987e45a33011426fc405885f06d91a0000000000ffffffff017099140000000000160014b1c69bd023229876be7df804522f89cd093a418c02483045022100c860e9cd3d9267edbbdd5a434f1545ddf6a4398f4ca15b1e5ec4e4d51cb4ddc40220522bd6d94d7d80d15a605d3b59ba21ad5ac61128068da594588399d8acfd587c012103a26b50423f8e02511c95de237dab3c4621a36541b0dac138fe5790f9faca086402473044022054ec2980c3fabbb889cee89d14319e0d68ea03009e7b3dae8ff2e61d7d968b8f02205db9f69b986e199414d0c1f5c0761a3ce1cb9c91ac22a3a3295bb6301e6a8dfc012103a26b50423f8e02511c95de237dab3c4621a36541b0dac138fe5790f9faca08640247304402205f59400a00923f5095823b9f447166b4d2db6dde4d1945c1b7c018b0eea986610220399cabfb9acaffa9d96b577d9d7491314f2bf548d144ae72baecd5ada5edca33012103a26b50423f8e02511c95de237dab3c4621a36541b0dac138fe5790f9faca086402483045022100f6f48bda7123a1bbb543925a20c87454a1c3df232df8dd3e898a6bfa743c568a0220652c9ef78d46d7bb2c9dd1dc7199820c5c7acc512593fe53614c793965aad53f012103a26b50423f8e02511c95de237dab3c4621a36541b0dac138fe5790f9faca086402473044022040641fccc1dd8f19056358b541911fe78f5ce3bceed27841ed87b8690f20041b0220026570dd20fd771f47e3be27329ca2761ca82ee865910096224fcbf6ba2d85af012103a26b50423f8e02511c95de237dab3c4621a36541b0dac138fe5790f9faca086400000000"
}