{
  "txid": "9618900a8f70e7c9626f39288a12c80cf1b1f73767745d33416406a8c6557b89",
  "version": 1,
  "locktime": 0,
  "vin": [
    {
      "txid": "e20fb0e5e8c3d55b1517f40e7e50c794afe1cc3b6f8bc7198babc2ef74632e13",
      "vout": 1,
      "prevout": {
        "scriptpubkey": "5120effe53e0b9f93e669c05e3dc33680e5a527158e8bbcf92608d4fb10f29aaa149",
        "scriptpubkey_asm": "OP_PUSHNUM_1 OP_PUSHBYTES_32 effe53e0b9f93e669c05e3dc33680e5a527158e8bbcf92608d4fb10f29aaa149",
        "scriptpubkey_type": "v1_p2tr",
        "scriptpubkey_address": "bc1pall98c9elylxd8q9u0wrx6qwtff8zk8gh08eycydf7cs72d259ys33mvkx",
        "value": 12998
      },
      "scriptsig": "",
      "scriptsig_asm": "",
      "witness": [
        "473f83d8e1b9edb8acbe27745d2a3f31e27be925624a567642fd7615c1f0616714055b006611863c79c40c2313f14e310eca0c5595569671d366382de015dd96"
      ],
      "is_coinbase": false,
      "sequence": 4294967293
    }
  ],
  "vout": [
    {
      "scriptpubkey": "512044d306a78ee0b7b11f2229eb57ecb58488aed89e4670e085e965f2c335570a4a",
      "scriptpubkey_asm": "OP_PUSHNUM_1 OP_PUSHBYTES_32 44d306a78ee0b7b11f2229eb57ecb58488aed89e4670e085e965f2c335570a4a",
      "scriptpubkey_type": "v1_p2tr",
      "scriptpubkey_address": "bc1pgnfsdfuwuzmmz8ez98440m94sjy2aky7gecwpp0fvhevxd2hpf9quzd24q",
      "value": 2646
    },
    {
      "scriptpubkey": "5120f667578b85bed256c7fcb9f2cda488d5281e52ca42e7dd4bc21e95149562f09f",
      "scriptpubkey_asm": "OP_PUSHNUM_1 OP_PUSHBYTES_32 f667578b85bed256c7fcb9f2cda488d5281e52ca42e7dd4bc21e95149562f09f",
      "scriptpubkey_type": "v1_p2tr",
      "scriptpubkey_address": "bc1p7en40zu9hmf9d3luh8evmfyg655pu5k2gtna6j7zr623f9tz7z0stfnwav",
      "value": 2128
    },
    {
      "scriptpubkey": "5120effe53e0b9f93e669c05e3dc33680e5a527158e8bbcf92608d4fb10f29aaa149",
      "scriptpubkey_asm": "OP_PUSHNUM_1 OP_PUSHBYTES_32 effe53e0b9f93e669c05e3dc33680e5a527158e8bbcf92608d4fb10f29aaa149",
      "scriptpubkey_type": "v1_p2tr",
      "scriptpubkey_address": "bc1pall98c9elylxd8q9u0wrx6qwtff8zk8gh08eycydf7cs72d259ys33mvkx",
      "value": 5452
    }
  ],
  "size": 248,
  "weight": 788,
  "fee": 2772,
  "status": {
    "confirmed": true,
    "block_height": 834460,
    "block_hash": "00000000000000000000484a79b643b2524bbce82e5d8a442013fa5b8905ed98",
    "block_time": 1710307468
  },
  "hex": "01000000000101132e6374efc2ab8b19c78b6f3bcce1af94c7507e0ef417155bd5c3e8e5b00fe20100000000fdffffff03560a00000000000022512044d306a78ee0b7b11f2229eb57ecb58488aed89e4670e085e965f2c335570a4a5008000000000000225120f667578b85bed256c7fcb9f2cda488d5281e52ca42e7dd4bc21e95149562f09f4c15000000000000225120effe53e0b9f93e669c05e3dc33680e5a527158e8bbcf92608d4fb10f29aaa1490140473f83d8e1b9edb8acbe27745d2a3f31e27be925624a567642fd7615c1f0616714055b006611863c79c40c2313f14e310eca0c5595569671d366382de015dd9600000000"
}