{
  "txid": "96199a009886066775754e23d565d952640e6954ae259f0c222841b511a4e821",
  "version": 2,
  "locktime": 0,
  "vin": [
    {
      "txid": "0297933275e9b87a592b5fe50eac2574def18b5ac071aa88b863986e7db5e3d6",
      "vout": 6,
      "prevout": {
        "scriptpubkey": "51203435d6996be5f560ea13106802e57d8e7d4adf65c3d34379fb45a65b775366b1",
        "scriptpubkey_asm": "OP_PUSHNUM_1 OP_PUSHBYTES_32 3435d6996be5f560ea13106802e57d8e7d4adf65c3d34379fb45a65b775366b1",
        "scriptpubkey_type": "v1_p2tr",
        "scriptpubkey_address": "bc1pxs6adxttuh6kp6snzp5q9eta3e754hm9c0f5x70mgkn9ka6nv6csnj2d9c",
        "value": 3186
      },
      "scriptsig": "",
      "scriptsig_asm": "",
      "witness": [
        "a4a62fabf0c384b98e889266e1f4a4ea49fb7c7ba92138cba144a76681d601d05d0b8e6f175c3078ef2aedc1389452368a1eb34b35f707a30efa404b78e1f062",
        "205a68a462232a0924515e22f05cc08779f9a09eacc67cdcf84fa824de9310cba9ac0063036f726401011e6170706c69636174696f6e2f6a736f6e3b636861727365743d7574662d38004cbf7b2270223a22706f772d3230222c226f70223a226d696e74222c227469636b223a2250455045222c22616d74223a2231303030222c22736f6c7574696f6e223a22504550453a6263317171633839726a7563797a776c77786d7761646c7763797139353668726e726b6a6833637361723a303030303030303030303030303030303030303139393431613561653132383937363539383134343239323533333030353762306461393666336465613163353a3632303230343430353439227d68",
        "c0ebc23c5cb62efa16bafbb201dcb9689a89d3be5df33e83929d6fd8751a90bb42"
      ],
      "is_coinbase": false,
      "sequence": 4294967295
    }
  ],
  "vout": [
    {
      "scriptpubkey": "0014060e51cb98209df71b6eeb7eec1005a6ae398ed2",
      "scriptpubkey_asm": "OP_0 OP_PUSHBYTES_20 060e51cb98209df71b6eeb7eec1005a6ae398ed2",
      "scriptpubkey_type": "v0_p2wpkh",
      "scriptpubkey_address": "bc1qqc89rjucyzwlwxmwadlwcyq956hrnrkjh3csar",
      "value": 546
    }
  ],
  "size": 455,
  "weight": 701,
  "fee": 2640,
  "status": {
    "confirmed": true,
    "block_height": 834460,
    "block_hash": "00000000000000000000484a79b643b2524bbce82e5d8a442013fa5b8905ed98",
    "block_time": 1710307468
  },
  "hex": "02000000000101d6e3b57d6e9863b888aa71c05a8bf1de7425ac0ee55f2b597ab8e975329397020600000000ffffffff012202000000000000160014060e51cb98209df71b6eeb7eec1005a6ae398ed20340a4a62fabf0c384b98e889266e1f4a4ea49fb7c7ba92138cba144a76681d601d05d0b8e6f175c3078ef2aedc1389452368a1eb34b35f707a30efa404b78e1f062fd0c01205a68a462232a0924515e22f05cc08779f9a09eacc67cdcf84fa824de9310cba9ac0063036f726401011e6170706c69636174696f6e2f6a736f6e3b636861727365743d7574662d38004cbf7b2270223a22706f772d3230222c226f70223a226d696e74222c227469636b223a2250455045222c22616d74223a2231303030222c22736f6c7574696f6e223a22504550453a6263317171633839726a7563797a776c77786d7761646c7763797139353668726e726b6a6833637361723a303030303030303030303030303030303030303139393431613561653132383937363539383134343239323533333030353762306461393666336465613163353a3632303230343430353439227d6821c0ebc23c5cb62efa16bafbb201dcb9689a89d3be5df33e83929d6fd8751a90bb4200000000"
}