{
  "txid": "961ace1aeae3f11523890212486fe4e7b7e74bae2d0dbbae6e69d0d26f4824a3",
  "version": 2,
  "locktime": 0,
  "vin": [
    {
      "txid": "8c8762510d14bc1351d56b3fc8e4970ed613d6218ed839e4f758cac5935f1448",
      "vout": 15,
      "prevout": {
        "scriptpubkey": "76a914e8cdd84f17b0bf78c9a82374f02f21b0e369587888ac",
        "scriptpubkey_asm": "OP_DUP OP_HASH160 OP_PUSHBYTES_20 e8cdd84f17b0bf78c9a82374f02f21b0e3695878 OP_EQUALVERIFY OP_CHECKSIG",
        "scriptpubkey_type": "p2pkh",
        "scriptpubkey_address": "1NDxMs484DqnMEq3UudcYEkFhxfWbJL4D5",
        "value": 1370253
      },
      "scriptsig": "483045022100dfae6af00e3dbc6c0b0073abc614c9b11730789661758b87cb4c003767ed824f02206e947308b651cca9f91fcf672afaf42631b7829391fae4366f0659a442487d640121030ecbb8a1d7ce54330dbc2c67f893f9f3e6efab67bc289f50714d41e661a3737c",
      "scriptsig_asm": "OP_PUSHBYTES_72 3045022100dfae6af00e3dbc6c0b0073abc614c9b11730789661758b87cb4c003767ed824f02206e947308b651cca9f91fcf672afaf42631b7829391fae4366f0659a442487d6401 OP_PUSHBYTES_33 030ecbb8a1d7ce54330dbc2c67f893f9f3e6efab67bc289f50714d41e661a3737c",
      "is_coinbase": false,
      "sequence": 4294967293
    }
  ],
  "vout": [
    {
      "scriptpubkey": "00208ee44201f68b462824b5dcfc86f497d5fd8d1d88712f9de5b1f5340350ae2790",
      "scriptpubkey_asm": "OP_0 OP_PUSHBYTES_32 8ee44201f68b462824b5dcfc86f497d5fd8d1d88712f9de5b1f5340350ae2790",
      "scriptpubkey_type": "v0_p2wsh",
      "scriptpubkey_address": "bc1q3mjyyq0k3drzsf94mn7gdayh6h7c68vgwyhemed3756qx59wy7gquduuj5",
      "value": 1344468
    }
  ],
  "size": 201,
  "weight": 804,
  "fee": 25785,
  "status": {
    "confirmed": true,
    "block_height": 834460,
    "block_hash": "00000000000000000000484a79b643b2524bbce82e5d8a442013fa5b8905ed98",
    "block_time": 1710307468
  },
  "hex": "020000000148145f93c5ca58f7e439d88e21d613d60e97e4c83f6bd55113bc140d5162878c0f0000006b483045022100dfae6af00e3dbc6c0b0073abc614c9b11730789661758b87cb4c003767ed824f02206e947308b651cca9f91fcf672afaf42631b7829391fae4366f0659a442487d640121030ecbb8a1d7ce54330dbc2c67f893f9f3e6efab67bc289f50714d41e661a3737cfdffffff01d4831400000000002200208ee44201f68b462824b5dcfc86f497d5fd8d1d88712f9de5b1f5340350ae279000000000"
}