{
  "txid": "962f24a97903d32c37d901cf86bccffa592d3917922e8868282684cefe819796",
  "version": 2,
  "locktime": 0,
  "vin": [
    {
      "txid": "5bb8ac28f11163f097d8c5c8e9bafd88836a1e475158a7e66f9405bb9d6cdc6a",
      "vout": 8,
      "prevout": {
        "scriptpubkey": "00145c2c7ccb49a81e176dd5beda1834b70d9fbe843c",
        "scriptpubkey_asm": "OP_0 OP_PUSHBYTES_20 5c2c7ccb49a81e176dd5beda1834b70d9fbe843c",
        "scriptpubkey_type": "v0_p2wpkh",
        "scriptpubkey_address": "bc1qtsk8ej6f4q0pwmw4hmdpsd9hpk0mappu7j96he",
        "value": 591253
      },
      "scriptsig": "",
      "scriptsig_asm": "",
      "witness": [
        "304402206aa837ba54b20e10c66a2ec1012e9c9ad399abf2cecc0c5e4ccbb69b79941e0902206dfc00b3594365f60d689ee037990422833ff9e37bad514fe777b875cb421bd501",
        "03b28b969ad45dbd10d09a3b57a9b00fb21ea0b62681d88734e3b6922a0c457a9b"
      ],
      "is_coinbase": false,
      "sequence": 4294967293
    }
  ],
  "vout": [
    {
      "scriptpubkey": "00205b91e66fce4495f1c30df3c8970c246a48f470e93c5c73b004bebcec701cfed7",
      "scriptpubkey_asm": "OP_0 OP_PUSHBYTES_32 5b91e66fce4495f1c30df3c8970c246a48f470e93c5c73b004bebcec701cfed7",
      "scriptpubkey_type": "v0_p2wsh",
      "scriptpubkey_address": "bc1qtwg7vm7wgj2lrscd70yfwrpydfy0gu8f83w88vqyh67wcuqulmtscnke74",
      "value": 589504
    }
  ],
  "size": 203,
  "weight": 485,
  "fee": 1749,
  "status": {
    "confirmed": true,
    "block_height": 834552,
    "block_hash": "00000000000000000001dd0468a70c94f619251d286585cff57aeb4bd9ede330",
    "block_time": 1710355598
  },
  "hex": "020000000001016adc6c9dbb05946fe6a75851471e6a8388fdbae9c8c5d897f06311f128acb85b0800000000fdffffff01c0fe0800000000002200205b91e66fce4495f1c30df3c8970c246a48f470e93c5c73b004bebcec701cfed70247304402206aa837ba54b20e10c66a2ec1012e9c9ad399abf2cecc0c5e4ccbb69b79941e0902206dfc00b3594365f60d689ee037990422833ff9e37bad514fe777b875cb421bd5012103b28b969ad45dbd10d09a3b57a9b00fb21ea0b62681d88734e3b6922a0c457a9b00000000"
}