{
  "txid": "96320c590c0b5965db5e386ea08a4a41b09283ca798fe26afdd92035313ac9c0",
  "version": 2,
  "locktime": 0,
  "vin": [
    {
      "txid": "bba28846dcce6ef831651a34c908fc7bb00bb6f6b5ad5f7f0b4773171d22f5ee",
      "vout": 0,
      "prevout": {
        "scriptpubkey": "512039d406f555efe22429b5326b3ef79fb06f43d24f73038d3dc0b2ef9d880bf090",
        "scriptpubkey_asm": "OP_PUSHNUM_1 OP_PUSHBYTES_32 39d406f555efe22429b5326b3ef79fb06f43d24f73038d3dc0b2ef9d880bf090",
        "scriptpubkey_type": "v1_p2tr",
        "scriptpubkey_address": "bc1p882qda24al3zg2d4xf4naaulkph585j0wvpc60wqkthemzqt7zgqhrjhy4",
        "value": 18405
      },
      "scriptsig": "",
      "scriptsig_asm": "",
      "witness": [
        "6a87df1b1974afa6dbbc9a45db2119846e898f715f3ee7f160900704c8f9e98267a89432fb59c74c503710582d4b426501674213d87214fdb09e81e1ed4eeaf8",
        "20537e4a64d8b157882deea54b3213233bd2fd31894555744e45688c2b55498f0eac0063036f7264010109696d6167652f706e67004d080289504e470d0a1a0a0000000d49484452000001f4000001f40803000000fc082fb80000007e504c544545d24145d1415a86964d3d3dca935cd99c63578e5d5b8697ebad743d955bca9a6af2032990000f000000f2b175e4a76f57839a44c1494db461cba77646373a898f83558c5a519a743fa055559185b2845793704faba068d4955e6f55470d110d5a4541a1091683935eb04437719c623f725078be4ce34747df0a2b9c000eeab5d232000000097048597300000b1300000b1301009a9c1800000f8249444154789ced9d0d7bda3816469181d8613b3604f205096dd399ccf4ffffc17d48763d417290ece8cbbee740bbbbb349303e79ef3596469a95208e59ea0380f8205d20481708d205827481205d20481708d205827481205d20481708d205827481205d20481708d205827481205d20481708d205827481205d20481708d205827481205d20481708d205827481205d2017a51765f1f60449492fde9e202ce97f91f4e981748150de05c2859c401ca4c73b1888039fd305827481205d20481708d205827481205d20481708d205827481205d20481708d205827481642efd34496f0a94590d50672e7d2a33f48a3227b2975e4e82a2cc89cca51765797f337e1ef3b29ebff49bd9e8518f6ba4f794ae66a346cd3648ef9d74a40b2cef48f70cd2834379ef09490f01490f0e49ef09490f01490f0e49ef09490f01490f0e49ef09490f014d0802490f0e49ffc8dbd255d6e90793b823576635cd2265d29d9c179390be46fabfd6edbf17d348fadafa56638ebdceb29f21b119bf7495d9348b59fe332446ee7ce6f206942ce92e6764366ad44c59dfc1e9522fde891f83f4c9a348ba3c14d2e5a1902e0f85747928a4cb43215d1e0ae9f25048978742ba3c14d2e5a1902e0f85747928a4cb43215d1e0ae9f25048978742ba3c14d2e5a1902e0f85747928a4cb43215d1e0ae9f25048978742ba3c14d2e5a1902e0f85747928a4cb43215d1e6a2ad25d169429c6bfa08c37e92e67cbd72f46b87f3fbd28d776907e42cd54e170b2bc1583904997b0a04cbc55696e6ef24f7a51161ba7f70b33b7b3e06f899290d21d6ab7c2faccf52c6c4691f49b99b282f4d9fb5244d613351ee9d46e5f28a4cb43215d1e0ae9f25048978742ba3c14d2e5a1902e0f85747928a4cb43215d1e2aa874b7d90fd6117d6ec30696fe054f481f0961a5bb4d79b14ee320e9a1cbfb704f5d497fbc77c036a28ff4e0491feca953bacb41dc5bb61a437a68e9eb7b97ef7396eeb28312d2d34b577ea55b7e9c427a1ed2ed9e903e6214d2e5a1902e0f85747928a4cb43215d1e0ae9f25048978742ba3c14d2e5a1902e0f9589f48bc3f58cb28590fe9114d2cd891b480f887a5b94e0ec74a7487ac77792f4b0493f2341d2373ada92289477bf749c7215577ad7ff6fcedb6351029f7429b16bf29b74e39f91f4a0749df2c84d080249eff8f148cf0fa40b4491747928a4cb43215d1e0ae9f25048978742ba3c14d2e5a1902e0f857479a8b0032eefb761cf47d7cd01175685fe848127c6eb80cb00baefbdb3babbb705df3b4fbac70117b723ed3fe0c29afe9f3b9fa54efac601e305361dbbf2f43e4aa1a840dfd747fab50366e9ee7a51fd4b90fe69d253977707e70f86e68e43328e812d5b2e489f659f7453bad3219274afd267f94b874f40ba401449978742ba3c14d2e5a14622fd9a0b3979d2b97af708d205a248ba3c14d2e5a1902e0f3512e95cbd0b941eebea7de89c9250cc42bc6db7a155eb4b77fe8c314acf6d5c4e85f9a12e27530dfa8a7bd72dba1e0d52267d9313b34049f7f1d2a795801eef3573ce5b7495ebf5dbf64fed5f29a56f1eaef3e12194748737e922fd715dea0b40396ed155185f87f4f4d2ed2fedb0badf25e9faf7217d24491f2abdabde237d3c4977108af45e20ddffaf7cd76f2f1772ef90f4543ce4dfd329ef1392fe80f4443c203d02f4f4ff43d253f1404f27e97ea0a7ebe7838f6cef50dec75dde95f1ef7073f53eada4abcee911fa178de673ba39b5a3e7f91021bdfbace8e76e1c9fd35ddf5d22e9575e1e9e926ecc87509bcdcd87ff79b3b9315f2a47e9e6cc8e9c92feb2f5c18b27e9f6577a1a85f48e83ca4a7a5d575f7ed44f9ea457b586f60faaba71784f48b749af7cf0e4497a5355979ff5d6ee9ca447915e7b946e7925a4fb28ef4d0802488fd2d3af2727bdca2ae9f4f428d2ebaca467d9d349ba40e9797d6423e91720e96329eff47492de013ddd074f39259d9e4ed23b20e91ea8b34a3a3d9da44f35e96f734ef2bb23d77f77056f3dfdf26b4fe373ba729d4914b1bc0fd95dc19374db6b4f25e9afafafaf773a577f5a790a25dd205ad2afadd3562691f493f4cdebdd6e7eceee603d897ea81de6b35c6fa24937492f3dc0bdf7b74d5f1e0ce9c738ceab8e9e8ef40849575dd249fa9493feb6a9573ae915494f32ca46d22f41d2fd5393741b24bd1baedefb424fcfbbbc93f46e487a5f48fa25483a17728acfe95cbd7f0a3dfd73f8c866677237672a3ea7dbe0eafd8439d161f257ef3d27950c4bfa3ce7a4ab5944e9a71d3ece49f039dd5036f3225de798f378baea7813e192aee355fafdf5b5f6ec78fb01d623516a7675d48996f4ed93ce8b8199f457e3bbaa40d26f0cba36e41a2addd823a2e8d4aeff167891feba308825bd36316c99d2b78de59b7c49bf2fd63a4ece9da4bffd246d5f9088d29f9349afec2fd425bdffeb0c95febe45cb8747d78e2dde92be7690fe307ee9d520e9f664fb92deb1c7922fe95dbf0532929ebff421fa424a27e902a5937481d249ba40e9245da074922e50ba8f6137aedec7269d8f6cae907492ee08494fc4969b33e7d0d3655ebd7f7556c5282ee4cee8731bb6999ef4eb8de9708a57ef1af1eebd5f67283d65d29b5054baf457037368d5fe4d08025307497fcc50bab940cb2696f4fa70771582bbdbfe29aeaa9720c77275f5781a3fcf4dba4154e977feb91a28dde5470f933ec8f944a5577925fd2ec8c190f48ccb7b13503a491798f492f24ed2dda0a7f781a4677c21474fbf0849ef034927e96e70f5cee7747f70f57e063dfd22f4f43ed0d3e9e96ed0d3e9e9027b7acf11f690a36c57f1eebdcb1e6533ad061a657352d897fcc6d3c720bdf70a256f2b51e8ab793824fdf8979dabfbfe0c92ee702c7fdd8d407af9787f7f7f6d79ea5b28bd5c75157c9b74a3236c16b6b3dcd4df1d7879eacf805526aac6e560f64f4f4f3dff2c6ed7655ce96fcb51ac2f3ecbedf9f21d4dfd676fe91d6b74cd662ed2ffb0b35ff567c894ccc6e158beef57cfab65afc76a1957fadbdcacd35217979e45a94f0b1d20bd2be9ea299df4e510e90e07f37dc0c12c9324fd22a517e95dbf066a6c49ff3e09e92e98496fa249af8249df22bd9f74922e30e95390be24e9f2a43748cf553a3dfd3294f75e907481e57d49799727bd417aaed2e9e997a1a7f782a4fb49ba95d30df85ccafb92f2ee453a3dfd0f7977e4ec41cfa8a72f49fad7a59b4b9474ad59d2b7bc57f5fe6067d57fc599eda0258e1c8ee550de0e780c5c7d2475d21d781820bd6bcb1ddb1e3c16beb0a295c3b1346bfb60f5b0ad3b044977a5717e7e49bb8d7a3b44fa60ebc2a567c2497a44909e03481798f48aa4cb935e231de981a1a7e700494d08021798f48af22e4f7a8d74a407869e9e03245d60d22bcabb3ce935d24de9e7205d424fd7a6468e4e7a6d3cf42f20e99a74632e8d29ddbec14e4a1a63024e2348bacb8a3b1d51d7d9eba76c75d4d1bf2425f5f2c789e387c7be1623dd0ce4d658386ad1615d474f7abd9aef34f292bedbed761f0e71be9324dd381d8de1fcd941ba99f41ff37332933e370e4fb0f46a98f48ea4e72d7d87f40ff84a3ad27b41d28343d2cf21e9efd0d3e9e9a1196379a7a70b94ced5bb40e9245da074922e503a4917289da40b944ed2054a5f8c6dc065c7bdf710494f38b45adb163b40ba4dfae2c58e99f4e30f8d78d29bd552c398b5d3982b9f30b47a1ef5851df3b4a69b2d75d08bcc6e51f72f06b2c7d39dc86906dc416fd8733dc60e201de9a121e95f84a47f80f2de03ca3be59df2ce859c77e8e95f849efe017a7a0fe8e9f4f4d050debf08e5fd0394f71e50de29efa1a1bc7f11cafb0728ef42cbfbc537da9c1e798db23555d3efd9341d495fd4bdc779a724ddbea38629f479f97cc6f2399af4bad67539d051de9bde1b874c467a59deda31851a2b891c6249af17bf06f0f3dbb76f3fcefe985f534b915e16e5da4ac71e24c674b76324e94dfdeb5b187e8a915eb86c2055ac8dcd688c89ad481f554f1fb0ff5051188b4a207d44e57d08455126935e51dee5496f908e747fc8b9901b04498f02d25b28ef3293fedb6351a7bc8f447a18e8e948ef800b394d08023ea787860b392f3dfdfd1b3ff976cafb387afaefbeff7109a4dba433e022b1bc6b9312b8f72e407ab2a457f5afdf3f43f05bd0248a2114c5da589f651f4dfadfff09c3dff697962cbd2cd6b7e753e49ebbd6a0199bf41ae9979c17eb8e6973a3975e21dd9274a40b2cef480f0ed25b28ef8920e93120e92d243d11243d0624bd85a42782a4c780a4b790f44490f41890f416929e08921e0392de42d21341d26340d22f24fd9f0e185a9d54d22b6311a185be09d48fdddefc2a3bd657163f73269d749d7a359fefce1ef3ddbeffae3c0e203d1be9d5429f848ff4c995778315d2e5495fc4925e499f0d9b91f4154997277d817479d2574897277d414f97277d45d2e5495f205d9ef415d2e5495fd0d3e5495f917479d217245da0f49d06032ed397be32c6d3e72ef7de1d86d3f5afe0de7b36d29ba581c34b1f8ee7eba71cf55f947a6bee60e4b0f7893f1870f1ced1d87a48af0e5b734fa398ce91ee9fa3be28dac1487a8708929e49790f273d6a3537a0bc7b07e9a3be7a0f24bd22e9f2a4d7489727bd42ba3ce935d2e549af902e4f7a8d7479d22ba4cb935e235d9ef40ae9f2a4d7489fbcf439494f27bdd61ea138eee6978756497a24e9cd6ab15a2dce1e55200e478d83fe1594f728d2ebe571ae4d7c3a568130561f493d7c2e766875a915ddf92e98749d7abb2e34d23a9722bd3e493fe758c562bb2ef3b22e29e9e71fa48e552422af22e44d080280d8a4ef909e0b534c7a45d2d34827e902cb3b4917289da40b944ed2054a27e902a5937481d249ba40e9245da074922e507a956ec0a5e18e5ccaa46bf359aa60d4ff72faefdc86ed2d7d7fbe98c7e170d80ff0b03ceacbc71cab406c0d1865eb29fd79afafe6b11b22bd5a195461a86f3bde569915d9f7f4e7bdd68be7c3a47f28b9ffc3bfeff717ba351690c9ccf918a4efbc486fde9e677fc250dfead53cf5ec28b9d2a3511bd2b303e9be41babca437489727bd423ad273849eee1b922eafbc37489727bd423ad273849eee1b92de17ca7b0c48ba6f48babca437481f95f4da0f0cb87c59fa626fee98d434cbd3d3eb5fcb6675eb87c4db364ca1a777b07f5e2e9f4f5b2779fc6bb95caecced740691bdf3d14a0fc0ea34dbc107b9cd9930407a0bd2334efa3e60d26540d25b902eb4a7cb80a4b7203d11f4f41890f416929e087a7a0c487a0b494f043d3d06249da4a7869e1e0392de424f4f043d3d0624bd85a427829e1e0392de42d213414f8f01496f21e989a0a7c780a4b790f444d0d36340d25b487a22e8e93120e92d243d11f4f41890f416929e087a7a0c487a0b494f043d3d0624bd85a427829e1e0392de42d213414f8f01496f21e989a0a7c780a4b790f444d0d36340d25b487a22e8e93120e92d243d11f4f41890f416929e087a7a0c487a0b494f043d3d0624bd85a427829e1e0392de42d213414f8f01496f21e989a0a7c7801aa42fe525fdbf9cf8199e4216c6a10000000049454e44ae42608268",
        "c0537e4a64d8b157882deea54b3213233bd2fd31894555744e45688c2b55498f0e"
      ],
      "is_coinbase": false,
      "sequence": 4294967293
    }
  ],
  "vout": [
    {
      "scriptpubkey": "512092d0c4be49414c8ce960e04bd67b94f223e9ce71227bcb9ae8584d3d87f33a1e",
      "scriptpubkey_asm": "OP_PUSHNUM_1 OP_PUSHBYTES_32 92d0c4be49414c8ce960e04bd67b94f223e9ce71227bcb9ae8584d3d87f33a1e",
      "scriptpubkey_type": "v1_p2tr",
      "scriptpubkey_address": "bc1pjtgvf0jfg9xge6tqup9av7u57g37nnn3yfauhxhgtpxnmpln8g0qek58d9",
      "value": 600
    }
  ],
  "size": 4464,
  "weight": 4746,
  "fee": 17805,
  "status": {
    "confirmed": true,
    "block_height": 834460,
    "block_hash": "00000000000000000000484a79b643b2524bbce82e5d8a442013fa5b8905ed98",
    "block_time": 1710307468
  },
  "hex": "02000000000101eef5221d1773470b7f5fadb5f6b60bb07bfc08c9341a6531f86ecedc4688a2bb0000000000fdffffff01580200000000000022512092d0c4be49414c8ce960e04bd67b94f223e9ce71227bcb9ae8584d3d87f33a1e03406a87df1b1974afa6dbbc9a45db2119846e898f715f3ee7f160900704c8f9e98267a89432fb59c74c503710582d4b426501674213d87214fdb09e81e1ed4eeaf8fda91020537e4a64d8b157882deea54b3213233bd2fd31894555744e45688c2b55498f0eac0063036f7264010109696d6167652f706e67004d080289504e470d0a1a0a0000000d49484452000001f4000001f40803000000fc082fb80000007e504c544545d24145d1415a86964d3d3dca935cd99c63578e5d5b8697ebad743d955bca9a6af2032990000f000000f2b175e4a76f57839a44c1494db461cba77646373a898f83558c5a519a743fa055559185b2845793704faba068d4955e6f55470d110d5a4541a1091683935eb04437719c623f725078be4ce34747df0a2b9c000eeab5d232000000097048597300000b1300000b1301009a9c1800000f8249444154789ced9d0d7bda3816469181d8613b3604f205096dd399ccf4ffffc17d48763d417290ece8cbbee740bbbbb349303e79ef3596469a95208e59ea0380f8205d20481708d205827481205d20481708d205827481205d20481708d205827481205d20481708d205827481205d20481708d205827481205d20481708d205827481205d20481708d205827481205d2017a51765f1f60449492fde9e202ce97f91f4e981748150de05c2859c401ca4c73b1888039fd305827481205d20481708d205827481205d20481708d205827481205d20481708d205827481642efd34496f0a94590d50672e7d2a33f48a3227b2975e4e82a2cc89cca51765797f337e1ef3b29ebff49bd9e8518f6ba4f794ae66a346cd3648ef9d74a40b2cef48f70cd2834379ef09490f01490f0e49ef09490f01490f0e49ef09490f01490f0e49ef09490f014d0802490f0e49ffc8dbd255d6e90793b823576635cd2265d29d9c179390be46fabfd6edbf17d348fadafa56638ebdceb29f21b119bf7495d9348b59fe332446ee7ce6f206942ce92e6764366ad44c59dfc1e9522fde891f83f4c9a348ba3c14d2e5a1902e0f85747928a4cb43215d1e0ae9f25048978742ba3c14d2e5a1902e0f85747928a4cb43215d1e0ae9f25048978742ba3c14d2e5a1902e0f85747928a4cb43215d1e0ae9f25048978742ba3c14d2e5a1902e0f85747928a4cb43215d1e6a2ad25d169429c6bfa08c37e92e67cbd72f46b87f3fbd28d776907e42cd54e170b2bc1583904997b0a04cbc55696e6ef24f7a51161ba7f70b33b7b3e06f899290d21d6ab7c2faccf52c6c4691f49b99b282f4d9fb5244d613351ee9d46e5f28a4cb43215d1e0ae9f25048978742ba3c14d2e5a1902e0f85747928a4cb43215d1e2aa874b7d90fd6117d6ec30696fe054f481f0961a5bb4d79b14ee320e9a1cbfb704f5d497fbc77c036a28ff4e0491feca953bacb41dc5bb61a437a68e9eb7b97ef7396eeb28312d2d34b577ea55b7e9c427a1ed2ed9e903e6214d2e5a1902e0f85747928a4cb43215d1e0ae9f25048978742ba3c14d2e5a1902e0f9589f48bc3f58cb28590fe9114d2cd891b480f887a5b94e0ec74a7487ac77792f4b0493f2341d2373ada92289477bf749c7215577ad7ff6fcedb6351029f7429b16bf29b74e39f91f4a0749df2c84d080249eff8f148cf0fa40b4491747928a4cb43215d1e0ae9f25048978742ba3c14d2e5a1902e0f857479a8b0032eefb761cf47d7cd01175685fe848127c6eb80cb00baefbdb3babbb705df3b4fbac70117b723ed3fe0c29afe9f3b9fa54efac601e305361dbbf2f43e4aa1a840dfd747fab50366e9ee7a51fd4b90fe69d253977707e70f86e68e43328e812d5b2e489f659f7453bad3219274afd267f94b874f40ba401449978742ba3c14d2e5a14622fd9a0b3979d2b97af708d205a248ba3c14d2e5a1902e0f3512e95cbd0b941eebea7de89c9250cc42bc6db7a155eb4b77fe8c314acf6d5c4e85f9a12e27530dfa8a7bd72dba1e0d52267d9313b34049f7f1d2a795801eef3573ce5b7495ebf5dbf64fed5f29a56f1eaef3e12194748737e922fd715dea0b40396ed155185f87f4f4d2ed2fedb0badf25e9faf7217d24491f2abdabde237d3c4977108af45e20ddffaf7cd76f2f1772ef90f4543ce4dfd329ef1392fe80f4443c203d02f4f4ff43d253f1404f27e97ea0a7ebe7838f6cef50dec75dde95f1ef7073f53eada4abcee911fa178de673ba39b5a3e7f91021bdfbace8e76e1c9fd35ddf5d22e9575e1e9e926ecc87509bcdcd87ff79b3b9315f2a47e9e6cc8e9c92feb2f5c18b27e9f6577a1a85f48e83ca4a7a5d575f7ed44f9ea457b586f60faaba71784f48b749af7cf0e4497a5355979ff5d6ee9ca447915e7b946e7925a4fb28ef4d0802488fd2d3af2727bdca2ae9f4f428d2ebaca467d9d349ba40e9797d6423e91720e96329eff47492de013ddd074f39259d9e4ed23b20e91ea8b34a3a3d9da44f35e96f734ef2bb23d77f77056f3dfdf26b4fe373ba729d4914b1bc0fd95dc19374db6b4f25e9afafafaf773a577f5a790a25dd205ad2afadd3562691f493f4cdebdd6e7eceee603d897ea81de6b35c6fa24937492f3dc0bdf7b74d5f1e0ce9c738ceab8e9e8ef40849575dd249fa9493feb6a9573ae915494f32ca46d22f41d2fd5393741b24bd1baedefb424fcfbbbc93f46e487a5f48fa25483a17728acfe95cbd7f0a3dfd73f8c866677237672a3ea7dbe0eafd8439d161f257ef3d27950c4bfa3ce7a4ab5944e9a71d3ece49f039dd5036f3225de798f378baea7813e192aee355fafdf5b5f6ec78fb01d623516a7675d48996f4ed93ce8b8199f457e3bbaa40d26f0cba36e41a2addd823a2e8d4aeff167891feba308825bd36316c99d2b78de59b7c49bf2fd63a4ece9da4bffd246d5f9088d29f9349afec2fd425bdffeb0c95febe45cb8747d78e2dde92be7690fe307ee9d520e9f664fb92deb1c7922fe95dbf0532929ebff421fa424a27e902a5937481d249ba40e9245da074922e50ba8f6137aedec7269d8f6cae907492ee08494fc4969b33e7d0d3655ebd7f7556c5282ee4cee8731bb6999ef4eb8de9708a57ef1af1eebd5f67283d65d29b5054baf457037368d5fe4d08025307497fcc50bab940cb2696f4fa70771582bbdbfe29aeaa9720c77275f5781a3fcf4dba4154e977feb91a28dde5470f933ec8f944a5577925fd2ec8c190f48ccb7b13503a491798f492f24ed2dda0a7f781a4677c21474fbf0849ef034927e96e70f5cee7747f70f57e063dfd22f4f43ed0d3e9e96ed0d3e9e9027b7acf11f690a36c57f1eebdcb1e6533ad061a657352d897fcc6d3c720bdf70a256f2b51e8ab793824fdf8979dabfbfe0c92ee702c7fdd8d407af9787f7f7f6d79ea5b28bd5c75157c9b74a3236c16b6b3dcd4df1d7879eacf805526aac6e560f64f4f4f3dff2c6ed7655ce96fcb51ac2f3ecbedf9f21d4dfd676fe91d6b74cd662ed2ffb0b35ff567c894ccc6e158beef57cfab65afc76a1957fadbdcacd35217979e45a94f0b1d20bd2be9ea299df4e510e90e07f37dc0c12c9324fd22a517e95dbf066a6c49ff3e09e92e98496fa249af8249df22bd9f74922e30e95390be24e9f2a43748cf553a3dfd3294f75e907481e57d49799727bd417aaed2e9e997a1a7f782a4fb49ba95d30df85ccafb92f2ee453a3dfd0f7977e4ec41cfa8a72f49fad7a59b4b9474ad59d2b7bc57f5fe6067d57fc599eda0258e1c8ee550de0e780c5c7d2475d21d781820bd6bcb1ddb1e3c16beb0a295c3b1346bfb60f5b0ad3b044977a5717e7e49bb8d7a3b44fa60ebc2a567c2497a44909e03481798f48aa4cb935e231de981a1a7e700494d08021798f48af22e4f7a8d74a407869e9e03245d60d22bcabb3ce935d24de9e7205d424fd7a6468e4e7a6d3cf42f20e99a74632e8d29ddbec14e4a1a63024e2348bacb8a3b1d51d7d9eba76c75d4d1bf2425f5f2c789e387c7be1623dd0ce4d658386ad1615d474f7abd9aef34f292bedbed761f0e71be9324dd381d8de1fcd941ba99f41ff37332933e370e4fb0f46a98f48ea4e72d7d87f40ff84a3ad27b41d28343d2cf21e9efd0d3e9e9a1196379a7a70b94ced5bb40e9245da074922e503a4917289da40b944ed2054a5f8c6dc065c7bdf710494f38b45adb163b40ba4dfae2c58e99f4e30f8d78d29bd552c398b5d3982b9f30b47a1ef5851df3b4a69b2d75d08bcc6e51f72f06b2c7d39dc86906dc416fd8733dc60e201de9a121e95f84a47f80f2de03ca3be59df2ce859c77e8e95f849efe017a7a0fe8e9f4f4d050debf08e5fd0394f71e50de29efa1a1bc7f11cafb0728ef42cbfbc537da9c1e798db23555d3efd9341d495fd4bdc779a724ddbea38629f479f97cc6f2399af4bad67539d051de9bde1b874c467a59deda31851a2b891c6249af17bf06f0f3dbb76f3fcefe985f534b915e16e5da4ac71e24c674b76324e94dfdeb5b187e8a915eb86c2055ac8dcd688c89ad481f554f1fb0ff5051188b4a207d44e57d08455126935e51dee5496f908e747fc8b9901b04498f02d25b28ef3293fedb6351a7bc8f447a18e8e948ef800b394d08023ea787860b392f3dfdfd1b3ff976cafb387afaefbeff7109a4dba433e022b1bc6b9312b8f72e407ab2a457f5afdf3f43f05bd0248a2114c5da589f651f4dfadfff09c3dff697962cbd2cd6b7e753e49ebbd6a0199bf41ae9979c17eb8e6973a3975e21dd9274a40b2cef480f0ed25b28ef8920e93120e92d243d11243d0624bd85a42782a4c780a4b790f44490f41890f416929e08921e0392de42d21341d26340d22f24fd9f0e185a9d54d22b6311a185be09d48fdddefc2a3bd657163f73269d749d7a359fefce1ef3ddbeffae3c0e203d1be9d5429f848ff4c995778315d2e5495fc4925e499f0d9b91f4154997277d817479d2574897277d414f97277d45d2e5495f205d9ef415d2e5495fd0d3e5495f917479d217245da0f49d06032ed397be32c6d3e72ef7de1d86d3f5afe0de7b36d29ba581c34b1f8ee7eba71cf55f947a6bee60e4b0f7893f1870f1ced1d87a48af0e5b734fa398ce91ee9fa3be28dac1487a8708929e49790f273d6a3537a0bc7b07e9a3be7a0f24bd22e9f2a4d7489727bd42ba3ce935d2e549af902e4f7a8d7479d22ba4cb935e235d9ef40ae9f2a4d7489fbcf439494f27bdd61ea138eee6978756497a24e9cd6ab15a2dce1e55200e478d83fe1594f728d2ebe571ae4d7c3a568130561f493d7c2e766875a915ddf92e98749d7abb2e34d23a9722bd3e493fe758c562bb2ef3b22e29e9e71fa48e552422af22e44d080280d8a4ef909e0b534c7a45d2d34827e902cb3b4917289da40b944ed2054a27e902a5937481d249ba40e9245da074922e507a956ec0a5e18e5ccaa46bf359aa60d4ff72faefdc86ed2d7d7fbe98c7e170d80ff0b03ceacbc71cab406c0d1865eb29fd79afafe6b11b22bd5a195461a86f3bde569915d9f7f4e7bdd68be7c3a47f28b9ffc3bfeff717ba351690c9ccf918a4efbc486fde9e677fc250dfead53cf5ec28b9d2a3511bd2b303e9be41babca437489727bd423ad273849eee1b922eafbc37489727bd423ad273849eee1b92de17ca7b0c48ba6f48babca437481f95f4da0f0cb87c59fa626fee98d434cbd3d3eb5fcb6675eb87c4db364ca1a777b07f5e2e9f4f5b2779fc6bb95caecced740691bdf3d14a0fc0ea34dbc107b9cd9930407a0bd2334efa3e60d26540d25b902eb4a7cb80a4b7203d11f4f41890f416929e087a7a0c487a0b494f043d3d06249da4a7869e1e0392de424f4f043d3d0624bd85a427829e1e0392de42d213414f8f01496f21e989a0a7c780a4b790f444d0d36340d25b487a22e8e93120e92d243d11f4f41890f416929e087a7a0c487a0b494f043d3d0624bd85a427829e1e0392de42d213414f8f01496f21e989a0a7c780a4b790f444d0d36340d25b487a22e8e93120e92d243d11f4f41890f416929e087a7a0c487a0b494f043d3d0624bd85a427829e1e0392de42d213414f8f01496f21e989a0a7c7801aa42fe525fdbf9cf8199e4216c6a10000000049454e44ae4260826821c0537e4a64d8b157882deea54b3213233bd2fd31894555744e45688c2b55498f0e00000000"
}