{
  "txid": "96339705465f96c1bb9fd4d0794541d800dc4e09899ac361f3340243eec262a4",
  "version": 2,
  "locktime": 0,
  "vin": [
    {
      "txid": "993f6d94f6d8c38c4a2c2b803f9655b05a5c7dc82c33682b6f623ce3cbd74d55",
      "vout": 0,
      "prevout": {
        "scriptpubkey": "51202470592fc9e74b3ccb21851e928c2bd8ab6b71975459a451a931c1e6e74f74fe",
        "scriptpubkey_asm": "OP_PUSHNUM_1 OP_PUSHBYTES_32 2470592fc9e74b3ccb21851e928c2bd8ab6b71975459a451a931c1e6e74f74fe",
        "scriptpubkey_type": "v1_p2tr",
        "scriptpubkey_address": "bc1py3c9jt7fua9nejeps50f9rptmz4kkuvh23v6g5dfx8q7de60wnlqp7aa03",
        "value": 20649
      },
      "scriptsig": "",
      "scriptsig_asm": "",
      "witness": [
        "6296b6545571e445b62a9a2f6b19d8bd7644cac68aca1e77f36ac70c4ce769ccdfec5e0b3e291b3fcb10aa5b6f0413b7f51eefd7007b3ea7f1bda7bc2d599695",
        "20f2d00e1cce0b839d2e197679cac7a15152ec244338032c7767f72c1332d49a65ac0063036f7264010109696d6167652f706e67004d080289504e470d0a1a0a0000000d4948445200000080000000800806000000c33e61cb000000097048597300000b1300000b1301009a9c18000007af49444154789ced9dbf6f1d4510c7c7e62c2b7e89f390fc50ac48a48206289022a5a20b0dca1f40454743970ad150d051414f978a7f001ad22024a448a0144e05141861255222f947625b960f8762e7bbd1cddd7aefbd777eb7b7339fe6deddbb5fc5cd77677766769788e825196a59eefb058c7eb10f4039f60128c73e00e5d807a01cfb0094631f8072ec03508e7d00ca29fa7e81beb9f2c66d22221a8ddfaa1c3fdcfb9388889e1f9ef0815f16fa5e8bc21440394ba42d1630fa808888ae5d7ff7dcd3c61b6f1311d1ce5f3f1051be4a600aa01c3d0ac0967f65b4ea76459b0fd0f6dfbafd65e5f883fb5f11517e4a600aa01c35bd8090e5d7bc7de6dfbf7f2722a2bd677f2ce0edfac3144039f92b00b7fd92273b8f2afbb25700cb8742e48a298072f2ef05041480d66ebaede6676ebbcf96bebbd57cfeea13b77dfa4d77ef9600a600cac9df0760d00b78fef23d77e0e49adbc62c1fe0fccc3005504efe3e8064fcf1f9ff9fbdefb6cb0f9bffdffbbedbf7e9195300e5a8f1016a484bc7feebec23ec52f3ff640a6064845e05608abd8f8888a8bcb1e10e5ce558c1d14f6ebbf689dbc67a0903c5144039fa146065937fb891bd729d77771fbbedfebdeaf9b07c8c046686298072f429c0294d08025bba570246f6fbe1f5676af9c0144039fa1400ec3d70dbd19b6eebfbf90c2c1f8a91d908203005504efeb180c9ddea3e2c1a1cfed3ee3ea7bf76f33e89610aa09c8b530064e2ac5caf1ebfa8b6545a3a533c756d7bb92e2c5f7afd212518dfaaee5b4690911317af00e0b53bd57d6981b32a032c1f193becbd7bcbc7183f536c3fabec97137e0fe91b008c1788fbd718a832980228e7e27b01a1acdc90229ceeb86dacf68e2d1f960e7c5b8fb8fe555103c839805002af006ce1c5c166f53e5251f838cef3cfc57d06a604a600ca59fc3840a87700620a10b07c202d34e603f8ebd882bda58bfdd873e47d86a204a600cae96f2410d9b9b07828c2d2d76e5b7cebb6b0a496960f5f02993ed312b37cf93ca900f23ea92b81298072fa8b06c2f237be70db83778888a8d8fd998888ca099fb7ce8a502ddff748cb9f9bb61540abd58c22a904af7c091ea74854094c0194d39b0214879f1211510927fd3f3712584eaa236d352f3b36a62fce0bb5d1b3127abecf2d9440511255025300e5f4a600dedbde86b7cdfdf64975e42d082c1f3104f42ace9a4706e755829ae503ff7c6a7cfeab91453e909812980228a7bf5e005b4029630527771a4e6ef0f665f4d047ed9a1f17b2e09a32f8689f8809c4c0fb4cdc7552c1bc124cd2ca323605504e3a398132ae2f0959bebc5ee6fd4f3bb3071420765d6ccea058b4329139874c0194934e5d8018f3afff4d08023f65c610946039500934ab32b4053e8e5082d47c015300e5a4a30060de3611960e0540bf5cf60e42168deb56c57128067c11a928112e6a64725e4c0194939e027485aceead2942a8b7f1b8f9ff192d5ffa36e50dce55a40f8988a8208e1a8e7f7487175c83680aa09c7c1440660ef9b6165e37ef9eb6cc1b9051c6692d5f72f49b7b2f51afe07316f7f93c8c8c2e6845125300e5e4a300b19144109b070084c60d6a75029cb174f0f9f9efc5f72f47dfb9fda39bd5f39021b5604c0194938f02780b76965acf15e4285dad1f8ea89fa8fd139542a01c3fac9e0f908f20bd78199b90e314a0a755c84c0194938f028090f78e36585a6e84603e801c493c0ddc006dbb6ce3135977d0144039e9e4037445289a189a1f70daf3e4ff039f45cc144039f9f90092d0cc1f5dddb76cae361e0aa600cac94f013003e8ea5af578c163ee6d7d0189541258fe8bfbd3dd27314c0194936f2f60d6194101e6100e5d87ffa1248954fa4c8b298072f2f301808cfa8d02e7c9febb5c5710962eef7b86036964f7ce8a298072f2538050140fd5b9b1994464b53138abe6f5d7ee9b58d56f5b4c0194934f2f4064040567ef8a55194ba004a2d63038734922357f6d3105504e7e3e400c6fa12da377beeeff6ee57a393b586a357f6d3105508e3e0598151943104a30544c0194939f0204da68efa5cf9a1f20c70784120c155300e5e4a70040b6d16dfbfd11e42ce44de5017e56703090fe3f3005504e3e0a105ad5cbd7fecd797f5ff9e336ade70f4c1c5300e50c5f01b83ab73e1f4047eb078095e6d5c43c036bfb8129807286ab007efebdc87a025d57eed46a0287ed0b98022867b80ae02d4fac0e2e67fce8caf233ab0904a600ca19ae0230e5e57bee07b2748f79db55c50efaffa8041a782da0c4144039c3cb0994f5ffa1d9bde6ed97cba89f64da7509121d373005504eff3e40687ebf509cbd6669811840d7d4e60e0ecc29dcf6fa44ea084c0194d39f0f80193663208e1fa8cc91f859b7c14af32a5eb5eb103b08b4edc13a03f93c599318a3e73a025300e52cde07f06d7ecbf3d1efbed49c855b5bb59b3376bc451f6fb9fdcb5be73fe738709c570e09ae128ee7c991c869d724ea095300e5f4df0b08e1db7ede674ba6a2da46872cd35be025717d5b6a237fac24639e6b48f824b5358207a204a600ca495701e04dcb4f744544fbb83f1eacc98317ff42ace089953a2214dbd5b17fd9d6c79e1b24b44ec182310550cee2c7014263ec73b6956dd7e36b6bf9b5fb6f9f1f058c6609872cbee77c025300e5f4371228e7e09104a26cd191c0da4a218991580691298072d2c9078829c2b4246669a9620aa09c7414c0e8055300e5d807a01cfb0094631f8072ec0350ceff91a4c65d8534215e0000000049454e44ae426082680063036f726401011e6170706c69636174696f6e2f6a736f6e3b636861727365743d7574662d38004d5f017b2270223a22766f7264222c2276223a312c227479223a22696e7363222c22636f6c223a2232386636653261633234346563653261393834356631626434626563356665626639616530393266393632653865356434626535333238343266623466616634222c22696964223a224f7264692041726d79204d656e222c227075626c223a2231455337623370636a527a4667796969714c7278484b546e43686535364c4a485937222c226e6f6e6365223a33392c226d696e746572223a22626331706e6d65776d7a6a61727772647a35657a7636346a727a3438713639777370617067376477717833757261346c68636b6638616e71723871737a71222c22736967223a22484c434c41375262462b6e6c6a552f354b62386b54724b675a51792b3269644e62635434532b5562387a564543394b622f57356a614c433772573473786433706c4632547a774e506550796c617431496d6d42637a30493d227d68",
        "c0f2d00e1cce0b839d2e197679cac7a15152ec244338032c7767f72c1332d49a65675a92934efa5e4869b2432a3e00abfc6819367af43949c2edc693b32d23ac05"
      ],
      "is_coinbase": false,
      "sequence": 4294967293
    }
  ],
  "vout": [
    {
      "scriptpubkey": "51209ef2ed8a5d1b86d1532266ab218aa7068ae807a1479ae01a3c1f6bfbe2c93f66",
      "scriptpubkey_asm": "OP_PUSHNUM_1 OP_PUSHBYTES_32 9ef2ed8a5d1b86d1532266ab218aa7068ae807a1479ae01a3c1f6bfbe2c93f66",
      "scriptpubkey_type": "v1_p2tr",
      "scriptpubkey_address": "bc1pnmewmzjarwrdz5ezv64jrz48q69wspapg7dwqx3ura4lhckf8anqr8qszq",
      "value": 1000
    },
    {
      "scriptpubkey": "51205cb904dc38be4352e47edf3b611d3868854fcab832b9d82f9075282b8cac5ab7",
      "scriptpubkey_asm": "OP_PUSHNUM_1 OP_PUSHBYTES_32 5cb904dc38be4352e47edf3b611d3868854fcab832b9d82f9075282b8cac5ab7",
      "scriptpubkey_type": "v1_p2tr",
      "scriptpubkey_address": "bc1ptjusfhpchep49er7muakz8fcdzz5lj4cx2uastusw55zhr9vt2msk5y7x5",
      "value": 7200
    },
    {
      "scriptpubkey": "51200705a5767db892e98125775049b1a13dd9ecdc8aea0df413cabbee683e871012",
      "scriptpubkey_asm": "OP_PUSHNUM_1 OP_PUSHBYTES_32 0705a5767db892e98125775049b1a13dd9ecdc8aea0df413cabbee683e871012",
      "scriptpubkey_type": "v1_p2tr",
      "scriptpubkey_address": "bc1pquz62anahzfwnqf9wagynvdp8hv7ehy2agxlgy72h0hxs058zqfqk8ksyq",
      "value": 3198
    }
  ],
  "size": 2823,
  "weight": 3363,
  "fee": 9251,
  "status": {
    "confirmed": true,
    "block_height": 834464,
    "block_hash": "0000000000000000000177a0869a911a2b65c9bdcd5a8bcb02b68f305bee848e",
    "block_time": 1710308296
  },
  "hex": "02000000000101554dd7cbe33c626f2b68332cc87d5c5ab055963f802b2c4a8cc3d8f6946d3f990000000000fdffffff03e8030000000000002251209ef2ed8a5d1b86d1532266ab218aa7068ae807a1479ae01a3c1f6bfbe2c93f66201c0000000000002251205cb904dc38be4352e47edf3b611d3868854fcab832b9d82f9075282b8cac5ab77e0c0000000000002251200705a5767db892e98125775049b1a13dd9ecdc8aea0df413cabbee683e87101203406296b6545571e445b62a9a2f6b19d8bd7644cac68aca1e77f36ac70c4ce769ccdfec5e0b3e291b3fcb10aa5b6f0413b7f51eefd7007b3ea7f1bda7bc2d599695fdca0920f2d00e1cce0b839d2e197679cac7a15152ec244338032c7767f72c1332d49a65ac0063036f7264010109696d6167652f706e67004d080289504e470d0a1a0a0000000d4948445200000080000000800806000000c33e61cb000000097048597300000b1300000b1301009a9c18000007af49444154789ced9dbf6f1d4510c7c7e62c2b7e89f390fc50ac48a48206289022a5a20b0dca1f40454743970ad150d051414f978a7f001ad22024a448a0144e05141861255222f947625b960f8762e7bbd1cddd7aefbd777eb7b7339fe6deddbb5fc5cd77677766769788e825196a59eefb058c7eb10f4039f60128c73e00e5d807a01cfb0094631f8072ec03508e7d00ca29fa7e81beb9f2c66d22221a8ddfaa1c3fdcfb9388889e1f9ef0815f16fa5e8bc21440394ba42d1630fa808888ae5d7ff7dcd3c61b6f1311d1ce5f3f1051be4a600aa01c3d0ac0967f65b4ea76459b0fd0f6dfbafd65e5f883fb5f11517e4a600aa01c35bd8090e5d7bc7de6dfbf7f2722a2bd677f2ce0edfac3144039f92b00b7fd92273b8f2afbb25700cb8742e48a298072f2ef05041480d66ebaede6676ebbcf96bebbd57cfeea13b77dfa4d77ef9600a600cac9df0760d00b78fef23d77e0e49adbc62c1fe0fccc3005504efe3e8064fcf1f9ff9fbdefb6cb0f9bffdffbbedbf7e9195300e5a8f1016a484bc7feebec23ec52f3ff640a6064845e05608abd8f8888a8bcb1e10e5ce558c1d14f6ebbf689dbc67a0903c5144039fa146065937fb891bd729d77771fbbedfebdeaf9b07c8c046686298072f429c0294d08025bba570246f6fbe1f5676af9c0144039fa1400ec3d70dbd19b6eebfbf90c2c1f8a91d908203005504efeb180c9ddea3e2c1a1cfed3ee3ea7bf76f33e89610aa09c8b530064e2ac5caf1ebfa8b6545a3a533c756d7bb92e2c5f7afd212518dfaaee5b4690911317af00e0b53bd57d6981b32a032c1f193becbd7bcbc7183f536c3fabec97137e0fe91b008c1788fbd718a832980228e7e27b01a1acdc90229ceeb86dacf68e2d1f960e7c5b8fb8fe555103c839805002af006ce1c5c166f53e5251f838cef3cfc57d06a604a600ca59fc3840a87700620a10b07c202d34e603f8ebd882bda58bfdd873e47d86a204a600cae96f2410d9b9b07828c2d2d76e5b7cebb6b0a496960f5f02993ed312b37cf93ca900f23ea92b81298072fa8b06c2f237be70db83778888a8d8fd998888ca099fb7ce8a502ddff748cb9f9bb61540abd58c22a904af7c091ea74854094c0194d39b0214879f1211510927fd3f3712584eaa236d352f3b36a62fce0bb5d1b3127abecf2d9440511255025300e5f4a600dedbde86b7cdfdf64975e42d082c1f3104f42ace9a4706e755829ae503ff7c6a7cfeab91453e909812980228a7bf5e005b4029630527771a4e6ef0f665f4d047ed9a1f17b2e09a32f8689f8809c4c0fb4cdc7552c1bc124cd2ca323605504e3a398132ae2f0959bebc5ee6fd4f3bb3071420765d6ccea058b4329139874c0194934e5d8018f3afff4d08023f65c610946039500934ab32b4053e8e5082d47c015300e5a4a30060de3611960e0540bf5cf60e42168deb56c57128067c11a928112e6a64725e4c0194939e027485aceead2942a8b7f1b8f9ff192d5ffa36e50dce55a40f8988a8208e1a8e7f7487175c83680aa09c7c1440660ef9b6165e37ef9eb6cc1b9051c6692d5f72f49b7b2f51afe07316f7f93c8c8c2e6845125300e5e4a300b19144109b070084c60d6a75029cb174f0f9f9efc5f72f47dfb9fda39bd5f39021b5604c0194938f02780b76965acf15e4285dad1f8ea89fa8fd139542a01c3fac9e0f908f20bd78199b90e314a0a755c84c0194938f028090f78e36585a6e84603e801c493c0ddc006dbb6ce3135977d0144039e9e4037445289a189a1f70daf3e4ff039f45cc144039f9f90092d0cc1f5dddb76cae361e0aa600cac94f013003e8ea5af578c163ee6d7d0189541258fe8bfbd3dd27314c0194936f2f60d6194101e6100e5d87ffa1248954fa4c8b298072f2f301808cfa8d02e7c9febb5c5710962eef7b86036964f7ce8a298072f2538050140fd5b9b1994464b53138abe6f5d7ee9b58d56f5b4c0194934f2f4064040567ef8a55194ba004a2d63038734922357f6d3105504e7e3e400c6fa12da377beeeff6ee57a393b586a357f6d3105508e3e0598151943104a30544c0194939f0204da68efa5cf9a1f20c70784120c155300e5e4a70040b6d16dfbfd11e42ce44de5017e56703090fe3f3005504e3e0a105ad5cbd7fecd797f5ff9e336ade70f4c1c5300e50c5f01b83ab73e1f4047eb078095e6d5c43c036bfb8129807286ab007efebdc87a025d57eed46a0287ed0b98022867b80ae02d4fac0e2e67fce8caf233ab0904a600ca19ae0230e5e57bee07b2748f79db55c50efaffa8041a782da0c4144039c3cb0994f5ffa1d9bde6ed97cba89f64da7509121d373005504eff3e40687ebf509cbd6669811840d7d4e60e0ecc29dcf6fa44ea084c0194d39f0f80193663208e1fa8cc91f859b7c14af32a5eb5eb103b08b4edc13a03f93c599318a3e73a025300e52cde07f06d7ecbf3d1efbed49c855b5bb59b3376bc451f6fb9fdcb5be73fe738709c570e09ae128ee7c991c869d724ea095300e5f4df0b08e1db7ede674ba6a2da46872cd35be025717d5b6a237fac24639e6b48f824b5358207a204a600ca495701e04dcb4f744544fbb83f1eacc98317ff42ace089953a2214dbd5b17fd9d6c79e1b24b44ec182310550cee2c7014263ec73b6956dd7e36b6bf9b5fb6f9f1f058c6609872cbee77c025300e5f4371228e7e09104a26cd191c0da4a218991580691298072d2c9078829c2b4246669a9620aa09c7414c0e8055300e5d807a01cfb0094631f8072ec0350ceff91a4c65d8534215e0000000049454e44ae426082680063036f726401011e6170706c69636174696f6e2f6a736f6e3b636861727365743d7574662d38004d5f017b2270223a22766f7264222c2276223a312c227479223a22696e7363222c22636f6c223a2232386636653261633234346563653261393834356631626434626563356665626639616530393266393632653865356434626535333238343266623466616634222c22696964223a224f7264692041726d79204d656e222c227075626c223a2231455337623370636a527a4667796969714c7278484b546e43686535364c4a485937222c226e6f6e6365223a33392c226d696e746572223a22626331706e6d65776d7a6a61727772647a35657a7636346a727a3438713639777370617067376477717833757261346c68636b6638616e71723871737a71222c22736967223a22484c434c41375262462b6e6c6a552f354b62386b54724b675a51792b3269644e62635434532b5562387a564543394b622f57356a614c433772573473786433706c4632547a774e506550796c617431496d6d42637a30493d227d6841c0f2d00e1cce0b839d2e197679cac7a15152ec244338032c7767f72c1332d49a65675a92934efa5e4869b2432a3e00abfc6819367af43949c2edc693b32d23ac0500000000"
}