{
  "txid": "963f6c43faea005d4c28f961ef4abe6b739934c45b6a2a6fce1f75bc64c767de",
  "version": 2,
  "locktime": 0,
  "vin": [
    {
      "txid": "acc3ba00869acb582a3f2904ce3a11dd3779350ce234063fc7d0959246213364",
      "vout": 235,
      "prevout": {
        "scriptpubkey": "5120108385bd07c72698d2320b61722678a7d870088f9c150afae8a127c3073af0b1",
        "scriptpubkey_asm": "OP_PUSHNUM_1 OP_PUSHBYTES_32 108385bd07c72698d2320b61722678a7d870088f9c150afae8a127c3073af0b1",
        "scriptpubkey_type": "v1_p2tr",
        "scriptpubkey_address": "bc1pzzpct0g8cunf353jpdshyfnc5lv8qzy0ns2s47hg5ynuxpe67zcs0z29m5",
        "value": 1806
      },
      "scriptsig": "",
      "scriptsig_asm": "",
      "witness": [
        "aabf987cdabe95ef5989902b4332c68293ef08c9a1870ab1620f44dd2d99a74ce290bf2d01ad0b243d89c4cd833dcc4ec83764b4f5a26c737ba9f844c4695ef5",
        "2042ddc28630e16017337139a8c070c8b35abe05aed3b52258c3682a196f12512bac0063036f726401010a746578742f706c61696e00357b2270223a226272632d3230222c226f70223a226d696e74222c227469636b223a22646f6765222c22616d74223a2234323030227d68",
        "c042ddc28630e16017337139a8c070c8b35abe05aed3b52258c3682a196f12512b"
      ],
      "is_coinbase": false,
      "sequence": 4261412863
    }
  ],
  "vout": [
    {
      "scriptpubkey": "00147a665de7a370f4c9b372ab1fae587500a5bcbdb4",
      "scriptpubkey_asm": "OP_0 OP_PUSHBYTES_20 7a665de7a370f4c9b372ab1fae587500a5bcbdb4",
      "scriptpubkey_type": "v0_p2wpkh",
      "scriptpubkey_address": "bc1q0fn9mearwr6vnvmj4v06ukr4qzjme0d565dzcx",
      "value": 294
    }
  ],
  "size": 294,
  "weight": 540,
  "fee": 1512,
  "status": {
    "confirmed": true,
    "block_height": 834460,
    "block_hash": "00000000000000000000484a79b643b2524bbce82e5d8a442013fa5b8905ed98",
    "block_time": 1710307468
  },
  "hex": "02000000000101643321469295d0c73f0634e20c357937dd113ace04293f2a58cb9a8600bac3aceb00000000fffffffd0126010000000000001600147a665de7a370f4c9b372ab1fae587500a5bcbdb40340aabf987cdabe95ef5989902b4332c68293ef08c9a1870ab1620f44dd2d99a74ce290bf2d01ad0b243d89c4cd833dcc4ec83764b4f5a26c737ba9f844c4695ef56d2042ddc28630e16017337139a8c070c8b35abe05aed3b52258c3682a196f12512bac0063036f726401010a746578742f706c61696e00357b2270223a226272632d3230222c226f70223a226d696e74222c227469636b223a22646f6765222c22616d74223a2234323030227d6821c042ddc28630e16017337139a8c070c8b35abe05aed3b52258c3682a196f12512b00000000"
}