{
  "txid": "9677a00f7ec11f94da6e891bcda249b7cdfa9fbaeaef2122ada7d54bc695991c",
  "version": 1,
  "locktime": 0,
  "vin": [
    {
      "txid": "be9b17d5645b557d85f225e77ba71d2b8466e7d876b1209e24894a7835329b27",
      "vout": 1,
      "prevout": {
        "scriptpubkey": "0014ec437953979f3bcb687a562dcd0f49f947d700d5",
        "scriptpubkey_asm": "OP_0 OP_PUSHBYTES_20 ec437953979f3bcb687a562dcd0f49f947d700d5",
        "scriptpubkey_type": "v0_p2wpkh",
        "scriptpubkey_address": "bc1qa3phj5uhnuauk6r62cku6r6fl9rawqx4n6d690",
        "value": 19700002615
      },
      "scriptsig": "",
      "scriptsig_asm": "",
      "witness": [
        "304402203f866de52e36d485cfd05415e9ad79764da616f94ceba18601137f6c59a14d6502206eb0f2c95611ada420b50220237602bcd2d44d35092d23650931d942934a1d6501",
        "0386d7ac9fe71487e5e8c44bf0d39be679d9074f04d0a28d968e164bd9539161ef"
      ],
      "is_coinbase": false,
      "sequence": 4294967295
    }
  ],
  "vout": [
    {
      "scriptpubkey": "a91434ee90b7ddf1ffa80224797b110f8f05c74dde1387",
      "scriptpubkey_asm": "OP_HASH160 OP_PUSHBYTES_20 34ee90b7ddf1ffa80224797b110f8f05c74dde13 OP_EQUAL",
      "scriptpubkey_type": "p2sh",
      "scriptpubkey_address": "36WtrKv9j4gWeMfdjZX2R8VCman8C2xoVD",
      "value": 300000000
    },
    {
      "scriptpubkey": "0014ec437953979f3bcb687a562dcd0f49f947d700d5",
      "scriptpubkey_asm": "OP_0 OP_PUSHBYTES_20 ec437953979f3bcb687a562dcd0f49f947d700d5",
      "scriptpubkey_type": "v0_p2wpkh",
      "scriptpubkey_address": "bc1qa3phj5uhnuauk6r62cku6r6fl9rawqx4n6d690",
      "value": 19400000229
    }
  ],
  "size": 223,
  "weight": 565,
  "fee": 2386,
  "status": {
    "confirmed": true,
    "block_height": 834638,
    "block_hash": "000000000000000000025f742c626208ac87e0b7d15054abb4a19ca2d735a54e",
    "block_time": 1710405325
  },
  "hex": "01000000000101279b3235784a89249e20b176d8e766842b1da77be725f2857d555b64d5179bbe0100000000ffffffff0200a3e1110000000017a91434ee90b7ddf1ffa80224797b110f8f05c74dde1387e582548404000000160014ec437953979f3bcb687a562dcd0f49f947d700d50247304402203f866de52e36d485cfd05415e9ad79764da616f94ceba18601137f6c59a14d6502206eb0f2c95611ada420b50220237602bcd2d44d35092d23650931d942934a1d6501210386d7ac9fe71487e5e8c44bf0d39be679d9074f04d0a28d968e164bd9539161ef00000000"
}