{
  "txid": "9679c2b2e05b13e317709a23bfd5429762b3ef92f6d3d84217444dd1a99b8217",
  "version": 2,
  "locktime": 0,
  "vin": [
    {
      "txid": "eac91eefc770a163ff1f87cb7c8acd1a8dcfdb8fbbf8f4833e7848c2996779be",
      "vout": 1,
      "prevout": {
        "scriptpubkey": "51200a0b41529ef91a0ff6196143b78babe92cd1c5f7cb116f37b0d37cfb908d58df",
        "scriptpubkey_asm": "OP_PUSHNUM_1 OP_PUSHBYTES_32 0a0b41529ef91a0ff6196143b78babe92cd1c5f7cb116f37b0d37cfb908d58df",
        "scriptpubkey_type": "v1_p2tr",
        "scriptpubkey_address": "bc1ppg95z557lydqlasev9pm0zataykdr30hevgk7das6d70hyydtr0skjamtx",
        "value": 1352477
      },
      "scriptsig": "",
      "scriptsig_asm": "",
      "witness": [
        "1a1bd3583b1f22f78b7dfaf6ec4e08a9bab74a651c7488c728c0fa91cea6f678f84a20927e04f28d52e3ca2e224d956a5073eaab71c9362c1f0fb3ec0ae11faa"
      ],
      "is_coinbase": false,
      "sequence": 4294967293
    }
  ],
  "vout": [
    {
      "scriptpubkey": "512043e7ee6a913c3ec33ef2b6e4272f6c0a10a92a197f6ec978bdf97959394adf71",
      "scriptpubkey_asm": "OP_PUSHNUM_1 OP_PUSHBYTES_32 43e7ee6a913c3ec33ef2b6e4272f6c0a10a92a197f6ec978bdf97959394adf71",
      "scriptpubkey_type": "v1_p2tr",
      "scriptpubkey_address": "bc1pg0n7u6538slvx0hjkmjzwtmvpgg2j2se0ahvj79al9u4jw22macs9tauy5",
      "value": 1340681
    },
    {
      "scriptpubkey": "512065f332558d3abf6eac4577445711d440ad63da9fc7afa40e5d8592a3d84b526f",
      "scriptpubkey_asm": "OP_PUSHNUM_1 OP_PUSHBYTES_32 65f332558d3abf6eac4577445711d440ad63da9fc7afa40e5d8592a3d84b526f",
      "scriptpubkey_type": "v1_p2tr",
      "scriptpubkey_address": "bc1pvheny4vd82lkatz9waz9wyw5gzkk8k5lc7h6grjaskf28kzt2fhs0hrpel",
      "value": 7639
    }
  ],
  "size": 205,
  "weight": 616,
  "fee": 4157,
  "status": {
    "confirmed": true,
    "block_height": 834638,
    "block_hash": "000000000000000000025f742c626208ac87e0b7d15054abb4a19ca2d735a54e",
    "block_time": 1710405325
  },
  "hex": "02000000000101be796799c248783e83f4f8bb8fdbcf8d1acd8a7ccb871fff63a170c7ef1ec9ea0100000000fdffffff02097514000000000022512043e7ee6a913c3ec33ef2b6e4272f6c0a10a92a197f6ec978bdf97959394adf71d71d00000000000022512065f332558d3abf6eac4577445711d440ad63da9fc7afa40e5d8592a3d84b526f01401a1bd3583b1f22f78b7dfaf6ec4e08a9bab74a651c7488c728c0fa91cea6f678f84a20927e04f28d52e3ca2e224d956a5073eaab71c9362c1f0fb3ec0ae11faa00000000"
}