{
  "txid": "96a83819f1b1c61251c934b87c17d85ac848639dbeb584fbc204ad09857b6a8e",
  "version": 1,
  "locktime": 0,
  "vin": [
    {
      "txid": "e2c6c3fe66d5e0c229292e3c4c4df132e113ad61eddccefe4e8fccde8af2a1ca",
      "vout": 0,
      "prevout": {
        "scriptpubkey": "00146cbb4943b8acd8be3242c8e1a80c9da19da6718a",
        "scriptpubkey_asm": "OP_0 OP_PUSHBYTES_20 6cbb4943b8acd8be3242c8e1a80c9da19da6718a",
        "scriptpubkey_type": "v0_p2wpkh",
        "scriptpubkey_address": "bc1qdja5jsac4nvtuvjzers6srya5xw6vuv2amn83f",
        "value": 100000000
      },
      "scriptsig": "",
      "scriptsig_asm": "",
      "witness": [
        "30440220404dc81b47ea8c4614a30ca2b2e051fe07623959f45569a96e627d6f7300f01e02202a24fc76bd04f2d733b1880e9e1ed12335e5876af1dfb47ba527d49bc3c28e0001",
        "02f05abed920f59c8d3d28cf2388d1f7c0d29379d11d64b77843e50793cd36c949"
      ],
      "is_coinbase": false,
      "sequence": 0
    }
  ],
  "vout": [
    {
      "scriptpubkey": "0014c7118c73b2ea8ef7db356eed40434677613f19ea",
      "scriptpubkey_asm": "OP_0 OP_PUSHBYTES_20 c7118c73b2ea8ef7db356eed40434677613f19ea",
      "scriptpubkey_type": "v0_p2wpkh",
      "scriptpubkey_address": "bc1qcugccuaja2800ke4dmk5qs6xwasn7x02zda2ln",
      "value": 99998350
    }
  ],
  "size": 191,
  "weight": 437,
  "fee": 1650,
  "status": {
    "confirmed": true,
    "block_height": 834638,
    "block_hash": "000000000000000000025f742c626208ac87e0b7d15054abb4a19ca2d735a54e",
    "block_time": 1710405325
  },
  "hex": "01000000000101caa1f28adecc8f4efecedced61ad13e132f14d4c3c2e2929c2e0d566fec3c6e2000000000000000000018edaf50500000000160014c7118c73b2ea8ef7db356eed40434677613f19ea024730440220404dc81b47ea8c4614a30ca2b2e051fe07623959f45569a96e627d6f7300f01e02202a24fc76bd04f2d733b1880e9e1ed12335e5876af1dfb47ba527d49bc3c28e00012102f05abed920f59c8d3d28cf2388d1f7c0d29379d11d64b77843e50793cd36c94900000000"
}