{
  "txid": "96b15da74aa86e8993ed0512bcc901d58ad37f961691131e910c129770699cdc",
  "version": 2,
  "locktime": 0,
  "vin": [
    {
      "txid": "01fa763ed102f20f718d263fee840c3ad7c6adc109223ff3cef264f5ec2bb234",
      "vout": 1,
      "prevout": {
        "scriptpubkey": "0014a051700116e42b67441d8af731c9f8425e5fb465",
        "scriptpubkey_asm": "OP_0 OP_PUSHBYTES_20 a051700116e42b67441d8af731c9f8425e5fb465",
        "scriptpubkey_type": "v0_p2wpkh",
        "scriptpubkey_address": "bc1q5pghqqgkus4kw3qa3tmnrj0cgf09ldr9ynwumz",
        "value": 6627811
      },
      "scriptsig": "",
      "scriptsig_asm": "",
      "witness": [
        "3045022100c9a4cb31eb30de9299ee0a7883c589423f9f4ca85444d2247b1b336b79d8537702207f27f908c09c09526762cee3af14e291bafbc0af13850f682f2713d7c28b76c901",
        "020702d4ccdc4699ca93ad0d43eaf8bcd313ef260ce5bf248dcf06ad2358f8101e"
      ],
      "is_coinbase": false,
      "sequence": 4294967295
    }
  ],
  "vout": [
    {
      "scriptpubkey": "001485ddad7367368a455d28d00dc024940a643286e7",
      "scriptpubkey_asm": "OP_0 OP_PUSHBYTES_20 85ddad7367368a455d28d00dc024940a643286e7",
      "scriptpubkey_type": "v0_p2wpkh",
      "scriptpubkey_address": "bc1qshw66um8x69y2hfg6qxuqfy5pfjr9ph80dl6t5",
      "value": 2000000
    },
    {
      "scriptpubkey": "0014a051700116e42b67441d8af731c9f8425e5fb465",
      "scriptpubkey_asm": "OP_0 OP_PUSHBYTES_20 a051700116e42b67441d8af731c9f8425e5fb465",
      "scriptpubkey_type": "v0_p2wpkh",
      "scriptpubkey_address": "bc1q5pghqqgkus4kw3qa3tmnrj0cgf09ldr9ynwumz",
      "value": 4626260
    }
  ],
  "size": 223,
  "weight": 562,
  "fee": 1551,
  "status": {
    "confirmed": true,
    "block_height": 834638,
    "block_hash": "000000000000000000025f742c626208ac87e0b7d15054abb4a19ca2d735a54e",
    "block_time": 1710405325
  },
  "hex": "0200000000010134b22becf564f2cef33f2209c1adc6d73a0c84ee3f268d710ff202d13e76fa010100000000ffffffff0280841e000000000016001485ddad7367368a455d28d00dc024940a643286e75497460000000000160014a051700116e42b67441d8af731c9f8425e5fb46502483045022100c9a4cb31eb30de9299ee0a7883c589423f9f4ca85444d2247b1b336b79d8537702207f27f908c09c09526762cee3af14e291bafbc0af13850f682f2713d7c28b76c90121020702d4ccdc4699ca93ad0d43eaf8bcd313ef260ce5bf248dcf06ad2358f8101e00000000"
}