{
  "txid": "96ba6e6dc41e037a4161c43b0ecdcc41a02c4646cd67f7fde4839d6e30299b81",
  "version": 1,
  "locktime": 0,
  "vin": [
    {
      "txid": "1f7a03920453e88046c07aeb38314e723367ef8a31873efeea14ec3be6e6119c",
      "vout": 1,
      "prevout": {
        "scriptpubkey": "001410ab4e30f4352206921b89def7627d8bf4d48ed9",
        "scriptpubkey_asm": "OP_0 OP_PUSHBYTES_20 10ab4e30f4352206921b89def7627d8bf4d48ed9",
        "scriptpubkey_type": "v0_p2wpkh",
        "scriptpubkey_address": "bc1qzz45uv85x53qdysm3800wcna306dfrkenwqgdl",
        "value": 7842
      },
      "scriptsig": "",
      "scriptsig_asm": "",
      "witness": [
        "3043021f62fd0ba5b3525bb89d32e522e78a3dc744ab8c1f9b00521b49d62010513b57022058cafed4146ca511e110c69c509783e7cd14399abb16d33f289397af3eae23f201",
        "03a1c7199021c874f0309dc91fea8ac1b66e6e14d1ad996e101edeaccb5d3f4f7d"
      ],
      "is_coinbase": false,
      "sequence": 4294967295
    },
    {
      "txid": "0c58e101de445d51f2eb39d027ea107aacb78d3f63ed37e61375fda9dc8166b8",
      "vout": 1,
      "prevout": {
        "scriptpubkey": "001410ab4e30f4352206921b89def7627d8bf4d48ed9",
        "scriptpubkey_asm": "OP_0 OP_PUSHBYTES_20 10ab4e30f4352206921b89def7627d8bf4d48ed9",
        "scriptpubkey_type": "v0_p2wpkh",
        "scriptpubkey_address": "bc1qzz45uv85x53qdysm3800wcna306dfrkenwqgdl",
        "value": 12215
      },
      "scriptsig": "",
      "scriptsig_asm": "",
      "witness": [
        "3044022011063a4034d7fcfe7d213f4d5ee2a5c40c1854db2e0da3305f9106bd496bd57902204bb355bfa05ca290a6bac5cc8275eb52843c394d61565ab184b9996ffa4a476701",
        "03a1c7199021c874f0309dc91fea8ac1b66e6e14d1ad996e101edeaccb5d3f4f7d"
      ],
      "is_coinbase": false,
      "sequence": 4294967295
    },
    {
      "txid": "aedd8a0a1bfa44448751935dcd700f665a534ed819559daa30e58364053985ec",
      "vout": 1,
      "prevout": {
        "scriptpubkey": "001410ab4e30f4352206921b89def7627d8bf4d48ed9",
        "scriptpubkey_asm": "OP_0 OP_PUSHBYTES_20 10ab4e30f4352206921b89def7627d8bf4d48ed9",
        "scriptpubkey_type": "v0_p2wpkh",
        "scriptpubkey_address": "bc1qzz45uv85x53qdysm3800wcna306dfrkenwqgdl",
        "value": 12672
      },
      "scriptsig": "",
      "scriptsig_asm": "",
      "witness": [
        "3044022022cf4ada5503dc8d363d1c027211e78c90a1a2f768c9254737af342f800547ce02202e81cc30d0b0b6d71e25c5f737be4cf2b0ce194235109545aeff4b9cba546d6801",
        "03a1c7199021c874f0309dc91fea8ac1b66e6e14d1ad996e101edeaccb5d3f4f7d"
      ],
      "is_coinbase": false,
      "sequence": 4294967295
    },
    {
      "txid": "a9552331187bcbbf0dc94889abbf251180ff92441d6e0a523edb7821627debef",
      "vout": 1,
      "prevout": {
        "scriptpubkey": "001410ab4e30f4352206921b89def7627d8bf4d48ed9",
        "scriptpubkey_asm": "OP_0 OP_PUSHBYTES_20 10ab4e30f4352206921b89def7627d8bf4d48ed9",
        "scriptpubkey_type": "v0_p2wpkh",
        "scriptpubkey_address": "bc1qzz45uv85x53qdysm3800wcna306dfrkenwqgdl",
        "value": 12718
      },
      "scriptsig": "",
      "scriptsig_asm": "",
      "witness": [
        "3044022031a274be6727d91d61ee451689e10144dda7a0700cfda637ae5faa78cdb15df002202ca2917ee07580170336b3c10fa4b51ff7237c08ac1a34f5fd1eb2563919352001",
        "03a1c7199021c874f0309dc91fea8ac1b66e6e14d1ad996e101edeaccb5d3f4f7d"
      ],
      "is_coinbase": false,
      "sequence": 4294967295
    },
    {
      "txid": "0585169d3083340f9ef3b9197714fbb45ef2a24839c71d24788eaf3bbb5aecfa",
      "vout": 1,
      "prevout": {
        "scriptpubkey": "001410ab4e30f4352206921b89def7627d8bf4d48ed9",
        "scriptpubkey_asm": "OP_0 OP_PUSHBYTES_20 10ab4e30f4352206921b89def7627d8bf4d48ed9",
        "scriptpubkey_type": "v0_p2wpkh",
        "scriptpubkey_address": "bc1qzz45uv85x53qdysm3800wcna306dfrkenwqgdl",
        "value": 17037
      },
      "scriptsig": "",
      "scriptsig_asm": "",
      "witness": [
        "3045022100b714fe0186c0fa634b42ecf9266cbbf15ef758b9697a3317fd729297e04d819b0220755121ea8e31ddc10baa99c26631d78cfbd402615d291f475e11fb366d47b1ad01",
        "03a1c7199021c874f0309dc91fea8ac1b66e6e14d1ad996e101edeaccb5d3f4f7d"
      ],
      "is_coinbase": false,
      "sequence": 4294967295
    },
    {
      "txid": "a86ec271adf3880cf6b8002a98c9b461fd557bbaa5c7c2da519798cbcd24a26d",
      "vout": 1,
      "prevout": {
        "scriptpubkey": "001410ab4e30f4352206921b89def7627d8bf4d48ed9",
        "scriptpubkey_asm": "OP_0 OP_PUSHBYTES_20 10ab4e30f4352206921b89def7627d8bf4d48ed9",
        "scriptpubkey_type": "v0_p2wpkh",
        "scriptpubkey_address": "bc1qzz45uv85x53qdysm3800wcna306dfrkenwqgdl",
        "value": 31838
      },
      "scriptsig": "",
      "scriptsig_asm": "",
      "witness": [
        "3045022100f64b12b46c2fbc885e25026fe5b1c1f6b3362811f50e54465c031231343c01bd02202c790e38495da70985e16257028e86f969f9ef63f5abc85bfab56dabf8c10af401",
        "03a1c7199021c874f0309dc91fea8ac1b66e6e14d1ad996e101edeaccb5d3f4f7d"
      ],
      "is_coinbase": false,
      "sequence": 4294967295
    },
    {
      "txid": "21014d4c62cf4e69765ef9db3f6d2f55821966342d39e719a3859724d5d53132",
      "vout": 1,
      "prevout": {
        "scriptpubkey": "001410ab4e30f4352206921b89def7627d8bf4d48ed9",
        "scriptpubkey_asm": "OP_0 OP_PUSHBYTES_20 10ab4e30f4352206921b89def7627d8bf4d48ed9",
        "scriptpubkey_type": "v0_p2wpkh",
        "scriptpubkey_address": "bc1qzz45uv85x53qdysm3800wcna306dfrkenwqgdl",
        "value": 348998
      },
      "scriptsig": "",
      "scriptsig_asm": "",
      "witness": [
        "304402204f7641db1f3b03700f0d6846730c4839f19ce541d82bfc24f0a63bf49f77c8ca0220685fb6233e73ffbaa8e034517cdb3a41630c2cf242209ba93ebfe81f84acc9db01",
        "03a1c7199021c874f0309dc91fea8ac1b66e6e14d1ad996e101edeaccb5d3f4f7d"
      ],
      "is_coinbase": false,
      "sequence": 4294967295
    },
    {
      "txid": "01126c4f80213cefef6e8e344af1b45d8ebc6b24e50e38a885efeadc6743396b",
      "vout": 0,
      "prevout": {
        "scriptpubkey": "001410ab4e30f4352206921b89def7627d8bf4d48ed9",
        "scriptpubkey_asm": "OP_0 OP_PUSHBYTES_20 10ab4e30f4352206921b89def7627d8bf4d48ed9",
        "scriptpubkey_type": "v0_p2wpkh",
        "scriptpubkey_address": "bc1qzz45uv85x53qdysm3800wcna306dfrkenwqgdl",
        "value": 490000
      },
      "scriptsig": "",
      "scriptsig_asm": "",
      "witness": [
        "3045022100fe9a6f0d5b824d6762afa0bddf66880cb394a3a533506e6b3643cc3bc81999e8022079bd4d433f32c93d02dcc9e56f2c5f54243a16e517c9c5b974f5c27802f9e5a201",
        "03a1c7199021c874f0309dc91fea8ac1b66e6e14d1ad996e101edeaccb5d3f4f7d"
      ],
      "is_coinbase": false,
      "sequence": 4294967295
    },
    {
      "txid": "dfb2e9b9533f31bec68cc4e0598b50b9622cb2d3df5648873ba37908e3706305",
      "vout": 2794,
      "prevout": {
        "scriptpubkey": "001410ab4e30f4352206921b89def7627d8bf4d48ed9",
        "scriptpubkey_asm": "OP_0 OP_PUSHBYTES_20 10ab4e30f4352206921b89def7627d8bf4d48ed9",
        "scriptpubkey_type": "v0_p2wpkh",
        "scriptpubkey_address": "bc1qzz45uv85x53qdysm3800wcna306dfrkenwqgdl",
        "value": 540717
      },
      "scriptsig": "",
      "scriptsig_asm": "",
      "witness": [
        "3044022031d470ed99fe9a6f1bb583ca98001e0641930761eb9c420f86890b9d349265b602204dff9385bbe6a3f4ca7f0e494e5c848ac2f55b33660f49ea3358f75cefadfbcb01",
        "03a1c7199021c874f0309dc91fea8ac1b66e6e14d1ad996e101edeaccb5d3f4f7d"
      ],
      "is_coinbase": false,
      "sequence": 4294967295
    }
  ],
  "vout": [
    {
      "scriptpubkey": "001410ab4e30f4352206921b89def7627d8bf4d48ed9",
      "scriptpubkey_asm": "OP_0 OP_PUSHBYTES_20 10ab4e30f4352206921b89def7627d8bf4d48ed9",
      "scriptpubkey_type": "v0_p2wpkh",
      "scriptpubkey_address": "bc1qzz45uv85x53qdysm3800wcna306dfrkenwqgdl",
      "value": 1440000
    },
    {
      "scriptpubkey": "001410ab4e30f4352206921b89def7627d8bf4d48ed9",
      "scriptpubkey_asm": "OP_0 OP_PUSHBYTES_20 10ab4e30f4352206921b89def7627d8bf4d48ed9",
      "scriptpubkey_type": "v0_p2wpkh",
      "scriptpubkey_address": "bc1qzz45uv85x53qdysm3800wcna306dfrkenwqgdl",
      "value": 15542
    }
  ],
  "size": 1408,
  "weight": 2731,
  "fee": 18495,
  "status": {
    "confirmed": true,
    "block_height": 834638,
    "block_hash": "000000000000000000025f742c626208ac87e0b7d15054abb4a19ca2d735a54e",
    "block_time": 1710405325
  },
  "hex": "010000000001099c11e6e63bec14eafe3e87318aef6733724e3138eb7ac04680e8530492037a1f0100000000ffffffffb86681dca9fd7513e637ed633f8db7ac7a10ea27d039ebf2515d44de01e1580c0100000000ffffffffec8539056483e530aa9d5519d84e535a660f70cd5d9351874444fa1b0a8addae0100000000ffffffffefeb7d622178db3e520a6e1d4492ff801125bfab8948c90dbfcb7b18312355a90100000000fffffffffaec5abb3baf8e78241dc73948a2f25eb4fb147719b9f39e0f3483309d1685050100000000ffffffff6da224cdcb989751dac2c7a5ba7b55fd61b4c9982a00b8f60c88f3ad71c26ea80100000000ffffffff3231d5d5249785a319e7392d34661982552f6d3fdbf95e76694ecf624c4d01210100000000ffffffff6b394367dceaef85a8380ee5246bbc8e5db4f14a348e6eefef3c21804f6c12010000000000ffffffff056370e30879a33b874856dfd3b22c62b9508b59e0c48cc6be313f53b9e9b2dfea0a000000ffffffff0200f915000000000016001410ab4e30f4352206921b89def7627d8bf4d48ed9b63c00000000000016001410ab4e30f4352206921b89def7627d8bf4d48ed902463043021f62fd0ba5b3525bb89d32e522e78a3dc744ab8c1f9b00521b49d62010513b57022058cafed4146ca511e110c69c509783e7cd14399abb16d33f289397af3eae23f2012103a1c7199021c874f0309dc91fea8ac1b66e6e14d1ad996e101edeaccb5d3f4f7d02473044022011063a4034d7fcfe7d213f4d5ee2a5c40c1854db2e0da3305f9106bd496bd57902204bb355bfa05ca290a6bac5cc8275eb52843c394d61565ab184b9996ffa4a4767012103a1c7199021c874f0309dc91fea8ac1b66e6e14d1ad996e101edeaccb5d3f4f7d02473044022022cf4ada5503dc8d363d1c027211e78c90a1a2f768c9254737af342f800547ce02202e81cc30d0b0b6d71e25c5f737be4cf2b0ce194235109545aeff4b9cba546d68012103a1c7199021c874f0309dc91fea8ac1b66e6e14d1ad996e101edeaccb5d3f4f7d02473044022031a274be6727d91d61ee451689e10144dda7a0700cfda637ae5faa78cdb15df002202ca2917ee07580170336b3c10fa4b51ff7237c08ac1a34f5fd1eb25639193520012103a1c7199021c874f0309dc91fea8ac1b66e6e14d1ad996e101edeaccb5d3f4f7d02483045022100b714fe0186c0fa634b42ecf9266cbbf15ef758b9697a3317fd729297e04d819b0220755121ea8e31ddc10baa99c26631d78cfbd402615d291f475e11fb366d47b1ad012103a1c7199021c874f0309dc91fea8ac1b66e6e14d1ad996e101edeaccb5d3f4f7d02483045022100f64b12b46c2fbc885e25026fe5b1c1f6b3362811f50e54465c031231343c01bd02202c790e38495da70985e16257028e86f969f9ef63f5abc85bfab56dabf8c10af4012103a1c7199021c874f0309dc91fea8ac1b66e6e14d1ad996e101edeaccb5d3f4f7d0247304402204f7641db1f3b03700f0d6846730c4839f19ce541d82bfc24f0a63bf49f77c8ca0220685fb6233e73ffbaa8e034517cdb3a41630c2cf242209ba93ebfe81f84acc9db012103a1c7199021c874f0309dc91fea8ac1b66e6e14d1ad996e101edeaccb5d3f4f7d02483045022100fe9a6f0d5b824d6762afa0bddf66880cb394a3a533506e6b3643cc3bc81999e8022079bd4d433f32c93d02dcc9e56f2c5f54243a16e517c9c5b974f5c27802f9e5a2012103a1c7199021c874f0309dc91fea8ac1b66e6e14d1ad996e101edeaccb5d3f4f7d02473044022031d470ed99fe9a6f1bb583ca98001e0641930761eb9c420f86890b9d349265b602204dff9385bbe6a3f4ca7f0e494e5c848ac2f55b33660f49ea3358f75cefadfbcb012103a1c7199021c874f0309dc91fea8ac1b66e6e14d1ad996e101edeaccb5d3f4f7d00000000"
}