{
  "txid": "96bec80f916d29574f229eb966ededebcb3660d81794e0ad8cff6fe4e7a6ef31",
  "version": 1,
  "locktime": 0,
  "vin": [
    {
      "txid": "8888888888945f99b422fbd5397ea5629cb69f338333234cf32c054f85cdc5dd",
      "vout": 0,
      "prevout": {
        "scriptpubkey": "5120c9cd23600ae94b6905d297511781c07b81d5b443402821e341da24cd781c05af",
        "scriptpubkey_asm": "OP_PUSHNUM_1 OP_PUSHBYTES_32 c9cd23600ae94b6905d297511781c07b81d5b443402821e341da24cd781c05af",
        "scriptpubkey_type": "v1_p2tr",
        "scriptpubkey_address": "bc1pe8xjxcq2a99kjpwjjag30qwq0wqatdzrgq5zrc6pmgjv67quqkhs3uhdvl",
        "value": 12071
      },
      "scriptsig": "",
      "scriptsig_asm": "",
      "witness": [
        "9d7863c8e7eb62cdc95b6020b9742831c07660dc9f6a85acd3128927249b84d4338ac66de678c49195d8911f26a3a93aa48530d9fe84d1582e5604959c0f1dbe",
        "20964ac4b39c9655d5bed1908c028e5b13bdcc67f011169207c5b2bcfd1aaffa8cac00630461746f6d03646d7446a16461726773a46474696d651a65f13402656e6f6e63651a0001000468626974776f726b636b3838383838383838382e386b6d696e745f7469636b657268696e66696e69747968",
        "c1964ac4b39c9655d5bed1908c028e5b13bdcc67f011169207c5b2bcfd1aaffa8c"
      ],
      "is_coinbase": false,
      "sequence": 4294967295
    }
  ],
  "vout": [
    {
      "scriptpubkey": "5120c9778f0f7116a0fa90e759ca54b375f5c38d7db5875a2860af8354d65a8671e2",
      "scriptpubkey_asm": "OP_PUSHNUM_1 OP_PUSHBYTES_32 c9778f0f7116a0fa90e759ca54b375f5c38d7db5875a2860af8354d65a8671e2",
      "scriptpubkey_type": "v1_p2tr",
      "scriptpubkey_address": "bc1pe9mc7rm3z6s04y88t899fvm47hpc6ld4sadzsc90sd2dvk5xw83qeh2mmm",
      "value": 9999
    }
  ],
  "size": 314,
  "weight": 596,
  "fee": 2072,
  "status": {
    "confirmed": true,
    "block_height": 834460,
    "block_hash": "00000000000000000000484a79b643b2524bbce82e5d8a442013fa5b8905ed98",
    "block_time": 1710307468
  },
  "hex": "01000000000101ddc5cd854f052cf34c233383339fb69c62a57e39d5fb22b4995f9488888888880000000000ffffffff010f27000000000000225120c9778f0f7116a0fa90e759ca54b375f5c38d7db5875a2860af8354d65a8671e203409d7863c8e7eb62cdc95b6020b9742831c07660dc9f6a85acd3128927249b84d4338ac66de678c49195d8911f26a3a93aa48530d9fe84d1582e5604959c0f1dbe7520964ac4b39c9655d5bed1908c028e5b13bdcc67f011169207c5b2bcfd1aaffa8cac00630461746f6d03646d7446a16461726773a46474696d651a65f13402656e6f6e63651a0001000468626974776f726b636b3838383838383838382e386b6d696e745f7469636b657268696e66696e6974796821c1964ac4b39c9655d5bed1908c028e5b13bdcc67f011169207c5b2bcfd1aaffa8c00000000"
}