{
  "txid": "96c4dafb543012b8d4a1cbd9d5cce2ca609ccb914fe8c3182f932e066c977595",
  "version": 2,
  "locktime": 0,
  "vin": [
    {
      "txid": "c10e48caeee8756d57fbce0e4f26c1d08bb9f0d4a35c2d26269682da8df04dac",
      "vout": 51,
      "prevout": {
        "scriptpubkey": "5120012ec13473dc18dfe53980995c9dc5b9338fa411457f019e1be70c50448f496a",
        "scriptpubkey_asm": "OP_PUSHNUM_1 OP_PUSHBYTES_32 012ec13473dc18dfe53980995c9dc5b9338fa411457f019e1be70c50448f496a",
        "scriptpubkey_type": "v1_p2tr",
        "scriptpubkey_address": "bc1pqyhvzdrnmsvdlefeszv4e8w9hyeclfq3g4lsr8smuux9q3y0f94qtushlk",
        "value": 3634
      },
      "scriptsig": "",
      "scriptsig_asm": "",
      "witness": [
        "a3520bb52fdfda000e0454b7c05a44927acc0d08e73103d69a80bf857bc0dc39b28d08485b5d6e08e9d0190758d34f909c66da4df35d4a9da2af72a39f2bd3ef",
        "207edf31009f01d211ecd49b8ccf2c94969b155f63221e5bc43c35286e267a9c32ac0063036f726401011e6170706c69636174696f6e2f6a736f6e3b636861727365743d7574662d38004cd37b2270223a22706f772d3230222c226f70223a226d696e74222c227469636b223a2250455045222c22616d74223a2231303030222c22736f6c7574696f6e223a22504550453a6263317071336e67663775716e73667434706d37357236397371616c6c30637068747278677773757a6d657864356c337039333566366d713666337664383a303030303030303030303030303030303030303139393431613561653132383937363539383134343239323533333030353762306461393666336465613163353a3338383833303137383131227d68",
        "c0406c0f2a67700582b42f36a71eb03478d57ba1acdc179ee1ec758acb282de3fd"
      ],
      "is_coinbase": false,
      "sequence": 4294967295
    }
  ],
  "vout": [
    {
      "scriptpubkey": "5120046684fb809c12ba877ea0f45803bffbf01bac6643a1c16f266d3f1096344eb6",
      "scriptpubkey_asm": "OP_PUSHNUM_1 OP_PUSHBYTES_32 046684fb809c12ba877ea0f45803bffbf01bac6643a1c16f266d3f1096344eb6",
      "scriptpubkey_type": "v1_p2tr",
      "scriptpubkey_address": "bc1pq3ngf7uqnsft4pm75r69sqall0cphtrxgwsuzmexd5l3p935f6mq6f3vd8",
      "value": 546
    }
  ],
  "size": 487,
  "weight": 769,
  "fee": 3088,
  "status": {
    "confirmed": true,
    "block_height": 834460,
    "block_hash": "00000000000000000000484a79b643b2524bbce82e5d8a442013fa5b8905ed98",
    "block_time": 1710307468
  },
  "hex": "02000000000101ac4df08dda829626262d5ca3d4f0b98bd0c1264f0ecefb576d75e8eeca480ec13300000000ffffffff012202000000000000225120046684fb809c12ba877ea0f45803bffbf01bac6643a1c16f266d3f1096344eb60340a3520bb52fdfda000e0454b7c05a44927acc0d08e73103d69a80bf857bc0dc39b28d08485b5d6e08e9d0190758d34f909c66da4df35d4a9da2af72a39f2bd3effd2001207edf31009f01d211ecd49b8ccf2c94969b155f63221e5bc43c35286e267a9c32ac0063036f726401011e6170706c69636174696f6e2f6a736f6e3b636861727365743d7574662d38004cd37b2270223a22706f772d3230222c226f70223a226d696e74222c227469636b223a2250455045222c22616d74223a2231303030222c22736f6c7574696f6e223a22504550453a6263317071336e67663775716e73667434706d37357236397371616c6c30637068747278677773757a6d657864356c337039333566366d713666337664383a303030303030303030303030303030303030303139393431613561653132383937363539383134343239323533333030353762306461393666336465613163353a3338383833303137383131227d6821c0406c0f2a67700582b42f36a71eb03478d57ba1acdc179ee1ec758acb282de3fd00000000"
}