{
  "txid": "96c4c195d0556bd414a88f4cf99fb43f005d8c5fbe4c59f836709b9d709f50b1",
  "version": 2,
  "locktime": 0,
  "vin": [
    {
      "txid": "0eddf93f24b2d392cda3aed855586f759c118678ab0fdf1339c1a2f0871fef42",
      "vout": 8,
      "prevout": {
        "scriptpubkey": "5120f130d4ece11a55a88053c7068144cb54ff54e2e92f8c73a7a20bc6d33e282f7b",
        "scriptpubkey_asm": "OP_PUSHNUM_1 OP_PUSHBYTES_32 f130d4ece11a55a88053c7068144cb54ff54e2e92f8c73a7a20bc6d33e282f7b",
        "scriptpubkey_type": "v1_p2tr",
        "scriptpubkey_address": "bc1p7ycdfm8prf263qzncurgz3xt2nl4fchf97x88fazp0rdx03g9aaswcff82",
        "value": 2834
      },
      "scriptsig": "",
      "scriptsig_asm": "",
      "witness": [
        "c8370eafa3b224b1eead2eb9821c310a16b272326d166cfa882c58fe8425931649fe3e21e9b56487383d5e40c35a74366328f81d27a519737dc4ba58a512b1a0",
        "2071f6f15359f57250a555501eb8aa7b73b17ba9c3934f5c79d1c8517a1b21535aac0063036f726401011e6170706c69636174696f6e2f6a736f6e3b636861727365743d7574662d38004cbf7b2270223a22706f772d3230222c226f70223a226d696e74222c227469636b223a2250455045222c22616d74223a2231303030222c22736f6c7574696f6e223a22504550453a6263317172713238376168727578703271783033726774706379666a327261786e306175667a646a717a3a303030303030303030303030303030303030303139393431613561653132383937363539383134343239323533333030353762306461393666336465613163353a3333363938383737303039227d68",
        "c0f26df831a413724db8123fd1cb518d6560252685500a3c204e36c4bb2a2cc255"
      ],
      "is_coinbase": false,
      "sequence": 4294967295
    }
  ],
  "vout": [
    {
      "scriptpubkey": "001418147f76e3e182a019f11a161c113250fa69bfbc",
      "scriptpubkey_asm": "OP_0 OP_PUSHBYTES_20 18147f76e3e182a019f11a161c113250fa69bfbc",
      "scriptpubkey_type": "v0_p2wpkh",
      "scriptpubkey_address": "bc1qrq287ahruxp2qx03rgtpcyfj2raxn0aufzdjqz",
      "value": 546
    }
  ],
  "size": 455,
  "weight": 701,
  "fee": 2288,
  "status": {
    "confirmed": true,
    "block_height": 834460,
    "block_hash": "00000000000000000000484a79b643b2524bbce82e5d8a442013fa5b8905ed98",
    "block_time": 1710307468
  },
  "hex": "0200000000010142ef1f87f0a2c13913df0fab7886119c756f5855d8aea3cd92d3b2243ff9dd0e0800000000ffffffff01220200000000000016001418147f76e3e182a019f11a161c113250fa69bfbc0340c8370eafa3b224b1eead2eb9821c310a16b272326d166cfa882c58fe8425931649fe3e21e9b56487383d5e40c35a74366328f81d27a519737dc4ba58a512b1a0fd0c012071f6f15359f57250a555501eb8aa7b73b17ba9c3934f5c79d1c8517a1b21535aac0063036f726401011e6170706c69636174696f6e2f6a736f6e3b636861727365743d7574662d38004cbf7b2270223a22706f772d3230222c226f70223a226d696e74222c227469636b223a2250455045222c22616d74223a2231303030222c22736f6c7574696f6e223a22504550453a6263317172713238376168727578703271783033726774706379666a327261786e306175667a646a717a3a303030303030303030303030303030303030303139393431613561653132383937363539383134343239323533333030353762306461393666336465613163353a3333363938383737303039227d6821c0f26df831a413724db8123fd1cb518d6560252685500a3c204e36c4bb2a2cc25500000000"
}