{
  "txid": "96cd7e92a6d6ff3011a2147c17562cd2de5c98e619e2b08865ac8df3b7d4180d",
  "version": 2,
  "locktime": 0,
  "vin": [
    {
      "txid": "1dcbe07ca5628880a0f455ae5a331f4b47d9f166e1be837cd40c59b67469e1a8",
      "vout": 5,
      "prevout": {
        "scriptpubkey": "51200e4b17dc1c9efab7c8baa7340c80963885f90d64805bb22ffcf67c5c83b304dc",
        "scriptpubkey_asm": "OP_PUSHNUM_1 OP_PUSHBYTES_32 0e4b17dc1c9efab7c8baa7340c80963885f90d64805bb22ffcf67c5c83b304dc",
        "scriptpubkey_type": "v1_p2tr",
        "scriptpubkey_address": "bc1ppe930hqunmat0j965u6qeqyk8zzljrtyspdmytlu7e79eqanqnwq2ap98h",
        "value": 153239
      },
      "scriptsig": "",
      "scriptsig_asm": "",
      "witness": [
        "42f28ce138b9cf47b6e6de00caa1f9102b23cb0e17925af248ff5e3047b1cd787606b12189a696fb76caefb93f608f50f1ba8fb25f3d8546e67a399ddcd70273"
      ],
      "is_coinbase": false,
      "sequence": 4294967293
    }
  ],
  "vout": [
    {
      "scriptpubkey": "51205f62cad8d00aa5a595a88a6859bb4d7e05a98057243ef4ff273cc2300fe312ea",
      "scriptpubkey_asm": "OP_PUSHNUM_1 OP_PUSHBYTES_32 5f62cad8d00aa5a595a88a6859bb4d7e05a98057243ef4ff273cc2300fe312ea",
      "scriptpubkey_type": "v1_p2tr",
      "scriptpubkey_address": "bc1pta3v4kxsp2j6t9dg3f59nw6d0cz6nqzhysl0fle88nprqrlrzt4qkhfk6j",
      "value": 3010
    },
    {
      "scriptpubkey": "51200e4b17dc1c9efab7c8baa7340c80963885f90d64805bb22ffcf67c5c83b304dc",
      "scriptpubkey_asm": "OP_PUSHNUM_1 OP_PUSHBYTES_32 0e4b17dc1c9efab7c8baa7340c80963885f90d64805bb22ffcf67c5c83b304dc",
      "scriptpubkey_type": "v1_p2tr",
      "scriptpubkey_address": "bc1ppe930hqunmat0j965u6qeqyk8zzljrtyspdmytlu7e79eqanqnwq2ap98h",
      "value": 147765
    }
  ],
  "size": 205,
  "weight": 616,
  "fee": 2464,
  "status": {
    "confirmed": true,
    "block_height": 834460,
    "block_hash": "00000000000000000000484a79b643b2524bbce82e5d8a442013fa5b8905ed98",
    "block_time": 1710307468
  },
  "hex": "02000000000101a8e16974b6590cd47c83bee166f1d9474b1f335aae55f4a0808862a57ce0cb1d0500000000fdffffff02c20b0000000000002251205f62cad8d00aa5a595a88a6859bb4d7e05a98057243ef4ff273cc2300fe312ea35410200000000002251200e4b17dc1c9efab7c8baa7340c80963885f90d64805bb22ffcf67c5c83b304dc014042f28ce138b9cf47b6e6de00caa1f9102b23cb0e17925af248ff5e3047b1cd787606b12189a696fb76caefb93f608f50f1ba8fb25f3d8546e67a399ddcd7027300000000"
}