{
  "txid": "9703993c9f792b3249dfa34ff79486aac0c5ab93d242cbc99fe7c29648a1519d",
  "version": 1,
  "locktime": 0,
  "vin": [
    {
      "txid": "ad672d373123d7cd70cb7ed5dbade3ad187d9ae138679d1c78f6ab52c3ca1e1c",
      "vout": 1,
      "prevout": {
        "scriptpubkey": "0014dc6bf86354105de2fcd9868a2b0376d6731cb92f",
        "scriptpubkey_asm": "OP_0 OP_PUSHBYTES_20 dc6bf86354105de2fcd9868a2b0376d6731cb92f",
        "scriptpubkey_type": "v0_p2wpkh",
        "scriptpubkey_address": "bc1qm34lsc65zpw79lxes69zkqmk6ee3ewf0j77s3h",
        "value": 606583304
      },
      "scriptsig": "",
      "scriptsig_asm": "",
      "witness": [
        "304402206af27aa73c48b75772b2771f189364b934635c956e54b29a559d864d961bc86f02204ffc199e26582b9f472d91b0442085794a3259b7ed22ff95117b83907baa917001",
        "02174ee672429ff94304321cdae1fc1e487edf658b34bd1d36da03761658a2bb09"
      ],
      "is_coinbase": false,
      "sequence": 4294967295
    }
  ],
  "vout": [
    {
      "scriptpubkey": "00143af1ad53f4595c302e3012b23e205c0a76f9ab7f",
      "scriptpubkey_asm": "OP_0 OP_PUSHBYTES_20 3af1ad53f4595c302e3012b23e205c0a76f9ab7f",
      "scriptpubkey_type": "v0_p2wpkh",
      "scriptpubkey_address": "bc1q8tc665l5t9wrqt3sz2erugzupfm0n2mlc3lqu9",
      "value": 3971302
    },
    {
      "scriptpubkey": "0014dc6bf86354105de2fcd9868a2b0376d6731cb92f",
      "scriptpubkey_asm": "OP_0 OP_PUSHBYTES_20 dc6bf86354105de2fcd9868a2b0376d6731cb92f",
      "scriptpubkey_type": "v0_p2wpkh",
      "scriptpubkey_address": "bc1qm34lsc65zpw79lxes69zkqmk6ee3ewf0j77s3h",
      "value": 75342192
    },
    {
      "scriptpubkey": "a914c9eb26d7d42d863c35fb6bbe7b18b2690b5d073787",
      "scriptpubkey_asm": "OP_HASH160 OP_PUSHBYTES_20 c9eb26d7d42d863c35fb6bbe7b18b2690b5d0737 OP_EQUAL",
      "scriptpubkey_type": "p2sh",
      "scriptpubkey_address": "3L6fSjKBPGCAyfAfXsngN3RzTbAvE7jFw6",
      "value": 793256
    },
    {
      "scriptpubkey": "76a91439f4ba1f1d36a60d1925b301ae457f1db3b3fc8188ac",
      "scriptpubkey_asm": "OP_DUP OP_HASH160 OP_PUSHBYTES_20 39f4ba1f1d36a60d1925b301ae457f1db3b3fc81 OP_EQUALVERIFY OP_CHECKSIG",
      "scriptpubkey_type": "p2pkh",
      "scriptpubkey_address": "16HSgsHXaxH4AnGbpdd5mL16CiTQJi4zFV",
      "value": 99880
    },
    {
      "scriptpubkey": "001493be78f7ec5ef97d31bd8cce3d640fab0f709a90",
      "scriptpubkey_asm": "OP_0 OP_PUSHBYTES_20 93be78f7ec5ef97d31bd8cce3d640fab0f709a90",
      "scriptpubkey_type": "v0_p2wpkh",
      "scriptpubkey_address": "bc1qjwl83alvtmuh6vda3n8r6eq04v8hpx5s9e6v6r",
      "value": 5271926
    },
    {
      "scriptpubkey": "0014f200cf272ddece5f98decca263284ec6fb5ebd6d",
      "scriptpubkey_asm": "OP_0 OP_PUSHBYTES_20 f200cf272ddece5f98decca263284ec6fb5ebd6d",
      "scriptpubkey_type": "v0_p2wpkh",
      "scriptpubkey_address": "bc1q7gqv7fedmm89lxx7ej3xx2zwcma4a0tdpj3a4a",
      "value": 360619
    },
    {
      "scriptpubkey": "76a914f8b2d0f915d777491e084db1d84ac335bc712ac388ac",
      "scriptpubkey_asm": "OP_DUP OP_HASH160 OP_PUSHBYTES_20 f8b2d0f915d777491e084db1d84ac335bc712ac3 OP_EQUALVERIFY OP_CHECKSIG",
      "scriptpubkey_type": "p2pkh",
      "scriptpubkey_address": "1Pfznx1CEPWfw6dF7Qy1H4uLVJtyAc8Svq",
      "value": 735688
    },
    {
      "scriptpubkey": "00141670fa29a5e398c8817bfce253c326a439d65352",
      "scriptpubkey_asm": "OP_0 OP_PUSHBYTES_20 1670fa29a5e398c8817bfce253c326a439d65352",
      "scriptpubkey_type": "v0_p2wpkh",
      "scriptpubkey_address": "bc1qzec052d9uwvv3qtmln398sex5suav56juewgdn",
      "value": 3513170
    },
    {
      "scriptpubkey": "00143b073829cc3df6e1c8cef1becd84afdd3aec80d1",
      "scriptpubkey_asm": "OP_0 OP_PUSHBYTES_20 3b073829cc3df6e1c8cef1becd84afdd3aec80d1",
      "scriptpubkey_type": "v0_p2wpkh",
      "scriptpubkey_address": "bc1q8vrns2wv8hmwrjxw7xlvmp90m5aweqx38d0wu6",
      "value": 1596939
    },
    {
      "scriptpubkey": "a9141fdfd25bb78c5ad5728a4a1b70bd94723605151887",
      "scriptpubkey_asm": "OP_HASH160 OP_PUSHBYTES_20 1fdfd25bb78c5ad5728a4a1b70bd947236051518 OP_EQUAL",
      "scriptpubkey_type": "p2sh",
      "scriptpubkey_address": "34bYztuKe56WaBRhkAJMe2x7qL2V6QeUyd",
      "value": 429980000
    },
    {
      "scriptpubkey": "a9149a88793dd54fc82db42a2004562f125a53e6893887",
      "scriptpubkey_asm": "OP_HASH160 OP_PUSHBYTES_20 9a88793dd54fc82db42a2004562f125a53e68938 OP_EQUAL",
      "scriptpubkey_type": "p2sh",
      "scriptpubkey_address": "3Fn7USLHv7hBPpWQb7sq4ib9iz5R8GsvVd",
      "value": 13514998
    },
    {
      "scriptpubkey": "5120df59144b488055ec00dce4781c239519a02f668d2407f0de12ddaa161782e6a6",
      "scriptpubkey_asm": "OP_PUSHNUM_1 OP_PUSHBYTES_32 df59144b488055ec00dce4781c239519a02f668d2407f0de12ddaa161782e6a6",
      "scriptpubkey_type": "v1_p2tr",
      "scriptpubkey_address": "bc1pmav3gj6gsp27cqxuu3upcgu4rxsz7e5dysrlphsjmk4pv9uzu6nqhwyuwh",
      "value": 702277
    },
    {
      "scriptpubkey": "0014c4f9ac87136fad6140bb7a282da2c821f30cb65d",
      "scriptpubkey_asm": "OP_0 OP_PUSHBYTES_20 c4f9ac87136fad6140bb7a282da2c821f30cb65d",
      "scriptpubkey_type": "v0_p2wpkh",
      "scriptpubkey_address": "bc1qcnu6epcnd7kkzs9m0g5zmgkgy8esedjazl9jdw",
      "value": 80000
    },
    {
      "scriptpubkey": "76a91473f3090ed94a715451a0682c8414e3f33ee17a1f88ac",
      "scriptpubkey_asm": "OP_DUP OP_HASH160 OP_PUSHBYTES_20 73f3090ed94a715451a0682c8414e3f33ee17a1f OP_EQUALVERIFY OP_CHECKSIG",
      "scriptpubkey_type": "p2pkh",
      "scriptpubkey_address": "1Ba5rTPQLQDiUJ4w51ng1aUvApXYuzEgNi",
      "value": 283407
    },
    {
      "scriptpubkey": "76a91475feebaa921e2f887d3f6febdf46af435e8f454888ac",
      "scriptpubkey_asm": "OP_DUP OP_HASH160 OP_PUSHBYTES_20 75feebaa921e2f887d3f6febdf46af435e8f4548 OP_EQUALVERIFY OP_CHECKSIG",
      "scriptpubkey_type": "p2pkh",
      "scriptpubkey_address": "1BkuSdtSBoEjBZwZv72ArAyjgYRAEt9fQC",
      "value": 482212
    },
    {
      "scriptpubkey": "a91438876bb2c7320a9547ceecf8af8cb8011e5288e487",
      "scriptpubkey_asm": "OP_HASH160 OP_PUSHBYTES_20 38876bb2c7320a9547ceecf8af8cb8011e5288e4 OP_EQUAL",
      "scriptpubkey_type": "p2sh",
      "scriptpubkey_address": "36quzUs4x6kyQ58Go7RFzufgJgmXtjwkmF",
      "value": 1031303
    },
    {
      "scriptpubkey": "a914c704fca71a07142eb76a0c17459fb8896d1b95ba87",
      "scriptpubkey_asm": "OP_HASH160 OP_PUSHBYTES_20 c704fca71a07142eb76a0c17459fb8896d1b95ba OP_EQUAL",
      "scriptpubkey_type": "p2sh",
      "scriptpubkey_address": "3KqLNDTagyo4nBGxMTtiM7zWrNTNqcGZWi",
      "value": 2358192
    },
    {
      "scriptpubkey": "0020749aacd6d144634b35d646ae7038a9ef2361bb8ada26226d893fe4b342532cb6",
      "scriptpubkey_asm": "OP_0 OP_PUSHBYTES_32 749aacd6d144634b35d646ae7038a9ef2361bb8ada26226d893fe4b342532cb6",
      "scriptpubkey_type": "v0_p2wsh",
      "scriptpubkey_address": "bc1qwjd2e4k3g335kdwkg6h8qw9fau3krwu2mgnzymvf8ljtxsjn9jmq9j0sks",
      "value": 1000000
    },
    {
      "scriptpubkey": "76a91484c8f8daf301ca375a01a17e41441429e19ef00188ac",
      "scriptpubkey_asm": "OP_DUP OP_HASH160 OP_PUSHBYTES_20 84c8f8daf301ca375a01a17e41441429e19ef001 OP_EQUALVERIFY OP_CHECKSIG",
      "scriptpubkey_type": "p2pkh",
      "scriptpubkey_address": "1D76x7Dw73gcVjp9zVaUPtpkgJ9nBsQALy",
      "value": 1362867
    },
    {
      "scriptpubkey": "0014ce94b20cad71f22457ac3b69d10271714e0f2e78",
      "scriptpubkey_asm": "OP_0 OP_PUSHBYTES_20 ce94b20cad71f22457ac3b69d10271714e0f2e78",
      "scriptpubkey_type": "v0_p2wpkh",
      "scriptpubkey_address": "bc1qe62tyr9dw8ezg4av8d5azqn3w98q7tnctrwcvs",
      "value": 381700
    },
    {
      "scriptpubkey": "a91484e6df40e4fb134b5df5d0e14784a20f35330fd887",
      "scriptpubkey_asm": "OP_HASH160 OP_PUSHBYTES_20 84e6df40e4fb134b5df5d0e14784a20f35330fd8 OP_EQUAL",
      "scriptpubkey_type": "p2sh",
      "scriptpubkey_address": "3Dojh91oLjfzneXHZjqKcHUEZuwhoynUgo",
      "value": 3173476
    },
    {
      "scriptpubkey": "a914d0bef35db17bab2ab8b867168aa611617150beb987",
      "scriptpubkey_asm": "OP_HASH160 OP_PUSHBYTES_20 d0bef35db17bab2ab8b867168aa611617150beb9 OP_EQUAL",
      "scriptpubkey_type": "p2sh",
      "scriptpubkey_address": "3LimDvnUEMxGPWLM5W6sb9qmXJdT1AEh93",
      "value": 30000000
    },
    {
      "scriptpubkey": "0014839f422a0c5ac9829e94910df8cd1005aec97950",
      "scriptpubkey_asm": "OP_0 OP_PUSHBYTES_20 839f422a0c5ac9829e94910df8cd1005aec97950",
      "scriptpubkey_type": "v0_p2wpkh",
      "scriptpubkey_address": "bc1qsw05y2svttyc9855jyxl3ngsqkhvj72s04lrca",
      "value": 30506000
    }
  ],
  "size": 919,
  "weight": 3349,
  "fee": 41900,
  "status": {
    "confirmed": true,
    "block_height": 834638,
    "block_hash": "000000000000000000025f742c626208ac87e0b7d15054abb4a19ca2d735a54e",
    "block_time": 1710405325
  },
  "hex": "010000000001011c1ecac352abf6781c9d6738e19a7d18ade3addbd57ecb70cdd72331372d67ad0100000000ffffffff17e6983c00000000001600143af1ad53f4595c302e3012b23e205c0a76f9ab7f70a17d0400000000160014dc6bf86354105de2fcd9868a2b0376d6731cb92fa81a0c000000000017a914c9eb26d7d42d863c35fb6bbe7b18b2690b5d07378728860100000000001976a91439f4ba1f1d36a60d1925b301ae457f1db3b3fc8188ac767150000000000016001493be78f7ec5ef97d31bd8cce3d640fab0f709a90ab80050000000000160014f200cf272ddece5f98decca263284ec6fb5ebd6dc8390b00000000001976a914f8b2d0f915d777491e084db1d84ac335bc712ac388ac529b3500000000001600141670fa29a5e398c8817bfce253c326a439d653520b5e1800000000001600143b073829cc3df6e1c8cef1becd84afdd3aec80d160f9a0190000000017a9141fdfd25bb78c5ad5728a4a1b70bd94723605151887f638ce000000000017a9149a88793dd54fc82db42a2004562f125a53e689388745b70a0000000000225120df59144b488055ec00dce4781c239519a02f668d2407f0de12ddaa161782e6a68038010000000000160014c4f9ac87136fad6140bb7a282da2c821f30cb65d0f530400000000001976a91473f3090ed94a715451a0682c8414e3f33ee17a1f88aca45b0700000000001976a91475feebaa921e2f887d3f6febdf46af435e8f454888ac87bc0f000000000017a91438876bb2c7320a9547ceecf8af8cb8011e5288e487b0fb23000000000017a914c704fca71a07142eb76a0c17459fb8896d1b95ba8740420f0000000000220020749aacd6d144634b35d646ae7038a9ef2361bb8ada26226d893fe4b342532cb6b3cb1400000000001976a91484c8f8daf301ca375a01a17e41441429e19ef00188ac04d3050000000000160014ce94b20cad71f22457ac3b69d10271714e0f2e78646c30000000000017a91484e6df40e4fb134b5df5d0e14784a20f35330fd88780c3c9010000000017a914d0bef35db17bab2ab8b867168aa611617150beb987107cd10100000000160014839f422a0c5ac9829e94910df8cd1005aec979500247304402206af27aa73c48b75772b2771f189364b934635c956e54b29a559d864d961bc86f02204ffc199e26582b9f472d91b0442085794a3259b7ed22ff95117b83907baa9170012102174ee672429ff94304321cdae1fc1e487edf658b34bd1d36da03761658a2bb0900000000"
}