{
  "txid": "971eedc0589d4f56f2034ad35d1f507b5c0301ad57c5eaf3701306f00cf03f55",
  "version": 2,
  "locktime": 0,
  "vin": [
    {
      "txid": "acc3ba00869acb582a3f2904ce3a11dd3779350ce234063fc7d0959246213364",
      "vout": 159,
      "prevout": {
        "scriptpubkey": "51204f0ff334680d9ae7a945382b5a18ab03c1f822b42de5bd8dcfb2e13ca2537865",
        "scriptpubkey_asm": "OP_PUSHNUM_1 OP_PUSHBYTES_32 4f0ff334680d9ae7a945382b5a18ab03c1f822b42de5bd8dcfb2e13ca2537865",
        "scriptpubkey_type": "v1_p2tr",
        "scriptpubkey_address": "bc1pfu8lxdrgpkdw02298q445x9tq0qlsg459hjmmrw0ktsnegjn0pjsw0dutk",
        "value": 1806
      },
      "scriptsig": "",
      "scriptsig_asm": "",
      "witness": [
        "c7c13bbb4ce25a47f08ee063ee1a5640f6b1b928617355cf477a25323768dd3bbda033814534fdb6e9386d3abe1dd9f8e7747486380e7f37a2f908b122a7bd29",
        "2043eeefc86f82baf9a1da1e51ad683f8670618d5be9959cf211e91471d76663e8ac0063036f726401010a746578742f706c61696e00357b2270223a226272632d3230222c226f70223a226d696e74222c227469636b223a22646f6765222c22616d74223a2234323030227d68",
        "c043eeefc86f82baf9a1da1e51ad683f8670618d5be9959cf211e91471d76663e8"
      ],
      "is_coinbase": false,
      "sequence": 4261412863
    }
  ],
  "vout": [
    {
      "scriptpubkey": "00147a665de7a370f4c9b372ab1fae587500a5bcbdb4",
      "scriptpubkey_asm": "OP_0 OP_PUSHBYTES_20 7a665de7a370f4c9b372ab1fae587500a5bcbdb4",
      "scriptpubkey_type": "v0_p2wpkh",
      "scriptpubkey_address": "bc1q0fn9mearwr6vnvmj4v06ukr4qzjme0d565dzcx",
      "value": 294
    }
  ],
  "size": 294,
  "weight": 540,
  "fee": 1512,
  "status": {
    "confirmed": true,
    "block_height": 834460,
    "block_hash": "00000000000000000000484a79b643b2524bbce82e5d8a442013fa5b8905ed98",
    "block_time": 1710307468
  },
  "hex": "02000000000101643321469295d0c73f0634e20c357937dd113ace04293f2a58cb9a8600bac3ac9f00000000fffffffd0126010000000000001600147a665de7a370f4c9b372ab1fae587500a5bcbdb40340c7c13bbb4ce25a47f08ee063ee1a5640f6b1b928617355cf477a25323768dd3bbda033814534fdb6e9386d3abe1dd9f8e7747486380e7f37a2f908b122a7bd296d2043eeefc86f82baf9a1da1e51ad683f8670618d5be9959cf211e91471d76663e8ac0063036f726401010a746578742f706c61696e00357b2270223a226272632d3230222c226f70223a226d696e74222c227469636b223a22646f6765222c22616d74223a2234323030227d6821c043eeefc86f82baf9a1da1e51ad683f8670618d5be9959cf211e91471d76663e800000000"
}