{
  "txid": "973c608326bf0b025dae1c79ffa4ed0c8fea3d2f0031c7d2670f8baa9718c625",
  "version": 2,
  "locktime": 0,
  "vin": [
    {
      "txid": "5364a7872d3c401763d55833e69ff9887af308a6ad72519b91c58fea2af9116f",
      "vout": 0,
      "prevout": {
        "scriptpubkey": "0014c3fb4897f33d42a89b973ec8576aff62cc42b1f6",
        "scriptpubkey_asm": "OP_0 OP_PUSHBYTES_20 c3fb4897f33d42a89b973ec8576aff62cc42b1f6",
        "scriptpubkey_type": "v0_p2wpkh",
        "scriptpubkey_address": "bc1qc0a539ln84p23xuh8my9w6hlvtxy9v0klw7y8v",
        "value": 2359398
      },
      "scriptsig": "",
      "scriptsig_asm": "",
      "witness": [
        "3045022100c96557bf15ebf046042f01b1ea46c00595782f93563d60a1ca8f6e0a71a01aa602207cacee114c96ca7b3237ff148ca275f1e3d15ce8bdd3617c0aecc0dec1e27b8f01",
        "0328a4afb047d08255f5c26654fa520bb623edbfc65a9287c29833c84af398d40e"
      ],
      "is_coinbase": false,
      "sequence": 4294967295
    }
  ],
  "vout": [
    {
      "scriptpubkey": "0014369df7922b9a7662db81d2b5121a37df567cc581",
      "scriptpubkey_asm": "OP_0 OP_PUSHBYTES_20 369df7922b9a7662db81d2b5121a37df567cc581",
      "scriptpubkey_type": "v0_p2wpkh",
      "scriptpubkey_address": "bc1qx6wl0y3tnfmx9kup6263yx3hmat8e3vpd80ydc",
      "value": 317385
    },
    {
      "scriptpubkey": "00145c9cd03b2ff62cf0d5a3560b158d952b9964784c",
      "scriptpubkey_asm": "OP_0 OP_PUSHBYTES_20 5c9cd03b2ff62cf0d5a3560b158d952b9964784c",
      "scriptpubkey_type": "v0_p2wpkh",
      "scriptpubkey_address": "bc1qtjwdqwe07ck0p4dr2c93trv49wvkg7zvqgxxkt",
      "value": 2039916
    }
  ],
  "size": 223,
  "weight": 562,
  "fee": 2097,
  "status": {
    "confirmed": true,
    "block_height": 834638,
    "block_hash": "000000000000000000025f742c626208ac87e0b7d15054abb4a19ca2d735a54e",
    "block_time": 1710405325
  },
  "hex": "020000000001016f11f92aea8fc5919b5172ada608f37a88f99fe63358d56317403c2d87a764530000000000ffffffff02c9d7040000000000160014369df7922b9a7662db81d2b5121a37df567cc5816c201f00000000001600145c9cd03b2ff62cf0d5a3560b158d952b9964784c02483045022100c96557bf15ebf046042f01b1ea46c00595782f93563d60a1ca8f6e0a71a01aa602207cacee114c96ca7b3237ff148ca275f1e3d15ce8bdd3617c0aecc0dec1e27b8f01210328a4afb047d08255f5c26654fa520bb623edbfc65a9287c29833c84af398d40e00000000"
}