{
  "txid": "973cd86eaeaab97fa821a8015bf075682cd08c523f9b8b2ce5f91955639ba791",
  "version": 1,
  "locktime": 0,
  "vin": [
    {
      "txid": "888888fecb1f8ef38959982502b7eb3a8a25a77a2b890376de1b4c6cd7a81ead",
      "vout": 0,
      "prevout": {
        "scriptpubkey": "512099711df5bcbda5e53ad2ed2a8c5d582a537ec40808dffef757a396ac38530e02",
        "scriptpubkey_asm": "OP_PUSHNUM_1 OP_PUSHBYTES_32 99711df5bcbda5e53ad2ed2a8c5d582a537ec40808dffef757a396ac38530e02",
        "scriptpubkey_type": "v1_p2tr",
        "scriptpubkey_address": "bc1pn9c3maduhkj72wkja54gch2c9ffha3qgpr0laa6h5wt2cwznpcpqzxc8wn",
        "value": 11633
      },
      "scriptsig": "",
      "scriptsig_asm": "",
      "witness": [
        "c8b16f9afbb207895269a69d90d55b35175fa97933019e067618ecc158a82b57b9ef60eb2dc3d6963bbd662f84cdfed16aa729fdb9c0e7562fb5cc0b50b70ac883",
        "20be11f1d0580232188e877ef283eb5a1efd4e9e5290a2633605d666f59ad3fff2ac00630461746f6d03646d7444a16461726773a468626974776f726b63693838383838382e31356b6d696e745f7469636b657268696e66696e697479656e6f6e63651a005df5af6474696d651a65dc499b68",
        "c1be11f1d0580232188e877ef283eb5a1efd4e9e5290a2633605d666f59ad3fff2"
      ],
      "is_coinbase": false,
      "sequence": 4294967293
    }
  ],
  "vout": [
    {
      "scriptpubkey": "5120fbda7c96172ef5af32421e2bd3a48b8d66c1a711685841dce38688c270c8568e",
      "scriptpubkey_asm": "OP_PUSHNUM_1 OP_PUSHBYTES_32 fbda7c96172ef5af32421e2bd3a48b8d66c1a711685841dce38688c270c8568e",
      "scriptpubkey_type": "v1_p2tr",
      "scriptpubkey_address": "bc1pl0d8e9sh9m667vjzrc4a8fyt34nvrfc3dpvyrh8rs6yvyuxg268qgz3skz",
      "value": 9999
    }
  ],
  "size": 313,
  "weight": 595,
  "fee": 1634,
  "status": {
    "confirmed": true,
    "block_height": 834464,
    "block_hash": "0000000000000000000177a0869a911a2b65c9bdcd5a8bcb02b68f305bee848e",
    "block_time": 1710308296
  },
  "hex": "01000000000101ad1ea8d76c4c1bde7603892b7aa7258a3aebb70225985989f38e1fcbfe8888880000000000fdffffff010f27000000000000225120fbda7c96172ef5af32421e2bd3a48b8d66c1a711685841dce38688c270c8568e0341c8b16f9afbb207895269a69d90d55b35175fa97933019e067618ecc158a82b57b9ef60eb2dc3d6963bbd662f84cdfed16aa729fdb9c0e7562fb5cc0b50b70ac8837320be11f1d0580232188e877ef283eb5a1efd4e9e5290a2633605d666f59ad3fff2ac00630461746f6d03646d7444a16461726773a468626974776f726b63693838383838382e31356b6d696e745f7469636b657268696e66696e697479656e6f6e63651a005df5af6474696d651a65dc499b6821c1be11f1d0580232188e877ef283eb5a1efd4e9e5290a2633605d666f59ad3fff200000000"
}