{
  "txid": "9741d0052f92598c25ef2ca43cdaab73e2aae44e7a0675bb26a31538d53685d4",
  "version": 2,
  "locktime": 0,
  "vin": [
    {
      "txid": "acc3ba00869acb582a3f2904ce3a11dd3779350ce234063fc7d0959246213364",
      "vout": 101,
      "prevout": {
        "scriptpubkey": "512054a46163b5f6e783834e749609f6a2f3f5d98ae1d9e1184f9f46ff594aed86e3",
        "scriptpubkey_asm": "OP_PUSHNUM_1 OP_PUSHBYTES_32 54a46163b5f6e783834e749609f6a2f3f5d98ae1d9e1184f9f46ff594aed86e3",
        "scriptpubkey_type": "v1_p2tr",
        "scriptpubkey_address": "bc1p2jjxzca47mnc8q6wwjtqna4z706anzhpm8s3snulgml4jjhdsm3s0vca9z",
        "value": 1806
      },
      "scriptsig": "",
      "scriptsig_asm": "",
      "witness": [
        "efdac10994b0b0af975fd7f32fdabc15c8dd06c837e6aaa4ce3843b58a0ac337b4e2b0d9058107f944b6ea87914fdee00d3be4bdcd4d40ee2ab30fead588a01d",
        "20c13555ca7aabe15f8ea0cb26608b81ea45175dc5e071c16d4531e1b3d1e575f7ac0063036f726401010a746578742f706c61696e00357b2270223a226272632d3230222c226f70223a226d696e74222c227469636b223a22646f6765222c22616d74223a2234323030227d68",
        "c1c13555ca7aabe15f8ea0cb26608b81ea45175dc5e071c16d4531e1b3d1e575f7"
      ],
      "is_coinbase": false,
      "sequence": 4261412863
    }
  ],
  "vout": [
    {
      "scriptpubkey": "00147a665de7a370f4c9b372ab1fae587500a5bcbdb4",
      "scriptpubkey_asm": "OP_0 OP_PUSHBYTES_20 7a665de7a370f4c9b372ab1fae587500a5bcbdb4",
      "scriptpubkey_type": "v0_p2wpkh",
      "scriptpubkey_address": "bc1q0fn9mearwr6vnvmj4v06ukr4qzjme0d565dzcx",
      "value": 294
    }
  ],
  "size": 294,
  "weight": 540,
  "fee": 1512,
  "status": {
    "confirmed": true,
    "block_height": 834460,
    "block_hash": "00000000000000000000484a79b643b2524bbce82e5d8a442013fa5b8905ed98",
    "block_time": 1710307468
  },
  "hex": "02000000000101643321469295d0c73f0634e20c357937dd113ace04293f2a58cb9a8600bac3ac6500000000fffffffd0126010000000000001600147a665de7a370f4c9b372ab1fae587500a5bcbdb40340efdac10994b0b0af975fd7f32fdabc15c8dd06c837e6aaa4ce3843b58a0ac337b4e2b0d9058107f944b6ea87914fdee00d3be4bdcd4d40ee2ab30fead588a01d6d20c13555ca7aabe15f8ea0cb26608b81ea45175dc5e071c16d4531e1b3d1e575f7ac0063036f726401010a746578742f706c61696e00357b2270223a226272632d3230222c226f70223a226d696e74222c227469636b223a22646f6765222c22616d74223a2234323030227d6821c1c13555ca7aabe15f8ea0cb26608b81ea45175dc5e071c16d4531e1b3d1e575f700000000"
}