{
  "txid": "9741f2cc66730e45feb28d904dae8d5586797fe832aa78c66b200a1616a526e2",
  "version": 2,
  "locktime": 0,
  "vin": [
    {
      "txid": "addece2b7148f3eec5501d217eaecc1bedcc92cc8daa762e6ea22a55296ce5f0",
      "vout": 2,
      "prevout": {
        "scriptpubkey": "51209c4d3c212c2bc5294ec1a8caa48f24214632c0e63055970b8249b4815ac4c02d",
        "scriptpubkey_asm": "OP_PUSHNUM_1 OP_PUSHBYTES_32 9c4d3c212c2bc5294ec1a8caa48f24214632c0e63055970b8249b4815ac4c02d",
        "scriptpubkey_type": "v1_p2tr",
        "scriptpubkey_address": "bc1pn3xncgfv90zjjnkp4r92freyy9rr9s8xxp2ewzuzfx6gzkkycqkswgkvpd",
        "value": 3186
      },
      "scriptsig": "",
      "scriptsig_asm": "",
      "witness": [
        "79271c6b1dcfd520b7a1393411df67ffef8bc8716d98017c27796c57457f5c5061f94e9c3d0e6b42e7197fa0d270bc0376e4010d4a23832c695aa56eddc3d864",
        "206b86ec6e5b6c0a65a21ed05745382db133c862abde064e30c29d92727e560a6dac0063036f726401011e6170706c69636174696f6e2f6a736f6e3b636861727365743d7574662d38004cbf7b2270223a22706f772d3230222c226f70223a226d696e74222c227469636b223a2250455045222c22616d74223a2231303030222c22736f6c7574696f6e223a22504550453a6263317175723539363576617439393072726574303464657977386b6661743337756a676636737872303a303030303030303030303030303030303030303139393431613561653132383937363539383134343239323533333030353762306461393666336465613163353a3539393839303230313638227d68",
        "c1e183e6acc47e68e82f80645eb93989e5b065f5d320bfc36879234135be4580e3"
      ],
      "is_coinbase": false,
      "sequence": 4294967295
    }
  ],
  "vout": [
    {
      "scriptpubkey": "0014e0e85d519d594af18f2b7d5b9238f64f571f7248",
      "scriptpubkey_asm": "OP_0 OP_PUSHBYTES_20 e0e85d519d594af18f2b7d5b9238f64f571f7248",
      "scriptpubkey_type": "v0_p2wpkh",
      "scriptpubkey_address": "bc1qur5965vat990rret04deyw8kfat37ujgf6sxr0",
      "value": 546
    }
  ],
  "size": 455,
  "weight": 701,
  "fee": 2640,
  "status": {
    "confirmed": true,
    "block_height": 834460,
    "block_hash": "00000000000000000000484a79b643b2524bbce82e5d8a442013fa5b8905ed98",
    "block_time": 1710307468
  },
  "hex": "02000000000101f0e56c29552aa26e2e76aa8dcc92cced1bccae7e211d50c5eef348712bcedead0200000000ffffffff012202000000000000160014e0e85d519d594af18f2b7d5b9238f64f571f7248034079271c6b1dcfd520b7a1393411df67ffef8bc8716d98017c27796c57457f5c5061f94e9c3d0e6b42e7197fa0d270bc0376e4010d4a23832c695aa56eddc3d864fd0c01206b86ec6e5b6c0a65a21ed05745382db133c862abde064e30c29d92727e560a6dac0063036f726401011e6170706c69636174696f6e2f6a736f6e3b636861727365743d7574662d38004cbf7b2270223a22706f772d3230222c226f70223a226d696e74222c227469636b223a2250455045222c22616d74223a2231303030222c22736f6c7574696f6e223a22504550453a6263317175723539363576617439393072726574303464657977386b6661743337756a676636737872303a303030303030303030303030303030303030303139393431613561653132383937363539383134343239323533333030353762306461393666336465613163353a3539393839303230313638227d6821c1e183e6acc47e68e82f80645eb93989e5b065f5d320bfc36879234135be4580e300000000"
}