{
  "txid": "9742a3b2264a7debe84eb60e2ea796b3a19518e7f8d2a5f57389aeb9ff12a855",
  "version": 2,
  "locktime": 0,
  "vin": [
    {
      "txid": "33198a5cbe2a53fc30099ab53009144888cef479020e7acbc065183b03c26d7b",
      "vout": 16,
      "prevout": {
        "scriptpubkey": "5120647bad9ace6414904996c03b19c4e0e303ae821197f08fd7bd32bbcaacef9432",
        "scriptpubkey_asm": "OP_PUSHNUM_1 OP_PUSHBYTES_32 647bad9ace6414904996c03b19c4e0e303ae821197f08fd7bd32bbcaacef9432",
        "scriptpubkey_type": "v1_p2tr",
        "scriptpubkey_address": "bc1pv3a6mxkwvs2fqjvkcqa3n38quvp6aqs3jlcgl4aax2au4t80jseq4a4rq8",
        "value": 2646
      },
      "scriptsig": "",
      "scriptsig_asm": "",
      "witness": [
        "063b8459c88c64e8401e77b9c7d33db15aca27e3acc7fee2b80107e0933325a0aba6c966756c170499ab083860839da663612358a00b58a0374a8c2f3bd1f9d5",
        "201801f64959f5ac1d31444dc96291a0ff38031cbdae7b4adaa1835e3eb98eaa05ac0063036f726401011e6170706c69636174696f6e2f6a736f6e3b636861727365743d7574662d38004cbe7b2270223a22706f772d3230222c226f70223a226d696e74222c227469636b223a2250455045222c22616d74223a2231303030222c22736f6c7574696f6e223a22504550453a626331717832636c7935673578376b356a6b7376396d61346332753661646c7a78657470616e387071733a303030303030303030303030303030303030303139393431613561653132383937363539383134343239323533333030353762306461393666336465613163353a34323234393836313833227d68",
        "c0da2c9a1920efdfbecd176e4adbb0ca1150e62509fd8a3a19d8331b0c89a8a97b"
      ],
      "is_coinbase": false,
      "sequence": 4294967295
    }
  ],
  "vout": [
    {
      "scriptpubkey": "001432b1f2511437ad495a0c2efb5c2b9aeb7e236561",
      "scriptpubkey_asm": "OP_0 OP_PUSHBYTES_20 32b1f2511437ad495a0c2efb5c2b9aeb7e236561",
      "scriptpubkey_type": "v0_p2wpkh",
      "scriptpubkey_address": "bc1qx2cly5g5x7k5jksv9ma4c2u6adlzxetpan8pqs",
      "value": 546
    }
  ],
  "size": 454,
  "weight": 700,
  "fee": 2100,
  "status": {
    "confirmed": true,
    "block_height": 834460,
    "block_hash": "00000000000000000000484a79b643b2524bbce82e5d8a442013fa5b8905ed98",
    "block_time": 1710307468
  },
  "hex": "020000000001017b6dc2033b1865c0cb7a0e0279f4ce8848140930b59a0930fc532abe5c8a19331000000000ffffffff01220200000000000016001432b1f2511437ad495a0c2efb5c2b9aeb7e2365610340063b8459c88c64e8401e77b9c7d33db15aca27e3acc7fee2b80107e0933325a0aba6c966756c170499ab083860839da663612358a00b58a0374a8c2f3bd1f9d5fd0b01201801f64959f5ac1d31444dc96291a0ff38031cbdae7b4adaa1835e3eb98eaa05ac0063036f726401011e6170706c69636174696f6e2f6a736f6e3b636861727365743d7574662d38004cbe7b2270223a22706f772d3230222c226f70223a226d696e74222c227469636b223a2250455045222c22616d74223a2231303030222c22736f6c7574696f6e223a22504550453a626331717832636c7935673578376b356a6b7376396d61346332753661646c7a78657470616e387071733a303030303030303030303030303030303030303139393431613561653132383937363539383134343239323533333030353762306461393666336465613163353a34323234393836313833227d6821c0da2c9a1920efdfbecd176e4adbb0ca1150e62509fd8a3a19d8331b0c89a8a97b00000000"
}