{
  "txid": "974e9434250fd63b91112443c00d5d64d860a7686385e6382a479b75d30a5f70",
  "version": 2,
  "locktime": 834637,
  "vin": [
    {
      "txid": "b34374e10f4ff63989d05b7fc40dfd93d8afc2cea1f85848f8040bdc9f57bcb3",
      "vout": 32,
      "prevout": {
        "scriptpubkey": "0014f2679516e59e79de7583870c2ac5eddc15c1ca83",
        "scriptpubkey_asm": "OP_0 OP_PUSHBYTES_20 f2679516e59e79de7583870c2ac5eddc15c1ca83",
        "scriptpubkey_type": "v0_p2wpkh",
        "scriptpubkey_address": "bc1q7fne29h9neuauavrsuxz430dms2urj5rjznjyr",
        "value": 328168
      },
      "scriptsig": "",
      "scriptsig_asm": "",
      "witness": [
        "304402204fc21f1cb66098697b1945433d1526d4796a8d69b6153dccf615d544ca5ea41a022019170c89e590e2d7b50d1aad035323f10844caa4ca279def4e020030d4fb617a01",
        "0239949ef8239f42c27c3bc6f3b0c41b61ca5729d878a6f121302c01c778f545c4"
      ],
      "is_coinbase": false,
      "sequence": 4294967294
    },
    {
      "txid": "cc15db5309126c8887627a653e10681a25dfa9791b7313f07412a0dbe139b141",
      "vout": 71,
      "prevout": {
        "scriptpubkey": "0014279a255bcc207fb09296467143a7298361e8dd11",
        "scriptpubkey_asm": "OP_0 OP_PUSHBYTES_20 279a255bcc207fb09296467143a7298361e8dd11",
        "scriptpubkey_type": "v0_p2wpkh",
        "scriptpubkey_address": "bc1qy7dz2k7vyplmpy5kgec58fefsds73hg3mgycza",
        "value": 61021
      },
      "scriptsig": "",
      "scriptsig_asm": "",
      "witness": [
        "30440220501a84a8c3833b1e16e19be3584e6691ec1bab2f2aa47151dc0186c65b44919f02206caf25d00ca618aaebed80700f0b6e71717fe30b2b59e9649d328818c687328401",
        "02636048b9227199a46f55f8aa5b33511dd034dab4234df5063bee8c8f041aa9ef"
      ],
      "is_coinbase": false,
      "sequence": 4294967294
    },
    {
      "txid": "f9d5bb096e2025958e59ad6989aa850ce378eba311dcc38e0d2841e0f5a8b468",
      "vout": 0,
      "prevout": {
        "scriptpubkey": "00144ba7f3399ff9402ed5b6b8557ad9135c87787668",
        "scriptpubkey_asm": "OP_0 OP_PUSHBYTES_20 4ba7f3399ff9402ed5b6b8557ad9135c87787668",
        "scriptpubkey_type": "v0_p2wpkh",
        "scriptpubkey_address": "bc1qfwnlxwvll9qza4dkhp2h4kgntjrhsang0cmcrn",
        "value": 163320
      },
      "scriptsig": "",
      "scriptsig_asm": "",
      "witness": [
        "30440220370516535f2aea8bbde7e6c1a4179323ab468b5e7566e450031469fc7caeefdb0220015661da13b3e38a95fe2730deb258d6ad7017373f304850e4a09a81ee22774701",
        "036dea957d4003582b295461cd15dab9ad87b569097c1ff716f1d248466317da85"
      ],
      "is_coinbase": false,
      "sequence": 4294967294
    }
  ],
  "vout": [
    {
      "scriptpubkey": "a9140b3abe862e516adf9378c4cb1c4370414e49664c87",
      "scriptpubkey_asm": "OP_HASH160 OP_PUSHBYTES_20 0b3abe862e516adf9378c4cb1c4370414e49664c OP_EQUAL",
      "scriptpubkey_type": "p2sh",
      "scriptpubkey_address": "32iPjGtyXEzNUViZvRZoWdimkd5e69cLiB",
      "value": 545600
    }
  ],
  "size": 488,
  "weight": 983,
  "fee": 6909,
  "status": {
    "confirmed": true,
    "block_height": 834638,
    "block_hash": "000000000000000000025f742c626208ac87e0b7d15054abb4a19ca2d735a54e",
    "block_time": 1710405325
  },
  "hex": "02000000000103b3bc579fdc0b04f84858f8a1cec2afd893fd0dc47f5bd08939f64f0fe17443b32000000000feffffff41b139e1dba01274f013731b79a9df251a68103e657a6287886c120953db15cc4700000000feffffff68b4a8f5e041280d8ec3dc11a3eb78e30c85aa8969ad598e9525206e09bbd5f90000000000feffffff01405308000000000017a9140b3abe862e516adf9378c4cb1c4370414e49664c870247304402204fc21f1cb66098697b1945433d1526d4796a8d69b6153dccf615d544ca5ea41a022019170c89e590e2d7b50d1aad035323f10844caa4ca279def4e020030d4fb617a01210239949ef8239f42c27c3bc6f3b0c41b61ca5729d878a6f121302c01c778f545c4024730440220501a84a8c3833b1e16e19be3584e6691ec1bab2f2aa47151dc0186c65b44919f02206caf25d00ca618aaebed80700f0b6e71717fe30b2b59e9649d328818c6873284012102636048b9227199a46f55f8aa5b33511dd034dab4234df5063bee8c8f041aa9ef024730440220370516535f2aea8bbde7e6c1a4179323ab468b5e7566e450031469fc7caeefdb0220015661da13b3e38a95fe2730deb258d6ad7017373f304850e4a09a81ee2277470121036dea957d4003582b295461cd15dab9ad87b569097c1ff716f1d248466317da854dbc0c00"
}