{
  "txid": "975258d2c45a91a46b28f7edb3bcdabc9ce7a5c646f0bc1e76ff66d558df8be2",
  "version": 2,
  "locktime": 834637,
  "vin": [
    {
      "txid": "9cee2d55ea102faecae5a88a54124cdc8ef445bf1ca81c5dfd3be73653269952",
      "vout": 1,
      "prevout": {
        "scriptpubkey": "001444a644112cd4862a7dd352a9d920e44122262be8",
        "scriptpubkey_asm": "OP_0 OP_PUSHBYTES_20 44a644112cd4862a7dd352a9d920e44122262be8",
        "scriptpubkey_type": "v0_p2wpkh",
        "scriptpubkey_address": "bc1qgjnygyfv6jrz5lwn225ajg8ygy3zv2lgqwf8q4",
        "value": 319992400
      },
      "scriptsig": "",
      "scriptsig_asm": "",
      "witness": [
        "304402201ec9204b2ad1bd41c562e5a972ec8cbf510f691372cd6250b29a16ba2e141e1b02206fbdc05ee7e79ba8f5597e4f448889bd1096c632878c3a40e012ebcadabfcd0a01",
        "033827c828695bae9e7df3be6382fa2ffbe7dd69c26bf11b6c01b54f33dcd2d810"
      ],
      "is_coinbase": false,
      "sequence": 4294967293
    }
  ],
  "vout": [
    {
      "scriptpubkey": "a914a9cf706b0d6ea4d7f67a443bb633d129cc49575887",
      "scriptpubkey_asm": "OP_HASH160 OP_PUSHBYTES_20 a9cf706b0d6ea4d7f67a443bb633d129cc495758 OP_EQUAL",
      "scriptpubkey_type": "p2sh",
      "scriptpubkey_address": "3HAtd5z9GwP8vipnfcFi6KBF8RWxqiJNAi",
      "value": 82000000
    },
    {
      "scriptpubkey": "0014223b6a16f03d4671cdfb416ff01c376ed43196b4",
      "scriptpubkey_asm": "OP_0 OP_PUSHBYTES_20 223b6a16f03d4671cdfb416ff01c376ed43196b4",
      "scriptpubkey_type": "v0_p2wpkh",
      "scriptpubkey_address": "bc1qygak59hs84r8rn0mg9hlq8phdm2rr945mrlaqt",
      "value": 237988100
    }
  ],
  "size": 223,
  "weight": 565,
  "fee": 4300,
  "status": {
    "confirmed": true,
    "block_height": 834638,
    "block_hash": "000000000000000000025f742c626208ac87e0b7d15054abb4a19ca2d735a54e",
    "block_time": 1710405325
  },
  "hex": "020000000001015299265336e73bfd5d1ca81cbf45f48edc4c12548aa8e5caae2f10ea552dee9c0100000000fdffffff028038e3040000000017a914a9cf706b0d6ea4d7f67a443bb633d129cc4957588704692f0e00000000160014223b6a16f03d4671cdfb416ff01c376ed43196b40247304402201ec9204b2ad1bd41c562e5a972ec8cbf510f691372cd6250b29a16ba2e141e1b02206fbdc05ee7e79ba8f5597e4f448889bd1096c632878c3a40e012ebcadabfcd0a0121033827c828695bae9e7df3be6382fa2ffbe7dd69c26bf11b6c01b54f33dcd2d8104dbc0c00"
}