{
  "txid": "97677e4f0f3a121c7d76ca49534b4dfb4f5312da4509b1e4a0a569381c25d17c",
  "version": 2,
  "locktime": 0,
  "vin": [
    {
      "txid": "99c2b79dc8ba0b1b62356aeaed4e53134e91a75e974cc846c9f06dddfb65cb19",
      "vout": 33,
      "prevout": {
        "scriptpubkey": "0014854356992be8ae9d340e0b8bb6ade805348f5138",
        "scriptpubkey_asm": "OP_0 OP_PUSHBYTES_20 854356992be8ae9d340e0b8bb6ade805348f5138",
        "scriptpubkey_type": "v0_p2wpkh",
        "scriptpubkey_address": "bc1qs4p4dxftazhf6dqwpw9mdt0gq56g75fckvmwe9",
        "value": 364456
      },
      "scriptsig": "",
      "scriptsig_asm": "",
      "witness": [
        "3044022002eab085bc81ba5aafd6c1c1aa838d54776117377a50f811638f4d895537bf260220241329b881f0e57133dbb3b3b5f316a201d1d51bbdaf45bec3c49a390e7e3de501",
        "03cf95224ea0848ab8667b4d0e2536812a6ed5cdd50e2790b045b98c76ea2bba88"
      ],
      "is_coinbase": false,
      "sequence": 4294967293
    },
    {
      "txid": "118cb5c476c9f107d97296955474af819ac746e8e31aa1f75d88ee2277b56e11",
      "vout": 91,
      "prevout": {
        "scriptpubkey": "0014fd4bbb131719c826ed72fc2fd677da84f64843bf",
        "scriptpubkey_asm": "OP_0 OP_PUSHBYTES_20 fd4bbb131719c826ed72fc2fd677da84f64843bf",
        "scriptpubkey_type": "v0_p2wpkh",
        "scriptpubkey_address": "bc1ql49mkychr8yzdmtjlshava76snmyssalftzywe",
        "value": 19355
      },
      "scriptsig": "",
      "scriptsig_asm": "",
      "witness": [
        "3045022100a6bf7ee259e8df1ab3f0289e0fdd3521e0e609515b1b697905057ad738dad72302202da09eaeb33983f8df6df584afa6007c3b4255b1bb7710653e9dc5552cb4baf101",
        "021df18f6f93c879cfc116ed8682142c036309ac6b4266ddbe64a2cdd4f8d10ab8"
      ],
      "is_coinbase": false,
      "sequence": 4294967293
    }
  ],
  "vout": [
    {
      "scriptpubkey": "0014e49b5aa6a8ca9ea6342cf8f67136fc21e9780289",
      "scriptpubkey_asm": "OP_0 OP_PUSHBYTES_20 e49b5aa6a8ca9ea6342cf8f67136fc21e9780289",
      "scriptpubkey_type": "v0_p2wpkh",
      "scriptpubkey_address": "bc1qujd44f4ge202vdpvlrm8zdhuy85hsq5fxjdrz6",
      "value": 381675
    }
  ],
  "size": 340,
  "weight": 709,
  "fee": 2136,
  "status": {
    "confirmed": true,
    "block_height": 834460,
    "block_hash": "00000000000000000000484a79b643b2524bbce82e5d8a442013fa5b8905ed98",
    "block_time": 1710307468
  },
  "hex": "0200000000010219cb65fbdd6df0c946c84c975ea7914e13534eedea6a35621b0bbac89db7c2992100000000fdffffff116eb57722ee885df7a11ae3e846c79a81af7454959672d907f1c976c4b58c115b00000000fdffffff01ebd2050000000000160014e49b5aa6a8ca9ea6342cf8f67136fc21e978028902473044022002eab085bc81ba5aafd6c1c1aa838d54776117377a50f811638f4d895537bf260220241329b881f0e57133dbb3b3b5f316a201d1d51bbdaf45bec3c49a390e7e3de5012103cf95224ea0848ab8667b4d0e2536812a6ed5cdd50e2790b045b98c76ea2bba8802483045022100a6bf7ee259e8df1ab3f0289e0fdd3521e0e609515b1b697905057ad738dad72302202da09eaeb33983f8df6df584afa6007c3b4255b1bb7710653e9dc5552cb4baf10121021df18f6f93c879cfc116ed8682142c036309ac6b4266ddbe64a2cdd4f8d10ab800000000"
}