{
  "txid": "97808dbceed22294e2ea05aa750ef944a60775eee96e02d28628dd0b115bfc3e",
  "version": 2,
  "locktime": 0,
  "vin": [
    {
      "txid": "d8e096b3efc30c997f46e737a6db91a03a168bd8d0919949e5533ca9b839646a",
      "vout": 23,
      "prevout": {
        "scriptpubkey": "00140a582f8e0e8573ec4ac3de21c050758724bf4773",
        "scriptpubkey_asm": "OP_0 OP_PUSHBYTES_20 0a582f8e0e8573ec4ac3de21c050758724bf4773",
        "scriptpubkey_type": "v0_p2wpkh",
        "scriptpubkey_address": "bc1qpfvzlrsws4e7cjkrmcsuq5r4sujt73mnwst8cs",
        "value": 1120500
      },
      "scriptsig": "",
      "scriptsig_asm": "",
      "witness": [
        "3045022100e07e16cc67d05019cc6abd356d93fd88359c69f1a6ab2b1f4c37d2134fc85c3e0220251dd95e98aae560868171cbfdb643fc52a6b4806f3c21d22a0a322aa0e5843901",
        "03a7a5ebbc0791734665ab3598ad37dcd9f3a338f01eba159aa6fad7690e3e4c2b"
      ],
      "is_coinbase": false,
      "sequence": 4294967295
    },
    {
      "txid": "0ffff831cf39a7a3cc7364128b1002f76be45e809e8cc261bc4394d6babb5e84",
      "vout": 7,
      "prevout": {
        "scriptpubkey": "0014574423c17fcdc55e29a6911055996472b26da081",
        "scriptpubkey_asm": "OP_0 OP_PUSHBYTES_20 574423c17fcdc55e29a6911055996472b26da081",
        "scriptpubkey_type": "v0_p2wpkh",
        "scriptpubkey_address": "bc1q2azz8stlehz4u2dxjyg9txtyw2exmgypdwlh73",
        "value": 1094396
      },
      "scriptsig": "",
      "scriptsig_asm": "",
      "witness": [
        "304402204bd2d8ac024d7ebb544d5cd2c964c07db5c5ad5ca38328d9b0d217c6188ac7a802206ec8b4251349058b20880c16d28f95a48b1605f04e9d14c8ed8347ab42ac4b2e01",
        "0228356d3aaeaa5d91c4cec98cc335f547d57dfda1c374ae752c2749f0b8ab8008"
      ],
      "is_coinbase": false,
      "sequence": 4294967295
    }
  ],
  "vout": [
    {
      "scriptpubkey": "76a914d7fe34324f9c1db7817dabc9fa07d55b81eb7c5888ac",
      "scriptpubkey_asm": "OP_DUP OP_HASH160 OP_PUSHBYTES_20 d7fe34324f9c1db7817dabc9fa07d55b81eb7c58 OP_EQUALVERIFY OP_CHECKSIG",
      "scriptpubkey_type": "p2pkh",
      "scriptpubkey_address": "1Lh4oe6micf26iWbzMZHayY3aXQnfh75PK",
      "value": 1770000
    },
    {
      "scriptpubkey": "001490826f13f3a627841b0697708f3cf6bbf320c5eb",
      "scriptpubkey_asm": "OP_0 OP_PUSHBYTES_20 90826f13f3a627841b0697708f3cf6bbf320c5eb",
      "scriptpubkey_type": "v0_p2wpkh",
      "scriptpubkey_address": "bc1qjzpx7yln5cncgxcxjacg708kh0ejp30tzncr8j",
      "value": 441062
    }
  ],
  "size": 374,
  "weight": 845,
  "fee": 3834,
  "status": {
    "confirmed": true,
    "block_height": 834638,
    "block_hash": "000000000000000000025f742c626208ac87e0b7d15054abb4a19ca2d735a54e",
    "block_time": 1710405325
  },
  "hex": "020000000001026a6439b8a93c53e5499991d0d88b163aa091dba637e7467f990cc3efb396e0d81700000000ffffffff845ebbbad69443bc61c28c9e805ee46bf702108b126473cca3a739cf31f8ff0f0700000000ffffffff0210021b00000000001976a914d7fe34324f9c1db7817dabc9fa07d55b81eb7c5888ace6ba06000000000016001490826f13f3a627841b0697708f3cf6bbf320c5eb02483045022100e07e16cc67d05019cc6abd356d93fd88359c69f1a6ab2b1f4c37d2134fc85c3e0220251dd95e98aae560868171cbfdb643fc52a6b4806f3c21d22a0a322aa0e58439012103a7a5ebbc0791734665ab3598ad37dcd9f3a338f01eba159aa6fad7690e3e4c2b0247304402204bd2d8ac024d7ebb544d5cd2c964c07db5c5ad5ca38328d9b0d217c6188ac7a802206ec8b4251349058b20880c16d28f95a48b1605f04e9d14c8ed8347ab42ac4b2e01210228356d3aaeaa5d91c4cec98cc335f547d57dfda1c374ae752c2749f0b8ab800800000000"
}