{
  "txid": "979ee2a335c2899af2bb7c97d4b0795a05eb75a3ead80b5cf876594b9430c859",
  "version": 2,
  "locktime": 0,
  "vin": [
    {
      "txid": "acc3ba00869acb582a3f2904ce3a11dd3779350ce234063fc7d0959246213364",
      "vout": 250,
      "prevout": {
        "scriptpubkey": "5120c58844aa4e46b0b25058a1df560d1c28630331f450f5f2e6718d7e737df10208",
        "scriptpubkey_asm": "OP_PUSHNUM_1 OP_PUSHBYTES_32 c58844aa4e46b0b25058a1df560d1c28630331f450f5f2e6718d7e737df10208",
        "scriptpubkey_type": "v1_p2tr",
        "scriptpubkey_address": "bc1pckyyf2jwg6cty5zc5804vrgu9p3sxv052r6l9en334l8xl03qgyqdxuvv8",
        "value": 1806
      },
      "scriptsig": "",
      "scriptsig_asm": "",
      "witness": [
        "3ba2a646ada3a0fc7480e8b96b7032fb1e0c71e4fb2bc22085f444638d6e8913071d2fe4794faa57243ce119da334d8687d00be8a2a6e53a32d42239a1cb21c0",
        "206d2cc1c79933b66839c2890a09de2e4185662a90a29131260c5b5ffd9fad5021ac0063036f726401010a746578742f706c61696e00357b2270223a226272632d3230222c226f70223a226d696e74222c227469636b223a22646f6765222c22616d74223a2234323030227d68",
        "c16d2cc1c79933b66839c2890a09de2e4185662a90a29131260c5b5ffd9fad5021"
      ],
      "is_coinbase": false,
      "sequence": 4261412863
    }
  ],
  "vout": [
    {
      "scriptpubkey": "00147a665de7a370f4c9b372ab1fae587500a5bcbdb4",
      "scriptpubkey_asm": "OP_0 OP_PUSHBYTES_20 7a665de7a370f4c9b372ab1fae587500a5bcbdb4",
      "scriptpubkey_type": "v0_p2wpkh",
      "scriptpubkey_address": "bc1q0fn9mearwr6vnvmj4v06ukr4qzjme0d565dzcx",
      "value": 294
    }
  ],
  "size": 294,
  "weight": 540,
  "fee": 1512,
  "status": {
    "confirmed": true,
    "block_height": 834460,
    "block_hash": "00000000000000000000484a79b643b2524bbce82e5d8a442013fa5b8905ed98",
    "block_time": 1710307468
  },
  "hex": "02000000000101643321469295d0c73f0634e20c357937dd113ace04293f2a58cb9a8600bac3acfa00000000fffffffd0126010000000000001600147a665de7a370f4c9b372ab1fae587500a5bcbdb403403ba2a646ada3a0fc7480e8b96b7032fb1e0c71e4fb2bc22085f444638d6e8913071d2fe4794faa57243ce119da334d8687d00be8a2a6e53a32d42239a1cb21c06d206d2cc1c79933b66839c2890a09de2e4185662a90a29131260c5b5ffd9fad5021ac0063036f726401010a746578742f706c61696e00357b2270223a226272632d3230222c226f70223a226d696e74222c227469636b223a22646f6765222c22616d74223a2234323030227d6821c16d2cc1c79933b66839c2890a09de2e4185662a90a29131260c5b5ffd9fad502100000000"
}