{
  "txid": "97a08bd37176e19d096aea29b4e8056f37a1044cbd0c360952eff0d2f1e66e14",
  "version": 2,
  "locktime": 0,
  "vin": [
    {
      "txid": "12848a1f84ad552475e874cce291926f292412de23b7537898e98c7370f2e86c",
      "vout": 6,
      "prevout": {
        "scriptpubkey": "51202a595a3015247c10615217b8134aa11d5af1ccaf23005c2a320d2f10afaeeb31",
        "scriptpubkey_asm": "OP_PUSHNUM_1 OP_PUSHBYTES_32 2a595a3015247c10615217b8134aa11d5af1ccaf23005c2a320d2f10afaeeb31",
        "scriptpubkey_type": "v1_p2tr",
        "scriptpubkey_address": "bc1p9fv45vq4y37pqc2jz7upxj4pr4d0rn90yvq9c23jp5h3ptawavcs3ceh25",
        "value": 2358
      },
      "scriptsig": "",
      "scriptsig_asm": "",
      "witness": [
        "6e20d903fd6a04d8e151bcd620e9a279310473fbaa49f8821feff8bccdb30080df4773b61259e0759e793d9999b95cd9627cd66c955cc986a87c60f0a0f3f111",
        "2067024f11fe3449c1faa6b75113aea74d26c9a3064b47b0c52d93b262ee6cbaadac0063036f7264010118746578742f706c61696e3b636861727365743d7574662d3800377b2270223a226272632d3230222c226f70223a226d696e74222c227469636b223a22424f424f222c22616d74223a22313030303030227d68",
        "c0507504f881a2548efcb0bd8b5287fd78c473d5bd35b181abdd5c5cd6d10de204"
      ],
      "is_coinbase": false,
      "sequence": 4294967295
    }
  ],
  "vout": [
    {
      "scriptpubkey": "512048d62e6aa4ce9b4b4d760b1dc0c3e46b46d84be76ae456792a664139e7aaa19c",
      "scriptpubkey_asm": "OP_PUSHNUM_1 OP_PUSHBYTES_32 48d62e6aa4ce9b4b4d760b1dc0c3e46b46d84be76ae456792a664139e7aaa19c",
      "scriptpubkey_type": "v1_p2tr",
      "scriptpubkey_address": "bc1pfrtzu64ye6d5kntkpvwupslyddrdsjl8dtj9v7f2veqnnea25xwqu8ycu4",
      "value": 546
    }
  ],
  "size": 322,
  "weight": 604,
  "fee": 1812,
  "status": {
    "confirmed": true,
    "block_height": 834460,
    "block_hash": "00000000000000000000484a79b643b2524bbce82e5d8a442013fa5b8905ed98",
    "block_time": 1710307468
  },
  "hex": "020000000001016ce8f270738ce9987853b723de1224296f9291e2cc74e8752455ad841f8a84120600000000ffffffff01220200000000000022512048d62e6aa4ce9b4b4d760b1dc0c3e46b46d84be76ae456792a664139e7aaa19c03406e20d903fd6a04d8e151bcd620e9a279310473fbaa49f8821feff8bccdb30080df4773b61259e0759e793d9999b95cd9627cd66c955cc986a87c60f0a0f3f1117d2067024f11fe3449c1faa6b75113aea74d26c9a3064b47b0c52d93b262ee6cbaadac0063036f7264010118746578742f706c61696e3b636861727365743d7574662d3800377b2270223a226272632d3230222c226f70223a226d696e74222c227469636b223a22424f424f222c22616d74223a22313030303030227d6821c0507504f881a2548efcb0bd8b5287fd78c473d5bd35b181abdd5c5cd6d10de20400000000"
}