{
  "txid": "97a227417192c03553b1901e85ed3e5a17633f47999100eb7503e5d6f3fa7185",
  "version": 1,
  "locktime": 0,
  "vin": [
    {
      "txid": "4a684bc9cfa5c7bc540f13995d58aa62d8ecc43f49d5a8c2cb782710a4ad0d0d",
      "vout": 81,
      "prevout": {
        "scriptpubkey": "0014738cb9ec829bcd48acda6829e765e7f6bb5afeeb",
        "scriptpubkey_asm": "OP_0 OP_PUSHBYTES_20 738cb9ec829bcd48acda6829e765e7f6bb5afeeb",
        "scriptpubkey_type": "v0_p2wpkh",
        "scriptpubkey_address": "bc1qwwxtnmyzn0x53tx6dq57we0876a44lhttp0s8j",
        "value": 34187
      },
      "scriptsig": "",
      "scriptsig_asm": "",
      "witness": [
        "304402202f4c087238d225a4d39baf990fb1641cd01fbfb67889497ef344452c75d70bb6022021a45a9a74975822ab11a623fa056ce3ad51401020a5be5515e8f10f690be2f101",
        "0247fc2be90253d100f6ccb8d3ef953fccb154678daccbcf1b7c61c7a1e557be41"
      ],
      "is_coinbase": false,
      "sequence": 4294967295
    },
    {
      "txid": "376ba6569cd17ea790657344bf16494ee309ff2ee0d03fba6d971b64ad79a472",
      "vout": 54,
      "prevout": {
        "scriptpubkey": "0014738cb9ec829bcd48acda6829e765e7f6bb5afeeb",
        "scriptpubkey_asm": "OP_0 OP_PUSHBYTES_20 738cb9ec829bcd48acda6829e765e7f6bb5afeeb",
        "scriptpubkey_type": "v0_p2wpkh",
        "scriptpubkey_address": "bc1qwwxtnmyzn0x53tx6dq57we0876a44lhttp0s8j",
        "value": 25257
      },
      "scriptsig": "",
      "scriptsig_asm": "",
      "witness": [
        "3045022100ca0ce241a180b092da5ab27f4314111f59219bff9ddcf63756707c5fb4771ebd0220319aa786bacc38a29118ecf711b86908cbd8401b1df4cdceb50eef26d14771cc01",
        "0247fc2be90253d100f6ccb8d3ef953fccb154678daccbcf1b7c61c7a1e557be41"
      ],
      "is_coinbase": false,
      "sequence": 4294967295
    },
    {
      "txid": "eec22b5c73d3670f62d387357b8504af4769444e6dc7157437067951f420aff1",
      "vout": 70,
      "prevout": {
        "scriptpubkey": "0014738cb9ec829bcd48acda6829e765e7f6bb5afeeb",
        "scriptpubkey_asm": "OP_0 OP_PUSHBYTES_20 738cb9ec829bcd48acda6829e765e7f6bb5afeeb",
        "scriptpubkey_type": "v0_p2wpkh",
        "scriptpubkey_address": "bc1qwwxtnmyzn0x53tx6dq57we0876a44lhttp0s8j",
        "value": 13955
      },
      "scriptsig": "",
      "scriptsig_asm": "",
      "witness": [
        "3045022100ceffd6765c8f3a7a33fb0e96ae0fab7caaa53c8118d2bb03613ac2bdb49d610c0220632e423d1c5109d226170f37a67044aa39100cdd3a5bbf72804aa77f96ade0b801",
        "0247fc2be90253d100f6ccb8d3ef953fccb154678daccbcf1b7c61c7a1e557be41"
      ],
      "is_coinbase": false,
      "sequence": 4294967295
    },
    {
      "txid": "00c3ece82fa464d562ead65c8f5b7fce556730cb96cae6491a188f397308a074",
      "vout": 107,
      "prevout": {
        "scriptpubkey": "0014738cb9ec829bcd48acda6829e765e7f6bb5afeeb",
        "scriptpubkey_asm": "OP_0 OP_PUSHBYTES_20 738cb9ec829bcd48acda6829e765e7f6bb5afeeb",
        "scriptpubkey_type": "v0_p2wpkh",
        "scriptpubkey_address": "bc1qwwxtnmyzn0x53tx6dq57we0876a44lhttp0s8j",
        "value": 13546
      },
      "scriptsig": "",
      "scriptsig_asm": "",
      "witness": [
        "3044022075e9f6485b1a94fb8642748535ebe999c910a923ab1672afd57a4f6baf847cb302206eb39cf32b4d03b37a23913f0bf7d553a68226a7fa49d660a633b25a5dbcf16d01",
        "0247fc2be90253d100f6ccb8d3ef953fccb154678daccbcf1b7c61c7a1e557be41"
      ],
      "is_coinbase": false,
      "sequence": 4294967295
    },
    {
      "txid": "46db59457d326577a3cd71a7e854a70e15c7357b285ce2ad9a528bf1f46c81c3",
      "vout": 106,
      "prevout": {
        "scriptpubkey": "0014738cb9ec829bcd48acda6829e765e7f6bb5afeeb",
        "scriptpubkey_asm": "OP_0 OP_PUSHBYTES_20 738cb9ec829bcd48acda6829e765e7f6bb5afeeb",
        "scriptpubkey_type": "v0_p2wpkh",
        "scriptpubkey_address": "bc1qwwxtnmyzn0x53tx6dq57we0876a44lhttp0s8j",
        "value": 12337
      },
      "scriptsig": "",
      "scriptsig_asm": "",
      "witness": [
        "304502210089e22a8ecb93db035e667617d2f0d35337461a02cf215373ae8e71089a5fa7db02205c29d78d854a4b039b65a1782613caa87e912a7af20ffec59347a9d36e8eaccd01",
        "0247fc2be90253d100f6ccb8d3ef953fccb154678daccbcf1b7c61c7a1e557be41"
      ],
      "is_coinbase": false,
      "sequence": 4294967295
    },
    {
      "txid": "6d116d170da6c4b75e1638f73eeeee3eb0d8fe7cce7cc85a69f8e06ec6bc0473",
      "vout": 69,
      "prevout": {
        "scriptpubkey": "0014738cb9ec829bcd48acda6829e765e7f6bb5afeeb",
        "scriptpubkey_asm": "OP_0 OP_PUSHBYTES_20 738cb9ec829bcd48acda6829e765e7f6bb5afeeb",
        "scriptpubkey_type": "v0_p2wpkh",
        "scriptpubkey_address": "bc1qwwxtnmyzn0x53tx6dq57we0876a44lhttp0s8j",
        "value": 20114
      },
      "scriptsig": "",
      "scriptsig_asm": "",
      "witness": [
        "3045022100d2a90c103a9ded55c63124ff0fa78d65d0bb77159b8e0c935e1f46dd1b9e7ca20220066ce186576f860331455799a79df7ca18d37030bc40336f96246db9e5949b0e01",
        "0247fc2be90253d100f6ccb8d3ef953fccb154678daccbcf1b7c61c7a1e557be41"
      ],
      "is_coinbase": false,
      "sequence": 4294967295
    },
    {
      "txid": "d48f304408f6cf72022c1789395bd80370817dd8673d773fc20798a5acfc8ab8",
      "vout": 168,
      "prevout": {
        "scriptpubkey": "0014738cb9ec829bcd48acda6829e765e7f6bb5afeeb",
        "scriptpubkey_asm": "OP_0 OP_PUSHBYTES_20 738cb9ec829bcd48acda6829e765e7f6bb5afeeb",
        "scriptpubkey_type": "v0_p2wpkh",
        "scriptpubkey_address": "bc1qwwxtnmyzn0x53tx6dq57we0876a44lhttp0s8j",
        "value": 19676
      },
      "scriptsig": "",
      "scriptsig_asm": "",
      "witness": [
        "3045022100c84ba16e7fcdcaddb4137bdaaf8368975580e113b7876b3ac1766db40c5b0ec10220627d62953bce8221a021938f8fcedaa881289e8bef2a0207f1972df41f22f91501",
        "0247fc2be90253d100f6ccb8d3ef953fccb154678daccbcf1b7c61c7a1e557be41"
      ],
      "is_coinbase": false,
      "sequence": 4294967295
    },
    {
      "txid": "62bb24a1d6446e582b78825ba5ff65c16122bbd569bf72a7e9ade8256b2c2e19",
      "vout": 86,
      "prevout": {
        "scriptpubkey": "0014738cb9ec829bcd48acda6829e765e7f6bb5afeeb",
        "scriptpubkey_asm": "OP_0 OP_PUSHBYTES_20 738cb9ec829bcd48acda6829e765e7f6bb5afeeb",
        "scriptpubkey_type": "v0_p2wpkh",
        "scriptpubkey_address": "bc1qwwxtnmyzn0x53tx6dq57we0876a44lhttp0s8j",
        "value": 21699
      },
      "scriptsig": "",
      "scriptsig_asm": "",
      "witness": [
        "30440220075bc39d153128054d6ed6b993627922912db5dbdb90cc687611981d585d935f02206ca862941e9a53e20d112fbafd084a3a1ef8638c15dac17bc05ae6553d35460601",
        "0247fc2be90253d100f6ccb8d3ef953fccb154678daccbcf1b7c61c7a1e557be41"
      ],
      "is_coinbase": false,
      "sequence": 4294967295
    },
    {
      "txid": "f167d900427b20dda6b7cb28423099bae5487846880628b05242c48c52476db0",
      "vout": 120,
      "prevout": {
        "scriptpubkey": "0014738cb9ec829bcd48acda6829e765e7f6bb5afeeb",
        "scriptpubkey_asm": "OP_0 OP_PUSHBYTES_20 738cb9ec829bcd48acda6829e765e7f6bb5afeeb",
        "scriptpubkey_type": "v0_p2wpkh",
        "scriptpubkey_address": "bc1qwwxtnmyzn0x53tx6dq57we0876a44lhttp0s8j",
        "value": 26118
      },
      "scriptsig": "",
      "scriptsig_asm": "",
      "witness": [
        "3044022066b4c56675a9989e03c1e8abf54517dcf0a3b8cd6e60e790817e4f65f8f9130c0220736e52a802285da8036dec8aa20a0235d6ca78441a406e44f4f19563814c976401",
        "0247fc2be90253d100f6ccb8d3ef953fccb154678daccbcf1b7c61c7a1e557be41"
      ],
      "is_coinbase": false,
      "sequence": 4294967295
    }
  ],
  "vout": [
    {
      "scriptpubkey": "a9149d69857d7b31b80425ec7982d34db7eb03ffe2e387",
      "scriptpubkey_asm": "OP_HASH160 OP_PUSHBYTES_20 9d69857d7b31b80425ec7982d34db7eb03ffe2e3 OP_EQUAL",
      "scriptpubkey_type": "p2sh",
      "scriptpubkey_address": "3G3LRRJDeBWuJR5aiTMogvDg3AMy2vL9i5",
      "value": 179684
    }
  ],
  "size": 1381,
  "weight": 2614,
  "fee": 7205,
  "status": {
    "confirmed": true,
    "block_height": 834460,
    "block_hash": "00000000000000000000484a79b643b2524bbce82e5d8a442013fa5b8905ed98",
    "block_time": 1710307468
  },
  "hex": "010000000001090d0dada4102778cbc2a8d5493fc4ecd862aa585d99130f54bcc7a5cfc94b684a5100000000ffffffff72a479ad641b976dba3fd0e02eff09e34e4916bf44736590a77ed19c56a66b373600000000fffffffff1af20f4517906377415c76d4e446947af04857b3587d3620f67d3735c2bc2ee4600000000ffffffff74a00873398f181a49e6ca96cb306755ce7f5b8f5cd6ea62d564a42fe8ecc3006b00000000ffffffffc3816cf4f18b529aade25c287b35c7150ea754e8a771cda37765327d4559db466a00000000ffffffff7304bcc66ee0f8695ac87cce7cfed8b03eeeee3ef738165eb7c4a60d176d116d4500000000ffffffffb88afcaca59807c23f773d67d87d817003d85b3989172c0272cff60844308fd4a800000000ffffffff192e2c6b25e8ade9a772bf69d5bb2261c165ffa55b82782b586e44d6a124bb625600000000ffffffffb06d47528cc44252b0280688467848e5ba99304228cbb7a6dd207b4200d967f17800000000ffffffff01e4bd02000000000017a9149d69857d7b31b80425ec7982d34db7eb03ffe2e3870247304402202f4c087238d225a4d39baf990fb1641cd01fbfb67889497ef344452c75d70bb6022021a45a9a74975822ab11a623fa056ce3ad51401020a5be5515e8f10f690be2f101210247fc2be90253d100f6ccb8d3ef953fccb154678daccbcf1b7c61c7a1e557be4102483045022100ca0ce241a180b092da5ab27f4314111f59219bff9ddcf63756707c5fb4771ebd0220319aa786bacc38a29118ecf711b86908cbd8401b1df4cdceb50eef26d14771cc01210247fc2be90253d100f6ccb8d3ef953fccb154678daccbcf1b7c61c7a1e557be4102483045022100ceffd6765c8f3a7a33fb0e96ae0fab7caaa53c8118d2bb03613ac2bdb49d610c0220632e423d1c5109d226170f37a67044aa39100cdd3a5bbf72804aa77f96ade0b801210247fc2be90253d100f6ccb8d3ef953fccb154678daccbcf1b7c61c7a1e557be4102473044022075e9f6485b1a94fb8642748535ebe999c910a923ab1672afd57a4f6baf847cb302206eb39cf32b4d03b37a23913f0bf7d553a68226a7fa49d660a633b25a5dbcf16d01210247fc2be90253d100f6ccb8d3ef953fccb154678daccbcf1b7c61c7a1e557be410248304502210089e22a8ecb93db035e667617d2f0d35337461a02cf215373ae8e71089a5fa7db02205c29d78d854a4b039b65a1782613caa87e912a7af20ffec59347a9d36e8eaccd01210247fc2be90253d100f6ccb8d3ef953fccb154678daccbcf1b7c61c7a1e557be4102483045022100d2a90c103a9ded55c63124ff0fa78d65d0bb77159b8e0c935e1f46dd1b9e7ca20220066ce186576f860331455799a79df7ca18d37030bc40336f96246db9e5949b0e01210247fc2be90253d100f6ccb8d3ef953fccb154678daccbcf1b7c61c7a1e557be4102483045022100c84ba16e7fcdcaddb4137bdaaf8368975580e113b7876b3ac1766db40c5b0ec10220627d62953bce8221a021938f8fcedaa881289e8bef2a0207f1972df41f22f91501210247fc2be90253d100f6ccb8d3ef953fccb154678daccbcf1b7c61c7a1e557be41024730440220075bc39d153128054d6ed6b993627922912db5dbdb90cc687611981d585d935f02206ca862941e9a53e20d112fbafd084a3a1ef8638c15dac17bc05ae6553d35460601210247fc2be90253d100f6ccb8d3ef953fccb154678daccbcf1b7c61c7a1e557be4102473044022066b4c56675a9989e03c1e8abf54517dcf0a3b8cd6e60e790817e4f65f8f9130c0220736e52a802285da8036dec8aa20a0235d6ca78441a406e44f4f19563814c976401210247fc2be90253d100f6ccb8d3ef953fccb154678daccbcf1b7c61c7a1e557be4100000000"
}