{
  "txid": "97b75f7a7c1b2372be179552b0562885642b4764d924abed28ecbec98e782294",
  "version": 2,
  "locktime": 0,
  "vin": [
    {
      "txid": "607bfc1a1d8aceeae0f5c7fd189e7697299bc93ea45f8380b3facd72ce3818ce",
      "vout": 24,
      "prevout": {
        "scriptpubkey": "0014ff10876d85c6a02292e7a9d335abd600c9bb694b",
        "scriptpubkey_asm": "OP_0 OP_PUSHBYTES_20 ff10876d85c6a02292e7a9d335abd600c9bb694b",
        "scriptpubkey_type": "v0_p2wpkh",
        "scriptpubkey_address": "bc1qluggwmv9c6sz9yh848fnt27kqrymk62tdqf9ku",
        "value": 196968
      },
      "scriptsig": "",
      "scriptsig_asm": "",
      "witness": [
        "3044022077453ab8d5ce1d549fa7865e150123aeda7618735ea415455e89ffc7c39f80720220063f5d75044d4b88ce2cfa63d5b5808dcc94c49f5fc393e8eae945c99a63e4a701",
        "035f9ef96b57af50cf046bf3ba93cdb327d2bb2a055a10c9ba2c62cf039200e1b1"
      ],
      "is_coinbase": false,
      "sequence": 4294967293
    }
  ],
  "vout": [
    {
      "scriptpubkey": "512012ace562465e8f4f7a4a1233fff894b2d114d65a953495100ab00a57ed29a92e",
      "scriptpubkey_asm": "OP_PUSHNUM_1 OP_PUSHBYTES_32 12ace562465e8f4f7a4a1233fff894b2d114d65a953495100ab00a57ed29a92e",
      "scriptpubkey_type": "v1_p2tr",
      "scriptpubkey_address": "bc1pz2kw2cjxt68577j2zgell7y5ktg3f4j6j56f2yq2kq990mff4yhqlsxrhh",
      "value": 1962
    },
    {
      "scriptpubkey": "512012ace562465e8f4f7a4a1233fff894b2d114d65a953495100ab00a57ed29a92e",
      "scriptpubkey_asm": "OP_PUSHNUM_1 OP_PUSHBYTES_32 12ace562465e8f4f7a4a1233fff894b2d114d65a953495100ab00a57ed29a92e",
      "scriptpubkey_type": "v1_p2tr",
      "scriptpubkey_address": "bc1pz2kw2cjxt68577j2zgell7y5ktg3f4j6j56f2yq2kq990mff4yhqlsxrhh",
      "value": 1962
    },
    {
      "scriptpubkey": "512012ace562465e8f4f7a4a1233fff894b2d114d65a953495100ab00a57ed29a92e",
      "scriptpubkey_asm": "OP_PUSHNUM_1 OP_PUSHBYTES_32 12ace562465e8f4f7a4a1233fff894b2d114d65a953495100ab00a57ed29a92e",
      "scriptpubkey_type": "v1_p2tr",
      "scriptpubkey_address": "bc1pz2kw2cjxt68577j2zgell7y5ktg3f4j6j56f2yq2kq990mff4yhqlsxrhh",
      "value": 1962
    },
    {
      "scriptpubkey": "512012ace562465e8f4f7a4a1233fff894b2d114d65a953495100ab00a57ed29a92e",
      "scriptpubkey_asm": "OP_PUSHNUM_1 OP_PUSHBYTES_32 12ace562465e8f4f7a4a1233fff894b2d114d65a953495100ab00a57ed29a92e",
      "scriptpubkey_type": "v1_p2tr",
      "scriptpubkey_address": "bc1pz2kw2cjxt68577j2zgell7y5ktg3f4j6j56f2yq2kq990mff4yhqlsxrhh",
      "value": 1962
    },
    {
      "scriptpubkey": "512012ace562465e8f4f7a4a1233fff894b2d114d65a953495100ab00a57ed29a92e",
      "scriptpubkey_asm": "OP_PUSHNUM_1 OP_PUSHBYTES_32 12ace562465e8f4f7a4a1233fff894b2d114d65a953495100ab00a57ed29a92e",
      "scriptpubkey_type": "v1_p2tr",
      "scriptpubkey_address": "bc1pz2kw2cjxt68577j2zgell7y5ktg3f4j6j56f2yq2kq990mff4yhqlsxrhh",
      "value": 1962
    },
    {
      "scriptpubkey": "512012ace562465e8f4f7a4a1233fff894b2d114d65a953495100ab00a57ed29a92e",
      "scriptpubkey_asm": "OP_PUSHNUM_1 OP_PUSHBYTES_32 12ace562465e8f4f7a4a1233fff894b2d114d65a953495100ab00a57ed29a92e",
      "scriptpubkey_type": "v1_p2tr",
      "scriptpubkey_address": "bc1pz2kw2cjxt68577j2zgell7y5ktg3f4j6j56f2yq2kq990mff4yhqlsxrhh",
      "value": 1962
    },
    {
      "scriptpubkey": "512012ace562465e8f4f7a4a1233fff894b2d114d65a953495100ab00a57ed29a92e",
      "scriptpubkey_asm": "OP_PUSHNUM_1 OP_PUSHBYTES_32 12ace562465e8f4f7a4a1233fff894b2d114d65a953495100ab00a57ed29a92e",
      "scriptpubkey_type": "v1_p2tr",
      "scriptpubkey_address": "bc1pz2kw2cjxt68577j2zgell7y5ktg3f4j6j56f2yq2kq990mff4yhqlsxrhh",
      "value": 1962
    },
    {
      "scriptpubkey": "512012ace562465e8f4f7a4a1233fff894b2d114d65a953495100ab00a57ed29a92e",
      "scriptpubkey_asm": "OP_PUSHNUM_1 OP_PUSHBYTES_32 12ace562465e8f4f7a4a1233fff894b2d114d65a953495100ab00a57ed29a92e",
      "scriptpubkey_type": "v1_p2tr",
      "scriptpubkey_address": "bc1pz2kw2cjxt68577j2zgell7y5ktg3f4j6j56f2yq2kq990mff4yhqlsxrhh",
      "value": 1962
    },
    {
      "scriptpubkey": "512012ace562465e8f4f7a4a1233fff894b2d114d65a953495100ab00a57ed29a92e",
      "scriptpubkey_asm": "OP_PUSHNUM_1 OP_PUSHBYTES_32 12ace562465e8f4f7a4a1233fff894b2d114d65a953495100ab00a57ed29a92e",
      "scriptpubkey_type": "v1_p2tr",
      "scriptpubkey_address": "bc1pz2kw2cjxt68577j2zgell7y5ktg3f4j6j56f2yq2kq990mff4yhqlsxrhh",
      "value": 1962
    },
    {
      "scriptpubkey": "512012ace562465e8f4f7a4a1233fff894b2d114d65a953495100ab00a57ed29a92e",
      "scriptpubkey_asm": "OP_PUSHNUM_1 OP_PUSHBYTES_32 12ace562465e8f4f7a4a1233fff894b2d114d65a953495100ab00a57ed29a92e",
      "scriptpubkey_type": "v1_p2tr",
      "scriptpubkey_address": "bc1pz2kw2cjxt68577j2zgell7y5ktg3f4j6j56f2yq2kq990mff4yhqlsxrhh",
      "value": 1962
    },
    {
      "scriptpubkey": "512012ace562465e8f4f7a4a1233fff894b2d114d65a953495100ab00a57ed29a92e",
      "scriptpubkey_asm": "OP_PUSHNUM_1 OP_PUSHBYTES_32 12ace562465e8f4f7a4a1233fff894b2d114d65a953495100ab00a57ed29a92e",
      "scriptpubkey_type": "v1_p2tr",
      "scriptpubkey_address": "bc1pz2kw2cjxt68577j2zgell7y5ktg3f4j6j56f2yq2kq990mff4yhqlsxrhh",
      "value": 1962
    },
    {
      "scriptpubkey": "512012ace562465e8f4f7a4a1233fff894b2d114d65a953495100ab00a57ed29a92e",
      "scriptpubkey_asm": "OP_PUSHNUM_1 OP_PUSHBYTES_32 12ace562465e8f4f7a4a1233fff894b2d114d65a953495100ab00a57ed29a92e",
      "scriptpubkey_type": "v1_p2tr",
      "scriptpubkey_address": "bc1pz2kw2cjxt68577j2zgell7y5ktg3f4j6j56f2yq2kq990mff4yhqlsxrhh",
      "value": 1962
    },
    {
      "scriptpubkey": "512012ace562465e8f4f7a4a1233fff894b2d114d65a953495100ab00a57ed29a92e",
      "scriptpubkey_asm": "OP_PUSHNUM_1 OP_PUSHBYTES_32 12ace562465e8f4f7a4a1233fff894b2d114d65a953495100ab00a57ed29a92e",
      "scriptpubkey_type": "v1_p2tr",
      "scriptpubkey_address": "bc1pz2kw2cjxt68577j2zgell7y5ktg3f4j6j56f2yq2kq990mff4yhqlsxrhh",
      "value": 1962
    },
    {
      "scriptpubkey": "512012ace562465e8f4f7a4a1233fff894b2d114d65a953495100ab00a57ed29a92e",
      "scriptpubkey_asm": "OP_PUSHNUM_1 OP_PUSHBYTES_32 12ace562465e8f4f7a4a1233fff894b2d114d65a953495100ab00a57ed29a92e",
      "scriptpubkey_type": "v1_p2tr",
      "scriptpubkey_address": "bc1pz2kw2cjxt68577j2zgell7y5ktg3f4j6j56f2yq2kq990mff4yhqlsxrhh",
      "value": 1962
    },
    {
      "scriptpubkey": "512012ace562465e8f4f7a4a1233fff894b2d114d65a953495100ab00a57ed29a92e",
      "scriptpubkey_asm": "OP_PUSHNUM_1 OP_PUSHBYTES_32 12ace562465e8f4f7a4a1233fff894b2d114d65a953495100ab00a57ed29a92e",
      "scriptpubkey_type": "v1_p2tr",
      "scriptpubkey_address": "bc1pz2kw2cjxt68577j2zgell7y5ktg3f4j6j56f2yq2kq990mff4yhqlsxrhh",
      "value": 1962
    },
    {
      "scriptpubkey": "512012ace562465e8f4f7a4a1233fff894b2d114d65a953495100ab00a57ed29a92e",
      "scriptpubkey_asm": "OP_PUSHNUM_1 OP_PUSHBYTES_32 12ace562465e8f4f7a4a1233fff894b2d114d65a953495100ab00a57ed29a92e",
      "scriptpubkey_type": "v1_p2tr",
      "scriptpubkey_address": "bc1pz2kw2cjxt68577j2zgell7y5ktg3f4j6j56f2yq2kq990mff4yhqlsxrhh",
      "value": 1962
    },
    {
      "scriptpubkey": "512012ace562465e8f4f7a4a1233fff894b2d114d65a953495100ab00a57ed29a92e",
      "scriptpubkey_asm": "OP_PUSHNUM_1 OP_PUSHBYTES_32 12ace562465e8f4f7a4a1233fff894b2d114d65a953495100ab00a57ed29a92e",
      "scriptpubkey_type": "v1_p2tr",
      "scriptpubkey_address": "bc1pz2kw2cjxt68577j2zgell7y5ktg3f4j6j56f2yq2kq990mff4yhqlsxrhh",
      "value": 1962
    },
    {
      "scriptpubkey": "512012ace562465e8f4f7a4a1233fff894b2d114d65a953495100ab00a57ed29a92e",
      "scriptpubkey_asm": "OP_PUSHNUM_1 OP_PUSHBYTES_32 12ace562465e8f4f7a4a1233fff894b2d114d65a953495100ab00a57ed29a92e",
      "scriptpubkey_type": "v1_p2tr",
      "scriptpubkey_address": "bc1pz2kw2cjxt68577j2zgell7y5ktg3f4j6j56f2yq2kq990mff4yhqlsxrhh",
      "value": 1962
    },
    {
      "scriptpubkey": "512012ace562465e8f4f7a4a1233fff894b2d114d65a953495100ab00a57ed29a92e",
      "scriptpubkey_asm": "OP_PUSHNUM_1 OP_PUSHBYTES_32 12ace562465e8f4f7a4a1233fff894b2d114d65a953495100ab00a57ed29a92e",
      "scriptpubkey_type": "v1_p2tr",
      "scriptpubkey_address": "bc1pz2kw2cjxt68577j2zgell7y5ktg3f4j6j56f2yq2kq990mff4yhqlsxrhh",
      "value": 1962
    },
    {
      "scriptpubkey": "512012ace562465e8f4f7a4a1233fff894b2d114d65a953495100ab00a57ed29a92e",
      "scriptpubkey_asm": "OP_PUSHNUM_1 OP_PUSHBYTES_32 12ace562465e8f4f7a4a1233fff894b2d114d65a953495100ab00a57ed29a92e",
      "scriptpubkey_type": "v1_p2tr",
      "scriptpubkey_address": "bc1pz2kw2cjxt68577j2zgell7y5ktg3f4j6j56f2yq2kq990mff4yhqlsxrhh",
      "value": 1962
    },
    {
      "scriptpubkey": "512012ace562465e8f4f7a4a1233fff894b2d114d65a953495100ab00a57ed29a92e",
      "scriptpubkey_asm": "OP_PUSHNUM_1 OP_PUSHBYTES_32 12ace562465e8f4f7a4a1233fff894b2d114d65a953495100ab00a57ed29a92e",
      "scriptpubkey_type": "v1_p2tr",
      "scriptpubkey_address": "bc1pz2kw2cjxt68577j2zgell7y5ktg3f4j6j56f2yq2kq990mff4yhqlsxrhh",
      "value": 1962
    },
    {
      "scriptpubkey": "512012ace562465e8f4f7a4a1233fff894b2d114d65a953495100ab00a57ed29a92e",
      "scriptpubkey_asm": "OP_PUSHNUM_1 OP_PUSHBYTES_32 12ace562465e8f4f7a4a1233fff894b2d114d65a953495100ab00a57ed29a92e",
      "scriptpubkey_type": "v1_p2tr",
      "scriptpubkey_address": "bc1pz2kw2cjxt68577j2zgell7y5ktg3f4j6j56f2yq2kq990mff4yhqlsxrhh",
      "value": 1962
    },
    {
      "scriptpubkey": "512012ace562465e8f4f7a4a1233fff894b2d114d65a953495100ab00a57ed29a92e",
      "scriptpubkey_asm": "OP_PUSHNUM_1 OP_PUSHBYTES_32 12ace562465e8f4f7a4a1233fff894b2d114d65a953495100ab00a57ed29a92e",
      "scriptpubkey_type": "v1_p2tr",
      "scriptpubkey_address": "bc1pz2kw2cjxt68577j2zgell7y5ktg3f4j6j56f2yq2kq990mff4yhqlsxrhh",
      "value": 1962
    },
    {
      "scriptpubkey": "512012ace562465e8f4f7a4a1233fff894b2d114d65a953495100ab00a57ed29a92e",
      "scriptpubkey_asm": "OP_PUSHNUM_1 OP_PUSHBYTES_32 12ace562465e8f4f7a4a1233fff894b2d114d65a953495100ab00a57ed29a92e",
      "scriptpubkey_type": "v1_p2tr",
      "scriptpubkey_address": "bc1pz2kw2cjxt68577j2zgell7y5ktg3f4j6j56f2yq2kq990mff4yhqlsxrhh",
      "value": 1962
    },
    {
      "scriptpubkey": "0014ff10876d85c6a02292e7a9d335abd600c9bb694b",
      "scriptpubkey_asm": "OP_0 OP_PUSHBYTES_20 ff10876d85c6a02292e7a9d335abd600c9bb694b",
      "scriptpubkey_type": "v0_p2wpkh",
      "scriptpubkey_address": "bc1qluggwmv9c6sz9yh848fnt27kqrymk62tdqf9ku",
      "value": 136176
    }
  ],
  "size": 1223,
  "weight": 4565,
  "fee": 13704,
  "status": {
    "confirmed": true,
    "block_height": 834460,
    "block_hash": "00000000000000000000484a79b643b2524bbce82e5d8a442013fa5b8905ed98",
    "block_time": 1710307468
  },
  "hex": "02000000000101ce1838ce72cdfab380835fa43ec99b2997769e18fdc7f5e0eace8a1d1afc7b601800000000fdffffff19aa0700000000000022512012ace562465e8f4f7a4a1233fff894b2d114d65a953495100ab00a57ed29a92eaa0700000000000022512012ace562465e8f4f7a4a1233fff894b2d114d65a953495100ab00a57ed29a92eaa0700000000000022512012ace562465e8f4f7a4a1233fff894b2d114d65a953495100ab00a57ed29a92eaa0700000000000022512012ace562465e8f4f7a4a1233fff894b2d114d65a953495100ab00a57ed29a92eaa0700000000000022512012ace562465e8f4f7a4a1233fff894b2d114d65a953495100ab00a57ed29a92eaa0700000000000022512012ace562465e8f4f7a4a1233fff894b2d114d65a953495100ab00a57ed29a92eaa0700000000000022512012ace562465e8f4f7a4a1233fff894b2d114d65a953495100ab00a57ed29a92eaa0700000000000022512012ace562465e8f4f7a4a1233fff894b2d114d65a953495100ab00a57ed29a92eaa0700000000000022512012ace562465e8f4f7a4a1233fff894b2d114d65a953495100ab00a57ed29a92eaa0700000000000022512012ace562465e8f4f7a4a1233fff894b2d114d65a953495100ab00a57ed29a92eaa0700000000000022512012ace562465e8f4f7a4a1233fff894b2d114d65a953495100ab00a57ed29a92eaa0700000000000022512012ace562465e8f4f7a4a1233fff894b2d114d65a953495100ab00a57ed29a92eaa0700000000000022512012ace562465e8f4f7a4a1233fff894b2d114d65a953495100ab00a57ed29a92eaa0700000000000022512012ace562465e8f4f7a4a1233fff894b2d114d65a953495100ab00a57ed29a92eaa0700000000000022512012ace562465e8f4f7a4a1233fff894b2d114d65a953495100ab00a57ed29a92eaa0700000000000022512012ace562465e8f4f7a4a1233fff894b2d114d65a953495100ab00a57ed29a92eaa0700000000000022512012ace562465e8f4f7a4a1233fff894b2d114d65a953495100ab00a57ed29a92eaa0700000000000022512012ace562465e8f4f7a4a1233fff894b2d114d65a953495100ab00a57ed29a92eaa0700000000000022512012ace562465e8f4f7a4a1233fff894b2d114d65a953495100ab00a57ed29a92eaa0700000000000022512012ace562465e8f4f7a4a1233fff894b2d114d65a953495100ab00a57ed29a92eaa0700000000000022512012ace562465e8f4f7a4a1233fff894b2d114d65a953495100ab00a57ed29a92eaa0700000000000022512012ace562465e8f4f7a4a1233fff894b2d114d65a953495100ab00a57ed29a92eaa0700000000000022512012ace562465e8f4f7a4a1233fff894b2d114d65a953495100ab00a57ed29a92eaa0700000000000022512012ace562465e8f4f7a4a1233fff894b2d114d65a953495100ab00a57ed29a92ef013020000000000160014ff10876d85c6a02292e7a9d335abd600c9bb694b02473044022077453ab8d5ce1d549fa7865e150123aeda7618735ea415455e89ffc7c39f80720220063f5d75044d4b88ce2cfa63d5b5808dcc94c49f5fc393e8eae945c99a63e4a70121035f9ef96b57af50cf046bf3ba93cdb327d2bb2a055a10c9ba2c62cf039200e1b100000000"
}