{
  "txid": "97bf3fd253bf396d2fd3e70fc7131ca6ac483815eacfd5a3af3827aeb87486f4",
  "version": 2,
  "locktime": 0,
  "vin": [
    {
      "txid": "b0266d77c3493b2e808af8e3d633c5acc5ce28b5fb7d209c724097a4c139c2b6",
      "vout": 2,
      "prevout": {
        "scriptpubkey": "5120ed89a94ad4b8c84cc55d2089bc07c290c4ded363db064da167ef2b2c2e9e74d5",
        "scriptpubkey_asm": "OP_PUSHNUM_1 OP_PUSHBYTES_32 ed89a94ad4b8c84cc55d2089bc07c290c4ded363db064da167ef2b2c2e9e74d5",
        "scriptpubkey_type": "v1_p2tr",
        "scriptpubkey_address": "bc1paky6jjk5hryye32ayzymcp7zjrzda5mrmvrymgt8au4jct57wn2s9z38wr",
        "value": 546
      },
      "scriptsig": "",
      "scriptsig_asm": "",
      "witness": [
        "5e417f6c2210445b2fb6c4f2014b37388566b2a9b6c44af76c439514eae85d90a28cca7b36d54cdfcae206360ab2e23c19d0aad193cf770f08d85f0b9ae79575"
      ],
      "is_coinbase": false,
      "sequence": 2147483649
    },
    {
      "txid": "b0266d77c3493b2e808af8e3d633c5acc5ce28b5fb7d209c724097a4c139c2b6",
      "vout": 1,
      "prevout": {
        "scriptpubkey": "5120ed89a94ad4b8c84cc55d2089bc07c290c4ded363db064da167ef2b2c2e9e74d5",
        "scriptpubkey_asm": "OP_PUSHNUM_1 OP_PUSHBYTES_32 ed89a94ad4b8c84cc55d2089bc07c290c4ded363db064da167ef2b2c2e9e74d5",
        "scriptpubkey_type": "v1_p2tr",
        "scriptpubkey_address": "bc1paky6jjk5hryye32ayzymcp7zjrzda5mrmvrymgt8au4jct57wn2s9z38wr",
        "value": 546
      },
      "scriptsig": "",
      "scriptsig_asm": "",
      "witness": [
        "4a6dbf03f12c4526d14af44d6e8958de8449aa03937059ebca71d2d4fc4178736024661938903cdd1507fbdcd45c5aacf68ed7f4f3df998878494e624e83343a"
      ],
      "is_coinbase": false,
      "sequence": 2147483649
    },
    {
      "txid": "3a42ffc2b2105585b39a476a81860c8e6ade6c3350b76ad97d3479c3d8740b69",
      "vout": 1,
      "prevout": {
        "scriptpubkey": "5120ed89a94ad4b8c84cc55d2089bc07c290c4ded363db064da167ef2b2c2e9e74d5",
        "scriptpubkey_asm": "OP_PUSHNUM_1 OP_PUSHBYTES_32 ed89a94ad4b8c84cc55d2089bc07c290c4ded363db064da167ef2b2c2e9e74d5",
        "scriptpubkey_type": "v1_p2tr",
        "scriptpubkey_address": "bc1paky6jjk5hryye32ayzymcp7zjrzda5mrmvrymgt8au4jct57wn2s9z38wr",
        "value": 546
      },
      "scriptsig": "",
      "scriptsig_asm": "",
      "witness": [
        "88faa3ea3b086972c7cc2a1cdc980df0233799dffa771c9b1b494681b21fb5b1c6b4dddeee97e9532a2efa954e86d87a374f98af479c40c1bfefff7aa4a8a350"
      ],
      "is_coinbase": false,
      "sequence": 2147483649
    },
    {
      "txid": "b0266d77c3493b2e808af8e3d633c5acc5ce28b5fb7d209c724097a4c139c2b6",
      "vout": 11,
      "prevout": {
        "scriptpubkey": "5120ed89a94ad4b8c84cc55d2089bc07c290c4ded363db064da167ef2b2c2e9e74d5",
        "scriptpubkey_asm": "OP_PUSHNUM_1 OP_PUSHBYTES_32 ed89a94ad4b8c84cc55d2089bc07c290c4ded363db064da167ef2b2c2e9e74d5",
        "scriptpubkey_type": "v1_p2tr",
        "scriptpubkey_address": "bc1paky6jjk5hryye32ayzymcp7zjrzda5mrmvrymgt8au4jct57wn2s9z38wr",
        "value": 751257
      },
      "scriptsig": "",
      "scriptsig_asm": "",
      "witness": [
        "ce8289052c8c05e397e8e1d9df5cf8ae4a85a54f76bb2c9044bc8759ae288d76726b9a24d952f2e32e3f514b4c84c4c3f362967c11f9c1a614b9f5336f78424a"
      ],
      "is_coinbase": false,
      "sequence": 2147483649
    }
  ],
  "vout": [
    {
      "scriptpubkey": "5120c0f5ce8f4818b6c059da616da3bec47cb20fc8f1a7f415d74342838f85c57be7",
      "scriptpubkey_asm": "OP_PUSHNUM_1 OP_PUSHBYTES_32 c0f5ce8f4818b6c059da616da3bec47cb20fc8f1a7f415d74342838f85c57be7",
      "scriptpubkey_type": "v1_p2tr",
      "scriptpubkey_address": "bc1pcr6uar6grzmvqkw6v9k680ky0jeqlj835l6pt46rg2pclpw900nsh5efl8",
      "value": 546
    },
    {
      "scriptpubkey": "5120c0f5ce8f4818b6c059da616da3bec47cb20fc8f1a7f415d74342838f85c57be7",
      "scriptpubkey_asm": "OP_PUSHNUM_1 OP_PUSHBYTES_32 c0f5ce8f4818b6c059da616da3bec47cb20fc8f1a7f415d74342838f85c57be7",
      "scriptpubkey_type": "v1_p2tr",
      "scriptpubkey_address": "bc1pcr6uar6grzmvqkw6v9k680ky0jeqlj835l6pt46rg2pclpw900nsh5efl8",
      "value": 546
    },
    {
      "scriptpubkey": "5120c0f5ce8f4818b6c059da616da3bec47cb20fc8f1a7f415d74342838f85c57be7",
      "scriptpubkey_asm": "OP_PUSHNUM_1 OP_PUSHBYTES_32 c0f5ce8f4818b6c059da616da3bec47cb20fc8f1a7f415d74342838f85c57be7",
      "scriptpubkey_type": "v1_p2tr",
      "scriptpubkey_address": "bc1pcr6uar6grzmvqkw6v9k680ky0jeqlj835l6pt46rg2pclpw900nsh5efl8",
      "value": 546
    },
    {
      "scriptpubkey": "5120ed89a94ad4b8c84cc55d2089bc07c290c4ded363db064da167ef2b2c2e9e74d5",
      "scriptpubkey_asm": "OP_PUSHNUM_1 OP_PUSHBYTES_32 ed89a94ad4b8c84cc55d2089bc07c290c4ded363db064da167ef2b2c2e9e74d5",
      "scriptpubkey_type": "v1_p2tr",
      "scriptpubkey_address": "bc1paky6jjk5hryye32ayzymcp7zjrzda5mrmvrymgt8au4jct57wn2s9z38wr",
      "value": 746725
    }
  ],
  "size": 612,
  "weight": 1650,
  "fee": 4532,
  "status": {
    "confirmed": true,
    "block_height": 834464,
    "block_hash": "0000000000000000000177a0869a911a2b65c9bdcd5a8bcb02b68f305bee848e",
    "block_time": 1710308296
  },
  "hex": "02000000000104b6c239c1a49740729c207dfbb528cec5acc533d6e3f88a802e3b49c3776d26b0020000000001000080b6c239c1a49740729c207dfbb528cec5acc533d6e3f88a802e3b49c3776d26b0010000000001000080690b74d8c379347dd96ab750336cde6a8e0c86816a479ab3855510b2c2ff423a010000000001000080b6c239c1a49740729c207dfbb528cec5acc533d6e3f88a802e3b49c3776d26b00b0000000001000080042202000000000000225120c0f5ce8f4818b6c059da616da3bec47cb20fc8f1a7f415d74342838f85c57be72202000000000000225120c0f5ce8f4818b6c059da616da3bec47cb20fc8f1a7f415d74342838f85c57be72202000000000000225120c0f5ce8f4818b6c059da616da3bec47cb20fc8f1a7f415d74342838f85c57be7e5640b0000000000225120ed89a94ad4b8c84cc55d2089bc07c290c4ded363db064da167ef2b2c2e9e74d501405e417f6c2210445b2fb6c4f2014b37388566b2a9b6c44af76c439514eae85d90a28cca7b36d54cdfcae206360ab2e23c19d0aad193cf770f08d85f0b9ae7957501404a6dbf03f12c4526d14af44d6e8958de8449aa03937059ebca71d2d4fc4178736024661938903cdd1507fbdcd45c5aacf68ed7f4f3df998878494e624e83343a014088faa3ea3b086972c7cc2a1cdc980df0233799dffa771c9b1b494681b21fb5b1c6b4dddeee97e9532a2efa954e86d87a374f98af479c40c1bfefff7aa4a8a3500140ce8289052c8c05e397e8e1d9df5cf8ae4a85a54f76bb2c9044bc8759ae288d76726b9a24d952f2e32e3f514b4c84c4c3f362967c11f9c1a614b9f5336f78424a00000000"
}