{
  "txid": "97c8ba54f5b546d68f38436cdee49991e1be80bc273c74473d445c5a33af6eda",
  "version": 2,
  "locktime": 0,
  "vin": [
    {
      "txid": "e054c137725b7a5d163dade8f5cd68c0927a2e8b00d920927dab9a7ba934ce5f",
      "vout": 9,
      "prevout": {
        "scriptpubkey": "51200f3ec8c694b21f864506cc3211da2a737a898523f337991424b34d1d0db7a37c",
        "scriptpubkey_asm": "OP_PUSHNUM_1 OP_PUSHBYTES_32 0f3ec8c694b21f864506cc3211da2a737a898523f337991424b34d1d0db7a37c",
        "scriptpubkey_type": "v1_p2tr",
        "scriptpubkey_address": "bc1ppulv3355kg0cv3gxeseprk32wdagnpfr7vmej9pykdx36rdh5d7qgvn32l",
        "value": 2658
      },
      "scriptsig": "",
      "scriptsig_asm": "",
      "witness": [
        "c3bda90c2dbb7e69416b289a1752a4ab2c787b963055227c864d3607c160758449c3ff17cf76a44b198333e4b2290a66811bad2ac3102d91b32e81c2a226e6da",
        "20a06f9fe1945a8e9c9741fb3a8e5d6a6d91e21e05620a771bf0ab0c960325ad38ac0063036f726401011e6170706c69636174696f6e2f6a736f6e3b636861727365743d7574662d38004cbf7b2270223a22706f772d3230222c226f70223a226d696e74222c227469636b223a2250455045222c22616d74223a2231303030222c22736f6c7574696f6e223a22504550453a6263317139736a36303977756e7468646a636d7a746a796379766475616e653071716b78726e773932653a303030303030303030303030303030303030303139393431613561653132383937363539383134343239323533333030353762306461393666336465613163353a3538333133373038363730227d68",
        "c0a0e509a599b6542378e5ac7959d344a1bebc95ec9899fd4ccf1904beefe3f047"
      ],
      "is_coinbase": false,
      "sequence": 4294967295
    }
  ],
  "vout": [
    {
      "scriptpubkey": "00142c25a795dc9aeed963625c898231bcecf2f002c6",
      "scriptpubkey_asm": "OP_0 OP_PUSHBYTES_20 2c25a795dc9aeed963625c898231bcecf2f002c6",
      "scriptpubkey_type": "v0_p2wpkh",
      "scriptpubkey_address": "bc1q9sj609wunthdjcmztjycyvduane0qqkxrnw92e",
      "value": 546
    }
  ],
  "size": 455,
  "weight": 701,
  "fee": 2112,
  "status": {
    "confirmed": true,
    "block_height": 834460,
    "block_hash": "00000000000000000000484a79b643b2524bbce82e5d8a442013fa5b8905ed98",
    "block_time": 1710307468
  },
  "hex": "020000000001015fce34a97b9aab7d9220d9008b2e7a92c068cdf5e8ad3d165d7a5b7237c154e00900000000ffffffff0122020000000000001600142c25a795dc9aeed963625c898231bcecf2f002c60340c3bda90c2dbb7e69416b289a1752a4ab2c787b963055227c864d3607c160758449c3ff17cf76a44b198333e4b2290a66811bad2ac3102d91b32e81c2a226e6dafd0c0120a06f9fe1945a8e9c9741fb3a8e5d6a6d91e21e05620a771bf0ab0c960325ad38ac0063036f726401011e6170706c69636174696f6e2f6a736f6e3b636861727365743d7574662d38004cbf7b2270223a22706f772d3230222c226f70223a226d696e74222c227469636b223a2250455045222c22616d74223a2231303030222c22736f6c7574696f6e223a22504550453a6263317139736a36303977756e7468646a636d7a746a796379766475616e653071716b78726e773932653a303030303030303030303030303030303030303139393431613561653132383937363539383134343239323533333030353762306461393666336465613163353a3538333133373038363730227d6821c0a0e509a599b6542378e5ac7959d344a1bebc95ec9899fd4ccf1904beefe3f04700000000"
}