{
  "txid": "97ceb5fa2a8508a15fdffd58c3964274ec937605292139827dc8b7c7effac2a2",
  "version": 1,
  "locktime": 0,
  "vin": [
    {
      "txid": "8e39bd80e19a51d6aadfd701a25a702f591aa094f19b44c034fcf8f0e9eef0f0",
      "vout": 0,
      "prevout": {
        "scriptpubkey": "0014dc6bf86354105de2fcd9868a2b0376d6731cb92f",
        "scriptpubkey_asm": "OP_0 OP_PUSHBYTES_20 dc6bf86354105de2fcd9868a2b0376d6731cb92f",
        "scriptpubkey_type": "v0_p2wpkh",
        "scriptpubkey_address": "bc1qm34lsc65zpw79lxes69zkqmk6ee3ewf0j77s3h",
        "value": 403167161
      },
      "scriptsig": "",
      "scriptsig_asm": "",
      "witness": [
        "3045022100fc46b07482814376ad4968907b6f48a1a7b2a712f3f644786a257c16654e6b5602204318402ee4f502ed8d3fab0193347b0d0bfb748df66b01425f09f4712c787eed01",
        "02174ee672429ff94304321cdae1fc1e487edf658b34bd1d36da03761658a2bb09"
      ],
      "is_coinbase": false,
      "sequence": 4294967295
    }
  ],
  "vout": [
    {
      "scriptpubkey": "76a914acb4eb8c8debd69f5a53b0ec19064ac3885feebb88ac",
      "scriptpubkey_asm": "OP_DUP OP_HASH160 OP_PUSHBYTES_20 acb4eb8c8debd69f5a53b0ec19064ac3885feebb OP_EQUALVERIFY OP_CHECKSIG",
      "scriptpubkey_type": "p2pkh",
      "scriptpubkey_address": "1GkBxYbLevsB4QhsTmNFCMdJWxXwhztHGF",
      "value": 52230
    },
    {
      "scriptpubkey": "0014dc6bf86354105de2fcd9868a2b0376d6731cb92f",
      "scriptpubkey_asm": "OP_0 OP_PUSHBYTES_20 dc6bf86354105de2fcd9868a2b0376d6731cb92f",
      "scriptpubkey_type": "v0_p2wpkh",
      "scriptpubkey_address": "bc1qm34lsc65zpw79lxes69zkqmk6ee3ewf0j77s3h",
      "value": 190002493
    },
    {
      "scriptpubkey": "a914866a3da75e873fba3de78ad41f7b1c6bdd9f41ce87",
      "scriptpubkey_asm": "OP_HASH160 OP_PUSHBYTES_20 866a3da75e873fba3de78ad41f7b1c6bdd9f41ce OP_EQUAL",
      "scriptpubkey_type": "p2sh",
      "scriptpubkey_address": "3DwjjzUD7yzzZB4n4Bdq5UdqKLX94HAWSY",
      "value": 141765
    },
    {
      "scriptpubkey": "0014f8b747366efd70b166ea41c5b0cf68131e4543b1",
      "scriptpubkey_asm": "OP_0 OP_PUSHBYTES_20 f8b747366efd70b166ea41c5b0cf68131e4543b1",
      "scriptpubkey_type": "v0_p2wpkh",
      "scriptpubkey_address": "bc1qlzm5wdnwl4ctzeh2g8zmpnmgzv0y2sa3rdqj7d",
      "value": 2819946
    },
    {
      "scriptpubkey": "00203b1992c96e1667524172c4ec1654a18719fa1e97e6a8c76ef664c17ca22ba5f6",
      "scriptpubkey_asm": "OP_0 OP_PUSHBYTES_32 3b1992c96e1667524172c4ec1654a18719fa1e97e6a8c76ef664c17ca22ba5f6",
      "scriptpubkey_type": "v0_p2wsh",
      "scriptpubkey_address": "bc1q8vve9jtwzen4ystjcnkpv49psuvl585hu65vwmhkvnqheg3t5hmq95h03s",
      "value": 89033
    },
    {
      "scriptpubkey": "a91443ddc203767c21227a47b0108fe1be9fc5a8d07887",
      "scriptpubkey_asm": "OP_HASH160 OP_PUSHBYTES_20 43ddc203767c21227a47b0108fe1be9fc5a8d078 OP_EQUAL",
      "scriptpubkey_type": "p2sh",
      "scriptpubkey_address": "37srrQKw3SoaZXCBgqpazabuVYJFHuMD9G",
      "value": 385235
    },
    {
      "scriptpubkey": "a91466c99a9fd084516c51139931c5cd92b81b6a8f5c87",
      "scriptpubkey_asm": "OP_HASH160 OP_PUSHBYTES_20 66c99a9fd084516c51139931c5cd92b81b6a8f5c OP_EQUAL",
      "scriptpubkey_type": "p2sh",
      "scriptpubkey_address": "3B4WMoUFupRZZhFdAKdeK3am1e1do3qzb9",
      "value": 1035302
    },
    {
      "scriptpubkey": "a91467db164b9785365f912624599dd78140545def8f87",
      "scriptpubkey_asm": "OP_HASH160 OP_PUSHBYTES_20 67db164b9785365f912624599dd78140545def8f OP_EQUAL",
      "scriptpubkey_type": "p2sh",
      "scriptpubkey_address": "3BA9yjtPy5g7AdEXfFy8MyvPhhCQphF5Pz",
      "value": 2968315
    },
    {
      "scriptpubkey": "0014daeef9ecd2c1b71aa08f419d672ae937f4822da4",
      "scriptpubkey_asm": "OP_0 OP_PUSHBYTES_20 daeef9ecd2c1b71aa08f419d672ae937f4822da4",
      "scriptpubkey_type": "v0_p2wpkh",
      "scriptpubkey_address": "bc1qmth0nmxjcxm34gy0gxwkw2hfxl6gytdyeh8nvr",
      "value": 1540438
    },
    {
      "scriptpubkey": "a91416b1d40ad37085c532144047118dd86a46ec7f1387",
      "scriptpubkey_asm": "OP_HASH160 OP_PUSHBYTES_20 16b1d40ad37085c532144047118dd86a46ec7f13 OP_EQUAL",
      "scriptpubkey_type": "p2sh",
      "scriptpubkey_address": "33m1pVPQZvWLUwmUQrAZxmGxuMWangC1aE",
      "value": 480000
    },
    {
      "scriptpubkey": "a914a55fcef0d914c5fea9a76c53050fa28e1d82a77b87",
      "scriptpubkey_asm": "OP_HASH160 OP_PUSHBYTES_20 a55fcef0d914c5fea9a76c53050fa28e1d82a77b OP_EQUAL",
      "scriptpubkey_type": "p2sh",
      "scriptpubkey_address": "3GmSC5SyzBdEDPfHyBwiLxD4md4dQZ81Rs",
      "value": 40000
    },
    {
      "scriptpubkey": "a9142ed13590438414bbf744075d93430127b975cd9e87",
      "scriptpubkey_asm": "OP_HASH160 OP_PUSHBYTES_20 2ed13590438414bbf744075d93430127b975cd9e OP_EQUAL",
      "scriptpubkey_type": "p2sh",
      "scriptpubkey_address": "35xZdUos9kpGpdDGrvrQFyyvJuxzhAR7MS",
      "value": 22673496
    },
    {
      "scriptpubkey": "001456232a4759ab85916ec6394efe6ae9460cf7b100",
      "scriptpubkey_asm": "OP_0 OP_PUSHBYTES_20 56232a4759ab85916ec6394efe6ae9460cf7b100",
      "scriptpubkey_type": "v0_p2wpkh",
      "scriptpubkey_address": "bc1q2c3j536e4wzezmkx8980u6hfgcx00vgqg50q2z",
      "value": 65000
    },
    {
      "scriptpubkey": "00144490955cbc318294ff8e4de3515ca250c7d2bcc2",
      "scriptpubkey_asm": "OP_0 OP_PUSHBYTES_20 4490955cbc318294ff8e4de3515ca250c7d2bcc2",
      "scriptpubkey_type": "v0_p2wpkh",
      "scriptpubkey_address": "bc1qgjgf2h9uxxpffluwfh34zh9z2rra90xza04clc",
      "value": 1410713
    },
    {
      "scriptpubkey": "00142658d02251491ba592b0c9061dac442c6aaba188",
      "scriptpubkey_asm": "OP_0 OP_PUSHBYTES_20 2658d02251491ba592b0c9061dac442c6aaba188",
      "scriptpubkey_type": "v0_p2wpkh",
      "scriptpubkey_address": "bc1qyevdqgj3fyd6ty4seyrpmtzy9342hgvg5vsxvm",
      "value": 8122849
    },
    {
      "scriptpubkey": "76a9143ab617174ba161e621e35aca91958faeef8fa57588ac",
      "scriptpubkey_asm": "OP_DUP OP_HASH160 OP_PUSHBYTES_20 3ab617174ba161e621e35aca91958faeef8fa575 OP_EQUALVERIFY OP_CHECKSIG",
      "scriptpubkey_type": "p2pkh",
      "scriptpubkey_address": "16MSKyYvcofmB5CrQMoDK5fWBxVxJUysyE",
      "value": 580399
    },
    {
      "scriptpubkey": "001404b2f431339722fb8ef4f321e60717a4fe8b7ed0",
      "scriptpubkey_asm": "OP_0 OP_PUSHBYTES_20 04b2f431339722fb8ef4f321e60717a4fe8b7ed0",
      "scriptpubkey_type": "v0_p2wpkh",
      "scriptpubkey_address": "bc1qqje0gvfnju30hrh57vs7vpch5nlgklks0khmkn",
      "value": 55000
    },
    {
      "scriptpubkey": "0014160b6938f56e9fff61cfba4ec951b4f962b56b32",
      "scriptpubkey_asm": "OP_0 OP_PUSHBYTES_20 160b6938f56e9fff61cfba4ec951b4f962b56b32",
      "scriptpubkey_type": "v0_p2wpkh",
      "scriptpubkey_address": "bc1qzc9kjw84d60l7cw0hf8vj5d5l93t26ejjxeepx",
      "value": 320000
    },
    {
      "scriptpubkey": "a914b96ee83280710e70504a90a9450cdb5a3022dafb87",
      "scriptpubkey_asm": "OP_HASH160 OP_PUSHBYTES_20 b96ee83280710e70504a90a9450cdb5a3022dafb OP_EQUAL",
      "scriptpubkey_type": "p2sh",
      "scriptpubkey_address": "3JbVnzDRGYjpNDqJKpvG1sG4qqF5FpBJLp",
      "value": 700290
    },
    {
      "scriptpubkey": "00142cb410b21508d012235cca46bdff3e9ef3bec294",
      "scriptpubkey_asm": "OP_0 OP_PUSHBYTES_20 2cb410b21508d012235cca46bdff3e9ef3bec294",
      "scriptpubkey_type": "v0_p2wpkh",
      "scriptpubkey_address": "bc1q9j6ppvs4prgpyg6uefrtmle7nmemas556stag8",
      "value": 661835
    },
    {
      "scriptpubkey": "0014fc05dc31fe3da9b6b232860e7c05c82ffde7317b",
      "scriptpubkey_asm": "OP_0 OP_PUSHBYTES_20 fc05dc31fe3da9b6b232860e7c05c82ffde7317b",
      "scriptpubkey_type": "v0_p2wpkh",
      "scriptpubkey_address": "bc1qlszacv078k5mdv3jsc88cpwg9l77wvtmqtn2um",
      "value": 493112
    },
    {
      "scriptpubkey": "76a91444253fbc5b36b7dfaa150ec21e8294443023439188ac",
      "scriptpubkey_asm": "OP_DUP OP_HASH160 OP_PUSHBYTES_20 44253fbc5b36b7dfaa150ec21e82944430234391 OP_EQUALVERIFY OP_CHECKSIG",
      "scriptpubkey_type": "p2pkh",
      "scriptpubkey_address": "17DKa9bJFxfLdP2gurH8FwnSHcANBi4wJ1",
      "value": 265389
    },
    {
      "scriptpubkey": "0014754f5d2775601db25337c9344862c61d8f1e8ac8",
      "scriptpubkey_asm": "OP_0 OP_PUSHBYTES_20 754f5d2775601db25337c9344862c61d8f1e8ac8",
      "scriptpubkey_type": "v0_p2wpkh",
      "scriptpubkey_address": "bc1qw4846fm4vqwmy5ehey6ysckxrk83azkgu8e7j7",
      "value": 99980000
    },
    {
      "scriptpubkey": "00146740a1af65ed55a13348fa0718381efcfd4c282f",
      "scriptpubkey_asm": "OP_0 OP_PUSHBYTES_20 6740a1af65ed55a13348fa0718381efcfd4c282f",
      "scriptpubkey_type": "v0_p2wpkh",
      "scriptpubkey_address": "bc1qvaq2rtm9a426zv6glgr3swq7ln75c2p0qc0her",
      "value": 40000
    },
    {
      "scriptpubkey": "0014cb05297cffa8d98cfbe44b56736763459ea2ebb0",
      "scriptpubkey_asm": "OP_0 OP_PUSHBYTES_20 cb05297cffa8d98cfbe44b56736763459ea2ebb0",
      "scriptpubkey_type": "v0_p2wpkh",
      "scriptpubkey_address": "bc1qevzjjl8l4rvce7lyfdt8xemrgk0296as79aa03",
      "value": 80000
    },
    {
      "scriptpubkey": "76a9146ec639a4e821d31f9e7bd7548262e22119afb1b688ac",
      "scriptpubkey_asm": "OP_DUP OP_HASH160 OP_PUSHBYTES_20 6ec639a4e821d31f9e7bd7548262e22119afb1b6 OP_EQUALVERIFY OP_CHECKSIG",
      "scriptpubkey_type": "p2pkh",
      "scriptpubkey_address": "1B6io2cUy3ormyprvYNnG2utMwtFNS8P5g",
      "value": 3217247
    },
    {
      "scriptpubkey": "5120a48baee33ab346eb0e45c985367b26aa322f9ebdf9fb0d233baacf9fc159829b",
      "scriptpubkey_asm": "OP_PUSHNUM_1 OP_PUSHBYTES_32 a48baee33ab346eb0e45c985367b26aa322f9ebdf9fb0d233baacf9fc159829b",
      "scriptpubkey_type": "v1_p2tr",
      "scriptpubkey_address": "bc1p5j96ace6kdrwkrj9exznv7ex4gezl84al8as6gem4t8els2es2dsga2luq",
      "value": 1347631
    },
    {
      "scriptpubkey": "00149a392927cec36c82385e09c6702bc5e19908ed4e",
      "scriptpubkey_asm": "OP_0 OP_PUSHBYTES_20 9a392927cec36c82385e09c6702bc5e19908ed4e",
      "scriptpubkey_type": "v0_p2wpkh",
      "scriptpubkey_address": "bc1qngujjf7wcdkgywz7p8r8q279uxvs3m2ww6c5f3",
      "value": 113699
    },
    {
      "scriptpubkey": "00144b3874f6a5b82ae5689d959903c6ce080a084487",
      "scriptpubkey_asm": "OP_0 OP_PUSHBYTES_20 4b3874f6a5b82ae5689d959903c6ce080a084487",
      "scriptpubkey_type": "v0_p2wpkh",
      "scriptpubkey_address": "bc1qfvu8fa49hq4w26yajkvs83kwpq9qs3y80zlppa",
      "value": 2074903
    },
    {
      "scriptpubkey": "00149c26701dfbae9e8f7d3abd84739c9d8572bd41ef",
      "scriptpubkey_asm": "OP_0 OP_PUSHBYTES_20 9c26701dfbae9e8f7d3abd84739c9d8572bd41ef",
      "scriptpubkey_type": "v0_p2wpkh",
      "scriptpubkey_address": "bc1qnsn8q80m460g7lf6hkz888yas4et6s00l9sd6r",
      "value": 300474
    },
    {
      "scriptpubkey": "76a914a510c4c46f1c541f98e4102bcd90ccb4e57db10b88ac",
      "scriptpubkey_asm": "OP_DUP OP_HASH160 OP_PUSHBYTES_20 a510c4c46f1c541f98e4102bcd90ccb4e57db10b OP_EQUALVERIFY OP_CHECKSIG",
      "scriptpubkey_type": "p2pkh",
      "scriptpubkey_address": "1G3naksHAtgUxTfFQ8AKuiz8jyHXZtSe7y",
      "value": 4049419
    },
    {
      "scriptpubkey": "a914dbe09f8eea44efc686db21cf0ca40e6f1b30fc4187",
      "scriptpubkey_asm": "OP_HASH160 OP_PUSHBYTES_20 dbe09f8eea44efc686db21cf0ca40e6f1b30fc41 OP_EQUAL",
      "scriptpubkey_type": "p2sh",
      "scriptpubkey_address": "3Mjczer5NguD5xojZAUYWCsppgRtFLnDJa",
      "value": 56131356
    },
    {
      "scriptpubkey": "001490de773ad87bef727f37567691ffac74e5c00ce1",
      "scriptpubkey_asm": "OP_0 OP_PUSHBYTES_20 90de773ad87bef727f37567691ffac74e5c00ce1",
      "scriptpubkey_type": "v0_p2wpkh",
      "scriptpubkey_address": "bc1qjr08wwkc00hhyleh2emfrlavwnjuqr8p34ptn3",
      "value": 80000
    },
    {
      "scriptpubkey": "001486ae9c78aafec7cc3dc10e88c79fd13373ae8da9",
      "scriptpubkey_asm": "OP_0 OP_PUSHBYTES_20 86ae9c78aafec7cc3dc10e88c79fd13373ae8da9",
      "scriptpubkey_type": "v0_p2wpkh",
      "scriptpubkey_address": "bc1qs6hfc792lmruc0wpp6yv0873xde6ardffp83yh",
      "value": 48796
    },
    {
      "scriptpubkey": "00143c138023f6d2a0616ebe787b31f7268e60da1f7c",
      "scriptpubkey_asm": "OP_0 OP_PUSHBYTES_20 3c138023f6d2a0616ebe787b31f7268e60da1f7c",
      "scriptpubkey_type": "v0_p2wpkh",
      "scriptpubkey_address": "bc1q8sfcqglk62sxzm470panraex3esd58muhrvajm",
      "value": 341133
    },
    {
      "scriptpubkey": "76a914792f1a22f127d046b7f1860a659d6e4621b0765a88ac",
      "scriptpubkey_asm": "OP_DUP OP_HASH160 OP_PUSHBYTES_20 792f1a22f127d046b7f1860a659d6e4621b0765a OP_EQUALVERIFY OP_CHECKSIG",
      "scriptpubkey_type": "p2pkh",
      "scriptpubkey_address": "1C3mBvWAXLHxk5ooG28rkJcvCvSKc8Tesg",
      "value": 397363
    }
  ],
  "size": 1328,
  "weight": 4982,
  "fee": 62300,
  "status": {
    "confirmed": true,
    "block_height": 834552,
    "block_hash": "00000000000000000001dd0468a70c94f619251d286585cff57aeb4bd9ede330",
    "block_time": 1710355598
  },
  "hex": "01000000000101f0f0eee9f0f8fc34c0449bf194a01a592f705aa201d7dfaad6519ae180bd398e0000000000ffffffff2406cc0000000000001976a914acb4eb8c8debd69f5a53b0ec19064ac3885feebb88ac3d35530b00000000160014dc6bf86354105de2fcd9868a2b0376d6731cb92fc52902000000000017a914866a3da75e873fba3de78ad41f7b1c6bdd9f41ce876a072b0000000000160014f8b747366efd70b166ea41c5b0cf68131e4543b1c95b0100000000002200203b1992c96e1667524172c4ec1654a18719fa1e97e6a8c76ef664c17ca22ba5f6d3e005000000000017a91443ddc203767c21227a47b0108fe1be9fc5a8d0788726cc0f000000000017a91466c99a9fd084516c51139931c5cd92b81b6a8f5c87fb4a2d000000000017a91467db164b9785365f912624599dd78140545def8f875681170000000000160014daeef9ecd2c1b71aa08f419d672ae937f4822da4005307000000000017a91416b1d40ad37085c532144047118dd86a46ec7f1387409c00000000000017a914a55fcef0d914c5fea9a76c53050fa28e1d82a77b8758f859010000000017a9142ed13590438414bbf744075d93430127b975cd9e87e8fd00000000000016001456232a4759ab85916ec6394efe6ae9460cf7b10099861500000000001600144490955cbc318294ff8e4de3515ca250c7d2bcc2e1f17b00000000001600142658d02251491ba592b0c9061dac442c6aaba1882fdb0800000000001976a9143ab617174ba161e621e35aca91958faeef8fa57588acd8d600000000000016001404b2f431339722fb8ef4f321e60717a4fe8b7ed000e2040000000000160014160b6938f56e9fff61cfba4ec951b4f962b56b3282af0a000000000017a914b96ee83280710e70504a90a9450cdb5a3022dafb874b190a00000000001600142cb410b21508d012235cca46bdff3e9ef3bec2943886070000000000160014fc05dc31fe3da9b6b232860e7c05c82ffde7317bad0c0400000000001976a91444253fbc5b36b7dfaa150ec21e8294443023439188ace092f50500000000160014754f5d2775601db25337c9344862c61d8f1e8ac8409c0000000000001600146740a1af65ed55a13348fa0718381efcfd4c282f8038010000000000160014cb05297cffa8d98cfbe44b56736763459ea2ebb05f173100000000001976a9146ec639a4e821d31f9e7bd7548262e22119afb1b688ac2f90140000000000225120a48baee33ab346eb0e45c985367b26aa322f9ebdf9fb0d233baacf9fc159829b23bc0100000000001600149a392927cec36c82385e09c6702bc5e19908ed4e17a91f00000000001600144b3874f6a5b82ae5689d959903c6ce080a084487ba950400000000001600149c26701dfbae9e8f7d3abd84739c9d8572bd41ef0bca3d00000000001976a914a510c4c46f1c541f98e4102bcd90ccb4e57db10b88ac1c7f58030000000017a914dbe09f8eea44efc686db21cf0ca40e6f1b30fc4187803801000000000016001490de773ad87bef727f37567691ffac74e5c00ce19cbe00000000000016001486ae9c78aafec7cc3dc10e88c79fd13373ae8da98d340500000000001600143c138023f6d2a0616ebe787b31f7268e60da1f7c33100600000000001976a914792f1a22f127d046b7f1860a659d6e4621b0765a88ac02483045022100fc46b07482814376ad4968907b6f48a1a7b2a712f3f644786a257c16654e6b5602204318402ee4f502ed8d3fab0193347b0d0bfb748df66b01425f09f4712c787eed012102174ee672429ff94304321cdae1fc1e487edf658b34bd1d36da03761658a2bb0900000000"
}