{
  "txid": "97ce3a31481ae09a6419fc00419e0c5756d00cdcd4343f6dd628b4b16c12c7de",
  "version": 1,
  "locktime": 0,
  "vin": [
    {
      "txid": "124079e58cbf20058360619ee1f639b190969d5728679363357d4899d057debb",
      "vout": 0,
      "prevout": {
        "scriptpubkey": "512098c0bba24a7765411a09ba35a1957e944c54f08ca9c75d56b51dfebb0e94166f",
        "scriptpubkey_asm": "OP_PUSHNUM_1 OP_PUSHBYTES_32 98c0bba24a7765411a09ba35a1957e944c54f08ca9c75d56b51dfebb0e94166f",
        "scriptpubkey_type": "v1_p2tr",
        "scriptpubkey_address": "bc1pnrqthgj2waj5zxsfhg66r9t7j3x9fuyv48r46444rhltkr55zehstsufla",
        "value": 2463
      },
      "scriptsig": "",
      "scriptsig_asm": "",
      "witness": [
        "5286a8594513762f13037dee0576e29458a50c841673bfdfccb0fdfe37f83fccdac6ee355c21ccd188f14a79b1fc24c5618af69acebf22482fc86f54b2cf23ed83",
        "20be11f1d0580232188e877ef283eb5a1efd4e9e5290a2633605d666f59ad3fff2ac00630461746f6d03646d743ba16461726773a468626974776f726b6364313234306b6d696e745f7469636b657264766d7078656e6f6e63651a009849cf6474696d651a65eae45e68",
        "c1be11f1d0580232188e877ef283eb5a1efd4e9e5290a2633605d666f59ad3fff2"
      ],
      "is_coinbase": false,
      "sequence": 4294967293
    }
  ],
  "vout": [
    {
      "scriptpubkey": "0014027bc455b49578636e080eabed6048b02ab3985f",
      "scriptpubkey_asm": "OP_0 OP_PUSHBYTES_20 027bc455b49578636e080eabed6048b02ab3985f",
      "scriptpubkey_type": "v0_p2wpkh",
      "scriptpubkey_address": "bc1qqfaug4d5j4uxxmsgp6476czgkq4t8xzl6u3zjv",
      "value": 1000
    }
  ],
  "size": 292,
  "weight": 538,
  "fee": 1463,
  "status": {
    "confirmed": true,
    "block_height": 834464,
    "block_hash": "0000000000000000000177a0869a911a2b65c9bdcd5a8bcb02b68f305bee848e",
    "block_time": 1710308296
  },
  "hex": "01000000000101bbde57d099487d3563936728579d9690b139f6e19e6160830520bf8ce57940120000000000fdffffff01e803000000000000160014027bc455b49578636e080eabed6048b02ab3985f03415286a8594513762f13037dee0576e29458a50c841673bfdfccb0fdfe37f83fccdac6ee355c21ccd188f14a79b1fc24c5618af69acebf22482fc86f54b2cf23ed836a20be11f1d0580232188e877ef283eb5a1efd4e9e5290a2633605d666f59ad3fff2ac00630461746f6d03646d743ba16461726773a468626974776f726b6364313234306b6d696e745f7469636b657264766d7078656e6f6e63651a009849cf6474696d651a65eae45e6821c1be11f1d0580232188e877ef283eb5a1efd4e9e5290a2633605d666f59ad3fff200000000"
}