{
  "txid": "97d1b69d879a0e150649e823ddb65b643dba602061f5a3e3c4d11bbb857b4506",
  "version": 2,
  "locktime": 0,
  "vin": [
    {
      "txid": "8da1e0008f2d27b925fe952c961e7a777ddc1e9cf2bae9d2880ce73d6d5aea0b",
      "vout": 1,
      "prevout": {
        "scriptpubkey": "512028d9dfa9e7ff18253d936987d0e6e4e27697a0a2dd8d71463b51b5daa2968456",
        "scriptpubkey_asm": "OP_PUSHNUM_1 OP_PUSHBYTES_32 28d9dfa9e7ff18253d936987d0e6e4e27697a0a2dd8d71463b51b5daa2968456",
        "scriptpubkey_type": "v1_p2tr",
        "scriptpubkey_address": "bc1p9rval208luvz20vndxrapehyufmf0g9zmkxhz33m2x6a4g5ks3tqhkwc6l",
        "value": 85396
      },
      "scriptsig": "",
      "scriptsig_asm": "",
      "witness": [
        "8d080111a6db80e6cc1b665549cba0cd960128faa4445b5737cd0d25af4a5157135527d8c7391f6294a0a1d5ccfaf4e1db0e846afc3b227eba2db46ea81ee5b5"
      ],
      "is_coinbase": false,
      "sequence": 4294967295
    }
  ],
  "vout": [
    {
      "scriptpubkey": "51200b9152d024c0a437cf76f176efb4c86fd721c6330f49e3db48375892f730c199",
      "scriptpubkey_asm": "OP_PUSHNUM_1 OP_PUSHBYTES_32 0b9152d024c0a437cf76f176efb4c86fd721c6330f49e3db48375892f730c199",
      "scriptpubkey_type": "v1_p2tr",
      "scriptpubkey_address": "bc1ppwg495pyczjr0nmk79mwldxgdltjr33npay78k6gxavf9aescxvsuwpvq5",
      "value": 11000
    },
    {
      "scriptpubkey": "512028d9dfa9e7ff18253d936987d0e6e4e27697a0a2dd8d71463b51b5daa2968456",
      "scriptpubkey_asm": "OP_PUSHNUM_1 OP_PUSHBYTES_32 28d9dfa9e7ff18253d936987d0e6e4e27697a0a2dd8d71463b51b5daa2968456",
      "scriptpubkey_type": "v1_p2tr",
      "scriptpubkey_address": "bc1p9rval208luvz20vndxrapehyufmf0g9zmkxhz33m2x6a4g5ks3tqhkwc6l",
      "value": 72394
    }
  ],
  "size": 205,
  "weight": 616,
  "fee": 2002,
  "status": {
    "confirmed": true,
    "block_height": 834460,
    "block_hash": "00000000000000000000484a79b643b2524bbce82e5d8a442013fa5b8905ed98",
    "block_time": 1710307468
  },
  "hex": "020000000001010bea5a6d3de70c88d2e9baf29c1edc7d777a1e962c95fe25b9272d8f00e0a18d0100000000ffffffff02f82a0000000000002251200b9152d024c0a437cf76f176efb4c86fd721c6330f49e3db48375892f730c199ca1a01000000000022512028d9dfa9e7ff18253d936987d0e6e4e27697a0a2dd8d71463b51b5daa296845601408d080111a6db80e6cc1b665549cba0cd960128faa4445b5737cd0d25af4a5157135527d8c7391f6294a0a1d5ccfaf4e1db0e846afc3b227eba2db46ea81ee5b500000000"
}