{
  "txid": "97d2d0596bfc23a3da80b241f3b9c9ccc5b6d0bbca760fd447c3ce286e260a56",
  "version": 2,
  "locktime": 834637,
  "vin": [
    {
      "txid": "31affd46b7854d4584dd101ec649619aacc4f652e6faafa22323ae4f8b133091",
      "vout": 0,
      "prevout": {
        "scriptpubkey": "001434236cf204c0d582140f746adb831e8ddc75fee8",
        "scriptpubkey_asm": "OP_0 OP_PUSHBYTES_20 34236cf204c0d582140f746adb831e8ddc75fee8",
        "scriptpubkey_type": "v0_p2wpkh",
        "scriptpubkey_address": "bc1qxs3keusycr2cy9q0w34dhqc73hw8tlhg8h7d9h",
        "value": 4640571
      },
      "scriptsig": "",
      "scriptsig_asm": "",
      "witness": [
        "30440220463f8ee7b31377d5ae4d57644dd15d9ca27cd6b8125a0b96fcc4e5982bba5eeb022057207911409dde8bdc7e881d493ccceca68732dae4216301e61ffdd013ecfc3301",
        "03e7d1809adb47805b8c2d9ecad8b8dbd27a81d364add44987da915b307a0914b0"
      ],
      "is_coinbase": false,
      "sequence": 4294967293
    }
  ],
  "vout": [
    {
      "scriptpubkey": "0014b9ccd9087d555461bab3ac4d51ce6319ee548182",
      "scriptpubkey_asm": "OP_0 OP_PUSHBYTES_20 b9ccd9087d555461bab3ac4d51ce6319ee548182",
      "scriptpubkey_type": "v0_p2wpkh",
      "scriptpubkey_address": "bc1qh8xdjzra242xrw4n43x4rnnrr8h9fqvz7lk64a",
      "value": 679933
    },
    {
      "scriptpubkey": "0014612a7936e2c70be6f1496723b7025d1c77e2ccff",
      "scriptpubkey_asm": "OP_0 OP_PUSHBYTES_20 612a7936e2c70be6f1496723b7025d1c77e2ccff",
      "scriptpubkey_type": "v0_p2wpkh",
      "scriptpubkey_address": "bc1qvy48jdhzcu97du2fvu3mwqjar3m79n8l08h8vp",
      "value": 3956408
    }
  ],
  "size": 222,
  "weight": 561,
  "fee": 4230,
  "status": {
    "confirmed": true,
    "block_height": 834638,
    "block_hash": "000000000000000000025f742c626208ac87e0b7d15054abb4a19ca2d735a54e",
    "block_time": 1710405325
  },
  "hex": "020000000001019130138b4fae2323a2affae652f6c4ac9a6149c61e10dd84454d85b746fdaf310000000000fdffffff02fd5f0a0000000000160014b9ccd9087d555461bab3ac4d51ce6319ee548182b85e3c0000000000160014612a7936e2c70be6f1496723b7025d1c77e2ccff024730440220463f8ee7b31377d5ae4d57644dd15d9ca27cd6b8125a0b96fcc4e5982bba5eeb022057207911409dde8bdc7e881d493ccceca68732dae4216301e61ffdd013ecfc33012103e7d1809adb47805b8c2d9ecad8b8dbd27a81d364add44987da915b307a0914b04dbc0c00"
}