{
  "txid": "97e0ac16d62be1b320b11d23a2ce09671604115889c09f4070d4666a26821693",
  "version": 1,
  "locktime": 0,
  "vin": [
    {
      "txid": "554c46e0a966b395cc7ac91947f515519636f126d29e28e4ddc79803bf26e333",
      "vout": 1,
      "prevout": {
        "scriptpubkey": "00144dfb89fe2aa07ecc86217c706931c0209ccbd6f2",
        "scriptpubkey_asm": "OP_0 OP_PUSHBYTES_20 4dfb89fe2aa07ecc86217c706931c0209ccbd6f2",
        "scriptpubkey_type": "v0_p2wpkh",
        "scriptpubkey_address": "bc1qfhacnl325plvep3p03cxjvwqyzwvh4hj69av94",
        "value": 8090168
      },
      "scriptsig": "",
      "scriptsig_asm": "",
      "witness": [
        "3045022100e18d0fa8a978ca6389389e9d0387d719311e1e80d5cf9088e2fdba8a390d7b2a0220601a37715330283242615c160f078f110f70d277e3ec628bd6664d0b630f78fc01",
        "0290a61659eea88c0deb8a9c2c9fa75173d79098edf89a0ac717dddb424d0f9fdd"
      ],
      "is_coinbase": false,
      "sequence": 4294967293
    }
  ],
  "vout": [
    {
      "scriptpubkey": "001494fb505d299c1f69282bbfc4f6d1ba3a4924ce4d",
      "scriptpubkey_asm": "OP_0 OP_PUSHBYTES_20 94fb505d299c1f69282bbfc4f6d1ba3a4924ce4d",
      "scriptpubkey_type": "v0_p2wpkh",
      "scriptpubkey_address": "bc1qjna4qhffns0kj2pthlz0d5d68fyjfnjdgfduv2",
      "value": 762777
    },
    {
      "scriptpubkey": "00146415faf21ff951d24bc1aff7505ec051d2a678d7",
      "scriptpubkey_asm": "OP_0 OP_PUSHBYTES_20 6415faf21ff951d24bc1aff7505ec051d2a678d7",
      "scriptpubkey_type": "v0_p2wpkh",
      "scriptpubkey_address": "bc1qvs2l4usll9gayj7p4lm4qhkq28f2v7xhwmyvmn",
      "value": 7324430
    }
  ],
  "size": 223,
  "weight": 562,
  "fee": 2961,
  "status": {
    "confirmed": true,
    "block_height": 834460,
    "block_hash": "00000000000000000000484a79b643b2524bbce82e5d8a442013fa5b8905ed98",
    "block_time": 1710307468
  },
  "hex": "0100000000010133e326bf0398c7dde4289ed226f136965115f54719c97acc95b366a9e0464c550100000000fdffffff0299a30b000000000016001494fb505d299c1f69282bbfc4f6d1ba3a4924ce4d0ec36f00000000001600146415faf21ff951d24bc1aff7505ec051d2a678d702483045022100e18d0fa8a978ca6389389e9d0387d719311e1e80d5cf9088e2fdba8a390d7b2a0220601a37715330283242615c160f078f110f70d277e3ec628bd6664d0b630f78fc01210290a61659eea88c0deb8a9c2c9fa75173d79098edf89a0ac717dddb424d0f9fdd00000000"
}