{
  "txid": "97e01fbad0e04bf7f855562ed81464646ca5a6b29d4d058dbd165be5f785c155",
  "version": 1,
  "locktime": 834637,
  "vin": [
    {
      "txid": "a399fe4e4507811e256eb26a32114ea590498a989c01d08e9d673c01d6b6d57c",
      "vout": 75,
      "prevout": {
        "scriptpubkey": "a9143ed142836d940069dbe8b090887a7b288921db3587",
        "scriptpubkey_asm": "OP_HASH160 OP_PUSHBYTES_20 3ed142836d940069dbe8b090887a7b288921db35 OP_EQUAL",
        "scriptpubkey_type": "p2sh",
        "scriptpubkey_address": "37RAW4gWjthdjL2RUN9GTipg6aw2wtdda4",
        "value": 200919
      },
      "scriptsig": "2200202791caef68f38a0fa3f14d5f4169894ebc318355d2c33bfc1a9d606403b1dbea",
      "scriptsig_asm": "OP_PUSHBYTES_34 00202791caef68f38a0fa3f14d5f4169894ebc318355d2c33bfc1a9d606403b1dbea",
      "witness": [
        "",
        "304402201b9d1355dda4c68e974a1489b563583e51cdfac2b96ba3c337daaea728716a150220704e9a1536b6c691e783d8a77570835c65f93facc141a6f5de0594256c065f8601",
        "304402206adcea69ea39a8c8305f585777daf09371c37f7f4316274aa8737d74e89e9c87022062d1c19b3682d88dadb0c2da1cae99bda425a6c3e8406b2f082550cffe74e78501",
        "522103d1fe4853270a6ce8817b2f6a40f1739c24de5d5e2e10a7c2d3b94380d249c792210315f54c425d1b92dc14c543763c230bda607670e3b44fc968cd3118b11cf464f72103a8e6028eed4ec88b9015516315a165389bf4d94d2fce8cb74968fb3f636eb92153ae"
      ],
      "is_coinbase": false,
      "sequence": 4294967293,
      "inner_redeemscript_asm": "OP_0 OP_PUSHBYTES_32 2791caef68f38a0fa3f14d5f4169894ebc318355d2c33bfc1a9d606403b1dbea",
      "inner_witnessscript_asm": "OP_PUSHNUM_2 OP_PUSHBYTES_33 03d1fe4853270a6ce8817b2f6a40f1739c24de5d5e2e10a7c2d3b94380d249c792 OP_PUSHBYTES_33 0315f54c425d1b92dc14c543763c230bda607670e3b44fc968cd3118b11cf464f7 OP_PUSHBYTES_33 03a8e6028eed4ec88b9015516315a165389bf4d94d2fce8cb74968fb3f636eb921 OP_PUSHNUM_3 OP_CHECKMULTISIG"
    },
    {
      "txid": "a399fe4e4507811e256eb26a32114ea590498a989c01d08e9d673c01d6b6d57c",
      "vout": 79,
      "prevout": {
        "scriptpubkey": "a91497fee623e42b112f29e250ce35e4dfe2c7891f2987",
        "scriptpubkey_asm": "OP_HASH160 OP_PUSHBYTES_20 97fee623e42b112f29e250ce35e4dfe2c7891f29 OP_EQUAL",
        "scriptpubkey_type": "p2sh",
        "scriptpubkey_address": "3FYhKCgCiAbTK7ApGUmwJsnjmeSkWyAFmx",
        "value": 137984
      },
      "scriptsig": "220020951729cd191f8f8c56303d1ff95906d5019929c44fa2d4a1f0175e93d3926d03",
      "scriptsig_asm": "OP_PUSHBYTES_34 0020951729cd191f8f8c56303d1ff95906d5019929c44fa2d4a1f0175e93d3926d03",
      "witness": [
        "",
        "3045022100dfe71743d897efa9565d0726f7b2030f24077c06453a9f15e5924e9a66160a710220595c9cd3c827f2460d60d715de9d550f6e34703dfbd491a8ce00652e97eb80c301",
        "3044022032d80425dfc339e30180524d228f421ba0ca7e853ff74b86ce705023f4bf39100220431ee1c782c8af6304a1f714bccf139d9ba7d6f4477e101d4ff26557f6ba6de201",
        "522102d65d7e10cd1057d4a8ab0889a5704cf6659f1e3bd4d3690b77e05ee78261a57b2102e660da0631ddfafcca674482dc4efd0f2da13bf8f5a682a03457e5c6ca94a3eb2103b79d9d57ed70c791c40313f953729fdce9f2a6faa368718b85d40a864f78c69553ae"
      ],
      "is_coinbase": false,
      "sequence": 4294967293,
      "inner_redeemscript_asm": "OP_0 OP_PUSHBYTES_32 951729cd191f8f8c56303d1ff95906d5019929c44fa2d4a1f0175e93d3926d03",
      "inner_witnessscript_asm": "OP_PUSHNUM_2 OP_PUSHBYTES_33 02d65d7e10cd1057d4a8ab0889a5704cf6659f1e3bd4d3690b77e05ee78261a57b OP_PUSHBYTES_33 02e660da0631ddfafcca674482dc4efd0f2da13bf8f5a682a03457e5c6ca94a3eb OP_PUSHBYTES_33 03b79d9d57ed70c791c40313f953729fdce9f2a6faa368718b85d40a864f78c695 OP_PUSHNUM_3 OP_CHECKMULTISIG"
    },
    {
      "txid": "a399fe4e4507811e256eb26a32114ea590498a989c01d08e9d673c01d6b6d57c",
      "vout": 83,
      "prevout": {
        "scriptpubkey": "a9148869e30e925d0213423c4b8ef5397994919d0eb487",
        "scriptpubkey_asm": "OP_HASH160 OP_PUSHBYTES_20 8869e30e925d0213423c4b8ef5397994919d0eb4 OP_EQUAL",
        "scriptpubkey_type": "p2sh",
        "scriptpubkey_address": "3E8JfnZVcQN3KeuHra9ZL7a63MbSS5XN4o",
        "value": 1230839
      },
      "scriptsig": "2200205b84d8fa04d18ca0e0b12f105e3a46f7d1b1fb7bba152791cdbbda9a6510f5d9",
      "scriptsig_asm": "OP_PUSHBYTES_34 00205b84d8fa04d18ca0e0b12f105e3a46f7d1b1fb7bba152791cdbbda9a6510f5d9",
      "witness": [
        "",
        "3044022028f24ab756f4ca0e107fe0143d07bd388ee0acd919ce9d3f1a30cf4f0b8c0bbc022034f89ed6b2c3a73eecd071c90a0d9dd574ea8b4d853d379c146fe0844c6b264a01",
        "304402204cfe4c1864c374ac3f68c8de7117e6d6cce5dead2c7f8f1133c4a16a73562c2c02200d4fc0951140fabaae64e7ced3222147cece63fd1dc0b8905591428fe294f75801",
        "522102381476d3c3b309986a39875320b1849cd45adb4400170c60de92999c7357b63c210378c882d9d808c6c8ba9a054985037d07d534e75c9ccaf4a31b91e7e2ab4ea2c021022174c19ec001b11d75a94add36cbf96ba716dfae074bb5c8b058904d45813b0c53ae"
      ],
      "is_coinbase": false,
      "sequence": 4294967293,
      "inner_redeemscript_asm": "OP_0 OP_PUSHBYTES_32 5b84d8fa04d18ca0e0b12f105e3a46f7d1b1fb7bba152791cdbbda9a6510f5d9",
      "inner_witnessscript_asm": "OP_PUSHNUM_2 OP_PUSHBYTES_33 02381476d3c3b309986a39875320b1849cd45adb4400170c60de92999c7357b63c OP_PUSHBYTES_33 0378c882d9d808c6c8ba9a054985037d07d534e75c9ccaf4a31b91e7e2ab4ea2c0 OP_PUSHBYTES_33 022174c19ec001b11d75a94add36cbf96ba716dfae074bb5c8b058904d45813b0c OP_PUSHNUM_3 OP_CHECKMULTISIG"
    }
  ],
  "vout": [
    {
      "scriptpubkey": "00147084b6ca1714a43af219838fb6a6eabcda8da595",
      "scriptpubkey_asm": "OP_0 OP_PUSHBYTES_20 7084b6ca1714a43af219838fb6a6eabcda8da595",
      "scriptpubkey_type": "v0_p2wpkh",
      "scriptpubkey_address": "bc1qwzztdjshzjjr4usesw8mdfh2hndgmfv4mylcjw",
      "value": 20036
    },
    {
      "scriptpubkey": "002072ddf6230863a17db06a26137b48c65f070892d0f8dcfc35f6794a0438ceb39e",
      "scriptpubkey_asm": "OP_0 OP_PUSHBYTES_32 72ddf6230863a17db06a26137b48c65f070892d0f8dcfc35f6794a0438ceb39e",
      "scriptpubkey_type": "v0_p2wsh",
      "scriptpubkey_address": "bc1qwtwlvgcgvwshmvr2ycfhkjxxturs3ykslrw0cd0k099qgwxwkw0qqt78hz",
      "value": 1538597
    }
  ],
  "size": 1071,
  "weight": 2007,
  "fee": 11109,
  "status": {
    "confirmed": true,
    "block_height": 834638,
    "block_hash": "000000000000000000025f742c626208ac87e0b7d15054abb4a19ca2d735a54e",
    "block_time": 1710405325
  },
  "hex": "010000000001037cd5b6d6013c679d8ed0019c988a4990a54e11326ab26e251e8107454efe99a34b000000232200202791caef68f38a0fa3f14d5f4169894ebc318355d2c33bfc1a9d606403b1dbeafdffffff7cd5b6d6013c679d8ed0019c988a4990a54e11326ab26e251e8107454efe99a34f00000023220020951729cd191f8f8c56303d1ff95906d5019929c44fa2d4a1f0175e93d3926d03fdffffff7cd5b6d6013c679d8ed0019c988a4990a54e11326ab26e251e8107454efe99a353000000232200205b84d8fa04d18ca0e0b12f105e3a46f7d1b1fb7bba152791cdbbda9a6510f5d9fdffffff02444e0000000000001600147084b6ca1714a43af219838fb6a6eabcda8da595257a17000000000022002072ddf6230863a17db06a26137b48c65f070892d0f8dcfc35f6794a0438ceb39e040047304402201b9d1355dda4c68e974a1489b563583e51cdfac2b96ba3c337daaea728716a150220704e9a1536b6c691e783d8a77570835c65f93facc141a6f5de0594256c065f860147304402206adcea69ea39a8c8305f585777daf09371c37f7f4316274aa8737d74e89e9c87022062d1c19b3682d88dadb0c2da1cae99bda425a6c3e8406b2f082550cffe74e7850169522103d1fe4853270a6ce8817b2f6a40f1739c24de5d5e2e10a7c2d3b94380d249c792210315f54c425d1b92dc14c543763c230bda607670e3b44fc968cd3118b11cf464f72103a8e6028eed4ec88b9015516315a165389bf4d94d2fce8cb74968fb3f636eb92153ae0400483045022100dfe71743d897efa9565d0726f7b2030f24077c06453a9f15e5924e9a66160a710220595c9cd3c827f2460d60d715de9d550f6e34703dfbd491a8ce00652e97eb80c301473044022032d80425dfc339e30180524d228f421ba0ca7e853ff74b86ce705023f4bf39100220431ee1c782c8af6304a1f714bccf139d9ba7d6f4477e101d4ff26557f6ba6de20169522102d65d7e10cd1057d4a8ab0889a5704cf6659f1e3bd4d3690b77e05ee78261a57b2102e660da0631ddfafcca674482dc4efd0f2da13bf8f5a682a03457e5c6ca94a3eb2103b79d9d57ed70c791c40313f953729fdce9f2a6faa368718b85d40a864f78c69553ae0400473044022028f24ab756f4ca0e107fe0143d07bd388ee0acd919ce9d3f1a30cf4f0b8c0bbc022034f89ed6b2c3a73eecd071c90a0d9dd574ea8b4d853d379c146fe0844c6b264a0147304402204cfe4c1864c374ac3f68c8de7117e6d6cce5dead2c7f8f1133c4a16a73562c2c02200d4fc0951140fabaae64e7ced3222147cece63fd1dc0b8905591428fe294f7580169522102381476d3c3b309986a39875320b1849cd45adb4400170c60de92999c7357b63c210378c882d9d808c6c8ba9a054985037d07d534e75c9ccaf4a31b91e7e2ab4ea2c021022174c19ec001b11d75a94add36cbf96ba716dfae074bb5c8b058904d45813b0c53ae4dbc0c00"
}