{
  "txid": "97f76ec97efcc942b172142455f3b20f10742c6d8a6011037657a1d5d5eb4ea4",
  "version": 2,
  "locktime": 0,
  "vin": [
    {
      "txid": "890b958bd3414e31c1213a9e90751f0cc4f63ab8fc05346cbbe733179bf12e64",
      "vout": 0,
      "prevout": {
        "scriptpubkey": "5120ce1039e86ac13577cd4326765ba3200b544396098351b2e80f43249242f1df4b",
        "scriptpubkey_asm": "OP_PUSHNUM_1 OP_PUSHBYTES_32 ce1039e86ac13577cd4326765ba3200b544396098351b2e80f43249242f1df4b",
        "scriptpubkey_type": "v1_p2tr",
        "scriptpubkey_address": "bc1pecgrn6r2cy6h0n2ryem9hgeqpd2y89sfsdgm96q0gvjfysh3ma9s5qk0xg",
        "value": 546
      },
      "scriptsig": "",
      "scriptsig_asm": "",
      "witness": [
        "8c15c1bda1abf12aa287df9589ce331ae6aeda2261fac743e9e6270b6173ef5095806476029ca6d8ac007f5c78405c858a2037faa5b9a882b543a597b2811f6c"
      ],
      "is_coinbase": false,
      "sequence": 4294967295
    },
    {
      "txid": "ec7b6d6d02fbbbebed36ca87f7ccabdda72cd9268bb47250eeb253a2f5873943",
      "vout": 1,
      "prevout": {
        "scriptpubkey": "5120ce1039e86ac13577cd4326765ba3200b544396098351b2e80f43249242f1df4b",
        "scriptpubkey_asm": "OP_PUSHNUM_1 OP_PUSHBYTES_32 ce1039e86ac13577cd4326765ba3200b544396098351b2e80f43249242f1df4b",
        "scriptpubkey_type": "v1_p2tr",
        "scriptpubkey_address": "bc1pecgrn6r2cy6h0n2ryem9hgeqpd2y89sfsdgm96q0gvjfysh3ma9s5qk0xg",
        "value": 45095
      },
      "scriptsig": "",
      "scriptsig_asm": "",
      "witness": [
        "fc2de75663fc1b499b99526f1acc1e4d5160c866247b4f74ef0478769e36ba7d28c58345cfefc5d9b5b0256a95a794f34eb2875a0eb6ac52221f1ae52c7bca2b"
      ],
      "is_coinbase": false,
      "sequence": 4294967295
    }
  ],
  "vout": [
    {
      "scriptpubkey": "512024ae4a7dfa231759c9c769be9f604efb465af2cdd31ca3971daa62a3116f7883",
      "scriptpubkey_asm": "OP_PUSHNUM_1 OP_PUSHBYTES_32 24ae4a7dfa231759c9c769be9f604efb465af2cdd31ca3971daa62a3116f7883",
      "scriptpubkey_type": "v1_p2tr",
      "scriptpubkey_address": "bc1pyjhy5l06yvt4njw8dxlf7czwldr94ukd6vw289ca4f32xyt00zps7kpzn2",
      "value": 546
    },
    {
      "scriptpubkey": "5120ce1039e86ac13577cd4326765ba3200b544396098351b2e80f43249242f1df4b",
      "scriptpubkey_asm": "OP_PUSHNUM_1 OP_PUSHBYTES_32 ce1039e86ac13577cd4326765ba3200b544396098351b2e80f43249242f1df4b",
      "scriptpubkey_type": "v1_p2tr",
      "scriptpubkey_address": "bc1pecgrn6r2cy6h0n2ryem9hgeqpd2y89sfsdgm96q0gvjfysh3ma9s5qk0xg",
      "value": 41915
    }
  ],
  "size": 312,
  "weight": 846,
  "fee": 3180,
  "status": {
    "confirmed": true,
    "block_height": 834460,
    "block_hash": "00000000000000000000484a79b643b2524bbce82e5d8a442013fa5b8905ed98",
    "block_time": 1710307468
  },
  "hex": "02000000000102642ef19b1733e7bb6c3405fcb83af6c40c1f75909e3a21c1314e41d38b950b890000000000ffffffff433987f5a253b2ee5072b48b26d92ca7ddabccf787ca36edebbbfb026d6d7bec0100000000ffffffff02220200000000000022512024ae4a7dfa231759c9c769be9f604efb465af2cdd31ca3971daa62a3116f7883bba3000000000000225120ce1039e86ac13577cd4326765ba3200b544396098351b2e80f43249242f1df4b01408c15c1bda1abf12aa287df9589ce331ae6aeda2261fac743e9e6270b6173ef5095806476029ca6d8ac007f5c78405c858a2037faa5b9a882b543a597b2811f6c0140fc2de75663fc1b499b99526f1acc1e4d5160c866247b4f74ef0478769e36ba7d28c58345cfefc5d9b5b0256a95a794f34eb2875a0eb6ac52221f1ae52c7bca2b00000000"
}