{
  "txid": "9819bf168db06e1a166be928b0fc4c567a6b683558731764a524d25bcb38c1ea",
  "version": 1,
  "locktime": 0,
  "vin": [
    {
      "txid": "7d571ff4855a2ba0060b9fb32ddaf31c5e45a94508226dbab9919378f5821f54",
      "vout": 2,
      "prevout": {
        "scriptpubkey": "00149336d46af1aaf987a0a51e379be96192a1fbc2ed",
        "scriptpubkey_asm": "OP_0 OP_PUSHBYTES_20 9336d46af1aaf987a0a51e379be96192a1fbc2ed",
        "scriptpubkey_type": "v0_p2wpkh",
        "scriptpubkey_address": "bc1qjvmdg6h34tuc0g99rcmeh6tpj2slhshdhuya2z",
        "value": 6084847
      },
      "scriptsig": "",
      "scriptsig_asm": "",
      "witness": [
        "3044022041adfd509216600029eb0eb505358434b9ffc124007eeb3c189479bd4db16e4202207c5db05c948c3481bd88bb11112654b7edabd09b5aac164924607b565f89ab8701",
        "0206475e617aa20c34738496d8cd71a90bcf81e61e2a1a34d595f131ccf62f87b8"
      ],
      "is_coinbase": false,
      "sequence": 4294967295
    },
    {
      "txid": "ea3f37800a0ac9ebaef377465940888c03e11d3183ba2a5b8a147dc9f8a9da92",
      "vout": 2,
      "prevout": {
        "scriptpubkey": "00149336d46af1aaf987a0a51e379be96192a1fbc2ed",
        "scriptpubkey_asm": "OP_0 OP_PUSHBYTES_20 9336d46af1aaf987a0a51e379be96192a1fbc2ed",
        "scriptpubkey_type": "v0_p2wpkh",
        "scriptpubkey_address": "bc1qjvmdg6h34tuc0g99rcmeh6tpj2slhshdhuya2z",
        "value": 13607263
      },
      "scriptsig": "",
      "scriptsig_asm": "",
      "witness": [
        "3045022100a2114ffca39e1f004f0621bdd005780a6f977d7bd273770493426b6c86544d020220454e4400d0e78b13cd67fcf58872b994972383dd5c908ad791766fb20808e4c901",
        "0206475e617aa20c34738496d8cd71a90bcf81e61e2a1a34d595f131ccf62f87b8"
      ],
      "is_coinbase": false,
      "sequence": 4294967295
    }
  ],
  "vout": [
    {
      "scriptpubkey": "0014b4011940b3da6bb34072946958d53cbce8a5b2c6",
      "scriptpubkey_asm": "OP_0 OP_PUSHBYTES_20 b4011940b3da6bb34072946958d53cbce8a5b2c6",
      "scriptpubkey_type": "v0_p2wpkh",
      "scriptpubkey_address": "bc1qksq3js9nmf4mxsrjj35434fuhn52tvkx5tth4s",
      "value": 10155476
    },
    {
      "scriptpubkey": "00149336d46af1aaf987a0a51e379be96192a1fbc2ed",
      "scriptpubkey_asm": "OP_0 OP_PUSHBYTES_20 9336d46af1aaf987a0a51e379be96192a1fbc2ed",
      "scriptpubkey_type": "v0_p2wpkh",
      "scriptpubkey_address": "bc1qjvmdg6h34tuc0g99rcmeh6tpj2slhshdhuya2z",
      "value": 9531125
    }
  ],
  "size": 371,
  "weight": 833,
  "fee": 5509,
  "status": {
    "confirmed": true,
    "block_height": 834638,
    "block_hash": "000000000000000000025f742c626208ac87e0b7d15054abb4a19ca2d735a54e",
    "block_time": 1710405325
  },
  "hex": "01000000000102541f82f5789391b9ba6d220845a9455e1cf3da2db39f0b06a02b5a85f41f577d0200000000ffffffff92daa9f8c97d148a5b2aba83311de1038c8840594677f3aeebc90a0a80373fea0200000000ffffffff02d4f59a0000000000160014b4011940b3da6bb34072946958d53cbce8a5b2c6f56e9100000000001600149336d46af1aaf987a0a51e379be96192a1fbc2ed02473044022041adfd509216600029eb0eb505358434b9ffc124007eeb3c189479bd4db16e4202207c5db05c948c3481bd88bb11112654b7edabd09b5aac164924607b565f89ab8701210206475e617aa20c34738496d8cd71a90bcf81e61e2a1a34d595f131ccf62f87b802483045022100a2114ffca39e1f004f0621bdd005780a6f977d7bd273770493426b6c86544d020220454e4400d0e78b13cd67fcf58872b994972383dd5c908ad791766fb20808e4c901210206475e617aa20c34738496d8cd71a90bcf81e61e2a1a34d595f131ccf62f87b800000000"
}