{
  "txid": "981a0499b6befed33c25c5923614a78588c96d0dd0d0c772357ca188862656fb",
  "version": 2,
  "locktime": 0,
  "vin": [
    {
      "txid": "2693ee69c031a4ed7b6cef24a2d1c8d55a88f75adf760fcf5d06d0f07f2adcb4",
      "vout": 0,
      "prevout": {
        "scriptpubkey": "5120290440e097511f8065020fb892f69adca96d094cc92d3e7ee11db0b48ca10796",
        "scriptpubkey_asm": "OP_PUSHNUM_1 OP_PUSHBYTES_32 290440e097511f8065020fb892f69adca96d094cc92d3e7ee11db0b48ca10796",
        "scriptpubkey_type": "v1_p2tr",
        "scriptpubkey_address": "bc1p9yzypcyh2y0cqegzp7uf9a56mj5k6z2veyknulhprkctfr9pq7tqc5nhgh",
        "value": 4000
      },
      "scriptsig": "",
      "scriptsig_asm": "",
      "witness": [
        "5c1f04a0a535fab3042769801db531ff9f8d694ae946b5f2e386898cb3271e20952dee62de1f01c3b7d3263b24792ebff1c4705b301d06a37c0dc358014016bc",
        "20750c28badd01cc827a4db884b49175cafc79b23cc1f54a245d004ed063e090faac0063036f7264010118746578742f706c61696e3b636861727365743d7574662d38003a7b2270223a226272632d3230222c226f70223a227472616e73666572222c227469636b223a22636f7265222c22616d74223a223230303030227d68",
        "c16c677d5e6cdc56b367530d1230411aa0a82252f933e0b0b6d8a95f85f7d3c826"
      ],
      "is_coinbase": false,
      "sequence": 4294967293
    }
  ],
  "vout": [
    {
      "scriptpubkey": "51204d1f9ae371bede2acd5cb323d5c24ae63661408f61f318ee242d151dda9a1f1f",
      "scriptpubkey_asm": "OP_PUSHNUM_1 OP_PUSHBYTES_32 4d1f9ae371bede2acd5cb323d5c24ae63661408f61f318ee242d151dda9a1f1f",
      "scriptpubkey_type": "v1_p2tr",
      "scriptpubkey_address": "bc1pf50e4cm3hm0z4n2ukv3atsj2ucmxzsy0v8e33m3y9523mk56ru0sprtrym",
      "value": 330
    },
    {
      "scriptpubkey": "00147cc77b816122b34159bece7f8d3c9f8f3d3f620b",
      "scriptpubkey_asm": "OP_0 OP_PUSHBYTES_20 7cc77b816122b34159bece7f8d3c9f8f3d3f620b",
      "scriptpubkey_type": "v0_p2wpkh",
      "scriptpubkey_address": "bc1q0nrhhqtpy2e5zkd7eelc60yl3u7n7cstgcmdl5",
      "value": 1474
    }
  ],
  "size": 356,
  "weight": 731,
  "fee": 2196,
  "status": {
    "confirmed": true,
    "block_height": 834460,
    "block_hash": "00000000000000000000484a79b643b2524bbce82e5d8a442013fa5b8905ed98",
    "block_time": 1710307468
  },
  "hex": "02000000000101b4dc2a7ff0d0065dcf0f76df5af7885ad5c8d1a224ef6c7beda431c069ee93260000000000fdffffff024a010000000000002251204d1f9ae371bede2acd5cb323d5c24ae63661408f61f318ee242d151dda9a1f1fc2050000000000001600147cc77b816122b34159bece7f8d3c9f8f3d3f620b03405c1f04a0a535fab3042769801db531ff9f8d694ae946b5f2e386898cb3271e20952dee62de1f01c3b7d3263b24792ebff1c4705b301d06a37c0dc358014016bc8020750c28badd01cc827a4db884b49175cafc79b23cc1f54a245d004ed063e090faac0063036f7264010118746578742f706c61696e3b636861727365743d7574662d38003a7b2270223a226272632d3230222c226f70223a227472616e73666572222c227469636b223a22636f7265222c22616d74223a223230303030227d6821c16c677d5e6cdc56b367530d1230411aa0a82252f933e0b0b6d8a95f85f7d3c82600000000"
}