{
  "txid": "9828454f217cb6808a10723946e745053d79f21ab32a3c63d844d1c14981415a",
  "version": 2,
  "locktime": 834637,
  "vin": [
    {
      "txid": "3ad5de6d9d918a24571f61fdb4a5a8f7609f75722ece8c89821703bae422f19d",
      "vout": 0,
      "prevout": {
        "scriptpubkey": "0014cf2e85213f38a7f48013fa5ebc45c77614573475",
        "scriptpubkey_asm": "OP_0 OP_PUSHBYTES_20 cf2e85213f38a7f48013fa5ebc45c77614573475",
        "scriptpubkey_type": "v0_p2wpkh",
        "scriptpubkey_address": "bc1qeuhg2gfl8znlfqqnlf0tc3w8wc29wdr4pdu8zn",
        "value": 75229
      },
      "scriptsig": "",
      "scriptsig_asm": "",
      "witness": [
        "3044022067723ec5e1ffc0fe79c47468255fbc7087b797255a1cde878a10624b2d7be38e022022da49fe3386bdedac9b0cd95c9b7312a7435925161a1059490421fb5e9b3def01",
        "03f0e12e38a4cf20722ce80bf49e1fb53e4847e224367d7da2f86d2b68f8c3403b"
      ],
      "is_coinbase": false,
      "sequence": 4294967294
    },
    {
      "txid": "bc9d90a1dfb4fafd3bede27feb2d24c2db7d21bab283c88d841dff693b481380",
      "vout": 0,
      "prevout": {
        "scriptpubkey": "00146946a9eb48700854c685f83f9aa3b27711c7ea04",
        "scriptpubkey_asm": "OP_0 OP_PUSHBYTES_20 6946a9eb48700854c685f83f9aa3b27711c7ea04",
        "scriptpubkey_type": "v0_p2wpkh",
        "scriptpubkey_address": "bc1qd9r2n66gwqy9f359lqle4gajwugu06syvtc72l",
        "value": 23102
      },
      "scriptsig": "",
      "scriptsig_asm": "",
      "witness": [
        "3044022058472ec4638fdc48f70f09e55ecad47d3f5a2a74684cff578a4ba08f118c2aba0220619092e54734b15ef495727e9ab833300f30232ecd2410c32d976ede5330099e01",
        "02c905566d9fac9cfc7d54c966f3067a211c09a6bcda946bcc3072f5a4661c187a"
      ],
      "is_coinbase": false,
      "sequence": 4294967294
    },
    {
      "txid": "f0b835736d2d49370f22ef430688a6a8510a01646fde48b88e3c39b475f3f1fc",
      "vout": 0,
      "prevout": {
        "scriptpubkey": "0014d00c81c6599fe7fcc955aa84e9e27c34bd473661",
        "scriptpubkey_asm": "OP_0 OP_PUSHBYTES_20 d00c81c6599fe7fcc955aa84e9e27c34bd473661",
        "scriptpubkey_type": "v0_p2wpkh",
        "scriptpubkey_address": "bc1q6qxgr3jenlnlej2442zwncnuxj75wdnplh6yrq",
        "value": 990645
      },
      "scriptsig": "",
      "scriptsig_asm": "",
      "witness": [
        "3044022054a8f30750eb8f6ab44520c0e06a5b2adf4fd57496dbe95dc1e4a3224881e09302207d7bf7e4aa2229c4815ffbd98f2264bbd8de6fefc09f52a5a93d5b48e9279ccb01",
        "023b41a08e1b7ef1952eee181567b656ee789758d0388342ba3a94c53b325a701b"
      ],
      "is_coinbase": false,
      "sequence": 4294967294
    }
  ],
  "vout": [
    {
      "scriptpubkey": "0014e9b9d4b967cecb3cdf9bffcf9d78a87184798c72",
      "scriptpubkey_asm": "OP_0 OP_PUSHBYTES_20 e9b9d4b967cecb3cdf9bffcf9d78a87184798c72",
      "scriptpubkey_type": "v0_p2wpkh",
      "scriptpubkey_address": "bc1qaxuafwt8em9nehumll8e679gwxz8nrrjtcxc0s",
      "value": 88910
    },
    {
      "scriptpubkey": "0014dfb6b6ba3d27164b10c90e1234503295cef7ef57",
      "scriptpubkey_asm": "OP_0 OP_PUSHBYTES_20 dfb6b6ba3d27164b10c90e1234503295cef7ef57",
      "scriptpubkey_type": "v0_p2wpkh",
      "scriptpubkey_address": "bc1qm7mtdw3ayutykyxfpcfrg5pjjh800m6hywj57d",
      "value": 991786
    }
  ],
  "size": 518,
  "weight": 1103,
  "fee": 8280,
  "status": {
    "confirmed": true,
    "block_height": 834638,
    "block_hash": "000000000000000000025f742c626208ac87e0b7d15054abb4a19ca2d735a54e",
    "block_time": 1710405325
  },
  "hex": "020000000001039df122e4ba031782898cce2e72759f60f7a8a5b4fd611f57248a919d6dded53a0000000000feffffff8013483b69ff1d848dc883b2ba217ddbc2242deb7fe2ed3bfdfab4dfa1909dbc0000000000fefffffffcf1f375b4393c8eb848de6f64010a51a8a6880643ef220f37492d6d7335b8f00000000000feffffff024e5b010000000000160014e9b9d4b967cecb3cdf9bffcf9d78a87184798c722a220f0000000000160014dfb6b6ba3d27164b10c90e1234503295cef7ef5702473044022067723ec5e1ffc0fe79c47468255fbc7087b797255a1cde878a10624b2d7be38e022022da49fe3386bdedac9b0cd95c9b7312a7435925161a1059490421fb5e9b3def012103f0e12e38a4cf20722ce80bf49e1fb53e4847e224367d7da2f86d2b68f8c3403b02473044022058472ec4638fdc48f70f09e55ecad47d3f5a2a74684cff578a4ba08f118c2aba0220619092e54734b15ef495727e9ab833300f30232ecd2410c32d976ede5330099e012102c905566d9fac9cfc7d54c966f3067a211c09a6bcda946bcc3072f5a4661c187a02473044022054a8f30750eb8f6ab44520c0e06a5b2adf4fd57496dbe95dc1e4a3224881e09302207d7bf7e4aa2229c4815ffbd98f2264bbd8de6fefc09f52a5a93d5b48e9279ccb0121023b41a08e1b7ef1952eee181567b656ee789758d0388342ba3a94c53b325a701b4dbc0c00"
}