{
  "txid": "9839459692ba235f41b2848f1e6e2f453f0636c6c31389f112cdcbcceb2e7df9",
  "version": 2,
  "locktime": 0,
  "vin": [
    {
      "txid": "a7779e74a13c5b849a9f2eddd5f380ad8dc59b2c3a63475db15d2f6888127944",
      "vout": 1,
      "prevout": {
        "scriptpubkey": "51207f06d77fd6f11ff1ea7834565d3d7b3d54c403219b214a88c1de5cec6795c95b",
        "scriptpubkey_asm": "OP_PUSHNUM_1 OP_PUSHBYTES_32 7f06d77fd6f11ff1ea7834565d3d7b3d54c403219b214a88c1de5cec6795c95b",
        "scriptpubkey_type": "v1_p2tr",
        "scriptpubkey_address": "bc1p0urdwl7k7y0lr6ncx3t960tm842vgqepnvs54zxpmewwceu4e9ds5yruyp",
        "value": 38380830
      },
      "scriptsig": "",
      "scriptsig_asm": "",
      "witness": [
        "868272563223b254439b3157d457b7490c479de3697733da637d352d1322d0a16c10e2d98f126cbdbf673fef285f76e08513654021d09380c556f0f635389dbb",
        "2088225c0158a85208c9f0a93d3b724953f164a056121b81a87f88ab0a666cbff1ac0063036f726401010a746578742f706c61696e000d3833343436302e6269746d617068",
        "c188225c0158a85208c9f0a93d3b724953f164a056121b81a87f88ab0a666cbff1"
      ],
      "is_coinbase": false,
      "sequence": 4261412863
    }
  ],
  "vout": [
    {
      "scriptpubkey": "0014463d3fb48cc0b5c0493b098f364bc2beab5309eb",
      "scriptpubkey_asm": "OP_0 OP_PUSHBYTES_20 463d3fb48cc0b5c0493b098f364bc2beab5309eb",
      "scriptpubkey_type": "v0_p2wpkh",
      "scriptpubkey_address": "bc1qgc7nldyvcz6uqjfmpx8nvj7zh644xz0tj8k9xp",
      "value": 294
    },
    {
      "scriptpubkey": "5120da9195b2452e54ada3394654a6b60c8255471064dc74eb2a93c9beb70dd5c949",
      "scriptpubkey_asm": "OP_PUSHNUM_1 OP_PUSHBYTES_32 da9195b2452e54ada3394654a6b60c8255471064dc74eb2a93c9beb70dd5c949",
      "scriptpubkey_type": "v1_p2tr",
      "scriptpubkey_address": "bc1pm2getvj99e22mgeege22ddsvsf25wyrym36wk25nexltwrw4e9ysyc4uw6",
      "value": 38373816
    }
  ],
  "size": 297,
  "weight": 672,
  "fee": 6720,
  "status": {
    "confirmed": true,
    "block_height": 834460,
    "block_hash": "00000000000000000000484a79b643b2524bbce82e5d8a442013fa5b8905ed98",
    "block_time": 1710307468
  },
  "hex": "0200000000010144791288682f5db15d47633a2c9bc58dad80f3d5dd2e9f9a845b3ca1749e77a70100000000fffffffd022601000000000000160014463d3fb48cc0b5c0493b098f364bc2beab5309ebb889490200000000225120da9195b2452e54ada3394654a6b60c8255471064dc74eb2a93c9beb70dd5c9490340868272563223b254439b3157d457b7490c479de3697733da637d352d1322d0a16c10e2d98f126cbdbf673fef285f76e08513654021d09380c556f0f635389dbb452088225c0158a85208c9f0a93d3b724953f164a056121b81a87f88ab0a666cbff1ac0063036f726401010a746578742f706c61696e000d3833343436302e6269746d61706821c188225c0158a85208c9f0a93d3b724953f164a056121b81a87f88ab0a666cbff100000000"
}