{
  "txid": "983a56dc55c6977d039725e9918d00e98bd598593ca1d0847b4391273bf5cb50",
  "version": 2,
  "locktime": 0,
  "vin": [
    {
      "txid": "0a2a8a2d31495b2e40a5b1f6370a727157c2d6ddf704c7c335de4894e238fd62",
      "vout": 1,
      "prevout": {
        "scriptpubkey": "00141230d2879adf86ca41c8e0c9f7fe9259009f46a1",
        "scriptpubkey_asm": "OP_0 OP_PUSHBYTES_20 1230d2879adf86ca41c8e0c9f7fe9259009f46a1",
        "scriptpubkey_type": "v0_p2wpkh",
        "scriptpubkey_address": "bc1qzgcd9pu6m7rv5swguryl0l5jtyqf734p2t73le",
        "value": 27970
      },
      "scriptsig": "",
      "scriptsig_asm": "",
      "witness": [
        "304402206e443fa63bd210d0e39b1a7078d5097425c64011197c07039d04cd908e4d142502204f6101acffdbdbdac4e7f0779dc690f890c528dedbfa37a7315de8b2235a80cc01",
        "031c0afe2992aa58149cf1348a9b94fd52579bd5a97b012008aa9bc87d2eae2f22"
      ],
      "is_coinbase": false,
      "sequence": 4294967293
    }
  ],
  "vout": [
    {
      "scriptpubkey": "0014fd352536a86d5c5113e7574e71c1c442457e24ce",
      "scriptpubkey_asm": "OP_0 OP_PUSHBYTES_20 fd352536a86d5c5113e7574e71c1c442457e24ce",
      "scriptpubkey_type": "v0_p2wpkh",
      "scriptpubkey_address": "bc1ql56j2d4gd4w9zyl82a88rswygfzhufxwdejc8q",
      "value": 25286
    }
  ],
  "size": 191,
  "weight": 437,
  "fee": 2684,
  "status": {
    "confirmed": true,
    "block_height": 834638,
    "block_hash": "000000000000000000025f742c626208ac87e0b7d15054abb4a19ca2d735a54e",
    "block_time": 1710405325
  },
  "hex": "0200000000010162fd38e29448de35c3c704f7ddd6c25771720a37f6b1a5402e5b49312d8a2a0a0100000000fdffffff01c662000000000000160014fd352536a86d5c5113e7574e71c1c442457e24ce0247304402206e443fa63bd210d0e39b1a7078d5097425c64011197c07039d04cd908e4d142502204f6101acffdbdbdac4e7f0779dc690f890c528dedbfa37a7315de8b2235a80cc0121031c0afe2992aa58149cf1348a9b94fd52579bd5a97b012008aa9bc87d2eae2f2200000000"
}