{
  "txid": "98480608c5600935ec95d3005e8f0485ee3db49d8e0280da7ba1860151b58fc4",
  "version": 2,
  "locktime": 0,
  "vin": [
    {
      "txid": "b13bb5512a4904c28a6b7957b88edf574e8cb23551fc1dcfe22d6b239df42cf4",
      "vout": 40,
      "prevout": {
        "scriptpubkey": "51208ff065ab9f784aff0a1722dbdb3955a7b2e82e21dd70e4a79ba2d5c887c1c661",
        "scriptpubkey_asm": "OP_PUSHNUM_1 OP_PUSHBYTES_32 8ff065ab9f784aff0a1722dbdb3955a7b2e82e21dd70e4a79ba2d5c887c1c661",
        "scriptpubkey_type": "v1_p2tr",
        "scriptpubkey_address": "bc1p3lcxt2ul0p907zshytdakw2457ewst3pm4cwffum5t2u3p7pcess06gc4j",
        "value": 2575
      },
      "scriptsig": "",
      "scriptsig_asm": "",
      "witness": [
        "34abf6a90797d1d6c1fbfdbf177bcf683fac51eb6e38a63c957468e49e5ee819609b661991f71199274afda2210ad38509fdc0044990f069be9e29cf29a5d79c",
        "209b7d1564b5da057efabbc40734f73487bf6b67517274f6cbf4ecc43accf1cdb5ac0063036f726401010a746578742f706c61696e00367b2270223a226272632d3230222c226f70223a226d696e74222c227469636b223a2261616161222c22616d74223a223130303030227d68",
        "c09b7d1564b5da057efabbc40734f73487bf6b67517274f6cbf4ecc43accf1cdb5"
      ],
      "is_coinbase": false,
      "sequence": 4261412863
    }
  ],
  "vout": [
    {
      "scriptpubkey": "0014ce0b5aa0dac72397a8aa5a85d90a2cfb46f0f630",
      "scriptpubkey_asm": "OP_0 OP_PUSHBYTES_20 ce0b5aa0dac72397a8aa5a85d90a2cfb46f0f630",
      "scriptpubkey_type": "v0_p2wpkh",
      "scriptpubkey_address": "bc1qec944gx6cu3e0292t2zajz3vldr0pa3sh356d9",
      "value": 546
    }
  ],
  "size": 295,
  "weight": 541,
  "fee": 2029,
  "status": {
    "confirmed": true,
    "block_height": 834464,
    "block_hash": "0000000000000000000177a0869a911a2b65c9bdcd5a8bcb02b68f305bee848e",
    "block_time": 1710308296
  },
  "hex": "02000000000101f42cf49d236b2de2cf1dfc5135b28c4e57df8eb857796b8ac204492a51b53bb12800000000fffffffd012202000000000000160014ce0b5aa0dac72397a8aa5a85d90a2cfb46f0f630034034abf6a90797d1d6c1fbfdbf177bcf683fac51eb6e38a63c957468e49e5ee819609b661991f71199274afda2210ad38509fdc0044990f069be9e29cf29a5d79c6e209b7d1564b5da057efabbc40734f73487bf6b67517274f6cbf4ecc43accf1cdb5ac0063036f726401010a746578742f706c61696e00367b2270223a226272632d3230222c226f70223a226d696e74222c227469636b223a2261616161222c22616d74223a223130303030227d6821c09b7d1564b5da057efabbc40734f73487bf6b67517274f6cbf4ecc43accf1cdb500000000"
}