{
  "txid": "985188879264416ee63df9e29283e2476fff6d2ebe95d16342e6e43f0d60f186",
  "version": 2,
  "locktime": 834628,
  "vin": [
    {
      "txid": "e64edcbdabe662df1708b29fd22646f2347d784503d885e27c6b4f31d9ed9a73",
      "vout": 29,
      "prevout": {
        "scriptpubkey": "0014bcfaa0d12ac0341e583487e0200718c6e433f0af",
        "scriptpubkey_asm": "OP_0 OP_PUSHBYTES_20 bcfaa0d12ac0341e583487e0200718c6e433f0af",
        "scriptpubkey_type": "v0_p2wpkh",
        "scriptpubkey_address": "bc1qhna2p5f2cq6pukp5slszqpcccmjr8u90dggd5k",
        "value": 31000
      },
      "scriptsig": "",
      "scriptsig_asm": "",
      "witness": [
        "304402205947928e466efd35cd2837a1b8a7bc41ce1eb38376c668244b8b4ac7720e3dfa02200e1acbe759ebc4f51395ac76bbd308a1c9531fcd51a67af8d6afce38fc7be7a901",
        "0308da2e62a397c29d360c4b37db892e9c9700ddce202d32e8ebb65a65a995b4bb"
      ],
      "is_coinbase": false,
      "sequence": 4294967294
    }
  ],
  "vout": [
    {
      "scriptpubkey": "0014777ee384024ee46c611014b710ebe94bf8dc0dbe",
      "scriptpubkey_asm": "OP_0 OP_PUSHBYTES_20 777ee384024ee46c611014b710ebe94bf8dc0dbe",
      "scriptpubkey_type": "v0_p2wpkh",
      "scriptpubkey_address": "bc1qwalw8pqzfmjxccgszjm3p6lff0udcrd7879gcu",
      "value": 27240
    }
  ],
  "size": 191,
  "weight": 437,
  "fee": 3760,
  "status": {
    "confirmed": true,
    "block_height": 834638,
    "block_hash": "000000000000000000025f742c626208ac87e0b7d15054abb4a19ca2d735a54e",
    "block_time": 1710405325
  },
  "hex": "02000000000101739aedd9314f6b7ce285d80345787d34f24626d29fb20817df62e6abbddc4ee61d00000000feffffff01686a000000000000160014777ee384024ee46c611014b710ebe94bf8dc0dbe0247304402205947928e466efd35cd2837a1b8a7bc41ce1eb38376c668244b8b4ac7720e3dfa02200e1acbe759ebc4f51395ac76bbd308a1c9531fcd51a67af8d6afce38fc7be7a901210308da2e62a397c29d360c4b37db892e9c9700ddce202d32e8ebb65a65a995b4bb44bc0c00"
}