{
  "txid": "9851acbb9dc388603e19b127694352c4bf65fe51bb3525eff37236ce5a615834",
  "version": 2,
  "locktime": 0,
  "vin": [
    {
      "txid": "bd6d93a23ec4f6b4d8f83108a2f0e8c645ed8e587c3836ef79e76b52dc9d2ebc",
      "vout": 6,
      "prevout": {
        "scriptpubkey": "a914cb1a78635f76c0260d79084fe709e694e629704887",
        "scriptpubkey_asm": "OP_HASH160 OP_PUSHBYTES_20 cb1a78635f76c0260d79084fe709e694e6297048 OP_EQUAL",
        "scriptpubkey_type": "p2sh",
        "scriptpubkey_address": "3LCvofumaHvHAcooJ3j6hUG11KtYyTAtaK",
        "value": 507976
      },
      "scriptsig": "160014f9e5034f594b474b0010ad9b23fe7256c7d4a178",
      "scriptsig_asm": "OP_PUSHBYTES_22 0014f9e5034f594b474b0010ad9b23fe7256c7d4a178",
      "witness": [
        "3045022100efcfd685ef1f3cc8e4d5b23e237e9303d561281c58af65a3c65c1255860cee6002204a41fd9f539fce2acbadfb68f3427e70c5c21c775a781d9e55b97b6cfc56a9da01",
        "024225164596020832d3904812f82410faa7363f91834468637ac88a871b51f16a"
      ],
      "is_coinbase": false,
      "sequence": 4294967295,
      "inner_redeemscript_asm": "OP_0 OP_PUSHBYTES_20 f9e5034f594b474b0010ad9b23fe7256c7d4a178"
    }
  ],
  "vout": [
    {
      "scriptpubkey": "5120ac68a61bb71528a081b6e183f1fe4a224b9815663f7a4d56833d497061002ae3",
      "scriptpubkey_asm": "OP_PUSHNUM_1 OP_PUSHBYTES_32 ac68a61bb71528a081b6e183f1fe4a224b9815663f7a4d56833d497061002ae3",
      "scriptpubkey_type": "v1_p2tr",
      "scriptpubkey_address": "bc1p4352vxahz552pqdkuxplrlj2yf9es9tx8aay645r84yhqcgq9t3sa5wk8e",
      "value": 78575
    },
    {
      "scriptpubkey": "a914cb1a78635f76c0260d79084fe709e694e629704887",
      "scriptpubkey_asm": "OP_HASH160 OP_PUSHBYTES_20 cb1a78635f76c0260d79084fe709e694e6297048 OP_EQUAL",
      "scriptpubkey_type": "p2sh",
      "scriptpubkey_address": "3LCvofumaHvHAcooJ3j6hUG11KtYyTAtaK",
      "value": 426746
    }
  ],
  "size": 259,
  "weight": 706,
  "fee": 2655,
  "status": {
    "confirmed": true,
    "block_height": 834638,
    "block_hash": "000000000000000000025f742c626208ac87e0b7d15054abb4a19ca2d735a54e",
    "block_time": 1710405325
  },
  "hex": "02000000000101bc2e9ddc526be779ef36387c588eed45c6e8f0a20831f8d8b4f6c43ea2936dbd0600000017160014f9e5034f594b474b0010ad9b23fe7256c7d4a178ffffffff02ef32010000000000225120ac68a61bb71528a081b6e183f1fe4a224b9815663f7a4d56833d497061002ae3fa8206000000000017a914cb1a78635f76c0260d79084fe709e694e62970488702483045022100efcfd685ef1f3cc8e4d5b23e237e9303d561281c58af65a3c65c1255860cee6002204a41fd9f539fce2acbadfb68f3427e70c5c21c775a781d9e55b97b6cfc56a9da0121024225164596020832d3904812f82410faa7363f91834468637ac88a871b51f16a00000000"
}