{
  "txid": "985268f865d3d9794459eac85a5007eee037e0a9c0f105429b01c836cc2a9bfd",
  "version": 2,
  "locktime": 0,
  "vin": [
    {
      "txid": "a612c66058b531002cea9785b708ca9d13fc25a008864a1b15d85ef62065a0d5",
      "vout": 2,
      "prevout": {
        "scriptpubkey": "5120f803fffb55f7f287ca0b692a4a977604446773c01970af5e602fd6d522a94fae",
        "scriptpubkey_asm": "OP_PUSHNUM_1 OP_PUSHBYTES_32 f803fffb55f7f287ca0b692a4a977604446773c01970af5e602fd6d522a94fae",
        "scriptpubkey_type": "v1_p2tr",
        "scriptpubkey_address": "bc1plqpll7647leg0jstdy4y49mkq3zxwu7qr9c27hnq9ltd2g4ff7hq00289x",
        "value": 204892
      },
      "scriptsig": "",
      "scriptsig_asm": "",
      "witness": [
        "fc65b9cd48f0aa3e2469d10d2cb3479aaa1387282ec7954bb012d097bd714223f690336c4d6c1a3d92055c4de73433524c8eb1ada309a618f2b5e9460e2274c7"
      ],
      "is_coinbase": false,
      "sequence": 4294967293
    }
  ],
  "vout": [
    {
      "scriptpubkey": "5120a11f59da87a59bc4697050e70d35747d7a527fa4514d6ad91f1f53b65a64a27f",
      "scriptpubkey_asm": "OP_PUSHNUM_1 OP_PUSHBYTES_32 a11f59da87a59bc4697050e70d35747d7a527fa4514d6ad91f1f53b65a64a27f",
      "scriptpubkey_type": "v1_p2tr",
      "scriptpubkey_address": "bc1p5y04nk585kdug6ts2rns6dt504a9ylay29xk4kglrafmvkny5flsc7jud9",
      "value": 3300
    },
    {
      "scriptpubkey": "5120f803fffb55f7f287ca0b692a4a977604446773c01970af5e602fd6d522a94fae",
      "scriptpubkey_asm": "OP_PUSHNUM_1 OP_PUSHBYTES_32 f803fffb55f7f287ca0b692a4a977604446773c01970af5e602fd6d522a94fae",
      "scriptpubkey_type": "v1_p2tr",
      "scriptpubkey_address": "bc1plqpll7647leg0jstdy4y49mkq3zxwu7qr9c27hnq9ltd2g4ff7hq00289x",
      "value": 198820
    }
  ],
  "size": 205,
  "weight": 616,
  "fee": 2772,
  "status": {
    "confirmed": true,
    "block_height": 834638,
    "block_hash": "000000000000000000025f742c626208ac87e0b7d15054abb4a19ca2d735a54e",
    "block_time": 1710405325
  },
  "hex": "02000000000101d5a06520f65ed8151b4a8608a025fc139dca08b78597ea2c0031b55860c612a60200000000fdffffff02e40c000000000000225120a11f59da87a59bc4697050e70d35747d7a527fa4514d6ad91f1f53b65a64a27fa408030000000000225120f803fffb55f7f287ca0b692a4a977604446773c01970af5e602fd6d522a94fae0140fc65b9cd48f0aa3e2469d10d2cb3479aaa1387282ec7954bb012d097bd714223f690336c4d6c1a3d92055c4de73433524c8eb1ada309a618f2b5e9460e2274c700000000"
}