{
  "txid": "9860294ee083abd8caff150d667e1b74788bb59efc6001caaae80de8f0829322",
  "version": 1,
  "locktime": 0,
  "vin": [
    {
      "txid": "bec26c37600c903092c455188766858e47d53e5e16957c128a79876286ab4b40",
      "vout": 1,
      "prevout": {
        "scriptpubkey": "0014753a36d4ad4e4c72feafbba975c5fcc17311405e",
        "scriptpubkey_asm": "OP_0 OP_PUSHBYTES_20 753a36d4ad4e4c72feafbba975c5fcc17311405e",
        "scriptpubkey_type": "v0_p2wpkh",
        "scriptpubkey_address": "bc1qw5ard49dfex89l40hw5ht30uc9e3zsz7ct7vp7",
        "value": 61318
      },
      "scriptsig": "",
      "scriptsig_asm": "",
      "witness": [
        "3044022073ac75ce9429404a40ba172e0023286eb3d9bac7b8b543fd1e5c0dfeec79c46902205fe2f2c3e1d3a39c7d869c8c701db184305460f32cdbc7cc0894bda7de1511ff01",
        "03be2b708bf957d57743f47583daf5a232aab5067f019e658e1ab69835b6e4eab3"
      ],
      "is_coinbase": false,
      "sequence": 4294967295
    },
    {
      "txid": "15baea4996bd7a5c1ee3c7ab82cf86fc5881893194e70ef089af2f07e38ceaae",
      "vout": 0,
      "prevout": {
        "scriptpubkey": "76a9140ea261223cdda90e0768f1ec725ed7006d4400bd88ac",
        "scriptpubkey_asm": "OP_DUP OP_HASH160 OP_PUSHBYTES_20 0ea261223cdda90e0768f1ec725ed7006d4400bd OP_EQUALVERIFY OP_CHECKSIG",
        "scriptpubkey_type": "p2pkh",
        "scriptpubkey_address": "12LNz1MbcVDg48WZmSq6sUU6mTUuLQZt6B",
        "value": 240000
      },
      "scriptsig": "473044022019586d8397be5e3ae8d7050d972f7f3c736c7b4c0c0c0664988b5571369c513102202227a74b5a97d1922ca4c863f67d2949cc09dff6c141aaf1f35fc28f1e5141690121022ffa96a24d5a394b80997461849a8b6f0b4a7757024d69024b6eed8b4217f419",
      "scriptsig_asm": "OP_PUSHBYTES_71 3044022019586d8397be5e3ae8d7050d972f7f3c736c7b4c0c0c0664988b5571369c513102202227a74b5a97d1922ca4c863f67d2949cc09dff6c141aaf1f35fc28f1e51416901 OP_PUSHBYTES_33 022ffa96a24d5a394b80997461849a8b6f0b4a7757024d69024b6eed8b4217f419",
      "is_coinbase": false,
      "sequence": 4294967295
    }
  ],
  "vout": [
    {
      "scriptpubkey": "76a91489423e9adcbc41bdd1f59fb92a51caf8bf98495f88ac",
      "scriptpubkey_asm": "OP_DUP OP_HASH160 OP_PUSHBYTES_20 89423e9adcbc41bdd1f59fb92a51caf8bf98495f OP_EQUALVERIFY OP_CHECKSIG",
      "scriptpubkey_type": "p2pkh",
      "scriptpubkey_address": "1DWkw2uSFtMRX6qeGpBZbQAFVRi7xiM4xK",
      "value": 272000
    }
  ],
  "size": 342,
  "weight": 1038,
  "fee": 29318,
  "status": {
    "confirmed": true,
    "block_height": 834638,
    "block_hash": "000000000000000000025f742c626208ac87e0b7d15054abb4a19ca2d735a54e",
    "block_time": 1710405325
  },
  "hex": "01000000000102404bab866287798a127c95165e3ed5478e8566871855c49230900c60376cc2be0100000000ffffffffaeea8ce3072faf89f00ee79431898158fc86cf82abc7e31e5c7abd9649eaba15000000006a473044022019586d8397be5e3ae8d7050d972f7f3c736c7b4c0c0c0664988b5571369c513102202227a74b5a97d1922ca4c863f67d2949cc09dff6c141aaf1f35fc28f1e5141690121022ffa96a24d5a394b80997461849a8b6f0b4a7757024d69024b6eed8b4217f419ffffffff0180260400000000001976a91489423e9adcbc41bdd1f59fb92a51caf8bf98495f88ac02473044022073ac75ce9429404a40ba172e0023286eb3d9bac7b8b543fd1e5c0dfeec79c46902205fe2f2c3e1d3a39c7d869c8c701db184305460f32cdbc7cc0894bda7de1511ff012103be2b708bf957d57743f47583daf5a232aab5067f019e658e1ab69835b6e4eab30000000000"
}