{
  "txid": "98622237d4e7ef1118f685e1cfbe8f78937b20ae02dfcd3a5859d6a4f1a08c81",
  "version": 2,
  "locktime": 0,
  "vin": [
    {
      "txid": "19db85e8158f4442ed6dc85b163e5aaf5db8402d62bd5455b0bf8a0abf5b2958",
      "vout": 0,
      "prevout": {
        "scriptpubkey": "001420aed658f9456f6292179145a28f5eb7a934fb7a",
        "scriptpubkey_asm": "OP_0 OP_PUSHBYTES_20 20aed658f9456f6292179145a28f5eb7a934fb7a",
        "scriptpubkey_type": "v0_p2wpkh",
        "scriptpubkey_address": "bc1qyzhdvk8eg4hk9yshj9z69r67k75nf7m6a27knm",
        "value": 137808
      },
      "scriptsig": "",
      "scriptsig_asm": "",
      "witness": [
        "3045022100935e53eaab28c6377fc8b3074b94cdbba5abb09bccc3f54800c4c6859578153902204540bbf2a62ebf515848d079f6383d0a76ebfbb3e2343c5f9acca34a3f9f06b901",
        "033865be8d9be88b8dc1a886fc48f0da72a652483ee7d5dda38493c3ec41c6b235"
      ],
      "is_coinbase": false,
      "sequence": 4294967295
    },
    {
      "txid": "12c407ae32d3bc77c16e9fc8e35d74e4a3c1cb20f51835485e1d56b0f5c582ae",
      "vout": 0,
      "prevout": {
        "scriptpubkey": "001420aed658f9456f6292179145a28f5eb7a934fb7a",
        "scriptpubkey_asm": "OP_0 OP_PUSHBYTES_20 20aed658f9456f6292179145a28f5eb7a934fb7a",
        "scriptpubkey_type": "v0_p2wpkh",
        "scriptpubkey_address": "bc1qyzhdvk8eg4hk9yshj9z69r67k75nf7m6a27knm",
        "value": 130253
      },
      "scriptsig": "",
      "scriptsig_asm": "",
      "witness": [
        "304402201fc5e2e180fac5a826ef5ce7b2d36d0840f6d1af439198a21cec256331efbb52022017868ebcd39c54c1925f63389c6787dea7239172895203d04fe36e26bc1529e101",
        "033865be8d9be88b8dc1a886fc48f0da72a652483ee7d5dda38493c3ec41c6b235"
      ],
      "is_coinbase": false,
      "sequence": 4294967295
    }
  ],
  "vout": [
    {
      "scriptpubkey": "00140b91b796fb09d59f96c5e969d6a35f04ea897688",
      "scriptpubkey_asm": "OP_0 OP_PUSHBYTES_20 0b91b796fb09d59f96c5e969d6a35f04ea897688",
      "scriptpubkey_type": "v0_p2wpkh",
      "scriptpubkey_address": "bc1qpwgm09hmp82el9k9a95adg6lqn4gja5g5r222c",
      "value": 183182
    },
    {
      "scriptpubkey": "001449477278f763583e5684d8bdd31ccdd974be8534",
      "scriptpubkey_asm": "OP_0 OP_PUSHBYTES_20 49477278f763583e5684d8bdd31ccdd974be8534",
      "scriptpubkey_type": "v0_p2wpkh",
      "scriptpubkey_address": "bc1qf9rhy78hvdvru45ymz7ax8xdm96tapf5qg8psk",
      "value": 81166
    }
  ],
  "size": 371,
  "weight": 833,
  "fee": 3713,
  "status": {
    "confirmed": true,
    "block_height": 834638,
    "block_hash": "000000000000000000025f742c626208ac87e0b7d15054abb4a19ca2d735a54e",
    "block_time": 1710405325
  },
  "hex": "0200000000010258295bbf0a8abfb05554bd622d40b85daf5a3e165bc86ded42448f15e885db190000000000ffffffffae82c5f5b0561d5e483518f520cbc1a3e4745de3c89f6ec177bcd332ae07c4120000000000ffffffff028ecb0200000000001600140b91b796fb09d59f96c5e969d6a35f04ea8976880e3d01000000000016001449477278f763583e5684d8bdd31ccdd974be853402483045022100935e53eaab28c6377fc8b3074b94cdbba5abb09bccc3f54800c4c6859578153902204540bbf2a62ebf515848d079f6383d0a76ebfbb3e2343c5f9acca34a3f9f06b90121033865be8d9be88b8dc1a886fc48f0da72a652483ee7d5dda38493c3ec41c6b2350247304402201fc5e2e180fac5a826ef5ce7b2d36d0840f6d1af439198a21cec256331efbb52022017868ebcd39c54c1925f63389c6787dea7239172895203d04fe36e26bc1529e10121033865be8d9be88b8dc1a886fc48f0da72a652483ee7d5dda38493c3ec41c6b23500000000"
}