{
  "txid": "9871c8c4b70f3c8a2167a56dcb70132d058f77460bcf36d8cd154622c92cc38d",
  "version": 1,
  "locktime": 0,
  "vin": [
    {
      "txid": "3a01d7e42400c92029360eafa32780294d12caa83929f807bc36309b8235cde7",
      "vout": 0,
      "prevout": {
        "scriptpubkey": "001434775e028ca7832e6f40544144f0bc6277b70a92",
        "scriptpubkey_asm": "OP_0 OP_PUSHBYTES_20 34775e028ca7832e6f40544144f0bc6277b70a92",
        "scriptpubkey_type": "v0_p2wpkh",
        "scriptpubkey_address": "bc1qx3m4uq5v57pjum6q23q5fu9uvfmmwz5jw72zp9",
        "value": 371868
      },
      "scriptsig": "",
      "scriptsig_asm": "",
      "witness": [
        "3044022016813fe257e87875e02d3481a2417e5d8b4d131f12e8076caf69286772da1482022019c8c6b4e8398c361b9695b12f03c9180ccb5bd2b7da1b920e3849e43abfa1ee01",
        "0270e0b3304e1ab41f21fc2d8012cf7ee281e16a376a935c405a46fa255cd8dcef"
      ],
      "is_coinbase": false,
      "sequence": 4294967295
    }
  ],
  "vout": [
    {
      "scriptpubkey": "00149939208bcaa1dde779d1051c7124327290006faa",
      "scriptpubkey_asm": "OP_0 OP_PUSHBYTES_20 9939208bcaa1dde779d1051c7124327290006faa",
      "scriptpubkey_type": "v0_p2wpkh",
      "scriptpubkey_address": "bc1qnyujpz7258w7w7w3q5w8zfpjw2gqqma2553gps",
      "value": 283194
    },
    {
      "scriptpubkey": "0014f94e96d1f97ba0f5869f6460ebfad4b7dafc7ba0",
      "scriptpubkey_asm": "OP_0 OP_PUSHBYTES_20 f94e96d1f97ba0f5869f6460ebfad4b7dafc7ba0",
      "scriptpubkey_type": "v0_p2wpkh",
      "scriptpubkey_address": "bc1ql98fd50e0ws0tp5lv3swh7k5kld0c7aqcvhe6c",
      "value": 86192
    }
  ],
  "size": 222,
  "weight": 561,
  "fee": 2482,
  "status": {
    "confirmed": true,
    "block_height": 834638,
    "block_hash": "000000000000000000025f742c626208ac87e0b7d15054abb4a19ca2d735a54e",
    "block_time": 1710405325
  },
  "hex": "01000000000101e7cd35829b3036bc07f82939a8ca124d298027a3af0e362920c90024e4d7013a0000000000ffffffff023a520400000000001600149939208bcaa1dde779d1051c7124327290006faab050010000000000160014f94e96d1f97ba0f5869f6460ebfad4b7dafc7ba002473044022016813fe257e87875e02d3481a2417e5d8b4d131f12e8076caf69286772da1482022019c8c6b4e8398c361b9695b12f03c9180ccb5bd2b7da1b920e3849e43abfa1ee01210270e0b3304e1ab41f21fc2d8012cf7ee281e16a376a935c405a46fa255cd8dcef00000000"
}