{
  "txid": "987d76b51bd48176ab3cc630a5ee0214112fe8f48ee5fa905b325293b98e58a2",
  "version": 1,
  "locktime": 0,
  "vin": [
    {
      "txid": "3701937ca392ebd18485aa82209ce0241a7a92fe5d450141e84598f03d807b49",
      "vout": 1,
      "prevout": {
        "scriptpubkey": "a914449754da330c5adad9cf87ec055a2dd6c363258c87",
        "scriptpubkey_asm": "OP_HASH160 OP_PUSHBYTES_20 449754da330c5adad9cf87ec055a2dd6c363258c OP_EQUAL",
        "scriptpubkey_type": "p2sh",
        "scriptpubkey_address": "37whAHJwoEQHSpEzdVWCdRgsUJNhvF9ZMD",
        "value": 24433649
      },
      "scriptsig": "2200207402d9fef76faa54417b8de9399810c150fb3ce6cb0d0e120ed18985b0b44a68",
      "scriptsig_asm": "OP_PUSHBYTES_34 00207402d9fef76faa54417b8de9399810c150fb3ce6cb0d0e120ed18985b0b44a68",
      "witness": [
        "",
        "30440220708886855bc0e0291d44b9627c13b783e45813e5945fe03d561c3877a4e7db71022049104343f37d7b1e67c60b64baf0a607b202a72de70571d8818495c0a58e7f0001",
        "30450221009c3d268e1dad560ffe56e2c3fd2046d459120e46cc9aab677d0474d497fb7c4f02204283f0b875157faffe02fbb2ce34c32dbd7b14cff1fc504077d0f3a26d4d553c01",
        "52210258894097564986477cb820d8f2d0f97cecb6236ac233c83815d6ffe0d845826321031bee6359e35d8ee2b40a829ffa47d827888d6aa732d76123f0f6c3a9a8e92b0252ae"
      ],
      "is_coinbase": false,
      "sequence": 4294967295,
      "inner_redeemscript_asm": "OP_0 OP_PUSHBYTES_32 7402d9fef76faa54417b8de9399810c150fb3ce6cb0d0e120ed18985b0b44a68",
      "inner_witnessscript_asm": "OP_PUSHNUM_2 OP_PUSHBYTES_33 0258894097564986477cb820d8f2d0f97cecb6236ac233c83815d6ffe0d8458263 OP_PUSHBYTES_33 031bee6359e35d8ee2b40a829ffa47d827888d6aa732d76123f0f6c3a9a8e92b02 OP_PUSHNUM_2 OP_CHECKMULTISIG"
    }
  ],
  "vout": [
    {
      "scriptpubkey": "a914af504b9dda6f536912a0b409c26df0baa801432c87",
      "scriptpubkey_asm": "OP_HASH160 OP_PUSHBYTES_20 af504b9dda6f536912a0b409c26df0baa801432c OP_EQUAL",
      "scriptpubkey_type": "p2sh",
      "scriptpubkey_address": "3HfzN8mQNRw3XXXJkEXC9WMUDJBsYfRwhc",
      "value": 3548233
    },
    {
      "scriptpubkey": "a914449754da330c5adad9cf87ec055a2dd6c363258c87",
      "scriptpubkey_asm": "OP_HASH160 OP_PUSHBYTES_20 449754da330c5adad9cf87ec055a2dd6c363258c OP_EQUAL",
      "scriptpubkey_type": "p2sh",
      "scriptpubkey_address": "37whAHJwoEQHSpEzdVWCdRgsUJNhvF9ZMD",
      "value": 20881090
    }
  ],
  "size": 371,
  "weight": 821,
  "fee": 4326,
  "status": {
    "confirmed": true,
    "block_height": 834638,
    "block_hash": "000000000000000000025f742c626208ac87e0b7d15054abb4a19ca2d735a54e",
    "block_time": 1710405325
  },
  "hex": "01000000000101497b803df09845e84101455dfe927a1a24e09c2082aa8584d1eb92a37c93013701000000232200207402d9fef76faa54417b8de9399810c150fb3ce6cb0d0e120ed18985b0b44a68ffffffff02492436000000000017a914af504b9dda6f536912a0b409c26df0baa801432c87c29e3e010000000017a914449754da330c5adad9cf87ec055a2dd6c363258c8704004730440220708886855bc0e0291d44b9627c13b783e45813e5945fe03d561c3877a4e7db71022049104343f37d7b1e67c60b64baf0a607b202a72de70571d8818495c0a58e7f00014830450221009c3d268e1dad560ffe56e2c3fd2046d459120e46cc9aab677d0474d497fb7c4f02204283f0b875157faffe02fbb2ce34c32dbd7b14cff1fc504077d0f3a26d4d553c014752210258894097564986477cb820d8f2d0f97cecb6236ac233c83815d6ffe0d845826321031bee6359e35d8ee2b40a829ffa47d827888d6aa732d76123f0f6c3a9a8e92b0252ae00000000"
}