{
  "txid": "9889ad6d0f3652f12fdee137e46115852cfcd2b8650c6d52741d987464e0eedf",
  "version": 1,
  "locktime": 0,
  "vin": [
    {
      "txid": "a725dcf3d7a6b00b0e364005611bcd6ab718b2067124ba7cdb04cb8d635f5f2e",
      "vout": 16,
      "prevout": {
        "scriptpubkey": "00144279e88d38c1956c694f4ab71128a0237c9af00d",
        "scriptpubkey_asm": "OP_0 OP_PUSHBYTES_20 4279e88d38c1956c694f4ab71128a0237c9af00d",
        "scriptpubkey_type": "v0_p2wpkh",
        "scriptpubkey_address": "bc1qgfu73rfccx2kc620f2m3z29qyd7f4uqd6d06m4",
        "value": 1302372
      },
      "scriptsig": "",
      "scriptsig_asm": "",
      "witness": [
        "304302203052168f5b00384dbf46ce2bc0b1bc2db769b35c6d815689d93885f72f401dbd021f2f6230c3215441cd455fd50f1254e4bda3944a3423a165ea60af1d49b359b201",
        "03c2da7b9c7f342880b39414e5fec24d6e6c8c1965ee5f08820ca9a21cb1598afe"
      ],
      "is_coinbase": false,
      "sequence": 4294967293
    },
    {
      "txid": "3c3f86766559a793bdda57819dc9754dfe5ab3b7667c78d21cabdf85b90f68f4",
      "vout": 0,
      "prevout": {
        "scriptpubkey": "00142048ccdfc333f4640aa674bfacfbd48cd09b59af",
        "scriptpubkey_asm": "OP_0 OP_PUSHBYTES_20 2048ccdfc333f4640aa674bfacfbd48cd09b59af",
        "scriptpubkey_type": "v0_p2wpkh",
        "scriptpubkey_address": "bc1qypyveh7rx06xgz4xwjl6e7753ngfkkd0nwe0d8",
        "value": 1000000
      },
      "scriptsig": "",
      "scriptsig_asm": "",
      "witness": [
        "304502210085b33c5b68be177896e62448d0aea6445430a93e9c98907e5754a308ecdabfb102206bd669b37ea82c53742ee7ffe142e5d1db5c5a4481b19c6f706d040d17bc1b2101",
        "030154dfc1e94dc033f7c2c77644502ab263ea9fe3795a7cafba6f605848f640d5"
      ],
      "is_coinbase": false,
      "sequence": 4294967293
    },
    {
      "txid": "3dace370797e1acfa17a2da12c21581a32575adf75bc2615dd9cd88a57a9df8d",
      "vout": 2,
      "prevout": {
        "scriptpubkey": "001421b82e2e157dbb73d2afa9770069153c476c3477",
        "scriptpubkey_asm": "OP_0 OP_PUSHBYTES_20 21b82e2e157dbb73d2afa9770069153c476c3477",
        "scriptpubkey_type": "v0_p2wpkh",
        "scriptpubkey_address": "bc1qyxuzuts40kah854049msq6g483rkcdrh6fdkxt",
        "value": 1000000
      },
      "scriptsig": "",
      "scriptsig_asm": "",
      "witness": [
        "30450221009945da5251670b625c0602ef95022a1a562da2ea93aab2eb085fe0d4d574f51a022041613b84ee7c1da0b46ada673d0b75debdc178b6de29c044f1320022ea63873201",
        "031d987564f18fed6076a5278fd2af82f0717d25711708a8158f80131e9acfaad7"
      ],
      "is_coinbase": false,
      "sequence": 4294967293
    },
    {
      "txid": "0c78cde4af74e9134731423e749ef1f5a76bc9ad2a617f9e3b29a0d1916ae423",
      "vout": 7,
      "prevout": {
        "scriptpubkey": "0014dddc9c1fc8ba0496d946b0301f8ddae41d0d764f",
        "scriptpubkey_asm": "OP_0 OP_PUSHBYTES_20 dddc9c1fc8ba0496d946b0301f8ddae41d0d764f",
        "scriptpubkey_type": "v0_p2wpkh",
        "scriptpubkey_address": "bc1qmhwfc87ghgzfdk2xkqcplrw6usws6aj08xcxtr",
        "value": 969624
      },
      "scriptsig": "",
      "scriptsig_asm": "",
      "witness": [
        "304402201dbe2326a676cf53465b153e03ab485b241d3f998c6f3c24579c80bd03eb501802204a91ab6b2c6b31983d0ac32d5d1d0ff847c92784a3408d8e26fe1643d0b9b2e101",
        "03cc0c1c14511349863449d3ab4b8af0bb1851389be9dc76285f456018dc6d7684"
      ],
      "is_coinbase": false,
      "sequence": 4294967293
    },
    {
      "txid": "ab5dd1a452e122f0dfee8c476ed59fa21b73d1387e5a21e2bfb06de33fa66f55",
      "vout": 16,
      "prevout": {
        "scriptpubkey": "0014192ba7c2f063d3e2b1bfd231fff6a0f7e0f71cd2",
        "scriptpubkey_asm": "OP_0 OP_PUSHBYTES_20 192ba7c2f063d3e2b1bfd231fff6a0f7e0f71cd2",
        "scriptpubkey_type": "v0_p2wpkh",
        "scriptpubkey_address": "bc1qry460shsv0f79vdl6gclla4q7ls0w8xjczpemz",
        "value": 965421
      },
      "scriptsig": "",
      "scriptsig_asm": "",
      "witness": [
        "3045022100a59415be833e708999109e1ca7a5815b63a5c141d856db41e4358fa00d83b80402200dfb1abead299f067b968a0836d368ffba5970bfe1225cfb0e396b6a756afa4801",
        "02637f86e9a69322f32081e157df61c208f1d2d45a947f820c76da081db3328029"
      ],
      "is_coinbase": false,
      "sequence": 4294967293
    },
    {
      "txid": "c1275da8ac53fd9638435e8ebb57ac42cae8c989d3a62c4bc937cb4a52a32509",
      "vout": 8,
      "prevout": {
        "scriptpubkey": "0014e13e8f255794041ef34cb411c3603deda6b364cb",
        "scriptpubkey_asm": "OP_0 OP_PUSHBYTES_20 e13e8f255794041ef34cb411c3603deda6b364cb",
        "scriptpubkey_type": "v0_p2wpkh",
        "scriptpubkey_address": "bc1quylg7f2hjszpau6vksguxcpaakntxexterefpy",
        "value": 958388
      },
      "scriptsig": "",
      "scriptsig_asm": "",
      "witness": [
        "3045022100e9b6ebf2a9fbb9fca06678a8f9b890fde52de62551b3ec4618f3b2512f88735b02205b2096ea6b63eb46dca66866f08828212b602923070a8376629fb72dc6a1558701",
        "037cf3c8f11d14dc12ff2a32c7ec4dc51a555b6f35144d9182319caefc47a4f12a"
      ],
      "is_coinbase": false,
      "sequence": 4294967293
    },
    {
      "txid": "007cd28e5ffbb085cc78fd88910079534166707be23b292e1be55cd90f9013a2",
      "vout": 2,
      "prevout": {
        "scriptpubkey": "0014c88573495271c6cfb7f79bef716da7df8824362a",
        "scriptpubkey_asm": "OP_0 OP_PUSHBYTES_20 c88573495271c6cfb7f79bef716da7df8824362a",
        "scriptpubkey_type": "v0_p2wpkh",
        "scriptpubkey_address": "bc1qezzhxj2jw8rvldlhn0hhzmd8m7yzgd32py6p2l",
        "value": 620169
      },
      "scriptsig": "",
      "scriptsig_asm": "",
      "witness": [
        "3045022100fb367444a4666ef4c15e5d5b173acb5337fc1a105b6f9d146fb6d02fbfd3466f022040deb9a7890c3041eb5fcb5f98f869ce3522c4d60a1b87779ef155f5e33ee9d901",
        "02a7ca6aa817601fbf7d112e09726c31f68d1b14b242be120163ca69be43be62cb"
      ],
      "is_coinbase": false,
      "sequence": 4294967293
    }
  ],
  "vout": [
    {
      "scriptpubkey": "00148ed4a15c62b9e791f6397eddbc79b253c7b241c1",
      "scriptpubkey_asm": "OP_0 OP_PUSHBYTES_20 8ed4a15c62b9e791f6397eddbc79b253c7b241c1",
      "scriptpubkey_type": "v0_p2wpkh",
      "scriptpubkey_address": "bc1q3m22zhrzh8nera3e0mwmc7dj20rmyswpmu7c8m",
      "value": 6800350
    }
  ],
  "size": 1083,
  "weight": 2067,
  "fee": 15624,
  "status": {
    "confirmed": true,
    "block_height": 834638,
    "block_hash": "000000000000000000025f742c626208ac87e0b7d15054abb4a19ca2d735a54e",
    "block_time": 1710405325
  },
  "hex": "010000000001072e5f5f638dcb04db7cba247106b218b76acd1b610540360e0bb0a6d7f3dc25a71000000000fdfffffff4680fb985dfab1cd2787c66b7b35afe4d75c99d8157dabd93a7596576863f3c0000000000fdffffff8ddfa9578ad89cdd1526bc75df5a57321a58212ca12d7aa1cf1a7e7970e3ac3d0200000000fdffffff23e46a91d1a0293b9e7f612aadc96ba7f5f19e743e42314713e974afe4cd780c0700000000fdffffff556fa63fe36db0bfe2215a7e38d1731ba29fd56e478ceedff022e152a4d15dab1000000000fdffffff0925a3524acb37c94b2ca6d389c9e8ca42ac57bb8e5e433896fd53aca85d27c10800000000fdffffffa213900fd95ce51b2e293be27b7066415379009188fd78cc85b0fb5f8ed27c000200000000fdffffff01dec36700000000001600148ed4a15c62b9e791f6397eddbc79b253c7b241c10246304302203052168f5b00384dbf46ce2bc0b1bc2db769b35c6d815689d93885f72f401dbd021f2f6230c3215441cd455fd50f1254e4bda3944a3423a165ea60af1d49b359b2012103c2da7b9c7f342880b39414e5fec24d6e6c8c1965ee5f08820ca9a21cb1598afe0248304502210085b33c5b68be177896e62448d0aea6445430a93e9c98907e5754a308ecdabfb102206bd669b37ea82c53742ee7ffe142e5d1db5c5a4481b19c6f706d040d17bc1b210121030154dfc1e94dc033f7c2c77644502ab263ea9fe3795a7cafba6f605848f640d5024830450221009945da5251670b625c0602ef95022a1a562da2ea93aab2eb085fe0d4d574f51a022041613b84ee7c1da0b46ada673d0b75debdc178b6de29c044f1320022ea6387320121031d987564f18fed6076a5278fd2af82f0717d25711708a8158f80131e9acfaad70247304402201dbe2326a676cf53465b153e03ab485b241d3f998c6f3c24579c80bd03eb501802204a91ab6b2c6b31983d0ac32d5d1d0ff847c92784a3408d8e26fe1643d0b9b2e1012103cc0c1c14511349863449d3ab4b8af0bb1851389be9dc76285f456018dc6d768402483045022100a59415be833e708999109e1ca7a5815b63a5c141d856db41e4358fa00d83b80402200dfb1abead299f067b968a0836d368ffba5970bfe1225cfb0e396b6a756afa48012102637f86e9a69322f32081e157df61c208f1d2d45a947f820c76da081db332802902483045022100e9b6ebf2a9fbb9fca06678a8f9b890fde52de62551b3ec4618f3b2512f88735b02205b2096ea6b63eb46dca66866f08828212b602923070a8376629fb72dc6a155870121037cf3c8f11d14dc12ff2a32c7ec4dc51a555b6f35144d9182319caefc47a4f12a02483045022100fb367444a4666ef4c15e5d5b173acb5337fc1a105b6f9d146fb6d02fbfd3466f022040deb9a7890c3041eb5fcb5f98f869ce3522c4d60a1b87779ef155f5e33ee9d9012102a7ca6aa817601fbf7d112e09726c31f68d1b14b242be120163ca69be43be62cb00000000"
}