{
  "txid": "989ff46f81ac81a3b97b05f91c92806ab0fbc0cb6558e6ce69b38d6863d5fd12",
  "version": 2,
  "locktime": 0,
  "vin": [
    {
      "txid": "07ddb5915bfbf1e2cdbaba9edd45a8a11a9116eea46f7ccaf85c22d7b121e5ce",
      "vout": 0,
      "prevout": {
        "scriptpubkey": "5120d44e4af17dd8ad9e7465a62f829e642b566879d5cc0f27e28c9c03cd0c73ba5d",
        "scriptpubkey_asm": "OP_PUSHNUM_1 OP_PUSHBYTES_32 d44e4af17dd8ad9e7465a62f829e642b566879d5cc0f27e28c9c03cd0c73ba5d",
        "scriptpubkey_type": "v1_p2tr",
        "scriptpubkey_address": "bc1p638y4utamzkeuar95chc98ny9dtxs7w4es8j0c5vnspu6rrnhfwst0wcaj",
        "value": 250000
      },
      "scriptsig": "",
      "scriptsig_asm": "",
      "witness": [
        "bc19845e9a609ee11db73711ec96fb98fa763c6d6e3181e92af75f19855a00f51b15c1ba23123800f32edaa84aaad3c0477780ac03413fbd0ff1de7c78fb5309"
      ],
      "is_coinbase": false,
      "sequence": 4294967295
    }
  ],
  "vout": [
    {
      "scriptpubkey": "5120d44e4af17dd8ad9e7465a62f829e642b566879d5cc0f27e28c9c03cd0c73ba5d",
      "scriptpubkey_asm": "OP_PUSHNUM_1 OP_PUSHBYTES_32 d44e4af17dd8ad9e7465a62f829e642b566879d5cc0f27e28c9c03cd0c73ba5d",
      "scriptpubkey_type": "v1_p2tr",
      "scriptpubkey_address": "bc1p638y4utamzkeuar95chc98ny9dtxs7w4es8j0c5vnspu6rrnhfwst0wcaj",
      "value": 10000
    },
    {
      "scriptpubkey": "5120d44e4af17dd8ad9e7465a62f829e642b566879d5cc0f27e28c9c03cd0c73ba5d",
      "scriptpubkey_asm": "OP_PUSHNUM_1 OP_PUSHBYTES_32 d44e4af17dd8ad9e7465a62f829e642b566879d5cc0f27e28c9c03cd0c73ba5d",
      "scriptpubkey_type": "v1_p2tr",
      "scriptpubkey_address": "bc1p638y4utamzkeuar95chc98ny9dtxs7w4es8j0c5vnspu6rrnhfwst0wcaj",
      "value": 237844
    }
  ],
  "size": 205,
  "weight": 616,
  "fee": 2156,
  "status": {
    "confirmed": true,
    "block_height": 834638,
    "block_hash": "000000000000000000025f742c626208ac87e0b7d15054abb4a19ca2d735a54e",
    "block_time": 1710405325
  },
  "hex": "02000000000101cee521b1d7225cf8ca7c6fa4ee16911aa1a845dd9ebabacde2f1fb5b91b5dd070000000000ffffffff021027000000000000225120d44e4af17dd8ad9e7465a62f829e642b566879d5cc0f27e28c9c03cd0c73ba5d14a1030000000000225120d44e4af17dd8ad9e7465a62f829e642b566879d5cc0f27e28c9c03cd0c73ba5d0140bc19845e9a609ee11db73711ec96fb98fa763c6d6e3181e92af75f19855a00f51b15c1ba23123800f32edaa84aaad3c0477780ac03413fbd0ff1de7c78fb530900000000"
}