{
  "txid": "98b311d237876ee73dc1b92f0f5aeefde9e9e63be86cfdcaa39679814535ec60",
  "version": 1,
  "locktime": 0,
  "vin": [
    {
      "txid": "397e8fe671b0574d5a1a043290082759712f5671aaebe33606c32c7ca9384855",
      "vout": 6,
      "prevout": {
        "scriptpubkey": "512053a119363618c3fbc14338bc14b0ed211a456eef23f3204ab9cc00cae0d5c68c",
        "scriptpubkey_asm": "OP_PUSHNUM_1 OP_PUSHBYTES_32 53a119363618c3fbc14338bc14b0ed211a456eef23f3204ab9cc00cae0d5c68c",
        "scriptpubkey_type": "v1_p2tr",
        "scriptpubkey_address": "bc1p2ws3jd3krrplhs2r8z7pfv8dyydy2mh0y0ejqj4eesqv4cx4c6xq6x5yjg",
        "value": 49451307701
      },
      "scriptsig": "",
      "scriptsig_asm": "",
      "witness": [
        "c1610b8ab9c8be1c04032f19f77116946f0567d9d8ba5e2ea04f96d1bb6c2415489fcca3baa104e5c67961261c828e1d6ac1c84946329bac28119064f8760e2e"
      ],
      "is_coinbase": false,
      "sequence": 4294967293
    }
  ],
  "vout": [
    {
      "scriptpubkey": "00142b5fd7b584f980ee1d3417be839b9de19fcddbb5",
      "scriptpubkey_asm": "OP_0 OP_PUSHBYTES_20 2b5fd7b584f980ee1d3417be839b9de19fcddbb5",
      "scriptpubkey_type": "v0_p2wpkh",
      "scriptpubkey_address": "bc1q9d0a0dvylxqwu8f5z7lg8xuaux0umka47cgxrh",
      "value": 105056496
    },
    {
      "scriptpubkey": "001439006873094c03059e162cd70eef6555604779d2",
      "scriptpubkey_asm": "OP_0 OP_PUSHBYTES_20 39006873094c03059e162cd70eef6555604779d2",
      "scriptpubkey_type": "v0_p2wpkh",
      "scriptpubkey_address": "bc1q8yqxsucffspst8sk9ntsamm924syw7wjyncjkv",
      "value": 7159737
    },
    {
      "scriptpubkey": "0014f8a147d5d12362ad0c8278bdbe1ac3f5e81f4615",
      "scriptpubkey_asm": "OP_0 OP_PUSHBYTES_20 f8a147d5d12362ad0c8278bdbe1ac3f5e81f4615",
      "scriptpubkey_type": "v0_p2wpkh",
      "scriptpubkey_address": "bc1qlzs504w3yd326ryz0z7muxkr7h5p73s457qdaw",
      "value": 388967
    },
    {
      "scriptpubkey": "512053a119363618c3fbc14338bc14b0ed211a456eef23f3204ab9cc00cae0d5c68c",
      "scriptpubkey_asm": "OP_PUSHNUM_1 OP_PUSHBYTES_32 53a119363618c3fbc14338bc14b0ed211a456eef23f3204ab9cc00cae0d5c68c",
      "scriptpubkey_type": "v1_p2tr",
      "scriptpubkey_address": "bc1p2ws3jd3krrplhs2r8z7pfv8dyydy2mh0y0ejqj4eesqv4cx4c6xq6x5yjg",
      "value": 49338682917
    }
  ],
  "size": 255,
  "weight": 816,
  "fee": 19584,
  "status": {
    "confirmed": true,
    "block_height": 834638,
    "block_hash": "000000000000000000025f742c626208ac87e0b7d15054abb4a19ca2d735a54e",
    "block_time": 1710405325
  },
  "hex": "01000000000101554838a97c2cc30636e3ebaa71562f715927089032041a5a4d57b071e68f7e390600000000fdffffff04f0084306000000001600142b5fd7b584f980ee1d3417be839b9de19fcddbb5b93f6d000000000016001439006873094c03059e162cd70eef6555604779d267ef050000000000160014f8a147d5d12362ad0c8278bdbe1ac3f5e81f4615258ed07c0b00000022512053a119363618c3fbc14338bc14b0ed211a456eef23f3204ab9cc00cae0d5c68c0140c1610b8ab9c8be1c04032f19f77116946f0567d9d8ba5e2ea04f96d1bb6c2415489fcca3baa104e5c67961261c828e1d6ac1c84946329bac28119064f8760e2e00000000"
}