{
  "txid": "98b3e5f730dbb19c6d3f0370df3486127a14dee10a4e4e37453176b8d1f6569d",
  "version": 2,
  "locktime": 0,
  "vin": [
    {
      "txid": "24140fef4166b85caa4069020c140614b0a350b3489e4555895f54ccd6889094",
      "vout": 1,
      "prevout": {
        "scriptpubkey": "0014ce5ba2fe240a217e84f04753663ac5e751499c53",
        "scriptpubkey_asm": "OP_0 OP_PUSHBYTES_20 ce5ba2fe240a217e84f04753663ac5e751499c53",
        "scriptpubkey_type": "v0_p2wpkh",
        "scriptpubkey_address": "bc1qeed69l3ypgshap8sgafkvwk9uag5n8zn24mtyr",
        "value": 1543731
      },
      "scriptsig": "",
      "scriptsig_asm": "",
      "witness": [
        "304402201f540113b4d3dc975b1fb4d1d37a016cfe2b403f9b9330325abbc89bac01cb0e022013dfdf1b4c1f6f0f4a48dd55132ac2ff313a5cb7e1eedcd44a9b5add5df0c3a101",
        "020159d1b06c9ea74996f70b738db030c2ebef0428519368df1a3e1b0d884f0a35"
      ],
      "is_coinbase": false,
      "sequence": 4294967295
    }
  ],
  "vout": [
    {
      "scriptpubkey": "76a9145294767f8b7c42c9c783b07875c61bfe7172243688ac",
      "scriptpubkey_asm": "OP_DUP OP_HASH160 OP_PUSHBYTES_20 5294767f8b7c42c9c783b07875c61bfe71722436 OP_EQUALVERIFY OP_CHECKSIG",
      "scriptpubkey_type": "p2pkh",
      "scriptpubkey_address": "18XeG7W5kRcYT3CCFyFYKn3fcmEETTvhkH",
      "value": 476917
    },
    {
      "scriptpubkey": "0014ce5ba2fe240a217e84f04753663ac5e751499c53",
      "scriptpubkey_asm": "OP_0 OP_PUSHBYTES_20 ce5ba2fe240a217e84f04753663ac5e751499c53",
      "scriptpubkey_type": "v0_p2wpkh",
      "scriptpubkey_address": "bc1qeed69l3ypgshap8sgafkvwk9uag5n8zn24mtyr",
      "value": 1064315
    }
  ],
  "size": 225,
  "weight": 573,
  "fee": 2499,
  "status": {
    "confirmed": true,
    "block_height": 834638,
    "block_hash": "000000000000000000025f742c626208ac87e0b7d15054abb4a19ca2d735a54e",
    "block_time": 1710405325
  },
  "hex": "02000000000101949088d6cc545f8955459e48b350a3b01406140c026940aa5cb86641ef0f14240100000000ffffffff02f5460700000000001976a9145294767f8b7c42c9c783b07875c61bfe7172243688ac7b3d100000000000160014ce5ba2fe240a217e84f04753663ac5e751499c530247304402201f540113b4d3dc975b1fb4d1d37a016cfe2b403f9b9330325abbc89bac01cb0e022013dfdf1b4c1f6f0f4a48dd55132ac2ff313a5cb7e1eedcd44a9b5add5df0c3a10121020159d1b06c9ea74996f70b738db030c2ebef0428519368df1a3e1b0d884f0a3500000000"
}