{
  "txid": "98c2cdd6b1f829686d1e390fc3d545992768dc1fbea75a3ee655e97fc28bd150",
  "version": 2,
  "locktime": 0,
  "vin": [
    {
      "txid": "acc3ba00869acb582a3f2904ce3a11dd3779350ce234063fc7d0959246213364",
      "vout": 60,
      "prevout": {
        "scriptpubkey": "51203266a93acdfd5b2c6879345c1427417fd348866e411d3bcba3594e233cd66e21",
        "scriptpubkey_asm": "OP_PUSHNUM_1 OP_PUSHBYTES_32 3266a93acdfd5b2c6879345c1427417fd348866e411d3bcba3594e233cd66e21",
        "scriptpubkey_type": "v1_p2tr",
        "scriptpubkey_address": "bc1pxfn2jwkdl4djc6rex3wpgf6p0lf53pnwgywnhjart98zx0xkdcssxt3w6h",
        "value": 1806
      },
      "scriptsig": "",
      "scriptsig_asm": "",
      "witness": [
        "0fda651c1c7f53e4c92b0c1afde235fbeb63bff83df2c86dc3f7b28b6a98aae09664af5bc659e418a1d3547b36a7afc443b8a5a690891b9556180ebb81414ec6",
        "203b03b581c3e7d646a1cd657d45fb1e65bbc2ac5d1dc56eba66439fca9a298637ac0063036f726401010a746578742f706c61696e00357b2270223a226272632d3230222c226f70223a226d696e74222c227469636b223a22646f6765222c22616d74223a2234323030227d68",
        "c13b03b581c3e7d646a1cd657d45fb1e65bbc2ac5d1dc56eba66439fca9a298637"
      ],
      "is_coinbase": false,
      "sequence": 4261412863
    }
  ],
  "vout": [
    {
      "scriptpubkey": "00147a665de7a370f4c9b372ab1fae587500a5bcbdb4",
      "scriptpubkey_asm": "OP_0 OP_PUSHBYTES_20 7a665de7a370f4c9b372ab1fae587500a5bcbdb4",
      "scriptpubkey_type": "v0_p2wpkh",
      "scriptpubkey_address": "bc1q0fn9mearwr6vnvmj4v06ukr4qzjme0d565dzcx",
      "value": 294
    }
  ],
  "size": 294,
  "weight": 540,
  "fee": 1512,
  "status": {
    "confirmed": true,
    "block_height": 834460,
    "block_hash": "00000000000000000000484a79b643b2524bbce82e5d8a442013fa5b8905ed98",
    "block_time": 1710307468
  },
  "hex": "02000000000101643321469295d0c73f0634e20c357937dd113ace04293f2a58cb9a8600bac3ac3c00000000fffffffd0126010000000000001600147a665de7a370f4c9b372ab1fae587500a5bcbdb403400fda651c1c7f53e4c92b0c1afde235fbeb63bff83df2c86dc3f7b28b6a98aae09664af5bc659e418a1d3547b36a7afc443b8a5a690891b9556180ebb81414ec66d203b03b581c3e7d646a1cd657d45fb1e65bbc2ac5d1dc56eba66439fca9a298637ac0063036f726401010a746578742f706c61696e00357b2270223a226272632d3230222c226f70223a226d696e74222c227469636b223a22646f6765222c22616d74223a2234323030227d6821c13b03b581c3e7d646a1cd657d45fb1e65bbc2ac5d1dc56eba66439fca9a29863700000000"
}