{
  "txid": "98d5db4b5cf8a6586e1d0ccc9609c93a456a0acf37f2f2d790134383de93af99",
  "version": 1,
  "locktime": 0,
  "vin": [
    {
      "txid": "a20b5aefa959e8fe49f5725776a87be5250ec54d1446e3fb110591660baf9364",
      "vout": 0,
      "prevout": {
        "scriptpubkey": "0014d188729f377cbf8c5969faa19a3d37673774d57c",
        "scriptpubkey_asm": "OP_0 OP_PUSHBYTES_20 d188729f377cbf8c5969faa19a3d37673774d57c",
        "scriptpubkey_type": "v0_p2wpkh",
        "scriptpubkey_address": "bc1q6xy898eh0jlccktfl2se50fhvumhf4tuearzp4",
        "value": 6866179
      },
      "scriptsig": "",
      "scriptsig_asm": "",
      "witness": [
        "3045022100a1e86b87c30a9196aaa415021738c112b0f8c480211947ed0c3298fa22a5eaeb02201b8fa8f35ab582bfbbc9d19720e20ddbbe4ef58a0b880ffdd62ed0c07570b81601",
        "0201531b4b85a79d20a887ca8acdc88f5901dedc721e8c52bc045487fe0ab9f3be"
      ],
      "is_coinbase": false,
      "sequence": 4294967295
    }
  ],
  "vout": [
    {
      "scriptpubkey": "0014c85b09be90b61b52bc5cbccb2a4369be0604ad2d",
      "scriptpubkey_asm": "OP_0 OP_PUSHBYTES_20 c85b09be90b61b52bc5cbccb2a4369be0604ad2d",
      "scriptpubkey_type": "v0_p2wpkh",
      "scriptpubkey_address": "bc1qepdsn05skcd490zuhn9j5smfhcrqftfdk0rlc7",
      "value": 2785171
    },
    {
      "scriptpubkey": "0014f966e97edb694106292d52090ad3ff3a0a00eda0",
      "scriptpubkey_asm": "OP_0 OP_PUSHBYTES_20 f966e97edb694106292d52090ad3ff3a0a00eda0",
      "scriptpubkey_type": "v0_p2wpkh",
      "scriptpubkey_address": "bc1ql9nwjlkmd9qsv2fd2gys45ll8g9qpmdq94getz",
      "value": 4073958
    }
  ],
  "size": 223,
  "weight": 562,
  "fee": 7050,
  "status": {
    "confirmed": true,
    "block_height": 834638,
    "block_hash": "000000000000000000025f742c626208ac87e0b7d15054abb4a19ca2d735a54e",
    "block_time": 1710405325
  },
  "hex": "010000000001016493af0b66910511fbe346144dc50e25e57ba8765772f549fee859a9ef5a0ba20000000000ffffffff02937f2a0000000000160014c85b09be90b61b52bc5cbccb2a4369be0604ad2de6293e0000000000160014f966e97edb694106292d52090ad3ff3a0a00eda002483045022100a1e86b87c30a9196aaa415021738c112b0f8c480211947ed0c3298fa22a5eaeb02201b8fa8f35ab582bfbbc9d19720e20ddbbe4ef58a0b880ffdd62ed0c07570b81601210201531b4b85a79d20a887ca8acdc88f5901dedc721e8c52bc045487fe0ab9f3be00000000"
}