{
  "txid": "98f38fee065b764b0d626f9051e958efa95cccd2ea77707c2fa2f50df7c8db75",
  "version": 2,
  "locktime": 0,
  "vin": [
    {
      "txid": "d787c649d9a7eee2e963c60a3dff683fdf8e2dcab62434ab6ba008ffe22174c2",
      "vout": 0,
      "prevout": {
        "scriptpubkey": "00146ca88ab8ec567c3fcc6f748a369df7acdf3ee303",
        "scriptpubkey_asm": "OP_0 OP_PUSHBYTES_20 6ca88ab8ec567c3fcc6f748a369df7acdf3ee303",
        "scriptpubkey_type": "v0_p2wpkh",
        "scriptpubkey_address": "bc1qdj5g4w8v2e7rlnr0wj9rd80h4n0naccr68pt0x",
        "value": 972717
      },
      "scriptsig": "",
      "scriptsig_asm": "",
      "witness": [
        "3044022047924abde6af8a73d3171e28f60d4be4d241ad4fe772feed29885219922b1f8d02206ffbb00d3b8e2b8490230b1738ec5bb314203fa6571e0e5f6540a334e736a2fa01",
        "03afb84ca41db0ae7633b84991c04c3088bd23848327697265a890aaff97b2b4e2"
      ],
      "is_coinbase": false,
      "sequence": 4294967293
    }
  ],
  "vout": [
    {
      "scriptpubkey": "a914275123534ca836778ab6153aff2a7a721519680c87",
      "scriptpubkey_asm": "OP_HASH160 OP_PUSHBYTES_20 275123534ca836778ab6153aff2a7a721519680c OP_EQUAL",
      "scriptpubkey_type": "p2sh",
      "scriptpubkey_address": "35GuUbG5J5ezo43HYs4gHgdkvdEtLWD961",
      "value": 970919
    }
  ],
  "size": 192,
  "weight": 441,
  "fee": 1798,
  "status": {
    "confirmed": true,
    "block_height": 834638,
    "block_hash": "000000000000000000025f742c626208ac87e0b7d15054abb4a19ca2d735a54e",
    "block_time": 1710405325
  },
  "hex": "02000000000101c27421e2ff08a06bab3424b6ca2d8edf3f68ff3d0ac663e9e2eea7d949c687d70000000000fdffffff01a7d00e000000000017a914275123534ca836778ab6153aff2a7a721519680c8702473044022047924abde6af8a73d3171e28f60d4be4d241ad4fe772feed29885219922b1f8d02206ffbb00d3b8e2b8490230b1738ec5bb314203fa6571e0e5f6540a334e736a2fa012103afb84ca41db0ae7633b84991c04c3088bd23848327697265a890aaff97b2b4e200000000"
}