{
  "txid": "98f4a1691f83beb110f3bc2b726e3b4542a3eba1116d57820de95393f93cbb21",
  "version": 2,
  "locktime": 0,
  "vin": [
    {
      "txid": "27f4d324cf382295ec0f2e7b4a68a809091247f7818f82f704e9daed8fbd759c",
      "vout": 1,
      "prevout": {
        "scriptpubkey": "001404b1bd8ea9159c5e973d5859cd8234b458d41cc7",
        "scriptpubkey_asm": "OP_0 OP_PUSHBYTES_20 04b1bd8ea9159c5e973d5859cd8234b458d41cc7",
        "scriptpubkey_type": "v0_p2wpkh",
        "scriptpubkey_address": "bc1qqjcmmr4fzkw9a9eatpvumq35k3vdg8x86wdgdy",
        "value": 22090790
      },
      "scriptsig": "",
      "scriptsig_asm": "",
      "witness": [
        "30440220376fe514913d32c5990c7311f3add437e88d9d7bbc507a130fe1eebf5932dc5d02202d130320183c05e8958a54eb3d18d1f72d5efa36f63a8f184800897ea7734a4901",
        "03db8e2137d839e7ef65ea76cf84bf89a733cbf7cd05103b80c11cfea263b878a3"
      ],
      "is_coinbase": false,
      "sequence": 4294967295
    }
  ],
  "vout": [
    {
      "scriptpubkey": "0014f267cd4b1d5a0b24efe560a55ae0165f48a9fdba",
      "scriptpubkey_asm": "OP_0 OP_PUSHBYTES_20 f267cd4b1d5a0b24efe560a55ae0165f48a9fdba",
      "scriptpubkey_type": "v0_p2wpkh",
      "scriptpubkey_address": "bc1q7fnu6jcatg9jfml9vzj44cqktay2nld6dns5zy",
      "value": 102401
    },
    {
      "scriptpubkey": "001404b1bd8ea9159c5e973d5859cd8234b458d41cc7",
      "scriptpubkey_asm": "OP_0 OP_PUSHBYTES_20 04b1bd8ea9159c5e973d5859cd8234b458d41cc7",
      "scriptpubkey_type": "v0_p2wpkh",
      "scriptpubkey_address": "bc1qqjcmmr4fzkw9a9eatpvumq35k3vdg8x86wdgdy",
      "value": 21985584
    }
  ],
  "size": 222,
  "weight": 561,
  "fee": 2805,
  "status": {
    "confirmed": true,
    "block_height": 834638,
    "block_hash": "000000000000000000025f742c626208ac87e0b7d15054abb4a19ca2d735a54e",
    "block_time": 1710405325
  },
  "hex": "020000000001019c75bd8feddae904f7828f81f747120909a8684a7b2e0fec952238cf24d3f4270100000000ffffffff020190010000000000160014f267cd4b1d5a0b24efe560a55ae0165f48a9fdba30794f010000000016001404b1bd8ea9159c5e973d5859cd8234b458d41cc7024730440220376fe514913d32c5990c7311f3add437e88d9d7bbc507a130fe1eebf5932dc5d02202d130320183c05e8958a54eb3d18d1f72d5efa36f63a8f184800897ea7734a49012103db8e2137d839e7ef65ea76cf84bf89a733cbf7cd05103b80c11cfea263b878a300000000"
}