{
  "txid": "98f96428557224974a1251b27e4aede05e49adfc2fd47832af7fecaa2bf32398",
  "version": 1,
  "locktime": 0,
  "vin": [
    {
      "txid": "2b30afc0e49ee7fc951efd4eb3684feb065174fb269964f4ac1ef7e696bc01b7",
      "vout": 1,
      "prevout": {
        "scriptpubkey": "00145c1e1275305d486664466b4d0f1a2a35cf87fc01",
        "scriptpubkey_asm": "OP_0 OP_PUSHBYTES_20 5c1e1275305d486664466b4d0f1a2a35cf87fc01",
        "scriptpubkey_type": "v0_p2wpkh",
        "scriptpubkey_address": "bc1qts0pyafst4yxvezxddxs7x32xh8c0lqp7y7t0t",
        "value": 32561
      },
      "scriptsig": "",
      "scriptsig_asm": "",
      "witness": [
        "3045022100888e16ab3e9d05b27c54899452ab299e1bcc52afaf24cfefedc66c7ea98ea644022021a593d95620891d48552fa8227dece7aad3487ce997790c0e58f2424429785701",
        "032a8983b83bf9020d957e90f1aafa3fe96ee5b85bb306bde060aba4834bcaf04d"
      ],
      "is_coinbase": false,
      "sequence": 4294967293
    },
    {
      "txid": "5efd80d09518d22896a87b8bae777eab3cf4b22d051aa371df0b5d469026aa24",
      "vout": 75,
      "prevout": {
        "scriptpubkey": "00143aa7c4232f5f1db9b50d5ff98f4bf773b4bcb197",
        "scriptpubkey_asm": "OP_0 OP_PUSHBYTES_20 3aa7c4232f5f1db9b50d5ff98f4bf773b4bcb197",
        "scriptpubkey_type": "v0_p2wpkh",
        "scriptpubkey_address": "bc1q82nugge0tuwmndgdtluc7jlhww6tevvhxev0ll",
        "value": 32525
      },
      "scriptsig": "",
      "scriptsig_asm": "",
      "witness": [
        "3044022015bc2bd2b21256b22f41cf9a4efb25200170476f0f66e20b64c6955ac118d3c702202365390d6794d3b2f38d32d8cb3712d1e680f4955bdd49183bf7d3fa45647b9501",
        "0344118ca60b9401ed88fff650bd233d91ae0d1095cb7a38e59a1b795fc62bdfbb"
      ],
      "is_coinbase": false,
      "sequence": 4294967293
    },
    {
      "txid": "184d9862e395493b2257588fade8f694a102154af4da2b5215d3aef81c61562e",
      "vout": 15,
      "prevout": {
        "scriptpubkey": "0014b7ba867716e22edaa9e980cc073fc7086d64cae8",
        "scriptpubkey_asm": "OP_0 OP_PUSHBYTES_20 b7ba867716e22edaa9e980cc073fc7086d64cae8",
        "scriptpubkey_type": "v0_p2wpkh",
        "scriptpubkey_address": "bc1qk7agvackughd420fsrxqw078ppkkfjhgr64ak0",
        "value": 32522
      },
      "scriptsig": "",
      "scriptsig_asm": "",
      "witness": [
        "3045022100efa950a56864a1f681031662353a55a06e75d16bfc45157e5b03cfa826e48c59022009831a94de9cb29f2137a3e19b03acf346bbfa601f3e4af555093cd297ada92e01",
        "03b11a5e3c16a7e5ee77d2bf2e60de002e03a86bae13d8cc40110c6b4bc3260260"
      ],
      "is_coinbase": false,
      "sequence": 4294967293
    },
    {
      "txid": "466240117f5dcead51aec9e08f6e533efe7abbc68ed2aaada230fcb8d255f85b",
      "vout": 6,
      "prevout": {
        "scriptpubkey": "00144d598e89e6d219d3ca8fd18c411e7f814555d433",
        "scriptpubkey_asm": "OP_0 OP_PUSHBYTES_20 4d598e89e6d219d3ca8fd18c411e7f814555d433",
        "scriptpubkey_type": "v0_p2wpkh",
        "scriptpubkey_address": "bc1qf4vcaz0x6gva8j506xxyz8nls9z4t4pn9qhq0q",
        "value": 32513
      },
      "scriptsig": "",
      "scriptsig_asm": "",
      "witness": [
        "304402200f04c898a8521cde8d9e6613b7b7b08998f4601e8f5697e60269807420e0d0ea02207f01a2232db4544c4c6c318d2e4d5df823f245fec393c84d242af7b0a5185a7f01",
        "02f32dd208c8dc50f62b297e55195dd2ef0378777c70daf6d33ee9e8a753b64a7d"
      ],
      "is_coinbase": false,
      "sequence": 4294967293
    },
    {
      "txid": "e3527d639e5f5e858958727cd4d69bad43f18331e786df71ba3b70991cafe3fa",
      "vout": 42,
      "prevout": {
        "scriptpubkey": "001469d8ef28a847fbb9ad986d1ac4fb4bf2fc218ad2",
        "scriptpubkey_asm": "OP_0 OP_PUSHBYTES_20 69d8ef28a847fbb9ad986d1ac4fb4bf2fc218ad2",
        "scriptpubkey_type": "v0_p2wpkh",
        "scriptpubkey_address": "bc1qd8vw729gglamntvcd5dvf76t7t7zrzkj0zag62",
        "value": 32486
      },
      "scriptsig": "",
      "scriptsig_asm": "",
      "witness": [
        "30440220490fa84322d638638b9aaf26b1258b6fec9d6b905a1792be5f6eb363daf3234f02205f2c0e8ab5b82358eacd950e1ee0c70c3a1484c3f8fe02cd3d79404d3e2b777e01",
        "027756fff8b7d447892bb09fa5cbc748fc8e19a1873beabda44c2a6aac2385a4b7"
      ],
      "is_coinbase": false,
      "sequence": 4294967293
    }
  ],
  "vout": [
    {
      "scriptpubkey": "0014b40b44f313413980c5fcf155d3b0a1abfc29cb9d",
      "scriptpubkey_asm": "OP_0 OP_PUSHBYTES_20 b40b44f313413980c5fcf155d3b0a1abfc29cb9d",
      "scriptpubkey_type": "v0_p2wpkh",
      "scriptpubkey_address": "bc1qks95fucngyucp30u792a8v9p407znjua9mr9cq",
      "value": 151087
    }
  ],
  "size": 785,
  "weight": 1523,
  "fee": 11520,
  "status": {
    "confirmed": true,
    "block_height": 834638,
    "block_hash": "000000000000000000025f742c626208ac87e0b7d15054abb4a19ca2d735a54e",
    "block_time": 1710405325
  },
  "hex": "01000000000105b701bc96e6f71eacf4649926fb745106eb4f68b34efd1e95fce79ee4c0af302b0100000000fdffffff24aa2690465d0bdf71a31a052db2f43cab7e77ae8b7ba89628d21895d080fd5e4b00000000fdffffff2e56611cf8aed315522bdaf44a1502a194f6e8ad8f5857223b4995e362984d180f00000000fdffffff5bf855d2b8fc30a2adaad28ec6bb7afe3e536e8fe0c9ae51adce5d7f114062460600000000fdfffffffae3af1c99703bba71df86e73183f143ad9bd6d47c725889855e5f9e637d52e32a00000000fdffffff012f4e020000000000160014b40b44f313413980c5fcf155d3b0a1abfc29cb9d02483045022100888e16ab3e9d05b27c54899452ab299e1bcc52afaf24cfefedc66c7ea98ea644022021a593d95620891d48552fa8227dece7aad3487ce997790c0e58f242442978570121032a8983b83bf9020d957e90f1aafa3fe96ee5b85bb306bde060aba4834bcaf04d02473044022015bc2bd2b21256b22f41cf9a4efb25200170476f0f66e20b64c6955ac118d3c702202365390d6794d3b2f38d32d8cb3712d1e680f4955bdd49183bf7d3fa45647b9501210344118ca60b9401ed88fff650bd233d91ae0d1095cb7a38e59a1b795fc62bdfbb02483045022100efa950a56864a1f681031662353a55a06e75d16bfc45157e5b03cfa826e48c59022009831a94de9cb29f2137a3e19b03acf346bbfa601f3e4af555093cd297ada92e012103b11a5e3c16a7e5ee77d2bf2e60de002e03a86bae13d8cc40110c6b4bc32602600247304402200f04c898a8521cde8d9e6613b7b7b08998f4601e8f5697e60269807420e0d0ea02207f01a2232db4544c4c6c318d2e4d5df823f245fec393c84d242af7b0a5185a7f012102f32dd208c8dc50f62b297e55195dd2ef0378777c70daf6d33ee9e8a753b64a7d024730440220490fa84322d638638b9aaf26b1258b6fec9d6b905a1792be5f6eb363daf3234f02205f2c0e8ab5b82358eacd950e1ee0c70c3a1484c3f8fe02cd3d79404d3e2b777e0121027756fff8b7d447892bb09fa5cbc748fc8e19a1873beabda44c2a6aac2385a4b700000000"
}