{
  "txid": "9906c67e04c5ccb2921ffc06a6a101f598e5095cd5027a014865d58f65b435d7",
  "version": 1,
  "locktime": 0,
  "vin": [
    {
      "txid": "3587bc5216a4ac2c47a4be0839e6d6a7c4a07ddbf87d65eb6312097f6ac13258",
      "vout": 1,
      "prevout": {
        "scriptpubkey": "00143153ff40fabff7d87d0751938bac806d60b70f67",
        "scriptpubkey_asm": "OP_0 OP_PUSHBYTES_20 3153ff40fabff7d87d0751938bac806d60b70f67",
        "scriptpubkey_type": "v0_p2wpkh",
        "scriptpubkey_address": "bc1qx9fl7s86hlmaslg82xfchtyqd4stwrm89ftay8",
        "value": 474839
      },
      "scriptsig": "",
      "scriptsig_asm": "",
      "witness": [
        "3045022100b2e8863ebe705c9812534ed9e775c6f91d235d1929501f6cf99d40358b990b9f022009eb1dcfee333ad5534a793e4938959f0d790bb075009fe86b01c8921862a7dd01",
        "03f5bc7e2c43d1e2e2d5f31555f4c6156c97057f3dda3fedfa5ce1239dfad24c6a"
      ],
      "is_coinbase": false,
      "sequence": 4294967295
    }
  ],
  "vout": [
    {
      "scriptpubkey": "001439d04bb846ec5808f1c62a146ed76b565ae467d3",
      "scriptpubkey_asm": "OP_0 OP_PUSHBYTES_20 39d04bb846ec5808f1c62a146ed76b565ae467d3",
      "scriptpubkey_type": "v0_p2wpkh",
      "scriptpubkey_address": "bc1q88gyhwzxa3vq3uwx9g2xa4mt2edwge7nhe0jr3",
      "value": 28560
    },
    {
      "scriptpubkey": "00149cd23eef70bcddea49a7dcc4ed9b7f28e4784e78",
      "scriptpubkey_asm": "OP_0 OP_PUSHBYTES_20 9cd23eef70bcddea49a7dcc4ed9b7f28e4784e78",
      "scriptpubkey_type": "v0_p2wpkh",
      "scriptpubkey_address": "bc1qnnframmshnw75jd8mnzwmxml9rj8snncgu6565",
      "value": 442645
    }
  ],
  "size": 223,
  "weight": 562,
  "fee": 3634,
  "status": {
    "confirmed": true,
    "block_height": 834638,
    "block_hash": "000000000000000000025f742c626208ac87e0b7d15054abb4a19ca2d735a54e",
    "block_time": 1710405325
  },
  "hex": "010000000001015832c16a7f091263eb657df8db7da0c4a7d6e63908bea4472caca41652bc87350100000000ffffffff02906f00000000000016001439d04bb846ec5808f1c62a146ed76b565ae467d315c10600000000001600149cd23eef70bcddea49a7dcc4ed9b7f28e4784e7802483045022100b2e8863ebe705c9812534ed9e775c6f91d235d1929501f6cf99d40358b990b9f022009eb1dcfee333ad5534a793e4938959f0d790bb075009fe86b01c8921862a7dd012103f5bc7e2c43d1e2e2d5f31555f4c6156c97057f3dda3fedfa5ce1239dfad24c6a00000000"
}