{
  "txid": "9914e1d946c72ac4359706c114f9e769752a6fd1f3cccb14a7c132f7db8e373a",
  "version": 1,
  "locktime": 0,
  "vin": [
    {
      "txid": "249faaae1e45a44b05ee1162c064c6be881554f887611e87d9c7fd01d1e5205c",
      "vout": 1,
      "prevout": {
        "scriptpubkey": "0014a996e1ba340a59216e929725eeb8a1015cf777ae",
        "scriptpubkey_asm": "OP_0 OP_PUSHBYTES_20 a996e1ba340a59216e929725eeb8a1015cf777ae",
        "scriptpubkey_type": "v0_p2wpkh",
        "scriptpubkey_address": "bc1q4xtwrw35pfvjzm5jjuj7aw9pq9w0waawgy3pnc",
        "value": 2923
      },
      "scriptsig": "",
      "scriptsig_asm": "",
      "witness": [
        "3045022100beed239cf745ff584d003c2a593aef89ebb65dc6fcfc6e5917386b2bb7c98c9f022022c0e4947a438d27a7d56e0a9ac301e3c7f89f994893151209f5c308d78e817a01",
        "03e129264b98b05dabd5781d3accc8cd5779daa51d5d0dee8395575b96f76f1f74"
      ],
      "is_coinbase": false,
      "sequence": 4294967295
    },
    {
      "txid": "8bc4672cc0ba8dea4a81f3f73ac3197767477e3da0ca11cc092964927a6d3215",
      "vout": 1,
      "prevout": {
        "scriptpubkey": "0014a996e1ba340a59216e929725eeb8a1015cf777ae",
        "scriptpubkey_asm": "OP_0 OP_PUSHBYTES_20 a996e1ba340a59216e929725eeb8a1015cf777ae",
        "scriptpubkey_type": "v0_p2wpkh",
        "scriptpubkey_address": "bc1q4xtwrw35pfvjzm5jjuj7aw9pq9w0waawgy3pnc",
        "value": 10844
      },
      "scriptsig": "",
      "scriptsig_asm": "",
      "witness": [
        "3045022100bbd6be6fd26f90b49cb12b1b6140160ff84b98dedf54f074623df7d1f0c191eb02206e68be8381f4e0556979c79836fa7191b8695dc08ad4c990d1ca624bc3d772be01",
        "03e129264b98b05dabd5781d3accc8cd5779daa51d5d0dee8395575b96f76f1f74"
      ],
      "is_coinbase": false,
      "sequence": 4294967295
    },
    {
      "txid": "968ed4bb4451b39f3f978ebf88b195c67b686c10015bc789934d12b30dabdec4",
      "vout": 1,
      "prevout": {
        "scriptpubkey": "0014a996e1ba340a59216e929725eeb8a1015cf777ae",
        "scriptpubkey_asm": "OP_0 OP_PUSHBYTES_20 a996e1ba340a59216e929725eeb8a1015cf777ae",
        "scriptpubkey_type": "v0_p2wpkh",
        "scriptpubkey_address": "bc1q4xtwrw35pfvjzm5jjuj7aw9pq9w0waawgy3pnc",
        "value": 2997
      },
      "scriptsig": "",
      "scriptsig_asm": "",
      "witness": [
        "304402206c7e0beb6980359e498ddfaa0df75346b4e4c5d751bbfcf4506c590aa92a80f3022014004d2520701336e3c1b753c8c329312280b83db9f75dbf75cc8969bfae9fa501",
        "03e129264b98b05dabd5781d3accc8cd5779daa51d5d0dee8395575b96f76f1f74"
      ],
      "is_coinbase": false,
      "sequence": 4294967295
    },
    {
      "txid": "474d68b2cd150a92581d2a26be17b3b9cdbc3ec67f1940c4bbccfbe198a9f713",
      "vout": 1,
      "prevout": {
        "scriptpubkey": "0014a996e1ba340a59216e929725eeb8a1015cf777ae",
        "scriptpubkey_asm": "OP_0 OP_PUSHBYTES_20 a996e1ba340a59216e929725eeb8a1015cf777ae",
        "scriptpubkey_type": "v0_p2wpkh",
        "scriptpubkey_address": "bc1q4xtwrw35pfvjzm5jjuj7aw9pq9w0waawgy3pnc",
        "value": 6418
      },
      "scriptsig": "",
      "scriptsig_asm": "",
      "witness": [
        "30450221009f0557d95e8dd0bd7120f99fc5c52de8ab5f0bc12230565f8c5c39e9728a640502206631a2fcd9512de06e87fea567e279814b24145d79a2e1bf70c286fc1976e58901",
        "03e129264b98b05dabd5781d3accc8cd5779daa51d5d0dee8395575b96f76f1f74"
      ],
      "is_coinbase": false,
      "sequence": 4294967295
    },
    {
      "txid": "9a5297e35171b0ec1def3fcd91ed74d42b72488a26bed7b54e7a41a39757f4ef",
      "vout": 1,
      "prevout": {
        "scriptpubkey": "0014a996e1ba340a59216e929725eeb8a1015cf777ae",
        "scriptpubkey_asm": "OP_0 OP_PUSHBYTES_20 a996e1ba340a59216e929725eeb8a1015cf777ae",
        "scriptpubkey_type": "v0_p2wpkh",
        "scriptpubkey_address": "bc1q4xtwrw35pfvjzm5jjuj7aw9pq9w0waawgy3pnc",
        "value": 5722
      },
      "scriptsig": "",
      "scriptsig_asm": "",
      "witness": [
        "304502210084bf73f5e38f8b4d0ca530193cb7e2bb96d77aac8f245dee44f4e666422085420220039ce7c87432d8ee0e5149b01cd09dfe30391bad3ebf596a1dbf7bc65b9e75fb01",
        "03e129264b98b05dabd5781d3accc8cd5779daa51d5d0dee8395575b96f76f1f74"
      ],
      "is_coinbase": false,
      "sequence": 4294967295
    },
    {
      "txid": "ad60bbac0f0b774cfd227526a464ca39946083d23793650dc5f57564c32bd457",
      "vout": 1,
      "prevout": {
        "scriptpubkey": "0014a996e1ba340a59216e929725eeb8a1015cf777ae",
        "scriptpubkey_asm": "OP_0 OP_PUSHBYTES_20 a996e1ba340a59216e929725eeb8a1015cf777ae",
        "scriptpubkey_type": "v0_p2wpkh",
        "scriptpubkey_address": "bc1q4xtwrw35pfvjzm5jjuj7aw9pq9w0waawgy3pnc",
        "value": 2882
      },
      "scriptsig": "",
      "scriptsig_asm": "",
      "witness": [
        "3044022013469abca155aa3c4bce497a678a7ef24ee46674314e9789939a58693e752cff02207e859b68735fc081f60e06274805a66008ca61da40d76581067eae888c076a0601",
        "03e129264b98b05dabd5781d3accc8cd5779daa51d5d0dee8395575b96f76f1f74"
      ],
      "is_coinbase": false,
      "sequence": 4294967295
    }
  ],
  "vout": [
    {
      "scriptpubkey": "001439d3917d573170af5a1274ef921ede9ec88f0be1",
      "scriptpubkey_asm": "OP_0 OP_PUSHBYTES_20 39d3917d573170af5a1274ef921ede9ec88f0be1",
      "scriptpubkey_type": "v0_p2wpkh",
      "scriptpubkey_address": "bc1q88fezl2hx9c27ksjwnhey8k7nmyg7zlpe4w323",
      "value": 19636
    }
  ],
  "size": 935,
  "weight": 1796,
  "fee": 12150,
  "status": {
    "confirmed": true,
    "block_height": 834638,
    "block_hash": "000000000000000000025f742c626208ac87e0b7d15054abb4a19ca2d735a54e",
    "block_time": 1710405325
  },
  "hex": "010000000001065c20e5d101fdc7d9871e6187f8541588bec664c06211ee054ba4451eaeaa9f240100000000ffffffff15326d7a92642909cc11caa03d7e47677719c33af7f3814aea8dbac02c67c48b0100000000ffffffffc4deab0db3124d9389c75b01106c687bc695b188bf8e973f9fb35144bbd48e960100000000ffffffff13f7a998e1fbccbbc440197fc63ebccdb9b317be262a1d58920a15cdb2684d470100000000ffffffffeff45797a3417a4eb5d7be268a48722bd474ed91cd3fef1decb07151e397529a0100000000ffffffff57d42bc36475f5c50d659337d283609439ca64a4267522fd4c770b0facbb60ad0100000000ffffffff01b44c00000000000016001439d3917d573170af5a1274ef921ede9ec88f0be102483045022100beed239cf745ff584d003c2a593aef89ebb65dc6fcfc6e5917386b2bb7c98c9f022022c0e4947a438d27a7d56e0a9ac301e3c7f89f994893151209f5c308d78e817a012103e129264b98b05dabd5781d3accc8cd5779daa51d5d0dee8395575b96f76f1f7402483045022100bbd6be6fd26f90b49cb12b1b6140160ff84b98dedf54f074623df7d1f0c191eb02206e68be8381f4e0556979c79836fa7191b8695dc08ad4c990d1ca624bc3d772be012103e129264b98b05dabd5781d3accc8cd5779daa51d5d0dee8395575b96f76f1f740247304402206c7e0beb6980359e498ddfaa0df75346b4e4c5d751bbfcf4506c590aa92a80f3022014004d2520701336e3c1b753c8c329312280b83db9f75dbf75cc8969bfae9fa5012103e129264b98b05dabd5781d3accc8cd5779daa51d5d0dee8395575b96f76f1f74024830450221009f0557d95e8dd0bd7120f99fc5c52de8ab5f0bc12230565f8c5c39e9728a640502206631a2fcd9512de06e87fea567e279814b24145d79a2e1bf70c286fc1976e589012103e129264b98b05dabd5781d3accc8cd5779daa51d5d0dee8395575b96f76f1f740248304502210084bf73f5e38f8b4d0ca530193cb7e2bb96d77aac8f245dee44f4e666422085420220039ce7c87432d8ee0e5149b01cd09dfe30391bad3ebf596a1dbf7bc65b9e75fb012103e129264b98b05dabd5781d3accc8cd5779daa51d5d0dee8395575b96f76f1f7402473044022013469abca155aa3c4bce497a678a7ef24ee46674314e9789939a58693e752cff02207e859b68735fc081f60e06274805a66008ca61da40d76581067eae888c076a06012103e129264b98b05dabd5781d3accc8cd5779daa51d5d0dee8395575b96f76f1f7400000000"
}