{
  "txid": "9914899cbbf931d10ded509a7b1a90c07d6a824cf62ae69ba71a207bb6dafd3e",
  "version": 2,
  "locktime": 0,
  "vin": [
    {
      "txid": "acc3ba00869acb582a3f2904ce3a11dd3779350ce234063fc7d0959246213364",
      "vout": 40,
      "prevout": {
        "scriptpubkey": "5120625e2f5e9d57133a2cafe0392796aa303b5ae8f69b0645d4a6c057409641068c",
        "scriptpubkey_asm": "OP_PUSHNUM_1 OP_PUSHBYTES_32 625e2f5e9d57133a2cafe0392796aa303b5ae8f69b0645d4a6c057409641068c",
        "scriptpubkey_type": "v1_p2tr",
        "scriptpubkey_address": "bc1pvf0z7h5a2ufn5t90uquj0942xqa4468knvryt49xcpt5p9jpq6xqkr5vut",
        "value": 1806
      },
      "scriptsig": "",
      "scriptsig_asm": "",
      "witness": [
        "62307a31e80dc6a6c85a1cc1ca0f3bb5fd76cf16e610af66364930b64a552ed2a65a940927330e2bd01af50e23df60c67e8a7282d8c080731603e08d16f174b7",
        "2030308f89fa4990ed111ed15673319f463efc71adca3e1b27d15caa4f3e7b50ddac0063036f726401010a746578742f706c61696e00357b2270223a226272632d3230222c226f70223a226d696e74222c227469636b223a22646f6765222c22616d74223a2234323030227d68",
        "c030308f89fa4990ed111ed15673319f463efc71adca3e1b27d15caa4f3e7b50dd"
      ],
      "is_coinbase": false,
      "sequence": 4261412863
    }
  ],
  "vout": [
    {
      "scriptpubkey": "00147a665de7a370f4c9b372ab1fae587500a5bcbdb4",
      "scriptpubkey_asm": "OP_0 OP_PUSHBYTES_20 7a665de7a370f4c9b372ab1fae587500a5bcbdb4",
      "scriptpubkey_type": "v0_p2wpkh",
      "scriptpubkey_address": "bc1q0fn9mearwr6vnvmj4v06ukr4qzjme0d565dzcx",
      "value": 294
    }
  ],
  "size": 294,
  "weight": 540,
  "fee": 1512,
  "status": {
    "confirmed": true,
    "block_height": 834460,
    "block_hash": "00000000000000000000484a79b643b2524bbce82e5d8a442013fa5b8905ed98",
    "block_time": 1710307468
  },
  "hex": "02000000000101643321469295d0c73f0634e20c357937dd113ace04293f2a58cb9a8600bac3ac2800000000fffffffd0126010000000000001600147a665de7a370f4c9b372ab1fae587500a5bcbdb4034062307a31e80dc6a6c85a1cc1ca0f3bb5fd76cf16e610af66364930b64a552ed2a65a940927330e2bd01af50e23df60c67e8a7282d8c080731603e08d16f174b76d2030308f89fa4990ed111ed15673319f463efc71adca3e1b27d15caa4f3e7b50ddac0063036f726401010a746578742f706c61696e00357b2270223a226272632d3230222c226f70223a226d696e74222c227469636b223a22646f6765222c22616d74223a2234323030227d6821c030308f89fa4990ed111ed15673319f463efc71adca3e1b27d15caa4f3e7b50dd00000000"
}