{
  "txid": "993908cbcdf6ec292e779dec410b42ee2e5f1e883e422a34af8ed007900e966e",
  "version": 2,
  "locktime": 552120242,
  "vin": [
    {
      "txid": "db7a4b932507fca1c0767297b16e99eb44ab9fe5a306c619c7be9dc52d6f6604",
      "vout": 1,
      "prevout": {
        "scriptpubkey": "0020a2fce51b15e1df31dabd41fb39f2993302c212d92aa83de7c44d47674e24891a",
        "scriptpubkey_asm": "OP_0 OP_PUSHBYTES_32 a2fce51b15e1df31dabd41fb39f2993302c212d92aa83de7c44d47674e24891a",
        "scriptpubkey_type": "v0_p2wsh",
        "scriptpubkey_address": "bc1q5t7w2xc4u80nrk4ag8annu5exvpvyyke925rme7yf4rkwn3y3ydq2wmluz",
        "value": 2000000
      },
      "scriptsig": "",
      "scriptsig_asm": "",
      "witness": [
        "",
        "304402202ff2f56c28a27d86ce6dc00d7bc2020c001bc217dc201233beb25a545f56757c022001990a7763f257de5e2a252ba5b1a3c7166b02cb7a27590419ce63df7c401de001",
        "3045022100e05971d9429d02b8285215691ac9cfdb136b863b78a0ae61450ad32c05acce9302204a502336ef150b1050ce66abbf0b1119c77b520cb2377e3dfb2104660cac375201",
        "522103b56deb81ff10cf352b7de9a4934dbf48ce9ecec6887787aff459599816aac1982103f40139f3b00ae222301d0a04f0ee848ff3e2e9f4a18c3380de6af5b950cb2bb352ae"
      ],
      "is_coinbase": false,
      "sequence": 2156163718,
      "inner_witnessscript_asm": "OP_PUSHNUM_2 OP_PUSHBYTES_33 03b56deb81ff10cf352b7de9a4934dbf48ce9ecec6887787aff459599816aac198 OP_PUSHBYTES_33 03f40139f3b00ae222301d0a04f0ee848ff3e2e9f4a18c3380de6af5b950cb2bb3 OP_PUSHNUM_2 OP_CHECKMULTISIG"
    }
  ],
  "vout": [
    {
      "scriptpubkey": "0020849080797e600dae7f52fe2558b3e12d138cd804d5c00c8168908d428fafc190",
      "scriptpubkey_asm": "OP_0 OP_PUSHBYTES_32 849080797e600dae7f52fe2558b3e12d138cd804d5c00c8168908d428fafc190",
      "scriptpubkey_type": "v0_p2wsh",
      "scriptpubkey_address": "bc1qsjggq7t7vqx6ul6jlcj43vlp95fcekqy6hqqeqtgjzx59ra0cxgqpt8qys",
      "value": 330
    },
    {
      "scriptpubkey": "0020dbea2a92267b0cd924254231e7e5f193f50a9c4166429f52562777d7f8e3a037",
      "scriptpubkey_asm": "OP_0 OP_PUSHBYTES_32 dbea2a92267b0cd924254231e7e5f193f50a9c4166429f52562777d7f8e3a037",
      "scriptpubkey_type": "v0_p2wsh",
      "scriptpubkey_address": "bc1qm04z4y3x0vxdjfp9ggc70e03j06s48zpvepf75jkyama078r5qmswlupjp",
      "value": 330
    },
    {
      "scriptpubkey": "002006580f8b59bcff1326e08a520bf8117528f752c2b2d88fc096d99821b908bb3e",
      "scriptpubkey_asm": "OP_0 OP_PUSHBYTES_32 06580f8b59bcff1326e08a520bf8117528f752c2b2d88fc096d99821b908bb3e",
      "scriptpubkey_type": "v0_p2wsh",
      "scriptpubkey_address": "bc1qqevqlz6ehnl3xfhq3ffqh7q3w550w5kzktvglsykmxvzrwgghvlq6ng24e",
      "value": 995297
    },
    {
      "scriptpubkey": "00209d9b5631b0565b4f8508e20028bf3d6244c22fedb4ce8ee1c0ce9fd17c7c1d32",
      "scriptpubkey_asm": "OP_0 OP_PUSHBYTES_32 9d9b5631b0565b4f8508e20028bf3d6244c22fedb4ce8ee1c0ce9fd17c7c1d32",
      "scriptpubkey_type": "v0_p2wsh",
      "scriptpubkey_address": "bc1qnkd4vvds2ed5lpggugqz30eavfzvytldkn8gacwqe60azlrur5eq7qefup",
      "value": 1001003
    }
  ],
  "size": 444,
  "weight": 1113,
  "fee": 3040,
  "status": {
    "confirmed": true,
    "block_height": 834464,
    "block_hash": "0000000000000000000177a0869a911a2b65c9bdcd5a8bcb02b68f305bee848e",
    "block_time": 1710308296
  },
  "hex": "0200000000010104666f2dc59dbec719c606a3e59fab44eb996eb1977276c0a1fc0725934b7adb010000000086728480044a01000000000000220020849080797e600dae7f52fe2558b3e12d138cd804d5c00c8168908d428fafc1904a01000000000000220020dbea2a92267b0cd924254231e7e5f193f50a9c4166429f52562777d7f8e3a037e12f0f000000000022002006580f8b59bcff1326e08a520bf8117528f752c2b2d88fc096d99821b908bb3e2b460f00000000002200209d9b5631b0565b4f8508e20028bf3d6244c22fedb4ce8ee1c0ce9fd17c7c1d32040047304402202ff2f56c28a27d86ce6dc00d7bc2020c001bc217dc201233beb25a545f56757c022001990a7763f257de5e2a252ba5b1a3c7166b02cb7a27590419ce63df7c401de001483045022100e05971d9429d02b8285215691ac9cfdb136b863b78a0ae61450ad32c05acce9302204a502336ef150b1050ce66abbf0b1119c77b520cb2377e3dfb2104660cac37520147522103b56deb81ff10cf352b7de9a4934dbf48ce9ecec6887787aff459599816aac1982103f40139f3b00ae222301d0a04f0ee848ff3e2e9f4a18c3380de6af5b950cb2bb352aeb2afe820"
}