{
  "txid": "9943a47e446a9057edac23e79f7de354a43008069ea29959938fdb5a29dac095",
  "version": 2,
  "locktime": 834583,
  "vin": [
    {
      "txid": "d4c64b4503e737de8d7a84156a3f6811cd40bd80f1173a2691193ff333039aca",
      "vout": 1,
      "prevout": {
        "scriptpubkey": "0014ebc3d27798c3c8a9d63b0b9b7a8d0c7f6919e4ca",
        "scriptpubkey_asm": "OP_0 OP_PUSHBYTES_20 ebc3d27798c3c8a9d63b0b9b7a8d0c7f6919e4ca",
        "scriptpubkey_type": "v0_p2wpkh",
        "scriptpubkey_address": "bc1qa0payaucc0y2n43mpwdh4rgv0a53nex2kva52l",
        "value": 1459253
      },
      "scriptsig": "",
      "scriptsig_asm": "",
      "witness": [
        "304402202ebdbdef162f163d0febadcdde8c163c38c7baf1da7ca5b73bb222f20d780bbe02201a48deb23429f33957cf0f7174198ebe47b8445eec6fd9a1a089ac06dbc3258201",
        "02cf10a4aa5f42886be593a81ec51ec6f0031e03e4574fecbe5fdada1fdbb3b580"
      ],
      "is_coinbase": false,
      "sequence": 4294967294
    }
  ],
  "vout": [
    {
      "scriptpubkey": "5120a2b116ce61b9b5f66f9f60b2d3307489677cb0dbc7cb3a5c53f134e9bf2fc401",
      "scriptpubkey_asm": "OP_PUSHNUM_1 OP_PUSHBYTES_32 a2b116ce61b9b5f66f9f60b2d3307489677cb0dbc7cb3a5c53f134e9bf2fc401",
      "scriptpubkey_type": "v1_p2tr",
      "scriptpubkey_address": "bc1p52c3dnnphx6lvmulvzedxvr539nhevxmcl9n5hzn7y6wn0e0csqsyaad8z",
      "value": 320100
    },
    {
      "scriptpubkey": "00141cc3ca31d789de9b57fe14c7a8dfb6265e1cd3ea",
      "scriptpubkey_asm": "OP_0 OP_PUSHBYTES_20 1cc3ca31d789de9b57fe14c7a8dfb6265e1cd3ea",
      "scriptpubkey_type": "v0_p2wpkh",
      "scriptpubkey_address": "bc1qrnpu5vwh380fk4l7znr63hakye0pe5l2eenu9h",
      "value": 1135024
    }
  ],
  "size": 234,
  "weight": 609,
  "fee": 4129,
  "status": {
    "confirmed": true,
    "block_height": 834638,
    "block_hash": "000000000000000000025f742c626208ac87e0b7d15054abb4a19ca2d735a54e",
    "block_time": 1710405325
  },
  "hex": "02000000000101ca9a0333f33f1991263a17f180bd40cd11683f6a15847a8dde37e703454bc6d40100000000feffffff0264e2040000000000225120a2b116ce61b9b5f66f9f60b2d3307489677cb0dbc7cb3a5c53f134e9bf2fc401b0511100000000001600141cc3ca31d789de9b57fe14c7a8dfb6265e1cd3ea0247304402202ebdbdef162f163d0febadcdde8c163c38c7baf1da7ca5b73bb222f20d780bbe02201a48deb23429f33957cf0f7174198ebe47b8445eec6fd9a1a089ac06dbc32582012102cf10a4aa5f42886be593a81ec51ec6f0031e03e4574fecbe5fdada1fdbb3b58017bc0c00"
}