{
  "txid": "994d6c7b74cc585b2e168678362e5357f49bcd4c8d054bde8f4d444552617733",
  "version": 2,
  "locktime": 0,
  "vin": [
    {
      "txid": "5f846d283984d01eb9829d816f88218abd33effc15a08222518615da3e5f47c5",
      "vout": 16,
      "prevout": {
        "scriptpubkey": "51209c49f6641fa86915214348309370ad97178e5509f0003d980ca7ad0d4fc1cef0",
        "scriptpubkey_asm": "OP_PUSHNUM_1 OP_PUSHBYTES_32 9c49f6641fa86915214348309370ad97178e5509f0003d980ca7ad0d4fc1cef0",
        "scriptpubkey_type": "v1_p2tr",
        "scriptpubkey_address": "bc1pn3ylveql4p532g2rfqcfxu9djutcu4gf7qqrmxqv57ks6n7pemcqh8a9rm",
        "value": 2862
      },
      "scriptsig": "",
      "scriptsig_asm": "",
      "witness": [
        "6e7647dac06ad664949667ec47e7c57f1c4e051888b1313cb095e51a3fa52a41af4a53cd41d17a9b7ee3f962dab5e1aae76b29db431962d169b6d154045c03fe",
        "208033c82df5d700491ad0a6ef0a4f62bae033df0efacc9bc91afa82ed88317481ac0063036f726401011e6170706c69636174696f6e2f6a736f6e3b636861727365743d7574662d38004cd37b2270223a22706f772d3230222c226f70223a226d696e74222c227469636b223a2250455045222c22616d74223a2231303030222c22736f6c7574696f6e223a22504550453a626331706d6c3973653572666b6c3076393075786c7972667871717a366c34797364637172647371683735656c727133396676647164777139777276736e3a303030303030303030303030303030303030303139393431613561653132383937363539383134343239323533333030353762306461393666336465613163353a3434363332393032383134227d68",
        "c13beca27a4fc825f712a8ee0e92a93b2e9ce7496e1e1c5bfb1b103e51f3be77b5"
      ],
      "is_coinbase": false,
      "sequence": 4294967295
    }
  ],
  "vout": [
    {
      "scriptpubkey": "5120dfcb0cd069b7dec2bf86f906930002d7ea4837001b600bfa99f8c112a58d035c",
      "scriptpubkey_asm": "OP_PUSHNUM_1 OP_PUSHBYTES_32 dfcb0cd069b7dec2bf86f906930002d7ea4837001b600bfa99f8c112a58d035c",
      "scriptpubkey_type": "v1_p2tr",
      "scriptpubkey_address": "bc1pml9se5rfkl0v90uxlyrfxqqz6l4ysdcqrdsqh75elrq39fvdqdwq9wrvsn",
      "value": 546
    }
  ],
  "size": 487,
  "weight": 769,
  "fee": 2316,
  "status": {
    "confirmed": true,
    "block_height": 834460,
    "block_hash": "00000000000000000000484a79b643b2524bbce82e5d8a442013fa5b8905ed98",
    "block_time": 1710307468
  },
  "hex": "02000000000101c5475f3eda1586512282a015fcef33bd8a21886f819d82b91ed08439286d845f1000000000ffffffff012202000000000000225120dfcb0cd069b7dec2bf86f906930002d7ea4837001b600bfa99f8c112a58d035c03406e7647dac06ad664949667ec47e7c57f1c4e051888b1313cb095e51a3fa52a41af4a53cd41d17a9b7ee3f962dab5e1aae76b29db431962d169b6d154045c03fefd2001208033c82df5d700491ad0a6ef0a4f62bae033df0efacc9bc91afa82ed88317481ac0063036f726401011e6170706c69636174696f6e2f6a736f6e3b636861727365743d7574662d38004cd37b2270223a22706f772d3230222c226f70223a226d696e74222c227469636b223a2250455045222c22616d74223a2231303030222c22736f6c7574696f6e223a22504550453a626331706d6c3973653572666b6c3076393075786c7972667871717a366c34797364637172647371683735656c727133396676647164777139777276736e3a303030303030303030303030303030303030303139393431613561653132383937363539383134343239323533333030353762306461393666336465613163353a3434363332393032383134227d6821c13beca27a4fc825f712a8ee0e92a93b2e9ce7496e1e1c5bfb1b103e51f3be77b500000000"
}