{
  "txid": "994fbb34a1f726e620fc60ee59118b9f4ea6bd0d726d3ebb1c65315d2ee84d02",
  "version": 2,
  "locktime": 0,
  "vin": [
    {
      "txid": "63b197c6c58bf5e8003a602b58e6f371c8bccef8e90a9571b2e0a5c339a7ccc1",
      "vout": 0,
      "prevout": {
        "scriptpubkey": "51209b7135eb6dd91a9f4e8ddc1b3b1328b4a4e35b5cf9eccfdacfd907ff901b3638",
        "scriptpubkey_asm": "OP_PUSHNUM_1 OP_PUSHBYTES_32 9b7135eb6dd91a9f4e8ddc1b3b1328b4a4e35b5cf9eccfdacfd907ff901b3638",
        "scriptpubkey_type": "v1_p2tr",
        "scriptpubkey_address": "bc1pndcnt6mdmydf7n5dmsdnkyegkjjwxk6ul8kvlkk0myrllyqmxcuq7hgg8d",
        "value": 250000
      },
      "scriptsig": "",
      "scriptsig_asm": "",
      "witness": [
        "bda3d6f0b1f81bcfc72769ab143d9e58a090c17c7f8bc085bae69e142eb4d643363b3102180051c9457ad88994347ad6b64427f5e2341ae3838ab2c9cf1ad1f4"
      ],
      "is_coinbase": false,
      "sequence": 4294967295
    }
  ],
  "vout": [
    {
      "scriptpubkey": "76a914d334967b3e4d0cc2545f7d0fb71000b5ca61a4fc88ac",
      "scriptpubkey_asm": "OP_DUP OP_HASH160 OP_PUSHBYTES_20 d334967b3e4d0cc2545f7d0fb71000b5ca61a4fc OP_EQUALVERIFY OP_CHECKSIG",
      "scriptpubkey_type": "p2pkh",
      "scriptpubkey_address": "1LFkaLq4VePKTNdySsgqgitaT1CNaHUgKC",
      "value": 248470
    }
  ],
  "size": 153,
  "weight": 408,
  "fee": 1530,
  "status": {
    "confirmed": true,
    "block_height": 834638,
    "block_hash": "000000000000000000025f742c626208ac87e0b7d15054abb4a19ca2d735a54e",
    "block_time": 1710405325
  },
  "hex": "02000000000101c1cca739c3a5e0b271950ae9f8cebcc871f3e6582b603a00e8f58bc5c697b1630000000000ffffffff0196ca0300000000001976a914d334967b3e4d0cc2545f7d0fb71000b5ca61a4fc88ac0140bda3d6f0b1f81bcfc72769ab143d9e58a090c17c7f8bc085bae69e142eb4d643363b3102180051c9457ad88994347ad6b64427f5e2341ae3838ab2c9cf1ad1f400000000"
}