{
  "txid": "995873a15b6533d7dbd913f7594e5e07a70b0b3e048cad24d37594982468af77",
  "version": 1,
  "locktime": 0,
  "vin": [
    {
      "txid": "b75d9cea65947a0497961b5fd9401c1f780b6bff1e2e8aa94deaaa3f68804ca4",
      "vout": 1,
      "prevout": {
        "scriptpubkey": "0014ce7d7b57b1b46dbf48f7763fb786dff69b7ba0dd",
        "scriptpubkey_asm": "OP_0 OP_PUSHBYTES_20 ce7d7b57b1b46dbf48f7763fb786dff69b7ba0dd",
        "scriptpubkey_type": "v0_p2wpkh",
        "scriptpubkey_address": "bc1qee7hk4a3k3km7j8hwclm0pkl76dhhgxay5nevu",
        "value": 77838731
      },
      "scriptsig": "",
      "scriptsig_asm": "",
      "witness": [
        "3045022100f940540eab8e534e15990ed5fd80ffd7d64d9df9941305ed94dbbadf37f4c1f402207b6d9b0fdf976c2437ce54d11a2e9cdf0b7253c9cbf13fe308865193a654413801",
        "02fad7ad97fae74fb3f6388fe4b81dbc9460e17ff845dbb6b392f06b4648220a73"
      ],
      "is_coinbase": false,
      "sequence": 4294967295
    }
  ],
  "vout": [
    {
      "scriptpubkey": "a914429f6a02cdc42d68a46aee1df19de7cb30d396a387",
      "scriptpubkey_asm": "OP_HASH160 OP_PUSHBYTES_20 429f6a02cdc42d68a46aee1df19de7cb30d396a3 OP_EQUAL",
      "scriptpubkey_type": "p2sh",
      "scriptpubkey_address": "37mHVVRE7QG1yzeTcyyQvWdFZQh8Hjg6Nv",
      "value": 412000
    },
    {
      "scriptpubkey": "0014ce7d7b57b1b46dbf48f7763fb786dff69b7ba0dd",
      "scriptpubkey_asm": "OP_0 OP_PUSHBYTES_20 ce7d7b57b1b46dbf48f7763fb786dff69b7ba0dd",
      "scriptpubkey_type": "v0_p2wpkh",
      "scriptpubkey_address": "bc1qee7hk4a3k3km7j8hwclm0pkl76dhhgxay5nevu",
      "value": 77424345
    }
  ],
  "size": 224,
  "weight": 566,
  "fee": 2386,
  "status": {
    "confirmed": true,
    "block_height": 834638,
    "block_hash": "000000000000000000025f742c626208ac87e0b7d15054abb4a19ca2d735a54e",
    "block_time": 1710405325
  },
  "hex": "01000000000101a44c80683faaea4da98a2e1eff6b0b781f1c40d95f1b9697047a9465ea9c5db70100000000ffffffff02604906000000000017a914429f6a02cdc42d68a46aee1df19de7cb30d396a387d9669d0400000000160014ce7d7b57b1b46dbf48f7763fb786dff69b7ba0dd02483045022100f940540eab8e534e15990ed5fd80ffd7d64d9df9941305ed94dbbadf37f4c1f402207b6d9b0fdf976c2437ce54d11a2e9cdf0b7253c9cbf13fe308865193a6544138012102fad7ad97fae74fb3f6388fe4b81dbc9460e17ff845dbb6b392f06b4648220a7300000000"
}