{
  "txid": "995894adae1c301c9edfb54e0166db3787444a057b2407a33db046a4ed9a1059",
  "version": 1,
  "locktime": 0,
  "vin": [
    {
      "txid": "81defe761568b7dfadd40396704ac52b6d657598eac818135bffa2a1a25c42e5",
      "vout": 1,
      "prevout": {
        "scriptpubkey": "0014240283de90cf2d848ec1659a1a4f8a9c4bf3245e",
        "scriptpubkey_asm": "OP_0 OP_PUSHBYTES_20 240283de90cf2d848ec1659a1a4f8a9c4bf3245e",
        "scriptpubkey_type": "v0_p2wpkh",
        "scriptpubkey_address": "bc1qyspg8h5seukcfrkpvkdp5nu2n39lxfz7rxyr5z",
        "value": 283735
      },
      "scriptsig": "",
      "scriptsig_asm": "",
      "witness": [
        "304402207455b6d51509b2b0124290ead0c21b0a2631d29c46e3e0730c28498faaacc139022024c27f3fda935345d1c6f5a8d9b877ab794dd24870d7597179f8abfd6030e23f01",
        "027a00dc5ff4b42aa7d8eebb6bb829e856de0c235e4f355ca52891de593cb467d6"
      ],
      "is_coinbase": false,
      "sequence": 4294967295
    }
  ],
  "vout": [
    {
      "scriptpubkey": "001438539cacb41c453d48887ca6008fd52ba1b9f413",
      "scriptpubkey_asm": "OP_0 OP_PUSHBYTES_20 38539cacb41c453d48887ca6008fd52ba1b9f413",
      "scriptpubkey_type": "v0_p2wpkh",
      "scriptpubkey_address": "bc1q8pfeet95r3zn6jyg0jnqpr749wsmnaqnfr4ctq",
      "value": 70000
    },
    {
      "scriptpubkey": "0014240283de90cf2d848ec1659a1a4f8a9c4bf3245e",
      "scriptpubkey_asm": "OP_0 OP_PUSHBYTES_20 240283de90cf2d848ec1659a1a4f8a9c4bf3245e",
      "scriptpubkey_type": "v0_p2wpkh",
      "scriptpubkey_address": "bc1qyspg8h5seukcfrkpvkdp5nu2n39lxfz7rxyr5z",
      "value": 209928
    }
  ],
  "size": 222,
  "weight": 561,
  "fee": 3807,
  "status": {
    "confirmed": true,
    "block_height": 834638,
    "block_hash": "000000000000000000025f742c626208ac87e0b7d15054abb4a19ca2d735a54e",
    "block_time": 1710405325
  },
  "hex": "01000000000101e5425ca2a1a2ff5b1318c8ea9875656d2bc54a709603d4addfb7681576fede810100000000ffffffff02701101000000000016001438539cacb41c453d48887ca6008fd52ba1b9f4130834030000000000160014240283de90cf2d848ec1659a1a4f8a9c4bf3245e0247304402207455b6d51509b2b0124290ead0c21b0a2631d29c46e3e0730c28498faaacc139022024c27f3fda935345d1c6f5a8d9b877ab794dd24870d7597179f8abfd6030e23f0121027a00dc5ff4b42aa7d8eebb6bb829e856de0c235e4f355ca52891de593cb467d600000000"
}