{
  "txid": "996136cb6bacbc6d9b7bcd5483d5936c70204ef686da9e7104df7271178d7737",
  "version": 2,
  "locktime": 0,
  "vin": [
    {
      "txid": "b13bb5512a4904c28a6b7957b88edf574e8cb23551fc1dcfe22d6b239df42cf4",
      "vout": 34,
      "prevout": {
        "scriptpubkey": "51203e8fd8421a1469b83d74a8020d8aa2eca6663a0be9b488460bede7c5303e9ec0",
        "scriptpubkey_asm": "OP_PUSHNUM_1 OP_PUSHBYTES_32 3e8fd8421a1469b83d74a8020d8aa2eca6663a0be9b488460bede7c5303e9ec0",
        "scriptpubkey_type": "v1_p2tr",
        "scriptpubkey_address": "bc1p868asss6z35ms0t54qpqmz4zajnxvwstax6gs3stahnu2vp7nmqqh3knpa",
        "value": 2575
      },
      "scriptsig": "",
      "scriptsig_asm": "",
      "witness": [
        "39f1387bf69a552a5256bac68b2a1757faba3d7830d6c1c83940a24722f628f700e2430d1e271aebfa321c9df885cdbd4c48bf28b16748c4f50422900ababe70",
        "20e6e90d6803c35f1a9fd7d82d7c11a7f6cd2b0769df10b03a9bea99318746328aac0063036f726401010a746578742f706c61696e00367b2270223a226272632d3230222c226f70223a226d696e74222c227469636b223a2261616161222c22616d74223a223130303030227d68",
        "c1e6e90d6803c35f1a9fd7d82d7c11a7f6cd2b0769df10b03a9bea99318746328a"
      ],
      "is_coinbase": false,
      "sequence": 4261412863
    }
  ],
  "vout": [
    {
      "scriptpubkey": "0014ce0b5aa0dac72397a8aa5a85d90a2cfb46f0f630",
      "scriptpubkey_asm": "OP_0 OP_PUSHBYTES_20 ce0b5aa0dac72397a8aa5a85d90a2cfb46f0f630",
      "scriptpubkey_type": "v0_p2wpkh",
      "scriptpubkey_address": "bc1qec944gx6cu3e0292t2zajz3vldr0pa3sh356d9",
      "value": 546
    }
  ],
  "size": 295,
  "weight": 541,
  "fee": 2029,
  "status": {
    "confirmed": true,
    "block_height": 834464,
    "block_hash": "0000000000000000000177a0869a911a2b65c9bdcd5a8bcb02b68f305bee848e",
    "block_time": 1710308296
  },
  "hex": "02000000000101f42cf49d236b2de2cf1dfc5135b28c4e57df8eb857796b8ac204492a51b53bb12200000000fffffffd012202000000000000160014ce0b5aa0dac72397a8aa5a85d90a2cfb46f0f630034039f1387bf69a552a5256bac68b2a1757faba3d7830d6c1c83940a24722f628f700e2430d1e271aebfa321c9df885cdbd4c48bf28b16748c4f50422900ababe706e20e6e90d6803c35f1a9fd7d82d7c11a7f6cd2b0769df10b03a9bea99318746328aac0063036f726401010a746578742f706c61696e00367b2270223a226272632d3230222c226f70223a226d696e74222c227469636b223a2261616161222c22616d74223a223130303030227d6821c1e6e90d6803c35f1a9fd7d82d7c11a7f6cd2b0769df10b03a9bea99318746328a00000000"
}