{
  "txid": "997c11c9d0e3a5f6f3ff9c65b2d4457458862692215a343833120699271befb4",
  "version": 2,
  "locktime": 0,
  "vin": [
    {
      "txid": "bbc3dba8d1aa63c9da777b6bfe06444bbc8df6411c60424fc30245439a432524",
      "vout": 0,
      "prevout": {
        "scriptpubkey": "51201595540b99795d054b1228f86eb6c7faed8f958c62d9fdefa46b14597bcbeb50",
        "scriptpubkey_asm": "OP_PUSHNUM_1 OP_PUSHBYTES_32 1595540b99795d054b1228f86eb6c7faed8f958c62d9fdefa46b14597bcbeb50",
        "scriptpubkey_type": "v1_p2tr",
        "scriptpubkey_address": "bc1pzk24gzue09ws2jcj9ruxadk8ltkcl9vvvtvlmmaydv29j77tadgq9kku7k",
        "value": 5000
      },
      "scriptsig": "",
      "scriptsig_asm": "",
      "witness": [
        "4be164768c58fd4dffcab5d4045642eb5a1457c66891c1780e64bc0ccf45fb1089875fb44e3ff442cb835b89c34b4f34c47735cc693c3556827133879b5e03b6",
        "20a5167d89401b72e4c8bf55b7babd84d6bdf2de11b1f9890c498a78a009e014b4ac0063036f7264010118746578742f706c61696e3b636861727365743d7574662d38003a7b2270223a226272632d3230222c226f70223a227472616e73666572222c227469636b223a224e4f4f54222c22616d74223a223230303030227d68",
        "c054d94a81a97ad413b017a9d2c91b24b7c9527cceb9a1bc9c4f1a3dd784407e47"
      ],
      "is_coinbase": false,
      "sequence": 4294967293
    }
  ],
  "vout": [
    {
      "scriptpubkey": "51203afd8dbcc665606b881b87f2a0bc5c1ccfde64f8b05b713453b42ddb1cfd9930",
      "scriptpubkey_asm": "OP_PUSHNUM_1 OP_PUSHBYTES_32 3afd8dbcc665606b881b87f2a0bc5c1ccfde64f8b05b713453b42ddb1cfd9930",
      "scriptpubkey_type": "v1_p2tr",
      "scriptpubkey_address": "bc1p8t7cm0xxv4sxhzqmsle2p0zurn8aue8ckpdhzdznkskak88anycqm2gu5u",
      "value": 330
    },
    {
      "scriptpubkey": "0014cc0a042b783a3a66bbd7d011f7288558f38d82a3",
      "scriptpubkey_asm": "OP_0 OP_PUSHBYTES_20 cc0a042b783a3a66bbd7d011f7288558f38d82a3",
      "scriptpubkey_type": "v0_p2wpkh",
      "scriptpubkey_address": "bc1qes9qg2mc8gaxdw7h6qglw2y9trecmq4r3kcwps",
      "value": 1925
    }
  ],
  "size": 356,
  "weight": 731,
  "fee": 2745,
  "status": {
    "confirmed": true,
    "block_height": 834638,
    "block_hash": "000000000000000000025f742c626208ac87e0b7d15054abb4a19ca2d735a54e",
    "block_time": 1710405325
  },
  "hex": "020000000001012425439a434502c34f42601c41f68dbc4b4406fe6b7b77dac963aad1a8dbc3bb0000000000fdffffff024a010000000000002251203afd8dbcc665606b881b87f2a0bc5c1ccfde64f8b05b713453b42ddb1cfd99308507000000000000160014cc0a042b783a3a66bbd7d011f7288558f38d82a303404be164768c58fd4dffcab5d4045642eb5a1457c66891c1780e64bc0ccf45fb1089875fb44e3ff442cb835b89c34b4f34c47735cc693c3556827133879b5e03b68020a5167d89401b72e4c8bf55b7babd84d6bdf2de11b1f9890c498a78a009e014b4ac0063036f7264010118746578742f706c61696e3b636861727365743d7574662d38003a7b2270223a226272632d3230222c226f70223a227472616e73666572222c227469636b223a224e4f4f54222c22616d74223a223230303030227d6821c054d94a81a97ad413b017a9d2c91b24b7c9527cceb9a1bc9c4f1a3dd784407e4700000000"
}