{
  "txid": "997e1901d513430719c2c96643cfbf5cd32e80eba160122cab14f36c7cc0e4dc",
  "version": 1,
  "locktime": 0,
  "vin": [
    {
      "txid": "168f7693dd9aa4c9caadc4ef42120e97ef093f03a972ec5ad9cc3175ba115d4e",
      "vout": 1,
      "prevout": {
        "scriptpubkey": "001456df7840899ce1b643f095592f8f667d139a48e0",
        "scriptpubkey_asm": "OP_0 OP_PUSHBYTES_20 56df7840899ce1b643f095592f8f667d139a48e0",
        "scriptpubkey_type": "v0_p2wpkh",
        "scriptpubkey_address": "bc1q2m0hssyfnnsmvslsj4vjlrmx05fe5j8qz406mj",
        "value": 139100
      },
      "scriptsig": "",
      "scriptsig_asm": "",
      "witness": [
        "304402204fc7f74d0f7a1c5b8a01a139089985ac8a672765f4f7cf5551625387e8c9e3820220492b558639304b3300feab6a1010d93fcb346229e807754d6bd3a93892dc929a01",
        "024da050b41f28225b1cff5a3c3b7bd310f73ec3c3c7778c10b1815ee54d844e3d"
      ],
      "is_coinbase": false,
      "sequence": 4294967295
    }
  ],
  "vout": [
    {
      "scriptpubkey": "001484b60852d7bce00512fb809b6df2f5cac65b3c5e",
      "scriptpubkey_asm": "OP_0 OP_PUSHBYTES_20 84b60852d7bce00512fb809b6df2f5cac65b3c5e",
      "scriptpubkey_type": "v0_p2wpkh",
      "scriptpubkey_address": "bc1qsjmqs5khhnsq2yhmszdkmuh4etr9k0z75shp6e",
      "value": 136691
    }
  ],
  "size": 191,
  "weight": 437,
  "fee": 2409,
  "status": {
    "confirmed": true,
    "block_height": 834460,
    "block_hash": "00000000000000000000484a79b643b2524bbce82e5d8a442013fa5b8905ed98",
    "block_time": 1710307468
  },
  "hex": "010000000001014e5d11ba7531ccd95aec72a9033f09ef970e1242efc4adcac9a49add93768f160100000000ffffffff01f31502000000000016001484b60852d7bce00512fb809b6df2f5cac65b3c5e0247304402204fc7f74d0f7a1c5b8a01a139089985ac8a672765f4f7cf5551625387e8c9e3820220492b558639304b3300feab6a1010d93fcb346229e807754d6bd3a93892dc929a0121024da050b41f28225b1cff5a3c3b7bd310f73ec3c3c7778c10b1815ee54d844e3d00000000"
}