{
  "txid": "99806ff619938f6910df77d8861169fb71c676466f21fc697b37613d513c5665",
  "version": 2,
  "locktime": 834628,
  "vin": [
    {
      "txid": "261bb9755e4299510e74b033ea9d2c4484dd200a49681e0fe12875cb9e0f654f",
      "vout": 1,
      "prevout": {
        "scriptpubkey": "0014501d134b4fa73e11b79222bc5f64dd3c688f1d24",
        "scriptpubkey_asm": "OP_0 OP_PUSHBYTES_20 501d134b4fa73e11b79222bc5f64dd3c688f1d24",
        "scriptpubkey_type": "v0_p2wpkh",
        "scriptpubkey_address": "bc1q2qw3xj605ulprdujy2797exa835g78fyqey38a",
        "value": 706162252
      },
      "scriptsig": "",
      "scriptsig_asm": "",
      "witness": [
        "3044022065cdc5a36511f4ec0cf0761e822d1c3cf0221b4f338075774c92a2bd62ac680b022062824d6931fba19c05325b9115e1ea3284ef47b4222f02ef7249680e6609c00b01",
        "02dc5e199e265027fc90723a3ba98fa40972eda95c5c4630bf6d5728a2b34119a0"
      ],
      "is_coinbase": false,
      "sequence": 4294967294
    }
  ],
  "vout": [
    {
      "scriptpubkey": "a9149abaadf87c801b7e9ed95c13bbfaaf5744c10f8e87",
      "scriptpubkey_asm": "OP_HASH160 OP_PUSHBYTES_20 9abaadf87c801b7e9ed95c13bbfaaf5744c10f8e OP_EQUAL",
      "scriptpubkey_type": "p2sh",
      "scriptpubkey_address": "3Fo9covG271t95xKrTAsbDMwBvFcQU7XY1",
      "value": 206500
    },
    {
      "scriptpubkey": "0014598908079dac0596b2bbe232fc9b4e6db2ccef28",
      "scriptpubkey_asm": "OP_0 OP_PUSHBYTES_20 598908079dac0596b2bbe232fc9b4e6db2ccef28",
      "scriptpubkey_type": "v0_p2wpkh",
      "scriptpubkey_address": "bc1qtxysspua4szedv4muge0ex6wdkevemeg8nkj95",
      "value": 705952272
    }
  ],
  "size": 223,
  "weight": 565,
  "fee": 3480,
  "status": {
    "confirmed": true,
    "block_height": 834638,
    "block_hash": "000000000000000000025f742c626208ac87e0b7d15054abb4a19ca2d735a54e",
    "block_time": 1710405325
  },
  "hex": "020000000001014f650f9ecb7528e10f1e68490a20dd84442c9dea33b0740e5199425e75b91b260100000000feffffff02a42603000000000017a9149abaadf87c801b7e9ed95c13bbfaaf5744c10f8e8710fa132a00000000160014598908079dac0596b2bbe232fc9b4e6db2ccef2802473044022065cdc5a36511f4ec0cf0761e822d1c3cf0221b4f338075774c92a2bd62ac680b022062824d6931fba19c05325b9115e1ea3284ef47b4222f02ef7249680e6609c00b012102dc5e199e265027fc90723a3ba98fa40972eda95c5c4630bf6d5728a2b34119a044bc0c00"
}