{
  "txid": "999797c6c679f4a0efb213fad56220df3ce9e06184559655930af3243da3a0f0",
  "version": 2,
  "locktime": 0,
  "vin": [
    {
      "txid": "a4065e31e65b7d0b2196608e5dd17a40bfa090240379a982a202e3826aa55d19",
      "vout": 1,
      "prevout": {
        "scriptpubkey": "0014abe85fbed433dfc4c8576978a8359e4cec3c426f",
        "scriptpubkey_asm": "OP_0 OP_PUSHBYTES_20 abe85fbed433dfc4c8576978a8359e4cec3c426f",
        "scriptpubkey_type": "v0_p2wpkh",
        "scriptpubkey_address": "bc1q4059l0k5x00ufjzhd9u2sdv7fnkrcsn0gc7277",
        "value": 171248931
      },
      "scriptsig": "",
      "scriptsig_asm": "",
      "witness": [
        "3045022100d31dd88eface2900bd26763a4b228abc5cc5570b4e46b864c6ead1fe42f66d4e02203f9172cc6392c118d851b917a19815ae525d06da343c0b5b26f74ae1321d0af301",
        "02144d7b516e3ee7ba58f296294b3979b799e34dd0ff53d4713a41100057445182"
      ],
      "is_coinbase": false,
      "sequence": 4294967295
    }
  ],
  "vout": [
    {
      "scriptpubkey": "a9142e59e9aa2de242c47aefcec117347fa11023d31987",
      "scriptpubkey_asm": "OP_HASH160 OP_PUSHBYTES_20 2e59e9aa2de242c47aefcec117347fa11023d319 OP_EQUAL",
      "scriptpubkey_type": "p2sh",
      "scriptpubkey_address": "35v6iceyBUjr11yyS942ZdFMi5RGgydMA3",
      "value": 1428506
    },
    {
      "scriptpubkey": "0014e712aba11fd915dbbeb0e95f88063caa9b91c51c",
      "scriptpubkey_asm": "OP_0 OP_PUSHBYTES_20 e712aba11fd915dbbeb0e95f88063caa9b91c51c",
      "scriptpubkey_type": "v0_p2wpkh",
      "scriptpubkey_address": "bc1quuf2hgglmy2ah04sa90csp3u42der3guewergt",
      "value": 169818313
    }
  ],
  "size": 224,
  "weight": 566,
  "fee": 2112,
  "status": {
    "confirmed": true,
    "block_height": 834638,
    "block_hash": "000000000000000000025f742c626208ac87e0b7d15054abb4a19ca2d735a54e",
    "block_time": 1710405325
  },
  "hex": "02000000000101195da56a82e302a282a979032490a0bf407ad15d8e6096210b7d5be6315e06a40100000000ffffffff021acc15000000000017a9142e59e9aa2de242c47aefcec117347fa11023d31987c9381f0a00000000160014e712aba11fd915dbbeb0e95f88063caa9b91c51c02483045022100d31dd88eface2900bd26763a4b228abc5cc5570b4e46b864c6ead1fe42f66d4e02203f9172cc6392c118d851b917a19815ae525d06da343c0b5b26f74ae1321d0af3012102144d7b516e3ee7ba58f296294b3979b799e34dd0ff53d4713a4110005744518200000000"
}