{
  "txid": "999ce914759938bba3a53879c0f20ca0942032b55763d4c326d823f93f7232d6",
  "version": 1,
  "locktime": 0,
  "vin": [
    {
      "txid": "1ec355cda7203d797b1765948ab00bca9d915a4408533fc316ff141293fbeb3b",
      "vout": 0,
      "prevout": {
        "scriptpubkey": "51208273246f427d5a556586face7e975314f0beaf85671bc75df10d81fdb8ac0fe3",
        "scriptpubkey_asm": "OP_PUSHNUM_1 OP_PUSHBYTES_32 8273246f427d5a556586face7e975314f0beaf85671bc75df10d81fdb8ac0fe3",
        "scriptpubkey_type": "v1_p2tr",
        "scriptpubkey_address": "bc1psfejgm6z04d92evxlt88a96nznctatu9vuduwh03pkqlmw9vpl3sw5k8x9",
        "value": 2713
      },
      "scriptsig": "",
      "scriptsig_asm": "",
      "witness": [
        "cb051729e81ea92bbc21c346979507ee451a5342d8e18bd87cac433f5818d3df1e84f3d577a6ec94ea34a2b7e6b1f71d79ce11f0b9c45f5407d6d927a0ca5d3083",
        "20be11f1d0580232188e877ef283eb5a1efd4e9e5290a2633605d666f59ad3fff2ac00630461746f6d03646d742da16461726773a36b6d696e745f7469636b657264646f6765656e6f6e63651a0081fdb66474696d651a65f10d4d68",
        "c1be11f1d0580232188e877ef283eb5a1efd4e9e5290a2633605d666f59ad3fff2"
      ],
      "is_coinbase": false,
      "sequence": 4294967293
    }
  ],
  "vout": [
    {
      "scriptpubkey": "51202cf3cfe57a56e55f9d66b8c9313e1283f273548520643be2519b18235a4815e8",
      "scriptpubkey_asm": "OP_PUSHNUM_1 OP_PUSHBYTES_32 2cf3cfe57a56e55f9d66b8c9313e1283f273548520643be2519b18235a4815e8",
      "scriptpubkey_type": "v1_p2tr",
      "scriptpubkey_address": "bc1p9neulet62mj4l8txhrynz0sjs0e8x4y9ypjrhcj3nvvzxkjgzh5qsrxgx5",
      "value": 1000
    }
  ],
  "size": 290,
  "weight": 572,
  "fee": 1713,
  "status": {
    "confirmed": true,
    "block_height": 834460,
    "block_hash": "00000000000000000000484a79b643b2524bbce82e5d8a442013fa5b8905ed98",
    "block_time": 1710307468
  },
  "hex": "010000000001013bebfb931214ff16c33f5308445a919dca0bb08a9465177b793d20a7cd55c31e0000000000fdffffff01e8030000000000002251202cf3cfe57a56e55f9d66b8c9313e1283f273548520643be2519b18235a4815e80341cb051729e81ea92bbc21c346979507ee451a5342d8e18bd87cac433f5818d3df1e84f3d577a6ec94ea34a2b7e6b1f71d79ce11f0b9c45f5407d6d927a0ca5d30835c20be11f1d0580232188e877ef283eb5a1efd4e9e5290a2633605d666f59ad3fff2ac00630461746f6d03646d742da16461726773a36b6d696e745f7469636b657264646f6765656e6f6e63651a0081fdb66474696d651a65f10d4d6821c1be11f1d0580232188e877ef283eb5a1efd4e9e5290a2633605d666f59ad3fff200000000"
}