{
  "txid": "99a7ffd8ba311c34e0bbed88614263d20c5f7627048c2765173ef773fbd62ad7",
  "version": 2,
  "locktime": 0,
  "vin": [
    {
      "txid": "acc3ba00869acb582a3f2904ce3a11dd3779350ce234063fc7d0959246213364",
      "vout": 177,
      "prevout": {
        "scriptpubkey": "5120009c7fa88387841af9d3e260e9dacf6e98befed2b04b017a9325aabfacb4a2be",
        "scriptpubkey_asm": "OP_PUSHNUM_1 OP_PUSHBYTES_32 009c7fa88387841af9d3e260e9dacf6e98befed2b04b017a9325aabfacb4a2be",
        "scriptpubkey_type": "v1_p2tr",
        "scriptpubkey_address": "bc1pqzw8l2yrs7zp47wnufswnkk0d6vtalkjkp9sz75nyk4tlt9552lqkdn532",
        "value": 1806
      },
      "scriptsig": "",
      "scriptsig_asm": "",
      "witness": [
        "bed0bdf6c062b7784e9c23156fc0800838b6e80bb83e1b9d3bf14253d2977bdd6cfdc9e2e1267e6a297396891fbb4d4c8a5646ba0c53aa49d9ab23bffa4e32d1",
        "20b9f3361ded1f2cd8f50def200f38c10c13abf067c7d9eb7a45253f6a347a4c53ac0063036f726401010a746578742f706c61696e00357b2270223a226272632d3230222c226f70223a226d696e74222c227469636b223a22646f6765222c22616d74223a2234323030227d68",
        "c1b9f3361ded1f2cd8f50def200f38c10c13abf067c7d9eb7a45253f6a347a4c53"
      ],
      "is_coinbase": false,
      "sequence": 4261412863
    }
  ],
  "vout": [
    {
      "scriptpubkey": "00147a665de7a370f4c9b372ab1fae587500a5bcbdb4",
      "scriptpubkey_asm": "OP_0 OP_PUSHBYTES_20 7a665de7a370f4c9b372ab1fae587500a5bcbdb4",
      "scriptpubkey_type": "v0_p2wpkh",
      "scriptpubkey_address": "bc1q0fn9mearwr6vnvmj4v06ukr4qzjme0d565dzcx",
      "value": 294
    }
  ],
  "size": 294,
  "weight": 540,
  "fee": 1512,
  "status": {
    "confirmed": true,
    "block_height": 834460,
    "block_hash": "00000000000000000000484a79b643b2524bbce82e5d8a442013fa5b8905ed98",
    "block_time": 1710307468
  },
  "hex": "02000000000101643321469295d0c73f0634e20c357937dd113ace04293f2a58cb9a8600bac3acb100000000fffffffd0126010000000000001600147a665de7a370f4c9b372ab1fae587500a5bcbdb40340bed0bdf6c062b7784e9c23156fc0800838b6e80bb83e1b9d3bf14253d2977bdd6cfdc9e2e1267e6a297396891fbb4d4c8a5646ba0c53aa49d9ab23bffa4e32d16d20b9f3361ded1f2cd8f50def200f38c10c13abf067c7d9eb7a45253f6a347a4c53ac0063036f726401010a746578742f706c61696e00357b2270223a226272632d3230222c226f70223a226d696e74222c227469636b223a22646f6765222c22616d74223a2234323030227d6821c1b9f3361ded1f2cd8f50def200f38c10c13abf067c7d9eb7a45253f6a347a4c5300000000"
}