{
  "txid": "99a941793e680f6b2c5979ca640c1c207b4b65eaf03c6b49878b3598de5ded97",
  "version": 2,
  "locktime": 0,
  "vin": [
    {
      "txid": "ae8443c4be4c2d5d8f639d11432de806ef64542588c50972ebfbf160c2b2f0be",
      "vout": 0,
      "prevout": {
        "scriptpubkey": "00149f5a36fa217d3bb3190b5919400be22fc91df300",
        "scriptpubkey_asm": "OP_0 OP_PUSHBYTES_20 9f5a36fa217d3bb3190b5919400be22fc91df300",
        "scriptpubkey_type": "v0_p2wpkh",
        "scriptpubkey_address": "bc1qnadrd73p05amxxgttyv5qzlz9ly3mucq972qvn",
        "value": 49600
      },
      "scriptsig": "",
      "scriptsig_asm": "",
      "witness": [
        "304402207b1cd53346009632a064f79e172ea68a58797899b2bdc1445e937194f1c91b35022031708f4b58ed32a68860586c5c48e9ea263c357968251836723987b7247376a901",
        "0382e99a6e33c0373bde76db9ce43c3f690f5e5e4bb786bf2b3f3d5313daff8cf4"
      ],
      "is_coinbase": false,
      "sequence": 4294967295
    }
  ],
  "vout": [
    {
      "scriptpubkey": "a914fede679a73697978a3b8201bc243901bbd647d4987",
      "scriptpubkey_asm": "OP_HASH160 OP_PUSHBYTES_20 fede679a73697978a3b8201bc243901bbd647d49 OP_EQUAL",
      "scriptpubkey_type": "p2sh",
      "scriptpubkey_address": "3QvdzDcCsJe2u7usPAoRFNGE7dDgYBy4wT",
      "value": 48062
    }
  ],
  "size": 192,
  "weight": 441,
  "fee": 1538,
  "status": {
    "confirmed": true,
    "block_height": 834460,
    "block_hash": "00000000000000000000484a79b643b2524bbce82e5d8a442013fa5b8905ed98",
    "block_time": 1710307468
  },
  "hex": "02000000000101bef0b2c260f1fbeb7209c588255464ef06e82d43119d638f5d2d4cbec44384ae0000000000ffffffff01bebb00000000000017a914fede679a73697978a3b8201bc243901bbd647d49870247304402207b1cd53346009632a064f79e172ea68a58797899b2bdc1445e937194f1c91b35022031708f4b58ed32a68860586c5c48e9ea263c357968251836723987b7247376a901210382e99a6e33c0373bde76db9ce43c3f690f5e5e4bb786bf2b3f3d5313daff8cf400000000"
}