{
  "txid": "99b7c996f6b884dc5a1752a58aa22fef6dabc3cdf38e04777cc51dd791b55636",
  "version": 2,
  "locktime": 0,
  "vin": [
    {
      "txid": "d0afbf18dddd4c4e1f9f372833d92e463b8bc5f1cc780088213ee261911bcdb3",
      "vout": 8,
      "prevout": {
        "scriptpubkey": "51207b9806a9c10d5e39ae09febdd52e3ad5d615398a2b30a5c0ab109bfb5145bc96",
        "scriptpubkey_asm": "OP_PUSHNUM_1 OP_PUSHBYTES_32 7b9806a9c10d5e39ae09febdd52e3ad5d615398a2b30a5c0ab109bfb5145bc96",
        "scriptpubkey_type": "v1_p2tr",
        "scriptpubkey_address": "bc1p0wvqd2wpp40rntsfl67a2t366htp2wv29vc2ts9tzzdlk529hjtqwfjt2m",
        "value": 911474
      },
      "scriptsig": "",
      "scriptsig_asm": "",
      "witness": [
        "44ff28557183a14ded07504a8e6b48ed353aa1d7babd98fdc0f5de0249b835c70da1024541eda7b47f5b2d0925194b27373ee3e56384a7562cc0b45b32e86f61"
      ],
      "is_coinbase": false,
      "sequence": 4294967295
    }
  ],
  "vout": [
    {
      "scriptpubkey": "51207b9806a9c10d5e39ae09febdd52e3ad5d615398a2b30a5c0ab109bfb5145bc96",
      "scriptpubkey_asm": "OP_PUSHNUM_1 OP_PUSHBYTES_32 7b9806a9c10d5e39ae09febdd52e3ad5d615398a2b30a5c0ab109bfb5145bc96",
      "scriptpubkey_type": "v1_p2tr",
      "scriptpubkey_address": "bc1p0wvqd2wpp40rntsfl67a2t366htp2wv29vc2ts9tzzdlk529hjtqwfjt2m",
      "value": 600
    },
    {
      "scriptpubkey": "51207b9806a9c10d5e39ae09febdd52e3ad5d615398a2b30a5c0ab109bfb5145bc96",
      "scriptpubkey_asm": "OP_PUSHNUM_1 OP_PUSHBYTES_32 7b9806a9c10d5e39ae09febdd52e3ad5d615398a2b30a5c0ab109bfb5145bc96",
      "scriptpubkey_type": "v1_p2tr",
      "scriptpubkey_address": "bc1p0wvqd2wpp40rntsfl67a2t366htp2wv29vc2ts9tzzdlk529hjtqwfjt2m",
      "value": 600
    },
    {
      "scriptpubkey": "51207b9806a9c10d5e39ae09febdd52e3ad5d615398a2b30a5c0ab109bfb5145bc96",
      "scriptpubkey_asm": "OP_PUSHNUM_1 OP_PUSHBYTES_32 7b9806a9c10d5e39ae09febdd52e3ad5d615398a2b30a5c0ab109bfb5145bc96",
      "scriptpubkey_type": "v1_p2tr",
      "scriptpubkey_address": "bc1p0wvqd2wpp40rntsfl67a2t366htp2wv29vc2ts9tzzdlk529hjtqwfjt2m",
      "value": 906925
    }
  ],
  "size": 248,
  "weight": 788,
  "fee": 3349,
  "status": {
    "confirmed": true,
    "block_height": 834638,
    "block_hash": "000000000000000000025f742c626208ac87e0b7d15054abb4a19ca2d735a54e",
    "block_time": 1710405325
  },
  "hex": "02000000000101b3cd1b9161e23e21880078ccf1c58b3b462ed93328379f1f4e4cdddd18bfafd00800000000ffffffff0358020000000000002251207b9806a9c10d5e39ae09febdd52e3ad5d615398a2b30a5c0ab109bfb5145bc9658020000000000002251207b9806a9c10d5e39ae09febdd52e3ad5d615398a2b30a5c0ab109bfb5145bc96add60d00000000002251207b9806a9c10d5e39ae09febdd52e3ad5d615398a2b30a5c0ab109bfb5145bc96014044ff28557183a14ded07504a8e6b48ed353aa1d7babd98fdc0f5de0249b835c70da1024541eda7b47f5b2d0925194b27373ee3e56384a7562cc0b45b32e86f6100000000"
}