{
  "txid": "99bb2172aec03bcb3d54fdad6841214d1309bd720856a96955df4b3efe86012d",
  "version": 2,
  "locktime": 0,
  "vin": [
    {
      "txid": "855a8f6f0bc1fcc76eaf9254265f5051ca76e58f5dc4c1e56661f527512b3304",
      "vout": 1,
      "prevout": {
        "scriptpubkey": "5120fd87954be15be55582750894018488fdc51cbd314e7cb0cab1e66807597f1245",
        "scriptpubkey_asm": "OP_PUSHNUM_1 OP_PUSHBYTES_32 fd87954be15be55582750894018488fdc51cbd314e7cb0cab1e66807597f1245",
        "scriptpubkey_type": "v1_p2tr",
        "scriptpubkey_address": "bc1plkre2jlpt0j4tqn4pz2qrpyglhz3e0f3fe7tpj43ue5qwktlzfzsfgts2s",
        "value": 537582
      },
      "scriptsig": "",
      "scriptsig_asm": "",
      "witness": [
        "b7eaaa94c3232f1993bd5a30448d98f1bc8c9c4ce9c40b7e6e4a46b695702b4e74cb84af0bd0f8007c67d7108feea37a253245cf619449ab648866b015b65859"
      ],
      "is_coinbase": false,
      "sequence": 2147483649
    },
    {
      "txid": "11c1b3dacb656f488ad5b4cd86e081687c988993206bb03a2f6a89349da43d83",
      "vout": 2,
      "prevout": {
        "scriptpubkey": "5120fd87954be15be55582750894018488fdc51cbd314e7cb0cab1e66807597f1245",
        "scriptpubkey_asm": "OP_PUSHNUM_1 OP_PUSHBYTES_32 fd87954be15be55582750894018488fdc51cbd314e7cb0cab1e66807597f1245",
        "scriptpubkey_type": "v1_p2tr",
        "scriptpubkey_address": "bc1plkre2jlpt0j4tqn4pz2qrpyglhz3e0f3fe7tpj43ue5qwktlzfzsfgts2s",
        "value": 537000
      },
      "scriptsig": "",
      "scriptsig_asm": "",
      "witness": [
        "9a11643be8bc8569792b0ad88b382cb1464928d8e583c536f157a8e4dae58cfa8ebadf55234da2d68751168466c20f3eef459e2bd603106e67c0979aa3103d38"
      ],
      "is_coinbase": false,
      "sequence": 2147483649
    },
    {
      "txid": "5c17a596f980eb5f085a6f95ae900c632237562a9e6cbba1071434291f0d5f86",
      "vout": 2,
      "prevout": {
        "scriptpubkey": "5120fd87954be15be55582750894018488fdc51cbd314e7cb0cab1e66807597f1245",
        "scriptpubkey_asm": "OP_PUSHNUM_1 OP_PUSHBYTES_32 fd87954be15be55582750894018488fdc51cbd314e7cb0cab1e66807597f1245",
        "scriptpubkey_type": "v1_p2tr",
        "scriptpubkey_address": "bc1plkre2jlpt0j4tqn4pz2qrpyglhz3e0f3fe7tpj43ue5qwktlzfzsfgts2s",
        "value": 322200
      },
      "scriptsig": "",
      "scriptsig_asm": "",
      "witness": [
        "bb2fa2b93159d18701f90efd02227175879f26d8977de07d354f5331652494dee97f1ffbf2545de2a77e9252aec95ace4353fe5059b385e7e1e309d01d03cc11"
      ],
      "is_coinbase": false,
      "sequence": 2147483649
    }
  ],
  "vout": [
    {
      "scriptpubkey": "a91442338598dab47de178f25616316059b299ffd89b87",
      "scriptpubkey_asm": "OP_HASH160 OP_PUSHBYTES_20 42338598dab47de178f25616316059b299ffd89b OP_EQUAL",
      "scriptpubkey_type": "p2sh",
      "scriptpubkey_address": "37j4F1KoAw3PvVcfqx4Fj3TJ9hxS9oqbng",
      "value": 1370000
    },
    {
      "scriptpubkey": "5120fd87954be15be55582750894018488fdc51cbd314e7cb0cab1e66807597f1245",
      "scriptpubkey_asm": "OP_PUSHNUM_1 OP_PUSHBYTES_32 fd87954be15be55582750894018488fdc51cbd314e7cb0cab1e66807597f1245",
      "scriptpubkey_type": "v1_p2tr",
      "scriptpubkey_address": "bc1plkre2jlpt0j4tqn4pz2qrpyglhz3e0f3fe7tpj43ue5qwktlzfzsfgts2s",
      "value": 22654
    }
  ],
  "size": 408,
  "weight": 1032,
  "fee": 4128,
  "status": {
    "confirmed": true,
    "block_height": 834638,
    "block_hash": "000000000000000000025f742c626208ac87e0b7d15054abb4a19ca2d735a54e",
    "block_time": 1710405325
  },
  "hex": "0200000000010304332b5127f56166e5c1c45d8fe576ca51505f265492af6ec7fcc10b6f8f5a85010000000001000080833da49d34896a2f3ab06b209389987c6881e086cdb4d58a486f65cbdab3c111020000000001000080865f0d1f29341407a1bb6c9e2a563722630c90ae956f5a085feb80f996a5175c0200000000010000800290e714000000000017a91442338598dab47de178f25616316059b299ffd89b877e58000000000000225120fd87954be15be55582750894018488fdc51cbd314e7cb0cab1e66807597f12450140b7eaaa94c3232f1993bd5a30448d98f1bc8c9c4ce9c40b7e6e4a46b695702b4e74cb84af0bd0f8007c67d7108feea37a253245cf619449ab648866b015b6585901409a11643be8bc8569792b0ad88b382cb1464928d8e583c536f157a8e4dae58cfa8ebadf55234da2d68751168466c20f3eef459e2bd603106e67c0979aa3103d380140bb2fa2b93159d18701f90efd02227175879f26d8977de07d354f5331652494dee97f1ffbf2545de2a77e9252aec95ace4353fe5059b385e7e1e309d01d03cc1100000000"
}