{
  "txid": "99bf982da397947eb0999292e909c17c78d884e18d3e59ac03fd2aa7f0241c7e",
  "version": 1,
  "locktime": 0,
  "vin": [
    {
      "txid": "103d6502bdaa9070ce26d2afaa4824e0fa1b42ae0ccfc84ea21a71bdfe4a4994",
      "vout": 1,
      "prevout": {
        "scriptpubkey": "0020701a8d401c84fb13e6baf169d59684e17abd9fa216c8cc5b9fc63d622ff8c58d",
        "scriptpubkey_asm": "OP_0 OP_PUSHBYTES_32 701a8d401c84fb13e6baf169d59684e17abd9fa216c8cc5b9fc63d622ff8c58d",
        "scriptpubkey_type": "v0_p2wsh",
        "scriptpubkey_address": "bc1qwqdg6squsna38e46795at95yu9atm8azzmyvckulcc7kytlcckxswvvzej",
        "value": 200022
      },
      "scriptsig": "",
      "scriptsig_asm": "",
      "witness": [
        "",
        "304402201b314963e8ac239679d32d35918059701d412ad175b6b7a0b2c14e3e64442e6302205ef81d0659594f923632a9a6918172fd0364dd576bfd9d74d5164ceba8d8338701",
        "304402200808889107faab28cc81ab7a85deea2f63d2f293ff8aa06b48afd6675392b8f3022069896675fb9222373276981e203b3723aed5c05b733adc6d891330b23a3c260d01",
        "52210375e00eb72e29da82b89367947f29ef34afb75e8654f6ea368e0acdfd92976b7c2103a1b26313f430c4b15bb1fdce663207659d8cac749a0e53d70eff01874496feff2103c96d495bfdd5ba4145e3e046fee45e84a8a48ad05bd8dbb395c011a32cf9f88053ae"
      ],
      "is_coinbase": false,
      "sequence": 4294967295,
      "inner_witnessscript_asm": "OP_PUSHNUM_2 OP_PUSHBYTES_33 0375e00eb72e29da82b89367947f29ef34afb75e8654f6ea368e0acdfd92976b7c OP_PUSHBYTES_33 03a1b26313f430c4b15bb1fdce663207659d8cac749a0e53d70eff01874496feff OP_PUSHBYTES_33 03c96d495bfdd5ba4145e3e046fee45e84a8a48ad05bd8dbb395c011a32cf9f880 OP_PUSHNUM_3 OP_CHECKMULTISIG"
    },
    {
      "txid": "fd4217cb55f727714b880eb66ed06b6abae53720bf508d0ecb36ee21e72f6f89",
      "vout": 1,
      "prevout": {
        "scriptpubkey": "0020701a8d401c84fb13e6baf169d59684e17abd9fa216c8cc5b9fc63d622ff8c58d",
        "scriptpubkey_asm": "OP_0 OP_PUSHBYTES_32 701a8d401c84fb13e6baf169d59684e17abd9fa216c8cc5b9fc63d622ff8c58d",
        "scriptpubkey_type": "v0_p2wsh",
        "scriptpubkey_address": "bc1qwqdg6squsna38e46795at95yu9atm8azzmyvckulcc7kytlcckxswvvzej",
        "value": 200006
      },
      "scriptsig": "",
      "scriptsig_asm": "",
      "witness": [
        "",
        "3044022039ae81f37206dea68e4154c85e872f17661b83095b4e259d4952ef7a689f83b102206c634e25af9c093f9d77f9ac80b9d50ff19f58ac7bb417760fb9ddf0eabb2e2401",
        "30440220595d927ac1bb60ebfd68201eaee1b9685197b216066aa6b42f82afdd624892dd02203903f5ec77aa6f0aedf8ab6134ee6a92ac9058ba12bbd40bc0f24a59c75337b601",
        "52210375e00eb72e29da82b89367947f29ef34afb75e8654f6ea368e0acdfd92976b7c2103a1b26313f430c4b15bb1fdce663207659d8cac749a0e53d70eff01874496feff2103c96d495bfdd5ba4145e3e046fee45e84a8a48ad05bd8dbb395c011a32cf9f88053ae"
      ],
      "is_coinbase": false,
      "sequence": 4294967295,
      "inner_witnessscript_asm": "OP_PUSHNUM_2 OP_PUSHBYTES_33 0375e00eb72e29da82b89367947f29ef34afb75e8654f6ea368e0acdfd92976b7c OP_PUSHBYTES_33 03a1b26313f430c4b15bb1fdce663207659d8cac749a0e53d70eff01874496feff OP_PUSHBYTES_33 03c96d495bfdd5ba4145e3e046fee45e84a8a48ad05bd8dbb395c011a32cf9f880 OP_PUSHNUM_3 OP_CHECKMULTISIG"
    }
  ],
  "vout": [
    {
      "scriptpubkey": "001482f728db3e19874e169e03470332bdd775fde0b5",
      "scriptpubkey_asm": "OP_0 OP_PUSHBYTES_20 82f728db3e19874e169e03470332bdd775fde0b5",
      "scriptpubkey_type": "v0_p2wpkh",
      "scriptpubkey_address": "bc1qstmj3ke7rxr5u957qdrsxv4a6a6lmc94hggdd5",
      "value": 100000
    },
    {
      "scriptpubkey": "0020701a8d401c84fb13e6baf169d59684e17abd9fa216c8cc5b9fc63d622ff8c58d",
      "scriptpubkey_asm": "OP_0 OP_PUSHBYTES_32 701a8d401c84fb13e6baf169d59684e17abd9fa216c8cc5b9fc63d622ff8c58d",
      "scriptpubkey_type": "v0_p2wsh",
      "scriptpubkey_address": "bc1qwqdg6squsna38e46795at95yu9atm8azzmyvckulcc7kytlcckxswvvzej",
      "value": 210028
    }
  ],
  "size": 672,
  "weight": 1170,
  "fee": 90000,
  "status": {
    "confirmed": true,
    "block_height": 834638,
    "block_hash": "000000000000000000025f742c626208ac87e0b7d15054abb4a19ca2d735a54e",
    "block_time": 1710405325
  },
  "hex": "0100000000010294494afebd711aa24ec8cf0cae421bfae02448aaafd226ce7090aabd02653d100100000000ffffffff896f2fe721ee36cb0e8d50bf2037e5ba6a6bd06eb60e884b7127f755cb1742fd0100000000ffffffff02a08601000000000016001482f728db3e19874e169e03470332bdd775fde0b56c34030000000000220020701a8d401c84fb13e6baf169d59684e17abd9fa216c8cc5b9fc63d622ff8c58d040047304402201b314963e8ac239679d32d35918059701d412ad175b6b7a0b2c14e3e64442e6302205ef81d0659594f923632a9a6918172fd0364dd576bfd9d74d5164ceba8d833870147304402200808889107faab28cc81ab7a85deea2f63d2f293ff8aa06b48afd6675392b8f3022069896675fb9222373276981e203b3723aed5c05b733adc6d891330b23a3c260d016952210375e00eb72e29da82b89367947f29ef34afb75e8654f6ea368e0acdfd92976b7c2103a1b26313f430c4b15bb1fdce663207659d8cac749a0e53d70eff01874496feff2103c96d495bfdd5ba4145e3e046fee45e84a8a48ad05bd8dbb395c011a32cf9f88053ae0400473044022039ae81f37206dea68e4154c85e872f17661b83095b4e259d4952ef7a689f83b102206c634e25af9c093f9d77f9ac80b9d50ff19f58ac7bb417760fb9ddf0eabb2e24014730440220595d927ac1bb60ebfd68201eaee1b9685197b216066aa6b42f82afdd624892dd02203903f5ec77aa6f0aedf8ab6134ee6a92ac9058ba12bbd40bc0f24a59c75337b6016952210375e00eb72e29da82b89367947f29ef34afb75e8654f6ea368e0acdfd92976b7c2103a1b26313f430c4b15bb1fdce663207659d8cac749a0e53d70eff01874496feff2103c96d495bfdd5ba4145e3e046fee45e84a8a48ad05bd8dbb395c011a32cf9f88053ae00000000"
}