{
  "txid": "99c654266f47c0be61f965505b6e903fa0d586a04a743e85399d5a0a83630cb3",
  "version": 1,
  "locktime": 0,
  "vin": [
    {
      "txid": "22f22adf9f743b389ab42bb5afa4f727a131f533ba21e6d8856011503ebe9940",
      "vout": 66,
      "prevout": {
        "scriptpubkey": "0020b313a6035130063726e3d52dc434884929efcb2b894a0b22221eed34293be5bb",
        "scriptpubkey_asm": "OP_0 OP_PUSHBYTES_32 b313a6035130063726e3d52dc434884929efcb2b894a0b22221eed34293be5bb",
        "scriptpubkey_type": "v0_p2wsh",
        "scriptpubkey_address": "bc1qkvf6vq63xqrrwfhr65kugdygfy57ljet399qkg3zrmkng2fmukastdfwvq",
        "value": 1353095
      },
      "scriptsig": "",
      "scriptsig_asm": "",
      "witness": [
        "",
        "3044022041f275da0b5b83e0810aa3a03c945367040ce9bf7f210ac3292ef66bb647546802200bb46b817f4b368f99bdf43647f7a8bfb6e2d5df15d72ea53c70475b93b374dd01",
        "3045022100bbceaaa41bc0a4f7314b258aa71a32706659d169f32edfe24ea4f4625bd15fef0220501f935eb7d062ea14037d9a9ab26f7a41c26ba0996c3f6aaae3ab36c78c1f9501",
        "5221034acdb5678e67fc947489d244811e198d8b621ce595ba8505af8b85cb269a8f67210265cb641c6dff52d1b540ba40445042ef4e573f68033540075dfb1e41e39a511a52ae"
      ],
      "is_coinbase": false,
      "sequence": 4294967295,
      "inner_witnessscript_asm": "OP_PUSHNUM_2 OP_PUSHBYTES_33 034acdb5678e67fc947489d244811e198d8b621ce595ba8505af8b85cb269a8f67 OP_PUSHBYTES_33 0265cb641c6dff52d1b540ba40445042ef4e573f68033540075dfb1e41e39a511a OP_PUSHNUM_2 OP_CHECKMULTISIG"
    }
  ],
  "vout": [
    {
      "scriptpubkey": "5120f8d3db28412593034f49956e795074320f6973f6283fdb7f9645c3ec005d9526",
      "scriptpubkey_asm": "OP_PUSHNUM_1 OP_PUSHBYTES_32 f8d3db28412593034f49956e795074320f6973f6283fdb7f9645c3ec005d9526",
      "scriptpubkey_type": "v1_p2tr",
      "scriptpubkey_address": "bc1plrfak2zpykfsxn6fj4h8j5r5xg8kjulk9qlaklukghp7cqzaj5nq76k72x",
      "value": 1193595
    },
    {
      "scriptpubkey": "0020113c1e785f7f3fa78532d8640b431b48f3a3a1afb5ca4664ed419997149f90c2",
      "scriptpubkey_asm": "OP_0 OP_PUSHBYTES_32 113c1e785f7f3fa78532d8640b431b48f3a3a1afb5ca4664ed419997149f90c2",
      "scriptpubkey_type": "v0_p2wsh",
      "scriptpubkey_address": "bc1qzy7pu7zl0ul60pfjmpjqkscmfre68gd0kh9yve8dgxvew9yljrpqk92eq8",
      "value": 156796
    }
  ],
  "size": 358,
  "weight": 769,
  "fee": 2704,
  "status": {
    "confirmed": true,
    "block_height": 834460,
    "block_hash": "00000000000000000000484a79b643b2524bbce82e5d8a442013fa5b8905ed98",
    "block_time": 1710307468
  },
  "hex": "010000000001014099be3e50116085d8e621ba33f531a127f7a4afb52bb49a383b749fdf2af2224200000000ffffffff027b36120000000000225120f8d3db28412593034f49956e795074320f6973f6283fdb7f9645c3ec005d95267c64020000000000220020113c1e785f7f3fa78532d8640b431b48f3a3a1afb5ca4664ed419997149f90c20400473044022041f275da0b5b83e0810aa3a03c945367040ce9bf7f210ac3292ef66bb647546802200bb46b817f4b368f99bdf43647f7a8bfb6e2d5df15d72ea53c70475b93b374dd01483045022100bbceaaa41bc0a4f7314b258aa71a32706659d169f32edfe24ea4f4625bd15fef0220501f935eb7d062ea14037d9a9ab26f7a41c26ba0996c3f6aaae3ab36c78c1f9501475221034acdb5678e67fc947489d244811e198d8b621ce595ba8505af8b85cb269a8f67210265cb641c6dff52d1b540ba40445042ef4e573f68033540075dfb1e41e39a511a52ae00000000"
}