{
  "txid": "99c93d938649e1dd5d0e6af35ded02d574b60338f3f21aa031b57e3bcd6f9b24",
  "version": 2,
  "locktime": 834637,
  "vin": [
    {
      "txid": "591488bd82502af98b9d1b5142d08e3c214dc7cd318dd4a08c17a7907266edbe",
      "vout": 1,
      "prevout": {
        "scriptpubkey": "0014008e65faca14ec1874a7d2d912a64dd43ea7cb56",
        "scriptpubkey_asm": "OP_0 OP_PUSHBYTES_20 008e65faca14ec1874a7d2d912a64dd43ea7cb56",
        "scriptpubkey_type": "v0_p2wpkh",
        "scriptpubkey_address": "bc1qqz8xt7k2znkpsa986tv39fjd6sl20j6kz9fep3",
        "value": 50600781
      },
      "scriptsig": "",
      "scriptsig_asm": "",
      "witness": [
        "304402207b4fabafafab8c2f4247a300931882fbe9190a2ffb80c6d681b8c3b6fd3b33de022004268636c9a1dc23b35c3c5ccd31c45b67353c83e2fa91a7985cbf3617baab8201",
        "0397d16219c59315ed886ac763791e132225f77f2fc4a74aac13368fcd3ceb6ee8"
      ],
      "is_coinbase": false,
      "sequence": 4294967293
    }
  ],
  "vout": [
    {
      "scriptpubkey": "a9146e6c3ae07cc8871d6065dd5e883dff5a46b90efe87",
      "scriptpubkey_asm": "OP_HASH160 OP_PUSHBYTES_20 6e6c3ae07cc8871d6065dd5e883dff5a46b90efe OP_EQUAL",
      "scriptpubkey_type": "p2sh",
      "scriptpubkey_address": "3BksubYrfFxgnaXQmc3bipy6wkWvdyfoa7",
      "value": 42980000
    },
    {
      "scriptpubkey": "00141f056c06eff4a632a04ba88ed71a58f652a433b8",
      "scriptpubkey_asm": "OP_0 OP_PUSHBYTES_20 1f056c06eff4a632a04ba88ed71a58f652a433b8",
      "scriptpubkey_type": "v0_p2wpkh",
      "scriptpubkey_address": "bc1qruzkcph07jnr9gzt4z8dwxjc7ef2gvac5qa779",
      "value": 7616372
    }
  ],
  "size": 223,
  "weight": 565,
  "fee": 4409,
  "status": {
    "confirmed": true,
    "block_height": 834638,
    "block_hash": "000000000000000000025f742c626208ac87e0b7d15054abb4a19ca2d735a54e",
    "block_time": 1710405325
  },
  "hex": "02000000000101beed667290a7178ca0d48d31cdc74d213c8ed042511b9d8bf92a5082bd8814590100000000fdffffff02a0d28f020000000017a9146e6c3ae07cc8871d6065dd5e883dff5a46b90efe8774377400000000001600141f056c06eff4a632a04ba88ed71a58f652a433b80247304402207b4fabafafab8c2f4247a300931882fbe9190a2ffb80c6d681b8c3b6fd3b33de022004268636c9a1dc23b35c3c5ccd31c45b67353c83e2fa91a7985cbf3617baab8201210397d16219c59315ed886ac763791e132225f77f2fc4a74aac13368fcd3ceb6ee84dbc0c00"
}