{
  "txid": "99caac952114658b7346bb27358582bccaa3ab9f24543ee981742a0439ee29f0",
  "version": 2,
  "locktime": 0,
  "vin": [
    {
      "txid": "b26428825e0aff09530b3205235110e1af2e42b1f6e24516e0f2599ba569072b",
      "vout": 2,
      "prevout": {
        "scriptpubkey": "0014f9e463cdcd44d0406beded4f4bbfffb559bc221f",
        "scriptpubkey_asm": "OP_0 OP_PUSHBYTES_20 f9e463cdcd44d0406beded4f4bbfffb559bc221f",
        "scriptpubkey_type": "v0_p2wpkh",
        "scriptpubkey_address": "bc1ql8jx8nwdgngyq6lda485h0llk4vmcgslz0yuww",
        "value": 516373
      },
      "scriptsig": "",
      "scriptsig_asm": "",
      "witness": [
        "3045022100cd083fddde7851d1e1e08b3a31013440efc3062709bf32cd959af00ea8ad0313022075826958e469e03f03eff97d7a16a54d494f9a380194ef9e843d4a5b8288c34101",
        "020336f44dafbe5ef2af5a7df26c93202d4ca5730a06ba8910eba495eec898b081"
      ],
      "is_coinbase": false,
      "sequence": 4294967295
    },
    {
      "txid": "ea6349b5cd76884da24798712a0f6f6f67ec6ee6d3996ea4d7f12eb71d231596",
      "vout": 0,
      "prevout": {
        "scriptpubkey": "0014f3640b8cc03b60a95337d066897e5bbbaf4b336e",
        "scriptpubkey_asm": "OP_0 OP_PUSHBYTES_20 f3640b8cc03b60a95337d066897e5bbbaf4b336e",
        "scriptpubkey_type": "v0_p2wpkh",
        "scriptpubkey_address": "bc1q7djqhrxq8ds2j5eh6pngjljmhwh5kvmwn4xq86",
        "value": 183000
      },
      "scriptsig": "",
      "scriptsig_asm": "",
      "witness": [
        "30440220557dd89454a27b2af56a5a22c2990b2568df724d701f1cd2fbba7d21fea94d9d02201d31e3455f8fa955e60ea51add6eccafa44a7065e7c9d35f7717142dfa615d6601",
        "03e2549b4191ed327f97d7bb25864dfac3931363947d03888008a89de736ac993f"
      ],
      "is_coinbase": false,
      "sequence": 4294967295
    }
  ],
  "vout": [
    {
      "scriptpubkey": "a9140bdc468bfbe2e1ce9adf9a6c9e23d7103ef4181287",
      "scriptpubkey_asm": "OP_HASH160 OP_PUSHBYTES_20 0bdc468bfbe2e1ce9adf9a6c9e23d7103ef41812 OP_EQUAL",
      "scriptpubkey_type": "p2sh",
      "scriptpubkey_address": "32mjEfkwAoRGNbUUSywoMCRLoswVHcA7kU",
      "value": 681779
    },
    {
      "scriptpubkey": "001449b7c270a9959a83e9e613c4b613f06e71119066",
      "scriptpubkey_asm": "OP_0 OP_PUSHBYTES_20 49b7c270a9959a83e9e613c4b613f06e71119066",
      "scriptpubkey_type": "v0_p2wpkh",
      "scriptpubkey_address": "bc1qfxmuyu9fjkdg860xz0ztvylsdec3ryrxqdd69e",
      "value": 13832
    }
  ],
  "size": 372,
  "weight": 837,
  "fee": 3762,
  "status": {
    "confirmed": true,
    "block_height": 834638,
    "block_hash": "000000000000000000025f742c626208ac87e0b7d15054abb4a19ca2d735a54e",
    "block_time": 1710405325
  },
  "hex": "020000000001022b0769a59b59f2e01645e2f6b1422eafe110512305320b5309ff0a5e822864b20200000000ffffffff9615231db72ef1d7a46e99d3e66eec676f6f0f2a719847a24d8876cdb54963ea0000000000ffffffff0233670a000000000017a9140bdc468bfbe2e1ce9adf9a6c9e23d7103ef4181287083600000000000016001449b7c270a9959a83e9e613c4b613f06e7111906602483045022100cd083fddde7851d1e1e08b3a31013440efc3062709bf32cd959af00ea8ad0313022075826958e469e03f03eff97d7a16a54d494f9a380194ef9e843d4a5b8288c3410121020336f44dafbe5ef2af5a7df26c93202d4ca5730a06ba8910eba495eec898b081024730440220557dd89454a27b2af56a5a22c2990b2568df724d701f1cd2fbba7d21fea94d9d02201d31e3455f8fa955e60ea51add6eccafa44a7065e7c9d35f7717142dfa615d66012103e2549b4191ed327f97d7bb25864dfac3931363947d03888008a89de736ac993f00000000"
}