{
  "txid": "99ce519cfbe39d9910bac61c05b13d3b42f8918905df146cc2a6700d528a5b4f",
  "version": 2,
  "locktime": 0,
  "vin": [
    {
      "txid": "3f69fae8ca9bdd774ca5294e86509449f431bb44e2206cae9f7f495b7952d9e2",
      "vout": 22,
      "prevout": {
        "scriptpubkey": "512041a10b117c3ae3e84cee2fc4f62c216e258de9d3f1758787a0220d30f8dd9a0e",
        "scriptpubkey_asm": "OP_PUSHNUM_1 OP_PUSHBYTES_32 41a10b117c3ae3e84cee2fc4f62c216e258de9d3f1758787a0220d30f8dd9a0e",
        "scriptpubkey_type": "v1_p2tr",
        "scriptpubkey_address": "bc1pgxsskytu8t37sn8w9lz0vtppdcjcm6wn796c0paqygxnp7xang8qk0nlkt",
        "value": 2996
      },
      "scriptsig": "",
      "scriptsig_asm": "",
      "witness": [
        "e5539a8189cce3a71c895e21be975ed13f9dbeb5e6778f1c1d132b67455be3d7d159b32e6be1c06b9364f58bc882dabb22cf313834e70e1891c3c6922789b10e",
        "20b2c65153798662846c8893b1b136fa87d65d4c28422256bee32823044356e202ac0063036f726401011e6170706c69636174696f6e2f6a736f6e3b636861727365743d7574662d38004cb77b2270223a22706f772d3230222c226f70223a226d696e74222c227469636b223a2250455045222c22616d74223a2231303030222c22736f6c7574696f6e223a22504550453a334d524d3246744a42504c46315958564766504d33656556746675364446734762623a303030303030303030303030303030303030303139393431613561653132383937363539383134343239323533333030353762306461393666336465613163353a3331303634303335383934227d68",
        "c06b70a06f37e9fa1ff7e7bec8bd1210228b25051d0c17b5264cdd8c73b544f454"
      ],
      "is_coinbase": false,
      "sequence": 4294967295
    }
  ],
  "vout": [
    {
      "scriptpubkey": "a914d86bcd8c487ad519e95c6557e7463d579cce14a287",
      "scriptpubkey_asm": "OP_HASH160 OP_PUSHBYTES_20 d86bcd8c487ad519e95c6557e7463d579cce14a2 OP_EQUAL",
      "scriptpubkey_type": "p2sh",
      "scriptpubkey_address": "3MRM2FtJBPLF1YXVGfPM3eeVtfu6DFsGbb",
      "value": 546
    }
  ],
  "size": 448,
  "weight": 697,
  "fee": 2450,
  "status": {
    "confirmed": true,
    "block_height": 834460,
    "block_hash": "00000000000000000000484a79b643b2524bbce82e5d8a442013fa5b8905ed98",
    "block_time": 1710307468
  },
  "hex": "02000000000101e2d952795b497f9fae6c20e244bb31f4499450864e29a54c77dd9bcae8fa693f1600000000ffffffff01220200000000000017a914d86bcd8c487ad519e95c6557e7463d579cce14a2870340e5539a8189cce3a71c895e21be975ed13f9dbeb5e6778f1c1d132b67455be3d7d159b32e6be1c06b9364f58bc882dabb22cf313834e70e1891c3c6922789b10efd040120b2c65153798662846c8893b1b136fa87d65d4c28422256bee32823044356e202ac0063036f726401011e6170706c69636174696f6e2f6a736f6e3b636861727365743d7574662d38004cb77b2270223a22706f772d3230222c226f70223a226d696e74222c227469636b223a2250455045222c22616d74223a2231303030222c22736f6c7574696f6e223a22504550453a334d524d3246744a42504c46315958564766504d33656556746675364446734762623a303030303030303030303030303030303030303139393431613561653132383937363539383134343239323533333030353762306461393666336465613163353a3331303634303335383934227d6821c06b70a06f37e9fa1ff7e7bec8bd1210228b25051d0c17b5264cdd8c73b544f45400000000"
}