{
  "txid": "99f12bc99f420c60d28263fc8d546f75acd2d7c8cd485e42658dab9f06930fb8",
  "version": 2,
  "locktime": 834637,
  "vin": [
    {
      "txid": "af283b8c1fe2e2a43dcd6992664eb1f1272aba683c9f75aece89bebf5a6a8ba2",
      "vout": 1,
      "prevout": {
        "scriptpubkey": "001416d93d6b0994c4926a254445c5be75054dd3236d",
        "scriptpubkey_asm": "OP_0 OP_PUSHBYTES_20 16d93d6b0994c4926a254445c5be75054dd3236d",
        "scriptpubkey_type": "v0_p2wpkh",
        "scriptpubkey_address": "bc1qzmvn66cfjnzfy639g3zut0n4q4xaxgmdf6ke6f",
        "value": 304782782
      },
      "scriptsig": "",
      "scriptsig_asm": "",
      "witness": [
        "304402201fd9156805da5aab09dd74f5bdfab4323dfaa7911e6e09edb8309e57c2fe947902203bd46a72eb3355516bc1d6b11cbf528e6be30e73c6641cdd6052299ebb010b7e01",
        "02dcfcf477e4c0f135ef9970447bd267a92ed90d1f06c5681d008934ad3ce844bc"
      ],
      "is_coinbase": false,
      "sequence": 4294967294
    }
  ],
  "vout": [
    {
      "scriptpubkey": "00143790590eb213b061b6c0e847f68092cab18e6827",
      "scriptpubkey_asm": "OP_0 OP_PUSHBYTES_20 3790590eb213b061b6c0e847f68092cab18e6827",
      "scriptpubkey_type": "v0_p2wpkh",
      "scriptpubkey_address": "bc1qx7g9jr4jzwcxrdkqaprldqyje2ccu6p8q3ency",
      "value": 5508100
    },
    {
      "scriptpubkey": "0014700a0ab671b38ccf1b0620720d4aab8a7ce74694",
      "scriptpubkey_asm": "OP_0 OP_PUSHBYTES_20 700a0ab671b38ccf1b0620720d4aab8a7ce74694",
      "scriptpubkey_type": "v0_p2wpkh",
      "scriptpubkey_address": "bc1qwq9q4dn3kwxv7xcxypeq6j4t3f7ww355de8fqt",
      "value": 299271226
    }
  ],
  "size": 222,
  "weight": 561,
  "fee": 3456,
  "status": {
    "confirmed": true,
    "block_height": 834638,
    "block_hash": "000000000000000000025f742c626208ac87e0b7d15054abb4a19ca2d735a54e",
    "block_time": 1710405325
  },
  "hex": "02000000000101a28b6a5abfbe89ceae759f3c68ba2a27f1b14e669269cd3da4e2e21f8c3b28af0100000000feffffff02040c5400000000001600143790590eb213b061b6c0e847f68092cab18e68273a84d61100000000160014700a0ab671b38ccf1b0620720d4aab8a7ce746940247304402201fd9156805da5aab09dd74f5bdfab4323dfaa7911e6e09edb8309e57c2fe947902203bd46a72eb3355516bc1d6b11cbf528e6be30e73c6641cdd6052299ebb010b7e012102dcfcf477e4c0f135ef9970447bd267a92ed90d1f06c5681d008934ad3ce844bc4dbc0c00"
}