{
  "txid": "9a08c19ce90878d34fb68fbb19f0f66be2c612a56ecee5e312a6a7ccb70bac88",
  "version": 2,
  "locktime": 0,
  "vin": [
    {
      "txid": "d18256fca1963dd4d3f9f9b7863f6978b867d12d82577e9498b279096a9d1c29",
      "vout": 1,
      "prevout": {
        "scriptpubkey": "001448e54b5b533839a7f6c4b550653fd62d70ece812",
        "scriptpubkey_asm": "OP_0 OP_PUSHBYTES_20 48e54b5b533839a7f6c4b550653fd62d70ece812",
        "scriptpubkey_type": "v0_p2wpkh",
        "scriptpubkey_address": "bc1qfrj5kk6n8qu60akyk4gx207k94cwe6qjrns3tn",
        "value": 170612
      },
      "scriptsig": "",
      "scriptsig_asm": "",
      "witness": [
        "304402207d4755f14f7515322a62387958810ec89e653532bc699de4cc84ab921d95bcab02201c8b47785131e4b09f3236457fd6bc13ed8d492e0cb00b09501af6f05ef080fd01",
        "0206552cc948935e6b10c52da99208a0fefe2f337d0178a48ebc8143b1a3d00aea"
      ],
      "is_coinbase": false,
      "sequence": 4294967293
    }
  ],
  "vout": [
    {
      "scriptpubkey": "a9148d5ce0159753d90d2f696d5b17664d7c09d85a3787",
      "scriptpubkey_asm": "OP_HASH160 OP_PUSHBYTES_20 8d5ce0159753d90d2f696d5b17664d7c09d85a37 OP_EQUAL",
      "scriptpubkey_type": "p2sh",
      "scriptpubkey_address": "3EaUTgZQa3AW1drMMTtRBok2HThhVPnQsa",
      "value": 69433
    },
    {
      "scriptpubkey": "001448e54b5b533839a7f6c4b550653fd62d70ece812",
      "scriptpubkey_asm": "OP_0 OP_PUSHBYTES_20 48e54b5b533839a7f6c4b550653fd62d70ece812",
      "scriptpubkey_type": "v0_p2wpkh",
      "scriptpubkey_address": "bc1qfrj5kk6n8qu60akyk4gx207k94cwe6qjrns3tn",
      "value": 98608
    }
  ],
  "size": 223,
  "weight": 565,
  "fee": 2571,
  "status": {
    "confirmed": true,
    "block_height": 834638,
    "block_hash": "000000000000000000025f742c626208ac87e0b7d15054abb4a19ca2d735a54e",
    "block_time": 1710405325
  },
  "hex": "02000000000101291c9d6a0979b298947e57822dd167b878693f86b7f9f9d3d43d96a1fc5682d10100000000fdffffff02390f01000000000017a9148d5ce0159753d90d2f696d5b17664d7c09d85a3787308101000000000016001448e54b5b533839a7f6c4b550653fd62d70ece8120247304402207d4755f14f7515322a62387958810ec89e653532bc699de4cc84ab921d95bcab02201c8b47785131e4b09f3236457fd6bc13ed8d492e0cb00b09501af6f05ef080fd01210206552cc948935e6b10c52da99208a0fefe2f337d0178a48ebc8143b1a3d00aea00000000"
}