{
  "txid": "9a0eb20e008c91db791295e0e491241e738005679a943463b727b2d4941940a6",
  "version": 2,
  "locktime": 0,
  "vin": [
    {
      "txid": "f6ef0a8e499d7bf54c8a1c2df5bdc4844d54574ac878eeb6ad534e436c0292e2",
      "vout": 0,
      "prevout": {
        "scriptpubkey": "0014e706ae8872da3e33224769cc49a726d4b2a343f5",
        "scriptpubkey_asm": "OP_0 OP_PUSHBYTES_20 e706ae8872da3e33224769cc49a726d4b2a343f5",
        "scriptpubkey_type": "v0_p2wpkh",
        "scriptpubkey_address": "bc1quur2azrjmglrxgj8d8xynfex6je2xsl4prednh",
        "value": 547
      },
      "scriptsig": "",
      "scriptsig_asm": "",
      "witness": [
        "3045022100938f44fa47c371289e95a96781953fa7b0372c447688c585e04fb79541a5e5dd022040da91e3f7b53d1fd5048b7dfa1555d42e4e80288a1a046ee003730554c7ba5f81",
        "021285c40845c5edc476281caedae302545af948287f92a8429ec80d20f970f98f"
      ],
      "is_coinbase": false,
      "sequence": 4294967293
    },
    {
      "txid": "278fe7a833141ed5e770d3f204cf837137243c59b083fa703486785d9be95cb5",
      "vout": 1,
      "prevout": {
        "scriptpubkey": "0014cb32fc83e08c9e2b0cd2652ec493da620dbbade2",
        "scriptpubkey_asm": "OP_0 OP_PUSHBYTES_20 cb32fc83e08c9e2b0cd2652ec493da620dbbade2",
        "scriptpubkey_type": "v0_p2wpkh",
        "scriptpubkey_address": "bc1qeve0eqlq3j0zkrxjv5hvfy76vgxmht0z3j07a0",
        "value": 13378199
      },
      "scriptsig": "",
      "scriptsig_asm": "",
      "witness": [
        "3044022070d3f4870e6e5f3946dba58a0fe9e418cbdedd26cd2ee42e48e4ae402a5425a502201916e93d7a960920b5ea10ed66ef031d729c40da4df0164220962d2a06f696be01",
        "03bb8d7a3c8c3069d71fb0e69c528c82a947978f0cf98ec076afb57e0aa5dce915"
      ],
      "is_coinbase": false,
      "sequence": 4294967293
    }
  ],
  "vout": [
    {
      "scriptpubkey": "00145547d5707de599076e87599f5c54db72918c9a88",
      "scriptpubkey_asm": "OP_0 OP_PUSHBYTES_20 5547d5707de599076e87599f5c54db72918c9a88",
      "scriptpubkey_type": "v0_p2wpkh",
      "scriptpubkey_address": "bc1q24ra2uraukvswm58tx04c4xmw2gcex5gkr07m6",
      "value": 13359960
    },
    {
      "scriptpubkey": "512102061dcf3fe609ebbff2e1da31db1f5532d35430226d5a43bf54dbff29d46295cf21028d18152b8c0953dc791b502dd0b07b162e6359c9f710804cf65cd859c1b814bb2102222222222222222222222222222222222222222222222222222222222222222253ae",
      "scriptpubkey_asm": "OP_PUSHNUM_1 OP_PUSHBYTES_33 02061dcf3fe609ebbff2e1da31db1f5532d35430226d5a43bf54dbff29d46295cf OP_PUSHBYTES_33 028d18152b8c0953dc791b502dd0b07b162e6359c9f710804cf65cd859c1b814bb OP_PUSHBYTES_33 022222222222222222222222222222222222222222222222222222222222222222 OP_PUSHNUM_3 OP_CHECKMULTISIG",
      "scriptpubkey_type": "unknown",
      "value": 796
    },
    {
      "scriptpubkey": "512102cfda51d520537b50df02ae4fee691bb186d1742d6330b74ec2e43a4c5515a0c3210285afd800aa80ca7d4d5f5ae349f792b96555f7d0576b28e6566c5bd40ff120352102222222222222222222222222222222222222222222222222222222222222222253ae",
      "scriptpubkey_asm": "OP_PUSHNUM_1 OP_PUSHBYTES_33 02cfda51d520537b50df02ae4fee691bb186d1742d6330b74ec2e43a4c5515a0c3 OP_PUSHBYTES_33 0285afd800aa80ca7d4d5f5ae349f792b96555f7d0576b28e6566c5bd40ff12035 OP_PUSHBYTES_33 022222222222222222222222222222222222222222222222222222222222222222 OP_PUSHNUM_3 OP_CHECKMULTISIG",
      "scriptpubkey_type": "unknown",
      "value": 796
    },
    {
      "scriptpubkey": "0014e706ae8872da3e33224769cc49a726d4b2a343f5",
      "scriptpubkey_asm": "OP_0 OP_PUSHBYTES_20 e706ae8872da3e33224769cc49a726d4b2a343f5",
      "scriptpubkey_type": "v0_p2wpkh",
      "scriptpubkey_address": "bc1quur2azrjmglrxgj8d8xynfex6je2xsl4prednh",
      "value": 547
    }
  ],
  "size": 599,
  "weight": 1745,
  "fee": 16647,
  "status": {
    "confirmed": true,
    "block_height": 834638,
    "block_hash": "000000000000000000025f742c626208ac87e0b7d15054abb4a19ca2d735a54e",
    "block_time": 1710405325
  },
  "hex": "02000000000102e292026c434e53adb6ee78c84a57544d84c4bdf52d1c8a4cf57b9d498e0aeff60000000000fdffffffb55ce99b5d78863470fa83b0593c24377183cf04f2d370e7d51e1433a8e78f270100000000fdffffff0458dbcb00000000001600145547d5707de599076e87599f5c54db72918c9a881c0300000000000069512102061dcf3fe609ebbff2e1da31db1f5532d35430226d5a43bf54dbff29d46295cf21028d18152b8c0953dc791b502dd0b07b162e6359c9f710804cf65cd859c1b814bb2102222222222222222222222222222222222222222222222222222222222222222253ae1c0300000000000069512102cfda51d520537b50df02ae4fee691bb186d1742d6330b74ec2e43a4c5515a0c3210285afd800aa80ca7d4d5f5ae349f792b96555f7d0576b28e6566c5bd40ff120352102222222222222222222222222222222222222222222222222222222222222222253ae2302000000000000160014e706ae8872da3e33224769cc49a726d4b2a343f502483045022100938f44fa47c371289e95a96781953fa7b0372c447688c585e04fb79541a5e5dd022040da91e3f7b53d1fd5048b7dfa1555d42e4e80288a1a046ee003730554c7ba5f8121021285c40845c5edc476281caedae302545af948287f92a8429ec80d20f970f98f02473044022070d3f4870e6e5f3946dba58a0fe9e418cbdedd26cd2ee42e48e4ae402a5425a502201916e93d7a960920b5ea10ed66ef031d729c40da4df0164220962d2a06f696be012103bb8d7a3c8c3069d71fb0e69c528c82a947978f0cf98ec076afb57e0aa5dce91500000000"
}