{
  "txid": "9a127620b355b8175170213042a6f9b4df3aa1bef4046f6be73e81f6f2694006",
  "version": 2,
  "locktime": 0,
  "vin": [
    {
      "txid": "666f67427e0255853044f0afcca07310c91853d7df33832c6a786a8493f72165",
      "vout": 0,
      "prevout": {
        "scriptpubkey": "51203d015ef02f4c779e48fb9ef17a9ea7cc8b0f5f88d4048c718d6738d8f07d9aa2",
        "scriptpubkey_asm": "OP_PUSHNUM_1 OP_PUSHBYTES_32 3d015ef02f4c779e48fb9ef17a9ea7cc8b0f5f88d4048c718d6738d8f07d9aa2",
        "scriptpubkey_type": "v1_p2tr",
        "scriptpubkey_address": "bc1p85q4aup0f3meuj8mnmch4848ej9s7hug6szgcuvdvuud3uran23qnc3lda",
        "value": 2826
      },
      "scriptsig": "",
      "scriptsig_asm": "",
      "witness": [
        "b469862c34973bec05427f8dabbb513ee74bc0ace99ecf72724bcc6f654d0a0537019a65f36cb6cbef89c11b2446c75ee18cfd39d835cf15274e0cf9d481d955",
        "203114f04670f773396da515b23a743e997eaafd26818f408d68ea9008c86b0869ac0063036f7264010118746578742f706c61696e3b636861727365743d7574662d3800387b2270223a226272632d3230222c226f70223a227472616e73666572222c227469636b223a225a455445222c22616d74223a22393031227d68",
        "c03114f04670f773396da515b23a743e997eaafd26818f408d68ea9008c86b0869"
      ],
      "is_coinbase": false,
      "sequence": 4294967293
    }
  ],
  "vout": [
    {
      "scriptpubkey": "5120c5dfce5660df53f11aaabe82e0c165c5677f2f43cd7274e39bbacd74212c196a",
      "scriptpubkey_asm": "OP_PUSHNUM_1 OP_PUSHBYTES_32 c5dfce5660df53f11aaabe82e0c165c5677f2f43cd7274e39bbacd74212c196a",
      "scriptpubkey_type": "v1_p2tr",
      "scriptpubkey_address": "bc1pch0uu4nqmaflzx42h6pwpst9c4nh7t6re4e8fcumhtxhggfvr94qnyfpew",
      "value": 546
    }
  ],
  "size": 323,
  "weight": 605,
  "fee": 2280,
  "status": {
    "confirmed": true,
    "block_height": 834638,
    "block_hash": "000000000000000000025f742c626208ac87e0b7d15054abb4a19ca2d735a54e",
    "block_time": 1710405325
  },
  "hex": "020000000001016521f793846a786a2c8333dfd75318c91073a0ccaff044308555027e42676f660000000000fdffffff012202000000000000225120c5dfce5660df53f11aaabe82e0c165c5677f2f43cd7274e39bbacd74212c196a0340b469862c34973bec05427f8dabbb513ee74bc0ace99ecf72724bcc6f654d0a0537019a65f36cb6cbef89c11b2446c75ee18cfd39d835cf15274e0cf9d481d9557e203114f04670f773396da515b23a743e997eaafd26818f408d68ea9008c86b0869ac0063036f7264010118746578742f706c61696e3b636861727365743d7574662d3800387b2270223a226272632d3230222c226f70223a227472616e73666572222c227469636b223a225a455445222c22616d74223a22393031227d6821c03114f04670f773396da515b23a743e997eaafd26818f408d68ea9008c86b086900000000"
}