{
  "txid": "9a294838bf73d989ac7e017d85f72b3d6bcf9aadaf45976b4d8868ac5fd386bc",
  "version": 1,
  "locktime": 0,
  "vin": [
    {
      "txid": "88888887d8789236e657c3a88541e7ba8f1bd0e85916972fe2dc95571972b106",
      "vout": 0,
      "prevout": {
        "scriptpubkey": "51200cbdf1c84a5df3a812f3b4e43b6c3c6032c360928f71e4b7648551bd1d8fcc51",
        "scriptpubkey_asm": "OP_PUSHNUM_1 OP_PUSHBYTES_32 0cbdf1c84a5df3a812f3b4e43b6c3c6032c360928f71e4b7648551bd1d8fcc51",
        "scriptpubkey_type": "v1_p2tr",
        "scriptpubkey_address": "bc1ppj7lrjz2the6syhnknjrkmpuvqevxcyj3ac7fdmys4gm68v0e3gssvnxt4",
        "value": 11704
      },
      "scriptsig": "",
      "scriptsig_asm": "",
      "witness": [
        "06d2c233bd8803b5a20e57613fdbd28b5b5c9f86073c8d7f7104904a3bcb74c4535aab4222b8ab26644de66621171a7acac5d3f8abeaaa66e69c463e4774d97a",
        "20c939a6c99941b6d3b54ce120ec99b1597a9557352a600150e097bc361ea60299ac00630461746f6d03646d7442a16461726773a46474696d651a65dbfc46656e6f6e636519178568626974776f726b6369383838383838382e316b6d696e745f7469636b657268696e66696e69747968",
        "c0c939a6c99941b6d3b54ce120ec99b1597a9557352a600150e097bc361ea60299"
      ],
      "is_coinbase": false,
      "sequence": 1
    }
  ],
  "vout": [
    {
      "scriptpubkey": "5120b510c4cbbd9adad0840a5f50b2fbc7bb1d8231996d5f115e52bb89456507f42a",
      "scriptpubkey_asm": "OP_PUSHNUM_1 OP_PUSHBYTES_32 b510c4cbbd9adad0840a5f50b2fbc7bb1d8231996d5f115e52bb89456507f42a",
      "scriptpubkey_type": "v1_p2tr",
      "scriptpubkey_address": "bc1pk5gvfjaantddppq2tagt9778hvwcyvved403zhjjhwy52eg87s4qdwylgf",
      "value": 9999
    }
  ],
  "size": 310,
  "weight": 592,
  "fee": 1705,
  "status": {
    "confirmed": true,
    "block_height": 834464,
    "block_hash": "0000000000000000000177a0869a911a2b65c9bdcd5a8bcb02b68f305bee848e",
    "block_time": 1710308296
  },
  "hex": "0100000000010106b172195795dce22f971659e8d01b8fbae74185a8c357e6369278d887888888000000000001000000010f27000000000000225120b510c4cbbd9adad0840a5f50b2fbc7bb1d8231996d5f115e52bb89456507f42a034006d2c233bd8803b5a20e57613fdbd28b5b5c9f86073c8d7f7104904a3bcb74c4535aab4222b8ab26644de66621171a7acac5d3f8abeaaa66e69c463e4774d97a7120c939a6c99941b6d3b54ce120ec99b1597a9557352a600150e097bc361ea60299ac00630461746f6d03646d7442a16461726773a46474696d651a65dbfc46656e6f6e636519178568626974776f726b6369383838383838382e316b6d696e745f7469636b657268696e66696e6974796821c0c939a6c99941b6d3b54ce120ec99b1597a9557352a600150e097bc361ea6029900000000"
}