{
  "txid": "9a3b446ab8432f17ec385828b4ddf857f601f484ce143c45ed584787465365b7",
  "version": 1,
  "locktime": 0,
  "vin": [
    {
      "txid": "d77248d763add940f390019e14aedac38a0939c7e08f3d82206ac104338fb44e",
      "vout": 0,
      "prevout": {
        "scriptpubkey": "0014a6232f3f221dd641565449cda85d6e518bc7d87b",
        "scriptpubkey_asm": "OP_0 OP_PUSHBYTES_20 a6232f3f221dd641565449cda85d6e518bc7d87b",
        "scriptpubkey_type": "v0_p2wpkh",
        "scriptpubkey_address": "bc1q5c3j70ezrhtyz4j5f8x6shtw2x9u0krmn9a79a",
        "value": 1485695
      },
      "scriptsig": "",
      "scriptsig_asm": "",
      "witness": [
        "3045022100af61dbe7bf09117e6280233e57b33b775ccec9bfbba1ff872580973ab703b5a602204872a59c714bf84cc99a6bfcb68bad6ce241b9dbbeb812c0c4af60427f3b87a401",
        "0310ff4507228494de8305f7c5c3bdf72082c4017d89bc5f469540f433752fa128"
      ],
      "is_coinbase": false,
      "sequence": 4294967293
    }
  ],
  "vout": [
    {
      "scriptpubkey": "a9148ef109bab895549120e32600a7df90d380f17c6b87",
      "scriptpubkey_asm": "OP_HASH160 OP_PUSHBYTES_20 8ef109bab895549120e32600a7df90d380f17c6b OP_EQUAL",
      "scriptpubkey_type": "p2sh",
      "scriptpubkey_address": "3EipdQ2mNSuTXLG1z1JFej1vfj1PuUhewP",
      "value": 692655
    },
    {
      "scriptpubkey": "001443866c5b25be8b0e15ee7e2b4ee8a5ef4bee97d1",
      "scriptpubkey_asm": "OP_0 OP_PUSHBYTES_20 43866c5b25be8b0e15ee7e2b4ee8a5ef4bee97d1",
      "scriptpubkey_type": "v0_p2wpkh",
      "scriptpubkey_address": "bc1qgwrxcke9h69su90w0c45a699aa97a973anjmal",
      "value": 790910
    }
  ],
  "size": 224,
  "weight": 566,
  "fee": 2130,
  "status": {
    "confirmed": true,
    "block_height": 834460,
    "block_hash": "00000000000000000000484a79b643b2524bbce82e5d8a442013fa5b8905ed98",
    "block_time": 1710307468
  },
  "hex": "010000000001014eb48f3304c16a20823d8fe0c739098ac3daae149e0190f340d9ad63d74872d70000000000fdffffff02af910a000000000017a9148ef109bab895549120e32600a7df90d380f17c6b877e110c000000000016001443866c5b25be8b0e15ee7e2b4ee8a5ef4bee97d102483045022100af61dbe7bf09117e6280233e57b33b775ccec9bfbba1ff872580973ab703b5a602204872a59c714bf84cc99a6bfcb68bad6ce241b9dbbeb812c0c4af60427f3b87a401210310ff4507228494de8305f7c5c3bdf72082c4017d89bc5f469540f433752fa12800000000"
}