{
  "txid": "9a4b7a9e63a874cda9c82adfb592bd91be77baaf988b6a22bca45c8d24ff1c8f",
  "version": 2,
  "locktime": 0,
  "vin": [
    {
      "txid": "cf21a36378743b525acb83d9ed3256fb0f2f08553358beb4729726265272f1f4",
      "vout": 11,
      "prevout": {
        "scriptpubkey": "001440d10f5337742098a35d636f624b3bcbe5826751",
        "scriptpubkey_asm": "OP_0 OP_PUSHBYTES_20 40d10f5337742098a35d636f624b3bcbe5826751",
        "scriptpubkey_type": "v0_p2wpkh",
        "scriptpubkey_address": "bc1qgrgs75ehwssf3g6avdhkyjeme0jcye63xt3duf",
        "value": 65527908
      },
      "scriptsig": "",
      "scriptsig_asm": "",
      "witness": [
        "3044022044f0fe3846254ad6384133b73b8dfd75a7b1d75695ba4068248f85eee9eb9316022032690dc47ceec8ebd5f359c432e4f39e108225cd51250443fdc11fedf84f9dc701",
        "026f833e3de148b55e2a2c14285c2caa6fc7d49de952b42067b33ba431e0d14515"
      ],
      "is_coinbase": false,
      "sequence": 4294967293
    }
  ],
  "vout": [
    {
      "scriptpubkey": "00146e5544a923ad00ba159a573dca5b51ae1ba03cd3",
      "scriptpubkey_asm": "OP_0 OP_PUSHBYTES_20 6e5544a923ad00ba159a573dca5b51ae1ba03cd3",
      "scriptpubkey_type": "v0_p2wpkh",
      "scriptpubkey_address": "bc1qde25f2fr45qt59v62u7u5k634cd6q0xnhuqgmv",
      "value": 65512653
    }
  ],
  "size": 191,
  "weight": 437,
  "fee": 15255,
  "status": {
    "confirmed": true,
    "block_height": 834638,
    "block_hash": "000000000000000000025f742c626208ac87e0b7d15054abb4a19ca2d735a54e",
    "block_time": 1710405325
  },
  "hex": "02000000000101f4f1725226269772b4be583355082f0ffb5632edd983cb5a523b747863a321cf0b00000000fdffffff01cda4e703000000001600146e5544a923ad00ba159a573dca5b51ae1ba03cd302473044022044f0fe3846254ad6384133b73b8dfd75a7b1d75695ba4068248f85eee9eb9316022032690dc47ceec8ebd5f359c432e4f39e108225cd51250443fdc11fedf84f9dc70121026f833e3de148b55e2a2c14285c2caa6fc7d49de952b42067b33ba431e0d1451500000000"
}