{
  "txid": "9a4c439f19a047cd02bd3d4b9949a1147fb152c75e0feadc5400ac9122e7860c",
  "version": 2,
  "locktime": 0,
  "vin": [
    {
      "txid": "fc4eff1ab3cd405d948969e6845a02a80537d1756713982b832ed616a8faf34c",
      "vout": 0,
      "prevout": {
        "scriptpubkey": "5120ad2f454063c07edc0f20890ac09e93c284f3adf33ab068d2de3fb64d82478d37",
        "scriptpubkey_asm": "OP_PUSHNUM_1 OP_PUSHBYTES_32 ad2f454063c07edc0f20890ac09e93c284f3adf33ab068d2de3fb64d82478d37",
        "scriptpubkey_type": "v1_p2tr",
        "scriptpubkey_address": "bc1p45h52srrcpldcreq3y9vp85nc2z08t0n82cx35k787mymqj835mskywupp",
        "value": 546
      },
      "scriptsig": "",
      "scriptsig_asm": "",
      "witness": [
        "cb6b37915c1f74e7af01effb3ed7478be27c98ae64314dbe0ec8f76941b85081004c56cc4e6dc0d0ee7969b325a1dfead9f6e15628174348997ba4eb2be8e7ae"
      ],
      "is_coinbase": false,
      "sequence": 2147483649
    },
    {
      "txid": "f7b99744125913dc10cce9dbe4158fe8ed1c9da9712236b480198b7a5fbcfd80",
      "vout": 1,
      "prevout": {
        "scriptpubkey": "5120ad2f454063c07edc0f20890ac09e93c284f3adf33ab068d2de3fb64d82478d37",
        "scriptpubkey_asm": "OP_PUSHNUM_1 OP_PUSHBYTES_32 ad2f454063c07edc0f20890ac09e93c284f3adf33ab068d2de3fb64d82478d37",
        "scriptpubkey_type": "v1_p2tr",
        "scriptpubkey_address": "bc1p45h52srrcpldcreq3y9vp85nc2z08t0n82cx35k787mymqj835mskywupp",
        "value": 260809
      },
      "scriptsig": "",
      "scriptsig_asm": "",
      "witness": [
        "1559eb2d106bb4edff83f297f02a8c4b3868bc7c60c1f2c1acae43d3e77b16fc8f8fa0dcb2aebbfcfa3021b08ab2d2c365be49a5cb3842b180ae542eef51a7de"
      ],
      "is_coinbase": false,
      "sequence": 2147483649
    }
  ],
  "vout": [
    {
      "scriptpubkey": "512062a08c187a5e9a2884767670d5b614d2ec92cf634af862efef009fc465989e43",
      "scriptpubkey_asm": "OP_PUSHNUM_1 OP_PUSHBYTES_32 62a08c187a5e9a2884767670d5b614d2ec92cf634af862efef009fc465989e43",
      "scriptpubkey_type": "v1_p2tr",
      "scriptpubkey_address": "bc1pv2sgcxr6t6dz3prkwecdtds56tkf9nmrftux9ml0qz0ugevcnepsp7y6gr",
      "value": 546
    },
    {
      "scriptpubkey": "5120ad2f454063c07edc0f20890ac09e93c284f3adf33ab068d2de3fb64d82478d37",
      "scriptpubkey_asm": "OP_PUSHNUM_1 OP_PUSHBYTES_32 ad2f454063c07edc0f20890ac09e93c284f3adf33ab068d2de3fb64d82478d37",
      "scriptpubkey_type": "v1_p2tr",
      "scriptpubkey_address": "bc1p45h52srrcpldcreq3y9vp85nc2z08t0n82cx35k787mymqj835mskywupp",
      "value": 257433
    }
  ],
  "size": 312,
  "weight": 846,
  "fee": 3376,
  "status": {
    "confirmed": true,
    "block_height": 834638,
    "block_hash": "000000000000000000025f742c626208ac87e0b7d15054abb4a19ca2d735a54e",
    "block_time": 1710405325
  },
  "hex": "020000000001024cf3faa816d62e832b98136775d13705a8025a84e66989945d40cdb31aff4efc00000000000100008080fdbc5f7a8b1980b4362271a99d1cede88f15e4dbe9cc10dc1359124497b9f701000000000100008002220200000000000022512062a08c187a5e9a2884767670d5b614d2ec92cf634af862efef009fc465989e4399ed030000000000225120ad2f454063c07edc0f20890ac09e93c284f3adf33ab068d2de3fb64d82478d370140cb6b37915c1f74e7af01effb3ed7478be27c98ae64314dbe0ec8f76941b85081004c56cc4e6dc0d0ee7969b325a1dfead9f6e15628174348997ba4eb2be8e7ae01401559eb2d106bb4edff83f297f02a8c4b3868bc7c60c1f2c1acae43d3e77b16fc8f8fa0dcb2aebbfcfa3021b08ab2d2c365be49a5cb3842b180ae542eef51a7de00000000"
}