{
  "txid": "9a5b9d06ef2abf01182ec070a002f89da53db6e62d09d1182a01d3a45af0dadc",
  "version": 2,
  "locktime": 0,
  "vin": [
    {
      "txid": "ff0c6bc5c014de22c878a2031460d79795c2d26398f3efcf7c49e677ec5d8d48",
      "vout": 1,
      "prevout": {
        "scriptpubkey": "5120d826ab2636fc8fbdecaf2d73e51ed5dcc9e9e9c452a5604cd40d44ab61a2342d",
        "scriptpubkey_asm": "OP_PUSHNUM_1 OP_PUSHBYTES_32 d826ab2636fc8fbdecaf2d73e51ed5dcc9e9e9c452a5604cd40d44ab61a2342d",
        "scriptpubkey_type": "v1_p2tr",
        "scriptpubkey_address": "bc1pmqn2kf3klj8mmm9094e728k4mny7n6wy22jkqnx5p4z2kcdzxsksslj3mr",
        "value": 296559
      },
      "scriptsig": "",
      "scriptsig_asm": "",
      "witness": [
        "f6742ba8ac0df6083cbffc48121fc690526998fa3ce002fe2bdb772f1f31059031ea68c47304fb7b9e572993c9271b9b63781abfe5e3a24ed52c679335119c18"
      ],
      "is_coinbase": false,
      "sequence": 4294967293
    }
  ],
  "vout": [
    {
      "scriptpubkey": "5120b102fb899180126f3bc382dac57c04ebb6a45410dc6f33d6eb36823e44af08e2",
      "scriptpubkey_asm": "OP_PUSHNUM_1 OP_PUSHBYTES_32 b102fb899180126f3bc382dac57c04ebb6a45410dc6f33d6eb36823e44af08e2",
      "scriptpubkey_type": "v1_p2tr",
      "scriptpubkey_address": "bc1pkyp0hzv3sqfx7w7rstdv2lqyawm2g4qsm3hn84htx6pru390pr3qwhavtr",
      "value": 2826
    },
    {
      "scriptpubkey": "5120d826ab2636fc8fbdecaf2d73e51ed5dcc9e9e9c452a5604cd40d44ab61a2342d",
      "scriptpubkey_asm": "OP_PUSHNUM_1 OP_PUSHBYTES_32 d826ab2636fc8fbdecaf2d73e51ed5dcc9e9e9c452a5604cd40d44ab61a2342d",
      "scriptpubkey_type": "v1_p2tr",
      "scriptpubkey_address": "bc1pmqn2kf3klj8mmm9094e728k4mny7n6wy22jkqnx5p4z2kcdzxsksslj3mr",
      "value": 291423
    }
  ],
  "size": 205,
  "weight": 616,
  "fee": 2310,
  "status": {
    "confirmed": true,
    "block_height": 834638,
    "block_hash": "000000000000000000025f742c626208ac87e0b7d15054abb4a19ca2d735a54e",
    "block_time": 1710405325
  },
  "hex": "02000000000101488d5dec77e6497ccfeff39863d2c29597d7601403a278c822de14c0c56b0cff0100000000fdffffff020a0b000000000000225120b102fb899180126f3bc382dac57c04ebb6a45410dc6f33d6eb36823e44af08e25f72040000000000225120d826ab2636fc8fbdecaf2d73e51ed5dcc9e9e9c452a5604cd40d44ab61a2342d0140f6742ba8ac0df6083cbffc48121fc690526998fa3ce002fe2bdb772f1f31059031ea68c47304fb7b9e572993c9271b9b63781abfe5e3a24ed52c679335119c1800000000"
}