{
  "txid": "9a73611a2ead901874359d3110e525af13b59fcf2cba9256bdb6c1080b2ee34c",
  "version": 2,
  "locktime": 0,
  "vin": [
    {
      "txid": "d18ed70056c00a6cd5de0ccb10b1ae8f7dd5250f9d0f22c727aba826d03302c8",
      "vout": 12,
      "prevout": {
        "scriptpubkey": "512089c1f46259819f007d028b8b5ff8a97279681678e5552e634cd960b5972407e9",
        "scriptpubkey_asm": "OP_PUSHNUM_1 OP_PUSHBYTES_32 89c1f46259819f007d028b8b5ff8a97279681678e5552e634cd960b5972407e9",
        "scriptpubkey_type": "v1_p2tr",
        "scriptpubkey_address": "bc1p38qlgcjesx0sqlgz3w94l79fwfuks9ncu42juc6vm9stt9eyql5szmvqsd",
        "value": 3010
      },
      "scriptsig": "",
      "scriptsig_asm": "",
      "witness": [
        "1027e5b0c9da914165e9d69618e5baa4e56a7b2b3255a73920885ccc2ab22f0f875810511c03a2a0b89710fecfd25c26704ca553dba8842c5959f44834708192",
        "20d8434c2e02d3432a4ac0ae3aa010c52f85c1f593bf25d43498bacdd786f2fe52ac0063036f726401011e6170706c69636174696f6e2f6a736f6e3b636861727365743d7574662d38004cbf7b2270223a22706f772d3230222c226f70223a226d696e74222c227469636b223a2250455045222c22616d74223a2231303030222c22736f6c7574696f6e223a22504550453a6263317168337833756334707a796478716436757776376e3732676874787a33753937306564663078613a303030303030303030303030303030303030303139393431613561653132383937363539383134343239323533333030353762306461393666336465613163353a3233313534393330323833227d68",
        "c0e5c6b8d70510d88b341fcdd9a2aa08913e89d9e736480c530fde3fe13419cdab"
      ],
      "is_coinbase": false,
      "sequence": 4294967295
    }
  ],
  "vout": [
    {
      "scriptpubkey": "0014bc4d1e62a1111a60375c733d3f291759851e17cf",
      "scriptpubkey_asm": "OP_0 OP_PUSHBYTES_20 bc4d1e62a1111a60375c733d3f291759851e17cf",
      "scriptpubkey_type": "v0_p2wpkh",
      "scriptpubkey_address": "bc1qh3x3uc4pzydxqd6uwv7n72ghtxz3u970edf0xa",
      "value": 546
    }
  ],
  "size": 455,
  "weight": 701,
  "fee": 2464,
  "status": {
    "confirmed": true,
    "block_height": 834460,
    "block_hash": "00000000000000000000484a79b643b2524bbce82e5d8a442013fa5b8905ed98",
    "block_time": 1710307468
  },
  "hex": "02000000000101c80233d026a8ab27c7220f9d0f25d57d8faeb110cb0cded56c0ac05600d78ed10c00000000ffffffff012202000000000000160014bc4d1e62a1111a60375c733d3f291759851e17cf03401027e5b0c9da914165e9d69618e5baa4e56a7b2b3255a73920885ccc2ab22f0f875810511c03a2a0b89710fecfd25c26704ca553dba8842c5959f44834708192fd0c0120d8434c2e02d3432a4ac0ae3aa010c52f85c1f593bf25d43498bacdd786f2fe52ac0063036f726401011e6170706c69636174696f6e2f6a736f6e3b636861727365743d7574662d38004cbf7b2270223a22706f772d3230222c226f70223a226d696e74222c227469636b223a2250455045222c22616d74223a2231303030222c22736f6c7574696f6e223a22504550453a6263317168337833756334707a796478716436757776376e3732676874787a33753937306564663078613a303030303030303030303030303030303030303139393431613561653132383937363539383134343239323533333030353762306461393666336465613163353a3233313534393330323833227d6821c0e5c6b8d70510d88b341fcdd9a2aa08913e89d9e736480c530fde3fe13419cdab00000000"
}