{
  "txid": "9a740dad1f480f954c7f9e0f06763aa9a2ede00e155f671c44c5ae0e2766b1ed",
  "version": 2,
  "locktime": 0,
  "vin": [
    {
      "txid": "99553e374fd54ef12b0bde0c6b22868a7f9d481fbcce26bf3c24f28e25fc84b8",
      "vout": 1,
      "prevout": {
        "scriptpubkey": "0014465fd08b755f4c7b64ade8ce3ba0cf25ca0b5411",
        "scriptpubkey_asm": "OP_0 OP_PUSHBYTES_20 465fd08b755f4c7b64ade8ce3ba0cf25ca0b5411",
        "scriptpubkey_type": "v0_p2wpkh",
        "scriptpubkey_address": "bc1qge0apzm4tax8ke9dar8rhgx0yh9qk4q3uunvkk",
        "value": 8184
      },
      "scriptsig": "",
      "scriptsig_asm": "",
      "witness": [
        "304402203ba7ca11d6edb641f00fa99fba35a03c4a3c1da24cdce1b8e6a382a1682271ab02200249000c75576c883a7b5e58d8d954d087e62a54252422bda9b53aff1d69738601",
        "031a086c033373262ea5e5d8ef70191c5f3f817ec3ce03715700cb4632a72f3258"
      ],
      "is_coinbase": false,
      "sequence": 4294967293
    }
  ],
  "vout": [
    {
      "scriptpubkey": "76a914588fddf2e1cbb20b2502fc146fbbaa3ac05e23b988ac",
      "scriptpubkey_asm": "OP_DUP OP_HASH160 OP_PUSHBYTES_20 588fddf2e1cbb20b2502fc146fbbaa3ac05e23b9 OP_EQUALVERIFY OP_CHECKSIG",
      "scriptpubkey_type": "p2pkh",
      "scriptpubkey_address": "195GowCzbSpaKjvfrtAtGbSthd2yjMnqi5",
      "value": 6964
    }
  ],
  "size": 194,
  "weight": 449,
  "fee": 1220,
  "status": {
    "confirmed": true,
    "block_height": 834464,
    "block_hash": "0000000000000000000177a0869a911a2b65c9bdcd5a8bcb02b68f305bee848e",
    "block_time": 1710308296
  },
  "hex": "02000000000101b884fc258ef2243cbf26cebc1f489d7f8a86226b0cde0b2bf14ed54f373e55990100000000fdffffff01341b0000000000001976a914588fddf2e1cbb20b2502fc146fbbaa3ac05e23b988ac0247304402203ba7ca11d6edb641f00fa99fba35a03c4a3c1da24cdce1b8e6a382a1682271ab02200249000c75576c883a7b5e58d8d954d087e62a54252422bda9b53aff1d6973860121031a086c033373262ea5e5d8ef70191c5f3f817ec3ce03715700cb4632a72f325800000000"
}