{
  "txid": "9a7b093350784a4a58953425e10092430ad91382a560aed051d7cd9521daeaf9",
  "version": 2,
  "locktime": 834637,
  "vin": [
    {
      "txid": "d3609a6afffcd0a82e2d57a7798652900875d35cd17aafab4694476173ec626a",
      "vout": 0,
      "prevout": {
        "scriptpubkey": "a91442e908bdd82c7fcf8e4af1cda61fcc24af466cc287",
        "scriptpubkey_asm": "OP_HASH160 OP_PUSHBYTES_20 42e908bdd82c7fcf8e4af1cda61fcc24af466cc2 OP_EQUAL",
        "scriptpubkey_type": "p2sh",
        "scriptpubkey_address": "37noghcCrgtqLZXPJSRmYG2gF4RsVAgra1",
        "value": 1578383930
      },
      "scriptsig": "16001444068d48ef3efdcdba3e297d325c71ad35ea753a",
      "scriptsig_asm": "OP_PUSHBYTES_22 001444068d48ef3efdcdba3e297d325c71ad35ea753a",
      "witness": [
        "304402202012e629bb11178c7b080c9aa1dd6dc0e3d9bcfa0701a61829c4c30ce89cc48c02207fe87819d37b0bc163212daa4ea6480d1f2ba6faf1ab0ab98d9c030854c5b00c01",
        "035e88b0c6190bfdb3c87819af4ef55ea3e0ea584b58a406fc724a53ac22d6376c"
      ],
      "is_coinbase": false,
      "sequence": 4294967293,
      "inner_redeemscript_asm": "OP_0 OP_PUSHBYTES_20 44068d48ef3efdcdba3e297d325c71ad35ea753a"
    }
  ],
  "vout": [
    {
      "scriptpubkey": "a91496993f2e2e4fd39dc749b7128422e454f53510b487",
      "scriptpubkey_asm": "OP_HASH160 OP_PUSHBYTES_20 96993f2e2e4fd39dc749b7128422e454f53510b4 OP_EQUAL",
      "scriptpubkey_type": "p2sh",
      "scriptpubkey_address": "3FRJs6KZ47y4m1T6RvMS7gsHWDJ35QZGXf",
      "value": 30000000
    },
    {
      "scriptpubkey": "a914578a6ff302912be511edd15ea87395af0cba6ff487",
      "scriptpubkey_asm": "OP_HASH160 OP_PUSHBYTES_20 578a6ff302912be511edd15ea87395af0cba6ff4 OP_EQUAL",
      "scriptpubkey_type": "p2sh",
      "scriptpubkey_address": "39ftZ2RZBXhgga51usF3K7sAUDRsEVsxrw",
      "value": 1548375630
    }
  ],
  "size": 247,
  "weight": 661,
  "fee": 8300,
  "status": {
    "confirmed": true,
    "block_height": 834638,
    "block_hash": "000000000000000000025f742c626208ac87e0b7d15054abb4a19ca2d735a54e",
    "block_time": 1710405325
  },
  "hex": "020000000001016a62ec7361479446abaf7ad15cd3750890528679a7572d2ea8d0fcff6a9a60d3000000001716001444068d48ef3efdcdba3e297d325c71ad35ea753afdffffff0280c3c9010000000017a91496993f2e2e4fd39dc749b7128422e454f53510b4874e564a5c0000000017a914578a6ff302912be511edd15ea87395af0cba6ff4870247304402202012e629bb11178c7b080c9aa1dd6dc0e3d9bcfa0701a61829c4c30ce89cc48c02207fe87819d37b0bc163212daa4ea6480d1f2ba6faf1ab0ab98d9c030854c5b00c0121035e88b0c6190bfdb3c87819af4ef55ea3e0ea584b58a406fc724a53ac22d6376c4dbc0c00"
}