{
  "txid": "9a80291c534966ac2dd332bc53f6c945151bae8fdc853d08e080eb76d740ef24",
  "version": 2,
  "locktime": 0,
  "vin": [
    {
      "txid": "8486ecb4df0880316dd6e82b3971b4df187aff23765bc3a47f8d78bb53aa273c",
      "vout": 61,
      "prevout": {
        "scriptpubkey": "51209be9e37e21affb3cc190e6385f7c0fd736721334b3d28d35b8644e08c70f4b87",
        "scriptpubkey_asm": "OP_PUSHNUM_1 OP_PUSHBYTES_32 9be9e37e21affb3cc190e6385f7c0fd736721334b3d28d35b8644e08c70f4b87",
        "scriptpubkey_type": "v1_p2tr",
        "scriptpubkey_address": "bc1pn057xl3p4lanesvsucu97lq06um8yye5k0fg6ddcv38q33c0fwrswle0u0",
        "value": 2575
      },
      "scriptsig": "",
      "scriptsig_asm": "",
      "witness": [
        "ea8af27f4df6995512486e84d0479ca46c9673aeb4003e20c0243712e95e4eb911e736516f8d3e7d72f2e1c98248c1fdd1fd235f568852c2c1d091720b6b51a0",
        "206dc160fa46582eb94531763310694613b4e0369e6714ae8397a182aadfec10ddac0063036f726401010a746578742f706c61696e00367b2270223a226272632d3230222c226f70223a226d696e74222c227469636b223a2261616161222c22616d74223a223130303030227d68",
        "c06dc160fa46582eb94531763310694613b4e0369e6714ae8397a182aadfec10dd"
      ],
      "is_coinbase": false,
      "sequence": 4261412863
    }
  ],
  "vout": [
    {
      "scriptpubkey": "0014ddd7ef12ea6f78edcc1e8e7afa12c01ab59f3339",
      "scriptpubkey_asm": "OP_0 OP_PUSHBYTES_20 ddd7ef12ea6f78edcc1e8e7afa12c01ab59f3339",
      "scriptpubkey_type": "v0_p2wpkh",
      "scriptpubkey_address": "bc1qmht77yh2dauwmnq73ea05ykqr26e7veea8spz6",
      "value": 546
    }
  ],
  "size": 295,
  "weight": 541,
  "fee": 2029,
  "status": {
    "confirmed": true,
    "block_height": 834460,
    "block_hash": "00000000000000000000484a79b643b2524bbce82e5d8a442013fa5b8905ed98",
    "block_time": 1710307468
  },
  "hex": "020000000001013c27aa53bb788d7fa4c35b7623ff7a18dfb471392be8d66d318008dfb4ec86843d00000000fffffffd012202000000000000160014ddd7ef12ea6f78edcc1e8e7afa12c01ab59f33390340ea8af27f4df6995512486e84d0479ca46c9673aeb4003e20c0243712e95e4eb911e736516f8d3e7d72f2e1c98248c1fdd1fd235f568852c2c1d091720b6b51a06e206dc160fa46582eb94531763310694613b4e0369e6714ae8397a182aadfec10ddac0063036f726401010a746578742f706c61696e00367b2270223a226272632d3230222c226f70223a226d696e74222c227469636b223a2261616161222c22616d74223a223130303030227d6821c06dc160fa46582eb94531763310694613b4e0369e6714ae8397a182aadfec10dd00000000"
}