{
  "txid": "9a82462893ba03430facbbe10da9bd40ac580de81cd1cc1481e2b12040fd1eec",
  "version": 2,
  "locktime": 0,
  "vin": [
    {
      "txid": "275c306bf9cb69a984dba239289ea585b24377d4d6b4dd96d3573821e8995fb5",
      "vout": 1,
      "prevout": {
        "scriptpubkey": "00145c691a6326fd92fd5df9d98fe8708ee268cb00ae",
        "scriptpubkey_asm": "OP_0 OP_PUSHBYTES_20 5c691a6326fd92fd5df9d98fe8708ee268cb00ae",
        "scriptpubkey_type": "v0_p2wpkh",
        "scriptpubkey_address": "bc1qt3535cexlkf06h0emx87suywuf5vkq9w5s346d",
        "value": 531361
      },
      "scriptsig": "",
      "scriptsig_asm": "",
      "witness": [
        "3045022100e9ad0554538ef18b513957f7a93298cea1a7b4ad3993f4f6662c056ab14c8644022036b5b411b1d51ecacdaae1e393dcbc543233df58cc2aa6b59ac9902e5c90bf4b01",
        "02e4d9f2f9cf9f6e9743e30aa85357a42dcf4e0b9e2a8fa47ddb8fa71f78fdf5ea"
      ],
      "is_coinbase": false,
      "sequence": 4294967293
    }
  ],
  "vout": [
    {
      "scriptpubkey": "76a914eff235a9881d2ee47cf799db24dcb7dabff36afd88ac",
      "scriptpubkey_asm": "OP_DUP OP_HASH160 OP_PUSHBYTES_20 eff235a9881d2ee47cf799db24dcb7dabff36afd OP_EQUALVERIFY OP_CHECKSIG",
      "scriptpubkey_type": "p2pkh",
      "scriptpubkey_address": "1NsiesGotwiN7nhFbD7Yx37DijU6UqnFTT",
      "value": 67985
    },
    {
      "scriptpubkey": "00145c691a6326fd92fd5df9d98fe8708ee268cb00ae",
      "scriptpubkey_asm": "OP_0 OP_PUSHBYTES_20 5c691a6326fd92fd5df9d98fe8708ee268cb00ae",
      "scriptpubkey_type": "v0_p2wpkh",
      "scriptpubkey_address": "bc1qt3535cexlkf06h0emx87suywuf5vkq9w5s346d",
      "value": 460644
    }
  ],
  "size": 226,
  "weight": 574,
  "fee": 2732,
  "status": {
    "confirmed": true,
    "block_height": 834638,
    "block_hash": "000000000000000000025f742c626208ac87e0b7d15054abb4a19ca2d735a54e",
    "block_time": 1710405325
  },
  "hex": "02000000000101b55f99e8213857d396ddb4d6d47743b285a59e2839a2db84a969cbf96b305c270100000000fdffffff0291090100000000001976a914eff235a9881d2ee47cf799db24dcb7dabff36afd88ac64070700000000001600145c691a6326fd92fd5df9d98fe8708ee268cb00ae02483045022100e9ad0554538ef18b513957f7a93298cea1a7b4ad3993f4f6662c056ab14c8644022036b5b411b1d51ecacdaae1e393dcbc543233df58cc2aa6b59ac9902e5c90bf4b012102e4d9f2f9cf9f6e9743e30aa85357a42dcf4e0b9e2a8fa47ddb8fa71f78fdf5ea00000000"
}