{
  "txid": "9a8339fbe8938cfc20b92e42be5135cf737fbf40933ee4f4614ebbadda64633f",
  "version": 2,
  "locktime": 0,
  "vin": [
    {
      "txid": "78b490ba306fc862e7b4f2829b6ea0a472714184f277844ae34c0999ceacf4ed",
      "vout": 0,
      "prevout": {
        "scriptpubkey": "5120332f3680c3c9366a478a420a63108c283ad6a1e4e4948018f4b6fdc1c631ead0",
        "scriptpubkey_asm": "OP_PUSHNUM_1 OP_PUSHBYTES_32 332f3680c3c9366a478a420a63108c283ad6a1e4e4948018f4b6fdc1c631ead0",
        "scriptpubkey_type": "v1_p2tr",
        "scriptpubkey_address": "bc1pxvhndqxreymx53u2gg9xxyyv9qaddg0yuj2gqx85km7ur333atgqey8wk0",
        "value": 18375
      },
      "scriptsig": "",
      "scriptsig_asm": "",
      "witness": [
        "502a5565b04befa09a4a224137c61d79fc8803c0892178302b3b68fa73c9f68bc38d33b002bc6be365957a1d38f191f0f67b0f3e715a419bf0f2ffcce94dd9a8",
        "20a922ae40489a540fe47c875a6a34197f2579613923dddecbadbab8e2c2885a61ac0063036f7264010109696d6167652f706e67004d080289504e470d0a1a0a0000000d49484452000001f4000001f40803000000fc082fb800000093504c54455b86974f4f4fb8690cca9a6ad99c63578e5de9ab73ebad74b9690cca935c4d4d4e5d85940102010048b657869abb6604ffc501f2b176c48478783e305386a0757e6fa96d226f8789b46b159571472f2721548c5bfff45a927959cd863cdba873928f7b50809ad09761ba8655e2a46ac27a2bb19b6bc6a37c3f724f0b4daebdab3d255da2e1b91c5e6264f7da63ffea48795d40578b4ae6000000097048597300000b1300000b1301009a9c1800000f6749444154789ced9d8976e23802458d92c80eee81662604e80c592b9ddea7feffebe690806dc9245eca06d9ef5e38a9147b7cfd2459127214010000000000000000000000000000000000000000000000000000000000744edafd4b42e8cccefd01e0d4a44fbf9dfc3de1dca47f9ffb13000000000000000000000000000000000000000000000000000000000000000000000000c090497be29cef5da2ffcd382866bd51e3bd6f4e042b3216496f96b7fdb0dedea4e77aef129b15da8b1b7e3bef85645e47fafc44dcae6694f045e9a61f6a4937a701e9de86df9ac4249d53577a82f4f1484f6a4b4ffa87a48796f4a47f904ed2e521e98250a70b42d20521e9829c37e9dbb9a1f5ae96f42dd2cf01491784a40b7274c0a583f2fe8c75bad9bdbbf707498db295a790a4d543ab9dd44d0802f1667ebbdd54b0bd4dfa68c819233db43a5b6d6ebd0dbdf4fffa74737bbb712eeb6eac27efa3ea5f5dfa69c69924294fa248652651a4b36569a72f15baa937c9e926bded427abd41d3a49fe27d5b2ae22219d2d972ed6ffb65a9a6f537cfaa13e9e7c324c95626d79f4977b687a96c5ecd46213d8d5441ba20481704e982205d10a40b827441902e08d20541ba20481704e9821c953e4bbf669c7def691ba2b1485fde54ac1fd1d1d0eac930e541dc23d27b5a4a6320d237cb4aba9944713a4c69a28c2f7d962edb30c8e52b8e4937eb4a4ef355d2aed805bb64cbdb0e37cb751b2a87a10721bda6cd21394f8c9997aa2c7f3bdc2ccdbcc54b8f437acd851f0665ddeca4a7bd2c79310ee963c4d495def475c792f43162908ef42390f4b16148babb8753bcbf43d2c78621e90e24fd03923e360c497720e91f90f4b16148ba0349ff80a48f0d43d25593fe35edfbde5da201a0237df6f50c98d6d2fd193751f888484f96e9ea6bd2168be59924d9945e370a1f0de9c9fab69a36d2cd7a884bd7a848379527ee69331bc82489f722f35ba4878149d6eb3e66031d996b93203d20e9c9498a3343d243c1205db24e5f9374a4f704c57b3018924ef1de1f243d180c4927e9fd41d283c1907492de1f243d180c49f792be5acf9b7f597358fd3906e9a5e2bdacb4c6661c1206e935ceca43d2475da74751794ac9a6babc1f56d40d49f729cd17dbcc2b954d08020eca7982f4aae047e908936e4ef4898752bc97d8494f4685413ad2fb83a40b6228def53048d7c3205d0f83743d0cd2f53048d7c3205d0f83743d0cd2878d69b3147808d2d3e68cb0efbd256db64208d25b9d8c06e9d992038d31e7975eb5e6c671909e9dacacc5a97ccebcd4d0eefc696d18d868795fec4f56d6f43a3bffa4c7b9bf40460d709e499f356c0ea5511ac477cf5b80f52ce9e776d818890507fa03e9821892ae8741ba1e06e97a18a4eb6190ae8741ba1e06e97a18a4eb6190ae8741ba1e06e97a18a4eb6190ae8741ba1e06e97a18a4eb6190ae8741ba1e06e97a18a4eb6190ae8741ba1e06e97a18a4eb6190ae8741ba1e06e97a18a40780e9e5a13ff655e52834c6f0ad5573d2a71d5994e0e66bcebdd6c818a59bc414564ba8bff24b177fb649cca672b1915568d6c720ddbcdee73c5fd6bb5cbe76f2579b1a8b7804b76cc108a427f3fb4573e2fb8e8af74ad6cb19d2bbc6ccef17b6399d48afdbd48b82622449b771336cdc4dd2ab417a3f9b758e74925e03923ef0e2dd9074925e07924ed27b84865c3fcc69c8c935e40cd2f5a42748d7936e90ae273d41ba9e7483f456d27b59cbbdd68b347f2753ba05e963976e9c29133b487a1be9a551ff8e9cf7738208f3faadc4ae87ad11ea3d72ab4de9ac3c5d257dbd5ebf3ad7579f36c5fbeb5187486f446922dfb29ba8cf5f2fae9faf9d6bbc70dc2cbeb598b3645eadefd892f44d0802c661f7987523ddcc5faf7d763356e2ec62e396d2e3c6c9a678afa023e9c9fcf5b924ddd185f470e82ee9484f826cc81d81a477899674922e289d3a5d503a4917944ed205a5937441e9245d503a4917944ed205a5937441e922493703fc7efa0e7f5d9c13263d999bc697d78ea4cf4f45702b5144e9cd72e3d1d1248a3ad2efefef5f1b5fe24ea45fde77c27653c576155cd2d39b4d4fd3a52aa5b776677fd479bc1bcc5f74c143c5ca5241ae2eb593ded3c4c81a496fb16a88ddbd4217496ff5dea5cff250b98a5c80ebc8bd27ddf43147b04e9dde7653db40a4c78b87a76880f426bd3ae9236081f486491f3e16e9247d289cb14e1f3e96a493f4a140d27f00924ed20703496fc3be6942d249fa6020e93f004927e98321b0a477d1237e8c1629aef359384e1fd971baadf118a47791f46f0ffd60db38af11f5b7a700474e8735ca66e3cddd551fdc3db638f9835df6f259aeaecebe9f0455a7dbc5e6eeeaae7bae5a4aaff3d2cdb91baff43124fdae970f43d205a5df91743de957e395deaa4e97907e375ee9d4e99f325ee924fd3348ba60f17e45d2f5a4df8d573a75faa78c573a75fa679074c1e2fd8aa4eb49bf1baf74eaf44f4947fb55e5fe46d9ae9a13d828db6cac8b12b44c7aadadd614c6d33de9b39e961f6997f4efbf5573d5825649aff1597e6b13f5b3273d8a661edd9dc3a585f45f7eaae6f1d7e6bcb538cd8badf1597ed936ff4d08022cd7ab5970ab4b9d6c1db9b6d25f2e9af3d093f4dd87796ec6c5e5ea49771db9b1486fca730849f720e93d4b27e9274afa6550491f6df1ae53a73785a40b4a7f26e97ad22fc72b3dacd6fb6540d2493a490f825126fd81a49f423aadf7cfa04ea74e0f0292fe0ead77ea7481d67b355563ee8686dcd0eaf41fb71e98f4cba05aef018eb2ad6a9cafe6b5baf59edc5f3797bedd6c2bb968b3e84c1be9d51f65bb5db5e0ec13238ff1b6882b2ef6a55afabae4bc7aa1215be7643971637b0d9f71785e9d13f73c45b38697dd353cd2b7ddc98c3ebfec7edcf722bdee595de27a0f3b3cf8f0b99bee2b355e7b98a7f33842faf6f52c42db9bf4c1b140ba9c748b743de931d2f5a45ba4eb498f91ae27dd225d4f7a8c743de916e97ad263a4eb49b748d7931e235d4fba45ba9ef418e97ad2ad98f47925c9f8a5c752d2bf5dd7985d337ee9564c7a2bc6263d46ba9e748b743de931d2f5a45ba4eb498f91ae27dd225d4f7a8c743de916e97ad263a4eb49b748d7931e235d4fba45ba9ef418e93f2efde8374503de512cd23b915eebb660188df4595471ee8b1e87568fdd1db0733b50e9e9cde31f3eff94b0a7916ee3ebef3b3e4e20f4feebf78bc6a7dc39218395fec7cf3efffbafc73f8eac1ea52f36bff86c02966e91ae273d46ba9e748b743de931d2f5a45ba4eb4927e982d22d49d7931e235d4fba45ba9ef418e97ad22dd2f5a4c748d7936e914d0802ae273d46ba9e743b72e92e210dadda464bfe774bfcf014e4b9393a91ee9fc5c29e4cfa4fd549b78b73112f1ecae7e648a3b482b388ae925ee2af479f9dc217f74717d2e3e7179fca993376f1bce9871a6762faf5c937fa5483d920a4a74fb31d4fd96555da7d1f3b907e34b4d5417ff94f35d3364c6ae13ee7cf7f55f2fbd320a497ce2436cbce3bb4ff65f678ae29d0b696f40f3baeac2a99bb271cbfe6ff7acaa793f1484f2b0ba44ea4b7c2d6933ef5457feebc784f65dadd3d09e981499f1eaefb84ee42fa2ecdf7b6cff2c723dfafd9e39c671fee75ca05921e9cf4c95edf21c4efbe0f16f370ef7d1e7cfb057beeb8f0c4bd7ea407257df26137cbed21e9efeaf6fbc0fecebccade3fcbb91e6ef3ea818ffd03e941499f1ef29b65b4f823d378f05f94eeb6e20eb715f69fac56407a58d2f7eccbec8f7fb328e77b4456cb172bf12ced9ef4fdfdfbd77dffdfefb4dec3933ed997e099df43555f68ac39ed34f7286dff3a5961504cfafb7d480f51fa01a726cf427da4499e67df29f25de9fb92638af4a0a44ff3067a66fd10fabcf1566ca2bbfd3305c1fba7178bf7ace947d243923e39d6d352d49d4bf7c4babd70c55d267f06d28791f4770ec576965bd7795ee3e70776eebd79d43fae243d38e9532fb1858eb6720f4c41eebeb576e476f749480f2be93bbc869adb56cb6ef7129d3dcebfb1f8c4acccf87db4a36c831b7099ba312f764d0802ba964a00bf21e7fee6ee07eeb38693f4bf2af923f851b6ef5f1afffe51bc7f21bd5002eca3eb74a87fa6bdd86173280a06203d8a6637d5d47895334abff877357f7b07e1c78af7cf92ee74d1baf64b8dfe41243daa9cd1556f56d700a44fcb5de8c53017c662bc6ed9c2604c5ee57bdef331984148ef8601489f1c3b62739c158bf7a25ff79ef22f85e26220c5bb8cf4e9d1e374df7eb13ba6a8d6df0b0e593f94edd903911eb2f469b983add4d42ba4beb82be40f2cf6e97c3c1fe921499f7855b37b385eaee8b312db3b6ccb5d17475d487ac8c5fb343fce2ada2c1dc7650f2a14e5fee8db61265db1c427e92149ffa0d0edea64de3f4e3f34e3f3babc58bb170ef3fcb61fd283923ecda53b4325f9186ba1f9566890bb47e2fb5da0346192a40759bc4f3261deb88a5382e74330c5567abe87f853619dff4c2653921e92f4492eb83c485a68a01527d015739fd705a57de1f0db40e6bd0b1da74f3e6baa7b9da9f90ce84cac5bbc3bb3290b3df7ef8f407a50d2a7c7a25dbc35ef6b29f5ade72dba721fadb3db203d2ce9135750b125e734e7f29d222fc8bde23d3b782f0fd092f453488fe3879ad2fd441767c2387633a1ee5cc8428f9cdb6b533cfa47fa49a42f1a1da73bc23c6ba50e1aaf307006660b5f88283c18e98126bd57487a48d24f04d24f22ddd6e165db0f7ffbfc598373af3933fce3f473b25b476ee6109d7feda8d3a12b5d984d0802a0a5db9e407ac0d27b83a4eb49b748d7931e235d4fba45ba9ef418e97ad22dd2f5a4c748d7936e91ae273d46ba9e748b74a4ab1174df7b6f90f4f14bb7a511973746d9c62dddc66f8f2bff72ee12f6ac0814ef76f1b63f815171d2843222d22340ba36245d10a40b827441902e08d20541ba20481704e982205d10a40b827441902e08d20519a574ebcf93616875e4d2ede22d5db9e07cecd2e3c51bf364d48a77bb78d39e0ca5283d169fea2a29dd2e902e59a747a025dd225d30e9314997936e49ba9ef418e97ad22dd2f5a4c7d4e97ad22d49d7931e235d4fba45ba8074cb32137ad2e385079d33e397fef0e6f2c0d0ead8a5dbc563ba4ad355e1c24499f14b5fb9836acca0187f9d6e178f4f445b507a044887af21e982205d10a40b827441902e08d20541ba20481704e982205d90bad2c36541df7b4fd24f32e3a52548ef43facbe5b73eb8785c750203ab3d487f7979beec838b7416cd3aa0f1df2c4fada4f7247d25bff50593be427ab0d249fad820e98290744148ba20245d10922e08491784a40b42d20521e98290744148ba20245d10922e08491784a40b42d20521e98290744148ba20245d10922e08491784a40b42d20521e98290744148ba20245d10922e08491784a40b42d20521e98290744148ba20245d10922e08491784a40b42d20521e98290744148ba20245d10922e08491784a40b42d20521e982907441487ad43fff0714fd6fc0b4358ca1790000000049454e44ae42608268",
        "c0a922ae40489a540fe47c875a6a34197f2579613923dddecbadbab8e2c2885a61"
      ],
      "is_coinbase": false,
      "sequence": 4294967293
    }
  ],
  "vout": [
    {
      "scriptpubkey": "512092d0c4be49414c8ce960e04bd67b94f223e9ce71227bcb9ae8584d3d87f33a1e",
      "scriptpubkey_asm": "OP_PUSHNUM_1 OP_PUSHBYTES_32 92d0c4be49414c8ce960e04bd67b94f223e9ce71227bcb9ae8584d3d87f33a1e",
      "scriptpubkey_type": "v1_p2tr",
      "scriptpubkey_address": "bc1pjtgvf0jfg9xge6tqup9av7u57g37nnn3yfauhxhgtpxnmpln8g0qek58d9",
      "value": 600
    }
  ],
  "size": 4458,
  "weight": 4740,
  "fee": 17775,
  "status": {
    "confirmed": true,
    "block_height": 834460,
    "block_hash": "00000000000000000000484a79b643b2524bbce82e5d8a442013fa5b8905ed98",
    "block_time": 1710307468
  },
  "hex": "02000000000101edf4acce99094ce34a8477f284417172a4a06e9b82f2b4e762c86f30ba90b4780000000000fdffffff01580200000000000022512092d0c4be49414c8ce960e04bd67b94f223e9ce71227bcb9ae8584d3d87f33a1e0340502a5565b04befa09a4a224137c61d79fc8803c0892178302b3b68fa73c9f68bc38d33b002bc6be365957a1d38f191f0f67b0f3e715a419bf0f2ffcce94dd9a8fda31020a922ae40489a540fe47c875a6a34197f2579613923dddecbadbab8e2c2885a61ac0063036f7264010109696d6167652f706e67004d080289504e470d0a1a0a0000000d49484452000001f4000001f40803000000fc082fb800000093504c54455b86974f4f4fb8690cca9a6ad99c63578e5de9ab73ebad74b9690cca935c4d4d4e5d85940102010048b657869abb6604ffc501f2b176c48478783e305386a0757e6fa96d226f8789b46b159571472f2721548c5bfff45a927959cd863cdba873928f7b50809ad09761ba8655e2a46ac27a2bb19b6bc6a37c3f724f0b4daebdab3d255da2e1b91c5e6264f7da63ffea48795d40578b4ae6000000097048597300000b1300000b1301009a9c1800000f6749444154789ced9d8976e23802458d92c80eee81662604e80c592b9ddea7feffebe690806dc9245eca06d9ef5e38a9147b7cfd2459127214010000000000000000000000000000000000000000000000000000000000744edafd4b42e8cccefd01e0d4a44fbf9dfc3de1dca47f9ffb13000000000000000000000000000000000000000000000000000000000000000000000000c090497be29cef5da2ffcd382866bd51e3bd6f4e042b3216496f96b7fdb0dedea4e77aef129b15da8b1b7e3bef85645e47fafc44dcae6694f045e9a61f6a4937a701e9de86df9ac4249d53577a82f4f1484f6a4b4ffa87a48796f4a47f904ed2e521e98250a70b42d20521e9829c37e9dbb9a1f5ae96f42dd2cf01491784a40b7274c0a583f2fe8c75bad9bdbbf707498db295a790a4d543ab9dd44d0802f1667ebbdd54b0bd4dfa68c819233db43a5b6d6ebd0dbdf4fffa74737bbb712eeb6eac27efa3ea5f5dfa69c69924294fa248652651a4b36569a72f15baa937c9e926bded427abd41d3a49fe27d5b2ae22219d2d972ed6ffb65a9a6f537cfaa13e9e7c324c95626d79f4977b687a96c5ecd46213d8d5441ba20481704e982205d10a40b827441902e08d20541ba20481704e9821c953e4bbf669c7def691ba2b1485fde54ac1fd1d1d0eac930e541dc23d27b5a4a6320d237cb4aba9944713a4c69a28c2f7d962edb30c8e52b8e4937eb4a4ef355d2aed805bb64cbdb0e37cb751b2a87a10721bda6cd21394f8c9997aa2c7f3bdc2ccdbcc54b8f437acd851f0665ddeca4a7bd2c79310ee963c4d495def475c792f43162908ef42390f4b16148babb8753bcbf43d2c78621e90e24fd03923e360c497720e91f90f4b16148ba0349ff80a48f0d43d25593fe35edfbde5da201a0237df6f50c98d6d2fd193751f888484f96e9ea6bd2168be59924d9945e370a1f0de9c9fab69a36d2cd7a884bd7a848379527ee69331bc82489f722f35ba4878149d6eb3e66031d996b93203d20e9c9498a3343d243c1205db24e5f9374a4f704c57b3018924ef1de1f243d180c4927e9fd41d283c1907492de1f243d180c49f792be5acf9b7f597358fd3906e9a5e2bdacb4c6661c1206e935ceca43d2475da74751794ac9a6babc1f56d40d49f729cd17dbcc2b954d08020eca7982f4aae047e908936e4ef4898752bc97d8494f4685413ad2fb83a40b6228def53048d7c3205d0f83743d0cd2f53048d7c3205d0f83743d0cd2878d69b3147808d2d3e68cb0efbd256db64208d25b9d8c06e9d992038d31e7975eb5e6c671909e9dacacc5a97ccebcd4d0eefc696d18d868795fec4f56d6f43a3bffa4c7b9bf40460d709e499f356c0ea5511ac477cf5b80f52ce9e776d818890507fa03e9821892ae8741ba1e06e97a18a4eb6190ae8741ba1e06e97a18a4eb6190ae8741ba1e06e97a18a4eb6190ae8741ba1e06e97a18a4eb6190ae8741ba1e06e97a18a4eb6190ae8741ba1e06e97a18a4eb6190ae8741ba1e06e97a18a40780e9e5a13ff655e52834c6f0ad5573d2a71d5994e0e66bcebdd6c818a59bc414564ba8bff24b177fb649cca672b1915568d6c720ddbcdee73c5fd6bb5cbe76f2579b1a8b7804b76cc108a427f3fb4573e2fb8e8af74ad6cb19d2bbc6ccef17b6399d48afdbd48b82622449b771336cdc4dd2ab417a3f9b758e74925e03923ef0e2dd9074925e07924ed27b84865c3fcc69c8c935e40cd2f5a42748d7936e90ae273d41ba9e7483f456d27b59cbbdd68b347f2753ba05e963976e9c29133b487a1be9a551ff8e9cf7738208f3faadc4ae87ad11ea3d72ab4de9ac3c5d257dbd5ebf3ad7579f36c5fbeb5187486f446922dfb29ba8cf5f2fae9faf9d6bbc70dc2cbeb598b3645eadefd892f44d0802c661f7987523ddcc5faf7d763356e2ec62e396d2e3c6c9a678afa023e9c9fcf5b924ddd185f470e82ee9484f826cc81d81a477899674922e289d3a5d503a4917944ed205a5937441e9245d503a4917944ed205a5937441e922493703fc7efa0e7f5d9c13263d999bc697d78ea4cf4f45702b5144e9cd72e3d1d1248a3ad2efefef5f1b5fe24ea45fde77c27653c576155cd2d39b4d4fd3a52aa5b776677fd479bc1bcc5f74c143c5ca5241ae2eb593ded3c4c81a496fb16a88ddbd4217496ff5dea5cff250b98a5c80ebc8bd27ddf43147b04e9dde7653db40a4c78b87a76880f426bd3ae9236081f486491f3e16e9247d289cb14e1f3e96a493f4a140d27f00924ed20703496fc3be6942d249fa6020e93f004927e98321b0a477d1237e8c1629aef359384e1fd971baadf118a47791f46f0ffd60db38af11f5b7a700474e8735ca66e3cddd551fdc3db638f9835df6f259aeaecebe9f0455a7dbc5e6eeeaae7bae5a4aaff3d2cdb91baff43124fdae970f43d205a5df91743de957e395deaa4e97907e375ee9d4e99f325ee924fd3348ba60f17e45d2f5a4df8d573a75faa78c573a75fa679074c1e2fd8aa4eb49bf1baf74eaf44f4947fb55e5fe46d9ae9a13d828db6cac8b12b44c7aadadd614c6d33de9b39e961f6997f4efbf5573d5825649aff1597e6b13f5b3273d8a661edd9dc3a585f45f7eaae6f1d7e6bcb538cd8badf1597ed936ff4d08022cd7ab5970ab4b9d6c1db9b6d25f2e9af3d093f4dd87796ec6c5e5ea49771db9b1486fca730849f720e93d4b27e9274afa6550491f6df1ae53a73785a40b4a7f26e97ad22fc72b3dacd6fb6540d2493a490f825126fd81a49f423aadf7cfa04ea74e0f0292fe0ead77ea7481d67b355563ee8686dcd0eaf41fb71e98f4cba05aef018eb2ad6a9cafe6b5baf59edc5f3797bedd6c2bb968b3e84c1be9d51f65bb5db5e0ec13238ff1b6882b2ef6a55afabae4bc7aa1215be7643971637b0d9f71785e9d13f73c45b38697dd353cd2b7ddc98c3ebfec7edcf722bdee595de27a0f3b3cf8f0b99bee2b355e7b98a7f33842faf6f52c42db9bf4c1b140ba9c748b743de931d2f5a45ba4eb498f91ae27dd225d4f7a8c743de916e97ad263a4eb49b748d7931e235d4fba45ba9ef418e97ad2ad98f47925c9f8a5c752d2bf5dd7985d337ee9564c7a2bc6263d46ba9e748b743de931d2f5a45ba4eb498f91ae27dd225d4f7a8c743de916e97ad263a4eb49b748d7931e235d4fba45ba9ef418e93f2efde8374503de512cd23b915eebb660188df4595471ee8b1e87568fdd1db0733b50e9e9cde31f3eff94b0a7916ee3ebef3b3e4e20f4feebf78bc6a7dc39218395fec7cf3efffbafc73f8eac1ea52f36bff86c02966e91ae273d46ba9e748b743de931d2f5a45ba4eb4927e982d22d49d7931e235d4fba45ba9ef418e97ad22dd2f5a4c748d7936e914d0802ae273d46ba9e743b72e92e210dadda464bfe774bfcf014e4b9393a91ee9fc5c29e4cfa4fd549b78b73112f1ecae7e648a3b482b388ae925ee2af479f9dc217f74717d2e3e7179fca993376f1bce9871a6762faf5c937fa5483d920a4a74fb31d4fd96555da7d1f3b907e34b4d5417ff94f35d3364c6ae13ee7cf7f55f2fbd320a497ce2436cbce3bb4ff65f678ae29d0b696f40f3baeac2a99bb271cbfe6ff7acaa793f1484f2b0ba44ea4b7c2d6933ef5457feebc784f65dadd3d09e981499f1eaefb84ee42fa2ecdf7b6cff2c723dfafd9e39c671fee75ca05921e9cf4c95edf21c4efbe0f16f370ef7d1e7cfb057beeb8f0c4bd7ea407257df26137cbed21e9efeaf6fbc0fecebccade3fcbb91e6ef3ea818ffd03e941499f1ef29b65b4f823d378f05f94eeb6e20eb715f69fac56407a58d2f7eccbec8f7fb328e77b4456cb172bf12ced9ef4fdfdfbd77dffdfefb4dec3933ed997e099df43555f68ac39ed34f7286dff3a5961504cfafb7d480f51fa01a726cf427da4499e67df29f25de9fb92638af4a0a44ff3067a66fd10fabcf1566ca2bbfd3305c1fba7178bf7ace947d243923e39d6d352d49d4bf7c4babd70c55d267f06d28791f4770ec576965bd7795ee3e70776eebd79d43fae243d38e9532fb1858eb6720f4c41eebeb576e476f749480f2be93bbc869adb56cb6ef7129d3dcebfb1f8c4acccf87db4a36c831b7099ba312f764d0802ba964a00bf21e7fee6ee07eeb38693f4bf2af923f851b6ef5f1afffe51bc7f21bd5002eca3eb74a87fa6bdd86173280a06203d8a6637d5d47895334abff877357f7b07e1c78af7cf92ee74d1baf64b8dfe41243daa9cd1556f56d700a44fcb5de8c53017c662bc6ed9c2604c5ee57bdef331984148ef8601489f1c3b62739c158bf7a25ff79ef22f85e26220c5bb8cf4e9d1e374df7eb13ba6a8d6df0b0e593f94edd903911eb2f469b983add4d42ba4beb82be40f2cf6e97c3c1fe921499f7855b37b385eaee8b312db3b6ccb5d17475d487ac8c5fb343fce2ada2c1dc7650f2a14e5fee8db61265db1c427e92149ffa0d0edea64de3f4e3f34e3f3babc58bb170ef3fcb61fd283923ecda53b4325f9186ba1f9566890bb47e2fb5da0346192a40759bc4f3261deb88a5382e74330c5567abe87f853619dff4c2653921e92f4492eb83c485a68a01527d015739fd705a57de1f0db40e6bd0b1da74f3e6baa7b9da9f90ce84cac5bbc3bb3290b3df7ef8f407a50d2a7c7a25dbc35ef6b29f5ade72dba721fadb3db203d2ce9135750b125e734e7f29d222fc8bde23d3b782f0fd092f453488fe3879ad2fd441767c2387633a1ee5cc8428f9cdb6b533cfa47fa49a42f1a1da73bc23c6ba50e1aaf307006660b5f88283c18e98126bd57487a48d24f04d24f22ddd6e165db0f7ffbfc598373af3933fce3f473b25b476ee6109d7feda8d3a12b5d984d0802a0a5db9e407ac0d27b83a4eb49b748d7931e235d4fba45ba9ef418e97ad22dd2f5a4c748d7936e91ae273d46ba9e748b74a4ab1174df7b6f90f4f14bb7a511973746d9c62dddc66f8f2bff72ee12f6ac0814ef76f1b63f815171d2843222d22340ba36245d10a40b827441902e08d20541ba20481704e982205d10a40b827441902e08d20519a574ebcf93616875e4d2ede22d5db9e07cecd2e3c51bf364d48a77bb78d39e0ca5283d169fea2a29dd2e902e59a747a025dd225d30e9314997936e49ba9ef418e97ad22dd2f5a4c7d4e97ad22d49d7931e235d4fba45ba8074cb32137ad2e385079d33e397fef0e6f2c0d0ead8a5dbc563ba4ad355e1c24499f14b5fb9836acca0187f9d6e178f4f445b507a044887af21e982205d10a40b827441902e08d20541ba20481704e982205d90bad2c36541df7b4fd24f32e3a52548ef43facbe5b73eb8785c750203ab3d487f7979beec838b7416cd3aa0f1df2c4fada4f7247d25bff50593be427ab0d249fad820e98290744148ba20245d10922e08491784a40b42d20521e98290744148ba20245d10922e08491784a40b42d20521e98290744148ba20245d10922e08491784a40b42d20521e98290744148ba20245d10922e08491784a40b42d20521e98290744148ba20245d10922e08491784a40b42d20521e98290744148ba20245d10922e08491784a40b42d20521e982907441487ad43fff0714fd6fc0b4358ca1790000000049454e44ae4260826821c0a922ae40489a540fe47c875a6a34197f2579613923dddecbadbab8e2c2885a6100000000"
}