{
  "txid": "9a8e6e5702e567cec516ef2f53d8d90e0c0cd49c71d1a3d62de36c18742b39b1",
  "version": 2,
  "locktime": 834544,
  "vin": [
    {
      "txid": "326f6676a61850399fb5c00a24f0a6b7139e0f7c20a33f0cf7b2639829e75080",
      "vout": 0,
      "prevout": {
        "scriptpubkey": "00141a4a5f3e216ba1be69f275de8cffa6a94e515ac1",
        "scriptpubkey_asm": "OP_0 OP_PUSHBYTES_20 1a4a5f3e216ba1be69f275de8cffa6a94e515ac1",
        "scriptpubkey_type": "v0_p2wpkh",
        "scriptpubkey_address": "bc1qrf99703pdwsmu60jwh0gelax4989zkkpvcv76n",
        "value": 40914060
      },
      "scriptsig": "",
      "scriptsig_asm": "",
      "witness": [
        "3044022074670b29fe9f3f991dfb50cf950b968386d78ef76c2521bf0c8b4da3ea8e42e102200f2156d2a791ce63c19c8a9db239a0951d702fc7d1db7e4d5b360c9ef53d197f01",
        "035e0de4fd8a938319d375218f7bd73721ebb243b132fc78ac5a966ff48db0666f"
      ],
      "is_coinbase": false,
      "sequence": 4294967294
    },
    {
      "txid": "c7a37ff8bc4cd0cb781fcdafaa64942d4a2b6ac75f9b1c7bcf76e80ad2797824",
      "vout": 0,
      "prevout": {
        "scriptpubkey": "00140fd39983d6ee71578e3dfc52993624d61bb76969",
        "scriptpubkey_asm": "OP_0 OP_PUSHBYTES_20 0fd39983d6ee71578e3dfc52993624d61bb76969",
        "scriptpubkey_type": "v0_p2wpkh",
        "scriptpubkey_address": "bc1qplfenq7kaec40r3al3ffjd3y6cdmw6tfmm3rel",
        "value": 4590918
      },
      "scriptsig": "",
      "scriptsig_asm": "",
      "witness": [
        "3044022003f77bfa3d3b5d4a0d82ccc0198cc5d3349651c343572dfd7238216a1a810045022071a78b5df1ca0e43dee04b9c51afe02b2bd2202344452f8db5df014cfc5c74ca01",
        "03b0d38a39cb1a60496b21fa136c9c415ec726ea0d958d7ee00af288ceeaa1c818"
      ],
      "is_coinbase": false,
      "sequence": 4294967294
    },
    {
      "txid": "550014922c54b90602d8fc9bd19419a8f15ea312158db398c61dd07cc94934d9",
      "vout": 35,
      "prevout": {
        "scriptpubkey": "001495141ffeaa5836133d56b725b68dc0852b74b0af",
        "scriptpubkey_asm": "OP_0 OP_PUSHBYTES_20 95141ffeaa5836133d56b725b68dc0852b74b0af",
        "scriptpubkey_type": "v0_p2wpkh",
        "scriptpubkey_address": "bc1qj52pll42tqmpx02kkujmdrwqs54hfv90znvn3e",
        "value": 189986
      },
      "scriptsig": "",
      "scriptsig_asm": "",
      "witness": [
        "304402200645410c6b4576eb1ed36bb78d41bde82296530b4b40a03c197e05c0f09a76b002202440160de433575ff9d3f2e9abc399e170a943ad900652d2861bd64a0cf6615d01",
        "02cf14b4d6aee38ea8be2fbbeb0d20644b2d77c703c45b48ba79fa2a0ef0fad9da"
      ],
      "is_coinbase": false,
      "sequence": 4294967294
    },
    {
      "txid": "1456b6e461d72997560989367b7c238d9a32c793de292823a5901d9b7b68b5b2",
      "vout": 1,
      "prevout": {
        "scriptpubkey": "001441b0ab310801f1a3853a5790aa1cb617d8de500b",
        "scriptpubkey_asm": "OP_0 OP_PUSHBYTES_20 41b0ab310801f1a3853a5790aa1cb617d8de500b",
        "scriptpubkey_type": "v0_p2wpkh",
        "scriptpubkey_address": "bc1qgxc2kvggq8c68pf627g2589kzlvdu5qtct593l",
        "value": 19116285
      },
      "scriptsig": "",
      "scriptsig_asm": "",
      "witness": [
        "304402200407d8ca758a701285ca741f61c265f759ac2f2c179cb61fe38546e3f67d1e28022037e043511e0708a7cde002f3da4c973b49eebf33b28d6c6dfd9c1ec25a88bdd001",
        "02ec0525d112e99b110c88c26ed85da0ebbfb32a8f373dbfe77a320664675cb444"
      ],
      "is_coinbase": false,
      "sequence": 4294967294
    }
  ],
  "vout": [
    {
      "scriptpubkey": "00148abc4d1a6d59087c8fca6bcf2ac51b2d822be759",
      "scriptpubkey_asm": "OP_0 OP_PUSHBYTES_20 8abc4d1a6d59087c8fca6bcf2ac51b2d822be759",
      "scriptpubkey_type": "v0_p2wpkh",
      "scriptpubkey_address": "bc1q327y6xndtyy8er72d08j43gm9kpzhe6es08evp",
      "value": 64801244
    }
  ],
  "size": 635,
  "weight": 1250,
  "fee": 10005,
  "status": {
    "confirmed": true,
    "block_height": 834638,
    "block_hash": "000000000000000000025f742c626208ac87e0b7d15054abb4a19ca2d735a54e",
    "block_time": 1710405325
  },
  "hex": "020000000001048050e7299863b2f70c3fa3207c0f9e13b7a6f0240ac0b59f395018a676666f320000000000feffffff247879d20ae876cf7b1c9b5fc76a2b4a2d9464aaafcd1f78cbd04cbcf87fa3c70000000000feffffffd93449c97cd01dc698b38d1512a35ef1a81994d19bfcd80206b9542c921400552300000000feffffffb2b5687b9b1d90a5232829de93c7329a8d237c7b368909569729d761e4b656140100000000feffffff01dcc9dc03000000001600148abc4d1a6d59087c8fca6bcf2ac51b2d822be75902473044022074670b29fe9f3f991dfb50cf950b968386d78ef76c2521bf0c8b4da3ea8e42e102200f2156d2a791ce63c19c8a9db239a0951d702fc7d1db7e4d5b360c9ef53d197f0121035e0de4fd8a938319d375218f7bd73721ebb243b132fc78ac5a966ff48db0666f02473044022003f77bfa3d3b5d4a0d82ccc0198cc5d3349651c343572dfd7238216a1a810045022071a78b5df1ca0e43dee04b9c51afe02b2bd2202344452f8db5df014cfc5c74ca012103b0d38a39cb1a60496b21fa136c9c415ec726ea0d958d7ee00af288ceeaa1c8180247304402200645410c6b4576eb1ed36bb78d41bde82296530b4b40a03c197e05c0f09a76b002202440160de433575ff9d3f2e9abc399e170a943ad900652d2861bd64a0cf6615d012102cf14b4d6aee38ea8be2fbbeb0d20644b2d77c703c45b48ba79fa2a0ef0fad9da0247304402200407d8ca758a701285ca741f61c265f759ac2f2c179cb61fe38546e3f67d1e28022037e043511e0708a7cde002f3da4c973b49eebf33b28d6c6dfd9c1ec25a88bdd0012102ec0525d112e99b110c88c26ed85da0ebbfb32a8f373dbfe77a320664675cb444f0bb0c00"
}