{
  "txid": "9a91ae818df762adf0d15ac5af73ce85de3c50d2fadbe7b394049252e28a4b7b",
  "version": 2,
  "locktime": 0,
  "vin": [
    {
      "txid": "81af6254012f2f6bdcd78b6bf48f7d8fe821704a725ff3e2e253a59ba3a006bc",
      "vout": 0,
      "prevout": {
        "scriptpubkey": "0014020a1e4659b95e51e1d8227663948ec0b0f180ba",
        "scriptpubkey_asm": "OP_0 OP_PUSHBYTES_20 020a1e4659b95e51e1d8227663948ec0b0f180ba",
        "scriptpubkey_type": "v0_p2wpkh",
        "scriptpubkey_address": "bc1qqg9pu3jeh909rcwcyfmx89ywczc0rq963htd6y",
        "value": 6334
      },
      "scriptsig": "",
      "scriptsig_asm": "",
      "witness": [
        "3044022023da24a3dedd671d171dfe49de7895d4d14bc0652aabb88c8f646e8f901b0cb902204f0a79a6ecf6a9aa43cb8e03f90d65e0890ef5326b37fa005d96f101c7f9bbf601",
        "02b7d4186eda20b0badf11d752d03bd83000d1af4a946c805df4fb8b937f1cef5a"
      ],
      "is_coinbase": false,
      "sequence": 4294967295
    },
    {
      "txid": "d62b84a358ba19d37b64f6b4dd824e63be4bf62c2e404bdfacc7d88841fc96a2",
      "vout": 1,
      "prevout": {
        "scriptpubkey": "0014020a1e4659b95e51e1d8227663948ec0b0f180ba",
        "scriptpubkey_asm": "OP_0 OP_PUSHBYTES_20 020a1e4659b95e51e1d8227663948ec0b0f180ba",
        "scriptpubkey_type": "v0_p2wpkh",
        "scriptpubkey_address": "bc1qqg9pu3jeh909rcwcyfmx89ywczc0rq963htd6y",
        "value": 431193
      },
      "scriptsig": "",
      "scriptsig_asm": "",
      "witness": [
        "304402207826defe1b59825547175afdb2e37d058ed0d951db36de0da79de0129d1155b3022048d3e66e29b972931311ac33fe495c47e6dcf28c273a5ac506075f61ec96871901",
        "02b7d4186eda20b0badf11d752d03bd83000d1af4a946c805df4fb8b937f1cef5a"
      ],
      "is_coinbase": false,
      "sequence": 4294967295
    }
  ],
  "vout": [
    {
      "scriptpubkey": "0014020a1e4659b95e51e1d8227663948ec0b0f180ba",
      "scriptpubkey_asm": "OP_0 OP_PUSHBYTES_20 020a1e4659b95e51e1d8227663948ec0b0f180ba",
      "scriptpubkey_type": "v0_p2wpkh",
      "scriptpubkey_address": "bc1qqg9pu3jeh909rcwcyfmx89ywczc0rq963htd6y",
      "value": 425351
    },
    {
      "scriptpubkey": "00207efb9d9aaa96e12f4f4c34666735979b67a44f2414d75382dd8d85b157189708",
      "scriptpubkey_asm": "OP_0 OP_PUSHBYTES_32 7efb9d9aaa96e12f4f4c34666735979b67a44f2414d75382dd8d85b157189708",
      "scriptpubkey_type": "v0_p2wsh",
      "scriptpubkey_address": "bc1q0maemx42jmsj7n6vx3nxwdvhndn6gneyznt48qka3kzmz4ccjuyqh3hx7t",
      "value": 9159
    }
  ],
  "size": 382,
  "weight": 880,
  "fee": 3017,
  "status": {
    "confirmed": true,
    "block_height": 834460,
    "block_hash": "00000000000000000000484a79b643b2524bbce82e5d8a442013fa5b8905ed98",
    "block_time": 1710307468
  },
  "hex": "02000000000102bc06a0a39ba553e2e2f35f724a7021e88f7d8ff46b8bd7dc6b2f2f015462af810000000000ffffffffa296fc4188d8c7acdf4b402e2cf64bbe634e82ddb4f6647bd319ba58a3842bd60100000000ffffffff02877d060000000000160014020a1e4659b95e51e1d8227663948ec0b0f180bac7230000000000002200207efb9d9aaa96e12f4f4c34666735979b67a44f2414d75382dd8d85b15718970802473044022023da24a3dedd671d171dfe49de7895d4d14bc0652aabb88c8f646e8f901b0cb902204f0a79a6ecf6a9aa43cb8e03f90d65e0890ef5326b37fa005d96f101c7f9bbf6012102b7d4186eda20b0badf11d752d03bd83000d1af4a946c805df4fb8b937f1cef5a0247304402207826defe1b59825547175afdb2e37d058ed0d951db36de0da79de0129d1155b3022048d3e66e29b972931311ac33fe495c47e6dcf28c273a5ac506075f61ec968719012102b7d4186eda20b0badf11d752d03bd83000d1af4a946c805df4fb8b937f1cef5a00000000"
}