{
  "txid": "9a962ede107e9dbf1446b90edcea263e4e0329bda913945c942e2cf163a131b2",
  "version": 1,
  "locktime": 0,
  "vin": [
    {
      "txid": "50d145dab27c6798077fbd2ff54908119a87864eaeb288e331af223435ef2e30",
      "vout": 0,
      "prevout": {
        "scriptpubkey": "0014dc6bf86354105de2fcd9868a2b0376d6731cb92f",
        "scriptpubkey_asm": "OP_0 OP_PUSHBYTES_20 dc6bf86354105de2fcd9868a2b0376d6731cb92f",
        "scriptpubkey_type": "v0_p2wpkh",
        "scriptpubkey_address": "bc1qm34lsc65zpw79lxes69zkqmk6ee3ewf0j77s3h",
        "value": 9696932795
      },
      "scriptsig": "",
      "scriptsig_asm": "",
      "witness": [
        "304402200d8fb7a93ae49b820d4d2dfa9574f13fb4eb4d99526d548d7a111785bd551960022032355bf172fed6c99e9ae3b4f687e5b7fd7c6abfdc236cb3d1f6813fe411ce2a01",
        "02174ee672429ff94304321cdae1fc1e487edf658b34bd1d36da03761658a2bb09"
      ],
      "is_coinbase": false,
      "sequence": 4294967295
    }
  ],
  "vout": [
    {
      "scriptpubkey": "0014576bb97806ff12a909c6e65618f14a99c237b5c1",
      "scriptpubkey_asm": "OP_0 OP_PUSHBYTES_20 576bb97806ff12a909c6e65618f14a99c237b5c1",
      "scriptpubkey_type": "v0_p2wpkh",
      "scriptpubkey_address": "bc1q2a4mj7qxluf2jzwxuetp3u22n8pr0dwp3kzec4",
      "value": 62000
    },
    {
      "scriptpubkey": "0014dc6bf86354105de2fcd9868a2b0376d6731cb92f",
      "scriptpubkey_asm": "OP_0 OP_PUSHBYTES_20 dc6bf86354105de2fcd9868a2b0376d6731cb92f",
      "scriptpubkey_type": "v0_p2wpkh",
      "scriptpubkey_address": "bc1qm34lsc65zpw79lxes69zkqmk6ee3ewf0j77s3h",
      "value": 555362338
    },
    {
      "scriptpubkey": "00148f4df3cde8c4ec50d3fd958c508f7083316bc5ea",
      "scriptpubkey_asm": "OP_0 OP_PUSHBYTES_20 8f4df3cde8c4ec50d3fd958c508f7083316bc5ea",
      "scriptpubkey_type": "v0_p2wpkh",
      "scriptpubkey_address": "bc1q3axl8n0gcnk9p5lajkx9prmssvckh3028apn50",
      "value": 75180
    },
    {
      "scriptpubkey": "a91446d1c5a5d17146f7e84d2401c5f210f6aba0127a87",
      "scriptpubkey_asm": "OP_HASH160 OP_PUSHBYTES_20 46d1c5a5d17146f7e84d2401c5f210f6aba0127a OP_EQUAL",
      "scriptpubkey_type": "p2sh",
      "scriptpubkey_address": "389UXBzCGnnMBigQAi7VrYDcyNCt6WGqmb",
      "value": 40000
    },
    {
      "scriptpubkey": "76a91482fee73fc15d815a6b8f54203d5f685307424e1d88ac",
      "scriptpubkey_asm": "OP_DUP OP_HASH160 OP_PUSHBYTES_20 82fee73fc15d815a6b8f54203d5f685307424e1d OP_EQUALVERIFY OP_CHECKSIG",
      "scriptpubkey_type": "p2pkh",
      "scriptpubkey_address": "1CweCvzVqoMX5bWuSUcttXPGpWFPScCmuQ",
      "value": 268000
    },
    {
      "scriptpubkey": "a9144494bda3b3486eca4d7120a2eda621e11bba338c87",
      "scriptpubkey_asm": "OP_HASH160 OP_PUSHBYTES_20 4494bda3b3486eca4d7120a2eda621e11bba338c OP_EQUAL",
      "scriptpubkey_type": "p2sh",
      "scriptpubkey_address": "37we4H7vAS7HZYK2CQyd8cT73zn5E2v4Gb",
      "value": 580000
    },
    {
      "scriptpubkey": "00147819b5c95f240769d8cd0ec1d244fc28c2c1c43b",
      "scriptpubkey_asm": "OP_0 OP_PUSHBYTES_20 7819b5c95f240769d8cd0ec1d244fc28c2c1c43b",
      "scriptpubkey_type": "v0_p2wpkh",
      "scriptpubkey_address": "bc1q0qvmtj2lysrknkxdpmqay38u9rpvr3pm5fsdv8",
      "value": 335728
    },
    {
      "scriptpubkey": "512053a68a7e1e2c7aa3f0807175df59b26c96b7df1a5f73a592910a17d0c4724eff",
      "scriptpubkey_asm": "OP_PUSHNUM_1 OP_PUSHBYTES_32 53a68a7e1e2c7aa3f0807175df59b26c96b7df1a5f73a592910a17d0c4724eff",
      "scriptpubkey_type": "v1_p2tr",
      "scriptpubkey_address": "bc1p2wng5ls793a28uyqw96a7kdjdjtt0hc6tae6ty53pgtap3rjfmls966rsh",
      "value": 162668
    },
    {
      "scriptpubkey": "a914befb3c52d18a75f9cde9367c7d2afda7c44c8ba887",
      "scriptpubkey_asm": "OP_HASH160 OP_PUSHBYTES_20 befb3c52d18a75f9cde9367c7d2afda7c44c8ba8 OP_EQUAL",
      "scriptpubkey_type": "p2sh",
      "scriptpubkey_address": "3K6qH9dyNByGiY2WenehEmtQJdufUAPKid",
      "value": 98962000
    },
    {
      "scriptpubkey": "5120f148e9a4d3dc2cc95667f2b17d79ff6d283c700675261f53fc7da4daff10d6b1",
      "scriptpubkey_asm": "OP_PUSHNUM_1 OP_PUSHBYTES_32 f148e9a4d3dc2cc95667f2b17d79ff6d283c700675261f53fc7da4daff10d6b1",
      "scriptpubkey_type": "v1_p2tr",
      "scriptpubkey_address": "bc1p79ywnfxnmskvj4n872ch670ld55rcuqxw5np75lu0kjd4lcs66csy03fcu",
      "value": 162040
    },
    {
      "scriptpubkey": "a914e7080190239d029f238d6cc07e1cca4b3ef8962b87",
      "scriptpubkey_asm": "OP_HASH160 OP_PUSHBYTES_20 e7080190239d029f238d6cc07e1cca4b3ef8962b OP_EQUAL",
      "scriptpubkey_type": "p2sh",
      "scriptpubkey_address": "3Nkbc8XS3U7DcJGh9ruFpJUF7cW8W4ASUz",
      "value": 110000
    },
    {
      "scriptpubkey": "a91400c8308ea395c7481af9ae804f0544603168036487",
      "scriptpubkey_asm": "OP_HASH160 OP_PUSHBYTES_20 00c8308ea395c7481af9ae804f05446031680364 OP_EQUAL",
      "scriptpubkey_type": "p2sh",
      "scriptpubkey_address": "31m9jxzyMYGesryqPvJzMPtRzsJa7Z4w2Z",
      "value": 29107100
    },
    {
      "scriptpubkey": "a9147cc3ca2535e0af643659514d06d107a3d4feb65887",
      "scriptpubkey_asm": "OP_HASH160 OP_PUSHBYTES_20 7cc3ca2535e0af643659514d06d107a3d4feb658 OP_EQUAL",
      "scriptpubkey_type": "p2sh",
      "scriptpubkey_address": "3D4iG2rM6rXf89vcgsDTNMopTf8cyBjcoY",
      "value": 1440747
    },
    {
      "scriptpubkey": "a91417db5277bbd176e5c6e73597335a5c080ff3743687",
      "scriptpubkey_asm": "OP_HASH160 OP_PUSHBYTES_20 17db5277bbd176e5c6e73597335a5c080ff37436 OP_EQUAL",
      "scriptpubkey_type": "p2sh",
      "scriptpubkey_address": "33sACj22MygQKUdbDb3NokX8ZqgtLqYV3Y",
      "value": 4999980000
    },
    {
      "scriptpubkey": "0014f28d4c1d0e163bc82c5d06d07cc4cd7d609c81b8",
      "scriptpubkey_asm": "OP_0 OP_PUSHBYTES_20 f28d4c1d0e163bc82c5d06d07cc4cd7d609c81b8",
      "scriptpubkey_type": "v0_p2wpkh",
      "scriptpubkey_address": "bc1q72x5c8gwzcaustzaqmg8e3xd04sfeqdcaud0r2",
      "value": 131600
    },
    {
      "scriptpubkey": "001480a2c27450ad362cb80f59936744a57e36136276",
      "scriptpubkey_asm": "OP_0 OP_PUSHBYTES_20 80a2c27450ad362cb80f59936744a57e36136276",
      "scriptpubkey_type": "v0_p2wpkh",
      "scriptpubkey_address": "bc1qsz3vyazs45mzewq0txfkw3990cmpxcnk8330y9",
      "value": 78861
    },
    {
      "scriptpubkey": "00145a9cb5164795930cd36276485a5d509143e4bdf2",
      "scriptpubkey_asm": "OP_0 OP_PUSHBYTES_20 5a9cb5164795930cd36276485a5d509143e4bdf2",
      "scriptpubkey_type": "v0_p2wpkh",
      "scriptpubkey_address": "bc1qt2wt29j8jkfse5mzwey95h2sj9p7f00jew4s8k",
      "value": 3839980000
    },
    {
      "scriptpubkey": "76a914f48add7c306bdd2646f763733f7f929b22d1647c88ac",
      "scriptpubkey_asm": "OP_DUP OP_HASH160 OP_PUSHBYTES_20 f48add7c306bdd2646f763733f7f929b22d1647c OP_EQUALVERIFY OP_CHECKSIG",
      "scriptpubkey_type": "p2pkh",
      "scriptpubkey_address": "1PJ2EL37yv8EmdLhbhK4bY2pLXQsvABcKF",
      "value": 477017
    },
    {
      "scriptpubkey": "76a9143e2a8b552420c441cd28648731f080698843837f88ac",
      "scriptpubkey_asm": "OP_DUP OP_HASH160 OP_PUSHBYTES_20 3e2a8b552420c441cd28648731f080698843837f OP_EQUALVERIFY OP_CHECKSIG",
      "scriptpubkey_type": "p2pkh",
      "scriptpubkey_address": "16fhrvRPRUgX6EyYNroCmpvZpYuM6iSXDb",
      "value": 40000
    },
    {
      "scriptpubkey": "76a914ec2a3508a313c630b176734ee00517c22f5fa4bb88ac",
      "scriptpubkey_asm": "OP_DUP OP_HASH160 OP_PUSHBYTES_20 ec2a3508a313c630b176734ee00517c22f5fa4bb OP_EQUALVERIFY OP_CHECKSIG",
      "scriptpubkey_type": "p2pkh",
      "scriptpubkey_address": "1NXj2ssVfD1QPEUzLcMcHb5Pmn6zaxDEXc",
      "value": 4067908
    },
    {
      "scriptpubkey": "0014a4e0bd75058a2989801f243ea0ab63f9e317da3b",
      "scriptpubkey_asm": "OP_0 OP_PUSHBYTES_20 a4e0bd75058a2989801f243ea0ab63f9e317da3b",
      "scriptpubkey_type": "v0_p2wpkh",
      "scriptpubkey_address": "bc1q5nst6ag93g5cnqqlysl2p2mrl8330k3m2knus6",
      "value": 100389210
    },
    {
      "scriptpubkey": "a9140f847166f9b5e78785f2871221840dd4a1e010a187",
      "scriptpubkey_asm": "OP_HASH160 OP_PUSHBYTES_20 0f847166f9b5e78785f2871221840dd4a1e010a1 OP_EQUAL",
      "scriptpubkey_type": "p2sh",
      "scriptpubkey_address": "3374iikQVsKkXHchmkPYZP8ck2c7yqWj8T",
      "value": 48145
    },
    {
      "scriptpubkey": "a91480aa232fd66f3893fe5a326eae0efb183bd66e0087",
      "scriptpubkey_asm": "OP_HASH160 OP_PUSHBYTES_20 80aa232fd66f3893fe5a326eae0efb183bd66e00 OP_EQUAL",
      "scriptpubkey_type": "p2sh",
      "scriptpubkey_address": "3DRLETMdYMF8edzbTA8k1ifvsDXvctVLZL",
      "value": 64948253
    },
    {
      "scriptpubkey": "5120a33229bd9ca80292d11d4644981e428a2a89c6c330753259b20b9eb48481a112",
      "scriptpubkey_asm": "OP_PUSHNUM_1 OP_PUSHBYTES_32 a33229bd9ca80292d11d4644981e428a2a89c6c330753259b20b9eb48481a112",
      "scriptpubkey_type": "v1_p2tr",
      "scriptpubkey_address": "bc1p5vezn0vu4qpf95gagezfs8jz3g4gn3krxp6nykdjpw0tfpyp5yfqt548yj",
      "value": 80000
    }
  ],
  "size": 961,
  "weight": 3517,
  "fee": 44000,
  "status": {
    "confirmed": true,
    "block_height": 834638,
    "block_hash": "000000000000000000025f742c626208ac87e0b7d15054abb4a19ca2d735a54e",
    "block_time": 1710405325
  },
  "hex": "01000000000101302eef353422af31e388b2ae4e86879a110849f52fbd7f0798677cb2da45d1500000000000ffffffff1830f2000000000000160014576bb97806ff12a909c6e65618f14a99c237b5c122281a2100000000160014dc6bf86354105de2fcd9868a2b0376d6731cb92fac250100000000001600148f4df3cde8c4ec50d3fd958c508f7083316bc5ea409c00000000000017a91446d1c5a5d17146f7e84d2401c5f210f6aba0127a87e0160400000000001976a91482fee73fc15d815a6b8f54203d5f685307424e1d88aca0d908000000000017a9144494bda3b3486eca4d7120a2eda621e11bba338c87701f0500000000001600147819b5c95f240769d8cd0ec1d244fc28c2c1c43b6c7b02000000000022512053a68a7e1e2c7aa3f0807175df59b26c96b7df1a5f73a592910a17d0c4724eff500ae6050000000017a914befb3c52d18a75f9cde9367c7d2afda7c44c8ba887f878020000000000225120f148e9a4d3dc2cc95667f2b17d79ff6d283c700675261f53fc7da4daff10d6b1b0ad01000000000017a914e7080190239d029f238d6cc07e1cca4b3ef8962b879c23bc010000000017a91400c8308ea395c7481af9ae804f0544603168036487ebfb15000000000017a9147cc3ca2535e0af643659514d06d107a3d4feb65887e0a3052a0100000017a91417db5277bbd176e5c6e73597335a5c080ff37436871002020000000000160014f28d4c1d0e163bc82c5d06d07cc4cd7d609c81b80d3401000000000016001480a2c27450ad362cb80f59936744a57e36136276e071e1e4000000001600145a9cb5164795930cd36276485a5d509143e4bdf259470700000000001976a914f48add7c306bdd2646f763733f7f929b22d1647c88ac409c0000000000001976a9143e2a8b552420c441cd28648731f080698843837f88ac44123e00000000001976a914ec2a3508a313c630b176734ee00517c22f5fa4bb88ac5ad1fb0500000000160014a4e0bd75058a2989801f243ea0ab63f9e317da3b11bc00000000000017a9140f847166f9b5e78785f2871221840dd4a1e010a1871d08df030000000017a91480aa232fd66f3893fe5a326eae0efb183bd66e00878038010000000000225120a33229bd9ca80292d11d4644981e428a2a89c6c330753259b20b9eb48481a1120247304402200d8fb7a93ae49b820d4d2dfa9574f13fb4eb4d99526d548d7a111785bd551960022032355bf172fed6c99e9ae3b4f687e5b7fd7c6abfdc236cb3d1f6813fe411ce2a012102174ee672429ff94304321cdae1fc1e487edf658b34bd1d36da03761658a2bb0900000000"
}