{
  "txid": "9aa27702588fbba557f70b1613e6eec3d77f8a88466ca4100ce4f2bc554d7a16",
  "version": 2,
  "locktime": 0,
  "vin": [
    {
      "txid": "08f3f3ef52924f76796af38ab2877dbfa8c0ea1b927cbc48e4684d22b3586419",
      "vout": 2107,
      "prevout": {
        "scriptpubkey": "00145c3491afcfd6b7f17a76a6023b0626fc4b07cf2e",
        "scriptpubkey_asm": "OP_0 OP_PUSHBYTES_20 5c3491afcfd6b7f17a76a6023b0626fc4b07cf2e",
        "scriptpubkey_type": "v0_p2wpkh",
        "scriptpubkey_address": "bc1qts6frt7066mlz7nk5cprkp3xl39s0newxrmcfe",
        "value": 55970
      },
      "scriptsig": "",
      "scriptsig_asm": "",
      "witness": [
        "3044022059bccf83dbbed020ecc5a1d97772632bdf7d704e7c05aaaa6c6ac605932b260f022027d7431b3e47b158e2df01d9a466b66e3f54c0393d88c78ce0088d23c2a3fd3d01",
        "03c8a969592d9ff9889ec01b05bbe694e2b7975f12e788518932b831f363da24d4"
      ],
      "is_coinbase": false,
      "sequence": 0
    },
    {
      "txid": "9139eea90b66b41bdbd35c99a0fd48df9825d78f64d9f5fcfb828d4a7b34ad5c",
      "vout": 2113,
      "prevout": {
        "scriptpubkey": "00145c3491afcfd6b7f17a76a6023b0626fc4b07cf2e",
        "scriptpubkey_asm": "OP_0 OP_PUSHBYTES_20 5c3491afcfd6b7f17a76a6023b0626fc4b07cf2e",
        "scriptpubkey_type": "v0_p2wpkh",
        "scriptpubkey_address": "bc1qts6frt7066mlz7nk5cprkp3xl39s0newxrmcfe",
        "value": 56009
      },
      "scriptsig": "",
      "scriptsig_asm": "",
      "witness": [
        "3045022100efcdad090d5ff04d38e36a77bc49591159a3d98e41230c286f8cf4190958975002205eb6b2d3f25d592d97bc76c028e8631e53d0df45374a7bd26815cc5caa68729a01",
        "03c8a969592d9ff9889ec01b05bbe694e2b7975f12e788518932b831f363da24d4"
      ],
      "is_coinbase": false,
      "sequence": 0
    },
    {
      "txid": "39373427b94fe7ce338aa93879014188cffdf6a5ab1b8ba37564a479aedf28a6",
      "vout": 2162,
      "prevout": {
        "scriptpubkey": "00145c3491afcfd6b7f17a76a6023b0626fc4b07cf2e",
        "scriptpubkey_asm": "OP_0 OP_PUSHBYTES_20 5c3491afcfd6b7f17a76a6023b0626fc4b07cf2e",
        "scriptpubkey_type": "v0_p2wpkh",
        "scriptpubkey_address": "bc1qts6frt7066mlz7nk5cprkp3xl39s0newxrmcfe",
        "value": 60236
      },
      "scriptsig": "",
      "scriptsig_asm": "",
      "witness": [
        "3045022100fc15da29946c1b4ec1a0e08344f9976d4adea3f00d30930d9bafdc82a8c1d7dc02200d281e13c84f66a3d9523951c2f9058361024d96b76125de2379cdadafa436e401",
        "03c8a969592d9ff9889ec01b05bbe694e2b7975f12e788518932b831f363da24d4"
      ],
      "is_coinbase": false,
      "sequence": 0
    },
    {
      "txid": "9d084e47973e68e587962cf11d5aee55c952dabf6657234f61a44bda0eb82890",
      "vout": 2148,
      "prevout": {
        "scriptpubkey": "00145c3491afcfd6b7f17a76a6023b0626fc4b07cf2e",
        "scriptpubkey_asm": "OP_0 OP_PUSHBYTES_20 5c3491afcfd6b7f17a76a6023b0626fc4b07cf2e",
        "scriptpubkey_type": "v0_p2wpkh",
        "scriptpubkey_address": "bc1qts6frt7066mlz7nk5cprkp3xl39s0newxrmcfe",
        "value": 58692
      },
      "scriptsig": "",
      "scriptsig_asm": "",
      "witness": [
        "3044022048dbc82fab7106da563e206298693f5967766329a4dfe59ceee787483ad37ebe0220706294bc5f333400d58bb66fa452cf73a102e7863279d78097cab7d6f29a865901",
        "03c8a969592d9ff9889ec01b05bbe694e2b7975f12e788518932b831f363da24d4"
      ],
      "is_coinbase": false,
      "sequence": 0
    },
    {
      "txid": "471a0614392165dc7bbf6851b7433a6135ac38137f6cee120db49b6c018df9fe",
      "vout": 2158,
      "prevout": {
        "scriptpubkey": "00145c3491afcfd6b7f17a76a6023b0626fc4b07cf2e",
        "scriptpubkey_asm": "OP_0 OP_PUSHBYTES_20 5c3491afcfd6b7f17a76a6023b0626fc4b07cf2e",
        "scriptpubkey_type": "v0_p2wpkh",
        "scriptpubkey_address": "bc1qts6frt7066mlz7nk5cprkp3xl39s0newxrmcfe",
        "value": 58407
      },
      "scriptsig": "",
      "scriptsig_asm": "",
      "witness": [
        "3045022100d30b61c5bec2d303435fe6eb796277d61a93274869a3ec04a53ddf968dff9b9d0220313022e29e6060c3a3b9e482a2fa390fd1fc45c512312cf168f36296524d4e3b01",
        "03c8a969592d9ff9889ec01b05bbe694e2b7975f12e788518932b831f363da24d4"
      ],
      "is_coinbase": false,
      "sequence": 0
    },
    {
      "txid": "b288482e07ecf3e08e057727218657ded09a8d4506329b534c1ae4408ecf8816",
      "vout": 2191,
      "prevout": {
        "scriptpubkey": "00145c3491afcfd6b7f17a76a6023b0626fc4b07cf2e",
        "scriptpubkey_asm": "OP_0 OP_PUSHBYTES_20 5c3491afcfd6b7f17a76a6023b0626fc4b07cf2e",
        "scriptpubkey_type": "v0_p2wpkh",
        "scriptpubkey_address": "bc1qts6frt7066mlz7nk5cprkp3xl39s0newxrmcfe",
        "value": 61181
      },
      "scriptsig": "",
      "scriptsig_asm": "",
      "witness": [
        "3045022100c8a0f781903b636cf21911c9c038ea97dfcef6a9340bb609fd137e3d2dc42cf202200c20b368f019ed4afe7d4009a3ad10dbcb69897948830d601b44cc41995d657001",
        "03c8a969592d9ff9889ec01b05bbe694e2b7975f12e788518932b831f363da24d4"
      ],
      "is_coinbase": false,
      "sequence": 0
    },
    {
      "txid": "d9816716e4b75c26bf76394a89899a3c1ef59d7c0a63a7089b075e8b3e354527",
      "vout": 2165,
      "prevout": {
        "scriptpubkey": "00145c3491afcfd6b7f17a76a6023b0626fc4b07cf2e",
        "scriptpubkey_asm": "OP_0 OP_PUSHBYTES_20 5c3491afcfd6b7f17a76a6023b0626fc4b07cf2e",
        "scriptpubkey_type": "v0_p2wpkh",
        "scriptpubkey_address": "bc1qts6frt7066mlz7nk5cprkp3xl39s0newxrmcfe",
        "value": 61108
      },
      "scriptsig": "",
      "scriptsig_asm": "",
      "witness": [
        "30440220158e98a851fd10a8b0c0e7798a370becf3ee9dc84a2cfeb22ff6614d6b1a3bae02206751c3d1d944efbdb8f65cb2a6efe29c8693a67cbb5788ba4363573b3c8ceb8d01",
        "03c8a969592d9ff9889ec01b05bbe694e2b7975f12e788518932b831f363da24d4"
      ],
      "is_coinbase": false,
      "sequence": 0
    },
    {
      "txid": "9a8afd7264cf62a2c170669e57b8ad1b1cf0fb04bc9b1de84e868265e4cc1234",
      "vout": 2181,
      "prevout": {
        "scriptpubkey": "00145c3491afcfd6b7f17a76a6023b0626fc4b07cf2e",
        "scriptpubkey_asm": "OP_0 OP_PUSHBYTES_20 5c3491afcfd6b7f17a76a6023b0626fc4b07cf2e",
        "scriptpubkey_type": "v0_p2wpkh",
        "scriptpubkey_address": "bc1qts6frt7066mlz7nk5cprkp3xl39s0newxrmcfe",
        "value": 61578
      },
      "scriptsig": "",
      "scriptsig_asm": "",
      "witness": [
        "30440220574e8b2347c0d7cbab5a0ea8f52cc3f64cbc30352d34c9839ff90f87438d0b1e02206bec15c8098d16ec2bafef441a8adec51b60737011938fc99904c8cbb63b8aef01",
        "03c8a969592d9ff9889ec01b05bbe694e2b7975f12e788518932b831f363da24d4"
      ],
      "is_coinbase": false,
      "sequence": 0
    },
    {
      "txid": "ccd0894f515e4363e431f5cb656138dd8250f9bd1bd80ea1328db7902ab6fec3",
      "vout": 2183,
      "prevout": {
        "scriptpubkey": "00145c3491afcfd6b7f17a76a6023b0626fc4b07cf2e",
        "scriptpubkey_asm": "OP_0 OP_PUSHBYTES_20 5c3491afcfd6b7f17a76a6023b0626fc4b07cf2e",
        "scriptpubkey_type": "v0_p2wpkh",
        "scriptpubkey_address": "bc1qts6frt7066mlz7nk5cprkp3xl39s0newxrmcfe",
        "value": 63596
      },
      "scriptsig": "",
      "scriptsig_asm": "",
      "witness": [
        "304502210092552010d4b8ef4c3bdbc83455f9904a3e08e61ed779c327677595776b8fa4ee02204fd144974368bc9446ca59e5f928cbc928a2c3bae0c3dbc8806061265948698d01",
        "03c8a969592d9ff9889ec01b05bbe694e2b7975f12e788518932b831f363da24d4"
      ],
      "is_coinbase": false,
      "sequence": 0
    },
    {
      "txid": "7111f25827a4fed49255eb891afbc10da91580b7d6f95d2a9ba8feabc097afa6",
      "vout": 2162,
      "prevout": {
        "scriptpubkey": "00145c3491afcfd6b7f17a76a6023b0626fc4b07cf2e",
        "scriptpubkey_asm": "OP_0 OP_PUSHBYTES_20 5c3491afcfd6b7f17a76a6023b0626fc4b07cf2e",
        "scriptpubkey_type": "v0_p2wpkh",
        "scriptpubkey_address": "bc1qts6frt7066mlz7nk5cprkp3xl39s0newxrmcfe",
        "value": 63673
      },
      "scriptsig": "",
      "scriptsig_asm": "",
      "witness": [
        "304402202393d83a88e336e4a737f9456aa52f9ba62f257a774f5ae6fcdeddf3487c384902207b216bd0dfb652ca37ca37c96cceb69497f627cab165a76548ae409d318ff8b001",
        "03c8a969592d9ff9889ec01b05bbe694e2b7975f12e788518932b831f363da24d4"
      ],
      "is_coinbase": false,
      "sequence": 0
    },
    {
      "txid": "8189157065dfb6cf5c1e0f3a1cfe73d9c1d8f7049549ff917ee84b88b4e0a4e2",
      "vout": 2166,
      "prevout": {
        "scriptpubkey": "00145c3491afcfd6b7f17a76a6023b0626fc4b07cf2e",
        "scriptpubkey_asm": "OP_0 OP_PUSHBYTES_20 5c3491afcfd6b7f17a76a6023b0626fc4b07cf2e",
        "scriptpubkey_type": "v0_p2wpkh",
        "scriptpubkey_address": "bc1qts6frt7066mlz7nk5cprkp3xl39s0newxrmcfe",
        "value": 63947
      },
      "scriptsig": "",
      "scriptsig_asm": "",
      "witness": [
        "3045022100f3cd6f33cddb7f490839d44f3db524f5d17d28cea86524905f251deabb45889a02206c52f7e84f083f0bb77a250dbb73aece44744b2c13be74b6222327e705896c3a01",
        "03c8a969592d9ff9889ec01b05bbe694e2b7975f12e788518932b831f363da24d4"
      ],
      "is_coinbase": false,
      "sequence": 0
    },
    {
      "txid": "15ca960a8c6bd376321beeb0bf3f54b5f3e27d024727395ca56a4040728254f3",
      "vout": 2185,
      "prevout": {
        "scriptpubkey": "00145c3491afcfd6b7f17a76a6023b0626fc4b07cf2e",
        "scriptpubkey_asm": "OP_0 OP_PUSHBYTES_20 5c3491afcfd6b7f17a76a6023b0626fc4b07cf2e",
        "scriptpubkey_type": "v0_p2wpkh",
        "scriptpubkey_address": "bc1qts6frt7066mlz7nk5cprkp3xl39s0newxrmcfe",
        "value": 62536
      },
      "scriptsig": "",
      "scriptsig_asm": "",
      "witness": [
        "3045022100e61eff5ed246f35e859f8fe4be60ffb0f938eb7bc517ed25523593cc360bd13702201f173e262277097c83684ee50e5a9126f545e50a07dd3833a9491121051c21c201",
        "03c8a969592d9ff9889ec01b05bbe694e2b7975f12e788518932b831f363da24d4"
      ],
      "is_coinbase": false,
      "sequence": 0
    },
    {
      "txid": "742dfb1937818b8b759d7d3b635d5c17a144d083d039a33b4f98ed5a1cde4e47",
      "vout": 2151,
      "prevout": {
        "scriptpubkey": "00145c3491afcfd6b7f17a76a6023b0626fc4b07cf2e",
        "scriptpubkey_asm": "OP_0 OP_PUSHBYTES_20 5c3491afcfd6b7f17a76a6023b0626fc4b07cf2e",
        "scriptpubkey_type": "v0_p2wpkh",
        "scriptpubkey_address": "bc1qts6frt7066mlz7nk5cprkp3xl39s0newxrmcfe",
        "value": 60009
      },
      "scriptsig": "",
      "scriptsig_asm": "",
      "witness": [
        "3045022100e85d3e8d0bdb93bb3713a96fc93627c3299f966b4f0d0dfda792d07e84a20d6402204d8015a98fb797ae515ad17ad72087c3a2827bc0688cb8eabe0f035bc63dc64e01",
        "03c8a969592d9ff9889ec01b05bbe694e2b7975f12e788518932b831f363da24d4"
      ],
      "is_coinbase": false,
      "sequence": 0
    }
  ],
  "vout": [
    {
      "scriptpubkey": "0014050ea76b6290aa24adc3892eec1fce9104abb7c3",
      "scriptpubkey_asm": "OP_0 OP_PUSHBYTES_20 050ea76b6290aa24adc3892eec1fce9104abb7c3",
      "scriptpubkey_type": "v0_p2wpkh",
      "scriptpubkey_address": "bc1qq582w6mzjz4zftwr3yhwc87wjyz2hd7rg4242z",
      "value": 719056
    },
    {
      "scriptpubkey": "001492f8f9067b214d288feab2ef287e5453b57cd9ee",
      "scriptpubkey_asm": "OP_0 OP_PUSHBYTES_20 92f8f9067b214d288feab2ef287e5453b57cd9ee",
      "scriptpubkey_type": "v0_p2wpkh",
      "scriptpubkey_address": "bc1qjtu0jpnmy9xj3rl2kthjslj52w6hek0wdr0sz0",
      "value": 57441
    }
  ],
  "size": 2006,
  "weight": 3821,
  "fee": 10445,
  "status": {
    "confirmed": true,
    "block_height": 834464,
    "block_hash": "0000000000000000000177a0869a911a2b65c9bdcd5a8bcb02b68f305bee848e",
    "block_time": 1710308296
  },
  "hex": "0200000000010d196458b3224d68e448bc7c921beac0a8bf7d87b28af36a79764f9252eff3f3083b08000000000000005cad347b4a8d82fbfcf5d9648fd72598df48fda0995cd3db1bb4660ba9ee3991410800000000000000a628dfae79a46475a38b1baba5f6fdcf8841017938a98a33cee74fb9273437397208000000000000009028b80eda4ba4614f235766bfda52c955ee5a1df12c9687e5683e97474e089d640800000000000000fef98d016c9bb40d12ee6c7f1338ac35613a43b75168bf7bdc65213914061a476e08000000000000001688cf8e40e41a4c539b3206458d9ad0de5786212777058ee0f3ec072e4888b28f08000000000000002745353e8b5e079b08a7630a7c9df51e3c9a89894a3976bf265cb7e4166781d97508000000000000003412cce46582864ee81d9bbc04fbf01c1badb8579e6670c1a262cf6472fd8a9a850800000000000000c3feb62a90b78d32a10ed81bbdf95082dd386165cbf531e463435e514f89d0cc870800000000000000a6af97c0abfea89b2a5df9d6b78015a90dc1fb1a89eb5592d4fea42758f21171720800000000000000e2a4e0b4884be87e91ff499504f7d8c1d973fe1c3a0f1e5ccfb6df6570158981760800000000000000f354827240406aa55c392747027de2f3b5543fbfb0ee1b3276d36b8c0a96ca15890800000000000000474ede1c5aed984f3ba339d083d044a1175c5d633b7d9d758b8b813719fb2d7467080000000000000002d0f80a0000000000160014050ea76b6290aa24adc3892eec1fce9104abb7c361e000000000000016001492f8f9067b214d288feab2ef287e5453b57cd9ee02473044022059bccf83dbbed020ecc5a1d97772632bdf7d704e7c05aaaa6c6ac605932b260f022027d7431b3e47b158e2df01d9a466b66e3f54c0393d88c78ce0088d23c2a3fd3d012103c8a969592d9ff9889ec01b05bbe694e2b7975f12e788518932b831f363da24d402483045022100efcdad090d5ff04d38e36a77bc49591159a3d98e41230c286f8cf4190958975002205eb6b2d3f25d592d97bc76c028e8631e53d0df45374a7bd26815cc5caa68729a012103c8a969592d9ff9889ec01b05bbe694e2b7975f12e788518932b831f363da24d402483045022100fc15da29946c1b4ec1a0e08344f9976d4adea3f00d30930d9bafdc82a8c1d7dc02200d281e13c84f66a3d9523951c2f9058361024d96b76125de2379cdadafa436e4012103c8a969592d9ff9889ec01b05bbe694e2b7975f12e788518932b831f363da24d402473044022048dbc82fab7106da563e206298693f5967766329a4dfe59ceee787483ad37ebe0220706294bc5f333400d58bb66fa452cf73a102e7863279d78097cab7d6f29a8659012103c8a969592d9ff9889ec01b05bbe694e2b7975f12e788518932b831f363da24d402483045022100d30b61c5bec2d303435fe6eb796277d61a93274869a3ec04a53ddf968dff9b9d0220313022e29e6060c3a3b9e482a2fa390fd1fc45c512312cf168f36296524d4e3b012103c8a969592d9ff9889ec01b05bbe694e2b7975f12e788518932b831f363da24d402483045022100c8a0f781903b636cf21911c9c038ea97dfcef6a9340bb609fd137e3d2dc42cf202200c20b368f019ed4afe7d4009a3ad10dbcb69897948830d601b44cc41995d6570012103c8a969592d9ff9889ec01b05bbe694e2b7975f12e788518932b831f363da24d4024730440220158e98a851fd10a8b0c0e7798a370becf3ee9dc84a2cfeb22ff6614d6b1a3bae02206751c3d1d944efbdb8f65cb2a6efe29c8693a67cbb5788ba4363573b3c8ceb8d012103c8a969592d9ff9889ec01b05bbe694e2b7975f12e788518932b831f363da24d4024730440220574e8b2347c0d7cbab5a0ea8f52cc3f64cbc30352d34c9839ff90f87438d0b1e02206bec15c8098d16ec2bafef441a8adec51b60737011938fc99904c8cbb63b8aef012103c8a969592d9ff9889ec01b05bbe694e2b7975f12e788518932b831f363da24d40248304502210092552010d4b8ef4c3bdbc83455f9904a3e08e61ed779c327677595776b8fa4ee02204fd144974368bc9446ca59e5f928cbc928a2c3bae0c3dbc8806061265948698d012103c8a969592d9ff9889ec01b05bbe694e2b7975f12e788518932b831f363da24d40247304402202393d83a88e336e4a737f9456aa52f9ba62f257a774f5ae6fcdeddf3487c384902207b216bd0dfb652ca37ca37c96cceb69497f627cab165a76548ae409d318ff8b0012103c8a969592d9ff9889ec01b05bbe694e2b7975f12e788518932b831f363da24d402483045022100f3cd6f33cddb7f490839d44f3db524f5d17d28cea86524905f251deabb45889a02206c52f7e84f083f0bb77a250dbb73aece44744b2c13be74b6222327e705896c3a012103c8a969592d9ff9889ec01b05bbe694e2b7975f12e788518932b831f363da24d402483045022100e61eff5ed246f35e859f8fe4be60ffb0f938eb7bc517ed25523593cc360bd13702201f173e262277097c83684ee50e5a9126f545e50a07dd3833a9491121051c21c2012103c8a969592d9ff9889ec01b05bbe694e2b7975f12e788518932b831f363da24d402483045022100e85d3e8d0bdb93bb3713a96fc93627c3299f966b4f0d0dfda792d07e84a20d6402204d8015a98fb797ae515ad17ad72087c3a2827bc0688cb8eabe0f035bc63dc64e012103c8a969592d9ff9889ec01b05bbe694e2b7975f12e788518932b831f363da24d400000000"
}