{
  "txid": "9aab36a3ad54cd4c9ce53651b081ad80f3a511b202cf247e8194f2e9bc09d3b0",
  "version": 1,
  "locktime": 0,
  "vin": [
    {
      "txid": "2747a058781969ce869bfcc544d0b46d3a5a22690558b1e03ff9b46f2d3f07d1",
      "vout": 9,
      "prevout": {
        "scriptpubkey": "001475870081b77af8a95bffd3e12d598c1ac93c0de2",
        "scriptpubkey_asm": "OP_0 OP_PUSHBYTES_20 75870081b77af8a95bffd3e12d598c1ac93c0de2",
        "scriptpubkey_type": "v0_p2wpkh",
        "scriptpubkey_address": "bc1qwkrspqdh0tu2jkll60sj6kvvrtyncr0z232p8p",
        "value": 48202
      },
      "scriptsig": "",
      "scriptsig_asm": "",
      "witness": [
        "30450221009e049b7995594f047b20b332e155adc55864ff6d632bceecb9acc0daa6bc58d702206b08704dc535bd2c5c8ba432985a2e0e8ad89febe81531299490299adbe11edf01",
        "02a337b09ecff88bbc8d3f35051012811c84b00a074a1a4752761c9cf7861bf5b8"
      ],
      "is_coinbase": false,
      "sequence": 4294967293
    },
    {
      "txid": "aef21a53ff4b969486a079292f141a19171b7d8528bad1353879a4f5e7940b45",
      "vout": 79,
      "prevout": {
        "scriptpubkey": "00149f254fea32508f33a41f680518ceb757af24c9b5",
        "scriptpubkey_asm": "OP_0 OP_PUSHBYTES_20 9f254fea32508f33a41f680518ceb757af24c9b5",
        "scriptpubkey_type": "v0_p2wpkh",
        "scriptpubkey_address": "bc1qnuj5l63j2z8n8fqldqz33n4h27hjfjd4hhr0c0",
        "value": 48193
      },
      "scriptsig": "",
      "scriptsig_asm": "",
      "witness": [
        "3045022100e47d17c90d38a7f850c7d54d150c66615e3c4fa1aa3f4eb0771db601ce4db0ef0220789c718b589fac7fefc1b7989248b3aa0885835db51b3500585543b9481d476b01",
        "036ff88c136115f0204238293ff716e6fb6a259db03cbc6d037ec06f42238e6985"
      ],
      "is_coinbase": false,
      "sequence": 4294967293
    },
    {
      "txid": "c3786136a64e0d6b40cde9f291671bb520adf52b920a354a26951e646a6b59bf",
      "vout": 180,
      "prevout": {
        "scriptpubkey": "0014048e007d8adc8de4683e3600e593aaf9ffc1e6d3",
        "scriptpubkey_asm": "OP_0 OP_PUSHBYTES_20 048e007d8adc8de4683e3600e593aaf9ffc1e6d3",
        "scriptpubkey_type": "v0_p2wpkh",
        "scriptpubkey_address": "bc1qqj8qqlv2mjx7g6p7xcqwtya2l8lurekn07zzxe",
        "value": 48192
      },
      "scriptsig": "",
      "scriptsig_asm": "",
      "witness": [
        "3045022100bc8e5fb920547ede4e95a8bafb6050a34c11db8a0956d7a2581ec203a59ab39802206430387388a798d5d8d1941d892ed0922be24d9a0786b760e23b77d68ce9d94301",
        "028efcdd0ab181f04c00c5f92ccdd30d6c589e51ed3a38373d0850d43b2b3d8a79"
      ],
      "is_coinbase": false,
      "sequence": 4294967293
    },
    {
      "txid": "a592de5436c83c8b62b9ebc2e7e1b0551a3c43e53f7da8b7f2c4e057e38ad13b",
      "vout": 100,
      "prevout": {
        "scriptpubkey": "00147d49e5b1548f278fa8b1f8234e6e23737e26d8cc",
        "scriptpubkey_asm": "OP_0 OP_PUSHBYTES_20 7d49e5b1548f278fa8b1f8234e6e23737e26d8cc",
        "scriptpubkey_type": "v0_p2wpkh",
        "scriptpubkey_address": "bc1q04y7tv253uncl293lq35um3rwdlzdkxvencch2",
        "value": 48189
      },
      "scriptsig": "",
      "scriptsig_asm": "",
      "witness": [
        "3045022100e69fbdfa32348ddea2d0978a20dd9883e67f335a3d4aa959aa748f05b953862c022057b1588bde17bacc86775f90495a286c99818623cd2f48375fc6a11d5747007a01",
        "03b90234226f34984eafe1f921291130d10247ae0c78667f37dca774ebd91d1cbd"
      ],
      "is_coinbase": false,
      "sequence": 4294967293
    },
    {
      "txid": "be45a74d6342b70246fd00bbdc74d35e506d945fedcb6d6aac7c38cb1f9ff6c6",
      "vout": 206,
      "prevout": {
        "scriptpubkey": "001435b1125fda5967e31c0f8054a6ba8509f99db271",
        "scriptpubkey_asm": "OP_0 OP_PUSHBYTES_20 35b1125fda5967e31c0f8054a6ba8509f99db271",
        "scriptpubkey_type": "v0_p2wpkh",
        "scriptpubkey_address": "bc1qxkc3yh76t9n7x8q0sp22dw59p8uemvn3kdw6uu",
        "value": 48188
      },
      "scriptsig": "",
      "scriptsig_asm": "",
      "witness": [
        "3044022057e436a43eddf4a02898cc52c93ede6fc389b7b8b67e07108d939aa485084abf022072c7508ba12ab0ad8121123aa755ee1abe436c162e2fdb92c29887e4e2ec75e801",
        "02cf05bebef3e2785754fb5e13bfd53bfdc2bd05faf41042dab2bfd6cb1996ea0e"
      ],
      "is_coinbase": false,
      "sequence": 4294967293
    },
    {
      "txid": "d0b6020a0c63768c12116c7edb6bf1f8e7ee0b95c7e85e4e39ace0d7181189dc",
      "vout": 114,
      "prevout": {
        "scriptpubkey": "00144332d5ba8df460049df2bfebf92591c3df509ec5",
        "scriptpubkey_asm": "OP_0 OP_PUSHBYTES_20 4332d5ba8df460049df2bfebf92591c3df509ec5",
        "scriptpubkey_type": "v0_p2wpkh",
        "scriptpubkey_address": "bc1qgvedtw5d73sqf80jhl4ljfv3c004p8k9t0ma9k",
        "value": 48184
      },
      "scriptsig": "",
      "scriptsig_asm": "",
      "witness": [
        "30440220242717ed1e3eca4203be13832853e892a75d373baa1f7a7ed6dd5142facddb3202205e3f21b922f12305cc0ee39cd7fe20a9014aaa409890600acf965e409ae1755501",
        "0365a0998e20b6bf1184da9c6121c65a1ad72548ea0fdca5f7d10e24a0d7a77409"
      ],
      "is_coinbase": false,
      "sequence": 4294967293
    }
  ],
  "vout": [
    {
      "scriptpubkey": "0014b893a90f9ae549773dceda29fefc9b496d7030d1",
      "scriptpubkey_asm": "OP_0 OP_PUSHBYTES_20 b893a90f9ae549773dceda29fefc9b496d7030d1",
      "scriptpubkey_type": "v0_p2wpkh",
      "scriptpubkey_address": "bc1qhzf6jru6u4yhw0wwmg5lalymf9khqvx3xm0g46",
      "value": 277396
    }
  ],
  "size": 935,
  "weight": 1796,
  "fee": 11752,
  "status": {
    "confirmed": true,
    "block_height": 834460,
    "block_hash": "00000000000000000000484a79b643b2524bbce82e5d8a442013fa5b8905ed98",
    "block_time": 1710307468
  },
  "hex": "01000000000106d1073f2d6fb4f93fe0b1580569225a3a6db4d044c5fc9b86ce69197858a047270900000000fdffffff450b94e7f5a4793835d1ba28857d1b17191a142f2979a08694964bff531af2ae4f00000000fdffffffbf596b6a641e95264a350a922bf5ad20b51b6791f2e9cd406b0d4ea6366178c3b400000000fdffffff3bd18ae357e0c4f2b7a87d3fe5433c1a55b0e1e7c2ebb9628b3cc83654de92a56400000000fdffffffc6f69f1fcb387cac6a6dcbed5f946d505ed374dcbb00fd4602b742634da745bece00000000fdffffffdc891118d7e0ac394e5ee8c7950beee7f8f16bdb7e6c11128c76630c0a02b6d07200000000fdffffff01943b040000000000160014b893a90f9ae549773dceda29fefc9b496d7030d1024830450221009e049b7995594f047b20b332e155adc55864ff6d632bceecb9acc0daa6bc58d702206b08704dc535bd2c5c8ba432985a2e0e8ad89febe81531299490299adbe11edf012102a337b09ecff88bbc8d3f35051012811c84b00a074a1a4752761c9cf7861bf5b802483045022100e47d17c90d38a7f850c7d54d150c66615e3c4fa1aa3f4eb0771db601ce4db0ef0220789c718b589fac7fefc1b7989248b3aa0885835db51b3500585543b9481d476b0121036ff88c136115f0204238293ff716e6fb6a259db03cbc6d037ec06f42238e698502483045022100bc8e5fb920547ede4e95a8bafb6050a34c11db8a0956d7a2581ec203a59ab39802206430387388a798d5d8d1941d892ed0922be24d9a0786b760e23b77d68ce9d9430121028efcdd0ab181f04c00c5f92ccdd30d6c589e51ed3a38373d0850d43b2b3d8a7902483045022100e69fbdfa32348ddea2d0978a20dd9883e67f335a3d4aa959aa748f05b953862c022057b1588bde17bacc86775f90495a286c99818623cd2f48375fc6a11d5747007a012103b90234226f34984eafe1f921291130d10247ae0c78667f37dca774ebd91d1cbd02473044022057e436a43eddf4a02898cc52c93ede6fc389b7b8b67e07108d939aa485084abf022072c7508ba12ab0ad8121123aa755ee1abe436c162e2fdb92c29887e4e2ec75e8012102cf05bebef3e2785754fb5e13bfd53bfdc2bd05faf41042dab2bfd6cb1996ea0e024730440220242717ed1e3eca4203be13832853e892a75d373baa1f7a7ed6dd5142facddb3202205e3f21b922f12305cc0ee39cd7fe20a9014aaa409890600acf965e409ae1755501210365a0998e20b6bf1184da9c6121c65a1ad72548ea0fdca5f7d10e24a0d7a7740900000000"
}