{
  "txid": "9aadf6cd0aa79eb81ce45a9a444341bb2d7e9896f3525da2f4918ebae3a453a6",
  "version": 2,
  "locktime": 0,
  "vin": [
    {
      "txid": "4ee77778659dcfe8d7a4e15882fc6193f4f3d5f6607624e256337b44c2280af5",
      "vout": 76,
      "prevout": {
        "scriptpubkey": "5120c4d3a50bada886f3a90fddd4b486e633c699d642d08e9f00046dee6082038e57",
        "scriptpubkey_asm": "OP_PUSHNUM_1 OP_PUSHBYTES_32 c4d3a50bada886f3a90fddd4b486e633c699d642d08e9f00046dee6082038e57",
        "scriptpubkey_type": "v1_p2tr",
        "scriptpubkey_address": "bc1pcnf62zad4zr082g0mh2tfphxx0rfn4jz6z8f7qqydhhxpqsr3etsttnwhh",
        "value": 2075
      },
      "scriptsig": "",
      "scriptsig_asm": "",
      "witness": [
        "0e97e1f692b563598bf755a2da6ec329bf71e40d0085066632d6eb51b26bde5ae558d92dee38e0b1ed8047c75e620de8ed97827abb80605b4d63c2fe752f0edf",
        "208c742ba70d0b7f7d507651ed37c1df8035a4ed438a65c9811ccf059e4aeeac43ac0063036f7264010118746578742f706c61696e3b636861727365743d7574662d3800357b2270223a224252432d313030222c226f70223a226d696e74222c227469636b223a22696e73222c22616d74223a2231303030227d68",
        "c0c50eac15d7d7889f5ad84f80015e8a209129aeea937c37fa4b8bc0f9be289730"
      ],
      "is_coinbase": false,
      "sequence": 4294967295
    }
  ],
  "vout": [
    {
      "scriptpubkey": "00143e2325412b554cacdd163a93a42204c4707f8851",
      "scriptpubkey_asm": "OP_0 OP_PUSHBYTES_20 3e2325412b554cacdd163a93a42204c4707f8851",
      "scriptpubkey_type": "v0_p2wpkh",
      "scriptpubkey_address": "bc1q8c3j2sft24x2ehgk82f6ggsyc3c8lzz3yw9wsu",
      "value": 546
    }
  ],
  "size": 308,
  "weight": 554,
  "fee": 1529,
  "status": {
    "confirmed": true,
    "block_height": 834464,
    "block_hash": "0000000000000000000177a0869a911a2b65c9bdcd5a8bcb02b68f305bee848e",
    "block_time": 1710308296
  },
  "hex": "02000000000101f50a28c2447b3356e2247660f6d5f3f49361fc8258e1a4d7e8cf9d657877e74e4c00000000ffffffff0122020000000000001600143e2325412b554cacdd163a93a42204c4707f885103400e97e1f692b563598bf755a2da6ec329bf71e40d0085066632d6eb51b26bde5ae558d92dee38e0b1ed8047c75e620de8ed97827abb80605b4d63c2fe752f0edf7b208c742ba70d0b7f7d507651ed37c1df8035a4ed438a65c9811ccf059e4aeeac43ac0063036f7264010118746578742f706c61696e3b636861727365743d7574662d3800357b2270223a224252432d313030222c226f70223a226d696e74222c227469636b223a22696e73222c22616d74223a2231303030227d6821c0c50eac15d7d7889f5ad84f80015e8a209129aeea937c37fa4b8bc0f9be28973000000000"
}