{
  "txid": "9ab2ebd561e7c6cba8cdf99a3875892e7da05b1ad54e186c3f3d50111fa7864c",
  "version": 2,
  "locktime": 834637,
  "vin": [
    {
      "txid": "41185c3e15f1e716eb8a44311aebf1c95f59d97b66abf0a94e7b22b8547a9e64",
      "vout": 1,
      "prevout": {
        "scriptpubkey": "00140e88463fec2874f2f25472572387820aade238bc",
        "scriptpubkey_asm": "OP_0 OP_PUSHBYTES_20 0e88463fec2874f2f25472572387820aade238bc",
        "scriptpubkey_type": "v0_p2wpkh",
        "scriptpubkey_address": "bc1qp6yyv0lv9p609uj5wftj8puzp2k7yw9uy47jgh",
        "value": 1993275
      },
      "scriptsig": "",
      "scriptsig_asm": "",
      "witness": [
        "3044022068e621d2614bc7e433d7367fba41fd02c23014580c288ab71309b3c93831d12c02202283404a184fde5e08060c8193d882c4888b443a4060bc59568d915c4ca6176401",
        "039e12db2c1df06761d98e924e8248f7aaaa301331e4f42ab83aa9324f5196add3"
      ],
      "is_coinbase": false,
      "sequence": 4294967293
    }
  ],
  "vout": [
    {
      "scriptpubkey": "00140ac5b342d9e9ac6c6f276a2c2cf9af70f50256ee",
      "scriptpubkey_asm": "OP_0 OP_PUSHBYTES_20 0ac5b342d9e9ac6c6f276a2c2cf9af70f50256ee",
      "scriptpubkey_type": "v0_p2wpkh",
      "scriptpubkey_address": "bc1qptzmxskeaxkxcme8dgkze7d0wr6sy4hwu37dnw",
      "value": 742528
    },
    {
      "scriptpubkey": "00143cb5f070f10056ce7f2776bba2f73c69702e79be",
      "scriptpubkey_asm": "OP_0 OP_PUSHBYTES_20 3cb5f070f10056ce7f2776bba2f73c69702e79be",
      "scriptpubkey_type": "v0_p2wpkh",
      "scriptpubkey_address": "bc1q8j6lqu83qptvule8w6a69aeud9czu7d7v3uv7j",
      "value": 1246940
    }
  ],
  "size": 222,
  "weight": 561,
  "fee": 3807,
  "status": {
    "confirmed": true,
    "block_height": 834638,
    "block_hash": "000000000000000000025f742c626208ac87e0b7d15054abb4a19ca2d735a54e",
    "block_time": 1710405325
  },
  "hex": "02000000000101649e7a54b8227b4ea9f0ab667bd9595fc9f1eb1a31448aeb16e7f1153e5c18410100000000fdffffff0280540b00000000001600140ac5b342d9e9ac6c6f276a2c2cf9af70f50256eedc061300000000001600143cb5f070f10056ce7f2776bba2f73c69702e79be02473044022068e621d2614bc7e433d7367fba41fd02c23014580c288ab71309b3c93831d12c02202283404a184fde5e08060c8193d882c4888b443a4060bc59568d915c4ca617640121039e12db2c1df06761d98e924e8248f7aaaa301331e4f42ab83aa9324f5196add34dbc0c00"
}