{
  "txid": "9abeb654c726772badfe64b39e41d407eebd337e44b90bbabc51857279ecaed3",
  "version": 1,
  "locktime": 0,
  "vin": [
    {
      "txid": "6649fd334a4a46f137259bd660f8353c190fa224ebe2712de00ccb8e1279494a",
      "vout": 1,
      "prevout": {
        "scriptpubkey": "76a914d7fd2d024a90a28e75961266bd84416498074c9b88ac",
        "scriptpubkey_asm": "OP_DUP OP_HASH160 OP_PUSHBYTES_20 d7fd2d024a90a28e75961266bd84416498074c9b OP_EQUALVERIFY OP_CHECKSIG",
        "scriptpubkey_type": "p2pkh",
        "scriptpubkey_address": "1Lh3aD3WExLafgJSEJL3nyMrFxguRdyCzY",
        "value": 3513
      },
      "scriptsig": "483045022100c2f8b0da1502c727e9ebf81a3414b15959528dea24af38204af3e524ca64a1a202207e753aee82412f39bf3b69aa57e5d827e60f1423f8f48d8b8f8b81facc92e5f701210270db919593820b352055763e0c1e8ad0c280040a52bf1382393f49b6859863bb",
      "scriptsig_asm": "OP_PUSHBYTES_72 3045022100c2f8b0da1502c727e9ebf81a3414b15959528dea24af38204af3e524ca64a1a202207e753aee82412f39bf3b69aa57e5d827e60f1423f8f48d8b8f8b81facc92e5f701 OP_PUSHBYTES_33 0270db919593820b352055763e0c1e8ad0c280040a52bf1382393f49b6859863bb",
      "is_coinbase": false,
      "sequence": 4294967295
    },
    {
      "txid": "933710dcb176d78ebe270ed342b31d9fbdfdc2dbd5be39923c714a4c084df3f5",
      "vout": 1,
      "prevout": {
        "scriptpubkey": "76a91450eddab2e7b2b4ad23f04bd8f401e7ca22d711ba88ac",
        "scriptpubkey_asm": "OP_DUP OP_HASH160 OP_PUSHBYTES_20 50eddab2e7b2b4ad23f04bd8f401e7ca22d711ba OP_EQUALVERIFY OP_CHECKSIG",
        "scriptpubkey_type": "p2pkh",
        "scriptpubkey_address": "18Nuzke4KSAJK3mnFbZZ6Fayu6pN41RGzx",
        "value": 13908
      },
      "scriptsig": "47304402206e8aed94e46abe5cda427f0aee2f38faaa7041083bd77941d407969aba397860022035ef725fc3f10fbaaf734f1b040b49176f357dadab2bfed3790bb6ba07acff7501210345f308155ac73fb42e128e568395976fdd0d8e801172c1b0e0a0a5abf5b37877",
      "scriptsig_asm": "OP_PUSHBYTES_71 304402206e8aed94e46abe5cda427f0aee2f38faaa7041083bd77941d407969aba397860022035ef725fc3f10fbaaf734f1b040b49176f357dadab2bfed3790bb6ba07acff7501 OP_PUSHBYTES_33 0345f308155ac73fb42e128e568395976fdd0d8e801172c1b0e0a0a5abf5b37877",
      "is_coinbase": false,
      "sequence": 4294967295
    },
    {
      "txid": "8807e3972c7b3aaf3478b32dc64de647bd8259fbaf568252933120c2485aad67",
      "vout": 1,
      "prevout": {
        "scriptpubkey": "76a914243cfb3ebf8ecff205683bd19f20ab8c90302e3488ac",
        "scriptpubkey_asm": "OP_DUP OP_HASH160 OP_PUSHBYTES_20 243cfb3ebf8ecff205683bd19f20ab8c90302e34 OP_EQUALVERIFY OP_CHECKSIG",
        "scriptpubkey_type": "p2pkh",
        "scriptpubkey_address": "14JcNyEy5GW9MV7BqvWbae9z1kUiMRGv6T",
        "value": 18016
      },
      "scriptsig": "483045022100efc4f70275899efc9cc0ec986d1ec234b3291491d010db0c88f8375bee056f8902202cfb61b37d5e8bddfd06f49c9445f0bdfdaf5fc3712a7eb9d0f26786b93aba0a0121030c90c0e1f5beee0f2c9397330e4483c0113b5f772648f67c105fab63742afd74",
      "scriptsig_asm": "OP_PUSHBYTES_72 3045022100efc4f70275899efc9cc0ec986d1ec234b3291491d010db0c88f8375bee056f8902202cfb61b37d5e8bddfd06f49c9445f0bdfdaf5fc3712a7eb9d0f26786b93aba0a01 OP_PUSHBYTES_33 030c90c0e1f5beee0f2c9397330e4483c0113b5f772648f67c105fab63742afd74",
      "is_coinbase": false,
      "sequence": 4294967295
    }
  ],
  "vout": [
    {
      "scriptpubkey": "a914bbc2045b8159a0f4b6f96ecbee12307f8b77c46587",
      "scriptpubkey_asm": "OP_HASH160 OP_PUSHBYTES_20 bbc2045b8159a0f4b6f96ecbee12307f8b77c465 OP_EQUAL",
      "scriptpubkey_type": "p2sh",
      "scriptpubkey_address": "3JonhxLuQ47jHKimHkLBrW9rz3pG919WXF",
      "value": 30173
    }
  ],
  "size": 485,
  "weight": 1940,
  "fee": 5264,
  "status": {
    "confirmed": true,
    "block_height": 834464,
    "block_hash": "0000000000000000000177a0869a911a2b65c9bdcd5a8bcb02b68f305bee848e",
    "block_time": 1710308296
  },
  "hex": "01000000034a4979128ecb0ce02d71e2eb24a20f193c35f860d69b2537f1464a4a33fd4966010000006b483045022100c2f8b0da1502c727e9ebf81a3414b15959528dea24af38204af3e524ca64a1a202207e753aee82412f39bf3b69aa57e5d827e60f1423f8f48d8b8f8b81facc92e5f701210270db919593820b352055763e0c1e8ad0c280040a52bf1382393f49b6859863bbfffffffff5f34d084c4a713c9239bed5dbc2fdbd9f1db342d30e27be8ed776b1dc103793010000006a47304402206e8aed94e46abe5cda427f0aee2f38faaa7041083bd77941d407969aba397860022035ef725fc3f10fbaaf734f1b040b49176f357dadab2bfed3790bb6ba07acff7501210345f308155ac73fb42e128e568395976fdd0d8e801172c1b0e0a0a5abf5b37877ffffffff67ad5a48c2203193528256affb5982bd47e64dc62db37834af3a7b2c97e30788010000006b483045022100efc4f70275899efc9cc0ec986d1ec234b3291491d010db0c88f8375bee056f8902202cfb61b37d5e8bddfd06f49c9445f0bdfdaf5fc3712a7eb9d0f26786b93aba0a0121030c90c0e1f5beee0f2c9397330e4483c0113b5f772648f67c105fab63742afd74ffffffff01dd7500000000000017a914bbc2045b8159a0f4b6f96ecbee12307f8b77c4658700000000"
}