{
  "txid": "9ac8b8d081c5f3e696b957d4444ec5718562984cf3b051916a042c584c2a5713",
  "version": 2,
  "locktime": 0,
  "vin": [
    {
      "txid": "ed8a02ce95eae39571f424f465d3196765493cf5ed4bc16cc6409b18404a6cc1",
      "vout": 0,
      "prevout": {
        "scriptpubkey": "001402997df5f44ba9e7723463594066954a93c19d67",
        "scriptpubkey_asm": "OP_0 OP_PUSHBYTES_20 02997df5f44ba9e7723463594066954a93c19d67",
        "scriptpubkey_type": "v0_p2wpkh",
        "scriptpubkey_address": "bc1qq2vhma05fw57wu35vdv5qe54f2fur8t8kv6dsq",
        "value": 742462
      },
      "scriptsig": "",
      "scriptsig_asm": "",
      "witness": [
        "304402206f2cb67406754707046a57e9cf6b098098ce931b71e34c5058433a269471cc8802204004034a5c39d02a86d61fc6695d18f321090bed0f3dd6a568a8a7e0a2a1a87701",
        "029f31273a35744ae4508bd4011b5dc220e4d34591e5d6d85b59745a85824e4497"
      ],
      "is_coinbase": false,
      "sequence": 4294967295
    }
  ],
  "vout": [
    {
      "scriptpubkey": "001402997df5f44ba9e7723463594066954a93c19d67",
      "scriptpubkey_asm": "OP_0 OP_PUSHBYTES_20 02997df5f44ba9e7723463594066954a93c19d67",
      "scriptpubkey_type": "v0_p2wpkh",
      "scriptpubkey_address": "bc1qq2vhma05fw57wu35vdv5qe54f2fur8t8kv6dsq",
      "value": 542479
    },
    {
      "scriptpubkey": "76a91443ad4f280438d9bccafba56ff39addb20028a9f288ac",
      "scriptpubkey_asm": "OP_DUP OP_HASH160 OP_PUSHBYTES_20 43ad4f280438d9bccafba56ff39addb20028a9f2 OP_EQUALVERIFY OP_CHECKSIG",
      "scriptpubkey_type": "p2pkh",
      "scriptpubkey_address": "17Aqtb4YwDTHhSXnKvFLBxayXURgKsyEdN",
      "value": 197412
    }
  ],
  "size": 225,
  "weight": 573,
  "fee": 2571,
  "status": {
    "confirmed": true,
    "block_height": 834638,
    "block_hash": "000000000000000000025f742c626208ac87e0b7d15054abb4a19ca2d735a54e",
    "block_time": 1710405325
  },
  "hex": "02000000000101c16c4a40189b40c66cc14bedf53c49656719d365f424f47195e3ea95ce028aed0000000000ffffffff020f4708000000000016001402997df5f44ba9e7723463594066954a93c19d6724030300000000001976a91443ad4f280438d9bccafba56ff39addb20028a9f288ac0247304402206f2cb67406754707046a57e9cf6b098098ce931b71e34c5058433a269471cc8802204004034a5c39d02a86d61fc6695d18f321090bed0f3dd6a568a8a7e0a2a1a8770121029f31273a35744ae4508bd4011b5dc220e4d34591e5d6d85b59745a85824e449700000000"
}