{
  "txid": "9acbca60437a52735c17a2f6642bbab45a5fc2248d19dcb7e3a61ad061e246ef",
  "version": 1,
  "locktime": 0,
  "vin": [
    {
      "txid": "f0fdebe8230d82a150b79b5f74ab1575bf1a9320fad10b0366f9b3bf587de507",
      "vout": 1,
      "prevout": {
        "scriptpubkey": "0014777d6539dd58f249cc670430878da5ef0c498df7",
        "scriptpubkey_asm": "OP_0 OP_PUSHBYTES_20 777d6539dd58f249cc670430878da5ef0c498df7",
        "scriptpubkey_type": "v0_p2wpkh",
        "scriptpubkey_address": "bc1qwa7k2wwatreynnr8qscg0rd9auxynr0hts2rmf",
        "value": 200121204
      },
      "scriptsig": "",
      "scriptsig_asm": "",
      "witness": [
        "3045022100d37e4bd0623a7a718d6961f9bf81b966ea03dc781e9c9ca3353f0f94adcdaafc02204d5e2bd81b0a9a057e6526f56359fd4ae242ab29c85907685db9b382f057cb6501",
        "02e16dd49ed2877a0bb7c05df9bd68e3455bddf39ffd50b2d0bd2703585da18381"
      ],
      "is_coinbase": false,
      "sequence": 4294967295
    }
  ],
  "vout": [
    {
      "scriptpubkey": "00141dbcd405b9500e876257b3084c5a50714f6f8a92",
      "scriptpubkey_asm": "OP_0 OP_PUSHBYTES_20 1dbcd405b9500e876257b3084c5a50714f6f8a92",
      "scriptpubkey_type": "v0_p2wpkh",
      "scriptpubkey_address": "bc1qrk7dgpde2q8gwcjhkvyyckjsw98klz5jvdwdrr",
      "value": 50000000
    },
    {
      "scriptpubkey": "0014f0b1272c533468fd94c21bec82331edaf149af3c",
      "scriptpubkey_asm": "OP_0 OP_PUSHBYTES_20 f0b1272c533468fd94c21bec82331edaf149af3c",
      "scriptpubkey_type": "v0_p2wpkh",
      "scriptpubkey_address": "bc1q7zcjwtznx350m9xzr0kgyvc7mtc5nteugxrj44",
      "value": 150118414
    }
  ],
  "size": 223,
  "weight": 562,
  "fee": 2790,
  "status": {
    "confirmed": true,
    "block_height": 834638,
    "block_hash": "000000000000000000025f742c626208ac87e0b7d15054abb4a19ca2d735a54e",
    "block_time": 1710405325
  },
  "hex": "0100000000010107e57d58bfb3f966030bd1fa20931abf7515ab745f9bb750a1820d23e8ebfdf00100000000ffffffff0280f0fa02000000001600141dbcd405b9500e876257b3084c5a50714f6f8a920ea0f20800000000160014f0b1272c533468fd94c21bec82331edaf149af3c02483045022100d37e4bd0623a7a718d6961f9bf81b966ea03dc781e9c9ca3353f0f94adcdaafc02204d5e2bd81b0a9a057e6526f56359fd4ae242ab29c85907685db9b382f057cb65012102e16dd49ed2877a0bb7c05df9bd68e3455bddf39ffd50b2d0bd2703585da1838100000000"
}