{
  "txid": "9ad93a390637940cdf4aba5af19b2039546ec2502340a952cbe2bd995caab163",
  "version": 2,
  "locktime": 0,
  "vin": [
    {
      "txid": "872510f9e59adedd8270a68a7d5fcf1dea450853c7fd108e05ec162dc15bc3fa",
      "vout": 0,
      "prevout": {
        "scriptpubkey": "5120bee3bbc262458f7b5ee5d0d932696eac40950e774d42c4c5fea228284f23c7e5",
        "scriptpubkey_asm": "OP_PUSHNUM_1 OP_PUSHBYTES_32 bee3bbc262458f7b5ee5d0d932696eac40950e774d42c4c5fea228284f23c7e5",
        "scriptpubkey_type": "v1_p2tr",
        "scriptpubkey_address": "bc1phm3mhsnzgk8hkhh96rvny6tw43qf2rnhf4pvf3075g5zsnercljsxjqgna",
        "value": 1000
      },
      "scriptsig": "",
      "scriptsig_asm": "",
      "witness": [
        "b79242d757ad77b37322ee993ab7487a159cbdeacf576aa5282b54e65e8fb7f1187b6a9867bfc2272998b1a16349c62cbca8c0e9d45da0a0f748c2bde14d6867"
      ],
      "is_coinbase": false,
      "sequence": 4294967295
    },
    {
      "txid": "7d19aca37ed03e147ea4e7a65436fe4607e1cddfed789074d7b89a11ef45e515",
      "vout": 1,
      "prevout": {
        "scriptpubkey": "5120bee3bbc262458f7b5ee5d0d932696eac40950e774d42c4c5fea228284f23c7e5",
        "scriptpubkey_asm": "OP_PUSHNUM_1 OP_PUSHBYTES_32 bee3bbc262458f7b5ee5d0d932696eac40950e774d42c4c5fea228284f23c7e5",
        "scriptpubkey_type": "v1_p2tr",
        "scriptpubkey_address": "bc1phm3mhsnzgk8hkhh96rvny6tw43qf2rnhf4pvf3075g5zsnercljsxjqgna",
        "value": 157222
      },
      "scriptsig": "",
      "scriptsig_asm": "",
      "witness": [
        "6e741ad28334277fe3f9bb319845f51c63176932925355fce087291654e9959389222065ed53c6b974c73c85dc915326f973faf5e8ab347bd0a315540c33c7b1"
      ],
      "is_coinbase": false,
      "sequence": 4294967295
    }
  ],
  "vout": [
    {
      "scriptpubkey": "5120d7e2887b7c096a6f45a720cbcdfed5a392cb01bfb981cf6e468da5504e7574d9",
      "scriptpubkey_asm": "OP_PUSHNUM_1 OP_PUSHBYTES_32 d7e2887b7c096a6f45a720cbcdfed5a392cb01bfb981cf6e468da5504e7574d9",
      "scriptpubkey_type": "v1_p2tr",
      "scriptpubkey_address": "bc1p6l3gs7mup94x73d8yr9umlk45wfvkqdlhxqu7mjx3kj4qnn4wnvsrr8ysn",
      "value": 1000
    },
    {
      "scriptpubkey": "5120bee3bbc262458f7b5ee5d0d932696eac40950e774d42c4c5fea228284f23c7e5",
      "scriptpubkey_asm": "OP_PUSHNUM_1 OP_PUSHBYTES_32 bee3bbc262458f7b5ee5d0d932696eac40950e774d42c4c5fea228284f23c7e5",
      "scriptpubkey_type": "v1_p2tr",
      "scriptpubkey_address": "bc1phm3mhsnzgk8hkhh96rvny6tw43qf2rnhf4pvf3075g5zsnercljsxjqgna",
      "value": 154240
    }
  ],
  "size": 312,
  "weight": 846,
  "fee": 2982,
  "status": {
    "confirmed": true,
    "block_height": 834638,
    "block_hash": "000000000000000000025f742c626208ac87e0b7d15054abb4a19ca2d735a54e",
    "block_time": 1710405325
  },
  "hex": "02000000000102fac35bc12d16ec058e10fdc7530845ea1dcf5f7d8aa67082ddde9ae5f91025870000000000ffffffff15e545ef119ab8d7749078eddfcde10746fe3654a6e7a47e143ed07ea3ac197d0100000000ffffffff02e803000000000000225120d7e2887b7c096a6f45a720cbcdfed5a392cb01bfb981cf6e468da5504e7574d9805a020000000000225120bee3bbc262458f7b5ee5d0d932696eac40950e774d42c4c5fea228284f23c7e50140b79242d757ad77b37322ee993ab7487a159cbdeacf576aa5282b54e65e8fb7f1187b6a9867bfc2272998b1a16349c62cbca8c0e9d45da0a0f748c2bde14d686701406e741ad28334277fe3f9bb319845f51c63176932925355fce087291654e9959389222065ed53c6b974c73c85dc915326f973faf5e8ab347bd0a315540c33c7b100000000"
}