{
  "txid": "9ae37daf14317e36669e2f0cfaa1ff789c70b64f5b076c208a8bf692495bb5d9",
  "version": 1,
  "locktime": 0,
  "vin": [
    {
      "txid": "eaf28bce5ddbc7afb50b676ab28f4047a4f186e089b205aba4af093f0b029cef",
      "vout": 21,
      "prevout": {
        "scriptpubkey": "00149b204194388e32dc123e9344187199a5615c977a",
        "scriptpubkey_asm": "OP_0 OP_PUSHBYTES_20 9b204194388e32dc123e9344187199a5615c977a",
        "scriptpubkey_type": "v0_p2wpkh",
        "scriptpubkey_address": "bc1qnvsyr9pc3cedcy37jdzpsuve54s4e9m6sqphtj",
        "value": 18239901
      },
      "scriptsig": "",
      "scriptsig_asm": "",
      "witness": [
        "3045022100d2ec9112ffa943daf4f7e0c659d73cab1197fd9428e1cb01f8cedd6caa049bff02205fc121f843cf1d3ebae5e492bd658596aaf273c864fd114e23cd45f184b6fb4e01",
        "02d65b89937937c01841d401786a34066a0807427b2c0f3180f1310358ded5710f"
      ],
      "is_coinbase": false,
      "sequence": 4294967293
    }
  ],
  "vout": [
    {
      "scriptpubkey": "001497e171bb1549ed749c84268d4a818aa6ce706c1c",
      "scriptpubkey_asm": "OP_0 OP_PUSHBYTES_20 97e171bb1549ed749c84268d4a818aa6ce706c1c",
      "scriptpubkey_type": "v0_p2wpkh",
      "scriptpubkey_address": "bc1qjlshrwc4f8khf8yyy6x54qv25m88qmqufjja9s",
      "value": 4333350
    },
    {
      "scriptpubkey": "0014f9eeb5ac5c06897b700aaf83868b30ad75b9765d",
      "scriptpubkey_asm": "OP_0 OP_PUSHBYTES_20 f9eeb5ac5c06897b700aaf83868b30ad75b9765d",
      "scriptpubkey_type": "v0_p2wpkh",
      "scriptpubkey_address": "bc1ql8htttzuq6yhkuq247pcdzes446mjaja748gvk",
      "value": 13904436
    }
  ],
  "size": 223,
  "weight": 562,
  "fee": 2115,
  "status": {
    "confirmed": true,
    "block_height": 834638,
    "block_hash": "000000000000000000025f742c626208ac87e0b7d15054abb4a19ca2d735a54e",
    "block_time": 1710405325
  },
  "hex": "01000000000101ef9c020b3f09afa4ab05b289e086f1a447408fb26a670bb5afc7db5dce8bf2ea1500000000fdffffff02261f42000000000016001497e171bb1549ed749c84268d4a818aa6ce706c1c342ad40000000000160014f9eeb5ac5c06897b700aaf83868b30ad75b9765d02483045022100d2ec9112ffa943daf4f7e0c659d73cab1197fd9428e1cb01f8cedd6caa049bff02205fc121f843cf1d3ebae5e492bd658596aaf273c864fd114e23cd45f184b6fb4e012102d65b89937937c01841d401786a34066a0807427b2c0f3180f1310358ded5710f00000000"
}