{
  "txid": "9aeb1dc93cec556f94fe470eedd2c5ee9216c39ddfcd8a8834bd37d207c9e9b4",
  "version": 1,
  "locktime": 0,
  "vin": [
    {
      "txid": "888888888d862b2a01bc66843be59c26f041434998079b958c48c9a0249a3921",
      "vout": 0,
      "prevout": {
        "scriptpubkey": "512005b0acad168da2fa1e8d5b404285c32fbb0e153d196999ddd1b596a5a387ddf7",
        "scriptpubkey_asm": "OP_PUSHNUM_1 OP_PUSHBYTES_32 05b0acad168da2fa1e8d5b404285c32fbb0e153d196999ddd1b596a5a387ddf7",
        "scriptpubkey_type": "v1_p2tr",
        "scriptpubkey_address": "bc1pqkc2etgk3k30585dtdqy9pwr97asu9far95enhw3kkt2tgu8mhmstdpskw",
        "value": 12071
      },
      "scriptsig": "",
      "scriptsig_asm": "",
      "witness": [
        "4d7932918ce8fc265dfbaf7aaf065509440015b6549749831c9374f45c86b7e163889d8ce85381194b9624e578e2c2c45eb78bc78584629fe8e191e91599af35",
        "20469b0976e6dfb4aa85741069171d443249beab5e42def6639b54fb614787ad1fac00630461746f6d03646d7446a16461726773a46474696d651a65f1343c656e6f6e63651a0001000168626974776f726b636b3838383838383838382e386b6d696e745f7469636b657268696e66696e69747968",
        "c1469b0976e6dfb4aa85741069171d443249beab5e42def6639b54fb614787ad1f"
      ],
      "is_coinbase": false,
      "sequence": 4294967295
    }
  ],
  "vout": [
    {
      "scriptpubkey": "5120bd20606e7cbe51b4b2f50225f8d7bab93d73d2d0a9fb14d955dee05ec9f0b2f8",
      "scriptpubkey_asm": "OP_PUSHNUM_1 OP_PUSHBYTES_32 bd20606e7cbe51b4b2f50225f8d7bab93d73d2d0a9fb14d955dee05ec9f0b2f8",
      "scriptpubkey_type": "v1_p2tr",
      "scriptpubkey_address": "bc1ph5sxqmnuhegmfvh4qgjl34a6hy7h85ks48a3fk24mms9aj0sktuqd0m35p",
      "value": 9999
    }
  ],
  "size": 314,
  "weight": 596,
  "fee": 2072,
  "status": {
    "confirmed": true,
    "block_height": 834460,
    "block_hash": "00000000000000000000484a79b643b2524bbce82e5d8a442013fa5b8905ed98",
    "block_time": 1710307468
  },
  "hex": "0100000000010121399a24a0c9488c959b0798494341f0269ce53b8466bc012a2b868d888888880000000000ffffffff010f27000000000000225120bd20606e7cbe51b4b2f50225f8d7bab93d73d2d0a9fb14d955dee05ec9f0b2f803404d7932918ce8fc265dfbaf7aaf065509440015b6549749831c9374f45c86b7e163889d8ce85381194b9624e578e2c2c45eb78bc78584629fe8e191e91599af357520469b0976e6dfb4aa85741069171d443249beab5e42def6639b54fb614787ad1fac00630461746f6d03646d7446a16461726773a46474696d651a65f1343c656e6f6e63651a0001000168626974776f726b636b3838383838383838382e386b6d696e745f7469636b657268696e66696e6974796821c1469b0976e6dfb4aa85741069171d443249beab5e42def6639b54fb614787ad1f00000000"
}