{
  "txid": "9af161f38a18c09a8c50cf61b3c9099c52242b4c4e0aec881bb64a198df24571",
  "version": 2,
  "locktime": 0,
  "vin": [
    {
      "txid": "c5c8f19178fed3ad166d0a6be48695a10ee173c590f72e54e501da7189ccec7f",
      "vout": 21,
      "prevout": {
        "scriptpubkey": "51209f1f519314bc704613aac18bca7813539d7440b9a231c724555b57e6c4ba3c70",
        "scriptpubkey_asm": "OP_PUSHNUM_1 OP_PUSHBYTES_32 9f1f519314bc704613aac18bca7813539d7440b9a231c724555b57e6c4ba3c70",
        "scriptpubkey_type": "v1_p2tr",
        "scriptpubkey_address": "bc1pnu04ryc5h3cyvya2cx9u57qn2wwhgs9e5gcuwfz4tdt7d39683cqa4htsm",
        "value": 2586
      },
      "scriptsig": "",
      "scriptsig_asm": "",
      "witness": [
        "75e9dab689ea95e68c84362ff334fa4747a9f8f0f133927f15f4177b59a6372e540d5136f7b8c52870f8ced36c2a469aad3dfced62a124f29a5da5663df2ae4a",
        "20efdf21fabcbbda63732e380c9cb64331690c0dec8e192552cf9d31f786755532ac0063036f7264010118746578742f706c61696e3b636861727365743d7574662d38004c827b2270223a22746170222c226f70223a22646d742d6d696e74222c22646570223a22303238313934396339656438363764633061323338346636303239623438633766333032663831613163333162653763363030306333636439626135616435656930222c227469636b223a22626268222c22626c6b223a22383334343238227d68",
        "c0efdf21fabcbbda63732e380c9cb64331690c0dec8e192552cf9d31f786755532"
      ],
      "is_coinbase": false,
      "sequence": 4294967293
    }
  ],
  "vout": [
    {
      "scriptpubkey": "5120343476391501163ffc69f78bf5566876e8cc2b880ae6b0093327194a6c7b04b5",
      "scriptpubkey_asm": "OP_PUSHNUM_1 OP_PUSHBYTES_32 343476391501163ffc69f78bf5566876e8cc2b880ae6b0093327194a6c7b04b5",
      "scriptpubkey_type": "v1_p2tr",
      "scriptpubkey_address": "bc1pxs68vwg4qytrllrf779l24ngwm5vc2ugptntqzfnyuv55mrmqj6sgcwchg",
      "value": 546
    }
  ],
  "size": 398,
  "weight": 680,
  "fee": 2040,
  "status": {
    "confirmed": true,
    "block_height": 834460,
    "block_hash": "00000000000000000000484a79b643b2524bbce82e5d8a442013fa5b8905ed98",
    "block_time": 1710307468
  },
  "hex": "020000000001017feccc8971da01e5542ef790c573e10ea19586e46b0a6d16add3fe7891f1c8c51500000000fdffffff012202000000000000225120343476391501163ffc69f78bf5566876e8cc2b880ae6b0093327194a6c7b04b5034075e9dab689ea95e68c84362ff334fa4747a9f8f0f133927f15f4177b59a6372e540d5136f7b8c52870f8ced36c2a469aad3dfced62a124f29a5da5663df2ae4ac920efdf21fabcbbda63732e380c9cb64331690c0dec8e192552cf9d31f786755532ac0063036f7264010118746578742f706c61696e3b636861727365743d7574662d38004c827b2270223a22746170222c226f70223a22646d742d6d696e74222c22646570223a22303238313934396339656438363764633061323338346636303239623438633766333032663831613163333162653763363030306333636439626135616435656930222c227469636b223a22626268222c22626c6b223a22383334343238227d6821c0efdf21fabcbbda63732e380c9cb64331690c0dec8e192552cf9d31f78675553200000000"
}