{
  "txid": "9b052e4d7df178aa3a5ecc063f6c0bf1fb3214a745d0be4cd9854309ff84ad79",
  "version": 1,
  "locktime": 0,
  "vin": [
    {
      "txid": "1c1460b369c6b8f127dd59cc5a81070f2d70862d87814a925e5a3b8036d8444e",
      "vout": 0,
      "prevout": {
        "scriptpubkey": "001466757f8636c7d92e57e26185cf4df95a3b583ed7",
        "scriptpubkey_asm": "OP_0 OP_PUSHBYTES_20 66757f8636c7d92e57e26185cf4df95a3b583ed7",
        "scriptpubkey_type": "v0_p2wpkh",
        "scriptpubkey_address": "bc1qve6hlp3kclvju4lzvxzu7n0etga4s0kh42x3xm",
        "value": 435138
      },
      "scriptsig": "",
      "scriptsig_asm": "",
      "witness": [
        "3045022100ab4931295e99661fd07632ea00c35c878e51feeeabb178566b1173c476ad22ba022033cad6a74bc45f994768e4a47b11c6174ba97aa30fb3e085b782d3cf144a263201",
        "02ca5e99428c88d631e8b06afe01f2d51f74c822d899280406fdb82ba4961c131a"
      ],
      "is_coinbase": false,
      "sequence": 4294967295
    },
    {
      "txid": "26c40c9dbce35f5b8b312452e449d302377db2b53cb2326692e00e99811dbe06",
      "vout": 0,
      "prevout": {
        "scriptpubkey": "001466757f8636c7d92e57e26185cf4df95a3b583ed7",
        "scriptpubkey_asm": "OP_0 OP_PUSHBYTES_20 66757f8636c7d92e57e26185cf4df95a3b583ed7",
        "scriptpubkey_type": "v0_p2wpkh",
        "scriptpubkey_address": "bc1qve6hlp3kclvju4lzvxzu7n0etga4s0kh42x3xm",
        "value": 179245
      },
      "scriptsig": "",
      "scriptsig_asm": "",
      "witness": [
        "3045022100f0926c05329fb2845c3d0268cb419f59656d6be503d7410abdd281ef76132352022021ad85f9984e36f10d3a6337faafca59edfff98b747d97fd81c6b2168c921b0f01",
        "02ca5e99428c88d631e8b06afe01f2d51f74c822d899280406fdb82ba4961c131a"
      ],
      "is_coinbase": false,
      "sequence": 4294967295
    }
  ],
  "vout": [
    {
      "scriptpubkey": "0014222eaf98b5f4712a1a1cfb8fb51c3e1ef20c9de5",
      "scriptpubkey_asm": "OP_0 OP_PUSHBYTES_20 222eaf98b5f4712a1a1cfb8fb51c3e1ef20c9de5",
      "scriptpubkey_type": "v0_p2wpkh",
      "scriptpubkey_address": "bc1qygh2lx9473cj5xsulw8m28p7rmeqe809p3y7ay",
      "value": 612436
    }
  ],
  "size": 341,
  "weight": 710,
  "fee": 1947,
  "status": {
    "confirmed": true,
    "block_height": 834464,
    "block_hash": "0000000000000000000177a0869a911a2b65c9bdcd5a8bcb02b68f305bee848e",
    "block_time": 1710308296
  },
  "hex": "010000000001024e44d836803b5a5e924a81872d86702d0f07815acc59dd27f1b8c669b360141c0000000000ffffffff06be1d81990ee0926632b23cb5b27d3702d349e45224318b5b5fe3bc9d0cc4260000000000ffffffff015458090000000000160014222eaf98b5f4712a1a1cfb8fb51c3e1ef20c9de502483045022100ab4931295e99661fd07632ea00c35c878e51feeeabb178566b1173c476ad22ba022033cad6a74bc45f994768e4a47b11c6174ba97aa30fb3e085b782d3cf144a2632012102ca5e99428c88d631e8b06afe01f2d51f74c822d899280406fdb82ba4961c131a02483045022100f0926c05329fb2845c3d0268cb419f59656d6be503d7410abdd281ef76132352022021ad85f9984e36f10d3a6337faafca59edfff98b747d97fd81c6b2168c921b0f012102ca5e99428c88d631e8b06afe01f2d51f74c822d899280406fdb82ba4961c131a00000000"
}