{
  "txid": "9b09ee41fbc37d041a35a7155f2bb063bf221be1770e55c036fb1d0db7990cd1",
  "version": 1,
  "locktime": 0,
  "vin": [
    {
      "txid": "f7e0511b03a1202118b29760721698f5af72a23bba728eff3f306e81b8d0270f",
      "vout": 1,
      "prevout": {
        "scriptpubkey": "00144d3ad629d9c2ef6b64f9fdc3d96eea48eef711af",
        "scriptpubkey_asm": "OP_0 OP_PUSHBYTES_20 4d3ad629d9c2ef6b64f9fdc3d96eea48eef711af",
        "scriptpubkey_type": "v0_p2wpkh",
        "scriptpubkey_address": "bc1qf5adv2wecthkke8elhpajmh2frh0wyd0edrrwt",
        "value": 500725
      },
      "scriptsig": "",
      "scriptsig_asm": "",
      "witness": [
        "3044022020dadd9fc1748e152a10b298d9b6b0b73e3567bcb079d14df5257207cc71c9d302206796c0c28308a2ec2245dcdf69ef0b45866bb3306d69c3e98a03ddd43746a6fd01",
        "025da19bb8baabce587be89c9109156d685ab42cfe3dbf0410647ca6c847535b4c"
      ],
      "is_coinbase": false,
      "sequence": 4294967295
    }
  ],
  "vout": [
    {
      "scriptpubkey": "0014faed70192e9f4d90ac060d3ba5dfbea96be6f932",
      "scriptpubkey_asm": "OP_0 OP_PUSHBYTES_20 faed70192e9f4d90ac060d3ba5dfbea96be6f932",
      "scriptpubkey_type": "v0_p2wpkh",
      "scriptpubkey_address": "bc1qltkhqxfwnaxeptqxp5a6tha74947d7fjwdmek7",
      "value": 58102
    },
    {
      "scriptpubkey": "00144d3ad629d9c2ef6b64f9fdc3d96eea48eef711af",
      "scriptpubkey_asm": "OP_0 OP_PUSHBYTES_20 4d3ad629d9c2ef6b64f9fdc3d96eea48eef711af",
      "scriptpubkey_type": "v0_p2wpkh",
      "scriptpubkey_address": "bc1qf5adv2wecthkke8elhpajmh2frh0wyd0edrrwt",
      "value": 440103
    }
  ],
  "size": 222,
  "weight": 561,
  "fee": 2520,
  "status": {
    "confirmed": true,
    "block_height": 834638,
    "block_hash": "000000000000000000025f742c626208ac87e0b7d15054abb4a19ca2d735a54e",
    "block_time": 1710405325
  },
  "hex": "010000000001010f27d0b8816e303fff8e72ba3ba272aff59816726097b2182120a1031b51e0f70100000000ffffffff02f6e2000000000000160014faed70192e9f4d90ac060d3ba5dfbea96be6f93227b70600000000001600144d3ad629d9c2ef6b64f9fdc3d96eea48eef711af02473044022020dadd9fc1748e152a10b298d9b6b0b73e3567bcb079d14df5257207cc71c9d302206796c0c28308a2ec2245dcdf69ef0b45866bb3306d69c3e98a03ddd43746a6fd0121025da19bb8baabce587be89c9109156d685ab42cfe3dbf0410647ca6c847535b4c00000000"
}