{
  "txid": "9b128a6e1d11db8c6d2287ee2cdf805a41ebe191786b70a22e93ad743381517b",
  "version": 1,
  "locktime": 0,
  "vin": [
    {
      "txid": "cf55b46b1cbd093dcc27898fc40a1d0d109676429928d1f8fddb11c46d9786a0",
      "vout": 22,
      "prevout": {
        "scriptpubkey": "51208904a4149f557e48a1661e1c9e2f821a64f470bbbb78787dcbb940897d2d44c7",
        "scriptpubkey_asm": "OP_PUSHNUM_1 OP_PUSHBYTES_32 8904a4149f557e48a1661e1c9e2f821a64f470bbbb78787dcbb940897d2d44c7",
        "scriptpubkey_type": "v1_p2tr",
        "scriptpubkey_address": "bc1p3yz2g9yl24ly3gtxrcwfutuzrfj0gu9mhdu8slwth9qgjlfdgnrs4ccgxd",
        "value": 37010187
      },
      "scriptsig": "",
      "scriptsig_asm": "",
      "witness": [
        "c349f84172e3d7b2e61d7d34cea02049cbc43b2f205c78a84da5d6975bb4e56b78e3316d631c3df64675532cea4721a2dc8eede6fb33077ede03b3e1c0cf5ae8"
      ],
      "is_coinbase": false,
      "sequence": 4294967295
    }
  ],
  "vout": [
    {
      "scriptpubkey": "76a91486f26984729204fc5554c0cf4cd5b6de00be50aa88ac",
      "scriptpubkey_asm": "OP_DUP OP_HASH160 OP_PUSHBYTES_20 86f26984729204fc5554c0cf4cd5b6de00be50aa OP_EQUALVERIFY OP_CHECKSIG",
      "scriptpubkey_type": "p2pkh",
      "scriptpubkey_address": "1DJXwoKbJvoH7pMDWPbNACT9osUPxKkEat",
      "value": 100000
    },
    {
      "scriptpubkey": "a91484a200b5117f35a604cd647862e712fb9d873b0d87",
      "scriptpubkey_asm": "OP_HASH160 OP_PUSHBYTES_20 84a200b5117f35a604cd647862e712fb9d873b0d OP_EQUAL",
      "scriptpubkey_type": "p2sh",
      "scriptpubkey_address": "3DnKC1obYVbCBkVeGwdz9iCTubP795QwKf",
      "value": 105086
    },
    {
      "scriptpubkey": "76a914b120672eee5a453aec2f46037160859b2842504a88ac",
      "scriptpubkey_asm": "OP_DUP OP_HASH160 OP_PUSHBYTES_20 b120672eee5a453aec2f46037160859b2842504a OP_EQUALVERIFY OP_CHECKSIG",
      "scriptpubkey_type": "p2pkh",
      "scriptpubkey_address": "1H9ZRMmVUaemS6TsQhKAWzpMKfat4oLLbF",
      "value": 118392
    },
    {
      "scriptpubkey": "0014883656c5deaef2a4292e602db0ee54c62ff6757e",
      "scriptpubkey_asm": "OP_0 OP_PUSHBYTES_20 883656c5deaef2a4292e602db0ee54c62ff6757e",
      "scriptpubkey_type": "v0_p2wpkh",
      "scriptpubkey_address": "bc1q3qm9d3w74me2g2fwvqkmpmj5cchlvat7q3wkel",
      "value": 132898
    },
    {
      "scriptpubkey": "0014c75572983a1c37900793c7362f97e95f729d4541",
      "scriptpubkey_asm": "OP_0 OP_PUSHBYTES_20 c75572983a1c37900793c7362f97e95f729d4541",
      "scriptpubkey_type": "v0_p2wpkh",
      "scriptpubkey_address": "bc1qca2h9xp6rsmeqpuncumzl9lftaef632p2njtet",
      "value": 149672
    },
    {
      "scriptpubkey": "00142f2240f7ffb15ac67a95dfa8edf5957c67a7e5dd",
      "scriptpubkey_asm": "OP_0 OP_PUSHBYTES_20 2f2240f7ffb15ac67a95dfa8edf5957c67a7e5dd",
      "scriptpubkey_type": "v0_p2wpkh",
      "scriptpubkey_address": "bc1q9u3ypallk9dvv754m75wmav403n60ewalgu90y",
      "value": 149721
    },
    {
      "scriptpubkey": "76a914589cdafd56b20ed6fa0d544a1647672fe4eabf6388ac",
      "scriptpubkey_asm": "OP_DUP OP_HASH160 OP_PUSHBYTES_20 589cdafd56b20ed6fa0d544a1647672fe4eabf63 OP_EQUALVERIFY OP_CHECKSIG",
      "scriptpubkey_type": "p2pkh",
      "scriptpubkey_address": "195YNPTqW4JRD4muNdGSwMYToaPDQ9TAaR",
      "value": 498735
    },
    {
      "scriptpubkey": "a914588086eb7334618b6dff9e118d5a6b57b499e84a87",
      "scriptpubkey_asm": "OP_HASH160 OP_PUSHBYTES_20 588086eb7334618b6dff9e118d5a6b57b499e84a OP_EQUAL",
      "scriptpubkey_type": "p2sh",
      "scriptpubkey_address": "39kyMe3M3Zt48U47TVS5s1SxA4fWkq6LSq",
      "value": 1507718
    },
    {
      "scriptpubkey": "512083a29dc5a5b460435edb91490c0e6ab61a474c8e61c2ba1500b67b23a5b3f486",
      "scriptpubkey_asm": "OP_PUSHNUM_1 OP_PUSHBYTES_32 83a29dc5a5b460435edb91490c0e6ab61a474c8e61c2ba1500b67b23a5b3f486",
      "scriptpubkey_type": "v1_p2tr",
      "scriptpubkey_address": "bc1psw3fm3d9k3syxhkmj9yscrn2kcdywnywv8pt59gqkeaj8fdn7jrq0qpg8g",
      "value": 34241829
    }
  ],
  "size": 421,
  "weight": 1480,
  "fee": 6136,
  "status": {
    "confirmed": true,
    "block_height": 834638,
    "block_hash": "000000000000000000025f742c626208ac87e0b7d15054abb4a19ca2d735a54e",
    "block_time": 1710405325
  },
  "hex": "01000000000101a086976dc411dbfdf8d12899427696100d1d0ac48f8927cc3d09bd1c6bb455cf1600000000ffffffff09a0860100000000001976a91486f26984729204fc5554c0cf4cd5b6de00be50aa88ac7e9a01000000000017a91484a200b5117f35a604cd647862e712fb9d873b0d8778ce0100000000001976a914b120672eee5a453aec2f46037160859b2842504a88ac2207020000000000160014883656c5deaef2a4292e602db0ee54c62ff6757ea848020000000000160014c75572983a1c37900793c7362f97e95f729d4541d9480200000000001600142f2240f7ffb15ac67a95dfa8edf5957c67a7e5dd2f9c0700000000001976a914589cdafd56b20ed6fa0d544a1647672fe4eabf6388ac860117000000000017a914588086eb7334618b6dff9e118d5a6b57b499e84a87257d0a020000000022512083a29dc5a5b460435edb91490c0e6ab61a474c8e61c2ba1500b67b23a5b3f4860140c349f84172e3d7b2e61d7d34cea02049cbc43b2f205c78a84da5d6975bb4e56b78e3316d631c3df64675532cea4721a2dc8eede6fb33077ede03b3e1c0cf5ae800000000"
}