{
  "txid": "9b1461d5e40be17e59bff583935efc54616abafdc49ffb34b4a3f4d629098dff",
  "version": 2,
  "locktime": 0,
  "vin": [
    {
      "txid": "2faae92a44f82e4823959b193682cf618fd12a84db9b9e31984d1245e5597203",
      "vout": 16,
      "prevout": {
        "scriptpubkey": "001451d0ff78645f1b5953cf65ffa96de0de60cf9623",
        "scriptpubkey_asm": "OP_0 OP_PUSHBYTES_20 51d0ff78645f1b5953cf65ffa96de0de60cf9623",
        "scriptpubkey_type": "v0_p2wpkh",
        "scriptpubkey_address": "bc1q28g077rytud4j570vhl6jm0qmesvl93rtdvjf3",
        "value": 121546
      },
      "scriptsig": "",
      "scriptsig_asm": "",
      "witness": [
        "3045022100bf151d847e2cbc401f5a812b8aeceb59eab7c0d1e07f4bab1fbc7755bf3adf04022012211f2ed254d5fabd36760124b66592cc40384a6a81b226a17b3f86ff5b06fc01",
        "029594e8d8ca54ed93927ea879f5fad2d2dd7fac826d83eb714feb21f32784201a"
      ],
      "is_coinbase": false,
      "sequence": 4294967295
    },
    {
      "txid": "2faae92a44f82e4823959b193682cf618fd12a84db9b9e31984d1245e5597203",
      "vout": 15,
      "prevout": {
        "scriptpubkey": "001451d0ff78645f1b5953cf65ffa96de0de60cf9623",
        "scriptpubkey_asm": "OP_0 OP_PUSHBYTES_20 51d0ff78645f1b5953cf65ffa96de0de60cf9623",
        "scriptpubkey_type": "v0_p2wpkh",
        "scriptpubkey_address": "bc1q28g077rytud4j570vhl6jm0qmesvl93rtdvjf3",
        "value": 121546
      },
      "scriptsig": "",
      "scriptsig_asm": "",
      "witness": [
        "3045022100dd154c3c62586cc36f07d5298d7e1f9a97f9129cd19911ed97ffd7622b3768160220321889e3644be3167cefdad040a38fcdc9f573e6607a87d62e3abb033760adbe01",
        "029594e8d8ca54ed93927ea879f5fad2d2dd7fac826d83eb714feb21f32784201a"
      ],
      "is_coinbase": false,
      "sequence": 4294967295
    },
    {
      "txid": "2faae92a44f82e4823959b193682cf618fd12a84db9b9e31984d1245e5597203",
      "vout": 14,
      "prevout": {
        "scriptpubkey": "001451d0ff78645f1b5953cf65ffa96de0de60cf9623",
        "scriptpubkey_asm": "OP_0 OP_PUSHBYTES_20 51d0ff78645f1b5953cf65ffa96de0de60cf9623",
        "scriptpubkey_type": "v0_p2wpkh",
        "scriptpubkey_address": "bc1q28g077rytud4j570vhl6jm0qmesvl93rtdvjf3",
        "value": 121546
      },
      "scriptsig": "",
      "scriptsig_asm": "",
      "witness": [
        "304502210095ee654c77f7b15f4f89ceca6dff86747ae6aaf02fc59d28d3a26ac1abd01297022002242f4c1dcf71c908b3a1ace4b7cc3e161a7ff532a9a1b8d150761a96f4721d01",
        "029594e8d8ca54ed93927ea879f5fad2d2dd7fac826d83eb714feb21f32784201a"
      ],
      "is_coinbase": false,
      "sequence": 4294967295
    },
    {
      "txid": "dd3d4c4fd9de3c42989f80b3a37c93d63a2b9019371fe95584d81849c241b8e7",
      "vout": 9,
      "prevout": {
        "scriptpubkey": "001451d0ff78645f1b5953cf65ffa96de0de60cf9623",
        "scriptpubkey_asm": "OP_0 OP_PUSHBYTES_20 51d0ff78645f1b5953cf65ffa96de0de60cf9623",
        "scriptpubkey_type": "v0_p2wpkh",
        "scriptpubkey_address": "bc1q28g077rytud4j570vhl6jm0qmesvl93rtdvjf3",
        "value": 103546
      },
      "scriptsig": "",
      "scriptsig_asm": "",
      "witness": [
        "3045022100ae134260699d6c9dec04cee00e6eac445f5d66050b81c4ce3bd8900f3ec0c79102202c2f3c05e275d8b6b5c438b2f5d4573c9fada3b928ae5178da9288ee167973dd01",
        "029594e8d8ca54ed93927ea879f5fad2d2dd7fac826d83eb714feb21f32784201a"
      ],
      "is_coinbase": false,
      "sequence": 4294967295
    },
    {
      "txid": "0592342ea94f75706f7ce30efe74f4e9544bf93ff5b97ada3b021830e2f83afc",
      "vout": 10,
      "prevout": {
        "scriptpubkey": "001451d0ff78645f1b5953cf65ffa96de0de60cf9623",
        "scriptpubkey_asm": "OP_0 OP_PUSHBYTES_20 51d0ff78645f1b5953cf65ffa96de0de60cf9623",
        "scriptpubkey_type": "v0_p2wpkh",
        "scriptpubkey_address": "bc1q28g077rytud4j570vhl6jm0qmesvl93rtdvjf3",
        "value": 103546
      },
      "scriptsig": "",
      "scriptsig_asm": "",
      "witness": [
        "3045022100a94f6b50bb6f22cf7f23760c500336ec0945efca2430d2d911951200c01246bc0220028a32a0a272536f656c3dfb1b5295b37625c1a6ba689505f616d03502c1e3c701",
        "029594e8d8ca54ed93927ea879f5fad2d2dd7fac826d83eb714feb21f32784201a"
      ],
      "is_coinbase": false,
      "sequence": 4294967295
    },
    {
      "txid": "98e15e2c536dc88ad933283a28b2b8ab04c97619d661db008a85b1c427f4ac03",
      "vout": 2,
      "prevout": {
        "scriptpubkey": "001451d0ff78645f1b5953cf65ffa96de0de60cf9623",
        "scriptpubkey_asm": "OP_0 OP_PUSHBYTES_20 51d0ff78645f1b5953cf65ffa96de0de60cf9623",
        "scriptpubkey_type": "v0_p2wpkh",
        "scriptpubkey_address": "bc1q28g077rytud4j570vhl6jm0qmesvl93rtdvjf3",
        "value": 100646
      },
      "scriptsig": "",
      "scriptsig_asm": "",
      "witness": [
        "3045022100bbb9e76181c357f47b10c57f165dbc82c4fe2abf7920d493a345b08d510cfcfa02200a5ef560edc0213ec640b32d5f09f1a5dd77d5c26cd0534f100008601bb5c71d01",
        "029594e8d8ca54ed93927ea879f5fad2d2dd7fac826d83eb714feb21f32784201a"
      ],
      "is_coinbase": false,
      "sequence": 4294967295
    },
    {
      "txid": "34aec2fd458de3cc3e5e7f5dca2f8df78c8c4ce9f2062c597afbb1eb9519129d",
      "vout": 8,
      "prevout": {
        "scriptpubkey": "001451d0ff78645f1b5953cf65ffa96de0de60cf9623",
        "scriptpubkey_asm": "OP_0 OP_PUSHBYTES_20 51d0ff78645f1b5953cf65ffa96de0de60cf9623",
        "scriptpubkey_type": "v0_p2wpkh",
        "scriptpubkey_address": "bc1q28g077rytud4j570vhl6jm0qmesvl93rtdvjf3",
        "value": 49202
      },
      "scriptsig": "",
      "scriptsig_asm": "",
      "witness": [
        "3045022100f16095d1a9acd44e98be71dc84769d765a1226f46772526350aa8c57b130279202205ee8e3c042bb90284d9f306ab8a0c84acd99e0b6c6c46c0e36165173f2d89e8501",
        "029594e8d8ca54ed93927ea879f5fad2d2dd7fac826d83eb714feb21f32784201a"
      ],
      "is_coinbase": false,
      "sequence": 4294967295
    },
    {
      "txid": "34aec2fd458de3cc3e5e7f5dca2f8df78c8c4ce9f2062c597afbb1eb9519129d",
      "vout": 7,
      "prevout": {
        "scriptpubkey": "001451d0ff78645f1b5953cf65ffa96de0de60cf9623",
        "scriptpubkey_asm": "OP_0 OP_PUSHBYTES_20 51d0ff78645f1b5953cf65ffa96de0de60cf9623",
        "scriptpubkey_type": "v0_p2wpkh",
        "scriptpubkey_address": "bc1q28g077rytud4j570vhl6jm0qmesvl93rtdvjf3",
        "value": 49202
      },
      "scriptsig": "",
      "scriptsig_asm": "",
      "witness": [
        "3045022100e4a2d9442a5b3f07a6ba2d6b8e7772fd7f547af32a95c48df1ed79112e22c49d022014ba4b9c4d2eb73922c47203fc1877be6486254e4cb921afbc37b1666338edf101",
        "029594e8d8ca54ed93927ea879f5fad2d2dd7fac826d83eb714feb21f32784201a"
      ],
      "is_coinbase": false,
      "sequence": 4294967295
    },
    {
      "txid": "34aec2fd458de3cc3e5e7f5dca2f8df78c8c4ce9f2062c597afbb1eb9519129d",
      "vout": 6,
      "prevout": {
        "scriptpubkey": "001451d0ff78645f1b5953cf65ffa96de0de60cf9623",
        "scriptpubkey_asm": "OP_0 OP_PUSHBYTES_20 51d0ff78645f1b5953cf65ffa96de0de60cf9623",
        "scriptpubkey_type": "v0_p2wpkh",
        "scriptpubkey_address": "bc1q28g077rytud4j570vhl6jm0qmesvl93rtdvjf3",
        "value": 49202
      },
      "scriptsig": "",
      "scriptsig_asm": "",
      "witness": [
        "3045022100b3cb563f2d61573c2348b910ed52009a8c179949fc4cb98879a038f8b1c7e14f022039e11a2877ea0ae5bf7e9b6a84fdedaf9aa71431dfdb2f0609d5f530baa4a65801",
        "029594e8d8ca54ed93927ea879f5fad2d2dd7fac826d83eb714feb21f32784201a"
      ],
      "is_coinbase": false,
      "sequence": 4294967295
    },
    {
      "txid": "386baec7315a1665034051e967084ed23e1854c7de96741e2760e242b62ded78",
      "vout": 21,
      "prevout": {
        "scriptpubkey": "001451d0ff78645f1b5953cf65ffa96de0de60cf9623",
        "scriptpubkey_asm": "OP_0 OP_PUSHBYTES_20 51d0ff78645f1b5953cf65ffa96de0de60cf9623",
        "scriptpubkey_type": "v0_p2wpkh",
        "scriptpubkey_address": "bc1q28g077rytud4j570vhl6jm0qmesvl93rtdvjf3",
        "value": 14670
      },
      "scriptsig": "",
      "scriptsig_asm": "",
      "witness": [
        "304402200348b36868b0dd369530cf17495a3d7ab1de00fffb5c8da0b8e7b414dbbbd68f02202bff2604329be73b37be70117fc13ccbf3604323a6420e9cd0be8d9a98c604a901",
        "029594e8d8ca54ed93927ea879f5fad2d2dd7fac826d83eb714feb21f32784201a"
      ],
      "is_coinbase": false,
      "sequence": 4294967295
    },
    {
      "txid": "386baec7315a1665034051e967084ed23e1854c7de96741e2760e242b62ded78",
      "vout": 0,
      "prevout": {
        "scriptpubkey": "001451d0ff78645f1b5953cf65ffa96de0de60cf9623",
        "scriptpubkey_asm": "OP_0 OP_PUSHBYTES_20 51d0ff78645f1b5953cf65ffa96de0de60cf9623",
        "scriptpubkey_type": "v0_p2wpkh",
        "scriptpubkey_address": "bc1q28g077rytud4j570vhl6jm0qmesvl93rtdvjf3",
        "value": 4200
      },
      "scriptsig": "",
      "scriptsig_asm": "",
      "witness": [
        "304402204f775577e467d07869af712b3e05de15c0d02c49c5a89fa1fb020ca61be2fa4a0220077b96c3652dfffb1e01d3b2fe7b7164e0f03acb1cdf15a1516ee7b4be5cfba301",
        "029594e8d8ca54ed93927ea879f5fad2d2dd7fac826d83eb714feb21f32784201a"
      ],
      "is_coinbase": false,
      "sequence": 4294967295
    },
    {
      "txid": "977921f83137c28837a793bd9261a62bb64f44f042a3ee0b8ecff104be228e23",
      "vout": 0,
      "prevout": {
        "scriptpubkey": "001451d0ff78645f1b5953cf65ffa96de0de60cf9623",
        "scriptpubkey_asm": "OP_0 OP_PUSHBYTES_20 51d0ff78645f1b5953cf65ffa96de0de60cf9623",
        "scriptpubkey_type": "v0_p2wpkh",
        "scriptpubkey_address": "bc1q28g077rytud4j570vhl6jm0qmesvl93rtdvjf3",
        "value": 2400
      },
      "scriptsig": "",
      "scriptsig_asm": "",
      "witness": [
        "304402201afa8050ef2453ea678581cb51f70dc30a10f0e5873e955dc8b4102f48deddc6022002d5102bee0276a443bdf7117a7e09161f281b489596dbaf4226b4afc9b3ebe801",
        "029594e8d8ca54ed93927ea879f5fad2d2dd7fac826d83eb714feb21f32784201a"
      ],
      "is_coinbase": false,
      "sequence": 4294967295
    },
    {
      "txid": "386baec7315a1665034051e967084ed23e1854c7de96741e2760e242b62ded78",
      "vout": 20,
      "prevout": {
        "scriptpubkey": "001451d0ff78645f1b5953cf65ffa96de0de60cf9623",
        "scriptpubkey_asm": "OP_0 OP_PUSHBYTES_20 51d0ff78645f1b5953cf65ffa96de0de60cf9623",
        "scriptpubkey_type": "v0_p2wpkh",
        "scriptpubkey_address": "bc1q28g077rytud4j570vhl6jm0qmesvl93rtdvjf3",
        "value": 600
      },
      "scriptsig": "",
      "scriptsig_asm": "",
      "witness": [
        "3044022030c6fc9599fe135176ed10e3086f1c79797f90a115fd69768464139fcb28b1de0220068f2e701d42925018c21edb3f60ab4326a0c0f5849c946486bd9c11a379b29f01",
        "029594e8d8ca54ed93927ea879f5fad2d2dd7fac826d83eb714feb21f32784201a"
      ],
      "is_coinbase": false,
      "sequence": 4294967295
    },
    {
      "txid": "386baec7315a1665034051e967084ed23e1854c7de96741e2760e242b62ded78",
      "vout": 19,
      "prevout": {
        "scriptpubkey": "001451d0ff78645f1b5953cf65ffa96de0de60cf9623",
        "scriptpubkey_asm": "OP_0 OP_PUSHBYTES_20 51d0ff78645f1b5953cf65ffa96de0de60cf9623",
        "scriptpubkey_type": "v0_p2wpkh",
        "scriptpubkey_address": "bc1q28g077rytud4j570vhl6jm0qmesvl93rtdvjf3",
        "value": 600
      },
      "scriptsig": "",
      "scriptsig_asm": "",
      "witness": [
        "3045022100cc0d43bf48bd513c651e67f0c85822a41c37c69b2b234e6c3fb2b5bd435b143d02204ec97471c5dc50cd936635281a9cb08dbb5bdc11e99f470ae52b4c7aa88e6b3b01",
        "029594e8d8ca54ed93927ea879f5fad2d2dd7fac826d83eb714feb21f32784201a"
      ],
      "is_coinbase": false,
      "sequence": 4294967295
    },
    {
      "txid": "386baec7315a1665034051e967084ed23e1854c7de96741e2760e242b62ded78",
      "vout": 18,
      "prevout": {
        "scriptpubkey": "001451d0ff78645f1b5953cf65ffa96de0de60cf9623",
        "scriptpubkey_asm": "OP_0 OP_PUSHBYTES_20 51d0ff78645f1b5953cf65ffa96de0de60cf9623",
        "scriptpubkey_type": "v0_p2wpkh",
        "scriptpubkey_address": "bc1q28g077rytud4j570vhl6jm0qmesvl93rtdvjf3",
        "value": 600
      },
      "scriptsig": "",
      "scriptsig_asm": "",
      "witness": [
        "304402203f7984b6e1aab06da3b28e68dcff175a128d1f56c44b3138fcd364d0cb801a350220032e632524a6754f2fb781c39a5ff9d4dab349740c79837190754a860ca3804b01",
        "029594e8d8ca54ed93927ea879f5fad2d2dd7fac826d83eb714feb21f32784201a"
      ],
      "is_coinbase": false,
      "sequence": 4294967295
    },
    {
      "txid": "386baec7315a1665034051e967084ed23e1854c7de96741e2760e242b62ded78",
      "vout": 17,
      "prevout": {
        "scriptpubkey": "001451d0ff78645f1b5953cf65ffa96de0de60cf9623",
        "scriptpubkey_asm": "OP_0 OP_PUSHBYTES_20 51d0ff78645f1b5953cf65ffa96de0de60cf9623",
        "scriptpubkey_type": "v0_p2wpkh",
        "scriptpubkey_address": "bc1q28g077rytud4j570vhl6jm0qmesvl93rtdvjf3",
        "value": 600
      },
      "scriptsig": "",
      "scriptsig_asm": "",
      "witness": [
        "304402207c67b605f364f0610ab16705edba048e5eac1645f7a69e8a213f58008857882b022042f09c9d55ee414f630ce1c810600394b0e70fec4d411421724f710887c1b1ff01",
        "029594e8d8ca54ed93927ea879f5fad2d2dd7fac826d83eb714feb21f32784201a"
      ],
      "is_coinbase": false,
      "sequence": 4294967295
    },
    {
      "txid": "386baec7315a1665034051e967084ed23e1854c7de96741e2760e242b62ded78",
      "vout": 16,
      "prevout": {
        "scriptpubkey": "001451d0ff78645f1b5953cf65ffa96de0de60cf9623",
        "scriptpubkey_asm": "OP_0 OP_PUSHBYTES_20 51d0ff78645f1b5953cf65ffa96de0de60cf9623",
        "scriptpubkey_type": "v0_p2wpkh",
        "scriptpubkey_address": "bc1q28g077rytud4j570vhl6jm0qmesvl93rtdvjf3",
        "value": 600
      },
      "scriptsig": "",
      "scriptsig_asm": "",
      "witness": [
        "30440220725b21278b5a8f554903ed6becaa77415d11f50be4b1e2c558126433959e08100220252ade9da373798d13dcef667e13152af6ce6a59c1fb6885400cab3fe0d4c73b01",
        "029594e8d8ca54ed93927ea879f5fad2d2dd7fac826d83eb714feb21f32784201a"
      ],
      "is_coinbase": false,
      "sequence": 4294967295
    },
    {
      "txid": "386baec7315a1665034051e967084ed23e1854c7de96741e2760e242b62ded78",
      "vout": 15,
      "prevout": {
        "scriptpubkey": "001451d0ff78645f1b5953cf65ffa96de0de60cf9623",
        "scriptpubkey_asm": "OP_0 OP_PUSHBYTES_20 51d0ff78645f1b5953cf65ffa96de0de60cf9623",
        "scriptpubkey_type": "v0_p2wpkh",
        "scriptpubkey_address": "bc1q28g077rytud4j570vhl6jm0qmesvl93rtdvjf3",
        "value": 600
      },
      "scriptsig": "",
      "scriptsig_asm": "",
      "witness": [
        "30440220718522086f53c39a924b7b3e9ba2944b07271448f38a97b648e6b50aeacc121b022053a60fc4383d377803f871438420d14d9f28b54e37ade9d32e9a638ec2c33d1601",
        "029594e8d8ca54ed93927ea879f5fad2d2dd7fac826d83eb714feb21f32784201a"
      ],
      "is_coinbase": false,
      "sequence": 4294967295
    },
    {
      "txid": "386baec7315a1665034051e967084ed23e1854c7de96741e2760e242b62ded78",
      "vout": 14,
      "prevout": {
        "scriptpubkey": "001451d0ff78645f1b5953cf65ffa96de0de60cf9623",
        "scriptpubkey_asm": "OP_0 OP_PUSHBYTES_20 51d0ff78645f1b5953cf65ffa96de0de60cf9623",
        "scriptpubkey_type": "v0_p2wpkh",
        "scriptpubkey_address": "bc1q28g077rytud4j570vhl6jm0qmesvl93rtdvjf3",
        "value": 600
      },
      "scriptsig": "",
      "scriptsig_asm": "",
      "witness": [
        "304402202bd525c1e881822ffd94df1f9c8c19672ea173f99b9810b3b1d7cf1d986a996c022015a46da7137ba0aceefe600e96c697a5e71bbb042974a962b5fdc0db168ce33701",
        "029594e8d8ca54ed93927ea879f5fad2d2dd7fac826d83eb714feb21f32784201a"
      ],
      "is_coinbase": false,
      "sequence": 4294967295
    },
    {
      "txid": "977921f83137c28837a793bd9261a62bb64f44f042a3ee0b8ecff104be228e23",
      "vout": 10,
      "prevout": {
        "scriptpubkey": "001451d0ff78645f1b5953cf65ffa96de0de60cf9623",
        "scriptpubkey_asm": "OP_0 OP_PUSHBYTES_20 51d0ff78645f1b5953cf65ffa96de0de60cf9623",
        "scriptpubkey_type": "v0_p2wpkh",
        "scriptpubkey_address": "bc1q28g077rytud4j570vhl6jm0qmesvl93rtdvjf3",
        "value": 600
      },
      "scriptsig": "",
      "scriptsig_asm": "",
      "witness": [
        "3045022100ffb2cab20c4fdc363fa5a0baa8aa9405eeb609d12bc963d8b6fc09117d40005e0220726f94b449a1a31ff6a470dfcd9fc7fc1349a5a68534f8be79a23b5f217275b601",
        "029594e8d8ca54ed93927ea879f5fad2d2dd7fac826d83eb714feb21f32784201a"
      ],
      "is_coinbase": false,
      "sequence": 4294967295
    },
    {
      "txid": "977921f83137c28837a793bd9261a62bb64f44f042a3ee0b8ecff104be228e23",
      "vout": 9,
      "prevout": {
        "scriptpubkey": "001451d0ff78645f1b5953cf65ffa96de0de60cf9623",
        "scriptpubkey_asm": "OP_0 OP_PUSHBYTES_20 51d0ff78645f1b5953cf65ffa96de0de60cf9623",
        "scriptpubkey_type": "v0_p2wpkh",
        "scriptpubkey_address": "bc1q28g077rytud4j570vhl6jm0qmesvl93rtdvjf3",
        "value": 600
      },
      "scriptsig": "",
      "scriptsig_asm": "",
      "witness": [
        "3044022048ec6b131f54b98bd464eed6c9d786f066bb6159042d651c76e2910931824f75022015d4d3c05342713cbe3800a06e925b5d6039ab43b0e594f46ff9f57c73da65ee01",
        "029594e8d8ca54ed93927ea879f5fad2d2dd7fac826d83eb714feb21f32784201a"
      ],
      "is_coinbase": false,
      "sequence": 4294967295
    },
    {
      "txid": "df78c4eb3ec05cacb1dddd43877e52878707a96706e6b565c021f5600f9a31e6",
      "vout": 6,
      "prevout": {
        "scriptpubkey": "001451d0ff78645f1b5953cf65ffa96de0de60cf9623",
        "scriptpubkey_asm": "OP_0 OP_PUSHBYTES_20 51d0ff78645f1b5953cf65ffa96de0de60cf9623",
        "scriptpubkey_type": "v0_p2wpkh",
        "scriptpubkey_address": "bc1q28g077rytud4j570vhl6jm0qmesvl93rtdvjf3",
        "value": 600
      },
      "scriptsig": "",
      "scriptsig_asm": "",
      "witness": [
        "30450221009de701fbb4bc0133fdf978c0deddf413ee1a7b0e58f7747a4d6f87408bf05593022042485a0c24e84b7fd739dd4a02725f39cf8c5c91dbfe1ce9c44015f9759802d901",
        "029594e8d8ca54ed93927ea879f5fad2d2dd7fac826d83eb714feb21f32784201a"
      ],
      "is_coinbase": false,
      "sequence": 4294967295
    }
  ],
  "vout": [
    {
      "scriptpubkey": "a914de97a3f394553e81fa1825fd5b53aaaaf64d37f587",
      "scriptpubkey_asm": "OP_HASH160 OP_PUSHBYTES_20 de97a3f394553e81fa1825fd5b53aaaaf64d37f5 OP_EQUAL",
      "scriptpubkey_type": "p2sh",
      "scriptpubkey_address": "3MyybHuU4kW5YjXaNHdPDjfBiraDVQ7vpY",
      "value": 828820
    }
  ],
  "size": 3312,
  "weight": 6144,
  "fee": 18432,
  "status": {
    "confirmed": true,
    "block_height": 834460,
    "block_hash": "00000000000000000000484a79b643b2524bbce82e5d8a442013fa5b8905ed98",
    "block_time": 1710307468
  },
  "hex": "02000000000116037259e545124d98319e9bdb842ad18f61cf8236199b9523482ef8442ae9aa2f1000000000ffffffff037259e545124d98319e9bdb842ad18f61cf8236199b9523482ef8442ae9aa2f0f00000000ffffffff037259e545124d98319e9bdb842ad18f61cf8236199b9523482ef8442ae9aa2f0e00000000ffffffffe7b841c24918d88455e91f3719902b3ad6937ca3b3809f98423cded94f4c3ddd0900000000fffffffffc3af8e23018023bda7ab9f53ff94b54e9f474fe0ee37c6f70754fa92e3492050a00000000ffffffff03acf427c4b1858a00db61d61976c904abb8b2283a2833d98ac86d532c5ee1980200000000ffffffff9d121995ebb1fb7a592c06f2e94c8c8cf78d2fca5d7f5e3ecce38d45fdc2ae340800000000ffffffff9d121995ebb1fb7a592c06f2e94c8c8cf78d2fca5d7f5e3ecce38d45fdc2ae340700000000ffffffff9d121995ebb1fb7a592c06f2e94c8c8cf78d2fca5d7f5e3ecce38d45fdc2ae340600000000ffffffff78ed2db642e260271e7496dec754183ed24e0867e951400365165a31c7ae6b381500000000ffffffff78ed2db642e260271e7496dec754183ed24e0867e951400365165a31c7ae6b380000000000ffffffff238e22be04f1cf8e0beea342f0444fb62ba66192bd93a73788c23731f82179970000000000ffffffff78ed2db642e260271e7496dec754183ed24e0867e951400365165a31c7ae6b381400000000ffffffff78ed2db642e260271e7496dec754183ed24e0867e951400365165a31c7ae6b381300000000ffffffff78ed2db642e260271e7496dec754183ed24e0867e951400365165a31c7ae6b381200000000ffffffff78ed2db642e260271e7496dec754183ed24e0867e951400365165a31c7ae6b381100000000ffffffff78ed2db642e260271e7496dec754183ed24e0867e951400365165a31c7ae6b381000000000ffffffff78ed2db642e260271e7496dec754183ed24e0867e951400365165a31c7ae6b380f00000000ffffffff78ed2db642e260271e7496dec754183ed24e0867e951400365165a31c7ae6b380e00000000ffffffff238e22be04f1cf8e0beea342f0444fb62ba66192bd93a73788c23731f82179970a00000000ffffffff238e22be04f1cf8e0beea342f0444fb62ba66192bd93a73788c23731f82179970900000000ffffffffe6319a0f60f521c065b5e60667a9078787527e8743ddddb1ac5cc03eebc478df0600000000ffffffff0194a50c000000000017a914de97a3f394553e81fa1825fd5b53aaaaf64d37f58702483045022100bf151d847e2cbc401f5a812b8aeceb59eab7c0d1e07f4bab1fbc7755bf3adf04022012211f2ed254d5fabd36760124b66592cc40384a6a81b226a17b3f86ff5b06fc0121029594e8d8ca54ed93927ea879f5fad2d2dd7fac826d83eb714feb21f32784201a02483045022100dd154c3c62586cc36f07d5298d7e1f9a97f9129cd19911ed97ffd7622b3768160220321889e3644be3167cefdad040a38fcdc9f573e6607a87d62e3abb033760adbe0121029594e8d8ca54ed93927ea879f5fad2d2dd7fac826d83eb714feb21f32784201a0248304502210095ee654c77f7b15f4f89ceca6dff86747ae6aaf02fc59d28d3a26ac1abd01297022002242f4c1dcf71c908b3a1ace4b7cc3e161a7ff532a9a1b8d150761a96f4721d0121029594e8d8ca54ed93927ea879f5fad2d2dd7fac826d83eb714feb21f32784201a02483045022100ae134260699d6c9dec04cee00e6eac445f5d66050b81c4ce3bd8900f3ec0c79102202c2f3c05e275d8b6b5c438b2f5d4573c9fada3b928ae5178da9288ee167973dd0121029594e8d8ca54ed93927ea879f5fad2d2dd7fac826d83eb714feb21f32784201a02483045022100a94f6b50bb6f22cf7f23760c500336ec0945efca2430d2d911951200c01246bc0220028a32a0a272536f656c3dfb1b5295b37625c1a6ba689505f616d03502c1e3c70121029594e8d8ca54ed93927ea879f5fad2d2dd7fac826d83eb714feb21f32784201a02483045022100bbb9e76181c357f47b10c57f165dbc82c4fe2abf7920d493a345b08d510cfcfa02200a5ef560edc0213ec640b32d5f09f1a5dd77d5c26cd0534f100008601bb5c71d0121029594e8d8ca54ed93927ea879f5fad2d2dd7fac826d83eb714feb21f32784201a02483045022100f16095d1a9acd44e98be71dc84769d765a1226f46772526350aa8c57b130279202205ee8e3c042bb90284d9f306ab8a0c84acd99e0b6c6c46c0e36165173f2d89e850121029594e8d8ca54ed93927ea879f5fad2d2dd7fac826d83eb714feb21f32784201a02483045022100e4a2d9442a5b3f07a6ba2d6b8e7772fd7f547af32a95c48df1ed79112e22c49d022014ba4b9c4d2eb73922c47203fc1877be6486254e4cb921afbc37b1666338edf10121029594e8d8ca54ed93927ea879f5fad2d2dd7fac826d83eb714feb21f32784201a02483045022100b3cb563f2d61573c2348b910ed52009a8c179949fc4cb98879a038f8b1c7e14f022039e11a2877ea0ae5bf7e9b6a84fdedaf9aa71431dfdb2f0609d5f530baa4a6580121029594e8d8ca54ed93927ea879f5fad2d2dd7fac826d83eb714feb21f32784201a0247304402200348b36868b0dd369530cf17495a3d7ab1de00fffb5c8da0b8e7b414dbbbd68f02202bff2604329be73b37be70117fc13ccbf3604323a6420e9cd0be8d9a98c604a90121029594e8d8ca54ed93927ea879f5fad2d2dd7fac826d83eb714feb21f32784201a0247304402204f775577e467d07869af712b3e05de15c0d02c49c5a89fa1fb020ca61be2fa4a0220077b96c3652dfffb1e01d3b2fe7b7164e0f03acb1cdf15a1516ee7b4be5cfba30121029594e8d8ca54ed93927ea879f5fad2d2dd7fac826d83eb714feb21f32784201a0247304402201afa8050ef2453ea678581cb51f70dc30a10f0e5873e955dc8b4102f48deddc6022002d5102bee0276a443bdf7117a7e09161f281b489596dbaf4226b4afc9b3ebe80121029594e8d8ca54ed93927ea879f5fad2d2dd7fac826d83eb714feb21f32784201a02473044022030c6fc9599fe135176ed10e3086f1c79797f90a115fd69768464139fcb28b1de0220068f2e701d42925018c21edb3f60ab4326a0c0f5849c946486bd9c11a379b29f0121029594e8d8ca54ed93927ea879f5fad2d2dd7fac826d83eb714feb21f32784201a02483045022100cc0d43bf48bd513c651e67f0c85822a41c37c69b2b234e6c3fb2b5bd435b143d02204ec97471c5dc50cd936635281a9cb08dbb5bdc11e99f470ae52b4c7aa88e6b3b0121029594e8d8ca54ed93927ea879f5fad2d2dd7fac826d83eb714feb21f32784201a0247304402203f7984b6e1aab06da3b28e68dcff175a128d1f56c44b3138fcd364d0cb801a350220032e632524a6754f2fb781c39a5ff9d4dab349740c79837190754a860ca3804b0121029594e8d8ca54ed93927ea879f5fad2d2dd7fac826d83eb714feb21f32784201a0247304402207c67b605f364f0610ab16705edba048e5eac1645f7a69e8a213f58008857882b022042f09c9d55ee414f630ce1c810600394b0e70fec4d411421724f710887c1b1ff0121029594e8d8ca54ed93927ea879f5fad2d2dd7fac826d83eb714feb21f32784201a024730440220725b21278b5a8f554903ed6becaa77415d11f50be4b1e2c558126433959e08100220252ade9da373798d13dcef667e13152af6ce6a59c1fb6885400cab3fe0d4c73b0121029594e8d8ca54ed93927ea879f5fad2d2dd7fac826d83eb714feb21f32784201a024730440220718522086f53c39a924b7b3e9ba2944b07271448f38a97b648e6b50aeacc121b022053a60fc4383d377803f871438420d14d9f28b54e37ade9d32e9a638ec2c33d160121029594e8d8ca54ed93927ea879f5fad2d2dd7fac826d83eb714feb21f32784201a0247304402202bd525c1e881822ffd94df1f9c8c19672ea173f99b9810b3b1d7cf1d986a996c022015a46da7137ba0aceefe600e96c697a5e71bbb042974a962b5fdc0db168ce3370121029594e8d8ca54ed93927ea879f5fad2d2dd7fac826d83eb714feb21f32784201a02483045022100ffb2cab20c4fdc363fa5a0baa8aa9405eeb609d12bc963d8b6fc09117d40005e0220726f94b449a1a31ff6a470dfcd9fc7fc1349a5a68534f8be79a23b5f217275b60121029594e8d8ca54ed93927ea879f5fad2d2dd7fac826d83eb714feb21f32784201a02473044022048ec6b131f54b98bd464eed6c9d786f066bb6159042d651c76e2910931824f75022015d4d3c05342713cbe3800a06e925b5d6039ab43b0e594f46ff9f57c73da65ee0121029594e8d8ca54ed93927ea879f5fad2d2dd7fac826d83eb714feb21f32784201a024830450221009de701fbb4bc0133fdf978c0deddf413ee1a7b0e58f7747a4d6f87408bf05593022042485a0c24e84b7fd739dd4a02725f39cf8c5c91dbfe1ce9c44015f9759802d90121029594e8d8ca54ed93927ea879f5fad2d2dd7fac826d83eb714feb21f32784201a00000000"
}