{
  "txid": "9b1d1eaf04a618ecf910da6b91c861319166b9aafc3058ffd24cd77c14f47e47",
  "version": 1,
  "locktime": 0,
  "vin": [
    {
      "txid": "160f3d8861910e0ad9aa2ac3c0d0cef48e79fe17cde7cc6cac906101df342f24",
      "vout": 14,
      "prevout": {
        "scriptpubkey": "001495cef9420c4c8e3520b7fc4a49ff8dd300c94e73",
        "scriptpubkey_asm": "OP_0 OP_PUSHBYTES_20 95cef9420c4c8e3520b7fc4a49ff8dd300c94e73",
        "scriptpubkey_type": "v0_p2wpkh",
        "scriptpubkey_address": "bc1qjh80jssvfj8r2g9hl39ynlud6vqvjnnnt2qpmz",
        "value": 9000000
      },
      "scriptsig": "",
      "scriptsig_asm": "",
      "witness": [
        "304402206612254fb062224efbb291a17187bfaa1bc8ce98bd6e6f71e8d842bd8b811c22022058118781b332cefab51eb7cdb97a72be3c21d74d6844fe8608cd27b73d525a8301",
        "02b8013f2fdc51637f57d4e52f7d21c4eef61ad297e09e42356bd410aa8f2854de"
      ],
      "is_coinbase": false,
      "sequence": 4294967293
    }
  ],
  "vout": [
    {
      "scriptpubkey": "001421683653e5f58563963df50b005959d22105a6c3",
      "scriptpubkey_asm": "OP_0 OP_PUSHBYTES_20 21683653e5f58563963df50b005959d22105a6c3",
      "scriptpubkey_type": "v0_p2wpkh",
      "scriptpubkey_address": "bc1qy95rv5l97kzk893a759sqk2e6gsstfkrpzfhwm",
      "value": 1000
    },
    {
      "scriptpubkey": "0014081ada3403be40cbcbc902ed0a89ca9143a16705",
      "scriptpubkey_asm": "OP_0 OP_PUSHBYTES_20 081ada3403be40cbcbc902ed0a89ca9143a16705",
      "scriptpubkey_type": "v0_p2wpkh",
      "scriptpubkey_address": "bc1qpqdd5dqrheqvhj7fqtks4zw2j9p6zec9dydkau",
      "value": 8997308
    }
  ],
  "size": 222,
  "weight": 561,
  "fee": 1692,
  "status": {
    "confirmed": true,
    "block_height": 834460,
    "block_hash": "00000000000000000000484a79b643b2524bbce82e5d8a442013fa5b8905ed98",
    "block_time": 1710307468
  },
  "hex": "01000000000101242f34df016190ac6ccce7cd17fe798ef4ced0c0c32aaad90a0e9161883d0f160e00000000fdffffff02e80300000000000016001421683653e5f58563963df50b005959d22105a6c3bc49890000000000160014081ada3403be40cbcbc902ed0a89ca9143a167050247304402206612254fb062224efbb291a17187bfaa1bc8ce98bd6e6f71e8d842bd8b811c22022058118781b332cefab51eb7cdb97a72be3c21d74d6844fe8608cd27b73d525a83012102b8013f2fdc51637f57d4e52f7d21c4eef61ad297e09e42356bd410aa8f2854de00000000"
}