{
  "txid": "9b224ad62ab1c70f1660fc3d051083fae13108e907a385db265d22aecfabd65a",
  "version": 1,
  "locktime": 0,
  "vin": [
    {
      "txid": "e7cf4cf38ff099de63b7ddd97ed77fefd48703a11b18dee3ea145bc774e8b9c5",
      "vout": 1,
      "prevout": {
        "scriptpubkey": "51209d6dbbf9bad17d0135e06ea56ec304df985f9f9bc809fa52ae6789a0947e0300",
        "scriptpubkey_asm": "OP_PUSHNUM_1 OP_PUSHBYTES_32 9d6dbbf9bad17d0135e06ea56ec304df985f9f9bc809fa52ae6789a0947e0300",
        "scriptpubkey_type": "v1_p2tr",
        "scriptpubkey_address": "bc1pn4kmh7d6697szd0qd6jkascym7v9l8umeqyl554wv7y6p9r7qvqquzkndh",
        "value": 367035
      },
      "scriptsig": "",
      "scriptsig_asm": "",
      "witness": [
        "6246cc8fc085aabee7bcbc425d334b1a53a636b6350844160601227ce55f1013011a742bd7349c8318749b96cb6b7016901c81df3152020068d46685afa9a89e"
      ],
      "is_coinbase": false,
      "sequence": 0
    }
  ],
  "vout": [
    {
      "scriptpubkey": "51201ce926ad3f5410333f6d3e3bab8f27c3ddc09df1f8e7b731a1cdba380d09858c",
      "scriptpubkey_asm": "OP_PUSHNUM_1 OP_PUSHBYTES_32 1ce926ad3f5410333f6d3e3bab8f27c3ddc09df1f8e7b731a1cdba380d09858c",
      "scriptpubkey_type": "v1_p2tr",
      "scriptpubkey_address": "bc1prn5jdtfl2sgrx0md8ca6hre8c0wup803lrnmwvdpekarsrgfskxqjyqsuw",
      "value": 2710
    },
    {
      "scriptpubkey": "51209d6dbbf9bad17d0135e06ea56ec304df985f9f9bc809fa52ae6789a0947e0300",
      "scriptpubkey_asm": "OP_PUSHNUM_1 OP_PUSHBYTES_32 9d6dbbf9bad17d0135e06ea56ec304df985f9f9bc809fa52ae6789a0947e0300",
      "scriptpubkey_type": "v1_p2tr",
      "scriptpubkey_address": "bc1pn4kmh7d6697szd0qd6jkascym7v9l8umeqyl554wv7y6p9r7qvqquzkndh",
      "value": 362477
    }
  ],
  "size": 205,
  "weight": 616,
  "fee": 1848,
  "status": {
    "confirmed": true,
    "block_height": 834460,
    "block_hash": "00000000000000000000484a79b643b2524bbce82e5d8a442013fa5b8905ed98",
    "block_time": 1710307468
  },
  "hex": "01000000000101c5b9e874c75b14eae3de181ba10387d4ef7fd77ed9ddb763de99f08ff34ccfe701000000000000000002960a0000000000002251201ce926ad3f5410333f6d3e3bab8f27c3ddc09df1f8e7b731a1cdba380d09858ced870500000000002251209d6dbbf9bad17d0135e06ea56ec304df985f9f9bc809fa52ae6789a0947e030001406246cc8fc085aabee7bcbc425d334b1a53a636b6350844160601227ce55f1013011a742bd7349c8318749b96cb6b7016901c81df3152020068d46685afa9a89e00000000"
}