{
  "txid": "9b2a36fd1140e9d0e72d4deadfb058979d4a197cde6d118f3d09cfc532623468",
  "version": 2,
  "locktime": 0,
  "vin": [
    {
      "txid": "8a6bae522a586d12baa601745164772dc39e3d8d254ce462559ae80f97464925",
      "vout": 0,
      "prevout": {
        "scriptpubkey": "5120ad2f454063c07edc0f20890ac09e93c284f3adf33ab068d2de3fb64d82478d37",
        "scriptpubkey_asm": "OP_PUSHNUM_1 OP_PUSHBYTES_32 ad2f454063c07edc0f20890ac09e93c284f3adf33ab068d2de3fb64d82478d37",
        "scriptpubkey_type": "v1_p2tr",
        "scriptpubkey_address": "bc1p45h52srrcpldcreq3y9vp85nc2z08t0n82cx35k787mymqj835mskywupp",
        "value": 546
      },
      "scriptsig": "",
      "scriptsig_asm": "",
      "witness": [
        "b877494a4058e8f166114738e7f75023509bd5924b8b2da5d6671fd0a29827abba80545e3f4856f79a9cd0fd85c57f3a502a4366f5e5f0ee5b250d4860338a70"
      ],
      "is_coinbase": false,
      "sequence": 2147483649
    },
    {
      "txid": "6bef1e4b466600f3b1735d77b69055a6137a91f3065353a9a81cbd07214a7aee",
      "vout": 1,
      "prevout": {
        "scriptpubkey": "5120ad2f454063c07edc0f20890ac09e93c284f3adf33ab068d2de3fb64d82478d37",
        "scriptpubkey_asm": "OP_PUSHNUM_1 OP_PUSHBYTES_32 ad2f454063c07edc0f20890ac09e93c284f3adf33ab068d2de3fb64d82478d37",
        "scriptpubkey_type": "v1_p2tr",
        "scriptpubkey_address": "bc1p45h52srrcpldcreq3y9vp85nc2z08t0n82cx35k787mymqj835mskywupp",
        "value": 258795
      },
      "scriptsig": "",
      "scriptsig_asm": "",
      "witness": [
        "a6bf0d55e1488ed447c381d23a9aeea232bb4183934a43c885821034dc85e557ccd083e9b500971815475ce270bcca405dc1e9fbfb8e32ca3e2d2a02577bd888"
      ],
      "is_coinbase": false,
      "sequence": 2147483649
    }
  ],
  "vout": [
    {
      "scriptpubkey": "512010918d9a07357fcab126eff82c84fff0a1703343613b21548ea2cd1a646544fa",
      "scriptpubkey_asm": "OP_PUSHNUM_1 OP_PUSHBYTES_32 10918d9a07357fcab126eff82c84fff0a1703343613b21548ea2cd1a646544fa",
      "scriptpubkey_type": "v1_p2tr",
      "scriptpubkey_address": "bc1pzzgcmxs8x4lu4vfxaluzep8l7zshqv6rvyajz4yw5tx35er9gnaqzedkwm",
      "value": 546
    },
    {
      "scriptpubkey": "5120ad2f454063c07edc0f20890ac09e93c284f3adf33ab068d2de3fb64d82478d37",
      "scriptpubkey_asm": "OP_PUSHNUM_1 OP_PUSHBYTES_32 ad2f454063c07edc0f20890ac09e93c284f3adf33ab068d2de3fb64d82478d37",
      "scriptpubkey_type": "v1_p2tr",
      "scriptpubkey_address": "bc1p45h52srrcpldcreq3y9vp85nc2z08t0n82cx35k787mymqj835mskywupp",
      "value": 255419
    }
  ],
  "size": 312,
  "weight": 846,
  "fee": 3376,
  "status": {
    "confirmed": true,
    "block_height": 834638,
    "block_hash": "000000000000000000025f742c626208ac87e0b7d15054abb4a19ca2d735a54e",
    "block_time": 1710405325
  },
  "hex": "02000000000102254946970fe89a5562e44c258d3d9ec32d7764517401a6ba126d582a52ae6b8a000000000001000080ee7a4a2107bd1ca8a9535306f3917a13a65590b6775d73b1f30066464b1eef6b01000000000100008002220200000000000022512010918d9a07357fcab126eff82c84fff0a1703343613b21548ea2cd1a646544fabbe5030000000000225120ad2f454063c07edc0f20890ac09e93c284f3adf33ab068d2de3fb64d82478d370140b877494a4058e8f166114738e7f75023509bd5924b8b2da5d6671fd0a29827abba80545e3f4856f79a9cd0fd85c57f3a502a4366f5e5f0ee5b250d4860338a700140a6bf0d55e1488ed447c381d23a9aeea232bb4183934a43c885821034dc85e557ccd083e9b500971815475ce270bcca405dc1e9fbfb8e32ca3e2d2a02577bd88800000000"
}