{
  "txid": "9b2ea67df5bb1a64b6f1a78681765758f4d88a776803428ef36fd5de0877aed9",
  "version": 2,
  "locktime": 0,
  "vin": [
    {
      "txid": "425ed8639af8c8dbe85a2258a807a4b0f823e771e3e5b8c38c2233dc318b616a",
      "vout": 3,
      "prevout": {
        "scriptpubkey": "001449c6b8095b5fe10e9493984043f16acdda4f6554",
        "scriptpubkey_asm": "OP_0 OP_PUSHBYTES_20 49c6b8095b5fe10e9493984043f16acdda4f6554",
        "scriptpubkey_type": "v0_p2wpkh",
        "scriptpubkey_address": "bc1qf8rtsz2mtlssa9ynnpqy8ut2ehdy7e25threvz",
        "value": 47103
      },
      "scriptsig": "",
      "scriptsig_asm": "",
      "witness": [
        "30450221009d9de26d5a9ae1701c459c27dceab030bb4e542bb81e7ce9265674e5e1b1e5c20220450ce3c2c501804079e7ce8178ed2d80b2553cc26b5f59638824afbd8db4a3ca01",
        "0256a4b2f2868165eb3fa00ef51ec72870222a81ab2d1f3b77a510d495ba9c2ae3"
      ],
      "is_coinbase": false,
      "sequence": 4294967295
    }
  ],
  "vout": [
    {
      "scriptpubkey": "001433515af4607081eef5ffdee33990c27465adaa31",
      "scriptpubkey_asm": "OP_0 OP_PUSHBYTES_20 33515af4607081eef5ffdee33990c27465adaa31",
      "scriptpubkey_type": "v0_p2wpkh",
      "scriptpubkey_address": "bc1qxdg44arqwzq7aa0lmm3nnyxzw3j6m233djg4ec",
      "value": 45896
    }
  ],
  "size": 192,
  "weight": 438,
  "fee": 1207,
  "status": {
    "confirmed": true,
    "block_height": 834464,
    "block_hash": "0000000000000000000177a0869a911a2b65c9bdcd5a8bcb02b68f305bee848e",
    "block_time": 1710308296
  },
  "hex": "020000000001016a618b31dc33228cc3b8e5e371e723f8b0a407a858225ae8dbc8f89a63d85e420300000000ffffffff0148b300000000000016001433515af4607081eef5ffdee33990c27465adaa31024830450221009d9de26d5a9ae1701c459c27dceab030bb4e542bb81e7ce9265674e5e1b1e5c20220450ce3c2c501804079e7ce8178ed2d80b2553cc26b5f59638824afbd8db4a3ca01210256a4b2f2868165eb3fa00ef51ec72870222a81ab2d1f3b77a510d495ba9c2ae300000000"
}