{
  "txid": "9b44d85a42c4ab3eed641b11a56a7c0d83515a6f62ef0b4b452a43c246327bd1",
  "version": 2,
  "locktime": 0,
  "vin": [
    {
      "txid": "32ba18fca6fc4f1b897ad7c6ff09b4aecc0c3a8137e298d19dd0a89eec01810f",
      "vout": 1,
      "prevout": {
        "scriptpubkey": "512013a776da48f847c18b00d300555c3799f051c9d6f3d2164721739b51e84f1c0e",
        "scriptpubkey_asm": "OP_PUSHNUM_1 OP_PUSHBYTES_32 13a776da48f847c18b00d300555c3799f051c9d6f3d2164721739b51e84f1c0e",
        "scriptpubkey_type": "v1_p2tr",
        "scriptpubkey_address": "bc1pzwnhdkjglprurzcq6vq92hphn8c9rjwk70fpv3epwwd4r6z0rs8qpe33df",
        "value": 991830
      },
      "scriptsig": "",
      "scriptsig_asm": "",
      "witness": [
        "116237c6228dc27cb075dfffb36b64e0feacc86ca069d9630f787e0d3c0d11ea3667ad8400ac826547b4c4595db07663aeeac2f0cdbfb0c1c1c1d1f251d23f7a"
      ],
      "is_coinbase": false,
      "sequence": 4294967295
    },
    {
      "txid": "2c97fff63f2b9e335024f9317a4908c6e2c9490d4cee88be1eb523c525fdf327",
      "vout": 1,
      "prevout": {
        "scriptpubkey": "512013a776da48f847c18b00d300555c3799f051c9d6f3d2164721739b51e84f1c0e",
        "scriptpubkey_asm": "OP_PUSHNUM_1 OP_PUSHBYTES_32 13a776da48f847c18b00d300555c3799f051c9d6f3d2164721739b51e84f1c0e",
        "scriptpubkey_type": "v1_p2tr",
        "scriptpubkey_address": "bc1pzwnhdkjglprurzcq6vq92hphn8c9rjwk70fpv3epwwd4r6z0rs8qpe33df",
        "value": 66254
      },
      "scriptsig": "",
      "scriptsig_asm": "",
      "witness": [
        "7f090512fbe2c6bb8cbfe37592e9ebcd7118e23a47fc241d1363587895b58088215d37dfca0a3d705837b25219444a7b8f28c5ff5ec86857cf000f7a79e827c1"
      ],
      "is_coinbase": false,
      "sequence": 4294967295
    },
    {
      "txid": "633da3d6183a9dbdaa9491ea413a154c6199450f153f56bb96798f21ea1c8ed7",
      "vout": 2,
      "prevout": {
        "scriptpubkey": "512013a776da48f847c18b00d300555c3799f051c9d6f3d2164721739b51e84f1c0e",
        "scriptpubkey_asm": "OP_PUSHNUM_1 OP_PUSHBYTES_32 13a776da48f847c18b00d300555c3799f051c9d6f3d2164721739b51e84f1c0e",
        "scriptpubkey_type": "v1_p2tr",
        "scriptpubkey_address": "bc1pzwnhdkjglprurzcq6vq92hphn8c9rjwk70fpv3epwwd4r6z0rs8qpe33df",
        "value": 50000
      },
      "scriptsig": "",
      "scriptsig_asm": "",
      "witness": [
        "1ae0e357991f04fcd6ce44b2f0547b1cd608c686887138f46ab0542561c4ca769c6dec4740ac926a87608c728e129a88b82dab363d73536bcd8eebdaa2630e7e"
      ],
      "is_coinbase": false,
      "sequence": 4294967295
    }
  ],
  "vout": [
    {
      "scriptpubkey": "76a914d334967b3e4d0cc2545f7d0fb71000b5ca61a4fc88ac",
      "scriptpubkey_asm": "OP_DUP OP_HASH160 OP_PUSHBYTES_20 d334967b3e4d0cc2545f7d0fb71000b5ca61a4fc OP_EQUALVERIFY OP_CHECKSIG",
      "scriptpubkey_type": "p2pkh",
      "scriptpubkey_address": "1LFkaLq4VePKTNdySsgqgitaT1CNaHUgKC",
      "value": 1104395
    }
  ],
  "size": 367,
  "weight": 868,
  "fee": 3689,
  "status": {
    "confirmed": true,
    "block_height": 834638,
    "block_hash": "000000000000000000025f742c626208ac87e0b7d15054abb4a19ca2d735a54e",
    "block_time": 1710405325
  },
  "hex": "020000000001030f8101ec9ea8d09dd198e237813a0cccaeb409ffc6d77a891b4ffca6fc18ba320100000000ffffffff27f3fd25c523b51ebe88ee4c0d49c9e2c608497a31f92450339e2b3ff6ff972c0100000000ffffffffd78e1cea218f7996bb563f150f4599614c153a41ea9194aabd9d3a18d6a33d630200000000ffffffff010bda1000000000001976a914d334967b3e4d0cc2545f7d0fb71000b5ca61a4fc88ac0140116237c6228dc27cb075dfffb36b64e0feacc86ca069d9630f787e0d3c0d11ea3667ad8400ac826547b4c4595db07663aeeac2f0cdbfb0c1c1c1d1f251d23f7a01407f090512fbe2c6bb8cbfe37592e9ebcd7118e23a47fc241d1363587895b58088215d37dfca0a3d705837b25219444a7b8f28c5ff5ec86857cf000f7a79e827c101401ae0e357991f04fcd6ce44b2f0547b1cd608c686887138f46ab0542561c4ca769c6dec4740ac926a87608c728e129a88b82dab363d73536bcd8eebdaa2630e7e00000000"
}