{
  "txid": "9b470b7033ec2ef0e9d4d264c5be22c205d0a528d75a6c03ff2af481e0b33107",
  "version": 1,
  "locktime": 0,
  "vin": [
    {
      "txid": "1b1200937889826437857373811341e09d9d716024971df5425b803278203830",
      "vout": 0,
      "prevout": {
        "scriptpubkey": "76a914180d7e0ab67c73ca96e3444cff20990e5ba840e488ac",
        "scriptpubkey_asm": "OP_DUP OP_HASH160 OP_PUSHBYTES_20 180d7e0ab67c73ca96e3444cff20990e5ba840e4 OP_EQUALVERIFY OP_CHECKSIG",
        "scriptpubkey_type": "p2pkh",
        "scriptpubkey_address": "13CBP4zpAVjyEQVBN2AZH72GCv7BbfPvDV",
        "value": 736213
      },
      "scriptsig": "483045022100e24eb232dc2f5b4cba20b69e5102d364d0c1e646256df89f067c7c0f5c050ac4022037aa3949ebbe36e269c1316b3512bf37346911ae97d384ddcd6979692c0077ca0121026ff151bdc1cd95b8ba4dedda2a3b32cfa08c5863b5d77f60ef72762999b5f263",
      "scriptsig_asm": "OP_PUSHBYTES_72 3045022100e24eb232dc2f5b4cba20b69e5102d364d0c1e646256df89f067c7c0f5c050ac4022037aa3949ebbe36e269c1316b3512bf37346911ae97d384ddcd6979692c0077ca01 OP_PUSHBYTES_33 026ff151bdc1cd95b8ba4dedda2a3b32cfa08c5863b5d77f60ef72762999b5f263",
      "is_coinbase": false,
      "sequence": 4294967295
    },
    {
      "txid": "e1f8f473db02253dd4a723cdc0e893344d5fb0e223a1ce07fa23ab9b39b1bafa",
      "vout": 0,
      "prevout": {
        "scriptpubkey": "76a914d66b967d1de64ff66bbfcca2e12dc321e78ea7cf88ac",
        "scriptpubkey_asm": "OP_DUP OP_HASH160 OP_PUSHBYTES_20 d66b967d1de64ff66bbfcca2e12dc321e78ea7cf OP_EQUALVERIFY OP_CHECKSIG",
        "scriptpubkey_type": "p2pkh",
        "scriptpubkey_address": "1LYkVPQfa75TC5mFLshTUrhEcKcX1E8kqu",
        "value": 13622497
      },
      "scriptsig": "483045022100ae715736bd37056fa729e64f599311a00f76e2e24f410ec549c5fea6d29c610c02203eedc4cb20ece5b3a9162fd0cb4bfbf82a7e4bbf70df3b17b192e2b8c1e3070f012103877b5e0f574b0a842b06d3ba7a70d1d58000e6f48cd3270b294503d032b426e2",
      "scriptsig_asm": "OP_PUSHBYTES_72 3045022100ae715736bd37056fa729e64f599311a00f76e2e24f410ec549c5fea6d29c610c02203eedc4cb20ece5b3a9162fd0cb4bfbf82a7e4bbf70df3b17b192e2b8c1e3070f01 OP_PUSHBYTES_33 03877b5e0f574b0a842b06d3ba7a70d1d58000e6f48cd3270b294503d032b426e2",
      "is_coinbase": false,
      "sequence": 4294967295
    }
  ],
  "vout": [
    {
      "scriptpubkey": "76a9147646542ce9c1cb3a3c898191b038842954a9c46288ac",
      "scriptpubkey_asm": "OP_DUP OP_HASH160 OP_PUSHBYTES_20 7646542ce9c1cb3a3c898191b038842954a9c462 OP_EQUALVERIFY OP_CHECKSIG",
      "scriptpubkey_type": "p2pkh",
      "scriptpubkey_address": "1BnNzAi8CXz6krvaZKyqSa3Ef5ZyZFkdpb",
      "value": 13622000
    },
    {
      "scriptpubkey": "76a914671ffc216e8cf842bbb83ce97f13579aa60124f688ac",
      "scriptpubkey_asm": "OP_DUP OP_HASH160 OP_PUSHBYTES_20 671ffc216e8cf842bbb83ce97f13579aa60124f6 OP_EQUALVERIFY OP_CHECKSIG",
      "scriptpubkey_type": "p2pkh",
      "scriptpubkey_address": "1AQGv7DzwNekLbQWAAfw35GgsWRt14cNHn",
      "value": 729230
    }
  ],
  "size": 374,
  "weight": 1496,
  "fee": 7480,
  "status": {
    "confirmed": true,
    "block_height": 834638,
    "block_hash": "000000000000000000025f742c626208ac87e0b7d15054abb4a19ca2d735a54e",
    "block_time": 1710405325
  },
  "hex": "01000000023038207832805b42f51d972460719d9de041138173738537648289789300121b000000006b483045022100e24eb232dc2f5b4cba20b69e5102d364d0c1e646256df89f067c7c0f5c050ac4022037aa3949ebbe36e269c1316b3512bf37346911ae97d384ddcd6979692c0077ca0121026ff151bdc1cd95b8ba4dedda2a3b32cfa08c5863b5d77f60ef72762999b5f263fffffffffabab1399bab23fa07cea123e2b05f4d3493e8c0cd23a7d43d2502db73f4f8e1000000006b483045022100ae715736bd37056fa729e64f599311a00f76e2e24f410ec549c5fea6d29c610c02203eedc4cb20ece5b3a9162fd0cb4bfbf82a7e4bbf70df3b17b192e2b8c1e3070f012103877b5e0f574b0a842b06d3ba7a70d1d58000e6f48cd3270b294503d032b426e2ffffffff02f0dacf00000000001976a9147646542ce9c1cb3a3c898191b038842954a9c46288ac8e200b00000000001976a914671ffc216e8cf842bbb83ce97f13579aa60124f688ac00000000"
}