{
  "txid": "9b5ede6660da2f6ea9e1aaf5887ecf6b5b0aed9b7852531d2f83f07b5f914842",
  "version": 1,
  "locktime": 0,
  "vin": [
    {
      "txid": "888888888a69908385d068162c195c1056c4a636a8e821feed0f357b5e735fe8",
      "vout": 0,
      "prevout": {
        "scriptpubkey": "512070f52b233b47059bfd941348f7305b6cbfed065867a1c155ab04398d12a7615d",
        "scriptpubkey_asm": "OP_PUSHNUM_1 OP_PUSHBYTES_32 70f52b233b47059bfd941348f7305b6cbfed065867a1c155ab04398d12a7615d",
        "scriptpubkey_type": "v1_p2tr",
        "scriptpubkey_address": "bc1pwr6jkgemguzehlv5zdy0wvzmdjl76pjcv7suz4dtqsuc6y48v9ws8llekv",
        "value": 11923
      },
      "scriptsig": "",
      "scriptsig_asm": "",
      "witness": [
        "e39773157e8f43a195304d8c5d0c6967db247ee56e3e360a2b41bcb59d844fc10f0780023f54e9e41b2601624717b12bca3e24acc494a2cfa3e9f7d5649b3bb7",
        "208543a29c44df2275486422e1310220c0484578e9d0cb9122c1ba01f3cbecd78cac00630461746f6d03646d7446a16461726773a46474696d651a65f136e6656e6f6e63651a0001000268626974776f726b636b3838383838383838382e386b6d696e745f7469636b657268696e66696e69747968",
        "c18543a29c44df2275486422e1310220c0484578e9d0cb9122c1ba01f3cbecd78c"
      ],
      "is_coinbase": false,
      "sequence": 4294967295
    }
  ],
  "vout": [
    {
      "scriptpubkey": "5120ee5d73a166b5fcf6fb0e22e1428770d9455bcd536c28912b437450303ef41201",
      "scriptpubkey_asm": "OP_PUSHNUM_1 OP_PUSHBYTES_32 ee5d73a166b5fcf6fb0e22e1428770d9455bcd536c28912b437450303ef41201",
      "scriptpubkey_type": "v1_p2tr",
      "scriptpubkey_address": "bc1paewh8gtxkh70d7cwyts59pmsm9z4hn2nds5fz26rw3grq0h5zgqsmngref",
      "value": 9999
    }
  ],
  "size": 314,
  "weight": 596,
  "fee": 1924,
  "status": {
    "confirmed": true,
    "block_height": 834460,
    "block_hash": "00000000000000000000484a79b643b2524bbce82e5d8a442013fa5b8905ed98",
    "block_time": 1710307468
  },
  "hex": "01000000000101e85f735e7b350fedfe21e8a836a6c456105c192c1668d0858390698a888888880000000000ffffffff010f27000000000000225120ee5d73a166b5fcf6fb0e22e1428770d9455bcd536c28912b437450303ef412010340e39773157e8f43a195304d8c5d0c6967db247ee56e3e360a2b41bcb59d844fc10f0780023f54e9e41b2601624717b12bca3e24acc494a2cfa3e9f7d5649b3bb775208543a29c44df2275486422e1310220c0484578e9d0cb9122c1ba01f3cbecd78cac00630461746f6d03646d7446a16461726773a46474696d651a65f136e6656e6f6e63651a0001000268626974776f726b636b3838383838383838382e386b6d696e745f7469636b657268696e66696e6974796821c18543a29c44df2275486422e1310220c0484578e9d0cb9122c1ba01f3cbecd78c00000000"
}