{
  "txid": "9b62adb07745b8afb1e48877dc2915f48c5dea19500f8657accd2d41efae5f97",
  "version": 2,
  "locktime": 834458,
  "vin": [
    {
      "txid": "142d6e4fdae809ba1fe36727cba5f17f96a354d555e2cde48e51907dd6f3e31d",
      "vout": 0,
      "prevout": {
        "scriptpubkey": "0014a316d27e67a6962f0fb7506695a8617688c6de7f",
        "scriptpubkey_asm": "OP_0 OP_PUSHBYTES_20 a316d27e67a6962f0fb7506695a8617688c6de7f",
        "scriptpubkey_type": "v0_p2wpkh",
        "scriptpubkey_address": "bc1q5vtdyln856tz7rah2pnft2rpw6yvdhnlpwenlu",
        "value": 1000000
      },
      "scriptsig": "",
      "scriptsig_asm": "",
      "witness": [
        "3044022079b56b46790bb0d14b671757f4e99fec547de28337bce388ca1f8ce680a4efdf022049079fbdf5feede0dff2c80f0c91589714a07e734a440444b46f679e80ee69c901",
        "023f8d152f7a905225cf82755d9113cc039c2388a7558f859aa9dcef75a2b83a0b"
      ],
      "is_coinbase": false,
      "sequence": 4294967293
    },
    {
      "txid": "026605373ad8a3901151084fb2e11bb20e9ab437f7446d17201964c387eff84d",
      "vout": 0,
      "prevout": {
        "scriptpubkey": "0014159271bae65f1471d14a217ea56af5a139a609f0",
        "scriptpubkey_asm": "OP_0 OP_PUSHBYTES_20 159271bae65f1471d14a217ea56af5a139a609f0",
        "scriptpubkey_type": "v0_p2wpkh",
        "scriptpubkey_address": "bc1qzkf8rwhxtu28r522y9l226h45yu6vz0s59swmk",
        "value": 332000
      },
      "scriptsig": "",
      "scriptsig_asm": "",
      "witness": [
        "3044022030db5c6de25fa76010174b041ca5a2a84d2b318da95a1349455d09d34911cc81022006160de58224694f9abab73a941913d02de563b3fc94290246d0765f797c194701",
        "0225c9a148e41e7a8dba50f31a81678ebe5104f11af8a664ff8a1bb8fbe0b528bb"
      ],
      "is_coinbase": false,
      "sequence": 4294967293
    }
  ],
  "vout": [
    {
      "scriptpubkey": "0014fc7eb1c303590ac7f748ba6ece98e108642b2e2c",
      "scriptpubkey_asm": "OP_0 OP_PUSHBYTES_20 fc7eb1c303590ac7f748ba6ece98e108642b2e2c",
      "scriptpubkey_type": "v0_p2wpkh",
      "scriptpubkey_address": "bc1ql3ltrscrty9v0a6ghfhvax8pppjzkt3vwf5ngg",
      "value": 1002434
    },
    {
      "scriptpubkey": "0014a27f893d68d0f4ad9556bf933dbc49f3aaa4b85a",
      "scriptpubkey_asm": "OP_0 OP_PUSHBYTES_20 a27f893d68d0f4ad9556bf933dbc49f3aaa4b85a",
      "scriptpubkey_type": "v0_p2wpkh",
      "scriptpubkey_address": "bc1q5flcj0tg6r62m92kh7fnm0zf7w42fwz65ucq66",
      "value": 327058
    }
  ],
  "size": 370,
  "weight": 832,
  "fee": 2508,
  "status": {
    "confirmed": true,
    "block_height": 834460,
    "block_hash": "00000000000000000000484a79b643b2524bbce82e5d8a442013fa5b8905ed98",
    "block_time": 1710307468
  },
  "hex": "020000000001021de3f3d67d90518ee4cde255d554a3967ff1a5cb2767e31fba09e8da4f6e2d140000000000fdffffff4df8ef87c3641920176d44f737b49a0eb21be1b24f08511190a3d83a370566020000000000fdffffff02c24b0f0000000000160014fc7eb1c303590ac7f748ba6ece98e108642b2e2c92fd040000000000160014a27f893d68d0f4ad9556bf933dbc49f3aaa4b85a02473044022079b56b46790bb0d14b671757f4e99fec547de28337bce388ca1f8ce680a4efdf022049079fbdf5feede0dff2c80f0c91589714a07e734a440444b46f679e80ee69c90121023f8d152f7a905225cf82755d9113cc039c2388a7558f859aa9dcef75a2b83a0b02473044022030db5c6de25fa76010174b041ca5a2a84d2b318da95a1349455d09d34911cc81022006160de58224694f9abab73a941913d02de563b3fc94290246d0765f797c194701210225c9a148e41e7a8dba50f31a81678ebe5104f11af8a664ff8a1bb8fbe0b528bb9abb0c00"
}