{
  "txid": "9b7694276ae3f1f73274cb5b3aa730cacf4ca3f050402ba49f35b34ff8726557",
  "version": 1,
  "locktime": 0,
  "vin": [
    {
      "txid": "bdf0aa32f4aa0dffed17c56a98c84ceeeb0c307b04e9abaab188125ce17c5433",
      "vout": 0,
      "prevout": {
        "scriptpubkey": "76a914472ffb814fe3605387e0bc8c26305d6ca4ec8ba788ac",
        "scriptpubkey_asm": "OP_DUP OP_HASH160 OP_PUSHBYTES_20 472ffb814fe3605387e0bc8c26305d6ca4ec8ba7 OP_EQUALVERIFY OP_CHECKSIG",
        "scriptpubkey_type": "p2pkh",
        "scriptpubkey_address": "17VQTVurPDFrF9EmxwA6pgbkDSbLrdUNhd",
        "value": 624383
      },
      "scriptsig": "483045022100887c6a947927bdbdc32609a531671898b33a5691059b737d5f763a6abdb92b6f02206a205d0fad6b70b0d2ff5239195c2e3f7d5ecf58d55d8772303fce40dc73c8d9012102400a8be39f6b0a41c211cb79dd22a712676c2a67962e427129dfa5c7cc198f66",
      "scriptsig_asm": "OP_PUSHBYTES_72 3045022100887c6a947927bdbdc32609a531671898b33a5691059b737d5f763a6abdb92b6f02206a205d0fad6b70b0d2ff5239195c2e3f7d5ecf58d55d8772303fce40dc73c8d901 OP_PUSHBYTES_33 02400a8be39f6b0a41c211cb79dd22a712676c2a67962e427129dfa5c7cc198f66",
      "is_coinbase": false,
      "sequence": 0
    },
    {
      "txid": "e96d7cde33f172a06a1a6eb2ea28e1f6a57cd07a422dbd226d51242a1fa9205f",
      "vout": 724,
      "prevout": {
        "scriptpubkey": "76a914fd317924b279bcab5480d38054eceef1bed86e2388ac",
        "scriptpubkey_asm": "OP_DUP OP_HASH160 OP_PUSHBYTES_20 fd317924b279bcab5480d38054eceef1bed86e23 OP_EQUALVERIFY OP_CHECKSIG",
        "scriptpubkey_type": "p2pkh",
        "scriptpubkey_address": "1Q5mDzZWCYDVqBqMYmKiWiNoE2EE2yKbsY",
        "value": 756251
      },
      "scriptsig": "483045022100e89e0bdd4839a5288ae455d0995662341eae975254b4b0990d04fa63b8a6d8fe022007ea2d4ab8db64f9c12f42d10d18746abf1ae0c998ee8cdac2d25bcba192463c0121020848c1fee8f0f9ae0a4d0134040e88770c9659a7a1f7d2210f3d230cd0dfa43d",
      "scriptsig_asm": "OP_PUSHBYTES_72 3045022100e89e0bdd4839a5288ae455d0995662341eae975254b4b0990d04fa63b8a6d8fe022007ea2d4ab8db64f9c12f42d10d18746abf1ae0c998ee8cdac2d25bcba192463c01 OP_PUSHBYTES_33 020848c1fee8f0f9ae0a4d0134040e88770c9659a7a1f7d2210f3d230cd0dfa43d",
      "is_coinbase": false,
      "sequence": 0
    },
    {
      "txid": "1fe2ea677926600416ad188cc44e2c8a6cca3aef09aa162bf5b41996672a010b",
      "vout": 58,
      "prevout": {
        "scriptpubkey": "76a9141d06785e491dbf4dd0acab5e425b0aa09f97c20f88ac",
        "scriptpubkey_asm": "OP_DUP OP_HASH160 OP_PUSHBYTES_20 1d06785e491dbf4dd0acab5e425b0aa09f97c20f OP_EQUALVERIFY OP_CHECKSIG",
        "scriptpubkey_type": "p2pkh",
        "scriptpubkey_address": "13eUM7wagN9qFCySR6CrSYNEo4b8D4dK6s",
        "value": 24264
      },
      "scriptsig": "47304402206a3294a6ebfe727ca0f04aab064defb1ba6f4b7a1a2a77d6edf9ddd0ed15c8dc02200e15e6d024d981e68b87449cbe95fbd1338564bb77c705c6164557400c69a2f7012102d6d22a5096bc01fec60b969f1b4241705069d4fca5d4767a7baeff2b05a1fe66",
      "scriptsig_asm": "OP_PUSHBYTES_71 304402206a3294a6ebfe727ca0f04aab064defb1ba6f4b7a1a2a77d6edf9ddd0ed15c8dc02200e15e6d024d981e68b87449cbe95fbd1338564bb77c705c6164557400c69a2f701 OP_PUSHBYTES_33 02d6d22a5096bc01fec60b969f1b4241705069d4fca5d4767a7baeff2b05a1fe66",
      "is_coinbase": false,
      "sequence": 0
    },
    {
      "txid": "e82332ffa5ae933fbac6f8ef544130ca45cbaf8c93b062e65e123ab30aa03f36",
      "vout": 1,
      "prevout": {
        "scriptpubkey": "76a914d7e2de9b15b6bedbada3935a31f5bad3571cce7688ac",
        "scriptpubkey_asm": "OP_DUP OP_HASH160 OP_PUSHBYTES_20 d7e2de9b15b6bedbada3935a31f5bad3571cce76 OP_EQUALVERIFY OP_CHECKSIG",
        "scriptpubkey_type": "p2pkh",
        "scriptpubkey_address": "1LgW4RA5iE98khRJ58Bhx5RLABP3QGjn9y",
        "value": 92390552
      },
      "scriptsig": "483045022100c82cf05ac55630175b567b0c68952e2eb58011b07ba1389b39e4929c7f002fd7022075c08322e43374a369f9c65f723e9e90e9c46c48d38699d12ab10904059c1fc701210340eeb2058c50e00b07e5a1a92742a634e728d084d50f784295b299f32339d21d",
      "scriptsig_asm": "OP_PUSHBYTES_72 3045022100c82cf05ac55630175b567b0c68952e2eb58011b07ba1389b39e4929c7f002fd7022075c08322e43374a369f9c65f723e9e90e9c46c48d38699d12ab10904059c1fc701 OP_PUSHBYTES_33 0340eeb2058c50e00b07e5a1a92742a634e728d084d50f784295b299f32339d21d",
      "is_coinbase": false,
      "sequence": 0
    }
  ],
  "vout": [
    {
      "scriptpubkey": "76a9143108c519450e0491e353683cd4d3cb35dcfe62b188ac",
      "scriptpubkey_asm": "OP_DUP OP_HASH160 OP_PUSHBYTES_20 3108c519450e0491e353683cd4d3cb35dcfe62b1 OP_EQUALVERIFY OP_CHECKSIG",
      "scriptpubkey_type": "p2pkh",
      "scriptpubkey_address": "15UGckAULs4du3dMascD9BnqA5N3we8NqD",
      "value": 3800000
    },
    {
      "scriptpubkey": "76a914d7e2de9b15b6bedbada3935a31f5bad3571cce7688ac",
      "scriptpubkey_asm": "OP_DUP OP_HASH160 OP_PUSHBYTES_20 d7e2de9b15b6bedbada3935a31f5bad3571cce76 OP_EQUALVERIFY OP_CHECKSIG",
      "scriptpubkey_type": "p2pkh",
      "scriptpubkey_address": "1LgW4RA5iE98khRJ58Bhx5RLABP3QGjn9y",
      "value": 89986740
    }
  ],
  "size": 669,
  "weight": 2676,
  "fee": 8710,
  "status": {
    "confirmed": true,
    "block_height": 834460,
    "block_hash": "00000000000000000000484a79b643b2524bbce82e5d8a442013fa5b8905ed98",
    "block_time": 1710307468
  },
  "hex": "010000000433547ce15c1288b1aaabe9047b300cebee4cc8986ac517edff0daaf432aaf0bd000000006b483045022100887c6a947927bdbdc32609a531671898b33a5691059b737d5f763a6abdb92b6f02206a205d0fad6b70b0d2ff5239195c2e3f7d5ecf58d55d8772303fce40dc73c8d9012102400a8be39f6b0a41c211cb79dd22a712676c2a67962e427129dfa5c7cc198f66000000005f20a91f2a24516d22bd2d427ad07ca5f6e128eab26e1a6aa072f133de7c6de9d40200006b483045022100e89e0bdd4839a5288ae455d0995662341eae975254b4b0990d04fa63b8a6d8fe022007ea2d4ab8db64f9c12f42d10d18746abf1ae0c998ee8cdac2d25bcba192463c0121020848c1fee8f0f9ae0a4d0134040e88770c9659a7a1f7d2210f3d230cd0dfa43d000000000b012a679619b4f52b16aa09ef3aca6c8a2c4ec48c18ad160460267967eae21f3a0000006a47304402206a3294a6ebfe727ca0f04aab064defb1ba6f4b7a1a2a77d6edf9ddd0ed15c8dc02200e15e6d024d981e68b87449cbe95fbd1338564bb77c705c6164557400c69a2f7012102d6d22a5096bc01fec60b969f1b4241705069d4fca5d4767a7baeff2b05a1fe6600000000363fa00ab33a125ee662b0938cafcb45ca304154eff8c6ba3f93aea5ff3223e8010000006b483045022100c82cf05ac55630175b567b0c68952e2eb58011b07ba1389b39e4929c7f002fd7022075c08322e43374a369f9c65f723e9e90e9c46c48d38699d12ab10904059c1fc701210340eeb2058c50e00b07e5a1a92742a634e728d084d50f784295b299f32339d21d0000000002c0fb3900000000001976a9143108c519450e0491e353683cd4d3cb35dcfe62b188acb4165d05000000001976a914d7e2de9b15b6bedbada3935a31f5bad3571cce7688ac00000000"
}