{
  "txid": "9b8fc94e029b8594ca10de2bbf2488403dc0e45e68186bbc7c64376308743efa",
  "version": 1,
  "locktime": 0,
  "vin": [
    {
      "txid": "d842aac3767392adb36cd4c55f7c04acf85f65e951a57e036a292869b2df0a78",
      "vout": 0,
      "prevout": {
        "scriptpubkey": "0014adbc33077228e658f7f3333111ace198b3d03e6c",
        "scriptpubkey_asm": "OP_0 OP_PUSHBYTES_20 adbc33077228e658f7f3333111ace198b3d03e6c",
        "scriptpubkey_type": "v0_p2wpkh",
        "scriptpubkey_address": "bc1q4k7rxpmj9rn93alnxvc3rt8pnzeaq0nvzyd9k0",
        "value": 3564
      },
      "scriptsig": "",
      "scriptsig_asm": "",
      "witness": [
        "3045022100d5484213b1b0fe3744025f58d7cc24bd076bc116e375e73502b68044a01de59502201b24ab6b7b16f6fb4c390d5fa50138d4bba2cac6f68429ed1aade2ad38edc22801",
        "03d8d6f3ce2ae2b5aad8f36209bf25aa93111f1752249e933688c9e9ebaffdb6b5"
      ],
      "is_coinbase": false,
      "sequence": 4294967293
    }
  ],
  "vout": [
    {
      "scriptpubkey": "0014d12b750f1343b2a63648b69c991401456cb3b219",
      "scriptpubkey_asm": "OP_0 OP_PUSHBYTES_20 d12b750f1343b2a63648b69c991401456cb3b219",
      "scriptpubkey_type": "v0_p2wpkh",
      "scriptpubkey_address": "bc1q6y4h2rcngwe2vdjgk6wfj9qpg4kt8vsemsrjnz",
      "value": 2354
    }
  ],
  "size": 192,
  "weight": 438,
  "fee": 1210,
  "status": {
    "confirmed": true,
    "block_height": 834464,
    "block_hash": "0000000000000000000177a0869a911a2b65c9bdcd5a8bcb02b68f305bee848e",
    "block_time": 1710308296
  },
  "hex": "01000000000101780adfb26928296a037ea551e9655ff8ac047c5fc5d46cb3ad927376c3aa42d80000000000fdffffff013209000000000000160014d12b750f1343b2a63648b69c991401456cb3b21902483045022100d5484213b1b0fe3744025f58d7cc24bd076bc116e375e73502b68044a01de59502201b24ab6b7b16f6fb4c390d5fa50138d4bba2cac6f68429ed1aade2ad38edc228012103d8d6f3ce2ae2b5aad8f36209bf25aa93111f1752249e933688c9e9ebaffdb6b500000000"
}