{
  "txid": "9b94d7014d1ee3ceaa69c9b10d76212603318deca6ae13c499540c057aa33b56",
  "version": 1,
  "locktime": 834637,
  "vin": [
    {
      "txid": "08f94338f7bcd7ef89fff92a4d390843d6567830e8d4d0c905cdb5fe6e9a5d9a",
      "vout": 0,
      "prevout": {
        "scriptpubkey": "a9141cdd21830cbb2c17d70f8789f054c50af1ffd0a287",
        "scriptpubkey_asm": "OP_HASH160 OP_PUSHBYTES_20 1cdd21830cbb2c17d70f8789f054c50af1ffd0a2 OP_EQUAL",
        "scriptpubkey_type": "p2sh",
        "scriptpubkey_address": "34KdkMpJRPn6sJW6dXBeDbLeFNgg1bjwfG",
        "value": 1567358
      },
      "scriptsig": "220020372eb2a8dbb30b45fa5efb96fa478bfa370c0e307abbebbb7207c8c29931ee64",
      "scriptsig_asm": "OP_PUSHBYTES_34 0020372eb2a8dbb30b45fa5efb96fa478bfa370c0e307abbebbb7207c8c29931ee64",
      "witness": [
        "",
        "304402203214ff060177c84d764c67ed33819a73f0f7af2b3cbf4e96ac55475f02236c6702205eaf8dce501faaaae05e6cd74af46ea6bc16b80ca48fd9c20b301454fbe73b6301",
        "304402201a17c6bc5d0ba7ee78911397fb08469967ebe0412e81cb798a7cc85b058a005f022011ed00976b949d7052b0e55f61b6fb22a592bffc3f499c646e5be677a80746bf01",
        "522103517df3f7d76f5101ddbb39385b7fdb80821ab2ec112889e5596b0e4003ebe92f21025ae37c6feeed829ed8479c2462fbecab185e9a0696110d12d86cb92e9886a9482103a25c6be0604fd57308bd3aa4adffb4f3e399dfc4e0d30636ae9b9903ce9eeca853ae"
      ],
      "is_coinbase": false,
      "sequence": 4294967295,
      "inner_redeemscript_asm": "OP_0 OP_PUSHBYTES_32 372eb2a8dbb30b45fa5efb96fa478bfa370c0e307abbebbb7207c8c29931ee64",
      "inner_witnessscript_asm": "OP_PUSHNUM_2 OP_PUSHBYTES_33 03517df3f7d76f5101ddbb39385b7fdb80821ab2ec112889e5596b0e4003ebe92f OP_PUSHBYTES_33 025ae37c6feeed829ed8479c2462fbecab185e9a0696110d12d86cb92e9886a948 OP_PUSHBYTES_33 03a25c6be0604fd57308bd3aa4adffb4f3e399dfc4e0d30636ae9b9903ce9eeca8 OP_PUSHNUM_3 OP_CHECKMULTISIG"
    },
    {
      "txid": "3bef800e2b5041cb17f326c8dbe18c8ed65c4df830b6c61fa4b2e20b906d729a",
      "vout": 21,
      "prevout": {
        "scriptpubkey": "a914a3f9de505eae6144cec6ca08bc2bdbd1f9f98bae87",
        "scriptpubkey_asm": "OP_HASH160 OP_PUSHBYTES_20 a3f9de505eae6144cec6ca08bc2bdbd1f9f98bae OP_EQUAL",
        "scriptpubkey_type": "p2sh",
        "scriptpubkey_address": "3Ge3PySLy4WSNWscNjGz8eK4Wb1MuAyuXu",
        "value": 1464380
      },
      "scriptsig": "220020a84ae50fb1a514528345bb330b8fb814ecba6d85fcf6337216d2270f756334eb",
      "scriptsig_asm": "OP_PUSHBYTES_34 0020a84ae50fb1a514528345bb330b8fb814ecba6d85fcf6337216d2270f756334eb",
      "witness": [
        "",
        "304502210094fdddf8a21493ad321e8aaab18d60eb78aa8b3b9113e963247febb795f219e602202a35e9d30c1aee297e8a2b002ef792a29c51fa22b1e7be0af0659c7e69865c6c01",
        "304402204bebe9cae556b9b092b51930eec955b6d164224fea1d46457e6a998f3221e62002205f03166a641ef50cfcdccc3eea01e7cfc0bf0d43c11c6e02d3bc9a1812962dd601",
        "5221039ea26a7e3b37f8878f238e9b76ec6e13374ccb001f2bfd9425405c58299a27492103b22f069867c4b715e78f1efde857322184e48da034c4873bd68079d295b78baf21036e667d9214295e589ad7750ede392e3b12655d81b275fc358713c8fca6723bd553ae"
      ],
      "is_coinbase": false,
      "sequence": 4294967295,
      "inner_redeemscript_asm": "OP_0 OP_PUSHBYTES_32 a84ae50fb1a514528345bb330b8fb814ecba6d85fcf6337216d2270f756334eb",
      "inner_witnessscript_asm": "OP_PUSHNUM_2 OP_PUSHBYTES_33 039ea26a7e3b37f8878f238e9b76ec6e13374ccb001f2bfd9425405c58299a2749 OP_PUSHBYTES_33 03b22f069867c4b715e78f1efde857322184e48da034c4873bd68079d295b78baf OP_PUSHBYTES_33 036e667d9214295e589ad7750ede392e3b12655d81b275fc358713c8fca6723bd5 OP_PUSHNUM_3 OP_CHECKMULTISIG"
    },
    {
      "txid": "5a0f6f2606f9c0ebab20be59a7da5030a2a2bcd53c4483bfa03715a776204f63",
      "vout": 0,
      "prevout": {
        "scriptpubkey": "a914580ef0d5589450e83ad4f5e185c0698e2f3f97e487",
        "scriptpubkey_asm": "OP_HASH160 OP_PUSHBYTES_20 580ef0d5589450e83ad4f5e185c0698e2f3f97e4 OP_EQUAL",
        "scriptpubkey_type": "p2sh",
        "scriptpubkey_address": "39idHXW87bBdDWh5HVaFVL2eWZdeonSkDG",
        "value": 1461129
      },
      "scriptsig": "2200204431f495bb14949ceeb6787e3d62157fcd2ace260fc0e21a76ed7bc6fc4cc4cd",
      "scriptsig_asm": "OP_PUSHBYTES_34 00204431f495bb14949ceeb6787e3d62157fcd2ace260fc0e21a76ed7bc6fc4cc4cd",
      "witness": [
        "",
        "30440220792e0ac35fc0e76f15a81eb600e603d600fcb4b1fc28969b92062a91b7ea512502201c9baf7ad6ad32db1e00bb5fe89902e5a6981b1e3bbfde7f1c704fe58e22443b01",
        "304402202fa8ae6eaec63b71b73642fa90e3d0acdd7ba89869f3823f746ed434b03ed7410220108697849a44cbd3fabdea8f23251e2981aa5f8263d1a1bbf4d7c9617f39425b01",
        "52210279dcbcc66bd7f2b15e22cac0a833966de2127d327a5b934bf862ef8eb285069f21027d311b9d4e21c232167fbde3a809383d56188bbedd6e1401b590d1910fb43b84210204c77779416660e4ce627a8931c9ab93cd1bc5ff6309e2a441fa2e73d4b21ae553ae"
      ],
      "is_coinbase": false,
      "sequence": 4294967295,
      "inner_redeemscript_asm": "OP_0 OP_PUSHBYTES_32 4431f495bb14949ceeb6787e3d62157fcd2ace260fc0e21a76ed7bc6fc4cc4cd",
      "inner_witnessscript_asm": "OP_PUSHNUM_2 OP_PUSHBYTES_33 0279dcbcc66bd7f2b15e22cac0a833966de2127d327a5b934bf862ef8eb285069f OP_PUSHBYTES_33 027d311b9d4e21c232167fbde3a809383d56188bbedd6e1401b590d1910fb43b84 OP_PUSHBYTES_33 0204c77779416660e4ce627a8931c9ab93cd1bc5ff6309e2a441fa2e73d4b21ae5 OP_PUSHNUM_3 OP_CHECKMULTISIG"
    },
    {
      "txid": "5cc50a73156319888b910905ef494812cc73fe58e9d46dc5ec9b5d67b766871b",
      "vout": 5,
      "prevout": {
        "scriptpubkey": "a9142ee61a248cffa6401ab358451aa307f7c2e3b2d787",
        "scriptpubkey_asm": "OP_HASH160 OP_PUSHBYTES_20 2ee61a248cffa6401ab358451aa307f7c2e3b2d7 OP_EQUAL",
        "scriptpubkey_type": "p2sh",
        "scriptpubkey_address": "35xzf9HA6aDbCxYM1MFZWZtnCJUZZJ3ZpZ",
        "value": 1461796
      },
      "scriptsig": "22002029fb6c66146a9d3c737f93d088085c360eee813f7e496b638b27c8821cb6e859",
      "scriptsig_asm": "OP_PUSHBYTES_34 002029fb6c66146a9d3c737f93d088085c360eee813f7e496b638b27c8821cb6e859",
      "witness": [
        "",
        "304402205f7f4f0d94bec4eb186ebbd4dda1b45861bcd54b8f26d89691684697c6bc8a1b02204bf1d6f217cac3b1e621f17e1822529b9f9987306bc3e0ad2ec76916afca04dd01",
        "3044022018c0c0f108522990d1ee564ec88e11d8e5e6f15042e0d078ed4c5325479211d402201f2d12168ee9e36304e9d3e7b4a5641472982460a3d5a2a7ffac939e944b2f4801",
        "52210366fa72ba122681f33cb98e581ec945673d5c5a17f01bf8b0e1412796a38944682103e0edd49494e250bc75c09b6afa6fbbe9872252512cb22ff4ff199e70f997dff821029375a21a977093067e971e2cf25b22cb9bed15857003674c4f09cf3bd9500b3853ae"
      ],
      "is_coinbase": false,
      "sequence": 4294967295,
      "inner_redeemscript_asm": "OP_0 OP_PUSHBYTES_32 29fb6c66146a9d3c737f93d088085c360eee813f7e496b638b27c8821cb6e859",
      "inner_witnessscript_asm": "OP_PUSHNUM_2 OP_PUSHBYTES_33 0366fa72ba122681f33cb98e581ec945673d5c5a17f01bf8b0e1412796a3894468 OP_PUSHBYTES_33 03e0edd49494e250bc75c09b6afa6fbbe9872252512cb22ff4ff199e70f997dff8 OP_PUSHBYTES_33 029375a21a977093067e971e2cf25b22cb9bed15857003674c4f09cf3bd9500b38 OP_PUSHNUM_3 OP_CHECKMULTISIG"
    },
    {
      "txid": "6e6053c1dec4ddf89a6b39a5bfd3acffe4cb1bdf18b44d0f2a7f4f383a4b2e7b",
      "vout": 0,
      "prevout": {
        "scriptpubkey": "a914f5b55eba2a8ff40c4d0514d971733f800f1e793a87",
        "scriptpubkey_asm": "OP_HASH160 OP_PUSHBYTES_20 f5b55eba2a8ff40c4d0514d971733f800f1e793a OP_EQUAL",
        "scriptpubkey_type": "p2sh",
        "scriptpubkey_address": "3Q6CkMQhRqwsHfrMRoNPe1yZxij7ZhBWqd",
        "value": 1620003
      },
      "scriptsig": "220020984e0bcde62189999bad4b5f1351c873110226fa27f900964ac17a4ca06f2306",
      "scriptsig_asm": "OP_PUSHBYTES_34 0020984e0bcde62189999bad4b5f1351c873110226fa27f900964ac17a4ca06f2306",
      "witness": [
        "",
        "3044022025986b4028055f27edcffd20342e5712e9684cd5de91aa24c9317f36ca6ff1070220338c2f8cc14612211a354a9d3f2c980fd2a222eb750f2caf539aa2bd31cddf9a01",
        "304402207ca0b302c01027917b8d19eb8b163fc844fd21970c536c153aacad61bfbc898b022038f302d55bc38ac8d74dbef80dc1cf5817d98bc177ec7301d61e1d6f03db4c9001",
        "52210363f0785913dd73df5e86e31e166a79b3781dc9fcb2cca9447321ecf98115219821022971598cdda633e761e483aef8dffb863bc585c1ebd67e013af0d7ce50f7674e210333a54da7549afe4843189a0ee9dd3132a05a0835aa1d553d3baef9736644071353ae"
      ],
      "is_coinbase": false,
      "sequence": 4294967295,
      "inner_redeemscript_asm": "OP_0 OP_PUSHBYTES_32 984e0bcde62189999bad4b5f1351c873110226fa27f900964ac17a4ca06f2306",
      "inner_witnessscript_asm": "OP_PUSHNUM_2 OP_PUSHBYTES_33 0363f0785913dd73df5e86e31e166a79b3781dc9fcb2cca9447321ecf981152198 OP_PUSHBYTES_33 022971598cdda633e761e483aef8dffb863bc585c1ebd67e013af0d7ce50f7674e OP_PUSHBYTES_33 0333a54da7549afe4843189a0ee9dd3132a05a0835aa1d553d3baef97366440713 OP_PUSHNUM_3 OP_CHECKMULTISIG"
    },
    {
      "txid": "7ac521823957390d7d9730bf4b2bdc02159476c5a36a41b367738fcb7a73972a",
      "vout": 6,
      "prevout": {
        "scriptpubkey": "a91437b4c18a5ffb983691330b2ef8f87095ded1df0c87",
        "scriptpubkey_asm": "OP_HASH160 OP_PUSHBYTES_20 37b4c18a5ffb983691330b2ef8f87095ded1df0c OP_EQUAL",
        "scriptpubkey_type": "p2sh",
        "scriptpubkey_address": "36mZdF2jj3Hej4tv1WxYpZ5rwkK9oMEf69",
        "value": 1544177
      },
      "scriptsig": "220020182021243e9547e0a0293871614237ea266586bea7177e364a3ad8108146d565",
      "scriptsig_asm": "OP_PUSHBYTES_34 0020182021243e9547e0a0293871614237ea266586bea7177e364a3ad8108146d565",
      "witness": [
        "",
        "304402204468a8c09a152d8b5b2f0028d695ae8f54ec6b08c54a26b615651ab2faf05ff102203129c6629cd53239070f9456f0475ef6c3facc42e48a10c0a1598ad96608e0b201",
        "30440220325b3a5464a888236c6b68b76e3779a753c12559f2ad56d8743ae7bba422dd6202205131c0521d03c13e599e51a19df51b5a7d35fd13db04b0cfcb20ce259cba558f01",
        "522102485b6e0c0c8c77f0606dfaf2f0919e89a6012c944a4dd3b45907f6ef96495c27210243c117cdfa36cea3b5c79c2cba3d34af2975fa87f5c4d862aa6821695076b54221023a84b39013c83dfa995795f1a476b6848b54c06f22f4fdbbfbe28f1af0e03cb553ae"
      ],
      "is_coinbase": false,
      "sequence": 4294967295,
      "inner_redeemscript_asm": "OP_0 OP_PUSHBYTES_32 182021243e9547e0a0293871614237ea266586bea7177e364a3ad8108146d565",
      "inner_witnessscript_asm": "OP_PUSHNUM_2 OP_PUSHBYTES_33 02485b6e0c0c8c77f0606dfaf2f0919e89a6012c944a4dd3b45907f6ef96495c27 OP_PUSHBYTES_33 0243c117cdfa36cea3b5c79c2cba3d34af2975fa87f5c4d862aa6821695076b542 OP_PUSHBYTES_33 023a84b39013c83dfa995795f1a476b6848b54c06f22f4fdbbfbe28f1af0e03cb5 OP_PUSHNUM_3 OP_CHECKMULTISIG"
    },
    {
      "txid": "af86894bad42328ce54ef98f9fa7e9b7c27af1a3632fefa0d7f762873d33cffb",
      "vout": 0,
      "prevout": {
        "scriptpubkey": "a914021712f8a30098e790f363e6e36dc70fc665dc5d87",
        "scriptpubkey_asm": "OP_HASH160 OP_PUSHBYTES_20 021712f8a30098e790f363e6e36dc70fc665dc5d OP_EQUAL",
        "scriptpubkey_type": "p2sh",
        "scriptpubkey_address": "31t4v9L8KkjeHL1zR2Cfbb1kKxcBsNauhW",
        "value": 1502605
      },
      "scriptsig": "2200202951d84be31ff46250e975511a10cceea20234e7d348dd3428d81ed34984430f",
      "scriptsig_asm": "OP_PUSHBYTES_34 00202951d84be31ff46250e975511a10cceea20234e7d348dd3428d81ed34984430f",
      "witness": [
        "",
        "3045022100b07223ad7b4fe73dbd565e28660152e1ee1612ad48ee9168f803eda185a709fc02203313b7794d16086247e4bae51b116d84f620a957a74d2369d8f932cac0c2e61101",
        "304402202b132ceb5b99847299d60b4d24f1d0075856274b59194e5f2ca4d3306a4c418902206c0894e96b52989bd45cbd7bbf33707f932cc758fd38f0cd6b9b1b53f2729be301",
        "5221034693cfb2d1cf69251ffca297cea27e343f81a013a8ec1857561fc64992ace42721038124139dd10ebad860e7904995cb513fd5d3b8dded5fb385be6e4c6dca1ce11b21026e898a4f54bed7b803a7bfdb4ece4ada878bb3f6a20da0027b2b616b8b5dfc5f53ae"
      ],
      "is_coinbase": false,
      "sequence": 4294967295,
      "inner_redeemscript_asm": "OP_0 OP_PUSHBYTES_32 2951d84be31ff46250e975511a10cceea20234e7d348dd3428d81ed34984430f",
      "inner_witnessscript_asm": "OP_PUSHNUM_2 OP_PUSHBYTES_33 034693cfb2d1cf69251ffca297cea27e343f81a013a8ec1857561fc64992ace427 OP_PUSHBYTES_33 038124139dd10ebad860e7904995cb513fd5d3b8dded5fb385be6e4c6dca1ce11b OP_PUSHBYTES_33 026e898a4f54bed7b803a7bfdb4ece4ada878bb3f6a20da0027b2b616b8b5dfc5f OP_PUSHNUM_3 OP_CHECKMULTISIG"
    },
    {
      "txid": "de2b6e3d6b7821ac37ae5d316f008c9dfed9d478d6d0cf88eae2d791a887551a",
      "vout": 35,
      "prevout": {
        "scriptpubkey": "a9149b772bffc0a7cc2a6c888ff9f9b6b567b7d4b72987",
        "scriptpubkey_asm": "OP_HASH160 OP_PUSHBYTES_20 9b772bffc0a7cc2a6c888ff9f9b6b567b7d4b729 OP_EQUAL",
        "scriptpubkey_type": "p2sh",
        "scriptpubkey_address": "3Fs3RV3FLSSahRHRJQKu4Tj89FoBQNE2E3",
        "value": 1539207
      },
      "scriptsig": "22002095bace7cbf61f658d25a1fa11c910feaecbf8c1c82ac1a156a14d379be348b66",
      "scriptsig_asm": "OP_PUSHBYTES_34 002095bace7cbf61f658d25a1fa11c910feaecbf8c1c82ac1a156a14d379be348b66",
      "witness": [
        "",
        "3045022100dd91d7cd41b5191c1bf2e8490c3a8976f5088f3f50167e7510163a7b6dfa19ac02207411a1914cb5a65a9a123b0627eb5db1cc3aedad274a8791e777e557aed05c8901",
        "304402200b216f1b56faf28032bf055ed962b351819a5a8e764569de3cc5e92dc3cdd35802202f9f7baf7de669188887acd520209c6585791de935992dba9e8aa7aff4e48c3601",
        "522102a4fa10a8286eabf351ebd93cdf3774dd10a98886b7810a29346e7e5de300089721038a5221009abe3c48c7038643189c6e38095d8638c7beda2d469ad641fec7c74021032f4d4067a60628858bc60156e5c724102d4a1c5955552687b5becbc70dca610253ae"
      ],
      "is_coinbase": false,
      "sequence": 4294967295,
      "inner_redeemscript_asm": "OP_0 OP_PUSHBYTES_32 95bace7cbf61f658d25a1fa11c910feaecbf8c1c82ac1a156a14d379be348b66",
      "inner_witnessscript_asm": "OP_PUSHNUM_2 OP_PUSHBYTES_33 02a4fa10a8286eabf351ebd93cdf3774dd10a98886b7810a29346e7e5de3000897 OP_PUSHBYTES_33 038a5221009abe3c48c7038643189c6e38095d8638c7beda2d469ad641fec7c740 OP_PUSHBYTES_33 032f4d4067a60628858bc60156e5c724102d4a1c5955552687b5becbc70dca6102 OP_PUSHNUM_3 OP_CHECKMULTISIG"
    },
    {
      "txid": "ead79d6fa2df7d4acb941b821ad7872fa89712048ddd2cb743219a5569c7ba6c",
      "vout": 3,
      "prevout": {
        "scriptpubkey": "a91476131767dc44d8ccb0940e762d85efc08c821ffd87",
        "scriptpubkey_asm": "OP_HASH160 OP_PUSHBYTES_20 76131767dc44d8ccb0940e762d85efc08c821ffd OP_EQUAL",
        "scriptpubkey_type": "p2sh",
        "scriptpubkey_address": "3CTLXg8UdQ2A3AzhegR3XLvDVB2PQsTwgt",
        "value": 1515184
      },
      "scriptsig": "220020cf794aa0efcde30af07dba83fa8e0b4dc91351bb0a4386f56f9346fe94b18742",
      "scriptsig_asm": "OP_PUSHBYTES_34 0020cf794aa0efcde30af07dba83fa8e0b4dc91351bb0a4386f56f9346fe94b18742",
      "witness": [
        "",
        "3045022100c96de494c9fa718cadd83e8347d369fb04bbffe575c11a1e25bdbfc35e3557fb022009d6270190260f94b0f2f048c6aaad73f51c85d656e883cf10d3c49626ba558e01",
        "304402201eeab45e5454c5daf7eedb5e67597d18e0dcfe0c526eb9b241a6089ef8e19214022063578715adc25d9ffda446751e8f3f0bbd1ad629ebf82db19768fa26687b15a701",
        "5221035efc3705703018242dd6294a7cd3069f09948cf12df25e30ab6ae7806ec5ce4421027f26ff7f60c960461d6d8735f6e3defa35c73398e409b1b4c56bf56d11ef1d5c2103d1462730fac979bedba547d683aa67ccf9f484f11e8cb48d69f5919d0634166353ae"
      ],
      "is_coinbase": false,
      "sequence": 4294967295,
      "inner_redeemscript_asm": "OP_0 OP_PUSHBYTES_32 cf794aa0efcde30af07dba83fa8e0b4dc91351bb0a4386f56f9346fe94b18742",
      "inner_witnessscript_asm": "OP_PUSHNUM_2 OP_PUSHBYTES_33 035efc3705703018242dd6294a7cd3069f09948cf12df25e30ab6ae7806ec5ce44 OP_PUSHBYTES_33 027f26ff7f60c960461d6d8735f6e3defa35c73398e409b1b4c56bf56d11ef1d5c OP_PUSHBYTES_33 03d1462730fac979bedba547d683aa67ccf9f484f11e8cb48d69f5919d06341663 OP_PUSHNUM_3 OP_CHECKMULTISIG"
    },
    {
      "txid": "f21efc8664b50ab1f78e8e630632f8a92115d90fd94ebf70d88774a552273feb",
      "vout": 14,
      "prevout": {
        "scriptpubkey": "a91425ce8d7e190714944860810a05aafe8ffc46ca1787",
        "scriptpubkey_asm": "OP_HASH160 OP_PUSHBYTES_20 25ce8d7e190714944860810a05aafe8ffc46ca17 OP_EQUAL",
        "scriptpubkey_type": "p2sh",
        "scriptpubkey_address": "358vNB77He7Xh8REHG1hXsDt8vjEcW6P4M",
        "value": 19980000
      },
      "scriptsig": "220020cc4a22526e52f319402434d22385dd52089c1eb0a92ee6922115bd19056be480",
      "scriptsig_asm": "OP_PUSHBYTES_34 0020cc4a22526e52f319402434d22385dd52089c1eb0a92ee6922115bd19056be480",
      "witness": [
        "",
        "304402202499e4a53e8bc400817b9440798d5d4d3045de61dad52d03773910761ba538fe02205211ca9e4e2db339b844a95dec758c2b676c498f9bc472f01026f3a73805f4c801",
        "304402207431d6725e018e0e1f014f81b09f32404156c4f534d70464b4408e7cdc7aabce02202cca6ea93863d00e0b3f8c391ce27ba4f9c6a3e314ca961c1026b69572d65a5c01",
        "5221037f2fc533bee2faf50fa100a9b653f133444cec3cb000577239420ead001375c32103324b96abfc5c91af12e441fd03d133c6efa06f1c70f29d4c386e3c5a977f4c182103009748c1da5a8da0fcc014225d3d8f7d34116a996b83ab6ed1e643e75695f8ae53ae"
      ],
      "is_coinbase": false,
      "sequence": 4294967295,
      "inner_redeemscript_asm": "OP_0 OP_PUSHBYTES_32 cc4a22526e52f319402434d22385dd52089c1eb0a92ee6922115bd19056be480",
      "inner_witnessscript_asm": "OP_PUSHNUM_2 OP_PUSHBYTES_33 037f2fc533bee2faf50fa100a9b653f133444cec3cb000577239420ead001375c3 OP_PUSHBYTES_33 03324b96abfc5c91af12e441fd03d133c6efa06f1c70f29d4c386e3c5a977f4c18 OP_PUSHBYTES_33 03009748c1da5a8da0fcc014225d3d8f7d34116a996b83ab6ed1e643e75695f8ae OP_PUSHNUM_3 OP_CHECKMULTISIG"
    }
  ],
  "vout": [
    {
      "scriptpubkey": "0014d33431c8e4347e378e23ddb196ea79bef0222312",
      "scriptpubkey_asm": "OP_0 OP_PUSHBYTES_20 d33431c8e4347e378e23ddb196ea79bef0222312",
      "scriptpubkey_type": "v0_p2wpkh",
      "scriptpubkey_address": "bc1q6v6rrj8yx3lr0r3rmkced6nehmczygcjetk9mu",
      "value": 80451
    },
    {
      "scriptpubkey": "76a914886a175079903cd0dda3a3a26ae34a34bb03d7c488ac",
      "scriptpubkey_asm": "OP_DUP OP_HASH160 OP_PUSHBYTES_20 886a175079903cd0dda3a3a26ae34a34bb03d7c4 OP_EQUALVERIFY OP_CHECKSIG",
      "scriptpubkey_type": "p2pkh",
      "scriptpubkey_address": "1DSHzRhUwgp4eRi2UVdJonqUR63xsAiHG8",
      "value": 81319
    },
    {
      "scriptpubkey": "001497e99ac232467dde236c52580e217b728a0b388d",
      "scriptpubkey_asm": "OP_0 OP_PUSHBYTES_20 97e99ac232467dde236c52580e217b728a0b388d",
      "scriptpubkey_type": "v0_p2wpkh",
      "scriptpubkey_address": "bc1qjl5e4s3jge7augmv2fvqugtmw29qkwydphe9n6",
      "value": 352125
    },
    {
      "scriptpubkey": "76a91407c98bd857fbaef722ec45b7692df42886d9b81488ac",
      "scriptpubkey_asm": "OP_DUP OP_HASH160 OP_PUSHBYTES_20 07c98bd857fbaef722ec45b7692df42886d9b814 OP_EQUALVERIFY OP_CHECKSIG",
      "scriptpubkey_type": "p2pkh",
      "scriptpubkey_address": "1iBB2Ls5ayA4SFokNo8B6x6pnGhoqxVAL",
      "value": 735835
    },
    {
      "scriptpubkey": "0014c05c1dabf7fe3cfd67adcbb368defe4c3cb87f68",
      "scriptpubkey_asm": "OP_0 OP_PUSHBYTES_20 c05c1dabf7fe3cfd67adcbb368defe4c3cb87f68",
      "scriptpubkey_type": "v0_p2wpkh",
      "scriptpubkey_address": "bc1qcpwpm2lhlc706eadewek3hh7fs7tslmgqka4m8",
      "value": 13091028
    },
    {
      "scriptpubkey": "0020bd0aa3d3dbc0e714c0f4096b742976f7f48501a9bdf0c3e6ad45b2eb89d2ceab",
      "scriptpubkey_asm": "OP_0 OP_PUSHBYTES_32 bd0aa3d3dbc0e714c0f4096b742976f7f48501a9bdf0c3e6ad45b2eb89d2ceab",
      "scriptpubkey_type": "v0_p2wsh",
      "scriptpubkey_address": "bc1qh592857mcrn3fs85p94hg2tk7l6g2qdfhhcv8e4dgkewhzwje64s3vsd2j",
      "value": 19283592
    }
  ],
  "size": 3500,
  "weight": 6422,
  "fee": 31489,
  "status": {
    "confirmed": true,
    "block_height": 834638,
    "block_hash": "000000000000000000025f742c626208ac87e0b7d15054abb4a19ca2d735a54e",
    "block_time": 1710405325
  },
  "hex": "0100000000010a9a5d9a6efeb5cd05c9d0d4e8307856d64308394d2af9ff89efd7bcf73843f9080000000023220020372eb2a8dbb30b45fa5efb96fa478bfa370c0e307abbebbb7207c8c29931ee64ffffffff9a726d900be2b2a41fc6b630f84d5cd68e8ce1dbc826f317cb41502b0e80ef3b1500000023220020a84ae50fb1a514528345bb330b8fb814ecba6d85fcf6337216d2270f756334ebffffffff634f2076a71537a0bf83443cd5bca2a23050daa759be20abebc0f906266f0f5a00000000232200204431f495bb14949ceeb6787e3d62157fcd2ace260fc0e21a76ed7bc6fc4cc4cdffffffff1b8766b7675d9becc56dd4e958fe73cc124849ef0509918b88196315730ac55c050000002322002029fb6c66146a9d3c737f93d088085c360eee813f7e496b638b27c8821cb6e859ffffffff7b2e4b3a384f7f2a0f4db418df1bcbe4ffacd3bfa5396b9af8ddc4dec153606e0000000023220020984e0bcde62189999bad4b5f1351c873110226fa27f900964ac17a4ca06f2306ffffffff2a97737acb8f7367b3416aa3c576941502dc2b4bbf30977d0d3957398221c57a0600000023220020182021243e9547e0a0293871614237ea266586bea7177e364a3ad8108146d565fffffffffbcf333d8762f7d7a0ef2f63a3f17ac2b7e9a79f8ff94ee58c3242ad4b8986af00000000232200202951d84be31ff46250e975511a10cceea20234e7d348dd3428d81ed34984430fffffffff1a5587a891d7e2ea88cfd0d678d4d9fe9d8c006f315dae37ac21786b3d6e2bde230000002322002095bace7cbf61f658d25a1fa11c910feaecbf8c1c82ac1a156a14d379be348b66ffffffff6cbac769559a2143b72cdd8d041297a82f87d71a821b94cb4a7ddfa26f9dd7ea0300000023220020cf794aa0efcde30af07dba83fa8e0b4dc91351bb0a4386f56f9346fe94b18742ffffffffeb3f2752a57487d870bf4ed90fd91521a9f83206638e8ef7b10ab56486fc1ef20e00000023220020cc4a22526e52f319402434d22385dd52089c1eb0a92ee6922115bd19056be480ffffffff06433a010000000000160014d33431c8e4347e378e23ddb196ea79bef0222312a73d0100000000001976a914886a175079903cd0dda3a3a26ae34a34bb03d7c488ac7d5f05000000000016001497e99ac232467dde236c52580e217b728a0b388d5b3a0b00000000001976a91407c98bd857fbaef722ec45b7692df42886d9b81488acd4c0c70000000000160014c05c1dabf7fe3cfd67adcbb368defe4c3cb87f68883e260100000000220020bd0aa3d3dbc0e714c0f4096b742976f7f48501a9bdf0c3e6ad45b2eb89d2ceab040047304402203214ff060177c84d764c67ed33819a73f0f7af2b3cbf4e96ac55475f02236c6702205eaf8dce501faaaae05e6cd74af46ea6bc16b80ca48fd9c20b301454fbe73b630147304402201a17c6bc5d0ba7ee78911397fb08469967ebe0412e81cb798a7cc85b058a005f022011ed00976b949d7052b0e55f61b6fb22a592bffc3f499c646e5be677a80746bf0169522103517df3f7d76f5101ddbb39385b7fdb80821ab2ec112889e5596b0e4003ebe92f21025ae37c6feeed829ed8479c2462fbecab185e9a0696110d12d86cb92e9886a9482103a25c6be0604fd57308bd3aa4adffb4f3e399dfc4e0d30636ae9b9903ce9eeca853ae040048304502210094fdddf8a21493ad321e8aaab18d60eb78aa8b3b9113e963247febb795f219e602202a35e9d30c1aee297e8a2b002ef792a29c51fa22b1e7be0af0659c7e69865c6c0147304402204bebe9cae556b9b092b51930eec955b6d164224fea1d46457e6a998f3221e62002205f03166a641ef50cfcdccc3eea01e7cfc0bf0d43c11c6e02d3bc9a1812962dd601695221039ea26a7e3b37f8878f238e9b76ec6e13374ccb001f2bfd9425405c58299a27492103b22f069867c4b715e78f1efde857322184e48da034c4873bd68079d295b78baf21036e667d9214295e589ad7750ede392e3b12655d81b275fc358713c8fca6723bd553ae04004730440220792e0ac35fc0e76f15a81eb600e603d600fcb4b1fc28969b92062a91b7ea512502201c9baf7ad6ad32db1e00bb5fe89902e5a6981b1e3bbfde7f1c704fe58e22443b0147304402202fa8ae6eaec63b71b73642fa90e3d0acdd7ba89869f3823f746ed434b03ed7410220108697849a44cbd3fabdea8f23251e2981aa5f8263d1a1bbf4d7c9617f39425b016952210279dcbcc66bd7f2b15e22cac0a833966de2127d327a5b934bf862ef8eb285069f21027d311b9d4e21c232167fbde3a809383d56188bbedd6e1401b590d1910fb43b84210204c77779416660e4ce627a8931c9ab93cd1bc5ff6309e2a441fa2e73d4b21ae553ae040047304402205f7f4f0d94bec4eb186ebbd4dda1b45861bcd54b8f26d89691684697c6bc8a1b02204bf1d6f217cac3b1e621f17e1822529b9f9987306bc3e0ad2ec76916afca04dd01473044022018c0c0f108522990d1ee564ec88e11d8e5e6f15042e0d078ed4c5325479211d402201f2d12168ee9e36304e9d3e7b4a5641472982460a3d5a2a7ffac939e944b2f48016952210366fa72ba122681f33cb98e581ec945673d5c5a17f01bf8b0e1412796a38944682103e0edd49494e250bc75c09b6afa6fbbe9872252512cb22ff4ff199e70f997dff821029375a21a977093067e971e2cf25b22cb9bed15857003674c4f09cf3bd9500b3853ae0400473044022025986b4028055f27edcffd20342e5712e9684cd5de91aa24c9317f36ca6ff1070220338c2f8cc14612211a354a9d3f2c980fd2a222eb750f2caf539aa2bd31cddf9a0147304402207ca0b302c01027917b8d19eb8b163fc844fd21970c536c153aacad61bfbc898b022038f302d55bc38ac8d74dbef80dc1cf5817d98bc177ec7301d61e1d6f03db4c90016952210363f0785913dd73df5e86e31e166a79b3781dc9fcb2cca9447321ecf98115219821022971598cdda633e761e483aef8dffb863bc585c1ebd67e013af0d7ce50f7674e210333a54da7549afe4843189a0ee9dd3132a05a0835aa1d553d3baef9736644071353ae040047304402204468a8c09a152d8b5b2f0028d695ae8f54ec6b08c54a26b615651ab2faf05ff102203129c6629cd53239070f9456f0475ef6c3facc42e48a10c0a1598ad96608e0b2014730440220325b3a5464a888236c6b68b76e3779a753c12559f2ad56d8743ae7bba422dd6202205131c0521d03c13e599e51a19df51b5a7d35fd13db04b0cfcb20ce259cba558f0169522102485b6e0c0c8c77f0606dfaf2f0919e89a6012c944a4dd3b45907f6ef96495c27210243c117cdfa36cea3b5c79c2cba3d34af2975fa87f5c4d862aa6821695076b54221023a84b39013c83dfa995795f1a476b6848b54c06f22f4fdbbfbe28f1af0e03cb553ae0400483045022100b07223ad7b4fe73dbd565e28660152e1ee1612ad48ee9168f803eda185a709fc02203313b7794d16086247e4bae51b116d84f620a957a74d2369d8f932cac0c2e6110147304402202b132ceb5b99847299d60b4d24f1d0075856274b59194e5f2ca4d3306a4c418902206c0894e96b52989bd45cbd7bbf33707f932cc758fd38f0cd6b9b1b53f2729be301695221034693cfb2d1cf69251ffca297cea27e343f81a013a8ec1857561fc64992ace42721038124139dd10ebad860e7904995cb513fd5d3b8dded5fb385be6e4c6dca1ce11b21026e898a4f54bed7b803a7bfdb4ece4ada878bb3f6a20da0027b2b616b8b5dfc5f53ae0400483045022100dd91d7cd41b5191c1bf2e8490c3a8976f5088f3f50167e7510163a7b6dfa19ac02207411a1914cb5a65a9a123b0627eb5db1cc3aedad274a8791e777e557aed05c890147304402200b216f1b56faf28032bf055ed962b351819a5a8e764569de3cc5e92dc3cdd35802202f9f7baf7de669188887acd520209c6585791de935992dba9e8aa7aff4e48c360169522102a4fa10a8286eabf351ebd93cdf3774dd10a98886b7810a29346e7e5de300089721038a5221009abe3c48c7038643189c6e38095d8638c7beda2d469ad641fec7c74021032f4d4067a60628858bc60156e5c724102d4a1c5955552687b5becbc70dca610253ae0400483045022100c96de494c9fa718cadd83e8347d369fb04bbffe575c11a1e25bdbfc35e3557fb022009d6270190260f94b0f2f048c6aaad73f51c85d656e883cf10d3c49626ba558e0147304402201eeab45e5454c5daf7eedb5e67597d18e0dcfe0c526eb9b241a6089ef8e19214022063578715adc25d9ffda446751e8f3f0bbd1ad629ebf82db19768fa26687b15a701695221035efc3705703018242dd6294a7cd3069f09948cf12df25e30ab6ae7806ec5ce4421027f26ff7f60c960461d6d8735f6e3defa35c73398e409b1b4c56bf56d11ef1d5c2103d1462730fac979bedba547d683aa67ccf9f484f11e8cb48d69f5919d0634166353ae040047304402202499e4a53e8bc400817b9440798d5d4d3045de61dad52d03773910761ba538fe02205211ca9e4e2db339b844a95dec758c2b676c498f9bc472f01026f3a73805f4c80147304402207431d6725e018e0e1f014f81b09f32404156c4f534d70464b4408e7cdc7aabce02202cca6ea93863d00e0b3f8c391ce27ba4f9c6a3e314ca961c1026b69572d65a5c01695221037f2fc533bee2faf50fa100a9b653f133444cec3cb000577239420ead001375c32103324b96abfc5c91af12e441fd03d133c6efa06f1c70f29d4c386e3c5a977f4c182103009748c1da5a8da0fcc014225d3d8f7d34116a996b83ab6ed1e643e75695f8ae53ae4dbc0c00"
}