{
  "txid": "9ba01fbf55a0017996806e94ef163bdf08e1b5221bb49f82b2b6b6b807939742",
  "version": 2,
  "locktime": 834637,
  "vin": [
    {
      "txid": "ce00c4245c441a6b19e403aa99b82ba365aa478045e0b98d4ce7ddbd149e4d39",
      "vout": 14,
      "prevout": {
        "scriptpubkey": "a914ac09d07a879b0027e1e02b48790817b7584ec06687",
        "scriptpubkey_asm": "OP_HASH160 OP_PUSHBYTES_20 ac09d07a879b0027e1e02b48790817b7584ec066 OP_EQUAL",
        "scriptpubkey_type": "p2sh",
        "scriptpubkey_address": "3HNfuTDxYKWWEfJShhwgSau6iaaqhVWwQg",
        "value": 83396
      },
      "scriptsig": "160014469bcf6c1a2e9b9ca3622ed582a69f0ffd9ce1fc",
      "scriptsig_asm": "OP_PUSHBYTES_22 0014469bcf6c1a2e9b9ca3622ed582a69f0ffd9ce1fc",
      "witness": [
        "3044022056f7e7dd40ca88f6fdc0f04d928b7926eec39f2916bf95b663ade29217cf36d80220226d0c32dd63a664c22731afe472f5a3c4b995f49e80df11fae24a9f6be6d39a01",
        "025ec6946a34808ee11f98cf1ebca335fca1fc01365f2adbf6739f019fea0933c4"
      ],
      "is_coinbase": false,
      "sequence": 4294967294,
      "inner_redeemscript_asm": "OP_0 OP_PUSHBYTES_20 469bcf6c1a2e9b9ca3622ed582a69f0ffd9ce1fc"
    },
    {
      "txid": "e4b8dfe10a0c97e99e87598211295bb371df0d5a6bb8e0b99d9a0fb8bc730701",
      "vout": 0,
      "prevout": {
        "scriptpubkey": "a9141bc1bacca4692a1e4639f0c7755fa9abbcbde21287",
        "scriptpubkey_asm": "OP_HASH160 OP_PUSHBYTES_20 1bc1bacca4692a1e4639f0c7755fa9abbcbde212 OP_EQUAL",
        "scriptpubkey_type": "p2sh",
        "scriptpubkey_address": "34DnFJDde964mDRQif8uSVYyvPm4HaNuGW",
        "value": 3636437
      },
      "scriptsig": "1600145e2cbbfa29d2529d4d45fc7fb98b1373fe516e24",
      "scriptsig_asm": "OP_PUSHBYTES_22 00145e2cbbfa29d2529d4d45fc7fb98b1373fe516e24",
      "witness": [
        "3044022002ee5ec2c2adb3c5c7cdd26350199562810dc211f3386b45ff76a91d3ebc7beb022007a2c7a249fb70e5efba4052057511e280b4c7fad152758986561c34d014326b01",
        "035fc5d2ed464895a834cd89e44dd0520534d7c38c4827cb33b703c4a0a5dbea84"
      ],
      "is_coinbase": false,
      "sequence": 4294967294,
      "inner_redeemscript_asm": "OP_0 OP_PUSHBYTES_20 5e2cbbfa29d2529d4d45fc7fb98b1373fe516e24"
    },
    {
      "txid": "c752c384d5fa8c0b2be0834e52b4af4d522faa699160d26030f9f7dc648db637",
      "vout": 0,
      "prevout": {
        "scriptpubkey": "0014fdb4d3c63cbaed974bce772c3939313a45f27f1b",
        "scriptpubkey_asm": "OP_0 OP_PUSHBYTES_20 fdb4d3c63cbaed974bce772c3939313a45f27f1b",
        "scriptpubkey_type": "v0_p2wpkh",
        "scriptpubkey_address": "bc1qlk6d833uhtkewj7wwukrjwf38fzlylcm3yup76",
        "value": 903837
      },
      "scriptsig": "",
      "scriptsig_asm": "",
      "witness": [
        "3044022074aa15d880b810ca42f6bb25964217da93603d99f5c0b559b9f4c940ae35d4e902204698eb05981fa6159660dc68df265efb587527170a10de33d6c1d5f11aa1576201",
        "02601d3ba637b41d3597cee432abd2901cd60521a3ea3387ab3cbb456a526a7e37"
      ],
      "is_coinbase": false,
      "sequence": 4294967294
    },
    {
      "txid": "856e6a48d0126556f5c9b647cf8bdc2fcc64b5904dfaab14ec8d7a2c44770476",
      "vout": 1,
      "prevout": {
        "scriptpubkey": "a914a5b106423b5c9ba2db9ba36602c4d33623284d4987",
        "scriptpubkey_asm": "OP_HASH160 OP_PUSHBYTES_20 a5b106423b5c9ba2db9ba36602c4d33623284d49 OP_EQUAL",
        "scriptpubkey_type": "p2sh",
        "scriptpubkey_address": "3Go7V51w8Ay5K9yp8TqreNU1AVn7jsbKYo",
        "value": 2900000
      },
      "scriptsig": "160014f0c7a050246f6cd056945e128e265377393099fe",
      "scriptsig_asm": "OP_PUSHBYTES_22 0014f0c7a050246f6cd056945e128e265377393099fe",
      "witness": [
        "30440220566dece373f67728631a39bf1879b45e2e7a1f183fb13fe68046ef40cfa6d76c02205e5d49a4da863b6fa1830778e003054c81313a6aef453440ba81fa0036d70bc401",
        "025ada845e8a8dd6ab2bea241c650e3bfd0f31472fa312203eac7f245789be861c"
      ],
      "is_coinbase": false,
      "sequence": 4294967294,
      "inner_redeemscript_asm": "OP_0 OP_PUSHBYTES_20 f0c7a050246f6cd056945e128e265377393099fe"
    }
  ],
  "vout": [
    {
      "scriptpubkey": "a914040aedf2da864a41d8b64199df2233797847a50b87",
      "scriptpubkey_asm": "OP_HASH160 OP_PUSHBYTES_20 040aedf2da864a41d8b64199df2233797847a50b OP_EQUAL",
      "scriptpubkey_type": "p2sh",
      "scriptpubkey_address": "324PihrLeG2RkWESVK9FnC1j53F42uiBM5",
      "value": 7513393
    }
  ],
  "size": 705,
  "weight": 1530,
  "fee": 10277,
  "status": {
    "confirmed": true,
    "block_height": 834638,
    "block_hash": "000000000000000000025f742c626208ac87e0b7d15054abb4a19ca2d735a54e",
    "block_time": 1710405325
  },
  "hex": "02000000000104394d9e14bddde74c8db9e0458047aa65a32bb899aa03e4196b1a445c24c400ce0e00000017160014469bcf6c1a2e9b9ca3622ed582a69f0ffd9ce1fcfeffffff010773bcb80f9a9db9e0b86b5a0ddf71b35b29118259879ee9970c0ae1dfb8e400000000171600145e2cbbfa29d2529d4d45fc7fb98b1373fe516e24feffffff37b68d64dcf7f93060d2609169aa2f524dafb4524e83e02b0b8cfad584c352c70000000000feffffff760477442c7a8dec14abfa4d90b564cc2fdc8bcf47b6c9f5566512d0486a6e850100000017160014f0c7a050246f6cd056945e128e265377393099fefeffffff0131a572000000000017a914040aedf2da864a41d8b64199df2233797847a50b8702473044022056f7e7dd40ca88f6fdc0f04d928b7926eec39f2916bf95b663ade29217cf36d80220226d0c32dd63a664c22731afe472f5a3c4b995f49e80df11fae24a9f6be6d39a0121025ec6946a34808ee11f98cf1ebca335fca1fc01365f2adbf6739f019fea0933c402473044022002ee5ec2c2adb3c5c7cdd26350199562810dc211f3386b45ff76a91d3ebc7beb022007a2c7a249fb70e5efba4052057511e280b4c7fad152758986561c34d014326b0121035fc5d2ed464895a834cd89e44dd0520534d7c38c4827cb33b703c4a0a5dbea8402473044022074aa15d880b810ca42f6bb25964217da93603d99f5c0b559b9f4c940ae35d4e902204698eb05981fa6159660dc68df265efb587527170a10de33d6c1d5f11aa15762012102601d3ba637b41d3597cee432abd2901cd60521a3ea3387ab3cbb456a526a7e37024730440220566dece373f67728631a39bf1879b45e2e7a1f183fb13fe68046ef40cfa6d76c02205e5d49a4da863b6fa1830778e003054c81313a6aef453440ba81fa0036d70bc40121025ada845e8a8dd6ab2bea241c650e3bfd0f31472fa312203eac7f245789be861c4dbc0c00"
}