{
  "txid": "9bb0683826832c0fd97de3931470e1878b0c9f37ad6870a44ab27e2c121f7ad6",
  "version": 2,
  "locktime": 0,
  "vin": [
    {
      "txid": "ca49732a8789b812361e997512b66bc3787f1e3ff39f5f0d8b845e09438043f6",
      "vout": 15,
      "prevout": {
        "scriptpubkey": "51206f9edc0b782a4900f594cf46cc745f83a4587d6177a932edd0bf5dc4d2fc8cf0",
        "scriptpubkey_asm": "OP_PUSHNUM_1 OP_PUSHBYTES_32 6f9edc0b782a4900f594cf46cc745f83a4587d6177a932edd0bf5dc4d2fc8cf0",
        "scriptpubkey_type": "v1_p2tr",
        "scriptpubkey_address": "bc1pd70dczmc9fyspav5earvcazlswj9sltpw75n9mwshawuf5hu3ncq2tx2fn",
        "value": 2066
      },
      "scriptsig": "",
      "scriptsig_asm": "",
      "witness": [
        "abd705a54475aaaae910802e786edd3b40eda1e39b1426d3a585682f8b022f2a9ac1bd39c45da61b7ac5b329f7c2cebc9629169b23580c3994ac9ecf05ec1dc1",
        "20696a45cd96c5502d60c22c30461478f437522935a1b60caaa6b197f4a7e02ad9ac0063036f726401010a746578742f706c61696e00367b2270223a226272632d3230222c226f70223a226d696e74222c227469636b223a2261616161222c22616d74223a223130303030227d68",
        "c1696a45cd96c5502d60c22c30461478f437522935a1b60caaa6b197f4a7e02ad9"
      ],
      "is_coinbase": false,
      "sequence": 4261412863
    }
  ],
  "vout": [
    {
      "scriptpubkey": "0014b12a255b419b46c01324705abea5fd2949f55051",
      "scriptpubkey_asm": "OP_0 OP_PUSHBYTES_20 b12a255b419b46c01324705abea5fd2949f55051",
      "scriptpubkey_type": "v0_p2wpkh",
      "scriptpubkey_address": "bc1qky4z2k6pndrvqyeywpdtaf0a99yl25z3zp84r6",
      "value": 294
    }
  ],
  "size": 295,
  "weight": 541,
  "fee": 1772,
  "status": {
    "confirmed": true,
    "block_height": 834460,
    "block_hash": "00000000000000000000484a79b643b2524bbce82e5d8a442013fa5b8905ed98",
    "block_time": 1710307468
  },
  "hex": "02000000000101f6438043095e848b0d5f9ff33f1e7f78c36bb61275991e3612b889872a7349ca0f00000000fffffffd012601000000000000160014b12a255b419b46c01324705abea5fd2949f550510340abd705a54475aaaae910802e786edd3b40eda1e39b1426d3a585682f8b022f2a9ac1bd39c45da61b7ac5b329f7c2cebc9629169b23580c3994ac9ecf05ec1dc16e20696a45cd96c5502d60c22c30461478f437522935a1b60caaa6b197f4a7e02ad9ac0063036f726401010a746578742f706c61696e00367b2270223a226272632d3230222c226f70223a226d696e74222c227469636b223a2261616161222c22616d74223a223130303030227d6821c1696a45cd96c5502d60c22c30461478f437522935a1b60caaa6b197f4a7e02ad900000000"
}