{
  "txid": "9bc230fc05458503dac38f290fa1bcdc13d7d6d5832dd01533fe554a845d847f",
  "version": 1,
  "locktime": 0,
  "vin": [
    {
      "txid": "243c1254ad26862f897e8b6bb036bd40ffc431f6269bbdbaff12f64f05b7c721",
      "vout": 15,
      "prevout": {
        "scriptpubkey": "0014694ef1397266995c4a3b1feb66c9c109f907067e",
        "scriptpubkey_asm": "OP_0 OP_PUSHBYTES_20 694ef1397266995c4a3b1feb66c9c109f907067e",
        "scriptpubkey_type": "v0_p2wpkh",
        "scriptpubkey_address": "bc1qd980zwtjv6v4cj3mrl4kdjwpp8uswpn7snjhga",
        "value": 10895
      },
      "scriptsig": "",
      "scriptsig_asm": "",
      "witness": [
        "3045022100840faae25336c7bca9a78564189da3aeea6a62694bdbad6345b890b18648639f022011ae4a0eab6bd86eb060f03524f866480149e0e879abee34b28e51c078a4ab7301",
        "024de945d2d76dfe93d656b26f7f4e302eebe82ad1df3d86573cf81891f449d3f3"
      ],
      "is_coinbase": false,
      "sequence": 4294967295
    },
    {
      "txid": "6511da4961e2c944a3f40fd14b1085d61407705dda4eb14543385906a9e29966",
      "vout": 10,
      "prevout": {
        "scriptpubkey": "0014694ef1397266995c4a3b1feb66c9c109f907067e",
        "scriptpubkey_asm": "OP_0 OP_PUSHBYTES_20 694ef1397266995c4a3b1feb66c9c109f907067e",
        "scriptpubkey_type": "v0_p2wpkh",
        "scriptpubkey_address": "bc1qd980zwtjv6v4cj3mrl4kdjwpp8uswpn7snjhga",
        "value": 59000
      },
      "scriptsig": "",
      "scriptsig_asm": "",
      "witness": [
        "30440220683bc91eae8420e1a18b6ab1b0769f5b2458677c15861909001b8491c416dbf9022067d90a62d554564efd3b02eef2ca627dcf248fdd0812ac41ca658f0cb33bc72c01",
        "024de945d2d76dfe93d656b26f7f4e302eebe82ad1df3d86573cf81891f449d3f3"
      ],
      "is_coinbase": false,
      "sequence": 4294967295
    }
  ],
  "vout": [
    {
      "scriptpubkey": "001414c705e02ecab1fc575bd9e9afdf5a4debf53fd8",
      "scriptpubkey_asm": "OP_0 OP_PUSHBYTES_20 14c705e02ecab1fc575bd9e9afdf5a4debf53fd8",
      "scriptpubkey_type": "v0_p2wpkh",
      "scriptpubkey_address": "bc1qznrstcpwe2clc46mm856lh66fh4l207cva0knq",
      "value": 62000
    },
    {
      "scriptpubkey": "0014694ef1397266995c4a3b1feb66c9c109f907067e",
      "scriptpubkey_asm": "OP_0 OP_PUSHBYTES_20 694ef1397266995c4a3b1feb66c9c109f907067e",
      "scriptpubkey_type": "v0_p2wpkh",
      "scriptpubkey_address": "bc1qd980zwtjv6v4cj3mrl4kdjwpp8uswpn7snjhga",
      "value": 2252
    }
  ],
  "size": 371,
  "weight": 833,
  "fee": 5643,
  "status": {
    "confirmed": true,
    "block_height": 834638,
    "block_hash": "000000000000000000025f742c626208ac87e0b7d15054abb4a19ca2d735a54e",
    "block_time": 1710405325
  },
  "hex": "0100000000010221c7b7054ff612ffbabd9b26f631c4ff40bd36b06b8b7e892f8626ad54123c240f00000000ffffffff6699e2a90659384345b14eda5d700714d685104bd10ff4a344c9e26149da11650a00000000ffffffff0230f200000000000016001414c705e02ecab1fc575bd9e9afdf5a4debf53fd8cc08000000000000160014694ef1397266995c4a3b1feb66c9c109f907067e02483045022100840faae25336c7bca9a78564189da3aeea6a62694bdbad6345b890b18648639f022011ae4a0eab6bd86eb060f03524f866480149e0e879abee34b28e51c078a4ab730121024de945d2d76dfe93d656b26f7f4e302eebe82ad1df3d86573cf81891f449d3f3024730440220683bc91eae8420e1a18b6ab1b0769f5b2458677c15861909001b8491c416dbf9022067d90a62d554564efd3b02eef2ca627dcf248fdd0812ac41ca658f0cb33bc72c0121024de945d2d76dfe93d656b26f7f4e302eebe82ad1df3d86573cf81891f449d3f300000000"
}