{
  "txid": "9bcd070fded5d3b8a1f44d1b11af7c7c6a7f63f06fd84018f46158c2e07b9ce4",
  "version": 1,
  "locktime": 0,
  "vin": [
    {
      "txid": "b439e722ee4f2b9ed909a4c6bf78af87c597bc6ad2d1ef1b127689d829aa968e",
      "vout": 1,
      "prevout": {
        "scriptpubkey": "0014f9d2035b788983841253d14f43178e455aae735a",
        "scriptpubkey_asm": "OP_0 OP_PUSHBYTES_20 f9d2035b788983841253d14f43178e455aae735a",
        "scriptpubkey_type": "v0_p2wpkh",
        "scriptpubkey_address": "bc1ql8fqxkmc3xpcgyjn6985x9uwg4d2uu66awe6ts",
        "value": 54220
      },
      "scriptsig": "",
      "scriptsig_asm": "",
      "witness": [
        "304402205b6f319e54c41b9e63807f19cda9e3db7048663a9791819ab7105f84fe9beb86022062f45656dee4907c78cbca4f96065ab5902ef15d69fa8693572e2f9bf00a3bd301",
        "02912a621440cbb2ce8c31e6a02c91f555f4dbb98b487442a64a9aedfbdd52ed3c"
      ],
      "is_coinbase": false,
      "sequence": 4294967295
    }
  ],
  "vout": [
    {
      "scriptpubkey": "001484b90a9107c9e4b01c2ff0090b85b1103ec6140a",
      "scriptpubkey_asm": "OP_0 OP_PUSHBYTES_20 84b90a9107c9e4b01c2ff0090b85b1103ec6140a",
      "scriptpubkey_type": "v0_p2wpkh",
      "scriptpubkey_address": "bc1qsjus4yg8e8jtq8p07qyshpd3zqlvv9q2wh9q2h",
      "value": 51680
    }
  ],
  "size": 191,
  "weight": 437,
  "fee": 2540,
  "status": {
    "confirmed": true,
    "block_height": 834638,
    "block_hash": "000000000000000000025f742c626208ac87e0b7d15054abb4a19ca2d735a54e",
    "block_time": 1710405325
  },
  "hex": "010000000001018e96aa29d88976121befd1d26abc97c587af78bfc6a409d99e2b4fee22e739b40100000000ffffffff01e0c900000000000016001484b90a9107c9e4b01c2ff0090b85b1103ec6140a0247304402205b6f319e54c41b9e63807f19cda9e3db7048663a9791819ab7105f84fe9beb86022062f45656dee4907c78cbca4f96065ab5902ef15d69fa8693572e2f9bf00a3bd3012102912a621440cbb2ce8c31e6a02c91f555f4dbb98b487442a64a9aedfbdd52ed3c00000000"
}