{
  "txid": "9bcfbc5196c5a252b6d87d75ba3c6d13cf509dba984ab34b262a7b40cf24cad9",
  "version": 1,
  "locktime": 0,
  "vin": [
    {
      "txid": "2b75b543df5f443005dd1f27b8b4c01d8022bc71b632f71bd715723a6bbda1b4",
      "vout": 0,
      "prevout": {
        "scriptpubkey": "76a914c20b5fb4855a4175c464e931d4e62c8415a2154a88ac",
        "scriptpubkey_asm": "OP_DUP OP_HASH160 OP_PUSHBYTES_20 c20b5fb4855a4175c464e931d4e62c8415a2154a OP_EQUALVERIFY OP_CHECKSIG",
        "scriptpubkey_type": "p2pkh",
        "scriptpubkey_address": "1Jh1iV4xPLRj98etVUg7dUDMVx4Qo6fFQb",
        "value": 59337708
      },
      "scriptsig": "47304402207ad9e251b80af0a506a380fd5acc5e4465346223bd9203a5feacc1cd360d703602202344ad5a86c05cfbf348e1d307975771799fa5783ecfb6742d779e07106816a0012103db32cfcd6c773461f9e9a2c835b70191ac6a49701db38597da85d2e292dccc10",
      "scriptsig_asm": "OP_PUSHBYTES_71 304402207ad9e251b80af0a506a380fd5acc5e4465346223bd9203a5feacc1cd360d703602202344ad5a86c05cfbf348e1d307975771799fa5783ecfb6742d779e07106816a001 OP_PUSHBYTES_33 03db32cfcd6c773461f9e9a2c835b70191ac6a49701db38597da85d2e292dccc10",
      "is_coinbase": false,
      "sequence": 4294967295
    },
    {
      "txid": "e5f9fcba4f81aa665cf79e301623708f6d8df0524321f5dfc375c20b9cb3f8ef",
      "vout": 4,
      "prevout": {
        "scriptpubkey": "76a914c20b5fb4855a4175c464e931d4e62c8415a2154a88ac",
        "scriptpubkey_asm": "OP_DUP OP_HASH160 OP_PUSHBYTES_20 c20b5fb4855a4175c464e931d4e62c8415a2154a OP_EQUALVERIFY OP_CHECKSIG",
        "scriptpubkey_type": "p2pkh",
        "scriptpubkey_address": "1Jh1iV4xPLRj98etVUg7dUDMVx4Qo6fFQb",
        "value": 531189
      },
      "scriptsig": "4830450221009d8c42c5eca067b682c7405441a17b936b627ff345ed8fc93ac3da7861508f10022050fa4ecc4fd297e337693a01bb4408937293dd5e53c51dfa83b31a91f253358e012103db32cfcd6c773461f9e9a2c835b70191ac6a49701db38597da85d2e292dccc10",
      "scriptsig_asm": "OP_PUSHBYTES_72 30450221009d8c42c5eca067b682c7405441a17b936b627ff345ed8fc93ac3da7861508f10022050fa4ecc4fd297e337693a01bb4408937293dd5e53c51dfa83b31a91f253358e01 OP_PUSHBYTES_33 03db32cfcd6c773461f9e9a2c835b70191ac6a49701db38597da85d2e292dccc10",
      "is_coinbase": false,
      "sequence": 4294967295
    }
  ],
  "vout": [
    {
      "scriptpubkey": "76a9147da93e4a5b4beea84baca861131fd656a1b85bd188ac",
      "scriptpubkey_asm": "OP_DUP OP_HASH160 OP_PUSHBYTES_20 7da93e4a5b4beea84baca861131fd656a1b85bd1 OP_EQUALVERIFY OP_CHECKSIG",
      "scriptpubkey_type": "p2pkh",
      "scriptpubkey_address": "1CTSDDEigELW7F7eWCSkZy9TwLhjivQEaw",
      "value": 59337700
    },
    {
      "scriptpubkey": "76a914c20b5fb4855a4175c464e931d4e62c8415a2154a88ac",
      "scriptpubkey_asm": "OP_DUP OP_HASH160 OP_PUSHBYTES_20 c20b5fb4855a4175c464e931d4e62c8415a2154a OP_EQUALVERIFY OP_CHECKSIG",
      "scriptpubkey_type": "p2pkh",
      "scriptpubkey_address": "1Jh1iV4xPLRj98etVUg7dUDMVx4Qo6fFQb",
      "value": 525210
    }
  ],
  "size": 373,
  "weight": 1492,
  "fee": 5987,
  "status": {
    "confirmed": true,
    "block_height": 834638,
    "block_hash": "000000000000000000025f742c626208ac87e0b7d15054abb4a19ca2d735a54e",
    "block_time": 1710405325
  },
  "hex": "0100000002b4a1bd6b3a7215d71bf732b671bc22801dc0b4b8271fdd0530445fdf43b5752b000000006a47304402207ad9e251b80af0a506a380fd5acc5e4465346223bd9203a5feacc1cd360d703602202344ad5a86c05cfbf348e1d307975771799fa5783ecfb6742d779e07106816a0012103db32cfcd6c773461f9e9a2c835b70191ac6a49701db38597da85d2e292dccc10ffffffffeff8b39c0bc275c3dff5214352f08d6d8f702316309ef75c66aa814fbafcf9e5040000006b4830450221009d8c42c5eca067b682c7405441a17b936b627ff345ed8fc93ac3da7861508f10022050fa4ecc4fd297e337693a01bb4408937293dd5e53c51dfa83b31a91f253358e012103db32cfcd6c773461f9e9a2c835b70191ac6a49701db38597da85d2e292dccc10ffffffff02e46b8903000000001976a9147da93e4a5b4beea84baca861131fd656a1b85bd188ac9a030800000000001976a914c20b5fb4855a4175c464e931d4e62c8415a2154a88ac00000000"
}