{
  "txid": "9bd10504173663388f7ddffb61ece4f9e02358043de1fdfe461789469766c885",
  "version": 1,
  "locktime": 0,
  "vin": [
    {
      "txid": "8f9a30701a19b8dba48b63365ac52f96872cc5657eaca65a55343d56ead3e39e",
      "vout": 9,
      "prevout": {
        "scriptpubkey": "00143cfa91ca4db3ce2d94dd220501dc65b3cfab2b9f",
        "scriptpubkey_asm": "OP_0 OP_PUSHBYTES_20 3cfa91ca4db3ce2d94dd220501dc65b3cfab2b9f",
        "scriptpubkey_type": "v0_p2wpkh",
        "scriptpubkey_address": "bc1q8nafrjjdk08zm9xaygzsrhr9k086k2ulq4e3nj",
        "value": 600129
      },
      "scriptsig": "",
      "scriptsig_asm": "",
      "witness": [
        "304402206dd9fc33969da1008f16e14c58bbea5b89dc41c62ba547dbf8e84a0c01ef548602203ef45ad318f45521c8bee5d99514b9f491a25f0a7bc911baef2eb1590ef83c0701",
        "03bcc6ae5058f21e80fc22af5fe96e6ba440bd505c3a42ebae97eb982471b2331c"
      ],
      "is_coinbase": false,
      "sequence": 4294967295
    }
  ],
  "vout": [
    {
      "scriptpubkey": "76a914e581a3568cf259a2fbc9a1d21f956566b6ef731e88ac",
      "scriptpubkey_asm": "OP_DUP OP_HASH160 OP_PUSHBYTES_20 e581a3568cf259a2fbc9a1d21f956566b6ef731e OP_EQUALVERIFY OP_CHECKSIG",
      "scriptpubkey_type": "p2pkh",
      "scriptpubkey_address": "1MvX3LcDWFmHwYR7nx9ZgsUfSwwE2FmYRT",
      "value": 596994
    }
  ],
  "size": 194,
  "weight": 449,
  "fee": 3135,
  "status": {
    "confirmed": true,
    "block_height": 834638,
    "block_hash": "000000000000000000025f742c626208ac87e0b7d15054abb4a19ca2d735a54e",
    "block_time": 1710405325
  },
  "hex": "010000000001019ee3d3ea563d34555aa6ac7e65c52c87962fc55a36638ba4dbb8191a70309a8f0900000000ffffffff01021c0900000000001976a914e581a3568cf259a2fbc9a1d21f956566b6ef731e88ac0247304402206dd9fc33969da1008f16e14c58bbea5b89dc41c62ba547dbf8e84a0c01ef548602203ef45ad318f45521c8bee5d99514b9f491a25f0a7bc911baef2eb1590ef83c07012103bcc6ae5058f21e80fc22af5fe96e6ba440bd505c3a42ebae97eb982471b2331c00000000"
}