{
  "txid": "9be65410c64f92e93a61cc529aa5b4e55eee7a56c13d8c80d8320fa23283c4ed",
  "version": 2,
  "locktime": 0,
  "vin": [
    {
      "txid": "7a8553f103ae032ab8bb27720928661d1e8002f8e11272123739fa88225d719a",
      "vout": 0,
      "prevout": {
        "scriptpubkey": "5120cd609e239ddb336aeadac7a1990fce921bf2c8843707a06d648040c5eb22cd63",
        "scriptpubkey_asm": "OP_PUSHNUM_1 OP_PUSHBYTES_32 cd609e239ddb336aeadac7a1990fce921bf2c8843707a06d648040c5eb22cd63",
        "scriptpubkey_type": "v1_p2tr",
        "scriptpubkey_address": "bc1pe4sfuguamvek46k6c7sejr7wjgdl9jyyxur6qmtyspqvt6eze43sgjmsuc",
        "value": 600
      },
      "scriptsig": "",
      "scriptsig_asm": "",
      "witness": [
        "731164961267aab0f5775fdff75404808b27ef2a610a7f37a0f855cef12351e620a0dc4b54ff2a3471b3121bd09c7453f103b9e31b498fae63e13baf669c1cad"
      ],
      "is_coinbase": false,
      "sequence": 4294967295
    },
    {
      "txid": "7a8553f103ae032ab8bb27720928661d1e8002f8e11272123739fa88225d719a",
      "vout": 1,
      "prevout": {
        "scriptpubkey": "5120cd609e239ddb336aeadac7a1990fce921bf2c8843707a06d648040c5eb22cd63",
        "scriptpubkey_asm": "OP_PUSHNUM_1 OP_PUSHBYTES_32 cd609e239ddb336aeadac7a1990fce921bf2c8843707a06d648040c5eb22cd63",
        "scriptpubkey_type": "v1_p2tr",
        "scriptpubkey_address": "bc1pe4sfuguamvek46k6c7sejr7wjgdl9jyyxur6qmtyspqvt6eze43sgjmsuc",
        "value": 600
      },
      "scriptsig": "",
      "scriptsig_asm": "",
      "witness": [
        "c5233bd0838a50887d577875e408854df64e194a4340eb4fa620937492426b69655cff9ae765e24696e2b08d51b2a99ab6a24a472abc7143a9677270126b8a55"
      ],
      "is_coinbase": false,
      "sequence": 4294967295
    },
    {
      "txid": "2682dee9cbadf3fda6f90683dcd45df73df7d54b329da9ef8ed19bc385124501",
      "vout": 0,
      "prevout": {
        "scriptpubkey": "51209a73204aa6636c0ce234e97fbdab17a4c96daf041142d2e74262a9baf94e6cad",
        "scriptpubkey_asm": "OP_PUSHNUM_1 OP_PUSHBYTES_32 9a73204aa6636c0ce234e97fbdab17a4c96daf041142d2e74262a9baf94e6cad",
        "scriptpubkey_type": "v1_p2tr",
        "scriptpubkey_address": "bc1pnfejqj4xvdkqec35a9lmm2ch5nykmtcyz9pd9e6zv25m472wdjksvkm2sq",
        "value": 546
      },
      "scriptsig": "",
      "scriptsig_asm": "",
      "witness": [
        "ac0db1753284f6666f16ae1a7d3a4d11904f3d63204bfc18a93f80b4bf48fed01c1968ab4472362bfbb1e8a4b5c9582b76b3da5441c4405d31f97f25f9ee058d83"
      ],
      "is_coinbase": false,
      "sequence": 4294967295
    },
    {
      "txid": "7a8553f103ae032ab8bb27720928661d1e8002f8e11272123739fa88225d719a",
      "vout": 2,
      "prevout": {
        "scriptpubkey": "5120cd609e239ddb336aeadac7a1990fce921bf2c8843707a06d648040c5eb22cd63",
        "scriptpubkey_asm": "OP_PUSHNUM_1 OP_PUSHBYTES_32 cd609e239ddb336aeadac7a1990fce921bf2c8843707a06d648040c5eb22cd63",
        "scriptpubkey_type": "v1_p2tr",
        "scriptpubkey_address": "bc1pe4sfuguamvek46k6c7sejr7wjgdl9jyyxur6qmtyspqvt6eze43sgjmsuc",
        "value": 672089
      },
      "scriptsig": "",
      "scriptsig_asm": "",
      "witness": [
        "e8d72c6576856d413d1170554bbf9fa4fbf50f32ff89afcbf11196a9bd0ba273f8b77bef09a802f04ae48d3d83b8a4b3b516699bc497427bc2eeb23f339deec4"
      ],
      "is_coinbase": false,
      "sequence": 4294967295
    }
  ],
  "vout": [
    {
      "scriptpubkey": "5120cd609e239ddb336aeadac7a1990fce921bf2c8843707a06d648040c5eb22cd63",
      "scriptpubkey_asm": "OP_PUSHNUM_1 OP_PUSHBYTES_32 cd609e239ddb336aeadac7a1990fce921bf2c8843707a06d648040c5eb22cd63",
      "scriptpubkey_type": "v1_p2tr",
      "scriptpubkey_address": "bc1pe4sfuguamvek46k6c7sejr7wjgdl9jyyxur6qmtyspqvt6eze43sgjmsuc",
      "value": 1200
    },
    {
      "scriptpubkey": "5120cd609e239ddb336aeadac7a1990fce921bf2c8843707a06d648040c5eb22cd63",
      "scriptpubkey_asm": "OP_PUSHNUM_1 OP_PUSHBYTES_32 cd609e239ddb336aeadac7a1990fce921bf2c8843707a06d648040c5eb22cd63",
      "scriptpubkey_type": "v1_p2tr",
      "scriptpubkey_address": "bc1pe4sfuguamvek46k6c7sejr7wjgdl9jyyxur6qmtyspqvt6eze43sgjmsuc",
      "value": 546
    },
    {
      "scriptpubkey": "51209a73204aa6636c0ce234e97fbdab17a4c96daf041142d2e74262a9baf94e6cad",
      "scriptpubkey_asm": "OP_PUSHNUM_1 OP_PUSHBYTES_32 9a73204aa6636c0ce234e97fbdab17a4c96daf041142d2e74262a9baf94e6cad",
      "scriptpubkey_type": "v1_p2tr",
      "scriptpubkey_address": "bc1pnfejqj4xvdkqec35a9lmm2ch5nykmtcyz9pd9e6zv25m472wdjksvkm2sq",
      "value": 639992
    },
    {
      "scriptpubkey": "5120cd609e239ddb336aeadac7a1990fce921bf2c8843707a06d648040c5eb22cd63",
      "scriptpubkey_asm": "OP_PUSHNUM_1 OP_PUSHBYTES_32 cd609e239ddb336aeadac7a1990fce921bf2c8843707a06d648040c5eb22cd63",
      "scriptpubkey_type": "v1_p2tr",
      "scriptpubkey_address": "bc1pe4sfuguamvek46k6c7sejr7wjgdl9jyyxur6qmtyspqvt6eze43sgjmsuc",
      "value": 600
    },
    {
      "scriptpubkey": "5120cd609e239ddb336aeadac7a1990fce921bf2c8843707a06d648040c5eb22cd63",
      "scriptpubkey_asm": "OP_PUSHNUM_1 OP_PUSHBYTES_32 cd609e239ddb336aeadac7a1990fce921bf2c8843707a06d648040c5eb22cd63",
      "scriptpubkey_type": "v1_p2tr",
      "scriptpubkey_address": "bc1pe4sfuguamvek46k6c7sejr7wjgdl9jyyxur6qmtyspqvt6eze43sgjmsuc",
      "value": 600
    },
    {
      "scriptpubkey": "5120cd609e239ddb336aeadac7a1990fce921bf2c8843707a06d648040c5eb22cd63",
      "scriptpubkey_asm": "OP_PUSHNUM_1 OP_PUSHBYTES_32 cd609e239ddb336aeadac7a1990fce921bf2c8843707a06d648040c5eb22cd63",
      "scriptpubkey_type": "v1_p2tr",
      "scriptpubkey_address": "bc1pe4sfuguamvek46k6c7sejr7wjgdl9jyyxur6qmtyspqvt6eze43sgjmsuc",
      "value": 22414
    }
  ],
  "size": 699,
  "weight": 1995,
  "fee": 8483,
  "status": {
    "confirmed": true,
    "block_height": 834638,
    "block_hash": "000000000000000000025f742c626208ac87e0b7d15054abb4a19ca2d735a54e",
    "block_time": 1710405325
  },
  "hex": "020000000001049a715d2288fa3937127212e1f802801e1d6628097227bbb82a03ae03f153857a0000000000ffffffff9a715d2288fa3937127212e1f802801e1d6628097227bbb82a03ae03f153857a0100000000ffffffff01451285c39bd18eefa99d324bd5f73df75dd4dc8306f9a6fdf3adcbe9de82260000000000ffffffff9a715d2288fa3937127212e1f802801e1d6628097227bbb82a03ae03f153857a0200000000ffffffff06b004000000000000225120cd609e239ddb336aeadac7a1990fce921bf2c8843707a06d648040c5eb22cd632202000000000000225120cd609e239ddb336aeadac7a1990fce921bf2c8843707a06d648040c5eb22cd63f8c30900000000002251209a73204aa6636c0ce234e97fbdab17a4c96daf041142d2e74262a9baf94e6cad5802000000000000225120cd609e239ddb336aeadac7a1990fce921bf2c8843707a06d648040c5eb22cd635802000000000000225120cd609e239ddb336aeadac7a1990fce921bf2c8843707a06d648040c5eb22cd638e57000000000000225120cd609e239ddb336aeadac7a1990fce921bf2c8843707a06d648040c5eb22cd630140731164961267aab0f5775fdff75404808b27ef2a610a7f37a0f855cef12351e620a0dc4b54ff2a3471b3121bd09c7453f103b9e31b498fae63e13baf669c1cad0140c5233bd0838a50887d577875e408854df64e194a4340eb4fa620937492426b69655cff9ae765e24696e2b08d51b2a99ab6a24a472abc7143a9677270126b8a550141ac0db1753284f6666f16ae1a7d3a4d11904f3d63204bfc18a93f80b4bf48fed01c1968ab4472362bfbb1e8a4b5c9582b76b3da5441c4405d31f97f25f9ee058d830140e8d72c6576856d413d1170554bbf9fa4fbf50f32ff89afcbf11196a9bd0ba273f8b77bef09a802f04ae48d3d83b8a4b3b516699bc497427bc2eeb23f339deec400000000"
}