{
  "txid": "9be75b47c00999968dbf0d0cc64cb2e11a222e65bb480e82c38dab3212dd4935",
  "version": 2,
  "locktime": 0,
  "vin": [
    {
      "txid": "b3c524124896e0e754a07d1142219c530a18d91763187317e26e021df8963898",
      "vout": 1,
      "prevout": {
        "scriptpubkey": "5120416879d84b61aa30726646d62fd1330a6d88bdd25782e820b3f8646b126d2681",
        "scriptpubkey_asm": "OP_PUSHNUM_1 OP_PUSHBYTES_32 416879d84b61aa30726646d62fd1330a6d88bdd25782e820b3f8646b126d2681",
        "scriptpubkey_type": "v1_p2tr",
        "scriptpubkey_address": "bc1pg958nkztvx4rqunxgmtzl5fnpfkc30wj27pwsg9nlpjxkyndy6qssv8lk0",
        "value": 574015
      },
      "scriptsig": "",
      "scriptsig_asm": "",
      "witness": [
        "16e933cd33f1e6dd74b8ff7bfc19cff30e94a64b3141ae665c6bb12f341799ddefe77d09137ad5cb081cd264de8635647c6e27ad848d25602efc708c95bbdd16"
      ],
      "is_coinbase": false,
      "sequence": 4294967295
    }
  ],
  "vout": [
    {
      "scriptpubkey": "51209f5731b107d4737994d6957237ea66b5e57b43ce57a543e56072378225c014c6",
      "scriptpubkey_asm": "OP_PUSHNUM_1 OP_PUSHBYTES_32 9f5731b107d4737994d6957237ea66b5e57b43ce57a543e56072378225c014c6",
      "scriptpubkey_type": "v1_p2tr",
      "scriptpubkey_address": "bc1pnatnrvg863ehn9xkj4er06nxkhjhks7w27j58etqwgmcyfwqznrq2yyjl8",
      "value": 192000
    },
    {
      "scriptpubkey": "5120416879d84b61aa30726646d62fd1330a6d88bdd25782e820b3f8646b126d2681",
      "scriptpubkey_asm": "OP_PUSHNUM_1 OP_PUSHBYTES_32 416879d84b61aa30726646d62fd1330a6d88bdd25782e820b3f8646b126d2681",
      "scriptpubkey_type": "v1_p2tr",
      "scriptpubkey_address": "bc1pg958nkztvx4rqunxgmtzl5fnpfkc30wj27pwsg9nlpjxkyndy6qssv8lk0",
      "value": 380167
    }
  ],
  "size": 205,
  "weight": 616,
  "fee": 1848,
  "status": {
    "confirmed": true,
    "block_height": 834460,
    "block_hash": "00000000000000000000484a79b643b2524bbce82e5d8a442013fa5b8905ed98",
    "block_time": 1710307468
  },
  "hex": "02000000000101983896f81d026ee21773186317d9180a539c2142117da054e7e096481224c5b30100000000ffffffff0200ee0200000000002251209f5731b107d4737994d6957237ea66b5e57b43ce57a543e56072378225c014c607cd050000000000225120416879d84b61aa30726646d62fd1330a6d88bdd25782e820b3f8646b126d2681014016e933cd33f1e6dd74b8ff7bfc19cff30e94a64b3141ae665c6bb12f341799ddefe77d09137ad5cb081cd264de8635647c6e27ad848d25602efc708c95bbdd1600000000"
}