{
  "txid": "9c06b9eb982ea82bf7fcbb965f3d56a179e06de9eb4e3d009df21a0097bc369f",
  "version": 1,
  "locktime": 0,
  "vin": [
    {
      "txid": "e842e726b08bfce9f1260f053c2d8f9e0b75a5b5ffffaf105938ba62515fcbfc",
      "vout": 1,
      "prevout": {
        "scriptpubkey": "0014754d85a1512ebc3973a9932d4f06c384c409ab98",
        "scriptpubkey_asm": "OP_0 OP_PUSHBYTES_20 754d85a1512ebc3973a9932d4f06c384c409ab98",
        "scriptpubkey_type": "v0_p2wpkh",
        "scriptpubkey_address": "bc1qw4xctg23967rjuafjvk57pkrsnzqn2ucfeg2wd",
        "value": 272868
      },
      "scriptsig": "",
      "scriptsig_asm": "",
      "witness": [
        "304502210097fc85279b970f8f6617cc55ca4729304b461a1bdb38142d4e90b9017b09b34002203ccbfdb51ce426c9ae986aed565107d8ec282840fe2a062532cd519dbbe9ade301",
        "020eeecb78e1637f6053edb8af54154f4974e9cfd6b6a7928766659e322fddbeca"
      ],
      "is_coinbase": false,
      "sequence": 4294967295
    }
  ],
  "vout": [
    {
      "scriptpubkey": "76a914e7a4683c569d1888c6c2e705ffd564b5c55d88a188ac",
      "scriptpubkey_asm": "OP_DUP OP_HASH160 OP_PUSHBYTES_20 e7a4683c569d1888c6c2e705ffd564b5c55d88a1 OP_EQUALVERIFY OP_CHECKSIG",
      "scriptpubkey_type": "p2pkh",
      "scriptpubkey_address": "1N7p3XMQpz1odS9we2qMzx3u4RavvPvFni",
      "value": 81600
    },
    {
      "scriptpubkey": "0014c5756f6e7f2a5123f452b5edf0e281fefc50bcc4",
      "scriptpubkey_asm": "OP_0 OP_PUSHBYTES_20 c5756f6e7f2a5123f452b5edf0e281fefc50bcc4",
      "scriptpubkey_type": "v0_p2wpkh",
      "scriptpubkey_address": "bc1qc46k7mnl9fgj8azjkhklpc5plm79p0xyjy3pu5",
      "value": 189126
    }
  ],
  "size": 226,
  "weight": 574,
  "fee": 2142,
  "status": {
    "confirmed": true,
    "block_height": 834638,
    "block_hash": "000000000000000000025f742c626208ac87e0b7d15054abb4a19ca2d735a54e",
    "block_time": 1710405325
  },
  "hex": "01000000000101fccb5f5162ba385910afffffb5a5750b9e8f2d3c050f26f1e9fc8bb026e742e80100000000ffffffff02c03e0100000000001976a914e7a4683c569d1888c6c2e705ffd564b5c55d88a188acc6e2020000000000160014c5756f6e7f2a5123f452b5edf0e281fefc50bcc40248304502210097fc85279b970f8f6617cc55ca4729304b461a1bdb38142d4e90b9017b09b34002203ccbfdb51ce426c9ae986aed565107d8ec282840fe2a062532cd519dbbe9ade30121020eeecb78e1637f6053edb8af54154f4974e9cfd6b6a7928766659e322fddbeca00000000"
}