{
  "txid": "9c0600ea5b52113dd0033edae19722d43abe561da1c0f6b0a1cf7e329f85993b",
  "version": 2,
  "locktime": 0,
  "vin": [
    {
      "txid": "28cea829d044fc4e8101cfbcb92d73cd3804a43aa6adacc564a65e20c18e1b32",
      "vout": 9,
      "prevout": {
        "scriptpubkey": "002036081285b8cf5e8c19627cb4bc7de9256a28be2a7b4118ce03fcec3dc4b8e888",
        "scriptpubkey_asm": "OP_0 OP_PUSHBYTES_32 36081285b8cf5e8c19627cb4bc7de9256a28be2a7b4118ce03fcec3dc4b8e888",
        "scriptpubkey_type": "v0_p2wsh",
        "scriptpubkey_address": "bc1qxcyp9pdcea0gcxtz0j6tcl0fy44z30320dq33nsrlnkrm39cazyqmjf6cc",
        "value": 1000
      },
      "scriptsig": "",
      "scriptsig_asm": "",
      "witness": [
        "",
        "304402205fdc24490e0c08c7e477030849e3bc2e55c32dfebc145ebc8211316554f0d02302204b38b868cba4cc616f68ebde5a4162978284f2cd4f7904203c5130e0ae7d36cd01",
        "30450221009183b156f4a94101ee5fb107921e8dba5fb1786790febc98aa50034741585046022074847e5b2e00740c49fb572ecbd19a6599b5ea48df4f39bf49fec3cf04ea413782",
        "522103dff3d9683fcd686ecb65ad9bc2990be36ec2a43384ddcf1be2f91ab98e39e7052102a8c58cb02aa57374f0d04863fb3dccc256045d4b467a40a36f3861ae4f0e0b1952ae"
      ],
      "is_coinbase": false,
      "sequence": 4294967295,
      "inner_witnessscript_asm": "OP_PUSHNUM_2 OP_PUSHBYTES_33 03dff3d9683fcd686ecb65ad9bc2990be36ec2a43384ddcf1be2f91ab98e39e705 OP_PUSHBYTES_33 02a8c58cb02aa57374f0d04863fb3dccc256045d4b467a40a36f3861ae4f0e0b19 OP_PUSHNUM_2 OP_CHECKMULTISIG"
    },
    {
      "txid": "369f1965fd40aaf33240f31c536200b83ee7917fddddc9ebfd50ff304ac99ce0",
      "vout": 1,
      "prevout": {
        "scriptpubkey": "00205d951246f9f69783b54f8eeda62e60d620a74fb9621bc787fc524c4d936a33dd",
        "scriptpubkey_asm": "OP_0 OP_PUSHBYTES_32 5d951246f9f69783b54f8eeda62e60d620a74fb9621bc787fc524c4d936a33dd",
        "scriptpubkey_type": "v0_p2wsh",
        "scriptpubkey_address": "bc1qtk23y3he76tc8d203mk6vtnq6cs2wnaevgdu0plu2fxymym2x0wsd76lpp",
        "value": 12642
      },
      "scriptsig": "",
      "scriptsig_asm": "",
      "witness": [
        "",
        "3045022100d8bb0fe9f387cdbb5b31698759978507f2c543c86108e375d66c86ffbbc4c241022071bb358658a42002b8f3b43ac3f76a3f8ade2fe03019186e6e05f477761bb7b401",
        "3045022100c37caf7d86458eea5f66faabb08bcc4519f86a24f637dfcc489ff4e779cadae602200d310eb1c85ccec6621c906050a32b67d280bceae3aa929ef3e422c8d3d8be6a82",
        "522103dff3d9683fcd686ecb65ad9bc2990be36ec2a43384ddcf1be2f91ab98e39e7052102cc6dda140c9e94f8d55a3e2eb65fa15a7f774a90735c1c8ee01d82d83e0691aa52ae"
      ],
      "is_coinbase": false,
      "sequence": 4294967295,
      "inner_witnessscript_asm": "OP_PUSHNUM_2 OP_PUSHBYTES_33 03dff3d9683fcd686ecb65ad9bc2990be36ec2a43384ddcf1be2f91ab98e39e705 OP_PUSHBYTES_33 02cc6dda140c9e94f8d55a3e2eb65fa15a7f774a90735c1c8ee01d82d83e0691aa OP_PUSHNUM_2 OP_CHECKMULTISIG"
    },
    {
      "txid": "d10f34d78e0314dda9436dfe99cc8c3f1617e6d8a981b7dbaefbb0e7bdbedd41",
      "vout": 1,
      "prevout": {
        "scriptpubkey": "00205d951246f9f69783b54f8eeda62e60d620a74fb9621bc787fc524c4d936a33dd",
        "scriptpubkey_asm": "OP_0 OP_PUSHBYTES_32 5d951246f9f69783b54f8eeda62e60d620a74fb9621bc787fc524c4d936a33dd",
        "scriptpubkey_type": "v0_p2wsh",
        "scriptpubkey_address": "bc1qtk23y3he76tc8d203mk6vtnq6cs2wnaevgdu0plu2fxymym2x0wsd76lpp",
        "value": 5360
      },
      "scriptsig": "",
      "scriptsig_asm": "",
      "witness": [
        "",
        "3045022100b5f57c97d5f04065c370b3d1e57669795c6ddcc63c14db442fdfc4fd35e68f3402200a4adff1cbcf72938d7ddc1df82ffa2cd2e7c859bfed6dc1623e23542fff0f7501",
        "304502210095d3c1b370461e5f542b7bc8a6dfd0074e410f4f3377f5ca26c4a537da3256430220262c39b0c59d54f9932a0196e4b4bb6a2b3fb554e28522833e365a1ec735589082",
        "522103dff3d9683fcd686ecb65ad9bc2990be36ec2a43384ddcf1be2f91ab98e39e7052102cc6dda140c9e94f8d55a3e2eb65fa15a7f774a90735c1c8ee01d82d83e0691aa52ae"
      ],
      "is_coinbase": false,
      "sequence": 4294967295,
      "inner_witnessscript_asm": "OP_PUSHNUM_2 OP_PUSHBYTES_33 03dff3d9683fcd686ecb65ad9bc2990be36ec2a43384ddcf1be2f91ab98e39e705 OP_PUSHBYTES_33 02cc6dda140c9e94f8d55a3e2eb65fa15a7f774a90735c1c8ee01d82d83e0691aa OP_PUSHNUM_2 OP_CHECKMULTISIG"
    },
    {
      "txid": "548275f772be46736539553a0cfcf3e3c6c5e6db6425ea1b247b539b8cdcbec3",
      "vout": 1,
      "prevout": {
        "scriptpubkey": "00205d951246f9f69783b54f8eeda62e60d620a74fb9621bc787fc524c4d936a33dd",
        "scriptpubkey_asm": "OP_0 OP_PUSHBYTES_32 5d951246f9f69783b54f8eeda62e60d620a74fb9621bc787fc524c4d936a33dd",
        "scriptpubkey_type": "v0_p2wsh",
        "scriptpubkey_address": "bc1qtk23y3he76tc8d203mk6vtnq6cs2wnaevgdu0plu2fxymym2x0wsd76lpp",
        "value": 5262
      },
      "scriptsig": "",
      "scriptsig_asm": "",
      "witness": [
        "",
        "3045022100a409f5c6007feebe10bdf525a5521b41906de7134f5f478df7823dd1fca742c502202f40f0890c1753a6ffc2bedddce24889a3aeb958b4e7578c6aa8003b143a49be01",
        "3045022100c056a6d2a0d840588367682b5a0190539b0bb2c4d2797dc86472c88cf79b67110220682be0843e730f45af6ece982a81bb18fb95cdd7bdde361a289cbdda072ee14b82",
        "522103dff3d9683fcd686ecb65ad9bc2990be36ec2a43384ddcf1be2f91ab98e39e7052102cc6dda140c9e94f8d55a3e2eb65fa15a7f774a90735c1c8ee01d82d83e0691aa52ae"
      ],
      "is_coinbase": false,
      "sequence": 4294967295,
      "inner_witnessscript_asm": "OP_PUSHNUM_2 OP_PUSHBYTES_33 03dff3d9683fcd686ecb65ad9bc2990be36ec2a43384ddcf1be2f91ab98e39e705 OP_PUSHBYTES_33 02cc6dda140c9e94f8d55a3e2eb65fa15a7f774a90735c1c8ee01d82d83e0691aa OP_PUSHNUM_2 OP_CHECKMULTISIG"
    },
    {
      "txid": "f937cb4c60ed29a96b5cae96b532a2dc7e1e4812d96b4b64ff5424b889398d26",
      "vout": 3,
      "prevout": {
        "scriptpubkey": "00205d951246f9f69783b54f8eeda62e60d620a74fb9621bc787fc524c4d936a33dd",
        "scriptpubkey_asm": "OP_0 OP_PUSHBYTES_32 5d951246f9f69783b54f8eeda62e60d620a74fb9621bc787fc524c4d936a33dd",
        "scriptpubkey_type": "v0_p2wsh",
        "scriptpubkey_address": "bc1qtk23y3he76tc8d203mk6vtnq6cs2wnaevgdu0plu2fxymym2x0wsd76lpp",
        "value": 3394
      },
      "scriptsig": "",
      "scriptsig_asm": "",
      "witness": [
        "",
        "3045022100f0b3dea134dbe314f18d56aebf711cb56046374f0217a97bc43c58fb34bb360d022078f850e059832c8f6b8ff342f2929f41d61a15da648b2614da53d4bdd2f7311601",
        "30450221009c670c0a2a56477f3cfd57cf638721684e0eca39f3b277a0dc1af05cbe31f83502206251eac82de55306ac932f1fa0c853d928aaf9e705d9e6ce5959144e0eca4b3682",
        "522103dff3d9683fcd686ecb65ad9bc2990be36ec2a43384ddcf1be2f91ab98e39e7052102cc6dda140c9e94f8d55a3e2eb65fa15a7f774a90735c1c8ee01d82d83e0691aa52ae"
      ],
      "is_coinbase": false,
      "sequence": 4294967295,
      "inner_witnessscript_asm": "OP_PUSHNUM_2 OP_PUSHBYTES_33 03dff3d9683fcd686ecb65ad9bc2990be36ec2a43384ddcf1be2f91ab98e39e705 OP_PUSHBYTES_33 02cc6dda140c9e94f8d55a3e2eb65fa15a7f774a90735c1c8ee01d82d83e0691aa OP_PUSHNUM_2 OP_CHECKMULTISIG"
    },
    {
      "txid": "5340459a073d89718cf08453dfc2abf2c3f1aa44315971ac255abd722814626d",
      "vout": 13,
      "prevout": {
        "scriptpubkey": "00205d951246f9f69783b54f8eeda62e60d620a74fb9621bc787fc524c4d936a33dd",
        "scriptpubkey_asm": "OP_0 OP_PUSHBYTES_32 5d951246f9f69783b54f8eeda62e60d620a74fb9621bc787fc524c4d936a33dd",
        "scriptpubkey_type": "v0_p2wsh",
        "scriptpubkey_address": "bc1qtk23y3he76tc8d203mk6vtnq6cs2wnaevgdu0plu2fxymym2x0wsd76lpp",
        "value": 2666
      },
      "scriptsig": "",
      "scriptsig_asm": "",
      "witness": [
        "",
        "3045022100cf858da03bb8af99c71b113005900094e431de75033790d3c29483072d7a2bf502202fd280fc6e34cd4e8f67f6ecc96389d590e4ee5a5fd2f6b54b8ca6ec8f37862901",
        "3045022100b2bd8e7ba6458f49663e6b06bcba4cbb8aa8395cbdfff98b719409ea560ff2a2022034adf5ff4ff81de928845841879494d98c5bbd435690eedebf9b85966306f9b482",
        "522103dff3d9683fcd686ecb65ad9bc2990be36ec2a43384ddcf1be2f91ab98e39e7052102cc6dda140c9e94f8d55a3e2eb65fa15a7f774a90735c1c8ee01d82d83e0691aa52ae"
      ],
      "is_coinbase": false,
      "sequence": 4294967295,
      "inner_witnessscript_asm": "OP_PUSHNUM_2 OP_PUSHBYTES_33 03dff3d9683fcd686ecb65ad9bc2990be36ec2a43384ddcf1be2f91ab98e39e705 OP_PUSHBYTES_33 02cc6dda140c9e94f8d55a3e2eb65fa15a7f774a90735c1c8ee01d82d83e0691aa OP_PUSHNUM_2 OP_CHECKMULTISIG"
    }
  ],
  "vout": [
    {
      "scriptpubkey": "00205d951246f9f69783b54f8eeda62e60d620a74fb9621bc787fc524c4d936a33dd",
      "scriptpubkey_asm": "OP_0 OP_PUSHBYTES_32 5d951246f9f69783b54f8eeda62e60d620a74fb9621bc787fc524c4d936a33dd",
      "scriptpubkey_type": "v0_p2wsh",
      "scriptpubkey_address": "bc1qtk23y3he76tc8d203mk6vtnq6cs2wnaevgdu0plu2fxymym2x0wsd76lpp",
      "value": 1000
    },
    {
      "scriptpubkey": "002036081285b8cf5e8c19627cb4bc7de9256a28be2a7b4118ce03fcec3dc4b8e888",
      "scriptpubkey_asm": "OP_0 OP_PUSHBYTES_32 36081285b8cf5e8c19627cb4bc7de9256a28be2a7b4118ce03fcec3dc4b8e888",
      "scriptpubkey_type": "v0_p2wsh",
      "scriptpubkey_address": "bc1qxcyp9pdcea0gcxtz0j6tcl0fy44z30320dq33nsrlnkrm39cazyqmjf6cc",
      "value": 18788
    },
    {
      "scriptpubkey": "0014290523d12bdb3140e74b7177a574bc4a0ce966b8",
      "scriptpubkey_asm": "OP_0 OP_PUSHBYTES_20 290523d12bdb3140e74b7177a574bc4a0ce966b8",
      "scriptpubkey_type": "v0_p2wpkh",
      "scriptpubkey_address": "bc1q9yzj85ftmvc5pe6tw9m62a9ufgxwje4cdya6w6",
      "value": 838
    }
  ],
  "size": 1694,
  "weight": 2813,
  "fee": 9698,
  "status": {
    "confirmed": true,
    "block_height": 834460,
    "block_hash": "00000000000000000000484a79b643b2524bbce82e5d8a442013fa5b8905ed98",
    "block_time": 1710307468
  },
  "hex": "02000000000106321b8ec1205ea664c5acada63aa40438cd732db9bccf01814efc44d029a8ce280900000000ffffffffe09cc94a30ff50fdebc9dddd7f91e73eb80062531cf34032f3aa40fd65199f360100000000ffffffff41ddbebde7b0fbaedbb781a9d8e617163f8ccc99fe6d43a9dd14038ed7340fd10100000000ffffffffc3bedc8c9b537b241bea2564dbe6c5c6e3f3fc0c3a5539657346be72f77582540100000000ffffffff268d3989b82454ff644b6bd912481e7edca232b596ae5c6ba929ed604ccb37f90300000000ffffffff6d62142872bd5a25ac71593144aaf1c3f2abc2df5384f08c71893d079a4540530d00000000ffffffff03e8030000000000002200205d951246f9f69783b54f8eeda62e60d620a74fb9621bc787fc524c4d936a33dd644900000000000022002036081285b8cf5e8c19627cb4bc7de9256a28be2a7b4118ce03fcec3dc4b8e8884603000000000000160014290523d12bdb3140e74b7177a574bc4a0ce966b8040047304402205fdc24490e0c08c7e477030849e3bc2e55c32dfebc145ebc8211316554f0d02302204b38b868cba4cc616f68ebde5a4162978284f2cd4f7904203c5130e0ae7d36cd014830450221009183b156f4a94101ee5fb107921e8dba5fb1786790febc98aa50034741585046022074847e5b2e00740c49fb572ecbd19a6599b5ea48df4f39bf49fec3cf04ea41378247522103dff3d9683fcd686ecb65ad9bc2990be36ec2a43384ddcf1be2f91ab98e39e7052102a8c58cb02aa57374f0d04863fb3dccc256045d4b467a40a36f3861ae4f0e0b1952ae0400483045022100d8bb0fe9f387cdbb5b31698759978507f2c543c86108e375d66c86ffbbc4c241022071bb358658a42002b8f3b43ac3f76a3f8ade2fe03019186e6e05f477761bb7b401483045022100c37caf7d86458eea5f66faabb08bcc4519f86a24f637dfcc489ff4e779cadae602200d310eb1c85ccec6621c906050a32b67d280bceae3aa929ef3e422c8d3d8be6a8247522103dff3d9683fcd686ecb65ad9bc2990be36ec2a43384ddcf1be2f91ab98e39e7052102cc6dda140c9e94f8d55a3e2eb65fa15a7f774a90735c1c8ee01d82d83e0691aa52ae0400483045022100b5f57c97d5f04065c370b3d1e57669795c6ddcc63c14db442fdfc4fd35e68f3402200a4adff1cbcf72938d7ddc1df82ffa2cd2e7c859bfed6dc1623e23542fff0f750148304502210095d3c1b370461e5f542b7bc8a6dfd0074e410f4f3377f5ca26c4a537da3256430220262c39b0c59d54f9932a0196e4b4bb6a2b3fb554e28522833e365a1ec73558908247522103dff3d9683fcd686ecb65ad9bc2990be36ec2a43384ddcf1be2f91ab98e39e7052102cc6dda140c9e94f8d55a3e2eb65fa15a7f774a90735c1c8ee01d82d83e0691aa52ae0400483045022100a409f5c6007feebe10bdf525a5521b41906de7134f5f478df7823dd1fca742c502202f40f0890c1753a6ffc2bedddce24889a3aeb958b4e7578c6aa8003b143a49be01483045022100c056a6d2a0d840588367682b5a0190539b0bb2c4d2797dc86472c88cf79b67110220682be0843e730f45af6ece982a81bb18fb95cdd7bdde361a289cbdda072ee14b8247522103dff3d9683fcd686ecb65ad9bc2990be36ec2a43384ddcf1be2f91ab98e39e7052102cc6dda140c9e94f8d55a3e2eb65fa15a7f774a90735c1c8ee01d82d83e0691aa52ae0400483045022100f0b3dea134dbe314f18d56aebf711cb56046374f0217a97bc43c58fb34bb360d022078f850e059832c8f6b8ff342f2929f41d61a15da648b2614da53d4bdd2f73116014830450221009c670c0a2a56477f3cfd57cf638721684e0eca39f3b277a0dc1af05cbe31f83502206251eac82de55306ac932f1fa0c853d928aaf9e705d9e6ce5959144e0eca4b368247522103dff3d9683fcd686ecb65ad9bc2990be36ec2a43384ddcf1be2f91ab98e39e7052102cc6dda140c9e94f8d55a3e2eb65fa15a7f774a90735c1c8ee01d82d83e0691aa52ae0400483045022100cf858da03bb8af99c71b113005900094e431de75033790d3c29483072d7a2bf502202fd280fc6e34cd4e8f67f6ecc96389d590e4ee5a5fd2f6b54b8ca6ec8f37862901483045022100b2bd8e7ba6458f49663e6b06bcba4cbb8aa8395cbdfff98b719409ea560ff2a2022034adf5ff4ff81de928845841879494d98c5bbd435690eedebf9b85966306f9b48247522103dff3d9683fcd686ecb65ad9bc2990be36ec2a43384ddcf1be2f91ab98e39e7052102cc6dda140c9e94f8d55a3e2eb65fa15a7f774a90735c1c8ee01d82d83e0691aa52ae00000000"
}