{
  "txid": "9c0a2646970cd04dfef6b08018d14bd6d35d30ccb1dc3995b723ae956dd547ec",
  "version": 2,
  "locktime": 0,
  "vin": [
    {
      "txid": "d209f89a93502351a12ec5ea24348313d48738b4197c064b1bb36bdb51cd953c",
      "vout": 0,
      "prevout": {
        "scriptpubkey": "5120916e1ba76ae7f3fe9fcc68ace934541b941118d531c9410addcb88294e76cd0b",
        "scriptpubkey_asm": "OP_PUSHNUM_1 OP_PUSHBYTES_32 916e1ba76ae7f3fe9fcc68ace934541b941118d531c9410addcb88294e76cd0b",
        "scriptpubkey_type": "v1_p2tr",
        "scriptpubkey_address": "bc1pj9hphfm2ulela87vdzkwjdz5rw2pzxx4x8y5zzkaewyzjnnke59snv604h",
        "value": 7780
      },
      "scriptsig": "",
      "scriptsig_asm": "",
      "witness": [
        "3e945ee16c3e5f7afe5f35225c66632ca0c3cec199f7fa2a6258b95714ce0801aaaa0dbd784d22ce37e218cc84470bf62327d68f9242813b4e3ec9919e2c2cd9"
      ],
      "is_coinbase": false,
      "sequence": 4294967293
    }
  ],
  "vout": [
    {
      "scriptpubkey": "51208fce833abf5ab5ff87331933ce61fa7aabbeb938f7542e3a5124a79e20e6fe25",
      "scriptpubkey_asm": "OP_PUSHNUM_1 OP_PUSHBYTES_32 8fce833abf5ab5ff87331933ce61fa7aabbeb938f7542e3a5124a79e20e6fe25",
      "scriptpubkey_type": "v1_p2tr",
      "scriptpubkey_address": "bc1p3l8gxw4lt26llpenryeuuc06024mawfc7a2zuwj3yjneug8xlcjs968zr0",
      "value": 6559
    }
  ],
  "size": 162,
  "weight": 444,
  "fee": 1221,
  "status": {
    "confirmed": true,
    "block_height": 834464,
    "block_hash": "0000000000000000000177a0869a911a2b65c9bdcd5a8bcb02b68f305bee848e",
    "block_time": 1710308296
  },
  "hex": "020000000001013c95cd51db6bb31b4b067c19b43887d413833424eac52ea1512350939af809d20000000000fdffffff019f190000000000002251208fce833abf5ab5ff87331933ce61fa7aabbeb938f7542e3a5124a79e20e6fe2501403e945ee16c3e5f7afe5f35225c66632ca0c3cec199f7fa2a6258b95714ce0801aaaa0dbd784d22ce37e218cc84470bf62327d68f9242813b4e3ec9919e2c2cd900000000"
}