{
  "txid": "9c173249c3684c30b78b7e229c6b46f9c06a752cbf7e3c69881e5a2229fd5cd1",
  "version": 2,
  "locktime": 0,
  "vin": [
    {
      "txid": "bcd3a68b65802f798620403e0fe914ffe055ce7bb9c429aeb6790042479043bc",
      "vout": 0,
      "prevout": {
        "scriptpubkey": "001435f97ccd177f6c7e13393848b4682814d754c959",
        "scriptpubkey_asm": "OP_0 OP_PUSHBYTES_20 35f97ccd177f6c7e13393848b4682814d754c959",
        "scriptpubkey_type": "v0_p2wpkh",
        "scriptpubkey_address": "bc1qxhuhengh0ak8uyee8pytg6pgznt4fj2enjxx3z",
        "value": 7230
      },
      "scriptsig": "",
      "scriptsig_asm": "",
      "witness": [
        "3045022100ef6b43772b448e72c91cb2ae9d9e3e2bfc1a25502816516eea8068e003516ee902206294dce48c702e45f62f575170cabc759133e842c1ccf67dd70d53d2951dc11701",
        "0284d82b387c788aae3d4eed0cd06426047af8b3610008cbcf1255a12154ccab95"
      ],
      "is_coinbase": false,
      "sequence": 4294967295
    }
  ],
  "vout": [
    {
      "scriptpubkey": "0014ab9f362c7e216c5d0319c0cfaf3f5b3170c694d5",
      "scriptpubkey_asm": "OP_0 OP_PUSHBYTES_20 ab9f362c7e216c5d0319c0cfaf3f5b3170c694d5",
      "scriptpubkey_type": "v0_p2wpkh",
      "scriptpubkey_address": "bc1q4w0nvtr7y9k96qcecr86706mx9cvd9x4kcgw3z",
      "value": 4143
    },
    {
      "scriptpubkey": "00149dcc46ae3852ab837be4c80f513b0ff697c73a83",
      "scriptpubkey_asm": "OP_0 OP_PUSHBYTES_20 9dcc46ae3852ab837be4c80f513b0ff697c73a83",
      "scriptpubkey_type": "v0_p2wpkh",
      "scriptpubkey_address": "bc1qnhxydt3c224cx7lyeq84zwc076tuww5rjsefyy",
      "value": 1564
    }
  ],
  "size": 223,
  "weight": 562,
  "fee": 1523,
  "status": {
    "confirmed": true,
    "block_height": 834464,
    "block_hash": "0000000000000000000177a0869a911a2b65c9bdcd5a8bcb02b68f305bee848e",
    "block_time": 1710308296
  },
  "hex": "02000000000101bc439047420079b6ae29c4b97bce55e0ff14e90f3e402086792f80658ba6d3bc0000000000ffffffff022f10000000000000160014ab9f362c7e216c5d0319c0cfaf3f5b3170c694d51c060000000000001600149dcc46ae3852ab837be4c80f513b0ff697c73a8302483045022100ef6b43772b448e72c91cb2ae9d9e3e2bfc1a25502816516eea8068e003516ee902206294dce48c702e45f62f575170cabc759133e842c1ccf67dd70d53d2951dc11701210284d82b387c788aae3d4eed0cd06426047af8b3610008cbcf1255a12154ccab9500000000"
}