{
  "txid": "9c184685c9b3dd107f3da78a1e45f11aedfa94c260ecfd6a72149ddc84973de1",
  "version": 1,
  "locktime": 0,
  "vin": [
    {
      "txid": "b90fa37742d1621a5d04c0a10d1c47f963c804a4f41cba3d31bf35870d0d5fc3",
      "vout": 0,
      "prevout": {
        "scriptpubkey": "002042cc8b1ca9664926bfd0af71a7cd56841db2700dd6577f20c0f78df2b4b7422a",
        "scriptpubkey_asm": "OP_0 OP_PUSHBYTES_32 42cc8b1ca9664926bfd0af71a7cd56841db2700dd6577f20c0f78df2b4b7422a",
        "scriptpubkey_type": "v0_p2wsh",
        "scriptpubkey_address": "bc1qgtxgk89fveyjd07s4ac60n2ksswmyuqd6eth7gxq77xl9d9hgg4qkhcx9t",
        "value": 57665776
      },
      "scriptsig": "",
      "scriptsig_asm": "",
      "witness": [
        "",
        "3045022100fb89493a71dabd1f774b8a177bd96d03e4b2b3051e9ab46b505191058ecfd8fc02201377ececa961c6c2d1a45bf3875ae4d583ba257953fee3a0732c12774c4ab53301",
        "304402206b38973f3eca9d271fb8f3bfa98ada55ca0558c05bc32d102c248d19570ab232022021fabce010161a14a2ade1527710d4ecb43e8845b9b2b8ee3d680a890f4affaa01",
        "522102c2518ebe26400693ce671b1337a21c679d2284a02e28d55e6e50c92ea64fa4ff2102e9fe9bc3481e459cd9f525df15ef5c9a8730e750e7df5418e800e0a3ca90be8e21037424ae791d12c0d19b41670618a9d219c678b364673b4d1cd184f79fdf21416853ae"
      ],
      "is_coinbase": false,
      "sequence": 4294967293,
      "inner_witnessscript_asm": "OP_PUSHNUM_2 OP_PUSHBYTES_33 02c2518ebe26400693ce671b1337a21c679d2284a02e28d55e6e50c92ea64fa4ff OP_PUSHBYTES_33 02e9fe9bc3481e459cd9f525df15ef5c9a8730e750e7df5418e800e0a3ca90be8e OP_PUSHBYTES_33 037424ae791d12c0d19b41670618a9d219c678b364673b4d1cd184f79fdf214168 OP_PUSHNUM_3 OP_CHECKMULTISIG"
    },
    {
      "txid": "fe12730fbcaca85690ab274b1bebe87423ca8c72e3fedd344e6afea686c3f10f",
      "vout": 0,
      "prevout": {
        "scriptpubkey": "00200f50a2524a9f68e3b326d5cd055ec614a7f230c6f1a1fa6761bd1562927c5fb9",
        "scriptpubkey_asm": "OP_0 OP_PUSHBYTES_32 0f50a2524a9f68e3b326d5cd055ec614a7f230c6f1a1fa6761bd1562927c5fb9",
        "scriptpubkey_type": "v0_p2wsh",
        "scriptpubkey_address": "bc1qpag2y5j2na5w8vex6hxs2hkxzjnlyvxx7xsl5emph52k9ynut7us2vsssn",
        "value": 84852058
      },
      "scriptsig": "",
      "scriptsig_asm": "",
      "witness": [
        "",
        "3045022100b78ea76430d5e5d2cc1ec8d090b1677a4864c3e90104efe42225b1391534420b022015e990481b1f19e5f496bc3287047e97a8ea0b92447695e1f5a425161877add101",
        "304402205365dd0f25d6f43906761cfb1bbb0f3f61349c50f4aa749013f48bdf2249502b02205ba2120c8ea4c1ce501cd487088735daa864345ff30ed3f4c7f707ae25b5d15c01",
        "52210353b15a7d58c9a45f9039e3d03417ff604ad3c4ded91ed5daaabcef0e6592843d2103adfdcb82fa2fc96eb195555b51c3e432c7fd50b79aa5ba652436eb01fd4ae5202103741e3b5419ad3e9f679b1c1b802fdac42db09ca95caecfdfd9ab350874d02d8653ae"
      ],
      "is_coinbase": false,
      "sequence": 4294967293,
      "inner_witnessscript_asm": "OP_PUSHNUM_2 OP_PUSHBYTES_33 0353b15a7d58c9a45f9039e3d03417ff604ad3c4ded91ed5daaabcef0e6592843d OP_PUSHBYTES_33 03adfdcb82fa2fc96eb195555b51c3e432c7fd50b79aa5ba652436eb01fd4ae520 OP_PUSHBYTES_33 03741e3b5419ad3e9f679b1c1b802fdac42db09ca95caecfdfd9ab350874d02d86 OP_PUSHNUM_3 OP_CHECKMULTISIG"
    }
  ],
  "vout": [
    {
      "scriptpubkey": "0020b74a553cabf3a438844b41dd6c5a6b6845778e6258cfdd59e948dbb284d1530c",
      "scriptpubkey_asm": "OP_0 OP_PUSHBYTES_32 b74a553cabf3a438844b41dd6c5a6b6845778e6258cfdd59e948dbb284d1530c",
      "scriptpubkey_type": "v0_p2wsh",
      "scriptpubkey_address": "bc1qka99209t7wjr3pztg8wkckntdpzh0rnztr8a6k0ffrdm9px32vxqmrvdcj",
      "value": 6183947
    },
    {
      "scriptpubkey": "a9145fb3ccf50e99470a5d641ff1945bb37650ec830b87",
      "scriptpubkey_asm": "OP_HASH160 OP_PUSHBYTES_20 5fb3ccf50e99470a5d641ff1945bb37650ec830b OP_EQUAL",
      "scriptpubkey_type": "p2sh",
      "scriptpubkey_address": "3AR3WXtPy672iXTNKCcFga63MCr3zM8TX1",
      "value": 136327819
    }
  ],
  "size": 675,
  "weight": 1176,
  "fee": 6068,
  "status": {
    "confirmed": true,
    "block_height": 834638,
    "block_hash": "000000000000000000025f742c626208ac87e0b7d15054abb4a19ca2d735a54e",
    "block_time": 1710405325
  },
  "hex": "01000000000102c35f0d0d8735bf313dba1cf4a404c863f9471c0da1c0045d1a62d14277a30fb90000000000fdffffff0ff1c386a6fe6a4e34ddfee3728cca2374e8eb1b4b27ab9056a8acbc0f7312fe0000000000fdffffff020b5c5e0000000000220020b74a553cabf3a438844b41dd6c5a6b6845778e6258cfdd59e948dbb284d1530c8b3220080000000017a9145fb3ccf50e99470a5d641ff1945bb37650ec830b870400483045022100fb89493a71dabd1f774b8a177bd96d03e4b2b3051e9ab46b505191058ecfd8fc02201377ececa961c6c2d1a45bf3875ae4d583ba257953fee3a0732c12774c4ab5330147304402206b38973f3eca9d271fb8f3bfa98ada55ca0558c05bc32d102c248d19570ab232022021fabce010161a14a2ade1527710d4ecb43e8845b9b2b8ee3d680a890f4affaa0169522102c2518ebe26400693ce671b1337a21c679d2284a02e28d55e6e50c92ea64fa4ff2102e9fe9bc3481e459cd9f525df15ef5c9a8730e750e7df5418e800e0a3ca90be8e21037424ae791d12c0d19b41670618a9d219c678b364673b4d1cd184f79fdf21416853ae0400483045022100b78ea76430d5e5d2cc1ec8d090b1677a4864c3e90104efe42225b1391534420b022015e990481b1f19e5f496bc3287047e97a8ea0b92447695e1f5a425161877add10147304402205365dd0f25d6f43906761cfb1bbb0f3f61349c50f4aa749013f48bdf2249502b02205ba2120c8ea4c1ce501cd487088735daa864345ff30ed3f4c7f707ae25b5d15c016952210353b15a7d58c9a45f9039e3d03417ff604ad3c4ded91ed5daaabcef0e6592843d2103adfdcb82fa2fc96eb195555b51c3e432c7fd50b79aa5ba652436eb01fd4ae5202103741e3b5419ad3e9f679b1c1b802fdac42db09ca95caecfdfd9ab350874d02d8653ae00000000"
}