{
  "txid": "9c39060aa8c4ae392b2a128aac74b19ae4fc648b0260af15c1cab6a5dcb22496",
  "version": 2,
  "locktime": 834459,
  "vin": [
    {
      "txid": "cec4df1e1c6100b94cd2b5dc678cad57bf3ad13fcf729252946c723980c076a2",
      "vout": 57,
      "prevout": {
        "scriptpubkey": "00143f05d049ed54d9911efa2dbbd30f03d0fcd06e7f",
        "scriptpubkey_asm": "OP_0 OP_PUSHBYTES_20 3f05d049ed54d9911efa2dbbd30f03d0fcd06e7f",
        "scriptpubkey_type": "v0_p2wpkh",
        "scriptpubkey_address": "bc1q8uzaqj0d2nvez8h69kaaxrcr6r7dqmnlrj8esa",
        "value": 27744
      },
      "scriptsig": "",
      "scriptsig_asm": "",
      "witness": [
        "3044022032c82033d2d854c68b35929afdef79324d8c97c743caa137464e680438d640880220641a3d5a60881f282c341476c0816f04f2278978b161a2a44194349ed77823bf01",
        "0261375dac8388bcb17cda2ac226cbc3353112620e418ec95ffa8f731316dfdcf0"
      ],
      "is_coinbase": false,
      "sequence": 4294967294
    },
    {
      "txid": "f007324cb88d0e9189aa6bb1031f08214b71e30bdf1b0f37ec50517153a6c554",
      "vout": 0,
      "prevout": {
        "scriptpubkey": "00143fe84d9bc578cea982ef4d331d5fcb944e71100a",
        "scriptpubkey_asm": "OP_0 OP_PUSHBYTES_20 3fe84d9bc578cea982ef4d331d5fcb944e71100a",
        "scriptpubkey_type": "v0_p2wpkh",
        "scriptpubkey_address": "bc1q8l5ymx790r82nqh0f5e36h7tj388zyq26jgt4m",
        "value": 1007741
      },
      "scriptsig": "",
      "scriptsig_asm": "",
      "witness": [
        "3044022044e509ade8acc107bf5646faa0defd39997206200df33e3853da7f135bf83efa022051303cc3c080394efd7b8bd9b3864097e14a06e7e4e11d94b23dda336dd1c6e401",
        "03cb6a3a98e6f7c2699e9c170aeea35d5f59f2b20f3854f5e0158420cf7b5029b4"
      ],
      "is_coinbase": false,
      "sequence": 4294967294
    }
  ],
  "vout": [
    {
      "scriptpubkey": "0014a0de14d16309815358fa9e289e114b9624693df2",
      "scriptpubkey_asm": "OP_0 OP_PUSHBYTES_20 a0de14d16309815358fa9e289e114b9624693df2",
      "scriptpubkey_type": "v0_p2wpkh",
      "scriptpubkey_address": "bc1q5r0pf5trpxq4xk86nc5fuy2tjcjxj00jptsa4e",
      "value": 1020384
    },
    {
      "scriptpubkey": "76a914e69f1269fc02013bd8bf526ea284e0f1eb96e26a88ac",
      "scriptpubkey_asm": "OP_DUP OP_HASH160 OP_PUSHBYTES_20 e69f1269fc02013bd8bf526ea284e0f1eb96e26a OP_EQUALVERIFY OP_CHECKSIG",
      "scriptpubkey_type": "p2pkh",
      "scriptpubkey_address": "1N2QydgWh8V2vVodJdsRe8RMrnZydrwn9c",
      "value": 9343
    }
  ],
  "size": 373,
  "weight": 844,
  "fee": 5758,
  "status": {
    "confirmed": true,
    "block_height": 834460,
    "block_hash": "00000000000000000000484a79b643b2524bbce82e5d8a442013fa5b8905ed98",
    "block_time": 1710307468
  },
  "hex": "02000000000102a276c08039726c94529272cf3fd13abf57ad8c67dcb5d24cb900611c1edfc4ce3900000000feffffff54c5a653715150ec370f1bdf0be3714b21081f03b16baa89910e8db84c3207f00000000000feffffff02e0910f0000000000160014a0de14d16309815358fa9e289e114b9624693df27f240000000000001976a914e69f1269fc02013bd8bf526ea284e0f1eb96e26a88ac02473044022032c82033d2d854c68b35929afdef79324d8c97c743caa137464e680438d640880220641a3d5a60881f282c341476c0816f04f2278978b161a2a44194349ed77823bf01210261375dac8388bcb17cda2ac226cbc3353112620e418ec95ffa8f731316dfdcf002473044022044e509ade8acc107bf5646faa0defd39997206200df33e3853da7f135bf83efa022051303cc3c080394efd7b8bd9b3864097e14a06e7e4e11d94b23dda336dd1c6e4012103cb6a3a98e6f7c2699e9c170aeea35d5f59f2b20f3854f5e0158420cf7b5029b49bbb0c00"
}