{
  "txid": "9c3c8db8a5cbf9434a595ae03653488c0060260c2d529222127e21c6788cce09",
  "version": 2,
  "locktime": 0,
  "vin": [
    {
      "txid": "8486ecb4df0880316dd6e82b3971b4df187aff23765bc3a47f8d78bb53aa273c",
      "vout": 118,
      "prevout": {
        "scriptpubkey": "5120939811f63a6f0a098bb82e98f019147ec30cb7b284aa5608e29aad693932b5c4",
        "scriptpubkey_asm": "OP_PUSHNUM_1 OP_PUSHBYTES_32 939811f63a6f0a098bb82e98f019147ec30cb7b284aa5608e29aad693932b5c4",
        "scriptpubkey_type": "v1_p2tr",
        "scriptpubkey_address": "bc1pjwvpra36du9qnzac96v0qxg50mpsedajsj49vz8zn2kkjwfjkhzq2cun62",
        "value": 2575
      },
      "scriptsig": "",
      "scriptsig_asm": "",
      "witness": [
        "957574af5fb00e20480219dfd0c01c4a335d8e124f83f9001b27fea0d7d326cf4147a4a7555d37c719b60a38fcb945938018fee3e1d48221b83ba4899a6be6e2",
        "20fc96f4ef64ce2c67f5308128a1135edb9ee73dc85c0aa20ebbbeec753204a71fac0063036f726401010a746578742f706c61696e00367b2270223a226272632d3230222c226f70223a226d696e74222c227469636b223a2261616161222c22616d74223a223130303030227d68",
        "c1fc96f4ef64ce2c67f5308128a1135edb9ee73dc85c0aa20ebbbeec753204a71f"
      ],
      "is_coinbase": false,
      "sequence": 4261412863
    }
  ],
  "vout": [
    {
      "scriptpubkey": "0014ddd7ef12ea6f78edcc1e8e7afa12c01ab59f3339",
      "scriptpubkey_asm": "OP_0 OP_PUSHBYTES_20 ddd7ef12ea6f78edcc1e8e7afa12c01ab59f3339",
      "scriptpubkey_type": "v0_p2wpkh",
      "scriptpubkey_address": "bc1qmht77yh2dauwmnq73ea05ykqr26e7veea8spz6",
      "value": 546
    }
  ],
  "size": 295,
  "weight": 541,
  "fee": 2029,
  "status": {
    "confirmed": true,
    "block_height": 834460,
    "block_hash": "00000000000000000000484a79b643b2524bbce82e5d8a442013fa5b8905ed98",
    "block_time": 1710307468
  },
  "hex": "020000000001013c27aa53bb788d7fa4c35b7623ff7a18dfb471392be8d66d318008dfb4ec86847600000000fffffffd012202000000000000160014ddd7ef12ea6f78edcc1e8e7afa12c01ab59f33390340957574af5fb00e20480219dfd0c01c4a335d8e124f83f9001b27fea0d7d326cf4147a4a7555d37c719b60a38fcb945938018fee3e1d48221b83ba4899a6be6e26e20fc96f4ef64ce2c67f5308128a1135edb9ee73dc85c0aa20ebbbeec753204a71fac0063036f726401010a746578742f706c61696e00367b2270223a226272632d3230222c226f70223a226d696e74222c227469636b223a2261616161222c22616d74223a223130303030227d6821c1fc96f4ef64ce2c67f5308128a1135edb9ee73dc85c0aa20ebbbeec753204a71f00000000"
}