{
  "txid": "9c4b6a8295f1b5fc177c31ab1a9ef73e6c606425a452d972d1e2694d8c03447b",
  "version": 2,
  "locktime": 0,
  "vin": [
    {
      "txid": "0490bdc0933495c993bc551d6b34b7dbcb89a807f39d12d9118de54c3b2443fa",
      "vout": 0,
      "prevout": {
        "scriptpubkey": "0014dd1725400936af0ed47ff5960f0d20efe43ab677",
        "scriptpubkey_asm": "OP_0 OP_PUSHBYTES_20 dd1725400936af0ed47ff5960f0d20efe43ab677",
        "scriptpubkey_type": "v0_p2wpkh",
        "scriptpubkey_address": "bc1qm5tj2sqfx6hsa4rl7ktq7rfqaljr4dnhjkr6qc",
        "value": 1260153
      },
      "scriptsig": "",
      "scriptsig_asm": "",
      "witness": [
        "30450221009e5e561b7da294f9b1fc9e4ebb5edd5505595e9818e4378c2153b08f3aac626102207459309bd695671e7b23b0b4177c3f60f268f95adc95cd086b2967320315606b01",
        "02c0d2370fea59204d8d352345c0d232a8b3460db53dcb7967bb51a50f5682cfee"
      ],
      "is_coinbase": false,
      "sequence": 4294967295
    }
  ],
  "vout": [
    {
      "scriptpubkey": "76a9144995cdb18072ec569071b5e43110f8432ce081ff88ac",
      "scriptpubkey_asm": "OP_DUP OP_HASH160 OP_PUSHBYTES_20 4995cdb18072ec569071b5e43110f8432ce081ff OP_EQUALVERIFY OP_CHECKSIG",
      "scriptpubkey_type": "p2pkh",
      "scriptpubkey_address": "17i5nXtXmModfuJJeWvZZt5a4ahwREHznL",
      "value": 769049
    },
    {
      "scriptpubkey": "0014dd1725400936af0ed47ff5960f0d20efe43ab677",
      "scriptpubkey_asm": "OP_0 OP_PUSHBYTES_20 dd1725400936af0ed47ff5960f0d20efe43ab677",
      "scriptpubkey_type": "v0_p2wpkh",
      "scriptpubkey_address": "bc1qm5tj2sqfx6hsa4rl7ktq7rfqaljr4dnhjkr6qc",
      "value": 488694
    }
  ],
  "size": 226,
  "weight": 574,
  "fee": 2410,
  "status": {
    "confirmed": true,
    "block_height": 834638,
    "block_hash": "000000000000000000025f742c626208ac87e0b7d15054abb4a19ca2d735a54e",
    "block_time": 1710405325
  },
  "hex": "02000000000101fa43243b4ce58d11d9129df307a889cbdbb7346b1d55bc93c9953493c0bd90040000000000ffffffff0219bc0b00000000001976a9144995cdb18072ec569071b5e43110f8432ce081ff88acf674070000000000160014dd1725400936af0ed47ff5960f0d20efe43ab677024830450221009e5e561b7da294f9b1fc9e4ebb5edd5505595e9818e4378c2153b08f3aac626102207459309bd695671e7b23b0b4177c3f60f268f95adc95cd086b2967320315606b012102c0d2370fea59204d8d352345c0d232a8b3460db53dcb7967bb51a50f5682cfee00000000"
}