{
  "txid": "9c4b07cc9d34d3d63cd7e617e50ad9bcb0eb7874c291d496ec324a2752888c64",
  "version": 1,
  "locktime": 834458,
  "vin": [
    {
      "txid": "bb0d688e424d6f2ad7cda3dd827c6de1a0136ddfb3f98ed09a3914c80068ae88",
      "vout": 6,
      "prevout": {
        "scriptpubkey": "00201fc5a1035b485597a70661b34e6abaa9aa048d4018b57ee96935b541b208ea2a",
        "scriptpubkey_asm": "OP_0 OP_PUSHBYTES_32 1fc5a1035b485597a70661b34e6abaa9aa048d4018b57ee96935b541b208ea2a",
        "scriptpubkey_type": "v0_p2wsh",
        "scriptpubkey_address": "bc1qrlz6zq6mfp2e0fcxvxe5u6464x4qfr2qrz6ha6tfxk65rvsgag4qw0hrcw",
        "value": 13611165
      },
      "scriptsig": "",
      "scriptsig_asm": "",
      "witness": [
        "",
        "3045022100ed555c1be4ea1bd712194980498d5a3a2e69bcbef6cb7ecd259a3129793d15fe022048cde60dd3e79b7f2e2ee25016930dbbf04e458fd0a7c6be18befc1f0e3918ae01",
        "3044022077cbb43f01742ca2837f194698bd408fc630ecdad589200871b5af74c4c21885022041d7c683618bc1f3314a8cfef1a249378d9eee352a3578dfc4ccdfae2ffabaf801",
        "5221024880adeacbb323c7aaf04d7bb741fa16738c207572fda9b989b7e0bdf26c28d321026ca4bc178d1aa3746528260eae3fa90eacce411d9e54a5eab3b0ef498c14bfc62103f21069d6958ac0318be20d9198ba462c6b71c95adf4412c6737c0d673012bccc53ae"
      ],
      "is_coinbase": false,
      "sequence": 4294967293,
      "inner_witnessscript_asm": "OP_PUSHNUM_2 OP_PUSHBYTES_33 024880adeacbb323c7aaf04d7bb741fa16738c207572fda9b989b7e0bdf26c28d3 OP_PUSHBYTES_33 026ca4bc178d1aa3746528260eae3fa90eacce411d9e54a5eab3b0ef498c14bfc6 OP_PUSHBYTES_33 03f21069d6958ac0318be20d9198ba462c6b71c95adf4412c6737c0d673012bccc OP_PUSHNUM_3 OP_CHECKMULTISIG"
    }
  ],
  "vout": [
    {
      "scriptpubkey": "76a91445cd7176597e6869cf7077ae5beadbafe9b7f14388ac",
      "scriptpubkey_asm": "OP_DUP OP_HASH160 OP_PUSHBYTES_20 45cd7176597e6869cf7077ae5beadbafe9b7f143 OP_EQUALVERIFY OP_CHECKSIG",
      "scriptpubkey_type": "p2pkh",
      "scriptpubkey_address": "17N5jgVddiCPpHLgFtjfdbwWNe6bFashD5",
      "value": 50059
    },
    {
      "scriptpubkey": "76a91471fa702c2501d87a9c66e13b72a0fd47ec42653f88ac",
      "scriptpubkey_asm": "OP_DUP OP_HASH160 OP_PUSHBYTES_20 71fa702c2501d87a9c66e13b72a0fd47ec42653f OP_EQUALVERIFY OP_CHECKSIG",
      "scriptpubkey_type": "p2pkh",
      "scriptpubkey_address": "1BPfNRiicaqhM6YDZnskGYnDbzq8barYc3",
      "value": 75070
    },
    {
      "scriptpubkey": "00209e023b92ee4813ff349c9d85296d8e3c83a360c9b2a9a01d39b8923fec6cb2ad",
      "scriptpubkey_asm": "OP_0 OP_PUSHBYTES_32 9e023b92ee4813ff349c9d85296d8e3c83a360c9b2a9a01d39b8923fec6cb2ad",
      "scriptpubkey_type": "v0_p2wsh",
      "scriptpubkey_address": "bc1qncprhyhwfqfl7dyunkzjjmvw8jp6xcxfk256q8fehzfrlmrvk2ks28zmn5",
      "value": 13483312
    }
  ],
  "size": 417,
  "weight": 903,
  "fee": 2724,
  "status": {
    "confirmed": true,
    "block_height": 834460,
    "block_hash": "00000000000000000000484a79b643b2524bbce82e5d8a442013fa5b8905ed98",
    "block_time": 1710307468
  },
  "hex": "0100000000010188ae6800c814399ad08ef9b3df6d13a0e16d7c82dda3cdd72a6f4d428e680dbb0600000000fdffffff038bc30000000000001976a91445cd7176597e6869cf7077ae5beadbafe9b7f14388ac3e250100000000001976a91471fa702c2501d87a9c66e13b72a0fd47ec42653f88ac30bdcd00000000002200209e023b92ee4813ff349c9d85296d8e3c83a360c9b2a9a01d39b8923fec6cb2ad0400483045022100ed555c1be4ea1bd712194980498d5a3a2e69bcbef6cb7ecd259a3129793d15fe022048cde60dd3e79b7f2e2ee25016930dbbf04e458fd0a7c6be18befc1f0e3918ae01473044022077cbb43f01742ca2837f194698bd408fc630ecdad589200871b5af74c4c21885022041d7c683618bc1f3314a8cfef1a249378d9eee352a3578dfc4ccdfae2ffabaf801695221024880adeacbb323c7aaf04d7bb741fa16738c207572fda9b989b7e0bdf26c28d321026ca4bc178d1aa3746528260eae3fa90eacce411d9e54a5eab3b0ef498c14bfc62103f21069d6958ac0318be20d9198ba462c6b71c95adf4412c6737c0d673012bccc53ae9abb0c00"
}