{
  "txid": "9c4f7c90e00c84040dde7bdc47c5cacf0c4dcb995b9ef29f140418ebc0384c6e",
  "version": 2,
  "locktime": 0,
  "vin": [
    {
      "txid": "ff31880b6ad7a27c4e46c2d64b05ae760b5150a10ef4ead28316f4b3e7b818f7",
      "vout": 1,
      "prevout": {
        "scriptpubkey": "51200a83d17823bd98d71d451868c1e5a110144403ac3803bfe2e3fe564e8af0b59d",
        "scriptpubkey_asm": "OP_PUSHNUM_1 OP_PUSHBYTES_32 0a83d17823bd98d71d451868c1e5a110144403ac3803bfe2e3fe564e8af0b59d",
        "scriptpubkey_type": "v1_p2tr",
        "scriptpubkey_address": "bc1pp2paz7prhkvdw829rp5vredpzq2ygqav8qpmlchrletyazhskkws20lc3y",
        "value": 1966166
      },
      "scriptsig": "",
      "scriptsig_asm": "",
      "witness": [
        "65aed21296c03d58dc93e827fe474f401af4b72eac9b277493295553f278b224b0c428e14494184a1f78a509f97dded3419c6be917e0124a8930f6c8867f5019"
      ],
      "is_coinbase": false,
      "sequence": 2147483649
    },
    {
      "txid": "9a8284d219587a2aeca05746b9fcede5f1a4597819c98fae45921885cbb5b312",
      "vout": 1,
      "prevout": {
        "scriptpubkey": "51200a83d17823bd98d71d451868c1e5a110144403ac3803bfe2e3fe564e8af0b59d",
        "scriptpubkey_asm": "OP_PUSHNUM_1 OP_PUSHBYTES_32 0a83d17823bd98d71d451868c1e5a110144403ac3803bfe2e3fe564e8af0b59d",
        "scriptpubkey_type": "v1_p2tr",
        "scriptpubkey_address": "bc1pp2paz7prhkvdw829rp5vredpzq2ygqav8qpmlchrletyazhskkws20lc3y",
        "value": 695981
      },
      "scriptsig": "",
      "scriptsig_asm": "",
      "witness": [
        "e647837b782aef4be973c1feff3749115420f5a7a8bbaa6af78784a21cf899f20acd7f4fb97219f488f3c7e2830eab40e28373836d4274c5f19928bb5723aea4"
      ],
      "is_coinbase": false,
      "sequence": 2147483649
    },
    {
      "txid": "b723a12d1d96b585f52658c594fd74450a2bed6684bdb6ef9645c55724120b26",
      "vout": 2,
      "prevout": {
        "scriptpubkey": "51200a83d17823bd98d71d451868c1e5a110144403ac3803bfe2e3fe564e8af0b59d",
        "scriptpubkey_asm": "OP_PUSHNUM_1 OP_PUSHBYTES_32 0a83d17823bd98d71d451868c1e5a110144403ac3803bfe2e3fe564e8af0b59d",
        "scriptpubkey_type": "v1_p2tr",
        "scriptpubkey_address": "bc1pp2paz7prhkvdw829rp5vredpzq2ygqav8qpmlchrletyazhskkws20lc3y",
        "value": 450000
      },
      "scriptsig": "",
      "scriptsig_asm": "",
      "witness": [
        "eceb0b4624764f58f7471e52ba84cf0e3fb1ccb998fa64968d1616c06d1b0f9c2f62f80684c174f00dc719ef947bcab461c264cd1557775e7633c33bd76cd2a6"
      ],
      "is_coinbase": false,
      "sequence": 2147483649
    },
    {
      "txid": "1e94b855771956f26b2ac721c50e1a7c52b7eaa2ee7418d11f61a848cd3db837",
      "vout": 2,
      "prevout": {
        "scriptpubkey": "51200a83d17823bd98d71d451868c1e5a110144403ac3803bfe2e3fe564e8af0b59d",
        "scriptpubkey_asm": "OP_PUSHNUM_1 OP_PUSHBYTES_32 0a83d17823bd98d71d451868c1e5a110144403ac3803bfe2e3fe564e8af0b59d",
        "scriptpubkey_type": "v1_p2tr",
        "scriptpubkey_address": "bc1pp2paz7prhkvdw829rp5vredpzq2ygqav8qpmlchrletyazhskkws20lc3y",
        "value": 440000
      },
      "scriptsig": "",
      "scriptsig_asm": "",
      "witness": [
        "363c001613b787209c637603ae47114f4761b2347d02c198be7b62350112155e34f730e21f5044e27c5be8844214fb7d05c14a010128bd3b2bb9d663238a230c"
      ],
      "is_coinbase": false,
      "sequence": 2147483649
    },
    {
      "txid": "55a35b0351cdf79349b31ecee2c0cf152b08d6f3957b86058e6cb31697104b2a",
      "vout": 20,
      "prevout": {
        "scriptpubkey": "51200a83d17823bd98d71d451868c1e5a110144403ac3803bfe2e3fe564e8af0b59d",
        "scriptpubkey_asm": "OP_PUSHNUM_1 OP_PUSHBYTES_32 0a83d17823bd98d71d451868c1e5a110144403ac3803bfe2e3fe564e8af0b59d",
        "scriptpubkey_type": "v1_p2tr",
        "scriptpubkey_address": "bc1pp2paz7prhkvdw829rp5vredpzq2ygqav8qpmlchrletyazhskkws20lc3y",
        "value": 439000
      },
      "scriptsig": "",
      "scriptsig_asm": "",
      "witness": [
        "f5dc1f8e0c98d0acb9cd3ef1e020dbfcdc56d20124fa8c3a6afb34334aa697f71fb88f34f2b8cf640d6af92b6156256fa98d70b2f4eb3a5b9b52dcabfd6a419b"
      ],
      "is_coinbase": false,
      "sequence": 2147483649
    },
    {
      "txid": "b8679dc477ba1c341348261407c0db1685e147a678292141ffd6410a1a092183",
      "vout": 17,
      "prevout": {
        "scriptpubkey": "51200a83d17823bd98d71d451868c1e5a110144403ac3803bfe2e3fe564e8af0b59d",
        "scriptpubkey_asm": "OP_PUSHNUM_1 OP_PUSHBYTES_32 0a83d17823bd98d71d451868c1e5a110144403ac3803bfe2e3fe564e8af0b59d",
        "scriptpubkey_type": "v1_p2tr",
        "scriptpubkey_address": "bc1pp2paz7prhkvdw829rp5vredpzq2ygqav8qpmlchrletyazhskkws20lc3y",
        "value": 400000
      },
      "scriptsig": "",
      "scriptsig_asm": "",
      "witness": [
        "b94cc33e341e1ae60366b82e73ff4987620edeab59e8ffe611f89a630bda449d304d45143d682a719771322d98156bef95d25b6a20e071f7b58094721edb926b"
      ],
      "is_coinbase": false,
      "sequence": 2147483649
    },
    {
      "txid": "559c895a1ec380492d93b72b4a32a1a97c9b5b0c69f3b1457a24b9acecd03e67",
      "vout": 2,
      "prevout": {
        "scriptpubkey": "51200a83d17823bd98d71d451868c1e5a110144403ac3803bfe2e3fe564e8af0b59d",
        "scriptpubkey_asm": "OP_PUSHNUM_1 OP_PUSHBYTES_32 0a83d17823bd98d71d451868c1e5a110144403ac3803bfe2e3fe564e8af0b59d",
        "scriptpubkey_type": "v1_p2tr",
        "scriptpubkey_address": "bc1pp2paz7prhkvdw829rp5vredpzq2ygqav8qpmlchrletyazhskkws20lc3y",
        "value": 400000
      },
      "scriptsig": "",
      "scriptsig_asm": "",
      "witness": [
        "89a0a1dc1b44179630aa3fc343475e3843366e7b1f4e5c392a5784d0ff9878a01cdfced34ae6372eed1bd39e56aa75862aabe38368e2207c5bb3fa161675a042"
      ],
      "is_coinbase": false,
      "sequence": 2147483649
    },
    {
      "txid": "85100154131d4a3ea1874543ea6734f6f5d4121b0d3618f8140e7f8a0ea4cf85",
      "vout": 4,
      "prevout": {
        "scriptpubkey": "51200a83d17823bd98d71d451868c1e5a110144403ac3803bfe2e3fe564e8af0b59d",
        "scriptpubkey_asm": "OP_PUSHNUM_1 OP_PUSHBYTES_32 0a83d17823bd98d71d451868c1e5a110144403ac3803bfe2e3fe564e8af0b59d",
        "scriptpubkey_type": "v1_p2tr",
        "scriptpubkey_address": "bc1pp2paz7prhkvdw829rp5vredpzq2ygqav8qpmlchrletyazhskkws20lc3y",
        "value": 390000
      },
      "scriptsig": "",
      "scriptsig_asm": "",
      "witness": [
        "d024a4ebf2015f2b0e016ebd66e8167b3f4cfa55d3313fe877e4ca62bf990e6589ca154859f79cd3d10cb968b5c8e2c579ad70d64582135c5976e3e18d2cb1db"
      ],
      "is_coinbase": false,
      "sequence": 2147483649
    }
  ],
  "vout": [
    {
      "scriptpubkey": "00207ff1be145a364a723ef72fcb1fdbdd9c6892f9638b20c8cd26c904f079427523",
      "scriptpubkey_asm": "OP_0 OP_PUSHBYTES_32 7ff1be145a364a723ef72fcb1fdbdd9c6892f9638b20c8cd26c904f079427523",
      "scriptpubkey_type": "v0_p2wsh",
      "scriptpubkey_address": "bc1q0lcmu9z6xe98y0hh9l93lk7an35f97tr3vsv3nfxeyz0q72zw53sngswgf",
      "value": 5000000
    },
    {
      "scriptpubkey": "51200a83d17823bd98d71d451868c1e5a110144403ac3803bfe2e3fe564e8af0b59d",
      "scriptpubkey_asm": "OP_PUSHNUM_1 OP_PUSHBYTES_32 0a83d17823bd98d71d451868c1e5a110144403ac3803bfe2e3fe564e8af0b59d",
      "scriptpubkey_type": "v1_p2tr",
      "scriptpubkey_address": "bc1pp2paz7prhkvdw829rp5vredpzq2ygqav8qpmlchrletyazhskkws20lc3y",
      "value": 175031
    }
  ],
  "size": 954,
  "weight": 2226,
  "fee": 6116,
  "status": {
    "confirmed": true,
    "block_height": 834464,
    "block_hash": "0000000000000000000177a0869a911a2b65c9bdcd5a8bcb02b68f305bee848e",
    "block_time": 1710308296
  },
  "hex": "02000000000108f718b8e7b3f41683d2eaf40ea150510b76ae054bd6c2464e7ca2d76a0b8831ff01000000000100008012b3b5cb85189245ae8fc9197859a4f1e5edfcb94657a0ec2a7a5819d284829a010000000001000080260b122457c54596efb6bd8466ed2b0a4574fd94c55826f585b5961d2da123b702000000000100008037b83dcd48a8611fd11874eea2eab7527c1a0ec521c72a6bf256197755b8941e0200000000010000802a4b109716b36c8e05867b95f3d6082b15cfc0e2ce1eb34993f7cd51035ba3551400000000010000808321091a0a41d6ff41212978a647e18516dbc00714264813341cba77c49d67b8110000000001000080673ed0ecacb9247a45b1f3690c5b9b7ca9a1324a2bb7932d4980c31e5a899c5502000000000100008085cfa40e8a7f0e14f818360d1b12d4f5f63467ea434587a13e4a1d135401108504000000000100008002404b4c00000000002200207ff1be145a364a723ef72fcb1fdbdd9c6892f9638b20c8cd26c904f079427523b7ab0200000000002251200a83d17823bd98d71d451868c1e5a110144403ac3803bfe2e3fe564e8af0b59d014065aed21296c03d58dc93e827fe474f401af4b72eac9b277493295553f278b224b0c428e14494184a1f78a509f97dded3419c6be917e0124a8930f6c8867f50190140e647837b782aef4be973c1feff3749115420f5a7a8bbaa6af78784a21cf899f20acd7f4fb97219f488f3c7e2830eab40e28373836d4274c5f19928bb5723aea40140eceb0b4624764f58f7471e52ba84cf0e3fb1ccb998fa64968d1616c06d1b0f9c2f62f80684c174f00dc719ef947bcab461c264cd1557775e7633c33bd76cd2a60140363c001613b787209c637603ae47114f4761b2347d02c198be7b62350112155e34f730e21f5044e27c5be8844214fb7d05c14a010128bd3b2bb9d663238a230c0140f5dc1f8e0c98d0acb9cd3ef1e020dbfcdc56d20124fa8c3a6afb34334aa697f71fb88f34f2b8cf640d6af92b6156256fa98d70b2f4eb3a5b9b52dcabfd6a419b0140b94cc33e341e1ae60366b82e73ff4987620edeab59e8ffe611f89a630bda449d304d45143d682a719771322d98156bef95d25b6a20e071f7b58094721edb926b014089a0a1dc1b44179630aa3fc343475e3843366e7b1f4e5c392a5784d0ff9878a01cdfced34ae6372eed1bd39e56aa75862aabe38368e2207c5bb3fa161675a0420140d024a4ebf2015f2b0e016ebd66e8167b3f4cfa55d3313fe877e4ca62bf990e6589ca154859f79cd3d10cb968b5c8e2c579ad70d64582135c5976e3e18d2cb1db00000000"
}