{
  "txid": "9c54969821914d00a6b1bbaa887aa505e5b9e198ce805d69893a8c5825713248",
  "version": 1,
  "locktime": 0,
  "vin": [
    {
      "txid": "70e3da6251901fbbfb4432405ea18bf9dc2dc72c1c5d46d81636e135bb960e10",
      "vout": 1,
      "prevout": {
        "scriptpubkey": "001443b55b36e9d78ef8aaafc4062454efeaf76e9834",
        "scriptpubkey_asm": "OP_0 OP_PUSHBYTES_20 43b55b36e9d78ef8aaafc4062454efeaf76e9834",
        "scriptpubkey_type": "v0_p2wpkh",
        "scriptpubkey_address": "bc1qgw64kdhf67803240csrzg480atmkaxp5snq0cm",
        "value": 176661732
      },
      "scriptsig": "",
      "scriptsig_asm": "",
      "witness": [
        "3045022100c849c6e579bc68050b294d87afeff03d6f4f7a406d1b82f276c81e63af56982f022063a98ec8b013ce5441dc90c3ecbe418b98bc5130aa81ef0b085be056d99b4aee01",
        "028fcba32fbf4b47b43ed07eff3967ea787ea52ce4df61268a6495c5eb89fdc988"
      ],
      "is_coinbase": false,
      "sequence": 4294967295
    }
  ],
  "vout": [
    {
      "scriptpubkey": "a9149484f2952dd81ff81c52e876ca1a236465285ec287",
      "scriptpubkey_asm": "OP_HASH160 OP_PUSHBYTES_20 9484f2952dd81ff81c52e876ca1a236465285ec2 OP_EQUAL",
      "scriptpubkey_type": "p2sh",
      "scriptpubkey_address": "3FEKCJ4rmanNvViiBwjn8TvbnrYcM6Truu",
      "value": 3757351
    },
    {
      "scriptpubkey": "001443b55b36e9d78ef8aaafc4062454efeaf76e9834",
      "scriptpubkey_asm": "OP_0 OP_PUSHBYTES_20 43b55b36e9d78ef8aaafc4062454efeaf76e9834",
      "scriptpubkey_type": "v0_p2wpkh",
      "scriptpubkey_address": "bc1qgw64kdhf67803240csrzg480atmkaxp5snq0cm",
      "value": 172902166
    }
  ],
  "size": 224,
  "weight": 566,
  "fee": 2215,
  "status": {
    "confirmed": true,
    "block_height": 834638,
    "block_hash": "000000000000000000025f742c626208ac87e0b7d15054abb4a19ca2d735a54e",
    "block_time": 1710405325
  },
  "hex": "01000000000101100e96bb35e13616d8465d1c2cc72ddcf98ba15e403244fbbb1f905162dae3700100000000ffffffff02275539000000000017a9149484f2952dd81ff81c52e876ca1a236465285ec28716474e0a0000000016001443b55b36e9d78ef8aaafc4062454efeaf76e983402483045022100c849c6e579bc68050b294d87afeff03d6f4f7a406d1b82f276c81e63af56982f022063a98ec8b013ce5441dc90c3ecbe418b98bc5130aa81ef0b085be056d99b4aee0121028fcba32fbf4b47b43ed07eff3967ea787ea52ce4df61268a6495c5eb89fdc98800000000"
}