{
  "txid": "9cc491797d5fa756094e953f824ef09d21f7db694e6ca95b44429e58ea9cc1e5",
  "version": 1,
  "locktime": 0,
  "vin": [
    {
      "txid": "cfb95ccd374712dad5c6b0b8b60d1e3852e3a28a060328cb324e8c8dba088a53",
      "vout": 0,
      "prevout": {
        "scriptpubkey": "5120a81d666bcb195debec628aa65f946c61086d7eb332ba62f4558d17586b4359ea",
        "scriptpubkey_asm": "OP_PUSHNUM_1 OP_PUSHBYTES_32 a81d666bcb195debec628aa65f946c61086d7eb332ba62f4558d17586b4359ea",
        "scriptpubkey_type": "v1_p2tr",
        "scriptpubkey_address": "bc1p4qwkv67tr9w7hmrz32n9l9rvvyyx6l4nx2ax9az435t4s66rt84qny89vr",
        "value": 14987
      },
      "scriptsig": "",
      "scriptsig_asm": "",
      "witness": [
        "4ec09a5b5c4bc563b6523336ce6369a2e7cf9aa418a0eb7a7bb58ebd91d07cff4bd65bc9e35da594b87b69181aa15a292332d9d6b41bb71071468a302b17b62701"
      ],
      "is_coinbase": false,
      "sequence": 4294967295
    },
    {
      "txid": "cf0a3f309cd45a69cae00d05a6cb782b866d6b9bc36fa178dd193b7149faa083",
      "vout": 0,
      "prevout": {
        "scriptpubkey": "5120332db570a6f936d145fb3f40284f031df2118a71f0854b467a3e5b5964329895",
        "scriptpubkey_asm": "OP_PUSHNUM_1 OP_PUSHBYTES_32 332db570a6f936d145fb3f40284f031df2118a71f0854b467a3e5b5964329895",
        "scriptpubkey_type": "v1_p2tr",
        "scriptpubkey_address": "bc1pxvkm2u9xlymdz30m8aqzsncrrheprzn37zz5k3n68ed4jepjnz2s8nmmqx",
        "value": 13897
      },
      "scriptsig": "",
      "scriptsig_asm": "",
      "witness": [
        "7b67f2bc11fab414235dd452ba80c8fb5762385623d3be7ed92b1d65345024c7260b1ec99b331bb6774fa94666b165951ee8cd693f52e17aa9e36acb7485f78a01"
      ],
      "is_coinbase": false,
      "sequence": 4294967295
    }
  ],
  "vout": [
    {
      "scriptpubkey": "5120e86be055a7dfb77c56183700101971a1b5665be475a1fbc97789bebd816e36a4",
      "scriptpubkey_asm": "OP_PUSHNUM_1 OP_PUSHBYTES_32 e86be055a7dfb77c56183700101971a1b5665be475a1fbc97789bebd816e36a4",
      "scriptpubkey_type": "v1_p2tr",
      "scriptpubkey_address": "bc1pap47q4d8m7mhc4scxuqpqxt35x6kvklywkslhjth3xltmqtwx6jq75y389",
      "value": 1741
    },
    {
      "scriptpubkey": "0020b6196333007747960b685ec25fcbd73dff157b266754796504bcf71909fc2847",
      "scriptpubkey_asm": "OP_0 OP_PUSHBYTES_32 b6196333007747960b685ec25fcbd73dff157b266754796504bcf71909fc2847",
      "scriptpubkey_type": "v0_p2wsh",
      "scriptpubkey_address": "bc1qkcvkxvcqwarevzmgtmp9lj7h8hl327exva28jegyhnm3jz0u9prsy322q3",
      "value": 23080
    }
  ],
  "size": 314,
  "weight": 848,
  "fee": 4063,
  "status": {
    "confirmed": true,
    "block_height": 834552,
    "block_hash": "00000000000000000001dd0468a70c94f619251d286585cff57aeb4bd9ede330",
    "block_time": 1710355598
  },
  "hex": "01000000000102538a08ba8d8c4e32cb2803068aa2e352381e0db6b8b0c6d5da124737cd5cb9cf0000000000ffffffff83a0fa49713b19dd78a16fc39b6b6d862b78cba6050de0ca695ad49c303f0acf0000000000ffffffff02cd06000000000000225120e86be055a7dfb77c56183700101971a1b5665be475a1fbc97789bebd816e36a4285a000000000000220020b6196333007747960b685ec25fcbd73dff157b266754796504bcf71909fc284701414ec09a5b5c4bc563b6523336ce6369a2e7cf9aa418a0eb7a7bb58ebd91d07cff4bd65bc9e35da594b87b69181aa15a292332d9d6b41bb71071468a302b17b6270101417b67f2bc11fab414235dd452ba80c8fb5762385623d3be7ed92b1d65345024c7260b1ec99b331bb6774fa94666b165951ee8cd693f52e17aa9e36acb7485f78a0100000000"
}