{
  "txid": "9ccee83d9e69450642afc7ae9a29babae7fc0685f3cd6b9107755e756a1fc3de",
  "version": 2,
  "locktime": 0,
  "vin": [
    {
      "txid": "fa497f7c3e397a55e12588819faae45e358668c4937f083f608886edf177ffb8",
      "vout": 9,
      "prevout": {
        "scriptpubkey": "0014e7c508947214fb6cbc617b57cdcb8d48bbdcab2d",
        "scriptpubkey_asm": "OP_0 OP_PUSHBYTES_20 e7c508947214fb6cbc617b57cdcb8d48bbdcab2d",
        "scriptpubkey_type": "v0_p2wpkh",
        "scriptpubkey_address": "bc1qulzs39rjznake0rp0dtumjudfzaae2edakalwy",
        "value": 54275
      },
      "scriptsig": "",
      "scriptsig_asm": "",
      "witness": [
        "3045022100e1c5ce526e1e297f6c31142721c185040583639e2833d212951b046f3d44d0ae0220677561ba15362955863ebfa09b010068185cb42e962304770006a2518586683101",
        "029712698865520a334597947f0c37592b3dcecf467db89defdd87fe0e813f8c46"
      ],
      "is_coinbase": false,
      "sequence": 4294967295
    },
    {
      "txid": "f029c7f479003638a743698b89d99a482d472828b971d268c762fb4fdc76cd78",
      "vout": 145,
      "prevout": {
        "scriptpubkey": "0014e1809e5c9e9072eaa8997a29aceb4c08800ab9e2",
        "scriptpubkey_asm": "OP_0 OP_PUSHBYTES_20 e1809e5c9e9072eaa8997a29aceb4c08800ab9e2",
        "scriptpubkey_type": "v0_p2wpkh",
        "scriptpubkey_address": "bc1quxqfuhy7jpew42ye0g56e66vpzqq4w0z8fxrd2",
        "value": 113605
      },
      "scriptsig": "",
      "scriptsig_asm": "",
      "witness": [
        "3045022100e6edb2134a241c5a448d9eb30a2484add164d5b44a1de8320cf340cd66992e6f022022e231514082fdc35d647c73da0f1583cff733c5e18146f7b6db525b80928d0001",
        "03972653eaff02e948d19d60c92ac6a1ad219536cdcfe6dbb2a9a5421d33178612"
      ],
      "is_coinbase": false,
      "sequence": 4294967295
    },
    {
      "txid": "10bc2f43e3af771df2b851859af2b8c024324980c0e1bd7f086f6b25bc7be386",
      "vout": 143,
      "prevout": {
        "scriptpubkey": "001478cf626c942e9117b77e656535dfbc915a0bb08a",
        "scriptpubkey_asm": "OP_0 OP_PUSHBYTES_20 78cf626c942e9117b77e656535dfbc915a0bb08a",
        "scriptpubkey_type": "v0_p2wpkh",
        "scriptpubkey_address": "bc1q0r8kymy596g30dm7v4jnthauj9dqhvy2f0dx9u",
        "value": 133936
      },
      "scriptsig": "",
      "scriptsig_asm": "",
      "witness": [
        "3045022100efa2cdb92a886e807ed8ed68b7f52219232d9153349be18577154528fa5f1de2022046f7600c9dc82ffeff3471d15cd9a3a4984acec82450ea04ea684705ef08d67901",
        "030075fb760edbcd226017d4e35044f2100f29c5a68e3c929c9effab2c6e90b912"
      ],
      "is_coinbase": false,
      "sequence": 4294967295
    },
    {
      "txid": "83561139f8a7be470be84b0b066b58ce8c8d7f2756dab9d2ed0b826b8093cca4",
      "vout": 0,
      "prevout": {
        "scriptpubkey": "0014bf8b5115e84366a9522915028f2de5f9e208472e",
        "scriptpubkey_asm": "OP_0 OP_PUSHBYTES_20 bf8b5115e84366a9522915028f2de5f9e208472e",
        "scriptpubkey_type": "v0_p2wpkh",
        "scriptpubkey_address": "bc1qh794z90ggdn2j53fz5pg7t09l83qs3ewnv7znk",
        "value": 61155
      },
      "scriptsig": "",
      "scriptsig_asm": "",
      "witness": [
        "3045022100bd92277f0bef1e372d8c8f95f8a0634681bce661c72d5b221d53b86e40f881e4022072c2e67a3377ac9ec3aa27c9f5bc299f4700a2b6c5b191629563d4f28e08c87a01",
        "0221bfa8d8bbf885dd0f01fc93ff6b8cab9005a8492d07d18b6471a03161961198"
      ],
      "is_coinbase": false,
      "sequence": 4294967295
    },
    {
      "txid": "e30d075b6807df2a2a1b57b030f6682f3bfa01db50087ecdd2159c36ac8b7c03",
      "vout": 0,
      "prevout": {
        "scriptpubkey": "0014e511b70cb26db37e1a5a894806099ded6f7907fc",
        "scriptpubkey_asm": "OP_0 OP_PUSHBYTES_20 e511b70cb26db37e1a5a894806099ded6f7907fc",
        "scriptpubkey_type": "v0_p2wpkh",
        "scriptpubkey_address": "bc1qu5gmwr9jdkehuxj639yqvzvaa4hhjplujl0uj8",
        "value": 1165200
      },
      "scriptsig": "",
      "scriptsig_asm": "",
      "witness": [
        "304502210093232cc2030b8eb270da4eb1e4e845a365159662d2e37cb71a7b2b0ac3424faf02201e4cdb6413c94a54858c9cd331da6223d52641d8fe174bc0536a49965f34c1c801",
        "035b7bf86e3abdf09c3724011672a24124b3ae05e4da62dc4c3b48ceb99c7accb4"
      ],
      "is_coinbase": false,
      "sequence": 4294967295
    },
    {
      "txid": "4ba4bf7d264f8ec65902e8d9b1ecb5104b201895defb4c815ccc23811cf4f3a2",
      "vout": 0,
      "prevout": {
        "scriptpubkey": "0014cc52ca7946f481d17f9bf7411fafd63ae98cbd03",
        "scriptpubkey_asm": "OP_0 OP_PUSHBYTES_20 cc52ca7946f481d17f9bf7411fafd63ae98cbd03",
        "scriptpubkey_type": "v0_p2wpkh",
        "scriptpubkey_address": "bc1qe3fv572x7jqazlum7aq3lt7k8t5ce0grgptcl7",
        "value": 695388
      },
      "scriptsig": "",
      "scriptsig_asm": "",
      "witness": [
        "3045022100ada82df43e9f7ed5b9bb1e2b60118965655b9858762020e1ce1999bb99f0fdb502204545e14b067d1bcf592092106af7855a59f2ca2109ab05ea639f39e29266079a01",
        "03a5625477f76b297158cb1afd4254d211d936ad75eb4a16cc7298b348bc3cb333"
      ],
      "is_coinbase": false,
      "sequence": 4294967295
    }
  ],
  "vout": [
    {
      "scriptpubkey": "0014f45f361dacbd5be76dfa673792ce7da9017edfbe",
      "scriptpubkey_asm": "OP_0 OP_PUSHBYTES_20 f45f361dacbd5be76dfa673792ce7da9017edfbe",
      "scriptpubkey_type": "v0_p2wpkh",
      "scriptpubkey_address": "bc1q730nv8dvh4d7wm06vume9nna4yqhaha7cmehjr",
      "value": 611358
    },
    {
      "scriptpubkey": "76a91469cc3a0cb152d87e45e03b9cfa2001a7ea8b8e5d88ac",
      "scriptpubkey_asm": "OP_DUP OP_HASH160 OP_PUSHBYTES_20 69cc3a0cb152d87e45e03b9cfa2001a7ea8b8e5d OP_EQUALVERIFY OP_CHECKSIG",
      "scriptpubkey_type": "p2pkh",
      "scriptpubkey_address": "1AeQc4pxKuCjkhSbQKjtivcw9C9Yfr4MyG",
      "value": 1604920
    }
  ],
  "size": 971,
  "weight": 1934,
  "fee": 7281,
  "status": {
    "confirmed": true,
    "block_height": 834460,
    "block_hash": "00000000000000000000484a79b643b2524bbce82e5d8a442013fa5b8905ed98",
    "block_time": 1710307468
  },
  "hex": "02000000000106b8ff77f1ed8688603f087f93c46886355ee4aa9f818825e1557a393e7c7f49fa0900000000ffffffff78cd76dc4ffb62c768d271b92828472d489ad9898b6943a738360079f4c729f09100000000ffffffff86e37bbc256b6f087fbde1c080493224c0b8f29a8551b8f21d77afe3432fbc108f00000000ffffffffa4cc93806b820bedd2b9da56277f8d8cce586b060b4be80b47bea7f8391156830000000000ffffffff037c8bac369c15d2cd7e0850db01fa3b2f68f630b0571b2a2adf07685b070de30000000000ffffffffa2f3f41c8123cc5c814cfbde9518204b10b5ecb1d9e80259c68e4f267dbfa44b0000000000ffffffff021e54090000000000160014f45f361dacbd5be76dfa673792ce7da9017edfbe387d1800000000001976a91469cc3a0cb152d87e45e03b9cfa2001a7ea8b8e5d88ac02483045022100e1c5ce526e1e297f6c31142721c185040583639e2833d212951b046f3d44d0ae0220677561ba15362955863ebfa09b010068185cb42e962304770006a251858668310121029712698865520a334597947f0c37592b3dcecf467db89defdd87fe0e813f8c4602483045022100e6edb2134a241c5a448d9eb30a2484add164d5b44a1de8320cf340cd66992e6f022022e231514082fdc35d647c73da0f1583cff733c5e18146f7b6db525b80928d00012103972653eaff02e948d19d60c92ac6a1ad219536cdcfe6dbb2a9a5421d3317861202483045022100efa2cdb92a886e807ed8ed68b7f52219232d9153349be18577154528fa5f1de2022046f7600c9dc82ffeff3471d15cd9a3a4984acec82450ea04ea684705ef08d6790121030075fb760edbcd226017d4e35044f2100f29c5a68e3c929c9effab2c6e90b91202483045022100bd92277f0bef1e372d8c8f95f8a0634681bce661c72d5b221d53b86e40f881e4022072c2e67a3377ac9ec3aa27c9f5bc299f4700a2b6c5b191629563d4f28e08c87a01210221bfa8d8bbf885dd0f01fc93ff6b8cab9005a8492d07d18b6471a031619611980248304502210093232cc2030b8eb270da4eb1e4e845a365159662d2e37cb71a7b2b0ac3424faf02201e4cdb6413c94a54858c9cd331da6223d52641d8fe174bc0536a49965f34c1c80121035b7bf86e3abdf09c3724011672a24124b3ae05e4da62dc4c3b48ceb99c7accb402483045022100ada82df43e9f7ed5b9bb1e2b60118965655b9858762020e1ce1999bb99f0fdb502204545e14b067d1bcf592092106af7855a59f2ca2109ab05ea639f39e29266079a012103a5625477f76b297158cb1afd4254d211d936ad75eb4a16cc7298b348bc3cb33300000000"
}