{
  "txid": "9cce800c65bf76f69e573e3c88d7cd99c0ff058b3d6e15f220ec784e8c0bdfdb",
  "version": 1,
  "locktime": 0,
  "vin": [
    {
      "txid": "48e83b3c54a50de96699e09fae1bb2af873e56aaa75a8faa36d84862ab36110a",
      "vout": 0,
      "prevout": {
        "scriptpubkey": "76a9141abb5e5c2771372a4a49bad3b28ab459075d030e88ac",
        "scriptpubkey_asm": "OP_DUP OP_HASH160 OP_PUSHBYTES_20 1abb5e5c2771372a4a49bad3b28ab459075d030e OP_EQUALVERIFY OP_CHECKSIG",
        "scriptpubkey_type": "p2pkh",
        "scriptpubkey_address": "13SM2ayKzqAiLAi4cCK9jw13a4sLPWXTGf",
        "value": 1297826
      },
      "scriptsig": "483045022100b6154183d994f33f59e2a4974ddd71193e09d58c24f68078a04a4c1199ffa02e02203803efc0f645ec461392aee14e7265fa6bf459d10369c74933c6d48557cf68f90121027631aed066cdb55905c198a453248ad74708d7ce97a34e99818c5c8cdf9661bc",
      "scriptsig_asm": "OP_PUSHBYTES_72 3045022100b6154183d994f33f59e2a4974ddd71193e09d58c24f68078a04a4c1199ffa02e02203803efc0f645ec461392aee14e7265fa6bf459d10369c74933c6d48557cf68f901 OP_PUSHBYTES_33 027631aed066cdb55905c198a453248ad74708d7ce97a34e99818c5c8cdf9661bc",
      "is_coinbase": false,
      "sequence": 4294967295
    },
    {
      "txid": "443132de061648ceec925dcccd444b657294789837382164f040e86ad92a1755",
      "vout": 0,
      "prevout": {
        "scriptpubkey": "76a9141abb5e5c2771372a4a49bad3b28ab459075d030e88ac",
        "scriptpubkey_asm": "OP_DUP OP_HASH160 OP_PUSHBYTES_20 1abb5e5c2771372a4a49bad3b28ab459075d030e OP_EQUALVERIFY OP_CHECKSIG",
        "scriptpubkey_type": "p2pkh",
        "scriptpubkey_address": "13SM2ayKzqAiLAi4cCK9jw13a4sLPWXTGf",
        "value": 2594770
      },
      "scriptsig": "483045022100a9053c4b0f475a4e301da36b0730f99520c427439dedb4e16b73f84687c91bfb02202cf72715003591e8b25c5ccd80ae49e07965493c5901be80c6d2abc9e2d99e3c0121027631aed066cdb55905c198a453248ad74708d7ce97a34e99818c5c8cdf9661bc",
      "scriptsig_asm": "OP_PUSHBYTES_72 3045022100a9053c4b0f475a4e301da36b0730f99520c427439dedb4e16b73f84687c91bfb02202cf72715003591e8b25c5ccd80ae49e07965493c5901be80c6d2abc9e2d99e3c01 OP_PUSHBYTES_33 027631aed066cdb55905c198a453248ad74708d7ce97a34e99818c5c8cdf9661bc",
      "is_coinbase": false,
      "sequence": 4294967295
    }
  ],
  "vout": [
    {
      "scriptpubkey": "a91490603e851bf1de56f32e07334047a6667a09f51387",
      "scriptpubkey_asm": "OP_HASH160 OP_PUSHBYTES_20 90603e851bf1de56f32e07334047a6667a09f513 OP_EQUAL",
      "scriptpubkey_type": "p2sh",
      "scriptpubkey_address": "3ErQXLG3e1YrgUKdvVD6ofJoBKaJAGpYRS",
      "value": 3884776
    }
  ],
  "size": 338,
  "weight": 1352,
  "fee": 7820,
  "status": {
    "confirmed": true,
    "block_height": 834638,
    "block_hash": "000000000000000000025f742c626208ac87e0b7d15054abb4a19ca2d735a54e",
    "block_time": 1710405325
  },
  "hex": "01000000020a1136ab6248d836aa8f5aa7aa563e87afb21bae9fe09966e90da5543c3be848000000006b483045022100b6154183d994f33f59e2a4974ddd71193e09d58c24f68078a04a4c1199ffa02e02203803efc0f645ec461392aee14e7265fa6bf459d10369c74933c6d48557cf68f90121027631aed066cdb55905c198a453248ad74708d7ce97a34e99818c5c8cdf9661bcffffffff55172ad96ae840f06421383798789472654b44cdcc5d92ecce481606de323144000000006b483045022100a9053c4b0f475a4e301da36b0730f99520c427439dedb4e16b73f84687c91bfb02202cf72715003591e8b25c5ccd80ae49e07965493c5901be80c6d2abc9e2d99e3c0121027631aed066cdb55905c198a453248ad74708d7ce97a34e99818c5c8cdf9661bcffffffff01e8463b000000000017a91490603e851bf1de56f32e07334047a6667a09f5138700000000"
}