{
  "txid": "9cee2d55ea102faecae5a88a54124cdc8ef445bf1ca81c5dfd3be73653269952",
  "version": 2,
  "locktime": 834637,
  "vin": [
    {
      "txid": "d4956c0e29270ce7bfd33fa2f4cfce1ed0a29be6daaa9ef0b25815d84960b83f",
      "vout": 0,
      "prevout": {
        "scriptpubkey": "0014f9e934b05b4caa70599ebd99ba7b6feddf9c65ae",
        "scriptpubkey_asm": "OP_0 OP_PUSHBYTES_20 f9e934b05b4caa70599ebd99ba7b6feddf9c65ae",
        "scriptpubkey_type": "v0_p2wpkh",
        "scriptpubkey_address": "bc1ql85nfvzmfj48qkv7hkvm57m0ah0ecedwa2wcey",
        "value": 399996700
      },
      "scriptsig": "",
      "scriptsig_asm": "",
      "witness": [
        "304402207191a10bdc3244a078a0a591cb05815f03171eedff24d994783cc795ae088d4102201cf069703d830fcc916a10c7c340f2e9807efd6c1f3e9c61371ddcdd848b482901",
        "03210417b938913470beded0755f300bb65f25bd8ad5fa0530d483d72ddffe6484"
      ],
      "is_coinbase": false,
      "sequence": 4294967293
    }
  ],
  "vout": [
    {
      "scriptpubkey": "a91411febabba9c2791bb4fb06749a102c9eb054cff287",
      "scriptpubkey_asm": "OP_HASH160 OP_PUSHBYTES_20 11febabba9c2791bb4fb06749a102c9eb054cff2 OP_EQUAL",
      "scriptpubkey_type": "p2sh",
      "scriptpubkey_address": "33LAZiTn3pZNumXz9DZEryCiGbjn4qqu18",
      "value": 80000000
    },
    {
      "scriptpubkey": "001444a644112cd4862a7dd352a9d920e44122262be8",
      "scriptpubkey_asm": "OP_0 OP_PUSHBYTES_20 44a644112cd4862a7dd352a9d920e44122262be8",
      "scriptpubkey_type": "v0_p2wpkh",
      "scriptpubkey_address": "bc1qgjnygyfv6jrz5lwn225ajg8ygy3zv2lgqwf8q4",
      "value": 319992400
    }
  ],
  "size": 223,
  "weight": 565,
  "fee": 4300,
  "status": {
    "confirmed": true,
    "block_height": 834638,
    "block_hash": "000000000000000000025f742c626208ac87e0b7d15054abb4a19ca2d735a54e",
    "block_time": 1710405325
  },
  "hex": "020000000001013fb86049d81558b2f09eaadae69ba2d01ececff4a23fd3bfe70c27290e6c95d40000000000fdffffff0200b4c4040000000017a91411febabba9c2791bb4fb06749a102c9eb054cff28750b212130000000016001444a644112cd4862a7dd352a9d920e44122262be80247304402207191a10bdc3244a078a0a591cb05815f03171eedff24d994783cc795ae088d4102201cf069703d830fcc916a10c7c340f2e9807efd6c1f3e9c61371ddcdd848b4829012103210417b938913470beded0755f300bb65f25bd8ad5fa0530d483d72ddffe64844dbc0c00"
}