{
  "txid": "9cf398dc78d55ad7f0032dd2740e4928a50a8bb2397733dcc367bc6496c8de2e",
  "version": 1,
  "locktime": 0,
  "vin": [
    {
      "txid": "75d4c105db60224d66a6fb7aff0d74ad17eaf41f9f12d36ea307c02580e773c7",
      "vout": 0,
      "prevout": {
        "scriptpubkey": "00149cf27f2f5344ab99064aa8ec5dfe6835bab6a156",
        "scriptpubkey_asm": "OP_0 OP_PUSHBYTES_20 9cf27f2f5344ab99064aa8ec5dfe6835bab6a156",
        "scriptpubkey_type": "v0_p2wpkh",
        "scriptpubkey_address": "bc1qnne87t6ngj4ejpj24rk9mlngxkatdg2kq9n8n7",
        "value": 125578
      },
      "scriptsig": "",
      "scriptsig_asm": "",
      "witness": [
        "3045022100e75e073f761016ff2a9c5a9ac39a28893510f633a9b75d29ab378416bf0628a602201200781ea6fb8f835d7db20c31b59255af9338b33ab530b9fbc5160eaaccbb3b01",
        "03a296637bb9530275ddd24145bb6f73eaec982e97da058710b24ef8a19afcbec0"
      ],
      "is_coinbase": false,
      "sequence": 4294967295
    },
    {
      "txid": "c9bd32d8f27045f074c7debbe592c7940e64a43fd428bc9b35ae7cf3b5640036",
      "vout": 0,
      "prevout": {
        "scriptpubkey": "00148f7317ebb511684a2c1385c0c646bee7b1123066",
        "scriptpubkey_asm": "OP_0 OP_PUSHBYTES_20 8f7317ebb511684a2c1385c0c646bee7b1123066",
        "scriptpubkey_type": "v0_p2wpkh",
        "scriptpubkey_address": "bc1q3ae306a4z95y5tqnshqvv347u7c3yvrxr3wu2e",
        "value": 137740
      },
      "scriptsig": "",
      "scriptsig_asm": "",
      "witness": [
        "30440220098c271dc7cc87946d555017285fe91b0045aa01288764844fb06547770fa024022010a4956c628ec7cfde204e5c1eac04d1dc6bc6c3d46546758a24e3c9d79c896f01",
        "03f59092746d48eff2ea7022306b484ad2d31c386c6a621217d0cbdebd963b669c"
      ],
      "is_coinbase": false,
      "sequence": 4294967295
    },
    {
      "txid": "85a32fd23b71af12a09dc3e66404613fa11c22fd026ce8958193a4565c3bdcbf",
      "vout": 0,
      "prevout": {
        "scriptpubkey": "00149cf27f2f5344ab99064aa8ec5dfe6835bab6a156",
        "scriptpubkey_asm": "OP_0 OP_PUSHBYTES_20 9cf27f2f5344ab99064aa8ec5dfe6835bab6a156",
        "scriptpubkey_type": "v0_p2wpkh",
        "scriptpubkey_address": "bc1qnne87t6ngj4ejpj24rk9mlngxkatdg2kq9n8n7",
        "value": 100980
      },
      "scriptsig": "",
      "scriptsig_asm": "",
      "witness": [
        "304402207805c2577443b92e274cf51ea58f7d84010528bd26f4414f21a2b020a0bfe8e20220463a8707d4b3830816cd376fccc5a309c1f22fead75605809335b4ccc40d13dc01",
        "03a296637bb9530275ddd24145bb6f73eaec982e97da058710b24ef8a19afcbec0"
      ],
      "is_coinbase": false,
      "sequence": 4294967295
    },
    {
      "txid": "4bb89445e654b946233ec5068a78639fb57f1a95495563a897c133d1e46c23a3",
      "vout": 1,
      "prevout": {
        "scriptpubkey": "00149cf27f2f5344ab99064aa8ec5dfe6835bab6a156",
        "scriptpubkey_asm": "OP_0 OP_PUSHBYTES_20 9cf27f2f5344ab99064aa8ec5dfe6835bab6a156",
        "scriptpubkey_type": "v0_p2wpkh",
        "scriptpubkey_address": "bc1qnne87t6ngj4ejpj24rk9mlngxkatdg2kq9n8n7",
        "value": 84900
      },
      "scriptsig": "",
      "scriptsig_asm": "",
      "witness": [
        "3044022026aac62dbadc44e5cebf88edc6b4308e494888b5b1fbc42819812b37390f069e02205c1fe5ddf6d5221ecca46cd5b602cef8478c492b5bfadbe2a047f0c38a56a23a01",
        "03a296637bb9530275ddd24145bb6f73eaec982e97da058710b24ef8a19afcbec0"
      ],
      "is_coinbase": false,
      "sequence": 4294967295
    },
    {
      "txid": "acdd8e89d84979ec972961dbcc01481e6d6c63809c84b29514c37943537de072",
      "vout": 1,
      "prevout": {
        "scriptpubkey": "0014954079b607a755610ae63a1421469553bdb7a19d",
        "scriptpubkey_asm": "OP_0 OP_PUSHBYTES_20 954079b607a755610ae63a1421469553bdb7a19d",
        "scriptpubkey_type": "v0_p2wpkh",
        "scriptpubkey_address": "bc1qj4q8nds85a2kzzhx8g2zz3542w7m0gva9a4a6a",
        "value": 3605
      },
      "scriptsig": "",
      "scriptsig_asm": "",
      "witness": [
        "304402201b8c01de52a889b37f3aa9cd7a4d5fd4805da49616487f68e110731787656a3502205f179a3e5cb4962f8287ca2582079c700b68d4448aec7c8d1990df3556abdb2e01",
        "032f6083815a57b8ec17e9d23133e58f6bd4112f664cb799df6d55ecd1230857ee"
      ],
      "is_coinbase": false,
      "sequence": 4294967295
    },
    {
      "txid": "de5150b281c83fa3d8c3e810eab07a096ec671b11ffb9ea6cc50c994a78623cc",
      "vout": 0,
      "prevout": {
        "scriptpubkey": "0014b6075a5611fab0165d422e25f3af78b417518b69",
        "scriptpubkey_asm": "OP_0 OP_PUSHBYTES_20 b6075a5611fab0165d422e25f3af78b417518b69",
        "scriptpubkey_type": "v0_p2wpkh",
        "scriptpubkey_address": "bc1qkcr454s3l2cpvh2z9cjl8tmckst4rzmf3mkp89",
        "value": 317534
      },
      "scriptsig": "",
      "scriptsig_asm": "",
      "witness": [
        "3044022043dadce0a072522dae5e837051f996286b7dd3a4d750d23ec3329d30edb86e8402200407c4e4fc8a7473fa0a91d07b82789e1ae0808b472cf3b8de1ba773f4bd52a501",
        "0299916ca181e9e3b0efa1cfa5a5fe23b2497cb3e276a5158c3899f624f30d22d5"
      ],
      "is_coinbase": false,
      "sequence": 4294967295
    },
    {
      "txid": "177d81b47568a4776a5d531ff43fa97b7b85c361690dc90e261746aadb479313",
      "vout": 0,
      "prevout": {
        "scriptpubkey": "0014f948ab735bd862bbe5143845ed2dbc6d23fc68bc",
        "scriptpubkey_asm": "OP_0 OP_PUSHBYTES_20 f948ab735bd862bbe5143845ed2dbc6d23fc68bc",
        "scriptpubkey_type": "v0_p2wpkh",
        "scriptpubkey_address": "bc1ql9y2ku6mmp3theg58pz76tdud53lc69uw68d62",
        "value": 80009
      },
      "scriptsig": "",
      "scriptsig_asm": "",
      "witness": [
        "3045022100887c63bd5546074c575e6f7b60a4816595a6cf25bffd8e4ef195655f37204ca802200c5c2564d7f27738475fe38d9f9b0c96f685870aedc319caaaa9b74e3f2c5c1901",
        "0319ccd0ce03fb79825db4a40680fdfdce7128b85aa23d8274224d99e8e2f0437a"
      ],
      "is_coinbase": false,
      "sequence": 4294967295
    }
  ],
  "vout": [
    {
      "scriptpubkey": "0014c03f99423f9ec26dae057a6ac1ab7772cf48e1f5",
      "scriptpubkey_asm": "OP_0 OP_PUSHBYTES_20 c03f99423f9ec26dae057a6ac1ab7772cf48e1f5",
      "scriptpubkey_type": "v0_p2wpkh",
      "scriptpubkey_address": "bc1qcqlejs3lnmpxmts90f4vr2mhwt853c04hme476",
      "value": 749832
    },
    {
      "scriptpubkey": "001416d45c952c09d8677e125a93b7b99fa6bf5a9a39",
      "scriptpubkey_asm": "OP_0 OP_PUSHBYTES_20 16d45c952c09d8677e125a93b7b99fa6bf5a9a39",
      "scriptpubkey_type": "v0_p2wpkh",
      "scriptpubkey_address": "bc1qzm29e9fvp8vxwlsjt2fm0wvl56l44x3enp3h6r",
      "value": 92204
    }
  ],
  "size": 1112,
  "weight": 2189,
  "fee": 8310,
  "status": {
    "confirmed": true,
    "block_height": 834638,
    "block_hash": "000000000000000000025f742c626208ac87e0b7d15054abb4a19ca2d735a54e",
    "block_time": 1710405325
  },
  "hex": "01000000000107c773e78025c007a36ed3129f1ff4ea17ad740dff7afba6664d2260db05c1d4750000000000ffffffff360064b5f37cae359bbc28d43fa4640e94c792e5bbdec774f04570f2d832bdc90000000000ffffffffbfdc3b5c56a4938195e86c02fd221ca13f610464e6c39da012af713bd22fa3850000000000ffffffffa3236ce4d133c197a8635549951a7fb59f63788a06c53e2346b954e64594b84b0100000000ffffffff72e07d534379c31495b2849c80636c6d1e4801ccdb612997ec7949d8898eddac0100000000ffffffffcc2386a794c950cca69efb1fb171c66e097ab0ea10e8c3d8a33fc881b25051de0000000000ffffffff139347dbaa4617260ec90d6961c3857b7ba93ff41f535d6a77a46875b4817d170000000000ffffffff0208710b0000000000160014c03f99423f9ec26dae057a6ac1ab7772cf48e1f52c6801000000000016001416d45c952c09d8677e125a93b7b99fa6bf5a9a3902483045022100e75e073f761016ff2a9c5a9ac39a28893510f633a9b75d29ab378416bf0628a602201200781ea6fb8f835d7db20c31b59255af9338b33ab530b9fbc5160eaaccbb3b012103a296637bb9530275ddd24145bb6f73eaec982e97da058710b24ef8a19afcbec0024730440220098c271dc7cc87946d555017285fe91b0045aa01288764844fb06547770fa024022010a4956c628ec7cfde204e5c1eac04d1dc6bc6c3d46546758a24e3c9d79c896f012103f59092746d48eff2ea7022306b484ad2d31c386c6a621217d0cbdebd963b669c0247304402207805c2577443b92e274cf51ea58f7d84010528bd26f4414f21a2b020a0bfe8e20220463a8707d4b3830816cd376fccc5a309c1f22fead75605809335b4ccc40d13dc012103a296637bb9530275ddd24145bb6f73eaec982e97da058710b24ef8a19afcbec002473044022026aac62dbadc44e5cebf88edc6b4308e494888b5b1fbc42819812b37390f069e02205c1fe5ddf6d5221ecca46cd5b602cef8478c492b5bfadbe2a047f0c38a56a23a012103a296637bb9530275ddd24145bb6f73eaec982e97da058710b24ef8a19afcbec00247304402201b8c01de52a889b37f3aa9cd7a4d5fd4805da49616487f68e110731787656a3502205f179a3e5cb4962f8287ca2582079c700b68d4448aec7c8d1990df3556abdb2e0121032f6083815a57b8ec17e9d23133e58f6bd4112f664cb799df6d55ecd1230857ee02473044022043dadce0a072522dae5e837051f996286b7dd3a4d750d23ec3329d30edb86e8402200407c4e4fc8a7473fa0a91d07b82789e1ae0808b472cf3b8de1ba773f4bd52a501210299916ca181e9e3b0efa1cfa5a5fe23b2497cb3e276a5158c3899f624f30d22d502483045022100887c63bd5546074c575e6f7b60a4816595a6cf25bffd8e4ef195655f37204ca802200c5c2564d7f27738475fe38d9f9b0c96f685870aedc319caaaa9b74e3f2c5c1901210319ccd0ce03fb79825db4a40680fdfdce7128b85aa23d8274224d99e8e2f0437a00000000"
}