{
  "txid": "9cf4b1c1f59ee56148b5254972270169a10855bf63d6db39e784777541ce700a",
  "version": 1,
  "locktime": 0,
  "vin": [
    {
      "txid": "d60b7b2937f6a4b5de579754f5af071849896d5aeceba0a83b4d3df7a5da1bc9",
      "vout": 0,
      "prevout": {
        "scriptpubkey": "00145df790dd37cbef3372d533b005c5193df10b1d0b",
        "scriptpubkey_asm": "OP_0 OP_PUSHBYTES_20 5df790dd37cbef3372d533b005c5193df10b1d0b",
        "scriptpubkey_type": "v0_p2wpkh",
        "scriptpubkey_address": "bc1qthmephfhe0hnxuk4xwcqt3ge8hcsk8gtg4mca3",
        "value": 399994320
      },
      "scriptsig": "",
      "scriptsig_asm": "",
      "witness": [
        "30440220440213ad3407d83ed560a456dfb4748dfa186b16b2291f8f1ed891a6afdc9209022079045bd2be475da90459f9bdcc4fabf2bbdda327fc5dd2849963035f646410ce01",
        "0313d4e9a5bee40102087c3f1ce84ab1d0978b7aa88fc9e01d327ab674729b9ba3"
      ],
      "is_coinbase": false,
      "sequence": 4294967295
    }
  ],
  "vout": [
    {
      "scriptpubkey": "00144deef1c28ea940196a92f25698f48376ae44b55a",
      "scriptpubkey_asm": "OP_0 OP_PUSHBYTES_20 4deef1c28ea940196a92f25698f48376ae44b55a",
      "scriptpubkey_type": "v0_p2wpkh",
      "scriptpubkey_address": "bc1qfhh0rs5w49qpj65j7ftf3ayrw6hyfd26vak63r",
      "value": 349991923
    },
    {
      "scriptpubkey": "0014ad44662677c53702c4bcad99f8d804bc2ab0bfe6",
      "scriptpubkey_asm": "OP_0 OP_PUSHBYTES_20 ad44662677c53702c4bcad99f8d804bc2ab0bfe6",
      "scriptpubkey_type": "v0_p2wpkh",
      "scriptpubkey_address": "bc1q44zxvfnhc5ms939u4kvl3kqyhs4tp0lx6w2h0y",
      "value": 50000000
    }
  ],
  "size": 222,
  "weight": 561,
  "fee": 2397,
  "status": {
    "confirmed": true,
    "block_height": 834638,
    "block_hash": "000000000000000000025f742c626208ac87e0b7d15054abb4a19ca2d735a54e",
    "block_time": 1710405325
  },
  "hex": "01000000000101c91bdaa5f73d4d3ba8a0ebec5a6d89491807aff5549757deb5a4f637297b0bd60000000000ffffffff02f373dc14000000001600144deef1c28ea940196a92f25698f48376ae44b55a80f0fa0200000000160014ad44662677c53702c4bcad99f8d804bc2ab0bfe6024730440220440213ad3407d83ed560a456dfb4748dfa186b16b2291f8f1ed891a6afdc9209022079045bd2be475da90459f9bdcc4fabf2bbdda327fc5dd2849963035f646410ce01210313d4e9a5bee40102087c3f1ce84ab1d0978b7aa88fc9e01d327ab674729b9ba300000000"
}