{
  "txid": "9cf543dfa3de324aca1c3df864e025bb978564f44c00adb52edd9e1b05319f65",
  "version": 2,
  "locktime": 834637,
  "vin": [
    {
      "txid": "7054852442e64431b1764b50666194bc04ad70e4a80f29e086b61c5b79e1160f",
      "vout": 1,
      "prevout": {
        "scriptpubkey": "0014ae84e6ad9765c55bdd35c93a98416e948be6fcce",
        "scriptpubkey_asm": "OP_0 OP_PUSHBYTES_20 ae84e6ad9765c55bdd35c93a98416e948be6fcce",
        "scriptpubkey_type": "v0_p2wpkh",
        "scriptpubkey_address": "bc1q46zwdtvhvhz4hhf4eyafsstwjj97dlxwsv9c52",
        "value": 1030558904
      },
      "scriptsig": "",
      "scriptsig_asm": "",
      "witness": [
        "3044022050e447630b05d09bef9d0a64c6a1b74bbb41d9e9ad8a8dbd978c5557f2d762b0022067780764a920ddcd053457c146def37a5c01beb571d537f1dab077604eff215b01",
        "0322d6cdcd5791448184e6d7455a975beff8175d47c4e4a812d60c7f67976c65fc"
      ],
      "is_coinbase": false,
      "sequence": 4294967294
    }
  ],
  "vout": [
    {
      "scriptpubkey": "001431ffc1ec82f6dab715ac204dcbf8e4ce4ca0ebde",
      "scriptpubkey_asm": "OP_0 OP_PUSHBYTES_20 31ffc1ec82f6dab715ac204dcbf8e4ce4ca0ebde",
      "scriptpubkey_type": "v0_p2wpkh",
      "scriptpubkey_address": "bc1qx8lurmyz7mdtw9dvypxuh78yeex2p677z5acu8",
      "value": 1029871730
    },
    {
      "scriptpubkey": "76a9145ddbc6140039bd1b8fc715a0926d5e01f5fe268288ac",
      "scriptpubkey_asm": "OP_DUP OP_HASH160 OP_PUSHBYTES_20 5ddbc6140039bd1b8fc715a0926d5e01f5fe2682 OP_EQUALVERIFY OP_CHECKSIG",
      "scriptpubkey_type": "p2pkh",
      "scriptpubkey_address": "19ZH7zHCgav5PHR8W4FrzkKugyY1jdHoY7",
      "value": 683288
    }
  ],
  "size": 225,
  "weight": 573,
  "fee": 3886,
  "status": {
    "confirmed": true,
    "block_height": 834638,
    "block_hash": "000000000000000000025f742c626208ac87e0b7d15054abb4a19ca2d735a54e",
    "block_time": 1710405325
  },
  "hex": "020000000001010f16e1795b1cb686e0290fa8e470ad04bc946166504b76b13144e642248554700100000000feffffff027298623d0000000016001431ffc1ec82f6dab715ac204dcbf8e4ce4ca0ebde186d0a00000000001976a9145ddbc6140039bd1b8fc715a0926d5e01f5fe268288ac02473044022050e447630b05d09bef9d0a64c6a1b74bbb41d9e9ad8a8dbd978c5557f2d762b0022067780764a920ddcd053457c146def37a5c01beb571d537f1dab077604eff215b01210322d6cdcd5791448184e6d7455a975beff8175d47c4e4a812d60c7f67976c65fc4dbc0c00"
}