{
  "txid": "9d0d2ea7eb5430e37f96babee4079e50a2b3041d12ac4bcf105fe2a64be2863e",
  "version": 2,
  "locktime": 0,
  "vin": [
    {
      "txid": "355b423d5a6e1d805b431f944256ed925e1bfef1f8e9ac38f97f0964d3854af7",
      "vout": 4,
      "prevout": {
        "scriptpubkey": "0014244a1ffc9c8b2fc83c20d3ca7368e566c4337414",
        "scriptpubkey_asm": "OP_0 OP_PUSHBYTES_20 244a1ffc9c8b2fc83c20d3ca7368e566c4337414",
        "scriptpubkey_type": "v0_p2wpkh",
        "scriptpubkey_address": "bc1qy39pllyu3vhus0pq6098x689vmzrxaq5tud0kx",
        "value": 300
      },
      "scriptsig": "",
      "scriptsig_asm": "",
      "witness": [
        "3045022100c0a43b313d7a940b352364f5ca99857cb815122e4083c527aa02e57f282efbb302207568678d742c062dffe5b3392764311eed0e829accef19ef83661362084fb92c01",
        "03dc8f662ea98adf193366b8112cc5945ca17ea6dfc54ae93ac051df3ebcca1d45"
      ],
      "is_coinbase": false,
      "sequence": 4294967295
    },
    {
      "txid": "355b423d5a6e1d805b431f944256ed925e1bfef1f8e9ac38f97f0964d3854af7",
      "vout": 5,
      "prevout": {
        "scriptpubkey": "0014244a1ffc9c8b2fc83c20d3ca7368e566c4337414",
        "scriptpubkey_asm": "OP_0 OP_PUSHBYTES_20 244a1ffc9c8b2fc83c20d3ca7368e566c4337414",
        "scriptpubkey_type": "v0_p2wpkh",
        "scriptpubkey_address": "bc1qy39pllyu3vhus0pq6098x689vmzrxaq5tud0kx",
        "value": 300
      },
      "scriptsig": "",
      "scriptsig_asm": "",
      "witness": [
        "3045022100dd6c6c7750329c05e07eec0ceb152f56c65b94dd53e909368ea17e58900d9fd9022042b6983782597f06684bdc22b77c48dd8f55f792fbce866563a61caee47d3fa901",
        "03dc8f662ea98adf193366b8112cc5945ca17ea6dfc54ae93ac051df3ebcca1d45"
      ],
      "is_coinbase": false,
      "sequence": 4294967295
    },
    {
      "txid": "38ab05c3f8afdc0c5c276093f5949f733fa77c1fbf7963f84babbeb074e1d1a1",
      "vout": 0,
      "prevout": {
        "scriptpubkey": "51203c3fa47aee932d83c3053e391bc63812353fdf9475dbf047d64a62c02c3f2f49",
        "scriptpubkey_asm": "OP_PUSHNUM_1 OP_PUSHBYTES_32 3c3fa47aee932d83c3053e391bc63812353fdf9475dbf047d64a62c02c3f2f49",
        "scriptpubkey_type": "v1_p2tr",
        "scriptpubkey_address": "bc1p8sl6g7hwjvkc8sc98cu3h33czg6nlhu5whdlq37kff3vqtpl9aysp63qd5",
        "value": 546
      },
      "scriptsig": "",
      "scriptsig_asm": "",
      "witness": [
        "ed06b41ce5609352cad7c6a1313155c83c98ecced48d63e63ca6dbcf52e46385c062be2000517ef932ac3fe2b5cd5ef9a738eec57b682130400d36e9f1fb511d83"
      ],
      "is_coinbase": false,
      "sequence": 4294967295
    },
    {
      "txid": "6db6d9f653af3ed601ee8be6ab55766cc1993605de16fb0d544957db90fe83b7",
      "vout": 1,
      "prevout": {
        "scriptpubkey": "0014919db107a7929f7d720311d8655029384b572270",
        "scriptpubkey_asm": "OP_0 OP_PUSHBYTES_20 919db107a7929f7d720311d8655029384b572270",
        "scriptpubkey_type": "v0_p2wpkh",
        "scriptpubkey_address": "bc1qjxwmzpa8j20h6usrz8vx25pf8p94wgnsrmvyjg",
        "value": 98624
      },
      "scriptsig": "",
      "scriptsig_asm": "",
      "witness": [
        "3044022042b144c6b621acb970e884aea1d83ea5b86c60e1ee5dc1deb4a84e5581414f3a02204d26040093c16f12b16ec3f9299c5e754e9cc2a5d22cb0e8dc7a125999c1ae8e01",
        "02531936fd1e6b4a1eba97c664fe505265207a51b8d07c11125629e7cae56e795b"
      ],
      "is_coinbase": false,
      "sequence": 4294967295
    },
    {
      "txid": "90050c64ce0a96f8fe4e0462414cb9814d5d9b5ea16ced334d489efe2e9c5921",
      "vout": 12,
      "prevout": {
        "scriptpubkey": "0014919db107a7929f7d720311d8655029384b572270",
        "scriptpubkey_asm": "OP_0 OP_PUSHBYTES_20 919db107a7929f7d720311d8655029384b572270",
        "scriptpubkey_type": "v0_p2wpkh",
        "scriptpubkey_address": "bc1qjxwmzpa8j20h6usrz8vx25pf8p94wgnsrmvyjg",
        "value": 37320
      },
      "scriptsig": "",
      "scriptsig_asm": "",
      "witness": [
        "304402202093c553d615846a3d4696f5214da2f0d86a605305d9efc77c07e79d81d93ece022012476f0e0b20ef05658b5e8c551a0bc4da7b79685a73cf07aa19139b3757e15301",
        "02531936fd1e6b4a1eba97c664fe505265207a51b8d07c11125629e7cae56e795b"
      ],
      "is_coinbase": false,
      "sequence": 4294967295
    },
    {
      "txid": "8d414acb56c13f36f2bd130b9b1cb7ff19bed7d0d3aa681ebf74f1eda00ea23a",
      "vout": 1,
      "prevout": {
        "scriptpubkey": "0014919db107a7929f7d720311d8655029384b572270",
        "scriptpubkey_asm": "OP_0 OP_PUSHBYTES_20 919db107a7929f7d720311d8655029384b572270",
        "scriptpubkey_type": "v0_p2wpkh",
        "scriptpubkey_address": "bc1qjxwmzpa8j20h6usrz8vx25pf8p94wgnsrmvyjg",
        "value": 28314
      },
      "scriptsig": "",
      "scriptsig_asm": "",
      "witness": [
        "304402203e54536d2498a0fe8338088359dca498030123b79cd4a86d1c372f47fbad813c022079fa03135def154140110f715f03b4066ae78deb8a21e0fd2b4f9b5ff914794a01",
        "02531936fd1e6b4a1eba97c664fe505265207a51b8d07c11125629e7cae56e795b"
      ],
      "is_coinbase": false,
      "sequence": 4294967295
    },
    {
      "txid": "355b423d5a6e1d805b431f944256ed925e1bfef1f8e9ac38f97f0964d3854af7",
      "vout": 0,
      "prevout": {
        "scriptpubkey": "0014244a1ffc9c8b2fc83c20d3ca7368e566c4337414",
        "scriptpubkey_asm": "OP_0 OP_PUSHBYTES_20 244a1ffc9c8b2fc83c20d3ca7368e566c4337414",
        "scriptpubkey_type": "v0_p2wpkh",
        "scriptpubkey_address": "bc1qy39pllyu3vhus0pq6098x689vmzrxaq5tud0kx",
        "value": 600
      },
      "scriptsig": "",
      "scriptsig_asm": "",
      "witness": [
        "30440220717934ad100b2a9f79ed02410576395b6c749cfb6c991779fa451d3ef029b1d702202e5a6d3ac3cfce4ad72146a30babfd324dde01d67d18780e7456e78bfba4ef3001",
        "03dc8f662ea98adf193366b8112cc5945ca17ea6dfc54ae93ac051df3ebcca1d45"
      ],
      "is_coinbase": false,
      "sequence": 4294967295
    }
  ],
  "vout": [
    {
      "scriptpubkey": "0014244a1ffc9c8b2fc83c20d3ca7368e566c4337414",
      "scriptpubkey_asm": "OP_0 OP_PUSHBYTES_20 244a1ffc9c8b2fc83c20d3ca7368e566c4337414",
      "scriptpubkey_type": "v0_p2wpkh",
      "scriptpubkey_address": "bc1qy39pllyu3vhus0pq6098x689vmzrxaq5tud0kx",
      "value": 600
    },
    {
      "scriptpubkey": "5120be477f32cbcc4f66d9c2e7f632c5974b2fd641194e2deb06bbda93af15a4dc46",
      "scriptpubkey_asm": "OP_PUSHNUM_1 OP_PUSHBYTES_32 be477f32cbcc4f66d9c2e7f632c5974b2fd641194e2deb06bbda93af15a4dc46",
      "scriptpubkey_type": "v1_p2tr",
      "scriptpubkey_address": "bc1pherh7vkte38kdkwzulmr93vhfvhavsgefck7kp4mm2f679dym3rqrjhy6j",
      "value": 546
    },
    {
      "scriptpubkey": "a914befe22eb5c489d5f709036e9eabbdd336df0d99587",
      "scriptpubkey_asm": "OP_HASH160 OP_PUSHBYTES_20 befe22eb5c489d5f709036e9eabbdd336df0d995 OP_EQUAL",
      "scriptpubkey_type": "p2sh",
      "scriptpubkey_address": "3K6tkhTmwVvuwce6nzvZYhwBGVqEy4wxHK",
      "value": 150000
    },
    {
      "scriptpubkey": "0014919db107a7929f7d720311d8655029384b572270",
      "scriptpubkey_asm": "OP_0 OP_PUSHBYTES_20 919db107a7929f7d720311d8655029384b572270",
      "scriptpubkey_type": "v0_p2wpkh",
      "scriptpubkey_address": "bc1qjxwmzpa8j20h6usrz8vx25pf8p94wgnsrmvyjg",
      "value": 4585
    },
    {
      "scriptpubkey": "0014244a1ffc9c8b2fc83c20d3ca7368e566c4337414",
      "scriptpubkey_asm": "OP_0 OP_PUSHBYTES_20 244a1ffc9c8b2fc83c20d3ca7368e566c4337414",
      "scriptpubkey_type": "v0_p2wpkh",
      "scriptpubkey_address": "bc1qy39pllyu3vhus0pq6098x689vmzrxaq5tud0kx",
      "value": 300
    },
    {
      "scriptpubkey": "0014244a1ffc9c8b2fc83c20d3ca7368e566c4337414",
      "scriptpubkey_asm": "OP_0 OP_PUSHBYTES_20 244a1ffc9c8b2fc83c20d3ca7368e566c4337414",
      "scriptpubkey_type": "v0_p2wpkh",
      "scriptpubkey_address": "bc1qy39pllyu3vhus0pq6098x689vmzrxaq5tud0kx",
      "value": 300
    }
  ],
  "size": 1209,
  "weight": 2697,
  "fee": 9673,
  "status": {
    "confirmed": true,
    "block_height": 834638,
    "block_hash": "000000000000000000025f742c626208ac87e0b7d15054abb4a19ca2d735a54e",
    "block_time": 1710405325
  },
  "hex": "02000000000107f74a85d364097ff938ace9f8f1fe1b5e92ed5642941f435b801d6e5a3d425b350400000000fffffffff74a85d364097ff938ace9f8f1fe1b5e92ed5642941f435b801d6e5a3d425b350500000000ffffffffa1d1e174b0beab4bf86379bf1f7ca73f739f94f59360275c0cdcaff8c305ab380000000000ffffffffb783fe90db5749540dfb16de053699c16c7655abe68bee01d63eaf53f6d9b66d0100000000ffffffff21599c2efe9e484d33ed6ca15e9b5d4d81b94c4162044efef8960ace640c05900c00000000ffffffff3aa20ea0edf174bf1e68aad3d0d7be19ffb71c9b0b13bdf2363fc156cb4a418d0100000000fffffffff74a85d364097ff938ace9f8f1fe1b5e92ed5642941f435b801d6e5a3d425b350000000000ffffffff065802000000000000160014244a1ffc9c8b2fc83c20d3ca7368e566c43374142202000000000000225120be477f32cbcc4f66d9c2e7f632c5974b2fd641194e2deb06bbda93af15a4dc46f04902000000000017a914befe22eb5c489d5f709036e9eabbdd336df0d99587e911000000000000160014919db107a7929f7d720311d8655029384b5722702c01000000000000160014244a1ffc9c8b2fc83c20d3ca7368e566c43374142c01000000000000160014244a1ffc9c8b2fc83c20d3ca7368e566c433741402483045022100c0a43b313d7a940b352364f5ca99857cb815122e4083c527aa02e57f282efbb302207568678d742c062dffe5b3392764311eed0e829accef19ef83661362084fb92c012103dc8f662ea98adf193366b8112cc5945ca17ea6dfc54ae93ac051df3ebcca1d4502483045022100dd6c6c7750329c05e07eec0ceb152f56c65b94dd53e909368ea17e58900d9fd9022042b6983782597f06684bdc22b77c48dd8f55f792fbce866563a61caee47d3fa9012103dc8f662ea98adf193366b8112cc5945ca17ea6dfc54ae93ac051df3ebcca1d450141ed06b41ce5609352cad7c6a1313155c83c98ecced48d63e63ca6dbcf52e46385c062be2000517ef932ac3fe2b5cd5ef9a738eec57b682130400d36e9f1fb511d8302473044022042b144c6b621acb970e884aea1d83ea5b86c60e1ee5dc1deb4a84e5581414f3a02204d26040093c16f12b16ec3f9299c5e754e9cc2a5d22cb0e8dc7a125999c1ae8e012102531936fd1e6b4a1eba97c664fe505265207a51b8d07c11125629e7cae56e795b0247304402202093c553d615846a3d4696f5214da2f0d86a605305d9efc77c07e79d81d93ece022012476f0e0b20ef05658b5e8c551a0bc4da7b79685a73cf07aa19139b3757e153012102531936fd1e6b4a1eba97c664fe505265207a51b8d07c11125629e7cae56e795b0247304402203e54536d2498a0fe8338088359dca498030123b79cd4a86d1c372f47fbad813c022079fa03135def154140110f715f03b4066ae78deb8a21e0fd2b4f9b5ff914794a012102531936fd1e6b4a1eba97c664fe505265207a51b8d07c11125629e7cae56e795b024730440220717934ad100b2a9f79ed02410576395b6c749cfb6c991779fa451d3ef029b1d702202e5a6d3ac3cfce4ad72146a30babfd324dde01d67d18780e7456e78bfba4ef30012103dc8f662ea98adf193366b8112cc5945ca17ea6dfc54ae93ac051df3ebcca1d4500000000"
}