{
  "txid": "9d12b4c27c1476326e4101fb5c888710d0ba1927d85cb2395fd94ac9b7988942",
  "version": 1,
  "locktime": 0,
  "vin": [
    {
      "txid": "888888888b433768998e87dfd3ebbe73af41ce94075eee7bf913d1de682615b0",
      "vout": 0,
      "prevout": {
        "scriptpubkey": "5120a381853360367d0727625af34b875c687f3199c9f41d34025094935fc3d6225c",
        "scriptpubkey_asm": "OP_PUSHNUM_1 OP_PUSHBYTES_32 a381853360367d0727625af34b875c687f3199c9f41d34025094935fc3d6225c",
        "scriptpubkey_type": "v1_p2tr",
        "scriptpubkey_address": "bc1p5wqc2vmqxe7swfmztte5hp6udplnrxwf7swngqjsjjf4ls7kyfwqvhyd9y",
        "value": 12071
      },
      "scriptsig": "",
      "scriptsig_asm": "",
      "witness": [
        "165c30e99d5394e3529d3036a946ca67a5c2ecb9e5b9236fff35f9a2ccca4aa51b380d798b311ba2edb5358fbeeb327952dcc77915ec88397b26cb6aceae49ad",
        "20964ac4b39c9655d5bed1908c028e5b13bdcc67f011169207c5b2bcfd1aaffa8cac00630461746f6d03646d7446a16461726773a46474696d651a65f137ce656e6f6e63651a0001000268626974776f726b636b3838383838383838382e386b6d696e745f7469636b657268696e66696e69747968",
        "c0964ac4b39c9655d5bed1908c028e5b13bdcc67f011169207c5b2bcfd1aaffa8c"
      ],
      "is_coinbase": false,
      "sequence": 4294967295
    }
  ],
  "vout": [
    {
      "scriptpubkey": "5120c9778f0f7116a0fa90e759ca54b375f5c38d7db5875a2860af8354d65a8671e2",
      "scriptpubkey_asm": "OP_PUSHNUM_1 OP_PUSHBYTES_32 c9778f0f7116a0fa90e759ca54b375f5c38d7db5875a2860af8354d65a8671e2",
      "scriptpubkey_type": "v1_p2tr",
      "scriptpubkey_address": "bc1pe9mc7rm3z6s04y88t899fvm47hpc6ld4sadzsc90sd2dvk5xw83qeh2mmm",
      "value": 9999
    }
  ],
  "size": 314,
  "weight": 596,
  "fee": 2072,
  "status": {
    "confirmed": true,
    "block_height": 834460,
    "block_hash": "00000000000000000000484a79b643b2524bbce82e5d8a442013fa5b8905ed98",
    "block_time": 1710307468
  },
  "hex": "01000000000101b0152668ded113f97bee5e0794ce41af73beebd3df878e996837438b888888880000000000ffffffff010f27000000000000225120c9778f0f7116a0fa90e759ca54b375f5c38d7db5875a2860af8354d65a8671e20340165c30e99d5394e3529d3036a946ca67a5c2ecb9e5b9236fff35f9a2ccca4aa51b380d798b311ba2edb5358fbeeb327952dcc77915ec88397b26cb6aceae49ad7520964ac4b39c9655d5bed1908c028e5b13bdcc67f011169207c5b2bcfd1aaffa8cac00630461746f6d03646d7446a16461726773a46474696d651a65f137ce656e6f6e63651a0001000268626974776f726b636b3838383838383838382e386b6d696e745f7469636b657268696e66696e6974796821c0964ac4b39c9655d5bed1908c028e5b13bdcc67f011169207c5b2bcfd1aaffa8c00000000"
}