{
  "txid": "9d175467aa29dd3b5e8728e15a6de49b99b762a24fa0648fe57604e4270675b4",
  "version": 1,
  "locktime": 0,
  "vin": [
    {
      "txid": "34b9f266434908f001e32c2261f037e81964f62dfd4822320ffab099aaa57412",
      "vout": 1,
      "prevout": {
        "scriptpubkey": "0014c1a650d8cd42392dbc17ba99a8f3c5fc12bc00e2",
        "scriptpubkey_asm": "OP_0 OP_PUSHBYTES_20 c1a650d8cd42392dbc17ba99a8f3c5fc12bc00e2",
        "scriptpubkey_type": "v0_p2wpkh",
        "scriptpubkey_address": "bc1qcxn9pkxdggujm0qhh2v63u79lsftcq8z7hzqj7",
        "value": 550300
      },
      "scriptsig": "",
      "scriptsig_asm": "",
      "witness": [
        "3045022100a6a0be28113bd7996dc9ed915117721a9096ef17545edc265661b92aa660980802201677491b305ad0fd89a6487e1fe02b336035bd94e2a3281e8dd17c8358af129501",
        "0369bb511bc4e252bd720103b9029427e15a1870f38fbf3a0149b2768df8849be1"
      ],
      "is_coinbase": false,
      "sequence": 4294967295
    }
  ],
  "vout": [
    {
      "scriptpubkey": "76a914f0361e297f1536a64a3bb4ee4d6b619bc5c4a4b788ac",
      "scriptpubkey_asm": "OP_DUP OP_HASH160 OP_PUSHBYTES_20 f0361e297f1536a64a3bb4ee4d6b619bc5c4a4b7 OP_EQUALVERIFY OP_CHECKSIG",
      "scriptpubkey_type": "p2pkh",
      "scriptpubkey_address": "1Nu81DGA6fY1kBUGyNBNNeqVqqt3woCXoG",
      "value": 548060
    }
  ],
  "size": 195,
  "weight": 450,
  "fee": 2240,
  "status": {
    "confirmed": true,
    "block_height": 834638,
    "block_hash": "000000000000000000025f742c626208ac87e0b7d15054abb4a19ca2d735a54e",
    "block_time": 1710405325
  },
  "hex": "010000000001011274a5aa99b0fa0f322248fd2df66419e837f061222ce301f008494366f2b9340100000000ffffffff01dc5c0800000000001976a914f0361e297f1536a64a3bb4ee4d6b619bc5c4a4b788ac02483045022100a6a0be28113bd7996dc9ed915117721a9096ef17545edc265661b92aa660980802201677491b305ad0fd89a6487e1fe02b336035bd94e2a3281e8dd17c8358af129501210369bb511bc4e252bd720103b9029427e15a1870f38fbf3a0149b2768df8849be100000000"
}