{
  "txid": "9d2a3d36db09be26110ba8085024cf6a801cd29c6766b965c4a338a52c33326f",
  "version": 1,
  "locktime": 0,
  "vin": [
    {
      "txid": "1d1ab013febbdc5bab73682ae3bfe7f9cdbc074b037d35be9fc79d77d8773ed8",
      "vout": 0,
      "prevout": {
        "scriptpubkey": "a914e65acfc4e5828edfb243ebf5656428d02b2f9c6e87",
        "scriptpubkey_asm": "OP_HASH160 OP_PUSHBYTES_20 e65acfc4e5828edfb243ebf5656428d02b2f9c6e OP_EQUAL",
        "scriptpubkey_type": "p2sh",
        "scriptpubkey_address": "3Nh28N8opLNWU62Hgc3QSjcsvSF3bUpULv",
        "value": 3026972511
      },
      "scriptsig": "1600140689118358f87bab4e78331acd01aa92e9249933",
      "scriptsig_asm": "OP_PUSHBYTES_22 00140689118358f87bab4e78331acd01aa92e9249933",
      "witness": [
        "3045022100f656f29936614b7f8271f05ae3038d5755b74313cb43ed20543c4ae662e86ed40220199fb24bf539a9e88c3ff374b4efb997de0585dd7149854c5cb73d14d604345901",
        "035cb53cb90a3ef68d0f110d517c3f8364e6ff24666364cc109a5b54a5cf183e6c"
      ],
      "is_coinbase": false,
      "sequence": 4294967295,
      "inner_redeemscript_asm": "OP_0 OP_PUSHBYTES_20 0689118358f87bab4e78331acd01aa92e9249933"
    },
    {
      "txid": "673cb56397ee8d1fbcfca9d045171ea660b5d951fd5e939c6e9b5a06838d5f4e",
      "vout": 16,
      "prevout": {
        "scriptpubkey": "a9146e607c623e8e9ace6c0160f6de2757d8598bfe3f87",
        "scriptpubkey_asm": "OP_HASH160 OP_PUSHBYTES_20 6e607c623e8e9ace6c0160f6de2757d8598bfe3f OP_EQUAL",
        "scriptpubkey_type": "p2sh",
        "scriptpubkey_address": "3BkdqbpZBhRfsn5kAZJu9HKNXY27n2eWnT",
        "value": 787766220
      },
      "scriptsig": "16001459664ff0a6512f074e68b4625da9741ea988dc3f",
      "scriptsig_asm": "OP_PUSHBYTES_22 001459664ff0a6512f074e68b4625da9741ea988dc3f",
      "witness": [
        "3044022075496f918b02f05630484b32d783476614adce102d00d5fc185369ce9bef5979022009081fb2f94425bc72b1bcaf9bb9eb176f5d3c9592e7f4f67cf3bea4c148b6d101",
        "0367f6f1eb97c22704a8e9c5740d2b60fc60f1b451125a8191f34a61da9130f1d4"
      ],
      "is_coinbase": false,
      "sequence": 4294967295,
      "inner_redeemscript_asm": "OP_0 OP_PUSHBYTES_20 59664ff0a6512f074e68b4625da9741ea988dc3f"
    },
    {
      "txid": "2745aaf7e7455145f513bfc36b21a4af8a42c529454b1de009b526004e0dbdd1",
      "vout": 14,
      "prevout": {
        "scriptpubkey": "a914c58cfc481a7fb42ae2d9d9ad51232c99f3b5c88a87",
        "scriptpubkey_asm": "OP_HASH160 OP_PUSHBYTES_20 c58cfc481a7fb42ae2d9d9ad51232c99f3b5c88a OP_EQUAL",
        "scriptpubkey_type": "p2sh",
        "scriptpubkey_address": "3KhZwBDLMwyuonXorSbTqvCUofsBwJHTK5",
        "value": 1039860420
      },
      "scriptsig": "160014abef55b448d2d997e13305f56c93e165f4d9b973",
      "scriptsig_asm": "OP_PUSHBYTES_22 0014abef55b448d2d997e13305f56c93e165f4d9b973",
      "witness": [
        "304402202222e353be8493f406ecb6786ff322350b100128125c6225aa600326b338c77302206d1c18b9fda696ce28c4f6ca24e6d1458056347070d1dee5e4c068031ad89ff801",
        "03f20f6986c259fb426743f2ae98fa75dbfc4869507ba8ea4262f6e60d8eeafdf9"
      ],
      "is_coinbase": false,
      "sequence": 4294967295,
      "inner_redeemscript_asm": "OP_0 OP_PUSHBYTES_20 abef55b448d2d997e13305f56c93e165f4d9b973"
    },
    {
      "txid": "f07f8d52257d52d69e136ac68a07310a52305bec060c8ea065fb2267243e735f",
      "vout": 8,
      "prevout": {
        "scriptpubkey": "a914acdbb69efbedd7cf265bb243947d9b6c6d4c1e1a87",
        "scriptpubkey_asm": "OP_HASH160 OP_PUSHBYTES_20 acdbb69efbedd7cf265bb243947d9b6c6d4c1e1a OP_EQUAL",
        "scriptpubkey_type": "p2sh",
        "scriptpubkey_address": "3HT1MVQzBbphZzESS5e36E68XqycDu8xEr",
        "value": 1012385829
      },
      "scriptsig": "1600146948ad786cfdd82d4150c8a0e696a138916c3e37",
      "scriptsig_asm": "OP_PUSHBYTES_22 00146948ad786cfdd82d4150c8a0e696a138916c3e37",
      "witness": [
        "30440220270567f45aac8df0ec1a24f8f10789da396d94453e1a716be7103c6fbc877dae02204fd230e9e4ceb7f2bd703122661eeb7534a82746460d38b9c2f1e2973d129f9601",
        "039af70f4f593641a180ef57423ba83ac3832ec6aad14ea4c36883b110624372d3"
      ],
      "is_coinbase": false,
      "sequence": 4294967295,
      "inner_redeemscript_asm": "OP_0 OP_PUSHBYTES_20 6948ad786cfdd82d4150c8a0e696a138916c3e37"
    },
    {
      "txid": "2745aaf7e7455145f513bfc36b21a4af8a42c529454b1de009b526004e0dbdd1",
      "vout": 18,
      "prevout": {
        "scriptpubkey": "a914c58cfc481a7fb42ae2d9d9ad51232c99f3b5c88a87",
        "scriptpubkey_asm": "OP_HASH160 OP_PUSHBYTES_20 c58cfc481a7fb42ae2d9d9ad51232c99f3b5c88a OP_EQUAL",
        "scriptpubkey_type": "p2sh",
        "scriptpubkey_address": "3KhZwBDLMwyuonXorSbTqvCUofsBwJHTK5",
        "value": 807347358
      },
      "scriptsig": "160014abef55b448d2d997e13305f56c93e165f4d9b973",
      "scriptsig_asm": "OP_PUSHBYTES_22 0014abef55b448d2d997e13305f56c93e165f4d9b973",
      "witness": [
        "3045022100acd865ef019a763133cb947ee32883bfff85733853d0879d79a970600c8442a702205aaed061ea0b6b8b5b11e31e14024432d9b6930b1b2e91b0da2c0edf05e54e0001",
        "03f20f6986c259fb426743f2ae98fa75dbfc4869507ba8ea4262f6e60d8eeafdf9"
      ],
      "is_coinbase": false,
      "sequence": 4294967295,
      "inner_redeemscript_asm": "OP_0 OP_PUSHBYTES_20 abef55b448d2d997e13305f56c93e165f4d9b973"
    },
    {
      "txid": "673cb56397ee8d1fbcfca9d045171ea660b5d951fd5e939c6e9b5a06838d5f4e",
      "vout": 18,
      "prevout": {
        "scriptpubkey": "a9146e607c623e8e9ace6c0160f6de2757d8598bfe3f87",
        "scriptpubkey_asm": "OP_HASH160 OP_PUSHBYTES_20 6e607c623e8e9ace6c0160f6de2757d8598bfe3f OP_EQUAL",
        "scriptpubkey_type": "p2sh",
        "scriptpubkey_address": "3BkdqbpZBhRfsn5kAZJu9HKNXY27n2eWnT",
        "value": 1621610598
      },
      "scriptsig": "16001459664ff0a6512f074e68b4625da9741ea988dc3f",
      "scriptsig_asm": "OP_PUSHBYTES_22 001459664ff0a6512f074e68b4625da9741ea988dc3f",
      "witness": [
        "3044022006669c9cd097c784847abc016a37103e8060b3f68b160e6145f440e6e9ecd3f502207e4bbe47454211662413e4984973422c1c4e59af6d4625e4bdb70b300b61b99301",
        "0367f6f1eb97c22704a8e9c5740d2b60fc60f1b451125a8191f34a61da9130f1d4"
      ],
      "is_coinbase": false,
      "sequence": 4294967295,
      "inner_redeemscript_asm": "OP_0 OP_PUSHBYTES_20 59664ff0a6512f074e68b4625da9741ea988dc3f"
    },
    {
      "txid": "a53094e8eca8ebcbcd76e7f6c6007182a2a4158ff0e76f227ac6fa5a67db12b1",
      "vout": 0,
      "prevout": {
        "scriptpubkey": "a914e65acfc4e5828edfb243ebf5656428d02b2f9c6e87",
        "scriptpubkey_asm": "OP_HASH160 OP_PUSHBYTES_20 e65acfc4e5828edfb243ebf5656428d02b2f9c6e OP_EQUAL",
        "scriptpubkey_type": "p2sh",
        "scriptpubkey_address": "3Nh28N8opLNWU62Hgc3QSjcsvSF3bUpULv",
        "value": 946660009
      },
      "scriptsig": "1600140689118358f87bab4e78331acd01aa92e9249933",
      "scriptsig_asm": "OP_PUSHBYTES_22 00140689118358f87bab4e78331acd01aa92e9249933",
      "witness": [
        "304402201f9fd220d2d6f6d7f95e9059f5e65a56415cbafdbb7f27ea203e7d8426b4b7d5022046a7dd29917cd9d5f04e7739df035bfd24f081707b3b4ca5760fb9f8bb01af5201",
        "035cb53cb90a3ef68d0f110d517c3f8364e6ff24666364cc109a5b54a5cf183e6c"
      ],
      "is_coinbase": false,
      "sequence": 4294967295,
      "inner_redeemscript_asm": "OP_0 OP_PUSHBYTES_20 0689118358f87bab4e78331acd01aa92e9249933"
    },
    {
      "txid": "1d1ab013febbdc5bab73682ae3bfe7f9cdbc074b037d35be9fc79d77d8773ed8",
      "vout": 2,
      "prevout": {
        "scriptpubkey": "a914e65acfc4e5828edfb243ebf5656428d02b2f9c6e87",
        "scriptpubkey_asm": "OP_HASH160 OP_PUSHBYTES_20 e65acfc4e5828edfb243ebf5656428d02b2f9c6e OP_EQUAL",
        "scriptpubkey_type": "p2sh",
        "scriptpubkey_address": "3Nh28N8opLNWU62Hgc3QSjcsvSF3bUpULv",
        "value": 2132924519
      },
      "scriptsig": "1600140689118358f87bab4e78331acd01aa92e9249933",
      "scriptsig_asm": "OP_PUSHBYTES_22 00140689118358f87bab4e78331acd01aa92e9249933",
      "witness": [
        "3045022100e5752c461e3c8e93670411fa7d7e1757ccc65acaec3f5b284968ab0dba27795c022006033b5067be31e0dacbdf28a3ed71c5ba314353069402fb6a0c97baebbc680101",
        "035cb53cb90a3ef68d0f110d517c3f8364e6ff24666364cc109a5b54a5cf183e6c"
      ],
      "is_coinbase": false,
      "sequence": 4294967295,
      "inner_redeemscript_asm": "OP_0 OP_PUSHBYTES_20 0689118358f87bab4e78331acd01aa92e9249933"
    },
    {
      "txid": "d5ff3f8038e500a6a023e73164d042cda354fe48ef3fd736b3d07ca9aa509113",
      "vout": 0,
      "prevout": {
        "scriptpubkey": "a9146e607c623e8e9ace6c0160f6de2757d8598bfe3f87",
        "scriptpubkey_asm": "OP_HASH160 OP_PUSHBYTES_20 6e607c623e8e9ace6c0160f6de2757d8598bfe3f OP_EQUAL",
        "scriptpubkey_type": "p2sh",
        "scriptpubkey_address": "3BkdqbpZBhRfsn5kAZJu9HKNXY27n2eWnT",
        "value": 873178290
      },
      "scriptsig": "16001459664ff0a6512f074e68b4625da9741ea988dc3f",
      "scriptsig_asm": "OP_PUSHBYTES_22 001459664ff0a6512f074e68b4625da9741ea988dc3f",
      "witness": [
        "30440220271da633b2fe288b8ea1d23be1ea67231f4c09f5ee053221aec2c6cbd86ff3c502206db186c7b6af8be1e0269fc5c0a3be439e38e00f062fedeb996492207d0adf6a01",
        "0367f6f1eb97c22704a8e9c5740d2b60fc60f1b451125a8191f34a61da9130f1d4"
      ],
      "is_coinbase": false,
      "sequence": 4294967295,
      "inner_redeemscript_asm": "OP_0 OP_PUSHBYTES_20 59664ff0a6512f074e68b4625da9741ea988dc3f"
    }
  ],
  "vout": [
    {
      "scriptpubkey": "0014f422004dd4fc9e4d8a7404c85150d970fad172b4",
      "scriptpubkey_asm": "OP_0 OP_PUSHBYTES_20 f422004dd4fc9e4d8a7404c85150d970fad172b4",
      "scriptpubkey_type": "v0_p2wpkh",
      "scriptpubkey_address": "bc1q7s3qqnw5lj0ymzn5qny9z5xewradzu459l9v0j",
      "value": 200000000
    },
    {
      "scriptpubkey": "00140ce92c6c1249a327be5ab2c481cd486fd348d712",
      "scriptpubkey_asm": "OP_0 OP_PUSHBYTES_20 0ce92c6c1249a327be5ab2c481cd486fd348d712",
      "scriptpubkey_type": "v0_p2wpkh",
      "scriptpubkey_address": "bc1qpn5jcmqjfx3j00j6ktzgrn2gdlf534cjcgtwdq",
      "value": 8378365799
    },
    {
      "scriptpubkey": "a914eb705600324c39f87633f1733d5e5b7c4941845087",
      "scriptpubkey_asm": "OP_HASH160 OP_PUSHBYTES_20 eb705600324c39f87633f1733d5e5b7c49418450 OP_EQUAL",
      "scriptpubkey_type": "p2sh",
      "scriptpubkey_address": "3P9uHrwdRJDTSMsJdTxxBozrirvUsEEYgH",
      "value": 93364
    },
    {
      "scriptpubkey": "00146b9f210a62a3c2eead565a5a04c461eb21d5f43b",
      "scriptpubkey_asm": "OP_0 OP_PUSHBYTES_20 6b9f210a62a3c2eead565a5a04c461eb21d5f43b",
      "scriptpubkey_type": "v0_p2wpkh",
      "scriptpubkey_address": "bc1qdw0jzznz50pwat2ktfdqf3rpavsatapmfc665a",
      "value": 534399100
    },
    {
      "scriptpubkey": "001418cb903c174a343d23872a470fbf3e2b362ab3b6",
      "scriptpubkey_asm": "OP_0 OP_PUSHBYTES_20 18cb903c174a343d23872a470fbf3e2b362ab3b6",
      "scriptpubkey_type": "v0_p2wpkh",
      "scriptpubkey_address": "bc1qrr9eq0qhfg6r6gu89frsl0e79vmz4vak4dl0sf",
      "value": 211685
    },
    {
      "scriptpubkey": "001434701ea038d028b1fea7bec401970057b1ce0c28",
      "scriptpubkey_asm": "OP_0 OP_PUSHBYTES_20 34701ea038d028b1fea7bec401970057b1ce0c28",
      "scriptpubkey_type": "v0_p2wpkh",
      "scriptpubkey_address": "bc1qx3cpagpc6q5trl48hmzqr9cq27cuurpglpem07",
      "value": 27261
    },
    {
      "scriptpubkey": "0014e0b61874f48ca7e721d8bcd8f9b3d979f99298fd",
      "scriptpubkey_asm": "OP_0 OP_PUSHBYTES_20 e0b61874f48ca7e721d8bcd8f9b3d979f99298fd",
      "scriptpubkey_type": "v0_p2wpkh",
      "scriptpubkey_address": "bc1quzmpsa853jn7wgwchnv0nv7e08ue9x8acpz8wv",
      "value": 411356
    },
    {
      "scriptpubkey": "0014be75badbbda365292ecdb439431fd7fd3e48597c",
      "scriptpubkey_asm": "OP_0 OP_PUSHBYTES_20 be75badbbda365292ecdb439431fd7fd3e48597c",
      "scriptpubkey_type": "v0_p2wpkh",
      "scriptpubkey_address": "bc1qhe6m4kaa5djjjtkdksu5x87hl5lysktul8u23x",
      "value": 2863142035
    },
    {
      "scriptpubkey": "00144ef5d9bcde52c0b04d0ba6b60cf9cddf8579aa56",
      "scriptpubkey_asm": "OP_0 OP_PUSHBYTES_20 4ef5d9bcde52c0b04d0ba6b60cf9cddf8579aa56",
      "scriptpubkey_type": "v0_p2wpkh",
      "scriptpubkey_address": "bc1qfm6an0x72tqtqngt56mqe7wdm7zhn2jk4nm6cd",
      "value": 266812
    },
    {
      "scriptpubkey": "0014d09b96db57b2fc78fce00367f2821ae46d3577a4",
      "scriptpubkey_asm": "OP_0 OP_PUSHBYTES_20 d09b96db57b2fc78fce00367f2821ae46d3577a4",
      "scriptpubkey_type": "v0_p2wpkh",
      "scriptpubkey_address": "bc1q6zdedk6hkt783l8qqdnl9qs6u3kn2aaydznq68",
      "value": 200000000
    },
    {
      "scriptpubkey": "76a91422b8fbe12f6a5639e8847140e1141f08ce97697788ac",
      "scriptpubkey_asm": "OP_DUP OP_HASH160 OP_PUSHBYTES_20 22b8fbe12f6a5639e8847140e1141f08ce976977 OP_EQUALVERIFY OP_CHECKSIG",
      "scriptpubkey_type": "p2pkh",
      "scriptpubkey_address": "14AbaRu454LF65qeJo92ouju9hsp5pZAKx",
      "value": 55781
    },
    {
      "scriptpubkey": "0014f036c6c23229f3e371302937769fbf30cc414ee9",
      "scriptpubkey_asm": "OP_0 OP_PUSHBYTES_20 f036c6c23229f3e371302937769fbf30cc414ee9",
      "scriptpubkey_type": "v0_p2wpkh",
      "scriptpubkey_address": "bc1q7qmvds3j98e7xufs9ymhd8alxrxyznhfq0hzwr",
      "value": 942520
    },
    {
      "scriptpubkey": "00144a036806e2d27c89e91978eeba8df02b754995a0",
      "scriptpubkey_asm": "OP_0 OP_PUSHBYTES_20 4a036806e2d27c89e91978eeba8df02b754995a0",
      "scriptpubkey_type": "v0_p2wpkh",
      "scriptpubkey_address": "bc1qfgpksphz6f7gn6ge0rht4r0s9d65n9dql90qpq",
      "value": 19920
    },
    {
      "scriptpubkey": "a914967953cf9ffdd8de607bc918014a78acaca141bb87",
      "scriptpubkey_asm": "OP_HASH160 OP_PUSHBYTES_20 967953cf9ffdd8de607bc918014a78acaca141bb OP_EQUAL",
      "scriptpubkey_type": "p2sh",
      "scriptpubkey_address": "3FQedHwiKq8HrwypFyCKSvrhfxB27Sp1ZT",
      "value": 46548
    },
    {
      "scriptpubkey": "00145f130521377388b01f34ffe3b31a8280f5f4b857",
      "scriptpubkey_asm": "OP_0 OP_PUSHBYTES_20 5f130521377388b01f34ffe3b31a8280f5f4b857",
      "scriptpubkey_type": "v0_p2wpkh",
      "scriptpubkey_address": "bc1qtufs2gfhwwytq8e5ll3mxx5zsr6lfwzhdc4twc",
      "value": 70496875
    },
    {
      "scriptpubkey": "00147493e70ab444381188b3ca62668c2d51c7c0065f",
      "scriptpubkey_asm": "OP_0 OP_PUSHBYTES_20 7493e70ab444381188b3ca62668c2d51c7c0065f",
      "scriptpubkey_type": "v0_p2wpkh",
      "scriptpubkey_address": "bc1qwjf7wz45gsuprz9nef3xdrpd28ruqpjl46jvjz",
      "value": 190824
    }
  ],
  "size": 2055,
  "weight": 5316,
  "fee": 35874,
  "status": {
    "confirmed": true,
    "block_height": 834638,
    "block_hash": "000000000000000000025f742c626208ac87e0b7d15054abb4a19ca2d735a54e",
    "block_time": 1710405325
  },
  "hex": "01000000000109d83e77d8779dc79fbe357d034b07bccdf9e7bfe32a6873ab5bdcbbfe13b01a1d00000000171600140689118358f87bab4e78331acd01aa92e9249933ffffffff4e5f8d83065a9b6e9c935efd51d9b560a61e1745d0a9fcbc1f8dee9763b53c67100000001716001459664ff0a6512f074e68b4625da9741ea988dc3fffffffffd1bd0d4e0026b509e01d4b4529c5428aafa4216bc3bf13f5455145e7f7aa45270e00000017160014abef55b448d2d997e13305f56c93e165f4d9b973ffffffff5f733e246722fb65a08e0c06ec5b30520a31078ac66a139ed6527d25528d7ff008000000171600146948ad786cfdd82d4150c8a0e696a138916c3e37ffffffffd1bd0d4e0026b509e01d4b4529c5428aafa4216bc3bf13f5455145e7f7aa45271200000017160014abef55b448d2d997e13305f56c93e165f4d9b973ffffffff4e5f8d83065a9b6e9c935efd51d9b560a61e1745d0a9fcbc1f8dee9763b53c67120000001716001459664ff0a6512f074e68b4625da9741ea988dc3fffffffffb112db675afac67a226fe7f08f15a4a2827100c6f6e776cdcbeba8ece89430a500000000171600140689118358f87bab4e78331acd01aa92e9249933ffffffffd83e77d8779dc79fbe357d034b07bccdf9e7bfe32a6873ab5bdcbbfe13b01a1d02000000171600140689118358f87bab4e78331acd01aa92e9249933ffffffff139150aaa97cd0b336d73fef48fe54a3cd42d06431e723a0a600e538803fffd5000000001716001459664ff0a6512f074e68b4625da9741ea988dc3fffffffff1000c2eb0b00000000160014f422004dd4fc9e4d8a7404c85150d970fad172b467b763f3010000001600140ce92c6c1249a327be5ab2c481cd486fd348d712b46c01000000000017a914eb705600324c39f87633f1733d5e5b7c49418450877c48da1f000000001600146b9f210a62a3c2eead565a5a04c461eb21d5f43be53a03000000000016001418cb903c174a343d23872a470fbf3e2b362ab3b67d6a00000000000016001434701ea038d028b1fea7bec401970057b1ce0c28dc46060000000000160014e0b61874f48ca7e721d8bcd8f9b3d979f99298fd9314a8aa00000000160014be75badbbda365292ecdb439431fd7fd3e48597c3c120400000000001600144ef5d9bcde52c0b04d0ba6b60cf9cddf8579aa5600c2eb0b00000000160014d09b96db57b2fc78fce00367f2821ae46d3577a4e5d90000000000001976a91422b8fbe12f6a5639e8847140e1141f08ce97697788acb8610e0000000000160014f036c6c23229f3e371302937769fbf30cc414ee9d04d0000000000001600144a036806e2d27c89e91978eeba8df02b754995a0d4b500000000000017a914967953cf9ffdd8de607bc918014a78acaca141bb876bb23304000000001600145f130521377388b01f34ffe3b31a8280f5f4b85768e90200000000001600147493e70ab444381188b3ca62668c2d51c7c0065f02483045022100f656f29936614b7f8271f05ae3038d5755b74313cb43ed20543c4ae662e86ed40220199fb24bf539a9e88c3ff374b4efb997de0585dd7149854c5cb73d14d60434590121035cb53cb90a3ef68d0f110d517c3f8364e6ff24666364cc109a5b54a5cf183e6c02473044022075496f918b02f05630484b32d783476614adce102d00d5fc185369ce9bef5979022009081fb2f94425bc72b1bcaf9bb9eb176f5d3c9592e7f4f67cf3bea4c148b6d101210367f6f1eb97c22704a8e9c5740d2b60fc60f1b451125a8191f34a61da9130f1d40247304402202222e353be8493f406ecb6786ff322350b100128125c6225aa600326b338c77302206d1c18b9fda696ce28c4f6ca24e6d1458056347070d1dee5e4c068031ad89ff8012103f20f6986c259fb426743f2ae98fa75dbfc4869507ba8ea4262f6e60d8eeafdf9024730440220270567f45aac8df0ec1a24f8f10789da396d94453e1a716be7103c6fbc877dae02204fd230e9e4ceb7f2bd703122661eeb7534a82746460d38b9c2f1e2973d129f960121039af70f4f593641a180ef57423ba83ac3832ec6aad14ea4c36883b110624372d302483045022100acd865ef019a763133cb947ee32883bfff85733853d0879d79a970600c8442a702205aaed061ea0b6b8b5b11e31e14024432d9b6930b1b2e91b0da2c0edf05e54e00012103f20f6986c259fb426743f2ae98fa75dbfc4869507ba8ea4262f6e60d8eeafdf902473044022006669c9cd097c784847abc016a37103e8060b3f68b160e6145f440e6e9ecd3f502207e4bbe47454211662413e4984973422c1c4e59af6d4625e4bdb70b300b61b99301210367f6f1eb97c22704a8e9c5740d2b60fc60f1b451125a8191f34a61da9130f1d40247304402201f9fd220d2d6f6d7f95e9059f5e65a56415cbafdbb7f27ea203e7d8426b4b7d5022046a7dd29917cd9d5f04e7739df035bfd24f081707b3b4ca5760fb9f8bb01af520121035cb53cb90a3ef68d0f110d517c3f8364e6ff24666364cc109a5b54a5cf183e6c02483045022100e5752c461e3c8e93670411fa7d7e1757ccc65acaec3f5b284968ab0dba27795c022006033b5067be31e0dacbdf28a3ed71c5ba314353069402fb6a0c97baebbc68010121035cb53cb90a3ef68d0f110d517c3f8364e6ff24666364cc109a5b54a5cf183e6c024730440220271da633b2fe288b8ea1d23be1ea67231f4c09f5ee053221aec2c6cbd86ff3c502206db186c7b6af8be1e0269fc5c0a3be439e38e00f062fedeb996492207d0adf6a01210367f6f1eb97c22704a8e9c5740d2b60fc60f1b451125a8191f34a61da9130f1d400000000"
}