{
  "txid": "9d3aaf67af7c917c8e9ee2770a7c95fefbf72ee50bde0eae18225e17b89012b3",
  "version": 2,
  "locktime": 0,
  "vin": [
    {
      "txid": "acc3ba00869acb582a3f2904ce3a11dd3779350ce234063fc7d0959246213364",
      "vout": 96,
      "prevout": {
        "scriptpubkey": "5120f728e0ebd5152aab7629e892b4e404d20fe96e480258d533e73712ae003ce541",
        "scriptpubkey_asm": "OP_PUSHNUM_1 OP_PUSHBYTES_32 f728e0ebd5152aab7629e892b4e404d20fe96e480258d533e73712ae003ce541",
        "scriptpubkey_type": "v1_p2tr",
        "scriptpubkey_address": "bc1p7u5wp674z542ka3fazftfeqy6g87jmjgqfvd2vl8xuf2uqpuu4qs0xud8s",
        "value": 1806
      },
      "scriptsig": "",
      "scriptsig_asm": "",
      "witness": [
        "a30d2f23729469e9d25f0475b4f9c14ab756f0e48c54f7a1c9b657f8ba30720e888ea2670e7588be7aa52acf39c097541aca46673efa5f21dc0aea0de9f73a67",
        "204876a67f0ab08f95bed91c5aa255b6143071daa588ea219e142bd7685857510eac0063036f726401010a746578742f706c61696e00357b2270223a226272632d3230222c226f70223a226d696e74222c227469636b223a22646f6765222c22616d74223a2234323030227d68",
        "c14876a67f0ab08f95bed91c5aa255b6143071daa588ea219e142bd7685857510e"
      ],
      "is_coinbase": false,
      "sequence": 4261412863
    }
  ],
  "vout": [
    {
      "scriptpubkey": "00147a665de7a370f4c9b372ab1fae587500a5bcbdb4",
      "scriptpubkey_asm": "OP_0 OP_PUSHBYTES_20 7a665de7a370f4c9b372ab1fae587500a5bcbdb4",
      "scriptpubkey_type": "v0_p2wpkh",
      "scriptpubkey_address": "bc1q0fn9mearwr6vnvmj4v06ukr4qzjme0d565dzcx",
      "value": 294
    }
  ],
  "size": 294,
  "weight": 540,
  "fee": 1512,
  "status": {
    "confirmed": true,
    "block_height": 834460,
    "block_hash": "00000000000000000000484a79b643b2524bbce82e5d8a442013fa5b8905ed98",
    "block_time": 1710307468
  },
  "hex": "02000000000101643321469295d0c73f0634e20c357937dd113ace04293f2a58cb9a8600bac3ac6000000000fffffffd0126010000000000001600147a665de7a370f4c9b372ab1fae587500a5bcbdb40340a30d2f23729469e9d25f0475b4f9c14ab756f0e48c54f7a1c9b657f8ba30720e888ea2670e7588be7aa52acf39c097541aca46673efa5f21dc0aea0de9f73a676d204876a67f0ab08f95bed91c5aa255b6143071daa588ea219e142bd7685857510eac0063036f726401010a746578742f706c61696e00357b2270223a226272632d3230222c226f70223a226d696e74222c227469636b223a22646f6765222c22616d74223a2234323030227d6821c14876a67f0ab08f95bed91c5aa255b6143071daa588ea219e142bd7685857510e00000000"
}