{
  "txid": "9d3ad5c70154474405171bf4f645225891fb70aaf0a01eb44ea1ee3c509da33f",
  "version": 1,
  "locktime": 0,
  "vin": [
    {
      "txid": "b596173db6d226f0e36a2ff81f053036fe9901671bf16454fe54f7f40fb35c72",
      "vout": 1,
      "prevout": {
        "scriptpubkey": "76a91403db40b4b9afc53e6f66a2e7cd300d2f06e806db88ac",
        "scriptpubkey_asm": "OP_DUP OP_HASH160 OP_PUSHBYTES_20 03db40b4b9afc53e6f66a2e7cd300d2f06e806db OP_EQUALVERIFY OP_CHECKSIG",
        "scriptpubkey_type": "p2pkh",
        "scriptpubkey_address": "1MPgXQHGEYnAAFvQXNR5xV2N3rAGUrAoj",
        "value": 298710
      },
      "scriptsig": "47304402207eff7de9bdd0722e41c95c52ab6a87fba61f2c62cae101632c0c6019965433b502202a4a2a770c3f7bb9231fe02147c78c69ea1e92dab6ab73e5d83731086a5791d901210267fad561f51168d5f5a0d628767b3eab0d5ba3d807002501e1b98293b9ee8be9",
      "scriptsig_asm": "OP_PUSHBYTES_71 304402207eff7de9bdd0722e41c95c52ab6a87fba61f2c62cae101632c0c6019965433b502202a4a2a770c3f7bb9231fe02147c78c69ea1e92dab6ab73e5d83731086a5791d901 OP_PUSHBYTES_33 0267fad561f51168d5f5a0d628767b3eab0d5ba3d807002501e1b98293b9ee8be9",
      "is_coinbase": false,
      "sequence": 4294967295
    }
  ],
  "vout": [
    {
      "scriptpubkey": "a91400ab1072287c130810bfba61c0507d3be89ec1b587",
      "scriptpubkey_asm": "OP_HASH160 OP_PUSHBYTES_20 00ab1072287c130810bfba61c0507d3be89ec1b5 OP_EQUAL",
      "scriptpubkey_type": "p2sh",
      "scriptpubkey_address": "31kYrJ6qAQVFCsZnTrmg438kUf3122xFGt",
      "value": 290000
    },
    {
      "scriptpubkey": "76a914cfb6e196736c543dce53ec2703b6a823a7690f8088ac",
      "scriptpubkey_asm": "OP_DUP OP_HASH160 OP_PUSHBYTES_20 cfb6e196736c543dce53ec2703b6a823a7690f80 OP_EQUALVERIFY OP_CHECKSIG",
      "scriptpubkey_type": "p2pkh",
      "scriptpubkey_address": "1KwHxX27otn8Pj8Hu13JhCWRzin918zKk2",
      "value": 4190
    }
  ],
  "size": 223,
  "weight": 892,
  "fee": 4520,
  "status": {
    "confirmed": true,
    "block_height": 834638,
    "block_hash": "000000000000000000025f742c626208ac87e0b7d15054abb4a19ca2d735a54e",
    "block_time": 1710405325
  },
  "hex": "0100000001725cb30ff4f754fe5464f11b670199fe3630051ff82f6ae3f026d2b63d1796b5010000006a47304402207eff7de9bdd0722e41c95c52ab6a87fba61f2c62cae101632c0c6019965433b502202a4a2a770c3f7bb9231fe02147c78c69ea1e92dab6ab73e5d83731086a5791d901210267fad561f51168d5f5a0d628767b3eab0d5ba3d807002501e1b98293b9ee8be9ffffffff02d06c04000000000017a91400ab1072287c130810bfba61c0507d3be89ec1b5875e100000000000001976a914cfb6e196736c543dce53ec2703b6a823a7690f8088ac00000000"
}