{
  "txid": "9d43a58596639ed577a208d86eb3ff599972c0db25bd8f37701a5fba55105100",
  "version": 1,
  "locktime": 0,
  "vin": [
    {
      "txid": "d384e942183a61829d0c99d84c87475eefcdf6277b72989655007493e4bf021c",
      "vout": 1,
      "prevout": {
        "scriptpubkey": "76a914b5be080fa5deb3238348ac6aa0240d574b56414488ac",
        "scriptpubkey_asm": "OP_DUP OP_HASH160 OP_PUSHBYTES_20 b5be080fa5deb3238348ac6aa0240d574b564144 OP_EQUALVERIFY OP_CHECKSIG",
        "scriptpubkey_type": "p2pkh",
        "scriptpubkey_address": "1HZxxLkrATEcDBmdXqNLxxUXUhCSy97E2T",
        "value": 280740327
      },
      "scriptsig": "483045022100c2d8375032ef1076382f590d4a2dfd4536cc4b60f7904c333dc31a910d85d2f502207002de23cc86ea0bfdf5027ddfee95b0f2362c97ef89c3c060d33fb62a9034b5012103b5fa04d793ed42510aa5e5a8583d11c54490cbba6aa7cbd3d2ade0d9244a0db8",
      "scriptsig_asm": "OP_PUSHBYTES_72 3045022100c2d8375032ef1076382f590d4a2dfd4536cc4b60f7904c333dc31a910d85d2f502207002de23cc86ea0bfdf5027ddfee95b0f2362c97ef89c3c060d33fb62a9034b501 OP_PUSHBYTES_33 03b5fa04d793ed42510aa5e5a8583d11c54490cbba6aa7cbd3d2ade0d9244a0db8",
      "is_coinbase": false,
      "sequence": 4294967293
    }
  ],
  "vout": [
    {
      "scriptpubkey": "0014d7a7ec691e59fb671ac632cf641887e69489119d",
      "scriptpubkey_asm": "OP_0 OP_PUSHBYTES_20 d7a7ec691e59fb671ac632cf641887e69489119d",
      "scriptpubkey_type": "v0_p2wpkh",
      "scriptpubkey_address": "bc1q67n7c6g7t8akwxkxxt8kgxy8u62gjyvamrfxap",
      "value": 284091
    },
    {
      "scriptpubkey": "76a914b5be080fa5deb3238348ac6aa0240d574b56414488ac",
      "scriptpubkey_asm": "OP_DUP OP_HASH160 OP_PUSHBYTES_20 b5be080fa5deb3238348ac6aa0240d574b564144 OP_EQUALVERIFY OP_CHECKSIG",
      "scriptpubkey_type": "p2pkh",
      "scriptpubkey_address": "1HZxxLkrATEcDBmdXqNLxxUXUhCSy97E2T",
      "value": 280449456
    }
  ],
  "size": 223,
  "weight": 892,
  "fee": 6780,
  "status": {
    "confirmed": true,
    "block_height": 834638,
    "block_hash": "000000000000000000025f742c626208ac87e0b7d15054abb4a19ca2d735a54e",
    "block_time": 1710405325
  },
  "hex": "01000000011c02bfe4937400559698727b27f6cdef5e47874cd8990c9d82613a1842e984d3010000006b483045022100c2d8375032ef1076382f590d4a2dfd4536cc4b60f7904c333dc31a910d85d2f502207002de23cc86ea0bfdf5027ddfee95b0f2362c97ef89c3c060d33fb62a9034b5012103b5fa04d793ed42510aa5e5a8583d11c54490cbba6aa7cbd3d2ade0d9244a0db8fdffffff02bb55040000000000160014d7a7ec691e59fb671ac632cf641887e69489119db051b710000000001976a914b5be080fa5deb3238348ac6aa0240d574b56414488ac00000000"
}