{
  "txid": "9d50f89b92494f584adb7dd6ceda9c7905b0e57ff7c9c53af0eeb81cc3eb95bc",
  "version": 2,
  "locktime": 834550,
  "vin": [
    {
      "txid": "cd5a0bc07a857d37724d1086aff4b33a96720d26d76805f73795fc66ddabe2f6",
      "vout": 0,
      "prevout": {
        "scriptpubkey": "0014672d286c5de4a16e1969418d380061c1b8abc7a6",
        "scriptpubkey_asm": "OP_0 OP_PUSHBYTES_20 672d286c5de4a16e1969418d380061c1b8abc7a6",
        "scriptpubkey_type": "v0_p2wpkh",
        "scriptpubkey_address": "bc1qvukjsmzaujskuxtfgxxnsqrpcxu2h3axpwtarq",
        "value": 533230996
      },
      "scriptsig": "",
      "scriptsig_asm": "",
      "witness": [
        "3044022012db934c0069b1a5357a1728463aa6f63fa5a5cb45687bda25dbba3352fa25a602206ffb25609d2f274495d64aee5a3190aac0cb4ca647302181a7fa2d468818679501",
        "02caaa5359eaacfaaad89b0bb073f2662008c0bc0eb0358f2dbae8b09bb6e7df5d"
      ],
      "is_coinbase": false,
      "sequence": 4294967294
    }
  ],
  "vout": [
    {
      "scriptpubkey": "00142712898fa03d0a1dedb1a0db806550fbb83efc29",
      "scriptpubkey_asm": "OP_0 OP_PUSHBYTES_20 2712898fa03d0a1dedb1a0db806550fbb83efc29",
      "scriptpubkey_type": "v0_p2wpkh",
      "scriptpubkey_address": "bc1qyufgnraq859pmmd35rdcqe2slwuralpf9z3es5",
      "value": 533174363
    },
    {
      "scriptpubkey": "a914d44178f93346b060e8f98fd5d303c15b95d8393287",
      "scriptpubkey_asm": "OP_HASH160 OP_PUSHBYTES_20 d44178f93346b060e8f98fd5d303c15b95d83932 OP_EQUAL",
      "scriptpubkey_type": "p2sh",
      "scriptpubkey_address": "3M3KcKmsn2DME2j6z4UWDou9cwgkEVyjQs",
      "value": 52800
    }
  ],
  "size": 223,
  "weight": 565,
  "fee": 3833,
  "status": {
    "confirmed": true,
    "block_height": 834552,
    "block_hash": "00000000000000000001dd0468a70c94f619251d286585cff57aeb4bd9ede330",
    "block_time": 1710355598
  },
  "hex": "02000000000101f6e2abdd66fc9537f70568d7260d72963ab3f4af86104d72377d857ac00b5acd0000000000feffffff025b98c71f000000001600142712898fa03d0a1dedb1a0db806550fbb83efc2940ce00000000000017a914d44178f93346b060e8f98fd5d303c15b95d839328702473044022012db934c0069b1a5357a1728463aa6f63fa5a5cb45687bda25dbba3352fa25a602206ffb25609d2f274495d64aee5a3190aac0cb4ca647302181a7fa2d4688186795012102caaa5359eaacfaaad89b0bb073f2662008c0bc0eb0358f2dbae8b09bb6e7df5df6bb0c00"
}