{
  "txid": "9d61897924a03866a4f577157b87c9de3ad1411d8d5e47bd462f3aec81a672b1",
  "version": 2,
  "locktime": 0,
  "vin": [
    {
      "txid": "20a5301bb1400efe1badb245b1b02b6f1407dde8908549692f1279d7bd01a32f",
      "vout": 22,
      "prevout": {
        "scriptpubkey": "001440c7a9baf3c8a9bb6a614630ff66f41e8e40141d",
        "scriptpubkey_asm": "OP_0 OP_PUSHBYTES_20 40c7a9baf3c8a9bb6a614630ff66f41e8e40141d",
        "scriptpubkey_type": "v0_p2wpkh",
        "scriptpubkey_address": "bc1qgrr6nwhnez5mk6npgcc07eh5r68yq9qalfl47u",
        "value": 205788
      },
      "scriptsig": "",
      "scriptsig_asm": "",
      "witness": [
        "30440220054954e7ee82cf780f6edb4541918935b4ff3780326e88e8f1d1fac4f2145aeb0220293e4a23a07c6773f6dc2f3f8985bc3337f167c39e5bdf2f11c8dbbe889d836c01",
        "03b9fe3aa16029d55ff8e7d6d1df7c987027c5105182346e41941cdcf1b8c8c1d3"
      ],
      "is_coinbase": false,
      "sequence": 4294967293
    }
  ],
  "vout": [
    {
      "scriptpubkey": "001445e57d4cf19c4cb19397f563216180c83dd41889",
      "scriptpubkey_asm": "OP_0 OP_PUSHBYTES_20 45e57d4cf19c4cb19397f563216180c83dd41889",
      "scriptpubkey_type": "v0_p2wpkh",
      "scriptpubkey_address": "bc1qghjh6n83n3xtryuh743jzcvqeq7agxyf4sumq3",
      "value": 3077
    },
    {
      "scriptpubkey": "00144fa5fcc8dda9f7ce7b1eeb9970128e387e185cfa",
      "scriptpubkey_asm": "OP_0 OP_PUSHBYTES_20 4fa5fcc8dda9f7ce7b1eeb9970128e387e185cfa",
      "scriptpubkey_type": "v0_p2wpkh",
      "scriptpubkey_address": "bc1qf7jlejxa48muu7c7awvhqy5w8plpsh86aajzzp",
      "value": 2092
    },
    {
      "scriptpubkey": "001430931bdccd3f2a00e1f38189540dfd4969682a48",
      "scriptpubkey_asm": "OP_0 OP_PUSHBYTES_20 30931bdccd3f2a00e1f38189540dfd4969682a48",
      "scriptpubkey_type": "v0_p2wpkh",
      "scriptpubkey_address": "bc1qxzf3hhxd8u4qpc0nsxy4gr0af95ks2jgqxnud3",
      "value": 198721
    }
  ],
  "size": 253,
  "weight": 685,
  "fee": 1898,
  "status": {
    "confirmed": true,
    "block_height": 834460,
    "block_hash": "00000000000000000000484a79b643b2524bbce82e5d8a442013fa5b8905ed98",
    "block_time": 1710307468
  },
  "hex": "020000000001012fa301bdd779122f69498590e8dd07146f2bb0b145b2ad1bfe0e40b11b30a5201600000000fdffffff03050c00000000000016001445e57d4cf19c4cb19397f563216180c83dd418892c080000000000001600144fa5fcc8dda9f7ce7b1eeb9970128e387e185cfa410803000000000016001430931bdccd3f2a00e1f38189540dfd4969682a48024730440220054954e7ee82cf780f6edb4541918935b4ff3780326e88e8f1d1fac4f2145aeb0220293e4a23a07c6773f6dc2f3f8985bc3337f167c39e5bdf2f11c8dbbe889d836c012103b9fe3aa16029d55ff8e7d6d1df7c987027c5105182346e41941cdcf1b8c8c1d300000000"
}