{
  "txid": "9d684d06b8e273e8e801ed86be03effe1869bbd35b477e9052a75dd4923a95e6",
  "version": 2,
  "locktime": 0,
  "vin": [
    {
      "txid": "bbce7c05b6d640ae6c9562e615dc020623798a484b04c8fb71cf20613f0bafaa",
      "vout": 0,
      "prevout": {
        "scriptpubkey": "5120bb9149256ddbed793a3100eb63ab57ae69f187daf7a2f77990dd632fb05c3a94",
        "scriptpubkey_asm": "OP_PUSHNUM_1 OP_PUSHBYTES_32 bb9149256ddbed793a3100eb63ab57ae69f187daf7a2f77990dd632fb05c3a94",
        "scriptpubkey_type": "v1_p2tr",
        "scriptpubkey_address": "bc1phwg5jftdm0khjw33qr4k826h4e5lrp767730w7vsm43jlvzu822qmrr4jj",
        "value": 10108
      },
      "scriptsig": "",
      "scriptsig_asm": "",
      "witness": [
        "061607c40888abc851b5082a9dbd24ded61ef6b3b963d1ed75cf6761e6443305d573bc5a91f4e7abcba2a50282a5575246f7080ac61004af326ad35c6ac2ed82",
        "20f2d00e1cce0b839d2e197679cac7a15152ec244338032c7767f72c1332d49a65ac0063036f726401010d696d6167652f7376672b786d6c004dc1013c7376672076696577426f783d2230203020383030203830302220786d6c6e733d22687474703a2f2f7777772e77332e6f72672f323030302f737667223e0a20203c696d61676520687265663d222f636f6e74656e742f61366130643730303464623839343436356364336133336265636634393164393064656164653432666132396465393363366465386264396337623135656237693022202f3e0a20203c696d61676520687265663d222f636f6e74656e742f35306531346261306534613763393434323266313566653832316431363061636332346232313864366264646161376337333836616537636231363539626534693022202f3e0a20203c696d61676520687265663d222f636f6e74656e742f32666632353632643561373136623566666336393535303034366638303333656637333763393539333437393433303062313936326637616236323835623563693022202f3e0a20203c696d61676520687265663d222f636f6e74656e742f33323033613763623139343439316238646564306431366434633963643231303633636230626531306138313661646339383763396330303532623766613263693022202f3e0a3c2f7376673e680063036f726401011e6170706c69636174696f6e2f6a736f6e3b636861727365743d7574662d38004d6a017b2270223a22766f7264222c2276223a312c227479223a22696e7363222c22636f6c223a2235613063386439393239343235323538386231353764353134343063326564323365376661643066653166313862373764643338653039323235363631303235222c22696964223a224b433338204d69616d6920436f6c6c656374696f6e20574c222c227075626c223a2231455337623370636a527a4667796969714c7278484b546e43686535364c4a485937222c226e6f6e6365223a35352c226d696e746572223a22626331707632756c646e6733616e6b6e71386634733865343032687a336e6c387a716a37346778336b687632357365386a36347275327071733877667673222c22736967223a2248494a7379726a333832574c58384841453651515854675137704a6746495a717161596368622b6b4b2f7a5a547a6642502f726e4c326342614b5154446e392b434c6969756b66696649744444306e4667382b595648633d227d68",
        "c0f2d00e1cce0b839d2e197679cac7a15152ec244338032c7767f72c1332d49a65675a92934efa5e4869b2432a3e00abfc6819367af43949c2edc693b32d23ac05"
      ],
      "is_coinbase": false,
      "sequence": 4294967293
    }
  ],
  "vout": [
    {
      "scriptpubkey": "512062b9f6cd11eced301d3581f357aae28cfe71025eaa0d1b5d8aa432796aa3e282",
      "scriptpubkey_asm": "OP_PUSHNUM_1 OP_PUSHBYTES_32 62b9f6cd11eced301d3581f357aae28cfe71025eaa0d1b5d8aa432796aa3e282",
      "scriptpubkey_type": "v1_p2tr",
      "scriptpubkey_address": "bc1pv2uldng3anknq8f4s8e402hz3nl8zqj74gx3khv25se8j64ru2pqs8wfvs",
      "value": 1000
    },
    {
      "scriptpubkey": "a91487ce76f472b10fe0546ab6c8ff081db48c455b2e87",
      "scriptpubkey_asm": "OP_HASH160 OP_PUSHBYTES_20 87ce76f472b10fe0546ab6c8ff081db48c455b2e OP_EQUAL",
      "scriptpubkey_type": "p2sh",
      "scriptpubkey_address": "3E56UrgiG1HDHZZANQUCtG6VhQ8pFq3FXH",
      "value": 1421
    },
    {
      "scriptpubkey": "51200705a5767db892e98125775049b1a13dd9ecdc8aea0df413cabbee683e871012",
      "scriptpubkey_asm": "OP_PUSHNUM_1 OP_PUSHBYTES_32 0705a5767db892e98125775049b1a13dd9ecdc8aea0df413cabbee683e871012",
      "scriptpubkey_type": "v1_p2tr",
      "scriptpubkey_address": "bc1pquz62anahzfwnqf9wagynvdp8hv7ehy2agxlgy72h0hxs058zqfqk8ksyq",
      "value": 2924
    }
  ],
  "size": 1222,
  "weight": 1729,
  "fee": 4763,
  "status": {
    "confirmed": true,
    "block_height": 834464,
    "block_hash": "0000000000000000000177a0869a911a2b65c9bdcd5a8bcb02b68f305bee848e",
    "block_time": 1710308296
  },
  "hex": "02000000000101aaaf0b3f6120cf71fbc8044b488a79230602dc15e662956cae40d6b6057ccebb0000000000fdffffff03e80300000000000022512062b9f6cd11eced301d3581f357aae28cfe71025eaa0d1b5d8aa432796aa3e2828d0500000000000017a91487ce76f472b10fe0546ab6c8ff081db48c455b2e876c0b0000000000002251200705a5767db892e98125775049b1a13dd9ecdc8aea0df413cabbee683e8710120340061607c40888abc851b5082a9dbd24ded61ef6b3b963d1ed75cf6761e6443305d573bc5a91f4e7abcba2a50282a5575246f7080ac61004af326ad35c6ac2ed82fd940320f2d00e1cce0b839d2e197679cac7a15152ec244338032c7767f72c1332d49a65ac0063036f726401010d696d6167652f7376672b786d6c004dc1013c7376672076696577426f783d2230203020383030203830302220786d6c6e733d22687474703a2f2f7777772e77332e6f72672f323030302f737667223e0a20203c696d61676520687265663d222f636f6e74656e742f61366130643730303464623839343436356364336133336265636634393164393064656164653432666132396465393363366465386264396337623135656237693022202f3e0a20203c696d61676520687265663d222f636f6e74656e742f35306531346261306534613763393434323266313566653832316431363061636332346232313864366264646161376337333836616537636231363539626534693022202f3e0a20203c696d61676520687265663d222f636f6e74656e742f32666632353632643561373136623566666336393535303034366638303333656637333763393539333437393433303062313936326637616236323835623563693022202f3e0a20203c696d61676520687265663d222f636f6e74656e742f33323033613763623139343439316238646564306431366434633963643231303633636230626531306138313661646339383763396330303532623766613263693022202f3e0a3c2f7376673e680063036f726401011e6170706c69636174696f6e2f6a736f6e3b636861727365743d7574662d38004d6a017b2270223a22766f7264222c2276223a312c227479223a22696e7363222c22636f6c223a2235613063386439393239343235323538386231353764353134343063326564323365376661643066653166313862373764643338653039323235363631303235222c22696964223a224b433338204d69616d6920436f6c6c656374696f6e20574c222c227075626c223a2231455337623370636a527a4667796969714c7278484b546e43686535364c4a485937222c226e6f6e6365223a35352c226d696e746572223a22626331707632756c646e6733616e6b6e71386634733865343032687a336e6c387a716a37346778336b687632357365386a36347275327071733877667673222c22736967223a2248494a7379726a333832574c58384841453651515854675137704a6746495a717161596368622b6b4b2f7a5a547a6642502f726e4c326342614b5154446e392b434c6969756b66696649744444306e4667382b595648633d227d6841c0f2d00e1cce0b839d2e197679cac7a15152ec244338032c7767f72c1332d49a65675a92934efa5e4869b2432a3e00abfc6819367af43949c2edc693b32d23ac0500000000"
}