{
  "txid": "9d6e346b069c03a3edb7f8405bc461474b6335342d1073c67ec8b2ab83b705f1",
  "version": 1,
  "locktime": 0,
  "vin": [
    {
      "txid": "6f01dbfedc8ca4c172ec4e3ac7658d6a195dfd6472067ceb2f7846471b7415b8",
      "vout": 2,
      "prevout": {
        "scriptpubkey": "76a9141fe2de41946c80a5d3c56ac886997cc471b9ab8188ac",
        "scriptpubkey_asm": "OP_DUP OP_HASH160 OP_PUSHBYTES_20 1fe2de41946c80a5d3c56ac886997cc471b9ab81 OP_EQUALVERIFY OP_CHECKSIG",
        "scriptpubkey_type": "p2pkh",
        "scriptpubkey_address": "13ubj2SSDWnCP234Bx1rix8qSk9LhQort3",
        "value": 160356
      },
      "scriptsig": "4830450221008ba6a3f087256b15f0dfc967c079863e1304fb61fe607744287911e7240aa4e302200801b64bd5f3473e274992b5814c5ea993f5062a8a1c6170f33c0297b29cdf66012102aee96f8d3e0abaf0759a434c7e5a0c9dd1ea89c99bec10605b27779414da80d9",
      "scriptsig_asm": "OP_PUSHBYTES_72 30450221008ba6a3f087256b15f0dfc967c079863e1304fb61fe607744287911e7240aa4e302200801b64bd5f3473e274992b5814c5ea993f5062a8a1c6170f33c0297b29cdf6601 OP_PUSHBYTES_33 02aee96f8d3e0abaf0759a434c7e5a0c9dd1ea89c99bec10605b27779414da80d9",
      "is_coinbase": false,
      "sequence": 4294967295
    }
  ],
  "vout": [
    {
      "scriptpubkey": "6a21134f45a2b88029aa1784d2355e761091a5264426f50737d224b01ddeecab4be1c5",
      "scriptpubkey_asm": "OP_RETURN OP_PUSHBYTES_33 134f45a2b88029aa1784d2355e761091a5264426f50737d224b01ddeecab4be1c5",
      "scriptpubkey_type": "op_return",
      "value": 0
    },
    {
      "scriptpubkey": "0014419854753506f2b3e771860f36eb919d89cc890f",
      "scriptpubkey_asm": "OP_0 OP_PUSHBYTES_20 419854753506f2b3e771860f36eb919d89cc890f",
      "scriptpubkey_type": "v0_p2wpkh",
      "scriptpubkey_address": "bc1qgxv9gaf4qmet8em3sc8nd6u3nkyuezg0cg9p36",
      "value": 1111
    },
    {
      "scriptpubkey": "76a9141fe2de41946c80a5d3c56ac886997cc471b9ab8188ac",
      "scriptpubkey_asm": "OP_DUP OP_HASH160 OP_PUSHBYTES_20 1fe2de41946c80a5d3c56ac886997cc471b9ab81 OP_EQUALVERIFY OP_CHECKSIG",
      "scriptpubkey_type": "p2pkh",
      "scriptpubkey_address": "13ubj2SSDWnCP234Bx1rix8qSk9LhQort3",
      "value": 155388
    }
  ],
  "size": 267,
  "weight": 1068,
  "fee": 3857,
  "status": {
    "confirmed": true,
    "block_height": 834460,
    "block_hash": "00000000000000000000484a79b643b2524bbce82e5d8a442013fa5b8905ed98",
    "block_time": 1710307468
  },
  "hex": "0100000001b815741b4746782feb7c067264fd5d196a8d65c73a4eec72c1a48cdcfedb016f020000006b4830450221008ba6a3f087256b15f0dfc967c079863e1304fb61fe607744287911e7240aa4e302200801b64bd5f3473e274992b5814c5ea993f5062a8a1c6170f33c0297b29cdf66012102aee96f8d3e0abaf0759a434c7e5a0c9dd1ea89c99bec10605b27779414da80d9ffffffff030000000000000000236a21134f45a2b88029aa1784d2355e761091a5264426f50737d224b01ddeecab4be1c55704000000000000160014419854753506f2b3e771860f36eb919d89cc890ffc5e0200000000001976a9141fe2de41946c80a5d3c56ac886997cc471b9ab8188ac00000000"
}