{
  "txid": "9d760f816c49fed61b2f413c86a439ef5cd05afa42ba92ac4133962fa5fbaac2",
  "version": 2,
  "locktime": 0,
  "vin": [
    {
      "txid": "0e02e5472d03e5fbf4b2d4b818a778d04af8ce00be730c8bd7efa30bb430c8c7",
      "vout": 0,
      "prevout": {
        "scriptpubkey": "51208b718cb7c4275647df912cd3ea024fe3781c0f3ff58d19208d595e6715d30926",
        "scriptpubkey_asm": "OP_PUSHNUM_1 OP_PUSHBYTES_32 8b718cb7c4275647df912cd3ea024fe3781c0f3ff58d19208d595e6715d30926",
        "scriptpubkey_type": "v1_p2tr",
        "scriptpubkey_address": "bc1p3dcced7yyaty0hu39nf75qj0udupcrel7kx3jgydt90xw9wnpynqcw06fx",
        "value": 55000
      },
      "scriptsig": "",
      "scriptsig_asm": "",
      "witness": [
        "bb5251dc0ad8ca2c1b2f50b18d0c2e1bfa4510c0724c3d6e595e08027d4732e577c7495c3c7a29521a47c5bedb58daacef0d02d9c19ac0637bcdb3a111ec55e4",
        "20855cf625a86a05bbe827869f775491a54364bd6bb40fe83441919deb5e86c5d4ac",
        "c0855cf625a86a05bbe827869f775491a54364bd6bb40fe83441919deb5e86c5d4"
      ],
      "is_coinbase": false,
      "sequence": 4294967293
    }
  ],
  "vout": [
    {
      "scriptpubkey": "5120331206fd1c8f470b446a255758f003bf543978e89eb8b714b7abeb9cbf4e9274",
      "scriptpubkey_asm": "OP_PUSHNUM_1 OP_PUSHBYTES_32 331206fd1c8f470b446a255758f003bf543978e89eb8b714b7abeb9cbf4e9274",
      "scriptpubkey_type": "v1_p2tr",
      "scriptpubkey_address": "bc1pxvfqdlgu3arsk3r2y4t43uqrha2rj78gn6utw99h404ee06wjf6q2kpxua",
      "value": 3141
    },
    {
      "scriptpubkey": "51209a71e412e54e650ae07aee4533e0bd768bcb5ce88e5fecc534699cf8c14940d9",
      "scriptpubkey_asm": "OP_PUSHNUM_1 OP_PUSHBYTES_32 9a71e412e54e650ae07aee4533e0bd768bcb5ce88e5fecc534699cf8c14940d9",
      "scriptpubkey_type": "v1_p2tr",
      "scriptpubkey_address": "bc1pnfc7gyh9fejs4cr6aezn8c9aw69ukh8g3e07e3f5dxw03s2fgrvsnfrcxj",
      "value": 3141
    },
    {
      "scriptpubkey": "5120f36436b36400bfa19a969fa85977b3bec31a9e67664ad7ad923bc8f3841b7a6a",
      "scriptpubkey_asm": "OP_PUSHNUM_1 OP_PUSHBYTES_32 f36436b36400bfa19a969fa85977b3bec31a9e67664ad7ad923bc8f3841b7a6a",
      "scriptpubkey_type": "v1_p2tr",
      "scriptpubkey_address": "bc1p7djrdvmyqzl6rx5kn759jaanhmp348n8ve9d0tvj80y08pqm0f4qvrkprd",
      "value": 3141
    },
    {
      "scriptpubkey": "512030f9d3bfc7ac08a00b78900305b26d4b3411210a94b366dd57d40da4b20a7974",
      "scriptpubkey_asm": "OP_PUSHNUM_1 OP_PUSHBYTES_32 30f9d3bfc7ac08a00b78900305b26d4b3411210a94b366dd57d40da4b20a7974",
      "scriptpubkey_type": "v1_p2tr",
      "scriptpubkey_address": "bc1pxrua80784sy2qzmcjqpstvndfv6pzgg2jjekdh2h6sx6fvs2096q4aun6j",
      "value": 3141
    },
    {
      "scriptpubkey": "5120244c16b0d6a3afbeccf6e13d9735962259b9031a6279d3ef408490b783b6f39e",
      "scriptpubkey_asm": "OP_PUSHNUM_1 OP_PUSHBYTES_32 244c16b0d6a3afbeccf6e13d9735962259b9031a6279d3ef408490b783b6f39e",
      "scriptpubkey_type": "v1_p2tr",
      "scriptpubkey_address": "bc1py3xpdvxk5whman8kuy7ewdvkyfvmjqc6vfua8m6qsjgt0qak7w0qfalu0n",
      "value": 3141
    },
    {
      "scriptpubkey": "5120dd4eed82e15a5f7e5b0af2abb53a492f9d36f1928c796408d42064f8481e5c72",
      "scriptpubkey_asm": "OP_PUSHNUM_1 OP_PUSHBYTES_32 dd4eed82e15a5f7e5b0af2abb53a492f9d36f1928c796408d42064f8481e5c72",
      "scriptpubkey_type": "v1_p2tr",
      "scriptpubkey_address": "bc1pm48wmqhptf0hukc2724m2wjf97wnduvj33ukgzx5ypj0sjq7t3eqfv48ha",
      "value": 3141
    },
    {
      "scriptpubkey": "51200a487bb9f72b3e493880c801474b61c04a6e5e1579ad2100cdd93f84ed4a4bdc",
      "scriptpubkey_asm": "OP_PUSHNUM_1 OP_PUSHBYTES_32 0a487bb9f72b3e493880c801474b61c04a6e5e1579ad2100cdd93f84ed4a4bdc",
      "scriptpubkey_type": "v1_p2tr",
      "scriptpubkey_address": "bc1ppfy8hw0h9vlyjwyqeqq5wjmpcp9xuhs40xkjzqxdmylcfm22f0wqtysqxh",
      "value": 3141
    },
    {
      "scriptpubkey": "5120b42276b5b7b8a45cfcff3524a55530f625ff34fe8a54d5605b2e4ccce5fbca39",
      "scriptpubkey_asm": "OP_PUSHNUM_1 OP_PUSHBYTES_32 b42276b5b7b8a45cfcff3524a55530f625ff34fe8a54d5605b2e4ccce5fbca39",
      "scriptpubkey_type": "v1_p2tr",
      "scriptpubkey_address": "bc1pks38dddhhzj9el8lx5j224fs7cjl7d873f2d2czm9exvee0megustcmkcq",
      "value": 3141
    },
    {
      "scriptpubkey": "5120ed58dffbeff92ffe191943a35ad2545f2895d87edf7ea45935f005dd163f683b",
      "scriptpubkey_asm": "OP_PUSHNUM_1 OP_PUSHBYTES_32 ed58dffbeff92ffe191943a35ad2545f2895d87edf7ea45935f005dd163f683b",
      "scriptpubkey_type": "v1_p2tr",
      "scriptpubkey_address": "bc1pa4vdl7l0lyhluxgegw3445j5tu5ftkr7mal2gkf47qza693ldqasmy63mv",
      "value": 3141
    },
    {
      "scriptpubkey": "0014d9d200ae31c054a355cfc8fd0cceae82dd3dff78",
      "scriptpubkey_asm": "OP_0 OP_PUSHBYTES_20 d9d200ae31c054a355cfc8fd0cceae82dd3dff78",
      "scriptpubkey_type": "v0_p2wpkh",
      "scriptpubkey_address": "bc1qm8fqpt33cp22x4w0er7sen4wstwnmlmc6y0ccz",
      "value": 19220
    }
  ],
  "size": 606,
  "weight": 2013,
  "fee": 7511,
  "status": {
    "confirmed": true,
    "block_height": 834460,
    "block_hash": "00000000000000000000484a79b643b2524bbce82e5d8a442013fa5b8905ed98",
    "block_time": 1710307468
  },
  "hex": "02000000000101c7c830b40ba3efd78b0c73be00cef84ad078a718b8d4b2f4fbe5032d47e5020e0000000000fdffffff0a450c000000000000225120331206fd1c8f470b446a255758f003bf543978e89eb8b714b7abeb9cbf4e9274450c0000000000002251209a71e412e54e650ae07aee4533e0bd768bcb5ce88e5fecc534699cf8c14940d9450c000000000000225120f36436b36400bfa19a969fa85977b3bec31a9e67664ad7ad923bc8f3841b7a6a450c00000000000022512030f9d3bfc7ac08a00b78900305b26d4b3411210a94b366dd57d40da4b20a7974450c000000000000225120244c16b0d6a3afbeccf6e13d9735962259b9031a6279d3ef408490b783b6f39e450c000000000000225120dd4eed82e15a5f7e5b0af2abb53a492f9d36f1928c796408d42064f8481e5c72450c0000000000002251200a487bb9f72b3e493880c801474b61c04a6e5e1579ad2100cdd93f84ed4a4bdc450c000000000000225120b42276b5b7b8a45cfcff3524a55530f625ff34fe8a54d5605b2e4ccce5fbca39450c000000000000225120ed58dffbeff92ffe191943a35ad2545f2895d87edf7ea45935f005dd163f683b144b000000000000160014d9d200ae31c054a355cfc8fd0cceae82dd3dff780340bb5251dc0ad8ca2c1b2f50b18d0c2e1bfa4510c0724c3d6e595e08027d4732e577c7495c3c7a29521a47c5bedb58daacef0d02d9c19ac0637bcdb3a111ec55e42220855cf625a86a05bbe827869f775491a54364bd6bb40fe83441919deb5e86c5d4ac21c0855cf625a86a05bbe827869f775491a54364bd6bb40fe83441919deb5e86c5d400000000"
}