{
  "txid": "9d82a47201944ba330a23ca21d957d6bfab1bdb9b2b7e3d1e239c3811cd0c5c6",
  "version": 2,
  "locktime": 0,
  "vin": [
    {
      "txid": "fa2569684489ac4d7d44f1d4a54af2f1a288c0e000cfcc7067192bfbef878e27",
      "vout": 0,
      "prevout": {
        "scriptpubkey": "5120ce1039e86ac13577cd4326765ba3200b544396098351b2e80f43249242f1df4b",
        "scriptpubkey_asm": "OP_PUSHNUM_1 OP_PUSHBYTES_32 ce1039e86ac13577cd4326765ba3200b544396098351b2e80f43249242f1df4b",
        "scriptpubkey_type": "v1_p2tr",
        "scriptpubkey_address": "bc1pecgrn6r2cy6h0n2ryem9hgeqpd2y89sfsdgm96q0gvjfysh3ma9s5qk0xg",
        "value": 546
      },
      "scriptsig": "",
      "scriptsig_asm": "",
      "witness": [
        "019120e15d9f6c9ed9a3e0511971cc43fa2cead14103be8e743f491202115ef76753acb8448828044cbb7739810be0ddf55f41eb7891ff8a155ed11e017b8f10"
      ],
      "is_coinbase": false,
      "sequence": 4294967295
    },
    {
      "txid": "7f5584729c3cc91cd810bfef032900c2126d98897b03cf89d115916bb56751ba",
      "vout": 1,
      "prevout": {
        "scriptpubkey": "5120ce1039e86ac13577cd4326765ba3200b544396098351b2e80f43249242f1df4b",
        "scriptpubkey_asm": "OP_PUSHNUM_1 OP_PUSHBYTES_32 ce1039e86ac13577cd4326765ba3200b544396098351b2e80f43249242f1df4b",
        "scriptpubkey_type": "v1_p2tr",
        "scriptpubkey_address": "bc1pecgrn6r2cy6h0n2ryem9hgeqpd2y89sfsdgm96q0gvjfysh3ma9s5qk0xg",
        "value": 73937
      },
      "scriptsig": "",
      "scriptsig_asm": "",
      "witness": [
        "1855efa1901a5627e7084bbe599ee383d7485ecb3cf321ef44ac48a2105c050e95ffae7d53e7fc5fefef85d26fca8404221bd69c58f87bd47a525035b29ca86b"
      ],
      "is_coinbase": false,
      "sequence": 4294967295
    }
  ],
  "vout": [
    {
      "scriptpubkey": "512009e4f206bf21ad6d5a6cc6d93280f36e24b811b22b8edc7a56463f548442fd64",
      "scriptpubkey_asm": "OP_PUSHNUM_1 OP_PUSHBYTES_32 09e4f206bf21ad6d5a6cc6d93280f36e24b811b22b8edc7a56463f548442fd64",
      "scriptpubkey_type": "v1_p2tr",
      "scriptpubkey_address": "bc1pp8j0yp4lyxkk6knvcmvn9q8ndcjtsydj9w8dc7jkgcl4fpzzl4jqkgexca",
      "value": 546
    },
    {
      "scriptpubkey": "5120ce1039e86ac13577cd4326765ba3200b544396098351b2e80f43249242f1df4b",
      "scriptpubkey_asm": "OP_PUSHNUM_1 OP_PUSHBYTES_32 ce1039e86ac13577cd4326765ba3200b544396098351b2e80f43249242f1df4b",
      "scriptpubkey_type": "v1_p2tr",
      "scriptpubkey_address": "bc1pecgrn6r2cy6h0n2ryem9hgeqpd2y89sfsdgm96q0gvjfysh3ma9s5qk0xg",
      "value": 70757
    }
  ],
  "size": 312,
  "weight": 846,
  "fee": 3180,
  "status": {
    "confirmed": true,
    "block_height": 834460,
    "block_hash": "00000000000000000000484a79b643b2524bbce82e5d8a442013fa5b8905ed98",
    "block_time": 1710307468
  },
  "hex": "02000000000102278e87effb2b196770cccf00e0c088a2f1f24aa5d4f1447d4dac8944686925fa0000000000ffffffffba5167b56b9115d189cf037b89986d12c2002903efbf10d81cc93c9c7284557f0100000000ffffffff02220200000000000022512009e4f206bf21ad6d5a6cc6d93280f36e24b811b22b8edc7a56463f548442fd646514010000000000225120ce1039e86ac13577cd4326765ba3200b544396098351b2e80f43249242f1df4b0140019120e15d9f6c9ed9a3e0511971cc43fa2cead14103be8e743f491202115ef76753acb8448828044cbb7739810be0ddf55f41eb7891ff8a155ed11e017b8f1001401855efa1901a5627e7084bbe599ee383d7485ecb3cf321ef44ac48a2105c050e95ffae7d53e7fc5fefef85d26fca8404221bd69c58f87bd47a525035b29ca86b00000000"
}