{
  "txid": "9d82c9dbe26be42c3b9bcc81bacc2460480c12c119c783c13dd9742ff4c44056",
  "version": 2,
  "locktime": 0,
  "vin": [
    {
      "txid": "6a6477efc4f489140c6bbf55486219a0a8626ac7041c5ffa755e21e2aa455b93",
      "vout": 0,
      "prevout": {
        "scriptpubkey": "5120159b2bdfeffb12db402d238052611f4c948c4afeb8ffa9a7832241f536a8a8d2",
        "scriptpubkey_asm": "OP_PUSHNUM_1 OP_PUSHBYTES_32 159b2bdfeffb12db402d238052611f4c948c4afeb8ffa9a7832241f536a8a8d2",
        "scriptpubkey_type": "v1_p2tr",
        "scriptpubkey_address": "bc1pzkdjhhl0lvfdkspdywq9ycglfj2gcjh7hrl6nfuryfql2d4g4rfq2jugza",
        "value": 546
      },
      "scriptsig": "",
      "scriptsig_asm": "",
      "witness": [
        "262e47952479199e528d95b9d62b9a2cd803db2bd1cc2e740eb95a583855e3276b53157787972a4f21bd5445b08f86aeae2776ff4797ae83d1dddc67bffec9ca"
      ],
      "is_coinbase": false,
      "sequence": 2147483649
    },
    {
      "txid": "b0e7ac9ca595f2ee0052bcf7b962ab482265e268e85d54cc7140ffc7723d979a",
      "vout": 5,
      "prevout": {
        "scriptpubkey": "5120159b2bdfeffb12db402d238052611f4c948c4afeb8ffa9a7832241f536a8a8d2",
        "scriptpubkey_asm": "OP_PUSHNUM_1 OP_PUSHBYTES_32 159b2bdfeffb12db402d238052611f4c948c4afeb8ffa9a7832241f536a8a8d2",
        "scriptpubkey_type": "v1_p2tr",
        "scriptpubkey_address": "bc1pzkdjhhl0lvfdkspdywq9ycglfj2gcjh7hrl6nfuryfql2d4g4rfq2jugza",
        "value": 18254
      },
      "scriptsig": "",
      "scriptsig_asm": "",
      "witness": [
        "3add13418bb8ddf263680750fd9e8c906e8e3154f26696eed487b938d35241183ea8c7785e2225c1d3a7d7f6bfda21f58abd935ec7f3fd2b353649da9bc72834"
      ],
      "is_coinbase": false,
      "sequence": 2147483649
    }
  ],
  "vout": [
    {
      "scriptpubkey": "512088a3958e57e1d8dd20a78469e7f0ae8b16186c871125a09e60430d70a9358ed1",
      "scriptpubkey_asm": "OP_PUSHNUM_1 OP_PUSHBYTES_32 88a3958e57e1d8dd20a78469e7f0ae8b16186c871125a09e60430d70a9358ed1",
      "scriptpubkey_type": "v1_p2tr",
      "scriptpubkey_address": "bc1p3z3etrjhu8vd6g98s3570u9w3vtpsmy8zyj6p8nqgvxhp2f43mgsjv53yj",
      "value": 546
    },
    {
      "scriptpubkey": "5120159b2bdfeffb12db402d238052611f4c948c4afeb8ffa9a7832241f536a8a8d2",
      "scriptpubkey_asm": "OP_PUSHNUM_1 OP_PUSHBYTES_32 159b2bdfeffb12db402d238052611f4c948c4afeb8ffa9a7832241f536a8a8d2",
      "scriptpubkey_type": "v1_p2tr",
      "scriptpubkey_address": "bc1pzkdjhhl0lvfdkspdywq9ycglfj2gcjh7hrl6nfuryfql2d4g4rfq2jugza",
      "value": 14667
    }
  ],
  "size": 312,
  "weight": 846,
  "fee": 3587,
  "status": {
    "confirmed": true,
    "block_height": 834638,
    "block_hash": "000000000000000000025f742c626208ac87e0b7d15054abb4a19ca2d735a54e",
    "block_time": 1710405325
  },
  "hex": "02000000000102935b45aae2215e75fa5f1c04c76a62a8a019624855bf6b0c1489f4c4ef77646a0000000000010000809a973d72c7ff4071cc545de868e2652248ab62b9f7bc5200eef295a59cace7b005000000000100008002220200000000000022512088a3958e57e1d8dd20a78469e7f0ae8b16186c871125a09e60430d70a9358ed14b39000000000000225120159b2bdfeffb12db402d238052611f4c948c4afeb8ffa9a7832241f536a8a8d20140262e47952479199e528d95b9d62b9a2cd803db2bd1cc2e740eb95a583855e3276b53157787972a4f21bd5445b08f86aeae2776ff4797ae83d1dddc67bffec9ca01403add13418bb8ddf263680750fd9e8c906e8e3154f26696eed487b938d35241183ea8c7785e2225c1d3a7d7f6bfda21f58abd935ec7f3fd2b353649da9bc7283400000000"
}