{
  "txid": "9d83a58b181ba41c9c448ce17f3523faf7aae2e4d7903256190ee6d0d8e49ac5",
  "version": 2,
  "locktime": 834637,
  "vin": [
    {
      "txid": "f5884fe4aaeb241226e530b22c5fd1381a01107115166b3e4a4f0483bc9d606e",
      "vout": 32,
      "prevout": {
        "scriptpubkey": "001473b6cbee0bfdcc81eeccc583624d884cd0321adb",
        "scriptpubkey_asm": "OP_0 OP_PUSHBYTES_20 73b6cbee0bfdcc81eeccc583624d884cd0321adb",
        "scriptpubkey_type": "v0_p2wpkh",
        "scriptpubkey_address": "bc1qwwmvhmstlhxgrmkvckpkynvgfngryxkmq3xefs",
        "value": 503986
      },
      "scriptsig": "",
      "scriptsig_asm": "",
      "witness": [
        "30440220155d804e62cd9032ad684f23a1eb3a8b3cc4c16fd4156ba23fa00484152b302e0220711eb660869ca8791da8cdb5bce4f04764ce956c338b6c7a278f632891ee588901",
        "02235db4f7f905e62621b5b999718e7e7178ed5336d04e61ff1cfb70fcc23e6106"
      ],
      "is_coinbase": false,
      "sequence": 4294967293
    }
  ],
  "vout": [
    {
      "scriptpubkey": "0014898c47019e3b9ea50438f6522f304e96d6b00593",
      "scriptpubkey_asm": "OP_0 OP_PUSHBYTES_20 898c47019e3b9ea50438f6522f304e96d6b00593",
      "scriptpubkey_type": "v0_p2wpkh",
      "scriptpubkey_address": "bc1q3xxywqv78w022ppc7efz7vzwjmttqpvn7ztgnc",
      "value": 501016
    }
  ],
  "size": 191,
  "weight": 437,
  "fee": 2970,
  "status": {
    "confirmed": true,
    "block_height": 834638,
    "block_hash": "000000000000000000025f742c626208ac87e0b7d15054abb4a19ca2d735a54e",
    "block_time": 1710405325
  },
  "hex": "020000000001016e609dbc83044f4a3e6b16157110011a38d15f2cb230e5261224ebaae44f88f52000000000fdffffff0118a5070000000000160014898c47019e3b9ea50438f6522f304e96d6b00593024730440220155d804e62cd9032ad684f23a1eb3a8b3cc4c16fd4156ba23fa00484152b302e0220711eb660869ca8791da8cdb5bce4f04764ce956c338b6c7a278f632891ee5889012102235db4f7f905e62621b5b999718e7e7178ed5336d04e61ff1cfb70fcc23e61064dbc0c00"
}