{
  "txid": "9d85547186a4edcc9f06e5f7c356d972d6d156be94cf5e1bb11e0dcaea4f7e0b",
  "version": 2,
  "locktime": 0,
  "vin": [
    {
      "txid": "5010a3eae44805d854dd0c2dfd9382da67f0f339c274a34528b1c3d37a682aa0",
      "vout": 1,
      "prevout": {
        "scriptpubkey": "512034c48035bf891dda674dcb92b98599f238752bdc38a3f3034b0e2bd4c53ca8ee",
        "scriptpubkey_asm": "OP_PUSHNUM_1 OP_PUSHBYTES_32 34c48035bf891dda674dcb92b98599f238752bdc38a3f3034b0e2bd4c53ca8ee",
        "scriptpubkey_type": "v1_p2tr",
        "scriptpubkey_address": "bc1pxnzgqddl3ywa5e6dewftnpve7gu8227u8z3lxq6tpc4af3fu4rhqq2dtt7",
        "value": 115303
      },
      "scriptsig": "",
      "scriptsig_asm": "",
      "witness": [
        "ee73e714233c51514236187d0ffde5cc694225bbd8d67abc4afd43a5b82a3286061547dbdb4f77e2ea28e3506fc4f79add58d7f15395b3d866f1ae6950f21291"
      ],
      "is_coinbase": false,
      "sequence": 4294967295
    }
  ],
  "vout": [
    {
      "scriptpubkey": "51206b795831f3d6cbe374e2925b2cf364eff2404fe243aea95c548fcbd8ca03ca18",
      "scriptpubkey_asm": "OP_PUSHNUM_1 OP_PUSHBYTES_32 6b795831f3d6cbe374e2925b2cf364eff2404fe243aea95c548fcbd8ca03ca18",
      "scriptpubkey_type": "v1_p2tr",
      "scriptpubkey_address": "bc1pddu4sv0n6m97xa8zjfdjeumyaleyqnlzgwh2jhz53l9a3jsregvq8pv2gx",
      "value": 43000
    },
    {
      "scriptpubkey": "512034c48035bf891dda674dcb92b98599f238752bdc38a3f3034b0e2bd4c53ca8ee",
      "scriptpubkey_asm": "OP_PUSHNUM_1 OP_PUSHBYTES_32 34c48035bf891dda674dcb92b98599f238752bdc38a3f3034b0e2bd4c53ca8ee",
      "scriptpubkey_type": "v1_p2tr",
      "scriptpubkey_address": "bc1pxnzgqddl3ywa5e6dewftnpve7gu8227u8z3lxq6tpc4af3fu4rhqq2dtt7",
      "value": 69685
    }
  ],
  "size": 205,
  "weight": 616,
  "fee": 2618,
  "status": {
    "confirmed": true,
    "block_height": 834638,
    "block_hash": "000000000000000000025f742c626208ac87e0b7d15054abb4a19ca2d735a54e",
    "block_time": 1710405325
  },
  "hex": "02000000000101a02a687ad3c3b12845a374c239f3f067da8293fd2d0cdd54d80548e4eaa310500100000000ffffffff02f8a70000000000002251206b795831f3d6cbe374e2925b2cf364eff2404fe243aea95c548fcbd8ca03ca18351001000000000022512034c48035bf891dda674dcb92b98599f238752bdc38a3f3034b0e2bd4c53ca8ee0140ee73e714233c51514236187d0ffde5cc694225bbd8d67abc4afd43a5b82a3286061547dbdb4f77e2ea28e3506fc4f79add58d7f15395b3d866f1ae6950f2129100000000"
}