{
  "txid": "9d9900de61b17efda3cbf241ac79d7577283e3c2079381abdfe5fb8d6270e23b",
  "version": 2,
  "locktime": 0,
  "vin": [
    {
      "txid": "acc3ba00869acb582a3f2904ce3a11dd3779350ce234063fc7d0959246213364",
      "vout": 26,
      "prevout": {
        "scriptpubkey": "5120479b3db8b90f513f49a6ddd26ddaf1b21654806398a54703aa8ba5163275889b",
        "scriptpubkey_asm": "OP_PUSHNUM_1 OP_PUSHBYTES_32 479b3db8b90f513f49a6ddd26ddaf1b21654806398a54703aa8ba5163275889b",
        "scriptpubkey_type": "v1_p2tr",
        "scriptpubkey_address": "bc1pg7dnmw9epagn7jdxmhfxmkh3kgt9fqrrnzj5wqa23wj3vvn43zdss2xuh9",
        "value": 1806
      },
      "scriptsig": "",
      "scriptsig_asm": "",
      "witness": [
        "2a4e12a5edb155f561f25a147ff93cd110bf12c3d887fa7528e2f1c918a00abe0e8ea8259491168ebc0770cd162d9760de26e63a9b2e0a5e2e0bcf7d36904734",
        "2041ebeda762377c57306124c037430c266ad9923760c693bf256b78d70db86d37ac0063036f726401010a746578742f706c61696e00357b2270223a226272632d3230222c226f70223a226d696e74222c227469636b223a22646f6765222c22616d74223a2234323030227d68",
        "c041ebeda762377c57306124c037430c266ad9923760c693bf256b78d70db86d37"
      ],
      "is_coinbase": false,
      "sequence": 4261412863
    }
  ],
  "vout": [
    {
      "scriptpubkey": "00147a665de7a370f4c9b372ab1fae587500a5bcbdb4",
      "scriptpubkey_asm": "OP_0 OP_PUSHBYTES_20 7a665de7a370f4c9b372ab1fae587500a5bcbdb4",
      "scriptpubkey_type": "v0_p2wpkh",
      "scriptpubkey_address": "bc1q0fn9mearwr6vnvmj4v06ukr4qzjme0d565dzcx",
      "value": 294
    }
  ],
  "size": 294,
  "weight": 540,
  "fee": 1512,
  "status": {
    "confirmed": true,
    "block_height": 834460,
    "block_hash": "00000000000000000000484a79b643b2524bbce82e5d8a442013fa5b8905ed98",
    "block_time": 1710307468
  },
  "hex": "02000000000101643321469295d0c73f0634e20c357937dd113ace04293f2a58cb9a8600bac3ac1a00000000fffffffd0126010000000000001600147a665de7a370f4c9b372ab1fae587500a5bcbdb403402a4e12a5edb155f561f25a147ff93cd110bf12c3d887fa7528e2f1c918a00abe0e8ea8259491168ebc0770cd162d9760de26e63a9b2e0a5e2e0bcf7d369047346d2041ebeda762377c57306124c037430c266ad9923760c693bf256b78d70db86d37ac0063036f726401010a746578742f706c61696e00357b2270223a226272632d3230222c226f70223a226d696e74222c227469636b223a22646f6765222c22616d74223a2234323030227d6821c041ebeda762377c57306124c037430c266ad9923760c693bf256b78d70db86d3700000000"
}