{
  "txid": "9d9bd71488f5e33c3974a2383ac182f9c827c86b233e6d17024fd5a52c9152fd",
  "version": 2,
  "locktime": 0,
  "vin": [
    {
      "txid": "6cc877b000bdd721ffce886db2f776147cae9658cb473f3901a637292a243b81",
      "vout": 0,
      "prevout": {
        "scriptpubkey": "0014caadfe0e5f3f273bea67f525db50037893fe7164",
        "scriptpubkey_asm": "OP_0 OP_PUSHBYTES_20 caadfe0e5f3f273bea67f525db50037893fe7164",
        "scriptpubkey_type": "v0_p2wpkh",
        "scriptpubkey_address": "bc1qe2klurjl8unnh6n875jak5qr0zfluuty84p3d5",
        "value": 1385217
      },
      "scriptsig": "",
      "scriptsig_asm": "",
      "witness": [
        "304402207d6ddcdc660529113dc50f0fb1bcae77e1fc84bb9792e3d0cc949637d16992cb0220522d35bf0c1fa0538d81f1cfbd417fe0d8a0a63b4eadee0eccbd840d0826315b01",
        "030511c98d7e679f1fcc58b6d3a25d20acd0cbf801cf3a5d3ae8323c64c49f320e"
      ],
      "is_coinbase": false,
      "sequence": 4294967293
    }
  ],
  "vout": [
    {
      "scriptpubkey": "0014a939f746cb6007e20ee0ecf7de4451f91d467ba6",
      "scriptpubkey_asm": "OP_0 OP_PUSHBYTES_20 a939f746cb6007e20ee0ecf7de4451f91d467ba6",
      "scriptpubkey_type": "v0_p2wpkh",
      "scriptpubkey_address": "bc1q4yulw3ktvqr7yrhqanmau3z3lyw5v7axa630ak",
      "value": 416407
    },
    {
      "scriptpubkey": "00144df43c7e48fd17824d7c02d41ce6062109e7aae4",
      "scriptpubkey_asm": "OP_0 OP_PUSHBYTES_20 4df43c7e48fd17824d7c02d41ce6062109e7aae4",
      "scriptpubkey_type": "v0_p2wpkh",
      "scriptpubkey_address": "bc1qfh6rcljgl5tcyntuqt2peesxyyy702hyfnwa72",
      "value": 965023
    }
  ],
  "size": 222,
  "weight": 561,
  "fee": 3787,
  "status": {
    "confirmed": true,
    "block_height": 834460,
    "block_hash": "00000000000000000000484a79b643b2524bbce82e5d8a442013fa5b8905ed98",
    "block_time": 1710307468
  },
  "hex": "02000000000101813b242a2937a601393f47cb5896ae7c1476f7b26d88ceff21d7bd00b077c86c0000000000fdffffff02975a060000000000160014a939f746cb6007e20ee0ecf7de4451f91d467ba69fb90e00000000001600144df43c7e48fd17824d7c02d41ce6062109e7aae40247304402207d6ddcdc660529113dc50f0fb1bcae77e1fc84bb9792e3d0cc949637d16992cb0220522d35bf0c1fa0538d81f1cfbd417fe0d8a0a63b4eadee0eccbd840d0826315b0121030511c98d7e679f1fcc58b6d3a25d20acd0cbf801cf3a5d3ae8323c64c49f320e00000000"
}