{
  "txid": "9da69e47cdc1615199ec10ef9057c1debabc678ad446228268af721ab7ca6b6b",
  "version": 2,
  "locktime": 0,
  "vin": [
    {
      "txid": "04908bdef91439632ff563ed870f82c7858843f351fcfcad6c688ed60924a49e",
      "vout": 1,
      "prevout": {
        "scriptpubkey": "5120f72e6047f62481cebe8b8a3eaa5f8448c88ac57b7404f401ce8f77fac414f210",
        "scriptpubkey_asm": "OP_PUSHNUM_1 OP_PUSHBYTES_32 f72e6047f62481cebe8b8a3eaa5f8448c88ac57b7404f401ce8f77fac414f210",
        "scriptpubkey_type": "v1_p2tr",
        "scriptpubkey_address": "bc1p7uhxq3lkyjqua05t3gl25huyfryg43tmwsz0gqww3aml43q57ggqev852u",
        "value": 938336
      },
      "scriptsig": "",
      "scriptsig_asm": "",
      "witness": [
        "fcf39c329986c33009e149affa2ed28a66ddaf95a037cf6ab209fb05f914d1652a8d075f8b62231d991edc1a15aea33ce85bd5b777acdac9fbc82784d3655873"
      ],
      "is_coinbase": false,
      "sequence": 4294967293
    }
  ],
  "vout": [
    {
      "scriptpubkey": "51200bf443841708e1723ec37916fe3c80d153054899cf93889a7157c860e085346d",
      "scriptpubkey_asm": "OP_PUSHNUM_1 OP_PUSHBYTES_32 0bf443841708e1723ec37916fe3c80d153054899cf93889a7157c860e085346d",
      "scriptpubkey_type": "v1_p2tr",
      "scriptpubkey_address": "bc1pp06y8pqhprshy0kr0yt0u0yq69fs2jyee7fc3xn32lyxpcy9x3ksjfhswl",
      "value": 2826
    },
    {
      "scriptpubkey": "5120f72e6047f62481cebe8b8a3eaa5f8448c88ac57b7404f401ce8f77fac414f210",
      "scriptpubkey_asm": "OP_PUSHNUM_1 OP_PUSHBYTES_32 f72e6047f62481cebe8b8a3eaa5f8448c88ac57b7404f401ce8f77fac414f210",
      "scriptpubkey_type": "v1_p2tr",
      "scriptpubkey_address": "bc1p7uhxq3lkyjqua05t3gl25huyfryg43tmwsz0gqww3aml43q57ggqev852u",
      "value": 933200
    }
  ],
  "size": 205,
  "weight": 616,
  "fee": 2310,
  "status": {
    "confirmed": true,
    "block_height": 834460,
    "block_hash": "00000000000000000000484a79b643b2524bbce82e5d8a442013fa5b8905ed98",
    "block_time": 1710307468
  },
  "hex": "020000000001019ea42409d68e686cadfcfc51f3438885c7820f87ed63f52f633914f9de8b90040100000000fdffffff020a0b0000000000002251200bf443841708e1723ec37916fe3c80d153054899cf93889a7157c860e085346d503d0e0000000000225120f72e6047f62481cebe8b8a3eaa5f8448c88ac57b7404f401ce8f77fac414f2100140fcf39c329986c33009e149affa2ed28a66ddaf95a037cf6ab209fb05f914d1652a8d075f8b62231d991edc1a15aea33ce85bd5b777acdac9fbc82784d365587300000000"
}