{
  "txid": "9daa68967cf3ecf5dd41c4218131afa3af4a46b3e40ac3088b98623d6dc31dac",
  "version": 2,
  "locktime": 834637,
  "vin": [
    {
      "txid": "20e04ddc752a35639b8bc4b38b163794fd378c02340580bf571c6c638ec8be2e",
      "vout": 1,
      "prevout": {
        "scriptpubkey": "0014c1160d970b63a1ba643e21de8c52b528a65370f1",
        "scriptpubkey_asm": "OP_0 OP_PUSHBYTES_20 c1160d970b63a1ba643e21de8c52b528a65370f1",
        "scriptpubkey_type": "v0_p2wpkh",
        "scriptpubkey_address": "bc1qcytqm9ctvwsm5ep7y80gc5449zn9xu83vzx9e5",
        "value": 89314
      },
      "scriptsig": "",
      "scriptsig_asm": "",
      "witness": [
        "304402201f6951cc2120d65ad16d1ce4dd87cf79e4e8fecf1d6c0107c6a49e60b3c57d46022038cf80dfc2bd979630d9c12d07f681ee5d8af2ae1442eb0c58acece48c2d1c4a01",
        "03e3cdda376606b470d4cbcb2e9fdb41653c9a54ec113efc7c5bb279429e35e6e5"
      ],
      "is_coinbase": false,
      "sequence": 4294967294
    }
  ],
  "vout": [
    {
      "scriptpubkey": "a9149a27187fbf3fefdb923189a2073877c62ceb537b87",
      "scriptpubkey_asm": "OP_HASH160 OP_PUSHBYTES_20 9a27187fbf3fefdb923189a2073877c62ceb537b OP_EQUAL",
      "scriptpubkey_type": "p2sh",
      "scriptpubkey_address": "3Fk6pW6UnMnH9WrhQQ44GbZ43XCBdjxqxz",
      "value": 86373
    }
  ],
  "size": 192,
  "weight": 441,
  "fee": 2941,
  "status": {
    "confirmed": true,
    "block_height": 834638,
    "block_hash": "000000000000000000025f742c626208ac87e0b7d15054abb4a19ca2d735a54e",
    "block_time": 1710405325
  },
  "hex": "020000000001012ebec88e636c1c57bf800534028c37fd9437168bb3c48b9b63352a75dc4de0200100000000feffffff01655101000000000017a9149a27187fbf3fefdb923189a2073877c62ceb537b870247304402201f6951cc2120d65ad16d1ce4dd87cf79e4e8fecf1d6c0107c6a49e60b3c57d46022038cf80dfc2bd979630d9c12d07f681ee5d8af2ae1442eb0c58acece48c2d1c4a012103e3cdda376606b470d4cbcb2e9fdb41653c9a54ec113efc7c5bb279429e35e6e54dbc0c00"
}