{
  "txid": "9db249840dbb2fdd6c569003737bd907d36b84a5c900484d16801fe467998ca7",
  "version": 2,
  "locktime": 0,
  "vin": [
    {
      "txid": "f8b2eb7001c813ad8846c557e95b1c46638b1e0efc8207ec24ee39c1e51c3eca",
      "vout": 1,
      "prevout": {
        "scriptpubkey": "51203f243e60c0b74f078efafb187405e19212a29e117f4fd847c2593a76ce7e0a55",
        "scriptpubkey_asm": "OP_PUSHNUM_1 OP_PUSHBYTES_32 3f243e60c0b74f078efafb187405e19212a29e117f4fd847c2593a76ce7e0a55",
        "scriptpubkey_type": "v1_p2tr",
        "scriptpubkey_address": "bc1p8ujrucxqka8s0rh6lvv8gp0pjgf298s30a8as37ztya8dnn7pf2suer0sg",
        "value": 158106
      },
      "scriptsig": "",
      "scriptsig_asm": "",
      "witness": [
        "62885a50a36d27d4e21dacdde4c08c9514f2d1ce96dc83dc948a2bbb35457bf0a8dbc167d6dc4791d386180d3559d9951294bd08bd492ec97614fcfcac70fbfc"
      ],
      "is_coinbase": false,
      "sequence": 4294967293
    }
  ],
  "vout": [
    {
      "scriptpubkey": "5120d98b1d6012d924f7dacddb5a1faf8cd43e800960a5e67fa73af37d6598f1c374",
      "scriptpubkey_asm": "OP_PUSHNUM_1 OP_PUSHBYTES_32 d98b1d6012d924f7dacddb5a1faf8cd43e800960a5e67fa73af37d6598f1c374",
      "scriptpubkey_type": "v1_p2tr",
      "scriptpubkey_address": "bc1pmx936cqjmyj00kkdmddpltuv6slgqztq5hn8lfe67d7ktx83cd6qdl3c3w",
      "value": 2826
    },
    {
      "scriptpubkey": "51203f243e60c0b74f078efafb187405e19212a29e117f4fd847c2593a76ce7e0a55",
      "scriptpubkey_asm": "OP_PUSHNUM_1 OP_PUSHBYTES_32 3f243e60c0b74f078efafb187405e19212a29e117f4fd847c2593a76ce7e0a55",
      "scriptpubkey_type": "v1_p2tr",
      "scriptpubkey_address": "bc1p8ujrucxqka8s0rh6lvv8gp0pjgf298s30a8as37ztya8dnn7pf2suer0sg",
      "value": 152970
    }
  ],
  "size": 205,
  "weight": 616,
  "fee": 2310,
  "status": {
    "confirmed": true,
    "block_height": 834460,
    "block_hash": "00000000000000000000484a79b643b2524bbce82e5d8a442013fa5b8905ed98",
    "block_time": 1710307468
  },
  "hex": "02000000000101ca3e1ce5c139ee24ec0782fc0e1e8b63461c5be957c54688ad13c80170ebb2f80100000000fdffffff020a0b000000000000225120d98b1d6012d924f7dacddb5a1faf8cd43e800960a5e67fa73af37d6598f1c3748a550200000000002251203f243e60c0b74f078efafb187405e19212a29e117f4fd847c2593a76ce7e0a55014062885a50a36d27d4e21dacdde4c08c9514f2d1ce96dc83dc948a2bbb35457bf0a8dbc167d6dc4791d386180d3559d9951294bd08bd492ec97614fcfcac70fbfc00000000"
}