{
  "txid": "9dbafcbfc78f1f71993186add1d5bceeacac926ce70a133f3c52607abcc3ee97",
  "version": 2,
  "locktime": 0,
  "vin": [
    {
      "txid": "f2adb41a5e5dde999750d6571a51af3c6a75db7d167decf10a25d53565d78d83",
      "vout": 3,
      "prevout": {
        "scriptpubkey": "76a914c5cafc7b6675a1e866321925f81e54187a4afe8e88ac",
        "scriptpubkey_asm": "OP_DUP OP_HASH160 OP_PUSHBYTES_20 c5cafc7b6675a1e866321925f81e54187a4afe8e OP_EQUALVERIFY OP_CHECKSIG",
        "scriptpubkey_type": "p2pkh",
        "scriptpubkey_address": "1K2qHXLYBigZe51r2MJb1bzR3yZtYDgM7z",
        "value": 1302112
      },
      "scriptsig": "473044022060c2b94c0d066267c60325da18a5a6aec3eeec0c97761624cc2d289775b86cca022031cc8d2f79bd3f13efd710cc4194727a16a00dd5a2700c90f0631baa14e1380b012103d8ffc60c7d24987f3c5851d65f0fa12cc3f28e3c6cb345dcc6a220f9dad2e554",
      "scriptsig_asm": "OP_PUSHBYTES_71 3044022060c2b94c0d066267c60325da18a5a6aec3eeec0c97761624cc2d289775b86cca022031cc8d2f79bd3f13efd710cc4194727a16a00dd5a2700c90f0631baa14e1380b01 OP_PUSHBYTES_33 03d8ffc60c7d24987f3c5851d65f0fa12cc3f28e3c6cb345dcc6a220f9dad2e554",
      "is_coinbase": false,
      "sequence": 4294967293
    },
    {
      "txid": "f2adb41a5e5dde999750d6571a51af3c6a75db7d167decf10a25d53565d78d83",
      "vout": 6,
      "prevout": {
        "scriptpubkey": "76a914c5cafc7b6675a1e866321925f81e54187a4afe8e88ac",
        "scriptpubkey_asm": "OP_DUP OP_HASH160 OP_PUSHBYTES_20 c5cafc7b6675a1e866321925f81e54187a4afe8e OP_EQUALVERIFY OP_CHECKSIG",
        "scriptpubkey_type": "p2pkh",
        "scriptpubkey_address": "1K2qHXLYBigZe51r2MJb1bzR3yZtYDgM7z",
        "value": 430165
      },
      "scriptsig": "4830450221008c7ca596e947ff3f58537c33447958b25903c14c5a551405d9b6ebc5ca5d763c02202c9a419a876cafe4b5d0380854e2021278c2b2ae00b8d820608a61423dc0aa75012103d8ffc60c7d24987f3c5851d65f0fa12cc3f28e3c6cb345dcc6a220f9dad2e554",
      "scriptsig_asm": "OP_PUSHBYTES_72 30450221008c7ca596e947ff3f58537c33447958b25903c14c5a551405d9b6ebc5ca5d763c02202c9a419a876cafe4b5d0380854e2021278c2b2ae00b8d820608a61423dc0aa7501 OP_PUSHBYTES_33 03d8ffc60c7d24987f3c5851d65f0fa12cc3f28e3c6cb345dcc6a220f9dad2e554",
      "is_coinbase": false,
      "sequence": 4294967293
    }
  ],
  "vout": [
    {
      "scriptpubkey": "00145d326ed4bab0161521251723da97dd2ef46f662a",
      "scriptpubkey_asm": "OP_0 OP_PUSHBYTES_20 5d326ed4bab0161521251723da97dd2ef46f662a",
      "scriptpubkey_type": "v0_p2wpkh",
      "scriptpubkey_address": "bc1qt5exa496kqtp2gf9zu3a497a9m6x7e32safhgg",
      "value": 1686647
    }
  ],
  "size": 336,
  "weight": 1344,
  "fee": 45630,
  "status": {
    "confirmed": true,
    "block_height": 834638,
    "block_hash": "000000000000000000025f742c626208ac87e0b7d15054abb4a19ca2d735a54e",
    "block_time": 1710405325
  },
  "hex": "0200000002838dd76535d5250af1ec7d167ddb756a3caf511a57d6509799de5d5e1ab4adf2030000006a473044022060c2b94c0d066267c60325da18a5a6aec3eeec0c97761624cc2d289775b86cca022031cc8d2f79bd3f13efd710cc4194727a16a00dd5a2700c90f0631baa14e1380b012103d8ffc60c7d24987f3c5851d65f0fa12cc3f28e3c6cb345dcc6a220f9dad2e554fdffffff838dd76535d5250af1ec7d167ddb756a3caf511a57d6509799de5d5e1ab4adf2060000006b4830450221008c7ca596e947ff3f58537c33447958b25903c14c5a551405d9b6ebc5ca5d763c02202c9a419a876cafe4b5d0380854e2021278c2b2ae00b8d820608a61423dc0aa75012103d8ffc60c7d24987f3c5851d65f0fa12cc3f28e3c6cb345dcc6a220f9dad2e554fdffffff0177bc1900000000001600145d326ed4bab0161521251723da97dd2ef46f662a00000000"
}