{
  "txid": "9dc6882e862362bdeeef60fe5dbfd20ec25de0ee273ca77739697273751680fd",
  "version": 1,
  "locktime": 0,
  "vin": [
    {
      "txid": "87a9fa3729cdbea5dd6938a09351b250c2fed701488cf87c1e59243da41a01f4",
      "vout": 1,
      "prevout": {
        "scriptpubkey": "00140ebebe71738faea4c5de20a15a0b04bd8b4b034b",
        "scriptpubkey_asm": "OP_0 OP_PUSHBYTES_20 0ebebe71738faea4c5de20a15a0b04bd8b4b034b",
        "scriptpubkey_type": "v0_p2wpkh",
        "scriptpubkey_address": "bc1qp6ltuutn37h2f3w7yzs45zcyhk95kq6tghdzdj",
        "value": 559159
      },
      "scriptsig": "",
      "scriptsig_asm": "",
      "witness": [
        "304402202191641dbc48d5efa3b7366614e8fecbd5e955d849f29aba5b14a964c92b372d0220777da5dc62433ee42441ab2e27d94430d1eae4fffd24fe28a729d6179f628a8101",
        "033abc04c3c8aa3d7b7965e7b1ae3d1df65245e89f42bd6ea396d25c8554b77cbe"
      ],
      "is_coinbase": false,
      "sequence": 4294967295
    }
  ],
  "vout": [
    {
      "scriptpubkey": "002036753753851bc3363813ea608d7e1243e8009f67876fd96eb4698eda4f6c1ecc",
      "scriptpubkey_asm": "OP_0 OP_PUSHBYTES_32 36753753851bc3363813ea608d7e1243e8009f67876fd96eb4698eda4f6c1ecc",
      "scriptpubkey_type": "v0_p2wsh",
      "scriptpubkey_address": "bc1qxe6nw5u9r0pnvwqnafsg6lsjg05qp8m8sahajm45dx8d5nmvrmxqn9np3m",
      "value": 555865
    }
  ],
  "size": 203,
  "weight": 485,
  "fee": 3294,
  "status": {
    "confirmed": true,
    "block_height": 834638,
    "block_hash": "000000000000000000025f742c626208ac87e0b7d15054abb4a19ca2d735a54e",
    "block_time": 1710405325
  },
  "hex": "01000000000101f4011aa43d24591e7cf88c4801d7fec250b25193a03869dda5becd2937faa9870100000000ffffffff01597b08000000000022002036753753851bc3363813ea608d7e1243e8009f67876fd96eb4698eda4f6c1ecc0247304402202191641dbc48d5efa3b7366614e8fecbd5e955d849f29aba5b14a964c92b372d0220777da5dc62433ee42441ab2e27d94430d1eae4fffd24fe28a729d6179f628a810121033abc04c3c8aa3d7b7965e7b1ae3d1df65245e89f42bd6ea396d25c8554b77cbe00000000"
}