{
  "txid": "9dcba19b91ab5e18f9df1f5ccaaa36c7dfa1197fe180c409169e355a7d0eeb95",
  "version": 2,
  "locktime": 0,
  "vin": [
    {
      "txid": "8486ecb4df0880316dd6e82b3971b4df187aff23765bc3a47f8d78bb53aa273c",
      "vout": 34,
      "prevout": {
        "scriptpubkey": "512089b7de69405c78b11604abba88e5d2d97df78999d8ca4465fc217370570e6988",
        "scriptpubkey_asm": "OP_PUSHNUM_1 OP_PUSHBYTES_32 89b7de69405c78b11604abba88e5d2d97df78999d8ca4465fc217370570e6988",
        "scriptpubkey_type": "v1_p2tr",
        "scriptpubkey_address": "bc1p3xmau62qt3utz9sy4wag3ewjm97l0zvemr9yge0uy9ehq4cwdxyqwf9k37",
        "value": 2575
      },
      "scriptsig": "",
      "scriptsig_asm": "",
      "witness": [
        "2c54d425bd90001faa2f34f9b99375611d20821c7bee5459e7bb9b81880e4ce28f589da95d8115b359ff5c33e4d7767e4d249454978f01bcea19184450802034",
        "20f1fa6389e2e5dbe1036ea0ad8134936bb73d0cabf8f092945b6b2dfaf2e0ce02ac0063036f726401010a746578742f706c61696e00367b2270223a226272632d3230222c226f70223a226d696e74222c227469636b223a2261616161222c22616d74223a223130303030227d68",
        "c1f1fa6389e2e5dbe1036ea0ad8134936bb73d0cabf8f092945b6b2dfaf2e0ce02"
      ],
      "is_coinbase": false,
      "sequence": 4261412863
    }
  ],
  "vout": [
    {
      "scriptpubkey": "0014ddd7ef12ea6f78edcc1e8e7afa12c01ab59f3339",
      "scriptpubkey_asm": "OP_0 OP_PUSHBYTES_20 ddd7ef12ea6f78edcc1e8e7afa12c01ab59f3339",
      "scriptpubkey_type": "v0_p2wpkh",
      "scriptpubkey_address": "bc1qmht77yh2dauwmnq73ea05ykqr26e7veea8spz6",
      "value": 546
    }
  ],
  "size": 295,
  "weight": 541,
  "fee": 2029,
  "status": {
    "confirmed": true,
    "block_height": 834460,
    "block_hash": "00000000000000000000484a79b643b2524bbce82e5d8a442013fa5b8905ed98",
    "block_time": 1710307468
  },
  "hex": "020000000001013c27aa53bb788d7fa4c35b7623ff7a18dfb471392be8d66d318008dfb4ec86842200000000fffffffd012202000000000000160014ddd7ef12ea6f78edcc1e8e7afa12c01ab59f333903402c54d425bd90001faa2f34f9b99375611d20821c7bee5459e7bb9b81880e4ce28f589da95d8115b359ff5c33e4d7767e4d249454978f01bcea191844508020346e20f1fa6389e2e5dbe1036ea0ad8134936bb73d0cabf8f092945b6b2dfaf2e0ce02ac0063036f726401010a746578742f706c61696e00367b2270223a226272632d3230222c226f70223a226d696e74222c227469636b223a2261616161222c22616d74223a223130303030227d6821c1f1fa6389e2e5dbe1036ea0ad8134936bb73d0cabf8f092945b6b2dfaf2e0ce0200000000"
}