{
  "txid": "9dd0d35dc1b94d282ec222772347403d9f777c12b215dda4727faf422cdbb611",
  "version": 2,
  "locktime": 0,
  "vin": [
    {
      "txid": "80ea18f680f86fc90db05e9b6f8bf05eb21a1534caedd72dbfec37bf55818ea4",
      "vout": 19,
      "prevout": {
        "scriptpubkey": "512007972c4ff3c15b19ed1b027031854a2270b53ccc5458744f9133994cba388b2e",
        "scriptpubkey_asm": "OP_PUSHNUM_1 OP_PUSHBYTES_32 07972c4ff3c15b19ed1b027031854a2270b53ccc5458744f9133994cba388b2e",
        "scriptpubkey_type": "v1_p2tr",
        "scriptpubkey_address": "bc1pq7tjcnlnc9d3nmgmqfcrrp22yfct20xv23v8gnu3xwv5ew3c3vhqkvdjal",
        "value": 1962
      },
      "scriptsig": "",
      "scriptsig_asm": "",
      "witness": [
        "1e7e47eb8f661850426f18372fe7bca3e9b0e35df048f05c5559510b552c1a71ea0fd9640f0a927d1acbe79837bdc727c6e9e0d4610f1aecb393b98256a951d4",
        "20cc0d40fbb5fa0b324bad57f7af7a372c0607f83cfd143e71b0d95bea532527deac0063036f7264010118746578742f706c61696e3b636861727365743d7574662d3800367b2270223a226272632d3230222c226f70223a226d696e74222c227469636b223a2261616161222c22616d74223a223130303030227d68",
        "c1cc0d40fbb5fa0b324bad57f7af7a372c0607f83cfd143e71b0d95bea532527de"
      ],
      "is_coinbase": false,
      "sequence": 4294967293
    }
  ],
  "vout": [
    {
      "scriptpubkey": "00149f9b8d4b89304c7ec05fcaa4d43065401f861325",
      "scriptpubkey_asm": "OP_0 OP_PUSHBYTES_20 9f9b8d4b89304c7ec05fcaa4d43065401f861325",
      "scriptpubkey_type": "v0_p2wpkh",
      "scriptpubkey_address": "bc1qn7dc6jufxpx8aszle2jdgvr9gq0cvye9gksctu",
      "value": 294
    }
  ],
  "size": 309,
  "weight": 555,
  "fee": 1668,
  "status": {
    "confirmed": true,
    "block_height": 834460,
    "block_hash": "00000000000000000000484a79b643b2524bbce82e5d8a442013fa5b8905ed98",
    "block_time": 1710307468
  },
  "hex": "02000000000101a48e8155bf37ecbf2dd7edca34151ab25ef08b6f9b5eb00dc96ff880f618ea801300000000fdffffff0126010000000000001600149f9b8d4b89304c7ec05fcaa4d43065401f86132503401e7e47eb8f661850426f18372fe7bca3e9b0e35df048f05c5559510b552c1a71ea0fd9640f0a927d1acbe79837bdc727c6e9e0d4610f1aecb393b98256a951d47c20cc0d40fbb5fa0b324bad57f7af7a372c0607f83cfd143e71b0d95bea532527deac0063036f7264010118746578742f706c61696e3b636861727365743d7574662d3800367b2270223a226272632d3230222c226f70223a226d696e74222c227469636b223a2261616161222c22616d74223a223130303030227d6821c1cc0d40fbb5fa0b324bad57f7af7a372c0607f83cfd143e71b0d95bea532527de00000000"
}