{
  "txid": "9de08224dd9c48619a6573fcdc089303e1dbcb1c51e5f48aa2b83a7710b5b172",
  "version": 2,
  "locktime": 0,
  "vin": [
    {
      "txid": "82f05dafb81345a1c7e0115295132a4a2647f9445ffb239c3afcedccf2d20472",
      "vout": 0,
      "prevout": {
        "scriptpubkey": "5120cc030e17bc33b3314192173982a2229924e3b5cdb78dc2140a477f00c2bef890",
        "scriptpubkey_asm": "OP_PUSHNUM_1 OP_PUSHBYTES_32 cc030e17bc33b3314192173982a2229924e3b5cdb78dc2140a477f00c2bef890",
        "scriptpubkey_type": "v1_p2tr",
        "scriptpubkey_address": "bc1pespsu9auxwenzsvjzuuc9g3znyjw8dwdk7xuy9q2galsps47lzgqdkx2ut",
        "value": 5000
      },
      "scriptsig": "",
      "scriptsig_asm": "",
      "witness": [
        "18c26338b0fe65230481af921dd53f3d79fa4e17dddf22d9d3ac54c9772968faf30943ea6778a5596d8edf52b887bd896b12fd5aa87b2568bb3f72bcf8c9ca4101"
      ],
      "is_coinbase": false,
      "sequence": 4294967295
    }
  ],
  "vout": [
    {
      "scriptpubkey": "00143919d928e617770c9b365142cb95d85743baba29",
      "scriptpubkey_asm": "OP_0 OP_PUSHBYTES_20 3919d928e617770c9b365142cb95d85743baba29",
      "scriptpubkey_type": "v0_p2wpkh",
      "scriptpubkey_address": "bc1q8yvaj28xzamsexek29pvh9wc2apm4w3fu7zfkh",
      "value": 3792
    }
  ],
  "size": 151,
  "weight": 397,
  "fee": 1208,
  "status": {
    "confirmed": true,
    "block_height": 834552,
    "block_hash": "00000000000000000001dd0468a70c94f619251d286585cff57aeb4bd9ede330",
    "block_time": 1710355598
  },
  "hex": "020000000001017204d2f2ccedfc3a9c23fb5f44f947264a2a13955211e0c7a14513b8af5df0820000000000ffffffff01d00e0000000000001600143919d928e617770c9b365142cb95d85743baba29014118c26338b0fe65230481af921dd53f3d79fa4e17dddf22d9d3ac54c9772968faf30943ea6778a5596d8edf52b887bd896b12fd5aa87b2568bb3f72bcf8c9ca410100000000"
}