{
  "txid": "9de6110647892e3de1d6d5c72bc19c1fe9a3f9ff6bc6b02b98bae900444ad46c",
  "version": 2,
  "locktime": 0,
  "vin": [
    {
      "txid": "5606b8ac2cac919e269c623f8dcba2125320d6f460d8af86de397ecd05e3840f",
      "vout": 1,
      "prevout": {
        "scriptpubkey": "5120163419f929eedc95190e818899863725f897ecfd1a68da8b1c22f66b64e976eb",
        "scriptpubkey_asm": "OP_PUSHNUM_1 OP_PUSHBYTES_32 163419f929eedc95190e818899863725f897ecfd1a68da8b1c22f66b64e976eb",
        "scriptpubkey_type": "v1_p2tr",
        "scriptpubkey_address": "bc1pzc6pn7ffamwf2xgwsxyfnp3hyhuf0m8arf5d4zcuytmxke8fwm4sur7ute",
        "value": 3426
      },
      "scriptsig": "",
      "scriptsig_asm": "",
      "witness": [
        "6bb2698ec4f3d8abaa4707a1e84f67e2e627afec08cbd2214dcfbfbe4b2e9744d6a9464284e3fca74cb4d2cd1ce5b4a741aff34fcfd32f9ef6177c5b7764b9a9",
        "20cfc9cb0102471bbc88b778506ece574575e70aea6b5ea7c9f81e932df9990e89ac0063036f726401011e6170706c69636174696f6e2f6a736f6e3b636861727365743d7574662d38004cd07b2270223a22706f772d3230222c226f70223a226d696e74222c227469636b223a2250554e4b222c22616d74223a2231222c22736f6c7574696f6e223a2250554e4b3a6263317079326c633774336c746371643470656833653670703839386a3635763778726d736d7a6e7a366b397a63356a66303578366877717a7167336e793a303030303030303030303030303030303030303164363332346233346661396639643231623835373366623937656538666534396465643439313934373962643a3631393237333036363931227d68",
        "c10012eef0dd5686971201ee0affa8d24f6230a970f914fa050cfc5fbfb49107dd"
      ],
      "is_coinbase": false,
      "sequence": 4294967295
    }
  ],
  "vout": [
    {
      "scriptpubkey": "512022bf8f2e3f5e00da87378e74109ca796a8cf187b86c5316ac5162924be86d5dc",
      "scriptpubkey_asm": "OP_PUSHNUM_1 OP_PUSHBYTES_32 22bf8f2e3f5e00da87378e74109ca796a8cf187b86c5316ac5162924be86d5dc",
      "scriptpubkey_type": "v1_p2tr",
      "scriptpubkey_address": "bc1py2lc7t3ltcqd4peh3e6pp898j65v7xrmsmznz6k9zc5jf05x6hwqzqg3ny",
      "value": 546
    }
  ],
  "size": 484,
  "weight": 766,
  "fee": 2880,
  "status": {
    "confirmed": true,
    "block_height": 834638,
    "block_hash": "000000000000000000025f742c626208ac87e0b7d15054abb4a19ca2d735a54e",
    "block_time": 1710405325
  },
  "hex": "020000000001010f84e305cd7e39de86afd860f4d6205312a2cb8d3f629c269e91ac2cacb806560100000000ffffffff01220200000000000022512022bf8f2e3f5e00da87378e74109ca796a8cf187b86c5316ac5162924be86d5dc03406bb2698ec4f3d8abaa4707a1e84f67e2e627afec08cbd2214dcfbfbe4b2e9744d6a9464284e3fca74cb4d2cd1ce5b4a741aff34fcfd32f9ef6177c5b7764b9a9fd1d0120cfc9cb0102471bbc88b778506ece574575e70aea6b5ea7c9f81e932df9990e89ac0063036f726401011e6170706c69636174696f6e2f6a736f6e3b636861727365743d7574662d38004cd07b2270223a22706f772d3230222c226f70223a226d696e74222c227469636b223a2250554e4b222c22616d74223a2231222c22736f6c7574696f6e223a2250554e4b3a6263317079326c633774336c746371643470656833653670703839386a3635763778726d736d7a6e7a366b397a63356a66303578366877717a7167336e793a303030303030303030303030303030303030303164363332346233346661396639643231623835373366623937656538666534396465643439313934373962643a3631393237333036363931227d6821c10012eef0dd5686971201ee0affa8d24f6230a970f914fa050cfc5fbfb49107dd00000000"
}