{
  "txid": "9df98a5fc4234c1ecd1134b986163b9cf0c174ba426936defaf1f832a4d141bc",
  "version": 2,
  "locktime": 0,
  "vin": [
    {
      "txid": "ca49732a8789b812361e997512b66bc3787f1e3ff39f5f0d8b845e09438043f6",
      "vout": 2,
      "prevout": {
        "scriptpubkey": "5120e4caf307d11407d54467efcecd52d3e47fa0e93fc22263c14e799ec2df54a0e1",
        "scriptpubkey_asm": "OP_PUSHNUM_1 OP_PUSHBYTES_32 e4caf307d11407d54467efcecd52d3e47fa0e93fc22263c14e799ec2df54a0e1",
        "scriptpubkey_type": "v1_p2tr",
        "scriptpubkey_address": "bc1pun90xp73zsra23r8al8v65knu3l6p6flcg3x8s2w0x0v9h655rss745dwn",
        "value": 2066
      },
      "scriptsig": "",
      "scriptsig_asm": "",
      "witness": [
        "ba95452200a5711489915f8670017f263b4dd79ef8316b1cc6ce2ac39e22414a377e6a67f9220f18bfb1fa3fe3426e7fcfebeadcdadcc95fdca4ef0a31d6dd58",
        "20171c2b2fe88845e8599f8c4bcbe53e9765c9662eb4bb2984c0c824f85b183f1aac0063036f726401010a746578742f706c61696e00367b2270223a226272632d3230222c226f70223a226d696e74222c227469636b223a2261616161222c22616d74223a223130303030227d68",
        "c0171c2b2fe88845e8599f8c4bcbe53e9765c9662eb4bb2984c0c824f85b183f1a"
      ],
      "is_coinbase": false,
      "sequence": 4261412863
    }
  ],
  "vout": [
    {
      "scriptpubkey": "0014b12a255b419b46c01324705abea5fd2949f55051",
      "scriptpubkey_asm": "OP_0 OP_PUSHBYTES_20 b12a255b419b46c01324705abea5fd2949f55051",
      "scriptpubkey_type": "v0_p2wpkh",
      "scriptpubkey_address": "bc1qky4z2k6pndrvqyeywpdtaf0a99yl25z3zp84r6",
      "value": 294
    }
  ],
  "size": 295,
  "weight": 541,
  "fee": 1772,
  "status": {
    "confirmed": true,
    "block_height": 834460,
    "block_hash": "00000000000000000000484a79b643b2524bbce82e5d8a442013fa5b8905ed98",
    "block_time": 1710307468
  },
  "hex": "02000000000101f6438043095e848b0d5f9ff33f1e7f78c36bb61275991e3612b889872a7349ca0200000000fffffffd012601000000000000160014b12a255b419b46c01324705abea5fd2949f550510340ba95452200a5711489915f8670017f263b4dd79ef8316b1cc6ce2ac39e22414a377e6a67f9220f18bfb1fa3fe3426e7fcfebeadcdadcc95fdca4ef0a31d6dd586e20171c2b2fe88845e8599f8c4bcbe53e9765c9662eb4bb2984c0c824f85b183f1aac0063036f726401010a746578742f706c61696e00367b2270223a226272632d3230222c226f70223a226d696e74222c227469636b223a2261616161222c22616d74223a223130303030227d6821c0171c2b2fe88845e8599f8c4bcbe53e9765c9662eb4bb2984c0c824f85b183f1a00000000"
}