{
  "txid": "9dfb8ba71da5da1f65f919718be9bd2dc0c7cff251f5550e539831e52f9b7077",
  "version": 2,
  "locktime": 834637,
  "vin": [
    {
      "txid": "ad439f14c85f18797863651b82b7a3e4e902b963e5cf4e26401d7ab95d9a7fdd",
      "vout": 0,
      "prevout": {
        "scriptpubkey": "0014146cdb8011e09beb363126c8567e7102a1feff87",
        "scriptpubkey_asm": "OP_0 OP_PUSHBYTES_20 146cdb8011e09beb363126c8567e7102a1feff87",
        "scriptpubkey_type": "v0_p2wpkh",
        "scriptpubkey_address": "bc1qz3kdhqq3uzd7kd33ymy9vln3q2slalu8y9jdmx",
        "value": 1281189
      },
      "scriptsig": "",
      "scriptsig_asm": "",
      "witness": [
        "304402201cc9cac3f3594c52c256205e145439398ad7ac3b8f5ffa3f289b87e73a9376c2022055d12d77c3ebf5835467aee39e8e5ea74c314d32c647574568d06775af1c3edd01",
        "023e771246ba20bade97aa8d649de0abf89457bf3087e9019a8ed4696484464d2a"
      ],
      "is_coinbase": false,
      "sequence": 4294967293
    }
  ],
  "vout": [
    {
      "scriptpubkey": "0014068cfe263b6b0adf6d09856ec4ef14bd1d3cacfb",
      "scriptpubkey_asm": "OP_0 OP_PUSHBYTES_20 068cfe263b6b0adf6d09856ec4ef14bd1d3cacfb",
      "scriptpubkey_type": "v0_p2wpkh",
      "scriptpubkey_address": "bc1qq6x0uf3mdv9d7mgfs4hvfmc5h5wnet8muv0ztj",
      "value": 1278219
    }
  ],
  "size": 191,
  "weight": 437,
  "fee": 2970,
  "status": {
    "confirmed": true,
    "block_height": 834638,
    "block_hash": "000000000000000000025f742c626208ac87e0b7d15054abb4a19ca2d735a54e",
    "block_time": 1710405325
  },
  "hex": "02000000000101dd7f9a5db97a1d40264ecfe563b902e9e4a3b7821b65637879185fc8149f43ad0000000000fdffffff010b81130000000000160014068cfe263b6b0adf6d09856ec4ef14bd1d3cacfb0247304402201cc9cac3f3594c52c256205e145439398ad7ac3b8f5ffa3f289b87e73a9376c2022055d12d77c3ebf5835467aee39e8e5ea74c314d32c647574568d06775af1c3edd0121023e771246ba20bade97aa8d649de0abf89457bf3087e9019a8ed4696484464d2a4dbc0c00"
}