{
  "txid": "9e0c47600ec33341362a32de8980709e1bba02c90cfb13f5e6f5db613a456f1b",
  "version": 2,
  "locktime": 834637,
  "vin": [
    {
      "txid": "b1ff40d4c72bd7e00c6a6c7bdbd3b6360310371f1f2b96da1f89c6d16776d662",
      "vout": 18,
      "prevout": {
        "scriptpubkey": "001407fdc9225434a3dc2569ffd33d3d100b492e5639",
        "scriptpubkey_asm": "OP_0 OP_PUSHBYTES_20 07fdc9225434a3dc2569ffd33d3d100b492e5639",
        "scriptpubkey_type": "v0_p2wpkh",
        "scriptpubkey_address": "bc1qql7ujgj5xj3acftfllfn60gspdyju43e29f0h8",
        "value": 137309
      },
      "scriptsig": "",
      "scriptsig_asm": "",
      "witness": [
        "304402204b9ce2043619d01908a0689385c6fc1f8d71e85d0dc451194c6a62f42448e95b0220619bed50d9d191bcd20fc2b7ae90cff7e43a7509e85aa2ed702869f6e50fc49801",
        "023de47aef6e79a3605161b3df179a1628ff62c68ca972c357ebebc034ed1c060c"
      ],
      "is_coinbase": false,
      "sequence": 4294967294
    },
    {
      "txid": "02e1a726befb647a0621bea84d6ac8567c1ecdc587d69868bcb1b55890cde40e",
      "vout": 0,
      "prevout": {
        "scriptpubkey": "001486eb80a646d564a8327771176d3aad5e2e6618ed",
        "scriptpubkey_asm": "OP_0 OP_PUSHBYTES_20 86eb80a646d564a8327771176d3aad5e2e6618ed",
        "scriptpubkey_type": "v0_p2wpkh",
        "scriptpubkey_address": "bc1qsm4cpfjx64j2svnhwytk6w4dtchxvx8dnj5qrq",
        "value": 17230
      },
      "scriptsig": "",
      "scriptsig_asm": "",
      "witness": [
        "3044022015bcbb8fb26d0257bee1495511890f571af06d4e242cf1f3d78bd7bf326883a302200cbcea8b6306403a9ee37fc056c055cdd989cfae2be7a21fd55f144bab04be2101",
        "02641c320709917af3969fd198856d04a1036c920ea74e9e66817382550216d833"
      ],
      "is_coinbase": false,
      "sequence": 4294967294
    }
  ],
  "vout": [
    {
      "scriptpubkey": "00148a55a7cb514b240ab409c87139ad6eb580cb46df",
      "scriptpubkey_asm": "OP_0 OP_PUSHBYTES_20 8a55a7cb514b240ab409c87139ad6eb580cb46df",
      "scriptpubkey_type": "v0_p2wpkh",
      "scriptpubkey_address": "bc1q3f260j63fvjq4dqfepcnnttwkkqvk3kl6pxkxq",
      "value": 149930
    }
  ],
  "size": 339,
  "weight": 708,
  "fee": 4609,
  "status": {
    "confirmed": true,
    "block_height": 834638,
    "block_hash": "000000000000000000025f742c626208ac87e0b7d15054abb4a19ca2d735a54e",
    "block_time": 1710405325
  },
  "hex": "0200000000010262d67667d1c6891fda962b1f1f37100336b6d3db7b6c6a0ce0d72bc7d440ffb11200000000feffffff0ee4cd9058b5b1bc6898d687c5cd1e7c56c86a4da8be21067a64fbbe26a7e1020000000000feffffff01aa490200000000001600148a55a7cb514b240ab409c87139ad6eb580cb46df0247304402204b9ce2043619d01908a0689385c6fc1f8d71e85d0dc451194c6a62f42448e95b0220619bed50d9d191bcd20fc2b7ae90cff7e43a7509e85aa2ed702869f6e50fc4980121023de47aef6e79a3605161b3df179a1628ff62c68ca972c357ebebc034ed1c060c02473044022015bcbb8fb26d0257bee1495511890f571af06d4e242cf1f3d78bd7bf326883a302200cbcea8b6306403a9ee37fc056c055cdd989cfae2be7a21fd55f144bab04be21012102641c320709917af3969fd198856d04a1036c920ea74e9e66817382550216d8334dbc0c00"
}