{
  "txid": "9e11824fec07359eabe6aecdbd2f03c2e7f8cc780792bff240da878df634088e",
  "version": 1,
  "locktime": 0,
  "vin": [
    {
      "txid": "e3d1ec6da6a01b3f196b3b07513871f10e87000b15a1f188a2aac5c2d59945f4",
      "vout": 0,
      "prevout": {
        "scriptpubkey": "512031cb014a3e55e1230e92e83543555dcf659b1c01678905e330155d3862710f1b",
        "scriptpubkey_asm": "OP_PUSHNUM_1 OP_PUSHBYTES_32 31cb014a3e55e1230e92e83543555dcf659b1c01678905e330155d3862710f1b",
        "scriptpubkey_type": "v1_p2tr",
        "scriptpubkey_address": "bc1px89szj372hsjxr5jaq65x42aeajek8qpv7ystcesz4wnscn3puds0w083p",
        "value": 389409796
      },
      "scriptsig": "",
      "scriptsig_asm": "",
      "witness": [
        "568c0c9554d641143d0c00a24f754cd637d1ef20111db93605594a7cb52c7a62bfb9248fcde2096f48ae5cd26afbe74c7382ca15eda4dd83ac6a47bd711329a2"
      ],
      "is_coinbase": false,
      "sequence": 4294967295
    },
    {
      "txid": "9dabddc6d877329b96b05c47698c51933c271f3aee67a4e41bc51b25762729fb",
      "vout": 0,
      "prevout": {
        "scriptpubkey": "5120779490c146704f57855f8e4e3cc7112cd22634e7195ebca4af3e28ee0f3509a9",
        "scriptpubkey_asm": "OP_PUSHNUM_1 OP_PUSHBYTES_32 779490c146704f57855f8e4e3cc7112cd22634e7195ebca4af3e28ee0f3509a9",
        "scriptpubkey_type": "v1_p2tr",
        "scriptpubkey_address": "bc1pw72fps2xwp840p2l3e8re3c39nfzvd88r90tef908c5wure4px5syjgl3k",
        "value": 53296040
      },
      "scriptsig": "",
      "scriptsig_asm": "",
      "witness": [
        "420bc0d0961806260ff0078eb5c6c9ff9aec51db682335d1d688f0c8a41acab660fb4d10f7b7917bf15f3f278ce7f06dcbf19556a0be630e52df795b23dcf9d1"
      ],
      "is_coinbase": false,
      "sequence": 4294967295
    },
    {
      "txid": "5b1208060cbcb336326fca6373fcf5aa2e8a82896ba13819cd0ce229579d6db7",
      "vout": 0,
      "prevout": {
        "scriptpubkey": "5120d34b4081266aa81675ed954b9693ddc39b640a1054c6fce17ba024a336045261",
        "scriptpubkey_asm": "OP_PUSHNUM_1 OP_PUSHBYTES_32 d34b4081266aa81675ed954b9693ddc39b640a1054c6fce17ba024a336045261",
        "scriptpubkey_type": "v1_p2tr",
        "scriptpubkey_address": "bc1p6d95pqfxd25pva0dj49edy7acwdkgzss2nr0ectm5qj2xdsy2fssq0yreu",
        "value": 19592209
      },
      "scriptsig": "",
      "scriptsig_asm": "",
      "witness": [
        "95769f460a3ca9fe1a7d02283e81d7a1b4cc8e4ee7cf305296ab3d9951c53b6fefdb69e9a6155d4af6f20d9b02408f15a5fc6c1fbf0b7b6872de31694539abef"
      ],
      "is_coinbase": false,
      "sequence": 4294967295
    },
    {
      "txid": "ece503acfa8ef98f15c16fe7ceb26042475ddfb91629382b3defb2dc6daa3649",
      "vout": 0,
      "prevout": {
        "scriptpubkey": "51208f29a8bf2e0a9f65218d7c2abde9dce0b3b1d849799e48493b5c2a3df2efafe6",
        "scriptpubkey_asm": "OP_PUSHNUM_1 OP_PUSHBYTES_32 8f29a8bf2e0a9f65218d7c2abde9dce0b3b1d849799e48493b5c2a3df2efafe6",
        "scriptpubkey_type": "v1_p2tr",
        "scriptpubkey_address": "bc1p3u5630ewp20k2gvd0s4tm6wuuzemrkzf0x0ysjfmts4rmuh04lnqwjvyak",
        "value": 16482208
      },
      "scriptsig": "",
      "scriptsig_asm": "",
      "witness": [
        "ce878aa55e5d3b1ced780cc7915902e2e554d657a5b50791e6cabc05e56fd2215212092e9e0457360a3dfe9c64f1974332b0ae25acd74e05d29ea366df43f238"
      ],
      "is_coinbase": false,
      "sequence": 4294967295
    },
    {
      "txid": "7e6b718056b571f6bf1a6487dc59ddd9d02ae67ca372267ebd03d6b9debc593e",
      "vout": 1,
      "prevout": {
        "scriptpubkey": "51206131ecbb709924ff7516df3ab8d712dc20a858c3cc1e8a85d5815b191dd075f9",
        "scriptpubkey_asm": "OP_PUSHNUM_1 OP_PUSHBYTES_32 6131ecbb709924ff7516df3ab8d712dc20a858c3cc1e8a85d5815b191dd075f9",
        "scriptpubkey_type": "v1_p2tr",
        "scriptpubkey_address": "bc1pvyc7ewmsnyj07agkmuat34cjmss2skxres0g4pw4s9d3j8wswhusu7zldj",
        "value": 9430939
      },
      "scriptsig": "",
      "scriptsig_asm": "",
      "witness": [
        "e4f792e08cfc68db5db741b53c02e5047cbb3cc28006d7e522c7c1cc7c6e282eb622b336837e5ed788a090958acaf9143cf8991b32d5c0df562203ab504f5a53"
      ],
      "is_coinbase": false,
      "sequence": 4294967295
    },
    {
      "txid": "a8cbc03e7ff04770ce66cd0139774aad7dd1c5aff286a6f5a7b5dd11e424403d",
      "vout": 0,
      "prevout": {
        "scriptpubkey": "51201f1dacfd755c1199156ab13066ef9b4fbdaa101686bd07e391e7cc1621282ac9",
        "scriptpubkey_asm": "OP_PUSHNUM_1 OP_PUSHBYTES_32 1f1dacfd755c1199156ab13066ef9b4fbdaa101686bd07e391e7cc1621282ac9",
        "scriptpubkey_type": "v1_p2tr",
        "scriptpubkey_address": "bc1pruw6elt4tsgej9t2kycxdmumf7765yqks67s0cu3ulxpvgfg9tysnru07a",
        "value": 7971710
      },
      "scriptsig": "",
      "scriptsig_asm": "",
      "witness": [
        "882ff766dc6648283129c9eed6275f135a059c9c7d552cbf1946503179f527e87a73aeba7b70e995f7f2a2a154fb04258f16848e520bd187a0d94cb8c842d847"
      ],
      "is_coinbase": false,
      "sequence": 4294967295
    },
    {
      "txid": "4336e9557903d1daa74fe2ceb0bb5c0d3ddc9fe27b0dbf15a8a74d9a12dfb14b",
      "vout": 0,
      "prevout": {
        "scriptpubkey": "51203eb97b1ad0334bf04ba0812e32035a6ccbfd00223e981fa2feb947d3fd4f0716",
        "scriptpubkey_asm": "OP_PUSHNUM_1 OP_PUSHBYTES_32 3eb97b1ad0334bf04ba0812e32035a6ccbfd00223e981fa2feb947d3fd4f0716",
        "scriptpubkey_type": "v1_p2tr",
        "scriptpubkey_address": "bc1p86uhkxksxd9lqjaqsyhryq66dn9l6qpz86vplgh7h9ra8l20qutqd9ppmq",
        "value": 5933082
      },
      "scriptsig": "",
      "scriptsig_asm": "",
      "witness": [
        "9bd2085e2951e87a5d35ed30478c69743393a073bfb95dbc4952473b451398992c8a62ea010dcc5bae5fe278651eeaffd024b77b04a63fe453233239e8d4db8b"
      ],
      "is_coinbase": false,
      "sequence": 4294967295
    },
    {
      "txid": "a997619f59364b15e0ddbc49042d37a66db1cdc5fddbf132ba085830d3c41dc1",
      "vout": 0,
      "prevout": {
        "scriptpubkey": "512096cc316efd3f8d01ac53bff8433f00d7cb484e4b674ea932d058b476357bf008",
        "scriptpubkey_asm": "OP_PUSHNUM_1 OP_PUSHBYTES_32 96cc316efd3f8d01ac53bff8433f00d7cb484e4b674ea932d058b476357bf008",
        "scriptpubkey_type": "v1_p2tr",
        "scriptpubkey_address": "bc1pjmxrzmha87xsrtznhluyx0cq6l95snjtva82jvkstz68vdtm7qyqcjp8at",
        "value": 4921343
      },
      "scriptsig": "",
      "scriptsig_asm": "",
      "witness": [
        "f1550c4111c8bc535e13721c58d74d66532845ead5f636409843852bcf900d8eec36be544887a9e0d458b2e10314334a5b661937b2f2aaf6b9376dc1855539b3"
      ],
      "is_coinbase": false,
      "sequence": 4294967295
    },
    {
      "txid": "b2cbe585c5842d8aa35be204da9c18addc5971926a8a967b10e7a89df5d02ae8",
      "vout": 0,
      "prevout": {
        "scriptpubkey": "5120c1374d09af5293fdd9a111df73c4dd56e7bda8b84101c2c119c8798e2b05777d",
        "scriptpubkey_asm": "OP_PUSHNUM_1 OP_PUSHBYTES_32 c1374d09af5293fdd9a111df73c4dd56e7bda8b84101c2c119c8798e2b05777d",
        "scriptpubkey_type": "v1_p2tr",
        "scriptpubkey_address": "bc1pcym56zd022flmkdpz80h83xa2mnmm29cgyqu9sgeepucu2c9wa7sa99jj8",
        "value": 4573634
      },
      "scriptsig": "",
      "scriptsig_asm": "",
      "witness": [
        "5aa5433894781ec418979b7ea51300704af7f51576dc8159164a2a2af46d5b06007651e5a87ca936c807d94729ac226100753acd665ba1725f9a76c684878d26"
      ],
      "is_coinbase": false,
      "sequence": 4294967295
    },
    {
      "txid": "eb1a55abcbf0a87046b393e790bea51be6f2dc2ca165828c94d06c4c6faeecd1",
      "vout": 0,
      "prevout": {
        "scriptpubkey": "512026091ea01afd02cf1fdab05c38bac068fbac24660d305541aef6355b9e62d713",
        "scriptpubkey_asm": "OP_PUSHNUM_1 OP_PUSHBYTES_32 26091ea01afd02cf1fdab05c38bac068fbac24660d305541aef6355b9e62d713",
        "scriptpubkey_type": "v1_p2tr",
        "scriptpubkey_address": "bc1pycy3agq6l5pv7876kpwr3wkqdra6cfrxp5c92sdw7c64h8nz6ufswkm69g",
        "value": 2381136
      },
      "scriptsig": "",
      "scriptsig_asm": "",
      "witness": [
        "2dfef15c73b9dfd52cc05f502fd4a701a53548ba15063badecd7c689ea2fdaff2be3748ebb30720ce27e6617dddec8d8cdda6ee93a78725380375f95841e3917"
      ],
      "is_coinbase": false,
      "sequence": 4294967295
    },
    {
      "txid": "73f0b4c2303d91573c00528d482253a5bbef8ff62fb5bb3ec5b50a4f4e29c527",
      "vout": 0,
      "prevout": {
        "scriptpubkey": "512017e11479e006bc92059943ca27208603ff474181ef95c9748a12113e4e9520e8",
        "scriptpubkey_asm": "OP_PUSHNUM_1 OP_PUSHBYTES_32 17e11479e006bc92059943ca27208603ff474181ef95c9748a12113e4e9520e8",
        "scriptpubkey_type": "v1_p2tr",
        "scriptpubkey_address": "bc1pzls3g70qq67fypveg09zwgyxq0l5wsvpa72ujay2zggnun54yr5qhycxg4",
        "value": 1273779
      },
      "scriptsig": "",
      "scriptsig_asm": "",
      "witness": [
        "05365b7fddc12daf662396ddb6f443c072d412d50ac8ff5e7d784e3f476454a97db17205e2b4f9c5238cb575df30c982bf90fa19413f38a04c8582e48c881386"
      ],
      "is_coinbase": false,
      "sequence": 4294967295
    },
    {
      "txid": "81ca57168238dbb56d6fa474a895abdf453945212f1dd0d9a083cb4d6c18bc72",
      "vout": 0,
      "prevout": {
        "scriptpubkey": "5120a1fe5f73f69016f36f2d9ab43b79d4073b0881018492aced377ff83ca20d1d2e",
        "scriptpubkey_asm": "OP_PUSHNUM_1 OP_PUSHBYTES_32 a1fe5f73f69016f36f2d9ab43b79d4073b0881018492aced377ff83ca20d1d2e",
        "scriptpubkey_type": "v1_p2tr",
        "scriptpubkey_address": "bc1p58l97ulkjqt0xmedn26rk7w5quas3qgpsjf2emfh0luregsdr5hqrc6jqw",
        "value": 1152584
      },
      "scriptsig": "",
      "scriptsig_asm": "",
      "witness": [
        "4dc22dec50beae8a3c40cb7ab55863016c7cc2fdde1a32e0431c6bf200a6b78979b9108f6c1e95d19eee3c690b4376fa98bffcf4f4e40d45b532e7f475271d1f"
      ],
      "is_coinbase": false,
      "sequence": 4294967295
    },
    {
      "txid": "4bbd17ed352dd07fb7be92388e435e45d44035613544e83e6aad6f30184c3a63",
      "vout": 0,
      "prevout": {
        "scriptpubkey": "5120e650c44a91c079af309b0f38618372f37c892e6b53d6215698e802ce21f95440",
        "scriptpubkey_asm": "OP_PUSHNUM_1 OP_PUSHBYTES_32 e650c44a91c079af309b0f38618372f37c892e6b53d6215698e802ce21f95440",
        "scriptpubkey_type": "v1_p2tr",
        "scriptpubkey_address": "bc1puegvgj53cpu67vympuuxrqmj7d7gjtnt20tzz45caqpvug0e23qq7jp9e7",
        "value": 1064891
      },
      "scriptsig": "",
      "scriptsig_asm": "",
      "witness": [
        "ef9c811d1da865cb3dee577bc55d115d42ddb7c858b0dec03fbc3ad47b70cb3b31c289c4fafc572297fd97d3afddc463776d59dd16083b6848794ce728346945"
      ],
      "is_coinbase": false,
      "sequence": 4294967295
    },
    {
      "txid": "bec9dd81b4385c333fb558c522f765a904cd7153aa731cca7a8bec230d6002b3",
      "vout": 1,
      "prevout": {
        "scriptpubkey": "5120ca5832910ffb3be51de6a9d3f211c485219f25cfd0b93efc130739c1c6aa2ad2",
        "scriptpubkey_asm": "OP_PUSHNUM_1 OP_PUSHBYTES_32 ca5832910ffb3be51de6a9d3f211c485219f25cfd0b93efc130739c1c6aa2ad2",
        "scriptpubkey_type": "v1_p2tr",
        "scriptpubkey_address": "bc1pefvr9yg0lva7280x48flyywys5se7fw06zunalqnquuur3429tfq7euljv",
        "value": 986205
      },
      "scriptsig": "",
      "scriptsig_asm": "",
      "witness": [
        "518e3d5ab75724ebbb984fb4b20a48ac2ee9d34cf26b0e692cbe06aa84c5958fac672c1e94e8c9e7c97e9663d58ec7a23a43f7d164ab48c616f43e284f28dc66"
      ],
      "is_coinbase": false,
      "sequence": 4294967295
    },
    {
      "txid": "b5bc18faa372d098ace08460eb0bb366bbced55c56db9829427e5c4ff2e82522",
      "vout": 0,
      "prevout": {
        "scriptpubkey": "5120c6df41a1198b8737ed6c9b91465e04b179ffb181c70838759ef0337270bc3b3b",
        "scriptpubkey_asm": "OP_PUSHNUM_1 OP_PUSHBYTES_32 c6df41a1198b8737ed6c9b91465e04b179ffb181c70838759ef0337270bc3b3b",
        "scriptpubkey_type": "v1_p2tr",
        "scriptpubkey_address": "bc1pcm05rgge3wrn0mtvnwg5vhsyk9ullvvpcuyrsav77qehyu9u8vasxjxgz8",
        "value": 721928
      },
      "scriptsig": "",
      "scriptsig_asm": "",
      "witness": [
        "2c4ae15c07a08ec17ed2c233912737b6e9c7f072ce4685a86f18752e03d50add2670616854d617641844f985188efd7a6faf9cbc6588273863d385e3a035c3cd"
      ],
      "is_coinbase": false,
      "sequence": 4294967295
    },
    {
      "txid": "3f071566af2cfea48400197152569c86d224727728f82100b25b6134277dc750",
      "vout": 0,
      "prevout": {
        "scriptpubkey": "512092b8902f53f5eeff450c0b316a8d60978dc423a1338e5736096c397bda750e7c",
        "scriptpubkey_asm": "OP_PUSHNUM_1 OP_PUSHBYTES_32 92b8902f53f5eeff450c0b316a8d60978dc423a1338e5736096c397bda750e7c",
        "scriptpubkey_type": "v1_p2tr",
        "scriptpubkey_address": "bc1pj2ufqt6n7hh073gvpvck4rtqj7xuggapxw89wdsfdsuhhkn4pe7q2jwlau",
        "value": 663004
      },
      "scriptsig": "",
      "scriptsig_asm": "",
      "witness": [
        "585b379673ea15a910e80e9a69caa6e4f6bd74a2d21e8754eb10c603e85eb93730411a1ad3421b7b2e1a35a11fbb77067f7f7be9fc00b7b4adbe833628a3df57"
      ],
      "is_coinbase": false,
      "sequence": 4294967295
    },
    {
      "txid": "d98fadc9ebc0c5041eea117674b392ca478cfccc32b720498f40a136678224b0",
      "vout": 0,
      "prevout": {
        "scriptpubkey": "512071249200947b10bfbbcb2c89c6ae4e3489506d69953be5495538b2040090572d",
        "scriptpubkey_asm": "OP_PUSHNUM_1 OP_PUSHBYTES_32 71249200947b10bfbbcb2c89c6ae4e3489506d69953be5495538b2040090572d",
        "scriptpubkey_type": "v1_p2tr",
        "scriptpubkey_address": "bc1pwyjfyqy50vgtlw7t9jyudtjwxjy4qmtfj5a72j248zeqgqys2uks54y2kr",
        "value": 507416
      },
      "scriptsig": "",
      "scriptsig_asm": "",
      "witness": [
        "24842e82dc3a274f61d9e0b31192778f8bac997e8076d5170ab79635bed5ffa98c06614b009496764756a8182bd83c94155ffe455dd8ca784f027bf45c94df59"
      ],
      "is_coinbase": false,
      "sequence": 4294967295
    },
    {
      "txid": "d35c53d86db09c0ff521c9b5ffd7284e398d2ff130bbdac72b3d110ec90abf62",
      "vout": 0,
      "prevout": {
        "scriptpubkey": "512084acbfec19d327f345763971906a5bd7ba285e8a8aee471a90caf3716f172101",
        "scriptpubkey_asm": "OP_PUSHNUM_1 OP_PUSHBYTES_32 84acbfec19d327f345763971906a5bd7ba285e8a8aee471a90caf3716f172101",
        "scriptpubkey_type": "v1_p2tr",
        "scriptpubkey_address": "bc1psjktlmqe6vnlx3tk89ceq6jm67azsh523thywx5setehzmchyyqsz7gnua",
        "value": 279532
      },
      "scriptsig": "",
      "scriptsig_asm": "",
      "witness": [
        "c893d1607a11bb69c7676564dfa16991dd068cb89a24ba46fa69380c55b87b1a98c9b780ac9d0d1f1f0ceb6b3ad76db8606bc34ae08bb634aa64b896f3b1ef16"
      ],
      "is_coinbase": false,
      "sequence": 4294967295
    },
    {
      "txid": "209d5072a49a330488355c7cf75a4cbdfa65da04f5c23c1eac5a38ca7b8dc45e",
      "vout": 0,
      "prevout": {
        "scriptpubkey": "512022c2025914bccfeaaca312867fc134c2c23b356f3e209a14feebd3eb5189810c",
        "scriptpubkey_asm": "OP_PUSHNUM_1 OP_PUSHBYTES_32 22c2025914bccfeaaca312867fc134c2c23b356f3e209a14feebd3eb5189810c",
        "scriptpubkey_type": "v1_p2tr",
        "scriptpubkey_address": "bc1pytpqykg5hn874t9rz2r8lsf5ctprkdt08csf5987a0f7k5vfsyxqqcnf97",
        "value": 247318
      },
      "scriptsig": "",
      "scriptsig_asm": "",
      "witness": [
        "a8132ffbcf5e88256da234fd3da31a6b891506a65a02ef40c19eec7237a5b20e42e682f069abb1e91e98dab18a0d1ff12a21947a40d402f46b9f3434eecc6344"
      ],
      "is_coinbase": false,
      "sequence": 4294967295
    },
    {
      "txid": "64bfc89c1577d1367e1a15dd3a7b4d75563a869c67640565439d59188df45631",
      "vout": 0,
      "prevout": {
        "scriptpubkey": "51203c65177aac053b7010ac632218962e5b80b2614848f3464c73dfaa90e2a711aa",
        "scriptpubkey_asm": "OP_PUSHNUM_1 OP_PUSHBYTES_32 3c65177aac053b7010ac632218962e5b80b2614848f3464c73dfaa90e2a711aa",
        "scriptpubkey_type": "v1_p2tr",
        "scriptpubkey_address": "bc1p83j3w74vq5ahqy9vvv3p393wtwqtyc2gfre5vnrnm74fpc48zx4qjjjamm",
        "value": 213949
      },
      "scriptsig": "",
      "scriptsig_asm": "",
      "witness": [
        "e0ac274e9fa3b59a92a24be235f173f9b80cb1397b3df113d6a5223d81b355f7a6702f6f3962704b13ba833c49c3b1954ce9f3f75882ba5eafa29913cdc1f8d3"
      ],
      "is_coinbase": false,
      "sequence": 4294967295
    },
    {
      "txid": "13e7f3e3fc0faa7324a0d2c8ec7ff63fb87b97df903f8028c4aee4fc97f9db3e",
      "vout": 0,
      "prevout": {
        "scriptpubkey": "5120ff99ff9200a16fa398c9cc0d56bd4004d5c542fa25afdacd5a7881e566c15fa2",
        "scriptpubkey_asm": "OP_PUSHNUM_1 OP_PUSHBYTES_32 ff99ff9200a16fa398c9cc0d56bd4004d5c542fa25afdacd5a7881e566c15fa2",
        "scriptpubkey_type": "v1_p2tr",
        "scriptpubkey_address": "bc1pl7vllysq59h68xxfesx4d02qqn2u2sh6ykha4n260zq72ekpt73qkv8m9t",
        "value": 201854
      },
      "scriptsig": "",
      "scriptsig_asm": "",
      "witness": [
        "aa91754a654edeef8c78f8ecf2e47148105a10c8ba8a85689c58cfbd489d8c1295742217065672338aa9fab06fbbfa9bc807ade371b58693ac1815b3c1df32bb"
      ],
      "is_coinbase": false,
      "sequence": 4294967295
    },
    {
      "txid": "11eea989db6ed80366710e0e69a0ca049e0fab25b23fa4c7dbca815c1bbf6dac",
      "vout": 0,
      "prevout": {
        "scriptpubkey": "512035e9ad4ce1b45709c9e571c6c7c0734d2554822c6b2ec835fcc5b4cf70cfe0e6",
        "scriptpubkey_asm": "OP_PUSHNUM_1 OP_PUSHBYTES_32 35e9ad4ce1b45709c9e571c6c7c0734d2554822c6b2ec835fcc5b4cf70cfe0e6",
        "scriptpubkey_type": "v1_p2tr",
        "scriptpubkey_address": "bc1pxh566n8pk3tsnj09w8rv0srnf5j4fq3vdvhvsd0uck6v7ux0urnq8qg9mg",
        "value": 177906
      },
      "scriptsig": "",
      "scriptsig_asm": "",
      "witness": [
        "36a34432c441f76284ed29588ab01cd5144e99a5435e8bd6daeddab8e6fb356c8d95a2c6d5ae62882dfdc7bea84cea8dc038246fe03c5b77c0cfd3c6c2c0b4f8"
      ],
      "is_coinbase": false,
      "sequence": 4294967295
    },
    {
      "txid": "c94d9a2198c753fee914a478fd14f17f98045cf398b0345f208c456104828938",
      "vout": 0,
      "prevout": {
        "scriptpubkey": "5120684cf61b1fb7edea3e027de7a29ecfade515fdcd3d5d97b8560ae77ebf94fc62",
        "scriptpubkey_asm": "OP_PUSHNUM_1 OP_PUSHBYTES_32 684cf61b1fb7edea3e027de7a29ecfade515fdcd3d5d97b8560ae77ebf94fc62",
        "scriptpubkey_type": "v1_p2tr",
        "scriptpubkey_address": "bc1pdpx0vxclklk750sz0hn698k04hj3tlwd84we0wzkptnha0u5l33qu9zgua",
        "value": 172228
      },
      "scriptsig": "",
      "scriptsig_asm": "",
      "witness": [
        "1a8ca1ed61c727abe8ba39343ef12cd52c83f8783c693b36d4fdd62eb05f1b0e65e62edc5a328d67ef50aaa4b299a2c4ff3ddcb77c216283c93a06d9612c1ba1"
      ],
      "is_coinbase": false,
      "sequence": 4294967295
    },
    {
      "txid": "ca1f51fc5616f84e19059541f20a6a992ba5ba2067ffa3c0977eae81ad5670e7",
      "vout": 0,
      "prevout": {
        "scriptpubkey": "5120f88bc6f2cb68cd0ebf9457415ee59357778b0370ab9b9a267f65a1d0c5134988",
        "scriptpubkey_asm": "OP_PUSHNUM_1 OP_PUSHBYTES_32 f88bc6f2cb68cd0ebf9457415ee59357778b0370ab9b9a267f65a1d0c5134988",
        "scriptpubkey_type": "v1_p2tr",
        "scriptpubkey_address": "bc1plz9uduktdrxsa0u52aq4aevn2amckqms4wde5fnlvksap3gnfxyqncmtan",
        "value": 161347
      },
      "scriptsig": "",
      "scriptsig_asm": "",
      "witness": [
        "86abd182b472e684ae8049fd66532208bf13308350c40497c16f9e07d435cd46ecc53d188062f54fb7b26583173772d66cb7e4cb84fdea0d5a143519f601d491"
      ],
      "is_coinbase": false,
      "sequence": 4294967295
    },
    {
      "txid": "06ef79f69b864d97845922b4a24f405e40ceebe927af985fe3957853f9ea95e0",
      "vout": 0,
      "prevout": {
        "scriptpubkey": "5120c9fcd196bdad781bddf913dc2b6759226104d3d4ae1b9f64cc5e37e46ffd4537",
        "scriptpubkey_asm": "OP_PUSHNUM_1 OP_PUSHBYTES_32 c9fcd196bdad781bddf913dc2b6759226104d3d4ae1b9f64cc5e37e46ffd4537",
        "scriptpubkey_type": "v1_p2tr",
        "scriptpubkey_address": "bc1pe87dr94a44uphh0ez0wzke6eyfssf5754cde7exvtcm7gmlag5ms7jx86w",
        "value": 88420
      },
      "scriptsig": "",
      "scriptsig_asm": "",
      "witness": [
        "afcb4011b3247b55b6e0c9d89d5a24d01c8daf63683291e4f0acaae55fe73420e1c2bf7b83e2990a601f8a117cf6bf24faeee2374b5a8b20553af27c5cfecf6b"
      ],
      "is_coinbase": false,
      "sequence": 4294967295
    },
    {
      "txid": "eebd626452e531a84dc425de186c02350d69f2b7813003c6154139cb66fc3988",
      "vout": 0,
      "prevout": {
        "scriptpubkey": "512054fe2460a1e7879d216a491c1f073718756f5e0c0835e194ddeaed6752247cd5",
        "scriptpubkey_asm": "OP_PUSHNUM_1 OP_PUSHBYTES_32 54fe2460a1e7879d216a491c1f073718756f5e0c0835e194ddeaed6752247cd5",
        "scriptpubkey_type": "v1_p2tr",
        "scriptpubkey_address": "bc1p2nlzgc9pu7re6gt2fywp7pehrp6k7hsvpq67r9xaatkkw53y0n2skayhm5",
        "value": 49330
      },
      "scriptsig": "",
      "scriptsig_asm": "",
      "witness": [
        "fc4d4abeb3c6b0309942861c3e1c3d80d47e69a2f66970b3396a28c2793f595188f6f8538b115a6537c9c054a566d758f2f86ef6ae5bd89bac1fac7a5a9b2d7b"
      ],
      "is_coinbase": false,
      "sequence": 4294967295
    },
    {
      "txid": "e0db26b094e1cb3711c81d3ae3250356b6746f0ea3ab85f0e6d0c9aa8b8541f1",
      "vout": 0,
      "prevout": {
        "scriptpubkey": "5120fafa02975561f83b4ac4ab215879c6d114d44c4804338ac3d6fa96c9acc94628",
        "scriptpubkey_asm": "OP_PUSHNUM_1 OP_PUSHBYTES_32 fafa02975561f83b4ac4ab215879c6d114d44c4804338ac3d6fa96c9acc94628",
        "scriptpubkey_type": "v1_p2tr",
        "scriptpubkey_address": "bc1pltaq9964v8urkjky4vs4s7wx6y2dgnzgqsec4s7kl2tvntxfgc5q5ya92k",
        "value": 49330
      },
      "scriptsig": "",
      "scriptsig_asm": "",
      "witness": [
        "e37e1fa86fba5a1a3b8f3712e85277f52292a16473d141f9bb825c95fcceee182132cdc15ab55311cd7dec3fe0a5b7e769657851bc8b63fc3a3fde49c796cf2b"
      ],
      "is_coinbase": false,
      "sequence": 4294967295
    },
    {
      "txid": "b751cfdacc5da07051c93cff917f9f6f31bef17bc3d315d18727db20823bd0c5",
      "vout": 1,
      "prevout": {
        "scriptpubkey": "512060850dd9076aadd8101160ffe6406ffa80976f4d087c58b5b32ac5a8a5b15bd7",
        "scriptpubkey_asm": "OP_PUSHNUM_1 OP_PUSHBYTES_32 60850dd9076aadd8101160ffe6406ffa80976f4d087c58b5b32ac5a8a5b15bd7",
        "scriptpubkey_type": "v1_p2tr",
        "scriptpubkey_address": "bc1pvzzsmkg8d2kasyq3vrl7vsr0l2qfwm6dpp793ddn9tz63fd3t0ts9nhq4u",
        "value": 47659
      },
      "scriptsig": "",
      "scriptsig_asm": "",
      "witness": [
        "9eb37f081e8587b81df0537248e9d1b7f82e50e1b42f1705aa9b91be53129291f6375dab0eb070f311016e884207fea6c5c6ec32807da841945fd32ae7a09489"
      ],
      "is_coinbase": false,
      "sequence": 4294967295
    }
  ],
  "vout": [
    {
      "scriptpubkey": "a914481cd73b98bf526a5cd4a39a138d1c3b940b7b6e87",
      "scriptpubkey_asm": "OP_HASH160 OP_PUSHBYTES_20 481cd73b98bf526a5cd4a39a138d1c3b940b7b6e OP_EQUAL",
      "scriptpubkey_type": "p2sh",
      "scriptpubkey_address": "38GK8FEUYCwsfCMH34EAK11o59gbAPrjyA",
      "value": 522000000
    },
    {
      "scriptpubkey": "51207a476f74a5101401bccd44c47d982a00db52a78e77433d0a1eb2699a8638e12d",
      "scriptpubkey_asm": "OP_PUSHNUM_1 OP_PUSHBYTES_32 7a476f74a5101401bccd44c47d982a00db52a78e77433d0a1eb2699a8638e12d",
      "scriptpubkey_type": "v1_p2tr",
      "scriptpubkey_address": "bc1p0frk7a99zq2qr0xdgnz8mxp2qrd49fuwwapn6zs7kf5e4p3cuyksndjdnx",
      "value": 23659
    }
  ],
  "size": 3083,
  "weight": 6782,
  "fee": 27118,
  "status": {
    "confirmed": true,
    "block_height": 834638,
    "block_hash": "000000000000000000025f742c626208ac87e0b7d15054abb4a19ca2d735a54e",
    "block_time": 1710405325
  },
  "hex": "0100000000011cf44599d5c2c5aaa288f1a1150b00870ef1713851073b6b193f1ba0a66decd1e30000000000fffffffffb292776251bc51be4a467ee3a1f273c93518c69475cb0969b3277d8c6ddab9d0000000000ffffffffb76d9d5729e20ccd1938a16b89828a2eaaf5fc7363ca6f3236b3bc0c0608125b0000000000ffffffff4936aa6ddcb2ef3d2b382916b9df5d474260b2cee76fc1158ff98efaac03e5ec0000000000ffffffff3e59bcdeb9d603bd7e2672a37ce62ad0d9dd59dc87641abff671b55680716b7e0100000000ffffffff3d4024e411ddb5a7f5a686f2afc5d17dad4a773901cd66ce7047f07f3ec0cba80000000000ffffffff4bb1df129a4da7a815bf0d7be29fdc3d0d5cbbb0cee24fa7dad1037955e936430000000000ffffffffc11dc4d3305808ba32f1dbfdc5cdb16da6372d0449bcdde0154b36599f6197a90000000000ffffffffe82ad0f59da8e7107b968a6a927159dcad189cda04e25ba38a2d84c585e5cbb20000000000ffffffffd1ecae6f4c6cd0948c8265a12cdcf2e61ba5be90e793b34670a8f0cbab551aeb0000000000ffffffff27c5294e4f0ab5c53ebbb52ff68fefbba55322488d52003c57913d30c2b4f0730000000000ffffffff72bc186c4dcb83a0d9d01d2f21453945dfab95a874a46f6db5db38821657ca810000000000ffffffff633a4c18306fad6a3ee84435613540d4455e438e3892beb77fd02d35ed17bd4b0000000000ffffffffb302600d23ec8b7aca1c73aa5371cd04a965f722c558b53f335c38b481ddc9be0100000000ffffffff2225e8f24f5c7e422998db565cd5cebb66b30beb6084e0ac98d072a3fa18bcb50000000000ffffffff50c77d2734615bb20021f828777224d2869c565271190084a4fe2caf6615073f0000000000ffffffffb024826736a1408f4920b732ccfc8c47ca92b3747611ea1e04c5c0ebc9ad8fd90000000000ffffffff62bf0ac90e113d2bc7dabb30f12f8d394e28d7ffb5c921f50f9cb06dd8535cd30000000000ffffffff5ec48d7bca385aac1e3cc2f504da65fabd4c5af77c5c358804339aa472509d200000000000ffffffff3156f48d18599d43650564679c863a56754d7b3add151a7e36d177159cc8bf640000000000ffffffff3edbf997fce4aec428803f90df977bb83ff67fecc8d2a02473aa0ffce3f3e7130000000000ffffffffac6dbf1b5c81cadbc7a43fb225ab0f9e04caa0690e0e716603d86edb89a9ee110000000000ffffffff3889820461458c205f34b098f35c04987ff114fd78a414e9fe53c798219a4dc90000000000ffffffffe77056ad81ae7e97c0a3ff6720baa52b996a0af2419505194ef81656fc511fca0000000000ffffffffe095eaf9537895e35f98af27e9ebce405e404fa2b4225984974d869bf679ef060000000000ffffffff8839fc66cb394115c6033081b7f2690d35026c18de25c44da831e5526462bdee0000000000fffffffff141858baac9d0e6f085aba30e6f74b6560325e33a1dc81137cbe194b026dbe00000000000ffffffffc5d03b8220db2787d115d3c37bf1be316f9f7f91ff3cc95170a05dccdacf51b70100000000ffffffff0280161d1f0000000017a914481cd73b98bf526a5cd4a39a138d1c3b940b7b6e876b5c0000000000002251207a476f74a5101401bccd44c47d982a00db52a78e77433d0a1eb2699a8638e12d0140568c0c9554d641143d0c00a24f754cd637d1ef20111db93605594a7cb52c7a62bfb9248fcde2096f48ae5cd26afbe74c7382ca15eda4dd83ac6a47bd711329a20140420bc0d0961806260ff0078eb5c6c9ff9aec51db682335d1d688f0c8a41acab660fb4d10f7b7917bf15f3f278ce7f06dcbf19556a0be630e52df795b23dcf9d1014095769f460a3ca9fe1a7d02283e81d7a1b4cc8e4ee7cf305296ab3d9951c53b6fefdb69e9a6155d4af6f20d9b02408f15a5fc6c1fbf0b7b6872de31694539abef0140ce878aa55e5d3b1ced780cc7915902e2e554d657a5b50791e6cabc05e56fd2215212092e9e0457360a3dfe9c64f1974332b0ae25acd74e05d29ea366df43f2380140e4f792e08cfc68db5db741b53c02e5047cbb3cc28006d7e522c7c1cc7c6e282eb622b336837e5ed788a090958acaf9143cf8991b32d5c0df562203ab504f5a530140882ff766dc6648283129c9eed6275f135a059c9c7d552cbf1946503179f527e87a73aeba7b70e995f7f2a2a154fb04258f16848e520bd187a0d94cb8c842d84701409bd2085e2951e87a5d35ed30478c69743393a073bfb95dbc4952473b451398992c8a62ea010dcc5bae5fe278651eeaffd024b77b04a63fe453233239e8d4db8b0140f1550c4111c8bc535e13721c58d74d66532845ead5f636409843852bcf900d8eec36be544887a9e0d458b2e10314334a5b661937b2f2aaf6b9376dc1855539b301405aa5433894781ec418979b7ea51300704af7f51576dc8159164a2a2af46d5b06007651e5a87ca936c807d94729ac226100753acd665ba1725f9a76c684878d2601402dfef15c73b9dfd52cc05f502fd4a701a53548ba15063badecd7c689ea2fdaff2be3748ebb30720ce27e6617dddec8d8cdda6ee93a78725380375f95841e3917014005365b7fddc12daf662396ddb6f443c072d412d50ac8ff5e7d784e3f476454a97db17205e2b4f9c5238cb575df30c982bf90fa19413f38a04c8582e48c88138601404dc22dec50beae8a3c40cb7ab55863016c7cc2fdde1a32e0431c6bf200a6b78979b9108f6c1e95d19eee3c690b4376fa98bffcf4f4e40d45b532e7f475271d1f0140ef9c811d1da865cb3dee577bc55d115d42ddb7c858b0dec03fbc3ad47b70cb3b31c289c4fafc572297fd97d3afddc463776d59dd16083b6848794ce7283469450140518e3d5ab75724ebbb984fb4b20a48ac2ee9d34cf26b0e692cbe06aa84c5958fac672c1e94e8c9e7c97e9663d58ec7a23a43f7d164ab48c616f43e284f28dc6601402c4ae15c07a08ec17ed2c233912737b6e9c7f072ce4685a86f18752e03d50add2670616854d617641844f985188efd7a6faf9cbc6588273863d385e3a035c3cd0140585b379673ea15a910e80e9a69caa6e4f6bd74a2d21e8754eb10c603e85eb93730411a1ad3421b7b2e1a35a11fbb77067f7f7be9fc00b7b4adbe833628a3df57014024842e82dc3a274f61d9e0b31192778f8bac997e8076d5170ab79635bed5ffa98c06614b009496764756a8182bd83c94155ffe455dd8ca784f027bf45c94df590140c893d1607a11bb69c7676564dfa16991dd068cb89a24ba46fa69380c55b87b1a98c9b780ac9d0d1f1f0ceb6b3ad76db8606bc34ae08bb634aa64b896f3b1ef160140a8132ffbcf5e88256da234fd3da31a6b891506a65a02ef40c19eec7237a5b20e42e682f069abb1e91e98dab18a0d1ff12a21947a40d402f46b9f3434eecc63440140e0ac274e9fa3b59a92a24be235f173f9b80cb1397b3df113d6a5223d81b355f7a6702f6f3962704b13ba833c49c3b1954ce9f3f75882ba5eafa29913cdc1f8d30140aa91754a654edeef8c78f8ecf2e47148105a10c8ba8a85689c58cfbd489d8c1295742217065672338aa9fab06fbbfa9bc807ade371b58693ac1815b3c1df32bb014036a34432c441f76284ed29588ab01cd5144e99a5435e8bd6daeddab8e6fb356c8d95a2c6d5ae62882dfdc7bea84cea8dc038246fe03c5b77c0cfd3c6c2c0b4f801401a8ca1ed61c727abe8ba39343ef12cd52c83f8783c693b36d4fdd62eb05f1b0e65e62edc5a328d67ef50aaa4b299a2c4ff3ddcb77c216283c93a06d9612c1ba1014086abd182b472e684ae8049fd66532208bf13308350c40497c16f9e07d435cd46ecc53d188062f54fb7b26583173772d66cb7e4cb84fdea0d5a143519f601d4910140afcb4011b3247b55b6e0c9d89d5a24d01c8daf63683291e4f0acaae55fe73420e1c2bf7b83e2990a601f8a117cf6bf24faeee2374b5a8b20553af27c5cfecf6b0140fc4d4abeb3c6b0309942861c3e1c3d80d47e69a2f66970b3396a28c2793f595188f6f8538b115a6537c9c054a566d758f2f86ef6ae5bd89bac1fac7a5a9b2d7b0140e37e1fa86fba5a1a3b8f3712e85277f52292a16473d141f9bb825c95fcceee182132cdc15ab55311cd7dec3fe0a5b7e769657851bc8b63fc3a3fde49c796cf2b01409eb37f081e8587b81df0537248e9d1b7f82e50e1b42f1705aa9b91be53129291f6375dab0eb070f311016e884207fea6c5c6ec32807da841945fd32ae7a0948900000000"
}