{
  "txid": "9e13fc11f5af497bb5cfe0421ae6d53931349448c33ae556b028da9f8d2ad3e9",
  "version": 2,
  "locktime": 0,
  "vin": [
    {
      "txid": "98e673a3143bc64fba6abce56d5bbbc2c0ec59dfa319c7da88d3ca64bbf59272",
      "vout": 1,
      "prevout": {
        "scriptpubkey": "0014996be79baff1b3fd881f541c0a8684ae591c8468",
        "scriptpubkey_asm": "OP_0 OP_PUSHBYTES_20 996be79baff1b3fd881f541c0a8684ae591c8468",
        "scriptpubkey_type": "v0_p2wpkh",
        "scriptpubkey_address": "bc1qn9470xa07xelmzql2swq4p5y4ev3eprgrsyffq",
        "value": 22747
      },
      "scriptsig": "",
      "scriptsig_asm": "",
      "witness": [
        "3043022018d1fac22a70e3cdd48be2a1dbdb48468079946afe0830969d880b2446badd3d021f031f9e556518427d8d0b9a407c94908c6269c4741294db1bbb540883eae37b01",
        "0386e836d767171abac23f90e379a78e7040cd6be833faea9e428759096feccce6"
      ],
      "is_coinbase": false,
      "sequence": 0
    },
    {
      "txid": "0e8014f6939ddeab17a404025874a644f6d2a65f0753a14b51d2928a12fbf59d",
      "vout": 44,
      "prevout": {
        "scriptpubkey": "00145add095d34ffe2675ebbd6396ae1f6caaf94795a",
        "scriptpubkey_asm": "OP_0 OP_PUSHBYTES_20 5add095d34ffe2675ebbd6396ae1f6caaf94795a",
        "scriptpubkey_type": "v0_p2wpkh",
        "scriptpubkey_address": "bc1qttwsjhf5ll3xwh4m6cuk4c0ke2heg726zdyt85",
        "value": 51136
      },
      "scriptsig": "",
      "scriptsig_asm": "",
      "witness": [
        "3045022100d33b64a9a46b06fbe9c154caccbc2cfe2a4b6ca6712181f6d1a838e0ebe3e81402203af02464c6ca3fd0749e1bd5113de0a1c9f9591ba8549ebe38ac097772d2198101",
        "038ef9c761edd7df8256b9d7021b87450a0802022b2e685d12cb541c906d29dc1e"
      ],
      "is_coinbase": false,
      "sequence": 0
    },
    {
      "txid": "27f157b49a86b45ed71be7f3a7376d9cccc5338462b9d488d75d278bbe46e875",
      "vout": 5,
      "prevout": {
        "scriptpubkey": "00145add095d34ffe2675ebbd6396ae1f6caaf94795a",
        "scriptpubkey_asm": "OP_0 OP_PUSHBYTES_20 5add095d34ffe2675ebbd6396ae1f6caaf94795a",
        "scriptpubkey_type": "v0_p2wpkh",
        "scriptpubkey_address": "bc1qttwsjhf5ll3xwh4m6cuk4c0ke2heg726zdyt85",
        "value": 53015
      },
      "scriptsig": "",
      "scriptsig_asm": "",
      "witness": [
        "304402204a7806d14b38acfa4a00eb8fb34f405bbfa8991281f21120002a4037b8a01b9802203b0cb2fddbd95446421b93c940cfbc4156ec59a12a27973977c39bc153cf57b401",
        "038ef9c761edd7df8256b9d7021b87450a0802022b2e685d12cb541c906d29dc1e"
      ],
      "is_coinbase": false,
      "sequence": 0
    }
  ],
  "vout": [
    {
      "scriptpubkey": "00146def632ecc99c3d61a099eadb6082ae95d8c817c",
      "scriptpubkey_asm": "OP_0 OP_PUSHBYTES_20 6def632ecc99c3d61a099eadb6082ae95d8c817c",
      "scriptpubkey_type": "v0_p2wpkh",
      "scriptpubkey_address": "bc1qdhhkxtkvn8pavxsfn6kmvzp2a9wceqtu5n2z0w",
      "value": 110000
    },
    {
      "scriptpubkey": "0014315583b0e8a386080267eab92882a225e37560c6",
      "scriptpubkey_asm": "OP_0 OP_PUSHBYTES_20 315583b0e8a386080267eab92882a225e37560c6",
      "scriptpubkey_type": "v0_p2wpkh",
      "scriptpubkey_address": "bc1qx92c8v8g5wrqsqn8a2uj3q4zyh3h2cxxs0uz8d",
      "value": 13878
    }
  ],
  "size": 518,
  "weight": 1103,
  "fee": 3020,
  "status": {
    "confirmed": true,
    "block_height": 834464,
    "block_hash": "0000000000000000000177a0869a911a2b65c9bdcd5a8bcb02b68f305bee848e",
    "block_time": 1710308296
  },
  "hex": "020000000001037292f5bb64cad388dac719a3df59ecc0c2bb5b6de5bc6aba4fc63b14a373e6980100000000000000009df5fb128a92d2514ba153075fa6d2f644a674580204a417abde9d93f614800e2c000000000000000075e846be8b275dd788d4b9628433c5cc9c6d37a7f3e71bd75eb4869ab457f12705000000000000000002b0ad0100000000001600146def632ecc99c3d61a099eadb6082ae95d8c817c3636000000000000160014315583b0e8a386080267eab92882a225e37560c602463043022018d1fac22a70e3cdd48be2a1dbdb48468079946afe0830969d880b2446badd3d021f031f9e556518427d8d0b9a407c94908c6269c4741294db1bbb540883eae37b01210386e836d767171abac23f90e379a78e7040cd6be833faea9e428759096feccce602483045022100d33b64a9a46b06fbe9c154caccbc2cfe2a4b6ca6712181f6d1a838e0ebe3e81402203af02464c6ca3fd0749e1bd5113de0a1c9f9591ba8549ebe38ac097772d219810121038ef9c761edd7df8256b9d7021b87450a0802022b2e685d12cb541c906d29dc1e0247304402204a7806d14b38acfa4a00eb8fb34f405bbfa8991281f21120002a4037b8a01b9802203b0cb2fddbd95446421b93c940cfbc4156ec59a12a27973977c39bc153cf57b40121038ef9c761edd7df8256b9d7021b87450a0802022b2e685d12cb541c906d29dc1e00000000"
}