{
  "txid": "9e1ed016a3b9fb8be4ac50b5a43cb8d13116140d634121595a926a9279f819df",
  "version": 2,
  "locktime": 0,
  "vin": [
    {
      "txid": "abdcbb8bcefa0f088373ceda41a70fe1aeaa3823b969e1169e2a29269068d8dc",
      "vout": 16,
      "prevout": {
        "scriptpubkey": "5120214a32960170f6d9aa7152834e02bdbcc8269c39058ba5dc5fe7f67b293691ff",
        "scriptpubkey_asm": "OP_PUSHNUM_1 OP_PUSHBYTES_32 214a32960170f6d9aa7152834e02bdbcc8269c39058ba5dc5fe7f67b293691ff",
        "scriptpubkey_type": "v1_p2tr",
        "scriptpubkey_address": "bc1py99r99spwrmdn2n322p5uq4ahnyzd8peqk96thzlulm8k2fkj8ls3sqd9r",
        "value": 2522
      },
      "scriptsig": "",
      "scriptsig_asm": "",
      "witness": [
        "6580d8aa311094385a1ddcac1d69079747ac6b04be4c2e2d734d46feaef7e60c728bb7273c0285cfac0ff6534e363f2a388b438b8eaab59bb39df03dc3ad08da",
        "20c9822c4db8a4e19c6f695fd687ab8407294b5ed15f15b563a960ba410f455636ac0063036f7264010118746578742f706c61696e3b636861727365743d7574662d3800387b2270223a226272632d3230222c226f70223a227472616e73666572222c227469636b223a226f726e6a222c22616d74223a22313030227d68",
        "c025dced391475af84759664675c16f5ed581b243a944241d7ee258c8cfb80c9db"
      ],
      "is_coinbase": false,
      "sequence": 4294967295
    }
  ],
  "vout": [
    {
      "scriptpubkey": "512060e7b9d91ee3091b65165528563dba11a47299520ea2fc67070ec6ac303fc05d",
      "scriptpubkey_asm": "OP_PUSHNUM_1 OP_PUSHBYTES_32 60e7b9d91ee3091b65165528563dba11a47299520ea2fc67070ec6ac303fc05d",
      "scriptpubkey_type": "v1_p2tr",
      "scriptpubkey_address": "bc1pvrnmnkg7uvy3kegk2559v0d6zxj89x2jp630cec8pmr2cvplcpwsn3pn79",
      "value": 546
    }
  ],
  "size": 323,
  "weight": 605,
  "fee": 1976,
  "status": {
    "confirmed": true,
    "block_height": 834460,
    "block_hash": "00000000000000000000484a79b643b2524bbce82e5d8a442013fa5b8905ed98",
    "block_time": 1710307468
  },
  "hex": "02000000000101dcd8689026292a9e16e169b92338aaaee10fa741dace7383080fface8bbbdcab1000000000ffffffff01220200000000000022512060e7b9d91ee3091b65165528563dba11a47299520ea2fc67070ec6ac303fc05d03406580d8aa311094385a1ddcac1d69079747ac6b04be4c2e2d734d46feaef7e60c728bb7273c0285cfac0ff6534e363f2a388b438b8eaab59bb39df03dc3ad08da7e20c9822c4db8a4e19c6f695fd687ab8407294b5ed15f15b563a960ba410f455636ac0063036f7264010118746578742f706c61696e3b636861727365743d7574662d3800387b2270223a226272632d3230222c226f70223a227472616e73666572222c227469636b223a226f726e6a222c22616d74223a22313030227d6821c025dced391475af84759664675c16f5ed581b243a944241d7ee258c8cfb80c9db00000000"
}