{
  "txid": "9e47513a2d5f98dacb8118ebabdf7761057b2a3f1ce2e040aa49f361ddb58018",
  "version": 2,
  "locktime": 0,
  "vin": [
    {
      "txid": "8486ecb4df0880316dd6e82b3971b4df187aff23765bc3a47f8d78bb53aa273c",
      "vout": 110,
      "prevout": {
        "scriptpubkey": "51202f03f76556e850ed9bc14c68613c3a067fc32e83a5231c709889136e531c5b4f",
        "scriptpubkey_asm": "OP_PUSHNUM_1 OP_PUSHBYTES_32 2f03f76556e850ed9bc14c68613c3a067fc32e83a5231c709889136e531c5b4f",
        "scriptpubkey_type": "v1_p2tr",
        "scriptpubkey_address": "bc1p9uplwe2kapgwmx7pf35xz0p6qeluxt5r5533cuyc3yfku5cutd8s0zxqwp",
        "value": 2575
      },
      "scriptsig": "",
      "scriptsig_asm": "",
      "witness": [
        "1618b82526270aeeffd6a87b1bc514082df28a6f5ad39dc85d69ee4dc27854a82cfd925f893765505ce05e30fe94dd757fded1b8d319678e9a08c537c0bbaeb4",
        "20a8e6badff04051f754e4f68c6dfac14d7647077e0919f05cad28e9808c4b2a2dac0063036f726401010a746578742f706c61696e00367b2270223a226272632d3230222c226f70223a226d696e74222c227469636b223a2261616161222c22616d74223a223130303030227d68",
        "c1a8e6badff04051f754e4f68c6dfac14d7647077e0919f05cad28e9808c4b2a2d"
      ],
      "is_coinbase": false,
      "sequence": 4261412863
    }
  ],
  "vout": [
    {
      "scriptpubkey": "0014ddd7ef12ea6f78edcc1e8e7afa12c01ab59f3339",
      "scriptpubkey_asm": "OP_0 OP_PUSHBYTES_20 ddd7ef12ea6f78edcc1e8e7afa12c01ab59f3339",
      "scriptpubkey_type": "v0_p2wpkh",
      "scriptpubkey_address": "bc1qmht77yh2dauwmnq73ea05ykqr26e7veea8spz6",
      "value": 546
    }
  ],
  "size": 295,
  "weight": 541,
  "fee": 2029,
  "status": {
    "confirmed": true,
    "block_height": 834460,
    "block_hash": "00000000000000000000484a79b643b2524bbce82e5d8a442013fa5b8905ed98",
    "block_time": 1710307468
  },
  "hex": "020000000001013c27aa53bb788d7fa4c35b7623ff7a18dfb471392be8d66d318008dfb4ec86846e00000000fffffffd012202000000000000160014ddd7ef12ea6f78edcc1e8e7afa12c01ab59f333903401618b82526270aeeffd6a87b1bc514082df28a6f5ad39dc85d69ee4dc27854a82cfd925f893765505ce05e30fe94dd757fded1b8d319678e9a08c537c0bbaeb46e20a8e6badff04051f754e4f68c6dfac14d7647077e0919f05cad28e9808c4b2a2dac0063036f726401010a746578742f706c61696e00367b2270223a226272632d3230222c226f70223a226d696e74222c227469636b223a2261616161222c22616d74223a223130303030227d6821c1a8e6badff04051f754e4f68c6dfac14d7647077e0919f05cad28e9808c4b2a2d00000000"
}