{
  "txid": "9e48f83e5ce4cd704858f5185bf4eb98ab9966ae0f5fdb777362cfd8c1cccedc",
  "version": 1,
  "locktime": 0,
  "vin": [
    {
      "txid": "92829bfe2953c167a46ac980ae58e05045cde848fae5f89070f7ff87e4533f44",
      "vout": 0,
      "prevout": {
        "scriptpubkey": "0014df74d5d431bac58d31075329364e1d418079aa78",
        "scriptpubkey_asm": "OP_0 OP_PUSHBYTES_20 df74d5d431bac58d31075329364e1d418079aa78",
        "scriptpubkey_type": "v0_p2wpkh",
        "scriptpubkey_address": "bc1qma6dt4p3htzc6vg82v5nvnsagxq8n2ncrk3wlf",
        "value": 3840331
      },
      "scriptsig": "",
      "scriptsig_asm": "",
      "witness": [
        "3045022100ca943ea974037cce913fdb3fc2f1215b13ebb9d233c7e08284c4d269b3348a5b0220484477d256b42f7b5cc799a70d6debc6e5f84f04657a25b39fbf10c3aa4c48b001",
        "02deb7822d29a42563bef7d435ea04a127541c147467d07015abc1cd02e20d3fa7"
      ],
      "is_coinbase": false,
      "sequence": 4294967295
    }
  ],
  "vout": [
    {
      "scriptpubkey": "76a914fb16172f866ccb2f822f05dadc3de7c4d94edf9188ac",
      "scriptpubkey_asm": "OP_DUP OP_HASH160 OP_PUSHBYTES_20 fb16172f866ccb2f822f05dadc3de7c4d94edf91 OP_EQUALVERIFY OP_CHECKSIG",
      "scriptpubkey_type": "p2pkh",
      "scriptpubkey_address": "1Ptd52goQ1PtEzn29m7R4cx4c52MkyrMoo",
      "value": 1361468
    },
    {
      "scriptpubkey": "0014df74d5d431bac58d31075329364e1d418079aa78",
      "scriptpubkey_asm": "OP_0 OP_PUSHBYTES_20 df74d5d431bac58d31075329364e1d418079aa78",
      "scriptpubkey_type": "v0_p2wpkh",
      "scriptpubkey_address": "bc1qma6dt4p3htzc6vg82v5nvnsagxq8n2ncrk3wlf",
      "value": 2474975
    }
  ],
  "size": 226,
  "weight": 574,
  "fee": 3888,
  "status": {
    "confirmed": true,
    "block_height": 834638,
    "block_hash": "000000000000000000025f742c626208ac87e0b7d15054abb4a19ca2d735a54e",
    "block_time": 1710405325
  },
  "hex": "01000000000101443f53e487fff77090f8e5fa48e8cd4550e058ae80c96aa467c15329fe9b82920000000000ffffffff023cc61400000000001976a914fb16172f866ccb2f822f05dadc3de7c4d94edf9188acdfc3250000000000160014df74d5d431bac58d31075329364e1d418079aa7802483045022100ca943ea974037cce913fdb3fc2f1215b13ebb9d233c7e08284c4d269b3348a5b0220484477d256b42f7b5cc799a70d6debc6e5f84f04657a25b39fbf10c3aa4c48b0012102deb7822d29a42563bef7d435ea04a127541c147467d07015abc1cd02e20d3fa700000000"
}