{
  "txid": "9e5fee97f5d24c2d8d17c24ef56d802b60ef074f71ca2170021a24d3b32ee3a0",
  "version": 2,
  "locktime": 0,
  "vin": [
    {
      "txid": "9dac420da35cb81b391ed968aac0cd72d3425954011e34a99295a26ff493e321",
      "vout": 4,
      "prevout": {
        "scriptpubkey": "512002847422dff5bc92868068ed39670d1d63326208bc60423f9229a38010f4bd97",
        "scriptpubkey_asm": "OP_PUSHNUM_1 OP_PUSHBYTES_32 02847422dff5bc92868068ed39670d1d63326208bc60423f9229a38010f4bd97",
        "scriptpubkey_type": "v1_p2tr",
        "scriptpubkey_address": "bc1pq2z8ggkl7k7f9p5qdrknjecdr43nycsgh3syy0uj9x3cqy85hktsden43e",
        "value": 2080
      },
      "scriptsig": "",
      "scriptsig_asm": "",
      "witness": [
        "e105e085e4062d7921c7d149e8465b751a70d48a4fe5363c09fed5292fe1dda775570e03d2e5e063653d8ab4dfa0961f62d036d53ddca8282f57e8d8101d5f01",
        "20969af3103d32f435173ab3393c427dfb3847f21494621ee16e67d8175710d429ac0063036f7264010118746578742f706c61696e3b636861727365743d7574662d3800347b2270223a226272632d3230222c226f70223a226d696e74222c227469636b223a2278706179222c22616d74223a22313030227d68",
        "c0969af3103d32f435173ab3393c427dfb3847f21494621ee16e67d8175710d429"
      ],
      "is_coinbase": false,
      "sequence": 4294967293
    }
  ],
  "vout": [
    {
      "scriptpubkey": "a9141f471f586b493d9c82b8c2ba5506265c68f07a4e87",
      "scriptpubkey_asm": "OP_HASH160 OP_PUSHBYTES_20 1f471f586b493d9c82b8c2ba5506265c68f07a4e OP_EQUAL",
      "scriptpubkey_type": "p2sh",
      "scriptpubkey_address": "34YQ5AVWarPjYDbb2WLsS2kfqfPgjYEHDD",
      "value": 540
    }
  ],
  "size": 308,
  "weight": 557,
  "fee": 1540,
  "status": {
    "confirmed": true,
    "block_height": 834464,
    "block_hash": "0000000000000000000177a0869a911a2b65c9bdcd5a8bcb02b68f305bee848e",
    "block_time": 1710308296
  },
  "hex": "0200000000010121e393f46fa29592a9341e01545942d372cdc0aa68d91e391bb85ca30d42ac9d0400000000fdffffff011c0200000000000017a9141f471f586b493d9c82b8c2ba5506265c68f07a4e870340e105e085e4062d7921c7d149e8465b751a70d48a4fe5363c09fed5292fe1dda775570e03d2e5e063653d8ab4dfa0961f62d036d53ddca8282f57e8d8101d5f017a20969af3103d32f435173ab3393c427dfb3847f21494621ee16e67d8175710d429ac0063036f7264010118746578742f706c61696e3b636861727365743d7574662d3800347b2270223a226272632d3230222c226f70223a226d696e74222c227469636b223a2278706179222c22616d74223a22313030227d6821c0969af3103d32f435173ab3393c427dfb3847f21494621ee16e67d8175710d42900000000"
}