{
  "txid": "9e7f81e22653a88204f7336615893eff2ee519b9c26f29090ad1acf271fab8ce",
  "version": 2,
  "locktime": 0,
  "vin": [
    {
      "txid": "9c10b007d2133e013cafef64d1faa7fec4afc4908ff78aa73222c05d55f4b3b4",
      "vout": 11,
      "prevout": {
        "scriptpubkey": "51201d8f88ed01d2946c1d1d0b581ebf5a5efee8f9550f8bb4f805e2eaa147f46160",
        "scriptpubkey_asm": "OP_PUSHNUM_1 OP_PUSHBYTES_32 1d8f88ed01d2946c1d1d0b581ebf5a5efee8f9550f8bb4f805e2eaa147f46160",
        "scriptpubkey_type": "v1_p2tr",
        "scriptpubkey_address": "bc1prk8c3mgp622xc8gapdvpa066tmlw3724p79mf7q9ut42z3l5v9sqkjtlkp",
        "value": 3234
      },
      "scriptsig": "",
      "scriptsig_asm": "",
      "witness": [
        "b2b2fd6b339d80e263b3f69dd3db0c64da0242ce3aef85079cc943c0b497802d0cc4e99e88e8ed7ed650812b2659f26d704d3e7cc868c66e29054db0543b9a10",
        "2053a705b296618241afd15c859e5da6b2bd1b90a1056514030ecad91317d8410cac0063036f726401011e6170706c69636174696f6e2f6a736f6e3b636861727365743d7574662d38004cd27b2270223a22706f772d3230222c226f70223a226d696e74222c227469636b223a2250455045222c22616d74223a2231303030222c22736f6c7574696f6e223a22504550453a62633170636a65387233733875656e746d64767a6e34777337786d3836367879707535756139357371796877756835616d61677565367a73707a733637713a303030303030303030303030303030303030303139393431613561653132383937363539383134343239323533333030353762306461393666336465613163353a34373532333334373339227d68",
        "c13e1a296467c00ef4aae3d2c5b2725c238a71cd400892ce19de6d969e3f5bb91e"
      ],
      "is_coinbase": false,
      "sequence": 4294967295
    }
  ],
  "vout": [
    {
      "scriptpubkey": "5120c4b271c607e666bdb5829d5d0f1b67d68c40f29ce9690012eee5e9ddf51cce85",
      "scriptpubkey_asm": "OP_PUSHNUM_1 OP_PUSHBYTES_32 c4b271c607e666bdb5829d5d0f1b67d68c40f29ce9690012eee5e9ddf51cce85",
      "scriptpubkey_type": "v1_p2tr",
      "scriptpubkey_address": "bc1pcje8r3s8uentmdvzn4ws7xm866xypu5ua95sqyhwuh5amague6zspzs67q",
      "value": 546
    }
  ],
  "size": 486,
  "weight": 768,
  "fee": 2688,
  "status": {
    "confirmed": true,
    "block_height": 834460,
    "block_hash": "00000000000000000000484a79b643b2524bbce82e5d8a442013fa5b8905ed98",
    "block_time": 1710307468
  },
  "hex": "02000000000101b4b3f4555dc02232a78af78f90c4afc4fea7fad164efaf3c013e13d207b0109c0b00000000ffffffff012202000000000000225120c4b271c607e666bdb5829d5d0f1b67d68c40f29ce9690012eee5e9ddf51cce850340b2b2fd6b339d80e263b3f69dd3db0c64da0242ce3aef85079cc943c0b497802d0cc4e99e88e8ed7ed650812b2659f26d704d3e7cc868c66e29054db0543b9a10fd1f012053a705b296618241afd15c859e5da6b2bd1b90a1056514030ecad91317d8410cac0063036f726401011e6170706c69636174696f6e2f6a736f6e3b636861727365743d7574662d38004cd27b2270223a22706f772d3230222c226f70223a226d696e74222c227469636b223a2250455045222c22616d74223a2231303030222c22736f6c7574696f6e223a22504550453a62633170636a65387233733875656e746d64767a6e34777337786d3836367879707535756139357371796877756835616d61677565367a73707a733637713a303030303030303030303030303030303030303139393431613561653132383937363539383134343239323533333030353762306461393666336465613163353a34373532333334373339227d6821c13e1a296467c00ef4aae3d2c5b2725c238a71cd400892ce19de6d969e3f5bb91e00000000"
}