{
  "txid": "9e8f6ebb1be6b4b917f9cb735c9c15b7afa94731d557cea26f5069bb612edab2",
  "version": 2,
  "locktime": 0,
  "vin": [
    {
      "txid": "f9dcad9a1011348adccb065b371235bf7b472f5e3ab3b4d4138a0d0c8d1b7cce",
      "vout": 3,
      "prevout": {
        "scriptpubkey": "00148808832201df29a9788420824956e87e2a2f7ad9",
        "scriptpubkey_asm": "OP_0 OP_PUSHBYTES_20 8808832201df29a9788420824956e87e2a2f7ad9",
        "scriptpubkey_type": "v0_p2wpkh",
        "scriptpubkey_address": "bc1q3qygxgspmu56j7yyyzpyj4hg0c4z77keyqq6dw",
        "value": 6977
      },
      "scriptsig": "",
      "scriptsig_asm": "",
      "witness": [
        "304402207b7a1d44ecf3f5cdb5b2ff8463015ec206fdfea8af7946dc82f8db25cb4fd03102201c95292a16e03b3dc274a442e6fd7b20be5aacd6a28e3d34b64a4b54d9395b7a01",
        "023c15c4b95985c6e726cbc91b710bd3f52217595afbcc499001fef654fabb2b9e"
      ],
      "is_coinbase": false,
      "sequence": 4294967293
    },
    {
      "txid": "66705f9327fe407989fa99f2253dd818a07412d6d02f7e7ff465ff26e035678c",
      "vout": 8,
      "prevout": {
        "scriptpubkey": "00148808832201df29a9788420824956e87e2a2f7ad9",
        "scriptpubkey_asm": "OP_0 OP_PUSHBYTES_20 8808832201df29a9788420824956e87e2a2f7ad9",
        "scriptpubkey_type": "v0_p2wpkh",
        "scriptpubkey_address": "bc1q3qygxgspmu56j7yyyzpyj4hg0c4z77keyqq6dw",
        "value": 9227
      },
      "scriptsig": "",
      "scriptsig_asm": "",
      "witness": [
        "3045022100bf3cd289c2aaab008eb0e4e576b2929e6679bd73f39177e1778dfd946b4c18e602201f3416490d5aad031e738eb639777b32335c9b749ac829bdfbd81fbe93d26fdd01",
        "023c15c4b95985c6e726cbc91b710bd3f52217595afbcc499001fef654fabb2b9e"
      ],
      "is_coinbase": false,
      "sequence": 4294967293
    }
  ],
  "vout": [
    {
      "scriptpubkey": "001495872a562a58df7185cfb185593357d328a60a9f",
      "scriptpubkey_asm": "OP_0 OP_PUSHBYTES_20 95872a562a58df7185cfb185593357d328a60a9f",
      "scriptpubkey_type": "v0_p2wpkh",
      "scriptpubkey_address": "bc1qjkrj5432tr0hrpw0kxz4jv6h6v52vz5luey8p6",
      "value": 14257
    }
  ],
  "size": 340,
  "weight": 709,
  "fee": 1947,
  "status": {
    "confirmed": true,
    "block_height": 834464,
    "block_hash": "0000000000000000000177a0869a911a2b65c9bdcd5a8bcb02b68f305bee848e",
    "block_time": 1710308296
  },
  "hex": "02000000000102ce7c1b8d0c0d8a13d4b4b33a5e2f477bbf3512375b06cbdc8a3411109aaddcf90300000000fdffffff8c6735e026ff65f47f7e2fd0d61274a018d83d25f299fa897940fe27935f70660800000000fdffffff01b13700000000000016001495872a562a58df7185cfb185593357d328a60a9f0247304402207b7a1d44ecf3f5cdb5b2ff8463015ec206fdfea8af7946dc82f8db25cb4fd03102201c95292a16e03b3dc274a442e6fd7b20be5aacd6a28e3d34b64a4b54d9395b7a0121023c15c4b95985c6e726cbc91b710bd3f52217595afbcc499001fef654fabb2b9e02483045022100bf3cd289c2aaab008eb0e4e576b2929e6679bd73f39177e1778dfd946b4c18e602201f3416490d5aad031e738eb639777b32335c9b749ac829bdfbd81fbe93d26fdd0121023c15c4b95985c6e726cbc91b710bd3f52217595afbcc499001fef654fabb2b9e00000000"
}