{
  "txid": "9e9769201a31a3b2f4b6c856cd49c34a97b61185d487fe64c81bb08a384b82d4",
  "version": 2,
  "locktime": 0,
  "vin": [
    {
      "txid": "c65c502d20d83387e102128da318a1cd0650ca6f355a3d569b240c421a355fad",
      "vout": 0,
      "prevout": {
        "scriptpubkey": "0014b91ab091136e3c3add1980239cc159ff13cbaa53",
        "scriptpubkey_asm": "OP_0 OP_PUSHBYTES_20 b91ab091136e3c3add1980239cc159ff13cbaa53",
        "scriptpubkey_type": "v0_p2wpkh",
        "scriptpubkey_address": "bc1qhydtpygndc7r4hgesq3ees2elufuh2jnaqvvxk",
        "value": 149283
      },
      "scriptsig": "",
      "scriptsig_asm": "",
      "witness": [
        "3045022100d9be90f57cf4068f9c56d0920481328a50a753bd66d4bcf1d80f6b81f2ebaf6b02204c5b3a5a359c128cd9901c1231133fe7bfc61d198426f7613c0b191867331b1501",
        "02ce4cd50cbb9ce530fd5d61575a26b048162ae78dcba6cce336d5a555c6243d53"
      ],
      "is_coinbase": false,
      "sequence": 4294967293
    }
  ],
  "vout": [
    {
      "scriptpubkey": "a914a94c51fbe3f1e9a9011fe41c12c7e6e70aa5c28487",
      "scriptpubkey_asm": "OP_HASH160 OP_PUSHBYTES_20 a94c51fbe3f1e9a9011fe41c12c7e6e70aa5c284 OP_EQUAL",
      "scriptpubkey_type": "p2sh",
      "scriptpubkey_address": "3H8BYnbmjxti7Fvt9MSMi5QW9chta7e67J",
      "value": 145842
    }
  ],
  "size": 193,
  "weight": 442,
  "fee": 3441,
  "status": {
    "confirmed": true,
    "block_height": 834638,
    "block_hash": "000000000000000000025f742c626208ac87e0b7d15054abb4a19ca2d735a54e",
    "block_time": 1710405325
  },
  "hex": "02000000000101ad5f351a420c249b563d5a356fca5006cda118a38d1202e18733d8202d505cc60000000000fdffffff01b23902000000000017a914a94c51fbe3f1e9a9011fe41c12c7e6e70aa5c2848702483045022100d9be90f57cf4068f9c56d0920481328a50a753bd66d4bcf1d80f6b81f2ebaf6b02204c5b3a5a359c128cd9901c1231133fe7bfc61d198426f7613c0b191867331b15012102ce4cd50cbb9ce530fd5d61575a26b048162ae78dcba6cce336d5a555c6243d5300000000"
}