{
  "txid": "9e9e49090d21634e2f904c6325934d5e7ac92537da11a937d7eda49d604226e2",
  "version": 1,
  "locktime": 0,
  "vin": [
    {
      "txid": "7664930facf6ef1b1c45356f31feeaaeca1254196fd8e6f242a18811afb5af21",
      "vout": 5,
      "prevout": {
        "scriptpubkey": "0020cdd4c38966813ab3912f4ef39eb9cedacc5da1fab62cd1e0824c9686de878e1c",
        "scriptpubkey_asm": "OP_0 OP_PUSHBYTES_32 cdd4c38966813ab3912f4ef39eb9cedacc5da1fab62cd1e0824c9686de878e1c",
        "scriptpubkey_type": "v0_p2wsh",
        "scriptpubkey_address": "bc1qeh2v8ztxsyat8yf0fmeeawwwmtx9mg06kckdrcyzfjtgdh583cwqek74j9",
        "value": 6579067
      },
      "scriptsig": "",
      "scriptsig_asm": "",
      "witness": [
        "",
        "30450221009b345364c0523254f7090096499e705f16f80ac50ea9f0c97c2a70a264ba6542022007384b8f47877da7ed2fe6b02e747439e45d83c0c37bf69985d6e63defa0dd9401",
        "304402207739f2e5e071365f6cf62463a71f0c0ad4f1e4ac2131ddc9a0e1f61b5dcd547902207dfbe7c51e40d0df10aff23fde2912ff8e19aaf9b21eaa147a170edf2b98109001",
        "522102dbc486f94accd46b55b5049475a7b839b0e19070bf543862e5afba89938ae5672102d520a912d504f7e49296ee9aa2d6ca5f84c136be1f55e535c1e272d66eb1797a2102aade5cdb879ab0ab96961eab432908ba2ce04a5eb8653bbf72fb5ef27cb7f2ae53ae"
      ],
      "is_coinbase": false,
      "sequence": 4294967295,
      "inner_witnessscript_asm": "OP_PUSHNUM_2 OP_PUSHBYTES_33 02dbc486f94accd46b55b5049475a7b839b0e19070bf543862e5afba89938ae567 OP_PUSHBYTES_33 02d520a912d504f7e49296ee9aa2d6ca5f84c136be1f55e535c1e272d66eb1797a OP_PUSHBYTES_33 02aade5cdb879ab0ab96961eab432908ba2ce04a5eb8653bbf72fb5ef27cb7f2ae OP_PUSHNUM_3 OP_CHECKMULTISIG"
    }
  ],
  "vout": [
    {
      "scriptpubkey": "001473ba720a21e59a7b82cc0d0868b58d0ad8b72ae1",
      "scriptpubkey_asm": "OP_0 OP_PUSHBYTES_20 73ba720a21e59a7b82cc0d0868b58d0ad8b72ae1",
      "scriptpubkey_type": "v0_p2wpkh",
      "scriptpubkey_address": "bc1qwwa8yz3pukd8hqkvp5yx3dvdptvtw2hp4alg0u",
      "value": 34145
    },
    {
      "scriptpubkey": "00144bb7150e0d58ff646272a0970e6ac2c5a36ee7ba",
      "scriptpubkey_asm": "OP_0 OP_PUSHBYTES_20 4bb7150e0d58ff646272a0970e6ac2c5a36ee7ba",
      "scriptpubkey_type": "v0_p2wpkh",
      "scriptpubkey_address": "bc1qfwm32rsdtrlkgcnj5ztsu6kzck3kaea6x7fczs",
      "value": 34165
    },
    {
      "scriptpubkey": "a914c887f89b0b91fc9ea6116d4ac85cc34ddecb866e87",
      "scriptpubkey_asm": "OP_HASH160 OP_PUSHBYTES_20 c887f89b0b91fc9ea6116d4ac85cc34ddecb866e OP_EQUAL",
      "scriptpubkey_type": "p2sh",
      "scriptpubkey_address": "3KyKxMAuS8d6bVnwWkqko8Kv8rco7zrbZS",
      "value": 46751
    },
    {
      "scriptpubkey": "001476919dbc997c27cec3d6395dcea56b6130a701cc",
      "scriptpubkey_asm": "OP_0 OP_PUSHBYTES_20 76919dbc997c27cec3d6395dcea56b6130a701cc",
      "scriptpubkey_type": "v0_p2wpkh",
      "scriptpubkey_address": "bc1qw6gem0ye0snuas7k89wuafttvyc2wqwv3vp9hg",
      "value": 51983
    },
    {
      "scriptpubkey": "0014787575ed617f989b52f7102c9745154b94255d49",
      "scriptpubkey_asm": "OP_0 OP_PUSHBYTES_20 787575ed617f989b52f7102c9745154b94255d49",
      "scriptpubkey_type": "v0_p2wpkh",
      "scriptpubkey_address": "bc1q0p6htmtp07vfk5hhzqkfw3g4fw2z2h2fl8fkmf",
      "value": 63771
    },
    {
      "scriptpubkey": "002078b0755bbc26b6e38db9f14a07f67ef5c21136953167f2e1358cf388c5dc0571",
      "scriptpubkey_asm": "OP_0 OP_PUSHBYTES_32 78b0755bbc26b6e38db9f14a07f67ef5c21136953167f2e1358cf388c5dc0571",
      "scriptpubkey_type": "v0_p2wsh",
      "scriptpubkey_address": "bc1q0zc82kauy6mw8rde799q0an77hppzd54x9nl9cf43nec33wuq4csawmvu9",
      "value": 6335348
    }
  ],
  "size": 505,
  "weight": 1255,
  "fee": 12904,
  "status": {
    "confirmed": true,
    "block_height": 834638,
    "block_hash": "000000000000000000025f742c626208ac87e0b7d15054abb4a19ca2d735a54e",
    "block_time": 1710405325
  },
  "hex": "0100000000010121afb5af1188a142f2e6d86f195412caaeeafe316f35451c1beff6ac0f9364760500000000ffffffff06618500000000000016001473ba720a21e59a7b82cc0d0868b58d0ad8b72ae175850000000000001600144bb7150e0d58ff646272a0970e6ac2c5a36ee7ba9fb600000000000017a914c887f89b0b91fc9ea6116d4ac85cc34ddecb866e870fcb00000000000016001476919dbc997c27cec3d6395dcea56b6130a701cc1bf9000000000000160014787575ed617f989b52f7102c9745154b94255d4974ab60000000000022002078b0755bbc26b6e38db9f14a07f67ef5c21136953167f2e1358cf388c5dc057104004830450221009b345364c0523254f7090096499e705f16f80ac50ea9f0c97c2a70a264ba6542022007384b8f47877da7ed2fe6b02e747439e45d83c0c37bf69985d6e63defa0dd940147304402207739f2e5e071365f6cf62463a71f0c0ad4f1e4ac2131ddc9a0e1f61b5dcd547902207dfbe7c51e40d0df10aff23fde2912ff8e19aaf9b21eaa147a170edf2b9810900169522102dbc486f94accd46b55b5049475a7b839b0e19070bf543862e5afba89938ae5672102d520a912d504f7e49296ee9aa2d6ca5f84c136be1f55e535c1e272d66eb1797a2102aade5cdb879ab0ab96961eab432908ba2ce04a5eb8653bbf72fb5ef27cb7f2ae53ae00000000"
}