{
  "txid": "9ea27f6dd9b7a63fac0239fb8bed641cf720e3208e523ad615a802f509939015",
  "version": 2,
  "locktime": 0,
  "vin": [
    {
      "txid": "cbe0ea41b3ed013322099059d272c8ece65a94a114b86b856adfe839478cdccb",
      "vout": 5,
      "prevout": {
        "scriptpubkey": "a9148f35bb03c0a4ab9d6a5fa1bca534c068cb7466a487",
        "scriptpubkey_asm": "OP_HASH160 OP_PUSHBYTES_20 8f35bb03c0a4ab9d6a5fa1bca534c068cb7466a4 OP_EQUAL",
        "scriptpubkey_type": "p2sh",
        "scriptpubkey_address": "3EkEvEkYgeLhgvJLYEKgCbmwXSUEszCjrr",
        "value": 600
      },
      "scriptsig": "160014f8d49033a4fe10c22c8b87fba2b2cfb11fcdf588",
      "scriptsig_asm": "OP_PUSHBYTES_22 0014f8d49033a4fe10c22c8b87fba2b2cfb11fcdf588",
      "witness": [
        "3045022100f0ea738da2953063951daf9203d4f0b719d4ce8650e6367ec1104ea8cc4ce3e6022052ea2da8b7b076c879e387619538953cca4e2100c7689debf4c8bfa2e51d19c101",
        "0250966792e4ebe91fa3b4e91a19c494e20e6f6ca9b179c192020662821d2c3997"
      ],
      "is_coinbase": false,
      "sequence": 4294967295,
      "inner_redeemscript_asm": "OP_0 OP_PUSHBYTES_20 f8d49033a4fe10c22c8b87fba2b2cfb11fcdf588"
    },
    {
      "txid": "cbe0ea41b3ed013322099059d272c8ece65a94a114b86b856adfe839478cdccb",
      "vout": 4,
      "prevout": {
        "scriptpubkey": "a9148f35bb03c0a4ab9d6a5fa1bca534c068cb7466a487",
        "scriptpubkey_asm": "OP_HASH160 OP_PUSHBYTES_20 8f35bb03c0a4ab9d6a5fa1bca534c068cb7466a4 OP_EQUAL",
        "scriptpubkey_type": "p2sh",
        "scriptpubkey_address": "3EkEvEkYgeLhgvJLYEKgCbmwXSUEszCjrr",
        "value": 600
      },
      "scriptsig": "160014f8d49033a4fe10c22c8b87fba2b2cfb11fcdf588",
      "scriptsig_asm": "OP_PUSHBYTES_22 0014f8d49033a4fe10c22c8b87fba2b2cfb11fcdf588",
      "witness": [
        "304402205229d70bc03c81c973914fda7f59856311093024a346ceabfee14fb8275bb98a0220035df046f1a1b2ef8cb598edb768d1b6bbd925975234ae383a3a9088c654349e01",
        "0250966792e4ebe91fa3b4e91a19c494e20e6f6ca9b179c192020662821d2c3997"
      ],
      "is_coinbase": false,
      "sequence": 4294967295,
      "inner_redeemscript_asm": "OP_0 OP_PUSHBYTES_20 f8d49033a4fe10c22c8b87fba2b2cfb11fcdf588"
    },
    {
      "txid": "068458b7a2c80befbd0ef6ec3242d2e0fb54f66391bea94aa1368444d7aacf99",
      "vout": 0,
      "prevout": {
        "scriptpubkey": "5120d9635776e196b3a31f3167f14e88a459c82f8c375ae1a27b292f7d603d9c8ac7",
        "scriptpubkey_asm": "OP_PUSHNUM_1 OP_PUSHBYTES_32 d9635776e196b3a31f3167f14e88a459c82f8c375ae1a27b292f7d603d9c8ac7",
        "scriptpubkey_type": "v1_p2tr",
        "scriptpubkey_address": "bc1pm934wahpj6e6x8e3vlc5az9yt8yzlrphtts6y7ef9a7kq0vu3trsqpl8c7",
        "value": 546
      },
      "scriptsig": "",
      "scriptsig_asm": "",
      "witness": [
        "bf6067d151bb81dfdee112e0ac8924ab59bd231a58c1d99d07c38b383b937eb00ee566250e92b5205ca17544e44b2e341a6001c344cb7907bd88b4071aff226a83"
      ],
      "is_coinbase": false,
      "sequence": 4294967295
    },
    {
      "txid": "48d244a2b12e51dddd0e002814d1d3177f4467a05d84f6abd4a49a2d82834270",
      "vout": 1,
      "prevout": {
        "scriptpubkey": "a9148f35bb03c0a4ab9d6a5fa1bca534c068cb7466a487",
        "scriptpubkey_asm": "OP_HASH160 OP_PUSHBYTES_20 8f35bb03c0a4ab9d6a5fa1bca534c068cb7466a4 OP_EQUAL",
        "scriptpubkey_type": "p2sh",
        "scriptpubkey_address": "3EkEvEkYgeLhgvJLYEKgCbmwXSUEszCjrr",
        "value": 46790
      },
      "scriptsig": "160014f8d49033a4fe10c22c8b87fba2b2cfb11fcdf588",
      "scriptsig_asm": "OP_PUSHBYTES_22 0014f8d49033a4fe10c22c8b87fba2b2cfb11fcdf588",
      "witness": [
        "304402204a7e15d7a3aaef4132c3c23c29ed12c6fc22fa9e51dd79053c1607a5a0d46c1c02206edc79111b1fcdc5654ec797d097c82adc2fffeff56d82cb4808ed70c5a2e30101",
        "0250966792e4ebe91fa3b4e91a19c494e20e6f6ca9b179c192020662821d2c3997"
      ],
      "is_coinbase": false,
      "sequence": 4294967295,
      "inner_redeemscript_asm": "OP_0 OP_PUSHBYTES_20 f8d49033a4fe10c22c8b87fba2b2cfb11fcdf588"
    },
    {
      "txid": "aaef3d73cf0ed4679d05a80a914aae3c4ad02e6da50ca76dc7e9e5d5c282acb2",
      "vout": 3,
      "prevout": {
        "scriptpubkey": "a9148f35bb03c0a4ab9d6a5fa1bca534c068cb7466a487",
        "scriptpubkey_asm": "OP_HASH160 OP_PUSHBYTES_20 8f35bb03c0a4ab9d6a5fa1bca534c068cb7466a4 OP_EQUAL",
        "scriptpubkey_type": "p2sh",
        "scriptpubkey_address": "3EkEvEkYgeLhgvJLYEKgCbmwXSUEszCjrr",
        "value": 33543
      },
      "scriptsig": "160014f8d49033a4fe10c22c8b87fba2b2cfb11fcdf588",
      "scriptsig_asm": "OP_PUSHBYTES_22 0014f8d49033a4fe10c22c8b87fba2b2cfb11fcdf588",
      "witness": [
        "3044022069e3fff5757550930390d825d1dcc63df78c716f1eb4d26c6155e5f6880d0a51022060b10d75863854e723224ab0afd38cb5cd3bec14deeb96e24cb94e1e086dfa1e01",
        "0250966792e4ebe91fa3b4e91a19c494e20e6f6ca9b179c192020662821d2c3997"
      ],
      "is_coinbase": false,
      "sequence": 4294967295,
      "inner_redeemscript_asm": "OP_0 OP_PUSHBYTES_20 f8d49033a4fe10c22c8b87fba2b2cfb11fcdf588"
    }
  ],
  "vout": [
    {
      "scriptpubkey": "a9148f35bb03c0a4ab9d6a5fa1bca534c068cb7466a487",
      "scriptpubkey_asm": "OP_HASH160 OP_PUSHBYTES_20 8f35bb03c0a4ab9d6a5fa1bca534c068cb7466a4 OP_EQUAL",
      "scriptpubkey_type": "p2sh",
      "scriptpubkey_address": "3EkEvEkYgeLhgvJLYEKgCbmwXSUEszCjrr",
      "value": 1200
    },
    {
      "scriptpubkey": "5120753c9899615d125c4464651fef9e2625b101db632d78d5b17e4c73b6f052c636",
      "scriptpubkey_asm": "OP_PUSHNUM_1 OP_PUSHBYTES_32 753c9899615d125c4464651fef9e2625b101db632d78d5b17e4c73b6f052c636",
      "scriptpubkey_type": "v1_p2tr",
      "scriptpubkey_address": "bc1pw57f3xtpt5f9c3ryv507l83xykcsrkmr94udtvt7f3emduzjccmqpc8alg",
      "value": 546
    },
    {
      "scriptpubkey": "5120d9635776e196b3a31f3167f14e88a459c82f8c375ae1a27b292f7d603d9c8ac7",
      "scriptpubkey_asm": "OP_PUSHNUM_1 OP_PUSHBYTES_32 d9635776e196b3a31f3167f14e88a459c82f8c375ae1a27b292f7d603d9c8ac7",
      "scriptpubkey_type": "v1_p2tr",
      "scriptpubkey_address": "bc1pm934wahpj6e6x8e3vlc5az9yt8yzlrphtts6y7ef9a7kq0vu3trsqpl8c7",
      "value": 67560
    },
    {
      "scriptpubkey": "5120080ed232d2aff2f63d956576db394f477df7f0a9bb4ee5b75ec36f1d1b43c5d7",
      "scriptpubkey_asm": "OP_PUSHNUM_1 OP_PUSHBYTES_32 080ed232d2aff2f63d956576db394f477df7f0a9bb4ee5b75ec36f1d1b43c5d7",
      "scriptpubkey_type": "v1_p2tr",
      "scriptpubkey_address": "bc1ppq8dyvkj4le0v0v4v4mdkw20ga7l0u9fhd8wtd67cdh36x6rchtsudyat9",
      "value": 1698
    },
    {
      "scriptpubkey": "a9148f35bb03c0a4ab9d6a5fa1bca534c068cb7466a487",
      "scriptpubkey_asm": "OP_HASH160 OP_PUSHBYTES_20 8f35bb03c0a4ab9d6a5fa1bca534c068cb7466a4 OP_EQUAL",
      "scriptpubkey_type": "p2sh",
      "scriptpubkey_address": "3EkEvEkYgeLhgvJLYEKgCbmwXSUEszCjrr",
      "value": 4201
    }
  ],
  "size": 998,
  "weight": 2498,
  "fee": 6874,
  "status": {
    "confirmed": true,
    "block_height": 834464,
    "block_hash": "0000000000000000000177a0869a911a2b65c9bdcd5a8bcb02b68f305bee848e",
    "block_time": 1710308296
  },
  "hex": "02000000000105cbdc8c4739e8df6a856bb814a1945ae6ecc872d2599009223301edb341eae0cb0500000017160014f8d49033a4fe10c22c8b87fba2b2cfb11fcdf588ffffffffcbdc8c4739e8df6a856bb814a1945ae6ecc872d2599009223301edb341eae0cb0400000017160014f8d49033a4fe10c22c8b87fba2b2cfb11fcdf588ffffffff99cfaad7448436a14aa9be9163f654fbe0d24232ecf60ebdef0bc8a2b75884060000000000ffffffff704283822d9aa4d4abf6845da067447f17d3d11428000edddd512eb1a244d2480100000017160014f8d49033a4fe10c22c8b87fba2b2cfb11fcdf588ffffffffb2ac82c2d5e5e9c76da70ca56d2ed04a3cae4a910aa8059d67d40ecf733defaa0300000017160014f8d49033a4fe10c22c8b87fba2b2cfb11fcdf588ffffffff05b00400000000000017a9148f35bb03c0a4ab9d6a5fa1bca534c068cb7466a4872202000000000000225120753c9899615d125c4464651fef9e2625b101db632d78d5b17e4c73b6f052c636e807010000000000225120d9635776e196b3a31f3167f14e88a459c82f8c375ae1a27b292f7d603d9c8ac7a206000000000000225120080ed232d2aff2f63d956576db394f477df7f0a9bb4ee5b75ec36f1d1b43c5d7691000000000000017a9148f35bb03c0a4ab9d6a5fa1bca534c068cb7466a48702483045022100f0ea738da2953063951daf9203d4f0b719d4ce8650e6367ec1104ea8cc4ce3e6022052ea2da8b7b076c879e387619538953cca4e2100c7689debf4c8bfa2e51d19c101210250966792e4ebe91fa3b4e91a19c494e20e6f6ca9b179c192020662821d2c39970247304402205229d70bc03c81c973914fda7f59856311093024a346ceabfee14fb8275bb98a0220035df046f1a1b2ef8cb598edb768d1b6bbd925975234ae383a3a9088c654349e01210250966792e4ebe91fa3b4e91a19c494e20e6f6ca9b179c192020662821d2c39970141bf6067d151bb81dfdee112e0ac8924ab59bd231a58c1d99d07c38b383b937eb00ee566250e92b5205ca17544e44b2e341a6001c344cb7907bd88b4071aff226a830247304402204a7e15d7a3aaef4132c3c23c29ed12c6fc22fa9e51dd79053c1607a5a0d46c1c02206edc79111b1fcdc5654ec797d097c82adc2fffeff56d82cb4808ed70c5a2e30101210250966792e4ebe91fa3b4e91a19c494e20e6f6ca9b179c192020662821d2c399702473044022069e3fff5757550930390d825d1dcc63df78c716f1eb4d26c6155e5f6880d0a51022060b10d75863854e723224ab0afd38cb5cd3bec14deeb96e24cb94e1e086dfa1e01210250966792e4ebe91fa3b4e91a19c494e20e6f6ca9b179c192020662821d2c399700000000"
}