{
  "txid": "9eaa5046c4614fb6a93a8ade544f20fe63e627642a85b3c4ecb938bf31cfe87b",
  "version": 1,
  "locktime": 0,
  "vin": [
    {
      "txid": "fbcf94a4303c999f2a74784ebc388b29fba20fb71c99859cc0d2ca8a712ce226",
      "vout": 28,
      "prevout": {
        "scriptpubkey": "0014799728d3b36f9df74c4042f5ad7fac0867911d3f",
        "scriptpubkey_asm": "OP_0 OP_PUSHBYTES_20 799728d3b36f9df74c4042f5ad7fac0867911d3f",
        "scriptpubkey_type": "v0_p2wpkh",
        "scriptpubkey_address": "bc1q0xtj35and7wlwnzqgt666lavppnez8flawy6h8",
        "value": 330000
      },
      "scriptsig": "",
      "scriptsig_asm": "",
      "witness": [
        "3045022100f6118b4bc5a06401c18127e71f8a574502369f1c5550951ce2fbd3ca5307e693022070d1d66ce9abffb6c54a030e19b5cb097b6208271215ae3184b2035c72466f6d01",
        "023863617d845e598cb7e7575de5033e3720046d38ed6c43e4f36afc15abec5ae2"
      ],
      "is_coinbase": false,
      "sequence": 4294967295
    }
  ],
  "vout": [
    {
      "scriptpubkey": "a9148ddca56834b38150721f22bc47df7143905ee00687",
      "scriptpubkey_asm": "OP_HASH160 OP_PUSHBYTES_20 8ddca56834b38150721f22bc47df7143905ee006 OP_EQUAL",
      "scriptpubkey_type": "p2sh",
      "scriptpubkey_address": "3Ed7XMS98ex58z3Gg22Q95HnxRTerqiT6z",
      "value": 318608
    },
    {
      "scriptpubkey": "0014fe4e635e95115dd1ef30134d3f914b3158fab071",
      "scriptpubkey_asm": "OP_0 OP_PUSHBYTES_20 fe4e635e95115dd1ef30134d3f914b3158fab071",
      "scriptpubkey_type": "v0_p2wpkh",
      "scriptpubkey_address": "bc1qle8xxh54z9warmeszdxnly2tx9v04vr3ez5vva",
      "value": 9120
    }
  ],
  "size": 224,
  "weight": 566,
  "fee": 2272,
  "status": {
    "confirmed": true,
    "block_height": 834464,
    "block_hash": "0000000000000000000177a0869a911a2b65c9bdcd5a8bcb02b68f305bee848e",
    "block_time": 1710308296
  },
  "hex": "0100000000010126e22c718acad2c09c85991cb70fa2fb298b38bc4e78742a9f993c30a494cffb1c00000000ffffffff0290dc04000000000017a9148ddca56834b38150721f22bc47df7143905ee00687a023000000000000160014fe4e635e95115dd1ef30134d3f914b3158fab07102483045022100f6118b4bc5a06401c18127e71f8a574502369f1c5550951ce2fbd3ca5307e693022070d1d66ce9abffb6c54a030e19b5cb097b6208271215ae3184b2035c72466f6d0121023863617d845e598cb7e7575de5033e3720046d38ed6c43e4f36afc15abec5ae200000000"
}