{
  "txid": "9eb4324ae44eafae1c214f61a4c883e744cd622bd677024dd7214d36c263b5ed",
  "version": 2,
  "locktime": 0,
  "vin": [
    {
      "txid": "54510bf6524b59ef478429aa9c4c85915ec0925724679c9782fa0edbe207c95b",
      "vout": 0,
      "prevout": {
        "scriptpubkey": "5120c84244b0a8a6d4a6b0498847704c4dd8a1f945bd401269edb382ee2190fea66d",
        "scriptpubkey_asm": "OP_PUSHNUM_1 OP_PUSHBYTES_32 c84244b0a8a6d4a6b0498847704c4dd8a1f945bd401269edb382ee2190fea66d",
        "scriptpubkey_type": "v1_p2tr",
        "scriptpubkey_address": "bc1peppyfv9g5m22dvzf3prhqnzdmzslj3dagqfxnmdnsthzry875eksn4zszu",
        "value": 600
      },
      "scriptsig": "",
      "scriptsig_asm": "",
      "witness": [
        "599a4893e8c453fb6e530988b767f2e0bd93a8d2318f63a5a0776737126090897b418d03c13d68cf91f20e933a8573811251b7514767ac72e62a52f6ac15035a"
      ],
      "is_coinbase": false,
      "sequence": 4294967293
    },
    {
      "txid": "b4c71d741ee0c1ac247b0083f9f76072cb582df3f79dbfb2b35261ab79141fab",
      "vout": 2,
      "prevout": {
        "scriptpubkey": "a914403befb1ee8e773e6af97944cf7f56e1453476e187",
        "scriptpubkey_asm": "OP_HASH160 OP_PUSHBYTES_20 403befb1ee8e773e6af97944cf7f56e1453476e1 OP_EQUAL",
        "scriptpubkey_type": "p2sh",
        "scriptpubkey_address": "37YeyGXxwJbXHuuAprs8SPZ22DNJNzKgdk",
        "value": 21441
      },
      "scriptsig": "160014b48d1e6e3e14c4b9edb0df3380a18deb04c5a055",
      "scriptsig_asm": "OP_PUSHBYTES_22 0014b48d1e6e3e14c4b9edb0df3380a18deb04c5a055",
      "witness": [
        "30450221008f30ccc351af4681223f4ed1cc05fc57e4ee7189cbd836f6fbc7f0bc7cc0cf2f02204e23da9b400e99fde3cc52685fc01802dfa62d9f9c8626b50816cc97f7fec33501",
        "0338c23cc332ecce477d4f9eae1daa95d5751ff8459ecc8ee9cee5db249d6cc233"
      ],
      "is_coinbase": false,
      "sequence": 4294967293,
      "inner_redeemscript_asm": "OP_0 OP_PUSHBYTES_20 b48d1e6e3e14c4b9edb0df3380a18deb04c5a055"
    }
  ],
  "vout": [
    {
      "scriptpubkey": "512046c871eb39b3179f77a3e0e64a3a897f68225243d4be54cda108f87274858e3b",
      "scriptpubkey_asm": "OP_PUSHNUM_1 OP_PUSHBYTES_32 46c871eb39b3179f77a3e0e64a3a897f68225243d4be54cda108f87274858e3b",
      "scriptpubkey_type": "v1_p2tr",
      "scriptpubkey_address": "bc1pgmy8r6eekvte7aarurny5w5f0a5zy5jr6jl9fndppru8yay93caspsggfk",
      "value": 600
    },
    {
      "scriptpubkey": "a914403befb1ee8e773e6af97944cf7f56e1453476e187",
      "scriptpubkey_asm": "OP_HASH160 OP_PUSHBYTES_20 403befb1ee8e773e6af97944cf7f56e1453476e1 OP_EQUAL",
      "scriptpubkey_type": "p2sh",
      "scriptpubkey_address": "37YeyGXxwJbXHuuAprs8SPZ22DNJNzKgdk",
      "value": 16885
    }
  ],
  "size": 366,
  "weight": 936,
  "fee": 4556,
  "status": {
    "confirmed": true,
    "block_height": 834638,
    "block_hash": "000000000000000000025f742c626208ac87e0b7d15054abb4a19ca2d735a54e",
    "block_time": 1710405325
  },
  "hex": "020000000001025bc907e2db0efa82979c67245792c05e91854c9caa298447ef594b52f60b51540000000000fdffffffab1f1479ab6152b3b2bf9df7f32d58cb7260f7f983007b24acc1e01e741dc7b40200000017160014b48d1e6e3e14c4b9edb0df3380a18deb04c5a055fdffffff02580200000000000022512046c871eb39b3179f77a3e0e64a3a897f68225243d4be54cda108f87274858e3bf54100000000000017a914403befb1ee8e773e6af97944cf7f56e1453476e1870140599a4893e8c453fb6e530988b767f2e0bd93a8d2318f63a5a0776737126090897b418d03c13d68cf91f20e933a8573811251b7514767ac72e62a52f6ac15035a024830450221008f30ccc351af4681223f4ed1cc05fc57e4ee7189cbd836f6fbc7f0bc7cc0cf2f02204e23da9b400e99fde3cc52685fc01802dfa62d9f9c8626b50816cc97f7fec33501210338c23cc332ecce477d4f9eae1daa95d5751ff8459ecc8ee9cee5db249d6cc23300000000"
}