{
  "txid": "9ecba077ff031b53218ceae09277c165404a22c67ceefa7c1afa31d2b945eb45",
  "version": 2,
  "locktime": 0,
  "vin": [
    {
      "txid": "cd0fff7c943e96b34065720bb9cfb10feb7cec840d836ca1b21b92971973428d",
      "vout": 1,
      "prevout": {
        "scriptpubkey": "00144eee4cff7d8baf4e12166bf40ad22f23cdd3e544",
        "scriptpubkey_asm": "OP_0 OP_PUSHBYTES_20 4eee4cff7d8baf4e12166bf40ad22f23cdd3e544",
        "scriptpubkey_type": "v0_p2wpkh",
        "scriptpubkey_address": "bc1qfmhyelma3wh5uyskd06q4530y0xa8e2yxn350q",
        "value": 75996
      },
      "scriptsig": "",
      "scriptsig_asm": "",
      "witness": [
        "30440220104374437034a4854bfd8d5b52b581b495aa2fbb88f192cc481d08eceaec5fc0022067ffe378f3ca3164eebe1c5fe1c84c9ca0338c5b09651e389989d6ddbdf3c05b01",
        "0216f353f63bc57a898b14d376e8818867a21b324011e61137788a986bd3daedf7"
      ],
      "is_coinbase": false,
      "sequence": 4294967293
    },
    {
      "txid": "97d832d9ed43eaceb58dc9be17d6cb38aa3d70a1be598f6339752ee65b0ed097",
      "vout": 0,
      "prevout": {
        "scriptpubkey": "0014cdfc390cb921fb408385514c445d3aaecd1eb2a0",
        "scriptpubkey_asm": "OP_0 OP_PUSHBYTES_20 cdfc390cb921fb408385514c445d3aaecd1eb2a0",
        "scriptpubkey_type": "v0_p2wpkh",
        "scriptpubkey_address": "bc1qeh7rjr9ey8a5pqu929xyghf64mx3av4qk64hly",
        "value": 58100
      },
      "scriptsig": "",
      "scriptsig_asm": "",
      "witness": [
        "3045022100f77d0d8692f7204b4477ab5cec5816536be97b9f4eff5179bbde7a64133921110220248306b80d7729c8029ec57ce496be922f7396032c7836fabbcfce5d4a38376801",
        "0258972c98d3eac2a6ab1f2867d3ae3ae918421a627a921c28626c0900f343eb33"
      ],
      "is_coinbase": false,
      "sequence": 4294967293
    },
    {
      "txid": "5511ffc7da5113845c53ebf22562e6bc630fb0729e537ebbbd2a4d97e4df3771",
      "vout": 0,
      "prevout": {
        "scriptpubkey": "0014cdfc390cb921fb408385514c445d3aaecd1eb2a0",
        "scriptpubkey_asm": "OP_0 OP_PUSHBYTES_20 cdfc390cb921fb408385514c445d3aaecd1eb2a0",
        "scriptpubkey_type": "v0_p2wpkh",
        "scriptpubkey_address": "bc1qeh7rjr9ey8a5pqu929xyghf64mx3av4qk64hly",
        "value": 56112
      },
      "scriptsig": "",
      "scriptsig_asm": "",
      "witness": [
        "3044022012a8a9d88b6dcd09ac7bf86d58e94d9f0b0e7ff8358e7020f37ba9904945cc1302201d14653297e948d0b1a0687557ab602b26430e37636feb9f70db8c363b5c3df901",
        "0258972c98d3eac2a6ab1f2867d3ae3ae918421a627a921c28626c0900f343eb33"
      ],
      "is_coinbase": false,
      "sequence": 4294967293
    }
  ],
  "vout": [
    {
      "scriptpubkey": "00140bb226f0bae4c05a42cc0e4e0395247b6510c538",
      "scriptpubkey_asm": "OP_0 OP_PUSHBYTES_20 0bb226f0bae4c05a42cc0e4e0395247b6510c538",
      "scriptpubkey_type": "v0_p2wpkh",
      "scriptpubkey_address": "bc1qpwezdu96unq95skvpe8q89fy0dj3p3fcxf9z0y",
      "value": 136315
    },
    {
      "scriptpubkey": "0014891fd00e59cf1f5ad50126fbc6362d83b33bd595",
      "scriptpubkey_asm": "OP_0 OP_PUSHBYTES_20 891fd00e59cf1f5ad50126fbc6362d83b33bd595",
      "scriptpubkey_type": "v0_p2wpkh",
      "scriptpubkey_address": "bc1q3y0aqrjeeu0444gpymauvd3dswenh4v4qp09n2",
      "value": 45151
    }
  ],
  "size": 519,
  "weight": 1104,
  "fee": 8742,
  "status": {
    "confirmed": true,
    "block_height": 834638,
    "block_hash": "000000000000000000025f742c626208ac87e0b7d15054abb4a19ca2d735a54e",
    "block_time": 1710405325
  },
  "hex": "020000000001038d42731997921bb2a16c830d84ec7ceb0fb1cfb90b726540b3963e947cff0fcd0100000000fdffffff97d00e5be62e7539638f59bea1703daa38cbd617bec98db5ceea43edd932d8970000000000fdffffff7137dfe4974d2abdbb7e539e72b00f63bce66225f2eb535c841351dac7ff11550000000000fdffffff027b140200000000001600140bb226f0bae4c05a42cc0e4e0395247b6510c5385fb0000000000000160014891fd00e59cf1f5ad50126fbc6362d83b33bd595024730440220104374437034a4854bfd8d5b52b581b495aa2fbb88f192cc481d08eceaec5fc0022067ffe378f3ca3164eebe1c5fe1c84c9ca0338c5b09651e389989d6ddbdf3c05b01210216f353f63bc57a898b14d376e8818867a21b324011e61137788a986bd3daedf702483045022100f77d0d8692f7204b4477ab5cec5816536be97b9f4eff5179bbde7a64133921110220248306b80d7729c8029ec57ce496be922f7396032c7836fabbcfce5d4a38376801210258972c98d3eac2a6ab1f2867d3ae3ae918421a627a921c28626c0900f343eb3302473044022012a8a9d88b6dcd09ac7bf86d58e94d9f0b0e7ff8358e7020f37ba9904945cc1302201d14653297e948d0b1a0687557ab602b26430e37636feb9f70db8c363b5c3df901210258972c98d3eac2a6ab1f2867d3ae3ae918421a627a921c28626c0900f343eb3300000000"
}