{
  "txid": "9f0ef938670382983762a7859641054243c89257fdb5b2307784ff8e9bb55451",
  "version": 2,
  "locktime": 0,
  "vin": [
    {
      "txid": "b9f357d83cb3c7e1a11f861540f2ef8f0eb87871f723f91f9a708db0db1bcabf",
      "vout": 4,
      "prevout": {
        "scriptpubkey": "5120adbbb01f294c6ec02d9265d8640b764c6eb5c10ec3e1af548dc2bef9aa5d7d97",
        "scriptpubkey_asm": "OP_PUSHNUM_1 OP_PUSHBYTES_32 adbbb01f294c6ec02d9265d8640b764c6eb5c10ec3e1af548dc2bef9aa5d7d97",
        "scriptpubkey_type": "v1_p2tr",
        "scriptpubkey_address": "bc1p4kamq8eff3hvqtvjvhvxgzmkf3httsgwc0s674ydc2l0n2ja0ktsz9c97d",
        "value": 2862
      },
      "scriptsig": "",
      "scriptsig_asm": "",
      "witness": [
        "a3d8ac22bb7d8e4933324317eb73329f3a6a1757a7709ac03e4158de7e43522ad12190e2aa452aa5e1cfababe8fba92f128728bb9e3da6ead4cfbcccdc3dc344",
        "209eaa717d9f503fab585e41792678ab963d8db117025d5a64004df8d500d72830ac0063036f726401011e6170706c69636174696f6e2f6a736f6e3b636861727365743d7574662d38004cd37b2270223a22706f772d3230222c226f70223a226d696e74222c227469636b223a2250455045222c22616d74223a2231303030222c22736f6c7574696f6e223a22504550453a62633170646c6a6d747a783365646e716e7572366332786c6c3277726472787a636e72373270333874636a6b736476306b726c67643268737a3279767a6c3a303030303030303030303030303030303030303139393431613561653132383937363539383134343239323533333030353762306461393666336465613163353a3137333534323930383232227d68",
        "c196123be632ec23e42a1daadb49c59b3ad8ca39108d2d31b6eff3b52b525d1622"
      ],
      "is_coinbase": false,
      "sequence": 4294967295
    }
  ],
  "vout": [
    {
      "scriptpubkey": "51206fe5b588d1cb6609f07ac28dffa9c368cc2c4c7e506275e2568358fb0fe86aaf",
      "scriptpubkey_asm": "OP_PUSHNUM_1 OP_PUSHBYTES_32 6fe5b588d1cb6609f07ac28dffa9c368cc2c4c7e506275e2568358fb0fe86aaf",
      "scriptpubkey_type": "v1_p2tr",
      "scriptpubkey_address": "bc1pdljmtzx3ednqnur6c2xll2wrdrxzcnr72p38tcjksdv0krlgd2hsz2yvzl",
      "value": 546
    }
  ],
  "size": 487,
  "weight": 769,
  "fee": 2316,
  "status": {
    "confirmed": true,
    "block_height": 834460,
    "block_hash": "00000000000000000000484a79b643b2524bbce82e5d8a442013fa5b8905ed98",
    "block_time": 1710307468
  },
  "hex": "02000000000101bfca1bdbb08d709a1ff923f77178b80e8feff24015861fa1e1c7b33cd857f3b90400000000ffffffff0122020000000000002251206fe5b588d1cb6609f07ac28dffa9c368cc2c4c7e506275e2568358fb0fe86aaf0340a3d8ac22bb7d8e4933324317eb73329f3a6a1757a7709ac03e4158de7e43522ad12190e2aa452aa5e1cfababe8fba92f128728bb9e3da6ead4cfbcccdc3dc344fd2001209eaa717d9f503fab585e41792678ab963d8db117025d5a64004df8d500d72830ac0063036f726401011e6170706c69636174696f6e2f6a736f6e3b636861727365743d7574662d38004cd37b2270223a22706f772d3230222c226f70223a226d696e74222c227469636b223a2250455045222c22616d74223a2231303030222c22736f6c7574696f6e223a22504550453a62633170646c6a6d747a783365646e716e7572366332786c6c3277726472787a636e72373270333874636a6b736476306b726c67643268737a3279767a6c3a303030303030303030303030303030303030303139393431613561653132383937363539383134343239323533333030353762306461393666336465613163353a3137333534323930383232227d6821c196123be632ec23e42a1daadb49c59b3ad8ca39108d2d31b6eff3b52b525d162200000000"
}