{
  "txid": "9f2ac6a4ed7ae1e9b2b2826377c13cadfe9985aae0a1d7629833c9806cc83047",
  "version": 2,
  "locktime": 0,
  "vin": [
    {
      "txid": "abdcbb8bcefa0f088373ceda41a70fe1aeaa3823b969e1169e2a29269068d8dc",
      "vout": 8,
      "prevout": {
        "scriptpubkey": "51209c1e501063cc32ce5f43d599faaa5d3aede26b4eb6aa456ce1cbef431bb9fb93",
        "scriptpubkey_asm": "OP_PUSHNUM_1 OP_PUSHBYTES_32 9c1e501063cc32ce5f43d599faaa5d3aede26b4eb6aa456ce1cbef431bb9fb93",
        "scriptpubkey_type": "v1_p2tr",
        "scriptpubkey_address": "bc1pns09qyrresevuh6r6kvl42ja8tk7y66wk64y2m8pe0h5xxaelwfsylwx8c",
        "value": 2522
      },
      "scriptsig": "",
      "scriptsig_asm": "",
      "witness": [
        "ed34ee18d1133bd5453c4ef2e00c5be518a4f1ae7d12a8952a3cd63acd915b2340119fe8a689c9d8b8c63410f50445ed0757fbaeb273f00f195074b4f8900f3d",
        "201c9f80ab2f38c09ab83c13900c27564fa321063a497684bbbae5f51f7062574fac0063036f7264010118746578742f706c61696e3b636861727365743d7574662d3800387b2270223a226272632d3230222c226f70223a227472616e73666572222c227469636b223a226f726e6a222c22616d74223a22313030227d68",
        "c125dced391475af84759664675c16f5ed581b243a944241d7ee258c8cfb80c9db"
      ],
      "is_coinbase": false,
      "sequence": 4294967295
    }
  ],
  "vout": [
    {
      "scriptpubkey": "512060e7b9d91ee3091b65165528563dba11a47299520ea2fc67070ec6ac303fc05d",
      "scriptpubkey_asm": "OP_PUSHNUM_1 OP_PUSHBYTES_32 60e7b9d91ee3091b65165528563dba11a47299520ea2fc67070ec6ac303fc05d",
      "scriptpubkey_type": "v1_p2tr",
      "scriptpubkey_address": "bc1pvrnmnkg7uvy3kegk2559v0d6zxj89x2jp630cec8pmr2cvplcpwsn3pn79",
      "value": 546
    }
  ],
  "size": 323,
  "weight": 605,
  "fee": 1976,
  "status": {
    "confirmed": true,
    "block_height": 834460,
    "block_hash": "00000000000000000000484a79b643b2524bbce82e5d8a442013fa5b8905ed98",
    "block_time": 1710307468
  },
  "hex": "02000000000101dcd8689026292a9e16e169b92338aaaee10fa741dace7383080fface8bbbdcab0800000000ffffffff01220200000000000022512060e7b9d91ee3091b65165528563dba11a47299520ea2fc67070ec6ac303fc05d0340ed34ee18d1133bd5453c4ef2e00c5be518a4f1ae7d12a8952a3cd63acd915b2340119fe8a689c9d8b8c63410f50445ed0757fbaeb273f00f195074b4f8900f3d7e201c9f80ab2f38c09ab83c13900c27564fa321063a497684bbbae5f51f7062574fac0063036f7264010118746578742f706c61696e3b636861727365743d7574662d3800387b2270223a226272632d3230222c226f70223a227472616e73666572222c227469636b223a226f726e6a222c22616d74223a22313030227d6821c125dced391475af84759664675c16f5ed581b243a944241d7ee258c8cfb80c9db00000000"
}