{
  "txid": "9f3060a2d77d7d2888f0f236d6d9d1f5a3fe7ca9baea663430829982f3363574",
  "version": 2,
  "locktime": 0,
  "vin": [
    {
      "txid": "f45fee4be7211dbabaed325167e6ae7eca8c7dcacc8cc9dd331fe15aa9ddb363",
      "vout": 0,
      "prevout": {
        "scriptpubkey": "76a9148ba1b70ac178be51bc02951ad6ffcfe4360a2a3588ac",
        "scriptpubkey_asm": "OP_DUP OP_HASH160 OP_PUSHBYTES_20 8ba1b70ac178be51bc02951ad6ffcfe4360a2a35 OP_EQUALVERIFY OP_CHECKSIG",
        "scriptpubkey_type": "p2pkh",
        "scriptpubkey_address": "1DjJepa1hWwXpJi35ScZw5qydyJ7QJPxBi",
        "value": 190391
      },
      "scriptsig": "483045022100fd51d87d8cb4dbe43e918ce6859d9a682ceb4208a94a30744edccde1a8551818022067d7b78d1d389d5600aeb99760836b7f890897f4f4a4a2027b1ae7a82f561dbb012102a917c144312a32cedd8d0283c9371653109c486f4cc17e603b64f9f249c61b6d",
      "scriptsig_asm": "OP_PUSHBYTES_72 3045022100fd51d87d8cb4dbe43e918ce6859d9a682ceb4208a94a30744edccde1a8551818022067d7b78d1d389d5600aeb99760836b7f890897f4f4a4a2027b1ae7a82f561dbb01 OP_PUSHBYTES_33 02a917c144312a32cedd8d0283c9371653109c486f4cc17e603b64f9f249c61b6d",
      "is_coinbase": false,
      "sequence": 4294967295
    }
  ],
  "vout": [
    {
      "scriptpubkey": "76a914e09376e4b1b517a0a709c7f09c51ab06939dd60488ac",
      "scriptpubkey_asm": "OP_DUP OP_HASH160 OP_PUSHBYTES_20 e09376e4b1b517a0a709c7f09c51ab06939dd604 OP_EQUALVERIFY OP_CHECKSIG",
      "scriptpubkey_type": "p2pkh",
      "scriptpubkey_address": "1MUT1yj723HbqMXUVvarNP5hJFW6nA1aRD",
      "value": 186935
    }
  ],
  "size": 192,
  "weight": 768,
  "fee": 3456,
  "status": {
    "confirmed": true,
    "block_height": 834464,
    "block_hash": "0000000000000000000177a0869a911a2b65c9bdcd5a8bcb02b68f305bee848e",
    "block_time": 1710308296
  },
  "hex": "020000000163b3dda95ae11f33ddc98cccca7d8cca7eaee6675132edbaba1d21e74bee5ff4000000006b483045022100fd51d87d8cb4dbe43e918ce6859d9a682ceb4208a94a30744edccde1a8551818022067d7b78d1d389d5600aeb99760836b7f890897f4f4a4a2027b1ae7a82f561dbb012102a917c144312a32cedd8d0283c9371653109c486f4cc17e603b64f9f249c61b6dffffffff0137da0200000000001976a914e09376e4b1b517a0a709c7f09c51ab06939dd60488ac00000000"
}