{
  "txid": "9f33ed5b914b2f08c44b4810e7e3a54549641c18f6b13fb793b9e124fca2afbf",
  "version": 2,
  "locktime": 0,
  "vin": [
    {
      "txid": "3a42ffc2b2105585b39a476a81860c8e6ade6c3350b76ad97d3479c3d8740b69",
      "vout": 2,
      "prevout": {
        "scriptpubkey": "5120ed89a94ad4b8c84cc55d2089bc07c290c4ded363db064da167ef2b2c2e9e74d5",
        "scriptpubkey_asm": "OP_PUSHNUM_1 OP_PUSHBYTES_32 ed89a94ad4b8c84cc55d2089bc07c290c4ded363db064da167ef2b2c2e9e74d5",
        "scriptpubkey_type": "v1_p2tr",
        "scriptpubkey_address": "bc1paky6jjk5hryye32ayzymcp7zjrzda5mrmvrymgt8au4jct57wn2s9z38wr",
        "value": 546
      },
      "scriptsig": "",
      "scriptsig_asm": "",
      "witness": [
        "03899a136d37225a5d57738fc6f42028a613980df14afda309c35e147ac9c0b9ae2933d38997e86e40c248523c7e989cacfa6b87564479b0db1ccc7e200a7a03"
      ],
      "is_coinbase": false,
      "sequence": 2147483649
    },
    {
      "txid": "b0266d77c3493b2e808af8e3d633c5acc5ce28b5fb7d209c724097a4c139c2b6",
      "vout": 3,
      "prevout": {
        "scriptpubkey": "5120ed89a94ad4b8c84cc55d2089bc07c290c4ded363db064da167ef2b2c2e9e74d5",
        "scriptpubkey_asm": "OP_PUSHNUM_1 OP_PUSHBYTES_32 ed89a94ad4b8c84cc55d2089bc07c290c4ded363db064da167ef2b2c2e9e74d5",
        "scriptpubkey_type": "v1_p2tr",
        "scriptpubkey_address": "bc1paky6jjk5hryye32ayzymcp7zjrzda5mrmvrymgt8au4jct57wn2s9z38wr",
        "value": 546
      },
      "scriptsig": "",
      "scriptsig_asm": "",
      "witness": [
        "1e8bc773654ec51f934579aa68bd4133b7f8d818b8dca9fad7fb16dbbd0643684638378ab8810f0a58dd8bc078a6d1aeae749cd13ef07eb9eb3e2cf529b8d986"
      ],
      "is_coinbase": false,
      "sequence": 2147483649
    },
    {
      "txid": "b0266d77c3493b2e808af8e3d633c5acc5ce28b5fb7d209c724097a4c139c2b6",
      "vout": 0,
      "prevout": {
        "scriptpubkey": "5120ed89a94ad4b8c84cc55d2089bc07c290c4ded363db064da167ef2b2c2e9e74d5",
        "scriptpubkey_asm": "OP_PUSHNUM_1 OP_PUSHBYTES_32 ed89a94ad4b8c84cc55d2089bc07c290c4ded363db064da167ef2b2c2e9e74d5",
        "scriptpubkey_type": "v1_p2tr",
        "scriptpubkey_address": "bc1paky6jjk5hryye32ayzymcp7zjrzda5mrmvrymgt8au4jct57wn2s9z38wr",
        "value": 2400
      },
      "scriptsig": "",
      "scriptsig_asm": "",
      "witness": [
        "fc2e8da3db1c59f7ef3adb8724abc4e9dd9ac11b0b93cf397f8824f3cb88bc6b021f644ff2aa1fa668782875dd20e90229ba6c3581739cdb87bec577fdfedae4"
      ],
      "is_coinbase": false,
      "sequence": 2147483649
    },
    {
      "txid": "3a42ffc2b2105585b39a476a81860c8e6ade6c3350b76ad97d3479c3d8740b69",
      "vout": 0,
      "prevout": {
        "scriptpubkey": "5120ed89a94ad4b8c84cc55d2089bc07c290c4ded363db064da167ef2b2c2e9e74d5",
        "scriptpubkey_asm": "OP_PUSHNUM_1 OP_PUSHBYTES_32 ed89a94ad4b8c84cc55d2089bc07c290c4ded363db064da167ef2b2c2e9e74d5",
        "scriptpubkey_type": "v1_p2tr",
        "scriptpubkey_address": "bc1paky6jjk5hryye32ayzymcp7zjrzda5mrmvrymgt8au4jct57wn2s9z38wr",
        "value": 1800
      },
      "scriptsig": "",
      "scriptsig_asm": "",
      "witness": [
        "fd4dfddd74a245159bd5a7fbc93ff9046377bf6d2b14389171878847d43a608733eb1802522499dc39b870614dca05b9c81a447d37bd6ea5f919759f35354100"
      ],
      "is_coinbase": false,
      "sequence": 2147483649
    },
    {
      "txid": "97bf3fd253bf396d2fd3e70fc7131ca6ac483815eacfd5a3af3827aeb87486f4",
      "vout": 3,
      "prevout": {
        "scriptpubkey": "5120ed89a94ad4b8c84cc55d2089bc07c290c4ded363db064da167ef2b2c2e9e74d5",
        "scriptpubkey_asm": "OP_PUSHNUM_1 OP_PUSHBYTES_32 ed89a94ad4b8c84cc55d2089bc07c290c4ded363db064da167ef2b2c2e9e74d5",
        "scriptpubkey_type": "v1_p2tr",
        "scriptpubkey_address": "bc1paky6jjk5hryye32ayzymcp7zjrzda5mrmvrymgt8au4jct57wn2s9z38wr",
        "value": 746725
      },
      "scriptsig": "",
      "scriptsig_asm": "",
      "witness": [
        "8bd67541c662de5177ed635f8480d4075b4b9ed859cb1496ef253af287f79cdf5a8445ac7d02ba4f8b50e598b0640dd0701d6e7193e188da3df884ea312c00b6"
      ],
      "is_coinbase": false,
      "sequence": 2147483649
    }
  ],
  "vout": [
    {
      "scriptpubkey": "51205bf8c928c86cf954936e508c4f33e422554fd6ea94b6b437f306cdfba62f1f16",
      "scriptpubkey_asm": "OP_PUSHNUM_1 OP_PUSHBYTES_32 5bf8c928c86cf954936e508c4f33e422554fd6ea94b6b437f306cdfba62f1f16",
      "scriptpubkey_type": "v1_p2tr",
      "scriptpubkey_address": "bc1pt0uvj2xgdnu4fymw2zxy7vlyyf25l4h2jjmtgdlnqmxlhf30rutqlq8erw",
      "value": 546
    },
    {
      "scriptpubkey": "51205bf8c928c86cf954936e508c4f33e422554fd6ea94b6b437f306cdfba62f1f16",
      "scriptpubkey_asm": "OP_PUSHNUM_1 OP_PUSHBYTES_32 5bf8c928c86cf954936e508c4f33e422554fd6ea94b6b437f306cdfba62f1f16",
      "scriptpubkey_type": "v1_p2tr",
      "scriptpubkey_address": "bc1pt0uvj2xgdnu4fymw2zxy7vlyyf25l4h2jjmtgdlnqmxlhf30rutqlq8erw",
      "value": 546
    },
    {
      "scriptpubkey": "5120ed89a94ad4b8c84cc55d2089bc07c290c4ded363db064da167ef2b2c2e9e74d5",
      "scriptpubkey_asm": "OP_PUSHNUM_1 OP_PUSHBYTES_32 ed89a94ad4b8c84cc55d2089bc07c290c4ded363db064da167ef2b2c2e9e74d5",
      "scriptpubkey_type": "v1_p2tr",
      "scriptpubkey_address": "bc1paky6jjk5hryye32ayzymcp7zjrzda5mrmvrymgt8au4jct57wn2s9z38wr",
      "value": 746228
    }
  ],
  "size": 676,
  "weight": 1708,
  "fee": 4697,
  "status": {
    "confirmed": true,
    "block_height": 834464,
    "block_hash": "0000000000000000000177a0869a911a2b65c9bdcd5a8bcb02b68f305bee848e",
    "block_time": 1710308296
  },
  "hex": "02000000000105690b74d8c379347dd96ab750336cde6a8e0c86816a479ab3855510b2c2ff423a020000000001000080b6c239c1a49740729c207dfbb528cec5acc533d6e3f88a802e3b49c3776d26b0030000000001000080b6c239c1a49740729c207dfbb528cec5acc533d6e3f88a802e3b49c3776d26b0000000000001000080690b74d8c379347dd96ab750336cde6a8e0c86816a479ab3855510b2c2ff423a000000000001000080f48674b8ae2738afa3d5cfea153848aca61c13c70fe7d32f6d39bf53d23fbf970300000000010000800322020000000000002251205bf8c928c86cf954936e508c4f33e422554fd6ea94b6b437f306cdfba62f1f1622020000000000002251205bf8c928c86cf954936e508c4f33e422554fd6ea94b6b437f306cdfba62f1f16f4620b0000000000225120ed89a94ad4b8c84cc55d2089bc07c290c4ded363db064da167ef2b2c2e9e74d5014003899a136d37225a5d57738fc6f42028a613980df14afda309c35e147ac9c0b9ae2933d38997e86e40c248523c7e989cacfa6b87564479b0db1ccc7e200a7a0301401e8bc773654ec51f934579aa68bd4133b7f8d818b8dca9fad7fb16dbbd0643684638378ab8810f0a58dd8bc078a6d1aeae749cd13ef07eb9eb3e2cf529b8d9860140fc2e8da3db1c59f7ef3adb8724abc4e9dd9ac11b0b93cf397f8824f3cb88bc6b021f644ff2aa1fa668782875dd20e90229ba6c3581739cdb87bec577fdfedae40140fd4dfddd74a245159bd5a7fbc93ff9046377bf6d2b14389171878847d43a608733eb1802522499dc39b870614dca05b9c81a447d37bd6ea5f919759f3535410001408bd67541c662de5177ed635f8480d4075b4b9ed859cb1496ef253af287f79cdf5a8445ac7d02ba4f8b50e598b0640dd0701d6e7193e188da3df884ea312c00b600000000"
}