{
  "txid": "9f34209abcfd9f16b67fb02fda21b077c3e2a9c0cfdab1b85fb3ab45a507ab8d",
  "version": 1,
  "locktime": 0,
  "vin": [
    {
      "txid": "3a35e33a2db66fc468e46a0ae92875c7e7b81672607e25d2cde75991f659f487",
      "vout": 14,
      "prevout": {
        "scriptpubkey": "00143f848e8193d822ae1db5984e4451c7029d079ad4",
        "scriptpubkey_asm": "OP_0 OP_PUSHBYTES_20 3f848e8193d822ae1db5984e4451c7029d079ad4",
        "scriptpubkey_type": "v0_p2wpkh",
        "scriptpubkey_address": "bc1q87zgaqvnmq32u8d4np8yg5w8q2ws0xk5qgnqn2",
        "value": 68535948
      },
      "scriptsig": "",
      "scriptsig_asm": "",
      "witness": [
        "304402202b5cd60c83a3d95455aa6119b3b9ef4651e288c05b1b22a0b8165689ea2bd72d022021f530c136a1a8eb266c8dff1e239c6d6f5ea84e4e9d22b0ddee35352711a8b201",
        "024b1a04917821973e85116e97d2e7b9c5818d2f3f3272b371fbc4702499178458"
      ],
      "is_coinbase": false,
      "sequence": 4294967295
    }
  ],
  "vout": [
    {
      "scriptpubkey": "0014c44e8be93bd9296a82eb1072128e25defb19eebc",
      "scriptpubkey_asm": "OP_0 OP_PUSHBYTES_20 c44e8be93bd9296a82eb1072128e25defb19eebc",
      "scriptpubkey_type": "v0_p2wpkh",
      "scriptpubkey_address": "bc1qc38gh6fmmy5k4qhtzpep9r39mma3nm4uyfmnpq",
      "value": 63047047
    },
    {
      "scriptpubkey": "a9148e78c1f48ef6fefc5c19ffefecc87c3cf3e4dfc287",
      "scriptpubkey_asm": "OP_HASH160 OP_PUSHBYTES_20 8e78c1f48ef6fefc5c19ffefecc87c3cf3e4dfc2 OP_EQUAL",
      "scriptpubkey_type": "p2sh",
      "scriptpubkey_address": "3EgLYAu1SyNqXbm6BmpUnJBHcTYSwKXBBt",
      "value": 139199
    },
    {
      "scriptpubkey": "001431d36aaf99cacf3f99483fd152076ca775c7ab13",
      "scriptpubkey_asm": "OP_0 OP_PUSHBYTES_20 31d36aaf99cacf3f99483fd152076ca775c7ab13",
      "scriptpubkey_type": "v0_p2wpkh",
      "scriptpubkey_address": "bc1qx8fk4tueet8nlx2g8lg4ypmv5a6u02cnpvpmgc",
      "value": 67985
    },
    {
      "scriptpubkey": "0014781192a8a1aad03f0f3a716b82348337445dfc60",
      "scriptpubkey_asm": "OP_0 OP_PUSHBYTES_20 781192a8a1aad03f0f3a716b82348337445dfc60",
      "scriptpubkey_type": "v0_p2wpkh",
      "scriptpubkey_address": "bc1q0qge929p4tgr7re6w94cydyrxaz9mlrqpwdqht",
      "value": 97462
    },
    {
      "scriptpubkey": "001436a00b9cc9a4d3afff17ab69b05278f17df1e73c",
      "scriptpubkey_asm": "OP_0 OP_PUSHBYTES_20 36a00b9cc9a4d3afff17ab69b05278f17df1e73c",
      "scriptpubkey_type": "v0_p2wpkh",
      "scriptpubkey_address": "bc1qx6sqh8xf5nf6llch4d5mq5nc797lreeur40a0x",
      "value": 56154
    },
    {
      "scriptpubkey": "001434d6337ce52f5c916ad7fd46849857bf7a2d74c3",
      "scriptpubkey_asm": "OP_0 OP_PUSHBYTES_20 34d6337ce52f5c916ad7fd46849857bf7a2d74c3",
      "scriptpubkey_type": "v0_p2wpkh",
      "scriptpubkey_address": "bc1qxntrxl899awfz6khl4rgfxzhhaaz6axr4yvhrp",
      "value": 422012
    },
    {
      "scriptpubkey": "a9145cab73affefa9f9b71601ae98f887958a77af48f87",
      "scriptpubkey_asm": "OP_HASH160 OP_PUSHBYTES_20 5cab73affefa9f9b71601ae98f887958a77af48f OP_EQUAL",
      "scriptpubkey_type": "p2sh",
      "scriptpubkey_address": "3A91UsxE4a8reHncMoH2B4AwsnvakM2QGc",
      "value": 130827
    },
    {
      "scriptpubkey": "76a914eb2e37c04bdc9c2b0fe38ab9b45c3456a9ecd3e988ac",
      "scriptpubkey_asm": "OP_DUP OP_HASH160 OP_PUSHBYTES_20 eb2e37c04bdc9c2b0fe38ab9b45c3456a9ecd3e9 OP_EQUALVERIFY OP_CHECKSIG",
      "scriptpubkey_type": "p2pkh",
      "scriptpubkey_address": "1NSXAMAXMGf3tScTdy7DFnHVL4ZDbmkM4Y",
      "value": 74460
    },
    {
      "scriptpubkey": "a914eb520ea50612af52ff47588ca4f7ea1f6ea76ea787",
      "scriptpubkey_asm": "OP_HASH160 OP_PUSHBYTES_20 eb520ea50612af52ff47588ca4f7ea1f6ea76ea7 OP_EQUAL",
      "scriptpubkey_type": "p2sh",
      "scriptpubkey_address": "3P9H24M3Gc5iHNXfPxyiX3KP5VbDj1g2WR",
      "value": 639956
    },
    {
      "scriptpubkey": "76a914b5f03a633110f457a6fabe3109804865a75c7a2a88ac",
      "scriptpubkey_asm": "OP_DUP OP_HASH160 OP_PUSHBYTES_20 b5f03a633110f457a6fabe3109804865a75c7a2a OP_EQUALVERIFY OP_CHECKSIG",
      "scriptpubkey_type": "p2pkh",
      "scriptpubkey_address": "1Hb164X2E5wCFrymKYWW9ejktxvxRj5gdo",
      "value": 80356
    },
    {
      "scriptpubkey": "0014b0fbebae86a0b0f138c3cdac05432c252d955b07",
      "scriptpubkey_asm": "OP_0 OP_PUSHBYTES_20 b0fbebae86a0b0f138c3cdac05432c252d955b07",
      "scriptpubkey_type": "v0_p2wpkh",
      "scriptpubkey_address": "bc1qkra7ht5x5zc0zwxrekkq2sevy5ke2kc8hez6z5",
      "value": 280786
    },
    {
      "scriptpubkey": "a914bafef95bb91de01cf22bda779297a21d4a66f13487",
      "scriptpubkey_asm": "OP_HASH160 OP_PUSHBYTES_20 bafef95bb91de01cf22bda779297a21d4a66f134 OP_EQUAL",
      "scriptpubkey_type": "p2sh",
      "scriptpubkey_address": "3Jjm48cwtL5YWYCCjuwbd91EsxMP3HXB7w",
      "value": 188990
    },
    {
      "scriptpubkey": "0014fb180dd36f8523d46c846ad694f67385ea722b6b",
      "scriptpubkey_asm": "OP_0 OP_PUSHBYTES_20 fb180dd36f8523d46c846ad694f67385ea722b6b",
      "scriptpubkey_type": "v0_p2wpkh",
      "scriptpubkey_address": "bc1qlvvqm5m0s53agmyydttffannsh48y2mtmsvc7j",
      "value": 67985
    },
    {
      "scriptpubkey": "0014285a18d79ce3f14ead3be26d4714346d185447fe",
      "scriptpubkey_asm": "OP_0 OP_PUSHBYTES_20 285a18d79ce3f14ead3be26d4714346d185447fe",
      "scriptpubkey_type": "v0_p2wpkh",
      "scriptpubkey_address": "bc1q9pdp34uuu0c5atfmufk5w9p5d5v9g3l7aq2q04",
      "value": 3213475
    },
    {
      "scriptpubkey": "a91478a398db90c66c63a3a9412467906b8758088af587",
      "scriptpubkey_asm": "OP_HASH160 OP_PUSHBYTES_20 78a398db90c66c63a3a9412467906b8758088af5 OP_EQUAL",
      "scriptpubkey_type": "p2sh",
      "scriptpubkey_address": "3CgtzVKxBX57tQW8vtSYAzWQsVFKGxM4XP",
      "value": 14272
    }
  ],
  "size": 636,
  "weight": 2217,
  "fee": 14982,
  "status": {
    "confirmed": true,
    "block_height": 834638,
    "block_hash": "000000000000000000025f742c626208ac87e0b7d15054abb4a19ca2d735a54e",
    "block_time": 1710405325
  },
  "hex": "0100000000010187f459f69159e7cdd2257e607216b8e7c77528e90a6ae468c46fb62d3ae3353a0e00000000ffffffff0f8705c20300000000160014c44e8be93bd9296a82eb1072128e25defb19eebcbf1f02000000000017a9148e78c1f48ef6fefc5c19ffefecc87c3cf3e4dfc287910901000000000016001431d36aaf99cacf3f99483fd152076ca775c7ab13b67c010000000000160014781192a8a1aad03f0f3a716b82348337445dfc605adb00000000000016001436a00b9cc9a4d3afff17ab69b05278f17df1e73c7c7006000000000016001434d6337ce52f5c916ad7fd46849857bf7a2d74c30bff01000000000017a9145cab73affefa9f9b71601ae98f887958a77af48f87dc220100000000001976a914eb2e37c04bdc9c2b0fe38ab9b45c3456a9ecd3e988acd4c309000000000017a914eb520ea50612af52ff47588ca4f7ea1f6ea76ea787e4390100000000001976a914b5f03a633110f457a6fabe3109804865a75c7a2a88acd248040000000000160014b0fbebae86a0b0f138c3cdac05432c252d955b073ee202000000000017a914bafef95bb91de01cf22bda779297a21d4a66f134879109010000000000160014fb180dd36f8523d46c846ad694f67385ea722b6ba308310000000000160014285a18d79ce3f14ead3be26d4714346d185447fec03700000000000017a91478a398db90c66c63a3a9412467906b8758088af5870247304402202b5cd60c83a3d95455aa6119b3b9ef4651e288c05b1b22a0b8165689ea2bd72d022021f530c136a1a8eb266c8dff1e239c6d6f5ea84e4e9d22b0ddee35352711a8b20121024b1a04917821973e85116e97d2e7b9c5818d2f3f3272b371fbc470249917845800000000"
}