{
  "txid": "9f381711c7687d63b033bb5923520b32d71d08c2acb7e6cf8744511b0802af50",
  "version": 2,
  "locktime": 834458,
  "vin": [
    {
      "txid": "b56eac59de73015c89ef6d5551c225b5221d0c3e50b710e7f870e43d5df16b5d",
      "vout": 1,
      "prevout": {
        "scriptpubkey": "0014482185acbb8f1d1596ab95c4baa1494aeefbc21f",
        "scriptpubkey_asm": "OP_0 OP_PUSHBYTES_20 482185acbb8f1d1596ab95c4baa1494aeefbc21f",
        "scriptpubkey_type": "v0_p2wpkh",
        "scriptpubkey_address": "bc1qfqsctt9m3uw3t94tjhzt4g2ffth0hsslnumwdx",
        "value": 96923
      },
      "scriptsig": "",
      "scriptsig_asm": "",
      "witness": [
        "30440220079d48c67947355dc28b2b49f73866820d4886fa6a8491f35f990bda33b43da202201409babc8da16d6221c4ad982d111c8e7db80a22e0942a22c315004dda830fcf01",
        "03fa348ea922f84300f471dfd9a8ff7ab9f7aa5583e87c09af732b730acaba7905"
      ],
      "is_coinbase": false,
      "sequence": 4294967293
    }
  ],
  "vout": [
    {
      "scriptpubkey": "a9145baf05a0db059f62a85d96bcd2350f0c9a7fb86287",
      "scriptpubkey_asm": "OP_HASH160 OP_PUSHBYTES_20 5baf05a0db059f62a85d96bcd2350f0c9a7fb862 OP_EQUAL",
      "scriptpubkey_type": "p2sh",
      "scriptpubkey_address": "3A3o5jwFWgA85xzRFe2cneEu4oA3r7xW7M",
      "value": 26326
    },
    {
      "scriptpubkey": "0014482185acbb8f1d1596ab95c4baa1494aeefbc21f",
      "scriptpubkey_asm": "OP_0 OP_PUSHBYTES_20 482185acbb8f1d1596ab95c4baa1494aeefbc21f",
      "scriptpubkey_type": "v0_p2wpkh",
      "scriptpubkey_address": "bc1qfqsctt9m3uw3t94tjhzt4g2ffth0hsslnumwdx",
      "value": 68751
    }
  ],
  "size": 223,
  "weight": 565,
  "fee": 1846,
  "status": {
    "confirmed": true,
    "block_height": 834460,
    "block_hash": "00000000000000000000484a79b643b2524bbce82e5d8a442013fa5b8905ed98",
    "block_time": 1710307468
  },
  "hex": "020000000001015d6bf15d3de470f8e710b7503e0c1d22b525c251556def895c0173de59ac6eb50100000000fdffffff02d66600000000000017a9145baf05a0db059f62a85d96bcd2350f0c9a7fb862878f0c010000000000160014482185acbb8f1d1596ab95c4baa1494aeefbc21f024730440220079d48c67947355dc28b2b49f73866820d4886fa6a8491f35f990bda33b43da202201409babc8da16d6221c4ad982d111c8e7db80a22e0942a22c315004dda830fcf012103fa348ea922f84300f471dfd9a8ff7ab9f7aa5583e87c09af732b730acaba79059abb0c00"
}