{
  "txid": "9f7aaae569a8ca4d76a17f3a48d85cc1f926afa47ec0eedc829317cc832b43e4",
  "version": 2,
  "locktime": 0,
  "vin": [
    {
      "txid": "694d314147e8edde3db2d006d729a7a1c1dc6b90cbc340e87b9a3a8dbc84d921",
      "vout": 3,
      "prevout": {
        "scriptpubkey": "51205b471422ed8ff99a452496dd244d444dac39bf0ba803b58550f88d9455873782",
        "scriptpubkey_asm": "OP_PUSHNUM_1 OP_PUSHBYTES_32 5b471422ed8ff99a452496dd244d444dac39bf0ba803b58550f88d9455873782",
        "scriptpubkey_type": "v1_p2tr",
        "scriptpubkey_address": "bc1ptdr3gghd3lue53fyjmwjgn2yfkkrn0ct4qpmtp2slzxeg4v8x7pqm0tqau",
        "value": 2622
      },
      "scriptsig": "",
      "scriptsig_asm": "",
      "witness": [
        "65480b440536edd5617a70fda8555560fb1b26a7d2453080f66c3680a6de9f34e4d309c2f4054869a031ea56e38db45ed9fd25a5f0e29292d80cf4d6cf51ab95",
        "20448146e5ba34c2a0d83439ec9941681b419f92449343eafa4b5926f725730ce7ac0063036f7264010118746578742f706c61696e3b636861727365743d7574662d38004c867b2270223a22746170222c226f70223a22646d742d6d696e74222c22646570223a22333962373532343338626533613435326464623731376230613635346233313662316164343661383139656234343831383933626337313331663738396539616930222c227469636b223a226e61746f776c73222c22626c6b223a22343938393636227d68",
        "c1448146e5ba34c2a0d83439ec9941681b419f92449343eafa4b5926f725730ce77380fc0d4c4887adffea497e2ec5e80dab029b6d3c2fda097be05e14c7ac589e"
      ],
      "is_coinbase": false,
      "sequence": 4294967293
    }
  ],
  "vout": [
    {
      "scriptpubkey": "512037e4213c25d1f0edc728c8544be681358c276a9fd1b5186bcc8fea63a24916d1",
      "scriptpubkey_asm": "OP_PUSHNUM_1 OP_PUSHBYTES_32 37e4213c25d1f0edc728c8544be681358c276a9fd1b5186bcc8fea63a24916d1",
      "scriptpubkey_type": "v1_p2tr",
      "scriptpubkey_address": "bc1pxljzz0p968cwm3egep2yhe5pxkxzw65l6x63s67v3l4x8gjfzmgscm6gkq",
      "value": 546
    }
  ],
  "size": 434,
  "weight": 716,
  "fee": 2076,
  "status": {
    "confirmed": true,
    "block_height": 834460,
    "block_hash": "00000000000000000000484a79b643b2524bbce82e5d8a442013fa5b8905ed98",
    "block_time": 1710307468
  },
  "hex": "0200000000010121d984bc8d3a9a7be840c3cb906bdcc1a1a729d706d0b23ddeede84741314d690300000000fdffffff01220200000000000022512037e4213c25d1f0edc728c8544be681358c276a9fd1b5186bcc8fea63a24916d1034065480b440536edd5617a70fda8555560fb1b26a7d2453080f66c3680a6de9f34e4d309c2f4054869a031ea56e38db45ed9fd25a5f0e29292d80cf4d6cf51ab95cd20448146e5ba34c2a0d83439ec9941681b419f92449343eafa4b5926f725730ce7ac0063036f7264010118746578742f706c61696e3b636861727365743d7574662d38004c867b2270223a22746170222c226f70223a22646d742d6d696e74222c22646570223a22333962373532343338626533613435326464623731376230613635346233313662316164343661383139656234343831383933626337313331663738396539616930222c227469636b223a226e61746f776c73222c22626c6b223a22343938393636227d6841c1448146e5ba34c2a0d83439ec9941681b419f92449343eafa4b5926f725730ce77380fc0d4c4887adffea497e2ec5e80dab029b6d3c2fda097be05e14c7ac589e00000000"
}