{
  "txid": "9f85769c112dad02f50eac20b2c55c2a0d654e6e56d38ca12df576f2992b1329",
  "version": 1,
  "locktime": 0,
  "vin": [
    {
      "txid": "4f15e7b4b626fbab74a121e771a50b298791710dc797596d37b289e530ff8091",
      "vout": 0,
      "prevout": {
        "scriptpubkey": "76a91471706b77bb760d7f2b100f4d63b163e176f17ae388ac",
        "scriptpubkey_asm": "OP_DUP OP_HASH160 OP_PUSHBYTES_20 71706b77bb760d7f2b100f4d63b163e176f17ae3 OP_EQUALVERIFY OP_CHECKSIG",
        "scriptpubkey_type": "p2pkh",
        "scriptpubkey_address": "1BLp2jzLLfePQHyLBoHrjuScK2XvWFPhdK",
        "value": 628572
      },
      "scriptsig": "473044022051301ed3b9e94c7bdc37a19e92d497a4f6730b14b9de9e4a5d7bafb2782a17de022019d0e525c1331d11c55917a182e069e0a7d2ab54bc6af78820982db436751eb0012103c7f5ab047fa8b4556dcb3cf9faa5d023adf3102fb6d8b0c41f6bb4340c324570",
      "scriptsig_asm": "OP_PUSHBYTES_71 3044022051301ed3b9e94c7bdc37a19e92d497a4f6730b14b9de9e4a5d7bafb2782a17de022019d0e525c1331d11c55917a182e069e0a7d2ab54bc6af78820982db436751eb001 OP_PUSHBYTES_33 03c7f5ab047fa8b4556dcb3cf9faa5d023adf3102fb6d8b0c41f6bb4340c324570",
      "is_coinbase": false,
      "sequence": 4294967295
    }
  ],
  "vout": [
    {
      "scriptpubkey": "00149121abe14d40488f5e6fd7e91317989a2ce9bbbc",
      "scriptpubkey_asm": "OP_0 OP_PUSHBYTES_20 9121abe14d40488f5e6fd7e91317989a2ce9bbbc",
      "scriptpubkey_type": "v0_p2wpkh",
      "scriptpubkey_address": "bc1qjys6hc2dgpyg7hn06l53x9ucngkwnwaumkgtj0",
      "value": 235710
    },
    {
      "scriptpubkey": "0014f877b6668672e3816823b49c3df6c5703f3f9dfd",
      "scriptpubkey_asm": "OP_0 OP_PUSHBYTES_20 f877b6668672e3816823b49c3df6c5703f3f9dfd",
      "scriptpubkey_type": "v0_p2wpkh",
      "scriptpubkey_address": "bc1qlpmmve5xwt3cz6prkjwrmak9wqlnl80a4w7m07",
      "value": 388442
    }
  ],
  "size": 219,
  "weight": 876,
  "fee": 4420,
  "status": {
    "confirmed": true,
    "block_height": 834638,
    "block_hash": "000000000000000000025f742c626208ac87e0b7d15054abb4a19ca2d735a54e",
    "block_time": 1710405325
  },
  "hex": "01000000019180ff30e589b2376d5997c70d719187290ba571e721a174abfb26b6b4e7154f000000006a473044022051301ed3b9e94c7bdc37a19e92d497a4f6730b14b9de9e4a5d7bafb2782a17de022019d0e525c1331d11c55917a182e069e0a7d2ab54bc6af78820982db436751eb0012103c7f5ab047fa8b4556dcb3cf9faa5d023adf3102fb6d8b0c41f6bb4340c324570ffffffff02be980300000000001600149121abe14d40488f5e6fd7e91317989a2ce9bbbc5aed050000000000160014f877b6668672e3816823b49c3df6c5703f3f9dfd00000000"
}