{
  "txid": "9fa4ea0abb521e74bdf866b58a5e95f1847414339eaa93dba4b5848e716d0516",
  "version": 2,
  "locktime": 0,
  "vin": [
    {
      "txid": "e835c4d922fbed17c48b3bb466ba1ffc020ede84c1303bdb67ca1f883dd615bb",
      "vout": 8,
      "prevout": {
        "scriptpubkey": "51204ef24f8c538b15e98d71b797b78eb586bb2d3dae045558421881b4e1cb8a04e7",
        "scriptpubkey_asm": "OP_PUSHNUM_1 OP_PUSHBYTES_32 4ef24f8c538b15e98d71b797b78eb586bb2d3dae045558421881b4e1cb8a04e7",
        "scriptpubkey_type": "v1_p2tr",
        "scriptpubkey_address": "bc1pfmeylrzn3v27nrt3k7tm0r44s6aj60dwq324ssscsx6wrju2qnnsc3p0zd",
        "value": 3234
      },
      "scriptsig": "",
      "scriptsig_asm": "",
      "witness": [
        "94b69286afd1786bcd056ec192e5b8196e0013f9ebbba73f949c1a4eabb39f5d737c4b9dea4bff172c23f49becc59ad6384dc863be2861f0c2bff559c73cc709",
        "204e9d6e19f42f63b823598d645ce20a372228be8cdf591311a9419b12af60c270ac0063036f726401011e6170706c69636174696f6e2f6a736f6e3b636861727365743d7574662d38004cd27b2270223a22706f772d3230222c226f70223a226d696e74222c227469636b223a2250455045222c22616d74223a2231303030222c22736f6c7574696f6e223a22504550453a626331703378336875706e76383064666366666c34333367327a3776713378706c63673364666d79716365336d6c6d6e78397767753872717265763032653a303030303030303030303030303030303030303139393431613561653132383937363539383134343239323533333030353762306461393666336465613163353a33373730393735343336227d68",
        "c1bf69a78b1b6433fca38fda21525e43a6c565682ca08e513a8f66feb668723930"
      ],
      "is_coinbase": false,
      "sequence": 4294967295
    }
  ],
  "vout": [
    {
      "scriptpubkey": "512089a37e066c3bda9c253fac62850bcc044c1fe1116a76406331dff73315c8e1c6",
      "scriptpubkey_asm": "OP_PUSHNUM_1 OP_PUSHBYTES_32 89a37e066c3bda9c253fac62850bcc044c1fe1116a76406331dff73315c8e1c6",
      "scriptpubkey_type": "v1_p2tr",
      "scriptpubkey_address": "bc1p3x3hupnv80dfcffl433g2z7vq3xplcg3dfmyqce3mlmnx9wgu8rqrev02e",
      "value": 546
    }
  ],
  "size": 486,
  "weight": 768,
  "fee": 2688,
  "status": {
    "confirmed": true,
    "block_height": 834460,
    "block_hash": "00000000000000000000484a79b643b2524bbce82e5d8a442013fa5b8905ed98",
    "block_time": 1710307468
  },
  "hex": "02000000000101bb15d63d881fca67db3b30c184de0e02fc1fba66b43b8bc417edfb22d9c435e80800000000ffffffff01220200000000000022512089a37e066c3bda9c253fac62850bcc044c1fe1116a76406331dff73315c8e1c6034094b69286afd1786bcd056ec192e5b8196e0013f9ebbba73f949c1a4eabb39f5d737c4b9dea4bff172c23f49becc59ad6384dc863be2861f0c2bff559c73cc709fd1f01204e9d6e19f42f63b823598d645ce20a372228be8cdf591311a9419b12af60c270ac0063036f726401011e6170706c69636174696f6e2f6a736f6e3b636861727365743d7574662d38004cd27b2270223a22706f772d3230222c226f70223a226d696e74222c227469636b223a2250455045222c22616d74223a2231303030222c22736f6c7574696f6e223a22504550453a626331703378336875706e76383064666366666c34333367327a3776713378706c63673364666d79716365336d6c6d6e78397767753872717265763032653a303030303030303030303030303030303030303139393431613561653132383937363539383134343239323533333030353762306461393666336465613163353a33373730393735343336227d6821c1bf69a78b1b6433fca38fda21525e43a6c565682ca08e513a8f66feb66872393000000000"
}