{
  "txid": "9fc125c38d1eec1f9fc6da64343427d70686f07287ac00ed4506745d6f0dcc14",
  "version": 1,
  "locktime": 0,
  "vin": [
    {
      "txid": "2f2e558e7a78ed96ff0a4f309ad73a1a745c31d1bb05f61de2cbfaa4f09568f2",
      "vout": 0,
      "prevout": {
        "scriptpubkey": "001466d96c669bb7fa4734973d5fa91051c2a082168f",
        "scriptpubkey_asm": "OP_0 OP_PUSHBYTES_20 66d96c669bb7fa4734973d5fa91051c2a082168f",
        "scriptpubkey_type": "v0_p2wpkh",
        "scriptpubkey_address": "bc1qvmvkce5mklaywdyh8406jyz3c2sgy950vdh6v2",
        "value": 44640655
      },
      "scriptsig": "",
      "scriptsig_asm": "",
      "witness": [
        "3045022100b57adff7ec9f99cba88e7b5553cec2f98774c3f0433944fe09c79f6a94449a4102201fef2f9fa610055a5d30134acda9282379cc4ae06a9869dd32799a0c39d000f101",
        "03686573c95ea0cf9dea37494fddf74f1a7989305598e1033e0c783cc65e4604a1"
      ],
      "is_coinbase": false,
      "sequence": 4294967293
    },
    {
      "txid": "74fb8c06195fb197b19248792abd119eec9e1981d6563344d4f3a7bccc6cc8c2",
      "vout": 0,
      "prevout": {
        "scriptpubkey": "0014f3c4718e743299d9266b2d3e26ebc022d277fd76",
        "scriptpubkey_asm": "OP_0 OP_PUSHBYTES_20 f3c4718e743299d9266b2d3e26ebc022d277fd76",
        "scriptpubkey_type": "v0_p2wpkh",
        "scriptpubkey_address": "bc1q70z8rrn5x2vajfnt95lzd67qytf80ltkfezs5l",
        "value": 1100000
      },
      "scriptsig": "",
      "scriptsig_asm": "",
      "witness": [
        "3045022100debb262a3b724ad770a799f90bb4d0a2388a4644812287a571cfc5fc13adc2e20220738fafa46fbcfbc121ea4a91d55f06e7a2e01d7567704bfba242718fee25e77601",
        "0304199b2625ab9c5876728799158021e5490b9425131abcbc4ce3699b505d87df"
      ],
      "is_coinbase": false,
      "sequence": 4294967293
    },
    {
      "txid": "b31fb7a256f25ddebd273a1678ffffa734aaa8ca747423577d4c1ddb6725f48c",
      "vout": 0,
      "prevout": {
        "scriptpubkey": "00146be9b029335dc597458fd15e107fd51f5b5a45bd",
        "scriptpubkey_asm": "OP_0 OP_PUSHBYTES_20 6be9b029335dc597458fd15e107fd51f5b5a45bd",
        "scriptpubkey_type": "v0_p2wpkh",
        "scriptpubkey_address": "bc1qd05mq2fnthzew3v0690pql74rad453da9lj3ng",
        "value": 14103583
      },
      "scriptsig": "",
      "scriptsig_asm": "",
      "witness": [
        "3045022100d3086a1e602601a882b03e2f5e9693fffa674c5128f5ae24c288c72e0c69a62502203efbeeea1f4fa04d2a3713a8e8abd4026e55041eb21279404834bae4c498750901",
        "03417e4ad5f4ae896fcc9e557f66adf36149e8c8d35e44147dbf08d0d0e090eb9b"
      ],
      "is_coinbase": false,
      "sequence": 4294967293
    },
    {
      "txid": "f52f6fdfc0b7cc8c49e9ba70889a7c45f64cc9ed1fe3b978f6cb6a7d72c3c3c5",
      "vout": 1,
      "prevout": {
        "scriptpubkey": "001400b7d15f4bd21c68febba62e39794ef1991da07e",
        "scriptpubkey_asm": "OP_0 OP_PUSHBYTES_20 00b7d15f4bd21c68febba62e39794ef1991da07e",
        "scriptpubkey_type": "v0_p2wpkh",
        "scriptpubkey_address": "bc1qqzmazh6t6gwx3l4m5chrj72w7xv3mgr77fl4fg",
        "value": 89988519
      },
      "scriptsig": "",
      "scriptsig_asm": "",
      "witness": [
        "304402201d1d243e8e5c048bde14dbb1c727520c1f9312891ba555822ee4132c5116c3d902203218f680b6f55f66d18ffac2ca2630f9aa1b6ead990abf27953b846c08ac275001",
        "039d40fcf85fef9b89d0c39b5514ace3caacd7e142b72c0843d3686ab02ee3877d"
      ],
      "is_coinbase": false,
      "sequence": 4294967293
    }
  ],
  "vout": [
    {
      "scriptpubkey": "001400b7d15f4bd21c68febba62e39794ef1991da07e",
      "scriptpubkey_asm": "OP_0 OP_PUSHBYTES_20 00b7d15f4bd21c68febba62e39794ef1991da07e",
      "scriptpubkey_type": "v0_p2wpkh",
      "scriptpubkey_address": "bc1qqzmazh6t6gwx3l4m5chrj72w7xv3mgr77fl4fg",
      "value": 9995860
    },
    {
      "scriptpubkey": "001423f916cf7d7e3c39e7a2eb9e70d7db3517eae356",
      "scriptpubkey_asm": "OP_0 OP_PUSHBYTES_20 23f916cf7d7e3c39e7a2eb9e70d7db3517eae356",
      "scriptpubkey_type": "v0_p2wpkh",
      "scriptpubkey_address": "bc1qy0u3dnma0c7rneazaw08p47mx5t74c6k74pw49",
      "value": 139832757
    }
  ],
  "size": 669,
  "weight": 1377,
  "fee": 4140,
  "status": {
    "confirmed": true,
    "block_height": 834460,
    "block_hash": "00000000000000000000484a79b643b2524bbce82e5d8a442013fa5b8905ed98",
    "block_time": 1710307468
  },
  "hex": "01000000000104f26895f0a4facbe21df605bbd1315c741a3ad79a304f0aff96ed787a8e552e2f0000000000fdffffffc2c86cccbca7f3d4443356d681199eec9e11bd2a794892b197b15f19068cfb740000000000fdffffff8cf42567db1d4c7d57237474caa8aa34a7ffff78163a27bdde5df256a2b71fb30000000000fdffffffc5c3c3727d6acbf678b9e31fedc94cf6457c9a8870bae9498cccb7c0df6f2ff50100000000fdffffff02548698000000000016001400b7d15f4bd21c68febba62e39794ef1991da07eb5ad55080000000016001423f916cf7d7e3c39e7a2eb9e70d7db3517eae35602483045022100b57adff7ec9f99cba88e7b5553cec2f98774c3f0433944fe09c79f6a94449a4102201fef2f9fa610055a5d30134acda9282379cc4ae06a9869dd32799a0c39d000f1012103686573c95ea0cf9dea37494fddf74f1a7989305598e1033e0c783cc65e4604a102483045022100debb262a3b724ad770a799f90bb4d0a2388a4644812287a571cfc5fc13adc2e20220738fafa46fbcfbc121ea4a91d55f06e7a2e01d7567704bfba242718fee25e77601210304199b2625ab9c5876728799158021e5490b9425131abcbc4ce3699b505d87df02483045022100d3086a1e602601a882b03e2f5e9693fffa674c5128f5ae24c288c72e0c69a62502203efbeeea1f4fa04d2a3713a8e8abd4026e55041eb21279404834bae4c4987509012103417e4ad5f4ae896fcc9e557f66adf36149e8c8d35e44147dbf08d0d0e090eb9b0247304402201d1d243e8e5c048bde14dbb1c727520c1f9312891ba555822ee4132c5116c3d902203218f680b6f55f66d18ffac2ca2630f9aa1b6ead990abf27953b846c08ac27500121039d40fcf85fef9b89d0c39b5514ace3caacd7e142b72c0843d3686ab02ee3877d00000000"
}