{
  "txid": "9fc3e43e0cbbfbaa8e7f9683123eb810c1fcc79ea104bb4df79f7426ec62f73e",
  "version": 2,
  "locktime": 0,
  "vin": [
    {
      "txid": "b13bb5512a4904c28a6b7957b88edf574e8cb23551fc1dcfe22d6b239df42cf4",
      "vout": 87,
      "prevout": {
        "scriptpubkey": "5120438b06d1d7fafbc318163d9bfca0243faec95fd3bb9d6a3b3c0cd9ab0599a30a",
        "scriptpubkey_asm": "OP_PUSHNUM_1 OP_PUSHBYTES_32 438b06d1d7fafbc318163d9bfca0243faec95fd3bb9d6a3b3c0cd9ab0599a30a",
        "scriptpubkey_type": "v1_p2tr",
        "scriptpubkey_address": "bc1pgw9sd5whltauxxqk8kdlegpy87hvjh7nhwwk5weupnv6kpve5v9qfwkuqx",
        "value": 2575
      },
      "scriptsig": "",
      "scriptsig_asm": "",
      "witness": [
        "7e98c74400ad90ceb925c3ebc619fe20f1c947a926c5defa63d9f8aa4eee5b5e1dabea3b2e00633bbbf66095ef8e92df33dd82939d456bd1205713637f03601e",
        "208ae6f440f1e05d0752423ff0094d56fe083a2f31168779950cb53d01aaee620fac0063036f726401010a746578742f706c61696e00367b2270223a226272632d3230222c226f70223a226d696e74222c227469636b223a2261616161222c22616d74223a223130303030227d68",
        "c18ae6f440f1e05d0752423ff0094d56fe083a2f31168779950cb53d01aaee620f"
      ],
      "is_coinbase": false,
      "sequence": 4261412863
    }
  ],
  "vout": [
    {
      "scriptpubkey": "0014ce0b5aa0dac72397a8aa5a85d90a2cfb46f0f630",
      "scriptpubkey_asm": "OP_0 OP_PUSHBYTES_20 ce0b5aa0dac72397a8aa5a85d90a2cfb46f0f630",
      "scriptpubkey_type": "v0_p2wpkh",
      "scriptpubkey_address": "bc1qec944gx6cu3e0292t2zajz3vldr0pa3sh356d9",
      "value": 546
    }
  ],
  "size": 295,
  "weight": 541,
  "fee": 2029,
  "status": {
    "confirmed": true,
    "block_height": 834464,
    "block_hash": "0000000000000000000177a0869a911a2b65c9bdcd5a8bcb02b68f305bee848e",
    "block_time": 1710308296
  },
  "hex": "02000000000101f42cf49d236b2de2cf1dfc5135b28c4e57df8eb857796b8ac204492a51b53bb15700000000fffffffd012202000000000000160014ce0b5aa0dac72397a8aa5a85d90a2cfb46f0f63003407e98c74400ad90ceb925c3ebc619fe20f1c947a926c5defa63d9f8aa4eee5b5e1dabea3b2e00633bbbf66095ef8e92df33dd82939d456bd1205713637f03601e6e208ae6f440f1e05d0752423ff0094d56fe083a2f31168779950cb53d01aaee620fac0063036f726401010a746578742f706c61696e00367b2270223a226272632d3230222c226f70223a226d696e74222c227469636b223a2261616161222c22616d74223a223130303030227d6821c18ae6f440f1e05d0752423ff0094d56fe083a2f31168779950cb53d01aaee620f00000000"
}