{
  "txid": "9fcae54b8ccaa3c00114513bc2448d11b1cc8ff31f3937698fd40cc221a09663",
  "version": 2,
  "locktime": 0,
  "vin": [
    {
      "txid": "651efbfaeebc10c4d35223c375ec922673b7e16d2ca6d49a09a8593ec67d441f",
      "vout": 0,
      "prevout": {
        "scriptpubkey": "a9141329a4077c6f1bcfa4f648c1be63efdefb12b41287",
        "scriptpubkey_asm": "OP_HASH160 OP_PUSHBYTES_20 1329a4077c6f1bcfa4f648c1be63efdefb12b412 OP_EQUAL",
        "scriptpubkey_type": "p2sh",
        "scriptpubkey_address": "33SLeSM4hjPysDmMmpExzVZtuMvogougj4",
        "value": 660921
      },
      "scriptsig": "1600148d134c9c1a6bf192f731c6bbb8de9bbf51bbefdb",
      "scriptsig_asm": "OP_PUSHBYTES_22 00148d134c9c1a6bf192f731c6bbb8de9bbf51bbefdb",
      "witness": [
        "3045022100b777bde39f8bff435e1802d7032095ac08db925cc4ea26477683cbccc892e298022072db473f1abfccd9e58c915a4d39fad4f34a54cb95385eb1e679580d77678e3701",
        "02a45469dd00a99cdf0313d7919e0f7ef15be8c081b6d4e23dec81106977d09a1f"
      ],
      "is_coinbase": false,
      "sequence": 4294967295,
      "inner_redeemscript_asm": "OP_0 OP_PUSHBYTES_20 8d134c9c1a6bf192f731c6bbb8de9bbf51bbefdb"
    }
  ],
  "vout": [
    {
      "scriptpubkey": "51203be1fb3634add4dc363d58aa5b2cd9af808cdbafa419e252c9bca75580c00e26",
      "scriptpubkey_asm": "OP_PUSHNUM_1 OP_PUSHBYTES_32 3be1fb3634add4dc363d58aa5b2cd9af808cdbafa419e252c9bca75580c00e26",
      "scriptpubkey_type": "v1_p2tr",
      "scriptpubkey_address": "bc1p80slkd354h2dcd3atz49ktxe47qgeka05sv7y5kfhjn4tqxqpcnq9fce3z",
      "value": 57273
    },
    {
      "scriptpubkey": "0014d741113f27cd236d8dcdd57fe0cc20f81331659d",
      "scriptpubkey_asm": "OP_0 OP_PUSHBYTES_20 d741113f27cd236d8dcdd57fe0cc20f81331659d",
      "scriptpubkey_type": "v0_p2wpkh",
      "scriptpubkey_address": "bc1q6aq3z0e8e53kmrwd64l7pnpqlqfnzevayq0hjj",
      "value": 70310
    },
    {
      "scriptpubkey": "a9141329a4077c6f1bcfa4f648c1be63efdefb12b41287",
      "scriptpubkey_asm": "OP_HASH160 OP_PUSHBYTES_20 1329a4077c6f1bcfa4f648c1be63efdefb12b412 OP_EQUAL",
      "scriptpubkey_type": "p2sh",
      "scriptpubkey_address": "33SLeSM4hjPysDmMmpExzVZtuMvogougj4",
      "value": 529386
    }
  ],
  "size": 290,
  "weight": 830,
  "fee": 3952,
  "status": {
    "confirmed": true,
    "block_height": 834638,
    "block_hash": "000000000000000000025f742c626208ac87e0b7d15054abb4a19ca2d735a54e",
    "block_time": 1710405325
  },
  "hex": "020000000001011f447dc63e59a8099ad4a62c6de1b7732692ec75c32352d3c410bceefafb1e6500000000171600148d134c9c1a6bf192f731c6bbb8de9bbf51bbefdbffffffff03b9df0000000000002251203be1fb3634add4dc363d58aa5b2cd9af808cdbafa419e252c9bca75580c00e26a612010000000000160014d741113f27cd236d8dcdd57fe0cc20f81331659dea1308000000000017a9141329a4077c6f1bcfa4f648c1be63efdefb12b4128702483045022100b777bde39f8bff435e1802d7032095ac08db925cc4ea26477683cbccc892e298022072db473f1abfccd9e58c915a4d39fad4f34a54cb95385eb1e679580d77678e37012102a45469dd00a99cdf0313d7919e0f7ef15be8c081b6d4e23dec81106977d09a1f00000000"
}