{
  "txid": "9fd94c4688e627d4d5a41fd7674b61bb4ea7d9b9735d62d4f71e145eab1dd401",
  "version": 1,
  "locktime": 0,
  "vin": [
    {
      "txid": "d9af131dc3b9edf9326d20d7e8c61964a1df572b081026d11b0fd577e2a6b82d",
      "vout": 1,
      "prevout": {
        "scriptpubkey": "00148a2b42d5a4feb224c3bf6fdd777799e2e8a63898",
        "scriptpubkey_asm": "OP_0 OP_PUSHBYTES_20 8a2b42d5a4feb224c3bf6fdd777799e2e8a63898",
        "scriptpubkey_type": "v0_p2wpkh",
        "scriptpubkey_address": "bc1q3g4594dyl6ezfsaldlwhwaueut52vwyctsalkd",
        "value": 794286257
      },
      "scriptsig": "",
      "scriptsig_asm": "",
      "witness": [
        "304402206824c176a5798157e2831ac10412959f13cda7267ee53cd76ffc42544999dfa002203a82af48cd3407147c5db644021458188c1fca86daacfe46daae3bf8558029a801",
        "0370e7ffb3cf944cd72266125a2ca47e64cc29598f882b929cb2ab5714a29459be"
      ],
      "is_coinbase": false,
      "sequence": 4261412863
    }
  ],
  "vout": [
    {
      "scriptpubkey": "001453f9732cb54e01035e8945c6f7bc44f8ebcb72b1",
      "scriptpubkey_asm": "OP_0 OP_PUSHBYTES_20 53f9732cb54e01035e8945c6f7bc44f8ebcb72b1",
      "scriptpubkey_type": "v0_p2wpkh",
      "scriptpubkey_address": "bc1q20uhxt94fcqsxh5fghr000zylr4uku4333ygzf",
      "value": 27882
    },
    {
      "scriptpubkey": "00148a2b42d5a4feb224c3bf6fdd777799e2e8a63898",
      "scriptpubkey_asm": "OP_0 OP_PUSHBYTES_20 8a2b42d5a4feb224c3bf6fdd777799e2e8a63898",
      "scriptpubkey_type": "v0_p2wpkh",
      "scriptpubkey_address": "bc1q3g4594dyl6ezfsaldlwhwaueut52vwyctsalkd",
      "value": 794254651
    }
  ],
  "size": 222,
  "weight": 561,
  "fee": 3724,
  "status": {
    "confirmed": true,
    "block_height": 834638,
    "block_hash": "000000000000000000025f742c626208ac87e0b7d15054abb4a19ca2d735a54e",
    "block_time": 1710405325
  },
  "hex": "010000000001012db8a6e277d50f1bd12610082b57dfa16419c6e8d7206d32f9edb9c31d13afd90100000000fffffffd02ea6c00000000000016001453f9732cb54e01035e8945c6f7bc44f8ebcb72b13b5d572f000000001600148a2b42d5a4feb224c3bf6fdd777799e2e8a638980247304402206824c176a5798157e2831ac10412959f13cda7267ee53cd76ffc42544999dfa002203a82af48cd3407147c5db644021458188c1fca86daacfe46daae3bf8558029a801210370e7ffb3cf944cd72266125a2ca47e64cc29598f882b929cb2ab5714a29459be00000000"
}