{
  "txid": "9feeb4fd5faf78b95d767460d8efb78188f512090eaec0771ec9e65f88d57b4d",
  "version": 2,
  "locktime": 834585,
  "vin": [
    {
      "txid": "f6b5c4a9424fff38f6dcd4d1f60b5f0feba7dbebf6b901d40e1907e0fe79ccdf",
      "vout": 1,
      "prevout": {
        "scriptpubkey": "001473f821c90c564b842961a8285b762bb5eaa120a4",
        "scriptpubkey_asm": "OP_0 OP_PUSHBYTES_20 73f821c90c564b842961a8285b762bb5eaa120a4",
        "scriptpubkey_type": "v0_p2wpkh",
        "scriptpubkey_address": "bc1qw0uzrjgv2e9cg2tp4q59ka3tkh42zg9y6y48ce",
        "value": 253299294
      },
      "scriptsig": "",
      "scriptsig_asm": "",
      "witness": [
        "3044022025db87490ee7da9dcd727c47baa0434be3af30c356e03019980e6dab6f0a2ce602206c0742bf1e9f529b8f7ddfe25bd4e402bb39ffa04951b7ca9f10e3dacd1e143801",
        "030dcf763db3016c9358a2d76b51dcbdd7bf7836a9fe1627b94633235bd2e26d1c"
      ],
      "is_coinbase": false,
      "sequence": 4294967294
    }
  ],
  "vout": [
    {
      "scriptpubkey": "76a9145bd5b0e17c61f210370ebc849e28119756b462e688ac",
      "scriptpubkey_asm": "OP_DUP OP_HASH160 OP_PUSHBYTES_20 5bd5b0e17c61f210370ebc849e28119756b462e6 OP_EQUALVERIFY OP_CHECKSIG",
      "scriptpubkey_type": "p2pkh",
      "scriptpubkey_address": "19NaUxswTVv5rrbHH1nLjtkLbDDZpgBevE",
      "value": 82500
    },
    {
      "scriptpubkey": "001447e912bd67b5d66219f4fce7eb2357e0b6726712",
      "scriptpubkey_asm": "OP_0 OP_PUSHBYTES_20 47e912bd67b5d66219f4fce7eb2357e0b6726712",
      "scriptpubkey_type": "v0_p2wpkh",
      "scriptpubkey_address": "bc1qgl5390t8khtxyx05lnn7kg6huzm8yecj2pcz0q",
      "value": 253213264
    }
  ],
  "size": 225,
  "weight": 573,
  "fee": 3530,
  "status": {
    "confirmed": true,
    "block_height": 834638,
    "block_hash": "000000000000000000025f742c626208ac87e0b7d15054abb4a19ca2d735a54e",
    "block_time": 1710405325
  },
  "hex": "02000000000101dfcc79fee007190ed401b9f6ebdba7eb0f5f0bf6d1d4dcf638ff4f42a9c4b5f60100000000feffffff0244420100000000001976a9145bd5b0e17c61f210370ebc849e28119756b462e688ac50ba170f0000000016001447e912bd67b5d66219f4fce7eb2357e0b672671202473044022025db87490ee7da9dcd727c47baa0434be3af30c356e03019980e6dab6f0a2ce602206c0742bf1e9f529b8f7ddfe25bd4e402bb39ffa04951b7ca9f10e3dacd1e14380121030dcf763db3016c9358a2d76b51dcbdd7bf7836a9fe1627b94633235bd2e26d1c19bc0c00"
}