{
  "txid": "9fee53e7d1a25c5e6fd098f49cb41d336b5fe212a73b8277651a7ff868fab9d4",
  "version": 2,
  "locktime": 0,
  "vin": [
    {
      "txid": "88588f6378a395181fccbf09117c6bf7ff237d6647406fb17d9c37d9a25149d8",
      "vout": 0,
      "prevout": {
        "scriptpubkey": "5120d0150338046f520bd30971c5bd92d4426ebfc2bc9630564ef38c1dadfdfebc1e",
        "scriptpubkey_asm": "OP_PUSHNUM_1 OP_PUSHBYTES_32 d0150338046f520bd30971c5bd92d4426ebfc2bc9630564ef38c1dadfdfebc1e",
        "scriptpubkey_type": "v1_p2tr",
        "scriptpubkey_address": "bc1p6q2sxwqydafqh5cfw8zmmyk5gfhtls4ujcc9vnhn3sw6ml07hs0qetmnqp",
        "value": 2218
      },
      "scriptsig": "",
      "scriptsig_asm": "",
      "witness": [
        "079f823750c0bef0b367b48f9de3b6615118710d44434df0e8a8ca1799086d82451c1385151137088b3e17d33580e0a1bccb134f12214a013f1d23466977765a",
        "209958d33f75f718b544b7d35277a53722c04a3353fba6961468a771980339ddf2ac0063036f7264010118746578742f706c61696e3b636861727365743d7574662d3800387b2270223a226272632d3230222c226f70223a227472616e73666572222c227469636b223a2244654149222c22616d74223a22353030227d68",
        "c09958d33f75f718b544b7d35277a53722c04a3353fba6961468a771980339ddf2"
      ],
      "is_coinbase": false,
      "sequence": 4294967293
    }
  ],
  "vout": [
    {
      "scriptpubkey": "512099785cec106a4f53b5f0128152c8e600a984aced525a64135c355833e2a847ab",
      "scriptpubkey_asm": "OP_PUSHNUM_1 OP_PUSHBYTES_32 99785cec106a4f53b5f0128152c8e600a984aced525a64135c355833e2a847ab",
      "scriptpubkey_type": "v1_p2tr",
      "scriptpubkey_address": "bc1pn9u9emqsdf848d0sz2q49j8xqz5cft8d2fdxgy6ux4vr8c4gg74sfxnkua",
      "value": 546
    }
  ],
  "size": 323,
  "weight": 605,
  "fee": 1672,
  "status": {
    "confirmed": true,
    "block_height": 834464,
    "block_hash": "0000000000000000000177a0869a911a2b65c9bdcd5a8bcb02b68f305bee848e",
    "block_time": 1710308296
  },
  "hex": "02000000000101d84951a2d9379c7db16f4047667d23fff76b7c1109bfcc1f1895a378638f58880000000000fdffffff01220200000000000022512099785cec106a4f53b5f0128152c8e600a984aced525a64135c355833e2a847ab0340079f823750c0bef0b367b48f9de3b6615118710d44434df0e8a8ca1799086d82451c1385151137088b3e17d33580e0a1bccb134f12214a013f1d23466977765a7e209958d33f75f718b544b7d35277a53722c04a3353fba6961468a771980339ddf2ac0063036f7264010118746578742f706c61696e3b636861727365743d7574662d3800387b2270223a226272632d3230222c226f70223a227472616e73666572222c227469636b223a2244654149222c22616d74223a22353030227d6821c09958d33f75f718b544b7d35277a53722c04a3353fba6961468a771980339ddf200000000"
}