{
  "txid": "9ffbc80b7b2783554c145913b7414284dd83a4242740a477162640ba1a72a9c6",
  "version": 2,
  "locktime": 0,
  "vin": [
    {
      "txid": "b13bb5512a4904c28a6b7957b88edf574e8cb23551fc1dcfe22d6b239df42cf4",
      "vout": 27,
      "prevout": {
        "scriptpubkey": "51201a41a60c06f09a78167046224ee1fb6db891568073d2e9c9efd3e016f7b7676f",
        "scriptpubkey_asm": "OP_PUSHNUM_1 OP_PUSHBYTES_32 1a41a60c06f09a78167046224ee1fb6db891568073d2e9c9efd3e016f7b7676f",
        "scriptpubkey_type": "v1_p2tr",
        "scriptpubkey_address": "bc1prfq6vrqx7zd8s9nsgc3yac0mdkufz45qw0fwnj0060spdaahvahs9ctdx9",
        "value": 2575
      },
      "scriptsig": "",
      "scriptsig_asm": "",
      "witness": [
        "8286ead925ce99ef5ea995c69a823b642c9ce676e6a005d2c0311c596f82e28b09f65647223e3c49243f597b9cb07f7306231742168b45644f4050f0ced0196f",
        "2033242b74b88c785351d5a6b5ca98efcbc448d1c6ebf59e46d0196be6458ea0bbac0063036f726401010a746578742f706c61696e00367b2270223a226272632d3230222c226f70223a226d696e74222c227469636b223a2261616161222c22616d74223a223130303030227d68",
        "c133242b74b88c785351d5a6b5ca98efcbc448d1c6ebf59e46d0196be6458ea0bb"
      ],
      "is_coinbase": false,
      "sequence": 4261412863
    }
  ],
  "vout": [
    {
      "scriptpubkey": "0014ce0b5aa0dac72397a8aa5a85d90a2cfb46f0f630",
      "scriptpubkey_asm": "OP_0 OP_PUSHBYTES_20 ce0b5aa0dac72397a8aa5a85d90a2cfb46f0f630",
      "scriptpubkey_type": "v0_p2wpkh",
      "scriptpubkey_address": "bc1qec944gx6cu3e0292t2zajz3vldr0pa3sh356d9",
      "value": 546
    }
  ],
  "size": 295,
  "weight": 541,
  "fee": 2029,
  "status": {
    "confirmed": true,
    "block_height": 834464,
    "block_hash": "0000000000000000000177a0869a911a2b65c9bdcd5a8bcb02b68f305bee848e",
    "block_time": 1710308296
  },
  "hex": "02000000000101f42cf49d236b2de2cf1dfc5135b28c4e57df8eb857796b8ac204492a51b53bb11b00000000fffffffd012202000000000000160014ce0b5aa0dac72397a8aa5a85d90a2cfb46f0f63003408286ead925ce99ef5ea995c69a823b642c9ce676e6a005d2c0311c596f82e28b09f65647223e3c49243f597b9cb07f7306231742168b45644f4050f0ced0196f6e2033242b74b88c785351d5a6b5ca98efcbc448d1c6ebf59e46d0196be6458ea0bbac0063036f726401010a746578742f706c61696e00367b2270223a226272632d3230222c226f70223a226d696e74222c227469636b223a2261616161222c22616d74223a223130303030227d6821c133242b74b88c785351d5a6b5ca98efcbc448d1c6ebf59e46d0196be6458ea0bb00000000"
}