{
  "txid": "a00cd42bcf23bbe7d0957c05ba84d07d0b1e5a063f79b858068126da36007da6",
  "version": 1,
  "locktime": 0,
  "vin": [
    {
      "txid": "b1ac5c99d8b3a0df8ea052d7bb5df6da610f519e9b50802c9de4a968d554b7e0",
      "vout": 16,
      "prevout": {
        "scriptpubkey": "00147c343c768adcb9b01d32e0ab2d5bb4b9657053d9",
        "scriptpubkey_asm": "OP_0 OP_PUSHBYTES_20 7c343c768adcb9b01d32e0ab2d5bb4b9657053d9",
        "scriptpubkey_type": "v0_p2wpkh",
        "scriptpubkey_address": "bc1q0s6rca52mjumq8fjuz4j6ka5h9jhq57esyd40r",
        "value": 114560032
      },
      "scriptsig": "",
      "scriptsig_asm": "",
      "witness": [
        "30450221008145a188a082c46412543be5c2d12e4d1dfea834dcc50229a6f431ff3e7ee9a802206beb7c18a6ee9052cdb65e85508802366e3047339f2f56307c2c59e3675179f301",
        "032959ac5254ec45ff1a0dee1994b33489f6ed670f6db5eb83fca85b544bc78688"
      ],
      "is_coinbase": false,
      "sequence": 4294967295
    }
  ],
  "vout": [
    {
      "scriptpubkey": "76a914ba01fb93711bf5016dafe9c17c23a0c04c09430188ac",
      "scriptpubkey_asm": "OP_DUP OP_HASH160 OP_PUSHBYTES_20 ba01fb93711bf5016dafe9c17c23a0c04c094301 OP_EQUALVERIFY OP_CHECKSIG",
      "scriptpubkey_type": "p2pkh",
      "scriptpubkey_address": "1HxX4SeR7sdatoPWPxNuJMafVHRHYuSHRd",
      "value": 1121738
    },
    {
      "scriptpubkey": "0014a803da05e165c115928ae63ab9b7687d7698f812",
      "scriptpubkey_asm": "OP_0 OP_PUSHBYTES_20 a803da05e165c115928ae63ab9b7687d7698f812",
      "scriptpubkey_type": "v0_p2wpkh",
      "scriptpubkey_address": "bc1q4qpa5p0pvhq3ty52ucatndmg04mf37qjfxkeye",
      "value": 43151
    },
    {
      "scriptpubkey": "001474bca09128946eecd75ede116bd81f6f6756dad8",
      "scriptpubkey_asm": "OP_0 OP_PUSHBYTES_20 74bca09128946eecd75ede116bd81f6f6756dad8",
      "scriptpubkey_type": "v0_p2wpkh",
      "scriptpubkey_address": "bc1qwj72pyfgj3hwe467mcgkhkqldan4dkkc3p2eru",
      "value": 325587
    },
    {
      "scriptpubkey": "76a91494c46faecea9535a5d210afe97a873f7eadbb8a888ac",
      "scriptpubkey_asm": "OP_DUP OP_HASH160 OP_PUSHBYTES_20 94c46faecea9535a5d210afe97a873f7eadbb8a8 OP_EQUALVERIFY OP_CHECKSIG",
      "scriptpubkey_type": "p2pkh",
      "scriptpubkey_address": "1EZcL2FfN5cKYY2w2PbWFzuXjV7CBBQfRK",
      "value": 99145
    },
    {
      "scriptpubkey": "001431167e186d60de4e4f896fe898cf2511c96906f1",
      "scriptpubkey_asm": "OP_0 OP_PUSHBYTES_20 31167e186d60de4e4f896fe898cf2511c96906f1",
      "scriptpubkey_type": "v0_p2wpkh",
      "scriptpubkey_address": "bc1qxyt8uxrdvr0yunufdl5f3ne9z8ykjph3leqee7",
      "value": 40645
    },
    {
      "scriptpubkey": "76a914318402a073e314d8e3c41afce451b29698b0434d88ac",
      "scriptpubkey_asm": "OP_DUP OP_HASH160 OP_PUSHBYTES_20 318402a073e314d8e3c41afce451b29698b0434d OP_EQUALVERIFY OP_CHECKSIG",
      "scriptpubkey_type": "p2pkh",
      "scriptpubkey_address": "15WpFdjoGqhpsGoA3TYdy8ymjcnDC6dzpW",
      "value": 474404
    },
    {
      "scriptpubkey": "76a91400f96b59927d63bf473ed4d2c3259548bc47390788ac",
      "scriptpubkey_asm": "OP_DUP OP_HASH160 OP_PUSHBYTES_20 00f96b59927d63bf473ed4d2c3259548bc473907 OP_EQUALVERIFY OP_CHECKSIG",
      "scriptpubkey_type": "p2pkh",
      "scriptpubkey_address": "1169nxduRVbStRo3JzCXyaB9ZjtMMGFty5",
      "value": 39306
    },
    {
      "scriptpubkey": "76a914e4cf08dc92c8714e09de66a4e7cbe0d3384bd45988ac",
      "scriptpubkey_asm": "OP_DUP OP_HASH160 OP_PUSHBYTES_20 e4cf08dc92c8714e09de66a4e7cbe0d3384bd459 OP_EQUALVERIFY OP_CHECKSIG",
      "scriptpubkey_type": "p2pkh",
      "scriptpubkey_address": "1Mrq5kmYLcGW5LfzXEsesxD24icL15ycGW",
      "value": 2836728
    },
    {
      "scriptpubkey": "a9142552a629ecce3251cfd4983652f02b8bf54e2a0187",
      "scriptpubkey_asm": "OP_HASH160 OP_PUSHBYTES_20 2552a629ecce3251cfd4983652f02b8bf54e2a01 OP_EQUAL",
      "scriptpubkey_type": "p2sh",
      "scriptpubkey_address": "356MwCZBcmsykc3JBdwLjqVHzcKzTmifVK",
      "value": 13637
    },
    {
      "scriptpubkey": "a9143b97fbdd56df1d4c383b3feb5fb10d6483b81e7887",
      "scriptpubkey_asm": "OP_HASH160 OP_PUSHBYTES_20 3b97fbdd56df1d4c383b3feb5fb10d6483b81e78 OP_EQUAL",
      "scriptpubkey_type": "p2sh",
      "scriptpubkey_address": "3787rtFjWz3G8qP7EbCPeCM7jYocFobBYk",
      "value": 140000
    },
    {
      "scriptpubkey": "00149e39359f5ecc1cdb29707668c8dd59c9d6cb9a2c",
      "scriptpubkey_asm": "OP_0 OP_PUSHBYTES_20 9e39359f5ecc1cdb29707668c8dd59c9d6cb9a2c",
      "scriptpubkey_type": "v0_p2wpkh",
      "scriptpubkey_address": "bc1qncunt867eswdk2tswe5v3h2ee8tvhx3v5j6xz2",
      "value": 14393
    },
    {
      "scriptpubkey": "76a91454766ff5d774f05f8da39e03698abfd8cbdbe30588ac",
      "scriptpubkey_asm": "OP_DUP OP_HASH160 OP_PUSHBYTES_20 54766ff5d774f05f8da39e03698abfd8cbdbe305 OP_EQUALVERIFY OP_CHECKSIG",
      "scriptpubkey_type": "p2pkh",
      "scriptpubkey_address": "18hbeHWueeDurRiA2TFxaQRGSKLMp8ZPKm",
      "value": 263433
    },
    {
      "scriptpubkey": "00141e25eb89e4dd955697f79c3f107b9fa4e90991ea",
      "scriptpubkey_asm": "OP_0 OP_PUSHBYTES_20 1e25eb89e4dd955697f79c3f107b9fa4e90991ea",
      "scriptpubkey_type": "v0_p2wpkh",
      "scriptpubkey_address": "bc1qrcj7hz0ymk24d9lhnsl3q7ul5n5sny02pdt39w",
      "value": 47738
    },
    {
      "scriptpubkey": "001475c55d8db8c51292b0a76459eb707309d31f4008",
      "scriptpubkey_asm": "OP_0 OP_PUSHBYTES_20 75c55d8db8c51292b0a76459eb707309d31f4008",
      "scriptpubkey_type": "v0_p2wpkh",
      "scriptpubkey_address": "bc1qwhz4mrdcc5ff9v98v3v7kurnp8f37sqg803hjd",
      "value": 5722050
    },
    {
      "scriptpubkey": "001402dc6724978154a23c3d460274f206d75f17ac34",
      "scriptpubkey_asm": "OP_0 OP_PUSHBYTES_20 02dc6724978154a23c3d460274f206d75f17ac34",
      "scriptpubkey_type": "v0_p2wpkh",
      "scriptpubkey_address": "bc1qqtwxwfyhs922y0pagcp8fusx6a030tp5yqqzky",
      "value": 60440
    },
    {
      "scriptpubkey": "00147c343c768adcb9b01d32e0ab2d5bb4b9657053d9",
      "scriptpubkey_asm": "OP_0 OP_PUSHBYTES_20 7c343c768adcb9b01d32e0ab2d5bb4b9657053d9",
      "scriptpubkey_type": "v0_p2wpkh",
      "scriptpubkey_address": "bc1q0s6rca52mjumq8fjuz4j6ka5h9jhq57esyd40r",
      "value": 103301898
    }
  ],
  "size": 677,
  "weight": 2378,
  "fee": 15739,
  "status": {
    "confirmed": true,
    "block_height": 834638,
    "block_hash": "000000000000000000025f742c626208ac87e0b7d15054abb4a19ca2d735a54e",
    "block_time": 1710405325
  },
  "hex": "01000000000101e0b754d568a9e49d2c80509b9e510f61daf65dbbd752a08edfa0b3d8995cacb11000000000ffffffff10ca1d1100000000001976a914ba01fb93711bf5016dafe9c17c23a0c04c09430188ac8fa8000000000000160014a803da05e165c115928ae63ab9b7687d7698f812d3f704000000000016001474bca09128946eecd75ede116bd81f6f6756dad849830100000000001976a91494c46faecea9535a5d210afe97a873f7eadbb8a888acc59e00000000000016001431167e186d60de4e4f896fe898cf2511c96906f1243d0700000000001976a914318402a073e314d8e3c41afce451b29698b0434d88ac8a990000000000001976a91400f96b59927d63bf473ed4d2c3259548bc47390788acf8482b00000000001976a914e4cf08dc92c8714e09de66a4e7cbe0d3384bd45988ac453500000000000017a9142552a629ecce3251cfd4983652f02b8bf54e2a0187e02202000000000017a9143b97fbdd56df1d4c383b3feb5fb10d6483b81e788739380000000000001600149e39359f5ecc1cdb29707668c8dd59c9d6cb9a2c09050400000000001976a91454766ff5d774f05f8da39e03698abfd8cbdbe30588ac7aba0000000000001600141e25eb89e4dd955697f79c3f107b9fa4e90991eac24f57000000000016001475c55d8db8c51292b0a76459eb707309d31f400818ec00000000000016001402dc6724978154a23c3d460274f206d75f17ac340a432806000000001600147c343c768adcb9b01d32e0ab2d5bb4b9657053d9024830450221008145a188a082c46412543be5c2d12e4d1dfea834dcc50229a6f431ff3e7ee9a802206beb7c18a6ee9052cdb65e85508802366e3047339f2f56307c2c59e3675179f30121032959ac5254ec45ff1a0dee1994b33489f6ed670f6db5eb83fca85b544bc7868800000000"
}