{
  "txid": "a02460ebff03b7cf95326527f13cf58eb0d99e61a8aa238927cb19300ae7dc74",
  "version": 2,
  "locktime": 0,
  "vin": [
    {
      "txid": "af704d3d3697824494863d8bfb226940b445cc0717565c2b444050b4e48d5ec3",
      "vout": 0,
      "prevout": {
        "scriptpubkey": "0014b2fafd242a2477e4f10d192f1c3fb779a4816069",
        "scriptpubkey_asm": "OP_0 OP_PUSHBYTES_20 b2fafd242a2477e4f10d192f1c3fb779a4816069",
        "scriptpubkey_type": "v0_p2wpkh",
        "scriptpubkey_address": "bc1qkta06fp2y3m7fugdryh3c0ah0xjgzcrfzf3qfr",
        "value": 746499
      },
      "scriptsig": "",
      "scriptsig_asm": "",
      "witness": [
        "3045022100b483a40296caed9adc425648acba7b003653dd7820ab3a43dbebad0655f3f74502205a4d50642c03cbf1302298acb750a08f58cf2efed7ae192fc160468518feb26001",
        "022cbb8f00d4f1a7a2ba0d96e05fc18fdec6079d5ead0cdc4d853253314273eb99"
      ],
      "is_coinbase": false,
      "sequence": 4294967295
    }
  ],
  "vout": [
    {
      "scriptpubkey": "0014b2fafd242a2477e4f10d192f1c3fb779a4816069",
      "scriptpubkey_asm": "OP_0 OP_PUSHBYTES_20 b2fafd242a2477e4f10d192f1c3fb779a4816069",
      "scriptpubkey_type": "v0_p2wpkh",
      "scriptpubkey_address": "bc1qkta06fp2y3m7fugdryh3c0ah0xjgzcrfzf3qfr",
      "value": 712801
    },
    {
      "scriptpubkey": "0014737b56fc0844288cbaf1ae17b8c64a085584cde4",
      "scriptpubkey_asm": "OP_0 OP_PUSHBYTES_20 737b56fc0844288cbaf1ae17b8c64a085584cde4",
      "scriptpubkey_type": "v0_p2wpkh",
      "scriptpubkey_address": "bc1qwda4dlqggs5gewh34ctm33j2pp2cfn0yztfvrw",
      "value": 31770
    }
  ],
  "size": 223,
  "weight": 562,
  "fee": 1928,
  "status": {
    "confirmed": true,
    "block_height": 834460,
    "block_hash": "00000000000000000000484a79b643b2524bbce82e5d8a442013fa5b8905ed98",
    "block_time": 1710307468
  },
  "hex": "02000000000101c35e8de4b45040442b5c561707cc45b4406922fb8b3d8694448297363d4d70af0000000000ffffffff0261e00a0000000000160014b2fafd242a2477e4f10d192f1c3fb779a48160691a7c000000000000160014737b56fc0844288cbaf1ae17b8c64a085584cde402483045022100b483a40296caed9adc425648acba7b003653dd7820ab3a43dbebad0655f3f74502205a4d50642c03cbf1302298acb750a08f58cf2efed7ae192fc160468518feb2600121022cbb8f00d4f1a7a2ba0d96e05fc18fdec6079d5ead0cdc4d853253314273eb9900000000"
}