{
  "txid": "a02920445705cbc5bf6c6aebc4eebb029cee19b84a0443d3fd3bc34d3da35340",
  "version": 2,
  "locktime": 0,
  "vin": [
    {
      "txid": "0bccf4fca1bb7898bd19adea6a8965e191258cce8f6ee45158f4d2addc8c491b",
      "vout": 1,
      "prevout": {
        "scriptpubkey": "76a9145a4dd33194e1b75e918d89730120c84cf4d0b67e88ac",
        "scriptpubkey_asm": "OP_DUP OP_HASH160 OP_PUSHBYTES_20 5a4dd33194e1b75e918d89730120c84cf4d0b67e OP_EQUALVERIFY OP_CHECKSIG",
        "scriptpubkey_type": "p2pkh",
        "scriptpubkey_address": "19EV3e3zN9jTuWerfBRmmsQ6weNforYKAz",
        "value": 283980520
      },
      "scriptsig": "47304402202985032527c8d462f891ebea4c3fac0e3b9eec788c66e86bf0218b01e2ec09640220150e96e7dda78b5174c8ed187eec9af3877dd43b22bd0cd4b97329fc9e135bff012103d314bbd70555ddc5b8170c66ecc87d7dc334d0443f7d76687589dfd19ee6f606",
      "scriptsig_asm": "OP_PUSHBYTES_71 304402202985032527c8d462f891ebea4c3fac0e3b9eec788c66e86bf0218b01e2ec09640220150e96e7dda78b5174c8ed187eec9af3877dd43b22bd0cd4b97329fc9e135bff01 OP_PUSHBYTES_33 03d314bbd70555ddc5b8170c66ecc87d7dc334d0443f7d76687589dfd19ee6f606",
      "is_coinbase": false,
      "sequence": 4294967293
    }
  ],
  "vout": [
    {
      "scriptpubkey": "00144e0876016acae21979824298f3108b4757759527",
      "scriptpubkey_asm": "OP_0 OP_PUSHBYTES_20 4e0876016acae21979824298f3108b4757759527",
      "scriptpubkey_type": "v0_p2wpkh",
      "scriptpubkey_address": "bc1qfcy8vqt2et3pj7vzg2v0xyytgatht9f8xv766f",
      "value": 1420000
    },
    {
      "scriptpubkey": "76a9145a4dd33194e1b75e918d89730120c84cf4d0b67e88ac",
      "scriptpubkey_asm": "OP_DUP OP_HASH160 OP_PUSHBYTES_20 5a4dd33194e1b75e918d89730120c84cf4d0b67e OP_EQUALVERIFY OP_CHECKSIG",
      "scriptpubkey_type": "p2pkh",
      "scriptpubkey_address": "19EV3e3zN9jTuWerfBRmmsQ6weNforYKAz",
      "value": 282554026
    }
  ],
  "size": 222,
  "weight": 888,
  "fee": 6494,
  "status": {
    "confirmed": true,
    "block_height": 834638,
    "block_hash": "000000000000000000025f742c626208ac87e0b7d15054abb4a19ca2d735a54e",
    "block_time": 1710405325
  },
  "hex": "02000000011b498cdcadd2f45851e46e8fce8c2591e165896aeaad19bd9878bba1fcf4cc0b010000006a47304402202985032527c8d462f891ebea4c3fac0e3b9eec788c66e86bf0218b01e2ec09640220150e96e7dda78b5174c8ed187eec9af3877dd43b22bd0cd4b97329fc9e135bff012103d314bbd70555ddc5b8170c66ecc87d7dc334d0443f7d76687589dfd19ee6f606fdffffff02e0aa1500000000001600144e0876016acae21979824298f3108b4757759527aa6ed710000000001976a9145a4dd33194e1b75e918d89730120c84cf4d0b67e88ac00000000"
}