{
  "txid": "a02d78d87954194327be783b13634e3a5353326f7b6cfba7ac6714859e934e4f",
  "version": 2,
  "locktime": 0,
  "vin": [
    {
      "txid": "1618465c71c976c7a26f0fed8cf897a2339efcf958d7513883b52bf143c05e87",
      "vout": 1,
      "prevout": {
        "scriptpubkey": "51207f04385ab76c916ca1929e490aaae2b5131fc127f7179edfcc494c55ef1743d2",
        "scriptpubkey_asm": "OP_PUSHNUM_1 OP_PUSHBYTES_32 7f04385ab76c916ca1929e490aaae2b5131fc127f7179edfcc494c55ef1743d2",
        "scriptpubkey_type": "v1_p2tr",
        "scriptpubkey_address": "bc1p0uzrsk4hdjgkegvjneys42hzk5f3lsf87uteah7vf9x9tmchg0fquyc2cl",
        "value": 170500
      },
      "scriptsig": "",
      "scriptsig_asm": "",
      "witness": [
        "fe6a86bcf222a3ea263f2d7d2b23cdf656ea06abc4323bf4cec32a153e2baecde1423ef2358ceed7faecc444b64b839a312ca1a5f149f409e117773c3339c2ea"
      ],
      "is_coinbase": false,
      "sequence": 4294967295
    }
  ],
  "vout": [
    {
      "scriptpubkey": "51206bc4a1511c6bdfb9d5e6b022d854f8a34e7f9d36823cbb34fa9b16ba5c006617",
      "scriptpubkey_asm": "OP_PUSHNUM_1 OP_PUSHBYTES_32 6bc4a1511c6bdfb9d5e6b022d854f8a34e7f9d36823cbb34fa9b16ba5c006617",
      "scriptpubkey_type": "v1_p2tr",
      "scriptpubkey_address": "bc1pd0z2z5gud00mn40xkq3ds48c5d88l8fksg7tkd86nvtt5hqqvctsqzjng8",
      "value": 168835
    }
  ],
  "size": 162,
  "weight": 444,
  "fee": 1665,
  "status": {
    "confirmed": true,
    "block_height": 834460,
    "block_hash": "00000000000000000000484a79b643b2524bbce82e5d8a442013fa5b8905ed98",
    "block_time": 1710307468
  },
  "hex": "02000000000101875ec043f12bb5833851d758f9fc9e33a297f88ced0f6fa2c776c9715c4618160100000000ffffffff0183930200000000002251206bc4a1511c6bdfb9d5e6b022d854f8a34e7f9d36823cbb34fa9b16ba5c0066170140fe6a86bcf222a3ea263f2d7d2b23cdf656ea06abc4323bf4cec32a153e2baecde1423ef2358ceed7faecc444b64b839a312ca1a5f149f409e117773c3339c2ea00000000"
}