{
  "txid": "a02e2e9dd842efd5a5c16d4d8461dbd31455237ed09d0675d69dbafe0ca46c0b",
  "version": 2,
  "locktime": 0,
  "vin": [
    {
      "txid": "c10e48caeee8756d57fbce0e4f26c1d08bb9f0d4a35c2d26269682da8df04dac",
      "vout": 55,
      "prevout": {
        "scriptpubkey": "512089858540d910eca9bd26ebb5860f7be1a4d3a52f58df0e18075d0b2c04312915",
        "scriptpubkey_asm": "OP_PUSHNUM_1 OP_PUSHBYTES_32 89858540d910eca9bd26ebb5860f7be1a4d3a52f58df0e18075d0b2c04312915",
        "scriptpubkey_type": "v1_p2tr",
        "scriptpubkey_address": "bc1p3xzc2sxezrk2n0fxaw6cvrmmuxjd8ff0tr0suxq8t59jcpp39y2spz2eet",
        "value": 3634
      },
      "scriptsig": "",
      "scriptsig_asm": "",
      "witness": [
        "6e0fc591397beeb5dcbaeead8b90c68df64ba8aa483213092f50a9878864b325753b51d1af51d48b5156cc309da621775884b775b497c3024fa5852d6477c845",
        "20077af9c94229380570ed468b82835808511170c3060a466abc73a455c82015b2ac0063036f726401011e6170706c69636174696f6e2f6a736f6e3b636861727365743d7574662d38004cd37b2270223a22706f772d3230222c226f70223a226d696e74222c227469636b223a2250455045222c22616d74223a2231303030222c22736f6c7574696f6e223a22504550453a6263317071336e67663775716e73667434706d37357236397371616c6c30637068747278677773757a6d657864356c337039333566366d713666337664383a303030303030303030303030303030303030303139393431613561653132383937363539383134343239323533333030353762306461393666336465613163353a3430333738343339363136227d68",
        "c1406c0f2a67700582b42f36a71eb03478d57ba1acdc179ee1ec758acb282de3fd"
      ],
      "is_coinbase": false,
      "sequence": 4294967295
    }
  ],
  "vout": [
    {
      "scriptpubkey": "5120046684fb809c12ba877ea0f45803bffbf01bac6643a1c16f266d3f1096344eb6",
      "scriptpubkey_asm": "OP_PUSHNUM_1 OP_PUSHBYTES_32 046684fb809c12ba877ea0f45803bffbf01bac6643a1c16f266d3f1096344eb6",
      "scriptpubkey_type": "v1_p2tr",
      "scriptpubkey_address": "bc1pq3ngf7uqnsft4pm75r69sqall0cphtrxgwsuzmexd5l3p935f6mq6f3vd8",
      "value": 546
    }
  ],
  "size": 487,
  "weight": 769,
  "fee": 3088,
  "status": {
    "confirmed": true,
    "block_height": 834460,
    "block_hash": "00000000000000000000484a79b643b2524bbce82e5d8a442013fa5b8905ed98",
    "block_time": 1710307468
  },
  "hex": "02000000000101ac4df08dda829626262d5ca3d4f0b98bd0c1264f0ecefb576d75e8eeca480ec13700000000ffffffff012202000000000000225120046684fb809c12ba877ea0f45803bffbf01bac6643a1c16f266d3f1096344eb603406e0fc591397beeb5dcbaeead8b90c68df64ba8aa483213092f50a9878864b325753b51d1af51d48b5156cc309da621775884b775b497c3024fa5852d6477c845fd200120077af9c94229380570ed468b82835808511170c3060a466abc73a455c82015b2ac0063036f726401011e6170706c69636174696f6e2f6a736f6e3b636861727365743d7574662d38004cd37b2270223a22706f772d3230222c226f70223a226d696e74222c227469636b223a2250455045222c22616d74223a2231303030222c22736f6c7574696f6e223a22504550453a6263317071336e67663775716e73667434706d37357236397371616c6c30637068747278677773757a6d657864356c337039333566366d713666337664383a303030303030303030303030303030303030303139393431613561653132383937363539383134343239323533333030353762306461393666336465613163353a3430333738343339363136227d6821c1406c0f2a67700582b42f36a71eb03478d57ba1acdc179ee1ec758acb282de3fd00000000"
}