{
  "txid": "a032cb84e79b6b4705edeee77a1ff57fe4e42327025447987c1236ab26c9bcc1",
  "version": 2,
  "locktime": 0,
  "vin": [
    {
      "txid": "5f846d283984d01eb9829d816f88218abd33effc15a08222518615da3e5f47c5",
      "vout": 21,
      "prevout": {
        "scriptpubkey": "51202629212d002e07f2f924db69d400c23df82bab058e883fcdca4e3aebbe8d1030",
        "scriptpubkey_asm": "OP_PUSHNUM_1 OP_PUSHBYTES_32 2629212d002e07f2f924db69d400c23df82bab058e883fcdca4e3aebbe8d1030",
        "scriptpubkey_type": "v1_p2tr",
        "scriptpubkey_address": "bc1pyc5jztgq9crl97fymd5agqxz8huzh2c936yrlnw2fcawh05dzqcqnztez9",
        "value": 2862
      },
      "scriptsig": "",
      "scriptsig_asm": "",
      "witness": [
        "7287402fa95dfcdf285aa0add69208ef0da42b60632358ad09d6b3700ad10b8eb00edb4527e3974be80741596fa92417b9dfec5b1316b25dfdac083c76d308b9",
        "202c14b8e3fca06c1d2f29d42388f1201c41226f62786242d0df7e165e196d5fa8ac0063036f726401011e6170706c69636174696f6e2f6a736f6e3b636861727365743d7574662d38004cd37b2270223a22706f772d3230222c226f70223a226d696e74222c227469636b223a2250455045222c22616d74223a2231303030222c22736f6c7574696f6e223a22504550453a626331706d6c3973653572666b6c3076393075786c7972667871717a366c34797364637172647371683735656c727133396676647164777139777276736e3a303030303030303030303030303030303030303139393431613561653132383937363539383134343239323533333030353762306461393666336465613163353a3531333531353338333730227d68",
        "c03beca27a4fc825f712a8ee0e92a93b2e9ce7496e1e1c5bfb1b103e51f3be77b5"
      ],
      "is_coinbase": false,
      "sequence": 4294967295
    }
  ],
  "vout": [
    {
      "scriptpubkey": "5120dfcb0cd069b7dec2bf86f906930002d7ea4837001b600bfa99f8c112a58d035c",
      "scriptpubkey_asm": "OP_PUSHNUM_1 OP_PUSHBYTES_32 dfcb0cd069b7dec2bf86f906930002d7ea4837001b600bfa99f8c112a58d035c",
      "scriptpubkey_type": "v1_p2tr",
      "scriptpubkey_address": "bc1pml9se5rfkl0v90uxlyrfxqqz6l4ysdcqrdsqh75elrq39fvdqdwq9wrvsn",
      "value": 546
    }
  ],
  "size": 487,
  "weight": 769,
  "fee": 2316,
  "status": {
    "confirmed": true,
    "block_height": 834460,
    "block_hash": "00000000000000000000484a79b643b2524bbce82e5d8a442013fa5b8905ed98",
    "block_time": 1710307468
  },
  "hex": "02000000000101c5475f3eda1586512282a015fcef33bd8a21886f819d82b91ed08439286d845f1500000000ffffffff012202000000000000225120dfcb0cd069b7dec2bf86f906930002d7ea4837001b600bfa99f8c112a58d035c03407287402fa95dfcdf285aa0add69208ef0da42b60632358ad09d6b3700ad10b8eb00edb4527e3974be80741596fa92417b9dfec5b1316b25dfdac083c76d308b9fd2001202c14b8e3fca06c1d2f29d42388f1201c41226f62786242d0df7e165e196d5fa8ac0063036f726401011e6170706c69636174696f6e2f6a736f6e3b636861727365743d7574662d38004cd37b2270223a22706f772d3230222c226f70223a226d696e74222c227469636b223a2250455045222c22616d74223a2231303030222c22736f6c7574696f6e223a22504550453a626331706d6c3973653572666b6c3076393075786c7972667871717a366c34797364637172647371683735656c727133396676647164777139777276736e3a303030303030303030303030303030303030303139393431613561653132383937363539383134343239323533333030353762306461393666336465613163353a3531333531353338333730227d6821c03beca27a4fc825f712a8ee0e92a93b2e9ce7496e1e1c5bfb1b103e51f3be77b500000000"
}