{
  "txid": "a0358a77ed6b05eec6b337f5b71e11d1f7bbac5b40898260794b6cc224310d91",
  "version": 2,
  "locktime": 0,
  "vin": [
    {
      "txid": "ebae7fd743805f3d838d84ee13243bec5348d0f43d74cdc54c7440ecacd9e4c7",
      "vout": 3,
      "prevout": {
        "scriptpubkey": "51202d071a3b480cd9b47db94593e4592074b81d5edaec2e007722cfb1058d63912e",
        "scriptpubkey_asm": "OP_PUSHNUM_1 OP_PUSHBYTES_32 2d071a3b480cd9b47db94593e4592074b81d5edaec2e007722cfb1058d63912e",
        "scriptpubkey_type": "v1_p2tr",
        "scriptpubkey_address": "bc1p95r35w6gpnvmgldegkf7gkfqwjup6hk6ashqqaeze7cstrtrjyhqnjkr68",
        "value": 475471
      },
      "scriptsig": "",
      "scriptsig_asm": "",
      "witness": [
        "da18043c2025e76ebbeb8d75fa619902abe7d2cd31571c742184a760709d92dd0526c49e282429532b9e10c3b0249423a921d67ef3947b7f70bc5ab94079fb23"
      ],
      "is_coinbase": false,
      "sequence": 4294967295
    },
    {
      "txid": "623802e10930023f7f16d7d519f088e6fcf2dffe721b6d10b73a4d6d831a2f1b",
      "vout": 0,
      "prevout": {
        "scriptpubkey": "5120a1244074a2149fefdc0e72e3768d7825168597a8cdd1ece1f7e8af6933e943cf",
        "scriptpubkey_asm": "OP_PUSHNUM_1 OP_PUSHBYTES_32 a1244074a2149fefdc0e72e3768d7825168597a8cdd1ece1f7e8af6933e943cf",
        "scriptpubkey_type": "v1_p2tr",
        "scriptpubkey_address": "bc1p5yjyqa9zzj07lhqwwt3hdrtcy5tgt9agehg7ec0hazhkjvlfg08sln0ar5",
        "value": 100000
      },
      "scriptsig": "",
      "scriptsig_asm": "",
      "witness": [
        "73a9b0e927bc58689e2560da1022e932ecc3b4cfc319e8a61a1124f03eed4d5080bce3121ca2e424bf2d344e8f254e3c1140979e677c87681b5578c418f73dc683"
      ],
      "is_coinbase": false,
      "sequence": 4294967295
    }
  ],
  "vout": [
    {
      "scriptpubkey": "51202d071a3b480cd9b47db94593e4592074b81d5edaec2e007722cfb1058d63912e",
      "scriptpubkey_asm": "OP_PUSHNUM_1 OP_PUSHBYTES_32 2d071a3b480cd9b47db94593e4592074b81d5edaec2e007722cfb1058d63912e",
      "scriptpubkey_type": "v1_p2tr",
      "scriptpubkey_address": "bc1p95r35w6gpnvmgldegkf7gkfqwjup6hk6ashqqaeze7cstrtrjyhqnjkr68",
      "value": 100000
    },
    {
      "scriptpubkey": "76a91438fc9d6ea93d98406949edd8c7f2c2582fbbf2e888ac",
      "scriptpubkey_asm": "OP_DUP OP_HASH160 OP_PUSHBYTES_20 38fc9d6ea93d98406949edd8c7f2c2582fbbf2e8 OP_EQUALVERIFY OP_CHECKSIG",
      "scriptpubkey_type": "p2pkh",
      "scriptpubkey_address": "16CKTjpgfGXvZAXGyzQwuCv8PUJTGqxmmF",
      "value": 101000
    },
    {
      "scriptpubkey": "0014e5cb2de82fd4c136218c67a310fde879344c1bef",
      "scriptpubkey_asm": "OP_0 OP_PUSHBYTES_20 e5cb2de82fd4c136218c67a310fde879344c1bef",
      "scriptpubkey_type": "v0_p2wpkh",
      "scriptpubkey_address": "bc1quh9jm6p06nqnvgvvv733pl0g0y6ycxl0aas2t4",
      "value": 2020
    },
    {
      "scriptpubkey": "51202d071a3b480cd9b47db94593e4592074b81d5edaec2e007722cfb1058d63912e",
      "scriptpubkey_asm": "OP_PUSHNUM_1 OP_PUSHBYTES_32 2d071a3b480cd9b47db94593e4592074b81d5edaec2e007722cfb1058d63912e",
      "scriptpubkey_type": "v1_p2tr",
      "scriptpubkey_address": "bc1p95r35w6gpnvmgldegkf7gkfqwjup6hk6ashqqaeze7cstrtrjyhqnjkr68",
      "value": 368213
    }
  ],
  "size": 378,
  "weight": 1107,
  "fee": 4238,
  "status": {
    "confirmed": true,
    "block_height": 834460,
    "block_hash": "00000000000000000000484a79b643b2524bbce82e5d8a442013fa5b8905ed98",
    "block_time": 1710307468
  },
  "hex": "02000000000102c7e4d9acec40744cc5cd743df4d04853ec3b2413ee848d833d5f8043d77faeeb0300000000ffffffff1b2f1a836d4d3ab7106d1b72fedff2fce688f019d5d7167f3f023009e10238620000000000ffffffff04a0860100000000002251202d071a3b480cd9b47db94593e4592074b81d5edaec2e007722cfb1058d63912e888a0100000000001976a91438fc9d6ea93d98406949edd8c7f2c2582fbbf2e888ace407000000000000160014e5cb2de82fd4c136218c67a310fde879344c1bef559e0500000000002251202d071a3b480cd9b47db94593e4592074b81d5edaec2e007722cfb1058d63912e0140da18043c2025e76ebbeb8d75fa619902abe7d2cd31571c742184a760709d92dd0526c49e282429532b9e10c3b0249423a921d67ef3947b7f70bc5ab94079fb23014173a9b0e927bc58689e2560da1022e932ecc3b4cfc319e8a61a1124f03eed4d5080bce3121ca2e424bf2d344e8f254e3c1140979e677c87681b5578c418f73dc68300000000"
}