{
  "txid": "a036abe679e73ec4184a6b8bf7e4c3760d6878eda59b36a60f3e09ef13c50e60",
  "version": 2,
  "locktime": 0,
  "vin": [
    {
      "txid": "2ed989448372bb155f1fa6c3e0e5f2437b5f0330a63bb74ef9c4a304334ad7ef",
      "vout": 14,
      "prevout": {
        "scriptpubkey": "5120a2523108841d1782743c7141286ace4fc42539629e0d3d617a364155ae5957d7",
        "scriptpubkey_asm": "OP_PUSHNUM_1 OP_PUSHBYTES_32 a2523108841d1782743c7141286ace4fc42539629e0d3d617a364155ae5957d7",
        "scriptpubkey_type": "v1_p2tr",
        "scriptpubkey_address": "bc1p5ffrzzyyr5tcyapuw9qjs6kwflzz2wtzncxn6ct6xeq4ttje2lts7cqlwj",
        "value": 600
      },
      "scriptsig": "",
      "scriptsig_asm": "",
      "witness": [
        "ee10a99772158be9824a9253015a192e6dbe29b75e7b30ed4453444dca87be387a196f8ea987c401489e3e0206dc22e0ee44d4b6a9ba62a2ae77cc293325b88501"
      ],
      "is_coinbase": false,
      "sequence": 4294967295
    },
    {
      "txid": "2ed989448372bb155f1fa6c3e0e5f2437b5f0330a63bb74ef9c4a304334ad7ef",
      "vout": 15,
      "prevout": {
        "scriptpubkey": "5120a2523108841d1782743c7141286ace4fc42539629e0d3d617a364155ae5957d7",
        "scriptpubkey_asm": "OP_PUSHNUM_1 OP_PUSHBYTES_32 a2523108841d1782743c7141286ace4fc42539629e0d3d617a364155ae5957d7",
        "scriptpubkey_type": "v1_p2tr",
        "scriptpubkey_address": "bc1p5ffrzzyyr5tcyapuw9qjs6kwflzz2wtzncxn6ct6xeq4ttje2lts7cqlwj",
        "value": 600
      },
      "scriptsig": "",
      "scriptsig_asm": "",
      "witness": [
        "95b72bb23c95c724f0442f724804cb835711a9e9434942dcfbc2740f3050fca1c180e3c0ff49e11491f411b3d459bfa919baff2985d288fe30f1abc02ffdfc2e01"
      ],
      "is_coinbase": false,
      "sequence": 4294967295
    },
    {
      "txid": "2ed989448372bb155f1fa6c3e0e5f2437b5f0330a63bb74ef9c4a304334ad7ef",
      "vout": 16,
      "prevout": {
        "scriptpubkey": "5120a2523108841d1782743c7141286ace4fc42539629e0d3d617a364155ae5957d7",
        "scriptpubkey_asm": "OP_PUSHNUM_1 OP_PUSHBYTES_32 a2523108841d1782743c7141286ace4fc42539629e0d3d617a364155ae5957d7",
        "scriptpubkey_type": "v1_p2tr",
        "scriptpubkey_address": "bc1p5ffrzzyyr5tcyapuw9qjs6kwflzz2wtzncxn6ct6xeq4ttje2lts7cqlwj",
        "value": 600
      },
      "scriptsig": "",
      "scriptsig_asm": "",
      "witness": [
        "3e2b3acce79475e3ce8fad3ab18199e98a98d1e997dfa5afd862655f7d5d858f2e729defe012ae0ada66b7508f41e130baadf620480b6e36b6a2b60923a6614601"
      ],
      "is_coinbase": false,
      "sequence": 4294967295
    },
    {
      "txid": "2ed989448372bb155f1fa6c3e0e5f2437b5f0330a63bb74ef9c4a304334ad7ef",
      "vout": 17,
      "prevout": {
        "scriptpubkey": "5120a2523108841d1782743c7141286ace4fc42539629e0d3d617a364155ae5957d7",
        "scriptpubkey_asm": "OP_PUSHNUM_1 OP_PUSHBYTES_32 a2523108841d1782743c7141286ace4fc42539629e0d3d617a364155ae5957d7",
        "scriptpubkey_type": "v1_p2tr",
        "scriptpubkey_address": "bc1p5ffrzzyyr5tcyapuw9qjs6kwflzz2wtzncxn6ct6xeq4ttje2lts7cqlwj",
        "value": 600
      },
      "scriptsig": "",
      "scriptsig_asm": "",
      "witness": [
        "3283495f705c13bea7dd1b02780a309ad967ceca4d89aa0df7b3c6f27541a55e885e7bd2cfdc9dea459ae59d15d75499933f35bcf2a0ade37cb44cd67374e6b801"
      ],
      "is_coinbase": false,
      "sequence": 4294967295
    },
    {
      "txid": "2ed989448372bb155f1fa6c3e0e5f2437b5f0330a63bb74ef9c4a304334ad7ef",
      "vout": 13,
      "prevout": {
        "scriptpubkey": "5120a2523108841d1782743c7141286ace4fc42539629e0d3d617a364155ae5957d7",
        "scriptpubkey_asm": "OP_PUSHNUM_1 OP_PUSHBYTES_32 a2523108841d1782743c7141286ace4fc42539629e0d3d617a364155ae5957d7",
        "scriptpubkey_type": "v1_p2tr",
        "scriptpubkey_address": "bc1p5ffrzzyyr5tcyapuw9qjs6kwflzz2wtzncxn6ct6xeq4ttje2lts7cqlwj",
        "value": 600
      },
      "scriptsig": "",
      "scriptsig_asm": "",
      "witness": [
        "a68fe2255dab15157158f6455252750cd29a75a6e07d6862829b6bf41a04009f8b1f1d618a0c7ceacda1e1035dd708f99e5a29b83f9a8c654966430795176a4a01"
      ],
      "is_coinbase": false,
      "sequence": 4294967295
    },
    {
      "txid": "2ed989448372bb155f1fa6c3e0e5f2437b5f0330a63bb74ef9c4a304334ad7ef",
      "vout": 19,
      "prevout": {
        "scriptpubkey": "5120a2523108841d1782743c7141286ace4fc42539629e0d3d617a364155ae5957d7",
        "scriptpubkey_asm": "OP_PUSHNUM_1 OP_PUSHBYTES_32 a2523108841d1782743c7141286ace4fc42539629e0d3d617a364155ae5957d7",
        "scriptpubkey_type": "v1_p2tr",
        "scriptpubkey_address": "bc1p5ffrzzyyr5tcyapuw9qjs6kwflzz2wtzncxn6ct6xeq4ttje2lts7cqlwj",
        "value": 600
      },
      "scriptsig": "",
      "scriptsig_asm": "",
      "witness": [
        "41dddfd6b0a53916b89e7226f8a9e1ac398879b6197a39561f9f4ebc5191bb14c54a9152aaab360891996f345b218c740b96404767ddfdf11df6d1e62cad274901"
      ],
      "is_coinbase": false,
      "sequence": 4294967295
    },
    {
      "txid": "2ed989448372bb155f1fa6c3e0e5f2437b5f0330a63bb74ef9c4a304334ad7ef",
      "vout": 18,
      "prevout": {
        "scriptpubkey": "5120a2523108841d1782743c7141286ace4fc42539629e0d3d617a364155ae5957d7",
        "scriptpubkey_asm": "OP_PUSHNUM_1 OP_PUSHBYTES_32 a2523108841d1782743c7141286ace4fc42539629e0d3d617a364155ae5957d7",
        "scriptpubkey_type": "v1_p2tr",
        "scriptpubkey_address": "bc1p5ffrzzyyr5tcyapuw9qjs6kwflzz2wtzncxn6ct6xeq4ttje2lts7cqlwj",
        "value": 600
      },
      "scriptsig": "",
      "scriptsig_asm": "",
      "witness": [
        "e1959451ecfdc57fbafc5808268ab2009e78a06e143be0e04032d086b3756759dc4a5b1dd5044674b357e9e1e37514768a3806049db8c3655a4c1d96be6689d601"
      ],
      "is_coinbase": false,
      "sequence": 4294967295
    },
    {
      "txid": "64c7d375c5a6f5f3ea7000dc7bbff93fc4c1a92504d8fd89d82ecd913999b2dd",
      "vout": 1,
      "prevout": {
        "scriptpubkey": "51208b12e9fb93cf423826186b72146dee65d31c3c160e6f88426e65105f5566b382",
        "scriptpubkey_asm": "OP_PUSHNUM_1 OP_PUSHBYTES_32 8b12e9fb93cf423826186b72146dee65d31c3c160e6f88426e65105f5566b382",
        "scriptpubkey_type": "v1_p2tr",
        "scriptpubkey_address": "bc1p3vfwn7uneaprsfscddepgm0wvhf3c0qkpehcssnwv5g974txkwpqpa5ywe",
        "value": 546
      },
      "scriptsig": "",
      "scriptsig_asm": "",
      "witness": [
        "0faacda548758398e0f511b09fbd8ac10dd312aed74f872a65d5ae56f2272e892b359288cc79c512d480d961c5156653f0486b300f03a35b318ba5a573a6bd2683"
      ],
      "is_coinbase": false,
      "sequence": 4294967295
    },
    {
      "txid": "13338e5c63350ec42601a1cf330c96693b39a5a4fcb18fdb28adca7c1973094f",
      "vout": 0,
      "prevout": {
        "scriptpubkey": "51208b12e9fb93cf423826186b72146dee65d31c3c160e6f88426e65105f5566b382",
        "scriptpubkey_asm": "OP_PUSHNUM_1 OP_PUSHBYTES_32 8b12e9fb93cf423826186b72146dee65d31c3c160e6f88426e65105f5566b382",
        "scriptpubkey_type": "v1_p2tr",
        "scriptpubkey_address": "bc1p3vfwn7uneaprsfscddepgm0wvhf3c0qkpehcssnwv5g974txkwpqpa5ywe",
        "value": 546
      },
      "scriptsig": "",
      "scriptsig_asm": "",
      "witness": [
        "5eed466e8a025f8e70a832f3ff93b3c241b3a17e9ab08db6540430de8d2fe7b5c8ef7dab9116e29b8c2a1cdb2244ab952811a23dba2fd1881374886e7d70724883"
      ],
      "is_coinbase": false,
      "sequence": 4294967295
    },
    {
      "txid": "a3c5473ca8f6dbbd185319276e88f395124a633d511f34d29cf12d87a618fd95",
      "vout": 0,
      "prevout": {
        "scriptpubkey": "51208b12e9fb93cf423826186b72146dee65d31c3c160e6f88426e65105f5566b382",
        "scriptpubkey_asm": "OP_PUSHNUM_1 OP_PUSHBYTES_32 8b12e9fb93cf423826186b72146dee65d31c3c160e6f88426e65105f5566b382",
        "scriptpubkey_type": "v1_p2tr",
        "scriptpubkey_address": "bc1p3vfwn7uneaprsfscddepgm0wvhf3c0qkpehcssnwv5g974txkwpqpa5ywe",
        "value": 546
      },
      "scriptsig": "",
      "scriptsig_asm": "",
      "witness": [
        "dc25c293174ffe82c35ec00574ad1a3dcacf875e231a33643a1aeaac44275accde87504064caea1263d8f2aa52e23904c9613c4cc5d8746215716ce1ed4503da83"
      ],
      "is_coinbase": false,
      "sequence": 4294967295
    },
    {
      "txid": "b3e651c5464788d750f5f2f4be12f51313342afd5d423bdf8bdff9f03b0edaaa",
      "vout": 8,
      "prevout": {
        "scriptpubkey": "51203c8443c6f2c2f0844cf6165c63cf8242b78a50bdf2003cc70f74bde891990479",
        "scriptpubkey_asm": "OP_PUSHNUM_1 OP_PUSHBYTES_32 3c8443c6f2c2f0844cf6165c63cf8242b78a50bdf2003cc70f74bde891990479",
        "scriptpubkey_type": "v1_p2tr",
        "scriptpubkey_address": "bc1p8jzy83hjctcggn8kzewx8nuzg2mc559a7gqre3c0wj773yveq3usd382c4",
        "value": 546
      },
      "scriptsig": "",
      "scriptsig_asm": "",
      "witness": [
        "6305c8ef8114dea92e5368dc756c6db1a0035916879b12f13cdc712889e9735b06170a3684a250621a1cc14169ca5f03a6e5bc91de9518bc50adf528905faaa883"
      ],
      "is_coinbase": false,
      "sequence": 4294967295
    },
    {
      "txid": "52044bd9c7e33e3c4500b4de04a25a51110a7d2cd06f0f87b44ac69e21f0308d",
      "vout": 1,
      "prevout": {
        "scriptpubkey": "5120fe2056e0e3d24a8fd399a02406f5657414e7def57df8467148b756c7e207ded4",
        "scriptpubkey_asm": "OP_PUSHNUM_1 OP_PUSHBYTES_32 fe2056e0e3d24a8fd399a02406f5657414e7def57df8467148b756c7e207ded4",
        "scriptpubkey_type": "v1_p2tr",
        "scriptpubkey_address": "bc1plcs9dc8r6f9gl5ue5qjqdat9ws2w0hh40huyvu2gkatv0cs8mm2q92csrk",
        "value": 546
      },
      "scriptsig": "",
      "scriptsig_asm": "",
      "witness": [
        "75ce0f0c08c003f0aee27f88c6c86d6aa90f1bed45403ee9c1bc403139e1c10a695197e337c70ebde82a3a0771f602e7afebe2de5c40268473ad986ee55e2b5183"
      ],
      "is_coinbase": false,
      "sequence": 4294967295
    },
    {
      "txid": "f1a42381df57ed60fc848859f76af59f0da66cc6528d5fb6488740d29c251b4a",
      "vout": 1,
      "prevout": {
        "scriptpubkey": "5120fe2056e0e3d24a8fd399a02406f5657414e7def57df8467148b756c7e207ded4",
        "scriptpubkey_asm": "OP_PUSHNUM_1 OP_PUSHBYTES_32 fe2056e0e3d24a8fd399a02406f5657414e7def57df8467148b756c7e207ded4",
        "scriptpubkey_type": "v1_p2tr",
        "scriptpubkey_address": "bc1plcs9dc8r6f9gl5ue5qjqdat9ws2w0hh40huyvu2gkatv0cs8mm2q92csrk",
        "value": 546
      },
      "scriptsig": "",
      "scriptsig_asm": "",
      "witness": [
        "07b4496a5af61d8a264e70ef0b44810dd9bc30442101307bdee29f81a892836d0ada035a281a87353e7e706d72ac0d806d4fd2ca9a321175ecc246274b23b59683"
      ],
      "is_coinbase": false,
      "sequence": 4294967295
    },
    {
      "txid": "2ed989448372bb155f1fa6c3e0e5f2437b5f0330a63bb74ef9c4a304334ad7ef",
      "vout": 20,
      "prevout": {
        "scriptpubkey": "5120a2523108841d1782743c7141286ace4fc42539629e0d3d617a364155ae5957d7",
        "scriptpubkey_asm": "OP_PUSHNUM_1 OP_PUSHBYTES_32 a2523108841d1782743c7141286ace4fc42539629e0d3d617a364155ae5957d7",
        "scriptpubkey_type": "v1_p2tr",
        "scriptpubkey_address": "bc1p5ffrzzyyr5tcyapuw9qjs6kwflzz2wtzncxn6ct6xeq4ttje2lts7cqlwj",
        "value": 6743580
      },
      "scriptsig": "",
      "scriptsig_asm": "",
      "witness": [
        "5bdd38a5dbe4c89e9b424a45f2417597bc36baa0f4ae9cf49309a1144cca0f262a0af99e5f3508f6545f1e6429c64c92ea146c9ec320240e36008547fb737bb201"
      ],
      "is_coinbase": false,
      "sequence": 4294967295
    }
  ],
  "vout": [
    {
      "scriptpubkey": "5120a2523108841d1782743c7141286ace4fc42539629e0d3d617a364155ae5957d7",
      "scriptpubkey_asm": "OP_PUSHNUM_1 OP_PUSHBYTES_32 a2523108841d1782743c7141286ace4fc42539629e0d3d617a364155ae5957d7",
      "scriptpubkey_type": "v1_p2tr",
      "scriptpubkey_address": "bc1p5ffrzzyyr5tcyapuw9qjs6kwflzz2wtzncxn6ct6xeq4ttje2lts7cqlwj",
      "value": 4200
    },
    {
      "scriptpubkey": "5120a2523108841d1782743c7141286ace4fc42539629e0d3d617a364155ae5957d7",
      "scriptpubkey_asm": "OP_PUSHNUM_1 OP_PUSHBYTES_32 a2523108841d1782743c7141286ace4fc42539629e0d3d617a364155ae5957d7",
      "scriptpubkey_type": "v1_p2tr",
      "scriptpubkey_address": "bc1p5ffrzzyyr5tcyapuw9qjs6kwflzz2wtzncxn6ct6xeq4ttje2lts7cqlwj",
      "value": 546
    },
    {
      "scriptpubkey": "5120a2523108841d1782743c7141286ace4fc42539629e0d3d617a364155ae5957d7",
      "scriptpubkey_asm": "OP_PUSHNUM_1 OP_PUSHBYTES_32 a2523108841d1782743c7141286ace4fc42539629e0d3d617a364155ae5957d7",
      "scriptpubkey_type": "v1_p2tr",
      "scriptpubkey_address": "bc1p5ffrzzyyr5tcyapuw9qjs6kwflzz2wtzncxn6ct6xeq4ttje2lts7cqlwj",
      "value": 546
    },
    {
      "scriptpubkey": "5120a2523108841d1782743c7141286ace4fc42539629e0d3d617a364155ae5957d7",
      "scriptpubkey_asm": "OP_PUSHNUM_1 OP_PUSHBYTES_32 a2523108841d1782743c7141286ace4fc42539629e0d3d617a364155ae5957d7",
      "scriptpubkey_type": "v1_p2tr",
      "scriptpubkey_address": "bc1p5ffrzzyyr5tcyapuw9qjs6kwflzz2wtzncxn6ct6xeq4ttje2lts7cqlwj",
      "value": 546
    },
    {
      "scriptpubkey": "5120a2523108841d1782743c7141286ace4fc42539629e0d3d617a364155ae5957d7",
      "scriptpubkey_asm": "OP_PUSHNUM_1 OP_PUSHBYTES_32 a2523108841d1782743c7141286ace4fc42539629e0d3d617a364155ae5957d7",
      "scriptpubkey_type": "v1_p2tr",
      "scriptpubkey_address": "bc1p5ffrzzyyr5tcyapuw9qjs6kwflzz2wtzncxn6ct6xeq4ttje2lts7cqlwj",
      "value": 546
    },
    {
      "scriptpubkey": "5120a2523108841d1782743c7141286ace4fc42539629e0d3d617a364155ae5957d7",
      "scriptpubkey_asm": "OP_PUSHNUM_1 OP_PUSHBYTES_32 a2523108841d1782743c7141286ace4fc42539629e0d3d617a364155ae5957d7",
      "scriptpubkey_type": "v1_p2tr",
      "scriptpubkey_address": "bc1p5ffrzzyyr5tcyapuw9qjs6kwflzz2wtzncxn6ct6xeq4ttje2lts7cqlwj",
      "value": 546
    },
    {
      "scriptpubkey": "5120a2523108841d1782743c7141286ace4fc42539629e0d3d617a364155ae5957d7",
      "scriptpubkey_asm": "OP_PUSHNUM_1 OP_PUSHBYTES_32 a2523108841d1782743c7141286ace4fc42539629e0d3d617a364155ae5957d7",
      "scriptpubkey_type": "v1_p2tr",
      "scriptpubkey_address": "bc1p5ffrzzyyr5tcyapuw9qjs6kwflzz2wtzncxn6ct6xeq4ttje2lts7cqlwj",
      "value": 546
    },
    {
      "scriptpubkey": "51208b12e9fb93cf423826186b72146dee65d31c3c160e6f88426e65105f5566b382",
      "scriptpubkey_asm": "OP_PUSHNUM_1 OP_PUSHBYTES_32 8b12e9fb93cf423826186b72146dee65d31c3c160e6f88426e65105f5566b382",
      "scriptpubkey_type": "v1_p2tr",
      "scriptpubkey_address": "bc1p3vfwn7uneaprsfscddepgm0wvhf3c0qkpehcssnwv5g974txkwpqpa5ywe",
      "value": 349000
    },
    {
      "scriptpubkey": "51208b12e9fb93cf423826186b72146dee65d31c3c160e6f88426e65105f5566b382",
      "scriptpubkey_asm": "OP_PUSHNUM_1 OP_PUSHBYTES_32 8b12e9fb93cf423826186b72146dee65d31c3c160e6f88426e65105f5566b382",
      "scriptpubkey_type": "v1_p2tr",
      "scriptpubkey_address": "bc1p3vfwn7uneaprsfscddepgm0wvhf3c0qkpehcssnwv5g974txkwpqpa5ywe",
      "value": 349000
    },
    {
      "scriptpubkey": "51208b12e9fb93cf423826186b72146dee65d31c3c160e6f88426e65105f5566b382",
      "scriptpubkey_asm": "OP_PUSHNUM_1 OP_PUSHBYTES_32 8b12e9fb93cf423826186b72146dee65d31c3c160e6f88426e65105f5566b382",
      "scriptpubkey_type": "v1_p2tr",
      "scriptpubkey_address": "bc1p3vfwn7uneaprsfscddepgm0wvhf3c0qkpehcssnwv5g974txkwpqpa5ywe",
      "value": 349000
    },
    {
      "scriptpubkey": "51203c8443c6f2c2f0844cf6165c63cf8242b78a50bdf2003cc70f74bde891990479",
      "scriptpubkey_asm": "OP_PUSHNUM_1 OP_PUSHBYTES_32 3c8443c6f2c2f0844cf6165c63cf8242b78a50bdf2003cc70f74bde891990479",
      "scriptpubkey_type": "v1_p2tr",
      "scriptpubkey_address": "bc1p8jzy83hjctcggn8kzewx8nuzg2mc559a7gqre3c0wj773yveq3usd382c4",
      "value": 351000
    },
    {
      "scriptpubkey": "5120fe2056e0e3d24a8fd399a02406f5657414e7def57df8467148b756c7e207ded4",
      "scriptpubkey_asm": "OP_PUSHNUM_1 OP_PUSHBYTES_32 fe2056e0e3d24a8fd399a02406f5657414e7def57df8467148b756c7e207ded4",
      "scriptpubkey_type": "v1_p2tr",
      "scriptpubkey_address": "bc1plcs9dc8r6f9gl5ue5qjqdat9ws2w0hh40huyvu2gkatv0cs8mm2q92csrk",
      "value": 352000
    },
    {
      "scriptpubkey": "5120fe2056e0e3d24a8fd399a02406f5657414e7def57df8467148b756c7e207ded4",
      "scriptpubkey_asm": "OP_PUSHNUM_1 OP_PUSHBYTES_32 fe2056e0e3d24a8fd399a02406f5657414e7def57df8467148b756c7e207ded4",
      "scriptpubkey_type": "v1_p2tr",
      "scriptpubkey_address": "bc1plcs9dc8r6f9gl5ue5qjqdat9ws2w0hh40huyvu2gkatv0cs8mm2q92csrk",
      "value": 352000
    },
    {
      "scriptpubkey": "5120a2523108841d1782743c7141286ace4fc42539629e0d3d617a364155ae5957d7",
      "scriptpubkey_asm": "OP_PUSHNUM_1 OP_PUSHBYTES_32 a2523108841d1782743c7141286ace4fc42539629e0d3d617a364155ae5957d7",
      "scriptpubkey_type": "v1_p2tr",
      "scriptpubkey_address": "bc1p5ffrzzyyr5tcyapuw9qjs6kwflzz2wtzncxn6ct6xeq4ttje2lts7cqlwj",
      "value": 600
    },
    {
      "scriptpubkey": "5120a2523108841d1782743c7141286ace4fc42539629e0d3d617a364155ae5957d7",
      "scriptpubkey_asm": "OP_PUSHNUM_1 OP_PUSHBYTES_32 a2523108841d1782743c7141286ace4fc42539629e0d3d617a364155ae5957d7",
      "scriptpubkey_type": "v1_p2tr",
      "scriptpubkey_address": "bc1p5ffrzzyyr5tcyapuw9qjs6kwflzz2wtzncxn6ct6xeq4ttje2lts7cqlwj",
      "value": 600
    },
    {
      "scriptpubkey": "5120a2523108841d1782743c7141286ace4fc42539629e0d3d617a364155ae5957d7",
      "scriptpubkey_asm": "OP_PUSHNUM_1 OP_PUSHBYTES_32 a2523108841d1782743c7141286ace4fc42539629e0d3d617a364155ae5957d7",
      "scriptpubkey_type": "v1_p2tr",
      "scriptpubkey_address": "bc1p5ffrzzyyr5tcyapuw9qjs6kwflzz2wtzncxn6ct6xeq4ttje2lts7cqlwj",
      "value": 600
    },
    {
      "scriptpubkey": "5120a2523108841d1782743c7141286ace4fc42539629e0d3d617a364155ae5957d7",
      "scriptpubkey_asm": "OP_PUSHNUM_1 OP_PUSHBYTES_32 a2523108841d1782743c7141286ace4fc42539629e0d3d617a364155ae5957d7",
      "scriptpubkey_type": "v1_p2tr",
      "scriptpubkey_address": "bc1p5ffrzzyyr5tcyapuw9qjs6kwflzz2wtzncxn6ct6xeq4ttje2lts7cqlwj",
      "value": 600
    },
    {
      "scriptpubkey": "5120a2523108841d1782743c7141286ace4fc42539629e0d3d617a364155ae5957d7",
      "scriptpubkey_asm": "OP_PUSHNUM_1 OP_PUSHBYTES_32 a2523108841d1782743c7141286ace4fc42539629e0d3d617a364155ae5957d7",
      "scriptpubkey_type": "v1_p2tr",
      "scriptpubkey_address": "bc1p5ffrzzyyr5tcyapuw9qjs6kwflzz2wtzncxn6ct6xeq4ttje2lts7cqlwj",
      "value": 600
    },
    {
      "scriptpubkey": "5120a2523108841d1782743c7141286ace4fc42539629e0d3d617a364155ae5957d7",
      "scriptpubkey_asm": "OP_PUSHNUM_1 OP_PUSHBYTES_32 a2523108841d1782743c7141286ace4fc42539629e0d3d617a364155ae5957d7",
      "scriptpubkey_type": "v1_p2tr",
      "scriptpubkey_address": "bc1p5ffrzzyyr5tcyapuw9qjs6kwflzz2wtzncxn6ct6xeq4ttje2lts7cqlwj",
      "value": 600
    },
    {
      "scriptpubkey": "5120a2523108841d1782743c7141286ace4fc42539629e0d3d617a364155ae5957d7",
      "scriptpubkey_asm": "OP_PUSHNUM_1 OP_PUSHBYTES_32 a2523108841d1782743c7141286ace4fc42539629e0d3d617a364155ae5957d7",
      "scriptpubkey_type": "v1_p2tr",
      "scriptpubkey_address": "bc1p5ffrzzyyr5tcyapuw9qjs6kwflzz2wtzncxn6ct6xeq4ttje2lts7cqlwj",
      "value": 600
    },
    {
      "scriptpubkey": "5120a2523108841d1782743c7141286ace4fc42539629e0d3d617a364155ae5957d7",
      "scriptpubkey_asm": "OP_PUSHNUM_1 OP_PUSHBYTES_32 a2523108841d1782743c7141286ace4fc42539629e0d3d617a364155ae5957d7",
      "scriptpubkey_type": "v1_p2tr",
      "scriptpubkey_address": "bc1p5ffrzzyyr5tcyapuw9qjs6kwflzz2wtzncxn6ct6xeq4ttje2lts7cqlwj",
      "value": 4610884
    }
  ],
  "size": 2427,
  "weight": 6888,
  "fee": 26496,
  "status": {
    "confirmed": true,
    "block_height": 834638,
    "block_hash": "000000000000000000025f742c626208ac87e0b7d15054abb4a19ca2d735a54e",
    "block_time": 1710405325
  },
  "hex": "0200000000010eefd74a3304a3c4f94eb73ba630035f7b43f2e5e0c3a61f5f15bb72834489d92e0e00000000ffffffffefd74a3304a3c4f94eb73ba630035f7b43f2e5e0c3a61f5f15bb72834489d92e0f00000000ffffffffefd74a3304a3c4f94eb73ba630035f7b43f2e5e0c3a61f5f15bb72834489d92e1000000000ffffffffefd74a3304a3c4f94eb73ba630035f7b43f2e5e0c3a61f5f15bb72834489d92e1100000000ffffffffefd74a3304a3c4f94eb73ba630035f7b43f2e5e0c3a61f5f15bb72834489d92e0d00000000ffffffffefd74a3304a3c4f94eb73ba630035f7b43f2e5e0c3a61f5f15bb72834489d92e1300000000ffffffffefd74a3304a3c4f94eb73ba630035f7b43f2e5e0c3a61f5f15bb72834489d92e1200000000ffffffffddb2993991cd2ed889fdd80425a9c1c43ff9bf7bdc0070eaf3f5a6c575d3c7640100000000ffffffff4f0973197ccaad28db8fb1fca4a5393b69960c33cfa10126c40e35635c8e33130000000000ffffffff95fd18a6872df19cd2341f513d634a1295f3886e27195318bddbf6a83c47c5a30000000000ffffffffaada0e3bf0f9df8bdf3b425dfd2a341313f512bef4f2f550d7884746c551e6b30800000000ffffffff8d30f0219ec64ab4870f6fd02c7d0a11515aa204deb400453c3ee3c7d94b04520100000000ffffffff4a1b259cd2408748b65f8d52c66ca60d9ff56af7598884fc60ed57df8123a4f10100000000ffffffffefd74a3304a3c4f94eb73ba630035f7b43f2e5e0c3a61f5f15bb72834489d92e1400000000ffffffff156810000000000000225120a2523108841d1782743c7141286ace4fc42539629e0d3d617a364155ae5957d72202000000000000225120a2523108841d1782743c7141286ace4fc42539629e0d3d617a364155ae5957d72202000000000000225120a2523108841d1782743c7141286ace4fc42539629e0d3d617a364155ae5957d72202000000000000225120a2523108841d1782743c7141286ace4fc42539629e0d3d617a364155ae5957d72202000000000000225120a2523108841d1782743c7141286ace4fc42539629e0d3d617a364155ae5957d72202000000000000225120a2523108841d1782743c7141286ace4fc42539629e0d3d617a364155ae5957d72202000000000000225120a2523108841d1782743c7141286ace4fc42539629e0d3d617a364155ae5957d748530500000000002251208b12e9fb93cf423826186b72146dee65d31c3c160e6f88426e65105f5566b38248530500000000002251208b12e9fb93cf423826186b72146dee65d31c3c160e6f88426e65105f5566b38248530500000000002251208b12e9fb93cf423826186b72146dee65d31c3c160e6f88426e65105f5566b382185b0500000000002251203c8443c6f2c2f0844cf6165c63cf8242b78a50bdf2003cc70f74bde891990479005f050000000000225120fe2056e0e3d24a8fd399a02406f5657414e7def57df8467148b756c7e207ded4005f050000000000225120fe2056e0e3d24a8fd399a02406f5657414e7def57df8467148b756c7e207ded45802000000000000225120a2523108841d1782743c7141286ace4fc42539629e0d3d617a364155ae5957d75802000000000000225120a2523108841d1782743c7141286ace4fc42539629e0d3d617a364155ae5957d75802000000000000225120a2523108841d1782743c7141286ace4fc42539629e0d3d617a364155ae5957d75802000000000000225120a2523108841d1782743c7141286ace4fc42539629e0d3d617a364155ae5957d75802000000000000225120a2523108841d1782743c7141286ace4fc42539629e0d3d617a364155ae5957d75802000000000000225120a2523108841d1782743c7141286ace4fc42539629e0d3d617a364155ae5957d75802000000000000225120a2523108841d1782743c7141286ace4fc42539629e0d3d617a364155ae5957d7445b460000000000225120a2523108841d1782743c7141286ace4fc42539629e0d3d617a364155ae5957d70141ee10a99772158be9824a9253015a192e6dbe29b75e7b30ed4453444dca87be387a196f8ea987c401489e3e0206dc22e0ee44d4b6a9ba62a2ae77cc293325b88501014195b72bb23c95c724f0442f724804cb835711a9e9434942dcfbc2740f3050fca1c180e3c0ff49e11491f411b3d459bfa919baff2985d288fe30f1abc02ffdfc2e0101413e2b3acce79475e3ce8fad3ab18199e98a98d1e997dfa5afd862655f7d5d858f2e729defe012ae0ada66b7508f41e130baadf620480b6e36b6a2b60923a661460101413283495f705c13bea7dd1b02780a309ad967ceca4d89aa0df7b3c6f27541a55e885e7bd2cfdc9dea459ae59d15d75499933f35bcf2a0ade37cb44cd67374e6b8010141a68fe2255dab15157158f6455252750cd29a75a6e07d6862829b6bf41a04009f8b1f1d618a0c7ceacda1e1035dd708f99e5a29b83f9a8c654966430795176a4a01014141dddfd6b0a53916b89e7226f8a9e1ac398879b6197a39561f9f4ebc5191bb14c54a9152aaab360891996f345b218c740b96404767ddfdf11df6d1e62cad2749010141e1959451ecfdc57fbafc5808268ab2009e78a06e143be0e04032d086b3756759dc4a5b1dd5044674b357e9e1e37514768a3806049db8c3655a4c1d96be6689d60101410faacda548758398e0f511b09fbd8ac10dd312aed74f872a65d5ae56f2272e892b359288cc79c512d480d961c5156653f0486b300f03a35b318ba5a573a6bd268301415eed466e8a025f8e70a832f3ff93b3c241b3a17e9ab08db6540430de8d2fe7b5c8ef7dab9116e29b8c2a1cdb2244ab952811a23dba2fd1881374886e7d707248830141dc25c293174ffe82c35ec00574ad1a3dcacf875e231a33643a1aeaac44275accde87504064caea1263d8f2aa52e23904c9613c4cc5d8746215716ce1ed4503da8301416305c8ef8114dea92e5368dc756c6db1a0035916879b12f13cdc712889e9735b06170a3684a250621a1cc14169ca5f03a6e5bc91de9518bc50adf528905faaa883014175ce0f0c08c003f0aee27f88c6c86d6aa90f1bed45403ee9c1bc403139e1c10a695197e337c70ebde82a3a0771f602e7afebe2de5c40268473ad986ee55e2b5183014107b4496a5af61d8a264e70ef0b44810dd9bc30442101307bdee29f81a892836d0ada035a281a87353e7e706d72ac0d806d4fd2ca9a321175ecc246274b23b5968301415bdd38a5dbe4c89e9b424a45f2417597bc36baa0f4ae9cf49309a1144cca0f262a0af99e5f3508f6545f1e6429c64c92ea146c9ec320240e36008547fb737bb20100000000"
}