{
  "txid": "a03904ea8531b30af884144712bfd7c7ec1d7ffd092aa81efe653fd9feebd99a",
  "version": 1,
  "locktime": 0,
  "vin": [
    {
      "txid": "b692c41d96b997156bbf148d9270a3f8e511cfb4f6424e263d0ea6eb46baba07",
      "vout": 1,
      "prevout": {
        "scriptpubkey": "0014e0e321d73daca477864b1ba08c0fa1d058f335a2",
        "scriptpubkey_asm": "OP_0 OP_PUSHBYTES_20 e0e321d73daca477864b1ba08c0fa1d058f335a2",
        "scriptpubkey_type": "v0_p2wpkh",
        "scriptpubkey_address": "bc1qur3jr4ea4jj80pjtrwsgcrap6pv0xddzfa38ve",
        "value": 86378
      },
      "scriptsig": "",
      "scriptsig_asm": "",
      "witness": [
        "304402206b4a176f3498270c4a8e48d80117c72114cc7a03f7eeddedf7fc3184b5eb48af0220411a9f71c2b9b51448b36a3b2714057d1b240fe8b1e06ca9ac5af3df09110d8201",
        "031b00b160acc8cbbbb9711cc324558620ba4808bf81ecbb392508f9d64217460e"
      ],
      "is_coinbase": false,
      "sequence": 4294967295
    }
  ],
  "vout": [
    {
      "scriptpubkey": "76a91498f04f607487234c8c3ca794d39ec6fd53379d9588ac",
      "scriptpubkey_asm": "OP_DUP OP_HASH160 OP_PUSHBYTES_20 98f04f607487234c8c3ca794d39ec6fd53379d95 OP_EQUALVERIFY OP_CHECKSIG",
      "scriptpubkey_type": "p2pkh",
      "scriptpubkey_address": "1EwfbCGcWmR1UopoAJgp5MdtSaMixDJdz4",
      "value": 81540
    },
    {
      "scriptpubkey": "0014fccddd838b3443ee56a790e06e9aa314c8446e8b",
      "scriptpubkey_asm": "OP_0 OP_PUSHBYTES_20 fccddd838b3443ee56a790e06e9aa314c8446e8b",
      "scriptpubkey_type": "v0_p2wpkh",
      "scriptpubkey_address": "bc1qlnxamqutx3p7u448jrsxax4rznyygm5teacf0q",
      "value": 2696
    }
  ],
  "size": 225,
  "weight": 573,
  "fee": 2142,
  "status": {
    "confirmed": true,
    "block_height": 834638,
    "block_hash": "000000000000000000025f742c626208ac87e0b7d15054abb4a19ca2d735a54e",
    "block_time": 1710405325
  },
  "hex": "0100000000010107baba46eba60e3d264e42f6b4cf11e5f8a370928d14bf6b1597b9961dc492b60100000000ffffffff02843e0100000000001976a91498f04f607487234c8c3ca794d39ec6fd53379d9588ac880a000000000000160014fccddd838b3443ee56a790e06e9aa314c8446e8b0247304402206b4a176f3498270c4a8e48d80117c72114cc7a03f7eeddedf7fc3184b5eb48af0220411a9f71c2b9b51448b36a3b2714057d1b240fe8b1e06ca9ac5af3df09110d820121031b00b160acc8cbbbb9711cc324558620ba4808bf81ecbb392508f9d64217460e00000000"
}