{
  "txid": "a06876e09cb6c2add17ac006b25b076131a359d28cc0672476db4b155a217cef",
  "version": 2,
  "locktime": 0,
  "vin": [
    {
      "txid": "14e2167695fd53b97ae50c0a70e65ac4ef7ad1480621c0c13d9d798945a5d5dc",
      "vout": 7,
      "prevout": {
        "scriptpubkey": "5120114df4e40e00908d26631a55031a8148ab967006a043a10e141174e562043103",
        "scriptpubkey_asm": "OP_PUSHNUM_1 OP_PUSHBYTES_32 114df4e40e00908d26631a55031a8148ab967006a043a10e141174e562043103",
        "scriptpubkey_type": "v1_p2tr",
        "scriptpubkey_address": "bc1pz9xlfeqwqzgg6fnrrf2sxx5pfz4evuqx5pp6zrs5z96w2csyxypsp82lp0",
        "value": 2850
      },
      "scriptsig": "",
      "scriptsig_asm": "",
      "witness": [
        "58e6a001be2b58f05ce8c2d5499dd0e7b166f063e45b63d95ed4ceec9a899c8837ac2daefd03b77fcb0b32ef0d9a1d7e70bfaaaaadf8f82490c93a436f32ca28",
        "2054f72d71147c8ec0f248a24dcb159b1d2082eaf3308016129d0873bed64aaa05ac0063036f726401011e6170706c69636174696f6e2f6a736f6e3b636861727365743d7574662d38004cd17b2270223a22706f772d3230222c226f70223a226d696e74222c227469636b223a2250455045222c22616d74223a2231303030222c22736f6c7574696f6e223a22504550453a62633170673935386e6b7a747678347271756e78676d747a6c35666e70666b633330776a323770777367396e6c706a786b796e64793671737376386c6b303a303030303030303030303030303030303030303139393431613561653132383937363539383134343239323533333030353762306461393666336465613163353a353432393430363735227d68",
        "c0631b34e489e80d4fba35164e5ad52a60d66865df7d7db84d2adbf53ec13ca2a1"
      ],
      "is_coinbase": false,
      "sequence": 4294967295
    }
  ],
  "vout": [
    {
      "scriptpubkey": "5120416879d84b61aa30726646d62fd1330a6d88bdd25782e820b3f8646b126d2681",
      "scriptpubkey_asm": "OP_PUSHNUM_1 OP_PUSHBYTES_32 416879d84b61aa30726646d62fd1330a6d88bdd25782e820b3f8646b126d2681",
      "scriptpubkey_type": "v1_p2tr",
      "scriptpubkey_address": "bc1pg958nkztvx4rqunxgmtzl5fnpfkc30wj27pwsg9nlpjxkyndy6qssv8lk0",
      "value": 546
    }
  ],
  "size": 485,
  "weight": 767,
  "fee": 2304,
  "status": {
    "confirmed": true,
    "block_height": 834460,
    "block_hash": "00000000000000000000484a79b643b2524bbce82e5d8a442013fa5b8905ed98",
    "block_time": 1710307468
  },
  "hex": "02000000000101dcd5a54589799d3dc1c0210648d17aefc45ae6700a0ce57ab953fd957616e2140700000000ffffffff012202000000000000225120416879d84b61aa30726646d62fd1330a6d88bdd25782e820b3f8646b126d2681034058e6a001be2b58f05ce8c2d5499dd0e7b166f063e45b63d95ed4ceec9a899c8837ac2daefd03b77fcb0b32ef0d9a1d7e70bfaaaaadf8f82490c93a436f32ca28fd1e012054f72d71147c8ec0f248a24dcb159b1d2082eaf3308016129d0873bed64aaa05ac0063036f726401011e6170706c69636174696f6e2f6a736f6e3b636861727365743d7574662d38004cd17b2270223a22706f772d3230222c226f70223a226d696e74222c227469636b223a2250455045222c22616d74223a2231303030222c22736f6c7574696f6e223a22504550453a62633170673935386e6b7a747678347271756e78676d747a6c35666e70666b633330776a323770777367396e6c706a786b796e64793671737376386c6b303a303030303030303030303030303030303030303139393431613561653132383937363539383134343239323533333030353762306461393666336465613163353a353432393430363735227d6821c0631b34e489e80d4fba35164e5ad52a60d66865df7d7db84d2adbf53ec13ca2a100000000"
}