{
  "txid": "a07e1e086f9d0e93ac6e98a5923d88d57414438481b9671cbfeade4dd1ebb531",
  "version": 1,
  "locktime": 0,
  "vin": [
    {
      "txid": "26bd04cc94553a0b9c8070856f3aadfc6ce3f1170447e3f2977ae7f21ba7721c",
      "vout": 0,
      "prevout": {
        "scriptpubkey": "0014087685a982059528280f2c4e4c8119dc69203fb4",
        "scriptpubkey_asm": "OP_0 OP_PUSHBYTES_20 087685a982059528280f2c4e4c8119dc69203fb4",
        "scriptpubkey_type": "v0_p2wpkh",
        "scriptpubkey_address": "bc1qppmgt2vzqk2js2q0938yeqgem35jq0a5sr88rl",
        "value": 196079
      },
      "scriptsig": "",
      "scriptsig_asm": "",
      "witness": [
        "30440220593352cb62286978b3904d0b0004bf76a3531dd5cfc3532a950ee7c4a00eea9202201991ae3b52c3d53df285e73a0a6cd6868e51901a598ddcc3343c6fdc9f8e9c7401",
        "03dad2e2cf27148b1860cda44d5fe95cba5f3fb4442ed6fa4d8ac21bd424d6b750"
      ],
      "is_coinbase": false,
      "sequence": 4294967295
    },
    {
      "txid": "64cdda1cbc793488ffa2972622e8909d03b33e4186593e79b9403ace92829ed7",
      "vout": 0,
      "prevout": {
        "scriptpubkey": "0014087685a982059528280f2c4e4c8119dc69203fb4",
        "scriptpubkey_asm": "OP_0 OP_PUSHBYTES_20 087685a982059528280f2c4e4c8119dc69203fb4",
        "scriptpubkey_type": "v0_p2wpkh",
        "scriptpubkey_address": "bc1qppmgt2vzqk2js2q0938yeqgem35jq0a5sr88rl",
        "value": 9067417
      },
      "scriptsig": "",
      "scriptsig_asm": "",
      "witness": [
        "30450221008d0c1ea3758434434a00c8d6fc901f1c1833cbbab8e4e5dda55beadb578e20ae022044b1c4cc0469d557a45e00781d0bef0279746067b22f0fcccdaf5da8a832275101",
        "03dad2e2cf27148b1860cda44d5fe95cba5f3fb4442ed6fa4d8ac21bd424d6b750"
      ],
      "is_coinbase": false,
      "sequence": 4294967295
    },
    {
      "txid": "4195bf75335bd7fcfc429d8828f1fc9ea751778ee5e9e9c652e1f58e3dacc480",
      "vout": 8,
      "prevout": {
        "scriptpubkey": "0014087685a982059528280f2c4e4c8119dc69203fb4",
        "scriptpubkey_asm": "OP_0 OP_PUSHBYTES_20 087685a982059528280f2c4e4c8119dc69203fb4",
        "scriptpubkey_type": "v0_p2wpkh",
        "scriptpubkey_address": "bc1qppmgt2vzqk2js2q0938yeqgem35jq0a5sr88rl",
        "value": 12635985
      },
      "scriptsig": "",
      "scriptsig_asm": "",
      "witness": [
        "304402201f4071272b856a4b43ff701d02a383439f2f398d17e3381494b73a4592dfe6e402203204f822f22b6f9b2205fd89bfc06cbeb496e39a44b48729c18921fc7a87e6bc01",
        "03dad2e2cf27148b1860cda44d5fe95cba5f3fb4442ed6fa4d8ac21bd424d6b750"
      ],
      "is_coinbase": false,
      "sequence": 4294967295
    }
  ],
  "vout": [
    {
      "scriptpubkey": "a914a1669b4686249ddd706578023d6f8a6a6685414587",
      "scriptpubkey_asm": "OP_HASH160 OP_PUSHBYTES_20 a1669b4686249ddd706578023d6f8a6a66854145 OP_EQUAL",
      "scriptpubkey_type": "p2sh",
      "scriptpubkey_address": "3GQRdf1chXywR9XqCqmwJaywbwRSSNbxkR",
      "value": 21800000
    },
    {
      "scriptpubkey": "0014087685a982059528280f2c4e4c8119dc69203fb4",
      "scriptpubkey_asm": "OP_0 OP_PUSHBYTES_20 087685a982059528280f2c4e4c8119dc69203fb4",
      "scriptpubkey_type": "v0_p2wpkh",
      "scriptpubkey_address": "bc1qppmgt2vzqk2js2q0938yeqgem35jq0a5sr88rl",
      "value": 91975
    }
  ],
  "size": 520,
  "weight": 1108,
  "fee": 7506,
  "status": {
    "confirmed": true,
    "block_height": 834638,
    "block_hash": "000000000000000000025f742c626208ac87e0b7d15054abb4a19ca2d735a54e",
    "block_time": 1710405325
  },
  "hex": "010000000001031c72a71bf2e77a97f2e3470417f1e36cfcad3a6f8570809c0b3a5594cc04bd260000000000ffffffffd79e8292ce3a40b9793e5986413eb3039d90e8222697a2ff883479bc1cdacd640000000000ffffffff80c4ac3d8ef5e152c6e9e9e58e7751a79efcf128889d42fcfcd75b3375bf95410800000000ffffffff0240a44c010000000017a914a1669b4686249ddd706578023d6f8a6a66854145874767010000000000160014087685a982059528280f2c4e4c8119dc69203fb4024730440220593352cb62286978b3904d0b0004bf76a3531dd5cfc3532a950ee7c4a00eea9202201991ae3b52c3d53df285e73a0a6cd6868e51901a598ddcc3343c6fdc9f8e9c74012103dad2e2cf27148b1860cda44d5fe95cba5f3fb4442ed6fa4d8ac21bd424d6b750024830450221008d0c1ea3758434434a00c8d6fc901f1c1833cbbab8e4e5dda55beadb578e20ae022044b1c4cc0469d557a45e00781d0bef0279746067b22f0fcccdaf5da8a8322751012103dad2e2cf27148b1860cda44d5fe95cba5f3fb4442ed6fa4d8ac21bd424d6b7500247304402201f4071272b856a4b43ff701d02a383439f2f398d17e3381494b73a4592dfe6e402203204f822f22b6f9b2205fd89bfc06cbeb496e39a44b48729c18921fc7a87e6bc012103dad2e2cf27148b1860cda44d5fe95cba5f3fb4442ed6fa4d8ac21bd424d6b75000000000"
}