{
  "txid": "a08e99709574d1a7351d6472aed618a7ad39033356eeadbb150a16f499e044d5",
  "version": 2,
  "locktime": 0,
  "vin": [
    {
      "txid": "44863a1393b562f3e477712d4aa3e4a21b9a37571d77a9a80d4a562d44e6d28b",
      "vout": 0,
      "prevout": {
        "scriptpubkey": "5120ad2f454063c07edc0f20890ac09e93c284f3adf33ab068d2de3fb64d82478d37",
        "scriptpubkey_asm": "OP_PUSHNUM_1 OP_PUSHBYTES_32 ad2f454063c07edc0f20890ac09e93c284f3adf33ab068d2de3fb64d82478d37",
        "scriptpubkey_type": "v1_p2tr",
        "scriptpubkey_address": "bc1p45h52srrcpldcreq3y9vp85nc2z08t0n82cx35k787mymqj835mskywupp",
        "value": 546
      },
      "scriptsig": "",
      "scriptsig_asm": "",
      "witness": [
        "4df05361be6c8862090a6da844a21a3fabc4f5d6708cc014015d373cae9969268d7ecd9d418198a5b68f6ed550b552fe839c8ad6ab5d32ef5cfc497febe057d9"
      ],
      "is_coinbase": false,
      "sequence": 2147483649
    },
    {
      "txid": "a640d567005cdea7c4488bd2c32b3b49174445b6357d8d97ab2927d7551c4858",
      "vout": 1,
      "prevout": {
        "scriptpubkey": "5120ad2f454063c07edc0f20890ac09e93c284f3adf33ab068d2de3fb64d82478d37",
        "scriptpubkey_asm": "OP_PUSHNUM_1 OP_PUSHBYTES_32 ad2f454063c07edc0f20890ac09e93c284f3adf33ab068d2de3fb64d82478d37",
        "scriptpubkey_type": "v1_p2tr",
        "scriptpubkey_address": "bc1p45h52srrcpldcreq3y9vp85nc2z08t0n82cx35k787mymqj835mskywupp",
        "value": 265954
      },
      "scriptsig": "",
      "scriptsig_asm": "",
      "witness": [
        "68840655a7212312876848bb8a899da2405d92806d3f2d89f4bda91febfb5860c163fd5d26e4114d1afe9d25e57fa4309b93b8f27a7a9675332bd9c12856a5a1"
      ],
      "is_coinbase": false,
      "sequence": 2147483649
    }
  ],
  "vout": [
    {
      "scriptpubkey": "5120032e399c2918ebb3899f1a1a5a2fce6d70f95073ccfbc79edf7303605e99f86a",
      "scriptpubkey_asm": "OP_PUSHNUM_1 OP_PUSHBYTES_32 032e399c2918ebb3899f1a1a5a2fce6d70f95073ccfbc79edf7303605e99f86a",
      "scriptpubkey_type": "v1_p2tr",
      "scriptpubkey_address": "bc1pqvhrn8pfrr4m8zvlrgd95t7wd4c0j5rnenau08klwvpkqh5elp4q4pvq9r",
      "value": 546
    },
    {
      "scriptpubkey": "5120ad2f454063c07edc0f20890ac09e93c284f3adf33ab068d2de3fb64d82478d37",
      "scriptpubkey_asm": "OP_PUSHNUM_1 OP_PUSHBYTES_32 ad2f454063c07edc0f20890ac09e93c284f3adf33ab068d2de3fb64d82478d37",
      "scriptpubkey_type": "v1_p2tr",
      "scriptpubkey_address": "bc1p45h52srrcpldcreq3y9vp85nc2z08t0n82cx35k787mymqj835mskywupp",
      "value": 262789
    }
  ],
  "size": 312,
  "weight": 846,
  "fee": 3165,
  "status": {
    "confirmed": true,
    "block_height": 834638,
    "block_hash": "000000000000000000025f742c626208ac87e0b7d15054abb4a19ca2d735a54e",
    "block_time": 1710405325
  },
  "hex": "020000000001028bd2e6442d564a0da8a9771d57379a1ba2e4a34a2d7177e4f362b593133a864400000000000100008058481c55d72729ab978d7d35b6454417493b2bc3d28b48c4a7de5c0067d540a6010000000001000080022202000000000000225120032e399c2918ebb3899f1a1a5a2fce6d70f95073ccfbc79edf7303605e99f86a8502040000000000225120ad2f454063c07edc0f20890ac09e93c284f3adf33ab068d2de3fb64d82478d3701404df05361be6c8862090a6da844a21a3fabc4f5d6708cc014015d373cae9969268d7ecd9d418198a5b68f6ed550b552fe839c8ad6ab5d32ef5cfc497febe057d9014068840655a7212312876848bb8a899da2405d92806d3f2d89f4bda91febfb5860c163fd5d26e4114d1afe9d25e57fa4309b93b8f27a7a9675332bd9c12856a5a100000000"
}