{
  "txid": "a0940d6a65a300139490c760e3072104cafe4ddc5bdd601a8577cf34fe56e56b",
  "version": 2,
  "locktime": 834637,
  "vin": [
    {
      "txid": "3a88ad40e32f3d509df222ac3a07d26a1f4ab5762e537c5d2ca2bb2784dda562",
      "vout": 1,
      "prevout": {
        "scriptpubkey": "76a91439545ab80e91d19dba6ad0d222d57022af1fbffd88ac",
        "scriptpubkey_asm": "OP_DUP OP_HASH160 OP_PUSHBYTES_20 39545ab80e91d19dba6ad0d222d57022af1fbffd OP_EQUALVERIFY OP_CHECKSIG",
        "scriptpubkey_type": "p2pkh",
        "scriptpubkey_address": "16E8ZymcvPWXKGsoPTLjcxJgZ1cw2vW4Ha",
        "value": 200000000
      },
      "scriptsig": "47304402206d481be77aa00c486b900bc21398983d99127c94f53ee09fb8b6a60cee6c5643022025cff0546886c4587e2d8685cccc310353402b559795b89c4a9382ff2e29c791012102ef66300fb034f31731182bae128281d2fdc5a210271fb2fbd64761e6b7bb926f",
      "scriptsig_asm": "OP_PUSHBYTES_71 304402206d481be77aa00c486b900bc21398983d99127c94f53ee09fb8b6a60cee6c5643022025cff0546886c4587e2d8685cccc310353402b559795b89c4a9382ff2e29c79101 OP_PUSHBYTES_33 02ef66300fb034f31731182bae128281d2fdc5a210271fb2fbd64761e6b7bb926f",
      "is_coinbase": false,
      "sequence": 4294967293
    }
  ],
  "vout": [
    {
      "scriptpubkey": "00142536db903c18f9278fd9eb8e85210fa1f34e1099",
      "scriptpubkey_asm": "OP_0 OP_PUSHBYTES_20 2536db903c18f9278fd9eb8e85210fa1f34e1099",
      "scriptpubkey_type": "v0_p2wpkh",
      "scriptpubkey_address": "bc1qy5mdhypurruj0r7eaw8g2gg058e5uyye53l6rs",
      "value": 199996995
    }
  ],
  "size": 188,
  "weight": 752,
  "fee": 3005,
  "status": {
    "confirmed": true,
    "block_height": 834638,
    "block_hash": "000000000000000000025f742c626208ac87e0b7d15054abb4a19ca2d735a54e",
    "block_time": 1710405325
  },
  "hex": "020000000162a5dd8427bba22c5d7c532e76b54a1f6ad2073aac22f29d503d2fe340ad883a010000006a47304402206d481be77aa00c486b900bc21398983d99127c94f53ee09fb8b6a60cee6c5643022025cff0546886c4587e2d8685cccc310353402b559795b89c4a9382ff2e29c791012102ef66300fb034f31731182bae128281d2fdc5a210271fb2fbd64761e6b7bb926ffdffffff0143b6eb0b000000001600142536db903c18f9278fd9eb8e85210fa1f34e10994dbc0c00"
}