{
  "txid": "a0a3c22f800e7cd63b1685d6f670ea9904e761b66378e373f4ef6367c6f7fa75",
  "version": 2,
  "locktime": 0,
  "vin": [
    {
      "txid": "dd33cfc2267b89bca4716494e5c6eab1046172850974b29a3cb5ffc4c13d5ccb",
      "vout": 1,
      "prevout": {
        "scriptpubkey": "0014620cee0b7644f283ff962b8ffc9d476d3b08098f",
        "scriptpubkey_asm": "OP_0 OP_PUSHBYTES_20 620cee0b7644f283ff962b8ffc9d476d3b08098f",
        "scriptpubkey_type": "v0_p2wpkh",
        "scriptpubkey_address": "bc1qvgxwuzmkgneg8luk9w8le828d5asszv0ysj2d3",
        "value": 7204607
      },
      "scriptsig": "",
      "scriptsig_asm": "",
      "witness": [
        "3045022100a84f920235fe0a800891e028b6e19983972e129c761478dba6883dda88b3bb5402200f4f555a86fb01c82db4c745339d6811d280fdcd9dc2cb9403e9938c80176aa601",
        "02c700518fb1a1d23d85e7c4a635230d0ef7cf4887041d32dcd662b6a86b52148e"
      ],
      "is_coinbase": false,
      "sequence": 4294967295
    }
  ],
  "vout": [
    {
      "scriptpubkey": "00142b595ce39364dd0b8835f0eb8e272d650d69108c",
      "scriptpubkey_asm": "OP_0 OP_PUSHBYTES_20 2b595ce39364dd0b8835f0eb8e272d650d69108c",
      "scriptpubkey_type": "v0_p2wpkh",
      "scriptpubkey_address": "bc1q9dv4ecunvnwshzp47r4cufedv5xkjyyvkg3yek",
      "value": 4990000
    },
    {
      "scriptpubkey": "001474344eccb4db399c892d1fdfe54b1aeca532a7a4",
      "scriptpubkey_asm": "OP_0 OP_PUSHBYTES_20 74344eccb4db399c892d1fdfe54b1aeca532a7a4",
      "scriptpubkey_type": "v0_p2wpkh",
      "scriptpubkey_address": "bc1qws6yan95mvueezfdrl072jc6ajjn9fayqmpdvx",
      "value": 2212096
    }
  ],
  "size": 223,
  "weight": 562,
  "fee": 2511,
  "status": {
    "confirmed": true,
    "block_height": 834638,
    "block_hash": "000000000000000000025f742c626208ac87e0b7d15054abb4a19ca2d735a54e",
    "block_time": 1710405325
  },
  "hex": "02000000000101cb5c3dc1c4ffb53c9ab2740985726104b1eac6e5946471a4bc897b26c2cf33dd0100000000ffffffff0230244c00000000001600142b595ce39364dd0b8835f0eb8e272d650d69108c00c121000000000016001474344eccb4db399c892d1fdfe54b1aeca532a7a402483045022100a84f920235fe0a800891e028b6e19983972e129c761478dba6883dda88b3bb5402200f4f555a86fb01c82db4c745339d6811d280fdcd9dc2cb9403e9938c80176aa6012102c700518fb1a1d23d85e7c4a635230d0ef7cf4887041d32dcd662b6a86b52148e00000000"
}