{
  "txid": "a0b84f1dab142ded79326cde049b80aecdf1d0041f2ac442874549917b4cae35",
  "version": 2,
  "locktime": 0,
  "vin": [
    {
      "txid": "a439290f6878e4467a77ef06c0b5467faf035aff87de954d17da4e8b7042a8c3",
      "vout": 0,
      "prevout": {
        "scriptpubkey": "0014cec886845946ed6a2d607f4cdbfe0606818cc06d",
        "scriptpubkey_asm": "OP_0 OP_PUSHBYTES_20 cec886845946ed6a2d607f4cdbfe0606818cc06d",
        "scriptpubkey_type": "v0_p2wpkh",
        "scriptpubkey_address": "bc1qemygdpzegmkk5ttq0axdhlsxq6qcesrdtqqzpn",
        "value": 1552425
      },
      "scriptsig": "",
      "scriptsig_asm": "",
      "witness": [
        "304402204708125ce25fdf1751d933edb1b25115f4a8ba3f0327718e1084e52cc521f68d022041d592d9e2f5166d6cc37e85770d16b1b7abac812ee3d60ea23074eb06d1a3d501",
        "02c3c9a8ebf248e5942da65d21dc224d6afe8da84d34d8057bedd6aa616f562e93"
      ],
      "is_coinbase": false,
      "sequence": 4294967293
    }
  ],
  "vout": [
    {
      "scriptpubkey": "00149ea988e5ede13174faaad5fca02de0490e4584a7",
      "scriptpubkey_asm": "OP_0 OP_PUSHBYTES_20 9ea988e5ede13174faaad5fca02de0490e4584a7",
      "scriptpubkey_type": "v0_p2wpkh",
      "scriptpubkey_address": "bc1qn65c3e0duychf7426h72qt0qfy8ytp98fd45q6",
      "value": 1411658
    },
    {
      "scriptpubkey": "00146f409f810c5eb9822512f411f228aed9484bf1b3",
      "scriptpubkey_asm": "OP_0 OP_PUSHBYTES_20 6f409f810c5eb9822512f411f228aed9484bf1b3",
      "scriptpubkey_type": "v0_p2wpkh",
      "scriptpubkey_address": "bc1qdaqflqgvt6ucyfgj7sgly29wm9yyhudnacqa56",
      "value": 138772
    }
  ],
  "size": 222,
  "weight": 561,
  "fee": 1995,
  "status": {
    "confirmed": true,
    "block_height": 834460,
    "block_hash": "00000000000000000000484a79b643b2524bbce82e5d8a442013fa5b8905ed98",
    "block_time": 1710307468
  },
  "hex": "02000000000101c3a842708b4eda174d95de87ff5a03af7f46b5c006ef777a46e478680f2939a40000000000fdffffff024a8a1500000000001600149ea988e5ede13174faaad5fca02de0490e4584a7141e0200000000001600146f409f810c5eb9822512f411f228aed9484bf1b30247304402204708125ce25fdf1751d933edb1b25115f4a8ba3f0327718e1084e52cc521f68d022041d592d9e2f5166d6cc37e85770d16b1b7abac812ee3d60ea23074eb06d1a3d5012102c3c9a8ebf248e5942da65d21dc224d6afe8da84d34d8057bedd6aa616f562e9300000000"
}