{
  "txid": "a0c8989d3b15a093c40cf10eba78f92c0f4d01dd3ea29177445d8956f74e8f5c",
  "version": 2,
  "locktime": 0,
  "vin": [
    {
      "txid": "acc3ba00869acb582a3f2904ce3a11dd3779350ce234063fc7d0959246213364",
      "vout": 219,
      "prevout": {
        "scriptpubkey": "5120f02b8b486814f1179b12c79468701ad494ff4694d32efbe6818590793834cc4d",
        "scriptpubkey_asm": "OP_PUSHNUM_1 OP_PUSHBYTES_32 f02b8b486814f1179b12c79468701ad494ff4694d32efbe6818590793834cc4d",
        "scriptpubkey_type": "v1_p2tr",
        "scriptpubkey_address": "bc1p7q4ckjrgznc30xcjc72xsuq66j2073556vh0he5pskg8jwp5e3xszr3mce",
        "value": 1806
      },
      "scriptsig": "",
      "scriptsig_asm": "",
      "witness": [
        "3edddfb189c805e2f920ee803427eec581238473fa3550b4202685915825b6f639a768b1380a06bbeeb5a5123b4c9621bf00d3ef1f7ad33d1fea3534306eb50e",
        "20148a7e31e94f34817e5612b1ea2ab6a0fda176c7b59f9c168a2670a762ff53b4ac0063036f726401010a746578742f706c61696e00357b2270223a226272632d3230222c226f70223a226d696e74222c227469636b223a22646f6765222c22616d74223a2234323030227d68",
        "c1148a7e31e94f34817e5612b1ea2ab6a0fda176c7b59f9c168a2670a762ff53b4"
      ],
      "is_coinbase": false,
      "sequence": 4261412863
    }
  ],
  "vout": [
    {
      "scriptpubkey": "00147a665de7a370f4c9b372ab1fae587500a5bcbdb4",
      "scriptpubkey_asm": "OP_0 OP_PUSHBYTES_20 7a665de7a370f4c9b372ab1fae587500a5bcbdb4",
      "scriptpubkey_type": "v0_p2wpkh",
      "scriptpubkey_address": "bc1q0fn9mearwr6vnvmj4v06ukr4qzjme0d565dzcx",
      "value": 294
    }
  ],
  "size": 294,
  "weight": 540,
  "fee": 1512,
  "status": {
    "confirmed": true,
    "block_height": 834460,
    "block_hash": "00000000000000000000484a79b643b2524bbce82e5d8a442013fa5b8905ed98",
    "block_time": 1710307468
  },
  "hex": "02000000000101643321469295d0c73f0634e20c357937dd113ace04293f2a58cb9a8600bac3acdb00000000fffffffd0126010000000000001600147a665de7a370f4c9b372ab1fae587500a5bcbdb403403edddfb189c805e2f920ee803427eec581238473fa3550b4202685915825b6f639a768b1380a06bbeeb5a5123b4c9621bf00d3ef1f7ad33d1fea3534306eb50e6d20148a7e31e94f34817e5612b1ea2ab6a0fda176c7b59f9c168a2670a762ff53b4ac0063036f726401010a746578742f706c61696e00357b2270223a226272632d3230222c226f70223a226d696e74222c227469636b223a22646f6765222c22616d74223a2234323030227d6821c1148a7e31e94f34817e5612b1ea2ab6a0fda176c7b59f9c168a2670a762ff53b400000000"
}