{
  "txid": "a0f0172e9a9003259b87fac6a5f364ba6e183fb5c606606458c632912021fa90",
  "version": 2,
  "locktime": 0,
  "vin": [
    {
      "txid": "e96843e0dc4d06940c8cf42efe7f6dbd1e33f71cdcaa5c99f791521dea45c860",
      "vout": 1,
      "prevout": {
        "scriptpubkey": "00145ecd3c6122fcf96520eb7802446f1f84635495b1",
        "scriptpubkey_asm": "OP_0 OP_PUSHBYTES_20 5ecd3c6122fcf96520eb7802446f1f84635495b1",
        "scriptpubkey_type": "v0_p2wpkh",
        "scriptpubkey_address": "bc1qtmxnccfzlnuk2g8t0qpygmcls334f9d323dcxn",
        "value": 38920
      },
      "scriptsig": "",
      "scriptsig_asm": "",
      "witness": [
        "304402204cc96bad9be3e96809345e3a052006983c25f0f6adf0f807c0a95ea2ffd61988022079b9a12997416a17605b896bfe13f0b32aae9df1998b9f35ddaec9f88bf2e6f701",
        "02b1d381c5715e87db793582c0b644389874721e7722f1b5ab454aa6f59efc3873"
      ],
      "is_coinbase": false,
      "sequence": 4294967293
    }
  ],
  "vout": [
    {
      "scriptpubkey": "0014bbf5f188295697c1e27576a77fe911cdf27a42da",
      "scriptpubkey_asm": "OP_0 OP_PUSHBYTES_20 bbf5f188295697c1e27576a77fe911cdf27a42da",
      "scriptpubkey_type": "v0_p2wpkh",
      "scriptpubkey_address": "bc1qh06lrzpf26turcn4w6nhl6g3ehe85sk6gtsdnu",
      "value": 12188
    },
    {
      "scriptpubkey": "00147b8d9cb12eea782ea1fb4ab2996b094db2898ab8",
      "scriptpubkey_asm": "OP_0 OP_PUSHBYTES_20 7b8d9cb12eea782ea1fb4ab2996b094db2898ab8",
      "scriptpubkey_type": "v0_p2wpkh",
      "scriptpubkey_address": "bc1q0wxeevfwafuzag0mf2efj6cffkegnz4c36vlvy",
      "value": 25202
    }
  ],
  "size": 222,
  "weight": 561,
  "fee": 1530,
  "status": {
    "confirmed": true,
    "block_height": 834464,
    "block_hash": "0000000000000000000177a0869a911a2b65c9bdcd5a8bcb02b68f305bee848e",
    "block_time": 1710308296
  },
  "hex": "0200000000010160c845ea1d5291f7995caadc1cf7331ebd6d7ffe2ef48c0c94064ddce04368e90100000000fdffffff029c2f000000000000160014bbf5f188295697c1e27576a77fe911cdf27a42da72620000000000001600147b8d9cb12eea782ea1fb4ab2996b094db2898ab80247304402204cc96bad9be3e96809345e3a052006983c25f0f6adf0f807c0a95ea2ffd61988022079b9a12997416a17605b896bfe13f0b32aae9df1998b9f35ddaec9f88bf2e6f7012102b1d381c5715e87db793582c0b644389874721e7722f1b5ab454aa6f59efc387300000000"
}