{
  "txid": "a0f648f1e14453d1ba1b2ed55ba3313d4c06f2d4bbe0ba80115f58c1a30686aa",
  "version": 2,
  "locktime": 0,
  "vin": [
    {
      "txid": "1049138964c5b84ac37be61c3c9f16875fb45cbb600d89f09603df8c2ef7fbfa",
      "vout": 3,
      "prevout": {
        "scriptpubkey": "0014f60834ef165253c571b11ce9fa74e46692fc5ec1",
        "scriptpubkey_asm": "OP_0 OP_PUSHBYTES_20 f60834ef165253c571b11ce9fa74e46692fc5ec1",
        "scriptpubkey_type": "v0_p2wpkh",
        "scriptpubkey_address": "bc1q7cyrfmck2ffu2ud3rn5l5a8yv6f0chkp0zpemf",
        "value": 702512400
      },
      "scriptsig": "",
      "scriptsig_asm": "",
      "witness": [
        "3045022100e17a733bd0c52e1df2c17e8dc46ec4109b0ef9d87362f25dc7f07b02bd1a7533022006f968cb543f6ac594d34fa4f5c9b858c49843068bb48726c3fdf9221bc4e90801",
        "026e5628506ecd33242e5ceb5fdafe4d3066b5c0f159b3c05a621ef65f177ea286"
      ],
      "is_coinbase": false,
      "sequence": 4294967293
    }
  ],
  "vout": [
    {
      "scriptpubkey": "0014a72570e4ba83873da4cf635618cd1369c566e4f4",
      "scriptpubkey_asm": "OP_0 OP_PUSHBYTES_20 a72570e4ba83873da4cf635618cd1369c566e4f4",
      "scriptpubkey_type": "v0_p2wpkh",
      "scriptpubkey_address": "bc1q5ujhpe96swrnmfx0vdtp3ngnd8zkde85v3jv56",
      "value": 138570
    },
    {
      "scriptpubkey": "0014943b7e99d11dd32cc518b29e4566a0baf3d56f78",
      "scriptpubkey_asm": "OP_0 OP_PUSHBYTES_20 943b7e99d11dd32cc518b29e4566a0baf3d56f78",
      "scriptpubkey_type": "v0_p2wpkh",
      "scriptpubkey_address": "bc1qjsahaxw3rhfje3gck20y2e4qhtea2mmccwkurk",
      "value": 63506
    },
    {
      "scriptpubkey": "0014f60834ef165253c571b11ce9fa74e46692fc5ec1",
      "scriptpubkey_asm": "OP_0 OP_PUSHBYTES_20 f60834ef165253c571b11ce9fa74e46692fc5ec1",
      "scriptpubkey_type": "v0_p2wpkh",
      "scriptpubkey_address": "bc1q7cyrfmck2ffu2ud3rn5l5a8yv6f0chkp0zpemf",
      "value": 702304724
    }
  ],
  "size": 254,
  "weight": 686,
  "fee": 5600,
  "status": {
    "confirmed": true,
    "block_height": 834638,
    "block_hash": "000000000000000000025f742c626208ac87e0b7d15054abb4a19ca2d735a54e",
    "block_time": 1710405325
  },
  "hex": "02000000000101fafbf72e8cdf0396f0890d60bb5cb45f87169f3c1ce67bc34ab8c564891349100300000000fdffffff034a1d020000000000160014a72570e4ba83873da4cf635618cd1369c566e4f412f8000000000000160014943b7e99d11dd32cc518b29e4566a0baf3d56f78d451dc2900000000160014f60834ef165253c571b11ce9fa74e46692fc5ec102483045022100e17a733bd0c52e1df2c17e8dc46ec4109b0ef9d87362f25dc7f07b02bd1a7533022006f968cb543f6ac594d34fa4f5c9b858c49843068bb48726c3fdf9221bc4e9080121026e5628506ecd33242e5ceb5fdafe4d3066b5c0f159b3c05a621ef65f177ea28600000000"
}