{
  "txid": "a0f788702b89b1d271a1abe2bfc1942dec066072d2d3f730c01a839d000b9929",
  "version": 1,
  "locktime": 0,
  "vin": [
    {
      "txid": "21fea8fac90c499159f1b9889561df84b07b454ae5bce23ebd363050ec3a2831",
      "vout": 35,
      "prevout": {
        "scriptpubkey": "76a9143e7fa9853695c8cd4a95d6846783c4fb75138ca188ac",
        "scriptpubkey_asm": "OP_DUP OP_HASH160 OP_PUSHBYTES_20 3e7fa9853695c8cd4a95d6846783c4fb75138ca1 OP_EQUALVERIFY OP_CHECKSIG",
        "scriptpubkey_type": "p2pkh",
        "scriptpubkey_address": "16hTq238qZ8W4DyKyuM9Xfwfi7FEVrJe6w",
        "value": 1349243
      },
      "scriptsig": "483045022100b914d29dc8d5a8fe4076a1bc496bd765751e7ef897871ef6fe38bed820763e510220305711a6f086c69d5e9018c94fda73729a3036e62973953542c0ae67b891c0b00121036b2bf653ec0e76229ddbe86e9e39a378e6d4ded3d57d98b559847744126c469d",
      "scriptsig_asm": "OP_PUSHBYTES_72 3045022100b914d29dc8d5a8fe4076a1bc496bd765751e7ef897871ef6fe38bed820763e510220305711a6f086c69d5e9018c94fda73729a3036e62973953542c0ae67b891c0b001 OP_PUSHBYTES_33 036b2bf653ec0e76229ddbe86e9e39a378e6d4ded3d57d98b559847744126c469d",
      "is_coinbase": false,
      "sequence": 4294967295
    }
  ],
  "vout": [
    {
      "scriptpubkey": "0014e9320c55e7e6a7bfe6339853c20d5ef96f14df0e",
      "scriptpubkey_asm": "OP_0 OP_PUSHBYTES_20 e9320c55e7e6a7bfe6339853c20d5ef96f14df0e",
      "scriptpubkey_type": "v0_p2wpkh",
      "scriptpubkey_address": "bc1qayeqc408u6nmle3nnpfuyr27l9h3fhcwsyjght",
      "value": 1338897
    },
    {
      "scriptpubkey": "76a914a624e793644a85f401a34da51405696785bfda8588ac",
      "scriptpubkey_asm": "OP_DUP OP_HASH160 OP_PUSHBYTES_20 a624e793644a85f401a34da51405696785bfda85 OP_EQUALVERIFY OP_CHECKSIG",
      "scriptpubkey_type": "p2pkh",
      "scriptpubkey_address": "1G9VP29yMZHwwUyJ94HSPJExP1aTXWdNou",
      "value": 980
    }
  ],
  "size": 223,
  "weight": 892,
  "fee": 9366,
  "status": {
    "confirmed": true,
    "block_height": 834638,
    "block_hash": "000000000000000000025f742c626208ac87e0b7d15054abb4a19ca2d735a54e",
    "block_time": 1710405325
  },
  "hex": "010000000131283aec503036bd3ee2bce54a457bb084df619588b9f15991490cc9faa8fe21230000006b483045022100b914d29dc8d5a8fe4076a1bc496bd765751e7ef897871ef6fe38bed820763e510220305711a6f086c69d5e9018c94fda73729a3036e62973953542c0ae67b891c0b00121036b2bf653ec0e76229ddbe86e9e39a378e6d4ded3d57d98b559847744126c469dffffffff02116e140000000000160014e9320c55e7e6a7bfe6339853c20d5ef96f14df0ed4030000000000001976a914a624e793644a85f401a34da51405696785bfda8588ac00000000"
}