{
  "txid": "a0f8cc8aa6c395c9205ec70aee522e2def7b6b1e99cd71cf0aa0de6533c1a56a",
  "version": 2,
  "locktime": 0,
  "vin": [
    {
      "txid": "17f43bae385f0bf12387b1e3101c5f9d0fab5455abb2afe8fb6296224b4b0f4f",
      "vout": 0,
      "prevout": {
        "scriptpubkey": "0014cfac0ea49d364fab011e2bb5fd6c20d045c8306b",
        "scriptpubkey_asm": "OP_0 OP_PUSHBYTES_20 cfac0ea49d364fab011e2bb5fd6c20d045c8306b",
        "scriptpubkey_type": "v0_p2wpkh",
        "scriptpubkey_address": "bc1qe7kqafyaxe86kqg79w6l6mpq6pzusvrt4vp8qj",
        "value": 546
      },
      "scriptsig": "",
      "scriptsig_asm": "",
      "witness": [
        "304402202d12054793defa169a74e50d8fed55f1e82164712a0ca4d73d50e54720eebfe5022015d03fdfc206c6295a7fd10144792fd42eeb7f8ae0e659c2a5dd45af645444ef01",
        "03e1c1e2a29a2f050e964cc76d49d62db584e71297c0d5b1698f30982418804603"
      ],
      "is_coinbase": false,
      "sequence": 4294967295
    },
    {
      "txid": "6e04cec0f51e6dd88c0eb6da542bd0a38c15a34b3c1bd352ccd97a71e4c65f60",
      "vout": 1,
      "prevout": {
        "scriptpubkey": "0014cfac0ea49d364fab011e2bb5fd6c20d045c8306b",
        "scriptpubkey_asm": "OP_0 OP_PUSHBYTES_20 cfac0ea49d364fab011e2bb5fd6c20d045c8306b",
        "scriptpubkey_type": "v0_p2wpkh",
        "scriptpubkey_address": "bc1qe7kqafyaxe86kqg79w6l6mpq6pzusvrt4vp8qj",
        "value": 265369
      },
      "scriptsig": "",
      "scriptsig_asm": "",
      "witness": [
        "3045022100cfeece6836e780f384fbb6a8ebcf4eed95357a23290b26302af9f72c22eeefbc022042179ca96576799e5e7ca0fe845c25b4e7ff23c069f7ae41f702c7c8c3e6820501",
        "03e1c1e2a29a2f050e964cc76d49d62db584e71297c0d5b1698f30982418804603"
      ],
      "is_coinbase": false,
      "sequence": 4294967295
    }
  ],
  "vout": [
    {
      "scriptpubkey": "5120bee1438c56b029ca4839a95998e6ac25452680e5d2bf4def6758b11087f4dd48",
      "scriptpubkey_asm": "OP_PUSHNUM_1 OP_PUSHBYTES_32 bee1438c56b029ca4839a95998e6ac25452680e5d2bf4def6758b11087f4dd48",
      "scriptpubkey_type": "v1_p2tr",
      "scriptpubkey_address": "bc1phms58rzkkq5u5jpe49ve3e4vy4zjdq8962l5mmm8tzc3ppl5m4yqzs4r5w",
      "value": 546
    },
    {
      "scriptpubkey": "0014cfac0ea49d364fab011e2bb5fd6c20d045c8306b",
      "scriptpubkey_asm": "OP_0 OP_PUSHBYTES_20 cfac0ea49d364fab011e2bb5fd6c20d045c8306b",
      "scriptpubkey_type": "v0_p2wpkh",
      "scriptpubkey_address": "bc1qe7kqafyaxe86kqg79w6l6mpq6pzusvrt4vp8qj",
      "value": 262275
    }
  ],
  "size": 383,
  "weight": 881,
  "fee": 3094,
  "status": {
    "confirmed": true,
    "block_height": 834460,
    "block_hash": "00000000000000000000484a79b643b2524bbce82e5d8a442013fa5b8905ed98",
    "block_time": 1710307468
  },
  "hex": "020000000001024f0f4b4b229662fbe8afb2ab5554ab0f9d5f1c10e3b18723f10b5f38ae3bf4170000000000ffffffff605fc6e4717ad9cc52d31b3c4ba3158ca3d02b54dab60e8cd86d1ef5c0ce046e0100000000ffffffff022202000000000000225120bee1438c56b029ca4839a95998e6ac25452680e5d2bf4def6758b11087f4dd488300040000000000160014cfac0ea49d364fab011e2bb5fd6c20d045c8306b0247304402202d12054793defa169a74e50d8fed55f1e82164712a0ca4d73d50e54720eebfe5022015d03fdfc206c6295a7fd10144792fd42eeb7f8ae0e659c2a5dd45af645444ef012103e1c1e2a29a2f050e964cc76d49d62db584e71297c0d5b1698f3098241880460302483045022100cfeece6836e780f384fbb6a8ebcf4eed95357a23290b26302af9f72c22eeefbc022042179ca96576799e5e7ca0fe845c25b4e7ff23c069f7ae41f702c7c8c3e68205012103e1c1e2a29a2f050e964cc76d49d62db584e71297c0d5b1698f3098241880460300000000"
}