{
  "txid": "a109a097255499032f8e99b116ddd7ca99f096996446baf129f6c2df2f3f751c",
  "version": 2,
  "locktime": 0,
  "vin": [
    {
      "txid": "7a54d068cf98aecd6b42878f31ca9b408d0c174e4c5f582cb9d310b5421c8ca2",
      "vout": 6,
      "prevout": {
        "scriptpubkey": "00146e7644ae00bd86ed9bba7df6f83e881d97d14999",
        "scriptpubkey_asm": "OP_0 OP_PUSHBYTES_20 6e7644ae00bd86ed9bba7df6f83e881d97d14999",
        "scriptpubkey_type": "v0_p2wpkh",
        "scriptpubkey_address": "bc1qdemyftsqhkrwmxa60hm0s05grktazjvep2yajd",
        "value": 3887317
      },
      "scriptsig": "",
      "scriptsig_asm": "",
      "witness": [
        "3045022100fcbeb0b7f78578d6973b29f8a65407cd98bc1f0914212983fcb52ec80dd405a80220254452391039fde22892530343499dae50d8ccfa0e945ed9d417e0b6a18111eb01",
        "029d2c5ae9ea7aadf982fd991123bf34b8db942d183afe54787eaf5f68f554cd9c"
      ],
      "is_coinbase": false,
      "sequence": 4294967293
    }
  ],
  "vout": [
    {
      "scriptpubkey": "00146e7644ae00bd86ed9bba7df6f83e881d97d14999",
      "scriptpubkey_asm": "OP_0 OP_PUSHBYTES_20 6e7644ae00bd86ed9bba7df6f83e881d97d14999",
      "scriptpubkey_type": "v0_p2wpkh",
      "scriptpubkey_address": "bc1qdemyftsqhkrwmxa60hm0s05grktazjvep2yajd",
      "value": 3764585
    },
    {
      "scriptpubkey": "76a91407b48cdcd36786be85afc495102cbe82d38f0f1488ac",
      "scriptpubkey_asm": "OP_DUP OP_HASH160 OP_PUSHBYTES_20 07b48cdcd36786be85afc495102cbe82d38f0f14 OP_EQUALVERIFY OP_CHECKSIG",
      "scriptpubkey_type": "p2pkh",
      "scriptpubkey_address": "1hk2CEhtbJfFB6sYqG6x6UnK5QEgj8pwh",
      "value": 120000
    }
  ],
  "size": 226,
  "weight": 574,
  "fee": 2732,
  "status": {
    "confirmed": true,
    "block_height": 834638,
    "block_hash": "000000000000000000025f742c626208ac87e0b7d15054abb4a19ca2d735a54e",
    "block_time": 1710405325
  },
  "hex": "02000000000101a28c1c42b510d3b92c585f4c4e170c8d409bca318f87426bcdae98cf68d0547a0600000000fdffffff0269713900000000001600146e7644ae00bd86ed9bba7df6f83e881d97d14999c0d40100000000001976a91407b48cdcd36786be85afc495102cbe82d38f0f1488ac02483045022100fcbeb0b7f78578d6973b29f8a65407cd98bc1f0914212983fcb52ec80dd405a80220254452391039fde22892530343499dae50d8ccfa0e945ed9d417e0b6a18111eb0121029d2c5ae9ea7aadf982fd991123bf34b8db942d183afe54787eaf5f68f554cd9c00000000"
}