{
  "txid": "a11fa065f1f61f868706a799eba2407d19e2c0a9143327150df96c76fbfd2a7a",
  "version": 2,
  "locktime": 0,
  "vin": [
    {
      "txid": "b95a69e1a10b8b5a004d8d6cf83b31ad2aa9018229c9f5ba09256bbf0818c3b8",
      "vout": 0,
      "prevout": {
        "scriptpubkey": "512061b5600b00212749811972915018bf4079e1ce26969572c1a0658bc11241d36e",
        "scriptpubkey_asm": "OP_PUSHNUM_1 OP_PUSHBYTES_32 61b5600b00212749811972915018bf4079e1ce26969572c1a0658bc11241d36e",
        "scriptpubkey_type": "v1_p2tr",
        "scriptpubkey_address": "bc1pvx6kqzcqyyn5nqgew2g4qx9lgpu7rn3xj62h9sdqvk9uzyjp6dhq2cnfaq",
        "value": 92925
      },
      "scriptsig": "",
      "scriptsig_asm": "",
      "witness": [
        "f80ce528eb512a1f9185e4f4fe0a370e64630a95f5739a828c53c3e5ff4bf2bb9c4ae1646fbcab7a2cb5d66da0da4d4b072551206bb622efd4686f6f0e35450f"
      ],
      "is_coinbase": false,
      "sequence": 4294967295
    },
    {
      "txid": "dc09850ae3410c27a9167656edd9355c251a5a5bd90021b3ed0d28283286bdd4",
      "vout": 1,
      "prevout": {
        "scriptpubkey": "512061b5600b00212749811972915018bf4079e1ce26969572c1a0658bc11241d36e",
        "scriptpubkey_asm": "OP_PUSHNUM_1 OP_PUSHBYTES_32 61b5600b00212749811972915018bf4079e1ce26969572c1a0658bc11241d36e",
        "scriptpubkey_type": "v1_p2tr",
        "scriptpubkey_address": "bc1pvx6kqzcqyyn5nqgew2g4qx9lgpu7rn3xj62h9sdqvk9uzyjp6dhq2cnfaq",
        "value": 548
      },
      "scriptsig": "",
      "scriptsig_asm": "",
      "witness": [
        "87818e5d8b1fcf22e2843d03cff5182561c0502de4393f45ee56ad314eb6da6da7af1253b6298692dc7bd015e098f04340c4946b90e33473938572220aaf98bf"
      ],
      "is_coinbase": false,
      "sequence": 4294967295
    }
  ],
  "vout": [
    {
      "scriptpubkey": "a91433db7b5709b812f8bfcb15acc9350bd28f1262cf87",
      "scriptpubkey_asm": "OP_HASH160 OP_PUSHBYTES_20 33db7b5709b812f8bfcb15acc9350bd28f1262cf OP_EQUAL",
      "scriptpubkey_type": "p2sh",
      "scriptpubkey_address": "36RDKBxQ1WPdBdVqzsDnBengKySX87xKPC",
      "value": 91419
    }
  ],
  "size": 258,
  "weight": 630,
  "fee": 2054,
  "status": {
    "confirmed": true,
    "block_height": 834552,
    "block_hash": "00000000000000000001dd0468a70c94f619251d286585cff57aeb4bd9ede330",
    "block_time": 1710355598
  },
  "hex": "02000000000102b8c31808bf6b2509baf5c9298201a92aad313bf86c8d4d005a8b0ba1e1695ab90000000000ffffffffd4bd863228280dedb32100d95b5a1a255c35d9ed567616a9270c41e30a8509dc0100000000ffffffff011b6501000000000017a91433db7b5709b812f8bfcb15acc9350bd28f1262cf870140f80ce528eb512a1f9185e4f4fe0a370e64630a95f5739a828c53c3e5ff4bf2bb9c4ae1646fbcab7a2cb5d66da0da4d4b072551206bb622efd4686f6f0e35450f014087818e5d8b1fcf22e2843d03cff5182561c0502de4393f45ee56ad314eb6da6da7af1253b6298692dc7bd015e098f04340c4946b90e33473938572220aaf98bf00000000"
}