{
  "txid": "a1240d6c584933d4f8de2d0d3bfebfc3adc78d63231a51c00a95db0d8235684b",
  "version": 1,
  "locktime": 0,
  "vin": [
    {
      "txid": "1240380f1f70c9d167679d61ce11a16567b3ed4fc95632ab94d08609fd76537f",
      "vout": 0,
      "prevout": {
        "scriptpubkey": "5120fc4c9324abdb4e4dcd2f4b4c49122d53694b6dea385def596b0c97913b451a69",
        "scriptpubkey_asm": "OP_PUSHNUM_1 OP_PUSHBYTES_32 fc4c9324abdb4e4dcd2f4b4c49122d53694b6dea385def596b0c97913b451a69",
        "scriptpubkey_type": "v1_p2tr",
        "scriptpubkey_address": "bc1pl3xfxf9tmd8ymnf0fdxyjy3d2d55km028pw77kttpjtezw69rf5s0rzte9",
        "value": 2889
      },
      "scriptsig": "",
      "scriptsig_asm": "",
      "witness": [
        "666fda87043c85223ba0c15b07b67a4cfadf6415ec21020e3705dae4ae01509c2a146b7e231d98323077fe82ff6cebe3f81ea6563a118ed9b17a9d6791f084a2",
        "20dfa7325ed77fab28d796d113dcead29a7490c58aaa244f71cf02d52f6b761081ac00630461746f6d03646d7437a16461726773a46474696d651a65ee4d42656e6f6e63650068626974776f726b6364313234306b6d696e745f7469636b657264766d707868",
        "c1dfa7325ed77fab28d796d113dcead29a7490c58aaa244f71cf02d52f6b761081"
      ],
      "is_coinbase": false,
      "sequence": 0
    }
  ],
  "vout": [
    {
      "scriptpubkey": "5120a1e3352d215c371d7181ba45cba88085be161f72f0fb432c6eb5c59fa438eb97",
      "scriptpubkey_asm": "OP_PUSHNUM_1 OP_PUSHBYTES_32 a1e3352d215c371d7181ba45cba88085be161f72f0fb432c6eb5c59fa438eb97",
      "scriptpubkey_type": "v1_p2tr",
      "scriptpubkey_address": "bc1p583n2tfptsm36uvphfzuh2yqsklpv8mj7ra5xtrwkhzelfpcawtswnzule",
      "value": 1000
    }
  ],
  "size": 299,
  "weight": 581,
  "fee": 1889,
  "status": {
    "confirmed": true,
    "block_height": 834464,
    "block_hash": "0000000000000000000177a0869a911a2b65c9bdcd5a8bcb02b68f305bee848e",
    "block_time": 1710308296
  },
  "hex": "010000000001017f5376fd0986d094ab3256c94fedb36765a111ce619d6767d1c9701f0f38401200000000000000000001e803000000000000225120a1e3352d215c371d7181ba45cba88085be161f72f0fb432c6eb5c59fa438eb970340666fda87043c85223ba0c15b07b67a4cfadf6415ec21020e3705dae4ae01509c2a146b7e231d98323077fe82ff6cebe3f81ea6563a118ed9b17a9d6791f084a26620dfa7325ed77fab28d796d113dcead29a7490c58aaa244f71cf02d52f6b761081ac00630461746f6d03646d7437a16461726773a46474696d651a65ee4d42656e6f6e63650068626974776f726b6364313234306b6d696e745f7469636b657264766d70786821c1dfa7325ed77fab28d796d113dcead29a7490c58aaa244f71cf02d52f6b76108100000000"
}