{
  "txid": "a12847e0b9ac4476d831d8fe2d93af81c832eb575ca3b24634748156a3275fd0",
  "version": 2,
  "locktime": 0,
  "vin": [
    {
      "txid": "14e2167695fd53b97ae50c0a70e65ac4ef7ad1480621c0c13d9d798945a5d5dc",
      "vout": 5,
      "prevout": {
        "scriptpubkey": "512090e6238f333397784e46f8037ca445a4cab621e9dffe0fccaf097936fd060e62",
        "scriptpubkey_asm": "OP_PUSHNUM_1 OP_PUSHBYTES_32 90e6238f333397784e46f8037ca445a4cab621e9dffe0fccaf097936fd060e62",
        "scriptpubkey_type": "v1_p2tr",
        "scriptpubkey_address": "bc1pjrnz8renxwthsnjxlqphefz95n9tvg0fmllqln90p9undlgxpe3qxc6nzy",
        "value": 2862
      },
      "scriptsig": "",
      "scriptsig_asm": "",
      "witness": [
        "0e6b5ab5d01c855a0360f6adc4862f03b0aeb2a7cd877720e732c02c73470206c426c61058e4b31c16146033228e5b877628c8eea00b89e55cea796d6d2f4228",
        "2058d4b888aa3b6f9d5525376884a56171bd5bb2d60b80a088971f0139225f8a9dac0063036f726401011e6170706c69636174696f6e2f6a736f6e3b636861727365743d7574662d38004cd37b2270223a22706f772d3230222c226f70223a226d696e74222c227469636b223a2250455045222c22616d74223a2231303030222c22736f6c7574696f6e223a22504550453a62633170673935386e6b7a747678347271756e78676d747a6c35666e70666b633330776a323770777367396e6c706a786b796e64793671737376386c6b303a303030303030303030303030303030303030303139393431613561653132383937363539383134343239323533333030353762306461393666336465613163353a3136373036313631373735227d68",
        "c0631b34e489e80d4fba35164e5ad52a60d66865df7d7db84d2adbf53ec13ca2a1"
      ],
      "is_coinbase": false,
      "sequence": 4294967295
    }
  ],
  "vout": [
    {
      "scriptpubkey": "5120416879d84b61aa30726646d62fd1330a6d88bdd25782e820b3f8646b126d2681",
      "scriptpubkey_asm": "OP_PUSHNUM_1 OP_PUSHBYTES_32 416879d84b61aa30726646d62fd1330a6d88bdd25782e820b3f8646b126d2681",
      "scriptpubkey_type": "v1_p2tr",
      "scriptpubkey_address": "bc1pg958nkztvx4rqunxgmtzl5fnpfkc30wj27pwsg9nlpjxkyndy6qssv8lk0",
      "value": 546
    }
  ],
  "size": 487,
  "weight": 769,
  "fee": 2316,
  "status": {
    "confirmed": true,
    "block_height": 834460,
    "block_hash": "00000000000000000000484a79b643b2524bbce82e5d8a442013fa5b8905ed98",
    "block_time": 1710307468
  },
  "hex": "02000000000101dcd5a54589799d3dc1c0210648d17aefc45ae6700a0ce57ab953fd957616e2140500000000ffffffff012202000000000000225120416879d84b61aa30726646d62fd1330a6d88bdd25782e820b3f8646b126d268103400e6b5ab5d01c855a0360f6adc4862f03b0aeb2a7cd877720e732c02c73470206c426c61058e4b31c16146033228e5b877628c8eea00b89e55cea796d6d2f4228fd20012058d4b888aa3b6f9d5525376884a56171bd5bb2d60b80a088971f0139225f8a9dac0063036f726401011e6170706c69636174696f6e2f6a736f6e3b636861727365743d7574662d38004cd37b2270223a22706f772d3230222c226f70223a226d696e74222c227469636b223a2250455045222c22616d74223a2231303030222c22736f6c7574696f6e223a22504550453a62633170673935386e6b7a747678347271756e78676d747a6c35666e70666b633330776a323770777367396e6c706a786b796e64793671737376386c6b303a303030303030303030303030303030303030303139393431613561653132383937363539383134343239323533333030353762306461393666336465613163353a3136373036313631373735227d6821c0631b34e489e80d4fba35164e5ad52a60d66865df7d7db84d2adbf53ec13ca2a100000000"
}