{
  "txid": "a12f2e5815c857df1132c96dd161f49364b47d42f9731554010aec6f7296a885",
  "version": 2,
  "locktime": 834458,
  "vin": [
    {
      "txid": "4cce6d7c13bf88a93178583460d3db263c5514653367bfd52672b9509a3124c8",
      "vout": 3,
      "prevout": {
        "scriptpubkey": "a914ebc916e5affeb8290d670bac946eb06462dd373587",
        "scriptpubkey_asm": "OP_HASH160 OP_PUSHBYTES_20 ebc916e5affeb8290d670bac946eb06462dd3735 OP_EQUAL",
        "scriptpubkey_type": "p2sh",
        "scriptpubkey_address": "3PBjcZdBDKcvXJzeGoCe4wr2M3m4jxBTq9",
        "value": 45720
      },
      "scriptsig": "16001452327faf05b8c2f31610fea85ee3cda55f6761c8",
      "scriptsig_asm": "OP_PUSHBYTES_22 001452327faf05b8c2f31610fea85ee3cda55f6761c8",
      "witness": [
        "304402203788f39f468c9757bbf3ff8527fc871aaaa549d7cf887db2c982589e3a334bac022040b666bdc8ddf0d8b8ce95f7747917318245380425e0f10fa0fc777fa91a465801",
        "032544dcf34538f3a5587f7d79c9eb26750859f589ed72544efe1802ab6ee40e42"
      ],
      "is_coinbase": false,
      "sequence": 4294967293,
      "inner_redeemscript_asm": "OP_0 OP_PUSHBYTES_20 52327faf05b8c2f31610fea85ee3cda55f6761c8"
    },
    {
      "txid": "fb2b9b5578de990e9b63ce43354f23c1fb8a1bbeda03eac116666bf1e62281a8",
      "vout": 1,
      "prevout": {
        "scriptpubkey": "a9143828375f5b8c8ef2de321a8b7220c356926ba26f87",
        "scriptpubkey_asm": "OP_HASH160 OP_PUSHBYTES_20 3828375f5b8c8ef2de321a8b7220c356926ba26f OP_EQUAL",
        "scriptpubkey_type": "p2sh",
        "scriptpubkey_address": "36owwZeVEa2Ho9AZdPUKsLtPi3qw2q1NUF",
        "value": 8109
      },
      "scriptsig": "1600141917dca9e9c5d84d4a914aee6f63fab8835bd2c3",
      "scriptsig_asm": "OP_PUSHBYTES_22 00141917dca9e9c5d84d4a914aee6f63fab8835bd2c3",
      "witness": [
        "30440220455231a5cd30b5110c6e5c5813064bad121268bd42ab5c1b66055a9dbdda2c0602203e7d30bd8a67adeb87774f8f5136f8703a6c3d523fb9666ef3d75e420d23820801",
        "03ce9637976b0dbe4daf4d4103d26765edbc955e4801dc5e3018ca13acc2ac2a1c"
      ],
      "is_coinbase": false,
      "sequence": 4294967293,
      "inner_redeemscript_asm": "OP_0 OP_PUSHBYTES_20 1917dca9e9c5d84d4a914aee6f63fab8835bd2c3"
    },
    {
      "txid": "4fc40fb4754629ea0600efa4f2f04ced00cc1f1b1f417d1f8e9fa9f7aefc3f8b",
      "vout": 5,
      "prevout": {
        "scriptpubkey": "a9148d35bf6bd302e192b0a906b70a5cc8c4df5a1d5487",
        "scriptpubkey_asm": "OP_HASH160 OP_PUSHBYTES_20 8d35bf6bd302e192b0a906b70a5cc8c4df5a1d54 OP_EQUAL",
        "scriptpubkey_type": "p2sh",
        "scriptpubkey_address": "3EZfb3sC4W7Xf7izUhbVLf7KSGBPaZu52w",
        "value": 46321
      },
      "scriptsig": "1600149c6cc0d6f8c00c58e50bad7c7b70e62067ec1854",
      "scriptsig_asm": "OP_PUSHBYTES_22 00149c6cc0d6f8c00c58e50bad7c7b70e62067ec1854",
      "witness": [
        "3044022003a2bb643de0efcd9b7cd2039669d0c46deb7a74d51a6e292417adc54f2207350220025c9809f715579f98b77f9e3d48cf8b59dbc07a7ccd1a7e1394a576a7490ae201",
        "0205e6c3c065256dfd7d91dd7763e6e5332e879312156eda07edb23cde70700d61"
      ],
      "is_coinbase": false,
      "sequence": 4294967293,
      "inner_redeemscript_asm": "OP_0 OP_PUSHBYTES_20 9c6cc0d6f8c00c58e50bad7c7b70e62067ec1854"
    },
    {
      "txid": "cbe417f423646df101156811755da16e35c31ce4b8f76b8c432d4014118aa6e2",
      "vout": 5,
      "prevout": {
        "scriptpubkey": "a914bd03cbec2644e044b5fe23ad7dd007a0b5ef7d0a87",
        "scriptpubkey_asm": "OP_HASH160 OP_PUSHBYTES_20 bd03cbec2644e044b5fe23ad7dd007a0b5ef7d0a OP_EQUAL",
        "scriptpubkey_type": "p2sh",
        "scriptpubkey_address": "3JvSBbBYUe728iQdbQuQEY2akuPTerKdxB",
        "value": 46258
      },
      "scriptsig": "16001446e98dbdc6abe829476fcf1878f89d9d91dba08d",
      "scriptsig_asm": "OP_PUSHBYTES_22 001446e98dbdc6abe829476fcf1878f89d9d91dba08d",
      "witness": [
        "304402202c67e82c64d456ad52d09bdb15fab3e4f079e492f3122ba7404bcd78d622e71f02201f35747635c3c7d8b143f6591250df080f795b91a646a4b6bf8d21b58236dd8401",
        "0268f942d1e4cc78deb841465515da081212c4e06a1496c5a41fd470ba6964d016"
      ],
      "is_coinbase": false,
      "sequence": 4294967293,
      "inner_redeemscript_asm": "OP_0 OP_PUSHBYTES_20 46e98dbdc6abe829476fcf1878f89d9d91dba08d"
    },
    {
      "txid": "3eeb13826fdb9f6a5fb02b2cc916d4408f61ba993d8720dc82c63c82d3b3aa0c",
      "vout": 5,
      "prevout": {
        "scriptpubkey": "a914d49b3d5fe0298f2ce0b6037f504b49474ddbe91c87",
        "scriptpubkey_asm": "OP_HASH160 OP_PUSHBYTES_20 d49b3d5fe0298f2ce0b6037f504b49474ddbe91c OP_EQUAL",
        "scriptpubkey_type": "p2sh",
        "scriptpubkey_address": "3M5B9TY4PUVj5qFxqCPk3U5FgzRHLD2Aoo",
        "value": 62399
      },
      "scriptsig": "16001475e52333f2057d62639764588e27d7c2f9258c95",
      "scriptsig_asm": "OP_PUSHBYTES_22 001475e52333f2057d62639764588e27d7c2f9258c95",
      "witness": [
        "304402207da5bdcc8a3fba56ff7aac93582ae3ffab88107ad5050426250e482483c9444c022039a4fd02c61fb6d8330fd2bc18a0ffe217a63ffdf15c16a73293546e0352739001",
        "02b53ec5009e082b255ec0b21a30e247fb377e3181b32a82a78719ac0f803f5a3b"
      ],
      "is_coinbase": false,
      "sequence": 4294967293,
      "inner_redeemscript_asm": "OP_0 OP_PUSHBYTES_20 75e52333f2057d62639764588e27d7c2f9258c95"
    },
    {
      "txid": "3eeb13826fdb9f6a5fb02b2cc916d4408f61ba993d8720dc82c63c82d3b3aa0c",
      "vout": 2,
      "prevout": {
        "scriptpubkey": "a914db5fc3c6894eb8326e94648b0589f810474238d487",
        "scriptpubkey_asm": "OP_HASH160 OP_PUSHBYTES_20 db5fc3c6894eb8326e94648b0589f810474238d4 OP_EQUAL",
        "scriptpubkey_type": "p2sh",
        "scriptpubkey_address": "3MgxdQVw2TL1qJntqqS1icftWuVR568WzV",
        "value": 49968
      },
      "scriptsig": "16001491c5787b4df22b7ab83ef7973986b471fe0120c9",
      "scriptsig_asm": "OP_PUSHBYTES_22 001491c5787b4df22b7ab83ef7973986b471fe0120c9",
      "witness": [
        "3044022024aa8c841736d63603c3c8377a262bf6d1daddd5560a2dc5b06ee988c51a10f6022006dfc19958731cc455dea95d3cac48f770e6eda3fa5deca467e577480073f83801",
        "020c8b8201079c5c9fca5f7e945fc11fbc2b20e5f9caa4c8616440809c84fc53ce"
      ],
      "is_coinbase": false,
      "sequence": 4294967293,
      "inner_redeemscript_asm": "OP_0 OP_PUSHBYTES_20 91c5787b4df22b7ab83ef7973986b471fe0120c9"
    },
    {
      "txid": "d0aac3adff2258c88b9fbab35df7028b534f8fd8f33b9b2fa0a925a86ea30f17",
      "vout": 1,
      "prevout": {
        "scriptpubkey": "a91466df2b77ac039b6254c259c7e4410310a9c116d987",
        "scriptpubkey_asm": "OP_HASH160 OP_PUSHBYTES_20 66df2b77ac039b6254c259c7e4410310a9c116d9 OP_EQUAL",
        "scriptpubkey_type": "p2sh",
        "scriptpubkey_address": "3B4xCDh7yZExR3UnHghUhdARqUtJbqaWv7",
        "value": 46815
      },
      "scriptsig": "160014470fcb71892c4be1097588c61e06d06831aeb82b",
      "scriptsig_asm": "OP_PUSHBYTES_22 0014470fcb71892c4be1097588c61e06d06831aeb82b",
      "witness": [
        "3044022056b6635bd1449c8b19fcb19f17c02e74c94772e0117e6a76acc8ac8e14ac3fd1022079ae0eb82baace927e2ce94f59159ad9c66e5860c08fbec4887687340ecfa1ce01",
        "038f20dd45a70c6b04d5015e23e397e8883807b44045527d5a6c187474398771b5"
      ],
      "is_coinbase": false,
      "sequence": 4294967293,
      "inner_redeemscript_asm": "OP_0 OP_PUSHBYTES_20 470fcb71892c4be1097588c61e06d06831aeb82b"
    },
    {
      "txid": "815b10d6da3e18f1383a231563cd39bda61f29a59d15969e6c6a2a8d9b7844b6",
      "vout": 1,
      "prevout": {
        "scriptpubkey": "a9144a7709d5cf5b08b41a0e01cdeed5b2008b58378d87",
        "scriptpubkey_asm": "OP_HASH160 OP_PUSHBYTES_20 4a7709d5cf5b08b41a0e01cdeed5b2008b58378d OP_EQUAL",
        "scriptpubkey_type": "p2sh",
        "scriptpubkey_address": "38UkXg22uywZfBXLDrEcs2BdZ8sK7Pid6N",
        "value": 19776
      },
      "scriptsig": "16001441601c0b084f8db8e69b786922e9466b21dd7382",
      "scriptsig_asm": "OP_PUSHBYTES_22 001441601c0b084f8db8e69b786922e9466b21dd7382",
      "witness": [
        "304402205666a0f10026cd8d5e37b7d4d22eec13867065d24b9e056e4da523a82d6da0070220667e7a97c39c28b6b20404ecca78d4c2b0035b0b8edf21e8a2d7bd3e02931bc601",
        "02f3069ebeb385d961aa068c017dd17d10f43ca28c5c27711018b81f603cd0b198"
      ],
      "is_coinbase": false,
      "sequence": 4294967293,
      "inner_redeemscript_asm": "OP_0 OP_PUSHBYTES_20 41601c0b084f8db8e69b786922e9466b21dd7382"
    },
    {
      "txid": "1ace8b9ae482a5289c3374662392b1ea545cdf40df62ff269dc3f7229d9d0d35",
      "vout": 0,
      "prevout": {
        "scriptpubkey": "a9140c2d0453d6f8410233dec7766f987ca71d79f19b87",
        "scriptpubkey_asm": "OP_HASH160 OP_PUSHBYTES_20 0c2d0453d6f8410233dec7766f987ca71d79f19b OP_EQUAL",
        "scriptpubkey_type": "p2sh",
        "scriptpubkey_address": "32oPxg7AfzcVWGHBfRsyVX1zpAzbpxN886",
        "value": 46616
      },
      "scriptsig": "16001494780453155b2a5a6db6bdcad4078823dbc17503",
      "scriptsig_asm": "OP_PUSHBYTES_22 001494780453155b2a5a6db6bdcad4078823dbc17503",
      "witness": [
        "304402200d52e76a67daf3b2d5316e35eecf4e38c6f55741126c5fdbc7e93ed0767f5a0f02206315f2c1f1657899d4363d894fa664ad39e4adc364c560a2ba4cdfba7f565f4201",
        "0227a331f453b9bcc1c88ba672920b8a4b328e2e0268b5e0c93b266f2ab754c825"
      ],
      "is_coinbase": false,
      "sequence": 4294967293,
      "inner_redeemscript_asm": "OP_0 OP_PUSHBYTES_20 94780453155b2a5a6db6bdcad4078823dbc17503"
    },
    {
      "txid": "ffcef3cc637d9f5e14f9b2cc8ab824a383f7f04603458f8c4dc0b6ff785b9d6c",
      "vout": 1,
      "prevout": {
        "scriptpubkey": "a914a2caec548c964afb5f49c62e787c5a01a868a1e087",
        "scriptpubkey_asm": "OP_HASH160 OP_PUSHBYTES_20 a2caec548c964afb5f49c62e787c5a01a868a1e0 OP_EQUAL",
        "scriptpubkey_type": "p2sh",
        "scriptpubkey_address": "3GXnUy9so3bMWEuZwu6DhLWP6QQ7Wt1NFY",
        "value": 46706
      },
      "scriptsig": "160014a1eea1abe2d64e936aefab917252f0529dac75cd",
      "scriptsig_asm": "OP_PUSHBYTES_22 0014a1eea1abe2d64e936aefab917252f0529dac75cd",
      "witness": [
        "30440220136d165cc62b1a432dc1711f66d8362bbb11597abafd051f15f6a262007ef51902204e80ca6fac6015fa507aeaa2cea70cb53c4446364f24b280db9b5e345a352f3401",
        "03c5a41c745225e561c897bfa4d53a079fb6918db04a2f93898e03e47d5c85c9ad"
      ],
      "is_coinbase": false,
      "sequence": 4294967293,
      "inner_redeemscript_asm": "OP_0 OP_PUSHBYTES_20 a1eea1abe2d64e936aefab917252f0529dac75cd"
    },
    {
      "txid": "0c6d6531e4b45c186d498132a2148fe9aa6dc8307676daa365024ba770158e23",
      "vout": 14,
      "prevout": {
        "scriptpubkey": "a914bc6d6c8a40cf22831c57f08ca93d0fc8970c46de87",
        "scriptpubkey_asm": "OP_HASH160 OP_PUSHBYTES_20 bc6d6c8a40cf22831c57f08ca93d0fc8970c46de OP_EQUAL",
        "scriptpubkey_type": "p2sh",
        "scriptpubkey_address": "3JsL3X6DcYWTf951NQTSXqQbq5HX9J5Ytq",
        "value": 1601
      },
      "scriptsig": "160014567d7e3bab8ec3ab1d1054d11eebf3f05ff55dee",
      "scriptsig_asm": "OP_PUSHBYTES_22 0014567d7e3bab8ec3ab1d1054d11eebf3f05ff55dee",
      "witness": [
        "304402204160a37acb50ae930a742508dbfcd0d14b96ddb99937853fa8618936bba44c3e022073c04095d81f85c6c0251950d0e017a0417cc86cfcb25d6ac9fb104aaeefb7f001",
        "03824fadc39d629bda90ebfa5003a8250f89e648ea4a192be725911fddcc564874"
      ],
      "is_coinbase": false,
      "sequence": 4294967293,
      "inner_redeemscript_asm": "OP_0 OP_PUSHBYTES_20 567d7e3bab8ec3ab1d1054d11eebf3f05ff55dee"
    },
    {
      "txid": "8881adb02dc6e3188437d6003b36574ca97eb12578c432342b8c679ce408d129",
      "vout": 2,
      "prevout": {
        "scriptpubkey": "a91407c7d4613b05e726fd05e078e74809ca0bb66aa487",
        "scriptpubkey_asm": "OP_HASH160 OP_PUSHBYTES_20 07c7d4613b05e726fd05e078e74809ca0bb66aa4 OP_EQUAL",
        "scriptpubkey_type": "p2sh",
        "scriptpubkey_address": "32QA3Hqo5vGCGwMvgBf8WU4inZZCjbVVrU",
        "value": 45947
      },
      "scriptsig": "1600147fcc78c8f2432fd03352c93372dc6b659c99669a",
      "scriptsig_asm": "OP_PUSHBYTES_22 00147fcc78c8f2432fd03352c93372dc6b659c99669a",
      "witness": [
        "30440220675ecb2c7bff10599cf15dbac02e74af0580f8eee2a48a6e3fea931c82751f95022023aa3b53cbd80c95cd8e2e951f5d03b8ee8f15bd629a0c6e7e55dfa2513ee84001",
        "03cc8c06790960690bd8960a5c90fdb8b54be02b60168088e77d621c725295406b"
      ],
      "is_coinbase": false,
      "sequence": 4294967293,
      "inner_redeemscript_asm": "OP_0 OP_PUSHBYTES_20 7fcc78c8f2432fd03352c93372dc6b659c99669a"
    },
    {
      "txid": "19c60736e40f08482c84ad82da4bb772798128bb09e85af60a9414d046066876",
      "vout": 0,
      "prevout": {
        "scriptpubkey": "a914cf694d9fefd40d22b461790690f932785d5dfe3987",
        "scriptpubkey_asm": "OP_HASH160 OP_PUSHBYTES_20 cf694d9fefd40d22b461790690f932785d5dfe39 OP_EQUAL",
        "scriptpubkey_type": "p2sh",
        "scriptpubkey_address": "3LbhwrBVPSm7cLQuFoLSzqvTndpeWXnXVn",
        "value": 7665
      },
      "scriptsig": "160014c41171a1cfac135c0f045981c8a5411b8a9ea790",
      "scriptsig_asm": "OP_PUSHBYTES_22 0014c41171a1cfac135c0f045981c8a5411b8a9ea790",
      "witness": [
        "3044022004d9565785bc062d7b1f8b5be5d36a9c8e5d24fb8466da26ab1e87e9a1ad847c02201d93bcc8fa06b2b11305ba3bb2e4e458fe4fa3e65ed96cf483ed6e2d96bd3f7901",
        "026a142e585fe8a049e2b9db1fd4d1e5fcbe4570872fa1d83dbe1ed423e2d4da32"
      ],
      "is_coinbase": false,
      "sequence": 4294967293,
      "inner_redeemscript_asm": "OP_0 OP_PUSHBYTES_20 c41171a1cfac135c0f045981c8a5411b8a9ea790"
    },
    {
      "txid": "12382fea3afd334835c57a834c74c11cf5a78828611b47cf4a642445b7540642",
      "vout": 1,
      "prevout": {
        "scriptpubkey": "a9146db94cb59fd8d8a2d180ee226b72234e0edad9df87",
        "scriptpubkey_asm": "OP_HASH160 OP_PUSHBYTES_20 6db94cb59fd8d8a2d180ee226b72234e0edad9df OP_EQUAL",
        "scriptpubkey_type": "p2sh",
        "scriptpubkey_address": "3BhBZJG77VYbUCeMN36mKnqQpWACpxh9qa",
        "value": 113666
      },
      "scriptsig": "160014e2e9c0c3a65d3db5f30af18270920481cb2dbd2e",
      "scriptsig_asm": "OP_PUSHBYTES_22 0014e2e9c0c3a65d3db5f30af18270920481cb2dbd2e",
      "witness": [
        "3044022060c9569fb8ec32ea2e162dc04c7213883c2aefe79d60dcb4a8a57b926e9141fe02201c6764aa0d219c2b81a503a125cc24e2f5da5c58de87b7d37157b50118ddbcf201",
        "03367070f8dc1a79d733902631da09d6ccf97680d60ec3ecab19c24188d2a2b979"
      ],
      "is_coinbase": false,
      "sequence": 4294967293,
      "inner_redeemscript_asm": "OP_0 OP_PUSHBYTES_20 e2e9c0c3a65d3db5f30af18270920481cb2dbd2e"
    },
    {
      "txid": "7011711b0fb09515cf002c8267eda111c2b330fcb22c994f905f29d11c0573f7",
      "vout": 4,
      "prevout": {
        "scriptpubkey": "a9148d35bf6bd302e192b0a906b70a5cc8c4df5a1d5487",
        "scriptpubkey_asm": "OP_HASH160 OP_PUSHBYTES_20 8d35bf6bd302e192b0a906b70a5cc8c4df5a1d54 OP_EQUAL",
        "scriptpubkey_type": "p2sh",
        "scriptpubkey_address": "3EZfb3sC4W7Xf7izUhbVLf7KSGBPaZu52w",
        "value": 92818
      },
      "scriptsig": "1600149c6cc0d6f8c00c58e50bad7c7b70e62067ec1854",
      "scriptsig_asm": "OP_PUSHBYTES_22 00149c6cc0d6f8c00c58e50bad7c7b70e62067ec1854",
      "witness": [
        "304402205eb1673962910a9e5fc74c325158ba8eaddc66b76897d08afd2a76dfd5437905022033bcbfd8eb81689551d67781804324e2dadb3c4f840215be2feb7170cb7bf57201",
        "0205e6c3c065256dfd7d91dd7763e6e5332e879312156eda07edb23cde70700d61"
      ],
      "is_coinbase": false,
      "sequence": 4294967293,
      "inner_redeemscript_asm": "OP_0 OP_PUSHBYTES_20 9c6cc0d6f8c00c58e50bad7c7b70e62067ec1854"
    },
    {
      "txid": "9d201f6c0a03686610a562c7343f90c72607a2b69b355331583381e283f0d9f6",
      "vout": 5,
      "prevout": {
        "scriptpubkey": "a9149b0d00437a93b6c34cf91be5f70962b459965dcc87",
        "scriptpubkey_asm": "OP_HASH160 OP_PUSHBYTES_20 9b0d00437a93b6c34cf91be5f70962b459965dcc OP_EQUAL",
        "scriptpubkey_type": "p2sh",
        "scriptpubkey_address": "3FprEc2xAuxACzJ7v4Lcaxi2PmztQdzRkH",
        "value": 45859
      },
      "scriptsig": "160014b63d6341a34ddc4fb43aab633ec0b438e7181fb4",
      "scriptsig_asm": "OP_PUSHBYTES_22 0014b63d6341a34ddc4fb43aab633ec0b438e7181fb4",
      "witness": [
        "3044022036389dad300b353678e4c45c9ea22d9dd0e63a77fb5f54997ccd16897d447111022070c3ecc8bffa364ba3d129ee9aac501cc45cee6c571046715855b69df780b45601",
        "02b6cdf479bfd3aff8b858baf0884e1184b5ca71b04ba7679ffe38a869261d520c"
      ],
      "is_coinbase": false,
      "sequence": 4294967293,
      "inner_redeemscript_asm": "OP_0 OP_PUSHBYTES_20 b63d6341a34ddc4fb43aab633ec0b438e7181fb4"
    }
  ],
  "vout": [
    {
      "scriptpubkey": "00141b2c7539e85030eab3a3521ef4208ad048a99464",
      "scriptpubkey_asm": "OP_0 OP_PUSHBYTES_20 1b2c7539e85030eab3a3521ef4208ad048a99464",
      "scriptpubkey_type": "v0_p2wpkh",
      "scriptpubkey_address": "bc1qrvk82w0g2qcw4var2g00ggy26py2n9ryld5wm4",
      "value": 23480
    },
    {
      "scriptpubkey": "001475d14ee65b33a2b395557cb92b81eccf7a35b31d",
      "scriptpubkey_asm": "OP_0 OP_PUSHBYTES_20 75d14ee65b33a2b395557cb92b81eccf7a35b31d",
      "scriptpubkey_type": "v0_p2wpkh",
      "scriptpubkey_address": "bc1qwhg5aejmxw3t89240jujhq0veaartvcaqjmx2f",
      "value": 76560
    },
    {
      "scriptpubkey": "0014e1425f573b1aba1de142fb630234b0da7529fb0d",
      "scriptpubkey_asm": "OP_0 OP_PUSHBYTES_20 e1425f573b1aba1de142fb630234b0da7529fb0d",
      "scriptpubkey_type": "v0_p2wpkh",
      "scriptpubkey_address": "bc1qu9p974emr2apmc2zld3syd9smf6jn7cdw5t895",
      "value": 87880
    },
    {
      "scriptpubkey": "0014edc3e277e8562c4731fc05dd86542f969f8ed013",
      "scriptpubkey_asm": "OP_0 OP_PUSHBYTES_20 edc3e277e8562c4731fc05dd86542f969f8ed013",
      "scriptpubkey_type": "v0_p2wpkh",
      "scriptpubkey_address": "bc1qahp7yalg2ckywv0uqhwcv4p0j60ca5qnvfv0au",
      "value": 11380
    },
    {
      "scriptpubkey": "a914b5b1b0d511d732bd1eacd140f6bc052c88e162d487",
      "scriptpubkey_asm": "OP_HASH160 OP_PUSHBYTES_20 b5b1b0d511d732bd1eacd140f6bc052c88e162d4 OP_EQUAL",
      "scriptpubkey_type": "p2sh",
      "scriptpubkey_address": "3JFj6SBEtudfkmV9wnErxaDWnyQLJkuXrd",
      "value": 109780
    },
    {
      "scriptpubkey": "0014e3292951d78090eb9c30cfe518b5da12f663776a",
      "scriptpubkey_asm": "OP_0 OP_PUSHBYTES_20 e3292951d78090eb9c30cfe518b5da12f663776a",
      "scriptpubkey_type": "v0_p2wpkh",
      "scriptpubkey_address": "bc1quv5jj5whszgwh8pselj33dw6ztmxxam2xz9x7z",
      "value": 347160
    },
    {
      "scriptpubkey": "001470335163f04ae9b7309038685e4c6e1f4d1c463a",
      "scriptpubkey_asm": "OP_0 OP_PUSHBYTES_20 70335163f04ae9b7309038685e4c6e1f4d1c463a",
      "scriptpubkey_type": "v0_p2wpkh",
      "scriptpubkey_address": "bc1qwqe4zclsft5mwvys8p59unrwrax3c336a64f83",
      "value": 30180
    },
    {
      "scriptpubkey": "00143bb581e039248aee4655910b907dd793c2e5ba4b",
      "scriptpubkey_asm": "OP_0 OP_PUSHBYTES_20 3bb581e039248aee4655910b907dd793c2e5ba4b",
      "scriptpubkey_type": "v0_p2wpkh",
      "scriptpubkey_address": "bc1q8w6crcpeyj9wu3j4jy9eqlwhj0pwtwjthalxgg",
      "value": 2780
    },
    {
      "scriptpubkey": "00147685c4c4c843092ffb656b301606f8ce6403fb5d",
      "scriptpubkey_asm": "OP_0 OP_PUSHBYTES_20 7685c4c4c843092ffb656b301606f8ce6403fb5d",
      "scriptpubkey_type": "v0_p2wpkh",
      "scriptpubkey_address": "bc1qw6zuf3xggvyjl7m9dvcpvphceejq876an6fdy5",
      "value": 16080
    }
  ],
  "size": 3028,
  "weight": 6970,
  "fee": 20964,
  "status": {
    "confirmed": true,
    "block_height": 834460,
    "block_hash": "00000000000000000000484a79b643b2524bbce82e5d8a442013fa5b8905ed98",
    "block_time": 1710307468
  },
  "hex": "02000000000110c824319a50b97226d5bf67336514553c26dbd36034587831a988bf137c6dce4c030000001716001452327faf05b8c2f31610fea85ee3cda55f6761c8fdffffffa88122e6f16b6616c1ea03dabe1b8afbc1234f3543ce639b0e99de78559b2bfb01000000171600141917dca9e9c5d84d4a914aee6f63fab8835bd2c3fdffffff8b3ffcaef7a99f8e1f7d411f1b1fcc00ed4cf0f2a4ef0006ea294675b40fc44f05000000171600149c6cc0d6f8c00c58e50bad7c7b70e62067ec1854fdffffffe2a68a1114402d438c6bf7b8e41cc3356ea15d7511681501f16d6423f417e4cb050000001716001446e98dbdc6abe829476fcf1878f89d9d91dba08dfdffffff0caab3d3823cc682dc20873d99ba618f40d416c92c2bb05f6a9fdb6f8213eb3e050000001716001475e52333f2057d62639764588e27d7c2f9258c95fdffffff0caab3d3823cc682dc20873d99ba618f40d416c92c2bb05f6a9fdb6f8213eb3e020000001716001491c5787b4df22b7ab83ef7973986b471fe0120c9fdffffff170fa36ea825a9a02f9b3bf3d88f4f538b02f75db3ba9f8bc85822ffadc3aad00100000017160014470fcb71892c4be1097588c61e06d06831aeb82bfdffffffb644789b8d2a6a6c9e96159da5291fa6bd39cd6315233a38f1183edad6105b81010000001716001441601c0b084f8db8e69b786922e9466b21dd7382fdffffff350d9d9d22f7c39d26ff62df40df5c54eab192236674339c28a582e49a8bce1a000000001716001494780453155b2a5a6db6bdcad4078823dbc17503fdffffff6c9d5b78ffb6c04d8c8f450346f0f783a324b88accb2f9145e9f7d63ccf3ceff0100000017160014a1eea1abe2d64e936aefab917252f0529dac75cdfdffffff238e1570a74b0265a3da767630c86daae98f14a23281496d185cb4e431656d0c0e00000017160014567d7e3bab8ec3ab1d1054d11eebf3f05ff55deefdffffff29d108e49c678c2b3432c47825b17ea94c57363b00d6378418e3c62db0ad818802000000171600147fcc78c8f2432fd03352c93372dc6b659c99669afdffffff76680646d014940af65ae809bb28817972b74bda82ad842c48080fe43607c6190000000017160014c41171a1cfac135c0f045981c8a5411b8a9ea790fdffffff420654b74524644acf471b612888a7f51cc1744c837ac5354833fd3aea2f38120100000017160014e2e9c0c3a65d3db5f30af18270920481cb2dbd2efdfffffff773051cd1295f904f992cb2fc30b3c211a1ed67822c00cf1595b00f1b71117004000000171600149c6cc0d6f8c00c58e50bad7c7b70e62067ec1854fdfffffff6d9f083e28133583153359bb6a20726c7903f34c762a5106668030a6c1f209d0500000017160014b63d6341a34ddc4fb43aab633ec0b438e7181fb4fdffffff09b85b0000000000001600141b2c7539e85030eab3a3521ef4208ad048a99464102b01000000000016001475d14ee65b33a2b395557cb92b81eccf7a35b31d4857010000000000160014e1425f573b1aba1de142fb630234b0da7529fb0d742c000000000000160014edc3e277e8562c4731fc05dd86542f969f8ed013d4ac01000000000017a914b5b1b0d511d732bd1eacd140f6bc052c88e162d487184c050000000000160014e3292951d78090eb9c30cfe518b5da12f663776ae47500000000000016001470335163f04ae9b7309038685e4c6e1f4d1c463adc0a0000000000001600143bb581e039248aee4655910b907dd793c2e5ba4bd03e0000000000001600147685c4c4c843092ffb656b301606f8ce6403fb5d0247304402203788f39f468c9757bbf3ff8527fc871aaaa549d7cf887db2c982589e3a334bac022040b666bdc8ddf0d8b8ce95f7747917318245380425e0f10fa0fc777fa91a46580121032544dcf34538f3a5587f7d79c9eb26750859f589ed72544efe1802ab6ee40e42024730440220455231a5cd30b5110c6e5c5813064bad121268bd42ab5c1b66055a9dbdda2c0602203e7d30bd8a67adeb87774f8f5136f8703a6c3d523fb9666ef3d75e420d238208012103ce9637976b0dbe4daf4d4103d26765edbc955e4801dc5e3018ca13acc2ac2a1c02473044022003a2bb643de0efcd9b7cd2039669d0c46deb7a74d51a6e292417adc54f2207350220025c9809f715579f98b77f9e3d48cf8b59dbc07a7ccd1a7e1394a576a7490ae201210205e6c3c065256dfd7d91dd7763e6e5332e879312156eda07edb23cde70700d610247304402202c67e82c64d456ad52d09bdb15fab3e4f079e492f3122ba7404bcd78d622e71f02201f35747635c3c7d8b143f6591250df080f795b91a646a4b6bf8d21b58236dd8401210268f942d1e4cc78deb841465515da081212c4e06a1496c5a41fd470ba6964d0160247304402207da5bdcc8a3fba56ff7aac93582ae3ffab88107ad5050426250e482483c9444c022039a4fd02c61fb6d8330fd2bc18a0ffe217a63ffdf15c16a73293546e03527390012102b53ec5009e082b255ec0b21a30e247fb377e3181b32a82a78719ac0f803f5a3b02473044022024aa8c841736d63603c3c8377a262bf6d1daddd5560a2dc5b06ee988c51a10f6022006dfc19958731cc455dea95d3cac48f770e6eda3fa5deca467e577480073f8380121020c8b8201079c5c9fca5f7e945fc11fbc2b20e5f9caa4c8616440809c84fc53ce02473044022056b6635bd1449c8b19fcb19f17c02e74c94772e0117e6a76acc8ac8e14ac3fd1022079ae0eb82baace927e2ce94f59159ad9c66e5860c08fbec4887687340ecfa1ce0121038f20dd45a70c6b04d5015e23e397e8883807b44045527d5a6c187474398771b50247304402205666a0f10026cd8d5e37b7d4d22eec13867065d24b9e056e4da523a82d6da0070220667e7a97c39c28b6b20404ecca78d4c2b0035b0b8edf21e8a2d7bd3e02931bc6012102f3069ebeb385d961aa068c017dd17d10f43ca28c5c27711018b81f603cd0b1980247304402200d52e76a67daf3b2d5316e35eecf4e38c6f55741126c5fdbc7e93ed0767f5a0f02206315f2c1f1657899d4363d894fa664ad39e4adc364c560a2ba4cdfba7f565f4201210227a331f453b9bcc1c88ba672920b8a4b328e2e0268b5e0c93b266f2ab754c825024730440220136d165cc62b1a432dc1711f66d8362bbb11597abafd051f15f6a262007ef51902204e80ca6fac6015fa507aeaa2cea70cb53c4446364f24b280db9b5e345a352f34012103c5a41c745225e561c897bfa4d53a079fb6918db04a2f93898e03e47d5c85c9ad0247304402204160a37acb50ae930a742508dbfcd0d14b96ddb99937853fa8618936bba44c3e022073c04095d81f85c6c0251950d0e017a0417cc86cfcb25d6ac9fb104aaeefb7f0012103824fadc39d629bda90ebfa5003a8250f89e648ea4a192be725911fddcc564874024730440220675ecb2c7bff10599cf15dbac02e74af0580f8eee2a48a6e3fea931c82751f95022023aa3b53cbd80c95cd8e2e951f5d03b8ee8f15bd629a0c6e7e55dfa2513ee840012103cc8c06790960690bd8960a5c90fdb8b54be02b60168088e77d621c725295406b02473044022004d9565785bc062d7b1f8b5be5d36a9c8e5d24fb8466da26ab1e87e9a1ad847c02201d93bcc8fa06b2b11305ba3bb2e4e458fe4fa3e65ed96cf483ed6e2d96bd3f790121026a142e585fe8a049e2b9db1fd4d1e5fcbe4570872fa1d83dbe1ed423e2d4da3202473044022060c9569fb8ec32ea2e162dc04c7213883c2aefe79d60dcb4a8a57b926e9141fe02201c6764aa0d219c2b81a503a125cc24e2f5da5c58de87b7d37157b50118ddbcf2012103367070f8dc1a79d733902631da09d6ccf97680d60ec3ecab19c24188d2a2b9790247304402205eb1673962910a9e5fc74c325158ba8eaddc66b76897d08afd2a76dfd5437905022033bcbfd8eb81689551d67781804324e2dadb3c4f840215be2feb7170cb7bf57201210205e6c3c065256dfd7d91dd7763e6e5332e879312156eda07edb23cde70700d6102473044022036389dad300b353678e4c45c9ea22d9dd0e63a77fb5f54997ccd16897d447111022070c3ecc8bffa364ba3d129ee9aac501cc45cee6c571046715855b69df780b456012102b6cdf479bfd3aff8b858baf0884e1184b5ca71b04ba7679ffe38a869261d520c9abb0c00"
}