{
  "txid": "a1336bbd99a29ea2f67ebe76fe412ab5ddaedda6ab558b691f3d4a70e4163dc3",
  "version": 2,
  "locktime": 0,
  "vin": [
    {
      "txid": "298ef9d30184ef7324454cd741a30e4cf7534f2a6c85b19763fec7dea0126178",
      "vout": 0,
      "prevout": {
        "scriptpubkey": "0014015f524f21a6d8e0c8cdf9338467814294dd9fbb",
        "scriptpubkey_asm": "OP_0 OP_PUSHBYTES_20 015f524f21a6d8e0c8cdf9338467814294dd9fbb",
        "scriptpubkey_type": "v0_p2wpkh",
        "scriptpubkey_address": "bc1qq904ynep5mvwpjxdlyecgeupg22dm8am6cfvgq",
        "value": 85620589
      },
      "scriptsig": "",
      "scriptsig_asm": "",
      "witness": [
        "3044022072754f6b2c7f47cd2ebcb60b12194881889c78a773b30717f62c7a0d457e9f1e022026e0e07a4859a6f6dc9578caad8cf726a655830ecc3a6c7dd6ce7dd01bc8099801",
        "03e0ebb9dd2a9314f16c76a0c68ea4dd2355033f95a3294b01eaf1f6aa1aaaa3fd"
      ],
      "is_coinbase": false,
      "sequence": 4294967280
    }
  ],
  "vout": [
    {
      "scriptpubkey": "0014015f524f21a6d8e0c8cdf9338467814294dd9fbb",
      "scriptpubkey_asm": "OP_0 OP_PUSHBYTES_20 015f524f21a6d8e0c8cdf9338467814294dd9fbb",
      "scriptpubkey_type": "v0_p2wpkh",
      "scriptpubkey_address": "bc1qq904ynep5mvwpjxdlyecgeupg22dm8am6cfvgq",
      "value": 74512357
    },
    {
      "scriptpubkey": "76a914fafd9fc1e9e0880f2a496712604aa73346cf89a588ac",
      "scriptpubkey_asm": "OP_DUP OP_HASH160 OP_PUSHBYTES_20 fafd9fc1e9e0880f2a496712604aa73346cf89a5 OP_EQUALVERIFY OP_CHECKSIG",
      "scriptpubkey_type": "p2pkh",
      "scriptpubkey_address": "1Pt7m4p5Syi3STwEAinK5fRoE1tGLEZ7vu",
      "value": 77411
    },
    {
      "scriptpubkey": "76a914fafd9fc1e9e0880f2a496712604aa73346cf89a588ac",
      "scriptpubkey_asm": "OP_DUP OP_HASH160 OP_PUSHBYTES_20 fafd9fc1e9e0880f2a496712604aa73346cf89a5 OP_EQUALVERIFY OP_CHECKSIG",
      "scriptpubkey_type": "p2pkh",
      "scriptpubkey_address": "1Pt7m4p5Syi3STwEAinK5fRoE1tGLEZ7vu",
      "value": 265946
    },
    {
      "scriptpubkey": "a9140dbf9b3081362a495d231fc1e042d4662d7bb44b87",
      "scriptpubkey_asm": "OP_HASH160 OP_PUSHBYTES_20 0dbf9b3081362a495d231fc1e042d4662d7bb44b OP_EQUAL",
      "scriptpubkey_type": "p2sh",
      "scriptpubkey_address": "32wiF52rr8Nf1yzuiurio9efnYiAbiG9EN",
      "value": 152000
    },
    {
      "scriptpubkey": "00146716e77d0937837c757150acf4b789465539149f",
      "scriptpubkey_asm": "OP_0 OP_PUSHBYTES_20 6716e77d0937837c757150acf4b789465539149f",
      "scriptpubkey_type": "v0_p2wpkh",
      "scriptpubkey_address": "bc1qvutwwlgfx7phcat32zk0fdufge2nj9ylxp943e",
      "value": 1031924
    },
    {
      "scriptpubkey": "0014d4777648d8a394b4181f1e6ed2b822185228cf98",
      "scriptpubkey_asm": "OP_0 OP_PUSHBYTES_20 d4777648d8a394b4181f1e6ed2b822185228cf98",
      "scriptpubkey_type": "v0_p2wpkh",
      "scriptpubkey_address": "bc1q63mhvjxc5w2tgxqlrehd9wpzrpfz3nucpx7z3n",
      "value": 1434901
    },
    {
      "scriptpubkey": "0014946e706406821b1bcb0c7f5a5086882c3c2fc289",
      "scriptpubkey_asm": "OP_0 OP_PUSHBYTES_20 946e706406821b1bcb0c7f5a5086882c3c2fc289",
      "scriptpubkey_type": "v0_p2wpkh",
      "scriptpubkey_address": "bc1qj3h8qeqxsgd3hjcv0ad9pp5g9s7zls5flll0em",
      "value": 8132718
    }
  ],
  "size": 384,
  "weight": 1209,
  "fee": 13332,
  "status": {
    "confirmed": true,
    "block_height": 834638,
    "block_hash": "000000000000000000025f742c626208ac87e0b7d15054abb4a19ca2d735a54e",
    "block_time": 1710405325
  },
  "hex": "02000000000101786112a0dec7fe6397b1856c2a4f53f74c0ea341d74c452473ef8401d3f98e290000000000f0ffffff07e5f7700400000000160014015f524f21a6d8e0c8cdf9338467814294dd9fbb632e0100000000001976a914fafd9fc1e9e0880f2a496712604aa73346cf89a588acda0e0400000000001976a914fafd9fc1e9e0880f2a496712604aa73346cf89a588acc05102000000000017a9140dbf9b3081362a495d231fc1e042d4662d7bb44b87f4be0f00000000001600146716e77d0937837c757150acf4b789465539149f15e5150000000000160014d4777648d8a394b4181f1e6ed2b822185228cf986e187c0000000000160014946e706406821b1bcb0c7f5a5086882c3c2fc28902473044022072754f6b2c7f47cd2ebcb60b12194881889c78a773b30717f62c7a0d457e9f1e022026e0e07a4859a6f6dc9578caad8cf726a655830ecc3a6c7dd6ce7dd01bc80998012103e0ebb9dd2a9314f16c76a0c68ea4dd2355033f95a3294b01eaf1f6aa1aaaa3fd00000000"
}