{
  "txid": "a14630eb406a928c6f08c226511784bc851212327822e4a6c6226e65ba0ad87b",
  "version": 1,
  "locktime": 0,
  "vin": [
    {
      "txid": "125c5fa3a8e76fe5a738d877c5599d1d7a7ce36c2e693aff7da5f1110688df16",
      "vout": 1,
      "prevout": {
        "scriptpubkey": "a9146d7991361c8d8afe09ba79c0938180ee712dc81187",
        "scriptpubkey_asm": "OP_HASH160 OP_PUSHBYTES_20 6d7991361c8d8afe09ba79c0938180ee712dc811 OP_EQUAL",
        "scriptpubkey_type": "p2sh",
        "scriptpubkey_address": "3BfsD6KqaiqfXweQgQZkDv3mP1ctFmTo2M",
        "value": 65363
      },
      "scriptsig": "2200202e96f3dc18fcd078fede559a532f5a0a542108940c6404b01f101b3b6510a5cc",
      "scriptsig_asm": "OP_PUSHBYTES_34 00202e96f3dc18fcd078fede559a532f5a0a542108940c6404b01f101b3b6510a5cc",
      "witness": [
        "",
        "3044022027653fd94e7bc503e00296d5a7f54b9e78199b9b1ade9f8116c1b040d867fa9d0220422cbeea447814ebc15fda6c18be53ad63582dcf584bfd9c0240a40bf2468c6e01",
        "304402206e78ef8e88dd7c5990a028642f521cf203b72ddbe4aca2746f2c908e9375d97f022068444e42670ac4421b05a0b991afa1c696ad43a455eaa62a6d8f0bcdc3e8e29c01",
        "52210321e0a273c8be701e5d0d35f2ea452ff5e5e1eed305fa3161f1c2911d0f418e372103182a0fb116a8c1783045e4893c79d2cf8ec6edc1563702480c00adbecd40650c210296a31b92a002bd1e1cd059eb3f4ba411031b8ded0d25967068dad6d18f59b44553ae"
      ],
      "is_coinbase": false,
      "sequence": 4294967295,
      "inner_redeemscript_asm": "OP_0 OP_PUSHBYTES_32 2e96f3dc18fcd078fede559a532f5a0a542108940c6404b01f101b3b6510a5cc",
      "inner_witnessscript_asm": "OP_PUSHNUM_2 OP_PUSHBYTES_33 0321e0a273c8be701e5d0d35f2ea452ff5e5e1eed305fa3161f1c2911d0f418e37 OP_PUSHBYTES_33 03182a0fb116a8c1783045e4893c79d2cf8ec6edc1563702480c00adbecd40650c OP_PUSHBYTES_33 0296a31b92a002bd1e1cd059eb3f4ba411031b8ded0d25967068dad6d18f59b445 OP_PUSHNUM_3 OP_CHECKMULTISIG"
    },
    {
      "txid": "2e0f0be8ca45fd6f6db3d069a8db6867b8dde19641ac169ae573346161e3e602",
      "vout": 21,
      "prevout": {
        "scriptpubkey": "a9146d7991361c8d8afe09ba79c0938180ee712dc81187",
        "scriptpubkey_asm": "OP_HASH160 OP_PUSHBYTES_20 6d7991361c8d8afe09ba79c0938180ee712dc811 OP_EQUAL",
        "scriptpubkey_type": "p2sh",
        "scriptpubkey_address": "3BfsD6KqaiqfXweQgQZkDv3mP1ctFmTo2M",
        "value": 65521
      },
      "scriptsig": "2200202e96f3dc18fcd078fede559a532f5a0a542108940c6404b01f101b3b6510a5cc",
      "scriptsig_asm": "OP_PUSHBYTES_34 00202e96f3dc18fcd078fede559a532f5a0a542108940c6404b01f101b3b6510a5cc",
      "witness": [
        "",
        "3044022021f85d6ecf596d2720003e2ed4fc91c0957a9969b451645df6e367a9604796030220217706a8f22d66af60c070a9b27800478af3af4d476adceead122e8b61351eeb01",
        "3044022077493096e59f49d9b5244acc97a1fd6cbd05465914fc337a5dc5cb4ffb5ca59f02200341174e25201f371ca43034bca8e11c25e9174ee045b3ecb3ad7099237dc47101",
        "52210321e0a273c8be701e5d0d35f2ea452ff5e5e1eed305fa3161f1c2911d0f418e372103182a0fb116a8c1783045e4893c79d2cf8ec6edc1563702480c00adbecd40650c210296a31b92a002bd1e1cd059eb3f4ba411031b8ded0d25967068dad6d18f59b44553ae"
      ],
      "is_coinbase": false,
      "sequence": 4294967295,
      "inner_redeemscript_asm": "OP_0 OP_PUSHBYTES_32 2e96f3dc18fcd078fede559a532f5a0a542108940c6404b01f101b3b6510a5cc",
      "inner_witnessscript_asm": "OP_PUSHNUM_2 OP_PUSHBYTES_33 0321e0a273c8be701e5d0d35f2ea452ff5e5e1eed305fa3161f1c2911d0f418e37 OP_PUSHBYTES_33 03182a0fb116a8c1783045e4893c79d2cf8ec6edc1563702480c00adbecd40650c OP_PUSHBYTES_33 0296a31b92a002bd1e1cd059eb3f4ba411031b8ded0d25967068dad6d18f59b445 OP_PUSHNUM_3 OP_CHECKMULTISIG"
    },
    {
      "txid": "2ec6410e68307c59398a24cd957b4ded926084ea3ab0c3c5412982172d21d3da",
      "vout": 2,
      "prevout": {
        "scriptpubkey": "a914ca3c3de10f7635b7ab99b9001a3b81fee2c03b5087",
        "scriptpubkey_asm": "OP_HASH160 OP_PUSHBYTES_20 ca3c3de10f7635b7ab99b9001a3b81fee2c03b50 OP_EQUAL",
        "scriptpubkey_type": "p2sh",
        "scriptpubkey_address": "3L8LaxhwqV3bKLZA5tMgWLvtwYSpJYK3uC",
        "value": 74790
      },
      "scriptsig": "220020e94931561ba88bec3baf6b63c46e8178f8de26b9b2ffa66400682413bfd763f5",
      "scriptsig_asm": "OP_PUSHBYTES_34 0020e94931561ba88bec3baf6b63c46e8178f8de26b9b2ffa66400682413bfd763f5",
      "witness": [
        "",
        "3045022100f5dac8798bbd2c8794dbeec6cc4548bbd430897752e46169a0d97484fd6435fb022076f1c31ab26b817ea3f9a5076991c073122d25c6030d11b5a1ecf4a0fa96a16001",
        "304402207df31f8bdaae9cc094794627f761eb09a535c63cce66cbca63f8a726ac3a45350220030345f28783935a479d924747126af4ec29cda2a39d17cbbbf8fdf18e2e68db01",
        "522102506da1f0e578d59ce44bb039c7fbe3164db2b851f718e7804527dd1a47c3d32f21024f9600fc425f2e80a75f9613cef823208dd73da5a6f55d849867477dfe1e4be521039c8877ef09bcfe7c60d23ac20b0235273dae0b1ace7b88a042b7cea19827f93f53ae"
      ],
      "is_coinbase": false,
      "sequence": 4294967295,
      "inner_redeemscript_asm": "OP_0 OP_PUSHBYTES_32 e94931561ba88bec3baf6b63c46e8178f8de26b9b2ffa66400682413bfd763f5",
      "inner_witnessscript_asm": "OP_PUSHNUM_2 OP_PUSHBYTES_33 02506da1f0e578d59ce44bb039c7fbe3164db2b851f718e7804527dd1a47c3d32f OP_PUSHBYTES_33 024f9600fc425f2e80a75f9613cef823208dd73da5a6f55d849867477dfe1e4be5 OP_PUSHBYTES_33 039c8877ef09bcfe7c60d23ac20b0235273dae0b1ace7b88a042b7cea19827f93f OP_PUSHNUM_3 OP_CHECKMULTISIG"
    },
    {
      "txid": "6c228b0f7ae4c6e6f10935edb76a2f03d21bcc6f6d5329f471b316ab2467e655",
      "vout": 1,
      "prevout": {
        "scriptpubkey": "a914238445b9ab694c368100485498e198800361f84987",
        "scriptpubkey_asm": "OP_HASH160 OP_PUSHBYTES_20 238445b9ab694c368100485498e198800361f849 OP_EQUAL",
        "scriptpubkey_type": "p2sh",
        "scriptpubkey_address": "34vp2hiWnQGxNCyhEyk1EzkoxHz5X1h77T",
        "value": 23436
      },
      "scriptsig": "220020a3ecc61c0dbd597143f6648b40913380992550c3f6860e87b32f0bca85db35fc",
      "scriptsig_asm": "OP_PUSHBYTES_34 0020a3ecc61c0dbd597143f6648b40913380992550c3f6860e87b32f0bca85db35fc",
      "witness": [
        "",
        "3045022100dcda305efdc428c424b35463b7177acd00cf5e2e18f138eabf29e1fe4ffd7cc402200f472aafed421bb18fa34711c89c06a7ad32009af20263756b60157c95117b1701",
        "3044022029314c2739e0c5059faa0f08f7f578288992e91495e7afa2eba0e4f4dc3aeb2502200110f635ea4103afbd3fcea938af85568571755d782096bb9c5e41e9d04023d101",
        "522103f92871478db854d5b2282d0e3504bc2ae0acc24d176b4f481ce40158c485ddca21022013bdd733319760d7e8159bbf6dea8764c869518046c2890359827d43fa61af21023473e4b2594189373ac97c1d2c39804345ac4baeb4d31ca1887c43e05c1349bc53ae"
      ],
      "is_coinbase": false,
      "sequence": 4294967295,
      "inner_redeemscript_asm": "OP_0 OP_PUSHBYTES_32 a3ecc61c0dbd597143f6648b40913380992550c3f6860e87b32f0bca85db35fc",
      "inner_witnessscript_asm": "OP_PUSHNUM_2 OP_PUSHBYTES_33 03f92871478db854d5b2282d0e3504bc2ae0acc24d176b4f481ce40158c485ddca OP_PUSHBYTES_33 022013bdd733319760d7e8159bbf6dea8764c869518046c2890359827d43fa61af OP_PUSHBYTES_33 023473e4b2594189373ac97c1d2c39804345ac4baeb4d31ca1887c43e05c1349bc OP_PUSHNUM_3 OP_CHECKMULTISIG"
    },
    {
      "txid": "7c90c81a4f225a036d410f7ffa482470926a0b0eeb23c1bb4491d6343e5563ac",
      "vout": 5,
      "prevout": {
        "scriptpubkey": "a914a0bfbb0792209246cdc90da06dd72bd1c9ff829b87",
        "scriptpubkey_asm": "OP_HASH160 OP_PUSHBYTES_20 a0bfbb0792209246cdc90da06dd72bd1c9ff829b OP_EQUAL",
        "scriptpubkey_type": "p2sh",
        "scriptpubkey_address": "3GLyiuoQ4JLqKPNHqhsw1MfHfgxLrrPXhN",
        "value": 69160
      },
      "scriptsig": "220020eaabd4722ab60e9a828f535e845cb33755d83d89000019e536018646e93a5224",
      "scriptsig_asm": "OP_PUSHBYTES_34 0020eaabd4722ab60e9a828f535e845cb33755d83d89000019e536018646e93a5224",
      "witness": [
        "",
        "304402206407ec22801f062d2dfd77502835a27ff6b05143e7b90ead1d567a6d7806973a022032912b97b016c2f5b42ebcaf96318d88bd244262eb548149a71d69547465351401",
        "30440220075af6deb59aa101836e3fcbd8bc130904a366e503ae76f6326c64c139e51fdd0220186b63ee89cb64572125c9f442d27f508ecdab8a8d7e0221d023e4eeb7fa78c601",
        "52210293f4a795a56858832ab4889a64a9c729bb7bef3523ed5d860b4f6ba24820d6af2103cdfb4155012019b96f3407f1cc56f00fa301a3b357def18ea238f2e9087f0e38210265003133c91858edb6dab5dec3b3ad2e705fe4d34dd333e0f67adad9e244eaa453ae"
      ],
      "is_coinbase": false,
      "sequence": 4294967295,
      "inner_redeemscript_asm": "OP_0 OP_PUSHBYTES_32 eaabd4722ab60e9a828f535e845cb33755d83d89000019e536018646e93a5224",
      "inner_witnessscript_asm": "OP_PUSHNUM_2 OP_PUSHBYTES_33 0293f4a795a56858832ab4889a64a9c729bb7bef3523ed5d860b4f6ba24820d6af OP_PUSHBYTES_33 03cdfb4155012019b96f3407f1cc56f00fa301a3b357def18ea238f2e9087f0e38 OP_PUSHBYTES_33 0265003133c91858edb6dab5dec3b3ad2e705fe4d34dd333e0f67adad9e244eaa4 OP_PUSHNUM_3 OP_CHECKMULTISIG"
    },
    {
      "txid": "8b27440a66886ece41a36a3441569132bf5cf830fdfa3b4e2ad8187057c53d2a",
      "vout": 0,
      "prevout": {
        "scriptpubkey": "a9141ffca338348adfb4dc8c590db4997c5e9ab0c9e787",
        "scriptpubkey_asm": "OP_HASH160 OP_PUSHBYTES_20 1ffca338348adfb4dc8c590db4997c5e9ab0c9e7 OP_EQUAL",
        "scriptpubkey_type": "p2sh",
        "scriptpubkey_address": "34c9X4G8T6puj2zA9vG8Y32kiefuB29j1R",
        "value": 64000
      },
      "scriptsig": "2200207407af4fe83f9a907f50e13fd34f5eb5f6d7dc0045dbdcd710e5d3338e5080d9",
      "scriptsig_asm": "OP_PUSHBYTES_34 00207407af4fe83f9a907f50e13fd34f5eb5f6d7dc0045dbdcd710e5d3338e5080d9",
      "witness": [
        "",
        "3044022021871c7a2693f8650a23ac8b0851580e498d903efbd07647c93a2fbf4db50924022055787a3f5ed64dbc732d0b99ba5b28fb42458b3e37866a457978c5fa7e876ad601",
        "304402203849dff858f897f796c8476a700052b5b22d40b3ed9a1b27771fbe33dcb29bd202200e294d44e1b425042107921c1a72f80505c9398c80a9718dfbfc4e8452212db301",
        "5221023b1a523685fb4d94babeaa307005e86990ab21919f5d7c44dce4d5bc34390ad321039d9379e08221c84398cd686ae902b3af6147b24f0a578979368ff7243b02c18f21032d1c855aa81bb44236ae5be2737eb0a044550da614d5418b147bafd45aa7e85e53ae"
      ],
      "is_coinbase": false,
      "sequence": 4294967295,
      "inner_redeemscript_asm": "OP_0 OP_PUSHBYTES_32 7407af4fe83f9a907f50e13fd34f5eb5f6d7dc0045dbdcd710e5d3338e5080d9",
      "inner_witnessscript_asm": "OP_PUSHNUM_2 OP_PUSHBYTES_33 023b1a523685fb4d94babeaa307005e86990ab21919f5d7c44dce4d5bc34390ad3 OP_PUSHBYTES_33 039d9379e08221c84398cd686ae902b3af6147b24f0a578979368ff7243b02c18f OP_PUSHBYTES_33 032d1c855aa81bb44236ae5be2737eb0a044550da614d5418b147bafd45aa7e85e OP_PUSHNUM_3 OP_CHECKMULTISIG"
    },
    {
      "txid": "8da585b86e2458bc02a9d472692e285a14713d21c4d5917255b5b57f741221b5",
      "vout": 1,
      "prevout": {
        "scriptpubkey": "0020a397144f533c94646121b116b839ad743dd1279b4afd1c59e9fad635c24fa4ce",
        "scriptpubkey_asm": "OP_0 OP_PUSHBYTES_32 a397144f533c94646121b116b839ad743dd1279b4afd1c59e9fad635c24fa4ce",
        "scriptpubkey_type": "v0_p2wsh",
        "scriptpubkey_address": "bc1q5wt3gn6n8j2xgcfpkyttswddws7azfumft73ck0flttrtsj05n8q3vd3rz",
        "value": 1039097
      },
      "scriptsig": "",
      "scriptsig_asm": "",
      "witness": [
        "",
        "304402204366ae432cfec08777a57a39d5d8adfd9298477f9dd6f869a7f9b1fe3e5cfc0f02206a0d10b27a163032f449d529150d4900475fbd475fb08733deef2baec6f9cad701",
        "3044022052598dc6b3fe2eb89d9b3072346c796476c6fd60775c3091b80922aa720319ee02201afbede778454c4189e890d1a44dbacb4995bf57764ca6a8385c3c1a2c8fd0a101",
        "522102dbf7d86460f16f443b8c5e51e7f57d6ffccae091bad8752a4345966b9e8aa463210327d3a4ef273645dd352170028c5d35b7e606db5937281359639554771524679b2103b35f21e5876af28a62632f90cbe5fafc4381b0eb5da5bc6d9f64cd98f022aaa853ae"
      ],
      "is_coinbase": false,
      "sequence": 4294967295,
      "inner_witnessscript_asm": "OP_PUSHNUM_2 OP_PUSHBYTES_33 02dbf7d86460f16f443b8c5e51e7f57d6ffccae091bad8752a4345966b9e8aa463 OP_PUSHBYTES_33 0327d3a4ef273645dd352170028c5d35b7e606db5937281359639554771524679b OP_PUSHBYTES_33 03b35f21e5876af28a62632f90cbe5fafc4381b0eb5da5bc6d9f64cd98f022aaa8 OP_PUSHNUM_3 OP_CHECKMULTISIG"
    },
    {
      "txid": "c376e439faa78b3a701d4be304f28ae9ba87ffe96c39eacdca5a9ebf6a2e0290",
      "vout": 11,
      "prevout": {
        "scriptpubkey": "a91474453d021adc975041d32166d6fce922d819289287",
        "scriptpubkey_asm": "OP_HASH160 OP_PUSHBYTES_20 74453d021adc975041d32166d6fce922d8192892 OP_EQUAL",
        "scriptpubkey_type": "p2sh",
        "scriptpubkey_address": "3CHoFZLpmVnirNouBVAN2uHRsBskd4CRtv",
        "value": 80000
      },
      "scriptsig": "220020ede9182a14b208397b512dab47a2cd38fcc511518f80ab9fd66bf6efb82a8d0b",
      "scriptsig_asm": "OP_PUSHBYTES_34 0020ede9182a14b208397b512dab47a2cd38fcc511518f80ab9fd66bf6efb82a8d0b",
      "witness": [
        "",
        "30450221009b5c3020a963f00f8bde909d7379fc61d24fc6fe959e086409dd1fb80304b31f02200d711633a1e594f4c422c6f0803f1fe5b3b03780fba2e969711d7a24fa86da3c01",
        "30440220302a80ba632c8a0c16df7819fc337bfd658cc21f14f9e3a64a9f2e378a45f67702206ffd8e1c021e87fa4d923184cc6515fa40cbb157d511bac64df0378bcc1f139c01",
        "5221036491407ee4958e54bf0c6a4f431735298f6df3dd51099ca43f45fd4b4c3c11f82103047ba425e70a290c2550b27024490d1a3ce7f5cf2b1cab75ba195e6d92dd0a4321020c0f648945045838a55f04c524ac7a280f3f9411657d0348398265abfe61810853ae"
      ],
      "is_coinbase": false,
      "sequence": 4294967295,
      "inner_redeemscript_asm": "OP_0 OP_PUSHBYTES_32 ede9182a14b208397b512dab47a2cd38fcc511518f80ab9fd66bf6efb82a8d0b",
      "inner_witnessscript_asm": "OP_PUSHNUM_2 OP_PUSHBYTES_33 036491407ee4958e54bf0c6a4f431735298f6df3dd51099ca43f45fd4b4c3c11f8 OP_PUSHBYTES_33 03047ba425e70a290c2550b27024490d1a3ce7f5cf2b1cab75ba195e6d92dd0a43 OP_PUSHBYTES_33 020c0f648945045838a55f04c524ac7a280f3f9411657d0348398265abfe618108 OP_PUSHNUM_3 OP_CHECKMULTISIG"
    },
    {
      "txid": "c6272b11328c33df3daac5084b24ab38c0c106e00a468af77cc9fea71c79ab5b",
      "vout": 0,
      "prevout": {
        "scriptpubkey": "a914ff7cb45f1dd837cd9802f6034b56f9c634d1345987",
        "scriptpubkey_asm": "OP_HASH160 OP_PUSHBYTES_20 ff7cb45f1dd837cd9802f6034b56f9c634d13459 OP_EQUAL",
        "scriptpubkey_type": "p2sh",
        "scriptpubkey_address": "3Qyud5xpyfUkzVrg72SzpgPPywqxuoCgHF",
        "value": 38023
      },
      "scriptsig": "22002082017214e4cb1872656c84bcc0a3cfabb05e01edb5ef1dcd94bff7cba1ac62cf",
      "scriptsig_asm": "OP_PUSHBYTES_34 002082017214e4cb1872656c84bcc0a3cfabb05e01edb5ef1dcd94bff7cba1ac62cf",
      "witness": [
        "",
        "3045022100aa559f6333c7565f14156e9c105957fc5d87f43a1b7c4ef38d5ea01a0c1004ff02207e584617cb2060b9b3bedae7889aa9546885dee3976f02cf33407f0aa80468dd01",
        "304402204136d0882ef4418fe2a7c6d63d660f5cd79bca3a9b69cb957a646dd91f7e076f022006d820fe0c7ea9d0324310008c929660204cf62334fdca1cda8ed3a7e70ae0b501",
        "5221034f937e5f972cf5e29d00b804a67326c7ed6f264898af0cbcf62b7a9a23e1c36a2102703d8ab78d5fe51dd18f5427be9550290f76ada6370d951f95ea701ac750dc012102c819a009deb53aac2cabe960270f2f22d7d0626a8429b469f07294db1be0465753ae"
      ],
      "is_coinbase": false,
      "sequence": 4294967295,
      "inner_redeemscript_asm": "OP_0 OP_PUSHBYTES_32 82017214e4cb1872656c84bcc0a3cfabb05e01edb5ef1dcd94bff7cba1ac62cf",
      "inner_witnessscript_asm": "OP_PUSHNUM_2 OP_PUSHBYTES_33 034f937e5f972cf5e29d00b804a67326c7ed6f264898af0cbcf62b7a9a23e1c36a OP_PUSHBYTES_33 02703d8ab78d5fe51dd18f5427be9550290f76ada6370d951f95ea701ac750dc01 OP_PUSHBYTES_33 02c819a009deb53aac2cabe960270f2f22d7d0626a8429b469f07294db1be04657 OP_PUSHNUM_3 OP_CHECKMULTISIG"
    },
    {
      "txid": "d4793a59a3bfaaf3b6f623e0ab1be1161e80d138ef726e10636388b75ed2d780",
      "vout": 1,
      "prevout": {
        "scriptpubkey": "a91497c3c1b2287a795276b9cd627d7e7d3b7148bcf887",
        "scriptpubkey_asm": "OP_HASH160 OP_PUSHBYTES_20 97c3c1b2287a795276b9cd627d7e7d3b7148bcf8 OP_EQUAL",
        "scriptpubkey_type": "p2sh",
        "scriptpubkey_address": "3FXUTvFNYmxvXyvjXATe3v3dkfBB99WGeK",
        "value": 61953
      },
      "scriptsig": "220020195d07b2a34b2a377d0cce1c8e3ca21a9c298d6f2b1451bae817e151f59d72d2",
      "scriptsig_asm": "OP_PUSHBYTES_34 0020195d07b2a34b2a377d0cce1c8e3ca21a9c298d6f2b1451bae817e151f59d72d2",
      "witness": [
        "",
        "304402206d6caffec40e6e23b57474492a38826060789adda04c912e06f9670324fb517802200c243af5f9ce68cb483d26fbabb72d68b013d66cf169f274aca4745e928c55c001",
        "304402206e0b32f68e0deb2497272bf7486f7de54b3e2b2c9df9e60689209494045d84cd0220774bc169d297449f7ede0457cf251797df7324b8720cc6c5dd9e14688390820601",
        "5221035f6eec2939100a14366c248ce8f6f8f5cb263e39b4f9555ef18fa3cca2db5aaa21028a82035bd8cd600e45779a2412c5ef788407a03c427cb4bc64bcda20ff7891e42102ecdf0caf139a981d291415fdfd121bdb1292a1b4cd65d499d8925403ccf1f1c353ae"
      ],
      "is_coinbase": false,
      "sequence": 4294967295,
      "inner_redeemscript_asm": "OP_0 OP_PUSHBYTES_32 195d07b2a34b2a377d0cce1c8e3ca21a9c298d6f2b1451bae817e151f59d72d2",
      "inner_witnessscript_asm": "OP_PUSHNUM_2 OP_PUSHBYTES_33 035f6eec2939100a14366c248ce8f6f8f5cb263e39b4f9555ef18fa3cca2db5aaa OP_PUSHBYTES_33 028a82035bd8cd600e45779a2412c5ef788407a03c427cb4bc64bcda20ff7891e4 OP_PUSHBYTES_33 02ecdf0caf139a981d291415fdfd121bdb1292a1b4cd65d499d8925403ccf1f1c3 OP_PUSHNUM_3 OP_CHECKMULTISIG"
    }
  ],
  "vout": [
    {
      "scriptpubkey": "00147ab18fd4da3cd2b6a9f8c890b7d12c68191650ec",
      "scriptpubkey_asm": "OP_0 OP_PUSHBYTES_20 7ab18fd4da3cd2b6a9f8c890b7d12c68191650ec",
      "scriptpubkey_type": "v0_p2wpkh",
      "scriptpubkey_address": "bc1q02ccl4x68nftd20cezgt05fvdqv3v58vpxe8fk",
      "value": 369530
    },
    {
      "scriptpubkey": "002011f51c215cd479035572563f137b62aaf9e6d9cc1530996d21cc63083e34f688",
      "scriptpubkey_asm": "OP_0 OP_PUSHBYTES_32 11f51c215cd479035572563f137b62aaf9e6d9cc1530996d21cc63083e34f688",
      "scriptpubkey_type": "v0_p2wsh",
      "scriptpubkey_address": "bc1qz863cg2u63usx4tj2cl3x7mz4tu7dkwvz5cfjmfpe33ss03576yqpmfwaj",
      "value": 1182087
    }
  ],
  "size": 3335,
  "weight": 5762,
  "fee": 29726,
  "status": {
    "confirmed": true,
    "block_height": 834464,
    "block_hash": "0000000000000000000177a0869a911a2b65c9bdcd5a8bcb02b68f305bee848e",
    "block_time": 1710308296
  },
  "hex": "0100000000010a16df880611f1a57dff3a692e6ce37c7a1d9d59c577d838a7e56fe7a8a35f5c1201000000232200202e96f3dc18fcd078fede559a532f5a0a542108940c6404b01f101b3b6510a5ccffffffff02e6e361613473e59a16ac4196e1ddb86768dba869d0b36d6ffd45cae80b0f2e15000000232200202e96f3dc18fcd078fede559a532f5a0a542108940c6404b01f101b3b6510a5ccffffffffdad3212d17822941c5c3b03aea846092ed4d7b95cd248a39597c30680e41c62e0200000023220020e94931561ba88bec3baf6b63c46e8178f8de26b9b2ffa66400682413bfd763f5ffffffff55e66724ab16b371f429536d6fcc1bd2032f6ab7ed3509f1e6c6e47a0f8b226c0100000023220020a3ecc61c0dbd597143f6648b40913380992550c3f6860e87b32f0bca85db35fcffffffffac63553e34d69144bbc123eb0e0b6a92702448fa7f0f416d035a224f1ac8907c0500000023220020eaabd4722ab60e9a828f535e845cb33755d83d89000019e536018646e93a5224ffffffff2a3dc5577018d82a4e3bfafd30f85cbf32915641346aa341ce6e88660a44278b00000000232200207407af4fe83f9a907f50e13fd34f5eb5f6d7dc0045dbdcd710e5d3338e5080d9ffffffffb52112747fb5b5557291d5c4213d71145a282e6972d4a902bc58246eb885a58d0100000000ffffffff90022e6abf9e5acacdea396ce9ff87bae98af204e34b1d703a8ba7fa39e476c30b00000023220020ede9182a14b208397b512dab47a2cd38fcc511518f80ab9fd66bf6efb82a8d0bffffffff5bab791ca7fec97cf78a460ae006c1c038ab244b08c5aa3ddf338c32112b27c6000000002322002082017214e4cb1872656c84bcc0a3cfabb05e01edb5ef1dcd94bff7cba1ac62cfffffffff80d7d25eb7886363106e72ef38d1801e16e11babe023f6b6f3aabfa3593a79d40100000023220020195d07b2a34b2a377d0cce1c8e3ca21a9c298d6f2b1451bae817e151f59d72d2ffffffff027aa30500000000001600147ab18fd4da3cd2b6a9f8c890b7d12c68191650ec870912000000000022002011f51c215cd479035572563f137b62aaf9e6d9cc1530996d21cc63083e34f6880400473044022027653fd94e7bc503e00296d5a7f54b9e78199b9b1ade9f8116c1b040d867fa9d0220422cbeea447814ebc15fda6c18be53ad63582dcf584bfd9c0240a40bf2468c6e0147304402206e78ef8e88dd7c5990a028642f521cf203b72ddbe4aca2746f2c908e9375d97f022068444e42670ac4421b05a0b991afa1c696ad43a455eaa62a6d8f0bcdc3e8e29c016952210321e0a273c8be701e5d0d35f2ea452ff5e5e1eed305fa3161f1c2911d0f418e372103182a0fb116a8c1783045e4893c79d2cf8ec6edc1563702480c00adbecd40650c210296a31b92a002bd1e1cd059eb3f4ba411031b8ded0d25967068dad6d18f59b44553ae0400473044022021f85d6ecf596d2720003e2ed4fc91c0957a9969b451645df6e367a9604796030220217706a8f22d66af60c070a9b27800478af3af4d476adceead122e8b61351eeb01473044022077493096e59f49d9b5244acc97a1fd6cbd05465914fc337a5dc5cb4ffb5ca59f02200341174e25201f371ca43034bca8e11c25e9174ee045b3ecb3ad7099237dc471016952210321e0a273c8be701e5d0d35f2ea452ff5e5e1eed305fa3161f1c2911d0f418e372103182a0fb116a8c1783045e4893c79d2cf8ec6edc1563702480c00adbecd40650c210296a31b92a002bd1e1cd059eb3f4ba411031b8ded0d25967068dad6d18f59b44553ae0400483045022100f5dac8798bbd2c8794dbeec6cc4548bbd430897752e46169a0d97484fd6435fb022076f1c31ab26b817ea3f9a5076991c073122d25c6030d11b5a1ecf4a0fa96a1600147304402207df31f8bdaae9cc094794627f761eb09a535c63cce66cbca63f8a726ac3a45350220030345f28783935a479d924747126af4ec29cda2a39d17cbbbf8fdf18e2e68db0169522102506da1f0e578d59ce44bb039c7fbe3164db2b851f718e7804527dd1a47c3d32f21024f9600fc425f2e80a75f9613cef823208dd73da5a6f55d849867477dfe1e4be521039c8877ef09bcfe7c60d23ac20b0235273dae0b1ace7b88a042b7cea19827f93f53ae0400483045022100dcda305efdc428c424b35463b7177acd00cf5e2e18f138eabf29e1fe4ffd7cc402200f472aafed421bb18fa34711c89c06a7ad32009af20263756b60157c95117b1701473044022029314c2739e0c5059faa0f08f7f578288992e91495e7afa2eba0e4f4dc3aeb2502200110f635ea4103afbd3fcea938af85568571755d782096bb9c5e41e9d04023d10169522103f92871478db854d5b2282d0e3504bc2ae0acc24d176b4f481ce40158c485ddca21022013bdd733319760d7e8159bbf6dea8764c869518046c2890359827d43fa61af21023473e4b2594189373ac97c1d2c39804345ac4baeb4d31ca1887c43e05c1349bc53ae040047304402206407ec22801f062d2dfd77502835a27ff6b05143e7b90ead1d567a6d7806973a022032912b97b016c2f5b42ebcaf96318d88bd244262eb548149a71d695474653514014730440220075af6deb59aa101836e3fcbd8bc130904a366e503ae76f6326c64c139e51fdd0220186b63ee89cb64572125c9f442d27f508ecdab8a8d7e0221d023e4eeb7fa78c6016952210293f4a795a56858832ab4889a64a9c729bb7bef3523ed5d860b4f6ba24820d6af2103cdfb4155012019b96f3407f1cc56f00fa301a3b357def18ea238f2e9087f0e38210265003133c91858edb6dab5dec3b3ad2e705fe4d34dd333e0f67adad9e244eaa453ae0400473044022021871c7a2693f8650a23ac8b0851580e498d903efbd07647c93a2fbf4db50924022055787a3f5ed64dbc732d0b99ba5b28fb42458b3e37866a457978c5fa7e876ad60147304402203849dff858f897f796c8476a700052b5b22d40b3ed9a1b27771fbe33dcb29bd202200e294d44e1b425042107921c1a72f80505c9398c80a9718dfbfc4e8452212db301695221023b1a523685fb4d94babeaa307005e86990ab21919f5d7c44dce4d5bc34390ad321039d9379e08221c84398cd686ae902b3af6147b24f0a578979368ff7243b02c18f21032d1c855aa81bb44236ae5be2737eb0a044550da614d5418b147bafd45aa7e85e53ae040047304402204366ae432cfec08777a57a39d5d8adfd9298477f9dd6f869a7f9b1fe3e5cfc0f02206a0d10b27a163032f449d529150d4900475fbd475fb08733deef2baec6f9cad701473044022052598dc6b3fe2eb89d9b3072346c796476c6fd60775c3091b80922aa720319ee02201afbede778454c4189e890d1a44dbacb4995bf57764ca6a8385c3c1a2c8fd0a10169522102dbf7d86460f16f443b8c5e51e7f57d6ffccae091bad8752a4345966b9e8aa463210327d3a4ef273645dd352170028c5d35b7e606db5937281359639554771524679b2103b35f21e5876af28a62632f90cbe5fafc4381b0eb5da5bc6d9f64cd98f022aaa853ae04004830450221009b5c3020a963f00f8bde909d7379fc61d24fc6fe959e086409dd1fb80304b31f02200d711633a1e594f4c422c6f0803f1fe5b3b03780fba2e969711d7a24fa86da3c014730440220302a80ba632c8a0c16df7819fc337bfd658cc21f14f9e3a64a9f2e378a45f67702206ffd8e1c021e87fa4d923184cc6515fa40cbb157d511bac64df0378bcc1f139c01695221036491407ee4958e54bf0c6a4f431735298f6df3dd51099ca43f45fd4b4c3c11f82103047ba425e70a290c2550b27024490d1a3ce7f5cf2b1cab75ba195e6d92dd0a4321020c0f648945045838a55f04c524ac7a280f3f9411657d0348398265abfe61810853ae0400483045022100aa559f6333c7565f14156e9c105957fc5d87f43a1b7c4ef38d5ea01a0c1004ff02207e584617cb2060b9b3bedae7889aa9546885dee3976f02cf33407f0aa80468dd0147304402204136d0882ef4418fe2a7c6d63d660f5cd79bca3a9b69cb957a646dd91f7e076f022006d820fe0c7ea9d0324310008c929660204cf62334fdca1cda8ed3a7e70ae0b501695221034f937e5f972cf5e29d00b804a67326c7ed6f264898af0cbcf62b7a9a23e1c36a2102703d8ab78d5fe51dd18f5427be9550290f76ada6370d951f95ea701ac750dc012102c819a009deb53aac2cabe960270f2f22d7d0626a8429b469f07294db1be0465753ae040047304402206d6caffec40e6e23b57474492a38826060789adda04c912e06f9670324fb517802200c243af5f9ce68cb483d26fbabb72d68b013d66cf169f274aca4745e928c55c00147304402206e0b32f68e0deb2497272bf7486f7de54b3e2b2c9df9e60689209494045d84cd0220774bc169d297449f7ede0457cf251797df7324b8720cc6c5dd9e14688390820601695221035f6eec2939100a14366c248ce8f6f8f5cb263e39b4f9555ef18fa3cca2db5aaa21028a82035bd8cd600e45779a2412c5ef788407a03c427cb4bc64bcda20ff7891e42102ecdf0caf139a981d291415fdfd121bdb1292a1b4cd65d499d8925403ccf1f1c353ae00000000"
}