{
  "txid": "a14f3dc4df4f5699f98079d5ca1344becc3e494c83a5447c117770b0f20eb2fa",
  "version": 1,
  "locktime": 0,
  "vin": [
    {
      "txid": "bc11c2cb69614c174cbfc33853604d244c079baa97d21bc9f6949a0556840ee3",
      "vout": 1,
      "prevout": {
        "scriptpubkey": "00145a2bb625577130dc35cd700249ab14e708857f62",
        "scriptpubkey_asm": "OP_0 OP_PUSHBYTES_20 5a2bb625577130dc35cd700249ab14e708857f62",
        "scriptpubkey_type": "v0_p2wpkh",
        "scriptpubkey_address": "bc1qtg4mvf2hwycdcdwdwqpyn2c5uuyg2lmzkvaqwv",
        "value": 2231840
      },
      "scriptsig": "",
      "scriptsig_asm": "",
      "witness": [
        "304402205fbdf591c6a3e111d0183e262fd0cefc1936cd82df9da922bf0347433c09842e022032fbcecf9e653524e2c00bc532e41f1ed3af4c6e41a2d2edc4bc7dabbd4d162001",
        "02e662563227ed9ca07e34b6c533920001ed753ea2a335601a470a88be6711fb7f"
      ],
      "is_coinbase": false,
      "sequence": 4294967295
    }
  ],
  "vout": [
    {
      "scriptpubkey": "76a9142e773675a1f8dca2e308783938aebf2197fbcc9d88ac",
      "scriptpubkey_asm": "OP_DUP OP_HASH160 OP_PUSHBYTES_20 2e773675a1f8dca2e308783938aebf2197fbcc9d OP_EQUALVERIFY OP_CHECKSIG",
      "scriptpubkey_type": "p2pkh",
      "scriptpubkey_address": "15EgtsTtCZPbiuqqnYTPhNgR6hMpMzJYXa",
      "value": 416316
    },
    {
      "scriptpubkey": "00145a2bb625577130dc35cd700249ab14e708857f62",
      "scriptpubkey_asm": "OP_0 OP_PUSHBYTES_20 5a2bb625577130dc35cd700249ab14e708857f62",
      "scriptpubkey_type": "v0_p2wpkh",
      "scriptpubkey_address": "bc1qtg4mvf2hwycdcdwdwqpyn2c5uuyg2lmzkvaqwv",
      "value": 1811636
    }
  ],
  "size": 225,
  "weight": 573,
  "fee": 3888,
  "status": {
    "confirmed": true,
    "block_height": 834460,
    "block_hash": "00000000000000000000484a79b643b2524bbce82e5d8a442013fa5b8905ed98",
    "block_time": 1710307468
  },
  "hex": "01000000000101e30e8456059a94f6c91bd297aa9b074c244d605338c3bf4c174c6169cbc211bc0100000000ffffffff023c5a0600000000001976a9142e773675a1f8dca2e308783938aebf2197fbcc9d88acb4a41b00000000001600145a2bb625577130dc35cd700249ab14e708857f620247304402205fbdf591c6a3e111d0183e262fd0cefc1936cd82df9da922bf0347433c09842e022032fbcecf9e653524e2c00bc532e41f1ed3af4c6e41a2d2edc4bc7dabbd4d1620012102e662563227ed9ca07e34b6c533920001ed753ea2a335601a470a88be6711fb7f00000000"
}