{
  "txid": "a1501250daf41bab535c9fe97146137d4fbef4d5e19cf9716c6a12087c37647a",
  "version": 2,
  "locktime": 0,
  "vin": [
    {
      "txid": "77023fe69dbb31dae4bdbafde42f92d45a26370becdcd5701522928b6a73f5fe",
      "vout": 0,
      "prevout": {
        "scriptpubkey": "51202e2f37ac5bce86f3374523f9ea4a9e248f172db50151b4499b542ec3d7fecb96",
        "scriptpubkey_asm": "OP_PUSHNUM_1 OP_PUSHBYTES_32 2e2f37ac5bce86f3374523f9ea4a9e248f172db50151b4499b542ec3d7fecb96",
        "scriptpubkey_type": "v1_p2tr",
        "scriptpubkey_address": "bc1p9chn0tzme6r0xd69y0u75j57yj83wtd4q9gmgjvm2shv84l7ewtq0rg929",
        "value": 3096
      },
      "scriptsig": "",
      "scriptsig_asm": "",
      "witness": [
        "dc5c2beae674f080ef30cbca9c0189e36c5aecfe4bdffd7c0e3cea6308ece486a4f1a2d5d54e31474fa4012a9f83aea267ac8a27ed732b047357f79f78711ca3",
        "20fe380db18d3f8d66ad0ca84dbb1bcc555c858be077edaa943bf5dbede468ea2dac0063036f72640101106170706c69636174696f6e2f6a736f6e00387b2270223a226272632d3230222c226f70223a227472616e73666572222c227469636b223a22314f6e38222c22616d74223a22323430227d68",
        "c1fe380db18d3f8d66ad0ca84dbb1bcc555c858be077edaa943bf5dbede468ea2d"
      ],
      "is_coinbase": false,
      "sequence": 4294967293
    }
  ],
  "vout": [
    {
      "scriptpubkey": "51204b3def6b7bdf9758a317f5eafc03b3a744cc6bb7dad731af7edbfbb555c2be75",
      "scriptpubkey_asm": "OP_PUSHNUM_1 OP_PUSHBYTES_32 4b3def6b7bdf9758a317f5eafc03b3a744cc6bb7dad731af7edbfbb555c2be75",
      "scriptpubkey_type": "v1_p2tr",
      "scriptpubkey_address": "bc1pfv7776mmm7t43gch7h40cqan5azvc6ahmttnrtm7m0am24wzhe6smdt3m6",
      "value": 546
    }
  ],
  "size": 315,
  "weight": 597,
  "fee": 2550,
  "status": {
    "confirmed": true,
    "block_height": 834460,
    "block_hash": "00000000000000000000484a79b643b2524bbce82e5d8a442013fa5b8905ed98",
    "block_time": 1710307468
  },
  "hex": "02000000000101fef5736a8b92221570d5dcec0b37265ad4922fe4fdbabde4da31bb9de63f02770000000000fdffffff0122020000000000002251204b3def6b7bdf9758a317f5eafc03b3a744cc6bb7dad731af7edbfbb555c2be750340dc5c2beae674f080ef30cbca9c0189e36c5aecfe4bdffd7c0e3cea6308ece486a4f1a2d5d54e31474fa4012a9f83aea267ac8a27ed732b047357f79f78711ca37620fe380db18d3f8d66ad0ca84dbb1bcc555c858be077edaa943bf5dbede468ea2dac0063036f72640101106170706c69636174696f6e2f6a736f6e00387b2270223a226272632d3230222c226f70223a227472616e73666572222c227469636b223a22314f6e38222c22616d74223a22323430227d6821c1fe380db18d3f8d66ad0ca84dbb1bcc555c858be077edaa943bf5dbede468ea2d00000000"
}