{
  "txid": "a15b8655f56da3154c8420bbd3f38b03abae9ca95ae22238b8906bcb85d6e545",
  "version": 1,
  "locktime": 0,
  "vin": [
    {
      "txid": "9561014832e6c9bbc7eecd5d19b5b2d44fe854d92dd77189778923c9a6263254",
      "vout": 44,
      "prevout": {
        "scriptpubkey": "00140fa2e54d65623beadd432266de787c78d37d67a0",
        "scriptpubkey_asm": "OP_0 OP_PUSHBYTES_20 0fa2e54d65623beadd432266de787c78d37d67a0",
        "scriptpubkey_type": "v0_p2wpkh",
        "scriptpubkey_address": "bc1qp73w2nt9vga74h2ryfndu7ru0rfh6eaqfff6aa",
        "value": 141353
      },
      "scriptsig": "",
      "scriptsig_asm": "",
      "witness": [
        "3045022100da298dcf233c9dc530ec90602e1ce4fb50765e75190a9ab26f2d3479b8a1fb5c0220151cbb303dda1166f7c9929f357822fe562699f835084eb67f0db8daffa71ea901",
        "027ade3a8e18b8c09a5e6efa7b7644132a7aa3625b33f74a2f8050aef21b6f7c9e"
      ],
      "is_coinbase": false,
      "sequence": 4294967295
    }
  ],
  "vout": [
    {
      "scriptpubkey": "76a9148b08c2e676916d443a222bf60d0670a09ae5028288ac",
      "scriptpubkey_asm": "OP_DUP OP_HASH160 OP_PUSHBYTES_20 8b08c2e676916d443a222bf60d0670a09ae50282 OP_EQUALVERIFY OP_CHECKSIG",
      "scriptpubkey_type": "p2pkh",
      "scriptpubkey_address": "1Dg9RQuo3JSu72cfGB4i7QTkr1U12J11AU",
      "value": 74855
    },
    {
      "scriptpubkey": "0014a8dcc50a182e054805a653ab4f31a6909a68e325",
      "scriptpubkey_asm": "OP_0 OP_PUSHBYTES_20 a8dcc50a182e054805a653ab4f31a6909a68e325",
      "scriptpubkey_type": "v0_p2wpkh",
      "scriptpubkey_address": "bc1q4rwv2zsc9cz5spdx2w457vdxjzdx3ce9j5kr6h",
      "value": 63643
    }
  ],
  "size": 226,
  "weight": 574,
  "fee": 2855,
  "status": {
    "confirmed": true,
    "block_height": 834638,
    "block_hash": "000000000000000000025f742c626208ac87e0b7d15054abb4a19ca2d735a54e",
    "block_time": 1710405325
  },
  "hex": "01000000000101543226a6c92389778971d72dd954e84fd4b2b5195dcdeec7bbc9e632480161952c00000000ffffffff0267240100000000001976a9148b08c2e676916d443a222bf60d0670a09ae5028288ac9bf8000000000000160014a8dcc50a182e054805a653ab4f31a6909a68e32502483045022100da298dcf233c9dc530ec90602e1ce4fb50765e75190a9ab26f2d3479b8a1fb5c0220151cbb303dda1166f7c9929f357822fe562699f835084eb67f0db8daffa71ea90121027ade3a8e18b8c09a5e6efa7b7644132a7aa3625b33f74a2f8050aef21b6f7c9e00000000"
}