{
  "txid": "a165a12860c2450c16f4328c28d018b9fb41c42cbc498cebf4109ecfd2828e72",
  "version": 2,
  "locktime": 0,
  "vin": [
    {
      "txid": "a0d5c2dfb9ea673ac0fc39f2faea6fe7013446e4a5f06d833d498c26654cd8e0",
      "vout": 11,
      "prevout": {
        "scriptpubkey": "0014c3911b94ea247cdd9e8d3ddec37f7cf2237a18f6",
        "scriptpubkey_asm": "OP_0 OP_PUSHBYTES_20 c3911b94ea247cdd9e8d3ddec37f7cf2237a18f6",
        "scriptpubkey_type": "v0_p2wpkh",
        "scriptpubkey_address": "bc1qcwg3h982y37dm85d8h0vxlmu7g3h5x8kgl4dwy",
        "value": 66219
      },
      "scriptsig": "",
      "scriptsig_asm": "",
      "witness": [
        "304402207f440acf8a7e4929f86e0d2732acbb495f812e8c283b43fb4ffae048b4e56d6602206756129db4484be2a53c8a6a3d73ffa9f921129f74eeb24eaead58e20f1815d401",
        "038b6020f5a3003f0dce8d7b9f13aa1d56215c147862c9d15aa4ef161a5366cc0c"
      ],
      "is_coinbase": false,
      "sequence": 4294967295
    },
    {
      "txid": "20221f0c34da2fae80d9c7e27f16108f6c858a65ce92d9be33f5696d028c5597",
      "vout": 6,
      "prevout": {
        "scriptpubkey": "0014c3911b94ea247cdd9e8d3ddec37f7cf2237a18f6",
        "scriptpubkey_asm": "OP_0 OP_PUSHBYTES_20 c3911b94ea247cdd9e8d3ddec37f7cf2237a18f6",
        "scriptpubkey_type": "v0_p2wpkh",
        "scriptpubkey_address": "bc1qcwg3h982y37dm85d8h0vxlmu7g3h5x8kgl4dwy",
        "value": 66000
      },
      "scriptsig": "",
      "scriptsig_asm": "",
      "witness": [
        "30450221008a2969a386355eb2e47a3887850248a8867c87bf90637613373fc4040d16c16e02203dba1ced3b595eaa26ad55ef01c50aae033167687319710623298b0638d5025301",
        "038b6020f5a3003f0dce8d7b9f13aa1d56215c147862c9d15aa4ef161a5366cc0c"
      ],
      "is_coinbase": false,
      "sequence": 4294967295
    },
    {
      "txid": "301945587b3755233f36bd578d705da407c7b4f0bdcc9e06232449569bb0186c",
      "vout": 2,
      "prevout": {
        "scriptpubkey": "0014c3911b94ea247cdd9e8d3ddec37f7cf2237a18f6",
        "scriptpubkey_asm": "OP_0 OP_PUSHBYTES_20 c3911b94ea247cdd9e8d3ddec37f7cf2237a18f6",
        "scriptpubkey_type": "v0_p2wpkh",
        "scriptpubkey_address": "bc1qcwg3h982y37dm85d8h0vxlmu7g3h5x8kgl4dwy",
        "value": 112681
      },
      "scriptsig": "",
      "scriptsig_asm": "",
      "witness": [
        "30450221008dbc1dac8e35a26ca9ef10915191cc421d28ecd94976ec7e8ee521b9569e91aa022035246ea2c7a4a3edcb144d54dbd40999259e3cae964a9152202f741af8e7472001",
        "038b6020f5a3003f0dce8d7b9f13aa1d56215c147862c9d15aa4ef161a5366cc0c"
      ],
      "is_coinbase": false,
      "sequence": 4294967295
    }
  ],
  "vout": [
    {
      "scriptpubkey": "76a9144b8f20b14970b76bd06f415a33e4982e0d56a7b788ac",
      "scriptpubkey_asm": "OP_DUP OP_HASH160 OP_PUSHBYTES_20 4b8f20b14970b76bd06f415a33e4982e0d56a7b7 OP_EQUALVERIFY OP_CHECKSIG",
      "scriptpubkey_type": "p2pkh",
      "scriptpubkey_address": "17tX95KtPYPYNyRMrPVq7Zw2wjPNenck31",
      "value": 240000
    }
  ],
  "size": 492,
  "weight": 993,
  "fee": 4900,
  "status": {
    "confirmed": true,
    "block_height": 834638,
    "block_hash": "000000000000000000025f742c626208ac87e0b7d15054abb4a19ca2d735a54e",
    "block_time": 1710405325
  },
  "hex": "02000000000103e0d84c65268c493d836df0a5e4463401e76feafaf239fcc03a67eab9dfc2d5a00b00000000ffffffff97558c026d69f533bed992ce658a856c8f10167fe2c7d980ae2fda340c1f22200600000000ffffffff6c18b09b56492423069eccbdf0b4c707a45d708d57bd363f2355377b584519300200000000ffffffff0180a90300000000001976a9144b8f20b14970b76bd06f415a33e4982e0d56a7b788ac0247304402207f440acf8a7e4929f86e0d2732acbb495f812e8c283b43fb4ffae048b4e56d6602206756129db4484be2a53c8a6a3d73ffa9f921129f74eeb24eaead58e20f1815d40121038b6020f5a3003f0dce8d7b9f13aa1d56215c147862c9d15aa4ef161a5366cc0c024830450221008a2969a386355eb2e47a3887850248a8867c87bf90637613373fc4040d16c16e02203dba1ced3b595eaa26ad55ef01c50aae033167687319710623298b0638d502530121038b6020f5a3003f0dce8d7b9f13aa1d56215c147862c9d15aa4ef161a5366cc0c024830450221008dbc1dac8e35a26ca9ef10915191cc421d28ecd94976ec7e8ee521b9569e91aa022035246ea2c7a4a3edcb144d54dbd40999259e3cae964a9152202f741af8e747200121038b6020f5a3003f0dce8d7b9f13aa1d56215c147862c9d15aa4ef161a5366cc0c00000000"
}