{
  "txid": "a16e5b8ad9206b62ed761868cb054e9deca8669a4456c8c4d750aecc7985c278",
  "version": 1,
  "locktime": 0,
  "vin": [
    {
      "txid": "13c6400b1134cf88de55ca5bcbe452199441db4f8e3d9e8869324ca03687ef4f",
      "vout": 1,
      "prevout": {
        "scriptpubkey": "0014a2e369b0478ada59b9f05a4fec17b8647d8e1f4c",
        "scriptpubkey_asm": "OP_0 OP_PUSHBYTES_20 a2e369b0478ada59b9f05a4fec17b8647d8e1f4c",
        "scriptpubkey_type": "v0_p2wpkh",
        "scriptpubkey_address": "bc1q5t3knvz83td9nw0stf87c9acv37cu86vgxnpp7",
        "value": 1649488
      },
      "scriptsig": "",
      "scriptsig_asm": "",
      "witness": [
        "30440220634ddbd8a43e6c380dace6c04d2242c51f92835fb62147f9905cdecdda47566502200ccf2fdfc6648000fe4e06bb262c16119297dd82e85e200d1642367cd5890e6c01",
        "02027e149e575da2c488380174c7b8ae5bafe1abdfb04818684944610a1fc64ec4"
      ],
      "is_coinbase": false,
      "sequence": 4294967295
    }
  ],
  "vout": [
    {
      "scriptpubkey": "0014133246cede610f640fd1fa89f942b562d0682e49",
      "scriptpubkey_asm": "OP_0 OP_PUSHBYTES_20 133246cede610f640fd1fa89f942b562d0682e49",
      "scriptpubkey_type": "v0_p2wpkh",
      "scriptpubkey_address": "bc1qzveydnk7vy8kgr73l2yljs44vtgxstjf7zk9n5",
      "value": 289522
    },
    {
      "scriptpubkey": "0014a2e369b0478ada59b9f05a4fec17b8647d8e1f4c",
      "scriptpubkey_asm": "OP_0 OP_PUSHBYTES_20 a2e369b0478ada59b9f05a4fec17b8647d8e1f4c",
      "scriptpubkey_type": "v0_p2wpkh",
      "scriptpubkey_address": "bc1q5t3knvz83td9nw0stf87c9acv37cu86vgxnpp7",
      "value": 1356159
    }
  ],
  "size": 222,
  "weight": 561,
  "fee": 3807,
  "status": {
    "confirmed": true,
    "block_height": 834638,
    "block_hash": "000000000000000000025f742c626208ac87e0b7d15054abb4a19ca2d735a54e",
    "block_time": 1710405325
  },
  "hex": "010000000001014fef8736a04c3269889e3d8e4fdb41941952e4cb5bca55de88cf34110b40c6130100000000ffffffff02f26a040000000000160014133246cede610f640fd1fa89f942b562d0682e497fb1140000000000160014a2e369b0478ada59b9f05a4fec17b8647d8e1f4c024730440220634ddbd8a43e6c380dace6c04d2242c51f92835fb62147f9905cdecdda47566502200ccf2fdfc6648000fe4e06bb262c16119297dd82e85e200d1642367cd5890e6c012102027e149e575da2c488380174c7b8ae5bafe1abdfb04818684944610a1fc64ec400000000"
}