{
  "txid": "a1911651f37f490a61eeed6f8794006bbd809a2a6e6813c9e759076bf79f85f0",
  "version": 2,
  "locktime": 0,
  "vin": [
    {
      "txid": "4ee77778659dcfe8d7a4e15882fc6193f4f3d5f6607624e256337b44c2280af5",
      "vout": 78,
      "prevout": {
        "scriptpubkey": "51208d491d0654cbf13c91b275831857eed19dfc5c8170814a1b6d1136501ea3a0da",
        "scriptpubkey_asm": "OP_PUSHNUM_1 OP_PUSHBYTES_32 8d491d0654cbf13c91b275831857eed19dfc5c8170814a1b6d1136501ea3a0da",
        "scriptpubkey_type": "v1_p2tr",
        "scriptpubkey_address": "bc1p34y36pj5e0cneydjwkp3s4lw6xwlchypwzq55xmdzym9q84r5rdqww5khy",
        "value": 2075
      },
      "scriptsig": "",
      "scriptsig_asm": "",
      "witness": [
        "d2e4ecaf829925f499fdeef322402ea450091eae11c5742becd5ee667eaac872adb245850789e6a9395722d6750a25bb47a0123674a2840885753dc39658ac5a",
        "2046891271d7540f2f8f6d2e6a4e3a206c864b35a94e25fecb73b1ec474db6e8dfac0063036f7264010118746578742f706c61696e3b636861727365743d7574662d3800357b2270223a224252432d313030222c226f70223a226d696e74222c227469636b223a22696e73222c22616d74223a2231303030227d68",
        "c0c50eac15d7d7889f5ad84f80015e8a209129aeea937c37fa4b8bc0f9be289730"
      ],
      "is_coinbase": false,
      "sequence": 4294967295
    }
  ],
  "vout": [
    {
      "scriptpubkey": "00143e2325412b554cacdd163a93a42204c4707f8851",
      "scriptpubkey_asm": "OP_0 OP_PUSHBYTES_20 3e2325412b554cacdd163a93a42204c4707f8851",
      "scriptpubkey_type": "v0_p2wpkh",
      "scriptpubkey_address": "bc1q8c3j2sft24x2ehgk82f6ggsyc3c8lzz3yw9wsu",
      "value": 546
    }
  ],
  "size": 308,
  "weight": 554,
  "fee": 1529,
  "status": {
    "confirmed": true,
    "block_height": 834464,
    "block_hash": "0000000000000000000177a0869a911a2b65c9bdcd5a8bcb02b68f305bee848e",
    "block_time": 1710308296
  },
  "hex": "02000000000101f50a28c2447b3356e2247660f6d5f3f49361fc8258e1a4d7e8cf9d657877e74e4e00000000ffffffff0122020000000000001600143e2325412b554cacdd163a93a42204c4707f88510340d2e4ecaf829925f499fdeef322402ea450091eae11c5742becd5ee667eaac872adb245850789e6a9395722d6750a25bb47a0123674a2840885753dc39658ac5a7b2046891271d7540f2f8f6d2e6a4e3a206c864b35a94e25fecb73b1ec474db6e8dfac0063036f7264010118746578742f706c61696e3b636861727365743d7574662d3800357b2270223a224252432d313030222c226f70223a226d696e74222c227469636b223a22696e73222c22616d74223a2231303030227d6821c0c50eac15d7d7889f5ad84f80015e8a209129aeea937c37fa4b8bc0f9be28973000000000"
}