{
  "txid": "a198135074353cd2fe81f55f62f2da556d6943f9faea0b616640bec36fc559fa",
  "version": 1,
  "locktime": 0,
  "vin": [
    {
      "txid": "88888886f20d73f9afb24bb0939dc179ba744afeb3a0a64c4dfdb6e774720e47",
      "vout": 0,
      "prevout": {
        "scriptpubkey": "5120a33429e20bd25c3f3db1bf68cf99ba7e2e1ed1a47f085c248afe528552986b30",
        "scriptpubkey_asm": "OP_PUSHNUM_1 OP_PUSHBYTES_32 a33429e20bd25c3f3db1bf68cf99ba7e2e1ed1a47f085c248afe528552986b30",
        "scriptpubkey_type": "v1_p2tr",
        "scriptpubkey_address": "bc1p5v6zncst6fwr70d3ha5vlxd60chpa5dy0uy9cfy2lefg255cdvcqmccpgs",
        "value": 11627
      },
      "scriptsig": "",
      "scriptsig_asm": "",
      "witness": [
        "5957035a1e9bfdffb7fa16adf8651d8087e51f994e6e1dfe9340dec5f0fe988beda27f8fab11b4b605bee6f9598f4681622756b44f225abf0dd26cc277aacd6883",
        "206e52c938c29c99e9a77647b2895f750d08ffac8b4128f105ecf15445f35d3cc5ac00630461746f6d03646d7442a16461726773a468626974776f726b6367383838383838386b6d696e745f7469636b657268696e66696e697479656e6f6e63651a00044bd66474696d651a65dc593368",
        "c06e52c938c29c99e9a77647b2895f750d08ffac8b4128f105ecf15445f35d3cc5"
      ],
      "is_coinbase": false,
      "sequence": 4294967293
    }
  ],
  "vout": [
    {
      "scriptpubkey": "5120bf94882e5d0c036449dc3f1782adc8fe707e6d03ea0ecdd97e048b8da94a44b1",
      "scriptpubkey_asm": "OP_PUSHNUM_1 OP_PUSHBYTES_32 bf94882e5d0c036449dc3f1782adc8fe707e6d03ea0ecdd97e048b8da94a44b1",
      "scriptpubkey_type": "v1_p2tr",
      "scriptpubkey_address": "bc1ph72gstjapspkgjwu8utc9twglec8umgrag8vmkt7qj9cm222gjcsurlt3p",
      "value": 9999
    }
  ],
  "size": 311,
  "weight": 593,
  "fee": 1628,
  "status": {
    "confirmed": true,
    "block_height": 834464,
    "block_hash": "0000000000000000000177a0869a911a2b65c9bdcd5a8bcb02b68f305bee848e",
    "block_time": 1710308296
  },
  "hex": "01000000000101470e7274e7b6fd4d4ca6a0b3fe4a74ba79c19d93b04bb2aff9730df2868888880000000000fdffffff010f27000000000000225120bf94882e5d0c036449dc3f1782adc8fe707e6d03ea0ecdd97e048b8da94a44b103415957035a1e9bfdffb7fa16adf8651d8087e51f994e6e1dfe9340dec5f0fe988beda27f8fab11b4b605bee6f9598f4681622756b44f225abf0dd26cc277aacd688371206e52c938c29c99e9a77647b2895f750d08ffac8b4128f105ecf15445f35d3cc5ac00630461746f6d03646d7442a16461726773a468626974776f726b6367383838383838386b6d696e745f7469636b657268696e66696e697479656e6f6e63651a00044bd66474696d651a65dc59336821c06e52c938c29c99e9a77647b2895f750d08ffac8b4128f105ecf15445f35d3cc500000000"
}