{
  "txid": "a1abf44f506bafa649f89bbe9e43a5ce3c8a180a7512a111c0644793efb435e3",
  "version": 2,
  "locktime": 0,
  "vin": [
    {
      "txid": "afbef4ddfd5f15464573df6c4b6d792f2ce91096476faa4a4d1722600f4fe07c",
      "vout": 0,
      "prevout": {
        "scriptpubkey": "0014fd07bfb1a42e58c05cd09ffd6b6c42aa36e58710",
        "scriptpubkey_asm": "OP_0 OP_PUSHBYTES_20 fd07bfb1a42e58c05cd09ffd6b6c42aa36e58710",
        "scriptpubkey_type": "v0_p2wpkh",
        "scriptpubkey_address": "bc1ql5rmlvdy9evvqhxsnl7kkmzz4gmwtpcsutjwsj",
        "value": 15220443
      },
      "scriptsig": "",
      "scriptsig_asm": "",
      "witness": [
        "3045022100d2ffda604df78e07f23844dc1f748063191e845daecbbe55ae310bbc1c4bab7202200968013239e2c5559174a9d114f6d2e89a8a8ded30c23ae2d688b777b3874dfd01",
        "03b0dc69d0731758eb7494a270ee9aa63cd8a6bbcd928be0b10709c1c6460fb3d4"
      ],
      "is_coinbase": false,
      "sequence": 4294967293
    },
    {
      "txid": "643e8c604f0b0d63ae59cccb52661ae80d9804ae64b9759756e297d230c93084",
      "vout": 0,
      "prevout": {
        "scriptpubkey": "00147f2feba61449812b7608954d36920f0069362ab7",
        "scriptpubkey_asm": "OP_0 OP_PUSHBYTES_20 7f2feba61449812b7608954d36920f0069362ab7",
        "scriptpubkey_type": "v0_p2wpkh",
        "scriptpubkey_address": "bc1q0uh7hfs5fxqjkasgj4xndys0qp5nv24hm9s3mj",
        "value": 5720917
      },
      "scriptsig": "",
      "scriptsig_asm": "",
      "witness": [
        "304402203f7dea4dcfac925a41b9781c6795e6053006b28d441a01dc98a1bfcb591cc93f0220240c6ee5670f8ffdf3a983ac87a43a75e4c9d7711e0b5b3b0a05f51e322ccf5501",
        "0306f809ff886023106317b812163a7d9bb0c952de0ef26f1724fadaf6015995cb"
      ],
      "is_coinbase": false,
      "sequence": 4294967293
    }
  ],
  "vout": [
    {
      "scriptpubkey": "0014f977f44689de7f9065382cc8cf18946841a8bb95",
      "scriptpubkey_asm": "OP_0 OP_PUSHBYTES_20 f977f44689de7f9065382cc8cf18946841a8bb95",
      "scriptpubkey_type": "v0_p2wpkh",
      "scriptpubkey_address": "bc1ql9mlg35fmeleqefc9nyv7xy5dpq63wu4z7s5ce",
      "value": 20938846
    }
  ],
  "size": 340,
  "weight": 709,
  "fee": 2514,
  "status": {
    "confirmed": true,
    "block_height": 834460,
    "block_hash": "00000000000000000000484a79b643b2524bbce82e5d8a442013fa5b8905ed98",
    "block_time": 1710307468
  },
  "hex": "020000000001027ce04f0f6022174d4aaa6f479610e92c2f796d4b6cdf734546155ffdddf4beaf0000000000fdffffff8430c930d297e2569775b964ae04980de81a6652cbcc59ae630d0b4f608c3e640000000000fdffffff015e803f0100000000160014f977f44689de7f9065382cc8cf18946841a8bb9502483045022100d2ffda604df78e07f23844dc1f748063191e845daecbbe55ae310bbc1c4bab7202200968013239e2c5559174a9d114f6d2e89a8a8ded30c23ae2d688b777b3874dfd012103b0dc69d0731758eb7494a270ee9aa63cd8a6bbcd928be0b10709c1c6460fb3d40247304402203f7dea4dcfac925a41b9781c6795e6053006b28d441a01dc98a1bfcb591cc93f0220240c6ee5670f8ffdf3a983ac87a43a75e4c9d7711e0b5b3b0a05f51e322ccf5501210306f809ff886023106317b812163a7d9bb0c952de0ef26f1724fadaf6015995cb00000000"
}