{
  "txid": "a1ae0043ff0b82a089b6db141ce1ba3e63ac3b5aac257cc1b2865454c25d9d54",
  "version": 2,
  "locktime": 0,
  "vin": [
    {
      "txid": "62b0886f5b55903ac9e43628c22039ac7f38d6a3f7ee5d5457e73ab903ae27b2",
      "vout": 1,
      "prevout": {
        "scriptpubkey": "0014497197dca73ac1193eeb17a224e9e216140b63de",
        "scriptpubkey_asm": "OP_0 OP_PUSHBYTES_20 497197dca73ac1193eeb17a224e9e216140b63de",
        "scriptpubkey_type": "v0_p2wpkh",
        "scriptpubkey_address": "bc1qf9ce0h988tq3j0htz73zf60zzc2qkc7789ldva",
        "value": 168077
      },
      "scriptsig": "",
      "scriptsig_asm": "",
      "witness": [
        "3045022100f4bf1ed2b491f79dbad5b44bbe09b29e974090f3437d4577f8cd4dce8711950402205d49d2402d3e146e33bf7550b811e0710d1d56191c8d579172ea412481e46ca101",
        "02d37a8ec34aaa37ff7cf54fe4a30d81d76344c44a14c9d8a5debec202b042c4ac"
      ],
      "is_coinbase": false,
      "sequence": 4294967295
    }
  ],
  "vout": [
    {
      "scriptpubkey": "6a2affc83a4135fad561b379cfd5c270d0530e51d3bd7dbd7eb2f357ab4cb06aae1eeebbd095cd880be72c68",
      "scriptpubkey_asm": "OP_RETURN OP_PUSHBYTES_42 ffc83a4135fad561b379cfd5c270d0530e51d3bd7dbd7eb2f357ab4cb06aae1eeebbd095cd880be72c68",
      "scriptpubkey_type": "op_return",
      "value": 0
    },
    {
      "scriptpubkey": "0014497197dca73ac1193eeb17a224e9e216140b63de",
      "scriptpubkey_asm": "OP_0 OP_PUSHBYTES_20 497197dca73ac1193eeb17a224e9e216140b63de",
      "scriptpubkey_type": "v0_p2wpkh",
      "scriptpubkey_address": "bc1qf9ce0h988tq3j0htz73zf60zzc2qkc7789ldva",
      "value": 165725
    }
  ],
  "size": 245,
  "weight": 650,
  "fee": 2352,
  "status": {
    "confirmed": true,
    "block_height": 834460,
    "block_hash": "00000000000000000000484a79b643b2524bbce82e5d8a442013fa5b8905ed98",
    "block_time": 1710307468
  },
  "hex": "02000000000101b227ae03b93ae757545deef7a3d6387fac3920c22836e4c93a90555b6f88b0620100000000ffffffff0200000000000000002c6a2affc83a4135fad561b379cfd5c270d0530e51d3bd7dbd7eb2f357ab4cb06aae1eeebbd095cd880be72c685d87020000000000160014497197dca73ac1193eeb17a224e9e216140b63de02483045022100f4bf1ed2b491f79dbad5b44bbe09b29e974090f3437d4577f8cd4dce8711950402205d49d2402d3e146e33bf7550b811e0710d1d56191c8d579172ea412481e46ca1012102d37a8ec34aaa37ff7cf54fe4a30d81d76344c44a14c9d8a5debec202b042c4ac00000000"
}