{
  "txid": "a1b10a3936672468789a594c2180d470aba330f9eec77df6d15cad95991306d9",
  "version": 2,
  "locktime": 0,
  "vin": [
    {
      "txid": "074c369b90b5cff01b0f3ade6b0d9c05e5c772c63688b4eea6dce0936ab92424",
      "vout": 1,
      "prevout": {
        "scriptpubkey": "00149c38191f20275ea9ececd2f762c450ff159508f8",
        "scriptpubkey_asm": "OP_0 OP_PUSHBYTES_20 9c38191f20275ea9ececd2f762c450ff159508f8",
        "scriptpubkey_type": "v0_p2wpkh",
        "scriptpubkey_address": "bc1qnsupj8eqya02nm8v6tmk93zslu2e2z8chlmcej",
        "value": 968633942
      },
      "scriptsig": "",
      "scriptsig_asm": "",
      "witness": [
        "30450221009a92d57f454b204d8d76f1cd4ebefc1c876bcc178370137e9a7c6a071815db2a022041b533ca0917edf1eebe04bba63ededc15d11c733aa3000c2c664f5612ce41b301",
        "0244587bb17c3d845ae477a2fb2511ef7233e7b3e8f3ec6f83bd154be74c39bf66"
      ],
      "is_coinbase": false,
      "sequence": 4294967295
    }
  ],
  "vout": [
    {
      "scriptpubkey": "0020f2f2bae7cdcaa97f50e07b6eca7825314fd17f123a93782285a632fbaefd8928",
      "scriptpubkey_asm": "OP_0 OP_PUSHBYTES_32 f2f2bae7cdcaa97f50e07b6eca7825314fd17f123a93782285a632fbaefd8928",
      "scriptpubkey_type": "v0_p2wsh",
      "scriptpubkey_address": "bc1q7tet4e7de25h758q0dhv57p9x98azlcj82fhsg595ce0htha3y5q0cc04e",
      "value": 10000
    },
    {
      "scriptpubkey": "00149c38191f20275ea9ececd2f762c450ff159508f8",
      "scriptpubkey_asm": "OP_0 OP_PUSHBYTES_20 9c38191f20275ea9ececd2f762c450ff159508f8",
      "scriptpubkey_type": "v0_p2wpkh",
      "scriptpubkey_address": "bc1qnsupj8eqya02nm8v6tmk93zslu2e2z8chlmcej",
      "value": 968618995
    }
  ],
  "size": 235,
  "weight": 610,
  "fee": 4947,
  "status": {
    "confirmed": true,
    "block_height": 834638,
    "block_hash": "000000000000000000025f742c626208ac87e0b7d15054abb4a19ca2d735a54e",
    "block_time": 1710405325
  },
  "hex": "020000000001012424b96a93e0dca6eeb48836c672c7e5059c0d6bde3a0f1bf0cfb5909b364c070100000000ffffffff021027000000000000220020f2f2bae7cdcaa97f50e07b6eca7825314fd17f123a93782285a632fbaefd8928f3f3bb39000000001600149c38191f20275ea9ececd2f762c450ff159508f8024830450221009a92d57f454b204d8d76f1cd4ebefc1c876bcc178370137e9a7c6a071815db2a022041b533ca0917edf1eebe04bba63ededc15d11c733aa3000c2c664f5612ce41b301210244587bb17c3d845ae477a2fb2511ef7233e7b3e8f3ec6f83bd154be74c39bf6600000000"
}