{
  "txid": "a1cf0b2ed6d800e22a226956e01abed8f8934d3d5fdf659fdf029a08a690164e",
  "version": 2,
  "locktime": 0,
  "vin": [
    {
      "txid": "12848a1f84ad552475e874cce291926f292412de23b7537898e98c7370f2e86c",
      "vout": 2,
      "prevout": {
        "scriptpubkey": "5120f08ef289692506694d811bebae803caca1f1942343b67c49b124e89ef39d403f",
        "scriptpubkey_asm": "OP_PUSHNUM_1 OP_PUSHBYTES_32 f08ef289692506694d811bebae803caca1f1942343b67c49b124e89ef39d403f",
        "scriptpubkey_type": "v1_p2tr",
        "scriptpubkey_address": "bc1p7z809ztfy5rxjnvpr046aqpu4jslr9prgwm8cjd3yn5fauuagqlsascrnf",
        "value": 2358
      },
      "scriptsig": "",
      "scriptsig_asm": "",
      "witness": [
        "3f87c1506f3847e05bdf9b952e40762db79313d52b2c11fc06b23f15e0cb493d1f0ff3c2737159dac9ef8b5e3e86ed5b7097fe72acd1c6368354920b507feadf",
        "20b6918fb65216acfdfca0528e851579e0caee15b2c93689c6b4102d2a2df4f6aeac0063036f7264010118746578742f706c61696e3b636861727365743d7574662d3800377b2270223a226272632d3230222c226f70223a226d696e74222c227469636b223a22424f424f222c22616d74223a22313030303030227d68",
        "c0507504f881a2548efcb0bd8b5287fd78c473d5bd35b181abdd5c5cd6d10de204"
      ],
      "is_coinbase": false,
      "sequence": 4294967295
    }
  ],
  "vout": [
    {
      "scriptpubkey": "512048d62e6aa4ce9b4b4d760b1dc0c3e46b46d84be76ae456792a664139e7aaa19c",
      "scriptpubkey_asm": "OP_PUSHNUM_1 OP_PUSHBYTES_32 48d62e6aa4ce9b4b4d760b1dc0c3e46b46d84be76ae456792a664139e7aaa19c",
      "scriptpubkey_type": "v1_p2tr",
      "scriptpubkey_address": "bc1pfrtzu64ye6d5kntkpvwupslyddrdsjl8dtj9v7f2veqnnea25xwqu8ycu4",
      "value": 546
    }
  ],
  "size": 322,
  "weight": 604,
  "fee": 1812,
  "status": {
    "confirmed": true,
    "block_height": 834460,
    "block_hash": "00000000000000000000484a79b643b2524bbce82e5d8a442013fa5b8905ed98",
    "block_time": 1710307468
  },
  "hex": "020000000001016ce8f270738ce9987853b723de1224296f9291e2cc74e8752455ad841f8a84120200000000ffffffff01220200000000000022512048d62e6aa4ce9b4b4d760b1dc0c3e46b46d84be76ae456792a664139e7aaa19c03403f87c1506f3847e05bdf9b952e40762db79313d52b2c11fc06b23f15e0cb493d1f0ff3c2737159dac9ef8b5e3e86ed5b7097fe72acd1c6368354920b507feadf7d20b6918fb65216acfdfca0528e851579e0caee15b2c93689c6b4102d2a2df4f6aeac0063036f7264010118746578742f706c61696e3b636861727365743d7574662d3800377b2270223a226272632d3230222c226f70223a226d696e74222c227469636b223a22424f424f222c22616d74223a22313030303030227d6821c0507504f881a2548efcb0bd8b5287fd78c473d5bd35b181abdd5c5cd6d10de20400000000"
}