{
  "txid": "a1dbaaf9af37a58fc754c7a230389fae6183bb806641c2d7ba40ad907b4ec365",
  "version": 2,
  "locktime": 0,
  "vin": [
    {
      "txid": "acc3ba00869acb582a3f2904ce3a11dd3779350ce234063fc7d0959246213364",
      "vout": 252,
      "prevout": {
        "scriptpubkey": "5120623180262ec37c9a8da0a0a65b9c1ab5ac7a423254351108f205056614c08ca4",
        "scriptpubkey_asm": "OP_PUSHNUM_1 OP_PUSHBYTES_32 623180262ec37c9a8da0a0a65b9c1ab5ac7a423254351108f205056614c08ca4",
        "scriptpubkey_type": "v1_p2tr",
        "scriptpubkey_address": "bc1pvgccqf3wcd7f4rdq5zn9h8q6kkk85s3j2s63zz8jq5zkv9xq3jjq347ax7",
        "value": 1806
      },
      "scriptsig": "",
      "scriptsig_asm": "",
      "witness": [
        "34d4e8817958d9fb9aea8429d69059285c2c41de99f494d71c76f64649fb9bac9972b0dda73e8d965ccfb775ad09d1c4fe090bb57c41e9f5aebe9e6966502166",
        "20404d388e8362669e92c70e781e34f41975076a8731f1b0c6b4cbf8fcf03d5a61ac0063036f726401010a746578742f706c61696e00357b2270223a226272632d3230222c226f70223a226d696e74222c227469636b223a22646f6765222c22616d74223a2234323030227d68",
        "c1404d388e8362669e92c70e781e34f41975076a8731f1b0c6b4cbf8fcf03d5a61"
      ],
      "is_coinbase": false,
      "sequence": 4261412863
    }
  ],
  "vout": [
    {
      "scriptpubkey": "00147a665de7a370f4c9b372ab1fae587500a5bcbdb4",
      "scriptpubkey_asm": "OP_0 OP_PUSHBYTES_20 7a665de7a370f4c9b372ab1fae587500a5bcbdb4",
      "scriptpubkey_type": "v0_p2wpkh",
      "scriptpubkey_address": "bc1q0fn9mearwr6vnvmj4v06ukr4qzjme0d565dzcx",
      "value": 294
    }
  ],
  "size": 294,
  "weight": 540,
  "fee": 1512,
  "status": {
    "confirmed": true,
    "block_height": 834460,
    "block_hash": "00000000000000000000484a79b643b2524bbce82e5d8a442013fa5b8905ed98",
    "block_time": 1710307468
  },
  "hex": "02000000000101643321469295d0c73f0634e20c357937dd113ace04293f2a58cb9a8600bac3acfc00000000fffffffd0126010000000000001600147a665de7a370f4c9b372ab1fae587500a5bcbdb4034034d4e8817958d9fb9aea8429d69059285c2c41de99f494d71c76f64649fb9bac9972b0dda73e8d965ccfb775ad09d1c4fe090bb57c41e9f5aebe9e69665021666d20404d388e8362669e92c70e781e34f41975076a8731f1b0c6b4cbf8fcf03d5a61ac0063036f726401010a746578742f706c61696e00357b2270223a226272632d3230222c226f70223a226d696e74222c227469636b223a22646f6765222c22616d74223a2234323030227d6821c1404d388e8362669e92c70e781e34f41975076a8731f1b0c6b4cbf8fcf03d5a6100000000"
}