{
  "txid": "a1e6f8a6da1a9a63eeace306f5f25fb32dac58301afc7908dc98236618396579",
  "version": 2,
  "locktime": 0,
  "vin": [
    {
      "txid": "303f3135e4e7ca4584d6590e140bb6ae278a0c9b2b105f450665b3a4577c4670",
      "vout": 1,
      "prevout": {
        "scriptpubkey": "00149c38191f20275ea9ececd2f762c450ff159508f8",
        "scriptpubkey_asm": "OP_0 OP_PUSHBYTES_20 9c38191f20275ea9ececd2f762c450ff159508f8",
        "scriptpubkey_type": "v0_p2wpkh",
        "scriptpubkey_address": "bc1qnsupj8eqya02nm8v6tmk93zslu2e2z8chlmcej",
        "value": 884547681
      },
      "scriptsig": "",
      "scriptsig_asm": "",
      "witness": [
        "304402203384e521986f665678fab40e6fc8d93440a576db514563d9163236347887124902206b0d86fdefc57b461a09651cfebe1b82d415aeea66c808469a7eb2bcd7e8316401",
        "0244587bb17c3d845ae477a2fb2511ef7233e7b3e8f3ec6f83bd154be74c39bf66"
      ],
      "is_coinbase": false,
      "sequence": 4294967295
    }
  ],
  "vout": [
    {
      "scriptpubkey": "0014208401f75d0004e2f7869373cdb3b0d33e045962",
      "scriptpubkey_asm": "OP_0 OP_PUSHBYTES_20 208401f75d0004e2f7869373cdb3b0d33e045962",
      "scriptpubkey_type": "v0_p2wpkh",
      "scriptpubkey_address": "bc1qyzzqra6aqqzw9auxjdeumvas6vlqgktzt5alt4",
      "value": 369650
    },
    {
      "scriptpubkey": "00149c38191f20275ea9ececd2f762c450ff159508f8",
      "scriptpubkey_asm": "OP_0 OP_PUSHBYTES_20 9c38191f20275ea9ececd2f762c450ff159508f8",
      "scriptpubkey_type": "v0_p2wpkh",
      "scriptpubkey_address": "bc1qnsupj8eqya02nm8v6tmk93zslu2e2z8chlmcej",
      "value": 884173472
    }
  ],
  "size": 222,
  "weight": 561,
  "fee": 4559,
  "status": {
    "confirmed": true,
    "block_height": 834638,
    "block_hash": "000000000000000000025f742c626208ac87e0b7d15054abb4a19ca2d735a54e",
    "block_time": 1710405325
  },
  "hex": "0200000000010170467c57a4b36506455f102b9b0c8a27aeb60b140e59d68445cae7e435313f300100000000ffffffff02f2a3050000000000160014208401f75d0004e2f7869373cdb3b0d33e045962a06ab334000000001600149c38191f20275ea9ececd2f762c450ff159508f80247304402203384e521986f665678fab40e6fc8d93440a576db514563d9163236347887124902206b0d86fdefc57b461a09651cfebe1b82d415aeea66c808469a7eb2bcd7e8316401210244587bb17c3d845ae477a2fb2511ef7233e7b3e8f3ec6f83bd154be74c39bf6600000000"
}