{
  "txid": "a1eddf5ff3f1c5a760ac1dab80b3220b8048d4009a07275dee306a3350e905a6",
  "version": 2,
  "locktime": 0,
  "vin": [
    {
      "txid": "1afa88e19b848d95de486606f833ce6a45bc9ac684f2f8b762e136e96f2699aa",
      "vout": 0,
      "prevout": {
        "scriptpubkey": "5120e75848ab1ea653e9c73ee199cb7ce96595f51580f4f7c1f9d529c4b5fcff8b4f",
        "scriptpubkey_asm": "OP_PUSHNUM_1 OP_PUSHBYTES_32 e75848ab1ea653e9c73ee199cb7ce96595f51580f4f7c1f9d529c4b5fcff8b4f",
        "scriptpubkey_type": "v1_p2tr",
        "scriptpubkey_address": "bc1puavy32c75ef7n3e7uxvukl8fvk2l29vq7nmur7w498zttl8l3d8s4artc2",
        "value": 2826
      },
      "scriptsig": "",
      "scriptsig_asm": "",
      "witness": [
        "657f6a4c555b89ea83143df1cb5c3f441177e45591c6d4a2445ee3ff098089302cc96e713d1c7b72c705629a11f995cf299a42b15209678a3175a1a91e0a73b9",
        "202478ac67146fb4389024ea2db1b58a0345d7429acbe2672e09586b9eb4565ff7ac0063036f7264010118746578742f706c61696e3b636861727365743d7574662d3800387b2270223a226272632d3230222c226f70223a227472616e73666572222c227469636b223a22736c6f72222c22616d74223a22353030227d68",
        "c02478ac67146fb4389024ea2db1b58a0345d7429acbe2672e09586b9eb4565ff7"
      ],
      "is_coinbase": false,
      "sequence": 4294967293
    }
  ],
  "vout": [
    {
      "scriptpubkey": "5120776b9978151a7bc9be3f214cd6a9257937d52e0f6a450b680c4e021acd67803c",
      "scriptpubkey_asm": "OP_PUSHNUM_1 OP_PUSHBYTES_32 776b9978151a7bc9be3f214cd6a9257937d52e0f6a450b680c4e021acd67803c",
      "scriptpubkey_type": "v1_p2tr",
      "scriptpubkey_address": "bc1pwa4ej7q4rfaun03ly9xdd2f90yma2ts0dfzsk6qvfcpp4nt8sq7qupzn6z",
      "value": 546
    }
  ],
  "size": 323,
  "weight": 605,
  "fee": 2280,
  "status": {
    "confirmed": true,
    "block_height": 834638,
    "block_hash": "000000000000000000025f742c626208ac87e0b7d15054abb4a19ca2d735a54e",
    "block_time": 1710405325
  },
  "hex": "02000000000101aa99266fe936e162b7f8f284c69abc456ace33f8066648de958d849be188fa1a0000000000fdffffff012202000000000000225120776b9978151a7bc9be3f214cd6a9257937d52e0f6a450b680c4e021acd67803c0340657f6a4c555b89ea83143df1cb5c3f441177e45591c6d4a2445ee3ff098089302cc96e713d1c7b72c705629a11f995cf299a42b15209678a3175a1a91e0a73b97e202478ac67146fb4389024ea2db1b58a0345d7429acbe2672e09586b9eb4565ff7ac0063036f7264010118746578742f706c61696e3b636861727365743d7574662d3800387b2270223a226272632d3230222c226f70223a227472616e73666572222c227469636b223a22736c6f72222c22616d74223a22353030227d6821c02478ac67146fb4389024ea2db1b58a0345d7429acbe2672e09586b9eb4565ff700000000"
}