{
  "txid": "a1f49c8f8c043f5b0a9f8c5cb7132952a0576b98a5637dd3d946d5ce8aef90e6",
  "version": 2,
  "locktime": 834637,
  "vin": [
    {
      "txid": "27cdc2186a2f72ca4a8b78986a2bcac3b6660ada2ecce1b16c80637d733069cb",
      "vout": 1,
      "prevout": {
        "scriptpubkey": "0014bd7154715d866286cbe36fdaa75ce1323f1ea087",
        "scriptpubkey_asm": "OP_0 OP_PUSHBYTES_20 bd7154715d866286cbe36fdaa75ce1323f1ea087",
        "scriptpubkey_type": "v0_p2wpkh",
        "scriptpubkey_address": "bc1qh4c4gu2ase3gdjlrdld2wh8pxgl3agy8jyfme5",
        "value": 1009703
      },
      "scriptsig": "",
      "scriptsig_asm": "",
      "witness": [
        "3044022027fcd6bad5b23587a96f166844d904e5e3111d0dca1c124d3668a3f0f84e388c0220324f2936bea0bc585580b7de96567134036a596bae054307ec3f98a181e72c3c01",
        "03db34817ccf9b9e07422bff326e0771d91a655d37ec7814d4d9eded1f40794fff"
      ],
      "is_coinbase": false,
      "sequence": 4294967294
    },
    {
      "txid": "76a669dba5d8d457f7c53acc8a7280977c18065420fd164e898b212e32c9fb2b",
      "vout": 1,
      "prevout": {
        "scriptpubkey": "001431847974903fc07a39237b3fcea825c6a453e620",
        "scriptpubkey_asm": "OP_0 OP_PUSHBYTES_20 31847974903fc07a39237b3fcea825c6a453e620",
        "scriptpubkey_type": "v0_p2wpkh",
        "scriptpubkey_address": "bc1qxxz8jays8lq85wfr0vlua2p9c6j98e3qypg9lp",
        "value": 2314208
      },
      "scriptsig": "",
      "scriptsig_asm": "",
      "witness": [
        "304402200cc997ee065ae329e8fb58362d0e1d0a6fdd2c6ec03acc2d57a88f1b644b74b50220614dc908c2668b2ad71f33c1b910d16e64cc12749edf6e01fb5e761ef64a5f3e01",
        "0354aaf340ac8e4bf527f5089815938c366aff01abf19c903edf5edce50ac1ad37"
      ],
      "is_coinbase": false,
      "sequence": 4294967294
    }
  ],
  "vout": [
    {
      "scriptpubkey": "0014dcb78761c628ceb4fac78d21e93c32926c9ce4f3",
      "scriptpubkey_asm": "OP_0 OP_PUSHBYTES_20 dcb78761c628ceb4fac78d21e93c32926c9ce4f3",
      "scriptpubkey_type": "v0_p2wpkh",
      "scriptpubkey_address": "bc1qmjmcwcwx9r8tf7k835s7j0pjjfkfee8nrx6n0l",
      "value": 1410074
    },
    {
      "scriptpubkey": "76a91470f80595b3b7d468b99863e4fb0903704fd22d0a88ac",
      "scriptpubkey_asm": "OP_DUP OP_HASH160 OP_PUSHBYTES_20 70f80595b3b7d468b99863e4fb0903704fd22d0a OP_EQUALVERIFY OP_CHECKSIG",
      "scriptpubkey_type": "p2pkh",
      "scriptpubkey_address": "1BJKoLtPSRZCdJDsegdfJaFrVkB6KLKGcN",
      "value": 203428
    },
    {
      "scriptpubkey": "76a9143c193c58dc04d6ff3711796c4ec58cfecef9a2b088ac",
      "scriptpubkey_asm": "OP_DUP OP_HASH160 OP_PUSHBYTES_20 3c193c58dc04d6ff3711796c4ec58cfecef9a2b0 OP_EQUALVERIFY OP_CHECKSIG",
      "scriptpubkey_type": "p2pkh",
      "scriptpubkey_address": "16UmmvK1XaCZx1xFfCBtyxTweHkr5q2m2T",
      "value": 1704416
    }
  ],
  "size": 407,
  "weight": 980,
  "fee": 5993,
  "status": {
    "confirmed": true,
    "block_height": 834638,
    "block_hash": "000000000000000000025f742c626208ac87e0b7d15054abb4a19ca2d735a54e",
    "block_time": 1710405325
  },
  "hex": "02000000000102cb6930737d63806cb1e1cc2eda0a66b6c3ca2b6a98788b4aca722f6a18c2cd270100000000feffffff2bfbc9322e218b894e16fd205406187c9780728acc3ac5f757d4d8a5db69a6760100000000feffffff031a84150000000000160014dcb78761c628ceb4fac78d21e93c32926c9ce4f3a41a0300000000001976a91470f80595b3b7d468b99863e4fb0903704fd22d0a88ace0011a00000000001976a9143c193c58dc04d6ff3711796c4ec58cfecef9a2b088ac02473044022027fcd6bad5b23587a96f166844d904e5e3111d0dca1c124d3668a3f0f84e388c0220324f2936bea0bc585580b7de96567134036a596bae054307ec3f98a181e72c3c012103db34817ccf9b9e07422bff326e0771d91a655d37ec7814d4d9eded1f40794fff0247304402200cc997ee065ae329e8fb58362d0e1d0a6fdd2c6ec03acc2d57a88f1b644b74b50220614dc908c2668b2ad71f33c1b910d16e64cc12749edf6e01fb5e761ef64a5f3e01210354aaf340ac8e4bf527f5089815938c366aff01abf19c903edf5edce50ac1ad374dbc0c00"
}