{
  "txid": "a1f5d621cf61d8900bff0aa7111eaa1f55a3718e6a5e9673babff08565ce5eaf",
  "version": 2,
  "locktime": 0,
  "vin": [
    {
      "txid": "06b125e79efe248c851962aa3f63f42505665fd5fc22bd127c1a56ff48b30d3e",
      "vout": 0,
      "prevout": {
        "scriptpubkey": "0014c8682f6cb0a65cf34a5a9139006f8192eac5a171",
        "scriptpubkey_asm": "OP_0 OP_PUSHBYTES_20 c8682f6cb0a65cf34a5a9139006f8192eac5a171",
        "scriptpubkey_type": "v0_p2wpkh",
        "scriptpubkey_address": "bc1qep5z7m9s5ew0xjj6jyusqmupjt4vtgt33h3x0s",
        "value": 412998
      },
      "scriptsig": "",
      "scriptsig_asm": "",
      "witness": [
        "30440220641e62d9b5e8be1ee70ced25f99d39219ae4d97f6039fe67d8a0eb5a1d31a7e802207efbcca86736d6824d6c894153930ae6bbe8d070118b65df8090ac9a5db7aae501",
        "0363fb71d1ed1c06c8733758ec8e9e4ae1ba64c67eb871f1b22b4507ad05535707"
      ],
      "is_coinbase": false,
      "sequence": 4294967293
    }
  ],
  "vout": [
    {
      "scriptpubkey": "001496800ef33ff63cb3908ef5e8879fc8f5dc79742b",
      "scriptpubkey_asm": "OP_0 OP_PUSHBYTES_20 96800ef33ff63cb3908ef5e8879fc8f5dc79742b",
      "scriptpubkey_type": "v0_p2wpkh",
      "scriptpubkey_address": "bc1qj6qqauel7c7t8yyw7h5g087g7hw8japtfx352r",
      "value": 295879
    },
    {
      "scriptpubkey": "76a914caeb13448a8a75079207f5b690ef8455545ccf5188ac",
      "scriptpubkey_asm": "OP_DUP OP_HASH160 OP_PUSHBYTES_20 caeb13448a8a75079207f5b690ef8455545ccf51 OP_EQUALVERIFY OP_CHECKSIG",
      "scriptpubkey_type": "p2pkh",
      "scriptpubkey_address": "1KVw74oFLQxqMoM4MwHL4cztdZZJU664Ei",
      "value": 112119
    }
  ],
  "size": 225,
  "weight": 573,
  "fee": 5000,
  "status": {
    "confirmed": true,
    "block_height": 834638,
    "block_hash": "000000000000000000025f742c626208ac87e0b7d15054abb4a19ca2d735a54e",
    "block_time": 1710405325
  },
  "hex": "020000000001013e0db348ff561a7c12bd22fcd55f660525f4633faa6219858c24fe9ee725b1060000000000fdffffff02c78304000000000016001496800ef33ff63cb3908ef5e8879fc8f5dc79742bf7b50100000000001976a914caeb13448a8a75079207f5b690ef8455545ccf5188ac024730440220641e62d9b5e8be1ee70ced25f99d39219ae4d97f6039fe67d8a0eb5a1d31a7e802207efbcca86736d6824d6c894153930ae6bbe8d070118b65df8090ac9a5db7aae501210363fb71d1ed1c06c8733758ec8e9e4ae1ba64c67eb871f1b22b4507ad0553570700000000"
}