{
  "txid": "a20cbe51cc30a0cf6a82ce091b031b2107147194e8279dc548882c4b44364027",
  "version": 2,
  "locktime": 0,
  "vin": [
    {
      "txid": "2af93c8cfa2893c85559ca4be6736f0c7b60fd79ef7a40ed164ca5639d82784d",
      "vout": 1,
      "prevout": {
        "scriptpubkey": "0014f072e4acac6b1f0b63fb691e28be84f4d0c0f9c3",
        "scriptpubkey_asm": "OP_0 OP_PUSHBYTES_20 f072e4acac6b1f0b63fb691e28be84f4d0c0f9c3",
        "scriptpubkey_type": "v0_p2wpkh",
        "scriptpubkey_address": "bc1q7pewft9vdv0skclmdy0z305y7ngvp7wremu33f",
        "value": 423477
      },
      "scriptsig": "",
      "scriptsig_asm": "",
      "witness": [
        "3044022023ed16234c7ca604f97f2cf7afb4e7bf1cd66a959f2670cd11bd80a1c8966891022027b5e0ca2dc14f5183dd5c883bdaf13d2b5705308902eb4ded504e93fa1900d801",
        "039c68804f615b49343be8c2b5b5376329045f47a5e49a9edea8a04d0e0dbb9478"
      ],
      "is_coinbase": false,
      "sequence": 4294967293
    }
  ],
  "vout": [
    {
      "scriptpubkey": "0014d421f3b1e2c8234c2023315ad4a81ff8c9e9bf2b",
      "scriptpubkey_asm": "OP_0 OP_PUSHBYTES_20 d421f3b1e2c8234c2023315ad4a81ff8c9e9bf2b",
      "scriptpubkey_type": "v0_p2wpkh",
      "scriptpubkey_address": "bc1q6ssl8v0zeq35cgprx9ddf2qllry7n0etdrkqxp",
      "value": 285061
    },
    {
      "scriptpubkey": "a91455e1cc9b31942addc939ebb97d40ac67e03eb10f87",
      "scriptpubkey_asm": "OP_HASH160 OP_PUSHBYTES_20 55e1cc9b31942addc939ebb97d40ac67e03eb10f OP_EQUAL",
      "scriptpubkey_type": "p2sh",
      "scriptpubkey_address": "39X7rezLMxawPjicKma2Ftitw4xjZ7SdeB",
      "value": 136327
    }
  ],
  "size": 223,
  "weight": 565,
  "fee": 2089,
  "status": {
    "confirmed": true,
    "block_height": 834638,
    "block_hash": "000000000000000000025f742c626208ac87e0b7d15054abb4a19ca2d735a54e",
    "block_time": 1710405325
  },
  "hex": "020000000001014d78829d63a54c16ed407aef79fd607b0c6f73e64bca5955c89328fa8c3cf92a0100000000fdffffff028559040000000000160014d421f3b1e2c8234c2023315ad4a81ff8c9e9bf2b871402000000000017a91455e1cc9b31942addc939ebb97d40ac67e03eb10f8702473044022023ed16234c7ca604f97f2cf7afb4e7bf1cd66a959f2670cd11bd80a1c8966891022027b5e0ca2dc14f5183dd5c883bdaf13d2b5705308902eb4ded504e93fa1900d80121039c68804f615b49343be8c2b5b5376329045f47a5e49a9edea8a04d0e0dbb947800000000"
}