{
  "txid": "a20e63183a8375d5b785fc02e41c870d278f778be1c8adcce7e595f8fedf7e9a",
  "version": 2,
  "locktime": 0,
  "vin": [
    {
      "txid": "9db249840dbb2fdd6c569003737bd907d36b84a5c900484d16801fe467998ca7",
      "vout": 0,
      "prevout": {
        "scriptpubkey": "5120d98b1d6012d924f7dacddb5a1faf8cd43e800960a5e67fa73af37d6598f1c374",
        "scriptpubkey_asm": "OP_PUSHNUM_1 OP_PUSHBYTES_32 d98b1d6012d924f7dacddb5a1faf8cd43e800960a5e67fa73af37d6598f1c374",
        "scriptpubkey_type": "v1_p2tr",
        "scriptpubkey_address": "bc1pmx936cqjmyj00kkdmddpltuv6slgqztq5hn8lfe67d7ktx83cd6qdl3c3w",
        "value": 2826
      },
      "scriptsig": "",
      "scriptsig_asm": "",
      "witness": [
        "33057d9d2051274b98d55b99861ab32c1b248cd94c788743f08658343c3233392b2efd61be0abf549e5c653a7d16b168a90e8ac8918149047a5d8d232821c8f8",
        "2019b813d1277f747a2cdddcba2d17498779070ab6e1569c832b783986c792b2f9ac0063036f7264010118746578742f706c61696e3b636861727365743d7574662d3800397b2270223a226272632d3230222c226f70223a227472616e73666572222c227469636b223a22454a4144222c22616d74223a2239303030227d68",
        "c019b813d1277f747a2cdddcba2d17498779070ab6e1569c832b783986c792b2f9"
      ],
      "is_coinbase": false,
      "sequence": 4294967293
    }
  ],
  "vout": [
    {
      "scriptpubkey": "51203f243e60c0b74f078efafb187405e19212a29e117f4fd847c2593a76ce7e0a55",
      "scriptpubkey_asm": "OP_PUSHNUM_1 OP_PUSHBYTES_32 3f243e60c0b74f078efafb187405e19212a29e117f4fd847c2593a76ce7e0a55",
      "scriptpubkey_type": "v1_p2tr",
      "scriptpubkey_address": "bc1p8ujrucxqka8s0rh6lvv8gp0pjgf298s30a8as37ztya8dnn7pf2suer0sg",
      "value": 546
    }
  ],
  "size": 324,
  "weight": 606,
  "fee": 2280,
  "status": {
    "confirmed": true,
    "block_height": 834460,
    "block_hash": "00000000000000000000484a79b643b2524bbce82e5d8a442013fa5b8905ed98",
    "block_time": 1710307468
  },
  "hex": "02000000000101a78c9967e41f80164d4800c9a5846bd307d97b730390566cdd2fbb0d8449b29d0000000000fdffffff0122020000000000002251203f243e60c0b74f078efafb187405e19212a29e117f4fd847c2593a76ce7e0a55034033057d9d2051274b98d55b99861ab32c1b248cd94c788743f08658343c3233392b2efd61be0abf549e5c653a7d16b168a90e8ac8918149047a5d8d232821c8f87f2019b813d1277f747a2cdddcba2d17498779070ab6e1569c832b783986c792b2f9ac0063036f7264010118746578742f706c61696e3b636861727365743d7574662d3800397b2270223a226272632d3230222c226f70223a227472616e73666572222c227469636b223a22454a4144222c22616d74223a2239303030227d6821c019b813d1277f747a2cdddcba2d17498779070ab6e1569c832b783986c792b2f900000000"
}