{
  "txid": "a216c554f5429a2d9b78b6d215e318f471f5fe57c845919be8e05518167df4af",
  "version": 2,
  "locktime": 834637,
  "vin": [
    {
      "txid": "06d607f249213b824330ef88ae2950a93fdb58706433a73106af0b643b133d5e",
      "vout": 1,
      "prevout": {
        "scriptpubkey": "0014cdac12b59480a270a04a9e8acb1b12dc2604ae08",
        "scriptpubkey_asm": "OP_0 OP_PUSHBYTES_20 cdac12b59480a270a04a9e8acb1b12dc2604ae08",
        "scriptpubkey_type": "v0_p2wpkh",
        "scriptpubkey_address": "bc1qekkp9dv5sz38pgz2n69vkxcjmsnqftsgyvr6hf",
        "value": 1094858
      },
      "scriptsig": "",
      "scriptsig_asm": "",
      "witness": [
        "30440220466ad1663ab6a406610df34de6696c2eb06c6df2c4ae5e5a68db054f2a24d0730220549340b700408b6c4dc60faddfcad0ef7f1532d8445e99150df9c65d81659faa01",
        "0248ffc5bfb6758685ed72166241f38aac091ab03aea85cbfda0d3ca3a504f8220"
      ],
      "is_coinbase": false,
      "sequence": 4294967293
    }
  ],
  "vout": [
    {
      "scriptpubkey": "a9145dc6e42fbce7604f078265cceef53334d2434c4687",
      "scriptpubkey_asm": "OP_HASH160 OP_PUSHBYTES_20 5dc6e42fbce7604f078265cceef53334d2434c46 OP_EQUAL",
      "scriptpubkey_type": "p2sh",
      "scriptpubkey_address": "3AEs2bcCHvqf2SCmJ7bZb3cyCCJrpsoUtx",
      "value": 25968
    },
    {
      "scriptpubkey": "00145ed504cc9f3435dec4f21b95d7c0c1c07a7742e1",
      "scriptpubkey_asm": "OP_0 OP_PUSHBYTES_20 5ed504cc9f3435dec4f21b95d7c0c1c07a7742e1",
      "scriptpubkey_type": "v0_p2wpkh",
      "scriptpubkey_address": "bc1qtm2sfnylxs6aa38jrw2a0sxpcpa8wshpxa78am",
      "value": 15552
    },
    {
      "scriptpubkey": "00140e9f4a1288088ca6bb25d9d5d2e095a234d17946",
      "scriptpubkey_asm": "OP_0 OP_PUSHBYTES_20 0e9f4a1288088ca6bb25d9d5d2e095a234d17946",
      "scriptpubkey_type": "v0_p2wpkh",
      "scriptpubkey_address": "bc1qp6055y5gpzx2dwe9m82a9cy45g6dz72x80k3ts",
      "value": 124526
    },
    {
      "scriptpubkey": "0014d38ddbc72d32a74de740b1b259c8bd159acaf507",
      "scriptpubkey_asm": "OP_0 OP_PUSHBYTES_20 d38ddbc72d32a74de740b1b259c8bd159acaf507",
      "scriptpubkey_type": "v0_p2wpkh",
      "scriptpubkey_address": "bc1q6wxah3edx2n5me6qkxe9nj9azkdv4ag8emghpm",
      "value": 77764
    },
    {
      "scriptpubkey": "0014bdc21579c9d08dad4935d5938c3d7612ec03c97a",
      "scriptpubkey_asm": "OP_0 OP_PUSHBYTES_20 bdc21579c9d08dad4935d5938c3d7612ec03c97a",
      "scriptpubkey_type": "v0_p2wpkh",
      "scriptpubkey_address": "bc1qhhpp27wf6zx66jf46kfcc0tkztkq8jt6yfwhgs",
      "value": 13523
    },
    {
      "scriptpubkey": "0014cc084378cda0efae8612bd53843ae5a8313be60d",
      "scriptpubkey_asm": "OP_0 OP_PUSHBYTES_20 cc084378cda0efae8612bd53843ae5a8313be60d",
      "scriptpubkey_type": "v0_p2wpkh",
      "scriptpubkey_address": "bc1qesyyx7xd5rh6apsjh4fcgwh94qcnhesdpw97wq",
      "value": 55388
    },
    {
      "scriptpubkey": "00142ee7cb36c64e8a68e54fe5ac76ace0ec90c7d0c6",
      "scriptpubkey_asm": "OP_0 OP_PUSHBYTES_20 2ee7cb36c64e8a68e54fe5ac76ace0ec90c7d0c6",
      "scriptpubkey_type": "v0_p2wpkh",
      "scriptpubkey_address": "bc1q9mnukdkxf69x3e20ukk8dt8qajgv05xx664wd4",
      "value": 41586
    },
    {
      "scriptpubkey": "0014fca659104080461383539d63b34ca974edde3bd7",
      "scriptpubkey_asm": "OP_0 OP_PUSHBYTES_20 fca659104080461383539d63b34ca974edde3bd7",
      "scriptpubkey_type": "v0_p2wpkh",
      "scriptpubkey_address": "bc1qljn9jyzqsprp8q6nn43mxn9fwnkauw7hqaf34f",
      "value": 79572
    },
    {
      "scriptpubkey": "0014dba7fd6bea9ef03dfaa242c930523946e20c8473",
      "scriptpubkey_asm": "OP_0 OP_PUSHBYTES_20 dba7fd6bea9ef03dfaa242c930523946e20c8473",
      "scriptpubkey_type": "v0_p2wpkh",
      "scriptpubkey_address": "bc1qmwnl66l2nmcrm74zgtynq53egm3qeprn4gwvuf",
      "value": 47995
    },
    {
      "scriptpubkey": "001426db34630b444a505c863aa18867cc9673d2eed3",
      "scriptpubkey_asm": "OP_0 OP_PUSHBYTES_20 26db34630b444a505c863aa18867cc9673d2eed3",
      "scriptpubkey_type": "v0_p2wpkh",
      "scriptpubkey_address": "bc1qymdngcctg399qhyx82scse7vjeea9mkn05rk8e",
      "value": 42750
    },
    {
      "scriptpubkey": "0014b11269d071edf6618571da6b6a00af7fa4c7d8a4",
      "scriptpubkey_asm": "OP_0 OP_PUSHBYTES_20 b11269d071edf6618571da6b6a00af7fa4c7d8a4",
      "scriptpubkey_type": "v0_p2wpkh",
      "scriptpubkey_address": "bc1qkyfxn5r3ahmxrpt3mf4k5q9007jv0k9y728mws",
      "value": 168822
    },
    {
      "scriptpubkey": "0014b28733e4fffcb7e5654dc8c6dcb11003d3e669a0",
      "scriptpubkey_asm": "OP_0 OP_PUSHBYTES_20 b28733e4fffcb7e5654dc8c6dcb11003d3e669a0",
      "scriptpubkey_type": "v0_p2wpkh",
      "scriptpubkey_address": "bc1qk2rn8e8lljm72e2derrdevgsq0f7v6dq0x0esa",
      "value": 38834
    },
    {
      "scriptpubkey": "001421170fcd7f2d8c28dd2dea6121332f5f0f174080",
      "scriptpubkey_asm": "OP_0 OP_PUSHBYTES_20 21170fcd7f2d8c28dd2dea6121332f5f0f174080",
      "scriptpubkey_type": "v0_p2wpkh",
      "scriptpubkey_address": "bc1qyytslntl9kxz3hfdafsjzve0tu83wsyq8pmumm",
      "value": 255057
    },
    {
      "scriptpubkey": "0014cc623f016a76d624ae53bba60a483ec50e89de68",
      "scriptpubkey_asm": "OP_0 OP_PUSHBYTES_20 cc623f016a76d624ae53bba60a483ec50e89de68",
      "scriptpubkey_type": "v0_p2wpkh",
      "scriptpubkey_address": "bc1qe33r7qt2wmtzftjnhwnq5jp7c58gnhng06y975",
      "value": 64773
    },
    {
      "scriptpubkey": "0014fc30e88ce9894ed5b66284019ec23d02b8aea588",
      "scriptpubkey_asm": "OP_0 OP_PUSHBYTES_20 fc30e88ce9894ed5b66284019ec23d02b8aea588",
      "scriptpubkey_type": "v0_p2wpkh",
      "scriptpubkey_address": "bc1qlscw3r8f398dtdnzssqeas3aq2u2afvgg4u5yx",
      "value": 29123
    }
  ],
  "size": 626,
  "weight": 2177,
  "fee": 13625,
  "status": {
    "confirmed": true,
    "block_height": 834638,
    "block_hash": "000000000000000000025f742c626208ac87e0b7d15054abb4a19ca2d735a54e",
    "block_time": 1710405325
  },
  "hex": "020000000001015e3d133b640baf0631a733647058db3fa95029ae88ef3043823b2149f207d6060100000000fdffffff0f706500000000000017a9145dc6e42fbce7604f078265cceef53334d2434c4687c03c0000000000001600145ed504cc9f3435dec4f21b95d7c0c1c07a7742e16ee60100000000001600140e9f4a1288088ca6bb25d9d5d2e095a234d17946c42f010000000000160014d38ddbc72d32a74de740b1b259c8bd159acaf507d334000000000000160014bdc21579c9d08dad4935d5938c3d7612ec03c97a5cd8000000000000160014cc084378cda0efae8612bd53843ae5a8313be60d72a20000000000001600142ee7cb36c64e8a68e54fe5ac76ace0ec90c7d0c6d436010000000000160014fca659104080461383539d63b34ca974edde3bd77bbb000000000000160014dba7fd6bea9ef03dfaa242c930523946e20c8473fea600000000000016001426db34630b444a505c863aa18867cc9673d2eed37693020000000000160014b11269d071edf6618571da6b6a00af7fa4c7d8a4b297000000000000160014b28733e4fffcb7e5654dc8c6dcb11003d3e669a051e403000000000016001421170fcd7f2d8c28dd2dea6121332f5f0f17408005fd000000000000160014cc623f016a76d624ae53bba60a483ec50e89de68c371000000000000160014fc30e88ce9894ed5b66284019ec23d02b8aea588024730440220466ad1663ab6a406610df34de6696c2eb06c6df2c4ae5e5a68db054f2a24d0730220549340b700408b6c4dc60faddfcad0ef7f1532d8445e99150df9c65d81659faa01210248ffc5bfb6758685ed72166241f38aac091ab03aea85cbfda0d3ca3a504f82204dbc0c00"
}