{
  "txid": "a21cb6c8d6291ec14e97db93115d238a1f4ada6bba03a2256a7c7fac9dc0847d",
  "version": 2,
  "locktime": 832960,
  "vin": [
    {
      "txid": "cf615a59e615664cc63216787b0932d8b4a71ebaaa836d5cca45fdc5eeb8209e",
      "vout": 338,
      "prevout": {
        "scriptpubkey": "0014ccc05662dfaeda0d7a29d6c0b0e9fa1120d77353",
        "scriptpubkey_asm": "OP_0 OP_PUSHBYTES_20 ccc05662dfaeda0d7a29d6c0b0e9fa1120d77353",
        "scriptpubkey_type": "v0_p2wpkh",
        "scriptpubkey_address": "bc1qenq9vckl4mdq673f6mqtp606zysdwu6n6dalq7",
        "value": 187106
      },
      "scriptsig": "",
      "scriptsig_asm": "",
      "witness": [
        "30440220348ed9fdd43a877dec68198b4c66bb4fefc2aca6c048a08a14c55dd77af1ebfa022045b0379ed05bfd560ab5e9be9b339efccf2aecbaa91629868538d4089c3fe71101",
        "020beb55e6759995f787d363695d4faaf6fcb9709ad4dbefa18d2707834d5e3f60"
      ],
      "is_coinbase": false,
      "sequence": 4294967293
    },
    {
      "txid": "23da8b8ec219d5f94f2fe645db3d054686afab9821ac3d802cbf315ab61e3a0c",
      "vout": 239,
      "prevout": {
        "scriptpubkey": "0014ccc05662dfaeda0d7a29d6c0b0e9fa1120d77353",
        "scriptpubkey_asm": "OP_0 OP_PUSHBYTES_20 ccc05662dfaeda0d7a29d6c0b0e9fa1120d77353",
        "scriptpubkey_type": "v0_p2wpkh",
        "scriptpubkey_address": "bc1qenq9vckl4mdq673f6mqtp606zysdwu6n6dalq7",
        "value": 175201
      },
      "scriptsig": "",
      "scriptsig_asm": "",
      "witness": [
        "3045022100f60de11e9f6ed377c9e02b609bbcb1f30b0032cd83093767fb3a3a32491ad24702204d7003829e2c2599de1c6e40e2b6ffee8890e2791f48d918137a3c08525321d401",
        "020beb55e6759995f787d363695d4faaf6fcb9709ad4dbefa18d2707834d5e3f60"
      ],
      "is_coinbase": false,
      "sequence": 4294967293
    },
    {
      "txid": "1f9b63922bcbb26a1fccf51bf5e23a74985e438b8a2b28c143849672f3b3a752",
      "vout": 418,
      "prevout": {
        "scriptpubkey": "0014ccc05662dfaeda0d7a29d6c0b0e9fa1120d77353",
        "scriptpubkey_asm": "OP_0 OP_PUSHBYTES_20 ccc05662dfaeda0d7a29d6c0b0e9fa1120d77353",
        "scriptpubkey_type": "v0_p2wpkh",
        "scriptpubkey_address": "bc1qenq9vckl4mdq673f6mqtp606zysdwu6n6dalq7",
        "value": 189565
      },
      "scriptsig": "",
      "scriptsig_asm": "",
      "witness": [
        "3044022051759e73db586cd69514f489e691751132e70be93ca1b4d1c645b7c4c6d301aa022029ba6abe0056191cc8843797ea5673b9d3b1e6b2f5bb717aee50f7e2cb3c6f3701",
        "020beb55e6759995f787d363695d4faaf6fcb9709ad4dbefa18d2707834d5e3f60"
      ],
      "is_coinbase": false,
      "sequence": 4294967293
    },
    {
      "txid": "87679edcdddc588cdda2a0060dec528b59889373cc996f7aca678d37cce7b7cb",
      "vout": 285,
      "prevout": {
        "scriptpubkey": "0014ccc05662dfaeda0d7a29d6c0b0e9fa1120d77353",
        "scriptpubkey_asm": "OP_0 OP_PUSHBYTES_20 ccc05662dfaeda0d7a29d6c0b0e9fa1120d77353",
        "scriptpubkey_type": "v0_p2wpkh",
        "scriptpubkey_address": "bc1qenq9vckl4mdq673f6mqtp606zysdwu6n6dalq7",
        "value": 171329
      },
      "scriptsig": "",
      "scriptsig_asm": "",
      "witness": [
        "30440220089b094e97218292202f678dc9195b83a2975679c3ea683ed1679e4cfa5e73f102201d7ef6f1d090bd1c172f201a4625e3fdb398c58b101d57b7c75dda8a93e818fc01",
        "020beb55e6759995f787d363695d4faaf6fcb9709ad4dbefa18d2707834d5e3f60"
      ],
      "is_coinbase": false,
      "sequence": 4294967293
    },
    {
      "txid": "a69ccf96b1e9a56e2d424a83813a44dcde4c929069788978632a805201f0d9a3",
      "vout": 302,
      "prevout": {
        "scriptpubkey": "0014ccc05662dfaeda0d7a29d6c0b0e9fa1120d77353",
        "scriptpubkey_asm": "OP_0 OP_PUSHBYTES_20 ccc05662dfaeda0d7a29d6c0b0e9fa1120d77353",
        "scriptpubkey_type": "v0_p2wpkh",
        "scriptpubkey_address": "bc1qenq9vckl4mdq673f6mqtp606zysdwu6n6dalq7",
        "value": 195513
      },
      "scriptsig": "",
      "scriptsig_asm": "",
      "witness": [
        "3044022065c5526c1fc3011c21c7a2c2fa5a08394df48442008baf6d3a7917a43c5ba71002203c333aa20300e21fb5137521c079f4c322bb821ba4ec626f9064ec190f8c9e7701",
        "020beb55e6759995f787d363695d4faaf6fcb9709ad4dbefa18d2707834d5e3f60"
      ],
      "is_coinbase": false,
      "sequence": 4294967293
    },
    {
      "txid": "6a180cf772e9c6a6c433b5428643d3c29e781e4580702df70042f14d6389cc2b",
      "vout": 245,
      "prevout": {
        "scriptpubkey": "0014ccc05662dfaeda0d7a29d6c0b0e9fa1120d77353",
        "scriptpubkey_asm": "OP_0 OP_PUSHBYTES_20 ccc05662dfaeda0d7a29d6c0b0e9fa1120d77353",
        "scriptpubkey_type": "v0_p2wpkh",
        "scriptpubkey_address": "bc1qenq9vckl4mdq673f6mqtp606zysdwu6n6dalq7",
        "value": 189972
      },
      "scriptsig": "",
      "scriptsig_asm": "",
      "witness": [
        "3045022100e3086bae0d4332dc1a1c81ce38af9353368c54289c88d5931131aa5202c971530220352aef601fa726a4e4ae4d7a77e3f42e24f9f473ec9322240b370119e6ae84f601",
        "020beb55e6759995f787d363695d4faaf6fcb9709ad4dbefa18d2707834d5e3f60"
      ],
      "is_coinbase": false,
      "sequence": 4294967293
    }
  ],
  "vout": [
    {
      "scriptpubkey": "0014d9c9039a658a6668104d2241c67795b7734d5302",
      "scriptpubkey_asm": "OP_0 OP_PUSHBYTES_20 d9c9039a658a6668104d2241c67795b7734d5302",
      "scriptpubkey_type": "v0_p2wpkh",
      "scriptpubkey_address": "bc1qm8ys8xn93fnxsyzdyfquvau4kae565czdg7s90",
      "value": 1103767
    }
  ],
  "size": 933,
  "weight": 1794,
  "fee": 4919,
  "status": {
    "confirmed": true,
    "block_height": 834464,
    "block_hash": "0000000000000000000177a0869a911a2b65c9bdcd5a8bcb02b68f305bee848e",
    "block_time": 1710308296
  },
  "hex": "020000000001069e20b8eec5fd45ca5c6d83aaba1ea7b4d832097b781632c64c6615e6595a61cf5201000000fdffffff0c3a1eb65a31bf2c803dac2198abaf8646053ddb45e62f4ff9d519c28e8bda23ef00000000fdffffff52a7b3f372968443c1282b8a8b435e98743ae2f51bf5cc1f6ab2cb2b92639b1fa201000000fdffffffcbb7e7cc378d67ca7a6f99cc739388598b52ec0d06a0a2dd8c58dcdddc9e67871d01000000fdffffffa3d9f00152802a637889786990924cdedc443a81834a422d6ea5e9b196cf9ca62e01000000fdffffff2bcc89634df14200f72d7080451e789ec2d3438642b533c4a6c6e972f70c186af500000000fdffffff0197d7100000000000160014d9c9039a658a6668104d2241c67795b7734d5302024730440220348ed9fdd43a877dec68198b4c66bb4fefc2aca6c048a08a14c55dd77af1ebfa022045b0379ed05bfd560ab5e9be9b339efccf2aecbaa91629868538d4089c3fe7110121020beb55e6759995f787d363695d4faaf6fcb9709ad4dbefa18d2707834d5e3f6002483045022100f60de11e9f6ed377c9e02b609bbcb1f30b0032cd83093767fb3a3a32491ad24702204d7003829e2c2599de1c6e40e2b6ffee8890e2791f48d918137a3c08525321d40121020beb55e6759995f787d363695d4faaf6fcb9709ad4dbefa18d2707834d5e3f6002473044022051759e73db586cd69514f489e691751132e70be93ca1b4d1c645b7c4c6d301aa022029ba6abe0056191cc8843797ea5673b9d3b1e6b2f5bb717aee50f7e2cb3c6f370121020beb55e6759995f787d363695d4faaf6fcb9709ad4dbefa18d2707834d5e3f60024730440220089b094e97218292202f678dc9195b83a2975679c3ea683ed1679e4cfa5e73f102201d7ef6f1d090bd1c172f201a4625e3fdb398c58b101d57b7c75dda8a93e818fc0121020beb55e6759995f787d363695d4faaf6fcb9709ad4dbefa18d2707834d5e3f6002473044022065c5526c1fc3011c21c7a2c2fa5a08394df48442008baf6d3a7917a43c5ba71002203c333aa20300e21fb5137521c079f4c322bb821ba4ec626f9064ec190f8c9e770121020beb55e6759995f787d363695d4faaf6fcb9709ad4dbefa18d2707834d5e3f6002483045022100e3086bae0d4332dc1a1c81ce38af9353368c54289c88d5931131aa5202c971530220352aef601fa726a4e4ae4d7a77e3f42e24f9f473ec9322240b370119e6ae84f60121020beb55e6759995f787d363695d4faaf6fcb9709ad4dbefa18d2707834d5e3f60c0b50c00"
}