{
  "txid": "a21d6161f3a480950627a73a4a616821f1b5242bf254a80e248c819f8710e967",
  "version": 2,
  "locktime": 0,
  "vin": [
    {
      "txid": "114253be6c914f71db040b99ae74de0b82198898ecd3981a246ddfaeaa185cc8",
      "vout": 0,
      "prevout": {
        "scriptpubkey": "5120f01e90e4680c0ad2f395681db55432877b544dd4f7634c9e17c0c28aed777688",
        "scriptpubkey_asm": "OP_PUSHNUM_1 OP_PUSHBYTES_32 f01e90e4680c0ad2f395681db55432877b544dd4f7634c9e17c0c28aed777688",
        "scriptpubkey_type": "v1_p2tr",
        "scriptpubkey_address": "bc1p7q0fpergps9d9uu4dqwm24pjsaa4gnw57a35e8shcrpg4mthw6yq40apnp",
        "value": 5000
      },
      "scriptsig": "",
      "scriptsig_asm": "",
      "witness": [
        "3ce3005b0671fffd6456b5f839d8aaf8cdc480cd08ade9d996f880ae43b3053ce6516c7a198a633f983fb629edeb9177e9d3bb23aa288e56be866cf82bf6fa37",
        "20fafc181af8420985f633c13391a23ce67c4bc41c9a18f7f23cafcc0b332ad19aac0063036f7264010118746578742f706c61696e3b636861727365743d7574662d38004c4e7b0a2270223a22746170222c0a226f70223a22646d742d6d696e74222c0a22646570223a22544241222c0a227469636b223a226e61746f776c222c0a22626c6b223a223c3730363532393e220a7d68",
        "c1033eb8f180b6f0aa9167a45a36d89cc9641efe668d72989dec3e4787f28197c5"
      ],
      "is_coinbase": false,
      "sequence": 4294967293
    }
  ],
  "vout": [
    {
      "scriptpubkey": "5120aac5326a304a5fe4d65f47ee5f829b39fd194d9878ab9632be3c806abb451792",
      "scriptpubkey_asm": "OP_PUSHNUM_1 OP_PUSHBYTES_32 aac5326a304a5fe4d65f47ee5f829b39fd194d9878ab9632be3c806abb451792",
      "scriptpubkey_type": "v1_p2tr",
      "scriptpubkey_address": "bc1p4tzny63sff07f4jlglh9lq5m8873jnvc0z4evv478jqx4w69z7fqdk66eh",
      "value": 546
    },
    {
      "scriptpubkey": "0014eba22470c74c331bd21f41d33ef9a2d2da4aa0e8",
      "scriptpubkey_asm": "OP_0 OP_PUSHBYTES_20 eba22470c74c331bd21f41d33ef9a2d2da4aa0e8",
      "scriptpubkey_type": "v0_p2wpkh",
      "scriptpubkey_address": "bc1qaw3zgux8fse3h5slg8fna7dz6tdy4g8g2dpclg",
      "value": 2010
    }
  ],
  "size": 377,
  "weight": 752,
  "fee": 2444,
  "status": {
    "confirmed": true,
    "block_height": 834460,
    "block_hash": "00000000000000000000484a79b643b2524bbce82e5d8a442013fa5b8905ed98",
    "block_time": 1710307468
  },
  "hex": "02000000000101c85c18aaaedf6d241a98d3ec988819820bde74ae990b04db714f916cbe5342110000000000fdffffff022202000000000000225120aac5326a304a5fe4d65f47ee5f829b39fd194d9878ab9632be3c806abb451792da07000000000000160014eba22470c74c331bd21f41d33ef9a2d2da4aa0e803403ce3005b0671fffd6456b5f839d8aaf8cdc480cd08ade9d996f880ae43b3053ce6516c7a198a633f983fb629edeb9177e9d3bb23aa288e56be866cf82bf6fa379520fafc181af8420985f633c13391a23ce67c4bc41c9a18f7f23cafcc0b332ad19aac0063036f7264010118746578742f706c61696e3b636861727365743d7574662d38004c4e7b0a2270223a22746170222c0a226f70223a22646d742d6d696e74222c0a22646570223a22544241222c0a227469636b223a226e61746f776c222c0a22626c6b223a223c3730363532393e220a7d6821c1033eb8f180b6f0aa9167a45a36d89cc9641efe668d72989dec3e4787f28197c500000000"
}