{
  "txid": "a2223061eb10d65d7a76621f0427ff6c08b238a25b86b5ad93431d2022906615",
  "version": 2,
  "locktime": 0,
  "vin": [
    {
      "txid": "13a82a31476ab851296b0f836e541608b41f9de1251393b9d38bbd198b52f819",
      "vout": 0,
      "prevout": {
        "scriptpubkey": "5120a39b757270907ed9b36d42ddd4282ad9881e8cf8226e75e49c577bc558f36535",
        "scriptpubkey_asm": "OP_PUSHNUM_1 OP_PUSHBYTES_32 a39b757270907ed9b36d42ddd4282ad9881e8cf8226e75e49c577bc558f36535",
        "scriptpubkey_type": "v1_p2tr",
        "scriptpubkey_address": "bc1p5wdh2unsjpldnvmdgtwag2p2mxypar8cyfh8teyu2aau2k8nv56s0f025k",
        "value": 2978
      },
      "scriptsig": "",
      "scriptsig_asm": "",
      "witness": [
        "6264b7a4b18eefcd4a882691c10255a5ccfcdf379291f6252ddb680c380964685181294dae32542ab5497368224e31995b2de03bbc0f346ac90d3c7d5eafcc01",
        "2077768bcc221b1ff940ab76217d79ffe2540b90f27092db53862edb280e9e8e72ac0063036f7264010118746578742f706c61696e3b636861727365743d7574662d3800397b2270223a226272632d3230222c226f70223a227472616e73666572222c227469636b223a2253434154222c22616d74223a2233303030227d68",
        "c077768bcc221b1ff940ab76217d79ffe2540b90f27092db53862edb280e9e8e72"
      ],
      "is_coinbase": false,
      "sequence": 4294967293
    }
  ],
  "vout": [
    {
      "scriptpubkey": "512044676717c3d1ade859d2ca1ef30a4f8db891096a9789d4fac4547fb7acc374fa",
      "scriptpubkey_asm": "OP_PUSHNUM_1 OP_PUSHBYTES_32 44676717c3d1ade859d2ca1ef30a4f8db891096a9789d4fac4547fb7acc374fa",
      "scriptpubkey_type": "v1_p2tr",
      "scriptpubkey_address": "bc1pg3nkw97r6xk7skwjeg00xzj03kufzzt2j7yaf7ky23lm0txrwnaqk2dtur",
      "value": 546
    }
  ],
  "size": 324,
  "weight": 606,
  "fee": 2432,
  "status": {
    "confirmed": true,
    "block_height": 834638,
    "block_hash": "000000000000000000025f742c626208ac87e0b7d15054abb4a19ca2d735a54e",
    "block_time": 1710405325
  },
  "hex": "0200000000010119f8528b19bd8bd3b9931325e19d1fb40816546e830f6b2951b86a47312aa8130000000000fdffffff01220200000000000022512044676717c3d1ade859d2ca1ef30a4f8db891096a9789d4fac4547fb7acc374fa03406264b7a4b18eefcd4a882691c10255a5ccfcdf379291f6252ddb680c380964685181294dae32542ab5497368224e31995b2de03bbc0f346ac90d3c7d5eafcc017f2077768bcc221b1ff940ab76217d79ffe2540b90f27092db53862edb280e9e8e72ac0063036f7264010118746578742f706c61696e3b636861727365743d7574662d3800397b2270223a226272632d3230222c226f70223a227472616e73666572222c227469636b223a2253434154222c22616d74223a2233303030227d6821c077768bcc221b1ff940ab76217d79ffe2540b90f27092db53862edb280e9e8e7200000000"
}