{
  "txid": "a225841fcd38a7345848a227c9050e7d730a13bc4e5b7ca3f89ede4628bd1aea",
  "version": 2,
  "locktime": 834458,
  "vin": [
    {
      "txid": "f4e7ed49bed02532445b409f699fb3a91eb1ccc18970689ab84f732cba4e5cdc",
      "vout": 0,
      "prevout": {
        "scriptpubkey": "0014fa28b4ac7eb918ca491247218a8c2b8fa6e36e2d",
        "scriptpubkey_asm": "OP_0 OP_PUSHBYTES_20 fa28b4ac7eb918ca491247218a8c2b8fa6e36e2d",
        "scriptpubkey_type": "v0_p2wpkh",
        "scriptpubkey_address": "bc1qlg5tftr7hyvv5jgjgusc4rpt37nwxm3dguqr00",
        "value": 650
      },
      "scriptsig": "",
      "scriptsig_asm": "",
      "witness": [
        "30440220597717a32747fac86e37e6b55bc872586b424834e690ede1adcfddfe62fe655b0220059eb85b7789c7fe9a914e4c7dfeb565e361ac0405c7cb0a4f28626d647d4cf501",
        "037329ec91214229b0e241813cba7c1720b05b4a54746911a847efa76fd294be4f"
      ],
      "is_coinbase": false,
      "sequence": 4294967293
    },
    {
      "txid": "7cff2438bc70dc2dc1266580fd98a048a0ec2c6ccffa4544f43c02e1362ae4da",
      "vout": 2,
      "prevout": {
        "scriptpubkey": "0014036258927a8ee599dab01a9f1386414a6d62ff59",
        "scriptpubkey_asm": "OP_0 OP_PUSHBYTES_20 036258927a8ee599dab01a9f1386414a6d62ff59",
        "scriptpubkey_type": "v0_p2wpkh",
        "scriptpubkey_address": "bc1qqd393yn63mjenk4sr2038pjpffkk9l6e38jlmc",
        "value": 660389
      },
      "scriptsig": "",
      "scriptsig_asm": "",
      "witness": [
        "3044022029e54fe1ea215219e520a6d37ac05923960db68a6f79a97f2191730b214cb91f0220380ab362c7b76585218123b8c9abc93b33dad1ecb6bee2a22b15bb487669b5a101",
        "03da4f48d5533a002edf16deb982ccceea29c2e169104c56022d2e9a287fbceb4d"
      ],
      "is_coinbase": false,
      "sequence": 4294967293
    }
  ],
  "vout": [
    {
      "scriptpubkey": "0014fa28b4ac7eb918ca491247218a8c2b8fa6e36e2d",
      "scriptpubkey_asm": "OP_0 OP_PUSHBYTES_20 fa28b4ac7eb918ca491247218a8c2b8fa6e36e2d",
      "scriptpubkey_type": "v0_p2wpkh",
      "scriptpubkey_address": "bc1qlg5tftr7hyvv5jgjgusc4rpt37nwxm3dguqr00",
      "value": 649
    },
    {
      "scriptpubkey": "0014fa28b4ac7eb918ca491247218a8c2b8fa6e36e2d",
      "scriptpubkey_asm": "OP_0 OP_PUSHBYTES_20 fa28b4ac7eb918ca491247218a8c2b8fa6e36e2d",
      "scriptpubkey_type": "v0_p2wpkh",
      "scriptpubkey_address": "bc1qlg5tftr7hyvv5jgjgusc4rpt37nwxm3dguqr00",
      "value": 546
    },
    {
      "scriptpubkey": "0014fa28b4ac7eb918ca491247218a8c2b8fa6e36e2d",
      "scriptpubkey_asm": "OP_0 OP_PUSHBYTES_20 fa28b4ac7eb918ca491247218a8c2b8fa6e36e2d",
      "scriptpubkey_type": "v0_p2wpkh",
      "scriptpubkey_address": "bc1qlg5tftr7hyvv5jgjgusc4rpt37nwxm3dguqr00",
      "value": 656499
    }
  ],
  "size": 401,
  "weight": 956,
  "fee": 3345,
  "status": {
    "confirmed": true,
    "block_height": 834460,
    "block_hash": "00000000000000000000484a79b643b2524bbce82e5d8a442013fa5b8905ed98",
    "block_time": 1710307468
  },
  "hex": "02000000000102dc5c4eba2c734fb89a687089c1ccb11ea9b39f699f405b443225d0be49ede7f40000000000fdffffffdae42a36e1023cf44445facf6c2ceca048a098fd806526c12ddc70bc3824ff7c0200000000fdffffff038902000000000000160014fa28b4ac7eb918ca491247218a8c2b8fa6e36e2d2202000000000000160014fa28b4ac7eb918ca491247218a8c2b8fa6e36e2d73040a0000000000160014fa28b4ac7eb918ca491247218a8c2b8fa6e36e2d024730440220597717a32747fac86e37e6b55bc872586b424834e690ede1adcfddfe62fe655b0220059eb85b7789c7fe9a914e4c7dfeb565e361ac0405c7cb0a4f28626d647d4cf50121037329ec91214229b0e241813cba7c1720b05b4a54746911a847efa76fd294be4f02473044022029e54fe1ea215219e520a6d37ac05923960db68a6f79a97f2191730b214cb91f0220380ab362c7b76585218123b8c9abc93b33dad1ecb6bee2a22b15bb487669b5a1012103da4f48d5533a002edf16deb982ccceea29c2e169104c56022d2e9a287fbceb4d9abb0c00"
}