{
  "txid": "a2288459fb85ba2b6c78eafb25d788b1bcf5f0602efdbb61190ddcd5b59aa603",
  "version": 1,
  "locktime": 0,
  "vin": [
    {
      "txid": "75173290d0f4cc3b054aa9c920e9040355f78745f3f8d281bcbade1d8c5f969c",
      "vout": 1,
      "prevout": {
        "scriptpubkey": "76a91488a64b12e32a99d5395993c520d6aa27c7fd549288ac",
        "scriptpubkey_asm": "OP_DUP OP_HASH160 OP_PUSHBYTES_20 88a64b12e32a99d5395993c520d6aa27c7fd5492 OP_EQUALVERIFY OP_CHECKSIG",
        "scriptpubkey_type": "p2pkh",
        "scriptpubkey_address": "1DTY7M8GqMTjUTUmtJDwAnSkcGouG5VGGr",
        "value": 1439542
      },
      "scriptsig": "47304402202155173705bb58a3912061fb9393522e078225f13c41e31d336116ce520982a60220508bb3e8c2cdb9a0511a26a32d5a78537a8f3f40e8ef97f2889c92e3031e121301210355cded790f5cff1576b92d876a028294a1b179ac32efd0db8d7a18230a91a665",
      "scriptsig_asm": "OP_PUSHBYTES_71 304402202155173705bb58a3912061fb9393522e078225f13c41e31d336116ce520982a60220508bb3e8c2cdb9a0511a26a32d5a78537a8f3f40e8ef97f2889c92e3031e121301 OP_PUSHBYTES_33 0355cded790f5cff1576b92d876a028294a1b179ac32efd0db8d7a18230a91a665",
      "is_coinbase": false,
      "sequence": 4294967295
    }
  ],
  "vout": [
    {
      "scriptpubkey": "a9143a529942b03d88eeecd3846ee935d39ddf160c9387",
      "scriptpubkey_asm": "OP_HASH160 OP_PUSHBYTES_20 3a529942b03d88eeecd3846ee935d39ddf160c93 OP_EQUAL",
      "scriptpubkey_type": "p2sh",
      "scriptpubkey_address": "371Q4j5pntuJFtaumrh9NdW1MpHUgRpnYy",
      "value": 409040
    },
    {
      "scriptpubkey": "76a9148652051b759f8f065527a3c2a904770d6b49b0e688ac",
      "scriptpubkey_asm": "OP_DUP OP_HASH160 OP_PUSHBYTES_20 8652051b759f8f065527a3c2a904770d6b49b0e6 OP_EQUALVERIFY OP_CHECKSIG",
      "scriptpubkey_type": "p2pkh",
      "scriptpubkey_address": "1DFDoYyfWKZ9UrnrNUPj7EP9Baqb2eujhD",
      "value": 1021990
    }
  ],
  "size": 223,
  "weight": 892,
  "fee": 8512,
  "status": {
    "confirmed": true,
    "block_height": 834638,
    "block_hash": "000000000000000000025f742c626208ac87e0b7d15054abb4a19ca2d735a54e",
    "block_time": 1710405325
  },
  "hex": "01000000019c965f8c1ddebabc81d2f8f34587f7550304e920c9a94a053bccf4d090321775010000006a47304402202155173705bb58a3912061fb9393522e078225f13c41e31d336116ce520982a60220508bb3e8c2cdb9a0511a26a32d5a78537a8f3f40e8ef97f2889c92e3031e121301210355cded790f5cff1576b92d876a028294a1b179ac32efd0db8d7a18230a91a665ffffffff02d03d06000000000017a9143a529942b03d88eeecd3846ee935d39ddf160c938726980f00000000001976a9148652051b759f8f065527a3c2a904770d6b49b0e688ac00000000"
}