{
  "txid": "a22cc7f6ae35ae45c24c495aa46ef64d0c2b66a914ce7c21de38569266f3c7e9",
  "version": 1,
  "locktime": 0,
  "vin": [
    {
      "txid": "65107aec0a88d9a8152839ad5bf0094ba0ccb2d05552c11234ccc84d07030620",
      "vout": 14,
      "prevout": {
        "scriptpubkey": "76a91417b7721039794a99a79bbf541995a0b14612d1d288ac",
        "scriptpubkey_asm": "OP_DUP OP_HASH160 OP_PUSHBYTES_20 17b7721039794a99a79bbf541995a0b14612d1d2 OP_EQUALVERIFY OP_CHECKSIG",
        "scriptpubkey_type": "p2pkh",
        "scriptpubkey_address": "13AQJS7qLbc4bdx9rZAtCkfQCmTPQyaPq5",
        "value": 474200
      },
      "scriptsig": "483045022100ac8ccf6b00caed3f196e62d9a5cfe6a7a6cb80b78a674659a73475d05fe10e8602204aca6ed5ebb435c1a537ec85c9dc58bd2855a41343751c3576c9165b348f8f0c0121028511ef0d4dad09e374c8a966a17a41e594061abc40c7b9f3f13214c03d606904",
      "scriptsig_asm": "OP_PUSHBYTES_72 3045022100ac8ccf6b00caed3f196e62d9a5cfe6a7a6cb80b78a674659a73475d05fe10e8602204aca6ed5ebb435c1a537ec85c9dc58bd2855a41343751c3576c9165b348f8f0c01 OP_PUSHBYTES_33 028511ef0d4dad09e374c8a966a17a41e594061abc40c7b9f3f13214c03d606904",
      "is_coinbase": false,
      "sequence": 4294967293
    }
  ],
  "vout": [
    {
      "scriptpubkey": "a914eb53c92f9ef22ade71ab1b7e2914796145101be287",
      "scriptpubkey_asm": "OP_HASH160 OP_PUSHBYTES_20 eb53c92f9ef22ade71ab1b7e2914796145101be2 OP_EQUAL",
      "scriptpubkey_type": "p2sh",
      "scriptpubkey_address": "3P9K6Am7sLKapujDFywmejTdaqnoV4Pkwj",
      "value": 468440
    }
  ],
  "size": 190,
  "weight": 760,
  "fee": 5760,
  "status": {
    "confirmed": true,
    "block_height": 834460,
    "block_hash": "00000000000000000000484a79b643b2524bbce82e5d8a442013fa5b8905ed98",
    "block_time": 1710307468
  },
  "hex": "0100000001200603074dc8cc3412c15255d0b2cca04b09f05bad392815a8d9880aec7a10650e0000006b483045022100ac8ccf6b00caed3f196e62d9a5cfe6a7a6cb80b78a674659a73475d05fe10e8602204aca6ed5ebb435c1a537ec85c9dc58bd2855a41343751c3576c9165b348f8f0c0121028511ef0d4dad09e374c8a966a17a41e594061abc40c7b9f3f13214c03d606904fdffffff01d82507000000000017a914eb53c92f9ef22ade71ab1b7e2914796145101be28700000000"
}