{
  "txid": "a249cb965c75d2ef7bea59f563efbbea2e04236fb153f35c35d00185ecf3ed90",
  "version": 2,
  "locktime": 0,
  "vin": [
    {
      "txid": "3919e04add80f1bbce40cb08ebf0b2c1750602886a4d2c5f1da94e1363cf85d9",
      "vout": 1,
      "prevout": {
        "scriptpubkey": "51206fe5b588d1cb6609f07ac28dffa9c368cc2c4c7e506275e2568358fb0fe86aaf",
        "scriptpubkey_asm": "OP_PUSHNUM_1 OP_PUSHBYTES_32 6fe5b588d1cb6609f07ac28dffa9c368cc2c4c7e506275e2568358fb0fe86aaf",
        "scriptpubkey_type": "v1_p2tr",
        "scriptpubkey_address": "bc1pdljmtzx3ednqnur6c2xll2wrdrxzcnr72p38tcjksdv0krlgd2hsz2yvzl",
        "value": 483998
      },
      "scriptsig": "",
      "scriptsig_asm": "",
      "witness": [
        "f09a96c28ee829a4a698886ba1c6108a4be0b9e2447b05d31c2eed2372ad1706b61dcbc1ebc76d8b3d3de27e857f1d4643ce4f7394fce7485bdf4f1a7b7fabb4"
      ],
      "is_coinbase": false,
      "sequence": 4294967295
    }
  ],
  "vout": [
    {
      "scriptpubkey": "51206591a8c23e72e2f5ded58bd5c5d50a40afbe0f4a85aff67f43e3629c11a446aa",
      "scriptpubkey_asm": "OP_PUSHNUM_1 OP_PUSHBYTES_32 6591a8c23e72e2f5ded58bd5c5d50a40afbe0f4a85aff67f43e3629c11a446aa",
      "scriptpubkey_type": "v1_p2tr",
      "scriptpubkey_address": "bc1pvkg63s37wt30thk4302ut4g2gzhmur62skhlvl6rud3fcydyg64qwl385l",
      "value": 392000
    },
    {
      "scriptpubkey": "51206fe5b588d1cb6609f07ac28dffa9c368cc2c4c7e506275e2568358fb0fe86aaf",
      "scriptpubkey_asm": "OP_PUSHNUM_1 OP_PUSHBYTES_32 6fe5b588d1cb6609f07ac28dffa9c368cc2c4c7e506275e2568358fb0fe86aaf",
      "scriptpubkey_type": "v1_p2tr",
      "scriptpubkey_address": "bc1pdljmtzx3ednqnur6c2xll2wrdrxzcnr72p38tcjksdv0krlgd2hsz2yvzl",
      "value": 90150
    }
  ],
  "size": 205,
  "weight": 616,
  "fee": 1848,
  "status": {
    "confirmed": true,
    "block_height": 834460,
    "block_hash": "00000000000000000000484a79b643b2524bbce82e5d8a442013fa5b8905ed98",
    "block_time": 1710307468
  },
  "hex": "02000000000101d985cf63134ea91d5f2c4d6a88020675c1b2f0eb08cb40cebbf180dd4ae019390100000000ffffffff0240fb0500000000002251206591a8c23e72e2f5ded58bd5c5d50a40afbe0f4a85aff67f43e3629c11a446aa26600100000000002251206fe5b588d1cb6609f07ac28dffa9c368cc2c4c7e506275e2568358fb0fe86aaf0140f09a96c28ee829a4a698886ba1c6108a4be0b9e2447b05d31c2eed2372ad1706b61dcbc1ebc76d8b3d3de27e857f1d4643ce4f7394fce7485bdf4f1a7b7fabb400000000"
}