{
  "txid": "a24deb27115094d610054aa97a3913742363fca01df49f71bdb5239ce8b914ab",
  "version": 1,
  "locktime": 0,
  "vin": [
    {
      "txid": "6e06043623090baf5025af4969ac2e167384060525fb23416c4bf1598c1ebe6e",
      "vout": 0,
      "prevout": {
        "scriptpubkey": "76a914fdfdd3a434eaf0769ce91c29ae07d9c5614d25df88ac",
        "scriptpubkey_asm": "OP_DUP OP_HASH160 OP_PUSHBYTES_20 fdfdd3a434eaf0769ce91c29ae07d9c5614d25df OP_EQUALVERIFY OP_CHECKSIG",
        "scriptpubkey_type": "p2pkh",
        "scriptpubkey_address": "1Q9z2iwTvk145g6tr1Xj3pcXQFufCFPxeP",
        "value": 2368226
      },
      "scriptsig": "47304402200d71f6199dbdf5435b49679da526ea409389f3572f449c3ac8f126460f8fc61402206f293010c43dd9b2e190aeffb4881a39823ac787969e8d09612b24184e8b8127012103551ae01ed7869b4a35a66480a1ab4fa48d508c43b21e4700307c07d4041a68f2",
      "scriptsig_asm": "OP_PUSHBYTES_71 304402200d71f6199dbdf5435b49679da526ea409389f3572f449c3ac8f126460f8fc61402206f293010c43dd9b2e190aeffb4881a39823ac787969e8d09612b24184e8b812701 OP_PUSHBYTES_33 03551ae01ed7869b4a35a66480a1ab4fa48d508c43b21e4700307c07d4041a68f2",
      "is_coinbase": false,
      "sequence": 4294967295
    }
  ],
  "vout": [
    {
      "scriptpubkey": "a9142e7aa8e02ff9d642e07aa6175f039687012f029787",
      "scriptpubkey_asm": "OP_HASH160 OP_PUSHBYTES_20 2e7aa8e02ff9d642e07aa6175f039687012f0297 OP_EQUAL",
      "scriptpubkey_type": "p2sh",
      "scriptpubkey_address": "35vmwuoqksi4GSyQVhRUb4HrLLTYJsQXtw",
      "value": 2364300
    }
  ],
  "size": 189,
  "weight": 756,
  "fee": 3926,
  "status": {
    "confirmed": true,
    "block_height": 834638,
    "block_hash": "000000000000000000025f742c626208ac87e0b7d15054abb4a19ca2d735a54e",
    "block_time": 1710405325
  },
  "hex": "01000000016ebe1e8c59f14b6c4123fb2505068473162eac6949af2550af0b09233604066e000000006a47304402200d71f6199dbdf5435b49679da526ea409389f3572f449c3ac8f126460f8fc61402206f293010c43dd9b2e190aeffb4881a39823ac787969e8d09612b24184e8b8127012103551ae01ed7869b4a35a66480a1ab4fa48d508c43b21e4700307c07d4041a68f2ffffffff018c1324000000000017a9142e7aa8e02ff9d642e07aa6175f039687012f02978700000000"
}