{
  "txid": "a254fa3cf6f2a002fcd7c8d7b7d42b073aceca69e969a5b0467d4d294d8c6ab5",
  "version": 2,
  "locktime": 834637,
  "vin": [
    {
      "txid": "db021d21c024a6efad52daa3ef6f0c1100d8d058c1bcd33b3b8effd2eb7daa7a",
      "vout": 1,
      "prevout": {
        "scriptpubkey": "76a91409958985d44488ac88e6ec164a30e4895f81f66b88ac",
        "scriptpubkey_asm": "OP_DUP OP_HASH160 OP_PUSHBYTES_20 09958985d44488ac88e6ec164a30e4895f81f66b OP_EQUALVERIFY OP_CHECKSIG",
        "scriptpubkey_type": "p2pkh",
        "scriptpubkey_address": "1sgDkge3kYvpn9cNjVGR3YXrkFMUTgD9A",
        "value": 50658722
      },
      "scriptsig": "47304402205506e0dab1f2144ecd1aabbdea5ab7a5a7b40c9576267e3d8738ac92a059341c02201fe7ba318220dbce59b91a6d6925495257a8f7ef4d0bae8db47a200c7a900e17012103ac141b097a9180e6b4ef10489182da2b26cd3726e3fe2ddd12096eb15b736cae",
      "scriptsig_asm": "OP_PUSHBYTES_71 304402205506e0dab1f2144ecd1aabbdea5ab7a5a7b40c9576267e3d8738ac92a059341c02201fe7ba318220dbce59b91a6d6925495257a8f7ef4d0bae8db47a200c7a900e1701 OP_PUSHBYTES_33 03ac141b097a9180e6b4ef10489182da2b26cd3726e3fe2ddd12096eb15b736cae",
      "is_coinbase": false,
      "sequence": 4294967293
    }
  ],
  "vout": [
    {
      "scriptpubkey": "00146d675dc44d87513a1fb5042e8883c565ab95f475",
      "scriptpubkey_asm": "OP_0 OP_PUSHBYTES_20 6d675dc44d87513a1fb5042e8883c565ab95f475",
      "scriptpubkey_type": "v0_p2wpkh",
      "scriptpubkey_address": "bc1qd4n4m3zdsagn58a4qshg3q79vk4etar4kqam4p",
      "value": 599501
    },
    {
      "scriptpubkey": "76a9146c9feed4eb5861d06e48266699c371739119836688ac",
      "scriptpubkey_asm": "OP_DUP OP_HASH160 OP_PUSHBYTES_20 6c9feed4eb5861d06e48266699c3717391198366 OP_EQUALVERIFY OP_CHECKSIG",
      "scriptpubkey_type": "p2pkh",
      "scriptpubkey_address": "1AuMa451xKT7QJdm6Kn2PAEELcDZbXkeVJ",
      "value": 50053267
    }
  ],
  "size": 222,
  "weight": 888,
  "fee": 5954,
  "status": {
    "confirmed": true,
    "block_height": 834638,
    "block_hash": "000000000000000000025f742c626208ac87e0b7d15054abb4a19ca2d735a54e",
    "block_time": 1710405325
  },
  "hex": "02000000017aaa7debd2ff8e3b3bd3bcc158d0d800110c6fefa3da52adefa624c0211d02db010000006a47304402205506e0dab1f2144ecd1aabbdea5ab7a5a7b40c9576267e3d8738ac92a059341c02201fe7ba318220dbce59b91a6d6925495257a8f7ef4d0bae8db47a200c7a900e17012103ac141b097a9180e6b4ef10489182da2b26cd3726e3fe2ddd12096eb15b736caefdffffff02cd250900000000001600146d675dc44d87513a1fb5042e8883c565ab95f47593c0fb02000000001976a9146c9feed4eb5861d06e48266699c371739119836688ac4dbc0c00"
}