{
  "txid": "a264b30a431cce5b1a1669223b7ab0f3aebdc5285f251e4f48aba3726f5978b9",
  "version": 2,
  "locktime": 0,
  "vin": [
    {
      "txid": "9f8ada0ed7aa424645578bd3a2741bbc9d1f4fec87554f61650084d67eb6032f",
      "vout": 1,
      "prevout": {
        "scriptpubkey": "51200bf3fbddd00191181e2beebfe2bb8807437bba46d00a46315645160ddee4cb8a",
        "scriptpubkey_asm": "OP_PUSHNUM_1 OP_PUSHBYTES_32 0bf3fbddd00191181e2beebfe2bb8807437bba46d00a46315645160ddee4cb8a",
        "scriptpubkey_type": "v1_p2tr",
        "scriptpubkey_address": "bc1pp0elhhwsqxg3s83ta6l79wugqaphhwjx6q9yvv2kg5tqmhhyew9qs0c0sr",
        "value": 546
      },
      "scriptsig": "",
      "scriptsig_asm": "",
      "witness": [
        "cd012c709363859b97863ed4859ee32eb36d1b144e3a09c97bece8c2ffd7d1e6142c4512417a58120d0d2008749ffbabd8a9427f1bda5edc607c65e9880f7bde"
      ],
      "is_coinbase": false,
      "sequence": 4294967293
    },
    {
      "txid": "e7a5d53649935e515c6b7a260eac8daffe25316db0b9f5940d29eb7e12940d98",
      "vout": 1,
      "prevout": {
        "scriptpubkey": "a914670551c600e9f100955506d6fae91504bd96bb7087",
        "scriptpubkey_asm": "OP_HASH160 OP_PUSHBYTES_20 670551c600e9f100955506d6fae91504bd96bb70 OP_EQUAL",
        "scriptpubkey_type": "p2sh",
        "scriptpubkey_address": "3B5jtuJaFzry3UxZ3EHMm8Buz7XR5UiZQ9",
        "value": 29856
      },
      "scriptsig": "1600146852ebcc4bda602375dff2ec7eb4c79ffb1023ad",
      "scriptsig_asm": "OP_PUSHBYTES_22 00146852ebcc4bda602375dff2ec7eb4c79ffb1023ad",
      "witness": [
        "30440220562149a0ffc001fd8a625cf2e3bf5469cd57436dda2772f98f441707335b089302204e32f1cbd1af0d465b82b0af319305258891dbddcaf7a9366f4124d08ec176e501",
        "0268a507ddbda9e2ccf57f4a46d3829999aa868a153e2b6d96614fcbdc160a443b"
      ],
      "is_coinbase": false,
      "sequence": 4294967293,
      "inner_redeemscript_asm": "OP_0 OP_PUSHBYTES_20 6852ebcc4bda602375dff2ec7eb4c79ffb1023ad"
    }
  ],
  "vout": [
    {
      "scriptpubkey": "5120b44dddcd4b2cd9d0d4ec6ac5db0a07fdb2ba2ac3958735b039a68820879a5d4d",
      "scriptpubkey_asm": "OP_PUSHNUM_1 OP_PUSHBYTES_32 b44dddcd4b2cd9d0d4ec6ac5db0a07fdb2ba2ac3958735b039a68820879a5d4d",
      "scriptpubkey_type": "v1_p2tr",
      "scriptpubkey_address": "bc1pk3xamn2t9nvap48vdtzakzs8lket52krjkrntvpe56yzppu6t4xsj22ppl",
      "value": 546
    },
    {
      "scriptpubkey": "a914670551c600e9f100955506d6fae91504bd96bb7087",
      "scriptpubkey_asm": "OP_HASH160 OP_PUSHBYTES_20 670551c600e9f100955506d6fae91504bd96bb70 OP_EQUAL",
      "scriptpubkey_type": "p2sh",
      "scriptpubkey_address": "3B5jtuJaFzry3UxZ3EHMm8Buz7XR5UiZQ9",
      "value": 24783
    }
  ],
  "size": 365,
  "weight": 935,
  "fee": 5073,
  "status": {
    "confirmed": true,
    "block_height": 834638,
    "block_hash": "000000000000000000025f742c626208ac87e0b7d15054abb4a19ca2d735a54e",
    "block_time": 1710405325
  },
  "hex": "020000000001022f03b67ed6840065614f5587ec4f1f9dbc1b74a2d38b57454642aad70eda8a9f0100000000fdffffff980d94127eeb290d94f5b9b06d3125feaf8dac0e267a6b5c515e934936d5a5e701000000171600146852ebcc4bda602375dff2ec7eb4c79ffb1023adfdffffff022202000000000000225120b44dddcd4b2cd9d0d4ec6ac5db0a07fdb2ba2ac3958735b039a68820879a5d4dcf6000000000000017a914670551c600e9f100955506d6fae91504bd96bb70870140cd012c709363859b97863ed4859ee32eb36d1b144e3a09c97bece8c2ffd7d1e6142c4512417a58120d0d2008749ffbabd8a9427f1bda5edc607c65e9880f7bde024730440220562149a0ffc001fd8a625cf2e3bf5469cd57436dda2772f98f441707335b089302204e32f1cbd1af0d465b82b0af319305258891dbddcaf7a9366f4124d08ec176e501210268a507ddbda9e2ccf57f4a46d3829999aa868a153e2b6d96614fcbdc160a443b00000000"
}