{
  "txid": "a27cebdf5ea140d5a01e70713d8f483ec273482721f8ee7357a2b21aeb88b675",
  "version": 2,
  "locktime": 834598,
  "vin": [
    {
      "txid": "7bfdb3aa0787da35b2ec4cd4887da0c2ed737c8028bf763cb735faffec2ecab6",
      "vout": 1,
      "prevout": {
        "scriptpubkey": "00149040d18db0a2001f217e586a0d13efe742f2de3b",
        "scriptpubkey_asm": "OP_0 OP_PUSHBYTES_20 9040d18db0a2001f217e586a0d13efe742f2de3b",
        "scriptpubkey_type": "v0_p2wpkh",
        "scriptpubkey_address": "bc1qjpqdrrds5gqp7gt7tp4q6yl0uap09h3mq5cfwl",
        "value": 248392816
      },
      "scriptsig": "",
      "scriptsig_asm": "",
      "witness": [
        "304402204f4d6a9176ad2f56afebe10df3acf2c17b9d6d91fd30d256279450669efbcc1c02206627d98cab56569bb493a2d6d3fa34473d58cc502eb4726c250b795b07f8466e01",
        "03820940e9f6658a6b006a6aff4c6ecb92973c748f2a296f9383c7e3a06a4a43de"
      ],
      "is_coinbase": false,
      "sequence": 4294967294
    }
  ],
  "vout": [
    {
      "scriptpubkey": "a914893d235534ee48ebc013265a593e4f6499cc424087",
      "scriptpubkey_asm": "OP_HASH160 OP_PUSHBYTES_20 893d235534ee48ebc013265a593e4f6499cc4240 OP_EQUAL",
      "scriptpubkey_type": "p2sh",
      "scriptpubkey_address": "3ECfjmXeDdjDj74kcnmGxPiyz52AdDsgKC",
      "value": 5783600
    },
    {
      "scriptpubkey": "0014dce6a965c09d7a6335885d282bcd9fa288b03cb7",
      "scriptpubkey_asm": "OP_0 OP_PUSHBYTES_20 dce6a965c09d7a6335885d282bcd9fa288b03cb7",
      "scriptpubkey_type": "v0_p2wpkh",
      "scriptpubkey_address": "bc1qmnn2jewqn4axxdvgt55zhnvl52ytq09h3qwr7d",
      "value": 242605736
    }
  ],
  "size": 223,
  "weight": 565,
  "fee": 3480,
  "status": {
    "confirmed": true,
    "block_height": 834638,
    "block_hash": "000000000000000000025f742c626208ac87e0b7d15054abb4a19ca2d735a54e",
    "block_time": 1710405325
  },
  "hex": "02000000000101b6ca2eecfffa35b73c76bf28807c73edc2a07d88d44cecb235da8707aab3fd7b0100000000feffffff02304058000000000017a914893d235534ee48ebc013265a593e4f6499cc424087a8de750e00000000160014dce6a965c09d7a6335885d282bcd9fa288b03cb70247304402204f4d6a9176ad2f56afebe10df3acf2c17b9d6d91fd30d256279450669efbcc1c02206627d98cab56569bb493a2d6d3fa34473d58cc502eb4726c250b795b07f8466e012103820940e9f6658a6b006a6aff4c6ecb92973c748f2a296f9383c7e3a06a4a43de26bc0c00"
}