{
  "txid": "a282d558a0012a5f69e89b9065e7bb9d112bd5ae0722f954cdf3ce6926b8b9fa",
  "version": 1,
  "locktime": 0,
  "vin": [
    {
      "txid": "25de1605a44f0793a9427c1b7f5c96c16825fe92e403295c049ab37bde12410b",
      "vout": 0,
      "prevout": {
        "scriptpubkey": "0014ff821c6f9cbcf9583e5a2cadb852a8632724b9a8",
        "scriptpubkey_asm": "OP_0 OP_PUSHBYTES_20 ff821c6f9cbcf9583e5a2cadb852a8632724b9a8",
        "scriptpubkey_type": "v0_p2wpkh",
        "scriptpubkey_address": "bc1ql7ppcmuuhnu4s0j69jkms54gvvnjfwdg59scn7",
        "value": 50284
      },
      "scriptsig": "",
      "scriptsig_asm": "",
      "witness": [
        "3045022100f4b3e7270c71817f4c4903adccef5d444fcc1457392b6dad78bc1449d9b1e74a02206d7cc6fbaf4902cd26e143c5f70a6e733290b1d1f43af33aea795ba33889032f01",
        "03425a84bced41b4f59831e50ce821529796e351a88b7b253e83eb911a38a3fc65"
      ],
      "is_coinbase": false,
      "sequence": 4294967293
    },
    {
      "txid": "9b12209b59434f35877ebe28ac199a8a176e181ccdd842bc30e41d5f995db7d4",
      "vout": 1,
      "prevout": {
        "scriptpubkey": "00145887e6da56f8091b2303b8d93d8c8421bbec6a21",
        "scriptpubkey_asm": "OP_0 OP_PUSHBYTES_20 5887e6da56f8091b2303b8d93d8c8421bbec6a21",
        "scriptpubkey_type": "v0_p2wpkh",
        "scriptpubkey_address": "bc1qtzr7dkjklqy3kgcrhrvnmryyyxa7c63prnyugl",
        "value": 50272
      },
      "scriptsig": "",
      "scriptsig_asm": "",
      "witness": [
        "3045022100e0626f9f21909c17fb9087b9630cf48f6e180afb9daa993122d4d41e799288c40220473ab212f46528a26bb0bfe4edff3cbbe71daa6279b5b52d4f293b08e916843001",
        "035fc07eacc1affce87cee4225bcc49d632cbdeed68be9ced3027a7e62c76e85de"
      ],
      "is_coinbase": false,
      "sequence": 4294967293
    },
    {
      "txid": "2f4fcce90c0acf8a1b5ed13c42cbd8e50381c5c2d82367059cf3ec350814b3f9",
      "vout": 30,
      "prevout": {
        "scriptpubkey": "0014d410399cf15f890404dbac1cecf3b61c75d9a9e0",
        "scriptpubkey_asm": "OP_0 OP_PUSHBYTES_20 d410399cf15f890404dbac1cecf3b61c75d9a9e0",
        "scriptpubkey_type": "v0_p2wpkh",
        "scriptpubkey_address": "bc1q6sgrn883t7ysgpxm4swweuakr36an20q27tgfq",
        "value": 50271
      },
      "scriptsig": "",
      "scriptsig_asm": "",
      "witness": [
        "3044022016665e969f25a963af5d3ec9ccfa7931a9ad516dd8435b949f5327de6f048249022016f0796ea5ddb3a38a9b0009ee91ff511095c94137b864fb96be96c20f1f426201",
        "02d90fc98b23219503963c7f1dccf1c7d0d488263acd5a331967fb09ac627e0dcc"
      ],
      "is_coinbase": false,
      "sequence": 4294967293
    },
    {
      "txid": "82d326cb7c5178580e4f82b1956ebedc4ae801f5a8ae22eb9cddd651888d2910",
      "vout": 22,
      "prevout": {
        "scriptpubkey": "00147e90518412ad7984f01114c0153cd7aee092def8",
        "scriptpubkey_asm": "OP_0 OP_PUSHBYTES_20 7e90518412ad7984f01114c0153cd7aee092def8",
        "scriptpubkey_type": "v0_p2wpkh",
        "scriptpubkey_address": "bc1q06g9rpqj44ucfuq3znqp20xh4msf9hhcvtw9xr",
        "value": 50271
      },
      "scriptsig": "",
      "scriptsig_asm": "",
      "witness": [
        "3044022012e4abd1bcaaf9f1ddfa1f6de0a284564648defa25053b9a337125943b061d9402207414b0157d219577413cee2425cd363a1f8ba18103d0556df801b4d924abf43301",
        "02a212f256033dbfee7f024b23fd1ad7182e651dc677971a5e5c5ffe57e702e191"
      ],
      "is_coinbase": false,
      "sequence": 4294967293
    },
    {
      "txid": "f15e77ac2f13162e1260df10e579e5e5eb0aaa165f6237b93c2b2956f4b51834",
      "vout": 100,
      "prevout": {
        "scriptpubkey": "0014357adb26b1f2de536b4fefda9ef0542ff20f1fdd",
        "scriptpubkey_asm": "OP_0 OP_PUSHBYTES_20 357adb26b1f2de536b4fefda9ef0542ff20f1fdd",
        "scriptpubkey_type": "v0_p2wpkh",
        "scriptpubkey_address": "bc1qx4adkf437t09x660aldfauz59leq787azwmkcx",
        "value": 50268
      },
      "scriptsig": "",
      "scriptsig_asm": "",
      "witness": [
        "304402206a2db91c2f6e6ddcb7c18c7fc38e6c894e35ef40234814a01db90906a3008d1902205b6ff64bb4d880bb7a84198731f15d7eb389a23515e23e450a558667515ab7e801",
        "027c00bd49fa35da30e1afa61c8c029b77b4d4ded92bff0e00dcdc4fbd5695ebca"
      ],
      "is_coinbase": false,
      "sequence": 4294967293
    },
    {
      "txid": "36c642398555e4a1562ae018f52bc6f410d1789f91891475ee3382b90025fa09",
      "vout": 20,
      "prevout": {
        "scriptpubkey": "0014a6c2092f4dedc377defcd0c60a703842bd66dc28",
        "scriptpubkey_asm": "OP_0 OP_PUSHBYTES_20 a6c2092f4dedc377defcd0c60a703842bd66dc28",
        "scriptpubkey_type": "v0_p2wpkh",
        "scriptpubkey_address": "bc1q5mpqjt6dahph0hhu6rrq5upcg27kdhpg2e8af5",
        "value": 50265
      },
      "scriptsig": "",
      "scriptsig_asm": "",
      "witness": [
        "3045022100a62f249ca8520392d8e78cf39a0c256cdc8dba12449fecceb7c349c4e7122bce0220262770beae5cdfd7a02dee450e440fdb650f486113869650d151465568bed3e801",
        "03df3d63d89ec8c13ba8cdaed56c712bf5bea65d510090cedd5374f9d8dd70f6df"
      ],
      "is_coinbase": false,
      "sequence": 4294967293
    }
  ],
  "vout": [
    {
      "scriptpubkey": "001415b9db1b61b0118a527ea2af1401bcfbc88715b7",
      "scriptpubkey_asm": "OP_0 OP_PUSHBYTES_20 15b9db1b61b0118a527ea2af1401bcfbc88715b7",
      "scriptpubkey_type": "v0_p2wpkh",
      "scriptpubkey_address": "bc1qzkuakxmpkqgc55n752h3gqdul0ygw9dh5m09na",
      "value": 289879
    }
  ],
  "size": 934,
  "weight": 1795,
  "fee": 11752,
  "status": {
    "confirmed": true,
    "block_height": 834460,
    "block_hash": "00000000000000000000484a79b643b2524bbce82e5d8a442013fa5b8905ed98",
    "block_time": 1710307468
  },
  "hex": "010000000001060b4112de7bb39a045c2903e492fe2568c1965c7f1b7c42a993074fa40516de250000000000fdffffffd4b75d995f1de430bc42d8cd1c186e178a9a19ac28be7e87354f43599b20129b0100000000fdfffffff9b3140835ecf39c056723d8c2c58103e5d8cb423cd15e1b8acf0a0ce9cc4f2f1e00000000fdffffff10298d8851d6dd9ceb22aea8f501e84adcbe6e95b1824f0e5878517ccb26d3821600000000fdffffff3418b5f456292b3cb937625f16aa0aebe5e579e510df60122e16132fac775ef16400000000fdffffff09fa2500b98233ee751489919f78d110f4c62bf518e02a56a1e455853942c6361400000000fdffffff01576c04000000000016001415b9db1b61b0118a527ea2af1401bcfbc88715b702483045022100f4b3e7270c71817f4c4903adccef5d444fcc1457392b6dad78bc1449d9b1e74a02206d7cc6fbaf4902cd26e143c5f70a6e733290b1d1f43af33aea795ba33889032f012103425a84bced41b4f59831e50ce821529796e351a88b7b253e83eb911a38a3fc6502483045022100e0626f9f21909c17fb9087b9630cf48f6e180afb9daa993122d4d41e799288c40220473ab212f46528a26bb0bfe4edff3cbbe71daa6279b5b52d4f293b08e91684300121035fc07eacc1affce87cee4225bcc49d632cbdeed68be9ced3027a7e62c76e85de02473044022016665e969f25a963af5d3ec9ccfa7931a9ad516dd8435b949f5327de6f048249022016f0796ea5ddb3a38a9b0009ee91ff511095c94137b864fb96be96c20f1f4262012102d90fc98b23219503963c7f1dccf1c7d0d488263acd5a331967fb09ac627e0dcc02473044022012e4abd1bcaaf9f1ddfa1f6de0a284564648defa25053b9a337125943b061d9402207414b0157d219577413cee2425cd363a1f8ba18103d0556df801b4d924abf433012102a212f256033dbfee7f024b23fd1ad7182e651dc677971a5e5c5ffe57e702e1910247304402206a2db91c2f6e6ddcb7c18c7fc38e6c894e35ef40234814a01db90906a3008d1902205b6ff64bb4d880bb7a84198731f15d7eb389a23515e23e450a558667515ab7e80121027c00bd49fa35da30e1afa61c8c029b77b4d4ded92bff0e00dcdc4fbd5695ebca02483045022100a62f249ca8520392d8e78cf39a0c256cdc8dba12449fecceb7c349c4e7122bce0220262770beae5cdfd7a02dee450e440fdb650f486113869650d151465568bed3e8012103df3d63d89ec8c13ba8cdaed56c712bf5bea65d510090cedd5374f9d8dd70f6df00000000"
}