{
  "txid": "a28a2316ae84fcd8e2292bd53c76b1906d242acc791ab64be4c97d8335720679",
  "version": 2,
  "locktime": 0,
  "vin": [
    {
      "txid": "14e2167695fd53b97ae50c0a70e65ac4ef7ad1480621c0c13d9d798945a5d5dc",
      "vout": 22,
      "prevout": {
        "scriptpubkey": "5120e4d7b4fe992c4d2f143650c2cca4595bc665da6b5ab1797ffa4acf6363af7348",
        "scriptpubkey_asm": "OP_PUSHNUM_1 OP_PUSHBYTES_32 e4d7b4fe992c4d2f143650c2cca4595bc665da6b5ab1797ffa4acf6363af7348",
        "scriptpubkey_type": "v1_p2tr",
        "scriptpubkey_address": "bc1puntmfl5e93xj79pk2rpvefzet0rxtkntt2chjll6ft8kxca0wdyq5xvzac",
        "value": 2862
      },
      "scriptsig": "",
      "scriptsig_asm": "",
      "witness": [
        "5f127c2c0104419fb34c11c907b25e2796a331eaf9f5b4fc83dc376dcc0869051a19d5abbf3f8df29d60c91a6efe76d98671a3a949fa2141b43815cd95d47855",
        "20a02c78c9756632557544f39c00679a28b681ca6019c7be75ad75faa0822fa8f9ac0063036f726401011e6170706c69636174696f6e2f6a736f6e3b636861727365743d7574662d38004cd37b2270223a22706f772d3230222c226f70223a226d696e74222c227469636b223a2250455045222c22616d74223a2231303030222c22736f6c7574696f6e223a22504550453a62633170673935386e6b7a747678347271756e78676d747a6c35666e70666b633330776a323770777367396e6c706a786b796e64793671737376386c6b303a303030303030303030303030303030303030303139393431613561653132383937363539383134343239323533333030353762306461393666336465613163353a3236343035353036343233227d68",
        "c1631b34e489e80d4fba35164e5ad52a60d66865df7d7db84d2adbf53ec13ca2a1"
      ],
      "is_coinbase": false,
      "sequence": 4294967295
    }
  ],
  "vout": [
    {
      "scriptpubkey": "5120416879d84b61aa30726646d62fd1330a6d88bdd25782e820b3f8646b126d2681",
      "scriptpubkey_asm": "OP_PUSHNUM_1 OP_PUSHBYTES_32 416879d84b61aa30726646d62fd1330a6d88bdd25782e820b3f8646b126d2681",
      "scriptpubkey_type": "v1_p2tr",
      "scriptpubkey_address": "bc1pg958nkztvx4rqunxgmtzl5fnpfkc30wj27pwsg9nlpjxkyndy6qssv8lk0",
      "value": 546
    }
  ],
  "size": 487,
  "weight": 769,
  "fee": 2316,
  "status": {
    "confirmed": true,
    "block_height": 834460,
    "block_hash": "00000000000000000000484a79b643b2524bbce82e5d8a442013fa5b8905ed98",
    "block_time": 1710307468
  },
  "hex": "02000000000101dcd5a54589799d3dc1c0210648d17aefc45ae6700a0ce57ab953fd957616e2141600000000ffffffff012202000000000000225120416879d84b61aa30726646d62fd1330a6d88bdd25782e820b3f8646b126d268103405f127c2c0104419fb34c11c907b25e2796a331eaf9f5b4fc83dc376dcc0869051a19d5abbf3f8df29d60c91a6efe76d98671a3a949fa2141b43815cd95d47855fd200120a02c78c9756632557544f39c00679a28b681ca6019c7be75ad75faa0822fa8f9ac0063036f726401011e6170706c69636174696f6e2f6a736f6e3b636861727365743d7574662d38004cd37b2270223a22706f772d3230222c226f70223a226d696e74222c227469636b223a2250455045222c22616d74223a2231303030222c22736f6c7574696f6e223a22504550453a62633170673935386e6b7a747678347271756e78676d747a6c35666e70666b633330776a323770777367396e6c706a786b796e64793671737376386c6b303a303030303030303030303030303030303030303139393431613561653132383937363539383134343239323533333030353762306461393666336465613163353a3236343035353036343233227d6821c1631b34e489e80d4fba35164e5ad52a60d66865df7d7db84d2adbf53ec13ca2a100000000"
}