{
  "txid": "a28b24c9489963198ac44c708355b67ba60bf3dc85017f76f9b2374492f95b66",
  "version": 2,
  "locktime": 0,
  "vin": [
    {
      "txid": "d767c637d3e3da42e13fe617d49a9f7e0085510eef3ce4a0e78eee978f677d05",
      "vout": 4,
      "prevout": {
        "scriptpubkey": "0014b7c97e794134e223320361ddbd5ff4b7f8bc888e",
        "scriptpubkey_asm": "OP_0 OP_PUSHBYTES_20 b7c97e794134e223320361ddbd5ff4b7f8bc888e",
        "scriptpubkey_type": "v0_p2wpkh",
        "scriptpubkey_address": "bc1qklyhu72pxn3zxvsrv8wm6hl5klutezywcujmma",
        "value": 1411739
      },
      "scriptsig": "",
      "scriptsig_asm": "",
      "witness": [
        "3045022100884633bba8f3f9e2c2032fc14609c3a90c9eddcd83fc584cf87a3daf50d4762b022041894fd7d0544fd190d5fe2a38f67594d0af22ef9e819d94b4c82a95060a8bb401",
        "02b33ab0a64462696e39065c18c6fcfc15f3c08b4b8f16d16d181846652bcaa0d2"
      ],
      "is_coinbase": false,
      "sequence": 4294967295
    }
  ],
  "vout": [
    {
      "scriptpubkey": "0014b7c97e794134e223320361ddbd5ff4b7f8bc888e",
      "scriptpubkey_asm": "OP_0 OP_PUSHBYTES_20 b7c97e794134e223320361ddbd5ff4b7f8bc888e",
      "scriptpubkey_type": "v0_p2wpkh",
      "scriptpubkey_address": "bc1qklyhu72pxn3zxvsrv8wm6hl5klutezywcujmma",
      "value": 808
    },
    {
      "scriptpubkey": "512102c2d19a61fcd8d01b881fba380a662139f7d9b8fb5282d3da7b9c27b2b97810a9210223aca004e064334620e95e5b4dc0ac3d5c522ac4c74c3620aa86ce7fec0f3a722102020202020202020202020202020202020202020202020202020202020202020253ae",
      "scriptpubkey_asm": "OP_PUSHNUM_1 OP_PUSHBYTES_33 02c2d19a61fcd8d01b881fba380a662139f7d9b8fb5282d3da7b9c27b2b97810a9 OP_PUSHBYTES_33 0223aca004e064334620e95e5b4dc0ac3d5c522ac4c74c3620aa86ce7fec0f3a72 OP_PUSHBYTES_33 020202020202020202020202020202020202020202020202020202020202020202 OP_PUSHNUM_3 OP_CHECKMULTISIG",
      "scriptpubkey_type": "unknown",
      "value": 809
    },
    {
      "scriptpubkey": "512103bb3145845cfd01ff879000456350b94aecd7ec4b46cb46fd1a597631e06a2ab82103c2c8154ab108c3f7ad2295037c3a67021523bc857a32bb2fb7af0ba26be45b8c2102020202020202020202020202020202020202020202020202020202020202020253ae",
      "scriptpubkey_asm": "OP_PUSHNUM_1 OP_PUSHBYTES_33 03bb3145845cfd01ff879000456350b94aecd7ec4b46cb46fd1a597631e06a2ab8 OP_PUSHBYTES_33 03c2c8154ab108c3f7ad2295037c3a67021523bc857a32bb2fb7af0ba26be45b8c OP_PUSHBYTES_33 020202020202020202020202020202020202020202020202020202020202020202 OP_PUSHNUM_3 OP_CHECKMULTISIG",
      "scriptpubkey_type": "unknown",
      "value": 809
    },
    {
      "scriptpubkey": "001420123e4942db45c3c5971b141304c3ff6f5c06c7",
      "scriptpubkey_asm": "OP_0 OP_PUSHBYTES_20 20123e4942db45c3c5971b141304c3ff6f5c06c7",
      "scriptpubkey_type": "v0_p2wpkh",
      "scriptpubkey_address": "bc1qyqfruj2zmdzu83vhrv2pxpxrlah4cpk88c9zvd",
      "value": 12000
    },
    {
      "scriptpubkey": "0014b7c97e794134e223320361ddbd5ff4b7f8bc888e",
      "scriptpubkey_asm": "OP_0 OP_PUSHBYTES_20 b7c97e794134e223320361ddbd5ff4b7f8bc888e",
      "scriptpubkey_type": "v0_p2wpkh",
      "scriptpubkey_address": "bc1qklyhu72pxn3zxvsrv8wm6hl5klutezywcujmma",
      "value": 1382499
    }
  ],
  "size": 482,
  "weight": 1598,
  "fee": 14814,
  "status": {
    "confirmed": true,
    "block_height": 834638,
    "block_hash": "000000000000000000025f742c626208ac87e0b7d15054abb4a19ca2d735a54e",
    "block_time": 1710405325
  },
  "hex": "02000000000101057d678f97ee8ee7a0e43cef0e5185007e9f9ad417e63fe142dae3d337c667d70400000000ffffffff052803000000000000160014b7c97e794134e223320361ddbd5ff4b7f8bc888e290300000000000069512102c2d19a61fcd8d01b881fba380a662139f7d9b8fb5282d3da7b9c27b2b97810a9210223aca004e064334620e95e5b4dc0ac3d5c522ac4c74c3620aa86ce7fec0f3a722102020202020202020202020202020202020202020202020202020202020202020253ae290300000000000069512103bb3145845cfd01ff879000456350b94aecd7ec4b46cb46fd1a597631e06a2ab82103c2c8154ab108c3f7ad2295037c3a67021523bc857a32bb2fb7af0ba26be45b8c2102020202020202020202020202020202020202020202020202020202020202020253aee02e00000000000016001420123e4942db45c3c5971b141304c3ff6f5c06c76318150000000000160014b7c97e794134e223320361ddbd5ff4b7f8bc888e02483045022100884633bba8f3f9e2c2032fc14609c3a90c9eddcd83fc584cf87a3daf50d4762b022041894fd7d0544fd190d5fe2a38f67594d0af22ef9e819d94b4c82a95060a8bb4012102b33ab0a64462696e39065c18c6fcfc15f3c08b4b8f16d16d181846652bcaa0d200000000"
}