{
  "txid": "a291e82e9c1329a5278f2ac095d9fe85bf0c7dc163bfbee1c10bc1be2ef56458",
  "version": 1,
  "locktime": 0,
  "vin": [
    {
      "txid": "888888888ba299c0b23aaa1afdd936104e765d96de71d532555352c09c8e3f05",
      "vout": 0,
      "prevout": {
        "scriptpubkey": "5120e3f1d7f530aeaf36b3945a12bd3564edc1e621ec61ca74ec9fce689d418d87f5",
        "scriptpubkey_asm": "OP_PUSHNUM_1 OP_PUSHBYTES_32 e3f1d7f530aeaf36b3945a12bd3564edc1e621ec61ca74ec9fce689d418d87f5",
        "scriptpubkey_type": "v1_p2tr",
        "scriptpubkey_address": "bc1pu0ca0afs46hndvu5tgft6dtyahq7vg0vv898fmylee5f6svdsl6svpsjya",
        "value": 11787
      },
      "scriptsig": "",
      "scriptsig_asm": "",
      "witness": [
        "fe549bf3cab0b8ac19524b8e5ea573e031bec4cd90a2ce88775845c8bfd36a14f963802021c9bbf03e4cada97bfb592f841d8b94bf210dc03c4020bfaceb937f",
        "2006a39918e4852d0956b9541d55dac8bc6f78ae1febd29d17452e112fb358d849ac00630461746f6d03646d7444a16461726773a46474696d651b0000018e359a08b6656e6f6e63650068626974776f726b63693838383838383838386b6d696e745f7469636b657268696e66696e69747968",
        "c106a39918e4852d0956b9541d55dac8bc6f78ae1febd29d17452e112fb358d849"
      ],
      "is_coinbase": false,
      "sequence": 4294967295
    }
  ],
  "vout": [
    {
      "scriptpubkey": "51201bfe5108b9674e4667a4645f3e12c57969d88df2cd3a9c1a843ce4554f51908c",
      "scriptpubkey_asm": "OP_PUSHNUM_1 OP_PUSHBYTES_32 1bfe5108b9674e4667a4645f3e12c57969d88df2cd3a9c1a843ce4554f51908c",
      "scriptpubkey_type": "v1_p2tr",
      "scriptpubkey_address": "bc1pr0l9zz9eva8yveayv30nuyk9095a3r0je5afcx5y8nj92n63jzxqxv6z0p",
      "value": 9999
    }
  ],
  "size": 312,
  "weight": 594,
  "fee": 1788,
  "status": {
    "confirmed": true,
    "block_height": 834460,
    "block_hash": "00000000000000000000484a79b643b2524bbce82e5d8a442013fa5b8905ed98",
    "block_time": 1710307468
  },
  "hex": "01000000000101053f8e9cc052535532d571de965d764e1036d9fd1aaa3ab2c099a28b888888880000000000ffffffff010f270000000000002251201bfe5108b9674e4667a4645f3e12c57969d88df2cd3a9c1a843ce4554f51908c0340fe549bf3cab0b8ac19524b8e5ea573e031bec4cd90a2ce88775845c8bfd36a14f963802021c9bbf03e4cada97bfb592f841d8b94bf210dc03c4020bfaceb937f732006a39918e4852d0956b9541d55dac8bc6f78ae1febd29d17452e112fb358d849ac00630461746f6d03646d7444a16461726773a46474696d651b0000018e359a08b6656e6f6e63650068626974776f726b63693838383838383838386b6d696e745f7469636b657268696e66696e6974796821c106a39918e4852d0956b9541d55dac8bc6f78ae1febd29d17452e112fb358d84900000000"
}