{
  "txid": "a29b47d1942dd69b5d8dc2283190d9b4f14ed823e0e9051c476d01d107b14681",
  "version": 2,
  "locktime": 0,
  "vin": [
    {
      "txid": "acc3ba00869acb582a3f2904ce3a11dd3779350ce234063fc7d0959246213364",
      "vout": 230,
      "prevout": {
        "scriptpubkey": "51203e68b83039a02642e303413d6bc674e0d6f3c2595a222da18d784d05c787c667",
        "scriptpubkey_asm": "OP_PUSHNUM_1 OP_PUSHBYTES_32 3e68b83039a02642e303413d6bc674e0d6f3c2595a222da18d784d05c787c667",
        "scriptpubkey_type": "v1_p2tr",
        "scriptpubkey_address": "bc1p8e5tsvpe5qny9ccrgy7kh3n5urt08sjetg3zmgvd0pxst3u8censgquwmy",
        "value": 1806
      },
      "scriptsig": "",
      "scriptsig_asm": "",
      "witness": [
        "64c2eb9f878fd53112298087e39cf92d8fd27744b6ffaaf9e3b1f03aa24e472fc32a61a8d3676fc6accaed617072f2508333fad99bb84574f3fb629713e3f490",
        "20fdf17b36e9b05162747dccfb830ddde31089f28f0331ee77fd57a1c5c9b57db2ac0063036f726401010a746578742f706c61696e00357b2270223a226272632d3230222c226f70223a226d696e74222c227469636b223a22646f6765222c22616d74223a2234323030227d68",
        "c1fdf17b36e9b05162747dccfb830ddde31089f28f0331ee77fd57a1c5c9b57db2"
      ],
      "is_coinbase": false,
      "sequence": 4261412863
    }
  ],
  "vout": [
    {
      "scriptpubkey": "00147a665de7a370f4c9b372ab1fae587500a5bcbdb4",
      "scriptpubkey_asm": "OP_0 OP_PUSHBYTES_20 7a665de7a370f4c9b372ab1fae587500a5bcbdb4",
      "scriptpubkey_type": "v0_p2wpkh",
      "scriptpubkey_address": "bc1q0fn9mearwr6vnvmj4v06ukr4qzjme0d565dzcx",
      "value": 294
    }
  ],
  "size": 294,
  "weight": 540,
  "fee": 1512,
  "status": {
    "confirmed": true,
    "block_height": 834460,
    "block_hash": "00000000000000000000484a79b643b2524bbce82e5d8a442013fa5b8905ed98",
    "block_time": 1710307468
  },
  "hex": "02000000000101643321469295d0c73f0634e20c357937dd113ace04293f2a58cb9a8600bac3ace600000000fffffffd0126010000000000001600147a665de7a370f4c9b372ab1fae587500a5bcbdb4034064c2eb9f878fd53112298087e39cf92d8fd27744b6ffaaf9e3b1f03aa24e472fc32a61a8d3676fc6accaed617072f2508333fad99bb84574f3fb629713e3f4906d20fdf17b36e9b05162747dccfb830ddde31089f28f0331ee77fd57a1c5c9b57db2ac0063036f726401010a746578742f706c61696e00357b2270223a226272632d3230222c226f70223a226d696e74222c227469636b223a22646f6765222c22616d74223a2234323030227d6821c1fdf17b36e9b05162747dccfb830ddde31089f28f0331ee77fd57a1c5c9b57db200000000"
}