{
  "txid": "a2a11a24b04e17368320d4d4fc3124e193afa5e591fbc43057bba7c1e022e933",
  "version": 2,
  "locktime": 0,
  "vin": [
    {
      "txid": "9034f03a26de3f401c3ae597ab0a5cf0b005c85a24646fe22f83032854aeea6e",
      "vout": 1,
      "prevout": {
        "scriptpubkey": "00146650585255e6cbffcd834eeef47e1ba00659fea3",
        "scriptpubkey_asm": "OP_0 OP_PUSHBYTES_20 6650585255e6cbffcd834eeef47e1ba00659fea3",
        "scriptpubkey_type": "v0_p2wpkh",
        "scriptpubkey_address": "bc1qveg9s5j4um9llnvrfmh0glsm5qr9nl4rfn8zht",
        "value": 158032
      },
      "scriptsig": "",
      "scriptsig_asm": "",
      "witness": [
        "304502210086bbe3c373a5bdf8d25e1e3760dde9432b4ccf2d022e4fb954cae656fb630b750220650bd7f2a9523ecfe6d261a6aab64e024f4e26f736702a44d27121a6e245f57701",
        "02e201248555500ee76c0e19c4fbd6973802205892a53b8ed2c4f21c2564edf345"
      ],
      "is_coinbase": false,
      "sequence": 4294967295
    }
  ],
  "vout": [
    {
      "scriptpubkey": "76a9143b56600a1930376526c046219f6c48460352d90d88ac",
      "scriptpubkey_asm": "OP_DUP OP_HASH160 OP_PUSHBYTES_20 3b56600a1930376526c046219f6c48460352d90d OP_EQUALVERIFY OP_CHECKSIG",
      "scriptpubkey_type": "p2pkh",
      "scriptpubkey_address": "16QkLmbdECL3j8Lb3Hv3VTna9GP2FaoBNd",
      "value": 156366
    }
  ],
  "size": 195,
  "weight": 450,
  "fee": 1666,
  "status": {
    "confirmed": true,
    "block_height": 834638,
    "block_hash": "000000000000000000025f742c626208ac87e0b7d15054abb4a19ca2d735a54e",
    "block_time": 1710405325
  },
  "hex": "020000000001016eeaae542803832fe26f64245ac805b0f05c0aab97e53a1c403fde263af034900100000000ffffffff01ce620200000000001976a9143b56600a1930376526c046219f6c48460352d90d88ac0248304502210086bbe3c373a5bdf8d25e1e3760dde9432b4ccf2d022e4fb954cae656fb630b750220650bd7f2a9523ecfe6d261a6aab64e024f4e26f736702a44d27121a6e245f577012102e201248555500ee76c0e19c4fbd6973802205892a53b8ed2c4f21c2564edf34500000000"
}