{
  "txid": "a2ae3e8f3106237a29b4af337025a26339a48a6d41567a5e799c3dadbed8ee5d",
  "version": 2,
  "locktime": 834637,
  "vin": [
    {
      "txid": "d91085d553dab73113cd753d8d2a1c7030bb2f105ae0ef1d0115c351829a36e1",
      "vout": 0,
      "prevout": {
        "scriptpubkey": "00145805e40dde41726e104047dfc356737a95bb63b1",
        "scriptpubkey_asm": "OP_0 OP_PUSHBYTES_20 5805e40dde41726e104047dfc356737a95bb63b1",
        "scriptpubkey_type": "v0_p2wpkh",
        "scriptpubkey_address": "bc1qtqz7grw7g9exuyzqgl0ux4nn022mkca3hd25mg",
        "value": 1000048
      },
      "scriptsig": "",
      "scriptsig_asm": "",
      "witness": [
        "3044022007cc237e7702fb39c3271a6558d8b54d7d04434604b0c8f31f80934638915ae702201de635b76c7d10c1e92cf74250815dbc4b68d9fe64028456777c83600e28a48301",
        "034d3063fb3642fe5d36e0f11205b4ceb3a7afe849fa91bae4719ebf168ca70435"
      ],
      "is_coinbase": false,
      "sequence": 4294967294
    },
    {
      "txid": "8110f52b80b91a3c691859584e974536ec925dc3d40d0bc70577489b88372b0e",
      "vout": 132,
      "prevout": {
        "scriptpubkey": "001474ee6ec912afb2abc106d2dee313a7c509f63d97",
        "scriptpubkey_asm": "OP_0 OP_PUSHBYTES_20 74ee6ec912afb2abc106d2dee313a7c509f63d97",
        "scriptpubkey_type": "v0_p2wpkh",
        "scriptpubkey_address": "bc1qwnhxajgj47e2hsgx6t0wxya8c5ylv0vhahrx2q",
        "value": 1336380
      },
      "scriptsig": "",
      "scriptsig_asm": "",
      "witness": [
        "30440220337235d64df25a2faafaeeb641b845a37eefb472ae0e3c224984f8fe209013b6022034d0e1bc549dbb15d2371f060388f92aae791291aeb94345b69a66ebd90d421e01",
        "023982cd4216730be5fdcc31da37f35abd528b307a11d9e6a3e25fc85d67939dc1"
      ],
      "is_coinbase": false,
      "sequence": 4294967294
    },
    {
      "txid": "8f90a87f16a52489a27bec94110e8ad07ad55bb8721453ad58a975b51ada16c5",
      "vout": 0,
      "prevout": {
        "scriptpubkey": "001487666d2155868cac6905622a31f04d92536621d7",
        "scriptpubkey_asm": "OP_0 OP_PUSHBYTES_20 87666d2155868cac6905622a31f04d92536621d7",
        "scriptpubkey_type": "v0_p2wpkh",
        "scriptpubkey_address": "bc1qsanx6g24s6x2c6g9vg4rruzdjffkvgwhxwkfff",
        "value": 1000109
      },
      "scriptsig": "",
      "scriptsig_asm": "",
      "witness": [
        "3044022020640476731f6febae5fdb601b21e6be2d07b89eb90b95f7f2c0db21936ba82302202548785ad9d14610d64ea1684fff8e5e91df81238de56704a8e05674aa32e5bf01",
        "02433f73cabbf701af87cf1238d0f9ae283a296b2e17c9e07dbea4cb46b8e386a7"
      ],
      "is_coinbase": false,
      "sequence": 4294967294
    },
    {
      "txid": "e52029da07408edaf546faa68b63cd5fa353f308e57964cae46351d650ec580d",
      "vout": 6,
      "prevout": {
        "scriptpubkey": "001459217a20c947fbb1f8793b0ab64f7cbdd201e6a5",
        "scriptpubkey_asm": "OP_0 OP_PUSHBYTES_20 59217a20c947fbb1f8793b0ab64f7cbdd201e6a5",
        "scriptpubkey_type": "v0_p2wpkh",
        "scriptpubkey_address": "bc1qtysh5gxfglamr7re8v9tvnmuhhfqre499fag79",
        "value": 165000
      },
      "scriptsig": "",
      "scriptsig_asm": "",
      "witness": [
        "3044022067943624e8bd2a384990c256d9e4aab2e943fab9a35c1d7cbd53ae30c76830c902202920d9a86e275c27ba0911a2d872a611d4824c5b52dd85f29a1e77340d248cd301",
        "03ced69e2fc3d5e71a31e73e58a6dcb3934ce1ffb0fdf04cdc8bff880a6dff29c3"
      ],
      "is_coinbase": false,
      "sequence": 4294967294
    },
    {
      "txid": "b0d9b1a23c056ef8016787a753afc3a201ea8625d207fbfae79a0e4f2b1a0def",
      "vout": 0,
      "prevout": {
        "scriptpubkey": "0014b880c39fb15c0af31d48853b34d1beebfc058c6f",
        "scriptpubkey_asm": "OP_0 OP_PUSHBYTES_20 b880c39fb15c0af31d48853b34d1beebfc058c6f",
        "scriptpubkey_type": "v0_p2wpkh",
        "scriptpubkey_address": "bc1qhzqv88a3ts90x82gs5anf5d7a07qtrr05q7lcq",
        "value": 1000106
      },
      "scriptsig": "",
      "scriptsig_asm": "",
      "witness": [
        "304402205547f01960fdf84d1723392be5bd09c0fe3a0ce8655bc16ebeba40582ca7d4c902206161714444fe2d47612a4fd50b1593ec2dc57fae9d1806c555e8f4be8570b13f01",
        "024ebeb6473cc3eef3fe53223df8ca6dcbdf1fea9cf912b870259701522b6d1e90"
      ],
      "is_coinbase": false,
      "sequence": 4294967294
    },
    {
      "txid": "3d651eed48cccf35227b291d6622d5b55517374ab8e8da8a97bef9c9898deebe",
      "vout": 0,
      "prevout": {
        "scriptpubkey": "00146d384f0f6d5cd78d7a8d8e31c6ff098ec2e8215d",
        "scriptpubkey_asm": "OP_0 OP_PUSHBYTES_20 6d384f0f6d5cd78d7a8d8e31c6ff098ec2e8215d",
        "scriptpubkey_type": "v0_p2wpkh",
        "scriptpubkey_address": "bc1qd5uy7rmdtntc675d3ccudlcf3mpwsg2ahl27j3",
        "value": 140000
      },
      "scriptsig": "",
      "scriptsig_asm": "",
      "witness": [
        "304402207fe99ad6ace72494e4be3c0b820bef4141167ac8c422a19f2887d50738f73b48022017a34cea36298ae502dba900895fee72b845d7eb4e46216d7315a787b3dee85001",
        "03ba10e3aa636aed98f66175e1608f1c546217fad53aeeded15c14a3ba22d199f3"
      ],
      "is_coinbase": false,
      "sequence": 4294967294
    }
  ],
  "vout": [
    {
      "scriptpubkey": "00147d20aa3eac3ba6fa933856202f2f1914fdc31177",
      "scriptpubkey_asm": "OP_0 OP_PUSHBYTES_20 7d20aa3eac3ba6fa933856202f2f1914fdc31177",
      "scriptpubkey_type": "v0_p2wpkh",
      "scriptpubkey_address": "bc1q05s2504v8wn04yec2csz7tcezn7uxyth9xkpdt",
      "value": 4627400
    }
  ],
  "size": 931,
  "weight": 1792,
  "fee": 14243,
  "status": {
    "confirmed": true,
    "block_height": 834638,
    "block_hash": "000000000000000000025f742c626208ac87e0b7d15054abb4a19ca2d735a54e",
    "block_time": 1710405325
  },
  "hex": "02000000000106e1369a8251c315011defe05a102fbb30701c2a8d3d75cd1331b7da53d58510d90000000000feffffff0e2b37889b487705c70b0dd4c35d92ec3645974e585918693c1ab9802bf510818400000000feffffffc516da1ab575a958ad531472b85bd57ad08a0e1194ec7ba28924a5167fa8908f0000000000feffffff0d58ec50d65163e4ca6479e508f353a35fcd638ba6fa46f5da8e4007da2920e50600000000feffffffef0d1a2b4f0e9ae7fafb07d22586ea01a2c3af53a7876701f86e053ca2b1d9b00000000000feffffffbeee8d89c9f9be978adae8b84a371755b5d522661d297b2235cfcc48ed1e653d0000000000feffffff01c89b4600000000001600147d20aa3eac3ba6fa933856202f2f1914fdc3117702473044022007cc237e7702fb39c3271a6558d8b54d7d04434604b0c8f31f80934638915ae702201de635b76c7d10c1e92cf74250815dbc4b68d9fe64028456777c83600e28a4830121034d3063fb3642fe5d36e0f11205b4ceb3a7afe849fa91bae4719ebf168ca70435024730440220337235d64df25a2faafaeeb641b845a37eefb472ae0e3c224984f8fe209013b6022034d0e1bc549dbb15d2371f060388f92aae791291aeb94345b69a66ebd90d421e0121023982cd4216730be5fdcc31da37f35abd528b307a11d9e6a3e25fc85d67939dc102473044022020640476731f6febae5fdb601b21e6be2d07b89eb90b95f7f2c0db21936ba82302202548785ad9d14610d64ea1684fff8e5e91df81238de56704a8e05674aa32e5bf012102433f73cabbf701af87cf1238d0f9ae283a296b2e17c9e07dbea4cb46b8e386a702473044022067943624e8bd2a384990c256d9e4aab2e943fab9a35c1d7cbd53ae30c76830c902202920d9a86e275c27ba0911a2d872a611d4824c5b52dd85f29a1e77340d248cd3012103ced69e2fc3d5e71a31e73e58a6dcb3934ce1ffb0fdf04cdc8bff880a6dff29c30247304402205547f01960fdf84d1723392be5bd09c0fe3a0ce8655bc16ebeba40582ca7d4c902206161714444fe2d47612a4fd50b1593ec2dc57fae9d1806c555e8f4be8570b13f0121024ebeb6473cc3eef3fe53223df8ca6dcbdf1fea9cf912b870259701522b6d1e900247304402207fe99ad6ace72494e4be3c0b820bef4141167ac8c422a19f2887d50738f73b48022017a34cea36298ae502dba900895fee72b845d7eb4e46216d7315a787b3dee850012103ba10e3aa636aed98f66175e1608f1c546217fad53aeeded15c14a3ba22d199f34dbc0c00"
}