{
  "txid": "a2c0d000b692661825fc5675ecb1d21129e48507d85e9d77b78b6570609c13f5",
  "version": 2,
  "locktime": 0,
  "vin": [
    {
      "txid": "ace82e6b048a5551af62b5c05b4d649d30aa6328230282fa5948603d71bacd22",
      "vout": 0,
      "prevout": {
        "scriptpubkey": "00144bcd82039d46d8f653e608369ee45895d91ea751",
        "scriptpubkey_asm": "OP_0 OP_PUSHBYTES_20 4bcd82039d46d8f653e608369ee45895d91ea751",
        "scriptpubkey_type": "v0_p2wpkh",
        "scriptpubkey_address": "bc1qf0xcyquagmv0v5lxpqmfaezcjhv3af63myml33",
        "value": 500000
      },
      "scriptsig": "",
      "scriptsig_asm": "",
      "witness": [
        "3045022100f350e6b42996c1be68b47643dbbec285725c9aa8e2f364d61dd462aeedacf080022064daf24c699500a1fa63ffabd2505e8625065d5e34a5b076b4e588a5b301b6fc01",
        "0273de7b5bdb1472acf44c9450cba23bcc93cec747f8e2192cc3671ee2c94164d5"
      ],
      "is_coinbase": false,
      "sequence": 4294967295
    }
  ],
  "vout": [
    {
      "scriptpubkey": "0014dd76691e45148c25f02b9d95bad75ed2dc6aafea",
      "scriptpubkey_asm": "OP_0 OP_PUSHBYTES_20 dd76691e45148c25f02b9d95bad75ed2dc6aafea",
      "scriptpubkey_type": "v0_p2wpkh",
      "scriptpubkey_address": "bc1qm4mxj8j9zjxztuptnk2m44676twx4tl26mqwqd",
      "value": 287000
    },
    {
      "scriptpubkey": "0014f67d2a70e3b69d9a3e4a2558834e6001e4ec78d0",
      "scriptpubkey_asm": "OP_0 OP_PUSHBYTES_20 f67d2a70e3b69d9a3e4a2558834e6001e4ec78d0",
      "scriptpubkey_type": "v0_p2wpkh",
      "scriptpubkey_address": "bc1q7e7j5u8rk6we50j2y4vgxnnqq8jwc7xsssws7q",
      "value": 210343
    }
  ],
  "size": 223,
  "weight": 562,
  "fee": 2657,
  "status": {
    "confirmed": true,
    "block_height": 834638,
    "block_hash": "000000000000000000025f742c626208ac87e0b7d15054abb4a19ca2d735a54e",
    "block_time": 1710405325
  },
  "hex": "0200000000010122cdba713d604859fa8202232863aa309d644d5bc0b562af51558a046b2ee8ac0000000000ffffffff021861040000000000160014dd76691e45148c25f02b9d95bad75ed2dc6aafeaa735030000000000160014f67d2a70e3b69d9a3e4a2558834e6001e4ec78d002483045022100f350e6b42996c1be68b47643dbbec285725c9aa8e2f364d61dd462aeedacf080022064daf24c699500a1fa63ffabd2505e8625065d5e34a5b076b4e588a5b301b6fc01210273de7b5bdb1472acf44c9450cba23bcc93cec747f8e2192cc3671ee2c94164d500000000"
}