{
  "txid": "a2cbc1a3aaa3a3fb264a6d9cdfa186023ce42767c3ecfa1228a2237124f8a884",
  "version": 2,
  "locktime": 0,
  "vin": [
    {
      "txid": "f8f201a0b6597ad3d2b8aefec233d0f867808d0397ef423ff0f49f0161bef07b",
      "vout": 1,
      "prevout": {
        "scriptpubkey": "a9142209ee44605d5b113eaf4af542974090bf4fbc5b87",
        "scriptpubkey_asm": "OP_HASH160 OP_PUSHBYTES_20 2209ee44605d5b113eaf4af542974090bf4fbc5b OP_EQUAL",
        "scriptpubkey_type": "p2sh",
        "scriptpubkey_address": "34nzo4joLYwiz2Z3osuehaq9XZ35ZsGWmC",
        "value": 214039073
      },
      "scriptsig": "1600146d72f4617afce765f364634df564701057c8b75f",
      "scriptsig_asm": "OP_PUSHBYTES_22 00146d72f4617afce765f364634df564701057c8b75f",
      "witness": [
        "304402207c43c38e65c83a708e6d4a64cced50fb079501eb9b3d585382455afa554040b002201e1b2743916288491923f77e17760eadb237a9a5e1922c41f54da715e50d5a8401",
        "02f7e21116e2c1f226d595ce7d91ae3ecef19ac4d8c0dfe72a788dce84e7b24582"
      ],
      "is_coinbase": false,
      "sequence": 1,
      "inner_redeemscript_asm": "OP_0 OP_PUSHBYTES_20 6d72f4617afce765f364634df564701057c8b75f"
    }
  ],
  "vout": [
    {
      "scriptpubkey": "001482e59a3c2a952ebb0eb42d902a651c40ac761eb3",
      "scriptpubkey_asm": "OP_0 OP_PUSHBYTES_20 82e59a3c2a952ebb0eb42d902a651c40ac761eb3",
      "scriptpubkey_type": "v0_p2wpkh",
      "scriptpubkey_address": "bc1qstje50p2j5htkr459kgz5egugzk8v84n7ktlyu",
      "value": 100024001
    },
    {
      "scriptpubkey": "a9142209ee44605d5b113eaf4af542974090bf4fbc5b87",
      "scriptpubkey_asm": "OP_HASH160 OP_PUSHBYTES_20 2209ee44605d5b113eaf4af542974090bf4fbc5b OP_EQUAL",
      "scriptpubkey_type": "p2sh",
      "scriptpubkey_address": "34nzo4joLYwiz2Z3osuehaq9XZ35ZsGWmC",
      "value": 114005172
    }
  ],
  "size": 246,
  "weight": 657,
  "fee": 9900,
  "status": {
    "confirmed": true,
    "block_height": 834552,
    "block_hash": "00000000000000000001dd0468a70c94f619251d286585cff57aeb4bd9ede330",
    "block_time": 1710355598
  },
  "hex": "020000000001017bf0be61019ff4f03f42ef97038d8067f8d033c2feaeb8d2d37a59b6a001f2f801000000171600146d72f4617afce765f364634df564701057c8b75f0100000002c13ef6050000000016001482e59a3c2a952ebb0eb42d902a651c40ac761eb3b494cb060000000017a9142209ee44605d5b113eaf4af542974090bf4fbc5b870247304402207c43c38e65c83a708e6d4a64cced50fb079501eb9b3d585382455afa554040b002201e1b2743916288491923f77e17760eadb237a9a5e1922c41f54da715e50d5a84012102f7e21116e2c1f226d595ce7d91ae3ecef19ac4d8c0dfe72a788dce84e7b2458200000000"
}