{
  "txid": "a2d2517008b95d931b2a5df400ac1015035c09bc79ccf0c6365884c08287dc87",
  "version": 1,
  "locktime": 0,
  "vin": [
    {
      "txid": "5adf895850e3434b1dc88be8def85d047497d95965b325b9316c162f2616cded",
      "vout": 1,
      "prevout": {
        "scriptpubkey": "a914928bf7a036cea077c1621e40de71396c5417cc2387",
        "scriptpubkey_asm": "OP_HASH160 OP_PUSHBYTES_20 928bf7a036cea077c1621e40de71396c5417cc23 OP_EQUAL",
        "scriptpubkey_type": "p2sh",
        "scriptpubkey_address": "3F3tFeaSJKJiRPBF87QCKvn1zjLBoRgQd9",
        "value": 291299
      },
      "scriptsig": "1600142f7e4a43d0da45b950f1fc8dd514bf0c84596eb7",
      "scriptsig_asm": "OP_PUSHBYTES_22 00142f7e4a43d0da45b950f1fc8dd514bf0c84596eb7",
      "witness": [
        "304402205e7bec9abbfb78674b4e0f4ad4992acd2b5f88c6d7f7e4438648711adb370e3202207d0ab41f2f5158cff66ede9607ce42666c07736f31eefaa86670c687524564f701",
        "02131cf0a9496c61897925118eb8e147e347246ca66361aa57c9abb85efcab00c7"
      ],
      "is_coinbase": false,
      "sequence": 4294967295,
      "inner_redeemscript_asm": "OP_0 OP_PUSHBYTES_20 2f7e4a43d0da45b950f1fc8dd514bf0c84596eb7"
    }
  ],
  "vout": [
    {
      "scriptpubkey": "a91412e9233e6a1c8b17aee073917185fa255cddcee887",
      "scriptpubkey_asm": "OP_HASH160 OP_PUSHBYTES_20 12e9233e6a1c8b17aee073917185fa255cddcee8 OP_EQUAL",
      "scriptpubkey_type": "p2sh",
      "scriptpubkey_address": "33R1NgkChqs9rGUc6YiUhtmwBcubMx156w",
      "value": 40000
    },
    {
      "scriptpubkey": "a914d03a9c4df22a7bbf9287fb70fe64955432674e5287",
      "scriptpubkey_asm": "OP_HASH160 OP_PUSHBYTES_20 d03a9c4df22a7bbf9287fb70fe64955432674e52 OP_EQUAL",
      "scriptpubkey_type": "p2sh",
      "scriptpubkey_address": "3Lg2gn54VScsGBBTZdcryHgUBXfsSWZnDQ",
      "value": 247481
    }
  ],
  "size": 247,
  "weight": 661,
  "fee": 3818,
  "status": {
    "confirmed": true,
    "block_height": 834638,
    "block_hash": "000000000000000000025f742c626208ac87e0b7d15054abb4a19ca2d735a54e",
    "block_time": 1710405325
  },
  "hex": "01000000000101edcd16262f166c31b925b36559d99774045df8dee88bc81d4b43e3505889df5a01000000171600142f7e4a43d0da45b950f1fc8dd514bf0c84596eb7ffffffff02409c00000000000017a91412e9233e6a1c8b17aee073917185fa255cddcee887b9c603000000000017a914d03a9c4df22a7bbf9287fb70fe64955432674e52870247304402205e7bec9abbfb78674b4e0f4ad4992acd2b5f88c6d7f7e4438648711adb370e3202207d0ab41f2f5158cff66ede9607ce42666c07736f31eefaa86670c687524564f7012102131cf0a9496c61897925118eb8e147e347246ca66361aa57c9abb85efcab00c700000000"
}