{
  "txid": "a2d9970cb9bd25610e22db0370bb8ac8acd2f5e751948f4eb4562c6594a3ada0",
  "version": 1,
  "locktime": 0,
  "vin": [
    {
      "txid": "8888888b858be2a25e41337388bd2556d4dea2840d7fef99147e491910ace19e",
      "vout": 0,
      "prevout": {
        "scriptpubkey": "51205809091be2132fd76d51e9e2292f595b02764b83442ab2c86646b5788f79672d",
        "scriptpubkey_asm": "OP_PUSHNUM_1 OP_PUSHBYTES_32 5809091be2132fd76d51e9e2292f595b02764b83442ab2c86646b5788f79672d",
        "scriptpubkey_type": "v1_p2tr",
        "scriptpubkey_address": "bc1ptqysjxlzzvhawm23a83zjt6etvp8vjurgs4t9jrxg66h3rmevukssyvrgh",
        "value": 11627
      },
      "scriptsig": "",
      "scriptsig_asm": "",
      "witness": [
        "7d2d533d80b0c245901c6ce3b64e2be5a4a8ea7a8b75ee3859d873ffba4eeacf8e9fff5db5c8345eaad2806027b6e79cac63ba83891b61c5be23cd7a41320fd683",
        "20930d4ffacedaeeda983fbe6875a3f39bad4c323e8346d8dda5652f8cfd9db2eaac00630461746f6d03646d7442a16461726773a468626974776f726b6367383838383838386b6d696e745f7469636b657268696e66696e697479656e6f6e63651a00539ea06474696d651a65dc707d68",
        "c1930d4ffacedaeeda983fbe6875a3f39bad4c323e8346d8dda5652f8cfd9db2ea"
      ],
      "is_coinbase": false,
      "sequence": 4294967293
    }
  ],
  "vout": [
    {
      "scriptpubkey": "5120bf94882e5d0c036449dc3f1782adc8fe707e6d03ea0ecdd97e048b8da94a44b1",
      "scriptpubkey_asm": "OP_PUSHNUM_1 OP_PUSHBYTES_32 bf94882e5d0c036449dc3f1782adc8fe707e6d03ea0ecdd97e048b8da94a44b1",
      "scriptpubkey_type": "v1_p2tr",
      "scriptpubkey_address": "bc1ph72gstjapspkgjwu8utc9twglec8umgrag8vmkt7qj9cm222gjcsurlt3p",
      "value": 9999
    }
  ],
  "size": 311,
  "weight": 593,
  "fee": 1628,
  "status": {
    "confirmed": true,
    "block_height": 834464,
    "block_hash": "0000000000000000000177a0869a911a2b65c9bdcd5a8bcb02b68f305bee848e",
    "block_time": 1710308296
  },
  "hex": "010000000001019ee1ac1019497e1499ef7f0d84a2ded45625bd887333415ea2e28b858b8888880000000000fdffffff010f27000000000000225120bf94882e5d0c036449dc3f1782adc8fe707e6d03ea0ecdd97e048b8da94a44b103417d2d533d80b0c245901c6ce3b64e2be5a4a8ea7a8b75ee3859d873ffba4eeacf8e9fff5db5c8345eaad2806027b6e79cac63ba83891b61c5be23cd7a41320fd6837120930d4ffacedaeeda983fbe6875a3f39bad4c323e8346d8dda5652f8cfd9db2eaac00630461746f6d03646d7442a16461726773a468626974776f726b6367383838383838386b6d696e745f7469636b657268696e66696e697479656e6f6e63651a00539ea06474696d651a65dc707d6821c1930d4ffacedaeeda983fbe6875a3f39bad4c323e8346d8dda5652f8cfd9db2ea00000000"
}