{
  "txid": "a2e8277ce1aad09fd95b2432b0fe5a2f6a24c17791b4ca528356d8582e3e62ce",
  "version": 2,
  "locktime": 834637,
  "vin": [
    {
      "txid": "910b3182874f7528d20848b13a94c09f1fb67f59e1dc1de0b0d3fce9288d486b",
      "vout": 0,
      "prevout": {
        "scriptpubkey": "a914e624ac2f1c0e67446d7455cc8655765f190702a687",
        "scriptpubkey_asm": "OP_HASH160 OP_PUSHBYTES_20 e624ac2f1c0e67446d7455cc8655765f190702a6 OP_EQUAL",
        "scriptpubkey_type": "p2sh",
        "scriptpubkey_address": "3NfuGinWKdG3NaMoyo3hPBn6eR2EszmQqh",
        "value": 196660504
      },
      "scriptsig": "1600145248caa8ebc679b05232a87d29e47a5230e9963c",
      "scriptsig_asm": "OP_PUSHBYTES_22 00145248caa8ebc679b05232a87d29e47a5230e9963c",
      "witness": [
        "304402204046238972f3827ff4e4ae44f16ceb3902f10a15e4eb96a68e814ee50ab7450e02203396c6eb74e572aef5fed47566841f893110f5e034c3b3a07987c12f7481427701",
        "02c3f5c4d8ae890dd81103a526dac8f674b1c534794b0b5a19c8cf7e8853627e1f"
      ],
      "is_coinbase": false,
      "sequence": 4294967293,
      "inner_redeemscript_asm": "OP_0 OP_PUSHBYTES_20 5248caa8ebc679b05232a87d29e47a5230e9963c"
    }
  ],
  "vout": [
    {
      "scriptpubkey": "76a9143d4d57712b299ea99cbd924760637f71d5aed1cd88ac",
      "scriptpubkey_asm": "OP_DUP OP_HASH160 OP_PUSHBYTES_20 3d4d57712b299ea99cbd924760637f71d5aed1cd OP_EQUALVERIFY OP_CHECKSIG",
      "scriptpubkey_type": "p2pkh",
      "scriptpubkey_address": "16b8sVKGCrGW7HahYRkdRQ6pCFH1M6128K",
      "value": 810498
    },
    {
      "scriptpubkey": "76a914dcd26b60b7c0512ac6f9b16bd6e4bff15210405d88ac",
      "scriptpubkey_asm": "OP_DUP OP_HASH160 OP_PUSHBYTES_20 dcd26b60b7c0512ac6f9b16bd6e4bff15210405d OP_EQUALVERIFY OP_CHECKSIG",
      "scriptpubkey_type": "p2pkh",
      "scriptpubkey_address": "1M8bjQKMiqkPVSgriKBeFqdXoJtYAfANuZ",
      "value": 195845417
    }
  ],
  "size": 251,
  "weight": 677,
  "fee": 4589,
  "status": {
    "confirmed": true,
    "block_height": 834638,
    "block_hash": "000000000000000000025f742c626208ac87e0b7d15054abb4a19ca2d735a54e",
    "block_time": 1710405325
  },
  "hex": "020000000001016b488d28e9fcd3b0e01ddce1597fb61f9fc0943ab14808d228754f8782310b9100000000171600145248caa8ebc679b05232a87d29e47a5230e9963cfdffffff02025e0c00000000001976a9143d4d57712b299ea99cbd924760637f71d5aed1cd88ac295dac0b000000001976a914dcd26b60b7c0512ac6f9b16bd6e4bff15210405d88ac0247304402204046238972f3827ff4e4ae44f16ceb3902f10a15e4eb96a68e814ee50ab7450e02203396c6eb74e572aef5fed47566841f893110f5e034c3b3a07987c12f74814277012102c3f5c4d8ae890dd81103a526dac8f674b1c534794b0b5a19c8cf7e8853627e1f4dbc0c00"
}