{
  "txid": "a2ed88b9159ff2d9b19bc2bae6694c238d6b80ceb8a993b46170c97857e59483",
  "version": 2,
  "locktime": 0,
  "vin": [
    {
      "txid": "520d23fa6f8458de6e795da5b08c5b1a1b0504af8ed6fcc77df24448029a6eb6",
      "vout": 0,
      "prevout": {
        "scriptpubkey": "00142e0224f1d6b3b44f94005937d249b044df891aa7",
        "scriptpubkey_asm": "OP_0 OP_PUSHBYTES_20 2e0224f1d6b3b44f94005937d249b044df891aa7",
        "scriptpubkey_type": "v0_p2wpkh",
        "scriptpubkey_address": "bc1q9cpzfuwkkw6yl9qqtymayjdsgn0cjx4859aq3u",
        "value": 148197
      },
      "scriptsig": "",
      "scriptsig_asm": "",
      "witness": [
        "3045022100cc4e566e89473f9eadf7e3e789a83f7ba3d56845c472aecd8964d5e2a59d25740220034bf14df23f06ba84311862d5e0a3ebe8911e0a8b58d55e49c9eb27daf4f45a01",
        "023d184cc1b0c61e8b7d264e4c9c62deda54d7a1928676b300f6d468c2b7ad68f9"
      ],
      "is_coinbase": false,
      "sequence": 4294967293
    }
  ],
  "vout": [
    {
      "scriptpubkey": "76a9148285803646cea3770cd410542ef3fdd531e0fea388ac",
      "scriptpubkey_asm": "OP_DUP OP_HASH160 OP_PUSHBYTES_20 8285803646cea3770cd410542ef3fdd531e0fea3 OP_EQUALVERIFY OP_CHECKSIG",
      "scriptpubkey_type": "p2pkh",
      "scriptpubkey_address": "1Cu8mjp1kaka27omuAMG77x7K7dXUyw9eM",
      "value": 9694
    },
    {
      "scriptpubkey": "00142e0224f1d6b3b44f94005937d249b044df891aa7",
      "scriptpubkey_asm": "OP_0 OP_PUSHBYTES_20 2e0224f1d6b3b44f94005937d249b044df891aa7",
      "scriptpubkey_type": "v0_p2wpkh",
      "scriptpubkey_address": "bc1q9cpzfuwkkw6yl9qqtymayjdsgn0cjx4859aq3u",
      "value": 136414
    }
  ],
  "size": 226,
  "weight": 574,
  "fee": 2089,
  "status": {
    "confirmed": true,
    "block_height": 834460,
    "block_hash": "00000000000000000000484a79b643b2524bbce82e5d8a442013fa5b8905ed98",
    "block_time": 1710307468
  },
  "hex": "02000000000101b66e9a024844f27dc7fcd68eaf04051b1a5b8cb0a55d796ede58846ffa230d520000000000fdffffff02de250000000000001976a9148285803646cea3770cd410542ef3fdd531e0fea388acde140200000000001600142e0224f1d6b3b44f94005937d249b044df891aa702483045022100cc4e566e89473f9eadf7e3e789a83f7ba3d56845c472aecd8964d5e2a59d25740220034bf14df23f06ba84311862d5e0a3ebe8911e0a8b58d55e49c9eb27daf4f45a0121023d184cc1b0c61e8b7d264e4c9c62deda54d7a1928676b300f6d468c2b7ad68f900000000"
}