{
  "txid": "a2ee143cfdffa356d48527451b75eb81fecce1eb390dd10aee90987eebf0fd37",
  "version": 2,
  "locktime": 834637,
  "vin": [
    {
      "txid": "a702b698949466d2060832c65252624e39829da1b9f2361f2aa5ff42f89397ca",
      "vout": 0,
      "prevout": {
        "scriptpubkey": "001470019540e3ec5f9ef6a4b4098a3f093c7351dff9",
        "scriptpubkey_asm": "OP_0 OP_PUSHBYTES_20 70019540e3ec5f9ef6a4b4098a3f093c7351dff9",
        "scriptpubkey_type": "v0_p2wpkh",
        "scriptpubkey_address": "bc1qwqqe2s8ra30eaa4yksyc50cf83e4rhlepv3e0d",
        "value": 1115446
      },
      "scriptsig": "",
      "scriptsig_asm": "",
      "witness": [
        "30440220063f6c61fe4ca03345f981430d72e4a52565cbddada67facf29f7ead02678b86022041cd30820e2db6b631249b31d1bcae7e5722f2dd436d59078993a9896764c8e801",
        "03a682f9a38a8473b9a6631adebdfb345e197a7039457eaff8b16bbda517786f82"
      ],
      "is_coinbase": false,
      "sequence": 4294967293
    }
  ],
  "vout": [
    {
      "scriptpubkey": "a91468e60fc28afbbb9ab77cd2348aa8879eadc7a55287",
      "scriptpubkey_asm": "OP_HASH160 OP_PUSHBYTES_20 68e60fc28afbbb9ab77cd2348aa8879eadc7a552 OP_EQUAL",
      "scriptpubkey_type": "p2sh",
      "scriptpubkey_address": "3BFfoT9m9uHULSBtt7L8MzcJimXYP7aLzY",
      "value": 29701
    },
    {
      "scriptpubkey": "00149d4a850bf8a52f6fc5ffadee7e160374ddec8e0b",
      "scriptpubkey_asm": "OP_0 OP_PUSHBYTES_20 9d4a850bf8a52f6fc5ffadee7e160374ddec8e0b",
      "scriptpubkey_type": "v0_p2wpkh",
      "scriptpubkey_address": "bc1qn49g2zlc55hkl30l4hh8u9srwnw7erstnzpg80",
      "value": 1004022
    },
    {
      "scriptpubkey": "00141a60a152c413ec075d6649d3fcc732761d307952",
      "scriptpubkey_asm": "OP_0 OP_PUSHBYTES_20 1a60a152c413ec075d6649d3fcc732761d307952",
      "scriptpubkey_type": "v0_p2wpkh",
      "scriptpubkey_address": "bc1qrfs2z5kyz0kqwhtxf8fle3ejwcwnq72jqyv38s",
      "value": 77225
    }
  ],
  "size": 254,
  "weight": 689,
  "fee": 4498,
  "status": {
    "confirmed": true,
    "block_height": 834638,
    "block_hash": "000000000000000000025f742c626208ac87e0b7d15054abb4a19ca2d735a54e",
    "block_time": 1710405325
  },
  "hex": "02000000000101ca9793f842ffa52a1f36f2b9a19d82394e625252c6320806d266949498b602a70000000000fdffffff03057400000000000017a91468e60fc28afbbb9ab77cd2348aa8879eadc7a55287f6510f00000000001600149d4a850bf8a52f6fc5ffadee7e160374ddec8e0ba92d0100000000001600141a60a152c413ec075d6649d3fcc732761d307952024730440220063f6c61fe4ca03345f981430d72e4a52565cbddada67facf29f7ead02678b86022041cd30820e2db6b631249b31d1bcae7e5722f2dd436d59078993a9896764c8e8012103a682f9a38a8473b9a6631adebdfb345e197a7039457eaff8b16bbda517786f824dbc0c00"
}