{
  "txid": "a2f304e5655bb15ebcb38ff17d815fab5ef607b9a6dc680f58ff92f47249032d",
  "version": 1,
  "locktime": 0,
  "vin": [
    {
      "txid": "2cee89357298a9a159791249f609601fcc12bf9228b54471c3fb20a50083c348",
      "vout": 61,
      "prevout": {
        "scriptpubkey": "0014ac3fbb2e6e90b94c7fa41f439c4a47911d14933c",
        "scriptpubkey_asm": "OP_0 OP_PUSHBYTES_20 ac3fbb2e6e90b94c7fa41f439c4a47911d14933c",
        "scriptpubkey_type": "v0_p2wpkh",
        "scriptpubkey_address": "bc1q4slmktnwjzu5clayrapecjj8jyw3fyeucmn034",
        "value": 476917
      },
      "scriptsig": "",
      "scriptsig_asm": "",
      "witness": [
        "30450221008e92f80f0fbf991ab5e957cc57c7b24bda45271eec7ff80ccf98d3a32a11f6240220057fd4f187fa4003dac5b858e26f987487ed2bce14b8fcb4c0ce1ee9468709a301",
        "03a71df83184914df440b384cf5fd397e0f7b4fcc9ccd87bfc6fde9c02ed83cbd1"
      ],
      "is_coinbase": false,
      "sequence": 4294967295
    }
  ],
  "vout": [
    {
      "scriptpubkey": "00145d48b073d809e3f05307fae0ec57a26b241a2859",
      "scriptpubkey_asm": "OP_0 OP_PUSHBYTES_20 5d48b073d809e3f05307fae0ec57a26b241a2859",
      "scriptpubkey_type": "v0_p2wpkh",
      "scriptpubkey_address": "bc1qt4ytqu7cp83lq5c8ltswc4azdvjp52zeypp277",
      "value": 473947
    }
  ],
  "size": 192,
  "weight": 438,
  "fee": 2970,
  "status": {
    "confirmed": true,
    "block_height": 834638,
    "block_hash": "000000000000000000025f742c626208ac87e0b7d15054abb4a19ca2d735a54e",
    "block_time": 1710405325
  },
  "hex": "0100000000010148c38300a520fbc37144b52892bf12cc1f6009f649127959a1a998723589ee2c3d00000000ffffffff015b3b0700000000001600145d48b073d809e3f05307fae0ec57a26b241a2859024830450221008e92f80f0fbf991ab5e957cc57c7b24bda45271eec7ff80ccf98d3a32a11f6240220057fd4f187fa4003dac5b858e26f987487ed2bce14b8fcb4c0ce1ee9468709a3012103a71df83184914df440b384cf5fd397e0f7b4fcc9ccd87bfc6fde9c02ed83cbd100000000"
}