{
  "txid": "a301e110c14e1f6a4e721f9b65259b429230fdfd24218f447107d0a26980af6c",
  "version": 2,
  "locktime": 0,
  "vin": [
    {
      "txid": "d6a4e15a7a87a50a0ce930a2c7efb4c3cb98a8bc1c26ab42d463acef25d67cf0",
      "vout": 0,
      "prevout": {
        "scriptpubkey": "76a9147d53466c30a66f6a3b6194634cc6d158c29478bb88ac",
        "scriptpubkey_asm": "OP_DUP OP_HASH160 OP_PUSHBYTES_20 7d53466c30a66f6a3b6194634cc6d158c29478bb OP_EQUALVERIFY OP_CHECKSIG",
        "scriptpubkey_type": "p2pkh",
        "scriptpubkey_address": "1CRfE2wHK1CSMNLFfD932nZoRGba7Xm7bY",
        "value": 24596907
      },
      "scriptsig": "47304402207d95d49b2c2f627f008740798f76420c2cbd598675e3925639e84685ae5c3a2302204d2a2de250db27a86f162a7616481e54b0661ea9151b7ac8996f74cb5445ce6c012103ac04c12f00f5414e189221328e15245f4d99367b99bc873231a7071bd37ecaea",
      "scriptsig_asm": "OP_PUSHBYTES_71 304402207d95d49b2c2f627f008740798f76420c2cbd598675e3925639e84685ae5c3a2302204d2a2de250db27a86f162a7616481e54b0661ea9151b7ac8996f74cb5445ce6c01 OP_PUSHBYTES_33 03ac04c12f00f5414e189221328e15245f4d99367b99bc873231a7071bd37ecaea",
      "is_coinbase": false,
      "sequence": 4294967295
    }
  ],
  "vout": [
    {
      "scriptpubkey": "76a9147d44b219cde1bbfa698144b1795b8244d1e40acf88ac",
      "scriptpubkey_asm": "OP_DUP OP_HASH160 OP_PUSHBYTES_20 7d44b219cde1bbfa698144b1795b8244d1e40acf OP_EQUALVERIFY OP_CHECKSIG",
      "scriptpubkey_type": "p2pkh",
      "scriptpubkey_address": "1CRMm3L4eTCNMoky122i4Qi7LCUisE1aW8",
      "value": 10000000
    },
    {
      "scriptpubkey": "76a9147d53466c30a66f6a3b6194634cc6d158c29478bb88ac",
      "scriptpubkey_asm": "OP_DUP OP_HASH160 OP_PUSHBYTES_20 7d53466c30a66f6a3b6194634cc6d158c29478bb OP_EQUALVERIFY OP_CHECKSIG",
      "scriptpubkey_type": "p2pkh",
      "scriptpubkey_address": "1CRfE2wHK1CSMNLFfD932nZoRGba7Xm7bY",
      "value": 14591061
    }
  ],
  "size": 225,
  "weight": 900,
  "fee": 5846,
  "status": {
    "confirmed": true,
    "block_height": 834638,
    "block_hash": "000000000000000000025f742c626208ac87e0b7d15054abb4a19ca2d735a54e",
    "block_time": 1710405325
  },
  "hex": "0200000001f07cd625efac63d442ab261cbca898cbc3b4efc7a230e90c0aa5877a5ae1a4d6000000006a47304402207d95d49b2c2f627f008740798f76420c2cbd598675e3925639e84685ae5c3a2302204d2a2de250db27a86f162a7616481e54b0661ea9151b7ac8996f74cb5445ce6c012103ac04c12f00f5414e189221328e15245f4d99367b99bc873231a7071bd37ecaeaffffffff0280969800000000001976a9147d44b219cde1bbfa698144b1795b8244d1e40acf88ac55a4de00000000001976a9147d53466c30a66f6a3b6194634cc6d158c29478bb88ac00000000"
}