{
  "txid": "a30e227f2ec8c79561d8f5e1311225dc8476459106dcb32b1769324b9de23afc",
  "version": 1,
  "locktime": 0,
  "vin": [
    {
      "txid": "853f64d27b77b0ed8a50e61ecd71ea20502ebf70b1430536657731200ea2af41",
      "vout": 88,
      "prevout": {
        "scriptpubkey": "76a9145aaf4313ab72672361fc63b29b0b78b78eb1f92088ac",
        "scriptpubkey_asm": "OP_DUP OP_HASH160 OP_PUSHBYTES_20 5aaf4313ab72672361fc63b29b0b78b78eb1f920 OP_EQUALVERIFY OP_CHECKSIG",
        "scriptpubkey_type": "p2pkh",
        "scriptpubkey_address": "19GVmgdbwyi2ApkrzpVcfnJCBbGZQHqfHA",
        "value": 34622
      },
      "scriptsig": "4730440220364f2f48765c2636d1f7a0ea75f6bd3fcdac86ff91fa6439ca1e451d53fb174f0220014cd0bb98c4381df51e8aac315b673c77648d876e5a1e5498ca957c9b7f8ba7012102ceb0c5f4ea1485717869350dc35b70c9c6826d449a596eb2664691defc4a3ca3",
      "scriptsig_asm": "OP_PUSHBYTES_71 30440220364f2f48765c2636d1f7a0ea75f6bd3fcdac86ff91fa6439ca1e451d53fb174f0220014cd0bb98c4381df51e8aac315b673c77648d876e5a1e5498ca957c9b7f8ba701 OP_PUSHBYTES_33 02ceb0c5f4ea1485717869350dc35b70c9c6826d449a596eb2664691defc4a3ca3",
      "is_coinbase": false,
      "sequence": 4294967295
    }
  ],
  "vout": [
    {
      "scriptpubkey": "76a9147b353da772f4e6de733aec7dec1102478d39102e88ac",
      "scriptpubkey_asm": "OP_DUP OP_HASH160 OP_PUSHBYTES_20 7b353da772f4e6de733aec7dec1102478d39102e OP_EQUALVERIFY OP_CHECKSIG",
      "scriptpubkey_type": "p2pkh",
      "scriptpubkey_address": "1CETtqLE3gunR9tiB4GQU3ALGShZjKsNVM",
      "value": 29990
    }
  ],
  "size": 191,
  "weight": 764,
  "fee": 4632,
  "status": {
    "confirmed": true,
    "block_height": 834460,
    "block_hash": "00000000000000000000484a79b643b2524bbce82e5d8a442013fa5b8905ed98",
    "block_time": 1710307468
  },
  "hex": "010000000141afa20e20317765360543b170bf2e5020ea71cd1ee6508aedb0777bd2643f85580000006a4730440220364f2f48765c2636d1f7a0ea75f6bd3fcdac86ff91fa6439ca1e451d53fb174f0220014cd0bb98c4381df51e8aac315b673c77648d876e5a1e5498ca957c9b7f8ba7012102ceb0c5f4ea1485717869350dc35b70c9c6826d449a596eb2664691defc4a3ca3ffffffff0126750000000000001976a9147b353da772f4e6de733aec7dec1102478d39102e88ac00000000"
}