{
  "txid": "a323e9cce1a9c4a3951dfcf9e525bdb78a77a34d73e2353beb79009c8f8a73d3",
  "version": 1,
  "locktime": 0,
  "vin": [
    {
      "txid": "91107003266ad245bfc7f1a49698232764f01b9e73b3c660229ae47f2fdfd6cd",
      "vout": 0,
      "prevout": {
        "scriptpubkey": "0014e4023536191e1c1fc4507ca65545869a076fd8fb",
        "scriptpubkey_asm": "OP_0 OP_PUSHBYTES_20 e4023536191e1c1fc4507ca65545869a076fd8fb",
        "scriptpubkey_type": "v0_p2wpkh",
        "scriptpubkey_address": "bc1quspr2dsercwpl3zs0jn923vxngrklk8md6pz5k",
        "value": 32533
      },
      "scriptsig": "",
      "scriptsig_asm": "",
      "witness": [
        "3045022100c4dd8a344ddef006e0bbd3394782ad1100a6c68497bb75f21d264ba9e08d56dc02207f8d666fad7e67fdb3c6041fd46b4c4443f54e0113e6ada42432b293b7b21f4f01",
        "02e2dd8ce5e1c190c5feaa4d28c8784b9cef18a3827a38400e2ba96dceae66585d"
      ],
      "is_coinbase": false,
      "sequence": 4294967295
    }
  ],
  "vout": [
    {
      "scriptpubkey": "0014c76ccd58afe98bb613f8e694d718eec70038a073",
      "scriptpubkey_asm": "OP_0 OP_PUSHBYTES_20 c76ccd58afe98bb613f8e694d718eec70038a073",
      "scriptpubkey_type": "v0_p2wpkh",
      "scriptpubkey_address": "bc1qcakv6k90ax9mvylcu62dwx8wcuqr3grnjnyyt0",
      "value": 27264
    },
    {
      "scriptpubkey": "0014e4023536191e1c1fc4507ca65545869a076fd8fb",
      "scriptpubkey_asm": "OP_0 OP_PUSHBYTES_20 e4023536191e1c1fc4507ca65545869a076fd8fb",
      "scriptpubkey_type": "v0_p2wpkh",
      "scriptpubkey_address": "bc1quspr2dsercwpl3zs0jn923vxngrklk8md6pz5k",
      "value": 1462
    }
  ],
  "size": 223,
  "weight": 562,
  "fee": 3807,
  "status": {
    "confirmed": true,
    "block_height": 834638,
    "block_hash": "000000000000000000025f742c626208ac87e0b7d15054abb4a19ca2d735a54e",
    "block_time": 1710405325
  },
  "hex": "01000000000101cdd6df2f7fe49a2260c6b3739e1bf06427239896a4f1c7bf45d26a26037010910000000000ffffffff02806a000000000000160014c76ccd58afe98bb613f8e694d718eec70038a073b605000000000000160014e4023536191e1c1fc4507ca65545869a076fd8fb02483045022100c4dd8a344ddef006e0bbd3394782ad1100a6c68497bb75f21d264ba9e08d56dc02207f8d666fad7e67fdb3c6041fd46b4c4443f54e0113e6ada42432b293b7b21f4f012102e2dd8ce5e1c190c5feaa4d28c8784b9cef18a3827a38400e2ba96dceae66585d00000000"
}