{
  "txid": "a32865113460c88561d6f6a338ad1075c60a983107c8b00340df9c010b7a5561",
  "version": 1,
  "locktime": 0,
  "vin": [
    {
      "txid": "888888888a63827572605e6dd12099cbb0c5d31e58519dd2ba8b15bae0ff7b5d",
      "vout": 0,
      "prevout": {
        "scriptpubkey": "5120600a780ed1c0f46667a89229f3d4698a47ef212dcd49b4552408fdbfb7122468",
        "scriptpubkey_asm": "OP_PUSHNUM_1 OP_PUSHBYTES_32 600a780ed1c0f46667a89229f3d4698a47ef212dcd49b4552408fdbfb7122468",
        "scriptpubkey_type": "v1_p2tr",
        "scriptpubkey_address": "bc1pvq98srk3cr6xveagjg5l84rf3fr77gfde4ymg4fypr7mldcjy35qxyq8jd",
        "value": 11923
      },
      "scriptsig": "",
      "scriptsig_asm": "",
      "witness": [
        "f6229dc6d0450446e803a81d6e109ffc5d814b313438e30e016a3db0a20a4ec09ba9b1a1f09485a8d2e7fbbc1136abc67cf9851cbec64448ff569c3cff35ae6a",
        "202b2a0fbe98b5c561ac05931839b1bfbcf3df415309a9da719ae7dfcdf092dabbac00630461746f6d03646d7446a16461726773a46474696d651a65f13234656e6f6e63651a0001001368626974776f726b636b3838383838383838382e386b6d696e745f7469636b657268696e66696e69747968",
        "c12b2a0fbe98b5c561ac05931839b1bfbcf3df415309a9da719ae7dfcdf092dabb"
      ],
      "is_coinbase": false,
      "sequence": 4294967295
    }
  ],
  "vout": [
    {
      "scriptpubkey": "5120ee5d73a166b5fcf6fb0e22e1428770d9455bcd536c28912b437450303ef41201",
      "scriptpubkey_asm": "OP_PUSHNUM_1 OP_PUSHBYTES_32 ee5d73a166b5fcf6fb0e22e1428770d9455bcd536c28912b437450303ef41201",
      "scriptpubkey_type": "v1_p2tr",
      "scriptpubkey_address": "bc1paewh8gtxkh70d7cwyts59pmsm9z4hn2nds5fz26rw3grq0h5zgqsmngref",
      "value": 9999
    }
  ],
  "size": 314,
  "weight": 596,
  "fee": 1924,
  "status": {
    "confirmed": true,
    "block_height": 834460,
    "block_hash": "00000000000000000000484a79b643b2524bbce82e5d8a442013fa5b8905ed98",
    "block_time": 1710307468
  },
  "hex": "010000000001015d7bffe0ba158bbad29d51581ed3c5b0cb9920d16d5e60727582638a888888880000000000ffffffff010f27000000000000225120ee5d73a166b5fcf6fb0e22e1428770d9455bcd536c28912b437450303ef412010340f6229dc6d0450446e803a81d6e109ffc5d814b313438e30e016a3db0a20a4ec09ba9b1a1f09485a8d2e7fbbc1136abc67cf9851cbec64448ff569c3cff35ae6a75202b2a0fbe98b5c561ac05931839b1bfbcf3df415309a9da719ae7dfcdf092dabbac00630461746f6d03646d7446a16461726773a46474696d651a65f13234656e6f6e63651a0001001368626974776f726b636b3838383838383838382e386b6d696e745f7469636b657268696e66696e6974796821c12b2a0fbe98b5c561ac05931839b1bfbcf3df415309a9da719ae7dfcdf092dabb00000000"
}