{
  "txid": "a329c9ca1ab7be7efc420347706a90658a6f8828ec5372fa7de0dfd0d9f40c9c",
  "version": 2,
  "locktime": 0,
  "vin": [
    {
      "txid": "9c10b007d2133e013cafef64d1faa7fec4afc4908ff78aa73222c05d55f4b3b4",
      "vout": 16,
      "prevout": {
        "scriptpubkey": "512045767fb11f1ac5a70eb10d38f4f098ba4ba8b82cff7429824156c4339871f518",
        "scriptpubkey_asm": "OP_PUSHNUM_1 OP_PUSHBYTES_32 45767fb11f1ac5a70eb10d38f4f098ba4ba8b82cff7429824156c4339871f518",
        "scriptpubkey_type": "v1_p2tr",
        "scriptpubkey_address": "bc1pg4m8lvglrtz6wr43p5u0fuychf963wpvla6znqjp2mzr8xr375vqfypyv3",
        "value": 3248
      },
      "scriptsig": "",
      "scriptsig_asm": "",
      "witness": [
        "efffd9f0b667b6c80dd9f321f9d0aa220af96d4727569284bb94951cd51910518b92e481862c4222057f8dbe9b9958a1525c4c03121dc428f0e3bdeef38bc773",
        "20d07883f85823046f1aecbfd679c5238a2205a93aa61c0e4ede47f4a5ef6d731dac0063036f726401011e6170706c69636174696f6e2f6a736f6e3b636861727365743d7574662d38004cd37b2270223a22706f772d3230222c226f70223a226d696e74222c227469636b223a2250455045222c22616d74223a2231303030222c22736f6c7574696f6e223a22504550453a62633170636a65387233733875656e746d64767a6e34777337786d3836367879707535756139357371796877756835616d61677565367a73707a733637713a303030303030303030303030303030303030303139393431613561653132383937363539383134343239323533333030353762306461393666336465613163353a3131313032343732353835227d68",
        "c13e1a296467c00ef4aae3d2c5b2725c238a71cd400892ce19de6d969e3f5bb91e"
      ],
      "is_coinbase": false,
      "sequence": 4294967295
    }
  ],
  "vout": [
    {
      "scriptpubkey": "5120c4b271c607e666bdb5829d5d0f1b67d68c40f29ce9690012eee5e9ddf51cce85",
      "scriptpubkey_asm": "OP_PUSHNUM_1 OP_PUSHBYTES_32 c4b271c607e666bdb5829d5d0f1b67d68c40f29ce9690012eee5e9ddf51cce85",
      "scriptpubkey_type": "v1_p2tr",
      "scriptpubkey_address": "bc1pcje8r3s8uentmdvzn4ws7xm866xypu5ua95sqyhwuh5amague6zspzs67q",
      "value": 546
    }
  ],
  "size": 487,
  "weight": 769,
  "fee": 2702,
  "status": {
    "confirmed": true,
    "block_height": 834460,
    "block_hash": "00000000000000000000484a79b643b2524bbce82e5d8a442013fa5b8905ed98",
    "block_time": 1710307468
  },
  "hex": "02000000000101b4b3f4555dc02232a78af78f90c4afc4fea7fad164efaf3c013e13d207b0109c1000000000ffffffff012202000000000000225120c4b271c607e666bdb5829d5d0f1b67d68c40f29ce9690012eee5e9ddf51cce850340efffd9f0b667b6c80dd9f321f9d0aa220af96d4727569284bb94951cd51910518b92e481862c4222057f8dbe9b9958a1525c4c03121dc428f0e3bdeef38bc773fd200120d07883f85823046f1aecbfd679c5238a2205a93aa61c0e4ede47f4a5ef6d731dac0063036f726401011e6170706c69636174696f6e2f6a736f6e3b636861727365743d7574662d38004cd37b2270223a22706f772d3230222c226f70223a226d696e74222c227469636b223a2250455045222c22616d74223a2231303030222c22736f6c7574696f6e223a22504550453a62633170636a65387233733875656e746d64767a6e34777337786d3836367879707535756139357371796877756835616d61677565367a73707a733637713a303030303030303030303030303030303030303139393431613561653132383937363539383134343239323533333030353762306461393666336465613163353a3131313032343732353835227d6821c13e1a296467c00ef4aae3d2c5b2725c238a71cd400892ce19de6d969e3f5bb91e00000000"
}