{
  "txid": "a331f1cf43f0add8ae45d1e27ff743e691becfb5a47ddf0afbf335d9d8c5963b",
  "version": 2,
  "locktime": 0,
  "vin": [
    {
      "txid": "074c308b8f0ea8a400bf7235d736e15d9cd02ea287e8078ba72b91bad80d6545",
      "vout": 0,
      "prevout": {
        "scriptpubkey": "00142772e1fe0f96810283378b0dafbe8051a875ddb5",
        "scriptpubkey_asm": "OP_0 OP_PUSHBYTES_20 2772e1fe0f96810283378b0dafbe8051a875ddb5",
        "scriptpubkey_type": "v0_p2wpkh",
        "scriptpubkey_address": "bc1qyaewrls0j6qs9qeh3vx6l05q2x58thd4fyzcrx",
        "value": 10888
      },
      "scriptsig": "",
      "scriptsig_asm": "",
      "witness": [
        "3044022061529aae70920f2f65a180da8a1ab9623117659e8c4935696e551ad11e72150502203ef40d40927a3a69838988fbe4b3fb6e7d8743c080df25459c78043c50eac8e501",
        "034af3d0aeeabe37b27e5252e68a7d396a49bbe3f338eb51d55d9dc1475af1f10a"
      ],
      "is_coinbase": false,
      "sequence": 4294967295
    }
  ],
  "vout": [
    {
      "scriptpubkey": "0014d9704530f9d68504458e797469089fccb1b8ad6f",
      "scriptpubkey_asm": "OP_0 OP_PUSHBYTES_20 d9704530f9d68504458e797469089fccb1b8ad6f",
      "scriptpubkey_type": "v0_p2wpkh",
      "scriptpubkey_address": "bc1qm9cy2v8e66zsg3vw096xjzylejcm3tt0ukzcdl",
      "value": 8239
    }
  ],
  "size": 191,
  "weight": 437,
  "fee": 2649,
  "status": {
    "confirmed": true,
    "block_height": 834638,
    "block_hash": "000000000000000000025f742c626208ac87e0b7d15054abb4a19ca2d735a54e",
    "block_time": 1710405325
  },
  "hex": "0200000000010145650dd8ba912ba78b07e887a22ed09c5de136d73572bf00a4a80e8f8b304c070000000000ffffffff012f20000000000000160014d9704530f9d68504458e797469089fccb1b8ad6f02473044022061529aae70920f2f65a180da8a1ab9623117659e8c4935696e551ad11e72150502203ef40d40927a3a69838988fbe4b3fb6e7d8743c080df25459c78043c50eac8e50121034af3d0aeeabe37b27e5252e68a7d396a49bbe3f338eb51d55d9dc1475af1f10a00000000"
}