{
  "txid": "a33209ea85de442115cbad15d34c1d380d7644762cf92dd547e4ec282ded6fde",
  "version": 1,
  "locktime": 0,
  "vin": [
    {
      "txid": "89a80410f3e2db9d9cb32c802f5a47e74b04789cc3e26d33b2d01310a79ea3d0",
      "vout": 0,
      "prevout": {
        "scriptpubkey": "0014dc6bf86354105de2fcd9868a2b0376d6731cb92f",
        "scriptpubkey_asm": "OP_0 OP_PUSHBYTES_20 dc6bf86354105de2fcd9868a2b0376d6731cb92f",
        "scriptpubkey_type": "v0_p2wpkh",
        "scriptpubkey_address": "bc1qm34lsc65zpw79lxes69zkqmk6ee3ewf0j77s3h",
        "value": 1253122488
      },
      "scriptsig": "",
      "scriptsig_asm": "",
      "witness": [
        "30450221008b6a9d837048ecf452141c27e8632716f4d24b00cfc672dd28d48847c88d206c022070839f3d6b31a01ff5b8efeaad8901c62a55161ef4aa501cbbe3defccf6ff57601",
        "02174ee672429ff94304321cdae1fc1e487edf658b34bd1d36da03761658a2bb09"
      ],
      "is_coinbase": false,
      "sequence": 4294967295
    }
  ],
  "vout": [
    {
      "scriptpubkey": "76a9146eb9a0a1075204e3efe3dc73c657ef5bb166dfbc88ac",
      "scriptpubkey_asm": "OP_DUP OP_HASH160 OP_PUSHBYTES_20 6eb9a0a1075204e3efe3dc73c657ef5bb166dfbc OP_EQUALVERIFY OP_CHECKSIG",
      "scriptpubkey_type": "p2pkh",
      "scriptpubkey_address": "1B6ThiwmL1zpiQsXmFTe1XVUrsmGpFrwEQ",
      "value": 631669926
    },
    {
      "scriptpubkey": "0014dc6bf86354105de2fcd9868a2b0376d6731cb92f",
      "scriptpubkey_asm": "OP_0 OP_PUSHBYTES_20 dc6bf86354105de2fcd9868a2b0376d6731cb92f",
      "scriptpubkey_type": "v0_p2wpkh",
      "scriptpubkey_address": "bc1qm34lsc65zpw79lxes69zkqmk6ee3ewf0j77s3h",
      "value": 6608033
    },
    {
      "scriptpubkey": "0014a035250f7e041dfb13ca3270b7ca9b1fc4d6c4b7",
      "scriptpubkey_asm": "OP_0 OP_PUSHBYTES_20 a035250f7e041dfb13ca3270b7ca9b1fc4d6c4b7",
      "scriptpubkey_type": "v0_p2wpkh",
      "scriptpubkey_address": "bc1q5q6j2rm7qswlky72xfct0j5mrlzdd39hm0vw48",
      "value": 14830306
    },
    {
      "scriptpubkey": "a9144270599ac1fc9c99b4212820027ec78f1c63c63287",
      "scriptpubkey_asm": "OP_HASH160 OP_PUSHBYTES_20 4270599ac1fc9c99b4212820027ec78f1c63c632 OP_EQUAL",
      "scriptpubkey_type": "p2sh",
      "scriptpubkey_address": "37kK7RMHnSQtTL2GpYVxb6uwwPSUXBjgu7",
      "value": 51682
    },
    {
      "scriptpubkey": "a91491d175cb9b1eb6a612cf89b341d9de476f77dbde87",
      "scriptpubkey_asm": "OP_HASH160 OP_PUSHBYTES_20 91d175cb9b1eb6a612cf89b341d9de476f77dbde OP_EQUAL",
      "scriptpubkey_type": "p2sh",
      "scriptpubkey_address": "3Ez2puRefEFAuUWKUFj2cCZ5CzcLVcH98E",
      "value": 113374
    },
    {
      "scriptpubkey": "a9141d2f755975e9f2a3674ed4eb29ef80637889c0d587",
      "scriptpubkey_asm": "OP_HASH160 OP_PUSHBYTES_20 1d2f755975e9f2a3674ed4eb29ef80637889c0d5 OP_EQUAL",
      "scriptpubkey_type": "p2sh",
      "scriptpubkey_address": "34MLNaFFsPLDtXD8F9LucWUx5qXCaznmUf",
      "value": 58401158
    },
    {
      "scriptpubkey": "a91412beff4441a17c3dbc6c8fc23757fa8af88373ef87",
      "scriptpubkey_asm": "OP_HASH160 OP_PUSHBYTES_20 12beff4441a17c3dbc6c8fc23757fa8af88373ef OP_EQUAL",
      "scriptpubkey_type": "p2sh",
      "scriptpubkey_address": "33Q8ti9jkHTXA39w6NdKo1R5ri39cdCPWE",
      "value": 140000
    },
    {
      "scriptpubkey": "a9149535d795161d6d86b01ca0821b718345fe586f1787",
      "scriptpubkey_asm": "OP_HASH160 OP_PUSHBYTES_20 9535d795161d6d86b01ca0821b718345fe586f17 OP_EQUAL",
      "scriptpubkey_type": "p2sh",
      "scriptpubkey_address": "3FHy79DXrHccbJmUzYtUCz4sRL6grqm7iw",
      "value": 380000
    },
    {
      "scriptpubkey": "a9145a91adb6ebc18edbc863143b9f3f5fdcc98f1d4e87",
      "scriptpubkey_asm": "OP_HASH160 OP_PUSHBYTES_20 5a91adb6ebc18edbc863143b9f3f5fdcc98f1d4e OP_EQUAL",
      "scriptpubkey_type": "p2sh",
      "scriptpubkey_address": "39wuFjUaGy6Ju5Pkw6nFPuffcKCNSvAu42",
      "value": 178477
    },
    {
      "scriptpubkey": "76a914c98fc6bd9c2fd88533f28e6797cfa2a0a0e18ecf88ac",
      "scriptpubkey_asm": "OP_DUP OP_HASH160 OP_PUSHBYTES_20 c98fc6bd9c2fd88533f28e6797cfa2a0a0e18ecf OP_EQUALVERIFY OP_CHECKSIG",
      "scriptpubkey_type": "p2pkh",
      "scriptpubkey_address": "1KNm4K8GUK8sMoxc2Z3zU8Uv5FDVjrA72p",
      "value": 533980000
    },
    {
      "scriptpubkey": "a914ed8cfc538595ce2e7f0587209f454404992a762f87",
      "scriptpubkey_asm": "OP_HASH160 OP_PUSHBYTES_20 ed8cfc538595ce2e7f0587209f454404992a762f OP_EQUAL",
      "scriptpubkey_type": "p2sh",
      "scriptpubkey_address": "3PM4xrxkzt5BRNMr4beim4jYSeoQZaHZVt",
      "value": 125630
    },
    {
      "scriptpubkey": "001455c621c79c5bb151943c34d16694d65764a912fc",
      "scriptpubkey_asm": "OP_0 OP_PUSHBYTES_20 55c621c79c5bb151943c34d16694d65764a912fc",
      "scriptpubkey_type": "v0_p2wpkh",
      "scriptpubkey_address": "bc1q2hrzr3uutwc4r9puxngkd9xk2aj2jyhulgkkds",
      "value": 65200
    },
    {
      "scriptpubkey": "0014193b1974eea32bdb088da02ac5feebd59af62356",
      "scriptpubkey_asm": "OP_0 OP_PUSHBYTES_20 193b1974eea32bdb088da02ac5feebd59af62356",
      "scriptpubkey_type": "v0_p2wpkh",
      "scriptpubkey_address": "bc1qrya3ja8w5v4akzyd5q4vtlht6kd0vg6kjf4hg7",
      "value": 40000
    },
    {
      "scriptpubkey": "a9142b824414641e27327a2de78a349181a2d9f7f76a87",
      "scriptpubkey_asm": "OP_HASH160 OP_PUSHBYTES_20 2b824414641e27327a2de78a349181a2d9f7f76a OP_EQUAL",
      "scriptpubkey_type": "p2sh",
      "scriptpubkey_address": "35f52pzvceaxzv8hi3Z3u8BK44Nj4ZWJaJ",
      "value": 1016750
    },
    {
      "scriptpubkey": "a914ab9736a624d010bd17e71505a014321165bb1d5887",
      "scriptpubkey_asm": "OP_HASH160 OP_PUSHBYTES_20 ab9736a624d010bd17e71505a014321165bb1d58 OP_EQUAL",
      "scriptpubkey_type": "p2sh",
      "scriptpubkey_address": "3HLJcqrCJ6HnuYzJbhAu8jzFGcvUgkfgHi",
      "value": 1767000
    },
    {
      "scriptpubkey": "a91449ac376bb5b24cca57c14af5d88ad95be90fb80987",
      "scriptpubkey_asm": "OP_HASH160 OP_PUSHBYTES_20 49ac376bb5b24cca57c14af5d88ad95be90fb809 OP_EQUAL",
      "scriptpubkey_type": "p2sh",
      "scriptpubkey_address": "38QZZMksMfS2o2ad9jmoGdK7nScN6mnmxW",
      "value": 3725402
    }
  ],
  "size": 673,
  "weight": 2362,
  "fee": 29550,
  "status": {
    "confirmed": true,
    "block_height": 834460,
    "block_hash": "00000000000000000000484a79b643b2524bbce82e5d8a442013fa5b8905ed98",
    "block_time": 1710307468
  },
  "hex": "01000000000101d0a39ea71013d0b2336de2c39c78044be7475a2f802cb39c9ddbe2f31004a8890000000000ffffffff10a684a625000000001976a9146eb9a0a1075204e3efe3dc73c657ef5bb166dfbc88aca1d4640000000000160014dc6bf86354105de2fcd9868a2b0376d6731cb92fe24ae20000000000160014a035250f7e041dfb13ca3270b7ca9b1fc4d6c4b7e2c900000000000017a9144270599ac1fc9c99b4212820027ec78f1c63c63287deba01000000000017a91491d175cb9b1eb6a612cf89b341d9de476f77dbde8786217b030000000017a9141d2f755975e9f2a3674ed4eb29ef80637889c0d587e02202000000000017a91412beff4441a17c3dbc6c8fc23757fa8af88373ef8760cc05000000000017a9149535d795161d6d86b01ca0821b718345fe586f17872db902000000000017a9145a91adb6ebc18edbc863143b9f3f5fdcc98f1d4e8760e3d31f000000001976a914c98fc6bd9c2fd88533f28e6797cfa2a0a0e18ecf88acbeea01000000000017a914ed8cfc538595ce2e7f0587209f454404992a762f87b0fe00000000000016001455c621c79c5bb151943c34d16694d65764a912fc409c000000000000160014193b1974eea32bdb088da02ac5feebd59af62356ae830f000000000017a9142b824414641e27327a2de78a349181a2d9f7f76a8758f61a000000000017a914ab9736a624d010bd17e71505a014321165bb1d58875ad838000000000017a91449ac376bb5b24cca57c14af5d88ad95be90fb80987024830450221008b6a9d837048ecf452141c27e8632716f4d24b00cfc672dd28d48847c88d206c022070839f3d6b31a01ff5b8efeaad8901c62a55161ef4aa501cbbe3defccf6ff576012102174ee672429ff94304321cdae1fc1e487edf658b34bd1d36da03761658a2bb0900000000"
}