{
  "txid": "a3347bd5ebe0e33bb53666eacac3d7f98de8525dd9d5bb4140f177a21410d95e",
  "version": 2,
  "locktime": 0,
  "vin": [
    {
      "txid": "d276a3c14055d01e323bd539cc716d0d824ba355cc77a47dfff1d13ac457f2c0",
      "vout": 1,
      "prevout": {
        "scriptpubkey": "00149100840c9d999219f7182e592176b7f77a8d7552",
        "scriptpubkey_asm": "OP_0 OP_PUSHBYTES_20 9100840c9d999219f7182e592176b7f77a8d7552",
        "scriptpubkey_type": "v0_p2wpkh",
        "scriptpubkey_address": "bc1qjyqggryanxfpnacc9evjza4h7aag6a2jadu9fs",
        "value": 232722
      },
      "scriptsig": "",
      "scriptsig_asm": "",
      "witness": [
        "304402203bfa01849b7abb1ab96d52730508a29920c8d76b5b1116294de50bd17354abb0022016acac27a47362aa71908ab6dad6ca2980293620a2d04c1d8f7387315aa2d78701",
        "028749d51f798d1f6b178afb5d1403f99965f5fa61d6a280a1df8935290ac3fdec"
      ],
      "is_coinbase": false,
      "sequence": 4294967295
    }
  ],
  "vout": [
    {
      "scriptpubkey": "0014c7822b94572658c8a2dbddc38f4fc3d5c636f7e4",
      "scriptpubkey_asm": "OP_0 OP_PUSHBYTES_20 c7822b94572658c8a2dbddc38f4fc3d5c636f7e4",
      "scriptpubkey_type": "v0_p2wpkh",
      "scriptpubkey_address": "bc1qc7pzh9zhyevv3gkmmhpc7n7r6hrrdalynpsxav",
      "value": 189107
    },
    {
      "scriptpubkey": "a914c62d156e756fa93fe1b5ca67422f1daf0eed436887",
      "scriptpubkey_asm": "OP_HASH160 OP_PUSHBYTES_20 c62d156e756fa93fe1b5ca67422f1daf0eed4368 OP_EQUAL",
      "scriptpubkey_type": "p2sh",
      "scriptpubkey_address": "3KksizpconjoDWHTE9Hr3sTZuxdovmTiwg",
      "value": 41526
    }
  ],
  "size": 223,
  "weight": 565,
  "fee": 2089,
  "status": {
    "confirmed": true,
    "block_height": 834460,
    "block_hash": "00000000000000000000484a79b643b2524bbce82e5d8a442013fa5b8905ed98",
    "block_time": 1710307468
  },
  "hex": "02000000000101c0f257c43ad1f1ff7da477cc55a34b820d6d71cc39d53b321ed05540c1a376d20100000000ffffffff02b3e2020000000000160014c7822b94572658c8a2dbddc38f4fc3d5c636f7e436a200000000000017a914c62d156e756fa93fe1b5ca67422f1daf0eed4368870247304402203bfa01849b7abb1ab96d52730508a29920c8d76b5b1116294de50bd17354abb0022016acac27a47362aa71908ab6dad6ca2980293620a2d04c1d8f7387315aa2d7870121028749d51f798d1f6b178afb5d1403f99965f5fa61d6a280a1df8935290ac3fdec00000000"
}