{
  "txid": "a34a9f55111dac291550c6e9c35ce433c9a952dc6cac6335c6f5234d55555c1a",
  "version": 1,
  "locktime": 0,
  "vin": [
    {
      "txid": "71b03994278e278e6bf29b9d1d2fbd2f972691a71489024ab465414c682bc97f",
      "vout": 2,
      "prevout": {
        "scriptpubkey": "0014b642376cb51f4c44902d856e5b2137c0388ec04a",
        "scriptpubkey_asm": "OP_0 OP_PUSHBYTES_20 b642376cb51f4c44902d856e5b2137c0388ec04a",
        "scriptpubkey_type": "v0_p2wpkh",
        "scriptpubkey_address": "bc1qkeprwm94raxyfypds4h9kgfhcqugasz2v4yztx",
        "value": 208000
      },
      "scriptsig": "",
      "scriptsig_asm": "",
      "witness": [
        "30450221009b2ad584418347bfb37a380afe2657297c3544c8393e16df5c514f14221ef3a2022069318e6b9c949204b52a2fafeba8eb8457ce2ca42787d8fa660d91dd186c1a5201",
        "02893d3dd0d0d523e5c9d0a86c2365fd986216cdfbb42583855000e8fee43267f8"
      ],
      "is_coinbase": false,
      "sequence": 4294967293
    }
  ],
  "vout": [
    {
      "scriptpubkey": "5120af065600565bae120b32cc5de2b0dd030bc5623876815b6a25c26fa637f3935a",
      "scriptpubkey_asm": "OP_PUSHNUM_1 OP_PUSHBYTES_32 af065600565bae120b32cc5de2b0dd030bc5623876815b6a25c26fa637f3935a",
      "scriptpubkey_type": "v1_p2tr",
      "scriptpubkey_address": "bc1p4ur9vqzktwhpyzeje3w79vxaqv9u2c3cw6q4k639cfh6vdlnjddqvkvmym",
      "value": 2834
    },
    {
      "scriptpubkey": "51209b57783ff38333b575f35634ba9795d28dddbe75b0e5fd582974df3b4f0fc37c",
      "scriptpubkey_asm": "OP_PUSHNUM_1 OP_PUSHBYTES_32 9b57783ff38333b575f35634ba9795d28dddbe75b0e5fd582974df3b4f0fc37c",
      "scriptpubkey_type": "v1_p2tr",
      "scriptpubkey_address": "bc1pndths0lnsvem2a0n2c6t49u462xam0n4krjl6kpfwn0nknc0cd7qmnxhf8",
      "value": 4394
    },
    {
      "scriptpubkey": "5120824d27318841c3affc2583ac5f354938bb8f2ac9148bfe2ee4f0dbea008f7d55",
      "scriptpubkey_asm": "OP_PUSHNUM_1 OP_PUSHBYTES_32 824d27318841c3affc2583ac5f354938bb8f2ac9148bfe2ee4f0dbea008f7d55",
      "scriptpubkey_type": "v1_p2tr",
      "scriptpubkey_address": "bc1psfxjwvvgg8p6llp9swk97d2f8zac72kfzj9luthy7rd75qy0042skqer0k",
      "value": 48000
    },
    {
      "scriptpubkey": "0014b642376cb51f4c44902d856e5b2137c0388ec04a",
      "scriptpubkey_asm": "OP_0 OP_PUSHBYTES_20 b642376cb51f4c44902d856e5b2137c0388ec04a",
      "scriptpubkey_type": "v0_p2wpkh",
      "scriptpubkey_address": "bc1qkeprwm94raxyfypds4h9kgfhcqugasz2v4yztx",
      "value": 149396
    }
  ],
  "size": 321,
  "weight": 954,
  "fee": 3376,
  "status": {
    "confirmed": true,
    "block_height": 834464,
    "block_hash": "0000000000000000000177a0869a911a2b65c9bdcd5a8bcb02b68f305bee848e",
    "block_time": 1710308296
  },
  "hex": "010000000001017fc92b684c4165b44a028914a79126972fbd2f1d9d9bf26b8e278e279439b0710200000000fdffffff04120b000000000000225120af065600565bae120b32cc5de2b0dd030bc5623876815b6a25c26fa637f3935a2a110000000000002251209b57783ff38333b575f35634ba9795d28dddbe75b0e5fd582974df3b4f0fc37c80bb000000000000225120824d27318841c3affc2583ac5f354938bb8f2ac9148bfe2ee4f0dbea008f7d559447020000000000160014b642376cb51f4c44902d856e5b2137c0388ec04a024830450221009b2ad584418347bfb37a380afe2657297c3544c8393e16df5c514f14221ef3a2022069318e6b9c949204b52a2fafeba8eb8457ce2ca42787d8fa660d91dd186c1a52012102893d3dd0d0d523e5c9d0a86c2365fd986216cdfbb42583855000e8fee43267f800000000"
}