{
  "txid": "a34fbb204c59e37749ed90353b420292422e561ad0a508c42919fa954444ccd5",
  "version": 2,
  "locktime": 0,
  "vin": [
    {
      "txid": "ca49732a8789b812361e997512b66bc3787f1e3ff39f5f0d8b845e09438043f6",
      "vout": 21,
      "prevout": {
        "scriptpubkey": "512009ec99b672ebdc4c57f51514b1496c019f3d37457fd75a93fd323ce65051153c",
        "scriptpubkey_asm": "OP_PUSHNUM_1 OP_PUSHBYTES_32 09ec99b672ebdc4c57f51514b1496c019f3d37457fd75a93fd323ce65051153c",
        "scriptpubkey_type": "v1_p2tr",
        "scriptpubkey_address": "bc1pp8kfndnja0wyc4l4z52tzjtvqx0n6d690lt44ylaxg7wv5z3z57q6lnytu",
        "value": 2066
      },
      "scriptsig": "",
      "scriptsig_asm": "",
      "witness": [
        "2008b741baf4da34b72f52db23a4a0601446e4d3d5bd6cb3dd9509884edce2a966c337cd7223ee26dc8fab26232f09172ab29e24afa3ad8e3eb5a3d0bb425097",
        "20a25cc546129f71733ddddfa21bc03e4bc661e933343259f87dce61f256fe4bbaac0063036f726401010a746578742f706c61696e00367b2270223a226272632d3230222c226f70223a226d696e74222c227469636b223a2261616161222c22616d74223a223130303030227d68",
        "c1a25cc546129f71733ddddfa21bc03e4bc661e933343259f87dce61f256fe4bba"
      ],
      "is_coinbase": false,
      "sequence": 4261412863
    }
  ],
  "vout": [
    {
      "scriptpubkey": "0014b12a255b419b46c01324705abea5fd2949f55051",
      "scriptpubkey_asm": "OP_0 OP_PUSHBYTES_20 b12a255b419b46c01324705abea5fd2949f55051",
      "scriptpubkey_type": "v0_p2wpkh",
      "scriptpubkey_address": "bc1qky4z2k6pndrvqyeywpdtaf0a99yl25z3zp84r6",
      "value": 294
    }
  ],
  "size": 295,
  "weight": 541,
  "fee": 1772,
  "status": {
    "confirmed": true,
    "block_height": 834460,
    "block_hash": "00000000000000000000484a79b643b2524bbce82e5d8a442013fa5b8905ed98",
    "block_time": 1710307468
  },
  "hex": "02000000000101f6438043095e848b0d5f9ff33f1e7f78c36bb61275991e3612b889872a7349ca1500000000fffffffd012601000000000000160014b12a255b419b46c01324705abea5fd2949f5505103402008b741baf4da34b72f52db23a4a0601446e4d3d5bd6cb3dd9509884edce2a966c337cd7223ee26dc8fab26232f09172ab29e24afa3ad8e3eb5a3d0bb4250976e20a25cc546129f71733ddddfa21bc03e4bc661e933343259f87dce61f256fe4bbaac0063036f726401010a746578742f706c61696e00367b2270223a226272632d3230222c226f70223a226d696e74222c227469636b223a2261616161222c22616d74223a223130303030227d6821c1a25cc546129f71733ddddfa21bc03e4bc661e933343259f87dce61f256fe4bba00000000"
}