{
  "txid": "a3661f7700e1c3d596649f4d276cf3886168318ad4a9de705a4b213d4fdecb67",
  "version": 2,
  "locktime": 0,
  "vin": [
    {
      "txid": "0800b3d1d2753897e5401ec482faf44efa978f81e07c74f9ca98c64a36c0f430",
      "vout": 1,
      "prevout": {
        "scriptpubkey": "0014c831ed73cf309c42db9d0f02fbce92119ca3ff36",
        "scriptpubkey_asm": "OP_0 OP_PUSHBYTES_20 c831ed73cf309c42db9d0f02fbce92119ca3ff36",
        "scriptpubkey_type": "v0_p2wpkh",
        "scriptpubkey_address": "bc1qeqc76u70xzwy9kuapup0hn5jzxw28lekkn8edf",
        "value": 29327025
      },
      "scriptsig": "",
      "scriptsig_asm": "",
      "witness": [
        "30440220738d0d7b3c8895b1d1c90ef0553fd3c2a413d5b39f22040716c1d381af57a09c02206005b803f7cbef5430726ae3044195953c342bc2600c9e2157a6d5b607c687ff01",
        "03f0ce47f6b6255bf9bf7eba9ec6b429d6a4564a7d2b0a14a6c506fbbd7d6e6b0c"
      ],
      "is_coinbase": false,
      "sequence": 0
    }
  ],
  "vout": [
    {
      "scriptpubkey": "00145973b96aa4c0e2119a9b91ea8d1ff83752f75b95",
      "scriptpubkey_asm": "OP_0 OP_PUSHBYTES_20 5973b96aa4c0e2119a9b91ea8d1ff83752f75b95",
      "scriptpubkey_type": "v0_p2wpkh",
      "scriptpubkey_address": "bc1qt9emj64ycr3prx5mj84g68lcxaf0wku4f0r8fu",
      "value": 15982
    },
    {
      "scriptpubkey": "001475696a350c69dcbe567b51d147c5e4ba1859af87",
      "scriptpubkey_asm": "OP_0 OP_PUSHBYTES_20 75696a350c69dcbe567b51d147c5e4ba1859af87",
      "scriptpubkey_type": "v0_p2wpkh",
      "scriptpubkey_address": "bc1qw45k5dgvd8wtu4nm28g5030yhgv9ntu8cuwjn3",
      "value": 29309508
    }
  ],
  "size": 222,
  "weight": 561,
  "fee": 1535,
  "status": {
    "confirmed": true,
    "block_height": 834464,
    "block_hash": "0000000000000000000177a0869a911a2b65c9bdcd5a8bcb02b68f305bee848e",
    "block_time": 1710308296
  },
  "hex": "0200000000010130f4c0364ac698caf9747ce0818f97fa4ef4fa82c41e40e5973875d2d1b30008010000000000000000026e3e0000000000001600145973b96aa4c0e2119a9b91ea8d1ff83752f75b95443abf010000000016001475696a350c69dcbe567b51d147c5e4ba1859af87024730440220738d0d7b3c8895b1d1c90ef0553fd3c2a413d5b39f22040716c1d381af57a09c02206005b803f7cbef5430726ae3044195953c342bc2600c9e2157a6d5b607c687ff012103f0ce47f6b6255bf9bf7eba9ec6b429d6a4564a7d2b0a14a6c506fbbd7d6e6b0c00000000"
}