{
  "txid": "a37221191dc8591155fed00abd44b436b3a666c7054314a11d16cea32650eecf",
  "version": 2,
  "locktime": 0,
  "vin": [
    {
      "txid": "e054c137725b7a5d163dade8f5cd68c0927a2e8b00d920927dab9a7ba934ce5f",
      "vout": 19,
      "prevout": {
        "scriptpubkey": "5120fd62ebeff6d0b5c7e26358392adb9d92d468a9715147b7e7169784974b49814a",
        "scriptpubkey_asm": "OP_PUSHNUM_1 OP_PUSHBYTES_32 fd62ebeff6d0b5c7e26358392adb9d92d468a9715147b7e7169784974b49814a",
        "scriptpubkey_type": "v1_p2tr",
        "scriptpubkey_address": "bc1pl43whmlk6z6u0cnrtquj4kuajt2x32t329rm0eckj7zfwj6fs99qn0m33d",
        "value": 2658
      },
      "scriptsig": "",
      "scriptsig_asm": "",
      "witness": [
        "c490e0844ca763b809733e2b56313061ffb999efbbd06a9afddb01704f7a2eacffffea9a38be3c4031eaf30b19859f6a16a65c0ff204c5c2c9f77bae0b863294",
        "2004f2c27280015ea4f7637445c5240743bba2d550e4b1ce2be81fcb0234a0e126ac0063036f726401011e6170706c69636174696f6e2f6a736f6e3b636861727365743d7574662d38004cbf7b2270223a22706f772d3230222c226f70223a226d696e74222c227469636b223a2250455045222c22616d74223a2231303030222c22736f6c7574696f6e223a22504550453a6263317139736a36303977756e7468646a636d7a746a796379766475616e653071716b78726e773932653a303030303030303030303030303030303030303139393431613561653132383937363539383134343239323533333030353762306461393666336465613163353a3431343331303037353132227d68",
        "c0a0e509a599b6542378e5ac7959d344a1bebc95ec9899fd4ccf1904beefe3f047"
      ],
      "is_coinbase": false,
      "sequence": 4294967295
    }
  ],
  "vout": [
    {
      "scriptpubkey": "00142c25a795dc9aeed963625c898231bcecf2f002c6",
      "scriptpubkey_asm": "OP_0 OP_PUSHBYTES_20 2c25a795dc9aeed963625c898231bcecf2f002c6",
      "scriptpubkey_type": "v0_p2wpkh",
      "scriptpubkey_address": "bc1q9sj609wunthdjcmztjycyvduane0qqkxrnw92e",
      "value": 546
    }
  ],
  "size": 455,
  "weight": 701,
  "fee": 2112,
  "status": {
    "confirmed": true,
    "block_height": 834460,
    "block_hash": "00000000000000000000484a79b643b2524bbce82e5d8a442013fa5b8905ed98",
    "block_time": 1710307468
  },
  "hex": "020000000001015fce34a97b9aab7d9220d9008b2e7a92c068cdf5e8ad3d165d7a5b7237c154e01300000000ffffffff0122020000000000001600142c25a795dc9aeed963625c898231bcecf2f002c60340c490e0844ca763b809733e2b56313061ffb999efbbd06a9afddb01704f7a2eacffffea9a38be3c4031eaf30b19859f6a16a65c0ff204c5c2c9f77bae0b863294fd0c012004f2c27280015ea4f7637445c5240743bba2d550e4b1ce2be81fcb0234a0e126ac0063036f726401011e6170706c69636174696f6e2f6a736f6e3b636861727365743d7574662d38004cbf7b2270223a22706f772d3230222c226f70223a226d696e74222c227469636b223a2250455045222c22616d74223a2231303030222c22736f6c7574696f6e223a22504550453a6263317139736a36303977756e7468646a636d7a746a796379766475616e653071716b78726e773932653a303030303030303030303030303030303030303139393431613561653132383937363539383134343239323533333030353762306461393666336465613163353a3431343331303037353132227d6821c0a0e509a599b6542378e5ac7959d344a1bebc95ec9899fd4ccf1904beefe3f04700000000"
}