{
  "txid": "a38011cc11f7352179eac9e039152e00002e941592290175fc8c30abf77341fb",
  "version": 2,
  "locktime": 0,
  "vin": [
    {
      "txid": "8d6c2d3938769b945503e67a16cd31843a2b23472208776a4c910307d0c42792",
      "vout": 0,
      "prevout": {
        "scriptpubkey": "512008371b46028a7fd97b52af0495f7b92551c958337f4180236d520098a262bb95",
        "scriptpubkey_asm": "OP_PUSHNUM_1 OP_PUSHBYTES_32 08371b46028a7fd97b52af0495f7b92551c958337f4180236d520098a262bb95",
        "scriptpubkey_type": "v1_p2tr",
        "scriptpubkey_address": "bc1ppqm3k3sz3flaj76j4uzftaaey4gujkpn0aqcqgmd2gqf3gnzhw2s5ruw3k",
        "value": 4730
      },
      "scriptsig": "",
      "scriptsig_asm": "",
      "witness": [
        "8e558a9e3c45f6beacb595d7082e20ed7a19047e2a4890b947e5750093517d1746a563d773d51530a05042c988fc8483fbb59d97bfc85faa7542e05aae2a6691",
        "20c383c3d332b1ac2c98eb6b848888763ae8463c3a63057299b565a36b21e87319ac0063036f726401010a746578742f706c61696e00367b2270223a226272632d3230222c227469636b223a2261616161222c226f70223a226d696e74222c22616d74223a223130303030227d68",
        "c1c383c3d332b1ac2c98eb6b848888763ae8463c3a63057299b565a36b21e87319"
      ],
      "is_coinbase": false,
      "sequence": 4294967293
    }
  ],
  "vout": [
    {
      "scriptpubkey": "5120926237ed11ce110919578dd4c646c925afd0a9e4a55d6d004184d6b27c54ce5c",
      "scriptpubkey_asm": "OP_PUSHNUM_1 OP_PUSHBYTES_32 926237ed11ce110919578dd4c646c925afd0a9e4a55d6d004184d6b27c54ce5c",
      "scriptpubkey_type": "v1_p2tr",
      "scriptpubkey_address": "bc1pjf3r0mg3ecgsjx2h3h2vv3kfykhap20y54wk6qzpsnttylz5eewq50prft",
      "value": 546
    },
    {
      "scriptpubkey": "001470d63255b14f563ad7f501a4c86877ac8f9bf362",
      "scriptpubkey_asm": "OP_0 OP_PUSHBYTES_20 70d63255b14f563ad7f501a4c86877ac8f9bf362",
      "scriptpubkey_type": "v0_p2wpkh",
      "scriptpubkey_address": "bc1qwrtry4d3fatr44l4qxjvs6rh4j8ehumzg8cp0q",
      "value": 1499
    }
  ],
  "size": 338,
  "weight": 713,
  "fee": 2685,
  "status": {
    "confirmed": true,
    "block_height": 834460,
    "block_hash": "00000000000000000000484a79b643b2524bbce82e5d8a442013fa5b8905ed98",
    "block_time": 1710307468
  },
  "hex": "020000000001019227c4d00703914c6a77082247232b3a8431cd167ae60355949b7638392d6c8d0000000000fdffffff022202000000000000225120926237ed11ce110919578dd4c646c925afd0a9e4a55d6d004184d6b27c54ce5cdb0500000000000016001470d63255b14f563ad7f501a4c86877ac8f9bf36203408e558a9e3c45f6beacb595d7082e20ed7a19047e2a4890b947e5750093517d1746a563d773d51530a05042c988fc8483fbb59d97bfc85faa7542e05aae2a66916e20c383c3d332b1ac2c98eb6b848888763ae8463c3a63057299b565a36b21e87319ac0063036f726401010a746578742f706c61696e00367b2270223a226272632d3230222c227469636b223a2261616161222c226f70223a226d696e74222c22616d74223a223130303030227d6821c1c383c3d332b1ac2c98eb6b848888763ae8463c3a63057299b565a36b21e8731900000000"
}