{
  "txid": "a3a9aafc306518c89d92c6296376c64c8589ffc9002ed44f57840903076ec7e8",
  "version": 2,
  "locktime": 0,
  "vin": [
    {
      "txid": "4ee77778659dcfe8d7a4e15882fc6193f4f3d5f6607624e256337b44c2280af5",
      "vout": 63,
      "prevout": {
        "scriptpubkey": "51201f3f13416e000e95e471b1bedc08cc7a6340e7516d96230a764efb505f9d1872",
        "scriptpubkey_asm": "OP_PUSHNUM_1 OP_PUSHBYTES_32 1f3f13416e000e95e471b1bedc08cc7a6340e7516d96230a764efb505f9d1872",
        "scriptpubkey_type": "v1_p2tr",
        "scriptpubkey_address": "bc1prul3xstwqq8fter3kxldczxv0f35pe63dktzxznkfma4qhuarpeqa862g5",
        "value": 2075
      },
      "scriptsig": "",
      "scriptsig_asm": "",
      "witness": [
        "14a84c36de54d5b726579a91a99718f2af07b4921c030100722441d3920b9c01227e841aba41dda3cd0038c34bfe5f564272dfa1cad072f0dbe053ab9d1fb228",
        "205f327bab8686d77e2af3c42a0d1027a30cc18e2ce0f34e5b555b57096427d0a0ac0063036f7264010118746578742f706c61696e3b636861727365743d7574662d3800357b2270223a224252432d313030222c226f70223a226d696e74222c227469636b223a22696e73222c22616d74223a2231303030227d68",
        "c1c50eac15d7d7889f5ad84f80015e8a209129aeea937c37fa4b8bc0f9be289730"
      ],
      "is_coinbase": false,
      "sequence": 4294967295
    }
  ],
  "vout": [
    {
      "scriptpubkey": "00143e2325412b554cacdd163a93a42204c4707f8851",
      "scriptpubkey_asm": "OP_0 OP_PUSHBYTES_20 3e2325412b554cacdd163a93a42204c4707f8851",
      "scriptpubkey_type": "v0_p2wpkh",
      "scriptpubkey_address": "bc1q8c3j2sft24x2ehgk82f6ggsyc3c8lzz3yw9wsu",
      "value": 546
    }
  ],
  "size": 308,
  "weight": 554,
  "fee": 1529,
  "status": {
    "confirmed": true,
    "block_height": 834464,
    "block_hash": "0000000000000000000177a0869a911a2b65c9bdcd5a8bcb02b68f305bee848e",
    "block_time": 1710308296
  },
  "hex": "02000000000101f50a28c2447b3356e2247660f6d5f3f49361fc8258e1a4d7e8cf9d657877e74e3f00000000ffffffff0122020000000000001600143e2325412b554cacdd163a93a42204c4707f8851034014a84c36de54d5b726579a91a99718f2af07b4921c030100722441d3920b9c01227e841aba41dda3cd0038c34bfe5f564272dfa1cad072f0dbe053ab9d1fb2287b205f327bab8686d77e2af3c42a0d1027a30cc18e2ce0f34e5b555b57096427d0a0ac0063036f7264010118746578742f706c61696e3b636861727365743d7574662d3800357b2270223a224252432d313030222c226f70223a226d696e74222c227469636b223a22696e73222c22616d74223a2231303030227d6821c1c50eac15d7d7889f5ad84f80015e8a209129aeea937c37fa4b8bc0f9be28973000000000"
}