{
  "txid": "a3adbead210a6d2fa560f441354f09c71f695e792604b59127ad3af53b2a12bf",
  "version": 2,
  "locktime": 834361,
  "vin": [
    {
      "txid": "0e113ef2cbb645f8b806e417a52d32c166d40f0bfba2f2d569018aeb707f17b7",
      "vout": 0,
      "prevout": {
        "scriptpubkey": "001490fb04e6cf33692f52569034b90447ec3dd10aa1",
        "scriptpubkey_asm": "OP_0 OP_PUSHBYTES_20 90fb04e6cf33692f52569034b90447ec3dd10aa1",
        "scriptpubkey_type": "v0_p2wpkh",
        "scriptpubkey_address": "bc1qjrasfek0xd5j75jkjq6tjpz8as7azz4p2wrgv7",
        "value": 10895
      },
      "scriptsig": "",
      "scriptsig_asm": "",
      "witness": [
        "3044022021921e6e3e5a7b09a55c3179b6f5d452aed7446d61ac05f361f8249e8b1be86302202800a25ff97b8a564d82f075414019adb6c35ed0c76e0f94e1e317544ceaa67501",
        "03651fbdcffaec001c1b6e21bd79b22252e32a07eb2a7dc01eb425f33c0e813773"
      ],
      "is_coinbase": false,
      "sequence": 4294967293
    }
  ],
  "vout": [
    {
      "scriptpubkey": "0014bbc929d578282030410cfaf2136be62fea7b7a77",
      "scriptpubkey_asm": "OP_0 OP_PUSHBYTES_20 bbc929d578282030410cfaf2136be62fea7b7a77",
      "scriptpubkey_type": "v0_p2wpkh",
      "scriptpubkey_address": "bc1qh0yjn4tc9qsrqsgvltepx6lx9l48k7nhccjsje",
      "value": 9890
    }
  ],
  "size": 191,
  "weight": 437,
  "fee": 1005,
  "status": {
    "confirmed": true,
    "block_height": 834464,
    "block_hash": "0000000000000000000177a0869a911a2b65c9bdcd5a8bcb02b68f305bee848e",
    "block_time": 1710308296
  },
  "hex": "02000000000101b7177f70eb8a0169d5f2a2fb0b0fd466c1322da517e406b8f845b6cbf23e110e0000000000fdffffff01a226000000000000160014bbc929d578282030410cfaf2136be62fea7b7a7702473044022021921e6e3e5a7b09a55c3179b6f5d452aed7446d61ac05f361f8249e8b1be86302202800a25ff97b8a564d82f075414019adb6c35ed0c76e0f94e1e317544ceaa675012103651fbdcffaec001c1b6e21bd79b22252e32a07eb2a7dc01eb425f33c0e81377339bb0c00"
}