{
  "txid": "a3be5b6c843f8c9f87e38b02f182017072b3df459a1a7e3f227fbcdeb1373d1b",
  "version": 2,
  "locktime": 834637,
  "vin": [
    {
      "txid": "2e5dd132f996c9eeca24d4663f937e5e5935b896b1bb696930977cb0ed722e84",
      "vout": 1,
      "prevout": {
        "scriptpubkey": "76a9141135404b232bde6e8c9b149488af446955901a2988ac",
        "scriptpubkey_asm": "OP_DUP OP_HASH160 OP_PUSHBYTES_20 1135404b232bde6e8c9b149488af446955901a29 OP_EQUALVERIFY OP_CHECKSIG",
        "scriptpubkey_type": "p2pkh",
        "scriptpubkey_address": "12ZzHDWR8P5hxzUdw7heHiyrZ7UdVB6B6n",
        "value": 777300
      },
      "scriptsig": "47304402207d67cf984ed4993ddda9ef70616f4780bf2866611281d552373ecdfb6b1101f2022077e61dd896ae988d6665867f504a1d110540c92200e5cd405c74b15edab190f101210336cd6419f5d270153dfa16dc1ad8a7488fc1f1add70a4c61a69bdfe3c54269ed",
      "scriptsig_asm": "OP_PUSHBYTES_71 304402207d67cf984ed4993ddda9ef70616f4780bf2866611281d552373ecdfb6b1101f2022077e61dd896ae988d6665867f504a1d110540c92200e5cd405c74b15edab190f101 OP_PUSHBYTES_33 0336cd6419f5d270153dfa16dc1ad8a7488fc1f1add70a4c61a69bdfe3c54269ed",
      "is_coinbase": false,
      "sequence": 4294967293
    }
  ],
  "vout": [
    {
      "scriptpubkey": "00149105b5221a88b3cbea665a91825816878067d95c",
      "scriptpubkey_asm": "OP_0 OP_PUSHBYTES_20 9105b5221a88b3cbea665a91825816878067d95c",
      "scriptpubkey_type": "v0_p2wpkh",
      "scriptpubkey_address": "bc1qjyzm2gs63zeuh6nxt2gcykqks7qx0k2u9cudj4",
      "value": 100000
    },
    {
      "scriptpubkey": "76a9141135404b232bde6e8c9b149488af446955901a2988ac",
      "scriptpubkey_asm": "OP_DUP OP_HASH160 OP_PUSHBYTES_20 1135404b232bde6e8c9b149488af446955901a29 OP_EQUALVERIFY OP_CHECKSIG",
      "scriptpubkey_type": "p2pkh",
      "scriptpubkey_address": "12ZzHDWR8P5hxzUdw7heHiyrZ7UdVB6B6n",
      "value": 671200
    }
  ],
  "size": 222,
  "weight": 888,
  "fee": 6100,
  "status": {
    "confirmed": true,
    "block_height": 834638,
    "block_hash": "000000000000000000025f742c626208ac87e0b7d15054abb4a19ca2d735a54e",
    "block_time": 1710405325
  },
  "hex": "0200000001842e72edb07c97306969bbb196b835595e7e933f66d424caeec996f932d15d2e010000006a47304402207d67cf984ed4993ddda9ef70616f4780bf2866611281d552373ecdfb6b1101f2022077e61dd896ae988d6665867f504a1d110540c92200e5cd405c74b15edab190f101210336cd6419f5d270153dfa16dc1ad8a7488fc1f1add70a4c61a69bdfe3c54269edfdffffff02a0860100000000001600149105b5221a88b3cbea665a91825816878067d95ce03d0a00000000001976a9141135404b232bde6e8c9b149488af446955901a2988ac4dbc0c00"
}