{
  "txid": "a3c009dcf80fd5ab2116acc2a403459b777c2d4ba7e98cc92fc5d4c8afa7066a",
  "version": 2,
  "locktime": 0,
  "vin": [
    {
      "txid": "39a3ae27b84dddacc0944e4aeda19ae1d591f51b2ca0027c3c322c71fa24c466",
      "vout": 1,
      "prevout": {
        "scriptpubkey": "5120c8ef2b6bf8b5c941a59a042c68788bdfe655af342c8b999c1d0ddfecda04651f",
        "scriptpubkey_asm": "OP_PUSHNUM_1 OP_PUSHBYTES_32 c8ef2b6bf8b5c941a59a042c68788bdfe655af342c8b999c1d0ddfecda04651f",
        "scriptpubkey_type": "v1_p2tr",
        "scriptpubkey_address": "bc1perhjk6lckhy5rfv6qskxs7ytmln9tte59j9en8qaph07eksyv50sp6v644",
        "value": 546
      },
      "scriptsig": "",
      "scriptsig_asm": "",
      "witness": [
        "79711e82ce160ad31f641a1ca6f0f7bc99de7099399f4a8fea09b7b2e6f400843761cbe24acf76ba43054cf142cef4d2b9c99ee6ae56d6619b810699247aed6601"
      ],
      "is_coinbase": false,
      "sequence": 4294967295
    },
    {
      "txid": "8b56d8fdacaafc436d81cbffaf9f14beb219bb3bcb5757d42976786a3f5f1e2a",
      "vout": 2,
      "prevout": {
        "scriptpubkey": "0014e7cb1b98e6c68f5e545ce32db4b8c998ce8e34f4",
        "scriptpubkey_asm": "OP_0 OP_PUSHBYTES_20 e7cb1b98e6c68f5e545ce32db4b8c998ce8e34f4",
        "scriptpubkey_type": "v0_p2wpkh",
        "scriptpubkey_address": "bc1qul93hx8xc684u4zuuvkmfwxfnr8gud855nr94s",
        "value": 3475890
      },
      "scriptsig": "",
      "scriptsig_asm": "",
      "witness": [
        "3045022100867afbe32bee7dfc1bf6e5d64edad0500ab81c40e05c32f2916e707f1065d8f4022015e7da7bc88d0fe62ddc822606bf103ee69bd80658f66a3b0c5eeb45818590be01",
        "02e98e78af9053d57f46ac7c8ea19db1f010b9467f41f5d16dc68b51e011d4e582"
      ],
      "is_coinbase": false,
      "sequence": 4294967295
    }
  ],
  "vout": [
    {
      "scriptpubkey": "5120530c0da39bfb33ff873251f86a7410b03e3827058e882568e2eab910d657f3df",
      "scriptpubkey_asm": "OP_PUSHNUM_1 OP_PUSHBYTES_32 530c0da39bfb33ff873251f86a7410b03e3827058e882568e2eab910d657f3df",
      "scriptpubkey_type": "v1_p2tr",
      "scriptpubkey_address": "bc1p2vxqmgumlvellpej28ux5aqskqlrsfc936yz268za2u3p4jh700sj8kq48",
      "value": 546
    },
    {
      "scriptpubkey": "a9147c50a49f527653800d698ded4c752381a40d199087",
      "scriptpubkey_asm": "OP_HASH160 OP_PUSHBYTES_20 7c50a49f527653800d698ded4c752381a40d1990 OP_EQUAL",
      "scriptpubkey_type": "p2sh",
      "scriptpubkey_address": "3D2LKWSpRji4hx4Sk4K83CCPStzDuLDhgg",
      "value": 547
    },
    {
      "scriptpubkey": "a914ea6b832a05c6ca578baa3836f3f25553d41068a587",
      "scriptpubkey_asm": "OP_HASH160 OP_PUSHBYTES_20 ea6b832a05c6ca578baa3836f3f25553d41068a5 OP_EQUAL",
      "scriptpubkey_type": "p2sh",
      "scriptpubkey_address": "3P4WqXDbSLRhzo2H6MT6YFbvBKBDPLbVtQ",
      "value": 579
    },
    {
      "scriptpubkey": "0014e7cb1b98e6c68f5e545ce32db4b8c998ce8e34f4",
      "scriptpubkey_asm": "OP_0 OP_PUSHBYTES_20 e7cb1b98e6c68f5e545ce32db4b8c998ce8e34f4",
      "scriptpubkey_type": "v0_p2wpkh",
      "scriptpubkey_address": "bc1qul93hx8xc684u4zuuvkmfwxfnr8gud855nr94s",
      "value": 3470639
    }
  ],
  "size": 407,
  "weight": 1097,
  "fee": 4125,
  "status": {
    "confirmed": true,
    "block_height": 834638,
    "block_hash": "000000000000000000025f742c626208ac87e0b7d15054abb4a19ca2d735a54e",
    "block_time": 1710405325
  },
  "hex": "0200000000010266c424fa712c323c7c02a02c1bf591d5e19aa1ed4a4e94c0acdd4db827aea3390100000000ffffffff2a1e5f3f6a787629d45757cb3bbb19b2be149fafffcb816d43fcaaacfdd8568b0200000000ffffffff042202000000000000225120530c0da39bfb33ff873251f86a7410b03e3827058e882568e2eab910d657f3df230200000000000017a9147c50a49f527653800d698ded4c752381a40d199087430200000000000017a914ea6b832a05c6ca578baa3836f3f25553d41068a5872ff5340000000000160014e7cb1b98e6c68f5e545ce32db4b8c998ce8e34f4014179711e82ce160ad31f641a1ca6f0f7bc99de7099399f4a8fea09b7b2e6f400843761cbe24acf76ba43054cf142cef4d2b9c99ee6ae56d6619b810699247aed660102483045022100867afbe32bee7dfc1bf6e5d64edad0500ab81c40e05c32f2916e707f1065d8f4022015e7da7bc88d0fe62ddc822606bf103ee69bd80658f66a3b0c5eeb45818590be012102e98e78af9053d57f46ac7c8ea19db1f010b9467f41f5d16dc68b51e011d4e58200000000"
}