{
  "txid": "a3d3ac697f33ada49392469e66a14204de4464b23ddef2e6b4cdc212dc43bcab",
  "version": 2,
  "locktime": 834463,
  "vin": [
    {
      "txid": "7dbb6ab64f0650e68dce961315985ad01464a201b7b6401a71255d1a0b0f5c1d",
      "vout": 0,
      "prevout": {
        "scriptpubkey": "0014527036989a8804dc76bfb35cfbeef53fceedeeb5",
        "scriptpubkey_asm": "OP_0 OP_PUSHBYTES_20 527036989a8804dc76bfb35cfbeef53fceedeeb5",
        "scriptpubkey_type": "v0_p2wpkh",
        "scriptpubkey_address": "bc1q2fcrdxy63qzdca4lkdw0hmh48l8wmm44ujuhlz",
        "value": 1386390
      },
      "scriptsig": "",
      "scriptsig_asm": "",
      "witness": [
        "3044022077f411ccc44eef3aeccecfe668798516ee395c58871ab1fc76a3c4565fdfb9ab0220294b82101c968f03778c56fe0f150501a2d3b6b52458ea89236249f1304ff8d601",
        "029e739f8b6e732f14ed2c8736bdf824f59fc0ee7ef850f15abdfd45c3f6ffbdcc"
      ],
      "is_coinbase": false,
      "sequence": 4294967293
    }
  ],
  "vout": [
    {
      "scriptpubkey": "002020f5399c041d5de0c4afca52f46e81aba9dc175c30ac465cc50fe742240d315d",
      "scriptpubkey_asm": "OP_0 OP_PUSHBYTES_32 20f5399c041d5de0c4afca52f46e81aba9dc175c30ac465cc50fe742240d315d",
      "scriptpubkey_type": "v0_p2wsh",
      "scriptpubkey_address": "bc1qyr6nn8qyr4w7p390eff0gm5p4w5ac96uxzkyvhx9pln5yfqdx9wszdxjjr",
      "value": 1383401
    }
  ],
  "size": 203,
  "weight": 485,
  "fee": 2989,
  "status": {
    "confirmed": true,
    "block_height": 834464,
    "block_hash": "0000000000000000000177a0869a911a2b65c9bdcd5a8bcb02b68f305bee848e",
    "block_time": 1710308296
  },
  "hex": "020000000001011d5c0f0b1a5d25711a40b6b701a26414d05a98151396ce8de650064fb66abb7d0000000000fdffffff01e91b15000000000022002020f5399c041d5de0c4afca52f46e81aba9dc175c30ac465cc50fe742240d315d02473044022077f411ccc44eef3aeccecfe668798516ee395c58871ab1fc76a3c4565fdfb9ab0220294b82101c968f03778c56fe0f150501a2d3b6b52458ea89236249f1304ff8d60121029e739f8b6e732f14ed2c8736bdf824f59fc0ee7ef850f15abdfd45c3f6ffbdcc9fbb0c00"
}