{
  "txid": "a3d9038cfed203ab76d50dd9201380652b09fcccdd728b97dad2c0c5370fcbcb",
  "version": 1,
  "locktime": 0,
  "vin": [
    {
      "txid": "6bcf04327534deff4653505f5f6a908946945217b806d4f882cad7ba92a39e29",
      "vout": 1,
      "prevout": {
        "scriptpubkey": "76a9145feadcdf653efdef560f69a41f76e49377fc85d988ac",
        "scriptpubkey_asm": "OP_DUP OP_HASH160 OP_PUSHBYTES_20 5feadcdf653efdef560f69a41f76e49377fc85d9 OP_EQUALVERIFY OP_CHECKSIG",
        "scriptpubkey_type": "p2pkh",
        "scriptpubkey_address": "19kAYn26a7E8LkZqrjm7Et8WsvNQbqC6JX",
        "value": 2552
      },
      "scriptsig": "483045022100b7fcaef6937e07adfeda3cba57409d38781c5c25c621913663115b1f2bf31098022063c5834b145569040cb4ff058c08415516d27fa837d133ce8a387241604d13450121029dd7c6c246ff29899e9b76968ea7a9677e472d922cff984e77c483c180213f1f",
      "scriptsig_asm": "OP_PUSHBYTES_72 3045022100b7fcaef6937e07adfeda3cba57409d38781c5c25c621913663115b1f2bf31098022063c5834b145569040cb4ff058c08415516d27fa837d133ce8a387241604d134501 OP_PUSHBYTES_33 029dd7c6c246ff29899e9b76968ea7a9677e472d922cff984e77c483c180213f1f",
      "is_coinbase": false,
      "sequence": 4294967295
    },
    {
      "txid": "e02eafb8443ceb495c9e0aabc4fb9ced6f19b7f15ac8fa018b7e2f4b2b58515b",
      "vout": 1,
      "prevout": {
        "scriptpubkey": "76a914415a8241beccffb7d48ba84096a6e8aab8d7f40d88ac",
        "scriptpubkey_asm": "OP_DUP OP_HASH160 OP_PUSHBYTES_20 415a8241beccffb7d48ba84096a6e8aab8d7f40d OP_EQUALVERIFY OP_CHECKSIG",
        "scriptpubkey_type": "p2pkh",
        "scriptpubkey_address": "16xZM8eAvrgSjuWjixEPC66NKXFBi57Gep",
        "value": 5113
      },
      "scriptsig": "4830450221009c33fcde49d0e4bda78bb713d6316e0935444f938fe1697952870688454658470220283bc610251997d4486f88c8a76de38ffcb58ba8b0d9e502393f780d64327621012102f51ad1c695eb4ea4aadf88c8c9bd99957467296263cd05336766c39ea419a9f0",
      "scriptsig_asm": "OP_PUSHBYTES_72 30450221009c33fcde49d0e4bda78bb713d6316e0935444f938fe1697952870688454658470220283bc610251997d4486f88c8a76de38ffcb58ba8b0d9e502393f780d6432762101 OP_PUSHBYTES_33 02f51ad1c695eb4ea4aadf88c8c9bd99957467296263cd05336766c39ea419a9f0",
      "is_coinbase": false,
      "sequence": 4294967295
    },
    {
      "txid": "b60a3e91f94649d397bf75c1ff564870c1c3743d3328c5b211ad8abbf1cfd10c",
      "vout": 1,
      "prevout": {
        "scriptpubkey": "76a914415a8241beccffb7d48ba84096a6e8aab8d7f40d88ac",
        "scriptpubkey_asm": "OP_DUP OP_HASH160 OP_PUSHBYTES_20 415a8241beccffb7d48ba84096a6e8aab8d7f40d OP_EQUALVERIFY OP_CHECKSIG",
        "scriptpubkey_type": "p2pkh",
        "scriptpubkey_address": "16xZM8eAvrgSjuWjixEPC66NKXFBi57Gep",
        "value": 17006
      },
      "scriptsig": "473044022070836a43ed0e69f996540f437ecdff9402b4a08a7cab1bd075e4faf9dcfc22be02201109a5fbd71a3dd3f593af638433a986169d17d43f2a5022d8757bade0dc1dae012102f51ad1c695eb4ea4aadf88c8c9bd99957467296263cd05336766c39ea419a9f0",
      "scriptsig_asm": "OP_PUSHBYTES_71 3044022070836a43ed0e69f996540f437ecdff9402b4a08a7cab1bd075e4faf9dcfc22be02201109a5fbd71a3dd3f593af638433a986169d17d43f2a5022d8757bade0dc1dae01 OP_PUSHBYTES_33 02f51ad1c695eb4ea4aadf88c8c9bd99957467296263cd05336766c39ea419a9f0",
      "is_coinbase": false,
      "sequence": 4294967295
    }
  ],
  "vout": [
    {
      "scriptpubkey": "001461db6c16f6260380bcced571a0a87c100408a7d8",
      "scriptpubkey_asm": "OP_0 OP_PUSHBYTES_20 61db6c16f6260380bcced571a0a87c100408a7d8",
      "scriptpubkey_type": "v0_p2wpkh",
      "scriptpubkey_address": "bc1qv8dkc9hkycpcp0xw64c6p2ruzqzq3f7ch3dckn",
      "value": 19381
    }
  ],
  "size": 484,
  "weight": 1936,
  "fee": 5290,
  "status": {
    "confirmed": true,
    "block_height": 834464,
    "block_hash": "0000000000000000000177a0869a911a2b65c9bdcd5a8bcb02b68f305bee848e",
    "block_time": 1710308296
  },
  "hex": "0100000003299ea392bad7ca82f8d406b81752944689906a5f5f505346ffde34753204cf6b010000006b483045022100b7fcaef6937e07adfeda3cba57409d38781c5c25c621913663115b1f2bf31098022063c5834b145569040cb4ff058c08415516d27fa837d133ce8a387241604d13450121029dd7c6c246ff29899e9b76968ea7a9677e472d922cff984e77c483c180213f1fffffffff5b51582b4b2f7e8b01fac85af1b7196fed9cfbc4ab0a9e5c49eb3c44b8af2ee0010000006b4830450221009c33fcde49d0e4bda78bb713d6316e0935444f938fe1697952870688454658470220283bc610251997d4486f88c8a76de38ffcb58ba8b0d9e502393f780d64327621012102f51ad1c695eb4ea4aadf88c8c9bd99957467296263cd05336766c39ea419a9f0ffffffff0cd1cff1bb8aad11b2c528333d74c3c1704856ffc175bf97d34946f9913e0ab6010000006a473044022070836a43ed0e69f996540f437ecdff9402b4a08a7cab1bd075e4faf9dcfc22be02201109a5fbd71a3dd3f593af638433a986169d17d43f2a5022d8757bade0dc1dae012102f51ad1c695eb4ea4aadf88c8c9bd99957467296263cd05336766c39ea419a9f0ffffffff01b54b00000000000016001461db6c16f6260380bcced571a0a87c100408a7d800000000"
}