{
  "txid": "a3db1339103bfc259b5ef11a65b5670b8954b2d6d8196c4e6f1804575e39d976",
  "version": 1,
  "locktime": 0,
  "vin": [
    {
      "txid": "cc7bb809c7dd72c1c49ca9e01bac0c2e12fac88813d8275ab78711ddeaf40d84",
      "vout": 0,
      "prevout": {
        "scriptpubkey": "5120a6fdc2e9ff67c49be34fbca9f3d9ae6bdb0c6ac389488be13ed4c4f9a54150e8",
        "scriptpubkey_asm": "OP_PUSHNUM_1 OP_PUSHBYTES_32 a6fdc2e9ff67c49be34fbca9f3d9ae6bdb0c6ac389488be13ed4c4f9a54150e8",
        "scriptpubkey_type": "v1_p2tr",
        "scriptpubkey_address": "bc1p5m7u960lvlzfhc60hj5l8kdwd0dsc6kr39yghcf76nz0nf2p2r5q2rpkna",
        "value": 2568
      },
      "scriptsig": "",
      "scriptsig_asm": "",
      "witness": [
        "3d8a999862cb42d9121df2bac508063796781511199e6bda8206898737a0398a6ef2b15544761d0d4b3635b2c87a0535d359f918dc7d4360eeddf2da622c72bb83",
        "20be11f1d0580232188e877ef283eb5a1efd4e9e5290a2633605d666f59ad3fff2ac00630461746f6d03646d742ca16461726773a36b6d696e745f7469636b657263627463656e6f6e63651a00706cec6474696d651a65ef270768",
        "c1be11f1d0580232188e877ef283eb5a1efd4e9e5290a2633605d666f59ad3fff2"
      ],
      "is_coinbase": false,
      "sequence": 4294967293
    }
  ],
  "vout": [
    {
      "scriptpubkey": "51209d6dbbf9bad17d0135e06ea56ec304df985f9f9bc809fa52ae6789a0947e0300",
      "scriptpubkey_asm": "OP_PUSHNUM_1 OP_PUSHBYTES_32 9d6dbbf9bad17d0135e06ea56ec304df985f9f9bc809fa52ae6789a0947e0300",
      "scriptpubkey_type": "v1_p2tr",
      "scriptpubkey_address": "bc1pn4kmh7d6697szd0qd6jkascym7v9l8umeqyl554wv7y6p9r7qvqquzkndh",
      "value": 1000
    }
  ],
  "size": 289,
  "weight": 571,
  "fee": 1568,
  "status": {
    "confirmed": true,
    "block_height": 834464,
    "block_hash": "0000000000000000000177a0869a911a2b65c9bdcd5a8bcb02b68f305bee848e",
    "block_time": 1710308296
  },
  "hex": "01000000000101840df4eadd1187b75a27d81388c8fa122e0cac1be0a99cc4c172ddc709b87bcc0000000000fdffffff01e8030000000000002251209d6dbbf9bad17d0135e06ea56ec304df985f9f9bc809fa52ae6789a0947e030003413d8a999862cb42d9121df2bac508063796781511199e6bda8206898737a0398a6ef2b15544761d0d4b3635b2c87a0535d359f918dc7d4360eeddf2da622c72bb835b20be11f1d0580232188e877ef283eb5a1efd4e9e5290a2633605d666f59ad3fff2ac00630461746f6d03646d742ca16461726773a36b6d696e745f7469636b657263627463656e6f6e63651a00706cec6474696d651a65ef27076821c1be11f1d0580232188e877ef283eb5a1efd4e9e5290a2633605d666f59ad3fff200000000"
}