{
  "txid": "a3f2555889532f1bf1e71502605a316895b2f51314ec7ed6606df58cb1d2b5e5",
  "version": 1,
  "locktime": 0,
  "vin": [
    {
      "txid": "5f134953429dfeae5b30fdef7b68bb8babdefa80de4933b137f26c58dcafd195",
      "vout": 6,
      "prevout": {
        "scriptpubkey": "0014dbd287cd75d4e23f47f9210593ff68f518e8887c",
        "scriptpubkey_asm": "OP_0 OP_PUSHBYTES_20 dbd287cd75d4e23f47f9210593ff68f518e8887c",
        "scriptpubkey_type": "v0_p2wpkh",
        "scriptpubkey_address": "bc1qm0fg0nt46n3r73leyyze8lmg75vw3zru42rcc8",
        "value": 1523567
      },
      "scriptsig": "",
      "scriptsig_asm": "",
      "witness": [
        "304402207e9f12a6ef3dd3643539b67190705c2f83d4ccf62ff089c4d430ea034c06f216022066c288dcc6277c34023bf496493da78229b767deafbc5ba85099ffefdcf2a58401",
        "03b285642437b0eab2154179fbb02e786f30fec7bb6b338910785c39ec6992945d"
      ],
      "is_coinbase": false,
      "sequence": 4294967295
    }
  ],
  "vout": [
    {
      "scriptpubkey": "76a9144a854c5d1ee1ee60c863c44d7ab7b24b46003baf88ac",
      "scriptpubkey_asm": "OP_DUP OP_HASH160 OP_PUSHBYTES_20 4a854c5d1ee1ee60c863c44d7ab7b24b46003baf OP_EQUALVERIFY OP_CHECKSIG",
      "scriptpubkey_type": "p2pkh",
      "scriptpubkey_address": "17o2gvZPGtDgMsqNGF7NXCeK2HyNaJVGf5",
      "value": 1520516
    }
  ],
  "size": 194,
  "weight": 449,
  "fee": 3051,
  "status": {
    "confirmed": true,
    "block_height": 834638,
    "block_hash": "000000000000000000025f742c626208ac87e0b7d15054abb4a19ca2d735a54e",
    "block_time": 1710405325
  },
  "hex": "0100000000010195d1afdc586cf237b13349de80fadeab8bbb687beffd305baefe9d425349135f0600000000ffffffff0184331700000000001976a9144a854c5d1ee1ee60c863c44d7ab7b24b46003baf88ac0247304402207e9f12a6ef3dd3643539b67190705c2f83d4ccf62ff089c4d430ea034c06f216022066c288dcc6277c34023bf496493da78229b767deafbc5ba85099ffefdcf2a584012103b285642437b0eab2154179fbb02e786f30fec7bb6b338910785c39ec6992945d00000000"
}