{
  "txid": "a3f469286adc9e2496736c4f2e9dcd444c691e4d365b8b40eecbf848c0507c04",
  "version": 1,
  "locktime": 834637,
  "vin": [
    {
      "txid": "ec3e0989fdd2e60d338be953b28fa5ce08d5e1660e54e4c4caf7fb85f8c109c1",
      "vout": 0,
      "prevout": {
        "scriptpubkey": "00142b79dcbb746ff0169b312de1bff2901f0e1bec09",
        "scriptpubkey_asm": "OP_0 OP_PUSHBYTES_20 2b79dcbb746ff0169b312de1bff2901f0e1bec09",
        "scriptpubkey_type": "v0_p2wpkh",
        "scriptpubkey_address": "bc1q9duaewm5dlcpdxe39hsmlu5sru8phmqf75vctc",
        "value": 103000
      },
      "scriptsig": "",
      "scriptsig_asm": "",
      "witness": [
        "3044022000b9134a53245b46ae9045402008f6f032dad983ce8a551615f1707951f762d00220758da3b43c5fab6cd378d65fe70fdd7779ce62b31b66fc39c1666abc255f1dff01",
        "036eebdf1b05ee8257c81a74643288f61d257ba3661733bc825273d3aaf123e522"
      ],
      "is_coinbase": false,
      "sequence": 4294967293
    }
  ],
  "vout": [
    {
      "scriptpubkey": "0014a4601e658f725d12becf863688a91fb0a1cabbba",
      "scriptpubkey_asm": "OP_0 OP_PUSHBYTES_20 a4601e658f725d12becf863688a91fb0a1cabbba",
      "scriptpubkey_type": "v0_p2wpkh",
      "scriptpubkey_address": "bc1q53spuev0wfw390k0scmg32glkzsu4wa6ezjujn",
      "value": 100000
    }
  ],
  "size": 191,
  "weight": 437,
  "fee": 3000,
  "status": {
    "confirmed": true,
    "block_height": 834638,
    "block_hash": "000000000000000000025f742c626208ac87e0b7d15054abb4a19ca2d735a54e",
    "block_time": 1710405325
  },
  "hex": "01000000000101c109c1f885fbf7cac4e4540e66e1d508cea58fb253e98b330de6d2fd89093eec0000000000fdffffff01a086010000000000160014a4601e658f725d12becf863688a91fb0a1cabbba02473044022000b9134a53245b46ae9045402008f6f032dad983ce8a551615f1707951f762d00220758da3b43c5fab6cd378d65fe70fdd7779ce62b31b66fc39c1666abc255f1dff0121036eebdf1b05ee8257c81a74643288f61d257ba3661733bc825273d3aaf123e5224dbc0c00"
}