{
  "txid": "a4001d94a9233f037712b7f35de31b84134acf74f411059e9188bc8f2cf3b768",
  "version": 2,
  "locktime": 0,
  "vin": [
    {
      "txid": "d14835d9b06b9392a6470d428dcdded6885fb6d9853b9f530852d7b45086de9a",
      "vout": 1,
      "prevout": {
        "scriptpubkey": "76a9140c18a16e68e17ca1ac4c9a6c75134764ba9866e088ac",
        "scriptpubkey_asm": "OP_DUP OP_HASH160 OP_PUSHBYTES_20 0c18a16e68e17ca1ac4c9a6c75134764ba9866e0 OP_EQUALVERIFY OP_CHECKSIG",
        "scriptpubkey_type": "p2pkh",
        "scriptpubkey_address": "126xcfbVw9ir8CzbKNmpsKMfDgpXaxeXnA",
        "value": 830641
      },
      "scriptsig": "47304402202afc71db1f43c09b38eec2e3f3b643aeab61715c02b598fe219502d3c7eb471c02205e933cdd056cd061278a725e9c077eb85519e8f78caf3cfdd843caf72cbdb6ce012102db1ff29f6847ef7ae234bb3beacf09fed9cb6cf71f0a25960f76faa7b8e194f8",
      "scriptsig_asm": "OP_PUSHBYTES_71 304402202afc71db1f43c09b38eec2e3f3b643aeab61715c02b598fe219502d3c7eb471c02205e933cdd056cd061278a725e9c077eb85519e8f78caf3cfdd843caf72cbdb6ce01 OP_PUSHBYTES_33 02db1ff29f6847ef7ae234bb3beacf09fed9cb6cf71f0a25960f76faa7b8e194f8",
      "is_coinbase": false,
      "sequence": 4294967293
    }
  ],
  "vout": [
    {
      "scriptpubkey": "76a9149bfc96b71c5cff28189806d9b638f0e3106b727b88ac",
      "scriptpubkey_asm": "OP_DUP OP_HASH160 OP_PUSHBYTES_20 9bfc96b71c5cff28189806d9b638f0e3106b727b OP_EQUALVERIFY OP_CHECKSIG",
      "scriptpubkey_type": "p2pkh",
      "scriptpubkey_address": "1FDnKuaKtJbmgq6KU9Tn1dBfAb5SuzCEd2",
      "value": 200000
    },
    {
      "scriptpubkey": "76a9140c18a16e68e17ca1ac4c9a6c75134764ba9866e088ac",
      "scriptpubkey_asm": "OP_DUP OP_HASH160 OP_PUSHBYTES_20 0c18a16e68e17ca1ac4c9a6c75134764ba9866e0 OP_EQUALVERIFY OP_CHECKSIG",
      "scriptpubkey_type": "p2pkh",
      "scriptpubkey_address": "126xcfbVw9ir8CzbKNmpsKMfDgpXaxeXnA",
      "value": 622428
    }
  ],
  "size": 225,
  "weight": 900,
  "fee": 8213,
  "status": {
    "confirmed": true,
    "block_height": 834464,
    "block_hash": "0000000000000000000177a0869a911a2b65c9bdcd5a8bcb02b68f305bee848e",
    "block_time": 1710308296
  },
  "hex": "02000000019ade8650b4d75208539f3b85d9b65f88d6decd8d420d47a692936bb0d93548d1010000006a47304402202afc71db1f43c09b38eec2e3f3b643aeab61715c02b598fe219502d3c7eb471c02205e933cdd056cd061278a725e9c077eb85519e8f78caf3cfdd843caf72cbdb6ce012102db1ff29f6847ef7ae234bb3beacf09fed9cb6cf71f0a25960f76faa7b8e194f8fdffffff02400d0300000000001976a9149bfc96b71c5cff28189806d9b638f0e3106b727b88ac5c7f0900000000001976a9140c18a16e68e17ca1ac4c9a6c75134764ba9866e088ac00000000"
}