{
  "txid": "a4010714cb1ef94d5a42d0800c5ad314f937617c5a7c384399b875c650246db4",
  "version": 2,
  "locktime": 0,
  "vin": [
    {
      "txid": "81459d4d4df2d14e52491ac9ac273396cb35f9a1af249daa335aa0c3f47c8a23",
      "vout": 0,
      "prevout": {
        "scriptpubkey": "0014ee91acab2e1ce03285ff0a2fe7fac67e288dedd7",
        "scriptpubkey_asm": "OP_0 OP_PUSHBYTES_20 ee91acab2e1ce03285ff0a2fe7fac67e288dedd7",
        "scriptpubkey_type": "v0_p2wpkh",
        "scriptpubkey_address": "bc1qa6g6e2ewrnsr9p0lpgh707kx0c5gmmwhmpk622",
        "value": 88846
      },
      "scriptsig": "",
      "scriptsig_asm": "",
      "witness": [
        "30450221009b596d37e6ac89828a33bd3731112f489bd6496af0a9f82a152610996a0b2f9b02207a3e95d6f80182b90c66c9d65be91b82dc8315b9a03de5cbccca7efc4c1d8b1f01",
        "02ceab59b3fa0d32e23713a7a8e788c3403643672d4b731873720f511091cadfe7"
      ],
      "is_coinbase": false,
      "sequence": 4294967295
    }
  ],
  "vout": [
    {
      "scriptpubkey": "001448dfa704897f78fdfbc2b9534055dd9b219ef5a8",
      "scriptpubkey_asm": "OP_0 OP_PUSHBYTES_20 48dfa704897f78fdfbc2b9534055dd9b219ef5a8",
      "scriptpubkey_type": "v0_p2wpkh",
      "scriptpubkey_address": "bc1qfr06wpyf0au0m77zh9f5q4wanvseaadgq9qhf9",
      "value": 12465
    },
    {
      "scriptpubkey": "0014ee91acab2e1ce03285ff0a2fe7fac67e288dedd7",
      "scriptpubkey_asm": "OP_0 OP_PUSHBYTES_20 ee91acab2e1ce03285ff0a2fe7fac67e288dedd7",
      "scriptpubkey_type": "v0_p2wpkh",
      "scriptpubkey_address": "bc1qa6g6e2ewrnsr9p0lpgh707kx0c5gmmwhmpk622",
      "value": 74689
    }
  ],
  "size": 223,
  "weight": 562,
  "fee": 1692,
  "status": {
    "confirmed": true,
    "block_height": 834460,
    "block_hash": "00000000000000000000484a79b643b2524bbce82e5d8a442013fa5b8905ed98",
    "block_time": 1710307468
  },
  "hex": "02000000000101238a7cf4c3a05a33aa9d24afa1f935cb963327acc91a49524ed1f24d4d9d45810000000000ffffffff02b13000000000000016001448dfa704897f78fdfbc2b9534055dd9b219ef5a8c123010000000000160014ee91acab2e1ce03285ff0a2fe7fac67e288dedd7024830450221009b596d37e6ac89828a33bd3731112f489bd6496af0a9f82a152610996a0b2f9b02207a3e95d6f80182b90c66c9d65be91b82dc8315b9a03de5cbccca7efc4c1d8b1f012102ceab59b3fa0d32e23713a7a8e788c3403643672d4b731873720f511091cadfe700000000"
}