{
  "txid": "a407b187e8bb9d07a2fc0800394007cbca0de39896b14c67dd99501c3407f9df",
  "version": 1,
  "locktime": 0,
  "vin": [
    {
      "txid": "72b701eb4e0e30f7a60524033d1a097660ee739485ed94c3250b1ce180b43c90",
      "vout": 1,
      "prevout": {
        "scriptpubkey": "a91469bba8105513f013fba732fcef8dd9bca960202b87",
        "scriptpubkey_asm": "OP_HASH160 OP_PUSHBYTES_20 69bba8105513f013fba732fcef8dd9bca960202b OP_EQUAL",
        "scriptpubkey_type": "p2sh",
        "scriptpubkey_address": "3BL5gHfQUgUgy2BWyMTHL5osXbds8ykgWg",
        "value": 7856201
      },
      "scriptsig": "220020969bd09a9157e834bcae30ae1a991e6b9d496176bbce0a42865ec7d55c51cee3",
      "scriptsig_asm": "OP_PUSHBYTES_34 0020969bd09a9157e834bcae30ae1a991e6b9d496176bbce0a42865ec7d55c51cee3",
      "witness": [
        "",
        "304502210089332bdfaf7e62fe2480952011701498846a6a9d12f03343f510f73757d150f502202df244375c11f7e7660af05d53c8df3dbb6bcbc78cbb939e78c651654643dbb701",
        "3044022065fccbff78f99db5c145d956c4fbde5c585ee679595ed077bbcd815a1541f378022019f5e70d5789896ed646ad495c2777455883aabd9462c00d925b7b6c501b7f7501",
        "522102e408950d2680419a6c11b9d2822dfbe392dcbacabed0ebe791f6b52dfc3f66942103148b07c8cc581e0430f060cd2852d8c9d54ef10c1fd5aaf4bd1b4f964bc90d5d2103d2b530370f37fe2aa96d73848ffde01360b3d7228ab1d6f69642208a8349f15a53ae"
      ],
      "is_coinbase": false,
      "sequence": 4294967293,
      "inner_redeemscript_asm": "OP_0 OP_PUSHBYTES_32 969bd09a9157e834bcae30ae1a991e6b9d496176bbce0a42865ec7d55c51cee3",
      "inner_witnessscript_asm": "OP_PUSHNUM_2 OP_PUSHBYTES_33 02e408950d2680419a6c11b9d2822dfbe392dcbacabed0ebe791f6b52dfc3f6694 OP_PUSHBYTES_33 03148b07c8cc581e0430f060cd2852d8c9d54ef10c1fd5aaf4bd1b4f964bc90d5d OP_PUSHBYTES_33 03d2b530370f37fe2aa96d73848ffde01360b3d7228ab1d6f69642208a8349f15a OP_PUSHNUM_3 OP_CHECKMULTISIG"
    },
    {
      "txid": "f6002d0f850cd7eb9b6ec030c72ba6aad354f75043d8d8e3f98ed14ed0cd219f",
      "vout": 1,
      "prevout": {
        "scriptpubkey": "00202f18861803e6063a82c28217568c6d3c99cd775b14fa4b09fd2ef4d6d3ff2cea",
        "scriptpubkey_asm": "OP_0 OP_PUSHBYTES_32 2f18861803e6063a82c28217568c6d3c99cd775b14fa4b09fd2ef4d6d3ff2cea",
        "scriptpubkey_type": "v0_p2wsh",
        "scriptpubkey_address": "bc1q9uvgvxqrucrr4qkzsgt4drrd8jvu6a6mznaykz0a9m6dd5ll9n4qa3efzg",
        "value": 1449906
      },
      "scriptsig": "",
      "scriptsig_asm": "",
      "witness": [
        "",
        "304402207abb7f4c73f7536d0b7646dca226c7c68a0d6c78fd802d7008a7705fdb001c4a022007108860e05860a81b9dca5e959a2672e7db585de1b9170229a24ea810eadfae01",
        "3044022040e54e4802885bc2b6dd58f6d8d5d70ada105fcccfe884c7b77cf5541bc1f7e70220736879f8f9f70f93a08785f269c52fb10c534874b6562247fe4ea85541b20d9501",
        "52210214420f03ba7086a83d7c5e50ee15b9943913d89a53d6637508cc5e3856c946bd21039130ee00288023d24376c4d16785ac4ab027377300090ccb15e7a37c277c0a70210358b4af0168e66c644eebca3c167aa3f346ba020fe6c12b01a93cf39358b56ea453ae"
      ],
      "is_coinbase": false,
      "sequence": 4294967293,
      "inner_witnessscript_asm": "OP_PUSHNUM_2 OP_PUSHBYTES_33 0214420f03ba7086a83d7c5e50ee15b9943913d89a53d6637508cc5e3856c946bd OP_PUSHBYTES_33 039130ee00288023d24376c4d16785ac4ab027377300090ccb15e7a37c277c0a70 OP_PUSHBYTES_33 0358b4af0168e66c644eebca3c167aa3f346ba020fe6c12b01a93cf39358b56ea4 OP_PUSHNUM_3 OP_CHECKMULTISIG"
    }
  ],
  "vout": [
    {
      "scriptpubkey": "5120fb0835583f8a952e265c2098d997ef9aed877b29c2c8dbb92c3687b2f44a36a3",
      "scriptpubkey_asm": "OP_PUSHNUM_1 OP_PUSHBYTES_32 fb0835583f8a952e265c2098d997ef9aed877b29c2c8dbb92c3687b2f44a36a3",
      "scriptpubkey_type": "v1_p2tr",
      "scriptpubkey_address": "bc1plvyr2kpl322jufjuyzvdn9l0ntkcw7efctydhwfvx6rm9az2x63s0hwnsr",
      "value": 17982
    },
    {
      "scriptpubkey": "00203dba9dd78f7f84f2b5cbaa94457b114a6b6573de6b08750a431a9c16e72856db",
      "scriptpubkey_asm": "OP_0 OP_PUSHBYTES_32 3dba9dd78f7f84f2b5cbaa94457b114a6b6573de6b08750a431a9c16e72856db",
      "scriptpubkey_type": "v0_p2wsh",
      "scriptpubkey_address": "bc1q8kafm4u007z09dwt422y27c3ff4k2u77dvy82zjrr2wpdeeg2mdsmcf4va",
      "value": 2086919
    },
    {
      "scriptpubkey": "0014280c7cdb3062bb1fbbecc333acc5870832705365",
      "scriptpubkey_asm": "OP_0 OP_PUSHBYTES_20 280c7cdb3062bb1fbbecc333acc5870832705365",
      "scriptpubkey_type": "v0_p2wpkh",
      "scriptpubkey_address": "bc1q9qx8ekesv2a3lwlvcve6e3v8pqe8q5m9yn96fz",
      "value": 7193000
    }
  ],
  "size": 751,
  "weight": 1483,
  "fee": 8206,
  "status": {
    "confirmed": true,
    "block_height": 834638,
    "block_hash": "000000000000000000025f742c626208ac87e0b7d15054abb4a19ca2d735a54e",
    "block_time": 1710405325
  },
  "hex": "01000000000102903cb480e11c0b25c394ed859473ee6076091a3d032405a6f7300e4eeb01b7720100000023220020969bd09a9157e834bcae30ae1a991e6b9d496176bbce0a42865ec7d55c51cee3fdffffff9f21cdd04ed18ef9e3d8d84350f754d3aaa62bc730c06e9bebd70c850f2d00f60100000000fdffffff033e46000000000000225120fb0835583f8a952e265c2098d997ef9aed877b29c2c8dbb92c3687b2f44a36a307d81f00000000002200203dba9dd78f7f84f2b5cbaa94457b114a6b6573de6b08750a431a9c16e72856dba8c16d0000000000160014280c7cdb3062bb1fbbecc333acc5870832705365040048304502210089332bdfaf7e62fe2480952011701498846a6a9d12f03343f510f73757d150f502202df244375c11f7e7660af05d53c8df3dbb6bcbc78cbb939e78c651654643dbb701473044022065fccbff78f99db5c145d956c4fbde5c585ee679595ed077bbcd815a1541f378022019f5e70d5789896ed646ad495c2777455883aabd9462c00d925b7b6c501b7f750169522102e408950d2680419a6c11b9d2822dfbe392dcbacabed0ebe791f6b52dfc3f66942103148b07c8cc581e0430f060cd2852d8c9d54ef10c1fd5aaf4bd1b4f964bc90d5d2103d2b530370f37fe2aa96d73848ffde01360b3d7228ab1d6f69642208a8349f15a53ae040047304402207abb7f4c73f7536d0b7646dca226c7c68a0d6c78fd802d7008a7705fdb001c4a022007108860e05860a81b9dca5e959a2672e7db585de1b9170229a24ea810eadfae01473044022040e54e4802885bc2b6dd58f6d8d5d70ada105fcccfe884c7b77cf5541bc1f7e70220736879f8f9f70f93a08785f269c52fb10c534874b6562247fe4ea85541b20d95016952210214420f03ba7086a83d7c5e50ee15b9943913d89a53d6637508cc5e3856c946bd21039130ee00288023d24376c4d16785ac4ab027377300090ccb15e7a37c277c0a70210358b4af0168e66c644eebca3c167aa3f346ba020fe6c12b01a93cf39358b56ea453ae00000000"
}