{
  "txid": "a40bff04419e0198de71be67293d6098119f76bdc9111f56f45fd7774239a8c7",
  "version": 2,
  "locktime": 0,
  "vin": [
    {
      "txid": "72d8e5c72ff375443c8aa5e2d655d2823367f0f1193142f5d94fcca90e5f2dfa",
      "vout": 1,
      "prevout": {
        "scriptpubkey": "0014386bea701ac574e742684435df3e56273820ebd2",
        "scriptpubkey_asm": "OP_0 OP_PUSHBYTES_20 386bea701ac574e742684435df3e56273820ebd2",
        "scriptpubkey_type": "v0_p2wpkh",
        "scriptpubkey_address": "bc1q8p475uq6c46wwsnggs6a70jkyuuzp67j50qddy",
        "value": 31141730
      },
      "scriptsig": "",
      "scriptsig_asm": "",
      "witness": [
        "304402206390fb9ebaaa65adc3fbb762248b59b571cfa46a6b870f6259539939b7fb84820220488affe7f406a142fd8909059f7b73a3cecc9f5508f71616156a35bc0ad368fa01",
        "02f7b560f3d8b80c6736898493f18f323830f65ff1b93f43ba62d01b7d460edc80"
      ],
      "is_coinbase": false,
      "sequence": 4294967293
    }
  ],
  "vout": [
    {
      "scriptpubkey": "0014800f5738700d4663be6b528e3271e6410358813c",
      "scriptpubkey_asm": "OP_0 OP_PUSHBYTES_20 800f5738700d4663be6b528e3271e6410358813c",
      "scriptpubkey_type": "v0_p2wpkh",
      "scriptpubkey_address": "bc1qsq84wwrsp4rx80nt228ryu0xgyp43qfu8fley3",
      "value": 26442335
    },
    {
      "scriptpubkey": "001436e33942d8672a6c34dfae00d5ce208ade5ec5cb",
      "scriptpubkey_asm": "OP_0 OP_PUSHBYTES_20 36e33942d8672a6c34dfae00d5ce208ade5ec5cb",
      "scriptpubkey_type": "v0_p2wpkh",
      "scriptpubkey_address": "bc1qxm3njskcvu4xcdxl4cqdtn3q3t09a3wtgpas04",
      "value": 4697280
    }
  ],
  "size": 222,
  "weight": 561,
  "fee": 2115,
  "status": {
    "confirmed": true,
    "block_height": 834638,
    "block_hash": "000000000000000000025f742c626208ac87e0b7d15054abb4a19ca2d735a54e",
    "block_time": 1710405325
  },
  "hex": "02000000000101fa2d5f0ea9cc4fd9f5423119f1f0673382d255d6e2a58a3c4475f32fc7e5d8720100000000fdffffff025f7a930100000000160014800f5738700d4663be6b528e3271e6410358813cc0ac47000000000016001436e33942d8672a6c34dfae00d5ce208ade5ec5cb0247304402206390fb9ebaaa65adc3fbb762248b59b571cfa46a6b870f6259539939b7fb84820220488affe7f406a142fd8909059f7b73a3cecc9f5508f71616156a35bc0ad368fa012102f7b560f3d8b80c6736898493f18f323830f65ff1b93f43ba62d01b7d460edc8000000000"
}