{
  "txid": "a41a28f7e42bdaf72848ad408e8c6d2555275019d3a6391f24f54335b202c350",
  "version": 1,
  "locktime": 0,
  "vin": [
    {
      "txid": "a20803a90dd53c1a8818de121858dfa697cf3aa97d698af053d811b183e561a0",
      "vout": 1,
      "prevout": {
        "scriptpubkey": "001486629142e94780bb5e2ad13659eaf0cb22abd270",
        "scriptpubkey_asm": "OP_0 OP_PUSHBYTES_20 86629142e94780bb5e2ad13659eaf0cb22abd270",
        "scriptpubkey_type": "v0_p2wpkh",
        "scriptpubkey_address": "bc1qse3fzshfg7qtkh326ym9n6hsev32h5nsezdw86",
        "value": 482089
      },
      "scriptsig": "",
      "scriptsig_asm": "",
      "witness": [
        "3044022038948f18dcdacb09c125e690adec4102b1fbc403a36b7314b1f1f3b695982e6a02205905d292d18120b27ff1e4602c52f05d54ebf5be1e728fe059a0b31645e1773f01",
        "03feeeaeaac05424d2885ad5d48112cde98e7f204e8ec95014face01069f866b13"
      ],
      "is_coinbase": false,
      "sequence": 4294967295
    }
  ],
  "vout": [
    {
      "scriptpubkey": "0014156011b910bc2222973866f31e14bc540c8b7d9f",
      "scriptpubkey_asm": "OP_0 OP_PUSHBYTES_20 156011b910bc2222973866f31e14bc540c8b7d9f",
      "scriptpubkey_type": "v0_p2wpkh",
      "scriptpubkey_address": "bc1qz4sprwgshs3z99ecvme3u99u2sxgklvl6jhkyr",
      "value": 272393
    },
    {
      "scriptpubkey": "0014e46dfb027a8da5a8e11de5aa4d0f510bb7cde6fd",
      "scriptpubkey_asm": "OP_0 OP_PUSHBYTES_20 e46dfb027a8da5a8e11de5aa4d0f510bb7cde6fd",
      "scriptpubkey_type": "v0_p2wpkh",
      "scriptpubkey_address": "bc1qu3klkqn63kj63cgauk4y6r63pwmumeha6arz9r",
      "value": 206312
    }
  ],
  "size": 222,
  "weight": 561,
  "fee": 3384,
  "status": {
    "confirmed": true,
    "block_height": 834638,
    "block_hash": "000000000000000000025f742c626208ac87e0b7d15054abb4a19ca2d735a54e",
    "block_time": 1710405325
  },
  "hex": "01000000000101a061e583b111d853f08a697da93acf97a6df581812de18881a3cd50da90308a20100000000ffffffff020928040000000000160014156011b910bc2222973866f31e14bc540c8b7d9fe825030000000000160014e46dfb027a8da5a8e11de5aa4d0f510bb7cde6fd02473044022038948f18dcdacb09c125e690adec4102b1fbc403a36b7314b1f1f3b695982e6a02205905d292d18120b27ff1e4602c52f05d54ebf5be1e728fe059a0b31645e1773f012103feeeaeaac05424d2885ad5d48112cde98e7f204e8ec95014face01069f866b1300000000"
}