{
  "txid": "a41a71b722b6bc720a22398c179216434f5a3d09a872472397a1a97e4d506fde",
  "version": 2,
  "locktime": 0,
  "vin": [
    {
      "txid": "10fcd003e17877bc72c9cdfdb0d80c82626fb7ea777978325ec3bcfff1bbbfca",
      "vout": 0,
      "prevout": {
        "scriptpubkey": "5120ad2f454063c07edc0f20890ac09e93c284f3adf33ab068d2de3fb64d82478d37",
        "scriptpubkey_asm": "OP_PUSHNUM_1 OP_PUSHBYTES_32 ad2f454063c07edc0f20890ac09e93c284f3adf33ab068d2de3fb64d82478d37",
        "scriptpubkey_type": "v1_p2tr",
        "scriptpubkey_address": "bc1p45h52srrcpldcreq3y9vp85nc2z08t0n82cx35k787mymqj835mskywupp",
        "value": 546
      },
      "scriptsig": "",
      "scriptsig_asm": "",
      "witness": [
        "ea686d2b39b22e96323aadf99f963dbe2eed1151073ed044b6d02a31a0704ffdc4cfb67759015f67247ddd8f3a266a49b4cc67f8e06c5cae8bf9a40dfce1e73a"
      ],
      "is_coinbase": false,
      "sequence": 2147483649
    },
    {
      "txid": "25e5e60e27c13950dee6aa2c8501fd3b3c353073ae4aae3b7f94bc0e6bb30d94",
      "vout": 50,
      "prevout": {
        "scriptpubkey": "5120ad2f454063c07edc0f20890ac09e93c284f3adf33ab068d2de3fb64d82478d37",
        "scriptpubkey_asm": "OP_PUSHNUM_1 OP_PUSHBYTES_32 ad2f454063c07edc0f20890ac09e93c284f3adf33ab068d2de3fb64d82478d37",
        "scriptpubkey_type": "v1_p2tr",
        "scriptpubkey_address": "bc1p45h52srrcpldcreq3y9vp85nc2z08t0n82cx35k787mymqj835mskywupp",
        "value": 189124
      },
      "scriptsig": "",
      "scriptsig_asm": "",
      "witness": [
        "63a2e71d3f920ae35ff70a9ed9fe360008f2be49bf3a810888f02c2aed004abffa78012323694cd9b0ada8c80bc2df16881a5c73b9d12ef8fa33c20ca726f570"
      ],
      "is_coinbase": false,
      "sequence": 2147483649
    }
  ],
  "vout": [
    {
      "scriptpubkey": "00145f0ccddd133a8de48acd798676a1c95c04e87321",
      "scriptpubkey_asm": "OP_0 OP_PUSHBYTES_20 5f0ccddd133a8de48acd798676a1c95c04e87321",
      "scriptpubkey_type": "v0_p2wpkh",
      "scriptpubkey_address": "bc1qtuxvmhgn82x7fzkd0xr8dgwftszwsueprsyfng",
      "value": 546
    },
    {
      "scriptpubkey": "5120ad2f454063c07edc0f20890ac09e93c284f3adf33ab068d2de3fb64d82478d37",
      "scriptpubkey_asm": "OP_PUSHNUM_1 OP_PUSHBYTES_32 ad2f454063c07edc0f20890ac09e93c284f3adf33ab068d2de3fb64d82478d37",
      "scriptpubkey_type": "v1_p2tr",
      "scriptpubkey_address": "bc1p45h52srrcpldcreq3y9vp85nc2z08t0n82cx35k787mymqj835mskywupp",
      "value": 186139
    }
  ],
  "size": 300,
  "weight": 798,
  "fee": 2985,
  "status": {
    "confirmed": true,
    "block_height": 834460,
    "block_hash": "00000000000000000000484a79b643b2524bbce82e5d8a442013fa5b8905ed98",
    "block_time": 1710307468
  },
  "hex": "02000000000102cabfbbf1ffbcc35e32787977eab76f62820cd8b0fdcdc972bc7778e103d0fc10000000000001000080940db36b0ebc947f3bae4aae7330353c3bfd01852caae6de5039c1270ee6e5253200000000010000800222020000000000001600145f0ccddd133a8de48acd798676a1c95c04e873211bd7020000000000225120ad2f454063c07edc0f20890ac09e93c284f3adf33ab068d2de3fb64d82478d370140ea686d2b39b22e96323aadf99f963dbe2eed1151073ed044b6d02a31a0704ffdc4cfb67759015f67247ddd8f3a266a49b4cc67f8e06c5cae8bf9a40dfce1e73a014063a2e71d3f920ae35ff70a9ed9fe360008f2be49bf3a810888f02c2aed004abffa78012323694cd9b0ada8c80bc2df16881a5c73b9d12ef8fa33c20ca726f57000000000"
}