{
  "txid": "a4321af89ddc566b7c0cfdd53202ad13795809ceada3a7df41dc1f45d912517e",
  "version": 2,
  "locktime": 0,
  "vin": [
    {
      "txid": "5f29e9fe87a7d705d56bf3d2bc31b399145559292095c3e43d89fc53f329403c",
      "vout": 1,
      "prevout": {
        "scriptpubkey": "0014b12a255b419b46c01324705abea5fd2949f55051",
        "scriptpubkey_asm": "OP_0 OP_PUSHBYTES_20 b12a255b419b46c01324705abea5fd2949f55051",
        "scriptpubkey_type": "v0_p2wpkh",
        "scriptpubkey_address": "bc1qky4z2k6pndrvqyeywpdtaf0a99yl25z3zp84r6",
        "value": 83534
      },
      "scriptsig": "",
      "scriptsig_asm": "",
      "witness": [
        "3045022100c06404984f35a97be47236a8231dba26fee484af45f4c8fd91690695e781bdab022011d73bf8297dac545f84da7cede93fa6c30ed163be9a81943e2f2573a33dbdfb01",
        "03ea146609fa0d935732983ad192ef905e8ff1410b50cd121a765068933a81f337"
      ],
      "is_coinbase": false,
      "sequence": 4294967295
    }
  ],
  "vout": [
    {
      "scriptpubkey": "5120802a19bc0e49157a4cdd9a8c8db603d8a6c554bf065c91710c78ff84a18926fe",
      "scriptpubkey_asm": "OP_PUSHNUM_1 OP_PUSHBYTES_32 802a19bc0e49157a4cdd9a8c8db603d8a6c554bf065c91710c78ff84a18926fe",
      "scriptpubkey_type": "v1_p2tr",
      "scriptpubkey_address": "bc1psq4pn0qwfy2h5nxan2xgmdsrmznv249lqewfzugv0rlcfgvfymlqqd2utl",
      "value": 64600
    },
    {
      "scriptpubkey": "0014b12a255b419b46c01324705abea5fd2949f55051",
      "scriptpubkey_asm": "OP_0 OP_PUSHBYTES_20 b12a255b419b46c01324705abea5fd2949f55051",
      "scriptpubkey_type": "v0_p2wpkh",
      "scriptpubkey_address": "bc1qky4z2k6pndrvqyeywpdtaf0a99yl25z3zp84r6",
      "value": 16945
    }
  ],
  "size": 235,
  "weight": 610,
  "fee": 1989,
  "status": {
    "confirmed": true,
    "block_height": 834460,
    "block_hash": "00000000000000000000484a79b643b2524bbce82e5d8a442013fa5b8905ed98",
    "block_time": 1710307468
  },
  "hex": "020000000001013c4029f353fc893de4c395202959551499b331bcd2f36bd505d7a787fee9295f0100000000ffffffff0258fc000000000000225120802a19bc0e49157a4cdd9a8c8db603d8a6c554bf065c91710c78ff84a18926fe3142000000000000160014b12a255b419b46c01324705abea5fd2949f5505102483045022100c06404984f35a97be47236a8231dba26fee484af45f4c8fd91690695e781bdab022011d73bf8297dac545f84da7cede93fa6c30ed163be9a81943e2f2573a33dbdfb012103ea146609fa0d935732983ad192ef905e8ff1410b50cd121a765068933a81f33700000000"
}