{
  "txid": "a43af7842b317c82776283341a9047073e802a12ce4cd65cf6c5a7759cedfe56",
  "version": 2,
  "locktime": 0,
  "vin": [
    {
      "txid": "e4ad721779378d57c87ab3b239e0f782f82b2d2a8035545188a0ab10be3bec35",
      "vout": 1,
      "prevout": {
        "scriptpubkey": "5120d84c2bd7b569c0bbda740e0d1f83ced8f9bd7e513f7e3b2dd23ba8410914ac84",
        "scriptpubkey_asm": "OP_PUSHNUM_1 OP_PUSHBYTES_32 d84c2bd7b569c0bbda740e0d1f83ced8f9bd7e513f7e3b2dd23ba8410914ac84",
        "scriptpubkey_type": "v1_p2tr",
        "scriptpubkey_address": "bc1pmpxzh4a4d8qthkn5pcx3lq7wmrum6lj38alrktwj8w5yzzg54jzqm6e9hn",
        "value": 31390
      },
      "scriptsig": "",
      "scriptsig_asm": "",
      "witness": [
        "b63caf56b99b934fd4b516a6270513b45b5c26bed1e3606a748e73058723895ea2bcdae11c72f55d8ee0625c6784546e85679992f37e1f5dc41a9d3eab32f32b"
      ],
      "is_coinbase": false,
      "sequence": 4294967295
    },
    {
      "txid": "d5d141155a35c2f0524ef6f70752a36cee321bd2b2b14f51082304e42880c59b",
      "vout": 1,
      "prevout": {
        "scriptpubkey": "5120d84c2bd7b569c0bbda740e0d1f83ced8f9bd7e513f7e3b2dd23ba8410914ac84",
        "scriptpubkey_asm": "OP_PUSHNUM_1 OP_PUSHBYTES_32 d84c2bd7b569c0bbda740e0d1f83ced8f9bd7e513f7e3b2dd23ba8410914ac84",
        "scriptpubkey_type": "v1_p2tr",
        "scriptpubkey_address": "bc1pmpxzh4a4d8qthkn5pcx3lq7wmrum6lj38alrktwj8w5yzzg54jzqm6e9hn",
        "value": 26119
      },
      "scriptsig": "",
      "scriptsig_asm": "",
      "witness": [
        "3fc8b45006f11bf3cadf53132e34d67433b3d10423d33459b19ecee75a389d3d782364501a40f3e78029c6fb9ea3c92ad3cef5dc7b27c14cf37195b3aa3ccc57"
      ],
      "is_coinbase": false,
      "sequence": 4294967295
    }
  ],
  "vout": [
    {
      "scriptpubkey": "512098ab1039f540866dab9770b1303a49f80ae2e11316d33b7b855886b94c4e07c2",
      "scriptpubkey_asm": "OP_PUSHNUM_1 OP_PUSHBYTES_32 98ab1039f540866dab9770b1303a49f80ae2e11316d33b7b855886b94c4e07c2",
      "scriptpubkey_type": "v1_p2tr",
      "scriptpubkey_address": "bc1pnz43qw04gzrxm2uhwzcnqwjflq9w9cgnzmfnk7u9tzrtjnzwqlpqpzl6at",
      "value": 55000
    }
  ],
  "size": 269,
  "weight": 674,
  "fee": 2509,
  "status": {
    "confirmed": true,
    "block_height": 834638,
    "block_hash": "000000000000000000025f742c626208ac87e0b7d15054abb4a19ca2d735a54e",
    "block_time": 1710405325
  },
  "hex": "0200000000010235ec3bbe10aba088515435802a2d2bf882f7e039b2b37ac8578d37791772ade40100000000ffffffff9bc58028e4042308514fb1b2d21b32ee6ca35207f7f64e52f0c2355a1541d1d50100000000ffffffff01d8d600000000000022512098ab1039f540866dab9770b1303a49f80ae2e11316d33b7b855886b94c4e07c20140b63caf56b99b934fd4b516a6270513b45b5c26bed1e3606a748e73058723895ea2bcdae11c72f55d8ee0625c6784546e85679992f37e1f5dc41a9d3eab32f32b01403fc8b45006f11bf3cadf53132e34d67433b3d10423d33459b19ecee75a389d3d782364501a40f3e78029c6fb9ea3c92ad3cef5dc7b27c14cf37195b3aa3ccc5700000000"
}