{
  "txid": "a44d9f3f0d5ca4f6e0ed732961e109eda1c01098be1d2b102f1efa6d677e2990",
  "version": 2,
  "locktime": 0,
  "vin": [
    {
      "txid": "8486ecb4df0880316dd6e82b3971b4df187aff23765bc3a47f8d78bb53aa273c",
      "vout": 37,
      "prevout": {
        "scriptpubkey": "5120f0537aa3782d0510e4b4797d63e5535c48aa09151bebeafccbbc8b4e57b87e3c",
        "scriptpubkey_asm": "OP_PUSHNUM_1 OP_PUSHBYTES_32 f0537aa3782d0510e4b4797d63e5535c48aa09151bebeafccbbc8b4e57b87e3c",
        "scriptpubkey_type": "v1_p2tr",
        "scriptpubkey_address": "bc1p7pfh4gmc95z3pe95097k8e2nt3y25zg4r0474lxthj95u4ac0c7q6vthyh",
        "value": 2575
      },
      "scriptsig": "",
      "scriptsig_asm": "",
      "witness": [
        "5a6814268adca17a565014ff8a08c759283c8227d0f401e82fa763aa800ce8ff4d061dafa897ee8ec8917758b39a2b6aa58faaf49012cf8d723c798d403663d6",
        "209f3011515e44b7edc4cf12477eea910b98e631896c0da8f8d824e65821c59b94ac0063036f726401010a746578742f706c61696e00367b2270223a226272632d3230222c226f70223a226d696e74222c227469636b223a2261616161222c22616d74223a223130303030227d68",
        "c09f3011515e44b7edc4cf12477eea910b98e631896c0da8f8d824e65821c59b94"
      ],
      "is_coinbase": false,
      "sequence": 4261412863
    }
  ],
  "vout": [
    {
      "scriptpubkey": "0014ddd7ef12ea6f78edcc1e8e7afa12c01ab59f3339",
      "scriptpubkey_asm": "OP_0 OP_PUSHBYTES_20 ddd7ef12ea6f78edcc1e8e7afa12c01ab59f3339",
      "scriptpubkey_type": "v0_p2wpkh",
      "scriptpubkey_address": "bc1qmht77yh2dauwmnq73ea05ykqr26e7veea8spz6",
      "value": 546
    }
  ],
  "size": 295,
  "weight": 541,
  "fee": 2029,
  "status": {
    "confirmed": true,
    "block_height": 834460,
    "block_hash": "00000000000000000000484a79b643b2524bbce82e5d8a442013fa5b8905ed98",
    "block_time": 1710307468
  },
  "hex": "020000000001013c27aa53bb788d7fa4c35b7623ff7a18dfb471392be8d66d318008dfb4ec86842500000000fffffffd012202000000000000160014ddd7ef12ea6f78edcc1e8e7afa12c01ab59f333903405a6814268adca17a565014ff8a08c759283c8227d0f401e82fa763aa800ce8ff4d061dafa897ee8ec8917758b39a2b6aa58faaf49012cf8d723c798d403663d66e209f3011515e44b7edc4cf12477eea910b98e631896c0da8f8d824e65821c59b94ac0063036f726401010a746578742f706c61696e00367b2270223a226272632d3230222c226f70223a226d696e74222c227469636b223a2261616161222c22616d74223a223130303030227d6821c09f3011515e44b7edc4cf12477eea910b98e631896c0da8f8d824e65821c59b9400000000"
}