{
  "txid": "a470669fcc2078491ff53da37c5a214dfb0fd1c3593d93cb5e526ceeffb17313",
  "version": 2,
  "locktime": 0,
  "vin": [
    {
      "txid": "78002826b6c4c2fb33cde8e2c1dfd29bec2cf2c9ca83eb74c3a86280986a6ea8",
      "vout": 0,
      "prevout": {
        "scriptpubkey": "51207debfc2edf055a2ec0dc1c0b0c398acb264e097aa4a4c4f79df41ecc65c00302",
        "scriptpubkey_asm": "OP_PUSHNUM_1 OP_PUSHBYTES_32 7debfc2edf055a2ec0dc1c0b0c398acb264e097aa4a4c4f79df41ecc65c00302",
        "scriptpubkey_type": "v1_p2tr",
        "scriptpubkey_address": "bc1p0h4lctklq4dzasxurs9scwv2evnyuzt65jjvfaua7s0vcewqqvpq5frwzf",
        "value": 330
      },
      "scriptsig": "",
      "scriptsig_asm": "",
      "witness": [
        "73295110cebd99ed7a1a632270079f13e8345209279cff399f20ebc6de1021f795091577dc2028abd071717fe75c2ea5e2245c65d0fd049dcf0c234623baf0c2"
      ],
      "is_coinbase": false,
      "sequence": 4294967293
    },
    {
      "txid": "539835affd895b36617b09700b517800ebc11307b578ca9c81b50a6775b77413",
      "vout": 1,
      "prevout": {
        "scriptpubkey": "a914b2fa659bc67b9d1b6cd831285531e65cadfbee7287",
        "scriptpubkey_asm": "OP_HASH160 OP_PUSHBYTES_20 b2fa659bc67b9d1b6cd831285531e65cadfbee72 OP_EQUAL",
        "scriptpubkey_type": "p2sh",
        "scriptpubkey_address": "3J1NAa7dwSQSQPEc2WoWHDs8k8UvZP2srg",
        "value": 391860
      },
      "scriptsig": "160014ae60e56b4512c235b0fea74e94a3d58566ba13fc",
      "scriptsig_asm": "OP_PUSHBYTES_22 0014ae60e56b4512c235b0fea74e94a3d58566ba13fc",
      "witness": [
        "304402203c2fec503debf5722454e352e24f30abeed346e01cad5ef5a614945136b4940d02203fc49afc4d925d90a795c664cc6b6fb21479464dcf5dfe79614a4a25c267a98d01",
        "030e2d491249e58ebb4edc5a1d20e313b109af133689426a02c22dbc29a0a2ef29"
      ],
      "is_coinbase": false,
      "sequence": 4294967293,
      "inner_redeemscript_asm": "OP_0 OP_PUSHBYTES_20 ae60e56b4512c235b0fea74e94a3d58566ba13fc"
    }
  ],
  "vout": [
    {
      "scriptpubkey": "51202e55c480f69785b0b51146ff6475143dab67168ccf87e0b7e0f11af7e74dfbea",
      "scriptpubkey_asm": "OP_PUSHNUM_1 OP_PUSHBYTES_32 2e55c480f69785b0b51146ff6475143dab67168ccf87e0b7e0f11af7e74dfbea",
      "scriptpubkey_type": "v1_p2tr",
      "scriptpubkey_address": "bc1p9e2ufq8kj7zmpdg3gmlkgag58k4kw95ve7r7pdlq7yd00e6dl04qtsaluf",
      "value": 330
    },
    {
      "scriptpubkey": "a914b2fa659bc67b9d1b6cd831285531e65cadfbee7287",
      "scriptpubkey_asm": "OP_HASH160 OP_PUSHBYTES_20 b2fa659bc67b9d1b6cd831285531e65cadfbee72 OP_EQUAL",
      "scriptpubkey_type": "p2sh",
      "scriptpubkey_address": "3J1NAa7dwSQSQPEc2WoWHDs8k8UvZP2srg",
      "value": 388108
    }
  ],
  "size": 365,
  "weight": 935,
  "fee": 3752,
  "status": {
    "confirmed": true,
    "block_height": 834638,
    "block_hash": "000000000000000000025f742c626208ac87e0b7d15054abb4a19ca2d735a54e",
    "block_time": 1710405325
  },
  "hex": "02000000000102a86e6a988062a8c374eb83cac9f22cec9bd2dfc1e2e8cd33fbc2c4b6262800780000000000fdffffff1374b775670ab5819cca78b50713c1eb0078510b70097b61365b89fdaf3598530100000017160014ae60e56b4512c235b0fea74e94a3d58566ba13fcfdffffff024a010000000000002251202e55c480f69785b0b51146ff6475143dab67168ccf87e0b7e0f11af7e74dfbea0cec05000000000017a914b2fa659bc67b9d1b6cd831285531e65cadfbee7287014073295110cebd99ed7a1a632270079f13e8345209279cff399f20ebc6de1021f795091577dc2028abd071717fe75c2ea5e2245c65d0fd049dcf0c234623baf0c20247304402203c2fec503debf5722454e352e24f30abeed346e01cad5ef5a614945136b4940d02203fc49afc4d925d90a795c664cc6b6fb21479464dcf5dfe79614a4a25c267a98d0121030e2d491249e58ebb4edc5a1d20e313b109af133689426a02c22dbc29a0a2ef2900000000"
}