{
  "txid": "a47628794691fbe9ad4d4adc4a16137945f46a8ffea83bb2610d7f7ec8d02ad5",
  "version": 1,
  "locktime": 0,
  "vin": [
    {
      "txid": "524441eaef024013d86e2f9b009fca6fa97f7ba492ae10f22f3d362f6b562f09",
      "vout": 1,
      "prevout": {
        "scriptpubkey": "00147d6314f0795e08b953c8bc51eb807142b7d65056",
        "scriptpubkey_asm": "OP_0 OP_PUSHBYTES_20 7d6314f0795e08b953c8bc51eb807142b7d65056",
        "scriptpubkey_type": "v0_p2wpkh",
        "scriptpubkey_address": "bc1q0433furetcytj57gh3g7hqr3g2mav5zkv46dtz",
        "value": 29339
      },
      "scriptsig": "",
      "scriptsig_asm": "",
      "witness": [
        "30450221009ec5d91bffea01bb82a3b59ff2792641ec4db3a285fb65f3f45f71a6cf38168c0220400bc7638db527be4ba47cda79cd4b8b1086d5948fc575dc47fd1cc63f12ad8001",
        "03df5b123269a628ec12eb48234fa09a0a4c31894bc3d2e84597dad3ba361fb3b6"
      ],
      "is_coinbase": false,
      "sequence": 4294967295
    }
  ],
  "vout": [
    {
      "scriptpubkey": "0014aed01ce7d479e425665a946216d5603ce0aab9ae",
      "scriptpubkey_asm": "OP_0 OP_PUSHBYTES_20 aed01ce7d479e425665a946216d5603ce0aab9ae",
      "scriptpubkey_type": "v0_p2wpkh",
      "scriptpubkey_address": "bc1q4mgpee7508jz2ej6j33pd4tq8ns24wdwm3q6k3",
      "value": 13614
    },
    {
      "scriptpubkey": "00147d6314f0795e08b953c8bc51eb807142b7d65056",
      "scriptpubkey_asm": "OP_0 OP_PUSHBYTES_20 7d6314f0795e08b953c8bc51eb807142b7d65056",
      "scriptpubkey_type": "v0_p2wpkh",
      "scriptpubkey_address": "bc1q0433furetcytj57gh3g7hqr3g2mav5zkv46dtz",
      "value": 11918
    }
  ],
  "size": 223,
  "weight": 562,
  "fee": 3807,
  "status": {
    "confirmed": true,
    "block_height": 834638,
    "block_hash": "000000000000000000025f742c626208ac87e0b7d15054abb4a19ca2d735a54e",
    "block_time": 1710405325
  },
  "hex": "01000000000101092f566b2f363d2ff210ae92a47b7fa96fca9f009b2f6ed8134002efea4144520100000000ffffffff022e35000000000000160014aed01ce7d479e425665a946216d5603ce0aab9ae8e2e0000000000001600147d6314f0795e08b953c8bc51eb807142b7d65056024830450221009ec5d91bffea01bb82a3b59ff2792641ec4db3a285fb65f3f45f71a6cf38168c0220400bc7638db527be4ba47cda79cd4b8b1086d5948fc575dc47fd1cc63f12ad80012103df5b123269a628ec12eb48234fa09a0a4c31894bc3d2e84597dad3ba361fb3b600000000"
}