{
  "txid": "a4887648f6cd372d00f57561eb202cea9b0566a1c01d1f5ab52372f451dc9636",
  "version": 2,
  "locktime": 0,
  "vin": [
    {
      "txid": "71948ad27157fe2f80d177c9fcc6afaf3428f0fcc4991aa18dddc8ae57d84bbb",
      "vout": 0,
      "prevout": {
        "scriptpubkey": "5120fb6be44fcca2e87e1d4575ab6f9ac83d33e4913bc97205408862e22624d319dc",
        "scriptpubkey_asm": "OP_PUSHNUM_1 OP_PUSHBYTES_32 fb6be44fcca2e87e1d4575ab6f9ac83d33e4913bc97205408862e22624d319dc",
        "scriptpubkey_type": "v1_p2tr",
        "scriptpubkey_address": "bc1pld47gn7v5t58u829wk4klxkg85e7fyfme9eq2sygvt3zvfxnr8wqf8u9qn",
        "value": 600
      },
      "scriptsig": "",
      "scriptsig_asm": "",
      "witness": [
        "a3d34a6c8e7cd09416724113b0320b14f8a8625bd5f6ccb58fc9f7dee14cecb75e35f54dfdfa45cf6313569eb1f836fc825d45d1e4080829e14a3aa5acc40c43"
      ],
      "is_coinbase": false,
      "sequence": 4294967295
    },
    {
      "txid": "71948ad27157fe2f80d177c9fcc6afaf3428f0fcc4991aa18dddc8ae57d84bbb",
      "vout": 1,
      "prevout": {
        "scriptpubkey": "5120fb6be44fcca2e87e1d4575ab6f9ac83d33e4913bc97205408862e22624d319dc",
        "scriptpubkey_asm": "OP_PUSHNUM_1 OP_PUSHBYTES_32 fb6be44fcca2e87e1d4575ab6f9ac83d33e4913bc97205408862e22624d319dc",
        "scriptpubkey_type": "v1_p2tr",
        "scriptpubkey_address": "bc1pld47gn7v5t58u829wk4klxkg85e7fyfme9eq2sygvt3zvfxnr8wqf8u9qn",
        "value": 600
      },
      "scriptsig": "",
      "scriptsig_asm": "",
      "witness": [
        "ecb0bddb4e186eea630717179c5d0cf3967ba2e63c3cb310419c17b6c6203fb6fdf3cb3f772bbe570675480f0a9f2b8f9cc3f4618d03d51d62b00a0c5cb84138"
      ],
      "is_coinbase": false,
      "sequence": 4294967295
    },
    {
      "txid": "1892e49ce27b49785636fa7e8a671b2bcc29f3856633144f1359f150c515a3a9",
      "vout": 0,
      "prevout": {
        "scriptpubkey": "51208a82fcef09eb851b8dfe160cfe64b827998476497fa29a982fcf8bfac17cb960",
        "scriptpubkey_asm": "OP_PUSHNUM_1 OP_PUSHBYTES_32 8a82fcef09eb851b8dfe160cfe64b827998476497fa29a982fcf8bfac17cb960",
        "scriptpubkey_type": "v1_p2tr",
        "scriptpubkey_address": "bc1p32p0emcfawz3hr07zcx0ue9cy7vcgajf073f4xp0e79l4stuh9sqd663k5",
        "value": 546
      },
      "scriptsig": "",
      "scriptsig_asm": "",
      "witness": [
        "ccdc34242782e9dfa545e2685beb7f922cbf2df429b335aa89224377efdc606c329cf9a9d696b61f6a74064334bed35344f28ea81abce944090060c2ac55724f83"
      ],
      "is_coinbase": false,
      "sequence": 4294967295
    },
    {
      "txid": "71948ad27157fe2f80d177c9fcc6afaf3428f0fcc4991aa18dddc8ae57d84bbb",
      "vout": 2,
      "prevout": {
        "scriptpubkey": "5120fb6be44fcca2e87e1d4575ab6f9ac83d33e4913bc97205408862e22624d319dc",
        "scriptpubkey_asm": "OP_PUSHNUM_1 OP_PUSHBYTES_32 fb6be44fcca2e87e1d4575ab6f9ac83d33e4913bc97205408862e22624d319dc",
        "scriptpubkey_type": "v1_p2tr",
        "scriptpubkey_address": "bc1pld47gn7v5t58u829wk4klxkg85e7fyfme9eq2sygvt3zvfxnr8wqf8u9qn",
        "value": 645233
      },
      "scriptsig": "",
      "scriptsig_asm": "",
      "witness": [
        "41b60b4413783a079e40502559e81f78b5bf0cdd30120341f07a193a99d32d198b4cd28e6a1bf1ebc3eaf537fa0ad8bc2673e09cceea8ac93169b1deb244dc0a"
      ],
      "is_coinbase": false,
      "sequence": 4294967295
    }
  ],
  "vout": [
    {
      "scriptpubkey": "5120fb6be44fcca2e87e1d4575ab6f9ac83d33e4913bc97205408862e22624d319dc",
      "scriptpubkey_asm": "OP_PUSHNUM_1 OP_PUSHBYTES_32 fb6be44fcca2e87e1d4575ab6f9ac83d33e4913bc97205408862e22624d319dc",
      "scriptpubkey_type": "v1_p2tr",
      "scriptpubkey_address": "bc1pld47gn7v5t58u829wk4klxkg85e7fyfme9eq2sygvt3zvfxnr8wqf8u9qn",
      "value": 1200
    },
    {
      "scriptpubkey": "5120fb6be44fcca2e87e1d4575ab6f9ac83d33e4913bc97205408862e22624d319dc",
      "scriptpubkey_asm": "OP_PUSHNUM_1 OP_PUSHBYTES_32 fb6be44fcca2e87e1d4575ab6f9ac83d33e4913bc97205408862e22624d319dc",
      "scriptpubkey_type": "v1_p2tr",
      "scriptpubkey_address": "bc1pld47gn7v5t58u829wk4klxkg85e7fyfme9eq2sygvt3zvfxnr8wqf8u9qn",
      "value": 546
    },
    {
      "scriptpubkey": "51208a82fcef09eb851b8dfe160cfe64b827998476497fa29a982fcf8bfac17cb960",
      "scriptpubkey_asm": "OP_PUSHNUM_1 OP_PUSHBYTES_32 8a82fcef09eb851b8dfe160cfe64b827998476497fa29a982fcf8bfac17cb960",
      "scriptpubkey_type": "v1_p2tr",
      "scriptpubkey_address": "bc1p32p0emcfawz3hr07zcx0ue9cy7vcgajf073f4xp0e79l4stuh9sqd663k5",
      "value": 546241
    },
    {
      "scriptpubkey": "5120fb6be44fcca2e87e1d4575ab6f9ac83d33e4913bc97205408862e22624d319dc",
      "scriptpubkey_asm": "OP_PUSHNUM_1 OP_PUSHBYTES_32 fb6be44fcca2e87e1d4575ab6f9ac83d33e4913bc97205408862e22624d319dc",
      "scriptpubkey_type": "v1_p2tr",
      "scriptpubkey_address": "bc1pld47gn7v5t58u829wk4klxkg85e7fyfme9eq2sygvt3zvfxnr8wqf8u9qn",
      "value": 600
    },
    {
      "scriptpubkey": "5120fb6be44fcca2e87e1d4575ab6f9ac83d33e4913bc97205408862e22624d319dc",
      "scriptpubkey_asm": "OP_PUSHNUM_1 OP_PUSHBYTES_32 fb6be44fcca2e87e1d4575ab6f9ac83d33e4913bc97205408862e22624d319dc",
      "scriptpubkey_type": "v1_p2tr",
      "scriptpubkey_address": "bc1pld47gn7v5t58u829wk4klxkg85e7fyfme9eq2sygvt3zvfxnr8wqf8u9qn",
      "value": 600
    },
    {
      "scriptpubkey": "5120fb6be44fcca2e87e1d4575ab6f9ac83d33e4913bc97205408862e22624d319dc",
      "scriptpubkey_asm": "OP_PUSHNUM_1 OP_PUSHBYTES_32 fb6be44fcca2e87e1d4575ab6f9ac83d33e4913bc97205408862e22624d319dc",
      "scriptpubkey_type": "v1_p2tr",
      "scriptpubkey_address": "bc1pld47gn7v5t58u829wk4klxkg85e7fyfme9eq2sygvt3zvfxnr8wqf8u9qn",
      "value": 89309
    }
  ],
  "size": 699,
  "weight": 1995,
  "fee": 8483,
  "status": {
    "confirmed": true,
    "block_height": 834638,
    "block_hash": "000000000000000000025f742c626208ac87e0b7d15054abb4a19ca2d735a54e",
    "block_time": 1710405325
  },
  "hex": "02000000000104bb4bd857aec8dd8da11a99c4fcf02834afafc6fcc977d1802ffe5771d28a94710000000000ffffffffbb4bd857aec8dd8da11a99c4fcf02834afafc6fcc977d1802ffe5771d28a94710100000000ffffffffa9a315c550f159134f14336685f329cc2b1b678a7efa365678497be29ce492180000000000ffffffffbb4bd857aec8dd8da11a99c4fcf02834afafc6fcc977d1802ffe5771d28a94710200000000ffffffff06b004000000000000225120fb6be44fcca2e87e1d4575ab6f9ac83d33e4913bc97205408862e22624d319dc2202000000000000225120fb6be44fcca2e87e1d4575ab6f9ac83d33e4913bc97205408862e22624d319dcc1550800000000002251208a82fcef09eb851b8dfe160cfe64b827998476497fa29a982fcf8bfac17cb9605802000000000000225120fb6be44fcca2e87e1d4575ab6f9ac83d33e4913bc97205408862e22624d319dc5802000000000000225120fb6be44fcca2e87e1d4575ab6f9ac83d33e4913bc97205408862e22624d319dcdd5c010000000000225120fb6be44fcca2e87e1d4575ab6f9ac83d33e4913bc97205408862e22624d319dc0140a3d34a6c8e7cd09416724113b0320b14f8a8625bd5f6ccb58fc9f7dee14cecb75e35f54dfdfa45cf6313569eb1f836fc825d45d1e4080829e14a3aa5acc40c430140ecb0bddb4e186eea630717179c5d0cf3967ba2e63c3cb310419c17b6c6203fb6fdf3cb3f772bbe570675480f0a9f2b8f9cc3f4618d03d51d62b00a0c5cb841380141ccdc34242782e9dfa545e2685beb7f922cbf2df429b335aa89224377efdc606c329cf9a9d696b61f6a74064334bed35344f28ea81abce944090060c2ac55724f83014041b60b4413783a079e40502559e81f78b5bf0cdd30120341f07a193a99d32d198b4cd28e6a1bf1ebc3eaf537fa0ad8bc2673e09cceea8ac93169b1deb244dc0a00000000"
}