{
  "txid": "a4a2b60ec629521a023e7a8c1648373380dad586c854c2dd6c8a66b2f8d3838c",
  "version": 1,
  "locktime": 0,
  "vin": [
    {
      "txid": "61162b68db06779c5c57541cd0e728ec2d8926902cd1411abcf0ba46fb14c5c5",
      "vout": 0,
      "prevout": {
        "scriptpubkey": "00148effeecd39ee0d7bb5aa181bd7f60fe5aaa125a9",
        "scriptpubkey_asm": "OP_0 OP_PUSHBYTES_20 8effeecd39ee0d7bb5aa181bd7f60fe5aaa125a9",
        "scriptpubkey_type": "v0_p2wpkh",
        "scriptpubkey_address": "bc1q3ml7anfeacxhhdd2rqda0as0uk42zfdf0zwaxe",
        "value": 177405
      },
      "scriptsig": "",
      "scriptsig_asm": "",
      "witness": [
        "304502210095ebd549e6a83a695bfde2e496d495da80dcee30774273db810ae7a7f9180f8c022079696e61dffde99dac38a9538bcd301868ec4d00266f07d5eca52681377d817e01",
        "0389e27d7465f4fbdfb4a913afa9541f76df0b9d18e5e6a09e13d08b66a4f52c20"
      ],
      "is_coinbase": false,
      "sequence": 4294967295
    }
  ],
  "vout": [
    {
      "scriptpubkey": "00147e2475fc9b576fc62bf1def99354ad048eb72867",
      "scriptpubkey_asm": "OP_0 OP_PUSHBYTES_20 7e2475fc9b576fc62bf1def99354ad048eb72867",
      "scriptpubkey_type": "v0_p2wpkh",
      "scriptpubkey_address": "bc1q0cj8tlym2ahuv2l3mmuex49dqj8tw2r8pulkre",
      "value": 174592
    }
  ],
  "size": 192,
  "weight": 438,
  "fee": 2813,
  "status": {
    "confirmed": true,
    "block_height": 834638,
    "block_hash": "000000000000000000025f742c626208ac87e0b7d15054abb4a19ca2d735a54e",
    "block_time": 1710405325
  },
  "hex": "01000000000101c5c514fb46baf0bc1a41d12c9026892dec28e7d01c54575c9c7706db682b16610000000000ffffffff0100aa0200000000001600147e2475fc9b576fc62bf1def99354ad048eb728670248304502210095ebd549e6a83a695bfde2e496d495da80dcee30774273db810ae7a7f9180f8c022079696e61dffde99dac38a9538bcd301868ec4d00266f07d5eca52681377d817e01210389e27d7465f4fbdfb4a913afa9541f76df0b9d18e5e6a09e13d08b66a4f52c2000000000"
}