{
  "txid": "a4aab845c099b1285b6a49620d63c54aaf6c7c8683841db00c929c85761d35ee",
  "version": 1,
  "locktime": 0,
  "vin": [
    {
      "txid": "829b8c229eb88cec3ded0b952f696b8edf3a4a054ca56b6da5a7b4c00e24a483",
      "vout": 21,
      "prevout": {
        "scriptpubkey": "0014bb82a2ab7978a3372f09f22ab4b0de17d200ccf3",
        "scriptpubkey_asm": "OP_0 OP_PUSHBYTES_20 bb82a2ab7978a3372f09f22ab4b0de17d200ccf3",
        "scriptpubkey_type": "v0_p2wpkh",
        "scriptpubkey_address": "bc1qhwp292me0z3nwtcf7g4tfvx7zlfqpn8nknpgrd",
        "value": 101432448
      },
      "scriptsig": "",
      "scriptsig_asm": "",
      "witness": [
        "30440220401e18fe32bab253c43970a6f2e6d933ed2d816d35bb51c960ccc5b3867f562102203a50aa10e08eff9de4a18a7366b7f5eb1cc8bd0c229038f0a10e4a77e1ebf5ed01",
        "03362fab2cbdf445206e3712702ff8662ed6e628dd1725741371d127a2b511cd36"
      ],
      "is_coinbase": false,
      "sequence": 4294967295
    }
  ],
  "vout": [
    {
      "scriptpubkey": "76a9148b85c31812e8ad0f93e3db812d4a653e101d52ca88ac",
      "scriptpubkey_asm": "OP_DUP OP_HASH160 OP_PUSHBYTES_20 8b85c31812e8ad0f93e3db812d4a653e101d52ca OP_EQUALVERIFY OP_CHECKSIG",
      "scriptpubkey_type": "p2pkh",
      "scriptpubkey_address": "1DijAcnwL5rt7qfC2YDRvQh4nS9mLQVEv9",
      "value": 500000
    },
    {
      "scriptpubkey": "0014bb82a2ab7978a3372f09f22ab4b0de17d200ccf3",
      "scriptpubkey_asm": "OP_0 OP_PUSHBYTES_20 bb82a2ab7978a3372f09f22ab4b0de17d200ccf3",
      "scriptpubkey_type": "v0_p2wpkh",
      "scriptpubkey_address": "bc1qhwp292me0z3nwtcf7g4tfvx7zlfqpn8nknpgrd",
      "value": 100928560
    }
  ],
  "size": 225,
  "weight": 573,
  "fee": 3888,
  "status": {
    "confirmed": true,
    "block_height": 834638,
    "block_hash": "000000000000000000025f742c626208ac87e0b7d15054abb4a19ca2d735a54e",
    "block_time": 1710405325
  },
  "hex": "0100000000010183a4240ec0b4a7a56d6ba54c054a3adf8e6b692f950bed3dec8cb89e228c9b821500000000ffffffff0220a10700000000001976a9148b85c31812e8ad0f93e3db812d4a653e101d52ca88ac300c040600000000160014bb82a2ab7978a3372f09f22ab4b0de17d200ccf3024730440220401e18fe32bab253c43970a6f2e6d933ed2d816d35bb51c960ccc5b3867f562102203a50aa10e08eff9de4a18a7366b7f5eb1cc8bd0c229038f0a10e4a77e1ebf5ed012103362fab2cbdf445206e3712702ff8662ed6e628dd1725741371d127a2b511cd3600000000"
}