{
  "txid": "a4c7349ee82054614b3f572ebc6407b404a141ac40e39f014d433c6e4546a54a",
  "version": 2,
  "locktime": 0,
  "vin": [
    {
      "txid": "4abdbb90fed2988cd0375b1806037381fa0aaf919cff0d5963806631a95c298d",
      "vout": 0,
      "prevout": {
        "scriptpubkey": "0014687750c9a0b9d5e428268301aa0203f93df30b0a",
        "scriptpubkey_asm": "OP_0 OP_PUSHBYTES_20 687750c9a0b9d5e428268301aa0203f93df30b0a",
        "scriptpubkey_type": "v0_p2wpkh",
        "scriptpubkey_address": "bc1qdpm4pjdqh827g2pxsvq65qsrly7lxzc29alz8p",
        "value": 19811
      },
      "scriptsig": "",
      "scriptsig_asm": "",
      "witness": [
        "3045022100807c1d1db352537eb053db9f83bbae3ddb6a743b7e0dab47db75920dee9e326702201054f1e37c693b9cd73853c5e57c30a06ee838d45746777d0696dc2f9dfd174501",
        "02cd57487129bf47f3b49ea36f62e53f00f085a2814ce5d0d71f901ebf480d112f"
      ],
      "is_coinbase": false,
      "sequence": 4294967295
    }
  ],
  "vout": [
    {
      "scriptpubkey": "0014fe48279dd1a9e92fa5c03fe8a0ebd95f06987dc6",
      "scriptpubkey_asm": "OP_0 OP_PUSHBYTES_20 fe48279dd1a9e92fa5c03fe8a0ebd95f06987dc6",
      "scriptpubkey_type": "v0_p2wpkh",
      "scriptpubkey_address": "bc1qleyz08w3485jlfwq8l52p67eturfslwx8yyfa4",
      "value": 16350
    }
  ],
  "size": 192,
  "weight": 438,
  "fee": 3461,
  "status": {
    "confirmed": true,
    "block_height": 834638,
    "block_hash": "000000000000000000025f742c626208ac87e0b7d15054abb4a19ca2d735a54e",
    "block_time": 1710405325
  },
  "hex": "020000000001018d295ca931668063590dff9c91af0afa81730306185b37d08c98d2fe90bbbd4a0000000000ffffffff01de3f000000000000160014fe48279dd1a9e92fa5c03fe8a0ebd95f06987dc602483045022100807c1d1db352537eb053db9f83bbae3ddb6a743b7e0dab47db75920dee9e326702201054f1e37c693b9cd73853c5e57c30a06ee838d45746777d0696dc2f9dfd1745012102cd57487129bf47f3b49ea36f62e53f00f085a2814ce5d0d71f901ebf480d112f00000000"
}