{
  "txid": "a4c788c0ba40d168e1d7769d56a59f4bdbb4fdaa02cac655c764be9f037e0dd9",
  "version": 2,
  "locktime": 834191,
  "vin": [
    {
      "txid": "d05b1c8cb4ebfae7e99d6903ce03e46532e99c14945004cc70548dbc42add5fa",
      "vout": 1,
      "prevout": {
        "scriptpubkey": "001425ad345fea0313a38ed8b6515e44103fa8be6e20",
        "scriptpubkey_asm": "OP_0 OP_PUSHBYTES_20 25ad345fea0313a38ed8b6515e44103fa8be6e20",
        "scriptpubkey_type": "v0_p2wpkh",
        "scriptpubkey_address": "bc1qykknghl2qvf68rkckeg4u3qs875tum3qzzvv33",
        "value": 104418
      },
      "scriptsig": "",
      "scriptsig_asm": "",
      "witness": [
        "3044022076464df8dca0ebb598a86b032655d86b8af2ca05ed98b0820960f1536c74ae1b022056ae3073ceccb1c21c9cbd661f8b2a5f2f6001e1bc5d3f4577cd6ca6e59f2b4501",
        "03e230eaadb896cfe286cc8700cc643361830457173efab1bb34b668c695d89d30"
      ],
      "is_coinbase": false,
      "sequence": 4294967293
    }
  ],
  "vout": [
    {
      "scriptpubkey": "0014ae464f33ec7f8b6fbde099dd2cb4de38095045d8",
      "scriptpubkey_asm": "OP_0 OP_PUSHBYTES_20 ae464f33ec7f8b6fbde099dd2cb4de38095045d8",
      "scriptpubkey_type": "v0_p2wpkh",
      "scriptpubkey_address": "bc1q4ery7vlv079kl00qn8wjedx78qy4q3wcz262l3",
      "value": 103208
    }
  ],
  "size": 191,
  "weight": 437,
  "fee": 1210,
  "status": {
    "confirmed": true,
    "block_height": 834464,
    "block_hash": "0000000000000000000177a0869a911a2b65c9bdcd5a8bcb02b68f305bee848e",
    "block_time": 1710308296
  },
  "hex": "02000000000101fad5ad42bc8d5470cc045094149ce93265e403ce03699de9e7faebb48c1c5bd00100000000fdffffff012893010000000000160014ae464f33ec7f8b6fbde099dd2cb4de38095045d802473044022076464df8dca0ebb598a86b032655d86b8af2ca05ed98b0820960f1536c74ae1b022056ae3073ceccb1c21c9cbd661f8b2a5f2f6001e1bc5d3f4577cd6ca6e59f2b45012103e230eaadb896cfe286cc8700cc643361830457173efab1bb34b668c695d89d308fba0c00"
}