{
  "txid": "a4c76d472dba14970f9845be99e5f87c250f0296c307e5b3b80c1f1c3f677ab8",
  "version": 2,
  "locktime": 0,
  "vin": [
    {
      "txid": "16a7b4b9cb5790a17886cf73a328263162f5b06547eabef33ccf76569027d3ba",
      "vout": 0,
      "prevout": {
        "scriptpubkey": "0014f4ab43b73412dfd18b1865e81bd98dc81ad15e64",
        "scriptpubkey_asm": "OP_0 OP_PUSHBYTES_20 f4ab43b73412dfd18b1865e81bd98dc81ad15e64",
        "scriptpubkey_type": "v0_p2wpkh",
        "scriptpubkey_address": "bc1q7j458de5zt0arzccvh5phkvdeqddzhnys9ga7c",
        "value": 62711
      },
      "scriptsig": "",
      "scriptsig_asm": "",
      "witness": [
        "30440220718cf5c3cf94cc3fee6511c5a539fb244ccbf3337d9c1728fdc59f9773ab2a0b02202d50c4562a6662287db8136ce9215d27f669582deaeebc644cea86c92018b74901",
        "03092cb942215009969aa471e1308c8c61fade22a42752d98d55e9be87c061e134"
      ],
      "is_coinbase": false,
      "sequence": 4294967293
    },
    {
      "txid": "c7b4ce2a1cd1376d3f8463c9e08f3508150a3430fdf1a1aadd486fe46551a411",
      "vout": 0,
      "prevout": {
        "scriptpubkey": "0014f4ab43b73412dfd18b1865e81bd98dc81ad15e64",
        "scriptpubkey_asm": "OP_0 OP_PUSHBYTES_20 f4ab43b73412dfd18b1865e81bd98dc81ad15e64",
        "scriptpubkey_type": "v0_p2wpkh",
        "scriptpubkey_address": "bc1q7j458de5zt0arzccvh5phkvdeqddzhnys9ga7c",
        "value": 15342
      },
      "scriptsig": "",
      "scriptsig_asm": "",
      "witness": [
        "30440220212a12ab72ed8a0bfe6a247a443c72c2211528ec41feafe860346bf2e921524e0220460c67513a4df16d9170d3d5502ce8f5716bbb133eabfe814409e8f210ca6e1301",
        "03092cb942215009969aa471e1308c8c61fade22a42752d98d55e9be87c061e134"
      ],
      "is_coinbase": false,
      "sequence": 4294967293
    },
    {
      "txid": "27b5c4404860761e177aa9fcf0f8d7ee7ba79141a9cdc9d8c85a8f5ff6cf55f5",
      "vout": 0,
      "prevout": {
        "scriptpubkey": "001442b878351cbf6e154eb18492b2ba846a7a9be77c",
        "scriptpubkey_asm": "OP_0 OP_PUSHBYTES_20 42b878351cbf6e154eb18492b2ba846a7a9be77c",
        "scriptpubkey_type": "v0_p2wpkh",
        "scriptpubkey_address": "bc1qg2u8sdguhahp2n43sjft9w5ydfafhemu6ngvv2",
        "value": 132896
      },
      "scriptsig": "",
      "scriptsig_asm": "",
      "witness": [
        "3044022001743e1638f87eaf4f58f0d1fca99889285abcf8b5d0690ec8a1bc15170bf29c02205d51b8c20de7b7f97ba66c354532adf21a947e2bca798d3aa0f58d929c85384401",
        "035ca4fb69f835c3aab2e441756c16b61ef7d0e58c81e89828f7f7b28c08fe0bb4"
      ],
      "is_coinbase": false,
      "sequence": 4294967293
    }
  ],
  "vout": [
    {
      "scriptpubkey": "0014ddb30b81115c20b9fd9ac62824cdbe3a76812239",
      "scriptpubkey_asm": "OP_0 OP_PUSHBYTES_20 ddb30b81115c20b9fd9ac62824cdbe3a76812239",
      "scriptpubkey_type": "v0_p2wpkh",
      "scriptpubkey_address": "bc1qmkeshqg3tsstnlv6cc5zfnd78fmgzg3ecenjlh",
      "value": 26930
    },
    {
      "scriptpubkey": "76a9141617634335a523535f21f8a9a822b04941fc0a4288ac",
      "scriptpubkey_asm": "OP_DUP OP_HASH160 OP_PUSHBYTES_20 1617634335a523535f21f8a9a822b04941fc0a42 OP_EQUALVERIFY OP_CHECKSIG",
      "scriptpubkey_type": "p2pkh",
      "scriptpubkey_address": "131otEJ8dpYEpvMYYqEWCjv5cQ4581bxzj",
      "value": 179819
    }
  ],
  "size": 521,
  "weight": 1115,
  "fee": 4200,
  "status": {
    "confirmed": true,
    "block_height": 834638,
    "block_hash": "000000000000000000025f742c626208ac87e0b7d15054abb4a19ca2d735a54e",
    "block_time": 1710405325
  },
  "hex": "02000000000103bad327905676cf3cf3beea4765b0f562312628a373cf8678a19057cbb9b4a7160000000000fdffffff11a45165e46f48ddaaa1f1fd30340a1508358fe0c963843f6d37d11c2aceb4c70000000000fdfffffff555cff65f8f5ac8d8c9cda94191a77beed7f8f0fca97a171e76604840c4b5270000000000fdffffff023269000000000000160014ddb30b81115c20b9fd9ac62824cdbe3a768122396bbe0200000000001976a9141617634335a523535f21f8a9a822b04941fc0a4288ac024730440220718cf5c3cf94cc3fee6511c5a539fb244ccbf3337d9c1728fdc59f9773ab2a0b02202d50c4562a6662287db8136ce9215d27f669582deaeebc644cea86c92018b749012103092cb942215009969aa471e1308c8c61fade22a42752d98d55e9be87c061e134024730440220212a12ab72ed8a0bfe6a247a443c72c2211528ec41feafe860346bf2e921524e0220460c67513a4df16d9170d3d5502ce8f5716bbb133eabfe814409e8f210ca6e13012103092cb942215009969aa471e1308c8c61fade22a42752d98d55e9be87c061e13402473044022001743e1638f87eaf4f58f0d1fca99889285abcf8b5d0690ec8a1bc15170bf29c02205d51b8c20de7b7f97ba66c354532adf21a947e2bca798d3aa0f58d929c8538440121035ca4fb69f835c3aab2e441756c16b61ef7d0e58c81e89828f7f7b28c08fe0bb400000000"
}