{
  "txid": "a4efc4a341c5935037a660df5048ae26dabde87b91bfb2f4aeff2bd95ca1d3ee",
  "version": 1,
  "locktime": 0,
  "vin": [
    {
      "txid": "ebe85c00d19e3c29034e3a170bfd8c0ae7c2d9fe9ad7409427d9b8549f14010b",
      "vout": 1,
      "prevout": {
        "scriptpubkey": "00149212d47f2c14594bb6fb3ab3341337f706eb66e0",
        "scriptpubkey_asm": "OP_0 OP_PUSHBYTES_20 9212d47f2c14594bb6fb3ab3341337f706eb66e0",
        "scriptpubkey_type": "v0_p2wpkh",
        "scriptpubkey_address": "bc1qjgfdglevz3v5hdhm82engyeh7urwkehq5qds8r",
        "value": 68656
      },
      "scriptsig": "",
      "scriptsig_asm": "",
      "witness": [
        "304402200b7e5d19dd1680a9db2f89088264074437fd60962e3ede808d1358d781c846210220448fa2fa0ca57095aa0672dfc4e597b5d918b4f4724237e203777c047445bf5d01",
        "02557fab5517d0706303aae7c5a8d0f9a05dbe2d164367861f35ce877888db318b"
      ],
      "is_coinbase": false,
      "sequence": 4294967295
    }
  ],
  "vout": [
    {
      "scriptpubkey": "0014b57961a1ecd44ce555ec837fe321bc555f0532e1",
      "scriptpubkey_asm": "OP_0 OP_PUSHBYTES_20 b57961a1ecd44ce555ec837fe321bc555f0532e1",
      "scriptpubkey_type": "v0_p2wpkh",
      "scriptpubkey_address": "bc1qk4ukrg0v63xw240vsdl7xgdu240s2vhpvkqxuc",
      "value": 13700
    },
    {
      "scriptpubkey": "001444d48036702e797a3a2e5ceadcd9c34eceb01b13",
      "scriptpubkey_asm": "OP_0 OP_PUSHBYTES_20 44d48036702e797a3a2e5ceadcd9c34eceb01b13",
      "scriptpubkey_type": "v0_p2wpkh",
      "scriptpubkey_address": "bc1qgn2gqdns9euh5w3wtn4dekwrfm8tqxcnytncqp",
      "value": 52859
    }
  ],
  "size": 222,
  "weight": 561,
  "fee": 2097,
  "status": {
    "confirmed": true,
    "block_height": 834638,
    "block_hash": "000000000000000000025f742c626208ac87e0b7d15054abb4a19ca2d735a54e",
    "block_time": 1710405325
  },
  "hex": "010000000001010b01149f54b8d9279440d79afed9c2e70a8cfd0b173a4e03293c9ed1005ce8eb0100000000ffffffff028435000000000000160014b57961a1ecd44ce555ec837fe321bc555f0532e17bce00000000000016001444d48036702e797a3a2e5ceadcd9c34eceb01b130247304402200b7e5d19dd1680a9db2f89088264074437fd60962e3ede808d1358d781c846210220448fa2fa0ca57095aa0672dfc4e597b5d918b4f4724237e203777c047445bf5d012102557fab5517d0706303aae7c5a8d0f9a05dbe2d164367861f35ce877888db318b00000000"
}