{
  "txid": "a4f39bcb6cda5587151afcedadf536c61dab05ec95f819145c9fb983c5516991",
  "version": 2,
  "locktime": 0,
  "vin": [
    {
      "txid": "adb0bf93f003bc1cffce1256dbf1286932ae6f630e312c0df0c081670e0ba6d3",
      "vout": 16,
      "prevout": {
        "scriptpubkey": "5120c3d69e46947c3cebf7bab290267689c830674218d23350dba14499fa9d55ab0b",
        "scriptpubkey_asm": "OP_PUSHNUM_1 OP_PUSHBYTES_32 c3d69e46947c3cebf7bab290267689c830674218d23350dba14499fa9d55ab0b",
        "scriptpubkey_type": "v1_p2tr",
        "scriptpubkey_address": "bc1pc0tfu3550s7whaa6k2gzva5feqcxwssc6ge4pkapgjvl48244v9shshmyu",
        "value": 600
      },
      "scriptsig": "",
      "scriptsig_asm": "",
      "witness": [
        "c1a873f64f40fc61859c8f4bbe7bb76ccf691e6616525c1cefdf2f5ebd3682c8884bd8ded54bf4152b45a8652e965b667de9af0406490445400a837da17bf707"
      ],
      "is_coinbase": false,
      "sequence": 2147483649
    },
    {
      "txid": "7b81bee22303f0a22c8e87a076152c3da0c3c0875b07c307bc2612bc90fe12b1",
      "vout": 5,
      "prevout": {
        "scriptpubkey": "5120c3d69e46947c3cebf7bab290267689c830674218d23350dba14499fa9d55ab0b",
        "scriptpubkey_asm": "OP_PUSHNUM_1 OP_PUSHBYTES_32 c3d69e46947c3cebf7bab290267689c830674218d23350dba14499fa9d55ab0b",
        "scriptpubkey_type": "v1_p2tr",
        "scriptpubkey_address": "bc1pc0tfu3550s7whaa6k2gzva5feqcxwssc6ge4pkapgjvl48244v9shshmyu",
        "value": 600
      },
      "scriptsig": "",
      "scriptsig_asm": "",
      "witness": [
        "ca1c586bae336a6ac98686e30877641a1637f0ed644fa432c41acaeeb4b30944a1dd0a99f57a1d945b1d2fd3adb738aa8a6961b59e3db6398c6bab7c6c7cdf47"
      ],
      "is_coinbase": false,
      "sequence": 2147483649
    },
    {
      "txid": "4f7beda1ad7b85bfd590b774bc6d1ecb3f825d2f477e016591cff5f1745c4068",
      "vout": 1,
      "prevout": {
        "scriptpubkey": "5120f2491e4711cdeb349a49dc9db4c425052c57c1ce3dd42abee6ffb3a3478a3ad8",
        "scriptpubkey_asm": "OP_PUSHNUM_1 OP_PUSHBYTES_32 f2491e4711cdeb349a49dc9db4c425052c57c1ce3dd42abee6ffb3a3478a3ad8",
        "scriptpubkey_type": "v1_p2tr",
        "scriptpubkey_address": "bc1p7fy3u3c3eh4nfxjfmjwmf3p9q5k90sww8h2z40hxl7e6x3u28tvqdk3ad0",
        "value": 546
      },
      "scriptsig": "",
      "scriptsig_asm": "",
      "witness": [
        "01d4f6fab5f79be4fbea2a13bdee6e0b092dfeddf00d2ddc4bed885e41db547b510794621c588f0431c27282409113a649acba2e57d011970e8954b3c4592c8683"
      ],
      "is_coinbase": false,
      "sequence": 4294967295
    },
    {
      "txid": "4c212599cb6cffb090cfe3760201dabcddfe740d6619e16052129639f8c61aad",
      "vout": 1,
      "prevout": {
        "scriptpubkey": "5120c3d69e46947c3cebf7bab290267689c830674218d23350dba14499fa9d55ab0b",
        "scriptpubkey_asm": "OP_PUSHNUM_1 OP_PUSHBYTES_32 c3d69e46947c3cebf7bab290267689c830674218d23350dba14499fa9d55ab0b",
        "scriptpubkey_type": "v1_p2tr",
        "scriptpubkey_address": "bc1pc0tfu3550s7whaa6k2gzva5feqcxwssc6ge4pkapgjvl48244v9shshmyu",
        "value": 256518
      },
      "scriptsig": "",
      "scriptsig_asm": "",
      "witness": [
        "515b36250a1f1b784e54f741031e9746fa4a62b65b31a4cf278829b495304455e5e015a21925225d9bf5b1b6b7645468313eeaaf0fc2662525a77947a48c3ffb"
      ],
      "is_coinbase": false,
      "sequence": 2147483649
    },
    {
      "txid": "2d64665702e94e0f59ed04c1e04aa07b11a8b6e4e2847e06d380085c043459aa",
      "vout": 0,
      "prevout": {
        "scriptpubkey": "5120c3d69e46947c3cebf7bab290267689c830674218d23350dba14499fa9d55ab0b",
        "scriptpubkey_asm": "OP_PUSHNUM_1 OP_PUSHBYTES_32 c3d69e46947c3cebf7bab290267689c830674218d23350dba14499fa9d55ab0b",
        "scriptpubkey_type": "v1_p2tr",
        "scriptpubkey_address": "bc1pc0tfu3550s7whaa6k2gzva5feqcxwssc6ge4pkapgjvl48244v9shshmyu",
        "value": 50973
      },
      "scriptsig": "",
      "scriptsig_asm": "",
      "witness": [
        "e69b5bc9c9d7f8222bc56ffdf076c579c41120ea38aeca305e99c54d80548ebe2006660d481d10af94c2b14b7fd710f9bb2a3780e777ab3987a87430366bd699"
      ],
      "is_coinbase": false,
      "sequence": 2147483649
    },
    {
      "txid": "7b81bee22303f0a22c8e87a076152c3da0c3c0875b07c307bc2612bc90fe12b1",
      "vout": 8,
      "prevout": {
        "scriptpubkey": "5120c3d69e46947c3cebf7bab290267689c830674218d23350dba14499fa9d55ab0b",
        "scriptpubkey_asm": "OP_PUSHNUM_1 OP_PUSHBYTES_32 c3d69e46947c3cebf7bab290267689c830674218d23350dba14499fa9d55ab0b",
        "scriptpubkey_type": "v1_p2tr",
        "scriptpubkey_address": "bc1pc0tfu3550s7whaa6k2gzva5feqcxwssc6ge4pkapgjvl48244v9shshmyu",
        "value": 36652
      },
      "scriptsig": "",
      "scriptsig_asm": "",
      "witness": [
        "fb19b593b57f80f766c255f83e07a95976101fccb760b2caf902b42ed40c7b99ec33ae4b6c8a567acb661619f066fda3f6af5abeb0eb869f7911e6d92faebe32"
      ],
      "is_coinbase": false,
      "sequence": 2147483649
    },
    {
      "txid": "adb0bf93f003bc1cffce1256dbf1286932ae6f630e312c0df0c081670e0ba6d3",
      "vout": 0,
      "prevout": {
        "scriptpubkey": "5120c3d69e46947c3cebf7bab290267689c830674218d23350dba14499fa9d55ab0b",
        "scriptpubkey_asm": "OP_PUSHNUM_1 OP_PUSHBYTES_32 c3d69e46947c3cebf7bab290267689c830674218d23350dba14499fa9d55ab0b",
        "scriptpubkey_type": "v1_p2tr",
        "scriptpubkey_address": "bc1pc0tfu3550s7whaa6k2gzva5feqcxwssc6ge4pkapgjvl48244v9shshmyu",
        "value": 3600
      },
      "scriptsig": "",
      "scriptsig_asm": "",
      "witness": [
        "b36d6972478d6d6d3f5dafa6d213efdb5cc6ca79429a3a0dbe4895e79e71c9382ab4c65206acd3fc4181c90988503131e5e634971afad6017d0d9e69d0d7fdf5"
      ],
      "is_coinbase": false,
      "sequence": 2147483649
    },
    {
      "txid": "d29381af04496c8f4cdaddb03427cca54aa7dcc99313ab9d514c0b1b3fa2b047",
      "vout": 1,
      "prevout": {
        "scriptpubkey": "5120c3d69e46947c3cebf7bab290267689c830674218d23350dba14499fa9d55ab0b",
        "scriptpubkey_asm": "OP_PUSHNUM_1 OP_PUSHBYTES_32 c3d69e46947c3cebf7bab290267689c830674218d23350dba14499fa9d55ab0b",
        "scriptpubkey_type": "v1_p2tr",
        "scriptpubkey_address": "bc1pc0tfu3550s7whaa6k2gzva5feqcxwssc6ge4pkapgjvl48244v9shshmyu",
        "value": 3038
      },
      "scriptsig": "",
      "scriptsig_asm": "",
      "witness": [
        "8bcab203076348e6a74ecec67b386c5be7db9f8ad00d043b557f4e80d3cd6de14050323363f50a93ab5d5cad0d376693f8d29c6436c30e6a7f0cb65f0ca99711"
      ],
      "is_coinbase": false,
      "sequence": 2147483649
    },
    {
      "txid": "7b81bee22303f0a22c8e87a076152c3da0c3c0875b07c307bc2612bc90fe12b1",
      "vout": 0,
      "prevout": {
        "scriptpubkey": "5120c3d69e46947c3cebf7bab290267689c830674218d23350dba14499fa9d55ab0b",
        "scriptpubkey_asm": "OP_PUSHNUM_1 OP_PUSHBYTES_32 c3d69e46947c3cebf7bab290267689c830674218d23350dba14499fa9d55ab0b",
        "scriptpubkey_type": "v1_p2tr",
        "scriptpubkey_address": "bc1pc0tfu3550s7whaa6k2gzva5feqcxwssc6ge4pkapgjvl48244v9shshmyu",
        "value": 1800
      },
      "scriptsig": "",
      "scriptsig_asm": "",
      "witness": [
        "2a90b44c3a4a40d74a9216da1cbce2b73dbf1551038576122ddbabb94ab28bb7890b2eac276b62a2f4f73dd5e89a1b18ceabb086460b367ebd7271edbe343b23"
      ],
      "is_coinbase": false,
      "sequence": 2147483649
    }
  ],
  "vout": [
    {
      "scriptpubkey": "5120c3d69e46947c3cebf7bab290267689c830674218d23350dba14499fa9d55ab0b",
      "scriptpubkey_asm": "OP_PUSHNUM_1 OP_PUSHBYTES_32 c3d69e46947c3cebf7bab290267689c830674218d23350dba14499fa9d55ab0b",
      "scriptpubkey_type": "v1_p2tr",
      "scriptpubkey_address": "bc1pc0tfu3550s7whaa6k2gzva5feqcxwssc6ge4pkapgjvl48244v9shshmyu",
      "value": 1200
    },
    {
      "scriptpubkey": "5120c3d69e46947c3cebf7bab290267689c830674218d23350dba14499fa9d55ab0b",
      "scriptpubkey_asm": "OP_PUSHNUM_1 OP_PUSHBYTES_32 c3d69e46947c3cebf7bab290267689c830674218d23350dba14499fa9d55ab0b",
      "scriptpubkey_type": "v1_p2tr",
      "scriptpubkey_address": "bc1pc0tfu3550s7whaa6k2gzva5feqcxwssc6ge4pkapgjvl48244v9shshmyu",
      "value": 546
    },
    {
      "scriptpubkey": "5120f2491e4711cdeb349a49dc9db4c425052c57c1ce3dd42abee6ffb3a3478a3ad8",
      "scriptpubkey_asm": "OP_PUSHNUM_1 OP_PUSHBYTES_32 f2491e4711cdeb349a49dc9db4c425052c57c1ce3dd42abee6ffb3a3478a3ad8",
      "scriptpubkey_type": "v1_p2tr",
      "scriptpubkey_address": "bc1p7fy3u3c3eh4nfxjfmjwmf3p9q5k90sww8h2z40hxl7e6x3u28tvqdk3ad0",
      "value": 340000
    },
    {
      "scriptpubkey": "5120c3d69e46947c3cebf7bab290267689c830674218d23350dba14499fa9d55ab0b",
      "scriptpubkey_asm": "OP_PUSHNUM_1 OP_PUSHBYTES_32 c3d69e46947c3cebf7bab290267689c830674218d23350dba14499fa9d55ab0b",
      "scriptpubkey_type": "v1_p2tr",
      "scriptpubkey_address": "bc1pc0tfu3550s7whaa6k2gzva5feqcxwssc6ge4pkapgjvl48244v9shshmyu",
      "value": 600
    },
    {
      "scriptpubkey": "5120c3d69e46947c3cebf7bab290267689c830674218d23350dba14499fa9d55ab0b",
      "scriptpubkey_asm": "OP_PUSHNUM_1 OP_PUSHBYTES_32 c3d69e46947c3cebf7bab290267689c830674218d23350dba14499fa9d55ab0b",
      "scriptpubkey_type": "v1_p2tr",
      "scriptpubkey_address": "bc1pc0tfu3550s7whaa6k2gzva5feqcxwssc6ge4pkapgjvl48244v9shshmyu",
      "value": 600
    }
  ],
  "size": 1191,
  "weight": 2973,
  "fee": 11381,
  "status": {
    "confirmed": true,
    "block_height": 834638,
    "block_hash": "000000000000000000025f742c626208ac87e0b7d15054abb4a19ca2d735a54e",
    "block_time": 1710405325
  },
  "hex": "02000000000109d3a60b0e6781c0f00d2c310e636fae326928f1db5612ceff1cbc03f093bfb0ad100000000001000080b112fe90bc1226bc07c3075b87c0c3a03d2c1576a0878e2ca2f00323e2be817b05000000000100008068405c74f1f5cf9165017e472f5d823fcb1e6dbc74b790d5bf857bada1ed7b4f0100000000ffffffffad1ac6f83996125260e119660d74feddbcda010276e3cf90b0ff6ccb9925214c010000000001000080aa5934045c0880d3067e84e2e4b6a8117ba04ae0c104ed590f4ee9025766642d000000000001000080b112fe90bc1226bc07c3075b87c0c3a03d2c1576a0878e2ca2f00323e2be817b080000000001000080d3a60b0e6781c0f00d2c310e636fae326928f1db5612ceff1cbc03f093bfb0ad00000000000100008047b0a23f1b0b4c519dab1393c9dca74aa5cc2734b0ddda4c8f6c4904af8193d2010000000001000080b112fe90bc1226bc07c3075b87c0c3a03d2c1576a0878e2ca2f00323e2be817b00000000000100008005b004000000000000225120c3d69e46947c3cebf7bab290267689c830674218d23350dba14499fa9d55ab0b2202000000000000225120c3d69e46947c3cebf7bab290267689c830674218d23350dba14499fa9d55ab0b2030050000000000225120f2491e4711cdeb349a49dc9db4c425052c57c1ce3dd42abee6ffb3a3478a3ad85802000000000000225120c3d69e46947c3cebf7bab290267689c830674218d23350dba14499fa9d55ab0b5802000000000000225120c3d69e46947c3cebf7bab290267689c830674218d23350dba14499fa9d55ab0b0140c1a873f64f40fc61859c8f4bbe7bb76ccf691e6616525c1cefdf2f5ebd3682c8884bd8ded54bf4152b45a8652e965b667de9af0406490445400a837da17bf7070140ca1c586bae336a6ac98686e30877641a1637f0ed644fa432c41acaeeb4b30944a1dd0a99f57a1d945b1d2fd3adb738aa8a6961b59e3db6398c6bab7c6c7cdf47014101d4f6fab5f79be4fbea2a13bdee6e0b092dfeddf00d2ddc4bed885e41db547b510794621c588f0431c27282409113a649acba2e57d011970e8954b3c4592c86830140515b36250a1f1b784e54f741031e9746fa4a62b65b31a4cf278829b495304455e5e015a21925225d9bf5b1b6b7645468313eeaaf0fc2662525a77947a48c3ffb0140e69b5bc9c9d7f8222bc56ffdf076c579c41120ea38aeca305e99c54d80548ebe2006660d481d10af94c2b14b7fd710f9bb2a3780e777ab3987a87430366bd6990140fb19b593b57f80f766c255f83e07a95976101fccb760b2caf902b42ed40c7b99ec33ae4b6c8a567acb661619f066fda3f6af5abeb0eb869f7911e6d92faebe320140b36d6972478d6d6d3f5dafa6d213efdb5cc6ca79429a3a0dbe4895e79e71c9382ab4c65206acd3fc4181c90988503131e5e634971afad6017d0d9e69d0d7fdf501408bcab203076348e6a74ecec67b386c5be7db9f8ad00d043b557f4e80d3cd6de14050323363f50a93ab5d5cad0d376693f8d29c6436c30e6a7f0cb65f0ca9971101402a90b44c3a4a40d74a9216da1cbce2b73dbf1551038576122ddbabb94ab28bb7890b2eac276b62a2f4f73dd5e89a1b18ceabb086460b367ebd7271edbe343b2300000000"
}