{
  "txid": "a4fada66644d57fd902ba5f9058afc10a79e87a2b3b494355dc178a57f9cf55b",
  "version": 2,
  "locktime": 0,
  "vin": [
    {
      "txid": "641037d87ac3d940393cab653201fc40ec54e8b394e8bb9874a4b6a3a5d00ba4",
      "vout": 1,
      "prevout": {
        "scriptpubkey": "0014c790bd8ecf4db02f353e278f1bce75dece593639",
        "scriptpubkey_asm": "OP_0 OP_PUSHBYTES_20 c790bd8ecf4db02f353e278f1bce75dece593639",
        "scriptpubkey_type": "v0_p2wpkh",
        "scriptpubkey_address": "bc1qc7gtmrk0fkcz7df7y783hnn4mm89jd3e2nw0r6",
        "value": 965779
      },
      "scriptsig": "",
      "scriptsig_asm": "",
      "witness": [
        "30440220631d73e1daa4e97a5ea17ab46a6c9d3b64f4d7e173b33705b6a81b48b2d93c24022051eb859b64c1d9149d0801c5b30bba55b4429237012059b6600fd6d2c89a6b4a01",
        "023543ab095be1ed59d9c93a4682d2496973d19ce4b0254efae47fa3ec736c64f5"
      ],
      "is_coinbase": false,
      "sequence": 4294967293
    },
    {
      "txid": "5b0a91b4189900833b1ffca5614dd82fb106999d89bd5f60cc39227acd5f801d",
      "vout": 1,
      "prevout": {
        "scriptpubkey": "00145fa409fe8526349ab91b03d85c52d6083d5427be",
        "scriptpubkey_asm": "OP_0 OP_PUSHBYTES_20 5fa409fe8526349ab91b03d85c52d6083d5427be",
        "scriptpubkey_type": "v0_p2wpkh",
        "scriptpubkey_address": "bc1qt7jqnl59yc6f4wgmq0v9c5kkpq74gfa7n3kr0l",
        "value": 5366
      },
      "scriptsig": "",
      "scriptsig_asm": "",
      "witness": [
        "304402206e2cbc70725b0f5cdc1fa391d27dfd2c3375d83a91a99f89d07914db442caa9502206f5a31dc20dcee3a1526e3ce3908928e255a3fd87735efe489e741b02ce228b901",
        "032b6cfacb31a0fdc777a103f535220c1306c380187bb116c06323b2ba43f54fde"
      ],
      "is_coinbase": false,
      "sequence": 4294967293
    }
  ],
  "vout": [
    {
      "scriptpubkey": "0014cd7b37bb0f772a0ad6c0a02fb9da5fd28eaee168",
      "scriptpubkey_asm": "OP_0 OP_PUSHBYTES_20 cd7b37bb0f772a0ad6c0a02fb9da5fd28eaee168",
      "scriptpubkey_type": "v0_p2wpkh",
      "scriptpubkey_address": "bc1qe4an0wc0wu4q44kq5qhmnkjl6282actgq8ahga",
      "value": 968162
    }
  ],
  "size": 339,
  "weight": 708,
  "fee": 2983,
  "status": {
    "confirmed": true,
    "block_height": 834552,
    "block_hash": "00000000000000000001dd0468a70c94f619251d286585cff57aeb4bd9ede330",
    "block_time": 1710355598
  },
  "hex": "02000000000102a40bd0a5a3b6a47498bbe894b3e854ec40fc013265ab3c3940d9c37ad83710640100000000fdffffff1d805fcd7a2239cc605fbd899d9906b12fd84d61a5fc1f3b83009918b4910a5b0100000000fdffffff01e2c50e0000000000160014cd7b37bb0f772a0ad6c0a02fb9da5fd28eaee168024730440220631d73e1daa4e97a5ea17ab46a6c9d3b64f4d7e173b33705b6a81b48b2d93c24022051eb859b64c1d9149d0801c5b30bba55b4429237012059b6600fd6d2c89a6b4a0121023543ab095be1ed59d9c93a4682d2496973d19ce4b0254efae47fa3ec736c64f50247304402206e2cbc70725b0f5cdc1fa391d27dfd2c3375d83a91a99f89d07914db442caa9502206f5a31dc20dcee3a1526e3ce3908928e255a3fd87735efe489e741b02ce228b90121032b6cfacb31a0fdc777a103f535220c1306c380187bb116c06323b2ba43f54fde00000000"
}