{
  "txid": "a4ff53c76b2299cd6b45f6e83e76b720ed688054936568774480b11ac3de77bf",
  "version": 2,
  "locktime": 0,
  "vin": [
    {
      "txid": "96bff6fe6806201fa129b67ea06969fb2b8a616d99238aae70adf49b63c454b5",
      "vout": 0,
      "prevout": {
        "scriptpubkey": "5120516b5c3cb7129ff4987dd625806920438406481c3f7a073fe1b73ccb1fab5037",
        "scriptpubkey_asm": "OP_PUSHNUM_1 OP_PUSHBYTES_32 516b5c3cb7129ff4987dd625806920438406481c3f7a073fe1b73ccb1fab5037",
        "scriptpubkey_type": "v1_p2tr",
        "scriptpubkey_address": "bc1p2944c09hz20lfxra6cjcq6fqgwzqvjqu8aaqw0lpku7vk8at2qmsj26k6r",
        "value": 7000
      },
      "scriptsig": "",
      "scriptsig_asm": "",
      "witness": [
        "43c5cacebe04f177b5e897ef880a08d9ad3f541d08b1fac96b1b981b98a7826852877b26b9cacd84aab85ef36189cefa138b76fdc48bd732483a9778bfd5431c",
        "2051256dd6146fe8e6e84cf7750ab9b8717743c4b71c658dcf8098890d71757fdfac",
        "c051256dd6146fe8e6e84cf7750ab9b8717743c4b71c658dcf8098890d71757fdf"
      ],
      "is_coinbase": false,
      "sequence": 4294967293
    }
  ],
  "vout": [
    {
      "scriptpubkey": "51200e37d126ed269d5abe28b298c664f8d99c4d30a7d36c22b7c50126fa3ef78a38",
      "scriptpubkey_asm": "OP_PUSHNUM_1 OP_PUSHBYTES_32 0e37d126ed269d5abe28b298c664f8d99c4d30a7d36c22b7c50126fa3ef78a38",
      "scriptpubkey_type": "v1_p2tr",
      "scriptpubkey_address": "bc1ppcmazfhdy6w4403gk2vvve8cmxwy6v986dkz9d79qyn050hh3guqs0zjt8",
      "value": 2634
    },
    {
      "scriptpubkey": "0014d9d200ae31c054a355cfc8fd0cceae82dd3dff78",
      "scriptpubkey_asm": "OP_0 OP_PUSHBYTES_20 d9d200ae31c054a355cfc8fd0cceae82dd3dff78",
      "scriptpubkey_type": "v0_p2wpkh",
      "scriptpubkey_address": "bc1qm8fqpt33cp22x4w0er7sen4wstwnmlmc6y0ccz",
      "value": 2109
    }
  ],
  "size": 262,
  "weight": 637,
  "fee": 2257,
  "status": {
    "confirmed": true,
    "block_height": 834460,
    "block_hash": "00000000000000000000484a79b643b2524bbce82e5d8a442013fa5b8905ed98",
    "block_time": 1710307468
  },
  "hex": "02000000000101b554c4639bf4ad70ae8a23996d618a2bfb6969a07eb629a11f200668fef6bf960000000000fdffffff024a0a0000000000002251200e37d126ed269d5abe28b298c664f8d99c4d30a7d36c22b7c50126fa3ef78a383d08000000000000160014d9d200ae31c054a355cfc8fd0cceae82dd3dff78034043c5cacebe04f177b5e897ef880a08d9ad3f541d08b1fac96b1b981b98a7826852877b26b9cacd84aab85ef36189cefa138b76fdc48bd732483a9778bfd5431c222051256dd6146fe8e6e84cf7750ab9b8717743c4b71c658dcf8098890d71757fdfac21c051256dd6146fe8e6e84cf7750ab9b8717743c4b71c658dcf8098890d71757fdf00000000"
}