{
  "txid": "a500ce1d4f84a58777321490b47579dd8e3ffa0036df96a07f6a7904eacd8a24",
  "version": 2,
  "locktime": 0,
  "vin": [
    {
      "txid": "8486ecb4df0880316dd6e82b3971b4df187aff23765bc3a47f8d78bb53aa273c",
      "vout": 79,
      "prevout": {
        "scriptpubkey": "512017649a1b1173ac4568fbd6a8a1482772d51643fd7a6059602a272f624f772bbe",
        "scriptpubkey_asm": "OP_PUSHNUM_1 OP_PUSHBYTES_32 17649a1b1173ac4568fbd6a8a1482772d51643fd7a6059602a272f624f772bbe",
        "scriptpubkey_type": "v1_p2tr",
        "scriptpubkey_address": "bc1pzajf5xc3wwky268m6652zjp8wt23vsla0fs9jcp2yuhkynmh9wlqv6gnsg",
        "value": 2575
      },
      "scriptsig": "",
      "scriptsig_asm": "",
      "witness": [
        "e26a46ff4e220baae7a30a52864a37c7a103c8793ec573c03d644ccedc54b597c4457d74118ce6f538e5cb666a2aaa47b7c6eaff8d00cdc8b9ed53ed034f0d2c",
        "204ee359209832d99dc57cac4b0489e2219d3ffb7e2b3f7054a880bab58370a2c1ac0063036f726401010a746578742f706c61696e00367b2270223a226272632d3230222c226f70223a226d696e74222c227469636b223a2261616161222c22616d74223a223130303030227d68",
        "c04ee359209832d99dc57cac4b0489e2219d3ffb7e2b3f7054a880bab58370a2c1"
      ],
      "is_coinbase": false,
      "sequence": 4261412863
    }
  ],
  "vout": [
    {
      "scriptpubkey": "0014ddd7ef12ea6f78edcc1e8e7afa12c01ab59f3339",
      "scriptpubkey_asm": "OP_0 OP_PUSHBYTES_20 ddd7ef12ea6f78edcc1e8e7afa12c01ab59f3339",
      "scriptpubkey_type": "v0_p2wpkh",
      "scriptpubkey_address": "bc1qmht77yh2dauwmnq73ea05ykqr26e7veea8spz6",
      "value": 546
    }
  ],
  "size": 295,
  "weight": 541,
  "fee": 2029,
  "status": {
    "confirmed": true,
    "block_height": 834460,
    "block_hash": "00000000000000000000484a79b643b2524bbce82e5d8a442013fa5b8905ed98",
    "block_time": 1710307468
  },
  "hex": "020000000001013c27aa53bb788d7fa4c35b7623ff7a18dfb471392be8d66d318008dfb4ec86844f00000000fffffffd012202000000000000160014ddd7ef12ea6f78edcc1e8e7afa12c01ab59f33390340e26a46ff4e220baae7a30a52864a37c7a103c8793ec573c03d644ccedc54b597c4457d74118ce6f538e5cb666a2aaa47b7c6eaff8d00cdc8b9ed53ed034f0d2c6e204ee359209832d99dc57cac4b0489e2219d3ffb7e2b3f7054a880bab58370a2c1ac0063036f726401010a746578742f706c61696e00367b2270223a226272632d3230222c226f70223a226d696e74222c227469636b223a2261616161222c22616d74223a223130303030227d6821c04ee359209832d99dc57cac4b0489e2219d3ffb7e2b3f7054a880bab58370a2c100000000"
}