{
  "txid": "a5254f0e7f9171b5bc979917ca87f6bc8419f71fdc3fb512f37965df3b9420a9",
  "version": 2,
  "locktime": 0,
  "vin": [
    {
      "txid": "976b9a8954ceaac465ba640d5330fbc47a6fe51d5e51b4b5e2ab50a3879465af",
      "vout": 1,
      "prevout": {
        "scriptpubkey": "00143b5b48548b07c3491aa00e51b3fe9f599f19cc23",
        "scriptpubkey_asm": "OP_0 OP_PUSHBYTES_20 3b5b48548b07c3491aa00e51b3fe9f599f19cc23",
        "scriptpubkey_type": "v0_p2wpkh",
        "scriptpubkey_address": "bc1q8dd5s4ytqlp5jx4qpegm8l5ltx03nnpr7wlwws",
        "value": 962473
      },
      "scriptsig": "",
      "scriptsig_asm": "",
      "witness": [
        "304402203f9a03864a410f0d0f9d66c7f21ec20604547aa08ef92c70d453f3bee602057202205648cb907ab1eacfd0b1e4d96a98fec5e3b1e60413e59c98506a81fc22e595fe01",
        "03c9e14aff0049eb646a939bd0766feb780b0e5b9c41ad31134e14cbceb9a68882"
      ],
      "is_coinbase": false,
      "sequence": 4294967295
    }
  ],
  "vout": [
    {
      "scriptpubkey": "76a91426468c9edbbe6080f1cf543636c781ea048b6a7d88ac",
      "scriptpubkey_asm": "OP_DUP OP_HASH160 OP_PUSHBYTES_20 26468c9edbbe6080f1cf543636c781ea048b6a7d OP_EQUALVERIFY OP_CHECKSIG",
      "scriptpubkey_type": "p2pkh",
      "scriptpubkey_address": "14VPC9Abo2TDD88QpffXqVCw6miGUgPYLq",
      "value": 185900
    },
    {
      "scriptpubkey": "00149505822e8afaa3c5d9f1ac3178c54659e3626843",
      "scriptpubkey_asm": "OP_0 OP_PUSHBYTES_20 9505822e8afaa3c5d9f1ac3178c54659e3626843",
      "scriptpubkey_type": "v0_p2wpkh",
      "scriptpubkey_address": "bc1qj5zcyt52l23utk034sch332xt83ky6zrn9tu5j",
      "value": 772644
    }
  ],
  "size": 225,
  "weight": 573,
  "fee": 3929,
  "status": {
    "confirmed": true,
    "block_height": 834638,
    "block_hash": "000000000000000000025f742c626208ac87e0b7d15054abb4a19ca2d735a54e",
    "block_time": 1710405325
  },
  "hex": "02000000000101af659487a350abe2b5b4515e1de56f7ac4fb30530d64ba65c4aace54899a6b970100000000ffffffff022cd60200000000001976a91426468c9edbbe6080f1cf543636c781ea048b6a7d88ac24ca0b00000000001600149505822e8afaa3c5d9f1ac3178c54659e36268430247304402203f9a03864a410f0d0f9d66c7f21ec20604547aa08ef92c70d453f3bee602057202205648cb907ab1eacfd0b1e4d96a98fec5e3b1e60413e59c98506a81fc22e595fe012103c9e14aff0049eb646a939bd0766feb780b0e5b9c41ad31134e14cbceb9a6888200000000"
}