{
  "txid": "a52a484dcdbf7ae2c80118dfc72f36116d51b2e2cffd2f4fb327caaf80acf4e7",
  "version": 2,
  "locktime": 0,
  "vin": [
    {
      "txid": "7d59ba08ae4db6190e9cc8893c980f21366ef3d13c8f8eac96940da2ad473cf2",
      "vout": 0,
      "prevout": {
        "scriptpubkey": "0014094aceff0ee2c6ee94faa29decdc7ad7122bc994",
        "scriptpubkey_asm": "OP_0 OP_PUSHBYTES_20 094aceff0ee2c6ee94faa29decdc7ad7122bc994",
        "scriptpubkey_type": "v0_p2wpkh",
        "scriptpubkey_address": "bc1qp99valcwutrwa98652w7ehr66ufzhjv5nc70nl",
        "value": 466889
      },
      "scriptsig": "",
      "scriptsig_asm": "",
      "witness": [
        "30440220047037f332e9b6dc7c18657f2e50fcd0257460f0ed5bf6099a88a1ba1f9ff5f3022053cc90f01b474a0cc7429240a092cf8f7bd5dfe61f1776f970ead734afef6ba201",
        "021af7cb305a429ab16367e9a7c2e7b58f737509aa8069bc78a970dcb1d0d92cd5"
      ],
      "is_coinbase": false,
      "sequence": 4294967293
    }
  ],
  "vout": [
    {
      "scriptpubkey": "0014094aceff0ee2c6ee94faa29decdc7ad7122bc994",
      "scriptpubkey_asm": "OP_0 OP_PUSHBYTES_20 094aceff0ee2c6ee94faa29decdc7ad7122bc994",
      "scriptpubkey_type": "v0_p2wpkh",
      "scriptpubkey_address": "bc1qp99valcwutrwa98652w7ehr66ufzhjv5nc70nl",
      "value": 356423
    },
    {
      "scriptpubkey": "001496e597731aebecdb5aa375cc14a2d801d2f07065",
      "scriptpubkey_asm": "OP_0 OP_PUSHBYTES_20 96e597731aebecdb5aa375cc14a2d801d2f07065",
      "scriptpubkey_type": "v0_p2wpkh",
      "scriptpubkey_address": "bc1qjmjewuc6a0kdkk4rwhxpfgkcq8f0qur9rv4r9t",
      "value": 108936
    }
  ],
  "size": 222,
  "weight": 561,
  "fee": 1530,
  "status": {
    "confirmed": true,
    "block_height": 834464,
    "block_hash": "0000000000000000000177a0869a911a2b65c9bdcd5a8bcb02b68f305bee848e",
    "block_time": 1710308296
  },
  "hex": "02000000000101f23c47ada20d9496ac8e8f3cd1f36e36210f983c89c89c0e19b64dae08ba597d0000000000fdffffff024770050000000000160014094aceff0ee2c6ee94faa29decdc7ad7122bc99488a901000000000016001496e597731aebecdb5aa375cc14a2d801d2f07065024730440220047037f332e9b6dc7c18657f2e50fcd0257460f0ed5bf6099a88a1ba1f9ff5f3022053cc90f01b474a0cc7429240a092cf8f7bd5dfe61f1776f970ead734afef6ba20121021af7cb305a429ab16367e9a7c2e7b58f737509aa8069bc78a970dcb1d0d92cd500000000"
}