{
  "txid": "a54ac8afc3c6dc6dd5f7421e1f5aa2a8dd47c9261de3fabe8a4cf811ed4440a0",
  "version": 1,
  "locktime": 0,
  "vin": [
    {
      "txid": "0c1883e3aaf35b6c5194ac819cd51bf7141882edb97293938bf6be6688734845",
      "vout": 0,
      "prevout": {
        "scriptpubkey": "00141c6977423aa4b82a0d7f8496cdf3fc2f8b4f580c",
        "scriptpubkey_asm": "OP_0 OP_PUSHBYTES_20 1c6977423aa4b82a0d7f8496cdf3fc2f8b4f580c",
        "scriptpubkey_type": "v0_p2wpkh",
        "scriptpubkey_address": "bc1qr35hws365juz5rtlsjtvmulu97957kqvr3zpw3",
        "value": 198706699
      },
      "scriptsig": "",
      "scriptsig_asm": "",
      "witness": [
        "3044022019e3d02a7b01c6f72fc7b2d47c7715330c10e46acee5430500f83df94a69a160022027b3764f94ac8fa8a0072c40cb4c2dfced65a25f24b2c3a5c2c0a593e1b7a70b01",
        "02084ad9ff2a070ef71f32375ff91e5f98448afc62bfb5934c3c15b4348cf11df7"
      ],
      "is_coinbase": false,
      "sequence": 4294967293
    }
  ],
  "vout": [
    {
      "scriptpubkey": "00141c6977423aa4b82a0d7f8496cdf3fc2f8b4f580c",
      "scriptpubkey_asm": "OP_0 OP_PUSHBYTES_20 1c6977423aa4b82a0d7f8496cdf3fc2f8b4f580c",
      "scriptpubkey_type": "v0_p2wpkh",
      "scriptpubkey_address": "bc1qr35hws365juz5rtlsjtvmulu97957kqvr3zpw3",
      "value": 184326748
    },
    {
      "scriptpubkey": "00140c5ab43994079f897d8a07305a7bac9dd8bc7330",
      "scriptpubkey_asm": "OP_0 OP_PUSHBYTES_20 0c5ab43994079f897d8a07305a7bac9dd8bc7330",
      "scriptpubkey_type": "v0_p2wpkh",
      "scriptpubkey_address": "bc1qp3dtgwv5q70cjlv2quc957avnhvtcuesshaxwf",
      "value": 13612926
    },
    {
      "scriptpubkey": "a914d2fcac0bd91d2bcf3292ff65ab2d9b986d28401587",
      "scriptpubkey_asm": "OP_HASH160 OP_PUSHBYTES_20 d2fcac0bd91d2bcf3292ff65ab2d9b986d284015 OP_EQUAL",
      "scriptpubkey_type": "p2sh",
      "scriptpubkey_address": "3LvcWno1MVejp1sZ2JPAgqK6z1EtHorXcJ",
      "value": 497279
    },
    {
      "scriptpubkey": "0014ab5c7f5f8d8932852f67a157f44de8807897172a",
      "scriptpubkey_asm": "OP_0 OP_PUSHBYTES_20 ab5c7f5f8d8932852f67a157f44de8807897172a",
      "scriptpubkey_type": "v0_p2wpkh",
      "scriptpubkey_address": "bc1q4dw87hud3yeg2tm859tlgn0gspufw9e2sp42t7",
      "value": 136275
    },
    {
      "scriptpubkey": "a914bc3401434067a779ec65728eb4dfeeaa9c41b6d087",
      "scriptpubkey_asm": "OP_HASH160 OP_PUSHBYTES_20 bc3401434067a779ec65728eb4dfeeaa9c41b6d0 OP_EQUAL",
      "scriptpubkey_type": "p2sh",
      "scriptpubkey_address": "3Jr9FySXyz9jHyswdY13kxFUpxQsnMLMTF",
      "value": 124077
    }
  ],
  "size": 317,
  "weight": 941,
  "fee": 9394,
  "status": {
    "confirmed": true,
    "block_height": 834638,
    "block_hash": "000000000000000000025f742c626208ac87e0b7d15054abb4a19ca2d735a54e",
    "block_time": 1710405325
  },
  "hex": "010000000001014548738866bef68b939372b9ed821814f71bd59c81ac94516c5bf3aae383180c0000000000fdffffff055c9afc0a000000001600141c6977423aa4b82a0d7f8496cdf3fc2f8b4f580c7eb7cf00000000001600140c5ab43994079f897d8a07305a7bac9dd8bc73307f9607000000000017a914d2fcac0bd91d2bcf3292ff65ab2d9b986d284015875314020000000000160014ab5c7f5f8d8932852f67a157f44de8807897172aade401000000000017a914bc3401434067a779ec65728eb4dfeeaa9c41b6d08702473044022019e3d02a7b01c6f72fc7b2d47c7715330c10e46acee5430500f83df94a69a160022027b3764f94ac8fa8a0072c40cb4c2dfced65a25f24b2c3a5c2c0a593e1b7a70b012102084ad9ff2a070ef71f32375ff91e5f98448afc62bfb5934c3c15b4348cf11df700000000"
}