{
  "txid": "a57adc7478e44365ac3d9c9d4241c77d55678c5fb579a1cce4e202e44a588113",
  "version": 2,
  "locktime": 0,
  "vin": [
    {
      "txid": "5490c8f8648cb9b5fe72daa7198b8fb79702e5277e39026cfacbe047a55b5cba",
      "vout": 0,
      "prevout": {
        "scriptpubkey": "76a9143cf7ae6952a51c8a080d7aabca220cf0c6297e8788ac",
        "scriptpubkey_asm": "OP_DUP OP_HASH160 OP_PUSHBYTES_20 3cf7ae6952a51c8a080d7aabca220cf0c6297e87 OP_EQUALVERIFY OP_CHECKSIG",
        "scriptpubkey_type": "p2pkh",
        "scriptpubkey_address": "16ZNFi4HD3jAgdAEssVRvETGWg88jaQPNj",
        "value": 1559069
      },
      "scriptsig": "483045022100d72bede4f480dd9bf7a4581a4c68cf560aa703270a28f664d2b87640d96339cb0220602bffbdd1bcb549e4bc0a6b6f112a7574a5c5981a55c7bd01200a443c40c50d01210298556a9d61d1ce4dbf4da9b54c4bc7aaa179ef588f939a78921e256e941a0049",
      "scriptsig_asm": "OP_PUSHBYTES_72 3045022100d72bede4f480dd9bf7a4581a4c68cf560aa703270a28f664d2b87640d96339cb0220602bffbdd1bcb549e4bc0a6b6f112a7574a5c5981a55c7bd01200a443c40c50d01 OP_PUSHBYTES_33 0298556a9d61d1ce4dbf4da9b54c4bc7aaa179ef588f939a78921e256e941a0049",
      "is_coinbase": false,
      "sequence": 4294967295
    }
  ],
  "vout": [
    {
      "scriptpubkey": "76a914a7fea9ff82d097fd894f9267e1438df6fef1cff488ac",
      "scriptpubkey_asm": "OP_DUP OP_HASH160 OP_PUSHBYTES_20 a7fea9ff82d097fd894f9267e1438df6fef1cff4 OP_EQUALVERIFY OP_CHECKSIG",
      "scriptpubkey_type": "p2pkh",
      "scriptpubkey_address": "1GKGvQTVcZFshFRzzedPVPRcv7dUF5ANqK",
      "value": 1543144
    }
  ],
  "size": 192,
  "weight": 768,
  "fee": 15925,
  "status": {
    "confirmed": true,
    "block_height": 834638,
    "block_hash": "000000000000000000025f742c626208ac87e0b7d15054abb4a19ca2d735a54e",
    "block_time": 1710405325
  },
  "hex": "0200000001ba5c5ba547e0cbfa6c02397e27e50297b78f8b19a7da72feb5b98c64f8c89054000000006b483045022100d72bede4f480dd9bf7a4581a4c68cf560aa703270a28f664d2b87640d96339cb0220602bffbdd1bcb549e4bc0a6b6f112a7574a5c5981a55c7bd01200a443c40c50d01210298556a9d61d1ce4dbf4da9b54c4bc7aaa179ef588f939a78921e256e941a0049ffffffff01e88b1700000000001976a914a7fea9ff82d097fd894f9267e1438df6fef1cff488ac00000000"
}