{
  "txid": "a57b44f9ab66a9cafd4c33c1a3a5419202e8eff3d357eae002039871e225b57a",
  "version": 2,
  "locktime": 0,
  "vin": [
    {
      "txid": "e60d01f1eeee2dbec06ec3a8d448424ca93ea4dcefc453871fc404580cc03558",
      "vout": 5,
      "prevout": {
        "scriptpubkey": "51208e8ff2c0ac901f115ba54e7ec8a044b7cac32cc31870d10a2c4c81cfe7b99bce",
        "scriptpubkey_asm": "OP_PUSHNUM_1 OP_PUSHBYTES_32 8e8ff2c0ac901f115ba54e7ec8a044b7cac32cc31870d10a2c4c81cfe7b99bce",
        "scriptpubkey_type": "v1_p2tr",
        "scriptpubkey_address": "bc1p368l9s9vjq03zka9felv3gzykl9vxtxrrpcdzz3vfjquleaen08qql3pum",
        "value": 2646
      },
      "scriptsig": "",
      "scriptsig_asm": "",
      "witness": [
        "21392a10551f479d048fc58e9de5199db1aea47b0173e231ca783f4d12c41aa91887603bc69089afb5a1b52f3fa2e3309a0e5d7dd89e09b3a2f8bec562d7d95b",
        "20bde0d01d01e10e5ef6f433a1641034d2154e6c75e3bed38fb4dc0e71e8f39c9bac0063036f726401011e6170706c69636174696f6e2f6a736f6e3b636861727365743d7574662d38004cb77b2270223a22706f772d3230222c226f70223a226d696e74222c227469636b223a2250455045222c22616d74223a2231303030222c22736f6c7574696f6e223a22504550453a3351345a614567486177466561585773437a6d775a743766465543593771377759703a303030303030303030303030303030303030303139393431613561653132383937363539383134343239323533333030353762306461393666336465613163353a3339343232363734313430227d68",
        "c18db7ab6533b96c0773861c29df1705bf8b1dfa6577ecaa232ec7cdccd60ed417"
      ],
      "is_coinbase": false,
      "sequence": 4294967295
    }
  ],
  "vout": [
    {
      "scriptpubkey": "a914f565ec243898a586d6342e6d91e39b804127827787",
      "scriptpubkey_asm": "OP_HASH160 OP_PUSHBYTES_20 f565ec243898a586d6342e6d91e39b8041278277 OP_EQUAL",
      "scriptpubkey_type": "p2sh",
      "scriptpubkey_address": "3Q4ZaEgHawFeaXWsCzmwZt7fFUCY7q7wYp",
      "value": 546
    }
  ],
  "size": 448,
  "weight": 697,
  "fee": 2100,
  "status": {
    "confirmed": true,
    "block_height": 834460,
    "block_hash": "00000000000000000000484a79b643b2524bbce82e5d8a442013fa5b8905ed98",
    "block_time": 1710307468
  },
  "hex": "020000000001015835c00c5804c41f8753c4efdca43ea94c4248d4a8c36ec0be2deeeef1010de60500000000ffffffff01220200000000000017a914f565ec243898a586d6342e6d91e39b804127827787034021392a10551f479d048fc58e9de5199db1aea47b0173e231ca783f4d12c41aa91887603bc69089afb5a1b52f3fa2e3309a0e5d7dd89e09b3a2f8bec562d7d95bfd040120bde0d01d01e10e5ef6f433a1641034d2154e6c75e3bed38fb4dc0e71e8f39c9bac0063036f726401011e6170706c69636174696f6e2f6a736f6e3b636861727365743d7574662d38004cb77b2270223a22706f772d3230222c226f70223a226d696e74222c227469636b223a2250455045222c22616d74223a2231303030222c22736f6c7574696f6e223a22504550453a3351345a614567486177466561585773437a6d775a743766465543593771377759703a303030303030303030303030303030303030303139393431613561653132383937363539383134343239323533333030353762306461393666336465613163353a3339343232363734313430227d6821c18db7ab6533b96c0773861c29df1705bf8b1dfa6577ecaa232ec7cdccd60ed41700000000"
}