{
  "txid": "a5808462a492b788aef259096ff34b63b69def56023c5936672f1dbdc73ba3f3",
  "version": 1,
  "locktime": 0,
  "vin": [
    {
      "txid": "c5fdcb8a4845d6de2e6cec5de816620c8886ddb22d94a10c8ca18d21e1c18720",
      "vout": 1,
      "prevout": {
        "scriptpubkey": "00143ab348101446b0748c2e3c45707a3accbc774fef",
        "scriptpubkey_asm": "OP_0 OP_PUSHBYTES_20 3ab348101446b0748c2e3c45707a3accbc774fef",
        "scriptpubkey_type": "v0_p2wpkh",
        "scriptpubkey_address": "bc1q82e5syq5g6c8frpw83zhq736ej78wnl0957l07",
        "value": 1693317
      },
      "scriptsig": "",
      "scriptsig_asm": "",
      "witness": [
        "30440220620bd228b39e93a1a3af8c47c5a5be5bf84cc8f5cd163f9aa972721260d3a1ff02207e10db3bdff715e40cf96423418b2067857a2ab7c6fe09576d6eb557f6d82a2601",
        "03f0ae46af1848d7dd648e7c7b9b56357d6b9393f48879ee0ca89b15cb1b54a876"
      ],
      "is_coinbase": false,
      "sequence": 4294967295
    }
  ],
  "vout": [
    {
      "scriptpubkey": "a914a69cbe6d4796ee275e6866ba1b3299897556bcd387",
      "scriptpubkey_asm": "OP_HASH160 OP_PUSHBYTES_20 a69cbe6d4796ee275e6866ba1b3299897556bcd3 OP_EQUAL",
      "scriptpubkey_type": "p2sh",
      "scriptpubkey_address": "3Gsys9AWceyZ3EwHmQZFC5tSoNS26QUttj",
      "value": 136363
    },
    {
      "scriptpubkey": "00143e3450ef46fc40ea519828839f06c1be8691a981",
      "scriptpubkey_asm": "OP_0 OP_PUSHBYTES_20 3e3450ef46fc40ea519828839f06c1be8691a981",
      "scriptpubkey_type": "v0_p2wpkh",
      "scriptpubkey_address": "bc1q8c69pm6xl3qw55vc9zpe7pkph6rfr2vp7n7nq7",
      "value": 1554842
    }
  ],
  "size": 223,
  "weight": 565,
  "fee": 2112,
  "status": {
    "confirmed": true,
    "block_height": 834638,
    "block_hash": "000000000000000000025f742c626208ac87e0b7d15054abb4a19ca2d735a54e",
    "block_time": 1710405325
  },
  "hex": "010000000001012087c1e1218da18c0ca1942db2dd86880c6216e85dec6c2eded645488acbfdc50100000000ffffffff02ab1402000000000017a914a69cbe6d4796ee275e6866ba1b3299897556bcd3879ab91700000000001600143e3450ef46fc40ea519828839f06c1be8691a981024730440220620bd228b39e93a1a3af8c47c5a5be5bf84cc8f5cd163f9aa972721260d3a1ff02207e10db3bdff715e40cf96423418b2067857a2ab7c6fe09576d6eb557f6d82a26012103f0ae46af1848d7dd648e7c7b9b56357d6b9393f48879ee0ca89b15cb1b54a87600000000"
}