{
  "txid": "a58f1188e808960d7495c3cc99b7016f790c671f11a399190baa644f518ce2ed",
  "version": 2,
  "locktime": 0,
  "vin": [
    {
      "txid": "6edf24e799b34ec9544100ac68490d80e1ad5905cff85f87ac3cde435114ebda",
      "vout": 0,
      "prevout": {
        "scriptpubkey": "512017522a9cf0cf4bfbed7775d280a95e835896adbf6000022fb5344d4dcc30e9e1",
        "scriptpubkey_asm": "OP_PUSHNUM_1 OP_PUSHBYTES_32 17522a9cf0cf4bfbed7775d280a95e835896adbf6000022fb5344d4dcc30e9e1",
        "scriptpubkey_type": "v1_p2tr",
        "scriptpubkey_address": "bc1pzafz488sea9lhmthwhfgp227sdvfdtdlvqqqyta4x3x5mnpsa8ssh0advc",
        "value": 15464
      },
      "scriptsig": "",
      "scriptsig_asm": "",
      "witness": [
        "5f268d5eeae9103610640b499a2f553ebc9824dfd0618ee0dac2fb068ecded8967c096d571790b3877ac117b9e359e14d06f214961f4664c1cb2042089dd5e08",
        "20f2d00e1cce0b839d2e197679cac7a15152ec244338032c7767f72c1332d49a65ac0063036f7264010109696d6167652f706e67004d080289504e470d0a1a0a0000000d49484452000001f4000001f40806000000cbd6df8a00000006624b474400ff00ff00ffa0bda793000008fb49444154789cedd7b16ad5671c877123c7b160c0c1c5e1e0e02a5829993b24d05b48e77a018e8214b2147a01e702bc816e59324a2844f006e4acd92a76e85050474f0621e01f7ef1e1f3b982eff0be3cfcf61e6c0e3fdd0200be6bb7a7070000df4ed0012040d0012040d0012040d0012040d0012040d0012040d0012040d0012040d0012040d0012040d0012040d0012040d0012040d0012040d0012040d0012040d0012040d0012040d0012040d0012040d0012040d0012040d0012040d0012040d0012040d0012040d0012040d0012040d0012040d0012040d0012040d0012040d0012040d0012040d0012040d0012040d0012040d0012040d0012040d0012040d0012040d0012040d0012040d0012040d0012040d0012040d0012040d0012060353d80a6edd1f9f404806b599f1e4c4f58840b1d0002041d0002041d0002041d0002041d0002041d0002041d0002041d0002041d0002041d0002041d0002041d0002041d0002041d0002041d0002041d0002041d0002041d0002041d0002041d0002041d0002041d0002041d0002041d0002041d0002041d0002041d0002041d0002041d0002041d0002041d0002041d0002041d0002041d0002041d0002041d0002041d0002041d0002041d0002044d08021d0002041d0002041d0002041d0002041d0002041d0002041d0002041d0002041d0002041d000256d303b86a7b743e3d01e05ad6a707d313d8e142078000410780004107800041078000410780004107800041078000410780004107800041078000410780004107800041078000410780004107800041078000410780004107800041078000410780004107800041078000410780004107800041078000410780004107800041078000410780004107800041078000410780004107800041078000410780004107800041078000410780004107800041078000410780004107800041078000410780004107800041078000410780004107800041078080d5f480a56c8fcea7272ce2e3e58be90900d7b23d3a999eb088f5e9c1f48445b8d0012040d0012040d0012040d0012040d0012040d0012040d0012040d0012040d0012040d0012040d0012040d0012040d0012040d0012040d0012040d0012040d0012040d0012040d0012040d0012040d0012040d0012040d0012040d0012040d0012040d0012040d0012040d0012040d0012040d0012040d0012040d0012040d0012040d0012040d0012040d0012040d0012040d0012040d0012040d0012040d0012040d0012040d0012040d0012040d0012040d0012040d0012040d0012040d0012060353d80abde6c5f4d4f60c793f5f1f40476f81f37cbd3fbd30bd8e542078000410780004107804d08020041078000410780004107800041078000410780004107800041078000410780004107800041078000410780004107800041078000410780004107800041078000410780004107800041078000410780004107800041078000410780004107800041078000410780004107800041078000410780004107800041078000410780004107800041078000410780004107800041078000410780004107800041078000410780004107800041078000410780004107800041078080d5f400ae7ab23e9e9eb0881f9ffd333d6111179be905ecfaed8f5fa6272ce262b33f3d612127d303d8e142078000410780004107800041078000410780004107800041078000410780004107800041078000410780004107800041078000410780004107800041078000410780004107800041078000410780004107800041078000410780004107800041078000410780004107800041078000410780004107800041078000410780004107800041078000410780004107800041078000410780004107800041078000410780004107800041078000410780004107800041078000410780004107800041078080d5f4009a2e36fbd31308f2aee0eb5ce8001020e8001020e8001020e8001020e8001020e8001020e8001020e8001020e8001020e8001020e8001020e8001020e8001020e8001020e8001020e8001020e8001020e8001020e8001020e8001020e8004d08021020e8001020e8001020e8001020e8001020e8001020e8001020e8001020e8001020e8001020e8001020e8001020e8001020e8001020e8001020e8001020e8001020e8001020e8001020e8001020e8001020e8001020e8001020e8001020e8001020e8001020e8001020e8001020e80010b09a1e0037d99d9f9e4f4f60c7ff7fff393d016e2c173a0004083a0004083a0004083a0004083a0004083a0004083a0004083a0004083a0004083a0004083a0004083a0004083a0004083a0004083a0004083a0004083a0004083a0004083a0004083a0004083a0004083a0004083a0004083a0004083a0004083a0004083a0004083a0004083a0004083a0004083a0004083a0004083a0004083a0004083a0004083a0004083a0004083a0004083a0004083a0004083a0004083a0004083a0004083a0004083a0004083a0004083a0004083a0004083a0004ec3dd81c7e9a1ec117ef1eff3c3d01e05a1ebe3d9b9ec00e173a0004083a0004083a0004083a0004083a0004083a0004083a0004083a0004083a0004083a0004083a0004083a0004083a0004083a0004083a0004083a0004083a0004083a0004083a0004083a0004083a0004083a0004083a0004083a0004083a0004083a0004083a0004083a0004083a0004083a0004083a0004083a0004083a0004083a0004083a0004083a0004083a0004083a0004083a0004083a0004083a0004083a4d26010004083a0004083a0004083a0004083a0004083a0004083a0004083a0004aca60770d5c3b767d31316f1fee5bfd31316f1e1f2f5f48445fcb57e343d6111bffe776f7ac222eefefec3f404825ce8001020e8001020e8001020e8001020e8001020e8001020e8001020e8001020e8001020e8001020e8001020e8001020e8001020e8001020e8001020e8001020e8001020e8001020e8001020e8001020e8001020e8001020e8001020e8001020e8001020e8001020e8001020e8001020e8001020e8001020e8001020e8001020e8001020e8001020e8001020e8001020e8001020e8001020e8001020e8001020e8001020e8001020e8001020e8001020e8001020e8001020e8001020e8001020e80010f019ecd734044b5efc9b0000000049454e44ae426082680063036f726401011e6170706c69636174696f6e2f6a736f6e3b636861727365743d7574662d38004d5e017b2270223a22766f7264222c2276223a312c227479223a22696e7363222c22636f6c223a2236663262356264386561623232363239313364643865303936343234623735616235663735643438336565396231316437393633323630656635373935653965222c22696964223a225472756d70696e616c73222c227075626c223a2231455337623370636a527a4667796969714c7278484b546e43686535364c4a485937222c226e6f6e6365223a313132312c226d696e746572223a2262633170726c6b737a6e646363656a7573733030763375326468656b7134646a70687a796370387a756771657737386b737634366b6a77716b656575797a222c22736967223a22484534687535437674576b746c7a596e304a2b2b666a4e5233656d766a6e3655534f542f38626b33446b4457477858513969573567326a662b4b4463583354556a34794463745975516f624758477973455a314c5337733d227d68",
        "c0f2d00e1cce0b839d2e197679cac7a15152ec244338032c7767f72c1332d49a65675a92934efa5e4869b2432a3e00abfc6819367af43949c2edc693b32d23ac05"
      ],
      "is_coinbase": false,
      "sequence": 4294967293
    }
  ],
  "vout": [
    {
      "scriptpubkey": "51201fed014db8c665c841ef6478a6df36055b20dc44c04e2e2019778f6832bab49c",
      "scriptpubkey_asm": "OP_PUSHNUM_1 OP_PUSHBYTES_32 1fed014db8c665c841ef6478a6df36055b20dc44c04e2e2019778f6832bab49c",
      "scriptpubkey_type": "v1_p2tr",
      "scriptpubkey_address": "bc1prlkszndccejuss00v3u2dhekq4djphzycp8zugqew78ksv46kjwqkeeuyz",
      "value": 1000
    },
    {
      "scriptpubkey": "0014f51b3223444ae78a097193e3e0e3583321280aa1",
      "scriptpubkey_asm": "OP_0 OP_PUSHBYTES_20 f51b3223444ae78a097193e3e0e3583321280aa1",
      "scriptpubkey_type": "v0_p2wpkh",
      "scriptpubkey_address": "bc1q75dnyg6yftnc5zt3j037pc6cxvsjsz4p39a76q",
      "value": 1439
    },
    {
      "scriptpubkey": "51200705a5767db892e98125775049b1a13dd9ecdc8aea0df413cabbee683e871012",
      "scriptpubkey_asm": "OP_PUSHNUM_1 OP_PUSHBYTES_32 0705a5767db892e98125775049b1a13dd9ecdc8aea0df413cabbee683e871012",
      "scriptpubkey_type": "v1_p2tr",
      "scriptpubkey_address": "bc1pquz62anahzfwnqf9wagynvdp8hv7ehy2agxlgy72h0hxs058zqfqk8ksyq",
      "value": 2993
    }
  ],
  "size": 3142,
  "weight": 3646,
  "fee": 10032,
  "status": {
    "confirmed": true,
    "block_height": 834464,
    "block_hash": "0000000000000000000177a0869a911a2b65c9bdcd5a8bcb02b68f305bee848e",
    "block_time": 1710308296
  },
  "hex": "02000000000101daeb145143de3cac875ff8cf0559ade1800d4968ac004154c94eb399e724df6e0000000000fdffffff03e8030000000000002251201fed014db8c665c841ef6478a6df36055b20dc44c04e2e2019778f6832bab49c9f05000000000000160014f51b3223444ae78a097193e3e0e3583321280aa1b10b0000000000002251200705a5767db892e98125775049b1a13dd9ecdc8aea0df413cabbee683e87101203405f268d5eeae9103610640b499a2f553ebc9824dfd0618ee0dac2fb068ecded8967c096d571790b3877ac117b9e359e14d06f214961f4664c1cb2042089dd5e08fd150b20f2d00e1cce0b839d2e197679cac7a15152ec244338032c7767f72c1332d49a65ac0063036f7264010109696d6167652f706e67004d080289504e470d0a1a0a0000000d49484452000001f4000001f40806000000cbd6df8a00000006624b474400ff00ff00ffa0bda793000008fb49444154789cedd7b16ad5671c877123c7b160c0c1c5e1e0e02a5829993b24d05b48e77a018e8214b2147a01e702bc816e59324a2844f006e4acd92a76e85050474f0621e01f7ef1e1f3b982eff0be3cfcf61e6c0e3fdd0200be6bb7a7070000df4ed0012040d0012040d0012040d0012040d0012040d0012040d0012040d0012040d0012040d0012040d0012040d0012040d0012040d0012040d0012040d0012040d0012040d0012040d0012040d0012040d0012040d0012040d0012040d0012040d0012040d0012040d0012040d0012040d0012040d0012040d0012040d0012040d0012040d0012040d0012040d0012040d0012040d0012040d0012040d0012040d0012040d0012040d0012040d0012040d0012040d0012040d0012040d0012060353d80a6edd1f9f404806b599f1e4c4f58840b1d0002041d0002041d0002041d0002041d0002041d0002041d0002041d0002041d0002041d0002041d0002041d0002041d0002041d0002041d0002041d0002041d0002041d0002041d0002041d0002041d0002041d0002041d0002041d0002041d0002041d0002041d0002041d0002041d0002041d0002041d0002041d0002041d0002041d0002041d0002041d0002041d0002041d0002041d0002044d08021d0002041d0002041d0002041d0002041d0002041d0002041d0002041d0002041d0002041d000256d303b86a7b743e3d01e05ad6a707d313d8e142078000410780004107800041078000410780004107800041078000410780004107800041078000410780004107800041078000410780004107800041078000410780004107800041078000410780004107800041078000410780004107800041078000410780004107800041078000410780004107800041078000410780004107800041078000410780004107800041078000410780004107800041078000410780004107800041078000410780004107800041078000410780004107800041078080d5f480a56c8fcea7272ce2e3e58be90900d7b23d3a999eb088f5e9c1f48445b8d0012040d0012040d0012040d0012040d0012040d0012040d0012040d0012040d0012040d0012040d0012040d0012040d0012040d0012040d0012040d0012040d0012040d0012040d0012040d0012040d0012040d0012040d0012040d0012040d0012040d0012040d0012040d0012040d0012040d0012040d0012040d0012040d0012040d0012040d0012040d0012040d0012040d0012040d0012040d0012040d0012040d0012040d0012040d0012040d0012040d0012040d0012040d0012040d0012060353d80abde6c5f4d4f60c793f5f1f40476f81f37cbd3fbd30bd8e542078000410780004107804d08020041078000410780004107800041078000410780004107800041078000410780004107800041078000410780004107800041078000410780004107800041078000410780004107800041078000410780004107800041078000410780004107800041078000410780004107800041078000410780004107800041078000410780004107800041078000410780004107800041078000410780004107800041078000410780004107800041078000410780004107800041078080d5f400ae7ab23e9e9eb0881f9ffd333d6111179be905ecfaed8f5fa6272ce262b33f3d612127d303d8e142078000410780004107800041078000410780004107800041078000410780004107800041078000410780004107800041078000410780004107800041078000410780004107800041078000410780004107800041078000410780004107800041078000410780004107800041078000410780004107800041078000410780004107800041078000410780004107800041078000410780004107800041078000410780004107800041078000410780004107800041078000410780004107800041078080d5f4009a2e36fbd31308f2aee0eb5ce8001020e8001020e8001020e8001020e8001020e8001020e8001020e8001020e8001020e8001020e8001020e8001020e8001020e8001020e8001020e8001020e8001020e8001020e8001020e8001020e8004d08021020e8001020e8001020e8001020e8001020e8001020e8001020e8001020e8001020e8001020e8001020e8001020e8001020e8001020e8001020e8001020e8001020e8001020e8001020e8001020e8001020e8001020e8001020e8001020e8001020e8001020e8001020e8001020e80010b09a1e0037d99d9f9e4f4f60c7ff7fff393d016e2c173a0004083a0004083a0004083a0004083a0004083a0004083a0004083a0004083a0004083a0004083a0004083a0004083a0004083a0004083a0004083a0004083a0004083a0004083a0004083a0004083a0004083a0004083a0004083a0004083a0004083a0004083a0004083a0004083a0004083a0004083a0004083a0004083a0004083a0004083a0004083a0004083a0004083a0004083a0004083a0004083a0004083a0004083a0004083a0004083a0004083a0004083a0004083a0004083a0004ec3dd81c7e9a1ec117ef1eff3c3d01e05a1ebe3d9b9ec00e173a0004083a0004083a0004083a0004083a0004083a0004083a0004083a0004083a0004083a0004083a0004083a0004083a0004083a0004083a0004083a0004083a0004083a0004083a0004083a0004083a0004083a0004083a0004083a0004083a0004083a0004083a0004083a0004083a0004083a0004083a0004083a0004083a0004083a0004083a0004083a0004083a0004083a0004083a0004083a0004083a0004083a4d26010004083a0004083a0004083a0004083a0004083a0004083a0004083a0004aca60770d5c3b767d31316f1fee5bfd31316f1e1f2f5f48445fcb57e343d6111bffe776f7ac222eefefec3f404825ce8001020e8001020e8001020e8001020e8001020e8001020e8001020e8001020e8001020e8001020e8001020e8001020e8001020e8001020e8001020e8001020e8001020e8001020e8001020e8001020e8001020e8001020e8001020e8001020e8001020e8001020e8001020e8001020e8001020e8001020e8001020e8001020e8001020e8001020e8001020e8001020e8001020e8001020e8001020e8001020e8001020e8001020e8001020e8001020e8001020e8001020e8001020e8001020e80010f019ecd734044b5efc9b0000000049454e44ae426082680063036f726401011e6170706c69636174696f6e2f6a736f6e3b636861727365743d7574662d38004d5e017b2270223a22766f7264222c2276223a312c227479223a22696e7363222c22636f6c223a2236663262356264386561623232363239313364643865303936343234623735616235663735643438336565396231316437393633323630656635373935653965222c22696964223a225472756d70696e616c73222c227075626c223a2231455337623370636a527a4667796969714c7278484b546e43686535364c4a485937222c226e6f6e6365223a313132312c226d696e746572223a2262633170726c6b737a6e646363656a7573733030763375326468656b7134646a70687a796370387a756771657737386b737634366b6a77716b656575797a222c22736967223a22484534687535437674576b746c7a596e304a2b2b666a4e5233656d766a6e3655534f542f38626b33446b4457477858513969573567326a662b4b4463583354556a34794463745975516f624758477973455a314c5337733d227d6841c0f2d00e1cce0b839d2e197679cac7a15152ec244338032c7767f72c1332d49a65675a92934efa5e4869b2432a3e00abfc6819367af43949c2edc693b32d23ac0500000000"
}