{
  "txid": "a59a2b64cfffdced679d468fe7e1e38013af804c6b17db6a70f0ec611801d30e",
  "version": 2,
  "locktime": 834463,
  "vin": [
    {
      "txid": "82fa56e84ec7e396f97806f0617814b2da473e6475be1d93cefa5216ebb473bf",
      "vout": 1,
      "prevout": {
        "scriptpubkey": "00142ff031d3279c350964561a68db57bf92703f297e",
        "scriptpubkey_asm": "OP_0 OP_PUSHBYTES_20 2ff031d3279c350964561a68db57bf92703f297e",
        "scriptpubkey_type": "v0_p2wpkh",
        "scriptpubkey_address": "bc1q9lcrr5e8ns6sjezkrf5dk4aljfcr72t7yvanrd",
        "value": 160786769
      },
      "scriptsig": "",
      "scriptsig_asm": "",
      "witness": [
        "304402204d75c1b7ebeb2d12daf3792cc8fed71eb60f630dcb66e82ceb13b9dfcce6c3da0220230dfb18b2f16bdbbe0135633f8cbcd98b13d8d5de5d1553f91aaba41d257b9601",
        "031b4baebb3102bf433c05d8b465b980317d84cfe9188ba1cd9d873646e4b10027"
      ],
      "is_coinbase": false,
      "sequence": 4294967294
    }
  ],
  "vout": [
    {
      "scriptpubkey": "00141aa9cfe4187fb23615a979430129199cd42bea5c",
      "scriptpubkey_asm": "OP_0 OP_PUSHBYTES_20 1aa9cfe4187fb23615a979430129199cd42bea5c",
      "scriptpubkey_type": "v0_p2wpkh",
      "scriptpubkey_address": "bc1qr25uleqc07erv9df09psz2genn2zh6ju25zy3t",
      "value": 840100
    },
    {
      "scriptpubkey": "00142061b9a346d1236d7514103289744d3944672783",
      "scriptpubkey_asm": "OP_0 OP_PUSHBYTES_20 2061b9a346d1236d7514103289744d3944672783",
      "scriptpubkey_type": "v0_p2wpkh",
      "scriptpubkey_address": "bc1qypsmng6x6y3k6ag5zqegjazd89zxwfurpg8gv8",
      "value": 159943560
    }
  ],
  "size": 222,
  "weight": 561,
  "fee": 3109,
  "status": {
    "confirmed": true,
    "block_height": 834464,
    "block_hash": "0000000000000000000177a0869a911a2b65c9bdcd5a8bcb02b68f305bee848e",
    "block_time": 1710308296
  },
  "hex": "02000000000101bf73b4eb1652face931dbe75643e47dab2147861f00678f996e3c74ee856fa820100000000feffffff02a4d10c00000000001600141aa9cfe4187fb23615a979430129199cd42bea5c888b8809000000001600142061b9a346d1236d7514103289744d39446727830247304402204d75c1b7ebeb2d12daf3792cc8fed71eb60f630dcb66e82ceb13b9dfcce6c3da0220230dfb18b2f16bdbbe0135633f8cbcd98b13d8d5de5d1553f91aaba41d257b960121031b4baebb3102bf433c05d8b465b980317d84cfe9188ba1cd9d873646e4b100279fbb0c00"
}