{
  "txid": "a5a584c1bf3bc1ada56598d97506e82f38261440874af90dc6c21712bde9ba87",
  "version": 2,
  "locktime": 0,
  "vin": [
    {
      "txid": "370ec98d8462dc3392f42c5db11a0513b2a4b7b03f9b0954e737d096fdbd752a",
      "vout": 1,
      "prevout": {
        "scriptpubkey": "00147ba084c6f298a84507c02f0afe098ae5c02b9fdd",
        "scriptpubkey_asm": "OP_0 OP_PUSHBYTES_20 7ba084c6f298a84507c02f0afe098ae5c02b9fdd",
        "scriptpubkey_type": "v0_p2wpkh",
        "scriptpubkey_address": "bc1q0wsgf3hjnz5y2p7q9u90uzv2uhqzh87alffc0y",
        "value": 71706
      },
      "scriptsig": "",
      "scriptsig_asm": "",
      "witness": [
        "3045022100f77490eeef94db598df97c78c9619293d9a3ae97d98455239773612fd8f24b7e0220417cafe9cca51ff4be4dcb24820dcb98c47fd0a774027a2a1f1827cd76a23bdd01",
        "034c5da807deab64aff77815fed260c2d4fe008c93b753f41ff1f95fd161c3dbfc"
      ],
      "is_coinbase": false,
      "sequence": 4294967295
    },
    {
      "txid": "c46b864f1fbb53ab3a65e1b4eb3797b8b4525e56dfba8539a315f5be157c3fe1",
      "vout": 1,
      "prevout": {
        "scriptpubkey": "0014ab8e959308fba40bd79581753278989a3b56a668",
        "scriptpubkey_asm": "OP_0 OP_PUSHBYTES_20 ab8e959308fba40bd79581753278989a3b56a668",
        "scriptpubkey_type": "v0_p2wpkh",
        "scriptpubkey_address": "bc1q4w8ftycglwjqh4u4s96ny7ycnga4dfngvfrm43",
        "value": 4457654
      },
      "scriptsig": "",
      "scriptsig_asm": "",
      "witness": [
        "304402204de59d15a11eb94484a9a263011c759e5799be5164bff82a8da8c5d036aa81640220300febcb1c6be849278095cf802d39310ebf9b67a1cc05384c0b9574ef5ac77701",
        "02b4da1a4c7657840a652484de1c2b3182ca800bf6eee0b7720f01085f4ed84a71"
      ],
      "is_coinbase": false,
      "sequence": 4294967295
    }
  ],
  "vout": [
    {
      "scriptpubkey": "00142ae943e13622270d0ac4efaa4f807a1ca53d71f8",
      "scriptpubkey_asm": "OP_0 OP_PUSHBYTES_20 2ae943e13622270d0ac4efaa4f807a1ca53d71f8",
      "scriptpubkey_type": "v0_p2wpkh",
      "scriptpubkey_address": "bc1q9t558cfkygns6zkya74ylqr6rjjn6u0cfr60uf",
      "value": 370559
    },
    {
      "scriptpubkey": "0014c30ff852338322770285c18be7f953f4e5adfb27",
      "scriptpubkey_asm": "OP_0 OP_PUSHBYTES_20 c30ff852338322770285c18be7f953f4e5adfb27",
      "scriptpubkey_type": "v0_p2wpkh",
      "scriptpubkey_address": "bc1qcv8ls53nsv38wq59cx97072n7nj6m7e8u6gn49",
      "value": 4155075
    }
  ],
  "size": 371,
  "weight": 833,
  "fee": 3726,
  "status": {
    "confirmed": true,
    "block_height": 834638,
    "block_hash": "000000000000000000025f742c626208ac87e0b7d15054abb4a19ca2d735a54e",
    "block_time": 1710405325
  },
  "hex": "020000000001022a75bdfd96d037e754099b3fb0b7a4b213051ab15d2cf49233dc62848dc90e370100000000ffffffffe13f7c15bef515a33985badf565e52b4b89737ebb4e1653aab53bb1f4f866bc40100000000ffffffff027fa70500000000001600142ae943e13622270d0ac4efaa4f807a1ca53d71f8c3663f0000000000160014c30ff852338322770285c18be7f953f4e5adfb2702483045022100f77490eeef94db598df97c78c9619293d9a3ae97d98455239773612fd8f24b7e0220417cafe9cca51ff4be4dcb24820dcb98c47fd0a774027a2a1f1827cd76a23bdd0121034c5da807deab64aff77815fed260c2d4fe008c93b753f41ff1f95fd161c3dbfc0247304402204de59d15a11eb94484a9a263011c759e5799be5164bff82a8da8c5d036aa81640220300febcb1c6be849278095cf802d39310ebf9b67a1cc05384c0b9574ef5ac777012102b4da1a4c7657840a652484de1c2b3182ca800bf6eee0b7720f01085f4ed84a7100000000"
}