{
  "txid": "a5c35b402047c559501762fc78a73315440428deff87f49d9d5bc646ae8db9e9",
  "version": 2,
  "locktime": 0,
  "vin": [
    {
      "txid": "7317682cd4cef5c685de3e54edc9dcb21cb69ed11eeb854f8d0dbc83b98146b5",
      "vout": 0,
      "prevout": {
        "scriptpubkey": "5120a97f0aec2721d4ddd00cff271d3f970d3af99cbb4455cae762ebb1622954f536",
        "scriptpubkey_asm": "OP_PUSHNUM_1 OP_PUSHBYTES_32 a97f0aec2721d4ddd00cff271d3f970d3af99cbb4455cae762ebb1622954f536",
        "scriptpubkey_type": "v1_p2tr",
        "scriptpubkey_address": "bc1p49ls4mp8y82dm5qvlun360uhp5a0n89mg32u4emzawcky22575mqmsl7tm",
        "value": 15253
      },
      "scriptsig": "",
      "scriptsig_asm": "",
      "witness": [
        "ec3dac5e4ab796d7c0262de17e9809827b3ca405c5820f896c9c15031b5bac6d6ecb86f2bd06ee37dd19f72fd7986319a709d18a7d05cc873802efd3fff09bed",
        "20f2d00e1cce0b839d2e197679cac7a15152ec244338032c7767f72c1332d49a65ac0063036f7264010109696d6167652f706e67004d990189504e470d0a1a0a0000000d4948445200000018000000180806000000e0773df800000006624b474400ff00ff00ffa0bda7930000014e494441544889ed542d4fc340187eded19120f8039d0131922dc3cea0163cffe082c020c111a6599093d3f41fe0970a020203091f15158806c40c02b52dec452cd7b5d7f6ee5a243cc9e5eedeebfb3cefc75d813f87fb835b2ef33d5525ef5eef59f95a0b7cbd3533916f6e87467fc756e0e6732bc71a1afd8c11d8d45c57aeccc1ecb25c13f3b07eb612aca987472f233cde01875d549a93e471064208f63c8fe40c94bf8e80a65442081642b06a2b83225147219d4751b491b4cd7bfbf1baee8fd11b7dc77bff780d004044854d7600409645112bf24941471e0be850f7c7a9bd8cda1685020f572dec04a708db43eaf020b7c6d3600200e8f080a7c104617b98c9469b9e247e6af43367bbef1729a13c722bb04b4c580d665ece2e71f3f5c47895330f4d057d302d5c400e346a58b8e90c74b0fad9d992e5c198c16f6125f04ce7042c9b995c576eec3f92f801c88cb46b63e546930000000049454e44ae426082680063036f726401011e6170706c69636174696f6e2f6a736f6e3b636861727365743d7574662d38004d61017b2270223a22766f7264222c2276223a312c227479223a22696e7363222c22636f6c223a2231373730333138363266316463336566336339646536386538303564653334656165353938373464333233396533663731353238306264313134343032626563222c22696964223a224f7264696e616c2050657069746f73222c227075626c223a2231455337623370636a527a4667796969714c7278484b546e43686535364c4a485937222c226e6f6e6365223a32362c226d696e746572223a22626331707432763536747a6473393670306e68356a797a3232336a7238617a377639747263366e71347064373866773870713537333377716b6d766a716b222c22736967223a22484b3266662f6575647446456454413973794557554c73474f743973384c484566596769705355474554314846464f2b794a7034796c6d4c492f695976432f6b32375575464f77534e746d2b6167664a756f6e725062383d227d68",
        "c1f2d00e1cce0b839d2e197679cac7a15152ec244338032c7767f72c1332d49a65675a92934efa5e4869b2432a3e00abfc6819367af43949c2edc693b32d23ac05"
      ],
      "is_coinbase": false,
      "sequence": 4294967293
    }
  ],
  "vout": [
    {
      "scriptpubkey": "51205a994d2c4d817417cef49104a546433f45e61563c6a60a85be3a5c70829e8c5c",
      "scriptpubkey_asm": "OP_PUSHNUM_1 OP_PUSHBYTES_32 5a994d2c4d817417cef49104a546433f45e61563c6a60a85be3a5c70829e8c5c",
      "scriptpubkey_type": "v1_p2tr",
      "scriptpubkey_address": "bc1pt2v56tzds96p0nh5jyz223jr8az7v9trc6nq4pd78fw8pq5733wqkmvjqk",
      "value": 1000
    },
    {
      "scriptpubkey": "76a91403178d77a7110ee45b649df34555054f379261dd88ac",
      "scriptpubkey_asm": "OP_DUP OP_HASH160 OP_PUSHBYTES_20 03178d77a7110ee45b649df34555054f379261dd OP_EQUALVERIFY OP_CHECKSIG",
      "scriptpubkey_type": "p2pkh",
      "scriptpubkey_address": "1HMF3HFqK9unz6fv9ETtWU3YhJU78schp",
      "value": 6725
    },
    {
      "scriptpubkey": "51200705a5767db892e98125775049b1a13dd9ecdc8aea0df413cabbee683e871012",
      "scriptpubkey_asm": "OP_PUSHNUM_1 OP_PUSHBYTES_32 0705a5767db892e98125775049b1a13dd9ecdc8aea0df413cabbee683e871012",
      "scriptpubkey_type": "v1_p2tr",
      "scriptpubkey_address": "bc1pquz62anahzfwnqf9wagynvdp8hv7ehy2agxlgy72h0hxs058zqfqk8ksyq",
      "value": 2897
    }
  ],
  "size": 1171,
  "weight": 1684,
  "fee": 4631,
  "status": {
    "confirmed": true,
    "block_height": 834464,
    "block_hash": "0000000000000000000177a0869a911a2b65c9bdcd5a8bcb02b68f305bee848e",
    "block_time": 1710308296
  },
  "hex": "02000000000101b54681b983bc0d8d4f85eb1ed19eb61cb2dcc9ed543ede85c6f5ced42c6817730000000000fdffffff03e8030000000000002251205a994d2c4d817417cef49104a546433f45e61563c6a60a85be3a5c70829e8c5c451a0000000000001976a91403178d77a7110ee45b649df34555054f379261dd88ac510b0000000000002251200705a5767db892e98125775049b1a13dd9ecdc8aea0df413cabbee683e8710120340ec3dac5e4ab796d7c0262de17e9809827b3ca405c5820f896c9c15031b5bac6d6ecb86f2bd06ee37dd19f72fd7986319a709d18a7d05cc873802efd3fff09bedfd5f0320f2d00e1cce0b839d2e197679cac7a15152ec244338032c7767f72c1332d49a65ac0063036f7264010109696d6167652f706e67004d990189504e470d0a1a0a0000000d4948445200000018000000180806000000e0773df800000006624b474400ff00ff00ffa0bda7930000014e494441544889ed542d4fc340187eded19120f8039d0131922dc3cea0163cffe082c020c111a6599093d3f41fe0970a020203091f15158806c40c02b52dec452cd7b5d7f6ee5a243cc9e5eedeebfb3cefc75d813f87fb835b2ef33d5525ef5eef59f95a0b7cbd3533916f6e87467fc756e0e6732bc71a1afd8c11d8d45c57aeccc1ecb25c13f3b07eb612aca987472f233cde01875d549a93e471064208f63c8fe40c94bf8e80a65442081642b06a2b83225147219d4751b491b4cd7bfbf1baee8fd11b7dc77bff780d004044854d7600409645112bf24941471e0be850f7c7a9bd8cda1685020f572dec04a708db43eaf020b7c6d3600200e8f080a7c104617b98c9469b9e247e6af43367bbef1729a13c722bb04b4c580d665ece2e71f3f5c47895330f4d057d302d5c400e346a58b8e90c74b0fad9d992e5c198c16f6125f04ce7042c9b995c576eec3f92f801c88cb46b63e546930000000049454e44ae426082680063036f726401011e6170706c69636174696f6e2f6a736f6e3b636861727365743d7574662d38004d61017b2270223a22766f7264222c2276223a312c227479223a22696e7363222c22636f6c223a2231373730333138363266316463336566336339646536386538303564653334656165353938373464333233396533663731353238306264313134343032626563222c22696964223a224f7264696e616c2050657069746f73222c227075626c223a2231455337623370636a527a4667796969714c7278484b546e43686535364c4a485937222c226e6f6e6365223a32362c226d696e746572223a22626331707432763536747a6473393670306e68356a797a3232336a7238617a377639747263366e71347064373866773870713537333377716b6d766a716b222c22736967223a22484b3266662f6575647446456454413973794557554c73474f743973384c484566596769705355474554314846464f2b794a7034796c6d4c492f695976432f6b32375575464f77534e746d2b6167664a756f6e725062383d227d6841c1f2d00e1cce0b839d2e197679cac7a15152ec244338032c7767f72c1332d49a65675a92934efa5e4869b2432a3e00abfc6819367af43949c2edc693b32d23ac0500000000"
}