{
  "txid": "a5c80c2ea6f2f0db106cc5d6729768f5c165b7e76803157cee15110c6cd8e782",
  "version": 2,
  "locktime": 0,
  "vin": [
    {
      "txid": "acc3ba00869acb582a3f2904ce3a11dd3779350ce234063fc7d0959246213364",
      "vout": 184,
      "prevout": {
        "scriptpubkey": "5120a8f0b809e58a4da9f1c22d6b07ec26b10d596c7a6ecf0a7da20270bef6a5897a",
        "scriptpubkey_asm": "OP_PUSHNUM_1 OP_PUSHBYTES_32 a8f0b809e58a4da9f1c22d6b07ec26b10d596c7a6ecf0a7da20270bef6a5897a",
        "scriptpubkey_type": "v1_p2tr",
        "scriptpubkey_address": "bc1p4rctsz093fx6nuwz944s0mpxkyx4jmr6dm8s5ldzqfctaa4939aqzytryz",
        "value": 1806
      },
      "scriptsig": "",
      "scriptsig_asm": "",
      "witness": [
        "ccaacac13681e6a20695e7ab4a99e11a4c50e957bacd88a7521545619ec186c08f39b29d73f4a9df0453323aee47710a9980dcfcd69f4018b3bd61453a7fa9fe",
        "2086a2cbcb2c03030214ac69c1343b53576786a1017feda11d4d97c7c53f34dfdcac0063036f726401010a746578742f706c61696e00357b2270223a226272632d3230222c226f70223a226d696e74222c227469636b223a22646f6765222c22616d74223a2234323030227d68",
        "c186a2cbcb2c03030214ac69c1343b53576786a1017feda11d4d97c7c53f34dfdc"
      ],
      "is_coinbase": false,
      "sequence": 4261412863
    }
  ],
  "vout": [
    {
      "scriptpubkey": "00147a665de7a370f4c9b372ab1fae587500a5bcbdb4",
      "scriptpubkey_asm": "OP_0 OP_PUSHBYTES_20 7a665de7a370f4c9b372ab1fae587500a5bcbdb4",
      "scriptpubkey_type": "v0_p2wpkh",
      "scriptpubkey_address": "bc1q0fn9mearwr6vnvmj4v06ukr4qzjme0d565dzcx",
      "value": 294
    }
  ],
  "size": 294,
  "weight": 540,
  "fee": 1512,
  "status": {
    "confirmed": true,
    "block_height": 834460,
    "block_hash": "00000000000000000000484a79b643b2524bbce82e5d8a442013fa5b8905ed98",
    "block_time": 1710307468
  },
  "hex": "02000000000101643321469295d0c73f0634e20c357937dd113ace04293f2a58cb9a8600bac3acb800000000fffffffd0126010000000000001600147a665de7a370f4c9b372ab1fae587500a5bcbdb40340ccaacac13681e6a20695e7ab4a99e11a4c50e957bacd88a7521545619ec186c08f39b29d73f4a9df0453323aee47710a9980dcfcd69f4018b3bd61453a7fa9fe6d2086a2cbcb2c03030214ac69c1343b53576786a1017feda11d4d97c7c53f34dfdcac0063036f726401010a746578742f706c61696e00357b2270223a226272632d3230222c226f70223a226d696e74222c227469636b223a22646f6765222c22616d74223a2234323030227d6821c186a2cbcb2c03030214ac69c1343b53576786a1017feda11d4d97c7c53f34dfdc00000000"
}