{
  "txid": "a5cabbaefa3e764ded60f74344014d496bb07a56f535a6cc25dfbbfd9f6d110f",
  "version": 2,
  "locktime": 0,
  "vin": [
    {
      "txid": "7faf7c5a99b19c25e6169c3c30ee3cfc779b4aca265d2b38cbaa632543ed7c70",
      "vout": 18,
      "prevout": {
        "scriptpubkey": "51207511a2c988a2eeb3a394adf81be28d99803955a9c6e6cc37d2ad88913b3b851e",
        "scriptpubkey_asm": "OP_PUSHNUM_1 OP_PUSHBYTES_32 7511a2c988a2eeb3a394adf81be28d99803955a9c6e6cc37d2ad88913b3b851e",
        "scriptpubkey_type": "v1_p2tr",
        "scriptpubkey_address": "bc1pw5g69jvg5tht8gu54huphc5dnxqrj4dfcmnvcd7j4kyfzwems50qul0rgl",
        "value": 1711
      },
      "scriptsig": "",
      "scriptsig_asm": "",
      "witness": [
        "02",
        "750063036f726401010a746578742f706c61696e00367b2270223a226272632d3230222c226f70223a226d696e74222c227469636b223a2261616161222c22616d74223a223130303030227d6851",
        "c029906f2d3932907433b1c0d930d0c2e2f3db08ec2433732237ccd70c206644f9"
      ],
      "is_coinbase": false,
      "sequence": 4294967295
    }
  ],
  "vout": [
    {
      "scriptpubkey": "0014a40897ac0756778584e7dbe457cca54abc6daf4c",
      "scriptpubkey_asm": "OP_0 OP_PUSHBYTES_20 a40897ac0756778584e7dbe457cca54abc6daf4c",
      "scriptpubkey_type": "v0_p2wpkh",
      "scriptpubkey_address": "bc1q5syf0tq82emctp88m0j90n99f27xmt6v2f79lx",
      "value": 294
    }
  ],
  "size": 200,
  "weight": 446,
  "fee": 1417,
  "status": {
    "confirmed": true,
    "block_height": 834460,
    "block_hash": "00000000000000000000484a79b643b2524bbce82e5d8a442013fa5b8905ed98",
    "block_time": 1710307468
  },
  "hex": "02000000000101707ced432563aacb382b5d26ca4a9b77fc3cee303c9c16e6259cb1995a7caf7f1200000000ffffffff012601000000000000160014a40897ac0756778584e7dbe457cca54abc6daf4c0301024e750063036f726401010a746578742f706c61696e00367b2270223a226272632d3230222c226f70223a226d696e74222c227469636b223a2261616161222c22616d74223a223130303030227d685121c029906f2d3932907433b1c0d930d0c2e2f3db08ec2433732237ccd70c206644f900000000"
}