{
  "txid": "a5d41ca3a3014586573d8a1a88be949bfc65da057485978331062a191ae74435",
  "version": 2,
  "locktime": 0,
  "vin": [
    {
      "txid": "b9f357d83cb3c7e1a11f861540f2ef8f0eb87871f723f91f9a708db0db1bcabf",
      "vout": 9,
      "prevout": {
        "scriptpubkey": "5120655b41713d012b1ef601affba37c0d614c18d6cbc38f75d9749dcccd22f1627d",
        "scriptpubkey_asm": "OP_PUSHNUM_1 OP_PUSHBYTES_32 655b41713d012b1ef601affba37c0d614c18d6cbc38f75d9749dcccd22f1627d",
        "scriptpubkey_type": "v1_p2tr",
        "scriptpubkey_address": "bc1pv4d5zufaqy43aasp4la6xlqdv9xp34ktcw8htkt5nhxv6gh3vf7spntna0",
        "value": 2862
      },
      "scriptsig": "",
      "scriptsig_asm": "",
      "witness": [
        "e465f76fd554f554e6d1673417fb40d687f5f9bd5dfac3f8dad61285a1ef7d922d2ce26d36103a5c82e36c1c4eba1ff969d49ab250f9aac62ed12d876a0a2bb1",
        "20c62d6f1b532b5ddd925b8154e54f07145835e56f5e5fc64394f01bae2b9b888cac0063036f726401011e6170706c69636174696f6e2f6a736f6e3b636861727365743d7574662d38004cd37b2270223a22706f772d3230222c226f70223a226d696e74222c227469636b223a2250455045222c22616d74223a2231303030222c22736f6c7574696f6e223a22504550453a62633170646c6a6d747a783365646e716e7572366332786c6c3277726472787a636e72373270333874636a6b736476306b726c67643268737a3279767a6c3a303030303030303030303030303030303030303139393431613561653132383937363539383134343239323533333030353762306461393666336465613163353a3234303237323434313030227d68",
        "c196123be632ec23e42a1daadb49c59b3ad8ca39108d2d31b6eff3b52b525d1622"
      ],
      "is_coinbase": false,
      "sequence": 4294967295
    }
  ],
  "vout": [
    {
      "scriptpubkey": "51206fe5b588d1cb6609f07ac28dffa9c368cc2c4c7e506275e2568358fb0fe86aaf",
      "scriptpubkey_asm": "OP_PUSHNUM_1 OP_PUSHBYTES_32 6fe5b588d1cb6609f07ac28dffa9c368cc2c4c7e506275e2568358fb0fe86aaf",
      "scriptpubkey_type": "v1_p2tr",
      "scriptpubkey_address": "bc1pdljmtzx3ednqnur6c2xll2wrdrxzcnr72p38tcjksdv0krlgd2hsz2yvzl",
      "value": 546
    }
  ],
  "size": 487,
  "weight": 769,
  "fee": 2316,
  "status": {
    "confirmed": true,
    "block_height": 834460,
    "block_hash": "00000000000000000000484a79b643b2524bbce82e5d8a442013fa5b8905ed98",
    "block_time": 1710307468
  },
  "hex": "02000000000101bfca1bdbb08d709a1ff923f77178b80e8feff24015861fa1e1c7b33cd857f3b90900000000ffffffff0122020000000000002251206fe5b588d1cb6609f07ac28dffa9c368cc2c4c7e506275e2568358fb0fe86aaf0340e465f76fd554f554e6d1673417fb40d687f5f9bd5dfac3f8dad61285a1ef7d922d2ce26d36103a5c82e36c1c4eba1ff969d49ab250f9aac62ed12d876a0a2bb1fd200120c62d6f1b532b5ddd925b8154e54f07145835e56f5e5fc64394f01bae2b9b888cac0063036f726401011e6170706c69636174696f6e2f6a736f6e3b636861727365743d7574662d38004cd37b2270223a22706f772d3230222c226f70223a226d696e74222c227469636b223a2250455045222c22616d74223a2231303030222c22736f6c7574696f6e223a22504550453a62633170646c6a6d747a783365646e716e7572366332786c6c3277726472787a636e72373270333874636a6b736476306b726c67643268737a3279767a6c3a303030303030303030303030303030303030303139393431613561653132383937363539383134343239323533333030353762306461393666336465613163353a3234303237323434313030227d6821c196123be632ec23e42a1daadb49c59b3ad8ca39108d2d31b6eff3b52b525d162200000000"
}