{
  "txid": "a5deda9df42f0b10233d7bb88827df41b63b275eac9ad37df77b42a5f875f068",
  "version": 2,
  "locktime": 0,
  "vin": [
    {
      "txid": "6559cae2510e828441756e5764b2433d8ff3ad52139170189f91ad2d56fc7edb",
      "vout": 0,
      "prevout": {
        "scriptpubkey": "001415f1df49ca04dc0f12f2a883649d772567315c07",
        "scriptpubkey_asm": "OP_0 OP_PUSHBYTES_20 15f1df49ca04dc0f12f2a883649d772567315c07",
        "scriptpubkey_type": "v0_p2wpkh",
        "scriptpubkey_address": "bc1qzhca7jw2qnwq7yhj4zpkf8thy4nnzhq8mc8exx",
        "value": 24707200
      },
      "scriptsig": "",
      "scriptsig_asm": "",
      "witness": [
        "304402202920357a32d4c1f240e6993701ee9fa8bbebfc629679656886e50a945e3e180a022004f41ca739f0ce4b496275048f18bf9d867503ec2c6ac1f06a624c5698acf56c01",
        "03e7c1ddaa1585542d54a55514eb11b6f595a8e7a0f14120a41eece90b5081a8e2"
      ],
      "is_coinbase": false,
      "sequence": 4294967295
    }
  ],
  "vout": [
    {
      "scriptpubkey": "001448738155dbdd3ae1da695b0137e7fac0fd13133b",
      "scriptpubkey_asm": "OP_0 OP_PUSHBYTES_20 48738155dbdd3ae1da695b0137e7fac0fd13133b",
      "scriptpubkey_type": "v0_p2wpkh",
      "scriptpubkey_address": "bc1qfpecz4wmm5awrknftvqn0el6cr73xyem6pyw0p",
      "value": 10000000
    },
    {
      "scriptpubkey": "001443c312f506e34267a826b6dbf244b1874a49ed33",
      "scriptpubkey_asm": "OP_0 OP_PUSHBYTES_20 43c312f506e34267a826b6dbf244b1874a49ed33",
      "scriptpubkey_type": "v0_p2wpkh",
      "scriptpubkey_address": "bc1qg0p39agxudpx02pxkmdly393sa9ynmfn8k79se",
      "value": 14704689
    }
  ],
  "size": 222,
  "weight": 561,
  "fee": 2511,
  "status": {
    "confirmed": true,
    "block_height": 834638,
    "block_hash": "000000000000000000025f742c626208ac87e0b7d15054abb4a19ca2d735a54e",
    "block_time": 1710405325
  },
  "hex": "02000000000101db7efc562dad919f1870911352adf38f3d43b264576e754184820e51e2ca59650000000000ffffffff02809698000000000016001448738155dbdd3ae1da695b0137e7fac0fd13133b3160e0000000000016001443c312f506e34267a826b6dbf244b1874a49ed330247304402202920357a32d4c1f240e6993701ee9fa8bbebfc629679656886e50a945e3e180a022004f41ca739f0ce4b496275048f18bf9d867503ec2c6ac1f06a624c5698acf56c012103e7c1ddaa1585542d54a55514eb11b6f595a8e7a0f14120a41eece90b5081a8e200000000"
}