{
  "txid": "a5dff8ab3c4b4e44770d76111f22a12aafd300f11f23e14ececf8c0a8bf60b16",
  "version": 2,
  "locktime": 0,
  "vin": [
    {
      "txid": "0b120dbf2340254cce77f866a847ad6d7b064eb7100eb5cfd22b53defe26d7d9",
      "vout": 64,
      "prevout": {
        "scriptpubkey": "00148e37c690460a12318e24d70eccf453722f9f76f1",
        "scriptpubkey_asm": "OP_0 OP_PUSHBYTES_20 8e37c690460a12318e24d70eccf453722f9f76f1",
        "scriptpubkey_type": "v0_p2wpkh",
        "scriptpubkey_address": "bc1q3cmudyzxpgfrrr3y6u8veaznwghe7ah3g2mp7a",
        "value": 2816000
      },
      "scriptsig": "",
      "scriptsig_asm": "",
      "witness": [
        "3045022100bff9d35cbf993d72316876d8ec8713b5a70740deea1b627dcec371d318f81e9e022056d467917a4695e6d28b49105c0f49a8c71cc42e69ddfa08b7f698854d28a5e001",
        "02b1b3b517dcbe4e408707dcdfd7bfa8f58c9e808f71edf1e9007342f474b3f9ca"
      ],
      "is_coinbase": false,
      "sequence": 0
    }
  ],
  "vout": [
    {
      "scriptpubkey": "76a91497b1ab4c4164a5347d504fa811eb9a1b67adebfc88ac",
      "scriptpubkey_asm": "OP_DUP OP_HASH160 OP_PUSHBYTES_20 97b1ab4c4164a5347d504fa811eb9a1b67adebfc OP_EQUALVERIFY OP_CHECKSIG",
      "scriptpubkey_type": "p2pkh",
      "scriptpubkey_address": "1Eq5sdnC3v8EvPNG3C53tvcqkRYNe6K36c",
      "value": 200000
    },
    {
      "scriptpubkey": "0014a697ca5c1797c46fbecd4fefc66f7bc6b4a6487e",
      "scriptpubkey_asm": "OP_0 OP_PUSHBYTES_20 a697ca5c1797c46fbecd4fefc66f7bc6b4a6487e",
      "scriptpubkey_type": "v0_p2wpkh",
      "scriptpubkey_address": "bc1q56tu5hqhjlzxl0kdflhuvmmmc662vjr7pvlkkp",
      "value": 2613090
    }
  ],
  "size": 226,
  "weight": 574,
  "fee": 2910,
  "status": {
    "confirmed": true,
    "block_height": 834552,
    "block_hash": "00000000000000000001dd0468a70c94f619251d286585cff57aeb4bd9ede330",
    "block_time": 1710355598
  },
  "hex": "02000000000101d9d726fede532bd2cfb50e10b74e067b6dad47a866f877ce4c254023bf0d120b40000000000000000002400d0300000000001976a91497b1ab4c4164a5347d504fa811eb9a1b67adebfc88ac62df270000000000160014a697ca5c1797c46fbecd4fefc66f7bc6b4a6487e02483045022100bff9d35cbf993d72316876d8ec8713b5a70740deea1b627dcec371d318f81e9e022056d467917a4695e6d28b49105c0f49a8c71cc42e69ddfa08b7f698854d28a5e0012102b1b3b517dcbe4e408707dcdfd7bfa8f58c9e808f71edf1e9007342f474b3f9ca00000000"
}