{
  "txid": "a5e7c8a504837f3c6d3da9133f86d0ad99b7068b819791994d0f88cd9c1107d7",
  "version": 2,
  "locktime": 0,
  "vin": [
    {
      "txid": "7bfca3ccbdd0aa0b1e26cf33b76f74a8400db71afd63de98bbd3f4457cb25f7a",
      "vout": 0,
      "prevout": {
        "scriptpubkey": "00145974105b949ecd5a564f0370b8c37ff6172e1cb5",
        "scriptpubkey_asm": "OP_0 OP_PUSHBYTES_20 5974105b949ecd5a564f0370b8c37ff6172e1cb5",
        "scriptpubkey_type": "v0_p2wpkh",
        "scriptpubkey_address": "bc1qt96pqku5nmx454j0qdct3sml7ctju894ulenhv",
        "value": 439712
      },
      "scriptsig": "",
      "scriptsig_asm": "",
      "witness": [
        "3045022100d2dcd33be9475de83d44e4c8b537628b09d0c0721f3ce4c9b9bacdd07b8f6ec802207d54da25c6c58fee8b45e24ace4d98b6cc588d0133b7ed8173b9528844109b6d01",
        "02f8d60ae007707aa1270311377cddea166f3f7698602739572d09c87dd8278a71"
      ],
      "is_coinbase": false,
      "sequence": 4294967295
    }
  ],
  "vout": [
    {
      "scriptpubkey": "00145974105b949ecd5a564f0370b8c37ff6172e1cb5",
      "scriptpubkey_asm": "OP_0 OP_PUSHBYTES_20 5974105b949ecd5a564f0370b8c37ff6172e1cb5",
      "scriptpubkey_type": "v0_p2wpkh",
      "scriptpubkey_address": "bc1qt96pqku5nmx454j0qdct3sml7ctju894ulenhv",
      "value": 32523
    },
    {
      "scriptpubkey": "00141290feea801e320fd215b5fdc931f8323964635b",
      "scriptpubkey_asm": "OP_0 OP_PUSHBYTES_20 1290feea801e320fd215b5fdc931f8323964635b",
      "scriptpubkey_type": "v0_p2wpkh",
      "scriptpubkey_address": "bc1qz2g0a65qrceql5s4kh7ujv0cxgukgc6mmeg277",
      "value": 405089
    }
  ],
  "size": 223,
  "weight": 562,
  "fee": 2100,
  "status": {
    "confirmed": true,
    "block_height": 834638,
    "block_hash": "000000000000000000025f742c626208ac87e0b7d15054abb4a19ca2d735a54e",
    "block_time": 1710405325
  },
  "hex": "020000000001017a5fb27c45f4d3bb98de63fd1ab70d40a8746fb733cf261e0baad0bdcca3fc7b0000000000ffffffff020b7f0000000000001600145974105b949ecd5a564f0370b8c37ff6172e1cb5612e0600000000001600141290feea801e320fd215b5fdc931f8323964635b02483045022100d2dcd33be9475de83d44e4c8b537628b09d0c0721f3ce4c9b9bacdd07b8f6ec802207d54da25c6c58fee8b45e24ace4d98b6cc588d0133b7ed8173b9528844109b6d012102f8d60ae007707aa1270311377cddea166f3f7698602739572d09c87dd8278a7100000000"
}