{
  "txid": "a5ea6385de15813c0794d96051b474e0d38a50ec551090800c53740a0dbfbea2",
  "version": 1,
  "locktime": 0,
  "vin": [
    {
      "txid": "4fd09b2fc97ae56907fd3c52f70c41ec37bef316a787451d42a053a71b55ec5b",
      "vout": 2792,
      "prevout": {
        "scriptpubkey": "0014e8573d1e94da73e3154b93cd84a8fa52a1bf17b1",
        "scriptpubkey_asm": "OP_0 OP_PUSHBYTES_20 e8573d1e94da73e3154b93cd84a8fa52a1bf17b1",
        "scriptpubkey_type": "v0_p2wpkh",
        "scriptpubkey_address": "bc1qaptn6855mfe7x92tj0xcf28622sm79a39wc9n5",
        "value": 540080
      },
      "scriptsig": "",
      "scriptsig_asm": "",
      "witness": [
        "3043021f5250480e76727b1cd06c429dd57989f968df74a65ea15a93aa388eeadeb5a6022029fd6cbb451b1fb29e484e96553c158778472f5759bc58e895c1fe67d6fda3f601",
        "023d6e9c74eb08bc5760165d43fff9bc718078bd8c5bd0282c5c2773cc4bddd054"
      ],
      "is_coinbase": false,
      "sequence": 4294967295
    },
    {
      "txid": "54ff3435bbde997c9422c4eb5a2b63e1cc68874568dd2bf7e70e16a82be36c59",
      "vout": 579,
      "prevout": {
        "scriptpubkey": "0014ecd02505f17bca8a58c50a7325a1421c12e6f4fc",
        "scriptpubkey_asm": "OP_0 OP_PUSHBYTES_20 ecd02505f17bca8a58c50a7325a1421c12e6f4fc",
        "scriptpubkey_type": "v0_p2wpkh",
        "scriptpubkey_address": "bc1qangz2p03009g5kx9pfejtg2zrsfwda8u909vz0",
        "value": 1030043
      },
      "scriptsig": "",
      "scriptsig_asm": "",
      "witness": [
        "3045022100aaf6732ccca80cc650beaf2881b305154e84c5c5fe20000fb199fb55efac45b002202b97746e927c5e293209cffe8fff8529f9b18c45eb1eb3ed7da0d3a1d37d544301",
        "0268ad4413781f3bd67ed7a2a69c1ff698b164cbcd495554b509e9ad08965428c9"
      ],
      "is_coinbase": false,
      "sequence": 4294967295
    },
    {
      "txid": "bd8235ae96dfa4b135655c453302c5f167944486b15b394947868d37eedfd3ba",
      "vout": 1,
      "prevout": {
        "scriptpubkey": "0014ae2451b4f2fd9630a67066b0a6b673398c8ddf9e",
        "scriptpubkey_asm": "OP_0 OP_PUSHBYTES_20 ae2451b4f2fd9630a67066b0a6b673398c8ddf9e",
        "scriptpubkey_type": "v0_p2wpkh",
        "scriptpubkey_address": "bc1q4cj9rd8jlktrpfnsv6c2ddnn8xxgmhu7u4l6tm",
        "value": 377051
      },
      "scriptsig": "",
      "scriptsig_asm": "",
      "witness": [
        "3044022076b02cb755dcfd2b8e00d974f5861d66b12510e5b4b6164a9d995583b754b493022058d356e7ba67dada3b6b756a8101d545b910ed7a9e64ed2084cbb937876b2f2301",
        "02f095ddd7fa4b28c56fd2680aae798af6a2d688ec0e989692217fc4b7d1e26cd8"
      ],
      "is_coinbase": false,
      "sequence": 4294967295
    },
    {
      "txid": "87d05c901de88685b44ce92c1dfbf525357d5eb8bc4b69f006d5db7a80c2b68f",
      "vout": 2105,
      "prevout": {
        "scriptpubkey": "0014e8573d1e94da73e3154b93cd84a8fa52a1bf17b1",
        "scriptpubkey_asm": "OP_0 OP_PUSHBYTES_20 e8573d1e94da73e3154b93cd84a8fa52a1bf17b1",
        "scriptpubkey_type": "v0_p2wpkh",
        "scriptpubkey_address": "bc1qaptn6855mfe7x92tj0xcf28622sm79a39wc9n5",
        "value": 559548
      },
      "scriptsig": "",
      "scriptsig_asm": "",
      "witness": [
        "3045022100e700075a23b82b3bc2dab48bdd2e73a30d02d7648caecf4a6b3bf32aa0c7a347022033e8835fa27eaeaead83d51bed1558742fe1323abbf357f4b2f5538fa657d6ec01",
        "023d6e9c74eb08bc5760165d43fff9bc718078bd8c5bd0282c5c2773cc4bddd054"
      ],
      "is_coinbase": false,
      "sequence": 4294967295
    }
  ],
  "vout": [
    {
      "scriptpubkey": "0014fa911cd7a5d0906ff55d50ded1ae14a99be5fea0",
      "scriptpubkey_asm": "OP_0 OP_PUSHBYTES_20 fa911cd7a5d0906ff55d50ded1ae14a99be5fea0",
      "scriptpubkey_type": "v0_p2wpkh",
      "scriptpubkey_address": "bc1ql2g3e4a96zgxla2a2r0drts54xd7tl4qsfxmz0",
      "value": 1700000
    },
    {
      "scriptpubkey": "00142d5b4ee413c952ef166ed62bf10130fe1411e4cf",
      "scriptpubkey_asm": "OP_0 OP_PUSHBYTES_20 2d5b4ee413c952ef166ed62bf10130fe1411e4cf",
      "scriptpubkey_type": "v0_p2wpkh",
      "scriptpubkey_address": "bc1q94d5aeqne9fw79nw6c4lzqfslc2prex026enjr",
      "value": 801502
    }
  ],
  "size": 667,
  "weight": 1375,
  "fee": 5220,
  "status": {
    "confirmed": true,
    "block_height": 834638,
    "block_hash": "000000000000000000025f742c626208ac87e0b7d15054abb4a19ca2d735a54e",
    "block_time": 1710405325
  },
  "hex": "010000000001045bec551ba753a0421d4587a716f3be37ec410cf7523cfd0769e57ac92f9bd04fe80a000000ffffffff596ce32ba8160ee7f72bdd68458768cce1632b5aebc422947c99debb3534ff544302000000ffffffffbad3dfee378d864749395bb186449467f1c50233455c6535b1a4df96ae3582bd0100000000ffffffff8fb6c2807adbd506f0694bbcb85e7d3525f5fb1d2ce94cb48586e81d905cd0873908000000ffffffff02a0f0190000000000160014fa911cd7a5d0906ff55d50ded1ae14a99be5fea0de3a0c00000000001600142d5b4ee413c952ef166ed62bf10130fe1411e4cf02463043021f5250480e76727b1cd06c429dd57989f968df74a65ea15a93aa388eeadeb5a6022029fd6cbb451b1fb29e484e96553c158778472f5759bc58e895c1fe67d6fda3f60121023d6e9c74eb08bc5760165d43fff9bc718078bd8c5bd0282c5c2773cc4bddd05402483045022100aaf6732ccca80cc650beaf2881b305154e84c5c5fe20000fb199fb55efac45b002202b97746e927c5e293209cffe8fff8529f9b18c45eb1eb3ed7da0d3a1d37d544301210268ad4413781f3bd67ed7a2a69c1ff698b164cbcd495554b509e9ad08965428c902473044022076b02cb755dcfd2b8e00d974f5861d66b12510e5b4b6164a9d995583b754b493022058d356e7ba67dada3b6b756a8101d545b910ed7a9e64ed2084cbb937876b2f23012102f095ddd7fa4b28c56fd2680aae798af6a2d688ec0e989692217fc4b7d1e26cd802483045022100e700075a23b82b3bc2dab48bdd2e73a30d02d7648caecf4a6b3bf32aa0c7a347022033e8835fa27eaeaead83d51bed1558742fe1323abbf357f4b2f5538fa657d6ec0121023d6e9c74eb08bc5760165d43fff9bc718078bd8c5bd0282c5c2773cc4bddd05400000000"
}