{
  "txid": "a5f39ae2623d4ca3c8c2625b755315d35570bbc8d9a49bc0331d3bfc0a4487f8",
  "version": 2,
  "locktime": 0,
  "vin": [
    {
      "txid": "246d654c08ac53d370d501753f3ac2c90861e2c8cea715ed4b7554841cced399",
      "vout": 80,
      "prevout": {
        "scriptpubkey": "51205489884136277dd4dc6a70dc7b1da712648979a5d6fab9021a34a7b29c023807",
        "scriptpubkey_asm": "OP_PUSHNUM_1 OP_PUSHBYTES_32 5489884136277dd4dc6a70dc7b1da712648979a5d6fab9021a34a7b29c023807",
        "scriptpubkey_type": "v1_p2tr",
        "scriptpubkey_address": "bc1p2jycssfkya7afhr2wrw8k8d8zfjgj7d96matjqs6xjnm98qz8qrs9ydlsp",
        "value": 3055
      },
      "scriptsig": "",
      "scriptsig_asm": "",
      "witness": [
        "39995a48fe847f70b598080e7af3666535245b1a9bb4ca6ea5dc4d538d8de69d230bd905508fe4c35fb2f14d48931484ece3daba1c802d98bee6a340f26b358f",
        "20db482864b4d090938b89b0478ce80b52c1eec8330189975d7ec7e3097c2268d8ac0063036f726401011e6170706c69636174696f6e2f6a736f6e3b636861727365743d7574662d38004cd37b2270223a22706f772d3230222c226f70223a226d696e74222c227469636b223a2250455045222c22616d74223a2231303030222c22736f6c7574696f6e223a22504550453a62633170756a666d33753333656e70786b38383339796c6b3239323239396b6e6467686c717468396e39647a6c7663647635617076366a717732776e71663a303030303030303030303030303030303030303139393431613561653132383937363539383134343239323533333030353762306461393666336465613163353a3532303635313131343430227d68",
        "c1f4929cb66946e40c5d3e5e2b126f88b9a6070d7490abd3aa8e42bf5bbcfe7b9f"
      ],
      "is_coinbase": false,
      "sequence": 4294967295
    }
  ],
  "vout": [
    {
      "scriptpubkey": "5120e493b8f231ccc26b1cf1293f65154a296d36a2ff02ee5995a2fb30d653a166a4",
      "scriptpubkey_asm": "OP_PUSHNUM_1 OP_PUSHBYTES_32 e493b8f231ccc26b1cf1293f65154a296d36a2ff02ee5995a2fb30d653a166a4",
      "scriptpubkey_type": "v1_p2tr",
      "scriptpubkey_address": "bc1pujfm3u33enpxk8839ylk292299kndghlqth9n9dzlvcdv5apv6jqw2wnqf",
      "value": 546
    }
  ],
  "size": 487,
  "weight": 769,
  "fee": 2509,
  "status": {
    "confirmed": true,
    "block_height": 834460,
    "block_hash": "00000000000000000000484a79b643b2524bbce82e5d8a442013fa5b8905ed98",
    "block_time": 1710307468
  },
  "hex": "0200000000010199d3ce1c8454754bed15a7cec8e26108c9c23a3f7501d570d353ac084c656d245000000000ffffffff012202000000000000225120e493b8f231ccc26b1cf1293f65154a296d36a2ff02ee5995a2fb30d653a166a4034039995a48fe847f70b598080e7af3666535245b1a9bb4ca6ea5dc4d538d8de69d230bd905508fe4c35fb2f14d48931484ece3daba1c802d98bee6a340f26b358ffd200120db482864b4d090938b89b0478ce80b52c1eec8330189975d7ec7e3097c2268d8ac0063036f726401011e6170706c69636174696f6e2f6a736f6e3b636861727365743d7574662d38004cd37b2270223a22706f772d3230222c226f70223a226d696e74222c227469636b223a2250455045222c22616d74223a2231303030222c22736f6c7574696f6e223a22504550453a62633170756a666d33753333656e70786b38383339796c6b3239323239396b6e6467686c717468396e39647a6c7663647635617076366a717732776e71663a303030303030303030303030303030303030303139393431613561653132383937363539383134343239323533333030353762306461393666336465613163353a3532303635313131343430227d6821c1f4929cb66946e40c5d3e5e2b126f88b9a6070d7490abd3aa8e42bf5bbcfe7b9f00000000"
}