{
  "txid": "a607ccec4fdad256f948d083afab8498f4348abf7a25e2d5003b2098fe5e85ef",
  "version": 2,
  "locktime": 0,
  "vin": [
    {
      "txid": "e335cdf46e8588d9247bdc04cb0aa62dbe31f3955987e28c37463672387c6018",
      "vout": 4,
      "prevout": {
        "scriptpubkey": "5120707bab49e63afb7796a18b188dc2a7deeaeaa4a5eab270bcc71140486c9b4c54",
        "scriptpubkey_asm": "OP_PUSHNUM_1 OP_PUSHBYTES_32 707bab49e63afb7796a18b188dc2a7deeaeaa4a5eab270bcc71140486c9b4c54",
        "scriptpubkey_type": "v1_p2tr",
        "scriptpubkey_address": "bc1pwpa6kj0x8tah094p3vvgms48mm4w4f99a2e8p0x8z9qysmymf32qwvvtz8",
        "value": 600
      },
      "scriptsig": "",
      "scriptsig_asm": "",
      "witness": [
        "8295f8f215f6823715750ca3d33751033cbb2478e7d674c8600741a0dcade8c848860a241dc3a8c823ba88456f72c5ad826413f2ac76e86495d9b7fde142c9dd"
      ],
      "is_coinbase": false,
      "sequence": 4294967295
    },
    {
      "txid": "e335cdf46e8588d9247bdc04cb0aa62dbe31f3955987e28c37463672387c6018",
      "vout": 3,
      "prevout": {
        "scriptpubkey": "5120707bab49e63afb7796a18b188dc2a7deeaeaa4a5eab270bcc71140486c9b4c54",
        "scriptpubkey_asm": "OP_PUSHNUM_1 OP_PUSHBYTES_32 707bab49e63afb7796a18b188dc2a7deeaeaa4a5eab270bcc71140486c9b4c54",
        "scriptpubkey_type": "v1_p2tr",
        "scriptpubkey_address": "bc1pwpa6kj0x8tah094p3vvgms48mm4w4f99a2e8p0x8z9qysmymf32qwvvtz8",
        "value": 600
      },
      "scriptsig": "",
      "scriptsig_asm": "",
      "witness": [
        "48a6e4f0df666a7b2d5cd98483be60644f5e09c3762a942f7cfd849e903668d206ce120b847171c825608639e537163c495b331ace993b55cd97ea84ccca85c4"
      ],
      "is_coinbase": false,
      "sequence": 4294967295
    },
    {
      "txid": "bcbffa5d36c996b8515f2cb679181e9d7ccc9337db6ff48748b1ad3245871508",
      "vout": 0,
      "prevout": {
        "scriptpubkey": "5120ea196380157b059589d8cdd402d7cbef10d921ed76ff909d53c2e8711409615a",
        "scriptpubkey_asm": "OP_PUSHNUM_1 OP_PUSHBYTES_32 ea196380157b059589d8cdd402d7cbef10d921ed76ff909d53c2e8711409615a",
        "scriptpubkey_type": "v1_p2tr",
        "scriptpubkey_address": "bc1pagvk8qq40vzetzwceh2q947taugdjg0dwmlep82nct58z9qfv9dqcdsw5q",
        "value": 546
      },
      "scriptsig": "",
      "scriptsig_asm": "",
      "witness": [
        "b99d1088da1db7ca944c525a23df770f198397920bc8b115344f4aec1c4a5e48f2e27b70a782e31811f8c39dccd18ea76a808e88750b8fcee82e8652a50433c783"
      ],
      "is_coinbase": false,
      "sequence": 4294967295
    },
    {
      "txid": "44cc3bee1d1267b4b721c842eba0dfbe63cf6f97eae1872c69fba7f10b9d208b",
      "vout": 1,
      "prevout": {
        "scriptpubkey": "5120707bab49e63afb7796a18b188dc2a7deeaeaa4a5eab270bcc71140486c9b4c54",
        "scriptpubkey_asm": "OP_PUSHNUM_1 OP_PUSHBYTES_32 707bab49e63afb7796a18b188dc2a7deeaeaa4a5eab270bcc71140486c9b4c54",
        "scriptpubkey_type": "v1_p2tr",
        "scriptpubkey_address": "bc1pwpa6kj0x8tah094p3vvgms48mm4w4f99a2e8p0x8z9qysmymf32qwvvtz8",
        "value": 210821
      },
      "scriptsig": "",
      "scriptsig_asm": "",
      "witness": [
        "b90d2a6355291e634687e909c2a883212e769bf1e2011be340fd47a6c61d0c6b399b6da8e7d37b89c88b2efa9c205da75487b8c77c927d6607a817b52b18d19a"
      ],
      "is_coinbase": false,
      "sequence": 4294967295
    }
  ],
  "vout": [
    {
      "scriptpubkey": "5120707bab49e63afb7796a18b188dc2a7deeaeaa4a5eab270bcc71140486c9b4c54",
      "scriptpubkey_asm": "OP_PUSHNUM_1 OP_PUSHBYTES_32 707bab49e63afb7796a18b188dc2a7deeaeaa4a5eab270bcc71140486c9b4c54",
      "scriptpubkey_type": "v1_p2tr",
      "scriptpubkey_address": "bc1pwpa6kj0x8tah094p3vvgms48mm4w4f99a2e8p0x8z9qysmymf32qwvvtz8",
      "value": 1200
    },
    {
      "scriptpubkey": "5120707bab49e63afb7796a18b188dc2a7deeaeaa4a5eab270bcc71140486c9b4c54",
      "scriptpubkey_asm": "OP_PUSHNUM_1 OP_PUSHBYTES_32 707bab49e63afb7796a18b188dc2a7deeaeaa4a5eab270bcc71140486c9b4c54",
      "scriptpubkey_type": "v1_p2tr",
      "scriptpubkey_address": "bc1pwpa6kj0x8tah094p3vvgms48mm4w4f99a2e8p0x8z9qysmymf32qwvvtz8",
      "value": 546
    },
    {
      "scriptpubkey": "5120ea196380157b059589d8cdd402d7cbef10d921ed76ff909d53c2e8711409615a",
      "scriptpubkey_asm": "OP_PUSHNUM_1 OP_PUSHBYTES_32 ea196380157b059589d8cdd402d7cbef10d921ed76ff909d53c2e8711409615a",
      "scriptpubkey_type": "v1_p2tr",
      "scriptpubkey_address": "bc1pagvk8qq40vzetzwceh2q947taugdjg0dwmlep82nct58z9qfv9dqcdsw5q",
      "value": 168000
    },
    {
      "scriptpubkey": "5120707bab49e63afb7796a18b188dc2a7deeaeaa4a5eab270bcc71140486c9b4c54",
      "scriptpubkey_asm": "OP_PUSHNUM_1 OP_PUSHBYTES_32 707bab49e63afb7796a18b188dc2a7deeaeaa4a5eab270bcc71140486c9b4c54",
      "scriptpubkey_type": "v1_p2tr",
      "scriptpubkey_address": "bc1pwpa6kj0x8tah094p3vvgms48mm4w4f99a2e8p0x8z9qysmymf32qwvvtz8",
      "value": 600
    },
    {
      "scriptpubkey": "5120707bab49e63afb7796a18b188dc2a7deeaeaa4a5eab270bcc71140486c9b4c54",
      "scriptpubkey_asm": "OP_PUSHNUM_1 OP_PUSHBYTES_32 707bab49e63afb7796a18b188dc2a7deeaeaa4a5eab270bcc71140486c9b4c54",
      "scriptpubkey_type": "v1_p2tr",
      "scriptpubkey_address": "bc1pwpa6kj0x8tah094p3vvgms48mm4w4f99a2e8p0x8z9qysmymf32qwvvtz8",
      "value": 600
    },
    {
      "scriptpubkey": "5120707bab49e63afb7796a18b188dc2a7deeaeaa4a5eab270bcc71140486c9b4c54",
      "scriptpubkey_asm": "OP_PUSHNUM_1 OP_PUSHBYTES_32 707bab49e63afb7796a18b188dc2a7deeaeaa4a5eab270bcc71140486c9b4c54",
      "scriptpubkey_type": "v1_p2tr",
      "scriptpubkey_address": "bc1pwpa6kj0x8tah094p3vvgms48mm4w4f99a2e8p0x8z9qysmymf32qwvvtz8",
      "value": 33138
    }
  ],
  "size": 699,
  "weight": 1995,
  "fee": 8483,
  "status": {
    "confirmed": true,
    "block_height": 834638,
    "block_hash": "000000000000000000025f742c626208ac87e0b7d15054abb4a19ca2d735a54e",
    "block_time": 1710405325
  },
  "hex": "0200000000010418607c38723646378ce2875995f331be2da60acb04dc7b24d988856ef4cd35e30400000000ffffffff18607c38723646378ce2875995f331be2da60acb04dc7b24d988856ef4cd35e30300000000ffffffff0815874532adb14887f46fdb3793cc7c9d1e1879b62c5f51b896c9365dfabfbc0000000000ffffffff8b209d0bf1a7fb692c87e1ea976fcf63bedfa0eb42c821b7b467121dee3bcc440100000000ffffffff06b004000000000000225120707bab49e63afb7796a18b188dc2a7deeaeaa4a5eab270bcc71140486c9b4c542202000000000000225120707bab49e63afb7796a18b188dc2a7deeaeaa4a5eab270bcc71140486c9b4c544090020000000000225120ea196380157b059589d8cdd402d7cbef10d921ed76ff909d53c2e8711409615a5802000000000000225120707bab49e63afb7796a18b188dc2a7deeaeaa4a5eab270bcc71140486c9b4c545802000000000000225120707bab49e63afb7796a18b188dc2a7deeaeaa4a5eab270bcc71140486c9b4c547281000000000000225120707bab49e63afb7796a18b188dc2a7deeaeaa4a5eab270bcc71140486c9b4c5401408295f8f215f6823715750ca3d33751033cbb2478e7d674c8600741a0dcade8c848860a241dc3a8c823ba88456f72c5ad826413f2ac76e86495d9b7fde142c9dd014048a6e4f0df666a7b2d5cd98483be60644f5e09c3762a942f7cfd849e903668d206ce120b847171c825608639e537163c495b331ace993b55cd97ea84ccca85c40141b99d1088da1db7ca944c525a23df770f198397920bc8b115344f4aec1c4a5e48f2e27b70a782e31811f8c39dccd18ea76a808e88750b8fcee82e8652a50433c7830140b90d2a6355291e634687e909c2a883212e769bf1e2011be340fd47a6c61d0c6b399b6da8e7d37b89c88b2efa9c205da75487b8c77c927d6607a817b52b18d19a00000000"
}