{
  "txid": "a60ac4cfdea2a39e53241ad5636f993bdef01463e81082de8b41b0a83b6d8654",
  "version": 2,
  "locktime": 0,
  "vin": [
    {
      "txid": "426f08fbaaacdc4b13cb6f428c89487358ea4dac9ed7948a96cfaa3f67ad9d67",
      "vout": 28,
      "prevout": {
        "scriptpubkey": "5120b75aa34869464820d07f40a3f5c37fb115702377ba848c2827a9c2811ea09277",
        "scriptpubkey_asm": "OP_PUSHNUM_1 OP_PUSHBYTES_32 b75aa34869464820d07f40a3f5c37fb115702377ba848c2827a9c2811ea09277",
        "scriptpubkey_type": "v1_p2tr",
        "scriptpubkey_address": "bc1pkad2xjrfgeyzp5rlgz3ltsmlky2hqgmhh2zgc2p848pgz84qjfms6y97n4",
        "value": 4599
      },
      "scriptsig": "",
      "scriptsig_asm": "",
      "witness": [
        "899bab252d1d4f546d66225246963efbbd5a27c44b4e07c6607a5a9d900d30b0b00f22357910996ff74febd8367f73824fcd8ab184d69cf4eef896c273a819e7",
        "2036ed7ce9c50745957fc1ef003d17a16ed615bd89ebc0ab4af951655ce2b2a262ac0063036f726401011e6170706c69636174696f6e2f6a736f6e3b636861727365743d7574662d38004cd37b2270223a22706f772d3230222c226f70223a226d696e74222c227469636b223a2250455045222c22616d74223a2231303030222c22736f6c7574696f6e223a22504550453a62633170636a65387233733875656e746d64767a6e34777337786d3836367879707535756139357371796877756835616d61677565367a73707a733637713a303030303030303030303030303030303030303139393431613561653132383937363539383134343239323533333030353762306461393666336465613163353a3132363237393039323137227d68",
        "c1039ed2fd528e891a28907036b81ec900320c2b9f26f0b27e7e5cfd0fc9102a4d"
      ],
      "is_coinbase": false,
      "sequence": 4294967295
    }
  ],
  "vout": [
    {
      "scriptpubkey": "5120c4b271c607e666bdb5829d5d0f1b67d68c40f29ce9690012eee5e9ddf51cce85",
      "scriptpubkey_asm": "OP_PUSHNUM_1 OP_PUSHBYTES_32 c4b271c607e666bdb5829d5d0f1b67d68c40f29ce9690012eee5e9ddf51cce85",
      "scriptpubkey_type": "v1_p2tr",
      "scriptpubkey_address": "bc1pcje8r3s8uentmdvzn4ws7xm866xypu5ua95sqyhwuh5amague6zspzs67q",
      "value": 546
    }
  ],
  "size": 487,
  "weight": 769,
  "fee": 4053,
  "status": {
    "confirmed": true,
    "block_height": 834460,
    "block_hash": "00000000000000000000484a79b643b2524bbce82e5d8a442013fa5b8905ed98",
    "block_time": 1710307468
  },
  "hex": "02000000000101679dad673faacf968a94d79eac4dea587348898c426fcb134bdcacaafb086f421c00000000ffffffff012202000000000000225120c4b271c607e666bdb5829d5d0f1b67d68c40f29ce9690012eee5e9ddf51cce850340899bab252d1d4f546d66225246963efbbd5a27c44b4e07c6607a5a9d900d30b0b00f22357910996ff74febd8367f73824fcd8ab184d69cf4eef896c273a819e7fd20012036ed7ce9c50745957fc1ef003d17a16ed615bd89ebc0ab4af951655ce2b2a262ac0063036f726401011e6170706c69636174696f6e2f6a736f6e3b636861727365743d7574662d38004cd37b2270223a22706f772d3230222c226f70223a226d696e74222c227469636b223a2250455045222c22616d74223a2231303030222c22736f6c7574696f6e223a22504550453a62633170636a65387233733875656e746d64767a6e34777337786d3836367879707535756139357371796877756835616d61677565367a73707a733637713a303030303030303030303030303030303030303139393431613561653132383937363539383134343239323533333030353762306461393666336465613163353a3132363237393039323137227d6821c1039ed2fd528e891a28907036b81ec900320c2b9f26f0b27e7e5cfd0fc9102a4d00000000"
}