{
  "txid": "a60cf9733517fad0cbcb29b0254157f961fc69d12e3ff9f431894db12d604622",
  "version": 2,
  "locktime": 0,
  "vin": [
    {
      "txid": "c423028fd404c5f20384f2138b18e16de49fec9c28e7a65857dfdb686e614fd8",
      "vout": 123,
      "prevout": {
        "scriptpubkey": "00143b0a951ad698a838451eab1cd994bfdf35e3fdf6",
        "scriptpubkey_asm": "OP_0 OP_PUSHBYTES_20 3b0a951ad698a838451eab1cd994bfdf35e3fdf6",
        "scriptpubkey_type": "v0_p2wpkh",
        "scriptpubkey_address": "bc1q8v9f2xkknz5rs3g74vwdn99lmu678l0k7a9qn9",
        "value": 205453
      },
      "scriptsig": "",
      "scriptsig_asm": "",
      "witness": [
        "3044022064ef260bb3207e90e37364ffcf1666575c59b7ea503cdc5cc7c216ab49e9ef99022032b958d62f8657f94a4d5e9301997864010599803696b39c10f12ae93fbb3a4301",
        "022ee2827baf63f109117db00d3f79660e377be8bc3eda4ce535a23fb4cde71a9d"
      ],
      "is_coinbase": false,
      "sequence": 4294967293
    }
  ],
  "vout": [
    {
      "scriptpubkey": "00142f2048efbfef60c2dc8ee3e17c49afe7a5c55053",
      "scriptpubkey_asm": "OP_0 OP_PUSHBYTES_20 2f2048efbfef60c2dc8ee3e17c49afe7a5c55053",
      "scriptpubkey_type": "v0_p2wpkh",
      "scriptpubkey_address": "bc1q9usy3malaasv9hywu0shcjd0u7ju25zne93l53",
      "value": 3071
    },
    {
      "scriptpubkey": "0014e05f07014de8396aa8c7992d3e977b271cac01cc",
      "scriptpubkey_asm": "OP_0 OP_PUSHBYTES_20 e05f07014de8396aa8c7992d3e977b271cac01cc",
      "scriptpubkey_type": "v0_p2wpkh",
      "scriptpubkey_address": "bc1qup0swq2daquk42x8nykna9mmyuw2cqwvml7vl5",
      "value": 2087
    },
    {
      "scriptpubkey": "0014884adcbc1ee70492e8340d78803b8d111dd188de",
      "scriptpubkey_asm": "OP_0 OP_PUSHBYTES_20 884adcbc1ee70492e8340d78803b8d111dd188de",
      "scriptpubkey_type": "v0_p2wpkh",
      "scriptpubkey_address": "bc1q3p9de0q7uuzf96p5p4ugqwudzywarzx7fcyf6a",
      "value": 198397
    }
  ],
  "size": 253,
  "weight": 685,
  "fee": 1898,
  "status": {
    "confirmed": true,
    "block_height": 834460,
    "block_hash": "00000000000000000000484a79b643b2524bbce82e5d8a442013fa5b8905ed98",
    "block_time": 1710307468
  },
  "hex": "02000000000101d84f616e68dbdf5758a6e7289cec9fe46de1188b13f28403f2c504d48f0223c47b00000000fdffffff03ff0b0000000000001600142f2048efbfef60c2dc8ee3e17c49afe7a5c550532708000000000000160014e05f07014de8396aa8c7992d3e977b271cac01ccfd06030000000000160014884adcbc1ee70492e8340d78803b8d111dd188de02473044022064ef260bb3207e90e37364ffcf1666575c59b7ea503cdc5cc7c216ab49e9ef99022032b958d62f8657f94a4d5e9301997864010599803696b39c10f12ae93fbb3a430121022ee2827baf63f109117db00d3f79660e377be8bc3eda4ce535a23fb4cde71a9d00000000"
}