{
  "txid": "a6145f6b2badaeea9b7ffd053131ca0a8375856abdfdce0d4fb29f357d8b78ce",
  "version": 2,
  "locktime": 0,
  "vin": [
    {
      "txid": "f08f4b88c096083cd96a75498d4bb91236e4e84fe0965508c8b8a2432c2ad5eb",
      "vout": 7,
      "prevout": {
        "scriptpubkey": "512042a5b139f1956e2f22be2a73ca4f404478596402f7cdea1a73a09577ced4655b",
        "scriptpubkey_asm": "OP_PUSHNUM_1 OP_PUSHBYTES_32 42a5b139f1956e2f22be2a73ca4f404478596402f7cdea1a73a09577ced4655b",
        "scriptpubkey_type": "v1_p2tr",
        "scriptpubkey_address": "bc1pg2jmzw03j4hz7g479feu5n6qg3u9jeqz7lx75xnn5z2h0nk5v4ds79td3r",
        "value": 1859
      },
      "scriptsig": "",
      "scriptsig_asm": "",
      "witness": [
        "feefc8ef4cb37a016512b80cb4d85067adcc0762afd2857047ae34ec39ad534ad3780de78d0d343142316fdc65e5fc1cc1b8a109533e611d6e5455a0361eb4ca",
        "204b7fa3f5e4a3211c8d41f14760ee39cd2f34337875424be2cc56fb865a169912ac0063036f7264010118746578742f706c61696e3b636861727365743d7574662d3800357b2270223a226272632d3230222c226f70223a226d696e74222c227469636b223a22646f6765222c22616d74223a2234323030227d68",
        "c1a1b8f27720bdb58312407ff108aa0a8a79eb6ade7272753df37ca3add73a736a"
      ],
      "is_coinbase": false,
      "sequence": 4294967295
    }
  ],
  "vout": [
    {
      "scriptpubkey": "00149e8548cc69df89adefb3c19ee6963818466a179d",
      "scriptpubkey_asm": "OP_0 OP_PUSHBYTES_20 9e8548cc69df89adefb3c19ee6963818466a179d",
      "scriptpubkey_type": "v0_p2wpkh",
      "scriptpubkey_address": "bc1qn6z53nrfm7y6mmancx0wd93crprx59uau9ymz7",
      "value": 330
    }
  ],
  "size": 308,
  "weight": 554,
  "fee": 1529,
  "status": {
    "confirmed": true,
    "block_height": 834464,
    "block_hash": "0000000000000000000177a0869a911a2b65c9bdcd5a8bcb02b68f305bee848e",
    "block_time": 1710308296
  },
  "hex": "02000000000101ebd52a2c43a2b8c8085596e04fe8e43612b94b8d49756ad93c0896c0884b8ff00700000000ffffffff014a010000000000001600149e8548cc69df89adefb3c19ee6963818466a179d0340feefc8ef4cb37a016512b80cb4d85067adcc0762afd2857047ae34ec39ad534ad3780de78d0d343142316fdc65e5fc1cc1b8a109533e611d6e5455a0361eb4ca7b204b7fa3f5e4a3211c8d41f14760ee39cd2f34337875424be2cc56fb865a169912ac0063036f7264010118746578742f706c61696e3b636861727365743d7574662d3800357b2270223a226272632d3230222c226f70223a226d696e74222c227469636b223a22646f6765222c22616d74223a2234323030227d6821c1a1b8f27720bdb58312407ff108aa0a8a79eb6ade7272753df37ca3add73a736a00000000"
}