{
  "txid": "a6165a1c354cea210cec9d897f847acd5cd44bad05a6f79029799b172e3b950c",
  "version": 2,
  "locktime": 0,
  "vin": [
    {
      "txid": "acc3ba00869acb582a3f2904ce3a11dd3779350ce234063fc7d0959246213364",
      "vout": 120,
      "prevout": {
        "scriptpubkey": "5120b707a9a732e7188e5c81e9ca765ad7f4bf984c26e2ff26917303d9529df92b5c",
        "scriptpubkey_asm": "OP_PUSHNUM_1 OP_PUSHBYTES_32 b707a9a732e7188e5c81e9ca765ad7f4bf984c26e2ff26917303d9529df92b5c",
        "scriptpubkey_type": "v1_p2tr",
        "scriptpubkey_address": "bc1pkur6nfejuuvguhypa898vkkh7jlesnpxutljdytnq0v4980e9dwqyqstnq",
        "value": 1806
      },
      "scriptsig": "",
      "scriptsig_asm": "",
      "witness": [
        "2ff8c735b36eddb0a6c4239c5b7b69482102e77ad6521001d0b21b8e32765f199cbd1f7bbccf64ea9aceed8a48ab665a4eb010587186621489a6e7bf34ba944b",
        "2028282137a3f28787b4e85fd53a0b03a64164940595810cb70fc7a89e23fcbf09ac0063036f726401010a746578742f706c61696e00357b2270223a226272632d3230222c226f70223a226d696e74222c227469636b223a22646f6765222c22616d74223a2234323030227d68",
        "c128282137a3f28787b4e85fd53a0b03a64164940595810cb70fc7a89e23fcbf09"
      ],
      "is_coinbase": false,
      "sequence": 4261412863
    }
  ],
  "vout": [
    {
      "scriptpubkey": "00147a665de7a370f4c9b372ab1fae587500a5bcbdb4",
      "scriptpubkey_asm": "OP_0 OP_PUSHBYTES_20 7a665de7a370f4c9b372ab1fae587500a5bcbdb4",
      "scriptpubkey_type": "v0_p2wpkh",
      "scriptpubkey_address": "bc1q0fn9mearwr6vnvmj4v06ukr4qzjme0d565dzcx",
      "value": 294
    }
  ],
  "size": 294,
  "weight": 540,
  "fee": 1512,
  "status": {
    "confirmed": true,
    "block_height": 834460,
    "block_hash": "00000000000000000000484a79b643b2524bbce82e5d8a442013fa5b8905ed98",
    "block_time": 1710307468
  },
  "hex": "02000000000101643321469295d0c73f0634e20c357937dd113ace04293f2a58cb9a8600bac3ac7800000000fffffffd0126010000000000001600147a665de7a370f4c9b372ab1fae587500a5bcbdb403402ff8c735b36eddb0a6c4239c5b7b69482102e77ad6521001d0b21b8e32765f199cbd1f7bbccf64ea9aceed8a48ab665a4eb010587186621489a6e7bf34ba944b6d2028282137a3f28787b4e85fd53a0b03a64164940595810cb70fc7a89e23fcbf09ac0063036f726401010a746578742f706c61696e00357b2270223a226272632d3230222c226f70223a226d696e74222c227469636b223a22646f6765222c22616d74223a2234323030227d6821c128282137a3f28787b4e85fd53a0b03a64164940595810cb70fc7a89e23fcbf0900000000"
}