{
  "txid": "a6177179254b203b5b3d8097a222c673ab8e885df8e7050e6dbc30ef5f5bbf17",
  "version": 2,
  "locktime": 0,
  "vin": [
    {
      "txid": "b118f017d6afe307165a4724201cb83e755fb8d3717819f7eff0344c686cb775",
      "vout": 1,
      "prevout": {
        "scriptpubkey": "5120515b769f11d0a4e969f4c83a72ef236920a37c8c40ff63e07750c7a700442237",
        "scriptpubkey_asm": "OP_PUSHNUM_1 OP_PUSHBYTES_32 515b769f11d0a4e969f4c83a72ef236920a37c8c40ff63e07750c7a700442237",
        "scriptpubkey_type": "v1_p2tr",
        "scriptpubkey_address": "bc1p29dhd8c36zjwj605eqa89merdys2xlyvgrlk8crh2rr6wqzyygmsalv86t",
        "value": 161198
      },
      "scriptsig": "",
      "scriptsig_asm": "",
      "witness": [
        "d17d058e069d91c659e132fd52c595655a83475feaafd60fc9f3d4e1de7d48c8c5ef684f41f357b0485944af2f9e8433d05e7656c99c4837527ab9b4d2512f43"
      ],
      "is_coinbase": false,
      "sequence": 4294967293
    }
  ],
  "vout": [
    {
      "scriptpubkey": "5120ee84968e3939ae68e6a61bc5870ac35f4ed26012afb820ce89e9cd099c78b6e8",
      "scriptpubkey_asm": "OP_PUSHNUM_1 OP_PUSHBYTES_32 ee84968e3939ae68e6a61bc5870ac35f4ed26012afb820ce89e9cd099c78b6e8",
      "scriptpubkey_type": "v1_p2tr",
      "scriptpubkey_address": "bc1pa6zfdr3e8xhx3e4xr0zcwzkrta8dycqj47uzpn5fa8xsn8rckm5q9qcxzu",
      "value": 3780
    },
    {
      "scriptpubkey": "5120515b769f11d0a4e969f4c83a72ef236920a37c8c40ff63e07750c7a700442237",
      "scriptpubkey_asm": "OP_PUSHNUM_1 OP_PUSHBYTES_32 515b769f11d0a4e969f4c83a72ef236920a37c8c40ff63e07750c7a700442237",
      "scriptpubkey_type": "v1_p2tr",
      "scriptpubkey_address": "bc1p29dhd8c36zjwj605eqa89merdys2xlyvgrlk8crh2rr6wqzyygmsalv86t",
      "value": 154184
    }
  ],
  "size": 205,
  "weight": 616,
  "fee": 3234,
  "status": {
    "confirmed": true,
    "block_height": 834460,
    "block_hash": "00000000000000000000484a79b643b2524bbce82e5d8a442013fa5b8905ed98",
    "block_time": 1710307468
  },
  "hex": "0200000000010175b76c684c34f0eff7197871d3b85f753eb81c2024475a1607e3afd617f018b10100000000fdffffff02c40e000000000000225120ee84968e3939ae68e6a61bc5870ac35f4ed26012afb820ce89e9cd099c78b6e8485a020000000000225120515b769f11d0a4e969f4c83a72ef236920a37c8c40ff63e07750c7a7004422370140d17d058e069d91c659e132fd52c595655a83475feaafd60fc9f3d4e1de7d48c8c5ef684f41f357b0485944af2f9e8433d05e7656c99c4837527ab9b4d2512f4300000000"
}