{
  "txid": "a61dad5e7db4e0524c9f6fb351296d1af9c1118fd1e6bdc257b3dc7c48fec71f",
  "version": 2,
  "locktime": 0,
  "vin": [
    {
      "txid": "a310243f430a6a3f53b19ffa2801078f9b450c48f9026f7059c7227339856dd7",
      "vout": 14,
      "prevout": {
        "scriptpubkey": "51203a9da0556acd98164fdf9ce8960ffb910eff24c8b8fab8abd18b2fc06c0cce0e",
        "scriptpubkey_asm": "OP_PUSHNUM_1 OP_PUSHBYTES_32 3a9da0556acd98164fdf9ce8960ffb910eff24c8b8fab8abd18b2fc06c0cce0e",
        "scriptpubkey_type": "v1_p2tr",
        "scriptpubkey_address": "bc1p82w6q4t2ekvpvn7lnn5fvrlmjy807fxghrat32733vhuqmqvec8qsaklxx",
        "value": 4162410653
      },
      "scriptsig": "",
      "scriptsig_asm": "",
      "witness": [
        "e7727bba1fea19d0d3609433c312d4fe01db7b53e5216386704dde6208326c627283acc00fcfccbf3ab166ef59ef4ed18753031c28744c5b47b92d485470b89301"
      ],
      "is_coinbase": false,
      "sequence": 4294967293
    }
  ],
  "vout": [
    {
      "scriptpubkey": "a914ae9a6997b56453591ee52980d15b84c0db18849f87",
      "scriptpubkey_asm": "OP_HASH160 OP_PUSHBYTES_20 ae9a6997b56453591ee52980d15b84c0db18849f OP_EQUAL",
      "scriptpubkey_type": "p2sh",
      "scriptpubkey_address": "3HcEUguUZ4vyyMAPWDPUDjLqz882jXwMfV",
      "value": 4162409193
    }
  ],
  "size": 152,
  "weight": 401,
  "fee": 1460,
  "status": {
    "confirmed": true,
    "block_height": 834638,
    "block_hash": "000000000000000000025f742c626208ac87e0b7d15054abb4a19ca2d735a54e",
    "block_time": 1710405325
  },
  "hex": "02000000000101d76d85397322c759706f02f9480c459b8f070128fa9fb1533f6a0a433f2410a30e00000000fdffffff01e95219f80000000017a914ae9a6997b56453591ee52980d15b84c0db18849f870141e7727bba1fea19d0d3609433c312d4fe01db7b53e5216386704dde6208326c627283acc00fcfccbf3ab166ef59ef4ed18753031c28744c5b47b92d485470b8930100000000"
}