{
  "txid": "a623a136b1ecc81ceab6e6952ea0eeddb721ae6a834eb5bdd591d4c2e09c0e38",
  "version": 2,
  "locktime": 0,
  "vin": [
    {
      "txid": "5a240796011ce508e4ad558e1db424cab826fa3bd2a0d88f358a95b877e01e0e",
      "vout": 7,
      "prevout": {
        "scriptpubkey": "001443fcb1730ad9ae141f86026a2e1cdc0132a3c384",
        "scriptpubkey_asm": "OP_0 OP_PUSHBYTES_20 43fcb1730ad9ae141f86026a2e1cdc0132a3c384",
        "scriptpubkey_type": "v0_p2wpkh",
        "scriptpubkey_address": "bc1qg07tzuc2mxhpg8uxqf4zu8xuqye28suyms526l",
        "value": 547
      },
      "scriptsig": "",
      "scriptsig_asm": "",
      "witness": [
        "3045022100f4b762f665d650715ccc45b6691fb3369d002e0b3979ad1586562a99c48823f002203b09f1fa02212621cc18f3efb272e934bd43a23a985c33e6175c35b819f6ce5c81",
        "032cc19c1df713aacb13bc3832693fefefb3312229b072b469c1fcb5f9a2a24918"
      ],
      "is_coinbase": false,
      "sequence": 4294967293
    },
    {
      "txid": "84f48b67aef958b5a386b607949f45486266b34c5f9ba3d1c902f7d33ad99f93",
      "vout": 1,
      "prevout": {
        "scriptpubkey": "00140aba61b095303878eb2c7a03d03f032ca4c281ac",
        "scriptpubkey_asm": "OP_0 OP_PUSHBYTES_20 0aba61b095303878eb2c7a03d03f032ca4c281ac",
        "scriptpubkey_type": "v0_p2wpkh",
        "scriptpubkey_address": "bc1qp2axrvy4xqu836ev0gpaq0cr9jjv9qdvq7xrsl",
        "value": 2920409
      },
      "scriptsig": "",
      "scriptsig_asm": "",
      "witness": [
        "3044022016f911a90109e484ddc99a820b118415526b6fb94249bf1aefbdc96ed460d87b02205a43aac4ea53d14e0eed8f5ba90f20212d42437169c2313e4a551d955651e0a601",
        "0333db0f4e2cefcf264793b15f675c8a533468668d354cf72419fec06a9de96604"
      ],
      "is_coinbase": false,
      "sequence": 4294967293
    }
  ],
  "vout": [
    {
      "scriptpubkey": "00144c5bacd4a98311e9e48c73cfd7abe3abc5b27d53",
      "scriptpubkey_asm": "OP_0 OP_PUSHBYTES_20 4c5bacd4a98311e9e48c73cfd7abe3abc5b27d53",
      "scriptpubkey_type": "v0_p2wpkh",
      "scriptpubkey_address": "bc1qf3d6e49fsvg7neyvw08a02lr40zmyl2np5vv30",
      "value": 2907000
    },
    {
      "scriptpubkey": "512102d51ecf29e1d910875dc00e66442c3051be637720933627dfadafd5c3dbc2bb4b21027b7d1040cf88bd56825b0d914b868bfdc9db08484b7d96635ae5e11c85e4bd212103333333333333333333333333333333333333333333333333333333333333333353ae",
      "scriptpubkey_asm": "OP_PUSHNUM_1 OP_PUSHBYTES_33 02d51ecf29e1d910875dc00e66442c3051be637720933627dfadafd5c3dbc2bb4b OP_PUSHBYTES_33 027b7d1040cf88bd56825b0d914b868bfdc9db08484b7d96635ae5e11c85e4bd21 OP_PUSHBYTES_33 033333333333333333333333333333333333333333333333333333333333333333 OP_PUSHNUM_3 OP_CHECKMULTISIG",
      "scriptpubkey_type": "unknown",
      "value": 796
    },
    {
      "scriptpubkey": "51210236d652d1b58f251f55539077761b3e2f491a6ab53b5da1b16d777bb8851874422102fe9f0049be8170d16732ae94a0ffe86db62d4bc9b940c48dd5bed2fbdaa7f3f82102020202020202020202020202020202020202020202020202020202020202020253ae",
      "scriptpubkey_asm": "OP_PUSHNUM_1 OP_PUSHBYTES_33 0236d652d1b58f251f55539077761b3e2f491a6ab53b5da1b16d777bb885187442 OP_PUSHBYTES_33 02fe9f0049be8170d16732ae94a0ffe86db62d4bc9b940c48dd5bed2fbdaa7f3f8 OP_PUSHBYTES_33 020202020202020202020202020202020202020202020202020202020202020202 OP_PUSHNUM_3 OP_CHECKMULTISIG",
      "scriptpubkey_type": "unknown",
      "value": 796
    },
    {
      "scriptpubkey": "001443fcb1730ad9ae141f86026a2e1cdc0132a3c384",
      "scriptpubkey_asm": "OP_0 OP_PUSHBYTES_20 43fcb1730ad9ae141f86026a2e1cdc0132a3c384",
      "scriptpubkey_type": "v0_p2wpkh",
      "scriptpubkey_address": "bc1qg07tzuc2mxhpg8uxqf4zu8xuqye28suyms526l",
      "value": 547
    }
  ],
  "size": 599,
  "weight": 1745,
  "fee": 11817,
  "status": {
    "confirmed": true,
    "block_height": 834638,
    "block_hash": "000000000000000000025f742c626208ac87e0b7d15054abb4a19ca2d735a54e",
    "block_time": 1710405325
  },
  "hex": "020000000001020e1ee077b8958a358fd8a0d23bfa26b8ca24b41d8e55ade408e51c019607245a0700000000fdffffff939fd93ad3f702c9d1a39b5f4cb3666248459f9407b686a3b558f9ae678bf4840100000000fdffffff04785b2c00000000001600144c5bacd4a98311e9e48c73cfd7abe3abc5b27d531c0300000000000069512102d51ecf29e1d910875dc00e66442c3051be637720933627dfadafd5c3dbc2bb4b21027b7d1040cf88bd56825b0d914b868bfdc9db08484b7d96635ae5e11c85e4bd212103333333333333333333333333333333333333333333333333333333333333333353ae1c030000000000006951210236d652d1b58f251f55539077761b3e2f491a6ab53b5da1b16d777bb8851874422102fe9f0049be8170d16732ae94a0ffe86db62d4bc9b940c48dd5bed2fbdaa7f3f82102020202020202020202020202020202020202020202020202020202020202020253ae230200000000000016001443fcb1730ad9ae141f86026a2e1cdc0132a3c38402483045022100f4b762f665d650715ccc45b6691fb3369d002e0b3979ad1586562a99c48823f002203b09f1fa02212621cc18f3efb272e934bd43a23a985c33e6175c35b819f6ce5c8121032cc19c1df713aacb13bc3832693fefefb3312229b072b469c1fcb5f9a2a2491802473044022016f911a90109e484ddc99a820b118415526b6fb94249bf1aefbdc96ed460d87b02205a43aac4ea53d14e0eed8f5ba90f20212d42437169c2313e4a551d955651e0a601210333db0f4e2cefcf264793b15f675c8a533468668d354cf72419fec06a9de9660400000000"
}