{
  "txid": "a625706b3edda1762a075bba5299ba80e89e657961d2c828a7fc3008190c64b9",
  "version": 2,
  "locktime": 0,
  "vin": [
    {
      "txid": "b09ee195e618c9f0ceec1bbde6931e9511397771efdf0d3924fe20079191cd31",
      "vout": 8,
      "prevout": {
        "scriptpubkey": "001419ac44cd03bb1a20089bd2252a19c1337ad99092",
        "scriptpubkey_asm": "OP_0 OP_PUSHBYTES_20 19ac44cd03bb1a20089bd2252a19c1337ad99092",
        "scriptpubkey_type": "v0_p2wpkh",
        "scriptpubkey_address": "bc1qrxkyfngrhvdzqzym6gjj5xwpxdadnyyjfxn5ys",
        "value": 2354317
      },
      "scriptsig": "",
      "scriptsig_asm": "",
      "witness": [
        "304402201563b8d488e68b471f33cf2e9aa19c9db40b2ed77ff8508e01e3299b16c5e54402203688e1077047b715da040bc807a848610a023c5f41b872a6dc36a09df20ad9cb01",
        "020d0c4c3870f908a10d236108afed4ec34db851b2a29f54efa38acb8e6d9ca060"
      ],
      "is_coinbase": false,
      "sequence": 4294967293
    }
  ],
  "vout": [
    {
      "scriptpubkey": "a9146e77042eb3ec9c9aac23b1abcb907a5c2a9b887487",
      "scriptpubkey_asm": "OP_HASH160 OP_PUSHBYTES_20 6e77042eb3ec9c9aac23b1abcb907a5c2a9b8874 OP_EQUAL",
      "scriptpubkey_type": "p2sh",
      "scriptpubkey_address": "3Bm6q3aLp7jY1Q9wEJTRVkbnyqQpADKjaj",
      "value": 866037
    },
    {
      "scriptpubkey": "0014a072492bd294fbedf8c43663b66d15fa4996c198",
      "scriptpubkey_asm": "OP_0 OP_PUSHBYTES_20 a072492bd294fbedf8c43663b66d15fa4996c198",
      "scriptpubkey_type": "v0_p2wpkh",
      "scriptpubkey_address": "bc1q5peyj27jjna7m7xyxe3mvmg4lfyedsvc44uml8",
      "value": 1483785
    }
  ],
  "size": 223,
  "weight": 565,
  "fee": 4495,
  "status": {
    "confirmed": true,
    "block_height": 834638,
    "block_hash": "000000000000000000025f742c626208ac87e0b7d15054abb4a19ca2d735a54e",
    "block_time": 1710405325
  },
  "hex": "0200000000010131cd91910720fe24390ddfef71773911951e93e6bd1beccef0c918e695e19eb00800000000fdffffff02f5360d000000000017a9146e77042eb3ec9c9aac23b1abcb907a5c2a9b88748709a4160000000000160014a072492bd294fbedf8c43663b66d15fa4996c1980247304402201563b8d488e68b471f33cf2e9aa19c9db40b2ed77ff8508e01e3299b16c5e54402203688e1077047b715da040bc807a848610a023c5f41b872a6dc36a09df20ad9cb0121020d0c4c3870f908a10d236108afed4ec34db851b2a29f54efa38acb8e6d9ca06000000000"
}