{
  "txid": "a62ef44c94bde81531ec6938d9971802c6b01492bb487d552052ef83707de93f",
  "version": 1,
  "locktime": 0,
  "vin": [
    {
      "txid": "5914da0d0d31aefe475055c848b94ca92c0da9a08c7486a69ba5029be2bd0a72",
      "vout": 0,
      "prevout": {
        "scriptpubkey": "0014c52e8cf7fe6f9723723c98ac7131a347a7e77563",
        "scriptpubkey_asm": "OP_0 OP_PUSHBYTES_20 c52e8cf7fe6f9723723c98ac7131a347a7e77563",
        "scriptpubkey_type": "v0_p2wpkh",
        "scriptpubkey_address": "bc1qc5hgeal7d7tjxu3unzk8zvdrg7n7watrjg0j20",
        "value": 141525
      },
      "scriptsig": "",
      "scriptsig_asm": "",
      "witness": [
        "304402200304a9fc0fcaa35aa682a28f326ddd7ef1731060fa65a3c7938ddaef596b8572022079f9c3b4485dfdd65ac441ad39fe5bfbf6f15d3b6f91c0dd3a77193027cc0de501",
        "034790204f916a705517fd6154c5a6454f32332e4674bc4afcd4b74b7bd6118cbc"
      ],
      "is_coinbase": false,
      "sequence": 4294967295
    }
  ],
  "vout": [
    {
      "scriptpubkey": "0014e61c1b5eeb9c36fa8db5c04d7ad64f6b29edef5a",
      "scriptpubkey_asm": "OP_0 OP_PUSHBYTES_20 e61c1b5eeb9c36fa8db5c04d7ad64f6b29edef5a",
      "scriptpubkey_type": "v0_p2wpkh",
      "scriptpubkey_address": "bc1qucwpkhhtnsm04rd4cpxh44j0dv57mm66ctfalz",
      "value": 139345
    }
  ],
  "size": 191,
  "weight": 437,
  "fee": 2180,
  "status": {
    "confirmed": true,
    "block_height": 834638,
    "block_hash": "000000000000000000025f742c626208ac87e0b7d15054abb4a19ca2d735a54e",
    "block_time": 1710405325
  },
  "hex": "01000000000101720abde29b02a59ba686748ca0a90d2ca94cb948c8555047feae310d0dda14590000000000ffffffff015120020000000000160014e61c1b5eeb9c36fa8db5c04d7ad64f6b29edef5a0247304402200304a9fc0fcaa35aa682a28f326ddd7ef1731060fa65a3c7938ddaef596b8572022079f9c3b4485dfdd65ac441ad39fe5bfbf6f15d3b6f91c0dd3a77193027cc0de50121034790204f916a705517fd6154c5a6454f32332e4674bc4afcd4b74b7bd6118cbc00000000"
}