{
  "txid": "a643772e10c7370a9e2c20d5416908b6c281fb4e83e15af6068db64db2892197",
  "version": 1,
  "locktime": 0,
  "vin": [
    {
      "txid": "b774fe400f4ab0ff31d1727c4b119a18692da7a116022e83acf303e26f77d3db",
      "vout": 11,
      "prevout": {
        "scriptpubkey": "001454fc4e3ac32bc81d648297f7f3bcf09486149ead",
        "scriptpubkey_asm": "OP_0 OP_PUSHBYTES_20 54fc4e3ac32bc81d648297f7f3bcf09486149ead",
        "scriptpubkey_type": "v0_p2wpkh",
        "scriptpubkey_address": "bc1q2n7yuwkr90yp6eyzjlml808sjjrpf84dcty4de",
        "value": 5043000
      },
      "scriptsig": "",
      "scriptsig_asm": "",
      "witness": [
        "3045022100f756195e53c75b7c641ea1d9856588f6da52ef0c11e073dc15ce10d140537a71022027886e26620b8a0dd5349ee31752f5e334459dbdff7878bd46f234c525ff05f601",
        "029742822fce71f9342fe72066ba5949c50ee783de7a23a267669e282df401ed1c"
      ],
      "is_coinbase": false,
      "sequence": 4294967295
    },
    {
      "txid": "6a41504ea1be2a0af1c9c037275e9d1626d43b31e09ed9d311065c3001cf4e6e",
      "vout": 1,
      "prevout": {
        "scriptpubkey": "001454fc4e3ac32bc81d648297f7f3bcf09486149ead",
        "scriptpubkey_asm": "OP_0 OP_PUSHBYTES_20 54fc4e3ac32bc81d648297f7f3bcf09486149ead",
        "scriptpubkey_type": "v0_p2wpkh",
        "scriptpubkey_address": "bc1q2n7yuwkr90yp6eyzjlml808sjjrpf84dcty4de",
        "value": 5062166
      },
      "scriptsig": "",
      "scriptsig_asm": "",
      "witness": [
        "3044022011079e05adf30b435c0c3d49ccd5cae1aa954874171861ae9b74c365e66835ca022012f1ca214446c7c3239bb9e2f15706edd50502e0a7bcd1746c7e44288988a67601",
        "029742822fce71f9342fe72066ba5949c50ee783de7a23a267669e282df401ed1c"
      ],
      "is_coinbase": false,
      "sequence": 4294967295
    }
  ],
  "vout": [
    {
      "scriptpubkey": "a914ba0ed3cac99096db8af92fb37ed4fdcb6159d8f087",
      "scriptpubkey_asm": "OP_HASH160 OP_PUSHBYTES_20 ba0ed3cac99096db8af92fb37ed4fdcb6159d8f0 OP_EQUAL",
      "scriptpubkey_type": "p2sh",
      "scriptpubkey_address": "3JeoNShp2svmgXwjPwoV1PkH2STXGMbMrQ",
      "value": 10100333
    }
  ],
  "size": 341,
  "weight": 713,
  "fee": 4833,
  "status": {
    "confirmed": true,
    "block_height": 834638,
    "block_hash": "000000000000000000025f742c626208ac87e0b7d15054abb4a19ca2d735a54e",
    "block_time": 1710405325
  },
  "hex": "01000000000102dbd3776fe203f3ac832e0216a1a72d69189a114b7c72d131ffb04a0f40fe74b70b00000000ffffffff6e4ecf01305c0611d3d99ee0313bd426169d5e2737c0c9f10a2abea14e50416a0100000000ffffffff016d1e9a000000000017a914ba0ed3cac99096db8af92fb37ed4fdcb6159d8f08702483045022100f756195e53c75b7c641ea1d9856588f6da52ef0c11e073dc15ce10d140537a71022027886e26620b8a0dd5349ee31752f5e334459dbdff7878bd46f234c525ff05f60121029742822fce71f9342fe72066ba5949c50ee783de7a23a267669e282df401ed1c02473044022011079e05adf30b435c0c3d49ccd5cae1aa954874171861ae9b74c365e66835ca022012f1ca214446c7c3239bb9e2f15706edd50502e0a7bcd1746c7e44288988a6760121029742822fce71f9342fe72066ba5949c50ee783de7a23a267669e282df401ed1c00000000"
}