{
  "txid": "a657f12435c3336e8def2c5f2f5c5a9fc2b7012bf68922aa94e0eebd488c4283",
  "version": 2,
  "locktime": 0,
  "vin": [
    {
      "txid": "80bf6b9feaeba53ac4bcdb7f7f1d7ae501575d333700eedf1b9d6e4d291d0ac9",
      "vout": 3,
      "prevout": {
        "scriptpubkey": "512080d6826feacb3921a8ffe0409598c3e893423cce6215b6316e64321179286371",
        "scriptpubkey_asm": "OP_PUSHNUM_1 OP_PUSHBYTES_32 80d6826feacb3921a8ffe0409598c3e893423cce6215b6316e64321179286371",
        "scriptpubkey_type": "v1_p2tr",
        "scriptpubkey_address": "bc1psrtgyml2evujr28lupqftxxrazf5y0xwvg2mvvtwvsepz7fgvdcshfvrwn",
        "value": 2996
      },
      "scriptsig": "",
      "scriptsig_asm": "",
      "witness": [
        "a0e8f2c35dc115e3ff8af6100f80f2aedf3a8cca662a56a7d13539677f6174af60afd1750e4dd99674c6c3d85cfd32e39bbce192ae43cc1371ff8010247b27ef",
        "208effbeed852fdefc2b6842fd6f896d3f48fde90f10560f6b218d50bc5ee9489eac0063036f726401011e6170706c69636174696f6e2f6a736f6e3b636861727365743d7574662d38004cb77b2270223a22706f772d3230222c226f70223a226d696e74222c227469636b223a2250455045222c22616d74223a2231303030222c22736f6c7574696f6e223a22504550453a33436356314e345555394c45747331374e777553577966396e746845757a714c56513a303030303030303030303030303030303030303139393431613561653132383937363539383134343239323533333030353762306461393666336465613163353a3432313533393537353732227d68",
        "c1622ec7e628951f40268acf3dd3204d289dcdec54c93410598d2e422c74fc82f1"
      ],
      "is_coinbase": false,
      "sequence": 4294967295
    }
  ],
  "vout": [
    {
      "scriptpubkey": "a91477cde961f942d709292278892ca2683896bce9ef87",
      "scriptpubkey_asm": "OP_HASH160 OP_PUSHBYTES_20 77cde961f942d709292278892ca2683896bce9ef OP_EQUAL",
      "scriptpubkey_type": "p2sh",
      "scriptpubkey_address": "3CcV1N4UU9LEts17NwuSWyf9nthEuzqLVQ",
      "value": 546
    }
  ],
  "size": 448,
  "weight": 697,
  "fee": 2450,
  "status": {
    "confirmed": true,
    "block_height": 834460,
    "block_hash": "00000000000000000000484a79b643b2524bbce82e5d8a442013fa5b8905ed98",
    "block_time": 1710307468
  },
  "hex": "02000000000101c90a1d294d6e9d1bdfee0037335d5701e57a1d7f7fdbbcc43aa5ebea9f6bbf800300000000ffffffff01220200000000000017a91477cde961f942d709292278892ca2683896bce9ef870340a0e8f2c35dc115e3ff8af6100f80f2aedf3a8cca662a56a7d13539677f6174af60afd1750e4dd99674c6c3d85cfd32e39bbce192ae43cc1371ff8010247b27effd0401208effbeed852fdefc2b6842fd6f896d3f48fde90f10560f6b218d50bc5ee9489eac0063036f726401011e6170706c69636174696f6e2f6a736f6e3b636861727365743d7574662d38004cb77b2270223a22706f772d3230222c226f70223a226d696e74222c227469636b223a2250455045222c22616d74223a2231303030222c22736f6c7574696f6e223a22504550453a33436356314e345555394c45747331374e777553577966396e746845757a714c56513a303030303030303030303030303030303030303139393431613561653132383937363539383134343239323533333030353762306461393666336465613163353a3432313533393537353732227d6821c1622ec7e628951f40268acf3dd3204d289dcdec54c93410598d2e422c74fc82f100000000"
}