{
  "txid": "a6604e4d3e37b514e61158b50f7e72014fc3a16902e7dde50aa810205a601c46",
  "version": 2,
  "locktime": 0,
  "vin": [
    {
      "txid": "af45160056a6930cd571238014507c9d1bb8c500a3d05dfae3857d37002bf16d",
      "vout": 1,
      "prevout": {
        "scriptpubkey": "5120b531b5bcbf08dfd7c8a13461ce868985b969914f0ac42489cbd730999a48403f",
        "scriptpubkey_asm": "OP_PUSHNUM_1 OP_PUSHBYTES_32 b531b5bcbf08dfd7c8a13461ce868985b969914f0ac42489cbd730999a48403f",
        "scriptpubkey_type": "v1_p2tr",
        "scriptpubkey_address": "bc1pk5cmt09lpr0a0j9px3suap5fskukny20ptzzfzwt6ucfnxjggqlsjjmqfh",
        "value": 1053410
      },
      "scriptsig": "",
      "scriptsig_asm": "",
      "witness": [
        "419c9e7921bdb024218b438a10b44373c5af0281e4bd909814652b2c3f7f25daff5226fc1dc0d7b5fda5377d46477965b99acd5c07a568f10cb18233ab48c8c5"
      ],
      "is_coinbase": false,
      "sequence": 4294967293
    }
  ],
  "vout": [
    {
      "scriptpubkey": "512090d920020599bbd0d9dddbb7c3a78baab0c1a3b85cecde2287b2d18fefaaf95b",
      "scriptpubkey_asm": "OP_PUSHNUM_1 OP_PUSHBYTES_32 90d920020599bbd0d9dddbb7c3a78baab0c1a3b85cecde2287b2d18fefaaf95b",
      "scriptpubkey_type": "v1_p2tr",
      "scriptpubkey_address": "bc1pjrvjqqs9nxaapkwamwmu8fut42cvrgactnkdug58ktgclma2l9dsh8y2df",
      "value": 3164
    },
    {
      "scriptpubkey": "5120b531b5bcbf08dfd7c8a13461ce868985b969914f0ac42489cbd730999a48403f",
      "scriptpubkey_asm": "OP_PUSHNUM_1 OP_PUSHBYTES_32 b531b5bcbf08dfd7c8a13461ce868985b969914f0ac42489cbd730999a48403f",
      "scriptpubkey_type": "v1_p2tr",
      "scriptpubkey_address": "bc1pk5cmt09lpr0a0j9px3suap5fskukny20ptzzfzwt6ucfnxjggqlsjjmqfh",
      "value": 1047628
    }
  ],
  "size": 205,
  "weight": 616,
  "fee": 2618,
  "status": {
    "confirmed": true,
    "block_height": 834638,
    "block_hash": "000000000000000000025f742c626208ac87e0b7d15054abb4a19ca2d735a54e",
    "block_time": 1710405325
  },
  "hex": "020000000001016df12b00377d85e3fa5dd0a300c5b81b9d7c5014802371d50c93a656001645af0100000000fdffffff025c0c00000000000022512090d920020599bbd0d9dddbb7c3a78baab0c1a3b85cecde2287b2d18fefaaf95b4cfc0f0000000000225120b531b5bcbf08dfd7c8a13461ce868985b969914f0ac42489cbd730999a48403f0140419c9e7921bdb024218b438a10b44373c5af0281e4bd909814652b2c3f7f25daff5226fc1dc0d7b5fda5377d46477965b99acd5c07a568f10cb18233ab48c8c500000000"
}