{
  "txid": "a6787a17984b759762c3c940a14de04480752263a6beda995cd5c47bc39eada3",
  "version": 1,
  "locktime": 0,
  "vin": [
    {
      "txid": "a03e35a5025626268a8b755d50bb2c0dada44e2a16a4f5da5a9530b368e8f598",
      "vout": 10,
      "prevout": {
        "scriptpubkey": "0014c4ca938722a1ef80903c579081c91df602c17ecb",
        "scriptpubkey_asm": "OP_0 OP_PUSHBYTES_20 c4ca938722a1ef80903c579081c91df602c17ecb",
        "scriptpubkey_type": "v0_p2wpkh",
        "scriptpubkey_address": "bc1qcn9f8pez58hcpypu27ggrjga7cpvzlktaxll3r",
        "value": 71569
      },
      "scriptsig": "",
      "scriptsig_asm": "",
      "witness": [
        "3045022100804c72bff8d80af17c01a0bf01af6c2c0e0bd523d6be9fd41235b7e2b572d498022051ea7a305584382f7bcba13cc7b0c2a050a04a7f1f6c3d68df3da7603046c50c01",
        "030fc2c8216950eeaeadd32b5a31f2248682f5af54e9bf5dea5c1cc4b1ab1b8e8f"
      ],
      "is_coinbase": false,
      "sequence": 4294967293
    },
    {
      "txid": "8719c854f59a2c8673cfb6d40e3edba75dd8504dff7eff1b5fdbb65197944e16",
      "vout": 98,
      "prevout": {
        "scriptpubkey": "001421613221f172f2eec15f4d8f53c31f52100d7d8f",
        "scriptpubkey_asm": "OP_0 OP_PUSHBYTES_20 21613221f172f2eec15f4d8f53c31f52100d7d8f",
        "scriptpubkey_type": "v0_p2wpkh",
        "scriptpubkey_address": "bc1qy9snyg03wtewas2lfk848scl2ggq6lv0t5t0mz",
        "value": 71358
      },
      "scriptsig": "",
      "scriptsig_asm": "",
      "witness": [
        "304402203a765e420a820b7a38be265f29944494e36eb0bf0fb1d14e7aca2c210cb29bd702204edaabbecb76693109bcf359f55aba6a0c15206685e3bb502c96c3e6ceba0c8801",
        "027d07430cc260eaa43eeb47d9566e01f5d2ad2bd72bbd300280b9d17efc38b42f"
      ],
      "is_coinbase": false,
      "sequence": 4294967293
    },
    {
      "txid": "89b99b817fc63ef4179dddce6e5fb7120df8ae3f505abb7769f25ff2f92b5749",
      "vout": 197,
      "prevout": {
        "scriptpubkey": "0014dc0b733c2de02d386219a41ee2c5a0567bc10c35",
        "scriptpubkey_asm": "OP_0 OP_PUSHBYTES_20 dc0b733c2de02d386219a41ee2c5a0567bc10c35",
        "scriptpubkey_type": "v0_p2wpkh",
        "scriptpubkey_address": "bc1qms9hx0pduqknscse5s0w93dq2eauzrp4sa3j9k",
        "value": 71244
      },
      "scriptsig": "",
      "scriptsig_asm": "",
      "witness": [
        "3044022047c5904f5ae5c8714578427e993e89c528744bcfba3f7086a908d98060b3d2ea02206c7662ff12b5c184300d41e2b1941f0ea064890cb1fc000e6dd723370be94e6e01",
        "031dea30755eeaa7c2f6fc02d38f12745196e9e9f58cc8a98955fc25eb053862cd"
      ],
      "is_coinbase": false,
      "sequence": 4294967293
    }
  ],
  "vout": [
    {
      "scriptpubkey": "0014723fc64f8154863c4977f54306825e1a75a7f288",
      "scriptpubkey_asm": "OP_0 OP_PUSHBYTES_20 723fc64f8154863c4977f54306825e1a75a7f288",
      "scriptpubkey_type": "v0_p2wpkh",
      "scriptpubkey_address": "bc1qwgluvnup2jrrcjth74psdqj7rf660u5g42u0kc",
      "value": 206731
    }
  ],
  "size": 488,
  "weight": 980,
  "fee": 7440,
  "status": {
    "confirmed": true,
    "block_height": 834638,
    "block_hash": "000000000000000000025f742c626208ac87e0b7d15054abb4a19ca2d735a54e",
    "block_time": 1710405325
  },
  "hex": "0100000000010398f5e868b330955adaf5a4162a4ea4ad0d2cbb505d758b8a26265602a5353ea00a00000000fdffffff164e949751b6db5f1bff7eff4d50d85da7db3e0ed4b6cf73862c9af554c819876200000000fdffffff49572bf9f25ff26977bb5a503faef80d12b75f6ecedd9d17f43ec67f819bb989c500000000fdffffff018b27030000000000160014723fc64f8154863c4977f54306825e1a75a7f28802483045022100804c72bff8d80af17c01a0bf01af6c2c0e0bd523d6be9fd41235b7e2b572d498022051ea7a305584382f7bcba13cc7b0c2a050a04a7f1f6c3d68df3da7603046c50c0121030fc2c8216950eeaeadd32b5a31f2248682f5af54e9bf5dea5c1cc4b1ab1b8e8f0247304402203a765e420a820b7a38be265f29944494e36eb0bf0fb1d14e7aca2c210cb29bd702204edaabbecb76693109bcf359f55aba6a0c15206685e3bb502c96c3e6ceba0c880121027d07430cc260eaa43eeb47d9566e01f5d2ad2bd72bbd300280b9d17efc38b42f02473044022047c5904f5ae5c8714578427e993e89c528744bcfba3f7086a908d98060b3d2ea02206c7662ff12b5c184300d41e2b1941f0ea064890cb1fc000e6dd723370be94e6e0121031dea30755eeaa7c2f6fc02d38f12745196e9e9f58cc8a98955fc25eb053862cd00000000"
}