{
  "txid": "a68efc2d414d79d0a9b6109cbbaccf508a14fa3fab9a1f41ec637e5124ee9ea6",
  "version": 2,
  "locktime": 834637,
  "vin": [
    {
      "txid": "d7313f788f27bb8aa2f8f013ed9d0d3d2b2028c7781c19a9a384f2beef183d21",
      "vout": 0,
      "prevout": {
        "scriptpubkey": "0014f98695bb28a11f8f8bde32309e363b61561d7abf",
        "scriptpubkey_asm": "OP_0 OP_PUSHBYTES_20 f98695bb28a11f8f8bde32309e363b61561d7abf",
        "scriptpubkey_type": "v0_p2wpkh",
        "scriptpubkey_address": "bc1qlxrftweg5y0clz77xgcfud3mv9tp674l5legap",
        "value": 2955608
      },
      "scriptsig": "",
      "scriptsig_asm": "",
      "witness": [
        "304402207213cc981c2d02199400cadbfe6e1d002f53be2748f205523797d2b5ab106d710220106f7fa40c2023e33e7c261bd9e899a436c117897f8d79f1977f0e1bcf41798101",
        "0294e2e0b552f7488645992c5070b978b4f251d28f2a39384e9b8f6d565ed04438"
      ],
      "is_coinbase": false,
      "sequence": 4294967293
    }
  ],
  "vout": [
    {
      "scriptpubkey": "00146fd25ac3e59c097e1fcce5ac1952ed2cf5732065",
      "scriptpubkey_asm": "OP_0 OP_PUSHBYTES_20 6fd25ac3e59c097e1fcce5ac1952ed2cf5732065",
      "scriptpubkey_type": "v0_p2wpkh",
      "scriptpubkey_address": "bc1qdlf94sl9nsyhu87vukkpj5hd9n6hxgr932597k",
      "value": 300321
    },
    {
      "scriptpubkey": "0014ea372e4a34dbdfbeac4daeecf4c2c414eb31f8a5",
      "scriptpubkey_asm": "OP_0 OP_PUSHBYTES_20 ea372e4a34dbdfbeac4daeecf4c2c414eb31f8a5",
      "scriptpubkey_type": "v0_p2wpkh",
      "scriptpubkey_address": "bc1qagmjuj35m00matzd4mk0fskyzn4nr799muw5kt",
      "value": 2648237
    }
  ],
  "size": 222,
  "weight": 561,
  "fee": 7050,
  "status": {
    "confirmed": true,
    "block_height": 834638,
    "block_hash": "000000000000000000025f742c626208ac87e0b7d15054abb4a19ca2d735a54e",
    "block_time": 1710405325
  },
  "hex": "02000000000101213d18efbef284a3a9191c78c728202b3d0d9ded13f0f8a28abb278f783f31d70000000000fdffffff0221950400000000001600146fd25ac3e59c097e1fcce5ac1952ed2cf5732065ad68280000000000160014ea372e4a34dbdfbeac4daeecf4c2c414eb31f8a50247304402207213cc981c2d02199400cadbfe6e1d002f53be2748f205523797d2b5ab106d710220106f7fa40c2023e33e7c261bd9e899a436c117897f8d79f1977f0e1bcf41798101210294e2e0b552f7488645992c5070b978b4f251d28f2a39384e9b8f6d565ed044384dbc0c00"
}