{
  "txid": "a69d401c73704f7e9369158673cfc0a5b3c88e18497299136a06597281410747",
  "version": 1,
  "locktime": 0,
  "vin": [
    {
      "txid": "920425979985e74c36655f8d85e2e44150f15444287253e4122e8579532ddf9c",
      "vout": 1,
      "prevout": {
        "scriptpubkey": "0014eaff0cc9310a21e98c8ce1b4cc7e2a1e9d2d0207",
        "scriptpubkey_asm": "OP_0 OP_PUSHBYTES_20 eaff0cc9310a21e98c8ce1b4cc7e2a1e9d2d0207",
        "scriptpubkey_type": "v0_p2wpkh",
        "scriptpubkey_address": "bc1qatlsejf3pgs7nryvux6vcl32r6wj6qs8xyak2n",
        "value": 18702
      },
      "scriptsig": "",
      "scriptsig_asm": "",
      "witness": [
        "30440220485a4036b7416166cef77aa61c29877a5bb4f4899f93d2a77f82c0680c9a2b21022013caa011a252456598646efccebf3a6d3033c99aea2dd20f769ca56f62503e6501",
        "030af4b2dc58162b49d38e6e39a835007d7db5c5fee40270a438f178f6843a047b"
      ],
      "is_coinbase": false,
      "sequence": 4294967295
    }
  ],
  "vout": [
    {
      "scriptpubkey": "001470e011c157c0c04bfa8b38bb494c1c909a70b0d7",
      "scriptpubkey_asm": "OP_0 OP_PUSHBYTES_20 70e011c157c0c04bfa8b38bb494c1c909a70b0d7",
      "scriptpubkey_type": "v0_p2wpkh",
      "scriptpubkey_address": "bc1qwrsprs2hcrqyh75t8za5jnqujzd8pvxhzjzlvm",
      "value": 10880
    },
    {
      "scriptpubkey": "00149c330048021ef46eed6d17b9dcd0128104a2eedf",
      "scriptpubkey_asm": "OP_0 OP_PUSHBYTES_20 9c330048021ef46eed6d17b9dcd0128104a2eedf",
      "scriptpubkey_type": "v0_p2wpkh",
      "scriptpubkey_address": "bc1qnsesqjqzrm6xamtdz7uae5qjsyz29mklkvjmmd",
      "value": 5725
    }
  ],
  "size": 222,
  "weight": 561,
  "fee": 2097,
  "status": {
    "confirmed": true,
    "block_height": 834638,
    "block_hash": "000000000000000000025f742c626208ac87e0b7d15054abb4a19ca2d735a54e",
    "block_time": 1710405325
  },
  "hex": "010000000001019cdf2d5379852e12e45372284454f15041e4e2858d5f65364ce78599972504920100000000ffffffff02802a00000000000016001470e011c157c0c04bfa8b38bb494c1c909a70b0d75d160000000000001600149c330048021ef46eed6d17b9dcd0128104a2eedf024730440220485a4036b7416166cef77aa61c29877a5bb4f4899f93d2a77f82c0680c9a2b21022013caa011a252456598646efccebf3a6d3033c99aea2dd20f769ca56f62503e650121030af4b2dc58162b49d38e6e39a835007d7db5c5fee40270a438f178f6843a047b00000000"
}