{
  "txid": "a6a0d82d9cb5d8e8954090692cdaf9a225bf3000155fcf645c94af63a5969cf1",
  "version": 1,
  "locktime": 0,
  "vin": [
    {
      "txid": "24ae18f8f5204491da02db22547df96f20b61ecf3aa392289dce8c0755052de5",
      "vout": 1,
      "prevout": {
        "scriptpubkey": "76a9149f21a07a0c7c3cf65a51f586051395762267cdaf88ac",
        "scriptpubkey_asm": "OP_DUP OP_HASH160 OP_PUSHBYTES_20 9f21a07a0c7c3cf65a51f586051395762267cdaf OP_EQUALVERIFY OP_CHECKSIG",
        "scriptpubkey_type": "p2pkh",
        "scriptpubkey_address": "1FWQiwK27EnGXb6BiBMRLJvunJQZZPMcGd",
        "value": 5384117
      },
      "scriptsig": "483045022100a3c2e6e0bbcf5e5af526ec139fdb4dfab535d8c7ab4d416d7fe15df90758a4120220636090ab6eafb6dda924e3447644b995a7c312176ef00326821c20b3631fdb7c01210369e03e2c91f0badec46c9c903d9e9edae67c167b9ef9b550356ee791c9a40896",
      "scriptsig_asm": "OP_PUSHBYTES_72 3045022100a3c2e6e0bbcf5e5af526ec139fdb4dfab535d8c7ab4d416d7fe15df90758a4120220636090ab6eafb6dda924e3447644b995a7c312176ef00326821c20b3631fdb7c01 OP_PUSHBYTES_33 0369e03e2c91f0badec46c9c903d9e9edae67c167b9ef9b550356ee791c9a40896",
      "is_coinbase": false,
      "sequence": 4294967295
    }
  ],
  "vout": [
    {
      "scriptpubkey": "76a9149f21a07a0c7c3cf65a51f586051395762267cdaf88ac",
      "scriptpubkey_asm": "OP_DUP OP_HASH160 OP_PUSHBYTES_20 9f21a07a0c7c3cf65a51f586051395762267cdaf OP_EQUALVERIFY OP_CHECKSIG",
      "scriptpubkey_type": "p2pkh",
      "scriptpubkey_address": "1FWQiwK27EnGXb6BiBMRLJvunJQZZPMcGd",
      "value": 1962817
    },
    {
      "scriptpubkey": "0014d3957f26de3ce55e4a3a1cc9800f85a58bb05c73",
      "scriptpubkey_asm": "OP_0 OP_PUSHBYTES_20 d3957f26de3ce55e4a3a1cc9800f85a58bb05c73",
      "scriptpubkey_type": "v0_p2wpkh",
      "scriptpubkey_address": "bc1q6w2h7fk78nj4uj36rnycqru95k9mqhrnmpaguy",
      "value": 3415300
    }
  ],
  "size": 223,
  "weight": 892,
  "fee": 6000,
  "status": {
    "confirmed": true,
    "block_height": 834638,
    "block_hash": "000000000000000000025f742c626208ac87e0b7d15054abb4a19ca2d735a54e",
    "block_time": 1710405325
  },
  "hex": "0100000001e52d0555078cce9d2892a33acf1eb6206ff97d5422db02da914420f5f818ae24010000006b483045022100a3c2e6e0bbcf5e5af526ec139fdb4dfab535d8c7ab4d416d7fe15df90758a4120220636090ab6eafb6dda924e3447644b995a7c312176ef00326821c20b3631fdb7c01210369e03e2c91f0badec46c9c903d9e9edae67c167b9ef9b550356ee791c9a40896ffffffff0241f31d00000000001976a9149f21a07a0c7c3cf65a51f586051395762267cdaf88ac041d340000000000160014d3957f26de3ce55e4a3a1cc9800f85a58bb05c7300000000"
}