{
  "txid": "a6a3db0e7c85368f1aad28359855230b6dd6678c751f60e19592ebb487abe17d",
  "version": 2,
  "locktime": 0,
  "vin": [
    {
      "txid": "a648ba6b5876e44bd1c4a6117f7a25b8086b393c7871825f0891e0d6971c8ee2",
      "vout": 51,
      "prevout": {
        "scriptpubkey": "00140279000675db16fca23489280aaf9ee78af16435",
        "scriptpubkey_asm": "OP_0 OP_PUSHBYTES_20 0279000675db16fca23489280aaf9ee78af16435",
        "scriptpubkey_type": "v0_p2wpkh",
        "scriptpubkey_address": "bc1qqfusqpn4mvt0eg353y5q4tu7u790zep45dazhp",
        "value": 401391
      },
      "scriptsig": "",
      "scriptsig_asm": "",
      "witness": [
        "3045022100fcc66007f4205da40842bdc2bc235caa4e37d22264f34b3399f4c0b7ea11f28d0220177e89b1b496505522978d692185857d2c4a415f2be6ecdbf6d93cc3c59817ff01",
        "03d67e924db07f2a261fb6c657e25c2f040637bfa0e5668194198d62afeefce3fa"
      ],
      "is_coinbase": false,
      "sequence": 4294967295
    }
  ],
  "vout": [
    {
      "scriptpubkey": "00147a4d0f50a0d2e4b739a77ef45bdc9bed90977f09",
      "scriptpubkey_asm": "OP_0 OP_PUSHBYTES_20 7a4d0f50a0d2e4b739a77ef45bdc9bed90977f09",
      "scriptpubkey_type": "v0_p2wpkh",
      "scriptpubkey_address": "bc1q0fxs759q6tjtwwd80m69hhymakgfwlcf25ey2x",
      "value": 399091
    }
  ],
  "size": 192,
  "weight": 438,
  "fee": 2300,
  "status": {
    "confirmed": true,
    "block_height": 834460,
    "block_hash": "00000000000000000000484a79b643b2524bbce82e5d8a442013fa5b8905ed98",
    "block_time": 1710307468
  },
  "hex": "02000000000101e28e1c97d6e091085f8271783c396b08b8257a7f11a6c4d14be476586bba48a63300000000ffffffff01f3160600000000001600147a4d0f50a0d2e4b739a77ef45bdc9bed90977f0902483045022100fcc66007f4205da40842bdc2bc235caa4e37d22264f34b3399f4c0b7ea11f28d0220177e89b1b496505522978d692185857d2c4a415f2be6ecdbf6d93cc3c59817ff012103d67e924db07f2a261fb6c657e25c2f040637bfa0e5668194198d62afeefce3fa00000000"
}