{
  "txid": "a6ac5c479e0bfb55603721c86e6783b6f29f1e803e8761485ff80de5ea4609b8",
  "version": 1,
  "locktime": 0,
  "vin": [
    {
      "txid": "dc1dfc01351ddad66b748a5d14273830045dd98f5da8ea31519bde3cd64a9e58",
      "vout": 0,
      "prevout": {
        "scriptpubkey": "51206f872a5d9afc2029f6f15b9a12158318715bddfff741f9bd00389169d53f962d",
        "scriptpubkey_asm": "OP_PUSHNUM_1 OP_PUSHBYTES_32 6f872a5d9afc2029f6f15b9a12158318715bddfff741f9bd00389169d53f962d",
        "scriptpubkey_type": "v1_p2tr",
        "scriptpubkey_address": "bc1pd7rj5hv6lssznah3twdpy9vrrpc4hh0l7aqln0gq8zgkn4fljcksfxqxpz",
        "value": 12703
      },
      "scriptsig": "",
      "scriptsig_asm": "",
      "witness": [
        "38dc4944cae8f1fc380c153f2b1d479a370167631be9a2efa10b8473b7585c89613146e4e7ed2aefe8342e266c96ac47f255920c06896423c026f210bbe929bd",
        "206a85e5bbb65cfee74a4f668c93848af7c1473e89f487d32e36a7ee0edae312e2ac0063036f7264010118746578742f706c61696e3b636861727365743d7574662d38004c557b200d0a20202270223a20226272632d3230222c0d0a2020226f70223a20227472616e73666572222c0d0a2020227469636b223a202273617473222c0d0a202022616d74223a2022313030303030303030220d0a7d68",
        "c16a85e5bbb65cfee74a4f668c93848af7c1473e89f487d32e36a7ee0edae312e2"
      ],
      "is_coinbase": false,
      "sequence": 4294967293
    }
  ],
  "vout": [
    {
      "scriptpubkey": "5120eb41a182377fb6b1d5eaa9a1f8bb52fcb9b26dfba457f377b79b02384ccb46be",
      "scriptpubkey_asm": "OP_PUSHNUM_1 OP_PUSHBYTES_32 eb41a182377fb6b1d5eaa9a1f8bb52fcb9b26dfba457f377b79b02384ccb46be",
      "scriptpubkey_type": "v1_p2tr",
      "scriptpubkey_address": "bc1padq6rq3h07mtr4024xsl3w6jljumym0m53tlxaahnvprsnxtg6lqug8y5h",
      "value": 10000
    }
  ],
  "size": 353,
  "weight": 635,
  "fee": 2703,
  "status": {
    "confirmed": true,
    "block_height": 834638,
    "block_hash": "000000000000000000025f742c626208ac87e0b7d15054abb4a19ca2d735a54e",
    "block_time": 1710405325
  },
  "hex": "01000000000101589e4ad63cde9b5131eaa85d8fd95d04303827145d8a746bd6da1d3501fc1ddc0000000000fdffffff011027000000000000225120eb41a182377fb6b1d5eaa9a1f8bb52fcb9b26dfba457f377b79b02384ccb46be034038dc4944cae8f1fc380c153f2b1d479a370167631be9a2efa10b8473b7585c89613146e4e7ed2aefe8342e266c96ac47f255920c06896423c026f210bbe929bd9c206a85e5bbb65cfee74a4f668c93848af7c1473e89f487d32e36a7ee0edae312e2ac0063036f7264010118746578742f706c61696e3b636861727365743d7574662d38004c557b200d0a20202270223a20226272632d3230222c0d0a2020226f70223a20227472616e73666572222c0d0a2020227469636b223a202273617473222c0d0a202022616d74223a2022313030303030303030220d0a7d6821c16a85e5bbb65cfee74a4f668c93848af7c1473e89f487d32e36a7ee0edae312e200000000"
}