{
  "txid": "a6c41956b6cf96e3fbe30f63f4e61c340c5d87fab30cee417bc8dc0d9884383a",
  "version": 1,
  "locktime": 0,
  "vin": [
    {
      "txid": "c0ca9f9f13bb4653c7b2216f9be5eee3977de560962cc3996af274a48d4194e5",
      "vout": 170,
      "prevout": {
        "scriptpubkey": "a914dff65cb1a4c9642984a7c7b3ae63e0475cdc69aa87",
        "scriptpubkey_asm": "OP_HASH160 OP_PUSHBYTES_20 dff65cb1a4c9642984a7c7b3ae63e0475cdc69aa OP_EQUAL",
        "scriptpubkey_type": "p2sh",
        "scriptpubkey_address": "3N7DjrpQjv6jyDAoWzUJak23Kz1ZnSsjdH",
        "value": 146700
      },
      "scriptsig": "160014aa7ec8af781c2f97cab48e83cf4928064f7e0b20",
      "scriptsig_asm": "OP_PUSHBYTES_22 0014aa7ec8af781c2f97cab48e83cf4928064f7e0b20",
      "witness": [
        "3044022009184d4cd4d1e5a3eb7a210b3d4a509ef9fb5aea7d8c41c24c31ccf9222f710702206c792c824ca9d71658b3460aa36aced6b0502913c782d8e70b68c8f242ea75a901",
        "0345c1db8de296ebaaa1bb59b1dced9f13462173bfc3389ff6ecec94b496e84b65"
      ],
      "is_coinbase": false,
      "sequence": 4294967295,
      "inner_redeemscript_asm": "OP_0 OP_PUSHBYTES_20 aa7ec8af781c2f97cab48e83cf4928064f7e0b20"
    }
  ],
  "vout": [
    {
      "scriptpubkey": "00144c237be4d937eb8be7dcfe595546ab251b17fe79",
      "scriptpubkey_asm": "OP_0 OP_PUSHBYTES_20 4c237be4d937eb8be7dcfe595546ab251b17fe79",
      "scriptpubkey_type": "v0_p2wpkh",
      "scriptpubkey_address": "bc1qfs3hhexexl4che7ulev4234ty5d30lnea0rvqs",
      "value": 143165
    },
    {
      "scriptpubkey": "a9146d287873e49fd9dd721c743b8d240e37b8ea785187",
      "scriptpubkey_asm": "OP_HASH160 OP_PUSHBYTES_20 6d287873e49fd9dd721c743b8d240e37b8ea7851 OP_EQUAL",
      "scriptpubkey_type": "p2sh",
      "scriptpubkey_address": "3BeC4PpHeAMvVmmw5nz9XvbY8gphxCXhRp",
      "value": 1060
    }
  ],
  "size": 246,
  "weight": 657,
  "fee": 2475,
  "status": {
    "confirmed": true,
    "block_height": 834460,
    "block_hash": "00000000000000000000484a79b643b2524bbce82e5d8a442013fa5b8905ed98",
    "block_time": 1710307468
  },
  "hex": "01000000000101e594418da474f26a99c32c9660e57d97e3eee59b6f21b2c75346bb139f9fcac0aa00000017160014aa7ec8af781c2f97cab48e83cf4928064f7e0b20ffffffff023d2f0200000000001600144c237be4d937eb8be7dcfe595546ab251b17fe79240400000000000017a9146d287873e49fd9dd721c743b8d240e37b8ea78518702473044022009184d4cd4d1e5a3eb7a210b3d4a509ef9fb5aea7d8c41c24c31ccf9222f710702206c792c824ca9d71658b3460aa36aced6b0502913c782d8e70b68c8f242ea75a901210345c1db8de296ebaaa1bb59b1dced9f13462173bfc3389ff6ecec94b496e84b6500000000"
}