{
  "txid": "a6c9247a760bdd862af1157fef8e4dcac2e33d7f60e394b149f4e22620486d80",
  "version": 1,
  "locktime": 0,
  "vin": [
    {
      "txid": "d581171b0e318f477297a910f4ea83fef676eebc27ddf21f2245d04f3e18a6c0",
      "vout": 1,
      "prevout": {
        "scriptpubkey": "0014bf6078b051d0125e3912e9e8ffa9cf0b29839a23",
        "scriptpubkey_asm": "OP_0 OP_PUSHBYTES_20 bf6078b051d0125e3912e9e8ffa9cf0b29839a23",
        "scriptpubkey_type": "v0_p2wpkh",
        "scriptpubkey_address": "bc1qhas83vz36qf9uwgja850l2w0pv5c8x3rhn65yy",
        "value": 611300
      },
      "scriptsig": "",
      "scriptsig_asm": "",
      "witness": [
        "3045022100f96b4853e706f3b3c31a1ad645f7aa6211033956c2aec74976dd810f3b8e4b9c02202e52428c860926901fbdaf3100426fc078422026719d26ae2c8ef85d58e4665501",
        "0205bdc1faee1c34b1438d08e92f0398267fb205f4f2e9172487cbb01d57ef3e47"
      ],
      "is_coinbase": false,
      "sequence": 4294967295
    }
  ],
  "vout": [
    {
      "scriptpubkey": "a91462626e1436a7392e6b7981ea7faa8af5316c32e587",
      "scriptpubkey_asm": "OP_HASH160 OP_PUSHBYTES_20 62626e1436a7392e6b7981ea7faa8af5316c32e5 OP_EQUAL",
      "scriptpubkey_type": "p2sh",
      "scriptpubkey_address": "3AfE4Nwi8HUXRfFoaWV5DLqCjEJSHQiRYx",
      "value": 204245
    },
    {
      "scriptpubkey": "0014bf6078b051d0125e3912e9e8ffa9cf0b29839a23",
      "scriptpubkey_asm": "OP_0 OP_PUSHBYTES_20 bf6078b051d0125e3912e9e8ffa9cf0b29839a23",
      "scriptpubkey_type": "v0_p2wpkh",
      "scriptpubkey_address": "bc1qhas83vz36qf9uwgja850l2w0pv5c8x3rhn65yy",
      "value": 403221
    }
  ],
  "size": 224,
  "weight": 566,
  "fee": 3834,
  "status": {
    "confirmed": true,
    "block_height": 834638,
    "block_hash": "000000000000000000025f742c626208ac87e0b7d15054abb4a19ca2d735a54e",
    "block_time": 1710405325
  },
  "hex": "01000000000101c0a6183e4fd045221ff2dd27bcee76f6fe83eaf410a99772478f310e1b1781d50100000000ffffffff02d51d03000000000017a91462626e1436a7392e6b7981ea7faa8af5316c32e5871527060000000000160014bf6078b051d0125e3912e9e8ffa9cf0b29839a2302483045022100f96b4853e706f3b3c31a1ad645f7aa6211033956c2aec74976dd810f3b8e4b9c02202e52428c860926901fbdaf3100426fc078422026719d26ae2c8ef85d58e4665501210205bdc1faee1c34b1438d08e92f0398267fb205f4f2e9172487cbb01d57ef3e4700000000"
}