{
  "txid": "a6d46bc94d189fd88f0ecf1c709329dff46272f763f7b5b4654dfc9cb8cba26d",
  "version": 2,
  "locktime": 0,
  "vin": [
    {
      "txid": "eda794e0cdf7c70447aacb926ea005f7a0ce132131724f039c9867d9c06d1f45",
      "vout": 72,
      "prevout": {
        "scriptpubkey": "0014ce79734d60691b59c082a4ae2134b66a8d2577b9",
        "scriptpubkey_asm": "OP_0 OP_PUSHBYTES_20 ce79734d60691b59c082a4ae2134b66a8d2577b9",
        "scriptpubkey_type": "v0_p2wpkh",
        "scriptpubkey_address": "bc1qeeuhxntqdyd4nsyz5jhzzd9kd2xj2aaef7fs80",
        "value": 352571
      },
      "scriptsig": "",
      "scriptsig_asm": "",
      "witness": [
        "3044022072b7ffb30a9d4af369386aa7a5915313768ef5588f783733b63f6c8da2a832cb02206031cd7ee389adbfcc2ebf8ecdbf3f198b2a4174b64b4e02f980bb2db3166e6601",
        "0270aab1d150f43353584837d97d50dbc90a868e32fabffafe4d55c3d3a2121508"
      ],
      "is_coinbase": false,
      "sequence": 4294967293
    },
    {
      "txid": "98461a3689a4a52a3453aa0bb6106534c741a98db645e40ea8360d5109855aed",
      "vout": 41,
      "prevout": {
        "scriptpubkey": "0014d535e071abed4c82572fc559dc73faa15900e2bc",
        "scriptpubkey_asm": "OP_0 OP_PUSHBYTES_20 d535e071abed4c82572fc559dc73faa15900e2bc",
        "scriptpubkey_type": "v0_p2wpkh",
        "scriptpubkey_address": "bc1q6567qudta4xgy4e0c4vacul659vspc4uhx3p0n",
        "value": 1055350
      },
      "scriptsig": "",
      "scriptsig_asm": "",
      "witness": [
        "3045022100f9ed688e05df41cb951052e3bcc37c85529ab706cab9e61cd59ae39e0f496dd002205201350ef43202d91ee4c860fc4e25faf960c8f72ec825030c2043935c1aeb3501",
        "03e8e1a5e7344a38a10ba15b4a1b57632d2240906c7ed7925c511360efddc0d6da"
      ],
      "is_coinbase": false,
      "sequence": 4294967293
    },
    {
      "txid": "d42d09f6b23a6794cc59edc83e20f06a298aafe29df259a4ac86d77dc1a34214",
      "vout": 28,
      "prevout": {
        "scriptpubkey": "001400d7c985c9c19de13f68532d8b759776f4856bcb",
        "scriptpubkey_asm": "OP_0 OP_PUSHBYTES_20 00d7c985c9c19de13f68532d8b759776f4856bcb",
        "scriptpubkey_type": "v0_p2wpkh",
        "scriptpubkey_address": "bc1qqrtunpwfcxw7z0mg2vkckavhwm6g267tv50usa",
        "value": 977047
      },
      "scriptsig": "",
      "scriptsig_asm": "",
      "witness": [
        "3045022100e679a34c7c56c6e60afc2caa673f0cf571892868d638e09c6823cd648cda2152022063461f033d8628e3ce45817cd2c4832e0a3500b8936ba054d924fa74e85a023201",
        "03a7612c76715a152217714477e73edf484393e11c7150edac1743916459f2084e"
      ],
      "is_coinbase": false,
      "sequence": 4294967293
    },
    {
      "txid": "081f89af5207a46a0c9c2e0a57bb6f3f99b3b96ad84d3c185caa76e1054c272d",
      "vout": 1,
      "prevout": {
        "scriptpubkey": "001461e574c00ea58277b9996a938cc8f72d34c14729",
        "scriptpubkey_asm": "OP_0 OP_PUSHBYTES_20 61e574c00ea58277b9996a938cc8f72d34c14729",
        "scriptpubkey_type": "v0_p2wpkh",
        "scriptpubkey_address": "bc1qv8jhfsqw5kp80wved2fcej8h956vz3ef2f7ecr",
        "value": 6290958
      },
      "scriptsig": "",
      "scriptsig_asm": "",
      "witness": [
        "3044022006b482bfb74f6ecf8e40d9c05022b7522afd671eefee7b6cd0c4bebc0b6f56f80220605fa5b63d4a312ce19094e8604b4807c5fea706dfac6a8d662635ce7d5556c501",
        "0399b042d5dd65ffc4e31ac3bb2b194d517652217a6aca37bb1e4699caa13cb064"
      ],
      "is_coinbase": false,
      "sequence": 4294967293
    }
  ],
  "vout": [
    {
      "scriptpubkey": "76a9144629acfacc5a222d888359de314e8bdb7300277488ac",
      "scriptpubkey_asm": "OP_DUP OP_HASH160 OP_PUSHBYTES_20 4629acfacc5a222d888359de314e8bdb73002774 OP_EQUALVERIFY OP_CHECKSIG",
      "scriptpubkey_type": "p2pkh",
      "scriptpubkey_address": "17PzE7Bojx4w1M657fQ5rdos1s4XcCojeT",
      "value": 8666006
    }
  ],
  "size": 640,
  "weight": 1264,
  "fee": 9920,
  "status": {
    "confirmed": true,
    "block_height": 834638,
    "block_hash": "000000000000000000025f742c626208ac87e0b7d15054abb4a19ca2d735a54e",
    "block_time": 1710405325
  },
  "hex": "02000000000104451f6dc0d967989c034f72312113cea0f705a06e92cbaa4704c7f7cde094a7ed4800000000fdffffffed5a8509510d36a80ee445b68da941c7346510b60baa53342aa5a489361a46982900000000fdffffff1442a3c17dd786aca459f29de2af8a296af0203ec8ed59cc94673ab2f6092dd41c00000000fdffffff2d274c05e176aa5c183c4dd86ab9b3993f6fbb570a2e9c0c6aa40752af891f080100000000fdffffff01963b8400000000001976a9144629acfacc5a222d888359de314e8bdb7300277488ac02473044022072b7ffb30a9d4af369386aa7a5915313768ef5588f783733b63f6c8da2a832cb02206031cd7ee389adbfcc2ebf8ecdbf3f198b2a4174b64b4e02f980bb2db3166e6601210270aab1d150f43353584837d97d50dbc90a868e32fabffafe4d55c3d3a212150802483045022100f9ed688e05df41cb951052e3bcc37c85529ab706cab9e61cd59ae39e0f496dd002205201350ef43202d91ee4c860fc4e25faf960c8f72ec825030c2043935c1aeb35012103e8e1a5e7344a38a10ba15b4a1b57632d2240906c7ed7925c511360efddc0d6da02483045022100e679a34c7c56c6e60afc2caa673f0cf571892868d638e09c6823cd648cda2152022063461f033d8628e3ce45817cd2c4832e0a3500b8936ba054d924fa74e85a0232012103a7612c76715a152217714477e73edf484393e11c7150edac1743916459f2084e02473044022006b482bfb74f6ecf8e40d9c05022b7522afd671eefee7b6cd0c4bebc0b6f56f80220605fa5b63d4a312ce19094e8604b4807c5fea706dfac6a8d662635ce7d5556c501210399b042d5dd65ffc4e31ac3bb2b194d517652217a6aca37bb1e4699caa13cb06400000000"
}