{
  "txid": "a6e77b508d7c226be1f06dadaaf8539e8955b9b9cddfb698ef499b235eac0730",
  "version": 2,
  "locktime": 0,
  "vin": [
    {
      "txid": "5adb77cec99549445d4d2dd8f97d2f4c18f3afbf3e3be8d3702f98759af7c751",
      "vout": 0,
      "prevout": {
        "scriptpubkey": "512056df7b1ed2123995e8b0dda4e4cadbbbed66f96b772cf59b98a0d857c4797b28",
        "scriptpubkey_asm": "OP_PUSHNUM_1 OP_PUSHBYTES_32 56df7b1ed2123995e8b0dda4e4cadbbbed66f96b772cf59b98a0d857c4797b28",
        "scriptpubkey_type": "v1_p2tr",
        "scriptpubkey_address": "bc1p2m0hk8kjzguet69smkjwfjkmh0kkd7ttwuk0txuc5rv903re0v5qeh7ecr",
        "value": 18345
      },
      "scriptsig": "",
      "scriptsig_asm": "",
      "witness": [
        "1459e14f73a2ad368598c9c3443b651ac31ce5c7cd981fcacc66b269cfcf64157f777f4d63353db0248a0df80370b1495578bd445248a84355e98596e4a35dcb",
        "20969271131aaa37603c7f08c0f31b5dcec31f58532e865bd7f48a7ad54b1a3e1eac0063036f7264010109696d6167652f706e67004d080289504e470d0a1a0a0000000d494844520000025800000258080300000089b868ee0000003c504c5445010101cc8c8cff5c3dd5d1d1722d04ffffff3315005b86977e3910682a01364f585122071e292d7c370e110f0d506d78a97c6f97583ba6b6bcd66654b8f1c47a000000097048597300000b1300000b1301009a9c1800000fb649444154789ceddd017bd248178661f673b7a78b25b4bbffffbf7ed7aa40260c3a7178f34e4f9e5b2d82b64d330f8780450e01081c141f14202c48101624080b12840509c28204614182b020415890202c48101624080b12840509c28204614182b020415890202c48101624080b12840509c28204614182b046743eb68b3111d6888e8776e71812618de8485820ac2a26d6888e4c2c105615136b4447261608ab8a8935a223130b8455c5c41ad1918905c2aa62628de8c8c402615531b14674646281b03a26d65bd3dfc2b31cf732b106ddf8b48e7b090bdb3a121608ab8a8935a223136be50e7b6b76f67e7ac1675f81b0743bece8fdf4de43e223134bb6c308ab11f70a09ab19136b2526561bc25a89b0da10d64a84d586b05622ac3684b51261b521ac9508ab0d61ad44586d086b25c26a43582b11561bc25a89b0da10d64a84d586b05622ac3684b51261b521ac9508ab0d61ad44586d086b25c26a43582b11561bc25a89b09e1fd634dc53410c4fff5ab3c3daf7ace2d357bf93fc38b53a5af753fb1e4d0802d121ac35616df6549073ed0761a59d58d6e7189d057b44878945581284455812844558128445581284455812844558128445581284455812844558128445581284455812844558128445581284455812844558128445581284455819c26a7e6588e6ef96e43b48efedef3b48db1df6f2adc9e7b7b7a9f147fbd60ff0322e84e50eebb099d81261d5115627c2222c09c2222c09c2222c09c2222c09c2222c09c2222c09c2222c09c2222c09c2222c09c2222c09c2222c09c2222c09c2222c09c2222c09c2222c09c2222c09c2222c09c2222cc25af1648afaf3819abf15fc5cf5df2b531cee7e36bf32c5b9fa310f9b892d659d582b9ed2d2f9ee6f8aaf4922b64458842541588425415884254158842541588425415884254158842541588425415884254158842541588425415884254158842541588425415884254158842541588425415884254158842541584386f5d6f732306fc7b7fb9fed2f6af00c8435625853df6b58f05a3acf58848ccfd299084ba57d1108eb0e138bb0ea98584c2c6e0aeb3878e7184b82b0084b82b0084b82b0084b82b0084b82b0084b82b0084b82b0084b82b0084b82b0084b82b0084b82b0084b82b0084b82b0084b82b0086b4f61b57f7ff7e17038564c9bbdfb746c75e8dba615efef5ebe71c3daf08540320abf11b6a182b0bab8978fb0920abf11b6a18289d5c5bd7c849554f88db00d154cac2eeee523ac4d0802a4c26f846da8606275712f1f6125157e236c430513ab8b7bf9082ba9f01b611b2a98585ddccb47584985df08db50c1c4eae25e3ec24a2afc46d8860a265617f7f2115652e137c2365430b1bab8978fb0920abf11b6a18289d5c5bd7c849554f88db00d154cac2eeee523aca4c26f846da8606275712f1f6125157e236c430513ab8b7bf9082ba9f01b611b2a98585ddccb47584985df08db50c1c4eae25e3ec24a2afc46d8860a265617f7f2115652e137c2365430b1bab8978fb0920abf11b6a18289d5c5bd7c849554f88db00d154cac2eeee523aca4c26f846da8606275712f1f6125157e236c430513ab8b7bf9082ba9f01b611b2a98585ddccb47584985df08db50c1c4eae25e3ec24a2afc46d8860a265617f7f2115652e137c2365430b1bab8978fb0920abf11b6a18289d5c5bd7c849554f88db00d154cac2eeee523aca4c26f846da8606275712f1f6125157e236c430513ab8b7bf9082ba9f01b611b2a98583d26f7f211564e93bb2ac2ca6972574558394deeaa082ba7c95d1561e534b9ab22ac9c08eb211e6ee8415884254158842541588425415884254158842541588425415884254158842541588425415884254158842541588425415884254158842541588425415884254158842541583f29ebadcff1dceaf069bc357f4de137e833a1e3eb4b9fafa7d736a7c3a7f1b5f14b7a7d75af1e617daab05e08ab1f13eb1e138bb04d08022498588425c1c4222c092616614930b1084b82894558124c2cc2926062119604138bb02498588425c1c4222c092616614930b1084b82894558124c2cc2926062119604138bb02498588425c1c4fa4c616d68ea6ca8fd4b0abfdd3f4b67432f8ae154e5ae8ab03ed5c46ae7ae8ab0b67462620d8063ac1eeed563626de9c4c41a0013ab877bf598585b3a31b106c0c4eae15e3d26d6964e4cac0130b17ab8578f89b5a513136b004cac1eeed563626de9c4c41a0013ab877bf598585b3a31b106c0c4eae15e3d26d6964e4cac0130b17ab8578f89b5a917bed1cf2fe3c47a212cbf8c616dc7bd7adc1426157e3c4b27a3f023ac8cc28fb0320a3fc2ca28fc082ba3f023ac8cc28fb0320a3fc2ca28fc082ba3f023ac8cc28fb0320a3fc2ca28fc082ba3f023ac8cc28fb0320a3fc2ca28fc082ba3f023ac8cc26fd4b05ea63e2f5ff7ecd8e79c38ac15ff273a9e2d795853d78f1f3ff7fa6beaf8993dac3edf3fc0b4d35f87f90e58fd367958bdd7bb1d6735f564351d8eb9c3eabcdefdd849f30fb38fd3e9f2dbe9b7dee69f585dd7bb5956d3ce4e0fff9dfede9efbf1bb7d4cacdfb9de5d77957b9127dbe9efa47579efe4615d77ce7a3ff690f20667dcd3e9727ee5d5f1b2cb76708c75f99a2f57a6d6dfdff6f2b4bfd36f7eef4a797997dc61cd77d47c2735fc7eda7356d33cabe6abe2ecb633ffc45aa4353f6ef8d5ef67d7d85d9d4eb74b6e4d0802479b0dd7c5f25db28775db51e555b0d8838f2ebf5d5d77737a28b22af6dcf4e0f7e507b9bc67f2b0e67ba8b80a5ef6c435adeae57b9e58d362343d9854b3a176b9fcdb05c9c39aeda1c5adddfdcebabb7cdae9e961794dfc3e91e6d36936cc6e7bab388c481fd6653f95d3fdb6bb6e7b64be876e237d7fa7d36c3f94e697cc8e1b8aebe6e56deeb016cd5c332a76d6f5f4beb0f29ab883d3c32cabe56e29af94c5de2bc7d8b75fb9c3babbee2dc6f9fd8d40e5fc8e4cd7378b59349ff7655dc515757664963dacca215411ccf5ef2caea9973f981d63d8c7c9a43fbd7cddc55dbeeb65b73f5a44588eb19d1c632d46d33598f9ec7f786c318f70ca7f3a2dbee6c57dc3da002b829a259a3dac4a237713abd84bb73d3a8bb072ab99f2f4306ba63c66bacea4e500bbfeade208357f582d640753952bf6134e256e37f8f3897dffd9e64713b7168b21f7fde7e70bebef66dd4f54293edacf9e2a757c7f8fbb1fe7e28a7d78d2e9dfad6adbf9f15edbd0f70737f8f383aae5fdbedbdc2adee1f647e7c461756b7ec993e3978a7fe64bf5b4a3ebd36b87f7da767ef9f236bf91abdd3ecebbbb0db56583c5f8222c6558821bb0534f581f0fc3ba6ce23598dbf922efc55753f4780b6c22aced26d65386d6a49a58e5cdf66262952595377bcbbf71792f269634ace59da7fed3937e62158114f78d17c7f6f38b8bd898589b4daca7dd313cf584f58b89754d08020d6759f3f2d6bc7c3cb5b8f5e4186bbb63ac673d14269c58f359f3e3a478ec6a7973fe38abcb05dc14ca27d64cd7ede0f4ed648b63acc57d8dfbfb1f7703aa78c331967a62cd1fffa95efdd79d3f74df14b61f6315f71c2e175f1fd162620d33b1a69fce8015e74f5b1c633d1e4d0f0614c758db86553cfe331f5e8b19d07a7e924facc34f475325ab4717708c659c58d3caf307f931d6e25f922bc74e776f38c672dc14de1ee8a91e33ad3d3fc9ef15de8a9a9ab2bacfefc709134b3cb1160b56b97919eb186bbacdace5231d0fd2e218cb33b18a252b976579ccf5abf3876d8eb16647e9656f4caca126567947be7a40bce2fc497c8c752dfaf6891f0c5b8eb16c61cda2aa67b5fc37c486f3a78dfeadb0dc068eb1463cc69a3d72509f58f30395c7e727f9c4ba4dabfb47ad38c61a2aacf20183fbac1a1f72986e976d71aff0fe9ac031d690c7583fbfffb4fc06bacaf9c3edc36cf038d6fd905a8e2f8eb1469f58e5edddec986a2acecfc689fe5ee1e21fa37f714358ffaa781ceb39617dfcecdb66aef7b6beeffa4e27d9c47a2e1e207d4258a7d3eba9e2753c1f557fd6bef8739f673c6f8667e964147e849551f8115646e1475819851f6165147e849551f8115646e1475819851f6165147e849551f8115646e1475819851f6165147e849551f8115646e1475819851f6165147e849551f8115646e1b7a7b04e1f0aaf030abf3d85f5fafe4d0802c7f3bdbf0e28fc088bb024088bb024088bb024088bb024088bb024088bb024088bb024088bb024088bb024088bb024088bb024088bb024088bb024088bb024088bb024088bb024088bb024088bb024088bb024088bb024088bb024088bb024088bb024088bb024088bb024088bb024088bb024088bb024088bb024088bb024088bb024088bb024088bb024088bb024088bb024088bb024088bb024088bb024088bb024088bb024088bb01284d54ef2ca14bce4c976f614d6a9165b2fc5c7ece65ebd9d85b51fe1475819851f6165147e849551f8115646e1475819851f6165147e849551f8115646e1475819851f6165147e849551f8115646e1475819851f6165147e849551f8115646e1475819851f6165147e849551f8115646e1475819851f6165147e849551f8115646e1475819851f6165147e849591bb2ac24a2afc985819851f616de87d2bff54b5bf3f617daaffc6e8e32fafffb5fa97b0086b05c24afa1faf7dfce5455884254158842541588425415884254158842541588425415884254158842541588425415884254158842541588425415884254158842541588425415884254158842541588425415884254158842541588425415884254158842541588425415884254158842541588425415884254158842541588425415884254158842541588425415884254158842541588425415884254158842541588425415839c33a4d08027dfcb1155ef26457616d861769da55581b0a3f5efd2ba3f023ac8cc28fb0320a3fc2ca28fc082ba3f023ac8cc28fb0320a3fc2ca28fc082ba3f023ac8cc28fb0320a3fc2ca28fc082ba3f023ac8cc28fb0320a3fc2ca28fc082ba3f023ac8cc28fb0320a3fc2ca28fc082ba3f023ac8cc28fb0320a3fc2ca28fc082ba3f023ac8cc28fb0320a3fc2ca28fc082ba3f023ac8cc28fb0320a3fc2ca28fc082ba3f023ac8cc28fb0320a3fc2ca28fc082ba3f023ac8cc28fb0320a3fc2ca28fc082ba3f023ac8cc28fb0320a3fc2ca28fc082ba3f023ac8cc28fb0320a3fc2ca28fcf28635b857c2fa94617dfd7370a7d4f32aefc41a31acd813c2222c09c2222c09c2222c09c2222c09c2222c09c2222c09c2222c09c2222c09c2222c09c2222cc2e29f743e0f2616134b82b0084b82b0084b82b0084b82b0084b82b0084b82b0084b82b0084b82b0084b82b0084b82b0084b82b0084b82b0084b82b0084b82b0084b82b0084b82b0084b82b0084b82b0084b82b0084b82b0084b82b0084b82b0084b82b0084b82b0084b82b0084b82b0084b82b0084b82b0084b82b0084b82b0084b82b0084b82b0084b82b0084b82b0084b82b0084b82b0084b82b0084b82b0084b82b0084b82b0084b82b0084b82b0084b82b0084b82b0084b82b0084b82b0084b82b0084b82b0084b82b0084b82b0084b82b0084b82b0084b82b0082b14fe0f41e4933f990c1f950c0000000049454e44ae42608268",
        "c1969271131aaa37603c7f08c0f31b5dcec31f58532e865bd7f48a7ad54b1a3e1e"
      ],
      "is_coinbase": false,
      "sequence": 4294967293
    }
  ],
  "vout": [
    {
      "scriptpubkey": "512092d0c4be49414c8ce960e04bd67b94f223e9ce71227bcb9ae8584d3d87f33a1e",
      "scriptpubkey_asm": "OP_PUSHNUM_1 OP_PUSHBYTES_32 92d0c4be49414c8ce960e04bd67b94f223e9ce71227bcb9ae8584d3d87f33a1e",
      "scriptpubkey_type": "v1_p2tr",
      "scriptpubkey_address": "bc1pjtgvf0jfg9xge6tqup9av7u57g37nnn3yfauhxhgtpxnmpln8g0qek58d9",
      "value": 600
    }
  ],
  "size": 4450,
  "weight": 4732,
  "fee": 17745,
  "status": {
    "confirmed": true,
    "block_height": 834460,
    "block_hash": "00000000000000000000484a79b643b2524bbce82e5d8a442013fa5b8905ed98",
    "block_time": 1710307468
  },
  "hex": "0200000000010151c7f79a75982f70d3e83b3ebfaff3184c2f7df9d82d4d5d444995c9ce77db5a0000000000fdffffff01580200000000000022512092d0c4be49414c8ce960e04bd67b94f223e9ce71227bcb9ae8584d3d87f33a1e03401459e14f73a2ad368598c9c3443b651ac31ce5c7cd981fcacc66b269cfcf64157f777f4d63353db0248a0df80370b1495578bd445248a84355e98596e4a35dcbfd9b1020969271131aaa37603c7f08c0f31b5dcec31f58532e865bd7f48a7ad54b1a3e1eac0063036f7264010109696d6167652f706e67004d080289504e470d0a1a0a0000000d494844520000025800000258080300000089b868ee0000003c504c5445010101cc8c8cff5c3dd5d1d1722d04ffffff3315005b86977e3910682a01364f585122071e292d7c370e110f0d506d78a97c6f97583ba6b6bcd66654b8f1c47a000000097048597300000b1300000b1301009a9c1800000fb649444154789ceddd017bd248178661f673b7a78b25b4bbffffbf7ed7aa40260c3a7178f34e4f9e5b2d82b64d330f8780450e01081c141f14202c48101624080b12840509c28204614182b020415890202c48101624080b12840509c28204614182b020415890202c48101624080b12840509c28204614182b046743eb68b3111d6888e8776e71812618de8485820ac2a26d6888e4c2c105615136b4447261608ab8a8935a223130b8455c5c41ad1918905c2aa62628de8c8c402615531b14674646281b03a26d65bd3dfc2b31cf732b106ddf8b48e7b090bdb3a121608ab8a8935a223136be50e7b6b76f67e7ac1675f81b0743bece8fdf4de43e223134bb6c308ab11f70a09ab19136b2526561bc25a89b0da10d64a84d586b05622ac3684b51261b521ac9508ab0d61ad44586d086b25c26a43582b11561bc25a89b0da10d64a84d586b05622ac3684b51261b521ac9508ab0d61ad44586d086b25c26a43582b11561bc25a89b09e1fd634dc53410c4fff5ab3c3daf7ace2d357bf93fc38b53a5af753fb1e4d0802d121ac35616df6549073ed0761a59d58d6e7189d057b44878945581284455812844558128445581284455812844558128445581284455812844558128445581284455812844558128445581284455812844558128445581284455819c26a7e6588e6ef96e43b48efedef3b48db1df6f2adc9e7b7b7a9f147fbd60ff0322e84e50eebb099d81261d5115627c2222c09c2222c09c2222c09c2222c09c2222c09c2222c09c2222c09c2222c09c2222c09c2222c09c2222c09c2222c09c2222c09c2222c09c2222c09c2222c09c2222c09c2222cc25af1648afaf3819abf15fc5cf5df2b531cee7e36bf32c5b9fa310f9b892d659d582b9ed2d2f9ee6f8aaf4922b64458842541588425415884254158842541588425415884254158842541588425415884254158842541588425415884254158842541588425415884254158842541588425415884254158842541584386f5d6f732306fc7b7fb9fed2f6af00c8435625853df6b58f05a3acf58848ccfd299084ba57d1108eb0e138bb0ea98584c2c6e0aeb3878e7184b82b0084b82b0084b82b0084b82b0084b82b0084b82b0084b82b0084b82b0084b82b0084b82b0084b82b0084b82b0084b82b0084b82b0086b4f61b57f7ff7e17038564c9bbdfb746c75e8dba615efef5ebe71c3daf08540320abf11b6a182b0bab8978fb0920abf11b6a18289d5c5bd7c849554f88db00d154cac2eeee523ac4d0802a4c26f846da8606275712f1f6125157e236c430513ab8b7bf9082ba9f01b611b2a98585ddccb47584985df08db50c1c4eae25e3ec24a2afc46d8860a265617f7f2115652e137c2365430b1bab8978fb0920abf11b6a18289d5c5bd7c849554f88db00d154cac2eeee523aca4c26f846da8606275712f1f6125157e236c430513ab8b7bf9082ba9f01b611b2a98585ddccb47584985df08db50c1c4eae25e3ec24a2afc46d8860a265617f7f2115652e137c2365430b1bab8978fb0920abf11b6a18289d5c5bd7c849554f88db00d154cac2eeee523aca4c26f846da8606275712f1f6125157e236c430513ab8b7bf9082ba9f01b611b2a98585ddccb47584985df08db50c1c4eae25e3ec24a2afc46d8860a265617f7f2115652e137c2365430b1bab8978fb0920abf11b6a18289d5c5bd7c849554f88db00d154cac2eeee523aca4c26f846da8606275712f1f6125157e236c430513ab8b7bf9082ba9f01b611b2a98583d26f7f211564e93bb2ac2ca6972574558394deeaa082ba7c95d1561e534b9ab22ac9c08eb211e6ee8415884254158842541588425415884254158842541588425415884254158842541588425415884254158842541588425415884254158842541588425415884254158842541583f29ebadcff1dceaf069bc357f4de137e833a1e3eb4b9fafa7d736a7c3a7f1b5f14b7a7d75af1e617daab05e08ab1f13eb1e138bb04d08022498588425c1c4222c092616614930b1084b82894558124c2cc2926062119604138bb02498588425c1c4222c092616614930b1084b82894558124c2cc2926062119604138bb02498588425c1c4fa4c616d68ea6ca8fd4b0abfdd3f4b67432f8ae154e5ae8ab03ed5c46ae7ae8ab0b67462620d8063ac1eeed563626de9c4c41a0013ab877bf598585b3a31b106c0c4eae15e3d26d6964e4cac0130b17ab8578f89b5a513136b004cac1eeed563626de9c4c41a0013ab877bf598585b3a31b106c0c4eae15e3d26d6964e4cac0130b17ab8578f89b5a917bed1cf2fe3c47a212cbf8c616dc7bd7adc1426157e3c4b27a3f023ac8cc28fb0320a3fc2ca28fc082ba3f023ac8cc28fb0320a3fc2ca28fc082ba3f023ac8cc28fb0320a3fc2ca28fc082ba3f023ac8cc28fb0320a3fc2ca28fc082ba3f023ac8cc26fd4b05ea63e2f5ff7ecd8e79c38ac15ff273a9e2d795853d78f1f3ff7fa6beaf8993dac3edf3fc0b4d35f87f90e58fd367958bdd7bb1d6735f564351d8eb9c3eabcdefdd849f30fb38fd3e9f2dbe9b7dee69f585dd7bb5956d3ce4e0fff9dfede9efbf1bb7d4cacdfb9de5d77957b9127dbe9efa47579efe4615d77ce7a3ff690f20667dcd3e9727ee5d5f1b2cb76708c75f99a2f57a6d6dfdff6f2b4bfd36f7eef4a797997dc61cd77d47c2735fc7eda7356d33cabe6abe2ecb633ffc45aa4353f6ef8d5ef67d7d85d9d4eb74b6e4d0802479b0dd7c5f25db28775db51e555b0d8838f2ebf5d5d77737a28b22af6dcf4e0f7e507b9bc67f2b0e67ba8b80a5ef6c435adeae57b9e58d362343d9854b3a176b9fcdb05c9c39aeda1c5adddfdcebabb7cdae9e961794dfc3e91e6d36936cc6e7bab388c481fd6653f95d3fdb6bb6e7b64be876e237d7fa7d36c3f94e697cc8e1b8aebe6e56deeb016cd5c332a76d6f5f4beb0f29ab883d3c32cabe56e29af94c5de2bc7d8b75fb9c3babbee2dc6f9fd8d40e5fc8e4cd7378b59349ff7655dc515757664963dacca215411ccf5ef2caea9973f981d63d8c7c9a43fbd7cddc55dbeeb65b73f5a44588eb19d1c632d46d33598f9ec7f786c318f70ca7f3a2dbee6c57dc3da002b829a259a3dac4a237713abd84bb73d3a8bb072ab99f2f4306ba63c66bacea4e500bbfeade208357f582d640753952bf6134e256e37f8f3897dffd9e64713b7168b21f7fde7e70bebef66dd4f54293edacf9e2a757c7f8fbb1fe7e28a7d78d2e9dfad6adbf9f15edbd0f70737f8f383aae5fdbedbdc2adee1f647e7c461756b7ec993e3978a7fe64bf5b4a3ebd36b87f7da767ef9f236bf91abdd3ecebbbb0db56583c5f8222c6558821bb0534f581f0fc3ba6ce23598dbf922efc55753f4780b6c22aced26d65386d6a49a58e5cdf66262952595377bcbbf71792f269634ace59da7fed3937e62158114f78d17c7f6f38b8bd898589b4daca7dd313cf584f58b89754d08020d6759f3f2d6bc7c3cb5b8f5e4186bbb63ac673d14269c58f359f3e3a478ec6a7973fe38abcb05dc14ca27d64cd7ede0f4ed648b63acc57d8dfbfb1f7703aa78c331967a62cd1fffa95efdd79d3f74df14b61f6315f71c2e175f1fd162620d33b1a69fce8015e74f5b1c633d1e4d0f0614c758db86553cfe331f5e8b19d07a7e924facc34f475325ab4717708c659c58d3caf307f931d6e25f922bc74e776f38c672dc14de1ee8a91e33ad3d3fc9ef15de8a9a9ab2bacfefc709134b3cb1160b56b97919eb186bbacdace5231d0fd2e218cb33b18a252b976579ccf5abf3876d8eb16647e9656f4caca126567947be7a40bce2fc497c8c752dfaf6891f0c5b8eb16c61cda2aa67b5fc37c486f3a78dfeadb0dc068eb1463cc69a3d72509f58f30395c7e727f9c4ba4dabfb47ad38c61a2aacf20183fbac1a1f72986e976d71aff0fe9ac031d690c7583fbfffb4fc06bacaf9c3edc36cf038d6fd905a8e2f8eb1469f58e5edddec986a2acecfc689fe5ee1e21fa37f714358ffaa781ceb39617dfcecdb66aef7b6beeffa4e27d9c47a2e1e207d4258a7d3eba9e2753c1f557fd6bef8739f673c6f8667e964147e849551f8115646e1475819851f6165147e849551f8115646e1475819851f6165147e849551f8115646e1475819851f6165147e849551f8115646e1475819851f6165147e849551f8115646e1b7a7b04e1f0aaf030abf3d85f5fafe4d0802c7f3bdbf0e28fc088bb024088bb024088bb024088bb024088bb024088bb024088bb024088bb024088bb024088bb024088bb024088bb024088bb024088bb024088bb024088bb024088bb024088bb024088bb024088bb024088bb024088bb024088bb024088bb024088bb024088bb024088bb024088bb024088bb024088bb024088bb024088bb024088bb024088bb024088bb024088bb024088bb024088bb024088bb024088bb024088bb01284d54ef2ca14bce4c976f614d6a9165b2fc5c7ece65ebd9d85b51fe1475819851f6165147e849551f8115646e1475819851f6165147e849551f8115646e1475819851f6165147e849551f8115646e1475819851f6165147e849551f8115646e1475819851f6165147e849551f8115646e1475819851f6165147e849551f8115646e1475819851f6165147e849591bb2ac24a2afc985819851f616de87d2bff54b5bf3f617daaffc6e8e32fafffb5fa97b0086b05c24afa1faf7dfce5455884254158842541588425415884254158842541588425415884254158842541588425415884254158842541588425415884254158842541588425415884254158842541588425415884254158842541588425415884254158842541588425415884254158842541588425415884254158842541588425415884254158842541588425415884254158842541588425415884254158842541588425415839c33a4d08027dfcb1155ef26457616d861769da55581b0a3f5efd2ba3f023ac8cc28fb0320a3fc2ca28fc082ba3f023ac8cc28fb0320a3fc2ca28fc082ba3f023ac8cc28fb0320a3fc2ca28fc082ba3f023ac8cc28fb0320a3fc2ca28fc082ba3f023ac8cc28fb0320a3fc2ca28fc082ba3f023ac8cc28fb0320a3fc2ca28fc082ba3f023ac8cc28fb0320a3fc2ca28fc082ba3f023ac8cc28fb0320a3fc2ca28fc082ba3f023ac8cc28fb0320a3fc2ca28fc082ba3f023ac8cc28fb0320a3fc2ca28fc082ba3f023ac8cc28fb0320a3fc2ca28fc082ba3f023ac8cc28fb0320a3fc2ca28fcf28635b857c2fa94617dfd7370a7d4f32aefc41a31acd813c2222c09c2222c09c2222c09c2222c09c2222c09c2222c09c2222c09c2222c09c2222c09c2222cc2e29f743e0f2616134b82b0084b82b0084b82b0084b82b0084b82b0084b82b0084b82b0084b82b0084b82b0084b82b0084b82b0084b82b0084b82b0084b82b0084b82b0084b82b0084b82b0084b82b0084b82b0084b82b0084b82b0084b82b0084b82b0084b82b0084b82b0084b82b0084b82b0084b82b0084b82b0084b82b0084b82b0084b82b0084b82b0084b82b0084b82b0084b82b0084b82b0084b82b0084b82b0084b82b0084b82b0084b82b0084b82b0084b82b0084b82b0084b82b0084b82b0084b82b0084b82b0084b82b0084b82b0084b82b0084b82b0082b14fe0f41e4933f990c1f950c0000000049454e44ae4260826821c1969271131aaa37603c7f08c0f31b5dcec31f58532e865bd7f48a7ad54b1a3e1e00000000"
}