{
  "txid": "a6e80cb0a5d7df4f4a92459a75c69e9f728d722d5263c8ed786565475064610b",
  "version": 1,
  "locktime": 0,
  "vin": [
    {
      "txid": "ef6d21ea65e012f2bdb48166b27a3f35c8b973e4a964f9cd483a5e7eddb27e22",
      "vout": 1,
      "prevout": {
        "scriptpubkey": "76a91448badd38a9fc328c3ad674e054a1457208131fd688ac",
        "scriptpubkey_asm": "OP_DUP OP_HASH160 OP_PUSHBYTES_20 48badd38a9fc328c3ad674e054a1457208131fd6 OP_EQUALVERIFY OP_CHECKSIG",
        "scriptpubkey_type": "p2pkh",
        "scriptpubkey_address": "17dZWMtvXTwU2XG2hgeVhazmjLvXtFsC3a",
        "value": 14214726
      },
      "scriptsig": "4830450221009dd543efab1aa2e83c102e3ea37e3c8e0c92bd2c8a1b9cbaab5a8415aa5d0e50022035b57b4f3514871b8cd8a9cbaaa5d5999063e3ec2c76e5849d2a39566392c89001210348d08e1df2592164e0942573121641f77d3c5d029cd226be2105c7d639cd6c73",
      "scriptsig_asm": "OP_PUSHBYTES_72 30450221009dd543efab1aa2e83c102e3ea37e3c8e0c92bd2c8a1b9cbaab5a8415aa5d0e50022035b57b4f3514871b8cd8a9cbaaa5d5999063e3ec2c76e5849d2a39566392c89001 OP_PUSHBYTES_33 0348d08e1df2592164e0942573121641f77d3c5d029cd226be2105c7d639cd6c73",
      "is_coinbase": false,
      "sequence": 4294967295
    }
  ],
  "vout": [
    {
      "scriptpubkey": "76a9149ae10b9ea7b77e2a35c41fc8db9772ccbd264dee88ac",
      "scriptpubkey_asm": "OP_DUP OP_HASH160 OP_PUSHBYTES_20 9ae10b9ea7b77e2a35c41fc8db9772ccbd264dee OP_EQUALVERIFY OP_CHECKSIG",
      "scriptpubkey_type": "p2pkh",
      "scriptpubkey_address": "1F7veyF1VczzULYHY4owqxGHvcBhJCG1RJ",
      "value": 7000000
    },
    {
      "scriptpubkey": "76a91481069ee302a6deccba6beb8bfbcbc3fc5f81f83688ac",
      "scriptpubkey_asm": "OP_DUP OP_HASH160 OP_PUSHBYTES_20 81069ee302a6deccba6beb8bfbcbc3fc5f81f836 OP_EQUALVERIFY OP_CHECKSIG",
      "scriptpubkey_type": "p2pkh",
      "scriptpubkey_address": "1CmE6kuiBTw7JL2CgQ5RstSPi5hdz7SpqW",
      "value": 7211548
    }
  ],
  "size": 226,
  "weight": 904,
  "fee": 3178,
  "status": {
    "confirmed": true,
    "block_height": 834460,
    "block_hash": "00000000000000000000484a79b643b2524bbce82e5d8a442013fa5b8905ed98",
    "block_time": 1710307468
  },
  "hex": "0100000001227eb2dd7e5e3a48cdf964a9e473b9c8353f7ab26681b4bdf212e065ea216def010000006b4830450221009dd543efab1aa2e83c102e3ea37e3c8e0c92bd2c8a1b9cbaab5a8415aa5d0e50022035b57b4f3514871b8cd8a9cbaaa5d5999063e3ec2c76e5849d2a39566392c89001210348d08e1df2592164e0942573121641f77d3c5d029cd226be2105c7d639cd6c73ffffffff02c0cf6a00000000001976a9149ae10b9ea7b77e2a35c41fc8db9772ccbd264dee88ac1c0a6e00000000001976a91481069ee302a6deccba6beb8bfbcbc3fc5f81f83688ac00000000"
}