{
  "txid": "a709db0195c1a72fca9a793249079634975325f5e219bca6527dec1a064e1ba3",
  "version": 2,
  "locktime": 0,
  "vin": [
    {
      "txid": "a7829a8ea7200eb945a7151212bfa792199dcf5d30840689e1b220898a536a7f",
      "vout": 1,
      "prevout": {
        "scriptpubkey": "5120decb7196b65261495004a2e8d93ef51746686d19f73e30d457ad71fa61768b4c",
        "scriptpubkey_asm": "OP_PUSHNUM_1 OP_PUSHBYTES_32 decb7196b65261495004a2e8d93ef51746686d19f73e30d457ad71fa61768b4c",
        "scriptpubkey_type": "v1_p2tr",
        "scriptpubkey_address": "bc1pmm9hr94k2fs5j5qy5t5dj0h4zarxsmge7ulrp4zh44cl5ctk3dxqf40hf8",
        "value": 220014
      },
      "scriptsig": "",
      "scriptsig_asm": "",
      "witness": [
        "02d474da067303451abc96c58034c995936dba1eebbb1e882873c42757659c8198ede59807c881eb7f4000d887b81359e2f5a60637364c03d5a1d8c16c9bf54e"
      ],
      "is_coinbase": false,
      "sequence": 4294967293
    }
  ],
  "vout": [
    {
      "scriptpubkey": "512094c5cbdaf491fad25487d88a200a7d414cb928522b3b1da8e952a600f93cba98",
      "scriptpubkey_asm": "OP_PUSHNUM_1 OP_PUSHBYTES_32 94c5cbdaf491fad25487d88a200a7d414cb928522b3b1da8e952a600f93cba98",
      "scriptpubkey_type": "v1_p2tr",
      "scriptpubkey_address": "bc1pjnzuhkh5j8ady4y8mz9zqznag9xtj2zj9va3m28f22nqp7fuh2vqxaelva",
      "value": 2826
    },
    {
      "scriptpubkey": "5120decb7196b65261495004a2e8d93ef51746686d19f73e30d457ad71fa61768b4c",
      "scriptpubkey_asm": "OP_PUSHNUM_1 OP_PUSHBYTES_32 decb7196b65261495004a2e8d93ef51746686d19f73e30d457ad71fa61768b4c",
      "scriptpubkey_type": "v1_p2tr",
      "scriptpubkey_address": "bc1pmm9hr94k2fs5j5qy5t5dj0h4zarxsmge7ulrp4zh44cl5ctk3dxqf40hf8",
      "value": 214878
    }
  ],
  "size": 205,
  "weight": 616,
  "fee": 2310,
  "status": {
    "confirmed": true,
    "block_height": 834638,
    "block_hash": "000000000000000000025f742c626208ac87e0b7d15054abb4a19ca2d735a54e",
    "block_time": 1710405325
  },
  "hex": "020000000001017f6a538a8920b2e1890684305dcf9d1992a7bf121215a745b90e20a78e9a82a70100000000fdffffff020a0b00000000000022512094c5cbdaf491fad25487d88a200a7d414cb928522b3b1da8e952a600f93cba985e47030000000000225120decb7196b65261495004a2e8d93ef51746686d19f73e30d457ad71fa61768b4c014002d474da067303451abc96c58034c995936dba1eebbb1e882873c42757659c8198ede59807c881eb7f4000d887b81359e2f5a60637364c03d5a1d8c16c9bf54e00000000"
}