{
  "txid": "a713a72d92d8ecd5ac03e693ef39a07a4098249b46f4a03105835154067ca999",
  "version": 2,
  "locktime": 0,
  "vin": [
    {
      "txid": "42214a0aa79a58e0636f94c0d210d67a67eb9065a02619b17f4e610fab2ea99f",
      "vout": 12,
      "prevout": {
        "scriptpubkey": "5120f875c9f7d63f1fc2605be95ab82da598459ea540a75115c019b90108590e211c",
        "scriptpubkey_asm": "OP_PUSHNUM_1 OP_PUSHBYTES_32 f875c9f7d63f1fc2605be95ab82da598459ea540a75115c019b90108590e211c",
        "scriptpubkey_type": "v1_p2tr",
        "scriptpubkey_address": "bc1plp6una7k8u0uyczma9dtstd9npzeaf2q5ag3tsqehyqsskgwyywqngznl4",
        "value": 2608
      },
      "scriptsig": "",
      "scriptsig_asm": "",
      "witness": [
        "1b534d33e8d720fdf9574b7ddeecb63d4fbdb49b4ec0db0a2950325c170af7294b960c1875d5b361dc36ef746659c15c867d810149a0f742a02fa1f94de7475c",
        "207ca3e41fc8eb8d66fa1294d10eb40ad09d9ac014db09ba16fb089fe5c8e75a32ac0063036f726401010a746578742f706c61696e00367b2270223a226272632d3230222c227469636b223a2261616161222c226f70223a226d696e74222c22616d74223a223130303030227d68",
        "c07ca3e41fc8eb8d66fa1294d10eb40ad09d9ac014db09ba16fb089fe5c8e75a32"
      ],
      "is_coinbase": false,
      "sequence": 4294967293
    }
  ],
  "vout": [
    {
      "scriptpubkey": "51206a2a98e77e4f6cca637938f92f5dfbb2c5f8ba38ac8abf6868a3958c24b49693",
      "scriptpubkey_asm": "OP_PUSHNUM_1 OP_PUSHBYTES_32 6a2a98e77e4f6cca637938f92f5dfbb2c5f8ba38ac8abf6868a3958c24b49693",
      "scriptpubkey_type": "v1_p2tr",
      "scriptpubkey_address": "bc1pdg4f3em7fakv5cme8ruj7h0mktzl3w3c4j9t76rg5w2ccf95j6fsqxe47f",
      "value": 546
    }
  ],
  "size": 307,
  "weight": 589,
  "fee": 2062,
  "status": {
    "confirmed": true,
    "block_height": 834460,
    "block_hash": "00000000000000000000484a79b643b2524bbce82e5d8a442013fa5b8905ed98",
    "block_time": 1710307468
  },
  "hex": "020000000001019fa92eab0f614e7fb11926a06590eb677ad610d2c0946f63e0589aa70a4a21420c00000000fdffffff0122020000000000002251206a2a98e77e4f6cca637938f92f5dfbb2c5f8ba38ac8abf6868a3958c24b4969303401b534d33e8d720fdf9574b7ddeecb63d4fbdb49b4ec0db0a2950325c170af7294b960c1875d5b361dc36ef746659c15c867d810149a0f742a02fa1f94de7475c6e207ca3e41fc8eb8d66fa1294d10eb40ad09d9ac014db09ba16fb089fe5c8e75a32ac0063036f726401010a746578742f706c61696e00367b2270223a226272632d3230222c227469636b223a2261616161222c226f70223a226d696e74222c22616d74223a223130303030227d6821c07ca3e41fc8eb8d66fa1294d10eb40ad09d9ac014db09ba16fb089fe5c8e75a3200000000"
}