{
  "txid": "a729a72663997e2f85e794f6e501f9587e3984ff56816fe0e69fc4720f9f75bd",
  "version": 2,
  "locktime": 0,
  "vin": [
    {
      "txid": "acc3ba00869acb582a3f2904ce3a11dd3779350ce234063fc7d0959246213364",
      "vout": 190,
      "prevout": {
        "scriptpubkey": "5120e838f4514b40558775fb951b7b2dab9f24349e8305d6fe7a9f44779a2e18ae0c",
        "scriptpubkey_asm": "OP_PUSHNUM_1 OP_PUSHBYTES_32 e838f4514b40558775fb951b7b2dab9f24349e8305d6fe7a9f44779a2e18ae0c",
        "scriptpubkey_type": "v1_p2tr",
        "scriptpubkey_address": "bc1paqu0g52tgp2cwa0mj5dhktdtnujrf85rqht0u75lg3me5tsc4cxqexlxez",
        "value": 1806
      },
      "scriptsig": "",
      "scriptsig_asm": "",
      "witness": [
        "ec16bb1b09d52635461765fd183331f49337fe8dd427a8f262f47f00148ea2754ffcf19c837d833fa734e5307db4b8c4e480af441be9d8dbb43e4d224d1d720d",
        "20ab1831245ddd2ce5918b280ee56cee1ade729971329af7aeed2a7c72e1be5a56ac0063036f726401010a746578742f706c61696e00357b2270223a226272632d3230222c226f70223a226d696e74222c227469636b223a22646f6765222c22616d74223a2234323030227d68",
        "c1ab1831245ddd2ce5918b280ee56cee1ade729971329af7aeed2a7c72e1be5a56"
      ],
      "is_coinbase": false,
      "sequence": 4261412863
    }
  ],
  "vout": [
    {
      "scriptpubkey": "00147a665de7a370f4c9b372ab1fae587500a5bcbdb4",
      "scriptpubkey_asm": "OP_0 OP_PUSHBYTES_20 7a665de7a370f4c9b372ab1fae587500a5bcbdb4",
      "scriptpubkey_type": "v0_p2wpkh",
      "scriptpubkey_address": "bc1q0fn9mearwr6vnvmj4v06ukr4qzjme0d565dzcx",
      "value": 294
    }
  ],
  "size": 294,
  "weight": 540,
  "fee": 1512,
  "status": {
    "confirmed": true,
    "block_height": 834460,
    "block_hash": "00000000000000000000484a79b643b2524bbce82e5d8a442013fa5b8905ed98",
    "block_time": 1710307468
  },
  "hex": "02000000000101643321469295d0c73f0634e20c357937dd113ace04293f2a58cb9a8600bac3acbe00000000fffffffd0126010000000000001600147a665de7a370f4c9b372ab1fae587500a5bcbdb40340ec16bb1b09d52635461765fd183331f49337fe8dd427a8f262f47f00148ea2754ffcf19c837d833fa734e5307db4b8c4e480af441be9d8dbb43e4d224d1d720d6d20ab1831245ddd2ce5918b280ee56cee1ade729971329af7aeed2a7c72e1be5a56ac0063036f726401010a746578742f706c61696e00357b2270223a226272632d3230222c226f70223a226d696e74222c227469636b223a22646f6765222c22616d74223a2234323030227d6821c1ab1831245ddd2ce5918b280ee56cee1ade729971329af7aeed2a7c72e1be5a5600000000"
}