{
  "txid": "a73182747492d62c4adfbc9ead9b8ce7a03d4882094fb227633909c389781fd8",
  "version": 2,
  "locktime": 0,
  "vin": [
    {
      "txid": "4ee77778659dcfe8d7a4e15882fc6193f4f3d5f6607624e256337b44c2280af5",
      "vout": 90,
      "prevout": {
        "scriptpubkey": "512049587f26d24dcf686cf55abfc093897f5b701ca10ef500f801a6a735803d7b75",
        "scriptpubkey_asm": "OP_PUSHNUM_1 OP_PUSHBYTES_32 49587f26d24dcf686cf55abfc093897f5b701ca10ef500f801a6a735803d7b75",
        "scriptpubkey_type": "v1_p2tr",
        "scriptpubkey_address": "bc1pf9v87fkjfh8ksm84t2lupyuf0adhq89ppm6sp7qp56nntqpa0d6s5zx26w",
        "value": 2075
      },
      "scriptsig": "",
      "scriptsig_asm": "",
      "witness": [
        "2f33d31b1e7ff29cc5d663f89f6197774612224eb9eb0a7ef9ac11009dad1772e8dfa1c70cdb89f16637a8d5e5ed79315926fe113d4e4fcbc42254e21d32481a",
        "2033cbe144ecff6dca2b876bff2fdbc2fbb22f4c433e6f0d8998a701a8c95e5eabac0063036f7264010118746578742f706c61696e3b636861727365743d7574662d3800357b2270223a224252432d313030222c226f70223a226d696e74222c227469636b223a22696e73222c22616d74223a2231303030227d68",
        "c1c50eac15d7d7889f5ad84f80015e8a209129aeea937c37fa4b8bc0f9be289730"
      ],
      "is_coinbase": false,
      "sequence": 4294967295
    }
  ],
  "vout": [
    {
      "scriptpubkey": "00143e2325412b554cacdd163a93a42204c4707f8851",
      "scriptpubkey_asm": "OP_0 OP_PUSHBYTES_20 3e2325412b554cacdd163a93a42204c4707f8851",
      "scriptpubkey_type": "v0_p2wpkh",
      "scriptpubkey_address": "bc1q8c3j2sft24x2ehgk82f6ggsyc3c8lzz3yw9wsu",
      "value": 546
    }
  ],
  "size": 308,
  "weight": 554,
  "fee": 1529,
  "status": {
    "confirmed": true,
    "block_height": 834464,
    "block_hash": "0000000000000000000177a0869a911a2b65c9bdcd5a8bcb02b68f305bee848e",
    "block_time": 1710308296
  },
  "hex": "02000000000101f50a28c2447b3356e2247660f6d5f3f49361fc8258e1a4d7e8cf9d657877e74e5a00000000ffffffff0122020000000000001600143e2325412b554cacdd163a93a42204c4707f885103402f33d31b1e7ff29cc5d663f89f6197774612224eb9eb0a7ef9ac11009dad1772e8dfa1c70cdb89f16637a8d5e5ed79315926fe113d4e4fcbc42254e21d32481a7b2033cbe144ecff6dca2b876bff2fdbc2fbb22f4c433e6f0d8998a701a8c95e5eabac0063036f7264010118746578742f706c61696e3b636861727365743d7574662d3800357b2270223a224252432d313030222c226f70223a226d696e74222c227469636b223a22696e73222c22616d74223a2231303030227d6821c1c50eac15d7d7889f5ad84f80015e8a209129aeea937c37fa4b8bc0f9be28973000000000"
}