{
  "txid": "a7375c8bd1d8b89f4b7cf6587583358f2f94e865d05e5ba61fce8e00af28dd5b",
  "version": 2,
  "locktime": 0,
  "vin": [
    {
      "txid": "12848a1f84ad552475e874cce291926f292412de23b7537898e98c7370f2e86c",
      "vout": 1,
      "prevout": {
        "scriptpubkey": "5120006b6798f136a8fe171758b0daf836722a5b4fd424ebb85870d34d878d02330f",
        "scriptpubkey_asm": "OP_PUSHNUM_1 OP_PUSHBYTES_32 006b6798f136a8fe171758b0daf836722a5b4fd424ebb85870d34d878d02330f",
        "scriptpubkey_type": "v1_p2tr",
        "scriptpubkey_address": "bc1pqp4k0x83x650u9chtzcd47pkwg49kn75yn4mskrs6dxc0rgzxv8s0y6jt5",
        "value": 2358
      },
      "scriptsig": "",
      "scriptsig_asm": "",
      "witness": [
        "23bc79805499b8f9633d718b7afaead0da6cab251b6d468a8046a1c8016842ca863fd6918297c79aaabfac819525722c19f54437282b18025ee5b7b0dbcceddc",
        "2004edc67bb9dd781d5a815468ed2dc5d65874f2f38df3271f6f4c5533cf5c9c8aac0063036f7264010118746578742f706c61696e3b636861727365743d7574662d3800377b2270223a226272632d3230222c226f70223a226d696e74222c227469636b223a22424f424f222c22616d74223a22313030303030227d68",
        "c1507504f881a2548efcb0bd8b5287fd78c473d5bd35b181abdd5c5cd6d10de204"
      ],
      "is_coinbase": false,
      "sequence": 4294967295
    }
  ],
  "vout": [
    {
      "scriptpubkey": "512048d62e6aa4ce9b4b4d760b1dc0c3e46b46d84be76ae456792a664139e7aaa19c",
      "scriptpubkey_asm": "OP_PUSHNUM_1 OP_PUSHBYTES_32 48d62e6aa4ce9b4b4d760b1dc0c3e46b46d84be76ae456792a664139e7aaa19c",
      "scriptpubkey_type": "v1_p2tr",
      "scriptpubkey_address": "bc1pfrtzu64ye6d5kntkpvwupslyddrdsjl8dtj9v7f2veqnnea25xwqu8ycu4",
      "value": 546
    }
  ],
  "size": 322,
  "weight": 604,
  "fee": 1812,
  "status": {
    "confirmed": true,
    "block_height": 834460,
    "block_hash": "00000000000000000000484a79b643b2524bbce82e5d8a442013fa5b8905ed98",
    "block_time": 1710307468
  },
  "hex": "020000000001016ce8f270738ce9987853b723de1224296f9291e2cc74e8752455ad841f8a84120100000000ffffffff01220200000000000022512048d62e6aa4ce9b4b4d760b1dc0c3e46b46d84be76ae456792a664139e7aaa19c034023bc79805499b8f9633d718b7afaead0da6cab251b6d468a8046a1c8016842ca863fd6918297c79aaabfac819525722c19f54437282b18025ee5b7b0dbcceddc7d2004edc67bb9dd781d5a815468ed2dc5d65874f2f38df3271f6f4c5533cf5c9c8aac0063036f7264010118746578742f706c61696e3b636861727365743d7574662d3800377b2270223a226272632d3230222c226f70223a226d696e74222c227469636b223a22424f424f222c22616d74223a22313030303030227d6821c1507504f881a2548efcb0bd8b5287fd78c473d5bd35b181abdd5c5cd6d10de20400000000"
}