{
  "txid": "a73fac70a1ede147b3d2b37317972e6b77ace440bb8a81610cf780936adb9924",
  "version": 2,
  "locktime": 0,
  "vin": [
    {
      "txid": "e3092169bbe9c0aead50b90049377b10358df8c0a04535ad78525934a8b8b7e0",
      "vout": 0,
      "prevout": {
        "scriptpubkey": "51206dbae274a032f8591a1bed798b8c22e66d3d23e1995bd88001a345bf1d915def",
        "scriptpubkey_asm": "OP_PUSHNUM_1 OP_PUSHBYTES_32 6dbae274a032f8591a1bed798b8c22e66d3d23e1995bd88001a345bf1d915def",
        "scriptpubkey_type": "v1_p2tr",
        "scriptpubkey_address": "bc1pdkawya9qxtu9jxsma4uchrpzuekn6glpn9da3qqp5dzm78v3thhsxmljdg",
        "value": 546
      },
      "scriptsig": "",
      "scriptsig_asm": "",
      "witness": [
        "56cca57c14558db7ca337aec70ab25043ac13a936a37fde59e147ef7b2b2884c2a4cd687c1b2ed81da370b7e30e9a5af2da4bb882e6e7435f893af018bfa1e6b"
      ],
      "is_coinbase": false,
      "sequence": 2147483649
    },
    {
      "txid": "53a65484275689ae0e8cacc17a44dba5b4657736b991b0a0320eecf5fcd1557e",
      "vout": 1,
      "prevout": {
        "scriptpubkey": "51206dbae274a032f8591a1bed798b8c22e66d3d23e1995bd88001a345bf1d915def",
        "scriptpubkey_asm": "OP_PUSHNUM_1 OP_PUSHBYTES_32 6dbae274a032f8591a1bed798b8c22e66d3d23e1995bd88001a345bf1d915def",
        "scriptpubkey_type": "v1_p2tr",
        "scriptpubkey_address": "bc1pdkawya9qxtu9jxsma4uchrpzuekn6glpn9da3qqp5dzm78v3thhsxmljdg",
        "value": 32979
      },
      "scriptsig": "",
      "scriptsig_asm": "",
      "witness": [
        "6a7feb2d7aa1ed3b42d7e4aafb8ebe546191684f7a450182660b5fc9dac0c251f415ddf000198c71df31317befeb6577ac0466d348610ee677bf6b0af3f17ea1"
      ],
      "is_coinbase": false,
      "sequence": 2147483649
    }
  ],
  "vout": [
    {
      "scriptpubkey": "5120a1cd424c6b0c39647bf96380d3f4d360c37a05c42a261f1d0ec34958fa250971",
      "scriptpubkey_asm": "OP_PUSHNUM_1 OP_PUSHBYTES_32 a1cd424c6b0c39647bf96380d3f4d360c37a05c42a261f1d0ec34958fa250971",
      "scriptpubkey_type": "v1_p2tr",
      "scriptpubkey_address": "bc1p58x5ynrtpsukg7levwqd8axnvrph5pwy9gnp78gwcdy43739p9csje4yxt",
      "value": 546
    },
    {
      "scriptpubkey": "51206dbae274a032f8591a1bed798b8c22e66d3d23e1995bd88001a345bf1d915def",
      "scriptpubkey_asm": "OP_PUSHNUM_1 OP_PUSHBYTES_32 6dbae274a032f8591a1bed798b8c22e66d3d23e1995bd88001a345bf1d915def",
      "scriptpubkey_type": "v1_p2tr",
      "scriptpubkey_address": "bc1pdkawya9qxtu9jxsma4uchrpzuekn6glpn9da3qqp5dzm78v3thhsxmljdg",
      "value": 30025
    }
  ],
  "size": 312,
  "weight": 846,
  "fee": 2954,
  "status": {
    "confirmed": true,
    "block_height": 834460,
    "block_hash": "00000000000000000000484a79b643b2524bbce82e5d8a442013fa5b8905ed98",
    "block_time": 1710307468
  },
  "hex": "02000000000102e0b7b8a834595278ad3545a0c0f88d35107b374900b950adaec0e9bb692109e30000000000010000807e55d1fcf5ec0e32a0b091b9367765b4a5db447ac1ac8c0eae8956278454a653010000000001000080022202000000000000225120a1cd424c6b0c39647bf96380d3f4d360c37a05c42a261f1d0ec34958fa25097149750000000000002251206dbae274a032f8591a1bed798b8c22e66d3d23e1995bd88001a345bf1d915def014056cca57c14558db7ca337aec70ab25043ac13a936a37fde59e147ef7b2b2884c2a4cd687c1b2ed81da370b7e30e9a5af2da4bb882e6e7435f893af018bfa1e6b01406a7feb2d7aa1ed3b42d7e4aafb8ebe546191684f7a450182660b5fc9dac0c251f415ddf000198c71df31317befeb6577ac0466d348610ee677bf6b0af3f17ea100000000"
}