{
  "txid": "a74026e81488bc8ed65781b5904edb3fd401d40e8892fa7c6d91a1cc66f02170",
  "version": 2,
  "locktime": 0,
  "vin": [
    {
      "txid": "2bba0577543daff9b64cdd5bbeae8779e019c2301a555cad19f5299d4d947d3a",
      "vout": 24,
      "prevout": {
        "scriptpubkey": "a9143d4fc7df88dc125172dea3e6cd2ddf664a71493187",
        "scriptpubkey_asm": "OP_HASH160 OP_PUSHBYTES_20 3d4fc7df88dc125172dea3e6cd2ddf664a714931 OP_EQUAL",
        "scriptpubkey_type": "p2sh",
        "scriptpubkey_address": "37HCiWVweSK7Hp7hesD9QiffNrhxNYLFXi",
        "value": 98004
      },
      "scriptsig": "160014e2781924e75c32635b9f30c7d5404e42ae75b1d4",
      "scriptsig_asm": "OP_PUSHBYTES_22 0014e2781924e75c32635b9f30c7d5404e42ae75b1d4",
      "witness": [
        "3044022060f599bdc34701150ec618d16cf09166a90c1a5910ae340f6a0f20f52ffcc44902206997c7a4d8f22550e6c20a662e1fa5eaff8ac1daefe47b0b0ac6345d13cb063001",
        "02abf657ab0c1aabaa24896a8ab10adde8612397f1eb7067bdcd5d9371d70c2feb"
      ],
      "is_coinbase": false,
      "sequence": 4294967293,
      "inner_redeemscript_asm": "OP_0 OP_PUSHBYTES_20 e2781924e75c32635b9f30c7d5404e42ae75b1d4"
    }
  ],
  "vout": [
    {
      "scriptpubkey": "51202691567e31e951fc72a28ebace6fd5ab716dd455e7b150eadfcadd03a9e37b0e",
      "scriptpubkey_asm": "OP_PUSHNUM_1 OP_PUSHBYTES_32 2691567e31e951fc72a28ebace6fd5ab716dd455e7b150eadfcadd03a9e37b0e",
      "scriptpubkey_type": "v1_p2tr",
      "scriptpubkey_address": "bc1py6g4vl33a9glcu4z36avum744dckm4z4u7c4p6kletws820r0v8qh8nknh",
      "value": 1962
    },
    {
      "scriptpubkey": "51202691567e31e951fc72a28ebace6fd5ab716dd455e7b150eadfcadd03a9e37b0e",
      "scriptpubkey_asm": "OP_PUSHNUM_1 OP_PUSHBYTES_32 2691567e31e951fc72a28ebace6fd5ab716dd455e7b150eadfcadd03a9e37b0e",
      "scriptpubkey_type": "v1_p2tr",
      "scriptpubkey_address": "bc1py6g4vl33a9glcu4z36avum744dckm4z4u7c4p6kletws820r0v8qh8nknh",
      "value": 1962
    },
    {
      "scriptpubkey": "51202691567e31e951fc72a28ebace6fd5ab716dd455e7b150eadfcadd03a9e37b0e",
      "scriptpubkey_asm": "OP_PUSHNUM_1 OP_PUSHBYTES_32 2691567e31e951fc72a28ebace6fd5ab716dd455e7b150eadfcadd03a9e37b0e",
      "scriptpubkey_type": "v1_p2tr",
      "scriptpubkey_address": "bc1py6g4vl33a9glcu4z36avum744dckm4z4u7c4p6kletws820r0v8qh8nknh",
      "value": 1962
    },
    {
      "scriptpubkey": "51202691567e31e951fc72a28ebace6fd5ab716dd455e7b150eadfcadd03a9e37b0e",
      "scriptpubkey_asm": "OP_PUSHNUM_1 OP_PUSHBYTES_32 2691567e31e951fc72a28ebace6fd5ab716dd455e7b150eadfcadd03a9e37b0e",
      "scriptpubkey_type": "v1_p2tr",
      "scriptpubkey_address": "bc1py6g4vl33a9glcu4z36avum744dckm4z4u7c4p6kletws820r0v8qh8nknh",
      "value": 1962
    },
    {
      "scriptpubkey": "51202691567e31e951fc72a28ebace6fd5ab716dd455e7b150eadfcadd03a9e37b0e",
      "scriptpubkey_asm": "OP_PUSHNUM_1 OP_PUSHBYTES_32 2691567e31e951fc72a28ebace6fd5ab716dd455e7b150eadfcadd03a9e37b0e",
      "scriptpubkey_type": "v1_p2tr",
      "scriptpubkey_address": "bc1py6g4vl33a9glcu4z36avum744dckm4z4u7c4p6kletws820r0v8qh8nknh",
      "value": 1962
    },
    {
      "scriptpubkey": "51202691567e31e951fc72a28ebace6fd5ab716dd455e7b150eadfcadd03a9e37b0e",
      "scriptpubkey_asm": "OP_PUSHNUM_1 OP_PUSHBYTES_32 2691567e31e951fc72a28ebace6fd5ab716dd455e7b150eadfcadd03a9e37b0e",
      "scriptpubkey_type": "v1_p2tr",
      "scriptpubkey_address": "bc1py6g4vl33a9glcu4z36avum744dckm4z4u7c4p6kletws820r0v8qh8nknh",
      "value": 1962
    },
    {
      "scriptpubkey": "51202691567e31e951fc72a28ebace6fd5ab716dd455e7b150eadfcadd03a9e37b0e",
      "scriptpubkey_asm": "OP_PUSHNUM_1 OP_PUSHBYTES_32 2691567e31e951fc72a28ebace6fd5ab716dd455e7b150eadfcadd03a9e37b0e",
      "scriptpubkey_type": "v1_p2tr",
      "scriptpubkey_address": "bc1py6g4vl33a9glcu4z36avum744dckm4z4u7c4p6kletws820r0v8qh8nknh",
      "value": 1962
    },
    {
      "scriptpubkey": "51202691567e31e951fc72a28ebace6fd5ab716dd455e7b150eadfcadd03a9e37b0e",
      "scriptpubkey_asm": "OP_PUSHNUM_1 OP_PUSHBYTES_32 2691567e31e951fc72a28ebace6fd5ab716dd455e7b150eadfcadd03a9e37b0e",
      "scriptpubkey_type": "v1_p2tr",
      "scriptpubkey_address": "bc1py6g4vl33a9glcu4z36avum744dckm4z4u7c4p6kletws820r0v8qh8nknh",
      "value": 1962
    },
    {
      "scriptpubkey": "51202691567e31e951fc72a28ebace6fd5ab716dd455e7b150eadfcadd03a9e37b0e",
      "scriptpubkey_asm": "OP_PUSHNUM_1 OP_PUSHBYTES_32 2691567e31e951fc72a28ebace6fd5ab716dd455e7b150eadfcadd03a9e37b0e",
      "scriptpubkey_type": "v1_p2tr",
      "scriptpubkey_address": "bc1py6g4vl33a9glcu4z36avum744dckm4z4u7c4p6kletws820r0v8qh8nknh",
      "value": 1962
    },
    {
      "scriptpubkey": "51202691567e31e951fc72a28ebace6fd5ab716dd455e7b150eadfcadd03a9e37b0e",
      "scriptpubkey_asm": "OP_PUSHNUM_1 OP_PUSHBYTES_32 2691567e31e951fc72a28ebace6fd5ab716dd455e7b150eadfcadd03a9e37b0e",
      "scriptpubkey_type": "v1_p2tr",
      "scriptpubkey_address": "bc1py6g4vl33a9glcu4z36avum744dckm4z4u7c4p6kletws820r0v8qh8nknh",
      "value": 1962
    },
    {
      "scriptpubkey": "51202691567e31e951fc72a28ebace6fd5ab716dd455e7b150eadfcadd03a9e37b0e",
      "scriptpubkey_asm": "OP_PUSHNUM_1 OP_PUSHBYTES_32 2691567e31e951fc72a28ebace6fd5ab716dd455e7b150eadfcadd03a9e37b0e",
      "scriptpubkey_type": "v1_p2tr",
      "scriptpubkey_address": "bc1py6g4vl33a9glcu4z36avum744dckm4z4u7c4p6kletws820r0v8qh8nknh",
      "value": 1962
    },
    {
      "scriptpubkey": "51202691567e31e951fc72a28ebace6fd5ab716dd455e7b150eadfcadd03a9e37b0e",
      "scriptpubkey_asm": "OP_PUSHNUM_1 OP_PUSHBYTES_32 2691567e31e951fc72a28ebace6fd5ab716dd455e7b150eadfcadd03a9e37b0e",
      "scriptpubkey_type": "v1_p2tr",
      "scriptpubkey_address": "bc1py6g4vl33a9glcu4z36avum744dckm4z4u7c4p6kletws820r0v8qh8nknh",
      "value": 1962
    },
    {
      "scriptpubkey": "51202691567e31e951fc72a28ebace6fd5ab716dd455e7b150eadfcadd03a9e37b0e",
      "scriptpubkey_asm": "OP_PUSHNUM_1 OP_PUSHBYTES_32 2691567e31e951fc72a28ebace6fd5ab716dd455e7b150eadfcadd03a9e37b0e",
      "scriptpubkey_type": "v1_p2tr",
      "scriptpubkey_address": "bc1py6g4vl33a9glcu4z36avum744dckm4z4u7c4p6kletws820r0v8qh8nknh",
      "value": 1962
    },
    {
      "scriptpubkey": "51202691567e31e951fc72a28ebace6fd5ab716dd455e7b150eadfcadd03a9e37b0e",
      "scriptpubkey_asm": "OP_PUSHNUM_1 OP_PUSHBYTES_32 2691567e31e951fc72a28ebace6fd5ab716dd455e7b150eadfcadd03a9e37b0e",
      "scriptpubkey_type": "v1_p2tr",
      "scriptpubkey_address": "bc1py6g4vl33a9glcu4z36avum744dckm4z4u7c4p6kletws820r0v8qh8nknh",
      "value": 1962
    },
    {
      "scriptpubkey": "51202691567e31e951fc72a28ebace6fd5ab716dd455e7b150eadfcadd03a9e37b0e",
      "scriptpubkey_asm": "OP_PUSHNUM_1 OP_PUSHBYTES_32 2691567e31e951fc72a28ebace6fd5ab716dd455e7b150eadfcadd03a9e37b0e",
      "scriptpubkey_type": "v1_p2tr",
      "scriptpubkey_address": "bc1py6g4vl33a9glcu4z36avum744dckm4z4u7c4p6kletws820r0v8qh8nknh",
      "value": 1962
    },
    {
      "scriptpubkey": "51202691567e31e951fc72a28ebace6fd5ab716dd455e7b150eadfcadd03a9e37b0e",
      "scriptpubkey_asm": "OP_PUSHNUM_1 OP_PUSHBYTES_32 2691567e31e951fc72a28ebace6fd5ab716dd455e7b150eadfcadd03a9e37b0e",
      "scriptpubkey_type": "v1_p2tr",
      "scriptpubkey_address": "bc1py6g4vl33a9glcu4z36avum744dckm4z4u7c4p6kletws820r0v8qh8nknh",
      "value": 1962
    },
    {
      "scriptpubkey": "51202691567e31e951fc72a28ebace6fd5ab716dd455e7b150eadfcadd03a9e37b0e",
      "scriptpubkey_asm": "OP_PUSHNUM_1 OP_PUSHBYTES_32 2691567e31e951fc72a28ebace6fd5ab716dd455e7b150eadfcadd03a9e37b0e",
      "scriptpubkey_type": "v1_p2tr",
      "scriptpubkey_address": "bc1py6g4vl33a9glcu4z36avum744dckm4z4u7c4p6kletws820r0v8qh8nknh",
      "value": 1962
    },
    {
      "scriptpubkey": "51202691567e31e951fc72a28ebace6fd5ab716dd455e7b150eadfcadd03a9e37b0e",
      "scriptpubkey_asm": "OP_PUSHNUM_1 OP_PUSHBYTES_32 2691567e31e951fc72a28ebace6fd5ab716dd455e7b150eadfcadd03a9e37b0e",
      "scriptpubkey_type": "v1_p2tr",
      "scriptpubkey_address": "bc1py6g4vl33a9glcu4z36avum744dckm4z4u7c4p6kletws820r0v8qh8nknh",
      "value": 1962
    },
    {
      "scriptpubkey": "51202691567e31e951fc72a28ebace6fd5ab716dd455e7b150eadfcadd03a9e37b0e",
      "scriptpubkey_asm": "OP_PUSHNUM_1 OP_PUSHBYTES_32 2691567e31e951fc72a28ebace6fd5ab716dd455e7b150eadfcadd03a9e37b0e",
      "scriptpubkey_type": "v1_p2tr",
      "scriptpubkey_address": "bc1py6g4vl33a9glcu4z36avum744dckm4z4u7c4p6kletws820r0v8qh8nknh",
      "value": 1962
    },
    {
      "scriptpubkey": "51202691567e31e951fc72a28ebace6fd5ab716dd455e7b150eadfcadd03a9e37b0e",
      "scriptpubkey_asm": "OP_PUSHNUM_1 OP_PUSHBYTES_32 2691567e31e951fc72a28ebace6fd5ab716dd455e7b150eadfcadd03a9e37b0e",
      "scriptpubkey_type": "v1_p2tr",
      "scriptpubkey_address": "bc1py6g4vl33a9glcu4z36avum744dckm4z4u7c4p6kletws820r0v8qh8nknh",
      "value": 1962
    },
    {
      "scriptpubkey": "51202691567e31e951fc72a28ebace6fd5ab716dd455e7b150eadfcadd03a9e37b0e",
      "scriptpubkey_asm": "OP_PUSHNUM_1 OP_PUSHBYTES_32 2691567e31e951fc72a28ebace6fd5ab716dd455e7b150eadfcadd03a9e37b0e",
      "scriptpubkey_type": "v1_p2tr",
      "scriptpubkey_address": "bc1py6g4vl33a9glcu4z36avum744dckm4z4u7c4p6kletws820r0v8qh8nknh",
      "value": 1962
    },
    {
      "scriptpubkey": "51202691567e31e951fc72a28ebace6fd5ab716dd455e7b150eadfcadd03a9e37b0e",
      "scriptpubkey_asm": "OP_PUSHNUM_1 OP_PUSHBYTES_32 2691567e31e951fc72a28ebace6fd5ab716dd455e7b150eadfcadd03a9e37b0e",
      "scriptpubkey_type": "v1_p2tr",
      "scriptpubkey_address": "bc1py6g4vl33a9glcu4z36avum744dckm4z4u7c4p6kletws820r0v8qh8nknh",
      "value": 1962
    },
    {
      "scriptpubkey": "51202691567e31e951fc72a28ebace6fd5ab716dd455e7b150eadfcadd03a9e37b0e",
      "scriptpubkey_asm": "OP_PUSHNUM_1 OP_PUSHBYTES_32 2691567e31e951fc72a28ebace6fd5ab716dd455e7b150eadfcadd03a9e37b0e",
      "scriptpubkey_type": "v1_p2tr",
      "scriptpubkey_address": "bc1py6g4vl33a9glcu4z36avum744dckm4z4u7c4p6kletws820r0v8qh8nknh",
      "value": 1962
    },
    {
      "scriptpubkey": "51202691567e31e951fc72a28ebace6fd5ab716dd455e7b150eadfcadd03a9e37b0e",
      "scriptpubkey_asm": "OP_PUSHNUM_1 OP_PUSHBYTES_32 2691567e31e951fc72a28ebace6fd5ab716dd455e7b150eadfcadd03a9e37b0e",
      "scriptpubkey_type": "v1_p2tr",
      "scriptpubkey_address": "bc1py6g4vl33a9glcu4z36avum744dckm4z4u7c4p6kletws820r0v8qh8nknh",
      "value": 1962
    },
    {
      "scriptpubkey": "a9143d4fc7df88dc125172dea3e6cd2ddf664a71493187",
      "scriptpubkey_asm": "OP_HASH160 OP_PUSHBYTES_20 3d4fc7df88dc125172dea3e6cd2ddf664a714931 OP_EQUAL",
      "scriptpubkey_type": "p2sh",
      "scriptpubkey_address": "37HCiWVweSK7Hp7hesD9QiffNrhxNYLFXi",
      "value": 36924
    }
  ],
  "size": 1247,
  "weight": 4661,
  "fee": 13992,
  "status": {
    "confirmed": true,
    "block_height": 834460,
    "block_hash": "00000000000000000000484a79b643b2524bbce82e5d8a442013fa5b8905ed98",
    "block_time": 1710307468
  },
  "hex": "020000000001013a7d944d9d29f519ad5c551a30c219e07987aebe5bdd4cb6f9af3d547705ba2b1800000017160014e2781924e75c32635b9f30c7d5404e42ae75b1d4fdffffff19aa070000000000002251202691567e31e951fc72a28ebace6fd5ab716dd455e7b150eadfcadd03a9e37b0eaa070000000000002251202691567e31e951fc72a28ebace6fd5ab716dd455e7b150eadfcadd03a9e37b0eaa070000000000002251202691567e31e951fc72a28ebace6fd5ab716dd455e7b150eadfcadd03a9e37b0eaa070000000000002251202691567e31e951fc72a28ebace6fd5ab716dd455e7b150eadfcadd03a9e37b0eaa070000000000002251202691567e31e951fc72a28ebace6fd5ab716dd455e7b150eadfcadd03a9e37b0eaa070000000000002251202691567e31e951fc72a28ebace6fd5ab716dd455e7b150eadfcadd03a9e37b0eaa070000000000002251202691567e31e951fc72a28ebace6fd5ab716dd455e7b150eadfcadd03a9e37b0eaa070000000000002251202691567e31e951fc72a28ebace6fd5ab716dd455e7b150eadfcadd03a9e37b0eaa070000000000002251202691567e31e951fc72a28ebace6fd5ab716dd455e7b150eadfcadd03a9e37b0eaa070000000000002251202691567e31e951fc72a28ebace6fd5ab716dd455e7b150eadfcadd03a9e37b0eaa070000000000002251202691567e31e951fc72a28ebace6fd5ab716dd455e7b150eadfcadd03a9e37b0eaa070000000000002251202691567e31e951fc72a28ebace6fd5ab716dd455e7b150eadfcadd03a9e37b0eaa070000000000002251202691567e31e951fc72a28ebace6fd5ab716dd455e7b150eadfcadd03a9e37b0eaa070000000000002251202691567e31e951fc72a28ebace6fd5ab716dd455e7b150eadfcadd03a9e37b0eaa070000000000002251202691567e31e951fc72a28ebace6fd5ab716dd455e7b150eadfcadd03a9e37b0eaa070000000000002251202691567e31e951fc72a28ebace6fd5ab716dd455e7b150eadfcadd03a9e37b0eaa070000000000002251202691567e31e951fc72a28ebace6fd5ab716dd455e7b150eadfcadd03a9e37b0eaa070000000000002251202691567e31e951fc72a28ebace6fd5ab716dd455e7b150eadfcadd03a9e37b0eaa070000000000002251202691567e31e951fc72a28ebace6fd5ab716dd455e7b150eadfcadd03a9e37b0eaa070000000000002251202691567e31e951fc72a28ebace6fd5ab716dd455e7b150eadfcadd03a9e37b0eaa070000000000002251202691567e31e951fc72a28ebace6fd5ab716dd455e7b150eadfcadd03a9e37b0eaa070000000000002251202691567e31e951fc72a28ebace6fd5ab716dd455e7b150eadfcadd03a9e37b0eaa070000000000002251202691567e31e951fc72a28ebace6fd5ab716dd455e7b150eadfcadd03a9e37b0eaa070000000000002251202691567e31e951fc72a28ebace6fd5ab716dd455e7b150eadfcadd03a9e37b0e3c9000000000000017a9143d4fc7df88dc125172dea3e6cd2ddf664a7149318702473044022060f599bdc34701150ec618d16cf09166a90c1a5910ae340f6a0f20f52ffcc44902206997c7a4d8f22550e6c20a662e1fa5eaff8ac1daefe47b0b0ac6345d13cb0630012102abf657ab0c1aabaa24896a8ab10adde8612397f1eb7067bdcd5d9371d70c2feb00000000"
}