{
  "txid": "a7520e9925bce7700b42c7773aed3dfae56f8b6de5bdf63ae03408234499a54b",
  "version": 2,
  "locktime": 0,
  "vin": [
    {
      "txid": "246d654c08ac53d370d501753f3ac2c90861e2c8cea715ed4b7554841cced399",
      "vout": 32,
      "prevout": {
        "scriptpubkey": "5120a660b8a0d00f00e2759b381eb91a5cdca7d4611dd5d483988786b48787bf9bbe",
        "scriptpubkey_asm": "OP_PUSHNUM_1 OP_PUSHBYTES_32 a660b8a0d00f00e2759b381eb91a5cdca7d4611dd5d483988786b48787bf9bbe",
        "scriptpubkey_type": "v1_p2tr",
        "scriptpubkey_address": "bc1p5est3gxspuqwyavm8q0tjxjumjnagcga6h2g8xy8s66g0palnwlqcv9rfl",
        "value": 3042
      },
      "scriptsig": "",
      "scriptsig_asm": "",
      "witness": [
        "ab0902cc3fd28209d68a706a59fee8d224add3506ac16ad32a5e9fc41efdf0197f06f98b98982cda5ead5c89aa0fda0c5702c28193c3751109e68a93a5d2de16",
        "20d1a6d4964bab446a8f63fcb85a718f440263d4888642e3964317d51b0a457b76ac0063036f726401011e6170706c69636174696f6e2f6a736f6e3b636861727365743d7574662d38004cd17b2270223a22706f772d3230222c226f70223a226d696e74222c227469636b223a2250455045222c22616d74223a2231303030222c22736f6c7574696f6e223a22504550453a62633170756a666d33753333656e70786b38383339796c6b3239323239396b6e6467686c717468396e39647a6c7663647635617076366a717732776e71663a303030303030303030303030303030303030303139393431613561653132383937363539383134343239323533333030353762306461393666336465613163353a323430323039393438227d68",
        "c1f4929cb66946e40c5d3e5e2b126f88b9a6070d7490abd3aa8e42bf5bbcfe7b9f"
      ],
      "is_coinbase": false,
      "sequence": 4294967295
    }
  ],
  "vout": [
    {
      "scriptpubkey": "5120e493b8f231ccc26b1cf1293f65154a296d36a2ff02ee5995a2fb30d653a166a4",
      "scriptpubkey_asm": "OP_PUSHNUM_1 OP_PUSHBYTES_32 e493b8f231ccc26b1cf1293f65154a296d36a2ff02ee5995a2fb30d653a166a4",
      "scriptpubkey_type": "v1_p2tr",
      "scriptpubkey_address": "bc1pujfm3u33enpxk8839ylk292299kndghlqth9n9dzlvcdv5apv6jqw2wnqf",
      "value": 546
    }
  ],
  "size": 485,
  "weight": 767,
  "fee": 2496,
  "status": {
    "confirmed": true,
    "block_height": 834460,
    "block_hash": "00000000000000000000484a79b643b2524bbce82e5d8a442013fa5b8905ed98",
    "block_time": 1710307468
  },
  "hex": "0200000000010199d3ce1c8454754bed15a7cec8e26108c9c23a3f7501d570d353ac084c656d242000000000ffffffff012202000000000000225120e493b8f231ccc26b1cf1293f65154a296d36a2ff02ee5995a2fb30d653a166a40340ab0902cc3fd28209d68a706a59fee8d224add3506ac16ad32a5e9fc41efdf0197f06f98b98982cda5ead5c89aa0fda0c5702c28193c3751109e68a93a5d2de16fd1e0120d1a6d4964bab446a8f63fcb85a718f440263d4888642e3964317d51b0a457b76ac0063036f726401011e6170706c69636174696f6e2f6a736f6e3b636861727365743d7574662d38004cd17b2270223a22706f772d3230222c226f70223a226d696e74222c227469636b223a2250455045222c22616d74223a2231303030222c22736f6c7574696f6e223a22504550453a62633170756a666d33753333656e70786b38383339796c6b3239323239396b6e6467686c717468396e39647a6c7663647635617076366a717732776e71663a303030303030303030303030303030303030303139393431613561653132383937363539383134343239323533333030353762306461393666336465613163353a323430323039393438227d6821c1f4929cb66946e40c5d3e5e2b126f88b9a6070d7490abd3aa8e42bf5bbcfe7b9f00000000"
}