{
  "txid": "a756c7578e7c7714bf306cc5d18847856df650b635f08e2dac52cfeae828a2b2",
  "version": 2,
  "locktime": 0,
  "vin": [
    {
      "txid": "d18ed70056c00a6cd5de0ccb10b1ae8f7dd5250f9d0f22c727aba826d03302c8",
      "vout": 20,
      "prevout": {
        "scriptpubkey": "5120dd5adef075e43e0047b951ba845a9b15e7f25176d1d2eb63520de5b9e2ec3b75",
        "scriptpubkey_asm": "OP_PUSHNUM_1 OP_PUSHBYTES_32 dd5adef075e43e0047b951ba845a9b15e7f25176d1d2eb63520de5b9e2ec3b75",
        "scriptpubkey_type": "v1_p2tr",
        "scriptpubkey_address": "bc1pm4ddaur4uslqq3ae2xaggk5mzhnly5tk68fwkc6jphjmnchv8d6st3tjcp",
        "value": 3010
      },
      "scriptsig": "",
      "scriptsig_asm": "",
      "witness": [
        "ac7ff267bfb8e454d74b6c7be7b07cbd97b664060269ad363407165fb4a5d2939d46ea7e5d08164341d4b328a74a5dcd844d651cbb88e604e5852d171d01f1ff",
        "20c27fcaebd6452adfe1203ea00e16bc0f159e0a37c9f37ea92654915a82fac44bac0063036f726401011e6170706c69636174696f6e2f6a736f6e3b636861727365743d7574662d38004cbf7b2270223a22706f772d3230222c226f70223a226d696e74222c227469636b223a2250455045222c22616d74223a2231303030222c22736f6c7574696f6e223a22504550453a6263317168337833756334707a796478716436757776376e3732676874787a33753937306564663078613a303030303030303030303030303030303030303139393431613561653132383937363539383134343239323533333030353762306461393666336465613163353a3236303834313333353831227d68",
        "c0e5c6b8d70510d88b341fcdd9a2aa08913e89d9e736480c530fde3fe13419cdab"
      ],
      "is_coinbase": false,
      "sequence": 4294967295
    }
  ],
  "vout": [
    {
      "scriptpubkey": "0014bc4d1e62a1111a60375c733d3f291759851e17cf",
      "scriptpubkey_asm": "OP_0 OP_PUSHBYTES_20 bc4d1e62a1111a60375c733d3f291759851e17cf",
      "scriptpubkey_type": "v0_p2wpkh",
      "scriptpubkey_address": "bc1qh3x3uc4pzydxqd6uwv7n72ghtxz3u970edf0xa",
      "value": 546
    }
  ],
  "size": 455,
  "weight": 701,
  "fee": 2464,
  "status": {
    "confirmed": true,
    "block_height": 834460,
    "block_hash": "00000000000000000000484a79b643b2524bbce82e5d8a442013fa5b8905ed98",
    "block_time": 1710307468
  },
  "hex": "02000000000101c80233d026a8ab27c7220f9d0f25d57d8faeb110cb0cded56c0ac05600d78ed11400000000ffffffff012202000000000000160014bc4d1e62a1111a60375c733d3f291759851e17cf0340ac7ff267bfb8e454d74b6c7be7b07cbd97b664060269ad363407165fb4a5d2939d46ea7e5d08164341d4b328a74a5dcd844d651cbb88e604e5852d171d01f1fffd0c0120c27fcaebd6452adfe1203ea00e16bc0f159e0a37c9f37ea92654915a82fac44bac0063036f726401011e6170706c69636174696f6e2f6a736f6e3b636861727365743d7574662d38004cbf7b2270223a22706f772d3230222c226f70223a226d696e74222c227469636b223a2250455045222c22616d74223a2231303030222c22736f6c7574696f6e223a22504550453a6263317168337833756334707a796478716436757776376e3732676874787a33753937306564663078613a303030303030303030303030303030303030303139393431613561653132383937363539383134343239323533333030353762306461393666336465613163353a3236303834313333353831227d6821c0e5c6b8d70510d88b341fcdd9a2aa08913e89d9e736480c530fde3fe13419cdab00000000"
}