{
  "txid": "a756ddf2783f965a476d9b532c944d73c1323ad9497451364f02442bb54096a5",
  "version": 2,
  "locktime": 0,
  "vin": [
    {
      "txid": "0fece80529ec1e641a8f52f375dc77820d76fd34a6ce7fc12a1357f086b86de1",
      "vout": 1,
      "prevout": {
        "scriptpubkey": "a91470054c3fae738d2c5b65f6f3cac84f7d4505b79187",
        "scriptpubkey_asm": "OP_HASH160 OP_PUSHBYTES_20 70054c3fae738d2c5b65f6f3cac84f7d4505b791 OP_EQUAL",
        "scriptpubkey_type": "p2sh",
        "scriptpubkey_address": "3BuKx8UEji3jySxxToCbX8BBPW4cJWTeAM",
        "value": 95140
      },
      "scriptsig": "160014b807dec7f3c0572ee9c2418f3f61dfa0f93d2a93",
      "scriptsig_asm": "OP_PUSHBYTES_22 0014b807dec7f3c0572ee9c2418f3f61dfa0f93d2a93",
      "witness": [
        "3045022100a3c8473eee0c669c2568551ad690221eba0eadbdf818a7f6e1e8d428a7581899022055136dcdc03fbe4b8b5198861f159e7e4b604f3af700fa82131fd74aa2f6148001",
        "036bf90f4bd7f5821c7ccbc19180f97d0e7bf7ca0ef11b330f59a0a67ce74ff51d"
      ],
      "is_coinbase": false,
      "sequence": 4294967293,
      "inner_redeemscript_asm": "OP_0 OP_PUSHBYTES_20 b807dec7f3c0572ee9c2418f3f61dfa0f93d2a93"
    }
  ],
  "vout": [
    {
      "scriptpubkey": "a9142f87386a8535b170bcf38849dbc93b0bd049e92287",
      "scriptpubkey_asm": "OP_HASH160 OP_PUSHBYTES_20 2f87386a8535b170bcf38849dbc93b0bd049e922 OP_EQUAL",
      "scriptpubkey_type": "p2sh",
      "scriptpubkey_address": "362KfqT9MhKuHikeP2hss43ZPEQbEqGNbx",
      "value": 79905
    },
    {
      "scriptpubkey": "a91470054c3fae738d2c5b65f6f3cac84f7d4505b79187",
      "scriptpubkey_asm": "OP_HASH160 OP_PUSHBYTES_20 70054c3fae738d2c5b65f6f3cac84f7d4505b791 OP_EQUAL",
      "scriptpubkey_type": "p2sh",
      "scriptpubkey_address": "3BuKx8UEji3jySxxToCbX8BBPW4cJWTeAM",
      "value": 13077
    }
  ],
  "size": 248,
  "weight": 662,
  "fee": 2158,
  "status": {
    "confirmed": true,
    "block_height": 834460,
    "block_hash": "00000000000000000000484a79b643b2524bbce82e5d8a442013fa5b8905ed98",
    "block_time": 1710307468
  },
  "hex": "02000000000101e16db886f057132ac17fcea634fd760d8277dc75f3528f1a641eec2905e8ec0f0100000017160014b807dec7f3c0572ee9c2418f3f61dfa0f93d2a93fdffffff02213801000000000017a9142f87386a8535b170bcf38849dbc93b0bd049e92287153300000000000017a91470054c3fae738d2c5b65f6f3cac84f7d4505b7918702483045022100a3c8473eee0c669c2568551ad690221eba0eadbdf818a7f6e1e8d428a7581899022055136dcdc03fbe4b8b5198861f159e7e4b604f3af700fa82131fd74aa2f614800121036bf90f4bd7f5821c7ccbc19180f97d0e7bf7ca0ef11b330f59a0a67ce74ff51d00000000"
}