{
  "txid": "a757f8cd0f37cb51e980f5bc282c9d1ab1c43defc7f3fbb40e5b385a217f9d54",
  "version": 2,
  "locktime": 0,
  "vin": [
    {
      "txid": "573166c074d1f9d97e74b7e445ae9eee4071bb54005e0e28be99fe4fa5597b23",
      "vout": 35,
      "prevout": {
        "scriptpubkey": "51202e11c2d6b147872bc794da8dd883e58cc3e3d03af07854f3a9160864b5bd1339",
        "scriptpubkey_asm": "OP_PUSHNUM_1 OP_PUSHBYTES_32 2e11c2d6b147872bc794da8dd883e58cc3e3d03af07854f3a9160864b5bd1339",
        "scriptpubkey_type": "v1_p2tr",
        "scriptpubkey_address": "bc1p9cgu9443g7rjh3u5m2xa3ql93np785p67pu9fuafzcyxfddazvusdduwez",
        "value": 3055
      },
      "scriptsig": "",
      "scriptsig_asm": "",
      "witness": [
        "4b219cf1c581e46d4798dd841d7fac3396c3bc6707e2a2e39ae0a77d996ffc2e4e3c47a59fb9e74dd110782bdd3574d175316bc1bc266777c68d0523c73f4aab",
        "204a0e6a825d27913ff81542967da6f059b6bedc0459c1bf0f07daae64cd327f92ac0063036f726401011e6170706c69636174696f6e2f6a736f6e3b636861727365743d7574662d38004cd37b2270223a22706f772d3230222c226f70223a226d696e74222c227469636b223a2250455045222c22616d74223a2231303030222c22736f6c7574696f6e223a22504550453a6263317070376e727a37746333726c6d6d72373773676a6b6b7561677073323971776830617261393430777a616878666b6d6e61687770717877667139703a303030303030303030303030303030303030303139393431613561653132383937363539383134343239323533333030353762306461393666336465613163353a3234353033323037363639227d68",
        "c1f1b4027b27384657c547a9d6289f3be45ec463ffc50ccbf57ef9c2d60d2b0f32"
      ],
      "is_coinbase": false,
      "sequence": 4294967295
    }
  ],
  "vout": [
    {
      "scriptpubkey": "51200fa631797888ffbd8fde82256b73a80c14503aefe8fa5abdc2edcc9b6e7dbb82",
      "scriptpubkey_asm": "OP_PUSHNUM_1 OP_PUSHBYTES_32 0fa631797888ffbd8fde82256b73a80c14503aefe8fa5abdc2edcc9b6e7dbb82",
      "scriptpubkey_type": "v1_p2tr",
      "scriptpubkey_address": "bc1pp7nrz7tc3rlmmr77sgjkkuagps29qwh0ara940wzahxfkmnahwpqxwfq9p",
      "value": 546
    }
  ],
  "size": 487,
  "weight": 769,
  "fee": 2509,
  "status": {
    "confirmed": true,
    "block_height": 834460,
    "block_hash": "00000000000000000000484a79b643b2524bbce82e5d8a442013fa5b8905ed98",
    "block_time": 1710307468
  },
  "hex": "02000000000101237b59a54ffe99be280e5e0054bb7140ee9eae45e4b7747ed9f9d174c06631572300000000ffffffff0122020000000000002251200fa631797888ffbd8fde82256b73a80c14503aefe8fa5abdc2edcc9b6e7dbb8203404b219cf1c581e46d4798dd841d7fac3396c3bc6707e2a2e39ae0a77d996ffc2e4e3c47a59fb9e74dd110782bdd3574d175316bc1bc266777c68d0523c73f4aabfd2001204a0e6a825d27913ff81542967da6f059b6bedc0459c1bf0f07daae64cd327f92ac0063036f726401011e6170706c69636174696f6e2f6a736f6e3b636861727365743d7574662d38004cd37b2270223a22706f772d3230222c226f70223a226d696e74222c227469636b223a2250455045222c22616d74223a2231303030222c22736f6c7574696f6e223a22504550453a6263317070376e727a37746333726c6d6d72373773676a6b6b7561677073323971776830617261393430777a616878666b6d6e61687770717877667139703a303030303030303030303030303030303030303139393431613561653132383937363539383134343239323533333030353762306461393666336465613163353a3234353033323037363639227d6821c1f1b4027b27384657c547a9d6289f3be45ec463ffc50ccbf57ef9c2d60d2b0f3200000000"
}