{
  "txid": "a76c827945cec184ec7b07d26bc7220a40541e18cfa76584ccdc1604030acd20",
  "version": 2,
  "locktime": 0,
  "vin": [
    {
      "txid": "c7fafbee95f5671d0a201d98d1de265ca2b7d663ee2a020d26dcc02ffd2aed8f",
      "vout": 0,
      "prevout": {
        "scriptpubkey": "0014959636d8b7181ed4382397cc723dfeeb9589c216",
        "scriptpubkey_asm": "OP_0 OP_PUSHBYTES_20 959636d8b7181ed4382397cc723dfeeb9589c216",
        "scriptpubkey_type": "v0_p2wpkh",
        "scriptpubkey_address": "bc1qjktrdk9hrq0dgwprjlx8y007aw2cnsskl85qn2",
        "value": 547
      },
      "scriptsig": "",
      "scriptsig_asm": "",
      "witness": [
        "3045022100e9c28fb4d4bf7ce52d69c2be0bbf1e48772476232c1364229b1c5da09850b275022053b8b86243726d1857bde59dacee2aac65f51507520206e01995454268da6d0b81",
        "02d89073fbf531d1ad939fc46622c5b3fbf2e06009385c1f0beb40518bbbbffcb0"
      ],
      "is_coinbase": false,
      "sequence": 4294967293
    },
    {
      "txid": "bf9f73f20a97c0a4f1f708643a4280f71cf3ea32ab54689e3b32fc47e86aaa99",
      "vout": 1,
      "prevout": {
        "scriptpubkey": "0014a222be0f07455397e8c759d5e3f2a42b158d0f67",
        "scriptpubkey_asm": "OP_0 OP_PUSHBYTES_20 a222be0f07455397e8c759d5e3f2a42b158d0f67",
        "scriptpubkey_type": "v0_p2wpkh",
        "scriptpubkey_address": "bc1q5g3turc8g4fe06x8t8278u4y9v2c6rm8kmdnn5",
        "value": 2869409
      },
      "scriptsig": "",
      "scriptsig_asm": "",
      "witness": [
        "3045022100f4cfdda4873a73f1d2b78103fad1738fdf24d402ec3dec351e9cf582b3fc57d102201343a65d3eb09579c89c01c9b83e4e7735db3ca8ed4c95c7f1872ac82f2fad8201",
        "033f5d4c3233fccb0dcb96403c9e1390cc1abf95bc2dac95fe6335d69bb1f5e710"
      ],
      "is_coinbase": false,
      "sequence": 4294967293
    }
  ],
  "vout": [
    {
      "scriptpubkey": "00144cac21476872465b4701df9959be5e003467a951",
      "scriptpubkey_asm": "OP_0 OP_PUSHBYTES_20 4cac21476872465b4701df9959be5e003467a951",
      "scriptpubkey_type": "v0_p2wpkh",
      "scriptpubkey_address": "bc1qfjkzz3mgwfr9k3cpm7v4n0j7qq6x0223dx0q30",
      "value": 2856000
    },
    {
      "scriptpubkey": "512102022e9c4363c184fcd8fa4d4b7fbaa5face1d96ad28cf83a65bfbb6d7aaa9eada210269fd8a851d441e31114cd47d9ad2a38cfe7cba6d80587ae2fb840cd99412e11d2103333333333333333333333333333333333333333333333333333333333333333353ae",
      "scriptpubkey_asm": "OP_PUSHNUM_1 OP_PUSHBYTES_33 02022e9c4363c184fcd8fa4d4b7fbaa5face1d96ad28cf83a65bfbb6d7aaa9eada OP_PUSHBYTES_33 0269fd8a851d441e31114cd47d9ad2a38cfe7cba6d80587ae2fb840cd99412e11d OP_PUSHBYTES_33 033333333333333333333333333333333333333333333333333333333333333333 OP_PUSHNUM_3 OP_CHECKMULTISIG",
      "scriptpubkey_type": "unknown",
      "value": 796
    },
    {
      "scriptpubkey": "5121029c301b4bebda481350e770e123c4190c0e6cb82c7b00cef44c1589e1750c387021028c3db7e66c27009e70e31a6b40f9b5d9326eccf4ddb9b7fe311d927199c1d2292102222222222222222222222222222222222222222222222222222222222222222253ae",
      "scriptpubkey_asm": "OP_PUSHNUM_1 OP_PUSHBYTES_33 029c301b4bebda481350e770e123c4190c0e6cb82c7b00cef44c1589e1750c3870 OP_PUSHBYTES_33 028c3db7e66c27009e70e31a6b40f9b5d9326eccf4ddb9b7fe311d927199c1d229 OP_PUSHBYTES_33 022222222222222222222222222222222222222222222222222222222222222222 OP_PUSHNUM_3 OP_CHECKMULTISIG",
      "scriptpubkey_type": "unknown",
      "value": 796
    },
    {
      "scriptpubkey": "0014959636d8b7181ed4382397cc723dfeeb9589c216",
      "scriptpubkey_asm": "OP_0 OP_PUSHBYTES_20 959636d8b7181ed4382397cc723dfeeb9589c216",
      "scriptpubkey_type": "v0_p2wpkh",
      "scriptpubkey_address": "bc1qjktrdk9hrq0dgwprjlx8y007aw2cnsskl85qn2",
      "value": 547
    }
  ],
  "size": 600,
  "weight": 1746,
  "fee": 11817,
  "status": {
    "confirmed": true,
    "block_height": 834638,
    "block_hash": "000000000000000000025f742c626208ac87e0b7d15054abb4a19ca2d735a54e",
    "block_time": 1710405325
  },
  "hex": "020000000001028fed2afd2fc0dc260d022aee63d6b7a25c26ded1981d200a1d67f595eefbfac70000000000fdffffff99aa6ae847fc323b9e6854ab32eaf31cf780423a6408f7f1a4c0970af2739fbf0100000000fdffffff0440942b00000000001600144cac21476872465b4701df9959be5e003467a9511c0300000000000069512102022e9c4363c184fcd8fa4d4b7fbaa5face1d96ad28cf83a65bfbb6d7aaa9eada210269fd8a851d441e31114cd47d9ad2a38cfe7cba6d80587ae2fb840cd99412e11d2103333333333333333333333333333333333333333333333333333333333333333353ae1c03000000000000695121029c301b4bebda481350e770e123c4190c0e6cb82c7b00cef44c1589e1750c387021028c3db7e66c27009e70e31a6b40f9b5d9326eccf4ddb9b7fe311d927199c1d2292102222222222222222222222222222222222222222222222222222222222222222253ae2302000000000000160014959636d8b7181ed4382397cc723dfeeb9589c21602483045022100e9c28fb4d4bf7ce52d69c2be0bbf1e48772476232c1364229b1c5da09850b275022053b8b86243726d1857bde59dacee2aac65f51507520206e01995454268da6d0b812102d89073fbf531d1ad939fc46622c5b3fbf2e06009385c1f0beb40518bbbbffcb002483045022100f4cfdda4873a73f1d2b78103fad1738fdf24d402ec3dec351e9cf582b3fc57d102201343a65d3eb09579c89c01c9b83e4e7735db3ca8ed4c95c7f1872ac82f2fad820121033f5d4c3233fccb0dcb96403c9e1390cc1abf95bc2dac95fe6335d69bb1f5e71000000000"
}