{
  "txid": "a78893790d028f88634b1ada5beccd99c48cf02174ba417baa29361f74fb4be4",
  "version": 1,
  "locktime": 0,
  "vin": [
    {
      "txid": "4f69c8c913b57e071a619e23862495203fed5b3601cef1ca423e05d2c8e682c0",
      "vout": 9,
      "prevout": {
        "scriptpubkey": "76a9140cf8d5e3f91363b0cf41ced65efff23bc96b64c788ac",
        "scriptpubkey_asm": "OP_DUP OP_HASH160 OP_PUSHBYTES_20 0cf8d5e3f91363b0cf41ced65efff23bc96b64c7 OP_EQUALVERIFY OP_CHECKSIG",
        "scriptpubkey_type": "p2pkh",
        "scriptpubkey_address": "12BbChPKyQE4yrNk9UsFyptA3GoznjqsiZ",
        "value": 19190
      },
      "scriptsig": "483045022100e9ba336bef6f51110f3d6d51de118a7d50ceacf333c63915dd90e347922b05c5022026a6153a22a1a55e5c0a7e314f12069e32a219f4346d0928c2c5921fc1cde40301210363c6edec90c98f39b3050ffac13dec58e566e9fb22413443da74effe15622426",
      "scriptsig_asm": "OP_PUSHBYTES_72 3045022100e9ba336bef6f51110f3d6d51de118a7d50ceacf333c63915dd90e347922b05c5022026a6153a22a1a55e5c0a7e314f12069e32a219f4346d0928c2c5921fc1cde40301 OP_PUSHBYTES_33 0363c6edec90c98f39b3050ffac13dec58e566e9fb22413443da74effe15622426",
      "is_coinbase": false,
      "sequence": 4294967295
    },
    {
      "txid": "767ae9fdf6abd07d0f39498c38ac373dcedde2cf962f6b0f646cb732ce0ee43a",
      "vout": 23,
      "prevout": {
        "scriptpubkey": "76a9140cf8d5e3f91363b0cf41ced65efff23bc96b64c788ac",
        "scriptpubkey_asm": "OP_DUP OP_HASH160 OP_PUSHBYTES_20 0cf8d5e3f91363b0cf41ced65efff23bc96b64c7 OP_EQUALVERIFY OP_CHECKSIG",
        "scriptpubkey_type": "p2pkh",
        "scriptpubkey_address": "12BbChPKyQE4yrNk9UsFyptA3GoznjqsiZ",
        "value": 27004
      },
      "scriptsig": "483045022100c833f63ff8bc227bbf84bdb2c36c2342e98380b5de1c3de17cce1ac41b66167a02201898887f97e315afe382bef9db4bd8440027d0c62c4a5340eaf776e0a4cfddf901210363c6edec90c98f39b3050ffac13dec58e566e9fb22413443da74effe15622426",
      "scriptsig_asm": "OP_PUSHBYTES_72 3045022100c833f63ff8bc227bbf84bdb2c36c2342e98380b5de1c3de17cce1ac41b66167a02201898887f97e315afe382bef9db4bd8440027d0c62c4a5340eaf776e0a4cfddf901 OP_PUSHBYTES_33 0363c6edec90c98f39b3050ffac13dec58e566e9fb22413443da74effe15622426",
      "is_coinbase": false,
      "sequence": 4294967295
    }
  ],
  "vout": [
    {
      "scriptpubkey": "00146ff6a6df0d1268fa4e15e970db789042fd64dbdd",
      "scriptpubkey_asm": "OP_0 OP_PUSHBYTES_20 6ff6a6df0d1268fa4e15e970db789042fd64dbdd",
      "scriptpubkey_type": "v0_p2wpkh",
      "scriptpubkey_address": "bc1qdlm2dhcdzf505ns4a9cdk7ysgt7kfk7adr7zwf",
      "value": 38736
    }
  ],
  "size": 337,
  "weight": 1348,
  "fee": 7458,
  "status": {
    "confirmed": true,
    "block_height": 834460,
    "block_hash": "00000000000000000000484a79b643b2524bbce82e5d8a442013fa5b8905ed98",
    "block_time": 1710307468
  },
  "hex": "0100000002c082e6c8d2053e42caf1ce01365bed3f20952486239e611a077eb513c9c8694f090000006b483045022100e9ba336bef6f51110f3d6d51de118a7d50ceacf333c63915dd90e347922b05c5022026a6153a22a1a55e5c0a7e314f12069e32a219f4346d0928c2c5921fc1cde40301210363c6edec90c98f39b3050ffac13dec58e566e9fb22413443da74effe15622426ffffffff3ae40ece32b76c640f6b2f96cfe2ddce3d37ac388c49390f7dd0abf6fde97a76170000006b483045022100c833f63ff8bc227bbf84bdb2c36c2342e98380b5de1c3de17cce1ac41b66167a02201898887f97e315afe382bef9db4bd8440027d0c62c4a5340eaf776e0a4cfddf901210363c6edec90c98f39b3050ffac13dec58e566e9fb22413443da74effe15622426ffffffff0150970000000000001600146ff6a6df0d1268fa4e15e970db789042fd64dbdd00000000"
}