{
  "txid": "a7913da40c5c333d44e80b344e16191b7c9c4dc65b013291afe64d0cfe492e5d",
  "version": 2,
  "locktime": 0,
  "vin": [
    {
      "txid": "8486ecb4df0880316dd6e82b3971b4df187aff23765bc3a47f8d78bb53aa273c",
      "vout": 83,
      "prevout": {
        "scriptpubkey": "512030a4db9dbd17a77008d87c54225bf5dd196134c39afc2116337e9c10c2550e2b",
        "scriptpubkey_asm": "OP_PUSHNUM_1 OP_PUSHBYTES_32 30a4db9dbd17a77008d87c54225bf5dd196134c39afc2116337e9c10c2550e2b",
        "scriptpubkey_type": "v1_p2tr",
        "scriptpubkey_address": "bc1pxzjdh8daz7nhqzxc032zykl4m5vkzdxrnt7zz93n06wppsj4pc4syeka6u",
        "value": 2575
      },
      "scriptsig": "",
      "scriptsig_asm": "",
      "witness": [
        "bffd3f654cd92c8c0c711f96407018ecfaf3710be30a25eeb63f7483d96536bdee4774aba5111953738206b351e11c8d10afe5ae31547185134c29e8c440ab76",
        "208f2e61437764e39ded237b591f162cd6605c6aec9c6a4b2ac4fe47a1e4530c37ac0063036f726401010a746578742f706c61696e00367b2270223a226272632d3230222c226f70223a226d696e74222c227469636b223a2261616161222c22616d74223a223130303030227d68",
        "c18f2e61437764e39ded237b591f162cd6605c6aec9c6a4b2ac4fe47a1e4530c37"
      ],
      "is_coinbase": false,
      "sequence": 4261412863
    }
  ],
  "vout": [
    {
      "scriptpubkey": "0014ddd7ef12ea6f78edcc1e8e7afa12c01ab59f3339",
      "scriptpubkey_asm": "OP_0 OP_PUSHBYTES_20 ddd7ef12ea6f78edcc1e8e7afa12c01ab59f3339",
      "scriptpubkey_type": "v0_p2wpkh",
      "scriptpubkey_address": "bc1qmht77yh2dauwmnq73ea05ykqr26e7veea8spz6",
      "value": 546
    }
  ],
  "size": 295,
  "weight": 541,
  "fee": 2029,
  "status": {
    "confirmed": true,
    "block_height": 834460,
    "block_hash": "00000000000000000000484a79b643b2524bbce82e5d8a442013fa5b8905ed98",
    "block_time": 1710307468
  },
  "hex": "020000000001013c27aa53bb788d7fa4c35b7623ff7a18dfb471392be8d66d318008dfb4ec86845300000000fffffffd012202000000000000160014ddd7ef12ea6f78edcc1e8e7afa12c01ab59f33390340bffd3f654cd92c8c0c711f96407018ecfaf3710be30a25eeb63f7483d96536bdee4774aba5111953738206b351e11c8d10afe5ae31547185134c29e8c440ab766e208f2e61437764e39ded237b591f162cd6605c6aec9c6a4b2ac4fe47a1e4530c37ac0063036f726401010a746578742f706c61696e00367b2270223a226272632d3230222c226f70223a226d696e74222c227469636b223a2261616161222c22616d74223a223130303030227d6821c18f2e61437764e39ded237b591f162cd6605c6aec9c6a4b2ac4fe47a1e4530c3700000000"
}