{
  "txid": "a79108e6371f378c52bbd930eaa5f594669d31abcf58176ab582bcf0d74ab652",
  "version": 2,
  "locktime": 832536,
  "vin": [
    {
      "txid": "ec89c40bf72cc34ecdc6f387b431f9ed0a8f1a5e9b831c908dd7be9e93254733",
      "vout": 0,
      "prevout": {
        "scriptpubkey": "76a914414e9426fa01c20e893a75a6e05d238716db995888ac",
        "scriptpubkey_asm": "OP_DUP OP_HASH160 OP_PUSHBYTES_20 414e9426fa01c20e893a75a6e05d238716db9958 OP_EQUALVERIFY OP_CHECKSIG",
        "scriptpubkey_type": "p2pkh",
        "scriptpubkey_address": "16xK4DRNLTDmdEeBvqdzD1MC47RcoSnDF5",
        "value": 5872573673
      },
      "scriptsig": "47304402206b60bf6699ec44e46681a9733e2914e7bbf5f34b3e16df9523861237b9df4e8802206b6ef02251aac0062cf6a4f45a58c317967ba2361bbcc4202fc90aa7e4405cbf0121029dbcac66f0202ea9d28317471d05fa0cae9647172eb090c947531a6de4a623ea",
      "scriptsig_asm": "OP_PUSHBYTES_71 304402206b60bf6699ec44e46681a9733e2914e7bbf5f34b3e16df9523861237b9df4e8802206b6ef02251aac0062cf6a4f45a58c317967ba2361bbcc4202fc90aa7e4405cbf01 OP_PUSHBYTES_33 029dbcac66f0202ea9d28317471d05fa0cae9647172eb090c947531a6de4a623ea",
      "is_coinbase": false,
      "sequence": 4294967294
    }
  ],
  "vout": [
    {
      "scriptpubkey": "a91445f96143d0fc7a0aa8131e4e7960b1b7352327a387",
      "scriptpubkey_asm": "OP_HASH160 OP_PUSHBYTES_20 45f96143d0fc7a0aa8131e4e7960b1b7352327a3 OP_EQUAL",
      "scriptpubkey_type": "p2sh",
      "scriptpubkey_address": "3851J15PvNJFAwL6ozqTZqq4YiHBbDvWH3",
      "value": 200000000
    },
    {
      "scriptpubkey": "76a914de799a897bffd9c61af6245138eda6ad19688d7788ac",
      "scriptpubkey_asm": "OP_DUP OP_HASH160 OP_PUSHBYTES_20 de799a897bffd9c61af6245138eda6ad19688d77 OP_EQUALVERIFY OP_CHECKSIG",
      "scriptpubkey_type": "p2pkh",
      "scriptpubkey_address": "1MHLgktsLjiax9amja7oCsYu2RDjPBenUe",
      "value": 5672569857
    }
  ],
  "size": 223,
  "weight": 892,
  "fee": 3816,
  "status": {
    "confirmed": true,
    "block_height": 834464,
    "block_hash": "0000000000000000000177a0869a911a2b65c9bdcd5a8bcb02b68f305bee848e",
    "block_time": 1710308296
  },
  "hex": "0200000001334725939ebed78d901c839b5e1a8f0aedf931b487f3c6cd4ec32cf70bc489ec000000006a47304402206b60bf6699ec44e46681a9733e2914e7bbf5f34b3e16df9523861237b9df4e8802206b6ef02251aac0062cf6a4f45a58c317967ba2361bbcc4202fc90aa7e4405cbf0121029dbcac66f0202ea9d28317471d05fa0cae9647172eb090c947531a6de4a623eafeffffff0200c2eb0b0000000017a91445f96143d0fc7a0aa8131e4e7960b1b7352327a387018c1c52010000001976a914de799a897bffd9c61af6245138eda6ad19688d7788ac18b40c00"
}