{
  "txid": "a797a2a2e051634e7233c2c35b0a13a9670519ed5fe1210b71a650da54ecbde2",
  "version": 2,
  "locktime": 0,
  "vin": [
    {
      "txid": "aee8cf2221a85a1378e072e34af73f19cb69a3f1f5b01eb8d939740621b1ea55",
      "vout": 1,
      "prevout": {
        "scriptpubkey": "0014fbca58990cd2cb1019d38a3d453d02b6ce6453d9",
        "scriptpubkey_asm": "OP_0 OP_PUSHBYTES_20 fbca58990cd2cb1019d38a3d453d02b6ce6453d9",
        "scriptpubkey_type": "v0_p2wpkh",
        "scriptpubkey_address": "bc1ql0993xgv6t93qxwn3g7520gzkm8xg57ee3w763",
        "value": 1373858
      },
      "scriptsig": "",
      "scriptsig_asm": "",
      "witness": [
        "304402207bfbaef8961ef18aeca7eade57554edc1a589e6c073b233fbc96588e833d400902204159c5e154c8162434052d5ee67cb0a41830b1e196c48e65697842fee6e29e0401",
        "0307136a0bd80bbfb532a288073ba2acbb521357253691913c203c55cc824ffbec"
      ],
      "is_coinbase": false,
      "sequence": 4294967295
    },
    {
      "txid": "a2dc9400e3e368c77451d97816c93391fbfc72790e331afba5840d349c530e1f",
      "vout": 2,
      "prevout": {
        "scriptpubkey": "0014fbca58990cd2cb1019d38a3d453d02b6ce6453d9",
        "scriptpubkey_asm": "OP_0 OP_PUSHBYTES_20 fbca58990cd2cb1019d38a3d453d02b6ce6453d9",
        "scriptpubkey_type": "v0_p2wpkh",
        "scriptpubkey_address": "bc1ql0993xgv6t93qxwn3g7520gzkm8xg57ee3w763",
        "value": 1283100
      },
      "scriptsig": "",
      "scriptsig_asm": "",
      "witness": [
        "3045022100fbc8a59c9bc63bb2a7b52e3f7d91de01f1fea727475ee906aacfb2e729dfa26702204e2e103a975031b86992d91926943851c32d4876f610c005daf8efa8f9b111e001",
        "0307136a0bd80bbfb532a288073ba2acbb521357253691913c203c55cc824ffbec"
      ],
      "is_coinbase": false,
      "sequence": 4294967295
    },
    {
      "txid": "1175c3c852c4b503ad6e9bad91f14582808886cbdf9e5a878906c478180b4f11",
      "vout": 2,
      "prevout": {
        "scriptpubkey": "0014fbca58990cd2cb1019d38a3d453d02b6ce6453d9",
        "scriptpubkey_asm": "OP_0 OP_PUSHBYTES_20 fbca58990cd2cb1019d38a3d453d02b6ce6453d9",
        "scriptpubkey_type": "v0_p2wpkh",
        "scriptpubkey_address": "bc1ql0993xgv6t93qxwn3g7520gzkm8xg57ee3w763",
        "value": 990000
      },
      "scriptsig": "",
      "scriptsig_asm": "",
      "witness": [
        "30450221009f8857a1e6bcfc73c514386246ce0595d109fdb2e2f7197a105b27426e40a5450220657a86536c82793b2e1b5e33ddd25b0c4f29bc14ab6209fac1ad5606f3b7648001",
        "0307136a0bd80bbfb532a288073ba2acbb521357253691913c203c55cc824ffbec"
      ],
      "is_coinbase": false,
      "sequence": 4294967295
    },
    {
      "txid": "1aa5d475299f454478661d55e2597f396e45d445c44c4840bbe4961de2a0375c",
      "vout": 1,
      "prevout": {
        "scriptpubkey": "0014fbca58990cd2cb1019d38a3d453d02b6ce6453d9",
        "scriptpubkey_asm": "OP_0 OP_PUSHBYTES_20 fbca58990cd2cb1019d38a3d453d02b6ce6453d9",
        "scriptpubkey_type": "v0_p2wpkh",
        "scriptpubkey_address": "bc1ql0993xgv6t93qxwn3g7520gzkm8xg57ee3w763",
        "value": 951827
      },
      "scriptsig": "",
      "scriptsig_asm": "",
      "witness": [
        "304402201358a30d46fa57f0ba838c84551c84feee240bbf33e747fe360c4bd5597cae4502205d0a23b7389996a64daedd1e6afddec61844e948d2d9371ae2fce30a6e2408e601",
        "0307136a0bd80bbfb532a288073ba2acbb521357253691913c203c55cc824ffbec"
      ],
      "is_coinbase": false,
      "sequence": 4294967295
    }
  ],
  "vout": [
    {
      "scriptpubkey": "00140a6e4d6ef7c8885ca22439b45f2fab8e4fbe9bbf",
      "scriptpubkey_asm": "OP_0 OP_PUSHBYTES_20 0a6e4d6ef7c8885ca22439b45f2fab8e4fbe9bbf",
      "scriptpubkey_type": "v0_p2wpkh",
      "scriptpubkey_address": "bc1qpfhy6mhhezy9eg3y8x697tat3e8maxaluj0k38",
      "value": 4000000
    },
    {
      "scriptpubkey": "0014fbca58990cd2cb1019d38a3d453d02b6ce6453d9",
      "scriptpubkey_asm": "OP_0 OP_PUSHBYTES_20 fbca58990cd2cb1019d38a3d453d02b6ce6453d9",
      "scriptpubkey_type": "v0_p2wpkh",
      "scriptpubkey_address": "bc1ql0993xgv6t93qxwn3g7520gzkm8xg57ee3w763",
      "value": 594300
    }
  ],
  "size": 668,
  "weight": 1376,
  "fee": 4485,
  "status": {
    "confirmed": true,
    "block_height": 834460,
    "block_hash": "00000000000000000000484a79b643b2524bbce82e5d8a442013fa5b8905ed98",
    "block_time": 1710307468
  },
  "hex": "0200000000010455eab121067439d9b81eb0f5f1a369cb193ff74ae372e078135aa82122cfe8ae0100000000ffffffff1f0e539c340d84a5fb1a330e7972fcfb9133c91678d95174c768e3e30094dca20200000000ffffffff114f0b1878c40689875a9edfcb8688808245f191ad9b6ead03b5c452c8c375110200000000ffffffff5c37a0e21d96e4bb40484cc445d4456e397f59e2551d667844459f2975d4a51a0100000000ffffffff0200093d00000000001600140a6e4d6ef7c8885ca22439b45f2fab8e4fbe9bbf7c11090000000000160014fbca58990cd2cb1019d38a3d453d02b6ce6453d90247304402207bfbaef8961ef18aeca7eade57554edc1a589e6c073b233fbc96588e833d400902204159c5e154c8162434052d5ee67cb0a41830b1e196c48e65697842fee6e29e0401210307136a0bd80bbfb532a288073ba2acbb521357253691913c203c55cc824ffbec02483045022100fbc8a59c9bc63bb2a7b52e3f7d91de01f1fea727475ee906aacfb2e729dfa26702204e2e103a975031b86992d91926943851c32d4876f610c005daf8efa8f9b111e001210307136a0bd80bbfb532a288073ba2acbb521357253691913c203c55cc824ffbec024830450221009f8857a1e6bcfc73c514386246ce0595d109fdb2e2f7197a105b27426e40a5450220657a86536c82793b2e1b5e33ddd25b0c4f29bc14ab6209fac1ad5606f3b7648001210307136a0bd80bbfb532a288073ba2acbb521357253691913c203c55cc824ffbec0247304402201358a30d46fa57f0ba838c84551c84feee240bbf33e747fe360c4bd5597cae4502205d0a23b7389996a64daedd1e6afddec61844e948d2d9371ae2fce30a6e2408e601210307136a0bd80bbfb532a288073ba2acbb521357253691913c203c55cc824ffbec00000000"
}