{
  "txid": "a79e61e5456d0580b6b010ba1c711404fbf7a6e9be3e36270014f5653be9ee40",
  "version": 2,
  "locktime": 834637,
  "vin": [
    {
      "txid": "4c7a04c30ad42a7bd0eb60a83f7c87390ba991b3d5442bbdc9b654030e22855f",
      "vout": 1,
      "prevout": {
        "scriptpubkey": "00145c0383e0e3784445baaa0f14441ff73078a76684",
        "scriptpubkey_asm": "OP_0 OP_PUSHBYTES_20 5c0383e0e3784445baaa0f14441ff73078a76684",
        "scriptpubkey_type": "v0_p2wpkh",
        "scriptpubkey_address": "bc1qtspc8c8r0pzytw42pu2yg8lhxpu2we5y2a7fww",
        "value": 3240423
      },
      "scriptsig": "",
      "scriptsig_asm": "",
      "witness": [
        "304402207917306f8872a193a34fdb04064d4e277bacbbac29569c2a3026dc1b513b595602200152b79ea5caf155b71e32624882b4c06441a2fe0c5fd1ef7630581f3c21a32501",
        "03c5f3799b00ae45bd176bfc2822a8f733811d20dfc0b8c6ee945308d28f04acad"
      ],
      "is_coinbase": false,
      "sequence": 4294967293
    }
  ],
  "vout": [
    {
      "scriptpubkey": "a914cafc527f92083ee6e94d63a1d089a966ab2c66ae87",
      "scriptpubkey_asm": "OP_HASH160 OP_PUSHBYTES_20 cafc527f92083ee6e94d63a1d089a966ab2c66ae OP_EQUAL",
      "scriptpubkey_type": "p2sh",
      "scriptpubkey_address": "3LCJgx8o3jCnf2h9niYv44hwyn6FcEX1NX",
      "value": 60994
    },
    {
      "scriptpubkey": "00148afacde124a3b76dc216a5547152a97542942767",
      "scriptpubkey_asm": "OP_0 OP_PUSHBYTES_20 8afacde124a3b76dc216a5547152a97542942767",
      "scriptpubkey_type": "v0_p2wpkh",
      "scriptpubkey_address": "bc1q3tavmcfy5wmkmssk5428z54fw4pfgfm8z7yuw2",
      "value": 3177015
    }
  ],
  "size": 223,
  "weight": 565,
  "fee": 2414,
  "status": {
    "confirmed": true,
    "block_height": 834638,
    "block_hash": "000000000000000000025f742c626208ac87e0b7d15054abb4a19ca2d735a54e",
    "block_time": 1710405325
  },
  "hex": "020000000001015f85220e0354b6c9bd2b44d5b391a90b39877c3fa860ebd07b2ad40ac3047a4c0100000000fdffffff0242ee00000000000017a914cafc527f92083ee6e94d63a1d089a966ab2c66ae87377a3000000000001600148afacde124a3b76dc216a5547152a975429427670247304402207917306f8872a193a34fdb04064d4e277bacbbac29569c2a3026dc1b513b595602200152b79ea5caf155b71e32624882b4c06441a2fe0c5fd1ef7630581f3c21a325012103c5f3799b00ae45bd176bfc2822a8f733811d20dfc0b8c6ee945308d28f04acad4dbc0c00"
}