{
  "txid": "a7a0e921e577b1d7f084d30100026daeca01b578d487a9c72cf90a43e5f3b0e3",
  "version": 2,
  "locktime": 0,
  "vin": [
    {
      "txid": "929861f3e45bee090aee9980e5dfe277568db1b2d9db4efc222e02386efffc88",
      "vout": 0,
      "prevout": {
        "scriptpubkey": "512052074cad620bcf16d51ced1ec5b4d14694748a98a44db8c4e87d27a99c283841",
        "scriptpubkey_asm": "OP_PUSHNUM_1 OP_PUSHBYTES_32 52074cad620bcf16d51ced1ec5b4d14694748a98a44db8c4e87d27a99c283841",
        "scriptpubkey_type": "v1_p2tr",
        "scriptpubkey_address": "bc1p2gr5ettzp083d4gua50vtdx3g628fz5c53xm338g05n6n8pg8pqsarn09f",
        "value": 2841
      },
      "scriptsig": "",
      "scriptsig_asm": "",
      "witness": [
        "5bab3168e2fb14a0c6969ab748cd9e587eb58ecb5bd8ae62ec4b85c5a3ecb119f30c1e8000d828670df71283e2b94dcead13e71da1f68cb48f1ff919f767a07c",
        "20b06fd3b2a869155187998d3550f2f1bd2f11d42bd0ef3417a6dadb57e9e6867aac0063036f7264010118746578742f706c61696e3b636861727365743d7574662d38003d7b2270223a226272632d3230222c226f70223a227472616e73666572222c227469636b223a2244524352222c22616d74223a223132303030303030227d68",
        "c1b06fd3b2a869155187998d3550f2f1bd2f11d42bd0ef3417a6dadb57e9e6867a"
      ],
      "is_coinbase": false,
      "sequence": 4294967293
    }
  ],
  "vout": [
    {
      "scriptpubkey": "51201947022df6b658ed87469b4fb82ccc5f5607e6f4edd43224cef926b6ba53fb68",
      "scriptpubkey_asm": "OP_PUSHNUM_1 OP_PUSHBYTES_32 1947022df6b658ed87469b4fb82ccc5f5607e6f4edd43224cef926b6ba53fb68",
      "scriptpubkey_type": "v1_p2tr",
      "scriptpubkey_address": "bc1pr9rsyt0kkevwmp6xnd8mstxvtatq0eh5ah2ryfxwlyntdwjnld5qufh09g",
      "value": 546
    }
  ],
  "size": 328,
  "weight": 610,
  "fee": 2295,
  "status": {
    "confirmed": true,
    "block_height": 834638,
    "block_hash": "000000000000000000025f742c626208ac87e0b7d15054abb4a19ca2d735a54e",
    "block_time": 1710405325
  },
  "hex": "0200000000010188fcff6e38022e22fc4edbd9b2b18d5677e2dfe58099ee0a09ee5be4f36198920000000000fdffffff0122020000000000002251201947022df6b658ed87469b4fb82ccc5f5607e6f4edd43224cef926b6ba53fb6803405bab3168e2fb14a0c6969ab748cd9e587eb58ecb5bd8ae62ec4b85c5a3ecb119f30c1e8000d828670df71283e2b94dcead13e71da1f68cb48f1ff919f767a07c8320b06fd3b2a869155187998d3550f2f1bd2f11d42bd0ef3417a6dadb57e9e6867aac0063036f7264010118746578742f706c61696e3b636861727365743d7574662d38003d7b2270223a226272632d3230222c226f70223a227472616e73666572222c227469636b223a2244524352222c22616d74223a223132303030303030227d6821c1b06fd3b2a869155187998d3550f2f1bd2f11d42bd0ef3417a6dadb57e9e6867a00000000"
}