{
  "txid": "a7a0e98d9ffcdc98c901753f36310c8703295a89ac76f370dd7cf779fa300a40",
  "version": 2,
  "locktime": 0,
  "vin": [
    {
      "txid": "1e05c3103bdbe810e3bd7b0d5b551108e0f906bd98de20836683ff37c8e1ebd7",
      "vout": 5,
      "prevout": {
        "scriptpubkey": "5120287bcc0a7d5d7a4c889a2493c6066f7447cfcca90993196dcd8166a83d5a6eb3",
        "scriptpubkey_asm": "OP_PUSHNUM_1 OP_PUSHBYTES_32 287bcc0a7d5d7a4c889a2493c6066f7447cfcca90993196dcd8166a83d5a6eb3",
        "scriptpubkey_type": "v1_p2tr",
        "scriptpubkey_address": "bc1p9paucznat4ayezy6yjfuvpn0w3ruln9fpxf3jmwds9n2s026d6esug2nez",
        "value": 1937129
      },
      "scriptsig": "",
      "scriptsig_asm": "",
      "witness": [
        "994fb52e2ab63c3b717a340c7786a4ab810f40b3722ca398c2df26321d9d804dfd6109997ee8d4f7d2e09fd5406a00b9c6d1ce08687018db53cd4ccee47bd095"
      ],
      "is_coinbase": false,
      "sequence": 4294967293
    }
  ],
  "vout": [
    {
      "scriptpubkey": "51206090df4fd2f75921cd3cfed7c65d472d78fd07e1a7a6978019760de69fe8cb52",
      "scriptpubkey_asm": "OP_PUSHNUM_1 OP_PUSHBYTES_32 6090df4fd2f75921cd3cfed7c65d472d78fd07e1a7a6978019760de69fe8cb52",
      "scriptpubkey_type": "v1_p2tr",
      "scriptpubkey_address": "bc1pvzgd7n7j7avjrnfulmtuvh2894u06plp57nf0qqewcx7d8lgedfq08ccad",
      "value": 2994
    },
    {
      "scriptpubkey": "5120287bcc0a7d5d7a4c889a2493c6066f7447cfcca90993196dcd8166a83d5a6eb3",
      "scriptpubkey_asm": "OP_PUSHNUM_1 OP_PUSHBYTES_32 287bcc0a7d5d7a4c889a2493c6066f7447cfcca90993196dcd8166a83d5a6eb3",
      "scriptpubkey_type": "v1_p2tr",
      "scriptpubkey_address": "bc1p9paucznat4ayezy6yjfuvpn0w3ruln9fpxf3jmwds9n2s026d6esug2nez",
      "value": 1931671
    }
  ],
  "size": 205,
  "weight": 616,
  "fee": 2464,
  "status": {
    "confirmed": true,
    "block_height": 834464,
    "block_hash": "0000000000000000000177a0869a911a2b65c9bdcd5a8bcb02b68f305bee848e",
    "block_time": 1710308296
  },
  "hex": "02000000000101d7ebe1c837ff83668320de98bd06f9e00811555b0d7bbde310e8db3b10c3051e0500000000fdffffff02b20b0000000000002251206090df4fd2f75921cd3cfed7c65d472d78fd07e1a7a6978019760de69fe8cb5297791d0000000000225120287bcc0a7d5d7a4c889a2493c6066f7447cfcca90993196dcd8166a83d5a6eb30140994fb52e2ab63c3b717a340c7786a4ab810f40b3722ca398c2df26321d9d804dfd6109997ee8d4f7d2e09fd5406a00b9c6d1ce08687018db53cd4ccee47bd09500000000"
}