{
  "txid": "a7a75a7a238d5cb4f5372c0125c8736beba594cc3d5aa3a7bfad40497a959dea",
  "version": 1,
  "locktime": 0,
  "vin": [
    {
      "txid": "39d7230b53a902d4e27ca9751f2dbfa22dcdfc563369d74b61fce5342867f486",
      "vout": 0,
      "prevout": {
        "scriptpubkey": "00144c8a767219dbafa30041f11346cbd26eed0a1daf",
        "scriptpubkey_asm": "OP_0 OP_PUSHBYTES_20 4c8a767219dbafa30041f11346cbd26eed0a1daf",
        "scriptpubkey_type": "v0_p2wpkh",
        "scriptpubkey_address": "bc1qfj98vusemwh6xqzp7yf5dj7jdmks58d08erzqt",
        "value": 88210
      },
      "scriptsig": "",
      "scriptsig_asm": "",
      "witness": [
        "3045022100c3ea77d4c5e64142198c90b76c887a11a438e268a019b381b16103af95dfb844022062f6c529e8f3c2dd5d7307a69a412ea2ae6bd7d863c9568e165034c115da911001",
        "02522fc294eddae0dfef3258d485f5058fc59083300fe37a4467d768d7f257705b"
      ],
      "is_coinbase": false,
      "sequence": 4294967293
    },
    {
      "txid": "89d30f8bf90f4ee62f489fc842da8a6c3e777fa315904c1b22d9da0d369916cc",
      "vout": 1,
      "prevout": {
        "scriptpubkey": "0014894763788b823331fdcbac8cf59414f946bf8b59",
        "scriptpubkey_asm": "OP_0 OP_PUSHBYTES_20 894763788b823331fdcbac8cf59414f946bf8b59",
        "scriptpubkey_type": "v0_p2wpkh",
        "scriptpubkey_address": "bc1q39rkx7ytsgenrlwt4jx0t9q5l9rtlz6eem9wh8",
        "value": 88206
      },
      "scriptsig": "",
      "scriptsig_asm": "",
      "witness": [
        "3045022100edb7785792f5b817e9ada642b6b02c90d285bf81a92c11dadb80b91d9a8add110220206ae93b1d1b651ef311e2c11d418c647b57b87128fb2c8be494bbb476cf5f7c01",
        "022ad06bda1a849db09eac33d0608a7173e24c9cd97657815dfa55115eb0181777"
      ],
      "is_coinbase": false,
      "sequence": 4294967293
    },
    {
      "txid": "769dd1af02a357bf45603ceea77a8e4efcc4c953ea273dc77e8e9286d7dc88b5",
      "vout": 73,
      "prevout": {
        "scriptpubkey": "0014016acce9e546cbd9d87a613b4962eefb2300d1dc",
        "scriptpubkey_asm": "OP_0 OP_PUSHBYTES_20 016acce9e546cbd9d87a613b4962eefb2300d1dc",
        "scriptpubkey_type": "v0_p2wpkh",
        "scriptpubkey_address": "bc1qq94ve609gm9ankr6vya5jchwlv3sp5wujwrjgh",
        "value": 88189
      },
      "scriptsig": "",
      "scriptsig_asm": "",
      "witness": [
        "3045022100f12c70ac28d730b4fc590b20ec0b5919e630856a85e4bf2efa6cef10cd663a71022002def3646af58b0f617b6a01e189556b25e104542431925ffd01e707e62089b101",
        "03e4676e9dc3690a3a12567493e56a6d0f058148b7c043e377fe5871dcfc0070ce"
      ],
      "is_coinbase": false,
      "sequence": 4294967293
    },
    {
      "txid": "ec5b04fd469a0c4dcc1b0b682b5efde59b1e7dea6b3c69e055723eb7c14bf102",
      "vout": 53,
      "prevout": {
        "scriptpubkey": "0014a702fa8460125b228ec6664e9f6de959ac05778e",
        "scriptpubkey_asm": "OP_0 OP_PUSHBYTES_20 a702fa8460125b228ec6664e9f6de959ac05778e",
        "scriptpubkey_type": "v0_p2wpkh",
        "scriptpubkey_address": "bc1q5up04prqzfdj9rkxve8f7m0ftxkq2auwyd2ejj",
        "value": 88186
      },
      "scriptsig": "",
      "scriptsig_asm": "",
      "witness": [
        "3045022100e4c466d52646b130c955e475fa3fecf09823c8631a397632d1295b095573e59302206ec77caf0dee62f2407dcc259aa533f64698967c8241b5b2e25e705280bdb62401",
        "0208c1096c2d21605cf3457bb1feebd09a0ab702c31d6851a30c634091faf580a9"
      ],
      "is_coinbase": false,
      "sequence": 4294967293
    },
    {
      "txid": "884db0177767580e4cdf3bab73e0c9f64848eeb4f18fdc77b485d2411040020a",
      "vout": 157,
      "prevout": {
        "scriptpubkey": "0014f8c02ead40904f6a528fbff0dae16b8798252f3e",
        "scriptpubkey_asm": "OP_0 OP_PUSHBYTES_20 f8c02ead40904f6a528fbff0dae16b8798252f3e",
        "scriptpubkey_type": "v0_p2wpkh",
        "scriptpubkey_address": "bc1qlrqzat2qjp8k5550hlcd4ctts7vz2te7hutrc0",
        "value": 88171
      },
      "scriptsig": "",
      "scriptsig_asm": "",
      "witness": [
        "3044022024dbe979aafee30eb9200a8c6359b7e4c3c953fb965ec7b2cc0b3fe7c739f2ac02207d9a016b626384d352eb1df8c8694fa4f7cc34bc05b6a7e1b22e143cbf5ef11701",
        "0240732e17bc9a6e77169ad1a11dab4951358b414e8cbb021b7aba373700b7e38c"
      ],
      "is_coinbase": false,
      "sequence": 4294967293
    }
  ],
  "vout": [
    {
      "scriptpubkey": "0014d3e9eaee11ea90b285ba8e36b56c297b84096e04",
      "scriptpubkey_asm": "OP_0 OP_PUSHBYTES_20 d3e9eaee11ea90b285ba8e36b56c297b84096e04",
      "scriptpubkey_type": "v0_p2wpkh",
      "scriptpubkey_address": "bc1q60574ms3a2gt9pd63cmt2mpf0wzqjmsyf0udxy",
      "value": 429442
    }
  ],
  "size": 787,
  "weight": 1525,
  "fee": 11520,
  "status": {
    "confirmed": true,
    "block_height": 834638,
    "block_hash": "000000000000000000025f742c626208ac87e0b7d15054abb4a19ca2d735a54e",
    "block_time": 1710405325
  },
  "hex": "0100000000010586f4672834e5fc614bd7693356fccd2da2bf2d1f75a97ce2d402a9530b23d7390000000000fdffffffcc1699360ddad9221b4c9015a37f773e6c8ada42c89f482fe64e0ff98b0fd3890100000000fdffffffb588dcd786928e7ec73d27ea53c9c4fc4e8e7aa7ee3c6045bf57a302afd19d764900000000fdffffff02f14bc1b73e7255e0693c6bea7d1e9be5fd5e2b680b1bcc4d0c9a46fd045bec3500000000fdffffff0a02401041d285b477dc8ff1b4ee4848f6c9e073ab3bdf4c0e58677717b04d889d00000000fdffffff01828d060000000000160014d3e9eaee11ea90b285ba8e36b56c297b84096e0402483045022100c3ea77d4c5e64142198c90b76c887a11a438e268a019b381b16103af95dfb844022062f6c529e8f3c2dd5d7307a69a412ea2ae6bd7d863c9568e165034c115da9110012102522fc294eddae0dfef3258d485f5058fc59083300fe37a4467d768d7f257705b02483045022100edb7785792f5b817e9ada642b6b02c90d285bf81a92c11dadb80b91d9a8add110220206ae93b1d1b651ef311e2c11d418c647b57b87128fb2c8be494bbb476cf5f7c0121022ad06bda1a849db09eac33d0608a7173e24c9cd97657815dfa55115eb018177702483045022100f12c70ac28d730b4fc590b20ec0b5919e630856a85e4bf2efa6cef10cd663a71022002def3646af58b0f617b6a01e189556b25e104542431925ffd01e707e62089b1012103e4676e9dc3690a3a12567493e56a6d0f058148b7c043e377fe5871dcfc0070ce02483045022100e4c466d52646b130c955e475fa3fecf09823c8631a397632d1295b095573e59302206ec77caf0dee62f2407dcc259aa533f64698967c8241b5b2e25e705280bdb62401210208c1096c2d21605cf3457bb1feebd09a0ab702c31d6851a30c634091faf580a902473044022024dbe979aafee30eb9200a8c6359b7e4c3c953fb965ec7b2cc0b3fe7c739f2ac02207d9a016b626384d352eb1df8c8694fa4f7cc34bc05b6a7e1b22e143cbf5ef11701210240732e17bc9a6e77169ad1a11dab4951358b414e8cbb021b7aba373700b7e38c00000000"
}