{
  "txid": "a7ca317aa81981d99356cf6bce3b19aaed7dbbd0282879a363381007a717c74a",
  "version": 2,
  "locktime": 0,
  "vin": [
    {
      "txid": "705b4ce4c86ccad787d741ac7e015525e9a21a78e4081a58ca299314ad633a48",
      "vout": 4,
      "prevout": {
        "scriptpubkey": "5120287bcc0a7d5d7a4c889a2493c6066f7447cfcca90993196dcd8166a83d5a6eb3",
        "scriptpubkey_asm": "OP_PUSHNUM_1 OP_PUSHBYTES_32 287bcc0a7d5d7a4c889a2493c6066f7447cfcca90993196dcd8166a83d5a6eb3",
        "scriptpubkey_type": "v1_p2tr",
        "scriptpubkey_address": "bc1p9paucznat4ayezy6yjfuvpn0w3ruln9fpxf3jmwds9n2s026d6esug2nez",
        "value": 1193499
      },
      "scriptsig": "",
      "scriptsig_asm": "",
      "witness": [
        "4e077823530f3f36c7d8f66ee576f69727bf48a67e5e57d0d7640312becd7129f4b455f744a068adcb1edefdbd5f8364e91e703d17c932302da3ed27e368b371"
      ],
      "is_coinbase": false,
      "sequence": 4294967293
    }
  ],
  "vout": [
    {
      "scriptpubkey": "51208fd5e5f84f966e2e0bee3f53920bb4307a3841202af5a35dfa7e381a7331e8e5",
      "scriptpubkey_asm": "OP_PUSHNUM_1 OP_PUSHBYTES_32 8fd5e5f84f966e2e0bee3f53920bb4307a3841202af5a35dfa7e381a7331e8e5",
      "scriptpubkey_type": "v1_p2tr",
      "scriptpubkey_address": "bc1p3l27t7z0jehzuzlw8afeyza5xparssfq9t66xh060cup5ue3arjseac97n",
      "value": 2978
    },
    {
      "scriptpubkey": "5120287bcc0a7d5d7a4c889a2493c6066f7447cfcca90993196dcd8166a83d5a6eb3",
      "scriptpubkey_asm": "OP_PUSHNUM_1 OP_PUSHBYTES_32 287bcc0a7d5d7a4c889a2493c6066f7447cfcca90993196dcd8166a83d5a6eb3",
      "scriptpubkey_type": "v1_p2tr",
      "scriptpubkey_address": "bc1p9paucznat4ayezy6yjfuvpn0w3ruln9fpxf3jmwds9n2s026d6esug2nez",
      "value": 1188057
    }
  ],
  "size": 205,
  "weight": 616,
  "fee": 2464,
  "status": {
    "confirmed": true,
    "block_height": 834464,
    "block_hash": "0000000000000000000177a0869a911a2b65c9bdcd5a8bcb02b68f305bee848e",
    "block_time": 1710308296
  },
  "hex": "02000000000101483a63ad149329ca581a08e4781aa2e92555017eac41d787d7ca6cc8e44c5b700400000000fdffffff02a20b0000000000002251208fd5e5f84f966e2e0bee3f53920bb4307a3841202af5a35dfa7e381a7331e8e5d920120000000000225120287bcc0a7d5d7a4c889a2493c6066f7447cfcca90993196dcd8166a83d5a6eb301404e077823530f3f36c7d8f66ee576f69727bf48a67e5e57d0d7640312becd7129f4b455f744a068adcb1edefdbd5f8364e91e703d17c932302da3ed27e368b37100000000"
}