{
  "txid": "a7d7b66f67ff1cbb5f22d0d4cc6ab42611e31b9d9dcfd69dde62c5aa3b416265",
  "version": 1,
  "locktime": 0,
  "vin": [
    {
      "txid": "59ff7b044db25803756ad9f17ec674fa4de974e284e8387b5ef802c32241dc36",
      "vout": 70,
      "prevout": {
        "scriptpubkey": "0014ab7f60886312ba99462d4efc0cd535f8e93d3e7e",
        "scriptpubkey_asm": "OP_0 OP_PUSHBYTES_20 ab7f60886312ba99462d4efc0cd535f8e93d3e7e",
        "scriptpubkey_type": "v0_p2wpkh",
        "scriptpubkey_address": "bc1q4dlkpzrrz2afj33dfm7qe4f4lr5n60n78yj5ll",
        "value": 445865
      },
      "scriptsig": "",
      "scriptsig_asm": "",
      "witness": [
        "304402205fbf4e2fb69656e7fcc22cfc387a93318b74446cd4a997c4d7a99bd3a47288ce02205a231dabec3a692257eddde3e81269c2ea1771ed8f131df47588b90a4a01d81601",
        "02b1ecebcc3d16cae8b40479de1748c0e12af1f9d75da0410fd332a94b2f1f316f"
      ],
      "is_coinbase": false,
      "sequence": 4294967295
    }
  ],
  "vout": [
    {
      "scriptpubkey": "a9141a3aa0481ae589bff3b2e60cee28b4b03932b5fa87",
      "scriptpubkey_asm": "OP_HASH160 OP_PUSHBYTES_20 1a3aa0481ae589bff3b2e60cee28b4b03932b5fa OP_EQUAL",
      "scriptpubkey_type": "p2sh",
      "scriptpubkey_address": "345hiwiYa841jD8YQFfVUX6tCmKLe1f4C3",
      "value": 141683
    },
    {
      "scriptpubkey": "0014ab7f60886312ba99462d4efc0cd535f8e93d3e7e",
      "scriptpubkey_asm": "OP_0 OP_PUSHBYTES_20 ab7f60886312ba99462d4efc0cd535f8e93d3e7e",
      "scriptpubkey_type": "v0_p2wpkh",
      "scriptpubkey_address": "bc1q4dlkpzrrz2afj33dfm7qe4f4lr5n60n78yj5ll",
      "value": 300348
    }
  ],
  "size": 223,
  "weight": 565,
  "fee": 3834,
  "status": {
    "confirmed": true,
    "block_height": 834638,
    "block_hash": "000000000000000000025f742c626208ac87e0b7d15054abb4a19ca2d735a54e",
    "block_time": 1710405325
  },
  "hex": "0100000000010136dc4122c302f85e7b38e884e274e94dfa74c67ef1d96a750358b24d047bff594600000000ffffffff02732902000000000017a9141a3aa0481ae589bff3b2e60cee28b4b03932b5fa873c95040000000000160014ab7f60886312ba99462d4efc0cd535f8e93d3e7e0247304402205fbf4e2fb69656e7fcc22cfc387a93318b74446cd4a997c4d7a99bd3a47288ce02205a231dabec3a692257eddde3e81269c2ea1771ed8f131df47588b90a4a01d816012102b1ecebcc3d16cae8b40479de1748c0e12af1f9d75da0410fd332a94b2f1f316f00000000"
}