{
  "txid": "a7d9e252f4402320964afccefc4b7a52dbbd5910eaef27c219b054577af68289",
  "version": 2,
  "locktime": 0,
  "vin": [
    {
      "txid": "bfc08c294bf3cb40a6ae8c1daba9a7a4aa19dd752d419931cd6e52a0c9924b02",
      "vout": 1,
      "prevout": {
        "scriptpubkey": "5120f0e2e8deceaa1373ddd4a5d7133db01e1ce8c927973fd9638096c6f4a1f73f4f",
        "scriptpubkey_asm": "OP_PUSHNUM_1 OP_PUSHBYTES_32 f0e2e8deceaa1373ddd4a5d7133db01e1ce8c927973fd9638096c6f4a1f73f4f",
        "scriptpubkey_type": "v1_p2tr",
        "scriptpubkey_address": "bc1p7r3w3hkw4gfh8hw55ht3x0dsrcww3jf8julajcuqjmr0fg0h8a8s02s96s",
        "value": 1054795
      },
      "scriptsig": "",
      "scriptsig_asm": "",
      "witness": [
        "9eb6e9fa41d6d4eab6bb70677b577b34a3e5f0de5b16a935f797b0086ae7e1c7cfb6766486b52d7a20fb28c509fba8810b75987aec66af19556b1dc33d2869a8",
        "201a005ecd1d9cb9b2b90638a1491b84882e6eb231de63b26454f723b872fea5dcac",
        "c01a005ecd1d9cb9b2b90638a1491b84882e6eb231de63b26454f723b872fea5dc"
      ],
      "is_coinbase": false,
      "sequence": 4294967293
    },
    {
      "txid": "5cf5838ec1a20f69603899696bd1c6cbe051cea9f65c7c39518f6eebb0932a49",
      "vout": 13,
      "prevout": {
        "scriptpubkey": "5120f0e2e8deceaa1373ddd4a5d7133db01e1ce8c927973fd9638096c6f4a1f73f4f",
        "scriptpubkey_asm": "OP_PUSHNUM_1 OP_PUSHBYTES_32 f0e2e8deceaa1373ddd4a5d7133db01e1ce8c927973fd9638096c6f4a1f73f4f",
        "scriptpubkey_type": "v1_p2tr",
        "scriptpubkey_address": "bc1p7r3w3hkw4gfh8hw55ht3x0dsrcww3jf8julajcuqjmr0fg0h8a8s02s96s",
        "value": 945205
      },
      "scriptsig": "",
      "scriptsig_asm": "",
      "witness": [
        "3fc8d8fc8ee45297b4eea0b1c6369c038f566d218ed56d93ad644937b297041d77c947b458ad89d502b6738a9d3592d90a0c173490a95a430d03d37314458d8e",
        "201a005ecd1d9cb9b2b90638a1491b84882e6eb231de63b26454f723b872fea5dcac",
        "c01a005ecd1d9cb9b2b90638a1491b84882e6eb231de63b26454f723b872fea5dc"
      ],
      "is_coinbase": false,
      "sequence": 4294967293
    }
  ],
  "vout": [
    {
      "scriptpubkey": "512004f2632d758e24112de2bf98ed80cbc644b0bcd57eb37c233eb0777f6f8d155c",
      "scriptpubkey_asm": "OP_PUSHNUM_1 OP_PUSHBYTES_32 04f2632d758e24112de2bf98ed80cbc644b0bcd57eb37c233eb0777f6f8d155c",
      "scriptpubkey_type": "v1_p2tr",
      "scriptpubkey_address": "bc1pqnexxtt43cjpzt0zh7vwmqxtceztp0x406ehcge7kpmh7mudz4wqc9q4zp",
      "value": 1711
    },
    {
      "scriptpubkey": "512004f2632d758e24112de2bf98ed80cbc644b0bcd57eb37c233eb0777f6f8d155c",
      "scriptpubkey_asm": "OP_PUSHNUM_1 OP_PUSHBYTES_32 04f2632d758e24112de2bf98ed80cbc644b0bcd57eb37c233eb0777f6f8d155c",
      "scriptpubkey_type": "v1_p2tr",
      "scriptpubkey_address": "bc1pqnexxtt43cjpzt0zh7vwmqxtceztp0x406ehcge7kpmh7mudz4wqc9q4zp",
      "value": 1711
    },
    {
      "scriptpubkey": "512004f2632d758e24112de2bf98ed80cbc644b0bcd57eb37c233eb0777f6f8d155c",
      "scriptpubkey_asm": "OP_PUSHNUM_1 OP_PUSHBYTES_32 04f2632d758e24112de2bf98ed80cbc644b0bcd57eb37c233eb0777f6f8d155c",
      "scriptpubkey_type": "v1_p2tr",
      "scriptpubkey_address": "bc1pqnexxtt43cjpzt0zh7vwmqxtceztp0x406ehcge7kpmh7mudz4wqc9q4zp",
      "value": 1711
    },
    {
      "scriptpubkey": "512004f2632d758e24112de2bf98ed80cbc644b0bcd57eb37c233eb0777f6f8d155c",
      "scriptpubkey_asm": "OP_PUSHNUM_1 OP_PUSHBYTES_32 04f2632d758e24112de2bf98ed80cbc644b0bcd57eb37c233eb0777f6f8d155c",
      "scriptpubkey_type": "v1_p2tr",
      "scriptpubkey_address": "bc1pqnexxtt43cjpzt0zh7vwmqxtceztp0x406ehcge7kpmh7mudz4wqc9q4zp",
      "value": 1711
    },
    {
      "scriptpubkey": "512004f2632d758e24112de2bf98ed80cbc644b0bcd57eb37c233eb0777f6f8d155c",
      "scriptpubkey_asm": "OP_PUSHNUM_1 OP_PUSHBYTES_32 04f2632d758e24112de2bf98ed80cbc644b0bcd57eb37c233eb0777f6f8d155c",
      "scriptpubkey_type": "v1_p2tr",
      "scriptpubkey_address": "bc1pqnexxtt43cjpzt0zh7vwmqxtceztp0x406ehcge7kpmh7mudz4wqc9q4zp",
      "value": 1711
    },
    {
      "scriptpubkey": "512004f2632d758e24112de2bf98ed80cbc644b0bcd57eb37c233eb0777f6f8d155c",
      "scriptpubkey_asm": "OP_PUSHNUM_1 OP_PUSHBYTES_32 04f2632d758e24112de2bf98ed80cbc644b0bcd57eb37c233eb0777f6f8d155c",
      "scriptpubkey_type": "v1_p2tr",
      "scriptpubkey_address": "bc1pqnexxtt43cjpzt0zh7vwmqxtceztp0x406ehcge7kpmh7mudz4wqc9q4zp",
      "value": 1711
    },
    {
      "scriptpubkey": "512004f2632d758e24112de2bf98ed80cbc644b0bcd57eb37c233eb0777f6f8d155c",
      "scriptpubkey_asm": "OP_PUSHNUM_1 OP_PUSHBYTES_32 04f2632d758e24112de2bf98ed80cbc644b0bcd57eb37c233eb0777f6f8d155c",
      "scriptpubkey_type": "v1_p2tr",
      "scriptpubkey_address": "bc1pqnexxtt43cjpzt0zh7vwmqxtceztp0x406ehcge7kpmh7mudz4wqc9q4zp",
      "value": 1711
    },
    {
      "scriptpubkey": "512004f2632d758e24112de2bf98ed80cbc644b0bcd57eb37c233eb0777f6f8d155c",
      "scriptpubkey_asm": "OP_PUSHNUM_1 OP_PUSHBYTES_32 04f2632d758e24112de2bf98ed80cbc644b0bcd57eb37c233eb0777f6f8d155c",
      "scriptpubkey_type": "v1_p2tr",
      "scriptpubkey_address": "bc1pqnexxtt43cjpzt0zh7vwmqxtceztp0x406ehcge7kpmh7mudz4wqc9q4zp",
      "value": 1711
    },
    {
      "scriptpubkey": "512004f2632d758e24112de2bf98ed80cbc644b0bcd57eb37c233eb0777f6f8d155c",
      "scriptpubkey_asm": "OP_PUSHNUM_1 OP_PUSHBYTES_32 04f2632d758e24112de2bf98ed80cbc644b0bcd57eb37c233eb0777f6f8d155c",
      "scriptpubkey_type": "v1_p2tr",
      "scriptpubkey_address": "bc1pqnexxtt43cjpzt0zh7vwmqxtceztp0x406ehcge7kpmh7mudz4wqc9q4zp",
      "value": 1711
    },
    {
      "scriptpubkey": "512004f2632d758e24112de2bf98ed80cbc644b0bcd57eb37c233eb0777f6f8d155c",
      "scriptpubkey_asm": "OP_PUSHNUM_1 OP_PUSHBYTES_32 04f2632d758e24112de2bf98ed80cbc644b0bcd57eb37c233eb0777f6f8d155c",
      "scriptpubkey_type": "v1_p2tr",
      "scriptpubkey_address": "bc1pqnexxtt43cjpzt0zh7vwmqxtceztp0x406ehcge7kpmh7mudz4wqc9q4zp",
      "value": 1711
    },
    {
      "scriptpubkey": "512004f2632d758e24112de2bf98ed80cbc644b0bcd57eb37c233eb0777f6f8d155c",
      "scriptpubkey_asm": "OP_PUSHNUM_1 OP_PUSHBYTES_32 04f2632d758e24112de2bf98ed80cbc644b0bcd57eb37c233eb0777f6f8d155c",
      "scriptpubkey_type": "v1_p2tr",
      "scriptpubkey_address": "bc1pqnexxtt43cjpzt0zh7vwmqxtceztp0x406ehcge7kpmh7mudz4wqc9q4zp",
      "value": 1711
    },
    {
      "scriptpubkey": "512004f2632d758e24112de2bf98ed80cbc644b0bcd57eb37c233eb0777f6f8d155c",
      "scriptpubkey_asm": "OP_PUSHNUM_1 OP_PUSHBYTES_32 04f2632d758e24112de2bf98ed80cbc644b0bcd57eb37c233eb0777f6f8d155c",
      "scriptpubkey_type": "v1_p2tr",
      "scriptpubkey_address": "bc1pqnexxtt43cjpzt0zh7vwmqxtceztp0x406ehcge7kpmh7mudz4wqc9q4zp",
      "value": 1711
    },
    {
      "scriptpubkey": "512004f2632d758e24112de2bf98ed80cbc644b0bcd57eb37c233eb0777f6f8d155c",
      "scriptpubkey_asm": "OP_PUSHNUM_1 OP_PUSHBYTES_32 04f2632d758e24112de2bf98ed80cbc644b0bcd57eb37c233eb0777f6f8d155c",
      "scriptpubkey_type": "v1_p2tr",
      "scriptpubkey_address": "bc1pqnexxtt43cjpzt0zh7vwmqxtceztp0x406ehcge7kpmh7mudz4wqc9q4zp",
      "value": 1711
    },
    {
      "scriptpubkey": "512004f2632d758e24112de2bf98ed80cbc644b0bcd57eb37c233eb0777f6f8d155c",
      "scriptpubkey_asm": "OP_PUSHNUM_1 OP_PUSHBYTES_32 04f2632d758e24112de2bf98ed80cbc644b0bcd57eb37c233eb0777f6f8d155c",
      "scriptpubkey_type": "v1_p2tr",
      "scriptpubkey_address": "bc1pqnexxtt43cjpzt0zh7vwmqxtceztp0x406ehcge7kpmh7mudz4wqc9q4zp",
      "value": 1711
    },
    {
      "scriptpubkey": "512004f2632d758e24112de2bf98ed80cbc644b0bcd57eb37c233eb0777f6f8d155c",
      "scriptpubkey_asm": "OP_PUSHNUM_1 OP_PUSHBYTES_32 04f2632d758e24112de2bf98ed80cbc644b0bcd57eb37c233eb0777f6f8d155c",
      "scriptpubkey_type": "v1_p2tr",
      "scriptpubkey_address": "bc1pqnexxtt43cjpzt0zh7vwmqxtceztp0x406ehcge7kpmh7mudz4wqc9q4zp",
      "value": 1711
    },
    {
      "scriptpubkey": "512004f2632d758e24112de2bf98ed80cbc644b0bcd57eb37c233eb0777f6f8d155c",
      "scriptpubkey_asm": "OP_PUSHNUM_1 OP_PUSHBYTES_32 04f2632d758e24112de2bf98ed80cbc644b0bcd57eb37c233eb0777f6f8d155c",
      "scriptpubkey_type": "v1_p2tr",
      "scriptpubkey_address": "bc1pqnexxtt43cjpzt0zh7vwmqxtceztp0x406ehcge7kpmh7mudz4wqc9q4zp",
      "value": 1711
    },
    {
      "scriptpubkey": "512004f2632d758e24112de2bf98ed80cbc644b0bcd57eb37c233eb0777f6f8d155c",
      "scriptpubkey_asm": "OP_PUSHNUM_1 OP_PUSHBYTES_32 04f2632d758e24112de2bf98ed80cbc644b0bcd57eb37c233eb0777f6f8d155c",
      "scriptpubkey_type": "v1_p2tr",
      "scriptpubkey_address": "bc1pqnexxtt43cjpzt0zh7vwmqxtceztp0x406ehcge7kpmh7mudz4wqc9q4zp",
      "value": 1711
    },
    {
      "scriptpubkey": "512004f2632d758e24112de2bf98ed80cbc644b0bcd57eb37c233eb0777f6f8d155c",
      "scriptpubkey_asm": "OP_PUSHNUM_1 OP_PUSHBYTES_32 04f2632d758e24112de2bf98ed80cbc644b0bcd57eb37c233eb0777f6f8d155c",
      "scriptpubkey_type": "v1_p2tr",
      "scriptpubkey_address": "bc1pqnexxtt43cjpzt0zh7vwmqxtceztp0x406ehcge7kpmh7mudz4wqc9q4zp",
      "value": 1711
    },
    {
      "scriptpubkey": "512004f2632d758e24112de2bf98ed80cbc644b0bcd57eb37c233eb0777f6f8d155c",
      "scriptpubkey_asm": "OP_PUSHNUM_1 OP_PUSHBYTES_32 04f2632d758e24112de2bf98ed80cbc644b0bcd57eb37c233eb0777f6f8d155c",
      "scriptpubkey_type": "v1_p2tr",
      "scriptpubkey_address": "bc1pqnexxtt43cjpzt0zh7vwmqxtceztp0x406ehcge7kpmh7mudz4wqc9q4zp",
      "value": 1711
    },
    {
      "scriptpubkey": "512004f2632d758e24112de2bf98ed80cbc644b0bcd57eb37c233eb0777f6f8d155c",
      "scriptpubkey_asm": "OP_PUSHNUM_1 OP_PUSHBYTES_32 04f2632d758e24112de2bf98ed80cbc644b0bcd57eb37c233eb0777f6f8d155c",
      "scriptpubkey_type": "v1_p2tr",
      "scriptpubkey_address": "bc1pqnexxtt43cjpzt0zh7vwmqxtceztp0x406ehcge7kpmh7mudz4wqc9q4zp",
      "value": 1711
    },
    {
      "scriptpubkey": "512004f2632d758e24112de2bf98ed80cbc644b0bcd57eb37c233eb0777f6f8d155c",
      "scriptpubkey_asm": "OP_PUSHNUM_1 OP_PUSHBYTES_32 04f2632d758e24112de2bf98ed80cbc644b0bcd57eb37c233eb0777f6f8d155c",
      "scriptpubkey_type": "v1_p2tr",
      "scriptpubkey_address": "bc1pqnexxtt43cjpzt0zh7vwmqxtceztp0x406ehcge7kpmh7mudz4wqc9q4zp",
      "value": 1711
    },
    {
      "scriptpubkey": "512004f2632d758e24112de2bf98ed80cbc644b0bcd57eb37c233eb0777f6f8d155c",
      "scriptpubkey_asm": "OP_PUSHNUM_1 OP_PUSHBYTES_32 04f2632d758e24112de2bf98ed80cbc644b0bcd57eb37c233eb0777f6f8d155c",
      "scriptpubkey_type": "v1_p2tr",
      "scriptpubkey_address": "bc1pqnexxtt43cjpzt0zh7vwmqxtceztp0x406ehcge7kpmh7mudz4wqc9q4zp",
      "value": 1711
    },
    {
      "scriptpubkey": "512004f2632d758e24112de2bf98ed80cbc644b0bcd57eb37c233eb0777f6f8d155c",
      "scriptpubkey_asm": "OP_PUSHNUM_1 OP_PUSHBYTES_32 04f2632d758e24112de2bf98ed80cbc644b0bcd57eb37c233eb0777f6f8d155c",
      "scriptpubkey_type": "v1_p2tr",
      "scriptpubkey_address": "bc1pqnexxtt43cjpzt0zh7vwmqxtceztp0x406ehcge7kpmh7mudz4wqc9q4zp",
      "value": 1711
    },
    {
      "scriptpubkey": "512004f2632d758e24112de2bf98ed80cbc644b0bcd57eb37c233eb0777f6f8d155c",
      "scriptpubkey_asm": "OP_PUSHNUM_1 OP_PUSHBYTES_32 04f2632d758e24112de2bf98ed80cbc644b0bcd57eb37c233eb0777f6f8d155c",
      "scriptpubkey_type": "v1_p2tr",
      "scriptpubkey_address": "bc1pqnexxtt43cjpzt0zh7vwmqxtceztp0x406ehcge7kpmh7mudz4wqc9q4zp",
      "value": 1711
    },
    {
      "scriptpubkey": "512004f2632d758e24112de2bf98ed80cbc644b0bcd57eb37c233eb0777f6f8d155c",
      "scriptpubkey_asm": "OP_PUSHNUM_1 OP_PUSHBYTES_32 04f2632d758e24112de2bf98ed80cbc644b0bcd57eb37c233eb0777f6f8d155c",
      "scriptpubkey_type": "v1_p2tr",
      "scriptpubkey_address": "bc1pqnexxtt43cjpzt0zh7vwmqxtceztp0x406ehcge7kpmh7mudz4wqc9q4zp",
      "value": 1711
    },
    {
      "scriptpubkey": "5120f0e2e8deceaa1373ddd4a5d7133db01e1ce8c927973fd9638096c6f4a1f73f4f",
      "scriptpubkey_asm": "OP_PUSHNUM_1 OP_PUSHBYTES_32 f0e2e8deceaa1373ddd4a5d7133db01e1ce8c927973fd9638096c6f4a1f73f4f",
      "scriptpubkey_type": "v1_p2tr",
      "scriptpubkey_address": "bc1p7r3w3hkw4gfh8hw55ht3x0dsrcww3jf8julajcuqjmr0fg0h8a8s02s96s",
      "value": 1940994
    }
  ],
  "size": 1482,
  "weight": 5112,
  "fee": 16231,
  "status": {
    "confirmed": true,
    "block_height": 834460,
    "block_hash": "00000000000000000000484a79b643b2524bbce82e5d8a442013fa5b8905ed98",
    "block_time": 1710307468
  },
  "hex": "02000000000102024b92c9a0526ecd3199412d75dd19aaa4a7a9ab1d8caea640cbf34b298cc0bf0100000000fdffffff492a93b0eb6e8f51397c5cf6a9ce51e0cbc6d16b69993860690fa2c18e83f55c0d00000000fdffffff1aaf0600000000000022512004f2632d758e24112de2bf98ed80cbc644b0bcd57eb37c233eb0777f6f8d155caf0600000000000022512004f2632d758e24112de2bf98ed80cbc644b0bcd57eb37c233eb0777f6f8d155caf0600000000000022512004f2632d758e24112de2bf98ed80cbc644b0bcd57eb37c233eb0777f6f8d155caf0600000000000022512004f2632d758e24112de2bf98ed80cbc644b0bcd57eb37c233eb0777f6f8d155caf0600000000000022512004f2632d758e24112de2bf98ed80cbc644b0bcd57eb37c233eb0777f6f8d155caf0600000000000022512004f2632d758e24112de2bf98ed80cbc644b0bcd57eb37c233eb0777f6f8d155caf0600000000000022512004f2632d758e24112de2bf98ed80cbc644b0bcd57eb37c233eb0777f6f8d155caf0600000000000022512004f2632d758e24112de2bf98ed80cbc644b0bcd57eb37c233eb0777f6f8d155caf0600000000000022512004f2632d758e24112de2bf98ed80cbc644b0bcd57eb37c233eb0777f6f8d155caf0600000000000022512004f2632d758e24112de2bf98ed80cbc644b0bcd57eb37c233eb0777f6f8d155caf0600000000000022512004f2632d758e24112de2bf98ed80cbc644b0bcd57eb37c233eb0777f6f8d155caf0600000000000022512004f2632d758e24112de2bf98ed80cbc644b0bcd57eb37c233eb0777f6f8d155caf0600000000000022512004f2632d758e24112de2bf98ed80cbc644b0bcd57eb37c233eb0777f6f8d155caf0600000000000022512004f2632d758e24112de2bf98ed80cbc644b0bcd57eb37c233eb0777f6f8d155caf0600000000000022512004f2632d758e24112de2bf98ed80cbc644b0bcd57eb37c233eb0777f6f8d155caf0600000000000022512004f2632d758e24112de2bf98ed80cbc644b0bcd57eb37c233eb0777f6f8d155caf0600000000000022512004f2632d758e24112de2bf98ed80cbc644b0bcd57eb37c233eb0777f6f8d155caf0600000000000022512004f2632d758e24112de2bf98ed80cbc644b0bcd57eb37c233eb0777f6f8d155caf0600000000000022512004f2632d758e24112de2bf98ed80cbc644b0bcd57eb37c233eb0777f6f8d155caf0600000000000022512004f2632d758e24112de2bf98ed80cbc644b0bcd57eb37c233eb0777f6f8d155caf0600000000000022512004f2632d758e24112de2bf98ed80cbc644b0bcd57eb37c233eb0777f6f8d155caf0600000000000022512004f2632d758e24112de2bf98ed80cbc644b0bcd57eb37c233eb0777f6f8d155caf0600000000000022512004f2632d758e24112de2bf98ed80cbc644b0bcd57eb37c233eb0777f6f8d155caf0600000000000022512004f2632d758e24112de2bf98ed80cbc644b0bcd57eb37c233eb0777f6f8d155caf0600000000000022512004f2632d758e24112de2bf98ed80cbc644b0bcd57eb37c233eb0777f6f8d155c029e1d0000000000225120f0e2e8deceaa1373ddd4a5d7133db01e1ce8c927973fd9638096c6f4a1f73f4f03409eb6e9fa41d6d4eab6bb70677b577b34a3e5f0de5b16a935f797b0086ae7e1c7cfb6766486b52d7a20fb28c509fba8810b75987aec66af19556b1dc33d2869a822201a005ecd1d9cb9b2b90638a1491b84882e6eb231de63b26454f723b872fea5dcac21c01a005ecd1d9cb9b2b90638a1491b84882e6eb231de63b26454f723b872fea5dc03403fc8d8fc8ee45297b4eea0b1c6369c038f566d218ed56d93ad644937b297041d77c947b458ad89d502b6738a9d3592d90a0c173490a95a430d03d37314458d8e22201a005ecd1d9cb9b2b90638a1491b84882e6eb231de63b26454f723b872fea5dcac21c01a005ecd1d9cb9b2b90638a1491b84882e6eb231de63b26454f723b872fea5dc00000000"
}