{
  "txid": "a7da5c9f86c0e0580e691c0e8a754e25180ddea243c4253f90e6d2dc28d39fe9",
  "version": 1,
  "locktime": 0,
  "vin": [
    {
      "txid": "cd272d7bc1f3269b29891818deb59832c917e32a307118ecfd3cb1eb3dcc3616",
      "vout": 0,
      "prevout": {
        "scriptpubkey": "00142a60a77dcd0f0146a97de035c7f2ef8843c366ee",
        "scriptpubkey_asm": "OP_0 OP_PUSHBYTES_20 2a60a77dcd0f0146a97de035c7f2ef8843c366ee",
        "scriptpubkey_type": "v0_p2wpkh",
        "scriptpubkey_address": "bc1q9fs2wlwdpuq5d2tauq6u0uh03ppuxehws5828w",
        "value": 315792
      },
      "scriptsig": "",
      "scriptsig_asm": "",
      "witness": [
        "304402205162bb150448f27cf47fcdde8c5c7db567b2d4e87dcb73e154c0ab22121d2df9022039cc3c98c2f0bdb21fd3aa62968951c1a13e178bee1280eda2019fd114db95f001",
        "03f3e4a363d4fae862f211d61ec2729db3d1c359b3ccd80b39e4416d0e2208be5e"
      ],
      "is_coinbase": false,
      "sequence": 4294967295
    }
  ],
  "vout": [
    {
      "scriptpubkey": "0014d62ebe60ddc6ffee10709ad223b6d82c09a31f85",
      "scriptpubkey_asm": "OP_0 OP_PUSHBYTES_20 d62ebe60ddc6ffee10709ad223b6d82c09a31f85",
      "scriptpubkey_type": "v0_p2wpkh",
      "scriptpubkey_address": "bc1q6chtucxacml7uyrsntfz8dkc9sy6x8u95jjtlm",
      "value": 314582
    }
  ],
  "size": 191,
  "weight": 437,
  "fee": 1210,
  "status": {
    "confirmed": true,
    "block_height": 834464,
    "block_hash": "0000000000000000000177a0869a911a2b65c9bdcd5a8bcb02b68f305bee848e",
    "block_time": 1710308296
  },
  "hex": "010000000001011636cc3debb13cfdec1871302ae317c93298b5de181889299b26f3c17b2d27cd0000000000ffffffff01d6cc040000000000160014d62ebe60ddc6ffee10709ad223b6d82c09a31f850247304402205162bb150448f27cf47fcdde8c5c7db567b2d4e87dcb73e154c0ab22121d2df9022039cc3c98c2f0bdb21fd3aa62968951c1a13e178bee1280eda2019fd114db95f0012103f3e4a363d4fae862f211d61ec2729db3d1c359b3ccd80b39e4416d0e2208be5e00000000"
}