{
  "txid": "a7df823f41af9f4b16d14076776680f0a0b4992672e5dd48b55751ceb91687e1",
  "version": 2,
  "locktime": 0,
  "vin": [
    {
      "txid": "97b75f7a7c1b2372be179552b0562885642b4764d924abed28ecbec98e782294",
      "vout": 9,
      "prevout": {
        "scriptpubkey": "512012ace562465e8f4f7a4a1233fff894b2d114d65a953495100ab00a57ed29a92e",
        "scriptpubkey_asm": "OP_PUSHNUM_1 OP_PUSHBYTES_32 12ace562465e8f4f7a4a1233fff894b2d114d65a953495100ab00a57ed29a92e",
        "scriptpubkey_type": "v1_p2tr",
        "scriptpubkey_address": "bc1pz2kw2cjxt68577j2zgell7y5ktg3f4j6j56f2yq2kq990mff4yhqlsxrhh",
        "value": 1962
      },
      "scriptsig": "",
      "scriptsig_asm": "",
      "witness": [
        "c5612a414921db989a79dcb3ff4b9accf85cc11bda684787b04f01a01f7188b5b44a6c0dcacf25ed04b80d7d706c9bffb044def61fd0b9815875f3b0bad41109",
        "205f9ef96b57af50cf046bf3ba93cdb327d2bb2a055a10c9ba2c62cf039200e1b1ac0063036f7264010118746578742f706c61696e3b636861727365743d7574662d3800367b2270223a226272632d3230222c226f70223a226d696e74222c227469636b223a2261616161222c22616d74223a223130303030227d68",
        "c15f9ef96b57af50cf046bf3ba93cdb327d2bb2a055a10c9ba2c62cf039200e1b1"
      ],
      "is_coinbase": false,
      "sequence": 4294967293
    }
  ],
  "vout": [
    {
      "scriptpubkey": "0014ff10876d85c6a02292e7a9d335abd600c9bb694b",
      "scriptpubkey_asm": "OP_0 OP_PUSHBYTES_20 ff10876d85c6a02292e7a9d335abd600c9bb694b",
      "scriptpubkey_type": "v0_p2wpkh",
      "scriptpubkey_address": "bc1qluggwmv9c6sz9yh848fnt27kqrymk62tdqf9ku",
      "value": 294
    }
  ],
  "size": 309,
  "weight": 555,
  "fee": 1668,
  "status": {
    "confirmed": true,
    "block_height": 834460,
    "block_hash": "00000000000000000000484a79b643b2524bbce82e5d8a442013fa5b8905ed98",
    "block_time": 1710307468
  },
  "hex": "020000000001019422788ec9beec28edab24d964472b64852856b0529517be72231b7c7a5fb7970900000000fdffffff012601000000000000160014ff10876d85c6a02292e7a9d335abd600c9bb694b0340c5612a414921db989a79dcb3ff4b9accf85cc11bda684787b04f01a01f7188b5b44a6c0dcacf25ed04b80d7d706c9bffb044def61fd0b9815875f3b0bad411097c205f9ef96b57af50cf046bf3ba93cdb327d2bb2a055a10c9ba2c62cf039200e1b1ac0063036f7264010118746578742f706c61696e3b636861727365743d7574662d3800367b2270223a226272632d3230222c226f70223a226d696e74222c227469636b223a2261616161222c22616d74223a223130303030227d6821c15f9ef96b57af50cf046bf3ba93cdb327d2bb2a055a10c9ba2c62cf039200e1b100000000"
}