{
  "txid": "a7e90a9bb2d8b2859c7d71df202e09178cea8ceb6c07c750bfb570506b273399",
  "version": 2,
  "locktime": 0,
  "vin": [
    {
      "txid": "188077a3a2cf5a70bd5ae14c51535b81fdf234a0aa0a2cd9125117454b881722",
      "vout": 0,
      "prevout": {
        "scriptpubkey": "0014a9ead0b844e8f33b88a50828f1775ffcf21eb2cc",
        "scriptpubkey_asm": "OP_0 OP_PUSHBYTES_20 a9ead0b844e8f33b88a50828f1775ffcf21eb2cc",
        "scriptpubkey_type": "v0_p2wpkh",
        "scriptpubkey_address": "bc1q484dpwzyarenhz99pq50za6llnepavkv74lez0",
        "value": 691537
      },
      "scriptsig": "",
      "scriptsig_asm": "",
      "witness": [
        "3045022100e6fc2652ea9dc9769fa0c46afef336e571dd19c33667789be4db7ce06946daf102200eaa3f96acd4537e5125802947ce4533f18a9464364068226d88d3c5078b4c4c01",
        "02c81d1b27812dbe45ccb774aefd04400174caf0261ea476d2e50c38bc08b33cd1"
      ],
      "is_coinbase": false,
      "sequence": 4294967293
    }
  ],
  "vout": [
    {
      "scriptpubkey": "00148b28c5b92ebb1062d17b61ac022d45f84410cb0a",
      "scriptpubkey_asm": "OP_0 OP_PUSHBYTES_20 8b28c5b92ebb1062d17b61ac022d45f84410cb0a",
      "scriptpubkey_type": "v0_p2wpkh",
      "scriptpubkey_address": "bc1q3v5vtwfwhvgx95tmvxkqyt29lpzppjc24txe0k",
      "value": 55118
    },
    {
      "scriptpubkey": "0014a9ead0b844e8f33b88a50828f1775ffcf21eb2cc",
      "scriptpubkey_asm": "OP_0 OP_PUSHBYTES_20 a9ead0b844e8f33b88a50828f1775ffcf21eb2cc",
      "scriptpubkey_type": "v0_p2wpkh",
      "scriptpubkey_address": "bc1q484dpwzyarenhz99pq50za6llnepavkv74lez0",
      "value": 634889
    }
  ],
  "size": 223,
  "weight": 562,
  "fee": 1530,
  "status": {
    "confirmed": true,
    "block_height": 834464,
    "block_hash": "0000000000000000000177a0869a911a2b65c9bdcd5a8bcb02b68f305bee848e",
    "block_time": 1710308296
  },
  "hex": "020000000001012217884b45175112d92c0aaaa034f2fd815b53514ce15abd705acfa2a37780180000000000fdffffff024ed70000000000001600148b28c5b92ebb1062d17b61ac022d45f84410cb0a09b0090000000000160014a9ead0b844e8f33b88a50828f1775ffcf21eb2cc02483045022100e6fc2652ea9dc9769fa0c46afef336e571dd19c33667789be4db7ce06946daf102200eaa3f96acd4537e5125802947ce4533f18a9464364068226d88d3c5078b4c4c012102c81d1b27812dbe45ccb774aefd04400174caf0261ea476d2e50c38bc08b33cd100000000"
}