{
  "txid": "a7e921196310759e8055de9267d778997335f76c4f8344db45003acc331541ed",
  "version": 2,
  "locktime": 0,
  "vin": [
    {
      "txid": "acc3ba00869acb582a3f2904ce3a11dd3779350ce234063fc7d0959246213364",
      "vout": 203,
      "prevout": {
        "scriptpubkey": "5120b208bb9d08cd4eff234e723e63e34e117c647a1d34a293ce5c761c0c3afebd08",
        "scriptpubkey_asm": "OP_PUSHNUM_1 OP_PUSHBYTES_32 b208bb9d08cd4eff234e723e63e34e117c647a1d34a293ce5c761c0c3afebd08",
        "scriptpubkey_type": "v1_p2tr",
        "scriptpubkey_address": "bc1pkgyth8gge4807g6wwglx8c6wz97xg7saxj3f8njuwcwqcwh7h5yq4u3dmp",
        "value": 1806
      },
      "scriptsig": "",
      "scriptsig_asm": "",
      "witness": [
        "b981b5e3e886311f150c1cb6d02775d0739e99e43196a307b28f34d167fa62f400946180667f297762834fa3e63d311a095139652079488e21feb16c6716d3d2",
        "20da33e3f030e1025d3b09716f551079fef3d36274456009b74dd354a9c76d6b7fac0063036f726401010a746578742f706c61696e00357b2270223a226272632d3230222c226f70223a226d696e74222c227469636b223a22646f6765222c22616d74223a2234323030227d68",
        "c1da33e3f030e1025d3b09716f551079fef3d36274456009b74dd354a9c76d6b7f"
      ],
      "is_coinbase": false,
      "sequence": 4261412863
    }
  ],
  "vout": [
    {
      "scriptpubkey": "00147a665de7a370f4c9b372ab1fae587500a5bcbdb4",
      "scriptpubkey_asm": "OP_0 OP_PUSHBYTES_20 7a665de7a370f4c9b372ab1fae587500a5bcbdb4",
      "scriptpubkey_type": "v0_p2wpkh",
      "scriptpubkey_address": "bc1q0fn9mearwr6vnvmj4v06ukr4qzjme0d565dzcx",
      "value": 294
    }
  ],
  "size": 294,
  "weight": 540,
  "fee": 1512,
  "status": {
    "confirmed": true,
    "block_height": 834460,
    "block_hash": "00000000000000000000484a79b643b2524bbce82e5d8a442013fa5b8905ed98",
    "block_time": 1710307468
  },
  "hex": "02000000000101643321469295d0c73f0634e20c357937dd113ace04293f2a58cb9a8600bac3accb00000000fffffffd0126010000000000001600147a665de7a370f4c9b372ab1fae587500a5bcbdb40340b981b5e3e886311f150c1cb6d02775d0739e99e43196a307b28f34d167fa62f400946180667f297762834fa3e63d311a095139652079488e21feb16c6716d3d26d20da33e3f030e1025d3b09716f551079fef3d36274456009b74dd354a9c76d6b7fac0063036f726401010a746578742f706c61696e00357b2270223a226272632d3230222c226f70223a226d696e74222c227469636b223a22646f6765222c22616d74223a2234323030227d6821c1da33e3f030e1025d3b09716f551079fef3d36274456009b74dd354a9c76d6b7f00000000"
}