{
  "txid": "a80873c4a3c0cd43ea1624042aa72fa1de93730e52cf4aa5a9f6523d92d97790",
  "version": 1,
  "locktime": 0,
  "vin": [
    {
      "txid": "bb366ae2e3712d667da96fb1078ef266c9a2a195c3ca1dcc25f4d1a7ad233674",
      "vout": 0,
      "prevout": {
        "scriptpubkey": "00148f74076f4c3c661a62f50233fbf2a10ecbdf4548",
        "scriptpubkey_asm": "OP_0 OP_PUSHBYTES_20 8f74076f4c3c661a62f50233fbf2a10ecbdf4548",
        "scriptpubkey_type": "v0_p2wpkh",
        "scriptpubkey_address": "bc1q3a6qwm6v83np5ch4qgelhu4ppm9a732ggszuak",
        "value": 555572
      },
      "scriptsig": "",
      "scriptsig_asm": "",
      "witness": [
        "304402204e72b8080327d8a551ba18025d1a69a3271dbbcc3d2465c092389126ab069021022041ee3ce8486b04a61e47b9d55d102b47e594b8b56f7335f9eb52cb36dff51a7101",
        "023247246fe23f2ab75d94da42f05cb3f29eb312ffe402478a7a0ea21256a4e445"
      ],
      "is_coinbase": false,
      "sequence": 4294967293
    }
  ],
  "vout": [
    {
      "scriptpubkey": "00147915a36b4f912a1df2d5b2920c6b16402a90a257",
      "scriptpubkey_asm": "OP_0 OP_PUSHBYTES_20 7915a36b4f912a1df2d5b2920c6b16402a90a257",
      "scriptpubkey_type": "v0_p2wpkh",
      "scriptpubkey_address": "bc1q0y26x660jy4pmuk4k2fqc6ckgq4fpgjh64m8vz",
      "value": 6519
    },
    {
      "scriptpubkey": "00145df5454f97c05f7cd663d1dac753019e134f6ae7",
      "scriptpubkey_asm": "OP_0 OP_PUSHBYTES_20 5df5454f97c05f7cd663d1dac753019e134f6ae7",
      "scriptpubkey_type": "v0_p2wpkh",
      "scriptpubkey_address": "bc1qth652nuhcp0he4nr68dvw5cpncf576h89lkm3m",
      "value": 547220
    }
  ],
  "size": 222,
  "weight": 561,
  "fee": 1833,
  "status": {
    "confirmed": true,
    "block_height": 834460,
    "block_hash": "00000000000000000000484a79b643b2524bbce82e5d8a442013fa5b8905ed98",
    "block_time": 1710307468
  },
  "hex": "01000000000101743623ada7d1f425cc1dcac395a1a2c966f28e07b16fa97d662d71e3e26a36bb0000000000fdffffff0277190000000000001600147915a36b4f912a1df2d5b2920c6b16402a90a25794590800000000001600145df5454f97c05f7cd663d1dac753019e134f6ae70247304402204e72b8080327d8a551ba18025d1a69a3271dbbcc3d2465c092389126ab069021022041ee3ce8486b04a61e47b9d55d102b47e594b8b56f7335f9eb52cb36dff51a710121023247246fe23f2ab75d94da42f05cb3f29eb312ffe402478a7a0ea21256a4e44500000000"
}