{
  "txid": "a80f68d30b4ed14f6f24461cf9ef99799d651e8af9c9bb218f343449e555ca74",
  "version": 2,
  "locktime": 834557,
  "vin": [
    {
      "txid": "0f74c58e39cef7493b87318a2e6edbc8cf34ab3a0e83db5f43f40d7cc7af0d26",
      "vout": 0,
      "prevout": {
        "scriptpubkey": "001468d6d4a982d7b000aaf62dccf314131cfa8939d1",
        "scriptpubkey_asm": "OP_0 OP_PUSHBYTES_20 68d6d4a982d7b000aaf62dccf314131cfa8939d1",
        "scriptpubkey_type": "v0_p2wpkh",
        "scriptpubkey_address": "bc1qdrtdf2vz67cqp2hk9hx0x9qnrnagjww34x60hc",
        "value": 288982700
      },
      "scriptsig": "",
      "scriptsig_asm": "",
      "witness": [
        "304402204c05874d5064d6b9b938c3e2235df9c70189e6706c042911747f57c6eab804ef02202f92b9ac94454223b1d4dcbbef91d4e980ebe8704cbf59b96cd3aed4434ea87001",
        "026ba2950944cd5ce94204b8f149fc7feed9cd9fbcd03c34ee9ccee6ecfffb5efc"
      ],
      "is_coinbase": false,
      "sequence": 4294967294
    }
  ],
  "vout": [
    {
      "scriptpubkey": "001444dcc4f1919c1921d59d362587af309798b26873",
      "scriptpubkey_asm": "OP_0 OP_PUSHBYTES_20 44dcc4f1919c1921d59d362587af309798b26873",
      "scriptpubkey_type": "v0_p2wpkh",
      "scriptpubkey_address": "bc1qgnwvfuv3nsvjr4vaxcjc0tesj7vty6rnswvy9v",
      "value": 284435044
    },
    {
      "scriptpubkey": "0014af314de7fa19b2098a9dd603022eb676bb80f634",
      "scriptpubkey_asm": "OP_0 OP_PUSHBYTES_20 af314de7fa19b2098a9dd603022eb676bb80f634",
      "scriptpubkey_type": "v0_p2wpkh",
      "scriptpubkey_address": "bc1q4uc5mel6rxeqnz5a6cpsyt4kw6acpa35z6rzx9",
      "value": 4544200
    }
  ],
  "size": 222,
  "weight": 561,
  "fee": 3456,
  "status": {
    "confirmed": true,
    "block_height": 834638,
    "block_hash": "000000000000000000025f742c626208ac87e0b7d15054abb4a19ca2d735a54e",
    "block_time": 1710405325
  },
  "hex": "02000000000101260dafc77c0df4435fdb830e3aab34cfc8db6e2e8a31873b49f7ce398ec5740f0000000000feffffff026422f4100000000016001444dcc4f1919c1921d59d362587af309798b26873c856450000000000160014af314de7fa19b2098a9dd603022eb676bb80f6340247304402204c05874d5064d6b9b938c3e2235df9c70189e6706c042911747f57c6eab804ef02202f92b9ac94454223b1d4dcbbef91d4e980ebe8704cbf59b96cd3aed4434ea8700121026ba2950944cd5ce94204b8f149fc7feed9cd9fbcd03c34ee9ccee6ecfffb5efcfdbb0c00"
}