{
  "txid": "a85a28b5fd50e7fa846a74e37f29b820ed74f4fe2dfcd08b506bb54f4b64dae8",
  "version": 2,
  "locktime": 834462,
  "vin": [
    {
      "txid": "d5b93229f11a527bf2528a0554b95ec5dc21fd451380332b17385543cd3c7a83",
      "vout": 1,
      "prevout": {
        "scriptpubkey": "00146dd45ff8f0f20e6d42ecdc8eeab6ec86065cd4af",
        "scriptpubkey_asm": "OP_0 OP_PUSHBYTES_20 6dd45ff8f0f20e6d42ecdc8eeab6ec86065cd4af",
        "scriptpubkey_type": "v0_p2wpkh",
        "scriptpubkey_address": "bc1qdh29l78s7g8x6shvmj8w4dhvscr9e490hx60jy",
        "value": 170299784
      },
      "scriptsig": "",
      "scriptsig_asm": "",
      "witness": [
        "304402201915bca6bb6b3b4ca5851d7ebae7bc56f324d3a8ada011e11f5346bff83336300220026af0484ffb523183a43ec363ba800df4a6d12c4a9977593012c0066ae07f7801",
        "02795549ac874a5413a956663dd037237a7d43ff74d3d9367bcd94eca1e822e790"
      ],
      "is_coinbase": false,
      "sequence": 4294967294
    }
  ],
  "vout": [
    {
      "scriptpubkey": "a914f8aaa534192a138331375b2f6172c0a5714b7cdf87",
      "scriptpubkey_asm": "OP_HASH160 OP_PUSHBYTES_20 f8aaa534192a138331375b2f6172c0a5714b7cdf OP_EQUAL",
      "scriptpubkey_type": "p2sh",
      "scriptpubkey_address": "3QMqvmCPiKirzHkfxVhneAa6gZpPyLJx4t",
      "value": 1400400
    },
    {
      "scriptpubkey": "0014bd0c5d57b403aaee47fdf75e02ae9d23e0828802",
      "scriptpubkey_asm": "OP_0 OP_PUSHBYTES_20 bd0c5d57b403aaee47fdf75e02ae9d23e0828802",
      "scriptpubkey_type": "v0_p2wpkh",
      "scriptpubkey_address": "bc1qh5x964a5qw4wu3la7a0q9t5ay0sg9zqz9m5mdg",
      "value": 168896253
    }
  ],
  "size": 223,
  "weight": 565,
  "fee": 3131,
  "status": {
    "confirmed": true,
    "block_height": 834464,
    "block_hash": "0000000000000000000177a0869a911a2b65c9bdcd5a8bcb02b68f305bee848e",
    "block_time": 1710308296
  },
  "hex": "02000000000101837a3ccd435538172b33801345fd21dcc55eb954058a52f27b521af12932b9d50100000000feffffff02505e15000000000017a914f8aaa534192a138331375b2f6172c0a5714b7cdf87fd26110a00000000160014bd0c5d57b403aaee47fdf75e02ae9d23e08288020247304402201915bca6bb6b3b4ca5851d7ebae7bc56f324d3a8ada011e11f5346bff83336300220026af0484ffb523183a43ec363ba800df4a6d12c4a9977593012c0066ae07f78012102795549ac874a5413a956663dd037237a7d43ff74d3d9367bcd94eca1e822e7909ebb0c00"
}