{
  "txid": "a87c1a7866e1eb3c15f5547cfe70c4aed987c0693f40a1c59edbf83bbe2fb94e",
  "version": 1,
  "locktime": 0,
  "vin": [
    {
      "txid": "715b9e1c6dcca87e1c90ab44018742d39716e9c82107b024e6336fa14200de36",
      "vout": 5,
      "prevout": {
        "scriptpubkey": "0020f4869042e14d70b8f62b1f319515c562a1ca437903634616d7eae1880aa327ae",
        "scriptpubkey_asm": "OP_0 OP_PUSHBYTES_32 f4869042e14d70b8f62b1f319515c562a1ca437903634616d7eae1880aa327ae",
        "scriptpubkey_type": "v0_p2wsh",
        "scriptpubkey_address": "bc1q7jrfqshpf4ct3a3truce29w9v2su5smeqd35v9khatscsz4ry7hqwty002",
        "value": 22021576
      },
      "scriptsig": "",
      "scriptsig_asm": "",
      "witness": [
        "",
        "30450221008512aa2c26737521cd9d7e42d2330c7ae3e32873dc0aca166aa81663a6336b42022015479858f8bef3bac0c21fa2ed59c5d5eaf6f3074e15e5b9d060fca96d27586401",
        "30440220069a7cb96b842663d45df0f46687b7200f01574db2b55cca6cb35b45ad3fbed202207002f55c928962d1d1fa2641543fc6ff6d1918a22a803116840609958eb0089501",
        "522102d3d23d08a5bcfeb78d891274f8deb38100be7d2daf4a5ce682629f60a43a63db21030e2261f6484004566ee71b8cd7e4acf48ee55af11ac38344d3960a25bbc40697210232194aa4cd13806c92ef53daa97a96793f5699d73da643759230ffa36bd0d13953ae"
      ],
      "is_coinbase": false,
      "sequence": 4294967295,
      "inner_witnessscript_asm": "OP_PUSHNUM_2 OP_PUSHBYTES_33 02d3d23d08a5bcfeb78d891274f8deb38100be7d2daf4a5ce682629f60a43a63db OP_PUSHBYTES_33 030e2261f6484004566ee71b8cd7e4acf48ee55af11ac38344d3960a25bbc40697 OP_PUSHBYTES_33 0232194aa4cd13806c92ef53daa97a96793f5699d73da643759230ffa36bd0d139 OP_PUSHNUM_3 OP_CHECKMULTISIG"
    }
  ],
  "vout": [
    {
      "scriptpubkey": "0014ec2e638fba4441ef28b61a898de876b3121c4901",
      "scriptpubkey_asm": "OP_0 OP_PUSHBYTES_20 ec2e638fba4441ef28b61a898de876b3121c4901",
      "scriptpubkey_type": "v0_p2wpkh",
      "scriptpubkey_address": "bc1qashx8ra6g3q7729kr2ycm6rkkvfpcjgprydldh",
      "value": 14866
    },
    {
      "scriptpubkey": "a9143fab40c0a525328bbcfc0aacb3456ce4e873b2c387",
      "scriptpubkey_asm": "OP_HASH160 OP_PUSHBYTES_20 3fab40c0a525328bbcfc0aacb3456ce4e873b2c3 OP_EQUAL",
      "scriptpubkey_type": "p2sh",
      "scriptpubkey_address": "37VfeVV3BtQvshpVeTxKNnMfaTtb1cqF42",
      "value": 17095
    },
    {
      "scriptpubkey": "a9142e91662a340cb67be06c0ba671d4493055de31ac87",
      "scriptpubkey_asm": "OP_HASH160 OP_PUSHBYTES_20 2e91662a340cb67be06c0ba671d4493055de31ac OP_EQUAL",
      "scriptpubkey_type": "p2sh",
      "scriptpubkey_address": "35wFBsbqm9SfqyQtPXZoynxUtsJhmMjDnN",
      "value": 27881
    },
    {
      "scriptpubkey": "0014c435d5e342ed17a6f75fcc5bc817f36d0b5951c2",
      "scriptpubkey_asm": "OP_0 OP_PUSHBYTES_20 c435d5e342ed17a6f75fcc5bc817f36d0b5951c2",
      "scriptpubkey_type": "v0_p2wpkh",
      "scriptpubkey_address": "bc1qcs6atc6za5t6da6le3dus9lnd594j5wzmmv5aa",
      "value": 50354
    },
    {
      "scriptpubkey": "0014a7f6c6ffcecbbcce1d9a6413a8333aefeaadbd49",
      "scriptpubkey_asm": "OP_0 OP_PUSHBYTES_20 a7f6c6ffcecbbcce1d9a6413a8333aefeaadbd49",
      "scriptpubkey_type": "v0_p2wpkh",
      "scriptpubkey_address": "bc1q5lmvdl7wew7vu8v6vsf6sve6al42m02fus5ntp",
      "value": 84649
    },
    {
      "scriptpubkey": "00209a2618fc831639bc4a7c2c7f07848c338aefd2183dc4e3de69e136bdc4165c0c",
      "scriptpubkey_asm": "OP_0 OP_PUSHBYTES_32 9a2618fc831639bc4a7c2c7f07848c338aefd2183dc4e3de69e136bdc4165c0c",
      "scriptpubkey_type": "v0_p2wsh",
      "scriptpubkey_address": "bc1qngnp3lyrzcumcjnu93ls0pyvxw9wl5sc8hzw8hnfuymtm3qktsxq46h9hq",
      "value": 21813786
    }
  ],
  "size": 506,
  "weight": 1259,
  "fee": 12945,
  "status": {
    "confirmed": true,
    "block_height": 834638,
    "block_hash": "000000000000000000025f742c626208ac87e0b7d15054abb4a19ca2d735a54e",
    "block_time": 1710405325
  },
  "hex": "0100000000010136de0042a16f33e624b00721c8e91697d342870144ab901c7ea8cc6d1c9e5b710500000000ffffffff06123a000000000000160014ec2e638fba4441ef28b61a898de876b3121c4901c74200000000000017a9143fab40c0a525328bbcfc0aacb3456ce4e873b2c387e96c00000000000017a9142e91662a340cb67be06c0ba671d4493055de31ac87b2c4000000000000160014c435d5e342ed17a6f75fcc5bc817f36d0b5951c2a94a010000000000160014a7f6c6ffcecbbcce1d9a6413a8333aefeaadbd491ada4c01000000002200209a2618fc831639bc4a7c2c7f07848c338aefd2183dc4e3de69e136bdc4165c0c04004830450221008512aa2c26737521cd9d7e42d2330c7ae3e32873dc0aca166aa81663a6336b42022015479858f8bef3bac0c21fa2ed59c5d5eaf6f3074e15e5b9d060fca96d275864014730440220069a7cb96b842663d45df0f46687b7200f01574db2b55cca6cb35b45ad3fbed202207002f55c928962d1d1fa2641543fc6ff6d1918a22a803116840609958eb008950169522102d3d23d08a5bcfeb78d891274f8deb38100be7d2daf4a5ce682629f60a43a63db21030e2261f6484004566ee71b8cd7e4acf48ee55af11ac38344d3960a25bbc40697210232194aa4cd13806c92ef53daa97a96793f5699d73da643759230ffa36bd0d13953ae00000000"
}