{
  "txid": "a8847d71684cc3fb83c7e7c69cfde982501fd135282cea18392f9db01a2d0799",
  "version": 1,
  "locktime": 0,
  "vin": [
    {
      "txid": "f94679096f44ba2e8641929b1a433498b9c0a05db33256a583b40cec3464414c",
      "vout": 2,
      "prevout": {
        "scriptpubkey": "a914022fe273bf0441697fcc2f965acb264e6a1e8b9087",
        "scriptpubkey_asm": "OP_HASH160 OP_PUSHBYTES_20 022fe273bf0441697fcc2f965acb264e6a1e8b90 OP_EQUAL",
        "scriptpubkey_type": "p2sh",
        "scriptpubkey_address": "31tae1KLM2fxcgbTDphDR5SFo56tNnMSS4",
        "value": 36613552
      },
      "scriptsig": "1600147883e8933dba5df15c48d1cc49384ff9bf65a501",
      "scriptsig_asm": "OP_PUSHBYTES_22 00147883e8933dba5df15c48d1cc49384ff9bf65a501",
      "witness": [
        "304402207ac027a8a440ae2e921188a0943187fbf726b4bc6c9331178076a93824cb448702200be51a74091f0643026209ad952ef569a71c29bd4896bab37940ed89bd441d9101",
        "024ae6229c5382ab2ccc59df6bd072318845cb04257422b7a8710b14139bb0e1a5"
      ],
      "is_coinbase": false,
      "sequence": 4294967293,
      "inner_redeemscript_asm": "OP_0 OP_PUSHBYTES_20 7883e8933dba5df15c48d1cc49384ff9bf65a501"
    }
  ],
  "vout": [
    {
      "scriptpubkey": "0014651505c4efe929177fefe35b52cd21b9616dd0cf",
      "scriptpubkey_asm": "OP_0 OP_PUSHBYTES_20 651505c4efe929177fefe35b52cd21b9616dd0cf",
      "scriptpubkey_type": "v0_p2wpkh",
      "scriptpubkey_address": "bc1qv52st380ay53wll0udd49nfph9skm5x07edshu",
      "value": 2047500
    },
    {
      "scriptpubkey": "76a91413104e65f1425d5a4fda189e92e51544fe48b75688ac",
      "scriptpubkey_asm": "OP_DUP OP_HASH160 OP_PUSHBYTES_20 13104e65f1425d5a4fda189e92e51544fe48b756 OP_EQUALVERIFY OP_CHECKSIG",
      "scriptpubkey_type": "p2pkh",
      "scriptpubkey_address": "12joNd6mjwDoeS4D4qgDMZbw7aK9opXjQZ",
      "value": 177060
    },
    {
      "scriptpubkey": "a914d05b1e12cb2d2c5c7b857c08af5eab9ff114065e87",
      "scriptpubkey_asm": "OP_HASH160 OP_PUSHBYTES_20 d05b1e12cb2d2c5c7b857c08af5eab9ff114065e OP_EQUAL",
      "scriptpubkey_type": "p2sh",
      "scriptpubkey_address": "3LghdQ1ijwUFhqSaMSafYq8V9nExMMM56a",
      "value": 681000
    },
    {
      "scriptpubkey": "a914022fe273bf0441697fcc2f965acb264e6a1e8b9087",
      "scriptpubkey_asm": "OP_HASH160 OP_PUSHBYTES_20 022fe273bf0441697fcc2f965acb264e6a1e8b90 OP_EQUAL",
      "scriptpubkey_type": "p2sh",
      "scriptpubkey_address": "31tae1KLM2fxcgbTDphDR5SFo56tNnMSS4",
      "value": 33701388
    }
  ],
  "size": 312,
  "weight": 921,
  "fee": 6604,
  "status": {
    "confirmed": true,
    "block_height": 834638,
    "block_hash": "000000000000000000025f742c626208ac87e0b7d15054abb4a19ca2d735a54e",
    "block_time": 1710405325
  },
  "hex": "010000000001014c416434ec0cb483a55632b35da0c0b99834431a9b9241862eba446f097946f902000000171600147883e8933dba5df15c48d1cc49384ff9bf65a501fdffffff040c3e1f0000000000160014651505c4efe929177fefe35b52cd21b9616dd0cfa4b30200000000001976a91413104e65f1425d5a4fda189e92e51544fe48b75688ac28640a000000000017a914d05b1e12cb2d2c5c7b857c08af5eab9ff114065e870c3e02020000000017a914022fe273bf0441697fcc2f965acb264e6a1e8b90870247304402207ac027a8a440ae2e921188a0943187fbf726b4bc6c9331178076a93824cb448702200be51a74091f0643026209ad952ef569a71c29bd4896bab37940ed89bd441d910121024ae6229c5382ab2ccc59df6bd072318845cb04257422b7a8710b14139bb0e1a500000000"
}