{
  "txid": "a887af491831652de111eca63da0423046089cc5381b347d70ed9bcc21fcee6d",
  "version": 1,
  "locktime": 0,
  "vin": [
    {
      "txid": "5beb40dfeb9d7bfc338704bb4757764dc8fb9505ff891cf228d8666c60c346e7",
      "vout": 1,
      "prevout": {
        "scriptpubkey": "001444025299a2e7e970ccb67866b532baaee912a0a3",
        "scriptpubkey_asm": "OP_0 OP_PUSHBYTES_20 44025299a2e7e970ccb67866b532baaee912a0a3",
        "scriptpubkey_type": "v0_p2wpkh",
        "scriptpubkey_address": "bc1qgsp99xdzul5hpn9k0pnt2v464m539g9rt0pha6",
        "value": 457004
      },
      "scriptsig": "",
      "scriptsig_asm": "",
      "witness": [
        "3045022100c2e14e59f592dc98ea2cab9cda8233f44799c1e0cb5642dd4093ccba8692a05c022001d153c70b4529fa0a84a1a36e685f0aded96d8f5c287c4d8e1b3d415a10ac1a01",
        "0270dcca476e858d5cf4cb24aae674b03cb233abc7e6c9c3b20ec5759e71905535"
      ],
      "is_coinbase": false,
      "sequence": 4294967295
    }
  ],
  "vout": [
    {
      "scriptpubkey": "76a91473d31366860783c5aa9caa4754059b737e090e2988ac",
      "scriptpubkey_asm": "OP_DUP OP_HASH160 OP_PUSHBYTES_20 73d31366860783c5aa9caa4754059b737e090e29 OP_EQUALVERIFY OP_CHECKSIG",
      "scriptpubkey_type": "p2pkh",
      "scriptpubkey_address": "1BZRZs4CRHZaa2bEc78QKHzEuWAG35eEXc",
      "value": 409000
    },
    {
      "scriptpubkey": "001444025299a2e7e970ccb67866b532baaee912a0a3",
      "scriptpubkey_asm": "OP_0 OP_PUSHBYTES_20 44025299a2e7e970ccb67866b532baaee912a0a3",
      "scriptpubkey_type": "v0_p2wpkh",
      "scriptpubkey_address": "bc1qgsp99xdzul5hpn9k0pnt2v464m539g9rt0pha6",
      "value": 44116
    }
  ],
  "size": 226,
  "weight": 574,
  "fee": 3888,
  "status": {
    "confirmed": true,
    "block_height": 834638,
    "block_hash": "000000000000000000025f742c626208ac87e0b7d15054abb4a19ca2d735a54e",
    "block_time": 1710405325
  },
  "hex": "01000000000101e746c3606c66d828f21c89ff0595fbc84d765747bb048733fc7b9debdf40eb5b0100000000ffffffff02a83d0600000000001976a91473d31366860783c5aa9caa4754059b737e090e2988ac54ac00000000000016001444025299a2e7e970ccb67866b532baaee912a0a302483045022100c2e14e59f592dc98ea2cab9cda8233f44799c1e0cb5642dd4093ccba8692a05c022001d153c70b4529fa0a84a1a36e685f0aded96d8f5c287c4d8e1b3d415a10ac1a01210270dcca476e858d5cf4cb24aae674b03cb233abc7e6c9c3b20ec5759e7190553500000000"
}