{
  "txid": "a8956e278741124dafe3bbc80935050f96dde750a99fac0df2f3f6797b704f78",
  "version": 2,
  "locktime": 834611,
  "vin": [
    {
      "txid": "42d68bba188f2691beb1da7959c69fa00d9a75427c42499f41e7192369b1322d",
      "vout": 0,
      "prevout": {
        "scriptpubkey": "0014a5ca73875aba989f7682ada89c4c7792a581d811",
        "scriptpubkey_asm": "OP_0 OP_PUSHBYTES_20 a5ca73875aba989f7682ada89c4c7792a581d811",
        "scriptpubkey_type": "v0_p2wpkh",
        "scriptpubkey_address": "bc1q5h988p66h2vf7a5z4k5fcnrhj2jcrkq367wrmh",
        "value": 3764010
      },
      "scriptsig": "",
      "scriptsig_asm": "",
      "witness": [
        "3044022045008cad6abb0777c78d12eb7cac71c16f14ac2b1d5555ae986c97d271ed203f02204c7f1304f0993e6dc0575294e8cfb4622d54821b24e95ec6dd7472f5cd6c50f901",
        "03715e5eb8a8a1cf5ebac938e364eb9dea29b101a2d067b2fb7d895c6032110e01"
      ],
      "is_coinbase": false,
      "sequence": 4294967293
    }
  ],
  "vout": [
    {
      "scriptpubkey": "0014782a318bb09441fa647a6e54f18ff1a7a51c4f0b",
      "scriptpubkey_asm": "OP_0 OP_PUSHBYTES_20 782a318bb09441fa647a6e54f18ff1a7a51c4f0b",
      "scriptpubkey_type": "v0_p2wpkh",
      "scriptpubkey_address": "bc1q0q4rrzasj3ql5er6de20rrl357j3cnctjes20w",
      "value": 1362091
    },
    {
      "scriptpubkey": "0014651e595238f342e05896c46c37a29aa065810d45",
      "scriptpubkey_asm": "OP_0 OP_PUSHBYTES_20 651e595238f342e05896c46c37a29aa065810d45",
      "scriptpubkey_type": "v0_p2wpkh",
      "scriptpubkey_address": "bc1qv509j53c7dpwqkykc3kr0g565pjczr29r9dp06",
      "value": 2396209
    }
  ],
  "size": 222,
  "weight": 561,
  "fee": 5710,
  "status": {
    "confirmed": true,
    "block_height": 834638,
    "block_hash": "000000000000000000025f742c626208ac87e0b7d15054abb4a19ca2d735a54e",
    "block_time": 1710405325
  },
  "hex": "020000000001012d32b1692319e7419f49427c42759a0da09fc65979dab1be91268f18ba8bd6420000000000fdffffff02abc8140000000000160014782a318bb09441fa647a6e54f18ff1a7a51c4f0b3190240000000000160014651e595238f342e05896c46c37a29aa065810d4502473044022045008cad6abb0777c78d12eb7cac71c16f14ac2b1d5555ae986c97d271ed203f02204c7f1304f0993e6dc0575294e8cfb4622d54821b24e95ec6dd7472f5cd6c50f9012103715e5eb8a8a1cf5ebac938e364eb9dea29b101a2d067b2fb7d895c6032110e0133bc0c00"
}