{
  "txid": "a8a715af3adfbab012abf3a899e3040296c21b90b36572646e6d95c0b4c9632e",
  "version": 2,
  "locktime": 0,
  "vin": [
    {
      "txid": "b4a64b81c252d283fec62b2524cc3032d24bfc6a3b406354e819efae2f7cc3cc",
      "vout": 1,
      "prevout": {
        "scriptpubkey": "0014b91f03689794bb043628a317afc56a852323cc49",
        "scriptpubkey_asm": "OP_0 OP_PUSHBYTES_20 b91f03689794bb043628a317afc56a852323cc49",
        "scriptpubkey_type": "v0_p2wpkh",
        "scriptpubkey_address": "bc1qhy0sx6yhjjasgd3g5vt6l3t2s53j8nzflau0hj",
        "value": 1476550
      },
      "scriptsig": "",
      "scriptsig_asm": "",
      "witness": [
        "3045022100e326071abec281311d71e542256611980723eb8a39a3f7f3acc64d6d0ae4bb020220531fc0bc3ace6a585393375a72bfdd28a499e84f5259cf9af5b1a74b9197153201",
        "0358526e852430d3a346eaf2801e71b106d36ad223cd782b9632621144ba8954ba"
      ],
      "is_coinbase": false,
      "sequence": 4294967295
    }
  ],
  "vout": [
    {
      "scriptpubkey": "0014b22dab052926da2e134fb04bb8903724321e881e",
      "scriptpubkey_asm": "OP_0 OP_PUSHBYTES_20 b22dab052926da2e134fb04bb8903724321e881e",
      "scriptpubkey_type": "v0_p2wpkh",
      "scriptpubkey_address": "bc1qkgk6kpffymdzuy60kp9m3yphysepazq7rvtmc4",
      "value": 76230
    },
    {
      "scriptpubkey": "0014721031f2df73dcab4f49c8a4e76b2d88128bfa85",
      "scriptpubkey_asm": "OP_0 OP_PUSHBYTES_20 721031f2df73dcab4f49c8a4e76b2d88128bfa85",
      "scriptpubkey_type": "v0_p2wpkh",
      "scriptpubkey_address": "bc1qwggrruklw0w2kn6fezjww6ed3qfgh759u7x3r0",
      "value": 1398797
    }
  ],
  "size": 223,
  "weight": 562,
  "fee": 1523,
  "status": {
    "confirmed": true,
    "block_height": 834464,
    "block_hash": "0000000000000000000177a0869a911a2b65c9bdcd5a8bcb02b68f305bee848e",
    "block_time": 1710308296
  },
  "hex": "02000000000101ccc37c2faeef19e85463403b6afc4bd23230cc24252bc6fe83d252c2814ba6b40100000000ffffffff02c629010000000000160014b22dab052926da2e134fb04bb8903724321e881e0d58150000000000160014721031f2df73dcab4f49c8a4e76b2d88128bfa8502483045022100e326071abec281311d71e542256611980723eb8a39a3f7f3acc64d6d0ae4bb020220531fc0bc3ace6a585393375a72bfdd28a499e84f5259cf9af5b1a74b9197153201210358526e852430d3a346eaf2801e71b106d36ad223cd782b9632621144ba8954ba00000000"
}