{
  "txid": "a8a98b1813fb488d4561f0e0d6261cf613b26b676df3b58bec889a65f7f1fb3a",
  "version": 1,
  "locktime": 0,
  "vin": [
    {
      "txid": "53686a65a33cd0aaeeba0e970f2aaba2a80f73f912e94defbad889791b27154f",
      "vout": 1,
      "prevout": {
        "scriptpubkey": "00140f515c199ac6af432f1db58533a884b0bcc391a4",
        "scriptpubkey_asm": "OP_0 OP_PUSHBYTES_20 0f515c199ac6af432f1db58533a884b0bcc391a4",
        "scriptpubkey_type": "v0_p2wpkh",
        "scriptpubkey_address": "bc1qpag4cxv6c6h5xtcakkzn82yykz7v8ydyx0qvja",
        "value": 716378
      },
      "scriptsig": "",
      "scriptsig_asm": "",
      "witness": [
        "3045022100c9df1839546f746d8de7bd496c6f4b94c9f4d8dcbf52b722618e25fb7f5661f002200e8747d5d178f57f6cb8da9fefffd6eb892c7903ec3d1e002e2d9785f41f822901",
        "03dc6710cefdd46c6e91e182a9e464a162ca4ed73f5a5fb189a95c26292919474a"
      ],
      "is_coinbase": false,
      "sequence": 4294967295
    }
  ],
  "vout": [
    {
      "scriptpubkey": "0014f63d264683bc44c41435b167fdf8a3dbc3a52d4a",
      "scriptpubkey_asm": "OP_0 OP_PUSHBYTES_20 f63d264683bc44c41435b167fdf8a3dbc3a52d4a",
      "scriptpubkey_type": "v0_p2wpkh",
      "scriptpubkey_address": "bc1q7c7jv35rh3zvg9p4k9nlm79rm0p62t22436lcl",
      "value": 21761
    },
    {
      "scriptpubkey": "00140f515c199ac6af432f1db58533a884b0bcc391a4",
      "scriptpubkey_asm": "OP_0 OP_PUSHBYTES_20 0f515c199ac6af432f1db58533a884b0bcc391a4",
      "scriptpubkey_type": "v0_p2wpkh",
      "scriptpubkey_address": "bc1qpag4cxv6c6h5xtcakkzn82yykz7v8ydyx0qvja",
      "value": 690810
    }
  ],
  "size": 223,
  "weight": 562,
  "fee": 3807,
  "status": {
    "confirmed": true,
    "block_height": 834638,
    "block_hash": "000000000000000000025f742c626208ac87e0b7d15054abb4a19ca2d735a54e",
    "block_time": 1710405325
  },
  "hex": "010000000001014f15271b7989d8baef4de912f9730fa8a2ab2a0f970ebaeeaad03ca3656a68530100000000ffffffff020155000000000000160014f63d264683bc44c41435b167fdf8a3dbc3a52d4a7a8a0a00000000001600140f515c199ac6af432f1db58533a884b0bcc391a402483045022100c9df1839546f746d8de7bd496c6f4b94c9f4d8dcbf52b722618e25fb7f5661f002200e8747d5d178f57f6cb8da9fefffd6eb892c7903ec3d1e002e2d9785f41f8229012103dc6710cefdd46c6e91e182a9e464a162ca4ed73f5a5fb189a95c26292919474a00000000"
}