{
  "txid": "a8a9d7b70d6bf9b318b46679fcda36fac76c00b82d4e44b7deaf43803c24588b",
  "version": 1,
  "locktime": 0,
  "vin": [
    {
      "txid": "2623e1da0c8556e546a8a9195ad64bf588c0d2363f6197ce69b17038386a2a0f",
      "vout": 1,
      "prevout": {
        "scriptpubkey": "76a9144901a9664bc2b0c79e05247c76a865b335845bc488ac",
        "scriptpubkey_asm": "OP_DUP OP_HASH160 OP_PUSHBYTES_20 4901a9664bc2b0c79e05247c76a865b335845bc4 OP_EQUALVERIFY OP_CHECKSIG",
        "scriptpubkey_type": "p2pkh",
        "scriptpubkey_address": "17f2KTnLazCUVJEaKYg6Hj5UYsKEEAUVFa",
        "value": 5504
      },
      "scriptsig": "47304402202ef933522ce57a165a5d3e2357bd895bbd61a106b244053ef1be8512095dc1f002203f33febed9a643f856b02b62076778759b6d17aed3ae305841bc4eaebec53c7a01210257704297aa452f16664125699de2657ab94c030cbc53e6ec0f5188c7b11b122e",
      "scriptsig_asm": "OP_PUSHBYTES_71 304402202ef933522ce57a165a5d3e2357bd895bbd61a106b244053ef1be8512095dc1f002203f33febed9a643f856b02b62076778759b6d17aed3ae305841bc4eaebec53c7a01 OP_PUSHBYTES_33 0257704297aa452f16664125699de2657ab94c030cbc53e6ec0f5188c7b11b122e",
      "is_coinbase": false,
      "sequence": 4294967295
    },
    {
      "txid": "607269d6c4a1a226c660fe5fa22fd62ced7012678588915169d9af31e89186c5",
      "vout": 1,
      "prevout": {
        "scriptpubkey": "76a91440114cccacd6f22fe3fd0d3a1d28be44477e254288ac",
        "scriptpubkey_asm": "OP_DUP OP_HASH160 OP_PUSHBYTES_20 40114cccacd6f22fe3fd0d3a1d28be44477e2542 OP_EQUALVERIFY OP_CHECKSIG",
        "scriptpubkey_type": "p2pkh",
        "scriptpubkey_address": "16qkyJXDsyjW3jo5krjGvL6K3Qd5hMtH5R",
        "value": 5625
      },
      "scriptsig": "47304402200890266291e221cc1203f994045131b1c74ba5734ded04eeef41e00701753161022030aabaf368ff49197d148890c73e2df5f5748a796ff1414709c8696198a8fe5a012102d01b3fa854ddb3f4d344f0580b31424bd093773f08753bebd570974bbff8eb47",
      "scriptsig_asm": "OP_PUSHBYTES_71 304402200890266291e221cc1203f994045131b1c74ba5734ded04eeef41e00701753161022030aabaf368ff49197d148890c73e2df5f5748a796ff1414709c8696198a8fe5a01 OP_PUSHBYTES_33 02d01b3fa854ddb3f4d344f0580b31424bd093773f08753bebd570974bbff8eb47",
      "is_coinbase": false,
      "sequence": 4294967295
    },
    {
      "txid": "b3eb06523d9b470a5272f33b0fcc00cf5a572f9477e6c7eee3959edf7435157b",
      "vout": 1,
      "prevout": {
        "scriptpubkey": "76a914ccd9096d11c0ad6577a8b9a536f2ca3d74083ff488ac",
        "scriptpubkey_asm": "OP_DUP OP_HASH160 OP_PUSHBYTES_20 ccd9096d11c0ad6577a8b9a536f2ca3d74083ff4 OP_EQUALVERIFY OP_CHECKSIG",
        "scriptpubkey_type": "p2pkh",
        "scriptpubkey_address": "1Kg8r7jSfEMB3tpeFmMAG5qcT9etr81h4w",
        "value": 5631
      },
      "scriptsig": "473044022025b7be7fb4ac7c3d86a857e4a161fb576ed67e534c4376b778ac9f41048c1bcd02204d63d731557d169c370bfc944303df07872dcffc81a83864a2616de63605a3490121025813c7988f94f1989cc15f725558603acb29ceaeac9381711069e03ff677acb6",
      "scriptsig_asm": "OP_PUSHBYTES_71 3044022025b7be7fb4ac7c3d86a857e4a161fb576ed67e534c4376b778ac9f41048c1bcd02204d63d731557d169c370bfc944303df07872dcffc81a83864a2616de63605a34901 OP_PUSHBYTES_33 025813c7988f94f1989cc15f725558603acb29ceaeac9381711069e03ff677acb6",
      "is_coinbase": false,
      "sequence": 4294967295
    },
    {
      "txid": "0ea4be994a363e615394e8d106b093324685ef93ce8634aba05b9c041a6aceaf",
      "vout": 1,
      "prevout": {
        "scriptpubkey": "76a914e11eb51de0240664cf6c513c343a1acfd2324bb388ac",
        "scriptpubkey_asm": "OP_DUP OP_HASH160 OP_PUSHBYTES_20 e11eb51de0240664cf6c513c343a1acfd2324bb3 OP_EQUALVERIFY OP_CHECKSIG",
        "scriptpubkey_type": "p2pkh",
        "scriptpubkey_address": "1MXKpkpM49s5HTVoz5PAqDunE1z39RcpSd",
        "value": 5825
      },
      "scriptsig": "4730440220018b0dbe2ff22243198251a3d589d4c8fceded5ccb5bbcb7fabb995ff5e7f28a02202de81524944e7ba34d6a65f660d8edb6e676f6a3b1e69ebdac4c7fe12405c79e012102b738b616026cfe5153cf4a4af498553480df2495f95a6eb9e0c7991453a3fb0b",
      "scriptsig_asm": "OP_PUSHBYTES_71 30440220018b0dbe2ff22243198251a3d589d4c8fceded5ccb5bbcb7fabb995ff5e7f28a02202de81524944e7ba34d6a65f660d8edb6e676f6a3b1e69ebdac4c7fe12405c79e01 OP_PUSHBYTES_33 02b738b616026cfe5153cf4a4af498553480df2495f95a6eb9e0c7991453a3fb0b",
      "is_coinbase": false,
      "sequence": 4294967295
    },
    {
      "txid": "6501268dc07c628e55df50095ed3de59ada677923e40bf6eba13ef1766e43920",
      "vout": 1,
      "prevout": {
        "scriptpubkey": "76a914c1bc370867d7fe77d3dde83c10cdab507e9aedb188ac",
        "scriptpubkey_asm": "OP_DUP OP_HASH160 OP_PUSHBYTES_20 c1bc370867d7fe77d3dde83c10cdab507e9aedb1 OP_EQUALVERIFY OP_CHECKSIG",
        "scriptpubkey_type": "p2pkh",
        "scriptpubkey_address": "1JfNtRsSnyMzx86QVVZBZjwKuRzHdayZrZ",
        "value": 6137
      },
      "scriptsig": "48304502210080f1e61677e8eae7ce2af328c916f5b5f497873d3f21316c918a0cf4a138f0d2022010b3219a8e770068c9327be54e875e595fdc09ba3a52b0be0cbc035434575cf70121025cdd258da840837c86c7fa20740aeeb6a75c0949bff88a2e15df85bc6b0b4ca7",
      "scriptsig_asm": "OP_PUSHBYTES_72 304502210080f1e61677e8eae7ce2af328c916f5b5f497873d3f21316c918a0cf4a138f0d2022010b3219a8e770068c9327be54e875e595fdc09ba3a52b0be0cbc035434575cf701 OP_PUSHBYTES_33 025cdd258da840837c86c7fa20740aeeb6a75c0949bff88a2e15df85bc6b0b4ca7",
      "is_coinbase": false,
      "sequence": 4294967295
    },
    {
      "txid": "d2fe96188fddbb0ef3660a504db6d4fcf4b0f7120fd2bad570783f4f72e34b40",
      "vout": 1,
      "prevout": {
        "scriptpubkey": "76a914394fe6dd2cba5f61b76db68cf058d4eb3c7ed80a88ac",
        "scriptpubkey_asm": "OP_DUP OP_HASH160 OP_PUSHBYTES_20 394fe6dd2cba5f61b76db68cf058d4eb3c7ed80a OP_EQUALVERIFY OP_CHECKSIG",
        "scriptpubkey_type": "p2pkh",
        "scriptpubkey_address": "16E3EcMe9itcC2BYS5iMGzNahyBhQE2i35",
        "value": 6500
      },
      "scriptsig": "483045022100e83bd0cb6ca27365ca259188f501697110804666af18a52fe20bb341791158cd022030b8449106948f0945b7f502c592e77c7d9984c11fe6451a3c9bd87e378d606d012103c7704031d1949e71f3dc716f8d632b4a430fe3b09f2fba4f6a047658b1aeb5ce",
      "scriptsig_asm": "OP_PUSHBYTES_72 3045022100e83bd0cb6ca27365ca259188f501697110804666af18a52fe20bb341791158cd022030b8449106948f0945b7f502c592e77c7d9984c11fe6451a3c9bd87e378d606d01 OP_PUSHBYTES_33 03c7704031d1949e71f3dc716f8d632b4a430fe3b09f2fba4f6a047658b1aeb5ce",
      "is_coinbase": false,
      "sequence": 4294967295
    }
  ],
  "vout": [
    {
      "scriptpubkey": "76a914e5430df4ef6ac304106f543a0f6b2845b42a196788ac",
      "scriptpubkey_asm": "OP_DUP OP_HASH160 OP_PUSHBYTES_20 e5430df4ef6ac304106f543a0f6b2845b42a1967 OP_EQUALVERIFY OP_CHECKSIG",
      "scriptpubkey_type": "p2pkh",
      "scriptpubkey_address": "1MuE4xcQd4HFo5ZYwSE7g9ry5aHBaS6DYo",
      "value": 25128
    }
  ],
  "size": 928,
  "weight": 3712,
  "fee": 10094,
  "status": {
    "confirmed": true,
    "block_height": 834464,
    "block_hash": "0000000000000000000177a0869a911a2b65c9bdcd5a8bcb02b68f305bee848e",
    "block_time": 1710308296
  },
  "hex": "01000000060f2a6a383870b169ce97613f36d2c088f54bd65a19a9a846e556850cdae12326010000006a47304402202ef933522ce57a165a5d3e2357bd895bbd61a106b244053ef1be8512095dc1f002203f33febed9a643f856b02b62076778759b6d17aed3ae305841bc4eaebec53c7a01210257704297aa452f16664125699de2657ab94c030cbc53e6ec0f5188c7b11b122effffffffc58691e831afd96951918885671270ed2cd62fa25ffe60c626a2a1c4d6697260010000006a47304402200890266291e221cc1203f994045131b1c74ba5734ded04eeef41e00701753161022030aabaf368ff49197d148890c73e2df5f5748a796ff1414709c8696198a8fe5a012102d01b3fa854ddb3f4d344f0580b31424bd093773f08753bebd570974bbff8eb47ffffffff7b153574df9e95e3eec7e677942f575acf00cc0f3bf372520a479b3d5206ebb3010000006a473044022025b7be7fb4ac7c3d86a857e4a161fb576ed67e534c4376b778ac9f41048c1bcd02204d63d731557d169c370bfc944303df07872dcffc81a83864a2616de63605a3490121025813c7988f94f1989cc15f725558603acb29ceaeac9381711069e03ff677acb6ffffffffafce6a1a049c5ba0ab3486ce93ef85463293b006d1e89453613e364a99bea40e010000006a4730440220018b0dbe2ff22243198251a3d589d4c8fceded5ccb5bbcb7fabb995ff5e7f28a02202de81524944e7ba34d6a65f660d8edb6e676f6a3b1e69ebdac4c7fe12405c79e012102b738b616026cfe5153cf4a4af498553480df2495f95a6eb9e0c7991453a3fb0bffffffff2039e46617ef13ba6ebf403e9277a6ad59ded35e0950df558e627cc08d260165010000006b48304502210080f1e61677e8eae7ce2af328c916f5b5f497873d3f21316c918a0cf4a138f0d2022010b3219a8e770068c9327be54e875e595fdc09ba3a52b0be0cbc035434575cf70121025cdd258da840837c86c7fa20740aeeb6a75c0949bff88a2e15df85bc6b0b4ca7ffffffff404be3724f3f7870d5bad20f12f7b0f4fcd4b64d500a66f30ebbdd8f1896fed2010000006b483045022100e83bd0cb6ca27365ca259188f501697110804666af18a52fe20bb341791158cd022030b8449106948f0945b7f502c592e77c7d9984c11fe6451a3c9bd87e378d606d012103c7704031d1949e71f3dc716f8d632b4a430fe3b09f2fba4f6a047658b1aeb5ceffffffff0128620000000000001976a914e5430df4ef6ac304106f543a0f6b2845b42a196788ac00000000"
}