{
  "txid": "a8ac062730a37a6794828720d19ab603a81e10f3cbbc74ec2d224f0f84c86cce",
  "version": 2,
  "locktime": 0,
  "vin": [
    {
      "txid": "42d20c475f16bf54c7b5e275295124822aa57d1b4e2d31733c0a2c01daa98975",
      "vout": 0,
      "prevout": {
        "scriptpubkey": "51200ec4835fdc4fc1fde788cfe67c8cc951c1fe73bbeec2e8534f3755b2bbf769e2",
        "scriptpubkey_asm": "OP_PUSHNUM_1 OP_PUSHBYTES_32 0ec4835fdc4fc1fde788cfe67c8cc951c1fe73bbeec2e8534f3755b2bbf769e2",
        "scriptpubkey_type": "v1_p2tr",
        "scriptpubkey_address": "bc1ppmzgxh7uflqlmeugeln8erxf28qluuamampws560xa2m9wlhd83qnaj8nl",
        "value": 11770
      },
      "scriptsig": "",
      "scriptsig_asm": "",
      "witness": [
        "fff523822e9bd0366b18af7956f6bd75768264fa874e876c181d76c9eb2ba9cc4aac38c2f110dd2716dbf326fa0947acbdd2ffa98ed1d4f7e37c27794d5d39d6",
        "209e74a3339b1460bd6001e472614f80f9b54cb6b1e5be06aca867efd7cacb17bdac0063036f7264010109696d6167652f706e67004d080289504e470d0a1a0a0000000d4948445200000200000002000803000000c3a624c80000000467414d410000b18f0bfc610500000180504c54455fc55244a0423e9d395c716a5c92585c6173dedede814c26272727743f1a5a5a5a5d6416777a8055762954f9d35daf466a381447217446ce74a2a2a236df944f228242d37dc7c7c75daf475cb4472ee7a4401f682fe6a3e6fdeb5a2b914f22815da74abdbdbd0d0d0d5c59785bb7475c7f6358ba4d20f6c16625054dc6635c7e635c7a655d97542bf7c75c49815c885d37de935bb7465c4b80c6fff6090909bdf8c95b398b009d1f27f0b456bc5114001967fad9b9fef216041d5dae4703030353c0575c7d6350228338dd9157248f180920fe5c0d5c5e7544d0785022824bc9684fc45f53f9d2aefeef30e5a13bda8a2a1b4000ff3348cc6f2a1b41a4fdec3fd681311c4d5d9e505823901a0d245c8e5a321c4e33e29a5c5c769afde91b122725f2b924f3bb2e29298ffce55b2d911d162b5b3d8852f9d25c4d7e2319334821755c6d6c411f6885fce266fad9d6d6d629eeb22bebaa7bfbdf0f090b391e5a71fbdc28f7c621f6c23df8cc47f9cf5cfad534f8c90c0c0c000000e6e6e6ffffff750fb6ea0000000374524e53fdd3d3f2a531ef00000bf34944415478daeddde9971d4501c661c207575c41101736e392806214d1b88c3101cc82a051084490a02cb22820115c82f9d79d7b4e97b4754d0802baa6aaeeedba7d27f5fcbecc84f13092f7f930a7a6979bbe3f733f2dec5795fdaeb03f14f6a7cafe52d9df0afb7b617fadec5f85dd0400000000000000000000000000000000001b0c5b3bf0dcc3d60edc6ad8d2815b0d1b7a3513000000000000000000000000000000007d0168356ce9c0ad86bdd10f705eadec9f8900000000000000000000000000000000e81bc0dc0738ad2ed458fa00a776e0b90f7072c3a6fa4714000000000000000000000000000000000000000000000000000000000000000000000000372680c3fe408656c3960edc6ad8b9064ef5ef2100000000000000000000000000000000fa02b0e9c0bb72a3466f0738a503a77a6f0800000000000000000000000000000080be002c75a1c6d20738ad1ec8f0f8d052c3a6864e05000000000000000000000000000000405f000ecb03175b3d7871572ed0a81df8bdc2decf04000000000000000000000000000000405f0076e5028dd04f32d51ee03c9e69dd81973ec079bfb2171301000000000000000000000000000000d03780a5866d3d70eb072dcc7d80533af48b855d197a3b0a00000000000000000000000000000080be006c3a70ab614b07de950b34e6be50a374e02b516f17f6ce1000000000000000000000000000000000006cf2c0c51c0400ea0084614b0f7c0000000000000000000000000000000000e020009b3e9061dd81e3072b6e7be0a52fe4b8524d080258edb0f1c0b900000000000000000000000000000000e80b40e9c0ebbe4071ae81977ee0e2ba0f66586ad8d0139900000000000000000000000000000000e80b40ab614b07de950b34d6bd502357ab819fa8ecb94400000000000000000000000000000000f40d60ee1728de680738ad87ad1df8b9cace4401000000000000000000000000000000d017804f47b51ab8f600e7db99e67e8162ea018c3f4ab4eeb05f296cdd81bf9b290cffe410000000000000000000000000000000007d01d874e0b9876d3d706ed8b8b9076e356c6ae0544f0d01000000000000406f00fe38746de100000000000000602900bd1de0847605c0dcc3c603e70200000000000000000000000000000000805d7a7162ab1728ee0a8033950100000000000000000000000000000000c026005a3f90e19b895abe40b166dcff2cdccf279a73e0b39900000000000000000000000000000000e80bc0dcc3d60e5c7b8053f260861b01c0a6c3c65d4c0400000000000000000000000000000040df00963cc0a979c1c2f8a50961f087a24a06b8bee54afe3fbd3b51edb0a9ce4701000000000000000000000000000000d01780755f9cd8fa058a352f4eec01c0ba03a7ba3004000000000000000000000000000000405f00367de0e2ba037f2953cdcb957a0070beb2639900000000000000600e0061800fa2a62ed4bc2faa1640ea7bad5a7adcb940000000000000004d0802c0360094fe90577223463cc878d01480d21727de36d43b8063855d280c00000000000000000000000000000080be00bc53d9d4a14d6a94a9039c18c06d85851726f40ae0b1353b3574321100000000000000945633c01480f87ff3d044eb02b87e080300000000000000003eeca017272e0d20fe9edfca341780f800e754650000000000000000000000000000000000300520f740865a00f17025000e7a61e2ae03786c470b839f8802000000000000000000000000000000a02f00073d80f1a007324dbdf0709d17274e0d79d08b13c3f7bf6368fcfd6fe483a093859dc8b437f4992100000000000000000000000000000000fa02901a3a7741464b00e3c1e31725c6dfffada16dddc8f1416573013851d85ea630fca52100000000000000000000000000000000fa02702653cd05197301383b51783162fcfdef1d0a7fd9ad412c05e0e8d05e61970a03000000000000000000000000000000a02f004f16165f90d112c0e7274a0188ffa203881b0dc09d43f71416067e2013000000000000000000000000000000007d0178aab26d00b87840a50f8808378e5cdff14a01d40e1bba3cf460220000000000000028edf68952a34cfdc7c517925ecc95f9a12f1500000000000000005007e0f64ce1028df121cd9c00ce0f1d0bad0920b4ed1b475a01a81d36eef8d0fd5100000000000000000000000000000000f40de06c6125bfa02901703e4d0802d1ffde90b82180f802915d03510ae072a2e3515fcff44614000000000000000000000000000000007d012819f8a056630500f10b204bfe83af1536d75ff85c378ebcd5b02900c713e5064ef5fc10000000000000000000000000000000007d01281938d7610210daf4c6916d0378a3b230f02f3301000000000000000000000000000000d01780f3855da8a8f4414eadabf94bcffdbbee8b5a6aecd261437fce04000000000000000000000000000000405f002e5476aaa0c304a0f4c6916d0278fe804a878d7b25110000000000000000000000000000000000f404a0f4c6916d02580dfcb54c61d8ef14f67022000000000000009813c0aa9343df180a28aeed582900f128f1c3adde9da9f8973de1873c00000000000000d83680da61731d1d3a2c0056ad8609378eb406b0e9c0f1c14e6ae89786ee8a02000000000000000000000000000000a02f00eb0e1c86bdb3b0c30620147e69d30a40e9c00f177657a667861e190200000000000080d600f686ee29ecd2d00399e29728a55e9e5c0370f552e5f0cb990020fc39fc7bb675210700000000000000b4027032d1d1c2f6a2be98e95265972b4bbd30b106c0d4051aa11c809a1b356edaefc8967a26eaf4100000000000000000b05d0047160800000000000000c6004e244a0d9c1bbcd5b0bf282cf580c51a00073d90e12000a90732c437c81e59b073430000000000000000c07c00c6234d08028f87ffc8a8d59f7fb840310200000000000000d82bacd501cea6c3e65eacb0e903175783858fa57d6abff071fc40a8d53ffbcd42ad10dc3ceaf5210000000000000000e0ff470fad6e108d3fffe87e531fc3d7c700ee18b524801402000000000000fa05d0fa028ddcb0c7a3361d76d3172bac465a3d28327c9cfafce3fb4d7d0c5f5f0dbf3a18ba376af5b51f2cd814020000000000000000e04300b7ee177ef09bfafcb3fb4d7d0c5f0f3f04de1ab5fa675f5db8180100000000000000b43ac0291d76ee5fe294be38316e3ce478b8f1e79b00d8f91f0201000000000000a05300f18d1cb7ec177f9e0210befec9fdc2c75b46edda2f83aeee0700000000000000318007338561ef2fac1440183807210cfbbdc26a1fb8185eb0b01a6df580c59a8b42c7003e316a972e0abd3a04000000000000000094bd6429ee91516304e33f7f6cd45237874e8d0f000000000040df0052073da503cf3d6cedc0af54f65265f10b16e24e47dd3d51fc43e2cd0b1686fffd100000000000000000d00ec0b8f0608625c7070000000000008015806d3f9861dd039cb907ce0d1b77776161e0cf657a73bf6d8eff7422000000000000000060fb00567db9b0ab95851ff29ece04000000000040bf006a0f7272b5b8516393039c5ca70b7bbdb2370b5b77d8d27e9b0900000000000000000000000000000080be00d45ea031f7c0ad860d9dcbd46ad87507ce1d4da701dc84617f5dd86b9900000000000000000000000000000000e80b40ed41ceae1ce09c2bacf62067a9616b070e0739af15f6722200000000000000000000000000000000fa0270580f705a0d5b3bf0dcc3d60efc72652f4401000000000000000000000000000000d01780b91eb4b0d401ceae5ca0b1ed039cd281533d3b0400000000000000000000000000000000009b00c83d70310cfb85c26a012cf5c0c5501878d31b360000000000000000000000000000000000a00580b95fac10065eeac10c4b0fdb6ae0172a7bb63000000000000000000000000000000000fa0230f7b0b503b77eb142e9b0731fe0940edc6ad8d0a39900000000000000000000000000000000e80bc0e9cae63ec059fac5897187e500e7d1ca7e960800000000000000000000000000000080be012cfde0c5a5876d35f0dc0738b96153fd380a00000000000000000000000000000080be006cfb468cb9076e356ce9c0ad869d6be05c00000000000000000000000000000000f40560d38177e5028dde0e70e60a00000000000000000000000000000080ae00fc17a02751f106399f210000000049454e44ae42608268",
        "c09e74a3339b1460bd6001e472614f80f9b54cb6b1e5be06aca867efd7cacb17bd"
      ],
      "is_coinbase": false,
      "sequence": 4294967293
    }
  ],
  "vout": [
    {
      "scriptpubkey": "51208e31f5a1e6bf524345103dcf1fc4d40da2a0ff0f48dd2d75c33629989aac93b2",
      "scriptpubkey_asm": "OP_PUSHNUM_1 OP_PUSHBYTES_32 8e31f5a1e6bf524345103dcf1fc4d40da2a0ff0f48dd2d75c33629989aac93b2",
      "scriptpubkey_type": "v1_p2tr",
      "scriptpubkey_address": "bc1p3ccltg0xhafyx3gs8h83l3x5pk32plc0frwj6awrxc5e3x4vjweqmaen8l",
      "value": 550
    }
  ],
  "size": 3817,
  "weight": 4099,
  "fee": 11220,
  "status": {
    "confirmed": true,
    "block_height": 834464,
    "block_hash": "0000000000000000000177a0869a911a2b65c9bdcd5a8bcb02b68f305bee848e",
    "block_time": 1710308296
  },
  "hex": "020000000001017589a9da012c0a3c73312d4e1b7da52a8224512975e2b5c754bf165f470cd2420000000000fdffffff0126020000000000002251208e31f5a1e6bf524345103dcf1fc4d40da2a0ff0f48dd2d75c33629989aac93b20340fff523822e9bd0366b18af7956f6bd75768264fa874e876c181d76c9eb2ba9cc4aac38c2f110dd2716dbf326fa0947acbdd2ffa98ed1d4f7e37c27794d5d39d6fd220e209e74a3339b1460bd6001e472614f80f9b54cb6b1e5be06aca867efd7cacb17bdac0063036f7264010109696d6167652f706e67004d080289504e470d0a1a0a0000000d4948445200000200000002000803000000c3a624c80000000467414d410000b18f0bfc610500000180504c54455fc55244a0423e9d395c716a5c92585c6173dedede814c26272727743f1a5a5a5a5d6416777a8055762954f9d35daf466a381447217446ce74a2a2a236df944f228242d37dc7c7c75daf475cb4472ee7a4401f682fe6a3e6fdeb5a2b914f22815da74abdbdbd0d0d0d5c59785bb7475c7f6358ba4d20f6c16625054dc6635c7e635c7a655d97542bf7c75c49815c885d37de935bb7465c4b80c6fff6090909bdf8c95b398b009d1f27f0b456bc5114001967fad9b9fef216041d5dae4703030353c0575c7d6350228338dd9157248f180920fe5c0d5c5e7544d0785022824bc9684fc45f53f9d2aefeef30e5a13bda8a2a1b4000ff3348cc6f2a1b41a4fdec3fd681311c4d5d9e505823901a0d245c8e5a321c4e33e29a5c5c769afde91b122725f2b924f3bb2e29298ffce55b2d911d162b5b3d8852f9d25c4d7e2319334821755c6d6c411f6885fce266fad9d6d6d629eeb22bebaa7bfbdf0f090b391e5a71fbdc28f7c621f6c23df8cc47f9cf5cfad534f8c90c0c0c000000e6e6e6ffffff750fb6ea0000000374524e53fdd3d3f2a531ef00000bf34944415478daeddde9971d4501c661c207575c41101736e392806214d1b88c3101cc82a051084490a02cb22820115c82f9d79d7b4e97b4754d0802baa6aaeeedba7d27f5fcbecc84f13092f7f930a7a6979bbe3f733f2dec5795fdaeb03f14f6a7cafe52d9df0afb7b617fadec5f85dd0400000000000000000000000000000000001b0c5b3bf0dcc3d60edc6ad8d2815b0d1b7a3513000000000000000000000000000000007d0168356ce9c0ad86bdd10f705eadec9f8900000000000000000000000000000000e81bc0dc0738ad2ed458fa00a776e0b90f7072c3a6fa4714000000000000000000000000000000000000000000000000000000000000000000000000372680c3fe408656c3960edc6ad8b9064ef5ef2100000000000000000000000000000000fa02b0e9c0bb72a3466f0738a503a77a6f0800000000000000000000000000000080be002c75a1c6d20738ad1ec8f0f8d052c3a6864e05000000000000000000000000000000405f000ecb03175b3d7871572ed0a81df8bdc2decf04000000000000000000000000000000405f0076e5028dd04f32d51ee03c9e69dd81973ec079bfb2171301000000000000000000000000000000d03780a5866d3d70eb072dcc7d80533af48b855d197a3b0a00000000000000000000000000000080be006c3a70ab614b07de950b34e6be50a374e02b516f17f6ce1000000000000000000000000000000000006cf2c0c51c0400ea0084614b0f7c0000000000000000000000000000000000e020009b3e9061dd81e3072b6e7be0a52fe4b8524d080258edb0f1c0b900000000000000000000000000000000e80b40e9c0ebbe4071ae81977ee0e2ba0f66586ad8d0139900000000000000000000000000000000e80b40ab614b07de950b34d6bd502357ab819fa8ecb94400000000000000000000000000000000f40d60ee1728de680738ad87ad1df8b9cace4401000000000000000000000000000000d017804f47b51ab8f600e7db99e67e8162ea018c3f4ab4eeb05f296cdd81bf9b290cffe410000000000000000000000000000000007d01d874e0b9876d3d706ed8b8b9076e356c6ae0544f0d01000000000000406f00fe38746de100000000000000602900bd1de0847605c0dcc3c603e70200000000000000000000000000000000805d7a7162ab1728ee0a8033950100000000000000000000000000000000c026005a3f90e19b895abe40b166dcff2cdccf279a73e0b39900000000000000000000000000000000e80bc0dcc3d60e5c7b8053f260861b01c0a6c3c65d4c0400000000000000000000000000000040df00963cc0a979c1c2f8a50961f087a24a06b8bee54afe3fbd3b51edb0a9ce4701000000000000000000000000000000d01780755f9cd8fa058a352f4eec01c0ba03a7ba3004000000000000000000000000000000405f00367de0e2ba037f2953cdcb957a0070beb2639900000000000000600e0061800fa2a62ed4bc2faa1640ea7bad5a7adcb940000000000000004d0802c0360094fe90577223463cc878d01480d21727de36d43b8063855d280c00000000000000000000000000000080be00bc53d9d4a14d6a94a9039c18c06d85851726f40ae0b1353b3574321100000000000000945633c01480f87ff3d044eb02b87e080300000000000000003eeca017272e0d20fe9edfca341780f800e754650000000000000000000000000000000000300520f740865a00f17025000e7a61e2ae03786c470b839f8802000000000000000000000000000000a02f00073d80f1a007324dbdf0709d17274e0d79d08b13c3f7bf6368fcfd6fe483a093859dc8b437f4992100000000000000000000000000000000fa02901a3a7741464b00e3c1e31725c6dfffada16dddc8f1416573013851d85ea630fca52100000000000000000000000000000000fa02702653cd05197301383b51783162fcfdef1d0a7fd9ad412c05e0e8d05e61970a03000000000000000000000000000000a02f004f16165f90d112c0e7274a0188ffa203881b0dc09d43f71416067e2013000000000000000000000000000000007d0178aab26d00b87840a50f8808378e5cdff14a01d40e1bba3cf460220000000000000028edf68952a34cfdc7c517925ecc95f9a12f1500000000000000005007e0f64ce1028df121cd9c00ce0f1d0bad0920b4ed1b475a01a81d36eef8d0fd5100000000000000000000000000000000f40de06c6125bfa02901703e4d0802d1ffde90b82180f802915d03510ae072a2e3515fcff44614000000000000000000000000000000007d012819f8a056630500f10b204bfe83af1536d75ff85c378ebcd5b02900c713e5064ef5fc10000000000000000000000000000000007d01281938d7610210daf4c6916d0378a3b230f02f3301000000000000000000000000000000d01780f3855da8a8f4414eadabf94bcffdbbee8b5a6aecd261437fce04000000000000000000000000000000405f002e5476aaa0c304a0f4c6916d0278fe804a878d7b25110000000000000000000000000000000000f404a0f4c6916d02580dfcb54c61d8ef14f67022000000000000009813c0aa9343df180a28aeed582900f128f1c3adde9da9f8973de1873c00000000000000d83680da61731d1d3a2c0056ad8609378eb406b0e9c0f1c14e6ae89786ee8a02000000000000000000000000000000a02f00eb0e1c86bdb3b0c30620147e69d30a40e9c00f177657a667861e190200000000000080d600f686ee29ecd2d00399e29728a55e9e5c0370f552e5f0cb990020fc39fc7bb675210700000000000000b4027032d1d1c2f6a2be98e95265972b4bbd30b106c0d4051aa11c809a1b356edaefc8967a26eaf4100000000000000000b05d0047160800000000000000c6004e244a0d9c1bbcd5b0bf282cf580c51a00073d90e12000a90732c437c81e59b073430000000000000000c07c00c6234d08028f87ffc8a8d59f7fb840310200000000000000d82bacd501cea6c3e65eacb0e903175783858fa57d6abff071fc40a8d53ffbcd42ad10dc3ceaf5210000000000000000e0ff470fad6e108d3fffe87e531fc3d7c700ee18b524801402000000000000fa05d0fa028ddcb0c7a3361d76d3172bac465a3d28327c9cfafce3fb4d7d0c5f5f0dbf3a18ba376af5b51f2cd814020000000000000000e04300b7ee177ef09bfafcb3fb4d7d0c5f0f3f04de1ab5fa675f5db8180100000000000000b43ac0291d76ee5fe294be38316e3ce478b8f1e79b00d8f91f0201000000000000a05300f18d1cb7ec177f9e0210befec9fdc2c75b46edda2f83aeee0700000000000000318007338561ef2fac1440183807210cfbbdc26a1fb8185eb0b01a6df580c59a8b42c7003e316a972e0abd3a04000000000000000094bd6429ee91516304e33f7f6cd45237874e8d0f000000000040df0052073da503cf3d6cedc0af54f65265f10b16e24e47dd3d51fc43e2cd0b1686fffd100000000000000000d00ec0b8f0608625c7070000000000008015806d3f9861dd039cb907ce0d1b77776161e0cf657a73bf6d8eff7422000000000000000060fb00567db9b0ab95851ff29ece04000000000040bf006a0f7272b5b8516393039c5ca70b7bbdb2370b5b77d8d27e9b0900000000000000000000000000000080be00d45ea031f7c0ad860d9dcbd46ad87507ce1d4da701dc84617f5dd86b9900000000000000000000000000000000e80b40ed41ceae1ce09c2bacf62067a9616b070e0739af15f6722200000000000000000000000000000000fa0270580f705a0d5b3bf0dcc3d60efc72652f4401000000000000000000000000000000d01780b91eb4b0d401ceae5ca0b1ed039cd281533d3b0400000000000000000000000000000000009b00c83d70310cfb85c26a012cf5c0c5501878d31b360000000000000000000000000000000000a00580b95fac10065eeac10c4b0fdb6ae0172a7bb63000000000000000000000000000000000fa0230f7b0b503b77eb142e9b0731fe0940edc6ad8d0a39900000000000000000000000000000000e80bc0e9cae63ec059fac5897187e500e7d1ca7e960800000000000000000000000000000080be012cfde0c5a5876d35f0dc0738b96153fd380a00000000000000000000000000000080be006cfb468cb9076e356ce9c0ad869d6be05c00000000000000000000000000000000f40560d38177e5028dde0e70e60a00000000000000000000000000000080ae00fc17a02751f106399f210000000049454e44ae4260826821c09e74a3339b1460bd6001e472614f80f9b54cb6b1e5be06aca867efd7cacb17bd00000000"
}