{
  "txid": "a8b277ce1965ab563f7d330f59ab57351d10c192b2393cae30e435a4f9ff067b",
  "version": 1,
  "locktime": 0,
  "vin": [
    {
      "txid": "38d180dc70d67d16789ee7c1c5b1930f9346f473e0de882596dcf62c78ea2f17",
      "vout": 1,
      "prevout": {
        "scriptpubkey": "76a914fc8303705612e6dd1cf4fe5e2f9f3b098c789a3b88ac",
        "scriptpubkey_asm": "OP_DUP OP_HASH160 OP_PUSHBYTES_20 fc8303705612e6dd1cf4fe5e2f9f3b098c789a3b OP_EQUALVERIFY OP_CHECKSIG",
        "scriptpubkey_type": "p2pkh",
        "scriptpubkey_address": "1Q2AEKDrkuwoSRJzA7vfyTxj5R7arMkmSs",
        "value": 196089764
      },
      "scriptsig": "483045022100f9e793de17e094f376739a4f6a0d8573c4b0825ceae7b36f194686c5539437f302200895bd513dd6f54a1d92ed7beafae7213e79215a5df10490e806be9a35ca499b012103eb643932a9a292ac1183424eb172d05189892623ad4c70ea771dd6756b2fe8b0",
      "scriptsig_asm": "OP_PUSHBYTES_72 3045022100f9e793de17e094f376739a4f6a0d8573c4b0825ceae7b36f194686c5539437f302200895bd513dd6f54a1d92ed7beafae7213e79215a5df10490e806be9a35ca499b01 OP_PUSHBYTES_33 03eb643932a9a292ac1183424eb172d05189892623ad4c70ea771dd6756b2fe8b0",
      "is_coinbase": false,
      "sequence": 4294967295
    }
  ],
  "vout": [
    {
      "scriptpubkey": "0014a63091f2a40c0b86a4db0015f1c68ad084a5a2f3",
      "scriptpubkey_asm": "OP_0 OP_PUSHBYTES_20 a63091f2a40c0b86a4db0015f1c68ad084a5a2f3",
      "scriptpubkey_type": "v0_p2wpkh",
      "scriptpubkey_address": "bc1q5ccfru4yps9cdfxmqq2lr3526zz2tghnfk0mun",
      "value": 225680
    },
    {
      "scriptpubkey": "76a9149ec90de6c305fbfb802fb84e6297b6d4a4e64a1788ac",
      "scriptpubkey_asm": "OP_DUP OP_HASH160 OP_PUSHBYTES_20 9ec90de6c305fbfb802fb84e6297b6d4a4e64a17 OP_EQUALVERIFY OP_CHECKSIG",
      "scriptpubkey_type": "p2pkh",
      "scriptpubkey_address": "1FUacoosu4j6Xqswjz5mSo2CYNehLMuaTC",
      "value": 195856400
    }
  ],
  "size": 223,
  "weight": 892,
  "fee": 7684,
  "status": {
    "confirmed": true,
    "block_height": 834638,
    "block_hash": "000000000000000000025f742c626208ac87e0b7d15054abb4a19ca2d735a54e",
    "block_time": 1710405325
  },
  "hex": "0100000001172fea782cf6dc962588dee073f446930f93b1c5c1e79e78167dd670dc80d138010000006b483045022100f9e793de17e094f376739a4f6a0d8573c4b0825ceae7b36f194686c5539437f302200895bd513dd6f54a1d92ed7beafae7213e79215a5df10490e806be9a35ca499b012103eb643932a9a292ac1183424eb172d05189892623ad4c70ea771dd6756b2fe8b0ffffffff029071030000000000160014a63091f2a40c0b86a4db0015f1c68ad084a5a2f31088ac0b000000001976a9149ec90de6c305fbfb802fb84e6297b6d4a4e64a1788ac00000000"
}