{
  "txid": "a8b44bc7582713dc4cd1860e6261b80c48cf626b01eb0d515344c7660ca4548f",
  "version": 1,
  "locktime": 0,
  "vin": [
    {
      "txid": "24d9454ee2cc084027a3dda4214fcf365757b51412bd3b4afa27ce9aa997046d",
      "vout": 4,
      "prevout": {
        "scriptpubkey": "00146e4c6e515a2fe8a027c37ef25cbc41eaec9ac75c",
        "scriptpubkey_asm": "OP_0 OP_PUSHBYTES_20 6e4c6e515a2fe8a027c37ef25cbc41eaec9ac75c",
        "scriptpubkey_type": "v0_p2wpkh",
        "scriptpubkey_address": "bc1qdexxu5269l52qf7r0me9e0zpatkf436u7fxsc3",
        "value": 100000
      },
      "scriptsig": "",
      "scriptsig_asm": "",
      "witness": [
        "30440220118ab6ae9201be0825027593dfbbdf5edc6c6f27de9284a28afefd5e1be0f436022049c3d475d3cc037d10a3a39b13cd39600fa441dc537a68201ff73446080debc501",
        "0233dbb090794b5bfe9658b0a99bb84b82ba341ba1227479a223ee66ddaf504395"
      ],
      "is_coinbase": false,
      "sequence": 4294967295
    },
    {
      "txid": "35e67f8526a371cb4bf18c07b4502bbc7d2d9704c60079c9cec9718f6a7d294b",
      "vout": 5,
      "prevout": {
        "scriptpubkey": "00149dc412505e7824898effdbdfc88962668048d166",
        "scriptpubkey_asm": "OP_0 OP_PUSHBYTES_20 9dc412505e7824898effdbdfc88962668048d166",
        "scriptpubkey_type": "v0_p2wpkh",
        "scriptpubkey_address": "bc1qnhzpy5z70qjgnrhlm00u3ztzv6qy35txyqpqc5",
        "value": 100000
      },
      "scriptsig": "",
      "scriptsig_asm": "",
      "witness": [
        "304402206c1985f41ce3288d5c2596d3d9cf89e2dee05a72c3a677c0deb5c619e43733b102206ee3512703bb8ae966b961fb656f4940c52e99d5821801015e4c0d9e7af6570201",
        "034d945e4c9388fb3e6d035dd5d8afcf08b3ed35b446104c7a9dde2e81f5f180c9"
      ],
      "is_coinbase": false,
      "sequence": 4294967295
    },
    {
      "txid": "3d69f2e57b2b85b5c4a69f617420990f99a40044a89991e7d50d2fbbc89ff4b4",
      "vout": 3,
      "prevout": {
        "scriptpubkey": "00147e32f05bfb3faa09778408e933563147d68be455",
        "scriptpubkey_asm": "OP_0 OP_PUSHBYTES_20 7e32f05bfb3faa09778408e933563147d68be455",
        "scriptpubkey_type": "v0_p2wpkh",
        "scriptpubkey_address": "bc1q0ce0qklm874qjauypr5nx433gltghez4jzx4ht",
        "value": 100000
      },
      "scriptsig": "",
      "scriptsig_asm": "",
      "witness": [
        "30440220235655bfe43c2d4322ab4dcc873aa0dbe1d0a0672720a2e580989f8f3372980802203fdda0fa06666d253b1bee537e1dd4f3996824d046283ca6cca3899f024b1b8601",
        "024f1a1b188729c8fa328b3319cff1baba6a92f0d99c0649ec59e45a22698cfdd3"
      ],
      "is_coinbase": false,
      "sequence": 4294967295
    },
    {
      "txid": "6d351060b4b4bcb319c18fe7b88fb5d9b6cd481e1fb9d62fb7ed3ec9f8132c46",
      "vout": 10,
      "prevout": {
        "scriptpubkey": "00146a27ef6df01d706faaa95efc952e2987557ec753",
        "scriptpubkey_asm": "OP_0 OP_PUSHBYTES_20 6a27ef6df01d706faaa95efc952e2987557ec753",
        "scriptpubkey_type": "v0_p2wpkh",
        "scriptpubkey_address": "bc1qdgn77m0sr4cxl24ftm7f2t3fsa2ha36nd2q677",
        "value": 103932
      },
      "scriptsig": "",
      "scriptsig_asm": "",
      "witness": [
        "3045022100d63b44fcf46c4de4143f5874befe9437c39f380731c71da5e39be66ee2ebd127022071f8b221ce65ee4b1c643128faf76855a39070e598444ee6bee3910590f8f49201",
        "0346496e1e8fa93acebe3d70f9b52bc11af5b25dc874292447aecd73e33db91ee5"
      ],
      "is_coinbase": false,
      "sequence": 4294967295
    },
    {
      "txid": "7b8afba7911e784399113f85685ed3882dd7b9954ffbe719ee1153020efd3c79",
      "vout": 12,
      "prevout": {
        "scriptpubkey": "0014639007befd08a54a4951bc866ce6562575983056",
        "scriptpubkey_asm": "OP_0 OP_PUSHBYTES_20 639007befd08a54a4951bc866ce6562575983056",
        "scriptpubkey_type": "v0_p2wpkh",
        "scriptpubkey_address": "bc1qvwgq00hapzj55j23hjrxeejky46esvzkdncu2h",
        "value": 103412
      },
      "scriptsig": "",
      "scriptsig_asm": "",
      "witness": [
        "304402205872cd10aa009510c111c4b949c8b89a9865f733149edc8507ae1935493f69d0022036c435ab387839c83791146904136eeb9370201e99c72d74274345b1fc14950401",
        "02f629e042f2bb63dab2f37c5451fd45fb80f9c7620b399de96cf0ca29636ef092"
      ],
      "is_coinbase": false,
      "sequence": 4294967295
    }
  ],
  "vout": [
    {
      "scriptpubkey": "0014596f2876cfd68af76964501c2b2dd23e9710126c",
      "scriptpubkey_asm": "OP_0 OP_PUSHBYTES_20 596f2876cfd68af76964501c2b2dd23e9710126c",
      "scriptpubkey_type": "v0_p2wpkh",
      "scriptpubkey_address": "bc1qt9hjsak06690w6ty2qwzktwj86t3qynvlg324u",
      "value": 100000
    },
    {
      "scriptpubkey": "0014a9330da10f64087d41174987b886c014e3c5b063",
      "scriptpubkey_asm": "OP_0 OP_PUSHBYTES_20 a9330da10f64087d41174987b886c014e3c5b063",
      "scriptpubkey_type": "v0_p2wpkh",
      "scriptpubkey_address": "bc1q4yesmgg0vsy86sghfxrm3pkqzn3utvrrg5nywt",
      "value": 100000
    },
    {
      "scriptpubkey": "0014b45c1506b24c75215c8bfc1e19590db42d16c462",
      "scriptpubkey_asm": "OP_0 OP_PUSHBYTES_20 b45c1506b24c75215c8bfc1e19590db42d16c462",
      "scriptpubkey_type": "v0_p2wpkh",
      "scriptpubkey_address": "bc1qk3wp2p4jf36jzhytls0pjkgdksk3d3rz47tg6q",
      "value": 100000
    },
    {
      "scriptpubkey": "0014ba87b4699d39dd6d2b322292e08f93897662866f",
      "scriptpubkey_asm": "OP_0 OP_PUSHBYTES_20 ba87b4699d39dd6d2b322292e08f93897662866f",
      "scriptpubkey_type": "v0_p2wpkh",
      "scriptpubkey_address": "bc1qh2rmg6va88wk62ejy2fwprun39mx9pn07wfe7t",
      "value": 100000
    },
    {
      "scriptpubkey": "0014e4bc81924cb48dd6a8be27934269720efcabf549",
      "scriptpubkey_asm": "OP_0 OP_PUSHBYTES_20 e4bc81924cb48dd6a8be27934269720efcabf549",
      "scriptpubkey_type": "v0_p2wpkh",
      "scriptpubkey_address": "bc1quj7gryjvkjxad297y7f5y6tjpm72ha2f0njh9z",
      "value": 100000
    }
  ],
  "size": 908,
  "weight": 2018,
  "fee": 7344,
  "status": {
    "confirmed": true,
    "block_height": 834638,
    "block_hash": "000000000000000000025f742c626208ac87e0b7d15054abb4a19ca2d735a54e",
    "block_time": 1710405325
  },
  "hex": "010000000001056d0497a99ace27fa4a3bbd1214b5575736cf4f21a4dda3274008cce24e45d9240400000000ffffffff4b297d6a8f71c9cec97900c604972d7dbc2b50b4078cf14bcb71a326857fe6350500000000ffffffffb4f49fc8bb2f0dd5e79199a84400a4990f992074619fa6c4b5852b7be5f2693d0300000000ffffffff462c13f8c93eedb72fd6b91f1e48cdb6d9b58fb8e78fc119b3bcb4b46010356d0a00000000ffffffff793cfd0e025311ee19e7fb4f95b9d72d88d35e68853f119943781e91a7fb8a7b0c00000000ffffffff05a086010000000000160014596f2876cfd68af76964501c2b2dd23e9710126ca086010000000000160014a9330da10f64087d41174987b886c014e3c5b063a086010000000000160014b45c1506b24c75215c8bfc1e19590db42d16c462a086010000000000160014ba87b4699d39dd6d2b322292e08f93897662866fa086010000000000160014e4bc81924cb48dd6a8be27934269720efcabf549024730440220118ab6ae9201be0825027593dfbbdf5edc6c6f27de9284a28afefd5e1be0f436022049c3d475d3cc037d10a3a39b13cd39600fa441dc537a68201ff73446080debc501210233dbb090794b5bfe9658b0a99bb84b82ba341ba1227479a223ee66ddaf5043950247304402206c1985f41ce3288d5c2596d3d9cf89e2dee05a72c3a677c0deb5c619e43733b102206ee3512703bb8ae966b961fb656f4940c52e99d5821801015e4c0d9e7af657020121034d945e4c9388fb3e6d035dd5d8afcf08b3ed35b446104c7a9dde2e81f5f180c9024730440220235655bfe43c2d4322ab4dcc873aa0dbe1d0a0672720a2e580989f8f3372980802203fdda0fa06666d253b1bee537e1dd4f3996824d046283ca6cca3899f024b1b860121024f1a1b188729c8fa328b3319cff1baba6a92f0d99c0649ec59e45a22698cfdd302483045022100d63b44fcf46c4de4143f5874befe9437c39f380731c71da5e39be66ee2ebd127022071f8b221ce65ee4b1c643128faf76855a39070e598444ee6bee3910590f8f49201210346496e1e8fa93acebe3d70f9b52bc11af5b25dc874292447aecd73e33db91ee50247304402205872cd10aa009510c111c4b949c8b89a9865f733149edc8507ae1935493f69d0022036c435ab387839c83791146904136eeb9370201e99c72d74274345b1fc149504012102f629e042f2bb63dab2f37c5451fd45fb80f9c7620b399de96cf0ca29636ef09200000000"
}