{
  "txid": "a8bfb1d54d2e2f6ba3af36c332b6c33a58117ca84e21aa13db2874595913d251",
  "version": 2,
  "locktime": 834637,
  "vin": [
    {
      "txid": "a5251271d72491b575817904a7edc4e5cad8190f9ce6bf5cd0fbaec7f327c865",
      "vout": 0,
      "prevout": {
        "scriptpubkey": "0014751371fabb44c11c83cca728da5f3ec0013daa8d",
        "scriptpubkey_asm": "OP_0 OP_PUSHBYTES_20 751371fabb44c11c83cca728da5f3ec0013daa8d",
        "scriptpubkey_type": "v0_p2wpkh",
        "scriptpubkey_address": "bc1qw5fhr74mgnq3eq7v5u5d5he7cqqnm25dwyv6h2",
        "value": 1182354383
      },
      "scriptsig": "",
      "scriptsig_asm": "",
      "witness": [
        "30440220638f8407c7cf565cf3fd2b86a9e232e342f46b3d7b9710bee52b195838f8a61d02206fd788cfff6da544a1cc45b70f152e4cfa3b7fd9fb3f4335f44f11dea854e5dd01",
        "03a04f51a2784099553ea992840055b5dd4ac0a38d8874bdafecc1d0b24c566cfd"
      ],
      "is_coinbase": false,
      "sequence": 4294967293
    }
  ],
  "vout": [
    {
      "scriptpubkey": "00143d3550f1bcc6712a44302aa60af184d3cd067d13",
      "scriptpubkey_asm": "OP_0 OP_PUSHBYTES_20 3d3550f1bcc6712a44302aa60af184d3cd067d13",
      "scriptpubkey_type": "v0_p2wpkh",
      "scriptpubkey_address": "bc1q8564puducecj53ps92nq4uvy60xsvlgn6ryh0r",
      "value": 20985000
    },
    {
      "scriptpubkey": "00147308ac8cd92dfef0402966f24efd58889799f04e",
      "scriptpubkey_asm": "OP_0 OP_PUSHBYTES_20 7308ac8cd92dfef0402966f24efd58889799f04e",
      "scriptpubkey_type": "v0_p2wpkh",
      "scriptpubkey_address": "bc1qwvy2erxe9hl0qspfvmeyal2c3ztenuzwdn20cx",
      "value": 1160853698
    },
    {
      "scriptpubkey": "0014522f7086804e7b51298f58511e11b000fc72d2a0",
      "scriptpubkey_asm": "OP_0 OP_PUSHBYTES_20 522f7086804e7b51298f58511e11b000fc72d2a0",
      "scriptpubkey_type": "v0_p2wpkh",
      "scriptpubkey_address": "bc1q2ghhpp5qfea4z2v0tpg3uydsqr78954qtlga6j",
      "value": 511042
    }
  ],
  "size": 253,
  "weight": 685,
  "fee": 4643,
  "status": {
    "confirmed": true,
    "block_height": 834638,
    "block_hash": "000000000000000000025f742c626208ac87e0b7d15054abb4a19ca2d735a54e",
    "block_time": 1710405325
  },
  "hex": "0200000000010165c827f3c7aefbd05cbfe69c0f19d8cae5c4eda704798175b59124d7711225a50000000000fdffffff03a8344001000000001600143d3550f1bcc6712a44302aa60af184d3cd067d13c2383145000000001600147308ac8cd92dfef0402966f24efd58889799f04e42cc070000000000160014522f7086804e7b51298f58511e11b000fc72d2a0024730440220638f8407c7cf565cf3fd2b86a9e232e342f46b3d7b9710bee52b195838f8a61d02206fd788cfff6da544a1cc45b70f152e4cfa3b7fd9fb3f4335f44f11dea854e5dd012103a04f51a2784099553ea992840055b5dd4ac0a38d8874bdafecc1d0b24c566cfd4dbc0c00"
}