{
  "txid": "a8ca117ae3556e2970c1ea6552f8de10b3d2d3c70d77d1452c38db53cdac73b7",
  "version": 1,
  "locktime": 0,
  "vin": [
    {
      "txid": "371d79091822891559344f35dea870594d807922b67df6c9d1df336e26430ce9",
      "vout": 1,
      "prevout": {
        "scriptpubkey": "0020eb988b7ca13f387f2262caaa27c43ed0c4a653f8de22e990ab21165babeadba6",
        "scriptpubkey_asm": "OP_0 OP_PUSHBYTES_32 eb988b7ca13f387f2262caaa27c43ed0c4a653f8de22e990ab21165babeadba6",
        "scriptpubkey_type": "v0_p2wsh",
        "scriptpubkey_address": "bc1qawvgkl9p8uu87gnze24z03p76rz2v5lcmc3wny9tyyt9h2l2mwnq0vtn33",
        "value": 90784702
      },
      "scriptsig": "",
      "scriptsig_asm": "",
      "witness": [
        "",
        "304402202619479d1ea0fc80baa3c1ea8a43e60aac5d306be2a886816b0867060dd32aab02200d2971eb4cb320da442820ffa70260f684129f6a4d463a089fecbcd3636f8e0e01",
        "3044022044106186f6011e1747165b85b236dc8112280bd3d5a6062bd85ab2abbdd965ba022074e37273de7c1cd42cd38f02fe0cac415f336afe43c9b173181ba185b1a1848301",
        "522103557952932d7990bb837bf653afb6f57fd3200fc4055e28b6f7c842e2a631c03121020572180bec8e3a5c49f453d2a30d4deb116be4fcfe387af43a80be430bef2c64210204a043d7eb31f62d0999edfe7d982e950a38b3be8a8f12f3f3986c8acc2ad0e353ae"
      ],
      "is_coinbase": false,
      "sequence": 4294967295,
      "inner_witnessscript_asm": "OP_PUSHNUM_2 OP_PUSHBYTES_33 03557952932d7990bb837bf653afb6f57fd3200fc4055e28b6f7c842e2a631c031 OP_PUSHBYTES_33 020572180bec8e3a5c49f453d2a30d4deb116be4fcfe387af43a80be430bef2c64 OP_PUSHBYTES_33 0204a043d7eb31f62d0999edfe7d982e950a38b3be8a8f12f3f3986c8acc2ad0e3 OP_PUSHNUM_3 OP_CHECKMULTISIG"
    }
  ],
  "vout": [
    {
      "scriptpubkey": "0014b5c545c76b079475db84db05f426078809dd2100",
      "scriptpubkey_asm": "OP_0 OP_PUSHBYTES_20 b5c545c76b079475db84db05f426078809dd2100",
      "scriptpubkey_type": "v0_p2wpkh",
      "scriptpubkey_address": "bc1qkhz5t3mtq728tkuymvzlgfs83qya6ggqhv762q",
      "value": 315218
    },
    {
      "scriptpubkey": "0020591ef3d51d3ee16128df5e01d0b94a8d45c4c41beed9aa9e79efcee36994d998",
      "scriptpubkey_asm": "OP_0 OP_PUSHBYTES_32 591ef3d51d3ee16128df5e01d0b94a8d45c4c41beed9aa9e79efcee36994d998",
      "scriptpubkey_type": "v0_p2wsh",
      "scriptpubkey_address": "bc1qty0084ga8mskz2xltcqapw2234zuf3qmamv648neal8wx6v5mxvq728v6z",
      "value": 90465588
    }
  ],
  "size": 379,
  "weight": 754,
  "fee": 3896,
  "status": {
    "confirmed": true,
    "block_height": 834638,
    "block_hash": "000000000000000000025f742c626208ac87e0b7d15054abb4a19ca2d735a54e",
    "block_time": 1710405325
  },
  "hex": "01000000000101e90c43266e33dfd1c9f67db62279804d5970a8de354f34591589221809791d370100000000ffffffff0252cf040000000000160014b5c545c76b079475db84db05f426078809dd21003465640500000000220020591ef3d51d3ee16128df5e01d0b94a8d45c4c41beed9aa9e79efcee36994d998040047304402202619479d1ea0fc80baa3c1ea8a43e60aac5d306be2a886816b0867060dd32aab02200d2971eb4cb320da442820ffa70260f684129f6a4d463a089fecbcd3636f8e0e01473044022044106186f6011e1747165b85b236dc8112280bd3d5a6062bd85ab2abbdd965ba022074e37273de7c1cd42cd38f02fe0cac415f336afe43c9b173181ba185b1a184830169522103557952932d7990bb837bf653afb6f57fd3200fc4055e28b6f7c842e2a631c03121020572180bec8e3a5c49f453d2a30d4deb116be4fcfe387af43a80be430bef2c64210204a043d7eb31f62d0999edfe7d982e950a38b3be8a8f12f3f3986c8acc2ad0e353ae00000000"
}