{
  "txid": "a8f76e26aa307bbbff3c70927cee68fa7e9311a28a52c09ae4e1ac45ccb7193e",
  "version": 2,
  "locktime": 0,
  "vin": [
    {
      "txid": "aa9b65118c8495203cfd580c76769d320039021b9a62bba6f4a1fbf0e7086c25",
      "vout": 1,
      "prevout": {
        "scriptpubkey": "51203863ee247d81f74f5e191d80e32144df0dbdace9be51ab88a63080ac18e61773",
        "scriptpubkey_asm": "OP_PUSHNUM_1 OP_PUSHBYTES_32 3863ee247d81f74f5e191d80e32144df0dbdace9be51ab88a63080ac18e61773",
        "scriptpubkey_type": "v1_p2tr",
        "scriptpubkey_address": "bc1p8p37ufras8m57hserkqwxg2ymuxmmt8fheg6hz9xxzq2cx8xzaesp4p6c2",
        "value": 15058
      },
      "scriptsig": "",
      "scriptsig_asm": "",
      "witness": [
        "246bed59dfd185d7f669cfce5ef2e8904a9add8a7c8beb4927e6b515a838eeb7655be5e99a3d9742e3b574b8cafc4f4b5d59d0aee35980bf4ae7016ebebb44a4"
      ],
      "is_coinbase": false,
      "sequence": 4294967295
    }
  ],
  "vout": [
    {
      "scriptpubkey": "5120372e205b858f2a752723cedda5426a54eb129f67a9ea05994b26f2a8e84e2a8c",
      "scriptpubkey_asm": "OP_PUSHNUM_1 OP_PUSHBYTES_32 372e205b858f2a752723cedda5426a54eb129f67a9ea05994b26f2a8e84e2a8c",
      "scriptpubkey_type": "v1_p2tr",
      "scriptpubkey_address": "bc1pxuhzqku93u482feremw62sn22n4398m8484qtx2tyme236zw92xqy4t3mr",
      "value": 5000
    },
    {
      "scriptpubkey": "51203863ee247d81f74f5e191d80e32144df0dbdace9be51ab88a63080ac18e61773",
      "scriptpubkey_asm": "OP_PUSHNUM_1 OP_PUSHBYTES_32 3863ee247d81f74f5e191d80e32144df0dbdace9be51ab88a63080ac18e61773",
      "scriptpubkey_type": "v1_p2tr",
      "scriptpubkey_address": "bc1p8p37ufras8m57hserkqwxg2ymuxmmt8fheg6hz9xxzq2cx8xzaesp4p6c2",
      "value": 8056
    }
  ],
  "size": 205,
  "weight": 616,
  "fee": 2002,
  "status": {
    "confirmed": true,
    "block_height": 834460,
    "block_hash": "00000000000000000000484a79b643b2524bbce82e5d8a442013fa5b8905ed98",
    "block_time": 1710307468
  },
  "hex": "02000000000101256c08e7f0fba1f4a6bb629a1b023900329d76760c58fd3c2095848c11659baa0100000000ffffffff028813000000000000225120372e205b858f2a752723cedda5426a54eb129f67a9ea05994b26f2a8e84e2a8c781f0000000000002251203863ee247d81f74f5e191d80e32144df0dbdace9be51ab88a63080ac18e617730140246bed59dfd185d7f669cfce5ef2e8904a9add8a7c8beb4927e6b515a838eeb7655be5e99a3d9742e3b574b8cafc4f4b5d59d0aee35980bf4ae7016ebebb44a400000000"
}