{
  "txid": "a8f81c027f9b08651599f25b6922bbeacdd9317302123b9c89e77d70a573fdd8",
  "version": 2,
  "locktime": 0,
  "vin": [
    {
      "txid": "1f4f21d39dd8455a48ef7975ff3b7df78120e392114dbcb37e1331a3bb6ef96b",
      "vout": 1,
      "prevout": {
        "scriptpubkey": "51205586147a241628faf0ca3864b4d5e24feb47858b3e2e46d32947748abc0680d6",
        "scriptpubkey_asm": "OP_PUSHNUM_1 OP_PUSHBYTES_32 5586147a241628faf0ca3864b4d5e24feb47858b3e2e46d32947748abc0680d6",
        "scriptpubkey_type": "v1_p2tr",
        "scriptpubkey_address": "bc1p2krpg73yzc504ux28pjtf40zfl450pvt8chyd5efga6g40qxsrtq3fe5j5",
        "value": 51755
      },
      "scriptsig": "",
      "scriptsig_asm": "",
      "witness": [
        "68ed58ac6c0be0dbb9bb6bb99a59f0689328496b02a6040664746e175d1e70cc513c5c1b6278a37379e93db656357ea0d32f012449a2355653d80076618f1dac"
      ],
      "is_coinbase": false,
      "sequence": 4294967293
    },
    {
      "txid": "e6085a688b7a0445d2050437223eada73a9a4240abb7e1ce3569693825b8d005",
      "vout": 1,
      "prevout": {
        "scriptpubkey": "51205586147a241628faf0ca3864b4d5e24feb47858b3e2e46d32947748abc0680d6",
        "scriptpubkey_asm": "OP_PUSHNUM_1 OP_PUSHBYTES_32 5586147a241628faf0ca3864b4d5e24feb47858b3e2e46d32947748abc0680d6",
        "scriptpubkey_type": "v1_p2tr",
        "scriptpubkey_address": "bc1p2krpg73yzc504ux28pjtf40zfl450pvt8chyd5efga6g40qxsrtq3fe5j5",
        "value": 28844
      },
      "scriptsig": "",
      "scriptsig_asm": "",
      "witness": [
        "b327835b1a8a41c39cdffc999f1a29990a8fc5e7d15b03d4697716fce745d452aae7b1a35b92a0cfbf65252e5cce33c05c52a2b1c1059d9e0fbd4d776bfc11f9"
      ],
      "is_coinbase": false,
      "sequence": 4294967293
    }
  ],
  "vout": [
    {
      "scriptpubkey": "512086df1de0a65ff720717ff69f2ea3704e8c0ddc6a604f3ba3209c5face7171c31",
      "scriptpubkey_asm": "OP_PUSHNUM_1 OP_PUSHBYTES_32 86df1de0a65ff720717ff69f2ea3704e8c0ddc6a604f3ba3209c5face7171c31",
      "scriptpubkey_type": "v1_p2tr",
      "scriptpubkey_address": "bc1psm03mc9xtlmjqutl760jagmsf6xqmhr2vp8nhgeqn306eechrscsa7zy0d",
      "value": 2142
    },
    {
      "scriptpubkey": "512086df1de0a65ff720717ff69f2ea3704e8c0ddc6a604f3ba3209c5face7171c31",
      "scriptpubkey_asm": "OP_PUSHNUM_1 OP_PUSHBYTES_32 86df1de0a65ff720717ff69f2ea3704e8c0ddc6a604f3ba3209c5face7171c31",
      "scriptpubkey_type": "v1_p2tr",
      "scriptpubkey_address": "bc1psm03mc9xtlmjqutl760jagmsf6xqmhr2vp8nhgeqn306eechrscsa7zy0d",
      "value": 2142
    },
    {
      "scriptpubkey": "512086df1de0a65ff720717ff69f2ea3704e8c0ddc6a604f3ba3209c5face7171c31",
      "scriptpubkey_asm": "OP_PUSHNUM_1 OP_PUSHBYTES_32 86df1de0a65ff720717ff69f2ea3704e8c0ddc6a604f3ba3209c5face7171c31",
      "scriptpubkey_type": "v1_p2tr",
      "scriptpubkey_address": "bc1psm03mc9xtlmjqutl760jagmsf6xqmhr2vp8nhgeqn306eechrscsa7zy0d",
      "value": 2142
    },
    {
      "scriptpubkey": "512086df1de0a65ff720717ff69f2ea3704e8c0ddc6a604f3ba3209c5face7171c31",
      "scriptpubkey_asm": "OP_PUSHNUM_1 OP_PUSHBYTES_32 86df1de0a65ff720717ff69f2ea3704e8c0ddc6a604f3ba3209c5face7171c31",
      "scriptpubkey_type": "v1_p2tr",
      "scriptpubkey_address": "bc1psm03mc9xtlmjqutl760jagmsf6xqmhr2vp8nhgeqn306eechrscsa7zy0d",
      "value": 2142
    },
    {
      "scriptpubkey": "512086df1de0a65ff720717ff69f2ea3704e8c0ddc6a604f3ba3209c5face7171c31",
      "scriptpubkey_asm": "OP_PUSHNUM_1 OP_PUSHBYTES_32 86df1de0a65ff720717ff69f2ea3704e8c0ddc6a604f3ba3209c5face7171c31",
      "scriptpubkey_type": "v1_p2tr",
      "scriptpubkey_address": "bc1psm03mc9xtlmjqutl760jagmsf6xqmhr2vp8nhgeqn306eechrscsa7zy0d",
      "value": 2142
    },
    {
      "scriptpubkey": "512086df1de0a65ff720717ff69f2ea3704e8c0ddc6a604f3ba3209c5face7171c31",
      "scriptpubkey_asm": "OP_PUSHNUM_1 OP_PUSHBYTES_32 86df1de0a65ff720717ff69f2ea3704e8c0ddc6a604f3ba3209c5face7171c31",
      "scriptpubkey_type": "v1_p2tr",
      "scriptpubkey_address": "bc1psm03mc9xtlmjqutl760jagmsf6xqmhr2vp8nhgeqn306eechrscsa7zy0d",
      "value": 2142
    },
    {
      "scriptpubkey": "512086df1de0a65ff720717ff69f2ea3704e8c0ddc6a604f3ba3209c5face7171c31",
      "scriptpubkey_asm": "OP_PUSHNUM_1 OP_PUSHBYTES_32 86df1de0a65ff720717ff69f2ea3704e8c0ddc6a604f3ba3209c5face7171c31",
      "scriptpubkey_type": "v1_p2tr",
      "scriptpubkey_address": "bc1psm03mc9xtlmjqutl760jagmsf6xqmhr2vp8nhgeqn306eechrscsa7zy0d",
      "value": 2142
    },
    {
      "scriptpubkey": "512086df1de0a65ff720717ff69f2ea3704e8c0ddc6a604f3ba3209c5face7171c31",
      "scriptpubkey_asm": "OP_PUSHNUM_1 OP_PUSHBYTES_32 86df1de0a65ff720717ff69f2ea3704e8c0ddc6a604f3ba3209c5face7171c31",
      "scriptpubkey_type": "v1_p2tr",
      "scriptpubkey_address": "bc1psm03mc9xtlmjqutl760jagmsf6xqmhr2vp8nhgeqn306eechrscsa7zy0d",
      "value": 2142
    },
    {
      "scriptpubkey": "512086df1de0a65ff720717ff69f2ea3704e8c0ddc6a604f3ba3209c5face7171c31",
      "scriptpubkey_asm": "OP_PUSHNUM_1 OP_PUSHBYTES_32 86df1de0a65ff720717ff69f2ea3704e8c0ddc6a604f3ba3209c5face7171c31",
      "scriptpubkey_type": "v1_p2tr",
      "scriptpubkey_address": "bc1psm03mc9xtlmjqutl760jagmsf6xqmhr2vp8nhgeqn306eechrscsa7zy0d",
      "value": 2142
    },
    {
      "scriptpubkey": "512086df1de0a65ff720717ff69f2ea3704e8c0ddc6a604f3ba3209c5face7171c31",
      "scriptpubkey_asm": "OP_PUSHNUM_1 OP_PUSHBYTES_32 86df1de0a65ff720717ff69f2ea3704e8c0ddc6a604f3ba3209c5face7171c31",
      "scriptpubkey_type": "v1_p2tr",
      "scriptpubkey_address": "bc1psm03mc9xtlmjqutl760jagmsf6xqmhr2vp8nhgeqn306eechrscsa7zy0d",
      "value": 2142
    },
    {
      "scriptpubkey": "512086df1de0a65ff720717ff69f2ea3704e8c0ddc6a604f3ba3209c5face7171c31",
      "scriptpubkey_asm": "OP_PUSHNUM_1 OP_PUSHBYTES_32 86df1de0a65ff720717ff69f2ea3704e8c0ddc6a604f3ba3209c5face7171c31",
      "scriptpubkey_type": "v1_p2tr",
      "scriptpubkey_address": "bc1psm03mc9xtlmjqutl760jagmsf6xqmhr2vp8nhgeqn306eechrscsa7zy0d",
      "value": 2142
    },
    {
      "scriptpubkey": "512086df1de0a65ff720717ff69f2ea3704e8c0ddc6a604f3ba3209c5face7171c31",
      "scriptpubkey_asm": "OP_PUSHNUM_1 OP_PUSHBYTES_32 86df1de0a65ff720717ff69f2ea3704e8c0ddc6a604f3ba3209c5face7171c31",
      "scriptpubkey_type": "v1_p2tr",
      "scriptpubkey_address": "bc1psm03mc9xtlmjqutl760jagmsf6xqmhr2vp8nhgeqn306eechrscsa7zy0d",
      "value": 2142
    },
    {
      "scriptpubkey": "512086df1de0a65ff720717ff69f2ea3704e8c0ddc6a604f3ba3209c5face7171c31",
      "scriptpubkey_asm": "OP_PUSHNUM_1 OP_PUSHBYTES_32 86df1de0a65ff720717ff69f2ea3704e8c0ddc6a604f3ba3209c5face7171c31",
      "scriptpubkey_type": "v1_p2tr",
      "scriptpubkey_address": "bc1psm03mc9xtlmjqutl760jagmsf6xqmhr2vp8nhgeqn306eechrscsa7zy0d",
      "value": 2142
    },
    {
      "scriptpubkey": "512086df1de0a65ff720717ff69f2ea3704e8c0ddc6a604f3ba3209c5face7171c31",
      "scriptpubkey_asm": "OP_PUSHNUM_1 OP_PUSHBYTES_32 86df1de0a65ff720717ff69f2ea3704e8c0ddc6a604f3ba3209c5face7171c31",
      "scriptpubkey_type": "v1_p2tr",
      "scriptpubkey_address": "bc1psm03mc9xtlmjqutl760jagmsf6xqmhr2vp8nhgeqn306eechrscsa7zy0d",
      "value": 2142
    },
    {
      "scriptpubkey": "512086df1de0a65ff720717ff69f2ea3704e8c0ddc6a604f3ba3209c5face7171c31",
      "scriptpubkey_asm": "OP_PUSHNUM_1 OP_PUSHBYTES_32 86df1de0a65ff720717ff69f2ea3704e8c0ddc6a604f3ba3209c5face7171c31",
      "scriptpubkey_type": "v1_p2tr",
      "scriptpubkey_address": "bc1psm03mc9xtlmjqutl760jagmsf6xqmhr2vp8nhgeqn306eechrscsa7zy0d",
      "value": 2142
    },
    {
      "scriptpubkey": "512086df1de0a65ff720717ff69f2ea3704e8c0ddc6a604f3ba3209c5face7171c31",
      "scriptpubkey_asm": "OP_PUSHNUM_1 OP_PUSHBYTES_32 86df1de0a65ff720717ff69f2ea3704e8c0ddc6a604f3ba3209c5face7171c31",
      "scriptpubkey_type": "v1_p2tr",
      "scriptpubkey_address": "bc1psm03mc9xtlmjqutl760jagmsf6xqmhr2vp8nhgeqn306eechrscsa7zy0d",
      "value": 2142
    },
    {
      "scriptpubkey": "512086df1de0a65ff720717ff69f2ea3704e8c0ddc6a604f3ba3209c5face7171c31",
      "scriptpubkey_asm": "OP_PUSHNUM_1 OP_PUSHBYTES_32 86df1de0a65ff720717ff69f2ea3704e8c0ddc6a604f3ba3209c5face7171c31",
      "scriptpubkey_type": "v1_p2tr",
      "scriptpubkey_address": "bc1psm03mc9xtlmjqutl760jagmsf6xqmhr2vp8nhgeqn306eechrscsa7zy0d",
      "value": 2142
    },
    {
      "scriptpubkey": "512086df1de0a65ff720717ff69f2ea3704e8c0ddc6a604f3ba3209c5face7171c31",
      "scriptpubkey_asm": "OP_PUSHNUM_1 OP_PUSHBYTES_32 86df1de0a65ff720717ff69f2ea3704e8c0ddc6a604f3ba3209c5face7171c31",
      "scriptpubkey_type": "v1_p2tr",
      "scriptpubkey_address": "bc1psm03mc9xtlmjqutl760jagmsf6xqmhr2vp8nhgeqn306eechrscsa7zy0d",
      "value": 2142
    },
    {
      "scriptpubkey": "512086df1de0a65ff720717ff69f2ea3704e8c0ddc6a604f3ba3209c5face7171c31",
      "scriptpubkey_asm": "OP_PUSHNUM_1 OP_PUSHBYTES_32 86df1de0a65ff720717ff69f2ea3704e8c0ddc6a604f3ba3209c5face7171c31",
      "scriptpubkey_type": "v1_p2tr",
      "scriptpubkey_address": "bc1psm03mc9xtlmjqutl760jagmsf6xqmhr2vp8nhgeqn306eechrscsa7zy0d",
      "value": 2142
    },
    {
      "scriptpubkey": "512086df1de0a65ff720717ff69f2ea3704e8c0ddc6a604f3ba3209c5face7171c31",
      "scriptpubkey_asm": "OP_PUSHNUM_1 OP_PUSHBYTES_32 86df1de0a65ff720717ff69f2ea3704e8c0ddc6a604f3ba3209c5face7171c31",
      "scriptpubkey_type": "v1_p2tr",
      "scriptpubkey_address": "bc1psm03mc9xtlmjqutl760jagmsf6xqmhr2vp8nhgeqn306eechrscsa7zy0d",
      "value": 2142
    },
    {
      "scriptpubkey": "512086df1de0a65ff720717ff69f2ea3704e8c0ddc6a604f3ba3209c5face7171c31",
      "scriptpubkey_asm": "OP_PUSHNUM_1 OP_PUSHBYTES_32 86df1de0a65ff720717ff69f2ea3704e8c0ddc6a604f3ba3209c5face7171c31",
      "scriptpubkey_type": "v1_p2tr",
      "scriptpubkey_address": "bc1psm03mc9xtlmjqutl760jagmsf6xqmhr2vp8nhgeqn306eechrscsa7zy0d",
      "value": 2142
    },
    {
      "scriptpubkey": "512086df1de0a65ff720717ff69f2ea3704e8c0ddc6a604f3ba3209c5face7171c31",
      "scriptpubkey_asm": "OP_PUSHNUM_1 OP_PUSHBYTES_32 86df1de0a65ff720717ff69f2ea3704e8c0ddc6a604f3ba3209c5face7171c31",
      "scriptpubkey_type": "v1_p2tr",
      "scriptpubkey_address": "bc1psm03mc9xtlmjqutl760jagmsf6xqmhr2vp8nhgeqn306eechrscsa7zy0d",
      "value": 2142
    },
    {
      "scriptpubkey": "512086df1de0a65ff720717ff69f2ea3704e8c0ddc6a604f3ba3209c5face7171c31",
      "scriptpubkey_asm": "OP_PUSHNUM_1 OP_PUSHBYTES_32 86df1de0a65ff720717ff69f2ea3704e8c0ddc6a604f3ba3209c5face7171c31",
      "scriptpubkey_type": "v1_p2tr",
      "scriptpubkey_address": "bc1psm03mc9xtlmjqutl760jagmsf6xqmhr2vp8nhgeqn306eechrscsa7zy0d",
      "value": 2142
    },
    {
      "scriptpubkey": "512086df1de0a65ff720717ff69f2ea3704e8c0ddc6a604f3ba3209c5face7171c31",
      "scriptpubkey_asm": "OP_PUSHNUM_1 OP_PUSHBYTES_32 86df1de0a65ff720717ff69f2ea3704e8c0ddc6a604f3ba3209c5face7171c31",
      "scriptpubkey_type": "v1_p2tr",
      "scriptpubkey_address": "bc1psm03mc9xtlmjqutl760jagmsf6xqmhr2vp8nhgeqn306eechrscsa7zy0d",
      "value": 2142
    },
    {
      "scriptpubkey": "51205586147a241628faf0ca3864b4d5e24feb47858b3e2e46d32947748abc0680d6",
      "scriptpubkey_asm": "OP_PUSHNUM_1 OP_PUSHBYTES_32 5586147a241628faf0ca3864b4d5e24feb47858b3e2e46d32947748abc0680d6",
      "scriptpubkey_type": "v1_p2tr",
      "scriptpubkey_address": "bc1p2krpg73yzc504ux28pjtf40zfl450pvt8chyd5efga6g40qxsrtq3fe5j5",
      "value": 14779
    }
  ],
  "size": 1301,
  "weight": 4802,
  "fee": 14412,
  "status": {
    "confirmed": true,
    "block_height": 834460,
    "block_hash": "00000000000000000000484a79b643b2524bbce82e5d8a442013fa5b8905ed98",
    "block_time": 1710307468
  },
  "hex": "020000000001026bf96ebba331137eb3bc4d1192e32081f77d3bff7579ef485a45d89dd3214f1f0100000000fdffffff05d0b82538696935cee1b7ab40429a3aa7ad3e22370405d245047a8b685a08e60100000000fdffffff195e0800000000000022512086df1de0a65ff720717ff69f2ea3704e8c0ddc6a604f3ba3209c5face7171c315e0800000000000022512086df1de0a65ff720717ff69f2ea3704e8c0ddc6a604f3ba3209c5face7171c315e0800000000000022512086df1de0a65ff720717ff69f2ea3704e8c0ddc6a604f3ba3209c5face7171c315e0800000000000022512086df1de0a65ff720717ff69f2ea3704e8c0ddc6a604f3ba3209c5face7171c315e0800000000000022512086df1de0a65ff720717ff69f2ea3704e8c0ddc6a604f3ba3209c5face7171c315e0800000000000022512086df1de0a65ff720717ff69f2ea3704e8c0ddc6a604f3ba3209c5face7171c315e0800000000000022512086df1de0a65ff720717ff69f2ea3704e8c0ddc6a604f3ba3209c5face7171c315e0800000000000022512086df1de0a65ff720717ff69f2ea3704e8c0ddc6a604f3ba3209c5face7171c315e0800000000000022512086df1de0a65ff720717ff69f2ea3704e8c0ddc6a604f3ba3209c5face7171c315e0800000000000022512086df1de0a65ff720717ff69f2ea3704e8c0ddc6a604f3ba3209c5face7171c315e0800000000000022512086df1de0a65ff720717ff69f2ea3704e8c0ddc6a604f3ba3209c5face7171c315e0800000000000022512086df1de0a65ff720717ff69f2ea3704e8c0ddc6a604f3ba3209c5face7171c315e0800000000000022512086df1de0a65ff720717ff69f2ea3704e8c0ddc6a604f3ba3209c5face7171c315e0800000000000022512086df1de0a65ff720717ff69f2ea3704e8c0ddc6a604f3ba3209c5face7171c315e0800000000000022512086df1de0a65ff720717ff69f2ea3704e8c0ddc6a604f3ba3209c5face7171c315e0800000000000022512086df1de0a65ff720717ff69f2ea3704e8c0ddc6a604f3ba3209c5face7171c315e0800000000000022512086df1de0a65ff720717ff69f2ea3704e8c0ddc6a604f3ba3209c5face7171c315e0800000000000022512086df1de0a65ff720717ff69f2ea3704e8c0ddc6a604f3ba3209c5face7171c315e0800000000000022512086df1de0a65ff720717ff69f2ea3704e8c0ddc6a604f3ba3209c5face7171c315e0800000000000022512086df1de0a65ff720717ff69f2ea3704e8c0ddc6a604f3ba3209c5face7171c315e0800000000000022512086df1de0a65ff720717ff69f2ea3704e8c0ddc6a604f3ba3209c5face7171c315e0800000000000022512086df1de0a65ff720717ff69f2ea3704e8c0ddc6a604f3ba3209c5face7171c315e0800000000000022512086df1de0a65ff720717ff69f2ea3704e8c0ddc6a604f3ba3209c5face7171c315e0800000000000022512086df1de0a65ff720717ff69f2ea3704e8c0ddc6a604f3ba3209c5face7171c31bb390000000000002251205586147a241628faf0ca3864b4d5e24feb47858b3e2e46d32947748abc0680d6014068ed58ac6c0be0dbb9bb6bb99a59f0689328496b02a6040664746e175d1e70cc513c5c1b6278a37379e93db656357ea0d32f012449a2355653d80076618f1dac0140b327835b1a8a41c39cdffc999f1a29990a8fc5e7d15b03d4697716fce745d452aae7b1a35b92a0cfbf65252e5cce33c05c52a2b1c1059d9e0fbd4d776bfc11f900000000"
}