{
  "txid": "a8fdbbea8d798e25037d3760e2791d33675d245a919b872174b9a93daf449ad9",
  "version": 1,
  "locktime": 0,
  "vin": [
    {
      "txid": "a9678f16fd3e7c390e7b440242f3394ba2ebf08d7fcd4f67f544ff12abd00a67",
      "vout": 0,
      "prevout": {
        "scriptpubkey": "00143f918350bed26f446b77515cb561c7eef8e03506",
        "scriptpubkey_asm": "OP_0 OP_PUSHBYTES_20 3f918350bed26f446b77515cb561c7eef8e03506",
        "scriptpubkey_type": "v0_p2wpkh",
        "scriptpubkey_address": "bc1q87gcx5976fh5g6mh29wt2cw8amuwqdgxvk4xsr",
        "value": 6000
      },
      "scriptsig": "",
      "scriptsig_asm": "",
      "witness": [
        "3045022100a3b01c8e5e149a8cf9cbc5f182160822c2110cf70ae41c4fdd3cdc74962dbd1402202561cc9685d4c32b4dfe087958596d1f928a08fcc67e08287b8787164a1924b301",
        "026d2815480aa28e4555964fd11770b9b772179d53ceb315ebdfd9ccbf1a6670ab"
      ],
      "is_coinbase": false,
      "sequence": 4294967295
    }
  ],
  "vout": [
    {
      "scriptpubkey": "001468b54c3deb66c32e671fa0cbfe89d194eb42568d",
      "scriptpubkey_asm": "OP_0 OP_PUSHBYTES_20 68b54c3deb66c32e671fa0cbfe89d194eb42568d",
      "scriptpubkey_type": "v0_p2wpkh",
      "scriptpubkey_address": "bc1qdz65c00tvmpjuecl5r9lazw3jn45y45dv9wvvt",
      "value": 3030
    }
  ],
  "size": 192,
  "weight": 438,
  "fee": 2970,
  "status": {
    "confirmed": true,
    "block_height": 834638,
    "block_hash": "000000000000000000025f742c626208ac87e0b7d15054abb4a19ca2d735a54e",
    "block_time": 1710405325
  },
  "hex": "01000000000101670ad0ab12ff44f5674fcd7f8df0eba24b39f34202447b0e397c3efd168f67a90000000000ffffffff01d60b00000000000016001468b54c3deb66c32e671fa0cbfe89d194eb42568d02483045022100a3b01c8e5e149a8cf9cbc5f182160822c2110cf70ae41c4fdd3cdc74962dbd1402202561cc9685d4c32b4dfe087958596d1f928a08fcc67e08287b8787164a1924b30121026d2815480aa28e4555964fd11770b9b772179d53ceb315ebdfd9ccbf1a6670ab00000000"
}