{
  "txid": "a907911f1deeda9e819a21458ebff534b9c2f04818b0a8a2bed49a6dbe31deaa",
  "version": 2,
  "locktime": 0,
  "vin": [
    {
      "txid": "166a03808c6de72b8907e76ef8f48394a5e474d20766202543cca1482d2ac040",
      "vout": 0,
      "prevout": {
        "scriptpubkey": "a914f5f483a9a0678f0f424344bad0b2977d4e0bb73387",
        "scriptpubkey_asm": "OP_HASH160 OP_PUSHBYTES_20 f5f483a9a0678f0f424344bad0b2977d4e0bb733 OP_EQUAL",
        "scriptpubkey_type": "p2sh",
        "scriptpubkey_address": "3Q7WPhDCuJxP7aZREJGthHLLBkrMGBkQcg",
        "value": 26249342
      },
      "scriptsig": "1600149a258f7d488021c1e7584359367e90e836c0449c",
      "scriptsig_asm": "OP_PUSHBYTES_22 00149a258f7d488021c1e7584359367e90e836c0449c",
      "witness": [
        "3044022072c71375887d31de8a19192b96e4f0db8569114a686eb1b72c6c2d8e606eba5902207786507f23f3c21da32b043d6cd3ec6a1055002f5a617c5e5d8b261d7468755101",
        "020377e8cece4d9a516838f6cc81102357dfb055f3ea584a1c4f945f2ea2037191"
      ],
      "is_coinbase": false,
      "sequence": 4294967293,
      "inner_redeemscript_asm": "OP_0 OP_PUSHBYTES_20 9a258f7d488021c1e7584359367e90e836c0449c"
    }
  ],
  "vout": [
    {
      "scriptpubkey": "00141d5bfa3bbeb7ce4e78aa6e32828a969fd48b4d4a",
      "scriptpubkey_asm": "OP_0 OP_PUSHBYTES_20 1d5bfa3bbeb7ce4e78aa6e32828a969fd48b4d4a",
      "scriptpubkey_type": "v0_p2wpkh",
      "scriptpubkey_address": "bc1qr4dl5wa7kl8yu792dceg9z5knl2gkn220lk7a9",
      "value": 26247230
    }
  ],
  "size": 214,
  "weight": 529,
  "fee": 2112,
  "status": {
    "confirmed": true,
    "block_height": 834638,
    "block_hash": "000000000000000000025f742c626208ac87e0b7d15054abb4a19ca2d735a54e",
    "block_time": 1710405325
  },
  "hex": "0200000000010140c02a2d48a1cc4325206607d274e4a59483f4f86ee707892be76d8c80036a1600000000171600149a258f7d488021c1e7584359367e90e836c0449cfdffffff013e809001000000001600141d5bfa3bbeb7ce4e78aa6e32828a969fd48b4d4a02473044022072c71375887d31de8a19192b96e4f0db8569114a686eb1b72c6c2d8e606eba5902207786507f23f3c21da32b043d6cd3ec6a1055002f5a617c5e5d8b261d746875510121020377e8cece4d9a516838f6cc81102357dfb055f3ea584a1c4f945f2ea203719100000000"
}