{
  "txid": "a91bb31dab897881c5e7c5240621e1a5709565f886983c6cafed91de28ef1412",
  "version": 2,
  "locktime": 0,
  "vin": [
    {
      "txid": "acc3ba00869acb582a3f2904ce3a11dd3779350ce234063fc7d0959246213364",
      "vout": 64,
      "prevout": {
        "scriptpubkey": "5120372ac69c01ab934d08d2ca48818f2b465e99574d9be00ba940afe115b97fa483",
        "scriptpubkey_asm": "OP_PUSHNUM_1 OP_PUSHBYTES_32 372ac69c01ab934d08d2ca48818f2b465e99574d9be00ba940afe115b97fa483",
        "scriptpubkey_type": "v1_p2tr",
        "scriptpubkey_address": "bc1pxu4vd8qp4wf56zxjefygrretge0fj46dn0sqh22q4ls3twtl5jpskla285",
        "value": 1806
      },
      "scriptsig": "",
      "scriptsig_asm": "",
      "witness": [
        "212454ac9a7d38b4c71476aa306b2a4fdb1594059f76f02f612df979a7458d57634ba271a1fc6535a535b03e6b150cdf0bafcb10708d88194e94f9ea2538f871",
        "2006e01178cfee06638fc83e9bd9e1243078f5c07658966fabca6858c949046751ac0063036f726401010a746578742f706c61696e00357b2270223a226272632d3230222c226f70223a226d696e74222c227469636b223a22646f6765222c22616d74223a2234323030227d68",
        "c106e01178cfee06638fc83e9bd9e1243078f5c07658966fabca6858c949046751"
      ],
      "is_coinbase": false,
      "sequence": 4261412863
    }
  ],
  "vout": [
    {
      "scriptpubkey": "00147a665de7a370f4c9b372ab1fae587500a5bcbdb4",
      "scriptpubkey_asm": "OP_0 OP_PUSHBYTES_20 7a665de7a370f4c9b372ab1fae587500a5bcbdb4",
      "scriptpubkey_type": "v0_p2wpkh",
      "scriptpubkey_address": "bc1q0fn9mearwr6vnvmj4v06ukr4qzjme0d565dzcx",
      "value": 294
    }
  ],
  "size": 294,
  "weight": 540,
  "fee": 1512,
  "status": {
    "confirmed": true,
    "block_height": 834460,
    "block_hash": "00000000000000000000484a79b643b2524bbce82e5d8a442013fa5b8905ed98",
    "block_time": 1710307468
  },
  "hex": "02000000000101643321469295d0c73f0634e20c357937dd113ace04293f2a58cb9a8600bac3ac4000000000fffffffd0126010000000000001600147a665de7a370f4c9b372ab1fae587500a5bcbdb40340212454ac9a7d38b4c71476aa306b2a4fdb1594059f76f02f612df979a7458d57634ba271a1fc6535a535b03e6b150cdf0bafcb10708d88194e94f9ea2538f8716d2006e01178cfee06638fc83e9bd9e1243078f5c07658966fabca6858c949046751ac0063036f726401010a746578742f706c61696e00357b2270223a226272632d3230222c226f70223a226d696e74222c227469636b223a22646f6765222c22616d74223a2234323030227d6821c106e01178cfee06638fc83e9bd9e1243078f5c07658966fabca6858c94904675100000000"
}