{
  "txid": "a932b9c6eb071075818a2dd348f426a1d5250c1543094dbde1359da691bdf401",
  "version": 1,
  "locktime": 0,
  "vin": [
    {
      "txid": "5b14ae96f798cf18d0c11464d26e2e1400f6f6591f64814607dbfec7fc124b1a",
      "vout": 1,
      "prevout": {
        "scriptpubkey": "00147b53cf7599d0415fa30fb8efd30aa5dbfba0f918",
        "scriptpubkey_asm": "OP_0 OP_PUSHBYTES_20 7b53cf7599d0415fa30fb8efd30aa5dbfba0f918",
        "scriptpubkey_type": "v0_p2wpkh",
        "scriptpubkey_address": "bc1q0dfu7ave6pq4lgc0hrhaxz49m0a6p7gcc6xkne",
        "value": 5292312
      },
      "scriptsig": "",
      "scriptsig_asm": "",
      "witness": [
        "304402205a665a0501bf55b3522d7285e567baa10b6da73c0bd2c9afdf6f45aaf40f149802204831b4225d43a6c05bd6ad874341d2c446bfefc04357ce8b11c3d10b41647c1101",
        "032b227e73adac95785fa52ae850fc96fea32250e8cc8ffafb8814c17371ee48d5"
      ],
      "is_coinbase": false,
      "sequence": 4294967295
    }
  ],
  "vout": [
    {
      "scriptpubkey": "a91440cc16992daabce2025f98af8f9f2c1f820db9ad87",
      "scriptpubkey_asm": "OP_HASH160 OP_PUSHBYTES_20 40cc16992daabce2025f98af8f9f2c1f820db9ad OP_EQUAL",
      "scriptpubkey_type": "p2sh",
      "scriptpubkey_address": "37bdf85Tia5TpqR7Jzc14k4nRCsbUmucb1",
      "value": 817910
    },
    {
      "scriptpubkey": "00147b53cf7599d0415fa30fb8efd30aa5dbfba0f918",
      "scriptpubkey_asm": "OP_0 OP_PUSHBYTES_20 7b53cf7599d0415fa30fb8efd30aa5dbfba0f918",
      "scriptpubkey_type": "v0_p2wpkh",
      "scriptpubkey_address": "bc1q0dfu7ave6pq4lgc0hrhaxz49m0a6p7gcc6xkne",
      "value": 4470568
    }
  ],
  "size": 223,
  "weight": 565,
  "fee": 3834,
  "status": {
    "confirmed": true,
    "block_height": 834638,
    "block_hash": "000000000000000000025f742c626208ac87e0b7d15054abb4a19ca2d735a54e",
    "block_time": 1710405325
  },
  "hex": "010000000001011a4b12fcc7fedb074681641f59f6f600142e6ed26414c1d018cf98f796ae145b0100000000ffffffff02f67a0c000000000017a91440cc16992daabce2025f98af8f9f2c1f820db9ad8728374400000000001600147b53cf7599d0415fa30fb8efd30aa5dbfba0f9180247304402205a665a0501bf55b3522d7285e567baa10b6da73c0bd2c9afdf6f45aaf40f149802204831b4225d43a6c05bd6ad874341d2c446bfefc04357ce8b11c3d10b41647c110121032b227e73adac95785fa52ae850fc96fea32250e8cc8ffafb8814c17371ee48d500000000"
}