{
  "txid": "a9447c68d4a3db76925058721bce734737952edc8d836a78603473b5b322e7df",
  "version": 2,
  "locktime": 0,
  "vin": [
    {
      "txid": "9008c80895976491b9cb22afc42388886d626f4e45d2e78ff01a7fde4460b4f0",
      "vout": 3,
      "prevout": {
        "scriptpubkey": "0014225a3a0b14091aff3aad517d792900a542edacb7",
        "scriptpubkey_asm": "OP_0 OP_PUSHBYTES_20 225a3a0b14091aff3aad517d792900a542edacb7",
        "scriptpubkey_type": "v0_p2wpkh",
        "scriptpubkey_address": "bc1qyfdr5zc5pyd07w4d297hj2gq54pwmt9hel9td8",
        "value": 104619
      },
      "scriptsig": "",
      "scriptsig_asm": "",
      "witness": [
        "304402205d26456ac59747d7b31da342dd80c959ce837cd87651863517a2b4b128b7fef80220795b3a1a003732dca07116682bb8d4f0178ce9e84215a256b63addc224e27fec01",
        "027c80389657410bfb5681744527c31289755858e48cdd22f30631bfa4a8b88c6c"
      ],
      "is_coinbase": false,
      "sequence": 2147483649
    },
    {
      "txid": "7766f6f8ab208d131b68cfe5414cf9e70ca5e5b0f7195fe9c1980f183ac0c198",
      "vout": 0,
      "prevout": {
        "scriptpubkey": "0014225a3a0b14091aff3aad517d792900a542edacb7",
        "scriptpubkey_asm": "OP_0 OP_PUSHBYTES_20 225a3a0b14091aff3aad517d792900a542edacb7",
        "scriptpubkey_type": "v0_p2wpkh",
        "scriptpubkey_address": "bc1qyfdr5zc5pyd07w4d297hj2gq54pwmt9hel9td8",
        "value": 547
      },
      "scriptsig": "",
      "scriptsig_asm": "",
      "witness": [
        "3044022015ab792c9b41f8166e9a4a6e70765bdaa4a73b636a366e7622aad8f4e4ac270802207a727a530021f7d8f7dfb7fc32e6ee5be69bc2223f0d2940090aa0b8bc05823f01",
        "027c80389657410bfb5681744527c31289755858e48cdd22f30631bfa4a8b88c6c"
      ],
      "is_coinbase": false,
      "sequence": 2147483649
    }
  ],
  "vout": [
    {
      "scriptpubkey": "0014ee7b96518dba749110b3c54b8340e42ebf7a51c3",
      "scriptpubkey_asm": "OP_0 OP_PUSHBYTES_20 ee7b96518dba749110b3c54b8340e42ebf7a51c3",
      "scriptpubkey_type": "v0_p2wpkh",
      "scriptpubkey_address": "bc1qaeaev5vdhf6fzy9nc49cxs8y96lh55wrpx9e8t",
      "value": 101449
    }
  ],
  "size": 339,
  "weight": 708,
  "fee": 3717,
  "status": {
    "confirmed": true,
    "block_height": 834464,
    "block_hash": "0000000000000000000177a0869a911a2b65c9bdcd5a8bcb02b68f305bee848e",
    "block_time": 1710308296
  },
  "hex": "02000000000102f0b46044de7f1af08fe7d2454e6f626d888823c4af22cbb99164979508c8089003000000000100008098c1c03a180f98c1e95f19f7b0e5a50ce7f94c41e5cf681b138d20abf8f6667700000000000100008001498c010000000000160014ee7b96518dba749110b3c54b8340e42ebf7a51c30247304402205d26456ac59747d7b31da342dd80c959ce837cd87651863517a2b4b128b7fef80220795b3a1a003732dca07116682bb8d4f0178ce9e84215a256b63addc224e27fec0121027c80389657410bfb5681744527c31289755858e48cdd22f30631bfa4a8b88c6c02473044022015ab792c9b41f8166e9a4a6e70765bdaa4a73b636a366e7622aad8f4e4ac270802207a727a530021f7d8f7dfb7fc32e6ee5be69bc2223f0d2940090aa0b8bc05823f0121027c80389657410bfb5681744527c31289755858e48cdd22f30631bfa4a8b88c6c00000000"
}