{
  "txid": "a946b5ce664ce74cbbee4f3bf3154449a830564a7faa7c648f04d897b0d17056",
  "version": 2,
  "locktime": 0,
  "vin": [
    {
      "txid": "acc3ba00869acb582a3f2904ce3a11dd3779350ce234063fc7d0959246213364",
      "vout": 273,
      "prevout": {
        "scriptpubkey": "512007c96eb53ceb1fd4f22a72d2b2c38decd8287309561237138f38ece62e7b3c27",
        "scriptpubkey_asm": "OP_PUSHNUM_1 OP_PUSHBYTES_32 07c96eb53ceb1fd4f22a72d2b2c38decd8287309561237138f38ece62e7b3c27",
        "scriptpubkey_type": "v1_p2tr",
        "scriptpubkey_address": "bc1pqlykadfuav0afu32wtft9sudanvzsucf2cfrwyu08rkwvtnm8snsjepuug",
        "value": 1806
      },
      "scriptsig": "",
      "scriptsig_asm": "",
      "witness": [
        "399adcfebbfc29dea02e41ba43164d473f39b56266e3c7214161b0217860db0dff882d6e0bb0aa598ee847147b1e3a2d1486daff1c9af8614c4404b9dc1cb87c",
        "204295e14a6ff445a12d4303307b23302e4499879a5389c311919a2d821fdf85a8ac0063036f726401010a746578742f706c61696e00357b2270223a226272632d3230222c226f70223a226d696e74222c227469636b223a22646f6765222c22616d74223a2234323030227d68",
        "c04295e14a6ff445a12d4303307b23302e4499879a5389c311919a2d821fdf85a8"
      ],
      "is_coinbase": false,
      "sequence": 4261412863
    }
  ],
  "vout": [
    {
      "scriptpubkey": "00147a665de7a370f4c9b372ab1fae587500a5bcbdb4",
      "scriptpubkey_asm": "OP_0 OP_PUSHBYTES_20 7a665de7a370f4c9b372ab1fae587500a5bcbdb4",
      "scriptpubkey_type": "v0_p2wpkh",
      "scriptpubkey_address": "bc1q0fn9mearwr6vnvmj4v06ukr4qzjme0d565dzcx",
      "value": 294
    }
  ],
  "size": 294,
  "weight": 540,
  "fee": 1512,
  "status": {
    "confirmed": true,
    "block_height": 834460,
    "block_hash": "00000000000000000000484a79b643b2524bbce82e5d8a442013fa5b8905ed98",
    "block_time": 1710307468
  },
  "hex": "02000000000101643321469295d0c73f0634e20c357937dd113ace04293f2a58cb9a8600bac3ac1101000000fffffffd0126010000000000001600147a665de7a370f4c9b372ab1fae587500a5bcbdb40340399adcfebbfc29dea02e41ba43164d473f39b56266e3c7214161b0217860db0dff882d6e0bb0aa598ee847147b1e3a2d1486daff1c9af8614c4404b9dc1cb87c6d204295e14a6ff445a12d4303307b23302e4499879a5389c311919a2d821fdf85a8ac0063036f726401010a746578742f706c61696e00357b2270223a226272632d3230222c226f70223a226d696e74222c227469636b223a22646f6765222c22616d74223a2234323030227d6821c04295e14a6ff445a12d4303307b23302e4499879a5389c311919a2d821fdf85a800000000"
}