{
  "txid": "a96b1e91e1d0553f3e19a3aab84a229816f06f9b9cd8270461d2b0cd18907850",
  "version": 2,
  "locktime": 0,
  "vin": [
    {
      "txid": "e452e7e3b6b4439af2ebe3e298c6cf870b3a03b5b7839f77b2f7a4ea0b7e371d",
      "vout": 1,
      "prevout": {
        "scriptpubkey": "00146797190011635d35efc7114ef2bb8de93300cef7",
        "scriptpubkey_asm": "OP_0 OP_PUSHBYTES_20 6797190011635d35efc7114ef2bb8de93300cef7",
        "scriptpubkey_type": "v0_p2wpkh",
        "scriptpubkey_address": "bc1qv7t3jqq3vdwntm78z9809wudayespnhhtz9xyp",
        "value": 19001
      },
      "scriptsig": "",
      "scriptsig_asm": "",
      "witness": [
        "3044022066a493f73adf5eeeee48d1b624a894ae5a586cb5c53fee6680c46c5efe4c78fd022013a45e923536f6391e0a8a68281b109749280c8ea40fb77e3d5ab3b8e5c7350501",
        "02bd5049737d66d1517acf1ad30bbfa2c5f0bcf0a6ed10a4f405bf052471a28886"
      ],
      "is_coinbase": false,
      "sequence": 4294967293
    }
  ],
  "vout": [
    {
      "scriptpubkey": "001454085e9aaddd232e88e57390111029e66989e531",
      "scriptpubkey_asm": "OP_0 OP_PUSHBYTES_20 54085e9aaddd232e88e57390111029e66989e531",
      "scriptpubkey_type": "v0_p2wpkh",
      "scriptpubkey_address": "bc1q2sy9ax4dm53jaz89wwgpzypfue5cnef3rldtas",
      "value": 13599
    }
  ],
  "size": 191,
  "weight": 437,
  "fee": 5402,
  "status": {
    "confirmed": true,
    "block_height": 834638,
    "block_hash": "000000000000000000025f742c626208ac87e0b7d15054abb4a19ca2d735a54e",
    "block_time": 1710405325
  },
  "hex": "020000000001011d377e0beaa4f7b2779f83b7b5033a0b87cfc698e2e3ebf29a43b4b6e3e752e40100000000fdffffff011f3500000000000016001454085e9aaddd232e88e57390111029e66989e53102473044022066a493f73adf5eeeee48d1b624a894ae5a586cb5c53fee6680c46c5efe4c78fd022013a45e923536f6391e0a8a68281b109749280c8ea40fb77e3d5ab3b8e5c73505012102bd5049737d66d1517acf1ad30bbfa2c5f0bcf0a6ed10a4f405bf052471a2888600000000"
}