{
  "txid": "a96ec364a114d00d1325e104066171490b2a068b9384f63628ca8e5c5b01e4e4",
  "version": 2,
  "locktime": 0,
  "vin": [
    {
      "txid": "2c24fb468d6c236514ca15620fa479f4023515f31943241db5458162e5ceae51",
      "vout": 1,
      "prevout": {
        "scriptpubkey": "5120f3b31a50a84a1baf60c2f9918f7abcc26fef4e06ae38ebeb54dc6984a8e3abef",
        "scriptpubkey_asm": "OP_PUSHNUM_1 OP_PUSHBYTES_32 f3b31a50a84a1baf60c2f9918f7abcc26fef4e06ae38ebeb54dc6984a8e3abef",
        "scriptpubkey_type": "v1_p2tr",
        "scriptpubkey_address": "bc1p7we3559gfgd67cxzlxgc774ucfh77nsx4cuwh665m35cf28r40hs2kgjnx",
        "value": 4195230
      },
      "scriptsig": "",
      "scriptsig_asm": "",
      "witness": [
        "6631173b6b9b2e657b8cd30f858ad52a5105be254238e98fcfced37c4e55f11961899cef12f8dfd35d2fcc86bcaef4c4cfe15f74b5bdfdad3b078f9e8f3ff58d",
        "2088225c0158a85208c9f0a93d3b724953f164a056121b81a87f88ab0a666cbff1ac0063036f726401010a746578742f706c61696e004c827b2270223a22746170222c226f70223a22646d742d6d696e74222c22646570223a22346439363761663336646361636437653631393963333962646138353564376231623337323638663463383033316665643534303361393961633537666536376930222c227469636b223a226e6174222c22626c6b223a22383334343634227d68",
        "c188225c0158a85208c9f0a93d3b724953f164a056121b81a87f88ab0a666cbff1"
      ],
      "is_coinbase": false,
      "sequence": 4261412863
    }
  ],
  "vout": [
    {
      "scriptpubkey": "0014cdc1cde2e417b586bd714f64afc3d7def41b6b15",
      "scriptpubkey_asm": "OP_0 OP_PUSHBYTES_20 cdc1cde2e417b586bd714f64afc3d7def41b6b15",
      "scriptpubkey_type": "v0_p2wpkh",
      "scriptpubkey_address": "bc1qehqumchyz76cd0t3faj2ls7hmm6pk6c45h4l9c",
      "value": 294
    },
    {
      "scriptpubkey": "5120229c1f06c0277afec65e35258290f96a0eb7196fe4cad042ceba4f06a369e9ef",
      "scriptpubkey_asm": "OP_PUSHNUM_1 OP_PUSHBYTES_32 229c1f06c0277afec65e35258290f96a0eb7196fe4cad042ceba4f06a369e9ef",
      "scriptpubkey_type": "v1_p2tr",
      "scriptpubkey_address": "bc1py2wp7pkqyaa0a3j7x5jc9y8edg8twxt0un9dqskwhf8sdgmfa8hsvqlxyc",
      "value": 4188006
    }
  ],
  "size": 415,
  "weight": 790,
  "fee": 6930,
  "status": {
    "confirmed": true,
    "block_height": 834464,
    "block_hash": "0000000000000000000177a0869a911a2b65c9bdcd5a8bcb02b68f305bee848e",
    "block_time": 1710308296
  },
  "hex": "0200000000010151aecee5628145b51d244319f3153502f479a40f6215ca1465236c8d46fb242c0100000000fffffffd022601000000000000160014cdc1cde2e417b586bd714f64afc3d7def41b6b1566e73f0000000000225120229c1f06c0277afec65e35258290f96a0eb7196fe4cad042ceba4f06a369e9ef03406631173b6b9b2e657b8cd30f858ad52a5105be254238e98fcfced37c4e55f11961899cef12f8dfd35d2fcc86bcaef4c4cfe15f74b5bdfdad3b078f9e8f3ff58dbb2088225c0158a85208c9f0a93d3b724953f164a056121b81a87f88ab0a666cbff1ac0063036f726401010a746578742f706c61696e004c827b2270223a22746170222c226f70223a22646d742d6d696e74222c22646570223a22346439363761663336646361636437653631393963333962646138353564376231623337323638663463383033316665643534303361393961633537666536376930222c227469636b223a226e6174222c22626c6b223a22383334343634227d6821c188225c0158a85208c9f0a93d3b724953f164a056121b81a87f88ab0a666cbff100000000"
}