{
  "txid": "a96e945b173ca8d829f92a2bf238e56e8dcbf3125a259055db5056addbf6271f",
  "version": 1,
  "locktime": 0,
  "vin": [
    {
      "txid": "143a77371c4caa9a86cca44fdc566ad59fd0ccdb2f8a1437ab0e41383a0a1d06",
      "vout": 0,
      "prevout": {
        "scriptpubkey": "5120a0a0c46de78aa614669bbb371ce63c79568e7326460f1b7819fb9b260dc76727",
        "scriptpubkey_asm": "OP_PUSHNUM_1 OP_PUSHBYTES_32 a0a0c46de78aa614669bbb371ce63c79568e7326460f1b7819fb9b260dc76727",
        "scriptpubkey_type": "v1_p2tr",
        "scriptpubkey_address": "bc1p5zsvgm0832npge5mhvm3ee3u09tguuexgc83k7qelwdjvrw8vunsuqhlnc",
        "value": 41896
      },
      "scriptsig": "",
      "scriptsig_asm": "",
      "witness": [
        "7b3dea0e1d3fb3d060855cb605d80fdf21b9856d5b51213a4c0ca525a642ffbe9d02a0485fb0f4ad60ba6aaf3b5f6131f703333c42a5de0f83bacde2c084e51301"
      ],
      "is_coinbase": false,
      "sequence": 4294967295
    },
    {
      "txid": "d95a266b3f978d59d8d850444c0a042768df1d042ac4a252f6832f488c122dc2",
      "vout": 0,
      "prevout": {
        "scriptpubkey": "51205902451bb3d075636dfa612edff693e8b51831d095adf098ee11ee9c0e21e67f",
        "scriptpubkey_asm": "OP_PUSHNUM_1 OP_PUSHBYTES_32 5902451bb3d075636dfa612edff693e8b51831d095adf098ee11ee9c0e21e67f",
        "scriptpubkey_type": "v1_p2tr",
        "scriptpubkey_address": "bc1ptypy2xan6p6kxm06vyhdla5naz63svwsjkklpx8wz8hfcr3puelsmp5erf",
        "value": 34164
      },
      "scriptsig": "",
      "scriptsig_asm": "",
      "witness": [
        "ecb4ef85e02a6c5e23a5beed5436e9e4f2d08a384bd8d1bd18dc44c5a68f34bdc9137742f68f2a20d9441e04440ba034c97cd3a465598029c377f92d0714485101"
      ],
      "is_coinbase": false,
      "sequence": 4294967295
    },
    {
      "txid": "7a046ea090b5732e7f2523eb5f0f252c431363e016b8f2e00a426fd1f7466d35",
      "vout": 1,
      "prevout": {
        "scriptpubkey": "0020304b0be7ffdc34b93b668d6ce9fd39ca633275772ad8abeb59da844ec86023e8",
        "scriptpubkey_asm": "OP_0 OP_PUSHBYTES_32 304b0be7ffdc34b93b668d6ce9fd39ca633275772ad8abeb59da844ec86023e8",
        "scriptpubkey_type": "v0_p2wsh",
        "scriptpubkey_address": "bc1qxp9shellms6tjwmx34kwnlfeef3nyath9tv2h66em2zyajrqy05qc2rma4",
        "value": 18745
      },
      "scriptsig": "",
      "scriptsig_asm": "",
      "witness": [
        "304402205fb8ae5b4fe63e232b76cf85059c488826068482f5351d9391919670f8e56dd4022013c8661ae87b680b359a4531c2c07ec4623fba2e0bc6609d289385ecb479d34b01",
        "3045022100d7e8d5b5c0a8f92c7d5ee361fdc7516dc8fb76fdf1ad96c8e18a8648e221993c02206498df3fc1621f50224451e4d6e7227fc867d79ac61bccc5f370d73ca8fd8d3101",
        "21036b4a67be9babefd7a7e585cb0252b439f50e5f491de33d7cbdd423ff87a302a67c21029c731d2c014b700ac57b042c25ffb41bc3495bd93eb6489eb0792bcd2ec858e2ac637c76a91450fc87ee11e505148dacc8d8ea02fedc6f67a5f8876375677cac686702f003b275ad76a914e32cb916e6146f23fc8cd20d838582247f8acefc88ac68"
      ],
      "is_coinbase": false,
      "sequence": 4294967295,
      "inner_witnessscript_asm": "OP_PUSHBYTES_33 036b4a67be9babefd7a7e585cb0252b439f50e5f491de33d7cbdd423ff87a302a6 OP_SWAP OP_PUSHBYTES_33 029c731d2c014b700ac57b042c25ffb41bc3495bd93eb6489eb0792bcd2ec858e2 OP_CHECKSIG OP_IF OP_SWAP OP_DUP OP_HASH160 OP_PUSHBYTES_20 50fc87ee11e505148dacc8d8ea02fedc6f67a5f8 OP_EQUAL OP_IF OP_DROP OP_ELSE OP_SWAP OP_CHECKSIG OP_ENDIF OP_ELSE OP_PUSHBYTES_2 f003 OP_CSV OP_DROP OP_CHECKSIGVERIFY OP_DUP OP_HASH160 OP_PUSHBYTES_20 e32cb916e6146f23fc8cd20d838582247f8acefc OP_EQUALVERIFY OP_CHECKSIG OP_ENDIF"
    },
    {
      "txid": "493f4b90f586b02fec590ee15c19b343c35d86a9252e3283503714ee11b2f48a",
      "vout": 0,
      "prevout": {
        "scriptpubkey": "5120390aeb26a5625f347cb948f712bdd88a153117565ecd687e8da19e61ede5f59a",
        "scriptpubkey_asm": "OP_PUSHNUM_1 OP_PUSHBYTES_32 390aeb26a5625f347cb948f712bdd88a153117565ecd687e8da19e61ede5f59a",
        "scriptpubkey_type": "v1_p2tr",
        "scriptpubkey_address": "bc1p8y9wkf49vf0ngl9efrm390wc3g2nz96ktmxksl5d5x0xrm097kdqc22f5l",
        "value": 6493
      },
      "scriptsig": "",
      "scriptsig_asm": "",
      "witness": [
        "c7d99ca69df439cca2db0eecf48b132aee23b4179917baa5aa710d11dc53ed7164fe676e76050112fbc026394f7ce1e37e36cbfe01f09cc7c42ad64a86ee748801"
      ],
      "is_coinbase": false,
      "sequence": 4294967295
    },
    {
      "txid": "7a046ea090b5732e7f2523eb5f0f252c431363e016b8f2e00a426fd1f7466d35",
      "vout": 0,
      "prevout": {
        "scriptpubkey": "51204f23082c5d340a558b5d6bcd2a3b9d32a67bd3180312c6471b449b323da586f7",
        "scriptpubkey_asm": "OP_PUSHNUM_1 OP_PUSHBYTES_32 4f23082c5d340a558b5d6bcd2a3b9d32a67bd3180312c6471b449b323da586f7",
        "scriptpubkey_type": "v1_p2tr",
        "scriptpubkey_address": "bc1pfu3sstzaxs99tz6ad0xj5wuax2n8h5ccqvfvv3cmgjdny0d9smmsg3hsup",
        "value": 4209
      },
      "scriptsig": "",
      "scriptsig_asm": "",
      "witness": [
        "5b1b43ac46c339a53bda1adf7aa755966d5b0feb941081718f3a63a1a6b585f734f3cc870e5acb7e51264a4192d6064e6584aec0efb34d4fdf6686fcb324afed01"
      ],
      "is_coinbase": false,
      "sequence": 4294967295
    },
    {
      "txid": "0e70029d699b79ded72d8e851010aa589cfdd3a527862ef5ce0dfafe0958ea32",
      "vout": 0,
      "prevout": {
        "scriptpubkey": "5120ef0b6375e5d479777db5914d941aeb238a767f5d7eb895cfcb35d45702e565b0",
        "scriptpubkey_asm": "OP_PUSHNUM_1 OP_PUSHBYTES_32 ef0b6375e5d479777db5914d941aeb238a767f5d7eb895cfcb35d45702e565b0",
        "scriptpubkey_type": "v1_p2tr",
        "scriptpubkey_address": "bc1pau9kxa0963uhwld4j9xegxhtyw98vl6a06uftn7txh29wqh9vkcqapxj3x",
        "value": 2500
      },
      "scriptsig": "",
      "scriptsig_asm": "",
      "witness": [
        "7b9043035931c0dbe5a0f3b9a8aa7d3876db40fc9af00f537220ba4824980babab17cc6cdfd3514f4d7917e3511f390c3c30efbf67c72fc0791d0489535f98bf01"
      ],
      "is_coinbase": false,
      "sequence": 4294967295
    }
  ],
  "vout": [
    {
      "scriptpubkey": "5120734263c575d615d32fbf67990ba6606e2de2fa612c4cfcdbe3db14db4c697b38",
      "scriptpubkey_asm": "OP_PUSHNUM_1 OP_PUSHBYTES_32 734263c575d615d32fbf67990ba6606e2de2fa612c4cfcdbe3db14db4c697b38",
      "scriptpubkey_type": "v1_p2tr",
      "scriptpubkey_address": "bc1pwdpx83t46c2axtalv7vshfnqdck797np93x0eklrmv2dknrf0vuq5ul2ef",
      "value": 2101
    },
    {
      "scriptpubkey": "0014f65716a4848b4b218a3ce91f32526f2a6040d712",
      "scriptpubkey_asm": "OP_0 OP_PUSHBYTES_20 f65716a4848b4b218a3ce91f32526f2a6040d712",
      "scriptpubkey_type": "v0_p2wpkh",
      "scriptpubkey_address": "bc1q7et3dfyy3d9jrz3uay0ny5n09fsyp4cjuxtxe4",
      "value": 100631
    }
  ],
  "size": 949,
  "weight": 1939,
  "fee": 5275,
  "status": {
    "confirmed": true,
    "block_height": 834464,
    "block_hash": "0000000000000000000177a0869a911a2b65c9bdcd5a8bcb02b68f305bee848e",
    "block_time": 1710308296
  },
  "hex": "01000000000106061d0a3a38410eab37148a2fdbccd09fd56a56dc4fa4cc869aaa4c1c37773a140000000000ffffffffc22d128c482f83f652a2c42a041ddf6827040a4c4450d8d8598d973f6b265ad90000000000ffffffff356d46f7d16f420ae0f2b816e06313432c250f5feb23257f2e73b590a06e047a0100000000ffffffff8af4b211ee14375083322e25a9865dc343b3195ce10e59ec2fb086f5904b3f490000000000ffffffff356d46f7d16f420ae0f2b816e06313432c250f5feb23257f2e73b590a06e047a0000000000ffffffff32ea5809fefa0dcef52e8627a5d3fd9c58aa1010858e2dd7de799b699d02700e0000000000ffffffff023508000000000000225120734263c575d615d32fbf67990ba6606e2de2fa612c4cfcdbe3db14db4c697b381789010000000000160014f65716a4848b4b218a3ce91f32526f2a6040d71201417b3dea0e1d3fb3d060855cb605d80fdf21b9856d5b51213a4c0ca525a642ffbe9d02a0485fb0f4ad60ba6aaf3b5f6131f703333c42a5de0f83bacde2c084e513010141ecb4ef85e02a6c5e23a5beed5436e9e4f2d08a384bd8d1bd18dc44c5a68f34bdc9137742f68f2a20d9441e04440ba034c97cd3a465598029c377f92d07144851010347304402205fb8ae5b4fe63e232b76cf85059c488826068482f5351d9391919670f8e56dd4022013c8661ae87b680b359a4531c2c07ec4623fba2e0bc6609d289385ecb479d34b01483045022100d7e8d5b5c0a8f92c7d5ee361fdc7516dc8fb76fdf1ad96c8e18a8648e221993c02206498df3fc1621f50224451e4d6e7227fc867d79ac61bccc5f370d73ca8fd8d31018721036b4a67be9babefd7a7e585cb0252b439f50e5f491de33d7cbdd423ff87a302a67c21029c731d2c014b700ac57b042c25ffb41bc3495bd93eb6489eb0792bcd2ec858e2ac637c76a91450fc87ee11e505148dacc8d8ea02fedc6f67a5f8876375677cac686702f003b275ad76a914e32cb916e6146f23fc8cd20d838582247f8acefc88ac680141c7d99ca69df439cca2db0eecf48b132aee23b4179917baa5aa710d11dc53ed7164fe676e76050112fbc026394f7ce1e37e36cbfe01f09cc7c42ad64a86ee74880101415b1b43ac46c339a53bda1adf7aa755966d5b0feb941081718f3a63a1a6b585f734f3cc870e5acb7e51264a4192d6064e6584aec0efb34d4fdf6686fcb324afed0101417b9043035931c0dbe5a0f3b9a8aa7d3876db40fc9af00f537220ba4824980babab17cc6cdfd3514f4d7917e3511f390c3c30efbf67c72fc0791d0489535f98bf0100000000"
}