{
  "txid": "a9878880b62fa1c6f86db005d1b1f0d1615edc57231952adcaec28210274d336",
  "version": 2,
  "locktime": 0,
  "vin": [
    {
      "txid": "df140e0065e6aefe686db8e3a665fca39bb1982dca514e720d38b59b6ea48417",
      "vout": 0,
      "prevout": {
        "scriptpubkey": "001471d063727f948e64ef6cd10f6eef741665a40a6b",
        "scriptpubkey_asm": "OP_0 OP_PUSHBYTES_20 71d063727f948e64ef6cd10f6eef741665a40a6b",
        "scriptpubkey_type": "v0_p2wpkh",
        "scriptpubkey_address": "bc1qw8gxxunljj8xfmmv6y8kamm5zej6gzntff8e3s",
        "value": 276307
      },
      "scriptsig": "",
      "scriptsig_asm": "",
      "witness": [
        "3045022100f7e0632e36092312e35e853ff5cfa32c7731d1d33a6876285d2e23a6c0320f5c02200ad6f7416ea0bcc72ceaffa4ac68d67970a9988c1b8c99ee561e02127e97ca3301",
        "02a031bae47edcf9e524c1ab086beba083468f762c10c745c1a04e744f3abc4d0f"
      ],
      "is_coinbase": false,
      "sequence": 4294967293
    }
  ],
  "vout": [
    {
      "scriptpubkey": "76a914c717d1dacd927e27605e4a3677945834c2d6bd3288ac",
      "scriptpubkey_asm": "OP_DUP OP_HASH160 OP_PUSHBYTES_20 c717d1dacd927e27605e4a3677945834c2d6bd32 OP_EQUALVERIFY OP_CHECKSIG",
      "scriptpubkey_type": "p2pkh",
      "scriptpubkey_address": "1K9i1CYvaps2Q9taPs2JHq4FepRAAjjGVX",
      "value": 40815
    },
    {
      "scriptpubkey": "001471d063727f948e64ef6cd10f6eef741665a40a6b",
      "scriptpubkey_asm": "OP_0 OP_PUSHBYTES_20 71d063727f948e64ef6cd10f6eef741665a40a6b",
      "scriptpubkey_type": "v0_p2wpkh",
      "scriptpubkey_address": "bc1qw8gxxunljj8xfmmv6y8kamm5zej6gzntff8e3s",
      "value": 232921
    }
  ],
  "size": 226,
  "weight": 574,
  "fee": 2571,
  "status": {
    "confirmed": true,
    "block_height": 834638,
    "block_hash": "000000000000000000025f742c626208ac87e0b7d15054abb4a19ca2d735a54e",
    "block_time": 1710405325
  },
  "hex": "020000000001011784a46e9bb5380d724e51ca2d98b19ba3fc65a6e3b86d68feaee665000e14df0000000000fdffffff026f9f0000000000001976a914c717d1dacd927e27605e4a3677945834c2d6bd3288acd98d03000000000016001471d063727f948e64ef6cd10f6eef741665a40a6b02483045022100f7e0632e36092312e35e853ff5cfa32c7731d1d33a6876285d2e23a6c0320f5c02200ad6f7416ea0bcc72ceaffa4ac68d67970a9988c1b8c99ee561e02127e97ca33012102a031bae47edcf9e524c1ab086beba083468f762c10c745c1a04e744f3abc4d0f00000000"
}