{
  "txid": "a992d481f7a931e961dd4051399a7982ee93b80313ba52adda62e5cc4e26a324",
  "version": 2,
  "locktime": 0,
  "vin": [
    {
      "txid": "62e32f7a997843351cb1d9df6a1943fbbc90985898286721cff082cfecd4c808",
      "vout": 46,
      "prevout": {
        "scriptpubkey": "0014b38e27f72d0bff50b40b8edf4db93e9ce648d0d4",
        "scriptpubkey_asm": "OP_0 OP_PUSHBYTES_20 b38e27f72d0bff50b40b8edf4db93e9ce648d0d4",
        "scriptpubkey_type": "v0_p2wpkh",
        "scriptpubkey_address": "bc1qkw8z0aedp0l4pdqt3m05mwf7nnny35x5llaqaj",
        "value": 87655
      },
      "scriptsig": "",
      "scriptsig_asm": "",
      "witness": [
        "304402207950b07a5388f74ac5c11fa01bcf9e963d248b6debf853819a8173de026f20f102203ec234abc3b6a7157b5e2529f23afca2523ee9a1079bb0a9dc292e8d1dee947701",
        "035ed22264cdc2705df333940fbe356ef14b5bd51cf14d1401fb91c0b5d61d8a7e"
      ],
      "is_coinbase": false,
      "sequence": 4294967293
    }
  ],
  "vout": [
    {
      "scriptpubkey": "0014b38e27f72d0bff50b40b8edf4db93e9ce648d0d4",
      "scriptpubkey_asm": "OP_0 OP_PUSHBYTES_20 b38e27f72d0bff50b40b8edf4db93e9ce648d0d4",
      "scriptpubkey_type": "v0_p2wpkh",
      "scriptpubkey_address": "bc1qkw8z0aedp0l4pdqt3m05mwf7nnny35x5llaqaj",
      "value": 11331
    },
    {
      "scriptpubkey": "001425c190ec26414723bfa56514239ae9a7ccc514cc",
      "scriptpubkey_asm": "OP_0 OP_PUSHBYTES_20 25c190ec26414723bfa56514239ae9a7ccc514cc",
      "scriptpubkey_type": "v0_p2wpkh",
      "scriptpubkey_address": "bc1qyhqepmpxg9rj80a9v52z8xhf5lxv29xvwvf5e8",
      "value": 74794
    }
  ],
  "size": 222,
  "weight": 561,
  "fee": 1530,
  "status": {
    "confirmed": true,
    "block_height": 834464,
    "block_hash": "0000000000000000000177a0869a911a2b65c9bdcd5a8bcb02b68f305bee848e",
    "block_time": 1710308296
  },
  "hex": "0200000000010108c8d4eccf82f0cf21672898589890bcfb43196adfd9b11c354378997a2fe3622e00000000fdffffff02432c000000000000160014b38e27f72d0bff50b40b8edf4db93e9ce648d0d42a2401000000000016001425c190ec26414723bfa56514239ae9a7ccc514cc0247304402207950b07a5388f74ac5c11fa01bcf9e963d248b6debf853819a8173de026f20f102203ec234abc3b6a7157b5e2529f23afca2523ee9a1079bb0a9dc292e8d1dee94770121035ed22264cdc2705df333940fbe356ef14b5bd51cf14d1401fb91c0b5d61d8a7e00000000"
}