{
  "txid": "a9a0eebace661d6a589f9393950c4d59e819a975b06b6243cd7d024c92a9177c",
  "version": 2,
  "locktime": 0,
  "vin": [
    {
      "txid": "c282013fbfcca6c61a5a17dbf2dbf01977bc032c951f09ba83ba840a9526096a",
      "vout": 1,
      "prevout": {
        "scriptpubkey": "0014cc3f0527f81b88427933b60a2b14b5bda987662e",
        "scriptpubkey_asm": "OP_0 OP_PUSHBYTES_20 cc3f0527f81b88427933b60a2b14b5bda987662e",
        "scriptpubkey_type": "v0_p2wpkh",
        "scriptpubkey_address": "bc1qesls2flcrwyyy7fnkc9zk994hk5cwe3wj9xqwr",
        "value": 18998465
      },
      "scriptsig": "",
      "scriptsig_asm": "",
      "witness": [
        "3044022071fc4cee205b3dfb5923989e64b7a265443283a0caf26282747d774e1d90ee8502206020ee277a8cd76549e28dcab860b99ee48bec01a06ce6797ae1538cd80fdbb401",
        "032b65aabffdf7dd6e453284ff6f9fb5840c981796d46eb53f8b495543b8af3bc7"
      ],
      "is_coinbase": false,
      "sequence": 0
    }
  ],
  "vout": [
    {
      "scriptpubkey": "a91443cf64a90fad571e3fe98f9777b707be4eec8db287",
      "scriptpubkey_asm": "OP_HASH160 OP_PUSHBYTES_20 43cf64a90fad571e3fe98f9777b707be4eec8db2 OP_EQUAL",
      "scriptpubkey_type": "p2sh",
      "scriptpubkey_address": "37sZeL2bD1GBbt1XkaESZHBWiUC726TQBo",
      "value": 100000
    },
    {
      "scriptpubkey": "0014bbd675990f3b40ab639bb10edd2edc2419fe5b59",
      "scriptpubkey_asm": "OP_0 OP_PUSHBYTES_20 bbd675990f3b40ab639bb10edd2edc2419fe5b59",
      "scriptpubkey_type": "v0_p2wpkh",
      "scriptpubkey_address": "bc1qh0t8txg08dq2kcumky8d6tkuysvluk6evgnfp8",
      "value": 18895918
    }
  ],
  "size": 223,
  "weight": 565,
  "fee": 2547,
  "status": {
    "confirmed": true,
    "block_height": 834638,
    "block_hash": "000000000000000000025f742c626208ac87e0b7d15054abb4a19ca2d735a54e",
    "block_time": 1710405325
  },
  "hex": "020000000001016a0926950a84ba83ba091f952c03bc7719f0dbf2db175a1ac6a6ccbf3f0182c201000000000000000002a08601000000000017a91443cf64a90fad571e3fe98f9777b707be4eec8db2872e54200100000000160014bbd675990f3b40ab639bb10edd2edc2419fe5b5902473044022071fc4cee205b3dfb5923989e64b7a265443283a0caf26282747d774e1d90ee8502206020ee277a8cd76549e28dcab860b99ee48bec01a06ce6797ae1538cd80fdbb40121032b65aabffdf7dd6e453284ff6f9fb5840c981796d46eb53f8b495543b8af3bc700000000"
}