{
  "txid": "a9ae552adfaa6b2975b43bce7724453e499ae6e76a76bf8eb8dd0d7273c8d757",
  "version": 2,
  "locktime": 0,
  "vin": [
    {
      "txid": "b13bb5512a4904c28a6b7957b88edf574e8cb23551fc1dcfe22d6b239df42cf4",
      "vout": 64,
      "prevout": {
        "scriptpubkey": "512063808c1e3f13763c7cb3f591d2e3fa8ca7b5d23d1b424b59730a380ab465c285",
        "scriptpubkey_asm": "OP_PUSHNUM_1 OP_PUSHBYTES_32 63808c1e3f13763c7cb3f591d2e3fa8ca7b5d23d1b424b59730a380ab465c285",
        "scriptpubkey_type": "v1_p2tr",
        "scriptpubkey_address": "bc1pvwqgc83lzdmrcl9n7kga9cl63jnmt53ardpykktnpguq4dr9c2zsddzjv6",
        "value": 2575
      },
      "scriptsig": "",
      "scriptsig_asm": "",
      "witness": [
        "db027ce58e5509decb9c221774cb6a73101eeddbb5fb7ab1624282f905bf9085a0f10f9e43c986bb94d511f8b8a908dcdd487bf08ad320c743972f52ee304a69",
        "20e4c2fd429e779380cc142cd928c185fb84b7c458da4a4d7ffea97c5279ca4ae3ac0063036f726401010a746578742f706c61696e00367b2270223a226272632d3230222c226f70223a226d696e74222c227469636b223a2261616161222c22616d74223a223130303030227d68",
        "c0e4c2fd429e779380cc142cd928c185fb84b7c458da4a4d7ffea97c5279ca4ae3"
      ],
      "is_coinbase": false,
      "sequence": 4261412863
    }
  ],
  "vout": [
    {
      "scriptpubkey": "0014ce0b5aa0dac72397a8aa5a85d90a2cfb46f0f630",
      "scriptpubkey_asm": "OP_0 OP_PUSHBYTES_20 ce0b5aa0dac72397a8aa5a85d90a2cfb46f0f630",
      "scriptpubkey_type": "v0_p2wpkh",
      "scriptpubkey_address": "bc1qec944gx6cu3e0292t2zajz3vldr0pa3sh356d9",
      "value": 546
    }
  ],
  "size": 295,
  "weight": 541,
  "fee": 2029,
  "status": {
    "confirmed": true,
    "block_height": 834464,
    "block_hash": "0000000000000000000177a0869a911a2b65c9bdcd5a8bcb02b68f305bee848e",
    "block_time": 1710308296
  },
  "hex": "02000000000101f42cf49d236b2de2cf1dfc5135b28c4e57df8eb857796b8ac204492a51b53bb14000000000fffffffd012202000000000000160014ce0b5aa0dac72397a8aa5a85d90a2cfb46f0f6300340db027ce58e5509decb9c221774cb6a73101eeddbb5fb7ab1624282f905bf9085a0f10f9e43c986bb94d511f8b8a908dcdd487bf08ad320c743972f52ee304a696e20e4c2fd429e779380cc142cd928c185fb84b7c458da4a4d7ffea97c5279ca4ae3ac0063036f726401010a746578742f706c61696e00367b2270223a226272632d3230222c226f70223a226d696e74222c227469636b223a2261616161222c22616d74223a223130303030227d6821c0e4c2fd429e779380cc142cd928c185fb84b7c458da4a4d7ffea97c5279ca4ae300000000"
}