{
  "txid": "a9b291759ccc9dfe70af766569141c00ea4c9d8a74a4527ccd073fc5c3739645",
  "version": 1,
  "locktime": 0,
  "vin": [
    {
      "txid": "289570bdf9726598b96df72bb3eb1a0335741a25070122fd7503ca7e4df04dc2",
      "vout": 1,
      "prevout": {
        "scriptpubkey": "001492de3bcf97b8b993d1282435031f3d060f11a9df",
        "scriptpubkey_asm": "OP_0 OP_PUSHBYTES_20 92de3bcf97b8b993d1282435031f3d060f11a9df",
        "scriptpubkey_type": "v0_p2wpkh",
        "scriptpubkey_address": "bc1qjt0rhnuhhzue85fgys6sx8eaqc83r2wlhvdwkg",
        "value": 140942
      },
      "scriptsig": "",
      "scriptsig_asm": "",
      "witness": [
        "30440220176e3cc161ca268cf303d0b3b7e9cf2f3997a0267e3d32f66b2a9d9e21fe6f5e02207f7646f7868bfc00e48e8a4c62809a745e8d10c13ffb838a40ae80a551f203f201",
        "031be1c569b4632c6cf018ad1d389c450ca341d223af500ad6d16de8256a5ecb6b"
      ],
      "is_coinbase": false,
      "sequence": 4294967295
    },
    {
      "txid": "f9f7694f7def31b7243088a28d881f1c74cb0617571d3f32a5460a1b5f4eaa17",
      "vout": 1,
      "prevout": {
        "scriptpubkey": "001492de3bcf97b8b993d1282435031f3d060f11a9df",
        "scriptpubkey_asm": "OP_0 OP_PUSHBYTES_20 92de3bcf97b8b993d1282435031f3d060f11a9df",
        "scriptpubkey_type": "v0_p2wpkh",
        "scriptpubkey_address": "bc1qjt0rhnuhhzue85fgys6sx8eaqc83r2wlhvdwkg",
        "value": 1524110
      },
      "scriptsig": "",
      "scriptsig_asm": "",
      "witness": [
        "3044022020953a97deb4d405500cb4f506f7b21a1b1f5e98f6f82c6d9941faf3f18563c702202d1350dd2d591106d203ebc87ae109e5c7833f23a7be4ecc917f7b157280e00f01",
        "031be1c569b4632c6cf018ad1d389c450ca341d223af500ad6d16de8256a5ecb6b"
      ],
      "is_coinbase": false,
      "sequence": 4294967295
    }
  ],
  "vout": [
    {
      "scriptpubkey": "a914dd424227aaf612c7cf44618c25c08231b4f0143d87",
      "scriptpubkey_asm": "OP_HASH160 OP_PUSHBYTES_20 dd424227aaf612c7cf44618c25c08231b4f0143d OP_EQUAL",
      "scriptpubkey_type": "p2sh",
      "scriptpubkey_address": "3MrvdespA5J6kykP18auzxjs5TcQp3qCg4",
      "value": 1600000
    },
    {
      "scriptpubkey": "001492de3bcf97b8b993d1282435031f3d060f11a9df",
      "scriptpubkey_asm": "OP_0 OP_PUSHBYTES_20 92de3bcf97b8b993d1282435031f3d060f11a9df",
      "scriptpubkey_type": "v0_p2wpkh",
      "scriptpubkey_address": "bc1qjt0rhnuhhzue85fgys6sx8eaqc83r2wlhvdwkg",
      "value": 59382
    }
  ],
  "size": 371,
  "weight": 836,
  "fee": 5670,
  "status": {
    "confirmed": true,
    "block_height": 834638,
    "block_hash": "000000000000000000025f742c626208ac87e0b7d15054abb4a19ca2d735a54e",
    "block_time": 1710405325
  },
  "hex": "01000000000102c24df04d7eca0375fd220107251a7435031aebb32bf76db9986572f9bd7095280100000000ffffffff17aa4e5f1b0a46a5323f1d571706cb741c1f888da2883024b731ef7d4f69f7f90100000000ffffffff02006a18000000000017a914dd424227aaf612c7cf44618c25c08231b4f0143d87f6e700000000000016001492de3bcf97b8b993d1282435031f3d060f11a9df024730440220176e3cc161ca268cf303d0b3b7e9cf2f3997a0267e3d32f66b2a9d9e21fe6f5e02207f7646f7868bfc00e48e8a4c62809a745e8d10c13ffb838a40ae80a551f203f20121031be1c569b4632c6cf018ad1d389c450ca341d223af500ad6d16de8256a5ecb6b02473044022020953a97deb4d405500cb4f506f7b21a1b1f5e98f6f82c6d9941faf3f18563c702202d1350dd2d591106d203ebc87ae109e5c7833f23a7be4ecc917f7b157280e00f0121031be1c569b4632c6cf018ad1d389c450ca341d223af500ad6d16de8256a5ecb6b00000000"
}