{
  "txid": "a9b7552649c39dfb83b9acab7d7cc8529e8b0438b7919e9a9360de28a64c5f02",
  "version": 2,
  "locktime": 834431,
  "vin": [
    {
      "txid": "a5975c6163fc968928f7ea23425933b62550a0661306779464313362094ab179",
      "vout": 1,
      "prevout": {
        "scriptpubkey": "0014d67b10781c00fda06beaa187af73229517f4cd28",
        "scriptpubkey_asm": "OP_0 OP_PUSHBYTES_20 d67b10781c00fda06beaa187af73229517f4cd28",
        "scriptpubkey_type": "v0_p2wpkh",
        "scriptpubkey_address": "bc1q6ea3q7quqr76q6l25xr67uezj5tlfnfg5dcayx",
        "value": 1955559
      },
      "scriptsig": "",
      "scriptsig_asm": "",
      "witness": [
        "304402202ffe974d95250c421d834992cdea3fbe0925ccbc2cdd474adb73a93dbc5221fa02200de91eb104d6b657f5d1768ef5829f55239a64ff3c9cfb9692b88f175ec2de6901",
        "03142419c9fc47571cb47ed34ec10e127bafc627a3d120ce33bf3b8e1aa3a14fcf"
      ],
      "is_coinbase": false,
      "sequence": 4294967293
    },
    {
      "txid": "07d94cdc2da4f04cabe5eda0197b7371599dc4fec2be2033f89ffd4ce38ec8c6",
      "vout": 0,
      "prevout": {
        "scriptpubkey": "002016afb4c775270b308fb40d79191e3922661551cd14557f9d1f0bfa6c7a4dcab8",
        "scriptpubkey_asm": "OP_0 OP_PUSHBYTES_32 16afb4c775270b308fb40d79191e3922661551cd14557f9d1f0bfa6c7a4dcab8",
        "scriptpubkey_type": "v0_p2wsh",
        "scriptpubkey_address": "bc1qz6hmf3m4yu9npra5p4u3j83eyfnp25wdz32hl8glp0axc7jde2uqzw8cks",
        "value": 270029
      },
      "scriptsig": "",
      "scriptsig_asm": "",
      "witness": [
        "3045022100c0912e7936d5aa57f039e2df3ee581ccf8cce0809c508fe5c87b720bd28edccd0220646d2cbe4a5d4bd815357ab934aaee4929aa433a3db5fde562418953c7edf02e01",
        "3045022100c25b634a34e2b76825a8a634f4e74d47f5904ca837ba2bd4908968771e7d27ee02202e2b946f4b93c79650deb245d1004380df252736d9c0adc6a53da976216ab8f301",
        "210229363070f4c16db2f225de2f3402f0f33d44c38909218abcb4cbb49b1ace036fad21037a91cb6e73ade2197fdf58b75e0e01b14cd297893f1a601f4a277fb6dcbf6414ac7364024065b268"
      ],
      "is_coinbase": false,
      "sequence": 4294967293,
      "inner_witnessscript_asm": "OP_PUSHBYTES_33 0229363070f4c16db2f225de2f3402f0f33d44c38909218abcb4cbb49b1ace036f OP_CHECKSIGVERIFY OP_PUSHBYTES_33 037a91cb6e73ade2197fdf58b75e0e01b14cd297893f1a601f4a277fb6dcbf6414 OP_CHECKSIG OP_IFDUP OP_NOTIF OP_PUSHBYTES_2 4065 OP_CSV OP_ENDIF"
    }
  ],
  "vout": [
    {
      "scriptpubkey": "00143b821fecac837bd5e3773a6568eb301ccfafe3e1",
      "scriptpubkey_asm": "OP_0 OP_PUSHBYTES_20 3b821fecac837bd5e3773a6568eb301ccfafe3e1",
      "scriptpubkey_type": "v0_p2wpkh",
      "scriptpubkey_address": "bc1q8wpplm9vsdaatcmh8fjk36esrn86lclp60dlnx",
      "value": 1664444
    },
    {
      "scriptpubkey": "0020ccb4d32d83a9ed92b7caa85077d14a4e9b4cbdb6a0bddd6c5b4fe9dc74d3d2e7",
      "scriptpubkey_asm": "OP_0 OP_PUSHBYTES_32 ccb4d32d83a9ed92b7caa85077d14a4e9b4cbdb6a0bddd6c5b4fe9dc74d3d2e7",
      "scriptpubkey_type": "v0_p2wsh",
      "scriptpubkey_address": "bc1qej6dxtvr48ke9d724pg80522f6d5e0dk5z7a6mzmfl5acaxn6tnsgpfr4k",
      "value": 557881
    }
  ],
  "size": 500,
  "weight": 998,
  "fee": 3263,
  "status": {
    "confirmed": true,
    "block_height": 834464,
    "block_hash": "0000000000000000000177a0869a911a2b65c9bdcd5a8bcb02b68f305bee848e",
    "block_time": 1710308296
  },
  "hex": "0200000000010279b14a09623331649477061366a05025b633594223eaf7288996fc63615c97a50100000000fdffffffc6c88ee34cfd9ff83320bec2fec49d5971737b19a0ede5ab4cf0a42ddc4cd9070000000000fdffffff02bc651900000000001600143b821fecac837bd5e3773a6568eb301ccfafe3e13983080000000000220020ccb4d32d83a9ed92b7caa85077d14a4e9b4cbdb6a0bddd6c5b4fe9dc74d3d2e70247304402202ffe974d95250c421d834992cdea3fbe0925ccbc2cdd474adb73a93dbc5221fa02200de91eb104d6b657f5d1768ef5829f55239a64ff3c9cfb9692b88f175ec2de69012103142419c9fc47571cb47ed34ec10e127bafc627a3d120ce33bf3b8e1aa3a14fcf03483045022100c0912e7936d5aa57f039e2df3ee581ccf8cce0809c508fe5c87b720bd28edccd0220646d2cbe4a5d4bd815357ab934aaee4929aa433a3db5fde562418953c7edf02e01483045022100c25b634a34e2b76825a8a634f4e74d47f5904ca837ba2bd4908968771e7d27ee02202e2b946f4b93c79650deb245d1004380df252736d9c0adc6a53da976216ab8f3014d210229363070f4c16db2f225de2f3402f0f33d44c38909218abcb4cbb49b1ace036fad21037a91cb6e73ade2197fdf58b75e0e01b14cd297893f1a601f4a277fb6dcbf6414ac7364024065b2687fbb0c00"
}