{
  "txid": "a9bea7cb3138b05d4b45c906256e47ff208d9fa61af82007dc805982ba5549dd",
  "version": 2,
  "locktime": 0,
  "vin": [
    {
      "txid": "6a391ee1d9318fbe93b7539030698146afadce8803ccc3b8b5572ccec7026b2f",
      "vout": 1,
      "prevout": {
        "scriptpubkey": "5120a1b67b0df1be190cc9dfe5fcc3a0c790ff042fb81cc849f2a80b311b0673b001",
        "scriptpubkey_asm": "OP_PUSHNUM_1 OP_PUSHBYTES_32 a1b67b0df1be190cc9dfe5fcc3a0c790ff042fb81cc849f2a80b311b0673b001",
        "scriptpubkey_type": "v1_p2tr",
        "scriptpubkey_address": "bc1p5xm8kr03hcvsejwluh7v8gx8jrlsgtacrnyynu4gpvc3kpnnkqqsml4cdf",
        "value": 118059
      },
      "scriptsig": "",
      "scriptsig_asm": "",
      "witness": [
        "1f9d6d542f57e9693e5a90abb6c049dbe8534ed2533805db388962d4566316ad7068683767a71970ed57556cba4d907a49ab8ca544c9b182c009fc3627d28355"
      ],
      "is_coinbase": false,
      "sequence": 4294967295
    }
  ],
  "vout": [
    {
      "scriptpubkey": "512009388741768f94d811898a4a5b2aaaa9d3b57e4e2d7e5d10e9667af210fb3a6b",
      "scriptpubkey_asm": "OP_PUSHNUM_1 OP_PUSHBYTES_32 09388741768f94d811898a4a5b2aaaa9d3b57e4e2d7e5d10e9667af210fb3a6b",
      "scriptpubkey_type": "v1_p2tr",
      "scriptpubkey_address": "bc1ppyugwstk372dsyvf3f99k24248fm2ljw94l96y8fvea0yy8m8f4srnynen",
      "value": 4000
    },
    {
      "scriptpubkey": "5120a1b67b0df1be190cc9dfe5fcc3a0c790ff042fb81cc849f2a80b311b0673b001",
      "scriptpubkey_asm": "OP_PUSHNUM_1 OP_PUSHBYTES_32 a1b67b0df1be190cc9dfe5fcc3a0c790ff042fb81cc849f2a80b311b0673b001",
      "scriptpubkey_type": "v1_p2tr",
      "scriptpubkey_address": "bc1p5xm8kr03hcvsejwluh7v8gx8jrlsgtacrnyynu4gpvc3kpnnkqqsml4cdf",
      "value": 111903
    }
  ],
  "size": 205,
  "weight": 616,
  "fee": 2156,
  "status": {
    "confirmed": true,
    "block_height": 834464,
    "block_hash": "0000000000000000000177a0869a911a2b65c9bdcd5a8bcb02b68f305bee848e",
    "block_time": 1710308296
  },
  "hex": "020000000001012f6b02c7ce2c57b5b8c3cc0388ceadaf468169309053b793be8f31d9e11e396a0100000000ffffffff02a00f00000000000022512009388741768f94d811898a4a5b2aaaa9d3b57e4e2d7e5d10e9667af210fb3a6b1fb5010000000000225120a1b67b0df1be190cc9dfe5fcc3a0c790ff042fb81cc849f2a80b311b0673b00101401f9d6d542f57e9693e5a90abb6c049dbe8534ed2533805db388962d4566316ad7068683767a71970ed57556cba4d907a49ab8ca544c9b182c009fc3627d2835500000000"
}