{
  "txid": "a9c381ab918c40680100ee69e73cd6eb69bf7904ca242b2f2ee9b9715312c3d5",
  "version": 2,
  "locktime": 0,
  "vin": [
    {
      "txid": "a664af53be46db53cbcd5ca312084976611fbc94737d25635fa04d6627324adf",
      "vout": 0,
      "prevout": {
        "scriptpubkey": "00142ea69cf906410496bcbf50077dedf0bc179d3dc1",
        "scriptpubkey_asm": "OP_0 OP_PUSHBYTES_20 2ea69cf906410496bcbf50077dedf0bc179d3dc1",
        "scriptpubkey_type": "v0_p2wpkh",
        "scriptpubkey_address": "bc1q96nfe7gxgyzfd09l2qrhmm0shste60wphhxt7d",
        "value": 294
      },
      "scriptsig": "",
      "scriptsig_asm": "",
      "witness": [
        "3045022100ba7f96deaf23a8399f3679500690444b41d93f0650c47c1e8d3455ae7b95e01102206dda6b1acfd77a08592c2bfa5dbdc05ac0efcadf9fea625998b4ae674d6641f901",
        "02f0f2027a1caa259a38233ba390d2773bb3da226cebe602e6f3004e9a7532e95d"
      ],
      "is_coinbase": false,
      "sequence": 4294967295
    },
    {
      "txid": "5f447c93685f77d4df9a5c83f7938493853f24824b8b123d00a246087d0053e4",
      "vout": 1,
      "prevout": {
        "scriptpubkey": "00142ea69cf906410496bcbf50077dedf0bc179d3dc1",
        "scriptpubkey_asm": "OP_0 OP_PUSHBYTES_20 2ea69cf906410496bcbf50077dedf0bc179d3dc1",
        "scriptpubkey_type": "v0_p2wpkh",
        "scriptpubkey_address": "bc1q96nfe7gxgyzfd09l2qrhmm0shste60wphhxt7d",
        "value": 33468
      },
      "scriptsig": "",
      "scriptsig_asm": "",
      "witness": [
        "3045022100b6c5f5a70369a8e4b44cb2f31dbc48744193ead9987f3f40a7c7d8dc17a9ee59022054ff5f5d24be0554358c9b8758c02fcbd7b9aaf116b6f85dfd3a9d0ddc7d5e4101",
        "02f0f2027a1caa259a38233ba390d2773bb3da226cebe602e6f3004e9a7532e95d"
      ],
      "is_coinbase": false,
      "sequence": 4294967295
    }
  ],
  "vout": [
    {
      "scriptpubkey": "76a914a73959878e98bd2f8e12080c0d8637b382a8d74d88ac",
      "scriptpubkey_asm": "OP_DUP OP_HASH160 OP_PUSHBYTES_20 a73959878e98bd2f8e12080c0d8637b382a8d74d OP_EQUALVERIFY OP_CHECKSIG",
      "scriptpubkey_type": "p2pkh",
      "scriptpubkey_address": "1GFCYmLUDrexbTnVunoEecTKkr2r47HCYd",
      "value": 546
    },
    {
      "scriptpubkey": "00142ea69cf906410496bcbf50077dedf0bc179d3dc1",
      "scriptpubkey_asm": "OP_0 OP_PUSHBYTES_20 2ea69cf906410496bcbf50077dedf0bc179d3dc1",
      "scriptpubkey_type": "v0_p2wpkh",
      "scriptpubkey_address": "bc1q96nfe7gxgyzfd09l2qrhmm0shste60wphhxt7d",
      "value": 30248
    }
  ],
  "size": 375,
  "weight": 846,
  "fee": 2968,
  "status": {
    "confirmed": true,
    "block_height": 834460,
    "block_hash": "00000000000000000000484a79b643b2524bbce82e5d8a442013fa5b8905ed98",
    "block_time": 1710307468
  },
  "hex": "02000000000102df4a3227664da05f63257d7394bc1f6176490812a35ccdcb53db46be53af64a60000000000ffffffffe453007d0846a2003d128b4b82243f85938493f7835c9adfd4775f68937c445f0100000000ffffffff0222020000000000001976a914a73959878e98bd2f8e12080c0d8637b382a8d74d88ac28760000000000001600142ea69cf906410496bcbf50077dedf0bc179d3dc102483045022100ba7f96deaf23a8399f3679500690444b41d93f0650c47c1e8d3455ae7b95e01102206dda6b1acfd77a08592c2bfa5dbdc05ac0efcadf9fea625998b4ae674d6641f9012102f0f2027a1caa259a38233ba390d2773bb3da226cebe602e6f3004e9a7532e95d02483045022100b6c5f5a70369a8e4b44cb2f31dbc48744193ead9987f3f40a7c7d8dc17a9ee59022054ff5f5d24be0554358c9b8758c02fcbd7b9aaf116b6f85dfd3a9d0ddc7d5e41012102f0f2027a1caa259a38233ba390d2773bb3da226cebe602e6f3004e9a7532e95d00000000"
}