{
  "txid": "a9c865c893bdeb8c1c5968e0e475157aba5cfeb1814c020c70eb7846cb00f8ec",
  "version": 1,
  "locktime": 0,
  "vin": [
    {
      "txid": "50350fe48a24718e1a460f461a88426d7253bcc230ee7b65e31411a6c1757236",
      "vout": 1,
      "prevout": {
        "scriptpubkey": "001438208bcde0c6dbbf53eeba74e47ecd9f9501faa7",
        "scriptpubkey_asm": "OP_0 OP_PUSHBYTES_20 38208bcde0c6dbbf53eeba74e47ecd9f9501faa7",
        "scriptpubkey_type": "v0_p2wpkh",
        "scriptpubkey_address": "bc1q8qsghn0qcmdm75lwhf6wglkdn72sr7480rhnec",
        "value": 98570
      },
      "scriptsig": "",
      "scriptsig_asm": "",
      "witness": [
        "3044022027193a7dafac0ca2e6af73661be98a9090db5bd0971d95923bbb16183a54afb902200608fe7b1cbcde0168d44efafdf7a8d7ae149f6a5e88eb3a4217449d042b53a201",
        "0251642bc49afb44fa9bc255baa2e591121f852ba83ae9a6636555c31f1a6e82cd"
      ],
      "is_coinbase": false,
      "sequence": 4294967295
    }
  ],
  "vout": [
    {
      "scriptpubkey": "a914376bc74e400533e271f02ceee3284ddc4edfc44787",
      "scriptpubkey_asm": "OP_HASH160 OP_PUSHBYTES_20 376bc74e400533e271f02ceee3284ddc4edfc447 OP_EQUAL",
      "scriptpubkey_type": "p2sh",
      "scriptpubkey_address": "36k4CgJmo4buovsJXT7VAVjFGgXcaYDdQx",
      "value": 29232
    },
    {
      "scriptpubkey": "0014d7660bd322b3dc9e999bb00d6af06f210884e172",
      "scriptpubkey_asm": "OP_0 OP_PUSHBYTES_20 d7660bd322b3dc9e999bb00d6af06f210884e172",
      "scriptpubkey_type": "v0_p2wpkh",
      "scriptpubkey_address": "bc1q6anqh5ezk0wfaxvmkqxk4ur0yyygfctjz3spsf",
      "value": 67350
    }
  ],
  "size": 223,
  "weight": 565,
  "fee": 1988,
  "status": {
    "confirmed": true,
    "block_height": 834638,
    "block_hash": "000000000000000000025f742c626208ac87e0b7d15054abb4a19ca2d735a54e",
    "block_time": 1710405325
  },
  "hex": "01000000000101367275c1a61114e3657bee30c2bc53726d42881a460f461a8e71248ae40f35500100000000ffffffff02307200000000000017a914376bc74e400533e271f02ceee3284ddc4edfc447871607010000000000160014d7660bd322b3dc9e999bb00d6af06f210884e17202473044022027193a7dafac0ca2e6af73661be98a9090db5bd0971d95923bbb16183a54afb902200608fe7b1cbcde0168d44efafdf7a8d7ae149f6a5e88eb3a4217449d042b53a201210251642bc49afb44fa9bc255baa2e591121f852ba83ae9a6636555c31f1a6e82cd00000000"
}