{
  "txid": "a9c99dc5ec74c6171095a4b156d8127ce003a855c4816f2caf90b8832f563471",
  "version": 2,
  "locktime": 0,
  "vin": [
    {
      "txid": "e3acb27a9fb6593822a4d8bbb8be9f9516e33123f196a41fc2801a9cae278ba4",
      "vout": 0,
      "prevout": {
        "scriptpubkey": "5120d7b0161160dc8ce46dfbf55c602ffeef5ed4ebcadebbe077918819b0aa1b73e6",
        "scriptpubkey_asm": "OP_PUSHNUM_1 OP_PUSHBYTES_32 d7b0161160dc8ce46dfbf55c602ffeef5ed4ebcadebbe077918819b0aa1b73e6",
        "scriptpubkey_type": "v1_p2tr",
        "scriptpubkey_address": "bc1p67cpvytqmjxwgm0m74wxqtl7aa0df672m6a7qau33qvmp2smw0nqrgxc8d",
        "value": 546
      },
      "scriptsig": "",
      "scriptsig_asm": "",
      "witness": [
        "265f6c3128efad948b8e1d11e1cd165c457e9e5da32f0e4093d81221aa6ecd6ec9bebbda812f4aa8c2caabf50575d22b551cd95d27ec015031950589869b5d26"
      ],
      "is_coinbase": false,
      "sequence": 2147483649
    },
    {
      "txid": "ef575d36c46466f419678345bd0fc17d65cc1a5741a47ac272d9e329dab7c0c9",
      "vout": 1,
      "prevout": {
        "scriptpubkey": "5120d7b0161160dc8ce46dfbf55c602ffeef5ed4ebcadebbe077918819b0aa1b73e6",
        "scriptpubkey_asm": "OP_PUSHNUM_1 OP_PUSHBYTES_32 d7b0161160dc8ce46dfbf55c602ffeef5ed4ebcadebbe077918819b0aa1b73e6",
        "scriptpubkey_type": "v1_p2tr",
        "scriptpubkey_address": "bc1p67cpvytqmjxwgm0m74wxqtl7aa0df672m6a7qau33qvmp2smw0nqrgxc8d",
        "value": 1811712
      },
      "scriptsig": "",
      "scriptsig_asm": "",
      "witness": [
        "8b8b8a72ac3d38c85fb59b0ba462d6a4ef39b73bd86a3ac8a300e5ab52033729ecd442e2b0eb5aba0ba9111ad0bccbdb4d24483caf482ebe6d2b819825f27731"
      ],
      "is_coinbase": false,
      "sequence": 2147483649
    }
  ],
  "vout": [
    {
      "scriptpubkey": "5120d7b0161160dc8ce46dfbf55c602ffeef5ed4ebcadebbe077918819b0aa1b73e6",
      "scriptpubkey_asm": "OP_PUSHNUM_1 OP_PUSHBYTES_32 d7b0161160dc8ce46dfbf55c602ffeef5ed4ebcadebbe077918819b0aa1b73e6",
      "scriptpubkey_type": "v1_p2tr",
      "scriptpubkey_address": "bc1p67cpvytqmjxwgm0m74wxqtl7aa0df672m6a7qau33qvmp2smw0nqrgxc8d",
      "value": 546
    },
    {
      "scriptpubkey": "5120d7b0161160dc8ce46dfbf55c602ffeef5ed4ebcadebbe077918819b0aa1b73e6",
      "scriptpubkey_asm": "OP_PUSHNUM_1 OP_PUSHBYTES_32 d7b0161160dc8ce46dfbf55c602ffeef5ed4ebcadebbe077918819b0aa1b73e6",
      "scriptpubkey_type": "v1_p2tr",
      "scriptpubkey_address": "bc1p67cpvytqmjxwgm0m74wxqtl7aa0df672m6a7qau33qvmp2smw0nqrgxc8d",
      "value": 1809391
    }
  ],
  "size": 312,
  "weight": 846,
  "fee": 2321,
  "status": {
    "confirmed": true,
    "block_height": 834464,
    "block_hash": "0000000000000000000177a0869a911a2b65c9bdcd5a8bcb02b68f305bee848e",
    "block_time": 1710308296
  },
  "hex": "02000000000102a48b27ae9c1a80c21fa496f12331e316959fbeb8bbd8a4223859b69f7ab2ace3000000000001000080c9c0b7da29e3d972c27aa441571acc657dc10fbd45836719f46664c4365d57ef010000000001000080022202000000000000225120d7b0161160dc8ce46dfbf55c602ffeef5ed4ebcadebbe077918819b0aa1b73e6ef9b1b0000000000225120d7b0161160dc8ce46dfbf55c602ffeef5ed4ebcadebbe077918819b0aa1b73e60140265f6c3128efad948b8e1d11e1cd165c457e9e5da32f0e4093d81221aa6ecd6ec9bebbda812f4aa8c2caabf50575d22b551cd95d27ec015031950589869b5d2601408b8b8a72ac3d38c85fb59b0ba462d6a4ef39b73bd86a3ac8a300e5ab52033729ecd442e2b0eb5aba0ba9111ad0bccbdb4d24483caf482ebe6d2b819825f2773100000000"
}