{
  "txid": "a9d0df2cdcf1e2cba59e46767732ef987a4698a500b9034a87e31682dd993e73",
  "version": 2,
  "locktime": 0,
  "vin": [
    {
      "txid": "76dee25f5c4f9ac52f626acf4faab85e89b29c167ef136a2b017b674366d9fbe",
      "vout": 0,
      "prevout": {
        "scriptpubkey": "5120e89c048efa8c700af0369a12c3829e4a368e7c754467d4637e01858a96818dbf",
        "scriptpubkey_asm": "OP_PUSHNUM_1 OP_PUSHBYTES_32 e89c048efa8c700af0369a12c3829e4a368e7c754467d4637e01858a96818dbf",
        "scriptpubkey_type": "v1_p2tr",
        "scriptpubkey_address": "bc1pazwqfrh633cq4upkngfv8q57fgmgulr4g3nagcm7qxzc495p3klsum5fze",
        "value": 1974
      },
      "scriptsig": "",
      "scriptsig_asm": "",
      "witness": [
        "1d74c65a561cc5a7eb92786138b71ac78fe586be4d9e96e7a742afe1777f6f4bad8096a7d99cccabb060c619ddedb4aa14b68f3a283f109656d79083e5360a3a",
        "2084dec53fdc6ba1e36af7b51de292ffdf9cd7915207234a399470b2d7a557fd69ac0063036f7264010118746578742f706c61696e3b636861727365743d7574662d3800387b2270223a226272632d3230222c226f70223a226d696e74222c227469636b223a2262696e75222c22616d74223a2231303030303030227d68",
        "c184dec53fdc6ba1e36af7b51de292ffdf9cd7915207234a399470b2d7a557fd69"
      ],
      "is_coinbase": false,
      "sequence": 4294967293
    }
  ],
  "vout": [
    {
      "scriptpubkey": "0014be98562e1552f5583cbc80245460a4aea2377aef",
      "scriptpubkey_asm": "OP_0 OP_PUSHBYTES_20 be98562e1552f5583cbc80245460a4aea2377aef",
      "scriptpubkey_type": "v0_p2wpkh",
      "scriptpubkey_address": "bc1qh6v9vts42t64s09usqj9gc9y463rw7h0efkptu",
      "value": 294
    }
  ],
  "size": 311,
  "weight": 557,
  "fee": 1680,
  "status": {
    "confirmed": true,
    "block_height": 834460,
    "block_hash": "00000000000000000000484a79b643b2524bbce82e5d8a442013fa5b8905ed98",
    "block_time": 1710307468
  },
  "hex": "02000000000101be9f6d3674b617b0a236f17e169cb2895eb8aa4fcf6a622fc59a4f5c5fe2de760000000000fdffffff012601000000000000160014be98562e1552f5583cbc80245460a4aea2377aef03401d74c65a561cc5a7eb92786138b71ac78fe586be4d9e96e7a742afe1777f6f4bad8096a7d99cccabb060c619ddedb4aa14b68f3a283f109656d79083e5360a3a7e2084dec53fdc6ba1e36af7b51de292ffdf9cd7915207234a399470b2d7a557fd69ac0063036f7264010118746578742f706c61696e3b636861727365743d7574662d3800387b2270223a226272632d3230222c226f70223a226d696e74222c227469636b223a2262696e75222c22616d74223a2231303030303030227d6821c184dec53fdc6ba1e36af7b51de292ffdf9cd7915207234a399470b2d7a557fd6900000000"
}