{
  "txid": "a9e537569db3c64340ed5abcdd983e9bb1b6ad6f90c93bc80d31c5cc0490bcea",
  "version": 2,
  "locktime": 0,
  "vin": [
    {
      "txid": "888888888e3d46b2a0dfb81cf3fc9d7160464f74847350e21f7b1ab0a9ed94f3",
      "vout": 2,
      "prevout": {
        "scriptpubkey": "a914506764a3226203d38d56914f7c27020b59602fe287",
        "scriptpubkey_asm": "OP_HASH160 OP_PUSHBYTES_20 506764a3226203d38d56914f7c27020b59602fe2 OP_EQUAL",
        "scriptpubkey_type": "p2sh",
        "scriptpubkey_address": "3929qmbYYxAST12ceKRWKxcRFwXNnrXnfE",
        "value": 2795
      },
      "scriptsig": "16001414fd7bf29cccd4d685568afb5303c99a5772d6e4",
      "scriptsig_asm": "OP_PUSHBYTES_22 001414fd7bf29cccd4d685568afb5303c99a5772d6e4",
      "witness": [
        "304402200d9e38c2a8b29b8328d1d2fe5c41f8435830ee8308244b9930900d8279c7e9d502202fe9f618ef98bc362bb634873f57507991b2bf73586f7d4ca28c88528c13c4f201",
        "021374056db26c3f35632eb16718f4f7c3e9db07a89fb2c2a3c92606e4f3a35719"
      ],
      "is_coinbase": false,
      "sequence": 4294967293,
      "inner_redeemscript_asm": "OP_0 OP_PUSHBYTES_20 14fd7bf29cccd4d685568afb5303c99a5772d6e4"
    },
    {
      "txid": "88888888820718da8537b2dc1ee5298134294c423bc9c6b8268737b13f9f7f78",
      "vout": 2,
      "prevout": {
        "scriptpubkey": "a914506764a3226203d38d56914f7c27020b59602fe287",
        "scriptpubkey_asm": "OP_HASH160 OP_PUSHBYTES_20 506764a3226203d38d56914f7c27020b59602fe2 OP_EQUAL",
        "scriptpubkey_type": "p2sh",
        "scriptpubkey_address": "3929qmbYYxAST12ceKRWKxcRFwXNnrXnfE",
        "value": 2795
      },
      "scriptsig": "16001414fd7bf29cccd4d685568afb5303c99a5772d6e4",
      "scriptsig_asm": "OP_PUSHBYTES_22 001414fd7bf29cccd4d685568afb5303c99a5772d6e4",
      "witness": [
        "3044022062ba54d58ac28122c7aaba47eda91a26bc4851041905efb1468fb18a0c79b23d02204c18858e8b1fb2e1960ecb898b965bf77777989e95d8d59ba64815f37da8e88301",
        "021374056db26c3f35632eb16718f4f7c3e9db07a89fb2c2a3c92606e4f3a35719"
      ],
      "is_coinbase": false,
      "sequence": 4294967293,
      "inner_redeemscript_asm": "OP_0 OP_PUSHBYTES_20 14fd7bf29cccd4d685568afb5303c99a5772d6e4"
    },
    {
      "txid": "8888888882acda9039e216093aeee8f0ea26d720de1f9d9f54be045b28c569dc",
      "vout": 2,
      "prevout": {
        "scriptpubkey": "a914506764a3226203d38d56914f7c27020b59602fe287",
        "scriptpubkey_asm": "OP_HASH160 OP_PUSHBYTES_20 506764a3226203d38d56914f7c27020b59602fe2 OP_EQUAL",
        "scriptpubkey_type": "p2sh",
        "scriptpubkey_address": "3929qmbYYxAST12ceKRWKxcRFwXNnrXnfE",
        "value": 2795
      },
      "scriptsig": "16001414fd7bf29cccd4d685568afb5303c99a5772d6e4",
      "scriptsig_asm": "OP_PUSHBYTES_22 001414fd7bf29cccd4d685568afb5303c99a5772d6e4",
      "witness": [
        "304402201248becfa28b30694fc651a8d30e0e40aa6d2081dff976e3eadb8b9d781ece1e0220498c633eba38b36c7bf09794d2ece42ebe514f978bd120558303e6a324de29ee01",
        "021374056db26c3f35632eb16718f4f7c3e9db07a89fb2c2a3c92606e4f3a35719"
      ],
      "is_coinbase": false,
      "sequence": 4294967293,
      "inner_redeemscript_asm": "OP_0 OP_PUSHBYTES_20 14fd7bf29cccd4d685568afb5303c99a5772d6e4"
    },
    {
      "txid": "8888888888017127d1c8ecd5fbd90e641ab121c91a036a53eef674e0156f4622",
      "vout": 2,
      "prevout": {
        "scriptpubkey": "a914506764a3226203d38d56914f7c27020b59602fe287",
        "scriptpubkey_asm": "OP_HASH160 OP_PUSHBYTES_20 506764a3226203d38d56914f7c27020b59602fe2 OP_EQUAL",
        "scriptpubkey_type": "p2sh",
        "scriptpubkey_address": "3929qmbYYxAST12ceKRWKxcRFwXNnrXnfE",
        "value": 2795
      },
      "scriptsig": "16001414fd7bf29cccd4d685568afb5303c99a5772d6e4",
      "scriptsig_asm": "OP_PUSHBYTES_22 001414fd7bf29cccd4d685568afb5303c99a5772d6e4",
      "witness": [
        "3044022024ebf2839d719be56adeefb5dd2356fc61c82db9ec21fe647632dfaf7f3869960220521beb9ed44bbaa0e884b0e45fba02459725a1ac58c39ff75fe94e5b3f8a581001",
        "021374056db26c3f35632eb16718f4f7c3e9db07a89fb2c2a3c92606e4f3a35719"
      ],
      "is_coinbase": false,
      "sequence": 4294967293,
      "inner_redeemscript_asm": "OP_0 OP_PUSHBYTES_20 14fd7bf29cccd4d685568afb5303c99a5772d6e4"
    },
    {
      "txid": "8888888885e47bd8fa45f1275bf536b53e25b626ed7ed73ad27e42b0c5632dde",
      "vout": 2,
      "prevout": {
        "scriptpubkey": "a914506764a3226203d38d56914f7c27020b59602fe287",
        "scriptpubkey_asm": "OP_HASH160 OP_PUSHBYTES_20 506764a3226203d38d56914f7c27020b59602fe2 OP_EQUAL",
        "scriptpubkey_type": "p2sh",
        "scriptpubkey_address": "3929qmbYYxAST12ceKRWKxcRFwXNnrXnfE",
        "value": 2795
      },
      "scriptsig": "16001414fd7bf29cccd4d685568afb5303c99a5772d6e4",
      "scriptsig_asm": "OP_PUSHBYTES_22 001414fd7bf29cccd4d685568afb5303c99a5772d6e4",
      "witness": [
        "304402202d4e91fe05dcc8796e13c914a51110d40963cf160c80610ed97bfb294c2680c6022047a64b9b31a44ecd550ade82610dc5327be33cfe6497f081a3093b94715ed47201",
        "021374056db26c3f35632eb16718f4f7c3e9db07a89fb2c2a3c92606e4f3a35719"
      ],
      "is_coinbase": false,
      "sequence": 4294967293,
      "inner_redeemscript_asm": "OP_0 OP_PUSHBYTES_20 14fd7bf29cccd4d685568afb5303c99a5772d6e4"
    },
    {
      "txid": "88888888823711137da6bd7c722651f356b9b3eca6466dc3f7b097ffa3aa22c2",
      "vout": 2,
      "prevout": {
        "scriptpubkey": "a914506764a3226203d38d56914f7c27020b59602fe287",
        "scriptpubkey_asm": "OP_HASH160 OP_PUSHBYTES_20 506764a3226203d38d56914f7c27020b59602fe2 OP_EQUAL",
        "scriptpubkey_type": "p2sh",
        "scriptpubkey_address": "3929qmbYYxAST12ceKRWKxcRFwXNnrXnfE",
        "value": 2795
      },
      "scriptsig": "16001414fd7bf29cccd4d685568afb5303c99a5772d6e4",
      "scriptsig_asm": "OP_PUSHBYTES_22 001414fd7bf29cccd4d685568afb5303c99a5772d6e4",
      "witness": [
        "3044022073717954d3cf519c35717946480448a61489e1f86bc6a086a2e795e89636190702204be839bbe006e3d01d397bb1dcf4b6962b407e3d403bbb2c0530c0fd68e4584401",
        "021374056db26c3f35632eb16718f4f7c3e9db07a89fb2c2a3c92606e4f3a35719"
      ],
      "is_coinbase": false,
      "sequence": 4294967293,
      "inner_redeemscript_asm": "OP_0 OP_PUSHBYTES_20 14fd7bf29cccd4d685568afb5303c99a5772d6e4"
    },
    {
      "txid": "88888888877ad27807d306b1c39f89bd9a98f736bf2bb32b8e8f7abe13d91687",
      "vout": 2,
      "prevout": {
        "scriptpubkey": "a914506764a3226203d38d56914f7c27020b59602fe287",
        "scriptpubkey_asm": "OP_HASH160 OP_PUSHBYTES_20 506764a3226203d38d56914f7c27020b59602fe2 OP_EQUAL",
        "scriptpubkey_type": "p2sh",
        "scriptpubkey_address": "3929qmbYYxAST12ceKRWKxcRFwXNnrXnfE",
        "value": 2795
      },
      "scriptsig": "16001414fd7bf29cccd4d685568afb5303c99a5772d6e4",
      "scriptsig_asm": "OP_PUSHBYTES_22 001414fd7bf29cccd4d685568afb5303c99a5772d6e4",
      "witness": [
        "304402205523a092174057a1cecd1ed6a525b1aa6fcac842577291cf109b9f4a9c00b9fa0220315a1c02ad43fc82e1b87f246f54277dad55f61e920fb7dd57a3b2459b9b202e01",
        "021374056db26c3f35632eb16718f4f7c3e9db07a89fb2c2a3c92606e4f3a35719"
      ],
      "is_coinbase": false,
      "sequence": 4294967293,
      "inner_redeemscript_asm": "OP_0 OP_PUSHBYTES_20 14fd7bf29cccd4d685568afb5303c99a5772d6e4"
    },
    {
      "txid": "8888888884ca354f44020a21b933676f1c9b49f13adfb27689190986ca3c40f4",
      "vout": 2,
      "prevout": {
        "scriptpubkey": "a914506764a3226203d38d56914f7c27020b59602fe287",
        "scriptpubkey_asm": "OP_HASH160 OP_PUSHBYTES_20 506764a3226203d38d56914f7c27020b59602fe2 OP_EQUAL",
        "scriptpubkey_type": "p2sh",
        "scriptpubkey_address": "3929qmbYYxAST12ceKRWKxcRFwXNnrXnfE",
        "value": 2795
      },
      "scriptsig": "16001414fd7bf29cccd4d685568afb5303c99a5772d6e4",
      "scriptsig_asm": "OP_PUSHBYTES_22 001414fd7bf29cccd4d685568afb5303c99a5772d6e4",
      "witness": [
        "30440220121484abee1dd7ae7e6fa8f6a64e9b70ae8e00bb7dfa2dd9f2f3046414ac7dc902200b6f5bed06ef37db8a377043bfbfcdd667406c8e68d9a5a35b436ddc8cc3fb3101",
        "021374056db26c3f35632eb16718f4f7c3e9db07a89fb2c2a3c92606e4f3a35719"
      ],
      "is_coinbase": false,
      "sequence": 4294967293,
      "inner_redeemscript_asm": "OP_0 OP_PUSHBYTES_20 14fd7bf29cccd4d685568afb5303c99a5772d6e4"
    },
    {
      "txid": "88888888899d6ca22a9111f108a98770f972cb94ca211b0638bcbbec3f939834",
      "vout": 2,
      "prevout": {
        "scriptpubkey": "a914506764a3226203d38d56914f7c27020b59602fe287",
        "scriptpubkey_asm": "OP_HASH160 OP_PUSHBYTES_20 506764a3226203d38d56914f7c27020b59602fe2 OP_EQUAL",
        "scriptpubkey_type": "p2sh",
        "scriptpubkey_address": "3929qmbYYxAST12ceKRWKxcRFwXNnrXnfE",
        "value": 2795
      },
      "scriptsig": "16001414fd7bf29cccd4d685568afb5303c99a5772d6e4",
      "scriptsig_asm": "OP_PUSHBYTES_22 001414fd7bf29cccd4d685568afb5303c99a5772d6e4",
      "witness": [
        "304402200138d475d791ba0e8ed4e1d542220a62e249c7dbd5d690a3f0456d2e8f00007d02200da9de91db945938c93ebd66bfbb73753de912ac7be367c4a276fa97ecd57df101",
        "021374056db26c3f35632eb16718f4f7c3e9db07a89fb2c2a3c92606e4f3a35719"
      ],
      "is_coinbase": false,
      "sequence": 4294967293,
      "inner_redeemscript_asm": "OP_0 OP_PUSHBYTES_20 14fd7bf29cccd4d685568afb5303c99a5772d6e4"
    },
    {
      "txid": "cad41ad72f563ee789a96272a628ca3e7e2331394410f5eb7f17051c63d6de4c",
      "vout": 1,
      "prevout": {
        "scriptpubkey": "76a914cebb2851a9c7cfe2582c12ecaf7f3ff4383d1dc088ac",
        "scriptpubkey_asm": "OP_DUP OP_HASH160 OP_PUSHBYTES_20 cebb2851a9c7cfe2582c12ecaf7f3ff4383d1dc0 OP_EQUALVERIFY OP_CHECKSIG",
        "scriptpubkey_type": "p2pkh",
        "scriptpubkey_address": "1Kr6QSydW9bFQG1mXiPNNu6WpJGmUa9i1g",
        "value": 29763994847
      },
      "scriptsig": "473044022072a9921bcf7618fef76f32f041002c601ed6d926ecff7a3ef9736b4b3a5df583022046718888de4b34f189513a7fb41b8ccf395cb34c0a1fc6541996c33fabc47ebb012103786af4b32017ec640dba2d2a7e1fd5aa4a231a658e4cbc114d51c031576e19bc",
      "scriptsig_asm": "OP_PUSHBYTES_71 3044022072a9921bcf7618fef76f32f041002c601ed6d926ecff7a3ef9736b4b3a5df583022046718888de4b34f189513a7fb41b8ccf395cb34c0a1fc6541996c33fabc47ebb01 OP_PUSHBYTES_33 03786af4b32017ec640dba2d2a7e1fd5aa4a231a658e4cbc114d51c031576e19bc",
      "is_coinbase": false,
      "sequence": 4294967293
    }
  ],
  "vout": [
    {
      "scriptpubkey": "76a9145351ad35bfd3e97c037df39f5fe07cb071892d2e88ac",
      "scriptpubkey_asm": "OP_DUP OP_HASH160 OP_PUSHBYTES_20 5351ad35bfd3e97c037df39f5fe07cb071892d2e OP_EQUALVERIFY OP_CHECKSIG",
      "scriptpubkey_type": "p2pkh",
      "scriptpubkey_address": "18bYvustaVxkxA5wbh9D9adM4vGDCsB3Hd",
      "value": 672385150
    },
    {
      "scriptpubkey": "76a914cebb2851a9c7cfe2582c12ecaf7f3ff4383d1dc088ac",
      "scriptpubkey_asm": "OP_DUP OP_HASH160 OP_PUSHBYTES_20 cebb2851a9c7cfe2582c12ecaf7f3ff4383d1dc0 OP_EQUALVERIFY OP_CHECKSIG",
      "scriptpubkey_type": "p2pkh",
      "scriptpubkey_address": "1Kr6QSydW9bFQG1mXiPNNu6WpJGmUa9i1g",
      "value": 29091171651
    }
  ],
  "size": 1767,
  "weight": 4170,
  "fee": 463201,
  "status": {
    "confirmed": true,
    "block_height": 834638,
    "block_hash": "000000000000000000025f742c626208ac87e0b7d15054abb4a19ca2d735a54e",
    "block_time": 1710405325
  },
  "hex": "0200000000010af394eda9b01a7b1fe2507384744f4660719dfcf31cb8dfa0b2463d8e88888888020000001716001414fd7bf29cccd4d685568afb5303c99a5772d6e4fdffffff787f9f3fb1378726b8c6c93b424c29348129e51edcb23785da18078288888888020000001716001414fd7bf29cccd4d685568afb5303c99a5772d6e4fdffffffdc69c5285b04be549f9d1fde20d726eaf0e8ee3a0916e23990daac8288888888020000001716001414fd7bf29cccd4d685568afb5303c99a5772d6e4fdffffff22466f15e074f6ee536a031ac921b11a640ed9fbd5ecc8d12771018888888888020000001716001414fd7bf29cccd4d685568afb5303c99a5772d6e4fdffffffde2d63c5b0427ed23ad77eed26b6253eb536f55b27f145fad87be48588888888020000001716001414fd7bf29cccd4d685568afb5303c99a5772d6e4fdffffffc222aaa3ff97b0f7c36d46a6ecb3b956f35126727cbda67d1311378288888888020000001716001414fd7bf29cccd4d685568afb5303c99a5772d6e4fdffffff8716d913be7a8f8e2bb32bbf36f7989abd899fc3b106d30778d27a8788888888020000001716001414fd7bf29cccd4d685568afb5303c99a5772d6e4fdfffffff4403cca8609198976b2df3af1499b1c6f6733b9210a02444f35ca8488888888020000001716001414fd7bf29cccd4d685568afb5303c99a5772d6e4fdffffff3498933fecbbbc38061b21ca94cb72f97087a908f111912aa26c9d8988888888020000001716001414fd7bf29cccd4d685568afb5303c99a5772d6e4fdffffff4cded6631c05177febf510443931237e3eca28a67262a989e73e562fd71ad4ca010000006a473044022072a9921bcf7618fef76f32f041002c601ed6d926ecff7a3ef9736b4b3a5df583022046718888de4b34f189513a7fb41b8ccf395cb34c0a1fc6541996c33fabc47ebb012103786af4b32017ec640dba2d2a7e1fd5aa4a231a658e4cbc114d51c031576e19bcfdffffff027ec81328000000001976a9145351ad35bfd3e97c037df39f5fe07cb071892d2e88ac430df8c5060000001976a914cebb2851a9c7cfe2582c12ecaf7f3ff4383d1dc088ac0247304402200d9e38c2a8b29b8328d1d2fe5c41f8435830ee8308244b9930900d8279c7e9d502202fe9f618ef98bc362bb634873f57507991b2bf73586f7d4ca28c88528c13c4f20121021374056db26c3f35632eb16718f4f7c3e9db07a89fb2c2a3c92606e4f3a3571902473044022062ba54d58ac28122c7aaba47eda91a26bc4851041905efb1468fb18a0c79b23d02204c18858e8b1fb2e1960ecb898b965bf77777989e95d8d59ba64815f37da8e8830121021374056db26c3f35632eb16718f4f7c3e9db07a89fb2c2a3c92606e4f3a357190247304402201248becfa28b30694fc651a8d30e0e40aa6d2081dff976e3eadb8b9d781ece1e0220498c633eba38b36c7bf09794d2ece42ebe514f978bd120558303e6a324de29ee0121021374056db26c3f35632eb16718f4f7c3e9db07a89fb2c2a3c92606e4f3a3571902473044022024ebf2839d719be56adeefb5dd2356fc61c82db9ec21fe647632dfaf7f3869960220521beb9ed44bbaa0e884b0e45fba02459725a1ac58c39ff75fe94e5b3f8a58100121021374056db26c3f35632eb16718f4f7c3e9db07a89fb2c2a3c92606e4f3a357190247304402202d4e91fe05dcc8796e13c914a51110d40963cf160c80610ed97bfb294c2680c6022047a64b9b31a44ecd550ade82610dc5327be33cfe6497f081a3093b94715ed4720121021374056db26c3f35632eb16718f4f7c3e9db07a89fb2c2a3c92606e4f3a3571902473044022073717954d3cf519c35717946480448a61489e1f86bc6a086a2e795e89636190702204be839bbe006e3d01d397bb1dcf4b6962b407e3d403bbb2c0530c0fd68e458440121021374056db26c3f35632eb16718f4f7c3e9db07a89fb2c2a3c92606e4f3a357190247304402205523a092174057a1cecd1ed6a525b1aa6fcac842577291cf109b9f4a9c00b9fa0220315a1c02ad43fc82e1b87f246f54277dad55f61e920fb7dd57a3b2459b9b202e0121021374056db26c3f35632eb16718f4f7c3e9db07a89fb2c2a3c92606e4f3a35719024730440220121484abee1dd7ae7e6fa8f6a64e9b70ae8e00bb7dfa2dd9f2f3046414ac7dc902200b6f5bed06ef37db8a377043bfbfcdd667406c8e68d9a5a35b436ddc8cc3fb310121021374056db26c3f35632eb16718f4f7c3e9db07a89fb2c2a3c92606e4f3a357190247304402200138d475d791ba0e8ed4e1d542220a62e249c7dbd5d690a3f0456d2e8f00007d02200da9de91db945938c93ebd66bfbb73753de912ac7be367c4a276fa97ecd57df10121021374056db26c3f35632eb16718f4f7c3e9db07a89fb2c2a3c92606e4f3a357190000000000"
}