{
  "txid": "a9eb9fca36a1dfa2a6f57afb1277212d4f4b94f848858be1c827240441a7c0eb",
  "version": 1,
  "locktime": 0,
  "vin": [
    {
      "txid": "96123f88b65962e4ee93df9726b233b0b67177fcc675bcc0206bb5deaee4e3a3",
      "vout": 1,
      "prevout": {
        "scriptpubkey": "00148827fee830dc3f141c6cfb980f1aaf273fd78061",
        "scriptpubkey_asm": "OP_0 OP_PUSHBYTES_20 8827fee830dc3f141c6cfb980f1aaf273fd78061",
        "scriptpubkey_type": "v0_p2wpkh",
        "scriptpubkey_address": "bc1q3qnla6psmsl3g8rvlwvq7x40yula0qrpearhaw",
        "value": 105047
      },
      "scriptsig": "",
      "scriptsig_asm": "",
      "witness": [
        "3044022049f9237515fcb77d9eb944ee922c14395829567f9dab2ec59979ce29bfdcd06a022027109e2ea82ed44be3f511db36e460c5900f300125ef1ad539f945ef6d2dec7b01",
        "02221a4a0cfb6c9f84b2ec4858d6c0897cb049c44893a466413a9265ccedfed9bf"
      ],
      "is_coinbase": false,
      "sequence": 4294967295
    }
  ],
  "vout": [
    {
      "scriptpubkey": "a914d634bc6c16b584faefb3cc8580bd9db5e4e7166087",
      "scriptpubkey_asm": "OP_HASH160 OP_PUSHBYTES_20 d634bc6c16b584faefb3cc8580bd9db5e4e71660 OP_EQUAL",
      "scriptpubkey_type": "p2sh",
      "scriptpubkey_address": "3MDdhkxR8o7Hmg5WLD9zZTk4mzQkoHnLmQ",
      "value": 5103
    },
    {
      "scriptpubkey": "0014c1208d0b0ef24598f9c3181efa7ae709eb7a104c",
      "scriptpubkey_asm": "OP_0 OP_PUSHBYTES_20 c1208d0b0ef24598f9c3181efa7ae709eb7a104c",
      "scriptpubkey_type": "v0_p2wpkh",
      "scriptpubkey_address": "bc1qcysg6zcw7fze37wrrq0057h8p84h5yzvudplwc",
      "value": 97832
    }
  ],
  "size": 223,
  "weight": 565,
  "fee": 2112,
  "status": {
    "confirmed": true,
    "block_height": 834638,
    "block_hash": "000000000000000000025f742c626208ac87e0b7d15054abb4a19ca2d735a54e",
    "block_time": 1710405325
  },
  "hex": "01000000000101a3e3e4aedeb56b20c0bc75c6fc7771b6b033b22697df93eee46259b6883f12960100000000ffffffff02ef1300000000000017a914d634bc6c16b584faefb3cc8580bd9db5e4e7166087287e010000000000160014c1208d0b0ef24598f9c3181efa7ae709eb7a104c02473044022049f9237515fcb77d9eb944ee922c14395829567f9dab2ec59979ce29bfdcd06a022027109e2ea82ed44be3f511db36e460c5900f300125ef1ad539f945ef6d2dec7b012102221a4a0cfb6c9f84b2ec4858d6c0897cb049c44893a466413a9265ccedfed9bf00000000"
}