{
  "txid": "a9f07d8a8559503751c051bb8ccd8f9a8c73637b6d01a18eb71dc0e997cd1f19",
  "version": 1,
  "locktime": 0,
  "vin": [
    {
      "txid": "f8388f594f92679931b90fcd0111aa94b6d1a97bc277d543b841dee3d0dcb29c",
      "vout": 1,
      "prevout": {
        "scriptpubkey": "76a914a1e52d51ff621b829864811ae3bdf3998ea5829988ac",
        "scriptpubkey_asm": "OP_DUP OP_HASH160 OP_PUSHBYTES_20 a1e52d51ff621b829864811ae3bdf3998ea58299 OP_EQUALVERIFY OP_CHECKSIG",
        "scriptpubkey_type": "p2pkh",
        "scriptpubkey_address": "1Fm2LPH1Rg1yHQ2n4BqMvL3gv3wJtoKRU7",
        "value": 274937
      },
      "scriptsig": "483045022100cac6ba70de12020cb1b1c57359b18f93f2ec8d5485c1d8321abe5850c70eea21022012fb6c87f102df114426e14a8e23db06b941447f169298b6772160180023e6d301210297d5c319270bf26ee1c44e8435fd90fc694f145cd5d50cb33f395bf3cc5737a6",
      "scriptsig_asm": "OP_PUSHBYTES_72 3045022100cac6ba70de12020cb1b1c57359b18f93f2ec8d5485c1d8321abe5850c70eea21022012fb6c87f102df114426e14a8e23db06b941447f169298b6772160180023e6d301 OP_PUSHBYTES_33 0297d5c319270bf26ee1c44e8435fd90fc694f145cd5d50cb33f395bf3cc5737a6",
      "is_coinbase": false,
      "sequence": 4294967295
    }
  ],
  "vout": [
    {
      "scriptpubkey": "a9142a741bb27c6781f3cd586a7e39df19294f59144687",
      "scriptpubkey_asm": "OP_HASH160 OP_PUSHBYTES_20 2a741bb27c6781f3cd586a7e39df19294f591446 OP_EQUAL",
      "scriptpubkey_type": "p2sh",
      "scriptpubkey_address": "35ZVPwRv4hiM2oCiEtnVjTnYHkNg848cVf",
      "value": 54488
    },
    {
      "scriptpubkey": "76a914a83fec74fdbcea307e7253f601226de1743967a488ac",
      "scriptpubkey_asm": "OP_DUP OP_HASH160 OP_PUSHBYTES_20 a83fec74fdbcea307e7253f601226de1743967a4 OP_EQUALVERIFY OP_CHECKSIG",
      "scriptpubkey_type": "p2pkh",
      "scriptpubkey_address": "1GLd6iqPkZmhtFTUqv48wa1BVRGtmT6Fkf",
      "value": 217985
    }
  ],
  "size": 224,
  "weight": 896,
  "fee": 2464,
  "status": {
    "confirmed": true,
    "block_height": 834638,
    "block_hash": "000000000000000000025f742c626208ac87e0b7d15054abb4a19ca2d735a54e",
    "block_time": 1710405325
  },
  "hex": "01000000019cb2dcd0e3de41b843d577c27ba9d1b694aa1101cd0fb9319967924f598f38f8010000006b483045022100cac6ba70de12020cb1b1c57359b18f93f2ec8d5485c1d8321abe5850c70eea21022012fb6c87f102df114426e14a8e23db06b941447f169298b6772160180023e6d301210297d5c319270bf26ee1c44e8435fd90fc694f145cd5d50cb33f395bf3cc5737a6ffffffff02d8d400000000000017a9142a741bb27c6781f3cd586a7e39df19294f5914468781530300000000001976a914a83fec74fdbcea307e7253f601226de1743967a488ac00000000"
}