{
  "txid": "a9fa3ab85d97ebcd2c84f49ecc659203ba90e8658fc82c7a3136be15d69503e3",
  "version": 2,
  "locktime": 834442,
  "vin": [
    {
      "txid": "67af89ab84a34faf1160545ace447b594534485114170d3fad840e681cd55ad3",
      "vout": 1,
      "prevout": {
        "scriptpubkey": "00145cf99683f3d353b19f20d8933ee4d331d4d576f9",
        "scriptpubkey_asm": "OP_0 OP_PUSHBYTES_20 5cf99683f3d353b19f20d8933ee4d331d4d576f9",
        "scriptpubkey_type": "v0_p2wpkh",
        "scriptpubkey_address": "bc1qtnuedqln6dfmr8eqmzfnaexnx82d2ahe93wmkd",
        "value": 1952700
      },
      "scriptsig": "",
      "scriptsig_asm": "",
      "witness": [
        "3044022012fd23ad9a831f02ef9c8cd18101911b9cf29242f2380222ae7fffae75ea89c3022049d3b84f658a5ba4bfa8cff73439fa31f18b36c9194f5547d2128d80a01889e901",
        "02b2cbc34f084554b84337639e00ca7ec4e846d702b66e0b4c45c973a4b639c9bd"
      ],
      "is_coinbase": false,
      "sequence": 4294967293
    }
  ],
  "vout": [
    {
      "scriptpubkey": "0014235524ee875b0788e87f52b83d45400ca397917f",
      "scriptpubkey_asm": "OP_0 OP_PUSHBYTES_20 235524ee875b0788e87f52b83d45400ca397917f",
      "scriptpubkey_type": "v0_p2wpkh",
      "scriptpubkey_address": "bc1qyd2jfm58tvrc36rl22ur632qpj3e0ytlnr4p20",
      "value": 100000
    },
    {
      "scriptpubkey": "0014c61fc3208fb9aa5739e59694ac79e925f8ded335",
      "scriptpubkey_asm": "OP_0 OP_PUSHBYTES_20 c61fc3208fb9aa5739e59694ac79e925f8ded335",
      "scriptpubkey_type": "v0_p2wpkh",
      "scriptpubkey_address": "bc1qcc0uxgy0hx49ww09j622c70fyhuda5e43u4zqf",
      "value": 1851100
    }
  ],
  "size": 222,
  "weight": 561,
  "fee": 1600,
  "status": {
    "confirmed": true,
    "block_height": 834460,
    "block_hash": "00000000000000000000484a79b643b2524bbce82e5d8a442013fa5b8905ed98",
    "block_time": 1710307468
  },
  "hex": "02000000000101d35ad51c680e84ad3f0d171451483445597b44ce5a546011af4fa384ab89af670100000000fdffffff02a086010000000000160014235524ee875b0788e87f52b83d45400ca397917fdc3e1c0000000000160014c61fc3208fb9aa5739e59694ac79e925f8ded33502473044022012fd23ad9a831f02ef9c8cd18101911b9cf29242f2380222ae7fffae75ea89c3022049d3b84f658a5ba4bfa8cff73439fa31f18b36c9194f5547d2128d80a01889e9012102b2cbc34f084554b84337639e00ca7ec4e846d702b66e0b4c45c973a4b639c9bd8abb0c00"
}