{
  "txid": "aa0fa1b01d03e4e3414e68897809c9303784566537eb511bd5a1ca9b9e93f0f6",
  "version": 2,
  "locktime": 0,
  "vin": [
    {
      "txid": "3f69fae8ca9bdd774ca5294e86509449f431bb44e2206cae9f7f495b7952d9e2",
      "vout": 10,
      "prevout": {
        "scriptpubkey": "51205afafd09243c01a6179e1866c68783bccc6e10d6e25e8be78fc17dad800a22e6",
        "scriptpubkey_asm": "OP_PUSHNUM_1 OP_PUSHBYTES_32 5afafd09243c01a6179e1866c68783bccc6e10d6e25e8be78fc17dad800a22e6",
        "scriptpubkey_type": "v1_p2tr",
        "scriptpubkey_address": "bc1ptta06zfy8sq6v9u7rpnvdpurhnxxuyxkuf0gheu0c976mqq2ytnqlf8q48",
        "value": 2982
      },
      "scriptsig": "",
      "scriptsig_asm": "",
      "witness": [
        "6e67a7c7b95f725bce8a670d6440eebacc8d131b449dfa24da0eb17ccb122450cb45e57fe4cd6b637c310a2965a34f026a220e4ed448a3b52364a77b952206ac",
        "20567d1c756d30300c0c173b6df8e6c4f12fa547cadae264a8ced2e6416a5600f0ac0063036f726401011e6170706c69636174696f6e2f6a736f6e3b636861727365743d7574662d38004cb67b2270223a22706f772d3230222c226f70223a226d696e74222c227469636b223a2250455045222c22616d74223a2231303030222c22736f6c7574696f6e223a22504550453a334d524d3246744a42504c46315958564766504d33656556746675364446734762623a303030303030303030303030303030303030303139393431613561653132383937363539383134343239323533333030353762306461393666336465613163353a36363839363836343334227d68",
        "c16b70a06f37e9fa1ff7e7bec8bd1210228b25051d0c17b5264cdd8c73b544f454"
      ],
      "is_coinbase": false,
      "sequence": 4294967295
    }
  ],
  "vout": [
    {
      "scriptpubkey": "a914d86bcd8c487ad519e95c6557e7463d579cce14a287",
      "scriptpubkey_asm": "OP_HASH160 OP_PUSHBYTES_20 d86bcd8c487ad519e95c6557e7463d579cce14a2 OP_EQUAL",
      "scriptpubkey_type": "p2sh",
      "scriptpubkey_address": "3MRM2FtJBPLF1YXVGfPM3eeVtfu6DFsGbb",
      "value": 546
    }
  ],
  "size": 447,
  "weight": 696,
  "fee": 2436,
  "status": {
    "confirmed": true,
    "block_height": 834460,
    "block_hash": "00000000000000000000484a79b643b2524bbce82e5d8a442013fa5b8905ed98",
    "block_time": 1710307468
  },
  "hex": "02000000000101e2d952795b497f9fae6c20e244bb31f4499450864e29a54c77dd9bcae8fa693f0a00000000ffffffff01220200000000000017a914d86bcd8c487ad519e95c6557e7463d579cce14a28703406e67a7c7b95f725bce8a670d6440eebacc8d131b449dfa24da0eb17ccb122450cb45e57fe4cd6b637c310a2965a34f026a220e4ed448a3b52364a77b952206acfd030120567d1c756d30300c0c173b6df8e6c4f12fa547cadae264a8ced2e6416a5600f0ac0063036f726401011e6170706c69636174696f6e2f6a736f6e3b636861727365743d7574662d38004cb67b2270223a22706f772d3230222c226f70223a226d696e74222c227469636b223a2250455045222c22616d74223a2231303030222c22736f6c7574696f6e223a22504550453a334d524d3246744a42504c46315958564766504d33656556746675364446734762623a303030303030303030303030303030303030303139393431613561653132383937363539383134343239323533333030353762306461393666336465613163353a36363839363836343334227d6821c16b70a06f37e9fa1ff7e7bec8bd1210228b25051d0c17b5264cdd8c73b544f45400000000"
}