{
  "txid": "aa38fc0507ca3ce3ed337906c6664c65f1974a2c900d7780cbe2db5bd7082d65",
  "version": 2,
  "locktime": 0,
  "vin": [
    {
      "txid": "e8818a9087ff3bd5b5eccf9262212df5a3020b3898fbc2c5b35110e38c9d0b77",
      "vout": 3,
      "prevout": {
        "scriptpubkey": "001447f2737807eb86e32f01b7d94c4dc4ef52ff3878",
        "scriptpubkey_asm": "OP_0 OP_PUSHBYTES_20 47f2737807eb86e32f01b7d94c4dc4ef52ff3878",
        "scriptpubkey_type": "v0_p2wpkh",
        "scriptpubkey_address": "bc1qgle8x7q8awrwxtcpklv5cnwyaaf07wrchpalhw",
        "value": 10000000
      },
      "scriptsig": "",
      "scriptsig_asm": "",
      "witness": [
        "3044022075c4d1f918b8519e236872e36a3eb3922fbfed661ca6b8d39103cefad23df85602200645c002cd41598d4e191f224c5e08008a4715293e14382533f4d9bb0c37c4ca01",
        "039ddd72305ef3c826c5e8049d85b6e88bba5456f61300123912b8810148624fb3"
      ],
      "is_coinbase": false,
      "sequence": 0
    },
    {
      "txid": "a4c3d3f7005246701cf68d6aa033f0b54b5f85a6f3e3b9d7d7326c19b58fda59",
      "vout": 1,
      "prevout": {
        "scriptpubkey": "0014093affbdd3fd7e2a3f2d6b32d2e1688d71abd8f1",
        "scriptpubkey_asm": "OP_0 OP_PUSHBYTES_20 093affbdd3fd7e2a3f2d6b32d2e1688d71abd8f1",
        "scriptpubkey_type": "v0_p2wpkh",
        "scriptpubkey_address": "bc1qpya0l0wnl4lz50eddved9ctg34c6hk83l2gzl5",
        "value": 189998153
      },
      "scriptsig": "",
      "scriptsig_asm": "",
      "witness": [
        "3045022100c63fcf812d6028fb44a4208192563829c4b087e3832b948f7e85d2c6afa96fc602205d93f596033e629d88d6c9b4c1aa099ad59dcc6d94050c2492061adae7a9a4fe01",
        "03e966bad80697d016a98f5e7629880d9be7c9d5810971604cd6d81634cec4685a"
      ],
      "is_coinbase": false,
      "sequence": 0
    },
    {
      "txid": "aa4b83817e288b2dc1a5e16f590b732262acb80392ac9866492009ab2ab373b8",
      "vout": 1,
      "prevout": {
        "scriptpubkey": "0014e0e85a2aa088b4e14ba3d60be0dc9f3dd8f7755c",
        "scriptpubkey_asm": "OP_0 OP_PUSHBYTES_20 e0e85a2aa088b4e14ba3d60be0dc9f3dd8f7755c",
        "scriptpubkey_type": "v0_p2wpkh",
        "scriptpubkey_address": "bc1qur59524q3z6wzjar6c97phyl8hv0wa2unxv8gu",
        "value": 278000000
      },
      "scriptsig": "",
      "scriptsig_asm": "",
      "witness": [
        "3045022100db39c2e744c1520fd5767e41f7eda59620d24e17cfc9a62bf7216dda626dc71902207386af3c4edd371358d4ab30cef59267f8808edaab865edaa2c3f7c22cf8915c01",
        "02b09fa4f75f12980dc9981cc9d719ab5f9ee0702723e18a57f6e6c0f4e0c2d484"
      ],
      "is_coinbase": false,
      "sequence": 0
    }
  ],
  "vout": [
    {
      "scriptpubkey": "001444d4c3d28c1610f97b4728fb66756da576ef61fc",
      "scriptpubkey_asm": "OP_0 OP_PUSHBYTES_20 44d4c3d28c1610f97b4728fb66756da576ef61fc",
      "scriptpubkey_type": "v0_p2wpkh",
      "scriptpubkey_address": "bc1qgn2v855vzcg0j7689rakvatd54mw7c0ujt0x36",
      "value": 467000000
    },
    {
      "scriptpubkey": "0014b28151a30c90124b4aaa594846c76799bec5df5f",
      "scriptpubkey_asm": "OP_0 OP_PUSHBYTES_20 b28151a30c90124b4aaa594846c76799bec5df5f",
      "scriptpubkey_type": "v0_p2wpkh",
      "scriptpubkey_address": "bc1qk2q4rgcvjqfykj42t9yyd3m8nxlvth6lc3099x",
      "value": 10993212
    }
  ],
  "size": 520,
  "weight": 1105,
  "fee": 4941,
  "status": {
    "confirmed": true,
    "block_height": 834638,
    "block_hash": "000000000000000000025f742c626208ac87e0b7d15054abb4a19ca2d735a54e",
    "block_time": 1710405325
  },
  "hex": "02000000000103770b9d8ce31051b3c5c2fb98380b02a3f52d216292cfecb5d53bff87908a81e803000000000000000059da8fb5196c32d7d7b9e3f3a6855f4bb5f033a06a8df61c70465200f7d3c3a4010000000000000000b873b32aab0920496698ac9203b8ac6222730b596fe1a5c12d8b287e81834baa01000000000000000002c0dad51b0000000016001444d4c3d28c1610f97b4728fb66756da576ef61fc3cbea70000000000160014b28151a30c90124b4aaa594846c76799bec5df5f02473044022075c4d1f918b8519e236872e36a3eb3922fbfed661ca6b8d39103cefad23df85602200645c002cd41598d4e191f224c5e08008a4715293e14382533f4d9bb0c37c4ca0121039ddd72305ef3c826c5e8049d85b6e88bba5456f61300123912b8810148624fb302483045022100c63fcf812d6028fb44a4208192563829c4b087e3832b948f7e85d2c6afa96fc602205d93f596033e629d88d6c9b4c1aa099ad59dcc6d94050c2492061adae7a9a4fe012103e966bad80697d016a98f5e7629880d9be7c9d5810971604cd6d81634cec4685a02483045022100db39c2e744c1520fd5767e41f7eda59620d24e17cfc9a62bf7216dda626dc71902207386af3c4edd371358d4ab30cef59267f8808edaab865edaa2c3f7c22cf8915c012102b09fa4f75f12980dc9981cc9d719ab5f9ee0702723e18a57f6e6c0f4e0c2d48400000000"
}