{
  "txid": "aa3a39ddbb27ece5a8df3a6f5fe30e009864bdd6418e98846349298db06d9bb1",
  "version": 2,
  "locktime": 0,
  "vin": [
    {
      "txid": "acc3ba00869acb582a3f2904ce3a11dd3779350ce234063fc7d0959246213364",
      "vout": 172,
      "prevout": {
        "scriptpubkey": "512086571a9660a30d6e43f4a4bd5822759e6a29902d276dec55d58235f931b72384",
        "scriptpubkey_asm": "OP_PUSHNUM_1 OP_PUSHBYTES_32 86571a9660a30d6e43f4a4bd5822759e6a29902d276dec55d58235f931b72384",
        "scriptpubkey_type": "v1_p2tr",
        "scriptpubkey_address": "bc1pset349nq5vxkusl55j74sgn4ne4znypdyak7c4w4sg6ljvdhywzqzv7v2v",
        "value": 1806
      },
      "scriptsig": "",
      "scriptsig_asm": "",
      "witness": [
        "fb1cdae136b7affef0a8edc8cc4751e74fa607cea4331d8339c0d9194999570d4b90e8f221210d18a2df6206c9612badf79136a63413de42c23eda7cf7fe9152",
        "20cc33d2eec0feaa05883b306d2f36d78741f861cc1b5eac3c013400eaf816960fac0063036f726401010a746578742f706c61696e00357b2270223a226272632d3230222c226f70223a226d696e74222c227469636b223a22646f6765222c22616d74223a2234323030227d68",
        "c1cc33d2eec0feaa05883b306d2f36d78741f861cc1b5eac3c013400eaf816960f"
      ],
      "is_coinbase": false,
      "sequence": 4261412863
    }
  ],
  "vout": [
    {
      "scriptpubkey": "00147a665de7a370f4c9b372ab1fae587500a5bcbdb4",
      "scriptpubkey_asm": "OP_0 OP_PUSHBYTES_20 7a665de7a370f4c9b372ab1fae587500a5bcbdb4",
      "scriptpubkey_type": "v0_p2wpkh",
      "scriptpubkey_address": "bc1q0fn9mearwr6vnvmj4v06ukr4qzjme0d565dzcx",
      "value": 294
    }
  ],
  "size": 294,
  "weight": 540,
  "fee": 1512,
  "status": {
    "confirmed": true,
    "block_height": 834460,
    "block_hash": "00000000000000000000484a79b643b2524bbce82e5d8a442013fa5b8905ed98",
    "block_time": 1710307468
  },
  "hex": "02000000000101643321469295d0c73f0634e20c357937dd113ace04293f2a58cb9a8600bac3acac00000000fffffffd0126010000000000001600147a665de7a370f4c9b372ab1fae587500a5bcbdb40340fb1cdae136b7affef0a8edc8cc4751e74fa607cea4331d8339c0d9194999570d4b90e8f221210d18a2df6206c9612badf79136a63413de42c23eda7cf7fe91526d20cc33d2eec0feaa05883b306d2f36d78741f861cc1b5eac3c013400eaf816960fac0063036f726401010a746578742f706c61696e00357b2270223a226272632d3230222c226f70223a226d696e74222c227469636b223a22646f6765222c22616d74223a2234323030227d6821c1cc33d2eec0feaa05883b306d2f36d78741f861cc1b5eac3c013400eaf816960f00000000"
}