{
  "txid": "aa437628638cb98163f14fc91b2029b24aa19303fde63e9c33a509c1a9a7b62a",
  "version": 2,
  "locktime": 834637,
  "vin": [
    {
      "txid": "7fbd9853cdbde7cb5e11eafc0597b1cab3a895a39a05fc9c5b5981a0122bc144",
      "vout": 1,
      "prevout": {
        "scriptpubkey": "00143385a8a758559a4a10af9dbf0c5f55d49cde683e",
        "scriptpubkey_asm": "OP_0 OP_PUSHBYTES_20 3385a8a758559a4a10af9dbf0c5f55d49cde683e",
        "scriptpubkey_type": "v0_p2wpkh",
        "scriptpubkey_address": "bc1qxwz63f6c2kdy5y90nklsch646jwdu6p7uu30eg",
        "value": 267919026
      },
      "scriptsig": "",
      "scriptsig_asm": "",
      "witness": [
        "304402207cef9c6d41f52454528bd53289e85bf3162cb652b8c45a036a9538745718e39b022025cc4a8fcc44e9cc5adae537bab117e17b5618f7716a278e20195c14ff5004e801",
        "024195d99df7e1fe276960f207647e81709e85d8225fce66d78671f0f3def67291"
      ],
      "is_coinbase": false,
      "sequence": 4294967294
    }
  ],
  "vout": [
    {
      "scriptpubkey": "00146b16c5d8edbc9616472cbb0fda4f2306543bd77e",
      "scriptpubkey_asm": "OP_0 OP_PUSHBYTES_20 6b16c5d8edbc9616472cbb0fda4f2306543bd77e",
      "scriptpubkey_type": "v0_p2wpkh",
      "scriptpubkey_address": "bc1qdvtvtk8dhjtpv3evhv8a5nerqe2rh4m7hq7sy7",
      "value": 266814970
    },
    {
      "scriptpubkey": "0014fed09f1be3d1bafe9c73be9fdd50708f642ed3cb",
      "scriptpubkey_asm": "OP_0 OP_PUSHBYTES_20 fed09f1be3d1bafe9c73be9fdd50708f642ed3cb",
      "scriptpubkey_type": "v0_p2wpkh",
      "scriptpubkey_address": "bc1qlmgf7xlr6xa0a8rnh60a65rs3ajza57tt8mef3",
      "value": 1100600
    }
  ],
  "size": 222,
  "weight": 561,
  "fee": 3456,
  "status": {
    "confirmed": true,
    "block_height": 834638,
    "block_hash": "000000000000000000025f742c626208ac87e0b7d15054abb4a19ca2d735a54e",
    "block_time": 1710405325
  },
  "hex": "0200000000010144c12b12a081595b9cfc059aa395a8b3cab19705fcea115ecbe7bdcd5398bd7f0100000000feffffff02fa45e70f000000001600146b16c5d8edbc9616472cbb0fda4f2306543bd77e38cb100000000000160014fed09f1be3d1bafe9c73be9fdd50708f642ed3cb0247304402207cef9c6d41f52454528bd53289e85bf3162cb652b8c45a036a9538745718e39b022025cc4a8fcc44e9cc5adae537bab117e17b5618f7716a278e20195c14ff5004e80121024195d99df7e1fe276960f207647e81709e85d8225fce66d78671f0f3def672914dbc0c00"
}