{
  "txid": "aa45fa3b7621aaaa3e40ddc3c88eab869155a457055c7f9094c3d9ed60472483",
  "version": 2,
  "locktime": 0,
  "vin": [
    {
      "txid": "246d654c08ac53d370d501753f3ac2c90861e2c8cea715ed4b7554841cced399",
      "vout": 71,
      "prevout": {
        "scriptpubkey": "51209d665f178486bfb3db85ea323a3dd50d957970439b3fe1d68b9517b3bfd0ee00",
        "scriptpubkey_asm": "OP_PUSHNUM_1 OP_PUSHBYTES_32 9d665f178486bfb3db85ea323a3dd50d957970439b3fe1d68b9517b3bfd0ee00",
        "scriptpubkey_type": "v1_p2tr",
        "scriptpubkey_address": "bc1pn4n979uys6lm8ku9ager50w4pk2hjuzrnvl7r45tj5tm807sacqqslp2hx",
        "value": 3055
      },
      "scriptsig": "",
      "scriptsig_asm": "",
      "witness": [
        "39e4aba829a66dbb13006eaeeb300c480fe50c34498d49f4e91db4da4f50b93a77c5f8c57ec111c8d228dca06fc211666442ba3b782bb66e77d44dee8615bdc2",
        "203f53bfe565861a2ff4c2dff4f23687e6c5cb23753459aca46298f58fc2f13fb3ac0063036f726401011e6170706c69636174696f6e2f6a736f6e3b636861727365743d7574662d38004cd37b2270223a22706f772d3230222c226f70223a226d696e74222c227469636b223a2250455045222c22616d74223a2231303030222c22736f6c7574696f6e223a22504550453a62633170756a666d33753333656e70786b38383339796c6b3239323239396b6e6467686c717468396e39647a6c7663647635617076366a717732776e71663a303030303030303030303030303030303030303139393431613561653132383937363539383134343239323533333030353762306461393666336465613163353a3438383535323439353931227d68",
        "c1f4929cb66946e40c5d3e5e2b126f88b9a6070d7490abd3aa8e42bf5bbcfe7b9f"
      ],
      "is_coinbase": false,
      "sequence": 4294967295
    }
  ],
  "vout": [
    {
      "scriptpubkey": "5120e493b8f231ccc26b1cf1293f65154a296d36a2ff02ee5995a2fb30d653a166a4",
      "scriptpubkey_asm": "OP_PUSHNUM_1 OP_PUSHBYTES_32 e493b8f231ccc26b1cf1293f65154a296d36a2ff02ee5995a2fb30d653a166a4",
      "scriptpubkey_type": "v1_p2tr",
      "scriptpubkey_address": "bc1pujfm3u33enpxk8839ylk292299kndghlqth9n9dzlvcdv5apv6jqw2wnqf",
      "value": 546
    }
  ],
  "size": 487,
  "weight": 769,
  "fee": 2509,
  "status": {
    "confirmed": true,
    "block_height": 834460,
    "block_hash": "00000000000000000000484a79b643b2524bbce82e5d8a442013fa5b8905ed98",
    "block_time": 1710307468
  },
  "hex": "0200000000010199d3ce1c8454754bed15a7cec8e26108c9c23a3f7501d570d353ac084c656d244700000000ffffffff012202000000000000225120e493b8f231ccc26b1cf1293f65154a296d36a2ff02ee5995a2fb30d653a166a4034039e4aba829a66dbb13006eaeeb300c480fe50c34498d49f4e91db4da4f50b93a77c5f8c57ec111c8d228dca06fc211666442ba3b782bb66e77d44dee8615bdc2fd2001203f53bfe565861a2ff4c2dff4f23687e6c5cb23753459aca46298f58fc2f13fb3ac0063036f726401011e6170706c69636174696f6e2f6a736f6e3b636861727365743d7574662d38004cd37b2270223a22706f772d3230222c226f70223a226d696e74222c227469636b223a2250455045222c22616d74223a2231303030222c22736f6c7574696f6e223a22504550453a62633170756a666d33753333656e70786b38383339796c6b3239323239396b6e6467686c717468396e39647a6c7663647635617076366a717732776e71663a303030303030303030303030303030303030303139393431613561653132383937363539383134343239323533333030353762306461393666336465613163353a3438383535323439353931227d6821c1f4929cb66946e40c5d3e5e2b126f88b9a6070d7490abd3aa8e42bf5bbcfe7b9f00000000"
}