{
  "txid": "aa55d2da04ca33101ce4cede60d9bfd5a346e0f561f146fa0150056e69118fd9",
  "version": 1,
  "locktime": 0,
  "vin": [
    {
      "txid": "b4ead951b1e39e6931b626ba731f46093dd0ba61551115d5d9ef1c56461c49df",
      "vout": 0,
      "prevout": {
        "scriptpubkey": "512052a1f6bbe1e3f699580ef973dc2065455ed9ed46141f32da09cd5dc6dae61222",
        "scriptpubkey_asm": "OP_PUSHNUM_1 OP_PUSHBYTES_32 52a1f6bbe1e3f699580ef973dc2065455ed9ed46141f32da09cd5dc6dae61222",
        "scriptpubkey_type": "v1_p2tr",
        "scriptpubkey_address": "bc1p22sldwlpu0mfjkqwl9eacgr9g40dnm2xzs0n9ksfe4wudkhxzg3qudu2wr",
        "value": 2346
      },
      "scriptsig": "",
      "scriptsig_asm": "",
      "witness": [
        "2d36ff38d7aa70d5e6612580e1e1d2278f38daa920d01bde24980281dd9cf3e1d8113cf6d45fcbd36f226171d70b9c6f6c981ece72746057d2b70d865d3d724f",
        "209e1eb5e5762ec32a4942a6c844dc58ad895adbeaca27ff1d8c753f438e5aa896ac0063036f726401010a746578742f706c61696e003e7b2270223a226272632d3230222c226f70223a227472616e73666572222c227469636b223a2253415453222c22616d74223a22313030303030303030227d68",
        "c19e1eb5e5762ec32a4942a6c844dc58ad895adbeaca27ff1d8c753f438e5aa896"
      ],
      "is_coinbase": false,
      "sequence": 4294967293
    }
  ],
  "vout": [
    {
      "scriptpubkey": "51206164a32c1a1f449c4cab189ac6ccae06b20252997931415caddc4af1be1a45b3",
      "scriptpubkey_asm": "OP_PUSHNUM_1 OP_PUSHBYTES_32 6164a32c1a1f449c4cab189ac6ccae06b20252997931415caddc4af1be1a45b3",
      "scriptpubkey_type": "v1_p2tr",
      "scriptpubkey_address": "bc1pv9j2xtq6razfcn9trzdvdn9wq6eqy55e0yc5zh9dm390r0s6gkes5zk653",
      "value": 546
    }
  ],
  "size": 315,
  "weight": 597,
  "fee": 1800,
  "status": {
    "confirmed": true,
    "block_height": 834460,
    "block_hash": "00000000000000000000484a79b643b2524bbce82e5d8a442013fa5b8905ed98",
    "block_time": 1710307468
  },
  "hex": "01000000000101df491c46561cefd9d515115561bad03d09461f73ba26b631699ee3b151d9eab40000000000fdffffff0122020000000000002251206164a32c1a1f449c4cab189ac6ccae06b20252997931415caddc4af1be1a45b303402d36ff38d7aa70d5e6612580e1e1d2278f38daa920d01bde24980281dd9cf3e1d8113cf6d45fcbd36f226171d70b9c6f6c981ece72746057d2b70d865d3d724f76209e1eb5e5762ec32a4942a6c844dc58ad895adbeaca27ff1d8c753f438e5aa896ac0063036f726401010a746578742f706c61696e003e7b2270223a226272632d3230222c226f70223a227472616e73666572222c227469636b223a2253415453222c22616d74223a22313030303030303030227d6821c19e1eb5e5762ec32a4942a6c844dc58ad895adbeaca27ff1d8c753f438e5aa89600000000"
}