{
  "txid": "aa5a705c3925310445303cbaaf57ad76ef3937cd871bf6e350603c4676f8fce6",
  "version": 2,
  "locktime": 0,
  "vin": [
    {
      "txid": "5679651a52c8a82d4c53a616f1490ba60891e99a5508ff574962f0783f10f1a9",
      "vout": 89,
      "prevout": {
        "scriptpubkey": "76a914a8be3ec142c478f283a424b04bf9a27c81d038e188ac",
        "scriptpubkey_asm": "OP_DUP OP_HASH160 OP_PUSHBYTES_20 a8be3ec142c478f283a424b04bf9a27c81d038e1 OP_EQUALVERIFY OP_CHECKSIG",
        "scriptpubkey_type": "p2pkh",
        "scriptpubkey_address": "1GPERh6cjBtXANH2Ugpf9k3YcscmsSV5b1",
        "value": 1201998
      },
      "scriptsig": "483045022100e1d2964b6b1a2402e84645c29a88d0b2da8b19bc346bbf0ead7929cdfc2e07b302201e2ac0f0cdfc26f5e17910253ab843cd01bc178cecbe5b657477d4437e69255d0121028eece9d9ad01bd69c208981caccf7bb70de1d0243ab7051a983e850871bf7aa8",
      "scriptsig_asm": "OP_PUSHBYTES_72 3045022100e1d2964b6b1a2402e84645c29a88d0b2da8b19bc346bbf0ead7929cdfc2e07b302201e2ac0f0cdfc26f5e17910253ab843cd01bc178cecbe5b657477d4437e69255d01 OP_PUSHBYTES_33 028eece9d9ad01bd69c208981caccf7bb70de1d0243ab7051a983e850871bf7aa8",
      "is_coinbase": false,
      "sequence": 4294967295
    }
  ],
  "vout": [
    {
      "scriptpubkey": "a9141fbe70c82932062ab7917a61014fefeb0db80d4d87",
      "scriptpubkey_asm": "OP_HASH160 OP_PUSHBYTES_20 1fbe70c82932062ab7917a61014fefeb0db80d4d OP_EQUAL",
      "scriptpubkey_type": "p2sh",
      "scriptpubkey_address": "34as1XpVk3ATGweCYQhbasxfWrZWNymefb",
      "value": 1196871
    }
  ],
  "size": 190,
  "weight": 760,
  "fee": 5127,
  "status": {
    "confirmed": true,
    "block_height": 834638,
    "block_hash": "000000000000000000025f742c626208ac87e0b7d15054abb4a19ca2d735a54e",
    "block_time": 1710405325
  },
  "hex": "0200000001a9f1103f78f0624957ff08559ae99108a60b49f116a6534c2da8c8521a657956590000006b483045022100e1d2964b6b1a2402e84645c29a88d0b2da8b19bc346bbf0ead7929cdfc2e07b302201e2ac0f0cdfc26f5e17910253ab843cd01bc178cecbe5b657477d4437e69255d0121028eece9d9ad01bd69c208981caccf7bb70de1d0243ab7051a983e850871bf7aa8ffffffff01474312000000000017a9141fbe70c82932062ab7917a61014fefeb0db80d4d8700000000"
}