{
  "txid": "aa63d04ba24a2009b744888777e8047ad6f4ef85fc21293fddc6853ba64901c1",
  "version": 2,
  "locktime": 0,
  "vin": [
    {
      "txid": "18a795ba3912b2dc2f1aded94033b525bae00e900608a3c0d0e2a0b837c99147",
      "vout": 2,
      "prevout": {
        "scriptpubkey": "512064b6beedce20ee4ac99f3cb26ee7ad887cd0e446de5120868d18e285557d0b94",
        "scriptpubkey_asm": "OP_PUSHNUM_1 OP_PUSHBYTES_32 64b6beedce20ee4ac99f3cb26ee7ad887cd0e446de5120868d18e285557d0b94",
        "scriptpubkey_type": "v1_p2tr",
        "scriptpubkey_address": "bc1pvjmtamwwyrhy4jvl8jexaead3p7dpezxmegjpp5drr3g24tapw2q3l7rll",
        "value": 450000
      },
      "scriptsig": "",
      "scriptsig_asm": "",
      "witness": [
        "a63628dc3661ae2712bae4baa5772c56749e2fde4cc7bb67c5d3f1e64b72daf2b4adfdcb4992743a1a6c6568e71bf4d21b3507e3dfd3c144bb405d8233704021"
      ],
      "is_coinbase": false,
      "sequence": 4294967293
    }
  ],
  "vout": [
    {
      "scriptpubkey": "51201da68f261b717232131551825a8c033d2de0988e26f99d80c83fa9cdea8cbd25",
      "scriptpubkey_asm": "OP_PUSHNUM_1 OP_PUSHBYTES_32 1da68f261b717232131551825a8c033d2de0988e26f99d80c83fa9cdea8cbd25",
      "scriptpubkey_type": "v1_p2tr",
      "scriptpubkey_address": "bc1prkng7fsmw9eryyc42xp94rqr85k7pxywymuemqxg875um65vh5js3jjn0w",
      "value": 3164
    },
    {
      "scriptpubkey": "512064b6beedce20ee4ac99f3cb26ee7ad887cd0e446de5120868d18e285557d0b94",
      "scriptpubkey_asm": "OP_PUSHNUM_1 OP_PUSHBYTES_32 64b6beedce20ee4ac99f3cb26ee7ad887cd0e446de5120868d18e285557d0b94",
      "scriptpubkey_type": "v1_p2tr",
      "scriptpubkey_address": "bc1pvjmtamwwyrhy4jvl8jexaead3p7dpezxmegjpp5drr3g24tapw2q3l7rll",
      "value": 444218
    }
  ],
  "size": 205,
  "weight": 616,
  "fee": 2618,
  "status": {
    "confirmed": true,
    "block_height": 834638,
    "block_hash": "000000000000000000025f742c626208ac87e0b7d15054abb4a19ca2d735a54e",
    "block_time": 1710405325
  },
  "hex": "020000000001014791c937b8a0e2d0c0a30806900ee0ba25b53340d9de1a2fdcb21239ba95a7180200000000fdffffff025c0c0000000000002251201da68f261b717232131551825a8c033d2de0988e26f99d80c83fa9cdea8cbd253ac706000000000022512064b6beedce20ee4ac99f3cb26ee7ad887cd0e446de5120868d18e285557d0b940140a63628dc3661ae2712bae4baa5772c56749e2fde4cc7bb67c5d3f1e64b72daf2b4adfdcb4992743a1a6c6568e71bf4d21b3507e3dfd3c144bb405d823370402100000000"
}