{
  "txid": "aa6a8527b7961f3f4d243a044d3f70c86ef5604c02461f9d923be73cca40ada6",
  "version": 2,
  "locktime": 834431,
  "vin": [
    {
      "txid": "e06169f1ab3a02b3af034d4b674eedf4a332868b67bd650433c8fb5ab3a993ba",
      "vout": 0,
      "prevout": {
        "scriptpubkey": "001428ffb9716b468b09889424498e52c98aa646763d",
        "scriptpubkey_asm": "OP_0 OP_PUSHBYTES_20 28ffb9716b468b09889424498e52c98aa646763d",
        "scriptpubkey_type": "v0_p2wpkh",
        "scriptpubkey_address": "bc1q9rlmjuttg69snzy5y3ycu5kf32nyva3a9q3cg8",
        "value": 299495
      },
      "scriptsig": "",
      "scriptsig_asm": "",
      "witness": [
        "30440220635155678194f077532c4f3de6e7c2b798765e97f594e9e7875acde660a3799202203261eb0871bbde20ba81c8ef9fc1425880be14eeffbd7a8fc2820adecec29e0901",
        "02b02c94db5cb20e0fcd2e934bffdea3ab4267197a8fd640b01efcf3f85e9f6014"
      ],
      "is_coinbase": false,
      "sequence": 4294967293
    },
    {
      "txid": "37dceba7ea781106c98e8a33709c381973bc2d67e8cb352064af12a6f4b8514d",
      "vout": 23,
      "prevout": {
        "scriptpubkey": "00148d41e24f8823b7f2aac2a9c861594c6f6201a44e",
        "scriptpubkey_asm": "OP_0 OP_PUSHBYTES_20 8d41e24f8823b7f2aac2a9c861594c6f6201a44e",
        "scriptpubkey_type": "v0_p2wpkh",
        "scriptpubkey_address": "bc1q34q7ynugywml92kz48yxzk2vda3qrfzw3v3wjg",
        "value": 1440017
      },
      "scriptsig": "",
      "scriptsig_asm": "",
      "witness": [
        "3044022057fed9c0513a5c9c085ad11d444ce1b10b152d0aac89cabf6b244f9d93a503f8022048f9711d1e47ad1deacaf2728b4649be7180239fc94b366d42161681d5e6228e01",
        "02251d88dc6e3fc1cde2c94b6391c9847bda42661e07df289b93661afa7734ca35"
      ],
      "is_coinbase": false,
      "sequence": 4294967293
    },
    {
      "txid": "ce21dd9adab215d2adeec8a855dd5150f38d6105962b227cd423874229746099",
      "vout": 1,
      "prevout": {
        "scriptpubkey": "001411dc00fc691e68eb230149eba4a386021a9d5027",
        "scriptpubkey_asm": "OP_0 OP_PUSHBYTES_20 11dc00fc691e68eb230149eba4a386021a9d5027",
        "scriptpubkey_type": "v0_p2wpkh",
        "scriptpubkey_address": "bc1qz8wqplrfre5wkgcpf846fguxqgdf65p8adcfrp",
        "value": 103203
      },
      "scriptsig": "",
      "scriptsig_asm": "",
      "witness": [
        "3044022000eed480592da22d1c8891716593a42a56ed4e3904bf08cb253b3efda9cf559a0220631c2e743be282dea724949b70b17c7565e962fd6ea843d393efcb3dbc84050e01",
        "03f6d0bb75f9046634e1734ff29d6db3e57176e5e4801eecfb9ff852fc13889553"
      ],
      "is_coinbase": false,
      "sequence": 4294967293
    }
  ],
  "vout": [
    {
      "scriptpubkey": "0014fd9a8e92b12f6dccf175edb74a526c39e247108d",
      "scriptpubkey_asm": "OP_0 OP_PUSHBYTES_20 fd9a8e92b12f6dccf175edb74a526c39e247108d",
      "scriptpubkey_type": "v0_p2wpkh",
      "scriptpubkey_address": "bc1qlkdgay439akueut4akm555nv883ywyydft2nse",
      "value": 1839261
    }
  ],
  "size": 487,
  "weight": 979,
  "fee": 3454,
  "status": {
    "confirmed": true,
    "block_height": 834460,
    "block_hash": "00000000000000000000484a79b643b2524bbce82e5d8a442013fa5b8905ed98",
    "block_time": 1710307468
  },
  "hex": "02000000000103ba93a9b35afbc8330465bd678b8632a3f4ed4e674b4d03afb3023aabf16961e00000000000fdffffff4d51b8f4a612af642035cbe8672dbc7319389c70338a8ec9061178eaa7ebdc371700000000fdffffff99607429428723d47c222b9605618df35051dd55a8c8eeadd215b2da9add21ce0100000000fdffffff019d101c0000000000160014fd9a8e92b12f6dccf175edb74a526c39e247108d024730440220635155678194f077532c4f3de6e7c2b798765e97f594e9e7875acde660a3799202203261eb0871bbde20ba81c8ef9fc1425880be14eeffbd7a8fc2820adecec29e09012102b02c94db5cb20e0fcd2e934bffdea3ab4267197a8fd640b01efcf3f85e9f601402473044022057fed9c0513a5c9c085ad11d444ce1b10b152d0aac89cabf6b244f9d93a503f8022048f9711d1e47ad1deacaf2728b4649be7180239fc94b366d42161681d5e6228e012102251d88dc6e3fc1cde2c94b6391c9847bda42661e07df289b93661afa7734ca3502473044022000eed480592da22d1c8891716593a42a56ed4e3904bf08cb253b3efda9cf559a0220631c2e743be282dea724949b70b17c7565e962fd6ea843d393efcb3dbc84050e012103f6d0bb75f9046634e1734ff29d6db3e57176e5e4801eecfb9ff852fc138895537fbb0c00"
}