{
  "txid": "aa802720724db4fad5a7acb36640161a964aa9cf01e917768efb377ffe94d744",
  "version": 2,
  "locktime": 0,
  "vin": [
    {
      "txid": "02cf9ccd53be682a90a80da962691c9c21b82d517cf25f0e9ace7e998bd585cd",
      "vout": 1,
      "prevout": {
        "scriptpubkey": "00146b41a9735de6405d780cce8cfdc6806d2cdef0dd",
        "scriptpubkey_asm": "OP_0 OP_PUSHBYTES_20 6b41a9735de6405d780cce8cfdc6806d2cdef0dd",
        "scriptpubkey_type": "v0_p2wpkh",
        "scriptpubkey_address": "bc1qddq6ju6aueq967qve6x0m35qd5kdauxaw0qqh4",
        "value": 3641883
      },
      "scriptsig": "",
      "scriptsig_asm": "",
      "witness": [
        "304402203034e0733ab2c19c87542d4027d91300bfef03457a3d4f9fb6ef4a89182ff873022072cc9c4787c6aff450e509ea7f658e1d898c878f736c3a92cfe610d549a2440301",
        "0255fd87079cc09873cd1424fe05665d1731a264f86f42936e27faaf0ce490db05"
      ],
      "is_coinbase": false,
      "sequence": 4294967295
    }
  ],
  "vout": [
    {
      "scriptpubkey": "00146b41a9735de6405d780cce8cfdc6806d2cdef0dd",
      "scriptpubkey_asm": "OP_0 OP_PUSHBYTES_20 6b41a9735de6405d780cce8cfdc6806d2cdef0dd",
      "scriptpubkey_type": "v0_p2wpkh",
      "scriptpubkey_address": "bc1qddq6ju6aueq967qve6x0m35qd5kdauxaw0qqh4",
      "value": 2277845
    },
    {
      "scriptpubkey": "a914f0d666ce956b72806d85dc0fa426f39aa1cdb89d87",
      "scriptpubkey_asm": "OP_HASH160 OP_PUSHBYTES_20 f0d666ce956b72806d85dc0fa426f39aa1cdb89d OP_EQUAL",
      "scriptpubkey_type": "p2sh",
      "scriptpubkey_address": "3PeSwU28B4XcgWCEhx5UNR8e4JptuKFuzd",
      "value": 1361467
    }
  ],
  "size": 223,
  "weight": 565,
  "fee": 2571,
  "status": {
    "confirmed": true,
    "block_height": 834638,
    "block_hash": "000000000000000000025f742c626208ac87e0b7d15054abb4a19ca2d735a54e",
    "block_time": 1710405325
  },
  "hex": "02000000000101cd85d58b997ece9a0e5ff27c512db8219c1c6962a90da8902a68be53cd9ccf020100000000ffffffff02d5c12200000000001600146b41a9735de6405d780cce8cfdc6806d2cdef0dd3bc614000000000017a914f0d666ce956b72806d85dc0fa426f39aa1cdb89d870247304402203034e0733ab2c19c87542d4027d91300bfef03457a3d4f9fb6ef4a89182ff873022072cc9c4787c6aff450e509ea7f658e1d898c878f736c3a92cfe610d549a2440301210255fd87079cc09873cd1424fe05665d1731a264f86f42936e27faaf0ce490db0500000000"
}