{
  "txid": "aa9492df75947757b4c54eb3514d252753311d5ea010e87b872703839b8777d3",
  "version": 2,
  "locktime": 0,
  "vin": [
    {
      "txid": "2b7ec05ec2b73d0853db50619ac026ef5eaf6767c2bff444210dc96505092442",
      "vout": 0,
      "prevout": {
        "scriptpubkey": "a91487df25974efbcc34addca529afdd38ae3165ef9387",
        "scriptpubkey_asm": "OP_HASH160 OP_PUSHBYTES_20 87df25974efbcc34addca529afdd38ae3165ef93 OP_EQUAL",
        "scriptpubkey_type": "p2sh",
        "scriptpubkey_address": "3E5STxMGjZpC41oYJsQwMucmM7ACM7jkYm",
        "value": 401110
      },
      "scriptsig": "160014bd0db8823c87f5064c9ca8b9d86bf91a5f7a2d52",
      "scriptsig_asm": "OP_PUSHBYTES_22 0014bd0db8823c87f5064c9ca8b9d86bf91a5f7a2d52",
      "witness": [
        "3045022100ab62cd4dc3fd06daa5cbd85783098654dda6586c41bf07261a44402283ee696402206d0e317f4f729815f61c7a4204f461810b3966e52b6e2d9b27b16d6bced8f8df01",
        "020231095a8ca1661c9b5d9041293791567317e669fdad71dde2ed63ceb33e87fd"
      ],
      "is_coinbase": false,
      "sequence": 4294967295,
      "inner_redeemscript_asm": "OP_0 OP_PUSHBYTES_20 bd0db8823c87f5064c9ca8b9d86bf91a5f7a2d52"
    }
  ],
  "vout": [
    {
      "scriptpubkey": "a91487df25974efbcc34addca529afdd38ae3165ef9387",
      "scriptpubkey_asm": "OP_HASH160 OP_PUSHBYTES_20 87df25974efbcc34addca529afdd38ae3165ef93 OP_EQUAL",
      "scriptpubkey_type": "p2sh",
      "scriptpubkey_address": "3E5STxMGjZpC41oYJsQwMucmM7ACM7jkYm",
      "value": 600
    },
    {
      "scriptpubkey": "a91487df25974efbcc34addca529afdd38ae3165ef9387",
      "scriptpubkey_asm": "OP_HASH160 OP_PUSHBYTES_20 87df25974efbcc34addca529afdd38ae3165ef93 OP_EQUAL",
      "scriptpubkey_type": "p2sh",
      "scriptpubkey_address": "3E5STxMGjZpC41oYJsQwMucmM7ACM7jkYm",
      "value": 600
    },
    {
      "scriptpubkey": "a91487df25974efbcc34addca529afdd38ae3165ef9387",
      "scriptpubkey_asm": "OP_HASH160 OP_PUSHBYTES_20 87df25974efbcc34addca529afdd38ae3165ef93 OP_EQUAL",
      "scriptpubkey_type": "p2sh",
      "scriptpubkey_address": "3E5STxMGjZpC41oYJsQwMucmM7ACM7jkYm",
      "value": 396561
    }
  ],
  "size": 280,
  "weight": 790,
  "fee": 3349,
  "status": {
    "confirmed": true,
    "block_height": 834638,
    "block_hash": "000000000000000000025f742c626208ac87e0b7d15054abb4a19ca2d735a54e",
    "block_time": 1710405325
  },
  "hex": "020000000001014224090565c90d2144f4bfc26767af5eef26c09a6150db53083db7c25ec07e2b0000000017160014bd0db8823c87f5064c9ca8b9d86bf91a5f7a2d52ffffffff03580200000000000017a91487df25974efbcc34addca529afdd38ae3165ef9387580200000000000017a91487df25974efbcc34addca529afdd38ae3165ef9387110d06000000000017a91487df25974efbcc34addca529afdd38ae3165ef938702483045022100ab62cd4dc3fd06daa5cbd85783098654dda6586c41bf07261a44402283ee696402206d0e317f4f729815f61c7a4204f461810b3966e52b6e2d9b27b16d6bced8f8df0121020231095a8ca1661c9b5d9041293791567317e669fdad71dde2ed63ceb33e87fd00000000"
}