{
  "txid": "aa97df76c82cbde7f46edcd233cbdc0ce61922fba824a00fd52071b104a9a3a3",
  "version": 2,
  "locktime": 0,
  "vin": [
    {
      "txid": "17598df78e3e38937aadbeae24ded8ecbde94f61329431682ebf12abc9699ceb",
      "vout": 0,
      "prevout": {
        "scriptpubkey": "001449a58c839e310cbb29102554e57e6948164db7e7",
        "scriptpubkey_asm": "OP_0 OP_PUSHBYTES_20 49a58c839e310cbb29102554e57e6948164db7e7",
        "scriptpubkey_type": "v0_p2wpkh",
        "scriptpubkey_address": "bc1qfxjcequ7xyxtk2gsy42w2lnffqtymdl87hecjx",
        "value": 18967000
      },
      "scriptsig": "",
      "scriptsig_asm": "",
      "witness": [
        "30440220213f3bb4c870d5c87e43e4e9edde939b1f44c8b08fc8a1c48f064893c9043c7d02206b55772da5be431b020b3473f26784117066d0ebc9084990702fffea03a8d62f01",
        "0365d53065ba172f5fe583aa7f5ffcd354bfc61e9f132b3f0c56c8e0fc7e34b2f8"
      ],
      "is_coinbase": false,
      "sequence": 0
    }
  ],
  "vout": [
    {
      "scriptpubkey": "76a914f8f9a38ce40d326a4012b5c2d5620df080738c1288ac",
      "scriptpubkey_asm": "OP_DUP OP_HASH160 OP_PUSHBYTES_20 f8f9a38ce40d326a4012b5c2d5620df080738c12 OP_EQUALVERIFY OP_CHECKSIG",
      "scriptpubkey_type": "p2pkh",
      "scriptpubkey_address": "1PhTdndAwTKVWe7abYrCXtw9R3MU8A23d4",
      "value": 18964966
    }
  ],
  "size": 194,
  "weight": 449,
  "fee": 2034,
  "status": {
    "confirmed": true,
    "block_height": 834638,
    "block_hash": "000000000000000000025f742c626208ac87e0b7d15054abb4a19ca2d735a54e",
    "block_time": 1710405325
  },
  "hex": "02000000000101eb9c69c9ab12bf2e68319432614fe9bdecd8de24aebead7a93383e8ef78d591700000000000000000001e6612101000000001976a914f8f9a38ce40d326a4012b5c2d5620df080738c1288ac024730440220213f3bb4c870d5c87e43e4e9edde939b1f44c8b08fc8a1c48f064893c9043c7d02206b55772da5be431b020b3473f26784117066d0ebc9084990702fffea03a8d62f01210365d53065ba172f5fe583aa7f5ffcd354bfc61e9f132b3f0c56c8e0fc7e34b2f800000000"
}