{
  "txid": "aaad4c994b87885819f8d353cc344da9487aa9faee1da75ab9f5dd85e0fc09c8",
  "version": 2,
  "locktime": 0,
  "vin": [
    {
      "txid": "decbd6d692c283e266ed6cc13ac1f9c4a779d07c79d3dd3ab6910360ec3a4744",
      "vout": 0,
      "prevout": {
        "scriptpubkey": "5120ad2f454063c07edc0f20890ac09e93c284f3adf33ab068d2de3fb64d82478d37",
        "scriptpubkey_asm": "OP_PUSHNUM_1 OP_PUSHBYTES_32 ad2f454063c07edc0f20890ac09e93c284f3adf33ab068d2de3fb64d82478d37",
        "scriptpubkey_type": "v1_p2tr",
        "scriptpubkey_address": "bc1p45h52srrcpldcreq3y9vp85nc2z08t0n82cx35k787mymqj835mskywupp",
        "value": 546
      },
      "scriptsig": "",
      "scriptsig_asm": "",
      "witness": [
        "3ebfb4e1afb1a23ee0c490137aebc6261159a9411d48a94658a2dc4b64a0219b5d0da4f8b46f545e5c312c79d4f19776608e6fec5e880934c52dab381c56e256"
      ],
      "is_coinbase": false,
      "sequence": 2147483649
    },
    {
      "txid": "1e54587839f0f881834f7744f097d866fac95c42ea1559ea24560970d8c28c8f",
      "vout": 1,
      "prevout": {
        "scriptpubkey": "5120ad2f454063c07edc0f20890ac09e93c284f3adf33ab068d2de3fb64d82478d37",
        "scriptpubkey_asm": "OP_PUSHNUM_1 OP_PUSHBYTES_32 ad2f454063c07edc0f20890ac09e93c284f3adf33ab068d2de3fb64d82478d37",
        "scriptpubkey_type": "v1_p2tr",
        "scriptpubkey_address": "bc1p45h52srrcpldcreq3y9vp85nc2z08t0n82cx35k787mymqj835mskywupp",
        "value": 292166
      },
      "scriptsig": "",
      "scriptsig_asm": "",
      "witness": [
        "3201bb0aed0308751ee7cec24c0336e32757aed782b2f03c68f619be81ac71b77fb81489b6b6dcf5c9a8635f52703dfb27c7555f37892e18313514886144b9a4"
      ],
      "is_coinbase": false,
      "sequence": 2147483649
    }
  ],
  "vout": [
    {
      "scriptpubkey": "00145c260f0e3ce9dd39519cd2d68b92d9d192c6cb84",
      "scriptpubkey_asm": "OP_0 OP_PUSHBYTES_20 5c260f0e3ce9dd39519cd2d68b92d9d192c6cb84",
      "scriptpubkey_type": "v0_p2wpkh",
      "scriptpubkey_address": "bc1qtsnq7r3ua8wnj5vu6ttghyke6xfvdjuyj5d5lg",
      "value": 546
    },
    {
      "scriptpubkey": "5120ad2f454063c07edc0f20890ac09e93c284f3adf33ab068d2de3fb64d82478d37",
      "scriptpubkey_asm": "OP_PUSHNUM_1 OP_PUSHBYTES_32 ad2f454063c07edc0f20890ac09e93c284f3adf33ab068d2de3fb64d82478d37",
      "scriptpubkey_type": "v1_p2tr",
      "scriptpubkey_address": "bc1p45h52srrcpldcreq3y9vp85nc2z08t0n82cx35k787mymqj835mskywupp",
      "value": 289181
    }
  ],
  "size": 300,
  "weight": 798,
  "fee": 2985,
  "status": {
    "confirmed": true,
    "block_height": 834460,
    "block_hash": "00000000000000000000484a79b643b2524bbce82e5d8a442013fa5b8905ed98",
    "block_time": 1710307468
  },
  "hex": "0200000000010244473aec600391b63addd3797cd079a7c4f9c13ac16ced66e283c292d6d6cbde0000000000010000808f8cc2d870095624ea5915ea425cc9fa66d897f044774f8381f8f0397858541e0100000000010000800222020000000000001600145c260f0e3ce9dd39519cd2d68b92d9d192c6cb849d69040000000000225120ad2f454063c07edc0f20890ac09e93c284f3adf33ab068d2de3fb64d82478d3701403ebfb4e1afb1a23ee0c490137aebc6261159a9411d48a94658a2dc4b64a0219b5d0da4f8b46f545e5c312c79d4f19776608e6fec5e880934c52dab381c56e25601403201bb0aed0308751ee7cec24c0336e32757aed782b2f03c68f619be81ac71b77fb81489b6b6dcf5c9a8635f52703dfb27c7555f37892e18313514886144b9a400000000"
}