{
  "txid": "aaad6079a9ebc6031ce76d89f170c8fc76a825d9a318696dcd028d5070929db3",
  "version": 2,
  "locktime": 0,
  "vin": [
    {
      "txid": "1ece66443e87cc9694a4af0b4fa55f99d0fd444eb84d0bb4e6904d355dc163f3",
      "vout": 0,
      "prevout": {
        "scriptpubkey": "5120efd419c4dd2b5ea32e4fea20c41c7d75bc4c6cc389a7316c5a868574da3ab6e6",
        "scriptpubkey_asm": "OP_PUSHNUM_1 OP_PUSHBYTES_32 efd419c4dd2b5ea32e4fea20c41c7d75bc4c6cc389a7316c5a868574da3ab6e6",
        "scriptpubkey_type": "v1_p2tr",
        "scriptpubkey_address": "bc1pal2pn3xa9d02xtj0agsvg8rawk7ycmxr3xnnzmz6s6zhfk36kmnq6fuph4",
        "value": 2826
      },
      "scriptsig": "",
      "scriptsig_asm": "",
      "witness": [
        "cd65db37045eec40ced2bb740bc3ffb5f982c5551c6bb3e45cdbb53c3d9d939b0050b6067fb260f862daca9812092f1f1d2789e1b9140a958554f88b5a8de8b1",
        "209df88d902b09b40fe1351fcb5ea764a195e7eaa6761f94d682d960422772b726ac0063036f7264010118746578742f706c61696e3b636861727365743d7574662d38003a7b2270223a226272632d3230222c226f70223a227472616e73666572222c227469636b223a2252534b20222c22616d74223a223130303030227d68",
        "c09df88d902b09b40fe1351fcb5ea764a195e7eaa6761f94d682d960422772b726"
      ],
      "is_coinbase": false,
      "sequence": 4294967293
    }
  ],
  "vout": [
    {
      "scriptpubkey": "512061950f2a8e4f4c9a2805c8a0d0863939f0baaa3cf30f736d47f5bb09b8bd4b48",
      "scriptpubkey_asm": "OP_PUSHNUM_1 OP_PUSHBYTES_32 61950f2a8e4f4c9a2805c8a0d0863939f0baaa3cf30f736d47f5bb09b8bd4b48",
      "scriptpubkey_type": "v1_p2tr",
      "scriptpubkey_address": "bc1pvx2s725wfaxf52q9ezsdpp3e88ct423u7v8hxm287kasnw9afdyq37lecs",
      "value": 546
    }
  ],
  "size": 325,
  "weight": 607,
  "fee": 2280,
  "status": {
    "confirmed": true,
    "block_height": 834460,
    "block_hash": "00000000000000000000484a79b643b2524bbce82e5d8a442013fa5b8905ed98",
    "block_time": 1710307468
  },
  "hex": "02000000000101f363c15d354d90e6b40b4db84e44fdd0995fa54f0bafa49496cc873e4466ce1e0000000000fdffffff01220200000000000022512061950f2a8e4f4c9a2805c8a0d0863939f0baaa3cf30f736d47f5bb09b8bd4b480340cd65db37045eec40ced2bb740bc3ffb5f982c5551c6bb3e45cdbb53c3d9d939b0050b6067fb260f862daca9812092f1f1d2789e1b9140a958554f88b5a8de8b180209df88d902b09b40fe1351fcb5ea764a195e7eaa6761f94d682d960422772b726ac0063036f7264010118746578742f706c61696e3b636861727365743d7574662d38003a7b2270223a226272632d3230222c226f70223a227472616e73666572222c227469636b223a2252534b20222c22616d74223a223130303030227d6821c09df88d902b09b40fe1351fcb5ea764a195e7eaa6761f94d682d960422772b72600000000"
}