{
  "txid": "aac7a68805f394eed203b8448cab5ac384782bae222820ff8e83c3212e429121",
  "version": 2,
  "locktime": 0,
  "vin": [
    {
      "txid": "fdf4ed000e348a37cc9fb85ac7836eec06314c110112c4bf057fc723a7fb1d89",
      "vout": 22,
      "prevout": {
        "scriptpubkey": "00146f11f4aec3f22abaccfe750a3b1f94dacf0e8ad8",
        "scriptpubkey_asm": "OP_0 OP_PUSHBYTES_20 6f11f4aec3f22abaccfe750a3b1f94dacf0e8ad8",
        "scriptpubkey_type": "v0_p2wpkh",
        "scriptpubkey_address": "bc1qduglftkr7g4t4n87w59rk8u5mt8sazkctftf2g",
        "value": 119772
      },
      "scriptsig": "",
      "scriptsig_asm": "",
      "witness": [
        "3045022100dcbf53785eececeefa342e43335028b7412b5b23115c4a252a302acbdf45406602203abcab837356a4b1afa6dcc6369c2e7a53e19e2b8ebccae00ad774be192d470d01",
        "036e5bfbc085da79cc02f838e757310f4ddfd21b0dccbfa05867c7480615bdeb5f"
      ],
      "is_coinbase": false,
      "sequence": 4294967293
    },
    {
      "txid": "f5a9d505e99555c8c0e6f2d3951f884439c4f0ec318532fd42c705be2b744ba3",
      "vout": 1,
      "prevout": {
        "scriptpubkey": "00146f11f4aec3f22abaccfe750a3b1f94dacf0e8ad8",
        "scriptpubkey_asm": "OP_0 OP_PUSHBYTES_20 6f11f4aec3f22abaccfe750a3b1f94dacf0e8ad8",
        "scriptpubkey_type": "v0_p2wpkh",
        "scriptpubkey_address": "bc1qduglftkr7g4t4n87w59rk8u5mt8sazkctftf2g",
        "value": 38687
      },
      "scriptsig": "",
      "scriptsig_asm": "",
      "witness": [
        "30440220651894a16c7287720943adb6bae1a67d600881a3058fd7664d9d04e7e1e1a86c02201582742a15f33403d6016ab4e435d9633d3cb62b2e0d293d82a162897a6ce82001",
        "036e5bfbc085da79cc02f838e757310f4ddfd21b0dccbfa05867c7480615bdeb5f"
      ],
      "is_coinbase": false,
      "sequence": 4294967293
    }
  ],
  "vout": [
    {
      "scriptpubkey": "76a914eaddf72524818be955e19bafbb90a96a4716a7b088ac",
      "scriptpubkey_asm": "OP_DUP OP_HASH160 OP_PUSHBYTES_20 eaddf72524818be955e19bafbb90a96a4716a7b0 OP_EQUALVERIFY OP_CHECKSIG",
      "scriptpubkey_type": "p2pkh",
      "scriptpubkey_address": "1NQs2KJ3tLHEgnEnu8cNGh6UhGtHX2YsYn",
      "value": 81720
    },
    {
      "scriptpubkey": "00146f11f4aec3f22abaccfe750a3b1f94dacf0e8ad8",
      "scriptpubkey_asm": "OP_0 OP_PUSHBYTES_20 6f11f4aec3f22abaccfe750a3b1f94dacf0e8ad8",
      "scriptpubkey_type": "v0_p2wpkh",
      "scriptpubkey_address": "bc1qduglftkr7g4t4n87w59rk8u5mt8sazkctftf2g",
      "value": 73400
    }
  ],
  "size": 374,
  "weight": 845,
  "fee": 3339,
  "status": {
    "confirmed": true,
    "block_height": 834638,
    "block_hash": "000000000000000000025f742c626208ac87e0b7d15054abb4a19ca2d735a54e",
    "block_time": 1710405325
  },
  "hex": "02000000000102891dfba723c77f05bfc41201114c3106ec6e83c75ab89fcc378a340e00edf4fd1600000000fdffffffa34b742bbe05c742fd328531ecf0c43944881f95d3f2e6c0c85595e905d5a9f50100000000fdffffff02383f0100000000001976a914eaddf72524818be955e19bafbb90a96a4716a7b088acb81e0100000000001600146f11f4aec3f22abaccfe750a3b1f94dacf0e8ad802483045022100dcbf53785eececeefa342e43335028b7412b5b23115c4a252a302acbdf45406602203abcab837356a4b1afa6dcc6369c2e7a53e19e2b8ebccae00ad774be192d470d0121036e5bfbc085da79cc02f838e757310f4ddfd21b0dccbfa05867c7480615bdeb5f024730440220651894a16c7287720943adb6bae1a67d600881a3058fd7664d9d04e7e1e1a86c02201582742a15f33403d6016ab4e435d9633d3cb62b2e0d293d82a162897a6ce8200121036e5bfbc085da79cc02f838e757310f4ddfd21b0dccbfa05867c7480615bdeb5f00000000"
}