{
  "txid": "aad99827508566c232737285acfc38d8c9414335fbbd8a08d9b19b8fc0676429",
  "version": 2,
  "locktime": 0,
  "vin": [
    {
      "txid": "31ca8a57acb14d0fa97b7291a7bed94284d42337e6a36dc7b4f80131ff94abf9",
      "vout": 1,
      "prevout": {
        "scriptpubkey": "0014c04f66827a94f063e45661bdc2d3506ea816d07b",
        "scriptpubkey_asm": "OP_0 OP_PUSHBYTES_20 c04f66827a94f063e45661bdc2d3506ea816d07b",
        "scriptpubkey_type": "v0_p2wpkh",
        "scriptpubkey_address": "bc1qcp8kdqn6jncx8ezkvx7u956sd65pd5rmjgt34m",
        "value": 14293102
      },
      "scriptsig": "",
      "scriptsig_asm": "",
      "witness": [
        "3045022100b894f1e38dd0221bbf59dc421659ae19d640795a234634509485d588257e83c302204aaecdf6ae1eb80fdc3000f5f4c1e1c3b7f3104c3dbe9c94ad68998a98011b3a01",
        "02fcb113d0f77c07dbc8efc015432519f4ad1893a7afc783dca5337d0cbc4e1a25"
      ],
      "is_coinbase": false,
      "sequence": 4294967295
    }
  ],
  "vout": [
    {
      "scriptpubkey": "00141c883a63720a375a7a35d7c419b1065426de1104",
      "scriptpubkey_asm": "OP_0 OP_PUSHBYTES_20 1c883a63720a375a7a35d7c419b1065426de1104",
      "scriptpubkey_type": "v0_p2wpkh",
      "scriptpubkey_address": "bc1qrjyr5cmjpgm457346lzpnvgx2snduygy6swy3a",
      "value": 7337156
    },
    {
      "scriptpubkey": "0014e4510b5d387585d423116547f28c781a19d745f5",
      "scriptpubkey_asm": "OP_0 OP_PUSHBYTES_20 e4510b5d387585d423116547f28c781a19d745f5",
      "scriptpubkey_type": "v0_p2wpkh",
      "scriptpubkey_address": "bc1qu3gskhfcwkzaggc3v4rl9rrcrgvaw304t00n4g",
      "value": 6953375
    }
  ],
  "size": 223,
  "weight": 562,
  "fee": 2571,
  "status": {
    "confirmed": true,
    "block_height": 834638,
    "block_hash": "000000000000000000025f742c626208ac87e0b7d15054abb4a19ca2d735a54e",
    "block_time": 1710405325
  },
  "hex": "02000000000101f9ab94ff3101f8b4c76da3e63723d48442d9bea791727ba90f4db1ac578aca310100000000ffffffff02c4f46f00000000001600141c883a63720a375a7a35d7c419b1065426de11049f196a0000000000160014e4510b5d387585d423116547f28c781a19d745f502483045022100b894f1e38dd0221bbf59dc421659ae19d640795a234634509485d588257e83c302204aaecdf6ae1eb80fdc3000f5f4c1e1c3b7f3104c3dbe9c94ad68998a98011b3a012102fcb113d0f77c07dbc8efc015432519f4ad1893a7afc783dca5337d0cbc4e1a2500000000"
}