{
  "txid": "aae960e7625d443cbdf267ad62806ba2658d957b12fbc2a24ee9e29f87f07984",
  "version": 2,
  "locktime": 0,
  "vin": [
    {
      "txid": "6587f7eb466f15a4ac51648375403c79d5b3a7948283273c12ffa30f16d40510",
      "vout": 0,
      "prevout": {
        "scriptpubkey": "51203d1ca9b0f5de2b6026071e3fb23ddf63dd630f93f6e17cc66f37f5315b15f212",
        "scriptpubkey_asm": "OP_PUSHNUM_1 OP_PUSHBYTES_32 3d1ca9b0f5de2b6026071e3fb23ddf63dd630f93f6e17cc66f37f5315b15f212",
        "scriptpubkey_type": "v1_p2tr",
        "scriptpubkey_address": "bc1p85w2nv84mc4kqfs8rclmy0wlv0wkxrun7mshe3n0xl6nzkc47gfq8cx34n",
        "value": 18360
      },
      "scriptsig": "",
      "scriptsig_asm": "",
      "witness": [
        "a2832dc9c5598e0c7329c599832da174565373665a65ffdcf6821ddcd4f3a300c5f7adcef380a5c35ab8b49cc912e69dbd3148ce4388303c27d8ae1e1bf49cc1",
        "204759b3d021c9e1fd232a0424133a3ea9b96c51cf598d243638e6c77bf247e358ac0063036f7264010109696d6167652f706e67004d080289504e470d0a1a0a0000000d494844520000025800000258080300000089b868ee0000004e504c5445ebad745dc7ff5bb1ff6999ffda9c630a01014d4e4e0000005b8697ca935c63482cffc4030046bb0048bc283645fff158a87d54466573192124758d91beb1a1346ba77755395c9dbb84c0da1756b208c7cf5c000000097048597300000b1300000b1301009a9c1800000fa749444154789ceddd8d72db46124561d921a8a6232b22edcd66dfff45b72c8a14488c2b831a5cdc41f37c4ef937b460cd71630881d65300024f8adf14202c48101624080b12840509c28204614182b020415890202c48101624080b12840509c28204614182b020415890202c48101624080b12840509c28204614182b07a743c1ef7b5ff459f08ab47c7e77a9d9645583dda1316148e8405853d6141e1485850d81316148e8405853d6141e1485850d81316148e8405853d6141e1485850d81316148e8f12d6497e1c78c889d5e9c1a7757c94b0b0ae3d6141e1485850d813d6ccbf89afafa7ca2f8aadc3b1faad9b9fad1c096b9e57ef9ed4fce6eb31b1742bbbf7bef9b03ad61f28cf0a67ae2c13ab12971b9858d598583331b1eab0c79a893d561d26d64c4cac3a4cac9998587598583331b1ea30b1666262d56162cdc4c4aac3c49a8989558789351313ab0e136b2626561d26d64c4cac3a4cac9998587598583331b1ea30b1666262d56162cdc4c4aac3c44d08029a89895587899536aceddcf37e2a88477bc1ea8c95ad3728de7cf1f1c753ade37a13abe93da2435865c7b641b2172c557d6d84b5b58955fdf0fd8241cd7feb84d56f581d4eac10bc477438159615df594cac7a84c5c492202c2696046131b124088b892541584c2c09c26262491016134b82b098581284c5c492202c2696046131b124088b892541584c2c09c26262491016132b4158f5378d57dfd4c61da4538f77a35fbde747b983f47812fc652b7e1a97d75813619595235084f5bc9675e71861b927d6f35a08eb97877995cef1792d84d543584cac469c0acb8aef2c26563dc26262491016134b82b098581284c5c492202c2696046131b124088b892541584c2c09c26262491016134b82b098581284c5c492202c2696046131b124088b894558336ef47b2daabef5ea58f43ad43a56ffa6733ebb491bee20fda5f51d36e3252d8d0f3f29fe4c0a84455812844558128445581284455812844558128445581284455812844558128445581284455812844558128445581284455812844558128445581284455812844558128445581284455812844558cfad9f99a228d694f5e55fdb7e31c5d0f66f36f3b974086b4e198d0f5f17138b892541589b092b98580ba85f04f658139c0a09ab8c8925f3dcb80a3c2b34638fc51e4b82b03613d6b1ede12b23accd841584b580fa45608f35c1c422ac322696cc73e32af0acd08c3d167b2c09c2da4d08024c58c7b687af8cb036135610d602ea17813dd604138bb0ca985832cf8dabc0b34233f658ecb11e29acfa6740cfcf43e9850343fde31b1f5e7cf345adbf67fdc3ddcb9723acf777e5e4bfb51e7cfe0d6abecc74f7e0598f772f5f9eb070c3bd7c849554f831b1320a3fc2ca28fc082ba3f023ac8cc28fb0320a3fc2ca28fc082ba3f023ac8cc28fb0320a3fc2ca28fc082ba3f023ac8cc28fb0320a3fc2ca28fc082ba3f023ac8cc28fb0320a3fc2ca28fc082ba3f023ac8cc28fb0320a3fc2ca28fc082ba3f023ac8cc28fb0320a3fc2ca28fc082ba3f023ac8cc28fb0320a3fc2ca28fc082ba3f023ac8cc28fb0320a3fc2ca28fc082ba3f023ac8cc28fb0320a3fc2ca28fc082ba3f023ac8cc28fb0320a3fc2ca28fc082ba3f023ac8cc28fb0320a3fc2ca28fc082ba3f023ac8cc28fb0320a3fc2ca28fc082ba3f023ac8cc28fb0320a3fc2ca28fc082ba3f023ac8cc28fb0121adc5511564e83bb2ac2ca6970574558390deeaa082ba7c15d1561e534b8ab22ac9c08ebb78eeeb5d9b421fcb88e95d0e0ae8ab0721adc5511564e83bb2ac2ca6970574558390deeaa082ba7c15d1561e534b8ab22ac9c0677558495d3e0ae8ab0721adc5511564e83bb2ac2ca6970574558390deeaa082ba7c15d1561e534b8ab22ac9c0677558495d3e0aeaadfb0e2ed5b9bb7dd539dddf366fc5df9477aea61517b38064958d58bf0bc197f1316612910164d0802614910166149101661491016614910166149101661491016614910166149101661491016614910166149101661491016614910166149101661491016614910166149101661491016614910d6a6c25acfa9bea1c6c30fbf1e8ea184b05ab8578fb056756262f931b15ab8578f89b5aa1313cb8f89d5c2bd7a4cac559d98587e4cac16eed56362adeac4c4f26362b570af1e136b552726961f13ab857bf59858ab3a31b1fc98582ddcabc7c45ad58989e5c7c46ae15e3d26d6aa4e4c2c3f26560bf7ea31b156756262f931b15ab8578f89b5aa6f4335ee79eff7539e3cb2f0eb616a169ceaff726371c7055690b030415890202c48101624080b12840509c28204614182b020415890202c48101624080b12840509c28204614182b020415890202c481016241287b56f7c91ceb753f5fff9aa719cdaff5dadf8477a5dc9297158716855fd6abf3f56f3b3ed65896f6b1de7db120b48586b2dd71f84d50326d604138bb0ca381576808935c1c422ac322656079858134c2cc22a636275808935c1c422ac322656079858134c2cc22a636275808935c1c422ac322656079858134c2cc22a636275808935c1c422ac3226d64c3f049858130f37b17e3c0910d6c437c2da56585fd7f2b3ed5d32ac759c0726d61261adb55c5f09ebb14e8584758f8945581284455884c5a9f02b7b2cf6581a3fdbb69d3c2b5c029bf709c25a02614d10d612086b82b0964d080240581384b504c29a20ac2510d604612d81b026086b09843541584b20ac09c25a02614d10d612086b82b09640581384b504c29a20ac2510d6c4dbd795fce09ef7256e4dfef2e5eb9775fcac3ea6df1de93a96e88a977fadb65c5f08ebb16ef423ac7b4c2cc292202cc292202cc292202cc292202cc292202cc292202cc292202cc292202cc292202cc292202cc292202cc292202cc292202cc292202cc292202cc292202cc292202cc29220ac45c2faa7a86d69fe29e2c5140f75cffb76fcacf6df264cac070bab5ef8f1d9bf320a3fc2ca28fc082ba3f023ac8cc28fb0320a3fc2ca28fc082ba3f023ac8cc28fb0320a3fc2ca28fc082ba3f023ac8cc28fb0320a3fc2ca28fc082ba3f023ac8cc28fb0328acc61fd59f8f257f14b09b726b788c461fd59f25751e9e184d522fc082ba3f0eb20ace2c399582dc2af83b038152e2efc082ba3f023ac8cc2af83b08a0f678fd522fc3a088b3dd6e2c28fb0320a3fc2ca28fc3a08abf870f6582dc2af83b0d8632d2efc082ba3f023ac8cc2af83b08a0f678fd522fc3a088b3dd6e2c28fb0320a3fc2ca28fc3a08abf870f6582dc2af83b0d8632d2e1e2dacfa91c5c46a117e4b1cc38f923fab1d4a0f27ac16e1273b861961951e4e582dc28fb0320a3fc2ca28fc082ba3f023ac8cc28fb0320a3fc2ca28fc082ba3f023ac8cc28fb0320a3fc2ca28fc082ba3f023ac8cc28fb0320a3fc2ca28fc082b4d0802a3f023ac8cc28fb0320a3fc2ca28fc082ba3f0ebe1184ab8e7bd857bf5082ba9f0ebe1184a98582ddcab475849855f0fc750c2c46ae15e3dc24a2afc7a38861226560bf7ea115652e1d7c3319430b15ab8578fb0920abf1e8ea18489d5c2bd7a84b5aadddb5a8e25ffa94758bff7d49fdddeeafbcbcbf7979797efbfbcfcfaf2f1d5fb4f9e7fe1fcbdefff23ac4d85753087f511d3d9af1f9d7f78fe99f71f9cbf7a212cc29ae13d9f8faccec3ea3cad3ec7d6b9b517c2da5858bb7d1f619d47d735b18fae3ece8fbf7e8589b5adb00eeeb03ece76e7b174f9e612d9798bf58eb0086b86cf8cae23ebb3a5cfccbe13d6d64e8587bdd535a88f9975ddba8fea3aff2a136b5b61eddc615d37edf7dfbdfd1e616d2cacc3be9b73e1751f3fdac47f9e2799588435c7e5a9dfdd90ba3b1f12167bac99c6d7d7efaf375c9e17be7f9f89b5ad89b5db7bdd8daabbc246df21ac6d8575e821acf70f157e3cfb1bedb4c61fec212cc29ae57a65fd6edb7efd98cee56799584cac394627be9b8fea5cee73f8b8f181cb0d5b9b58bbbdd7e5cae8f5e4774e697451ebe3074cac6d8575708775bde8feb9bdba9e1e3f7f86b0b636b10ee6b02e67bbcba5854b4cd7fbb22e37fe31b1086b8e8f7dd57b409fcf083f2e5e8daf3d10d6b6c2daedbd6e4f7ce36ba4e30f1c32b13815ce74f7719c4b5eb74f10b9d18fb0e61a5d701f5d101d9f20b98ef5ef9efa73d84d08027bdd5674f9eaf32eadebb9903dd6b6c2daf9c3fa1c533753eb6ef74558db0aeb600eebfee2e8fd052d9e15d678eacfc11cd6fd6d57976f46574dcf3f626211d61cb71f81be6cad2edbaed12d0e84b5adb0767baff1f6eae6eebecfcb58e7e14558db0aeb600eebe68e99f784ae2fba1f7d0491b0d863cd74fbd289715eb757dfd96331b16619cda5cb06fef612d6e574c8a9705ba7c2dddeebfa7470f4aad57150d7278d84b5adb00e1d7435baa16f7c1fd678034f589c0a67f97cd6f7f9519ddb97d97f3c57648fc5c49ae3f31f94197dc0f9facd7527cfb3c2cd4dacddde6a7c71fdba6fbf797dc5e5ccc81e6b5b611dcc617d4ea7f17d7ef71fe4e159e1e626d6c11ed6d8f5053ae3f32261fdaba7fe1cbc619def75bffe030dc597aef2b1c22d86b5f386359a543777628dfe05d28fab0eecb1b615d6c11cd6e85fe0bebeee79fcca7aee6ea8f1d49f8339acc98b290a3bacf7d49858db0aeb894f79e29732acd5b8578f4fd29454f8f5700c254cac16eed523aca4c2af8763286162b570af1e6125157e3d1c430913ab857bf5082ba9f0ebe1184a9858844558dd09bf1e8ea18489d5c2bd7a849554f8f5700c254cac16eed523aca4c2af8763286162b570af1e6125157e3d1c430913ab857bf5082ba9f0ebe1184a98582ddcab475849855f0fc750c2c46ae15e3dc24a2afc7a38861226560bf7ea115652e1d7c3319430b15ab8578fb0924d08020abf1e8ea18489d5c2bd7a849554f8f5700c254cac16eed523aca4c2af8763286162b570af1e6125157e3d1c430913ab857bf5082ba9f0ebe1184a98582ddcab475849855f0fc750c2c46ae15e3dc24a2afc7a38861226560bf7ea115652e1d7c3319430b15ab8578fb0920abf1e8ea18489d5c2bd7a849554f8f5700c254cac16eed523aca4c2af8763286162b570af1e6125157e3d1c430913ab857bf5082ba9f0ebe1184a98582ddcab9739ac5def9e64a2077d1cc55463566f6fbbfec423491ad681b0cc088b89254158842541588425415884259134acb71e2f37c423491a16cf0add088b89254158842591342cf6586e49c3628fe546589c0a25088bb0249286c51ecb2d6958ecb1dc088b53a10461119644d2b0d863b9250d8b3d961b61712a94202cc292481a167b2cb7a461b1c772232c4e85128445581249c3628fe596342cf6586e84c5a95082b0084b226958ecb1dc9286c51ecb8db038154a10166149240d8b3d965bd2b0d863b91116a74209c2222c89a461b1c7724b1a167b2c37c2e254284158842591342cf6586e49c3628fe546589c0a25088bb0249286c51ecb2d6958ecb1dc088b53a10461119644d2b0d863b9250d8b3d961b61712a94202cc292481a167b2cb7a461b1c772232c4e85128445581249c3628fe596342cf6586e84c5a95082b0084b226958ecb1dc9286c51ecb8db038154a10166185c2ff01fb05c2f1070f0f86bf0000000049454e44ae42608268",
        "c04759b3d021c9e1fd232a0424133a3ea9b96c51cf598d243638e6c77bf247e358"
      ],
      "is_coinbase": false,
      "sequence": 4294967293
    }
  ],
  "vout": [
    {
      "scriptpubkey": "512092d0c4be49414c8ce960e04bd67b94f223e9ce71227bcb9ae8584d3d87f33a1e",
      "scriptpubkey_asm": "OP_PUSHNUM_1 OP_PUSHBYTES_32 92d0c4be49414c8ce960e04bd67b94f223e9ce71227bcb9ae8584d3d87f33a1e",
      "scriptpubkey_type": "v1_p2tr",
      "scriptpubkey_address": "bc1pjtgvf0jfg9xge6tqup9av7u57g37nnn3yfauhxhgtpxnmpln8g0qek58d9",
      "value": 600
    }
  ],
  "size": 4453,
  "weight": 4735,
  "fee": 17760,
  "status": {
    "confirmed": true,
    "block_height": 834460,
    "block_hash": "00000000000000000000484a79b643b2524bbce82e5d8a442013fa5b8905ed98",
    "block_time": 1710307468
  },
  "hex": "020000000001011005d4160fa3ff123c27838294a7b3d5793c4075836451aca4156f46ebf787650000000000fdffffff01580200000000000022512092d0c4be49414c8ce960e04bd67b94f223e9ce71227bcb9ae8584d3d87f33a1e0340a2832dc9c5598e0c7329c599832da174565373665a65ffdcf6821ddcd4f3a300c5f7adcef380a5c35ab8b49cc912e69dbd3148ce4388303c27d8ae1e1bf49cc1fd9e10204759b3d021c9e1fd232a0424133a3ea9b96c51cf598d243638e6c77bf247e358ac0063036f7264010109696d6167652f706e67004d080289504e470d0a1a0a0000000d494844520000025800000258080300000089b868ee0000004e504c5445ebad745dc7ff5bb1ff6999ffda9c630a01014d4e4e0000005b8697ca935c63482cffc4030046bb0048bc283645fff158a87d54466573192124758d91beb1a1346ba77755395c9dbb84c0da1756b208c7cf5c000000097048597300000b1300000b1301009a9c1800000fa749444154789ceddd8d72db46124561d921a8a6232b22edcd66dfff45b72c8a14488c2b831a5cdc41f37c4ef937b460cd71630881d65300024f8adf14202c48101624080b12840509c28204614182b020415890202c48101624080b12840509c28204614182b020415890202c48101624080b12840509c28204614182b07a743c1ef7b5ff459f08ab47c7e77a9d9645583dda1316148e8405853d6141e1485850d81316148e8405853d6141e1485850d81316148e8405853d6141e1485850d81316148e8f12d6497e1c78c889d5e9c1a7757c94b0b0ae3d6141e1485850d813d6ccbf89afafa7ca2f8aadc3b1faad9b9fad1c096b9e57ef9ed4fce6eb31b1742bbbf7bef9b03ad61f28cf0a67ae2c13ab12971b9858d598583331b1eab0c79a893d561d26d64c4cac3a4cac9998587598583331b1ea30b1666262d56162cdc4c4aac3c49a8989558789351313ab0e136b2626561d26d64c4cac3a4cac9998587598583331b1ea30b1666262d56162cdc4c4aac3c44d08029a89895587899536aceddcf37e2a88477bc1ea8c95ad3728de7cf1f1c753ade37a13abe93da2435865c7b641b2172c557d6d84b5b58955fdf0fd8241cd7feb84d56f581d4eac10bc477438159615df594cac7a84c5c492202c2696046131b124088b892541584c2c09c26262491016134b82b098581284c5c492202c2696046131b124088b892541584c2c09c26262491016132b4158f5378d57dfd4c61da4538f77a35fbde747b983f47812fc652b7e1a97d75813619595235084f5bc9675e71861b927d6f35a08eb97877995cef1792d84d543584cac469c0acb8aef2c26563dc26262491016134b82b098581284c5c492202c2696046131b124088b892541584c2c09c26262491016134b82b098581284c5c492202c2696046131b124088b894558336ef47b2daabef5ea58f43ad43a56ffa6733ebb491bee20fda5f51d36e3252d8d0f3f29fe4c0a84455812844558128445581284455812844558128445581284455812844558128445581284455812844558128445581284455812844558128445581284455812844558128445581284455812844558cfad9f99a228d694f5e55fdb7e31c5d0f66f36f3b974086b4e198d0f5f17138b892541589b092b98580ba85f04f658139c0a09ab8c8925f3dcb80a3c2b34638fc51e4b82b03613d6b1ede12b23accd841584b580fa45608f35c1c422ac322696cc73e32af0acd08c3d167b2c09c2da4d08024c58c7b687af8cb036135610d602ea17813dd604138bb0ca985832cf8dabc0b34233f658ecb11e29acfa6740cfcf43e9850343fde31b1f5e7cf345adbf67fdc3ddcb9723acf777e5e4bfb51e7cfe0d6abecc74f7e0598f772f5f9eb070c3bd7c849554f831b1320a3fc2ca28fc082ba3f023ac8cc28fb0320a3fc2ca28fc082ba3f023ac8cc28fb0320a3fc2ca28fc082ba3f023ac8cc28fb0320a3fc2ca28fc082ba3f023ac8cc28fb0320a3fc2ca28fc082ba3f023ac8cc28fb0320a3fc2ca28fc082ba3f023ac8cc28fb0320a3fc2ca28fc082ba3f023ac8cc28fb0320a3fc2ca28fc082ba3f023ac8cc28fb0320a3fc2ca28fc082ba3f023ac8cc28fb0320a3fc2ca28fc082ba3f023ac8cc28fb0320a3fc2ca28fc082ba3f023ac8cc28fb0320a3fc2ca28fc082ba3f023ac8cc28fb0320a3fc2ca28fc082ba3f023ac8cc28fb0320a3fc2ca28fc082ba3f023ac8cc28fb0121adc5511564e83bb2ac2ca6970574558390deeaa082ba7c15d1561e534b8ab22ac9c08ebb78eeeb5d9b421fcb88e95d0e0ae8ab0721adc5511564e83bb2ac2ca6970574558390deeaa082ba7c15d1561e534b8ab22ac9c0677558495d3e0ae8ab0721adc5511564e83bb2ac2ca6970574558390deeaa082ba7c15d1561e534b8ab22ac9c0677558495d3e0aeaadfb0e2ed5b9bb7dd539dddf366fc5df9477aea61517b38064958d58bf0bc197f1316612910164d0802614910166149101661491016614910166149101661491016614910166149101661491016614910166149101661491016614910166149101661491016614910166149101661491016614910d6a6c25acfa9bea1c6c30fbf1e8ea184b05ab8578fb056756262f931b15ab8578f89b5aa1313cb8f89d5c2bd7a4cac559d98587e4cac16eed56362adeac4c4f26362b570af1e136b552726961f13ab857bf59858ab3a31b1fc98582ddcabc7c45ad58989e5c7c46ae15e3d26d6aa4e4c2c3f26560bf7ea31b156756262f931b15ab8578f89b5aa6f4335ee79eff7539e3cb2f0eb616a169ceaff726371c7055690b030415890202c48101624080b12840509c28204614182b020415890202c48101624080b12840509c28204614182b020415890202c481016241287b56f7c91ceb753f5fff9aa719cdaff5dadf8477a5dc9297158716855fd6abf3f56f3b3ed65896f6b1de7db120b48586b2dd71f84d50326d604138bb0ca381576808935c1c422ac322656079858134c2cc22a636275808935c1c422ac322656079858134c2cc22a636275808935c1c422ac322656079858134c2cc22a636275808935c1c422ac3226d64c3f049858130f37b17e3c0910d6c437c2da56585fd7f2b3ed5d32ac759c0726d61261adb55c5f09ebb14e8584758f8945581284455884c5a9f02b7b2cf6581a3fdbb69d3c2b5c029bf709c25a02614d10d612086b82b0964d080240581384b504c29a20ac2510d604612d81b026086b09843541584b20ac09c25a02614d10d612086b82b09640581384b504c29a20ac2510d6c4dbd795fce09ef7256e4dfef2e5eb9775fcac3ea6df1de93a96e88a977fadb65c5f08ebb16ef423ac7b4c2cc292202cc292202cc292202cc292202cc292202cc292202cc292202cc292202cc292202cc292202cc292202cc292202cc292202cc292202cc292202cc292202cc292202cc29220ac45c2faa7a86d69fe29e2c5140f75cffb76fcacf6df264cac070bab5ef8f1d9bf320a3fc2ca28fc082ba3f023ac8cc28fb0320a3fc2ca28fc082ba3f023ac8cc28fb0320a3fc2ca28fc082ba3f023ac8cc28fb0320a3fc2ca28fc082ba3f023ac8cc28fb0328acc61fd59f8f257f14b09b726b788c461fd59f25751e9e184d522fc082ba3f0eb20ace2c399582dc2af83b038152e2efc082ba3f023ac8cc2af83b08a0f678fd522fc3a088b3dd6e2c28fb0320a3fc2ca28fc3a08abf870f6582dc2af83b0d8632d2efc082ba3f023ac8cc2af83b08a0f678fd522fc3a088b3dd6e2c28fb0320a3fc2ca28fc3a08abf870f6582dc2af83b0d8632d2e1e2dacfa91c5c46a117e4b1cc38f923fab1d4a0f27ac16e1273b861961951e4e582dc28fb0320a3fc2ca28fc082ba3f023ac8cc28fb0320a3fc2ca28fc082ba3f023ac8cc28fb0320a3fc2ca28fc082ba3f023ac8cc28fb0320a3fc2ca28fc082b4d0802a3f023ac8cc28fb0320a3fc2ca28fc082ba3f0ebe1184ab8e7bd857bf5082ba9f0ebe1184a98582ddcab475849855f0fc750c2c46ae15e3dc24a2afc7a38861226560bf7ea115652e1d7c3319430b15ab8578fb0920abf1e8ea18489d5c2bd7a84b5aadddb5a8e25ffa94758bff7d49fdddeeafbcbcbf7979797efbfbcfcfaf2f1d5fb4f9e7fe1fcbdefff23ac4d85753087f511d3d9af1f9d7f78fe99f71f9cbf7a212cc29ae13d9f8faccec3ea3cad3ec7d6b9b517c2da5858bb7d1f619d47d735b18fae3ece8fbf7e8589b5adb00eeeb03ece76e7b174f9e612d9798bf58eb0086b86cf8cae23ebb3a5cfccbe13d6d64e8587bdd535a88f9975ddba8fea3aff2a136b5b61eddc615d37edf7dfbdfd1e616d2cacc3be9b73e1751f3fdac47f9e2799588435c7e5a9dfdd90ba3b1f12167bac99c6d7d7efaf375c9e17be7f9f89b5ad89b5db7bdd8daabbc246df21ac6d8575e821acf70f157e3cfb1bedb4c61fec212cc29ae57a65fd6edb7efd98cee56799584cac394627be9b8fea5cee73f8b8f181cb0d5b9b58bbbdd7e5cae8f5e4774e697451ebe3074cac6d8575708775bde8feb9bdba9e1e3f7f86b0b636b10ee6b02e67bbcba5854b4cd7fbb22e37fe31b1086b8e8f7dd57b409fcf083f2e5e8daf3d10d6b6c2daedbd6e4f7ce36ba4e30f1c32b13815ce74f7719c4b5eb74f10b9d18fb0e61a5d701f5d101d9f20b98ef5ef9efa73d84d08027bdd5674f9eaf32eadebb9903dd6b6c2daf9c3fa1c533753eb6ef74558db0aeb600eebfee2e8fd052d9e15d678eacfc11cd6fd6d57976f46574dcf3f626211d61cb71f81be6cad2edbaed12d0e84b5adb0767baff1f6eae6eebecfcb58e7e14558db0aeb600eebe68e99f784ae2fba1f7d0491b0d863cd74fbd289715eb757dfd96331b16619cda5cb06fef612d6e574c8a9705ba7c2dddeebfa7470f4aad57150d7278d84b5adb00e1d7435baa16f7c1fd678034f589c0a67f97cd6f7f9519ddb97d97f3c57648fc5c49ae3f31f94197dc0f9facd7527cfb3c2cd4dacddde6a7c71fdba6fbf797dc5e5ccc81e6b5b611dcc617d4ea7f17d7ef71fe4e159e1e626d6c11ed6d8f5053ae3f32261fdaba7fe1cbc619def75bffe030dc597aef2b1c22d86b5f386359a543777628dfe05d28fab0eecb1b615d6c11cd6e85fe0bebeee79fcca7aee6ea8f1d49f8339acc98b290a3bacf7d49858db0aeb894f79e29732acd5b8578f4fd29454f8f5700c254cac16eed523aca4c2af8763286162b570af1e6125157e3d1c430913ab857bf5082ba9f0ebe1184a9858844558dd09bf1e8ea18489d5c2bd7a849554f8f5700c254cac16eed523aca4c2af8763286162b570af1e6125157e3d1c430913ab857bf5082ba9f0ebe1184a98582ddcab475849855f0fc750c2c46ae15e3dc24a2afc7a38861226560bf7ea115652e1d7c3319430b15ab8578fb0924d08020abf1e8ea18489d5c2bd7a849554f8f5700c254cac16eed523aca4c2af8763286162b570af1e6125157e3d1c430913ab857bf5082ba9f0ebe1184a98582ddcab475849855f0fc750c2c46ae15e3dc24a2afc7a38861226560bf7ea115652e1d7c3319430b15ab8578fb0920abf1e8ea18489d5c2bd7a849554f8f5700c254cac16eed523aca4c2af8763286162b570af1e6125157e3d1c430913ab857bf5082ba9f0ebe1184a98582ddcab9739ac5def9e64a2077d1cc55463566f6fbbfec423491ad681b0cc088b89254158842541588425415884259134acb71e2f37c423491a16cf0add088b89254158842591342cf6586e49c3628fe546589c0a25088bb0249286c51ecb2d6958ecb1dc088b53a10461119644d2b0d863b9250d8b3d961b61712a94202cc292481a167b2cb7a461b1c772232c4e85128445581249c3628fe596342cf6586e84c5a95082b0084b226958ecb1dc9286c51ecb8db038154a10166149240d8b3d965bd2b0d863b91116a74209c2222c89a461b1c7724b1a167b2c37c2e254284158842591342cf6586e49c3628fe546589c0a25088bb0249286c51ecb2d6958ecb1dc088b53a10461119644d2b0d863b9250d8b3d961b61712a94202cc292481a167b2cb7a461b1c772232c4e85128445581249c3628fe596342cf6586e84c5a95082b0084b226958ecb1dc9286c51ecb8db038154a10166185c2ff01fb05c2f1070f0f86bf0000000049454e44ae4260826821c04759b3d021c9e1fd232a0424133a3ea9b96c51cf598d243638e6c77bf247e35800000000"
}