{
  "txid": "aafa88e7f286c104e41f086a41692e56d4ee84bfd088c3a943249daa3b2dc1dd",
  "version": 2,
  "locktime": 0,
  "vin": [
    {
      "txid": "fa7536ee10bfeddb39476855fac5b9e095821bbb6f3c5936a857cb9c57fc428b",
      "vout": 10,
      "prevout": {
        "scriptpubkey": "0014fb39ac35c7079784a27d0ea74903eaab4e8e2d23",
        "scriptpubkey_asm": "OP_0 OP_PUSHBYTES_20 fb39ac35c7079784a27d0ea74903eaab4e8e2d23",
        "scriptpubkey_type": "v0_p2wpkh",
        "scriptpubkey_address": "bc1qlvu6cdw8q7tcfgnap6n5jql24d8gutfrdvxghq",
        "value": 72423241
      },
      "scriptsig": "",
      "scriptsig_asm": "",
      "witness": [
        "30440220733c2fbe9681c6ef9c7c0322110da88899737b08b1e6520e8f34c222c93584f10220186b9b7f7567c041e85023544cee4eb6f4c80f281b478c9aca2882675208f35301",
        "024bc6e76fa92bd70d75fe36081d2b59e0ae0d7520f6101862bfe1884b7f6e5c9d"
      ],
      "is_coinbase": false,
      "sequence": 4294967293
    }
  ],
  "vout": [
    {
      "scriptpubkey": "00142344e1297a1121584a8b421213031732a0a970ef",
      "scriptpubkey_asm": "OP_0 OP_PUSHBYTES_20 2344e1297a1121584a8b421213031732a0a970ef",
      "scriptpubkey_type": "v0_p2wpkh",
      "scriptpubkey_address": "bc1qydzwz2t6zys4sj5tggfpxqchx2s2ju80updq8c",
      "value": 72409009
    }
  ],
  "size": 191,
  "weight": 437,
  "fee": 14232,
  "status": {
    "confirmed": true,
    "block_height": 834638,
    "block_hash": "000000000000000000025f742c626208ac87e0b7d15054abb4a19ca2d735a54e",
    "block_time": 1710405325
  },
  "hex": "020000000001018b42fc579ccb57a836593c6fbb1b8295e0b9c5fa55684739dbedbf10ee3675fa0a00000000fdffffff01b1df5004000000001600142344e1297a1121584a8b421213031732a0a970ef024730440220733c2fbe9681c6ef9c7c0322110da88899737b08b1e6520e8f34c222c93584f10220186b9b7f7567c041e85023544cee4eb6f4c80f281b478c9aca2882675208f3530121024bc6e76fa92bd70d75fe36081d2b59e0ae0d7520f6101862bfe1884b7f6e5c9d00000000"
}