{
  "txid": "aafa02310fcdb44433418ed35683a5a142e2dd00946d16a82dcf827d56730975",
  "version": 1,
  "locktime": 0,
  "vin": [
    {
      "txid": "d316ccb16507f366e268a2e4bf3994114ac5ad160f14df4948c9c5645ad41c92",
      "vout": 1,
      "prevout": {
        "scriptpubkey": "001411d7453af04e0c156f4688940b3f656d63a33595",
        "scriptpubkey_asm": "OP_0 OP_PUSHBYTES_20 11d7453af04e0c156f4688940b3f656d63a33595",
        "scriptpubkey_type": "v0_p2wpkh",
        "scriptpubkey_address": "bc1qz8t52whsfcxp2m6x3z2qk0m9d436xdv443aua6",
        "value": 437168
      },
      "scriptsig": "",
      "scriptsig_asm": "",
      "witness": [
        "3045022100f338f7700ad442dc733744da9e7e86cbc4edaab6368e3b268f529d53225f3dbc02204e5cb18abeebf7ff84885570bb29244b27bf572c1e242485850a29c40dad672601",
        "03756625455d1a60c01bd1d0a6fc8d396b33d55f205590f205c8f03daca81237f7"
      ],
      "is_coinbase": false,
      "sequence": 4294967295
    }
  ],
  "vout": [
    {
      "scriptpubkey": "0014a0a729f9667c09dd93c0c8affd628413dff22ace",
      "scriptpubkey_asm": "OP_0 OP_PUSHBYTES_20 a0a729f9667c09dd93c0c8affd628413dff22ace",
      "scriptpubkey_type": "v0_p2wpkh",
      "scriptpubkey_address": "bc1q5znjn7tx0syamy7qezhl6c5yz00ly2kwqr39yl",
      "value": 5170
    },
    {
      "scriptpubkey": "001411d7453af04e0c156f4688940b3f656d63a33595",
      "scriptpubkey_asm": "OP_0 OP_PUSHBYTES_20 11d7453af04e0c156f4688940b3f656d63a33595",
      "scriptpubkey_type": "v0_p2wpkh",
      "scriptpubkey_address": "bc1qz8t52whsfcxp2m6x3z2qk0m9d436xdv443aua6",
      "value": 429883
    }
  ],
  "size": 223,
  "weight": 562,
  "fee": 2115,
  "status": {
    "confirmed": true,
    "block_height": 834460,
    "block_hash": "00000000000000000000484a79b643b2524bbce82e5d8a442013fa5b8905ed98",
    "block_time": 1710307468
  },
  "hex": "01000000000101921cd45a64c5c94849df140f16adc54a119439bfe4a268e266f30765b1cc16d30100000000ffffffff023214000000000000160014a0a729f9667c09dd93c0c8affd628413dff22ace3b8f06000000000016001411d7453af04e0c156f4688940b3f656d63a3359502483045022100f338f7700ad442dc733744da9e7e86cbc4edaab6368e3b268f529d53225f3dbc02204e5cb18abeebf7ff84885570bb29244b27bf572c1e242485850a29c40dad6726012103756625455d1a60c01bd1d0a6fc8d396b33d55f205590f205c8f03daca81237f700000000"
}