{
  "txid": "aafdef74a1cf38482969e69c2ac0718e42169fcebf1cca5906141e3f6f0f69a9",
  "version": 2,
  "locktime": 0,
  "vin": [
    {
      "txid": "b13bb5512a4904c28a6b7957b88edf574e8cb23551fc1dcfe22d6b239df42cf4",
      "vout": 55,
      "prevout": {
        "scriptpubkey": "5120fdd2b556038939b99c6f4a0ec750fa393a561cae014e4938d678e7725ef9e314",
        "scriptpubkey_asm": "OP_PUSHNUM_1 OP_PUSHBYTES_32 fdd2b556038939b99c6f4a0ec750fa393a561cae014e4938d678e7725ef9e314",
        "scriptpubkey_type": "v1_p2tr",
        "scriptpubkey_address": "bc1plhft24sr3yumn8r0fg8vw5868ya9v89wq98yjwxk0rnhyhheuv2qxkd8en",
        "value": 2575
      },
      "scriptsig": "",
      "scriptsig_asm": "",
      "witness": [
        "e04a2bbf99c98e17924fe9ebe0988370c994136b6865921b963dfa9d648c9b788378c570f29877268c37c282f99575f2827591a4aacee884a452e72b0508c440",
        "20f463d10fbc6f8f0081f02fd57ab7a7612e114c541beac1a5279113f2407cf14dac0063036f726401010a746578742f706c61696e00367b2270223a226272632d3230222c226f70223a226d696e74222c227469636b223a2261616161222c22616d74223a223130303030227d68",
        "c0f463d10fbc6f8f0081f02fd57ab7a7612e114c541beac1a5279113f2407cf14d"
      ],
      "is_coinbase": false,
      "sequence": 4261412863
    }
  ],
  "vout": [
    {
      "scriptpubkey": "0014ce0b5aa0dac72397a8aa5a85d90a2cfb46f0f630",
      "scriptpubkey_asm": "OP_0 OP_PUSHBYTES_20 ce0b5aa0dac72397a8aa5a85d90a2cfb46f0f630",
      "scriptpubkey_type": "v0_p2wpkh",
      "scriptpubkey_address": "bc1qec944gx6cu3e0292t2zajz3vldr0pa3sh356d9",
      "value": 546
    }
  ],
  "size": 295,
  "weight": 541,
  "fee": 2029,
  "status": {
    "confirmed": true,
    "block_height": 834464,
    "block_hash": "0000000000000000000177a0869a911a2b65c9bdcd5a8bcb02b68f305bee848e",
    "block_time": 1710308296
  },
  "hex": "02000000000101f42cf49d236b2de2cf1dfc5135b28c4e57df8eb857796b8ac204492a51b53bb13700000000fffffffd012202000000000000160014ce0b5aa0dac72397a8aa5a85d90a2cfb46f0f6300340e04a2bbf99c98e17924fe9ebe0988370c994136b6865921b963dfa9d648c9b788378c570f29877268c37c282f99575f2827591a4aacee884a452e72b0508c4406e20f463d10fbc6f8f0081f02fd57ab7a7612e114c541beac1a5279113f2407cf14dac0063036f726401010a746578742f706c61696e00367b2270223a226272632d3230222c226f70223a226d696e74222c227469636b223a2261616161222c22616d74223a223130303030227d6821c0f463d10fbc6f8f0081f02fd57ab7a7612e114c541beac1a5279113f2407cf14d00000000"
}