{
  "txid": "ab1674aebde0ca57d52df24047cbf25600c6285db9bb31c6abcf8c0820202eb8",
  "version": 2,
  "locktime": 0,
  "vin": [
    {
      "txid": "68d4fa9656a28d8108dd8c1f684dffc33d502ec5961e61328f9cb353d90a2b6d",
      "vout": 2,
      "prevout": {
        "scriptpubkey": "51207fad5b1e0b61741c43abe673272d49924fe5babd73121f046417ccf0cc49bd28",
        "scriptpubkey_asm": "OP_PUSHNUM_1 OP_PUSHBYTES_32 7fad5b1e0b61741c43abe673272d49924fe5babd73121f046417ccf0cc49bd28",
        "scriptpubkey_type": "v1_p2tr",
        "scriptpubkey_address": "bc1p07k4k8stv96pcsatueejwt2fjf87tw4awvfp7pryzlx0pnzfh55q8cxucu",
        "value": 61002612
      },
      "scriptsig": "",
      "scriptsig_asm": "",
      "witness": [
        "360e171f0c8a57c4251cc142146e06576eecb7e123961e0cce4439c2a66570b3a1e9d2add44c413eb9924fd96498407a0f0299385de46870eb6955c88fc9b048"
      ],
      "is_coinbase": false,
      "sequence": 4294967295
    }
  ],
  "vout": [
    {
      "scriptpubkey": "76a9148bf4e34afda011f98e8aa1f0a6c5ce00747ff61888ac",
      "scriptpubkey_asm": "OP_DUP OP_HASH160 OP_PUSHBYTES_20 8bf4e34afda011f98e8aa1f0a6c5ce00747ff618 OP_EQUALVERIFY OP_CHECKSIG",
      "scriptpubkey_type": "p2pkh",
      "scriptpubkey_address": "1Dm2Hmk9JhxAX6rrfqbMb1wTdh2jy8UfbN",
      "value": 100000
    },
    {
      "scriptpubkey": "51207fad5b1e0b61741c43abe673272d49924fe5babd73121f046417ccf0cc49bd28",
      "scriptpubkey_asm": "OP_PUSHNUM_1 OP_PUSHBYTES_32 7fad5b1e0b61741c43abe673272d49924fe5babd73121f046417ccf0cc49bd28",
      "scriptpubkey_type": "v1_p2tr",
      "scriptpubkey_address": "bc1p07k4k8stv96pcsatueejwt2fjf87tw4awvfp7pryzlx0pnzfh55q8cxucu",
      "value": 60900002
    }
  ],
  "size": 196,
  "weight": 580,
  "fee": 2610,
  "status": {
    "confirmed": true,
    "block_height": 834638,
    "block_hash": "000000000000000000025f742c626208ac87e0b7d15054abb4a19ca2d735a54e",
    "block_time": 1710405325
  },
  "hex": "020000000001016d2b0ad953b39c8f32611e96c52e503dc3ff4d681f8cdd08818da25696fad4680200000000ffffffff02a0860100000000001976a9148bf4e34afda011f98e8aa1f0a6c5ce00747ff61888aca242a103000000002251207fad5b1e0b61741c43abe673272d49924fe5babd73121f046417ccf0cc49bd280140360e171f0c8a57c4251cc142146e06576eecb7e123961e0cce4439c2a66570b3a1e9d2add44c413eb9924fd96498407a0f0299385de46870eb6955c88fc9b04800000000"
}