{
  "txid": "ab21c5febf7d0db7ddbe77aab3fa594fdb51af874963d3c0e5649548d8d41421",
  "version": 2,
  "locktime": 0,
  "vin": [
    {
      "txid": "acc3ba00869acb582a3f2904ce3a11dd3779350ce234063fc7d0959246213364",
      "vout": 128,
      "prevout": {
        "scriptpubkey": "5120a18eea84aa628dfb056ea970832429516c02fac0de1f442dce1fe5969c2b5c36",
        "scriptpubkey_asm": "OP_PUSHNUM_1 OP_PUSHBYTES_32 a18eea84aa628dfb056ea970832429516c02fac0de1f442dce1fe5969c2b5c36",
        "scriptpubkey_type": "v1_p2tr",
        "scriptpubkey_address": "bc1p5x8w4p92v2xlkptw49cgxfpf29kq97kqmc05gtwwrljed8pttsmqy8pdgz",
        "value": 1806
      },
      "scriptsig": "",
      "scriptsig_asm": "",
      "witness": [
        "1288c0999d2c9834f290436aa8dcd990a9cd7b493348673219117ec54acc027820b27c36ec4770fb52844a7f499047a3779547ab7dae82568977cb4222519da5",
        "207601e39f545ebefec80e771c0dac99e6b5af4e6f75f455eb1e36efa99820a7a8ac0063036f726401010a746578742f706c61696e00357b2270223a226272632d3230222c226f70223a226d696e74222c227469636b223a22646f6765222c22616d74223a2234323030227d68",
        "c07601e39f545ebefec80e771c0dac99e6b5af4e6f75f455eb1e36efa99820a7a8"
      ],
      "is_coinbase": false,
      "sequence": 4261412863
    }
  ],
  "vout": [
    {
      "scriptpubkey": "00147a665de7a370f4c9b372ab1fae587500a5bcbdb4",
      "scriptpubkey_asm": "OP_0 OP_PUSHBYTES_20 7a665de7a370f4c9b372ab1fae587500a5bcbdb4",
      "scriptpubkey_type": "v0_p2wpkh",
      "scriptpubkey_address": "bc1q0fn9mearwr6vnvmj4v06ukr4qzjme0d565dzcx",
      "value": 294
    }
  ],
  "size": 294,
  "weight": 540,
  "fee": 1512,
  "status": {
    "confirmed": true,
    "block_height": 834460,
    "block_hash": "00000000000000000000484a79b643b2524bbce82e5d8a442013fa5b8905ed98",
    "block_time": 1710307468
  },
  "hex": "02000000000101643321469295d0c73f0634e20c357937dd113ace04293f2a58cb9a8600bac3ac8000000000fffffffd0126010000000000001600147a665de7a370f4c9b372ab1fae587500a5bcbdb403401288c0999d2c9834f290436aa8dcd990a9cd7b493348673219117ec54acc027820b27c36ec4770fb52844a7f499047a3779547ab7dae82568977cb4222519da56d207601e39f545ebefec80e771c0dac99e6b5af4e6f75f455eb1e36efa99820a7a8ac0063036f726401010a746578742f706c61696e00357b2270223a226272632d3230222c226f70223a226d696e74222c227469636b223a22646f6765222c22616d74223a2234323030227d6821c07601e39f545ebefec80e771c0dac99e6b5af4e6f75f455eb1e36efa99820a7a800000000"
}