{
  "txid": "ab32a0c70be8bfd52637fc25b1ff8ec4638d2a688780049d9d762afbee795883",
  "version": 2,
  "locktime": 0,
  "vin": [
    {
      "txid": "acc3ba00869acb582a3f2904ce3a11dd3779350ce234063fc7d0959246213364",
      "vout": 32,
      "prevout": {
        "scriptpubkey": "512003da43cfb7dc6fc47dd5159588cc200b261415ea898ebd37fa95b90def86b142",
        "scriptpubkey_asm": "OP_PUSHNUM_1 OP_PUSHBYTES_32 03da43cfb7dc6fc47dd5159588cc200b261415ea898ebd37fa95b90def86b142",
        "scriptpubkey_type": "v1_p2tr",
        "scriptpubkey_address": "bc1pq0dy8nahm3huglw4zk2c3npqpvnpg9023x8t6dl6jkusmmuxk9pqf73add",
        "value": 1806
      },
      "scriptsig": "",
      "scriptsig_asm": "",
      "witness": [
        "ee9662941cbb0642bd048456f6ddec7fa21704274959f614436258d39d46d5644c9ce9939e5442231745e83bde27459cc60cfd5df531193ce59d2c8f3c699330",
        "2012f268cdad90a250be2a5d7c442a43cfed8a0ad41abb460b00ae97818faf8263ac0063036f726401010a746578742f706c61696e00357b2270223a226272632d3230222c226f70223a226d696e74222c227469636b223a22646f6765222c22616d74223a2234323030227d68",
        "c012f268cdad90a250be2a5d7c442a43cfed8a0ad41abb460b00ae97818faf8263"
      ],
      "is_coinbase": false,
      "sequence": 4261412863
    }
  ],
  "vout": [
    {
      "scriptpubkey": "00147a665de7a370f4c9b372ab1fae587500a5bcbdb4",
      "scriptpubkey_asm": "OP_0 OP_PUSHBYTES_20 7a665de7a370f4c9b372ab1fae587500a5bcbdb4",
      "scriptpubkey_type": "v0_p2wpkh",
      "scriptpubkey_address": "bc1q0fn9mearwr6vnvmj4v06ukr4qzjme0d565dzcx",
      "value": 294
    }
  ],
  "size": 294,
  "weight": 540,
  "fee": 1512,
  "status": {
    "confirmed": true,
    "block_height": 834460,
    "block_hash": "00000000000000000000484a79b643b2524bbce82e5d8a442013fa5b8905ed98",
    "block_time": 1710307468
  },
  "hex": "02000000000101643321469295d0c73f0634e20c357937dd113ace04293f2a58cb9a8600bac3ac2000000000fffffffd0126010000000000001600147a665de7a370f4c9b372ab1fae587500a5bcbdb40340ee9662941cbb0642bd048456f6ddec7fa21704274959f614436258d39d46d5644c9ce9939e5442231745e83bde27459cc60cfd5df531193ce59d2c8f3c6993306d2012f268cdad90a250be2a5d7c442a43cfed8a0ad41abb460b00ae97818faf8263ac0063036f726401010a746578742f706c61696e00357b2270223a226272632d3230222c226f70223a226d696e74222c227469636b223a22646f6765222c22616d74223a2234323030227d6821c012f268cdad90a250be2a5d7c442a43cfed8a0ad41abb460b00ae97818faf826300000000"
}