{
  "txid": "ab337e2c57995fa8267756e76770356d653887917210761043968f654b0d387b",
  "version": 2,
  "locktime": 0,
  "vin": [
    {
      "txid": "e707231248b0f87b58c28904f5898889c438cdc08bfa66991e1c7285b33b0cb5",
      "vout": 0,
      "prevout": {
        "scriptpubkey": "00143ff591d40972da87c74a42b1eae4963d0fca11da",
        "scriptpubkey_asm": "OP_0 OP_PUSHBYTES_20 3ff591d40972da87c74a42b1eae4963d0fca11da",
        "scriptpubkey_type": "v0_p2wpkh",
        "scriptpubkey_address": "bc1q8l6er4qfwtdg0362g2c74eyk858u5yw6w0ktvx",
        "value": 23350
      },
      "scriptsig": "",
      "scriptsig_asm": "",
      "witness": [
        "3045022100dc193c0257b49d3d6fe238f172befcfc04f734c1187ad159e20513d4cc7ff792022075a6b31bb7dbe82feccc8638fb4a93b19870dc8381a14175ec26215b2603914801",
        "02ad58830ac69083f477ed3681b4f69423d9517dcb19b9b94d636cef734281dbb7"
      ],
      "is_coinbase": false,
      "sequence": 4294967295
    }
  ],
  "vout": [
    {
      "scriptpubkey": "0014161ee977b5df4c254fb63926a59c21d8997a1721",
      "scriptpubkey_asm": "OP_0 OP_PUSHBYTES_20 161ee977b5df4c254fb63926a59c21d8997a1721",
      "scriptpubkey_type": "v0_p2wpkh",
      "scriptpubkey_address": "bc1qzc0wjaa4maxz2nak8yn2t8ppmzvh59epp6333w",
      "value": 22118
    }
  ],
  "size": 192,
  "weight": 438,
  "fee": 1232,
  "status": {
    "confirmed": true,
    "block_height": 834460,
    "block_hash": "00000000000000000000484a79b643b2524bbce82e5d8a442013fa5b8905ed98",
    "block_time": 1710307468
  },
  "hex": "02000000000101b50c3bb385721c1e9966fa8bc0cd38c4898889f50489c2587bf8b048122307e70000000000ffffffff016656000000000000160014161ee977b5df4c254fb63926a59c21d8997a172102483045022100dc193c0257b49d3d6fe238f172befcfc04f734c1187ad159e20513d4cc7ff792022075a6b31bb7dbe82feccc8638fb4a93b19870dc8381a14175ec26215b26039148012102ad58830ac69083f477ed3681b4f69423d9517dcb19b9b94d636cef734281dbb700000000"
}