{
  "txid": "ab3e80d586eefe5f6450f4c6af5b6cb0897f737d8daf8912ecbf2aad99e3ad9f",
  "version": 2,
  "locktime": 0,
  "vin": [
    {
      "txid": "acc3ba00869acb582a3f2904ce3a11dd3779350ce234063fc7d0959246213364",
      "vout": 133,
      "prevout": {
        "scriptpubkey": "5120a8f86aae4e80a5235a830a92edab346ab46a86e87421e694992eccd7406db98e",
        "scriptpubkey_asm": "OP_PUSHNUM_1 OP_PUSHBYTES_32 a8f86aae4e80a5235a830a92edab346ab46a86e87421e694992eccd7406db98e",
        "scriptpubkey_type": "v1_p2tr",
        "scriptpubkey_address": "bc1p4rux4tjwszjjxk5rp2fwm2e5d26x4phgwss7d9ye9mxdwsrdhx8qylt8qz",
        "value": 1806
      },
      "scriptsig": "",
      "scriptsig_asm": "",
      "witness": [
        "1cebdc60e3772e982d83fda9b07d3e684efbfb57e56236c1b951518a4824ff7cc438d3c7bb415d3abf4036c6a537b37cbd83a50e715810488bf4525b4d7d921d",
        "20f1835aa33781318112236f890ee427a9cea0c03b4e215900fd774c45dbc37111ac0063036f726401010a746578742f706c61696e00357b2270223a226272632d3230222c226f70223a226d696e74222c227469636b223a22646f6765222c22616d74223a2234323030227d68",
        "c0f1835aa33781318112236f890ee427a9cea0c03b4e215900fd774c45dbc37111"
      ],
      "is_coinbase": false,
      "sequence": 4261412863
    }
  ],
  "vout": [
    {
      "scriptpubkey": "00147a665de7a370f4c9b372ab1fae587500a5bcbdb4",
      "scriptpubkey_asm": "OP_0 OP_PUSHBYTES_20 7a665de7a370f4c9b372ab1fae587500a5bcbdb4",
      "scriptpubkey_type": "v0_p2wpkh",
      "scriptpubkey_address": "bc1q0fn9mearwr6vnvmj4v06ukr4qzjme0d565dzcx",
      "value": 294
    }
  ],
  "size": 294,
  "weight": 540,
  "fee": 1512,
  "status": {
    "confirmed": true,
    "block_height": 834460,
    "block_hash": "00000000000000000000484a79b643b2524bbce82e5d8a442013fa5b8905ed98",
    "block_time": 1710307468
  },
  "hex": "02000000000101643321469295d0c73f0634e20c357937dd113ace04293f2a58cb9a8600bac3ac8500000000fffffffd0126010000000000001600147a665de7a370f4c9b372ab1fae587500a5bcbdb403401cebdc60e3772e982d83fda9b07d3e684efbfb57e56236c1b951518a4824ff7cc438d3c7bb415d3abf4036c6a537b37cbd83a50e715810488bf4525b4d7d921d6d20f1835aa33781318112236f890ee427a9cea0c03b4e215900fd774c45dbc37111ac0063036f726401010a746578742f706c61696e00357b2270223a226272632d3230222c226f70223a226d696e74222c227469636b223a22646f6765222c22616d74223a2234323030227d6821c0f1835aa33781318112236f890ee427a9cea0c03b4e215900fd774c45dbc3711100000000"
}