{
  "txid": "ab3fb4a87c3b3512b00f443494869bd5ca6a7d303e96ebb2e24f0180cf0d596d",
  "version": 1,
  "locktime": 0,
  "vin": [
    {
      "txid": "5d8f239428ff9bd150b2b6268fa8240ba0cba86d8995a1363b37394745d0343e",
      "vout": 0,
      "prevout": {
        "scriptpubkey": "51200dd53e98b42affe0c771deccafa79f911a59a1064a1775dae4f458c2e03c7d97",
        "scriptpubkey_asm": "OP_PUSHNUM_1 OP_PUSHBYTES_32 0dd53e98b42affe0c771deccafa79f911a59a1064a1775dae4f458c2e03c7d97",
        "scriptpubkey_type": "v1_p2tr",
        "scriptpubkey_address": "bc1pph2nax959tl7p3m3mmx2lfuljyd9nggxfgthtkhy73vv9cpu0kts5rvena",
        "value": 12715531
      },
      "scriptsig": "",
      "scriptsig_asm": "",
      "witness": [
        "235d5f281921ce067ab9f4bf957bd402e357c48bf6912717a6c9b1b1b7216914e33c1e60db4fe35d1fb03d5089ab6f8c686ac183a4681db490fa0eda5018bcf001"
      ],
      "is_coinbase": false,
      "sequence": 4294967295
    },
    {
      "txid": "565853c89ee4c7d24102099ed646600fdfe9f87d64bfa7bcee07a7db3db226af",
      "vout": 12,
      "prevout": {
        "scriptpubkey": "00204f147bd4a6e3e051a833a67b6ae0c904e06bf47e11900b018016e27e3d07d2a8",
        "scriptpubkey_asm": "OP_0 OP_PUSHBYTES_32 4f147bd4a6e3e051a833a67b6ae0c904e06bf47e11900b018016e27e3d07d2a8",
        "scriptpubkey_type": "v0_p2wsh",
        "scriptpubkey_address": "bc1qfu28h49xu0s9r2pn5eak4cxfqnsxhar7zxgqkqvqzm38u0g8625qxp5vnq",
        "value": 10575836
      },
      "scriptsig": "",
      "scriptsig_asm": "",
      "witness": [
        "",
        "3045022100a85a5da7804fc0b2539c7e992ce894ea6e44591dd4a569f37e40828c28207a2602207dd8498e4c94ac651bfa844e94d4e6d2d3515d66993ace32c6c92119b0c6e8f301",
        "3044022036b99b853c53f06f8765c13fd26a8a4a253e9f0f8f9dbbea69297cc4eb36cbd50220661738ac65aae9419d2d51b3d000b80acd5336d71e3521021ad1525d5e61e71501",
        "5221020c89709614a7411947c5791d197c2f28b6dcf235763ab69dba41e5285814c88a2103a8f1c46d53158982dc2ab9d5329e04eb95d8d1e817f75085322b4e894bb498f852ae"
      ],
      "is_coinbase": false,
      "sequence": 4294967295,
      "inner_witnessscript_asm": "OP_PUSHNUM_2 OP_PUSHBYTES_33 020c89709614a7411947c5791d197c2f28b6dcf235763ab69dba41e5285814c88a OP_PUSHBYTES_33 03a8f1c46d53158982dc2ab9d5329e04eb95d8d1e817f75085322b4e894bb498f8 OP_PUSHNUM_2 OP_CHECKMULTISIG"
    },
    {
      "txid": "2e061448951d83fffb4f8b834ab6d59ad414278365af5e70c2b70e540d845a23",
      "vout": 0,
      "prevout": {
        "scriptpubkey": "5120eebde6eab8323324c997b239146e6385297cf64cbb32a99d0c1130c46d2ae92d",
        "scriptpubkey_asm": "OP_PUSHNUM_1 OP_PUSHBYTES_32 eebde6eab8323324c997b239146e6385297cf64cbb32a99d0c1130c46d2ae92d",
        "scriptpubkey_type": "v1_p2tr",
        "scriptpubkey_address": "bc1pa677d64cxgejfjvhkgu3gmnrs55heajvhve2n8gvzycvgmf2ayks8632xk",
        "value": 9968882
      },
      "scriptsig": "",
      "scriptsig_asm": "",
      "witness": [
        "cbc7e0fba6ad7fe7e7c8197eb9ac2eebac37f31dcd8b9fb2f1e202795f4a48aeffa8d8f64191f2666d55cd474fce1a4b6fab10ac621336376c827eecafad996001"
      ],
      "is_coinbase": false,
      "sequence": 4294967295
    }
  ],
  "vout": [
    {
      "scriptpubkey": "5120b1c05d8264a46d641b3f233d724470bc79aa81c3f9208fa947cad13532221c2f",
      "scriptpubkey_asm": "OP_PUSHNUM_1 OP_PUSHBYTES_32 b1c05d8264a46d641b3f233d724470bc79aa81c3f9208fa947cad13532221c2f",
      "scriptpubkey_type": "v1_p2tr",
      "scriptpubkey_address": "bc1pk8q9mqny53kkgxelyv7hy3rsh3u64qwrlysgl228etgn2v3zrshsw6ead8",
      "value": 9965228
    },
    {
      "scriptpubkey": "a914ee15bb8873949b7f6c3ec72f3ce012ceee38910b87",
      "scriptpubkey_asm": "OP_HASH160 OP_PUSHBYTES_20 ee15bb8873949b7f6c3ec72f3ce012ceee38910b OP_EQUAL",
      "scriptpubkey_type": "p2sh",
      "scriptpubkey_address": "3PPtnCkpXFRumLEv1mdihrHUNCbcoykQ1w",
      "value": 23291787
    }
  ],
  "size": 563,
  "weight": 1187,
  "fee": 3234,
  "status": {
    "confirmed": true,
    "block_height": 834464,
    "block_hash": "0000000000000000000177a0869a911a2b65c9bdcd5a8bcb02b68f305bee848e",
    "block_time": 1710308296
  },
  "hex": "010000000001033e34d0454739373b36a195896da8cba00b24a88f26b6b250d19bff2894238f5d0000000000ffffffffaf26b23ddba707eebca7bf647df8e9df0f6046d69e090241d2c7e49ec85358560c00000000ffffffff235a840d540eb7c2705eaf65832714d49ad5b64a838b4ffbff831d954814062e0000000000ffffffff02ac0e980000000000225120b1c05d8264a46d641b3f233d724470bc79aa81c3f9208fa947cad13532221c2f8b6763010000000017a914ee15bb8873949b7f6c3ec72f3ce012ceee38910b870141235d5f281921ce067ab9f4bf957bd402e357c48bf6912717a6c9b1b1b7216914e33c1e60db4fe35d1fb03d5089ab6f8c686ac183a4681db490fa0eda5018bcf0010400483045022100a85a5da7804fc0b2539c7e992ce894ea6e44591dd4a569f37e40828c28207a2602207dd8498e4c94ac651bfa844e94d4e6d2d3515d66993ace32c6c92119b0c6e8f301473044022036b99b853c53f06f8765c13fd26a8a4a253e9f0f8f9dbbea69297cc4eb36cbd50220661738ac65aae9419d2d51b3d000b80acd5336d71e3521021ad1525d5e61e71501475221020c89709614a7411947c5791d197c2f28b6dcf235763ab69dba41e5285814c88a2103a8f1c46d53158982dc2ab9d5329e04eb95d8d1e817f75085322b4e894bb498f852ae0141cbc7e0fba6ad7fe7e7c8197eb9ac2eebac37f31dcd8b9fb2f1e202795f4a48aeffa8d8f64191f2666d55cd474fce1a4b6fab10ac621336376c827eecafad99600100000000"
}