{
  "txid": "ab539e7a9f45cc673ec8639ae1a8394f002cd126ac7a51151a7a5ce6e8ac36a5",
  "version": 2,
  "locktime": 0,
  "vin": [
    {
      "txid": "72ba5995c6513bcac4b21f398d16038e4b00c6f48c286b639cdebdc11091e59c",
      "vout": 1,
      "prevout": {
        "scriptpubkey": "0014771bf2beb85acfc936dbe40691f287fcab07df76",
        "scriptpubkey_asm": "OP_0 OP_PUSHBYTES_20 771bf2beb85acfc936dbe40691f287fcab07df76",
        "scriptpubkey_type": "v0_p2wpkh",
        "scriptpubkey_address": "bc1qwudl904ctt8ujdkmusrfru58lj4s0hmkwyhw55",
        "value": 975855
      },
      "scriptsig": "",
      "scriptsig_asm": "",
      "witness": [
        "30450221009c655ec45dba4f98aba18cd02be4010e1d06a1aea9ab00f1b5cd078fc6d3aaaf022008a03ad07b5f0719926e7c38ecd404450a60e17b0512bd1c4c0d0e07d5edcfc001",
        "03a2024a094c70c8bb3c014ce0cc37e89209d7f3dc90f0ec09141b289f6ab45f4d"
      ],
      "is_coinbase": false,
      "sequence": 4294967295
    }
  ],
  "vout": [
    {
      "scriptpubkey": "76a914b3b10db91815a0fadba4435f6585914b477ab54888ac",
      "scriptpubkey_asm": "OP_DUP OP_HASH160 OP_PUSHBYTES_20 b3b10db91815a0fadba4435f6585914b477ab548 OP_EQUALVERIFY OP_CHECKSIG",
      "scriptpubkey_type": "p2pkh",
      "scriptpubkey_address": "1HP84Eo3mgDXfc2rYbMdqyFpYnUitLSdAe",
      "value": 880000
    },
    {
      "scriptpubkey": "0014771bf2beb85acfc936dbe40691f287fcab07df76",
      "scriptpubkey_asm": "OP_0 OP_PUSHBYTES_20 771bf2beb85acfc936dbe40691f287fcab07df76",
      "scriptpubkey_type": "v0_p2wpkh",
      "scriptpubkey_address": "bc1qwudl904ctt8ujdkmusrfru58lj4s0hmkwyhw55",
      "value": 93551
    }
  ],
  "size": 226,
  "weight": 574,
  "fee": 2304,
  "status": {
    "confirmed": true,
    "block_height": 834638,
    "block_hash": "000000000000000000025f742c626208ac87e0b7d15054abb4a19ca2d735a54e",
    "block_time": 1710405325
  },
  "hex": "020000000001019ce59110c1bdde9c636b288cf4c6004b8e03168d391fb2c4ca3b51c69559ba720100000000ffffffff02806d0d00000000001976a914b3b10db91815a0fadba4435f6585914b477ab54888ac6f6d010000000000160014771bf2beb85acfc936dbe40691f287fcab07df76024830450221009c655ec45dba4f98aba18cd02be4010e1d06a1aea9ab00f1b5cd078fc6d3aaaf022008a03ad07b5f0719926e7c38ecd404450a60e17b0512bd1c4c0d0e07d5edcfc0012103a2024a094c70c8bb3c014ce0cc37e89209d7f3dc90f0ec09141b289f6ab45f4d00000000"
}