{
  "txid": "ab58465bbfc39244fe92a6b13ef6479fcdeec6cb118038659af63a8218a53cd1",
  "version": 1,
  "locktime": 0,
  "vin": [
    {
      "txid": "0419a8bb54c11ec808b9e322515ebee0cefef8ff897f5a9f6a55d5dd845d64a3",
      "vout": 1,
      "prevout": {
        "scriptpubkey": "00140be24f3e83f6fda9aa132083a5655b777817bea9",
        "scriptpubkey_asm": "OP_0 OP_PUSHBYTES_20 0be24f3e83f6fda9aa132083a5655b777817bea9",
        "scriptpubkey_type": "v0_p2wpkh",
        "scriptpubkey_address": "bc1qp03y705r7m76n2snyzp62e2mwaup004f0ddcze",
        "value": 9719523374
      },
      "scriptsig": "",
      "scriptsig_asm": "",
      "witness": [
        "304402206b8effe9a982db7e3ce7dc21f24baf61d8ac3690b4e2e4c4316296203ef3a7d90220770b53a8b080a1b6ae7d1473da96cad3ff2cd393e021d8d577eada1aa8d044af01",
        "02ebb5ea87dc7cca6a1c20895ae025b2e22fa34116df8ed59acb0db298be65d3ad"
      ],
      "is_coinbase": false,
      "sequence": 4294967295
    }
  ],
  "vout": [
    {
      "scriptpubkey": "76a914351b916b6ee526e3e4dfcb56d4dfa013592a5b6288ac",
      "scriptpubkey_asm": "OP_DUP OP_HASH160 OP_PUSHBYTES_20 351b916b6ee526e3e4dfcb56d4dfa013592a5b62 OP_EQUALVERIFY OP_CHECKSIG",
      "scriptpubkey_type": "p2pkh",
      "scriptpubkey_address": "15qoqdSvsK6NQNUHgkHQSohYMBTMPAvNhX",
      "value": 2025000
    },
    {
      "scriptpubkey": "00140be24f3e83f6fda9aa132083a5655b777817bea9",
      "scriptpubkey_asm": "OP_0 OP_PUSHBYTES_20 0be24f3e83f6fda9aa132083a5655b777817bea9",
      "scriptpubkey_type": "v0_p2wpkh",
      "scriptpubkey_address": "bc1qp03y705r7m76n2snyzp62e2mwaup004f0ddcze",
      "value": 9717495609
    }
  ],
  "size": 225,
  "weight": 573,
  "fee": 2765,
  "status": {
    "confirmed": true,
    "block_height": 834638,
    "block_hash": "000000000000000000025f742c626208ac87e0b7d15054abb4a19ca2d735a54e",
    "block_time": 1710405325
  },
  "hex": "01000000000101a3645d84ddd5556a9f5a7f89fff8fecee0be5e5122e3b908c81ec154bba819040100000000ffffffff0228e61e00000000001976a914351b916b6ee526e3e4dfcb56d4dfa013592a5b6288ac39373543020000001600140be24f3e83f6fda9aa132083a5655b777817bea90247304402206b8effe9a982db7e3ce7dc21f24baf61d8ac3690b4e2e4c4316296203ef3a7d90220770b53a8b080a1b6ae7d1473da96cad3ff2cd393e021d8d577eada1aa8d044af012102ebb5ea87dc7cca6a1c20895ae025b2e22fa34116df8ed59acb0db298be65d3ad00000000"
}