{
  "txid": "ab5d04c0efa5085cf881fda097f7c84ea08eec0306f0831e2efa12a0480fbb4c",
  "version": 2,
  "locktime": 0,
  "vin": [
    {
      "txid": "7fcc808916f06e4e294cb71268fb23eaf21cf629d038fb37b7a07914f7e53095",
      "vout": 0,
      "prevout": {
        "scriptpubkey": "00144d403873d92a706e54bf10217cf24568577868de",
        "scriptpubkey_asm": "OP_0 OP_PUSHBYTES_20 4d403873d92a706e54bf10217cf24568577868de",
        "scriptpubkey_type": "v0_p2wpkh",
        "scriptpubkey_address": "bc1qf4qrsu7e9fcxu49lzqsheuj9dpths6x7sxycul",
        "value": 25234
      },
      "scriptsig": "",
      "scriptsig_asm": "",
      "witness": [
        "3045022100e66a4f380fde3c545757ced3a7b28ab563752dd29e2322596b25e30ef4a533c502204d6a81211a5f6617207513e3578223c9afa43b911cef58ba5d724bdcb7b6aca401",
        "02931123c9f75c9c97c44a00403533160cfcbcf517c621cd19d389eb9be89dcd50"
      ],
      "is_coinbase": false,
      "sequence": 4294967295
    }
  ],
  "vout": [
    {
      "scriptpubkey": "0014161ee977b5df4c254fb63926a59c21d8997a1721",
      "scriptpubkey_asm": "OP_0 OP_PUSHBYTES_20 161ee977b5df4c254fb63926a59c21d8997a1721",
      "scriptpubkey_type": "v0_p2wpkh",
      "scriptpubkey_address": "bc1qzc0wjaa4maxz2nak8yn2t8ppmzvh59epp6333w",
      "value": 24002
    }
  ],
  "size": 192,
  "weight": 438,
  "fee": 1232,
  "status": {
    "confirmed": true,
    "block_height": 834460,
    "block_hash": "00000000000000000000484a79b643b2524bbce82e5d8a442013fa5b8905ed98",
    "block_time": 1710307468
  },
  "hex": "020000000001019530e5f71479a0b737fb38d029f61cf2ea23fb6812b74c294e6ef0168980cc7f0000000000ffffffff01c25d000000000000160014161ee977b5df4c254fb63926a59c21d8997a172102483045022100e66a4f380fde3c545757ced3a7b28ab563752dd29e2322596b25e30ef4a533c502204d6a81211a5f6617207513e3578223c9afa43b911cef58ba5d724bdcb7b6aca4012102931123c9f75c9c97c44a00403533160cfcbcf517c621cd19d389eb9be89dcd5000000000"
}