{
  "txid": "ab6d48e8a831627d92acd121760077d24b9533dcca3d2ec1dbd6bc148f8d9cb0",
  "version": 2,
  "locktime": 0,
  "vin": [
    {
      "txid": "f643b03e531948182abbb75d382b85bb70151d936ab9199716628bd036c8b369",
      "vout": 0,
      "prevout": {
        "scriptpubkey": "5120a0651bdb8b45080ad414727a3bd4c660e0640cc27ce90f99a3986791f40b898b",
        "scriptpubkey_asm": "OP_PUSHNUM_1 OP_PUSHBYTES_32 a0651bdb8b45080ad414727a3bd4c660e0640cc27ce90f99a3986791f40b898b",
        "scriptpubkey_type": "v1_p2tr",
        "scriptpubkey_address": "bc1p5pj3hkutg5yq44q5wfarh4xxvrsxgrxz0n5slxdrnpneraqt3x9s9a70s7",
        "value": 1324
      },
      "scriptsig": "",
      "scriptsig_asm": "",
      "witness": [
        "921e87f008372ba3a804021d888a846015424244e25437cfa110dc3af87f2f1a2f594a457c4ddcfbf68a367fea65cc7644ae2da04d404f1b3247f180836beaff"
      ],
      "is_coinbase": false,
      "sequence": 4294967295
    },
    {
      "txid": "f643b03e531948182abbb75d382b85bb70151d936ab9199716628bd036c8b369",
      "vout": 101,
      "prevout": {
        "scriptpubkey": "5120a0651bdb8b45080ad414727a3bd4c660e0640cc27ce90f99a3986791f40b898b",
        "scriptpubkey_asm": "OP_PUSHNUM_1 OP_PUSHBYTES_32 a0651bdb8b45080ad414727a3bd4c660e0640cc27ce90f99a3986791f40b898b",
        "scriptpubkey_type": "v1_p2tr",
        "scriptpubkey_address": "bc1p5pj3hkutg5yq44q5wfarh4xxvrsxgrxz0n5slxdrnpneraqt3x9s9a70s7",
        "value": 1324
      },
      "scriptsig": "",
      "scriptsig_asm": "",
      "witness": [
        "509ba15c515c5d3c7e6c690490b09c64c38184786d7f2f45aab9f48296646e5ab45e8d3a7cb0f558498dd599130b2f52599601e251077559f41c6ca24eca2bee"
      ],
      "is_coinbase": false,
      "sequence": 4294967295
    },
    {
      "txid": "f643b03e531948182abbb75d382b85bb70151d936ab9199716628bd036c8b369",
      "vout": 119,
      "prevout": {
        "scriptpubkey": "5120a0651bdb8b45080ad414727a3bd4c660e0640cc27ce90f99a3986791f40b898b",
        "scriptpubkey_asm": "OP_PUSHNUM_1 OP_PUSHBYTES_32 a0651bdb8b45080ad414727a3bd4c660e0640cc27ce90f99a3986791f40b898b",
        "scriptpubkey_type": "v1_p2tr",
        "scriptpubkey_address": "bc1p5pj3hkutg5yq44q5wfarh4xxvrsxgrxz0n5slxdrnpneraqt3x9s9a70s7",
        "value": 1324
      },
      "scriptsig": "",
      "scriptsig_asm": "",
      "witness": [
        "7e493c0be0796f673987b699c242d454f5f9f50bbdf43b961d803c24a52ea1178d3617a4b858e058dec37a4dccefad466ee1c077e89abbe937e981248b3ec3fd"
      ],
      "is_coinbase": false,
      "sequence": 4294967295
    },
    {
      "txid": "f643b03e531948182abbb75d382b85bb70151d936ab9199716628bd036c8b369",
      "vout": 121,
      "prevout": {
        "scriptpubkey": "5120a0651bdb8b45080ad414727a3bd4c660e0640cc27ce90f99a3986791f40b898b",
        "scriptpubkey_asm": "OP_PUSHNUM_1 OP_PUSHBYTES_32 a0651bdb8b45080ad414727a3bd4c660e0640cc27ce90f99a3986791f40b898b",
        "scriptpubkey_type": "v1_p2tr",
        "scriptpubkey_address": "bc1p5pj3hkutg5yq44q5wfarh4xxvrsxgrxz0n5slxdrnpneraqt3x9s9a70s7",
        "value": 1324
      },
      "scriptsig": "",
      "scriptsig_asm": "",
      "witness": [
        "52a55887fa6a04b08afabb65e84065fbc8d3dfcf181a45e4ffd76ac3713f98cb954b7dd841ce68959dffb85d7873ca0413ede7aaf546f0d3a261ef61ea870275"
      ],
      "is_coinbase": false,
      "sequence": 4294967295
    },
    {
      "txid": "f643b03e531948182abbb75d382b85bb70151d936ab9199716628bd036c8b369",
      "vout": 122,
      "prevout": {
        "scriptpubkey": "5120a0651bdb8b45080ad414727a3bd4c660e0640cc27ce90f99a3986791f40b898b",
        "scriptpubkey_asm": "OP_PUSHNUM_1 OP_PUSHBYTES_32 a0651bdb8b45080ad414727a3bd4c660e0640cc27ce90f99a3986791f40b898b",
        "scriptpubkey_type": "v1_p2tr",
        "scriptpubkey_address": "bc1p5pj3hkutg5yq44q5wfarh4xxvrsxgrxz0n5slxdrnpneraqt3x9s9a70s7",
        "value": 1324
      },
      "scriptsig": "",
      "scriptsig_asm": "",
      "witness": [
        "c76167437e62ab090179e18280bc26969b1180db7092b99bcd15d85df753dffd35c7daf7a1bb69cff9bc28adf72a911703af86b7f60323906b282d40499e7d61"
      ],
      "is_coinbase": false,
      "sequence": 4294967295
    },
    {
      "txid": "f643b03e531948182abbb75d382b85bb70151d936ab9199716628bd036c8b369",
      "vout": 127,
      "prevout": {
        "scriptpubkey": "5120a0651bdb8b45080ad414727a3bd4c660e0640cc27ce90f99a3986791f40b898b",
        "scriptpubkey_asm": "OP_PUSHNUM_1 OP_PUSHBYTES_32 a0651bdb8b45080ad414727a3bd4c660e0640cc27ce90f99a3986791f40b898b",
        "scriptpubkey_type": "v1_p2tr",
        "scriptpubkey_address": "bc1p5pj3hkutg5yq44q5wfarh4xxvrsxgrxz0n5slxdrnpneraqt3x9s9a70s7",
        "value": 1324
      },
      "scriptsig": "",
      "scriptsig_asm": "",
      "witness": [
        "9371e1e8a8abe7000418981f67e3b170d10c8a6e5d6337463e0e3574a6826dfd1da8eb0b0fced77e48134702209c93f06c06f597d89e4011537db93a267914ad"
      ],
      "is_coinbase": false,
      "sequence": 4294967295
    },
    {
      "txid": "f643b03e531948182abbb75d382b85bb70151d936ab9199716628bd036c8b369",
      "vout": 13,
      "prevout": {
        "scriptpubkey": "5120a0651bdb8b45080ad414727a3bd4c660e0640cc27ce90f99a3986791f40b898b",
        "scriptpubkey_asm": "OP_PUSHNUM_1 OP_PUSHBYTES_32 a0651bdb8b45080ad414727a3bd4c660e0640cc27ce90f99a3986791f40b898b",
        "scriptpubkey_type": "v1_p2tr",
        "scriptpubkey_address": "bc1p5pj3hkutg5yq44q5wfarh4xxvrsxgrxz0n5slxdrnpneraqt3x9s9a70s7",
        "value": 1324
      },
      "scriptsig": "",
      "scriptsig_asm": "",
      "witness": [
        "c6f4be1df0eaee9b184f265c56c46c702c74633055a4e848fd42035f01132e4c9319b5175afc3c56df82dd9c4186aa665e49ccf9f7d6e43628254cc10698ffc2"
      ],
      "is_coinbase": false,
      "sequence": 4294967295
    },
    {
      "txid": "f643b03e531948182abbb75d382b85bb70151d936ab9199716628bd036c8b369",
      "vout": 131,
      "prevout": {
        "scriptpubkey": "5120a0651bdb8b45080ad414727a3bd4c660e0640cc27ce90f99a3986791f40b898b",
        "scriptpubkey_asm": "OP_PUSHNUM_1 OP_PUSHBYTES_32 a0651bdb8b45080ad414727a3bd4c660e0640cc27ce90f99a3986791f40b898b",
        "scriptpubkey_type": "v1_p2tr",
        "scriptpubkey_address": "bc1p5pj3hkutg5yq44q5wfarh4xxvrsxgrxz0n5slxdrnpneraqt3x9s9a70s7",
        "value": 1324
      },
      "scriptsig": "",
      "scriptsig_asm": "",
      "witness": [
        "d3f9a546826e997f429d57bf4fec38b7b389665414921f4514c4e4fae6d015e501cbf8ea03e81f2e2fdda598c70272cc060563ba0a0b01e522db8f6904c01581"
      ],
      "is_coinbase": false,
      "sequence": 4294967295
    },
    {
      "txid": "f643b03e531948182abbb75d382b85bb70151d936ab9199716628bd036c8b369",
      "vout": 133,
      "prevout": {
        "scriptpubkey": "5120a0651bdb8b45080ad414727a3bd4c660e0640cc27ce90f99a3986791f40b898b",
        "scriptpubkey_asm": "OP_PUSHNUM_1 OP_PUSHBYTES_32 a0651bdb8b45080ad414727a3bd4c660e0640cc27ce90f99a3986791f40b898b",
        "scriptpubkey_type": "v1_p2tr",
        "scriptpubkey_address": "bc1p5pj3hkutg5yq44q5wfarh4xxvrsxgrxz0n5slxdrnpneraqt3x9s9a70s7",
        "value": 1324
      },
      "scriptsig": "",
      "scriptsig_asm": "",
      "witness": [
        "17e980024ca742fde37cbdce2a987b01dca49f9ef7585779325e5f9d128902cd916179155e56d5aea25169e52c02194b2760b866c23fda71543f0203dc3a046f"
      ],
      "is_coinbase": false,
      "sequence": 4294967295
    },
    {
      "txid": "f643b03e531948182abbb75d382b85bb70151d936ab9199716628bd036c8b369",
      "vout": 14,
      "prevout": {
        "scriptpubkey": "5120a0651bdb8b45080ad414727a3bd4c660e0640cc27ce90f99a3986791f40b898b",
        "scriptpubkey_asm": "OP_PUSHNUM_1 OP_PUSHBYTES_32 a0651bdb8b45080ad414727a3bd4c660e0640cc27ce90f99a3986791f40b898b",
        "scriptpubkey_type": "v1_p2tr",
        "scriptpubkey_address": "bc1p5pj3hkutg5yq44q5wfarh4xxvrsxgrxz0n5slxdrnpneraqt3x9s9a70s7",
        "value": 1324
      },
      "scriptsig": "",
      "scriptsig_asm": "",
      "witness": [
        "6815fc9b59a26ed65e2e2c7135310f2aa691e1b7a12b774009cc6cf7ef2ac478ddfbb16ba9957e8fc773c2b28588df360cdbf084b7bd62339f83a87b53ee778f"
      ],
      "is_coinbase": false,
      "sequence": 4294967295
    },
    {
      "txid": "f643b03e531948182abbb75d382b85bb70151d936ab9199716628bd036c8b369",
      "vout": 152,
      "prevout": {
        "scriptpubkey": "5120a0651bdb8b45080ad414727a3bd4c660e0640cc27ce90f99a3986791f40b898b",
        "scriptpubkey_asm": "OP_PUSHNUM_1 OP_PUSHBYTES_32 a0651bdb8b45080ad414727a3bd4c660e0640cc27ce90f99a3986791f40b898b",
        "scriptpubkey_type": "v1_p2tr",
        "scriptpubkey_address": "bc1p5pj3hkutg5yq44q5wfarh4xxvrsxgrxz0n5slxdrnpneraqt3x9s9a70s7",
        "value": 1324
      },
      "scriptsig": "",
      "scriptsig_asm": "",
      "witness": [
        "10884f5e35b2d391ca9f118ab3b7db377cd50c7caebd4dd55cd1dc1f4393a544ca2ad8665f40c710d7c0abba9a266602e7170f36963f22cce822b7c0192878d5"
      ],
      "is_coinbase": false,
      "sequence": 4294967295
    },
    {
      "txid": "f643b03e531948182abbb75d382b85bb70151d936ab9199716628bd036c8b369",
      "vout": 167,
      "prevout": {
        "scriptpubkey": "5120a0651bdb8b45080ad414727a3bd4c660e0640cc27ce90f99a3986791f40b898b",
        "scriptpubkey_asm": "OP_PUSHNUM_1 OP_PUSHBYTES_32 a0651bdb8b45080ad414727a3bd4c660e0640cc27ce90f99a3986791f40b898b",
        "scriptpubkey_type": "v1_p2tr",
        "scriptpubkey_address": "bc1p5pj3hkutg5yq44q5wfarh4xxvrsxgrxz0n5slxdrnpneraqt3x9s9a70s7",
        "value": 1324
      },
      "scriptsig": "",
      "scriptsig_asm": "",
      "witness": [
        "8869b81c84178727d8d052e2dc6fd187fdb61b920851a1556179b1948a0c00b2820decd1ff4485b5022a506d1713e38cc37fb6f06a1a9486ecd037dc0ad9c98e"
      ],
      "is_coinbase": false,
      "sequence": 4294967295
    },
    {
      "txid": "f643b03e531948182abbb75d382b85bb70151d936ab9199716628bd036c8b369",
      "vout": 174,
      "prevout": {
        "scriptpubkey": "5120a0651bdb8b45080ad414727a3bd4c660e0640cc27ce90f99a3986791f40b898b",
        "scriptpubkey_asm": "OP_PUSHNUM_1 OP_PUSHBYTES_32 a0651bdb8b45080ad414727a3bd4c660e0640cc27ce90f99a3986791f40b898b",
        "scriptpubkey_type": "v1_p2tr",
        "scriptpubkey_address": "bc1p5pj3hkutg5yq44q5wfarh4xxvrsxgrxz0n5slxdrnpneraqt3x9s9a70s7",
        "value": 1324
      },
      "scriptsig": "",
      "scriptsig_asm": "",
      "witness": [
        "f4e490d249d6d96d7c970ce503a67b023900ecb02965461ecc80320d0d2df5250cbb7c75130a81540b878a1adfd3b3e2aae0b755132927699284ebfd4b9a0c74"
      ],
      "is_coinbase": false,
      "sequence": 4294967295
    },
    {
      "txid": "f643b03e531948182abbb75d382b85bb70151d936ab9199716628bd036c8b369",
      "vout": 18,
      "prevout": {
        "scriptpubkey": "5120a0651bdb8b45080ad414727a3bd4c660e0640cc27ce90f99a3986791f40b898b",
        "scriptpubkey_asm": "OP_PUSHNUM_1 OP_PUSHBYTES_32 a0651bdb8b45080ad414727a3bd4c660e0640cc27ce90f99a3986791f40b898b",
        "scriptpubkey_type": "v1_p2tr",
        "scriptpubkey_address": "bc1p5pj3hkutg5yq44q5wfarh4xxvrsxgrxz0n5slxdrnpneraqt3x9s9a70s7",
        "value": 1324
      },
      "scriptsig": "",
      "scriptsig_asm": "",
      "witness": [
        "83703bbe4ef1a2ecd9ec699510893df346129bf5d202532cbe47092ac64c43a75b5d4c62ee9f6eb918d3b0068a5c37c05a9049600eabebfe80595b573fc6a486"
      ],
      "is_coinbase": false,
      "sequence": 4294967295
    },
    {
      "txid": "f643b03e531948182abbb75d382b85bb70151d936ab9199716628bd036c8b369",
      "vout": 183,
      "prevout": {
        "scriptpubkey": "5120a0651bdb8b45080ad414727a3bd4c660e0640cc27ce90f99a3986791f40b898b",
        "scriptpubkey_asm": "OP_PUSHNUM_1 OP_PUSHBYTES_32 a0651bdb8b45080ad414727a3bd4c660e0640cc27ce90f99a3986791f40b898b",
        "scriptpubkey_type": "v1_p2tr",
        "scriptpubkey_address": "bc1p5pj3hkutg5yq44q5wfarh4xxvrsxgrxz0n5slxdrnpneraqt3x9s9a70s7",
        "value": 1324
      },
      "scriptsig": "",
      "scriptsig_asm": "",
      "witness": [
        "d3103573f385e994e5603173f2a1fe35a7544fb02fe43baf0370e4a698939ed6d3bcefdac87340950071e119340812a210327a2b595bf4e0e3c9e59a6d1e6b71"
      ],
      "is_coinbase": false,
      "sequence": 4294967295
    }
  ],
  "vout": [
    {
      "scriptpubkey": "51206899806aa94a87541aa6019137ceb892e3394cd1cfdcdc51f30047c5432bad6d",
      "scriptpubkey_asm": "OP_PUSHNUM_1 OP_PUSHBYTES_32 6899806aa94a87541aa6019137ceb892e3394cd1cfdcdc51f30047c5432bad6d",
      "scriptpubkey_type": "v1_p2tr",
      "scriptpubkey_address": "bc1pdzvcq64ff2r4gx4xqxgn0n4cjt3njnx3elwdc50nqpru2set44ks046jmj",
      "value": 10000
    }
  ],
  "size": 1660,
  "weight": 3664,
  "fee": 9860,
  "status": {
    "confirmed": true,
    "block_height": 834464,
    "block_hash": "0000000000000000000177a0869a911a2b65c9bdcd5a8bcb02b68f305bee848e",
    "block_time": 1710308296
  },
  "hex": "0200000000010f69b3c836d08b62169719b96a931d1570bb852b385db7bb2a184819533eb043f60000000000ffffffff69b3c836d08b62169719b96a931d1570bb852b385db7bb2a184819533eb043f66500000000ffffffff69b3c836d08b62169719b96a931d1570bb852b385db7bb2a184819533eb043f67700000000ffffffff69b3c836d08b62169719b96a931d1570bb852b385db7bb2a184819533eb043f67900000000ffffffff69b3c836d08b62169719b96a931d1570bb852b385db7bb2a184819533eb043f67a00000000ffffffff69b3c836d08b62169719b96a931d1570bb852b385db7bb2a184819533eb043f67f00000000ffffffff69b3c836d08b62169719b96a931d1570bb852b385db7bb2a184819533eb043f60d00000000ffffffff69b3c836d08b62169719b96a931d1570bb852b385db7bb2a184819533eb043f68300000000ffffffff69b3c836d08b62169719b96a931d1570bb852b385db7bb2a184819533eb043f68500000000ffffffff69b3c836d08b62169719b96a931d1570bb852b385db7bb2a184819533eb043f60e00000000ffffffff69b3c836d08b62169719b96a931d1570bb852b385db7bb2a184819533eb043f69800000000ffffffff69b3c836d08b62169719b96a931d1570bb852b385db7bb2a184819533eb043f6a700000000ffffffff69b3c836d08b62169719b96a931d1570bb852b385db7bb2a184819533eb043f6ae00000000ffffffff69b3c836d08b62169719b96a931d1570bb852b385db7bb2a184819533eb043f61200000000ffffffff69b3c836d08b62169719b96a931d1570bb852b385db7bb2a184819533eb043f6b700000000ffffffff0110270000000000002251206899806aa94a87541aa6019137ceb892e3394cd1cfdcdc51f30047c5432bad6d0140921e87f008372ba3a804021d888a846015424244e25437cfa110dc3af87f2f1a2f594a457c4ddcfbf68a367fea65cc7644ae2da04d404f1b3247f180836beaff0140509ba15c515c5d3c7e6c690490b09c64c38184786d7f2f45aab9f48296646e5ab45e8d3a7cb0f558498dd599130b2f52599601e251077559f41c6ca24eca2bee01407e493c0be0796f673987b699c242d454f5f9f50bbdf43b961d803c24a52ea1178d3617a4b858e058dec37a4dccefad466ee1c077e89abbe937e981248b3ec3fd014052a55887fa6a04b08afabb65e84065fbc8d3dfcf181a45e4ffd76ac3713f98cb954b7dd841ce68959dffb85d7873ca0413ede7aaf546f0d3a261ef61ea8702750140c76167437e62ab090179e18280bc26969b1180db7092b99bcd15d85df753dffd35c7daf7a1bb69cff9bc28adf72a911703af86b7f60323906b282d40499e7d6101409371e1e8a8abe7000418981f67e3b170d10c8a6e5d6337463e0e3574a6826dfd1da8eb0b0fced77e48134702209c93f06c06f597d89e4011537db93a267914ad0140c6f4be1df0eaee9b184f265c56c46c702c74633055a4e848fd42035f01132e4c9319b5175afc3c56df82dd9c4186aa665e49ccf9f7d6e43628254cc10698ffc20140d3f9a546826e997f429d57bf4fec38b7b389665414921f4514c4e4fae6d015e501cbf8ea03e81f2e2fdda598c70272cc060563ba0a0b01e522db8f6904c01581014017e980024ca742fde37cbdce2a987b01dca49f9ef7585779325e5f9d128902cd916179155e56d5aea25169e52c02194b2760b866c23fda71543f0203dc3a046f01406815fc9b59a26ed65e2e2c7135310f2aa691e1b7a12b774009cc6cf7ef2ac478ddfbb16ba9957e8fc773c2b28588df360cdbf084b7bd62339f83a87b53ee778f014010884f5e35b2d391ca9f118ab3b7db377cd50c7caebd4dd55cd1dc1f4393a544ca2ad8665f40c710d7c0abba9a266602e7170f36963f22cce822b7c0192878d501408869b81c84178727d8d052e2dc6fd187fdb61b920851a1556179b1948a0c00b2820decd1ff4485b5022a506d1713e38cc37fb6f06a1a9486ecd037dc0ad9c98e0140f4e490d249d6d96d7c970ce503a67b023900ecb02965461ecc80320d0d2df5250cbb7c75130a81540b878a1adfd3b3e2aae0b755132927699284ebfd4b9a0c74014083703bbe4ef1a2ecd9ec699510893df346129bf5d202532cbe47092ac64c43a75b5d4c62ee9f6eb918d3b0068a5c37c05a9049600eabebfe80595b573fc6a4860140d3103573f385e994e5603173f2a1fe35a7544fb02fe43baf0370e4a698939ed6d3bcefdac87340950071e119340812a210327a2b595bf4e0e3c9e59a6d1e6b7100000000"
}