{
  "txid": "ab6e37a7502da756e41d25a8b2a4981d082277286e1847d5c1c493df2fed18fa",
  "version": 1,
  "locktime": 0,
  "vin": [
    {
      "txid": "0bffc01ceeb78b13fc2edebc78a6bb2f8d5d6723f0b8bb13064fd727131f87c1",
      "vout": 1,
      "prevout": {
        "scriptpubkey": "0014692c9020c5e5078fa91c2505fe69b81b02942b6b",
        "scriptpubkey_asm": "OP_0 OP_PUSHBYTES_20 692c9020c5e5078fa91c2505fe69b81b02942b6b",
        "scriptpubkey_type": "v0_p2wpkh",
        "scriptpubkey_address": "bc1qdykfqgx9u5rcl2guy5zlu6dcrvpfg2mtctd6ks",
        "value": 99162
      },
      "scriptsig": "",
      "scriptsig_asm": "",
      "witness": [
        "3045022100df15b5adea8eeeacab9659e627755db12751296e9727a821f58f46c8259e89cf02203d1b69c780ba826efcae7776037ace35a1f047c648103597e173b96968c58f7501",
        "0327c755031ab0b5ed9e1d762883bafda8f99f93ea2ecee4e87c37db30bf18fd33"
      ],
      "is_coinbase": false,
      "sequence": 4294967295
    },
    {
      "txid": "31387da416d26cf9aba14b7f37e55e08df5335914a2dd67df990224d8f6de2d9",
      "vout": 97,
      "prevout": {
        "scriptpubkey": "00148727f7304be9e87709c37c7dcf420dc8ef954b7e",
        "scriptpubkey_asm": "OP_0 OP_PUSHBYTES_20 8727f7304be9e87709c37c7dcf420dc8ef954b7e",
        "scriptpubkey_type": "v0_p2wpkh",
        "scriptpubkey_address": "bc1qsunlwvzta858wzwr037u7ssderhe2jm7z5wd7z",
        "value": 699479
      },
      "scriptsig": "",
      "scriptsig_asm": "",
      "witness": [
        "3045022100847e526c365bf4ff687308d6ec6c42bbf55be0e738390e0ea59025caa2a50d58022068c12e4f4fccf98ecb37fe3ac105afce970cbf2828bba93e5ec071ad361e245401",
        "03449c2778286dacc130eeb21adf744c1d77a76bb50c74fa66b173e1e487f3a3ca"
      ],
      "is_coinbase": false,
      "sequence": 4294967295
    }
  ],
  "vout": [
    {
      "scriptpubkey": "a914e0f80ab5948c63a6463633832710b96316e5da6187",
      "scriptpubkey_asm": "OP_HASH160 OP_PUSHBYTES_20 e0f80ab5948c63a6463633832710b96316e5da61 OP_EQUAL",
      "scriptpubkey_type": "p2sh",
      "scriptpubkey_address": "3NCYRmBDevmB1uNNiYv8QPhHYzLRsuhheJ",
      "value": 380800
    },
    {
      "scriptpubkey": "001404211915d2978e99d49714e845e7a8fed0c60882",
      "scriptpubkey_asm": "OP_0 OP_PUSHBYTES_20 04211915d2978e99d49714e845e7a8fed0c60882",
      "scriptpubkey_type": "v0_p2wpkh",
      "scriptpubkey_address": "bc1qqss3j9wjj78fn4yhzn5yteaglmgvvzyz744mw8",
      "value": 412419
    }
  ],
  "size": 373,
  "weight": 838,
  "fee": 5422,
  "status": {
    "confirmed": true,
    "block_height": 834638,
    "block_hash": "000000000000000000025f742c626208ac87e0b7d15054abb4a19ca2d735a54e",
    "block_time": 1710405325
  },
  "hex": "01000000000102c1871f1327d74f0613bbb8f023675d8d2fbba678bcde2efc138bb7ee1cc0ff0b0100000000ffffffffd9e26d8f4d2290f97dd62d4a913553df085ee5377f4ba1abf96cd216a47d38316100000000ffffffff0280cf05000000000017a914e0f80ab5948c63a6463633832710b96316e5da6187034b06000000000016001404211915d2978e99d49714e845e7a8fed0c6088202483045022100df15b5adea8eeeacab9659e627755db12751296e9727a821f58f46c8259e89cf02203d1b69c780ba826efcae7776037ace35a1f047c648103597e173b96968c58f7501210327c755031ab0b5ed9e1d762883bafda8f99f93ea2ecee4e87c37db30bf18fd3302483045022100847e526c365bf4ff687308d6ec6c42bbf55be0e738390e0ea59025caa2a50d58022068c12e4f4fccf98ecb37fe3ac105afce970cbf2828bba93e5ec071ad361e2454012103449c2778286dacc130eeb21adf744c1d77a76bb50c74fa66b173e1e487f3a3ca00000000"
}