{
  "txid": "ab783bbf9f00e2bd402a52dadb00a06710fffcb8740d4a822c52070292026cfc",
  "version": 1,
  "locktime": 0,
  "vin": [
    {
      "txid": "0150ad90988e578abf67187a52d6778fa5d18f781b1e575ed3fce2c05b58438e",
      "vout": 1,
      "prevout": {
        "scriptpubkey": "00146f495e499c239356f24a3e49346c7fa01b4ef022",
        "scriptpubkey_asm": "OP_0 OP_PUSHBYTES_20 6f495e499c239356f24a3e49346c7fa01b4ef022",
        "scriptpubkey_type": "v0_p2wpkh",
        "scriptpubkey_address": "bc1qday4ujvuywf4duj28eyngmrl5qd5aupzap762v",
        "value": 140973
      },
      "scriptsig": "",
      "scriptsig_asm": "",
      "witness": [
        "3045022100b09a26bb067447183a742b84c5d5eeecb14e7383cfa8412645e316ea952d635b02201dd96cbd5b1e603478de6200a38d3bcb5c9b506593f3b03a57c32d4ef189905301",
        "02135ce9014c76c48f952d7c7ce35016bd4ca2aefeba6269762013bf73eaab91e2"
      ],
      "is_coinbase": false,
      "sequence": 4294967295
    }
  ],
  "vout": [
    {
      "scriptpubkey": "0014b2b61c9799f7467dedb391234723f9733221a486",
      "scriptpubkey_asm": "OP_0 OP_PUSHBYTES_20 b2b61c9799f7467dedb391234723f9733221a486",
      "scriptpubkey_type": "v0_p2wpkh",
      "scriptpubkey_address": "bc1qk2mpe9ue7ar8mmdnjy35wglewvezrfyx0lgqgv",
      "value": 138003
    }
  ],
  "size": 192,
  "weight": 438,
  "fee": 2970,
  "status": {
    "confirmed": true,
    "block_height": 834638,
    "block_hash": "000000000000000000025f742c626208ac87e0b7d15054abb4a19ca2d735a54e",
    "block_time": 1710405325
  },
  "hex": "010000000001018e43585bc0e2fcd35e571e1b788fd1a58f77d6527a1867bf8a578e9890ad50010100000000ffffffff01131b020000000000160014b2b61c9799f7467dedb391234723f9733221a48602483045022100b09a26bb067447183a742b84c5d5eeecb14e7383cfa8412645e316ea952d635b02201dd96cbd5b1e603478de6200a38d3bcb5c9b506593f3b03a57c32d4ef1899053012102135ce9014c76c48f952d7c7ce35016bd4ca2aefeba6269762013bf73eaab91e200000000"
}