{
  "txid": "ab7efa786f7ef4617edd4cf7d5dc029bfe6b3f808233bb47efd8aee7d646a746",
  "version": 2,
  "locktime": 0,
  "vin": [
    {
      "txid": "0a8ac2a36c0c4126424fc41fa68eb69bc5f9211a912e89d5e8174b5e27d13cc7",
      "vout": 0,
      "prevout": {
        "scriptpubkey": "5120b8e8294cc68c71f172269cd91a0be78be135e3ded9f5d28c870d0ede5a50e4d6",
        "scriptpubkey_asm": "OP_PUSHNUM_1 OP_PUSHBYTES_32 b8e8294cc68c71f172269cd91a0be78be135e3ded9f5d28c870d0ede5a50e4d6",
        "scriptpubkey_type": "v1_p2tr",
        "scriptpubkey_address": "bc1phr5zjnxx33clzu3xnnv35zl830sntc77m86a9ry8p58dukjsuntqk294ul",
        "value": 2776
      },
      "scriptsig": "",
      "scriptsig_asm": "",
      "witness": [
        "2ae90b4601a8f406e32f4e68d1c1a0c3f71dddb00b0a50b73fe0bacd610974494fe9397f551249fc639f51dbae198f58b40f0d49cbd0175ae2cef5a696714b75"
      ],
      "is_coinbase": false,
      "sequence": 4294967293
    }
  ],
  "vout": [
    {
      "scriptpubkey": "5120d528e301935b53c5d4e9e705f66489f8b755be9bff3ac2566e82641315b4525d",
      "scriptpubkey_asm": "OP_PUSHNUM_1 OP_PUSHBYTES_32 d528e301935b53c5d4e9e705f66489f8b755be9bff3ac2566e82641315b4525d",
      "scriptpubkey_type": "v1_p2tr",
      "scriptpubkey_address": "bc1p655wxqvntdfut48fuuzlveyflzm4t05mluavy4nwsfjpx9d52fws6nth7y",
      "value": 1000
    }
  ],
  "size": 162,
  "weight": 444,
  "fee": 1776,
  "status": {
    "confirmed": true,
    "block_height": 834464,
    "block_hash": "0000000000000000000177a0869a911a2b65c9bdcd5a8bcb02b68f305bee848e",
    "block_time": 1710308296
  },
  "hex": "02000000000101c73cd1275e4b17e8d5892e911a21f9c59bb68ea61fc44f4226410c6ca3c28a0a0000000000fdffffff01e803000000000000225120d528e301935b53c5d4e9e705f66489f8b755be9bff3ac2566e82641315b4525d01402ae90b4601a8f406e32f4e68d1c1a0c3f71dddb00b0a50b73fe0bacd610974494fe9397f551249fc639f51dbae198f58b40f0d49cbd0175ae2cef5a696714b7500000000"
}