{
  "txid": "ab980ed336134e2b8e130e44b59433421e5ad9a0af0287b58f71ccc5d450aef2",
  "version": 2,
  "locktime": 0,
  "vin": [
    {
      "txid": "84b2205ebf450eb01d8c9f470a236235e3c98104facaac4f8e55791dc54e345d",
      "vout": 0,
      "prevout": {
        "scriptpubkey": "001468d8447294c7ca0aacb2a4d35ab86114addaea00",
        "scriptpubkey_asm": "OP_0 OP_PUSHBYTES_20 68d8447294c7ca0aacb2a4d35ab86114addaea00",
        "scriptpubkey_type": "v0_p2wpkh",
        "scriptpubkey_address": "bc1qdrvygu55cl9q4t9j5nf44wrpzjka46sqjsypzq",
        "value": 571709
      },
      "scriptsig": "",
      "scriptsig_asm": "",
      "witness": [
        "30440220043aab7e80774cec2807a2f038fcf422faa2549108dc59fa4e41411287aa6ff40220473c6f81e3ea174a4c76a86ec25fa5a2170e0b7dc36087b738458efda3bbb7a101",
        "03c027d3d519c4885b3b02f36b63f435ecbb4ecfa101e5c14677a19c6e3df17f24"
      ],
      "is_coinbase": false,
      "sequence": 4294967293
    }
  ],
  "vout": [
    {
      "scriptpubkey": "00146f0ad2603550c7e0e372ee8d65d0225673b23092",
      "scriptpubkey_asm": "OP_0 OP_PUSHBYTES_20 6f0ad2603550c7e0e372ee8d65d0225673b23092",
      "scriptpubkey_type": "v0_p2wpkh",
      "scriptpubkey_address": "bc1qdu9dycp42rr7pcmja6xkt5pz2eemyvyjserwg7",
      "value": 38637
    },
    {
      "scriptpubkey": "00144799c6475e36027152d582d95d32e3a6a42edc6f",
      "scriptpubkey_asm": "OP_0 OP_PUSHBYTES_20 4799c6475e36027152d582d95d32e3a6a42edc6f",
      "scriptpubkey_type": "v0_p2wpkh",
      "scriptpubkey_address": "bc1qg7vuv367xcp8z5k4stv46vhr56jzahr0xa7j56",
      "value": 530675
    }
  ],
  "size": 222,
  "weight": 561,
  "fee": 2397,
  "status": {
    "confirmed": true,
    "block_height": 834638,
    "block_hash": "000000000000000000025f742c626208ac87e0b7d15054abb4a19ca2d735a54e",
    "block_time": 1710405325
  },
  "hex": "020000000001015d344ec51d79558e4faccafa0481c9e33562230a479f8c1db00e45bf5e20b2840000000000fdffffff02ed960000000000001600146f0ad2603550c7e0e372ee8d65d0225673b23092f3180800000000001600144799c6475e36027152d582d95d32e3a6a42edc6f024730440220043aab7e80774cec2807a2f038fcf422faa2549108dc59fa4e41411287aa6ff40220473c6f81e3ea174a4c76a86ec25fa5a2170e0b7dc36087b738458efda3bbb7a1012103c027d3d519c4885b3b02f36b63f435ecbb4ecfa101e5c14677a19c6e3df17f2400000000"
}