{
  "txid": "ab99866352e81d1128effa1b7a5f3294fe282117f70fb876c519059d87489488",
  "version": 1,
  "locktime": 0,
  "vin": [
    {
      "txid": "9e6cdbe6be6fabca5853ea0e1230848af2268c0424cf8dcc84d6cfd5c76dda2f",
      "vout": 0,
      "prevout": {
        "scriptpubkey": "a914edf24b3b50c8102efc39d7387b177eb761d0fcf887",
        "scriptpubkey_asm": "OP_HASH160 OP_PUSHBYTES_20 edf24b3b50c8102efc39d7387b177eb761d0fcf8 OP_EQUAL",
        "scriptpubkey_type": "p2sh",
        "scriptpubkey_address": "3PPAKt47YkDmESg8DXLmaZHwoV6pvcTmwD",
        "value": 546
      },
      "scriptsig": "483045022100a8b1e46323559c355f9a30015491c6b679ca7a2a2acd2f4b69000c70e3d019a9022078b32e0b2938e7c6b8b72a0c9a310aa93806680cead3dcba062d68724fc9e442014d07024ddb01434e5452505254590300420000000000f7aa96f4a8666e988e5323c08f6f676a00165ac639346b04a62670aeddadc361bff1f0cf77001a779e6e52240b275b3ba6699a25e8db5fbc145a001c3e2c448b6a66842bdb835a4169fbc482698c250022807394f401afd13d024ef038c7f613073b03a30022f178232773f6a71112148012cc6a9ff9ff621f002ee2b15f49e017b469e433525dbfc60c4cc633850037170a424b3b8ad3ed653aafd46923516cbfa2b700371cf2c4cdf0ed6c261a0a23261971b11372a65b003bd8011632337bb161ca416a5d19037bfe849ff8003e52787fb74da2260f49100988a61851f55290cc0042a2603c1cffd89ad8a3da28216f9b20001977b80042c5b0097e92558abb9bc344c5a51618605988ae004de0f691634f17753befd95ded0aeadded392cb4004e56930251002f8a35e56f5c12dda3acccef3c0f004f42a407650c717bdcd1b356fbb1a4289ed586ae0054a28092787aa45a356c517fe9f4efede69ead500057281244eab70558353bb01ae044da04bb95cd4e005a262744990f9e193bb6c8b5d652b6759e02ad3d005ce773885e9988a5ddb3c1e37a05397bcd5eeca90065589c1592a555f265c48bb6505d43bdea15ba8b0066d95b9b63a5d1b61b5ae5e30221c3e19b29cf7300697521038bea638bccfcc91c5ec8f63cefbd62a5b2a28e9321d46f5aef8ef083ee654bb7ad0075740087",
      "scriptsig_asm": "OP_PUSHBYTES_72 3045022100a8b1e46323559c355f9a30015491c6b679ca7a2a2acd2f4b69000c70e3d019a9022078b32e0b2938e7c6b8b72a0c9a310aa93806680cead3dcba062d68724fc9e44201 OP_PUSHDATA2 4ddb01434e5452505254590300420000000000f7aa96f4a8666e988e5323c08f6f676a00165ac639346b04a62670aeddadc361bff1f0cf77001a779e6e52240b275b3ba6699a25e8db5fbc145a001c3e2c448b6a66842bdb835a4169fbc482698c250022807394f401afd13d024ef038c7f613073b03a30022f178232773f6a71112148012cc6a9ff9ff621f002ee2b15f49e017b469e433525dbfc60c4cc633850037170a424b3b8ad3ed653aafd46923516cbfa2b700371cf2c4cdf0ed6c261a0a23261971b11372a65b003bd8011632337bb161ca416a5d19037bfe849ff8003e52787fb74da2260f49100988a61851f55290cc0042a2603c1cffd89ad8a3da28216f9b20001977b80042c5b0097e92558abb9bc344c5a51618605988ae004de0f691634f17753befd95ded0aeadded392cb4004e56930251002f8a35e56f5c12dda3acccef3c0f004f42a407650c717bdcd1b356fbb1a4289ed586ae0054a28092787aa45a356c517fe9f4efede69ead500057281244eab70558353bb01ae044da04bb95cd4e005a262744990f9e193bb6c8b5d652b6759e02ad3d005ce773885e9988a5ddb3c1e37a05397bcd5eeca90065589c1592a555f265c48bb6505d43bdea15ba8b0066d95b9b63a5d1b61b5ae5e30221c3e19b29cf7300697521038bea638bccfcc91c5ec8f63cefbd62a5b2a28e9321d46f5aef8ef083ee654bb7ad0075740087",
      "is_coinbase": false,
      "sequence": 4294967295,
      "inner_redeemscript_asm": "OP_PUSHDATA2 434e5452505254590300420000000000f7aa96f4a8666e988e5323c08f6f676a00165ac639346b04a62670aeddadc361bff1f0cf77001a779e6e52240b275b3ba6699a25e8db5fbc145a001c3e2c448b6a66842bdb835a4169fbc482698c250022807394f401afd13d024ef038c7f613073b03a30022f178232773f6a71112148012cc6a9ff9ff621f002ee2b15f49e017b469e433525dbfc60c4cc633850037170a424b3b8ad3ed653aafd46923516cbfa2b700371cf2c4cdf0ed6c261a0a23261971b11372a65b003bd8011632337bb161ca416a5d19037bfe849ff8003e52787fb74da2260f49100988a61851f55290cc0042a2603c1cffd89ad8a3da28216f9b20001977b80042c5b0097e92558abb9bc344c5a51618605988ae004de0f691634f17753befd95ded0aeadded392cb4004e56930251002f8a35e56f5c12dda3acccef3c0f004f42a407650c717bdcd1b356fbb1a4289ed586ae0054a28092787aa45a356c517fe9f4efede69ead500057281244eab70558353bb01ae044da04bb95cd4e005a262744990f9e193bb6c8b5d652b6759e02ad3d005ce773885e9988a5ddb3c1e37a05397bcd5eeca90065589c1592a555f265c48bb6505d43bdea15ba8b0066d95b9b63a5d1b61b5ae5e30221c3e19b29cf730069 OP_DROP OP_PUSHBYTES_33 038bea638bccfcc91c5ec8f63cefbd62a5b2a28e9321d46f5aef8ef083ee654bb7 OP_CHECKSIGVERIFY OP_0 OP_DROP OP_DEPTH OP_0 OP_EQUAL"
    },
    {
      "txid": "9e6cdbe6be6fabca5853ea0e1230848af2268c0424cf8dcc84d6cfd5c76dda2f",
      "vout": 1,
      "prevout": {
        "scriptpubkey": "a91477937e861723eb77f160f6c7cce40dff6198820587",
        "scriptpubkey_asm": "OP_HASH160 OP_PUSHBYTES_20 77937e861723eb77f160f6c7cce40dff61988205 OP_EQUAL",
        "scriptpubkey_type": "p2sh",
        "scriptpubkey_address": "3CbH2T61eXwSSvF6HFYEhwBEFEu3xvB7TV",
        "value": 546
      },
      "scriptsig": "48304502210083937312356fe3d0113cf4877746eca86403201c89d3f5761cb1c2db67ec152702203fda8c47210b8ad9369b4d4284d900aef17f1e4a032c2dc86276c34acea71cc6014d07024ddb01434e5452505254596ca3a38f3fe0c907b81404374012bfa2c218210069e12a40d4a2218d33f208b9a0447894dc9bea31006ddfc4d5b7ceb2264a73b448af67ed3c3a6b5607006e91d6700bbe778efb4f2bcfd9afd266926eb3a6006ecc8c56c3caa932e5f2083e1803696eb1063e3b006fe066d1be6359dba98e7f00f3f45707e0bd07ad007c8a4ffa173b6bb3b66fac2d68b23867b78ebaa40087ab93d8951deb3a21ee17d5e579b9fd20bc42df008895bfc14493b6922a23b549d0e1dd98d4522d0800893fe95b34e48ef0aa69d84650a146a09a47225d00894832b6fdbef2f756cd4bb4a2e521d8e91a7364009661d2afc4c77c17bec34d696adb77f84dc4f3be0096913187e3ec0d4048b376bed6e7449cb1664299009d33d96b9e10f7e9920731a5fd996af98a9928e700a20b50f27f4e35ec0aaa9fb17e789b8dd7d551e200a727fd3c700c91c02ae7593b9c43d7c969a22dfd00ab2dbe6e68fd6e6d466c7b2f20ff903b719b908f00ac2d3e3d235f7105b4e7d2705ea5fc0390a0c7ab00b1e075520fdd44aa718c50f0b5bb6fb17c00151f00b3e279361868a86f81fc71b4440d599461dc663b00b867b20c38e7b8366400e672cd192d575f8ba69000bdf3ea9b38966f3a22e5c97bc99ea25f420b8ea400c15c8907d99c7521038bea638bccfcc91c5ec8f63cefbd62a5b2a28e9321d46f5aef8ef083ee654bb7ad5175740087",
      "scriptsig_asm": "OP_PUSHBYTES_72 304502210083937312356fe3d0113cf4877746eca86403201c89d3f5761cb1c2db67ec152702203fda8c47210b8ad9369b4d4284d900aef17f1e4a032c2dc86276c34acea71cc601 OP_PUSHDATA2 4ddb01434e5452505254596ca3a38f3fe0c907b81404374012bfa2c218210069e12a40d4a2218d33f208b9a0447894dc9bea31006ddfc4d5b7ceb2264a73b448af67ed3c3a6b5607006e91d6700bbe778efb4f2bcfd9afd266926eb3a6006ecc8c56c3caa932e5f2083e1803696eb1063e3b006fe066d1be6359dba98e7f00f3f45707e0bd07ad007c8a4ffa173b6bb3b66fac2d68b23867b78ebaa40087ab93d8951deb3a21ee17d5e579b9fd20bc42df008895bfc14493b6922a23b549d0e1dd98d4522d0800893fe95b34e48ef0aa69d84650a146a09a47225d00894832b6fdbef2f756cd4bb4a2e521d8e91a7364009661d2afc4c77c17bec34d696adb77f84dc4f3be0096913187e3ec0d4048b376bed6e7449cb1664299009d33d96b9e10f7e9920731a5fd996af98a9928e700a20b50f27f4e35ec0aaa9fb17e789b8dd7d551e200a727fd3c700c91c02ae7593b9c43d7c969a22dfd00ab2dbe6e68fd6e6d466c7b2f20ff903b719b908f00ac2d3e3d235f7105b4e7d2705ea5fc0390a0c7ab00b1e075520fdd44aa718c50f0b5bb6fb17c00151f00b3e279361868a86f81fc71b4440d599461dc663b00b867b20c38e7b8366400e672cd192d575f8ba69000bdf3ea9b38966f3a22e5c97bc99ea25f420b8ea400c15c8907d99c7521038bea638bccfcc91c5ec8f63cefbd62a5b2a28e9321d46f5aef8ef083ee654bb7ad5175740087",
      "is_coinbase": false,
      "sequence": 4294967295,
      "inner_redeemscript_asm": "OP_PUSHDATA2 434e5452505254596ca3a38f3fe0c907b81404374012bfa2c218210069e12a40d4a2218d33f208b9a0447894dc9bea31006ddfc4d5b7ceb2264a73b448af67ed3c3a6b5607006e91d6700bbe778efb4f2bcfd9afd266926eb3a6006ecc8c56c3caa932e5f2083e1803696eb1063e3b006fe066d1be6359dba98e7f00f3f45707e0bd07ad007c8a4ffa173b6bb3b66fac2d68b23867b78ebaa40087ab93d8951deb3a21ee17d5e579b9fd20bc42df008895bfc14493b6922a23b549d0e1dd98d4522d0800893fe95b34e48ef0aa69d84650a146a09a47225d00894832b6fdbef2f756cd4bb4a2e521d8e91a7364009661d2afc4c77c17bec34d696adb77f84dc4f3be0096913187e3ec0d4048b376bed6e7449cb1664299009d33d96b9e10f7e9920731a5fd996af98a9928e700a20b50f27f4e35ec0aaa9fb17e789b8dd7d551e200a727fd3c700c91c02ae7593b9c43d7c969a22dfd00ab2dbe6e68fd6e6d466c7b2f20ff903b719b908f00ac2d3e3d235f7105b4e7d2705ea5fc0390a0c7ab00b1e075520fdd44aa718c50f0b5bb6fb17c00151f00b3e279361868a86f81fc71b4440d599461dc663b00b867b20c38e7b8366400e672cd192d575f8ba69000bdf3ea9b38966f3a22e5c97bc99ea25f420b8ea400c15c8907d99c OP_DROP OP_PUSHBYTES_33 038bea638bccfcc91c5ec8f63cefbd62a5b2a28e9321d46f5aef8ef083ee654bb7 OP_CHECKSIGVERIFY OP_PUSHNUM_1 OP_DROP OP_DEPTH OP_0 OP_EQUAL"
    },
    {
      "txid": "9e6cdbe6be6fabca5853ea0e1230848af2268c0424cf8dcc84d6cfd5c76dda2f",
      "vout": 2,
      "prevout": {
        "scriptpubkey": "a9141ca466fefa28c0f9ec66881292f77fddf481889887",
        "scriptpubkey_asm": "OP_HASH160 OP_PUSHBYTES_20 1ca466fefa28c0f9ec66881292f77fddf4818898 OP_EQUAL",
        "scriptpubkey_type": "p2sh",
        "scriptpubkey_address": "34JTnniXCJsK6p1Fr1jzpaKR5nYUiELdT3",
        "value": 546
      },
      "scriptsig": "47304402206237f1017fa1fb29aba9ccf616a050ad60e4b7ad38a5f49cc3e88fe6638a35ce022061adda29bf3f9fcca9cb1a9501d93d4d267e5648daf689fb59b5c13a173e175c014d07024ddb01434e545250525459973ee3f86277a909570cb34de61200c1bda295b54fe474ad90138626eb8f57974b59eb0003584e4160e85fa97404051a58b7bc5af6a042e800c8cafbff9d210af59fab1f2b4c58d9cd189e81e300cd49c327a5e4c8fbfcbe8394fd1dcd021a554a1700d6becd4feb44293f54966ef160cb26db6e061f3700d8c432bf8fc643e79d5a7140d8e65d04660a020600dbc48d874d48deaccf7903f9877561e20bb9fe440003d3feacd626c3a80ad4eef8f1a5d657797100ca00dfb6aa51f9955d7a77609e2c2a5d1b592c47bd9900e0e53069ab7754afc1e7774a7baed30e644514b800e4ac4e29e33553e249aab76ebb708a4a5a8bfa2d00eb8573ebc025c46c493a13131311f4c81e6cc48200eb9bbc6637aed969ce032f4680cfb874e956116c00ebb0013404622f5fecfcb386bae0a784bd68bfae00f1ef961da476631efa1e2d658f3e7e8a48eaada800f97c1bb2e33b09b13015b9d386a72982d403fbea000a23a517a0a298fff94e6296dc7e103dcf8d1b3f05824d8eb34ecd4d70d1643ed84dc32fee2c5caea4807b115043055a33fbc2078a62b0cbe6bc576f6b86804811e340fbb4879fa2483cb666479ed2e99f20028001895cd718be87efe78cafc663ca058a73cbf38240000001220f47c7e09700007521038bea638bccfcc91c5ec8f63cefbd62a5b2a28e9321d46f5aef8ef083ee654bb7ad5275740087",
      "scriptsig_asm": "OP_PUSHBYTES_71 304402206237f1017fa1fb29aba9ccf616a050ad60e4b7ad38a5f49cc3e88fe6638a35ce022061adda29bf3f9fcca9cb1a9501d93d4d267e5648daf689fb59b5c13a173e175c01 OP_PUSHDATA2 4ddb01434e545250525459973ee3f86277a909570cb34de61200c1bda295b54fe474ad90138626eb8f57974b59eb0003584e4160e85fa97404051a58b7bc5af6a042e800c8cafbff9d210af59fab1f2b4c58d9cd189e81e300cd49c327a5e4c8fbfcbe8394fd1dcd021a554a1700d6becd4feb44293f54966ef160cb26db6e061f3700d8c432bf8fc643e79d5a7140d8e65d04660a020600dbc48d874d48deaccf7903f9877561e20bb9fe440003d3feacd626c3a80ad4eef8f1a5d657797100ca00dfb6aa51f9955d7a77609e2c2a5d1b592c47bd9900e0e53069ab7754afc1e7774a7baed30e644514b800e4ac4e29e33553e249aab76ebb708a4a5a8bfa2d00eb8573ebc025c46c493a13131311f4c81e6cc48200eb9bbc6637aed969ce032f4680cfb874e956116c00ebb0013404622f5fecfcb386bae0a784bd68bfae00f1ef961da476631efa1e2d658f3e7e8a48eaada800f97c1bb2e33b09b13015b9d386a72982d403fbea000a23a517a0a298fff94e6296dc7e103dcf8d1b3f05824d8eb34ecd4d70d1643ed84dc32fee2c5caea4807b115043055a33fbc2078a62b0cbe6bc576f6b86804811e340fbb4879fa2483cb666479ed2e99f20028001895cd718be87efe78cafc663ca058a73cbf38240000001220f47c7e09700007521038bea638bccfcc91c5ec8f63cefbd62a5b2a28e9321d46f5aef8ef083ee654bb7ad5275740087",
      "is_coinbase": false,
      "sequence": 4294967295,
      "inner_redeemscript_asm": "OP_PUSHDATA2 434e545250525459973ee3f86277a909570cb34de61200c1bda295b54fe474ad90138626eb8f57974b59eb0003584e4160e85fa97404051a58b7bc5af6a042e800c8cafbff9d210af59fab1f2b4c58d9cd189e81e300cd49c327a5e4c8fbfcbe8394fd1dcd021a554a1700d6becd4feb44293f54966ef160cb26db6e061f3700d8c432bf8fc643e79d5a7140d8e65d04660a020600dbc48d874d48deaccf7903f9877561e20bb9fe440003d3feacd626c3a80ad4eef8f1a5d657797100ca00dfb6aa51f9955d7a77609e2c2a5d1b592c47bd9900e0e53069ab7754afc1e7774a7baed30e644514b800e4ac4e29e33553e249aab76ebb708a4a5a8bfa2d00eb8573ebc025c46c493a13131311f4c81e6cc48200eb9bbc6637aed969ce032f4680cfb874e956116c00ebb0013404622f5fecfcb386bae0a784bd68bfae00f1ef961da476631efa1e2d658f3e7e8a48eaada800f97c1bb2e33b09b13015b9d386a72982d403fbea000a23a517a0a298fff94e6296dc7e103dcf8d1b3f05824d8eb34ecd4d70d1643ed84dc32fee2c5caea4807b115043055a33fbc2078a62b0cbe6bc576f6b86804811e340fbb4879fa2483cb666479ed2e99f20028001895cd718be87efe78cafc663ca058a73cbf38240000001220f47c7e0970000 OP_DROP OP_PUSHBYTES_33 038bea638bccfcc91c5ec8f63cefbd62a5b2a28e9321d46f5aef8ef083ee654bb7 OP_CHECKSIGVERIFY OP_PUSHNUM_2 OP_DROP OP_DEPTH OP_0 OP_EQUAL"
    },
    {
      "txid": "9e6cdbe6be6fabca5853ea0e1230848af2268c0424cf8dcc84d6cfd5c76dda2f",
      "vout": 3,
      "prevout": {
        "scriptpubkey": "a9149ee8d5312de0aa98c5a0946004ef34bd9db43bcf87",
        "scriptpubkey_asm": "OP_HASH160 OP_PUSHBYTES_20 9ee8d5312de0aa98c5a0946004ef34bd9db43bcf OP_EQUAL",
        "scriptpubkey_type": "p2sh",
        "scriptpubkey_address": "3GBFcMjNm7jaVhQ9Ufvpx6n4grqyTgJB2s",
        "value": 546
      },
      "scriptsig": "47304402206d151e874e11da08adc049502c2507418e0457f1c749a40b445b90d7383c8a4d02200fcec760ae49dc06bbd9dfceecd9701a5c5b529ff2b8be5bfccbbfce0bc24cff014d07024ddb01434e54525052545900174876e800805c0000002e90edd001006c0000005d21dba0020068000000ba43b74004002000000174876e800806c0000002e90edd00100e40000005d21dba00200a0000000ba43b74004029000000174876e80080780000002e90edd00100a00000005d21dba00200f0000000ba43b74004007000000174876e80080180000002e90edd00100980000005d21dba0020080000000ba43b7400400a000000174876e80080560000002e90edd00100e80000005d21dba00201f8000000ba43b7400401f000000174876e80080440000002e90edd00100600000005d21dba0020138000000ba43b7400400f000000174876e800807c0000002e90edd00100040000005d21dba0020090000000ba43b74004020000000174876e80080000000002e90edd001000c0000005d21dba0020200000000ba43b74004005000000174876e80080820000002e90edd00100c80000005d21dba00200e0000000ba43b74004013000000174876e800806a0000002e90edd00100580000005d21dba0020198000000ba43b7400402d000000174876e80080460000002e90edd00100c40000005d21dba0020070000000ba43b74004008000000174876e80080220000002e90edd00100240000005d21dba00200d0000000ba47521038bea638bccfcc91c5ec8f63cefbd62a5b2a28e9321d46f5aef8ef083ee654bb7ad5375740087",
      "scriptsig_asm": "OP_PUSHBYTES_71 304402206d151e874e11da08adc049502c2507418e0457f1c749a40b445b90d7383c8a4d02200fcec760ae49dc06bbd9dfceecd9701a5c5b529ff2b8be5bfccbbfce0bc24cff01 OP_PUSHDATA2 4ddb01434e54525052545900174876e800805c0000002e90edd001006c0000005d21dba0020068000000ba43b74004002000000174876e800806c0000002e90edd00100e40000005d21dba00200a0000000ba43b74004029000000174876e80080780000002e90edd00100a00000005d21dba00200f0000000ba43b74004007000000174876e80080180000002e90edd00100980000005d21dba0020080000000ba43b7400400a000000174876e80080560000002e90edd00100e80000005d21dba00201f8000000ba43b7400401f000000174876e80080440000002e90edd00100600000005d21dba0020138000000ba43b7400400f000000174876e800807c0000002e90edd00100040000005d21dba0020090000000ba43b74004020000000174876e80080000000002e90edd001000c0000005d21dba0020200000000ba43b74004005000000174876e80080820000002e90edd00100c80000005d21dba00200e0000000ba43b74004013000000174876e800806a0000002e90edd00100580000005d21dba0020198000000ba43b7400402d000000174876e80080460000002e90edd00100c40000005d21dba0020070000000ba43b74004008000000174876e80080220000002e90edd00100240000005d21dba00200d0000000ba47521038bea638bccfcc91c5ec8f63cefbd62a5b2a28e9321d46f5aef8ef083ee654bb7ad5375740087",
      "is_coinbase": false,
      "sequence": 4294967295,
      "inner_redeemscript_asm": "OP_PUSHDATA2 434e54525052545900174876e800805c0000002e90edd001006c0000005d21dba0020068000000ba43b74004002000000174876e800806c0000002e90edd00100e40000005d21dba00200a0000000ba43b74004029000000174876e80080780000002e90edd00100a00000005d21dba00200f0000000ba43b74004007000000174876e80080180000002e90edd00100980000005d21dba0020080000000ba43b7400400a000000174876e80080560000002e90edd00100e80000005d21dba00201f8000000ba43b7400401f000000174876e80080440000002e90edd00100600000005d21dba0020138000000ba43b7400400f000000174876e800807c0000002e90edd00100040000005d21dba0020090000000ba43b74004020000000174876e80080000000002e90edd001000c0000005d21dba0020200000000ba43b74004005000000174876e80080820000002e90edd00100c80000005d21dba00200e0000000ba43b74004013000000174876e800806a0000002e90edd00100580000005d21dba0020198000000ba43b7400402d000000174876e80080460000002e90edd00100c40000005d21dba0020070000000ba43b74004008000000174876e80080220000002e90edd00100240000005d21dba00200d0000000ba4 OP_DROP OP_PUSHBYTES_33 038bea638bccfcc91c5ec8f63cefbd62a5b2a28e9321d46f5aef8ef083ee654bb7 OP_CHECKSIGVERIFY OP_PUSHNUM_3 OP_DROP OP_DEPTH OP_0 OP_EQUAL"
    },
    {
      "txid": "9e6cdbe6be6fabca5853ea0e1230848af2268c0424cf8dcc84d6cfd5c76dda2f",
      "vout": 4,
      "prevout": {
        "scriptpubkey": "a914f9e272ffdd6ec40d505c59d633881312887c52c087",
        "scriptpubkey_asm": "OP_HASH160 OP_PUSHBYTES_20 f9e272ffdd6ec40d505c59d633881312887c52c0 OP_EQUAL",
        "scriptpubkey_type": "p2sh",
        "scriptpubkey_address": "3QUHTH1skj5jQRzmmfgYiYT8HRxLonRPFx",
        "value": 29652
      },
      "scriptsig": "4830450221009963fdea7364a190a2296736e166b8aadbeb1d1a6deb1d1e9a97b0764f57ecf0022062bbac1ee4ad0c4a3ef3d8bdec5579126f6d5f942e751674cbf19ab5fc7fa3b5014ce94cbe434e5452505254593b7400400b000000174876e800803a0000002e90edd00100d00000005d21dba0020178000000ba43b7400403d000000174876e80080080000002e90edd00100dc0000005d21dba00200a8000000ba43b7400402c000000174876e80080600000002e90edd00100940000005d21dba0020030000000ba43b7400402a000000174876e80080480000002e90edd00100640000005d21dba00201d8000000ba43b74004038000000174876e80080420000002e90edd001007521038bea638bccfcc91c5ec8f63cefbd62a5b2a28e9321d46f5aef8ef083ee654bb7ad5475740087",
      "scriptsig_asm": "OP_PUSHBYTES_72 30450221009963fdea7364a190a2296736e166b8aadbeb1d1a6deb1d1e9a97b0764f57ecf0022062bbac1ee4ad0c4a3ef3d8bdec5579126f6d5f942e751674cbf19ab5fc7fa3b501 OP_PUSHDATA1 4cbe434e5452505254593b7400400b000000174876e800803a0000002e90edd00100d00000005d21dba0020178000000ba43b7400403d000000174876e80080080000002e90edd00100dc0000005d21dba00200a8000000ba43b7400402c000000174876e80080600000002e90edd00100940000005d21dba0020030000000ba43b7400402a000000174876e80080480000002e90edd00100640000005d21dba00201d8000000ba43b74004038000000174876e80080420000002e90edd001007521038bea638bccfcc91c5ec8f63cefbd62a5b2a28e9321d46f5aef8ef083ee654bb7ad5475740087",
      "is_coinbase": false,
      "sequence": 4294967295,
      "inner_redeemscript_asm": "OP_PUSHDATA1 434e5452505254593b7400400b000000174876e800803a0000002e90edd00100d00000005d21dba0020178000000ba43b7400403d000000174876e80080080000002e90edd00100dc0000005d21dba00200a8000000ba43b7400402c000000174876e80080600000002e90edd00100940000005d21dba0020030000000ba43b7400402a000000174876e80080480000002e90edd00100640000005d21dba00201d8000000ba43b74004038000000174876e80080420000002e90edd00100 OP_DROP OP_PUSHBYTES_33 038bea638bccfcc91c5ec8f63cefbd62a5b2a28e9321d46f5aef8ef083ee654bb7 OP_CHECKSIGVERIFY OP_PUSHNUM_4 OP_DROP OP_DEPTH OP_0 OP_EQUAL"
    }
  ],
  "vout": [
    {
      "scriptpubkey": "6a0cce0a35e529fea5de72526b14",
      "scriptpubkey_asm": "OP_RETURN OP_PUSHBYTES_12 ce0a35e529fea5de72526b14",
      "scriptpubkey_type": "op_return",
      "value": 0
    }
  ],
  "size": 2934,
  "weight": 11736,
  "fee": 31836,
  "status": {
    "confirmed": true,
    "block_height": 834464,
    "block_hash": "0000000000000000000177a0869a911a2b65c9bdcd5a8bcb02b68f305bee848e",
    "block_time": 1710308296
  },
  "hex": "01000000052fda6dc7d5cfd684cc8dcf24048c26f28a8430120eea5358caab6fbee6db6c9e00000000fd5302483045022100a8b1e46323559c355f9a30015491c6b679ca7a2a2acd2f4b69000c70e3d019a9022078b32e0b2938e7c6b8b72a0c9a310aa93806680cead3dcba062d68724fc9e442014d07024ddb01434e5452505254590300420000000000f7aa96f4a8666e988e5323c08f6f676a00165ac639346b04a62670aeddadc361bff1f0cf77001a779e6e52240b275b3ba6699a25e8db5fbc145a001c3e2c448b6a66842bdb835a4169fbc482698c250022807394f401afd13d024ef038c7f613073b03a30022f178232773f6a71112148012cc6a9ff9ff621f002ee2b15f49e017b469e433525dbfc60c4cc633850037170a424b3b8ad3ed653aafd46923516cbfa2b700371cf2c4cdf0ed6c261a0a23261971b11372a65b003bd8011632337bb161ca416a5d19037bfe849ff8003e52787fb74da2260f49100988a61851f55290cc0042a2603c1cffd89ad8a3da28216f9b20001977b80042c5b0097e92558abb9bc344c5a51618605988ae004de0f691634f17753befd95ded0aeadded392cb4004e56930251002f8a35e56f5c12dda3acccef3c0f004f42a407650c717bdcd1b356fbb1a4289ed586ae0054a28092787aa45a356c517fe9f4efede69ead500057281244eab70558353bb01ae044da04bb95cd4e005a262744990f9e193bb6c8b5d652b6759e02ad3d005ce773885e9988a5ddb3c1e37a05397bcd5eeca90065589c1592a555f265c48bb6505d43bdea15ba8b0066d95b9b63a5d1b61b5ae5e30221c3e19b29cf7300697521038bea638bccfcc91c5ec8f63cefbd62a5b2a28e9321d46f5aef8ef083ee654bb7ad0075740087ffffffff2fda6dc7d5cfd684cc8dcf24048c26f28a8430120eea5358caab6fbee6db6c9e01000000fd530248304502210083937312356fe3d0113cf4877746eca86403201c89d3f5761cb1c2db67ec152702203fda8c47210b8ad9369b4d4284d900aef17f1e4a032c2dc86276c34acea71cc6014d07024ddb01434e5452505254596ca3a38f3fe0c907b81404374012bfa2c218210069e12a40d4a2218d33f208b9a0447894dc9bea31006ddfc4d5b7ceb2264a73b448af67ed3c3a6b5607006e91d6700bbe778efb4f2bcfd9afd266926eb3a6006ecc8c56c3caa932e5f2083e1803696eb1063e3b006fe066d1be6359dba98e7f00f3f45707e0bd07ad007c8a4ffa173b6bb3b66fac2d68b23867b78ebaa40087ab93d8951deb3a21ee17d5e579b9fd20bc42df008895bfc14493b6922a23b549d0e1dd98d4522d0800893fe95b34e48ef0aa69d84650a146a09a47225d00894832b6fdbef2f756cd4bb4a2e521d8e91a7364009661d2afc4c77c17bec34d696adb77f84dc4f3be0096913187e3ec0d4048b376bed6e7449cb1664299009d33d96b9e10f7e9920731a5fd996af98a9928e700a20b50f27f4e35ec0aaa9fb17e789b8dd7d551e200a727fd3c700c91c02ae7593b9c43d7c969a22dfd00ab2dbe6e68fd6e6d466c7b2f20ff903b719b908f00ac2d3e3d235f7105b4e7d2705ea5fc0390a0c7ab00b1e075520fdd44aa718c50f0b5bb6fb17c00151f00b3e279361868a86f81fc71b4440d599461dc663b00b867b20c38e7b8366400e672cd192d575f8ba69000bdf3ea9b38966f3a22e5c97bc99ea25f420b8ea400c15c8907d99c7521038bea638bccfcc91c5ec8f63cefbd62a5b2a28e9321d46f5aef8ef083ee654bb7ad5175740087ffffffff2fda6dc7d5cfd684cc8dcf24048c26f28a8430120eea5358caab6fbee6db6c9e02000000fd520247304402206237f1017fa1fb29aba9ccf616a050ad60e4b7ad38a5f49cc3e88fe6638a35ce022061adda29bf3f9fcca9cb1a9501d93d4d267e5648daf689fb59b5c13a173e175c014d07024ddb01434e545250525459973ee3f86277a909570cb34de61200c1bda295b54fe474ad90138626eb8f57974b59eb0003584e4160e85fa97404051a58b7bc5af6a042e800c8cafbff9d210af59fab1f2b4c58d9cd189e81e300cd49c327a5e4c8fbfcbe8394fd1dcd021a554a1700d6becd4feb44293f54966ef160cb26db6e061f3700d8c432bf8fc643e79d5a7140d8e65d04660a020600dbc48d874d48deaccf7903f9877561e20bb9fe440003d3feacd626c3a80ad4eef8f1a5d657797100ca00dfb6aa51f9955d7a77609e2c2a5d1b592c47bd9900e0e53069ab7754afc1e7774a7baed30e644514b800e4ac4e29e33553e249aab76ebb708a4a5a8bfa2d00eb8573ebc025c46c493a13131311f4c81e6cc48200eb9bbc6637aed969ce032f4680cfb874e956116c00ebb0013404622f5fecfcb386bae0a784bd68bfae00f1ef961da476631efa1e2d658f3e7e8a48eaada800f97c1bb2e33b09b13015b9d386a72982d403fbea000a23a517a0a298fff94e6296dc7e103dcf8d1b3f05824d8eb34ecd4d70d1643ed84dc32fee2c5caea4807b115043055a33fbc2078a62b0cbe6bc576f6b86804811e340fbb4879fa2483cb666479ed2e99f20028001895cd718be87efe78cafc663ca058a73cbf38240000001220f47c7e09700007521038bea638bccfcc91c5ec8f63cefbd62a5b2a28e9321d46f5aef8ef083ee654bb7ad5275740087ffffffff2fda6dc7d5cfd684cc8dcf24048c26f28a8430120eea5358caab6fbee6db6c9e03000000fd520247304402206d151e874e11da08adc049502c2507418e0457f1c749a40b445b90d7383c8a4d02200fcec760ae49dc06bbd9dfceecd9701a5c5b529ff2b8be5bfccbbfce0bc24cff014d07024ddb01434e54525052545900174876e800805c0000002e90edd001006c0000005d21dba0020068000000ba43b74004002000000174876e800806c0000002e90edd00100e40000005d21dba00200a0000000ba43b74004029000000174876e80080780000002e90edd00100a00000005d21dba00200f0000000ba43b74004007000000174876e80080180000002e90edd00100980000005d21dba0020080000000ba43b7400400a000000174876e80080560000002e90edd00100e80000005d21dba00201f8000000ba43b7400401f000000174876e80080440000002e90edd00100600000005d21dba0020138000000ba43b7400400f000000174876e800807c0000002e90edd00100040000005d21dba0020090000000ba43b74004020000000174876e80080000000002e90edd001000c0000005d21dba0020200000000ba43b74004005000000174876e80080820000002e90edd00100c80000005d21dba00200e0000000ba43b74004013000000174876e800806a0000002e90edd00100580000005d21dba0020198000000ba43b7400402d000000174876e80080460000002e90edd00100c40000005d21dba0020070000000ba43b74004008000000174876e80080220000002e90edd00100240000005d21dba00200d0000000ba47521038bea638bccfcc91c5ec8f63cefbd62a5b2a28e9321d46f5aef8ef083ee654bb7ad5375740087ffffffff2fda6dc7d5cfd684cc8dcf24048c26f28a8430120eea5358caab6fbee6db6c9e04000000fd34014830450221009963fdea7364a190a2296736e166b8aadbeb1d1a6deb1d1e9a97b0764f57ecf0022062bbac1ee4ad0c4a3ef3d8bdec5579126f6d5f942e751674cbf19ab5fc7fa3b5014ce94cbe434e5452505254593b7400400b000000174876e800803a0000002e90edd00100d00000005d21dba0020178000000ba43b7400403d000000174876e80080080000002e90edd00100dc0000005d21dba00200a8000000ba43b7400402c000000174876e80080600000002e90edd00100940000005d21dba0020030000000ba43b7400402a000000174876e80080480000002e90edd00100640000005d21dba00201d8000000ba43b74004038000000174876e80080420000002e90edd001007521038bea638bccfcc91c5ec8f63cefbd62a5b2a28e9321d46f5aef8ef083ee654bb7ad5475740087ffffffff0100000000000000000e6a0cce0a35e529fea5de72526b1400000000"
}