{
  "txid": "aba137d9fa97658b3c2857b146e05927af961acfffa2a9394940f78df2ad2956",
  "version": 1,
  "locktime": 0,
  "vin": [
    {
      "txid": "7613f5668533c8dc0f6ef2789f35c244e635b590a98f8245f759a381924ee8e6",
      "vout": 1,
      "prevout": {
        "scriptpubkey": "0014d3a25a048f232007ef4c6214f6d3f32151e688ef",
        "scriptpubkey_asm": "OP_0 OP_PUSHBYTES_20 d3a25a048f232007ef4c6214f6d3f32151e688ef",
        "scriptpubkey_type": "v0_p2wpkh",
        "scriptpubkey_address": "bc1q6w395py0yvsq0m6vvg20d5lny9g7dz80n44w0n",
        "value": 62550
      },
      "scriptsig": "",
      "scriptsig_asm": "",
      "witness": [
        "3044022000a57dd0566ecbf28a0990c8496c9bfbe0f975ae50ac1c49b0953873ad3da2b202205a1245246408cbd877a4f1285f6b67674cbe97465614bec66f8331249a06c43201",
        "027b405edee67289bfa3b0aa3596b1484d483836ac4a4e465f7b0ef85ff8377796"
      ],
      "is_coinbase": false,
      "sequence": 4294967295
    }
  ],
  "vout": [
    {
      "scriptpubkey": "76a914a4523d05c552baa9c6234d36661a3c282039d3c788ac",
      "scriptpubkey_asm": "OP_DUP OP_HASH160 OP_PUSHBYTES_20 a4523d05c552baa9c6234d36661a3c282039d3c7 OP_EQUALVERIFY OP_CHECKSIG",
      "scriptpubkey_type": "p2pkh",
      "scriptpubkey_address": "1FyrLUyL3VCJNK57yQ8Ayd7MXqHRgqe216",
      "value": 20000
    },
    {
      "scriptpubkey": "0014d3a25a048f232007ef4c6214f6d3f32151e688ef",
      "scriptpubkey_asm": "OP_0 OP_PUSHBYTES_20 d3a25a048f232007ef4c6214f6d3f32151e688ef",
      "scriptpubkey_type": "v0_p2wpkh",
      "scriptpubkey_address": "bc1q6w395py0yvsq0m6vvg20d5lny9g7dz80n44w0n",
      "value": 38662
    }
  ],
  "size": 225,
  "weight": 573,
  "fee": 3888,
  "status": {
    "confirmed": true,
    "block_height": 834638,
    "block_hash": "000000000000000000025f742c626208ac87e0b7d15054abb4a19ca2d735a54e",
    "block_time": 1710405325
  },
  "hex": "01000000000101e6e84e9281a359f745828fa990b535e644c2359f78f26e0fdcc8338566f513760100000000ffffffff02204e0000000000001976a914a4523d05c552baa9c6234d36661a3c282039d3c788ac0697000000000000160014d3a25a048f232007ef4c6214f6d3f32151e688ef02473044022000a57dd0566ecbf28a0990c8496c9bfbe0f975ae50ac1c49b0953873ad3da2b202205a1245246408cbd877a4f1285f6b67674cbe97465614bec66f8331249a06c4320121027b405edee67289bfa3b0aa3596b1484d483836ac4a4e465f7b0ef85ff837779600000000"
}