{
  "txid": "abaddf4531d841f38543b3acc2ff01b48f9f5d00b4ec9c2d253349570d09ac72",
  "version": 2,
  "locktime": 0,
  "vin": [
    {
      "txid": "5c3864e3e852ec96346d84fbc3195b536ef1db1891f28d4b48dba69c282b1a0d",
      "vout": 19,
      "prevout": {
        "scriptpubkey": "51201babef57f6144b120243ae228777368383782f1d2407c94d0145c996ba28dcc0",
        "scriptpubkey_asm": "OP_PUSHNUM_1 OP_PUSHBYTES_32 1babef57f6144b120243ae228777368383782f1d2407c94d0145c996ba28dcc0",
        "scriptpubkey_type": "v1_p2tr",
        "scriptpubkey_address": "bc1prw4774lkz393yqjr4c3gwaekswphstcaysrujngpghyedw3gmnqq3d7m7k",
        "value": 3055
      },
      "scriptsig": "",
      "scriptsig_asm": "",
      "witness": [
        "3dc2c1487e65d830d69b2c8a71d1092c976b3d644f1460c808003e4cb6c83c9617f18c2c02de90aa5467fe968d4a8f48ff7f4adec617761993b914984a7341ea",
        "20ddb8008efc0c060f4667d821e073c4b089dba77f6c7691b14e2292d12f5aa2aeac0063036f726401011e6170706c69636174696f6e2f6a736f6e3b636861727365743d7574662d38004cd37b2270223a22706f772d3230222c226f70223a226d696e74222c227469636b223a2250455045222c22616d74223a2231303030222c22736f6c7574696f6e223a22504550453a626331703237796d68736b396a36716e706b7367767973363471356663717670646465716a6832716a796c6330793861667138663261727375637776796b3a303030303030303030303030303030303030303139393431613561653132383937363539383134343239323533333030353762306461393666336465613163353a3139383931313037393135227d68",
        "c029e6ca6c8c5ab61eaab81da0d3884f0ac7596b050aac6663ac46dee308a1dbc8"
      ],
      "is_coinbase": false,
      "sequence": 4294967295
    }
  ],
  "vout": [
    {
      "scriptpubkey": "51205789bbc2c5968130da086121aa8289c01816b72095d40913f8790fd480e95747",
      "scriptpubkey_asm": "OP_PUSHNUM_1 OP_PUSHBYTES_32 5789bbc2c5968130da086121aa8289c01816b72095d40913f8790fd480e95747",
      "scriptpubkey_type": "v1_p2tr",
      "scriptpubkey_address": "bc1p27ymhsk9j6qnpksgvys64q5fcqvpddeqjh2qjylc0y8afq8f2arsucwvyk",
      "value": 546
    }
  ],
  "size": 487,
  "weight": 769,
  "fee": 2509,
  "status": {
    "confirmed": true,
    "block_height": 834460,
    "block_hash": "00000000000000000000484a79b643b2524bbce82e5d8a442013fa5b8905ed98",
    "block_time": 1710307468
  },
  "hex": "020000000001010d1a2b289ca6db484b8df29118dbf16e535b19c3fb846d3496ec52e8e364385c1300000000ffffffff0122020000000000002251205789bbc2c5968130da086121aa8289c01816b72095d40913f8790fd480e9574703403dc2c1487e65d830d69b2c8a71d1092c976b3d644f1460c808003e4cb6c83c9617f18c2c02de90aa5467fe968d4a8f48ff7f4adec617761993b914984a7341eafd200120ddb8008efc0c060f4667d821e073c4b089dba77f6c7691b14e2292d12f5aa2aeac0063036f726401011e6170706c69636174696f6e2f6a736f6e3b636861727365743d7574662d38004cd37b2270223a22706f772d3230222c226f70223a226d696e74222c227469636b223a2250455045222c22616d74223a2231303030222c22736f6c7574696f6e223a22504550453a626331703237796d68736b396a36716e706b7367767973363471356663717670646465716a6832716a796c6330793861667138663261727375637776796b3a303030303030303030303030303030303030303139393431613561653132383937363539383134343239323533333030353762306461393666336465613163353a3139383931313037393135227d6821c029e6ca6c8c5ab61eaab81da0d3884f0ac7596b050aac6663ac46dee308a1dbc800000000"
}