{
  "txid": "abb37929d054efac2bfa3a27e161c3ea83bab536cc5fd8357b7609cf76e410a2",
  "version": 2,
  "locktime": 0,
  "vin": [
    {
      "txid": "d3263b07238c560fc014cc2f17685198087c30604437112530c001d9321e4d8c",
      "vout": 0,
      "prevout": {
        "scriptpubkey": "0014ddf5a12968c52df344a63974f094aa99fd521aad",
        "scriptpubkey_asm": "OP_0 OP_PUSHBYTES_20 ddf5a12968c52df344a63974f094aa99fd521aad",
        "scriptpubkey_type": "v0_p2wpkh",
        "scriptpubkey_address": "bc1qmh66z2tgc5klx39x8960p992n874yx4d6kssta",
        "value": 31920540
      },
      "scriptsig": "",
      "scriptsig_asm": "",
      "witness": [
        "304502210088d151a951febc3844a1f2b5af340e841e2bfb62b05cf7f25787e6e2fc4c259602205987b290f7005710d85828e40195b47e4f65890a57a157b0d7a2c1741240a84f01",
        "03c90e6ed2c96ef2b66101eeb5b7c8dc0188966daec0cfec7c0df4548140820252"
      ],
      "is_coinbase": false,
      "sequence": 4294967293
    }
  ],
  "vout": [
    {
      "scriptpubkey": "001418f4f80c6bbc9b09f74c46c7f37417137720c33e",
      "scriptpubkey_asm": "OP_0 OP_PUSHBYTES_20 18f4f80c6bbc9b09f74c46c7f37417137720c33e",
      "scriptpubkey_type": "v0_p2wpkh",
      "scriptpubkey_address": "bc1qrr60srrthjdsna6vgmrlxaqhzdmjpse7xxc80y",
      "value": 54457
    },
    {
      "scriptpubkey": "0014e65cd7eb61582af6761329f64a9eda57740aef43",
      "scriptpubkey_asm": "OP_0 OP_PUSHBYTES_20 e65cd7eb61582af6761329f64a9eda57740aef43",
      "scriptpubkey_type": "v0_p2wpkh",
      "scriptpubkey_address": "bc1quewd06mptq40vasn98my48k62a6q4m6ry9cvsu",
      "value": 31861493
    }
  ],
  "size": 223,
  "weight": 562,
  "fee": 4590,
  "status": {
    "confirmed": true,
    "block_height": 834638,
    "block_hash": "000000000000000000025f742c626208ac87e0b7d15054abb4a19ca2d735a54e",
    "block_time": 1710405325
  },
  "hex": "020000000001018c4d1e32d901c0302511374460307c08985168172fcc14c00f568c23073b26d30000000000fdffffff02b9d400000000000016001418f4f80c6bbc9b09f74c46c7f37417137720c33ef52ae60100000000160014e65cd7eb61582af6761329f64a9eda57740aef430248304502210088d151a951febc3844a1f2b5af340e841e2bfb62b05cf7f25787e6e2fc4c259602205987b290f7005710d85828e40195b47e4f65890a57a157b0d7a2c1741240a84f012103c90e6ed2c96ef2b66101eeb5b7c8dc0188966daec0cfec7c0df454814082025200000000"
}