{
  "txid": "abb65a16c3dbc43e828b5a9072207aef0654fe171a1bc688e624a2c2f07a6650",
  "version": 2,
  "locktime": 0,
  "vin": [
    {
      "txid": "433168bc5610680fe296a96b15a4f4ddb803b188ca531187df661e14c1bc3fcd",
      "vout": 1,
      "prevout": {
        "scriptpubkey": "a914fbe34fdcbe3f399655a413cbb8bc97c5e9c233aa87",
        "scriptpubkey_asm": "OP_HASH160 OP_PUSHBYTES_20 fbe34fdcbe3f399655a413cbb8bc97c5e9c233aa OP_EQUAL",
        "scriptpubkey_type": "p2sh",
        "scriptpubkey_address": "3Qesqc48jakUEKatmgGiejNNJeJ8YcMt3X",
        "value": 458401
      },
      "scriptsig": "1600146b2c7b716cc97c802b8701c31439531116c310ee",
      "scriptsig_asm": "OP_PUSHBYTES_22 00146b2c7b716cc97c802b8701c31439531116c310ee",
      "witness": [
        "3044022057c589e3c602159100dee56fa6134640bd0976730c86d286d02ab8819700c1e502207c668321570c244f8e9f1db4d40603cbba8dac939f29853fad555e6468886cef01",
        "0289ff2d336a81daa68f4a80f916e3eb6590679164f6b4a2ba0b06e77079a78b73"
      ],
      "is_coinbase": false,
      "sequence": 4294967293,
      "inner_redeemscript_asm": "OP_0 OP_PUSHBYTES_20 6b2c7b716cc97c802b8701c31439531116c310ee"
    }
  ],
  "vout": [
    {
      "scriptpubkey": "a91496f39f43085bd93953c526cf9538f4adf5e3ef5487",
      "scriptpubkey_asm": "OP_HASH160 OP_PUSHBYTES_20 96f39f43085bd93953c526cf9538f4adf5e3ef54 OP_EQUAL",
      "scriptpubkey_type": "p2sh",
      "scriptpubkey_address": "3FTB8Un4o7C7oQyLJGa5THwegex7mrGnQn",
      "value": 200000
    },
    {
      "scriptpubkey": "a914fbe34fdcbe3f399655a413cbb8bc97c5e9c233aa87",
      "scriptpubkey_asm": "OP_HASH160 OP_PUSHBYTES_20 fbe34fdcbe3f399655a413cbb8bc97c5e9c233aa OP_EQUAL",
      "scriptpubkey_type": "p2sh",
      "scriptpubkey_address": "3Qesqc48jakUEKatmgGiejNNJeJ8YcMt3X",
      "value": 253919
    }
  ],
  "size": 247,
  "weight": 661,
  "fee": 4482,
  "status": {
    "confirmed": true,
    "block_height": 834638,
    "block_hash": "000000000000000000025f742c626208ac87e0b7d15054abb4a19ca2d735a54e",
    "block_time": 1710405325
  },
  "hex": "02000000000101cd3fbcc1141e66df871153ca88b103b8ddf4a4156ba996e20f681056bc68314301000000171600146b2c7b716cc97c802b8701c31439531116c310eefdffffff02400d03000000000017a91496f39f43085bd93953c526cf9538f4adf5e3ef5487dfdf03000000000017a914fbe34fdcbe3f399655a413cbb8bc97c5e9c233aa8702473044022057c589e3c602159100dee56fa6134640bd0976730c86d286d02ab8819700c1e502207c668321570c244f8e9f1db4d40603cbba8dac939f29853fad555e6468886cef01210289ff2d336a81daa68f4a80f916e3eb6590679164f6b4a2ba0b06e77079a78b7300000000"
}