{
  "txid": "abbc3c31018b6d0e400ccd49984081d56200e1c6d3a0732e9f657f50bcc0f08e",
  "version": 2,
  "locktime": 0,
  "vin": [
    {
      "txid": "43f70a7701ba09e8519c71e69a36280cccd4fbd8722fdda66c107c35e3a38505",
      "vout": 3,
      "prevout": {
        "scriptpubkey": "5120096f14bca20e9e0dc62cd3209a60d329a6240597fc7d4f38e448243e0a4f78a8",
        "scriptpubkey_asm": "OP_PUSHNUM_1 OP_PUSHBYTES_32 096f14bca20e9e0dc62cd3209a60d329a6240597fc7d4f38e448243e0a4f78a8",
        "scriptpubkey_type": "v1_p2tr",
        "scriptpubkey_address": "bc1pp9h3f09zp60qm33v6vsf5cxn9xnzgpvhl3757w8yfqjruzj00z5q887gzg",
        "value": 600
      },
      "scriptsig": "",
      "scriptsig_asm": "",
      "witness": [
        "43f0f39dcc55a3b802b8b55360aaa7fedc1b73b4644c615c4ef9b70c98fdced797d81d407c3a86920d96a4a3f0f3eec032db9cf3dd7ee585e1e104c7118a6b56"
      ],
      "is_coinbase": false,
      "sequence": 4294967295
    },
    {
      "txid": "43f70a7701ba09e8519c71e69a36280cccd4fbd8722fdda66c107c35e3a38505",
      "vout": 4,
      "prevout": {
        "scriptpubkey": "5120096f14bca20e9e0dc62cd3209a60d329a6240597fc7d4f38e448243e0a4f78a8",
        "scriptpubkey_asm": "OP_PUSHNUM_1 OP_PUSHBYTES_32 096f14bca20e9e0dc62cd3209a60d329a6240597fc7d4f38e448243e0a4f78a8",
        "scriptpubkey_type": "v1_p2tr",
        "scriptpubkey_address": "bc1pp9h3f09zp60qm33v6vsf5cxn9xnzgpvhl3757w8yfqjruzj00z5q887gzg",
        "value": 600
      },
      "scriptsig": "",
      "scriptsig_asm": "",
      "witness": [
        "0a2c6911a3ea29c3258db37870803a007f2a54920d09375e7039bb833411d2a0ea6e176827c3caeb37bf875a02fe54c2d15c4227fb3b1857596d91b75764321f"
      ],
      "is_coinbase": false,
      "sequence": 4294967295
    },
    {
      "txid": "ee8444fbee7008c4c7d10a8546a3c660fca4a5a906eaafec8b84f10a9e6a2b75",
      "vout": 0,
      "prevout": {
        "scriptpubkey": "512049955b5c05a4d700d7c5f40dc8192ee45a28744bdaea1ddea1e4649f22b257fd",
        "scriptpubkey_asm": "OP_PUSHNUM_1 OP_PUSHBYTES_32 49955b5c05a4d700d7c5f40dc8192ee45a28744bdaea1ddea1e4649f22b257fd",
        "scriptpubkey_type": "v1_p2tr",
        "scriptpubkey_address": "bc1pfx24khq95ntsp4797sxusxfwu3dzsaztmt4pmh4pu3jf7g4j2l7sg0jgg9",
        "value": 546
      },
      "scriptsig": "",
      "scriptsig_asm": "",
      "witness": [
        "b9d3e6bda669f54d3590bf9a52d35a87e3c0b8494132760df269731924733b52971cae184b818bd32285291f1f80e5f509f2741275a66e6fa82c6a9dfe116e6c83"
      ],
      "is_coinbase": false,
      "sequence": 4294967295
    },
    {
      "txid": "f65b9ac99a6333dd658b1f57ac63e1e5d1124563965a96c10c6d4e9e64812378",
      "vout": 2,
      "prevout": {
        "scriptpubkey": "5120096f14bca20e9e0dc62cd3209a60d329a6240597fc7d4f38e448243e0a4f78a8",
        "scriptpubkey_asm": "OP_PUSHNUM_1 OP_PUSHBYTES_32 096f14bca20e9e0dc62cd3209a60d329a6240597fc7d4f38e448243e0a4f78a8",
        "scriptpubkey_type": "v1_p2tr",
        "scriptpubkey_address": "bc1pp9h3f09zp60qm33v6vsf5cxn9xnzgpvhl3757w8yfqjruzj00z5q887gzg",
        "value": 356118
      },
      "scriptsig": "",
      "scriptsig_asm": "",
      "witness": [
        "c4576c5a17a1fbb9f041bbc076cd0aa21fa90826182b400d027ad1fe46b2345daaf2d2e939a4390083fc4d0622ef4045d27c941752fb5e912c9e9a7360a23721"
      ],
      "is_coinbase": false,
      "sequence": 4294967295
    },
    {
      "txid": "ad36b3a33580d5cf23342e8dcb1edc8c6ba4b7d902bb0b90d296a967add03d1c",
      "vout": 2,
      "prevout": {
        "scriptpubkey": "5120096f14bca20e9e0dc62cd3209a60d329a6240597fc7d4f38e448243e0a4f78a8",
        "scriptpubkey_asm": "OP_PUSHNUM_1 OP_PUSHBYTES_32 096f14bca20e9e0dc62cd3209a60d329a6240597fc7d4f38e448243e0a4f78a8",
        "scriptpubkey_type": "v1_p2tr",
        "scriptpubkey_address": "bc1pp9h3f09zp60qm33v6vsf5cxn9xnzgpvhl3757w8yfqjruzj00z5q887gzg",
        "value": 100000
      },
      "scriptsig": "",
      "scriptsig_asm": "",
      "witness": [
        "8449d87f67f648d925ba8ffb10ff23800aee1916395765fcb72c18af64e50835ddc208fa88acfee567e07b2c80ba148cda10b2cc720a1d28d9536189f0999a31"
      ],
      "is_coinbase": false,
      "sequence": 4294967295
    },
    {
      "txid": "72c823a5a43fbb266102a418196016fea490d4226fa0198e36fd4db437ad16e5",
      "vout": 2,
      "prevout": {
        "scriptpubkey": "5120096f14bca20e9e0dc62cd3209a60d329a6240597fc7d4f38e448243e0a4f78a8",
        "scriptpubkey_asm": "OP_PUSHNUM_1 OP_PUSHBYTES_32 096f14bca20e9e0dc62cd3209a60d329a6240597fc7d4f38e448243e0a4f78a8",
        "scriptpubkey_type": "v1_p2tr",
        "scriptpubkey_address": "bc1pp9h3f09zp60qm33v6vsf5cxn9xnzgpvhl3757w8yfqjruzj00z5q887gzg",
        "value": 80000
      },
      "scriptsig": "",
      "scriptsig_asm": "",
      "witness": [
        "e23afbac889323804fd06b2a4a60337863251876544782d01a035ca603f4a30dfd778aa9a39b5acc97113adaa4347ee016c45a22674260546fcb6fc171b25fa4"
      ],
      "is_coinbase": false,
      "sequence": 4294967295
    }
  ],
  "vout": [
    {
      "scriptpubkey": "5120096f14bca20e9e0dc62cd3209a60d329a6240597fc7d4f38e448243e0a4f78a8",
      "scriptpubkey_asm": "OP_PUSHNUM_1 OP_PUSHBYTES_32 096f14bca20e9e0dc62cd3209a60d329a6240597fc7d4f38e448243e0a4f78a8",
      "scriptpubkey_type": "v1_p2tr",
      "scriptpubkey_address": "bc1pp9h3f09zp60qm33v6vsf5cxn9xnzgpvhl3757w8yfqjruzj00z5q887gzg",
      "value": 1200
    },
    {
      "scriptpubkey": "5120096f14bca20e9e0dc62cd3209a60d329a6240597fc7d4f38e448243e0a4f78a8",
      "scriptpubkey_asm": "OP_PUSHNUM_1 OP_PUSHBYTES_32 096f14bca20e9e0dc62cd3209a60d329a6240597fc7d4f38e448243e0a4f78a8",
      "scriptpubkey_type": "v1_p2tr",
      "scriptpubkey_address": "bc1pp9h3f09zp60qm33v6vsf5cxn9xnzgpvhl3757w8yfqjruzj00z5q887gzg",
      "value": 546
    },
    {
      "scriptpubkey": "512049955b5c05a4d700d7c5f40dc8192ee45a28744bdaea1ddea1e4649f22b257fd",
      "scriptpubkey_asm": "OP_PUSHNUM_1 OP_PUSHBYTES_32 49955b5c05a4d700d7c5f40dc8192ee45a28744bdaea1ddea1e4649f22b257fd",
      "scriptpubkey_type": "v1_p2tr",
      "scriptpubkey_address": "bc1pfx24khq95ntsp4797sxusxfwu3dzsaztmt4pmh4pu3jf7g4j2l7sg0jgg9",
      "value": 472420
    },
    {
      "scriptpubkey": "5120096f14bca20e9e0dc62cd3209a60d329a6240597fc7d4f38e448243e0a4f78a8",
      "scriptpubkey_asm": "OP_PUSHNUM_1 OP_PUSHBYTES_32 096f14bca20e9e0dc62cd3209a60d329a6240597fc7d4f38e448243e0a4f78a8",
      "scriptpubkey_type": "v1_p2tr",
      "scriptpubkey_address": "bc1pp9h3f09zp60qm33v6vsf5cxn9xnzgpvhl3757w8yfqjruzj00z5q887gzg",
      "value": 600
    },
    {
      "scriptpubkey": "5120096f14bca20e9e0dc62cd3209a60d329a6240597fc7d4f38e448243e0a4f78a8",
      "scriptpubkey_asm": "OP_PUSHNUM_1 OP_PUSHBYTES_32 096f14bca20e9e0dc62cd3209a60d329a6240597fc7d4f38e448243e0a4f78a8",
      "scriptpubkey_type": "v1_p2tr",
      "scriptpubkey_address": "bc1pp9h3f09zp60qm33v6vsf5cxn9xnzgpvhl3757w8yfqjruzj00z5q887gzg",
      "value": 600
    },
    {
      "scriptpubkey": "5120096f14bca20e9e0dc62cd3209a60d329a6240597fc7d4f38e448243e0a4f78a8",
      "scriptpubkey_asm": "OP_PUSHNUM_1 OP_PUSHBYTES_32 096f14bca20e9e0dc62cd3209a60d329a6240597fc7d4f38e448243e0a4f78a8",
      "scriptpubkey_type": "v1_p2tr",
      "scriptpubkey_address": "bc1pp9h3f09zp60qm33v6vsf5cxn9xnzgpvhl3757w8yfqjruzj00z5q887gzg",
      "value": 55130
    }
  ],
  "size": 913,
  "weight": 2455,
  "fee": 7368,
  "status": {
    "confirmed": true,
    "block_height": 834464,
    "block_hash": "0000000000000000000177a0869a911a2b65c9bdcd5a8bcb02b68f305bee848e",
    "block_time": 1710308296
  },
  "hex": "020000000001060585a3e3357c106ca6dd2f72d8fbd4cc0c28369ae6719c51e809ba01770af7430300000000ffffffff0585a3e3357c106ca6dd2f72d8fbd4cc0c28369ae6719c51e809ba01770af7430400000000ffffffff752b6a9e0af1848becafea06a9a5a4fc60c6a346850ad1c7c40870eefb4484ee0000000000ffffffff782381649e4e6d0cc1965a96634512d1e5e163ac571f8b65dd33639ac99a5bf60200000000ffffffff1c3dd0ad67a996d2900bbb02d9b7a46b8cdc1ecb8d2e3423cfd58035a3b336ad0200000000ffffffffe516ad37b44dfd368e19a06f22d490a4fe16601918a4026126bb3fa4a523c8720200000000ffffffff06b004000000000000225120096f14bca20e9e0dc62cd3209a60d329a6240597fc7d4f38e448243e0a4f78a82202000000000000225120096f14bca20e9e0dc62cd3209a60d329a6240597fc7d4f38e448243e0a4f78a8643507000000000022512049955b5c05a4d700d7c5f40dc8192ee45a28744bdaea1ddea1e4649f22b257fd5802000000000000225120096f14bca20e9e0dc62cd3209a60d329a6240597fc7d4f38e448243e0a4f78a85802000000000000225120096f14bca20e9e0dc62cd3209a60d329a6240597fc7d4f38e448243e0a4f78a85ad7000000000000225120096f14bca20e9e0dc62cd3209a60d329a6240597fc7d4f38e448243e0a4f78a8014043f0f39dcc55a3b802b8b55360aaa7fedc1b73b4644c615c4ef9b70c98fdced797d81d407c3a86920d96a4a3f0f3eec032db9cf3dd7ee585e1e104c7118a6b5601400a2c6911a3ea29c3258db37870803a007f2a54920d09375e7039bb833411d2a0ea6e176827c3caeb37bf875a02fe54c2d15c4227fb3b1857596d91b75764321f0141b9d3e6bda669f54d3590bf9a52d35a87e3c0b8494132760df269731924733b52971cae184b818bd32285291f1f80e5f509f2741275a66e6fa82c6a9dfe116e6c830140c4576c5a17a1fbb9f041bbc076cd0aa21fa90826182b400d027ad1fe46b2345daaf2d2e939a4390083fc4d0622ef4045d27c941752fb5e912c9e9a7360a2372101408449d87f67f648d925ba8ffb10ff23800aee1916395765fcb72c18af64e50835ddc208fa88acfee567e07b2c80ba148cda10b2cc720a1d28d9536189f0999a310140e23afbac889323804fd06b2a4a60337863251876544782d01a035ca603f4a30dfd778aa9a39b5acc97113adaa4347ee016c45a22674260546fcb6fc171b25fa400000000"
}