{
  "txid": "abc3ce9b610e4c2bdf1c41706366e6c84eac7dab6657199f85315173dbf64e89",
  "version": 2,
  "locktime": 0,
  "vin": [
    {
      "txid": "a2e83b4e8fa150213c878d5cdca509ca6b35e827fc30670bf62f9ecacec37b58",
      "vout": 12,
      "prevout": {
        "scriptpubkey": "0014930b7af0405b4b1c63854c0226b8c19c8c907021",
        "scriptpubkey_asm": "OP_0 OP_PUSHBYTES_20 930b7af0405b4b1c63854c0226b8c19c8c907021",
        "scriptpubkey_type": "v0_p2wpkh",
        "scriptpubkey_address": "bc1qjv9h4uzqtd93ccu9fspzdwxpnjxfquppv0c6n9",
        "value": 4476947
      },
      "scriptsig": "",
      "scriptsig_asm": "",
      "witness": [
        "304402202c3ec1c132f6bdb2d35f557233551355ad62e5079680bf50fe4a2e7fe1a4652702206bf94b1a8f9791fa434dd99389eeda622e61252f3df8aa90e60047deb2fc218601",
        "0362a50f76be90a9ff06f9a1e86bbd65db59be0439d2974462d075d438bc5c8539"
      ],
      "is_coinbase": false,
      "sequence": 4294967293
    },
    {
      "txid": "f5fc6093b10023a4b59e580619310601a992e28293afe07a9b47aa38215ea407",
      "vout": 27,
      "prevout": {
        "scriptpubkey": "001471529ada80a025ef4a8aab2d3a3d2afb5dfc2aae",
        "scriptpubkey_asm": "OP_0 OP_PUSHBYTES_20 71529ada80a025ef4a8aab2d3a3d2afb5dfc2aae",
        "scriptpubkey_type": "v0_p2wpkh",
        "scriptpubkey_address": "bc1qw9ff4k5q5qj77j524vkn50f2ldwlc24wm7784t",
        "value": 40784
      },
      "scriptsig": "",
      "scriptsig_asm": "",
      "witness": [
        "3045022100df1c1f6d0053e31797d3b5d72ee212733e6ed0143d2deda16e4f437395ba02e302202c493f778e3ad7bd14fbcbcdea884f805cdef584e7e12f8619ec843e7e32477201",
        "02da10b253e57c1ac83770be394e201bcda5d7aacd167f4e3fea478ae0362f3059"
      ],
      "is_coinbase": false,
      "sequence": 4294967293
    }
  ],
  "vout": [
    {
      "scriptpubkey": "a914fb4c98b7729060b1a655dd801cb8b05a3a89237587",
      "scriptpubkey_asm": "OP_HASH160 OP_PUSHBYTES_20 fb4c98b7729060b1a655dd801cb8b05a3a892375 OP_EQUAL",
      "scriptpubkey_type": "p2sh",
      "scriptpubkey_address": "3QbmHiQbf6pjAf5YZoPu7oAMkq2HL2yXeu",
      "value": 4512151
    }
  ],
  "size": 341,
  "weight": 713,
  "fee": 5580,
  "status": {
    "confirmed": true,
    "block_height": 834638,
    "block_hash": "000000000000000000025f742c626208ac87e0b7d15054abb4a19ca2d735a54e",
    "block_time": 1710405325
  },
  "hex": "02000000000102587bc3ceca9e2ff60b6730fc27e8356bca09a5dc5c8d873c2150a18f4e3be8a20c00000000fdffffff07a45e2138aa479b7ae0af9382e292a90106311906589eb5a42300b19360fcf51b00000000fdffffff0197d944000000000017a914fb4c98b7729060b1a655dd801cb8b05a3a892375870247304402202c3ec1c132f6bdb2d35f557233551355ad62e5079680bf50fe4a2e7fe1a4652702206bf94b1a8f9791fa434dd99389eeda622e61252f3df8aa90e60047deb2fc218601210362a50f76be90a9ff06f9a1e86bbd65db59be0439d2974462d075d438bc5c853902483045022100df1c1f6d0053e31797d3b5d72ee212733e6ed0143d2deda16e4f437395ba02e302202c493f778e3ad7bd14fbcbcdea884f805cdef584e7e12f8619ec843e7e324772012102da10b253e57c1ac83770be394e201bcda5d7aacd167f4e3fea478ae0362f305900000000"
}