{
  "txid": "abd34c9eeb31112b519ac0e68623124884890e00252078a9b6f4915f74fcc738",
  "version": 2,
  "locktime": 0,
  "vin": [
    {
      "txid": "93d60901d576c80e24062d6ed7fc7cef5e698854c2224b3de271a1bdddb7c212",
      "vout": 29,
      "prevout": {
        "scriptpubkey": "0014d89dd84c689d019f7840c9bf2da3d2e1574e279f",
        "scriptpubkey_asm": "OP_0 OP_PUSHBYTES_20 d89dd84c689d019f7840c9bf2da3d2e1574e279f",
        "scriptpubkey_type": "v0_p2wpkh",
        "scriptpubkey_address": "bc1qmzwasnrgn5qe77zqexljmg7ju9t5ufulj7mrek",
        "value": 166000
      },
      "scriptsig": "",
      "scriptsig_asm": "",
      "witness": [
        "30440220068d72eef4b08b4f43109af41f956c42036861d74e9e19b3a794562633a310b00220659b3477b844eb9b35385477b18157801a39ef4da5b2b5953a3a4a8b5a03c06f01",
        "0340ae2f5959bc6c9bc6c41406677533983f754b3b1da2c58cccc694264c9fe69e"
      ],
      "is_coinbase": false,
      "sequence": 4294967295
    },
    {
      "txid": "fd6b3a72c543ccb998cb930c9dc645a61cac1f750541c573f5a9cf35e8ce4ee4",
      "vout": 1,
      "prevout": {
        "scriptpubkey": "0014d89dd84c689d019f7840c9bf2da3d2e1574e279f",
        "scriptpubkey_asm": "OP_0 OP_PUSHBYTES_20 d89dd84c689d019f7840c9bf2da3d2e1574e279f",
        "scriptpubkey_type": "v0_p2wpkh",
        "scriptpubkey_address": "bc1qmzwasnrgn5qe77zqexljmg7ju9t5ufulj7mrek",
        "value": 399
      },
      "scriptsig": "",
      "scriptsig_asm": "",
      "witness": [
        "30440220590f7cdd2731059514d29ed7489f4730a79934110dbec0ad9badb8e9f343b9d802206277314ef8d003074846aa3191bcab2031ec0385c469908dea925a740891697d01",
        "0340ae2f5959bc6c9bc6c41406677533983f754b3b1da2c58cccc694264c9fe69e"
      ],
      "is_coinbase": false,
      "sequence": 4294967295
    },
    {
      "txid": "61ee873279c76c59de313c9208164b0b7bac265a0fa3b8a7b601e82266b39763",
      "vout": 1,
      "prevout": {
        "scriptpubkey": "0014d89dd84c689d019f7840c9bf2da3d2e1574e279f",
        "scriptpubkey_asm": "OP_0 OP_PUSHBYTES_20 d89dd84c689d019f7840c9bf2da3d2e1574e279f",
        "scriptpubkey_type": "v0_p2wpkh",
        "scriptpubkey_address": "bc1qmzwasnrgn5qe77zqexljmg7ju9t5ufulj7mrek",
        "value": 398
      },
      "scriptsig": "",
      "scriptsig_asm": "",
      "witness": [
        "30440220118689eabac90829b0970e2e393cba7e9569cf3b4086cd1a8a8c5973370dca09022029fe590568aeb2241dd24817405cef5fad22fbdbcaa5935d4d51969bc7d1232301",
        "0340ae2f5959bc6c9bc6c41406677533983f754b3b1da2c58cccc694264c9fe69e"
      ],
      "is_coinbase": false,
      "sequence": 4294967295
    }
  ],
  "vout": [
    {
      "scriptpubkey": "0014511b0cfccfdf6a51969db2abb2369a60f1b4009b",
      "scriptpubkey_asm": "OP_0 OP_PUSHBYTES_20 511b0cfccfdf6a51969db2abb2369a60f1b4009b",
      "scriptpubkey_type": "v0_p2wpkh",
      "scriptpubkey_address": "bc1q2ydselx0ma49r95ak24myd56vrcmgqym4zj39x",
      "value": 164169
    }
  ],
  "size": 487,
  "weight": 979,
  "fee": 2628,
  "status": {
    "confirmed": true,
    "block_height": 834464,
    "block_hash": "0000000000000000000177a0869a911a2b65c9bdcd5a8bcb02b68f305bee848e",
    "block_time": 1710308296
  },
  "hex": "0200000000010312c2b7ddbda171e23d4b22c25488695eef7cfcd76e2d06240ec876d50109d6931d00000000ffffffffe44ecee835cfa9f573c54105751fac1ca645c69d0c93cb98b9cc43c5723a6bfd0100000000ffffffff6397b36622e801b6a7b8a30f5a26ac7b0b4b1608923c31de596cc7793287ee610100000000ffffffff014981020000000000160014511b0cfccfdf6a51969db2abb2369a60f1b4009b024730440220068d72eef4b08b4f43109af41f956c42036861d74e9e19b3a794562633a310b00220659b3477b844eb9b35385477b18157801a39ef4da5b2b5953a3a4a8b5a03c06f01210340ae2f5959bc6c9bc6c41406677533983f754b3b1da2c58cccc694264c9fe69e024730440220590f7cdd2731059514d29ed7489f4730a79934110dbec0ad9badb8e9f343b9d802206277314ef8d003074846aa3191bcab2031ec0385c469908dea925a740891697d01210340ae2f5959bc6c9bc6c41406677533983f754b3b1da2c58cccc694264c9fe69e024730440220118689eabac90829b0970e2e393cba7e9569cf3b4086cd1a8a8c5973370dca09022029fe590568aeb2241dd24817405cef5fad22fbdbcaa5935d4d51969bc7d1232301210340ae2f5959bc6c9bc6c41406677533983f754b3b1da2c58cccc694264c9fe69e00000000"
}