{
  "txid": "abd99216aa8777cf7315f35a658adb310f4b08d46fe20571a70bc0ee91935cf0",
  "version": 2,
  "locktime": 0,
  "vin": [
    {
      "txid": "12fe58804e9d061a699c82bf621db2a7ea6639dcfa94d259c4b01bfcf95b061a",
      "vout": 24,
      "prevout": {
        "scriptpubkey": "51201f3ec7396f88ad61237469e773cc47d976047d1fbbfba3cbe82de01a7a120c7f",
        "scriptpubkey_asm": "OP_PUSHNUM_1 OP_PUSHBYTES_32 1f3ec7396f88ad61237469e773cc47d976047d1fbbfba3cbe82de01a7a120c7f",
        "scriptpubkey_type": "v1_p2tr",
        "scriptpubkey_address": "bc1prulvwwt03zkkzgm5d8nh8nz8m9mqglglh0a68jlg9hsp57sjp3ls89xj3j",
        "value": 2471
      },
      "scriptsig": "",
      "scriptsig_asm": "",
      "witness": [
        "f235d5ba2be98c3ced29e136f6b04e4a232ba019595f3f5da430fda4a206169569225f090eedf254af36e731ca296435f56db061d820062a7c4f09e63b3d53ae",
        "205e80d9366e3fa30404e346b38d46089446199f7eb0bf0b9026b79775dc55afc9ac0063036f7264010118746578742f706c61696e3b636861727365743d7574662d38004c947b2270223a2022746170222c20226f70223a2022646d742d6d696e74222c2022646570223a2022366134396139343839376531373435326133633236363131363036323132346331346137333566623335353737303866313533623139666364376238376538336930222c20227469636b223a2022f09f92b0f09f90b8f09f92b0222c2022626c6b223a2022313239353233227d68",
        "c0f3c76533aefc774b0707ddcd1b4941606fa49e3564f0a84ef66fd28168e942d9"
      ],
      "is_coinbase": false,
      "sequence": 4294967295
    }
  ],
  "vout": [
    {
      "scriptpubkey": "51206995824a071ac4f752d81f89304c314d5fe918d3c4d9b534d336bc01090fa188",
      "scriptpubkey_asm": "OP_PUSHNUM_1 OP_PUSHBYTES_32 6995824a071ac4f752d81f89304c314d5fe918d3c4d9b534d336bc01090fa188",
      "scriptpubkey_type": "v1_p2tr",
      "scriptpubkey_address": "bc1pdx2cyjs8rtz0w5kcr7ynqnp3f407jxxncnvm2dxnx67qzzg05xyqy837q4",
      "value": 546
    }
  ],
  "size": 416,
  "weight": 698,
  "fee": 1925,
  "status": {
    "confirmed": true,
    "block_height": 834464,
    "block_hash": "0000000000000000000177a0869a911a2b65c9bdcd5a8bcb02b68f305bee848e",
    "block_time": 1710308296
  },
  "hex": "020000000001011a065bf9fc1bb0c459d294fadc3966eaa7b21d62bf829c691a069d4e8058fe121800000000ffffffff0122020000000000002251206995824a071ac4f752d81f89304c314d5fe918d3c4d9b534d336bc01090fa1880340f235d5ba2be98c3ced29e136f6b04e4a232ba019595f3f5da430fda4a206169569225f090eedf254af36e731ca296435f56db061d820062a7c4f09e63b3d53aedb205e80d9366e3fa30404e346b38d46089446199f7eb0bf0b9026b79775dc55afc9ac0063036f7264010118746578742f706c61696e3b636861727365743d7574662d38004c947b2270223a2022746170222c20226f70223a2022646d742d6d696e74222c2022646570223a2022366134396139343839376531373435326133633236363131363036323132346331346137333566623335353737303866313533623139666364376238376538336930222c20227469636b223a2022f09f92b0f09f90b8f09f92b0222c2022626c6b223a2022313239353233227d6821c0f3c76533aefc774b0707ddcd1b4941606fa49e3564f0a84ef66fd28168e942d900000000"
}