{
  "txid": "abdcbb8bcefa0f088373ceda41a70fe1aeaa3823b969e1169e2a29269068d8dc",
  "version": 2,
  "locktime": 0,
  "vin": [
    {
      "txid": "f9a4ca1fe666995e38a11042f528b963f349935d96c650785a0007ac9eb0dbd7",
      "vout": 0,
      "prevout": {
        "scriptpubkey": "5120e16a905cd4ce4d0992732dd7e7c4fc12adf5aa0b0ea71541e0e4b62a1579818f",
        "scriptpubkey_asm": "OP_PUSHNUM_1 OP_PUSHBYTES_32 e16a905cd4ce4d0992732dd7e7c4fc12adf5aa0b0ea71541e0e4b62a1579818f",
        "scriptpubkey_type": "v1_p2tr",
        "scriptpubkey_address": "bc1pu94fqhx5eexsnynn9ht7038uz2klt2stp6n32s0qujmz59tesx8s83cdzx",
        "value": 142000
      },
      "scriptsig": "",
      "scriptsig_asm": "",
      "witness": [
        "7b6f8cb167592b467ebe84f398ee96549bb15facc0fc58fb1cccb20dd74686466382f0affaffd09352432af14090ad3b88590a8da63cb46760a3cb34216c4854",
        "203b82ce64822956b9fa7d94e0ea9a9f5f10d233b5b003616dc40667f1da093cffac0063036f7264010118746578742f706c61696e3b636861727365743d7574662d3800387b2270223a226272632d3230222c226f70223a227472616e73666572222c227469636b223a226f726e6a222c22616d74223a22313030227d68",
        "c125dced391475af84759664675c16f5ed581b243a944241d7ee258c8cfb80c9db"
      ],
      "is_coinbase": false,
      "sequence": 4294967293
    }
  ],
  "vout": [
    {
      "scriptpubkey": "512060e7b9d91ee3091b65165528563dba11a47299520ea2fc67070ec6ac303fc05d",
      "scriptpubkey_asm": "OP_PUSHNUM_1 OP_PUSHBYTES_32 60e7b9d91ee3091b65165528563dba11a47299520ea2fc67070ec6ac303fc05d",
      "scriptpubkey_type": "v1_p2tr",
      "scriptpubkey_address": "bc1pvrnmnkg7uvy3kegk2559v0d6zxj89x2jp630cec8pmr2cvplcpwsn3pn79",
      "value": 546
    },
    {
      "scriptpubkey": "512025250ac04f0eb65a525a5eab37636d666afce35542a3fe2c6bc86a1a9b829e12",
      "scriptpubkey_asm": "OP_PUSHNUM_1 OP_PUSHBYTES_32 25250ac04f0eb65a525a5eab37636d666afce35542a3fe2c6bc86a1a9b829e12",
      "scriptpubkey_type": "v1_p2tr",
      "scriptpubkey_address": "bc1py5js4sz0p6m955j6t64nwcmdve40ec64g23lutrtep4p4xuzncfqyc6lv8",
      "value": 2522
    },
    {
      "scriptpubkey": "512013f9992bc45de76ad529fd3919da4d2a74d7705c05108cfde69f7f8ca2224693",
      "scriptpubkey_asm": "OP_PUSHNUM_1 OP_PUSHBYTES_32 13f9992bc45de76ad529fd3919da4d2a74d7705c05108cfde69f7f8ca2224693",
      "scriptpubkey_type": "v1_p2tr",
      "scriptpubkey_address": "bc1pz0uej27ythnk44ffl5u3nkjd9f6dwuzuq5ggel0xnalceg3zg6fsnw48yk",
      "value": 2522
    },
    {
      "scriptpubkey": "5120984fff2851a78bb183e41be1e3158b43dc16b71c296965f8ffb4feacf994c335",
      "scriptpubkey_asm": "OP_PUSHNUM_1 OP_PUSHBYTES_32 984fff2851a78bb183e41be1e3158b43dc16b71c296965f8ffb4feacf994c335",
      "scriptpubkey_type": "v1_p2tr",
      "scriptpubkey_address": "bc1pnp8l72z3579mrqlyr0s7x9vtg0wpddcu995kt78lknl2e7v5cv6s5xxd2k",
      "value": 2522
    },
    {
      "scriptpubkey": "5120d9b13011294c16973cdb7a71a1fa93cea455531ec98afb1e67189f7c704bc68a",
      "scriptpubkey_asm": "OP_PUSHNUM_1 OP_PUSHBYTES_32 d9b13011294c16973cdb7a71a1fa93cea455531ec98afb1e67189f7c704bc68a",
      "scriptpubkey_type": "v1_p2tr",
      "scriptpubkey_address": "bc1pmxcnqyfffstfw0xm0fc6r75ne6j925c7ex90k8n8rz0hcuztc69qdqhlg4",
      "value": 2522
    },
    {
      "scriptpubkey": "5120bf75b4003e9bfec8f807a2c52745610c2df94002c447bfb04c3ebbf9ec1e1d1c",
      "scriptpubkey_asm": "OP_PUSHNUM_1 OP_PUSHBYTES_32 bf75b4003e9bfec8f807a2c52745610c2df94002c447bfb04c3ebbf9ec1e1d1c",
      "scriptpubkey_type": "v1_p2tr",
      "scriptpubkey_address": "bc1pha6mgqp7n0lv37q85tzjw3tppskljsqzc3rmlvzv86alnmq7r5wqpul34g",
      "value": 2522
    },
    {
      "scriptpubkey": "51200616d8fa33d5dbbd32e8dea94ec180ec60239dd84fb6f325e8d21d9f3b2306df",
      "scriptpubkey_asm": "OP_PUSHNUM_1 OP_PUSHBYTES_32 0616d8fa33d5dbbd32e8dea94ec180ec60239dd84fb6f325e8d21d9f3b2306df",
      "scriptpubkey_type": "v1_p2tr",
      "scriptpubkey_address": "bc1pqctd373n6hdm6vhgm655asvqa3sz88wcf7m0xf0g6gwe7werqm0sltq7fq",
      "value": 2522
    },
    {
      "scriptpubkey": "5120563b0302af336dec48305e94ba78c5f9ec54cc86a4321eb6a2085253822add75",
      "scriptpubkey_asm": "OP_PUSHNUM_1 OP_PUSHBYTES_32 563b0302af336dec48305e94ba78c5f9ec54cc86a4321eb6a2085253822add75",
      "scriptpubkey_type": "v1_p2tr",
      "scriptpubkey_address": "bc1p2casxq40xdk7cjpst62t57x9l8k9fnyx5sepad4zppf98q32m46s8f4pa2",
      "value": 2522
    },
    {
      "scriptpubkey": "51209c1e501063cc32ce5f43d599faaa5d3aede26b4eb6aa456ce1cbef431bb9fb93",
      "scriptpubkey_asm": "OP_PUSHNUM_1 OP_PUSHBYTES_32 9c1e501063cc32ce5f43d599faaa5d3aede26b4eb6aa456ce1cbef431bb9fb93",
      "scriptpubkey_type": "v1_p2tr",
      "scriptpubkey_address": "bc1pns09qyrresevuh6r6kvl42ja8tk7y66wk64y2m8pe0h5xxaelwfsylwx8c",
      "value": 2522
    },
    {
      "scriptpubkey": "5120d28da2bbb43b1376ddcf71955a605c913354cde76f861008f870071911641396",
      "scriptpubkey_asm": "OP_PUSHNUM_1 OP_PUSHBYTES_32 d28da2bbb43b1376ddcf71955a605c913354cde76f861008f870071911641396",
      "scriptpubkey_type": "v1_p2tr",
      "scriptpubkey_address": "bc1p62x69wa58vfhdhw0wx245czujye4fn08d7rpqz8cwqr3jytyzwtqtg2ar6",
      "value": 2522
    },
    {
      "scriptpubkey": "51208aa5d7945806f9ca148cf47369819e18947abebbb4bbf7986d40b2a3b462ffcc",
      "scriptpubkey_asm": "OP_PUSHNUM_1 OP_PUSHBYTES_32 8aa5d7945806f9ca148cf47369819e18947abebbb4bbf7986d40b2a3b462ffcc",
      "scriptpubkey_type": "v1_p2tr",
      "scriptpubkey_address": "bc1p32ja09zcqmuu59yv73eknqv7rz28404mkjal0xrdgze28drzllxqk57c8f",
      "value": 2522
    },
    {
      "scriptpubkey": "51209435150fd0ebd1f263daab2b3ad56723ee30da2489532e6c4e6cfdb3256da4a2",
      "scriptpubkey_asm": "OP_PUSHNUM_1 OP_PUSHBYTES_32 9435150fd0ebd1f263daab2b3ad56723ee30da2489532e6c4e6cfdb3256da4a2",
      "scriptpubkey_type": "v1_p2tr",
      "scriptpubkey_address": "bc1pjs632r7sa0glyc764v4n44t8y0hrpk3y39fjumzwdn7mxftd5j3qr473z5",
      "value": 2522
    },
    {
      "scriptpubkey": "512069c5594da7a46dc03e81007fc8f3b064154d0e6509adcea1c93f1ea521ec3117",
      "scriptpubkey_asm": "OP_PUSHNUM_1 OP_PUSHBYTES_32 69c5594da7a46dc03e81007fc8f3b064154d0e6509adcea1c93f1ea521ec3117",
      "scriptpubkey_type": "v1_p2tr",
      "scriptpubkey_address": "bc1pd8z4jnd853kuq05pqplu3uasvs256rn9pxkuagwf8u022g0vxytsv3txzp",
      "value": 2522
    },
    {
      "scriptpubkey": "512074df67e9b7cd3ad3de634a7861b7505da45c38eeb005e33622808e8bfbf79edd",
      "scriptpubkey_asm": "OP_PUSHNUM_1 OP_PUSHBYTES_32 74df67e9b7cd3ad3de634a7861b7505da45c38eeb005e33622808e8bfbf79edd",
      "scriptpubkey_type": "v1_p2tr",
      "scriptpubkey_address": "bc1pwn0k06dhe5ad8hnrffuxrd6stkj9cw8wkqz7xd3zsz8gh7lhnmwsu63gn6",
      "value": 2522
    },
    {
      "scriptpubkey": "512022a85dc3cf032eb92a21464b94864125d14c4aed6acd408681e7e7f13a209b65",
      "scriptpubkey_asm": "OP_PUSHNUM_1 OP_PUSHBYTES_32 22a85dc3cf032eb92a21464b94864125d14c4aed6acd408681e7e7f13a209b65",
      "scriptpubkey_type": "v1_p2tr",
      "scriptpubkey_address": "bc1py259ms70qvhtj23pge9efpjpyhg5cjhddtx5pp5pulnlzw3qndjs2mt2mz",
      "value": 2522
    },
    {
      "scriptpubkey": "512041bc9ad623cfb8246caaa900d87ad964fdf46c35d4fdb96c2818aafdc583720a",
      "scriptpubkey_asm": "OP_PUSHNUM_1 OP_PUSHBYTES_32 41bc9ad623cfb8246caaa900d87ad964fdf46c35d4fdb96c2818aafdc583720a",
      "scriptpubkey_type": "v1_p2tr",
      "scriptpubkey_address": "bc1pgx7f443re7uzgm924yqds7kevn7lgmp46n7mjmpgrz40m3vrwg9q55wxpk",
      "value": 2522
    },
    {
      "scriptpubkey": "5120214a32960170f6d9aa7152834e02bdbcc8269c39058ba5dc5fe7f67b293691ff",
      "scriptpubkey_asm": "OP_PUSHNUM_1 OP_PUSHBYTES_32 214a32960170f6d9aa7152834e02bdbcc8269c39058ba5dc5fe7f67b293691ff",
      "scriptpubkey_type": "v1_p2tr",
      "scriptpubkey_address": "bc1py99r99spwrmdn2n322p5uq4ahnyzd8peqk96thzlulm8k2fkj8ls3sqd9r",
      "value": 2522
    },
    {
      "scriptpubkey": "512073261000c8d8769171ee37379480e6bded9c4c0005be2efffeae0b91c9613b7a",
      "scriptpubkey_asm": "OP_PUSHNUM_1 OP_PUSHBYTES_32 73261000c8d8769171ee37379480e6bded9c4c0005be2efffeae0b91c9613b7a",
      "scriptpubkey_type": "v1_p2tr",
      "scriptpubkey_address": "bc1pwvnpqqxgmpmfzu0wxumefq8xhhkecnqqqklzall74c9erjtp8daqgky2le",
      "value": 2522
    },
    {
      "scriptpubkey": "5120e21935ae4fc022828e49fac740cc9f5d62c696fb7f67247a5028e9932e37c234",
      "scriptpubkey_asm": "OP_PUSHNUM_1 OP_PUSHBYTES_32 e21935ae4fc022828e49fac740cc9f5d62c696fb7f67247a5028e9932e37c234",
      "scriptpubkey_type": "v1_p2tr",
      "scriptpubkey_address": "bc1pugvnttj0cq3g9rjfltr5pnylt43vd9hm0anjg7js9r5ext3hcg6qzf3t6s",
      "value": 2522
    },
    {
      "scriptpubkey": "5120d7d80dc6d84060adfcd7b59de049f6b13d46e30507c84e8a7408745b419efae4",
      "scriptpubkey_asm": "OP_PUSHNUM_1 OP_PUSHBYTES_32 d7d80dc6d84060adfcd7b59de049f6b13d46e30507c84e8a7408745b419efae4",
      "scriptpubkey_type": "v1_p2tr",
      "scriptpubkey_address": "bc1p6lvqm3kcgps2mlxhkkw7qj0kky75dcc9qlyyazn5pp69ksv7ltjqu3cxs8",
      "value": 2522
    },
    {
      "scriptpubkey": "5120c50b584496d37bd291992e6743e5f8a365d9c41bb813dd25d46f8e81ba045aae",
      "scriptpubkey_asm": "OP_PUSHNUM_1 OP_PUSHBYTES_32 c50b584496d37bd291992e6743e5f8a365d9c41bb813dd25d46f8e81ba045aae",
      "scriptpubkey_type": "v1_p2tr",
      "scriptpubkey_address": "bc1pc594s3yk6daa9yve9en58e0c5djan3qmhqfa6fw5d78grwsyt2hqc7y8s4",
      "value": 2522
    },
    {
      "scriptpubkey": "5120c15bfb24c676c1317bcca10b31bbbf9dd95adbc2d2e2cbfc02afa02066067bb8",
      "scriptpubkey_asm": "OP_PUSHNUM_1 OP_PUSHBYTES_32 c15bfb24c676c1317bcca10b31bbbf9dd95adbc2d2e2cbfc02afa02066067bb8",
      "scriptpubkey_type": "v1_p2tr",
      "scriptpubkey_address": "bc1pc9dlkfxxwmqnz77v5y9nrwalnhv44k7z6t3vhlqz47szqesx0wuqsppy7a",
      "value": 2522
    },
    {
      "scriptpubkey": "5120459a20f3b17365351a21cfe04dd8104ec547baf1ff19cd2cdb054c695a34816f",
      "scriptpubkey_asm": "OP_PUSHNUM_1 OP_PUSHBYTES_32 459a20f3b17365351a21cfe04dd8104ec547baf1ff19cd2cdb054c695a34816f",
      "scriptpubkey_type": "v1_p2tr",
      "scriptpubkey_address": "bc1pgkdzpua3wdjn2x3pelsymkqsfmz50wh3luvu6txmq4xxjk35s9hsz0v78f",
      "value": 2522
    },
    {
      "scriptpubkey": "5120aa86cecd26f0f4fbeb85bd1d9bab3b3a6953c779348f67868b5878806ab22c03",
      "scriptpubkey_asm": "OP_PUSHNUM_1 OP_PUSHBYTES_32 aa86cecd26f0f4fbeb85bd1d9bab3b3a6953c779348f67868b5878806ab22c03",
      "scriptpubkey_type": "v1_p2tr",
      "scriptpubkey_address": "bc1p42rvanfx7r60h6u9h5weh2em8f5483mexj8k0p5ttpugq64j9spsy9wpm8",
      "value": 2522
    },
    {
      "scriptpubkey": "5120f1c5e1233c814a653306a871817cc69b3f0b5f3489f6c353eb9ece37b6fcb90a",
      "scriptpubkey_asm": "OP_PUSHNUM_1 OP_PUSHBYTES_32 f1c5e1233c814a653306a871817cc69b3f0b5f3489f6c353eb9ece37b6fcb90a",
      "scriptpubkey_type": "v1_p2tr",
      "scriptpubkey_address": "bc1p78z7zgeus99x2vcx4pcczlxxnvlskhe538mvx5ltnm8r0dhuhy9qhepp5q",
      "value": 2522
    },
    {
      "scriptpubkey": "51207769679bb5066ab0f4574daa17d96db4c9c051bea09f500645c7d576eab7dcc3",
      "scriptpubkey_asm": "OP_PUSHNUM_1 OP_PUSHBYTES_32 7769679bb5066ab0f4574daa17d96db4c9c051bea09f500645c7d576eab7dcc3",
      "scriptpubkey_type": "v1_p2tr",
      "scriptpubkey_address": "bc1pwa5k0xa4qe4tpazhfk4p0ktdknyuq5d75z04qpj9cl2hd64hmnps66x63c",
      "value": 2522
    },
    {
      "scriptpubkey": "5120189b12ec0518d4dec339514fecd490bbbaa1f075e87c0449b9cc3472d3e7295a",
      "scriptpubkey_asm": "OP_PUSHNUM_1 OP_PUSHBYTES_32 189b12ec0518d4dec339514fecd490bbbaa1f075e87c0449b9cc3472d3e7295a",
      "scriptpubkey_type": "v1_p2tr",
      "scriptpubkey_address": "bc1przd39mq9rr2dasee2987e4yshwa2rur4ap7qgjdees6895l899dq587rtt",
      "value": 2522
    },
    {
      "scriptpubkey": "51207449b99eb3e085b45c59f6569599f739fabf57e3f7455730b6346c21937c456d",
      "scriptpubkey_asm": "OP_PUSHNUM_1 OP_PUSHBYTES_32 7449b99eb3e085b45c59f6569599f739fabf57e3f7455730b6346c21937c456d",
      "scriptpubkey_type": "v1_p2tr",
      "scriptpubkey_address": "bc1pw3ymn84nuzzmghze7etftx0h88at74lr7az4wv9kx3kzrymug4ksp83g6m",
      "value": 2522
    },
    {
      "scriptpubkey": "5120fcfadf88ecfc0b9cce4d8a99974d050512307eedba88d08fd5affbe112ed74fc",
      "scriptpubkey_asm": "OP_PUSHNUM_1 OP_PUSHBYTES_32 fcfadf88ecfc0b9cce4d8a99974d050512307eedba88d08fd5affbe112ed74fc",
      "scriptpubkey_type": "v1_p2tr",
      "scriptpubkey_address": "bc1plnadlz8vls9eenjd32vewng9q5frqlhdh2ydpr744la7zyhdwn7qj2ltn8",
      "value": 2522
    },
    {
      "scriptpubkey": "001411577d57d11e6359a162986f2ced2a49a61e3c35",
      "scriptpubkey_asm": "OP_0 OP_PUSHBYTES_20 11577d57d11e6359a162986f2ced2a49a61e3c35",
      "scriptpubkey_type": "v0_p2wpkh",
      "scriptpubkey_address": "bc1qz9th6473re34ngtznphjemf2fxnpu0p4u2vwmm",
      "value": 52807
    }
  ],
  "size": 1558,
  "weight": 5545,
  "fee": 18031,
  "status": {
    "confirmed": true,
    "block_height": 834460,
    "block_hash": "00000000000000000000484a79b643b2524bbce82e5d8a442013fa5b8905ed98",
    "block_time": 1710307468
  },
  "hex": "02000000000101d7dbb09eac07005a7850c6965d9349f363b928f54210a1385e9966e61fcaa4f90000000000fdffffff1e220200000000000022512060e7b9d91ee3091b65165528563dba11a47299520ea2fc67070ec6ac303fc05dda0900000000000022512025250ac04f0eb65a525a5eab37636d666afce35542a3fe2c6bc86a1a9b829e12da0900000000000022512013f9992bc45de76ad529fd3919da4d2a74d7705c05108cfde69f7f8ca2224693da09000000000000225120984fff2851a78bb183e41be1e3158b43dc16b71c296965f8ffb4feacf994c335da09000000000000225120d9b13011294c16973cdb7a71a1fa93cea455531ec98afb1e67189f7c704bc68ada09000000000000225120bf75b4003e9bfec8f807a2c52745610c2df94002c447bfb04c3ebbf9ec1e1d1cda090000000000002251200616d8fa33d5dbbd32e8dea94ec180ec60239dd84fb6f325e8d21d9f3b2306dfda09000000000000225120563b0302af336dec48305e94ba78c5f9ec54cc86a4321eb6a2085253822add75da090000000000002251209c1e501063cc32ce5f43d599faaa5d3aede26b4eb6aa456ce1cbef431bb9fb93da09000000000000225120d28da2bbb43b1376ddcf71955a605c913354cde76f861008f870071911641396da090000000000002251208aa5d7945806f9ca148cf47369819e18947abebbb4bbf7986d40b2a3b462ffccda090000000000002251209435150fd0ebd1f263daab2b3ad56723ee30da2489532e6c4e6cfdb3256da4a2da0900000000000022512069c5594da7a46dc03e81007fc8f3b064154d0e6509adcea1c93f1ea521ec3117da0900000000000022512074df67e9b7cd3ad3de634a7861b7505da45c38eeb005e33622808e8bfbf79eddda0900000000000022512022a85dc3cf032eb92a21464b94864125d14c4aed6acd408681e7e7f13a209b65da0900000000000022512041bc9ad623cfb8246caaa900d87ad964fdf46c35d4fdb96c2818aafdc583720ada09000000000000225120214a32960170f6d9aa7152834e02bdbcc8269c39058ba5dc5fe7f67b293691ffda0900000000000022512073261000c8d8769171ee37379480e6bded9c4c0005be2efffeae0b91c9613b7ada09000000000000225120e21935ae4fc022828e49fac740cc9f5d62c696fb7f67247a5028e9932e37c234da09000000000000225120d7d80dc6d84060adfcd7b59de049f6b13d46e30507c84e8a7408745b419efae4da09000000000000225120c50b584496d37bd291992e6743e5f8a365d9c41bb813dd25d46f8e81ba045aaeda09000000000000225120c15bfb24c676c1317bcca10b31bbbf9dd95adbc2d2e2cbfc02afa02066067bb8da09000000000000225120459a20f3b17365351a21cfe04dd8104ec547baf1ff19cd2cdb054c695a34816fda09000000000000225120aa86cecd26f0f4fbeb85bd1d9bab3b3a6953c779348f67868b5878806ab22c03da09000000000000225120f1c5e1233c814a653306a871817cc69b3f0b5f3489f6c353eb9ece37b6fcb90ada090000000000002251207769679bb5066ab0f4574daa17d96db4c9c051bea09f500645c7d576eab7dcc3da09000000000000225120189b12ec0518d4dec339514fecd490bbbaa1f075e87c0449b9cc3472d3e7295ada090000000000002251207449b99eb3e085b45c59f6569599f739fabf57e3f7455730b6346c21937c456dda09000000000000225120fcfadf88ecfc0b9cce4d8a99974d050512307eedba88d08fd5affbe112ed74fc47ce00000000000016001411577d57d11e6359a162986f2ced2a49a61e3c3503407b6f8cb167592b467ebe84f398ee96549bb15facc0fc58fb1cccb20dd74686466382f0affaffd09352432af14090ad3b88590a8da63cb46760a3cb34216c48547e203b82ce64822956b9fa7d94e0ea9a9f5f10d233b5b003616dc40667f1da093cffac0063036f7264010118746578742f706c61696e3b636861727365743d7574662d3800387b2270223a226272632d3230222c226f70223a227472616e73666572222c227469636b223a226f726e6a222c22616d74223a22313030227d6821c125dced391475af84759664675c16f5ed581b243a944241d7ee258c8cfb80c9db00000000"
}