{
  "txid": "abe02d0f1a34494af55d5b6fa2f159deb7d69041e3cf96138c99531d7321a8be",
  "version": 2,
  "locktime": 0,
  "vin": [
    {
      "txid": "f3e28f80f08c65966a855546f3e87353a8b530f6ed74ae2dcfff5cf061b170ec",
      "vout": 36,
      "prevout": {
        "scriptpubkey": "0014501a58d89584dda62f95b5381916f23fc82aa6d1",
        "scriptpubkey_asm": "OP_0 OP_PUSHBYTES_20 501a58d89584dda62f95b5381916f23fc82aa6d1",
        "scriptpubkey_type": "v0_p2wpkh",
        "scriptpubkey_address": "bc1q2qd93ky4snw6vtu4k5upj9hj8lyz4fk3ewkaz0",
        "value": 103000
      },
      "scriptsig": "",
      "scriptsig_asm": "",
      "witness": [
        "3045022100f12a9e77bd1657e6c2dd2f932819879fadb50e39aaaf39ff9dbc850706ef0ccb022013e27a0eaa01d22b99cc5cf02b8dc069c4d040bd8c50a93e81aab05c7baf91f801",
        "0344dfd70ad713d9b8660713c275b1ee66c01fe2e698f5301d6420fca445b7fa23"
      ],
      "is_coinbase": false,
      "sequence": 4294967295
    },
    {
      "txid": "4880ff50d2b2cb3323fa47572dbd97ba25ef8356437ab6c28c0c3b4af0360bbd",
      "vout": 1,
      "prevout": {
        "scriptpubkey": "0014501a58d89584dda62f95b5381916f23fc82aa6d1",
        "scriptpubkey_asm": "OP_0 OP_PUSHBYTES_20 501a58d89584dda62f95b5381916f23fc82aa6d1",
        "scriptpubkey_type": "v0_p2wpkh",
        "scriptpubkey_address": "bc1q2qd93ky4snw6vtu4k5upj9hj8lyz4fk3ewkaz0",
        "value": 21062
      },
      "scriptsig": "",
      "scriptsig_asm": "",
      "witness": [
        "304402205ffd01d982bba74a8819037e13db9b5463e96a6333a2702fb16236800ec368ef0220033cb855989bb05d91d1cd5ed65dad1ec17b6db6a54a4a580655be88e12b887c01",
        "0344dfd70ad713d9b8660713c275b1ee66c01fe2e698f5301d6420fca445b7fa23"
      ],
      "is_coinbase": false,
      "sequence": 4294967295
    }
  ],
  "vout": [
    {
      "scriptpubkey": "a9146b81f8c56f2e382c711e2a80a2d0ff67905e85da87",
      "scriptpubkey_asm": "OP_HASH160 OP_PUSHBYTES_20 6b81f8c56f2e382c711e2a80a2d0ff67905e85da OP_EQUAL",
      "scriptpubkey_type": "p2sh",
      "scriptpubkey_address": "3BVTvfaedoBjziXSrTodUQhP7zrkzGr3E3",
      "value": 101276
    },
    {
      "scriptpubkey": "0014501a58d89584dda62f95b5381916f23fc82aa6d1",
      "scriptpubkey_asm": "OP_0 OP_PUSHBYTES_20 501a58d89584dda62f95b5381916f23fc82aa6d1",
      "scriptpubkey_type": "v0_p2wpkh",
      "scriptpubkey_address": "bc1q2qd93ky4snw6vtu4k5upj9hj8lyz4fk3ewkaz0",
      "value": 20450
    }
  ],
  "size": 372,
  "weight": 837,
  "fee": 2336,
  "status": {
    "confirmed": true,
    "block_height": 834460,
    "block_hash": "00000000000000000000484a79b643b2524bbce82e5d8a442013fa5b8905ed98",
    "block_time": 1710307468
  },
  "hex": "02000000000102ec70b161f05cffcf2dae74edf630b5a85373e8f34655856a96658cf0808fe2f32400000000ffffffffbd0b36f04a3b0c8cc2b67a435683ef25ba97bd2d5747fa2333cbb2d250ff80480100000000ffffffff029c8b01000000000017a9146b81f8c56f2e382c711e2a80a2d0ff67905e85da87e24f000000000000160014501a58d89584dda62f95b5381916f23fc82aa6d102483045022100f12a9e77bd1657e6c2dd2f932819879fadb50e39aaaf39ff9dbc850706ef0ccb022013e27a0eaa01d22b99cc5cf02b8dc069c4d040bd8c50a93e81aab05c7baf91f801210344dfd70ad713d9b8660713c275b1ee66c01fe2e698f5301d6420fca445b7fa230247304402205ffd01d982bba74a8819037e13db9b5463e96a6333a2702fb16236800ec368ef0220033cb855989bb05d91d1cd5ed65dad1ec17b6db6a54a4a580655be88e12b887c01210344dfd70ad713d9b8660713c275b1ee66c01fe2e698f5301d6420fca445b7fa2300000000"
}