{
  "txid": "abe8327090aa007a1233b80d5e43edaa675d8a753bf69bc3ebd721b6fcfa7462",
  "version": 2,
  "locktime": 0,
  "vin": [
    {
      "txid": "14e2167695fd53b97ae50c0a70e65ac4ef7ad1480621c0c13d9d798945a5d5dc",
      "vout": 11,
      "prevout": {
        "scriptpubkey": "5120b184e14b3cd75289f3037b79764018f89b2c712d51ca8022b23d53622b92cc9d",
        "scriptpubkey_asm": "OP_PUSHNUM_1 OP_PUSHBYTES_32 b184e14b3cd75289f3037b79764018f89b2c712d51ca8022b23d53622b92cc9d",
        "scriptpubkey_type": "v1_p2tr",
        "scriptpubkey_address": "bc1pkxzwzjeu6afgnucr0duhvsqclzdjcufd289gqg4j84fky2ujejwsuraj5v",
        "value": 2862
      },
      "scriptsig": "",
      "scriptsig_asm": "",
      "witness": [
        "040518519715e80d0401d9720190375801b4d8d0265f6b78562632ef53aa272d75b4162e9724c69f6bd30b4be6575af14e817bbf5ada6e630a4bdb647d2c4843",
        "20399b93981bf3b429c514d22b9091d2e99167e13546a47b4b89a4399fffc1359eac0063036f726401011e6170706c69636174696f6e2f6a736f6e3b636861727365743d7574662d38004cd37b2270223a22706f772d3230222c226f70223a226d696e74222c227469636b223a2250455045222c22616d74223a2231303030222c22736f6c7574696f6e223a22504550453a62633170673935386e6b7a747678347271756e78676d747a6c35666e70666b633330776a323770777367396e6c706a786b796e64793671737376386c6b303a303030303030303030303030303030303030303139393431613561653132383937363539383134343239323533333030353762306461393666336465613163353a3436313734363237333632227d68",
        "c1631b34e489e80d4fba35164e5ad52a60d66865df7d7db84d2adbf53ec13ca2a1"
      ],
      "is_coinbase": false,
      "sequence": 4294967295
    }
  ],
  "vout": [
    {
      "scriptpubkey": "5120416879d84b61aa30726646d62fd1330a6d88bdd25782e820b3f8646b126d2681",
      "scriptpubkey_asm": "OP_PUSHNUM_1 OP_PUSHBYTES_32 416879d84b61aa30726646d62fd1330a6d88bdd25782e820b3f8646b126d2681",
      "scriptpubkey_type": "v1_p2tr",
      "scriptpubkey_address": "bc1pg958nkztvx4rqunxgmtzl5fnpfkc30wj27pwsg9nlpjxkyndy6qssv8lk0",
      "value": 546
    }
  ],
  "size": 487,
  "weight": 769,
  "fee": 2316,
  "status": {
    "confirmed": true,
    "block_height": 834460,
    "block_hash": "00000000000000000000484a79b643b2524bbce82e5d8a442013fa5b8905ed98",
    "block_time": 1710307468
  },
  "hex": "02000000000101dcd5a54589799d3dc1c0210648d17aefc45ae6700a0ce57ab953fd957616e2140b00000000ffffffff012202000000000000225120416879d84b61aa30726646d62fd1330a6d88bdd25782e820b3f8646b126d26810340040518519715e80d0401d9720190375801b4d8d0265f6b78562632ef53aa272d75b4162e9724c69f6bd30b4be6575af14e817bbf5ada6e630a4bdb647d2c4843fd200120399b93981bf3b429c514d22b9091d2e99167e13546a47b4b89a4399fffc1359eac0063036f726401011e6170706c69636174696f6e2f6a736f6e3b636861727365743d7574662d38004cd37b2270223a22706f772d3230222c226f70223a226d696e74222c227469636b223a2250455045222c22616d74223a2231303030222c22736f6c7574696f6e223a22504550453a62633170673935386e6b7a747678347271756e78676d747a6c35666e70666b633330776a323770777367396e6c706a786b796e64793671737376386c6b303a303030303030303030303030303030303030303139393431613561653132383937363539383134343239323533333030353762306461393666336465613163353a3436313734363237333632227d6821c1631b34e489e80d4fba35164e5ad52a60d66865df7d7db84d2adbf53ec13ca2a100000000"
}