{
  "txid": "abeba025a56d2d32643656991dd4594729de26bf9800fe3d1ba265935d78bb18",
  "version": 2,
  "locktime": 0,
  "vin": [
    {
      "txid": "31d2611a9308c20636b79ccc06ec2373477094922dbaf497af3b592578ea1821",
      "vout": 0,
      "prevout": {
        "scriptpubkey": "a91429cce67866d9f5a4e56875dc10774c8a8510100b87",
        "scriptpubkey_asm": "OP_HASH160 OP_PUSHBYTES_20 29cce67866d9f5a4e56875dc10774c8a8510100b OP_EQUAL",
        "scriptpubkey_type": "p2sh",
        "scriptpubkey_address": "35W368ToKRSokH6ryLanoPJi5LEjftrMVm",
        "value": 314147
      },
      "scriptsig": "1600142c02985ddefdc34cf2b025dd7334a2a5adc4f17a",
      "scriptsig_asm": "OP_PUSHBYTES_22 00142c02985ddefdc34cf2b025dd7334a2a5adc4f17a",
      "witness": [
        "30450221008943393afbe68a219194d676cffaa29c650811cf3ad0568f741e4f3cc14cff9d02207d3e9fb3edc10bf2aa35cf7a8ec38da6081ead5e46e817b450d9218d5626ea6101",
        "02487f1403cdbd27ad8ea368ddb35bd30e49d0e5e10ba94b5c599df0bded7691fa"
      ],
      "is_coinbase": false,
      "sequence": 0,
      "inner_redeemscript_asm": "OP_0 OP_PUSHBYTES_20 2c02985ddefdc34cf2b025dd7334a2a5adc4f17a"
    },
    {
      "txid": "e58d853c9ad9d573befa8cdc3fdb69f894bd1a5a2f8e0a6e7154d424cf4a3a22",
      "vout": 3,
      "prevout": {
        "scriptpubkey": "a914543171ec960c2a1397258e65f1d5e6e158d517ba87",
        "scriptpubkey_asm": "OP_HASH160 OP_PUSHBYTES_20 543171ec960c2a1397258e65f1d5e6e158d517ba OP_EQUAL",
        "scriptpubkey_type": "p2sh",
        "scriptpubkey_address": "39NBvA5yViK6R3iHk4kh4ywYtWPe4uC6jC",
        "value": 4962789
      },
      "scriptsig": "1600143e9ab85f4d126ce01a732d9365808bf452e0d44a",
      "scriptsig_asm": "OP_PUSHBYTES_22 00143e9ab85f4d126ce01a732d9365808bf452e0d44a",
      "witness": [
        "3044022100f1f40bcfdeb811a41eb5019ea3e3d773da58c43d764ecfcd915c00bf543186fc021f6dae8a498b4c82c637c239dbec6fa09a3cd610767e9a74595745ee47cbb0a001",
        "03183737fe7a64166a6319682c6aa521ba7d959d61a655496f07681fe8e2967d8b"
      ],
      "is_coinbase": false,
      "sequence": 0,
      "inner_redeemscript_asm": "OP_0 OP_PUSHBYTES_20 3e9ab85f4d126ce01a732d9365808bf452e0d44a"
    },
    {
      "txid": "df9a841a51b7c4218c6cb8bbea0d76558f03420824a2c8ba8bc85a023ca02fff",
      "vout": 2,
      "prevout": {
        "scriptpubkey": "a914543171ec960c2a1397258e65f1d5e6e158d517ba87",
        "scriptpubkey_asm": "OP_HASH160 OP_PUSHBYTES_20 543171ec960c2a1397258e65f1d5e6e158d517ba OP_EQUAL",
        "scriptpubkey_type": "p2sh",
        "scriptpubkey_address": "39NBvA5yViK6R3iHk4kh4ywYtWPe4uC6jC",
        "value": 3189046
      },
      "scriptsig": "1600143e9ab85f4d126ce01a732d9365808bf452e0d44a",
      "scriptsig_asm": "OP_PUSHBYTES_22 00143e9ab85f4d126ce01a732d9365808bf452e0d44a",
      "witness": [
        "3045022100855ef5a3313866f5bcb104a78a6fb1ba10825c33064e2271ddac7e90fa268b2a02204c88e3dc972b555763cd9109bf0c09e64431db7361a4c06d758b4cb1b78964c401",
        "03183737fe7a64166a6319682c6aa521ba7d959d61a655496f07681fe8e2967d8b"
      ],
      "is_coinbase": false,
      "sequence": 0,
      "inner_redeemscript_asm": "OP_0 OP_PUSHBYTES_20 3e9ab85f4d126ce01a732d9365808bf452e0d44a"
    },
    {
      "txid": "7df31f0711ed4722ed1443df1ff0106375db6c0d94192187a23f756603e62fd9",
      "vout": 0,
      "prevout": {
        "scriptpubkey": "a914543171ec960c2a1397258e65f1d5e6e158d517ba87",
        "scriptpubkey_asm": "OP_HASH160 OP_PUSHBYTES_20 543171ec960c2a1397258e65f1d5e6e158d517ba OP_EQUAL",
        "scriptpubkey_type": "p2sh",
        "scriptpubkey_address": "39NBvA5yViK6R3iHk4kh4ywYtWPe4uC6jC",
        "value": 3636952
      },
      "scriptsig": "1600143e9ab85f4d126ce01a732d9365808bf452e0d44a",
      "scriptsig_asm": "OP_PUSHBYTES_22 00143e9ab85f4d126ce01a732d9365808bf452e0d44a",
      "witness": [
        "3045022100987f35e8baa1226d36c63e1f9d59775882b46b69b7a445791a9bb657ac32fd0902204a4516f7e2c9a526e1757124f713dd6b8dff62c31845448cfecfce4c4257030d01",
        "03183737fe7a64166a6319682c6aa521ba7d959d61a655496f07681fe8e2967d8b"
      ],
      "is_coinbase": false,
      "sequence": 0,
      "inner_redeemscript_asm": "OP_0 OP_PUSHBYTES_20 3e9ab85f4d126ce01a732d9365808bf452e0d44a"
    }
  ],
  "vout": [
    {
      "scriptpubkey": "00144ae0684661b18fa8ef5e1dcbb62300036c9de22f",
      "scriptpubkey_asm": "OP_0 OP_PUSHBYTES_20 4ae0684661b18fa8ef5e1dcbb62300036c9de22f",
      "scriptpubkey_type": "v0_p2wpkh",
      "scriptpubkey_address": "bc1qftsxs3npkx863m67rh9mvgcqqdkfmc30u50fza",
      "value": 12095698
    }
  ],
  "size": 730,
  "weight": 1621,
  "fee": 7236,
  "status": {
    "confirmed": true,
    "block_height": 834638,
    "block_hash": "000000000000000000025f742c626208ac87e0b7d15054abb4a19ca2d735a54e",
    "block_time": 1710405325
  },
  "hex": "020000000001042118ea7825593baf97f4ba2d929470477323ec06cc9cb73606c208931a61d23100000000171600142c02985ddefdc34cf2b025dd7334a2a5adc4f17a00000000223a4acf24d454716e0a8e2f5a1abd94f869db3fdc8cfabe73d5d99a3c858de503000000171600143e9ab85f4d126ce01a732d9365808bf452e0d44a00000000ff2fa03c025ac88bbac8a2240842038f55760deabbb86c8c21c4b7511a849adf02000000171600143e9ab85f4d126ce01a732d9365808bf452e0d44a00000000d92fe60366753fa2872119940d6cdb756310f01fdf4314ed2247ed11071ff37d00000000171600143e9ab85f4d126ce01a732d9365808bf452e0d44a0000000001d290b800000000001600144ae0684661b18fa8ef5e1dcbb62300036c9de22f024830450221008943393afbe68a219194d676cffaa29c650811cf3ad0568f741e4f3cc14cff9d02207d3e9fb3edc10bf2aa35cf7a8ec38da6081ead5e46e817b450d9218d5626ea61012102487f1403cdbd27ad8ea368ddb35bd30e49d0e5e10ba94b5c599df0bded7691fa02473044022100f1f40bcfdeb811a41eb5019ea3e3d773da58c43d764ecfcd915c00bf543186fc021f6dae8a498b4c82c637c239dbec6fa09a3cd610767e9a74595745ee47cbb0a0012103183737fe7a64166a6319682c6aa521ba7d959d61a655496f07681fe8e2967d8b02483045022100855ef5a3313866f5bcb104a78a6fb1ba10825c33064e2271ddac7e90fa268b2a02204c88e3dc972b555763cd9109bf0c09e64431db7361a4c06d758b4cb1b78964c4012103183737fe7a64166a6319682c6aa521ba7d959d61a655496f07681fe8e2967d8b02483045022100987f35e8baa1226d36c63e1f9d59775882b46b69b7a445791a9bb657ac32fd0902204a4516f7e2c9a526e1757124f713dd6b8dff62c31845448cfecfce4c4257030d012103183737fe7a64166a6319682c6aa521ba7d959d61a655496f07681fe8e2967d8b00000000"
}