{
  "txid": "abec8a200db7e423df225cc8837f3de9bd5d5a4713958de796d1dc34bcf6f5bc",
  "version": 1,
  "locktime": 0,
  "vin": [
    {
      "txid": "7feb88ab35311c860994b0b2ac32139dca6b15da21ec399313d25fcc11c06fce",
      "vout": 1,
      "prevout": {
        "scriptpubkey": "00205f1f75ddbc441f416086c007c39993a890d802497b710d33c18261ffc5134a91",
        "scriptpubkey_asm": "OP_0 OP_PUSHBYTES_32 5f1f75ddbc441f416086c007c39993a890d802497b710d33c18261ffc5134a91",
        "scriptpubkey_type": "v0_p2wsh",
        "scriptpubkey_address": "bc1qtu0hthdugs05zcyxcqru8xvn4zgdsqjf0dcs6v7psfsll3gnf2gsu6c503",
        "value": 100943414
      },
      "scriptsig": "",
      "scriptsig_asm": "",
      "witness": [
        "",
        "30440220757e40d87b716ce543592bc1fc3c612fa3e536ad620d2dd520aea4d091d6d5b30220042e796ed5e1c1c6061daeb1312ebc76f3f47b47a0d0f5294879204ecd6ec52a01",
        "304402206889d1f7a7e2ec9143b3d69160df261c0e1e7c46c719c317e443fd00d3d21b150220637cefd36c3f8d32c141d7522af14995ec6a4d5caf31ecbb0626f0526d2bd59d01",
        "5221030d4934a7152a35f43a2e93b5ec24007bd7524adc3cce03f6503a99c13758958221037e7e9284f6f78074d93ca8953bd292f1a5ff6566a8f7497c88b9c2b311e5dae621021292b1aaac2926d26dca11df410a129c5c90f104a24ac5c90dbcd59c170200c853ae"
      ],
      "is_coinbase": false,
      "sequence": 4294967293,
      "inner_witnessscript_asm": "OP_PUSHNUM_2 OP_PUSHBYTES_33 030d4934a7152a35f43a2e93b5ec24007bd7524adc3cce03f6503a99c137589582 OP_PUSHBYTES_33 037e7e9284f6f78074d93ca8953bd292f1a5ff6566a8f7497c88b9c2b311e5dae6 OP_PUSHBYTES_33 021292b1aaac2926d26dca11df410a129c5c90f104a24ac5c90dbcd59c170200c8 OP_PUSHNUM_3 OP_CHECKMULTISIG"
    }
  ],
  "vout": [
    {
      "scriptpubkey": "a9141225786f70657092587cbd6c3aa9e66bdf7936e987",
      "scriptpubkey_asm": "OP_HASH160 OP_PUSHBYTES_20 1225786f70657092587cbd6c3aa9e66bdf7936e9 OP_EQUAL",
      "scriptpubkey_type": "p2sh",
      "scriptpubkey_address": "33LxyVL46HDpXcRu4Dkq3ppHua6aV91iD5",
      "value": 67261
    },
    {
      "scriptpubkey": "00200ec9f916fcc2f77f6363bf97b227e817f89991ba4148cbb47cb168a0fbfdd82d",
      "scriptpubkey_asm": "OP_0 OP_PUSHBYTES_32 0ec9f916fcc2f77f6363bf97b227e817f89991ba4148cbb47cb168a0fbfdd82d",
      "scriptpubkey_type": "v0_p2wsh",
      "scriptpubkey_address": "bc1qpmylj9huctmh7cmrh7tmyflgzlufnyd6g9yvhdruk952p7lamqksknmnrr",
      "value": 100872333
    }
  ],
  "size": 380,
  "weight": 758,
  "fee": 3820,
  "status": {
    "confirmed": true,
    "block_height": 834638,
    "block_hash": "000000000000000000025f742c626208ac87e0b7d15054abb4a19ca2d735a54e",
    "block_time": 1710405325
  },
  "hex": "01000000000101ce6fc011cc5fd2139339ec21da156bca9d1332acb2b09409861c3135ab88eb7f0100000000fdffffff02bd0601000000000017a9141225786f70657092587cbd6c3aa9e66bdf7936e9878d300306000000002200200ec9f916fcc2f77f6363bf97b227e817f89991ba4148cbb47cb168a0fbfdd82d04004730440220757e40d87b716ce543592bc1fc3c612fa3e536ad620d2dd520aea4d091d6d5b30220042e796ed5e1c1c6061daeb1312ebc76f3f47b47a0d0f5294879204ecd6ec52a0147304402206889d1f7a7e2ec9143b3d69160df261c0e1e7c46c719c317e443fd00d3d21b150220637cefd36c3f8d32c141d7522af14995ec6a4d5caf31ecbb0626f0526d2bd59d01695221030d4934a7152a35f43a2e93b5ec24007bd7524adc3cce03f6503a99c13758958221037e7e9284f6f78074d93ca8953bd292f1a5ff6566a8f7497c88b9c2b311e5dae621021292b1aaac2926d26dca11df410a129c5c90f104a24ac5c90dbcd59c170200c853ae00000000"
}