{
  "txid": "abed444fca39349fff2f2b9118ac464a92c2741fe7453ae3e2fc0899fbdb48fd",
  "version": 2,
  "locktime": 0,
  "vin": [
    {
      "txid": "dcbae47b8e27677d8434ce6c64b1d8eae9e885a90b468839f783bb58f503f476",
      "vout": 2,
      "prevout": {
        "scriptpubkey": "76a91478283a9070c5dd41f68e76594e92e2c16b6f2f4588ac",
        "scriptpubkey_asm": "OP_DUP OP_HASH160 OP_PUSHBYTES_20 78283a9070c5dd41f68e76594e92e2c16b6f2f45 OP_EQUALVERIFY OP_CHECKSIG",
        "scriptpubkey_type": "p2pkh",
        "scriptpubkey_address": "1BxLHAUWAhN2LHWgvB9nJZRi93jjK2w2rx",
        "value": 39106
      },
      "scriptsig": "47304402201908b3efdaf0df6303a2741686d1bd725cbe8e639c2d6d9a6dcc832e8f7576460220121f3f25476a0081b45a8f92938bde0b2873ba6c0b1289050745d7240a3078e6012102e40694a433d33f44f224a3d71bf6d2963f0376a3a3aa543cf963dbcfddda3d15",
      "scriptsig_asm": "OP_PUSHBYTES_71 304402201908b3efdaf0df6303a2741686d1bd725cbe8e639c2d6d9a6dcc832e8f7576460220121f3f25476a0081b45a8f92938bde0b2873ba6c0b1289050745d7240a3078e601 OP_PUSHBYTES_33 02e40694a433d33f44f224a3d71bf6d2963f0376a3a3aa543cf963dbcfddda3d15",
      "is_coinbase": false,
      "sequence": 4294967295
    }
  ],
  "vout": [
    {
      "scriptpubkey": "6a229d06831e763ccfd35ad75dd0c485c1c0e5f6b4033dc0370083b7c56a5a0716098656",
      "scriptpubkey_asm": "OP_RETURN OP_PUSHBYTES_34 9d06831e763ccfd35ad75dd0c485c1c0e5f6b4033dc0370083b7c56a5a0716098656",
      "scriptpubkey_type": "op_return",
      "value": 0
    },
    {
      "scriptpubkey": "002000cb89504e470d0a1a0a0000000d494844520000002000000020040300000081",
      "scriptpubkey_asm": "OP_0 OP_PUSHBYTES_32 00cb89504e470d0a1a0a0000000d494844520000002000000020040300000081",
      "scriptpubkey_type": "v0_p2wsh",
      "scriptpubkey_address": "bc1qqr9cj5zwguxs5xs2qqqqqr2ffpz9yqqqqqsqqqqqyqzqxqqqqzqsxgcx3n",
      "value": 330
    },
    {
      "scriptpubkey": "00205467c700000015504c54450000000a0620414246aea110ead21cf6efdafcf6ae",
      "scriptpubkey_asm": "OP_0 OP_PUSHBYTES_32 5467c700000015504c54450000000a0620414246aea110ead21cf6efdafcf6ae",
      "scriptpubkey_type": "v0_p2wsh",
      "scriptpubkey_address": "bc1q23nuwqqqqq24qnz5g5qqqqq2qcsyzsjx46s3p6kjrnmwlkhu76hqc4z48q",
      "value": 330
    },
    {
      "scriptpubkey": "00205c046abe0000000174524e530040e6d866000000644944415478daed4f350105",
      "scriptpubkey_asm": "OP_0 OP_PUSHBYTES_32 5c046abe0000000174524e530040e6d866000000644944415478daed4f350105",
      "scriptpubkey_type": "v0_p2wsh",
      "scriptpubkey_address": "bc1qtszx40sqqqqqzazjfefsqs8xmpnqqqqqv3y5gs250rdw6ne4qyzst9um4n",
      "value": 330
    },
    {
      "scriptpubkey": "0020310c4d1c940c7c0d85bd24a0e4a0fe357c3a4ab7db2f5b9287f0cc3ec8d87ac1",
      "scriptpubkey_asm": "OP_0 OP_PUSHBYTES_32 310c4d1c940c7c0d85bd24a0e4a0fe357c3a4ab7db2f5b9287f0cc3ec8d87ac1",
      "scriptpubkey_type": "v0_p2wsh",
      "scriptpubkey_address": "bc1qxyxy68y5p37qmpdayjswfg87x47r5j4hmvh4hy587rxrajxc0tqs7dmccc",
      "value": 330
    },
    {
      "scriptpubkey": "00209b0706c8e8ce39a378412ec8f84b467f45089e46be403e009b533977e0daf6cb",
      "scriptpubkey_asm": "OP_0 OP_PUSHBYTES_32 9b0706c8e8ce39a378412ec8f84b467f45089e46be403e009b533977e0daf6cb",
      "scriptpubkey_type": "v0_p2wsh",
      "scriptpubkey_address": "bc1qnvrsdj8gecu6x7zp9my0sj6x0azs38jxheqruqym2vuh0cx67m9syk4u43",
      "value": 330
    },
    {
      "scriptpubkey": "00200140ead93339b8d1cbd5c6a54282604ab42ccebeb457bf106f446d0b235b40c3",
      "scriptpubkey_asm": "OP_0 OP_PUSHBYTES_32 0140ead93339b8d1cbd5c6a54282604ab42ccebeb457bf106f446d0b235b40c3",
      "scriptpubkey_type": "v0_p2wsh",
      "scriptpubkey_address": "bc1qq9qw4kfn8xudrj74c6j59qnqf26zen47k3tm7yr0g3kskg6mgrpsevt60u",
      "value": 330
    },
    {
      "scriptpubkey": "0020b90000000049454e44ae42608200000000000000000000000000000000000000",
      "scriptpubkey_asm": "OP_0 OP_PUSHBYTES_32 b90000000049454e44ae42608200000000000000000000000000000000000000",
      "scriptpubkey_type": "v0_p2wsh",
      "scriptpubkey_address": "bc1qhyqqqqqqf9z5u39wgfsgyqqqqqqqqqqqqqqqqqqqqqqqqqqqqqqq2pk54n",
      "value": 330
    },
    {
      "scriptpubkey": "0014419854753506f2b3e771860f36eb919d89cc890f",
      "scriptpubkey_asm": "OP_0 OP_PUSHBYTES_20 419854753506f2b3e771860f36eb919d89cc890f",
      "scriptpubkey_type": "v0_p2wpkh",
      "scriptpubkey_address": "bc1qgxv9gaf4qmet8em3sc8nd6u3nkyuezg0cg9p36",
      "value": 13330
    },
    {
      "scriptpubkey": "76a91478283a9070c5dd41f68e76594e92e2c16b6f2f4588ac",
      "scriptpubkey_asm": "OP_DUP OP_HASH160 OP_PUSHBYTES_20 78283a9070c5dd41f68e76594e92e2c16b6f2f45 OP_EQUALVERIFY OP_CHECKSIG",
      "scriptpubkey_type": "p2pkh",
      "scriptpubkey_address": "1BxLHAUWAhN2LHWgvB9nJZRi93jjK2w2rx",
      "value": 16650
    }
  ],
  "size": 568,
  "weight": 2272,
  "fee": 6816,
  "status": {
    "confirmed": true,
    "block_height": 834460,
    "block_hash": "00000000000000000000484a79b643b2524bbce82e5d8a442013fa5b8905ed98",
    "block_time": 1710307468
  },
  "hex": "020000000176f403f558bb83f73988460ba985e8e9ead8b1646cce34847d67278e7be4badc020000006a47304402201908b3efdaf0df6303a2741686d1bd725cbe8e639c2d6d9a6dcc832e8f7576460220121f3f25476a0081b45a8f92938bde0b2873ba6c0b1289050745d7240a3078e6012102e40694a433d33f44f224a3d71bf6d2963f0376a3a3aa543cf963dbcfddda3d15ffffffff0a0000000000000000246a229d06831e763ccfd35ad75dd0c485c1c0e5f6b4033dc0370083b7c56a5a07160986564a0100000000000022002000cb89504e470d0a1a0a0000000d4948445200000020000000200403000000814a010000000000002200205467c700000015504c54450000000a0620414246aea110ead21cf6efdafcf6ae4a010000000000002200205c046abe0000000174524e530040e6d866000000644944415478daed4f3501054a01000000000000220020310c4d1c940c7c0d85bd24a0e4a0fe357c3a4ab7db2f5b9287f0cc3ec8d87ac14a010000000000002200209b0706c8e8ce39a378412ec8f84b467f45089e46be403e009b533977e0daf6cb4a010000000000002200200140ead93339b8d1cbd5c6a54282604ab42ccebeb457bf106f446d0b235b40c34a01000000000000220020b90000000049454e44ae426082000000000000000000000000000000000000001234000000000000160014419854753506f2b3e771860f36eb919d89cc890f0a410000000000001976a91478283a9070c5dd41f68e76594e92e2c16b6f2f4588ac00000000"
}