{
  "txid": "ac01477e202086e27a661ede0fee7b0b4f2759a83ea8cd9c9ced3b2bfa05de1c",
  "version": 2,
  "locktime": 834637,
  "vin": [
    {
      "txid": "76b8e4bbde4674f34a0811d45e2b4b237d0f69fb0800bc7eeb50d71db5da50e2",
      "vout": 1,
      "prevout": {
        "scriptpubkey": "0014955d1c36d0aed7939abe3079fbfad666029b5801",
        "scriptpubkey_asm": "OP_0 OP_PUSHBYTES_20 955d1c36d0aed7939abe3079fbfad666029b5801",
        "scriptpubkey_type": "v0_p2wpkh",
        "scriptpubkey_address": "bc1qj4w3cdks4mte8x47xpulh7kkvcpfkkqprc3gp5",
        "value": 22631505
      },
      "scriptsig": "",
      "scriptsig_asm": "",
      "witness": [
        "3044022011c3f0e24e38e22a81963d8c636327080b437f9884c93faf6bd888ca8bdc0d140220408211eff117ca7f63606e82dff315ac36de186559d89a5883112baaf4d24dc801",
        "02a8c1f3db84077a784285b6277f1d778e4691686808f70a20db0991dc14a92689"
      ],
      "is_coinbase": false,
      "sequence": 4294967293
    }
  ],
  "vout": [
    {
      "scriptpubkey": "0014ea94e557e454a13485c25d7843163196a41d3b7b",
      "scriptpubkey_asm": "OP_0 OP_PUSHBYTES_20 ea94e557e454a13485c25d7843163196a41d3b7b",
      "scriptpubkey_type": "v0_p2wpkh",
      "scriptpubkey_address": "bc1qa22w24ly2jsnfpwzt4uyx933j6jp6wmmyrxfps",
      "value": 13625
    },
    {
      "scriptpubkey": "001449eb85324b954311e6c976842bf46e914548133e",
      "scriptpubkey_asm": "OP_0 OP_PUSHBYTES_20 49eb85324b954311e6c976842bf46e914548133e",
      "scriptpubkey_type": "v0_p2wpkh",
      "scriptpubkey_address": "bc1qf84c2vjtj4p3rekfw6zzharwj9z5sye77hhxfd",
      "value": 22615638
    }
  ],
  "size": 222,
  "weight": 561,
  "fee": 2242,
  "status": {
    "confirmed": true,
    "block_height": 834638,
    "block_hash": "000000000000000000025f742c626208ac87e0b7d15054abb4a19ca2d735a54e",
    "block_time": 1710405325
  },
  "hex": "02000000000101e250dab51dd750eb7ebc0008fb690f7d234b2b5ed411084af37446debbe4b8760100000000fdffffff023935000000000000160014ea94e557e454a13485c25d7843163196a41d3b7b561659010000000016001449eb85324b954311e6c976842bf46e914548133e02473044022011c3f0e24e38e22a81963d8c636327080b437f9884c93faf6bd888ca8bdc0d140220408211eff117ca7f63606e82dff315ac36de186559d89a5883112baaf4d24dc8012102a8c1f3db84077a784285b6277f1d778e4691686808f70a20db0991dc14a926894dbc0c00"
}