{
  "txid": "ac0b2b65014f3cb7184733f4a4c89d4e8753cd44ed511939e2834049a511e795",
  "version": 2,
  "locktime": 0,
  "vin": [
    {
      "txid": "d1f2e56bb0b5c87466a28cf0fb59f1bc198978e6338eafb988f343191f77d743",
      "vout": 3,
      "prevout": {
        "scriptpubkey": "5120f812d06ab1b297ca764639badfc01bb8df1c907de767a4ca6bf8c25c4743807d",
        "scriptpubkey_asm": "OP_PUSHNUM_1 OP_PUSHBYTES_32 f812d06ab1b297ca764639badfc01bb8df1c907de767a4ca6bf8c25c4743807d",
        "scriptpubkey_type": "v1_p2tr",
        "scriptpubkey_address": "bc1plqfdq643k2tu5ajx8xadlsqmhr03eyrauan6fjntlrp9c36rsp7s25dvpx",
        "value": 3093
      },
      "scriptsig": "",
      "scriptsig_asm": "",
      "witness": [
        "f1a85128d7027becf89fb02014c900b10cff49adab33f77da5f61266c2e4810344c74361950033e7330314e3b8a06be51129fc6254e58180b10c4091758145f7",
        "208057c0d51199858280f1f556eddbe243577e88a28777bdb38a683689c16c4c9cac0063036f726401010a746578742f706c61696e004c8f7b2270223a2022746170222c20226f70223a2022646d742d6d696e74222c2022646570223a2022333962373532343338626533613435326464623731376230613635346233313662316164343661383139656234343831383933626337313331663738396539616930222c20227469636b223a20226e61746f776c73222c2022626c6b223a2022373036323633227d68",
        "c18057c0d51199858280f1f556eddbe243577e88a28777bdb38a683689c16c4c9c"
      ],
      "is_coinbase": false,
      "sequence": 4294967293
    }
  ],
  "vout": [
    {
      "scriptpubkey": "51202c5c7b584418f7df16e266886880e520a408eb99881dc4d7bb8770bb5b3cbbc9",
      "scriptpubkey_asm": "OP_PUSHNUM_1 OP_PUSHBYTES_32 2c5c7b584418f7df16e266886880e520a408eb99881dc4d7bb8770bb5b3cbbc9",
      "scriptpubkey_type": "v1_p2tr",
      "scriptpubkey_address": "bc1p93w8kkzyrrma79hzv6yx3q89yzjq36ue3qwuf4amsactkkeuh0ysjzsu97",
      "value": 546
    }
  ],
  "size": 397,
  "weight": 679,
  "fee": 2547,
  "status": {
    "confirmed": true,
    "block_height": 834464,
    "block_hash": "0000000000000000000177a0869a911a2b65c9bdcd5a8bcb02b68f305bee848e",
    "block_time": 1710308296
  },
  "hex": "0200000000010143d7771f1943f388b9af8e33e6788919bcf159fbf08ca26674c8b5b06be5f2d10300000000fdffffff0122020000000000002251202c5c7b584418f7df16e266886880e520a408eb99881dc4d7bb8770bb5b3cbbc90340f1a85128d7027becf89fb02014c900b10cff49adab33f77da5f61266c2e4810344c74361950033e7330314e3b8a06be51129fc6254e58180b10c4091758145f7c8208057c0d51199858280f1f556eddbe243577e88a28777bdb38a683689c16c4c9cac0063036f726401010a746578742f706c61696e004c8f7b2270223a2022746170222c20226f70223a2022646d742d6d696e74222c2022646570223a2022333962373532343338626533613435326464623731376230613635346233313662316164343661383139656234343831383933626337313331663738396539616930222c20227469636b223a20226e61746f776c73222c2022626c6b223a2022373036323633227d6821c18057c0d51199858280f1f556eddbe243577e88a28777bdb38a683689c16c4c9c00000000"
}