{
  "txid": "ac1a4a40be1a14543d2579c2eb0cde8c447a41c7f42c63743d7847a8fd6a5361",
  "version": 2,
  "locktime": 0,
  "vin": [
    {
      "txid": "0a84015ac83f792aa3cf1debf02c8ff36baa5d2d164be3bec3aff37d3c8042e7",
      "vout": 0,
      "prevout": {
        "scriptpubkey": "0014fe4df35ea21d48dd8efc28f40409cf1860604843",
        "scriptpubkey_asm": "OP_0 OP_PUSHBYTES_20 fe4df35ea21d48dd8efc28f40409cf1860604843",
        "scriptpubkey_type": "v0_p2wpkh",
        "scriptpubkey_address": "bc1qlexlxh4zr4ydmrhu9r6qgzw0rpsxqjzr437j23",
        "value": 1324161
      },
      "scriptsig": "",
      "scriptsig_asm": "",
      "witness": [
        "3044022001582c047087f01e1952c3d72844dcdf0642cc3651feec14816f6dd65bf84d7d022068d1d7fdabc234e48a5c9d7a1c7f2e4ef32b75e4621413aa6b8be1759c35dc7c01",
        "03f9255755ac2b1c299a5a3bef14107416e56bfc1e28d3dbdf0f4abacd8db580cd"
      ],
      "is_coinbase": false,
      "sequence": 4294967293
    }
  ],
  "vout": [
    {
      "scriptpubkey": "0014b0daada1e37da360c23396b8c496eb04486f4128",
      "scriptpubkey_asm": "OP_0 OP_PUSHBYTES_20 b0daada1e37da360c23396b8c496eb04486f4128",
      "scriptpubkey_type": "v0_p2wpkh",
      "scriptpubkey_address": "bc1qkrd2mg0r0k3kps3nj6uvf9htq3yx7sfgun70a4",
      "value": 1159431
    },
    {
      "scriptpubkey": "76a914caeb13448a8a75079207f5b690ef8455545ccf5188ac",
      "scriptpubkey_asm": "OP_DUP OP_HASH160 OP_PUSHBYTES_20 caeb13448a8a75079207f5b690ef8455545ccf51 OP_EQUALVERIFY OP_CHECKSIG",
      "scriptpubkey_type": "p2pkh",
      "scriptpubkey_address": "1KVw74oFLQxqMoM4MwHL4cztdZZJU664Ei",
      "value": 159730
    }
  ],
  "size": 225,
  "weight": 573,
  "fee": 5000,
  "status": {
    "confirmed": true,
    "block_height": 834638,
    "block_hash": "000000000000000000025f742c626208ac87e0b7d15054abb4a19ca2d735a54e",
    "block_time": 1710405325
  },
  "hex": "02000000000101e742803c7df3afc3bee34b162d5daa6bf38f2cf0eb1dcfa32a793fc85a01840a0000000000fdffffff0207b1110000000000160014b0daada1e37da360c23396b8c496eb04486f4128f26f0200000000001976a914caeb13448a8a75079207f5b690ef8455545ccf5188ac02473044022001582c047087f01e1952c3d72844dcdf0642cc3651feec14816f6dd65bf84d7d022068d1d7fdabc234e48a5c9d7a1c7f2e4ef32b75e4621413aa6b8be1759c35dc7c012103f9255755ac2b1c299a5a3bef14107416e56bfc1e28d3dbdf0f4abacd8db580cd00000000"
}