{
  "txid": "ac2507c9cc2b5f3201f09b1f757fce7fea029311b620ba116adb7f7527b2dbb3",
  "version": 2,
  "locktime": 0,
  "vin": [
    {
      "txid": "cff18b4559633437c6b86c4dda97cfb257bbb38034c432a508417c66c18b6b72",
      "vout": 29,
      "prevout": {
        "scriptpubkey": "5120901bdd61c46b292ed01fe8eae4d59b08cefe044d35c5a3444bf5cb4997af3fac",
        "scriptpubkey_asm": "OP_PUSHNUM_1 OP_PUSHBYTES_32 901bdd61c46b292ed01fe8eae4d59b08cefe044d35c5a3444bf5cb4997af3fac",
        "scriptpubkey_type": "v1_p2tr",
        "scriptpubkey_address": "bc1pjqda6cwydv5ja5qlar4wf4vmpr80upzdxhz6x3zt7h95n9a087kq9st9p9",
        "value": 3618
      },
      "scriptsig": "",
      "scriptsig_asm": "",
      "witness": [
        "1eaf4389e88985e0945fd162c4fcb1ce033622fb5525aaad5ecf8958fb486faeda79022fc24118d72ab48a3a2e8014a4c72a69a8db002d918e38dddd3f8ba318",
        "20f4290057d0424e87a9f19940e08f413df3b76c510c47e90b0a25409a6172fa92ac0063036f726401011e6170706c69636174696f6e2f6a736f6e3b636861727365743d7574662d38004cd17b2270223a22706f772d3230222c226f70223a226d696e74222c227469636b223a2250455045222c22616d74223a2231303030222c22736f6c7574696f6e223a22504550453a6263317077687170676e37766634707478386574387339353863796b6a6338306130393377387733716d6d6737726c39717177616c6a37733339766c36733a303030303030303030303030303030303030303139393431613561653132383937363539383134343239323533333030353762306461393666336465613163353a323330363037343139227d68",
        "c0260555bf4608a4bfce181158d7f81c023e0988279add2c55cd9091c8ce8f4140"
      ],
      "is_coinbase": false,
      "sequence": 4294967295
    }
  ],
  "vout": [
    {
      "scriptpubkey": "512075c0144fcc4d42b31f2b3c0b43e096960efebcb171dd106f68f0fe5001ddfcbd",
      "scriptpubkey_asm": "OP_PUSHNUM_1 OP_PUSHBYTES_32 75c0144fcc4d42b31f2b3c0b43e096960efebcb171dd106f68f0fe5001ddfcbd",
      "scriptpubkey_type": "v1_p2tr",
      "scriptpubkey_address": "bc1pwhqpgn7vf4ptx8et8s958cykjc80a093w8w3qmmg7rl9qqwalj7s39vl6s",
      "value": 546
    }
  ],
  "size": 485,
  "weight": 767,
  "fee": 3072,
  "status": {
    "confirmed": true,
    "block_height": 834460,
    "block_hash": "00000000000000000000484a79b643b2524bbce82e5d8a442013fa5b8905ed98",
    "block_time": 1710307468
  },
  "hex": "02000000000101726b8bc1667c4108a532c43480b3bb57b2cf97da4d6cb8c637346359458bf1cf1d00000000ffffffff01220200000000000022512075c0144fcc4d42b31f2b3c0b43e096960efebcb171dd106f68f0fe5001ddfcbd03401eaf4389e88985e0945fd162c4fcb1ce033622fb5525aaad5ecf8958fb486faeda79022fc24118d72ab48a3a2e8014a4c72a69a8db002d918e38dddd3f8ba318fd1e0120f4290057d0424e87a9f19940e08f413df3b76c510c47e90b0a25409a6172fa92ac0063036f726401011e6170706c69636174696f6e2f6a736f6e3b636861727365743d7574662d38004cd17b2270223a22706f772d3230222c226f70223a226d696e74222c227469636b223a2250455045222c22616d74223a2231303030222c22736f6c7574696f6e223a22504550453a6263317077687170676e37766634707478386574387339353863796b6a6338306130393377387733716d6d6737726c39717177616c6a37733339766c36733a303030303030303030303030303030303030303139393431613561653132383937363539383134343239323533333030353762306461393666336465613163353a323330363037343139227d6821c0260555bf4608a4bfce181158d7f81c023e0988279add2c55cd9091c8ce8f414000000000"
}