{
  "txid": "ac2ddde6ed8962c249e4355335ce8ec1481c1447813f2e18ccebe52ea774be09",
  "version": 2,
  "locktime": 0,
  "vin": [
    {
      "txid": "4829c36eea5f7dd0f8fcf2edf6f590e98831c14c3a2f373b8e293cd701348304",
      "vout": 20,
      "prevout": {
        "scriptpubkey": "5120a7581e287e1aded5da2174832b844967fc2e975bb158a4d09238c68f1dcef55f",
        "scriptpubkey_asm": "OP_PUSHNUM_1 OP_PUSHBYTES_32 a7581e287e1aded5da2174832b844967fc2e975bb158a4d09238c68f1dcef55f",
        "scriptpubkey_type": "v1_p2tr",
        "scriptpubkey_address": "bc1p5avpu2r7rt0dtk3pwjpjhpzfvl7za96mk9v2f5yj8rrg78ww740s6437ly",
        "value": 2461
      },
      "scriptsig": "",
      "scriptsig_asm": "",
      "witness": [
        "587dfb744cf193a390888e3525e2ab8c0c9f876d68145ec7af3dd76990a5c537fa07c42b63ccceabf5023dc5543dbb9b78f626ca2435287bc4d25a4e2b3051d0",
        "20e0b26c560fcb2defd29e586155317b788c1d9ed3daf30010f92c210a5e153de0ac0063036f726401010a746578742f706c61696e00367b2270223a226272632d3230222c227469636b223a2261616161222c226f70223a226d696e74222c22616d74223a223130303030227d68",
        "c0e0b26c560fcb2defd29e586155317b788c1d9ed3daf30010f92c210a5e153de0"
      ],
      "is_coinbase": false,
      "sequence": 4294967293
    }
  ],
  "vout": [
    {
      "scriptpubkey": "51206d684e8c994a9fc00a8d62628c6ba538906f08cd77f83338f3db7c4cfee5dd35",
      "scriptpubkey_asm": "OP_PUSHNUM_1 OP_PUSHBYTES_32 6d684e8c994a9fc00a8d62628c6ba538906f08cd77f83338f3db7c4cfee5dd35",
      "scriptpubkey_type": "v1_p2tr",
      "scriptpubkey_address": "bc1pd45yaryef20uqz5dvf3gc6a98zgx7zxdwlurxw8nmd7yelh9m56sslufrl",
      "value": 546
    }
  ],
  "size": 307,
  "weight": 589,
  "fee": 1915,
  "status": {
    "confirmed": true,
    "block_height": 834464,
    "block_hash": "0000000000000000000177a0869a911a2b65c9bdcd5a8bcb02b68f305bee848e",
    "block_time": 1710308296
  },
  "hex": "0200000000010104833401d73c298e3b372f3a4cc13188e990f5f6edf2fcf8d07d5fea6ec329481400000000fdffffff0122020000000000002251206d684e8c994a9fc00a8d62628c6ba538906f08cd77f83338f3db7c4cfee5dd350340587dfb744cf193a390888e3525e2ab8c0c9f876d68145ec7af3dd76990a5c537fa07c42b63ccceabf5023dc5543dbb9b78f626ca2435287bc4d25a4e2b3051d06e20e0b26c560fcb2defd29e586155317b788c1d9ed3daf30010f92c210a5e153de0ac0063036f726401010a746578742f706c61696e00367b2270223a226272632d3230222c227469636b223a2261616161222c226f70223a226d696e74222c22616d74223a223130303030227d6821c0e0b26c560fcb2defd29e586155317b788c1d9ed3daf30010f92c210a5e153de000000000"
}