{
  "txid": "ac564c8d297fc6035f032e8a4a58b0e7ba5fca3c91e70765703e6708b33d582e",
  "version": 2,
  "locktime": 0,
  "vin": [
    {
      "txid": "d84353ce1890a62b0cb432e6211ba9766ccc3278c3367498d6365f20bb53c9d3",
      "vout": 6,
      "prevout": {
        "scriptpubkey": "0014152b417815ede24352cb5519a3623bb7a4a825cc",
        "scriptpubkey_asm": "OP_0 OP_PUSHBYTES_20 152b417815ede24352cb5519a3623bb7a4a825cc",
        "scriptpubkey_type": "v0_p2wpkh",
        "scriptpubkey_address": "bc1qz545z7q4ah3yx5kt25v6xc3mk7j2sfwvux90xe",
        "value": 850472
      },
      "scriptsig": "",
      "scriptsig_asm": "",
      "witness": [
        "3045022100e0cc37509b75d0b3d94a41017403d3556eb1f910ab91e5765b23f171229a91c302200b3fed9da909c5dda7d066b5c31618b32628681039c975f509d570da2297ba8a01",
        "03f1b565e72735c15a42ad8a8f1e7a6369d124ecb96c3fa67b9668d44beedc360a"
      ],
      "is_coinbase": false,
      "sequence": 4294967295
    }
  ],
  "vout": [
    {
      "scriptpubkey": "00147b2c697d230dc7359b6ad60fd551044d95479d79",
      "scriptpubkey_asm": "OP_0 OP_PUSHBYTES_20 7b2c697d230dc7359b6ad60fd551044d95479d79",
      "scriptpubkey_type": "v0_p2wpkh",
      "scriptpubkey_address": "bc1q0vkxjlfrphrntxm26c8a25gyfk2508texvh99m",
      "value": 848723
    }
  ],
  "size": 192,
  "weight": 438,
  "fee": 1749,
  "status": {
    "confirmed": true,
    "block_height": 834638,
    "block_hash": "000000000000000000025f742c626208ac87e0b7d15054abb4a19ca2d735a54e",
    "block_time": 1710405325
  },
  "hex": "02000000000101d3c953bb205f36d6987436c37832cc6c76a91b21e632b40c2ba69018ce5343d80600000000ffffffff0153f30c00000000001600147b2c697d230dc7359b6ad60fd551044d95479d7902483045022100e0cc37509b75d0b3d94a41017403d3556eb1f910ab91e5765b23f171229a91c302200b3fed9da909c5dda7d066b5c31618b32628681039c975f509d570da2297ba8a012103f1b565e72735c15a42ad8a8f1e7a6369d124ecb96c3fa67b9668d44beedc360a00000000"
}