{
  "txid": "ac8c10dd4462585c7a4dd9fa94841349a0c3ab8e473df5a4c2d42dcb0c1d86f1",
  "version": 2,
  "locktime": 0,
  "vin": [
    {
      "txid": "db682a4f7b800d4991ccd1ae5a69a1e80996efbb4422cd8ed5e106bc85c1e727",
      "vout": 7,
      "prevout": {
        "scriptpubkey": "001439263972bdec7ec6c4f06aac374f008376d2a574",
        "scriptpubkey_asm": "OP_0 OP_PUSHBYTES_20 39263972bdec7ec6c4f06aac374f008376d2a574",
        "scriptpubkey_type": "v0_p2wpkh",
        "scriptpubkey_address": "bc1q8ynrju4aa3lvd38sd2krwncqsdmd9ft5l00nps",
        "value": 8307
      },
      "scriptsig": "",
      "scriptsig_asm": "",
      "witness": [
        "3043021f1f3455f318fff5ed965521c735e25b8cc46f4112140bb5ac753559f8be8bb3022077bd53522bf301d0ba7f8cbfdb554a503a9f960c3342bc8fd02f0c36908154f601",
        "033e621423f5fb5db0b2e9e4781a8a9398706f936185cb9c23346dc4885c13d2df"
      ],
      "is_coinbase": false,
      "sequence": 4294967293
    }
  ],
  "vout": [
    {
      "scriptpubkey": "76a914671194079b9b29a8230e2af6921e80e3bc61742d88ac",
      "scriptpubkey_asm": "OP_DUP OP_HASH160 OP_PUSHBYTES_20 671194079b9b29a8230e2af6921e80e3bc61742d OP_EQUALVERIFY OP_CHECKSIG",
      "scriptpubkey_type": "p2pkh",
      "scriptpubkey_address": "1APyf7jgUeKa8Vkirjagwxuvpx8MU13pWo",
      "value": 7087
    }
  ],
  "size": 193,
  "weight": 448,
  "fee": 1220,
  "status": {
    "confirmed": true,
    "block_height": 834464,
    "block_hash": "0000000000000000000177a0869a911a2b65c9bdcd5a8bcb02b68f305bee848e",
    "block_time": 1710308296
  },
  "hex": "0200000000010127e7c185bc06e1d58ecd2244bbef9609e8a1695aaed1cc91490d807b4f2a68db0700000000fdffffff01af1b0000000000001976a914671194079b9b29a8230e2af6921e80e3bc61742d88ac02463043021f1f3455f318fff5ed965521c735e25b8cc46f4112140bb5ac753559f8be8bb3022077bd53522bf301d0ba7f8cbfdb554a503a9f960c3342bc8fd02f0c36908154f60121033e621423f5fb5db0b2e9e4781a8a9398706f936185cb9c23346dc4885c13d2df00000000"
}