{
  "txid": "ac8c3b473609bcec27ac20edc391565ee43ecf6da585de417a55f4bdedff6c1e",
  "version": 2,
  "locktime": 834637,
  "vin": [
    {
      "txid": "64ae5823b7b1c003fcba38db5f20f801f59aa0baf4e4802c7a84edccf1251036",
      "vout": 1,
      "prevout": {
        "scriptpubkey": "0014bbf9bdbe391e855696ba5389af973502402dc8f3",
        "scriptpubkey_asm": "OP_0 OP_PUSHBYTES_20 bbf9bdbe391e855696ba5389af973502402dc8f3",
        "scriptpubkey_type": "v0_p2wpkh",
        "scriptpubkey_address": "bc1qh0umm03er6z4d9462wy6l9e4qfqzmj8nyc5m9z",
        "value": 156929625
      },
      "scriptsig": "",
      "scriptsig_asm": "",
      "witness": [
        "30440220782d0ed29275b461ef89f42a57b77e057620b95d10eeb46fc8749e8e9afe3f4802206ad361bf485989bae42ae3c9c7c4682648a1001d3102ce233caff849c155d34501",
        "02af5a1c979e5577b05b23de3b04eeaef99682c7704ff8e7194774eebf15162c0a"
      ],
      "is_coinbase": false,
      "sequence": 4294967293
    }
  ],
  "vout": [
    {
      "scriptpubkey": "00145e3d9da5e995466987b79f143b860ac13c042a76",
      "scriptpubkey_asm": "OP_0 OP_PUSHBYTES_20 5e3d9da5e995466987b79f143b860ac13c042a76",
      "scriptpubkey_type": "v0_p2wpkh",
      "scriptpubkey_address": "bc1qtc7emf0fj4rxnpahnu2rhps2cy7qg2nkjxhxmx",
      "value": 297066
    },
    {
      "scriptpubkey": "0014bbf9bdbe391e855696ba5389af973502402dc8f3",
      "scriptpubkey_asm": "OP_0 OP_PUSHBYTES_20 bbf9bdbe391e855696ba5389af973502402dc8f3",
      "scriptpubkey_type": "v0_p2wpkh",
      "scriptpubkey_address": "bc1qh0umm03er6z4d9462wy6l9e4qfqzmj8nyc5m9z",
      "value": 156628752
    }
  ],
  "size": 222,
  "weight": 561,
  "fee": 3807,
  "status": {
    "confirmed": true,
    "block_height": 834638,
    "block_hash": "000000000000000000025f742c626208ac87e0b7d15054abb4a19ca2d735a54e",
    "block_time": 1710405325
  },
  "hex": "02000000000101361025f1cced847a2c80e4f4baa09af501f8205fdb38bafc03c0b1b72358ae640100000000fdffffff026a880400000000001600145e3d9da5e995466987b79f143b860ac13c042a7610f7550900000000160014bbf9bdbe391e855696ba5389af973502402dc8f3024730440220782d0ed29275b461ef89f42a57b77e057620b95d10eeb46fc8749e8e9afe3f4802206ad361bf485989bae42ae3c9c7c4682648a1001d3102ce233caff849c155d345012102af5a1c979e5577b05b23de3b04eeaef99682c7704ff8e7194774eebf15162c0a4dbc0c00"
}