{
  "txid": "ac8d9e90423c04d5e0f8a181b2d4ede788b86d236d2f8875d002c00ed667b1f9",
  "version": 1,
  "locktime": 0,
  "vin": [
    {
      "txid": "afaf41c6ebceeeff7ecd48b51279f4cefcb0969794b41bcf331888d0fb251ec9",
      "vout": 1,
      "prevout": {
        "scriptpubkey": "76a914e4968cd95416a4a78959be5b85a648afa282244d88ac",
        "scriptpubkey_asm": "OP_DUP OP_HASH160 OP_PUSHBYTES_20 e4968cd95416a4a78959be5b85a648afa282244d OP_EQUALVERIFY OP_CHECKSIG",
        "scriptpubkey_type": "p2pkh",
        "scriptpubkey_address": "1MqfR9asrfdHEzrBVrPQ7QZGyDP178sbsb",
        "value": 989223
      },
      "scriptsig": "4830450221008dda1fe8c376f2a8439fd1681dc9d9a9375fc7f45c8bd3f0fcda88a8f824965a0220603e0cea7e88982cceb7eda8d0c5a3f0beeeeb4ea530e042f7ec9e567fca334c012103135d83f493a426d7d89d76543dedee8169ed169eb4b063ff7b08bb7164719dae",
      "scriptsig_asm": "OP_PUSHBYTES_72 30450221008dda1fe8c376f2a8439fd1681dc9d9a9375fc7f45c8bd3f0fcda88a8f824965a0220603e0cea7e88982cceb7eda8d0c5a3f0beeeeb4ea530e042f7ec9e567fca334c01 OP_PUSHBYTES_33 03135d83f493a426d7d89d76543dedee8169ed169eb4b063ff7b08bb7164719dae",
      "is_coinbase": false,
      "sequence": 4294967295
    },
    {
      "txid": "9655867439f422639018ea46390b0141362f03628af1ab6c1ccde6956c4ab373",
      "vout": 0,
      "prevout": {
        "scriptpubkey": "76a914e4968cd95416a4a78959be5b85a648afa282244d88ac",
        "scriptpubkey_asm": "OP_DUP OP_HASH160 OP_PUSHBYTES_20 e4968cd95416a4a78959be5b85a648afa282244d OP_EQUALVERIFY OP_CHECKSIG",
        "scriptpubkey_type": "p2pkh",
        "scriptpubkey_address": "1MqfR9asrfdHEzrBVrPQ7QZGyDP178sbsb",
        "value": 1950853
      },
      "scriptsig": "47304402205e4f77d6bbb4b568e6eafe65123209f570dfa24537ece38bfc1c99dacce0641e02200c460006224c124f4131eecdf91b8bd6b92fe61db60ede3c2d72938da8ae0e38012103135d83f493a426d7d89d76543dedee8169ed169eb4b063ff7b08bb7164719dae",
      "scriptsig_asm": "OP_PUSHBYTES_71 304402205e4f77d6bbb4b568e6eafe65123209f570dfa24537ece38bfc1c99dacce0641e02200c460006224c124f4131eecdf91b8bd6b92fe61db60ede3c2d72938da8ae0e3801 OP_PUSHBYTES_33 03135d83f493a426d7d89d76543dedee8169ed169eb4b063ff7b08bb7164719dae",
      "is_coinbase": false,
      "sequence": 4294967295
    },
    {
      "txid": "9655867439f422639018ea46390b0141362f03628af1ab6c1ccde6956c4ab373",
      "vout": 1,
      "prevout": {
        "scriptpubkey": "76a914e4968cd95416a4a78959be5b85a648afa282244d88ac",
        "scriptpubkey_asm": "OP_DUP OP_HASH160 OP_PUSHBYTES_20 e4968cd95416a4a78959be5b85a648afa282244d OP_EQUALVERIFY OP_CHECKSIG",
        "scriptpubkey_type": "p2pkh",
        "scriptpubkey_address": "1MqfR9asrfdHEzrBVrPQ7QZGyDP178sbsb",
        "value": 10006067
      },
      "scriptsig": "4730440220330423cec62b0f3860d3d89f691c46ea04df8555a93367a3854aee0ab158b2b5022028eeeae654e2dbb4db65481776b2d489cc29fa213b6c913702dff35decbcd342012103135d83f493a426d7d89d76543dedee8169ed169eb4b063ff7b08bb7164719dae",
      "scriptsig_asm": "OP_PUSHBYTES_71 30440220330423cec62b0f3860d3d89f691c46ea04df8555a93367a3854aee0ab158b2b5022028eeeae654e2dbb4db65481776b2d489cc29fa213b6c913702dff35decbcd34201 OP_PUSHBYTES_33 03135d83f493a426d7d89d76543dedee8169ed169eb4b063ff7b08bb7164719dae",
      "is_coinbase": false,
      "sequence": 4294967295
    },
    {
      "txid": "6da1c36122cb1b26459dc907f23e8075cfce21dde8221296e0849ade13821a75",
      "vout": 0,
      "prevout": {
        "scriptpubkey": "76a914e4968cd95416a4a78959be5b85a648afa282244d88ac",
        "scriptpubkey_asm": "OP_DUP OP_HASH160 OP_PUSHBYTES_20 e4968cd95416a4a78959be5b85a648afa282244d OP_EQUALVERIFY OP_CHECKSIG",
        "scriptpubkey_type": "p2pkh",
        "scriptpubkey_address": "1MqfR9asrfdHEzrBVrPQ7QZGyDP178sbsb",
        "value": 1668826
      },
      "scriptsig": "47304402206c09768d6118a8ce2d38c44f258b25f6c19d577cd99f6d131838a8acb3c5d24a0220646e6f59ad89dcad37b9dad6d22a15f0f344fc1d9a9a0c19017f084f0360a368012103135d83f493a426d7d89d76543dedee8169ed169eb4b063ff7b08bb7164719dae",
      "scriptsig_asm": "OP_PUSHBYTES_71 304402206c09768d6118a8ce2d38c44f258b25f6c19d577cd99f6d131838a8acb3c5d24a0220646e6f59ad89dcad37b9dad6d22a15f0f344fc1d9a9a0c19017f084f0360a36801 OP_PUSHBYTES_33 03135d83f493a426d7d89d76543dedee8169ed169eb4b063ff7b08bb7164719dae",
      "is_coinbase": false,
      "sequence": 4294967295
    },
    {
      "txid": "6da1c36122cb1b26459dc907f23e8075cfce21dde8221296e0849ade13821a75",
      "vout": 2,
      "prevout": {
        "scriptpubkey": "76a914e4968cd95416a4a78959be5b85a648afa282244d88ac",
        "scriptpubkey_asm": "OP_DUP OP_HASH160 OP_PUSHBYTES_20 e4968cd95416a4a78959be5b85a648afa282244d OP_EQUALVERIFY OP_CHECKSIG",
        "scriptpubkey_type": "p2pkh",
        "scriptpubkey_address": "1MqfR9asrfdHEzrBVrPQ7QZGyDP178sbsb",
        "value": 2362680
      },
      "scriptsig": "47304402203433337d855730bc785e4d07ac34baccb77e878af4a4f48d0740fb3e9a9972610220179fdb409b1b36103d5a97490439a4e2a965993bcb91aec5bf8b46969b1fb91c012103135d83f493a426d7d89d76543dedee8169ed169eb4b063ff7b08bb7164719dae",
      "scriptsig_asm": "OP_PUSHBYTES_71 304402203433337d855730bc785e4d07ac34baccb77e878af4a4f48d0740fb3e9a9972610220179fdb409b1b36103d5a97490439a4e2a965993bcb91aec5bf8b46969b1fb91c01 OP_PUSHBYTES_33 03135d83f493a426d7d89d76543dedee8169ed169eb4b063ff7b08bb7164719dae",
      "is_coinbase": false,
      "sequence": 4294967295
    }
  ],
  "vout": [
    {
      "scriptpubkey": "76a914952d5367fd05e0abf7aa0eb762d0a5c22fca892f88ac",
      "scriptpubkey_asm": "OP_DUP OP_HASH160 OP_PUSHBYTES_20 952d5367fd05e0abf7aa0eb762d0a5c22fca892f OP_EQUALVERIFY OP_CHECKSIG",
      "scriptpubkey_type": "p2pkh",
      "scriptpubkey_address": "1EbmyskC9xGxXDmuHgM2Gdm9fpPYF6q5Hx",
      "value": 16958833
    }
  ],
  "size": 780,
  "weight": 3120,
  "fee": 18816,
  "status": {
    "confirmed": true,
    "block_height": 834460,
    "block_hash": "00000000000000000000484a79b643b2524bbce82e5d8a442013fa5b8905ed98",
    "block_time": 1710307468
  },
  "hex": "0100000005c91e25fbd0881833cf1bb4949796b0fccef47912b548cd7effeeceebc641afaf010000006b4830450221008dda1fe8c376f2a8439fd1681dc9d9a9375fc7f45c8bd3f0fcda88a8f824965a0220603e0cea7e88982cceb7eda8d0c5a3f0beeeeb4ea530e042f7ec9e567fca334c012103135d83f493a426d7d89d76543dedee8169ed169eb4b063ff7b08bb7164719daeffffffff73b34a6c95e6cd1c6cabf18a62032f3641010b3946ea18906322f43974865596000000006a47304402205e4f77d6bbb4b568e6eafe65123209f570dfa24537ece38bfc1c99dacce0641e02200c460006224c124f4131eecdf91b8bd6b92fe61db60ede3c2d72938da8ae0e38012103135d83f493a426d7d89d76543dedee8169ed169eb4b063ff7b08bb7164719daeffffffff73b34a6c95e6cd1c6cabf18a62032f3641010b3946ea18906322f43974865596010000006a4730440220330423cec62b0f3860d3d89f691c46ea04df8555a93367a3854aee0ab158b2b5022028eeeae654e2dbb4db65481776b2d489cc29fa213b6c913702dff35decbcd342012103135d83f493a426d7d89d76543dedee8169ed169eb4b063ff7b08bb7164719daeffffffff751a8213de9a84e0961222e8dd21cecf75803ef207c99d45261bcb2261c3a16d000000006a47304402206c09768d6118a8ce2d38c44f258b25f6c19d577cd99f6d131838a8acb3c5d24a0220646e6f59ad89dcad37b9dad6d22a15f0f344fc1d9a9a0c19017f084f0360a368012103135d83f493a426d7d89d76543dedee8169ed169eb4b063ff7b08bb7164719daeffffffff751a8213de9a84e0961222e8dd21cecf75803ef207c99d45261bcb2261c3a16d020000006a47304402203433337d855730bc785e4d07ac34baccb77e878af4a4f48d0740fb3e9a9972610220179fdb409b1b36103d5a97490439a4e2a965993bcb91aec5bf8b46969b1fb91c012103135d83f493a426d7d89d76543dedee8169ed169eb4b063ff7b08bb7164719daeffffffff0171c50201000000001976a914952d5367fd05e0abf7aa0eb762d0a5c22fca892f88ac00000000"
}