{
  "txid": "ac96b39e1dc5f539032ab0ea137f9c9f923a9f04d4195174171e692a9d3222a0",
  "version": 2,
  "locktime": 0,
  "vin": [
    {
      "txid": "f08f4b88c096083cd96a75498d4bb91236e4e84fe0965508c8b8a2432c2ad5eb",
      "vout": 1,
      "prevout": {
        "scriptpubkey": "5120c958148b925e445e12e38c54e183067c4ee110ac13ca5771da1f52c787b3d128",
        "scriptpubkey_asm": "OP_PUSHNUM_1 OP_PUSHBYTES_32 c958148b925e445e12e38c54e183067c4ee110ac13ca5771da1f52c787b3d128",
        "scriptpubkey_type": "v1_p2tr",
        "scriptpubkey_address": "bc1pe9vpfzujtez9uyhr332wrqcx038wzy9vz099wuw6rafv0pan6y5qvv0ajj",
        "value": 1859
      },
      "scriptsig": "",
      "scriptsig_asm": "",
      "witness": [
        "a58e00951530cea10b02641a777e1436e84e151eae501c5f68f07ee725c9e643aab8244cf1cc4db572cbd89c5cc2905163ba5f97e7ab30636dcda95bdc6140a0",
        "2029ae779ebf6db4c3530184e387ccb979674b490a2c68e1edb11bc067f07e56d4ac0063036f7264010118746578742f706c61696e3b636861727365743d7574662d3800357b2270223a226272632d3230222c226f70223a226d696e74222c227469636b223a22646f6765222c22616d74223a2234323030227d68",
        "c1a1b8f27720bdb58312407ff108aa0a8a79eb6ade7272753df37ca3add73a736a"
      ],
      "is_coinbase": false,
      "sequence": 4294967295
    }
  ],
  "vout": [
    {
      "scriptpubkey": "00149e8548cc69df89adefb3c19ee6963818466a179d",
      "scriptpubkey_asm": "OP_0 OP_PUSHBYTES_20 9e8548cc69df89adefb3c19ee6963818466a179d",
      "scriptpubkey_type": "v0_p2wpkh",
      "scriptpubkey_address": "bc1qn6z53nrfm7y6mmancx0wd93crprx59uau9ymz7",
      "value": 330
    }
  ],
  "size": 308,
  "weight": 554,
  "fee": 1529,
  "status": {
    "confirmed": true,
    "block_height": 834464,
    "block_hash": "0000000000000000000177a0869a911a2b65c9bdcd5a8bcb02b68f305bee848e",
    "block_time": 1710308296
  },
  "hex": "02000000000101ebd52a2c43a2b8c8085596e04fe8e43612b94b8d49756ad93c0896c0884b8ff00100000000ffffffff014a010000000000001600149e8548cc69df89adefb3c19ee6963818466a179d0340a58e00951530cea10b02641a777e1436e84e151eae501c5f68f07ee725c9e643aab8244cf1cc4db572cbd89c5cc2905163ba5f97e7ab30636dcda95bdc6140a07b2029ae779ebf6db4c3530184e387ccb979674b490a2c68e1edb11bc067f07e56d4ac0063036f7264010118746578742f706c61696e3b636861727365743d7574662d3800357b2270223a226272632d3230222c226f70223a226d696e74222c227469636b223a22646f6765222c22616d74223a2234323030227d6821c1a1b8f27720bdb58312407ff108aa0a8a79eb6ade7272753df37ca3add73a736a00000000"
}