{
  "txid": "acb1e7146622a4aee93dbf47a8d969ea84d0f47e098d82e6e975afdcc3eaf47a",
  "version": 1,
  "locktime": 0,
  "vin": [
    {
      "txid": "4db0da2885109650877a570b86756dd43367f2c99dd9b37a453c06042fe5b426",
      "vout": 1,
      "prevout": {
        "scriptpubkey": "001410c644f07da559406d5a7e63e5e51945edafecb3",
        "scriptpubkey_asm": "OP_0 OP_PUSHBYTES_20 10c644f07da559406d5a7e63e5e51945edafecb3",
        "scriptpubkey_type": "v0_p2wpkh",
        "scriptpubkey_address": "bc1qzrryfura54v5qm260e37tegeghk6lm9nemuqu4",
        "value": 3663
      },
      "scriptsig": "",
      "scriptsig_asm": "",
      "witness": [
        "30450221009eec1d3b31a23bc3af05eb8f7fc0c0f4371cd72fe06334c809a8e1296e2f093002204171b3f4602ea40819410cb74c8edd59f3cdf7a218a5271521bbe3fe956d54de01",
        "03be8b8912af2da64af680ebb69477e2f1473b631fb0579bf7be306d561d99468c"
      ],
      "is_coinbase": false,
      "sequence": 4294967295
    },
    {
      "txid": "8bdff0a180141dc28e030dfdcd5578d2f16ef264e898bf4a3dcf5931fe0afa31",
      "vout": 1,
      "prevout": {
        "scriptpubkey": "001410c644f07da559406d5a7e63e5e51945edafecb3",
        "scriptpubkey_asm": "OP_0 OP_PUSHBYTES_20 10c644f07da559406d5a7e63e5e51945edafecb3",
        "scriptpubkey_type": "v0_p2wpkh",
        "scriptpubkey_address": "bc1qzrryfura54v5qm260e37tegeghk6lm9nemuqu4",
        "value": 4317
      },
      "scriptsig": "",
      "scriptsig_asm": "",
      "witness": [
        "30440220726897211792b272df835ea856be0608209f4766649c638fd67cb3d9285c49a802206c71d320ad593bd825caf99025691259b65342decbf71d9f690f78fa1dbc2b9401",
        "03be8b8912af2da64af680ebb69477e2f1473b631fb0579bf7be306d561d99468c"
      ],
      "is_coinbase": false,
      "sequence": 4294967295
    },
    {
      "txid": "8d3818c093389051bdb63f2ce721f1dbf30f71725ca0fca6c694a71b80823846",
      "vout": 1,
      "prevout": {
        "scriptpubkey": "001410c644f07da559406d5a7e63e5e51945edafecb3",
        "scriptpubkey_asm": "OP_0 OP_PUSHBYTES_20 10c644f07da559406d5a7e63e5e51945edafecb3",
        "scriptpubkey_type": "v0_p2wpkh",
        "scriptpubkey_address": "bc1qzrryfura54v5qm260e37tegeghk6lm9nemuqu4",
        "value": 199929
      },
      "scriptsig": "",
      "scriptsig_asm": "",
      "witness": [
        "3045022100fff3c5d75ba0e60f2cbdd26feb0ae17f9eb37938c8acbdbdf08fdd8416c4b46c0220428b079ac10ae22a642c086eb79e6ba912bf04d283653611ae2f8614cc36249401",
        "03be8b8912af2da64af680ebb69477e2f1473b631fb0579bf7be306d561d99468c"
      ],
      "is_coinbase": false,
      "sequence": 4294967295
    }
  ],
  "vout": [
    {
      "scriptpubkey": "76a914768caf320182ea9aa1ee2dadb5496462a15a0a0488ac",
      "scriptpubkey_asm": "OP_DUP OP_HASH160 OP_PUSHBYTES_20 768caf320182ea9aa1ee2dadb5496462a15a0a04 OP_EQUALVERIFY OP_CHECKSIG",
      "scriptpubkey_type": "p2pkh",
      "scriptpubkey_address": "1BoqGZGwtTZn8ZP1PdQzj4npS1mSys5zV8",
      "value": 197209
    },
    {
      "scriptpubkey": "001410c644f07da559406d5a7e63e5e51945edafecb3",
      "scriptpubkey_asm": "OP_0 OP_PUSHBYTES_20 10c644f07da559406d5a7e63e5e51945edafecb3",
      "scriptpubkey_type": "v0_p2wpkh",
      "scriptpubkey_address": "bc1qzrryfura54v5qm260e37tegeghk6lm9nemuqu4",
      "value": 3140
    }
  ],
  "size": 523,
  "weight": 1117,
  "fee": 7560,
  "status": {
    "confirmed": true,
    "block_height": 834638,
    "block_hash": "000000000000000000025f742c626208ac87e0b7d15054abb4a19ca2d735a54e",
    "block_time": 1710405325
  },
  "hex": "0100000000010326b4e52f04063c457ab3d99dc9f26733d46d75860b577a875096108528dab04d0100000000ffffffff31fa0afe3159cf3d4abf98e864f26ef1d27855cdfd0d038ec21d1480a1f0df8b0100000000ffffffff463882801ba794c6a6fca05c72710ff3dbf121e72c3fb6bd51903893c018388d0100000000ffffffff0259020300000000001976a914768caf320182ea9aa1ee2dadb5496462a15a0a0488ac440c00000000000016001410c644f07da559406d5a7e63e5e51945edafecb3024830450221009eec1d3b31a23bc3af05eb8f7fc0c0f4371cd72fe06334c809a8e1296e2f093002204171b3f4602ea40819410cb74c8edd59f3cdf7a218a5271521bbe3fe956d54de012103be8b8912af2da64af680ebb69477e2f1473b631fb0579bf7be306d561d99468c024730440220726897211792b272df835ea856be0608209f4766649c638fd67cb3d9285c49a802206c71d320ad593bd825caf99025691259b65342decbf71d9f690f78fa1dbc2b94012103be8b8912af2da64af680ebb69477e2f1473b631fb0579bf7be306d561d99468c02483045022100fff3c5d75ba0e60f2cbdd26feb0ae17f9eb37938c8acbdbdf08fdd8416c4b46c0220428b079ac10ae22a642c086eb79e6ba912bf04d283653611ae2f8614cc362494012103be8b8912af2da64af680ebb69477e2f1473b631fb0579bf7be306d561d99468c00000000"
}