{
  "txid": "acb8205b697427c87aadef83574b5abce930faf83b6bf499784ba3e396059bca",
  "version": 2,
  "locktime": 834637,
  "vin": [
    {
      "txid": "9b888140d442163ea48abadef4411028e40756fc1e173bbf4e779b6453ded6fa",
      "vout": 0,
      "prevout": {
        "scriptpubkey": "0014ca4deaf283c3a3467b6603a18e317236ed05a479",
        "scriptpubkey_asm": "OP_0 OP_PUSHBYTES_20 ca4deaf283c3a3467b6603a18e317236ed05a479",
        "scriptpubkey_type": "v0_p2wpkh",
        "scriptpubkey_address": "bc1qefx74u5rcw35v7mxqwscuvtjxmkstfrerkv2ss",
        "value": 123106
      },
      "scriptsig": "",
      "scriptsig_asm": "",
      "witness": [
        "3044022015e2afc287d2fa9e3096c12986d78cf1c642c574b45fe9ef2c2d7d1831607938022022b46c559c73ca4703dc898f29084df6e85cd92c8af9600259fd5f6aad1dd2fb01",
        "02d6847ca8e1c72bbd537b3e5ca5445b75791e52e274b9ca8bef5d94f3e65a292d"
      ],
      "is_coinbase": false,
      "sequence": 4294967294
    },
    {
      "txid": "0ac11d22782d05712a9f9a5c8c671274c49445f02526a9dd968092440b85e2ae",
      "vout": 0,
      "prevout": {
        "scriptpubkey": "00141ade7ec99a52c3d329efdcc779feeecbbc7e4f8a",
        "scriptpubkey_asm": "OP_0 OP_PUSHBYTES_20 1ade7ec99a52c3d329efdcc779feeecbbc7e4f8a",
        "scriptpubkey_type": "v0_p2wpkh",
        "scriptpubkey_address": "bc1qrt08ajv62tpax200mnrhnlhwew78unu23l8l93",
        "value": 2869068
      },
      "scriptsig": "",
      "scriptsig_asm": "",
      "witness": [
        "304402205253b112091e7f7dad7358d429b82517806adb7987fc2d05ac1e315b452b34550220546953e3d014a8ecbd282ac5c791423fe8208c2e02d5d4935b767d1a1df51ffb01",
        "02e7af727017230272737deabc876cdcb60d221e89f0613cc12452b08742c833c7"
      ],
      "is_coinbase": false,
      "sequence": 4294967294
    },
    {
      "txid": "826eb8208cb0edd77f28a530904012a34d3ab0e14c371542eea5a46f0720c978",
      "vout": 0,
      "prevout": {
        "scriptpubkey": "00142cd1f3812f96875a68f53ead664523ec17cecda3",
        "scriptpubkey_asm": "OP_0 OP_PUSHBYTES_20 2cd1f3812f96875a68f53ead664523ec17cecda3",
        "scriptpubkey_type": "v0_p2wpkh",
        "scriptpubkey_address": "bc1q9ngl8qf0j6r4568486kkv3frastuandrx87ndz",
        "value": 1014551
      },
      "scriptsig": "",
      "scriptsig_asm": "",
      "witness": [
        "304402204ef4b6a1b357dc5d4ae35aaa53ec5fc9d09b1e4b8fd0386d5da8b16ea0b7f3f302203cdf524ab303841089be2ec19ec02e38975aba60bce0e2544ef606353ec933c101",
        "025b5e71536897f44797480bba0412912eddb1da51d5121a6671660bc320dfebb2"
      ],
      "is_coinbase": false,
      "sequence": 4294967294
    }
  ],
  "vout": [
    {
      "scriptpubkey": "001412888aaba4df5bc159be06ac6c242c7ee091db1a",
      "scriptpubkey_asm": "OP_0 OP_PUSHBYTES_20 12888aaba4df5bc159be06ac6c242c7ee091db1a",
      "scriptpubkey_type": "v0_p2wpkh",
      "scriptpubkey_address": "bc1qz2yg42aymaduzkd7q6kxcfpv0msfrkc6yc6sf2",
      "value": 3000000
    },
    {
      "scriptpubkey": "0014c8595424e8c0d5e0c5d3523ae6304856178cd133",
      "scriptpubkey_asm": "OP_0 OP_PUSHBYTES_20 c8595424e8c0d5e0c5d3523ae6304856178cd133",
      "scriptpubkey_type": "v0_p2wpkh",
      "scriptpubkey_address": "bc1qepv4gf8gcr27p3wn2gawvvzg2ctce5fnnv9mg7",
      "value": 999275
    }
  ],
  "size": 518,
  "weight": 1103,
  "fee": 7450,
  "status": {
    "confirmed": true,
    "block_height": 834638,
    "block_hash": "000000000000000000025f742c626208ac87e0b7d15054abb4a19ca2d735a54e",
    "block_time": 1710405325
  },
  "hex": "02000000000103fad6de53649b774ebf3b171efc5607e4281041f4deba8aa43e1642d44081889b0000000000feffffffaee2850b44928096dda92625f04594c47412678c5c9a9f2a71052d78221dc10a0000000000feffffff78c920076fa4a5ee4215374ce1b03a4da312409030a5287fd7edb08c20b86e820000000000feffffff02c0c62d000000000016001412888aaba4df5bc159be06ac6c242c7ee091db1a6b3f0f0000000000160014c8595424e8c0d5e0c5d3523ae6304856178cd13302473044022015e2afc287d2fa9e3096c12986d78cf1c642c574b45fe9ef2c2d7d1831607938022022b46c559c73ca4703dc898f29084df6e85cd92c8af9600259fd5f6aad1dd2fb012102d6847ca8e1c72bbd537b3e5ca5445b75791e52e274b9ca8bef5d94f3e65a292d0247304402205253b112091e7f7dad7358d429b82517806adb7987fc2d05ac1e315b452b34550220546953e3d014a8ecbd282ac5c791423fe8208c2e02d5d4935b767d1a1df51ffb012102e7af727017230272737deabc876cdcb60d221e89f0613cc12452b08742c833c70247304402204ef4b6a1b357dc5d4ae35aaa53ec5fc9d09b1e4b8fd0386d5da8b16ea0b7f3f302203cdf524ab303841089be2ec19ec02e38975aba60bce0e2544ef606353ec933c10121025b5e71536897f44797480bba0412912eddb1da51d5121a6671660bc320dfebb24dbc0c00"
}