{
  "txid": "acbe5685751f2b93601b3b398bbc3892a4984bdc732b574f4a8c7a29cebc9c8f",
  "version": 2,
  "locktime": 0,
  "vin": [
    {
      "txid": "ac966af2d0cf79b1d15f70898c8253ce9e2300d15debd98afc31907f0a41c740",
      "vout": 0,
      "prevout": {
        "scriptpubkey": "0014aad1255262d9df09d14139f0c8d4affc9c3f60ec",
        "scriptpubkey_asm": "OP_0 OP_PUSHBYTES_20 aad1255262d9df09d14139f0c8d4affc9c3f60ec",
        "scriptpubkey_type": "v0_p2wpkh",
        "scriptpubkey_address": "bc1q4tgj25nzm80sn52p88cv3490ljwr7c8vmsrpzt",
        "value": 346432
      },
      "scriptsig": "",
      "scriptsig_asm": "",
      "witness": [
        "3045022100fe2ff67969c2ec51f8a551febe3af2db4ad160ba2845def3d32729aa8e66b806022035d8347e5bc37e165b66cff69206f5cf240e995937c68d355c2ff9f0d118502e01",
        "022fbc3a73058752c5cbb4bb735aec4a2f8dc8319f82034723b159036bc5729ce6"
      ],
      "is_coinbase": false,
      "sequence": 4294967295
    }
  ],
  "vout": [
    {
      "scriptpubkey": "0014090876056831eb849da8cb301a5dd9db966697cf",
      "scriptpubkey_asm": "OP_0 OP_PUSHBYTES_20 090876056831eb849da8cb301a5dd9db966697cf",
      "scriptpubkey_type": "v0_p2wpkh",
      "scriptpubkey_address": "bc1qpyy8vptgx84cf8dgevcp5hwemwtxd9703yjat0",
      "value": 214705
    },
    {
      "scriptpubkey": "0014d51b802120db2ff9d6800c554b068923a292bf8e",
      "scriptpubkey_asm": "OP_0 OP_PUSHBYTES_20 d51b802120db2ff9d6800c554b068923a292bf8e",
      "scriptpubkey_type": "v0_p2wpkh",
      "scriptpubkey_address": "bc1q65dcqgfqmvhln45qp325kp5fyw3f90uw4aals7",
      "value": 129802
    }
  ],
  "size": 223,
  "weight": 562,
  "fee": 1925,
  "status": {
    "confirmed": true,
    "block_height": 834460,
    "block_hash": "00000000000000000000484a79b643b2524bbce82e5d8a442013fa5b8905ed98",
    "block_time": 1710307468
  },
  "hex": "0200000000010140c7410a7f9031fc8ad9eb5dd100239ece53828c89705fd1b179cfd0f26a96ac0000000000ffffffff02b146030000000000160014090876056831eb849da8cb301a5dd9db966697cf0afb010000000000160014d51b802120db2ff9d6800c554b068923a292bf8e02483045022100fe2ff67969c2ec51f8a551febe3af2db4ad160ba2845def3d32729aa8e66b806022035d8347e5bc37e165b66cff69206f5cf240e995937c68d355c2ff9f0d118502e0121022fbc3a73058752c5cbb4bb735aec4a2f8dc8319f82034723b159036bc5729ce600000000"
}