{
  "txid": "ace7ee2696f4233eb9b7be1fc1161367ba18e7732a6126c761f826a021020bcb",
  "version": 2,
  "locktime": 0,
  "vin": [
    {
      "txid": "2a22457b1e2830b6338a9b573b4739a3c8ed460fc71b5fdf52027f24e90cecc0",
      "vout": 0,
      "prevout": {
        "scriptpubkey": "51200bcaaef3205879520d5f641edbbb41a1e2aacacf0a802d54f7b3f9011db345b7",
        "scriptpubkey_asm": "OP_PUSHNUM_1 OP_PUSHBYTES_32 0bcaaef3205879520d5f641edbbb41a1e2aacacf0a802d54f7b3f9011db345b7",
        "scriptpubkey_type": "v1_p2tr",
        "scriptpubkey_address": "bc1pp092aueqtpu4yr2lvs0dhw6p58324jk0p2qz648hk0usz8dngkmsk2vkce",
        "value": 4992
      },
      "scriptsig": "",
      "scriptsig_asm": "",
      "witness": [
        "6f93c3f50edb41d7f8d039e15d1fe44609f4f1eaceb96312996db6119323bbcd274ba9f8fd3d905023f2788723148f23c9d5ae84beb7285635e000bf4d30867d",
        "20826b350e298282eb48bcaa87492d61f48468064a997156bd269f94278d683b2aac0063036f7264010117746578742f68746d6c3b636861727365743d7574662d38004d7f013c21444f43545950452068746d6c3e0a3c68746d6c206c616e673d22656e223e0a20203c686561643e0a202020203c6d65746120636861727365743d225554462d3822202f3e0a202020203c6d657461206e616d653d2276696577706f72742220636f6e74656e743d2277696474683d6465766963652d77696474682c20696e697469616c2d7363616c653d312e3022202f3e0a202020203c7469746c653e6469616465706978616c65733c2f7469746c653e0a20203c2f686561643e0a20203c626f6479207374796c653d226d617267696e3a20307078223e0a202020203c6469763e0a2020202020203c696d67207374796c653d2277696474683a313030253b6d617267696e3a30707822207372633d222f636f6e74656e742f36383162353337336330336533663831393233316166643932323766353431303133393532393963396535383335366264613237386532663332626566326364693022202f3e0a202020203c2f6469763e0a20203c2f626f64793e0a3c2f68746d6c3e68",
        "c1826b350e298282eb48bcaa87492d61f48468064a997156bd269f94278d683b2a"
      ],
      "is_coinbase": false,
      "sequence": 4294967295
    }
  ],
  "vout": [
    {
      "scriptpubkey": "51206b9b0b85d70f49fc250a253bb544835822a95e9f63d6c91b7ebec66578fcd53d",
      "scriptpubkey_asm": "OP_PUSHNUM_1 OP_PUSHBYTES_32 6b9b0b85d70f49fc250a253bb544835822a95e9f63d6c91b7ebec66578fcd53d",
      "scriptpubkey_type": "v1_p2tr",
      "scriptpubkey_address": "bc1pdwdshpwhpaylcfg2y5am23yrtq32jh5lv0tvjxm7hmrx278u657se72k4s",
      "value": 546
    }
  ],
  "size": 653,
  "weight": 935,
  "fee": 4446,
  "status": {
    "confirmed": true,
    "block_height": 834638,
    "block_hash": "000000000000000000025f742c626208ac87e0b7d15054abb4a19ca2d735a54e",
    "block_time": 1710405325
  },
  "hex": "02000000000101c0ec0ce9247f0252df5f1bc70f46edc8a339473b579b8a33b630281e7b45222a0000000000ffffffff0122020000000000002251206b9b0b85d70f49fc250a253bb544835822a95e9f63d6c91b7ebec66578fcd53d03406f93c3f50edb41d7f8d039e15d1fe44609f4f1eaceb96312996db6119323bbcd274ba9f8fd3d905023f2788723148f23c9d5ae84beb7285635e000bf4d30867dfdc60120826b350e298282eb48bcaa87492d61f48468064a997156bd269f94278d683b2aac0063036f7264010117746578742f68746d6c3b636861727365743d7574662d38004d7f013c21444f43545950452068746d6c3e0a3c68746d6c206c616e673d22656e223e0a20203c686561643e0a202020203c6d65746120636861727365743d225554462d3822202f3e0a202020203c6d657461206e616d653d2276696577706f72742220636f6e74656e743d2277696474683d6465766963652d77696474682c20696e697469616c2d7363616c653d312e3022202f3e0a202020203c7469746c653e6469616465706978616c65733c2f7469746c653e0a20203c2f686561643e0a20203c626f6479207374796c653d226d617267696e3a20307078223e0a202020203c6469763e0a2020202020203c696d67207374796c653d2277696474683a313030253b6d617267696e3a30707822207372633d222f636f6e74656e742f36383162353337336330336533663831393233316166643932323766353431303133393532393963396535383335366264613237386532663332626566326364693022202f3e0a202020203c2f6469763e0a20203c2f626f64793e0a3c2f68746d6c3e6821c1826b350e298282eb48bcaa87492d61f48468064a997156bd269f94278d683b2a00000000"
}