{
  "txid": "acf008ff5fd841b0ffb4587153e2f6570f7bcaa47cb6b5751233421a70bf9103",
  "version": 1,
  "locktime": 0,
  "vin": [
    {
      "txid": "8888888f1f227b20451f8dd197379263bb0a1876fa91dec6024962e5498adae0",
      "vout": 0,
      "prevout": {
        "scriptpubkey": "51203a46a843caead2f2c36100a215df6518eceaca5c1f2a2bb0e31d3c0eec92f573",
        "scriptpubkey_asm": "OP_PUSHNUM_1 OP_PUSHBYTES_32 3a46a843caead2f2c36100a215df6518eceaca5c1f2a2bb0e31d3c0eec92f573",
        "scriptpubkey_type": "v1_p2tr",
        "scriptpubkey_address": "bc1p8fr2ss72atf09smpqz3pthm9rrkw4jjuru4zhv8rr57qamyj74es6hdrkc",
        "value": 11487
      },
      "scriptsig": "",
      "scriptsig_asm": "",
      "witness": [
        "2c3bf418770fcd39ec5bd89f579f114e2abcfd17968129c312e3e978ce6f3c81761a39a2706b8dda126db321b9ea6f8468af57fd9ad756450e10be0748851d0b83",
        "20be11f1d0580232188e877ef283eb5a1efd4e9e5290a2633605d666f59ad3fff2ac00630461746f6d03646d7445a16461726773a468626974776f726b636a383838383838382e31326b6d696e745f7469636b657268696e66696e697479656e6f6e63651a003734c96474696d651a65e639cb68",
        "c1be11f1d0580232188e877ef283eb5a1efd4e9e5290a2633605d666f59ad3fff2"
      ],
      "is_coinbase": false,
      "sequence": 4294967293
    }
  ],
  "vout": [
    {
      "scriptpubkey": "0014ddb95f82fd7c5c1d1c001667e198d0749f66aacd",
      "scriptpubkey_asm": "OP_0 OP_PUSHBYTES_20 ddb95f82fd7c5c1d1c001667e198d0749f66aacd",
      "scriptpubkey_type": "v0_p2wpkh",
      "scriptpubkey_address": "bc1qmku4lqha03wp68qqzen7rxxswj0kd2kdnra4x8",
      "value": 9999
    }
  ],
  "size": 302,
  "weight": 548,
  "fee": 1488,
  "status": {
    "confirmed": true,
    "block_height": 834464,
    "block_hash": "0000000000000000000177a0869a911a2b65c9bdcd5a8bcb02b68f305bee848e",
    "block_time": 1710308296
  },
  "hex": "01000000000101e0da8a49e5624902c6de91fa76180abb63923797d18d1f45207b221f8f8888880000000000fdffffff010f27000000000000160014ddb95f82fd7c5c1d1c001667e198d0749f66aacd03412c3bf418770fcd39ec5bd89f579f114e2abcfd17968129c312e3e978ce6f3c81761a39a2706b8dda126db321b9ea6f8468af57fd9ad756450e10be0748851d0b837420be11f1d0580232188e877ef283eb5a1efd4e9e5290a2633605d666f59ad3fff2ac00630461746f6d03646d7445a16461726773a468626974776f726b636a383838383838382e31326b6d696e745f7469636b657268696e66696e697479656e6f6e63651a003734c96474696d651a65e639cb6821c1be11f1d0580232188e877ef283eb5a1efd4e9e5290a2633605d666f59ad3fff200000000"
}