{
  "txid": "ad01dab939f86eda47450d5e9c751ae42d3c4b07d66edfe21c86bb0c72aab84b",
  "version": 2,
  "locktime": 0,
  "vin": [
    {
      "txid": "01f578cb1fb2b8611170379680f1b259bc2702bf2a0a8ee9ff4d227ffd427a0e",
      "vout": 1,
      "prevout": {
        "scriptpubkey": "0014192e80ed2c7c412bdc2a6c8f371d15cb90f3c85b",
        "scriptpubkey_asm": "OP_0 OP_PUSHBYTES_20 192e80ed2c7c412bdc2a6c8f371d15cb90f3c85b",
        "scriptpubkey_type": "v0_p2wpkh",
        "scriptpubkey_address": "bc1qryhgpmfv03qjhhp2dj8nw8g4ewg08jzmgy3cyx",
        "value": 1075784
      },
      "scriptsig": "",
      "scriptsig_asm": "",
      "witness": [
        "30440220383f9b29453d1e7691411378141bf1917e3922b9ef451f5872cffc09ec670ed302201dad6eae3d7590f9cb20d2d2a10f42146f51ee98c0eea67a4dc816a6dec91c8001",
        "03b01bd095f648ea829f000207087f16622431077bb5cc0875225ada601375c885"
      ],
      "is_coinbase": false,
      "sequence": 4294967293
    }
  ],
  "vout": [
    {
      "scriptpubkey": "00144d9c604372a7cfeee7326c0a4b9db00879c353fe",
      "scriptpubkey_asm": "OP_0 OP_PUSHBYTES_20 4d9c604372a7cfeee7326c0a4b9db00879c353fe",
      "scriptpubkey_type": "v0_p2wpkh",
      "scriptpubkey_address": "bc1qfkwxqsmj5l87aeejds9yh8dsppuux5l784r880",
      "value": 59591
    },
    {
      "scriptpubkey": "0014192e80ed2c7c412bdc2a6c8f371d15cb90f3c85b",
      "scriptpubkey_asm": "OP_0 OP_PUSHBYTES_20 192e80ed2c7c412bdc2a6c8f371d15cb90f3c85b",
      "scriptpubkey_type": "v0_p2wpkh",
      "scriptpubkey_address": "bc1qryhgpmfv03qjhhp2dj8nw8g4ewg08jzmgy3cyx",
      "value": 1009707
    }
  ],
  "size": 222,
  "weight": 561,
  "fee": 6486,
  "status": {
    "confirmed": true,
    "block_height": 834638,
    "block_hash": "000000000000000000025f742c626208ac87e0b7d15054abb4a19ca2d735a54e",
    "block_time": 1710405325
  },
  "hex": "020000000001010e7a42fd7f224dffe98e0a2abf0227bc59b2f1809637701161b8b21fcb78f5010100000000fdffffff02c7e80000000000001600144d9c604372a7cfeee7326c0a4b9db00879c353fe2b680f0000000000160014192e80ed2c7c412bdc2a6c8f371d15cb90f3c85b024730440220383f9b29453d1e7691411378141bf1917e3922b9ef451f5872cffc09ec670ed302201dad6eae3d7590f9cb20d2d2a10f42146f51ee98c0eea67a4dc816a6dec91c80012103b01bd095f648ea829f000207087f16622431077bb5cc0875225ada601375c88500000000"
}