{
  "txid": "ad06f3fc83e69ba0ed5249b1d28be9256854bf600c61ee853ce534b4526c9215",
  "version": 2,
  "locktime": 0,
  "vin": [
    {
      "txid": "33198a5cbe2a53fc30099ab53009144888cef479020e7acbc065183b03c26d7b",
      "vout": 17,
      "prevout": {
        "scriptpubkey": "51205e1b485c3a6ad8eb5aadf3446970dfb68a627094433a16cbe8728540e578b5d5",
        "scriptpubkey_asm": "OP_PUSHNUM_1 OP_PUSHBYTES_32 5e1b485c3a6ad8eb5aadf3446970dfb68a627094433a16cbe8728540e578b5d5",
        "scriptpubkey_type": "v1_p2tr",
        "scriptpubkey_address": "bc1ptcd5shp6dtvwkk4d7dzxjuxlk69xyuy5gvapdjlgw2z5petckh2snf2ett",
        "value": 2658
      },
      "scriptsig": "",
      "scriptsig_asm": "",
      "witness": [
        "c70d97fc23dc8a5c443b6954d91a788cbe7f7f731e9f7ecb97c26879ca4cfce2716703197a62e529fd087e653310fc37885b0d9b72667325abd022a1647e69d7",
        "20cc6f718bcf4fa49f9aec0cdf0a752353ce954696c3e7f149b494c47e88bee3a7ac0063036f726401011e6170706c69636174696f6e2f6a736f6e3b636861727365743d7574662d38004cbf7b2270223a22706f772d3230222c226f70223a226d696e74222c227469636b223a2250455045222c22616d74223a2231303030222c22736f6c7574696f6e223a22504550453a626331717832636c7935673578376b356a6b7376396d61346332753661646c7a78657470616e387071733a303030303030303030303030303030303030303139393431613561653132383937363539383134343239323533333030353762306461393666336465613163353a3431393830393330313333227d68",
        "c0da2c9a1920efdfbecd176e4adbb0ca1150e62509fd8a3a19d8331b0c89a8a97b"
      ],
      "is_coinbase": false,
      "sequence": 4294967295
    }
  ],
  "vout": [
    {
      "scriptpubkey": "001432b1f2511437ad495a0c2efb5c2b9aeb7e236561",
      "scriptpubkey_asm": "OP_0 OP_PUSHBYTES_20 32b1f2511437ad495a0c2efb5c2b9aeb7e236561",
      "scriptpubkey_type": "v0_p2wpkh",
      "scriptpubkey_address": "bc1qx2cly5g5x7k5jksv9ma4c2u6adlzxetpan8pqs",
      "value": 546
    }
  ],
  "size": 455,
  "weight": 701,
  "fee": 2112,
  "status": {
    "confirmed": true,
    "block_height": 834460,
    "block_hash": "00000000000000000000484a79b643b2524bbce82e5d8a442013fa5b8905ed98",
    "block_time": 1710307468
  },
  "hex": "020000000001017b6dc2033b1865c0cb7a0e0279f4ce8848140930b59a0930fc532abe5c8a19331100000000ffffffff01220200000000000016001432b1f2511437ad495a0c2efb5c2b9aeb7e2365610340c70d97fc23dc8a5c443b6954d91a788cbe7f7f731e9f7ecb97c26879ca4cfce2716703197a62e529fd087e653310fc37885b0d9b72667325abd022a1647e69d7fd0c0120cc6f718bcf4fa49f9aec0cdf0a752353ce954696c3e7f149b494c47e88bee3a7ac0063036f726401011e6170706c69636174696f6e2f6a736f6e3b636861727365743d7574662d38004cbf7b2270223a22706f772d3230222c226f70223a226d696e74222c227469636b223a2250455045222c22616d74223a2231303030222c22736f6c7574696f6e223a22504550453a626331717832636c7935673578376b356a6b7376396d61346332753661646c7a78657470616e387071733a303030303030303030303030303030303030303139393431613561653132383937363539383134343239323533333030353762306461393666336465613163353a3431393830393330313333227d6821c0da2c9a1920efdfbecd176e4adbb0ca1150e62509fd8a3a19d8331b0c89a8a97b00000000"
}