{
  "txid": "ad1a22a1a56f9ece93a9f60ea1cfc99b28953b6d1c7d37f5267185a3b38dd2e3",
  "version": 2,
  "locktime": 0,
  "vin": [
    {
      "txid": "852b5d8db5350d0c96851626a0511291e766c867b2428c1c257cebb5a9e65d2d",
      "vout": 0,
      "prevout": {
        "scriptpubkey": "0014c3c6934438ccb385130aae1e38cdbdf66c7bedca",
        "scriptpubkey_asm": "OP_0 OP_PUSHBYTES_20 c3c6934438ccb385130aae1e38cdbdf66c7bedca",
        "scriptpubkey_type": "v0_p2wpkh",
        "scriptpubkey_address": "bc1qc0rfx3pcejec2yc24c0r3nda7ek8hmw2sfvhp9",
        "value": 673493
      },
      "scriptsig": "",
      "scriptsig_asm": "",
      "witness": [
        "3044022045e8700675961d29d5d6711200c775da4eaaa3be03f5baa88cb097da38119b9802203562b04c623ad57810aa42bbfb9977fa529c3764273252e164eb9d41af224d8101",
        "03079a92416ef257b0345b3d10383e8e3f9771d7d7e558a8dcf52db7aeb2ba8ab8"
      ],
      "is_coinbase": false,
      "sequence": 4294967293
    }
  ],
  "vout": [
    {
      "scriptpubkey": "76a9148c2f68c984fe3fdfafcf7a299bb087778110438388ac",
      "scriptpubkey_asm": "OP_DUP OP_HASH160 OP_PUSHBYTES_20 8c2f68c984fe3fdfafcf7a299bb0877781104383 OP_EQUALVERIFY OP_CHECKSIG",
      "scriptpubkey_type": "p2pkh",
      "scriptpubkey_address": "1DnEPv1Nk5iHJTWHEMB2fcnZfqtezx7uzV",
      "value": 672273
    }
  ],
  "size": 194,
  "weight": 449,
  "fee": 1220,
  "status": {
    "confirmed": true,
    "block_height": 834464,
    "block_hash": "0000000000000000000177a0869a911a2b65c9bdcd5a8bcb02b68f305bee848e",
    "block_time": 1710308296
  },
  "hex": "020000000001012d5de6a9b5eb7c251c8c42b267c866e7911251a0261685960c0d35b58d5d2b850000000000fdffffff0111420a00000000001976a9148c2f68c984fe3fdfafcf7a299bb087778110438388ac02473044022045e8700675961d29d5d6711200c775da4eaaa3be03f5baa88cb097da38119b9802203562b04c623ad57810aa42bbfb9977fa529c3764273252e164eb9d41af224d81012103079a92416ef257b0345b3d10383e8e3f9771d7d7e558a8dcf52db7aeb2ba8ab800000000"
}