{
  "txid": "ad229a74035e0e15d712e755ff6fbf1e5dfa4e19724ddaeaf5c804905f3b636b",
  "version": 2,
  "locktime": 0,
  "vin": [
    {
      "txid": "107f10904081ea16d22c9bc68d101e946bc60bfc69d37f6bdc94d95c84d17400",
      "vout": 0,
      "prevout": {
        "scriptpubkey": "a9145c8cc4fea966e032592a9a7f53cb750118e9570b87",
        "scriptpubkey_asm": "OP_HASH160 OP_PUSHBYTES_20 5c8cc4fea966e032592a9a7f53cb750118e9570b OP_EQUAL",
        "scriptpubkey_type": "p2sh",
        "scriptpubkey_address": "3A8Nj2ebeat7PJigopnKp8JpUb6tdxBxiv",
        "value": 593261
      },
      "scriptsig": "16001455dbf83f0fe749160bc0dc5dd730c77055c8bdf3",
      "scriptsig_asm": "OP_PUSHBYTES_22 001455dbf83f0fe749160bc0dc5dd730c77055c8bdf3",
      "witness": [
        "304402207c119b53f4f498d2a71d44b2a0ef2c386150c84e717657c252d751a9db350b4f022007d131463aed13211cf40478002ac9b0825b3393131863695239f4415799f3d601",
        "033c194bbf1d91c2978489c727ef10de2e76f5429369e3db31381d235dafad562b"
      ],
      "is_coinbase": false,
      "sequence": 0,
      "inner_redeemscript_asm": "OP_0 OP_PUSHBYTES_20 55dbf83f0fe749160bc0dc5dd730c77055c8bdf3"
    }
  ],
  "vout": [
    {
      "scriptpubkey": "0014053f1e7f32284f962d998b970a1282a0f6e7ce93",
      "scriptpubkey_asm": "OP_0 OP_PUSHBYTES_20 053f1e7f32284f962d998b970a1282a0f6e7ce93",
      "scriptpubkey_type": "v0_p2wpkh",
      "scriptpubkey_address": "bc1qq5l3ulej9p8evtve3wts5y5z5rmw0n5nv44854",
      "value": 500000
    },
    {
      "scriptpubkey": "a9149f075073dfaa9535a668a814a88172b81c21b4ff87",
      "scriptpubkey_asm": "OP_HASH160 OP_PUSHBYTES_20 9f075073dfaa9535a668a814a88172b81c21b4ff OP_EQUAL",
      "scriptpubkey_type": "p2sh",
      "scriptpubkey_address": "3GBt8FQ3iWWT3hDpqjtgRY2R2CwMPqQevp",
      "value": 91484
    }
  ],
  "size": 246,
  "weight": 657,
  "fee": 1777,
  "status": {
    "confirmed": true,
    "block_height": 834464,
    "block_hash": "0000000000000000000177a0869a911a2b65c9bdcd5a8bcb02b68f305bee848e",
    "block_time": 1710308296
  },
  "hex": "020000000001010074d1845cd994dc6b7fd369fc0bc66b941e108dc69b2cd216ea814090107f10000000001716001455dbf83f0fe749160bc0dc5dd730c77055c8bdf3000000000220a1070000000000160014053f1e7f32284f962d998b970a1282a0f6e7ce935c6501000000000017a9149f075073dfaa9535a668a814a88172b81c21b4ff870247304402207c119b53f4f498d2a71d44b2a0ef2c386150c84e717657c252d751a9db350b4f022007d131463aed13211cf40478002ac9b0825b3393131863695239f4415799f3d60121033c194bbf1d91c2978489c727ef10de2e76f5429369e3db31381d235dafad562b00000000"
}