{
  "txid": "ad2cc93708ce804a7524b9f0a1d633a27188fc6f5133f455f0b517572b69981b",
  "version": 1,
  "locktime": 0,
  "vin": [
    {
      "txid": "14f164801997f34950a795fd47a3a7aac537fe286df4acb60961fef1de242623",
      "vout": 1,
      "prevout": {
        "scriptpubkey": "0014b20f80ddd49219e63e1407a1450ca6acb4907a28",
        "scriptpubkey_asm": "OP_0 OP_PUSHBYTES_20 b20f80ddd49219e63e1407a1450ca6acb4907a28",
        "scriptpubkey_type": "v0_p2wpkh",
        "scriptpubkey_address": "bc1qkg8cphw5jgv7v0s5q7s52r9x4j6fq73gt9tnhv",
        "value": 2482255
      },
      "scriptsig": "",
      "scriptsig_asm": "",
      "witness": [
        "304402203032b4c6911bc1b8fa7d5a44b0c75a7ec08c5daad54aed72d3cfcb1792a1397d02206193a4b66c5ebab87ef69bb123c1a4f1a89edde978e7eb22a2e00a9cf0a9605301",
        "037c1569f808f10bebb38e6c6f8bc163be346c286ea18ab61835b127e533835054"
      ],
      "is_coinbase": false,
      "sequence": 4294967295
    },
    {
      "txid": "5c5c8b40a980510c71dc621f2beecf4934febb8a07355705e292bdcda213d0ae",
      "vout": 1,
      "prevout": {
        "scriptpubkey": "00148ca6e7e26509134af461077fa18a05696fa9c579",
        "scriptpubkey_asm": "OP_0 OP_PUSHBYTES_20 8ca6e7e26509134af461077fa18a05696fa9c579",
        "scriptpubkey_type": "v0_p2wpkh",
        "scriptpubkey_address": "bc1q3jnw0cn9pyf54arpqal6rzs9d9h6n3te4fnsk5",
        "value": 2121554
      },
      "scriptsig": "",
      "scriptsig_asm": "",
      "witness": [
        "30450221009019e8e552581699a77af5d5fd3ddff70de8e316387a8ee0f9b8cf660103220e02205d90401cf0abfb91a59130470b91a4d9c40944a4d492f002e264af076005610e01",
        "02ea4b25e473e762bec8efcd276e901dcdbaed3da31f55581a8ad36b9b77009f7c"
      ],
      "is_coinbase": false,
      "sequence": 4294967295
    },
    {
      "txid": "90ec126c790966dba3eb149e446a9c448020abec77a65612deff5aa972f6b069",
      "vout": 0,
      "prevout": {
        "scriptpubkey": "00142b9d800d27926348ff3297030387ba41bf7cfa69",
        "scriptpubkey_asm": "OP_0 OP_PUSHBYTES_20 2b9d800d27926348ff3297030387ba41bf7cfa69",
        "scriptpubkey_type": "v0_p2wpkh",
        "scriptpubkey_address": "bc1q9wwcqrf8jf353lejjups8pa6gxlhe7nfsq6dzh",
        "value": 2248043
      },
      "scriptsig": "",
      "scriptsig_asm": "",
      "witness": [
        "3045022100ea7513a1fa58f80e1e06901fe5321be013fe9ba4efe7bc10a2c840821dd371be022052635db50712ed245a1ee1a2faba378938e45593c927b4c963d7bcf5f7baaca301",
        "03d4e64ce52e681601c455a028c3f5582ea4498589f6fa1e0f58ec3e8a9efe2ed8"
      ],
      "is_coinbase": false,
      "sequence": 4294967295
    }
  ],
  "vout": [
    {
      "scriptpubkey": "001457cd6c423ce8e297185aac86c0f372822056e770",
      "scriptpubkey_asm": "OP_0 OP_PUSHBYTES_20 57cd6c423ce8e297185aac86c0f372822056e770",
      "scriptpubkey_type": "v0_p2wpkh",
      "scriptpubkey_address": "bc1q2lxkcs3uar3fwxz64jrvpumjsgs9demsy6kmd9",
      "value": 1640816
    },
    {
      "scriptpubkey": "00148798f68ef246e8e7e8c5f05865db71af2195000b",
      "scriptpubkey_asm": "OP_0 OP_PUSHBYTES_20 8798f68ef246e8e7e8c5f05865db71af2195000b",
      "scriptpubkey_type": "v0_p2wpkh",
      "scriptpubkey_address": "bc1qs7v0drhjgm5w06x97pvxtkm34use2qqt43lygt",
      "value": 5208000
    }
  ],
  "size": 520,
  "weight": 1105,
  "fee": 3036,
  "status": {
    "confirmed": true,
    "block_height": 834464,
    "block_hash": "0000000000000000000177a0869a911a2b65c9bdcd5a8bcb02b68f305bee848e",
    "block_time": 1710308296
  },
  "hex": "01000000000103232624def1fe6109b6acf46d28fe37c5aaa7a347fd95a75049f397198064f1140100000000ffffffffaed013a2cdbd92e2055735078abbfe3449cfee2b1f62dc710c5180a9408b5c5c0100000000ffffffff69b0f672a95affde1256a677ecab2080449c6a449e14eba3db6609796c12ec900000000000ffffffff02700919000000000016001457cd6c423ce8e297185aac86c0f372822056e770c0774f00000000001600148798f68ef246e8e7e8c5f05865db71af2195000b0247304402203032b4c6911bc1b8fa7d5a44b0c75a7ec08c5daad54aed72d3cfcb1792a1397d02206193a4b66c5ebab87ef69bb123c1a4f1a89edde978e7eb22a2e00a9cf0a960530121037c1569f808f10bebb38e6c6f8bc163be346c286ea18ab61835b127e533835054024830450221009019e8e552581699a77af5d5fd3ddff70de8e316387a8ee0f9b8cf660103220e02205d90401cf0abfb91a59130470b91a4d9c40944a4d492f002e264af076005610e012102ea4b25e473e762bec8efcd276e901dcdbaed3da31f55581a8ad36b9b77009f7c02483045022100ea7513a1fa58f80e1e06901fe5321be013fe9ba4efe7bc10a2c840821dd371be022052635db50712ed245a1ee1a2faba378938e45593c927b4c963d7bcf5f7baaca3012103d4e64ce52e681601c455a028c3f5582ea4498589f6fa1e0f58ec3e8a9efe2ed800000000"
}