{
  "txid": "ad37195ce91e6649a683ba4d2394d0115be67ef8d34609e34cf072ee563e4898",
  "version": 1,
  "locktime": 0,
  "vin": [
    {
      "txid": "ac235bcfe412fe1e434d3b1c03e1e88ca91f1a0fd132008084eb941589f5bac8",
      "vout": 30,
      "prevout": {
        "scriptpubkey": "5120ad841b457a8b7ae4d64af259083e8d5201b99c81cdf2071b985a747a42049656",
        "scriptpubkey_asm": "OP_PUSHNUM_1 OP_PUSHBYTES_32 ad841b457a8b7ae4d64af259083e8d5201b99c81cdf2071b985a747a42049656",
        "scriptpubkey_type": "v1_p2tr",
        "scriptpubkey_address": "bc1p4kzpk3t63dawf4j27fvss05d2gqmn8ypeheqwxuctf685ssyjetqg3lt4s",
        "value": 14000
      },
      "scriptsig": "",
      "scriptsig_asm": "",
      "witness": [
        "a737ce8cfa1958f626ea2ff7e7d593704b14a71decdab9cc8da11acab8a2032206d50ce7582b11bcb8f620ef16f1e169957b0d79b4e2987d4ff3b270b2fdeaf7"
      ],
      "is_coinbase": false,
      "sequence": 4294967293
    }
  ],
  "vout": [
    {
      "scriptpubkey": "51204131c169e7f421303ac01ec8388d3ef5abf2a3bc4176962f29cb01aedc77c55a",
      "scriptpubkey_asm": "OP_PUSHNUM_1 OP_PUSHBYTES_32 4131c169e7f421303ac01ec8388d3ef5abf2a3bc4176962f29cb01aedc77c55a",
      "scriptpubkey_type": "v1_p2tr",
      "scriptpubkey_address": "bc1pgycuz6087ssnqwkqrmyr3rf77k4l9gaug9mfvtefevq6ahrhc4dqhahl0g",
      "value": 2346
    },
    {
      "scriptpubkey": "5120f667578b85bed256c7fcb9f2cda488d5281e52ca42e7dd4bc21e95149562f09f",
      "scriptpubkey_asm": "OP_PUSHNUM_1 OP_PUSHBYTES_32 f667578b85bed256c7fcb9f2cda488d5281e52ca42e7dd4bc21e95149562f09f",
      "scriptpubkey_type": "v1_p2tr",
      "scriptpubkey_address": "bc1p7en40zu9hmf9d3luh8evmfyg655pu5k2gtna6j7zr623f9tz7z0stfnwav",
      "value": 2113
    },
    {
      "scriptpubkey": "5120ad841b457a8b7ae4d64af259083e8d5201b99c81cdf2071b985a747a42049656",
      "scriptpubkey_asm": "OP_PUSHNUM_1 OP_PUSHBYTES_32 ad841b457a8b7ae4d64af259083e8d5201b99c81cdf2071b985a747a42049656",
      "scriptpubkey_type": "v1_p2tr",
      "scriptpubkey_address": "bc1p4kzpk3t63dawf4j27fvss05d2gqmn8ypeheqwxuctf685ssyjetqg3lt4s",
      "value": 7165
    }
  ],
  "size": 248,
  "weight": 788,
  "fee": 2376,
  "status": {
    "confirmed": true,
    "block_height": 834460,
    "block_hash": "00000000000000000000484a79b643b2524bbce82e5d8a442013fa5b8905ed98",
    "block_time": 1710307468
  },
  "hex": "01000000000101c8baf5891594eb84800032d10f1a1fa98ce8e1031c3b4d431efe12e4cf5b23ac1e00000000fdffffff032a090000000000002251204131c169e7f421303ac01ec8388d3ef5abf2a3bc4176962f29cb01aedc77c55a4108000000000000225120f667578b85bed256c7fcb9f2cda488d5281e52ca42e7dd4bc21e95149562f09ffd1b000000000000225120ad841b457a8b7ae4d64af259083e8d5201b99c81cdf2071b985a747a420496560140a737ce8cfa1958f626ea2ff7e7d593704b14a71decdab9cc8da11acab8a2032206d50ce7582b11bcb8f620ef16f1e169957b0d79b4e2987d4ff3b270b2fdeaf700000000"
}