{
  "txid": "ad3ab415a409ea6ebf4ffac39fc079ffcb68168064d39953054c62b631cc75f2",
  "version": 2,
  "locktime": 0,
  "vin": [
    {
      "txid": "e60d01f1eeee2dbec06ec3a8d448424ca93ea4dcefc453871fc404580cc03558",
      "vout": 2,
      "prevout": {
        "scriptpubkey": "51206a4b76b41e8b2825968463a7bac6552d479e51a5aac4ecdb18d44447e8eb7a71",
        "scriptpubkey_asm": "OP_PUSHNUM_1 OP_PUSHBYTES_32 6a4b76b41e8b2825968463a7bac6552d479e51a5aac4ecdb18d44447e8eb7a71",
        "scriptpubkey_type": "v1_p2tr",
        "scriptpubkey_address": "bc1pdf9hddq73v5zt95yvwnm43j494reu5d94tzwekcc63zy068t0fcst7c04t",
        "value": 2634
      },
      "scriptsig": "",
      "scriptsig_asm": "",
      "witness": [
        "38afabae4729ec8268546d0c450a7cf1229207b0100e92887e920e20d6f2fb905e03a91fc3f10dfae658effd1587c84b3d148ab1b665a060ed302df79c1d0dae",
        "20e4d119f69328d4aaec25517396779dddf659435461bc9c30c31e3a63202cc443ac0063036f726401011e6170706c69636174696f6e2f6a736f6e3b636861727365743d7574662d38004cb67b2270223a22706f772d3230222c226f70223a226d696e74222c227469636b223a2250455045222c22616d74223a2231303030222c22736f6c7574696f6e223a22504550453a3351345a614567486177466561585773437a6d775a743766465543593771377759703a303030303030303030303030303030303030303139393431613561653132383937363539383134343239323533333030353762306461393666336465613163353a32363632353136373531227d68",
        "c08db7ab6533b96c0773861c29df1705bf8b1dfa6577ecaa232ec7cdccd60ed417"
      ],
      "is_coinbase": false,
      "sequence": 4294967295
    }
  ],
  "vout": [
    {
      "scriptpubkey": "a914f565ec243898a586d6342e6d91e39b804127827787",
      "scriptpubkey_asm": "OP_HASH160 OP_PUSHBYTES_20 f565ec243898a586d6342e6d91e39b8041278277 OP_EQUAL",
      "scriptpubkey_type": "p2sh",
      "scriptpubkey_address": "3Q4ZaEgHawFeaXWsCzmwZt7fFUCY7q7wYp",
      "value": 546
    }
  ],
  "size": 447,
  "weight": 696,
  "fee": 2088,
  "status": {
    "confirmed": true,
    "block_height": 834460,
    "block_hash": "00000000000000000000484a79b643b2524bbce82e5d8a442013fa5b8905ed98",
    "block_time": 1710307468
  },
  "hex": "020000000001015835c00c5804c41f8753c4efdca43ea94c4248d4a8c36ec0be2deeeef1010de60200000000ffffffff01220200000000000017a914f565ec243898a586d6342e6d91e39b804127827787034038afabae4729ec8268546d0c450a7cf1229207b0100e92887e920e20d6f2fb905e03a91fc3f10dfae658effd1587c84b3d148ab1b665a060ed302df79c1d0daefd030120e4d119f69328d4aaec25517396779dddf659435461bc9c30c31e3a63202cc443ac0063036f726401011e6170706c69636174696f6e2f6a736f6e3b636861727365743d7574662d38004cb67b2270223a22706f772d3230222c226f70223a226d696e74222c227469636b223a2250455045222c22616d74223a2231303030222c22736f6c7574696f6e223a22504550453a3351345a614567486177466561585773437a6d775a743766465543593771377759703a303030303030303030303030303030303030303139393431613561653132383937363539383134343239323533333030353762306461393666336465613163353a32363632353136373531227d6821c08db7ab6533b96c0773861c29df1705bf8b1dfa6577ecaa232ec7cdccd60ed41700000000"
}