{
  "txid": "ad4281028ff2d41d0b422540ff3b671d70787a6696172d282d8c5590e689c564",
  "version": 2,
  "locktime": 0,
  "vin": [
    {
      "txid": "35cd2e3fc8ed4775df3439f0972799a82e6885da8a6f3757138a707316cbda90",
      "vout": 1,
      "prevout": {
        "scriptpubkey": "0014441bf8115332179c738e3b22bce6fb50ebd8c7f8",
        "scriptpubkey_asm": "OP_0 OP_PUSHBYTES_20 441bf8115332179c738e3b22bce6fb50ebd8c7f8",
        "scriptpubkey_type": "v0_p2wpkh",
        "scriptpubkey_address": "bc1qgsdlsy2nxgtecuuw8v3teehm2r4a33lca6xsl8",
        "value": 80253
      },
      "scriptsig": "",
      "scriptsig_asm": "",
      "witness": [
        "3045022100d5e52d369cd4f915f69f7f17999b6df621df175cac3476e68593157e6823066c0220283ac8c03f237d2c54c09fa3afd451e4823351af4e85801157c4e5f0782bac1c01",
        "0248a76b191023132c696f0478f95e9bffe514e97cc530e73e7397f60bfb568c89"
      ],
      "is_coinbase": false,
      "sequence": 4294967293
    }
  ],
  "vout": [
    {
      "scriptpubkey": "001417e75ae81f4d1bdc71380acb081af7bdaf9d3dc7",
      "scriptpubkey_asm": "OP_0 OP_PUSHBYTES_20 17e75ae81f4d1bdc71380acb081af7bdaf9d3dc7",
      "scriptpubkey_type": "v0_p2wpkh",
      "scriptpubkey_address": "bc1qzln446qlf5dacufcpt9ssxhhhkhe60w8m9h7eg",
      "value": 12544
    },
    {
      "scriptpubkey": "0014441bf8115332179c738e3b22bce6fb50ebd8c7f8",
      "scriptpubkey_asm": "OP_0 OP_PUSHBYTES_20 441bf8115332179c738e3b22bce6fb50ebd8c7f8",
      "scriptpubkey_type": "v0_p2wpkh",
      "scriptpubkey_address": "bc1qgsdlsy2nxgtecuuw8v3teehm2r4a33lca6xsl8",
      "value": 66179
    }
  ],
  "size": 223,
  "weight": 562,
  "fee": 1530,
  "status": {
    "confirmed": true,
    "block_height": 834464,
    "block_hash": "0000000000000000000177a0869a911a2b65c9bdcd5a8bcb02b68f305bee848e",
    "block_time": 1710308296
  },
  "hex": "0200000000010190dacb1673708a1357376f8ada85682ea8992797f03934df7547edc83f2ecd350100000000fdffffff02003100000000000016001417e75ae81f4d1bdc71380acb081af7bdaf9d3dc78302010000000000160014441bf8115332179c738e3b22bce6fb50ebd8c7f802483045022100d5e52d369cd4f915f69f7f17999b6df621df175cac3476e68593157e6823066c0220283ac8c03f237d2c54c09fa3afd451e4823351af4e85801157c4e5f0782bac1c01210248a76b191023132c696f0478f95e9bffe514e97cc530e73e7397f60bfb568c8900000000"
}