{
  "txid": "ad6536d46446803ff45ebfb20101d3a0b92f870e13678c403a70d630ebacc963",
  "version": 2,
  "locktime": 0,
  "vin": [
    {
      "txid": "c3a4d8229277ee5bceaf32309e3b4c7ec0a009346cd96ebeb7f9eec6ec347da5",
      "vout": 2,
      "prevout": {
        "scriptpubkey": "5120e89c048efa8c700af0369a12c3829e4a368e7c754467d4637e01858a96818dbf",
        "scriptpubkey_asm": "OP_PUSHNUM_1 OP_PUSHBYTES_32 e89c048efa8c700af0369a12c3829e4a368e7c754467d4637e01858a96818dbf",
        "scriptpubkey_type": "v1_p2tr",
        "scriptpubkey_address": "bc1pazwqfrh633cq4upkngfv8q57fgmgulr4g3nagcm7qxzc495p3klsum5fze",
        "value": 2306
      },
      "scriptsig": "",
      "scriptsig_asm": "",
      "witness": [
        "8a49ca6b13655df55a1b8607adb3abe4c62a9ee7cf54e6242c798462bf930b4482c8ed6a375ffa0ce487ddaa1726305beeb31b49336278a8277ae0df097af01c",
        "2084dec53fdc6ba1e36af7b51de292ffdf9cd7915207234a399470b2d7a557fd69ac0063036f7264010118746578742f706c61696e3b636861727365743d7574662d3800387b2270223a226272632d3230222c226f70223a226d696e74222c227469636b223a2262696e75222c22616d74223a2231303030303030227d68",
        "c184dec53fdc6ba1e36af7b51de292ffdf9cd7915207234a399470b2d7a557fd69"
      ],
      "is_coinbase": false,
      "sequence": 4294967293
    }
  ],
  "vout": [
    {
      "scriptpubkey": "51200c0321fca81c642d9356059a30972231e7238510a3587f7261ea06a42bfbcb33",
      "scriptpubkey_asm": "OP_PUSHNUM_1 OP_PUSHBYTES_32 0c0321fca81c642d9356059a30972231e7238510a3587f7261ea06a42bfbcb33",
      "scriptpubkey_type": "v1_p2tr",
      "scriptpubkey_address": "bc1ppspjrl9gr3jzmy6kqkdrp9ezx8nj8pgs5dv87unpagr2g2lmevesum66jc",
      "value": 330
    }
  ],
  "size": 323,
  "weight": 605,
  "fee": 1976,
  "status": {
    "confirmed": true,
    "block_height": 834460,
    "block_hash": "00000000000000000000484a79b643b2524bbce82e5d8a442013fa5b8905ed98",
    "block_time": 1710307468
  },
  "hex": "02000000000101a57d34ecc6eef9b7be6ed96c3409a0c07e4c3b9e3032afce5bee779222d8a4c30200000000fdffffff014a010000000000002251200c0321fca81c642d9356059a30972231e7238510a3587f7261ea06a42bfbcb3303408a49ca6b13655df55a1b8607adb3abe4c62a9ee7cf54e6242c798462bf930b4482c8ed6a375ffa0ce487ddaa1726305beeb31b49336278a8277ae0df097af01c7e2084dec53fdc6ba1e36af7b51de292ffdf9cd7915207234a399470b2d7a557fd69ac0063036f7264010118746578742f706c61696e3b636861727365743d7574662d3800387b2270223a226272632d3230222c226f70223a226d696e74222c227469636b223a2262696e75222c22616d74223a2231303030303030227d6821c184dec53fdc6ba1e36af7b51de292ffdf9cd7915207234a399470b2d7a557fd6900000000"
}