{
  "txid": "ad6b8fb113f4e633614ceff7c43b1dc4bef448ba5387513e1f9c82eee9e9f0d5",
  "version": 2,
  "locktime": 0,
  "vin": [
    {
      "txid": "836bb5dd3805f08e9d621419936f01d0b8cde94b871e67660df1ac5a2dd32a07",
      "vout": 1,
      "prevout": {
        "scriptpubkey": "a914361af48987ee8f5298238db9429efabe8f0cbebf87",
        "scriptpubkey_asm": "OP_HASH160 OP_PUSHBYTES_20 361af48987ee8f5298238db9429efabe8f0cbebf OP_EQUAL",
        "scriptpubkey_type": "p2sh",
        "scriptpubkey_address": "36d6hnSrHeXA5VP9pifFxmKfq5FtUmXrhU",
        "value": 1007306
      },
      "scriptsig": "1600146ae39c50bef5e6502181654263f1fd66fded170c",
      "scriptsig_asm": "OP_PUSHBYTES_22 00146ae39c50bef5e6502181654263f1fd66fded170c",
      "witness": [
        "304402200d37cd5ec3fb545f899b64d37b665c3bb1dd49bb8feae0fb3c918ee228e8ba0902207c4616393bc939c8195408a112129698d8bdcfb88a75901372c9ebf79d7ac8cc01",
        "03c278014086f51aadfa6e4609df1c417fd1f26d454fcb1500cf51c1c8e44fdb3b"
      ],
      "is_coinbase": false,
      "sequence": 4294967293,
      "inner_redeemscript_asm": "OP_0 OP_PUSHBYTES_20 6ae39c50bef5e6502181654263f1fd66fded170c"
    }
  ],
  "vout": [
    {
      "scriptpubkey": "76a914792f1c2f08de1fc9bcf9f75b11744493883ca34688ac",
      "scriptpubkey_asm": "OP_DUP OP_HASH160 OP_PUSHBYTES_20 792f1c2f08de1fc9bcf9f75b11744493883ca346 OP_EQUALVERIFY OP_CHECKSIG",
      "scriptpubkey_type": "p2pkh",
      "scriptpubkey_address": "1C3mCUjM4hEPC62wEk3ZLLD3ZcCRPFEuTi",
      "value": 680000
    },
    {
      "scriptpubkey": "a914361af48987ee8f5298238db9429efabe8f0cbebf87",
      "scriptpubkey_asm": "OP_HASH160 OP_PUSHBYTES_20 361af48987ee8f5298238db9429efabe8f0cbebf OP_EQUAL",
      "scriptpubkey_type": "p2sh",
      "scriptpubkey_address": "36d6hnSrHeXA5VP9pifFxmKfq5FtUmXrhU",
      "value": 324961
    }
  ],
  "size": 249,
  "weight": 669,
  "fee": 2345,
  "status": {
    "confirmed": true,
    "block_height": 834460,
    "block_hash": "00000000000000000000484a79b643b2524bbce82e5d8a442013fa5b8905ed98",
    "block_time": 1710307468
  },
  "hex": "02000000000101072ad32d5aacf10d66671e874be9cdb8d0016f931914629d8ef00538ddb56b8301000000171600146ae39c50bef5e6502181654263f1fd66fded170cfdffffff0240600a00000000001976a914792f1c2f08de1fc9bcf9f75b11744493883ca34688ac61f504000000000017a914361af48987ee8f5298238db9429efabe8f0cbebf870247304402200d37cd5ec3fb545f899b64d37b665c3bb1dd49bb8feae0fb3c918ee228e8ba0902207c4616393bc939c8195408a112129698d8bdcfb88a75901372c9ebf79d7ac8cc012103c278014086f51aadfa6e4609df1c417fd1f26d454fcb1500cf51c1c8e44fdb3b00000000"
}