{
  "txid": "ad83d40410e9e11db4b266c11854f9e9185b5d90d67e9922941576a7b6a864fd",
  "version": 1,
  "locktime": 0,
  "vin": [
    {
      "txid": "9f924eb1737c088b362c399b536cbd75493c6888732a11ccf42b6b69ff96b5ca",
      "vout": 1,
      "prevout": {
        "scriptpubkey": "001496961ff52bfc76fba62d2c933a95328e91d871c6",
        "scriptpubkey_asm": "OP_0 OP_PUSHBYTES_20 96961ff52bfc76fba62d2c933a95328e91d871c6",
        "scriptpubkey_type": "v0_p2wpkh",
        "scriptpubkey_address": "bc1qj6tplaftl3m0hf3d9jfn49fj36gasuwxdg3f6r",
        "value": 2264235
      },
      "scriptsig": "",
      "scriptsig_asm": "",
      "witness": [
        "304402200639e6d7e6ec88bea40c0c4e9dc6d39c7c97ebbc8af3f112d71d73bea022352a02203b86ce4d28655f7096ed8d0231ecdbf2d18cefc9a3b51fbde70a83f478fbd2df01",
        "03cb1d513b99cf64c88fdb545494ff2db3fca1ba6fae77f683f4512a1480def50b"
      ],
      "is_coinbase": false,
      "sequence": 4294967295
    }
  ],
  "vout": [
    {
      "scriptpubkey": "0014e07f6dafae318f279d5bb5a5964c8e7fbc7c10b4",
      "scriptpubkey_asm": "OP_0 OP_PUSHBYTES_20 e07f6dafae318f279d5bb5a5964c8e7fbc7c10b4",
      "scriptpubkey_type": "v0_p2wpkh",
      "scriptpubkey_address": "bc1quplkmtawxx8j082mkkjevnyw0778cy95vdkwzj",
      "value": 489854
    },
    {
      "scriptpubkey": "001496961ff52bfc76fba62d2c933a95328e91d871c6",
      "scriptpubkey_asm": "OP_0 OP_PUSHBYTES_20 96961ff52bfc76fba62d2c933a95328e91d871c6",
      "scriptpubkey_type": "v0_p2wpkh",
      "scriptpubkey_address": "bc1qj6tplaftl3m0hf3d9jfn49fj36gasuwxdg3f6r",
      "value": 1772830
    }
  ],
  "size": 222,
  "weight": 561,
  "fee": 1551,
  "status": {
    "confirmed": true,
    "block_height": 834464,
    "block_hash": "0000000000000000000177a0869a911a2b65c9bdcd5a8bcb02b68f305bee848e",
    "block_time": 1710308296
  },
  "hex": "01000000000101cab596ff696b2bf4cc112a7388683c4975bd6c539b392c368b087c73b14e929f0100000000ffffffff027e79070000000000160014e07f6dafae318f279d5bb5a5964c8e7fbc7c10b41e0d1b000000000016001496961ff52bfc76fba62d2c933a95328e91d871c60247304402200639e6d7e6ec88bea40c0c4e9dc6d39c7c97ebbc8af3f112d71d73bea022352a02203b86ce4d28655f7096ed8d0231ecdbf2d18cefc9a3b51fbde70a83f478fbd2df012103cb1d513b99cf64c88fdb545494ff2db3fca1ba6fae77f683f4512a1480def50b00000000"
}