{
  "txid": "ad90a93589b4afe272455de68769433643249e5fd6fdd0142c00fc5baae53953",
  "version": 2,
  "locktime": 0,
  "vin": [
    {
      "txid": "c053392fa38e65299d35f2a785ae75b0c178d11ef8596bd1496f9860d9e56666",
      "vout": 1,
      "prevout": {
        "scriptpubkey": "0014f5d5eb73d1aa6511502eae9595dbab4bb59da969",
        "scriptpubkey_asm": "OP_0 OP_PUSHBYTES_20 f5d5eb73d1aa6511502eae9595dbab4bb59da969",
        "scriptpubkey_type": "v0_p2wpkh",
        "scriptpubkey_address": "bc1q7h27ku734fj3z5pw462etkatfw6em2tfy29ty0",
        "value": 1048146
      },
      "scriptsig": "",
      "scriptsig_asm": "",
      "witness": [
        "30450221008af10ae7deb9c1c49f3d5a5b851afab08b46f92c0cf7eddb73b298e2c64a901d022076e8c4a2b3c95d2902388869756dff29276fd5954976d5fb9e143b399ed1569501",
        "03bcb7d61037f1a8d08dc2386006115f3ee7bee0e04b2c9909ea15b80560a2c39f"
      ],
      "is_coinbase": false,
      "sequence": 4294967293
    },
    {
      "txid": "f015283c85a2b6efe83cdfda0423699eec303e22d5dc6e8780a0b3ad4d17da01",
      "vout": 0,
      "prevout": {
        "scriptpubkey": "00147b6a4b50e1465c4034a532426d2006d6ca2a516a",
        "scriptpubkey_asm": "OP_0 OP_PUSHBYTES_20 7b6a4b50e1465c4034a532426d2006d6ca2a516a",
        "scriptpubkey_type": "v0_p2wpkh",
        "scriptpubkey_address": "bc1q0d4yk58pgewyqd99xfpx6gqx6m9z55t22f9qv4",
        "value": 1035225
      },
      "scriptsig": "",
      "scriptsig_asm": "",
      "witness": [
        "3044022039b9af5bb6ebf3827ee627d94a255800cf69b982f01453e819682cf131faae72022034f5a36735f52b0e2f72961f1109809c12e336e9096255ac0e5bf3ef3cecd29801",
        "02263357013f2cdc3782a181bd0603458d1c88219cbf96c31d65cdd45c7438e468"
      ],
      "is_coinbase": false,
      "sequence": 4294967293
    }
  ],
  "vout": [
    {
      "scriptpubkey": "00147da9b8b4eca94b5e4ff83d361bf93bd20bde8b64",
      "scriptpubkey_asm": "OP_0 OP_PUSHBYTES_20 7da9b8b4eca94b5e4ff83d361bf93bd20bde8b64",
      "scriptpubkey_type": "v0_p2wpkh",
      "scriptpubkey_address": "bc1q0k5m3d8v4994unlc85mph7fm6g9aazmya0288p",
      "value": 1346589
    },
    {
      "scriptpubkey": "001404f2a5349306d713c031bc9f63f19382cfa384a6",
      "scriptpubkey_asm": "OP_0 OP_PUSHBYTES_20 04f2a5349306d713c031bc9f63f19382cfa384a6",
      "scriptpubkey_type": "v0_p2wpkh",
      "scriptpubkey_address": "bc1qqne22dynqmt38sp3hj0k8uvnst868p9xwmvj0x",
      "value": 734068
    }
  ],
  "size": 371,
  "weight": 833,
  "fee": 2714,
  "status": {
    "confirmed": true,
    "block_height": 834460,
    "block_hash": "00000000000000000000484a79b643b2524bbce82e5d8a442013fa5b8905ed98",
    "block_time": 1710307468
  },
  "hex": "020000000001026666e5d960986f49d16b59f81ed178c1b075ae85a7f2359d29658ea32f3953c00100000000fdffffff01da174dadb3a080876edcd5223e30ec9e692304dadf3ce8efb6a2853c2815f00000000000fdffffff021d8c1400000000001600147da9b8b4eca94b5e4ff83d361bf93bd20bde8b6474330b000000000016001404f2a5349306d713c031bc9f63f19382cfa384a6024830450221008af10ae7deb9c1c49f3d5a5b851afab08b46f92c0cf7eddb73b298e2c64a901d022076e8c4a2b3c95d2902388869756dff29276fd5954976d5fb9e143b399ed15695012103bcb7d61037f1a8d08dc2386006115f3ee7bee0e04b2c9909ea15b80560a2c39f02473044022039b9af5bb6ebf3827ee627d94a255800cf69b982f01453e819682cf131faae72022034f5a36735f52b0e2f72961f1109809c12e336e9096255ac0e5bf3ef3cecd298012102263357013f2cdc3782a181bd0603458d1c88219cbf96c31d65cdd45c7438e46800000000"
}