{
  "txid": "adba8f453d7db198bcd916ffa9b5d28b405ded23e684034a0b468de798e1989a",
  "version": 2,
  "locktime": 0,
  "vin": [
    {
      "txid": "bd968cdbc276d4187ba82857b6c12812aa0f6ec194b91531ef8eef91c4d18262",
      "vout": 3,
      "prevout": {
        "scriptpubkey": "0014e0a839246df75dd149d7f0a78384c8d3b774fabd",
        "scriptpubkey_asm": "OP_0 OP_PUSHBYTES_20 e0a839246df75dd149d7f0a78384c8d3b774fabd",
        "scriptpubkey_type": "v0_p2wpkh",
        "scriptpubkey_address": "bc1quz5rjfrd7awazjwh7znc8pxg6wmhf74a9lk8fr",
        "value": 33432
      },
      "scriptsig": "",
      "scriptsig_asm": "",
      "witness": [
        "304402203a13214d493fb54107182a1b3559ea71805cb670623c4eaafc214be352bc353502203041f5da5c5e69ee4d2778e5426b47b50cca681a60878f09756615fc47f8157001",
        "0261f832e93e3c828234d28f7f9b694349fe2b83df1f714dbf422c172f9fc4b568"
      ],
      "is_coinbase": false,
      "sequence": 4294967295
    }
  ],
  "vout": [
    {
      "scriptpubkey": "001448dfa704897f78fdfbc2b9534055dd9b219ef5a8",
      "scriptpubkey_asm": "OP_0 OP_PUSHBYTES_20 48dfa704897f78fdfbc2b9534055dd9b219ef5a8",
      "scriptpubkey_type": "v0_p2wpkh",
      "scriptpubkey_address": "bc1qfr06wpyf0au0m77zh9f5q4wanvseaadgq9qhf9",
      "value": 12292
    },
    {
      "scriptpubkey": "0014e0a839246df75dd149d7f0a78384c8d3b774fabd",
      "scriptpubkey_asm": "OP_0 OP_PUSHBYTES_20 e0a839246df75dd149d7f0a78384c8d3b774fabd",
      "scriptpubkey_type": "v0_p2wpkh",
      "scriptpubkey_address": "bc1quz5rjfrd7awazjwh7znc8pxg6wmhf74a9lk8fr",
      "value": 19166
    }
  ],
  "size": 222,
  "weight": 561,
  "fee": 1974,
  "status": {
    "confirmed": true,
    "block_height": 834552,
    "block_hash": "00000000000000000001dd0468a70c94f619251d286585cff57aeb4bd9ede330",
    "block_time": 1710355598
  },
  "hex": "020000000001016282d1c491ef8eef3115b994c16e0faa1228c1b65728a87b18d476c2db8c96bd0300000000ffffffff02043000000000000016001448dfa704897f78fdfbc2b9534055dd9b219ef5a8de4a000000000000160014e0a839246df75dd149d7f0a78384c8d3b774fabd0247304402203a13214d493fb54107182a1b3559ea71805cb670623c4eaafc214be352bc353502203041f5da5c5e69ee4d2778e5426b47b50cca681a60878f09756615fc47f8157001210261f832e93e3c828234d28f7f9b694349fe2b83df1f714dbf422c172f9fc4b56800000000"
}