{
  "txid": "add41ddecdda826244d2df981768186914ba33f995ed6eb7dcca3c6f5bbb8f55",
  "version": 1,
  "locktime": 0,
  "vin": [
    {
      "txid": "ec6618e71efbb71e50ac23ce8356bc5a9708d3f6362a7354c0993f72549d8c97",
      "vout": 0,
      "prevout": {
        "scriptpubkey": "5120a3e6d966d3ff2b47349b29e4899378054bedd24a1d0515800eb0e6f4cd5bd431",
        "scriptpubkey_asm": "OP_PUSHNUM_1 OP_PUSHBYTES_32 a3e6d966d3ff2b47349b29e4899378054bedd24a1d0515800eb0e6f4cd5bd431",
        "scriptpubkey_type": "v1_p2tr",
        "scriptpubkey_address": "bc1p50ndjeknlu45wdym98jgnymcq497m5j2r5z3tqqwkrn0fn2m6scsc9l79q",
        "value": 2346
      },
      "scriptsig": "",
      "scriptsig_asm": "",
      "witness": [
        "1dbf7cee0223fb503a4d8308fb6c162907d5e195347bb7fd89a0cd4bdf7ffbd40e8eedeae0b819f64881eeeca246434eb971cabf3d9f5b519ac456970212c316",
        "202876b26f42b0642b8d4d6c489867c2d9dca43c921b960018b5851e03eae55965ac0063036f726401010a746578742f706c61696e003e7b2270223a226272632d3230222c226f70223a227472616e73666572222c227469636b223a2253415453222c22616d74223a22313030303030303030227d68",
        "c02876b26f42b0642b8d4d6c489867c2d9dca43c921b960018b5851e03eae55965"
      ],
      "is_coinbase": false,
      "sequence": 4294967293
    }
  ],
  "vout": [
    {
      "scriptpubkey": "51207d4e030cc7cb74ee91f83b4cc630a1b4f23ce1752ccb3514da3679e9769bf9bc",
      "scriptpubkey_asm": "OP_PUSHNUM_1 OP_PUSHBYTES_32 7d4e030cc7cb74ee91f83b4cc630a1b4f23ce1752ccb3514da3679e9769bf9bc",
      "scriptpubkey_type": "v1_p2tr",
      "scriptpubkey_address": "bc1p048qxrx8ed6way0c8dxvvv9pknerect49n9n29x6xeu7ja5mlx7qt3dr6l",
      "value": 546
    }
  ],
  "size": 315,
  "weight": 597,
  "fee": 1800,
  "status": {
    "confirmed": true,
    "block_height": 834460,
    "block_hash": "00000000000000000000484a79b643b2524bbce82e5d8a442013fa5b8905ed98",
    "block_time": 1710307468
  },
  "hex": "01000000000101978c9d54723f99c054732a36f6d308975abc5683ce23ac501eb7fb1ee71866ec0000000000fdffffff0122020000000000002251207d4e030cc7cb74ee91f83b4cc630a1b4f23ce1752ccb3514da3679e9769bf9bc03401dbf7cee0223fb503a4d8308fb6c162907d5e195347bb7fd89a0cd4bdf7ffbd40e8eedeae0b819f64881eeeca246434eb971cabf3d9f5b519ac456970212c31676202876b26f42b0642b8d4d6c489867c2d9dca43c921b960018b5851e03eae55965ac0063036f726401010a746578742f706c61696e003e7b2270223a226272632d3230222c226f70223a227472616e73666572222c227469636b223a2253415453222c22616d74223a22313030303030303030227d6821c02876b26f42b0642b8d4d6c489867c2d9dca43c921b960018b5851e03eae5596500000000"
}