{
  "txid": "add4466812a39d41a59f23c14e7ef5f923d498a415b3b5a9e243db0d1ddeffbc",
  "version": 1,
  "locktime": 0,
  "vin": [
    {
      "txid": "49d3cd19c11ff6866beeb9ee73fa0bc0a03c61cf86793f4fd9099032616f832c",
      "vout": 5,
      "prevout": {
        "scriptpubkey": "0014b1479523aa997551aa6e24f23dab2d37537846ef",
        "scriptpubkey_asm": "OP_0 OP_PUSHBYTES_20 b1479523aa997551aa6e24f23dab2d37537846ef",
        "scriptpubkey_type": "v0_p2wpkh",
        "scriptpubkey_address": "bc1qk9re2ga2n964r2nwynerm2edxafhs3h0vtntqn",
        "value": 299783
      },
      "scriptsig": "",
      "scriptsig_asm": "",
      "witness": [
        "30450221009bc8bce684733a8e31627cc4e0b8091dc669fcd716a2c339cb0e4f4ae4bac17802205bd65a75a8c3f7761d842e555ee27a8ce4ce7a816a4e1bb02b8192c87e89b7e601",
        "0228ad45e3504a916ffc42d01a07fb41e0558b19baf9c2c6c16ff4528eb3c7e7d8"
      ],
      "is_coinbase": false,
      "sequence": 4294967293
    },
    {
      "txid": "ac364f68fac8bbaf3230e097752f0892f5c1fc6f63f4ebc21f223431988ce635",
      "vout": 101,
      "prevout": {
        "scriptpubkey": "001464b183bcc474c9739a9f8585a6eee77e68c439e0",
        "scriptpubkey_asm": "OP_0 OP_PUSHBYTES_20 64b183bcc474c9739a9f8585a6eee77e68c439e0",
        "scriptpubkey_type": "v0_p2wpkh",
        "scriptpubkey_address": "bc1qvjcc80xywnyh8x5lskz6dmh80e5vgw0qr2la42",
        "value": 211228
      },
      "scriptsig": "",
      "scriptsig_asm": "",
      "witness": [
        "3045022100a54f75a38acc86a69353eb5f4e3a0d1a64ce9714359f3c5b04f8487cd2e9537d02203580e9ba842153de9f94782ef1270ae95ff58b22ef20236048cfa2e4db297a5101",
        "03f31dd6d7d14f556a09ed6887bf8ab007ea7da531add38830031c29b3455b9548"
      ],
      "is_coinbase": false,
      "sequence": 4294967293
    },
    {
      "txid": "2b54c0d5e6556bff4a7e4ead000ed3e096476a0ba4812d58f17a0a12f0a4cd88",
      "vout": 3,
      "prevout": {
        "scriptpubkey": "0014a0b323292ca131e12deef21c827cf409d0dddb7b",
        "scriptpubkey_asm": "OP_0 OP_PUSHBYTES_20 a0b323292ca131e12deef21c827cf409d0dddb7b",
        "scriptpubkey_type": "v0_p2wpkh",
        "scriptpubkey_address": "bc1q5zejx2fv5yc7zt0w7gwgyl85p8gdmkmmgc0e6t",
        "value": 177652
      },
      "scriptsig": "",
      "scriptsig_asm": "",
      "witness": [
        "3044022041a8c3e5b041de666d5fad9fd399bd50919c8f3539b1bbf0df4329353c90255702201c55d907424ae181719a94cf74113d83c8a900404fe177322ec4c4510cb16f4601",
        "028e09671a79fdaa3ab6da1d1bb7ad654672564ff5daf66928acc31796a818edb9"
      ],
      "is_coinbase": false,
      "sequence": 4294967293
    },
    {
      "txid": "e4ccf8a14cb483f16241a5ad1e1ad52fb6005f16a03575882193b571f5700e92",
      "vout": 2,
      "prevout": {
        "scriptpubkey": "0014bf4ae78baa8f6cced7b1c04b93d64c026a676402",
        "scriptpubkey_asm": "OP_0 OP_PUSHBYTES_20 bf4ae78baa8f6cced7b1c04b93d64c026a676402",
        "scriptpubkey_type": "v0_p2wpkh",
        "scriptpubkey_address": "bc1qha9w0za23akva4a3cp9e84jvqf4xweqzkx8w5g",
        "value": 154041
      },
      "scriptsig": "",
      "scriptsig_asm": "",
      "witness": [
        "304402207c861a133546411c4e5da140063b90cdfc47cd4c1d764c617c4df8e0c8007de30220342c8acddbf98c9ab92f2f975e8acc423857fc26338fc2ac504f2d680d9accab01",
        "0278032c4299b8d069efdf5d2c953be221c32590758e8329530d07306d1a92e3c2"
      ],
      "is_coinbase": false,
      "sequence": 4294967293
    },
    {
      "txid": "89ac7863e823f8e06c1708ff85680dd1da534544cc81e1ce035f5ee3d16548c2",
      "vout": 146,
      "prevout": {
        "scriptpubkey": "00140b3b40b7af4e68b7c4158a58292a23aa23fb016c",
        "scriptpubkey_asm": "OP_0 OP_PUSHBYTES_20 0b3b40b7af4e68b7c4158a58292a23aa23fb016c",
        "scriptpubkey_type": "v0_p2wpkh",
        "scriptpubkey_address": "bc1qpva5pda0fe5t03q43fvzj23r4g3lkqtvzjhdkw",
        "value": 123572
      },
      "scriptsig": "",
      "scriptsig_asm": "",
      "witness": [
        "304502210093828677a410878e81b509f364f8b02f9aa86a5f718400acfac27766e7a32d9802203f60a888e119094c14659dfa2fd446820250ee05f3e4ecdcb89a17bb599bc97e01",
        "026cd656a28441b640e3ca82c9c2977e49599eeb5f69b30595827d10ce36c7ccf2"
      ],
      "is_coinbase": false,
      "sequence": 4294967293
    }
  ],
  "vout": [
    {
      "scriptpubkey": "001498455e190b2256a138ed64406e5a3c43e31f6971",
      "scriptpubkey_asm": "OP_0 OP_PUSHBYTES_20 98455e190b2256a138ed64406e5a3c43e31f6971",
      "scriptpubkey_type": "v0_p2wpkh",
      "scriptpubkey_address": "bc1qnpz4uxgtyft2zw8dv3qxuk3ug03376t3tdj2wz",
      "value": 954261
    }
  ],
  "size": 786,
  "weight": 1524,
  "fee": 12015,
  "status": {
    "confirmed": true,
    "block_height": 834638,
    "block_hash": "000000000000000000025f742c626208ac87e0b7d15054abb4a19ca2d735a54e",
    "block_time": 1710405325
  },
  "hex": "010000000001052c836f61329009d94f3f7986cf613ca0c00bfa73eeb9ee6b86f61fc119cdd3490500000000fdffffff35e68c983134221fc2ebf4636ffcc1f592082f7597e03032afbbc8fa684f36ac6500000000fdffffff88cda4f0120a7af1582d81a40b6a4796e0d30e00ad4e7e4aff6b55e6d5c0542b0300000000fdffffff920e70f571b59321887535a0165f00b62fd51a1eada54162f183b44ca1f8cce40200000000fdffffffc24865d1e35e5f03cee181cc444553dad10d6885ff08176ce0f823e86378ac899200000000fdffffff01958f0e000000000016001498455e190b2256a138ed64406e5a3c43e31f6971024830450221009bc8bce684733a8e31627cc4e0b8091dc669fcd716a2c339cb0e4f4ae4bac17802205bd65a75a8c3f7761d842e555ee27a8ce4ce7a816a4e1bb02b8192c87e89b7e601210228ad45e3504a916ffc42d01a07fb41e0558b19baf9c2c6c16ff4528eb3c7e7d802483045022100a54f75a38acc86a69353eb5f4e3a0d1a64ce9714359f3c5b04f8487cd2e9537d02203580e9ba842153de9f94782ef1270ae95ff58b22ef20236048cfa2e4db297a51012103f31dd6d7d14f556a09ed6887bf8ab007ea7da531add38830031c29b3455b954802473044022041a8c3e5b041de666d5fad9fd399bd50919c8f3539b1bbf0df4329353c90255702201c55d907424ae181719a94cf74113d83c8a900404fe177322ec4c4510cb16f460121028e09671a79fdaa3ab6da1d1bb7ad654672564ff5daf66928acc31796a818edb90247304402207c861a133546411c4e5da140063b90cdfc47cd4c1d764c617c4df8e0c8007de30220342c8acddbf98c9ab92f2f975e8acc423857fc26338fc2ac504f2d680d9accab01210278032c4299b8d069efdf5d2c953be221c32590758e8329530d07306d1a92e3c20248304502210093828677a410878e81b509f364f8b02f9aa86a5f718400acfac27766e7a32d9802203f60a888e119094c14659dfa2fd446820250ee05f3e4ecdcb89a17bb599bc97e0121026cd656a28441b640e3ca82c9c2977e49599eeb5f69b30595827d10ce36c7ccf200000000"
}