{
  "txid": "add549d363fcb18bd21c8991427bc3e765edabc9ec164876c25e6291995fdc18",
  "version": 2,
  "locktime": 0,
  "vin": [
    {
      "txid": "8486ecb4df0880316dd6e82b3971b4df187aff23765bc3a47f8d78bb53aa273c",
      "vout": 112,
      "prevout": {
        "scriptpubkey": "5120af071156305b023cb25451394d3f84791e0b6be9f072df604bdc98433c5aad81",
        "scriptpubkey_asm": "OP_PUSHNUM_1 OP_PUSHBYTES_32 af071156305b023cb25451394d3f84791e0b6be9f072df604bdc98433c5aad81",
        "scriptpubkey_type": "v1_p2tr",
        "scriptpubkey_address": "bc1p4ur3z43stvprevj52yu560uy0y0qk6lf7ped7cztmjvyx0z64kqs52ms9z",
        "value": 2575
      },
      "scriptsig": "",
      "scriptsig_asm": "",
      "witness": [
        "0b4120c63bd976a88ec90d789bc09235f753be592b138f12290ff37a350773428134e0d760e31a27682e6f01752e0953b97feff5f80c2f191d33a53082ac28cb",
        "2064b9483227dc91977e185e3a0d0c1ed8e5c1592b8f1c1e66c2424ababa8cdfc4ac0063036f726401010a746578742f706c61696e00367b2270223a226272632d3230222c226f70223a226d696e74222c227469636b223a2261616161222c22616d74223a223130303030227d68",
        "c164b9483227dc91977e185e3a0d0c1ed8e5c1592b8f1c1e66c2424ababa8cdfc4"
      ],
      "is_coinbase": false,
      "sequence": 4261412863
    }
  ],
  "vout": [
    {
      "scriptpubkey": "0014ddd7ef12ea6f78edcc1e8e7afa12c01ab59f3339",
      "scriptpubkey_asm": "OP_0 OP_PUSHBYTES_20 ddd7ef12ea6f78edcc1e8e7afa12c01ab59f3339",
      "scriptpubkey_type": "v0_p2wpkh",
      "scriptpubkey_address": "bc1qmht77yh2dauwmnq73ea05ykqr26e7veea8spz6",
      "value": 546
    }
  ],
  "size": 295,
  "weight": 541,
  "fee": 2029,
  "status": {
    "confirmed": true,
    "block_height": 834460,
    "block_hash": "00000000000000000000484a79b643b2524bbce82e5d8a442013fa5b8905ed98",
    "block_time": 1710307468
  },
  "hex": "020000000001013c27aa53bb788d7fa4c35b7623ff7a18dfb471392be8d66d318008dfb4ec86847000000000fffffffd012202000000000000160014ddd7ef12ea6f78edcc1e8e7afa12c01ab59f333903400b4120c63bd976a88ec90d789bc09235f753be592b138f12290ff37a350773428134e0d760e31a27682e6f01752e0953b97feff5f80c2f191d33a53082ac28cb6e2064b9483227dc91977e185e3a0d0c1ed8e5c1592b8f1c1e66c2424ababa8cdfc4ac0063036f726401010a746578742f706c61696e00367b2270223a226272632d3230222c226f70223a226d696e74222c227469636b223a2261616161222c22616d74223a223130303030227d6821c164b9483227dc91977e185e3a0d0c1ed8e5c1592b8f1c1e66c2424ababa8cdfc400000000"
}