{
  "txid": "addbb4f769c9861b09e092a741471fa8a248e47c0c8a8bb5dfb16d48b3bde529",
  "version": 2,
  "locktime": 0,
  "vin": [
    {
      "txid": "8486ecb4df0880316dd6e82b3971b4df187aff23765bc3a47f8d78bb53aa273c",
      "vout": 96,
      "prevout": {
        "scriptpubkey": "5120286bb36699187fc308fbef3ad5d10826aecfc4f1e6da2d08790dbb7f5ce4626c",
        "scriptpubkey_asm": "OP_PUSHNUM_1 OP_PUSHBYTES_32 286bb36699187fc308fbef3ad5d10826aecfc4f1e6da2d08790dbb7f5ce4626c",
        "scriptpubkey_type": "v1_p2tr",
        "scriptpubkey_address": "bc1p9p4mxe5erpluxz8mauadt5ggy6hvl383umdz6zrepkah7h8yvfkqjnqahd",
        "value": 2575
      },
      "scriptsig": "",
      "scriptsig_asm": "",
      "witness": [
        "fec3fa7d7bb0faac1956bf6e7d2859bb8c55cc14a117f91182a573a62d765af84874c588712ef3d65d082becee5df11e2518d005aa3ee5bd05d305c35d44d9b8",
        "20cab5aa8f223729f60e291042f5c79a30e84fadf3592d564e4d819683d0e35db2ac0063036f726401010a746578742f706c61696e00367b2270223a226272632d3230222c226f70223a226d696e74222c227469636b223a2261616161222c22616d74223a223130303030227d68",
        "c1cab5aa8f223729f60e291042f5c79a30e84fadf3592d564e4d819683d0e35db2"
      ],
      "is_coinbase": false,
      "sequence": 4261412863
    }
  ],
  "vout": [
    {
      "scriptpubkey": "0014ddd7ef12ea6f78edcc1e8e7afa12c01ab59f3339",
      "scriptpubkey_asm": "OP_0 OP_PUSHBYTES_20 ddd7ef12ea6f78edcc1e8e7afa12c01ab59f3339",
      "scriptpubkey_type": "v0_p2wpkh",
      "scriptpubkey_address": "bc1qmht77yh2dauwmnq73ea05ykqr26e7veea8spz6",
      "value": 546
    }
  ],
  "size": 295,
  "weight": 541,
  "fee": 2029,
  "status": {
    "confirmed": true,
    "block_height": 834460,
    "block_hash": "00000000000000000000484a79b643b2524bbce82e5d8a442013fa5b8905ed98",
    "block_time": 1710307468
  },
  "hex": "020000000001013c27aa53bb788d7fa4c35b7623ff7a18dfb471392be8d66d318008dfb4ec86846000000000fffffffd012202000000000000160014ddd7ef12ea6f78edcc1e8e7afa12c01ab59f33390340fec3fa7d7bb0faac1956bf6e7d2859bb8c55cc14a117f91182a573a62d765af84874c588712ef3d65d082becee5df11e2518d005aa3ee5bd05d305c35d44d9b86e20cab5aa8f223729f60e291042f5c79a30e84fadf3592d564e4d819683d0e35db2ac0063036f726401010a746578742f706c61696e00367b2270223a226272632d3230222c226f70223a226d696e74222c227469636b223a2261616161222c22616d74223a223130303030227d6821c1cab5aa8f223729f60e291042f5c79a30e84fadf3592d564e4d819683d0e35db200000000"
}