{
  "txid": "addece2b7148f3eec5501d217eaecc1bedcc92cc8daa762e6ea22a55296ce5f0",
  "version": 2,
  "locktime": 0,
  "vin": [
    {
      "txid": "90229739e9b58541785f51c111148ddf29842281907d1f5365e187bdfcf8c409",
      "vout": 0,
      "prevout": {
        "scriptpubkey": "51204d725abcdd3fb79aa432e9c73929d12a57032e0c1ccdabcbd74442b1e9032273",
        "scriptpubkey_asm": "OP_PUSHNUM_1 OP_PUSHBYTES_32 4d725abcdd3fb79aa432e9c73929d12a57032e0c1ccdabcbd74442b1e9032273",
        "scriptpubkey_type": "v1_p2tr",
        "scriptpubkey_address": "bc1pf4e940xa87me4fpja8rnj2w39ftsxtsvrnx6hj7hg3ptr6gryfesd23gxd",
        "value": 29000
      },
      "scriptsig": "",
      "scriptsig_asm": "",
      "witness": [
        "55d01579b81572473de9f0ceb1fd853a618f7bfdbae3abe676995e31feeec798288e119d9c0fe45758891c8e06c615878d2839ec45ae621414da79916e10b48e",
        "204d6d3f1242e713a1373d30a4938bed58b714f521274a563b192d4bfc94482409ac0063036f726401011e6170706c69636174696f6e2f6a736f6e3b636861727365743d7574662d38004cbf7b2270223a22706f772d3230222c226f70223a226d696e74222c227469636b223a2250455045222c22616d74223a2231303030222c22736f6c7574696f6e223a22504550453a6263317175723539363576617439393072726574303464657977386b6661743337756a676636737872303a303030303030303030303030303030303030303139393431613561653132383937363539383134343239323533333030353762306461393666336465613163353a3430303234343833373636227d68",
        "c0e183e6acc47e68e82f80645eb93989e5b065f5d320bfc36879234135be4580e3"
      ],
      "is_coinbase": false,
      "sequence": 4294967293
    }
  ],
  "vout": [
    {
      "scriptpubkey": "0014e0e85d519d594af18f2b7d5b9238f64f571f7248",
      "scriptpubkey_asm": "OP_0 OP_PUSHBYTES_20 e0e85d519d594af18f2b7d5b9238f64f571f7248",
      "scriptpubkey_type": "v0_p2wpkh",
      "scriptpubkey_address": "bc1qur5965vat990rret04deyw8kfat37ujgf6sxr0",
      "value": 546
    },
    {
      "scriptpubkey": "51207649c7b12cffb30101086e40234b773d9a47e22254c212414112befcc9c2d2ff",
      "scriptpubkey_asm": "OP_PUSHNUM_1 OP_PUSHBYTES_32 7649c7b12cffb30101086e40234b773d9a47e22254c212414112befcc9c2d2ff",
      "scriptpubkey_type": "v1_p2tr",
      "scriptpubkey_address": "bc1pweyu0vfvl7eszqggdeqzxjmh8kdy0c3z2nppys2pz2l0ejwz6tlsv4apye",
      "value": 3186
    },
    {
      "scriptpubkey": "51209c4d3c212c2bc5294ec1a8caa48f24214632c0e63055970b8249b4815ac4c02d",
      "scriptpubkey_asm": "OP_PUSHNUM_1 OP_PUSHBYTES_32 9c4d3c212c2bc5294ec1a8caa48f24214632c0e63055970b8249b4815ac4c02d",
      "scriptpubkey_type": "v1_p2tr",
      "scriptpubkey_address": "bc1pn3xncgfv90zjjnkp4r92freyy9rr9s8xxp2ewzuzfx6gzkkycqkswgkvpd",
      "value": 3186
    },
    {
      "scriptpubkey": "512024d3ace42131f3728cfed65e06a2288fafc3e472ea1772029bb3d9ff02068f85",
      "scriptpubkey_asm": "OP_PUSHNUM_1 OP_PUSHBYTES_32 24d3ace42131f3728cfed65e06a2288fafc3e472ea1772029bb3d9ff02068f85",
      "scriptpubkey_type": "v1_p2tr",
      "scriptpubkey_address": "bc1pynf6eeppx8eh9r876e0qdg3g37hu8erjagthyq5mk0vl7qsx37zsvyn5q4",
      "value": 3186
    },
    {
      "scriptpubkey": "5120750b623394f8f3c2c959e8e2fb039a0ab05f6797409cfa36702bbb23bb0b1d75",
      "scriptpubkey_asm": "OP_PUSHNUM_1 OP_PUSHBYTES_32 750b623394f8f3c2c959e8e2fb039a0ab05f6797409cfa36702bbb23bb0b1d75",
      "scriptpubkey_type": "v1_p2tr",
      "scriptpubkey_address": "bc1pw59kyvu5lreu9j2ear30kqu6p2c97euhgzw05dns9waj8wctr46szynxnk",
      "value": 3186
    },
    {
      "scriptpubkey": "001436010d06cf98109cbe18b4a22300f6fe7184a5b3",
      "scriptpubkey_asm": "OP_0 OP_PUSHBYTES_20 36010d06cf98109cbe18b4a22300f6fe7184a5b3",
      "scriptpubkey_type": "v0_p2wpkh",
      "scriptpubkey_address": "bc1qxcqs6pk0nqgfe0sckj3zxq8kleccffdn8k3cg7",
      "value": 10025
    }
  ],
  "size": 658,
  "weight": 1513,
  "fee": 5685,
  "status": {
    "confirmed": true,
    "block_height": 834460,
    "block_hash": "00000000000000000000484a79b643b2524bbce82e5d8a442013fa5b8905ed98",
    "block_time": 1710307468
  },
  "hex": "0200000000010109c4f8fcbd87e165531f7d9081228429df8d1411c1515f784185b5e9399722900000000000fdffffff062202000000000000160014e0e85d519d594af18f2b7d5b9238f64f571f7248720c0000000000002251207649c7b12cffb30101086e40234b773d9a47e22254c212414112befcc9c2d2ff720c0000000000002251209c4d3c212c2bc5294ec1a8caa48f24214632c0e63055970b8249b4815ac4c02d720c00000000000022512024d3ace42131f3728cfed65e06a2288fafc3e472ea1772029bb3d9ff02068f85720c000000000000225120750b623394f8f3c2c959e8e2fb039a0ab05f6797409cfa36702bbb23bb0b1d75292700000000000016001436010d06cf98109cbe18b4a22300f6fe7184a5b3034055d01579b81572473de9f0ceb1fd853a618f7bfdbae3abe676995e31feeec798288e119d9c0fe45758891c8e06c615878d2839ec45ae621414da79916e10b48efd0c01204d6d3f1242e713a1373d30a4938bed58b714f521274a563b192d4bfc94482409ac0063036f726401011e6170706c69636174696f6e2f6a736f6e3b636861727365743d7574662d38004cbf7b2270223a22706f772d3230222c226f70223a226d696e74222c227469636b223a2250455045222c22616d74223a2231303030222c22736f6c7574696f6e223a22504550453a6263317175723539363576617439393072726574303464657977386b6661743337756a676636737872303a303030303030303030303030303030303030303139393431613561653132383937363539383134343239323533333030353762306461393666336465613163353a3430303234343833373636227d6821c0e183e6acc47e68e82f80645eb93989e5b065f5d320bfc36879234135be4580e300000000"
}