{
  "txid": "ae093579f0656707564e77bf66fc8362ba2bd9139120dc55e686e6ec7c5539bd",
  "version": 2,
  "locktime": 0,
  "vin": [
    {
      "txid": "d18ed70056c00a6cd5de0ccb10b1ae8f7dd5250f9d0f22c727aba826d03302c8",
      "vout": 3,
      "prevout": {
        "scriptpubkey": "512096ad4b32773da91c3c22a57079e9f8e39262c1524c5e9e6a49cd3947360b7dfa",
        "scriptpubkey_asm": "OP_PUSHNUM_1 OP_PUSHBYTES_32 96ad4b32773da91c3c22a57079e9f8e39262c1524c5e9e6a49cd3947360b7dfa",
        "scriptpubkey_type": "v1_p2tr",
        "scriptpubkey_address": "bc1pj6k5kvnh8k53c0pz54c8n60cuwfx9s2jf30fu6jfe5u5wdst0haqnja35e",
        "value": 3010
      },
      "scriptsig": "",
      "scriptsig_asm": "",
      "witness": [
        "99ae57f4fcf10c9e3a6d03978626c72c1a3efc0a223132e30df83db39be1950824845b65e675781a2276b8a00cf99bb984e36f99fc2822cf816ee36ac235be04",
        "205b7338ba44108cbfc35398ec270c2d91c778d1610bae53674b165f69e71a7909ac0063036f726401011e6170706c69636174696f6e2f6a736f6e3b636861727365743d7574662d38004cbf7b2270223a22706f772d3230222c226f70223a226d696e74222c227469636b223a2250455045222c22616d74223a2231303030222c22736f6c7574696f6e223a22504550453a6263317168337833756334707a796478716436757776376e3732676874787a33753937306564663078613a303030303030303030303030303030303030303139393431613561653132383937363539383134343239323533333030353762306461393666336465613163353a3335323236373631343131227d68",
        "c1e5c6b8d70510d88b341fcdd9a2aa08913e89d9e736480c530fde3fe13419cdab"
      ],
      "is_coinbase": false,
      "sequence": 4294967295
    }
  ],
  "vout": [
    {
      "scriptpubkey": "0014bc4d1e62a1111a60375c733d3f291759851e17cf",
      "scriptpubkey_asm": "OP_0 OP_PUSHBYTES_20 bc4d1e62a1111a60375c733d3f291759851e17cf",
      "scriptpubkey_type": "v0_p2wpkh",
      "scriptpubkey_address": "bc1qh3x3uc4pzydxqd6uwv7n72ghtxz3u970edf0xa",
      "value": 546
    }
  ],
  "size": 455,
  "weight": 701,
  "fee": 2464,
  "status": {
    "confirmed": true,
    "block_height": 834460,
    "block_hash": "00000000000000000000484a79b643b2524bbce82e5d8a442013fa5b8905ed98",
    "block_time": 1710307468
  },
  "hex": "02000000000101c80233d026a8ab27c7220f9d0f25d57d8faeb110cb0cded56c0ac05600d78ed10300000000ffffffff012202000000000000160014bc4d1e62a1111a60375c733d3f291759851e17cf034099ae57f4fcf10c9e3a6d03978626c72c1a3efc0a223132e30df83db39be1950824845b65e675781a2276b8a00cf99bb984e36f99fc2822cf816ee36ac235be04fd0c01205b7338ba44108cbfc35398ec270c2d91c778d1610bae53674b165f69e71a7909ac0063036f726401011e6170706c69636174696f6e2f6a736f6e3b636861727365743d7574662d38004cbf7b2270223a22706f772d3230222c226f70223a226d696e74222c227469636b223a2250455045222c22616d74223a2231303030222c22736f6c7574696f6e223a22504550453a6263317168337833756334707a796478716436757776376e3732676874787a33753937306564663078613a303030303030303030303030303030303030303139393431613561653132383937363539383134343239323533333030353762306461393666336465613163353a3335323236373631343131227d6821c1e5c6b8d70510d88b341fcdd9a2aa08913e89d9e736480c530fde3fe13419cdab00000000"
}