{
  "txid": "ae09e99a972c9662daed5b3bd34e5a1c97896c9e242ccce934e6bda548f6b281",
  "version": 1,
  "locktime": 0,
  "vin": [
    {
      "txid": "0eae0d74b4b051aaeb7c530849f64eaa9bca1d3b7ef81288746be0aff5cae76c",
      "vout": 5,
      "prevout": {
        "scriptpubkey": "0020faf82dbe422b66884b7195e753b96bc3fd7702f54effb60dc0836fa0d1a87d55",
        "scriptpubkey_asm": "OP_0 OP_PUSHBYTES_32 faf82dbe422b66884b7195e753b96bc3fd7702f54effb60dc0836fa0d1a87d55",
        "scriptpubkey_type": "v0_p2wsh",
        "scriptpubkey_address": "bc1qltuzm0jz9dngsjm3jhn48wttc07hwqh4fmlmvrwqsdh6p5dg042s75k4kg",
        "value": 232849381
      },
      "scriptsig": "",
      "scriptsig_asm": "",
      "witness": [
        "",
        "304402206a452d787134b35fffc28da459fd56453fef34c83f89df2ed3553f5319ebc80c02201981abe848f24ba36c9c356a722d0c3b7f7f794780b16abd25a5a36a3e5f020601",
        "3044022018cfc6f48b3b97f7559ae159df7b27f35ed2a1b67f207fe83ae3067965ac584d02200495d1a2cdae715828d32be91fcc565b795d7c9a01083e66fc9bc414b56e6fc101",
        "52210321175cd41066c17bdc2c1c57f4785f217de501450019b90120c87189b5db9d972102edbf1cdff297f54b263bd8bdc67f7f77bf9184df695d65343cb213a646a804f9210229d1bcfa40dfc1c2a2a7cf6029b263845d4aa251453438bc44eef9d9ff8a4f5153ae"
      ],
      "is_coinbase": false,
      "sequence": 4294967295,
      "inner_witnessscript_asm": "OP_PUSHNUM_2 OP_PUSHBYTES_33 0321175cd41066c17bdc2c1c57f4785f217de501450019b90120c87189b5db9d97 OP_PUSHBYTES_33 02edbf1cdff297f54b263bd8bdc67f7f77bf9184df695d65343cb213a646a804f9 OP_PUSHBYTES_33 0229d1bcfa40dfc1c2a2a7cf6029b263845d4aa251453438bc44eef9d9ff8a4f51 OP_PUSHNUM_3 OP_CHECKMULTISIG"
    }
  ],
  "vout": [
    {
      "scriptpubkey": "0014d81fa059ef24965c91093a5a932e7aa72c7ef55a",
      "scriptpubkey_asm": "OP_0 OP_PUSHBYTES_20 d81fa059ef24965c91093a5a932e7aa72c7ef55a",
      "scriptpubkey_type": "v0_p2wpkh",
      "scriptpubkey_address": "bc1qmq06qk00yjt9eygf8fdfxtn65uk8aa26qr3kdn",
      "value": 1423685
    },
    {
      "scriptpubkey": "76a91457534a8022b6903224ad98cad04e7aac21ab1e2288ac",
      "scriptpubkey_asm": "OP_DUP OP_HASH160 OP_PUSHBYTES_20 57534a8022b6903224ad98cad04e7aac21ab1e22 OP_EQUALVERIFY OP_CHECKSIG",
      "scriptpubkey_type": "p2pkh",
      "scriptpubkey_address": "18xjZrLTYHf8cCkpoiApKWRfVhzD7TmE8f",
      "value": 4004710
    },
    {
      "scriptpubkey": "002094a8d5b0a3db2a6af0e5e9f75b33a8f0a2a98ad1b0c76972798ddf1b1159824c",
      "scriptpubkey_asm": "OP_0 OP_PUSHBYTES_32 94a8d5b0a3db2a6af0e5e9f75b33a8f0a2a98ad1b0c76972798ddf1b1159824c",
      "scriptpubkey_type": "v0_p2wsh",
      "scriptpubkey_address": "bc1qjj5dtv9rmv4x4u89a8m4kvag7z32nzk3krrkjune3h03ky2esfxqwrrsth",
      "value": 227417850
    }
  ],
  "size": 413,
  "weight": 890,
  "fee": 3136,
  "status": {
    "confirmed": true,
    "block_height": 834552,
    "block_hash": "00000000000000000001dd0468a70c94f619251d286585cff57aeb4bd9ede330",
    "block_time": 1710355598
  },
  "hex": "010000000001016ce7caf5afe06b748812f87e3b1dca9baa4ef64908537cebaa51b0b4740dae0e0500000000ffffffff0345b9150000000000160014d81fa059ef24965c91093a5a932e7aa72c7ef55a661b3d00000000001976a91457534a8022b6903224ad98cad04e7aac21ab1e2288acfa1e8e0d0000000022002094a8d5b0a3db2a6af0e5e9f75b33a8f0a2a98ad1b0c76972798ddf1b1159824c040047304402206a452d787134b35fffc28da459fd56453fef34c83f89df2ed3553f5319ebc80c02201981abe848f24ba36c9c356a722d0c3b7f7f794780b16abd25a5a36a3e5f020601473044022018cfc6f48b3b97f7559ae159df7b27f35ed2a1b67f207fe83ae3067965ac584d02200495d1a2cdae715828d32be91fcc565b795d7c9a01083e66fc9bc414b56e6fc1016952210321175cd41066c17bdc2c1c57f4785f217de501450019b90120c87189b5db9d972102edbf1cdff297f54b263bd8bdc67f7f77bf9184df695d65343cb213a646a804f9210229d1bcfa40dfc1c2a2a7cf6029b263845d4aa251453438bc44eef9d9ff8a4f5153ae00000000"
}