{
  "txid": "ae0cb7298ee0ee0210cdfe6712d10755c86aed6c847cc15c1cd4d63278aa747e",
  "version": 2,
  "locktime": 0,
  "vin": [
    {
      "txid": "acc3ba00869acb582a3f2904ce3a11dd3779350ce234063fc7d0959246213364",
      "vout": 189,
      "prevout": {
        "scriptpubkey": "5120df82d670fd75f87561d5740f4e4895f9a34d8d4b240768a239e6f471137c89d0",
        "scriptpubkey_asm": "OP_PUSHNUM_1 OP_PUSHBYTES_32 df82d670fd75f87561d5740f4e4895f9a34d8d4b240768a239e6f471137c89d0",
        "scriptpubkey_type": "v1_p2tr",
        "scriptpubkey_address": "bc1pm7pdvu8awhu82cw4ws85ujy4lx35mr2tysrk3g3eum68zymu38gqenyquc",
        "value": 1806
      },
      "scriptsig": "",
      "scriptsig_asm": "",
      "witness": [
        "497e350f985e4a29215b025fa20d579e2c3b2a708f891ca47a556444f12fca62f6676f3c74f958af74893e959150868c0df7e1144d9ef908f3bda89fe07710d8",
        "207fa456d67c94d8e322a44475ffd92600f501d95adc4c6537681a2c9d2e331c2eac0063036f726401010a746578742f706c61696e00357b2270223a226272632d3230222c226f70223a226d696e74222c227469636b223a22646f6765222c22616d74223a2234323030227d68",
        "c17fa456d67c94d8e322a44475ffd92600f501d95adc4c6537681a2c9d2e331c2e"
      ],
      "is_coinbase": false,
      "sequence": 4261412863
    }
  ],
  "vout": [
    {
      "scriptpubkey": "00147a665de7a370f4c9b372ab1fae587500a5bcbdb4",
      "scriptpubkey_asm": "OP_0 OP_PUSHBYTES_20 7a665de7a370f4c9b372ab1fae587500a5bcbdb4",
      "scriptpubkey_type": "v0_p2wpkh",
      "scriptpubkey_address": "bc1q0fn9mearwr6vnvmj4v06ukr4qzjme0d565dzcx",
      "value": 294
    }
  ],
  "size": 294,
  "weight": 540,
  "fee": 1512,
  "status": {
    "confirmed": true,
    "block_height": 834460,
    "block_hash": "00000000000000000000484a79b643b2524bbce82e5d8a442013fa5b8905ed98",
    "block_time": 1710307468
  },
  "hex": "02000000000101643321469295d0c73f0634e20c357937dd113ace04293f2a58cb9a8600bac3acbd00000000fffffffd0126010000000000001600147a665de7a370f4c9b372ab1fae587500a5bcbdb40340497e350f985e4a29215b025fa20d579e2c3b2a708f891ca47a556444f12fca62f6676f3c74f958af74893e959150868c0df7e1144d9ef908f3bda89fe07710d86d207fa456d67c94d8e322a44475ffd92600f501d95adc4c6537681a2c9d2e331c2eac0063036f726401010a746578742f706c61696e00357b2270223a226272632d3230222c226f70223a226d696e74222c227469636b223a22646f6765222c22616d74223a2234323030227d6821c17fa456d67c94d8e322a44475ffd92600f501d95adc4c6537681a2c9d2e331c2e00000000"
}