{
  "txid": "ae1a8abe5890fc0080bd4d3f53cc329bb58b73ee896ec5d2719f237cbec366dd",
  "version": 1,
  "locktime": 0,
  "vin": [
    {
      "txid": "4b59ff887fad5f4b8b3eb5f01a9a3a4d508344934e690c4b1c364bdc7719117a",
      "vout": 0,
      "prevout": {
        "scriptpubkey": "76a914fc940742487034816f973edb55a1691f610c77cd88ac",
        "scriptpubkey_asm": "OP_DUP OP_HASH160 OP_PUSHBYTES_20 fc940742487034816f973edb55a1691f610c77cd OP_EQUALVERIFY OP_CHECKSIG",
        "scriptpubkey_type": "p2pkh",
        "scriptpubkey_address": "1Q2WcXqcfjCvHutLLVeBfqSiejjPs5w2g2",
        "value": 160699
      },
      "scriptsig": "483045022100a87716d91681ff5f7f0e5a27c6231aa95c7a7ca6caeaff9bd64eb85b055a787d02201bfdfd8eefdea36e2c421c767b9cb3047aff941c3038b7290f0b2a593e0cd0cc012102137c9f38b43a18c6423321abc2541c9807e433e6482e0a2026607ed641e0ed4d",
      "scriptsig_asm": "OP_PUSHBYTES_72 3045022100a87716d91681ff5f7f0e5a27c6231aa95c7a7ca6caeaff9bd64eb85b055a787d02201bfdfd8eefdea36e2c421c767b9cb3047aff941c3038b7290f0b2a593e0cd0cc01 OP_PUSHBYTES_33 02137c9f38b43a18c6423321abc2541c9807e433e6482e0a2026607ed641e0ed4d",
      "is_coinbase": false,
      "sequence": 4294967295
    },
    {
      "txid": "33a963b32b299489c21267f1a7cca738e8a1a68c8e0ee0206d1fdbb76cd2e2ff",
      "vout": 1,
      "prevout": {
        "scriptpubkey": "76a91462c32e621d964f5d342be4a472c1dee3f1c45bf488ac",
        "scriptpubkey_asm": "OP_DUP OP_HASH160 OP_PUSHBYTES_20 62c32e621d964f5d342be4a472c1dee3f1c45bf4 OP_EQUALVERIFY OP_CHECKSIG",
        "scriptpubkey_type": "p2pkh",
        "scriptpubkey_address": "1A1D3E6iSPLHD83kBVkCaqeZutRyigd5BK",
        "value": 176076
      },
      "scriptsig": "4830450221008705f19cf87cf108b532e8b2f31b20c90d37dc85cdcdfc644b757da80e84121b0220096f39dbaab6d13bb09781b59ee3cf19585e7d87751aed2f28e0392ed0784f8d012103dbd59d9ad2d839d9728c8b7e05a4d077e61e065fcb22e6853eed1d1c258f7351",
      "scriptsig_asm": "OP_PUSHBYTES_72 30450221008705f19cf87cf108b532e8b2f31b20c90d37dc85cdcdfc644b757da80e84121b0220096f39dbaab6d13bb09781b59ee3cf19585e7d87751aed2f28e0392ed0784f8d01 OP_PUSHBYTES_33 03dbd59d9ad2d839d9728c8b7e05a4d077e61e065fcb22e6853eed1d1c258f7351",
      "is_coinbase": false,
      "sequence": 4294967295
    }
  ],
  "vout": [
    {
      "scriptpubkey": "76a91456bdab44015d7d8a0e19c7f362a2d293144ac23c88ac",
      "scriptpubkey_asm": "OP_DUP OP_HASH160 OP_PUSHBYTES_20 56bdab44015d7d8a0e19c7f362a2d293144ac23c OP_EQUALVERIFY OP_CHECKSIG",
      "scriptpubkey_type": "p2pkh",
      "scriptpubkey_address": "18ueKvzwSXuzeUQX4aq3ucKVd1mnC1AmRR",
      "value": 324179
    }
  ],
  "size": 340,
  "weight": 1360,
  "fee": 12596,
  "status": {
    "confirmed": true,
    "block_height": 834638,
    "block_hash": "000000000000000000025f742c626208ac87e0b7d15054abb4a19ca2d735a54e",
    "block_time": 1710405325
  },
  "hex": "01000000027a111977dc4b361c4b0c694e934483504d3a9a1af0b53e8b4b5fad7f88ff594b000000006b483045022100a87716d91681ff5f7f0e5a27c6231aa95c7a7ca6caeaff9bd64eb85b055a787d02201bfdfd8eefdea36e2c421c767b9cb3047aff941c3038b7290f0b2a593e0cd0cc012102137c9f38b43a18c6423321abc2541c9807e433e6482e0a2026607ed641e0ed4dffffffffffe2d26cb7db1f6d20e00e8e8ca6a1e838a7cca7f16712c28994292bb363a933010000006b4830450221008705f19cf87cf108b532e8b2f31b20c90d37dc85cdcdfc644b757da80e84121b0220096f39dbaab6d13bb09781b59ee3cf19585e7d87751aed2f28e0392ed0784f8d012103dbd59d9ad2d839d9728c8b7e05a4d077e61e065fcb22e6853eed1d1c258f7351ffffffff0153f20400000000001976a91456bdab44015d7d8a0e19c7f362a2d293144ac23c88ac00000000"
}