{
  "txid": "ae275db2521787e11e949db848d43e51659e4b5398d748a3c1f964d12aa123c1",
  "version": 2,
  "locktime": 0,
  "vin": [
    {
      "txid": "103e930a4dad476c9c2d8e58ddff8eb83feed2ec67cf5e5ada4e159d3dc4171e",
      "vout": 18,
      "prevout": {
        "scriptpubkey": "512056fee1c2055ed8b4b38f5e0dcfaaef76bd991d8490651b430b5ebcc6947ea2ad",
        "scriptpubkey_asm": "OP_PUSHNUM_1 OP_PUSHBYTES_32 56fee1c2055ed8b4b38f5e0dcfaaef76bd991d8490651b430b5ebcc6947ea2ad",
        "scriptpubkey_type": "v1_p2tr",
        "scriptpubkey_address": "bc1p2mlwrss9tmvtfvu0tcxul2h0w67ej8vyjpj3ksctt67vd9r752ksqx6uqm",
        "value": 6736871165
      },
      "scriptsig": "",
      "scriptsig_asm": "",
      "witness": [
        "0722139338e242b3f02361e9c4eb20c4eda3f30c510d8c723a975c978fbf7f65fe3df2446bc75c0e7fb0348f8e541be54302a2189b2779322d50e5ef5dac7288"
      ],
      "is_coinbase": false,
      "sequence": 4294967293
    }
  ],
  "vout": [
    {
      "scriptpubkey": "76a914859286abe02fa66898b8a324f24f1a23c6db6b3d88ac",
      "scriptpubkey_asm": "OP_DUP OP_HASH160 OP_PUSHBYTES_20 859286abe02fa66898b8a324f24f1a23c6db6b3d OP_EQUALVERIFY OP_CHECKSIG",
      "scriptpubkey_type": "p2pkh",
      "scriptpubkey_address": "1DBGQKiB3trR1MGGbBG98M2JEBjGbDuGNQ",
      "value": 179828651
    },
    {
      "scriptpubkey": "5120e77a4dcb93fdc1affab4066e2788f0cd3a75cca1f537de13e3a270d7c1f7c8c0",
      "scriptpubkey_asm": "OP_PUSHNUM_1 OP_PUSHBYTES_32 e77a4dcb93fdc1affab4066e2788f0cd3a75cca1f537de13e3a270d7c1f7c8c0",
      "scriptpubkey_type": "v1_p2tr",
      "scriptpubkey_address": "bc1puaaymjunlhq6l745qehz0z8se5a8tn9p75mauylr5fcd0s0herqqeerme2",
      "value": 546
    },
    {
      "scriptpubkey": "76a914859286abe02fa66898b8a324f24f1a23c6db6b3d88ac",
      "scriptpubkey_asm": "OP_DUP OP_HASH160 OP_PUSHBYTES_20 859286abe02fa66898b8a324f24f1a23c6db6b3d OP_EQUALVERIFY OP_CHECKSIG",
      "scriptpubkey_type": "p2pkh",
      "scriptpubkey_address": "1DBGQKiB3trR1MGGbBG98M2JEBjGbDuGNQ",
      "value": 123546471
    },
    {
      "scriptpubkey": "5120e77a4dcb93fdc1affab4066e2788f0cd3a75cca1f537de13e3a270d7c1f7c8c0",
      "scriptpubkey_asm": "OP_PUSHNUM_1 OP_PUSHBYTES_32 e77a4dcb93fdc1affab4066e2788f0cd3a75cca1f537de13e3a270d7c1f7c8c0",
      "scriptpubkey_type": "v1_p2tr",
      "scriptpubkey_address": "bc1puaaymjunlhq6l745qehz0z8se5a8tn9p75mauylr5fcd0s0herqqeerme2",
      "value": 546
    },
    {
      "scriptpubkey": "76a914859286abe02fa66898b8a324f24f1a23c6db6b3d88ac",
      "scriptpubkey_asm": "OP_DUP OP_HASH160 OP_PUSHBYTES_20 859286abe02fa66898b8a324f24f1a23c6db6b3d OP_EQUALVERIFY OP_CHECKSIG",
      "scriptpubkey_type": "p2pkh",
      "scriptpubkey_address": "1DBGQKiB3trR1MGGbBG98M2JEBjGbDuGNQ",
      "value": 119352825
    },
    {
      "scriptpubkey": "5120e77a4dcb93fdc1affab4066e2788f0cd3a75cca1f537de13e3a270d7c1f7c8c0",
      "scriptpubkey_asm": "OP_PUSHNUM_1 OP_PUSHBYTES_32 e77a4dcb93fdc1affab4066e2788f0cd3a75cca1f537de13e3a270d7c1f7c8c0",
      "scriptpubkey_type": "v1_p2tr",
      "scriptpubkey_address": "bc1puaaymjunlhq6l745qehz0z8se5a8tn9p75mauylr5fcd0s0herqqeerme2",
      "value": 546
    },
    {
      "scriptpubkey": "76a914859286abe02fa66898b8a324f24f1a23c6db6b3d88ac",
      "scriptpubkey_asm": "OP_DUP OP_HASH160 OP_PUSHBYTES_20 859286abe02fa66898b8a324f24f1a23c6db6b3d OP_EQUALVERIFY OP_CHECKSIG",
      "scriptpubkey_type": "p2pkh",
      "scriptpubkey_address": "1DBGQKiB3trR1MGGbBG98M2JEBjGbDuGNQ",
      "value": 1426746584
    },
    {
      "scriptpubkey": "5120e77a4dcb93fdc1affab4066e2788f0cd3a75cca1f537de13e3a270d7c1f7c8c0",
      "scriptpubkey_asm": "OP_PUSHNUM_1 OP_PUSHBYTES_32 e77a4dcb93fdc1affab4066e2788f0cd3a75cca1f537de13e3a270d7c1f7c8c0",
      "scriptpubkey_type": "v1_p2tr",
      "scriptpubkey_address": "bc1puaaymjunlhq6l745qehz0z8se5a8tn9p75mauylr5fcd0s0herqqeerme2",
      "value": 546
    },
    {
      "scriptpubkey": "76a914859286abe02fa66898b8a324f24f1a23c6db6b3d88ac",
      "scriptpubkey_asm": "OP_DUP OP_HASH160 OP_PUSHBYTES_20 859286abe02fa66898b8a324f24f1a23c6db6b3d OP_EQUALVERIFY OP_CHECKSIG",
      "scriptpubkey_type": "p2pkh",
      "scriptpubkey_address": "1DBGQKiB3trR1MGGbBG98M2JEBjGbDuGNQ",
      "value": 271978172
    },
    {
      "scriptpubkey": "5120e77a4dcb93fdc1affab4066e2788f0cd3a75cca1f537de13e3a270d7c1f7c8c0",
      "scriptpubkey_asm": "OP_PUSHNUM_1 OP_PUSHBYTES_32 e77a4dcb93fdc1affab4066e2788f0cd3a75cca1f537de13e3a270d7c1f7c8c0",
      "scriptpubkey_type": "v1_p2tr",
      "scriptpubkey_address": "bc1puaaymjunlhq6l745qehz0z8se5a8tn9p75mauylr5fcd0s0herqqeerme2",
      "value": 546
    },
    {
      "scriptpubkey": "76a914859286abe02fa66898b8a324f24f1a23c6db6b3d88ac",
      "scriptpubkey_asm": "OP_DUP OP_HASH160 OP_PUSHBYTES_20 859286abe02fa66898b8a324f24f1a23c6db6b3d OP_EQUALVERIFY OP_CHECKSIG",
      "scriptpubkey_type": "p2pkh",
      "scriptpubkey_address": "1DBGQKiB3trR1MGGbBG98M2JEBjGbDuGNQ",
      "value": 755947274
    },
    {
      "scriptpubkey": "5120e77a4dcb93fdc1affab4066e2788f0cd3a75cca1f537de13e3a270d7c1f7c8c0",
      "scriptpubkey_asm": "OP_PUSHNUM_1 OP_PUSHBYTES_32 e77a4dcb93fdc1affab4066e2788f0cd3a75cca1f537de13e3a270d7c1f7c8c0",
      "scriptpubkey_type": "v1_p2tr",
      "scriptpubkey_address": "bc1puaaymjunlhq6l745qehz0z8se5a8tn9p75mauylr5fcd0s0herqqeerme2",
      "value": 546
    },
    {
      "scriptpubkey": "76a914859286abe02fa66898b8a324f24f1a23c6db6b3d88ac",
      "scriptpubkey_asm": "OP_DUP OP_HASH160 OP_PUSHBYTES_20 859286abe02fa66898b8a324f24f1a23c6db6b3d OP_EQUALVERIFY OP_CHECKSIG",
      "scriptpubkey_type": "p2pkh",
      "scriptpubkey_address": "1DBGQKiB3trR1MGGbBG98M2JEBjGbDuGNQ",
      "value": 3676186111
    },
    {
      "scriptpubkey": "5120e77a4dcb93fdc1affab4066e2788f0cd3a75cca1f537de13e3a270d7c1f7c8c0",
      "scriptpubkey_asm": "OP_PUSHNUM_1 OP_PUSHBYTES_32 e77a4dcb93fdc1affab4066e2788f0cd3a75cca1f537de13e3a270d7c1f7c8c0",
      "scriptpubkey_type": "v1_p2tr",
      "scriptpubkey_address": "bc1puaaymjunlhq6l745qehz0z8se5a8tn9p75mauylr5fcd0s0herqqeerme2",
      "value": 1000
    },
    {
      "scriptpubkey": "76a914859286abe02fa66898b8a324f24f1a23c6db6b3d88ac",
      "scriptpubkey_asm": "OP_DUP OP_HASH160 OP_PUSHBYTES_20 859286abe02fa66898b8a324f24f1a23c6db6b3d OP_EQUALVERIFY OP_CHECKSIG",
      "scriptpubkey_type": "p2pkh",
      "scriptpubkey_address": "1DBGQKiB3trR1MGGbBG98M2JEBjGbDuGNQ",
      "value": 183270401
    }
  ],
  "size": 692,
  "weight": 2564,
  "fee": 10400,
  "status": {
    "confirmed": true,
    "block_height": 834638,
    "block_hash": "000000000000000000025f742c626208ac87e0b7d15054abb4a19ca2d735a54e",
    "block_time": 1710405325
  },
  "hex": "020000000001011e17c43d9d154eda5a5ecf67ecd2ee3fb88effdd588e2d9c6c47ad4d0a933e101200000000fdffffff0fabf7b70a000000001976a914859286abe02fa66898b8a324f24f1a23c6db6b3d88ac2202000000000000225120e77a4dcb93fdc1affab4066e2788f0cd3a75cca1f537de13e3a270d7c1f7c8c0672b5d07000000001976a914859286abe02fa66898b8a324f24f1a23c6db6b3d88ac2202000000000000225120e77a4dcb93fdc1affab4066e2788f0cd3a75cca1f537de13e3a270d7c1f7c8c0f92d1d07000000001976a914859286abe02fa66898b8a324f24f1a23c6db6b3d88ac2202000000000000225120e77a4dcb93fdc1affab4066e2788f0cd3a75cca1f537de13e3a270d7c1f7c8c0d86c0a55000000001976a914859286abe02fa66898b8a324f24f1a23c6db6b3d88ac2202000000000000225120e77a4dcb93fdc1affab4066e2788f0cd3a75cca1f537de13e3a270d7c1f7c8c0bc0e3610000000001976a914859286abe02fa66898b8a324f24f1a23c6db6b3d88ac2202000000000000225120e77a4dcb93fdc1affab4066e2788f0cd3a75cca1f537de13e3a270d7c1f7c8c00ad70e2d000000001976a914859286abe02fa66898b8a324f24f1a23c6db6b3d88ac2202000000000000225120e77a4dcb93fdc1affab4066e2788f0cd3a75cca1f537de13e3a270d7c1f7c8c0ff251edb000000001976a914859286abe02fa66898b8a324f24f1a23c6db6b3d88ace803000000000000225120e77a4dcb93fdc1affab4066e2788f0cd3a75cca1f537de13e3a270d7c1f7c8c0017cec0a000000001976a914859286abe02fa66898b8a324f24f1a23c6db6b3d88ac01400722139338e242b3f02361e9c4eb20c4eda3f30c510d8c723a975c978fbf7f65fe3df2446bc75c0e7fb0348f8e541be54302a2189b2779322d50e5ef5dac728800000000"
}