{
  "txid": "ae2d18472d5f07759848ef26651aff9c0a358401741e7764640b38fabf3469a4",
  "version": 2,
  "locktime": 0,
  "vin": [
    {
      "txid": "63ae3f28afd5d0a929109d69e6dd14c64a5f88e60465d97a08caa06060e15e8f",
      "vout": 35,
      "prevout": {
        "scriptpubkey": "51206bd2ee5d3a3454cd11756bdc697ed9c78c8206f2dc56a8ce74c7274141f57c5c",
        "scriptpubkey_asm": "OP_PUSHNUM_1 OP_PUSHBYTES_32 6bd2ee5d3a3454cd11756bdc697ed9c78c8206f2dc56a8ce74c7274141f57c5c",
        "scriptpubkey_type": "v1_p2tr",
        "scriptpubkey_address": "bc1pd0fwuhf6x32v6yt4d0wxjlkec7xgyphjm3t23nn5cun5zs0403wqkh6ehc",
        "value": 3055
      },
      "scriptsig": "",
      "scriptsig_asm": "",
      "witness": [
        "62d89c732e1b0fecd32919f2d31d79adacc90e2cac70bfeeb06a7c50baea84b2d8bbeea2ae04300b19c62e6417fa9461c03f38f7ea3da01155ac8bf6429a8be0",
        "202d461fecb60857db9736668f34d7ad9faf58689b707ed731d3e4f09e379dbe9eac0063036f726401011e6170706c69636174696f6e2f6a736f6e3b636861727365743d7574662d38004cd37b2270223a22706f772d3230222c226f70223a226d696e74222c227469636b223a2250455045222c22616d74223a2231303030222c22736f6c7574696f6e223a22504550453a626331706a39356d676c663836377961396a32756368377a34647836793635746736373330676e7661796b706b6c77793335757667376a73773033676d713a303030303030303030303030303030303030303139393431613561653132383937363539383134343239323533333030353762306461393666336465613163353a3134363930303836303536227d68",
        "c0ffe2b6185dd514800047a24f9c3d628916daef0b23d9f98ab4cda2a0457a18d1"
      ],
      "is_coinbase": false,
      "sequence": 4294967295
    }
  ],
  "vout": [
    {
      "scriptpubkey": "51209169b47d27d789d2c95cc5fc2ab4da26a8b46bd17a26ce92c1b7dc48d38c47a5",
      "scriptpubkey_asm": "OP_PUSHNUM_1 OP_PUSHBYTES_32 9169b47d27d789d2c95cc5fc2ab4da26a8b46bd17a26ce92c1b7dc48d38c47a5",
      "scriptpubkey_type": "v1_p2tr",
      "scriptpubkey_address": "bc1pj95mglf867ya9j2uch7z4dx6y65tg6730gnvaykpklwy35uvg7jsw03gmq",
      "value": 546
    }
  ],
  "size": 487,
  "weight": 769,
  "fee": 2509,
  "status": {
    "confirmed": true,
    "block_height": 834460,
    "block_hash": "00000000000000000000484a79b643b2524bbce82e5d8a442013fa5b8905ed98",
    "block_time": 1710307468
  },
  "hex": "020000000001018f5ee16060a0ca087ad96504e6885f4ac614dde6699d1029a9d0d5af283fae632300000000ffffffff0122020000000000002251209169b47d27d789d2c95cc5fc2ab4da26a8b46bd17a26ce92c1b7dc48d38c47a5034062d89c732e1b0fecd32919f2d31d79adacc90e2cac70bfeeb06a7c50baea84b2d8bbeea2ae04300b19c62e6417fa9461c03f38f7ea3da01155ac8bf6429a8be0fd2001202d461fecb60857db9736668f34d7ad9faf58689b707ed731d3e4f09e379dbe9eac0063036f726401011e6170706c69636174696f6e2f6a736f6e3b636861727365743d7574662d38004cd37b2270223a22706f772d3230222c226f70223a226d696e74222c227469636b223a2250455045222c22616d74223a2231303030222c22736f6c7574696f6e223a22504550453a626331706a39356d676c663836377961396a32756368377a34647836793635746736373330676e7661796b706b6c77793335757667376a73773033676d713a303030303030303030303030303030303030303139393431613561653132383937363539383134343239323533333030353762306461393666336465613163353a3134363930303836303536227d6821c0ffe2b6185dd514800047a24f9c3d628916daef0b23d9f98ab4cda2a0457a18d100000000"
}