{
  "txid": "ae4283a8eac969535e1beaee23a1ffef309b08df04c3eac5f24f3385958a67c8",
  "version": 2,
  "locktime": 0,
  "vin": [
    {
      "txid": "f87ae3cbe16168809f04218ab685d7e95f3299105095126e88f8efc12f68efb2",
      "vout": 41,
      "prevout": {
        "scriptpubkey": "0014694f8a4b3a69eb89c3d20a57212d86621ad4b89e",
        "scriptpubkey_asm": "OP_0 OP_PUSHBYTES_20 694f8a4b3a69eb89c3d20a57212d86621ad4b89e",
        "scriptpubkey_type": "v0_p2wpkh",
        "scriptpubkey_address": "bc1qd98c5je6d84cns7jpftjztvxvgddfwy79kcc5j",
        "value": 22183
      },
      "scriptsig": "",
      "scriptsig_asm": "",
      "witness": [
        "304502210086d6767d585166e25789ce9552f9976d298b11f336033beb2c8e70d0d5fef274022009980d14be1671273abe1f096952c10f8ae6584bdffded5d94c66529b0bc77da01",
        "0213ad3012162454088373ecfc5c7b167f62f1b89c78287db39a4825a320f605c3"
      ],
      "is_coinbase": false,
      "sequence": 4294967295
    }
  ],
  "vout": [
    {
      "scriptpubkey": "0014051e9b41a5d4c44ee576c806cbbf0395a3529c39",
      "scriptpubkey_asm": "OP_0 OP_PUSHBYTES_20 051e9b41a5d4c44ee576c806cbbf0395a3529c39",
      "scriptpubkey_type": "v0_p2wpkh",
      "scriptpubkey_address": "bc1qq50fksd96nzyaetkeqrvh0crjk3498petxzda0",
      "value": 19999
    }
  ],
  "size": 192,
  "weight": 438,
  "fee": 2184,
  "status": {
    "confirmed": true,
    "block_height": 834638,
    "block_hash": "000000000000000000025f742c626208ac87e0b7d15054abb4a19ca2d735a54e",
    "block_time": 1710405325
  },
  "hex": "02000000000101b2ef682fc1eff8886e1295501099325fe9d785b68a21049f806861e1cbe37af82900000000ffffffff011f4e000000000000160014051e9b41a5d4c44ee576c806cbbf0395a3529c390248304502210086d6767d585166e25789ce9552f9976d298b11f336033beb2c8e70d0d5fef274022009980d14be1671273abe1f096952c10f8ae6584bdffded5d94c66529b0bc77da01210213ad3012162454088373ecfc5c7b167f62f1b89c78287db39a4825a320f605c300000000"
}