{
  "txid": "ae53564d2030434647f404379c2a8a37b4726618a76994f779ed7eac5983dc27",
  "version": 2,
  "locktime": 0,
  "vin": [
    {
      "txid": "ae3e52f7c7783fbd6c174eeaaf9ede26aa07c347366a7786b00e36525f91700d",
      "vout": 0,
      "prevout": {
        "scriptpubkey": "a914e30f8bf518a19cf1a2448cc18303d8839eb6ab4d87",
        "scriptpubkey_asm": "OP_HASH160 OP_PUSHBYTES_20 e30f8bf518a19cf1a2448cc18303d8839eb6ab4d OP_EQUAL",
        "scriptpubkey_type": "p2sh",
        "scriptpubkey_address": "3NPbwHydEyqM8i2EnUHLCGCs5JzTfo4bhp",
        "value": 9100000
      },
      "scriptsig": "16001473d0c086fb328f9e841c671688bc969a6ec71da2",
      "scriptsig_asm": "OP_PUSHBYTES_22 001473d0c086fb328f9e841c671688bc969a6ec71da2",
      "witness": [
        "3045022100c92968b8496380a631a75700582cd927e7f83a1db412c51a5bdf029fde484a390220581377418be780e245346f3587af17a29cae7e454fb79adc416cb820d30e568e01",
        "03a0b9db1f8c37d04c5a6986f0579a1d89f1c69e6840eb350dbeabbafd01227dc0"
      ],
      "is_coinbase": false,
      "sequence": 4294967295,
      "inner_redeemscript_asm": "OP_0 OP_PUSHBYTES_20 73d0c086fb328f9e841c671688bc969a6ec71da2"
    }
  ],
  "vout": [
    {
      "scriptpubkey": "a914e30f8bf518a19cf1a2448cc18303d8839eb6ab4d87",
      "scriptpubkey_asm": "OP_HASH160 OP_PUSHBYTES_20 e30f8bf518a19cf1a2448cc18303d8839eb6ab4d OP_EQUAL",
      "scriptpubkey_type": "p2sh",
      "scriptpubkey_address": "3NPbwHydEyqM8i2EnUHLCGCs5JzTfo4bhp",
      "value": 600
    },
    {
      "scriptpubkey": "a914e30f8bf518a19cf1a2448cc18303d8839eb6ab4d87",
      "scriptpubkey_asm": "OP_HASH160 OP_PUSHBYTES_20 e30f8bf518a19cf1a2448cc18303d8839eb6ab4d OP_EQUAL",
      "scriptpubkey_type": "p2sh",
      "scriptpubkey_address": "3NPbwHydEyqM8i2EnUHLCGCs5JzTfo4bhp",
      "value": 600
    },
    {
      "scriptpubkey": "a914e30f8bf518a19cf1a2448cc18303d8839eb6ab4d87",
      "scriptpubkey_asm": "OP_HASH160 OP_PUSHBYTES_20 e30f8bf518a19cf1a2448cc18303d8839eb6ab4d OP_EQUAL",
      "scriptpubkey_type": "p2sh",
      "scriptpubkey_address": "3NPbwHydEyqM8i2EnUHLCGCs5JzTfo4bhp",
      "value": 600
    },
    {
      "scriptpubkey": "a914e30f8bf518a19cf1a2448cc18303d8839eb6ab4d87",
      "scriptpubkey_asm": "OP_HASH160 OP_PUSHBYTES_20 e30f8bf518a19cf1a2448cc18303d8839eb6ab4d OP_EQUAL",
      "scriptpubkey_type": "p2sh",
      "scriptpubkey_address": "3NPbwHydEyqM8i2EnUHLCGCs5JzTfo4bhp",
      "value": 600
    },
    {
      "scriptpubkey": "a914e30f8bf518a19cf1a2448cc18303d8839eb6ab4d87",
      "scriptpubkey_asm": "OP_HASH160 OP_PUSHBYTES_20 e30f8bf518a19cf1a2448cc18303d8839eb6ab4d OP_EQUAL",
      "scriptpubkey_type": "p2sh",
      "scriptpubkey_address": "3NPbwHydEyqM8i2EnUHLCGCs5JzTfo4bhp",
      "value": 600
    },
    {
      "scriptpubkey": "a914e30f8bf518a19cf1a2448cc18303d8839eb6ab4d87",
      "scriptpubkey_asm": "OP_HASH160 OP_PUSHBYTES_20 e30f8bf518a19cf1a2448cc18303d8839eb6ab4d OP_EQUAL",
      "scriptpubkey_type": "p2sh",
      "scriptpubkey_address": "3NPbwHydEyqM8i2EnUHLCGCs5JzTfo4bhp",
      "value": 600
    },
    {
      "scriptpubkey": "a914e30f8bf518a19cf1a2448cc18303d8839eb6ab4d87",
      "scriptpubkey_asm": "OP_HASH160 OP_PUSHBYTES_20 e30f8bf518a19cf1a2448cc18303d8839eb6ab4d OP_EQUAL",
      "scriptpubkey_type": "p2sh",
      "scriptpubkey_address": "3NPbwHydEyqM8i2EnUHLCGCs5JzTfo4bhp",
      "value": 600
    },
    {
      "scriptpubkey": "a914e30f8bf518a19cf1a2448cc18303d8839eb6ab4d87",
      "scriptpubkey_asm": "OP_HASH160 OP_PUSHBYTES_20 e30f8bf518a19cf1a2448cc18303d8839eb6ab4d OP_EQUAL",
      "scriptpubkey_type": "p2sh",
      "scriptpubkey_address": "3NPbwHydEyqM8i2EnUHLCGCs5JzTfo4bhp",
      "value": 600
    },
    {
      "scriptpubkey": "a914e30f8bf518a19cf1a2448cc18303d8839eb6ab4d87",
      "scriptpubkey_asm": "OP_HASH160 OP_PUSHBYTES_20 e30f8bf518a19cf1a2448cc18303d8839eb6ab4d OP_EQUAL",
      "scriptpubkey_type": "p2sh",
      "scriptpubkey_address": "3NPbwHydEyqM8i2EnUHLCGCs5JzTfo4bhp",
      "value": 600
    },
    {
      "scriptpubkey": "a914e30f8bf518a19cf1a2448cc18303d8839eb6ab4d87",
      "scriptpubkey_asm": "OP_HASH160 OP_PUSHBYTES_20 e30f8bf518a19cf1a2448cc18303d8839eb6ab4d OP_EQUAL",
      "scriptpubkey_type": "p2sh",
      "scriptpubkey_address": "3NPbwHydEyqM8i2EnUHLCGCs5JzTfo4bhp",
      "value": 600
    },
    {
      "scriptpubkey": "a914e30f8bf518a19cf1a2448cc18303d8839eb6ab4d87",
      "scriptpubkey_asm": "OP_HASH160 OP_PUSHBYTES_20 e30f8bf518a19cf1a2448cc18303d8839eb6ab4d OP_EQUAL",
      "scriptpubkey_type": "p2sh",
      "scriptpubkey_address": "3NPbwHydEyqM8i2EnUHLCGCs5JzTfo4bhp",
      "value": 9086736
    }
  ],
  "size": 536,
  "weight": 1814,
  "fee": 7264,
  "status": {
    "confirmed": true,
    "block_height": 834638,
    "block_hash": "000000000000000000025f742c626208ac87e0b7d15054abb4a19ca2d735a54e",
    "block_time": 1710405325
  },
  "hex": "020000000001010d70915f52360eb086776a3647c307aa26de9eafea4e176cbd3f78c7f7523eae000000001716001473d0c086fb328f9e841c671688bc969a6ec71da2ffffffff0b580200000000000017a914e30f8bf518a19cf1a2448cc18303d8839eb6ab4d87580200000000000017a914e30f8bf518a19cf1a2448cc18303d8839eb6ab4d87580200000000000017a914e30f8bf518a19cf1a2448cc18303d8839eb6ab4d87580200000000000017a914e30f8bf518a19cf1a2448cc18303d8839eb6ab4d87580200000000000017a914e30f8bf518a19cf1a2448cc18303d8839eb6ab4d87580200000000000017a914e30f8bf518a19cf1a2448cc18303d8839eb6ab4d87580200000000000017a914e30f8bf518a19cf1a2448cc18303d8839eb6ab4d87580200000000000017a914e30f8bf518a19cf1a2448cc18303d8839eb6ab4d87580200000000000017a914e30f8bf518a19cf1a2448cc18303d8839eb6ab4d87580200000000000017a914e30f8bf518a19cf1a2448cc18303d8839eb6ab4d8710a78a000000000017a914e30f8bf518a19cf1a2448cc18303d8839eb6ab4d8702483045022100c92968b8496380a631a75700582cd927e7f83a1db412c51a5bdf029fde484a390220581377418be780e245346f3587af17a29cae7e454fb79adc416cb820d30e568e012103a0b9db1f8c37d04c5a6986f0579a1d89f1c69e6840eb350dbeabbafd01227dc000000000"
}