{
  "txid": "ae55af382d8a9dcb958f1414582092347166bb4b7bb1a754396e0bccd56014bd",
  "version": 2,
  "locktime": 0,
  "vin": [
    {
      "txid": "fe1f6d32feabb998c4086d6870197c737b6adbbb52c3c58d62b33dc1f6820f0a",
      "vout": 0,
      "prevout": {
        "scriptpubkey": "512071f8e6919f732093e82dd6ea19b8da3fd3aa00edc9c88908a70cf1c5f13414a8",
        "scriptpubkey_asm": "OP_PUSHNUM_1 OP_PUSHBYTES_32 71f8e6919f732093e82dd6ea19b8da3fd3aa00edc9c88908a70cf1c5f13414a8",
        "scriptpubkey_type": "v1_p2tr",
        "scriptpubkey_address": "bc1pw8uwdyvlwvsf86pd6m4pnwx68lf65q8de8ygjz98pncutuf5zj5qdg4xtg",
        "value": 4000
      },
      "scriptsig": "",
      "scriptsig_asm": "",
      "witness": [
        "82c8ab1f41bfe447ea4dbd402a4141ef5fa5d2f761c64c1f9d51158e92f3a630184b8f76ea975500731782c978ae702c3b843f91ac485f8fbabf500090ddc5a6",
        "20546a67b5369d644aa6f29bbf05e4ed8dd977bc81097a36e4e9e264cc136b4e31ac0063036f7264010118746578742f706c61696e3b636861727365743d7574662d3800397b2270223a226272632d3230222c226f70223a227472616e73666572222c227469636b223a2262696c69222c22616d74223a2231363130227d68",
        "c1436af003d31a908a522473346b5c8c36d94249ef9f93a340f5935afe8d2ff32b"
      ],
      "is_coinbase": false,
      "sequence": 4294967293
    }
  ],
  "vout": [
    {
      "scriptpubkey": "51205a32ac7c9c3b097d60cdefcd16137ad58e9d58138831a91bb3ab6c98733b648f",
      "scriptpubkey_asm": "OP_PUSHNUM_1 OP_PUSHBYTES_32 5a32ac7c9c3b097d60cdefcd16137ad58e9d58138831a91bb3ab6c98733b648f",
      "scriptpubkey_type": "v1_p2tr",
      "scriptpubkey_address": "bc1ptge2clyu8vyh6cxdalx3vym66k8f6kqn3qc6jxan4dkfsuemvj8s7v7346",
      "value": 330
    },
    {
      "scriptpubkey": "0014e1e3cc092937cdba213b0d933593d0abf2ba157f",
      "scriptpubkey_asm": "OP_0 OP_PUSHBYTES_20 e1e3cc092937cdba213b0d933593d0abf2ba157f",
      "scriptpubkey_type": "v0_p2wpkh",
      "scriptpubkey_address": "bc1qu83uczffxlxm5gfmpkfnty7s40et59tlzd8u3g",
      "value": 1657
    }
  ],
  "size": 355,
  "weight": 730,
  "fee": 2013,
  "status": {
    "confirmed": true,
    "block_height": 834464,
    "block_hash": "0000000000000000000177a0869a911a2b65c9bdcd5a8bcb02b68f305bee848e",
    "block_time": 1710308296
  },
  "hex": "020000000001010a0f82f6c13db3628dc5c352bbdb6a7b737c1970686d08c498b9abfe326d1ffe0000000000fdffffff024a010000000000002251205a32ac7c9c3b097d60cdefcd16137ad58e9d58138831a91bb3ab6c98733b648f7906000000000000160014e1e3cc092937cdba213b0d933593d0abf2ba157f034082c8ab1f41bfe447ea4dbd402a4141ef5fa5d2f761c64c1f9d51158e92f3a630184b8f76ea975500731782c978ae702c3b843f91ac485f8fbabf500090ddc5a67f20546a67b5369d644aa6f29bbf05e4ed8dd977bc81097a36e4e9e264cc136b4e31ac0063036f7264010118746578742f706c61696e3b636861727365743d7574662d3800397b2270223a226272632d3230222c226f70223a227472616e73666572222c227469636b223a2262696c69222c22616d74223a2231363130227d6821c1436af003d31a908a522473346b5c8c36d94249ef9f93a340f5935afe8d2ff32b00000000"
}