{
  "txid": "ae7c92b04cb05f5d8e869bcb02c0fb8d9d1c4cd845a290cd435c16d315749405",
  "version": 2,
  "locktime": 0,
  "vin": [
    {
      "txid": "1ab9408e71c8edd3c8c68364f107bb77744f801d93649f742872534c4a5fceaa",
      "vout": 0,
      "prevout": {
        "scriptpubkey": "a91490f5664cc0cbdc13cca380290d701dcc8781c92187",
        "scriptpubkey_asm": "OP_HASH160 OP_PUSHBYTES_20 90f5664cc0cbdc13cca380290d701dcc8781c921 OP_EQUAL",
        "scriptpubkey_type": "p2sh",
        "scriptpubkey_address": "3EuVCq9wrCToLwKJ5v9JW9cbDN9XHVn7B6",
        "value": 4002896972
      },
      "scriptsig": "1600144997a2c57690f0012df34e9b03270ed34b9ae5ec",
      "scriptsig_asm": "OP_PUSHBYTES_22 00144997a2c57690f0012df34e9b03270ed34b9ae5ec",
      "witness": [
        "3045022100ce522f4f062504d5d3073259a2296dcafe5570bdf155331a41d64c9f772a5b7c022030c4c9311c054ca4d957aa011e7c8a14e9291419d8927f657fd4f9b3b3e9429301",
        "02151bd37f821bc4e87249725cdb5a649c5e731e9a7fd9fa39d731437cb931c57c"
      ],
      "is_coinbase": false,
      "sequence": 4294967295,
      "inner_redeemscript_asm": "OP_0 OP_PUSHBYTES_20 4997a2c57690f0012df34e9b03270ed34b9ae5ec"
    }
  ],
  "vout": [
    {
      "scriptpubkey": "76a914e93d59b9be7bf71c2188185d7da2be49293b5eb388ac",
      "scriptpubkey_asm": "OP_DUP OP_HASH160 OP_PUSHBYTES_20 e93d59b9be7bf71c2188185d7da2be49293b5eb3 OP_EQUALVERIFY OP_CHECKSIG",
      "scriptpubkey_type": "p2pkh",
      "scriptpubkey_address": "1NGFwQPh16VE3c1xDRhBnfXBNnZ7sTBikb",
      "value": 10000000
    },
    {
      "scriptpubkey": "a914c66db62c6572d9db3db170708ea306f92d2c97d787",
      "scriptpubkey_asm": "OP_HASH160 OP_PUSHBYTES_20 c66db62c6572d9db3db170708ea306f92d2c97d7 OP_EQUAL",
      "scriptpubkey_type": "p2sh",
      "scriptpubkey_address": "3KnD9RUd5NT7Xb6sGCrbFe8abbU8HMqhTP",
      "value": 3992893963
    }
  ],
  "size": 250,
  "weight": 670,
  "fee": 3009,
  "status": {
    "confirmed": true,
    "block_height": 834638,
    "block_hash": "000000000000000000025f742c626208ac87e0b7d15054abb4a19ca2d735a54e",
    "block_time": 1710405325
  },
  "hex": "02000000000101aace5f4a4c537228749f64931d804f7477bb07f16483c6c8d3edc8718e40b91a00000000171600144997a2c57690f0012df34e9b03270ed34b9ae5ecffffffff0280969800000000001976a914e93d59b9be7bf71c2188185d7da2be49293b5eb388ac0bbafeed0000000017a914c66db62c6572d9db3db170708ea306f92d2c97d78702483045022100ce522f4f062504d5d3073259a2296dcafe5570bdf155331a41d64c9f772a5b7c022030c4c9311c054ca4d957aa011e7c8a14e9291419d8927f657fd4f9b3b3e94293012102151bd37f821bc4e87249725cdb5a649c5e731e9a7fd9fa39d731437cb931c57c00000000"
}