{
  "txid": "ae9a68a974a753b61a6811a8912289417ff0e2e420776645325a464a5ea03c8d",
  "version": 2,
  "locktime": 834458,
  "vin": [
    {
      "txid": "6b2b29f323650f53e298f3708d156cfa30d741fec942c6d064afdc272a2e0b71",
      "vout": 2,
      "prevout": {
        "scriptpubkey": "a914047dbba4b2aad7e8e0cc9f33d828b8b80a720ee887",
        "scriptpubkey_asm": "OP_HASH160 OP_PUSHBYTES_20 047dbba4b2aad7e8e0cc9f33d828b8b80a720ee8 OP_EQUAL",
        "scriptpubkey_type": "p2sh",
        "scriptpubkey_address": "326mFPgJ1u8FLAEZvz4FDnVxi4naRioUo2",
        "value": 96759
      },
      "scriptsig": "160014bcdbf237e2330d7eab6d3756f2e1833e593943cb",
      "scriptsig_asm": "OP_PUSHBYTES_22 0014bcdbf237e2330d7eab6d3756f2e1833e593943cb",
      "witness": [
        "3044022020dbd26425cd37fdb99f512f331187c31faf251aa9d9c4152253e523517ff6a4022015499b145a6e2e119139e9d91334574c6d59897317794c1f28c5aafea3351f6e01",
        "037f35ba8d406d2fe51f6df93c61f8fa9ca4bdfb347b9e490dda63333acc14c522"
      ],
      "is_coinbase": false,
      "sequence": 4294967293,
      "inner_redeemscript_asm": "OP_0 OP_PUSHBYTES_20 bcdbf237e2330d7eab6d3756f2e1833e593943cb"
    }
  ],
  "vout": [
    {
      "scriptpubkey": "a91417d3274103be53a3d6f0f70a4b9d2263ce92673387",
      "scriptpubkey_asm": "OP_HASH160 OP_PUSHBYTES_20 17d3274103be53a3d6f0f70a4b9d2263ce926733 OP_EQUAL",
      "scriptpubkey_type": "p2sh",
      "scriptpubkey_address": "33rzR9UBWK33i7ie99z4ueVUCSjPWZCPzN",
      "value": 3159
    },
    {
      "scriptpubkey": "76a9145cfed0b7d504c39d76c4127e2734835609319c0c88ac",
      "scriptpubkey_asm": "OP_DUP OP_HASH160 OP_PUSHBYTES_20 5cfed0b7d504c39d76c4127e2734835609319c0c OP_EQUALVERIFY OP_CHECKSIG",
      "scriptpubkey_type": "p2pkh",
      "scriptpubkey_address": "19UiRXX5GWjGTJLYximYmjV2YsPpa47iEp",
      "value": 8579
    },
    {
      "scriptpubkey": "76a914f93d78ea27b25731e1f392b23f4b9b43080897c288ac",
      "scriptpubkey_asm": "OP_DUP OP_HASH160 OP_PUSHBYTES_20 f93d78ea27b25731e1f392b23f4b9b43080897c2 OP_EQUALVERIFY OP_CHECKSIG",
      "scriptpubkey_type": "p2pkh",
      "scriptpubkey_address": "1PirtwPFjbsa4E7SSr1HbyqfCkEEARVr1t",
      "value": 1095
    },
    {
      "scriptpubkey": "76a914c9991a6c72c4892f6415635e5332114bdf41f59988ac",
      "scriptpubkey_asm": "OP_DUP OP_HASH160 OP_PUSHBYTES_20 c9991a6c72c4892f6415635e5332114bdf41f599 OP_EQUALVERIFY OP_CHECKSIG",
      "scriptpubkey_type": "p2pkh",
      "scriptpubkey_address": "1KNxEMeQ6e6bKByrrd1VGLhgHSPo4QJZKh",
      "value": 8968
    },
    {
      "scriptpubkey": "a9149b126b842a09a1cc08e98ed82e563ca45f21b4d487",
      "scriptpubkey_asm": "OP_HASH160 OP_PUSHBYTES_20 9b126b842a09a1cc08e98ed82e563ca45f21b4d4 OP_EQUAL",
      "scriptpubkey_type": "p2sh",
      "scriptpubkey_address": "3Fpxj7wbEE2CngJnoMYExNBpaevkTT6JLp",
      "value": 50882
    },
    {
      "scriptpubkey": "76a91434670951dd55ffceaaf7e696584cb884e07f41a588ac",
      "scriptpubkey_asm": "OP_DUP OP_HASH160 OP_PUSHBYTES_20 34670951dd55ffceaaf7e696584cb884e07f41a5 OP_EQUALVERIFY OP_CHECKSIG",
      "scriptpubkey_type": "p2pkh",
      "scriptpubkey_address": "15n5a54wWdnutPfLW1vRBGsguABNdZMacy",
      "value": 3188
    },
    {
      "scriptpubkey": "76a914345610d8adf3ce1283ee6d0c0eab7cc1b1c2d83088ac",
      "scriptpubkey_asm": "OP_DUP OP_HASH160 OP_PUSHBYTES_20 345610d8adf3ce1283ee6d0c0eab7cc1b1c2d830 OP_EQUALVERIFY OP_CHECKSIG",
      "scriptpubkey_type": "p2pkh",
      "scriptpubkey_address": "15mjEw53cUB1GapsrDXuBxDXmKnGztBErx",
      "value": 1421
    },
    {
      "scriptpubkey": "76a9144624a2301f5f0089394d3bf6edae95fc9acb352988ac",
      "scriptpubkey_asm": "OP_DUP OP_HASH160 OP_PUSHBYTES_20 4624a2301f5f0089394d3bf6edae95fc9acb3529 OP_EQUALVERIFY OP_CHECKSIG",
      "scriptpubkey_type": "p2pkh",
      "scriptpubkey_address": "17PtBmkcAhWS9CA4bP3TR6g6qmSFt4PLpi",
      "value": 3681
    },
    {
      "scriptpubkey": "76a91427ff73728bc6c6cdc351c477d15e6428f01028f288ac",
      "scriptpubkey_asm": "OP_DUP OP_HASH160 OP_PUSHBYTES_20 27ff73728bc6c6cdc351c477d15e6428f01028f2 OP_EQUALVERIFY OP_CHECKSIG",
      "scriptpubkey_type": "p2pkh",
      "scriptpubkey_address": "14eVNXVUbM6UKVZ783ueNzSwV9h5qoZSdQ",
      "value": 7301
    },
    {
      "scriptpubkey": "76a9142bc3cdf858e8a4c800a2cf6b804602d18169345988ac",
      "scriptpubkey_asm": "OP_DUP OP_HASH160 OP_PUSHBYTES_20 2bc3cdf858e8a4c800a2cf6b804602d181693459 OP_EQUALVERIFY OP_CHECKSIG",
      "scriptpubkey_type": "p2pkh",
      "scriptpubkey_address": "14zQczMHgTTV34e1AvRpFHbwc1EjBYZqUw",
      "value": 1236
    },
    {
      "scriptpubkey": "76a91492fc6440e1d2f12fba2747d43b43d3cdfc0472d088ac",
      "scriptpubkey_asm": "OP_DUP OP_HASH160 OP_PUSHBYTES_20 92fc6440e1d2f12fba2747d43b43d3cdfc0472d0 OP_EQUALVERIFY OP_CHECKSIG",
      "scriptpubkey_type": "p2pkh",
      "scriptpubkey_address": "1EQC1V5UQQfbKN4sEuHkyhRm17J7uM4ZbS",
      "value": 1106
    }
  ],
  "size": 553,
  "weight": 1885,
  "fee": 6143,
  "status": {
    "confirmed": true,
    "block_height": 834460,
    "block_hash": "00000000000000000000484a79b643b2524bbce82e5d8a442013fa5b8905ed98",
    "block_time": 1710307468
  },
  "hex": "02000000000101710b2e2a27dcaf64d0c642c9fe41d730fa6c158d70f398e2530f6523f3292b6b0200000017160014bcdbf237e2330d7eab6d3756f2e1833e593943cbfdffffff0b570c00000000000017a91417d3274103be53a3d6f0f70a4b9d2263ce9267338783210000000000001976a9145cfed0b7d504c39d76c4127e2734835609319c0c88ac47040000000000001976a914f93d78ea27b25731e1f392b23f4b9b43080897c288ac08230000000000001976a914c9991a6c72c4892f6415635e5332114bdf41f59988acc2c600000000000017a9149b126b842a09a1cc08e98ed82e563ca45f21b4d487740c0000000000001976a91434670951dd55ffceaaf7e696584cb884e07f41a588ac8d050000000000001976a914345610d8adf3ce1283ee6d0c0eab7cc1b1c2d83088ac610e0000000000001976a9144624a2301f5f0089394d3bf6edae95fc9acb352988ac851c0000000000001976a91427ff73728bc6c6cdc351c477d15e6428f01028f288acd4040000000000001976a9142bc3cdf858e8a4c800a2cf6b804602d18169345988ac52040000000000001976a91492fc6440e1d2f12fba2747d43b43d3cdfc0472d088ac02473044022020dbd26425cd37fdb99f512f331187c31faf251aa9d9c4152253e523517ff6a4022015499b145a6e2e119139e9d91334574c6d59897317794c1f28c5aafea3351f6e0121037f35ba8d406d2fe51f6df93c61f8fa9ca4bdfb347b9e490dda63333acc14c5229abb0c00"
}