{
  "txid": "ae9c764976e53bd3d193e90d2188930feb85f75104aff65e0b699f7ea40363be",
  "version": 2,
  "locktime": 834637,
  "vin": [
    {
      "txid": "a924264b9808ecbfd23172f06584760880025c6e780919cea96a5a7d76b6f7c0",
      "vout": 1,
      "prevout": {
        "scriptpubkey": "00144926363dfb1c98cb881e6148e0eb147f8da1a5aa",
        "scriptpubkey_asm": "OP_0 OP_PUSHBYTES_20 4926363dfb1c98cb881e6148e0eb147f8da1a5aa",
        "scriptpubkey_type": "v0_p2wpkh",
        "scriptpubkey_address": "bc1qfynrv00mrjvvhzq7v9ywp6c507x6rfd2pncdk8",
        "value": 38935
      },
      "scriptsig": "",
      "scriptsig_asm": "",
      "witness": [
        "3044022066974ff078a97fa7ea93df120f3384415aac66c452fd7e0ae92703b23ec3873f02203a9ac1fa5823ac3d3a7b0dfc80eefd62553afe2565aeb702112ef65f18f67e8101",
        "020dc0c0c8144c96967a44fbe5d4f0e67e2222111f5edfc97f76d4b1e7c69613cd"
      ],
      "is_coinbase": false,
      "sequence": 4294967294
    }
  ],
  "vout": [
    {
      "scriptpubkey": "a9141312a368b7acccf5bbd57f0ce82a974b08b7f4db87",
      "scriptpubkey_asm": "OP_HASH160 OP_PUSHBYTES_20 1312a368b7acccf5bbd57f0ce82a974b08b7f4db OP_EQUAL",
      "scriptpubkey_type": "p2sh",
      "scriptpubkey_address": "33Rs6Ce1URayeVBCKMTL3LMZYHRv7h9YDa",
      "value": 27500
    },
    {
      "scriptpubkey": "0014e3ba2421b6e40c021029853561d2e207cddd495a",
      "scriptpubkey_asm": "OP_0 OP_PUSHBYTES_20 e3ba2421b6e40c021029853561d2e207cddd495a",
      "scriptpubkey_type": "v0_p2wpkh",
      "scriptpubkey_address": "bc1quwazggdkusxqyypfs56kr5hzqlxa6j26f4gujk",
      "value": 9174
    }
  ],
  "size": 223,
  "weight": 565,
  "fee": 2261,
  "status": {
    "confirmed": true,
    "block_height": 834638,
    "block_hash": "000000000000000000025f742c626208ac87e0b7d15054abb4a19ca2d735a54e",
    "block_time": 1710405325
  },
  "hex": "02000000000101c0f7b6767d5a6aa9ce1909786e5c028008768465f07231d2bfec08984b2624a90100000000feffffff026c6b00000000000017a9141312a368b7acccf5bbd57f0ce82a974b08b7f4db87d623000000000000160014e3ba2421b6e40c021029853561d2e207cddd495a02473044022066974ff078a97fa7ea93df120f3384415aac66c452fd7e0ae92703b23ec3873f02203a9ac1fa5823ac3d3a7b0dfc80eefd62553afe2565aeb702112ef65f18f67e810121020dc0c0c8144c96967a44fbe5d4f0e67e2222111f5edfc97f76d4b1e7c69613cd4dbc0c00"
}