{
  "txid": "ae9e7012bea2ea6fdcd7baa078503fd03afd96d22dcb7f0a88c1655f8288ac7d",
  "version": 1,
  "locktime": 0,
  "vin": [
    {
      "txid": "9e126a0d439eab0c209d778e39f31802e1a2e799247e1ed816108e2ee21c7f50",
      "vout": 1,
      "prevout": {
        "scriptpubkey": "001449e2334633949ba1b63e7c98f23a71117ce8ab22",
        "scriptpubkey_asm": "OP_0 OP_PUSHBYTES_20 49e2334633949ba1b63e7c98f23a71117ce8ab22",
        "scriptpubkey_type": "v0_p2wpkh",
        "scriptpubkey_address": "bc1qf83rx33njjd6rd370jv0ywn3z97w32ezxtx34m",
        "value": 3099015322
      },
      "scriptsig": "",
      "scriptsig_asm": "",
      "witness": [
        "3044022057433220e67972588dbb5c0a40d72481fe821d6ca128ca383aa52016615326f402200dfa9649703ed45fc7a43a0f24ef24ebc6e33cdfd49738f60201a288d005536101",
        "02c0a7d92d5e89b46ea2faeb88cfc0345ae5b3d45276f867aaedc5fa486823ec5e"
      ],
      "is_coinbase": false,
      "sequence": 4294967295
    }
  ],
  "vout": [
    {
      "scriptpubkey": "0014c52e62e8eb9cb2adfb9c6a4bf20ab7730e72136e",
      "scriptpubkey_asm": "OP_0 OP_PUSHBYTES_20 c52e62e8eb9cb2adfb9c6a4bf20ab7730e72136e",
      "scriptpubkey_type": "v0_p2wpkh",
      "scriptpubkey_address": "bc1qc5hx968tnje2m7uudf9lyz4hwv88yymwe0szst",
      "value": 48031
    },
    {
      "scriptpubkey": "001449e2334633949ba1b63e7c98f23a71117ce8ab22",
      "scriptpubkey_asm": "OP_0 OP_PUSHBYTES_20 49e2334633949ba1b63e7c98f23a71117ce8ab22",
      "scriptpubkey_type": "v0_p2wpkh",
      "scriptpubkey_address": "bc1qf83rx33njjd6rd370jv0ywn3z97w32ezxtx34m",
      "value": 3098964922
    }
  ],
  "size": 222,
  "weight": 561,
  "fee": 2369,
  "status": {
    "confirmed": true,
    "block_height": 834638,
    "block_hash": "000000000000000000025f742c626208ac87e0b7d15054abb4a19ca2d735a54e",
    "block_time": 1710405325
  },
  "hex": "01000000000101507f1ce22e8e1016d81e7e2499e7a2e10218f3398e779d200cab9e430d6a129e0100000000ffffffff029fbb000000000000160014c52e62e8eb9cb2adfb9c6a4bf20ab7730e72136eba73b6b80000000016001449e2334633949ba1b63e7c98f23a71117ce8ab2202473044022057433220e67972588dbb5c0a40d72481fe821d6ca128ca383aa52016615326f402200dfa9649703ed45fc7a43a0f24ef24ebc6e33cdfd49738f60201a288d0055361012102c0a7d92d5e89b46ea2faeb88cfc0345ae5b3d45276f867aaedc5fa486823ec5e00000000"
}