{
  "txid": "aea3ed6b0761e5f63b22f38597c27b3e3f57d5db9311809576377bd9cc7b4272",
  "version": 2,
  "locktime": 834458,
  "vin": [
    {
      "txid": "5c4fd8a799a29a9584ca493ed441ce243c613a1c761319a0be73740fff9f1202",
      "vout": 7,
      "prevout": {
        "scriptpubkey": "00147d1a2b0e998e87f324738dc825d399ea5a694a35",
        "scriptpubkey_asm": "OP_0 OP_PUSHBYTES_20 7d1a2b0e998e87f324738dc825d399ea5a694a35",
        "scriptpubkey_type": "v0_p2wpkh",
        "scriptpubkey_address": "bc1q05dzkr5e36rlxfrn3hyzt5ueafdxjj34q65up4",
        "value": 75547
      },
      "scriptsig": "",
      "scriptsig_asm": "",
      "witness": [
        "304402203eb0f96cc70c3780fc07611239787c1086d17775e90e6200a6cba7f42a9c1478022066a08c5979761173e8db0b9da4af0844d3b2284022a44c10769383b7c722fd4001",
        "033fb35b8d0f5ecbd8cc7df7439d70a3c0f3f5b2a1312d8af169b331904401b515"
      ],
      "is_coinbase": false,
      "sequence": 4294967293
    },
    {
      "txid": "b078dc76b4f15d6744b09f6cf5c373a7885726f500f6f8efe762c4a4f7e7c805",
      "vout": 9,
      "prevout": {
        "scriptpubkey": "00146b9b8af07ea0fba322ddb9ec1c418acf8fcb6182",
        "scriptpubkey_asm": "OP_0 OP_PUSHBYTES_20 6b9b8af07ea0fba322ddb9ec1c418acf8fcb6182",
        "scriptpubkey_type": "v0_p2wpkh",
        "scriptpubkey_address": "bc1qdwdc4ur75ra6xgkah8kpcsv2e78ukcvzau2r4m",
        "value": 90456
      },
      "scriptsig": "",
      "scriptsig_asm": "",
      "witness": [
        "304402200f51a1cc32046025ec71d31d75a99e004ac3d0bde893b73bd0eb25fbdef41ae4022076b58d4e98af7f43d34837fd1aeb84548a4cbad25248adbeef9487a5b024100101",
        "0321bea087e80995121fa2c3607293025fb572131397ca06b9d99a7509841f2170"
      ],
      "is_coinbase": false,
      "sequence": 4294967293
    },
    {
      "txid": "13f8cc4a1b71ccd92df66c69cb1fa0e8c629e63756f6cb7feb73b0fbc4d5ed32",
      "vout": 4,
      "prevout": {
        "scriptpubkey": "0014cc6f4678dfc0a08c7de667a9df2793266a29936e",
        "scriptpubkey_asm": "OP_0 OP_PUSHBYTES_20 cc6f4678dfc0a08c7de667a9df2793266a29936e",
        "scriptpubkey_type": "v0_p2wpkh",
        "scriptpubkey_address": "bc1qe3h5v7xlczsgcl0xv75a7funye4znymwcvgw0n",
        "value": 81951
      },
      "scriptsig": "",
      "scriptsig_asm": "",
      "witness": [
        "3044022078be07de75ffaac43b01f4243463f3a60453a2ddc37c3c600a66d1e6ecba5264022073be39a056954842ba31afcbd132bf2fa058a7d43c3a17660cb84ef92ec88d5d01",
        "038516c9cba5f367cee02f20091539a46649d6cd8776221eafe0585e1dad65e5ff"
      ],
      "is_coinbase": false,
      "sequence": 4294967293
    },
    {
      "txid": "ebbbb4e1ed3d69c6380b1fe4009649df6a15016cb06706735e87cd3606ecc02d",
      "vout": 2,
      "prevout": {
        "scriptpubkey": "0014d7047450b5881ed4f25650d10e308b94fd2badd1",
        "scriptpubkey_asm": "OP_0 OP_PUSHBYTES_20 d7047450b5881ed4f25650d10e308b94fd2badd1",
        "scriptpubkey_type": "v0_p2wpkh",
        "scriptpubkey_address": "bc1q6uz8g5943q0dfujk2rgsuvytjn7jhtw394s6w3",
        "value": 61528
      },
      "scriptsig": "",
      "scriptsig_asm": "",
      "witness": [
        "30440220478fdedbeb3452321a2bc32cddd1b071273e7428ebe692674f212fa0e9a5d67e02202c5e6cd8fd7b8e48b7023f01a74567c95c6e6bf2a82f4526d3d56e018770250e01",
        "0356a917bbaa4a72b79c9d401b2e141860e59895c9d1db1b6127d76f6338398690"
      ],
      "is_coinbase": false,
      "sequence": 4294967293
    },
    {
      "txid": "c8eed7b1e84844d35f0a7e9c7722b5f6c73e4d312cd4aa09f49ecebc3959524a",
      "vout": 9,
      "prevout": {
        "scriptpubkey": "0014eafd3dd25df4a9f750442e80e913de8162a63cf0",
        "scriptpubkey_asm": "OP_0 OP_PUSHBYTES_20 eafd3dd25df4a9f750442e80e913de8162a63cf0",
        "scriptpubkey_type": "v0_p2wpkh",
        "scriptpubkey_address": "bc1qat7nm5ja7j5lw5zy96qwjy77s932v08scx795f",
        "value": 75460
      },
      "scriptsig": "",
      "scriptsig_asm": "",
      "witness": [
        "3044022078f67cb73ad4a2ff41ebbfb30e6ac6c764eb04af90172765473c3ace669f83d70220045711d8247469ce65ce7874ae7ba7539990a21b02ba76335541e650b20ef87c01",
        "0242b44ceebc3e01f1a5bfc71f8deb4916cb23a449b4861306ab817979e5dd1652"
      ],
      "is_coinbase": false,
      "sequence": 4294967293
    },
    {
      "txid": "271696819016b4135a2c6d3c02197fc27ed62eacd69bb989df92afb81c6dfa44",
      "vout": 0,
      "prevout": {
        "scriptpubkey": "0014537f3af0c0b847fcf5f6ea8a4116b436b6b00df7",
        "scriptpubkey_asm": "OP_0 OP_PUSHBYTES_20 537f3af0c0b847fcf5f6ea8a4116b436b6b00df7",
        "scriptpubkey_type": "v0_p2wpkh",
        "scriptpubkey_address": "bc1q2dln4uxqhprlea0ka29yz945x6mtqr0hndt8gs",
        "value": 74985
      },
      "scriptsig": "",
      "scriptsig_asm": "",
      "witness": [
        "30440220009cdd540f6aad5973f4c6d7b0d7f3335456d1f232bd761785bfd181c98296b40220188a31083219ce9d640bac324c8b558468f2ba1ebfbed5ac4808b135275f78f501",
        "02fa4b06c61245b991049aae5532092ebb0cf7e54d71a1809f93309811aaa32f6f"
      ],
      "is_coinbase": false,
      "sequence": 4294967293
    },
    {
      "txid": "1df149fc240cabf3a76cdbe2ab0b54f884ee881215d4622e06e48e31da353ac6",
      "vout": 1,
      "prevout": {
        "scriptpubkey": "001487e064783eb70db006ebad203484d61063c85e00",
        "scriptpubkey_asm": "OP_0 OP_PUSHBYTES_20 87e064783eb70db006ebad203484d61063c85e00",
        "scriptpubkey_type": "v0_p2wpkh",
        "scriptpubkey_address": "bc1qslsxg7p7kuxmqpht45srfpxkzp3ushsquf9kfa",
        "value": 66643
      },
      "scriptsig": "",
      "scriptsig_asm": "",
      "witness": [
        "304402207bf4bb46f7e551e42522e119ff7be5ed857934c27ae5c3a8ae822cc8a56fb589022062afd6212c55dae2cb606cb3221b295b2a2c7f28b0e20781d332ba120101042901",
        "0265771326ffca981d89f6e1316ad58537a415a057ac15c982963432eba244ca0a"
      ],
      "is_coinbase": false,
      "sequence": 4294967293
    },
    {
      "txid": "00643323a729ef53e12892f41b63801fa11a7eb109bc95476f107d5199b07d2b",
      "vout": 10,
      "prevout": {
        "scriptpubkey": "001491f3fe961ec26e1aed0d946123e3ad4426db1bf4",
        "scriptpubkey_asm": "OP_0 OP_PUSHBYTES_20 91f3fe961ec26e1aed0d946123e3ad4426db1bf4",
        "scriptpubkey_type": "v0_p2wpkh",
        "scriptpubkey_address": "bc1qj8ela9s7cfhp4mgdj3sj8cadgsndkxl5gdvfsj",
        "value": 75608
      },
      "scriptsig": "",
      "scriptsig_asm": "",
      "witness": [
        "304402204ee30f104db53622e316dddaeb81723da30e173269ea1da18bd06d0f333f393302201dae05b45e0c134732b2bdcd10575e2dfae24b3899a0826ec26830786395bd9501",
        "033159ed330214795fe235788177a3c885c5668814a483b08d8cf45e4fd36bceb3"
      ],
      "is_coinbase": false,
      "sequence": 4294967293
    },
    {
      "txid": "283d981aef58d9b02c9f70b36694a099f1b1707b111b6e6b89187f28e7083457",
      "vout": 0,
      "prevout": {
        "scriptpubkey": "00145f9bae687d05e4b774e5d041671d0356d4cd909d",
        "scriptpubkey_asm": "OP_0 OP_PUSHBYTES_20 5f9bae687d05e4b774e5d041671d0356d4cd909d",
        "scriptpubkey_type": "v0_p2wpkh",
        "scriptpubkey_address": "bc1qt7d6u6raqhjtwa896pqkw8gr2m2vmyya8evaa8",
        "value": 75986
      },
      "scriptsig": "",
      "scriptsig_asm": "",
      "witness": [
        "304402205a5fc0b54547214ce6f0b4870a02880104b28a184e93ab40cf75518701afc175022013cbe6a612f759f4990a4c891f623fb6962f6789d3552e464d46f656bf0af33d01",
        "029045b4111763cb2b209c6598e4d9ce0f8c99e9a1593d33fa600a04eab84b2d32"
      ],
      "is_coinbase": false,
      "sequence": 4294967293
    },
    {
      "txid": "54cdfa996046a57de60b07dc22aedd2e96ef14aa101a847c490e47689f3193d6",
      "vout": 9,
      "prevout": {
        "scriptpubkey": "0014ddc95c83ec07021f69e56d19ac5bfd4c599e0ec8",
        "scriptpubkey_asm": "OP_0 OP_PUSHBYTES_20 ddc95c83ec07021f69e56d19ac5bfd4c599e0ec8",
        "scriptpubkey_type": "v0_p2wpkh",
        "scriptpubkey_address": "bc1qmhy4eqlvqupp7609d5v6cklaf3veurkg2fy4g8",
        "value": 74743
      },
      "scriptsig": "",
      "scriptsig_asm": "",
      "witness": [
        "304402201b56818a56c4f056923c4948a49fdb530ebb45ac22fd0a49fe1cd33ad727138a022054daee8b13c9cda31bd6f038d4593360f234eb211f99ebbc6d4921bd597d362301",
        "02299b399ab5f955149b5cc79745386d0ce1fb6e15b7da3ab3d94cf115d9aa3b3e"
      ],
      "is_coinbase": false,
      "sequence": 4294967293
    },
    {
      "txid": "217ecb8c867f6561b7f2b5b5a97b513336137ccbcf6fb0dabae6b2d46804004c",
      "vout": 0,
      "prevout": {
        "scriptpubkey": "001431dbb449e732ff9e7cdca93a348e752d38669739",
        "scriptpubkey_asm": "OP_0 OP_PUSHBYTES_20 31dbb449e732ff9e7cdca93a348e752d38669739",
        "scriptpubkey_type": "v0_p2wpkh",
        "scriptpubkey_address": "bc1qx8dmgj08xtleulxu4yarfrn495uxd9eewt8c3c",
        "value": 75977
      },
      "scriptsig": "",
      "scriptsig_asm": "",
      "witness": [
        "304402200f61ba70f41b4db38a45430fa78fa8be5cb514b64f57725206eb3a848d8be331022056d6d6613439ef2e51c14392fb3ca45b29ff103177cb1c994cb184469585cd5a01",
        "036cca54320d39ee38aa5fa80c6fa2ad7fbc47399276060a064194377a3bf44b84"
      ],
      "is_coinbase": false,
      "sequence": 4294967293
    },
    {
      "txid": "d103fdcd222ae52fc85dceb8725c8d78e9df44a9df118450f03ed595b51f7bf6",
      "vout": 1,
      "prevout": {
        "scriptpubkey": "001496dd2141134787d81376c692b2f36248fb8a1b0e",
        "scriptpubkey_asm": "OP_0 OP_PUSHBYTES_20 96dd2141134787d81376c692b2f36248fb8a1b0e",
        "scriptpubkey_type": "v0_p2wpkh",
        "scriptpubkey_address": "bc1qjmwjzsgng7rasymkc6ft9umzfrac5xcwcff7ay",
        "value": 74591
      },
      "scriptsig": "",
      "scriptsig_asm": "",
      "witness": [
        "304402207eb771779059759ece8e63db7230c82dc2637e6f309fde2dff320aac51793ccc02204c69fb493303dc0c05fd338735b9fdd68ad6c48a60e44ba900fd149c51498c1a01",
        "03dadbfb9aa18dae4e8d2fd175e3d93e4e293d4f60e16f129353d8bf5e5f5b4f81"
      ],
      "is_coinbase": false,
      "sequence": 4294967293
    },
    {
      "txid": "f09fd42cc6e09d5a3ae748ad725ba0568bd589748b02121cfc74e9e3ae1559ee",
      "vout": 8,
      "prevout": {
        "scriptpubkey": "001467a064d3b5cda50da33edf4c132195d037caa491",
        "scriptpubkey_asm": "OP_0 OP_PUSHBYTES_20 67a064d3b5cda50da33edf4c132195d037caa491",
        "scriptpubkey_type": "v0_p2wpkh",
        "scriptpubkey_address": "bc1qv7sxf5a4ekjsmge7maxpxgv46qmu4fy322snmp",
        "value": 67053
      },
      "scriptsig": "",
      "scriptsig_asm": "",
      "witness": [
        "3044022015fd3722bbd549154d694b3464309f1696a059e7b14b4e78f81724290374fc1802200f3594b390e12785c6e67dda5bfa2908138ff4759c9763896a11077643ea753701",
        "0398968ac699b8c3a443ed1c2c9ae6ea245eb59c4aef927e0d48d68328c1b07fe3"
      ],
      "is_coinbase": false,
      "sequence": 4294967293
    },
    {
      "txid": "6d01a33b037c96fa26df6b5c312e047c0a71d9b28c2ace33f50bf80f4f6c5017",
      "vout": 9,
      "prevout": {
        "scriptpubkey": "00143f76db5df578953ed2a306197ec7277207e42d22",
        "scriptpubkey_asm": "OP_0 OP_PUSHBYTES_20 3f76db5df578953ed2a306197ec7277207e42d22",
        "scriptpubkey_type": "v0_p2wpkh",
        "scriptpubkey_address": "bc1q8amdkh040z2na54rqcvha3e8wgr7gtfzfwuywa",
        "value": 161637
      },
      "scriptsig": "",
      "scriptsig_asm": "",
      "witness": [
        "304402203de3d67406d260fac3ed6d5ff955315ecb070904c2f6ed17bc51b74c9d7b57f60220147619f623c1831040d00579ba3552afb203ee1e0d48cda0edb43e45881aa5da01",
        "0373326357996fd04b633e8a30a8811bba1111f540852af8406b8ce849b46f7761"
      ],
      "is_coinbase": false,
      "sequence": 4294967293
    },
    {
      "txid": "75a13178d6c1975f4a9a64ac08e9e5320644af314d3261050b2457d83f6a6131",
      "vout": 2,
      "prevout": {
        "scriptpubkey": "0014a08db8275fd51c8b82b9a4e522e6208d5a15befe",
        "scriptpubkey_asm": "OP_0 OP_PUSHBYTES_20 a08db8275fd51c8b82b9a4e522e6208d5a15befe",
        "scriptpubkey_type": "v0_p2wpkh",
        "scriptpubkey_address": "bc1q5zxmsf6l65wghq4e5njj9e3q34dpt0h7yqxjvg",
        "value": 75647
      },
      "scriptsig": "",
      "scriptsig_asm": "",
      "witness": [
        "304402200d46c0930309d19868506b9a156d2020ff58b25163a2c365e6749a23530742670220699a9fa155edfa9d4d4a9f7cc336d21f8e9bd9428b1e8b424ce7fb1251b0eadb01",
        "0216dd11d82440a76ed68eda5420db90f39135c723605a56e25d31d806e2e4a9f5"
      ],
      "is_coinbase": false,
      "sequence": 4294967293
    },
    {
      "txid": "a7c58fb7db3021a9d48a8a8bd955d3508bd7356bc59517b898a662de56678fcf",
      "vout": 3,
      "prevout": {
        "scriptpubkey": "0014fc8aeddd6783377f584806d386e2f27e2917cd74",
        "scriptpubkey_asm": "OP_0 OP_PUSHBYTES_20 fc8aeddd6783377f584806d386e2f27e2917cd74",
        "scriptpubkey_type": "v0_p2wpkh",
        "scriptpubkey_address": "bc1qlj9wmht8svmh7kzgqmfcdchj0c530nt58yklky",
        "value": 92752
      },
      "scriptsig": "",
      "scriptsig_asm": "",
      "witness": [
        "304402207b8b910d3d65af9433edd64f4eaf82dc3e15d306e6e7bf397be13229815831ee0220147b8e1d5c906d73d71cdcb853d839cb1213ed45bfab836b33742c6c42f6637401",
        "037fe7ed33cd3878cf28af89d2596d407b94cb4a15bdcab19b3ca08e1ce978deea"
      ],
      "is_coinbase": false,
      "sequence": 4294967293
    },
    {
      "txid": "96c786ac4d93fede0e5e98394d9a817512dd8db388571ef50801971c198d2a20",
      "vout": 1,
      "prevout": {
        "scriptpubkey": "0014cb58102fec2ed20f2b0769305fc7c400452a6ee3",
        "scriptpubkey_asm": "OP_0 OP_PUSHBYTES_20 cb58102fec2ed20f2b0769305fc7c400452a6ee3",
        "scriptpubkey_type": "v0_p2wpkh",
        "scriptpubkey_address": "bc1qedvpqtlv9mfq72c8dyc9l37yqpzj5mhrd2rvrt",
        "value": 94590
      },
      "scriptsig": "",
      "scriptsig_asm": "",
      "witness": [
        "304402206bc5ea0d4008d0d44569acafc3218fc7d2d525ceb8f4c9e6011d5a1916ae4579022053bdf46c0e12503438ec2c8cfd888066d4c173faeabfd9888310fb98a81cba3d01",
        "02098b866667adfaf0ebebcda8c30fe115b4750cdcc1e66ed048156c038fb597da"
      ],
      "is_coinbase": false,
      "sequence": 4294967293
    },
    {
      "txid": "502b153dfb9e1e87a4b750a693dec69c5a1882a94507792c6161ea854fce1e42",
      "vout": 1,
      "prevout": {
        "scriptpubkey": "00142038bde16c022c7b15ebbfccb273a7863b553149",
        "scriptpubkey_asm": "OP_0 OP_PUSHBYTES_20 2038bde16c022c7b15ebbfccb273a7863b553149",
        "scriptpubkey_type": "v0_p2wpkh",
        "scriptpubkey_address": "bc1qyqutmctvqgk8k90thlxtyua8sca42v2fdy9c4m",
        "value": 18286
      },
      "scriptsig": "",
      "scriptsig_asm": "",
      "witness": [
        "304402205f333efdebbc4b7c309ebca95e6d92e881accd837c613a9cc37c1b178c250c6c022048ba4f33b3d69a999241fab3643fcdf483736a68e15a88b289626a31a1d102b401",
        "032ac63bb8ef45ffb6419fcfa91e997b313e28b5bfe90e529f7b538a468e505ca1"
      ],
      "is_coinbase": false,
      "sequence": 4294967293
    }
  ],
  "vout": [
    {
      "scriptpubkey": "001418868d3fbd6133ed5e20b54ef1b1a805af1d5f3b",
      "scriptpubkey_asm": "OP_0 OP_PUSHBYTES_20 18868d3fbd6133ed5e20b54ef1b1a805af1d5f3b",
      "scriptpubkey_type": "v0_p2wpkh",
      "scriptpubkey_address": "bc1qrzrg60aavye76h3qk480rvdgqkh36hemywgtf8",
      "value": 55480
    },
    {
      "scriptpubkey": "0014e3292951d78090eb9c30cfe518b5da12f663776a",
      "scriptpubkey_asm": "OP_0 OP_PUSHBYTES_20 e3292951d78090eb9c30cfe518b5da12f663776a",
      "scriptpubkey_type": "v0_p2wpkh",
      "scriptpubkey_address": "bc1quv5jj5whszgwh8pselj33dw6ztmxxam2xz9x7z",
      "value": 250840
    },
    {
      "scriptpubkey": "00147264cae2ffe864e2e1e8b3299b3b5bbbe408e4aa",
      "scriptpubkey_asm": "OP_0 OP_PUSHBYTES_20 7264cae2ffe864e2e1e8b3299b3b5bbbe408e4aa",
      "scriptpubkey_type": "v0_p2wpkh",
      "scriptpubkey_address": "bc1qwfjv4chlapjw9c0gkv5ekw6mh0jq3e925sq9ju",
      "value": 25980
    },
    {
      "scriptpubkey": "00143bb581e039248aee4655910b907dd793c2e5ba4b",
      "scriptpubkey_asm": "OP_0 OP_PUSHBYTES_20 3bb581e039248aee4655910b907dd793c2e5ba4b",
      "scriptpubkey_type": "v0_p2wpkh",
      "scriptpubkey_address": "bc1q8w6crcpeyj9wu3j4jy9eqlwhj0pwtwjthalxgg",
      "value": 59980
    },
    {
      "scriptpubkey": "76a914926514b3aa1f65bf2902083bf4b602b2ab46017b88ac",
      "scriptpubkey_asm": "OP_DUP OP_HASH160 OP_PUSHBYTES_20 926514b3aa1f65bf2902083bf4b602b2ab46017b OP_EQUALVERIFY OP_CHECKSIG",
      "scriptpubkey_type": "p2pkh",
      "scriptpubkey_address": "1EM4kEHFVyS5d8QUM3a1EqJZo1CS7GEucJ",
      "value": 61980
    },
    {
      "scriptpubkey": "001470335163f04ae9b7309038685e4c6e1f4d1c463a",
      "scriptpubkey_asm": "OP_0 OP_PUSHBYTES_20 70335163f04ae9b7309038685e4c6e1f4d1c463a",
      "scriptpubkey_type": "v0_p2wpkh",
      "scriptpubkey_address": "bc1qwqe4zclsft5mwvys8p59unrwrax3c336a64f83",
      "value": 237520
    },
    {
      "scriptpubkey": "00141b2c7539e85030eab3a3521ef4208ad048a99464",
      "scriptpubkey_asm": "OP_0 OP_PUSHBYTES_20 1b2c7539e85030eab3a3521ef4208ad048a99464",
      "scriptpubkey_type": "v0_p2wpkh",
      "scriptpubkey_address": "bc1qrvk82w0g2qcw4var2g00ggy26py2n9ryld5wm4",
      "value": 121140
    },
    {
      "scriptpubkey": "001475d14ee65b33a2b395557cb92b81eccf7a35b31d",
      "scriptpubkey_asm": "OP_0 OP_PUSHBYTES_20 75d14ee65b33a2b395557cb92b81eccf7a35b31d",
      "scriptpubkey_type": "v0_p2wpkh",
      "scriptpubkey_address": "bc1qwhg5aejmxw3t89240jujhq0veaartvcaqjmx2f",
      "value": 151100
    },
    {
      "scriptpubkey": "00149f3049bc83ced1e705f26fc2ec93bcdddaa519be",
      "scriptpubkey_asm": "OP_0 OP_PUSHBYTES_20 9f3049bc83ced1e705f26fc2ec93bcdddaa519be",
      "scriptpubkey_type": "v0_p2wpkh",
      "scriptpubkey_address": "bc1qnucyn0yremg7wp0jdlpweyaumhd22xd7knqtmh",
      "value": 29080
    },
    {
      "scriptpubkey": "a914bf1516a5c3870c91e3ee1f69b740cf61063e30a587",
      "scriptpubkey_asm": "OP_HASH160 OP_PUSHBYTES_20 bf1516a5c3870c91e3ee1f69b740cf61063e30a5 OP_EQUAL",
      "scriptpubkey_type": "p2sh",
      "scriptpubkey_address": "3K7NFSE3YCbGcRzL6CW1XtEMrshJQAMwnj",
      "value": 87880
    },
    {
      "scriptpubkey": "001429992f9fc3014076054b960a9c7565ce32da3407",
      "scriptpubkey_asm": "OP_0 OP_PUSHBYTES_20 29992f9fc3014076054b960a9c7565ce32da3407",
      "scriptpubkey_type": "v0_p2wpkh",
      "scriptpubkey_address": "bc1q9xvjl87rq9q8vp2tjc9fcat9eced5dq82wda5u",
      "value": 44180
    },
    {
      "scriptpubkey": "001409c750c4b56bf79f0624b30e5bd2332ce8e239ca",
      "scriptpubkey_asm": "OP_0 OP_PUSHBYTES_20 09c750c4b56bf79f0624b30e5bd2332ce8e239ca",
      "scriptpubkey_type": "v0_p2wpkh",
      "scriptpubkey_address": "bc1qp8r4p394d0me7p3ykv89h53n9n5wyww2qzmc3g",
      "value": 68740
    },
    {
      "scriptpubkey": "00145d17a0df3edf38f8cf6bab7668fc6c2d9145d7a4",
      "scriptpubkey_asm": "OP_0 OP_PUSHBYTES_20 5d17a0df3edf38f8cf6bab7668fc6c2d9145d7a4",
      "scriptpubkey_type": "v0_p2wpkh",
      "scriptpubkey_address": "bc1qt5t6phe7muu03nmt4dmx3lrv9kg5t4ay6smj0w",
      "value": 35180
    },
    {
      "scriptpubkey": "00149e1450f8863235c58fafa8a1e1b47bef0d8e4848",
      "scriptpubkey_asm": "OP_0 OP_PUSHBYTES_20 9e1450f8863235c58fafa8a1e1b47bef0d8e4848",
      "scriptpubkey_type": "v0_p2wpkh",
      "scriptpubkey_address": "bc1qnc29p7yxxg6utra04zs7rdrmauxcujzg525d5d",
      "value": 89680
    },
    {
      "scriptpubkey": "001466e84086d57e7457036c89adfa3f25abf081dfaa",
      "scriptpubkey_asm": "OP_0 OP_PUSHBYTES_20 66e84086d57e7457036c89adfa3f25abf081dfaa",
      "scriptpubkey_type": "v0_p2wpkh",
      "scriptpubkey_address": "bc1qvm5yppk40e69wqmv3xkl50e940cgrha24t69vw",
      "value": 52480
    },
    {
      "scriptpubkey": "00149a917a80148c52d67dfe127bcf6ca880dd541139",
      "scriptpubkey_asm": "OP_0 OP_PUSHBYTES_20 9a917a80148c52d67dfe127bcf6ca880dd541139",
      "scriptpubkey_type": "v0_p2wpkh",
      "scriptpubkey_address": "bc1qn2gh4qq533fdvl07zfau7m9gsrw4gyfe0ywwa3",
      "value": 21380
    }
  ],
  "size": 3176,
  "weight": 6920,
  "fee": 20820,
  "status": {
    "confirmed": true,
    "block_height": 834460,
    "block_hash": "00000000000000000000484a79b643b2524bbce82e5d8a442013fa5b8905ed98",
    "block_time": 1710307468
  },
  "hex": "0200000000011202129fff0f7473bea01913761c3a613c24ce41d43e49ca84959aa299a7d84f5c0700000000fdffffff05c8e7f7a4c462e7eff8f600f5265788a773c3f56c9fb044675df1b476dc78b00900000000fdffffff32edd5c4fbb073eb7fcbf65637e629c6e8a01fcb696cf62dd9cc711b4accf8130400000000fdffffff2dc0ec0636cd875e730667b06c01156adf499600e41f0b38c6693dede1b4bbeb0200000000fdffffff4a525939bcce9ef409aad42c314d3ec7f6b522779c7e0a5fd34448e8b1d7eec80900000000fdffffff44fa6d1cb8af92df89b99bd6ac2ed67ec27f19023c6d2c5a13b41690819616270000000000fdffffffc63a35da318ee4062e62d4151288ee84f8540babe2db6ca7f3ab0c24fc49f11d0100000000fdffffff2b7db099517d106f4795bc09b17e1aa11f80631bf49228e153ef29a7233364000a00000000fdffffff573408e7287f18896b6e1b117b70b1f199a09466b3709f2cb0d958ef1a983d280000000000fdffffffd693319f68470e497c841a10aa14ef962eddae22dc070be67da5466099facd540900000000fdffffff4c000468d4b2e6badab06fcfcb7c133633517ba9b5b5f2b761657f868ccb7e210000000000fdfffffff67b1fb595d53ef0508411dfa944dfe9788d5c72b8ce5dc82fe52a22cdfd03d10100000000fdffffffee5915aee3e974fc1c12028b7489d58b56a05b72ad48e73a5a9de0c62cd49ff00800000000fdffffff17506c4f0ff80bf533ce2a8cb2d9710a7c042e315c6bdf26fa967c033ba3016d0900000000fdffffff31616a3fd857240b0561324d31af440632e5e908ac649a4a5f97c1d67831a1750200000000fdffffffcf8f6756de62a698b81795c56b35d78b50d355d98b8a8ad4a92130dbb78fc5a70300000000fdffffff202a8d191c970108f51e5788b38ddd1275819a4d39985e0edefe934dac86c7960100000000fdffffff421ece4f85ea61612c790745a982185a9cc6de93a650b7a4871e9efb3d152b500100000000fdffffff10b8d800000000000016001418868d3fbd6133ed5e20b54ef1b1a805af1d5f3bd8d3030000000000160014e3292951d78090eb9c30cfe518b5da12f663776a7c650000000000001600147264cae2ffe864e2e1e8b3299b3b5bbbe408e4aa4cea0000000000001600143bb581e039248aee4655910b907dd793c2e5ba4b1cf20000000000001976a914926514b3aa1f65bf2902083bf4b602b2ab46017b88acd09f03000000000016001470335163f04ae9b7309038685e4c6e1f4d1c463a34d90100000000001600141b2c7539e85030eab3a3521ef4208ad048a994643c4e02000000000016001475d14ee65b33a2b395557cb92b81eccf7a35b31d98710000000000001600149f3049bc83ced1e705f26fc2ec93bcdddaa519be485701000000000017a914bf1516a5c3870c91e3ee1f69b740cf61063e30a58794ac00000000000016001429992f9fc3014076054b960a9c7565ce32da3407840c01000000000016001409c750c4b56bf79f0624b30e5bd2332ce8e239ca6c890000000000001600145d17a0df3edf38f8cf6bab7668fc6c2d9145d7a4505e0100000000001600149e1450f8863235c58fafa8a1e1b47bef0d8e484800cd00000000000016001466e84086d57e7457036c89adfa3f25abf081dfaa84530000000000001600149a917a80148c52d67dfe127bcf6ca880dd5411390247304402203eb0f96cc70c3780fc07611239787c1086d17775e90e6200a6cba7f42a9c1478022066a08c5979761173e8db0b9da4af0844d3b2284022a44c10769383b7c722fd400121033fb35b8d0f5ecbd8cc7df7439d70a3c0f3f5b2a1312d8af169b331904401b5150247304402200f51a1cc32046025ec71d31d75a99e004ac3d0bde893b73bd0eb25fbdef41ae4022076b58d4e98af7f43d34837fd1aeb84548a4cbad25248adbeef9487a5b024100101210321bea087e80995121fa2c3607293025fb572131397ca06b9d99a7509841f217002473044022078be07de75ffaac43b01f4243463f3a60453a2ddc37c3c600a66d1e6ecba5264022073be39a056954842ba31afcbd132bf2fa058a7d43c3a17660cb84ef92ec88d5d0121038516c9cba5f367cee02f20091539a46649d6cd8776221eafe0585e1dad65e5ff024730440220478fdedbeb3452321a2bc32cddd1b071273e7428ebe692674f212fa0e9a5d67e02202c5e6cd8fd7b8e48b7023f01a74567c95c6e6bf2a82f4526d3d56e018770250e01210356a917bbaa4a72b79c9d401b2e141860e59895c9d1db1b6127d76f633839869002473044022078f67cb73ad4a2ff41ebbfb30e6ac6c764eb04af90172765473c3ace669f83d70220045711d8247469ce65ce7874ae7ba7539990a21b02ba76335541e650b20ef87c01210242b44ceebc3e01f1a5bfc71f8deb4916cb23a449b4861306ab817979e5dd1652024730440220009cdd540f6aad5973f4c6d7b0d7f3335456d1f232bd761785bfd181c98296b40220188a31083219ce9d640bac324c8b558468f2ba1ebfbed5ac4808b135275f78f5012102fa4b06c61245b991049aae5532092ebb0cf7e54d71a1809f93309811aaa32f6f0247304402207bf4bb46f7e551e42522e119ff7be5ed857934c27ae5c3a8ae822cc8a56fb589022062afd6212c55dae2cb606cb3221b295b2a2c7f28b0e20781d332ba120101042901210265771326ffca981d89f6e1316ad58537a415a057ac15c982963432eba244ca0a0247304402204ee30f104db53622e316dddaeb81723da30e173269ea1da18bd06d0f333f393302201dae05b45e0c134732b2bdcd10575e2dfae24b3899a0826ec26830786395bd950121033159ed330214795fe235788177a3c885c5668814a483b08d8cf45e4fd36bceb30247304402205a5fc0b54547214ce6f0b4870a02880104b28a184e93ab40cf75518701afc175022013cbe6a612f759f4990a4c891f623fb6962f6789d3552e464d46f656bf0af33d0121029045b4111763cb2b209c6598e4d9ce0f8c99e9a1593d33fa600a04eab84b2d320247304402201b56818a56c4f056923c4948a49fdb530ebb45ac22fd0a49fe1cd33ad727138a022054daee8b13c9cda31bd6f038d4593360f234eb211f99ebbc6d4921bd597d3623012102299b399ab5f955149b5cc79745386d0ce1fb6e15b7da3ab3d94cf115d9aa3b3e0247304402200f61ba70f41b4db38a45430fa78fa8be5cb514b64f57725206eb3a848d8be331022056d6d6613439ef2e51c14392fb3ca45b29ff103177cb1c994cb184469585cd5a0121036cca54320d39ee38aa5fa80c6fa2ad7fbc47399276060a064194377a3bf44b840247304402207eb771779059759ece8e63db7230c82dc2637e6f309fde2dff320aac51793ccc02204c69fb493303dc0c05fd338735b9fdd68ad6c48a60e44ba900fd149c51498c1a012103dadbfb9aa18dae4e8d2fd175e3d93e4e293d4f60e16f129353d8bf5e5f5b4f8102473044022015fd3722bbd549154d694b3464309f1696a059e7b14b4e78f81724290374fc1802200f3594b390e12785c6e67dda5bfa2908138ff4759c9763896a11077643ea753701210398968ac699b8c3a443ed1c2c9ae6ea245eb59c4aef927e0d48d68328c1b07fe30247304402203de3d67406d260fac3ed6d5ff955315ecb070904c2f6ed17bc51b74c9d7b57f60220147619f623c1831040d00579ba3552afb203ee1e0d48cda0edb43e45881aa5da01210373326357996fd04b633e8a30a8811bba1111f540852af8406b8ce849b46f77610247304402200d46c0930309d19868506b9a156d2020ff58b25163a2c365e6749a23530742670220699a9fa155edfa9d4d4a9f7cc336d21f8e9bd9428b1e8b424ce7fb1251b0eadb01210216dd11d82440a76ed68eda5420db90f39135c723605a56e25d31d806e2e4a9f50247304402207b8b910d3d65af9433edd64f4eaf82dc3e15d306e6e7bf397be13229815831ee0220147b8e1d5c906d73d71cdcb853d839cb1213ed45bfab836b33742c6c42f663740121037fe7ed33cd3878cf28af89d2596d407b94cb4a15bdcab19b3ca08e1ce978deea0247304402206bc5ea0d4008d0d44569acafc3218fc7d2d525ceb8f4c9e6011d5a1916ae4579022053bdf46c0e12503438ec2c8cfd888066d4c173faeabfd9888310fb98a81cba3d012102098b866667adfaf0ebebcda8c30fe115b4750cdcc1e66ed048156c038fb597da0247304402205f333efdebbc4b7c309ebca95e6d92e881accd837c613a9cc37c1b178c250c6c022048ba4f33b3d69a999241fab3643fcdf483736a68e15a88b289626a31a1d102b40121032ac63bb8ef45ffb6419fcfa91e997b313e28b5bfe90e529f7b538a468e505ca19abb0c00"
}