{
  "txid": "aeaa1c3944e465fbc1ee7018797af9fdf568f2a16446d8b9fb6cd6dab0510f1e",
  "version": 2,
  "locktime": 0,
  "vin": [
    {
      "txid": "e1eeacf84f757e26d9a7a5074d4d7719448527f8b46ac88c081a52c98338e9cc",
      "vout": 0,
      "prevout": {
        "scriptpubkey": "76a91498dd85ebfeaa14b4b4c8425bf1ef044a8569d7e388ac",
        "scriptpubkey_asm": "OP_DUP OP_HASH160 OP_PUSHBYTES_20 98dd85ebfeaa14b4b4c8425bf1ef044a8569d7e3 OP_EQUALVERIFY OP_CHECKSIG",
        "scriptpubkey_type": "p2pkh",
        "scriptpubkey_address": "1EwH5rcBhhFwKcBcJvhf5J6rwu6g2i2gGW",
        "value": 636861
      },
      "scriptsig": "483045022100ed066ae5abb01ddb79d8762409c3999957128589825e15ae0c12cefc6e8d93df0220555fc3214af021e30b3e8579312efc0b98853298fb5667033f1d528b813a6793012103659ffaee0d2421c201a313681f8b7735e97f36fb119be80318e52505a5022c70",
      "scriptsig_asm": "OP_PUSHBYTES_72 3045022100ed066ae5abb01ddb79d8762409c3999957128589825e15ae0c12cefc6e8d93df0220555fc3214af021e30b3e8579312efc0b98853298fb5667033f1d528b813a679301 OP_PUSHBYTES_33 03659ffaee0d2421c201a313681f8b7735e97f36fb119be80318e52505a5022c70",
      "is_coinbase": false,
      "sequence": 4294967295
    }
  ],
  "vout": [
    {
      "scriptpubkey": "76a9140d55b7fb479185961e74ec5c4c1004c543e0ac5388ac",
      "scriptpubkey_asm": "OP_DUP OP_HASH160 OP_PUSHBYTES_20 0d55b7fb479185961e74ec5c4c1004c543e0ac53 OP_EQUALVERIFY OP_CHECKSIG",
      "scriptpubkey_type": "p2pkh",
      "scriptpubkey_address": "12DWULFhApW8NHiPkE1UtcYhjWk1kNqwg4",
      "value": 631869
    }
  ],
  "size": 192,
  "weight": 768,
  "fee": 4992,
  "status": {
    "confirmed": true,
    "block_height": 834638,
    "block_hash": "000000000000000000025f742c626208ac87e0b7d15054abb4a19ca2d735a54e",
    "block_time": 1710405325
  },
  "hex": "0200000001cce93883c9521a088cc86ab4f827854419774d4d07a5a7d9267e754ff8aceee1000000006b483045022100ed066ae5abb01ddb79d8762409c3999957128589825e15ae0c12cefc6e8d93df0220555fc3214af021e30b3e8579312efc0b98853298fb5667033f1d528b813a6793012103659ffaee0d2421c201a313681f8b7735e97f36fb119be80318e52505a5022c70ffffffff013da40900000000001976a9140d55b7fb479185961e74ec5c4c1004c543e0ac5388ac00000000"
}