{
  "txid": "aed30a8588274d76c852465e2aa7442c53c2ecedaefab465d48b2f87db05073b",
  "version": 1,
  "locktime": 0,
  "vin": [
    {
      "txid": "1f1e692bfed70406cbaa20fce9ea685fff4d629cf9d6542d99b0b2ebadb16f4c",
      "vout": 0,
      "prevout": {
        "scriptpubkey": "a914f8665c0c796ad5d83345928c01beccc8430f34bc87",
        "scriptpubkey_asm": "OP_HASH160 OP_PUSHBYTES_20 f8665c0c796ad5d83345928c01beccc8430f34bc OP_EQUAL",
        "scriptpubkey_type": "p2sh",
        "scriptpubkey_address": "3QLS8BgXdUfVgsT7WSFvbHoTLWsmDPQUNx",
        "value": 600
      },
      "scriptsig": "1600141065f6680ef10c2fdca65e9f06cc9a35304792b4",
      "scriptsig_asm": "OP_PUSHBYTES_22 00141065f6680ef10c2fdca65e9f06cc9a35304792b4",
      "witness": [
        "304402207faecec6bbc8b042ef50d63c7ab9c4c2ce7e4a4791edbbd28099f1de9473a47d0220636e82415e4dc1db716b4265838828fcc6308af0215a351cc4d5d4035d72a5fd01",
        "037cad09ebf9710b6844eb2e10172f9d9562b97335ea0c7a76ff4c3546f0b3e3d2"
      ],
      "is_coinbase": false,
      "sequence": 4294967293,
      "inner_redeemscript_asm": "OP_0 OP_PUSHBYTES_20 1065f6680ef10c2fdca65e9f06cc9a35304792b4"
    },
    {
      "txid": "2a91a4c02433af6c9d3732d34f6a15ac81914e239b1486aa0a2582e8b0572b5a",
      "vout": 0,
      "prevout": {
        "scriptpubkey": "a914b7d9b72282ff96d0d6c63f5d3854975a9618350387",
        "scriptpubkey_asm": "OP_HASH160 OP_PUSHBYTES_20 b7d9b72282ff96d0d6c63f5d3854975a96183503 OP_EQUAL",
        "scriptpubkey_type": "p2sh",
        "scriptpubkey_address": "3JT8Pn4wQcahWYgnpgW1Sm7GgFy7gwxoh9",
        "value": 1260654
      },
      "scriptsig": "1600140e3ef8100ca01ef28d98ebad780a10b7137305b0",
      "scriptsig_asm": "OP_PUSHBYTES_22 00140e3ef8100ca01ef28d98ebad780a10b7137305b0",
      "witness": [
        "3045022100dfad96761e61e9a64d13998723b91a18a5ba9911c05c4b4a9774f5d9ec5158c8022069eccfe48e33a553a08e94c76806d19a498919b9d029183fdabe5edee651bbb401",
        "02451c99c8e702807dff9b3b7a463871b13f79ea0bb837a67c32a16739293a3c7e"
      ],
      "is_coinbase": false,
      "sequence": 4294967293,
      "inner_redeemscript_asm": "OP_0 OP_PUSHBYTES_20 0e3ef8100ca01ef28d98ebad780a10b7137305b0"
    },
    {
      "txid": "be8a6513863d30f5d889dfd149846de59363620005d9a873daadcd3969084af3",
      "vout": 0,
      "prevout": {
        "scriptpubkey": "a914bbb72a93d55756dbf332b67a15858a7e649752e387",
        "scriptpubkey_asm": "OP_HASH160 OP_PUSHBYTES_20 bbb72a93d55756dbf332b67a15858a7e649752e3 OP_EQUAL",
        "scriptpubkey_type": "p2sh",
        "scriptpubkey_address": "3JoZi2ypL29VjtAuZNfjT9gjGC6Qur899s",
        "value": 2226499
      },
      "scriptsig": "1600144208d148b8b4b1cf1323a723e9f5684bb614e0e8",
      "scriptsig_asm": "OP_PUSHBYTES_22 00144208d148b8b4b1cf1323a723e9f5684bb614e0e8",
      "witness": [
        "3044022100a192f55315af58c59ab38b932a7e6b61ddd3926e6ac6fdd55cea526c378e1d28021f3805a3ff757bda81de3ccca96df8273626485899f2833c23779544abb5146101",
        "0235ee1dcfb616de8d00bebdc45966702d973c7f3ee1a63a066cff0bb80242d0cc"
      ],
      "is_coinbase": false,
      "sequence": 4294967293,
      "inner_redeemscript_asm": "OP_0 OP_PUSHBYTES_20 4208d148b8b4b1cf1323a723e9f5684bb614e0e8"
    },
    {
      "txid": "f062a7f5c9b7488a22933254a5e0a54d3f994a658987c82aa9bfc832e938053d",
      "vout": 1,
      "prevout": {
        "scriptpubkey": "a9146dea20e377765312e0ad8e476ad83ddd06bae84d87",
        "scriptpubkey_asm": "OP_HASH160 OP_PUSHBYTES_20 6dea20e377765312e0ad8e476ad83ddd06bae84d OP_EQUAL",
        "scriptpubkey_type": "p2sh",
        "scriptpubkey_address": "3BiC3z4VibRkjRDoCWAJPchXgPLHaTtZkf",
        "value": 9471727
      },
      "scriptsig": "1600140de16742b2ce90184fcdc4082c20a9b75581eb85",
      "scriptsig_asm": "OP_PUSHBYTES_22 00140de16742b2ce90184fcdc4082c20a9b75581eb85",
      "witness": [
        "30450221009185c93be07238837e40b32ecbc0e45838a86d8603d918b7c0fee443e7ad686b02201a5a7a86f8ecd66878d3242e9787a00592f4b968b036a59d941bec805a480c2e01",
        "0253c2ac31943f87f3921d82075cb3edf82864fedd397d8cd8bd46416fb7654605"
      ],
      "is_coinbase": false,
      "sequence": 4294967293,
      "inner_redeemscript_asm": "OP_0 OP_PUSHBYTES_20 0de16742b2ce90184fcdc4082c20a9b75581eb85"
    }
  ],
  "vout": [
    {
      "scriptpubkey": "001405460f3d27e3dc3ee588f7a06b2ea07e15190dcc",
      "scriptpubkey_asm": "OP_0 OP_PUSHBYTES_20 05460f3d27e3dc3ee588f7a06b2ea07e15190dcc",
      "scriptpubkey_type": "v0_p2wpkh",
      "scriptpubkey_address": "bc1qq4rq70f8u0wraevg77sxkt4q0c23jrwv5vsd5k",
      "value": 12954608
    }
  ],
  "size": 729,
  "weight": 1620,
  "fee": 4872,
  "status": {
    "confirmed": true,
    "block_height": 834460,
    "block_hash": "00000000000000000000484a79b643b2524bbce82e5d8a442013fa5b8905ed98",
    "block_time": 1710307468
  },
  "hex": "010000000001044c6fb1adebb2b0992d54d6f99c624dff5f68eae9fc20aacb0604d7fe2b691e1f00000000171600141065f6680ef10c2fdca65e9f06cc9a35304792b4fdffffff5a2b57b0e882250aaa86149b234e9181ac156a4fd332379d6caf3324c0a4912a00000000171600140e3ef8100ca01ef28d98ebad780a10b7137305b0fdfffffff34a086939cdadda73a8d90500626393e56d8449d1df89d8f5303d8613658abe00000000171600144208d148b8b4b1cf1323a723e9f5684bb614e0e8fdffffff3d0538e932c8bfa92ac88789654a993f4da5e0a5543293228a48b7c9f5a762f001000000171600140de16742b2ce90184fcdc4082c20a9b75581eb85fdffffff01f0abc5000000000016001405460f3d27e3dc3ee588f7a06b2ea07e15190dcc0247304402207faecec6bbc8b042ef50d63c7ab9c4c2ce7e4a4791edbbd28099f1de9473a47d0220636e82415e4dc1db716b4265838828fcc6308af0215a351cc4d5d4035d72a5fd0121037cad09ebf9710b6844eb2e10172f9d9562b97335ea0c7a76ff4c3546f0b3e3d202483045022100dfad96761e61e9a64d13998723b91a18a5ba9911c05c4b4a9774f5d9ec5158c8022069eccfe48e33a553a08e94c76806d19a498919b9d029183fdabe5edee651bbb4012102451c99c8e702807dff9b3b7a463871b13f79ea0bb837a67c32a16739293a3c7e02473044022100a192f55315af58c59ab38b932a7e6b61ddd3926e6ac6fdd55cea526c378e1d28021f3805a3ff757bda81de3ccca96df8273626485899f2833c23779544abb5146101210235ee1dcfb616de8d00bebdc45966702d973c7f3ee1a63a066cff0bb80242d0cc024830450221009185c93be07238837e40b32ecbc0e45838a86d8603d918b7c0fee443e7ad686b02201a5a7a86f8ecd66878d3242e9787a00592f4b968b036a59d941bec805a480c2e01210253c2ac31943f87f3921d82075cb3edf82864fedd397d8cd8bd46416fb765460500000000"
}