{
  "txid": "aed5b85f7d70ea3127e3226304758bdae4a6c5cf8cab5e42403daaa73d9e6472",
  "version": 2,
  "locktime": 0,
  "vin": [
    {
      "txid": "659b82bf51c32df260f3e3563d90fcbcb0098209af4d18020ca9e1a619ccc8c8",
      "vout": 16,
      "prevout": {
        "scriptpubkey": "5120c3ffeabf23d7abb716ff50dcef959685c0b79683b780ede1d7f3f53746470684",
        "scriptpubkey_asm": "OP_PUSHNUM_1 OP_PUSHBYTES_32 c3ffeabf23d7abb716ff50dcef959685c0b79683b780ede1d7f3f53746470684",
        "scriptpubkey_type": "v1_p2tr",
        "scriptpubkey_address": "bc1pc0l740er674mw9hl2rwwl9vkshqt095rk7qwmcwh706nw3j8q6zql7eptr",
        "value": 1931
      },
      "scriptsig": "",
      "scriptsig_asm": "",
      "witness": [
        "28c94278f7d27e75eefdaa65fb74515fde9658ae24c8cc330ae7c6a817be1fcd847be69558307d270a00cd0a6a3419f75ce628d492fd14624f4945c5cfa5f562",
        "2003c222649254a7d890721681e616d2a6f7803e739b107f13bff91d1886dfa9dcac0063036f726401010a746578742f706c61696e00367b2270223a226272632d3230222c226f70223a226d696e74222c227469636b223a2261616161222c22616d74223a223130303030227d68",
        "c003c222649254a7d890721681e616d2a6f7803e739b107f13bff91d1886dfa9dc"
      ],
      "is_coinbase": false,
      "sequence": 4261412863
    }
  ],
  "vout": [
    {
      "scriptpubkey": "0014be9f0c070a9b1bd40f5fcb06fba89738d936ceb6",
      "scriptpubkey_asm": "OP_0 OP_PUSHBYTES_20 be9f0c070a9b1bd40f5fcb06fba89738d936ceb6",
      "scriptpubkey_type": "v0_p2wpkh",
      "scriptpubkey_address": "bc1qh60scpc2nvdagr6levr0h2yh8rvndn4k4v5s9g",
      "value": 294
    }
  ],
  "size": 295,
  "weight": 541,
  "fee": 1637,
  "status": {
    "confirmed": true,
    "block_height": 834460,
    "block_hash": "00000000000000000000484a79b643b2524bbce82e5d8a442013fa5b8905ed98",
    "block_time": 1710307468
  },
  "hex": "02000000000101c8c8cc19a6e1a90c02184daf098209b0bcfc903d56e3f360f22dc351bf829b651000000000fffffffd012601000000000000160014be9f0c070a9b1bd40f5fcb06fba89738d936ceb6034028c94278f7d27e75eefdaa65fb74515fde9658ae24c8cc330ae7c6a817be1fcd847be69558307d270a00cd0a6a3419f75ce628d492fd14624f4945c5cfa5f5626e2003c222649254a7d890721681e616d2a6f7803e739b107f13bff91d1886dfa9dcac0063036f726401010a746578742f706c61696e00367b2270223a226272632d3230222c226f70223a226d696e74222c227469636b223a2261616161222c22616d74223a223130303030227d6821c003c222649254a7d890721681e616d2a6f7803e739b107f13bff91d1886dfa9dc00000000"
}