{
  "txid": "aedc3cc5b83ad3e2f6ff5729e7ccd3917f74917e85ec4f01a07a5082b2da5982",
  "version": 2,
  "locktime": 0,
  "vin": [
    {
      "txid": "33a9884f1cba9523839cd763b71377bcacafd9eba5860437691fdaac3962187d",
      "vout": 0,
      "prevout": {
        "scriptpubkey": "0014eade3e85d44d1861bb3c11c4771671b5a580f5c1",
        "scriptpubkey_asm": "OP_0 OP_PUSHBYTES_20 eade3e85d44d1861bb3c11c4771671b5a580f5c1",
        "scriptpubkey_type": "v0_p2wpkh",
        "scriptpubkey_address": "bc1qat0rapw5f5vxrweuz8z8w9n3kkjcpawprhdm7q",
        "value": 74520
      },
      "scriptsig": "",
      "scriptsig_asm": "",
      "witness": [
        "30440220404583795021f70dad4285c8fbc821e6e2d10d89555577cae99fc749c208623e022041596b8c32bdf053876851730198c8cb86f8ba4cd3a74dc371b038d653b183b901",
        "027506127f0c99e4cca04167858a6c0856cbb0ecb9dbc9e25e48bee6d9ac87d122"
      ],
      "is_coinbase": false,
      "sequence": 4294967295
    }
  ],
  "vout": [
    {
      "scriptpubkey": "76a914b848b22b745d558c28c99ad7d535b5b9aaf1dae088ac",
      "scriptpubkey_asm": "OP_DUP OP_HASH160 OP_PUSHBYTES_20 b848b22b745d558c28c99ad7d535b5b9aaf1dae0 OP_EQUALVERIFY OP_CHECKSIG",
      "scriptpubkey_type": "p2pkh",
      "scriptpubkey_address": "1HoQRJW237vbYUsQWBfkTLvTs8rYByoiFQ",
      "value": 50000
    },
    {
      "scriptpubkey": "0014eade3e85d44d1861bb3c11c4771671b5a580f5c1",
      "scriptpubkey_asm": "OP_0 OP_PUSHBYTES_20 eade3e85d44d1861bb3c11c4771671b5a580f5c1",
      "scriptpubkey_type": "v0_p2wpkh",
      "scriptpubkey_address": "bc1qat0rapw5f5vxrweuz8z8w9n3kkjcpawprhdm7q",
      "value": 19839
    }
  ],
  "size": 225,
  "weight": 573,
  "fee": 4681,
  "status": {
    "confirmed": true,
    "block_height": 834638,
    "block_hash": "000000000000000000025f742c626208ac87e0b7d15054abb4a19ca2d735a54e",
    "block_time": 1710405325
  },
  "hex": "020000000001017d186239acda1f69370486a5ebd9afacbc7713b763d79c832395ba1c4f88a9330000000000ffffffff0250c30000000000001976a914b848b22b745d558c28c99ad7d535b5b9aaf1dae088ac7f4d000000000000160014eade3e85d44d1861bb3c11c4771671b5a580f5c1024730440220404583795021f70dad4285c8fbc821e6e2d10d89555577cae99fc749c208623e022041596b8c32bdf053876851730198c8cb86f8ba4cd3a74dc371b038d653b183b90121027506127f0c99e4cca04167858a6c0856cbb0ecb9dbc9e25e48bee6d9ac87d12200000000"
}