{
  "txid": "aef36205585544f7f93ff7822b3a95628191f9823b0cbb68cf96157bfe9d5918",
  "version": 2,
  "locktime": 0,
  "vin": [
    {
      "txid": "33198a5cbe2a53fc30099ab53009144888cef479020e7acbc065183b03c26d7b",
      "vout": 10,
      "prevout": {
        "scriptpubkey": "5120cb768d403614d659a7a26686432a6355934be467e247ddb9130b92f5fc019838",
        "scriptpubkey_asm": "OP_PUSHNUM_1 OP_PUSHBYTES_32 cb768d403614d659a7a26686432a6355934be467e247ddb9130b92f5fc019838",
        "scriptpubkey_type": "v1_p2tr",
        "scriptpubkey_address": "bc1pedmg6spkznt9nfazv6ryx2nr2kf5her8uframwgnpwf0tlqpnquqfxz60t",
        "value": 2658
      },
      "scriptsig": "",
      "scriptsig_asm": "",
      "witness": [
        "e8f2b6ea677342b2801479f31502ae8f560473b24c647c8f42569b28040f760084f3509e8b36292cda8fd302497b1902d3be2e7e3f40c15592a2ba5631669cdb",
        "204a3abf073430ef3e9b88c475c12564bca5ac1223d2763ff524a2e9e5cc155258ac0063036f726401011e6170706c69636174696f6e2f6a736f6e3b636861727365743d7574662d38004cbf7b2270223a22706f772d3230222c226f70223a226d696e74222c227469636b223a2250455045222c22616d74223a2231303030222c22736f6c7574696f6e223a22504550453a626331717832636c7935673578376b356a6b7376396d61346332753661646c7a78657470616e387071733a303030303030303030303030303030303030303139393431613561653132383937363539383134343239323533333030353762306461393666336465613163353a3532333334383836383735227d68",
        "c0da2c9a1920efdfbecd176e4adbb0ca1150e62509fd8a3a19d8331b0c89a8a97b"
      ],
      "is_coinbase": false,
      "sequence": 4294967295
    }
  ],
  "vout": [
    {
      "scriptpubkey": "001432b1f2511437ad495a0c2efb5c2b9aeb7e236561",
      "scriptpubkey_asm": "OP_0 OP_PUSHBYTES_20 32b1f2511437ad495a0c2efb5c2b9aeb7e236561",
      "scriptpubkey_type": "v0_p2wpkh",
      "scriptpubkey_address": "bc1qx2cly5g5x7k5jksv9ma4c2u6adlzxetpan8pqs",
      "value": 546
    }
  ],
  "size": 455,
  "weight": 701,
  "fee": 2112,
  "status": {
    "confirmed": true,
    "block_height": 834460,
    "block_hash": "00000000000000000000484a79b643b2524bbce82e5d8a442013fa5b8905ed98",
    "block_time": 1710307468
  },
  "hex": "020000000001017b6dc2033b1865c0cb7a0e0279f4ce8848140930b59a0930fc532abe5c8a19330a00000000ffffffff01220200000000000016001432b1f2511437ad495a0c2efb5c2b9aeb7e2365610340e8f2b6ea677342b2801479f31502ae8f560473b24c647c8f42569b28040f760084f3509e8b36292cda8fd302497b1902d3be2e7e3f40c15592a2ba5631669cdbfd0c01204a3abf073430ef3e9b88c475c12564bca5ac1223d2763ff524a2e9e5cc155258ac0063036f726401011e6170706c69636174696f6e2f6a736f6e3b636861727365743d7574662d38004cbf7b2270223a22706f772d3230222c226f70223a226d696e74222c227469636b223a2250455045222c22616d74223a2231303030222c22736f6c7574696f6e223a22504550453a626331717832636c7935673578376b356a6b7376396d61346332753661646c7a78657470616e387071733a303030303030303030303030303030303030303139393431613561653132383937363539383134343239323533333030353762306461393666336465613163353a3532333334383836383735227d6821c0da2c9a1920efdfbecd176e4adbb0ca1150e62509fd8a3a19d8331b0c89a8a97b00000000"
}