{
  "txid": "af1694a1d915072daf69e306dca383f40dd1e999a258952301b1990d19802f5a",
  "version": 1,
  "locktime": 0,
  "vin": [
    {
      "txid": "888888836e439e9879c8fb98f43960f159e5a4120aebc01ae9456ca835634038",
      "vout": 0,
      "prevout": {
        "scriptpubkey": "512078cc5f33ce2f1a14ff365ed20d839bef825e1329c89585d4a96e9f386e429d51",
        "scriptpubkey_asm": "OP_PUSHNUM_1 OP_PUSHBYTES_32 78cc5f33ce2f1a14ff365ed20d839bef825e1329c89585d4a96e9f386e429d51",
        "scriptpubkey_type": "v1_p2tr",
        "scriptpubkey_address": "bc1p0rx97v7w9udpflektmfqmquma7p9uyefez2ct49fd60nsmjzn4gs9l97c7",
        "value": 11627
      },
      "scriptsig": "",
      "scriptsig_asm": "",
      "witness": [
        "c011a59561d62f503475abaf3ed754449682b82c4ca0b858ae56c731a31b91252e00a2baf5dd5811db7b613e629d60feabd11f03e654d073cb34c942c296e44183",
        "206e52c938c29c99e9a77647b2895f750d08ffac8b4128f105ecf15445f35d3cc5ac00630461746f6d03646d7442a16461726773a468626974776f726b6367383838383838386b6d696e745f7469636b657268696e66696e697479656e6f6e63651a00528cb86474696d651a65dc683f68",
        "c06e52c938c29c99e9a77647b2895f750d08ffac8b4128f105ecf15445f35d3cc5"
      ],
      "is_coinbase": false,
      "sequence": 4294967293
    }
  ],
  "vout": [
    {
      "scriptpubkey": "5120bf94882e5d0c036449dc3f1782adc8fe707e6d03ea0ecdd97e048b8da94a44b1",
      "scriptpubkey_asm": "OP_PUSHNUM_1 OP_PUSHBYTES_32 bf94882e5d0c036449dc3f1782adc8fe707e6d03ea0ecdd97e048b8da94a44b1",
      "scriptpubkey_type": "v1_p2tr",
      "scriptpubkey_address": "bc1ph72gstjapspkgjwu8utc9twglec8umgrag8vmkt7qj9cm222gjcsurlt3p",
      "value": 9999
    }
  ],
  "size": 311,
  "weight": 593,
  "fee": 1628,
  "status": {
    "confirmed": true,
    "block_height": 834464,
    "block_hash": "0000000000000000000177a0869a911a2b65c9bdcd5a8bcb02b68f305bee848e",
    "block_time": 1710308296
  },
  "hex": "0100000000010138406335a86c45e91ac0eb0a12a4e559f16039f498fbc879989e436e838888880000000000fdffffff010f27000000000000225120bf94882e5d0c036449dc3f1782adc8fe707e6d03ea0ecdd97e048b8da94a44b10341c011a59561d62f503475abaf3ed754449682b82c4ca0b858ae56c731a31b91252e00a2baf5dd5811db7b613e629d60feabd11f03e654d073cb34c942c296e4418371206e52c938c29c99e9a77647b2895f750d08ffac8b4128f105ecf15445f35d3cc5ac00630461746f6d03646d7442a16461726773a468626974776f726b6367383838383838386b6d696e745f7469636b657268696e66696e697479656e6f6e63651a00528cb86474696d651a65dc683f6821c06e52c938c29c99e9a77647b2895f750d08ffac8b4128f105ecf15445f35d3cc500000000"
}