{
  "txid": "af264d1b737eb930b641a5a92e568c22a30efb18d2055ba9b67f026873edc480",
  "version": 2,
  "locktime": 834637,
  "vin": [
    {
      "txid": "d4e2e590ac3e52d5dd077d97df033158e5bc1e11ba29ab6edb5ea54477a62ef7",
      "vout": 0,
      "prevout": {
        "scriptpubkey": "001458180bfa601edf4d734d7a4f092c1ba9d6c81813",
        "scriptpubkey_asm": "OP_0 OP_PUSHBYTES_20 58180bfa601edf4d734d7a4f092c1ba9d6c81813",
        "scriptpubkey_type": "v0_p2wpkh",
        "scriptpubkey_address": "bc1qtqvqh7nqrm056u6d0f8sjtqm48tvsxqngk4zwx",
        "value": 14235000
      },
      "scriptsig": "",
      "scriptsig_asm": "",
      "witness": [
        "3044022055cba2822a70e5f134148332b5955c94ac8dade175f25828fe48b5fdc53a2c55022028da3b70f69cf24fd890cfcf3065ba17a8a6776237a64b6c19da2234349077d701",
        "027d2b8505b1c681160648633fef07a5e0216146bd321fc9e46ece9492e90d888e"
      ],
      "is_coinbase": false,
      "sequence": 4294967293
    }
  ],
  "vout": [
    {
      "scriptpubkey": "0014f8c41e829a1b84d7cb4b411d4d38ca651717c24f",
      "scriptpubkey_asm": "OP_0 OP_PUSHBYTES_20 f8c41e829a1b84d7cb4b411d4d38ca651717c24f",
      "scriptpubkey_type": "v0_p2wpkh",
      "scriptpubkey_address": "bc1qlrzpaq56rwzd0j6tgyw56wx2v5t30sj0gr3466",
      "value": 6825000
    },
    {
      "scriptpubkey": "a91435ebd6d209f7abae5b0e52b88d0cf37351afdbfe87",
      "scriptpubkey_asm": "OP_HASH160 OP_PUSHBYTES_20 35ebd6d209f7abae5b0e52b88d0cf37351afdbfe OP_EQUAL",
      "scriptpubkey_type": "p2sh",
      "scriptpubkey_address": "36c8G6rDs8FoYySBGFe5M3Cz3pnxb6erz1",
      "value": 7400000
    }
  ],
  "size": 223,
  "weight": 565,
  "fee": 10000,
  "status": {
    "confirmed": true,
    "block_height": 834638,
    "block_hash": "000000000000000000025f742c626208ac87e0b7d15054abb4a19ca2d735a54e",
    "block_time": 1710405325
  },
  "hex": "02000000000101f72ea67744a55edb6eab29ba111ebce5583103df977d07ddd5523eac90e5e2d40000000000fdffffff022824680000000000160014f8c41e829a1b84d7cb4b411d4d38ca651717c24f40ea70000000000017a91435ebd6d209f7abae5b0e52b88d0cf37351afdbfe8702473044022055cba2822a70e5f134148332b5955c94ac8dade175f25828fe48b5fdc53a2c55022028da3b70f69cf24fd890cfcf3065ba17a8a6776237a64b6c19da2234349077d70121027d2b8505b1c681160648633fef07a5e0216146bd321fc9e46ece9492e90d888e4dbc0c00"
}