{
  "txid": "af283b8c1fe2e2a43dcd6992664eb1f1272aba683c9f75aece89bebf5a6a8ba2",
  "version": 2,
  "locktime": 834621,
  "vin": [
    {
      "txid": "bef0b1a48329f710b97a3bc8ba860536650517feeca5b30067ef9b82fdc73d3d",
      "vout": 1,
      "prevout": {
        "scriptpubkey": "0014d23a8c847ba57ebeddcbf19dfeecf32c73a365bb",
        "scriptpubkey_asm": "OP_0 OP_PUSHBYTES_20 d23a8c847ba57ebeddcbf19dfeecf32c73a365bb",
        "scriptpubkey_type": "v0_p2wpkh",
        "scriptpubkey_address": "bc1q6gageprm54ltahwt7xwlam8n93e6xedmun0quu",
        "value": 304800038
      },
      "scriptsig": "",
      "scriptsig_asm": "",
      "witness": [
        "304402203f592a0911431d8c95b921b879465b8b577ce62586fba9d6ada51aa29efc0cf40220124d999f84af381416d0e65f9daf7f2b5360ab2fb3dc640c4d96485121d0345d01",
        "03fe6baa0cce6181028d2daa76bf53d2e738e066fdf93b1a2af69632d3f32786e6"
      ],
      "is_coinbase": false,
      "sequence": 4294967294
    }
  ],
  "vout": [
    {
      "scriptpubkey": "0014fbc0dfec1db266956501d682b53125fb4784857b",
      "scriptpubkey_asm": "OP_0 OP_PUSHBYTES_20 fbc0dfec1db266956501d682b53125fb4784857b",
      "scriptpubkey_type": "v0_p2wpkh",
      "scriptpubkey_address": "bc1ql0qdlmqakfnf2egp66pt2vf9ldrcfptmle7xfk",
      "value": 13800
    },
    {
      "scriptpubkey": "001416d93d6b0994c4926a254445c5be75054dd3236d",
      "scriptpubkey_asm": "OP_0 OP_PUSHBYTES_20 16d93d6b0994c4926a254445c5be75054dd3236d",
      "scriptpubkey_type": "v0_p2wpkh",
      "scriptpubkey_address": "bc1qzmvn66cfjnzfy639g3zut0n4q4xaxgmdf6ke6f",
      "value": 304782782
    }
  ],
  "size": 222,
  "weight": 561,
  "fee": 3456,
  "status": {
    "confirmed": true,
    "block_height": 834638,
    "block_hash": "000000000000000000025f742c626208ac87e0b7d15054abb4a19ca2d735a54e",
    "block_time": 1710405325
  },
  "hex": "020000000001013d3dc7fd829bef6700b3a5ecfe170565360586bac83b7ab910f72983a4b1f0be0100000000feffffff02e835000000000000160014fbc0dfec1db266956501d682b53125fb4784857bbe9d2a120000000016001416d93d6b0994c4926a254445c5be75054dd3236d0247304402203f592a0911431d8c95b921b879465b8b577ce62586fba9d6ada51aa29efc0cf40220124d999f84af381416d0e65f9daf7f2b5360ab2fb3dc640c4d96485121d0345d012103fe6baa0cce6181028d2daa76bf53d2e738e066fdf93b1a2af69632d3f32786e63dbc0c00"
}