{
  "txid": "af47c709f231ac70d3729d3d798fc1ab180720568e0d5469280fc6df9456e481",
  "version": 2,
  "locktime": 0,
  "vin": [
    {
      "txid": "8c234be3237b6a1918299a38aab45044a9a2e417b6ea0793ee40794f7f450b75",
      "vout": 0,
      "prevout": {
        "scriptpubkey": "0014205dfeefbfeb8c508c9c93fff7c780e8e041997e",
        "scriptpubkey_asm": "OP_0 OP_PUSHBYTES_20 205dfeefbfeb8c508c9c93fff7c780e8e041997e",
        "scriptpubkey_type": "v0_p2wpkh",
        "scriptpubkey_address": "bc1qypwlamalawx9pryuj0ll03uqarsyrxt74a980p",
        "value": 70037494
      },
      "scriptsig": "",
      "scriptsig_asm": "",
      "witness": [
        "3045022100f7ef2d5baa769d817cb0d60a0326cc15153883b7b32e2f86404ea2742705d7aa0220668e349eab7ea0c086314d544628ea999cdbb688d25991156fc4e38d96ae3ebc01",
        "0376f53880cc5a2139bf6cdc5092f8f4f5f41d79c7da9edde9714172e8cbceda4f"
      ],
      "is_coinbase": false,
      "sequence": 4294967293
    }
  ],
  "vout": [
    {
      "scriptpubkey": "001452ba10e74047eba1545607de5c9773f470b1715c",
      "scriptpubkey_asm": "OP_0 OP_PUSHBYTES_20 52ba10e74047eba1545607de5c9773f470b1715c",
      "scriptpubkey_type": "v0_p2wpkh",
      "scriptpubkey_address": "bc1q22appe6qgl46z4zkql09e9mn73ctzu2udlxg0u",
      "value": 60035405
    },
    {
      "scriptpubkey": "001496de3a3c151091919aeec8a4731c541ef389c491",
      "scriptpubkey_asm": "OP_0 OP_PUSHBYTES_20 96de3a3c151091919aeec8a4731c541ef389c491",
      "scriptpubkey_type": "v0_p2wpkh",
      "scriptpubkey_address": "bc1qjm0r50q4zzgerxhwezj8x8z5rmecn3y3z020vu",
      "value": 10000000
    }
  ],
  "size": 223,
  "weight": 562,
  "fee": 2089,
  "status": {
    "confirmed": true,
    "block_height": 834460,
    "block_hash": "00000000000000000000484a79b643b2524bbce82e5d8a442013fa5b8905ed98",
    "block_time": 1710307468
  },
  "hex": "02000000000101750b457f4f7940ee9307eab617e4a2a94450b4aa389a2918196a7b23e34b238c0000000000fdffffff024d1194030000000016001452ba10e74047eba1545607de5c9773f470b1715c809698000000000016001496de3a3c151091919aeec8a4731c541ef389c49102483045022100f7ef2d5baa769d817cb0d60a0326cc15153883b7b32e2f86404ea2742705d7aa0220668e349eab7ea0c086314d544628ea999cdbb688d25991156fc4e38d96ae3ebc01210376f53880cc5a2139bf6cdc5092f8f4f5f41d79c7da9edde9714172e8cbceda4f00000000"
}