{
  "txid": "af481e2d6b741da62f760c7324607ba467279ed2cc26a24846c9604d42092f8e",
  "version": 1,
  "locktime": 0,
  "vin": [
    {
      "txid": "822074ac2a02820e4958e5289319fd6ccc04cf2a83cdc25a251db588f30ce8f6",
      "vout": 22,
      "prevout": {
        "scriptpubkey": "001423717b0d4bbed669f4d732d6c1e0372651635ebe",
        "scriptpubkey_asm": "OP_0 OP_PUSHBYTES_20 23717b0d4bbed669f4d732d6c1e0372651635ebe",
        "scriptpubkey_type": "v0_p2wpkh",
        "scriptpubkey_address": "bc1qydchkr2thmtxnaxhxttvrcphyegkxh47vrpvtq",
        "value": 145000
      },
      "scriptsig": "",
      "scriptsig_asm": "",
      "witness": [
        "3045022100e8b44b1a40b9bca6ca3c52c9b6e131df2f45d35aeb9ad99c04cbe257ba80e66e022075818d83431ba10f5aef24df7e9467e37a86640064ee9723e7b99300c244063701",
        "03469e5424298c4bd86dd948b2a4fe9a265f5769807374f70763bd6a2360c2c1bf"
      ],
      "is_coinbase": false,
      "sequence": 4294967295
    }
  ],
  "vout": [
    {
      "scriptpubkey": "001453e77b50872d80e0b7714a0e8ec96dc9f7d4c770",
      "scriptpubkey_asm": "OP_0 OP_PUSHBYTES_20 53e77b50872d80e0b7714a0e8ec96dc9f7d4c770",
      "scriptpubkey_type": "v0_p2wpkh",
      "scriptpubkey_address": "bc1q20nhk5y89kqwpdm3fg8gajtde8maf3ms4uhcgz",
      "value": 142500
    }
  ],
  "size": 192,
  "weight": 438,
  "fee": 2500,
  "status": {
    "confirmed": true,
    "block_height": 834460,
    "block_hash": "00000000000000000000484a79b643b2524bbce82e5d8a442013fa5b8905ed98",
    "block_time": 1710307468
  },
  "hex": "01000000000101f6e80cf388b51d255ac2cd832acf04cc6cfd199328e558490e82022aac7420821600000000ffffffff01a42c02000000000016001453e77b50872d80e0b7714a0e8ec96dc9f7d4c77002483045022100e8b44b1a40b9bca6ca3c52c9b6e131df2f45d35aeb9ad99c04cbe257ba80e66e022075818d83431ba10f5aef24df7e9467e37a86640064ee9723e7b99300c2440637012103469e5424298c4bd86dd948b2a4fe9a265f5769807374f70763bd6a2360c2c1bf00000000"
}