{
  "txid": "af5513d9683963f684f7665d45b1320b54fd4a7fb04adc61a260775ad75cb55a",
  "version": 2,
  "locktime": 0,
  "vin": [
    {
      "txid": "b13bb5512a4904c28a6b7957b88edf574e8cb23551fc1dcfe22d6b239df42cf4",
      "vout": 31,
      "prevout": {
        "scriptpubkey": "51207b31fd58e327c576c7801d22fd1a2bfcecbf3b10f60b1c808ee5b404d0b9d416",
        "scriptpubkey_asm": "OP_PUSHNUM_1 OP_PUSHBYTES_32 7b31fd58e327c576c7801d22fd1a2bfcecbf3b10f60b1c808ee5b404d0b9d416",
        "scriptpubkey_type": "v1_p2tr",
        "scriptpubkey_address": "bc1p0vcl6k8rylzhd3uqr5306x3tlnkt7wcs7c93eqywuk6qf59e6stqgk593a",
        "value": 2575
      },
      "scriptsig": "",
      "scriptsig_asm": "",
      "witness": [
        "25c005390b3c887526f2b0e12b853dc49c869ab7c293721c6a2933d6f1c5ac09a640f43f2c47e6670333e35b41dd5ab1ca8007812daa876efb7ebcfc0c138af5",
        "205d96f6439486d74a870beaa284b6a905c029a6422f946de0f66cd32fd95c8306ac0063036f726401010a746578742f706c61696e00367b2270223a226272632d3230222c226f70223a226d696e74222c227469636b223a2261616161222c22616d74223a223130303030227d68",
        "c05d96f6439486d74a870beaa284b6a905c029a6422f946de0f66cd32fd95c8306"
      ],
      "is_coinbase": false,
      "sequence": 4261412863
    }
  ],
  "vout": [
    {
      "scriptpubkey": "0014ce0b5aa0dac72397a8aa5a85d90a2cfb46f0f630",
      "scriptpubkey_asm": "OP_0 OP_PUSHBYTES_20 ce0b5aa0dac72397a8aa5a85d90a2cfb46f0f630",
      "scriptpubkey_type": "v0_p2wpkh",
      "scriptpubkey_address": "bc1qec944gx6cu3e0292t2zajz3vldr0pa3sh356d9",
      "value": 546
    }
  ],
  "size": 295,
  "weight": 541,
  "fee": 2029,
  "status": {
    "confirmed": true,
    "block_height": 834464,
    "block_hash": "0000000000000000000177a0869a911a2b65c9bdcd5a8bcb02b68f305bee848e",
    "block_time": 1710308296
  },
  "hex": "02000000000101f42cf49d236b2de2cf1dfc5135b28c4e57df8eb857796b8ac204492a51b53bb11f00000000fffffffd012202000000000000160014ce0b5aa0dac72397a8aa5a85d90a2cfb46f0f630034025c005390b3c887526f2b0e12b853dc49c869ab7c293721c6a2933d6f1c5ac09a640f43f2c47e6670333e35b41dd5ab1ca8007812daa876efb7ebcfc0c138af56e205d96f6439486d74a870beaa284b6a905c029a6422f946de0f66cd32fd95c8306ac0063036f726401010a746578742f706c61696e00367b2270223a226272632d3230222c226f70223a226d696e74222c227469636b223a2261616161222c22616d74223a223130303030227d6821c05d96f6439486d74a870beaa284b6a905c029a6422f946de0f66cd32fd95c830600000000"
}