{
  "txid": "af685146f5ecec0c110b942dbed863160caf8307771bd842a00e758510f80beb",
  "version": 1,
  "locktime": 0,
  "vin": [
    {
      "txid": "90d60ddc68e5c82f23efd45293b9b2ddc0c916979d8dd883317383b719beaaa4",
      "vout": 0,
      "prevout": {
        "scriptpubkey": "51201b8df4b6f7b404790cf852ca18cd045f07a7366e18c8a00eb74f3cf28f62c28d",
        "scriptpubkey_asm": "OP_PUSHNUM_1 OP_PUSHBYTES_32 1b8df4b6f7b404790cf852ca18cd045f07a7366e18c8a00eb74f3cf28f62c28d",
        "scriptpubkey_type": "v1_p2tr",
        "scriptpubkey_address": "bc1prwxlfdhhksz8jr8c2t9p3ngytur6wdnwrry2qr4hfu709rmzc2xs75crj3",
        "value": 334130
      },
      "scriptsig": "",
      "scriptsig_asm": "",
      "witness": [
        "db81b9cc24d57c997e3a5e09c10b26e41cc3d29c3363bf4c7d74f479a06016cb7db338a19eb544aa87597369665b2bee3b094b3e873bcf2724073d94eb9246a7"
      ],
      "is_coinbase": false,
      "sequence": 4294967295
    },
    {
      "txid": "ec62e972e0f7af7bd4d9fdd53e958aab6009e8c4090d834063e790b62786758c",
      "vout": 0,
      "prevout": {
        "scriptpubkey": "51200c7ae92dad0a781f22b27aacba6b9c9133371fedef76b93c309ce67b191e0cc3",
        "scriptpubkey_asm": "OP_PUSHNUM_1 OP_PUSHBYTES_32 0c7ae92dad0a781f22b27aacba6b9c9133371fedef76b93c309ce67b191e0cc3",
        "scriptpubkey_type": "v1_p2tr",
        "scriptpubkey_address": "bc1pp3awjtddpfup7g4j02kt56uujyenw8ldaamtj0psnnn8kxg7pnpsufx0y8",
        "value": 314562
      },
      "scriptsig": "",
      "scriptsig_asm": "",
      "witness": [
        "d402683e24bf4206e73e25ce7c94efbddd95a82bcda9bee0fc572aaec13d80f613a7f5b5ad2914a33f4eb257a48ca6ad1048eee4da1d439b570fb0a4691220d2"
      ],
      "is_coinbase": false,
      "sequence": 4294967295
    },
    {
      "txid": "75bce7e62d48f491fad2b45b1a9b8ed33b35f9dd68277311c1b26e65e80e8c58",
      "vout": 0,
      "prevout": {
        "scriptpubkey": "5120d05dbaadf027042072c8c797f45a3e183204d571bbd7784e632cce1d2eb3f9ce",
        "scriptpubkey_asm": "OP_PUSHNUM_1 OP_PUSHBYTES_32 d05dbaadf027042072c8c797f45a3e183204d571bbd7784e632cce1d2eb3f9ce",
        "scriptpubkey_type": "v1_p2tr",
        "scriptpubkey_address": "bc1p6pwm4t0syuzzqukgc7tlgk37rqeqf4t3h0thsnnr9n8p6t4nl88qudg99m",
        "value": 294582
      },
      "scriptsig": "",
      "scriptsig_asm": "",
      "witness": [
        "16d71abc3eb5a8245b234863d5a7a2ac953b1814ae695c7a75a729ea7cb6071ea2e9d101a7d4143857fcaee50b601fa145f22df8d017823ae75afcc840d71d6d"
      ],
      "is_coinbase": false,
      "sequence": 4294967295
    },
    {
      "txid": "e326f75346104e8073c5b67f7028ab7e57c643a466ab98772912ef5c3d02146e",
      "vout": 0,
      "prevout": {
        "scriptpubkey": "5120e72059f355f6050045521c550a02e55ea85da889ebf4e6e0a9320864b25ed0ad",
        "scriptpubkey_asm": "OP_PUSHNUM_1 OP_PUSHBYTES_32 e72059f355f6050045521c550a02e55ea85da889ebf4e6e0a9320864b25ed0ad",
        "scriptpubkey_type": "v1_p2tr",
        "scriptpubkey_address": "bc1puus9nu647czsq32jr32s5qh9t659m2yfa06wdc9fxgyxfvj76zks08w58v",
        "value": 275619
      },
      "scriptsig": "",
      "scriptsig_asm": "",
      "witness": [
        "90ee2831061dc76b67f6922828ac2f0fd125013d0b7074aa1479c80097cc02744ce29d4a4b437bbc724a581419a2a106460cc48aca2b4b8fcd30ec359bbe3dbf"
      ],
      "is_coinbase": false,
      "sequence": 4294967295
    },
    {
      "txid": "c508574d3c0e7a65088b08a6c697d7425805aa3cbf9f037951acbebedf63be50",
      "vout": 0,
      "prevout": {
        "scriptpubkey": "512072a7b4897e9ee6aa559f3de13b8bf99dd1e8c0bea1d71b8fa49d724c03224970",
        "scriptpubkey_asm": "OP_PUSHNUM_1 OP_PUSHBYTES_32 72a7b4897e9ee6aa559f3de13b8bf99dd1e8c0bea1d71b8fa49d724c03224970",
        "scriptpubkey_type": "v1_p2tr",
        "scriptpubkey_address": "bc1pw2nmfzt7nmn254vl8hsnhzlenhg73s9758t3hrayn4eycqezf9cqdq2caa",
        "value": 268016
      },
      "scriptsig": "",
      "scriptsig_asm": "",
      "witness": [
        "3de071b72113f0afacce6364e2225894afce6e65c485616972b88a9348356633ed25e1955819e7c843a34d71489718b66d52e6f9634c9c3e3d8f979eef9e445c"
      ],
      "is_coinbase": false,
      "sequence": 4294967295
    },
    {
      "txid": "55f18bda85271cabb8373ae36d129d0dafa7a72b2875ee0b2dc9c372e829c4ba",
      "vout": 0,
      "prevout": {
        "scriptpubkey": "512079391b202142fdf55497efc2cc73bb4b2e0d4d10875f6af24af36102aea72378",
        "scriptpubkey_asm": "OP_PUSHNUM_1 OP_PUSHBYTES_32 79391b202142fdf55497efc2cc73bb4b2e0d4d10875f6af24af36102aea72378",
        "scriptpubkey_type": "v1_p2tr",
        "scriptpubkey_address": "bc1p0yu3kgppgt7l24yhalpvcuamfvhq6ngssa0k4uj27dss9t48yduqhf5m72",
        "value": 239353
      },
      "scriptsig": "",
      "scriptsig_asm": "",
      "witness": [
        "9c58bbd320d8e7d7d9d3d33a986d048432850960a05bec2411eeacf23c34c0ab1fbdd5820fd8a86285809f5035a11e642acf7c5c7b279ef50b00346f4f12e31e"
      ],
      "is_coinbase": false,
      "sequence": 4294967295
    },
    {
      "txid": "a50510ce3052eb9b77128be30ee223cd24b4ce68aa951f1af94db61730e680ba",
      "vout": 0,
      "prevout": {
        "scriptpubkey": "5120a40659ec137ac3da47d816d615c68b8828c797e315277dce37d8a97151e54ed5",
        "scriptpubkey_asm": "OP_PUSHNUM_1 OP_PUSHBYTES_32 a40659ec137ac3da47d816d615c68b8828c797e315277dce37d8a97151e54ed5",
        "scriptpubkey_type": "v1_p2tr",
        "scriptpubkey_address": "bc1p5sr9nmqn0tpa537czmtpt35t3q5v09lrz5nhmn3hmz5hz509fm2swu90y7",
        "value": 156047
      },
      "scriptsig": "",
      "scriptsig_asm": "",
      "witness": [
        "1cc462c4a4a949e7e72a815ce269ce12b6239958d50642c20372d8d2272af4656e6f446ea822792f0143e8518c17187685219c7f891ffd71a30e6c746ab643a0"
      ],
      "is_coinbase": false,
      "sequence": 4294967295
    },
    {
      "txid": "3082bf26920bd64799a99c56d6df551cc28263b3bdcf3c978017685908a1e738",
      "vout": 0,
      "prevout": {
        "scriptpubkey": "51201e784cbc5a5b4ec9419a18fbf86c8741899ebda296d765245c5c082b98961edb",
        "scriptpubkey_asm": "OP_PUSHNUM_1 OP_PUSHBYTES_32 1e784cbc5a5b4ec9419a18fbf86c8741899ebda296d765245c5c082b98961edb",
        "scriptpubkey_type": "v1_p2tr",
        "scriptpubkey_address": "bc1preuye0z6td8vjsv6rralsmy8gxyea0dzjmtk2fzutsyzhxykrmdsqa5us2",
        "value": 143457
      },
      "scriptsig": "",
      "scriptsig_asm": "",
      "witness": [
        "f48a5cf76169d14d30ac7688332448f2108083b96a8e6eb5a126b3a66ffde9553b160853be848a57082af0d12f94e7507a2a25971241c7b264b1477180076101"
      ],
      "is_coinbase": false,
      "sequence": 4294967295
    },
    {
      "txid": "aae5c4a959b92e951b49a9af89c7fe981a27a58900ee8b865a020b32832c430a",
      "vout": 0,
      "prevout": {
        "scriptpubkey": "5120276c184120106d15306a9d18be70e838adbf9d3436479993aeaacb43c3698cc1",
        "scriptpubkey_asm": "OP_PUSHNUM_1 OP_PUSHBYTES_32 276c184120106d15306a9d18be70e838adbf9d3436479993aeaacb43c3698cc1",
        "scriptpubkey_type": "v1_p2tr",
        "scriptpubkey_address": "bc1pyakpssfqzpk32vr2n5vtuu8g8zkml8f5xerenyaw4t958smf3nqs0lh7ka",
        "value": 62746
      },
      "scriptsig": "",
      "scriptsig_asm": "",
      "witness": [
        "60508413b9d2186c2e606a1651cd7443a7411fbf4c330e64147f6f3d55f02ee1521790fe3b789227da91753a8bacde9415584f986117a4fdfab8ab8f6e605fa5"
      ],
      "is_coinbase": false,
      "sequence": 4294967295
    },
    {
      "txid": "f382ee5110c3e788461f8c7fc905a88f2b00a4253a7c1652a1f0444bf15b9031",
      "vout": 3,
      "prevout": {
        "scriptpubkey": "51205d2b5068619057bf2327486f2401198368d35b4937263a28e29d28619ce6579a",
        "scriptpubkey_asm": "OP_PUSHNUM_1 OP_PUSHBYTES_32 5d2b5068619057bf2327486f2401198368d35b4937263a28e29d28619ce6579a",
        "scriptpubkey_type": "v1_p2tr",
        "scriptpubkey_address": "bc1pt544q6rpjptm7ge8fphjgqgesd5dxk6fxunr528zn55xr88x27dq65avep",
        "value": 55227
      },
      "scriptsig": "",
      "scriptsig_asm": "",
      "witness": [
        "ffde18362c8e0ad230b44cb53ca7e5f31ab8fcba609cdc72913428f3cbdaea014690ae880bb6856e58cca6d8ed6a24a795f37c1c6d442606e18642fc7c21f553"
      ],
      "is_coinbase": false,
      "sequence": 4294967295
    },
    {
      "txid": "e3b14cec50f411a59b9f04d73bbe7cf1720d69af37515606e643c6e19589c217",
      "vout": 0,
      "prevout": {
        "scriptpubkey": "5120dbb29007d349a1bc7a5aec479c041b14f85f5dfd8e78ceeb0c083dce24973444",
        "scriptpubkey_asm": "OP_PUSHNUM_1 OP_PUSHBYTES_32 dbb29007d349a1bc7a5aec479c041b14f85f5dfd8e78ceeb0c083dce24973444",
        "scriptpubkey_type": "v1_p2tr",
        "scriptpubkey_address": "bc1pmwefqp7nfxsmc7j6a3recpqmznu97h0a3euva6cvpq7uufyhx3zq0kxqu4",
        "value": 16618
      },
      "scriptsig": "",
      "scriptsig_asm": "",
      "witness": [
        "cb8eed39669ce2ed858702c23d07e2f2afe43fb6a79a8f2bf88e95ae4a68a44ac200677f780829c3f75d4d525db87bb401d593457507e43dca3e1519c95afe57"
      ],
      "is_coinbase": false,
      "sequence": 4294967295
    },
    {
      "txid": "486304f8894d05a3bbc5a1ce8d0a6b86109611c7058675aac946a1ad6cec7daf",
      "vout": 0,
      "prevout": {
        "scriptpubkey": "51207b5392bc075a9c97df4e6a043fc5fa70b256284c63cc3fb820ff5428f121516d",
        "scriptpubkey_asm": "OP_PUSHNUM_1 OP_PUSHBYTES_32 7b5392bc075a9c97df4e6a043fc5fa70b256284c63cc3fb820ff5428f121516d",
        "scriptpubkey_type": "v1_p2tr",
        "scriptpubkey_address": "bc1p0dfe90q8t2wf0h6wdgzrl306wze9v2zvv0xrlwpqla2z3ufp29ks6ktmrs",
        "value": 15238
      },
      "scriptsig": "",
      "scriptsig_asm": "",
      "witness": [
        "124af12ea6bbc8a365f9925a0774ab5e281dce9414159f8238b45d34486378062059c54e4256cc2163886607aed1c76020d7e3eb0e39bbd914b2413f20b22f82"
      ],
      "is_coinbase": false,
      "sequence": 4294967295
    },
    {
      "txid": "fd50c30258a2dbed600606b7ac76301df55f1f69775bad267904b6b55ffd11db",
      "vout": 1,
      "prevout": {
        "scriptpubkey": "51204ae01e44b5761d52f5757779988c17d7552184d375c9963c8782788dc3a7c831",
        "scriptpubkey_asm": "OP_PUSHNUM_1 OP_PUSHBYTES_32 4ae01e44b5761d52f5757779988c17d7552184d375c9963c8782788dc3a7c831",
        "scriptpubkey_type": "v1_p2tr",
        "scriptpubkey_address": "bc1pftspu394wcw49at4waue3rqh6a2jrpxnwhyev0y8sfugmsa8eqcselctp8",
        "value": 11454
      },
      "scriptsig": "",
      "scriptsig_asm": "",
      "witness": [
        "a30635eed0e8faba8b9168533ac3080259c2f7a22157c308432a6c633275dd2814006e9b851cdce96b009d7d8a7621772e87317eb9ff22d2cf6805ae6d51ff1e"
      ],
      "is_coinbase": false,
      "sequence": 4294967295
    }
  ],
  "vout": [
    {
      "scriptpubkey": "0014e9eb8b18f8de175924cd139bcbccfedeac5d2234",
      "scriptpubkey_asm": "OP_0 OP_PUSHBYTES_20 e9eb8b18f8de175924cd139bcbccfedeac5d2234",
      "scriptpubkey_type": "v0_p2wpkh",
      "scriptpubkey_address": "bc1qa84ckx8cmct4jfxdzwduhn87m6k96g35mgwn3j",
      "value": 2178416
    }
  ],
  "size": 1434,
  "weight": 3156,
  "fee": 8633,
  "status": {
    "confirmed": true,
    "block_height": 834464,
    "block_hash": "0000000000000000000177a0869a911a2b65c9bdcd5a8bcb02b68f305bee848e",
    "block_time": 1710308296
  },
  "hex": "0100000000010da4aabe19b783733183d88d9d9716c9c0ddb2b99352d4ef232fc8e568dc0dd6900000000000ffffffff8c758627b690e76340830d09c4e80960ab8a953ed5fdd9d47baff7e072e962ec0000000000ffffffff588c0ee8656eb2c111732768ddf9353bd38e9b1a5bb4d2fa91f4482de6e7bc750000000000ffffffff6e14023d5cef12297798ab66a443c6577eab28707fb6c573804e104653f726e30000000000ffffffff50be63dfbebeac5179039fbf3caa055842d797c6a6088b08657a0e3c4d5708c50000000000ffffffffbac429e872c3c92d0bee75282ba7a7af0d9d126de33a37b8ab1c2785da8bf1550000000000ffffffffba80e63017b64df91a1f95aa68ceb424cd23e20ee38b12779beb5230ce1005a50000000000ffffffff38e7a10859681780973ccfbdb36382c21c55dfd6569ca99947d60b9226bf82300000000000ffffffff0a432c83320b025a868bee0089a5271a98fec789afa9491b952eb959a9c4e5aa0000000000ffffffff31905bf14b44f0a152167c3a25a4002b8fa805c97f8c1f4688e7c31051ee82f30300000000ffffffff17c28995e1c643e606565137af690d72f17cbe3bd7049f9ba511f450ec4cb1e30000000000ffffffffaf7dec6cada146c9aa758605c7119610866b0a8dcea1c5bba3054d89f80463480000000000ffffffffdb11fd5fb5b6047926ad5b77691f5ff51d3076acb7060660eddba25802c350fd0100000000ffffffff01703d210000000000160014e9eb8b18f8de175924cd139bcbccfedeac5d22340140db81b9cc24d57c997e3a5e09c10b26e41cc3d29c3363bf4c7d74f479a06016cb7db338a19eb544aa87597369665b2bee3b094b3e873bcf2724073d94eb9246a70140d402683e24bf4206e73e25ce7c94efbddd95a82bcda9bee0fc572aaec13d80f613a7f5b5ad2914a33f4eb257a48ca6ad1048eee4da1d439b570fb0a4691220d2014016d71abc3eb5a8245b234863d5a7a2ac953b1814ae695c7a75a729ea7cb6071ea2e9d101a7d4143857fcaee50b601fa145f22df8d017823ae75afcc840d71d6d014090ee2831061dc76b67f6922828ac2f0fd125013d0b7074aa1479c80097cc02744ce29d4a4b437bbc724a581419a2a106460cc48aca2b4b8fcd30ec359bbe3dbf01403de071b72113f0afacce6364e2225894afce6e65c485616972b88a9348356633ed25e1955819e7c843a34d71489718b66d52e6f9634c9c3e3d8f979eef9e445c01409c58bbd320d8e7d7d9d3d33a986d048432850960a05bec2411eeacf23c34c0ab1fbdd5820fd8a86285809f5035a11e642acf7c5c7b279ef50b00346f4f12e31e01401cc462c4a4a949e7e72a815ce269ce12b6239958d50642c20372d8d2272af4656e6f446ea822792f0143e8518c17187685219c7f891ffd71a30e6c746ab643a00140f48a5cf76169d14d30ac7688332448f2108083b96a8e6eb5a126b3a66ffde9553b160853be848a57082af0d12f94e7507a2a25971241c7b264b1477180076101014060508413b9d2186c2e606a1651cd7443a7411fbf4c330e64147f6f3d55f02ee1521790fe3b789227da91753a8bacde9415584f986117a4fdfab8ab8f6e605fa50140ffde18362c8e0ad230b44cb53ca7e5f31ab8fcba609cdc72913428f3cbdaea014690ae880bb6856e58cca6d8ed6a24a795f37c1c6d442606e18642fc7c21f5530140cb8eed39669ce2ed858702c23d07e2f2afe43fb6a79a8f2bf88e95ae4a68a44ac200677f780829c3f75d4d525db87bb401d593457507e43dca3e1519c95afe570140124af12ea6bbc8a365f9925a0774ab5e281dce9414159f8238b45d34486378062059c54e4256cc2163886607aed1c76020d7e3eb0e39bbd914b2413f20b22f820140a30635eed0e8faba8b9168533ac3080259c2f7a22157c308432a6c633275dd2814006e9b851cdce96b009d7d8a7621772e87317eb9ff22d2cf6805ae6d51ff1e00000000"
}