{
  "txid": "afa2b33afc3f8c126bc5f6399e222469636d96e8a4d78a09c16a35bcdc8432e3",
  "version": 2,
  "locktime": 0,
  "vin": [
    {
      "txid": "4ee77778659dcfe8d7a4e15882fc6193f4f3d5f6607624e256337b44c2280af5",
      "vout": 88,
      "prevout": {
        "scriptpubkey": "5120cad94b142f1ae3e78264ee4544c33a6e800e0178331a737f198868fe1abd8849",
        "scriptpubkey_asm": "OP_PUSHNUM_1 OP_PUSHBYTES_32 cad94b142f1ae3e78264ee4544c33a6e800e0178331a737f198868fe1abd8849",
        "scriptpubkey_type": "v1_p2tr",
        "scriptpubkey_address": "bc1petv5k9p0rt370qnyaez5fse6d6qquqtcxvd8xlce3p50ux4a3pysxxqrlh",
        "value": 2075
      },
      "scriptsig": "",
      "scriptsig_asm": "",
      "witness": [
        "90577e44a25e079de9a94760b1ac33f0672d3e0849ee40a09f9ea7166f6c6423094b84a3cdb04660ab696d0f4626c0bcb3ebbb84a406e70373a2882478cc82c7",
        "205c901ab1fbd973f11769cacf257c41eb85f15eefda1e5a3c152acbd3e7be912eac0063036f7264010118746578742f706c61696e3b636861727365743d7574662d3800357b2270223a224252432d313030222c226f70223a226d696e74222c227469636b223a22696e73222c22616d74223a2231303030227d68",
        "c1c50eac15d7d7889f5ad84f80015e8a209129aeea937c37fa4b8bc0f9be289730"
      ],
      "is_coinbase": false,
      "sequence": 4294967295
    }
  ],
  "vout": [
    {
      "scriptpubkey": "00143e2325412b554cacdd163a93a42204c4707f8851",
      "scriptpubkey_asm": "OP_0 OP_PUSHBYTES_20 3e2325412b554cacdd163a93a42204c4707f8851",
      "scriptpubkey_type": "v0_p2wpkh",
      "scriptpubkey_address": "bc1q8c3j2sft24x2ehgk82f6ggsyc3c8lzz3yw9wsu",
      "value": 546
    }
  ],
  "size": 308,
  "weight": 554,
  "fee": 1529,
  "status": {
    "confirmed": true,
    "block_height": 834464,
    "block_hash": "0000000000000000000177a0869a911a2b65c9bdcd5a8bcb02b68f305bee848e",
    "block_time": 1710308296
  },
  "hex": "02000000000101f50a28c2447b3356e2247660f6d5f3f49361fc8258e1a4d7e8cf9d657877e74e5800000000ffffffff0122020000000000001600143e2325412b554cacdd163a93a42204c4707f8851034090577e44a25e079de9a94760b1ac33f0672d3e0849ee40a09f9ea7166f6c6423094b84a3cdb04660ab696d0f4626c0bcb3ebbb84a406e70373a2882478cc82c77b205c901ab1fbd973f11769cacf257c41eb85f15eefda1e5a3c152acbd3e7be912eac0063036f7264010118746578742f706c61696e3b636861727365743d7574662d3800357b2270223a224252432d313030222c226f70223a226d696e74222c227469636b223a22696e73222c22616d74223a2231303030227d6821c1c50eac15d7d7889f5ad84f80015e8a209129aeea937c37fa4b8bc0f9be28973000000000"
}