{
  "txid": "afa9a2de1ca70b25c26b63a8a6db8fe3a8b6cea76367af4797ad9dc27365382c",
  "version": 2,
  "locktime": 0,
  "vin": [
    {
      "txid": "9c10b007d2133e013cafef64d1faa7fec4afc4908ff78aa73222c05d55f4b3b4",
      "vout": 13,
      "prevout": {
        "scriptpubkey": "51207a6d1f82c9157796882f8b2d80cf9b18a42dc6c7a5b5560b176e5e5ea90cc838",
        "scriptpubkey_asm": "OP_PUSHNUM_1 OP_PUSHBYTES_32 7a6d1f82c9157796882f8b2d80cf9b18a42dc6c7a5b5560b176e5e5ea90cc838",
        "scriptpubkey_type": "v1_p2tr",
        "scriptpubkey_address": "bc1p0fk3lqkfz4medzp03vkcpnumrzjzm3k85k64vzchde09a2gvequq28hdnk",
        "value": 3248
      },
      "scriptsig": "",
      "scriptsig_asm": "",
      "witness": [
        "e7d3081a7eb26d9042b58f1ef4735e7347c00aabe8ed57abd77793e50837cc901867e03607711fac7c6b30c936cbce5ad2b7e2c5207a71c79bc67c9c13c22a3e",
        "205153e8d52751e9c1c6e1b2a3ed8be5b3037ca2e24ccedb0580ef70a67702e80eac0063036f726401011e6170706c69636174696f6e2f6a736f6e3b636861727365743d7574662d38004cd37b2270223a22706f772d3230222c226f70223a226d696e74222c227469636b223a2250455045222c22616d74223a2231303030222c22736f6c7574696f6e223a22504550453a62633170636a65387233733875656e746d64767a6e34777337786d3836367879707535756139357371796877756835616d61677565367a73707a733637713a303030303030303030303030303030303030303139393431613561653132383937363539383134343239323533333030353762306461393666336465613163353a3139303936363939343935227d68",
        "c13e1a296467c00ef4aae3d2c5b2725c238a71cd400892ce19de6d969e3f5bb91e"
      ],
      "is_coinbase": false,
      "sequence": 4294967295
    }
  ],
  "vout": [
    {
      "scriptpubkey": "5120c4b271c607e666bdb5829d5d0f1b67d68c40f29ce9690012eee5e9ddf51cce85",
      "scriptpubkey_asm": "OP_PUSHNUM_1 OP_PUSHBYTES_32 c4b271c607e666bdb5829d5d0f1b67d68c40f29ce9690012eee5e9ddf51cce85",
      "scriptpubkey_type": "v1_p2tr",
      "scriptpubkey_address": "bc1pcje8r3s8uentmdvzn4ws7xm866xypu5ua95sqyhwuh5amague6zspzs67q",
      "value": 546
    }
  ],
  "size": 487,
  "weight": 769,
  "fee": 2702,
  "status": {
    "confirmed": true,
    "block_height": 834460,
    "block_hash": "00000000000000000000484a79b643b2524bbce82e5d8a442013fa5b8905ed98",
    "block_time": 1710307468
  },
  "hex": "02000000000101b4b3f4555dc02232a78af78f90c4afc4fea7fad164efaf3c013e13d207b0109c0d00000000ffffffff012202000000000000225120c4b271c607e666bdb5829d5d0f1b67d68c40f29ce9690012eee5e9ddf51cce850340e7d3081a7eb26d9042b58f1ef4735e7347c00aabe8ed57abd77793e50837cc901867e03607711fac7c6b30c936cbce5ad2b7e2c5207a71c79bc67c9c13c22a3efd2001205153e8d52751e9c1c6e1b2a3ed8be5b3037ca2e24ccedb0580ef70a67702e80eac0063036f726401011e6170706c69636174696f6e2f6a736f6e3b636861727365743d7574662d38004cd37b2270223a22706f772d3230222c226f70223a226d696e74222c227469636b223a2250455045222c22616d74223a2231303030222c22736f6c7574696f6e223a22504550453a62633170636a65387233733875656e746d64767a6e34777337786d3836367879707535756139357371796877756835616d61677565367a73707a733637713a303030303030303030303030303030303030303139393431613561653132383937363539383134343239323533333030353762306461393666336465613163353a3139303936363939343935227d6821c13e1a296467c00ef4aae3d2c5b2725c238a71cd400892ce19de6d969e3f5bb91e00000000"
}