{
  "txid": "afcf59575e99e413bf40fd7d17c614e761a0930039a2c701d4e237ad9bb18a84",
  "version": 2,
  "locktime": 0,
  "vin": [
    {
      "txid": "5f846d283984d01eb9829d816f88218abd33effc15a08222518615da3e5f47c5",
      "vout": 23,
      "prevout": {
        "scriptpubkey": "5120fc78868b540fe8cd93addddeb6d2a7a9dba0def6d0550c5b7affe11f9e923e78",
        "scriptpubkey_asm": "OP_PUSHNUM_1 OP_PUSHBYTES_32 fc78868b540fe8cd93addddeb6d2a7a9dba0def6d0550c5b7affe11f9e923e78",
        "scriptpubkey_type": "v1_p2tr",
        "scriptpubkey_address": "bc1pl3ugdz65pl5vmyadmh0td54848d6phhk6p2sckm6lls3l85j8euq73f4lc",
        "value": 2862
      },
      "scriptsig": "",
      "scriptsig_asm": "",
      "witness": [
        "a9dda9c259ca8a72567d37576deb21b9c327deb726d6d789dd97d1a708699315145ee1c4d1638c3b4bdf17769755d6b98658755bf17f0a247d133496461c4213",
        "20c148aa7d4af290439518cf43fc16b6b34a066a3f2ed311d0f791741513fa41c9ac0063036f726401011e6170706c69636174696f6e2f6a736f6e3b636861727365743d7574662d38004cd37b2270223a22706f772d3230222c226f70223a226d696e74222c227469636b223a2250455045222c22616d74223a2231303030222c22736f6c7574696f6e223a22504550453a626331706d6c3973653572666b6c3076393075786c7972667871717a366c34797364637172647371683735656c727133396676647164777139777276736e3a303030303030303030303030303030303030303139393431613561653132383937363539383134343239323533333030353762306461393666336465613163353a3436353538323833383630227d68",
        "c13beca27a4fc825f712a8ee0e92a93b2e9ce7496e1e1c5bfb1b103e51f3be77b5"
      ],
      "is_coinbase": false,
      "sequence": 4294967295
    }
  ],
  "vout": [
    {
      "scriptpubkey": "5120dfcb0cd069b7dec2bf86f906930002d7ea4837001b600bfa99f8c112a58d035c",
      "scriptpubkey_asm": "OP_PUSHNUM_1 OP_PUSHBYTES_32 dfcb0cd069b7dec2bf86f906930002d7ea4837001b600bfa99f8c112a58d035c",
      "scriptpubkey_type": "v1_p2tr",
      "scriptpubkey_address": "bc1pml9se5rfkl0v90uxlyrfxqqz6l4ysdcqrdsqh75elrq39fvdqdwq9wrvsn",
      "value": 546
    }
  ],
  "size": 487,
  "weight": 769,
  "fee": 2316,
  "status": {
    "confirmed": true,
    "block_height": 834460,
    "block_hash": "00000000000000000000484a79b643b2524bbce82e5d8a442013fa5b8905ed98",
    "block_time": 1710307468
  },
  "hex": "02000000000101c5475f3eda1586512282a015fcef33bd8a21886f819d82b91ed08439286d845f1700000000ffffffff012202000000000000225120dfcb0cd069b7dec2bf86f906930002d7ea4837001b600bfa99f8c112a58d035c0340a9dda9c259ca8a72567d37576deb21b9c327deb726d6d789dd97d1a708699315145ee1c4d1638c3b4bdf17769755d6b98658755bf17f0a247d133496461c4213fd200120c148aa7d4af290439518cf43fc16b6b34a066a3f2ed311d0f791741513fa41c9ac0063036f726401011e6170706c69636174696f6e2f6a736f6e3b636861727365743d7574662d38004cd37b2270223a22706f772d3230222c226f70223a226d696e74222c227469636b223a2250455045222c22616d74223a2231303030222c22736f6c7574696f6e223a22504550453a626331706d6c3973653572666b6c3076393075786c7972667871717a366c34797364637172647371683735656c727133396676647164777139777276736e3a303030303030303030303030303030303030303139393431613561653132383937363539383134343239323533333030353762306461393666336465613163353a3436353538323833383630227d6821c13beca27a4fc825f712a8ee0e92a93b2e9ce7496e1e1c5bfb1b103e51f3be77b500000000"
}