{
  "txid": "afd1c214f49650101d7fbec35b2aa188eddfd01070970e0d4328c921e357077c",
  "version": 2,
  "locktime": 832958,
  "vin": [
    {
      "txid": "881b8e7728ec625afca24d23f6613c3e1354e9be7035bb92557fde933586f782",
      "vout": 0,
      "prevout": {
        "scriptpubkey": "001463d591d5cd8223ab29b6aa29cf02616034dda385",
        "scriptpubkey_asm": "OP_0 OP_PUSHBYTES_20 63d591d5cd8223ab29b6aa29cf02616034dda385",
        "scriptpubkey_type": "v0_p2wpkh",
        "scriptpubkey_address": "bc1qv02er4wdsg36k2dk4g5u7qnpvq6dmgu9xpz2xa",
        "value": 1970
      },
      "scriptsig": "",
      "scriptsig_asm": "",
      "witness": [
        "30440220275835c931b226899d932d4822781609c4acc9d739bf7302f45225016f29ee0302204c57af9ff215b9da776523550a4cb2bb42713177748c289356df0b4cdb1d302701",
        "03492699568e2f9477c6541ab0e4068b5023d0972366ec86539d2d2338925162d0"
      ],
      "is_coinbase": false,
      "sequence": 4294967293
    },
    {
      "txid": "96d46bfc54e5961c253e9f4a5008c807d6fb457899a4e19690754c827e92bbda",
      "vout": 93,
      "prevout": {
        "scriptpubkey": "00147bb1d3c1a45cb8c0bb160aeda99eaf7f6f0c1889",
        "scriptpubkey_asm": "OP_0 OP_PUSHBYTES_20 7bb1d3c1a45cb8c0bb160aeda99eaf7f6f0c1889",
        "scriptpubkey_type": "v0_p2wpkh",
        "scriptpubkey_address": "bc1q0wca8sdytjuvpwckptk6n8400ahscxyfgpt4j2",
        "value": 40469
      },
      "scriptsig": "",
      "scriptsig_asm": "",
      "witness": [
        "30440220685419b94da82ad89f1b78c325998cc7363ba32eed309dd9a1ba3dc5224f139102204f6055e4ac2c44c3827a0286d8d9617d4b70d423d1af40e42ad1d983365c5dca01",
        "034260b6733ebc04cd3ebf62b5a4e045e90920470f20da986d91bbfac11d877dec"
      ],
      "is_coinbase": false,
      "sequence": 4294967293
    }
  ],
  "vout": [
    {
      "scriptpubkey": "00140feed529043e78a4918bc97f8644a94d5dc565aa",
      "scriptpubkey_asm": "OP_0 OP_PUSHBYTES_20 0feed529043e78a4918bc97f8644a94d5dc565aa",
      "scriptpubkey_type": "v0_p2wpkh",
      "scriptpubkey_address": "bc1qplhd22gy8eu2fyvte9lcv39ff4wu2ed2ucd6ct",
      "value": 40499
    }
  ],
  "size": 339,
  "weight": 708,
  "fee": 1940,
  "status": {
    "confirmed": true,
    "block_height": 834464,
    "block_hash": "0000000000000000000177a0869a911a2b65c9bdcd5a8bcb02b68f305bee848e",
    "block_time": 1710308296
  },
  "hex": "0200000000010282f7863593de7f5592bb3570bee954133e3c61f6234da2fc5a62ec28778e1b880000000000fdffffffdabb927e824c759096e1a4997845fbd607c808504a9f3e251c96e554fc6bd4965d00000000fdffffff01339e0000000000001600140feed529043e78a4918bc97f8644a94d5dc565aa024730440220275835c931b226899d932d4822781609c4acc9d739bf7302f45225016f29ee0302204c57af9ff215b9da776523550a4cb2bb42713177748c289356df0b4cdb1d3027012103492699568e2f9477c6541ab0e4068b5023d0972366ec86539d2d2338925162d0024730440220685419b94da82ad89f1b78c325998cc7363ba32eed309dd9a1ba3dc5224f139102204f6055e4ac2c44c3827a0286d8d9617d4b70d423d1af40e42ad1d983365c5dca0121034260b6733ebc04cd3ebf62b5a4e045e90920470f20da986d91bbfac11d877decbeb50c00"
}