{
  "txid": "afd30f1579fd265793c001559136529ff3e446c7a2d608b135baa48eacb81765",
  "version": 2,
  "locktime": 0,
  "vin": [
    {
      "txid": "abdcbb8bcefa0f088373ceda41a70fe1aeaa3823b969e1169e2a29269068d8dc",
      "vout": 22,
      "prevout": {
        "scriptpubkey": "5120459a20f3b17365351a21cfe04dd8104ec547baf1ff19cd2cdb054c695a34816f",
        "scriptpubkey_asm": "OP_PUSHNUM_1 OP_PUSHBYTES_32 459a20f3b17365351a21cfe04dd8104ec547baf1ff19cd2cdb054c695a34816f",
        "scriptpubkey_type": "v1_p2tr",
        "scriptpubkey_address": "bc1pgkdzpua3wdjn2x3pelsymkqsfmz50wh3luvu6txmq4xxjk35s9hsz0v78f",
        "value": 2522
      },
      "scriptsig": "",
      "scriptsig_asm": "",
      "witness": [
        "b63f91b4d7495a357db461ae9eaa4ea425b3886e44dc3dfc6be3f9e9c6d0f423b1d2ecf4212e5c3a5067e5de9c72b4006542f51b5da251c4ca0ee2d71bf7cec5",
        "204363fb627e08a04bc09b26d4aab3b55e76be177575e53063f09d728c6d832db5ac0063036f7264010118746578742f706c61696e3b636861727365743d7574662d3800387b2270223a226272632d3230222c226f70223a227472616e73666572222c227469636b223a226f726e6a222c22616d74223a22313030227d68",
        "c125dced391475af84759664675c16f5ed581b243a944241d7ee258c8cfb80c9db"
      ],
      "is_coinbase": false,
      "sequence": 4294967295
    }
  ],
  "vout": [
    {
      "scriptpubkey": "512060e7b9d91ee3091b65165528563dba11a47299520ea2fc67070ec6ac303fc05d",
      "scriptpubkey_asm": "OP_PUSHNUM_1 OP_PUSHBYTES_32 60e7b9d91ee3091b65165528563dba11a47299520ea2fc67070ec6ac303fc05d",
      "scriptpubkey_type": "v1_p2tr",
      "scriptpubkey_address": "bc1pvrnmnkg7uvy3kegk2559v0d6zxj89x2jp630cec8pmr2cvplcpwsn3pn79",
      "value": 546
    }
  ],
  "size": 323,
  "weight": 605,
  "fee": 1976,
  "status": {
    "confirmed": true,
    "block_height": 834460,
    "block_hash": "00000000000000000000484a79b643b2524bbce82e5d8a442013fa5b8905ed98",
    "block_time": 1710307468
  },
  "hex": "02000000000101dcd8689026292a9e16e169b92338aaaee10fa741dace7383080fface8bbbdcab1600000000ffffffff01220200000000000022512060e7b9d91ee3091b65165528563dba11a47299520ea2fc67070ec6ac303fc05d0340b63f91b4d7495a357db461ae9eaa4ea425b3886e44dc3dfc6be3f9e9c6d0f423b1d2ecf4212e5c3a5067e5de9c72b4006542f51b5da251c4ca0ee2d71bf7cec57e204363fb627e08a04bc09b26d4aab3b55e76be177575e53063f09d728c6d832db5ac0063036f7264010118746578742f706c61696e3b636861727365743d7574662d3800387b2270223a226272632d3230222c226f70223a227472616e73666572222c227469636b223a226f726e6a222c22616d74223a22313030227d6821c125dced391475af84759664675c16f5ed581b243a944241d7ee258c8cfb80c9db00000000"
}