{
  "txid": "afe389d1f86acda534abc7560543f56d3ac88f86ecbf931e3e80b984c4895f7c",
  "version": 2,
  "locktime": 0,
  "vin": [
    {
      "txid": "dce8531daca86c9a0c4f96211d2ca9ea8d336186efd89073ad62dd3c657f49ec",
      "vout": 3,
      "prevout": {
        "scriptpubkey": "512008ee19ffcec10bc49e4b781faf75e658e4174e15c90883cb26ff828e53e6b173",
        "scriptpubkey_asm": "OP_PUSHNUM_1 OP_PUSHBYTES_32 08ee19ffcec10bc49e4b781faf75e658e4174e15c90883cb26ff828e53e6b173",
        "scriptpubkey_type": "v1_p2tr",
        "scriptpubkey_address": "bc1pprhpnl7wcy9uf8jt0q067a0xtrjpwns4eyyg8jexl7pgu5lxk9esx7rm2r",
        "value": 600
      },
      "scriptsig": "",
      "scriptsig_asm": "",
      "witness": [
        "0e83f81397ec6458d515fd2985a96ca47d52b0e73b7fecb378e9d65ccf4ec40b5413b91f8f61023a5eba494244441fd464979726e50faf40f42f5b36c1247c2401"
      ],
      "is_coinbase": false,
      "sequence": 4294967295
    },
    {
      "txid": "dce8531daca86c9a0c4f96211d2ca9ea8d336186efd89073ad62dd3c657f49ec",
      "vout": 4,
      "prevout": {
        "scriptpubkey": "512008ee19ffcec10bc49e4b781faf75e658e4174e15c90883cb26ff828e53e6b173",
        "scriptpubkey_asm": "OP_PUSHNUM_1 OP_PUSHBYTES_32 08ee19ffcec10bc49e4b781faf75e658e4174e15c90883cb26ff828e53e6b173",
        "scriptpubkey_type": "v1_p2tr",
        "scriptpubkey_address": "bc1pprhpnl7wcy9uf8jt0q067a0xtrjpwns4eyyg8jexl7pgu5lxk9esx7rm2r",
        "value": 600
      },
      "scriptsig": "",
      "scriptsig_asm": "",
      "witness": [
        "42080f3eea35cade7f9a10ab6fb8b14f8a11a78c75fca9b1b3867cbcdbc173b44e4983f86ff3d816fbbf37e4b70a7bcfe343d417464b3cc57aa2f51226579ced01"
      ],
      "is_coinbase": false,
      "sequence": 4294967295
    },
    {
      "txid": "b878f30b25644d190be250fd07b26f3175c4cafcbb44d4b16dbf11d7556d4bb4",
      "vout": 0,
      "prevout": {
        "scriptpubkey": "5120f3b451d64c7539f0ec59390b80a0b4c4865f65fb49453a7e25d25e3a6db5364b",
        "scriptpubkey_asm": "OP_PUSHNUM_1 OP_PUSHBYTES_32 f3b451d64c7539f0ec59390b80a0b4c4865f65fb49453a7e25d25e3a6db5364b",
        "scriptpubkey_type": "v1_p2tr",
        "scriptpubkey_address": "bc1p7w69r4jvw5ulpmze8y9cpg95cjr97e0mf9zn5l396f0r5md4xe9s0jgdy6",
        "value": 546
      },
      "scriptsig": "",
      "scriptsig_asm": "",
      "witness": [
        "e3e959d9c60edea540cafcf898ad0266b5972c28506d255b5dc4fbbcbd5f6278f347c06b7da19151681d7ba65b190df9b56dff583010c4d51dd5588a4cb1feb383"
      ],
      "is_coinbase": false,
      "sequence": 4294967295
    },
    {
      "txid": "7a0ec819b0ae44ac453bcae2445b07215667f4b2580def3a67ceecf849c2e7bc",
      "vout": 1,
      "prevout": {
        "scriptpubkey": "512008ee19ffcec10bc49e4b781faf75e658e4174e15c90883cb26ff828e53e6b173",
        "scriptpubkey_asm": "OP_PUSHNUM_1 OP_PUSHBYTES_32 08ee19ffcec10bc49e4b781faf75e658e4174e15c90883cb26ff828e53e6b173",
        "scriptpubkey_type": "v1_p2tr",
        "scriptpubkey_address": "bc1pprhpnl7wcy9uf8jt0q067a0xtrjpwns4eyyg8jexl7pgu5lxk9esx7rm2r",
        "value": 618845
      },
      "scriptsig": "",
      "scriptsig_asm": "",
      "witness": [
        "1a42d5403b9a0d5bf42a33636ae1fe6970d78a2b8c8f6f53ec8dba37f2d9babd67aa6d81fed819cd863bccd27d72def8aab972e0d7f522a3cde183fbfbd3353a01"
      ],
      "is_coinbase": false,
      "sequence": 4294967295
    }
  ],
  "vout": [
    {
      "scriptpubkey": "512008ee19ffcec10bc49e4b781faf75e658e4174e15c90883cb26ff828e53e6b173",
      "scriptpubkey_asm": "OP_PUSHNUM_1 OP_PUSHBYTES_32 08ee19ffcec10bc49e4b781faf75e658e4174e15c90883cb26ff828e53e6b173",
      "scriptpubkey_type": "v1_p2tr",
      "scriptpubkey_address": "bc1pprhpnl7wcy9uf8jt0q067a0xtrjpwns4eyyg8jexl7pgu5lxk9esx7rm2r",
      "value": 1200
    },
    {
      "scriptpubkey": "512008ee19ffcec10bc49e4b781faf75e658e4174e15c90883cb26ff828e53e6b173",
      "scriptpubkey_asm": "OP_PUSHNUM_1 OP_PUSHBYTES_32 08ee19ffcec10bc49e4b781faf75e658e4174e15c90883cb26ff828e53e6b173",
      "scriptpubkey_type": "v1_p2tr",
      "scriptpubkey_address": "bc1pprhpnl7wcy9uf8jt0q067a0xtrjpwns4eyyg8jexl7pgu5lxk9esx7rm2r",
      "value": 546
    },
    {
      "scriptpubkey": "5120f3b451d64c7539f0ec59390b80a0b4c4865f65fb49453a7e25d25e3a6db5364b",
      "scriptpubkey_asm": "OP_PUSHNUM_1 OP_PUSHBYTES_32 f3b451d64c7539f0ec59390b80a0b4c4865f65fb49453a7e25d25e3a6db5364b",
      "scriptpubkey_type": "v1_p2tr",
      "scriptpubkey_address": "bc1p7w69r4jvw5ulpmze8y9cpg95cjr97e0mf9zn5l396f0r5md4xe9s0jgdy6",
      "value": 278000
    },
    {
      "scriptpubkey": "512008ee19ffcec10bc49e4b781faf75e658e4174e15c90883cb26ff828e53e6b173",
      "scriptpubkey_asm": "OP_PUSHNUM_1 OP_PUSHBYTES_32 08ee19ffcec10bc49e4b781faf75e658e4174e15c90883cb26ff828e53e6b173",
      "scriptpubkey_type": "v1_p2tr",
      "scriptpubkey_address": "bc1pprhpnl7wcy9uf8jt0q067a0xtrjpwns4eyyg8jexl7pgu5lxk9esx7rm2r",
      "value": 600
    },
    {
      "scriptpubkey": "512008ee19ffcec10bc49e4b781faf75e658e4174e15c90883cb26ff828e53e6b173",
      "scriptpubkey_asm": "OP_PUSHNUM_1 OP_PUSHBYTES_32 08ee19ffcec10bc49e4b781faf75e658e4174e15c90883cb26ff828e53e6b173",
      "scriptpubkey_type": "v1_p2tr",
      "scriptpubkey_address": "bc1pprhpnl7wcy9uf8jt0q067a0xtrjpwns4eyyg8jexl7pgu5lxk9esx7rm2r",
      "value": 600
    },
    {
      "scriptpubkey": "512008ee19ffcec10bc49e4b781faf75e658e4174e15c90883cb26ff828e53e6b173",
      "scriptpubkey_asm": "OP_PUSHNUM_1 OP_PUSHBYTES_32 08ee19ffcec10bc49e4b781faf75e658e4174e15c90883cb26ff828e53e6b173",
      "scriptpubkey_type": "v1_p2tr",
      "scriptpubkey_address": "bc1pprhpnl7wcy9uf8jt0q067a0xtrjpwns4eyyg8jexl7pgu5lxk9esx7rm2r",
      "value": 332413
    }
  ],
  "size": 702,
  "weight": 1998,
  "fee": 7232,
  "status": {
    "confirmed": true,
    "block_height": 834464,
    "block_hash": "0000000000000000000177a0869a911a2b65c9bdcd5a8bcb02b68f305bee848e",
    "block_time": 1710308296
  },
  "hex": "02000000000104ec497f653cdd62ad7390d8ef8661338deaa92c1d21964f0c9a6ca8ac1d53e8dc0300000000ffffffffec497f653cdd62ad7390d8ef8661338deaa92c1d21964f0c9a6ca8ac1d53e8dc0400000000ffffffffb44b6d55d711bf6db1d444bbfccac475316fb207fd50e20b194d64250bf378b80000000000ffffffffbce7c249f8ecce673aef0d58b2f4675621075b44e2ca3b45ac44aeb019c80e7a0100000000ffffffff06b00400000000000022512008ee19ffcec10bc49e4b781faf75e658e4174e15c90883cb26ff828e53e6b173220200000000000022512008ee19ffcec10bc49e4b781faf75e658e4174e15c90883cb26ff828e53e6b173f03d040000000000225120f3b451d64c7539f0ec59390b80a0b4c4865f65fb49453a7e25d25e3a6db5364b580200000000000022512008ee19ffcec10bc49e4b781faf75e658e4174e15c90883cb26ff828e53e6b173580200000000000022512008ee19ffcec10bc49e4b781faf75e658e4174e15c90883cb26ff828e53e6b1737d1205000000000022512008ee19ffcec10bc49e4b781faf75e658e4174e15c90883cb26ff828e53e6b17301410e83f81397ec6458d515fd2985a96ca47d52b0e73b7fecb378e9d65ccf4ec40b5413b91f8f61023a5eba494244441fd464979726e50faf40f42f5b36c1247c2401014142080f3eea35cade7f9a10ab6fb8b14f8a11a78c75fca9b1b3867cbcdbc173b44e4983f86ff3d816fbbf37e4b70a7bcfe343d417464b3cc57aa2f51226579ced010141e3e959d9c60edea540cafcf898ad0266b5972c28506d255b5dc4fbbcbd5f6278f347c06b7da19151681d7ba65b190df9b56dff583010c4d51dd5588a4cb1feb38301411a42d5403b9a0d5bf42a33636ae1fe6970d78a2b8c8f6f53ec8dba37f2d9babd67aa6d81fed819cd863bccd27d72def8aab972e0d7f522a3cde183fbfbd3353a0100000000"
}