{
  "txid": "aff9e0bc9b465398d0d209045913583ca05bac80b2224a54bd1011af379f940e",
  "version": 2,
  "locktime": 0,
  "vin": [
    {
      "txid": "b13bb5512a4904c28a6b7957b88edf574e8cb23551fc1dcfe22d6b239df42cf4",
      "vout": 45,
      "prevout": {
        "scriptpubkey": "5120e2dc4e2adf73f06346d2ee93d86a0107f4e0f9b6ba6a41a2d621d5d26e0180d7",
        "scriptpubkey_asm": "OP_PUSHNUM_1 OP_PUSHBYTES_32 e2dc4e2adf73f06346d2ee93d86a0107f4e0f9b6ba6a41a2d621d5d26e0180d7",
        "scriptpubkey_type": "v1_p2tr",
        "scriptpubkey_address": "bc1putwyu2klw0cxx3kja6fas6spql6wp7dkhf4yrgkky82aymspsrtsfy6agz",
        "value": 2575
      },
      "scriptsig": "",
      "scriptsig_asm": "",
      "witness": [
        "e23e5772db2fc5d58c1d6962a69b524545ce87c0d11b750608f7b387c246080f52e219a397d52c72e41cc64719bfa3dfffc5f6387a0945ec5fc9bdfb1419fc2a",
        "20a9e002e88210ebc83719c53114efd52509362087a1577ad82cdd99b23dab05c8ac0063036f726401010a746578742f706c61696e00367b2270223a226272632d3230222c226f70223a226d696e74222c227469636b223a2261616161222c22616d74223a223130303030227d68",
        "c1a9e002e88210ebc83719c53114efd52509362087a1577ad82cdd99b23dab05c8"
      ],
      "is_coinbase": false,
      "sequence": 4261412863
    }
  ],
  "vout": [
    {
      "scriptpubkey": "0014ce0b5aa0dac72397a8aa5a85d90a2cfb46f0f630",
      "scriptpubkey_asm": "OP_0 OP_PUSHBYTES_20 ce0b5aa0dac72397a8aa5a85d90a2cfb46f0f630",
      "scriptpubkey_type": "v0_p2wpkh",
      "scriptpubkey_address": "bc1qec944gx6cu3e0292t2zajz3vldr0pa3sh356d9",
      "value": 546
    }
  ],
  "size": 295,
  "weight": 541,
  "fee": 2029,
  "status": {
    "confirmed": true,
    "block_height": 834464,
    "block_hash": "0000000000000000000177a0869a911a2b65c9bdcd5a8bcb02b68f305bee848e",
    "block_time": 1710308296
  },
  "hex": "02000000000101f42cf49d236b2de2cf1dfc5135b28c4e57df8eb857796b8ac204492a51b53bb12d00000000fffffffd012202000000000000160014ce0b5aa0dac72397a8aa5a85d90a2cfb46f0f6300340e23e5772db2fc5d58c1d6962a69b524545ce87c0d11b750608f7b387c246080f52e219a397d52c72e41cc64719bfa3dfffc5f6387a0945ec5fc9bdfb1419fc2a6e20a9e002e88210ebc83719c53114efd52509362087a1577ad82cdd99b23dab05c8ac0063036f726401010a746578742f706c61696e00367b2270223a226272632d3230222c226f70223a226d696e74222c227469636b223a2261616161222c22616d74223a223130303030227d6821c1a9e002e88210ebc83719c53114efd52509362087a1577ad82cdd99b23dab05c800000000"
}