{
  "txid": "affd3b84f4baa6856aaf530adf7576099186064109101df2bb794723e4a608ad",
  "version": 2,
  "locktime": 832189,
  "vin": [
    {
      "txid": "a8d572ca11b232c48a927e6491ec110e9a4aa04a6497dc89798f823d4719a8f2",
      "vout": 0,
      "prevout": {
        "scriptpubkey": "0014e01eded3721f60ec7f74b7766f6cf9d1c3ab7fd6",
        "scriptpubkey_asm": "OP_0 OP_PUSHBYTES_20 e01eded3721f60ec7f74b7766f6cf9d1c3ab7fd6",
        "scriptpubkey_type": "v0_p2wpkh",
        "scriptpubkey_address": "bc1quq0da5mjraswclm5kamx7m8e68p6kl7kdx549d",
        "value": 14023
      },
      "scriptsig": "",
      "scriptsig_asm": "",
      "witness": [
        "3044022051010a442d407b705b80f56983c01c563a787dab9ecdc0c3719cd8eca5509ec2022021831fe3a6e1f3b05b5cee9c222d3c30f5b25d4706b52c9652e0d6321fc095e901",
        "0272e462d30630736d82c4a0dc8a21624916010241eec4e5103f2d466db1f038b4"
      ],
      "is_coinbase": false,
      "sequence": 4294967293
    }
  ],
  "vout": [
    {
      "scriptpubkey": "0014dba6ddd7d029f8d2e99154652fa26d317aef1ebf",
      "scriptpubkey_asm": "OP_0 OP_PUSHBYTES_20 dba6ddd7d029f8d2e99154652fa26d317aef1ebf",
      "scriptpubkey_type": "v0_p2wpkh",
      "scriptpubkey_address": "bc1qmwndm47s98ud96v323jjlgndx9aw784lax4a53",
      "value": 12815
    }
  ],
  "size": 191,
  "weight": 437,
  "fee": 1208,
  "status": {
    "confirmed": true,
    "block_height": 834464,
    "block_hash": "0000000000000000000177a0869a911a2b65c9bdcd5a8bcb02b68f305bee848e",
    "block_time": 1710308296
  },
  "hex": "02000000000101f2a819473d828f7989dc97644aa04a9a0e11ec91647e928ac432b211ca72d5a80000000000fdffffff010f32000000000000160014dba6ddd7d029f8d2e99154652fa26d317aef1ebf02473044022051010a442d407b705b80f56983c01c563a787dab9ecdc0c3719cd8eca5509ec2022021831fe3a6e1f3b05b5cee9c222d3c30f5b25d4706b52c9652e0d6321fc095e901210272e462d30630736d82c4a0dc8a21624916010241eec4e5103f2d466db1f038b4bdb20c00"
}