{
  "txid": "b01438564a68e79d76727a90d55d0da60a96cda7b36514ef8743cb2bfd5a27d9",
  "version": 1,
  "locktime": 0,
  "vin": [
    {
      "txid": "0e52722658432b75d8e16a2f6dfca08db0eae50fd7ce32f673cac4bd0b70b544",
      "vout": 1,
      "prevout": {
        "scriptpubkey": "a914e6a63531e03db543823d0a46a4377af7de37153987",
        "scriptpubkey_asm": "OP_HASH160 OP_PUSHBYTES_20 e6a63531e03db543823d0a46a4377af7de371539 OP_EQUAL",
        "scriptpubkey_type": "p2sh",
        "scriptpubkey_address": "3NiaSz4VomF9ajkNX6H6AdFHyYWnmRWzLQ",
        "value": 645637
      },
      "scriptsig": "00473044022061f5cb2c6a6638e40c7235b888224c6352ea1fe60bd5af6e52b2d77453279ebf0220175360ad1aa5d6f612e19eaa75e155e37a8de938f84985a1bf1220148e20a18301473044022065b884e14705c85b462b41fdfe295f4f0e53baf780840b30c0b90f71833dd64d02206ac04c63828ba80e274c4ff96a03f39f450b4bedcb70b415047ea1ee7c712570014c695221029640a253abbf6252e6d195882262da255d6dd17e66cd8aca2610083f6d4d17812103a553e30733d7a8df6d390d59cc136e2c9d9cf4e808f3b6ab009beae68dd608222103211aec906e232ad96f2d52e849cf2798f4cf2d3d3463f608a7638054542defd653ae",
      "scriptsig_asm": "OP_0 OP_PUSHBYTES_71 3044022061f5cb2c6a6638e40c7235b888224c6352ea1fe60bd5af6e52b2d77453279ebf0220175360ad1aa5d6f612e19eaa75e155e37a8de938f84985a1bf1220148e20a18301 OP_PUSHBYTES_71 3044022065b884e14705c85b462b41fdfe295f4f0e53baf780840b30c0b90f71833dd64d02206ac04c63828ba80e274c4ff96a03f39f450b4bedcb70b415047ea1ee7c71257001 OP_PUSHDATA1 5221029640a253abbf6252e6d195882262da255d6dd17e66cd8aca2610083f6d4d17812103a553e30733d7a8df6d390d59cc136e2c9d9cf4e808f3b6ab009beae68dd608222103211aec906e232ad96f2d52e849cf2798f4cf2d3d3463f608a7638054542defd653ae",
      "is_coinbase": false,
      "sequence": 4294967293,
      "inner_redeemscript_asm": "OP_PUSHNUM_2 OP_PUSHBYTES_33 029640a253abbf6252e6d195882262da255d6dd17e66cd8aca2610083f6d4d1781 OP_PUSHBYTES_33 03a553e30733d7a8df6d390d59cc136e2c9d9cf4e808f3b6ab009beae68dd60822 OP_PUSHBYTES_33 03211aec906e232ad96f2d52e849cf2798f4cf2d3d3463f608a7638054542defd6 OP_PUSHNUM_3 OP_CHECKMULTISIG"
    }
  ],
  "vout": [
    {
      "scriptpubkey": "a9148c5b2b2f7352c6d417f71120b6cf184f1d02543487",
      "scriptpubkey_asm": "OP_HASH160 OP_PUSHBYTES_20 8c5b2b2f7352c6d417f71120b6cf184f1d025434 OP_EQUAL",
      "scriptpubkey_type": "p2sh",
      "scriptpubkey_address": "3EV9juqgMiqshyxT9dBnVjwoSkijRqLeh9",
      "value": 635800
    }
  ],
  "size": 335,
  "weight": 1340,
  "fee": 9837,
  "status": {
    "confirmed": true,
    "block_height": 834638,
    "block_hash": "000000000000000000025f742c626208ac87e0b7d15054abb4a19ca2d735a54e",
    "block_time": 1710405325
  },
  "hex": "010000000144b5700bbdc4ca73f632ced70fe5eab08da0fc6d2f6ae1d8752b43582672520e01000000fc00473044022061f5cb2c6a6638e40c7235b888224c6352ea1fe60bd5af6e52b2d77453279ebf0220175360ad1aa5d6f612e19eaa75e155e37a8de938f84985a1bf1220148e20a18301473044022065b884e14705c85b462b41fdfe295f4f0e53baf780840b30c0b90f71833dd64d02206ac04c63828ba80e274c4ff96a03f39f450b4bedcb70b415047ea1ee7c712570014c695221029640a253abbf6252e6d195882262da255d6dd17e66cd8aca2610083f6d4d17812103a553e30733d7a8df6d390d59cc136e2c9d9cf4e808f3b6ab009beae68dd608222103211aec906e232ad96f2d52e849cf2798f4cf2d3d3463f608a7638054542defd653aefdffffff0198b309000000000017a9148c5b2b2f7352c6d417f71120b6cf184f1d0254348700000000"
}