{
  "txid": "b02aa2d6a8158f5f6d4e1e669ec566ea4079b87096f2bbc19bcf196d51eaff7b",
  "version": 2,
  "locktime": 0,
  "vin": [
    {
      "txid": "193504adb92b9619de112b7afaca171dd3d15d62f96313b572b6a79b723e6903",
      "vout": 1,
      "prevout": {
        "scriptpubkey": "0014177e57359ea3d71f98e672013f353698be02ed3e",
        "scriptpubkey_asm": "OP_0 OP_PUSHBYTES_20 177e57359ea3d71f98e672013f353698be02ed3e",
        "scriptpubkey_type": "v0_p2wpkh",
        "scriptpubkey_address": "bc1qzal9wdv750t3lx8xwgqn7dfknzlq9mf7a5dcwf",
        "value": 714184513
      },
      "scriptsig": "",
      "scriptsig_asm": "",
      "witness": [
        "304402201b3567301a2ec69977f68772690ab753d58c4630737eb8a032fd8d1ef01cb8ef02200c8d71ab4fb8744da573bf2281043754add9b859adb5eda000474ac5b91bf05e01",
        "02faf7bdbb7b3dc3f1dfa6ba0fdd50236678578205068e505e0cdf932f8e41d12a"
      ],
      "is_coinbase": false,
      "sequence": 4294967295
    }
  ],
  "vout": [
    {
      "scriptpubkey": "00142eaa2781c690043e9c3b63e18b59382ca6ba188f",
      "scriptpubkey_asm": "OP_0 OP_PUSHBYTES_20 2eaa2781c690043e9c3b63e18b59382ca6ba188f",
      "scriptpubkey_type": "v0_p2wpkh",
      "scriptpubkey_address": "bc1q964z0qwxjqzra8pmv0sckkfc9jnt5xy0n60h3v",
      "value": 3189740
    },
    {
      "scriptpubkey": "00149a1a98b850a0be6a402858faab93d9834cc9f967",
      "scriptpubkey_asm": "OP_0 OP_PUSHBYTES_20 9a1a98b850a0be6a402858faab93d9834cc9f967",
      "scriptpubkey_type": "v0_p2wpkh",
      "scriptpubkey_address": "bc1qngdf3wzs5zlx5spgtra2hy7esdxvn7t8h9fwcg",
      "value": 710991320
    }
  ],
  "size": 222,
  "weight": 561,
  "fee": 3453,
  "status": {
    "confirmed": true,
    "block_height": 834460,
    "block_hash": "00000000000000000000484a79b643b2524bbce82e5d8a442013fa5b8905ed98",
    "block_time": 1710307468
  },
  "hex": "0200000000010103693e729ba7b672b51363f9625dd1d31d17cafa7a2b11de19962bb9ad0435190100000000ffffffff02ecab3000000000001600142eaa2781c690043e9c3b63e18b59382ca6ba188fd8dd602a000000001600149a1a98b850a0be6a402858faab93d9834cc9f9670247304402201b3567301a2ec69977f68772690ab753d58c4630737eb8a032fd8d1ef01cb8ef02200c8d71ab4fb8744da573bf2281043754add9b859adb5eda000474ac5b91bf05e012102faf7bdbb7b3dc3f1dfa6ba0fdd50236678578205068e505e0cdf932f8e41d12a00000000"
}