{
  "txid": "b0593790d7ea4ed74ffff34905913da78345a4237a449839c6f8eced37fab135",
  "version": 2,
  "locktime": 0,
  "vin": [
    {
      "txid": "475c572604916081e22e45a244081fddf0b042d96946befcd245da5e3a379bb5",
      "vout": 0,
      "prevout": {
        "scriptpubkey": "00148baac517e9c11624bb81b161911d2696878ecb2d",
        "scriptpubkey_asm": "OP_0 OP_PUSHBYTES_20 8baac517e9c11624bb81b161911d2696878ecb2d",
        "scriptpubkey_type": "v0_p2wpkh",
        "scriptpubkey_address": "bc1q3w4v29lfcytzfwupk9sez8fxj6rcajedgadg95",
        "value": 285801
      },
      "scriptsig": "",
      "scriptsig_asm": "",
      "witness": [
        "30440220520aa03c03092b7c28f2e47957414b8875cb480175c8a5cc2f4d5e6379795cf302201a9b63bbd1de4f27ba6bf8aff445c4cbbaea8df402ce15a4fa7c65e4c62c158701",
        "03fc8dbcee17202656ff7f56519362327798b08ad8ebb2fcdc2c180b524ddc5ff8"
      ],
      "is_coinbase": false,
      "sequence": 4294967295
    }
  ],
  "vout": [
    {
      "scriptpubkey": "002058c6433be9d207b76a939326cd69914b37a0ddc195914c8f01a0cae06c9b6d40",
      "scriptpubkey_asm": "OP_0 OP_PUSHBYTES_32 58c6433be9d207b76a939326cd69914b37a0ddc195914c8f01a0cae06c9b6d40",
      "scriptpubkey_type": "v0_p2wsh",
      "scriptpubkey_address": "bc1qtrryxwlf6grmw65njvnv66v3fvm6phwpjkg5ercp5r9wqmymd4qqr6rfsy",
      "value": 284467
    }
  ],
  "size": 203,
  "weight": 485,
  "fee": 1334,
  "status": {
    "confirmed": true,
    "block_height": 834464,
    "block_hash": "0000000000000000000177a0869a911a2b65c9bdcd5a8bcb02b68f305bee848e",
    "block_time": 1710308296
  },
  "hex": "02000000000101b59b373a5eda45d2fcbe4669d942b0f0dd1f0844a2452ee28160910426575c470000000000ffffffff01335704000000000022002058c6433be9d207b76a939326cd69914b37a0ddc195914c8f01a0cae06c9b6d40024730440220520aa03c03092b7c28f2e47957414b8875cb480175c8a5cc2f4d5e6379795cf302201a9b63bbd1de4f27ba6bf8aff445c4cbbaea8df402ce15a4fa7c65e4c62c1587012103fc8dbcee17202656ff7f56519362327798b08ad8ebb2fcdc2c180b524ddc5ff800000000"
}