{
  "txid": "b08a6d13a5eecc52f35eff8c6cb90749db2ead4c8fe3221a8ffe7e5c01e92206",
  "version": 2,
  "locktime": 0,
  "vin": [
    {
      "txid": "c39ad38e27ff733e0858dbb9aae54b67eaf9a55155f7632061f14b70071f05b6",
      "vout": 1,
      "prevout": {
        "scriptpubkey": "5120c713d1e4d114eed130b500b614b08e2483d4e88d5bba6c81fee82ea90c330167",
        "scriptpubkey_asm": "OP_PUSHNUM_1 OP_PUSHBYTES_32 c713d1e4d114eed130b500b614b08e2483d4e88d5bba6c81fee82ea90c330167",
        "scriptpubkey_type": "v1_p2tr",
        "scriptpubkey_address": "bc1pcufarex3znhdzv94qzmpfvywyjpaf6ydtwaxeq07aqh2jrpnq9nssqd4uw",
        "value": 2715534
      },
      "scriptsig": "",
      "scriptsig_asm": "",
      "witness": [
        "a0f8cfc08cf5a85eac1e0f22bf68509929ad45448347b638e7148d227f3c74de54c2610561fbc0e56a5027554297796ae302b7d9eef1eea48223be8decf571d9"
      ],
      "is_coinbase": false,
      "sequence": 4294967293
    }
  ],
  "vout": [
    {
      "scriptpubkey": "51204f43195438fd0a9a079876d04f29a131507dc286bc5f7513b105e3bc6783661b",
      "scriptpubkey_asm": "OP_PUSHNUM_1 OP_PUSHBYTES_32 4f43195438fd0a9a079876d04f29a131507dc286bc5f7513b105e3bc6783661b",
      "scriptpubkey_type": "v1_p2tr",
      "scriptpubkey_address": "bc1pfap3j4pcl59f5pucwmgy72dpx9g8ms5xh30h2ya3qh3mceurvcds6jzq69",
      "value": 3318
    },
    {
      "scriptpubkey": "5120c713d1e4d114eed130b500b614b08e2483d4e88d5bba6c81fee82ea90c330167",
      "scriptpubkey_asm": "OP_PUSHNUM_1 OP_PUSHBYTES_32 c713d1e4d114eed130b500b614b08e2483d4e88d5bba6c81fee82ea90c330167",
      "scriptpubkey_type": "v1_p2tr",
      "scriptpubkey_address": "bc1pcufarex3znhdzv94qzmpfvywyjpaf6ydtwaxeq07aqh2jrpnq9nssqd4uw",
      "value": 2709444
    }
  ],
  "size": 205,
  "weight": 616,
  "fee": 2772,
  "status": {
    "confirmed": true,
    "block_height": 834638,
    "block_hash": "000000000000000000025f742c626208ac87e0b7d15054abb4a19ca2d735a54e",
    "block_time": 1710405325
  },
  "hex": "02000000000101b6051f07704bf1612063f75551a5f9ea674be5aab9db58083e73ff278ed39ac30100000000fdffffff02f60c0000000000002251204f43195438fd0a9a079876d04f29a131507dc286bc5f7513b105e3bc6783661bc457290000000000225120c713d1e4d114eed130b500b614b08e2483d4e88d5bba6c81fee82ea90c3301670140a0f8cfc08cf5a85eac1e0f22bf68509929ad45448347b638e7148d227f3c74de54c2610561fbc0e56a5027554297796ae302b7d9eef1eea48223be8decf571d900000000"
}