{
  "txid": "b08dd8e779274e37e0caabb9c62ac9e74555d41bcb7662cf2c411af64f1ea8d0",
  "version": 2,
  "locktime": 0,
  "vin": [
    {
      "txid": "7b667f2eb57da67f57de8d55ccbb6ff56e1084b21efed4d12bc3f422fa42edcd",
      "vout": 0,
      "prevout": {
        "scriptpubkey": "51207ab93f72fdf90927b26a1284acb81b47c962dbb0dffe89bb7e3cb6ddacd5d575",
        "scriptpubkey_asm": "OP_PUSHNUM_1 OP_PUSHBYTES_32 7ab93f72fdf90927b26a1284acb81b47c962dbb0dffe89bb7e3cb6ddacd5d575",
        "scriptpubkey_type": "v1_p2tr",
        "scriptpubkey_address": "bc1p02un7uhalyyj0vn2z2z2ewqmglyk9kasmllgnwm78jmdmtx4646sk3nd08",
        "value": 20127
      },
      "scriptsig": "",
      "scriptsig_asm": "",
      "witness": [
        "b630285b18ba7715d5774cb8c4229a1da1e355f4dd64e8818c64f4fba56c797f1d91ad32732a8da674bd9cdc379afb1ebd558c776784350c98b34462054b20b0",
        "20f2d00e1cce0b839d2e197679cac7a15152ec244338032c7767f72c1332d49a65ac0063036f7264010109696d6167652f706e67004d080289504e470d0a1a0a0000000d4948445200000118000001180803000000b05019be000000017352474200aece1ce90000000467414d410000b18f0bfc610500000144504c5445ff7b00ff8600faa702fbb700f99801fd8b16febc3bfd8807ffd400ffe000ffde00ffa323ffeb64ffe75dfaae2efedd56ffe013ffe00efee953ffe329ffe63bffe644ffde0afcc902f8ea74fbf070fad544ef6f00e9851ff7f081fdc745f07e10f17a07fdea67ef7000f18e04f4bb4befa800efa500f17401ee7901f3b819b1570a986f00a2691ca08840a0883f9e8840bf832a7326002e00003a150f3e221977390f74280031000040241a603723795c42a17957f2d196eece94f3b364edd096f4d3988c7052d2b582e7ca97f1d4a3eed19bd2a059e06c00250f0a1d1a16aca9acfdf6f2f7eae52d2d2e1806013a291be9d6c3000000fffbffe0dde1ffe4d1714328f2c87578674acdbba0f7e5caf1bf79e5c68bc7954fbb9b605e331fba9a5f825b38c7a86ec8a86de88c265f260b4c1e12aa4800561600350906370f0baf570b623415e0201d6b000000097048597300000ec300000ec301c76fa8640000052b49444154785eeddde97713551cc6f1a46dba9ad262379a52b1168b15175ac58dad5a560be2aec8aa288affff7ba7cd3393c9e97d66c67386ce04be9f97737f24b95f723849734b1a056dfcfbd1a755d8fea4545bcf36b4a1b210c6208c411883304d080206610cc2188431086310c6208c4118833006610cc2188431086310c6208c4118833006610cc2188431086310c6208c4118833006610cc2188431086310c6208c4118833006610cc2188431086310c6208c4118833006610cc2188431086344618ad186ca52fb308dcde79b453c7ffa4fa9fed68e726c3dfbab984d6de7e89ddfd2633d525be775f7f54518833006610cc218843108639cdb2a95369ea7c2302b053d7e58aa3fb5f31c1586b9ffe051051e3cd6ce73541aa6128431086310c6208c4118833006610cc2188431086310c6208c4118833006610cc2188431086310c6208c4118833006610cc2188431086310c6208c5134ccd33f8a59d176ca53f3300f359fe7beb6539eba8779a43f90833006610cc2188431086310c6208cf122c2e884e9911a8030d79efc5e8127b50f3376ef62152e7ca19de7208c4118833006610cc2188431086310c6a8ee479b750ff3e36fc5dc1bd386ca52fb30172f17f2d3ab17a610c2188431086310c6208c71e4612e64d290a1a1a02bf50fb3fb6b86dd9d9f33ecdcd558d02f9a0afb4c3bcf515d98d60fdf65f8fee6b7196eef692ce896a6c2ee68e739086310c6208c4118833006610cc218843108634461f423ba1caf5e984bc5ac6b3fa5a97b98ca8ecc13c6208c4118833006610cc21884315abb7b19ee7e732776e3e621b7f7bece704b536137b4f31cd58569b4325d4f5cfbf2b0abbb19bed24d080250d88e769ea3c230455dd2071f697a07676828a8f0c727031046db2d47e10fdc08134618833006618c410873597b2a05cf18e3250a73f6f352153ded50ff301feb4bee4ab2ad9de7188830fabebe7210c6208c4118833006610cc21884315ea630a5dad697dce539a7bbafaf0f3f78bf44ef9d7db798eabe95b8a8d5d74a353751cca2eebebeca0e3359c8c4b0eebebe086310c6208c4118833006618c244cfb7880d6d282736d2da6c3cc042c686d90c2cc2d1c361b2833afb53ef35a4c859939de3eec752d0e54183de6b4855018adf50985499e452984214c17610873803011c2f4234c58b3aa304d3d807a195b5d8e250f7ff4adc470221066554391d39a1a1e5ed6622accb84ece46de492c6a71727c3156ab4463c7b48f94d14eecccdba76381b9d5358da5e70261163734d659ebcd25611213e3f50fb3d6951b269613e64c7c8399612609b38f3084e9220c61ba084398038431c26162796134969e0b8529f602affe618eadc7526f0e32e7d6351409bce35ad050444391e109adf6d43ecc8993b1374fe9afba732a736ee90d8d75d6026166963476726945639dcec087e9fedb901fa63bb7961b4663848910661f610873b00fc2440813c90d23b961627961628318a6778a617924913937afa148e095efcc89a5d8f4546c105ff9f6b6d4f3c23e254821cc3ec210a68b308439409808612284315261749cb2dd0e9dda5c089cbc0c9fda4cced4627b6e3c361b3cb5a9c5715589d435ccb44e24b4a6f57ab6cf9416538273c9ad8c356323b33adb9b36a4c5e690b2d437cc942e35a67421adddd2624a68ae772b3dcdd4b32231a4c5c6882e0c4098695d48234c843011c2188431086310c6208c4118833006610cc2188431086310c6208c41188330c6d184d1ffba94960aa32b35fb7da5d144b2f5962ef4097c835a702e10b0a95f7eeb33a2c5d4ea509dc20000000000000000000000000000000000000000f0ff341aff017baeb5d912290fd90000000049454e44ae426082680063036f726401011e6170706c69636174696f6e2f6a736f6e3b636861727365743d7574662d38004d69017b2270223a22766f7264222c2276223a312c227479223a22696e7363222c22636f6c223a2261643262353365623665333264663466633139386133626262306662663638666637336432666432323832323163313136373630306533316337613163343836222c22696964223a22557073696465646f776e204e6f64654d6f6e6b6573222c227075626c223a2231455337623370636a527a4667796969714c7278484b546e43686535364c4a485937222c226e6f6e6365223a323733302c226d696e746572223a2262633170767967736b7579687139397372703338666834656e30777134736b6e327a716c6578686c7836757077326871767068676d797871617133757134222c22736967223a2247384d58397262313330614746436a686443503434645447636b4274316569556f36704d6c416e373869717a5958386f386f6c617031344650394f38417377334c6253433748426272464868452f4d7a7276654a536e453d227d68",
        "c1f2d00e1cce0b839d2e197679cac7a15152ec244338032c7767f72c1332d49a65675a92934efa5e4869b2432a3e00abfc6819367af43949c2edc693b32d23ac05"
      ],
      "is_coinbase": false,
      "sequence": 4294967293
    }
  ],
  "vout": [
    {
      "scriptpubkey": "512061110b7097014b0186274deb99bdc0ac2d35081fc9aff36b8172ae0606e8d90c",
      "scriptpubkey_asm": "OP_PUSHNUM_1 OP_PUSHBYTES_32 61110b7097014b0186274deb99bdc0ac2d35081fc9aff36b8172ae0606e8d90c",
      "scriptpubkey_type": "v1_p2tr",
      "scriptpubkey_address": "bc1pvygskuyhq99srp38fh4en0wq4skn2zqlexhlx6upw2hqvphgmyxqaq3uq4",
      "value": 1000
    },
    {
      "scriptpubkey": "5120f62171bf126320eed697da59179bb0a31c00c0460a1a69c591c3c0d0f8f5038f",
      "scriptpubkey_asm": "OP_PUSHNUM_1 OP_PUSHBYTES_32 f62171bf126320eed697da59179bb0a31c00c0460a1a69c591c3c0d0f8f5038f",
      "scriptpubkey_type": "v1_p2tr",
      "scriptpubkey_address": "bc1p7cshr0cjvvswa45hmfv30xas5vwqpszxpgdxn3v3c0qdp784qw8szjtge2",
      "value": 7643
    },
    {
      "scriptpubkey": "51200705a5767db892e98125775049b1a13dd9ecdc8aea0df413cabbee683e871012",
      "scriptpubkey_asm": "OP_PUSHNUM_1 OP_PUSHBYTES_32 0705a5767db892e98125775049b1a13dd9ecdc8aea0df413cabbee683e871012",
      "scriptpubkey_type": "v1_p2tr",
      "scriptpubkey_address": "bc1pquz62anahzfwnqf9wagynvdp8hv7ehy2agxlgy72h0hxs058zqfqk8ksyq",
      "value": 2970
    }
  ],
  "size": 2553,
  "weight": 3093,
  "fee": 8514,
  "status": {
    "confirmed": true,
    "block_height": 834464,
    "block_hash": "0000000000000000000177a0869a911a2b65c9bdcd5a8bcb02b68f305bee848e",
    "block_time": 1710308296
  },
  "hex": "02000000000101cded42fa22f4c32bd1d4fe1eb284106ef56fbbcc558dde577fa67db52e7f667b0000000000fdffffff03e80300000000000022512061110b7097014b0186274deb99bdc0ac2d35081fc9aff36b8172ae0606e8d90cdb1d000000000000225120f62171bf126320eed697da59179bb0a31c00c0460a1a69c591c3c0d0f8f5038f9a0b0000000000002251200705a5767db892e98125775049b1a13dd9ecdc8aea0df413cabbee683e8710120340b630285b18ba7715d5774cb8c4229a1da1e355f4dd64e8818c64f4fba56c797f1d91ad32732a8da674bd9cdc379afb1ebd558c776784350c98b34462054b20b0fdbc0820f2d00e1cce0b839d2e197679cac7a15152ec244338032c7767f72c1332d49a65ac0063036f7264010109696d6167652f706e67004d080289504e470d0a1a0a0000000d4948445200000118000001180803000000b05019be000000017352474200aece1ce90000000467414d410000b18f0bfc610500000144504c5445ff7b00ff8600faa702fbb700f99801fd8b16febc3bfd8807ffd400ffe000ffde00ffa323ffeb64ffe75dfaae2efedd56ffe013ffe00efee953ffe329ffe63bffe644ffde0afcc902f8ea74fbf070fad544ef6f00e9851ff7f081fdc745f07e10f17a07fdea67ef7000f18e04f4bb4befa800efa500f17401ee7901f3b819b1570a986f00a2691ca08840a0883f9e8840bf832a7326002e00003a150f3e221977390f74280031000040241a603723795c42a17957f2d196eece94f3b364edd096f4d3988c7052d2b582e7ca97f1d4a3eed19bd2a059e06c00250f0a1d1a16aca9acfdf6f2f7eae52d2d2e1806013a291be9d6c3000000fffbffe0dde1ffe4d1714328f2c87578674acdbba0f7e5caf1bf79e5c68bc7954fbb9b605e331fba9a5f825b38c7a86ec8a86de88c265f260b4c1e12aa4800561600350906370f0baf570b623415e0201d6b000000097048597300000ec300000ec301c76fa8640000052b49444154785eeddde97713551cc6f1a46dba9ad262379a52b1168b15175ac58dad5a560be2aec8aa288affff7ba7cd3393c9e97d66c67386ce04be9f97737f24b95f723849734b1a056dfcfbd1a755d8fea4545bcf36b4a1b210c6208c411883304d080206610cc2188431086310c6208c4118833006610cc2188431086310c6208c4118833006610cc2188431086310c6208c4118833006610cc2188431086310c6208c4118833006610cc2188431086310c6208c4118833006610cc2188431086344618ad186ca52fb308dcde79b453c7ffa4fa9fed68e726c3dfbab984d6de7e89ddfd2633d525be775f7f54518833006610cc218843108639cdb2a95369ea7c2302b053d7e58aa3fb5f31c1586b9ffe051051e3cd6ce73541aa6128431086310c6208c4118833006610cc2188431086310c6208c4118833006610cc2188431086310c6208c4118833006610cc2188431086310c6208c5134ccd33f8a59d176ca53f3300f359fe7beb6539eba8779a43f90833006610cc2188431086310c6208cf122c2e884e9911a8030d79efc5e8127b50f3376ef62152e7ca19de7208c4118833006610cc2188431086310c6a8ee479b750ff3e36fc5dc1bd386ca52fb30172f17f2d3ab17a610c2188431086310c6208c71e4612e64d290a1a1a02bf50fb3fb6b86dd9d9f33ecdcd558d02f9a0afb4c3bcf515d98d60fdf65f8fee6b7196eef692ce896a6c2ee68e739086310c6208c4118833006610cc218843108634461f423ba1caf5e984bc5ac6b3fa5a97b98ca8ecc13c6208c4118833006610cc21884315abb7b19ee7e732776e3e621b7f7bece704b536137b4f31cd58569b4325d4f5cfbf2b0abbb19bed24d080250d88e769ea3c230455dd2071f697a07676828a8f0c727031046db2d47e10fdc08134618833006618c410873597b2a05cf18e3250a73f6f352153ded50ff301feb4bee4ab2ad9de7188830fabebe7210c6208c4118833006610cc21884315ea630a5dad697dce539a7bbafaf0f3f78bf44ef9d7db798eabe95b8a8d5d74a353751cca2eebebeca0e3359c8c4b0eebebe086310c6208c4118833006618c244cfb7880d6d282736d2da6c3cc042c686d90c2cc2d1c361b2833afb53ef35a4c859939de3eec752d0e54183de6b4855018adf50985499e452984214c17610873803011c2f4234c58b3aa304d3d807a195b5d8e250f7ff4adc470221066554391d39a1a1e5ed6622accb84ece46de492c6a71727c3156ab4463c7b48f94d14eecccdba76381b9d5358da5e70261163734d659ebcd25611213e3f50fb3d6951b269613e64c7c8399612609b38f3084e9220c61ba084398038431c26162796134969e0b8529f602affe618eadc7526f0e32e7d6351409bce35ad050444391e109adf6d43ecc8993b1374fe9afba732a736ee90d8d75d6026166963476726945639dcec087e9fedb901fa63bb7961b4663848910661f610873b00fc2440813c90d23b961627961628318a6778a617924913937afa148e095efcc89a5d8f4546c105ff9f6b6d4f3c23e254821cc3ec210a68b308439409808612284315261749cb2dd0e9dda5c089cbc0c9fda4cced4627b6e3c361b3cb5a9c5715589d435ccb44e24b4a6f57ab6cf9416538273c9ad8c356323b33adb9b36a4c5e690b2d437cc942e35a67421adddd2624a68ae772b3dcdd4b32231a4c5c6882e0c4098695d48234c843011c2188431086310c6208c4118833006610cc2188431086310c6208c41188330c6d184d1ffba94960aa32b35fb7da5d144b2f5962ef4097c835a702e10b0a95f7eeb33a2c5d4ea509dc20000000000000000000000000000000000000000f0ff341aff017baeb5d912290fd90000000049454e44ae426082680063036f726401011e6170706c69636174696f6e2f6a736f6e3b636861727365743d7574662d38004d69017b2270223a22766f7264222c2276223a312c227479223a22696e7363222c22636f6c223a2261643262353365623665333264663466633139386133626262306662663638666637336432666432323832323163313136373630306533316337613163343836222c22696964223a22557073696465646f776e204e6f64654d6f6e6b6573222c227075626c223a2231455337623370636a527a4667796969714c7278484b546e43686535364c4a485937222c226e6f6e6365223a323733302c226d696e746572223a2262633170767967736b7579687139397372703338666834656e30777134736b6e327a716c6578686c7836757077326871767068676d797871617133757134222c22736967223a2247384d58397262313330614746436a686443503434645447636b4274316569556f36704d6c416e373869717a5958386f386f6c617031344650394f38417377334c6253433748426272464868452f4d7a7276654a536e453d227d6841c1f2d00e1cce0b839d2e197679cac7a15152ec244338032c7767f72c1332d49a65675a92934efa5e4869b2432a3e00abfc6819367af43949c2edc693b32d23ac0500000000"
}