{
  "txid": "b09703aa3602aebfafd0a9a26f8e961e5ab02fea46b8763ccb8777fd574c3870",
  "version": 2,
  "locktime": 0,
  "vin": [
    {
      "txid": "4fac49f0ef846f5f3365b6e8e7aaad05e0d62d92d29229c751a7789703a559e5",
      "vout": 0,
      "prevout": {
        "scriptpubkey": "5120a15a0b028ecaa3c1ca7b9d610092adef8b7703e75a3bd7735d6cacf2c87fc94e",
        "scriptpubkey_asm": "OP_PUSHNUM_1 OP_PUSHBYTES_32 a15a0b028ecaa3c1ca7b9d610092adef8b7703e75a3bd7735d6cacf2c87fc94e",
        "scriptpubkey_type": "v1_p2tr",
        "scriptpubkey_address": "bc1p59dqkq5we23urjnmn4sspy4da79hwql8tgaawu6adjk09jrle98q963cww",
        "value": 546
      },
      "scriptsig": "",
      "scriptsig_asm": "",
      "witness": [
        "43610f960ffd6fdb4d8278758422ac8525bf9079a6066360c6169e2d3f1931014a712313d905835c9b8242043a0251b2cf3f1308d9c33548a089021460efff94"
      ],
      "is_coinbase": false,
      "sequence": 4294967293
    },
    {
      "txid": "c300137ec88c0bcc42558bb00cd377048688942d7f71e0c064a3d9b1751ff61b",
      "vout": 1,
      "prevout": {
        "scriptpubkey": "51202b3edf8344567a402fc2ad439225a14c1f2c63114f84638101aa2084eda5ad93",
        "scriptpubkey_asm": "OP_PUSHNUM_1 OP_PUSHBYTES_32 2b3edf8344567a402fc2ad439225a14c1f2c63114f84638101aa2084eda5ad93",
        "scriptpubkey_type": "v1_p2tr",
        "scriptpubkey_address": "bc1p9vldlq6y2eayqt7z44peyfdpfs0jccc3f7zx8qgp4gsgfmd94kfslu5nqr",
        "value": 45851652
      },
      "scriptsig": "",
      "scriptsig_asm": "",
      "witness": [
        "82ee2b1f3cea340cfc04191bd7554026357e78b93b54a6099a431bc71e03e7eb6d5c1cfff0dae5ee92cc9371bf1f7fdcac2654c8425e88e852f7ac8e29f97370"
      ],
      "is_coinbase": false,
      "sequence": 4294967293
    }
  ],
  "vout": [
    {
      "scriptpubkey": "5120703aeb90b584eb5ff8de2f04f0c47789a0e45e622adf56d0b9febd0744ed13cd",
      "scriptpubkey_asm": "OP_PUSHNUM_1 OP_PUSHBYTES_32 703aeb90b584eb5ff8de2f04f0c47789a0e45e622adf56d0b9febd0744ed13cd",
      "scriptpubkey_type": "v1_p2tr",
      "scriptpubkey_address": "bc1pwqawhy94sn44l7x79uz0p3rh3xswghnz9t04d59el67sw38dz0xsha7s7f",
      "value": 546
    },
    {
      "scriptpubkey": "51202b3edf8344567a402fc2ad439225a14c1f2c63114f84638101aa2084eda5ad93",
      "scriptpubkey_asm": "OP_PUSHNUM_1 OP_PUSHBYTES_32 2b3edf8344567a402fc2ad439225a14c1f2c63114f84638101aa2084eda5ad93",
      "scriptpubkey_type": "v1_p2tr",
      "scriptpubkey_address": "bc1p9vldlq6y2eayqt7z44peyfdpfs0jccc3f7zx8qgp4gsgfmd94kfslu5nqr",
      "value": 45844164
    }
  ],
  "size": 312,
  "weight": 846,
  "fee": 7488,
  "status": {
    "confirmed": true,
    "block_height": 834638,
    "block_hash": "000000000000000000025f742c626208ac87e0b7d15054abb4a19ca2d735a54e",
    "block_time": 1710405325
  },
  "hex": "02000000000102e559a5039778a751c72992d2922dd6e005adaae7e8b665335f6f84eff049ac4f0000000000fdffffff1bf61f75b1d9a364c0e0717f2d9488860477d30cb08b5542cc0b8cc87e1300c30100000000fdffffff022202000000000000225120703aeb90b584eb5ff8de2f04f0c47789a0e45e622adf56d0b9febd0744ed13cdc486bb02000000002251202b3edf8344567a402fc2ad439225a14c1f2c63114f84638101aa2084eda5ad93014043610f960ffd6fdb4d8278758422ac8525bf9079a6066360c6169e2d3f1931014a712313d905835c9b8242043a0251b2cf3f1308d9c33548a089021460efff94014082ee2b1f3cea340cfc04191bd7554026357e78b93b54a6099a431bc71e03e7eb6d5c1cfff0dae5ee92cc9371bf1f7fdcac2654c8425e88e852f7ac8e29f9737000000000"
}