{
  "txid": "b09e35107e2ba0e49bec515675b144d8870aa7f3e304384ef1356d0aadba40d0",
  "version": 1,
  "locktime": 0,
  "vin": [
    {
      "txid": "d4f3284d2f54e9da47aa685e162e1091bd888950c7a68745a5287fa4408f7dc3",
      "vout": 0,
      "prevout": {
        "scriptpubkey": "76a914f1be519879eafded1ecdbd9e894de4901b41a2d888ac",
        "scriptpubkey_asm": "OP_DUP OP_HASH160 OP_PUSHBYTES_20 f1be519879eafded1ecdbd9e894de4901b41a2d8 OP_EQUALVERIFY OP_CHECKSIG",
        "scriptpubkey_type": "p2pkh",
        "scriptpubkey_address": "1P3DqotquaG88Fy3HhbTb7VXRodzzjpDt6",
        "value": 1159204
      },
      "scriptsig": "4730440220511f6d4bf65eda351bbab8fb963c2270ac145edaa1e962ebe27f834b92fc3276022042485fa1ab39877e7920d2da0d47aa1b53ae4aa94115e5e0c4602242655e6450012102a81b965c7e59375ffe0f13a4cf0697c01397fd0ab32206aebfffd0e66c2b579a",
      "scriptsig_asm": "OP_PUSHBYTES_71 30440220511f6d4bf65eda351bbab8fb963c2270ac145edaa1e962ebe27f834b92fc3276022042485fa1ab39877e7920d2da0d47aa1b53ae4aa94115e5e0c4602242655e645001 OP_PUSHBYTES_33 02a81b965c7e59375ffe0f13a4cf0697c01397fd0ab32206aebfffd0e66c2b579a",
      "is_coinbase": false,
      "sequence": 4294967295
    }
  ],
  "vout": [
    {
      "scriptpubkey": "76a9146c4796d77e043a31b3ed66c9187d43afb27590aa88ac",
      "scriptpubkey_asm": "OP_DUP OP_HASH160 OP_PUSHBYTES_20 6c4796d77e043a31b3ed66c9187d43afb27590aa OP_EQUALVERIFY OP_CHECKSIG",
      "scriptpubkey_type": "p2pkh",
      "scriptpubkey_address": "1AsXjpotzQRPb3cxiE2knL7pRvWEEzQqHx",
      "value": 68136
    },
    {
      "scriptpubkey": "76a914f1be519879eafded1ecdbd9e894de4901b41a2d888ac",
      "scriptpubkey_asm": "OP_DUP OP_HASH160 OP_PUSHBYTES_20 f1be519879eafded1ecdbd9e894de4901b41a2d8 OP_EQUALVERIFY OP_CHECKSIG",
      "scriptpubkey_type": "p2pkh",
      "scriptpubkey_address": "1P3DqotquaG88Fy3HhbTb7VXRodzzjpDt6",
      "value": 1086548
    }
  ],
  "size": 225,
  "weight": 900,
  "fee": 4520,
  "status": {
    "confirmed": true,
    "block_height": 834638,
    "block_hash": "000000000000000000025f742c626208ac87e0b7d15054abb4a19ca2d735a54e",
    "block_time": 1710405325
  },
  "hex": "0100000001c37d8f40a47f28a54587a6c7508988bd91102e165e68aa47dae9542f4d28f3d4000000006a4730440220511f6d4bf65eda351bbab8fb963c2270ac145edaa1e962ebe27f834b92fc3276022042485fa1ab39877e7920d2da0d47aa1b53ae4aa94115e5e0c4602242655e6450012102a81b965c7e59375ffe0f13a4cf0697c01397fd0ab32206aebfffd0e66c2b579affffffff02280a0100000000001976a9146c4796d77e043a31b3ed66c9187d43afb27590aa88ac54941000000000001976a914f1be519879eafded1ecdbd9e894de4901b41a2d888ac00000000"
}