{
  "txid": "b0b7bd49d319d08330ee5633b0950cb7989738060ec629d4449e31de66dec814",
  "version": 2,
  "locktime": 0,
  "vin": [
    {
      "txid": "5752114a734ec998f201654ee9b530fafac437f5a475bfea86df856fb24e2d8c",
      "vout": 0,
      "prevout": {
        "scriptpubkey": "0014f094b1c590362baaec13e91e28d9c566e369eacd",
        "scriptpubkey_asm": "OP_0 OP_PUSHBYTES_20 f094b1c590362baaec13e91e28d9c566e369eacd",
        "scriptpubkey_type": "v0_p2wpkh",
        "scriptpubkey_address": "bc1q7z2tr3vsxc464mqnay0z3kw9vm3kn6kdjzh0lw",
        "value": 4430847
      },
      "scriptsig": "",
      "scriptsig_asm": "",
      "witness": [
        "304402200f80111a5d109e5358c85608537e9a9a8bb91cfe944d3d0471b2df962ad02769022039ba475e37c868bc8ae0f6b8d4cdb195cc339954836ed0784a2c822017a1d39101",
        "02c91f4e922fa6cf58e94fbdb9c10207233c3c267a705b04ea9a65d00f82f8fff7"
      ],
      "is_coinbase": false,
      "sequence": 0
    },
    {
      "txid": "beb012a0192955bf6bffe947a038e4fa460234b27f3afc972d2927101158f19d",
      "vout": 2,
      "prevout": {
        "scriptpubkey": "00148ba98774cb758ce92bb206e18aaf32ed3b82d44b",
        "scriptpubkey_asm": "OP_0 OP_PUSHBYTES_20 8ba98774cb758ce92bb206e18aaf32ed3b82d44b",
        "scriptpubkey_type": "v0_p2wpkh",
        "scriptpubkey_address": "bc1q3w5cwaxtwkxwj2ajqmsc4teja5ac94ztugfjzu",
        "value": 6796050
      },
      "scriptsig": "",
      "scriptsig_asm": "",
      "witness": [
        "3045022100b20f7692bd67a6f38c2011205d52ae74e2865989a1ff48c895fa1c4e591e759d0220349e824d2605bd1fdde467a7b9125c8bfdc3dae9dfd40f8a7ba26ea5db8ffa9101",
        "02092400de38efecdf66cb97fc390f19ff9b2c0b1eb06ef8fb4d469ba77c58d09d"
      ],
      "is_coinbase": false,
      "sequence": 0
    }
  ],
  "vout": [
    {
      "scriptpubkey": "0014bf6f7035cc202baba035c78e55cb5cc3191f25b0",
      "scriptpubkey_asm": "OP_0 OP_PUSHBYTES_20 bf6f7035cc202baba035c78e55cb5cc3191f25b0",
      "scriptpubkey_type": "v0_p2wpkh",
      "scriptpubkey_address": "bc1qhahhqdwvyq46hgp4c789tj6ucvv37fdsua8cy8",
      "value": 10000000
    },
    {
      "scriptpubkey": "00145f852a2d3d2992f66d6bc86094919f3759925b7d",
      "scriptpubkey_asm": "OP_0 OP_PUSHBYTES_20 5f852a2d3d2992f66d6bc86094919f3759925b7d",
      "scriptpubkey_type": "v0_p2wpkh",
      "scriptpubkey_address": "bc1qt7zj5tfa9xf0vmttepsffyvlxaveykmacw3ynz",
      "value": 1223171
    }
  ],
  "size": 371,
  "weight": 833,
  "fee": 3726,
  "status": {
    "confirmed": true,
    "block_height": 834638,
    "block_hash": "000000000000000000025f742c626208ac87e0b7d15054abb4a19ca2d735a54e",
    "block_time": 1710405325
  },
  "hex": "020000000001028c2d4eb26f85df86eabf75a4f537c4fafa30b5e94e6501f298c94e734a1152570000000000000000009df158111027292d97fc3a7fb2340246fae438a047e9ff6bbf552919a012b0be020000000000000000028096980000000000160014bf6f7035cc202baba035c78e55cb5cc3191f25b003aa1200000000001600145f852a2d3d2992f66d6bc86094919f3759925b7d0247304402200f80111a5d109e5358c85608537e9a9a8bb91cfe944d3d0471b2df962ad02769022039ba475e37c868bc8ae0f6b8d4cdb195cc339954836ed0784a2c822017a1d391012102c91f4e922fa6cf58e94fbdb9c10207233c3c267a705b04ea9a65d00f82f8fff702483045022100b20f7692bd67a6f38c2011205d52ae74e2865989a1ff48c895fa1c4e591e759d0220349e824d2605bd1fdde467a7b9125c8bfdc3dae9dfd40f8a7ba26ea5db8ffa91012102092400de38efecdf66cb97fc390f19ff9b2c0b1eb06ef8fb4d469ba77c58d09d00000000"
}