{
  "txid": "b0c051e09b83e3b3c3d7dccbcc23b57fd1a98f6714265d5dec0a5dc74af8a8ac",
  "version": 2,
  "locktime": 0,
  "vin": [
    {
      "txid": "e2f9c3cbe1acb4e1981afb98acf2804ea9276ef16029b39a39109051f350ffb7",
      "vout": 1,
      "prevout": {
        "scriptpubkey": "512063041712f9b7c286c72f879d3c8a57735ba0d4caca54a5eb55cb760da5f330d9",
        "scriptpubkey_asm": "OP_PUSHNUM_1 OP_PUSHBYTES_32 63041712f9b7c286c72f879d3c8a57735ba0d4caca54a5eb55cb760da5f330d9",
        "scriptpubkey_type": "v1_p2tr",
        "scriptpubkey_address": "bc1pvvzpwyheklpgd3e0s7wnezjhwdd6p4x2ef22t664edmqmf0nxrvssz53ls",
        "value": 21852
      },
      "scriptsig": "",
      "scriptsig_asm": "",
      "witness": [
        "8088d48d15c9b8502b6b5d1523c61da03878a91648183c27babb58e963a067e5a364dd3754a98aa09a1f0ff52cb598953dc3682e0ba1f9598f1925df262b1fdc"
      ],
      "is_coinbase": false,
      "sequence": 4294967293
    }
  ],
  "vout": [
    {
      "scriptpubkey": "51206784428fa19bd44ec64d9608927a2d61daa1c149f62d0f0f86a3e554d1b3f7f4",
      "scriptpubkey_asm": "OP_PUSHNUM_1 OP_PUSHBYTES_32 6784428fa19bd44ec64d9608927a2d61daa1c149f62d0f0f86a3e554d1b3f7f4",
      "scriptpubkey_type": "v1_p2tr",
      "scriptpubkey_address": "bc1pv7zy9rapn02ya3jdjcyfy73dv8d2rs2f7cks7rux50j4f5dn7l6qlspx48",
      "value": 2946
    },
    {
      "scriptpubkey": "5120bc5f069eb2b0402c0e54c7d69c98f667178b516adcdc1cc353841fede2f97216",
      "scriptpubkey_asm": "OP_PUSHNUM_1 OP_PUSHBYTES_32 bc5f069eb2b0402c0e54c7d69c98f667178b516adcdc1cc353841fede2f97216",
      "scriptpubkey_type": "v1_p2tr",
      "scriptpubkey_address": "bc1ph30sd84jkpqzcrj5cltfex8kvutck5t2mnwpes6nss07mchewgtqznd2s2",
      "value": 16442
    }
  ],
  "size": 205,
  "weight": 616,
  "fee": 2464,
  "status": {
    "confirmed": true,
    "block_height": 834460,
    "block_hash": "00000000000000000000484a79b643b2524bbce82e5d8a442013fa5b8905ed98",
    "block_time": 1710307468
  },
  "hex": "02000000000101b7ff50f3519010399ab32960f16e27a94e80f2ac98fb1a98e1b4ace1cbc3f9e20100000000fdffffff02820b0000000000002251206784428fa19bd44ec64d9608927a2d61daa1c149f62d0f0f86a3e554d1b3f7f43a40000000000000225120bc5f069eb2b0402c0e54c7d69c98f667178b516adcdc1cc353841fede2f9721601408088d48d15c9b8502b6b5d1523c61da03878a91648183c27babb58e963a067e5a364dd3754a98aa09a1f0ff52cb598953dc3682e0ba1f9598f1925df262b1fdc00000000"
}