{
  "txid": "b0d314667701e86f4c84b8eae07fa37871870b27a9121758785ffa1531af4939",
  "version": 1,
  "locktime": 0,
  "vin": [
    {
      "txid": "184f45c5e5ed3f55c008a6472350bc5feae46a6516186a4912b38c1e28b8001d",
      "vout": 2892,
      "prevout": {
        "scriptpubkey": "001472e31409f38fca988aa59d49017980272b34eab8",
        "scriptpubkey_asm": "OP_0 OP_PUSHBYTES_20 72e31409f38fca988aa59d49017980272b34eab8",
        "scriptpubkey_type": "v0_p2wpkh",
        "scriptpubkey_address": "bc1qwt33gz0n3l9f3z49n4ysz7vqyu4nf64c8vqzw4",
        "value": 505800
      },
      "scriptsig": "",
      "scriptsig_asm": "",
      "witness": [
        "30440220278000ebb0d307677a94a34f6e0b9e55374f30207440d8c3f358e8bb2b4d50c502202f1b51b57c5b94d36b1d98d85929e8fe53d0a0461282c5b3297393c5ac6492ca01",
        "03bae1205b858cccf782e1f87e97c7f0af66f8175c83b610da996909b7530f94f8"
      ],
      "is_coinbase": false,
      "sequence": 4294967295
    },
    {
      "txid": "41d04473ce61ab95cf28c60679a25cc40be04de99b6b9a7f72a27ebb237d489b",
      "vout": 2698,
      "prevout": {
        "scriptpubkey": "001472e31409f38fca988aa59d49017980272b34eab8",
        "scriptpubkey_asm": "OP_0 OP_PUSHBYTES_20 72e31409f38fca988aa59d49017980272b34eab8",
        "scriptpubkey_type": "v0_p2wpkh",
        "scriptpubkey_address": "bc1qwt33gz0n3l9f3z49n4ysz7vqyu4nf64c8vqzw4",
        "value": 507865
      },
      "scriptsig": "",
      "scriptsig_asm": "",
      "witness": [
        "30440220621a7d9111e45c9755fd81808ac1dd9b0b28ed180c2b0f996766c7b741f9fcb00220069053a011bd3f43094b398c1b09bce4a12a48c288ef6354bccf028c6072889201",
        "03bae1205b858cccf782e1f87e97c7f0af66f8175c83b610da996909b7530f94f8"
      ],
      "is_coinbase": false,
      "sequence": 4294967295
    },
    {
      "txid": "100e381d1c777371d9620674d31b6916525437b545ed65c927a29c06b82c147c",
      "vout": 2484,
      "prevout": {
        "scriptpubkey": "001472e31409f38fca988aa59d49017980272b34eab8",
        "scriptpubkey_asm": "OP_0 OP_PUSHBYTES_20 72e31409f38fca988aa59d49017980272b34eab8",
        "scriptpubkey_type": "v0_p2wpkh",
        "scriptpubkey_address": "bc1qwt33gz0n3l9f3z49n4ysz7vqyu4nf64c8vqzw4",
        "value": 512896
      },
      "scriptsig": "",
      "scriptsig_asm": "",
      "witness": [
        "3044022041b23ae9cf1a6000e6ebac344a925d0b63ba58968ef7d8130f347aa3ce1a878102202b6baf339e700d1cf47fa30f3c0f67213f905b654189e9818619672b9e4cf78301",
        "03bae1205b858cccf782e1f87e97c7f0af66f8175c83b610da996909b7530f94f8"
      ],
      "is_coinbase": false,
      "sequence": 4294967295
    },
    {
      "txid": "6f268ce8b5cbb843ead5e5178f17d1bca28219b8559af4ce7c3fa4723f1f657a",
      "vout": 2659,
      "prevout": {
        "scriptpubkey": "001472e31409f38fca988aa59d49017980272b34eab8",
        "scriptpubkey_asm": "OP_0 OP_PUSHBYTES_20 72e31409f38fca988aa59d49017980272b34eab8",
        "scriptpubkey_type": "v0_p2wpkh",
        "scriptpubkey_address": "bc1qwt33gz0n3l9f3z49n4ysz7vqyu4nf64c8vqzw4",
        "value": 514119
      },
      "scriptsig": "",
      "scriptsig_asm": "",
      "witness": [
        "3044022002f17767f24639658231931a3ddada44f761e202de06e8bc9c0aa05d2df90de5022060e3cea5c549fb10721c53c1b1a200224de925bd8f3c5206bf424876b229d00901",
        "03bae1205b858cccf782e1f87e97c7f0af66f8175c83b610da996909b7530f94f8"
      ],
      "is_coinbase": false,
      "sequence": 4294967295
    }
  ],
  "vout": [
    {
      "scriptpubkey": "0014710b5d7821c85e23c1bb13693c44cb5bc88e3caa",
      "scriptpubkey_asm": "OP_0 OP_PUSHBYTES_20 710b5d7821c85e23c1bb13693c44cb5bc88e3caa",
      "scriptpubkey_type": "v0_p2wpkh",
      "scriptpubkey_address": "bc1qwy9467ppep0z8sdmzd5nc3xtt0ygu092tmuz5l",
      "value": 1600000
    },
    {
      "scriptpubkey": "001472e31409f38fca988aa59d49017980272b34eab8",
      "scriptpubkey_asm": "OP_0 OP_PUSHBYTES_20 72e31409f38fca988aa59d49017980272b34eab8",
      "scriptpubkey_type": "v0_p2wpkh",
      "scriptpubkey_address": "bc1qwt33gz0n3l9f3z49n4ysz7vqyu4nf64c8vqzw4",
      "value": 431365
    },
    {
      "scriptpubkey": "6a453d3a4554482e555344542d4543373a3078303739334662343333414144613436386463313438384366613632443934323536633233303434623a302f312f303a74693a3730",
      "scriptpubkey_asm": "OP_RETURN OP_PUSHBYTES_69 3d3a4554482e555344542d4543373a3078303739334662343333414144613436386463313438384366613632443934323536633233303434623a302f312f303a74693a3730",
      "scriptpubkey_type": "op_return",
      "value": 0
    }
  ],
  "size": 746,
  "weight": 1694,
  "fee": 9315,
  "status": {
    "confirmed": true,
    "block_height": 834638,
    "block_hash": "000000000000000000025f742c626208ac87e0b7d15054abb4a19ca2d735a54e",
    "block_time": 1710405325
  },
  "hex": "010000000001041d00b8281e8cb312496a1816656ae4ea5fbc502347a608c0553fede5c5454f184c0b000000ffffffff9b487d23bb7ea2727f9a6b9be94de00bc45ca27906c628cf95ab61ce7344d0418a0a000000ffffffff7c142cb8069ca227c965ed45b537545216691bd3740662d97173771c1d380e10b409000000ffffffff7a651f3f72a43f7ccef49a55b81982a2bcd1178f17e5d5ea43b8cbb5e88c266f630a000000ffffffff03006a180000000000160014710b5d7821c85e23c1bb13693c44cb5bc88e3caa059506000000000016001472e31409f38fca988aa59d49017980272b34eab80000000000000000476a453d3a4554482e555344542d4543373a3078303739334662343333414144613436386463313438384366613632443934323536633233303434623a302f312f303a74693a3730024730440220278000ebb0d307677a94a34f6e0b9e55374f30207440d8c3f358e8bb2b4d50c502202f1b51b57c5b94d36b1d98d85929e8fe53d0a0461282c5b3297393c5ac6492ca012103bae1205b858cccf782e1f87e97c7f0af66f8175c83b610da996909b7530f94f8024730440220621a7d9111e45c9755fd81808ac1dd9b0b28ed180c2b0f996766c7b741f9fcb00220069053a011bd3f43094b398c1b09bce4a12a48c288ef6354bccf028c60728892012103bae1205b858cccf782e1f87e97c7f0af66f8175c83b610da996909b7530f94f802473044022041b23ae9cf1a6000e6ebac344a925d0b63ba58968ef7d8130f347aa3ce1a878102202b6baf339e700d1cf47fa30f3c0f67213f905b654189e9818619672b9e4cf783012103bae1205b858cccf782e1f87e97c7f0af66f8175c83b610da996909b7530f94f802473044022002f17767f24639658231931a3ddada44f761e202de06e8bc9c0aa05d2df90de5022060e3cea5c549fb10721c53c1b1a200224de925bd8f3c5206bf424876b229d009012103bae1205b858cccf782e1f87e97c7f0af66f8175c83b610da996909b7530f94f800000000"
}