{
  "txid": "b0e8090e7ae2e597793230bb4f3daaccc32c880487e465573bdbbb78004af1ff",
  "version": 2,
  "locktime": 0,
  "vin": [
    {
      "txid": "33198a5cbe2a53fc30099ab53009144888cef479020e7acbc065183b03c26d7b",
      "vout": 5,
      "prevout": {
        "scriptpubkey": "51204a9c759c482dc8cb0d043893617ba81514a2250bfbdfc4c694046555f2111928",
        "scriptpubkey_asm": "OP_PUSHNUM_1 OP_PUSHBYTES_32 4a9c759c482dc8cb0d043893617ba81514a2250bfbdfc4c694046555f2111928",
        "scriptpubkey_type": "v1_p2tr",
        "scriptpubkey_address": "bc1pf2w8t8zg9hyvkrgy8zfkz7agz522yfgtl00uf355q3j4tus3ry5q24gzfe",
        "value": 2658
      },
      "scriptsig": "",
      "scriptsig_asm": "",
      "witness": [
        "23faee5944994319897ffe76bab6728f7b141bf5eef2aee6f9a298141176984ce3a5de48e5e9248d14cba017541a826c3301401250b9707eb5a6abad645a16ef",
        "20be69b02e5490ae96a81ae0bb946e7b2512e11d09ccf89d0f231c90a8e4f87f09ac0063036f726401011e6170706c69636174696f6e2f6a736f6e3b636861727365743d7574662d38004cbf7b2270223a22706f772d3230222c226f70223a226d696e74222c227469636b223a2250455045222c22616d74223a2231303030222c22736f6c7574696f6e223a22504550453a626331717832636c7935673578376b356a6b7376396d61346332753661646c7a78657470616e387071733a303030303030303030303030303030303030303139393431613561653132383937363539383134343239323533333030353762306461393666336465613163353a3239393538333536303538227d68",
        "c1da2c9a1920efdfbecd176e4adbb0ca1150e62509fd8a3a19d8331b0c89a8a97b"
      ],
      "is_coinbase": false,
      "sequence": 4294967295
    }
  ],
  "vout": [
    {
      "scriptpubkey": "001432b1f2511437ad495a0c2efb5c2b9aeb7e236561",
      "scriptpubkey_asm": "OP_0 OP_PUSHBYTES_20 32b1f2511437ad495a0c2efb5c2b9aeb7e236561",
      "scriptpubkey_type": "v0_p2wpkh",
      "scriptpubkey_address": "bc1qx2cly5g5x7k5jksv9ma4c2u6adlzxetpan8pqs",
      "value": 546
    }
  ],
  "size": 455,
  "weight": 701,
  "fee": 2112,
  "status": {
    "confirmed": true,
    "block_height": 834460,
    "block_hash": "00000000000000000000484a79b643b2524bbce82e5d8a442013fa5b8905ed98",
    "block_time": 1710307468
  },
  "hex": "020000000001017b6dc2033b1865c0cb7a0e0279f4ce8848140930b59a0930fc532abe5c8a19330500000000ffffffff01220200000000000016001432b1f2511437ad495a0c2efb5c2b9aeb7e236561034023faee5944994319897ffe76bab6728f7b141bf5eef2aee6f9a298141176984ce3a5de48e5e9248d14cba017541a826c3301401250b9707eb5a6abad645a16effd0c0120be69b02e5490ae96a81ae0bb946e7b2512e11d09ccf89d0f231c90a8e4f87f09ac0063036f726401011e6170706c69636174696f6e2f6a736f6e3b636861727365743d7574662d38004cbf7b2270223a22706f772d3230222c226f70223a226d696e74222c227469636b223a2250455045222c22616d74223a2231303030222c22736f6c7574696f6e223a22504550453a626331717832636c7935673578376b356a6b7376396d61346332753661646c7a78657470616e387071733a303030303030303030303030303030303030303139393431613561653132383937363539383134343239323533333030353762306461393666336465613163353a3239393538333536303538227d6821c1da2c9a1920efdfbecd176e4adbb0ca1150e62509fd8a3a19d8331b0c89a8a97b00000000"
}