{
  "txid": "b0f09ad016f16bb6c189339795f62a150aa329e1cffb50314264264d9e9c6e4f",
  "version": 2,
  "locktime": 834637,
  "vin": [
    {
      "txid": "26e8b71a8c7c043ca18cf83956ae00f293d397059c3a028e18d49821ef93a10b",
      "vout": 1,
      "prevout": {
        "scriptpubkey": "0014272209ef62872e7a61a01ced85e0bb96fcb093c9",
        "scriptpubkey_asm": "OP_0 OP_PUSHBYTES_20 272209ef62872e7a61a01ced85e0bb96fcb093c9",
        "scriptpubkey_type": "v0_p2wpkh",
        "scriptpubkey_address": "bc1qyu3qnmmzsuh85cdqrnkctc9mjm7tpy7fpy9nvz",
        "value": 5077861
      },
      "scriptsig": "",
      "scriptsig_asm": "",
      "witness": [
        "304402202e3079b24a0c5a32a05d00ea3c7a7ba2d7cb665dcdde543ecea4c514f375728902204a1bb58c9d350206d0892ba5c572ecc9d290cc4ef380fb305b2960d7b3e3818801",
        "0314422c638da5ac9450f7c986a53d61f5ab091fec8803df4747fcb28169370d52"
      ],
      "is_coinbase": false,
      "sequence": 4294967293
    }
  ],
  "vout": [
    {
      "scriptpubkey": "0014029ac8a19b8c2b14f84dcfd046e24f2fc0d28ee3",
      "scriptpubkey_asm": "OP_0 OP_PUSHBYTES_20 029ac8a19b8c2b14f84dcfd046e24f2fc0d28ee3",
      "scriptpubkey_type": "v0_p2wpkh",
      "scriptpubkey_address": "bc1qq2dv3gvm3s43f7zdelgydcj09lqd9rhr3agqrp",
      "value": 714081
    },
    {
      "scriptpubkey": "0014db77ddb37e6466ac4ca01e9a03a32e3544af7e85",
      "scriptpubkey_asm": "OP_0 OP_PUSHBYTES_20 db77ddb37e6466ac4ca01e9a03a32e3544af7e85",
      "scriptpubkey_type": "v0_p2wpkh",
      "scriptpubkey_address": "bc1qmdmamvm7v3n2cn9qr6dq8gewx4z27l59glgjmk",
      "value": 4361538
    }
  ],
  "size": 222,
  "weight": 561,
  "fee": 2242,
  "status": {
    "confirmed": true,
    "block_height": 834638,
    "block_hash": "000000000000000000025f742c626208ac87e0b7d15054abb4a19ca2d735a54e",
    "block_time": 1710405325
  },
  "hex": "020000000001010ba193ef2198d4188e023a9c0597d393f200ae5639f88ca13c047c8c1ab7e8260100000000fdffffff0261e50a0000000000160014029ac8a19b8c2b14f84dcfd046e24f2fc0d28ee3428d420000000000160014db77ddb37e6466ac4ca01e9a03a32e3544af7e850247304402202e3079b24a0c5a32a05d00ea3c7a7ba2d7cb665dcdde543ecea4c514f375728902204a1bb58c9d350206d0892ba5c572ecc9d290cc4ef380fb305b2960d7b3e3818801210314422c638da5ac9450f7c986a53d61f5ab091fec8803df4747fcb28169370d524dbc0c00"
}