{
  "txid": "b0f323ffd5563099f1d9b08ac7a8a18817fc4cface7d7493ed040b37e2d96eda",
  "version": 2,
  "locktime": 0,
  "vin": [
    {
      "txid": "3b20b626c4d7caeb4a8b2c06411216b66c309c765e06c5432c8d2c34dfb77b05",
      "vout": 0,
      "prevout": {
        "scriptpubkey": "5120119f384505f0e0663736663788b33025014204e76a7fca4da198bafab3c60ecb",
        "scriptpubkey_asm": "OP_PUSHNUM_1 OP_PUSHBYTES_32 119f384505f0e0663736663788b33025014204e76a7fca4da198bafab3c60ecb",
        "scriptpubkey_type": "v1_p2tr",
        "scriptpubkey_address": "bc1pzx0ns3g97rsxvdekvcmc3vesy5q5yp88dflu5ndpnza04v7xpm9ss7mmz0",
        "value": 155000
      },
      "scriptsig": "",
      "scriptsig_asm": "",
      "witness": [
        "b2b5efb23032603e0ff026a25140e9918392f9c42e71e453bb28943ab2ca1bc6b0ba846519fd5dea91b366e6b175eb9974b520a220d1b4e12450140c7addd99f"
      ],
      "is_coinbase": false,
      "sequence": 4294967293
    }
  ],
  "vout": [
    {
      "scriptpubkey": "5120f5406d8abd414cb02ce9925e28020ece02ddd79acc99c3b239391fc5b07ba2f3",
      "scriptpubkey_asm": "OP_PUSHNUM_1 OP_PUSHBYTES_32 f5406d8abd414cb02ce9925e28020ece02ddd79acc99c3b239391fc5b07ba2f3",
      "scriptpubkey_type": "v1_p2tr",
      "scriptpubkey_address": "bc1p74qxmz4ag9xtqt8fjf0zsqswecpdm4u6ejvu8v3e8y0utvrm5tesk5clum",
      "value": 153668
    }
  ],
  "size": 162,
  "weight": 444,
  "fee": 1332,
  "status": {
    "confirmed": true,
    "block_height": 834460,
    "block_hash": "00000000000000000000484a79b643b2524bbce82e5d8a442013fa5b8905ed98",
    "block_time": 1710307468
  },
  "hex": "02000000000101057bb7df342c8d2c43c5065e769c306cb6161241062c8b4aebcad7c426b6203b0000000000fdffffff014458020000000000225120f5406d8abd414cb02ce9925e28020ece02ddd79acc99c3b239391fc5b07ba2f30140b2b5efb23032603e0ff026a25140e9918392f9c42e71e453bb28943ab2ca1bc6b0ba846519fd5dea91b366e6b175eb9974b520a220d1b4e12450140c7addd99f00000000"
}