{
  "txid": "b1040c4ab8942c097e1a0a8de7bf2a97cf798ab1b0402fe729ad3b9faa69c65c",
  "version": 2,
  "locktime": 0,
  "vin": [
    {
      "txid": "ce49faf3f30a517470ebaafd2cfc34e195d693dde4338d72a311025e80aa40f7",
      "vout": 0,
      "prevout": {
        "scriptpubkey": "0014b46afcde90cc633fd438c2d9a659acdb12939f93",
        "scriptpubkey_asm": "OP_0 OP_PUSHBYTES_20 b46afcde90cc633fd438c2d9a659acdb12939f93",
        "scriptpubkey_type": "v0_p2wpkh",
        "scriptpubkey_address": "bc1qk340eh5se33nl4pcctv6vkdvmvff88unhm6wse",
        "value": 1794071
      },
      "scriptsig": "",
      "scriptsig_asm": "",
      "witness": [
        "3044022008c3a3ce7f00af5703a0e3f235aec050a80ff5cd381c98f360f972533824f08c022058e0f663da923a011dec91b54db05254ef3f0fd5d1cfa76e9f9fe42c2f46510b01",
        "039bf2917e607ae526936fdef9d49efca0297b6b0f3056fe25e9c2cd973df6337b"
      ],
      "is_coinbase": false,
      "sequence": 4294967295
    }
  ],
  "vout": [
    {
      "scriptpubkey": "0014cddc382fe578817b385fa46400e4024fcbf96960",
      "scriptpubkey_asm": "OP_0 OP_PUSHBYTES_20 cddc382fe578817b385fa46400e4024fcbf96960",
      "scriptpubkey_type": "v0_p2wpkh",
      "scriptpubkey_address": "bc1qehwrstl90zqhkwzl53jqpeqzfl9lj6tqep60j7",
      "value": 749777
    },
    {
      "scriptpubkey": "001427fe2122d005231a54c77267794fb9e7993cd4fe",
      "scriptpubkey_asm": "OP_0 OP_PUSHBYTES_20 27fe2122d005231a54c77267794fb9e7993cd4fe",
      "scriptpubkey_type": "v0_p2wpkh",
      "scriptpubkey_address": "bc1qyllzzgksq53354x8wfnhjnaeu7vne487nzlhg7",
      "value": 1040660
    }
  ],
  "size": 222,
  "weight": 561,
  "fee": 3634,
  "status": {
    "confirmed": true,
    "block_height": 834638,
    "block_hash": "000000000000000000025f742c626208ac87e0b7d15054abb4a19ca2d735a54e",
    "block_time": 1710405325
  },
  "hex": "02000000000101f740aa805e0211a3728d33e4dd93d695e134fc2cfdaaeb7074510af3f3fa49ce0000000000ffffffff02d1700b0000000000160014cddc382fe578817b385fa46400e4024fcbf9696014e10f000000000016001427fe2122d005231a54c77267794fb9e7993cd4fe02473044022008c3a3ce7f00af5703a0e3f235aec050a80ff5cd381c98f360f972533824f08c022058e0f663da923a011dec91b54db05254ef3f0fd5d1cfa76e9f9fe42c2f46510b0121039bf2917e607ae526936fdef9d49efca0297b6b0f3056fe25e9c2cd973df6337b00000000"
}