{
  "txid": "b10fcf88e9ea770c7a170ff150188850041e14d2c5f30cb80320d2fc13152cfe",
  "version": 1,
  "locktime": 0,
  "vin": [
    {
      "txid": "28a8edc967aa14c0446e806c25dabac6532d7dead9f4680daf45aee497523c15",
      "vout": 1,
      "prevout": {
        "scriptpubkey": "00145171e583ec20524597b042b495e3d8beec83880f",
        "scriptpubkey_asm": "OP_0 OP_PUSHBYTES_20 5171e583ec20524597b042b495e3d8beec83880f",
        "scriptpubkey_type": "v0_p2wpkh",
        "scriptpubkey_address": "bc1q29c7tqlvypfyt9asg26ftc7chmkg8zq0qmd38v",
        "value": 49401441
      },
      "scriptsig": "",
      "scriptsig_asm": "",
      "witness": [
        "3045022100ed4eb4795f09803f9b37a490eff42a82cb53665bc9ffadde1669eb7c7e9f6fec02205095cc120217393a880844a5260b1bef3ad5beb3d953c2edb5f29beebbd4d3cd01",
        "03f431ec5c340f06d6a702cb3d174e8316c98e59d4446411ff07bb9605994f471c"
      ],
      "is_coinbase": false,
      "sequence": 4294967295
    }
  ],
  "vout": [
    {
      "scriptpubkey": "a9148e9e7c0b44dcffb8d9ee1296810ca7333f13eba487",
      "scriptpubkey_asm": "OP_HASH160 OP_PUSHBYTES_20 8e9e7c0b44dcffb8d9ee1296810ca7333f13eba4 OP_EQUAL",
      "scriptpubkey_type": "p2sh",
      "scriptpubkey_address": "3Eh7jUyDGP5dhVb5ZVGyRVLChzqvqBaSz3",
      "value": 149121
    },
    {
      "scriptpubkey": "0014108c69b7ff23c446c08044eec629685505250bb3",
      "scriptpubkey_asm": "OP_0 OP_PUSHBYTES_20 108c69b7ff23c446c08044eec629685505250bb3",
      "scriptpubkey_type": "v0_p2wpkh",
      "scriptpubkey_address": "bc1qzzxxndlly0zydsyqgnhvv2tg25zj2zantfqptd",
      "value": 49249409
    }
  ],
  "size": 224,
  "weight": 566,
  "fee": 2911,
  "status": {
    "confirmed": true,
    "block_height": 834638,
    "block_hash": "000000000000000000025f742c626208ac87e0b7d15054abb4a19ca2d735a54e",
    "block_time": 1710405325
  },
  "hex": "01000000000101153c5297e4ae45af0d68f4d9ea7d2d53c6bada256c806e44c014aa67c9eda8280100000000ffffffff02814602000000000017a9148e9e7c0b44dcffb8d9ee1296810ca7333f13eba487817cef0200000000160014108c69b7ff23c446c08044eec629685505250bb302483045022100ed4eb4795f09803f9b37a490eff42a82cb53665bc9ffadde1669eb7c7e9f6fec02205095cc120217393a880844a5260b1bef3ad5beb3d953c2edb5f29beebbd4d3cd012103f431ec5c340f06d6a702cb3d174e8316c98e59d4446411ff07bb9605994f471c00000000"
}