{
  "txid": "b1143e6e3d6b5a5280781620c9b15ad715091743bc7de4c0ab310f25d02086d4",
  "version": 2,
  "locktime": 0,
  "vin": [
    {
      "txid": "0eddf93f24b2d392cda3aed855586f759c118678ab0fdf1339c1a2f0871fef42",
      "vout": 10,
      "prevout": {
        "scriptpubkey": "512057d797cd068eaad458775da78d4f6688dec5fbbd0f454d4416d72542f970b1de",
        "scriptpubkey_asm": "OP_PUSHNUM_1 OP_PUSHBYTES_32 57d797cd068eaad458775da78d4f6688dec5fbbd0f454d4416d72542f970b1de",
        "scriptpubkey_type": "v1_p2tr",
        "scriptpubkey_address": "bc1p2lte0ngx364dgkrhtknc6nmx3r0vt7aapaz563qk6uj597tsk80qlhu9cw",
        "value": 2821
      },
      "scriptsig": "",
      "scriptsig_asm": "",
      "witness": [
        "584c628504fc496d3836cf2256a6fb330b66aefe8891fa344a4bb803de192d0a1b233c47e04c9b6b61f87ac497759378d5f3646fd7f6fc01174f3f46ae1a383d",
        "20b1eb7814146a86dcc0ab534ccbd54ca408e76aba40dfa23c6e5b6d86e232dc9dac0063036f726401011e6170706c69636174696f6e2f6a736f6e3b636861727365743d7574662d38004cbe7b2270223a22706f772d3230222c226f70223a226d696e74222c227469636b223a2250455045222c22616d74223a2231303030222c22736f6c7574696f6e223a22504550453a6263317172713238376168727578703271783033726774706379666a327261786e306175667a646a717a3a303030303030303030303030303030303030303139393431613561653132383937363539383134343239323533333030353762306461393666336465613163353a38333731313335313036227d68",
        "c1f26df831a413724db8123fd1cb518d6560252685500a3c204e36c4bb2a2cc255"
      ],
      "is_coinbase": false,
      "sequence": 4294967295
    }
  ],
  "vout": [
    {
      "scriptpubkey": "001418147f76e3e182a019f11a161c113250fa69bfbc",
      "scriptpubkey_asm": "OP_0 OP_PUSHBYTES_20 18147f76e3e182a019f11a161c113250fa69bfbc",
      "scriptpubkey_type": "v0_p2wpkh",
      "scriptpubkey_address": "bc1qrq287ahruxp2qx03rgtpcyfj2raxn0aufzdjqz",
      "value": 546
    }
  ],
  "size": 454,
  "weight": 700,
  "fee": 2275,
  "status": {
    "confirmed": true,
    "block_height": 834460,
    "block_hash": "00000000000000000000484a79b643b2524bbce82e5d8a442013fa5b8905ed98",
    "block_time": 1710307468
  },
  "hex": "0200000000010142ef1f87f0a2c13913df0fab7886119c756f5855d8aea3cd92d3b2243ff9dd0e0a00000000ffffffff01220200000000000016001418147f76e3e182a019f11a161c113250fa69bfbc0340584c628504fc496d3836cf2256a6fb330b66aefe8891fa344a4bb803de192d0a1b233c47e04c9b6b61f87ac497759378d5f3646fd7f6fc01174f3f46ae1a383dfd0b0120b1eb7814146a86dcc0ab534ccbd54ca408e76aba40dfa23c6e5b6d86e232dc9dac0063036f726401011e6170706c69636174696f6e2f6a736f6e3b636861727365743d7574662d38004cbe7b2270223a22706f772d3230222c226f70223a226d696e74222c227469636b223a2250455045222c22616d74223a2231303030222c22736f6c7574696f6e223a22504550453a6263317172713238376168727578703271783033726774706379666a327261786e306175667a646a717a3a303030303030303030303030303030303030303139393431613561653132383937363539383134343239323533333030353762306461393666336465613163353a38333731313335313036227d6821c1f26df831a413724db8123fd1cb518d6560252685500a3c204e36c4bb2a2cc25500000000"
}