{
  "txid": "b11856f44f96451067583d9429f2f675eb2439c8073722b315232e1d1c3d47a5",
  "version": 2,
  "locktime": 0,
  "vin": [
    {
      "txid": "27dc4f6b7323f97574115c019eeca71ae4134a2d588f8102deddf8aae0e11ce3",
      "vout": 32,
      "prevout": {
        "scriptpubkey": "51200302c10c28ddf54866684089bb84ddd42187d5c2b782d0e20cd88566394d3081",
        "scriptpubkey_asm": "OP_PUSHNUM_1 OP_PUSHBYTES_32 0302c10c28ddf54866684089bb84ddd42187d5c2b782d0e20cd88566394d3081",
        "scriptpubkey_type": "v1_p2tr",
        "scriptpubkey_address": "bc1pqvpvzrpgmh65senggzymhpxa6ssc04wzk7pdpcsvmzzkvw2dxzqsgcauhd",
        "value": 1991
      },
      "scriptsig": "",
      "scriptsig_asm": "",
      "witness": [
        "f92b2d3a8d38fda6ce56c8a491889bf1d57e53a164ebedcfe5a0bf481ed34b379ffc5941ec061c78e390d6e7b049a9ac9028e3bfaa468a0b1db3d1f27cf9902e",
        "201477bd3f7245d2215ba196d23c01404580081c16b8406232d6601ea82016d8d1ac0063036f7264010118746578742f706c61696e3b636861727365743d7574662d3800357b2270223a226272632d3230222c226f70223a226d696e74222c227469636b223a22423d5443222c22616d74223a2231303030227d68",
        "c01477bd3f7245d2215ba196d23c01404580081c16b8406232d6601ea82016d8d1"
      ],
      "is_coinbase": false,
      "sequence": 4294967293
    }
  ],
  "vout": [
    {
      "scriptpubkey": "51200c3718d8ac9012dd1d6592e2412c620353da8aa4e52a8871634941d01f59b8ba",
      "scriptpubkey_asm": "OP_PUSHNUM_1 OP_PUSHBYTES_32 0c3718d8ac9012dd1d6592e2412c620353da8aa4e52a8871634941d01f59b8ba",
      "scriptpubkey_type": "v1_p2tr",
      "scriptpubkey_address": "bc1ppsm33k9vjqfd68t9jt3yztrzqdfa4z4yu54gsutrf9qaq86ehzaqf30spm",
      "value": 330
    }
  ],
  "size": 320,
  "weight": 602,
  "fee": 1661,
  "status": {
    "confirmed": true,
    "block_height": 834464,
    "block_hash": "0000000000000000000177a0869a911a2b65c9bdcd5a8bcb02b68f305bee848e",
    "block_time": 1710308296
  },
  "hex": "02000000000101e31ce1e0aaf8ddde02818f582d4a13e41aa7ec9e015c117475f923736b4fdc272000000000fdffffff014a010000000000002251200c3718d8ac9012dd1d6592e2412c620353da8aa4e52a8871634941d01f59b8ba0340f92b2d3a8d38fda6ce56c8a491889bf1d57e53a164ebedcfe5a0bf481ed34b379ffc5941ec061c78e390d6e7b049a9ac9028e3bfaa468a0b1db3d1f27cf9902e7b201477bd3f7245d2215ba196d23c01404580081c16b8406232d6601ea82016d8d1ac0063036f7264010118746578742f706c61696e3b636861727365743d7574662d3800357b2270223a226272632d3230222c226f70223a226d696e74222c227469636b223a22423d5443222c22616d74223a2231303030227d6821c01477bd3f7245d2215ba196d23c01404580081c16b8406232d6601ea82016d8d100000000"
}