{
  "txid": "b121ddd4c5dc762bc6c56935919db200c0624f8ba9ca6522a2ed14e9109cd5de",
  "version": 2,
  "locktime": 0,
  "vin": [
    {
      "txid": "985268f865d3d9794459eac85a5007eee037e0a9c0f105429b01c836cc2a9bfd",
      "vout": 0,
      "prevout": {
        "scriptpubkey": "5120a11f59da87a59bc4697050e70d35747d7a527fa4514d6ad91f1f53b65a64a27f",
        "scriptpubkey_asm": "OP_PUSHNUM_1 OP_PUSHBYTES_32 a11f59da87a59bc4697050e70d35747d7a527fa4514d6ad91f1f53b65a64a27f",
        "scriptpubkey_type": "v1_p2tr",
        "scriptpubkey_address": "bc1p5y04nk585kdug6ts2rns6dt504a9ylay29xk4kglrafmvkny5flsc7jud9",
        "value": 3300
      },
      "scriptsig": "",
      "scriptsig_asm": "",
      "witness": [
        "10428c62b589260df408cc2e17e0578fca99e142445e8d4a7201263ecb01b43ac0a2a154453ada5818232133b14384c1292a1719baa456b933f98fa64efec6a6",
        "20bb04467266fec9ddb28d5c1ce63b6fc0b982dd67f3acda504c18e721834cba76ac0063036f7264010118746578742f706c61696e3b636861727365743d7574662d38003d7b2270223a226272632d3230222c226f70223a227472616e73666572222c227469636b223a22506c6179222c22616d74223a223537323630303030227d68",
        "c1bb04467266fec9ddb28d5c1ce63b6fc0b982dd67f3acda504c18e721834cba76"
      ],
      "is_coinbase": false,
      "sequence": 4294967293
    }
  ],
  "vout": [
    {
      "scriptpubkey": "5120f803fffb55f7f287ca0b692a4a977604446773c01970af5e602fd6d522a94fae",
      "scriptpubkey_asm": "OP_PUSHNUM_1 OP_PUSHBYTES_32 f803fffb55f7f287ca0b692a4a977604446773c01970af5e602fd6d522a94fae",
      "scriptpubkey_type": "v1_p2tr",
      "scriptpubkey_address": "bc1plqpll7647leg0jstdy4y49mkq3zxwu7qr9c27hnq9ltd2g4ff7hq00289x",
      "value": 546
    }
  ],
  "size": 328,
  "weight": 610,
  "fee": 2754,
  "status": {
    "confirmed": true,
    "block_height": 834638,
    "block_hash": "000000000000000000025f742c626208ac87e0b7d15054abb4a19ca2d735a54e",
    "block_time": 1710405325
  },
  "hex": "02000000000101fd9b2acc36c8019b4205f1c0a9e037e0ee07505ac8ea594479d9d365f86852980000000000fdffffff012202000000000000225120f803fffb55f7f287ca0b692a4a977604446773c01970af5e602fd6d522a94fae034010428c62b589260df408cc2e17e0578fca99e142445e8d4a7201263ecb01b43ac0a2a154453ada5818232133b14384c1292a1719baa456b933f98fa64efec6a68320bb04467266fec9ddb28d5c1ce63b6fc0b982dd67f3acda504c18e721834cba76ac0063036f7264010118746578742f706c61696e3b636861727365743d7574662d38003d7b2270223a226272632d3230222c226f70223a227472616e73666572222c227469636b223a22506c6179222c22616d74223a223537323630303030227d6821c1bb04467266fec9ddb28d5c1ce63b6fc0b982dd67f3acda504c18e721834cba7600000000"
}