{
  "txid": "b127ee87a3bf6d2b4a655873a33488ad0948feef7ad1e5f17673e1335d25fe31",
  "version": 2,
  "locktime": 0,
  "vin": [
    {
      "txid": "2a57dae85320543d698e929ad435447f58e772b1e01f56366903dc43702ce609",
      "vout": 1,
      "prevout": {
        "scriptpubkey": "0014c619c5bec0dbd15314ba6d61e50493920c4ed784",
        "scriptpubkey_asm": "OP_0 OP_PUSHBYTES_20 c619c5bec0dbd15314ba6d61e50493920c4ed784",
        "scriptpubkey_type": "v0_p2wpkh",
        "scriptpubkey_address": "bc1qccvut0kqm0g4x996d4s72pynjgxya4uyvz9cr4",
        "value": 358506
      },
      "scriptsig": "",
      "scriptsig_asm": "",
      "witness": [
        "3045022100839e503c492036e22a1d57761cb6987f513275ac83a63822a906c005c3eb4b5e02200bb699fdda9b29e00566b2f7ae022823a8b5221f232f6f9969e48b54bc82d13001",
        "0283c27c9b03278c1e9bbaa344a934f9c66b14f532951cf564cb4b789f7ef1f402"
      ],
      "is_coinbase": false,
      "sequence": 4294967295
    }
  ],
  "vout": [
    {
      "scriptpubkey": "0014bc821262b66c903a1c06ef6d427a16a0ffbb5265",
      "scriptpubkey_asm": "OP_0 OP_PUSHBYTES_20 bc821262b66c903a1c06ef6d427a16a0ffbb5265",
      "scriptpubkey_type": "v0_p2wpkh",
      "scriptpubkey_address": "bc1qhjppyc4kdjgr58qxaak5y7sk5rlmk5n93j3vvt",
      "value": 356584
    }
  ],
  "size": 192,
  "weight": 438,
  "fee": 1922,
  "status": {
    "confirmed": true,
    "block_height": 834638,
    "block_hash": "000000000000000000025f742c626208ac87e0b7d15054abb4a19ca2d735a54e",
    "block_time": 1710405325
  },
  "hex": "0200000000010109e62c7043dc036936561fe0b172e7587f4435d49a928e693d542053e8da572a0100000000ffffffff01e870050000000000160014bc821262b66c903a1c06ef6d427a16a0ffbb526502483045022100839e503c492036e22a1d57761cb6987f513275ac83a63822a906c005c3eb4b5e02200bb699fdda9b29e00566b2f7ae022823a8b5221f232f6f9969e48b54bc82d13001210283c27c9b03278c1e9bbaa344a934f9c66b14f532951cf564cb4b789f7ef1f40200000000"
}