{
  "txid": "b12afba595f181efa46b9dcf029ddc9fbbaf364c421bd782af5d8b7c463296ee",
  "version": 2,
  "locktime": 0,
  "vin": [
    {
      "txid": "9596b4bf5a36dd2b4d2728c580d61b36a2d7c3dfce14f825860c8c3b85753eeb",
      "vout": 15,
      "prevout": {
        "scriptpubkey": "512094f780abb89b33dd03b67234782af8bee5c7a6ff077ffeba493b771445f99c2c",
        "scriptpubkey_asm": "OP_PUSHNUM_1 OP_PUSHBYTES_32 94f780abb89b33dd03b67234782af8bee5c7a6ff077ffeba493b771445f99c2c",
        "scriptpubkey_type": "v1_p2tr",
        "scriptpubkey_address": "bc1pjnmcp2acnvea6qakwg68s2hchmju0fhlqallawjf8dm3g30enskqp3jjx6",
        "value": 2782
      },
      "scriptsig": "",
      "scriptsig_asm": "",
      "witness": [
        "1b7bebb01a4b3bd2aaf48538091d0ef6c0071137a14e65b23b93a71deb7ebf010e85051fe3546fc17e1149f206116b8bd0a4f6aae6845af48b3faa0f832b1c56",
        "200e219d99985877b6aaf3762f8b75f5e9775588303d25ebab0e92c57d0e3ada7eac0063036f7264010118746578742f706c61696e3b636861727365743d7574662d38004c827b2270223a22746170222c226f70223a22646d742d6d696e74222c22646570223a22393432343830326533386663383839393639343137636439306466346334313437323039643261383365643833373938633063346161343339316164333665356930222c227469636b223a22626974222c22626c6b223a22313732323731227d68",
        "c00e219d99985877b6aaf3762f8b75f5e9775588303d25ebab0e92c57d0e3ada7e905cf7235259c0a06a834d89580f25d6b12859409a03216e5845b89933f51aa6"
      ],
      "is_coinbase": false,
      "sequence": 4294967293
    }
  ],
  "vout": [
    {
      "scriptpubkey": "51209e8495464291b165b691de72df24128f0b71ef8272f8e759edd9215859956d85",
      "scriptpubkey_asm": "OP_PUSHNUM_1 OP_PUSHBYTES_32 9e8495464291b165b691de72df24128f0b71ef8272f8e759edd9215859956d85",
      "scriptpubkey_type": "v1_p2tr",
      "scriptpubkey_address": "bc1pn6zf23jzjxcktd53meed7fqj3u9hrmuzwtuwwk0dmys4skv4dkzsf4ex2c",
      "value": 546
    }
  ],
  "size": 430,
  "weight": 712,
  "fee": 2236,
  "status": {
    "confirmed": true,
    "block_height": 834460,
    "block_hash": "00000000000000000000484a79b643b2524bbce82e5d8a442013fa5b8905ed98",
    "block_time": 1710307468
  },
  "hex": "02000000000101eb3e75853b8c0c8625f814cedfc3d7a2361bd680c528274d2bdd365abfb496950f00000000fdffffff0122020000000000002251209e8495464291b165b691de72df24128f0b71ef8272f8e759edd9215859956d8503401b7bebb01a4b3bd2aaf48538091d0ef6c0071137a14e65b23b93a71deb7ebf010e85051fe3546fc17e1149f206116b8bd0a4f6aae6845af48b3faa0f832b1c56c9200e219d99985877b6aaf3762f8b75f5e9775588303d25ebab0e92c57d0e3ada7eac0063036f7264010118746578742f706c61696e3b636861727365743d7574662d38004c827b2270223a22746170222c226f70223a22646d742d6d696e74222c22646570223a22393432343830326533386663383839393639343137636439306466346334313437323039643261383365643833373938633063346161343339316164333665356930222c227469636b223a22626974222c22626c6b223a22313732323731227d6841c00e219d99985877b6aaf3762f8b75f5e9775588303d25ebab0e92c57d0e3ada7e905cf7235259c0a06a834d89580f25d6b12859409a03216e5845b89933f51aa600000000"
}