{
  "txid": "b13e819b4efcc0541b0c253d99cf743fa0a8985ca4447e7b08f5078f92755c40",
  "version": 2,
  "locktime": 0,
  "vin": [
    {
      "txid": "a67c88a91d97c57789a3cee854ca5c15f00fc862b50818584bcd8a80b49e7694",
      "vout": 2101,
      "prevout": {
        "scriptpubkey": "0014f25d118773894486a5f8907d4020e5432ed24b0b",
        "scriptpubkey_asm": "OP_0 OP_PUSHBYTES_20 f25d118773894486a5f8907d4020e5432ed24b0b",
        "scriptpubkey_type": "v0_p2wpkh",
        "scriptpubkey_address": "bc1q7fw3rpmn39zgdf0cjp75qg89gvhdyjct089q5c",
        "value": 563362
      },
      "scriptsig": "",
      "scriptsig_asm": "",
      "witness": [
        "3045022100845ef9933e2482605145301f4119022e10ec5e95566cb1a595692d59df5ff54f022069846399e1becc057b90e8cffc8a6018af8a45bcaaa97d0eb8d03eb182a2102501",
        "03a14a1895288dcac518a8488f7676bd2f53a9502fc99fbbd81fff5f6ce2db93d6"
      ],
      "is_coinbase": false,
      "sequence": 4294967295
    },
    {
      "txid": "17cbbf7b86baa31eac93014e297900fe5c6ea1ed472ca8a401929f81e7edbc71",
      "vout": 1766,
      "prevout": {
        "scriptpubkey": "0014f25d118773894486a5f8907d4020e5432ed24b0b",
        "scriptpubkey_asm": "OP_0 OP_PUSHBYTES_20 f25d118773894486a5f8907d4020e5432ed24b0b",
        "scriptpubkey_type": "v0_p2wpkh",
        "scriptpubkey_address": "bc1q7fw3rpmn39zgdf0cjp75qg89gvhdyjct089q5c",
        "value": 615684
      },
      "scriptsig": "",
      "scriptsig_asm": "",
      "witness": [
        "3044022060d0d500aed7e506549de732828ebd4001fcfa442c5e81998a06cfb0cc64dadc02206fb1be975d15e6ed371afdc5de5550a4a0766d1b7495febfcee71a4661ef5f2101",
        "03a14a1895288dcac518a8488f7676bd2f53a9502fc99fbbd81fff5f6ce2db93d6"
      ],
      "is_coinbase": false,
      "sequence": 4294967295
    },
    {
      "txid": "c6f7ea8aa0be4a3a87154ef1024b80cd05c9130e0d1fe7bc05576bdbc0c0ce0c",
      "vout": 1954,
      "prevout": {
        "scriptpubkey": "0014f25d118773894486a5f8907d4020e5432ed24b0b",
        "scriptpubkey_asm": "OP_0 OP_PUSHBYTES_20 f25d118773894486a5f8907d4020e5432ed24b0b",
        "scriptpubkey_type": "v0_p2wpkh",
        "scriptpubkey_address": "bc1q7fw3rpmn39zgdf0cjp75qg89gvhdyjct089q5c",
        "value": 564583
      },
      "scriptsig": "",
      "scriptsig_asm": "",
      "witness": [
        "3045022100d4fb37428f2597266b1221c92d50b2014bbcde92fe52aa96c34866174d393c4c0220624c0a153d6458b42eb515a6fe3f275705840a142df7fe5d9a679ffa2cf6d6db01",
        "03a14a1895288dcac518a8488f7676bd2f53a9502fc99fbbd81fff5f6ce2db93d6"
      ],
      "is_coinbase": false,
      "sequence": 4294967295
    },
    {
      "txid": "bfbd96184122ad99e1b62e5277a9c440e68e597237a88361a66bc246a7ca0f49",
      "vout": 2134,
      "prevout": {
        "scriptpubkey": "0014f25d118773894486a5f8907d4020e5432ed24b0b",
        "scriptpubkey_asm": "OP_0 OP_PUSHBYTES_20 f25d118773894486a5f8907d4020e5432ed24b0b",
        "scriptpubkey_type": "v0_p2wpkh",
        "scriptpubkey_address": "bc1q7fw3rpmn39zgdf0cjp75qg89gvhdyjct089q5c",
        "value": 561401
      },
      "scriptsig": "",
      "scriptsig_asm": "",
      "witness": [
        "3045022100adf1bc6f1ed4f65bf21566a724a39c12629835f1198971018a2f28e427b26cbb022075516409092c929d71d97050295900a03099d239300e6ac98787195c82718f5901",
        "03a14a1895288dcac518a8488f7676bd2f53a9502fc99fbbd81fff5f6ce2db93d6"
      ],
      "is_coinbase": false,
      "sequence": 4294967295
    },
    {
      "txid": "b8bc9208c60f31ea76627871e6a3596bbb981b58bf586631c7624f1fc9c1de44",
      "vout": 24,
      "prevout": {
        "scriptpubkey": "0014f25d118773894486a5f8907d4020e5432ed24b0b",
        "scriptpubkey_asm": "OP_0 OP_PUSHBYTES_20 f25d118773894486a5f8907d4020e5432ed24b0b",
        "scriptpubkey_type": "v0_p2wpkh",
        "scriptpubkey_address": "bc1q7fw3rpmn39zgdf0cjp75qg89gvhdyjct089q5c",
        "value": 5001957
      },
      "scriptsig": "",
      "scriptsig_asm": "",
      "witness": [
        "3045022100d6603b8b5da6d83e3f29a0e4f49bb57831eb2ff32e4ed4ed36d27ece176508e502203165624b22282d46634d9eda7e5cb6e921ba562536b5a7080644107307bc23d401",
        "03a14a1895288dcac518a8488f7676bd2f53a9502fc99fbbd81fff5f6ce2db93d6"
      ],
      "is_coinbase": false,
      "sequence": 4294967295
    },
    {
      "txid": "65932dcbf0ab7b0682af5eaf2dcc4c8a5e3548f664d8a22499c91310397f47d2",
      "vout": 1,
      "prevout": {
        "scriptpubkey": "0014f25d118773894486a5f8907d4020e5432ed24b0b",
        "scriptpubkey_asm": "OP_0 OP_PUSHBYTES_20 f25d118773894486a5f8907d4020e5432ed24b0b",
        "scriptpubkey_type": "v0_p2wpkh",
        "scriptpubkey_address": "bc1q7fw3rpmn39zgdf0cjp75qg89gvhdyjct089q5c",
        "value": 17580116
      },
      "scriptsig": "",
      "scriptsig_asm": "",
      "witness": [
        "3045022100efa7ab0563d9d8a082d6402e0e79349c38d0ca458002cd69934aa2e7841fd49802206d7889a42567c72d9ccb59b46b53c22c1715bf931f6ed306114ea696268acd6d01",
        "03a14a1895288dcac518a8488f7676bd2f53a9502fc99fbbd81fff5f6ce2db93d6"
      ],
      "is_coinbase": false,
      "sequence": 4294967295
    },
    {
      "txid": "6835dac3146f8cdb48cb11d1367128aa2d5ce88154ea751f145b8cec414405b2",
      "vout": 1839,
      "prevout": {
        "scriptpubkey": "0014f25d118773894486a5f8907d4020e5432ed24b0b",
        "scriptpubkey_asm": "OP_0 OP_PUSHBYTES_20 f25d118773894486a5f8907d4020e5432ed24b0b",
        "scriptpubkey_type": "v0_p2wpkh",
        "scriptpubkey_address": "bc1q7fw3rpmn39zgdf0cjp75qg89gvhdyjct089q5c",
        "value": 582440
      },
      "scriptsig": "",
      "scriptsig_asm": "",
      "witness": [
        "3045022100875e84e29b1d4d33f9d4dacdf677106dffc9fff66c6c1a69aeb07ef233ed4d6e02206aa690a08166977ba891aae3fe78046e3e614e9f85bba522ab5454e39df6acf501",
        "03a14a1895288dcac518a8488f7676bd2f53a9502fc99fbbd81fff5f6ce2db93d6"
      ],
      "is_coinbase": false,
      "sequence": 4294967295
    },
    {
      "txid": "a8b984e81b7088b52b0abc5b07208f522670be7aefb79cbc54cda12bc139a55f",
      "vout": 31,
      "prevout": {
        "scriptpubkey": "0014f25d118773894486a5f8907d4020e5432ed24b0b",
        "scriptpubkey_asm": "OP_0 OP_PUSHBYTES_20 f25d118773894486a5f8907d4020e5432ed24b0b",
        "scriptpubkey_type": "v0_p2wpkh",
        "scriptpubkey_address": "bc1q7fw3rpmn39zgdf0cjp75qg89gvhdyjct089q5c",
        "value": 5001211
      },
      "scriptsig": "",
      "scriptsig_asm": "",
      "witness": [
        "304502210096fb7650f2e888337b7e9dacc3679c255269513fc2607d5155f1aa66371affc60220433fb37e133de38920a506045c9e1c22243aff39692ba7dc9302328e5e5cd74101",
        "03a14a1895288dcac518a8488f7676bd2f53a9502fc99fbbd81fff5f6ce2db93d6"
      ],
      "is_coinbase": false,
      "sequence": 4294967295
    },
    {
      "txid": "a615f97c95b8548c9e641688d5c09c5be935331ccbd19ca1fd243e0f5c8b3101",
      "vout": 2328,
      "prevout": {
        "scriptpubkey": "0014f25d118773894486a5f8907d4020e5432ed24b0b",
        "scriptpubkey_asm": "OP_0 OP_PUSHBYTES_20 f25d118773894486a5f8907d4020e5432ed24b0b",
        "scriptpubkey_type": "v0_p2wpkh",
        "scriptpubkey_address": "bc1q7fw3rpmn39zgdf0cjp75qg89gvhdyjct089q5c",
        "value": 559498
      },
      "scriptsig": "",
      "scriptsig_asm": "",
      "witness": [
        "30440220657f9befd78835c3116bc003d0259b422759df8cc4ac96c7548436393a2987df02203e31a114ff0b91392ed7165e4377d76b901a58ee1ae3d85bc04ff8006a48efa501",
        "03a14a1895288dcac518a8488f7676bd2f53a9502fc99fbbd81fff5f6ce2db93d6"
      ],
      "is_coinbase": false,
      "sequence": 4294967295
    },
    {
      "txid": "54a497e117a2f91c2225fbfa77bfd335cf982770622e147909ae0e72ede2e3d6",
      "vout": 51,
      "prevout": {
        "scriptpubkey": "0014f25d118773894486a5f8907d4020e5432ed24b0b",
        "scriptpubkey_asm": "OP_0 OP_PUSHBYTES_20 f25d118773894486a5f8907d4020e5432ed24b0b",
        "scriptpubkey_type": "v0_p2wpkh",
        "scriptpubkey_address": "bc1q7fw3rpmn39zgdf0cjp75qg89gvhdyjct089q5c",
        "value": 5000069
      },
      "scriptsig": "",
      "scriptsig_asm": "",
      "witness": [
        "3045022100f6c6e7c2ce4d2082988eb0c0c3bf15c6dc423829e69ee862fd7ee83b249d6fdb0220589284f5d9f1225f53730a144fed7d0011c38f7ca9b34a7bfc9c9b6847e8316901",
        "03a14a1895288dcac518a8488f7676bd2f53a9502fc99fbbd81fff5f6ce2db93d6"
      ],
      "is_coinbase": false,
      "sequence": 4294967295
    },
    {
      "txid": "247130a4287d3e37004889c5ae5fbccce8a6395e677bfe90a02e4aa238c36e7f",
      "vout": 975,
      "prevout": {
        "scriptpubkey": "0014f25d118773894486a5f8907d4020e5432ed24b0b",
        "scriptpubkey_asm": "OP_0 OP_PUSHBYTES_20 f25d118773894486a5f8907d4020e5432ed24b0b",
        "scriptpubkey_type": "v0_p2wpkh",
        "scriptpubkey_address": "bc1q7fw3rpmn39zgdf0cjp75qg89gvhdyjct089q5c",
        "value": 1036718
      },
      "scriptsig": "",
      "scriptsig_asm": "",
      "witness": [
        "3045022100af26ca79a37575b6a89fbc4af717392e3fbedfab5c2713fd704ee0656fa5bdd80220702fe475a30957432b8eab5214ec729c74119baaad96295dfff58b67531e0da201",
        "03a14a1895288dcac518a8488f7676bd2f53a9502fc99fbbd81fff5f6ce2db93d6"
      ],
      "is_coinbase": false,
      "sequence": 4294967295
    },
    {
      "txid": "d2e390f8715a515c238597cdc3a899d471196593fe71c4dfbfe80ce6f5797c47",
      "vout": 1895,
      "prevout": {
        "scriptpubkey": "0014f25d118773894486a5f8907d4020e5432ed24b0b",
        "scriptpubkey_asm": "OP_0 OP_PUSHBYTES_20 f25d118773894486a5f8907d4020e5432ed24b0b",
        "scriptpubkey_type": "v0_p2wpkh",
        "scriptpubkey_address": "bc1q7fw3rpmn39zgdf0cjp75qg89gvhdyjct089q5c",
        "value": 565475
      },
      "scriptsig": "",
      "scriptsig_asm": "",
      "witness": [
        "3045022100dd0c8752025ffaf69a0c67241be41b2c83eb3f3b7750564fbaf0636100d9dc2f0220708d15f9d668cd418d287b23e9f26f93146bad59ce33c9050bab6ad1245dc8e101",
        "03a14a1895288dcac518a8488f7676bd2f53a9502fc99fbbd81fff5f6ce2db93d6"
      ],
      "is_coinbase": false,
      "sequence": 4294967295
    },
    {
      "txid": "bea8bbb79bfc6ffa3c2488d525e867bd6dff2b2a99df5c66061586ed80749c75",
      "vout": 2156,
      "prevout": {
        "scriptpubkey": "0014f25d118773894486a5f8907d4020e5432ed24b0b",
        "scriptpubkey_asm": "OP_0 OP_PUSHBYTES_20 f25d118773894486a5f8907d4020e5432ed24b0b",
        "scriptpubkey_type": "v0_p2wpkh",
        "scriptpubkey_address": "bc1q7fw3rpmn39zgdf0cjp75qg89gvhdyjct089q5c",
        "value": 567424
      },
      "scriptsig": "",
      "scriptsig_asm": "",
      "witness": [
        "3044022035d2472d2eb8c84b36df01f853d14531a27a2a6f8f8d9a8b468a45198b32accb022032b04bb61a5066bcd1e9a01092182a073d194e5fc8fb0f63aa14339d3e96869801",
        "03a14a1895288dcac518a8488f7676bd2f53a9502fc99fbbd81fff5f6ce2db93d6"
      ],
      "is_coinbase": false,
      "sequence": 4294967295
    },
    {
      "txid": "09825b8c2d93a67659f9eccc549f9f30b8c75e3cfa51c8abeee235888b5dfd22",
      "vout": 2116,
      "prevout": {
        "scriptpubkey": "0014f25d118773894486a5f8907d4020e5432ed24b0b",
        "scriptpubkey_asm": "OP_0 OP_PUSHBYTES_20 f25d118773894486a5f8907d4020e5432ed24b0b",
        "scriptpubkey_type": "v0_p2wpkh",
        "scriptpubkey_address": "bc1q7fw3rpmn39zgdf0cjp75qg89gvhdyjct089q5c",
        "value": 559495
      },
      "scriptsig": "",
      "scriptsig_asm": "",
      "witness": [
        "3045022100d16a7ae1a34ca3167782e67fbd422839c3ccfef37392655a7aa192efec6ea55f022056cccc2b60c93c37f77404354e73ddc928803fce2c1d5befebf942614810009d01",
        "03a14a1895288dcac518a8488f7676bd2f53a9502fc99fbbd81fff5f6ce2db93d6"
      ],
      "is_coinbase": false,
      "sequence": 4294967295
    },
    {
      "txid": "96d1a8cfe56fc73ce57c932f08b86f0fd261fffbee757c5d24258f905dc245cf",
      "vout": 1,
      "prevout": {
        "scriptpubkey": "0014f25d118773894486a5f8907d4020e5432ed24b0b",
        "scriptpubkey_asm": "OP_0 OP_PUSHBYTES_20 f25d118773894486a5f8907d4020e5432ed24b0b",
        "scriptpubkey_type": "v0_p2wpkh",
        "scriptpubkey_address": "bc1q7fw3rpmn39zgdf0cjp75qg89gvhdyjct089q5c",
        "value": 473278
      },
      "scriptsig": "",
      "scriptsig_asm": "",
      "witness": [
        "30440220321b7fc67e568409e195d9c59ae2c669d432e0a0e61037f41cace444075ddb66022065c4667bec7719500f38d8f749872b5722ec8acc98b3070a8476043fc5b37eac01",
        "03a14a1895288dcac518a8488f7676bd2f53a9502fc99fbbd81fff5f6ce2db93d6"
      ],
      "is_coinbase": false,
      "sequence": 4294967295
    },
    {
      "txid": "29f4e74a662db4a389d644df3bb0d1515fcc22c90e3a7180924e456aae9fc299",
      "vout": 2024,
      "prevout": {
        "scriptpubkey": "0014f25d118773894486a5f8907d4020e5432ed24b0b",
        "scriptpubkey_asm": "OP_0 OP_PUSHBYTES_20 f25d118773894486a5f8907d4020e5432ed24b0b",
        "scriptpubkey_type": "v0_p2wpkh",
        "scriptpubkey_address": "bc1q7fw3rpmn39zgdf0cjp75qg89gvhdyjct089q5c",
        "value": 560877
      },
      "scriptsig": "",
      "scriptsig_asm": "",
      "witness": [
        "3045022100ad4dac1ccad7cdfcdb976c38d552fcb13a8d5049d7e3708f5f5ae4344afda83c022052c9cf04a16386b66800eb709e0787c9858cc9e6b7adaa05d5280941e144b58b01",
        "03a14a1895288dcac518a8488f7676bd2f53a9502fc99fbbd81fff5f6ce2db93d6"
      ],
      "is_coinbase": false,
      "sequence": 4294967295
    }
  ],
  "vout": [
    {
      "scriptpubkey": "a9145fbc5b217ca983fd1a4d5a4e6f7303c1269e7b6a87",
      "scriptpubkey_asm": "OP_HASH160 OP_PUSHBYTES_20 5fbc5b217ca983fd1a4d5a4e6f7303c1269e7b6a OP_EQUAL",
      "scriptpubkey_type": "p2sh",
      "scriptpubkey_address": "3ARDkyFBMwtbJhPyTS96XbtpnFAJoWYbJA",
      "value": 24072000
    },
    {
      "scriptpubkey": "0014f25d118773894486a5f8907d4020e5432ed24b0b",
      "scriptpubkey_asm": "OP_0 OP_PUSHBYTES_20 f25d118773894486a5f8907d4020e5432ed24b0b",
      "scriptpubkey_type": "v0_p2wpkh",
      "scriptpubkey_address": "bc1q7fw3rpmn39zgdf0cjp75qg89gvhdyjct089q5c",
      "value": 15704286
    }
  ],
  "size": 2455,
  "weight": 4642,
  "fee": 17302,
  "status": {
    "confirmed": true,
    "block_height": 834460,
    "block_hash": "00000000000000000000484a79b643b2524bbce82e5d8a442013fa5b8905ed98",
    "block_time": 1710307468
  },
  "hex": "0200000000011094769eb4808acd4b581808b562c80ff0155cca54e8cea38977c5971da9887ca63508000000ffffffff71bcede7819f9201a4a82c47eda16e5cfe0079294e0193ac1ea3ba867bbfcb17e606000000ffffffff0ccec0c0db6b5705bce71f0d0e13c905cd804b02f14e15873a4abea08aeaf7c6a207000000ffffffff490fcaa746c26ba66183a83772598ee640c4a977522eb6e199ad22411896bdbf5608000000ffffffff44dec1c91f4f62c7316658bf581b98bb6b59a3e671786276ea310fc60892bcb81800000000ffffffffd2477f391013c99924a2d864f648355e8a4ccc2daf5eaf82067babf0cb2d93650100000000ffffffffb2054441ec8c5b141f75ea5481e85c2daa287136d111cb48db8c6f14c3da35682f07000000ffffffff5fa539c12ba1cd54bc9cb7ef7abe7026528f20075bbc0a2bb588701be884b9a81f00000000ffffffff01318b5c0f3e24fda19cd1cb1c3335e95b9cc0d58816649e8c54b8957cf915a61809000000ffffffffd6e3e2ed720eae0979142e62702798cf35d3bf77fafb25221cf9a217e197a4543300000000ffffffff7f6ec338a24a2ea090fe7b675e39a6e8ccbc5faec5894800373e7d28a4307124cf03000000ffffffff477c79f5e60ce8bfdfc471fe93651971d499a8c3cd9785235c515a71f890e3d26707000000ffffffff759c7480ed861506665cdf992a2bff6dbd67e825d588243cfa6ffc9bb7bba8be6c08000000ffffffff22fd5d8b8835e2eeabc851fa3c5ec7b8309f9f54ccecf95976a6932d8c5b82094408000000ffffffffcf45c25d908f25245d7c75eefbff61d20f6fb8082f937ce53cc76fe5cfa8d1960100000000ffffffff99c29fae6a454e9280713a0ec922cc5f51d1b03bdf44d689a3b42d664ae7f429e807000000ffffffff02404f6f010000000017a9145fbc5b217ca983fd1a4d5a4e6f7303c1269e7b6a87dea0ef0000000000160014f25d118773894486a5f8907d4020e5432ed24b0b02483045022100845ef9933e2482605145301f4119022e10ec5e95566cb1a595692d59df5ff54f022069846399e1becc057b90e8cffc8a6018af8a45bcaaa97d0eb8d03eb182a21025012103a14a1895288dcac518a8488f7676bd2f53a9502fc99fbbd81fff5f6ce2db93d602473044022060d0d500aed7e506549de732828ebd4001fcfa442c5e81998a06cfb0cc64dadc02206fb1be975d15e6ed371afdc5de5550a4a0766d1b7495febfcee71a4661ef5f21012103a14a1895288dcac518a8488f7676bd2f53a9502fc99fbbd81fff5f6ce2db93d602483045022100d4fb37428f2597266b1221c92d50b2014bbcde92fe52aa96c34866174d393c4c0220624c0a153d6458b42eb515a6fe3f275705840a142df7fe5d9a679ffa2cf6d6db012103a14a1895288dcac518a8488f7676bd2f53a9502fc99fbbd81fff5f6ce2db93d602483045022100adf1bc6f1ed4f65bf21566a724a39c12629835f1198971018a2f28e427b26cbb022075516409092c929d71d97050295900a03099d239300e6ac98787195c82718f59012103a14a1895288dcac518a8488f7676bd2f53a9502fc99fbbd81fff5f6ce2db93d602483045022100d6603b8b5da6d83e3f29a0e4f49bb57831eb2ff32e4ed4ed36d27ece176508e502203165624b22282d46634d9eda7e5cb6e921ba562536b5a7080644107307bc23d4012103a14a1895288dcac518a8488f7676bd2f53a9502fc99fbbd81fff5f6ce2db93d602483045022100efa7ab0563d9d8a082d6402e0e79349c38d0ca458002cd69934aa2e7841fd49802206d7889a42567c72d9ccb59b46b53c22c1715bf931f6ed306114ea696268acd6d012103a14a1895288dcac518a8488f7676bd2f53a9502fc99fbbd81fff5f6ce2db93d602483045022100875e84e29b1d4d33f9d4dacdf677106dffc9fff66c6c1a69aeb07ef233ed4d6e02206aa690a08166977ba891aae3fe78046e3e614e9f85bba522ab5454e39df6acf5012103a14a1895288dcac518a8488f7676bd2f53a9502fc99fbbd81fff5f6ce2db93d60248304502210096fb7650f2e888337b7e9dacc3679c255269513fc2607d5155f1aa66371affc60220433fb37e133de38920a506045c9e1c22243aff39692ba7dc9302328e5e5cd741012103a14a1895288dcac518a8488f7676bd2f53a9502fc99fbbd81fff5f6ce2db93d6024730440220657f9befd78835c3116bc003d0259b422759df8cc4ac96c7548436393a2987df02203e31a114ff0b91392ed7165e4377d76b901a58ee1ae3d85bc04ff8006a48efa5012103a14a1895288dcac518a8488f7676bd2f53a9502fc99fbbd81fff5f6ce2db93d602483045022100f6c6e7c2ce4d2082988eb0c0c3bf15c6dc423829e69ee862fd7ee83b249d6fdb0220589284f5d9f1225f53730a144fed7d0011c38f7ca9b34a7bfc9c9b6847e83169012103a14a1895288dcac518a8488f7676bd2f53a9502fc99fbbd81fff5f6ce2db93d602483045022100af26ca79a37575b6a89fbc4af717392e3fbedfab5c2713fd704ee0656fa5bdd80220702fe475a30957432b8eab5214ec729c74119baaad96295dfff58b67531e0da2012103a14a1895288dcac518a8488f7676bd2f53a9502fc99fbbd81fff5f6ce2db93d602483045022100dd0c8752025ffaf69a0c67241be41b2c83eb3f3b7750564fbaf0636100d9dc2f0220708d15f9d668cd418d287b23e9f26f93146bad59ce33c9050bab6ad1245dc8e1012103a14a1895288dcac518a8488f7676bd2f53a9502fc99fbbd81fff5f6ce2db93d602473044022035d2472d2eb8c84b36df01f853d14531a27a2a6f8f8d9a8b468a45198b32accb022032b04bb61a5066bcd1e9a01092182a073d194e5fc8fb0f63aa14339d3e968698012103a14a1895288dcac518a8488f7676bd2f53a9502fc99fbbd81fff5f6ce2db93d602483045022100d16a7ae1a34ca3167782e67fbd422839c3ccfef37392655a7aa192efec6ea55f022056cccc2b60c93c37f77404354e73ddc928803fce2c1d5befebf942614810009d012103a14a1895288dcac518a8488f7676bd2f53a9502fc99fbbd81fff5f6ce2db93d6024730440220321b7fc67e568409e195d9c59ae2c669d432e0a0e61037f41cace444075ddb66022065c4667bec7719500f38d8f749872b5722ec8acc98b3070a8476043fc5b37eac012103a14a1895288dcac518a8488f7676bd2f53a9502fc99fbbd81fff5f6ce2db93d602483045022100ad4dac1ccad7cdfcdb976c38d552fcb13a8d5049d7e3708f5f5ae4344afda83c022052c9cf04a16386b66800eb709e0787c9858cc9e6b7adaa05d5280941e144b58b012103a14a1895288dcac518a8488f7676bd2f53a9502fc99fbbd81fff5f6ce2db93d600000000"
}