{
  "txid": "b166435d26e62b7e9bdaa5ba45c861e810d8db63cbafd9f2ac02514dea4d426d",
  "version": 2,
  "locktime": 0,
  "vin": [
    {
      "txid": "9b1f10b8f0b0e3044ce6ffb3115e4ec4dfc5b47c0e2fb1226f3bfce2567c4246",
      "vout": 0,
      "prevout": {
        "scriptpubkey": "0014db1019a7e135d164fc3c00f4a4e6bf91d83e9c22",
        "scriptpubkey_asm": "OP_0 OP_PUSHBYTES_20 db1019a7e135d164fc3c00f4a4e6bf91d83e9c22",
        "scriptpubkey_type": "v0_p2wpkh",
        "scriptpubkey_address": "bc1qmvgpnflpxhgkflpuqr62fe4lj8vra8pzzxdlfs",
        "value": 6279238
      },
      "scriptsig": "",
      "scriptsig_asm": "",
      "witness": [
        "3045022100bae8ffc03cd0272efb946f9ce8b909994bda3496d224ab7d2d0cf1211ac1800802205e1ac476a5704d4bb1fdf384058af12ba9891728b2ffb89d8a6df13c7afc4ede01",
        "024c4e6b04e61c1064d71e19d2b97c82d9e1d2e6d8f1ef4ba2bcc3b27ef021857a"
      ],
      "is_coinbase": false,
      "sequence": 4294967293
    }
  ],
  "vout": [
    {
      "scriptpubkey": "0014db1019a7e135d164fc3c00f4a4e6bf91d83e9c22",
      "scriptpubkey_asm": "OP_0 OP_PUSHBYTES_20 db1019a7e135d164fc3c00f4a4e6bf91d83e9c22",
      "scriptpubkey_type": "v0_p2wpkh",
      "scriptpubkey_address": "bc1qmvgpnflpxhgkflpuqr62fe4lj8vra8pzzxdlfs",
      "value": 6063042
    },
    {
      "scriptpubkey": "a914aacc16c5b489f382705294517c41ea7b07255cef87",
      "scriptpubkey_asm": "OP_HASH160 OP_PUSHBYTES_20 aacc16c5b489f382705294517c41ea7b07255cef OP_EQUAL",
      "scriptpubkey_type": "p2sh",
      "scriptpubkey_address": "3HG7HWBvco5gKyDmPqJ8GmYxcvkgdGeB82",
      "value": 214666
    }
  ],
  "size": 224,
  "weight": 566,
  "fee": 1530,
  "status": {
    "confirmed": true,
    "block_height": 834464,
    "block_hash": "0000000000000000000177a0869a911a2b65c9bdcd5a8bcb02b68f305bee848e",
    "block_time": 1710308296
  },
  "hex": "0200000000010146427c56e2fc3b6f22b12f0e7cb4c5dfc44e5e11b3ffe64c04e3b0f0b8101f9b0000000000fdffffff02c2835c0000000000160014db1019a7e135d164fc3c00f4a4e6bf91d83e9c228a4603000000000017a914aacc16c5b489f382705294517c41ea7b07255cef8702483045022100bae8ffc03cd0272efb946f9ce8b909994bda3496d224ab7d2d0cf1211ac1800802205e1ac476a5704d4bb1fdf384058af12ba9891728b2ffb89d8a6df13c7afc4ede0121024c4e6b04e61c1064d71e19d2b97c82d9e1d2e6d8f1ef4ba2bcc3b27ef021857a00000000"
}