{
  "txid": "b17f07860b0c14e2bc6d34e195627d0dc4adece75d134042e84603cd96939578",
  "version": 1,
  "locktime": 0,
  "vin": [
    {
      "txid": "3bb0f5e2e47561ee3a9e42745abe8f3fcf8dfe81eb663068fd532252e3455c26",
      "vout": 0,
      "prevout": {
        "scriptpubkey": "0014c9296067aeb13048a8af7ec9da6082b8a630756b",
        "scriptpubkey_asm": "OP_0 OP_PUSHBYTES_20 c9296067aeb13048a8af7ec9da6082b8a630756b",
        "scriptpubkey_type": "v0_p2wpkh",
        "scriptpubkey_address": "bc1qey5kqeawkycy32900mya5cyzhznrqattnl3eps",
        "value": 36082
      },
      "scriptsig": "",
      "scriptsig_asm": "",
      "witness": [
        "30450221008b19ecb2ded097b92bd987b1034e29e875e051e61490d67e29056cfced4dc68d022037dd0267ba8bf4a06355ce0000d95d7e2370eaccbf08ea792c17237685fee62301",
        "03681a1ed576e501f7c5ea5b3f3ff010d98f8c6f14c489bd697df19606ae7a9883"
      ],
      "is_coinbase": false,
      "sequence": 4294967295
    }
  ],
  "vout": [
    {
      "scriptpubkey": "76a914e62b4bfe56efeb261e50e94f8507ac84144e803588ac",
      "scriptpubkey_asm": "OP_DUP OP_HASH160 OP_PUSHBYTES_20 e62b4bfe56efeb261e50e94f8507ac84144e8035 OP_EQUALVERIFY OP_CHECKSIG",
      "scriptpubkey_type": "p2pkh",
      "scriptpubkey_address": "1Mz2HSTJ1SUpfZ8it6inJMmUYJT1D6irWD",
      "value": 33031
    }
  ],
  "size": 195,
  "weight": 450,
  "fee": 3051,
  "status": {
    "confirmed": true,
    "block_height": 834638,
    "block_hash": "000000000000000000025f742c626208ac87e0b7d15054abb4a19ca2d735a54e",
    "block_time": 1710405325
  },
  "hex": "01000000000101265c45e3522253fd683066eb81fe8dcf3f8fbe5a74429e3aee6175e4e2f5b03b0000000000ffffffff0107810000000000001976a914e62b4bfe56efeb261e50e94f8507ac84144e803588ac024830450221008b19ecb2ded097b92bd987b1034e29e875e051e61490d67e29056cfced4dc68d022037dd0267ba8bf4a06355ce0000d95d7e2370eaccbf08ea792c17237685fee623012103681a1ed576e501f7c5ea5b3f3ff010d98f8c6f14c489bd697df19606ae7a988300000000"
}