{
  "txid": "b1b478c53c757ccbaa756ba54451fc299d60af76987008552b6feaa09bdacf3b",
  "version": 1,
  "locktime": 0,
  "vin": [
    {
      "txid": "878eab3e45e35160e4b7555e64b1907b1e81141389f0a2a809fac7486a159c0a",
      "vout": 0,
      "prevout": {
        "scriptpubkey": "001412582363e407729a19ba86508f00773a1bc572d5",
        "scriptpubkey_asm": "OP_0 OP_PUSHBYTES_20 12582363e407729a19ba86508f00773a1bc572d5",
        "scriptpubkey_type": "v0_p2wpkh",
        "scriptpubkey_address": "bc1qzfvzxclyqaef5xd6segg7qrh8gdu2uk4r39kng",
        "value": 72346278
      },
      "scriptsig": "",
      "scriptsig_asm": "",
      "witness": [
        "3044022047eec0e5bbffae30ae09e53e97edf00b73c20ebd47336bc74b0d1791ee49ecbf02204f7086c0411346a47a69a59ab10e40b161487f657cba8068721ec685ac62f1b801",
        "037485584474ed1581711467c97911a4930db6f54e20d3c65395dac5317cf6c167"
      ],
      "is_coinbase": false,
      "sequence": 4294967293
    }
  ],
  "vout": [
    {
      "scriptpubkey": "0014b76a48ceb2e489fb7f5dc3bdf251ecca9b6a5528",
      "scriptpubkey_asm": "OP_0 OP_PUSHBYTES_20 b76a48ceb2e489fb7f5dc3bdf251ecca9b6a5528",
      "scriptpubkey_type": "v0_p2wpkh",
      "scriptpubkey_address": "bc1qka4y3n4jujylkl6acw7ly50ve2dk54fgu9yp9c",
      "value": 370631
    },
    {
      "scriptpubkey": "00147cdee1768d972bbf4dfd9850bc44fda01f1157ab",
      "scriptpubkey_asm": "OP_0 OP_PUSHBYTES_20 7cdee1768d972bbf4dfd9850bc44fda01f1157ab",
      "scriptpubkey_type": "v0_p2wpkh",
      "scriptpubkey_address": "bc1q0n0wza5dju4m7n0anpgtc38a5q03z4ata2fn5t",
      "value": 71974942
    }
  ],
  "size": 222,
  "weight": 561,
  "fee": 705,
  "status": {
    "confirmed": true,
    "block_height": 834464,
    "block_hash": "0000000000000000000177a0869a911a2b65c9bdcd5a8bcb02b68f305bee848e",
    "block_time": 1710308296
  },
  "hex": "010000000001010a9c156a48c7fa09a8a2f0891314811e7b90b1645e55b7e46051e3453eab8e870000000000fdffffff02c7a7050000000000160014b76a48ceb2e489fb7f5dc3bdf251ecca9b6a55281e404a04000000001600147cdee1768d972bbf4dfd9850bc44fda01f1157ab02473044022047eec0e5bbffae30ae09e53e97edf00b73c20ebd47336bc74b0d1791ee49ecbf02204f7086c0411346a47a69a59ab10e40b161487f657cba8068721ec685ac62f1b80121037485584474ed1581711467c97911a4930db6f54e20d3c65395dac5317cf6c16700000000"
}