{
  "txid": "b205142a83648a3b042b1ede7da30ba12746a23b11e8d075349b17d6bbcb867d",
  "version": 2,
  "locktime": 0,
  "vin": [
    {
      "txid": "a71d4ad73565cf6e84eb9abb42c8322cd9cd1822331feaf6b22b88b1747113df",
      "vout": 0,
      "prevout": {
        "scriptpubkey": "76a91426c6a9a308e33bf5b0aa26fa2d38932d32601f4c88ac",
        "scriptpubkey_asm": "OP_DUP OP_HASH160 OP_PUSHBYTES_20 26c6a9a308e33bf5b0aa26fa2d38932d32601f4c OP_EQUALVERIFY OP_CHECKSIG",
        "scriptpubkey_type": "p2pkh",
        "scriptpubkey_address": "14Y2fcVvhrhdgz9e2YWWYdV3iHzUK93vau",
        "value": 90000000
      },
      "scriptsig": "483045022100916e6a21cc0c842ce12dfee3fefaa713656f3bc0b5d51910f9dae7efdb641fb3022062808d760aac135497fc6aa5d88e02c242d01df98c7ae7e1d1637149ab34e76e012103a77bcc4b75f8cca3a24fe7b6acaacc80dc3bb0aa4bae613be009400f2cb33997",
      "scriptsig_asm": "OP_PUSHBYTES_72 3045022100916e6a21cc0c842ce12dfee3fefaa713656f3bc0b5d51910f9dae7efdb641fb3022062808d760aac135497fc6aa5d88e02c242d01df98c7ae7e1d1637149ab34e76e01 OP_PUSHBYTES_33 03a77bcc4b75f8cca3a24fe7b6acaacc80dc3bb0aa4bae613be009400f2cb33997",
      "is_coinbase": false,
      "sequence": 4294967293
    }
  ],
  "vout": [
    {
      "scriptpubkey": "76a91468d5aac8b935dfc4ea8c62596adacbc90312fddc88ac",
      "scriptpubkey_asm": "OP_DUP OP_HASH160 OP_PUSHBYTES_20 68d5aac8b935dfc4ea8c62596adacbc90312fddc OP_EQUALVERIFY OP_CHECKSIG",
      "scriptpubkey_type": "p2pkh",
      "scriptpubkey_address": "1AZKEoYbKX3VFMRwTQG15Tep9GmB8ZMjkH",
      "value": 1000000
    },
    {
      "scriptpubkey": "00140439cc24f606794036ff377ab147287364a30b66",
      "scriptpubkey_asm": "OP_0 OP_PUSHBYTES_20 0439cc24f606794036ff377ab147287364a30b66",
      "scriptpubkey_type": "v0_p2wpkh",
      "scriptpubkey_address": "bc1qqsuucf8kqeu5qdhlxaatz3egwdj2xzmx9wl4ac",
      "value": 88992994
    }
  ],
  "size": 223,
  "weight": 892,
  "fee": 7006,
  "status": {
    "confirmed": true,
    "block_height": 834460,
    "block_hash": "00000000000000000000484a79b643b2524bbce82e5d8a442013fa5b8905ed98",
    "block_time": 1710307468
  },
  "hex": "0200000001df137174b1882bb2f6ea1f332218cdd92c32c842bb9aeb846ecf6535d74a1da7000000006b483045022100916e6a21cc0c842ce12dfee3fefaa713656f3bc0b5d51910f9dae7efdb641fb3022062808d760aac135497fc6aa5d88e02c242d01df98c7ae7e1d1637149ab34e76e012103a77bcc4b75f8cca3a24fe7b6acaacc80dc3bb0aa4bae613be009400f2cb33997fdffffff0240420f00000000001976a91468d5aac8b935dfc4ea8c62596adacbc90312fddc88ace2ec4d05000000001600140439cc24f606794036ff377ab147287364a30b6600000000"
}