{
  "txid": "b2561c42301a454fb19496d17c2720be1175c3f71f56d0941b7df8b40e372a95",
  "version": 1,
  "locktime": 0,
  "vin": [
    {
      "txid": "3e97c4a87ff7c9d1c4d7fdeed2dfbd88ef7f3ea892ecf9fd1db51e1cb9e9b1b3",
      "vout": 1,
      "prevout": {
        "scriptpubkey": "0014fee280141d858d4048606b1379c35e291248b7f1",
        "scriptpubkey_asm": "OP_0 OP_PUSHBYTES_20 fee280141d858d4048606b1379c35e291248b7f1",
        "scriptpubkey_type": "v0_p2wpkh",
        "scriptpubkey_address": "bc1qlm3gq9qaskx5qjrqdvfhns679yfy3dl3yvarqn",
        "value": 3681
      },
      "scriptsig": "",
      "scriptsig_asm": "",
      "witness": [
        "3045022100a0e08acb23862855bbea74223edd7afa2b342f511b57fbcbda0b3510b897126702204eeaddc3efd0eaac857ee564ccce970d89a859f3b10a67f63ee18bfca6e5e79a01",
        "02a8f5949f0c3ca311ba263f8db5ef6fd6af6b35d95422d681fd7c937f23ba5ece"
      ],
      "is_coinbase": false,
      "sequence": 0
    },
    {
      "txid": "00000a863b3a9e8bc81a5c76c96869db02d9a4cb3a8343694a0009451568636f",
      "vout": 1,
      "prevout": {
        "scriptpubkey": "0014fee280141d858d4048606b1379c35e291248b7f1",
        "scriptpubkey_asm": "OP_0 OP_PUSHBYTES_20 fee280141d858d4048606b1379c35e291248b7f1",
        "scriptpubkey_type": "v0_p2wpkh",
        "scriptpubkey_address": "bc1qlm3gq9qaskx5qjrqdvfhns679yfy3dl3yvarqn",
        "value": 786
      },
      "scriptsig": "",
      "scriptsig_asm": "",
      "witness": [
        "304402200d7eaeff579766fca86cfb4fece9812a70bd5f458b0b9e5b36ba57ad0933068d0220099c92d960a3a8883d2af35e4360daecfdb77334446e3b600c07acddaf8b572901",
        "02a8f5949f0c3ca311ba263f8db5ef6fd6af6b35d95422d681fd7c937f23ba5ece"
      ],
      "is_coinbase": false,
      "sequence": 4294967295
    },
    {
      "txid": "00006eab144ee1b6419833d4e662f5e9e19efbe352b3be030864fe52657495ea",
      "vout": 1,
      "prevout": {
        "scriptpubkey": "0014fee280141d858d4048606b1379c35e291248b7f1",
        "scriptpubkey_asm": "OP_0 OP_PUSHBYTES_20 fee280141d858d4048606b1379c35e291248b7f1",
        "scriptpubkey_type": "v0_p2wpkh",
        "scriptpubkey_address": "bc1qlm3gq9qaskx5qjrqdvfhns679yfy3dl3yvarqn",
        "value": 697
      },
      "scriptsig": "",
      "scriptsig_asm": "",
      "witness": [
        "30440220624d3019fa7bca30d8e3e97b1ccf3d6c67abe51fe407936341183512e554e4ee022052b2349e9e1168e76048ed7dce7d76d5740132117365c99dfb496a294bed253101",
        "02a8f5949f0c3ca311ba263f8db5ef6fd6af6b35d95422d681fd7c937f23ba5ece"
      ],
      "is_coinbase": false,
      "sequence": 4294967295
    }
  ],
  "vout": [
    {
      "scriptpubkey": "5120630f8c417c39fe3dde680e13b18f814d341d980b97ab6dc973a7db33c2b55f55",
      "scriptpubkey_asm": "OP_PUSHNUM_1 OP_PUSHBYTES_32 630f8c417c39fe3dde680e13b18f814d341d980b97ab6dc973a7db33c2b55f55",
      "scriptpubkey_type": "v1_p2tr",
      "scriptpubkey_address": "bc1pvv8ccstu88lrmhngpcfmrrupf56pmxqtj74kmjtn5ldn8s44ta2s3jskq9",
      "value": 3063
    }
  ],
  "size": 500,
  "weight": 1028,
  "fee": 2101,
  "status": {
    "confirmed": true,
    "block_height": 834464,
    "block_hash": "0000000000000000000177a0869a911a2b65c9bdcd5a8bcb02b68f305bee848e",
    "block_time": 1710308296
  },
  "hex": "01000000000103b3b1e9b91c1eb51dfdf9ec92a83e7fef88bddfd2eefdd7c4d1c9f77fa8c4973e0100000000000000006f6368154509004a6943833acba4d902db6968c9765c1ac88b9e3a3b860a00000100000000ffffffffea95746552fe640803beb352e3fb9ee1e9f562e6d4339841b6e14e14ab6e00000100000000ffffffff01f70b000000000000225120630f8c417c39fe3dde680e13b18f814d341d980b97ab6dc973a7db33c2b55f5502483045022100a0e08acb23862855bbea74223edd7afa2b342f511b57fbcbda0b3510b897126702204eeaddc3efd0eaac857ee564ccce970d89a859f3b10a67f63ee18bfca6e5e79a012102a8f5949f0c3ca311ba263f8db5ef6fd6af6b35d95422d681fd7c937f23ba5ece0247304402200d7eaeff579766fca86cfb4fece9812a70bd5f458b0b9e5b36ba57ad0933068d0220099c92d960a3a8883d2af35e4360daecfdb77334446e3b600c07acddaf8b5729012102a8f5949f0c3ca311ba263f8db5ef6fd6af6b35d95422d681fd7c937f23ba5ece024730440220624d3019fa7bca30d8e3e97b1ccf3d6c67abe51fe407936341183512e554e4ee022052b2349e9e1168e76048ed7dce7d76d5740132117365c99dfb496a294bed2531012102a8f5949f0c3ca311ba263f8db5ef6fd6af6b35d95422d681fd7c937f23ba5ece00000000"
}