{
  "txid": "b26b80ba9aef7d5550c2aed207cab3fa463a3fad2fbde60570a17f8e054b10af",
  "version": 2,
  "locktime": 834637,
  "vin": [
    {
      "txid": "295ad05defb650cee4cd5c37f4a05c40c66e4289aa227ed2cea03a6ad4f6144d",
      "vout": 0,
      "prevout": {
        "scriptpubkey": "001464d3a83d69d3980774358ba9d0009c1c28b47996",
        "scriptpubkey_asm": "OP_0 OP_PUSHBYTES_20 64d3a83d69d3980774358ba9d0009c1c28b47996",
        "scriptpubkey_type": "v0_p2wpkh",
        "scriptpubkey_address": "bc1qvnf6s0tf6wvqwap43w5aqqyurs5tg7vkk83rmq",
        "value": 546000
      },
      "scriptsig": "",
      "scriptsig_asm": "",
      "witness": [
        "304402203627d20d24955abfc6ede8f5f850cecbac57a608c336b1a078aedccc3f9734df0220346f7409d349cd7b90aeca28e8816550b6f805fc84e25b0f504ff1b8ddd43b7d01",
        "02ab4d37994e09ef29e269eb417c6535b7b54d84d3210d072a9ca229a42bca72de"
      ],
      "is_coinbase": false,
      "sequence": 4294967294
    }
  ],
  "vout": [
    {
      "scriptpubkey": "76a914318289aee3c464c022de306f1ab7cb72f438da9388ac",
      "scriptpubkey_asm": "OP_DUP OP_HASH160 OP_PUSHBYTES_20 318289aee3c464c022de306f1ab7cb72f438da93 OP_EQUALVERIFY OP_CHECKSIG",
      "scriptpubkey_type": "p2pkh",
      "scriptpubkey_address": "15WnVKxFMsfGVdyxUqFcU3v2vHJkBLZbQt",
      "value": 541135
    }
  ],
  "size": 194,
  "weight": 449,
  "fee": 4865,
  "status": {
    "confirmed": true,
    "block_height": 834638,
    "block_hash": "000000000000000000025f742c626208ac87e0b7d15054abb4a19ca2d735a54e",
    "block_time": 1710405325
  },
  "hex": "020000000001014d14f6d46a3aa0ced27e22aa89426ec6405ca0f4375ccde4ce50b6ef5dd05a290000000000feffffff01cf410800000000001976a914318289aee3c464c022de306f1ab7cb72f438da9388ac0247304402203627d20d24955abfc6ede8f5f850cecbac57a608c336b1a078aedccc3f9734df0220346f7409d349cd7b90aeca28e8816550b6f805fc84e25b0f504ff1b8ddd43b7d012102ab4d37994e09ef29e269eb417c6535b7b54d84d3210d072a9ca229a42bca72de4dbc0c00"
}