{
  "txid": "b26b387fd7a69d9d8b9d6b9976e388e303bcb8efa24a0e1aa083ab502633da5a",
  "version": 2,
  "locktime": 0,
  "vin": [
    {
      "txid": "659b82bf51c32df260f3e3563d90fcbcb0098209af4d18020ca9e1a619ccc8c8",
      "vout": 3,
      "prevout": {
        "scriptpubkey": "5120fb2ad7ee4eee5c7e2938c9b90d53bb430df3ed55765844a8e2e30e3b3f5e57b5",
        "scriptpubkey_asm": "OP_PUSHNUM_1 OP_PUSHBYTES_32 fb2ad7ee4eee5c7e2938c9b90d53bb430df3ed55765844a8e2e30e3b3f5e57b5",
        "scriptpubkey_type": "v1_p2tr",
        "scriptpubkey_address": "bc1plv4d0mjwaew8u2fcexus65amgvxl8m24wevyf28zuv8rk067276svw5cp4",
        "value": 1931
      },
      "scriptsig": "",
      "scriptsig_asm": "",
      "witness": [
        "2bb6ae4c581df14691c901c1c4809cf0c949021da12d23863c54359596f1bba9c60c8be0dddde94fa172cf02bcbd55e25ab5750656efd43eedcdb3aad5550403",
        "20772142ce37bcbe691d1fc061ec4e77486ecc8df20119bd1e6d20d7431ac79a68ac0063036f726401010a746578742f706c61696e00367b2270223a226272632d3230222c226f70223a226d696e74222c227469636b223a2261616161222c22616d74223a223130303030227d68",
        "c0772142ce37bcbe691d1fc061ec4e77486ecc8df20119bd1e6d20d7431ac79a68"
      ],
      "is_coinbase": false,
      "sequence": 4261412863
    }
  ],
  "vout": [
    {
      "scriptpubkey": "0014be9f0c070a9b1bd40f5fcb06fba89738d936ceb6",
      "scriptpubkey_asm": "OP_0 OP_PUSHBYTES_20 be9f0c070a9b1bd40f5fcb06fba89738d936ceb6",
      "scriptpubkey_type": "v0_p2wpkh",
      "scriptpubkey_address": "bc1qh60scpc2nvdagr6levr0h2yh8rvndn4k4v5s9g",
      "value": 294
    }
  ],
  "size": 295,
  "weight": 541,
  "fee": 1637,
  "status": {
    "confirmed": true,
    "block_height": 834460,
    "block_hash": "00000000000000000000484a79b643b2524bbce82e5d8a442013fa5b8905ed98",
    "block_time": 1710307468
  },
  "hex": "02000000000101c8c8cc19a6e1a90c02184daf098209b0bcfc903d56e3f360f22dc351bf829b650300000000fffffffd012601000000000000160014be9f0c070a9b1bd40f5fcb06fba89738d936ceb603402bb6ae4c581df14691c901c1c4809cf0c949021da12d23863c54359596f1bba9c60c8be0dddde94fa172cf02bcbd55e25ab5750656efd43eedcdb3aad55504036e20772142ce37bcbe691d1fc061ec4e77486ecc8df20119bd1e6d20d7431ac79a68ac0063036f726401010a746578742f706c61696e00367b2270223a226272632d3230222c226f70223a226d696e74222c227469636b223a2261616161222c22616d74223a223130303030227d6821c0772142ce37bcbe691d1fc061ec4e77486ecc8df20119bd1e6d20d7431ac79a6800000000"
}