{
  "txid": "b26fb04a5fa4f8b18a8e283a15a471230e1e5fffd30fd8dc4f57a0a1722cb270",
  "version": 2,
  "locktime": 834637,
  "vin": [
    {
      "txid": "1f1a8995a1e8990ee9f48570ca985089e84513b9f279fd7f4ead59a67b661744",
      "vout": 1,
      "prevout": {
        "scriptpubkey": "001499eccad92b32ccdb035b0da4df9b7d24ecc01757",
        "scriptpubkey_asm": "OP_0 OP_PUSHBYTES_20 99eccad92b32ccdb035b0da4df9b7d24ecc01757",
        "scriptpubkey_type": "v0_p2wpkh",
        "scriptpubkey_address": "bc1qn8kv4kftxtxdkq6mpkjdlxmaynkvq96h46809y",
        "value": 880203
      },
      "scriptsig": "",
      "scriptsig_asm": "",
      "witness": [
        "3044022022e384adee8b24715eef9421a85b3fe7ba926624b284c9639ea7057ea39d02790220068ceda3524b99af8e059a9dc3d3dbd89cc69cb268ec332c42876b0b9abeb9f301",
        "026b193665dcb7c1af5529d673d995739ce2d4f682d28e1f48e111f0fba30a9157"
      ],
      "is_coinbase": false,
      "sequence": 4294967293
    }
  ],
  "vout": [
    {
      "scriptpubkey": "0014de28235705013e94ca6fd7178f6ae2c6d642c8be",
      "scriptpubkey_asm": "OP_0 OP_PUSHBYTES_20 de28235705013e94ca6fd7178f6ae2c6d642c8be",
      "scriptpubkey_type": "v0_p2wpkh",
      "scriptpubkey_address": "bc1qmc5zx4c9qylffjn06utc76hzcmty9j976fla9y",
      "value": 371486
    },
    {
      "scriptpubkey": "00141c97ddf7ea19735b79adf605e8b8563d319c58e9",
      "scriptpubkey_asm": "OP_0 OP_PUSHBYTES_20 1c97ddf7ea19735b79adf605e8b8563d319c58e9",
      "scriptpubkey_type": "v0_p2wpkh",
      "scriptpubkey_address": "bc1qrjtamal2r9e4k7dd7cz73wzk85ceck8fxlu7af",
      "value": 503007
    }
  ],
  "size": 222,
  "weight": 561,
  "fee": 5710,
  "status": {
    "confirmed": true,
    "block_height": 834638,
    "block_hash": "000000000000000000025f742c626208ac87e0b7d15054abb4a19ca2d735a54e",
    "block_time": 1710405325
  },
  "hex": "020000000001014417667ba659ad4e7ffd79f2b91345e8895098ca7085f4e90e99e8a195891a1f0100000000fdffffff021eab050000000000160014de28235705013e94ca6fd7178f6ae2c6d642c8bedfac0700000000001600141c97ddf7ea19735b79adf605e8b8563d319c58e902473044022022e384adee8b24715eef9421a85b3fe7ba926624b284c9639ea7057ea39d02790220068ceda3524b99af8e059a9dc3d3dbd89cc69cb268ec332c42876b0b9abeb9f30121026b193665dcb7c1af5529d673d995739ce2d4f682d28e1f48e111f0fba30a91574dbc0c00"
}