{
  "txid": "b27bcbeae0d3682814c3f308d66d77da0ce24c2a41c130f39a5768d30b64f5b6",
  "version": 2,
  "locktime": 0,
  "vin": [
    {
      "txid": "beea9912a19e25740ecaa80be745c9098982c93088557c1965f985424dcfa139",
      "vout": 2,
      "prevout": {
        "scriptpubkey": "0014f60834ef165253c571b11ce9fa74e46692fc5ec1",
        "scriptpubkey_asm": "OP_0 OP_PUSHBYTES_20 f60834ef165253c571b11ce9fa74e46692fc5ec1",
        "scriptpubkey_type": "v0_p2wpkh",
        "scriptpubkey_address": "bc1q7cyrfmck2ffu2ud3rn5l5a8yv6f0chkp0zpemf",
        "value": 703750288
      },
      "scriptsig": "",
      "scriptsig_asm": "",
      "witness": [
        "3045022100c5fccdfa400e6fa78e1a335472a0f1925dbdbdbe97bfc37b5d694a2cf6974c4802201118538df7fda257a11b68b57e1ded571e116c91fef5a61991b7a2474ec45d9f01",
        "026e5628506ecd33242e5ceb5fdafe4d3066b5c0f159b3c05a621ef65f177ea286"
      ],
      "is_coinbase": false,
      "sequence": 4294967293
    }
  ],
  "vout": [
    {
      "scriptpubkey": "001421d8e9b84f28baa0a6553eb22f1574df3f29133c",
      "scriptpubkey_asm": "OP_0 OP_PUSHBYTES_20 21d8e9b84f28baa0a6553eb22f1574df3f29133c",
      "scriptpubkey_type": "v0_p2wpkh",
      "scriptpubkey_address": "bc1qy8vwnwz09za2pfj486ez79t5muljjyeu4tsgqm",
      "value": 120190
    },
    {
      "scriptpubkey": "0014f60834ef165253c571b11ce9fa74e46692fc5ec1",
      "scriptpubkey_asm": "OP_0 OP_PUSHBYTES_20 f60834ef165253c571b11ce9fa74e46692fc5ec1",
      "scriptpubkey_type": "v0_p2wpkh",
      "scriptpubkey_address": "bc1q7cyrfmck2ffu2ud3rn5l5a8yv6f0chkp0zpemf",
      "value": 703627218
    }
  ],
  "size": 223,
  "weight": 562,
  "fee": 2880,
  "status": {
    "confirmed": true,
    "block_height": 834464,
    "block_hash": "0000000000000000000177a0869a911a2b65c9bdcd5a8bcb02b68f305bee848e",
    "block_time": 1710308296
  },
  "hex": "0200000000010139a1cf4d4285f965197c558830c9828909c945e70ba8ca0e74259ea11299eabe0200000000fdffffff027ed501000000000016001421d8e9b84f28baa0a6553eb22f1574df3f29133cd27ff02900000000160014f60834ef165253c571b11ce9fa74e46692fc5ec102483045022100c5fccdfa400e6fa78e1a335472a0f1925dbdbdbe97bfc37b5d694a2cf6974c4802201118538df7fda257a11b68b57e1ded571e116c91fef5a61991b7a2474ec45d9f0121026e5628506ecd33242e5ceb5fdafe4d3066b5c0f159b3c05a621ef65f177ea28600000000"
}