{
  "txid": "b29eaee0c047cd4fc7cfddb0970b859057c4b88602c1ddb158f24d34fd3ca98d",
  "version": 2,
  "locktime": 0,
  "vin": [
    {
      "txid": "acc3ba00869acb582a3f2904ce3a11dd3779350ce234063fc7d0959246213364",
      "vout": 222,
      "prevout": {
        "scriptpubkey": "51202f7eefeeecace2c859c4d8126036a8cd22ea81b8482fe306c9c3285d06ecf12f",
        "scriptpubkey_asm": "OP_PUSHNUM_1 OP_PUSHBYTES_32 2f7eefeeecace2c859c4d8126036a8cd22ea81b8482fe306c9c3285d06ecf12f",
        "scriptpubkey_type": "v1_p2tr",
        "scriptpubkey_address": "bc1p9alwlmhv4n3vskwymqfxqd4ge53w4qdcfqh7xpkfcv596phv7yhsa92q7j",
        "value": 1806
      },
      "scriptsig": "",
      "scriptsig_asm": "",
      "witness": [
        "8590052a66d284215828a151f9cdaabde863e911794a165733efbb281b060f771b2ea7720743f6cdd9b48d4a46d502b2cb5f87b43036d213104e1898379e205b",
        "205ecf8c761e575d8df0423568523d948a90fc957fc6c8971f21ee6b17c2ee3006ac0063036f726401010a746578742f706c61696e00357b2270223a226272632d3230222c226f70223a226d696e74222c227469636b223a22646f6765222c22616d74223a2234323030227d68",
        "c05ecf8c761e575d8df0423568523d948a90fc957fc6c8971f21ee6b17c2ee3006"
      ],
      "is_coinbase": false,
      "sequence": 4261412863
    }
  ],
  "vout": [
    {
      "scriptpubkey": "00147a665de7a370f4c9b372ab1fae587500a5bcbdb4",
      "scriptpubkey_asm": "OP_0 OP_PUSHBYTES_20 7a665de7a370f4c9b372ab1fae587500a5bcbdb4",
      "scriptpubkey_type": "v0_p2wpkh",
      "scriptpubkey_address": "bc1q0fn9mearwr6vnvmj4v06ukr4qzjme0d565dzcx",
      "value": 294
    }
  ],
  "size": 294,
  "weight": 540,
  "fee": 1512,
  "status": {
    "confirmed": true,
    "block_height": 834460,
    "block_hash": "00000000000000000000484a79b643b2524bbce82e5d8a442013fa5b8905ed98",
    "block_time": 1710307468
  },
  "hex": "02000000000101643321469295d0c73f0634e20c357937dd113ace04293f2a58cb9a8600bac3acde00000000fffffffd0126010000000000001600147a665de7a370f4c9b372ab1fae587500a5bcbdb403408590052a66d284215828a151f9cdaabde863e911794a165733efbb281b060f771b2ea7720743f6cdd9b48d4a46d502b2cb5f87b43036d213104e1898379e205b6d205ecf8c761e575d8df0423568523d948a90fc957fc6c8971f21ee6b17c2ee3006ac0063036f726401010a746578742f706c61696e00357b2270223a226272632d3230222c226f70223a226d696e74222c227469636b223a22646f6765222c22616d74223a2234323030227d6821c05ecf8c761e575d8df0423568523d948a90fc957fc6c8971f21ee6b17c2ee300600000000"
}