{
  "txid": "b2aefa3c6fe457b56881232ecdd6a8c13dfc04bd3d578c6fb76360ba106feb67",
  "version": 2,
  "locktime": 0,
  "vin": [
    {
      "txid": "0ad82719c5568c4acd81b83e609db57306639901211bd5a5b68a6fc3de4e1473",
      "vout": 9,
      "prevout": {
        "scriptpubkey": "5120cdbab90fdf98c57f1cc03cc808966b621019a70cffaf84bea4d4b00ee7fe1c14",
        "scriptpubkey_asm": "OP_PUSHNUM_1 OP_PUSHBYTES_32 cdbab90fdf98c57f1cc03cc808966b621019a70cffaf84bea4d4b00ee7fe1c14",
        "scriptpubkey_type": "v1_p2tr",
        "scriptpubkey_address": "bc1pekatjr7lnrzh78xq8nyq39ntvggpnfcvl7hcf04y6jcqael7rs2qj35gwj",
        "value": 2834
      },
      "scriptsig": "",
      "scriptsig_asm": "",
      "witness": [
        "b7251af90355d52b304d77b23b4c94b02addef3be4171ba8ef3f8b6808977e2e8a79b97f69313d5537083d96bd2ffc108e2d0a8c220ca3c781eafbad0826acae",
        "205eceb6e3a01e574fd77c7142b0efdace4ffdc4fcb4d8e7b6ea4d560fcc8f054bac0063036f726401011e6170706c69636174696f6e2f6a736f6e3b636861727365743d7574662d38004cbf7b2270223a22706f772d3230222c226f70223a226d696e74222c227469636b223a2250455045222c22616d74223a2231303030222c22736f6c7574696f6e223a22504550453a6263317173637064736c337671777466366a733538786832307637717775716839336e777737783763793a303030303030303030303030303030303030303139393431613561653132383937363539383134343239323533333030353762306461393666336465613163353a3636393033353139343332227d68",
        "c0962df30d9be27fcd73fd9a4053b3728334e273f9929aba028483b2e810075667"
      ],
      "is_coinbase": false,
      "sequence": 4294967295
    }
  ],
  "vout": [
    {
      "scriptpubkey": "00148602d87e2c03969d4a1439aea7b3c0770172c66e",
      "scriptpubkey_asm": "OP_0 OP_PUSHBYTES_20 8602d87e2c03969d4a1439aea7b3c0770172c66e",
      "scriptpubkey_type": "v0_p2wpkh",
      "scriptpubkey_address": "bc1qscpdsl3vqwtf6js58xh20v7qwuqh93nww7x7cy",
      "value": 546
    }
  ],
  "size": 455,
  "weight": 701,
  "fee": 2288,
  "status": {
    "confirmed": true,
    "block_height": 834460,
    "block_hash": "00000000000000000000484a79b643b2524bbce82e5d8a442013fa5b8905ed98",
    "block_time": 1710307468
  },
  "hex": "0200000000010173144edec36f8ab6a5d51b210199630673b59d603eb881cd4a8c56c51927d80a0900000000ffffffff0122020000000000001600148602d87e2c03969d4a1439aea7b3c0770172c66e0340b7251af90355d52b304d77b23b4c94b02addef3be4171ba8ef3f8b6808977e2e8a79b97f69313d5537083d96bd2ffc108e2d0a8c220ca3c781eafbad0826acaefd0c01205eceb6e3a01e574fd77c7142b0efdace4ffdc4fcb4d8e7b6ea4d560fcc8f054bac0063036f726401011e6170706c69636174696f6e2f6a736f6e3b636861727365743d7574662d38004cbf7b2270223a22706f772d3230222c226f70223a226d696e74222c227469636b223a2250455045222c22616d74223a2231303030222c22736f6c7574696f6e223a22504550453a6263317173637064736c337671777466366a733538786832307637717775716839336e777737783763793a303030303030303030303030303030303030303139393431613561653132383937363539383134343239323533333030353762306461393666336465613163353a3636393033353139343332227d6821c0962df30d9be27fcd73fd9a4053b3728334e273f9929aba028483b2e81007566700000000"
}