{
  "txid": "b2ba410dff075a4f91aee02773677a8b4c833c934ccde6e74d34ace4b7148580",
  "version": 1,
  "locktime": 0,
  "vin": [
    {
      "txid": "101885087129a47825bcaf5fd8a5b6edffc31dd58063f429192a0ce68a31ebf2",
      "vout": 0,
      "prevout": {
        "scriptpubkey": "00142568015a21ade5b2c397e4ad03d12b7b44be839a",
        "scriptpubkey_asm": "OP_0 OP_PUSHBYTES_20 2568015a21ade5b2c397e4ad03d12b7b44be839a",
        "scriptpubkey_type": "v0_p2wpkh",
        "scriptpubkey_address": "bc1qy45qzk3p4hjm9suhujks85ft0dztaqu6m2e8sk",
        "value": 170886
      },
      "scriptsig": "",
      "scriptsig_asm": "",
      "witness": [
        "304502210087ce221aaa6f49e3486776358117d480e57f41774366f6d9c13cc4295c584d1a022040e49f013e2c8259b722562b0f99da2fa0964f5d0b9f2206bc1277e3567f38b301",
        "035587d07aa49c4f5b73024ace5f374f11197e34f553884204c4bf6c04203362b1"
      ],
      "is_coinbase": false,
      "sequence": 4294967295
    }
  ],
  "vout": [
    {
      "scriptpubkey": "76a91475c01fccafc1457b5d04415739fa5722531aabf988ac",
      "scriptpubkey_asm": "OP_DUP OP_HASH160 OP_PUSHBYTES_20 75c01fccafc1457b5d04415739fa5722531aabf9 OP_EQUALVERIFY OP_CHECKSIG",
      "scriptpubkey_type": "p2pkh",
      "scriptpubkey_address": "1BjcDUByw49yYsReu1Y1giZLFpcjdpUrih",
      "value": 167835
    }
  ],
  "size": 195,
  "weight": 450,
  "fee": 3051,
  "status": {
    "confirmed": true,
    "block_height": 834638,
    "block_hash": "000000000000000000025f742c626208ac87e0b7d15054abb4a19ca2d735a54e",
    "block_time": 1710405325
  },
  "hex": "01000000000101f2eb318ae60c2a1929f46380d51dc3ffedb6a5d85fafbc2578a42971088518100000000000ffffffff019b8f0200000000001976a91475c01fccafc1457b5d04415739fa5722531aabf988ac0248304502210087ce221aaa6f49e3486776358117d480e57f41774366f6d9c13cc4295c584d1a022040e49f013e2c8259b722562b0f99da2fa0964f5d0b9f2206bc1277e3567f38b30121035587d07aa49c4f5b73024ace5f374f11197e34f553884204c4bf6c04203362b100000000"
}