{
  "txid": "b2bf524e651095a0c04adef422b2d979a079dc64a45b9e538679e2fb06d516a0",
  "version": 1,
  "locktime": 0,
  "vin": [
    {
      "txid": "caf42ad21f31c12de754242ad6b282a48a8ceadf3242c71d6192385b238e2fd7",
      "vout": 0,
      "prevout": {
        "scriptpubkey": "512043de36ceadaa5d2b8d432dc8a913297d8e1270842eb690d59278723773077faf",
        "scriptpubkey_asm": "OP_PUSHNUM_1 OP_PUSHBYTES_32 43de36ceadaa5d2b8d432dc8a913297d8e1270842eb690d59278723773077faf",
        "scriptpubkey_type": "v1_p2tr",
        "scriptpubkey_address": "bc1pg00rdn4d4fwjhr2r9hy2jyef0k8pyuyy96mfp4vj0perwuc807hsngwaa2",
        "value": 3011
      },
      "scriptsig": "",
      "scriptsig_asm": "",
      "witness": [
        "ffaee599ad04d168af5c033d0a42a9cb7b311b3fb4e7df7b231c94842573461c2cc5fa48ecacfe70db874f390c206700b8914b3dd813ed0dc4d773aa4bdfa53c",
        "2031e7686991f69bf6e238850a05b4d71c9c972244ff98efa6ccd42c7f451cb2afac0063036f7264010118746578742f706c61696e3b636861727365743d7574662d38003a7b2270223a226272632d3230222c226f70223a227472616e73666572222c227469636b223a22696e6473222c22616d74223a223130303030227d68",
        "c031e7686991f69bf6e238850a05b4d71c9c972244ff98efa6ccd42c7f451cb2af"
      ],
      "is_coinbase": false,
      "sequence": 4294967293
    }
  ],
  "vout": [
    {
      "scriptpubkey": "001484c887c42cc4e4dae6d6b3e6d8fff2fba4e5f7f1",
      "scriptpubkey_asm": "OP_0 OP_PUSHBYTES_20 84c887c42cc4e4dae6d6b3e6d8fff2fba4e5f7f1",
      "scriptpubkey_type": "v0_p2wpkh",
      "scriptpubkey_address": "bc1qsnyg03pvcnjd4ekkk0nd3lljlwjwtal3tll7mg",
      "value": 546
    }
  ],
  "size": 313,
  "weight": 559,
  "fee": 2465,
  "status": {
    "confirmed": true,
    "block_height": 834638,
    "block_hash": "000000000000000000025f742c626208ac87e0b7d15054abb4a19ca2d735a54e",
    "block_time": 1710405325
  },
  "hex": "01000000000101d72f8e235b3892611dc74232dfea8c8aa482b2d62a2454e72dc1311fd22af4ca0000000000fdffffff01220200000000000016001484c887c42cc4e4dae6d6b3e6d8fff2fba4e5f7f10340ffaee599ad04d168af5c033d0a42a9cb7b311b3fb4e7df7b231c94842573461c2cc5fa48ecacfe70db874f390c206700b8914b3dd813ed0dc4d773aa4bdfa53c802031e7686991f69bf6e238850a05b4d71c9c972244ff98efa6ccd42c7f451cb2afac0063036f7264010118746578742f706c61696e3b636861727365743d7574662d38003a7b2270223a226272632d3230222c226f70223a227472616e73666572222c227469636b223a22696e6473222c22616d74223a223130303030227d6821c031e7686991f69bf6e238850a05b4d71c9c972244ff98efa6ccd42c7f451cb2af00000000"
}