{
  "txid": "b2c198399dfad27359243b38818087740e5a34954e17d45af1240227fd602d8f",
  "version": 2,
  "locktime": 0,
  "vin": [
    {
      "txid": "2c082165beb55d7cee3b05db2e6e0a5c973db1b9b9d9c82e025afd60a2c92df7",
      "vout": 0,
      "prevout": {
        "scriptpubkey": "5120e7ddcf1cce238f708b9128b962480461d34e1e02efa4fd82e7c450c28ee2ac15",
        "scriptpubkey_asm": "OP_PUSHNUM_1 OP_PUSHBYTES_32 e7ddcf1cce238f708b9128b962480461d34e1e02efa4fd82e7c450c28ee2ac15",
        "scriptpubkey_type": "v1_p2tr",
        "scriptpubkey_address": "bc1pulwu78xwyw8hpzu39zukyjqyv8f5u8sza7j0mqh8c3gv9rhz4s2sy0u94w",
        "value": 546
      },
      "scriptsig": "",
      "scriptsig_asm": "",
      "witness": [
        "3345b4b27d021e88b2e463f1656022c5ac6131aa1ea53152d5b4d6bc080fb9d2bc7d2c2e3bd036e31636349be6a0d48155049142e92afe35f1df30c6125bdf48"
      ],
      "is_coinbase": false,
      "sequence": 2147483649
    },
    {
      "txid": "58bacd362ec871b61452a5a8a2652708e47a2230840f1f66e612eaef92988913",
      "vout": 1,
      "prevout": {
        "scriptpubkey": "5120e7ddcf1cce238f708b9128b962480461d34e1e02efa4fd82e7c450c28ee2ac15",
        "scriptpubkey_asm": "OP_PUSHNUM_1 OP_PUSHBYTES_32 e7ddcf1cce238f708b9128b962480461d34e1e02efa4fd82e7c450c28ee2ac15",
        "scriptpubkey_type": "v1_p2tr",
        "scriptpubkey_address": "bc1pulwu78xwyw8hpzu39zukyjqyv8f5u8sza7j0mqh8c3gv9rhz4s2sy0u94w",
        "value": 184571
      },
      "scriptsig": "",
      "scriptsig_asm": "",
      "witness": [
        "0c12cfb6ac6511b19405eec33636ed0dadbfb1d867e325d4f22431fbd9b18b21974b91a9e82808ae0a2c7deff82251ee4a5f6fe8e3de1a7c1530090a7b1b1d19"
      ],
      "is_coinbase": false,
      "sequence": 2147483649
    }
  ],
  "vout": [
    {
      "scriptpubkey": "5120e7ddcf1cce238f708b9128b962480461d34e1e02efa4fd82e7c450c28ee2ac15",
      "scriptpubkey_asm": "OP_PUSHNUM_1 OP_PUSHBYTES_32 e7ddcf1cce238f708b9128b962480461d34e1e02efa4fd82e7c450c28ee2ac15",
      "scriptpubkey_type": "v1_p2tr",
      "scriptpubkey_address": "bc1pulwu78xwyw8hpzu39zukyjqyv8f5u8sza7j0mqh8c3gv9rhz4s2sy0u94w",
      "value": 546
    },
    {
      "scriptpubkey": "5120e7ddcf1cce238f708b9128b962480461d34e1e02efa4fd82e7c450c28ee2ac15",
      "scriptpubkey_asm": "OP_PUSHNUM_1 OP_PUSHBYTES_32 e7ddcf1cce238f708b9128b962480461d34e1e02efa4fd82e7c450c28ee2ac15",
      "scriptpubkey_type": "v1_p2tr",
      "scriptpubkey_address": "bc1pulwu78xwyw8hpzu39zukyjqyv8f5u8sza7j0mqh8c3gv9rhz4s2sy0u94w",
      "value": 181828
    }
  ],
  "size": 312,
  "weight": 846,
  "fee": 2743,
  "status": {
    "confirmed": true,
    "block_height": 834460,
    "block_hash": "00000000000000000000484a79b643b2524bbce82e5d8a442013fa5b8905ed98",
    "block_time": 1710307468
  },
  "hex": "02000000000102f72dc9a260fd5a022ec8d9b9b9b13d975c0a6e2edb053bee7c5db5be6521082c00000000000100008013899892efea12e6661f0f8430227ae4082765a2a8a55214b671c82e36cdba58010000000001000080022202000000000000225120e7ddcf1cce238f708b9128b962480461d34e1e02efa4fd82e7c450c28ee2ac1544c6020000000000225120e7ddcf1cce238f708b9128b962480461d34e1e02efa4fd82e7c450c28ee2ac1501403345b4b27d021e88b2e463f1656022c5ac6131aa1ea53152d5b4d6bc080fb9d2bc7d2c2e3bd036e31636349be6a0d48155049142e92afe35f1df30c6125bdf4801400c12cfb6ac6511b19405eec33636ed0dadbfb1d867e325d4f22431fbd9b18b21974b91a9e82808ae0a2c7deff82251ee4a5f6fe8e3de1a7c1530090a7b1b1d1900000000"
}