{
  "txid": "b2c1b4e0f1bd632786e2224322bfb173c28200fb6e64644f401dee6113b09b7c",
  "version": 2,
  "locktime": 0,
  "vin": [
    {
      "txid": "d8c708851982aa05c48c04f4018486fae78ab6fb0232e1b5777666cb10b67564",
      "vout": 1,
      "prevout": {
        "scriptpubkey": "5120673caf343014bce43b57f1e9bc64c280209a64d72402d9a5c6fea4f91d6d9c44",
        "scriptpubkey_asm": "OP_PUSHNUM_1 OP_PUSHBYTES_32 673caf343014bce43b57f1e9bc64c280209a64d72402d9a5c6fea4f91d6d9c44",
        "scriptpubkey_type": "v1_p2tr",
        "scriptpubkey_address": "bc1pvu727dpszj7wgw6h785mcexzsqsf5exhyspdnfwxl6j0j8tdn3zqqc498r",
        "value": 56394
      },
      "scriptsig": "",
      "scriptsig_asm": "",
      "witness": [
        "db6fabe62369faee413562269be72dcf3784bb43fb06085031b2ffe8935f34730d5e4a1041dfe679861014d7d8c8123b5b24fca1b2b0956f746849624a5d155f"
      ],
      "is_coinbase": false,
      "sequence": 4294967295
    }
  ],
  "vout": [
    {
      "scriptpubkey": "5120673caf343014bce43b57f1e9bc64c280209a64d72402d9a5c6fea4f91d6d9c44",
      "scriptpubkey_asm": "OP_PUSHNUM_1 OP_PUSHBYTES_32 673caf343014bce43b57f1e9bc64c280209a64d72402d9a5c6fea4f91d6d9c44",
      "scriptpubkey_type": "v1_p2tr",
      "scriptpubkey_address": "bc1pvu727dpszj7wgw6h785mcexzsqsf5exhyspdnfwxl6j0j8tdn3zqqc498r",
      "value": 600
    },
    {
      "scriptpubkey": "5120673caf343014bce43b57f1e9bc64c280209a64d72402d9a5c6fea4f91d6d9c44",
      "scriptpubkey_asm": "OP_PUSHNUM_1 OP_PUSHBYTES_32 673caf343014bce43b57f1e9bc64c280209a64d72402d9a5c6fea4f91d6d9c44",
      "scriptpubkey_type": "v1_p2tr",
      "scriptpubkey_address": "bc1pvu727dpszj7wgw6h785mcexzsqsf5exhyspdnfwxl6j0j8tdn3zqqc498r",
      "value": 600
    },
    {
      "scriptpubkey": "5120673caf343014bce43b57f1e9bc64c280209a64d72402d9a5c6fea4f91d6d9c44",
      "scriptpubkey_asm": "OP_PUSHNUM_1 OP_PUSHBYTES_32 673caf343014bce43b57f1e9bc64c280209a64d72402d9a5c6fea4f91d6d9c44",
      "scriptpubkey_type": "v1_p2tr",
      "scriptpubkey_address": "bc1pvu727dpszj7wgw6h785mcexzsqsf5exhyspdnfwxl6j0j8tdn3zqqc498r",
      "value": 600
    },
    {
      "scriptpubkey": "5120673caf343014bce43b57f1e9bc64c280209a64d72402d9a5c6fea4f91d6d9c44",
      "scriptpubkey_asm": "OP_PUSHNUM_1 OP_PUSHBYTES_32 673caf343014bce43b57f1e9bc64c280209a64d72402d9a5c6fea4f91d6d9c44",
      "scriptpubkey_type": "v1_p2tr",
      "scriptpubkey_address": "bc1pvu727dpszj7wgw6h785mcexzsqsf5exhyspdnfwxl6j0j8tdn3zqqc498r",
      "value": 600
    },
    {
      "scriptpubkey": "5120673caf343014bce43b57f1e9bc64c280209a64d72402d9a5c6fea4f91d6d9c44",
      "scriptpubkey_asm": "OP_PUSHNUM_1 OP_PUSHBYTES_32 673caf343014bce43b57f1e9bc64c280209a64d72402d9a5c6fea4f91d6d9c44",
      "scriptpubkey_type": "v1_p2tr",
      "scriptpubkey_address": "bc1pvu727dpszj7wgw6h785mcexzsqsf5exhyspdnfwxl6j0j8tdn3zqqc498r",
      "value": 600
    },
    {
      "scriptpubkey": "5120673caf343014bce43b57f1e9bc64c280209a64d72402d9a5c6fea4f91d6d9c44",
      "scriptpubkey_asm": "OP_PUSHNUM_1 OP_PUSHBYTES_32 673caf343014bce43b57f1e9bc64c280209a64d72402d9a5c6fea4f91d6d9c44",
      "scriptpubkey_type": "v1_p2tr",
      "scriptpubkey_address": "bc1pvu727dpszj7wgw6h785mcexzsqsf5exhyspdnfwxl6j0j8tdn3zqqc498r",
      "value": 600
    },
    {
      "scriptpubkey": "5120673caf343014bce43b57f1e9bc64c280209a64d72402d9a5c6fea4f91d6d9c44",
      "scriptpubkey_asm": "OP_PUSHNUM_1 OP_PUSHBYTES_32 673caf343014bce43b57f1e9bc64c280209a64d72402d9a5c6fea4f91d6d9c44",
      "scriptpubkey_type": "v1_p2tr",
      "scriptpubkey_address": "bc1pvu727dpszj7wgw6h785mcexzsqsf5exhyspdnfwxl6j0j8tdn3zqqc498r",
      "value": 600
    },
    {
      "scriptpubkey": "5120673caf343014bce43b57f1e9bc64c280209a64d72402d9a5c6fea4f91d6d9c44",
      "scriptpubkey_asm": "OP_PUSHNUM_1 OP_PUSHBYTES_32 673caf343014bce43b57f1e9bc64c280209a64d72402d9a5c6fea4f91d6d9c44",
      "scriptpubkey_type": "v1_p2tr",
      "scriptpubkey_address": "bc1pvu727dpszj7wgw6h785mcexzsqsf5exhyspdnfwxl6j0j8tdn3zqqc498r",
      "value": 600
    },
    {
      "scriptpubkey": "5120673caf343014bce43b57f1e9bc64c280209a64d72402d9a5c6fea4f91d6d9c44",
      "scriptpubkey_asm": "OP_PUSHNUM_1 OP_PUSHBYTES_32 673caf343014bce43b57f1e9bc64c280209a64d72402d9a5c6fea4f91d6d9c44",
      "scriptpubkey_type": "v1_p2tr",
      "scriptpubkey_address": "bc1pvu727dpszj7wgw6h785mcexzsqsf5exhyspdnfwxl6j0j8tdn3zqqc498r",
      "value": 600
    },
    {
      "scriptpubkey": "5120673caf343014bce43b57f1e9bc64c280209a64d72402d9a5c6fea4f91d6d9c44",
      "scriptpubkey_asm": "OP_PUSHNUM_1 OP_PUSHBYTES_32 673caf343014bce43b57f1e9bc64c280209a64d72402d9a5c6fea4f91d6d9c44",
      "scriptpubkey_type": "v1_p2tr",
      "scriptpubkey_address": "bc1pvu727dpszj7wgw6h785mcexzsqsf5exhyspdnfwxl6j0j8tdn3zqqc498r",
      "value": 600
    },
    {
      "scriptpubkey": "5120673caf343014bce43b57f1e9bc64c280209a64d72402d9a5c6fea4f91d6d9c44",
      "scriptpubkey_asm": "OP_PUSHNUM_1 OP_PUSHBYTES_32 673caf343014bce43b57f1e9bc64c280209a64d72402d9a5c6fea4f91d6d9c44",
      "scriptpubkey_type": "v1_p2tr",
      "scriptpubkey_address": "bc1pvu727dpszj7wgw6h785mcexzsqsf5exhyspdnfwxl6j0j8tdn3zqqc498r",
      "value": 42264
    }
  ],
  "size": 592,
  "weight": 2164,
  "fee": 8130,
  "status": {
    "confirmed": true,
    "block_height": 834638,
    "block_hash": "000000000000000000025f742c626208ac87e0b7d15054abb4a19ca2d735a54e",
    "block_time": 1710405325
  },
  "hex": "020000000001016475b610cb667677b5e13202fbb68ae7fa868401f4048cc405aa82198508c7d80100000000ffffffff0b5802000000000000225120673caf343014bce43b57f1e9bc64c280209a64d72402d9a5c6fea4f91d6d9c445802000000000000225120673caf343014bce43b57f1e9bc64c280209a64d72402d9a5c6fea4f91d6d9c445802000000000000225120673caf343014bce43b57f1e9bc64c280209a64d72402d9a5c6fea4f91d6d9c445802000000000000225120673caf343014bce43b57f1e9bc64c280209a64d72402d9a5c6fea4f91d6d9c445802000000000000225120673caf343014bce43b57f1e9bc64c280209a64d72402d9a5c6fea4f91d6d9c445802000000000000225120673caf343014bce43b57f1e9bc64c280209a64d72402d9a5c6fea4f91d6d9c445802000000000000225120673caf343014bce43b57f1e9bc64c280209a64d72402d9a5c6fea4f91d6d9c445802000000000000225120673caf343014bce43b57f1e9bc64c280209a64d72402d9a5c6fea4f91d6d9c445802000000000000225120673caf343014bce43b57f1e9bc64c280209a64d72402d9a5c6fea4f91d6d9c445802000000000000225120673caf343014bce43b57f1e9bc64c280209a64d72402d9a5c6fea4f91d6d9c4418a5000000000000225120673caf343014bce43b57f1e9bc64c280209a64d72402d9a5c6fea4f91d6d9c440140db6fabe62369faee413562269be72dcf3784bb43fb06085031b2ffe8935f34730d5e4a1041dfe679861014d7d8c8123b5b24fca1b2b0956f746849624a5d155f00000000"
}