{
  "txid": "b2eab2718e9f050a51577230167acdad0895ac53ce5b0337af87de4d42eeb03d",
  "version": 2,
  "locktime": 0,
  "vin": [
    {
      "txid": "31f538aa1ba069444ada4f2476d94050c37c5e6845fc0b6344de81681e0c7319",
      "vout": 0,
      "prevout": {
        "scriptpubkey": "0014997822024b4052698996da1fd8aa4108e1e59f28",
        "scriptpubkey_asm": "OP_0 OP_PUSHBYTES_20 997822024b4052698996da1fd8aa4108e1e59f28",
        "scriptpubkey_type": "v0_p2wpkh",
        "scriptpubkey_address": "bc1qn9uzyqjtgpfxnzvkmg0a32jpprs7t8egy76qv2",
        "value": 219000
      },
      "scriptsig": "",
      "scriptsig_asm": "",
      "witness": [
        "3045022100c09259dde0ec663d5b0471d07583358e3bd4198687477e838ccfce3076eebacf02202c947e3bca630e7ddcb01604fafd2d12b4e66c873fa0761be1c802a88cb1163401",
        "020e40a7488f61afccb087d99c3724dd0c1f6f739cb93d1ce25138043297a54e25"
      ],
      "is_coinbase": false,
      "sequence": 0
    },
    {
      "txid": "95c3961af9d780de1f5b3c46bbfc7a5d4f0322055cee28bba76d07a7c64175b5",
      "vout": 0,
      "prevout": {
        "scriptpubkey": "001481256166fc6076ba44fa7622f9414148eaf731fb",
        "scriptpubkey_asm": "OP_0 OP_PUSHBYTES_20 81256166fc6076ba44fa7622f9414148eaf731fb",
        "scriptpubkey_type": "v0_p2wpkh",
        "scriptpubkey_address": "bc1qsyjkzehuvpmt5386wc30js2pfr40wv0m9ngls9",
        "value": 70000
      },
      "scriptsig": "",
      "scriptsig_asm": "",
      "witness": [
        "30440220334b2e98631d3f85653a37c4121a03d87eb729874d7b267686b8fb0d48512ce802205eb51c9e63d6547f808efeb3ab290ab45449e12c166b9a59b7e2e6210703397101",
        "025cdf4da2e07b2b084013f9a98001f259b452326cb065518fa4de83906568e94d"
      ],
      "is_coinbase": false,
      "sequence": 0
    },
    {
      "txid": "67a089f97b0f737a89994c99e39d2272fe0230fab3f0b0d7e430801e8f0466c9",
      "vout": 1,
      "prevout": {
        "scriptpubkey": "0014d2955f9971a662e7b0231177c5a0a108558b35b2",
        "scriptpubkey_asm": "OP_0 OP_PUSHBYTES_20 d2955f9971a662e7b0231177c5a0a108558b35b2",
        "scriptpubkey_type": "v0_p2wpkh",
        "scriptpubkey_address": "bc1q6224lxt35e3w0vprz9mutg9ppp2ckddjrheup8",
        "value": 1329454
      },
      "scriptsig": "",
      "scriptsig_asm": "",
      "witness": [
        "304402202f9aebe14c9511f10d08ca04c4e3aedd1c67704bf1422b0534f9fba0a2f2e4930220716f1be06aff82ca86275698fa1b7224f46542a028e9371b897112f01bfdcbbf01",
        "03afcea1760a8fcf57e8ef7db73973bf98d921ea7eb782db42614d44430b66fe82"
      ],
      "is_coinbase": false,
      "sequence": 0
    },
    {
      "txid": "40a3d1de22ad92c12d7aa137f63e7bda8784012e92926dd6c9647199a77f8c76",
      "vout": 1,
      "prevout": {
        "scriptpubkey": "001445fb905a18fd653711ee2635abcd2a6034fbed0f",
        "scriptpubkey_asm": "OP_0 OP_PUSHBYTES_20 45fb905a18fd653711ee2635abcd2a6034fbed0f",
        "scriptpubkey_type": "v0_p2wpkh",
        "scriptpubkey_address": "bc1qghaeqkscl4jnwy0wyc66hnf2vq60hmg0mselcy",
        "value": 9815865
      },
      "scriptsig": "",
      "scriptsig_asm": "",
      "witness": [
        "3045022100c721c98531649e3a9685676bd3e21a575a0fe6a8f8192c15b4e40b067a8a06da02205f31e598f525044d030bfa06f7af3340c7ee6b8839630d8af4530b511fe69afa01",
        "02e7b9947054b3dff5fe3299d68ce38870bbf62f095ac666ed911c66deb38f9e24"
      ],
      "is_coinbase": false,
      "sequence": 0
    }
  ],
  "vout": [
    {
      "scriptpubkey": "0014a50bbdaf36e4e911549aa7bd17aa156fafd2047c",
      "scriptpubkey_asm": "OP_0 OP_PUSHBYTES_20 a50bbdaf36e4e911549aa7bd17aa156fafd2047c",
      "scriptpubkey_type": "v0_p2wpkh",
      "scriptpubkey_address": "bc1q559mmtekun53z4y6577302s4d7haypruuaxt37",
      "value": 11429295
    }
  ],
  "size": 637,
  "weight": 1252,
  "fee": 5024,
  "status": {
    "confirmed": true,
    "block_height": 834638,
    "block_hash": "000000000000000000025f742c626208ac87e0b7d15054abb4a19ca2d735a54e",
    "block_time": 1710405325
  },
  "hex": "0200000000010419730c1e6881de44630bfc45685e7cc35040d976244fda4a4469a01baa38f531000000000000000000b57541c6a7076da7bb28ee5c0522034f5d7afcbb463c5b1fde80d7f91a96c395000000000000000000c966048f1e8030e4d7b0f0b3fa3002fe72229de3994c99897a730f7bf989a067010000000000000000768c7fa7997164c9d66d92922e018487da7b3ef637a17a2dc192ad22ded1a34001000000000000000001af65ae0000000000160014a50bbdaf36e4e911549aa7bd17aa156fafd2047c02483045022100c09259dde0ec663d5b0471d07583358e3bd4198687477e838ccfce3076eebacf02202c947e3bca630e7ddcb01604fafd2d12b4e66c873fa0761be1c802a88cb116340121020e40a7488f61afccb087d99c3724dd0c1f6f739cb93d1ce25138043297a54e25024730440220334b2e98631d3f85653a37c4121a03d87eb729874d7b267686b8fb0d48512ce802205eb51c9e63d6547f808efeb3ab290ab45449e12c166b9a59b7e2e621070339710121025cdf4da2e07b2b084013f9a98001f259b452326cb065518fa4de83906568e94d0247304402202f9aebe14c9511f10d08ca04c4e3aedd1c67704bf1422b0534f9fba0a2f2e4930220716f1be06aff82ca86275698fa1b7224f46542a028e9371b897112f01bfdcbbf012103afcea1760a8fcf57e8ef7db73973bf98d921ea7eb782db42614d44430b66fe8202483045022100c721c98531649e3a9685676bd3e21a575a0fe6a8f8192c15b4e40b067a8a06da02205f31e598f525044d030bfa06f7af3340c7ee6b8839630d8af4530b511fe69afa012102e7b9947054b3dff5fe3299d68ce38870bbf62f095ac666ed911c66deb38f9e2400000000"
}