{
  "txid": "b335e0400d8ae441941a233a9d6570883cba9e9e7ff5360e79fb5e944cf4eb90",
  "version": 1,
  "locktime": 0,
  "vin": [
    {
      "txid": "777a0eb896f72adf0766202e39bad36174b13223afba2815250001e2d1925f1f",
      "vout": 4,
      "prevout": {
        "scriptpubkey": "00145fb952db207757f31c6ab076f21646c47a1a477f",
        "scriptpubkey_asm": "OP_0 OP_PUSHBYTES_20 5fb952db207757f31c6ab076f21646c47a1a477f",
        "scriptpubkey_type": "v0_p2wpkh",
        "scriptpubkey_address": "bc1qt7u49keqwatlx8r2kpm0y9jxc3ap53ml3eetem",
        "value": 1977924
      },
      "scriptsig": "",
      "scriptsig_asm": "",
      "witness": [
        "304402205bc48f1cd992856bd01437ec3a7f7f920c7e12d1fb169f9a3e7097c561b80c7a02207e12e3170a52ee4ef6413d1265188f44f2f5174fc3c70885ec7942ef48e392e901",
        "035326833a2f8db5ed0a820f89704858fccc123ffcdade0a5baf045997911e2ee5"
      ],
      "is_coinbase": false,
      "sequence": 4294967295
    }
  ],
  "vout": [
    {
      "scriptpubkey": "76a914254911190c5072d27314e3cf83063d2de3631ac388ac",
      "scriptpubkey_asm": "OP_DUP OP_HASH160 OP_PUSHBYTES_20 254911190c5072d27314e3cf83063d2de3631ac3 OP_EQUALVERIFY OP_CHECKSIG",
      "scriptpubkey_type": "p2pkh",
      "scriptpubkey_address": "14Q9XsJDzH6UgeHJ514ZQ6iR1A16HYp3RB",
      "value": 1974873
    }
  ],
  "size": 194,
  "weight": 449,
  "fee": 3051,
  "status": {
    "confirmed": true,
    "block_height": 834638,
    "block_hash": "000000000000000000025f742c626208ac87e0b7d15054abb4a19ca2d735a54e",
    "block_time": 1710405325
  },
  "hex": "010000000001011f5f92d1e20100251528baaf2332b17461d3ba392e206607df2af796b80e7a770400000000ffffffff0159221e00000000001976a914254911190c5072d27314e3cf83063d2de3631ac388ac0247304402205bc48f1cd992856bd01437ec3a7f7f920c7e12d1fb169f9a3e7097c561b80c7a02207e12e3170a52ee4ef6413d1265188f44f2f5174fc3c70885ec7942ef48e392e90121035326833a2f8db5ed0a820f89704858fccc123ffcdade0a5baf045997911e2ee500000000"
}