{
  "txid": "b33a0aeca0c98654c6ce705fbd367dbb7486f6e49a878402025d3466944b0899",
  "version": 1,
  "locktime": 834637,
  "vin": [
    {
      "txid": "0817140d646dfedff7e6abf7a3c71ef289b1d57d63cad234b3f529b57189d085",
      "vout": 3,
      "prevout": {
        "scriptpubkey": "0020f0b883df0c2804778f4497ad855786cc33c17bacb7f29df2e097576e3d77fc50",
        "scriptpubkey_asm": "OP_0 OP_PUSHBYTES_32 f0b883df0c2804778f4497ad855786cc33c17bacb7f29df2e097576e3d77fc50",
        "scriptpubkey_type": "v0_p2wsh",
        "scriptpubkey_address": "bc1q7zug8hcv9qz80r6yj7kc24uxeseuz7avklefmuhqjatku0thl3gq2eaekt",
        "value": 15445647
      },
      "scriptsig": "",
      "scriptsig_asm": "",
      "witness": [
        "",
        "3044022059a656ebcf7f31ea1b88b49565bc183304aa98c21f9503dae95a830e1b60fe24022049d56d655b7bb5ce144acebe1e3714260a18aec0458c58e90fede091005c6f9801",
        "304402202493d5a9722ec46c311f6d41167a7de70cca6be3d36f5a1193097562eeab0685022031f4fbd0997f6b2df412b7daf65e2636d5eb606ffa26611b712f4dc5fd9c0ae301",
        "5221032cb76b4e7b4b34e520d3ea3fc9de378a909d4c71ce958c3cec7758c33f07aecd21030c8d55d1a601abd2ae8f11351a8fc65a95a53e3bfa258e1849cab24dcf533d7d210310de3982cca41f837937d87457bdf8bd48595d5d63482aa11a45512f39d2da0353ae"
      ],
      "is_coinbase": false,
      "sequence": 4294967295,
      "inner_witnessscript_asm": "OP_PUSHNUM_2 OP_PUSHBYTES_33 032cb76b4e7b4b34e520d3ea3fc9de378a909d4c71ce958c3cec7758c33f07aecd OP_PUSHBYTES_33 030c8d55d1a601abd2ae8f11351a8fc65a95a53e3bfa258e1849cab24dcf533d7d OP_PUSHBYTES_33 0310de3982cca41f837937d87457bdf8bd48595d5d63482aa11a45512f39d2da03 OP_PUSHNUM_3 OP_CHECKMULTISIG"
    },
    {
      "txid": "168300efd67bae1d80200c0352826bdb8f508347f0b99252a4ed2fb78563f697",
      "vout": 4,
      "prevout": {
        "scriptpubkey": "002022c4a5e6ac30cc51e6d3f0b1c4265dc5b9a213f1be7c0502707df0edfc6a373c",
        "scriptpubkey_asm": "OP_0 OP_PUSHBYTES_32 22c4a5e6ac30cc51e6d3f0b1c4265dc5b9a213f1be7c0502707df0edfc6a373c",
        "scriptpubkey_type": "v0_p2wsh",
        "scriptpubkey_address": "bc1qytz2te4vxrx9rekn7zcugfjacku6yyl3he7q2qns0hcwmlr2xu7qjf7pad",
        "value": 374630900
      },
      "scriptsig": "",
      "scriptsig_asm": "",
      "witness": [
        "",
        "3045022100c42b9c779943ec74ff83aa44bd712a74cc69a2f1c6ba0d2602befb85b7ccc9c002203ea97bacb78d72394d5c3a37920b81cc1a4ab81578951b7f6007c496ad38e72801",
        "3044022054fd6e16d903ab47c068caac59c16ce4de8f484687cae7755bcbeeabff57761802202da349f4fc4cc3253d0dd7f2fe20b74a2ecde1fe3ba9e6733ba30277dcdbf97101",
        "522102c302c338fb15401a0d61d1fc4002755f40b7610e881e001c338a08cbea3ca8682103b3329c3f14773adf3976756bfc19174aabfb3db5dad95725091f0c325ca43c872102e2006e4d0f5ee674c48f34c8271840036cbc78600538e489852360503850635f53ae"
      ],
      "is_coinbase": false,
      "sequence": 4294967295,
      "inner_witnessscript_asm": "OP_PUSHNUM_2 OP_PUSHBYTES_33 02c302c338fb15401a0d61d1fc4002755f40b7610e881e001c338a08cbea3ca868 OP_PUSHBYTES_33 03b3329c3f14773adf3976756bfc19174aabfb3db5dad95725091f0c325ca43c87 OP_PUSHBYTES_33 02e2006e4d0f5ee674c48f34c8271840036cbc78600538e489852360503850635f OP_PUSHNUM_3 OP_CHECKMULTISIG"
    },
    {
      "txid": "1c983dbd12e473f4b89ee931b6be927de72f63fb50e8fb928e88b5e5a5530ab5",
      "vout": 0,
      "prevout": {
        "scriptpubkey": "a914313fcf50a7997eaf81f506e1001b29fdbd19ca3a87",
        "scriptpubkey_asm": "OP_HASH160 OP_PUSHBYTES_20 313fcf50a7997eaf81f506e1001b29fdbd19ca3a OP_EQUAL",
        "scriptpubkey_type": "p2sh",
        "scriptpubkey_address": "36BRUXZgRmqXD5WFhe2uftwLCiyGxCqR8u",
        "value": 8202993
      },
      "scriptsig": "2200205fdc93e7ffd14106855b35ce96562810f136d665c96625691fbf09d6bc9452c2",
      "scriptsig_asm": "OP_PUSHBYTES_34 00205fdc93e7ffd14106855b35ce96562810f136d665c96625691fbf09d6bc9452c2",
      "witness": [
        "",
        "304402201a3ddfd16cb65f8b1298a86522f729641dee3c870b0941de9581e3288e29d9a70220462bf7f13746a80e1635b16e7d6a7d95ceb897413705154d1cf1e60b5b14e02901",
        "3044022073ac4741c10b490de54ac0f045676947b5acfd30f12e384af34247f98cdab82302206451e1a7cbd4b5925b8cd51d60feb6cd452712f6980ef7a189c1605d402e395c01",
        "522103b91bb38872ee2b45cb5e191b61b765155a5f47d7aa0fbb91945b7345947ff41a2103f33786268ebf6ac6ef5b37d85822e738d7c55d6f76f25d91321b6869468e6f642102514c4faa2ad0b0677845e7e4eb2a10cce52728dbcc65eaf1fc2cbe5dc51e4a8d53ae"
      ],
      "is_coinbase": false,
      "sequence": 4294967295,
      "inner_redeemscript_asm": "OP_0 OP_PUSHBYTES_32 5fdc93e7ffd14106855b35ce96562810f136d665c96625691fbf09d6bc9452c2",
      "inner_witnessscript_asm": "OP_PUSHNUM_2 OP_PUSHBYTES_33 03b91bb38872ee2b45cb5e191b61b765155a5f47d7aa0fbb91945b7345947ff41a OP_PUSHBYTES_33 03f33786268ebf6ac6ef5b37d85822e738d7c55d6f76f25d91321b6869468e6f64 OP_PUSHBYTES_33 02514c4faa2ad0b0677845e7e4eb2a10cce52728dbcc65eaf1fc2cbe5dc51e4a8d OP_PUSHNUM_3 OP_CHECKMULTISIG"
    },
    {
      "txid": "2a73f8f5c625202bd16c86f4f4a339193e68b056abb073e68df89f3ea0478854",
      "vout": 1,
      "prevout": {
        "scriptpubkey": "a914ee75046c07a3d43eef4e4df3be1478996084602987",
        "scriptpubkey_asm": "OP_HASH160 OP_PUSHBYTES_20 ee75046c07a3d43eef4e4df3be14789960846029 OP_EQUAL",
        "scriptpubkey_type": "p2sh",
        "scriptpubkey_address": "3PRrvhg5HBzJknCxjNzWYm7w17F2xxNMCq",
        "value": 3184719
      },
      "scriptsig": "2200201a1dea7c92b329e268d3362f0daf4e14fb2cb6d69a0f624a8d2cc2132e9131bc",
      "scriptsig_asm": "OP_PUSHBYTES_34 00201a1dea7c92b329e268d3362f0daf4e14fb2cb6d69a0f624a8d2cc2132e9131bc",
      "witness": [
        "",
        "304402203b037493352db91f22592a00cafc5b2d7c3efffe9318e281cd62ccc34a8682c3022068990794a230107be92ee8f9d1bfb013dd2d66cd428caf5ae2c95c85543e6ee601",
        "304402200c7db767a3138fce67f2fe2bb467b6010b938f0b18d047649ed0d11177fa1afc02207a29bf92a13ac2023d996d7cc9ae8d3aa3476f570e6d8fa8b9bfad7099d9446e01",
        "522102aee351a13a59331505cbf677db49498b300b5ea8b043b8ae0a533e5da1a291f621037be73509b30e34c42040413f938412a499e4ff30ec329e997b4cf4f48d4a82ef210320af290952b3077a70268737a51e1366cb1d17f2ab5e8d7918d5e82c3114e27353ae"
      ],
      "is_coinbase": false,
      "sequence": 4294967295,
      "inner_redeemscript_asm": "OP_0 OP_PUSHBYTES_32 1a1dea7c92b329e268d3362f0daf4e14fb2cb6d69a0f624a8d2cc2132e9131bc",
      "inner_witnessscript_asm": "OP_PUSHNUM_2 OP_PUSHBYTES_33 02aee351a13a59331505cbf677db49498b300b5ea8b043b8ae0a533e5da1a291f6 OP_PUSHBYTES_33 037be73509b30e34c42040413f938412a499e4ff30ec329e997b4cf4f48d4a82ef OP_PUSHBYTES_33 0320af290952b3077a70268737a51e1366cb1d17f2ab5e8d7918d5e82c3114e273 OP_PUSHNUM_3 OP_CHECKMULTISIG"
    },
    {
      "txid": "6a7853e642390d765e024d55d08354ce3d6035bb26ca3475d740b10553cf710e",
      "vout": 1,
      "prevout": {
        "scriptpubkey": "a9146f6c3eb9ee53c8684f984feb0d36e38662592b0887",
        "scriptpubkey_asm": "OP_HASH160 OP_PUSHBYTES_20 6f6c3eb9ee53c8684f984feb0d36e38662592b08 OP_EQUAL",
        "scriptpubkey_type": "p2sh",
        "scriptpubkey_address": "3BrAbqGmZGzFLEJiUTRHHoMXEYbXyccmwZ",
        "value": 2500000
      },
      "scriptsig": "2200206a4c1517a6e48024aa712ac109a86f759bc9265fb22912473666eaea33a2155e",
      "scriptsig_asm": "OP_PUSHBYTES_34 00206a4c1517a6e48024aa712ac109a86f759bc9265fb22912473666eaea33a2155e",
      "witness": [
        "",
        "3044022058bf1d0018a4e1f21b43c63711422510e7e53dad39d5517d9387dfbf5c54c57c0220620e7e3d46a6d34408558f7f0f3baa9080b2133a8b8bf98ca0bbb374e3433ca201",
        "3044022036f8da7b56543ee79412c18cb375c6dcdf51d77079c15409cd95f45192e4f14f0220380b08cd529fe254937cf47098fa22460e0dcdc105e75cedc7175375af9fe4dc01",
        "522102241e56c2461d2149a41a19d659af9c8fd13a5299351fc5e74326d1937e4af50a21036820993706bc8abb1ad9b3737a1bab27a78b43ecf75aac1affd2d6f9d4bf356a21034447cd25284b0481f3713f459b72680efae95398ce5454e6d8bd8bac2ba84ea853ae"
      ],
      "is_coinbase": false,
      "sequence": 4294967295,
      "inner_redeemscript_asm": "OP_0 OP_PUSHBYTES_32 6a4c1517a6e48024aa712ac109a86f759bc9265fb22912473666eaea33a2155e",
      "inner_witnessscript_asm": "OP_PUSHNUM_2 OP_PUSHBYTES_33 02241e56c2461d2149a41a19d659af9c8fd13a5299351fc5e74326d1937e4af50a OP_PUSHBYTES_33 036820993706bc8abb1ad9b3737a1bab27a78b43ecf75aac1affd2d6f9d4bf356a OP_PUSHBYTES_33 034447cd25284b0481f3713f459b72680efae95398ce5454e6d8bd8bac2ba84ea8 OP_PUSHNUM_3 OP_CHECKMULTISIG"
    },
    {
      "txid": "aa72a62267a83121d39189809280139af675a7e6872f794f22417ae617d48242",
      "vout": 2,
      "prevout": {
        "scriptpubkey": "a914e221941b0d3c056cdf33c72562bc4fa9a010142f87",
        "scriptpubkey_asm": "OP_HASH160 OP_PUSHBYTES_20 e221941b0d3c056cdf33c72562bc4fa9a010142f OP_EQUAL",
        "scriptpubkey_type": "p2sh",
        "scriptpubkey_address": "3NJgryWcBfNA39WtDDcZeV9sWRCxTxM55G",
        "value": 2384794
      },
      "scriptsig": "220020932955986603249d8cc44c21ff3cf4e6fef6992a2c771a4765ac5004546fc4d7",
      "scriptsig_asm": "OP_PUSHBYTES_34 0020932955986603249d8cc44c21ff3cf4e6fef6992a2c771a4765ac5004546fc4d7",
      "witness": [
        "",
        "3045022100b151d844b94652129d00dd4efa11e6e5bbb303aed654f1f8648d17eeba6ae07e02203c7a24e5575540786bb22922db582a2abf73dd710fc93cff4db68d9ddc3a6b2b01",
        "30440220704bd035ed5b36a4db872511b01fd504af5d130f11a885fc81adf367ae24577502205965bfb55c58a743816baf8f6ac0a49ba3ed8d056d60e5c57aa91458a9b36e3301",
        "5221029d696e3503bb50268fe109124d3da5150f2e79485543c29e451002e1ed01b55e21026d97fec47c420efa94a779b025296152faa53b01d6decec22cd56a74767f461a2102425a52a3554359c77ac7c524a01d037195818e32190707b89a6b4a77da3f474f53ae"
      ],
      "is_coinbase": false,
      "sequence": 4294967295,
      "inner_redeemscript_asm": "OP_0 OP_PUSHBYTES_32 932955986603249d8cc44c21ff3cf4e6fef6992a2c771a4765ac5004546fc4d7",
      "inner_witnessscript_asm": "OP_PUSHNUM_2 OP_PUSHBYTES_33 029d696e3503bb50268fe109124d3da5150f2e79485543c29e451002e1ed01b55e OP_PUSHBYTES_33 026d97fec47c420efa94a779b025296152faa53b01d6decec22cd56a74767f461a OP_PUSHBYTES_33 02425a52a3554359c77ac7c524a01d037195818e32190707b89a6b4a77da3f474f OP_PUSHNUM_3 OP_CHECKMULTISIG"
    },
    {
      "txid": "cc44eff6e27c01c628f0002c116c5ffc7a793a6ffa48981d6b6b254ccf7b3da9",
      "vout": 0,
      "prevout": {
        "scriptpubkey": "a9141cdd21830cbb2c17d70f8789f054c50af1ffd0a287",
        "scriptpubkey_asm": "OP_HASH160 OP_PUSHBYTES_20 1cdd21830cbb2c17d70f8789f054c50af1ffd0a2 OP_EQUAL",
        "scriptpubkey_type": "p2sh",
        "scriptpubkey_address": "34KdkMpJRPn6sJW6dXBeDbLeFNgg1bjwfG",
        "value": 2359157
      },
      "scriptsig": "220020372eb2a8dbb30b45fa5efb96fa478bfa370c0e307abbebbb7207c8c29931ee64",
      "scriptsig_asm": "OP_PUSHBYTES_34 0020372eb2a8dbb30b45fa5efb96fa478bfa370c0e307abbebbb7207c8c29931ee64",
      "witness": [
        "",
        "3045022100fbc81b34b27b3a318833123c539526571ec1c0df4f4b708f168a11f37bbe918b022074aa1b59d4e64fa1a6a580b270c35274cbcf18b0a310621f123e1ffb89edde4401",
        "304402207d48c78516f997ef15fa6cd6269f2597b550bbaa37f18848e39b120170022e27022050e66769d791ba2b48b926453d8459fe0fe7ce7a424786f0a56339f53d649a6801",
        "522103517df3f7d76f5101ddbb39385b7fdb80821ab2ec112889e5596b0e4003ebe92f21025ae37c6feeed829ed8479c2462fbecab185e9a0696110d12d86cb92e9886a9482103a25c6be0604fd57308bd3aa4adffb4f3e399dfc4e0d30636ae9b9903ce9eeca853ae"
      ],
      "is_coinbase": false,
      "sequence": 4294967295,
      "inner_redeemscript_asm": "OP_0 OP_PUSHBYTES_32 372eb2a8dbb30b45fa5efb96fa478bfa370c0e307abbebbb7207c8c29931ee64",
      "inner_witnessscript_asm": "OP_PUSHNUM_2 OP_PUSHBYTES_33 03517df3f7d76f5101ddbb39385b7fdb80821ab2ec112889e5596b0e4003ebe92f OP_PUSHBYTES_33 025ae37c6feeed829ed8479c2462fbecab185e9a0696110d12d86cb92e9886a948 OP_PUSHBYTES_33 03a25c6be0604fd57308bd3aa4adffb4f3e399dfc4e0d30636ae9b9903ce9eeca8 OP_PUSHNUM_3 OP_CHECKMULTISIG"
    },
    {
      "txid": "e26f918b3fb0c400e3aaeca27b190fd8cf170125a0dd412c5a9d63b9e94d8f37",
      "vout": 51,
      "prevout": {
        "scriptpubkey": "a914f77eb638cc26e6f602b587c6c8336f9b99a22b2e87",
        "scriptpubkey_asm": "OP_HASH160 OP_PUSHBYTES_20 f77eb638cc26e6f602b587c6c8336f9b99a22b2e OP_EQUAL",
        "scriptpubkey_type": "p2sh",
        "scriptpubkey_address": "3QFed1uJynryeq5Q1FuBcV7HbTL6Gxz1sV",
        "value": 2674272
      },
      "scriptsig": "22002016f7dcd3c9e6a45775df95ce1b46f52632311b60f8586b22447ae45337060a6e",
      "scriptsig_asm": "OP_PUSHBYTES_34 002016f7dcd3c9e6a45775df95ce1b46f52632311b60f8586b22447ae45337060a6e",
      "witness": [
        "",
        "3044022066d089b07317cd51ce63f33a034afcbe1e5f57480c9c7210b940703372f962200220517d07c7bfc21a1489ee303f306e46d2020975544a48cdfa4a196e1e8729a3d601",
        "304402201e2425aac2fac8ea28f5247878eecc2820219240ed548aa9706e573e6b2371e702201fb6dd40617350e4ce6755fae3ca67c406b914dd6b0955e9bb29af150680d83401",
        "52210348a9f081391d6cb29e0d04bb3d09073bb7fc5a1c81a5f8cf51e7668a520397ca21030929b3c790b7e282175939f83ce5f98bf8a1a21994be64beb0da02e6a4718d3621033d4a77fcffb16423a1b51b1ed7f696cf4f81b7752d5a412c7f3be5c7a9aaaee453ae"
      ],
      "is_coinbase": false,
      "sequence": 4294967295,
      "inner_redeemscript_asm": "OP_0 OP_PUSHBYTES_32 16f7dcd3c9e6a45775df95ce1b46f52632311b60f8586b22447ae45337060a6e",
      "inner_witnessscript_asm": "OP_PUSHNUM_2 OP_PUSHBYTES_33 0348a9f081391d6cb29e0d04bb3d09073bb7fc5a1c81a5f8cf51e7668a520397ca OP_PUSHBYTES_33 030929b3c790b7e282175939f83ce5f98bf8a1a21994be64beb0da02e6a4718d36 OP_PUSHBYTES_33 033d4a77fcffb16423a1b51b1ed7f696cf4f81b7752d5a412c7f3be5c7a9aaaee4 OP_PUSHNUM_3 OP_CHECKMULTISIG"
    },
    {
      "txid": "e79aaf390bb046c4296aac6269ecee61abe4a3e6c616849df5be0fce8feb13a4",
      "vout": 0,
      "prevout": {
        "scriptpubkey": "a914615ca70c4ec728ef5021e80d39ee065dfe038a7c87",
        "scriptpubkey_asm": "OP_HASH160 OP_PUSHBYTES_20 615ca70c4ec728ef5021e80d39ee065dfe038a7c OP_EQUAL",
        "scriptpubkey_type": "p2sh",
        "scriptpubkey_address": "3AZpTm9oqxpiazZoJL7JeMMigSjVLYiUdG",
        "value": 2729258
      },
      "scriptsig": "2200200baf3504ad2f92810cfc72940ee80bcefb340631377be7e61a7d2dfb91bb5e29",
      "scriptsig_asm": "OP_PUSHBYTES_34 00200baf3504ad2f92810cfc72940ee80bcefb340631377be7e61a7d2dfb91bb5e29",
      "witness": [
        "",
        "304402201819d67a28084af5e26bf32dd70cec4f49f46d5ca936768d40a528252963cf0302206dadff9dae05bbbc00b93482288c53f8cb561114420d58d7e5168333629ba38701",
        "3044022072ab62f7be1d18c94953030cd0c16476bb0253940e50b85e5fbb3564510ec5200220093267e4a5163f583f6439b1fa9f5724809eff02e6d283b71d8dac4fc4feee5b01",
        "5221039003135808da12b3f5fdcea5040e7d030b9d84048022752d8408d99cd165e8442102cccaf74433a7e50c2abf2f2855c13a741e2bbc02a9a57bb5fab95fd848fa55f321028a6660ff2165ba8b706550c8b37609bf1243bdb4c8d1ecb6398553f5e0ab1b8053ae"
      ],
      "is_coinbase": false,
      "sequence": 4294967295,
      "inner_redeemscript_asm": "OP_0 OP_PUSHBYTES_32 0baf3504ad2f92810cfc72940ee80bcefb340631377be7e61a7d2dfb91bb5e29",
      "inner_witnessscript_asm": "OP_PUSHNUM_2 OP_PUSHBYTES_33 039003135808da12b3f5fdcea5040e7d030b9d84048022752d8408d99cd165e844 OP_PUSHBYTES_33 02cccaf74433a7e50c2abf2f2855c13a741e2bbc02a9a57bb5fab95fd848fa55f3 OP_PUSHBYTES_33 028a6660ff2165ba8b706550c8b37609bf1243bdb4c8d1ecb6398553f5e0ab1b80 OP_PUSHNUM_3 OP_CHECKMULTISIG"
    },
    {
      "txid": "eab5f067f9a7864a6c47b1c863c50321b8f020bcb7536a2d499443edf7e31384",
      "vout": 11,
      "prevout": {
        "scriptpubkey": "a91456b445a4e46f9b8018e798fcda6ee4cfcd2b87a487",
        "scriptpubkey_asm": "OP_HASH160 OP_PUSHBYTES_20 56b445a4e46f9b8018e798fcda6ee4cfcd2b87a4 OP_EQUAL",
        "scriptpubkey_type": "p2sh",
        "scriptpubkey_address": "39bTzZarSQnUNTnT1xEYXLj7EtPbVJ7rr2",
        "value": 3882468
      },
      "scriptsig": "2200203336c6ad2294e05ee8222aaf2b17657b2c808d63e704f5cf105c21db3fac25ec",
      "scriptsig_asm": "OP_PUSHBYTES_34 00203336c6ad2294e05ee8222aaf2b17657b2c808d63e704f5cf105c21db3fac25ec",
      "witness": [
        "",
        "304402201dfd0fb41ffd1977b562e3b4d4795a0416b1824350764b2eed286d24b703eabe022003ddbe89eed6b31eb190a4ce9fa03b1a5e2cf855536b6f1eb3ccbfa45faf9ae301",
        "3044022006b5ade86f3f6ece0730b40a1662cab3d890239db559d64107a95013adfd3e280220304a636f7bd858334c8d5160cf3002e2c75fe6bcd2c6e761f8d586423c0eb96a01",
        "522103c6e1318f008e664c068bff14266f87ac1d21adebb8ee3cde5ff9e67e5fffb76721025b521641f25806a46b1729eefe01ae82c2e292624ae939f0c391cc8c3c9e7b1e2102a8de4b20e0fa5e5d8c86760a8acb9c25ca889bc8c4693d46e06d1881de2a27db53ae"
      ],
      "is_coinbase": false,
      "sequence": 4294967295,
      "inner_redeemscript_asm": "OP_0 OP_PUSHBYTES_32 3336c6ad2294e05ee8222aaf2b17657b2c808d63e704f5cf105c21db3fac25ec",
      "inner_witnessscript_asm": "OP_PUSHNUM_2 OP_PUSHBYTES_33 03c6e1318f008e664c068bff14266f87ac1d21adebb8ee3cde5ff9e67e5fffb767 OP_PUSHBYTES_33 025b521641f25806a46b1729eefe01ae82c2e292624ae939f0c391cc8c3c9e7b1e OP_PUSHBYTES_33 02a8de4b20e0fa5e5d8c86760a8acb9c25ca889bc8c4693d46e06d1881de2a27db OP_PUSHNUM_3 OP_CHECKMULTISIG"
    }
  ],
  "vout": [
    {
      "scriptpubkey": "76a914c5b19e5bf1d9e3d91efef5cbfe6e213ed4e6421688ac",
      "scriptpubkey_asm": "OP_DUP OP_HASH160 OP_PUSHBYTES_20 c5b19e5bf1d9e3d91efef5cbfe6e213ed4e64216 OP_EQUALVERIFY OP_CHECKSIG",
      "scriptpubkey_type": "p2pkh",
      "scriptpubkey_address": "1K2JtwuQbQfKe84TZRoVqsdU4Ko8VVYevX",
      "value": 222024
    },
    {
      "scriptpubkey": "76a914af51cafca4b28145474a7088de6ece0770c2c42d88ac",
      "scriptpubkey_asm": "OP_DUP OP_HASH160 OP_PUSHBYTES_20 af51cafca4b28145474a7088de6ece0770c2c42d OP_EQUALVERIFY OP_CHECKSIG",
      "scriptpubkey_type": "p2pkh",
      "scriptpubkey_address": "1Gz1EeEETfYkaKqTUGDUKpeWFFmymdPGYm",
      "value": 230000
    },
    {
      "scriptpubkey": "00140d24091bf26dfb21e7364a54afbf0e93528f001e",
      "scriptpubkey_asm": "OP_0 OP_PUSHBYTES_20 0d24091bf26dfb21e7364a54afbf0e93528f001e",
      "scriptpubkey_type": "v0_p2wpkh",
      "scriptpubkey_address": "bc1qp5jqjxljdhajreekff22l0cwjdfg7qq72ep5vd",
      "value": 407383
    },
    {
      "scriptpubkey": "76a9146dfd2234826ba5c9b2029f6855115be703c1d41288ac",
      "scriptpubkey_asm": "OP_DUP OP_HASH160 OP_PUSHBYTES_20 6dfd2234826ba5c9b2029f6855115be703c1d412 OP_EQUALVERIFY OP_CHECKSIG",
      "scriptpubkey_type": "p2pkh",
      "scriptpubkey_address": "1B2Ztwbf5YM3pa3fkvwQmSjZQZEQdcsC4j",
      "value": 710618
    },
    {
      "scriptpubkey": "00142123acd88ea1bb5a1c9a8a8e62075ae567ed0ae1",
      "scriptpubkey_asm": "OP_0 OP_PUSHBYTES_20 2123acd88ea1bb5a1c9a8a8e62075ae567ed0ae1",
      "scriptpubkey_type": "v0_p2wpkh",
      "scriptpubkey_address": "bc1qyy36ekyw5xa458y6328xyp66u4n76zhpgwlua5",
      "value": 1681045
    },
    {
      "scriptpubkey": "a914f9753a2c51636a268ab2d5b3c4b6292fed767faa87",
      "scriptpubkey_asm": "OP_HASH160 OP_PUSHBYTES_20 f9753a2c51636a268ab2d5b3c4b6292fed767faa OP_EQUAL",
      "scriptpubkey_type": "p2sh",
      "scriptpubkey_address": "3QS2cQCmyoGJvHotoqY5TNwsiZo9r3s7Go",
      "value": 49178880
    },
    {
      "scriptpubkey": "002007288524949e8673607d27a455cd44300f06ad2eb2c7d009a700b9b0e81c632d",
      "scriptpubkey_asm": "OP_0 OP_PUSHBYTES_32 07288524949e8673607d27a455cd44300f06ad2eb2c7d009a700b9b0e81c632d",
      "scriptpubkey_type": "v0_p2wsh",
      "scriptpubkey_address": "bc1qqu5g2fy5n6r8xcray7j9tn2yxq8sdtfwktraqzd8qzump6quvvks60sjc5",
      "value": 365529502
    }
  ],
  "size": 3464,
  "weight": 6281,
  "fee": 34756,
  "status": {
    "confirmed": true,
    "block_height": 834638,
    "block_hash": "000000000000000000025f742c626208ac87e0b7d15054abb4a19ca2d735a54e",
    "block_time": 1710405325
  },
  "hex": "0100000000010a85d08971b529f5b334d2ca637dd5b189f21ec7a3f7abe6f7dffe6d640d1417080300000000ffffffff97f66385b72feda45292b9f04783508fdb6b8252030c20801dae7bd6ef0083160400000000ffffffffb50a53a5e5b5888e92fbe850fb632fe77d92beb631e99eb8f473e412bd3d981c00000000232200205fdc93e7ffd14106855b35ce96562810f136d665c96625691fbf09d6bc9452c2ffffffff548847a03e9ff88de673b0ab56b0683e1939a3f4f4866cd12b2025c6f5f8732a01000000232200201a1dea7c92b329e268d3362f0daf4e14fb2cb6d69a0f624a8d2cc2132e9131bcffffffff0e71cf5305b140d77534ca26bb35603dce5483d0554d025e760d3942e653786a01000000232200206a4c1517a6e48024aa712ac109a86f759bc9265fb22912473666eaea33a2155effffffff4282d417e67a41224f792f87e6a775f69a138092808991d32131a86722a672aa0200000023220020932955986603249d8cc44c21ff3cf4e6fef6992a2c771a4765ac5004546fc4d7ffffffffa93d7bcf4c256b6b1d9848fa6f3a797afc5f6c112c00f028c6017ce2f6ef44cc0000000023220020372eb2a8dbb30b45fa5efb96fa478bfa370c0e307abbebbb7207c8c29931ee64ffffffff378f4de9b9639d5a2c41dda0250117cfd80f197ba2ecaae300c4b03f8b916fe2330000002322002016f7dcd3c9e6a45775df95ce1b46f52632311b60f8586b22447ae45337060a6effffffffa413eb8fce0fbef59d8416c6e6a3e4ab61eeec6962ac6a29c446b00b39af9ae700000000232200200baf3504ad2f92810cfc72940ee80bcefb340631377be7e61a7d2dfb91bb5e29ffffffff8413e3f7ed4394492d6a53b7bc20f0b82103c563c8b1476c4a86a7f967f0b5ea0b000000232200203336c6ad2294e05ee8222aaf2b17657b2c808d63e704f5cf105c21db3fac25ecffffffff0748630300000000001976a914c5b19e5bf1d9e3d91efef5cbfe6e213ed4e6421688ac70820300000000001976a914af51cafca4b28145474a7088de6ece0770c2c42d88ac57370600000000001600140d24091bf26dfb21e7364a54afbf0e93528f001edad70a00000000001976a9146dfd2234826ba5c9b2029f6855115be703c1d41288ac95a61900000000001600142123acd88ea1bb5a1c9a8a8e62075ae567ed0ae10069ee020000000017a914f9753a2c51636a268ab2d5b3c4b6292fed767faa879e89c9150000000022002007288524949e8673607d27a455cd44300f06ad2eb2c7d009a700b9b0e81c632d0400473044022059a656ebcf7f31ea1b88b49565bc183304aa98c21f9503dae95a830e1b60fe24022049d56d655b7bb5ce144acebe1e3714260a18aec0458c58e90fede091005c6f980147304402202493d5a9722ec46c311f6d41167a7de70cca6be3d36f5a1193097562eeab0685022031f4fbd0997f6b2df412b7daf65e2636d5eb606ffa26611b712f4dc5fd9c0ae301695221032cb76b4e7b4b34e520d3ea3fc9de378a909d4c71ce958c3cec7758c33f07aecd21030c8d55d1a601abd2ae8f11351a8fc65a95a53e3bfa258e1849cab24dcf533d7d210310de3982cca41f837937d87457bdf8bd48595d5d63482aa11a45512f39d2da0353ae0400483045022100c42b9c779943ec74ff83aa44bd712a74cc69a2f1c6ba0d2602befb85b7ccc9c002203ea97bacb78d72394d5c3a37920b81cc1a4ab81578951b7f6007c496ad38e72801473044022054fd6e16d903ab47c068caac59c16ce4de8f484687cae7755bcbeeabff57761802202da349f4fc4cc3253d0dd7f2fe20b74a2ecde1fe3ba9e6733ba30277dcdbf9710169522102c302c338fb15401a0d61d1fc4002755f40b7610e881e001c338a08cbea3ca8682103b3329c3f14773adf3976756bfc19174aabfb3db5dad95725091f0c325ca43c872102e2006e4d0f5ee674c48f34c8271840036cbc78600538e489852360503850635f53ae040047304402201a3ddfd16cb65f8b1298a86522f729641dee3c870b0941de9581e3288e29d9a70220462bf7f13746a80e1635b16e7d6a7d95ceb897413705154d1cf1e60b5b14e02901473044022073ac4741c10b490de54ac0f045676947b5acfd30f12e384af34247f98cdab82302206451e1a7cbd4b5925b8cd51d60feb6cd452712f6980ef7a189c1605d402e395c0169522103b91bb38872ee2b45cb5e191b61b765155a5f47d7aa0fbb91945b7345947ff41a2103f33786268ebf6ac6ef5b37d85822e738d7c55d6f76f25d91321b6869468e6f642102514c4faa2ad0b0677845e7e4eb2a10cce52728dbcc65eaf1fc2cbe5dc51e4a8d53ae040047304402203b037493352db91f22592a00cafc5b2d7c3efffe9318e281cd62ccc34a8682c3022068990794a230107be92ee8f9d1bfb013dd2d66cd428caf5ae2c95c85543e6ee60147304402200c7db767a3138fce67f2fe2bb467b6010b938f0b18d047649ed0d11177fa1afc02207a29bf92a13ac2023d996d7cc9ae8d3aa3476f570e6d8fa8b9bfad7099d9446e0169522102aee351a13a59331505cbf677db49498b300b5ea8b043b8ae0a533e5da1a291f621037be73509b30e34c42040413f938412a499e4ff30ec329e997b4cf4f48d4a82ef210320af290952b3077a70268737a51e1366cb1d17f2ab5e8d7918d5e82c3114e27353ae0400473044022058bf1d0018a4e1f21b43c63711422510e7e53dad39d5517d9387dfbf5c54c57c0220620e7e3d46a6d34408558f7f0f3baa9080b2133a8b8bf98ca0bbb374e3433ca201473044022036f8da7b56543ee79412c18cb375c6dcdf51d77079c15409cd95f45192e4f14f0220380b08cd529fe254937cf47098fa22460e0dcdc105e75cedc7175375af9fe4dc0169522102241e56c2461d2149a41a19d659af9c8fd13a5299351fc5e74326d1937e4af50a21036820993706bc8abb1ad9b3737a1bab27a78b43ecf75aac1affd2d6f9d4bf356a21034447cd25284b0481f3713f459b72680efae95398ce5454e6d8bd8bac2ba84ea853ae0400483045022100b151d844b94652129d00dd4efa11e6e5bbb303aed654f1f8648d17eeba6ae07e02203c7a24e5575540786bb22922db582a2abf73dd710fc93cff4db68d9ddc3a6b2b014730440220704bd035ed5b36a4db872511b01fd504af5d130f11a885fc81adf367ae24577502205965bfb55c58a743816baf8f6ac0a49ba3ed8d056d60e5c57aa91458a9b36e3301695221029d696e3503bb50268fe109124d3da5150f2e79485543c29e451002e1ed01b55e21026d97fec47c420efa94a779b025296152faa53b01d6decec22cd56a74767f461a2102425a52a3554359c77ac7c524a01d037195818e32190707b89a6b4a77da3f474f53ae0400483045022100fbc81b34b27b3a318833123c539526571ec1c0df4f4b708f168a11f37bbe918b022074aa1b59d4e64fa1a6a580b270c35274cbcf18b0a310621f123e1ffb89edde440147304402207d48c78516f997ef15fa6cd6269f2597b550bbaa37f18848e39b120170022e27022050e66769d791ba2b48b926453d8459fe0fe7ce7a424786f0a56339f53d649a680169522103517df3f7d76f5101ddbb39385b7fdb80821ab2ec112889e5596b0e4003ebe92f21025ae37c6feeed829ed8479c2462fbecab185e9a0696110d12d86cb92e9886a9482103a25c6be0604fd57308bd3aa4adffb4f3e399dfc4e0d30636ae9b9903ce9eeca853ae0400473044022066d089b07317cd51ce63f33a034afcbe1e5f57480c9c7210b940703372f962200220517d07c7bfc21a1489ee303f306e46d2020975544a48cdfa4a196e1e8729a3d60147304402201e2425aac2fac8ea28f5247878eecc2820219240ed548aa9706e573e6b2371e702201fb6dd40617350e4ce6755fae3ca67c406b914dd6b0955e9bb29af150680d834016952210348a9f081391d6cb29e0d04bb3d09073bb7fc5a1c81a5f8cf51e7668a520397ca21030929b3c790b7e282175939f83ce5f98bf8a1a21994be64beb0da02e6a4718d3621033d4a77fcffb16423a1b51b1ed7f696cf4f81b7752d5a412c7f3be5c7a9aaaee453ae040047304402201819d67a28084af5e26bf32dd70cec4f49f46d5ca936768d40a528252963cf0302206dadff9dae05bbbc00b93482288c53f8cb561114420d58d7e5168333629ba38701473044022072ab62f7be1d18c94953030cd0c16476bb0253940e50b85e5fbb3564510ec5200220093267e4a5163f583f6439b1fa9f5724809eff02e6d283b71d8dac4fc4feee5b01695221039003135808da12b3f5fdcea5040e7d030b9d84048022752d8408d99cd165e8442102cccaf74433a7e50c2abf2f2855c13a741e2bbc02a9a57bb5fab95fd848fa55f321028a6660ff2165ba8b706550c8b37609bf1243bdb4c8d1ecb6398553f5e0ab1b8053ae040047304402201dfd0fb41ffd1977b562e3b4d4795a0416b1824350764b2eed286d24b703eabe022003ddbe89eed6b31eb190a4ce9fa03b1a5e2cf855536b6f1eb3ccbfa45faf9ae301473044022006b5ade86f3f6ece0730b40a1662cab3d890239db559d64107a95013adfd3e280220304a636f7bd858334c8d5160cf3002e2c75fe6bcd2c6e761f8d586423c0eb96a0169522103c6e1318f008e664c068bff14266f87ac1d21adebb8ee3cde5ff9e67e5fffb76721025b521641f25806a46b1729eefe01ae82c2e292624ae939f0c391cc8c3c9e7b1e2102a8de4b20e0fa5e5d8c86760a8acb9c25ca889bc8c4693d46e06d1881de2a27db53ae4dbc0c00"
}