{
  "txid": "b34c17fd313dc469dc02303021f5d9be00dd81da13ecc8d379b4f4a37532f624",
  "version": 2,
  "locktime": 0,
  "vin": [
    {
      "txid": "659b82bf51c32df260f3e3563d90fcbcb0098209af4d18020ca9e1a619ccc8c8",
      "vout": 13,
      "prevout": {
        "scriptpubkey": "51203f3f49d71211d31f18799edb5dc41acbbe27c1a93a50684cbdd9da6c4b199b35",
        "scriptpubkey_asm": "OP_PUSHNUM_1 OP_PUSHBYTES_32 3f3f49d71211d31f18799edb5dc41acbbe27c1a93a50684cbdd9da6c4b199b35",
        "scriptpubkey_type": "v1_p2tr",
        "scriptpubkey_address": "bc1p8ul5n4cjz8f37xrenmd4m3q6ewlz0sdf8fgxsn9am8dxcjcenv6sekqudx",
        "value": 1931
      },
      "scriptsig": "",
      "scriptsig_asm": "",
      "witness": [
        "39a2bffd0e2e46679df798fa9dbbbccea68b6114ec3566d4198f69d89cd47c5f324bd70158a13b00033619497c8553f865be5f1b4566f579a6df911731c658c4",
        "202a7de8464cb303a47161bc270a57b243c2a8ad7c5ab7b55cad6fffde3bec5992ac0063036f726401010a746578742f706c61696e00367b2270223a226272632d3230222c226f70223a226d696e74222c227469636b223a2261616161222c22616d74223a223130303030227d68",
        "c02a7de8464cb303a47161bc270a57b243c2a8ad7c5ab7b55cad6fffde3bec5992"
      ],
      "is_coinbase": false,
      "sequence": 4261412863
    }
  ],
  "vout": [
    {
      "scriptpubkey": "0014be9f0c070a9b1bd40f5fcb06fba89738d936ceb6",
      "scriptpubkey_asm": "OP_0 OP_PUSHBYTES_20 be9f0c070a9b1bd40f5fcb06fba89738d936ceb6",
      "scriptpubkey_type": "v0_p2wpkh",
      "scriptpubkey_address": "bc1qh60scpc2nvdagr6levr0h2yh8rvndn4k4v5s9g",
      "value": 294
    }
  ],
  "size": 295,
  "weight": 541,
  "fee": 1637,
  "status": {
    "confirmed": true,
    "block_height": 834460,
    "block_hash": "00000000000000000000484a79b643b2524bbce82e5d8a442013fa5b8905ed98",
    "block_time": 1710307468
  },
  "hex": "02000000000101c8c8cc19a6e1a90c02184daf098209b0bcfc903d56e3f360f22dc351bf829b650d00000000fffffffd012601000000000000160014be9f0c070a9b1bd40f5fcb06fba89738d936ceb6034039a2bffd0e2e46679df798fa9dbbbccea68b6114ec3566d4198f69d89cd47c5f324bd70158a13b00033619497c8553f865be5f1b4566f579a6df911731c658c46e202a7de8464cb303a47161bc270a57b243c2a8ad7c5ab7b55cad6fffde3bec5992ac0063036f726401010a746578742f706c61696e00367b2270223a226272632d3230222c226f70223a226d696e74222c227469636b223a2261616161222c22616d74223a223130303030227d6821c02a7de8464cb303a47161bc270a57b243c2a8ad7c5ab7b55cad6fffde3bec599200000000"
}