{
  "txid": "b35174260312d791235b829dc13e9ced9f5255a9a8b4748e68d8d46340a11a9f",
  "version": 1,
  "locktime": 0,
  "vin": [
    {
      "txid": "cf21a36378743b525acb83d9ed3256fb0f2f08553358beb4729726265272f1f4",
      "vout": 1,
      "prevout": {
        "scriptpubkey": "0014e1327f00621ac1819b60e73fab345535858ae296",
        "scriptpubkey_asm": "OP_0 OP_PUSHBYTES_20 e1327f00621ac1819b60e73fab345535858ae296",
        "scriptpubkey_type": "v0_p2wpkh",
        "scriptpubkey_address": "bc1quye87qrzrtqcrxmquul6kdz4xkzc4c5kgre2eh",
        "value": 41410
      },
      "scriptsig": "",
      "scriptsig_asm": "",
      "witness": [
        "304402200bfd9c782af2c6b5e2eb1b86ca7e462d88383f9ff2277ea86d62e0afdcc3764d0220601ba1325e3b1ea2dfc5f9ce9ef2ebd3f3e8c0a373624974fe5f7e201f7fbd7f01",
        "021db0c81f04ab35b08d327c8bcd8571750faaa9240dc3b11d344089cfbd3f833d"
      ],
      "is_coinbase": false,
      "sequence": 4294967295
    }
  ],
  "vout": [
    {
      "scriptpubkey": "00141311a1cf394d06d8eac425d4ad1b45aef8e29e46",
      "scriptpubkey_asm": "OP_0 OP_PUSHBYTES_20 1311a1cf394d06d8eac425d4ad1b45aef8e29e46",
      "scriptpubkey_type": "v0_p2wpkh",
      "scriptpubkey_address": "bc1qzvg6rneef5rd36kyyh226x694muw98jx2v3skd",
      "value": 39828
    }
  ],
  "size": 191,
  "weight": 437,
  "fee": 1582,
  "status": {
    "confirmed": true,
    "block_height": 834638,
    "block_hash": "000000000000000000025f742c626208ac87e0b7d15054abb4a19ca2d735a54e",
    "block_time": 1710405325
  },
  "hex": "01000000000101f4f1725226269772b4be583355082f0ffb5632edd983cb5a523b747863a321cf0100000000ffffffff01949b0000000000001600141311a1cf394d06d8eac425d4ad1b45aef8e29e460247304402200bfd9c782af2c6b5e2eb1b86ca7e462d88383f9ff2277ea86d62e0afdcc3764d0220601ba1325e3b1ea2dfc5f9ce9ef2ebd3f3e8c0a373624974fe5f7e201f7fbd7f0121021db0c81f04ab35b08d327c8bcd8571750faaa9240dc3b11d344089cfbd3f833d00000000"
}