{
  "txid": "b36a8ae301bfa2709ffa100035206c2b67dea71640bfd734bd4be52f3875999d",
  "version": 1,
  "locktime": 0,
  "vin": [
    {
      "txid": "4ae07b4c93e54b18b220885e7e17de9759ff7dffe684c739d2e6969403baff7d",
      "vout": 1,
      "prevout": {
        "scriptpubkey": "51209d6dbbf9bad17d0135e06ea56ec304df985f9f9bc809fa52ae6789a0947e0300",
        "scriptpubkey_asm": "OP_PUSHNUM_1 OP_PUSHBYTES_32 9d6dbbf9bad17d0135e06ea56ec304df985f9f9bc809fa52ae6789a0947e0300",
        "scriptpubkey_type": "v1_p2tr",
        "scriptpubkey_address": "bc1pn4kmh7d6697szd0qd6jkascym7v9l8umeqyl554wv7y6p9r7qvqquzkndh",
        "value": 380709
      },
      "scriptsig": "",
      "scriptsig_asm": "",
      "witness": [
        "22d765529de86e7d35d3d8da3faf4e9e70b6afb2c31115eb59273a6c58271247deca8f6307bdaa9f913c46a22e7f4f89f70bd7180ec3d651be5ded389f6254bc"
      ],
      "is_coinbase": false,
      "sequence": 0
    }
  ],
  "vout": [
    {
      "scriptpubkey": "5120c0921f41ab6de5974740dd19255177c601371c98992673c352f6fccfdf0da91b",
      "scriptpubkey_asm": "OP_PUSHNUM_1 OP_PUSHBYTES_32 c0921f41ab6de5974740dd19255177c601371c98992673c352f6fccfdf0da91b",
      "scriptpubkey_type": "v1_p2tr",
      "scriptpubkey_address": "bc1pczfp7sdtdhjew36qm5vj25thccqnw8ycnyn88s6j7m7vlhcd4ydsd483kv",
      "value": 2710
    },
    {
      "scriptpubkey": "51209d6dbbf9bad17d0135e06ea56ec304df985f9f9bc809fa52ae6789a0947e0300",
      "scriptpubkey_asm": "OP_PUSHNUM_1 OP_PUSHBYTES_32 9d6dbbf9bad17d0135e06ea56ec304df985f9f9bc809fa52ae6789a0947e0300",
      "scriptpubkey_type": "v1_p2tr",
      "scriptpubkey_address": "bc1pn4kmh7d6697szd0qd6jkascym7v9l8umeqyl554wv7y6p9r7qvqquzkndh",
      "value": 376151
    }
  ],
  "size": 205,
  "weight": 616,
  "fee": 1848,
  "status": {
    "confirmed": true,
    "block_height": 834460,
    "block_hash": "00000000000000000000484a79b643b2524bbce82e5d8a442013fa5b8905ed98",
    "block_time": 1710307468
  },
  "hex": "010000000001017dffba039496e6d239c784e6ff7dff5997de177e5e8820b2184be5934c7be04a01000000000000000002960a000000000000225120c0921f41ab6de5974740dd19255177c601371c98992673c352f6fccfdf0da91b57bd0500000000002251209d6dbbf9bad17d0135e06ea56ec304df985f9f9bc809fa52ae6789a0947e0300014022d765529de86e7d35d3d8da3faf4e9e70b6afb2c31115eb59273a6c58271247deca8f6307bdaa9f913c46a22e7f4f89f70bd7180ec3d651be5ded389f6254bc00000000"
}