{
  "txid": "b37d59f476fec2ccaa6faf64478848f232e23e1beaba6151e972d882feb8b996",
  "version": 2,
  "locktime": 0,
  "vin": [
    {
      "txid": "e6af3282e5f5a2a29b751ec8de24df238516704007efeebfcfbea9df7a0a3fea",
      "vout": 3,
      "prevout": {
        "scriptpubkey": "51204d9ce4895584e30227f0c62bccc10f646d6be81954e5e81c97da792e613da4e1",
        "scriptpubkey_asm": "OP_PUSHNUM_1 OP_PUSHBYTES_32 4d9ce4895584e30227f0c62bccc10f646d6be81954e5e81c97da792e613da4e1",
        "scriptpubkey_type": "v1_p2tr",
        "scriptpubkey_address": "bc1pfkwwfz24sn3syflscc4uesg0v3kkh6qe2nj7s8yhmfujucfa5nss5gsas0",
        "value": 2595
      },
      "scriptsig": "",
      "scriptsig_asm": "",
      "witness": [
        "5a5e0dc06d7cfc129c05afb72abeb031b1ab4c0f27a1f399211897b42c7a6374a07f425ab0b91f8965b19c877f1ea50033ec1ae4e12190a081e9abb9817aec87",
        "20ea2ed5e41a29eb5c2a836f45b4d932a995d5a992712067421896570514e334cdac0063036f7264010118746578742f706c61696e3b636861727365743d7574662d3800347b2270223a226272632d3230222c226f70223a226d696e74222c227469636b223a2248554855222c22616d74223a22313030227d68",
        "c0ea2ed5e41a29eb5c2a836f45b4d932a995d5a992712067421896570514e334cd"
      ],
      "is_coinbase": false,
      "sequence": 4294967293
    }
  ],
  "vout": [
    {
      "scriptpubkey": "512051c53080bb5342dbc42b846810c53e8069dae7f6acfdc5746c5929b244ff8ea6",
      "scriptpubkey_asm": "OP_PUSHNUM_1 OP_PUSHBYTES_32 51c53080bb5342dbc42b846810c53e8069dae7f6acfdc5746c5929b244ff8ea6",
      "scriptpubkey_type": "v1_p2tr",
      "scriptpubkey_address": "bc1p28znpq9m2dpdh3pts35pp3f7sp5a4elk4n7u2arvty5my38l36nqzw542q",
      "value": 330
    }
  ],
  "size": 319,
  "weight": 601,
  "fee": 2265,
  "status": {
    "confirmed": true,
    "block_height": 834460,
    "block_hash": "00000000000000000000484a79b643b2524bbce82e5d8a442013fa5b8905ed98",
    "block_time": 1710307468
  },
  "hex": "02000000000101ea3f0a7adfa9becfbfeeef074070168523df24dec81e759ba2a2f5e58232afe60300000000fdffffff014a0100000000000022512051c53080bb5342dbc42b846810c53e8069dae7f6acfdc5746c5929b244ff8ea603405a5e0dc06d7cfc129c05afb72abeb031b1ab4c0f27a1f399211897b42c7a6374a07f425ab0b91f8965b19c877f1ea50033ec1ae4e12190a081e9abb9817aec877a20ea2ed5e41a29eb5c2a836f45b4d932a995d5a992712067421896570514e334cdac0063036f7264010118746578742f706c61696e3b636861727365743d7574662d3800347b2270223a226272632d3230222c226f70223a226d696e74222c227469636b223a2248554855222c22616d74223a22313030227d6821c0ea2ed5e41a29eb5c2a836f45b4d932a995d5a992712067421896570514e334cd00000000"
}