{
  "txid": "b37e8adf0d7aa788f1125b271d9a724b89cd7ebf3bcae9bbedc4fabd3c629124",
  "version": 2,
  "locktime": 0,
  "vin": [
    {
      "txid": "dd784d3d615a158f9f0f48131cd23e6e37d02aeb70ce728da065d4055ff0f2a4",
      "vout": 0,
      "prevout": {
        "scriptpubkey": "a9145c89a7eeade78639a63dc6c42e03a9d2ee03515987",
        "scriptpubkey_asm": "OP_HASH160 OP_PUSHBYTES_20 5c89a7eeade78639a63dc6c42e03a9d2ee035159 OP_EQUAL",
        "scriptpubkey_type": "p2sh",
        "scriptpubkey_address": "3A8JzhRNW1LiKAsch4eAVGSiVRgmYLR8jq",
        "value": 136201
      },
      "scriptsig": "1600141106b6564873695254eb4f8d3a67b2027ec62fa2",
      "scriptsig_asm": "OP_PUSHBYTES_22 00141106b6564873695254eb4f8d3a67b2027ec62fa2",
      "witness": [
        "30450221009156f989d4cafa9676474caa604ccc52c54223f9d73729f268eea71ada7d56a8022016a9ab2e623ca05228b0bc0424bf1df748c553e305b8c523c8d6395a39c6537001",
        "02c66d4fb9c2bf2ecfd4c2771ecea655c353ac06cff812a39f8dfeee12ce041e9c"
      ],
      "is_coinbase": false,
      "sequence": 4294967295,
      "inner_redeemscript_asm": "OP_0 OP_PUSHBYTES_20 1106b6564873695254eb4f8d3a67b2027ec62fa2"
    }
  ],
  "vout": [
    {
      "scriptpubkey": "a9145c89a7eeade78639a63dc6c42e03a9d2ee03515987",
      "scriptpubkey_asm": "OP_HASH160 OP_PUSHBYTES_20 5c89a7eeade78639a63dc6c42e03a9d2ee035159 OP_EQUAL",
      "scriptpubkey_type": "p2sh",
      "scriptpubkey_address": "3A8JzhRNW1LiKAsch4eAVGSiVRgmYLR8jq",
      "value": 600
    },
    {
      "scriptpubkey": "a9145c89a7eeade78639a63dc6c42e03a9d2ee03515987",
      "scriptpubkey_asm": "OP_HASH160 OP_PUSHBYTES_20 5c89a7eeade78639a63dc6c42e03a9d2ee035159 OP_EQUAL",
      "scriptpubkey_type": "p2sh",
      "scriptpubkey_address": "3A8JzhRNW1LiKAsch4eAVGSiVRgmYLR8jq",
      "value": 600
    },
    {
      "scriptpubkey": "a9145c89a7eeade78639a63dc6c42e03a9d2ee03515987",
      "scriptpubkey_asm": "OP_HASH160 OP_PUSHBYTES_20 5c89a7eeade78639a63dc6c42e03a9d2ee035159 OP_EQUAL",
      "scriptpubkey_type": "p2sh",
      "scriptpubkey_address": "3A8JzhRNW1LiKAsch4eAVGSiVRgmYLR8jq",
      "value": 600
    },
    {
      "scriptpubkey": "a9145c89a7eeade78639a63dc6c42e03a9d2ee03515987",
      "scriptpubkey_asm": "OP_HASH160 OP_PUSHBYTES_20 5c89a7eeade78639a63dc6c42e03a9d2ee035159 OP_EQUAL",
      "scriptpubkey_type": "p2sh",
      "scriptpubkey_address": "3A8JzhRNW1LiKAsch4eAVGSiVRgmYLR8jq",
      "value": 600
    },
    {
      "scriptpubkey": "a9145c89a7eeade78639a63dc6c42e03a9d2ee03515987",
      "scriptpubkey_asm": "OP_HASH160 OP_PUSHBYTES_20 5c89a7eeade78639a63dc6c42e03a9d2ee035159 OP_EQUAL",
      "scriptpubkey_type": "p2sh",
      "scriptpubkey_address": "3A8JzhRNW1LiKAsch4eAVGSiVRgmYLR8jq",
      "value": 600
    },
    {
      "scriptpubkey": "a9145c89a7eeade78639a63dc6c42e03a9d2ee03515987",
      "scriptpubkey_asm": "OP_HASH160 OP_PUSHBYTES_20 5c89a7eeade78639a63dc6c42e03a9d2ee035159 OP_EQUAL",
      "scriptpubkey_type": "p2sh",
      "scriptpubkey_address": "3A8JzhRNW1LiKAsch4eAVGSiVRgmYLR8jq",
      "value": 600
    },
    {
      "scriptpubkey": "a9145c89a7eeade78639a63dc6c42e03a9d2ee03515987",
      "scriptpubkey_asm": "OP_HASH160 OP_PUSHBYTES_20 5c89a7eeade78639a63dc6c42e03a9d2ee035159 OP_EQUAL",
      "scriptpubkey_type": "p2sh",
      "scriptpubkey_address": "3A8JzhRNW1LiKAsch4eAVGSiVRgmYLR8jq",
      "value": 600
    },
    {
      "scriptpubkey": "a9145c89a7eeade78639a63dc6c42e03a9d2ee03515987",
      "scriptpubkey_asm": "OP_HASH160 OP_PUSHBYTES_20 5c89a7eeade78639a63dc6c42e03a9d2ee035159 OP_EQUAL",
      "scriptpubkey_type": "p2sh",
      "scriptpubkey_address": "3A8JzhRNW1LiKAsch4eAVGSiVRgmYLR8jq",
      "value": 600
    },
    {
      "scriptpubkey": "a9145c89a7eeade78639a63dc6c42e03a9d2ee03515987",
      "scriptpubkey_asm": "OP_HASH160 OP_PUSHBYTES_20 5c89a7eeade78639a63dc6c42e03a9d2ee035159 OP_EQUAL",
      "scriptpubkey_type": "p2sh",
      "scriptpubkey_address": "3A8JzhRNW1LiKAsch4eAVGSiVRgmYLR8jq",
      "value": 600
    },
    {
      "scriptpubkey": "a9145c89a7eeade78639a63dc6c42e03a9d2ee03515987",
      "scriptpubkey_asm": "OP_HASH160 OP_PUSHBYTES_20 5c89a7eeade78639a63dc6c42e03a9d2ee035159 OP_EQUAL",
      "scriptpubkey_type": "p2sh",
      "scriptpubkey_address": "3A8JzhRNW1LiKAsch4eAVGSiVRgmYLR8jq",
      "value": 600
    },
    {
      "scriptpubkey": "a9145c89a7eeade78639a63dc6c42e03a9d2ee03515987",
      "scriptpubkey_asm": "OP_HASH160 OP_PUSHBYTES_20 5c89a7eeade78639a63dc6c42e03a9d2ee035159 OP_EQUAL",
      "scriptpubkey_type": "p2sh",
      "scriptpubkey_address": "3A8JzhRNW1LiKAsch4eAVGSiVRgmYLR8jq",
      "value": 123391
    }
  ],
  "size": 536,
  "weight": 1814,
  "fee": 6810,
  "status": {
    "confirmed": true,
    "block_height": 834638,
    "block_hash": "000000000000000000025f742c626208ac87e0b7d15054abb4a19ca2d735a54e",
    "block_time": 1710405325
  },
  "hex": "02000000000101a4f2f05f05d465a08d72ce70eb2ad0376e3ed21c13480f9f8f155a613d4d78dd00000000171600141106b6564873695254eb4f8d3a67b2027ec62fa2ffffffff0b580200000000000017a9145c89a7eeade78639a63dc6c42e03a9d2ee03515987580200000000000017a9145c89a7eeade78639a63dc6c42e03a9d2ee03515987580200000000000017a9145c89a7eeade78639a63dc6c42e03a9d2ee03515987580200000000000017a9145c89a7eeade78639a63dc6c42e03a9d2ee03515987580200000000000017a9145c89a7eeade78639a63dc6c42e03a9d2ee03515987580200000000000017a9145c89a7eeade78639a63dc6c42e03a9d2ee03515987580200000000000017a9145c89a7eeade78639a63dc6c42e03a9d2ee03515987580200000000000017a9145c89a7eeade78639a63dc6c42e03a9d2ee03515987580200000000000017a9145c89a7eeade78639a63dc6c42e03a9d2ee03515987580200000000000017a9145c89a7eeade78639a63dc6c42e03a9d2ee03515987ffe101000000000017a9145c89a7eeade78639a63dc6c42e03a9d2ee03515987024830450221009156f989d4cafa9676474caa604ccc52c54223f9d73729f268eea71ada7d56a8022016a9ab2e623ca05228b0bc0424bf1df748c553e305b8c523c8d6395a39c65370012102c66d4fb9c2bf2ecfd4c2771ecea655c353ac06cff812a39f8dfeee12ce041e9c00000000"
}