{
  "txid": "b38e482f670b0019e8322fe4bab7e71e0e525fd992424f7f4869096ece8c1dd4",
  "version": 2,
  "locktime": 0,
  "vin": [
    {
      "txid": "acc3ba00869acb582a3f2904ce3a11dd3779350ce234063fc7d0959246213364",
      "vout": 293,
      "prevout": {
        "scriptpubkey": "51209d32c7148760250572753f677a8cd72a8de7217ccf8a87bf0dc47e068d5397c6",
        "scriptpubkey_asm": "OP_PUSHNUM_1 OP_PUSHBYTES_32 9d32c7148760250572753f677a8cd72a8de7217ccf8a87bf0dc47e068d5397c6",
        "scriptpubkey_type": "v1_p2tr",
        "scriptpubkey_address": "bc1pn5evw9y8vqjs2un48anh4rxh92x7wgtue79g00cdc3lqdr2njlrq7h0qwm",
        "value": 1806
      },
      "scriptsig": "",
      "scriptsig_asm": "",
      "witness": [
        "82cc92b92d48484c886a21fbaf7138dc0c21ac3fd85be2bc7ab9da6a49e24d0c5e912a7880372875a163d5a4108e8c0d73cd3a0d34d3ecf9c5db466c145377d2",
        "205c76c54d3e98cf15239e6fa65deeda8f886f6e78e279aefdbe58cf6c1edc5d6cac0063036f726401010a746578742f706c61696e00357b2270223a226272632d3230222c226f70223a226d696e74222c227469636b223a22646f6765222c22616d74223a2234323030227d68",
        "c05c76c54d3e98cf15239e6fa65deeda8f886f6e78e279aefdbe58cf6c1edc5d6c"
      ],
      "is_coinbase": false,
      "sequence": 4261412863
    }
  ],
  "vout": [
    {
      "scriptpubkey": "00147a665de7a370f4c9b372ab1fae587500a5bcbdb4",
      "scriptpubkey_asm": "OP_0 OP_PUSHBYTES_20 7a665de7a370f4c9b372ab1fae587500a5bcbdb4",
      "scriptpubkey_type": "v0_p2wpkh",
      "scriptpubkey_address": "bc1q0fn9mearwr6vnvmj4v06ukr4qzjme0d565dzcx",
      "value": 294
    }
  ],
  "size": 294,
  "weight": 540,
  "fee": 1512,
  "status": {
    "confirmed": true,
    "block_height": 834460,
    "block_hash": "00000000000000000000484a79b643b2524bbce82e5d8a442013fa5b8905ed98",
    "block_time": 1710307468
  },
  "hex": "02000000000101643321469295d0c73f0634e20c357937dd113ace04293f2a58cb9a8600bac3ac2501000000fffffffd0126010000000000001600147a665de7a370f4c9b372ab1fae587500a5bcbdb4034082cc92b92d48484c886a21fbaf7138dc0c21ac3fd85be2bc7ab9da6a49e24d0c5e912a7880372875a163d5a4108e8c0d73cd3a0d34d3ecf9c5db466c145377d26d205c76c54d3e98cf15239e6fa65deeda8f886f6e78e279aefdbe58cf6c1edc5d6cac0063036f726401010a746578742f706c61696e00357b2270223a226272632d3230222c226f70223a226d696e74222c227469636b223a22646f6765222c22616d74223a2234323030227d6821c05c76c54d3e98cf15239e6fa65deeda8f886f6e78e279aefdbe58cf6c1edc5d6c00000000"
}