{
  "txid": "b3e70141aeb564cdde27dd15cf8e5c39008df7eeeab066083057daa5e7071c58",
  "version": 2,
  "locktime": 0,
  "vin": [
    {
      "txid": "023becf2356be365d2c2386a24e11e4fa40427363ad4bbe1eb82759281e8bd26",
      "vout": 1,
      "prevout": {
        "scriptpubkey": "5120dc697416ee5590d18551f59c951e8cd3fa1dfe057fdc176a2b1d6dc81dc7d8a0",
        "scriptpubkey_asm": "OP_PUSHNUM_1 OP_PUSHBYTES_32 dc697416ee5590d18551f59c951e8cd3fa1dfe057fdc176a2b1d6dc81dc7d8a0",
        "scriptpubkey_type": "v1_p2tr",
        "scriptpubkey_address": "bc1pm35hg9hw2kgdrp237kwf285v60apmls90lwpw63tr4kus8w8mzsqfr4awj",
        "value": 185090
      },
      "scriptsig": "",
      "scriptsig_asm": "",
      "witness": [
        "bd9708af2d2a2c2336dc690c6d19e4aca7a3785cfd3910c4f3f2eb400ee885b22758e2bd50c815d0b3397c2d17e6a50f82f43bf1f4fce1c6d206c5c3c5610fd7"
      ],
      "is_coinbase": false,
      "sequence": 2147483649
    }
  ],
  "vout": [
    {
      "scriptpubkey": "0020da9ad4c87547d425c57a6b37f98aa84499b1fcc5a4afa749a7fbe70d0b2f49dc",
      "scriptpubkey_asm": "OP_0 OP_PUSHBYTES_32 da9ad4c87547d425c57a6b37f98aa84499b1fcc5a4afa749a7fbe70d0b2f49dc",
      "scriptpubkey_type": "v0_p2wsh",
      "scriptpubkey_address": "bc1qm2ddfjr4gl2zt3t6dvmlnz4ggjvmrlx95jh6wjd8l0ns6ze0f8wqpnnrz2",
      "value": 149923
    },
    {
      "scriptpubkey": "5120dc697416ee5590d18551f59c951e8cd3fa1dfe057fdc176a2b1d6dc81dc7d8a0",
      "scriptpubkey_asm": "OP_PUSHNUM_1 OP_PUSHBYTES_32 dc697416ee5590d18551f59c951e8cd3fa1dfe057fdc176a2b1d6dc81dc7d8a0",
      "scriptpubkey_type": "v1_p2tr",
      "scriptpubkey_address": "bc1pm35hg9hw2kgdrp237kwf285v60apmls90lwpw63tr4kus8w8mzsqfr4awj",
      "value": 32857
    }
  ],
  "size": 205,
  "weight": 616,
  "fee": 2310,
  "status": {
    "confirmed": true,
    "block_height": 834638,
    "block_hash": "000000000000000000025f742c626208ac87e0b7d15054abb4a19ca2d735a54e",
    "block_time": 1710405325
  },
  "hex": "0200000000010126bde881927582ebe1bbd43a362704a44f1ee1246a38c2d265e36b35f2ec3b0201000000000100008002a349020000000000220020da9ad4c87547d425c57a6b37f98aa84499b1fcc5a4afa749a7fbe70d0b2f49dc5980000000000000225120dc697416ee5590d18551f59c951e8cd3fa1dfe057fdc176a2b1d6dc81dc7d8a00140bd9708af2d2a2c2336dc690c6d19e4aca7a3785cfd3910c4f3f2eb400ee885b22758e2bd50c815d0b3397c2d17e6a50f82f43bf1f4fce1c6d206c5c3c5610fd700000000"
}