{
  "txid": "b3f02f8b18412a6cf4531863fda8db79aeb31af12a15988f689fbeb7367f646b",
  "version": 2,
  "locktime": 0,
  "vin": [
    {
      "txid": "fe4622027264ce1708ce3efece02797c83179309196817aa0d1962c404cc299c",
      "vout": 0,
      "prevout": {
        "scriptpubkey": "0014994638dfc9ae745d87c99939d57b39c923873be8",
        "scriptpubkey_asm": "OP_0 OP_PUSHBYTES_20 994638dfc9ae745d87c99939d57b39c923873be8",
        "scriptpubkey_type": "v0_p2wpkh",
        "scriptpubkey_address": "bc1qn9rr3h7f4e69mp7fnyua27eeey3cwwlgq2xmp0",
        "value": 387188
      },
      "scriptsig": "",
      "scriptsig_asm": "",
      "witness": [
        "3045022100e66cd5a2124106a2756dc20d78c619f5741d92790965ffcc06fa22a5b28b0974022015ff51ca096006f7ccf97fb824a54cc9eaa93c57c1b949a644384b053bc2fa8801",
        "02bdf03d382cb37d2f36cd012408f2df3790dd106624e192f5c0fdd0f6cae16dd9"
      ],
      "is_coinbase": false,
      "sequence": 4294967295
    },
    {
      "txid": "3d5a8dae845e20a0a6000299072e44953924e14d4c7a33c2b90f0cc10a9f85a0",
      "vout": 15,
      "prevout": {
        "scriptpubkey": "0014d84b1d0a1e45f6460c82250027b8a770e7bf0d9a",
        "scriptpubkey_asm": "OP_0 OP_PUSHBYTES_20 d84b1d0a1e45f6460c82250027b8a770e7bf0d9a",
        "scriptpubkey_type": "v0_p2wpkh",
        "scriptpubkey_address": "bc1qmp936zs7ghmyvryzy5qz0w98wrnm7rv683xm37",
        "value": 3671153
      },
      "scriptsig": "",
      "scriptsig_asm": "",
      "witness": [
        "3045022100881f24274521ecb82296e67ec5538ed5b7f7452e6ad1e7fa5ac1d05dcac93d460220518fb1457655c3a36eed4a1d077a3a48cba8d776134ea5107b00404ddae93ac701",
        "03be07ab95efd4c81f660590761730cdc1863052b635e9b9fae7ac9dd028f1299a"
      ],
      "is_coinbase": false,
      "sequence": 4294967295
    }
  ],
  "vout": [
    {
      "scriptpubkey": "001412f2992d51a6bde874b20c73512fd95f8362728a",
      "scriptpubkey_asm": "OP_0 OP_PUSHBYTES_20 12f2992d51a6bde874b20c73512fd95f8362728a",
      "scriptpubkey_type": "v0_p2wpkh",
      "scriptpubkey_address": "bc1qztefjt235677sa9jp3e4zt7et7pkyu52e395zn",
      "value": 2566327
    },
    {
      "scriptpubkey": "001471dc2636d2ec0f0a63160680896801a15bf5064d",
      "scriptpubkey_asm": "OP_0 OP_PUSHBYTES_20 71dc2636d2ec0f0a63160680896801a15bf5064d",
      "scriptpubkey_type": "v0_p2wpkh",
      "scriptpubkey_address": "bc1qw8wzvdkjas8s5cckq6qgj6qp59dl2pjda4nlln",
      "value": 1488997
    }
  ],
  "size": 372,
  "weight": 834,
  "fee": 3017,
  "status": {
    "confirmed": true,
    "block_height": 834638,
    "block_hash": "000000000000000000025f742c626208ac87e0b7d15054abb4a19ca2d735a54e",
    "block_time": 1710405325
  },
  "hex": "020000000001029c29cc04c462190daa176819099317837c7902cefe3ece0817ce6472022246fe0000000000ffffffffa0859f0ac10c0fb9c2337a4c4de1243995442e07990200a6a0205e84ae8d5a3d0f00000000ffffffff02b72827000000000016001412f2992d51a6bde874b20c73512fd95f8362728a65b816000000000016001471dc2636d2ec0f0a63160680896801a15bf5064d02483045022100e66cd5a2124106a2756dc20d78c619f5741d92790965ffcc06fa22a5b28b0974022015ff51ca096006f7ccf97fb824a54cc9eaa93c57c1b949a644384b053bc2fa88012102bdf03d382cb37d2f36cd012408f2df3790dd106624e192f5c0fdd0f6cae16dd902483045022100881f24274521ecb82296e67ec5538ed5b7f7452e6ad1e7fa5ac1d05dcac93d460220518fb1457655c3a36eed4a1d077a3a48cba8d776134ea5107b00404ddae93ac7012103be07ab95efd4c81f660590761730cdc1863052b635e9b9fae7ac9dd028f1299a00000000"
}