{
  "txid": "b3f42fb4e188f1d4cc59338a21760f538cea557c3be1f0535589d451a1db49f6",
  "version": 2,
  "locktime": 0,
  "vin": [
    {
      "txid": "5a6d7c809418608d7413932a6290c75d0ac02a54819bc94c6ffb485f83d2b46b",
      "vout": 1,
      "prevout": {
        "scriptpubkey": "51208b162113a10164f2da3bb2e523d0c7f5293678de9984cb6560daff902d1da6b0",
        "scriptpubkey_asm": "OP_PUSHNUM_1 OP_PUSHBYTES_32 8b162113a10164f2da3bb2e523d0c7f5293678de9984cb6560daff902d1da6b0",
        "scriptpubkey_type": "v1_p2tr",
        "scriptpubkey_address": "bc1p3vtzzyapq9j09k3mktjj85x8755nv7x7nxzvketqmtleqtga56cqm28mzv",
        "value": 2101
      },
      "scriptsig": "",
      "scriptsig_asm": "",
      "witness": [
        "312f277c202f405a857e1584dc0ef35a5a718ef9968be21fcb73f3d174e78f02f74b5dae332972f2d04bf247616da010e81937497a08f07e317c55db35fb690a",
        "20a977c3529220855d27beb2eb939594c08108f639ff1fa738429813739d229584ac0063036f7264010118746578742f706c61696e3b636861727365743d7574662d3800367b2270223a226272632d3230222c226f70223a226d696e74222c227469636b223a2261616161222c22616d74223a223130303030227d68",
        "c0a977c3529220855d27beb2eb939594c08108f639ff1fa738429813739d229584"
      ],
      "is_coinbase": false,
      "sequence": 4294967293
    }
  ],
  "vout": [
    {
      "scriptpubkey": "001461f72a0fc6ee638a9924096379e5aa63202637d3",
      "scriptpubkey_asm": "OP_0 OP_PUSHBYTES_20 61f72a0fc6ee638a9924096379e5aa63202637d3",
      "scriptpubkey_type": "v0_p2wpkh",
      "scriptpubkey_address": "bc1qv8mj5r7xae3c4xfyp93hned2vvszvd7naktflg",
      "value": 294
    }
  ],
  "size": 309,
  "weight": 555,
  "fee": 1807,
  "status": {
    "confirmed": true,
    "block_height": 834460,
    "block_hash": "00000000000000000000484a79b643b2524bbce82e5d8a442013fa5b8905ed98",
    "block_time": 1710307468
  },
  "hex": "020000000001016bb4d2835f48fb6f4cc99b81542ac00a5dc790622a9313748d601894807c6d5a0100000000fdffffff01260100000000000016001461f72a0fc6ee638a9924096379e5aa63202637d30340312f277c202f405a857e1584dc0ef35a5a718ef9968be21fcb73f3d174e78f02f74b5dae332972f2d04bf247616da010e81937497a08f07e317c55db35fb690a7c20a977c3529220855d27beb2eb939594c08108f639ff1fa738429813739d229584ac0063036f7264010118746578742f706c61696e3b636861727365743d7574662d3800367b2270223a226272632d3230222c226f70223a226d696e74222c227469636b223a2261616161222c22616d74223a223130303030227d6821c0a977c3529220855d27beb2eb939594c08108f639ff1fa738429813739d22958400000000"
}