{
  "txid": "b3fbeea1a6a6b1f2bc996941cf947cccaa58b87a28ea0e2e0507919077f88444",
  "version": 2,
  "locktime": 0,
  "vin": [
    {
      "txid": "91d06d7c59d795b165db42526019c9de56ca5d6bc4dd7da8aa7813d7f96aa3c9",
      "vout": 0,
      "prevout": {
        "scriptpubkey": "5120ad2f454063c07edc0f20890ac09e93c284f3adf33ab068d2de3fb64d82478d37",
        "scriptpubkey_asm": "OP_PUSHNUM_1 OP_PUSHBYTES_32 ad2f454063c07edc0f20890ac09e93c284f3adf33ab068d2de3fb64d82478d37",
        "scriptpubkey_type": "v1_p2tr",
        "scriptpubkey_address": "bc1p45h52srrcpldcreq3y9vp85nc2z08t0n82cx35k787mymqj835mskywupp",
        "value": 546
      },
      "scriptsig": "",
      "scriptsig_asm": "",
      "witness": [
        "1dc45d9c66144760e4cd95fd96502336020f9bd7b4d91e1c126c02a61b90ba3e15159f9ec39f6f6c7f6770088342e00d3baaf08eaf202c2952742ae78d02340a"
      ],
      "is_coinbase": false,
      "sequence": 2147483649
    },
    {
      "txid": "b2f1e210c1ad848f85ded2499cbba95e02e3b6388b96d9725196017d7ec10448",
      "vout": 1,
      "prevout": {
        "scriptpubkey": "5120ad2f454063c07edc0f20890ac09e93c284f3adf33ab068d2de3fb64d82478d37",
        "scriptpubkey_asm": "OP_PUSHNUM_1 OP_PUSHBYTES_32 ad2f454063c07edc0f20890ac09e93c284f3adf33ab068d2de3fb64d82478d37",
        "scriptpubkey_type": "v1_p2tr",
        "scriptpubkey_address": "bc1p45h52srrcpldcreq3y9vp85nc2z08t0n82cx35k787mymqj835mskywupp",
        "value": 301816
      },
      "scriptsig": "",
      "scriptsig_asm": "",
      "witness": [
        "ba719728b59447d1d9bb130726545dd97346105f1cabc679d30418066a00fb1b1e46cb0d6d4d82dc54650ff333d4a93b3c034b8f2dd7752f52a18f471f53d748"
      ],
      "is_coinbase": false,
      "sequence": 2147483649
    }
  ],
  "vout": [
    {
      "scriptpubkey": "00145f104bbf62bf7778a9e36ba9061bc7e74c1b645e",
      "scriptpubkey_asm": "OP_0 OP_PUSHBYTES_20 5f104bbf62bf7778a9e36ba9061bc7e74c1b645e",
      "scriptpubkey_type": "v0_p2wpkh",
      "scriptpubkey_address": "bc1qtugyh0mzhamh320rdw5svx78uaxpkez7zrjv87",
      "value": 546
    },
    {
      "scriptpubkey": "5120ad2f454063c07edc0f20890ac09e93c284f3adf33ab068d2de3fb64d82478d37",
      "scriptpubkey_asm": "OP_PUSHNUM_1 OP_PUSHBYTES_32 ad2f454063c07edc0f20890ac09e93c284f3adf33ab068d2de3fb64d82478d37",
      "scriptpubkey_type": "v1_p2tr",
      "scriptpubkey_address": "bc1p45h52srrcpldcreq3y9vp85nc2z08t0n82cx35k787mymqj835mskywupp",
      "value": 298831
    }
  ],
  "size": 300,
  "weight": 798,
  "fee": 2985,
  "status": {
    "confirmed": true,
    "block_height": 834460,
    "block_hash": "00000000000000000000484a79b643b2524bbce82e5d8a442013fa5b8905ed98",
    "block_time": 1710307468
  },
  "hex": "02000000000102c9a36af9d71378aaa87dddc46b5dca56dec919605242db65b195d7597c6dd0910000000000010000804804c17e7d01965172d9968b38b6e3025ea9bb9c49d2de858f84adc110e2f1b20100000000010000800222020000000000001600145f104bbf62bf7778a9e36ba9061bc7e74c1b645e4f8f040000000000225120ad2f454063c07edc0f20890ac09e93c284f3adf33ab068d2de3fb64d82478d3701401dc45d9c66144760e4cd95fd96502336020f9bd7b4d91e1c126c02a61b90ba3e15159f9ec39f6f6c7f6770088342e00d3baaf08eaf202c2952742ae78d02340a0140ba719728b59447d1d9bb130726545dd97346105f1cabc679d30418066a00fb1b1e46cb0d6d4d82dc54650ff333d4a93b3c034b8f2dd7752f52a18f471f53d74800000000"
}