{
  "txid": "b3ff4998e48ae2cabd84461faf7503eecd6284017b5bc5c5c05fc44f78c6c091",
  "version": 2,
  "locktime": 0,
  "vin": [
    {
      "txid": "556d1372cc6566c09671ff84f13b2227134ac70a941f8f325af7f34844fefb74",
      "vout": 1,
      "prevout": {
        "scriptpubkey": "51205e77ecffb3ce04e72958e6bc6168b2d69157b97328435c4129b25eb9e0741a0a",
        "scriptpubkey_asm": "OP_PUSHNUM_1 OP_PUSHBYTES_32 5e77ecffb3ce04e72958e6bc6168b2d69157b97328435c4129b25eb9e0741a0a",
        "scriptpubkey_type": "v1_p2tr",
        "scriptpubkey_address": "bc1ptem7elaneczww22cu67xz69j66g40wtn9pp4csffkf0tncr5rg9q6j0xef",
        "value": 555
      },
      "scriptsig": "",
      "scriptsig_asm": "",
      "witness": [
        "d24376422e7d2fdde2cd58171f630936e950b0a122c6724514d6a91f93a5240f007503bec4acb439698e75c8a636ebdfeaebe3bb3b194bd1f725e92994c71622"
      ],
      "is_coinbase": false,
      "sequence": 4294967295
    },
    {
      "txid": "b6a5d62a4ba3c02a520e3ebd7ab715dd111b3da917894bd807f3ed134f9f5e30",
      "vout": 1,
      "prevout": {
        "scriptpubkey": "51205e77ecffb3ce04e72958e6bc6168b2d69157b97328435c4129b25eb9e0741a0a",
        "scriptpubkey_asm": "OP_PUSHNUM_1 OP_PUSHBYTES_32 5e77ecffb3ce04e72958e6bc6168b2d69157b97328435c4129b25eb9e0741a0a",
        "scriptpubkey_type": "v1_p2tr",
        "scriptpubkey_address": "bc1ptem7elaneczww22cu67xz69j66g40wtn9pp4csffkf0tncr5rg9q6j0xef",
        "value": 7796400
      },
      "scriptsig": "",
      "scriptsig_asm": "",
      "witness": [
        "8ae6bce745a0410a22a0a4088fa607b4c38acc1cd7cee3a69773cf961923ea0c1f5df1c08fe3bb0598805fdf51ad55155d5fa16387cb3403988dcb91818a4294"
      ],
      "is_coinbase": false,
      "sequence": 4294967295
    }
  ],
  "vout": [
    {
      "scriptpubkey": "0014882da4beca7abc72b6075f9a3e2d7e29b85811b7",
      "scriptpubkey_asm": "OP_0 OP_PUSHBYTES_20 882da4beca7abc72b6075f9a3e2d7e29b85811b7",
      "scriptpubkey_type": "v0_p2wpkh",
      "scriptpubkey_address": "bc1q3qk6f0k202789ds8t7drutt79xu9sydhdx4mtg",
      "value": 555
    },
    {
      "scriptpubkey": "51205e77ecffb3ce04e72958e6bc6168b2d69157b97328435c4129b25eb9e0741a0a",
      "scriptpubkey_asm": "OP_PUSHNUM_1 OP_PUSHBYTES_32 5e77ecffb3ce04e72958e6bc6168b2d69157b97328435c4129b25eb9e0741a0a",
      "scriptpubkey_type": "v1_p2tr",
      "scriptpubkey_address": "bc1ptem7elaneczww22cu67xz69j66g40wtn9pp4csffkf0tncr5rg9q6j0xef",
      "value": 7793400
    }
  ],
  "size": 300,
  "weight": 798,
  "fee": 3000,
  "status": {
    "confirmed": true,
    "block_height": 834638,
    "block_hash": "000000000000000000025f742c626208ac87e0b7d15054abb4a19ca2d735a54e",
    "block_time": 1710405325
  },
  "hex": "0200000000010274fbfe4448f3f75a328f1f940ac74a1327223bf184ff7196c06665cc72136d550100000000ffffffff305e9f4f13edf307d84b8917a93d1b11dd15b77abd3e0e522ac0a34b2ad6a5b60100000000ffffffff022b02000000000000160014882da4beca7abc72b6075f9a3e2d7e29b85811b7f8ea7600000000002251205e77ecffb3ce04e72958e6bc6168b2d69157b97328435c4129b25eb9e0741a0a0140d24376422e7d2fdde2cd58171f630936e950b0a122c6724514d6a91f93a5240f007503bec4acb439698e75c8a636ebdfeaebe3bb3b194bd1f725e92994c7162201408ae6bce745a0410a22a0a4088fa607b4c38acc1cd7cee3a69773cf961923ea0c1f5df1c08fe3bb0598805fdf51ad55155d5fa16387cb3403988dcb91818a429400000000"
}