{
  "txid": "b409463ec901fd7e2ea5ba95abc75c538d48729c0c1f6ad4ab3b1f746e14ba71",
  "version": 2,
  "locktime": 0,
  "vin": [
    {
      "txid": "7376b336ba1482435630c579289f1fedbbf286c6d352a099e8418e401ba07679",
      "vout": 1,
      "prevout": {
        "scriptpubkey": "00145fee28bdc9792eaba5fa154401bace06e83d45dd",
        "scriptpubkey_asm": "OP_0 OP_PUSHBYTES_20 5fee28bdc9792eaba5fa154401bace06e83d45dd",
        "scriptpubkey_type": "v0_p2wpkh",
        "scriptpubkey_address": "bc1qtlhz30wf0yh2hf06z4zqrwkwqm5r63wax5dfku",
        "value": 25418
      },
      "scriptsig": "",
      "scriptsig_asm": "",
      "witness": [
        "3044022078bbb28d8b099698c34732b20e414f0dda66ced8e1249af843d2f68c2c41086a0220393ac33c56c71e9e3a59368bedd810184718f55d5ce02462579597a0e7225d2001",
        "030ccf743214e0cac471bbb7d424bd6e3db6f79cafd03127706df65a06cf2bcf76"
      ],
      "is_coinbase": false,
      "sequence": 4294967295
    }
  ],
  "vout": [
    {
      "scriptpubkey": "6a2ab9db2357e48a00ed6df1ff3bf7ced82fd7c2b2a88c32b69b1f720031a7070dd47dffa54d89171fae2287",
      "scriptpubkey_asm": "OP_RETURN OP_PUSHBYTES_42 b9db2357e48a00ed6df1ff3bf7ced82fd7c2b2a88c32b69b1f720031a7070dd47dffa54d89171fae2287",
      "scriptpubkey_type": "op_return",
      "value": 0
    },
    {
      "scriptpubkey": "00145fee28bdc9792eaba5fa154401bace06e83d45dd",
      "scriptpubkey_asm": "OP_0 OP_PUSHBYTES_20 5fee28bdc9792eaba5fa154401bace06e83d45dd",
      "scriptpubkey_type": "v0_p2wpkh",
      "scriptpubkey_address": "bc1qtlhz30wf0yh2hf06z4zqrwkwqm5r63wax5dfku",
      "value": 23460
    }
  ],
  "size": 244,
  "weight": 649,
  "fee": 1958,
  "status": {
    "confirmed": true,
    "block_height": 834464,
    "block_hash": "0000000000000000000177a0869a911a2b65c9bdcd5a8bcb02b68f305bee848e",
    "block_time": 1710308296
  },
  "hex": "020000000001017976a01b408e41e899a052d3c686f2bbed1f9f2879c53056438214ba36b376730100000000ffffffff0200000000000000002c6a2ab9db2357e48a00ed6df1ff3bf7ced82fd7c2b2a88c32b69b1f720031a7070dd47dffa54d89171fae2287a45b0000000000001600145fee28bdc9792eaba5fa154401bace06e83d45dd02473044022078bbb28d8b099698c34732b20e414f0dda66ced8e1249af843d2f68c2c41086a0220393ac33c56c71e9e3a59368bedd810184718f55d5ce02462579597a0e7225d200121030ccf743214e0cac471bbb7d424bd6e3db6f79cafd03127706df65a06cf2bcf7600000000"
}