{
  "txid": "b41ae160dedb211e207908fd64471220303110da81e6022c0219765b849523e5",
  "version": 1,
  "locktime": 0,
  "vin": [
    {
      "txid": "4997df6fc568e86a7e48a048c8c33e85746a68f1f71367d61e24b5d3a4bd3879",
      "vout": 0,
      "prevout": {
        "scriptpubkey": "0014b9167cf9912f3ab5d8073713e0aabbfd905ac13a",
        "scriptpubkey_asm": "OP_0 OP_PUSHBYTES_20 b9167cf9912f3ab5d8073713e0aabbfd905ac13a",
        "scriptpubkey_type": "v0_p2wpkh",
        "scriptpubkey_address": "bc1qhyt8e7v39uattkq8xuf7p24mlkg94sf69hq0at",
        "value": 58800
      },
      "scriptsig": "",
      "scriptsig_asm": "",
      "witness": [
        "3045022100a1f2524c89270f05e883f1d00ebfabdcfa829abea68361d2ee8b1cbb5eb6366602207fb7282628d5d3fa17f77c541ae66d6fa0cabece54ef9208815afc2f3762e5c201",
        "02da80e347adb42d27d013b709552d5f87ced96ccf7194e461a1eb4743e2ec008b"
      ],
      "is_coinbase": false,
      "sequence": 4294967295
    }
  ],
  "vout": [
    {
      "scriptpubkey": "001418739c50b73de5e14ac8b71e65bb5cae25c275c2",
      "scriptpubkey_asm": "OP_0 OP_PUSHBYTES_20 18739c50b73de5e14ac8b71e65bb5cae25c275c2",
      "scriptpubkey_type": "v0_p2wpkh",
      "scriptpubkey_address": "bc1qrpeec59h8hj7zjkgku0xtw6u4cjuyawzjsphk8",
      "value": 55830
    }
  ],
  "size": 192,
  "weight": 438,
  "fee": 2970,
  "status": {
    "confirmed": true,
    "block_height": 834638,
    "block_hash": "000000000000000000025f742c626208ac87e0b7d15054abb4a19ca2d735a54e",
    "block_time": 1710405325
  },
  "hex": "010000000001017938bda4d3b5241ed66713f7f1686a74853ec3c848a0487e6ae868c56fdf97490000000000ffffffff0116da00000000000016001418739c50b73de5e14ac8b71e65bb5cae25c275c202483045022100a1f2524c89270f05e883f1d00ebfabdcfa829abea68361d2ee8b1cbb5eb6366602207fb7282628d5d3fa17f77c541ae66d6fa0cabece54ef9208815afc2f3762e5c2012102da80e347adb42d27d013b709552d5f87ced96ccf7194e461a1eb4743e2ec008b00000000"
}