{
  "txid": "b446a4e6f04aa5782dada0957b6367a6222960364b8b627df23cd60e8f74f3ff",
  "version": 2,
  "locktime": 0,
  "vin": [
    {
      "txid": "bb3cb5bce05a454e72544adde97db2042459f58031b0f0c1d29c992777e0fb73",
      "vout": 0,
      "prevout": {
        "scriptpubkey": "5120e78b74f8524e3d054a9ce19b9982b3f5dc8bb7c8a2babd0a61a17a67c077a1c7",
        "scriptpubkey_asm": "OP_PUSHNUM_1 OP_PUSHBYTES_32 e78b74f8524e3d054a9ce19b9982b3f5dc8bb7c8a2babd0a61a17a67c077a1c7",
        "scriptpubkey_type": "v1_p2tr",
        "scriptpubkey_address": "bc1pu79hf7zjfc7s2j5uuxdenq4n7hwghd7g52at6znp59ax0srh58rsxe3rg7",
        "value": 3375
      },
      "scriptsig": "",
      "scriptsig_asm": "",
      "witness": [
        "7c7637b09577f7d781c97c04f11bc275e04f6c618a815dbbaa96dfdd2ce739a66dec2d61d7af0c26f9d63dc4ad0f29fafa221df8ad7cea7d018aa59c0d00b21a",
        "205d921b9495d85d8b19787a2e805e75fe262160182b1e52dd4bff6a872d9cb301ac0063036f7264010117746578742f68746d6c3b636861727365743d7574662d38004cbd3c736372697074207372633d222f636f6e74656e742f6439313635306139313165323763353430326666643435383933623137303233653065646538636236393132616131316665653062626232363464653262666469302220646174612d703d223533363136666463623364646232646337343162663632656432303965666232616361333432663934336339386331633739623437653834373131366563633069302c73732c31342c3130302c312c6c223e3c2f7363726970743e68",
        "c05d921b9495d85d8b19787a2e805e75fe262160182b1e52dd4bff6a872d9cb301"
      ],
      "is_coinbase": false,
      "sequence": 4294967293
    }
  ],
  "vout": [
    {
      "scriptpubkey": "5120e91cf95c2610efd79aa6de29f48559fef36478c851076fb18df6ced58fc696f7",
      "scriptpubkey_asm": "OP_PUSHNUM_1 OP_PUSHBYTES_32 e91cf95c2610efd79aa6de29f48559fef36478c851076fb18df6ced58fc696f7",
      "scriptpubkey_type": "v1_p2tr",
      "scriptpubkey_address": "bc1payw0jhpxzrha0x4xmc5lfp2elmekg7xg2yrklvvd7m8dtr7xjmmsvjgv0c",
      "value": 600
    }
  ],
  "size": 458,
  "weight": 740,
  "fee": 2775,
  "status": {
    "confirmed": true,
    "block_height": 834638,
    "block_hash": "000000000000000000025f742c626208ac87e0b7d15054abb4a19ca2d735a54e",
    "block_time": 1710405325
  },
  "hex": "0200000000010173fbe07727999cd2c1f0b03180f5592404b27de9dd4a54724e455ae0bcb53cbb0000000000fdffffff015802000000000000225120e91cf95c2610efd79aa6de29f48559fef36478c851076fb18df6ced58fc696f703407c7637b09577f7d781c97c04f11bc275e04f6c618a815dbbaa96dfdd2ce739a66dec2d61d7af0c26f9d63dc4ad0f29fafa221df8ad7cea7d018aa59c0d00b21afd0301205d921b9495d85d8b19787a2e805e75fe262160182b1e52dd4bff6a872d9cb301ac0063036f7264010117746578742f68746d6c3b636861727365743d7574662d38004cbd3c736372697074207372633d222f636f6e74656e742f6439313635306139313165323763353430326666643435383933623137303233653065646538636236393132616131316665653062626232363464653262666469302220646174612d703d223533363136666463623364646232646337343162663632656432303965666232616361333432663934336339386331633739623437653834373131366563633069302c73732c31342c3130302c312c6c223e3c2f7363726970743e6821c05d921b9495d85d8b19787a2e805e75fe262160182b1e52dd4bff6a872d9cb30100000000"
}