{
  "txid": "b448c15f00af23f78551d74a6293267b4a16b76022f1130a8b24d1fc49174dc1",
  "version": 2,
  "locktime": 0,
  "vin": [
    {
      "txid": "34cfde2056f56236fb03f9764e7e85e8a0a62430a66e0b34ca452a8d9bad1091",
      "vout": 0,
      "prevout": {
        "scriptpubkey": "5120cd98df9bb9dc938a92bbbdb36c58968d54a629d9c253e52c3b17628393bfdca3",
        "scriptpubkey_asm": "OP_PUSHNUM_1 OP_PUSHBYTES_32 cd98df9bb9dc938a92bbbdb36c58968d54a629d9c253e52c3b17628393bfdca3",
        "scriptpubkey_type": "v1_p2tr",
        "scriptpubkey_address": "bc1pekvdlxaemjfc4y4mhkekckyk3422v2wecff72tpmza3g8yalmj3s2ppaw6",
        "value": 15777
      },
      "scriptsig": "",
      "scriptsig_asm": "",
      "witness": [
        "0ece9b83bea9651149301e9e30cb2b24796a988a5342d9705c44c710f11dfee9571c881796cb76936f5c63ecde3638bd016cf82f6ba4c30fea403f7851b8f4c3",
        "20f2d00e1cce0b839d2e197679cac7a15152ec244338032c7767f72c1332d49a65ac0063036f726401010a696d6167652f77656270004d0802524946461e02000057454250565038580a000000000000001b00001b000056503820aa010000b008009d012a1c001c003ecd58a74da7a523a2280aa8f019896c009d328478f797aa077fc07b007a007eb37a5d7b1fa35b48a6afa7aa9500086b5fd9c15921ec7bf8069aba2d9a5c628a2c576ef000fec83cf64da863997a7953af0c05bc450349c3fd0900ec56f26d702f5d8f2f8bd7e025668590c44ef64e4029f8b82df3563ea390af10c7a94d17583ff1c974339fb5717e69e0fead496fd7beaa3fff9b02933f997f82931d33b5a3fd43422effdc3ca1d38bd7b15f0fcdf56a906fee95d758eb52333e06b3cd54ed0365eaf33aa336cef5a0194c72757493bbfe42e9bc46be689d3789d3973d35a7ff9e74cb951dd456ba245e61638f8220de5fca86ed5220661695d2ff8bd7fcc926eeeab9cd4cba88cd73a52fce94dee0d61e23e1969d6cdbb95dd8ffad64857525a45098beedc69278d75daa8c705a72a53f2a176b6768c36b8672a44b228e5dad460a448513727a411796462e3a80317d7677dc2ecda4e400bd1794711d80e24e9e3bca95b5aaecb38bafb429abc85d159a5019f1f613d2a51a70134f13bf05cb0add54fac6fbdf7783f8fa0b39d03d5b022dfa79ecb0e2771e61c2b4000000505341494e0000003842494d03ed000000000010004800000001000100480000000100013842494d042800000000000c000000023ff000001e000000003842494d044300000000000e5062655701100006003300000000680063036f726401011e6170706c69636174696f6e2f6a736f6e3b636861727365743d7574662d38004d5d017b2270223a22766f7264222c2276223a312c227479223a22696e7363222c22636f6c223a2232376232396263386336353733396433663136316333313633326234393365636633303062363637656437663062663266373166316461613231383962616336222c22696964223a2278204e6f646541706573222c227075626c223a2231455337623370636a527a4667796969714c7278484b546e43686535364c4a485937222c226e6f6e6365223a3438372c226d696e746572223a2262633170367336656a797a7737757376307a38706e6a66737a3230776c636836726e6e71386867376c7838346374737a7138367671646873686379747a30222c22736967223a22484c7033535846636a4f2b347a376f7155624c37552b6f6863545a6f45654b5352306877714b3438584a72544d54396b6f455863794e7a4a33314c72326f787459497a53386a4134586b6c4642737a32416733305246733d227d68",
        "c1f2d00e1cce0b839d2e197679cac7a15152ec244338032c7767f72c1332d49a65675a92934efa5e4869b2432a3e00abfc6819367af43949c2edc693b32d23ac05"
      ],
      "is_coinbase": false,
      "sequence": 4294967293
    }
  ],
  "vout": [
    {
      "scriptpubkey": "5120d43599104ef720c788e19c930129eefe2fa1ce603dd1ef98f5c2e0201f4c036f",
      "scriptpubkey_asm": "OP_PUSHNUM_1 OP_PUSHBYTES_32 d43599104ef720c788e19c930129eefe2fa1ce603dd1ef98f5c2e0201f4c036f",
      "scriptpubkey_type": "v1_p2tr",
      "scriptpubkey_address": "bc1p6s6ejyzw7usv0z8pnjfsz20wlch6rnnq8hg7lx84ctszq86vqdhshcytz0",
      "value": 1000
    },
    {
      "scriptpubkey": "512005cc289b355240be36d033937b1b6c8749dd58994144e966683c21ac89649015",
      "scriptpubkey_asm": "OP_PUSHNUM_1 OP_PUSHBYTES_32 05cc289b355240be36d033937b1b6c8749dd58994144e966683c21ac89649015",
      "scriptpubkey_type": "v1_p2tr",
      "scriptpubkey_address": "bc1pqhxz3xe42fqtudksxwfhkxmvsaya6kyeg9zwjeng8ss6eztyjq2sc4ck0e",
      "value": 6733
    },
    {
      "scriptpubkey": "51200705a5767db892e98125775049b1a13dd9ecdc8aea0df413cabbee683e871012",
      "scriptpubkey_asm": "OP_PUSHNUM_1 OP_PUSHBYTES_32 0705a5767db892e98125775049b1a13dd9ecdc8aea0df413cabbee683e871012",
      "scriptpubkey_type": "v1_p2tr",
      "scriptpubkey_address": "bc1pquz62anahzfwnqf9wagynvdp8hv7ehy2agxlgy72h0hxs058zqfqk8ksyq",
      "value": 2929
    }
  ],
  "size": 1319,
  "weight": 1859,
  "fee": 5115,
  "status": {
    "confirmed": true,
    "block_height": 834464,
    "block_hash": "0000000000000000000177a0869a911a2b65c9bdcd5a8bcb02b68f305bee848e",
    "block_time": 1710308296
  },
  "hex": "020000000001019110ad9b8d2a45ca340b6ea63024a6a0e8857e4e76f903fb3662f55620decf340000000000fdffffff03e803000000000000225120d43599104ef720c788e19c930129eefe2fa1ce603dd1ef98f5c2e0201f4c036f4d1a00000000000022512005cc289b355240be36d033937b1b6c8749dd58994144e966683c21ac89649015710b0000000000002251200705a5767db892e98125775049b1a13dd9ecdc8aea0df413cabbee683e87101203400ece9b83bea9651149301e9e30cb2b24796a988a5342d9705c44c710f11dfee9571c881796cb76936f5c63ecde3638bd016cf82f6ba4c30fea403f7851b8f4c3fdea0320f2d00e1cce0b839d2e197679cac7a15152ec244338032c7767f72c1332d49a65ac0063036f726401010a696d6167652f77656270004d0802524946461e02000057454250565038580a000000000000001b00001b000056503820aa010000b008009d012a1c001c003ecd58a74da7a523a2280aa8f019896c009d328478f797aa077fc07b007a007eb37a5d7b1fa35b48a6afa7aa9500086b5fd9c15921ec7bf8069aba2d9a5c628a2c576ef000fec83cf64da863997a7953af0c05bc450349c3fd0900ec56f26d702f5d8f2f8bd7e025668590c44ef64e4029f8b82df3563ea390af10c7a94d17583ff1c974339fb5717e69e0fead496fd7beaa3fff9b02933f997f82931d33b5a3fd43422effdc3ca1d38bd7b15f0fcdf56a906fee95d758eb52333e06b3cd54ed0365eaf33aa336cef5a0194c72757493bbfe42e9bc46be689d3789d3973d35a7ff9e74cb951dd456ba245e61638f8220de5fca86ed5220661695d2ff8bd7fcc926eeeab9cd4cba88cd73a52fce94dee0d61e23e1969d6cdbb95dd8ffad64857525a45098beedc69278d75daa8c705a72a53f2a176b6768c36b8672a44b228e5dad460a448513727a411796462e3a80317d7677dc2ecda4e400bd1794711d80e24e9e3bca95b5aaecb38bafb429abc85d159a5019f1f613d2a51a70134f13bf05cb0add54fac6fbdf7783f8fa0b39d03d5b022dfa79ecb0e2771e61c2b4000000505341494e0000003842494d03ed000000000010004800000001000100480000000100013842494d042800000000000c000000023ff000001e000000003842494d044300000000000e5062655701100006003300000000680063036f726401011e6170706c69636174696f6e2f6a736f6e3b636861727365743d7574662d38004d5d017b2270223a22766f7264222c2276223a312c227479223a22696e7363222c22636f6c223a2232376232396263386336353733396433663136316333313633326234393365636633303062363637656437663062663266373166316461613231383962616336222c22696964223a2278204e6f646541706573222c227075626c223a2231455337623370636a527a4667796969714c7278484b546e43686535364c4a485937222c226e6f6e6365223a3438372c226d696e746572223a2262633170367336656a797a7737757376307a38706e6a66737a3230776c636836726e6e71386867376c7838346374737a7138367671646873686379747a30222c22736967223a22484c7033535846636a4f2b347a376f7155624c37552b6f6863545a6f45654b5352306877714b3438584a72544d54396b6f455863794e7a4a33314c72326f787459497a53386a4134586b6c4642737a32416733305246733d227d6841c1f2d00e1cce0b839d2e197679cac7a15152ec244338032c7767f72c1332d49a65675a92934efa5e4869b2432a3e00abfc6819367af43949c2edc693b32d23ac0500000000"
}