{
  "txid": "b483e4756f4c73befe5b554de278d031b15a1a9b4e0264b06f907be2eed97eb5",
  "version": 1,
  "locktime": 0,
  "vin": [
    {
      "txid": "5cd2b4ac5740e6055496557a301d4c96b90a2f2c59e9f9b45c5ec424ca8b7f03",
      "vout": 85,
      "prevout": {
        "scriptpubkey": "a91478c32c7619d371f6b0b78035ddb0dcedda736ca787",
        "scriptpubkey_asm": "OP_HASH160 OP_PUSHBYTES_20 78c32c7619d371f6b0b78035ddb0dcedda736ca7 OP_EQUAL",
        "scriptpubkey_type": "p2sh",
        "scriptpubkey_address": "3ChYpU7NBXt5Aotw626eNBaFUhNsCaYnbp",
        "value": 278788
      },
      "scriptsig": "160014145eafbcff9861e97428436b2fcda19885c3955d",
      "scriptsig_asm": "OP_PUSHBYTES_22 0014145eafbcff9861e97428436b2fcda19885c3955d",
      "witness": [
        "3045022100fa4394ca9caf09b282e6dbd42d56228833f8569034aed0a229bf4fa070abaf6302207a11528944f2601fe6ac94866b7b7368789f580bfdbf3d7aba33955d80742dab01",
        "03f5669b0a1ca3a6ced9db2e1fb808c75698eae001a374f26f829be37f09c8fe62"
      ],
      "is_coinbase": false,
      "sequence": 4294967295,
      "inner_redeemscript_asm": "OP_0 OP_PUSHBYTES_20 145eafbcff9861e97428436b2fcda19885c3955d"
    }
  ],
  "vout": [
    {
      "scriptpubkey": "76a914c6c2dc056aaf3f6ce8882a974e9366c7949bc92288ac",
      "scriptpubkey_asm": "OP_DUP OP_HASH160 OP_PUSHBYTES_20 c6c2dc056aaf3f6ce8882a974e9366c7949bc922 OP_EQUALVERIFY OP_CHECKSIG",
      "scriptpubkey_type": "p2pkh",
      "scriptpubkey_address": "1K7xE4Bg1CDNsVRfr3GdVViRB4rLkxZPgD",
      "value": 276748
    }
  ],
  "size": 218,
  "weight": 542,
  "fee": 2040,
  "status": {
    "confirmed": true,
    "block_height": 834638,
    "block_hash": "000000000000000000025f742c626208ac87e0b7d15054abb4a19ca2d735a54e",
    "block_time": 1710405325
  },
  "hex": "01000000000101037f8bca24c45e5cb4f9e9592c2f0ab9964c1d307a55965405e64057acb4d25c5500000017160014145eafbcff9861e97428436b2fcda19885c3955dffffffff010c390400000000001976a914c6c2dc056aaf3f6ce8882a974e9366c7949bc92288ac02483045022100fa4394ca9caf09b282e6dbd42d56228833f8569034aed0a229bf4fa070abaf6302207a11528944f2601fe6ac94866b7b7368789f580bfdbf3d7aba33955d80742dab012103f5669b0a1ca3a6ced9db2e1fb808c75698eae001a374f26f829be37f09c8fe6200000000"
}