{
  "txid": "b48fc59415e002664f633f2563786e80a89f369af0833b7a381cfd3302134820",
  "version": 2,
  "locktime": 0,
  "vin": [
    {
      "txid": "60fdc3e872f99bd4b1e7e04baea5f3b5ac01ff8f3ff58a3176b9d05cd7eae259",
      "vout": 0,
      "prevout": {
        "scriptpubkey": "5120282c6c97101a701870207112a14ce6dfbc88146c6e8c216c985090c880b489b8",
        "scriptpubkey_asm": "OP_PUSHNUM_1 OP_PUSHBYTES_32 282c6c97101a701870207112a14ce6dfbc88146c6e8c216c985090c880b489b8",
        "scriptpubkey_type": "v1_p2tr",
        "scriptpubkey_address": "bc1p9qkxe9csrfcpsupqwyf2zn8xm77gs9rvd6xzzmyc2zgv3q953xuqgtspnf",
        "value": 2500
      },
      "scriptsig": "",
      "scriptsig_asm": "",
      "witness": [
        "790ee3f7b469d916ec0ac20ba6440a551754d0056914cbe3f2bee1ca6631fef22c293475db6a194fe288b51d9257d0b73d1fabab086a0322a4e685d16d89eade01"
      ],
      "is_coinbase": false,
      "sequence": 4294967295
    }
  ],
  "vout": [
    {
      "scriptpubkey": "76a914afbc586159ab1a7ae76a345ba9225a5dd5b18c0e88ac",
      "scriptpubkey_asm": "OP_DUP OP_HASH160 OP_PUSHBYTES_20 afbc586159ab1a7ae76a345ba9225a5dd5b18c0e OP_EQUALVERIFY OP_CHECKSIG",
      "scriptpubkey_type": "p2pkh",
      "scriptpubkey_address": "1H2Ct2Yq8mgnq9HSi5gFzPNhEo1FgDLRyy",
      "value": 1268
    }
  ],
  "size": 154,
  "weight": 409,
  "fee": 1232,
  "status": {
    "confirmed": true,
    "block_height": 834460,
    "block_hash": "00000000000000000000484a79b643b2524bbce82e5d8a442013fa5b8905ed98",
    "block_time": 1710307468
  },
  "hex": "0200000000010159e2ead75cd0b976318af53f8fff01acb5f3a5ae4be0e7b1d49bf972e8c3fd600000000000ffffffff01f4040000000000001976a914afbc586159ab1a7ae76a345ba9225a5dd5b18c0e88ac0141790ee3f7b469d916ec0ac20ba6440a551754d0056914cbe3f2bee1ca6631fef22c293475db6a194fe288b51d9257d0b73d1fabab086a0322a4e685d16d89eade0100000000"
}