{
  "txid": "b49104faded5904d0174f084e5c54c16135ae896e0d8d4a94b5d3f1e5d0a90ce",
  "version": 2,
  "locktime": 0,
  "vin": [
    {
      "txid": "8dc21756d5289098a7b4e526e691a8d4e9771758e361ae84987472a27d4343c8",
      "vout": 1,
      "prevout": {
        "scriptpubkey": "0014c7eaed42f76af2179c379914696f741657729294",
        "scriptpubkey_asm": "OP_0 OP_PUSHBYTES_20 c7eaed42f76af2179c379914696f741657729294",
        "scriptpubkey_type": "v0_p2wpkh",
        "scriptpubkey_address": "bc1qcl4w6shhdtep08phny2xjmm5zeth9y55cfgj0t",
        "value": 164042
      },
      "scriptsig": "",
      "scriptsig_asm": "",
      "witness": [
        "304402201a7ee80a53eac93e285f1c09ff60db1b756ed684194fa702a0980756e92a79a70220519b139d3e25d7fb616c42d9cc6c252276eb4a169cb9dbe65cd335b2c94a7c0801",
        "02a10c9c459f0f221f388f7d428ba135e5d2feae49981595c384e0b9df4b1033b5"
      ],
      "is_coinbase": false,
      "sequence": 4294967295
    },
    {
      "txid": "c9fdfd9ad0d493a7f4b3b7addcb75b488f7f897b1c6f28854669e0636e9339b8",
      "vout": 1,
      "prevout": {
        "scriptpubkey": "00141951adcac937b55d89342df0509f3995f46aeebb",
        "scriptpubkey_asm": "OP_0 OP_PUSHBYTES_20 1951adcac937b55d89342df0509f3995f46aeebb",
        "scriptpubkey_type": "v0_p2wpkh",
        "scriptpubkey_address": "bc1qr9g6mjkfx764mzf59hc9p8eejh6x4m4mw9ddv2",
        "value": 70306
      },
      "scriptsig": "",
      "scriptsig_asm": "",
      "witness": [
        "3045022100c65851710751f05b6d043f866461be28359f7d29391375e77fa90abfbb298db9022064b3999c9db4371dbe8c928bafc6a39202c5e06e5db0645e21de3d7f31fd5b2601",
        "02ff3ab93aaa57f9c18bf4f6628fe8d58f0fd3ca7104a5a27b760c710c98b35742"
      ],
      "is_coinbase": false,
      "sequence": 4294967295
    }
  ],
  "vout": [
    {
      "scriptpubkey": "001473f4b73e9306bddda4eedc89db656135534675d9",
      "scriptpubkey_asm": "OP_0 OP_PUSHBYTES_20 73f4b73e9306bddda4eedc89db656135534675d9",
      "scriptpubkey_type": "v0_p2wpkh",
      "scriptpubkey_address": "bc1qw06tw05nq67amf8wmjyaketpx4f5vawe0ml2um",
      "value": 231600
    }
  ],
  "size": 340,
  "weight": 709,
  "fee": 2748,
  "status": {
    "confirmed": true,
    "block_height": 834638,
    "block_hash": "000000000000000000025f742c626208ac87e0b7d15054abb4a19ca2d735a54e",
    "block_time": 1710405325
  },
  "hex": "02000000000102c843437da272749884ae61e3581777e9d4a891e626e5b4a7989028d55617c28d0100000000ffffffffb839936e63e0694685286f1c7b897f8f485bb7dcadb7b3f4a793d4d09afdfdc90100000000ffffffff01b08803000000000016001473f4b73e9306bddda4eedc89db656135534675d90247304402201a7ee80a53eac93e285f1c09ff60db1b756ed684194fa702a0980756e92a79a70220519b139d3e25d7fb616c42d9cc6c252276eb4a169cb9dbe65cd335b2c94a7c08012102a10c9c459f0f221f388f7d428ba135e5d2feae49981595c384e0b9df4b1033b502483045022100c65851710751f05b6d043f866461be28359f7d29391375e77fa90abfbb298db9022064b3999c9db4371dbe8c928bafc6a39202c5e06e5db0645e21de3d7f31fd5b26012102ff3ab93aaa57f9c18bf4f6628fe8d58f0fd3ca7104a5a27b760c710c98b3574200000000"
}