{
  "txid": "b4a15830c05b58ef859ee5d5f8977a367e33c14fecb65541531c50defe96ef20",
  "version": 1,
  "locktime": 0,
  "vin": [
    {
      "txid": "906b7687e6509c608ba2beb60b2df03624469d34a3ba2765f003befead4721e5",
      "vout": 1,
      "prevout": {
        "scriptpubkey": "001412ef1deb408df27fc28d10d27b629cab485c1cf4",
        "scriptpubkey_asm": "OP_0 OP_PUSHBYTES_20 12ef1deb408df27fc28d10d27b629cab485c1cf4",
        "scriptpubkey_type": "v0_p2wpkh",
        "scriptpubkey_address": "bc1qzth3m66q3he8ls5dzrf8kc5u4dy9c8856alkgt",
        "value": 149063
      },
      "scriptsig": "",
      "scriptsig_asm": "",
      "witness": [
        "30440220656ffc3fb137ac0bb886663f997d036442eb8ec55036396659ba3b8a4dd68fe902202e30cf5b06670f78e4d8f3caf030a42c8ab4455816be30ec5c327271d9abf47301",
        "030e781487b9528506d23237044590bd96f780439cbec5e1f3a6aa606acd544f0d"
      ],
      "is_coinbase": false,
      "sequence": 0
    },
    {
      "txid": "b6d72dfaf8b92086d2c98b18722b751841b7f756aa902a746a0b5bf5ebba6fdc",
      "vout": 0,
      "prevout": {
        "scriptpubkey": "0014af7a2b47faa5e2cde292e8e80b220fb339f53a3b",
        "scriptpubkey_asm": "OP_0 OP_PUSHBYTES_20 af7a2b47faa5e2cde292e8e80b220fb339f53a3b",
        "scriptpubkey_type": "v0_p2wpkh",
        "scriptpubkey_address": "bc1q4aazk3l65h3vmc5jar5qkgs0kvul2w3mqrcjev",
        "value": 6000000
      },
      "scriptsig": "",
      "scriptsig_asm": "",
      "witness": [
        "304402204ed5058dbba38783cd54ca1ecd11efda130db4cffcd120367eff41bf64caaa95022009039b3aa3657b13598ee908299724a9a6e1af1da35dea5970854c790222077901",
        "02f367ecf353b3e7319fd475fb025402a8945687aefe1c638c7343ff4a544dbd0b"
      ],
      "is_coinbase": false,
      "sequence": 0
    }
  ],
  "vout": [
    {
      "scriptpubkey": "001486e14621e4c7820e690eba65a43a22aa25eaa16c",
      "scriptpubkey_asm": "OP_0 OP_PUSHBYTES_20 86e14621e4c7820e690eba65a43a22aa25eaa16c",
      "scriptpubkey_type": "v0_p2wpkh",
      "scriptpubkey_address": "bc1qsms5vg0yc7pqu6gwhfj6gw3z4gj74gtvu9xam0",
      "value": 3991953
    },
    {
      "scriptpubkey": "0014680c73a911e3a820ac64cd50b0c46bf5c1deb29b",
      "scriptpubkey_asm": "OP_0 OP_PUSHBYTES_20 680c73a911e3a820ac64cd50b0c46bf5c1deb29b",
      "scriptpubkey_type": "v0_p2wpkh",
      "scriptpubkey_address": "bc1qdqx882g3uw5zptrye4gtp3rt7hqaav5magkxs5",
      "value": 2151314
    }
  ],
  "size": 370,
  "weight": 832,
  "fee": 5796,
  "status": {
    "confirmed": true,
    "block_height": 834464,
    "block_hash": "0000000000000000000177a0869a911a2b65c9bdcd5a8bcb02b68f305bee848e",
    "block_time": 1710308296
  },
  "hex": "01000000000102e52147adfebe03f06527baa3349d462436f02d0bb6bea28b609c50e687766b90010000000000000000dc6fbaebf55b0b6a742a90aa56f7b74118752b72188bc9d28620b9f8fa2dd7b60000000000000000000291e93c000000000016001486e14621e4c7820e690eba65a43a22aa25eaa16c92d3200000000000160014680c73a911e3a820ac64cd50b0c46bf5c1deb29b024730440220656ffc3fb137ac0bb886663f997d036442eb8ec55036396659ba3b8a4dd68fe902202e30cf5b06670f78e4d8f3caf030a42c8ab4455816be30ec5c327271d9abf4730121030e781487b9528506d23237044590bd96f780439cbec5e1f3a6aa606acd544f0d0247304402204ed5058dbba38783cd54ca1ecd11efda130db4cffcd120367eff41bf64caaa95022009039b3aa3657b13598ee908299724a9a6e1af1da35dea5970854c7902220779012102f367ecf353b3e7319fd475fb025402a8945687aefe1c638c7343ff4a544dbd0b00000000"
}