{
  "txid": "b4b167623fbfb5ad1192f6457affe12c3d5014c9beb30a8c82ecb81e281e5519",
  "version": 1,
  "locktime": 0,
  "vin": [
    {
      "txid": "89ff3dd62649cdad6064c6a23ce3a78da4fcf92fb7a852dffe63b84b989dd7aa",
      "vout": 0,
      "prevout": {
        "scriptpubkey": "001434a65a985eb9299aa523011c4144b9ff6d07ab4e",
        "scriptpubkey_asm": "OP_0 OP_PUSHBYTES_20 34a65a985eb9299aa523011c4144b9ff6d07ab4e",
        "scriptpubkey_type": "v0_p2wpkh",
        "scriptpubkey_address": "bc1qxjn94xz7hy5e4ffrqywyz39elaks026whl5nlh",
        "value": 392950
      },
      "scriptsig": "",
      "scriptsig_asm": "",
      "witness": [
        "3045022100d851790e55e0c7eb17ebb80721d4505ade585e43cc0fa56675e2f2aea0dd309c022038e84d73103a181e2dedf4c30204b8334ebfe72763a4fbe60ad50788a50c5ddf01",
        "0361ac1f60f1c6c2f6feffa8754ed8543a96d44e04d1506ec73736053954607227"
      ],
      "is_coinbase": false,
      "sequence": 4294967293
    },
    {
      "txid": "4e812955c5455ba77a2dff59291403f21e1a4331b23c26b3564940e4c50389cb",
      "vout": 29,
      "prevout": {
        "scriptpubkey": "0014c295b531e9537ef7dae20f42436f2c24d3ea64b8",
        "scriptpubkey_asm": "OP_0 OP_PUSHBYTES_20 c295b531e9537ef7dae20f42436f2c24d3ea64b8",
        "scriptpubkey_type": "v0_p2wpkh",
        "scriptpubkey_address": "bc1qc22m2v0f2dl00khzpapyxmevynf75e9cav9cds",
        "value": 368048
      },
      "scriptsig": "",
      "scriptsig_asm": "",
      "witness": [
        "3045022100cb9e1335f0095fdf19d7aef814b25f117bc780c1291a62666854defbf0c42ffe02206466587ca9fa5523988b2bf0ad27622db6f5ba49c1b2dcb862c4105b98c88a6f01",
        "03a9d0bba37dc2a82ca788e50cc28e5645fe91d798910d36aa28ff7c7b06e0bcf1"
      ],
      "is_coinbase": false,
      "sequence": 4294967293
    },
    {
      "txid": "ffd42394d264db94f2d7ac9446bf0b1b99a262cb6e7f59d00ffd098c6d3cb949",
      "vout": 0,
      "prevout": {
        "scriptpubkey": "001411aa9115a6079bb25c020632e3361b83f57394e8",
        "scriptpubkey_asm": "OP_0 OP_PUSHBYTES_20 11aa9115a6079bb25c020632e3361b83f57394e8",
        "scriptpubkey_type": "v0_p2wpkh",
        "scriptpubkey_address": "bc1qzx4fz9dxq7dmyhqzqcewxdsms06h898gj685n4",
        "value": 345325
      },
      "scriptsig": "",
      "scriptsig_asm": "",
      "witness": [
        "30440220334c8065675428f3da9a93ca51080c83ffb61c39a54e85a902ce768b85b2306d02201dcb58092194ecb58b25ed853e6b3ff2eb87016f6a06f3181e145f94ff3e533f01",
        "03496aa5755a1f01675f34de504b0c0fa047d2719d1fd7a99a01ce396bdb53602d"
      ],
      "is_coinbase": false,
      "sequence": 4294967293
    }
  ],
  "vout": [
    {
      "scriptpubkey": "a914b056c64e32b69cd6085bdea42b47610288644dac87",
      "scriptpubkey_asm": "OP_HASH160 OP_PUSHBYTES_20 b056c64e32b69cd6085bdea42b47610288644dac OP_EQUAL",
      "scriptpubkey_type": "p2sh",
      "scriptpubkey_address": "3HmQoWhp3MXkMqWbAoPAnzZ5Fe2zNZ6bNH",
      "value": 1099875
    }
  ],
  "size": 490,
  "weight": 985,
  "fee": 6448,
  "status": {
    "confirmed": true,
    "block_height": 834460,
    "block_hash": "00000000000000000000484a79b643b2524bbce82e5d8a442013fa5b8905ed98",
    "block_time": 1710307468
  },
  "hex": "01000000000103aad79d984bb863fedf52a8b72ff9fca48da7e33ca2c66460adcd4926d63dff890000000000fdffffffcb8903c5e4404956b3263cb231431a1ef203142959ff2d7aa75b45c55529814e1d00000000fdffffff49b93c6d8c09fd0fd0597f6ecb62a2991b0bbf4694acd7f294db64d29423d4ff0000000000fdffffff0163c810000000000017a914b056c64e32b69cd6085bdea42b47610288644dac8702483045022100d851790e55e0c7eb17ebb80721d4505ade585e43cc0fa56675e2f2aea0dd309c022038e84d73103a181e2dedf4c30204b8334ebfe72763a4fbe60ad50788a50c5ddf01210361ac1f60f1c6c2f6feffa8754ed8543a96d44e04d1506ec7373605395460722702483045022100cb9e1335f0095fdf19d7aef814b25f117bc780c1291a62666854defbf0c42ffe02206466587ca9fa5523988b2bf0ad27622db6f5ba49c1b2dcb862c4105b98c88a6f012103a9d0bba37dc2a82ca788e50cc28e5645fe91d798910d36aa28ff7c7b06e0bcf1024730440220334c8065675428f3da9a93ca51080c83ffb61c39a54e85a902ce768b85b2306d02201dcb58092194ecb58b25ed853e6b3ff2eb87016f6a06f3181e145f94ff3e533f012103496aa5755a1f01675f34de504b0c0fa047d2719d1fd7a99a01ce396bdb53602d00000000"
}