{
  "txid": "b4baac3dd349a1b2adcae0e9c1250ae43476d3405b9834172879c6aa7101e8b0",
  "version": 2,
  "locktime": 834637,
  "vin": [
    {
      "txid": "43eb9db46901417837a5319af3084e27fc5294e1917711c2848b0b97e0547340",
      "vout": 1,
      "prevout": {
        "scriptpubkey": "00143622181d057953a91425ef1c78fe9ba634531f0a",
        "scriptpubkey_asm": "OP_0 OP_PUSHBYTES_20 3622181d057953a91425ef1c78fe9ba634531f0a",
        "scriptpubkey_type": "v0_p2wpkh",
        "scriptpubkey_address": "bc1qxc3ps8g909f6j9p9auw83l5m5c69x8c2zzrqvg",
        "value": 33240
      },
      "scriptsig": "",
      "scriptsig_asm": "",
      "witness": [
        "304402200b42f043554eaaf4c9ae0e6c38a842f0687e8b8282943e0b2d105bd1e9b5dce502205ce5a11270684421ac08d83447d6a0cacd3520acefa045be214e0b904276b45201",
        "039f1a9b28319faa320b66592edec45bb2aa9cd8dff980637ad40ce15523c363b0"
      ],
      "is_coinbase": false,
      "sequence": 4294967294
    }
  ],
  "vout": [
    {
      "scriptpubkey": "0014a6550f302d8aa79c2fe380b6b625cdda0842ec24",
      "scriptpubkey_asm": "OP_0 OP_PUSHBYTES_20 a6550f302d8aa79c2fe380b6b625cdda0842ec24",
      "scriptpubkey_type": "v0_p2wpkh",
      "scriptpubkey_address": "bc1q5e2s7vpd32nectlrszmtvfwdmgyy9mpyman2zm",
      "value": 14840
    },
    {
      "scriptpubkey": "0014af55facc2230e707a42aa36e5622f5271173bd94",
      "scriptpubkey_asm": "OP_0 OP_PUSHBYTES_20 af55facc2230e707a42aa36e5622f5271173bd94",
      "scriptpubkey_type": "v0_p2wpkh",
      "scriptpubkey_address": "bc1q4a2l4npzxrns0fp25dh9vgh4yugh80v5dglxlw",
      "value": 15860
    }
  ],
  "size": 222,
  "weight": 561,
  "fee": 2540,
  "status": {
    "confirmed": true,
    "block_height": 834638,
    "block_hash": "000000000000000000025f742c626208ac87e0b7d15054abb4a19ca2d735a54e",
    "block_time": 1710405325
  },
  "hex": "02000000000101407354e0970b8b84c2117791e19452fc274e08f39a31a53778410169b49deb430100000000feffffff02f839000000000000160014a6550f302d8aa79c2fe380b6b625cdda0842ec24f43d000000000000160014af55facc2230e707a42aa36e5622f5271173bd940247304402200b42f043554eaaf4c9ae0e6c38a842f0687e8b8282943e0b2d105bd1e9b5dce502205ce5a11270684421ac08d83447d6a0cacd3520acefa045be214e0b904276b4520121039f1a9b28319faa320b66592edec45bb2aa9cd8dff980637ad40ce15523c363b04dbc0c00"
}