{
  "txid": "b4c54f14ea1d6755ea40dbb2d9c6e1dfa151ce80c17d1350c74aa05bbd7d94e1",
  "version": 1,
  "locktime": 0,
  "vin": [
    {
      "txid": "12406a9d147518aa8724ef8b345b6b9e1cab88e6ab87ba96a5d2fef5b9eec79c",
      "vout": 0,
      "prevout": {
        "scriptpubkey": "51205aefd106dd75dc2268d91719c044e264fbea726bdc682c3733cce8acb201dd62",
        "scriptpubkey_asm": "OP_PUSHNUM_1 OP_PUSHBYTES_32 5aefd106dd75dc2268d91719c044e264fbea726bdc682c3733cce8acb201dd62",
        "scriptpubkey_type": "v1_p2tr",
        "scriptpubkey_address": "bc1ptthazpkawhwzy6xezuvuq38zvna75untm35zcdenen52evspm43q9kxus0",
        "value": 2463
      },
      "scriptsig": "",
      "scriptsig_asm": "",
      "witness": [
        "5be59a4e0906f3557d8a1c2d9ac823dbf248a4d5148fd9071df5be995b43ca09846465487584f6801625abb89154b26066ec342692f907db0f8d79273bb224e583",
        "20be11f1d0580232188e877ef283eb5a1efd4e9e5290a2633605d666f59ad3fff2ac00630461746f6d03646d743ba16461726773a468626974776f726b6364313234306b6d696e745f7469636b657264766d7078656e6f6e63651a0076ac2c6474696d651a65eae3f668",
        "c0be11f1d0580232188e877ef283eb5a1efd4e9e5290a2633605d666f59ad3fff2"
      ],
      "is_coinbase": false,
      "sequence": 4294967293
    }
  ],
  "vout": [
    {
      "scriptpubkey": "0014027bc455b49578636e080eabed6048b02ab3985f",
      "scriptpubkey_asm": "OP_0 OP_PUSHBYTES_20 027bc455b49578636e080eabed6048b02ab3985f",
      "scriptpubkey_type": "v0_p2wpkh",
      "scriptpubkey_address": "bc1qqfaug4d5j4uxxmsgp6476czgkq4t8xzl6u3zjv",
      "value": 1000
    }
  ],
  "size": 292,
  "weight": 538,
  "fee": 1463,
  "status": {
    "confirmed": true,
    "block_height": 834464,
    "block_hash": "0000000000000000000177a0869a911a2b65c9bdcd5a8bcb02b68f305bee848e",
    "block_time": 1710308296
  },
  "hex": "010000000001019cc7eeb9f5fed2a596ba87abe688ab1c9e6b5b348bef2487aa1875149d6a40120000000000fdffffff01e803000000000000160014027bc455b49578636e080eabed6048b02ab3985f03415be59a4e0906f3557d8a1c2d9ac823dbf248a4d5148fd9071df5be995b43ca09846465487584f6801625abb89154b26066ec342692f907db0f8d79273bb224e5836a20be11f1d0580232188e877ef283eb5a1efd4e9e5290a2633605d666f59ad3fff2ac00630461746f6d03646d743ba16461726773a468626974776f726b6364313234306b6d696e745f7469636b657264766d7078656e6f6e63651a0076ac2c6474696d651a65eae3f66821c0be11f1d0580232188e877ef283eb5a1efd4e9e5290a2633605d666f59ad3fff200000000"
}