{
  "txid": "b4c84381e21e3c92542fcd12f78a0f8256d7c872db269cb263d7afb9ace6eb31",
  "version": 2,
  "locktime": 0,
  "vin": [
    {
      "txid": "d18ed70056c00a6cd5de0ccb10b1ae8f7dd5250f9d0f22c727aba826d03302c8",
      "vout": 15,
      "prevout": {
        "scriptpubkey": "5120a706f9155c11a5fc2a11eb9c195975e1ee37f621ea54ee7646ae44127667f53d",
        "scriptpubkey_asm": "OP_PUSHNUM_1 OP_PUSHBYTES_32 a706f9155c11a5fc2a11eb9c195975e1ee37f621ea54ee7646ae44127667f53d",
        "scriptpubkey_type": "v1_p2tr",
        "scriptpubkey_address": "bc1p5ur0j92uzxjlc2s3awwpjkt4u8hr0a3paf2wuajx4ezpyan8757sjvyzx6",
        "value": 3010
      },
      "scriptsig": "",
      "scriptsig_asm": "",
      "witness": [
        "b11b24f33403a8d9229cb4123bbf255c39a478f358298ed3ea41a44ca4e2b2455559f64a83f735e9a3c0040070dbc2bf1886edc444153caeeec9d281c28ef144",
        "2093a05851400333169b875af6a1c14b7c260934abc5ee59652ce40c8f77b76b07ac0063036f726401011e6170706c69636174696f6e2f6a736f6e3b636861727365743d7574662d38004cbf7b2270223a22706f772d3230222c226f70223a226d696e74222c227469636b223a2250455045222c22616d74223a2231303030222c22736f6c7574696f6e223a22504550453a6263317168337833756334707a796478716436757776376e3732676874787a33753937306564663078613a303030303030303030303030303030303030303139393431613561653132383937363539383134343239323533333030353762306461393666336465613163353a3237353937363931383634227d68",
        "c0e5c6b8d70510d88b341fcdd9a2aa08913e89d9e736480c530fde3fe13419cdab"
      ],
      "is_coinbase": false,
      "sequence": 4294967295
    }
  ],
  "vout": [
    {
      "scriptpubkey": "0014bc4d1e62a1111a60375c733d3f291759851e17cf",
      "scriptpubkey_asm": "OP_0 OP_PUSHBYTES_20 bc4d1e62a1111a60375c733d3f291759851e17cf",
      "scriptpubkey_type": "v0_p2wpkh",
      "scriptpubkey_address": "bc1qh3x3uc4pzydxqd6uwv7n72ghtxz3u970edf0xa",
      "value": 546
    }
  ],
  "size": 455,
  "weight": 701,
  "fee": 2464,
  "status": {
    "confirmed": true,
    "block_height": 834460,
    "block_hash": "00000000000000000000484a79b643b2524bbce82e5d8a442013fa5b8905ed98",
    "block_time": 1710307468
  },
  "hex": "02000000000101c80233d026a8ab27c7220f9d0f25d57d8faeb110cb0cded56c0ac05600d78ed10f00000000ffffffff012202000000000000160014bc4d1e62a1111a60375c733d3f291759851e17cf0340b11b24f33403a8d9229cb4123bbf255c39a478f358298ed3ea41a44ca4e2b2455559f64a83f735e9a3c0040070dbc2bf1886edc444153caeeec9d281c28ef144fd0c012093a05851400333169b875af6a1c14b7c260934abc5ee59652ce40c8f77b76b07ac0063036f726401011e6170706c69636174696f6e2f6a736f6e3b636861727365743d7574662d38004cbf7b2270223a22706f772d3230222c226f70223a226d696e74222c227469636b223a2250455045222c22616d74223a2231303030222c22736f6c7574696f6e223a22504550453a6263317168337833756334707a796478716436757776376e3732676874787a33753937306564663078613a303030303030303030303030303030303030303139393431613561653132383937363539383134343239323533333030353762306461393666336465613163353a3237353937363931383634227d6821c0e5c6b8d70510d88b341fcdd9a2aa08913e89d9e736480c530fde3fe13419cdab00000000"
}