{
  "txid": "b4ebb75fd7c84682583a32a819a834bf51cfb648162d578b9faecc840da6975d",
  "version": 2,
  "locktime": 0,
  "vin": [
    {
      "txid": "acc3ba00869acb582a3f2904ce3a11dd3779350ce234063fc7d0959246213364",
      "vout": 213,
      "prevout": {
        "scriptpubkey": "51200208198ab2751ddb6636c7279d7e2efc15c5770c5a1a74a903029b2765755124",
        "scriptpubkey_asm": "OP_PUSHNUM_1 OP_PUSHBYTES_32 0208198ab2751ddb6636c7279d7e2efc15c5770c5a1a74a903029b2765755124",
        "scriptpubkey_type": "v1_p2tr",
        "scriptpubkey_address": "bc1pqgypnz4jw5wake3kcune6l3wls2u2acvtgd8f2grq2djwet42yjq4eyafn",
        "value": 1806
      },
      "scriptsig": "",
      "scriptsig_asm": "",
      "witness": [
        "eeaac33269d1c1c1da73391062c83c4d3fcd36994989a8d85534a227cf1bf6f461c787240a48ea9ed832e36aef68e811349fc2971e605d57166a67ef6a4685f4",
        "20d43de9568fc2cec8eb67588d7324eca03fdd32447ffc60c2db90810a237620a5ac0063036f726401010a746578742f706c61696e00357b2270223a226272632d3230222c226f70223a226d696e74222c227469636b223a22646f6765222c22616d74223a2234323030227d68",
        "c0d43de9568fc2cec8eb67588d7324eca03fdd32447ffc60c2db90810a237620a5"
      ],
      "is_coinbase": false,
      "sequence": 4261412863
    }
  ],
  "vout": [
    {
      "scriptpubkey": "00147a665de7a370f4c9b372ab1fae587500a5bcbdb4",
      "scriptpubkey_asm": "OP_0 OP_PUSHBYTES_20 7a665de7a370f4c9b372ab1fae587500a5bcbdb4",
      "scriptpubkey_type": "v0_p2wpkh",
      "scriptpubkey_address": "bc1q0fn9mearwr6vnvmj4v06ukr4qzjme0d565dzcx",
      "value": 294
    }
  ],
  "size": 294,
  "weight": 540,
  "fee": 1512,
  "status": {
    "confirmed": true,
    "block_height": 834460,
    "block_hash": "00000000000000000000484a79b643b2524bbce82e5d8a442013fa5b8905ed98",
    "block_time": 1710307468
  },
  "hex": "02000000000101643321469295d0c73f0634e20c357937dd113ace04293f2a58cb9a8600bac3acd500000000fffffffd0126010000000000001600147a665de7a370f4c9b372ab1fae587500a5bcbdb40340eeaac33269d1c1c1da73391062c83c4d3fcd36994989a8d85534a227cf1bf6f461c787240a48ea9ed832e36aef68e811349fc2971e605d57166a67ef6a4685f46d20d43de9568fc2cec8eb67588d7324eca03fdd32447ffc60c2db90810a237620a5ac0063036f726401010a746578742f706c61696e00357b2270223a226272632d3230222c226f70223a226d696e74222c227469636b223a22646f6765222c22616d74223a2234323030227d6821c0d43de9568fc2cec8eb67588d7324eca03fdd32447ffc60c2db90810a237620a500000000"
}