{
  "txid": "b4f29ab76101c1d3ff79e299e495f07da88cd703d499d7ee40f86ad17a19e51d",
  "version": 2,
  "locktime": 0,
  "vin": [
    {
      "txid": "707c084546434ef7f34ddf74eee3a614b364fabf7047d7173aca5cae678ca9ba",
      "vout": 1,
      "prevout": {
        "scriptpubkey": "00147ef5f8ea9a21d10891d4e76d3b1c29c8722a2090",
        "scriptpubkey_asm": "OP_0 OP_PUSHBYTES_20 7ef5f8ea9a21d10891d4e76d3b1c29c8722a2090",
        "scriptpubkey_type": "v0_p2wpkh",
        "scriptpubkey_address": "bc1q0m6l3656y8gs3yw5uaknk8pfepez5gystgqfsp",
        "value": 155652
      },
      "scriptsig": "",
      "scriptsig_asm": "",
      "witness": [
        "3044022059ecd856ce50d1aa7f631e53a06ed3b2384a617dc8f68cd9e6c21c9ca2927631022024ec21b3f5e78ebb96db5edbe57baa62c9b4a0d3424b869cc0815913582050d001",
        "039c9f5dbbba2a4bbfc8e9ff35a7b37fa37b45d2303ae116355ed24c1e09c0d010"
      ],
      "is_coinbase": false,
      "sequence": 4294967293
    },
    {
      "txid": "d34e367081dba3471e8e9f2c00c66a36ab5adbd2c9e5bf49972a68bba8592f7c",
      "vout": 0,
      "prevout": {
        "scriptpubkey": "0014e5bf979ae762a7ba42f28794a60063f18dcff941",
        "scriptpubkey_asm": "OP_0 OP_PUSHBYTES_20 e5bf979ae762a7ba42f28794a60063f18dcff941",
        "scriptpubkey_type": "v0_p2wpkh",
        "scriptpubkey_address": "bc1qukle0xh8v2nm5shjs722vqrr7xxul72pe4s3vp",
        "value": 9452
      },
      "scriptsig": "",
      "scriptsig_asm": "",
      "witness": [
        "30440220321286ebd596a0a81373ef91c03f535050b38e7ab553a71ef038f16e7948531b02202d1f47c65c780846b7068ec61a9db05161134cb3e637a081b444eb4a6dbbf65201",
        "02925377d0c7bfee7aab14b0411cf5db84d879b44ad5e64e5d1035a99b90c37719"
      ],
      "is_coinbase": false,
      "sequence": 4294967293
    },
    {
      "txid": "c617f5214b04c0ef8b553a72e161a669baa603ac2031fdb3c5bde6adc68fc0f3",
      "vout": 0,
      "prevout": {
        "scriptpubkey": "0014e5bf979ae762a7ba42f28794a60063f18dcff941",
        "scriptpubkey_asm": "OP_0 OP_PUSHBYTES_20 e5bf979ae762a7ba42f28794a60063f18dcff941",
        "scriptpubkey_type": "v0_p2wpkh",
        "scriptpubkey_address": "bc1qukle0xh8v2nm5shjs722vqrr7xxul72pe4s3vp",
        "value": 395235
      },
      "scriptsig": "",
      "scriptsig_asm": "",
      "witness": [
        "304402206f29b82f9b403009fd95a9d3a002381a4c620ef622ea484e9488ccf1648846b6022053056e3e19b6e08f589450d828656945ec98c567b15c840d5e2fb61bd2768a4e01",
        "02925377d0c7bfee7aab14b0411cf5db84d879b44ad5e64e5d1035a99b90c37719"
      ],
      "is_coinbase": false,
      "sequence": 4294967293
    },
    {
      "txid": "44d2432dfca4888b0ab416faa818c12e1b217da884515620e1bd578c9b50434c",
      "vout": 49,
      "prevout": {
        "scriptpubkey": "76a91490143e3f371989417aa022c76f5a9c9d1238975488ac",
        "scriptpubkey_asm": "OP_DUP OP_HASH160 OP_PUSHBYTES_20 90143e3f371989417aa022c76f5a9c9d12389754 OP_EQUALVERIFY OP_CHECKSIG",
        "scriptpubkey_type": "p2pkh",
        "scriptpubkey_address": "1E8pZ9GBp7ZyMyy2vFv3DKTpsXUenRrMFu",
        "value": 58282
      },
      "scriptsig": "473044022077794dfd4fd36b69e0867f9bb8a1fd3c3c69f0058aa5228a1d6ebc9e1bb7055802207d84d9e76dd839c25d697f84ce50b8cd4bc5527e1c31a33641ba3d2dc504b4ff012102a244f4620ceea82466c29973bea1d5a59be05be043ee9e93fcb8c18ab41c8357",
      "scriptsig_asm": "OP_PUSHBYTES_71 3044022077794dfd4fd36b69e0867f9bb8a1fd3c3c69f0058aa5228a1d6ebc9e1bb7055802207d84d9e76dd839c25d697f84ce50b8cd4bc5527e1c31a33641ba3d2dc504b4ff01 OP_PUSHBYTES_33 02a244f4620ceea82466c29973bea1d5a59be05be043ee9e93fcb8c18ab41c8357",
      "is_coinbase": false,
      "sequence": 4294967293
    }
  ],
  "vout": [
    {
      "scriptpubkey": "a914492c615af74b89f71f87c6a2bbc91c80c865d07a87",
      "scriptpubkey_asm": "OP_HASH160 OP_PUSHBYTES_20 492c615af74b89f71f87c6a2bbc91c80c865d07a OP_EQUAL",
      "scriptpubkey_type": "p2sh",
      "scriptpubkey_address": "38MvR9KcT3PiLGkKA6TdGByoKazuBGfxnp",
      "value": 612787
    }
  ],
  "size": 636,
  "weight": 1572,
  "fee": 5834,
  "status": {
    "confirmed": true,
    "block_height": 834638,
    "block_hash": "000000000000000000025f742c626208ac87e0b7d15054abb4a19ca2d735a54e",
    "block_time": 1710405325
  },
  "hex": "02000000000104baa98c67ae5cca3a17d74770bffa64b314a6e3ee74df4df3f74e434645087c700100000000fdffffff7c2f59a8bb682a9749bfe5c9d2db5aab366ac6002c9f8e1e47a3db8170364ed30000000000fdfffffff3c08fc6ade6bdc5b3fd3120ac03a6ba69a661e1723a558befc0044b21f517c60000000000fdffffff4c43509b8c57bde120565184a87d211b2ec118a8fa16b40a8b88a4fc2d43d244310000006a473044022077794dfd4fd36b69e0867f9bb8a1fd3c3c69f0058aa5228a1d6ebc9e1bb7055802207d84d9e76dd839c25d697f84ce50b8cd4bc5527e1c31a33641ba3d2dc504b4ff012102a244f4620ceea82466c29973bea1d5a59be05be043ee9e93fcb8c18ab41c8357fdffffff01b35909000000000017a914492c615af74b89f71f87c6a2bbc91c80c865d07a8702473044022059ecd856ce50d1aa7f631e53a06ed3b2384a617dc8f68cd9e6c21c9ca2927631022024ec21b3f5e78ebb96db5edbe57baa62c9b4a0d3424b869cc0815913582050d00121039c9f5dbbba2a4bbfc8e9ff35a7b37fa37b45d2303ae116355ed24c1e09c0d010024730440220321286ebd596a0a81373ef91c03f535050b38e7ab553a71ef038f16e7948531b02202d1f47c65c780846b7068ec61a9db05161134cb3e637a081b444eb4a6dbbf652012102925377d0c7bfee7aab14b0411cf5db84d879b44ad5e64e5d1035a99b90c377190247304402206f29b82f9b403009fd95a9d3a002381a4c620ef622ea484e9488ccf1648846b6022053056e3e19b6e08f589450d828656945ec98c567b15c840d5e2fb61bd2768a4e012102925377d0c7bfee7aab14b0411cf5db84d879b44ad5e64e5d1035a99b90c377190000000000"
}