{
  "txid": "b4fd7cb58329bf5a95fec2b7a9cc81f909b644b02102e5f69ee94bb1c4721e77",
  "version": 2,
  "locktime": 834441,
  "vin": [
    {
      "txid": "577ab856d1f212869cfe338f3aaf54583e117603738e7b3f1e512aa9f696ad89",
      "vout": 0,
      "prevout": {
        "scriptpubkey": "76a9147ef4029d1674a763036eaa4d5fc6453868308ccf88ac",
        "scriptpubkey_asm": "OP_DUP OP_HASH160 OP_PUSHBYTES_20 7ef4029d1674a763036eaa4d5fc6453868308ccf OP_EQUALVERIFY OP_CHECKSIG",
        "scriptpubkey_type": "p2pkh",
        "scriptpubkey_address": "1CaGTJEpjWqE43bm9ipNC1Gace7bwYAaHH",
        "value": 40000
      },
      "scriptsig": "4730440220716ea4996b8cb730962738dda8c0746f27c51d07edb8791ce9a71744c9f8575202205dcdacde7d26004790def7f0bc08da5b98e049efee09679cb09902741574f8c101210272857106b8174cbcc67b6354f4683e267847d5e1dc9219876b23c241bf53e018",
      "scriptsig_asm": "OP_PUSHBYTES_71 30440220716ea4996b8cb730962738dda8c0746f27c51d07edb8791ce9a71744c9f8575202205dcdacde7d26004790def7f0bc08da5b98e049efee09679cb09902741574f8c101 OP_PUSHBYTES_33 0272857106b8174cbcc67b6354f4683e267847d5e1dc9219876b23c241bf53e018",
      "is_coinbase": false,
      "sequence": 4294967293
    },
    {
      "txid": "cdc4308162ec411e725018a6644382c3871b091792718dcc974c3cc2c3909e12",
      "vout": 1,
      "prevout": {
        "scriptpubkey": "76a9143b4e218852fd9095f4dc9fbb8f1dd4866722c12388ac",
        "scriptpubkey_asm": "OP_DUP OP_HASH160 OP_PUSHBYTES_20 3b4e218852fd9095f4dc9fbb8f1dd4866722c123 OP_EQUALVERIFY OP_CHECKSIG",
        "scriptpubkey_type": "p2pkh",
        "scriptpubkey_address": "16QaTxLbHv67unpLfkpebCXjU4WsoDzcEL",
        "value": 56164
      },
      "scriptsig": "47304402200bd7aebe28122f3228adb7549a2e79fbe47c05430e3b77c35e0bb0dc944ee72502205d6a5a4308753bc478f91ef42b7b57a8b1461cc0beea9e01e4f6e75898a0bfd70121029b53a0e3b5f85ee1d9547143fc2acb9b3af425d2572be60ac6fd6e38d75ea170",
      "scriptsig_asm": "OP_PUSHBYTES_71 304402200bd7aebe28122f3228adb7549a2e79fbe47c05430e3b77c35e0bb0dc944ee72502205d6a5a4308753bc478f91ef42b7b57a8b1461cc0beea9e01e4f6e75898a0bfd701 OP_PUSHBYTES_33 029b53a0e3b5f85ee1d9547143fc2acb9b3af425d2572be60ac6fd6e38d75ea170",
      "is_coinbase": false,
      "sequence": 4294967293
    }
  ],
  "vout": [
    {
      "scriptpubkey": "76a91460d4c69e0bf71c9be38b08dfd216c3278b979c0988ac",
      "scriptpubkey_asm": "OP_DUP OP_HASH160 OP_PUSHBYTES_20 60d4c69e0bf71c9be38b08dfd216c3278b979c09 OP_EQUALVERIFY OP_CHECKSIG",
      "scriptpubkey_type": "p2pkh",
      "scriptpubkey_address": "19pzmLmmoZxxa9GK8WvDqKGH5bwHNAMd38",
      "value": 91145
    }
  ],
  "size": 338,
  "weight": 1352,
  "fee": 5019,
  "status": {
    "confirmed": true,
    "block_height": 834460,
    "block_hash": "00000000000000000000484a79b643b2524bbce82e5d8a442013fa5b8905ed98",
    "block_time": 1710307468
  },
  "hex": "020000000289ad96f6a92a511e3f7b8e730376113e5854af3a8f33fe9c8612f2d156b87a57000000006a4730440220716ea4996b8cb730962738dda8c0746f27c51d07edb8791ce9a71744c9f8575202205dcdacde7d26004790def7f0bc08da5b98e049efee09679cb09902741574f8c101210272857106b8174cbcc67b6354f4683e267847d5e1dc9219876b23c241bf53e018fdffffff129e90c3c23c4c97cc8d719217091b87c3824364a61850721e41ec628130c4cd010000006a47304402200bd7aebe28122f3228adb7549a2e79fbe47c05430e3b77c35e0bb0dc944ee72502205d6a5a4308753bc478f91ef42b7b57a8b1461cc0beea9e01e4f6e75898a0bfd70121029b53a0e3b5f85ee1d9547143fc2acb9b3af425d2572be60ac6fd6e38d75ea170fdffffff0109640100000000001976a91460d4c69e0bf71c9be38b08dfd216c3278b979c0988ac89bb0c00"
}