{
  "txid": "b53121907425ef5ba688a54f1cf2a36598bd070fdada6d9e96afbfc417f896af",
  "version": 1,
  "locktime": 0,
  "vin": [
    {
      "txid": "a0bf03a27555e19663227e2992c533404c8821b8baae930a1d5285ad37aed258",
      "vout": 0,
      "prevout": {
        "scriptpubkey": "76a914e9a2ea9966f0caa8881fc8ee0d31b9e6a294f0f288ac",
        "scriptpubkey_asm": "OP_DUP OP_HASH160 OP_PUSHBYTES_20 e9a2ea9966f0caa8881fc8ee0d31b9e6a294f0f2 OP_EQUALVERIFY OP_CHECKSIG",
        "scriptpubkey_type": "p2pkh",
        "scriptpubkey_address": "1NJMcKwnZitwAkeLSpxhBXsuQVmk6tapq5",
        "value": 24996384
      },
      "scriptsig": "483045022100f85ad0c8dce9b05ff2cb374fac82e40627de658a52b66f91e2bb0f39c391052b0220210241fe9f2432c53a1287a32b1a6cf0d19a52e73f45f792ae4f0663ff7c8793012103922c1005950399247342a99b8794595b113e14707ed8530f94cbf5ace2dd3d57",
      "scriptsig_asm": "OP_PUSHBYTES_72 3045022100f85ad0c8dce9b05ff2cb374fac82e40627de658a52b66f91e2bb0f39c391052b0220210241fe9f2432c53a1287a32b1a6cf0d19a52e73f45f792ae4f0663ff7c879301 OP_PUSHBYTES_33 03922c1005950399247342a99b8794595b113e14707ed8530f94cbf5ace2dd3d57",
      "is_coinbase": false,
      "sequence": 4294967295
    }
  ],
  "vout": [
    {
      "scriptpubkey": "76a9140c07b3a8bc9410d941870d872552e688b62dcfa388ac",
      "scriptpubkey_asm": "OP_DUP OP_HASH160 OP_PUSHBYTES_20 0c07b3a8bc9410d941870d872552e688b62dcfa3 OP_EQUALVERIFY OP_CHECKSIG",
      "scriptpubkey_type": "p2pkh",
      "scriptpubkey_address": "126cLS46uhg5KuKFeaQMpSjnPq8gBy44S6",
      "value": 24986384
    }
  ],
  "size": 192,
  "weight": 768,
  "fee": 10000,
  "status": {
    "confirmed": true,
    "block_height": 834638,
    "block_hash": "000000000000000000025f742c626208ac87e0b7d15054abb4a19ca2d735a54e",
    "block_time": 1710405325
  },
  "hex": "010000000158d2ae37ad85521d0a93aebab821884c4033c592297e226396e15575a203bfa0000000006b483045022100f85ad0c8dce9b05ff2cb374fac82e40627de658a52b66f91e2bb0f39c391052b0220210241fe9f2432c53a1287a32b1a6cf0d19a52e73f45f792ae4f0663ff7c8793012103922c1005950399247342a99b8794595b113e14707ed8530f94cbf5ace2dd3d57ffffffff0110437d01000000001976a9140c07b3a8bc9410d941870d872552e688b62dcfa388ac00000000"
}