{
  "txid": "b54ea07a9da21367d1e83e979163f6dac8d05e6a748b95328b25d4fbc9546520",
  "version": 2,
  "locktime": 834637,
  "vin": [
    {
      "txid": "5413fc25a705ac68cc05dd7add5b553d923b2ec3210637c804cb13e2e6e3c464",
      "vout": 1,
      "prevout": {
        "scriptpubkey": "00140063c181cd0b7b8c261d2b0dd5f0f268cc6f8a74",
        "scriptpubkey_asm": "OP_0 OP_PUSHBYTES_20 0063c181cd0b7b8c261d2b0dd5f0f268cc6f8a74",
        "scriptpubkey_type": "v0_p2wpkh",
        "scriptpubkey_address": "bc1qqp3urqwdpdaccfsa9vxatu8jdrxxlzn56uzwxd",
        "value": 258127164
      },
      "scriptsig": "",
      "scriptsig_asm": "",
      "witness": [
        "3044022051ead5abda4096cb0455bd518376595379a4362c5c4caaa7725d90b0e617ea9c0220741016e413cce90fca788dc10166ceb452bd11c485ef3ac9f80ca07d5e22808801",
        "03978a70d15f22a41f9b906d3dd54edd2bb3cd1b41cadb92591dee38b37cfa12d8"
      ],
      "is_coinbase": false,
      "sequence": 4294967294
    }
  ],
  "vout": [
    {
      "scriptpubkey": "a914427627c1309cf8cbbdef434e27c04960b3e5d02a87",
      "scriptpubkey_asm": "OP_HASH160 OP_PUSHBYTES_20 427627c1309cf8cbbdef434e27c04960b3e5d02a OP_EQUAL",
      "scriptpubkey_type": "p2sh",
      "scriptpubkey_address": "37kS4n5w5BxEVs6ZLwTLYEwGRVnXYMwVYB",
      "value": 1100000
    },
    {
      "scriptpubkey": "0014ce93590cc34c66fc9ba8d046747581e2b0709f16",
      "scriptpubkey_asm": "OP_0 OP_PUSHBYTES_20 ce93590cc34c66fc9ba8d046747581e2b0709f16",
      "scriptpubkey_type": "v0_p2wpkh",
      "scriptpubkey_address": "bc1qe6f4jrxrf3n0exag6pr8gavpu2c8p8cks08ukm",
      "value": 257023684
    }
  ],
  "size": 223,
  "weight": 565,
  "fee": 3480,
  "status": {
    "confirmed": true,
    "block_height": 834638,
    "block_hash": "000000000000000000025f742c626208ac87e0b7d15054abb4a19ca2d735a54e",
    "block_time": 1710405325
  },
  "hex": "0200000000010164c4e3e6e213cb04c8370621c32e3b923d555bdd7add05cc68ac05a725fc13540100000000feffffff02e0c810000000000017a914427627c1309cf8cbbdef434e27c04960b3e5d02a87c4de510f00000000160014ce93590cc34c66fc9ba8d046747581e2b0709f1602473044022051ead5abda4096cb0455bd518376595379a4362c5c4caaa7725d90b0e617ea9c0220741016e413cce90fca788dc10166ceb452bd11c485ef3ac9f80ca07d5e228088012103978a70d15f22a41f9b906d3dd54edd2bb3cd1b41cadb92591dee38b37cfa12d84dbc0c00"
}