{
  "txid": "b555084484f2a68e036af36c9c10aa4f449a00192e554151abdc3192e188f3d0",
  "version": 2,
  "locktime": 0,
  "vin": [
    {
      "txid": "f08f4b88c096083cd96a75498d4bb91236e4e84fe0965508c8b8a2432c2ad5eb",
      "vout": 21,
      "prevout": {
        "scriptpubkey": "512003a507f99ccc704298a09ecd92d223ce570fa894c4453c5ab49acec2dde896cc",
        "scriptpubkey_asm": "OP_PUSHNUM_1 OP_PUSHBYTES_32 03a507f99ccc704298a09ecd92d223ce570fa894c4453c5ab49acec2dde896cc",
        "scriptpubkey_type": "v1_p2tr",
        "scriptpubkey_address": "bc1pqwjs07vue3cy9x9qnmxe953reetsl2y5c3znck45nt8v9h0gjmxqpje3at",
        "value": 1859
      },
      "scriptsig": "",
      "scriptsig_asm": "",
      "witness": [
        "5b32b781280ad4151ed74b683c5ac785ce37cc568536ccf52d0ab96336674c356e18da14e54409ab4f090118fdf99dcfe44e4c185c34483b094a4038cba2d4f3",
        "203082eb4af341bc772885d9088f095acc1028ad8e47c236ff9ed7bb283610fbc0ac0063036f7264010118746578742f706c61696e3b636861727365743d7574662d3800357b2270223a226272632d3230222c226f70223a226d696e74222c227469636b223a22646f6765222c22616d74223a2234323030227d68",
        "c1a1b8f27720bdb58312407ff108aa0a8a79eb6ade7272753df37ca3add73a736a"
      ],
      "is_coinbase": false,
      "sequence": 4294967295
    }
  ],
  "vout": [
    {
      "scriptpubkey": "00149e8548cc69df89adefb3c19ee6963818466a179d",
      "scriptpubkey_asm": "OP_0 OP_PUSHBYTES_20 9e8548cc69df89adefb3c19ee6963818466a179d",
      "scriptpubkey_type": "v0_p2wpkh",
      "scriptpubkey_address": "bc1qn6z53nrfm7y6mmancx0wd93crprx59uau9ymz7",
      "value": 330
    }
  ],
  "size": 308,
  "weight": 554,
  "fee": 1529,
  "status": {
    "confirmed": true,
    "block_height": 834464,
    "block_hash": "0000000000000000000177a0869a911a2b65c9bdcd5a8bcb02b68f305bee848e",
    "block_time": 1710308296
  },
  "hex": "02000000000101ebd52a2c43a2b8c8085596e04fe8e43612b94b8d49756ad93c0896c0884b8ff01500000000ffffffff014a010000000000001600149e8548cc69df89adefb3c19ee6963818466a179d03405b32b781280ad4151ed74b683c5ac785ce37cc568536ccf52d0ab96336674c356e18da14e54409ab4f090118fdf99dcfe44e4c185c34483b094a4038cba2d4f37b203082eb4af341bc772885d9088f095acc1028ad8e47c236ff9ed7bb283610fbc0ac0063036f7264010118746578742f706c61696e3b636861727365743d7574662d3800357b2270223a226272632d3230222c226f70223a226d696e74222c227469636b223a22646f6765222c22616d74223a2234323030227d6821c1a1b8f27720bdb58312407ff108aa0a8a79eb6ade7272753df37ca3add73a736a00000000"
}