{
  "txid": "b556adf434eb2315e38f27f68081adccb376a016ba1f46bd0c18fec64cd73608",
  "version": 2,
  "locktime": 834637,
  "vin": [
    {
      "txid": "076dc21803b17b6528ce79e1ebc1349ccd708d75bcf32f675a3c5bc391ff5f8f",
      "vout": 0,
      "prevout": {
        "scriptpubkey": "0014a95d0704d6fc57be20f0664bd72a10a98a2d3506",
        "scriptpubkey_asm": "OP_0 OP_PUSHBYTES_20 a95d0704d6fc57be20f0664bd72a10a98a2d3506",
        "scriptpubkey_type": "v0_p2wpkh",
        "scriptpubkey_address": "bc1q49wswpxkl3tmug8sve9aw2ss4x9z6dgx3nhpdy",
        "value": 180240788
      },
      "scriptsig": "",
      "scriptsig_asm": "",
      "witness": [
        "3043021f0309164ba655b1a5f15256a3d3ee1dd664da646b3db196854ee420ba421eb402202dd900a7ccfc3b7451df7a3da8ea0b5004ae38c2d5d3e4dd2b088bb660790e7d01",
        "02d8050e195879e62348e8fb814f7fffc054f80c880c1949cd1a78cd081f9ca2d1"
      ],
      "is_coinbase": false,
      "sequence": 4294967293
    }
  ],
  "vout": [
    {
      "scriptpubkey": "0014e3709114be7d4f6c93406aededa4cfe212d95f9a",
      "scriptpubkey_asm": "OP_0 OP_PUSHBYTES_20 e3709114be7d4f6c93406aededa4cfe212d95f9a",
      "scriptpubkey_type": "v0_p2wpkh",
      "scriptpubkey_address": "bc1qudcfz997048key6qdtk7mfx0ugfdjhu6f4h7xs",
      "value": 52435818
    },
    {
      "scriptpubkey": "00149ecdef5ef70eb69113a20179f8d79ac5af35c19f",
      "scriptpubkey_asm": "OP_0 OP_PUSHBYTES_20 9ecdef5ef70eb69113a20179f8d79ac5af35c19f",
      "scriptpubkey_type": "v0_p2wpkh",
      "scriptpubkey_address": "bc1qnmx77hhhp6mfzyazq9ul34u6ckhntsvlsyycpe",
      "value": 61318953
    },
    {
      "scriptpubkey": "00142ad2894054283b22b87fae075a441677aaa93604",
      "scriptpubkey_asm": "OP_0 OP_PUSHBYTES_20 2ad2894054283b22b87fae075a441677aaa93604",
      "scriptpubkey_type": "v0_p2wpkh",
      "scriptpubkey_address": "bc1q9tfgjsz59qaj9wrl4cr453qkw742jdsysc5yl6",
      "value": 66481046
    }
  ],
  "size": 252,
  "weight": 684,
  "fee": 4971,
  "status": {
    "confirmed": true,
    "block_height": 834638,
    "block_hash": "000000000000000000025f742c626208ac87e0b7d15054abb4a19ca2d735a54e",
    "block_time": 1710405325
  },
  "hex": "020000000001018f5fff91c35b3c5a672ff3bc758d70cd9c34c1ebe179ce28657bb10318c26d070000000000fdffffff036a1b200300000000160014e3709114be7d4f6c93406aededa4cfe212d95f9a29a7a703000000001600149ecdef5ef70eb69113a20179f8d79ac5af35c19f966bf603000000001600142ad2894054283b22b87fae075a441677aaa9360402463043021f0309164ba655b1a5f15256a3d3ee1dd664da646b3db196854ee420ba421eb402202dd900a7ccfc3b7451df7a3da8ea0b5004ae38c2d5d3e4dd2b088bb660790e7d012102d8050e195879e62348e8fb814f7fffc054f80c880c1949cd1a78cd081f9ca2d14dbc0c00"
}