{
  "txid": "b55ecb85efc83512e8a464ecac7e1a02e5e827461665645fe8260d7c295159cb",
  "version": 2,
  "locktime": 0,
  "vin": [
    {
      "txid": "c55d13bd120f0d981e9ec0f71bacefef1f04c781ad535db3b299802291cb1c4f",
      "vout": 1,
      "prevout": {
        "scriptpubkey": "51206e149daa067bd7f6d28859b58c8c30d6085a3545d7eecb8ac1f12867b609de8d",
        "scriptpubkey_asm": "OP_PUSHNUM_1 OP_PUSHBYTES_32 6e149daa067bd7f6d28859b58c8c30d6085a3545d7eecb8ac1f12867b609de8d",
        "scriptpubkey_type": "v1_p2tr",
        "scriptpubkey_address": "bc1pdc2fm2sx00tld55gtx6cerps6cy95d296lhvhzkp7y5x0dsfm6xsk5vl2x",
        "value": 3441
      },
      "scriptsig": "",
      "scriptsig_asm": "",
      "witness": [
        "c656fc6dd65ef1f7ea0cb7adadef9d1cb1acd11f3443e1d49a9d8a0b8920b21ddfb66de9d8c2073a1e4e14c3f04768fd0e89c0d18b5a3ea31067e21f94af962b",
        "205efe4f1a83b3d45c082b3757800d14b8a54fa120b172584e7c7b4a73bc9a21f5ac0063036f726401011e6170706c69636174696f6e2f6a736f6e3b636861727365743d7574662d38004cd37b2270223a22706f772d3230222c226f70223a226d696e74222c227469636b223a2250455045222c22616d74223a2231303030222c22736f6c7574696f6e223a22504550453a626331706b79306a6d686471683675343061616b6e353376673936387a3533396379383879633261386b78656d6e703832786c76633336736763773777653a303030303030303030303030303030303030303139393431613561653132383937363539383134343239323533333030353762306461393666336465613163353a3236353739313435303131227d68",
        "c153c416cf7a0a7bfeca3887b8d7742e19b7125829738fef977e775c0a6289d195"
      ],
      "is_coinbase": false,
      "sequence": 4294967295
    }
  ],
  "vout": [
    {
      "scriptpubkey": "5120b11f2ddda0beb957f7b69d22c4174715225c10e72615d3d8d9dcc2751becc475",
      "scriptpubkey_asm": "OP_PUSHNUM_1 OP_PUSHBYTES_32 b11f2ddda0beb957f7b69d22c4174715225c10e72615d3d8d9dcc2751becc475",
      "scriptpubkey_type": "v1_p2tr",
      "scriptpubkey_address": "bc1pky0jmhdqh6u40aakn53vg968z539cy88yc2a8kxemnp82xlvc36sgcw7we",
      "value": 546
    }
  ],
  "size": 487,
  "weight": 769,
  "fee": 2895,
  "status": {
    "confirmed": true,
    "block_height": 834460,
    "block_hash": "00000000000000000000484a79b643b2524bbce82e5d8a442013fa5b8905ed98",
    "block_time": 1710307468
  },
  "hex": "020000000001014f1ccb91228099b2b35d53ad81c7041fefefac1bf7c09e1e980d0f12bd135dc50100000000ffffffff012202000000000000225120b11f2ddda0beb957f7b69d22c4174715225c10e72615d3d8d9dcc2751becc4750340c656fc6dd65ef1f7ea0cb7adadef9d1cb1acd11f3443e1d49a9d8a0b8920b21ddfb66de9d8c2073a1e4e14c3f04768fd0e89c0d18b5a3ea31067e21f94af962bfd2001205efe4f1a83b3d45c082b3757800d14b8a54fa120b172584e7c7b4a73bc9a21f5ac0063036f726401011e6170706c69636174696f6e2f6a736f6e3b636861727365743d7574662d38004cd37b2270223a22706f772d3230222c226f70223a226d696e74222c227469636b223a2250455045222c22616d74223a2231303030222c22736f6c7574696f6e223a22504550453a626331706b79306a6d686471683675343061616b6e353376673936387a3533396379383879633261386b78656d6e703832786c76633336736763773777653a303030303030303030303030303030303030303139393431613561653132383937363539383134343239323533333030353762306461393666336465613163353a3236353739313435303131227d6821c153c416cf7a0a7bfeca3887b8d7742e19b7125829738fef977e775c0a6289d19500000000"
}