{
  "txid": "b563ddbe108b4fef3ac6a8f1cc97c6c3938de595a0442b25a902e13fe06a5506",
  "version": 2,
  "locktime": 0,
  "vin": [
    {
      "txid": "af9103491e00122cbc927bae1fe664a38886852c4ed95dd8b33c86171b63ab9a",
      "vout": 1,
      "prevout": {
        "scriptpubkey": "0014945a11fea47e4089a33f2dd41f0c3caf92790814",
        "scriptpubkey_asm": "OP_0 OP_PUSHBYTES_20 945a11fea47e4089a33f2dd41f0c3caf92790814",
        "scriptpubkey_type": "v0_p2wpkh",
        "scriptpubkey_address": "bc1qj3dprl4y0eqgngel9h2p7rpu47f8jzq5whd3ya",
        "value": 180142
      },
      "scriptsig": "",
      "scriptsig_asm": "",
      "witness": [
        "30440220761d70efdb8ecd547779880a08df56731d3e7b4204255174a94ba0ba8b22fb1402204b9b96c7adefb55aecd2ccba85178777b14c1d20e264204f6bf5358935bb5ffd01",
        "03b98d61a17ffc5c37a6b030c4e02d8caab34b58a8a7077682a46b305bbe40f72b"
      ],
      "is_coinbase": false,
      "sequence": 4294967295
    }
  ],
  "vout": [
    {
      "scriptpubkey": "6a2af9b735d3336148df3a20173353ac038cec5271a85dd6df47eb617c048fee1b3fa10b7639251794b9a6e1",
      "scriptpubkey_asm": "OP_RETURN OP_PUSHBYTES_42 f9b735d3336148df3a20173353ac038cec5271a85dd6df47eb617c048fee1b3fa10b7639251794b9a6e1",
      "scriptpubkey_type": "op_return",
      "value": 0
    },
    {
      "scriptpubkey": "0014945a11fea47e4089a33f2dd41f0c3caf92790814",
      "scriptpubkey_asm": "OP_0 OP_PUSHBYTES_20 945a11fea47e4089a33f2dd41f0c3caf92790814",
      "scriptpubkey_type": "v0_p2wpkh",
      "scriptpubkey_address": "bc1qj3dprl4y0eqgngel9h2p7rpu47f8jzq5whd3ya",
      "value": 177790
    }
  ],
  "size": 244,
  "weight": 649,
  "fee": 2352,
  "status": {
    "confirmed": true,
    "block_height": 834460,
    "block_hash": "00000000000000000000484a79b643b2524bbce82e5d8a442013fa5b8905ed98",
    "block_time": 1710307468
  },
  "hex": "020000000001019aab631b17863cb3d85dd94e2c858688a364e61fae7b92bc2c12001e490391af0100000000ffffffff0200000000000000002c6a2af9b735d3336148df3a20173353ac038cec5271a85dd6df47eb617c048fee1b3fa10b7639251794b9a6e17eb6020000000000160014945a11fea47e4089a33f2dd41f0c3caf92790814024730440220761d70efdb8ecd547779880a08df56731d3e7b4204255174a94ba0ba8b22fb1402204b9b96c7adefb55aecd2ccba85178777b14c1d20e264204f6bf5358935bb5ffd012103b98d61a17ffc5c37a6b030c4e02d8caab34b58a8a7077682a46b305bbe40f72b00000000"
}