{
  "txid": "b5704a3d26b8ce38e4af17ca90881fe2b8f6cd59bab9e70d9a9610d388f6cf44",
  "version": 2,
  "locktime": 0,
  "vin": [
    {
      "txid": "4dd3c3736e9e86874040e57300b71edabd5d8251a200e9a815f2e548c3b32a26",
      "vout": 12,
      "prevout": {
        "scriptpubkey": "0014ca49dcb7b051374c416cd5e92890aa953e8f0aef",
        "scriptpubkey_asm": "OP_0 OP_PUSHBYTES_20 ca49dcb7b051374c416cd5e92890aa953e8f0aef",
        "scriptpubkey_type": "v0_p2wpkh",
        "scriptpubkey_address": "bc1qefyaedas2ym5cstv6h5j3y92j5lg7zh0ajfgpr",
        "value": 50016327
      },
      "scriptsig": "",
      "scriptsig_asm": "",
      "witness": [
        "3045022100de148326a2b5fe206a39d27538df45ba8653ff9d384e8c33a8cd2f8aa714d5f2022007958dca5f3368fe0b069276dd246d34bea943efdc7b110a8aabeb6d4bebe51d01",
        "0267eefa08c6632dc97f218a50098d68d9c57598efa16f0589cbb746934218e897"
      ],
      "is_coinbase": false,
      "sequence": 4294967295
    }
  ],
  "vout": [
    {
      "scriptpubkey": "001411384947b65496ac90a401ffc0d0214c78c53fb6",
      "scriptpubkey_asm": "OP_0 OP_PUSHBYTES_20 11384947b65496ac90a401ffc0d0214c78c53fb6",
      "scriptpubkey_type": "v0_p2wpkh",
      "scriptpubkey_address": "bc1qzyuyj3ak2jt2ey9yq8lup5ppf3uv20ak58ekp3",
      "value": 144757
    },
    {
      "scriptpubkey": "0014e0c94133660943fd89762335b7111d3fca49f51c",
      "scriptpubkey_asm": "OP_0 OP_PUSHBYTES_20 e0c94133660943fd89762335b7111d3fca49f51c",
      "scriptpubkey_type": "v0_p2wpkh",
      "scriptpubkey_address": "bc1qury5zvmxp9plmztkyv6mwyga8l9ynagu53lde2",
      "value": 49869320
    }
  ],
  "size": 223,
  "weight": 562,
  "fee": 2250,
  "status": {
    "confirmed": true,
    "block_height": 834464,
    "block_hash": "0000000000000000000177a0869a911a2b65c9bdcd5a8bcb02b68f305bee848e",
    "block_time": 1710308296
  },
  "hex": "02000000000101262ab3c348e5f215a8e900a251825dbdda1eb70073e5404087869e6e73c3d34d0c00000000ffffffff02753502000000000016001411384947b65496ac90a401ffc0d0214c78c53fb608f2f80200000000160014e0c94133660943fd89762335b7111d3fca49f51c02483045022100de148326a2b5fe206a39d27538df45ba8653ff9d384e8c33a8cd2f8aa714d5f2022007958dca5f3368fe0b069276dd246d34bea943efdc7b110a8aabeb6d4bebe51d01210267eefa08c6632dc97f218a50098d68d9c57598efa16f0589cbb746934218e89700000000"
}