{
  "txid": "b58d6ce4b4d10e1cb7dd03d0b305c9e02f723760d916505d4182a1362813a1d1",
  "version": 2,
  "locktime": 0,
  "vin": [
    {
      "txid": "12848a1f84ad552475e874cce291926f292412de23b7537898e98c7370f2e86c",
      "vout": 11,
      "prevout": {
        "scriptpubkey": "5120f23bc1d0ab9326bbd99965a4b37a42b0240fe55e5933fd53f22afec3bb17edd6",
        "scriptpubkey_asm": "OP_PUSHNUM_1 OP_PUSHBYTES_32 f23bc1d0ab9326bbd99965a4b37a42b0240fe55e5933fd53f22afec3bb17edd6",
        "scriptpubkey_type": "v1_p2tr",
        "scriptpubkey_address": "bc1p7gaur59tjvnthkvevkjtx7jzkqjqle27tyel65lj9tlv8wchahtqfh80my",
        "value": 2358
      },
      "scriptsig": "",
      "scriptsig_asm": "",
      "witness": [
        "eb235e6e3d7933570e7f37cb09e88eae0886e75176a5ea00a8fbdbfd1598d892314be7bc8a7aa42b088b17b5b269b13dacdb4a885ee665b1cc8507705861a11f",
        "2036b0476eecef88b45ee4a159fb79b774a616b0063db41ecbccfdcd8cb6201ba6ac0063036f7264010118746578742f706c61696e3b636861727365743d7574662d3800377b2270223a226272632d3230222c226f70223a226d696e74222c227469636b223a22424f424f222c22616d74223a22313030303030227d68",
        "c1507504f881a2548efcb0bd8b5287fd78c473d5bd35b181abdd5c5cd6d10de204"
      ],
      "is_coinbase": false,
      "sequence": 4294967295
    }
  ],
  "vout": [
    {
      "scriptpubkey": "512048d62e6aa4ce9b4b4d760b1dc0c3e46b46d84be76ae456792a664139e7aaa19c",
      "scriptpubkey_asm": "OP_PUSHNUM_1 OP_PUSHBYTES_32 48d62e6aa4ce9b4b4d760b1dc0c3e46b46d84be76ae456792a664139e7aaa19c",
      "scriptpubkey_type": "v1_p2tr",
      "scriptpubkey_address": "bc1pfrtzu64ye6d5kntkpvwupslyddrdsjl8dtj9v7f2veqnnea25xwqu8ycu4",
      "value": 546
    }
  ],
  "size": 322,
  "weight": 604,
  "fee": 1812,
  "status": {
    "confirmed": true,
    "block_height": 834460,
    "block_hash": "00000000000000000000484a79b643b2524bbce82e5d8a442013fa5b8905ed98",
    "block_time": 1710307468
  },
  "hex": "020000000001016ce8f270738ce9987853b723de1224296f9291e2cc74e8752455ad841f8a84120b00000000ffffffff01220200000000000022512048d62e6aa4ce9b4b4d760b1dc0c3e46b46d84be76ae456792a664139e7aaa19c0340eb235e6e3d7933570e7f37cb09e88eae0886e75176a5ea00a8fbdbfd1598d892314be7bc8a7aa42b088b17b5b269b13dacdb4a885ee665b1cc8507705861a11f7d2036b0476eecef88b45ee4a159fb79b774a616b0063db41ecbccfdcd8cb6201ba6ac0063036f7264010118746578742f706c61696e3b636861727365743d7574662d3800377b2270223a226272632d3230222c226f70223a226d696e74222c227469636b223a22424f424f222c22616d74223a22313030303030227d6821c1507504f881a2548efcb0bd8b5287fd78c473d5bd35b181abdd5c5cd6d10de20400000000"
}