{
  "txid": "b5ba4a68fccf0d5cd7e33baeb1a973d353318e534bb55c39f50455bebe7e7222",
  "version": 2,
  "locktime": 0,
  "vin": [
    {
      "txid": "e054c137725b7a5d163dade8f5cd68c0927a2e8b00d920927dab9a7ba934ce5f",
      "vout": 1,
      "prevout": {
        "scriptpubkey": "51201b6456b8a2edf718dba82ebac3098d3fc942a1e7084ee3eecb3a0b333cb4eefa",
        "scriptpubkey_asm": "OP_PUSHNUM_1 OP_PUSHBYTES_32 1b6456b8a2edf718dba82ebac3098d3fc942a1e7084ee3eecb3a0b333cb4eefa",
        "scriptpubkey_type": "v1_p2tr",
        "scriptpubkey_address": "bc1prdj9dw9zahm33kag96avxzvd8ly59g08pp8w8mkt8g9nx095amaqct4nhk",
        "value": 2658
      },
      "scriptsig": "",
      "scriptsig_asm": "",
      "witness": [
        "bc60e2b6374690ea5483f9be507b72d10bf45fe7fe495273c2e5a27501c6585762e1b3f23a375c4fae195385bb450182588fa5ed67b9b7d2743f62be3f1ff9df",
        "20b928a8d973b060a2900b86121718e7b4816760faa74497aaa7f4c5eb08641b06ac0063036f726401011e6170706c69636174696f6e2f6a736f6e3b636861727365743d7574662d38004cbf7b2270223a22706f772d3230222c226f70223a226d696e74222c227469636b223a2250455045222c22616d74223a2231303030222c22736f6c7574696f6e223a22504550453a6263317139736a36303977756e7468646a636d7a746a796379766475616e653071716b78726e773932653a303030303030303030303030303030303030303139393431613561653132383937363539383134343239323533333030353762306461393666336465613163353a3339313731383138363930227d68",
        "c1a0e509a599b6542378e5ac7959d344a1bebc95ec9899fd4ccf1904beefe3f047"
      ],
      "is_coinbase": false,
      "sequence": 4294967295
    }
  ],
  "vout": [
    {
      "scriptpubkey": "00142c25a795dc9aeed963625c898231bcecf2f002c6",
      "scriptpubkey_asm": "OP_0 OP_PUSHBYTES_20 2c25a795dc9aeed963625c898231bcecf2f002c6",
      "scriptpubkey_type": "v0_p2wpkh",
      "scriptpubkey_address": "bc1q9sj609wunthdjcmztjycyvduane0qqkxrnw92e",
      "value": 546
    }
  ],
  "size": 455,
  "weight": 701,
  "fee": 2112,
  "status": {
    "confirmed": true,
    "block_height": 834460,
    "block_hash": "00000000000000000000484a79b643b2524bbce82e5d8a442013fa5b8905ed98",
    "block_time": 1710307468
  },
  "hex": "020000000001015fce34a97b9aab7d9220d9008b2e7a92c068cdf5e8ad3d165d7a5b7237c154e00100000000ffffffff0122020000000000001600142c25a795dc9aeed963625c898231bcecf2f002c60340bc60e2b6374690ea5483f9be507b72d10bf45fe7fe495273c2e5a27501c6585762e1b3f23a375c4fae195385bb450182588fa5ed67b9b7d2743f62be3f1ff9dffd0c0120b928a8d973b060a2900b86121718e7b4816760faa74497aaa7f4c5eb08641b06ac0063036f726401011e6170706c69636174696f6e2f6a736f6e3b636861727365743d7574662d38004cbf7b2270223a22706f772d3230222c226f70223a226d696e74222c227469636b223a2250455045222c22616d74223a2231303030222c22736f6c7574696f6e223a22504550453a6263317139736a36303977756e7468646a636d7a746a796379766475616e653071716b78726e773932653a303030303030303030303030303030303030303139393431613561653132383937363539383134343239323533333030353762306461393666336465613163353a3339313731383138363930227d6821c1a0e509a599b6542378e5ac7959d344a1bebc95ec9899fd4ccf1904beefe3f04700000000"
}