{
  "txid": "b5bbbc2185e790ac3d1e3df6c56287fda5079fd63d154b58e7e5531d064a4ea4",
  "version": 2,
  "locktime": 0,
  "vin": [
    {
      "txid": "92fbab1c8c0333fa5d0dec7a0dcb075f120659acafdcc3ed34382d08564ef427",
      "vout": 1,
      "prevout": {
        "scriptpubkey": "00142d11e19fc68c504f600d4837cd6cff9d15dab700",
        "scriptpubkey_asm": "OP_0 OP_PUSHBYTES_20 2d11e19fc68c504f600d4837cd6cff9d15dab700",
        "scriptpubkey_type": "v0_p2wpkh",
        "scriptpubkey_address": "bc1q95g7r87x33gy7cqdfqmu6m8ln52a4dcq2cdg73",
        "value": 2084318
      },
      "scriptsig": "",
      "scriptsig_asm": "",
      "witness": [
        "3045022100a792f9eb754d0276829485da86cab4415d8b3ba415230747d545fb514420c2a3022043cb39eccd56b047c2a41b26de36ae8fdd4028c7f3f003d15e16ad5df16b791e01",
        "0300af51fb8f6ecb4a3a26b5d0b542e9ec0a660581c6e65c820184bfb052d3422b"
      ],
      "is_coinbase": false,
      "sequence": 2147483648
    }
  ],
  "vout": [
    {
      "scriptpubkey": "00141ee1bf613d84297673702590b1176c1e8ac9a54d",
      "scriptpubkey_asm": "OP_0 OP_PUSHBYTES_20 1ee1bf613d84297673702590b1176c1e8ac9a54d",
      "scriptpubkey_type": "v0_p2wpkh",
      "scriptpubkey_address": "bc1qrmsm7cfass5hvumsykgtz9mvr69vnf2d5y6fpn",
      "value": 1065936
    },
    {
      "scriptpubkey": "00142df81a0545b44f39af421c551255157ba4efa3c4",
      "scriptpubkey_asm": "OP_0 OP_PUSHBYTES_20 2df81a0545b44f39af421c551255157ba4efa3c4",
      "scriptpubkey_type": "v0_p2wpkh",
      "scriptpubkey_address": "bc1q9hup5p29k38nnt6zr323y4g40wjwlg7yg2p7tj",
      "value": 1014002
    }
  ],
  "size": 223,
  "weight": 562,
  "fee": 4380,
  "status": {
    "confirmed": true,
    "block_height": 834638,
    "block_hash": "000000000000000000025f742c626208ac87e0b7d15054abb4a19ca2d735a54e",
    "block_time": 1710405325
  },
  "hex": "0200000000010127f44e56082d3834edc3dcafac5906125f07cb0d7aec0d5dfa33038c1cabfb9201000000000000008002d0431000000000001600141ee1bf613d84297673702590b1176c1e8ac9a54df2780f00000000001600142df81a0545b44f39af421c551255157ba4efa3c402483045022100a792f9eb754d0276829485da86cab4415d8b3ba415230747d545fb514420c2a3022043cb39eccd56b047c2a41b26de36ae8fdd4028c7f3f003d15e16ad5df16b791e01210300af51fb8f6ecb4a3a26b5d0b542e9ec0a660581c6e65c820184bfb052d3422b00000000"
}