{
  "txid": "b5c00d9c573736609f09ff5ad1b68ccdb90f53eae4a43e26f003cceebba47b3b",
  "version": 1,
  "locktime": 0,
  "vin": [
    {
      "txid": "f295799d138f298e51e0f408c18d3961a7b19d4b688a7c555fa49db35b5455f7",
      "vout": 1,
      "prevout": {
        "scriptpubkey": "76a9149f21a07a0c7c3cf65a51f586051395762267cdaf88ac",
        "scriptpubkey_asm": "OP_DUP OP_HASH160 OP_PUSHBYTES_20 9f21a07a0c7c3cf65a51f586051395762267cdaf OP_EQUALVERIFY OP_CHECKSIG",
        "scriptpubkey_type": "p2pkh",
        "scriptpubkey_address": "1FWQiwK27EnGXb6BiBMRLJvunJQZZPMcGd",
        "value": 5061950
      },
      "scriptsig": "4730440220195928487f2b6d5e77440a086403e5266f8e0d6836f85b1b00aeb62628941c1902206fec8dd72672cdc79f64ee0b43ee48fd7bc85502a0607f1d1f8011daab19098301210369e03e2c91f0badec46c9c903d9e9edae67c167b9ef9b550356ee791c9a40896",
      "scriptsig_asm": "OP_PUSHBYTES_71 30440220195928487f2b6d5e77440a086403e5266f8e0d6836f85b1b00aeb62628941c1902206fec8dd72672cdc79f64ee0b43ee48fd7bc85502a0607f1d1f8011daab19098301 OP_PUSHBYTES_33 0369e03e2c91f0badec46c9c903d9e9edae67c167b9ef9b550356ee791c9a40896",
      "is_coinbase": false,
      "sequence": 4294967295
    }
  ],
  "vout": [
    {
      "scriptpubkey": "76a9149f21a07a0c7c3cf65a51f586051395762267cdaf88ac",
      "scriptpubkey_asm": "OP_DUP OP_HASH160 OP_PUSHBYTES_20 9f21a07a0c7c3cf65a51f586051395762267cdaf OP_EQUALVERIFY OP_CHECKSIG",
      "scriptpubkey_type": "p2pkh",
      "scriptpubkey_address": "1FWQiwK27EnGXb6BiBMRLJvunJQZZPMcGd",
      "value": 4073924
    },
    {
      "scriptpubkey": "76a914fb977798d28f567b76a4f10b1395a6f20a271e5d88ac",
      "scriptpubkey_asm": "OP_DUP OP_HASH160 OP_PUSHBYTES_20 fb977798d28f567b76a4f10b1395a6f20a271e5d OP_EQUALVERIFY OP_CHECKSIG",
      "scriptpubkey_type": "p2pkh",
      "scriptpubkey_address": "1PwJ4GrNt2wXy2inyVwdvsT6hEnUzWbyzJ",
      "value": 982026
    }
  ],
  "size": 225,
  "weight": 900,
  "fee": 6000,
  "status": {
    "confirmed": true,
    "block_height": 834638,
    "block_hash": "000000000000000000025f742c626208ac87e0b7d15054abb4a19ca2d735a54e",
    "block_time": 1710405325
  },
  "hex": "0100000001f755545bb39da45f557c8a684b9db1a761398dc108f4e0518e298f139d7995f2010000006a4730440220195928487f2b6d5e77440a086403e5266f8e0d6836f85b1b00aeb62628941c1902206fec8dd72672cdc79f64ee0b43ee48fd7bc85502a0607f1d1f8011daab19098301210369e03e2c91f0badec46c9c903d9e9edae67c167b9ef9b550356ee791c9a40896ffffffff02c4293e00000000001976a9149f21a07a0c7c3cf65a51f586051395762267cdaf88ac0afc0e00000000001976a914fb977798d28f567b76a4f10b1395a6f20a271e5d88ac00000000"
}