{
  "txid": "b5d3c7844be6ba6e3743404617074e8f36022d1cad3984a19f3f86bfa5f5873b",
  "version": 1,
  "locktime": 0,
  "vin": [
    {
      "txid": "f5eb791e7ce8eefae5ca6e67ca592dbc7271970c58de6f7db8c60325186fa7a4",
      "vout": 1,
      "prevout": {
        "scriptpubkey": "76a9143f41884dda2604ddb09fe015da88d6345b91369b88ac",
        "scriptpubkey_asm": "OP_DUP OP_HASH160 OP_PUSHBYTES_20 3f41884dda2604ddb09fe015da88d6345b91369b OP_EQUALVERIFY OP_CHECKSIG",
        "scriptpubkey_type": "p2pkh",
        "scriptpubkey_address": "16mU5MpSAXMSF7gnmYxEzBY5vWyQeQaS43",
        "value": 25904853
      },
      "scriptsig": "483045022100b52d7384e362ab391407e4799a88daa50b0af0221a6fa4bcc45609eda7f7be82022031eb14e7a36061764e1b53e54bc0f7a0af4ff1707320e10cb0e1bfee1e93a73201210278f837d426608340ed98f6502f5b93569391b2fe6a6f0a8e1bafe7612db6b47d",
      "scriptsig_asm": "OP_PUSHBYTES_72 3045022100b52d7384e362ab391407e4799a88daa50b0af0221a6fa4bcc45609eda7f7be82022031eb14e7a36061764e1b53e54bc0f7a0af4ff1707320e10cb0e1bfee1e93a73201 OP_PUSHBYTES_33 0278f837d426608340ed98f6502f5b93569391b2fe6a6f0a8e1bafe7612db6b47d",
      "is_coinbase": false,
      "sequence": 4294967295
    }
  ],
  "vout": [
    {
      "scriptpubkey": "76a9141c15331a4393e4f445cd5a7f6e5fc4c6f2b63fcf88ac",
      "scriptpubkey_asm": "OP_DUP OP_HASH160 OP_PUSHBYTES_20 1c15331a4393e4f445cd5a7f6e5fc4c6f2b63fcf OP_EQUALVERIFY OP_CHECKSIG",
      "scriptpubkey_type": "p2pkh",
      "scriptpubkey_address": "13ZVKM76F8PpRGdRuHG7VBickns3AFpBLH",
      "value": 1000000
    },
    {
      "scriptpubkey": "76a9143f41884dda2604ddb09fe015da88d6345b91369b88ac",
      "scriptpubkey_asm": "OP_DUP OP_HASH160 OP_PUSHBYTES_20 3f41884dda2604ddb09fe015da88d6345b91369b OP_EQUALVERIFY OP_CHECKSIG",
      "scriptpubkey_type": "p2pkh",
      "scriptpubkey_address": "16mU5MpSAXMSF7gnmYxEzBY5vWyQeQaS43",
      "value": 24893012
    }
  ],
  "size": 226,
  "weight": 904,
  "fee": 11841,
  "status": {
    "confirmed": true,
    "block_height": 834638,
    "block_hash": "000000000000000000025f742c626208ac87e0b7d15054abb4a19ca2d735a54e",
    "block_time": 1710405325
  },
  "hex": "0100000001a4a76f182503c6b87d6fde580c977172bc2d59ca676ecae5faeee87c1e79ebf5010000006b483045022100b52d7384e362ab391407e4799a88daa50b0af0221a6fa4bcc45609eda7f7be82022031eb14e7a36061764e1b53e54bc0f7a0af4ff1707320e10cb0e1bfee1e93a73201210278f837d426608340ed98f6502f5b93569391b2fe6a6f0a8e1bafe7612db6b47dffffffff0240420f00000000001976a9141c15331a4393e4f445cd5a7f6e5fc4c6f2b63fcf88ac54d67b01000000001976a9143f41884dda2604ddb09fe015da88d6345b91369b88ac00000000"
}