{
  "txid": "b5db1b8b002e24497e316afc1d3bae038ec0f01e27858724fd80ead5b211f4a7",
  "version": 2,
  "locktime": 0,
  "vin": [
    {
      "txid": "44c580b2c5e6d515d612c75fc38c85463ed307e6e15c85a7dece61630ab470ab",
      "vout": 0,
      "prevout": {
        "scriptpubkey": "5120a2f473612cab68b8d61984253428afa6d238a65e35f1a458dd470257e0457516",
        "scriptpubkey_asm": "OP_PUSHNUM_1 OP_PUSHBYTES_32 a2f473612cab68b8d61984253428afa6d238a65e35f1a458dd470257e0457516",
        "scriptpubkey_type": "v1_p2tr",
        "scriptpubkey_address": "bc1p5t68xcfv4d5t34sessjng2905mfr3fj7xhc6gkxagup90cz9w5tqnzzwqw",
        "value": 600
      },
      "scriptsig": "",
      "scriptsig_asm": "",
      "witness": [
        "8671ac29a2b1602cbbee5580d0a875af827810de33ba5f768b1f39bf9b1be805be84d01074073d2dd49888c68ed10c3536435f7d9ed7f0bcf5986fc3e79849cd"
      ],
      "is_coinbase": false,
      "sequence": 4294967295
    },
    {
      "txid": "44c580b2c5e6d515d612c75fc38c85463ed307e6e15c85a7dece61630ab470ab",
      "vout": 1,
      "prevout": {
        "scriptpubkey": "5120a2f473612cab68b8d61984253428afa6d238a65e35f1a458dd470257e0457516",
        "scriptpubkey_asm": "OP_PUSHNUM_1 OP_PUSHBYTES_32 a2f473612cab68b8d61984253428afa6d238a65e35f1a458dd470257e0457516",
        "scriptpubkey_type": "v1_p2tr",
        "scriptpubkey_address": "bc1p5t68xcfv4d5t34sessjng2905mfr3fj7xhc6gkxagup90cz9w5tqnzzwqw",
        "value": 600
      },
      "scriptsig": "",
      "scriptsig_asm": "",
      "witness": [
        "85b26160d296310bb96812b5b3887c2206ef03d456e8a48976b99760e46aecd3750b2e039945624169f402fb76e472b662530ae7a18474b5f058e4730232ba11"
      ],
      "is_coinbase": false,
      "sequence": 4294967295
    },
    {
      "txid": "74b179c4b617e3879689bb481a2e2768d9e64728f1eac1d92173c0965c8a94f0",
      "vout": 0,
      "prevout": {
        "scriptpubkey": "5120de4dea1ca12c0b88a6e93755220f4d54d00aec725cf9e1c05bca32d2f1483f9e",
        "scriptpubkey_asm": "OP_PUSHNUM_1 OP_PUSHBYTES_32 de4dea1ca12c0b88a6e93755220f4d54d00aec725cf9e1c05bca32d2f1483f9e",
        "scriptpubkey_type": "v1_p2tr",
        "scriptpubkey_address": "bc1pmex7589p9s9c3fhfxa2jyr6d2ngq4mrjtnu7rszmeged9u2g870q8uhfdd",
        "value": 330
      },
      "scriptsig": "",
      "scriptsig_asm": "",
      "witness": [
        "d7546e5e7cdf493e03f5842fc583bf6891318f3468ab7eb396aac07fcf2c66716797d4ba3d79dcc13e17d22e148b68340269d91e6f78985025c837e526055b2083"
      ],
      "is_coinbase": false,
      "sequence": 4294967295
    },
    {
      "txid": "44c580b2c5e6d515d612c75fc38c85463ed307e6e15c85a7dece61630ab470ab",
      "vout": 2,
      "prevout": {
        "scriptpubkey": "5120a2f473612cab68b8d61984253428afa6d238a65e35f1a458dd470257e0457516",
        "scriptpubkey_asm": "OP_PUSHNUM_1 OP_PUSHBYTES_32 a2f473612cab68b8d61984253428afa6d238a65e35f1a458dd470257e0457516",
        "scriptpubkey_type": "v1_p2tr",
        "scriptpubkey_address": "bc1p5t68xcfv4d5t34sessjng2905mfr3fj7xhc6gkxagup90cz9w5tqnzzwqw",
        "value": 462473
      },
      "scriptsig": "",
      "scriptsig_asm": "",
      "witness": [
        "7eb134c8f67d4afdc8f7f02f8b4ece59c57139362999e0cfcd3e9ac249f3caf4946229e043f1dc46e1baf5ae83785758f86be55291205ac2098104e2ed2c1525"
      ],
      "is_coinbase": false,
      "sequence": 4294967295
    }
  ],
  "vout": [
    {
      "scriptpubkey": "5120a2f473612cab68b8d61984253428afa6d238a65e35f1a458dd470257e0457516",
      "scriptpubkey_asm": "OP_PUSHNUM_1 OP_PUSHBYTES_32 a2f473612cab68b8d61984253428afa6d238a65e35f1a458dd470257e0457516",
      "scriptpubkey_type": "v1_p2tr",
      "scriptpubkey_address": "bc1p5t68xcfv4d5t34sessjng2905mfr3fj7xhc6gkxagup90cz9w5tqnzzwqw",
      "value": 1200
    },
    {
      "scriptpubkey": "5120a2f473612cab68b8d61984253428afa6d238a65e35f1a458dd470257e0457516",
      "scriptpubkey_asm": "OP_PUSHNUM_1 OP_PUSHBYTES_32 a2f473612cab68b8d61984253428afa6d238a65e35f1a458dd470257e0457516",
      "scriptpubkey_type": "v1_p2tr",
      "scriptpubkey_address": "bc1p5t68xcfv4d5t34sessjng2905mfr3fj7xhc6gkxagup90cz9w5tqnzzwqw",
      "value": 546
    },
    {
      "scriptpubkey": "5120de4dea1ca12c0b88a6e93755220f4d54d00aec725cf9e1c05bca32d2f1483f9e",
      "scriptpubkey_asm": "OP_PUSHNUM_1 OP_PUSHBYTES_32 de4dea1ca12c0b88a6e93755220f4d54d00aec725cf9e1c05bca32d2f1483f9e",
      "scriptpubkey_type": "v1_p2tr",
      "scriptpubkey_address": "bc1pmex7589p9s9c3fhfxa2jyr6d2ngq4mrjtnu7rszmeged9u2g870q8uhfdd",
      "value": 408000
    },
    {
      "scriptpubkey": "5120a2f473612cab68b8d61984253428afa6d238a65e35f1a458dd470257e0457516",
      "scriptpubkey_asm": "OP_PUSHNUM_1 OP_PUSHBYTES_32 a2f473612cab68b8d61984253428afa6d238a65e35f1a458dd470257e0457516",
      "scriptpubkey_type": "v1_p2tr",
      "scriptpubkey_address": "bc1p5t68xcfv4d5t34sessjng2905mfr3fj7xhc6gkxagup90cz9w5tqnzzwqw",
      "value": 600
    },
    {
      "scriptpubkey": "5120a2f473612cab68b8d61984253428afa6d238a65e35f1a458dd470257e0457516",
      "scriptpubkey_asm": "OP_PUSHNUM_1 OP_PUSHBYTES_32 a2f473612cab68b8d61984253428afa6d238a65e35f1a458dd470257e0457516",
      "scriptpubkey_type": "v1_p2tr",
      "scriptpubkey_address": "bc1p5t68xcfv4d5t34sessjng2905mfr3fj7xhc6gkxagup90cz9w5tqnzzwqw",
      "value": 600
    },
    {
      "scriptpubkey": "5120a2f473612cab68b8d61984253428afa6d238a65e35f1a458dd470257e0457516",
      "scriptpubkey_asm": "OP_PUSHNUM_1 OP_PUSHBYTES_32 a2f473612cab68b8d61984253428afa6d238a65e35f1a458dd470257e0457516",
      "scriptpubkey_type": "v1_p2tr",
      "scriptpubkey_address": "bc1p5t68xcfv4d5t34sessjng2905mfr3fj7xhc6gkxagup90cz9w5tqnzzwqw",
      "value": 44291
    }
  ],
  "size": 699,
  "weight": 1995,
  "fee": 8766,
  "status": {
    "confirmed": true,
    "block_height": 834638,
    "block_hash": "000000000000000000025f742c626208ac87e0b7d15054abb4a19ca2d735a54e",
    "block_time": 1710405325
  },
  "hex": "02000000000104ab70b40a6361cedea7855ce1e607d33e46858cc35fc712d615d5e6c5b280c5440000000000ffffffffab70b40a6361cedea7855ce1e607d33e46858cc35fc712d615d5e6c5b280c5440100000000fffffffff0948a5c96c07321d9c1eaf12847e6d968272e1a48bb899687e317b6c479b1740000000000ffffffffab70b40a6361cedea7855ce1e607d33e46858cc35fc712d615d5e6c5b280c5440200000000ffffffff06b004000000000000225120a2f473612cab68b8d61984253428afa6d238a65e35f1a458dd470257e04575162202000000000000225120a2f473612cab68b8d61984253428afa6d238a65e35f1a458dd470257e0457516c039060000000000225120de4dea1ca12c0b88a6e93755220f4d54d00aec725cf9e1c05bca32d2f1483f9e5802000000000000225120a2f473612cab68b8d61984253428afa6d238a65e35f1a458dd470257e04575165802000000000000225120a2f473612cab68b8d61984253428afa6d238a65e35f1a458dd470257e045751603ad000000000000225120a2f473612cab68b8d61984253428afa6d238a65e35f1a458dd470257e045751601408671ac29a2b1602cbbee5580d0a875af827810de33ba5f768b1f39bf9b1be805be84d01074073d2dd49888c68ed10c3536435f7d9ed7f0bcf5986fc3e79849cd014085b26160d296310bb96812b5b3887c2206ef03d456e8a48976b99760e46aecd3750b2e039945624169f402fb76e472b662530ae7a18474b5f058e4730232ba110141d7546e5e7cdf493e03f5842fc583bf6891318f3468ab7eb396aac07fcf2c66716797d4ba3d79dcc13e17d22e148b68340269d91e6f78985025c837e526055b208301407eb134c8f67d4afdc8f7f02f8b4ece59c57139362999e0cfcd3e9ac249f3caf4946229e043f1dc46e1baf5ae83785758f86be55291205ac2098104e2ed2c152500000000"
}