{
  "txid": "b5ea273032ae34d694c112ad921c2b8638c38a1c7903585b82b604eec4a48314",
  "version": 2,
  "locktime": 0,
  "vin": [
    {
      "txid": "490f512c5565bdd96518bbeadffd543d07db2b9c95a95f378d3f82736979d986",
      "vout": 5,
      "prevout": {
        "scriptpubkey": "001491895961a4888dc75f67e0e1495e73ddfb677d3a",
        "scriptpubkey_asm": "OP_0 OP_PUSHBYTES_20 91895961a4888dc75f67e0e1495e73ddfb677d3a",
        "scriptpubkey_type": "v0_p2wpkh",
        "scriptpubkey_address": "bc1qjxy4jcdy3zxuwhm8urs5jhnnmhakwlf63ete9l",
        "value": 600
      },
      "scriptsig": "",
      "scriptsig_asm": "",
      "witness": [
        "3044022053a07dbf0438234f3c8f795978992fb5b19d4fc1b74e3c1df5eb7726adace08602206110552414a756d03f75f03bbc87cb12415a8f3b7faac9db9ff637e2861abe2601",
        "035d4ac251ba6d32f9df7e7e8cb265e0c9175775357663b64cbe838177505bc230"
      ],
      "is_coinbase": false,
      "sequence": 4294967295
    },
    {
      "txid": "adc0825de543d22c47f1f7f59b0033ee27decbd11b745ed849d0e1cf01d1982a",
      "vout": 4,
      "prevout": {
        "scriptpubkey": "001491895961a4888dc75f67e0e1495e73ddfb677d3a",
        "scriptpubkey_asm": "OP_0 OP_PUSHBYTES_20 91895961a4888dc75f67e0e1495e73ddfb677d3a",
        "scriptpubkey_type": "v0_p2wpkh",
        "scriptpubkey_address": "bc1qjxy4jcdy3zxuwhm8urs5jhnnmhakwlf63ete9l",
        "value": 600
      },
      "scriptsig": "",
      "scriptsig_asm": "",
      "witness": [
        "3045022100bce9d3aa959ac9927b7b60cf910433fecd0d0efb06ea1451bb69e2fc6d65fa6b022051261836169eabd9096c9256937a8dad41749bbb6b6e20cd5a19c757b23206e901",
        "035d4ac251ba6d32f9df7e7e8cb265e0c9175775357663b64cbe838177505bc230"
      ],
      "is_coinbase": false,
      "sequence": 4294967295
    },
    {
      "txid": "5c01fa8de07eea1c1d7291738a95bea8efae6cb5cbcb9a5d2bc359fe0742cc91",
      "vout": 2,
      "prevout": {
        "scriptpubkey": "5120042adc36d28549a8069af9de377e6a8fa66ffefc22dd1cb5b64cdbc7c9c07545",
        "scriptpubkey_asm": "OP_PUSHNUM_1 OP_PUSHBYTES_32 042adc36d28549a8069af9de377e6a8fa66ffefc22dd1cb5b64cdbc7c9c07545",
        "scriptpubkey_type": "v1_p2tr",
        "scriptpubkey_address": "bc1pqs4dcdkjs4y6sp56l80rwln237nxllhuytw3eddkfndu0jwqw4zsa3l9mj",
        "value": 546
      },
      "scriptsig": "",
      "scriptsig_asm": "",
      "witness": [
        "2678feac8d8e117edfcc94179df3a4c9784a2e30daf0eb5a2da8bcbc9701f1b371281509b7f80cef6b2a69523744039a2521db3dc0955a981a7386b761ff9ae683"
      ],
      "is_coinbase": false,
      "sequence": 4294967295
    },
    {
      "txid": "fdb5a9059d9988ccc530fbfa7a5e72ad3fa2fbf1a694d2228978752259d58d9c",
      "vout": 10,
      "prevout": {
        "scriptpubkey": "001491895961a4888dc75f67e0e1495e73ddfb677d3a",
        "scriptpubkey_asm": "OP_0 OP_PUSHBYTES_20 91895961a4888dc75f67e0e1495e73ddfb677d3a",
        "scriptpubkey_type": "v0_p2wpkh",
        "scriptpubkey_address": "bc1qjxy4jcdy3zxuwhm8urs5jhnnmhakwlf63ete9l",
        "value": 166000
      },
      "scriptsig": "",
      "scriptsig_asm": "",
      "witness": [
        "3045022100beadf97f5f6c9bc6d5b1fe15834f2315c753fb99d54d45be1265dcd10054b19f02207e366193b4482a95d079b5ac37ef514ccb06db62e07d5d43fc27754dd5c0def301",
        "035d4ac251ba6d32f9df7e7e8cb265e0c9175775357663b64cbe838177505bc230"
      ],
      "is_coinbase": false,
      "sequence": 4294967295
    }
  ],
  "vout": [
    {
      "scriptpubkey": "001491895961a4888dc75f67e0e1495e73ddfb677d3a",
      "scriptpubkey_asm": "OP_0 OP_PUSHBYTES_20 91895961a4888dc75f67e0e1495e73ddfb677d3a",
      "scriptpubkey_type": "v0_p2wpkh",
      "scriptpubkey_address": "bc1qjxy4jcdy3zxuwhm8urs5jhnnmhakwlf63ete9l",
      "value": 1200
    },
    {
      "scriptpubkey": "512077a02d9df2f713869098a90b818cf6f13f5494246db1e0e39ac916362d88186b",
      "scriptpubkey_asm": "OP_PUSHNUM_1 OP_PUSHBYTES_32 77a02d9df2f713869098a90b818cf6f13f5494246db1e0e39ac916362d88186b",
      "scriptpubkey_type": "v1_p2tr",
      "scriptpubkey_address": "bc1pw7szm80j7ufcdyyc4y9crr8k7yl4f9pydkc7pcu6eytrvtvgrp4sa5t3pk",
      "value": 546
    },
    {
      "scriptpubkey": "a914dd5b1dcb5748ef8e79a8ea2f6677627b38aeb6eb87",
      "scriptpubkey_asm": "OP_HASH160 OP_PUSHBYTES_20 dd5b1dcb5748ef8e79a8ea2f6677627b38aeb6eb OP_EQUAL",
      "scriptpubkey_type": "p2sh",
      "scriptpubkey_address": "3MsSQpG1dG1BM12PJcwkJv6gYg9RYuDjkg",
      "value": 68206
    },
    {
      "scriptpubkey": "a914ea6b832a05c6ca578baa3836f3f25553d41068a587",
      "scriptpubkey_asm": "OP_HASH160 OP_PUSHBYTES_20 ea6b832a05c6ca578baa3836f3f25553d41068a5 OP_EQUAL",
      "scriptpubkey_type": "p2sh",
      "scriptpubkey_address": "3P4WqXDbSLRhzo2H6MT6YFbvBKBDPLbVtQ",
      "value": 1700
    },
    {
      "scriptpubkey": "001491895961a4888dc75f67e0e1495e73ddfb677d3a",
      "scriptpubkey_asm": "OP_0 OP_PUSHBYTES_20 91895961a4888dc75f67e0e1495e73ddfb677d3a",
      "scriptpubkey_type": "v0_p2wpkh",
      "scriptpubkey_address": "bc1qjxy4jcdy3zxuwhm8urs5jhnnmhakwlf63ete9l",
      "value": 600
    },
    {
      "scriptpubkey": "001491895961a4888dc75f67e0e1495e73ddfb677d3a",
      "scriptpubkey_asm": "OP_0 OP_PUSHBYTES_20 91895961a4888dc75f67e0e1495e73ddfb677d3a",
      "scriptpubkey_type": "v0_p2wpkh",
      "scriptpubkey_address": "bc1qjxy4jcdy3zxuwhm8urs5jhnnmhakwlf63ete9l",
      "value": 600
    },
    {
      "scriptpubkey": "001491895961a4888dc75f67e0e1495e73ddfb677d3a",
      "scriptpubkey_asm": "OP_0 OP_PUSHBYTES_20 91895961a4888dc75f67e0e1495e73ddfb677d3a",
      "scriptpubkey_type": "v0_p2wpkh",
      "scriptpubkey_address": "bc1qjxy4jcdy3zxuwhm8urs5jhnnmhakwlf63ete9l",
      "value": 86326
    }
  ],
  "size": 797,
  "weight": 2012,
  "fee": 8568,
  "status": {
    "confirmed": true,
    "block_height": 834552,
    "block_hash": "00000000000000000001dd0468a70c94f619251d286585cff57aeb4bd9ede330",
    "block_time": 1710355598
  },
  "hex": "0200000000010486d9796973823f8d375fa9959c2bdb073d54fddfeabb1865d9bd65552c510f490500000000ffffffff2a98d101cfe1d049d85e741bd1cbde27ee33009bf5f7f1472cd243e55d82c0ad0400000000ffffffff91cc4207fe59c32b5d9acbcbb56caeefa8be958a7391721d1cea7ee08dfa015c0200000000ffffffff9c8dd5592275788922d294a6f1fba23fad725e7afafb30c5cc88999d05a9b5fd0a00000000ffffffff07b00400000000000016001491895961a4888dc75f67e0e1495e73ddfb677d3a220200000000000022512077a02d9df2f713869098a90b818cf6f13f5494246db1e0e39ac916362d88186b6e0a01000000000017a914dd5b1dcb5748ef8e79a8ea2f6677627b38aeb6eb87a40600000000000017a914ea6b832a05c6ca578baa3836f3f25553d41068a587580200000000000016001491895961a4888dc75f67e0e1495e73ddfb677d3a580200000000000016001491895961a4888dc75f67e0e1495e73ddfb677d3a365101000000000016001491895961a4888dc75f67e0e1495e73ddfb677d3a02473044022053a07dbf0438234f3c8f795978992fb5b19d4fc1b74e3c1df5eb7726adace08602206110552414a756d03f75f03bbc87cb12415a8f3b7faac9db9ff637e2861abe260121035d4ac251ba6d32f9df7e7e8cb265e0c9175775357663b64cbe838177505bc23002483045022100bce9d3aa959ac9927b7b60cf910433fecd0d0efb06ea1451bb69e2fc6d65fa6b022051261836169eabd9096c9256937a8dad41749bbb6b6e20cd5a19c757b23206e90121035d4ac251ba6d32f9df7e7e8cb265e0c9175775357663b64cbe838177505bc23001412678feac8d8e117edfcc94179df3a4c9784a2e30daf0eb5a2da8bcbc9701f1b371281509b7f80cef6b2a69523744039a2521db3dc0955a981a7386b761ff9ae68302483045022100beadf97f5f6c9bc6d5b1fe15834f2315c753fb99d54d45be1265dcd10054b19f02207e366193b4482a95d079b5ac37ef514ccb06db62e07d5d43fc27754dd5c0def30121035d4ac251ba6d32f9df7e7e8cb265e0c9175775357663b64cbe838177505bc23000000000"
}