{
  "txid": "b5f63504bdf241c4cade256ec7b50e2af600271e733540d696f0815861851dc3",
  "version": 2,
  "locktime": 0,
  "vin": [
    {
      "txid": "42c08760300a3bc2b9a790f65831e3024da91ae045f6b46e47ad8987a8a3eb53",
      "vout": 0,
      "prevout": {
        "scriptpubkey": "5120fad47acd788af24d23dbd32bd3c65f102735cb161fed3f77e2e0605b22477635",
        "scriptpubkey_asm": "OP_PUSHNUM_1 OP_PUSHBYTES_32 fad47acd788af24d23dbd32bd3c65f102735cb161fed3f77e2e0605b22477635",
        "scriptpubkey_type": "v1_p2tr",
        "scriptpubkey_address": "bc1plt284ntc3tey6g7m6v4a83jlzqnntjckrlkn7alzups9kgj8wc6snk9u26",
        "value": 20107
      },
      "scriptsig": "",
      "scriptsig_asm": "",
      "witness": [
        "da3284133d2c602d7ced208552e72527c0465bf7b35ff9221f6842e3090b9d2e236e29ead44ea6abfd69bbc23b0285878731e1e66885140cf24c1eef019c52d7",
        "20f2d00e1cce0b839d2e197679cac7a15152ec244338032c7767f72c1332d49a65ac0063036f7264010109696d6167652f706e67004d080289504e470d0a1a0a0000000d4948445200000118000001180803000000b05019be000000017352474200aece1ce90000000467414d410000b18f0bfc610500000147504c5445ff7b00e58928ffc996fea654fffeffffb169fdd4acffe8d1e06c00d16500ce9554d2cfd1e1dcdef3b4645328000901001209000f10112f2e2fedecef755e5b000000625869833b00670000690000952c2cfe9696ff2800ff0000f67907c76000ae5400c05c00c01e00c000002d16021e0f00ee730574380018181808032a130a4b391a465e2c380d04531006541d0e7a261495582c72200f954e38926d61b86d5fb836259c190d6520136a5d4fac926e979d96b9f6f3f8535253e0dde00a0a0a968d944e4d4e483758fe810bf0c07aecd198edd096eece94f7e5caa1907477674a927b76dcc3b88f5114f2d196f1bd78e4c68bc7954fbb9b60483759c8a86dc7a86ebb9a5fe9851f4f2f4e3123567c5045726c9a211860190c6fff84123a3272d0b6b5c4c1d5b7b4cbc9c5e5180f5a2a18981f1761d6d3e58783aa7f79a39289ca5e578c1e155ea21418e3000000097048597300000ec300000ec301c76fa864000004b049444154785eeddded575455184071880814047909c86c44c391d2a150c0b44040cb0ad2d44a2b42adecfdffff5c6bf53050dd7de7b438309761ffbe7ac6739fbd5c8b7b5cc3bd5d89b6fb5e4eb3f06e56efcc85c6d3b1d8615ffab663a04d08025c0c030c030c030c030c030c030c030c036a3717d22cc54499ec86f9e3f71cc66b31502ef5f9ab71a987ab1966ae91c5e57a0c944b7d3eaef490ed86c9c230c030c030c030c030c030c030e020c2788357a8b6fa5b9a6b315126cd308dad5f7fc96035f791a00287c80f62877df1740d0c030c030c030c030c033a314c457f5c0ffc9c663126ca644f98e7b1c3be6ce60e539f5f4af32226caa419666e6e2b839f9e74e021324e3bfbe3e9ba9861806180618061406786891f2cfb7200615e248a8932d913e6c71cb2dfc76c3ffb21cd8d9828936698c6d3ef9f67f0ec760c948b6725e0e91a18061806180618061806180618061886f4f4a699f82eabebd165aeb1f56d99d5d8be959e18e7f05d69c424b9c5f1185c89edabebc0c294320c300c300c300c300c381261f28ac95b686398c789be79b49ed3d731790bed0b537bf0f0ab240ff31a4ffb27d3d6306d6118601860186018601860186018601860186018601860186018601860186018601860186018601860186018601860186018601860186018901ae649779ac7314f36550fb31eeb5b7990fba966860186018601860186018601860186017f8589efab1eaeea8739f9e517ed50f930b7efdf6d8b0dc314ba679862860186018601860186018601c9611ec5e0ad1cbb30cb9fa7b99ffb716f550f3371f7a324778e5f9824860186018601860186010710e6cebd32b12f88452016154d0802aa7e98da679f96d8d8fcb8c4e6462c2bf449ac2ab65af530f599574bccaec4d3d40a0d8cc4b242cbb1aad8fb86296618601860186018601860186018708cc3acc5aa62e961e2bfe8ca7d7828616697774c943e84b830cc687c746d3556154b0db37e2a4df6e7f91685594e7ce9466198f21e4da961daf695f9c23071f1ad1806180618061806180618061cbb306b832b3b4aef688ac3c42757ca5f507124c3dc9add31faff8f0423f1d1d9895855ec4886d9d5fe43a4618a190618061806180618065436cc60cc51a84598d29bc3ca87e99a2ed5d37473f1df166ebc77bdc4d2e2422c2cb070adf26152cd5f8dd7d2e5d17cb95d39c300c300c300c300c300c300c300c380a3102626cae48887a94f5e9afcdba5cb6f67f556a2d9e6054cd6e3a2aaa0ff629c082be0627f5c54151806180618061806180618061806180618061806180618061806180618061806f4cf0c57c64c95c2d4ce4d9f0f17de6c8b0bb1fdf9e973b99f5b96c9d937dae26c6c5f5d8601860186018601860186018601860186019353af653475e6f50267feb3c7d4646c5f5d4371c8cda4e81703c746e30ff7188aedabcb30c030c030c030c030c030c030c030c030c030c030c030c030c030c030c0306068f87446c3e31163afb1d1911db1ecf470f5c3f49fc8ea54c4f887c1811d2763d9892a7df7e350f4460bd01bcb8e1fc300c300c300c300c300c300c300c300c34c56801661fa5e29d31d7f49276a11a65cf6f77954886180618061806180618061806140f74bfbd0c9377892244992244992244992244992244992244992a4ced4d5f527c75de14c7a8f71ef0000000049454e44ae426082680063036f726401011e6170706c69636174696f6e2f6a736f6e3b636861727365743d7574662d38004d67017b2270223a22766f7264222c2276223a312c227479223a22696e7363222c22636f6c223a2261643262353365623665333264663466633139386133626262306662663638666637336432666432323832323163313136373630306533316337613163343836222c22696964223a22557073696465646f776e204e6f64654d6f6e6b6573222c227075626c223a2231455337623370636a527a4667796969714c7278484b546e43686535364c4a485937222c226e6f6e6365223a37312c226d696e746572223a2262633170736533336e6168776871726b3578646a38797978746c383675777a6473393037616d756a7877336b34333770356a676a7739747174646c75396b222c22736967223a224734615656327244375749565a74636566734756756550724573674a626874385a78534a4b6b664f347a72684c52557663505273754c5a54583375744e71382f4b4861514b4d5869597752462b6e30456a3756556b67633d227d68",
        "c0f2d00e1cce0b839d2e197679cac7a15152ec244338032c7767f72c1332d49a65675a92934efa5e4869b2432a3e00abfc6819367af43949c2edc693b32d23ac05"
      ],
      "is_coinbase": false,
      "sequence": 4294967293
    }
  ],
  "vout": [
    {
      "scriptpubkey": "5120866319f6eeb8076a19b2390865fcfae384d815feeef9233a36ac7c1a49127156",
      "scriptpubkey_asm": "OP_PUSHNUM_1 OP_PUSHBYTES_32 866319f6eeb8076a19b2390865fcfae384d815feeef9233a36ac7c1a49127156",
      "scriptpubkey_type": "v1_p2tr",
      "scriptpubkey_address": "bc1pse33nahwhqrk5xdj8yyxtl86uwzds907amujxw3k437p5jgjw9tqtdlu9k",
      "value": 1000
    },
    {
      "scriptpubkey": "5120f62171bf126320eed697da59179bb0a31c00c0460a1a69c591c3c0d0f8f5038f",
      "scriptpubkey_asm": "OP_PUSHNUM_1 OP_PUSHBYTES_32 f62171bf126320eed697da59179bb0a31c00c0460a1a69c591c3c0d0f8f5038f",
      "scriptpubkey_type": "v1_p2tr",
      "scriptpubkey_address": "bc1p7cshr0cjvvswa45hmfv30xas5vwqpszxpgdxn3v3c0qdp784qw8szjtge2",
      "value": 7707
    },
    {
      "scriptpubkey": "51200705a5767db892e98125775049b1a13dd9ecdc8aea0df413cabbee683e871012",
      "scriptpubkey_asm": "OP_PUSHNUM_1 OP_PUSHBYTES_32 0705a5767db892e98125775049b1a13dd9ecdc8aea0df413cabbee683e871012",
      "scriptpubkey_type": "v1_p2tr",
      "scriptpubkey_address": "bc1pquz62anahzfwnqf9wagynvdp8hv7ehy2agxlgy72h0hxs058zqfqk8ksyq",
      "value": 3227
    }
  ],
  "size": 2431,
  "weight": 2971,
  "fee": 8173,
  "status": {
    "confirmed": true,
    "block_height": 834464,
    "block_hash": "0000000000000000000177a0869a911a2b65c9bdcd5a8bcb02b68f305bee848e",
    "block_time": 1710308296
  },
  "hex": "0200000000010153eba3a88789ad476eb4f645e01aa94d02e33158f690a7b9c23b0a306087c0420000000000fdffffff03e803000000000000225120866319f6eeb8076a19b2390865fcfae384d815feeef9233a36ac7c1a491271561b1e000000000000225120f62171bf126320eed697da59179bb0a31c00c0460a1a69c591c3c0d0f8f5038f9b0c0000000000002251200705a5767db892e98125775049b1a13dd9ecdc8aea0df413cabbee683e8710120340da3284133d2c602d7ced208552e72527c0465bf7b35ff9221f6842e3090b9d2e236e29ead44ea6abfd69bbc23b0285878731e1e66885140cf24c1eef019c52d7fd420820f2d00e1cce0b839d2e197679cac7a15152ec244338032c7767f72c1332d49a65ac0063036f7264010109696d6167652f706e67004d080289504e470d0a1a0a0000000d4948445200000118000001180803000000b05019be000000017352474200aece1ce90000000467414d410000b18f0bfc610500000147504c5445ff7b00e58928ffc996fea654fffeffffb169fdd4acffe8d1e06c00d16500ce9554d2cfd1e1dcdef3b4645328000901001209000f10112f2e2fedecef755e5b000000625869833b00670000690000952c2cfe9696ff2800ff0000f67907c76000ae5400c05c00c01e00c000002d16021e0f00ee730574380018181808032a130a4b391a465e2c380d04531006541d0e7a261495582c72200f954e38926d61b86d5fb836259c190d6520136a5d4fac926e979d96b9f6f3f8535253e0dde00a0a0a968d944e4d4e483758fe810bf0c07aecd198edd096eece94f7e5caa1907477674a927b76dcc3b88f5114f2d196f1bd78e4c68bc7954fbb9b60483759c8a86dc7a86ebb9a5fe9851f4f2f4e3123567c5045726c9a211860190c6fff84123a3272d0b6b5c4c1d5b7b4cbc9c5e5180f5a2a18981f1761d6d3e58783aa7f79a39289ca5e578c1e155ea21418e3000000097048597300000ec300000ec301c76fa864000004b049444154785eeddded575455184071880814047909c86c44c391d2a150c0b44040cb0ad2d44a2b42adecfdffff5c6bf53050dd7de7b438309761ffbe7ac6739fbd5c8b7b5cc3bd5d89b6fb5e4eb3f06e56efcc85c6d3b1d8615ffab663a04d08025c0c030c030c030c030c030c030c030c036a3717d22cc54499ec86f9e3f71cc66b31502ef5f9ab71a987ab1966ae91c5e57a0c944b7d3eaef490ed86c9c230c030c030c030c030c030c030e020c2788357a8b6fa5b9a6b315126cd308dad5f7fc96035f791a00287c80f62877df1740d0c030c030c030c030c033a314c457f5c0ffc9c663126ca644f98e7b1c3be6ce60e539f5f4af32226caa419666e6e2b839f9e74e021324e3bfbe3e9ba9861806180618061406786891f2cfb7200615e248a8932d913e6c71cb2dfc76c3ffb21cd8d9828936698c6d3ef9f67f0ec760c948b6725e0e91a18061806180618061806180618061886f4f4a699f82eabebd165aeb1f56d99d5d8be959e18e7f05d69c424b9c5f1185c89edabebc0c294320c300c300c300c300c381261f28ac95b686398c789be79b49ed3d731790bed0b537bf0f0ab240ff31a4ffb27d3d6306d6118601860186018601860186018601860186018601860186018601860186018601860186018601860186018601860186018601860186018901ae649779ac7314f36550fb31eeb5b7990fba966860186018601860186018601860186017f8589efab1eaeea8739f9e517ed50f930b7efdf6d8b0dc314ba679862860186018601860186018601c9611ec5e0ad1cbb30cb9fa7b99ffb716f550f3371f7a324778e5f9824860186018601860186010710e6cebd32b12f88452016154d0802aa7e98da679f96d8d8fcb8c4e6462c2bf449ac2ab65af530f599574bccaec4d3d40a0d8cc4b242cbb1aad8fb86296618601860186018601860186018708cc3acc5aa62e961e2bfe8ca7d7828616697774c943e84b830cc687c746d3556154b0db37e2a4df6e7f91685594e7ce9466198f21e4da961daf695f9c23071f1ad1806180618061806180618061cbb306b832b3b4aef688ac3c42757ca5f507124c3dc9add31faff8f0423f1d1d9895855ec4886d9d5fe43a4618a190618061806180618065436cc60cc51a84598d29bc3ca87e99a2ed5d37473f1df166ebc77bdc4d2e2422c2cb070adf26152cd5f8dd7d2e5d17cb95d39c300c300c300c300c300c300c300c380a3102626cae48887a94f5e9afcdba5cb6f67f556a2d9e6054cd6e3a2aaa0ff629c082be0627f5c54151806180618061806180618061806180618061806180618061806180618061806f4cf0c57c64c95c2d4ce4d9f0f17de6c8b0bb1fdf9e973b99f5b96c9d937dae26c6c5f5d8601860186018601860186018601860186019353af653475e6f50267feb3c7d4646c5f5d4371c8cda4e81703c746e30ff7188aedabcb30c030c030c030c030c030c030c030c030c030c030c030c030c030c030c0306068f87446c3e31163afb1d1911db1ecf470f5c3f49fc8ea54c4f887c1811d2763d9892a7df7e350f4460bd01bcb8e1fc300c300c300c300c300c300c300c300c34c56801661fa5e29d31d7f49276a11a65cf6f77954886180618061806180618061806140f74bfbd0c9377892244992244992244992244992244992244992a4ced4d5f527c75de14c7a8f71ef0000000049454e44ae426082680063036f726401011e6170706c69636174696f6e2f6a736f6e3b636861727365743d7574662d38004d67017b2270223a22766f7264222c2276223a312c227479223a22696e7363222c22636f6c223a2261643262353365623665333264663466633139386133626262306662663638666637336432666432323832323163313136373630306533316337613163343836222c22696964223a22557073696465646f776e204e6f64654d6f6e6b6573222c227075626c223a2231455337623370636a527a4667796969714c7278484b546e43686535364c4a485937222c226e6f6e6365223a37312c226d696e746572223a2262633170736533336e6168776871726b3578646a38797978746c383675777a6473393037616d756a7877336b34333770356a676a7739747174646c75396b222c22736967223a224734615656327244375749565a74636566734756756550724573674a626874385a78534a4b6b664f347a72684c52557663505273754c5a54583375744e71382f4b4861514b4d5869597752462b6e30456a3756556b67633d227d6841c0f2d00e1cce0b839d2e197679cac7a15152ec244338032c7767f72c1332d49a65675a92934efa5e4869b2432a3e00abfc6819367af43949c2edc693b32d23ac0500000000"
}