{
  "txid": "b5fb1967a921c1a0e23e67d998346afb92fcd7ff50a3133b919f8058ce058f96",
  "version": 1,
  "locktime": 0,
  "vin": [
    {
      "txid": "a03d3c267847c73024e9ddc0d5fc1072ef5fac04f78a607a46997abf1f67bbf5",
      "vout": 1,
      "prevout": {
        "scriptpubkey": "0014065d47101d5887e69de24747ae1759a319cfbeda",
        "scriptpubkey_asm": "OP_0 OP_PUSHBYTES_20 065d47101d5887e69de24747ae1759a319cfbeda",
        "scriptpubkey_type": "v0_p2wpkh",
        "scriptpubkey_address": "bc1qqew5wyqatzr7d80zgar6u96e5vvul0k6csw7ts",
        "value": 37826
      },
      "scriptsig": "",
      "scriptsig_asm": "",
      "witness": [
        "30440220749971da8e58ba78f5bf4126edbd0e8b3a20a540a1ef6492c9b0583485b4fffe0220471bd9ec053b834540af756bc936c87f7a22b636d480fa0bbff124ba5b07d81f01",
        "02d8b53d7166bd398440f1eb2a461ea386c163191e576197f014249de45e496c5b"
      ],
      "is_coinbase": false,
      "sequence": 4294967295
    }
  ],
  "vout": [
    {
      "scriptpubkey": "0014d6a1191489f00d39e115572ec63b07d3d4293251",
      "scriptpubkey_asm": "OP_0 OP_PUSHBYTES_20 d6a1191489f00d39e115572ec63b07d3d4293251",
      "scriptpubkey_type": "v0_p2wpkh",
      "scriptpubkey_address": "bc1q66s3j9yf7qxnncg42uhvvwc8602zjvj3s623ed",
      "value": 15726
    },
    {
      "scriptpubkey": "00149cb0fd507d64912c592b5b990b4fc54ebe9486e6",
      "scriptpubkey_asm": "OP_0 OP_PUSHBYTES_20 9cb0fd507d64912c592b5b990b4fc54ebe9486e6",
      "scriptpubkey_type": "v0_p2wpkh",
      "scriptpubkey_address": "bc1qnjc065ravjgjckfttwvskn79f6lffphxavy722",
      "value": 20000
    }
  ],
  "size": 222,
  "weight": 561,
  "fee": 2100,
  "status": {
    "confirmed": true,
    "block_height": 834638,
    "block_hash": "000000000000000000025f742c626208ac87e0b7d15054abb4a19ca2d735a54e",
    "block_time": 1710405325
  },
  "hex": "01000000000101f5bb671fbf7a99467a608af704ac5fef7210fcd5c0dde92430c74778263c3da00100000000ffffffff026e3d000000000000160014d6a1191489f00d39e115572ec63b07d3d4293251204e0000000000001600149cb0fd507d64912c592b5b990b4fc54ebe9486e6024730440220749971da8e58ba78f5bf4126edbd0e8b3a20a540a1ef6492c9b0583485b4fffe0220471bd9ec053b834540af756bc936c87f7a22b636d480fa0bbff124ba5b07d81f012102d8b53d7166bd398440f1eb2a461ea386c163191e576197f014249de45e496c5b00000000"
}