{
  "txid": "b6109caa4fe3961c82f2f1ce0209e7ff15fe272f240bc7348314232d91e4d447",
  "version": 2,
  "locktime": 0,
  "vin": [
    {
      "txid": "9111c248c34c9049b8141c14abc5573b37266372319a1cc3efcc99102bd36cfc",
      "vout": 0,
      "prevout": {
        "scriptpubkey": "0014469fa6cbc0cf94eaa07152b31b508b88f132b84b",
        "scriptpubkey_asm": "OP_0 OP_PUSHBYTES_20 469fa6cbc0cf94eaa07152b31b508b88f132b84b",
        "scriptpubkey_type": "v0_p2wpkh",
        "scriptpubkey_address": "bc1qg606dj7qe72w4gr322e3k5yt3rcn9wzts55ldy",
        "value": 8404734
      },
      "scriptsig": "",
      "scriptsig_asm": "",
      "witness": [
        "30440220030b0f0e33c11709705825aeb354ff95724d8683acf89992210bf5e05462833e02205de4b3186fbe98cac38cd074ac3de3357100ab58d9a894bf1aa6063cecc9a66401",
        "0234c86b31b806f157d061102da4aa33426a21c18c6f06af9756454cf4ca2f04b0"
      ],
      "is_coinbase": false,
      "sequence": 4294967293
    }
  ],
  "vout": [
    {
      "scriptpubkey": "00146f30da9b028a0e6f0eb233ba4b7509be6024fb3b",
      "scriptpubkey_asm": "OP_0 OP_PUSHBYTES_20 6f30da9b028a0e6f0eb233ba4b7509be6024fb3b",
      "scriptpubkey_type": "v0_p2wpkh",
      "scriptpubkey_address": "bc1qducd4xcz3g8x7r4jxwaykagfheszf7em4we3aa",
      "value": 2098608
    },
    {
      "scriptpubkey": "001437c59de96dded7b5ccc84c3401f7bd98bb652559",
      "scriptpubkey_asm": "OP_0 OP_PUSHBYTES_20 37c59de96dded7b5ccc84c3401f7bd98bb652559",
      "scriptpubkey_type": "v0_p2wpkh",
      "scriptpubkey_address": "bc1qxlzem6tdmmtmtnxgfs6qraaanzak2f2ekjgnf7",
      "value": 6304596
    }
  ],
  "size": 222,
  "weight": 561,
  "fee": 1530,
  "status": {
    "confirmed": true,
    "block_height": 834464,
    "block_hash": "0000000000000000000177a0869a911a2b65c9bdcd5a8bcb02b68f305bee848e",
    "block_time": 1710308296
  },
  "hex": "02000000000101fc6cd32b1099ccefc31c9a31726326373b57c5ab141c14b849904cc348c211910000000000fdffffff02b0052000000000001600146f30da9b028a0e6f0eb233ba4b7509be6024fb3b543360000000000016001437c59de96dded7b5ccc84c3401f7bd98bb652559024730440220030b0f0e33c11709705825aeb354ff95724d8683acf89992210bf5e05462833e02205de4b3186fbe98cac38cd074ac3de3357100ab58d9a894bf1aa6063cecc9a66401210234c86b31b806f157d061102da4aa33426a21c18c6f06af9756454cf4ca2f04b000000000"
}