{
  "txid": "b611ceec1013b3438b59ff76df16d0234da319814b97b6f67335ce59b2b570cc",
  "version": 1,
  "locktime": 0,
  "vin": [
    {
      "txid": "88888888912b8940d306e98a9123f73cf0b83c2d9b750ce7c546d4d479a2dac6",
      "vout": 0,
      "prevout": {
        "scriptpubkey": "51204940cd831cae34fd259fadff1d7dc01b75d7009ffa57bb8475b1be1befe79eb7",
        "scriptpubkey_asm": "OP_PUSHNUM_1 OP_PUSHBYTES_32 4940cd831cae34fd259fadff1d7dc01b75d7009ffa57bb8475b1be1befe79eb7",
        "scriptpubkey_type": "v1_p2tr",
        "scriptpubkey_address": "bc1pf9qvmqcu4c606fvl4hl36lwqrd6awqyllftmhpr4kxlphml8n6mslekapl",
        "value": 11704
      },
      "scriptsig": "",
      "scriptsig_asm": "",
      "witness": [
        "d4316480952ad0c83a169c5a68c34fb5876bdd1e35e7e3adc134500fa367bbd90c03d75c31f11d4c2d89f553b38ae684bdd134d2983c785e26bf9c0974ce2c33",
        "20c939a6c99941b6d3b54ce120ec99b1597a9557352a600150e097bc361ea60299ac00630461746f6d03646d7442a16461726773a46474696d651a65dbfc92656e6f6e6365191b9c68626974776f726b6369383838383838382e316b6d696e745f7469636b657268696e66696e69747968",
        "c0c939a6c99941b6d3b54ce120ec99b1597a9557352a600150e097bc361ea60299"
      ],
      "is_coinbase": false,
      "sequence": 1
    }
  ],
  "vout": [
    {
      "scriptpubkey": "5120b510c4cbbd9adad0840a5f50b2fbc7bb1d8231996d5f115e52bb89456507f42a",
      "scriptpubkey_asm": "OP_PUSHNUM_1 OP_PUSHBYTES_32 b510c4cbbd9adad0840a5f50b2fbc7bb1d8231996d5f115e52bb89456507f42a",
      "scriptpubkey_type": "v1_p2tr",
      "scriptpubkey_address": "bc1pk5gvfjaantddppq2tagt9778hvwcyvved403zhjjhwy52eg87s4qdwylgf",
      "value": 9999
    }
  ],
  "size": 310,
  "weight": 592,
  "fee": 1705,
  "status": {
    "confirmed": true,
    "block_height": 834464,
    "block_hash": "0000000000000000000177a0869a911a2b65c9bdcd5a8bcb02b68f305bee848e",
    "block_time": 1710308296
  },
  "hex": "01000000000101c6daa279d4d446c5e70c759b2d3cb8f03cf723918ae906d340892b9188888888000000000001000000010f27000000000000225120b510c4cbbd9adad0840a5f50b2fbc7bb1d8231996d5f115e52bb89456507f42a0340d4316480952ad0c83a169c5a68c34fb5876bdd1e35e7e3adc134500fa367bbd90c03d75c31f11d4c2d89f553b38ae684bdd134d2983c785e26bf9c0974ce2c337120c939a6c99941b6d3b54ce120ec99b1597a9557352a600150e097bc361ea60299ac00630461746f6d03646d7442a16461726773a46474696d651a65dbfc92656e6f6e6365191b9c68626974776f726b6369383838383838382e316b6d696e745f7469636b657268696e66696e6974796821c0c939a6c99941b6d3b54ce120ec99b1597a9557352a600150e097bc361ea6029900000000"
}