{
  "txid": "b6123d40feedc844647759588ef09b766064ac4d1dff5e64742791c4d4421d79",
  "version": 1,
  "locktime": 0,
  "vin": [
    {
      "txid": "8a5927cbbceaf38cdfd50e1627e3591aec48ba9a526c74de02b4643f9f103a37",
      "vout": 1,
      "prevout": {
        "scriptpubkey": "0014e24699474c6c804cb78799e7351bf5d528398969",
        "scriptpubkey_asm": "OP_0 OP_PUSHBYTES_20 e24699474c6c804cb78799e7351bf5d528398969",
        "scriptpubkey_type": "v0_p2wpkh",
        "scriptpubkey_address": "bc1qufrfj36vdjqyedu8n8nn2xl4655rnztf77vczk",
        "value": 4623538
      },
      "scriptsig": "",
      "scriptsig_asm": "",
      "witness": [
        "3044022014f2ef4821e954454a64eaaae62a480f1387db9bddd479dda028e631ca11f16e0220196b74cfc3304321cc328062dca5e94a99569e229eeadc918b387e280835770401",
        "029d7a72720c38c8f4ea389712fcae4e359e15b4f6bb0537ffaa0656d84d2a67d0"
      ],
      "is_coinbase": false,
      "sequence": 4294967295
    }
  ],
  "vout": [
    {
      "scriptpubkey": "0014e5d7e7eeab8ccf58334c1a19d33d74a959992162",
      "scriptpubkey_asm": "OP_0 OP_PUSHBYTES_20 e5d7e7eeab8ccf58334c1a19d33d74a959992162",
      "scriptpubkey_type": "v0_p2wpkh",
      "scriptpubkey_address": "bc1quht70m4t3n84sv6vrgvax0t549vejgtzucl30m",
      "value": 83300
    },
    {
      "scriptpubkey": "00149fbde87e72c329375f9b12534ce7879cb0a42452",
      "scriptpubkey_asm": "OP_0 OP_PUSHBYTES_20 9fbde87e72c329375f9b12534ce7879cb0a42452",
      "scriptpubkey_type": "v0_p2wpkh",
      "scriptpubkey_address": "bc1qn777slnjcv5nwhumzff5eeu8njc2gfzj3qxukc",
      "value": 4538108
    }
  ],
  "size": 222,
  "weight": 561,
  "fee": 2130,
  "status": {
    "confirmed": true,
    "block_height": 834638,
    "block_hash": "000000000000000000025f742c626208ac87e0b7d15054abb4a19ca2d735a54e",
    "block_time": 1710405325
  },
  "hex": "01000000000101373a109f3f64b402de746c529aba48ec1a59e327160ed5df8cf3eabccb27598a0100000000ffffffff026445010000000000160014e5d7e7eeab8ccf58334c1a19d33d74a959992162fc3e4500000000001600149fbde87e72c329375f9b12534ce7879cb0a4245202473044022014f2ef4821e954454a64eaaae62a480f1387db9bddd479dda028e631ca11f16e0220196b74cfc3304321cc328062dca5e94a99569e229eeadc918b387e28083577040121029d7a72720c38c8f4ea389712fcae4e359e15b4f6bb0537ffaa0656d84d2a67d000000000"
}