{
  "txid": "b6160f7709397675345b68a1086e69fed6101b5e88e1cfbf8dda98f9e5f47c2b",
  "version": 1,
  "locktime": 0,
  "vin": [
    {
      "txid": "e977e3bea90a9740b27dacac4ff8cb8e7707065fdaf5d09b4875bf2c4289f325",
      "vout": 35,
      "prevout": {
        "scriptpubkey": "001461506f563d6497d3b6d81840d9b711b015a2244e",
        "scriptpubkey_asm": "OP_0 OP_PUSHBYTES_20 61506f563d6497d3b6d81840d9b711b015a2244e",
        "scriptpubkey_type": "v0_p2wpkh",
        "scriptpubkey_address": "bc1qv9gx743avjta8dkcrpqdndc3kq26yfzwh0tfcg",
        "value": 1789399
      },
      "scriptsig": "",
      "scriptsig_asm": "",
      "witness": [
        "3045022100b25726ed7f1dc9cff24248351b85cf41ed4df7b5b1b6cf349c93875181575c8f02203dcfe0aff49129fdf383235c9510514d62d3e6650b10b4903fea87386587f14101",
        "039680a94565f471091932918b84b3ef03010467d96d4a8d692e2fb208fbc490d2"
      ],
      "is_coinbase": false,
      "sequence": 4294967295
    }
  ],
  "vout": [
    {
      "scriptpubkey": "a914f96cb807d06ffe9b388428bab3fb9ac9e4198e0287",
      "scriptpubkey_asm": "OP_HASH160 OP_PUSHBYTES_20 f96cb807d06ffe9b388428bab3fb9ac9e4198e02 OP_EQUAL",
      "scriptpubkey_type": "p2sh",
      "scriptpubkey_address": "3QRrREEaijvKv6si1NDa5amDvVyUCmQEAW",
      "value": 650000
    },
    {
      "scriptpubkey": "00141f3eb7248cef836d5cf150e77f769babe01a18ef",
      "scriptpubkey_asm": "OP_0 OP_PUSHBYTES_20 1f3eb7248cef836d5cf150e77f769babe01a18ef",
      "scriptpubkey_type": "v0_p2wpkh",
      "scriptpubkey_address": "bc1qrultwfyva7pk6h832rnh7a5m40sp5x80xxejzu",
      "value": 1137848
    }
  ],
  "size": 224,
  "weight": 566,
  "fee": 1551,
  "status": {
    "confirmed": true,
    "block_height": 834464,
    "block_hash": "0000000000000000000177a0869a911a2b65c9bdcd5a8bcb02b68f305bee848e",
    "block_time": 1710308296
  },
  "hex": "0100000000010125f389422cbf75489bd0f5da5f0607778ecbf84facac7db240970aa9bee377e92300000000ffffffff0210eb09000000000017a914f96cb807d06ffe9b388428bab3fb9ac9e4198e0287b85c1100000000001600141f3eb7248cef836d5cf150e77f769babe01a18ef02483045022100b25726ed7f1dc9cff24248351b85cf41ed4df7b5b1b6cf349c93875181575c8f02203dcfe0aff49129fdf383235c9510514d62d3e6650b10b4903fea87386587f1410121039680a94565f471091932918b84b3ef03010467d96d4a8d692e2fb208fbc490d200000000"
}