{
  "txid": "b6273514b4e0aa8f3d8347f5ec9a28c932cd0cab3bc1ffda46085004a17f20af",
  "version": 2,
  "locktime": 0,
  "vin": [
    {
      "txid": "6ff64d434377902f48a386e443d0bd45a37aba31c1418525429e875f9531fa39",
      "vout": 0,
      "prevout": {
        "scriptpubkey": "00145f8904fa9a98898ec7fa1b9b42af3581003318e1",
        "scriptpubkey_asm": "OP_0 OP_PUSHBYTES_20 5f8904fa9a98898ec7fa1b9b42af3581003318e1",
        "scriptpubkey_type": "v0_p2wpkh",
        "scriptpubkey_address": "bc1qt7ysf756nzyca3l6rwd59te4syqrxx8pt6wrwc",
        "value": 500000
      },
      "scriptsig": "",
      "scriptsig_asm": "",
      "witness": [
        "304402207b4f54c064786fd2b2ff7c67507ac2dac3028d797a96fe7829ab78b66e2cb04402203a1c8033dbcbe06ae58ed1e4d372cffcc4ccaef70d5bbff7a23a61d0fded28c201",
        "03eb83fa7f2ea70af95d6c1db57aeff89d2e17b194b89593be4452e12f20693caf"
      ],
      "is_coinbase": false,
      "sequence": 4294967295
    }
  ],
  "vout": [
    {
      "scriptpubkey": "001448dfa704897f78fdfbc2b9534055dd9b219ef5a8",
      "scriptpubkey_asm": "OP_0 OP_PUSHBYTES_20 48dfa704897f78fdfbc2b9534055dd9b219ef5a8",
      "scriptpubkey_type": "v0_p2wpkh",
      "scriptpubkey_address": "bc1qfr06wpyf0au0m77zh9f5q4wanvseaadgq9qhf9",
      "value": 12499
    },
    {
      "scriptpubkey": "00145f8904fa9a98898ec7fa1b9b42af3581003318e1",
      "scriptpubkey_asm": "OP_0 OP_PUSHBYTES_20 5f8904fa9a98898ec7fa1b9b42af3581003318e1",
      "scriptpubkey_type": "v0_p2wpkh",
      "scriptpubkey_address": "bc1qt7ysf756nzyca3l6rwd59te4syqrxx8pt6wrwc",
      "value": 485809
    }
  ],
  "size": 222,
  "weight": 561,
  "fee": 1692,
  "status": {
    "confirmed": true,
    "block_height": 834460,
    "block_hash": "00000000000000000000484a79b643b2524bbce82e5d8a442013fa5b8905ed98",
    "block_time": 1710307468
  },
  "hex": "0200000000010139fa31955f879e42258541c131ba7aa345bdd043e486a3482f907743434df66f0000000000ffffffff02d33000000000000016001448dfa704897f78fdfbc2b9534055dd9b219ef5a8b1690700000000001600145f8904fa9a98898ec7fa1b9b42af3581003318e10247304402207b4f54c064786fd2b2ff7c67507ac2dac3028d797a96fe7829ab78b66e2cb04402203a1c8033dbcbe06ae58ed1e4d372cffcc4ccaef70d5bbff7a23a61d0fded28c2012103eb83fa7f2ea70af95d6c1db57aeff89d2e17b194b89593be4452e12f20693caf00000000"
}