{
  "txid": "b629fc203878de20b184a6036045ec7872cda4859638c7410e0f758769fa1d61",
  "version": 2,
  "locktime": 0,
  "vin": [
    {
      "txid": "b5ad0a3f76ae4d83a780baedcbaf098b8acd7d16f8f60895eee20c446998f043",
      "vout": 1,
      "prevout": {
        "scriptpubkey": "0014c6b6e1de311d20f401a64da32558d34d41027788",
        "scriptpubkey_asm": "OP_0 OP_PUSHBYTES_20 c6b6e1de311d20f401a64da32558d34d41027788",
        "scriptpubkey_type": "v0_p2wpkh",
        "scriptpubkey_address": "bc1qc6mwrh33r5s0gqdxfk3j2kxnf4qsyaug2np7w8",
        "value": 62288476
      },
      "scriptsig": "",
      "scriptsig_asm": "",
      "witness": [
        "3045022100c75d30e3f7406430d1b94d7da2790f4ce2487ee37b441f9af66f421784f0c15f022038e7fa60e086b0af82bccf78f16947b44a6ebbbceb1325fdedd311f66a3bb9cb01",
        "0376f7f48d67bceac2d02a1f1b1343ca9f43338528d6db7d7d543659fdd6f1aa14"
      ],
      "is_coinbase": false,
      "sequence": 4294967295
    }
  ],
  "vout": [
    {
      "scriptpubkey": "76a9141ef0bc449aab822dfea8d2a0f8b9844b65a97d8888ac",
      "scriptpubkey_asm": "OP_DUP OP_HASH160 OP_PUSHBYTES_20 1ef0bc449aab822dfea8d2a0f8b9844b65a97d88 OP_EQUALVERIFY OP_CHECKSIG",
      "scriptpubkey_type": "p2pkh",
      "scriptpubkey_address": "13pbfM2SqBLip4o6rK2NR5BCwfvovpNw7s",
      "value": 25800000
    },
    {
      "scriptpubkey": "0014c6b6e1de311d20f401a64da32558d34d41027788",
      "scriptpubkey_asm": "OP_0 OP_PUSHBYTES_20 c6b6e1de311d20f401a64da32558d34d41027788",
      "scriptpubkey_type": "v0_p2wpkh",
      "scriptpubkey_address": "bc1qc6mwrh33r5s0gqdxfk3j2kxnf4qsyaug2np7w8",
      "value": 36486172
    }
  ],
  "size": 226,
  "weight": 574,
  "fee": 2304,
  "status": {
    "confirmed": true,
    "block_height": 834638,
    "block_hash": "000000000000000000025f742c626208ac87e0b7d15054abb4a19ca2d735a54e",
    "block_time": 1710405325
  },
  "hex": "0200000000010143f09869440ce2ee9508f6f8167dcd8a8b09afcbedba80a7834dae763f0aadb50100000000ffffffff0240ad8901000000001976a9141ef0bc449aab822dfea8d2a0f8b9844b65a97d8888ac1cbc2c0200000000160014c6b6e1de311d20f401a64da32558d34d4102778802483045022100c75d30e3f7406430d1b94d7da2790f4ce2487ee37b441f9af66f421784f0c15f022038e7fa60e086b0af82bccf78f16947b44a6ebbbceb1325fdedd311f66a3bb9cb01210376f7f48d67bceac2d02a1f1b1343ca9f43338528d6db7d7d543659fdd6f1aa1400000000"
}