{
  "txid": "b652284255236d66c4ae8df6a40047e8ed165f5822e9b475a1946d152bd82575",
  "version": 2,
  "locktime": 834637,
  "vin": [
    {
      "txid": "b39a562941583252a93a8313c216109bfac1744201980366f490d6f3a5c37167",
      "vout": 117,
      "prevout": {
        "scriptpubkey": "0014304dc88a20379f4c5365578fff4b228ea3989e16",
        "scriptpubkey_asm": "OP_0 OP_PUSHBYTES_20 304dc88a20379f4c5365578fff4b228ea3989e16",
        "scriptpubkey_type": "v0_p2wpkh",
        "scriptpubkey_address": "bc1qxpxu3z3qx705c5m9278l7jez363e38skeh5rgn",
        "value": 139197
      },
      "scriptsig": "",
      "scriptsig_asm": "",
      "witness": [
        "30440220372e592466e4b018e9c9b390177fbbb3276521594ac8eb6d2c12c7459f07905202204e72223058211f29b399d84b73e0ac99987e9f2141e332b55b866931f60f2a5801",
        "029bc0a13c72403f7d88d6d1f914955fbe872fc84249090275874020cd5c67ce39"
      ],
      "is_coinbase": false,
      "sequence": 4294967294
    },
    {
      "txid": "7e9e38b72532dd85e94020720a0c5f3beebba633a0a910d0c479a260d5cdc249",
      "vout": 44,
      "prevout": {
        "scriptpubkey": "001400f144f7d4a36e11cc84ae4b21c53b27f4905766",
        "scriptpubkey_asm": "OP_0 OP_PUSHBYTES_20 00f144f7d4a36e11cc84ae4b21c53b27f4905766",
        "scriptpubkey_type": "v0_p2wpkh",
        "scriptpubkey_address": "bc1qqrc5fa755dhprnyy4e9jr3fmyl6fq4mx3n475c",
        "value": 135711
      },
      "scriptsig": "",
      "scriptsig_asm": "",
      "witness": [
        "30440220396fac75696c7b2b45c0cb390e523227a5705cd1a511c5e2cc0f8a695b0146a0022066c23148e0cee7a835f65da593d5beeeab6a74b8b3c841c8add2a3374dfaef2e01",
        "0306354e97ea3994f3c732b578c4f90623485a99c74dcc8a0563c2283bef29c0ce"
      ],
      "is_coinbase": false,
      "sequence": 4294967294
    },
    {
      "txid": "deb6b0c10e47c285e249b7f0dc76040331f998c0bd9c7306a4c4340af1dc2383",
      "vout": 1,
      "prevout": {
        "scriptpubkey": "00143d42215b37bbc982d4b2cf8e173f87c41e4e277d",
        "scriptpubkey_asm": "OP_0 OP_PUSHBYTES_20 3d42215b37bbc982d4b2cf8e173f87c41e4e277d",
        "scriptpubkey_type": "v0_p2wpkh",
        "scriptpubkey_address": "bc1q84pzzkehh0yc949je78pw0u8cs0yufmauudkq9",
        "value": 139208
      },
      "scriptsig": "",
      "scriptsig_asm": "",
      "witness": [
        "304402200b9d13804177c45861a534675fe2085c4a3385b7bc1a38c2d35f5c95edd1b04d022064fd0ed641c60dd807cf92ea7529d46632648fe6dcd05b8912dedd044a94a0fd01",
        "02367abac5b8227389052f1ca58842ad53ac67bf73eedff1601cd95c2b6d799644"
      ],
      "is_coinbase": false,
      "sequence": 4294967294
    },
    {
      "txid": "1eed136fd015a2878df081cfeca3d2375ac9bdce680fe33554d53a0fe7453879",
      "vout": 128,
      "prevout": {
        "scriptpubkey": "001457abea88bd4a2088a24900e76f5ab3c91cac4805",
        "scriptpubkey_asm": "OP_0 OP_PUSHBYTES_20 57abea88bd4a2088a24900e76f5ab3c91cac4805",
        "scriptpubkey_type": "v0_p2wpkh",
        "scriptpubkey_address": "bc1q27474z9afgsg3gjfqrnk7k4neyw2cjq9lhack3",
        "value": 139187
      },
      "scriptsig": "",
      "scriptsig_asm": "",
      "witness": [
        "304402204e45824b2b511a043a4519f933647bda24b1cc90f24139afb4a385d71811c7b202203ba285603dd0ccbeaa85d3ecee8f3adcf3e598fbfc620e24bf293d292aa0fd0c01",
        "032700896a0fd8bb8c6c696342bc42e0863a95ee74c2656474512230ff36bd58c1"
      ],
      "is_coinbase": false,
      "sequence": 4294967294
    }
  ],
  "vout": [
    {
      "scriptpubkey": "001488f921db7705f8fbab90b0b9ff6c567ddbf87328",
      "scriptpubkey_asm": "OP_0 OP_PUSHBYTES_20 88f921db7705f8fbab90b0b9ff6c567ddbf87328",
      "scriptpubkey_type": "v0_p2wpkh",
      "scriptpubkey_address": "bc1q3rujrkmhqhu0h2uskzul7mzk0hdlsuegyg8s90",
      "value": 545200
    }
  ],
  "size": 635,
  "weight": 1250,
  "fee": 8103,
  "status": {
    "confirmed": true,
    "block_height": 834638,
    "block_hash": "000000000000000000025f742c626208ac87e0b7d15054abb4a19ca2d735a54e",
    "block_time": 1710405325
  },
  "hex": "020000000001046771c3a5f3d690f4660398014274c1fa9b1016c213833aa95232584129569ab37500000000feffffff49c2cdd560a279c4d010a9a033a6bbee3b5f0c0a722040e985dd3225b7389e7e2c00000000feffffff8323dcf10a34c4a406739cbdc098f931030476dcf0b749e285c2470ec1b0b6de0100000000feffffff793845e70f3ad55435e30f68cebdc95a37d2a3eccf81f08d87a215d06f13ed1e8000000000feffffff01b05108000000000016001488f921db7705f8fbab90b0b9ff6c567ddbf87328024730440220372e592466e4b018e9c9b390177fbbb3276521594ac8eb6d2c12c7459f07905202204e72223058211f29b399d84b73e0ac99987e9f2141e332b55b866931f60f2a580121029bc0a13c72403f7d88d6d1f914955fbe872fc84249090275874020cd5c67ce39024730440220396fac75696c7b2b45c0cb390e523227a5705cd1a511c5e2cc0f8a695b0146a0022066c23148e0cee7a835f65da593d5beeeab6a74b8b3c841c8add2a3374dfaef2e01210306354e97ea3994f3c732b578c4f90623485a99c74dcc8a0563c2283bef29c0ce0247304402200b9d13804177c45861a534675fe2085c4a3385b7bc1a38c2d35f5c95edd1b04d022064fd0ed641c60dd807cf92ea7529d46632648fe6dcd05b8912dedd044a94a0fd012102367abac5b8227389052f1ca58842ad53ac67bf73eedff1601cd95c2b6d7996440247304402204e45824b2b511a043a4519f933647bda24b1cc90f24139afb4a385d71811c7b202203ba285603dd0ccbeaa85d3ecee8f3adcf3e598fbfc620e24bf293d292aa0fd0c0121032700896a0fd8bb8c6c696342bc42e0863a95ee74c2656474512230ff36bd58c14dbc0c00"
}