{
  "txid": "b657832cd260d0f9d494967781b367ad8acf70a3abdd99ff490d7892692cb7ca",
  "version": 2,
  "locktime": 0,
  "vin": [
    {
      "txid": "abdcbb8bcefa0f088373ceda41a70fe1aeaa3823b969e1169e2a29269068d8dc",
      "vout": 20,
      "prevout": {
        "scriptpubkey": "5120c50b584496d37bd291992e6743e5f8a365d9c41bb813dd25d46f8e81ba045aae",
        "scriptpubkey_asm": "OP_PUSHNUM_1 OP_PUSHBYTES_32 c50b584496d37bd291992e6743e5f8a365d9c41bb813dd25d46f8e81ba045aae",
        "scriptpubkey_type": "v1_p2tr",
        "scriptpubkey_address": "bc1pc594s3yk6daa9yve9en58e0c5djan3qmhqfa6fw5d78grwsyt2hqc7y8s4",
        "value": 2522
      },
      "scriptsig": "",
      "scriptsig_asm": "",
      "witness": [
        "e37218690b62f5ec706fc62c5738cb805334bc6baec1ad15d5b830e5bfc7680be2790ff8f2ad56db6e6fb7c30cd75eb259ced86cbbb6474cb2093dc8e18b51fd",
        "203384161e4b975d575ffd33a20d01547a721d26e8888c8fac141edbc33094de89ac0063036f7264010118746578742f706c61696e3b636861727365743d7574662d3800387b2270223a226272632d3230222c226f70223a227472616e73666572222c227469636b223a226f726e6a222c22616d74223a22313030227d68",
        "c125dced391475af84759664675c16f5ed581b243a944241d7ee258c8cfb80c9db"
      ],
      "is_coinbase": false,
      "sequence": 4294967295
    }
  ],
  "vout": [
    {
      "scriptpubkey": "512060e7b9d91ee3091b65165528563dba11a47299520ea2fc67070ec6ac303fc05d",
      "scriptpubkey_asm": "OP_PUSHNUM_1 OP_PUSHBYTES_32 60e7b9d91ee3091b65165528563dba11a47299520ea2fc67070ec6ac303fc05d",
      "scriptpubkey_type": "v1_p2tr",
      "scriptpubkey_address": "bc1pvrnmnkg7uvy3kegk2559v0d6zxj89x2jp630cec8pmr2cvplcpwsn3pn79",
      "value": 546
    }
  ],
  "size": 323,
  "weight": 605,
  "fee": 1976,
  "status": {
    "confirmed": true,
    "block_height": 834460,
    "block_hash": "00000000000000000000484a79b643b2524bbce82e5d8a442013fa5b8905ed98",
    "block_time": 1710307468
  },
  "hex": "02000000000101dcd8689026292a9e16e169b92338aaaee10fa741dace7383080fface8bbbdcab1400000000ffffffff01220200000000000022512060e7b9d91ee3091b65165528563dba11a47299520ea2fc67070ec6ac303fc05d0340e37218690b62f5ec706fc62c5738cb805334bc6baec1ad15d5b830e5bfc7680be2790ff8f2ad56db6e6fb7c30cd75eb259ced86cbbb6474cb2093dc8e18b51fd7e203384161e4b975d575ffd33a20d01547a721d26e8888c8fac141edbc33094de89ac0063036f7264010118746578742f706c61696e3b636861727365743d7574662d3800387b2270223a226272632d3230222c226f70223a227472616e73666572222c227469636b223a226f726e6a222c22616d74223a22313030227d6821c125dced391475af84759664675c16f5ed581b243a944241d7ee258c8cfb80c9db00000000"
}