{
  "txid": "b668c8770a6ea415619a57e0cef5b8e04b72645ee93439e677327472f45116d4",
  "version": 2,
  "locktime": 0,
  "vin": [
    {
      "txid": "05054dd276e0eb0498ce6e63d457cda222b7b1884431eb94fbb3d96d7637c5bb",
      "vout": 83,
      "prevout": {
        "scriptpubkey": "0014f0601dd37d2416a87f5ddbf3068b372a15836b08",
        "scriptpubkey_asm": "OP_0 OP_PUSHBYTES_20 f0601dd37d2416a87f5ddbf3068b372a15836b08",
        "scriptpubkey_type": "v0_p2wpkh",
        "scriptpubkey_address": "bc1q7pspm5mayst2sl6am0esdzeh9g2cx6cgwlrgdh",
        "value": 162893
      },
      "scriptsig": "",
      "scriptsig_asm": "",
      "witness": [
        "30450221008c4569021537cbdc94bbfd827585c12d6009f6ca93402d9cb90477b2fb43da7302203d4d6bd7325c9d831f0b06b95e1a4155d918d36cf2bd7d85929a9ee7da9271d201",
        "03f907c6962a1a604a9719b322e9e3b3041d988e7576530dc88a2c03b6c44ce9f7"
      ],
      "is_coinbase": false,
      "sequence": 4294967293
    }
  ],
  "vout": [
    {
      "scriptpubkey": "76a91430ae8507d4799392940f34cae0995497ec3ca18588ac",
      "scriptpubkey_asm": "OP_DUP OP_HASH160 OP_PUSHBYTES_20 30ae8507d4799392940f34cae0995497ec3ca185 OP_EQUALVERIFY OP_CHECKSIG",
      "scriptpubkey_type": "p2pkh",
      "scriptpubkey_address": "15SQW3eypm17Dxm1KS7HVPmQpUzAaowNRi",
      "value": 161673
    }
  ],
  "size": 195,
  "weight": 450,
  "fee": 1220,
  "status": {
    "confirmed": true,
    "block_height": 834464,
    "block_hash": "0000000000000000000177a0869a911a2b65c9bdcd5a8bcb02b68f305bee848e",
    "block_time": 1710308296
  },
  "hex": "02000000000101bbc537766dd9b3fb94eb314488b1b722a2cd57d4636ece9804ebe076d24d05055300000000fdffffff0189770200000000001976a91430ae8507d4799392940f34cae0995497ec3ca18588ac024830450221008c4569021537cbdc94bbfd827585c12d6009f6ca93402d9cb90477b2fb43da7302203d4d6bd7325c9d831f0b06b95e1a4155d918d36cf2bd7d85929a9ee7da9271d2012103f907c6962a1a604a9719b322e9e3b3041d988e7576530dc88a2c03b6c44ce9f700000000"
}