{
  "txid": "b66b4e672529cf7011463cf77fb536dd379cc72ee6eb89884f9981cfd1ad87c9",
  "version": 2,
  "locktime": 0,
  "vin": [
    {
      "txid": "3263752a8a255a7e0b6994ead709e7bd0d3bf839ea9d739625141af38323a2ce",
      "vout": 0,
      "prevout": {
        "scriptpubkey": "5120f7a42806edc966492de71323928241fb17e7e73d82ccd6718d948dec8446e749",
        "scriptpubkey_asm": "OP_PUSHNUM_1 OP_PUSHBYTES_32 f7a42806edc966492de71323928241fb17e7e73d82ccd6718d948dec8446e749",
        "scriptpubkey_type": "v1_p2tr",
        "scriptpubkey_address": "bc1p77jzsphde9nyjt08zv3e9qjplvt70eeastxdvuvdjjx7epzxuays4k4cp7",
        "value": 5000
      },
      "scriptsig": "",
      "scriptsig_asm": "",
      "witness": [
        "4aeb2e3292f9216430158329176a508cf84bcac7681a59b8bdd7f0c7d706c33bb811ae4e69ab7e8aec1186af0f9736d7a0b428367d9cf702d4097df775439cc7",
        "20b735cf32e01cb7504e381d73cee9afb252796bba4767afca5aa2d369af1da3e8ac0063036f7264010118746578742f706c61696e3b636861727365743d7574662d38004c867b2270223a22746170222c226f70223a22646d742d6d696e74222c22646570223a22333962373532343338626533613435326464623731376230613635346233313662316164343661383139656234343831383933626337313331663738396539616930222c227469636b223a226e61746f776c73222c22626c6b223a22343936373638227d68",
        "c11748019a417c3d884cfa6a3f994328f9c35ce57bba2cf6f42f3abd5deec48a87"
      ],
      "is_coinbase": false,
      "sequence": 4294967293
    }
  ],
  "vout": [
    {
      "scriptpubkey": "5120c0eb90680173534b3dc472c38efd0e3f9c0c4f032b99d074c66809b38c783bfc",
      "scriptpubkey_asm": "OP_PUSHNUM_1 OP_PUSHBYTES_32 c0eb90680173534b3dc472c38efd0e3f9c0c4f032b99d074c66809b38c783bfc",
      "scriptpubkey_type": "v1_p2tr",
      "scriptpubkey_address": "bc1pcr4eq6qpwdf5k0wywtpcalgw87wqcncr9wvaqaxxdqym8rrc807qzhr4a0",
      "value": 546
    },
    {
      "scriptpubkey": "0014545d97260ec89c017d0add3e80ef1f9aad7e0b44",
      "scriptpubkey_asm": "OP_0 OP_PUSHBYTES_20 545d97260ec89c017d0add3e80ef1f9aad7e0b44",
      "scriptpubkey_type": "v0_p2wpkh",
      "scriptpubkey_address": "bc1q23wewfswezwqzlg2m5lgpmcln2khuz6ylddkhz",
      "value": 1626
    }
  ],
  "size": 433,
  "weight": 808,
  "fee": 2828,
  "status": {
    "confirmed": true,
    "block_height": 834460,
    "block_hash": "00000000000000000000484a79b643b2524bbce82e5d8a442013fa5b8905ed98",
    "block_time": 1710307468
  },
  "hex": "02000000000101cea22383f31a142596739dea39f83b0dbde709d7ea94690b7e5a258a2a7563320000000000fdffffff022202000000000000225120c0eb90680173534b3dc472c38efd0e3f9c0c4f032b99d074c66809b38c783bfc5a06000000000000160014545d97260ec89c017d0add3e80ef1f9aad7e0b4403404aeb2e3292f9216430158329176a508cf84bcac7681a59b8bdd7f0c7d706c33bb811ae4e69ab7e8aec1186af0f9736d7a0b428367d9cf702d4097df775439cc7cd20b735cf32e01cb7504e381d73cee9afb252796bba4767afca5aa2d369af1da3e8ac0063036f7264010118746578742f706c61696e3b636861727365743d7574662d38004c867b2270223a22746170222c226f70223a22646d742d6d696e74222c22646570223a22333962373532343338626533613435326464623731376230613635346233313662316164343661383139656234343831383933626337313331663738396539616930222c227469636b223a226e61746f776c73222c22626c6b223a22343936373638227d6821c11748019a417c3d884cfa6a3f994328f9c35ce57bba2cf6f42f3abd5deec48a8700000000"
}