{
  "txid": "b6844a6f003d20f3748ab1243f7a8fe10aa2638da7b690c705a9a44eb716ac93",
  "version": 2,
  "locktime": 0,
  "vin": [
    {
      "txid": "d18ed70056c00a6cd5de0ccb10b1ae8f7dd5250f9d0f22c727aba826d03302c8",
      "vout": 1,
      "prevout": {
        "scriptpubkey": "5120d1bf0ea6725dbe4ccbc835831afa8eb0b54d03ad8fca5ed612f1851a032f791a",
        "scriptpubkey_asm": "OP_PUSHNUM_1 OP_PUSHBYTES_32 d1bf0ea6725dbe4ccbc835831afa8eb0b54d03ad8fca5ed612f1851a032f791a",
        "scriptpubkey_type": "v1_p2tr",
        "scriptpubkey_address": "bc1p6xlsafnjtklyej7gxkp3475wkz656qad3l99a4sj7xz35qe00ydqpnm4en",
        "value": 3010
      },
      "scriptsig": "",
      "scriptsig_asm": "",
      "witness": [
        "17446ea8cd819dc90912e23f7b8c1bebed325c006a32e11bcc03ea6b894ecfcdc0f326d05f439d851dfa4d833139654f1cf499edb50ed60588fb0c36476d353f",
        "20ff15645d3fb049b216500f922074a98681c9422bfdb185560cec307b43df7fd5ac0063036f726401011e6170706c69636174696f6e2f6a736f6e3b636861727365743d7574662d38004cbf7b2270223a22706f772d3230222c226f70223a226d696e74222c227469636b223a2250455045222c22616d74223a2231303030222c22736f6c7574696f6e223a22504550453a6263317168337833756334707a796478716436757776376e3732676874787a33753937306564663078613a303030303030303030303030303030303030303139393431613561653132383937363539383134343239323533333030353762306461393666336465613163353a3239313236343136333634227d68",
        "c0e5c6b8d70510d88b341fcdd9a2aa08913e89d9e736480c530fde3fe13419cdab"
      ],
      "is_coinbase": false,
      "sequence": 4294967295
    }
  ],
  "vout": [
    {
      "scriptpubkey": "0014bc4d1e62a1111a60375c733d3f291759851e17cf",
      "scriptpubkey_asm": "OP_0 OP_PUSHBYTES_20 bc4d1e62a1111a60375c733d3f291759851e17cf",
      "scriptpubkey_type": "v0_p2wpkh",
      "scriptpubkey_address": "bc1qh3x3uc4pzydxqd6uwv7n72ghtxz3u970edf0xa",
      "value": 546
    }
  ],
  "size": 455,
  "weight": 701,
  "fee": 2464,
  "status": {
    "confirmed": true,
    "block_height": 834460,
    "block_hash": "00000000000000000000484a79b643b2524bbce82e5d8a442013fa5b8905ed98",
    "block_time": 1710307468
  },
  "hex": "02000000000101c80233d026a8ab27c7220f9d0f25d57d8faeb110cb0cded56c0ac05600d78ed10100000000ffffffff012202000000000000160014bc4d1e62a1111a60375c733d3f291759851e17cf034017446ea8cd819dc90912e23f7b8c1bebed325c006a32e11bcc03ea6b894ecfcdc0f326d05f439d851dfa4d833139654f1cf499edb50ed60588fb0c36476d353ffd0c0120ff15645d3fb049b216500f922074a98681c9422bfdb185560cec307b43df7fd5ac0063036f726401011e6170706c69636174696f6e2f6a736f6e3b636861727365743d7574662d38004cbf7b2270223a22706f772d3230222c226f70223a226d696e74222c227469636b223a2250455045222c22616d74223a2231303030222c22736f6c7574696f6e223a22504550453a6263317168337833756334707a796478716436757776376e3732676874787a33753937306564663078613a303030303030303030303030303030303030303139393431613561653132383937363539383134343239323533333030353762306461393666336465613163353a3239313236343136333634227d6821c0e5c6b8d70510d88b341fcdd9a2aa08913e89d9e736480c530fde3fe13419cdab00000000"
}