{
  "txid": "b68f347cb270120c52e9ff251581209da81425735e1ac520b884096e93bff3b0",
  "version": 2,
  "locktime": 0,
  "vin": [
    {
      "txid": "d961c874e198bfe7232e794bfa311cce63a7afbdc3fe61abaf3d6a4eed7e731c",
      "vout": 1,
      "prevout": {
        "scriptpubkey": "5120cb83a415fd6a72cdba6f30d867d9fd0eed8a942ddeb9619814c62c762e8435f6",
        "scriptpubkey_asm": "OP_PUSHNUM_1 OP_PUSHBYTES_32 cb83a415fd6a72cdba6f30d867d9fd0eed8a942ddeb9619814c62c762e8435f6",
        "scriptpubkey_type": "v1_p2tr",
        "scriptpubkey_address": "bc1pewp6g90adfevmwn0xrvx0k0apmkc49pdm6ukrxq5cck8vt5yxhmq42u74l",
        "value": 55032
      },
      "scriptsig": "",
      "scriptsig_asm": "",
      "witness": [
        "8a4b7056ccaa142b7b4421293a4018d1b763f39d2515cc240caeb9e5288dfe6177d07e8317a3118e03ad1341d38693c03273b83156368ba536e9f27a06626832"
      ],
      "is_coinbase": false,
      "sequence": 4294967293
    }
  ],
  "vout": [
    {
      "scriptpubkey": "5120e59a3ac0e8e73e42e55c1f5e167cfba4348a6870730388eacf7fbca3e05c2a9c",
      "scriptpubkey_asm": "OP_PUSHNUM_1 OP_PUSHBYTES_32 e59a3ac0e8e73e42e55c1f5e167cfba4348a6870730388eacf7fbca3e05c2a9c",
      "scriptpubkey_type": "v1_p2tr",
      "scriptpubkey_address": "bc1pukdr4s8guuly9e2ura0pvl8m5s6g56rswvpc36k007728czu92wqgy4w5r",
      "value": 2994
    },
    {
      "scriptpubkey": "5120cb83a415fd6a72cdba6f30d867d9fd0eed8a942ddeb9619814c62c762e8435f6",
      "scriptpubkey_asm": "OP_PUSHNUM_1 OP_PUSHBYTES_32 cb83a415fd6a72cdba6f30d867d9fd0eed8a942ddeb9619814c62c762e8435f6",
      "scriptpubkey_type": "v1_p2tr",
      "scriptpubkey_address": "bc1pewp6g90adfevmwn0xrvx0k0apmkc49pdm6ukrxq5cck8vt5yxhmq42u74l",
      "value": 49574
    }
  ],
  "size": 205,
  "weight": 616,
  "fee": 2464,
  "status": {
    "confirmed": true,
    "block_height": 834638,
    "block_hash": "000000000000000000025f742c626208ac87e0b7d15054abb4a19ca2d735a54e",
    "block_time": 1710405325
  },
  "hex": "020000000001011c737eed4e6a3dafab61fec3bdafa763ce1c31fa4b792e23e7bf98e174c861d90100000000fdffffff02b20b000000000000225120e59a3ac0e8e73e42e55c1f5e167cfba4348a6870730388eacf7fbca3e05c2a9ca6c1000000000000225120cb83a415fd6a72cdba6f30d867d9fd0eed8a942ddeb9619814c62c762e8435f601408a4b7056ccaa142b7b4421293a4018d1b763f39d2515cc240caeb9e5288dfe6177d07e8317a3118e03ad1341d38693c03273b83156368ba536e9f27a0662683200000000"
}