{
  "txid": "b694fce273598ed927c67369dc061372edff607f367e6cfcdeb9ed6ef96784a9",
  "version": 2,
  "locktime": 0,
  "vin": [
    {
      "txid": "9e16a5c5c136da28706bee5bea4e72758f608a782e0fa4746b2d95708e9601da",
      "vout": 1,
      "prevout": {
        "scriptpubkey": "001400bff8702e62a7e730d40c7b35656ea022f9534f",
        "scriptpubkey_asm": "OP_0 OP_PUSHBYTES_20 00bff8702e62a7e730d40c7b35656ea022f9534f",
        "scriptpubkey_type": "v0_p2wpkh",
        "scriptpubkey_address": "bc1qqzllsupwv2n7wvx5p3an2etw5q30j560g3097z",
        "value": 1785979
      },
      "scriptsig": "",
      "scriptsig_asm": "",
      "witness": [
        "3045022100ed1fe82770cabfa2aa0dcf40b393b839c06f8d52dcfb88c17a54137a6d737e8202207c8b5cafd7797dcfdf0175157d591828e3fdf995d2b3fab8d2363de849aaf6a001",
        "039453503e4cb284bb41558b4182fd58164a78865e67d36cb586ba364b8090a9bc"
      ],
      "is_coinbase": false,
      "sequence": 4294967295
    },
    {
      "txid": "6b387314db5feb1cf08921963251132ee685e4f4ee1202ebac2098b57698bdd8",
      "vout": 1,
      "prevout": {
        "scriptpubkey": "00143ca210075cf52859b84260eca1482b1472e4cde4",
        "scriptpubkey_asm": "OP_0 OP_PUSHBYTES_20 3ca210075cf52859b84260eca1482b1472e4cde4",
        "scriptpubkey_type": "v0_p2wpkh",
        "scriptpubkey_address": "bc1q8j3pqp6u7559nwzzvrk2zjptz3ewfn0yefm84x",
        "value": 1433846
      },
      "scriptsig": "",
      "scriptsig_asm": "",
      "witness": [
        "3045022100fd8d25e05c306d1afbd68238d7ee8c822b1a082a41b56e4d5bc6e69f6fc416ea02200220df8b6d3d0086e6e9d686804daf5b5337b8afdab0f531bea6e0b5eb3e22ae01",
        "03c2db6f19a4cd5d67c15001104b90f0bbf80558fd10780c6136ea660a95d75ea9"
      ],
      "is_coinbase": false,
      "sequence": 4294967295
    },
    {
      "txid": "f6a54e20ab57a49831d44f4fc56b1c4899194f49758337d1aedfbd875a4d1a3d",
      "vout": 0,
      "prevout": {
        "scriptpubkey": "00143ca210075cf52859b84260eca1482b1472e4cde4",
        "scriptpubkey_asm": "OP_0 OP_PUSHBYTES_20 3ca210075cf52859b84260eca1482b1472e4cde4",
        "scriptpubkey_type": "v0_p2wpkh",
        "scriptpubkey_address": "bc1q8j3pqp6u7559nwzzvrk2zjptz3ewfn0yefm84x",
        "value": 1153437
      },
      "scriptsig": "",
      "scriptsig_asm": "",
      "witness": [
        "304402207ff586a5eefc90ca5429b0e1b6f949e0aae95e8a48a6366e24eef5a4b67a2317022023986850a6d027faa26cbe381c4eea53cb3b62a2613bf2b738e81069f5d709d201",
        "03c2db6f19a4cd5d67c15001104b90f0bbf80558fd10780c6136ea660a95d75ea9"
      ],
      "is_coinbase": false,
      "sequence": 4294967295
    }
  ],
  "vout": [
    {
      "scriptpubkey": "0014ca02b82ce97c9120384628476aa0149423f8d4c5",
      "scriptpubkey_asm": "OP_0 OP_PUSHBYTES_20 ca02b82ce97c9120384628476aa0149423f8d4c5",
      "scriptpubkey_type": "v0_p2wpkh",
      "scriptpubkey_address": "bc1qegptst8f0jgjqwzx9prk4gq5js3l34x924w4c2",
      "value": 4368780
    }
  ],
  "size": 489,
  "weight": 981,
  "fee": 4482,
  "status": {
    "confirmed": true,
    "block_height": 834638,
    "block_hash": "000000000000000000025f742c626208ac87e0b7d15054abb4a19ca2d735a54e",
    "block_time": 1710405325
  },
  "hex": "02000000000103da01968e70952d6b74a40f2e788a608f75724eea5bee6b7028da36c1c5a5169e0100000000ffffffffd8bd9876b59820aceb0212eef4e485e62e135132962189f01ceb5fdb1473386b0100000000ffffffff3d1a4d5a87bddfaed1378375494f1999481c6bc54f4fd43198a457ab204ea5f60000000000ffffffff018ca9420000000000160014ca02b82ce97c9120384628476aa0149423f8d4c502483045022100ed1fe82770cabfa2aa0dcf40b393b839c06f8d52dcfb88c17a54137a6d737e8202207c8b5cafd7797dcfdf0175157d591828e3fdf995d2b3fab8d2363de849aaf6a00121039453503e4cb284bb41558b4182fd58164a78865e67d36cb586ba364b8090a9bc02483045022100fd8d25e05c306d1afbd68238d7ee8c822b1a082a41b56e4d5bc6e69f6fc416ea02200220df8b6d3d0086e6e9d686804daf5b5337b8afdab0f531bea6e0b5eb3e22ae012103c2db6f19a4cd5d67c15001104b90f0bbf80558fd10780c6136ea660a95d75ea90247304402207ff586a5eefc90ca5429b0e1b6f949e0aae95e8a48a6366e24eef5a4b67a2317022023986850a6d027faa26cbe381c4eea53cb3b62a2613bf2b738e81069f5d709d2012103c2db6f19a4cd5d67c15001104b90f0bbf80558fd10780c6136ea660a95d75ea900000000"
}