{
  "txid": "b6970b46a55e006d1b66e4cf71d607c15776936f62bb39098cbe2f823a4f5deb",
  "version": 1,
  "locktime": 0,
  "vin": [
    {
      "txid": "46c087f26811eacc3fe05f462064df22a35d36be5b0ad088243feed48e21ebab",
      "vout": 17,
      "prevout": {
        "scriptpubkey": "00146bfcfa06c4f59eccdaa879c02d6d22b224552f01",
        "scriptpubkey_asm": "OP_0 OP_PUSHBYTES_20 6bfcfa06c4f59eccdaa879c02d6d22b224552f01",
        "scriptpubkey_type": "v0_p2wpkh",
        "scriptpubkey_address": "bc1qd0705pky7k0vek4g08qz6mfzkgj92tcppleafw",
        "value": 234453
      },
      "scriptsig": "",
      "scriptsig_asm": "",
      "witness": [
        "3045022100c750ae946f2fb3312383d716b72613309f35fec68d6b3bdd2fbe94a5dbf77caf02202d253af8a3804ccb9c1b9ff9f1870fef69ce8d4a0cf6092d6985a2494fbb292201",
        "03d634d9f6807c17edfa74db3121d3eb8380d8cf2266d5ae07092433aedf07883d"
      ],
      "is_coinbase": false,
      "sequence": 4294967293
    },
    {
      "txid": "8f9b1881c738c6d296ad912a0bfc82004a81065ce478bd23210b206ce54ce22a",
      "vout": 5,
      "prevout": {
        "scriptpubkey": "00141b0498e8413dc876bfda51e8ec1be4b21c3f9ed9",
        "scriptpubkey_asm": "OP_0 OP_PUSHBYTES_20 1b0498e8413dc876bfda51e8ec1be4b21c3f9ed9",
        "scriptpubkey_type": "v0_p2wpkh",
        "scriptpubkey_address": "bc1qrvzf36zp8hy8d076285wcxlykgwrl8kegh5r4u",
        "value": 227700
      },
      "scriptsig": "",
      "scriptsig_asm": "",
      "witness": [
        "3045022100c9dcdb9abbb81bc8a541cde01068e3c94f285d7972587f597af607569ec1ead102201abe0d493fbe101a5e671144b6cea7c857d915c3b8463482ef8490f775ffc13201",
        "03bcc74545693c315611693ab96dc6c5a197347b937146d0ba346286ab408aabcf"
      ],
      "is_coinbase": false,
      "sequence": 4294967293
    },
    {
      "txid": "712472c11c41a3853a956695afd27c0959e4d22e9cb116ccc85533a580b58c90",
      "vout": 14,
      "prevout": {
        "scriptpubkey": "00144a46e32891702f65e74fd225caf796037fc5aece",
        "scriptpubkey_asm": "OP_0 OP_PUSHBYTES_20 4a46e32891702f65e74fd225caf796037fc5aece",
        "scriptpubkey_type": "v0_p2wpkh",
        "scriptpubkey_address": "bc1qffrwx2y3wqhkte606gju4aukqdluttkwvdm76f",
        "value": 220702
      },
      "scriptsig": "",
      "scriptsig_asm": "",
      "witness": [
        "3045022100c498ee5bc8f679c6ac71ea29e296421626f2d19e6e24cd4131d6bde6a19c357c02206a8b6e3c87dd41884f9fd001b8ebd6a364dff41fa8aeaaa436374ae930e9e14501",
        "030085dc6849cc97a28556d686493259503714d4e92165e7297845d4bc0c79108f"
      ],
      "is_coinbase": false,
      "sequence": 4294967293
    },
    {
      "txid": "2b023e1501a00bda81f072552866ae84e4a2348ae77c7ef3fb73347bbe54a93c",
      "vout": 65,
      "prevout": {
        "scriptpubkey": "0014864cf212e144bd41e3f88d2bd8183fabd857c848",
        "scriptpubkey_asm": "OP_0 OP_PUSHBYTES_20 864cf212e144bd41e3f88d2bd8183fabd857c848",
        "scriptpubkey_type": "v0_p2wpkh",
        "scriptpubkey_address": "bc1qsex0yyhpgj75rclc354asxpl40v90jzgrqa7j2",
        "value": 218364
      },
      "scriptsig": "",
      "scriptsig_asm": "",
      "witness": [
        "3045022100aa20cdbde46b8ec0539c295cf1dc8e1c8ec2dfba09d575fd2840730a0263f04d0220249d0d263a89bd0c6ca7991c5c8377e080f8aaca806f511936612d119ec5ecee01",
        "0367dd6a46f0d66a37a694104e884c7c1dc7573a8e3c04db6e51b7e6f628c1c311"
      ],
      "is_coinbase": false,
      "sequence": 4294967293
    },
    {
      "txid": "7a1ae84cf39ab9a7e2764645ea4bd5654125dff59cefe1257e2d7c68618582f6",
      "vout": 23,
      "prevout": {
        "scriptpubkey": "0014933c384875313625facae4c0007447a3bcb6b216",
        "scriptpubkey_asm": "OP_0 OP_PUSHBYTES_20 933c384875313625facae4c0007447a3bcb6b216",
        "scriptpubkey_type": "v0_p2wpkh",
        "scriptpubkey_address": "bc1qjv7rsjr4xymzt7k2unqqqaz85w7tdvsk6y9h72",
        "value": 217911
      },
      "scriptsig": "",
      "scriptsig_asm": "",
      "witness": [
        "30450221008f78990e884c5a3718a60194b98f0c907d3ae4dda266ab9c1bd8cd48fca9a7c502205a7b912e850818b24e5e2e5fe5c96245e19de35c07d429c9d083e7fb9dd56e0701",
        "024ecac1c20bf537fc0368a95fd39ae16593fbd84a3c51d1187851b8ae1a59570b"
      ],
      "is_coinbase": false,
      "sequence": 4294967293
    },
    {
      "txid": "9f6fe04c443b3996dd69e8c8efff8e74eac39510357538441df994217acd5370",
      "vout": 11,
      "prevout": {
        "scriptpubkey": "0014a0d9ce1e8042e44d40a1f915b68f9b4529c772cc",
        "scriptpubkey_asm": "OP_0 OP_PUSHBYTES_20 a0d9ce1e8042e44d40a1f915b68f9b4529c772cc",
        "scriptpubkey_type": "v0_p2wpkh",
        "scriptpubkey_address": "bc1q5rvuu85qgtjy6s9ply2mdrumg55uwukvs3fgw6",
        "value": 214257
      },
      "scriptsig": "",
      "scriptsig_asm": "",
      "witness": [
        "304502210086a8d6cc10dcedb8197e1cf0499a54c7e9e028d2dd4533eadada78f501970c7002204dec0cd6877c824552013698c933a9ec4733a355e305f6a64f67478af82f496e01",
        "030c055b3b73dd1f4a7a446fa2f31b761de8a194de5324bb48e610296ed021c032"
      ],
      "is_coinbase": false,
      "sequence": 4294967293
    },
    {
      "txid": "305102700295fdcda2e2f735db27c0af336309c57aed9271db801dcab3dc48d5",
      "vout": 20,
      "prevout": {
        "scriptpubkey": "0014ba2e0a1a2ed0717881c2131f78a07ab1d7dbe843",
        "scriptpubkey_asm": "OP_0 OP_PUSHBYTES_20 ba2e0a1a2ed0717881c2131f78a07ab1d7dbe843",
        "scriptpubkey_type": "v0_p2wpkh",
        "scriptpubkey_address": "bc1qhghq5x3w6pch3qwzzv0h3gr6k8tah6zrtgr099",
        "value": 198878
      },
      "scriptsig": "",
      "scriptsig_asm": "",
      "witness": [
        "30450221008bb4ebe5e3d8c50f549e04d40e824876f9b614e006fb481eb34c4bde552ed8fb02206b7184cf5921485e6d2a285a418f52d834e777a09b5a19ccf330a2e976db414b01",
        "034f7ec7fd8941e5616d20610d5e7c3fb86c2eb760312470ffbd32cfaa30c0eb09"
      ],
      "is_coinbase": false,
      "sequence": 4294967293
    }
  ],
  "vout": [
    {
      "scriptpubkey": "0014d5f0331888012e41961299d17ce40fc75efc9981",
      "scriptpubkey_asm": "OP_0 OP_PUSHBYTES_20 d5f0331888012e41961299d17ce40fc75efc9981",
      "scriptpubkey_type": "v0_p2wpkh",
      "scriptpubkey_address": "bc1q6hcrxxygqyhyr9sjn8gheeq0ca00exvpnrqzgq",
      "value": 1516665
    }
  ],
  "size": 1086,
  "weight": 2070,
  "fee": 15600,
  "status": {
    "confirmed": true,
    "block_height": 834638,
    "block_hash": "000000000000000000025f742c626208ac87e0b7d15054abb4a19ca2d735a54e",
    "block_time": 1710405325
  },
  "hex": "01000000000107abeb218ed4ee3f2488d00a5bbe365da322df6420465fe03fccea1168f287c0461100000000fdffffff2ae24ce56c200b2123bd78e45c06814a0082fc0b2a91ad96d2c638c781189b8f0500000000fdffffff908cb580a53355c8cc16b19c2ed2e459097cd2af9566953a85a3411cc17224710e00000000fdffffff3ca954be7b3473fbf37e7ce78a34a2e484ae66285572f081da0ba001153e022b4100000000fdfffffff6828561687c2d7e25e1ef9cf5df254165d54bea454676e2a7b99af34ce81a7a1700000000fdffffff7053cd7a2194f91d443875351095c3ea748effefc8e869dd96393b444ce06f9f0b00000000fdffffffd548dcb3ca1d80db7192ed7ac5096333afc027db35f7e2a2cdfd9502700251301400000000fdffffff017924170000000000160014d5f0331888012e41961299d17ce40fc75efc998102483045022100c750ae946f2fb3312383d716b72613309f35fec68d6b3bdd2fbe94a5dbf77caf02202d253af8a3804ccb9c1b9ff9f1870fef69ce8d4a0cf6092d6985a2494fbb2922012103d634d9f6807c17edfa74db3121d3eb8380d8cf2266d5ae07092433aedf07883d02483045022100c9dcdb9abbb81bc8a541cde01068e3c94f285d7972587f597af607569ec1ead102201abe0d493fbe101a5e671144b6cea7c857d915c3b8463482ef8490f775ffc132012103bcc74545693c315611693ab96dc6c5a197347b937146d0ba346286ab408aabcf02483045022100c498ee5bc8f679c6ac71ea29e296421626f2d19e6e24cd4131d6bde6a19c357c02206a8b6e3c87dd41884f9fd001b8ebd6a364dff41fa8aeaaa436374ae930e9e1450121030085dc6849cc97a28556d686493259503714d4e92165e7297845d4bc0c79108f02483045022100aa20cdbde46b8ec0539c295cf1dc8e1c8ec2dfba09d575fd2840730a0263f04d0220249d0d263a89bd0c6ca7991c5c8377e080f8aaca806f511936612d119ec5ecee01210367dd6a46f0d66a37a694104e884c7c1dc7573a8e3c04db6e51b7e6f628c1c311024830450221008f78990e884c5a3718a60194b98f0c907d3ae4dda266ab9c1bd8cd48fca9a7c502205a7b912e850818b24e5e2e5fe5c96245e19de35c07d429c9d083e7fb9dd56e070121024ecac1c20bf537fc0368a95fd39ae16593fbd84a3c51d1187851b8ae1a59570b0248304502210086a8d6cc10dcedb8197e1cf0499a54c7e9e028d2dd4533eadada78f501970c7002204dec0cd6877c824552013698c933a9ec4733a355e305f6a64f67478af82f496e0121030c055b3b73dd1f4a7a446fa2f31b761de8a194de5324bb48e610296ed021c032024830450221008bb4ebe5e3d8c50f549e04d40e824876f9b614e006fb481eb34c4bde552ed8fb02206b7184cf5921485e6d2a285a418f52d834e777a09b5a19ccf330a2e976db414b0121034f7ec7fd8941e5616d20610d5e7c3fb86c2eb760312470ffbd32cfaa30c0eb0900000000"
}