{
  "txid": "b69c622628dc20c41d7f4bb9e1cebdedd2fec401638ede17fd890dc4cdc2bb06",
  "version": 1,
  "locktime": 0,
  "vin": [
    {
      "txid": "888888f9f1df089c5466eb9cea80478d52710a0eb3643ffc2d4984517ce89248",
      "vout": 0,
      "prevout": {
        "scriptpubkey": "5120d5b01d1a1ade06c59ed0658903779c8621d92fe4a38fd2536c973f120a5cfe19",
        "scriptpubkey_asm": "OP_PUSHNUM_1 OP_PUSHBYTES_32 d5b01d1a1ade06c59ed0658903779c8621d92fe4a38fd2536c973f120a5cfe19",
        "scriptpubkey_type": "v1_p2tr",
        "scriptpubkey_address": "bc1p6kcp6xs6mcrvt8ksvkysxauuscsajtly5w8ay5mvjul3yzjulcvsjlpkxe",
        "value": 11633
      },
      "scriptsig": "",
      "scriptsig_asm": "",
      "witness": [
        "da01a0c75c8550a4d6c3d81d4d8f839a85cbaa19c5a0ecab35eb82e3c8b93288122f714477d721c36d13ca2d2e7e5a611c51914671795d15ce0caafdb6136b4d83",
        "20be11f1d0580232188e877ef283eb5a1efd4e9e5290a2633605d666f59ad3fff2ac00630461746f6d03646d7444a16461726773a468626974776f726b63693838383838382e31356b6d696e745f7469636b657268696e66696e697479656e6f6e63651a008bf17f6474696d651a65dc4eb168",
        "c1be11f1d0580232188e877ef283eb5a1efd4e9e5290a2633605d666f59ad3fff2"
      ],
      "is_coinbase": false,
      "sequence": 4294967293
    }
  ],
  "vout": [
    {
      "scriptpubkey": "512038d1484682596ee16f625f98e34a6dbd9b0cdbdb6187c074d09b34362b32126f",
      "scriptpubkey_asm": "OP_PUSHNUM_1 OP_PUSHBYTES_32 38d1484682596ee16f625f98e34a6dbd9b0cdbdb6187c074d09b34362b32126f",
      "scriptpubkey_type": "v1_p2tr",
      "scriptpubkey_address": "bc1p8rg5s35zt9hwzmmzt7vwxjndhkdsek7mvxruqaxsnv6rv2ejzfhsey3ny9",
      "value": 9999
    }
  ],
  "size": 313,
  "weight": 595,
  "fee": 1634,
  "status": {
    "confirmed": true,
    "block_height": 834464,
    "block_hash": "0000000000000000000177a0869a911a2b65c9bdcd5a8bcb02b68f305bee848e",
    "block_time": 1710308296
  },
  "hex": "010000000001014892e87c5184492dfc3f64b30e0a71528d4780ea9ceb66549c08dff1f98888880000000000fdffffff010f2700000000000022512038d1484682596ee16f625f98e34a6dbd9b0cdbdb6187c074d09b34362b32126f0341da01a0c75c8550a4d6c3d81d4d8f839a85cbaa19c5a0ecab35eb82e3c8b93288122f714477d721c36d13ca2d2e7e5a611c51914671795d15ce0caafdb6136b4d837320be11f1d0580232188e877ef283eb5a1efd4e9e5290a2633605d666f59ad3fff2ac00630461746f6d03646d7444a16461726773a468626974776f726b63693838383838382e31356b6d696e745f7469636b657268696e66696e697479656e6f6e63651a008bf17f6474696d651a65dc4eb16821c1be11f1d0580232188e877ef283eb5a1efd4e9e5290a2633605d666f59ad3fff200000000"
}