{
  "txid": "b6a5d62a4ba3c02a520e3ebd7ab715dd111b3da917894bd807f3ed134f9f5e30",
  "version": 2,
  "locktime": 0,
  "vin": [
    {
      "txid": "556d1372cc6566c09671ff84f13b2227134ac70a941f8f325af7f34844fefb74",
      "vout": 2,
      "prevout": {
        "scriptpubkey": "51205e77ecffb3ce04e72958e6bc6168b2d69157b97328435c4129b25eb9e0741a0a",
        "scriptpubkey_asm": "OP_PUSHNUM_1 OP_PUSHBYTES_32 5e77ecffb3ce04e72958e6bc6168b2d69157b97328435c4129b25eb9e0741a0a",
        "scriptpubkey_type": "v1_p2tr",
        "scriptpubkey_address": "bc1ptem7elaneczww22cu67xz69j66g40wtn9pp4csffkf0tncr5rg9q6j0xef",
        "value": 555
      },
      "scriptsig": "",
      "scriptsig_asm": "",
      "witness": [
        "2e7356b1e1ebaf9e5620d94990dec3f047ddd8936f1261bae570a0654f74c9bf429d1d6d004b1bbdcf087944436daec6b81c44bce9245612b1de366384f164ac"
      ],
      "is_coinbase": false,
      "sequence": 4294967295
    },
    {
      "txid": "86799ca49832bff5fffde205f976160115c9c5b8d8de9f53309565a02421ae41",
      "vout": 1,
      "prevout": {
        "scriptpubkey": "51205e77ecffb3ce04e72958e6bc6168b2d69157b97328435c4129b25eb9e0741a0a",
        "scriptpubkey_asm": "OP_PUSHNUM_1 OP_PUSHBYTES_32 5e77ecffb3ce04e72958e6bc6168b2d69157b97328435c4129b25eb9e0741a0a",
        "scriptpubkey_type": "v1_p2tr",
        "scriptpubkey_address": "bc1ptem7elaneczww22cu67xz69j66g40wtn9pp4csffkf0tncr5rg9q6j0xef",
        "value": 7799400
      },
      "scriptsig": "",
      "scriptsig_asm": "",
      "witness": [
        "be17ea8a21241dc4f81436165dce6b6b6bd862d785ca7b24e82f4515535dc0baf9c141343bc34b459d02e289ffb699f514ea33b98ede49ce0e36f1df55d30100"
      ],
      "is_coinbase": false,
      "sequence": 4294967295
    }
  ],
  "vout": [
    {
      "scriptpubkey": "0014882da4beca7abc72b6075f9a3e2d7e29b85811b7",
      "scriptpubkey_asm": "OP_0 OP_PUSHBYTES_20 882da4beca7abc72b6075f9a3e2d7e29b85811b7",
      "scriptpubkey_type": "v0_p2wpkh",
      "scriptpubkey_address": "bc1q3qk6f0k202789ds8t7drutt79xu9sydhdx4mtg",
      "value": 555
    },
    {
      "scriptpubkey": "51205e77ecffb3ce04e72958e6bc6168b2d69157b97328435c4129b25eb9e0741a0a",
      "scriptpubkey_asm": "OP_PUSHNUM_1 OP_PUSHBYTES_32 5e77ecffb3ce04e72958e6bc6168b2d69157b97328435c4129b25eb9e0741a0a",
      "scriptpubkey_type": "v1_p2tr",
      "scriptpubkey_address": "bc1ptem7elaneczww22cu67xz69j66g40wtn9pp4csffkf0tncr5rg9q6j0xef",
      "value": 7796400
    }
  ],
  "size": 300,
  "weight": 798,
  "fee": 3000,
  "status": {
    "confirmed": true,
    "block_height": 834638,
    "block_hash": "000000000000000000025f742c626208ac87e0b7d15054abb4a19ca2d735a54e",
    "block_time": 1710405325
  },
  "hex": "0200000000010274fbfe4448f3f75a328f1f940ac74a1327223bf184ff7196c06665cc72136d550200000000ffffffff41ae2124a0659530539fded8b8c5c915011676f905e2fdfff5bf3298a49c79860100000000ffffffff022b02000000000000160014882da4beca7abc72b6075f9a3e2d7e29b85811b7b0f67600000000002251205e77ecffb3ce04e72958e6bc6168b2d69157b97328435c4129b25eb9e0741a0a01402e7356b1e1ebaf9e5620d94990dec3f047ddd8936f1261bae570a0654f74c9bf429d1d6d004b1bbdcf087944436daec6b81c44bce9245612b1de366384f164ac0140be17ea8a21241dc4f81436165dce6b6b6bd862d785ca7b24e82f4515535dc0baf9c141343bc34b459d02e289ffb699f514ea33b98ede49ce0e36f1df55d3010000000000"
}