{
  "txid": "b6a71fe4efbd8871c7839b325c20c50c968a8369db8ab50a7bfccddae8e9731c",
  "version": 2,
  "locktime": 0,
  "vin": [
    {
      "txid": "acc3ba00869acb582a3f2904ce3a11dd3779350ce234063fc7d0959246213364",
      "vout": 38,
      "prevout": {
        "scriptpubkey": "512009352e3e1aa94112e48f79f1116c6e0a8792abb91550f3e75e7cfbb35fa53f4d",
        "scriptpubkey_asm": "OP_PUSHNUM_1 OP_PUSHBYTES_32 09352e3e1aa94112e48f79f1116c6e0a8792abb91550f3e75e7cfbb35fa53f4d",
        "scriptpubkey_type": "v1_p2tr",
        "scriptpubkey_address": "bc1ppy6ju0s649q39ey008c3zmrwp2re92aez4g08e670namxha98axstv735e",
        "value": 1806
      },
      "scriptsig": "",
      "scriptsig_asm": "",
      "witness": [
        "a49d4537d6011bdefb39643e46808f918cb72a694fe3e6d3c4f56234090360f60e38cff56cd0c71e407f0a916aa8dcb7babb87780c972c65afee3d27cd96f60a",
        "2095d30939468af11d159e0719609ac5c9d55cd29b2f9206b2a87f17a198c7f78eac0063036f726401010a746578742f706c61696e00357b2270223a226272632d3230222c226f70223a226d696e74222c227469636b223a22646f6765222c22616d74223a2234323030227d68",
        "c195d30939468af11d159e0719609ac5c9d55cd29b2f9206b2a87f17a198c7f78e"
      ],
      "is_coinbase": false,
      "sequence": 4261412863
    }
  ],
  "vout": [
    {
      "scriptpubkey": "00147a665de7a370f4c9b372ab1fae587500a5bcbdb4",
      "scriptpubkey_asm": "OP_0 OP_PUSHBYTES_20 7a665de7a370f4c9b372ab1fae587500a5bcbdb4",
      "scriptpubkey_type": "v0_p2wpkh",
      "scriptpubkey_address": "bc1q0fn9mearwr6vnvmj4v06ukr4qzjme0d565dzcx",
      "value": 294
    }
  ],
  "size": 294,
  "weight": 540,
  "fee": 1512,
  "status": {
    "confirmed": true,
    "block_height": 834460,
    "block_hash": "00000000000000000000484a79b643b2524bbce82e5d8a442013fa5b8905ed98",
    "block_time": 1710307468
  },
  "hex": "02000000000101643321469295d0c73f0634e20c357937dd113ace04293f2a58cb9a8600bac3ac2600000000fffffffd0126010000000000001600147a665de7a370f4c9b372ab1fae587500a5bcbdb40340a49d4537d6011bdefb39643e46808f918cb72a694fe3e6d3c4f56234090360f60e38cff56cd0c71e407f0a916aa8dcb7babb87780c972c65afee3d27cd96f60a6d2095d30939468af11d159e0719609ac5c9d55cd29b2f9206b2a87f17a198c7f78eac0063036f726401010a746578742f706c61696e00357b2270223a226272632d3230222c226f70223a226d696e74222c227469636b223a22646f6765222c22616d74223a2234323030227d6821c195d30939468af11d159e0719609ac5c9d55cd29b2f9206b2a87f17a198c7f78e00000000"
}