{
  "txid": "b6a86b01e92c218ca7e9442280b51bc6483efe51194154ce42ae2c77de5e8200",
  "version": 1,
  "locktime": 0,
  "vin": [
    {
      "txid": "c3f86044b523041ca4127253c2a9c9e06443c23b88b6719aa3ee1e7008741c43",
      "vout": 140,
      "prevout": {
        "scriptpubkey": "0014ead048c65b443dcf40116f61faf4c8779b79e601",
        "scriptpubkey_asm": "OP_0 OP_PUSHBYTES_20 ead048c65b443dcf40116f61faf4c8779b79e601",
        "scriptpubkey_type": "v0_p2wpkh",
        "scriptpubkey_address": "bc1qatgy33jmgs7u7sq3dasl4axgw7dhnespt948m5",
        "value": 46245
      },
      "scriptsig": "",
      "scriptsig_asm": "",
      "witness": [
        "3045022100f668c7eb07ac5f712f0fcd4f42ba4035c738c59ef18b61554d148e2bb3befda0022055395278d34bfc3c79a77697a3a9b7ea3310430106a5379bca8aa9d7abaf84c101",
        "02ef564a2a06953b4dccef58f988560df26792bc8e8ac1727ed3891d58b1f72fa8"
      ],
      "is_coinbase": false,
      "sequence": 4294967293
    },
    {
      "txid": "4e242996f3c4fa4762757d00f9fdb2e2753598e62ed4af2d4cb20ff8d9caccf2",
      "vout": 156,
      "prevout": {
        "scriptpubkey": "00147f4bcb850020c1a76f65a464db4245c805f2fd48",
        "scriptpubkey_asm": "OP_0 OP_PUSHBYTES_20 7f4bcb850020c1a76f65a464db4245c805f2fd48",
        "scriptpubkey_type": "v0_p2wpkh",
        "scriptpubkey_address": "bc1q0a9uhpgqyrq6wmm953jdksj9eqzl9l2ghffq9x",
        "value": 46224
      },
      "scriptsig": "",
      "scriptsig_asm": "",
      "witness": [
        "30440220617c0afd8a911ca8745d36a80674b02e8483daa21a51f8621cf8ae592205031702200520c05eaf26626e78e6da68fb11f65837783fb6250122b08378e0602d549ccf01",
        "02c22e666d611879bedbf9c05a8164f1414802377418916a616119f6f7b6958b13"
      ],
      "is_coinbase": false,
      "sequence": 4294967293
    },
    {
      "txid": "ffd83010ad61614cfcc1bc30d710df8b1cfe8ecc43a2420a5b415510d0844bce",
      "vout": 133,
      "prevout": {
        "scriptpubkey": "0014398694ad35e47872239ac0f234fb4a52389dce4f",
        "scriptpubkey_asm": "OP_0 OP_PUSHBYTES_20 398694ad35e47872239ac0f234fb4a52389dce4f",
        "scriptpubkey_type": "v0_p2wpkh",
        "scriptpubkey_address": "bc1q8xrfftf4u3u8ygu6crerf7622gufmnj0nxl3f7",
        "value": 46214
      },
      "scriptsig": "",
      "scriptsig_asm": "",
      "witness": [
        "30440220232a569a2e30f1e1c78b3cc567dd116f587af1411ec568cb11b3445422a77f8b02204c5c633be96be27804671b7c5f3cc0ffa4116bd431fd2b3e9f2ba535c4835b5701",
        "03c73a1aaa63224f61a04737c91601024395e8a2cf2915b440635dc244016941cf"
      ],
      "is_coinbase": false,
      "sequence": 4294967293
    },
    {
      "txid": "1175dad9538c8d5a923210a69b43864d3a78139b6ca0997d71a0ea342752489e",
      "vout": 22,
      "prevout": {
        "scriptpubkey": "0014320168eb9604a32bfa79b71ea46b371c64a7f98f",
        "scriptpubkey_asm": "OP_0 OP_PUSHBYTES_20 320168eb9604a32bfa79b71ea46b371c64a7f98f",
        "scriptpubkey_type": "v0_p2wpkh",
        "scriptpubkey_address": "bc1qxgqk36ukqj3jh7neku02g6ehr3j207v0pnvpwh",
        "value": 46193
      },
      "scriptsig": "",
      "scriptsig_asm": "",
      "witness": [
        "3045022100a5a2777d155cf0ebf64e31ae7878e927def431c1aff292e9f90ce8c42ed85b20022018f66ebf983a5e1cf6852aa78fd4eb3f15dcab2a5b914fea862943d687ed087001",
        "02512a8953ff4d3ccea5cb4dd3fc6f8e1cf598e195eba3fec5cb7886bf14a1b2b1"
      ],
      "is_coinbase": false,
      "sequence": 4294967293
    }
  ],
  "vout": [
    {
      "scriptpubkey": "0014158fd457405712f0691ff4f5098f2b9e93c663c1",
      "scriptpubkey_asm": "OP_0 OP_PUSHBYTES_20 158fd457405712f0691ff4f5098f2b9e93c663c1",
      "scriptpubkey_type": "v0_p2wpkh",
      "scriptpubkey_address": "bc1qzk8ag46q2uf0q6gl7n6snretn6fuvc7pn4qdmt",
      "value": 176660
    }
  ],
  "size": 637,
  "weight": 1252,
  "fee": 8216,
  "status": {
    "confirmed": true,
    "block_height": 834460,
    "block_hash": "00000000000000000000484a79b643b2524bbce82e5d8a442013fa5b8905ed98",
    "block_time": 1710307468
  },
  "hex": "01000000000104431c7408701eeea39a71b6883bc24364e0c9a9c2537212a41c0423b54460f8c38c00000000fdfffffff2cccad9f80fb24c2dafd42ee6983575e2b2fdf9007d756247fac4f39629244e9c00000000fdffffffce4b84d01055415b0a42a243cc8efe1c8bdf10d730bcc1fc4c6161ad1030d8ff8500000000fdffffff9e48522734eaa0717d99a06c9b13783a4d86439ba61032925a8d8c53d9da75111600000000fdffffff0114b2020000000000160014158fd457405712f0691ff4f5098f2b9e93c663c102483045022100f668c7eb07ac5f712f0fcd4f42ba4035c738c59ef18b61554d148e2bb3befda0022055395278d34bfc3c79a77697a3a9b7ea3310430106a5379bca8aa9d7abaf84c1012102ef564a2a06953b4dccef58f988560df26792bc8e8ac1727ed3891d58b1f72fa8024730440220617c0afd8a911ca8745d36a80674b02e8483daa21a51f8621cf8ae592205031702200520c05eaf26626e78e6da68fb11f65837783fb6250122b08378e0602d549ccf012102c22e666d611879bedbf9c05a8164f1414802377418916a616119f6f7b6958b13024730440220232a569a2e30f1e1c78b3cc567dd116f587af1411ec568cb11b3445422a77f8b02204c5c633be96be27804671b7c5f3cc0ffa4116bd431fd2b3e9f2ba535c4835b57012103c73a1aaa63224f61a04737c91601024395e8a2cf2915b440635dc244016941cf02483045022100a5a2777d155cf0ebf64e31ae7878e927def431c1aff292e9f90ce8c42ed85b20022018f66ebf983a5e1cf6852aa78fd4eb3f15dcab2a5b914fea862943d687ed0870012102512a8953ff4d3ccea5cb4dd3fc6f8e1cf598e195eba3fec5cb7886bf14a1b2b100000000"
}