{
  "txid": "b6ad214738e04d70a6a263dd57db883cd624ad029b362d9a6c94e741149c1be1",
  "version": 2,
  "locktime": 0,
  "vin": [
    {
      "txid": "acc3ba00869acb582a3f2904ce3a11dd3779350ce234063fc7d0959246213364",
      "vout": 259,
      "prevout": {
        "scriptpubkey": "5120752295d9f08ea199f8ebdb4ebf553bd9826aafc84c5930ba75d62b88e99410be",
        "scriptpubkey_asm": "OP_PUSHNUM_1 OP_PUSHBYTES_32 752295d9f08ea199f8ebdb4ebf553bd9826aafc84c5930ba75d62b88e99410be",
        "scriptpubkey_type": "v1_p2tr",
        "scriptpubkey_address": "bc1pw53ftk0s36sen78tmd8t74fmmxpx4t7gf3vnpwn46c4c36v5zzlqk9pdtr",
        "value": 1806
      },
      "scriptsig": "",
      "scriptsig_asm": "",
      "witness": [
        "f3c560085d3bae16ce5afda34a0012d9bee017f0193e81b52cebafb63ee3e5f23755546815e44b18766ce97719fb0baa8d9e811cd4e6d9a337ce794c6f871e54",
        "20c039a09cd59d78582c4e9164d327458ca69880571451324df78230e06f00261bac0063036f726401010a746578742f706c61696e00357b2270223a226272632d3230222c226f70223a226d696e74222c227469636b223a22646f6765222c22616d74223a2234323030227d68",
        "c1c039a09cd59d78582c4e9164d327458ca69880571451324df78230e06f00261b"
      ],
      "is_coinbase": false,
      "sequence": 4261412863
    }
  ],
  "vout": [
    {
      "scriptpubkey": "00147a665de7a370f4c9b372ab1fae587500a5bcbdb4",
      "scriptpubkey_asm": "OP_0 OP_PUSHBYTES_20 7a665de7a370f4c9b372ab1fae587500a5bcbdb4",
      "scriptpubkey_type": "v0_p2wpkh",
      "scriptpubkey_address": "bc1q0fn9mearwr6vnvmj4v06ukr4qzjme0d565dzcx",
      "value": 294
    }
  ],
  "size": 294,
  "weight": 540,
  "fee": 1512,
  "status": {
    "confirmed": true,
    "block_height": 834460,
    "block_hash": "00000000000000000000484a79b643b2524bbce82e5d8a442013fa5b8905ed98",
    "block_time": 1710307468
  },
  "hex": "02000000000101643321469295d0c73f0634e20c357937dd113ace04293f2a58cb9a8600bac3ac0301000000fffffffd0126010000000000001600147a665de7a370f4c9b372ab1fae587500a5bcbdb40340f3c560085d3bae16ce5afda34a0012d9bee017f0193e81b52cebafb63ee3e5f23755546815e44b18766ce97719fb0baa8d9e811cd4e6d9a337ce794c6f871e546d20c039a09cd59d78582c4e9164d327458ca69880571451324df78230e06f00261bac0063036f726401010a746578742f706c61696e00357b2270223a226272632d3230222c226f70223a226d696e74222c227469636b223a22646f6765222c22616d74223a2234323030227d6821c1c039a09cd59d78582c4e9164d327458ca69880571451324df78230e06f00261b00000000"
}