{
  "txid": "b6bf3d7f8f848e05bcea458fc0f78cebdac333e837aa0edf4a016504468efc20",
  "version": 2,
  "locktime": 0,
  "vin": [
    {
      "txid": "d18ed70056c00a6cd5de0ccb10b1ae8f7dd5250f9d0f22c727aba826d03302c8",
      "vout": 10,
      "prevout": {
        "scriptpubkey": "5120c660150813a50f1770298f30b1138cae6f3e76cdc334d579f1b533f9efcd5ae6",
        "scriptpubkey_asm": "OP_PUSHNUM_1 OP_PUSHBYTES_32 c660150813a50f1770298f30b1138cae6f3e76cdc334d579f1b533f9efcd5ae6",
        "scriptpubkey_type": "v1_p2tr",
        "scriptpubkey_address": "bc1pcesp2zqn5583wupf3uctzyuv4ehnuakdcv6d2703k5elnm7dttnqu462v3",
        "value": 3010
      },
      "scriptsig": "",
      "scriptsig_asm": "",
      "witness": [
        "f4a42f39982982021d45c42d7f462abdca1f6378161ca861ddabe0847ba4a2a0e7f7fdf34103424b355ff9e611d2da3b78c23d3d81977272a891d097abffdb50",
        "20e057483c1d9ddc9be46260266165db7f6b481a1489a73ab7de67e6ea00f3d322ac0063036f726401011e6170706c69636174696f6e2f6a736f6e3b636861727365743d7574662d38004cbf7b2270223a22706f772d3230222c226f70223a226d696e74222c227469636b223a2250455045222c22616d74223a2231303030222c22736f6c7574696f6e223a22504550453a6263317168337833756334707a796478716436757776376e3732676874787a33753937306564663078613a303030303030303030303030303030303030303139393431613561653132383937363539383134343239323533333030353762306461393666336465613163353a3230353239323033323630227d68",
        "c0e5c6b8d70510d88b341fcdd9a2aa08913e89d9e736480c530fde3fe13419cdab"
      ],
      "is_coinbase": false,
      "sequence": 4294967295
    }
  ],
  "vout": [
    {
      "scriptpubkey": "0014bc4d1e62a1111a60375c733d3f291759851e17cf",
      "scriptpubkey_asm": "OP_0 OP_PUSHBYTES_20 bc4d1e62a1111a60375c733d3f291759851e17cf",
      "scriptpubkey_type": "v0_p2wpkh",
      "scriptpubkey_address": "bc1qh3x3uc4pzydxqd6uwv7n72ghtxz3u970edf0xa",
      "value": 546
    }
  ],
  "size": 455,
  "weight": 701,
  "fee": 2464,
  "status": {
    "confirmed": true,
    "block_height": 834460,
    "block_hash": "00000000000000000000484a79b643b2524bbce82e5d8a442013fa5b8905ed98",
    "block_time": 1710307468
  },
  "hex": "02000000000101c80233d026a8ab27c7220f9d0f25d57d8faeb110cb0cded56c0ac05600d78ed10a00000000ffffffff012202000000000000160014bc4d1e62a1111a60375c733d3f291759851e17cf0340f4a42f39982982021d45c42d7f462abdca1f6378161ca861ddabe0847ba4a2a0e7f7fdf34103424b355ff9e611d2da3b78c23d3d81977272a891d097abffdb50fd0c0120e057483c1d9ddc9be46260266165db7f6b481a1489a73ab7de67e6ea00f3d322ac0063036f726401011e6170706c69636174696f6e2f6a736f6e3b636861727365743d7574662d38004cbf7b2270223a22706f772d3230222c226f70223a226d696e74222c227469636b223a2250455045222c22616d74223a2231303030222c22736f6c7574696f6e223a22504550453a6263317168337833756334707a796478716436757776376e3732676874787a33753937306564663078613a303030303030303030303030303030303030303139393431613561653132383937363539383134343239323533333030353762306461393666336465613163353a3230353239323033323630227d6821c0e5c6b8d70510d88b341fcdd9a2aa08913e89d9e736480c530fde3fe13419cdab00000000"
}