{
  "txid": "b6c4665592bce1cfbe683cae7b1d471a83784450a50723c1d10da6215f66016c",
  "version": 2,
  "locktime": 0,
  "vin": [
    {
      "txid": "dc09e0541cf02fab5104542e660c774a630016f011e1313e97c5b8d947d66deb",
      "vout": 0,
      "prevout": {
        "scriptpubkey": "0014da5d2cbfdf87b23d2c52135b11526b605f1d84ff",
        "scriptpubkey_asm": "OP_0 OP_PUSHBYTES_20 da5d2cbfdf87b23d2c52135b11526b605f1d84ff",
        "scriptpubkey_type": "v0_p2wpkh",
        "scriptpubkey_address": "bc1qmfwje07ls7er6tzjzdd3z5ntvp03mp8laeuajf",
        "value": 25000
      },
      "scriptsig": "",
      "scriptsig_asm": "",
      "witness": [
        "3044022050cbfee2a94b97cddcd6dcf2d9ce0c27672905ef637f6817cd0260a7c15f0f8f0220074fdc3e66218688daf607b3c3f99fe8904238836c604f3574dcba523c5795ed01",
        "0345d191ebcda344fc6bfc43e8f2e2473f44cb3dd3f80e10360d03d140e2a2394a"
      ],
      "is_coinbase": false,
      "sequence": 4294967295
    },
    {
      "txid": "f83f44d15d277b1cc1f9353dfafab66526e92ca4be87bdefdcbb5fcf8b351ade",
      "vout": 0,
      "prevout": {
        "scriptpubkey": "0014da5d2cbfdf87b23d2c52135b11526b605f1d84ff",
        "scriptpubkey_asm": "OP_0 OP_PUSHBYTES_20 da5d2cbfdf87b23d2c52135b11526b605f1d84ff",
        "scriptpubkey_type": "v0_p2wpkh",
        "scriptpubkey_address": "bc1qmfwje07ls7er6tzjzdd3z5ntvp03mp8laeuajf",
        "value": 25000
      },
      "scriptsig": "",
      "scriptsig_asm": "",
      "witness": [
        "3045022100e027058fb10e9e09f19f0362be9d424436ef2d8e5f3fceeb472f8e5d4ea2b1ba022040032107077781c75c7f268bdd2cb669198fc0dfa98d9607e0ffa7864f8d981201",
        "0345d191ebcda344fc6bfc43e8f2e2473f44cb3dd3f80e10360d03d140e2a2394a"
      ],
      "is_coinbase": false,
      "sequence": 4294967295
    },
    {
      "txid": "84419beecd026615bde1d86656fa57951c798816e18d700aa264772701dbc3de",
      "vout": 4,
      "prevout": {
        "scriptpubkey": "0014da5d2cbfdf87b23d2c52135b11526b605f1d84ff",
        "scriptpubkey_asm": "OP_0 OP_PUSHBYTES_20 da5d2cbfdf87b23d2c52135b11526b605f1d84ff",
        "scriptpubkey_type": "v0_p2wpkh",
        "scriptpubkey_address": "bc1qmfwje07ls7er6tzjzdd3z5ntvp03mp8laeuajf",
        "value": 25000
      },
      "scriptsig": "",
      "scriptsig_asm": "",
      "witness": [
        "304402204fba8b1e0ef3c312da90f421ff01bdc31d9a8f8fedc989758eb11e0ea09948dd0220167edcc6aecc5cae38ca569f8aeedaa45f820bdb6da0ef8bfd32478bd0050dcb01",
        "0345d191ebcda344fc6bfc43e8f2e2473f44cb3dd3f80e10360d03d140e2a2394a"
      ],
      "is_coinbase": false,
      "sequence": 4294967295
    },
    {
      "txid": "70f7c66769e818b0a679d40f6de6ddae4db58e2fc380e1ff1da3adb339de25cd",
      "vout": 0,
      "prevout": {
        "scriptpubkey": "0014da5d2cbfdf87b23d2c52135b11526b605f1d84ff",
        "scriptpubkey_asm": "OP_0 OP_PUSHBYTES_20 da5d2cbfdf87b23d2c52135b11526b605f1d84ff",
        "scriptpubkey_type": "v0_p2wpkh",
        "scriptpubkey_address": "bc1qmfwje07ls7er6tzjzdd3z5ntvp03mp8laeuajf",
        "value": 25000
      },
      "scriptsig": "",
      "scriptsig_asm": "",
      "witness": [
        "304502210093da572745c3b0659a26bf7896538770a7cf2410a6a033fcefd61d4ad1003a09022063701b01612edeef94bbb48b0d4f47f4cd607b1db18309197f1f48e35a330b1e01",
        "0345d191ebcda344fc6bfc43e8f2e2473f44cb3dd3f80e10360d03d140e2a2394a"
      ],
      "is_coinbase": false,
      "sequence": 4294967295
    },
    {
      "txid": "67f36b577f65933ae94ea7b2e64f7f34989c0f069ea1b89ff2a1502b2a0f0e7b",
      "vout": 0,
      "prevout": {
        "scriptpubkey": "0014da5d2cbfdf87b23d2c52135b11526b605f1d84ff",
        "scriptpubkey_asm": "OP_0 OP_PUSHBYTES_20 da5d2cbfdf87b23d2c52135b11526b605f1d84ff",
        "scriptpubkey_type": "v0_p2wpkh",
        "scriptpubkey_address": "bc1qmfwje07ls7er6tzjzdd3z5ntvp03mp8laeuajf",
        "value": 25000
      },
      "scriptsig": "",
      "scriptsig_asm": "",
      "witness": [
        "304402202ee978509bb8923b6ea4e9d0de93bbcc14bc10fa12b3cbaebe0c415b0d11bfb402202976bdfe5c979d7d159d11165396456d62f1977ed71aec063b440e02ac221d4001",
        "0345d191ebcda344fc6bfc43e8f2e2473f44cb3dd3f80e10360d03d140e2a2394a"
      ],
      "is_coinbase": false,
      "sequence": 4294967295
    },
    {
      "txid": "e3dea75adfbf5d5ca61fe25383474bfd22a254256f6e78df49cbb8fcf7e6d557",
      "vout": 0,
      "prevout": {
        "scriptpubkey": "0014da5d2cbfdf87b23d2c52135b11526b605f1d84ff",
        "scriptpubkey_asm": "OP_0 OP_PUSHBYTES_20 da5d2cbfdf87b23d2c52135b11526b605f1d84ff",
        "scriptpubkey_type": "v0_p2wpkh",
        "scriptpubkey_address": "bc1qmfwje07ls7er6tzjzdd3z5ntvp03mp8laeuajf",
        "value": 25000
      },
      "scriptsig": "",
      "scriptsig_asm": "",
      "witness": [
        "30440220789378f994fb3a9dff9a97cad6fdd17b4550bff0378361b751d2d760cab2a20302203dd507bcecd8c4ee27e709306da9778021461ff9c06fb497a65675b9ed2221ae01",
        "0345d191ebcda344fc6bfc43e8f2e2473f44cb3dd3f80e10360d03d140e2a2394a"
      ],
      "is_coinbase": false,
      "sequence": 4294967295
    },
    {
      "txid": "080732568ab3d60623df121d60918d3d72ea67ff98a9136fc735dd190302da3d",
      "vout": 2,
      "prevout": {
        "scriptpubkey": "0014da5d2cbfdf87b23d2c52135b11526b605f1d84ff",
        "scriptpubkey_asm": "OP_0 OP_PUSHBYTES_20 da5d2cbfdf87b23d2c52135b11526b605f1d84ff",
        "scriptpubkey_type": "v0_p2wpkh",
        "scriptpubkey_address": "bc1qmfwje07ls7er6tzjzdd3z5ntvp03mp8laeuajf",
        "value": 25000
      },
      "scriptsig": "",
      "scriptsig_asm": "",
      "witness": [
        "3044022034fb0b79f21ef6b5670c84a05ca4bd4e67c45d26c058c84f2a026e63c253dcd9022032a507d13a06bc053053bccc939f742efc5cc93209a29de07ebc4460a677a26801",
        "0345d191ebcda344fc6bfc43e8f2e2473f44cb3dd3f80e10360d03d140e2a2394a"
      ],
      "is_coinbase": false,
      "sequence": 4294967295
    },
    {
      "txid": "3b3429eee0c581eb6f418c26af66d2afd9f9d05a3bf413fe12115673975b7fa3",
      "vout": 0,
      "prevout": {
        "scriptpubkey": "0014da5d2cbfdf87b23d2c52135b11526b605f1d84ff",
        "scriptpubkey_asm": "OP_0 OP_PUSHBYTES_20 da5d2cbfdf87b23d2c52135b11526b605f1d84ff",
        "scriptpubkey_type": "v0_p2wpkh",
        "scriptpubkey_address": "bc1qmfwje07ls7er6tzjzdd3z5ntvp03mp8laeuajf",
        "value": 25000
      },
      "scriptsig": "",
      "scriptsig_asm": "",
      "witness": [
        "3045022100dd6f83fb5ccdf6fb64aadedc273ea54952212abcb23fbc89d0d828045cc951f102200d2e4acb0aaa294ea86235090b516a1ca87b85aba10cf7bcfa34303699a35d3701",
        "0345d191ebcda344fc6bfc43e8f2e2473f44cb3dd3f80e10360d03d140e2a2394a"
      ],
      "is_coinbase": false,
      "sequence": 4294967295
    }
  ],
  "vout": [
    {
      "scriptpubkey": "0014419854753506f2b3e771860f36eb919d89cc890f",
      "scriptpubkey_asm": "OP_0 OP_PUSHBYTES_20 419854753506f2b3e771860f36eb919d89cc890f",
      "scriptpubkey_type": "v0_p2wpkh",
      "scriptpubkey_address": "bc1qgxv9gaf4qmet8em3sc8nd6u3nkyuezg0cg9p36",
      "value": 2222
    },
    {
      "scriptpubkey": "0014c3da1e98f377468b1dc302483d79507b75b62ce2",
      "scriptpubkey_asm": "OP_0 OP_PUSHBYTES_20 c3da1e98f377468b1dc302483d79507b75b62ce2",
      "scriptpubkey_type": "v0_p2wpkh",
      "scriptpubkey_address": "bc1qc0dpax8nwargk8wrqfyr672s0d6mvt8z0zj95y",
      "value": 189462
    }
  ],
  "size": 1261,
  "weight": 2461,
  "fee": 8316,
  "status": {
    "confirmed": true,
    "block_height": 834460,
    "block_hash": "00000000000000000000484a79b643b2524bbce82e5d8a442013fa5b8905ed98",
    "block_time": 1710307468
  },
  "hex": "02000000000108eb6dd647d9b8c5973e31e111f01600634a770c662e540451ab2ff01c54e009dc0000000000ffffffffde1a358bcf5fbbdcefbd87bea42ce92665b6fafa3d35f9c11c7b275dd1443ff80000000000ffffffffdec3db01277764a20a708de11688791c9557fa5666d8e1bd156602cdee9b41840400000000ffffffffcd25de39b3ada31dffe180c32f8eb54daedde66d0fd479a6b018e86967c6f7700000000000ffffffff7b0e0f2a2b50a1f29fb8a19e060f9c98347f4fe6b2a74ee93a93657f576bf3670000000000ffffffff57d5e6f7fcb8cb49df786e6f2554a222fd4b478353e21fa65c5dbfdf5aa7dee30000000000ffffffff3dda020319dd35c76f13a998ff67ea723d8d91601d12df2306d6b38a563207080200000000ffffffffa37f5b9773561112fe13f43b5ad0f9d9afd266af268c416feb81c5e0ee29343b0000000000ffffffff02ae08000000000000160014419854753506f2b3e771860f36eb919d89cc890f16e4020000000000160014c3da1e98f377468b1dc302483d79507b75b62ce202473044022050cbfee2a94b97cddcd6dcf2d9ce0c27672905ef637f6817cd0260a7c15f0f8f0220074fdc3e66218688daf607b3c3f99fe8904238836c604f3574dcba523c5795ed01210345d191ebcda344fc6bfc43e8f2e2473f44cb3dd3f80e10360d03d140e2a2394a02483045022100e027058fb10e9e09f19f0362be9d424436ef2d8e5f3fceeb472f8e5d4ea2b1ba022040032107077781c75c7f268bdd2cb669198fc0dfa98d9607e0ffa7864f8d981201210345d191ebcda344fc6bfc43e8f2e2473f44cb3dd3f80e10360d03d140e2a2394a0247304402204fba8b1e0ef3c312da90f421ff01bdc31d9a8f8fedc989758eb11e0ea09948dd0220167edcc6aecc5cae38ca569f8aeedaa45f820bdb6da0ef8bfd32478bd0050dcb01210345d191ebcda344fc6bfc43e8f2e2473f44cb3dd3f80e10360d03d140e2a2394a0248304502210093da572745c3b0659a26bf7896538770a7cf2410a6a033fcefd61d4ad1003a09022063701b01612edeef94bbb48b0d4f47f4cd607b1db18309197f1f48e35a330b1e01210345d191ebcda344fc6bfc43e8f2e2473f44cb3dd3f80e10360d03d140e2a2394a0247304402202ee978509bb8923b6ea4e9d0de93bbcc14bc10fa12b3cbaebe0c415b0d11bfb402202976bdfe5c979d7d159d11165396456d62f1977ed71aec063b440e02ac221d4001210345d191ebcda344fc6bfc43e8f2e2473f44cb3dd3f80e10360d03d140e2a2394a024730440220789378f994fb3a9dff9a97cad6fdd17b4550bff0378361b751d2d760cab2a20302203dd507bcecd8c4ee27e709306da9778021461ff9c06fb497a65675b9ed2221ae01210345d191ebcda344fc6bfc43e8f2e2473f44cb3dd3f80e10360d03d140e2a2394a02473044022034fb0b79f21ef6b5670c84a05ca4bd4e67c45d26c058c84f2a026e63c253dcd9022032a507d13a06bc053053bccc939f742efc5cc93209a29de07ebc4460a677a26801210345d191ebcda344fc6bfc43e8f2e2473f44cb3dd3f80e10360d03d140e2a2394a02483045022100dd6f83fb5ccdf6fb64aadedc273ea54952212abcb23fbc89d0d828045cc951f102200d2e4acb0aaa294ea86235090b516a1ca87b85aba10cf7bcfa34303699a35d3701210345d191ebcda344fc6bfc43e8f2e2473f44cb3dd3f80e10360d03d140e2a2394a00000000"
}