{
  "txid": "b6d7ccc42e309474a6a0d9850585fec117dc4bae216157a829eb5634a32386ee",
  "version": 1,
  "locktime": 0,
  "vin": [
    {
      "txid": "e1aa2985de2e985d1d0ec81879c8c7f1009c315681ad441f553c462dfc0cc054",
      "vout": 15,
      "prevout": {
        "scriptpubkey": "00143cc2258d972e136f616cb479517b074c03d8b626",
        "scriptpubkey_asm": "OP_0 OP_PUSHBYTES_20 3cc2258d972e136f616cb479517b074c03d8b626",
        "scriptpubkey_type": "v0_p2wpkh",
        "scriptpubkey_address": "bc1q8npztrvh9cfk7ctvk3u4z7c8fspa3d3x5xklux",
        "value": 58951
      },
      "scriptsig": "",
      "scriptsig_asm": "",
      "witness": [
        "3044022020c3d37baf579ca1c76a6004ad519929bba1a8d866fa4e9ae49eea0706c1c2be02202a7bb9b6a941c14df14fb4a8f170bc32f561e3bf320a655d740e1b390012d92b01",
        "025c1aee07afcc36dd78c6221e996898e6e1d111992e2747a770fb5df6bd63e24c"
      ],
      "is_coinbase": false,
      "sequence": 4294967293
    },
    {
      "txid": "f4d9c29e2c1008448b48e40d9681126c676cacb45ac69ff25c0b8e49b9853531",
      "vout": 144,
      "prevout": {
        "scriptpubkey": "00144b0745dbf01ca72bde2430c9b65bb633bbf6301e",
        "scriptpubkey_asm": "OP_0 OP_PUSHBYTES_20 4b0745dbf01ca72bde2430c9b65bb633bbf6301e",
        "scriptpubkey_type": "v0_p2wpkh",
        "scriptpubkey_address": "bc1qfvr5tklsrjnjhh3yxrymvkakxwalvvq7u5jh9g",
        "value": 58920
      },
      "scriptsig": "",
      "scriptsig_asm": "",
      "witness": [
        "3044022053d707645385bc10c729bb87fd7590c4d9ad0ec9815516f1e31bc3884ed24c92022000bff57ae01ff9d9f0a8570798a59e04f8c5795ef23ab1afc4fe3d55a3ffa87901",
        "0312861c76d167d3ede840ff04bbee21779bbd368de58891f21a3f6656ca6c2bc7"
      ],
      "is_coinbase": false,
      "sequence": 4294967293
    },
    {
      "txid": "3289f9e4e9a358319903104996b751f0c14e77941efae8c5c8a11870def7b18c",
      "vout": 76,
      "prevout": {
        "scriptpubkey": "001462c29fee30b2388216f440ef04b01b548f99bc3c",
        "scriptpubkey_asm": "OP_0 OP_PUSHBYTES_20 62c29fee30b2388216f440ef04b01b548f99bc3c",
        "scriptpubkey_type": "v0_p2wpkh",
        "scriptpubkey_address": "bc1qvtpflm3skgugy9h5grhsfvqm2j8en0puunzfd7",
        "value": 58916
      },
      "scriptsig": "",
      "scriptsig_asm": "",
      "witness": [
        "3045022100bf80cce93e87ad78cc42d4874b24135620b37befb5fceaa487f8369e9956a46602204f80f037a8499fc4b28cdf1726792763ef7b766e8d9dfd376debc4ff81581edf01",
        "034ffc9f824f68fe98fa23890429c876c30ef85518bc1a6e8fb697df129710f7e8"
      ],
      "is_coinbase": false,
      "sequence": 4294967293
    },
    {
      "txid": "f082f635b6dbb8bcd44461853e919c0ddb7a18cd70a4e7c80996d44d16ae0ac9",
      "vout": 71,
      "prevout": {
        "scriptpubkey": "0014ccebe85273708483858bbde7974318ec0aa2f0c7",
        "scriptpubkey_asm": "OP_0 OP_PUSHBYTES_20 ccebe85273708483858bbde7974318ec0aa2f0c7",
        "scriptpubkey_type": "v0_p2wpkh",
        "scriptpubkey_address": "bc1qen47s5nnwzzg8pvthhnewsccas929ux8lme4n3",
        "value": 58892
      },
      "scriptsig": "",
      "scriptsig_asm": "",
      "witness": [
        "304402203e3c37d5b75e452801bc439ad5c7cc1eed7c094cf92d27c3aba1472f29cb49960220313f2b834caa6696551303d67bbfa2ce5c9e922728723fa34df4382d69442f4101",
        "0230396b19642a32bc10a8ee7800ac30bbd05401bb6bc8372d953235f4f8cd6aa4"
      ],
      "is_coinbase": false,
      "sequence": 4294967293
    }
  ],
  "vout": [
    {
      "scriptpubkey": "a9140c61332ac3094b3e40ecf1be4260fb0d5674b13487",
      "scriptpubkey_asm": "OP_HASH160 OP_PUSHBYTES_20 0c61332ac3094b3e40ecf1be4260fb0d5674b134 OP_EQUAL",
      "scriptpubkey_type": "p2sh",
      "scriptpubkey_address": "32pUUQoS2MXeD6cPcjhdewQJs1cHXMvuC7",
      "value": 226199
    }
  ],
  "size": 637,
  "weight": 1255,
  "fee": 9480,
  "status": {
    "confirmed": true,
    "block_height": 834638,
    "block_hash": "000000000000000000025f742c626208ac87e0b7d15054abb4a19ca2d735a54e",
    "block_time": 1710405325
  },
  "hex": "0100000000010454c00cfc2d463c551f44ad8156319c00f1c7c87918c80e1d5d982ede8529aae10f00000000fdffffff313585b9498e0b5cf29fc65ab4ac6c676c1281960de4488b4408102c9ec2d9f49000000000fdffffff8cb1f7de7018a1c8c5e8fa1e94774ec1f051b796491003993158a3e9e4f989324c00000000fdffffffc90aae164dd49609c8e7a470cd187adb0d9c913e856144d4bcb8dbb635f682f04700000000fdffffff01977303000000000017a9140c61332ac3094b3e40ecf1be4260fb0d5674b1348702473044022020c3d37baf579ca1c76a6004ad519929bba1a8d866fa4e9ae49eea0706c1c2be02202a7bb9b6a941c14df14fb4a8f170bc32f561e3bf320a655d740e1b390012d92b0121025c1aee07afcc36dd78c6221e996898e6e1d111992e2747a770fb5df6bd63e24c02473044022053d707645385bc10c729bb87fd7590c4d9ad0ec9815516f1e31bc3884ed24c92022000bff57ae01ff9d9f0a8570798a59e04f8c5795ef23ab1afc4fe3d55a3ffa87901210312861c76d167d3ede840ff04bbee21779bbd368de58891f21a3f6656ca6c2bc702483045022100bf80cce93e87ad78cc42d4874b24135620b37befb5fceaa487f8369e9956a46602204f80f037a8499fc4b28cdf1726792763ef7b766e8d9dfd376debc4ff81581edf0121034ffc9f824f68fe98fa23890429c876c30ef85518bc1a6e8fb697df129710f7e80247304402203e3c37d5b75e452801bc439ad5c7cc1eed7c094cf92d27c3aba1472f29cb49960220313f2b834caa6696551303d67bbfa2ce5c9e922728723fa34df4382d69442f4101210230396b19642a32bc10a8ee7800ac30bbd05401bb6bc8372d953235f4f8cd6aa400000000"
}