{
  "txid": "b6dc30e17f48612e805bf459c1163b93c8c797160dd719f351153bccfde4d033",
  "version": 2,
  "locktime": 834550,
  "vin": [
    {
      "txid": "3905f284cb7619e481d0d2750d02b4e2ce86caf1557cdc522923ad09f9e4b87a",
      "vout": 1,
      "prevout": {
        "scriptpubkey": "001479246e8271c2ec84c77a2e103f89fb6c587cebc6",
        "scriptpubkey_asm": "OP_0 OP_PUSHBYTES_20 79246e8271c2ec84c77a2e103f89fb6c587cebc6",
        "scriptpubkey_type": "v0_p2wpkh",
        "scriptpubkey_address": "bc1q0yjxaqn3ctkgf3m69cgrlz0md3v8e67xxeuel7",
        "value": 5083670
      },
      "scriptsig": "",
      "scriptsig_asm": "",
      "witness": [
        "304402204906bc57299e22dcad435280479442a3b66b6e85ec7abe9d9d1a1d413b3bbe1b0220323b4848ae68fbe9d13f7d0248724585e38d0bc303b317d547e1f8920f4829c801",
        "035666d6a3b1ff4f1b1af335eca1010702dde6ecee6793947068bfc4dcf8f685f2"
      ],
      "is_coinbase": false,
      "sequence": 4294967293
    }
  ],
  "vout": [
    {
      "scriptpubkey": "76a91459f8cf00682934c0a36e21c39b58c554dfc8b92588ac",
      "scriptpubkey_asm": "OP_DUP OP_HASH160 OP_PUSHBYTES_20 59f8cf00682934c0a36e21c39b58c554dfc8b925 OP_EQUALVERIFY OP_CHECKSIG",
      "scriptpubkey_type": "p2pkh",
      "scriptpubkey_address": "19CjCbf12kQgcQsfdhJiGvWMXpizviKvdM",
      "value": 4966538
    },
    {
      "scriptpubkey": "76a9143f3f52bb1590bc940492772228a59ee5dd79bcf188ac",
      "scriptpubkey_asm": "OP_DUP OP_HASH160 OP_PUSHBYTES_20 3f3f52bb1590bc940492772228a59ee5dd79bcf1 OP_EQUALVERIFY OP_CHECKSIG",
      "scriptpubkey_type": "p2pkh",
      "scriptpubkey_address": "16mRRrewQ16wFEHCWTGcYGPTnMM6uxuSDv",
      "value": 113898
    }
  ],
  "size": 228,
  "weight": 585,
  "fee": 3234,
  "status": {
    "confirmed": true,
    "block_height": 834552,
    "block_hash": "00000000000000000001dd0468a70c94f619251d286585cff57aeb4bd9ede330",
    "block_time": 1710355598
  },
  "hex": "020000000001017ab8e4f909ad232952dc7c55f1ca86cee2b4020d75d2d081e41976cb84f205390100000000fdffffff028ac84b00000000001976a91459f8cf00682934c0a36e21c39b58c554dfc8b92588aceabc0100000000001976a9143f3f52bb1590bc940492772228a59ee5dd79bcf188ac0247304402204906bc57299e22dcad435280479442a3b66b6e85ec7abe9d9d1a1d413b3bbe1b0220323b4848ae68fbe9d13f7d0248724585e38d0bc303b317d547e1f8920f4829c80121035666d6a3b1ff4f1b1af335eca1010702dde6ecee6793947068bfc4dcf8f685f2f6bb0c00"
}