{
  "txid": "b6ee205092cca81398420d74124bd62d493d6514240fabeadece7eeedce133d2",
  "version": 1,
  "locktime": 0,
  "vin": [
    {
      "txid": "f417c84f5c0b818389e83f2e7803adfa6718777200b2e70d73a04df4fb5047f1",
      "vout": 1,
      "prevout": {
        "scriptpubkey": "76a91474338e0d14ac0944cf0afb7c8655687c6ae73def88ac",
        "scriptpubkey_asm": "OP_DUP OP_HASH160 OP_PUSHBYTES_20 74338e0d14ac0944cf0afb7c8655687c6ae73def OP_EQUALVERIFY OP_CHECKSIG",
        "scriptpubkey_type": "p2pkh",
        "scriptpubkey_address": "1BbR9MDy9A579P8n3HVczTfyZnD6ziNgqf",
        "value": 333708
      },
      "scriptsig": "473044022047f277a71d14c5cf5418394b430b844aceb778129b6b3e5170a92b47ff87676b022019c4fc0c5fb1dd3bf2367ca326ee23d47d45693cc2923c53d7c269301bc8687b012102cdc877af1c73b0b0c2c02324ecc6cb01898e6cc3fdc1ff05f404809ee2cbb782",
      "scriptsig_asm": "OP_PUSHBYTES_71 3044022047f277a71d14c5cf5418394b430b844aceb778129b6b3e5170a92b47ff87676b022019c4fc0c5fb1dd3bf2367ca326ee23d47d45693cc2923c53d7c269301bc8687b01 OP_PUSHBYTES_33 02cdc877af1c73b0b0c2c02324ecc6cb01898e6cc3fdc1ff05f404809ee2cbb782",
      "is_coinbase": false,
      "sequence": 4294967295
    }
  ],
  "vout": [
    {
      "scriptpubkey": "76a9148e3f36dcf214866b5a1d9e43704586043f0bf7c088ac",
      "scriptpubkey_asm": "OP_DUP OP_HASH160 OP_PUSHBYTES_20 8e3f36dcf214866b5a1d9e43704586043f0bf7c0 OP_EQUALVERIFY OP_CHECKSIG",
      "scriptpubkey_type": "p2pkh",
      "scriptpubkey_address": "1Dy8gSw3Zbpatr4bGn7zR4phNX18XuTD56",
      "value": 204095
    },
    {
      "scriptpubkey": "76a91474338e0d14ac0944cf0afb7c8655687c6ae73def88ac",
      "scriptpubkey_asm": "OP_DUP OP_HASH160 OP_PUSHBYTES_20 74338e0d14ac0944cf0afb7c8655687c6ae73def OP_EQUALVERIFY OP_CHECKSIG",
      "scriptpubkey_type": "p2pkh",
      "scriptpubkey_address": "1BbR9MDy9A579P8n3HVczTfyZnD6ziNgqf",
      "value": 125093
    }
  ],
  "size": 225,
  "weight": 900,
  "fee": 4520,
  "status": {
    "confirmed": true,
    "block_height": 834638,
    "block_hash": "000000000000000000025f742c626208ac87e0b7d15054abb4a19ca2d735a54e",
    "block_time": 1710405325
  },
  "hex": "0100000001f14750fbf44da0730de7b20072771867faad03782e3fe88983810b5c4fc817f4010000006a473044022047f277a71d14c5cf5418394b430b844aceb778129b6b3e5170a92b47ff87676b022019c4fc0c5fb1dd3bf2367ca326ee23d47d45693cc2923c53d7c269301bc8687b012102cdc877af1c73b0b0c2c02324ecc6cb01898e6cc3fdc1ff05f404809ee2cbb782ffffffff023f1d0300000000001976a9148e3f36dcf214866b5a1d9e43704586043f0bf7c088aca5e80100000000001976a91474338e0d14ac0944cf0afb7c8655687c6ae73def88ac00000000"
}