{
  "txid": "b6f569eedce326d450d2c33045aa38049b62b21d6643cb1947d8bfa4a4e74d2d",
  "version": 2,
  "locktime": 834458,
  "vin": [
    {
      "txid": "e7e60afe1e3552005abcad977baa3c69f1b4e8e8e27b7824136b64e45c32c477",
      "vout": 1,
      "prevout": {
        "scriptpubkey": "76a914a18b20e2b7c65d69118000f4239c6f8444826a3d88ac",
        "scriptpubkey_asm": "OP_DUP OP_HASH160 OP_PUSHBYTES_20 a18b20e2b7c65d69118000f4239c6f8444826a3d OP_EQUALVERIFY OP_CHECKSIG",
        "scriptpubkey_type": "p2pkh",
        "scriptpubkey_address": "1FjAThaDiiP6KSXdoQorW3d9ZrUL7ankJd",
        "value": 316757
      },
      "scriptsig": "47304402205336b6fc17230bba4364e8e40db309c98e7929d5477796e773160a0a7a9caf14022073405f2c78f2869b3e553d478eebd43d825c41fd80ceb1ac862f0169b77dafba012103fb7c76c269142d92389d472f82c186d61ea8fdcec6523ba2c77796838dac8858",
      "scriptsig_asm": "OP_PUSHBYTES_71 304402205336b6fc17230bba4364e8e40db309c98e7929d5477796e773160a0a7a9caf14022073405f2c78f2869b3e553d478eebd43d825c41fd80ceb1ac862f0169b77dafba01 OP_PUSHBYTES_33 03fb7c76c269142d92389d472f82c186d61ea8fdcec6523ba2c77796838dac8858",
      "is_coinbase": false,
      "sequence": 4294967293
    }
  ],
  "vout": [
    {
      "scriptpubkey": "76a914110165d24417141c8ed270a5f31aefb1b0384e2f88ac",
      "scriptpubkey_asm": "OP_DUP OP_HASH160 OP_PUSHBYTES_20 110165d24417141c8ed270a5f31aefb1b0384e2f OP_EQUALVERIFY OP_CHECKSIG",
      "scriptpubkey_type": "p2pkh",
      "scriptpubkey_address": "12YvANupdcUnnezdJeCKjaufygNTKaBaa6",
      "value": 208881
    },
    {
      "scriptpubkey": "76a9148ced2f70b4748884d68dd8512cc15aee9e94d0bd88ac",
      "scriptpubkey_asm": "OP_DUP OP_HASH160 OP_PUSHBYTES_20 8ced2f70b4748884d68dd8512cc15aee9e94d0bd OP_EQUALVERIFY OP_CHECKSIG",
      "scriptpubkey_type": "p2pkh",
      "scriptpubkey_address": "1Dr9jnHTC1xAU9fBKpZwKzcenSKp39oBeb",
      "value": 104704
    }
  ],
  "size": 225,
  "weight": 900,
  "fee": 3172,
  "status": {
    "confirmed": true,
    "block_height": 834460,
    "block_hash": "00000000000000000000484a79b643b2524bbce82e5d8a442013fa5b8905ed98",
    "block_time": 1710307468
  },
  "hex": "020000000177c4325ce4646b1324787be2e8e8b4f1693caa7b97adbc5a0052351efe0ae6e7010000006a47304402205336b6fc17230bba4364e8e40db309c98e7929d5477796e773160a0a7a9caf14022073405f2c78f2869b3e553d478eebd43d825c41fd80ceb1ac862f0169b77dafba012103fb7c76c269142d92389d472f82c186d61ea8fdcec6523ba2c77796838dac8858fdffffff02f12f0300000000001976a914110165d24417141c8ed270a5f31aefb1b0384e2f88ac00990100000000001976a9148ced2f70b4748884d68dd8512cc15aee9e94d0bd88ac9abb0c00"
}