{
  "txid": "b71cbb7e6caafe3484fce6077343cc68ad515e9bf998adaa2470bc8e31712352",
  "version": 2,
  "locktime": 0,
  "vin": [
    {
      "txid": "434a190af4c77d79979d2d21602f5142851f9bba256446dd7d31a7b311999b99",
      "vout": 5,
      "prevout": {
        "scriptpubkey": "5120f85b5a46db195d5dd60dc05d3042b15d80b8aa2817ee7199623c3ff82d8f3f8f",
        "scriptpubkey_asm": "OP_PUSHNUM_1 OP_PUSHBYTES_32 f85b5a46db195d5dd60dc05d3042b15d80b8aa2817ee7199623c3ff82d8f3f8f",
        "scriptpubkey_type": "v1_p2tr",
        "scriptpubkey_address": "bc1plpd453kmr9w4m4sdcpwnqs43tkqt323gzlh8rxtz8sllstv0878s5906ck",
        "value": 3248
      },
      "scriptsig": "",
      "scriptsig_asm": "",
      "witness": [
        "cc9e6688948d3ee82da5730721633fc4e269646f4ecf885b7fd600c0e0d3629cf74dbef6e30d5409b25e59932fdd056354a237d9d5388ebbd8f56385505c6a73",
        "20d82682199f40a3f10e087baeba01fa6257a6a352239269e8167fb8c0207ae9b5ac0063036f726401011e6170706c69636174696f6e2f6a736f6e3b636861727365743d7574662d38004cd37b2270223a22706f772d3230222c226f70223a226d696e74222c227469636b223a2250455045222c22616d74223a2231303030222c22736f6c7574696f6e223a22504550453a6263317034346572347876306c6430706c6a3779346c6a71307536617433747936773234356c7961366173337474367578747039716c79737637327161613a303030303030303030303030303030303030303139393431613561653132383937363539383134343239323533333030353762306461393666336465613163353a3331323233323034333335227d68",
        "c0f9337ae8d846120319842204c8fa6fb30a2d36b39aa08502370b80ec3c9c59a9"
      ],
      "is_coinbase": false,
      "sequence": 4294967295
    }
  ],
  "vout": [
    {
      "scriptpubkey": "5120ad723a998ffb5e1fcbc4afe407f35d5c564d3955a7c9dd76115af5c32c2507c9",
      "scriptpubkey_asm": "OP_PUSHNUM_1 OP_PUSHBYTES_32 ad723a998ffb5e1fcbc4afe407f35d5c564d3955a7c9dd76115af5c32c2507c9",
      "scriptpubkey_type": "v1_p2tr",
      "scriptpubkey_address": "bc1p44er4xv0ld0plj7y4ljq0u6at3ty6w245lya6as3tt6uxtp9qlysv72qaa",
      "value": 546
    }
  ],
  "size": 487,
  "weight": 769,
  "fee": 2702,
  "status": {
    "confirmed": true,
    "block_height": 834460,
    "block_hash": "00000000000000000000484a79b643b2524bbce82e5d8a442013fa5b8905ed98",
    "block_time": 1710307468
  },
  "hex": "02000000000101999b9911b3a7317ddd466425ba9b1f8542512f60212d9d97797dc7f40a194a430500000000ffffffff012202000000000000225120ad723a998ffb5e1fcbc4afe407f35d5c564d3955a7c9dd76115af5c32c2507c90340cc9e6688948d3ee82da5730721633fc4e269646f4ecf885b7fd600c0e0d3629cf74dbef6e30d5409b25e59932fdd056354a237d9d5388ebbd8f56385505c6a73fd200120d82682199f40a3f10e087baeba01fa6257a6a352239269e8167fb8c0207ae9b5ac0063036f726401011e6170706c69636174696f6e2f6a736f6e3b636861727365743d7574662d38004cd37b2270223a22706f772d3230222c226f70223a226d696e74222c227469636b223a2250455045222c22616d74223a2231303030222c22736f6c7574696f6e223a22504550453a6263317034346572347876306c6430706c6a3779346c6a71307536617433747936773234356c7961366173337474367578747039716c79737637327161613a303030303030303030303030303030303030303139393431613561653132383937363539383134343239323533333030353762306461393666336465613163353a3331323233323034333335227d6821c0f9337ae8d846120319842204c8fa6fb30a2d36b39aa08502370b80ec3c9c59a900000000"
}