{
  "txid": "b71ebce0f3251587174fe1ead0e8e29c8f4f0ec6fbbc853b09aad8e5f38ede08",
  "version": 2,
  "locktime": 0,
  "vin": [
    {
      "txid": "5ca345869ad26ee76b46e9a48adec3a47aea36683a2499e12b6ab344b7171053",
      "vout": 0,
      "prevout": {
        "scriptpubkey": "001474a32aca2fe2388462a9b2b3f6f85e806dea9804",
        "scriptpubkey_asm": "OP_0 OP_PUSHBYTES_20 74a32aca2fe2388462a9b2b3f6f85e806dea9804",
        "scriptpubkey_type": "v0_p2wpkh",
        "scriptpubkey_address": "bc1qwj3j4j30uguggc4fk2eld7z7spk74xqyu29xql",
        "value": 402533
      },
      "scriptsig": "",
      "scriptsig_asm": "",
      "witness": [
        "304402205cfda4709a02eeb8981fde00d26bd9296be7bd587bfdc5fc049fb2235fd42bad022068c1233036092d3eb3a3848caee4e66423f4cd194c71b1a4ce4819c3a22f668401",
        "02a776526f4b52153bbc3c14d061ff09143cdc901ae81023b04eccc016558125fe"
      ],
      "is_coinbase": false,
      "sequence": 4294967293
    }
  ],
  "vout": [
    {
      "scriptpubkey": "001477fa50aacb2436c1a9e4adbb7ee262afc1cd58d3",
      "scriptpubkey_asm": "OP_0 OP_PUSHBYTES_20 77fa50aacb2436c1a9e4adbb7ee262afc1cd58d3",
      "scriptpubkey_type": "v0_p2wpkh",
      "scriptpubkey_address": "bc1qwla9p2ktysmvr20y4kahacnz4lqu6kxn599v6d",
      "value": 260251
    },
    {
      "scriptpubkey": "76a914caeb13448a8a75079207f5b690ef8455545ccf5188ac",
      "scriptpubkey_asm": "OP_DUP OP_HASH160 OP_PUSHBYTES_20 caeb13448a8a75079207f5b690ef8455545ccf51 OP_EQUALVERIFY OP_CHECKSIG",
      "scriptpubkey_type": "p2pkh",
      "scriptpubkey_address": "1KVw74oFLQxqMoM4MwHL4cztdZZJU664Ei",
      "value": 137282
    }
  ],
  "size": 225,
  "weight": 573,
  "fee": 5000,
  "status": {
    "confirmed": true,
    "block_height": 834638,
    "block_hash": "000000000000000000025f742c626208ac87e0b7d15054abb4a19ca2d735a54e",
    "block_time": 1710405325
  },
  "hex": "02000000000101531017b744b36a2be199243a6836ea7aa4c3de8aa4e9466be76ed29a8645a35c0000000000fdffffff029bf803000000000016001477fa50aacb2436c1a9e4adbb7ee262afc1cd58d342180200000000001976a914caeb13448a8a75079207f5b690ef8455545ccf5188ac0247304402205cfda4709a02eeb8981fde00d26bd9296be7bd587bfdc5fc049fb2235fd42bad022068c1233036092d3eb3a3848caee4e66423f4cd194c71b1a4ce4819c3a22f6684012102a776526f4b52153bbc3c14d061ff09143cdc901ae81023b04eccc016558125fe00000000"
}