{
  "txid": "b7205e18ca1e3c2bd901d87170f08e23c2dcd3ee9f9ec3010778372b9dd2b527",
  "version": 2,
  "locktime": 834637,
  "vin": [
    {
      "txid": "00a961f4da2de1f30b30aef126f8db9c7226261812e1d34fc7ed315335043132",
      "vout": 0,
      "prevout": {
        "scriptpubkey": "a914e025a09d53d6af98330881e11bdf7653a0dc532487",
        "scriptpubkey_asm": "OP_HASH160 OP_PUSHBYTES_20 e025a09d53d6af98330881e11bdf7653a0dc5324 OP_EQUAL",
        "scriptpubkey_type": "p2sh",
        "scriptpubkey_address": "3N8CMupC7qmuokeqb4t2yXGox5sK6aWooZ",
        "value": 150000000
      },
      "scriptsig": "160014832a16edd7cc521b6541d6da4e68471dd31f9bf1",
      "scriptsig_asm": "OP_PUSHBYTES_22 0014832a16edd7cc521b6541d6da4e68471dd31f9bf1",
      "witness": [
        "304402204b09bc301f0e154617ad848a1bc2ff9edb6c98498653e9e1c018e519fbfde50b02201c2a149f5ce993d395e8532e340235dfce0db03eabd58fe9a0c221e503d5e0d101",
        "039db9dec56a4f77c9fbb0929e31640a0aed3716de436c49f7d4109f3b715abfb0"
      ],
      "is_coinbase": false,
      "sequence": 4294967294,
      "inner_redeemscript_asm": "OP_0 OP_PUSHBYTES_20 832a16edd7cc521b6541d6da4e68471dd31f9bf1"
    }
  ],
  "vout": [
    {
      "scriptpubkey": "001473d5e385d050e8b1109cf272d7e46c3d3f81976d",
      "scriptpubkey_asm": "OP_0 OP_PUSHBYTES_20 73d5e385d050e8b1109cf272d7e46c3d3f81976d",
      "scriptpubkey_type": "v0_p2wpkh",
      "scriptpubkey_address": "bc1qw0278pws2r5tzyyu7fed0erv85lcr9mdc8f8kx",
      "value": 35000000
    },
    {
      "scriptpubkey": "001419250db87639d8454e3fd51f50a2a741951a33c6",
      "scriptpubkey_asm": "OP_0 OP_PUSHBYTES_20 19250db87639d8454e3fd51f50a2a741951a33c6",
      "scriptpubkey_type": "v0_p2wpkh",
      "scriptpubkey_address": "bc1qryjsmwrk88vy2n3l6504pg48gx235v7xczkg7x",
      "value": 114997178
    }
  ],
  "size": 245,
  "weight": 653,
  "fee": 2822,
  "status": {
    "confirmed": true,
    "block_height": 834638,
    "block_hash": "000000000000000000025f742c626208ac87e0b7d15054abb4a19ca2d735a54e",
    "block_time": 1710405325
  },
  "hex": "02000000000101323104355331edc74fd3e112182626729cdbf826f1ae300bf3e12ddaf461a9000000000017160014832a16edd7cc521b6541d6da4e68471dd31f9bf1feffffff02c00e16020000000016001473d5e385d050e8b1109cf272d7e46c3d3f81976dbab7da060000000016001419250db87639d8454e3fd51f50a2a741951a33c60247304402204b09bc301f0e154617ad848a1bc2ff9edb6c98498653e9e1c018e519fbfde50b02201c2a149f5ce993d395e8532e340235dfce0db03eabd58fe9a0c221e503d5e0d10121039db9dec56a4f77c9fbb0929e31640a0aed3716de436c49f7d4109f3b715abfb04dbc0c00"
}