{
  "txid": "b72b231e70287cedd8e0dd3a73eafef67e27d7063a80ec4e7a5dac0413709391",
  "version": 1,
  "locktime": 0,
  "vin": [
    {
      "txid": "207bfa9203995e16a7accf9cc088e484e5a974852b16c5be8786b418168408ef",
      "vout": 0,
      "prevout": {
        "scriptpubkey": "00141c6977423aa4b82a0d7f8496cdf3fc2f8b4f580c",
        "scriptpubkey_asm": "OP_0 OP_PUSHBYTES_20 1c6977423aa4b82a0d7f8496cdf3fc2f8b4f580c",
        "scriptpubkey_type": "v0_p2wpkh",
        "scriptpubkey_address": "bc1qr35hws365juz5rtlsjtvmulu97957kqvr3zpw3",
        "value": 179391077
      },
      "scriptsig": "",
      "scriptsig_asm": "",
      "witness": [
        "3045022100a600645684642d3f3a393d846fe9536be5bbbc0584a59fc241c938d68e1239e8022000e5274cc4e79724312277decb9c8b69fd72d34cef75db0ef7a920974813908e01",
        "02084ad9ff2a070ef71f32375ff91e5f98448afc62bfb5934c3c15b4348cf11df7"
      ],
      "is_coinbase": false,
      "sequence": 4294967293
    }
  ],
  "vout": [
    {
      "scriptpubkey": "00141c6977423aa4b82a0d7f8496cdf3fc2f8b4f580c",
      "scriptpubkey_asm": "OP_0 OP_PUSHBYTES_20 1c6977423aa4b82a0d7f8496cdf3fc2f8b4f580c",
      "scriptpubkey_type": "v0_p2wpkh",
      "scriptpubkey_address": "bc1qr35hws365juz5rtlsjtvmulu97957kqvr3zpw3",
      "value": 117955451
    },
    {
      "scriptpubkey": "76a914a30da783bcd976ca7e2dc4271475c832e0609a3f88ac",
      "scriptpubkey_asm": "OP_DUP OP_HASH160 OP_PUSHBYTES_20 a30da783bcd976ca7e2dc4271475c832e0609a3f OP_EQUALVERIFY OP_CHECKSIG",
      "scriptpubkey_type": "p2pkh",
      "scriptpubkey_address": "1Fs9VzPgLyafeudyjJJUhhe3HENez4kka9",
      "value": 50477681
    },
    {
      "scriptpubkey": "0014272d5de57982bb5ae73cd18c6372657d8f85ec25",
      "scriptpubkey_asm": "OP_0 OP_PUSHBYTES_20 272d5de57982bb5ae73cd18c6372657d8f85ec25",
      "scriptpubkey_type": "v0_p2wpkh",
      "scriptpubkey_address": "bc1qyuk4metes2a44eeu6xxxxun90k8ctmp9jnzg0j",
      "value": 6828440
    },
    {
      "scriptpubkey": "a914f03894ab917110ee6f1db0f4028c904cab8d720887",
      "scriptpubkey_asm": "OP_HASH160 OP_PUSHBYTES_20 f03894ab917110ee6f1db0f4028c904cab8d7208 OP_EQUAL",
      "scriptpubkey_type": "p2sh",
      "scriptpubkey_address": "3PbBst7H5mwr8cQp4v7gRHAcoiLnVwF4wf",
      "value": 1324702
    },
    {
      "scriptpubkey": "a914795db16f7e62a26a10a927825b0fa56711b7279787",
      "scriptpubkey_asm": "OP_HASH160 OP_PUSHBYTES_20 795db16f7e62a26a10a927825b0fa56711b72797 OP_EQUAL",
      "scriptpubkey_type": "p2sh",
      "scriptpubkey_address": "3CkjvfcG68iXqPBrrXGVziYvKBLZ75oZW4",
      "value": 663010
    },
    {
      "scriptpubkey": "a91449c8ff943adcc84f8a0777240b78b9184f9414c087",
      "scriptpubkey_asm": "OP_HASH160 OP_PUSHBYTES_20 49c8ff943adcc84f8a0777240b78b9184f9414c0 OP_EQUAL",
      "scriptpubkey_type": "p2sh",
      "scriptpubkey_address": "38RA3A7c3fLhYZF2vju3vg9dDg5KXjqS4w",
      "value": 268912
    },
    {
      "scriptpubkey": "00147e8ba918a98ce1d9299bd098724fb01a80275b4a",
      "scriptpubkey_asm": "OP_0 OP_PUSHBYTES_20 7e8ba918a98ce1d9299bd098724fb01a80275b4a",
      "scriptpubkey_type": "v0_p2wpkh",
      "scriptpubkey_address": "bc1q0696jx9f3nsaj2vm6zv8ynasr2qzwk62gguhq9",
      "value": 268468
    },
    {
      "scriptpubkey": "76a91408d46ed60bb3b4410ee52116ed8d4eea00d5eba488ac",
      "scriptpubkey_asm": "OP_DUP OP_HASH160 OP_PUSHBYTES_20 08d46ed60bb3b4410ee52116ed8d4eea00d5eba4 OP_EQUALVERIFY OP_CHECKSIG",
      "scriptpubkey_type": "p2pkh",
      "scriptpubkey_address": "1ogtdqD1Qz5swEhaMVZgkimG4k4TsEu3c",
      "value": 264836
    },
    {
      "scriptpubkey": "a91452244d3228caf6f3f7a9e88c2261ab35c027b27e87",
      "scriptpubkey_asm": "OP_HASH160 OP_PUSHBYTES_20 52244d3228caf6f3f7a9e88c2261ab35c027b27e OP_EQUAL",
      "scriptpubkey_type": "p2sh",
      "scriptpubkey_address": "39BLpYprkmYuowmcdiy7W7cuCBdecD9wYU",
      "value": 163907
    },
    {
      "scriptpubkey": "00145d4d876bdedb3024eb4563d0e07e4af257dceb0a",
      "scriptpubkey_asm": "OP_0 OP_PUSHBYTES_20 5d4d876bdedb3024eb4563d0e07e4af257dceb0a",
      "scriptpubkey_type": "v0_p2wpkh",
      "scriptpubkey_address": "bc1qt4xcw677mvczf669v0gwqlj27ftae6c2fujqlu",
      "value": 160612
    },
    {
      "scriptpubkey": "76a9148270ae1231626737006423baf10f1c9e258d138088ac",
      "scriptpubkey_asm": "OP_DUP OP_HASH160 OP_PUSHBYTES_20 8270ae1231626737006423baf10f1c9e258d1380 OP_EQUALVERIFY OP_CHECKSIG",
      "scriptpubkey_type": "p2pkh",
      "scriptpubkey_address": "1Cthq5bNj9MVBzmWnGsitU1JtEC2xq6PAz",
      "value": 154190
    },
    {
      "scriptpubkey": "a91420262b13051e036509d4d2a03461ef7a98a9a98087",
      "scriptpubkey_asm": "OP_HASH160 OP_PUSHBYTES_20 20262b13051e036509d4d2a03461ef7a98a9a980 OP_EQUAL",
      "scriptpubkey_type": "p2sh",
      "scriptpubkey_address": "34d1GfCeq8xCC72h2RvSGrq9BuUZPEwW81",
      "value": 152987
    },
    {
      "scriptpubkey": "00147514e33b375aaa096706e7a86655355d210b11c0",
      "scriptpubkey_asm": "OP_0 OP_PUSHBYTES_20 7514e33b375aaa096706e7a86655355d210b11c0",
      "scriptpubkey_type": "v0_p2wpkh",
      "scriptpubkey_address": "bc1qw52wxweht24qjecxu75xv4f4t5sskywquxmmn4",
      "value": 151869
    },
    {
      "scriptpubkey": "0014384bf8e922b72a0905192f99ccb0afb8678c290a",
      "scriptpubkey_asm": "OP_0 OP_PUSHBYTES_20 384bf8e922b72a0905192f99ccb0afb8678c290a",
      "scriptpubkey_type": "v0_p2wpkh",
      "scriptpubkey_address": "bc1q8p9l36fzku4qjpge97vuev90hpncc2g24xr4h8",
      "value": 140423
    },
    {
      "scriptpubkey": "00140cffa747c5561d6eedfc972d1fd35ca4bff6223a",
      "scriptpubkey_asm": "OP_0 OP_PUSHBYTES_20 0cffa747c5561d6eedfc972d1fd35ca4bff6223a",
      "scriptpubkey_type": "v0_p2wpkh",
      "scriptpubkey_address": "bc1qpnl6w3792cwkam0ujuk3l56u5jllvg362ryaa8",
      "value": 133659
    },
    {
      "scriptpubkey": "a914b6d878fea8518f2069016c8d6dd292d9be6fb9c887",
      "scriptpubkey_asm": "OP_HASH160 OP_PUSHBYTES_20 b6d878fea8518f2069016c8d6dd292d9be6fb9c8 OP_EQUAL",
      "scriptpubkey_type": "p2sh",
      "scriptpubkey_address": "3JMpEEqH5oayJVGb9HsMzbLvxV4KVMoTVb",
      "value": 105185
    },
    {
      "scriptpubkey": "001457d4376dfdff4ef2a83860f90ec55fe0b19d708c",
      "scriptpubkey_asm": "OP_0 OP_PUSHBYTES_20 57d4376dfdff4ef2a83860f90ec55fe0b19d708c",
      "scriptpubkey_type": "v0_p2wpkh",
      "scriptpubkey_address": "bc1q2l2rwm0ala8092pcvrusa32luzce6uyvxvwndx",
      "value": 102514
    },
    {
      "scriptpubkey": "0014b64e5aa5970fa86c3a5b79199ffb58cdf032439b",
      "scriptpubkey_asm": "OP_0 OP_PUSHBYTES_20 b64e5aa5970fa86c3a5b79199ffb58cdf032439b",
      "scriptpubkey_type": "v0_p2wpkh",
      "scriptpubkey_address": "bc1qke894fvhp75xcwjm0yvel76cehcrysumkft9qf",
      "value": 46111
    },
    {
      "scriptpubkey": "76a914084b39c324f4ac38e369eac8e56dcf65af697c8488ac",
      "scriptpubkey_asm": "OP_DUP OP_HASH160 OP_PUSHBYTES_20 084b39c324f4ac38e369eac8e56dcf65af697c84 OP_EQUALVERIFY OP_CHECKSIG",
      "scriptpubkey_type": "p2pkh",
      "scriptpubkey_address": "1krXJbNEZdJvGTTJkzJn8HpubWBXjmJpu",
      "value": 3228
    }
  ],
  "size": 768,
  "weight": 2742,
  "fee": 24892,
  "status": {
    "confirmed": true,
    "block_height": 834552,
    "block_hash": "00000000000000000001dd0468a70c94f619251d286585cff57aeb4bd9ede330",
    "block_time": 1710355598
  },
  "hex": "01000000000101ef08841618b48687bec5162b8574a9e584e488c09ccfaca7165e990392fa7b200000000000fdffffff137bdb0707000000001600141c6977423aa4b82a0d7f8496cdf3fc2f8b4f580c713a0203000000001976a914a30da783bcd976ca7e2dc4271475c832e0609a3f88ac9831680000000000160014272d5de57982bb5ae73cd18c6372657d8f85ec259e3614000000000017a914f03894ab917110ee6f1db0f4028c904cab8d720887e21d0a000000000017a914795db16f7e62a26a10a927825b0fa56711b7279787701a04000000000017a91449c8ff943adcc84f8a0777240b78b9184f9414c087b4180400000000001600147e8ba918a98ce1d9299bd098724fb01a80275b4a840a0400000000001976a91408d46ed60bb3b4410ee52116ed8d4eea00d5eba488ac438002000000000017a91452244d3228caf6f3f7a9e88c2261ab35c027b27e8764730200000000001600145d4d876bdedb3024eb4563d0e07e4af257dceb0a4e5a0200000000001976a9148270ae1231626737006423baf10f1c9e258d138088ac9b5502000000000017a91420262b13051e036509d4d2a03461ef7a98a9a980873d510200000000001600147514e33b375aaa096706e7a86655355d210b11c08724020000000000160014384bf8e922b72a0905192f99ccb0afb8678c290a1b0a0200000000001600140cffa747c5561d6eedfc972d1fd35ca4bff6223ae19a01000000000017a914b6d878fea8518f2069016c8d6dd292d9be6fb9c887729001000000000016001457d4376dfdff4ef2a83860f90ec55fe0b19d708c1fb4000000000000160014b64e5aa5970fa86c3a5b79199ffb58cdf032439b9c0c0000000000001976a914084b39c324f4ac38e369eac8e56dcf65af697c8488ac02483045022100a600645684642d3f3a393d846fe9536be5bbbc0584a59fc241c938d68e1239e8022000e5274cc4e79724312277decb9c8b69fd72d34cef75db0ef7a920974813908e012102084ad9ff2a070ef71f32375ff91e5f98448afc62bfb5934c3c15b4348cf11df700000000"
}