{
  "txid": "b73474d1689027e4e65dd1bd0c6b0ac279101fe5f8a1f03820e11081c0bf2728",
  "version": 1,
  "locktime": 0,
  "vin": [
    {
      "txid": "d8d658a1cfb0078b876ff308247ab3026201a6e9f306d6bb609b3fb5625ce957",
      "vout": 0,
      "prevout": {
        "scriptpubkey": "76a914d4a9f22c59a366f12ed174c45f26d6f223c90df988ac",
        "scriptpubkey_asm": "OP_DUP OP_HASH160 OP_PUSHBYTES_20 d4a9f22c59a366f12ed174c45f26d6f223c90df9 OP_EQUALVERIFY OP_CHECKSIG",
        "scriptpubkey_type": "p2pkh",
        "scriptpubkey_address": "1LPTqiu7uWirXTNFF3sVEjssvuNM2UZ4ku",
        "value": 898300
      },
      "scriptsig": "47304402206224313224c5dbd2a7b8289912858446e08fc55eb0774e9b38093d849851e00002202ec24ee35ceeea418f45fea7c1a687811e348a8e4951e12b590bcae65a782bcf012103dc79aec717a308107a07d1991328beabdd019c9774e3ecc5658970e883b636ab",
      "scriptsig_asm": "OP_PUSHBYTES_71 304402206224313224c5dbd2a7b8289912858446e08fc55eb0774e9b38093d849851e00002202ec24ee35ceeea418f45fea7c1a687811e348a8e4951e12b590bcae65a782bcf01 OP_PUSHBYTES_33 03dc79aec717a308107a07d1991328beabdd019c9774e3ecc5658970e883b636ab",
      "is_coinbase": false,
      "sequence": 4294967295
    }
  ],
  "vout": [
    {
      "scriptpubkey": "a914e19697dfeebb705b6a178ea1e7867b99e18fb22387",
      "scriptpubkey_asm": "OP_HASH160 OP_PUSHBYTES_20 e19697dfeebb705b6a178ea1e7867b99e18fb223 OP_EQUAL",
      "scriptpubkey_type": "p2sh",
      "scriptpubkey_address": "3NFpN7GDFWg8JmeXbAuwyqi9hcPGjN9RsA",
      "value": 696700
    },
    {
      "scriptpubkey": "76a9145d12b9f05208d41df706cf86a97a66c2324d525288ac",
      "scriptpubkey_asm": "OP_DUP OP_HASH160 OP_PUSHBYTES_20 5d12b9f05208d41df706cf86a97a66c2324d5252 OP_EQUALVERIFY OP_CHECKSIG",
      "scriptpubkey_type": "p2pkh",
      "scriptpubkey_address": "19V8Gy9HFjmmt2dzT1zJw1raeDLuK3S5jH",
      "value": 197080
    }
  ],
  "size": 223,
  "weight": 892,
  "fee": 4520,
  "status": {
    "confirmed": true,
    "block_height": 834638,
    "block_hash": "000000000000000000025f742c626208ac87e0b7d15054abb4a19ca2d735a54e",
    "block_time": 1710405325
  },
  "hex": "010000000157e95c62b53f9b60bbd606f3e9a6016202b37a2408f36f878b07b0cfa158d6d8000000006a47304402206224313224c5dbd2a7b8289912858446e08fc55eb0774e9b38093d849851e00002202ec24ee35ceeea418f45fea7c1a687811e348a8e4951e12b590bcae65a782bcf012103dc79aec717a308107a07d1991328beabdd019c9774e3ecc5658970e883b636abffffffff027ca10a000000000017a914e19697dfeebb705b6a178ea1e7867b99e18fb22387d8010300000000001976a9145d12b9f05208d41df706cf86a97a66c2324d525288ac00000000"
}