{
  "txid": "b736562196ac80da2ac359dc7bc862ad5a702a51ba0c1e20c462ce7d7fd583d2",
  "version": 2,
  "locktime": 0,
  "vin": [
    {
      "txid": "3ace812abf0911736f71178844d70cbb37f5ac96f7818a447270a13ecaf7d851",
      "vout": 0,
      "prevout": {
        "scriptpubkey": "00145784e0e46f6385ad16196609226200224773dc0d",
        "scriptpubkey_asm": "OP_0 OP_PUSHBYTES_20 5784e0e46f6385ad16196609226200224773dc0d",
        "scriptpubkey_type": "v0_p2wpkh",
        "scriptpubkey_address": "bc1q27zwper0vwz669sevcyjycsqyfrh8hqdf2uu63",
        "value": 475600
      },
      "scriptsig": "",
      "scriptsig_asm": "",
      "witness": [
        "304402203ab01c35836ab1536e3826c98e15bceb76e1e8049517019b6e3c6b2511ee4c8e02201a545d5e3d67770909b6ab82279d2d60c7e30f51addb513b14712f65d6ce2f3101",
        "023e20d589bf1d0a8558a3f0b35e89b1235178d86027c158a460ff61af750cbf22"
      ],
      "is_coinbase": false,
      "sequence": 4294967295
    }
  ],
  "vout": [
    {
      "scriptpubkey": "001409c5d5ab92a4e2a0eaaccf82616e32469d0b54bb",
      "scriptpubkey_asm": "OP_0 OP_PUSHBYTES_20 09c5d5ab92a4e2a0eaaccf82616e32469d0b54bb",
      "scriptpubkey_type": "v0_p2wpkh",
      "scriptpubkey_address": "bc1qp8zat2uj5n32p64ve7pxzm3jg6wsk49m3zulwy",
      "value": 50500
    },
    {
      "scriptpubkey": "00145784e0e46f6385ad16196609226200224773dc0d",
      "scriptpubkey_asm": "OP_0 OP_PUSHBYTES_20 5784e0e46f6385ad16196609226200224773dc0d",
      "scriptpubkey_type": "v0_p2wpkh",
      "scriptpubkey_address": "bc1q27zwper0vwz669sevcyjycsqyfrh8hqdf2uu63",
      "value": 422844
    }
  ],
  "size": 222,
  "weight": 561,
  "fee": 2256,
  "status": {
    "confirmed": true,
    "block_height": 834552,
    "block_hash": "00000000000000000001dd0468a70c94f619251d286585cff57aeb4bd9ede330",
    "block_time": 1710355598
  },
  "hex": "0200000000010151d8f7ca3ea17072448a81f796acf537bb0cd7448817716f731109bf2a81ce3a0000000000ffffffff0244c500000000000016001409c5d5ab92a4e2a0eaaccf82616e32469d0b54bbbc730600000000001600145784e0e46f6385ad16196609226200224773dc0d0247304402203ab01c35836ab1536e3826c98e15bceb76e1e8049517019b6e3c6b2511ee4c8e02201a545d5e3d67770909b6ab82279d2d60c7e30f51addb513b14712f65d6ce2f310121023e20d589bf1d0a8558a3f0b35e89b1235178d86027c158a460ff61af750cbf2200000000"
}