{
  "txid": "b73e65d50a91efc5f7c9c42145569ac42ff083cf5bf1ac68682a62fab5667338",
  "version": 2,
  "locktime": 834599,
  "vin": [
    {
      "txid": "ac8c3b473609bcec27ac20edc391565ee43ecf6da585de417a55f4bdedff6c1e",
      "vout": 1,
      "prevout": {
        "scriptpubkey": "0014bbf9bdbe391e855696ba5389af973502402dc8f3",
        "scriptpubkey_asm": "OP_0 OP_PUSHBYTES_20 bbf9bdbe391e855696ba5389af973502402dc8f3",
        "scriptpubkey_type": "v0_p2wpkh",
        "scriptpubkey_address": "bc1qh0umm03er6z4d9462wy6l9e4qfqzmj8nyc5m9z",
        "value": 156628752
      },
      "scriptsig": "",
      "scriptsig_asm": "",
      "witness": [
        "3044022010a9497d95121670c32746d8495e8ec60557ad729b73b2083b72455e78b789d202205ec8a56237df27de97339306d5484e696f8fc93785d5a562e193298810f16a2601",
        "02af5a1c979e5577b05b23de3b04eeaef99682c7704ff8e7194774eebf15162c0a"
      ],
      "is_coinbase": false,
      "sequence": 4294967293
    }
  ],
  "vout": [
    {
      "scriptpubkey": "0014c00676ebe1b72eaa19deb9d5a0b658ef878bb5e2",
      "scriptpubkey_asm": "OP_0 OP_PUSHBYTES_20 c00676ebe1b72eaa19deb9d5a0b658ef878bb5e2",
      "scriptpubkey_type": "v0_p2wpkh",
      "scriptpubkey_address": "bc1qcqr8d6lpkuh25xw7h826pdjca7rchd0zh0kr7g",
      "value": 314890
    },
    {
      "scriptpubkey": "0014f602cf9bb747e84025b6700402f5b738a255ca92",
      "scriptpubkey_asm": "OP_0 OP_PUSHBYTES_20 f602cf9bb747e84025b6700402f5b738a255ca92",
      "scriptpubkey_type": "v0_p2wpkh",
      "scriptpubkey_address": "bc1q7cpvlxahgl5yqfdkwqzq9adh8z39tj5j0rmdgw",
      "value": 156310050
    }
  ],
  "size": 222,
  "weight": 561,
  "fee": 3812,
  "status": {
    "confirmed": true,
    "block_height": 834638,
    "block_hash": "000000000000000000025f742c626208ac87e0b7d15054abb4a19ca2d735a54e",
    "block_time": 1710405325
  },
  "hex": "020000000001011e6cffedbdf4557a41de85a56dcf3ee45e5691c3ed20ac27ecbc0936473b8cac0100000000fdffffff020ace040000000000160014c00676ebe1b72eaa19deb9d5a0b658ef878bb5e2221a510900000000160014f602cf9bb747e84025b6700402f5b738a255ca9202473044022010a9497d95121670c32746d8495e8ec60557ad729b73b2083b72455e78b789d202205ec8a56237df27de97339306d5484e696f8fc93785d5a562e193298810f16a26012102af5a1c979e5577b05b23de3b04eeaef99682c7704ff8e7194774eebf15162c0a27bc0c00"
}