{
  "txid": "b74e33932733bdf0738930c2b37fcb582baf5ea99b999ee4edac8127e980eea3",
  "version": 2,
  "locktime": 834637,
  "vin": [
    {
      "txid": "08d65b4ff1c2336f80ba3780a5578e129e6805379a340489aba9fdff0c4a6e13",
      "vout": 0,
      "prevout": {
        "scriptpubkey": "00149b8dc25a0a623f3a3943b8558ce1b1c9a29b320d",
        "scriptpubkey_asm": "OP_0 OP_PUSHBYTES_20 9b8dc25a0a623f3a3943b8558ce1b1c9a29b320d",
        "scriptpubkey_type": "v0_p2wpkh",
        "scriptpubkey_address": "bc1qnwxuyks2vgln5w2rhp2cecd3ex3fkvsdfxh5nj",
        "value": 261284468
      },
      "scriptsig": "",
      "scriptsig_asm": "",
      "witness": [
        "304402203f037bffac747e7d5b40f755dab7eac73534e24dba192e1202a8154bfd7af6bd022044b6de03f2662c18efd5831f01b3b49c14841507e79373ffeda39f6fb306e30c01",
        "0215fb9331eada483e7b06150b89923482ab4f6f97597b9297e6c90c5c8a9357db"
      ],
      "is_coinbase": false,
      "sequence": 4294967294
    }
  ],
  "vout": [
    {
      "scriptpubkey": "a914594508173d89a7b829b7f98b8928d7638442f33387",
      "scriptpubkey_asm": "OP_HASH160 OP_PUSHBYTES_20 594508173d89a7b829b7f98b8928d7638442f333 OP_EQUAL",
      "scriptpubkey_type": "p2sh",
      "scriptpubkey_address": "39q2m1vDgFDHQ7k2fatU3evE8XKXrX7fzh",
      "value": 4957300
    },
    {
      "scriptpubkey": "0014804a5ce623f11106704f76a4dba841e513636dcc",
      "scriptpubkey_asm": "OP_0 OP_PUSHBYTES_20 804a5ce623f11106704f76a4dba841e513636dcc",
      "scriptpubkey_type": "v0_p2wpkh",
      "scriptpubkey_address": "bc1qsp99ee3r7ygsvuz0w6jdh2zpu5fkxmwvhav9xz",
      "value": 256323688
    }
  ],
  "size": 223,
  "weight": 565,
  "fee": 3480,
  "status": {
    "confirmed": true,
    "block_height": 834638,
    "block_hash": "000000000000000000025f742c626208ac87e0b7d15054abb4a19ca2d735a54e",
    "block_time": 1710405325
  },
  "hex": "02000000000101136e4a0cfffda9ab8904349a3705689e128e57a58037ba806f33c2f14f5bd6080000000000feffffff0274a44b000000000017a914594508173d89a7b829b7f98b8928d7638442f333876830470f00000000160014804a5ce623f11106704f76a4dba841e513636dcc0247304402203f037bffac747e7d5b40f755dab7eac73534e24dba192e1202a8154bfd7af6bd022044b6de03f2662c18efd5831f01b3b49c14841507e79373ffeda39f6fb306e30c01210215fb9331eada483e7b06150b89923482ab4f6f97597b9297e6c90c5c8a9357db4dbc0c00"
}