{
  "txid": "b75a67cf8f598b5aacea7fee52d6a5364329398aad09ffa4965e5133d3d753ae",
  "version": 1,
  "locktime": 0,
  "vin": [
    {
      "txid": "cd2308bfca47e056f345435fae78a4e9943d1e452d6e37c601d2ce44667a0c01",
      "vout": 1,
      "prevout": {
        "scriptpubkey": "76a9141e7c72c338f790b929422397218d8785a4aeda6188ac",
        "scriptpubkey_asm": "OP_DUP OP_HASH160 OP_PUSHBYTES_20 1e7c72c338f790b929422397218d8785a4aeda61 OP_EQUALVERIFY OP_CHECKSIG",
        "scriptpubkey_type": "p2pkh",
        "scriptpubkey_address": "13nCMaHDNRGM29UfMMkhUQjHkVYY1ZyrpU",
        "value": 15169269
      },
      "scriptsig": "4730440220310d62a4e73167d5ff6f4e426c2635f40dfcab87f9d4e16cdb3fddb3e9fea008022024e1da4ad89d202badc21f2d696e524e8632d0b4a2f7225344ad8e80a938dc720121031e9a636ef528970636cc811384ffde2a2c6d131a67d02e8e082b0c09c1669f54",
      "scriptsig_asm": "OP_PUSHBYTES_71 30440220310d62a4e73167d5ff6f4e426c2635f40dfcab87f9d4e16cdb3fddb3e9fea008022024e1da4ad89d202badc21f2d696e524e8632d0b4a2f7225344ad8e80a938dc7201 OP_PUSHBYTES_33 031e9a636ef528970636cc811384ffde2a2c6d131a67d02e8e082b0c09c1669f54",
      "is_coinbase": false,
      "sequence": 1
    }
  ],
  "vout": [
    {
      "scriptpubkey": "76a9149b0fca9fc17308c25311c128adb73b25f7d1960188ac",
      "scriptpubkey_asm": "OP_DUP OP_HASH160 OP_PUSHBYTES_20 9b0fca9fc17308c25311c128adb73b25f7d19601 OP_EQUALVERIFY OP_CHECKSIG",
      "scriptpubkey_type": "p2pkh",
      "scriptpubkey_address": "1F8tewtdebDfr1mQFHnE3Y6VzCWfvpqAt3",
      "value": 430000
    },
    {
      "scriptpubkey": "76a9141e7c72c338f790b929422397218d8785a4aeda6188ac",
      "scriptpubkey_asm": "OP_DUP OP_HASH160 OP_PUSHBYTES_20 1e7c72c338f790b929422397218d8785a4aeda61 OP_EQUALVERIFY OP_CHECKSIG",
      "scriptpubkey_type": "p2pkh",
      "scriptpubkey_address": "13nCMaHDNRGM29UfMMkhUQjHkVYY1ZyrpU",
      "value": 14734523
    }
  ],
  "size": 225,
  "weight": 900,
  "fee": 4746,
  "status": {
    "confirmed": true,
    "block_height": 834638,
    "block_hash": "000000000000000000025f742c626208ac87e0b7d15054abb4a19ca2d735a54e",
    "block_time": 1710405325
  },
  "hex": "0100000001010c7a6644ced201c6376e2d451e3d94e9a478ae5f4345f356e047cabf0823cd010000006a4730440220310d62a4e73167d5ff6f4e426c2635f40dfcab87f9d4e16cdb3fddb3e9fea008022024e1da4ad89d202badc21f2d696e524e8632d0b4a2f7225344ad8e80a938dc720121031e9a636ef528970636cc811384ffde2a2c6d131a67d02e8e082b0c09c1669f540100000002b08f0600000000001976a9149b0fca9fc17308c25311c128adb73b25f7d1960188acbbd4e000000000001976a9141e7c72c338f790b929422397218d8785a4aeda6188ac00000000"
}