{
  "txid": "b764fe46ead2adafbe323b9795ed9b35e49615fcb7fc485762ab038181f205ac",
  "version": 1,
  "locktime": 0,
  "vin": [
    {
      "txid": "8888888fdae01f985c0c02d75036a96a0add0c63fe89e5fec26387ed46984193",
      "vout": 0,
      "prevout": {
        "scriptpubkey": "51207819cf2d0566ee31821fac4da85f3e5ab1ae7cd4603a5c8fbcaa3c13e03ff6fb",
        "scriptpubkey_asm": "OP_PUSHNUM_1 OP_PUSHBYTES_32 7819cf2d0566ee31821fac4da85f3e5ab1ae7cd4603a5c8fbcaa3c13e03ff6fb",
        "scriptpubkey_type": "v1_p2tr",
        "scriptpubkey_address": "bc1p0qvu7tg9vmhrrqsl43x6she7t2c6ulx5vqa9erau4g7p8cpl7masjza0vm",
        "value": 11704
      },
      "scriptsig": "",
      "scriptsig_asm": "",
      "witness": [
        "dfbc52a330b25ab9ce02066c07a562cdc6fbe98549fa1d962f805a8ae7e55ff18292db31b60932d2997500d1ee9a267340525f11a11a889cedb8bbd3754c38d2",
        "20c939a6c99941b6d3b54ce120ec99b1597a9557352a600150e097bc361ea60299ac00630461746f6d03646d7442a16461726773a46474696d651a65dc48f2656e6f6e63651906d468626974776f726b6369383838383838382e316b6d696e745f7469636b657268696e66696e69747968",
        "c1c939a6c99941b6d3b54ce120ec99b1597a9557352a600150e097bc361ea60299"
      ],
      "is_coinbase": false,
      "sequence": 1
    }
  ],
  "vout": [
    {
      "scriptpubkey": "5120b510c4cbbd9adad0840a5f50b2fbc7bb1d8231996d5f115e52bb89456507f42a",
      "scriptpubkey_asm": "OP_PUSHNUM_1 OP_PUSHBYTES_32 b510c4cbbd9adad0840a5f50b2fbc7bb1d8231996d5f115e52bb89456507f42a",
      "scriptpubkey_type": "v1_p2tr",
      "scriptpubkey_address": "bc1pk5gvfjaantddppq2tagt9778hvwcyvved403zhjjhwy52eg87s4qdwylgf",
      "value": 9999
    }
  ],
  "size": 310,
  "weight": 592,
  "fee": 1705,
  "status": {
    "confirmed": true,
    "block_height": 834464,
    "block_hash": "0000000000000000000177a0869a911a2b65c9bdcd5a8bcb02b68f305bee848e",
    "block_time": 1710308296
  },
  "hex": "0100000000010193419846ed8763c2fee589fe630cdd0a6aa93650d7020c5c981fe0da8f888888000000000001000000010f27000000000000225120b510c4cbbd9adad0840a5f50b2fbc7bb1d8231996d5f115e52bb89456507f42a0340dfbc52a330b25ab9ce02066c07a562cdc6fbe98549fa1d962f805a8ae7e55ff18292db31b60932d2997500d1ee9a267340525f11a11a889cedb8bbd3754c38d27120c939a6c99941b6d3b54ce120ec99b1597a9557352a600150e097bc361ea60299ac00630461746f6d03646d7442a16461726773a46474696d651a65dc48f2656e6f6e63651906d468626974776f726b6369383838383838382e316b6d696e745f7469636b657268696e66696e6974796821c1c939a6c99941b6d3b54ce120ec99b1597a9557352a600150e097bc361ea6029900000000"
}