{
  "txid": "b76b216318b19457604c965c82af8ab389b8381f2b32628cf057ea97d3e6b0b4",
  "version": 2,
  "locktime": 0,
  "vin": [
    {
      "txid": "ac3df960eb39c9285ff3012f0c8be233a2e0392e4bd975cb832e84c52b1e6f35",
      "vout": 5,
      "prevout": {
        "scriptpubkey": "512078ae4a3c3c2d4804786a90f0dd23353d6ac4c51e7fe090755240951d00c16497",
        "scriptpubkey_asm": "OP_PUSHNUM_1 OP_PUSHBYTES_32 78ae4a3c3c2d4804786a90f0dd23353d6ac4c51e7fe090755240951d00c16497",
        "scriptpubkey_type": "v1_p2tr",
        "scriptpubkey_address": "bc1p0zhy50pu94yqg7r2jrcd6ge4844vf3g70lsfqa2jgz236qxpvjts2nn8yp",
        "value": 600
      },
      "scriptsig": "",
      "scriptsig_asm": "",
      "witness": [
        "09946d552599d094077d43ed5681f418f3ddf0fe2156c298739e84b7d8010d90365492cefe4528895c050a052f46c921c07f15878ee3889ea7faf74866809e31"
      ],
      "is_coinbase": false,
      "sequence": 4294967295
    },
    {
      "txid": "ac3df960eb39c9285ff3012f0c8be233a2e0392e4bd975cb832e84c52b1e6f35",
      "vout": 6,
      "prevout": {
        "scriptpubkey": "512078ae4a3c3c2d4804786a90f0dd23353d6ac4c51e7fe090755240951d00c16497",
        "scriptpubkey_asm": "OP_PUSHNUM_1 OP_PUSHBYTES_32 78ae4a3c3c2d4804786a90f0dd23353d6ac4c51e7fe090755240951d00c16497",
        "scriptpubkey_type": "v1_p2tr",
        "scriptpubkey_address": "bc1p0zhy50pu94yqg7r2jrcd6ge4844vf3g70lsfqa2jgz236qxpvjts2nn8yp",
        "value": 600
      },
      "scriptsig": "",
      "scriptsig_asm": "",
      "witness": [
        "e1d0c633e1d021ab98bf186c72e99e2675124392e62619920883aead8fceb8e2cff7312085b975ca23db44832b6bcb5395b565efe32c3804aef0067c1a97d258"
      ],
      "is_coinbase": false,
      "sequence": 4294967295
    },
    {
      "txid": "007c976012a5c916204a952cbc9548c9caa1f9218f7cd5e7d538e0b2bce87294",
      "vout": 0,
      "prevout": {
        "scriptpubkey": "5120c4d6f33b3dabdff90cff99278d6a4d6b57f5307195b4b2e41397c3c02ef49d96",
        "scriptpubkey_asm": "OP_PUSHNUM_1 OP_PUSHBYTES_32 c4d6f33b3dabdff90cff99278d6a4d6b57f5307195b4b2e41397c3c02ef49d96",
        "scriptpubkey_type": "v1_p2tr",
        "scriptpubkey_address": "bc1pcnt0xwea400ljr8lnync66jdddtl2vr3jk6t9eqnjlpuqth5nktqs05r3w",
        "value": 546
      },
      "scriptsig": "",
      "scriptsig_asm": "",
      "witness": [
        "403085a6c07328d7eb37073c969739ede203e7c0165bd13e5b00a1ecfd510435d93fadb96f20f16c167ffa11687c4921971f58eb3442de409b9eb1f5d0cc08b383"
      ],
      "is_coinbase": false,
      "sequence": 4294967295
    },
    {
      "txid": "ac3df960eb39c9285ff3012f0c8be233a2e0392e4bd975cb832e84c52b1e6f35",
      "vout": 8,
      "prevout": {
        "scriptpubkey": "512078ae4a3c3c2d4804786a90f0dd23353d6ac4c51e7fe090755240951d00c16497",
        "scriptpubkey_asm": "OP_PUSHNUM_1 OP_PUSHBYTES_32 78ae4a3c3c2d4804786a90f0dd23353d6ac4c51e7fe090755240951d00c16497",
        "scriptpubkey_type": "v1_p2tr",
        "scriptpubkey_address": "bc1p0zhy50pu94yqg7r2jrcd6ge4844vf3g70lsfqa2jgz236qxpvjts2nn8yp",
        "value": 1962486
      },
      "scriptsig": "",
      "scriptsig_asm": "",
      "witness": [
        "665f35553707e354a625d3c706b2a5f3ec7ce58115941ef8b8afc51f5c9a10e4a0c764df3aff3986aebd24db65e4dc7f55e189754f594fbc97f692eb07015260"
      ],
      "is_coinbase": false,
      "sequence": 4294967295
    },
    {
      "txid": "b25d43386a679eef6b42af839102f5ea4cc47e3dc5e576123d8dba17d06c5173",
      "vout": 5,
      "prevout": {
        "scriptpubkey": "512078ae4a3c3c2d4804786a90f0dd23353d6ac4c51e7fe090755240951d00c16497",
        "scriptpubkey_asm": "OP_PUSHNUM_1 OP_PUSHBYTES_32 78ae4a3c3c2d4804786a90f0dd23353d6ac4c51e7fe090755240951d00c16497",
        "scriptpubkey_type": "v1_p2tr",
        "scriptpubkey_address": "bc1p0zhy50pu94yqg7r2jrcd6ge4844vf3g70lsfqa2jgz236qxpvjts2nn8yp",
        "value": 462713
      },
      "scriptsig": "",
      "scriptsig_asm": "",
      "witness": [
        "bc2ec7d2748470aa89094ecd794c3d3cdaf9ce050cb9f3b9723122e077b7ac057f17f39443f88e6e0ff0b1da1365b049806f4d0676e7fee69abab7185834f99c"
      ],
      "is_coinbase": false,
      "sequence": 4294967295
    }
  ],
  "vout": [
    {
      "scriptpubkey": "512078ae4a3c3c2d4804786a90f0dd23353d6ac4c51e7fe090755240951d00c16497",
      "scriptpubkey_asm": "OP_PUSHNUM_1 OP_PUSHBYTES_32 78ae4a3c3c2d4804786a90f0dd23353d6ac4c51e7fe090755240951d00c16497",
      "scriptpubkey_type": "v1_p2tr",
      "scriptpubkey_address": "bc1p0zhy50pu94yqg7r2jrcd6ge4844vf3g70lsfqa2jgz236qxpvjts2nn8yp",
      "value": 1200
    },
    {
      "scriptpubkey": "512078ae4a3c3c2d4804786a90f0dd23353d6ac4c51e7fe090755240951d00c16497",
      "scriptpubkey_asm": "OP_PUSHNUM_1 OP_PUSHBYTES_32 78ae4a3c3c2d4804786a90f0dd23353d6ac4c51e7fe090755240951d00c16497",
      "scriptpubkey_type": "v1_p2tr",
      "scriptpubkey_address": "bc1p0zhy50pu94yqg7r2jrcd6ge4844vf3g70lsfqa2jgz236qxpvjts2nn8yp",
      "value": 546
    },
    {
      "scriptpubkey": "5120c4d6f33b3dabdff90cff99278d6a4d6b57f5307195b4b2e41397c3c02ef49d96",
      "scriptpubkey_asm": "OP_PUSHNUM_1 OP_PUSHBYTES_32 c4d6f33b3dabdff90cff99278d6a4d6b57f5307195b4b2e41397c3c02ef49d96",
      "scriptpubkey_type": "v1_p2tr",
      "scriptpubkey_address": "bc1pcnt0xwea400ljr8lnync66jdddtl2vr3jk6t9eqnjlpuqth5nktqs05r3w",
      "value": 2087500
    },
    {
      "scriptpubkey": "512078ae4a3c3c2d4804786a90f0dd23353d6ac4c51e7fe090755240951d00c16497",
      "scriptpubkey_asm": "OP_PUSHNUM_1 OP_PUSHBYTES_32 78ae4a3c3c2d4804786a90f0dd23353d6ac4c51e7fe090755240951d00c16497",
      "scriptpubkey_type": "v1_p2tr",
      "scriptpubkey_address": "bc1p0zhy50pu94yqg7r2jrcd6ge4844vf3g70lsfqa2jgz236qxpvjts2nn8yp",
      "value": 600
    },
    {
      "scriptpubkey": "512078ae4a3c3c2d4804786a90f0dd23353d6ac4c51e7fe090755240951d00c16497",
      "scriptpubkey_asm": "OP_PUSHNUM_1 OP_PUSHBYTES_32 78ae4a3c3c2d4804786a90f0dd23353d6ac4c51e7fe090755240951d00c16497",
      "scriptpubkey_type": "v1_p2tr",
      "scriptpubkey_address": "bc1p0zhy50pu94yqg7r2jrcd6ge4844vf3g70lsfqa2jgz236qxpvjts2nn8yp",
      "value": 600
    },
    {
      "scriptpubkey": "512078ae4a3c3c2d4804786a90f0dd23353d6ac4c51e7fe090755240951d00c16497",
      "scriptpubkey_asm": "OP_PUSHNUM_1 OP_PUSHBYTES_32 78ae4a3c3c2d4804786a90f0dd23353d6ac4c51e7fe090755240951d00c16497",
      "scriptpubkey_type": "v1_p2tr",
      "scriptpubkey_address": "bc1p0zhy50pu94yqg7r2jrcd6ge4844vf3g70lsfqa2jgz236qxpvjts2nn8yp",
      "value": 328144
    }
  ],
  "size": 806,
  "weight": 2225,
  "fee": 8355,
  "status": {
    "confirmed": true,
    "block_height": 834460,
    "block_hash": "00000000000000000000484a79b643b2524bbce82e5d8a442013fa5b8905ed98",
    "block_time": 1710307468
  },
  "hex": "02000000000105356f1e2bc5842e83cb75d94b2e39e0a233e28b0c2f01f35f28c939eb60f93dac0500000000ffffffff356f1e2bc5842e83cb75d94b2e39e0a233e28b0c2f01f35f28c939eb60f93dac0600000000ffffffff9472e8bcb2e038d5e7d57c8f21f9a1cac94895bc2c954a2016c9a51260977c000000000000ffffffff356f1e2bc5842e83cb75d94b2e39e0a233e28b0c2f01f35f28c939eb60f93dac0800000000ffffffff73516cd017ba8d3d1276e5c53d7ec44ceaf5029183af426bef9e676a38435db20500000000ffffffff06b00400000000000022512078ae4a3c3c2d4804786a90f0dd23353d6ac4c51e7fe090755240951d00c16497220200000000000022512078ae4a3c3c2d4804786a90f0dd23353d6ac4c51e7fe090755240951d00c164974cda1f0000000000225120c4d6f33b3dabdff90cff99278d6a4d6b57f5307195b4b2e41397c3c02ef49d96580200000000000022512078ae4a3c3c2d4804786a90f0dd23353d6ac4c51e7fe090755240951d00c16497580200000000000022512078ae4a3c3c2d4804786a90f0dd23353d6ac4c51e7fe090755240951d00c16497d00105000000000022512078ae4a3c3c2d4804786a90f0dd23353d6ac4c51e7fe090755240951d00c16497014009946d552599d094077d43ed5681f418f3ddf0fe2156c298739e84b7d8010d90365492cefe4528895c050a052f46c921c07f15878ee3889ea7faf74866809e310140e1d0c633e1d021ab98bf186c72e99e2675124392e62619920883aead8fceb8e2cff7312085b975ca23db44832b6bcb5395b565efe32c3804aef0067c1a97d2580141403085a6c07328d7eb37073c969739ede203e7c0165bd13e5b00a1ecfd510435d93fadb96f20f16c167ffa11687c4921971f58eb3442de409b9eb1f5d0cc08b3830140665f35553707e354a625d3c706b2a5f3ec7ce58115941ef8b8afc51f5c9a10e4a0c764df3aff3986aebd24db65e4dc7f55e189754f594fbc97f692eb070152600140bc2ec7d2748470aa89094ecd794c3d3cdaf9ce050cb9f3b9723122e077b7ac057f17f39443f88e6e0ff0b1da1365b049806f4d0676e7fee69abab7185834f99c00000000"
}