{
  "txid": "b783ac6f17b3d8e7aee6249a39db9cd455bdd573eef26bfd4c1f56392ed96de8",
  "version": 2,
  "locktime": 0,
  "vin": [
    {
      "txid": "a5c5e22a49effc50f90021ba53cfdeff3a2c0b266c52da4a466ccebc438d14cd",
      "vout": 1,
      "prevout": {
        "scriptpubkey": "51202d21340317ea6ac7cdbb2146cdd78e215990d0b6b8827a6a20d06bb0167ba5dd",
        "scriptpubkey_asm": "OP_PUSHNUM_1 OP_PUSHBYTES_32 2d21340317ea6ac7cdbb2146cdd78e215990d0b6b8827a6a20d06bb0167ba5dd",
        "scriptpubkey_type": "v1_p2tr",
        "scriptpubkey_address": "bc1p95sngqchaf4v0ndmy9rvm4uwy9vep59khzp8563q6p4mq9nm5hws6x32av",
        "value": 115096
      },
      "scriptsig": "",
      "scriptsig_asm": "",
      "witness": [
        "c736fb82c2207e05759fd62232a9d1a0262e46a0ac10fc519e809a9cd44de1c0cfe4ef8bbc4796de5991a84beef39f80364ca1d51b6301dc9e24c77cb2a1faab"
      ],
      "is_coinbase": false,
      "sequence": 4294967295
    }
  ],
  "vout": [
    {
      "scriptpubkey": "5120c92ab239af632bda6d66b1cb5faefe63ed2ed5e43512eb97a5d88a7bb62bc3c4",
      "scriptpubkey_asm": "OP_PUSHNUM_1 OP_PUSHBYTES_32 c92ab239af632bda6d66b1cb5faefe63ed2ed5e43512eb97a5d88a7bb62bc3c4",
      "scriptpubkey_type": "v1_p2tr",
      "scriptpubkey_address": "bc1pey4tywd0vv4a5mtxk894lth7v0kja40yx5fwh9a9mz98hd3tc0zqg4z59r",
      "value": 42000
    },
    {
      "scriptpubkey": "51202d21340317ea6ac7cdbb2146cdd78e215990d0b6b8827a6a20d06bb0167ba5dd",
      "scriptpubkey_asm": "OP_PUSHNUM_1 OP_PUSHBYTES_32 2d21340317ea6ac7cdbb2146cdd78e215990d0b6b8827a6a20d06bb0167ba5dd",
      "scriptpubkey_type": "v1_p2tr",
      "scriptpubkey_address": "bc1p95sngqchaf4v0ndmy9rvm4uwy9vep59khzp8563q6p4mq9nm5hws6x32av",
      "value": 70478
    }
  ],
  "size": 205,
  "weight": 616,
  "fee": 2618,
  "status": {
    "confirmed": true,
    "block_height": 834638,
    "block_hash": "000000000000000000025f742c626208ac87e0b7d15054abb4a19ca2d735a54e",
    "block_time": 1710405325
  },
  "hex": "02000000000101cd148d43bcce6c464ada526c260b2c3affdecf53ba2100f950fcef492ae2c5a50100000000ffffffff0210a4000000000000225120c92ab239af632bda6d66b1cb5faefe63ed2ed5e43512eb97a5d88a7bb62bc3c44e130100000000002251202d21340317ea6ac7cdbb2146cdd78e215990d0b6b8827a6a20d06bb0167ba5dd0140c736fb82c2207e05759fd62232a9d1a0262e46a0ac10fc519e809a9cd44de1c0cfe4ef8bbc4796de5991a84beef39f80364ca1d51b6301dc9e24c77cb2a1faab00000000"
}