{
  "txid": "b795e0774b135700f245f165806180602165188ee68b15054892c60c5c31f555",
  "version": 1,
  "locktime": 0,
  "vin": [
    {
      "txid": "09a635cc7723e9cd10ed872b254aa0ff1d8936c282ec9dc30dd727c2aafd287b",
      "vout": 5,
      "prevout": {
        "scriptpubkey": "001437cf34d93e57ca7f92bb06e19a73999f70415e44",
        "scriptpubkey_asm": "OP_0 OP_PUSHBYTES_20 37cf34d93e57ca7f92bb06e19a73999f70415e44",
        "scriptpubkey_type": "v0_p2wpkh",
        "scriptpubkey_address": "bc1qxl8nfkf72l98ly4mqmse5uuenacyzhjyzevu7c",
        "value": 5651096
      },
      "scriptsig": "",
      "scriptsig_asm": "",
      "witness": [
        "30450221008fc8a87abdda309f542a215be826b30cd7ccd4edcc0baea9913ac8f88bd796140220282a2442d51a85364f446eeb4b70131f0a084ba02956339cfb0704b6724398a901",
        "029bdf18e379b5ba0630c096c27ff37a60c24185ab727937e84f6f8eb46aa51b1e"
      ],
      "is_coinbase": false,
      "sequence": 4294967295
    }
  ],
  "vout": [
    {
      "scriptpubkey": "001490343bbd48eb63683cf700f497118c3c0fc197f1",
      "scriptpubkey_asm": "OP_0 OP_PUSHBYTES_20 90343bbd48eb63683cf700f497118c3c0fc197f1",
      "scriptpubkey_type": "v0_p2wpkh",
      "scriptpubkey_address": "bc1qjq6rh02gad3ks08hqr6fwyvv8s8ur9l3v27sqz",
      "value": 4875342
    },
    {
      "scriptpubkey": "0014482582d58c980a61ca52d6e343ee8e8b7e611b0f",
      "scriptpubkey_asm": "OP_0 OP_PUSHBYTES_20 482582d58c980a61ca52d6e343ee8e8b7e611b0f",
      "scriptpubkey_type": "v0_p2wpkh",
      "scriptpubkey_address": "bc1qfqjc94vvnq9xrjjj6m358m5w3dlxzxc0hll066",
      "value": 773685
    }
  ],
  "size": 223,
  "weight": 562,
  "fee": 2069,
  "status": {
    "confirmed": true,
    "block_height": 834638,
    "block_hash": "000000000000000000025f742c626208ac87e0b7d15054abb4a19ca2d735a54e",
    "block_time": 1710405325
  },
  "hex": "010000000001017b28fdaac227d70dc39dec82c236891dffa04a252b87ed10cde92377cc35a6090500000000ffffffff024e644a000000000016001490343bbd48eb63683cf700f497118c3c0fc197f135ce0b0000000000160014482582d58c980a61ca52d6e343ee8e8b7e611b0f024830450221008fc8a87abdda309f542a215be826b30cd7ccd4edcc0baea9913ac8f88bd796140220282a2442d51a85364f446eeb4b70131f0a084ba02956339cfb0704b6724398a90121029bdf18e379b5ba0630c096c27ff37a60c24185ab727937e84f6f8eb46aa51b1e00000000"
}