{
  "txid": "b7a53f9f0dfdafce5343552ecd953e5bc025d89e9d960a74a477745798beee83",
  "version": 2,
  "locktime": 0,
  "vin": [
    {
      "txid": "e5999d86021b63fa2800c6ddef2410c9e93ab4bca1b33acbc69531eca93f8c46",
      "vout": 11,
      "prevout": {
        "scriptpubkey": "0014b001aaabaaff5e1c249f2ee70304f66fbe65528b",
        "scriptpubkey_asm": "OP_0 OP_PUSHBYTES_20 b001aaabaaff5e1c249f2ee70304f66fbe65528b",
        "scriptpubkey_type": "v0_p2wpkh",
        "scriptpubkey_address": "bc1qkqq642a2la0pcfyl9mnsxp8kd7lx255tlk9nnt",
        "value": 29000
      },
      "scriptsig": "",
      "scriptsig_asm": "",
      "witness": [
        "3045022100f1748a07d3204db97cf33c7489aefa02b2b9508693d2dc7b850d4bc982728ed902203324399871d2edfe5b09fb7c70b208c6deda8fdebc25bdfcc35e63592718bf4001",
        "034034d5cb0ea9ca61e78c64a8b456a2d91fff3f19cd66701afb9dd8ac4f1e6d46"
      ],
      "is_coinbase": false,
      "sequence": 4294967295
    },
    {
      "txid": "798fa3fefcb1345a7dbc377bab2f185e58e7b78c79ac3d83403f3f7c261a32b9",
      "vout": 1,
      "prevout": {
        "scriptpubkey": "0014b001aaabaaff5e1c249f2ee70304f66fbe65528b",
        "scriptpubkey_asm": "OP_0 OP_PUSHBYTES_20 b001aaabaaff5e1c249f2ee70304f66fbe65528b",
        "scriptpubkey_type": "v0_p2wpkh",
        "scriptpubkey_address": "bc1qkqq642a2la0pcfyl9mnsxp8kd7lx255tlk9nnt",
        "value": 21976
      },
      "scriptsig": "",
      "scriptsig_asm": "",
      "witness": [
        "3045022100cf92b7c6ec9f9990909c23b530e1eb90b122c0ce40ae1b190bab6e809115698c022038b086603029e253b56690aed5f29854d8e1e6e9b24d8ef30d24a1cdb8ecb7a901",
        "034034d5cb0ea9ca61e78c64a8b456a2d91fff3f19cd66701afb9dd8ac4f1e6d46"
      ],
      "is_coinbase": false,
      "sequence": 4294967295
    },
    {
      "txid": "3c8d5947e025aaa649da3b799db3fd35ce3831751eed82d5aba2e455e7014c52",
      "vout": 1,
      "prevout": {
        "scriptpubkey": "0014b001aaabaaff5e1c249f2ee70304f66fbe65528b",
        "scriptpubkey_asm": "OP_0 OP_PUSHBYTES_20 b001aaabaaff5e1c249f2ee70304f66fbe65528b",
        "scriptpubkey_type": "v0_p2wpkh",
        "scriptpubkey_address": "bc1qkqq642a2la0pcfyl9mnsxp8kd7lx255tlk9nnt",
        "value": 4396
      },
      "scriptsig": "",
      "scriptsig_asm": "",
      "witness": [
        "30450221008a8c467ac10cdb08f22dc5a5e89f3ab9cab9261522159aea57d559653c97aa2d022021c43b850617f3d0e381e81f165440f8f2ffe051ff88166829dc29058c89db5601",
        "034034d5cb0ea9ca61e78c64a8b456a2d91fff3f19cd66701afb9dd8ac4f1e6d46"
      ],
      "is_coinbase": false,
      "sequence": 4294967295
    }
  ],
  "vout": [
    {
      "scriptpubkey": "a914d3d987dc86b99c03fb73cc662ecf4d20a35284ec87",
      "scriptpubkey_asm": "OP_HASH160 OP_PUSHBYTES_20 d3d987dc86b99c03fb73cc662ecf4d20a35284ec OP_EQUAL",
      "scriptpubkey_type": "p2sh",
      "scriptpubkey_address": "3M1B6KRyTj5kgZXa5haZaHoQvcL7KG8r76",
      "value": 49796
    },
    {
      "scriptpubkey": "0014b001aaabaaff5e1c249f2ee70304f66fbe65528b",
      "scriptpubkey_asm": "OP_0 OP_PUSHBYTES_20 b001aaabaaff5e1c249f2ee70304f66fbe65528b",
      "scriptpubkey_type": "v0_p2wpkh",
      "scriptpubkey_address": "bc1qkqq642a2la0pcfyl9mnsxp8kd7lx255tlk9nnt",
      "value": 2580
    }
  ],
  "size": 522,
  "weight": 1110,
  "fee": 2996,
  "status": {
    "confirmed": true,
    "block_height": 834464,
    "block_hash": "0000000000000000000177a0869a911a2b65c9bdcd5a8bcb02b68f305bee848e",
    "block_time": 1710308296
  },
  "hex": "02000000000103468c3fa9ec3195c6cb3ab3a1bcb43ae9c91024efddc60028fa631b02869d99e50b00000000ffffffffb9321a267c3f3f40833dac798cb7e7585e182fab7b37bc7d5a34b1fcfea38f790100000000ffffffff524c01e755e4a2abd582ed1e753138ce35fdb39d793bda49a6aa25e047598d3c0100000000ffffffff0284c200000000000017a914d3d987dc86b99c03fb73cc662ecf4d20a35284ec87140a000000000000160014b001aaabaaff5e1c249f2ee70304f66fbe65528b02483045022100f1748a07d3204db97cf33c7489aefa02b2b9508693d2dc7b850d4bc982728ed902203324399871d2edfe5b09fb7c70b208c6deda8fdebc25bdfcc35e63592718bf400121034034d5cb0ea9ca61e78c64a8b456a2d91fff3f19cd66701afb9dd8ac4f1e6d4602483045022100cf92b7c6ec9f9990909c23b530e1eb90b122c0ce40ae1b190bab6e809115698c022038b086603029e253b56690aed5f29854d8e1e6e9b24d8ef30d24a1cdb8ecb7a90121034034d5cb0ea9ca61e78c64a8b456a2d91fff3f19cd66701afb9dd8ac4f1e6d46024830450221008a8c467ac10cdb08f22dc5a5e89f3ab9cab9261522159aea57d559653c97aa2d022021c43b850617f3d0e381e81f165440f8f2ffe051ff88166829dc29058c89db560121034034d5cb0ea9ca61e78c64a8b456a2d91fff3f19cd66701afb9dd8ac4f1e6d4600000000"
}