{
  "txid": "b7a717a08d7bb771d800c19fda05a4e7ac9bc9acd6c3ebae94156b8bd6166344",
  "version": 2,
  "locktime": 0,
  "vin": [
    {
      "txid": "b27495e17f1d14bd7cf84f85fd94dd8c01882eff7ba2e28063f74bc27b629465",
      "vout": 1,
      "prevout": {
        "scriptpubkey": "5120c5625f5606a8688f57f1efd79e1e9baaa4d5e68530635d6762c5de11fa995360",
        "scriptpubkey_asm": "OP_PUSHNUM_1 OP_PUSHBYTES_32 c5625f5606a8688f57f1efd79e1e9baaa4d5e68530635d6762c5de11fa995360",
        "scriptpubkey_type": "v1_p2tr",
        "scriptpubkey_address": "bc1pc43974sx4p5g74l3alteu85m42jdte59xp346emzch0pr75e2dsq7wsvzu",
        "value": 21554
      },
      "scriptsig": "",
      "scriptsig_asm": "",
      "witness": [
        "791807fff6a11ab613c1a1dfc7349512f216d06cf414f83c255bd999cba1fb88ba6be176c8ff08d1419921792f0e310a3897deb6ea45ca72304b0d7c5e0c5ab9"
      ],
      "is_coinbase": false,
      "sequence": 4294967293
    }
  ],
  "vout": [
    {
      "scriptpubkey": "51201228b7c72436032efaf15f4ed2f1cda01394c6116a1efb165c04ccdd3d1e3133",
      "scriptpubkey_asm": "OP_PUSHNUM_1 OP_PUSHBYTES_32 1228b7c72436032efaf15f4ed2f1cda01394c6116a1efb165c04ccdd3d1e3133",
      "scriptpubkey_type": "v1_p2tr",
      "scriptpubkey_address": "bc1pzg5t03eyxcpja7h3ta8d9uwd5qfef3s3dg00k9juqnxd60g7xyesr4vyur",
      "value": 3738
    },
    {
      "scriptpubkey": "5120c5625f5606a8688f57f1efd79e1e9baaa4d5e68530635d6762c5de11fa995360",
      "scriptpubkey_asm": "OP_PUSHNUM_1 OP_PUSHBYTES_32 c5625f5606a8688f57f1efd79e1e9baaa4d5e68530635d6762c5de11fa995360",
      "scriptpubkey_type": "v1_p2tr",
      "scriptpubkey_address": "bc1pc43974sx4p5g74l3alteu85m42jdte59xp346emzch0pr75e2dsq7wsvzu",
      "value": 14582
    }
  ],
  "size": 205,
  "weight": 616,
  "fee": 3234,
  "status": {
    "confirmed": true,
    "block_height": 834460,
    "block_hash": "00000000000000000000484a79b643b2524bbce82e5d8a442013fa5b8905ed98",
    "block_time": 1710307468
  },
  "hex": "020000000001016594627bc24bf76380e2a27bff2e88018cdd94fd854ff87cbd141d7fe19574b20100000000fdffffff029a0e0000000000002251201228b7c72436032efaf15f4ed2f1cda01394c6116a1efb165c04ccdd3d1e3133f638000000000000225120c5625f5606a8688f57f1efd79e1e9baaa4d5e68530635d6762c5de11fa9953600140791807fff6a11ab613c1a1dfc7349512f216d06cf414f83c255bd999cba1fb88ba6be176c8ff08d1419921792f0e310a3897deb6ea45ca72304b0d7c5e0c5ab900000000"
}