{
  "txid": "b7b6a764b613f988859564876ee937b80b0f7745ea0622ef9de9c114c7e18c24",
  "version": 2,
  "locktime": 0,
  "vin": [
    {
      "txid": "33198a5cbe2a53fc30099ab53009144888cef479020e7acbc065183b03c26d7b",
      "vout": 8,
      "prevout": {
        "scriptpubkey": "5120370a44fb8e6c73bc9142961c8c217d52d21be80c7eee7233c0b9d56687870f9b",
        "scriptpubkey_asm": "OP_PUSHNUM_1 OP_PUSHBYTES_32 370a44fb8e6c73bc9142961c8c217d52d21be80c7eee7233c0b9d56687870f9b",
        "scriptpubkey_type": "v1_p2tr",
        "scriptpubkey_address": "bc1pxu9yf7uwd3emey2zjcwgcgta2tfph6qv0mh8yv7qh82kdpu8p7ds6l25wa",
        "value": 2658
      },
      "scriptsig": "",
      "scriptsig_asm": "",
      "witness": [
        "c1cdc0b60367dda43c913ff302505349ea44ed5e0721eb9d99853a9bfa08c682b2c5c353ca31fc28c917f92ca83307a93a3e3c7c6f265b15df784ee11bac0456",
        "206b7f00f11aaff4685c5032d5ff353c90d409674976c00b158d86992adeaf2eb9ac0063036f726401011e6170706c69636174696f6e2f6a736f6e3b636861727365743d7574662d38004cbf7b2270223a22706f772d3230222c226f70223a226d696e74222c227469636b223a2250455045222c22616d74223a2231303030222c22736f6c7574696f6e223a22504550453a626331717832636c7935673578376b356a6b7376396d61346332753661646c7a78657470616e387071733a303030303030303030303030303030303030303139393431613561653132383937363539383134343239323533333030353762306461393666336465613163353a3132303232343539393338227d68",
        "c1da2c9a1920efdfbecd176e4adbb0ca1150e62509fd8a3a19d8331b0c89a8a97b"
      ],
      "is_coinbase": false,
      "sequence": 4294967295
    }
  ],
  "vout": [
    {
      "scriptpubkey": "001432b1f2511437ad495a0c2efb5c2b9aeb7e236561",
      "scriptpubkey_asm": "OP_0 OP_PUSHBYTES_20 32b1f2511437ad495a0c2efb5c2b9aeb7e236561",
      "scriptpubkey_type": "v0_p2wpkh",
      "scriptpubkey_address": "bc1qx2cly5g5x7k5jksv9ma4c2u6adlzxetpan8pqs",
      "value": 546
    }
  ],
  "size": 455,
  "weight": 701,
  "fee": 2112,
  "status": {
    "confirmed": true,
    "block_height": 834460,
    "block_hash": "00000000000000000000484a79b643b2524bbce82e5d8a442013fa5b8905ed98",
    "block_time": 1710307468
  },
  "hex": "020000000001017b6dc2033b1865c0cb7a0e0279f4ce8848140930b59a0930fc532abe5c8a19330800000000ffffffff01220200000000000016001432b1f2511437ad495a0c2efb5c2b9aeb7e2365610340c1cdc0b60367dda43c913ff302505349ea44ed5e0721eb9d99853a9bfa08c682b2c5c353ca31fc28c917f92ca83307a93a3e3c7c6f265b15df784ee11bac0456fd0c01206b7f00f11aaff4685c5032d5ff353c90d409674976c00b158d86992adeaf2eb9ac0063036f726401011e6170706c69636174696f6e2f6a736f6e3b636861727365743d7574662d38004cbf7b2270223a22706f772d3230222c226f70223a226d696e74222c227469636b223a2250455045222c22616d74223a2231303030222c22736f6c7574696f6e223a22504550453a626331717832636c7935673578376b356a6b7376396d61346332753661646c7a78657470616e387071733a303030303030303030303030303030303030303139393431613561653132383937363539383134343239323533333030353762306461393666336465613163353a3132303232343539393338227d6821c1da2c9a1920efdfbecd176e4adbb0ca1150e62509fd8a3a19d8331b0c89a8a97b00000000"
}