{
  "txid": "b7c2a4671798d7f87266b042043a59d4d3208eb769db7aa63f3a495f75be1d3e",
  "version": 1,
  "locktime": 0,
  "vin": [
    {
      "txid": "1240c4207360ece1c6016a76f4b08198d4eecc44391e427cdb9c3ed9c2cee083",
      "vout": 1,
      "prevout": {
        "scriptpubkey": "51202cf3cfe57a56e55f9d66b8c9313e1283f273548520643be2519b18235a4815e8",
        "scriptpubkey_asm": "OP_PUSHNUM_1 OP_PUSHBYTES_32 2cf3cfe57a56e55f9d66b8c9313e1283f273548520643be2519b18235a4815e8",
        "scriptpubkey_type": "v1_p2tr",
        "scriptpubkey_address": "bc1p9neulet62mj4l8txhrynz0sjs0e8x4y9ypjrhcj3nvvzxkjgzh5qsrxgx5",
        "value": 144996
      },
      "scriptsig": "",
      "scriptsig_asm": "",
      "witness": [
        "c77a9a6396a927b860a53d8398e49d70a6f8f736c3153555eadb95e6ef49357724636c18cb51d2d42986a7a34a3369b323a385f1824ff95a953e482aebf6345d"
      ],
      "is_coinbase": false,
      "sequence": 0
    }
  ],
  "vout": [
    {
      "scriptpubkey": "5120f35baf84dd2f94e4674a9f4c54d483da932ee5946b4ed43c8d1a624848183732",
      "scriptpubkey_asm": "OP_PUSHNUM_1 OP_PUSHBYTES_32 f35baf84dd2f94e4674a9f4c54d483da932ee5946b4ed43c8d1a624848183732",
      "scriptpubkey_type": "v1_p2tr",
      "scriptpubkey_address": "bc1p7dd6lpxa972wge62nax9f4yrm2fjaev5dd8dg0ydrf3ysjqcxueqnmjael",
      "value": 2713
    },
    {
      "scriptpubkey": "51202cf3cfe57a56e55f9d66b8c9313e1283f273548520643be2519b18235a4815e8",
      "scriptpubkey_asm": "OP_PUSHNUM_1 OP_PUSHBYTES_32 2cf3cfe57a56e55f9d66b8c9313e1283f273548520643be2519b18235a4815e8",
      "scriptpubkey_type": "v1_p2tr",
      "scriptpubkey_address": "bc1p9neulet62mj4l8txhrynz0sjs0e8x4y9ypjrhcj3nvvzxkjgzh5qsrxgx5",
      "value": 140435
    }
  ],
  "size": 205,
  "weight": 616,
  "fee": 1848,
  "status": {
    "confirmed": true,
    "block_height": 834460,
    "block_hash": "00000000000000000000484a79b643b2524bbce82e5d8a442013fa5b8905ed98",
    "block_time": 1710307468
  },
  "hex": "0100000000010183e0cec2d93e9cdb7c421e3944cceed49881b0f4766a01c6e1ec607320c4401201000000000000000002990a000000000000225120f35baf84dd2f94e4674a9f4c54d483da932ee5946b4ed43c8d1a62484818373293240200000000002251202cf3cfe57a56e55f9d66b8c9313e1283f273548520643be2519b18235a4815e80140c77a9a6396a927b860a53d8398e49d70a6f8f736c3153555eadb95e6ef49357724636c18cb51d2d42986a7a34a3369b323a385f1824ff95a953e482aebf6345d00000000"
}