{
  "txid": "b7c49d82a0e862e2357d9f7c51334f120cb6fb62c71849fade595597f4696dbd",
  "version": 1,
  "locktime": 0,
  "vin": [
    {
      "txid": "1e6320bfb6e02341e742ed41a6f204078df0e46e91fb6cc133c8be46306696ab",
      "vout": 1,
      "prevout": {
        "scriptpubkey": "0014592e194b436ed2771548e8fdf15b5422c2943485",
        "scriptpubkey_asm": "OP_0 OP_PUSHBYTES_20 592e194b436ed2771548e8fdf15b5422c2943485",
        "scriptpubkey_type": "v0_p2wpkh",
        "scriptpubkey_address": "bc1qtyhpjj6rdmf8w92gar7lzk65ytpfgdy9y3a78h",
        "value": 174087
      },
      "scriptsig": "",
      "scriptsig_asm": "",
      "witness": [
        "3045022100b2157b8999bff0dacc5c860cfcbdd116b777910268abd0781a5ac913d742902c022016133631555cef337f91471def642c6029e59dc418dfba7a91897966cf46113701",
        "035649f57564c8ece8ea8111a6f8d1127d4840e02f1d9bb7713d55325788609792"
      ],
      "is_coinbase": false,
      "sequence": 4294967295
    }
  ],
  "vout": [
    {
      "scriptpubkey": "001461ac6acaed520d4fa1f69cd319baf5e4fb324b8f",
      "scriptpubkey_asm": "OP_0 OP_PUSHBYTES_20 61ac6acaed520d4fa1f69cd319baf5e4fb324b8f",
      "scriptpubkey_type": "v0_p2wpkh",
      "scriptpubkey_address": "bc1qvxkx4jhd2gx5lg0knnf3nwh4unanyju0jjzn3m",
      "value": 136068
    },
    {
      "scriptpubkey": "0014ac88ccbae5c47b3b3cb54d2ed2b4049f4e5b3132",
      "scriptpubkey_asm": "OP_0 OP_PUSHBYTES_20 ac88ccbae5c47b3b3cb54d2ed2b4049f4e5b3132",
      "scriptpubkey_type": "v0_p2wpkh",
      "scriptpubkey_address": "bc1q4jyvewh9c3ank094f5hd9dqyna89kvfjxh664e",
      "value": 35904
    }
  ],
  "size": 223,
  "weight": 562,
  "fee": 2115,
  "status": {
    "confirmed": true,
    "block_height": 834638,
    "block_hash": "000000000000000000025f742c626208ac87e0b7d15054abb4a19ca2d735a54e",
    "block_time": 1710405325
  },
  "hex": "01000000000101ab96663046bec833c16cfb916ee4f08d0704f2a641ed42e74123e0b6bf20631e0100000000ffffffff02841302000000000016001461ac6acaed520d4fa1f69cd319baf5e4fb324b8f408c000000000000160014ac88ccbae5c47b3b3cb54d2ed2b4049f4e5b313202483045022100b2157b8999bff0dacc5c860cfcbdd116b777910268abd0781a5ac913d742902c022016133631555cef337f91471def642c6029e59dc418dfba7a91897966cf4611370121035649f57564c8ece8ea8111a6f8d1127d4840e02f1d9bb7713d5532578860979200000000"
}