{
  "txid": "b7ca3553f6badfd051773b6ba3985d8cb7faa3312e1253206f3053b0281d9317",
  "version": 1,
  "locktime": 0,
  "vin": [
    {
      "txid": "020ad831e9a31b4f70d947f6d02b20d1d229d15080d6a0a25944da3e22e26b4f",
      "vout": 0,
      "prevout": {
        "scriptpubkey": "a91448cb3d1fb800d33fab51dd8d0208e05027d27dd687",
        "scriptpubkey_asm": "OP_HASH160 OP_PUSHBYTES_20 48cb3d1fb800d33fab51dd8d0208e05027d27dd6 OP_EQUAL",
        "scriptpubkey_type": "p2sh",
        "scriptpubkey_address": "38Kv3de32JH5tX8mQuC7KrKLxNEAyUEe35",
        "value": 1147532696
      },
      "scriptsig": "0047304402204c82bf7d74bb0d8e95d1303c609fe38146d05c7988e7a156c2c4c2bea1e0935a02205a6ce8a94ad5463498eb5b51ed9717494d7675896a3c0a97310079743672929601473044022045b45d63d32437d45213b3ab42c9e6c0d44d2948856e569d45230c0f5920f44d02202095e22863de7dcc67d0437805245a209e5bc40002250c14a9d526ef2ad5aada014c695221035749a331cd5ceaec3408de6d6472f801dcc20197a32545d10468cb9a41f24b942103017f04ee46a9a984e2b7bbc05296505062256a9ce1dd8459f4d570b0240347d82102aa5774b6c2fa3a98d058af9b968fddc7ab86ea68e0e9899546f2c4153baded6553ae",
      "scriptsig_asm": "OP_0 OP_PUSHBYTES_71 304402204c82bf7d74bb0d8e95d1303c609fe38146d05c7988e7a156c2c4c2bea1e0935a02205a6ce8a94ad5463498eb5b51ed9717494d7675896a3c0a97310079743672929601 OP_PUSHBYTES_71 3044022045b45d63d32437d45213b3ab42c9e6c0d44d2948856e569d45230c0f5920f44d02202095e22863de7dcc67d0437805245a209e5bc40002250c14a9d526ef2ad5aada01 OP_PUSHDATA1 5221035749a331cd5ceaec3408de6d6472f801dcc20197a32545d10468cb9a41f24b942103017f04ee46a9a984e2b7bbc05296505062256a9ce1dd8459f4d570b0240347d82102aa5774b6c2fa3a98d058af9b968fddc7ab86ea68e0e9899546f2c4153baded6553ae",
      "is_coinbase": false,
      "sequence": 4294967295,
      "inner_redeemscript_asm": "OP_PUSHNUM_2 OP_PUSHBYTES_33 035749a331cd5ceaec3408de6d6472f801dcc20197a32545d10468cb9a41f24b94 OP_PUSHBYTES_33 03017f04ee46a9a984e2b7bbc05296505062256a9ce1dd8459f4d570b0240347d8 OP_PUSHBYTES_33 02aa5774b6c2fa3a98d058af9b968fddc7ab86ea68e0e9899546f2c4153baded65 OP_PUSHNUM_3 OP_CHECKMULTISIG"
    }
  ],
  "vout": [
    {
      "scriptpubkey": "001466cbf3f8b88723d257f0e99ec2b43ba2a60d2148",
      "scriptpubkey_asm": "OP_0 OP_PUSHBYTES_20 66cbf3f8b88723d257f0e99ec2b43ba2a60d2148",
      "scriptpubkey_type": "v0_p2wpkh",
      "scriptpubkey_address": "bc1qvm9l879csu3ay4lsax0v9dpm52nq6g2ga8e6ca",
      "value": 298166
    },
    {
      "scriptpubkey": "00140dbcf15ea0a05a4780eeeba06d29a235ef0e66da",
      "scriptpubkey_asm": "OP_0 OP_PUSHBYTES_20 0dbcf15ea0a05a4780eeeba06d29a235ef0e66da",
      "scriptpubkey_type": "v0_p2wpkh",
      "scriptpubkey_address": "bc1qpk70zh4q5pdy0q8wawsx62dzxhhsuek6argga3",
      "value": 25610126
    },
    {
      "scriptpubkey": "00148d36d9e69985b568982415aeb60c00f97da3b593",
      "scriptpubkey_asm": "OP_0 OP_PUSHBYTES_20 8d36d9e69985b568982415aeb60c00f97da3b593",
      "scriptpubkey_type": "v0_p2wpkh",
      "scriptpubkey_address": "bc1q35mdne5esk6k3xpyzkhtvrqql9768dvnkgs43h",
      "value": 1004800
    },
    {
      "scriptpubkey": "0014a74661e801edf900c0b9919011c5366696e077c4",
      "scriptpubkey_asm": "OP_0 OP_PUSHBYTES_20 a74661e801edf900c0b9919011c5366696e077c4",
      "scriptpubkey_type": "v0_p2wpkh",
      "scriptpubkey_address": "bc1q5arxr6qpahusps9ejxgpr3fkv6twqa7y7t60a3",
      "value": 105182
    },
    {
      "scriptpubkey": "a914832c8c0f285ed4444fe99dba2a1bab4c4375055887",
      "scriptpubkey_asm": "OP_HASH160 OP_PUSHBYTES_20 832c8c0f285ed4444fe99dba2a1bab4c43750558 OP_EQUAL",
      "scriptpubkey_type": "p2sh",
      "scriptpubkey_address": "3DeborsoXFvnb27nMwMbzBRdzCiZBSdgYh",
      "value": 410000
    },
    {
      "scriptpubkey": "5120d2547c477ba612b0cd94651c748d5729b5828d01fb37ff02b1857f9165733d9d",
      "scriptpubkey_asm": "OP_PUSHNUM_1 OP_PUSHBYTES_32 d2547c477ba612b0cd94651c748d5729b5828d01fb37ff02b1857f9165733d9d",
      "scriptpubkey_type": "v1_p2tr",
      "scriptpubkey_address": "bc1p6f28c3mm5cftpnv5v5w8fr2h9x6c9rgplvml7q43s4lezetn8kwsypdm4p",
      "value": 4981902
    },
    {
      "scriptpubkey": "51209a61586ec28aab791112c4a134647947d850073305f25f1215993c8993a1f8fe",
      "scriptpubkey_asm": "OP_PUSHNUM_1 OP_PUSHBYTES_32 9a61586ec28aab791112c4a134647947d850073305f25f1215993c8993a1f8fe",
      "scriptpubkey_type": "v1_p2tr",
      "scriptpubkey_address": "bc1pnfs4smkz324hjygjcjsngereglv9qpenqhe97ys4ny7gnyaplrlq8aj0j2",
      "value": 4767859
    },
    {
      "scriptpubkey": "51202763bc19f9154971719d06b2d1255e95696d8f4ea80bf8b734fd20b6f3d1f500",
      "scriptpubkey_asm": "OP_PUSHNUM_1 OP_PUSHBYTES_32 2763bc19f9154971719d06b2d1255e95696d8f4ea80bf8b734fd20b6f3d1f500",
      "scriptpubkey_type": "v1_p2tr",
      "scriptpubkey_address": "bc1pya3mcx0ez4yhzuvaq6edzf27j45kmr6w4q9l3de5l5stdu7375qqfd9agk",
      "value": 495000
    },
    {
      "scriptpubkey": "00140c16f6918f7d8cd743469995d61a34e30face031",
      "scriptpubkey_asm": "OP_0 OP_PUSHBYTES_20 0c16f6918f7d8cd743469995d61a34e30face031",
      "scriptpubkey_type": "v0_p2wpkh",
      "scriptpubkey_address": "bc1qpst0dyv00kxdws6xnx2avx35uv86ecp3mznjpk",
      "value": 1890000
    },
    {
      "scriptpubkey": "a914f18ea6f7623f5633ec0dec92b17b300731cb9de587",
      "scriptpubkey_asm": "OP_HASH160 OP_PUSHBYTES_20 f18ea6f7623f5633ec0dec92b17b300731cb9de5 OP_EQUAL",
      "scriptpubkey_type": "p2sh",
      "scriptpubkey_address": "3PiFfRZnmSdjjVckMCerD8syjLTErLeBTN",
      "value": 279995000
    },
    {
      "scriptpubkey": "0014672a31bda1d3716f0a9af6e8604dd90537eb0173",
      "scriptpubkey_asm": "OP_0 OP_PUSHBYTES_20 672a31bda1d3716f0a9af6e8604dd90537eb0173",
      "scriptpubkey_type": "v0_p2wpkh",
      "scriptpubkey_address": "bc1qvu4rr0dp6dck7z567m5xqnweq5m7kqtnp85ue8",
      "value": 8164383
    },
    {
      "scriptpubkey": "5120a8acc9534cf0f998fe6bf17ce38050c5e433284257d1490c1ba84cb89e04aa55",
      "scriptpubkey_asm": "OP_PUSHNUM_1 OP_PUSHBYTES_32 a8acc9534cf0f998fe6bf17ce38050c5e433284257d1490c1ba84cb89e04aa55",
      "scriptpubkey_type": "v1_p2tr",
      "scriptpubkey_address": "bc1p4zkvj56v7rue3lnt797w8qzschjrx2zz2lg5jrqm4pxt38sy4f2sjeh9u2",
      "value": 629753
    },
    {
      "scriptpubkey": "512046012fc0ab4b93a72ae99c8e75de5adca6282388c84c78ce41dff9d764e278cb",
      "scriptpubkey_asm": "OP_PUSHNUM_1 OP_PUSHBYTES_32 46012fc0ab4b93a72ae99c8e75de5adca6282388c84c78ce41dff9d764e278cb",
      "scriptpubkey_type": "v1_p2tr",
      "scriptpubkey_address": "bc1pgcqjls9tfwf6w2hfnj88thj6mjnzsgugepx83njpmluawe8z0r9sr9l4w4",
      "value": 168996
    },
    {
      "scriptpubkey": "a9147966ae9332622c6fa8195b677f87aa20f13d396b87",
      "scriptpubkey_asm": "OP_HASH160 OP_PUSHBYTES_20 7966ae9332622c6fa8195b677f87aa20f13d396b OP_EQUAL",
      "scriptpubkey_type": "p2sh",
      "scriptpubkey_address": "3CkvhDmsjBhrDWD9ZtHphFpUpXr6nMTHUy",
      "value": 776000
    },
    {
      "scriptpubkey": "76a914cffc33d11cb86ce5acdb081610606719aca8e03d88ac",
      "scriptpubkey_asm": "OP_DUP OP_HASH160 OP_PUSHBYTES_20 cffc33d11cb86ce5acdb081610606719aca8e03d OP_EQUALVERIFY OP_CHECKSIG",
      "scriptpubkey_type": "p2pkh",
      "scriptpubkey_address": "1Kxj13HwEFPZ8PXfPow81GLfT16JUp9Sx4",
      "value": 399996000
    },
    {
      "scriptpubkey": "a9147966ae9332622c6fa8195b677f87aa20f13d396b87",
      "scriptpubkey_asm": "OP_HASH160 OP_PUSHBYTES_20 7966ae9332622c6fa8195b677f87aa20f13d396b OP_EQUAL",
      "scriptpubkey_type": "p2sh",
      "scriptpubkey_address": "3CkvhDmsjBhrDWD9ZtHphFpUpXr6nMTHUy",
      "value": 276000
    },
    {
      "scriptpubkey": "0014edee95350d8c3fd6b9bf01fdfc5669929f1a3e6b",
      "scriptpubkey_asm": "OP_0 OP_PUSHBYTES_20 edee95350d8c3fd6b9bf01fdfc5669929f1a3e6b",
      "scriptpubkey_type": "v0_p2wpkh",
      "scriptpubkey_address": "bc1qahhf2dgd3sladwdlq87lc4nfj20350ntrtttz4",
      "value": 2909798
    },
    {
      "scriptpubkey": "76a9145b1d4c62cb18d7f341932e0f0b9a91d51bb0051388ac",
      "scriptpubkey_asm": "OP_DUP OP_HASH160 OP_PUSHBYTES_20 5b1d4c62cb18d7f341932e0f0b9a91d51bb00513 OP_EQUALVERIFY OP_CHECKSIG",
      "scriptpubkey_type": "p2pkh",
      "scriptpubkey_address": "19Jmb9Lym3s2UQbHt65PZoMcmg5Q3VdYsk",
      "value": 144884
    },
    {
      "scriptpubkey": "0020e5c7c00d174631d2d1e365d6347b016fb87b6a0c08902d8e443989cb771fa7ec",
      "scriptpubkey_asm": "OP_0 OP_PUSHBYTES_32 e5c7c00d174631d2d1e365d6347b016fb87b6a0c08902d8e443989cb771fa7ec",
      "scriptpubkey_type": "v0_p2wsh",
      "scriptpubkey_address": "bc1quhruqrghgcca950rvhtrg7cpd7u8k6svpzgzmrjy8xyukacl5lkq0r8l2d",
      "value": 414822847
    }
  ],
  "size": 974,
  "weight": 3896,
  "fee": 86000,
  "status": {
    "confirmed": true,
    "block_height": 834638,
    "block_hash": "000000000000000000025f742c626208ac87e0b7d15054abb4a19ca2d735a54e",
    "block_time": 1710405325
  },
  "hex": "01000000014f6be2223eda4459a2a0d68050d129d2d1202bd0f647d9704f1ba3e931d80a0200000000fc0047304402204c82bf7d74bb0d8e95d1303c609fe38146d05c7988e7a156c2c4c2bea1e0935a02205a6ce8a94ad5463498eb5b51ed9717494d7675896a3c0a97310079743672929601473044022045b45d63d32437d45213b3ab42c9e6c0d44d2948856e569d45230c0f5920f44d02202095e22863de7dcc67d0437805245a209e5bc40002250c14a9d526ef2ad5aada014c695221035749a331cd5ceaec3408de6d6472f801dcc20197a32545d10468cb9a41f24b942103017f04ee46a9a984e2b7bbc05296505062256a9ce1dd8459f4d570b0240347d82102aa5774b6c2fa3a98d058af9b968fddc7ab86ea68e0e9899546f2c4153baded6553aeffffffff13b68c04000000000016001466cbf3f8b88723d257f0e99ec2b43ba2a60d21488ec78601000000001600140dbcf15ea0a05a4780eeeba06d29a235ef0e66da00550f00000000001600148d36d9e69985b568982415aeb60c00f97da3b593de9a010000000000160014a74661e801edf900c0b9919011c5366696e077c4904106000000000017a914832c8c0f285ed4444fe99dba2a1bab4c43750558878e044c0000000000225120d2547c477ba612b0cd94651c748d5729b5828d01fb37ff02b1857f9165733d9d73c04800000000002251209a61586ec28aab791112c4a134647947d850073305f25f1215993c8993a1f8fe988d0700000000002251202763bc19f9154971719d06b2d1255e95696d8f4ea80bf8b734fd20b6f3d1f500d0d61c00000000001600140c16f6918f7d8cd743469995d61a34e30face0317862b0100000000017a914f18ea6f7623f5633ec0dec92b17b300731cb9de5871f947c0000000000160014672a31bda1d3716f0a9af6e8604dd90537eb0173f99b090000000000225120a8acc9534cf0f998fe6bf17ce38050c5e433284257d1490c1ba84cb89e04aa55249402000000000022512046012fc0ab4b93a72ae99c8e75de5adca6282388c84c78ce41dff9d764e278cb40d70b000000000017a9147966ae9332622c6fa8195b677f87aa20f13d396b876074d717000000001976a914cffc33d11cb86ce5acdb081610606719aca8e03d88ac203604000000000017a9147966ae9332622c6fa8195b677f87aa20f13d396b8766662c0000000000160014edee95350d8c3fd6b9bf01fdfc5669929f1a3e6bf4350200000000001976a9145b1d4c62cb18d7f341932e0f0b9a91d51bb0051388acbfb1b91800000000220020e5c7c00d174631d2d1e365d6347b016fb87b6a0c08902d8e443989cb771fa7ec00000000"
}