{
  "txid": "b7d936d5e8c75f7afdcc2b75c43765b6e227a88d2713a6503abc7abc8b8db678",
  "version": 2,
  "locktime": 0,
  "vin": [
    {
      "txid": "f64d7e0dfd59524344ebddc0c7fc705fd9500dbab0b7e74b04618d51649140ac",
      "vout": 4,
      "prevout": {
        "scriptpubkey": "5120c344019545adb06dc416ef6351904cf650ad9d9cdb8ac5ae35eacac03ec10ba8",
        "scriptpubkey_asm": "OP_PUSHNUM_1 OP_PUSHBYTES_32 c344019545adb06dc416ef6351904cf650ad9d9cdb8ac5ae35eacac03ec10ba8",
        "scriptpubkey_type": "v1_p2tr",
        "scriptpubkey_address": "bc1pcdzqr9294kcxm3qkaa34ryzv7eg2m8vumw9vtt34at9vq0kppw5qa9k8s8",
        "value": 600
      },
      "scriptsig": "",
      "scriptsig_asm": "",
      "witness": [
        "c404b12def8fcfbad1c577b5484ef90481bffdc664fa3a17abe0e96ddd940c0937d7c04261fd1be6a10c0b4b4a6c4996fba24992573c1f07bd3fee4464055bcf"
      ],
      "is_coinbase": false,
      "sequence": 4294967295
    },
    {
      "txid": "f64d7e0dfd59524344ebddc0c7fc705fd9500dbab0b7e74b04618d51649140ac",
      "vout": 3,
      "prevout": {
        "scriptpubkey": "5120c344019545adb06dc416ef6351904cf650ad9d9cdb8ac5ae35eacac03ec10ba8",
        "scriptpubkey_asm": "OP_PUSHNUM_1 OP_PUSHBYTES_32 c344019545adb06dc416ef6351904cf650ad9d9cdb8ac5ae35eacac03ec10ba8",
        "scriptpubkey_type": "v1_p2tr",
        "scriptpubkey_address": "bc1pcdzqr9294kcxm3qkaa34ryzv7eg2m8vumw9vtt34at9vq0kppw5qa9k8s8",
        "value": 600
      },
      "scriptsig": "",
      "scriptsig_asm": "",
      "witness": [
        "9b02bb55902b1e3bab26251b5c4495a3c218e70960cc732703076c8cdcd145f332b18c9972db8b9b70244bd398e7a284bb06ef085085f85c703224d76911a3fa"
      ],
      "is_coinbase": false,
      "sequence": 4294967295
    },
    {
      "txid": "19acc79a6d87c565d4e3e11037478acc67ca2cd9c00627f7bc9d3879e27d118d",
      "vout": 0,
      "prevout": {
        "scriptpubkey": "5120b2630ffc28defae528d0b4ffb133acd65968d0d003ac2d39492db70a2cf69a89",
        "scriptpubkey_asm": "OP_PUSHNUM_1 OP_PUSHBYTES_32 b2630ffc28defae528d0b4ffb133acd65968d0d003ac2d39492db70a2cf69a89",
        "scriptpubkey_type": "v1_p2tr",
        "scriptpubkey_address": "bc1pkf3sllpgmmaw22xsknlmzvav6evk35xsqwkz6w2f9kms5t8kn2ys9ke3xh",
        "value": 546
      },
      "scriptsig": "",
      "scriptsig_asm": "",
      "witness": [
        "dcbf677b7b68a2df61fd8d2d8ece5f3bfa2ea592fed4b1814cbf9a4680dd12f91b36ba9029a663abbca5db1937ad002f260475331203bdb280301c826103613883"
      ],
      "is_coinbase": false,
      "sequence": 4294967295
    },
    {
      "txid": "3fa69fbfcd7c42ebebee90575d5f52c40339094a46c67088ae81a555fbd2a46d",
      "vout": 1,
      "prevout": {
        "scriptpubkey": "5120c344019545adb06dc416ef6351904cf650ad9d9cdb8ac5ae35eacac03ec10ba8",
        "scriptpubkey_asm": "OP_PUSHNUM_1 OP_PUSHBYTES_32 c344019545adb06dc416ef6351904cf650ad9d9cdb8ac5ae35eacac03ec10ba8",
        "scriptpubkey_type": "v1_p2tr",
        "scriptpubkey_address": "bc1pcdzqr9294kcxm3qkaa34ryzv7eg2m8vumw9vtt34at9vq0kppw5qa9k8s8",
        "value": 2558342
      },
      "scriptsig": "",
      "scriptsig_asm": "",
      "witness": [
        "c44509270b7ee2c47fe47c9bbb07b73c6e1594eaa457de7b50a9d18c07300b83d0be4467067e93a003ca600d143c5bccbabf61d7a860e3238881d09e1cb78d9c"
      ],
      "is_coinbase": false,
      "sequence": 4294967295
    }
  ],
  "vout": [
    {
      "scriptpubkey": "5120c344019545adb06dc416ef6351904cf650ad9d9cdb8ac5ae35eacac03ec10ba8",
      "scriptpubkey_asm": "OP_PUSHNUM_1 OP_PUSHBYTES_32 c344019545adb06dc416ef6351904cf650ad9d9cdb8ac5ae35eacac03ec10ba8",
      "scriptpubkey_type": "v1_p2tr",
      "scriptpubkey_address": "bc1pcdzqr9294kcxm3qkaa34ryzv7eg2m8vumw9vtt34at9vq0kppw5qa9k8s8",
      "value": 1200
    },
    {
      "scriptpubkey": "5120c344019545adb06dc416ef6351904cf650ad9d9cdb8ac5ae35eacac03ec10ba8",
      "scriptpubkey_asm": "OP_PUSHNUM_1 OP_PUSHBYTES_32 c344019545adb06dc416ef6351904cf650ad9d9cdb8ac5ae35eacac03ec10ba8",
      "scriptpubkey_type": "v1_p2tr",
      "scriptpubkey_address": "bc1pcdzqr9294kcxm3qkaa34ryzv7eg2m8vumw9vtt34at9vq0kppw5qa9k8s8",
      "value": 546
    },
    {
      "scriptpubkey": "5120b2630ffc28defae528d0b4ffb133acd65968d0d003ac2d39492db70a2cf69a89",
      "scriptpubkey_asm": "OP_PUSHNUM_1 OP_PUSHBYTES_32 b2630ffc28defae528d0b4ffb133acd65968d0d003ac2d39492db70a2cf69a89",
      "scriptpubkey_type": "v1_p2tr",
      "scriptpubkey_address": "bc1pkf3sllpgmmaw22xsknlmzvav6evk35xsqwkz6w2f9kms5t8kn2ys9ke3xh",
      "value": 750000
    },
    {
      "scriptpubkey": "5120c344019545adb06dc416ef6351904cf650ad9d9cdb8ac5ae35eacac03ec10ba8",
      "scriptpubkey_asm": "OP_PUSHNUM_1 OP_PUSHBYTES_32 c344019545adb06dc416ef6351904cf650ad9d9cdb8ac5ae35eacac03ec10ba8",
      "scriptpubkey_type": "v1_p2tr",
      "scriptpubkey_address": "bc1pcdzqr9294kcxm3qkaa34ryzv7eg2m8vumw9vtt34at9vq0kppw5qa9k8s8",
      "value": 600
    },
    {
      "scriptpubkey": "5120c344019545adb06dc416ef6351904cf650ad9d9cdb8ac5ae35eacac03ec10ba8",
      "scriptpubkey_asm": "OP_PUSHNUM_1 OP_PUSHBYTES_32 c344019545adb06dc416ef6351904cf650ad9d9cdb8ac5ae35eacac03ec10ba8",
      "scriptpubkey_type": "v1_p2tr",
      "scriptpubkey_address": "bc1pcdzqr9294kcxm3qkaa34ryzv7eg2m8vumw9vtt34at9vq0kppw5qa9k8s8",
      "value": 600
    },
    {
      "scriptpubkey": "5120c344019545adb06dc416ef6351904cf650ad9d9cdb8ac5ae35eacac03ec10ba8",
      "scriptpubkey_asm": "OP_PUSHNUM_1 OP_PUSHBYTES_32 c344019545adb06dc416ef6351904cf650ad9d9cdb8ac5ae35eacac03ec10ba8",
      "scriptpubkey_type": "v1_p2tr",
      "scriptpubkey_address": "bc1pcdzqr9294kcxm3qkaa34ryzv7eg2m8vumw9vtt34at9vq0kppw5qa9k8s8",
      "value": 1799158
    }
  ],
  "size": 699,
  "weight": 1995,
  "fee": 7984,
  "status": {
    "confirmed": true,
    "block_height": 834464,
    "block_hash": "0000000000000000000177a0869a911a2b65c9bdcd5a8bcb02b68f305bee848e",
    "block_time": 1710308296
  },
  "hex": "02000000000104ac409164518d61044be7b7b0ba0d50d95f70fcc7c0ddeb44435259fd0d7e4df60400000000ffffffffac409164518d61044be7b7b0ba0d50d95f70fcc7c0ddeb44435259fd0d7e4df60300000000ffffffff8d117de279389dbcf72706c0d92cca67cc8a473710e1e3d465c5876d9ac7ac190000000000ffffffff6da4d2fb55a581ae8870c6464a093903c4525f5d5790eeebeb427ccdbf9fa63f0100000000ffffffff06b004000000000000225120c344019545adb06dc416ef6351904cf650ad9d9cdb8ac5ae35eacac03ec10ba82202000000000000225120c344019545adb06dc416ef6351904cf650ad9d9cdb8ac5ae35eacac03ec10ba8b0710b0000000000225120b2630ffc28defae528d0b4ffb133acd65968d0d003ac2d39492db70a2cf69a895802000000000000225120c344019545adb06dc416ef6351904cf650ad9d9cdb8ac5ae35eacac03ec10ba85802000000000000225120c344019545adb06dc416ef6351904cf650ad9d9cdb8ac5ae35eacac03ec10ba8f6731b0000000000225120c344019545adb06dc416ef6351904cf650ad9d9cdb8ac5ae35eacac03ec10ba80140c404b12def8fcfbad1c577b5484ef90481bffdc664fa3a17abe0e96ddd940c0937d7c04261fd1be6a10c0b4b4a6c4996fba24992573c1f07bd3fee4464055bcf01409b02bb55902b1e3bab26251b5c4495a3c218e70960cc732703076c8cdcd145f332b18c9972db8b9b70244bd398e7a284bb06ef085085f85c703224d76911a3fa0141dcbf677b7b68a2df61fd8d2d8ece5f3bfa2ea592fed4b1814cbf9a4680dd12f91b36ba9029a663abbca5db1937ad002f260475331203bdb280301c8261036138830140c44509270b7ee2c47fe47c9bbb07b73c6e1594eaa457de7b50a9d18c07300b83d0be4467067e93a003ca600d143c5bccbabf61d7a860e3238881d09e1cb78d9c00000000"
}