{
  "txid": "b7f35bf95aff7b2c6ea7f630284552d492bf187d096e6f678c5c15e53da94a79",
  "version": 2,
  "locktime": 0,
  "vin": [
    {
      "txid": "acc3ba00869acb582a3f2904ce3a11dd3779350ce234063fc7d0959246213364",
      "vout": 205,
      "prevout": {
        "scriptpubkey": "5120574cba5d43108cea7f3fc26c2538790a8609a7fa58c8565ae35e93e2d2741df3",
        "scriptpubkey_asm": "OP_PUSHNUM_1 OP_PUSHBYTES_32 574cba5d43108cea7f3fc26c2538790a8609a7fa58c8565ae35e93e2d2741df3",
        "scriptpubkey_type": "v1_p2tr",
        "scriptpubkey_address": "bc1p2axt5h2rzzxw5lelcfkz2wrep2rqnfl6try9vkhrt6f795n5rhes3mqrz6",
        "value": 1806
      },
      "scriptsig": "",
      "scriptsig_asm": "",
      "witness": [
        "5e3e32387a370b25e31cf774e5bef84a8862348ee599bac4ab4640dd10af2040c7dbf7231a3909826ab985182070928002285738f00e53215506deffd9e948b2",
        "20b0e1df965b2c93a0bef7d0648fc0476824dfccdb0e57b5978a74ce2c1b684345ac0063036f726401010a746578742f706c61696e00357b2270223a226272632d3230222c226f70223a226d696e74222c227469636b223a22646f6765222c22616d74223a2234323030227d68",
        "c0b0e1df965b2c93a0bef7d0648fc0476824dfccdb0e57b5978a74ce2c1b684345"
      ],
      "is_coinbase": false,
      "sequence": 4261412863
    }
  ],
  "vout": [
    {
      "scriptpubkey": "00147a665de7a370f4c9b372ab1fae587500a5bcbdb4",
      "scriptpubkey_asm": "OP_0 OP_PUSHBYTES_20 7a665de7a370f4c9b372ab1fae587500a5bcbdb4",
      "scriptpubkey_type": "v0_p2wpkh",
      "scriptpubkey_address": "bc1q0fn9mearwr6vnvmj4v06ukr4qzjme0d565dzcx",
      "value": 294
    }
  ],
  "size": 294,
  "weight": 540,
  "fee": 1512,
  "status": {
    "confirmed": true,
    "block_height": 834460,
    "block_hash": "00000000000000000000484a79b643b2524bbce82e5d8a442013fa5b8905ed98",
    "block_time": 1710307468
  },
  "hex": "02000000000101643321469295d0c73f0634e20c357937dd113ace04293f2a58cb9a8600bac3accd00000000fffffffd0126010000000000001600147a665de7a370f4c9b372ab1fae587500a5bcbdb403405e3e32387a370b25e31cf774e5bef84a8862348ee599bac4ab4640dd10af2040c7dbf7231a3909826ab985182070928002285738f00e53215506deffd9e948b26d20b0e1df965b2c93a0bef7d0648fc0476824dfccdb0e57b5978a74ce2c1b684345ac0063036f726401010a746578742f706c61696e00357b2270223a226272632d3230222c226f70223a226d696e74222c227469636b223a22646f6765222c22616d74223a2234323030227d6821c0b0e1df965b2c93a0bef7d0648fc0476824dfccdb0e57b5978a74ce2c1b68434500000000"
}