{
  "txid": "b7f796d5bb80286bbbe41f963eecfb5ab9dc41e036e131abae09789cde8582f4",
  "version": 2,
  "locktime": 0,
  "vin": [
    {
      "txid": "9914dea4ec75095885059b8c5ba21ecb38470806a05f582476fd76a84c74a6f3",
      "vout": 3,
      "prevout": {
        "scriptpubkey": "51203c3379789efc56c1d6165c856ab49edc877d80a97e7ea1db65de6742b787142e",
        "scriptpubkey_asm": "OP_PUSHNUM_1 OP_PUSHBYTES_32 3c3379789efc56c1d6165c856ab49edc877d80a97e7ea1db65de6742b787142e",
        "scriptpubkey_type": "v1_p2tr",
        "scriptpubkey_address": "bc1p8sehj7y7l3tvr4sktjzk4dy7mjrhmq9f0el2rkm9men59du8zshq4t9x55",
        "value": 547
      },
      "scriptsig": "",
      "scriptsig_asm": "",
      "witness": [
        "bd8e761919d0c022cbe2b40d1c04983bd42cd699b652cb3c704d136d9caf3a9142e2da0204b830a0767156aa2f04c8007d08e0767221c7ea5db4c5d385ba393281"
      ],
      "is_coinbase": false,
      "sequence": 4294967293
    },
    {
      "txid": "bf9f73f20a97c0a4f1f708643a4280f71cf3ea32ab54689e3b32fc47e86aaa99",
      "vout": 2,
      "prevout": {
        "scriptpubkey": "0014368c4eeb10af3a5067f2bceadacc6eab54efd0a4",
        "scriptpubkey_asm": "OP_0 OP_PUSHBYTES_20 368c4eeb10af3a5067f2bceadacc6eab54efd0a4",
        "scriptpubkey_type": "v0_p2wpkh",
        "scriptpubkey_address": "bc1qx6xya6cs4ua9qeljhn4d4nrw4d2wl59yad4q87",
        "value": 1441409
      },
      "scriptsig": "",
      "scriptsig_asm": "",
      "witness": [
        "30440220428eb2634b1f6ee39796dd62fbf011594c5a7d79bff8aa9d651dc02dd2d65ac802205f32da73563fe91158b6aaa277fb4547aaa8d9ad5a8566eb204b9f3143f8053701",
        "0276ae471e6f669fa6884378c445d7d1a11d16096f634b9e826025c1046ed8ffaf"
      ],
      "is_coinbase": false,
      "sequence": 4294967293
    }
  ],
  "vout": [
    {
      "scriptpubkey": "0014b8842cde7612775197d6f438daec1cc875769e48",
      "scriptpubkey_asm": "OP_0 OP_PUSHBYTES_20 b8842cde7612775197d6f438daec1cc875769e48",
      "scriptpubkey_type": "v0_p2wpkh",
      "scriptpubkey_address": "bc1qhzzzehnkzfm4r97k7sud4mquep6hd8jgpj4tcy",
      "value": 1428000
    },
    {
      "scriptpubkey": "512102825003a8664fa21921229532220e9b8bd19bc5b3ff89a66f9b31adf8194f026f21023a8264ca083fd8cca1b35db067ceb1eedbf97c065a728279fc52446278ed3eea2102020202020202020202020202020202020202020202020202020202020202020253ae",
      "scriptpubkey_asm": "OP_PUSHNUM_1 OP_PUSHBYTES_33 02825003a8664fa21921229532220e9b8bd19bc5b3ff89a66f9b31adf8194f026f OP_PUSHBYTES_33 023a8264ca083fd8cca1b35db067ceb1eedbf97c065a728279fc52446278ed3eea OP_PUSHBYTES_33 020202020202020202020202020202020202020202020202020202020202020202 OP_PUSHNUM_3 OP_CHECKMULTISIG",
      "scriptpubkey_type": "unknown",
      "value": 796
    },
    {
      "scriptpubkey": "51210216f4a5170b87acfad1e6fee23ff15eed024ffed067ebc2afeabcbb2304f822d321022ac3742c7153ab4a8aa198a52702ae1887af6c87e5b5d0dd1b3eb863bc3b116e2103333333333333333333333333333333333333333333333333333333333333333353ae",
      "scriptpubkey_asm": "OP_PUSHNUM_1 OP_PUSHBYTES_33 0216f4a5170b87acfad1e6fee23ff15eed024ffed067ebc2afeabcbb2304f822d3 OP_PUSHBYTES_33 022ac3742c7153ab4a8aa198a52702ae1887af6c87e5b5d0dd1b3eb863bc3b116e OP_PUSHBYTES_33 033333333333333333333333333333333333333333333333333333333333333333 OP_PUSHNUM_3 OP_CHECKMULTISIG",
      "scriptpubkey_type": "unknown",
      "value": 796
    },
    {
      "scriptpubkey": "51203c3379789efc56c1d6165c856ab49edc877d80a97e7ea1db65de6742b787142e",
      "scriptpubkey_asm": "OP_PUSHNUM_1 OP_PUSHBYTES_32 3c3379789efc56c1d6165c856ab49edc877d80a97e7ea1db65de6742b787142e",
      "scriptpubkey_type": "v1_p2tr",
      "scriptpubkey_address": "bc1p8sehj7y7l3tvr4sktjzk4dy7mjrhmq9f0el2rkm9men59du8zshq4t9x55",
      "value": 547
    }
  ],
  "size": 570,
  "weight": 1752,
  "fee": 11817,
  "status": {
    "confirmed": true,
    "block_height": 834638,
    "block_hash": "000000000000000000025f742c626208ac87e0b7d15054abb4a19ca2d735a54e",
    "block_time": 1710405325
  },
  "hex": "02000000000102f3a6744ca876fd7624585fa006084738cb1ea25b8c9b0585580975eca4de14990300000000fdffffff99aa6ae847fc323b9e6854ab32eaf31cf780423a6408f7f1a4c0970af2739fbf0200000000fdffffff0420ca150000000000160014b8842cde7612775197d6f438daec1cc875769e481c0300000000000069512102825003a8664fa21921229532220e9b8bd19bc5b3ff89a66f9b31adf8194f026f21023a8264ca083fd8cca1b35db067ceb1eedbf97c065a728279fc52446278ed3eea2102020202020202020202020202020202020202020202020202020202020202020253ae1c030000000000006951210216f4a5170b87acfad1e6fee23ff15eed024ffed067ebc2afeabcbb2304f822d321022ac3742c7153ab4a8aa198a52702ae1887af6c87e5b5d0dd1b3eb863bc3b116e2103333333333333333333333333333333333333333333333333333333333333333353ae23020000000000002251203c3379789efc56c1d6165c856ab49edc877d80a97e7ea1db65de6742b787142e0141bd8e761919d0c022cbe2b40d1c04983bd42cd699b652cb3c704d136d9caf3a9142e2da0204b830a0767156aa2f04c8007d08e0767221c7ea5db4c5d385ba393281024730440220428eb2634b1f6ee39796dd62fbf011594c5a7d79bff8aa9d651dc02dd2d65ac802205f32da73563fe91158b6aaa277fb4547aaa8d9ad5a8566eb204b9f3143f8053701210276ae471e6f669fa6884378c445d7d1a11d16096f634b9e826025c1046ed8ffaf00000000"
}