{
  "txid": "b800170293eb62d82d971a494d723b31615691d78b379a35589feeafeed9f095",
  "version": 2,
  "locktime": 0,
  "vin": [
    {
      "txid": "da4f392dfdfb1f9bfe8fe99e7a0c80e3d1d0753d1243e9c54b6d11fd3204595e",
      "vout": 1,
      "prevout": {
        "scriptpubkey": "5120a6eb97ba9a97abe97200dbe21db222b92b8f4f118e8fe899c75cc432966d037f",
        "scriptpubkey_asm": "OP_PUSHNUM_1 OP_PUSHBYTES_32 a6eb97ba9a97abe97200dbe21db222b92b8f4f118e8fe899c75cc432966d037f",
        "scriptpubkey_type": "v1_p2tr",
        "scriptpubkey_address": "bc1p5m4e0w56j747jusqm03pmv3zhy4c7nc336873xw8tnzr99ndqdlst9xpve",
        "value": 1135358
      },
      "scriptsig": "",
      "scriptsig_asm": "",
      "witness": [
        "bc419bdd973601236f548316f294f24ecc1381c7d5730ed365809e2f40bec7c4ba3ada704b7ebad8f9f0a082e268fade78a7494be4bac9084a05f5c2b95cf012"
      ],
      "is_coinbase": false,
      "sequence": 4294967293
    }
  ],
  "vout": [
    {
      "scriptpubkey": "512013408fae215e909d22628664127fd79d15d53b90adde68129bad5d9947559539",
      "scriptpubkey_asm": "OP_PUSHNUM_1 OP_PUSHBYTES_32 13408fae215e909d22628664127fd79d15d53b90adde68129bad5d9947559539",
      "scriptpubkey_type": "v1_p2tr",
      "scriptpubkey_address": "bc1pzdqglt3pt6gf6gnzsejpyl7hn52a2wus4h0xsy5m44wej364j5us8syzrd",
      "value": 2856
    },
    {
      "scriptpubkey": "5120a6eb97ba9a97abe97200dbe21db222b92b8f4f118e8fe899c75cc432966d037f",
      "scriptpubkey_asm": "OP_PUSHNUM_1 OP_PUSHBYTES_32 a6eb97ba9a97abe97200dbe21db222b92b8f4f118e8fe899c75cc432966d037f",
      "scriptpubkey_type": "v1_p2tr",
      "scriptpubkey_address": "bc1p5m4e0w56j747jusqm03pmv3zhy4c7nc336873xw8tnzr99ndqdlst9xpve",
      "value": 1130192
    }
  ],
  "size": 205,
  "weight": 616,
  "fee": 2310,
  "status": {
    "confirmed": true,
    "block_height": 834460,
    "block_hash": "00000000000000000000484a79b643b2524bbce82e5d8a442013fa5b8905ed98",
    "block_time": 1710307468
  },
  "hex": "020000000001015e590432fd116d4bc5e943123d75d0d1e3800c7a9ee98ffe9b1ffbfd2d394fda0100000000fdffffff02280b00000000000022512013408fae215e909d22628664127fd79d15d53b90adde68129bad5d9947559539d03e110000000000225120a6eb97ba9a97abe97200dbe21db222b92b8f4f118e8fe899c75cc432966d037f0140bc419bdd973601236f548316f294f24ecc1381c7d5730ed365809e2f40bec7c4ba3ada704b7ebad8f9f0a082e268fade78a7494be4bac9084a05f5c2b95cf01200000000"
}