{
  "txid": "b8114415290445dde4ca10bbdbb8aa73aabc15119b30fc70ebd176c563bf3326",
  "version": 2,
  "locktime": 0,
  "vin": [
    {
      "txid": "7f40936a702458e1ad3039cb86d7a0a326e784c2fb71015cfe0013c89a721cb2",
      "vout": 0,
      "prevout": {
        "scriptpubkey": "51204b3def6b7bdf9758a317f5eafc03b3a744cc6bb7dad731af7edbfbb555c2be75",
        "scriptpubkey_asm": "OP_PUSHNUM_1 OP_PUSHBYTES_32 4b3def6b7bdf9758a317f5eafc03b3a744cc6bb7dad731af7edbfbb555c2be75",
        "scriptpubkey_type": "v1_p2tr",
        "scriptpubkey_address": "bc1pfv7776mmm7t43gch7h40cqan5azvc6ahmttnrtm7m0am24wzhe6smdt3m6",
        "value": 546
      },
      "scriptsig": "",
      "scriptsig_asm": "",
      "witness": [
        "02e738e2ab6a81028e157b85734033a54e1028a6f5fed7e4735d4ace56317549da89f779389f42321c1ff268644f94064153b4932e7e5401f2fa3a314c998118"
      ],
      "is_coinbase": false,
      "sequence": 4294967293
    },
    {
      "txid": "a332d18ac8cf7e815a8bc62ea391553a01afb771037513b42d5bd704f6679593",
      "vout": 1,
      "prevout": {
        "scriptpubkey": "5120cd34d0d03b0160d5aced368bdc1b91709f49a2c1024a08e0ffd873f966a4bf46",
        "scriptpubkey_asm": "OP_PUSHNUM_1 OP_PUSHBYTES_32 cd34d0d03b0160d5aced368bdc1b91709f49a2c1024a08e0ffd873f966a4bf46",
        "scriptpubkey_type": "v1_p2tr",
        "scriptpubkey_address": "bc1pe56dp5pmq9sdtt8dx69acxu3wz05ngkpqf9q3c8lmpelje4yharq2h5f4m",
        "value": 4457
      },
      "scriptsig": "",
      "scriptsig_asm": "",
      "witness": [
        "e2e08431c328ed2a0bb36bd43e0568905896973ada06c2e324d9e8a9cd9a3a6add70437dea125c63a01080ac799c916d8d36b3e9a3050b9a34203101d0a3a3b2"
      ],
      "is_coinbase": false,
      "sequence": 4294967293
    }
  ],
  "vout": [
    {
      "scriptpubkey": "5120c72fbda19b6d92372446078eaad1348647ff0293f6b8a9462d533467ee14056c",
      "scriptpubkey_asm": "OP_PUSHNUM_1 OP_PUSHBYTES_32 c72fbda19b6d92372446078eaad1348647ff0293f6b8a9462d533467ee14056c",
      "scriptpubkey_type": "v1_p2tr",
      "scriptpubkey_address": "bc1pcuhmmgvmdkfrwfzxq78245f5serl7q5n76u2j33d2v6x0ms5q4kqjzgls0",
      "value": 546
    },
    {
      "scriptpubkey": "512095cf4b9efe2ec66aec995767b5675b638fad51f9b507803cc07da59657e0c5fa",
      "scriptpubkey_asm": "OP_PUSHNUM_1 OP_PUSHBYTES_32 95cf4b9efe2ec66aec995767b5675b638fad51f9b507803cc07da59657e0c5fa",
      "scriptpubkey_type": "v1_p2tr",
      "scriptpubkey_address": "bc1pjh85h8h79mrx4mye2anm2e6mvw86650ek5rcq0xq0kjev4lqchaq55sv2u",
      "value": 1277
    }
  ],
  "size": 312,
  "weight": 846,
  "fee": 3180,
  "status": {
    "confirmed": true,
    "block_height": 834464,
    "block_hash": "0000000000000000000177a0869a911a2b65c9bdcd5a8bcb02b68f305bee848e",
    "block_time": 1710308296
  },
  "hex": "02000000000102b21c729ac81300fe5c0171fbc284e726a3a0d786cb3930ade15824706a93407f0000000000fdffffff939567f604d75b2db413750371b7af013a5591a32ec68b5a817ecfc88ad132a30100000000fdffffff022202000000000000225120c72fbda19b6d92372446078eaad1348647ff0293f6b8a9462d533467ee14056cfd0400000000000022512095cf4b9efe2ec66aec995767b5675b638fad51f9b507803cc07da59657e0c5fa014002e738e2ab6a81028e157b85734033a54e1028a6f5fed7e4735d4ace56317549da89f779389f42321c1ff268644f94064153b4932e7e5401f2fa3a314c9981180140e2e08431c328ed2a0bb36bd43e0568905896973ada06c2e324d9e8a9cd9a3a6add70437dea125c63a01080ac799c916d8d36b3e9a3050b9a34203101d0a3a3b200000000"
}