{
  "txid": "b8157616e0b5b009a95ec2a85a740ca336305de3fbef75382c09fc9030cd9795",
  "version": 2,
  "locktime": 0,
  "vin": [
    {
      "txid": "616176e84bcaea2eece64cb5b03c73ff1d9acbbc3622fc0190a257a20953c2f2",
      "vout": 0,
      "prevout": {
        "scriptpubkey": "5120cb265f37ba71b0145a87a5c30932ea71ba4c9deddbe3fab6ddc19b33d1418fed",
        "scriptpubkey_asm": "OP_PUSHNUM_1 OP_PUSHBYTES_32 cb265f37ba71b0145a87a5c30932ea71ba4c9deddbe3fab6ddc19b33d1418fed",
        "scriptpubkey_type": "v1_p2tr",
        "scriptpubkey_address": "bc1pevn97da6wxcpgk585hpsjvh2wxaye80dm03l4dkacxdn852p3lks9v6tjw",
        "value": 22000
      },
      "scriptsig": "",
      "scriptsig_asm": "",
      "witness": [
        "7a10c0a380d5d40e81eb105f4d93eea50965d13aa3dcfb784b1890aff140e3f30fca2c641a253a717c42da810a2b5e8b66ca90ba45463750b28dc50805ef62af01"
      ],
      "is_coinbase": false,
      "sequence": 4294967295
    }
  ],
  "vout": [
    {
      "scriptpubkey": "76a9147c5ec5ab456d74048638c307d5d8e779f6ef5f4988ac",
      "scriptpubkey_asm": "OP_DUP OP_HASH160 OP_PUSHBYTES_20 7c5ec5ab456d74048638c307d5d8e779f6ef5f49 OP_EQUALVERIFY OP_CHECKSIG",
      "scriptpubkey_type": "p2pkh",
      "scriptpubkey_address": "1CLcKfvKY8XgsfCJKy1CZaHv2KkSCqsxHD",
      "value": 19536
    }
  ],
  "size": 154,
  "weight": 409,
  "fee": 2464,
  "status": {
    "confirmed": true,
    "block_height": 834638,
    "block_hash": "000000000000000000025f742c626208ac87e0b7d15054abb4a19ca2d735a54e",
    "block_time": 1710405325
  },
  "hex": "02000000000101f2c25309a257a29001fc2236bccb9a1dff733cb0b54ce6ec2eeaca4be87661610000000000ffffffff01504c0000000000001976a9147c5ec5ab456d74048638c307d5d8e779f6ef5f4988ac01417a10c0a380d5d40e81eb105f4d93eea50965d13aa3dcfb784b1890aff140e3f30fca2c641a253a717c42da810a2b5e8b66ca90ba45463750b28dc50805ef62af0100000000"
}