{
  "txid": "b8155da65549c3a4ba7459185cb1d4dfbc5c2c2bfab19c2ee172140b459a598c",
  "version": 2,
  "locktime": 834637,
  "vin": [
    {
      "txid": "8e5d2c73f16db3465998dd683d089d8e2aa810781e71d4973e84bc5eb6f0402d",
      "vout": 1,
      "prevout": {
        "scriptpubkey": "0014bbcdc6abc8bb376333eab9f6892a654cad43732a",
        "scriptpubkey_asm": "OP_0 OP_PUSHBYTES_20 bbcdc6abc8bb376333eab9f6892a654cad43732a",
        "scriptpubkey_type": "v0_p2wpkh",
        "scriptpubkey_address": "bc1qh0xud27ghvmkxvl2h8mgj2n9fjk5xue2mtql2f",
        "value": 336902
      },
      "scriptsig": "",
      "scriptsig_asm": "",
      "witness": [
        "304402200c4a25fdf33832ddc388f231d0cbb1bf00995a2f690c644f7d163e61bd2d726102206f8211627e0625cfebfe3820ed39b2dc859a74d9d66e2dfe7d52a9a0f742a07801",
        "02e3c53a8090a26035b8cdef07123459dcf75ca13ff7844ce53fbfd12bd19e48d4"
      ],
      "is_coinbase": false,
      "sequence": 4294967293
    }
  ],
  "vout": [
    {
      "scriptpubkey": "00145ee8da7f487bd4831bca27dd1a122ea19d99d2d1",
      "scriptpubkey_asm": "OP_0 OP_PUSHBYTES_20 5ee8da7f487bd4831bca27dd1a122ea19d99d2d1",
      "scriptpubkey_type": "v0_p2wpkh",
      "scriptpubkey_address": "bc1qtm5d5l6g002gxx72ylw35y3w5xwen5k3l2v7y7",
      "value": 153972
    },
    {
      "scriptpubkey": "00147cd73e6acde42d4f42ceee65fb1f81fd79f22de1",
      "scriptpubkey_asm": "OP_0 OP_PUSHBYTES_20 7cd73e6acde42d4f42ceee65fb1f81fd79f22de1",
      "scriptpubkey_type": "v0_p2wpkh",
      "scriptpubkey_address": "bc1q0ntnu6kdusk57skwaejlk8upl4ulyt0pjwxljj",
      "value": 177220
    }
  ],
  "size": 222,
  "weight": 561,
  "fee": 5710,
  "status": {
    "confirmed": true,
    "block_height": 834638,
    "block_hash": "000000000000000000025f742c626208ac87e0b7d15054abb4a19ca2d735a54e",
    "block_time": 1710405325
  },
  "hex": "020000000001012d40f0b65ebc843e97d4711e7810a82a8e9d083d68dd985946b36df1732c5d8e0100000000fdffffff0274590200000000001600145ee8da7f487bd4831bca27dd1a122ea19d99d2d144b40200000000001600147cd73e6acde42d4f42ceee65fb1f81fd79f22de10247304402200c4a25fdf33832ddc388f231d0cbb1bf00995a2f690c644f7d163e61bd2d726102206f8211627e0625cfebfe3820ed39b2dc859a74d9d66e2dfe7d52a9a0f742a078012102e3c53a8090a26035b8cdef07123459dcf75ca13ff7844ce53fbfd12bd19e48d44dbc0c00"
}