{
  "txid": "b81cb60bfa8abebb65cb10a09bddf05d520a478462254fb157d94f52f61a71a7",
  "version": 2,
  "locktime": 834412,
  "vin": [
    {
      "txid": "3f094b63fc5a031d3f41911c36f0003776b00fea8c68cce33b1bb72687e4d47d",
      "vout": 7,
      "prevout": {
        "scriptpubkey": "0014d1f6572c750e496ecde3a09012755e45f84b6fb1",
        "scriptpubkey_asm": "OP_0 OP_PUSHBYTES_20 d1f6572c750e496ecde3a09012755e45f84b6fb1",
        "scriptpubkey_type": "v0_p2wpkh",
        "scriptpubkey_address": "bc1q68m9wtr4peykan0r5zgpya27ghuykma3twtlwu",
        "value": 1107429
      },
      "scriptsig": "",
      "scriptsig_asm": "",
      "witness": [
        "304402202d852a7d3cb6e7032b63c6604a51bba91ceeece2d1ca553581f99e9c6de3f2ee022001fb6beac079bd306d728ee248f23c430ee722063c8c72e62dcc0cdc0ac6b0ba01",
        "03d0e52f46195f88e72a0cc151af6d1d12b8438ad8a0287354acdc8b6e50a6fc23"
      ],
      "is_coinbase": false,
      "sequence": 4294967293
    }
  ],
  "vout": [
    {
      "scriptpubkey": "0014fec69f61200347211e2d6da847ef0c3a8f4bc246",
      "scriptpubkey_asm": "OP_0 OP_PUSHBYTES_20 fec69f61200347211e2d6da847ef0c3a8f4bc246",
      "scriptpubkey_type": "v0_p2wpkh",
      "scriptpubkey_address": "bc1qlmrf7cfqqdrjz83ddk5y0mcv8285hsjxpx55c9",
      "value": 2885
    },
    {
      "scriptpubkey": "0014805a1ee9ae2018ba56e607a073140f2693bad922",
      "scriptpubkey_asm": "OP_0 OP_PUSHBYTES_20 805a1ee9ae2018ba56e607a073140f2693bad922",
      "scriptpubkey_type": "v0_p2wpkh",
      "scriptpubkey_address": "bc1qspdpa6dwyqvt54hxq7s8x9q0y6fm4kfz9wamnn",
      "value": 3606
    },
    {
      "scriptpubkey": "00141eaf28c6665ed471627f6cd3c09f0eb5c17da426",
      "scriptpubkey_asm": "OP_0 OP_PUSHBYTES_20 1eaf28c6665ed471627f6cd3c09f0eb5c17da426",
      "scriptpubkey_type": "v0_p2wpkh",
      "scriptpubkey_address": "bc1qr6hj33nxtm28zcnldnfup8cwkhqhmfpxezcm64",
      "value": 5742
    },
    {
      "scriptpubkey": "00148ba1a69e0bf8b5c3085306fb71ff2eb388814c02",
      "scriptpubkey_asm": "OP_0 OP_PUSHBYTES_20 8ba1a69e0bf8b5c3085306fb71ff2eb388814c02",
      "scriptpubkey_type": "v0_p2wpkh",
      "scriptpubkey_address": "bc1q3ws6d8stlz6uxzznqmahrlewkwygznqzdf929k",
      "value": 24398
    },
    {
      "scriptpubkey": "001465eec5a685e1d68776fc30fac629e85f2eb3948b",
      "scriptpubkey_asm": "OP_0 OP_PUSHBYTES_20 65eec5a685e1d68776fc30fac629e85f2eb3948b",
      "scriptpubkey_type": "v0_p2wpkh",
      "scriptpubkey_address": "bc1qvhhvtf59u8tgwahuxravv20gtuht89yt8hm0gy",
      "value": 37981
    },
    {
      "scriptpubkey": "0014588b64a88b7685e7e1c5e61842614e20c3b80290",
      "scriptpubkey_asm": "OP_0 OP_PUSHBYTES_20 588b64a88b7685e7e1c5e61842614e20c3b80290",
      "scriptpubkey_type": "v0_p2wpkh",
      "scriptpubkey_address": "bc1qtz9kf2ytw6z70cw9ucvyyc2wyrpmsq5s80zez3",
      "value": 38836
    },
    {
      "scriptpubkey": "0014d364dc83458ab7032a5948a0325245e1bc10514d",
      "scriptpubkey_asm": "OP_0 OP_PUSHBYTES_20 d364dc83458ab7032a5948a0325245e1bc10514d",
      "scriptpubkey_type": "v0_p2wpkh",
      "scriptpubkey_address": "bc1q6djdeq6932msx2jefzsry5j9ux7pq52daxh9pj",
      "value": 39541
    },
    {
      "scriptpubkey": "0014e88ec58a0611d7696be3ef5006eaf0d18561078e",
      "scriptpubkey_asm": "OP_0 OP_PUSHBYTES_20 e88ec58a0611d7696be3ef5006eaf0d18561078e",
      "scriptpubkey_type": "v0_p2wpkh",
      "scriptpubkey_address": "bc1qaz8vtzsxz8tkj6lraagqd6hs6xzkzpuwp2t8um",
      "value": 54688
    },
    {
      "scriptpubkey": "0014e88ec58a0611d7696be3ef5006eaf0d18561078e",
      "scriptpubkey_asm": "OP_0 OP_PUSHBYTES_20 e88ec58a0611d7696be3ef5006eaf0d18561078e",
      "scriptpubkey_type": "v0_p2wpkh",
      "scriptpubkey_address": "bc1qaz8vtzsxz8tkj6lraagqd6hs6xzkzpuwp2t8um",
      "value": 60080
    },
    {
      "scriptpubkey": "0014bd78b58df4edb595bfc38d7b38716d3cae25e93a",
      "scriptpubkey_asm": "OP_0 OP_PUSHBYTES_20 bd78b58df4edb595bfc38d7b38716d3cae25e93a",
      "scriptpubkey_type": "v0_p2wpkh",
      "scriptpubkey_address": "bc1qh4uttr05ak6et07r34ansutd8jhzt6f69u29lv",
      "value": 835393
    }
  ],
  "size": 470,
  "weight": 1553,
  "fee": 4279,
  "status": {
    "confirmed": true,
    "block_height": 834464,
    "block_hash": "0000000000000000000177a0869a911a2b65c9bdcd5a8bcb02b68f305bee848e",
    "block_time": 1710308296
  },
  "hex": "020000000001017dd4e48726b71b3be3cc688cea0fb0763700f0361c91413f1d035afc634b093f0700000000fdffffff0a450b000000000000160014fec69f61200347211e2d6da847ef0c3a8f4bc246160e000000000000160014805a1ee9ae2018ba56e607a073140f2693bad9226e160000000000001600141eaf28c6665ed471627f6cd3c09f0eb5c17da4264e5f0000000000001600148ba1a69e0bf8b5c3085306fb71ff2eb388814c025d9400000000000016001465eec5a685e1d68776fc30fac629e85f2eb3948bb497000000000000160014588b64a88b7685e7e1c5e61842614e20c3b80290759a000000000000160014d364dc83458ab7032a5948a0325245e1bc10514da0d5000000000000160014e88ec58a0611d7696be3ef5006eaf0d18561078eb0ea000000000000160014e88ec58a0611d7696be3ef5006eaf0d18561078e41bf0c0000000000160014bd78b58df4edb595bfc38d7b38716d3cae25e93a0247304402202d852a7d3cb6e7032b63c6604a51bba91ceeece2d1ca553581f99e9c6de3f2ee022001fb6beac079bd306d728ee248f23c430ee722063c8c72e62dcc0cdc0ac6b0ba012103d0e52f46195f88e72a0cc151af6d1d12b8438ad8a0287354acdc8b6e50a6fc236cbb0c00"
}