{
  "txid": "b82391c36cedc705ca86d3d3ec959a6fed72dc055a9525806dd2d90b9369aef8",
  "version": 2,
  "locktime": 0,
  "vin": [
    {
      "txid": "da62feb3f1e211de92d54ceb4c57a8dfd7fe889b521a608a18bb1c18935323f2",
      "vout": 1,
      "prevout": {
        "scriptpubkey": "51208d270bed36e3143a567f3206e0692ee6472935e6b4d24b569f29785fa798b77b",
        "scriptpubkey_asm": "OP_PUSHNUM_1 OP_PUSHBYTES_32 8d270bed36e3143a567f3206e0692ee6472935e6b4d24b569f29785fa798b77b",
        "scriptpubkey_type": "v1_p2tr",
        "scriptpubkey_address": "bc1p35nshmfkuv2r54nlxgrwq6fwuerjjd0xknfyk45l99u9lfuckaas9g4tj5",
        "value": 135954
      },
      "scriptsig": "",
      "scriptsig_asm": "",
      "witness": [
        "0eff04da1b93c5de0944fed7dbc5cf1e6998cd7dd47790be1d6d3879463e096c74ae1f9ab93d0e230e45cea609ec3e20d48f8fe577d5e427eb50229a1c9827a2"
      ],
      "is_coinbase": false,
      "sequence": 4294967295
    }
  ],
  "vout": [
    {
      "scriptpubkey": "0014a5a1a219754af99e8cd7fb34c344d023f0eabf19",
      "scriptpubkey_asm": "OP_0 OP_PUSHBYTES_20 a5a1a219754af99e8cd7fb34c344d023f0eabf19",
      "scriptpubkey_type": "v0_p2wpkh",
      "scriptpubkey_address": "bc1q5ks6yxt4ftuearxhlv6vx3xsy0cw40ce25cuue",
      "value": 1000
    },
    {
      "scriptpubkey": "0014a5a1a219754af99e8cd7fb34c344d023f0eabf19",
      "scriptpubkey_asm": "OP_0 OP_PUSHBYTES_20 a5a1a219754af99e8cd7fb34c344d023f0eabf19",
      "scriptpubkey_type": "v0_p2wpkh",
      "scriptpubkey_address": "bc1q5ks6yxt4ftuearxhlv6vx3xsy0cw40ce25cuue",
      "value": 2905
    },
    {
      "scriptpubkey": "51208d270bed36e3143a567f3206e0692ee6472935e6b4d24b569f29785fa798b77b",
      "scriptpubkey_asm": "OP_PUSHNUM_1 OP_PUSHBYTES_32 8d270bed36e3143a567f3206e0692ee6472935e6b4d24b569f29785fa798b77b",
      "scriptpubkey_type": "v1_p2tr",
      "scriptpubkey_address": "bc1p35nshmfkuv2r54nlxgrwq6fwuerjjd0xknfyk45l99u9lfuckaas9g4tj5",
      "value": 129281
    },
    {
      "scriptpubkey": "6a01300534323136312a307841413963344431383733433139653835306639373266643745656266353264383161323464383346",
      "scriptpubkey_asm": "OP_RETURN OP_PUSHBYTES_1 30 OP_PUSHBYTES_5 3432313631 OP_PUSHBYTES_42 307841413963344431383733433139653835306639373266643745656266353264383161323464383346",
      "scriptpubkey_type": "op_return",
      "value": 0
    }
  ],
  "size": 285,
  "weight": 936,
  "fee": 2768,
  "status": {
    "confirmed": true,
    "block_height": 834460,
    "block_hash": "00000000000000000000484a79b643b2524bbce82e5d8a442013fa5b8905ed98",
    "block_time": 1710307468
  },
  "hex": "02000000000101f2235393181cbb188a601a529b88fed7dfa8574ceb4cd592de11e2f1b3fe62da0100000000ffffffff04e803000000000000160014a5a1a219754af99e8cd7fb34c344d023f0eabf19590b000000000000160014a5a1a219754af99e8cd7fb34c344d023f0eabf1901f90100000000002251208d270bed36e3143a567f3206e0692ee6472935e6b4d24b569f29785fa798b77b0000000000000000346a01300534323136312a30784141396334443138373343313965383530663937326664374565626635326438316132346438334601400eff04da1b93c5de0944fed7dbc5cf1e6998cd7dd47790be1d6d3879463e096c74ae1f9ab93d0e230e45cea609ec3e20d48f8fe577d5e427eb50229a1c9827a200000000"
}