{
  "txid": "b82f1257c40ceeb4c2a8cd54ee972dbf438f9feaf0052788f3815726642fdc33",
  "version": 2,
  "locktime": 834385,
  "vin": [
    {
      "txid": "1ab7f1ed278f8df87b13339c3ff9e5084e8c193b46a5354179298a5c6e4616bb",
      "vout": 0,
      "prevout": {
        "scriptpubkey": "0014aba7b8ec1512d01662175eef885b1e51b5fe36c6",
        "scriptpubkey_asm": "OP_0 OP_PUSHBYTES_20 aba7b8ec1512d01662175eef885b1e51b5fe36c6",
        "scriptpubkey_type": "v0_p2wpkh",
        "scriptpubkey_address": "bc1q4wnm3mq4ztgpvcshtmhcskc72x6ludkxtjysl7",
        "value": 2613506
      },
      "scriptsig": "",
      "scriptsig_asm": "",
      "witness": [
        "3044022008da0c424a5c6e83fca9c0550e640369fcf32278a3d0851f5c59c54637dd941e02202790b8dedfca0f71c71ba4696374918f2eca8d4ef6d519adbe3cdfd072f614e901",
        "02fbf9f02e06b92cce06b0f9c9fcd07f5379f67d1179500cf256d428d4d672240a"
      ],
      "is_coinbase": false,
      "sequence": 4294967293
    }
  ],
  "vout": [
    {
      "scriptpubkey": "0014ae45589ec63d84644c544b66d3af80bb7d186a20",
      "scriptpubkey_asm": "OP_0 OP_PUSHBYTES_20 ae45589ec63d84644c544b66d3af80bb7d186a20",
      "scriptpubkey_type": "v0_p2wpkh",
      "scriptpubkey_address": "bc1q4ez438kx8kzxgnz5fdnd8tuqhd73s63qyqgr5d",
      "value": 19515
    },
    {
      "scriptpubkey": "00146a6e44b7f2865e60843f12ede95c5636a9fa1562",
      "scriptpubkey_asm": "OP_0 OP_PUSHBYTES_20 6a6e44b7f2865e60843f12ede95c5636a9fa1562",
      "scriptpubkey_type": "v0_p2wpkh",
      "scriptpubkey_address": "bc1qdfhyfdljse0xppplztk7jhzkx65l59tz4zyfhk",
      "value": 2592003
    }
  ],
  "size": 222,
  "weight": 561,
  "fee": 1988,
  "status": {
    "confirmed": true,
    "block_height": 834460,
    "block_hash": "00000000000000000000484a79b643b2524bbce82e5d8a442013fa5b8905ed98",
    "block_time": 1710307468
  },
  "hex": "02000000000101bb16466e5c8a29794135a5463b198c4e08e5f93f9c33137bf88d8f27edf1b71a0000000000fdffffff023b4c000000000000160014ae45589ec63d84644c544b66d3af80bb7d186a20038d2700000000001600146a6e44b7f2865e60843f12ede95c5636a9fa156202473044022008da0c424a5c6e83fca9c0550e640369fcf32278a3d0851f5c59c54637dd941e02202790b8dedfca0f71c71ba4696374918f2eca8d4ef6d519adbe3cdfd072f614e9012102fbf9f02e06b92cce06b0f9c9fcd07f5379f67d1179500cf256d428d4d672240a51bb0c00"
}