{
  "txid": "b84ab27b32bad577180fe2be03883654c2620f63be6a895b8cf423f9023addf1",
  "version": 2,
  "locktime": 0,
  "vin": [
    {
      "txid": "acc3ba00869acb582a3f2904ce3a11dd3779350ce234063fc7d0959246213364",
      "vout": 68,
      "prevout": {
        "scriptpubkey": "512082fb9d3f455b9a767af15cdbc8f4487bea052eecdb230b12a727ab201091bd1d",
        "scriptpubkey_asm": "OP_PUSHNUM_1 OP_PUSHBYTES_32 82fb9d3f455b9a767af15cdbc8f4487bea052eecdb230b12a727ab201091bd1d",
        "scriptpubkey_type": "v1_p2tr",
        "scriptpubkey_address": "bc1pstae6069twd8v7h3tndu3azg004q2thvmv3sky48y74jqyy3h5ws67tasw",
        "value": 1806
      },
      "scriptsig": "",
      "scriptsig_asm": "",
      "witness": [
        "dd8d123a53663e6bfdd97e0684313b5516490aa84287a0dce0918788ec7c5a953eb005815606090dbe75cabc06d03be06bef3c852b3779e0ae9b9876195ede34",
        "20a2a6e482f017c1fbcc516711fbc81b0805632d4610aed7e0ce9b5a788d0f31c4ac0063036f726401010a746578742f706c61696e00357b2270223a226272632d3230222c226f70223a226d696e74222c227469636b223a22646f6765222c22616d74223a2234323030227d68",
        "c1a2a6e482f017c1fbcc516711fbc81b0805632d4610aed7e0ce9b5a788d0f31c4"
      ],
      "is_coinbase": false,
      "sequence": 4261412863
    }
  ],
  "vout": [
    {
      "scriptpubkey": "00147a665de7a370f4c9b372ab1fae587500a5bcbdb4",
      "scriptpubkey_asm": "OP_0 OP_PUSHBYTES_20 7a665de7a370f4c9b372ab1fae587500a5bcbdb4",
      "scriptpubkey_type": "v0_p2wpkh",
      "scriptpubkey_address": "bc1q0fn9mearwr6vnvmj4v06ukr4qzjme0d565dzcx",
      "value": 294
    }
  ],
  "size": 294,
  "weight": 540,
  "fee": 1512,
  "status": {
    "confirmed": true,
    "block_height": 834460,
    "block_hash": "00000000000000000000484a79b643b2524bbce82e5d8a442013fa5b8905ed98",
    "block_time": 1710307468
  },
  "hex": "02000000000101643321469295d0c73f0634e20c357937dd113ace04293f2a58cb9a8600bac3ac4400000000fffffffd0126010000000000001600147a665de7a370f4c9b372ab1fae587500a5bcbdb40340dd8d123a53663e6bfdd97e0684313b5516490aa84287a0dce0918788ec7c5a953eb005815606090dbe75cabc06d03be06bef3c852b3779e0ae9b9876195ede346d20a2a6e482f017c1fbcc516711fbc81b0805632d4610aed7e0ce9b5a788d0f31c4ac0063036f726401010a746578742f706c61696e00357b2270223a226272632d3230222c226f70223a226d696e74222c227469636b223a22646f6765222c22616d74223a2234323030227d6821c1a2a6e482f017c1fbcc516711fbc81b0805632d4610aed7e0ce9b5a788d0f31c400000000"
}