{
  "txid": "b84be88981bdbdca09c94d8b037be0aaa59861965a097e2ecde9c4e23ac154c9",
  "version": 2,
  "locktime": 0,
  "vin": [
    {
      "txid": "80bf6b9feaeba53ac4bcdb7f7f1d7ae501575d333700eedf1b9d6e4d291d0ac9",
      "vout": 2,
      "prevout": {
        "scriptpubkey": "51200abf646ffc81ea80638de35b62fa2042e46332610e40d58b894e9e08fe3d61a5",
        "scriptpubkey_asm": "OP_PUSHNUM_1 OP_PUSHBYTES_32 0abf646ffc81ea80638de35b62fa2042e46332610e40d58b894e9e08fe3d61a5",
        "scriptpubkey_type": "v1_p2tr",
        "scriptpubkey_address": "bc1pp2lkgmlus84gqcududdk973qgtjxxvnppeqdtzuff60q3l3avxjsf65lqp",
        "value": 2996
      },
      "scriptsig": "",
      "scriptsig_asm": "",
      "witness": [
        "6a65cfd528a9ec4e72d324e4f2448dd92658a98633033c1ef2656240c207c4786d423836c4b6876864f4779d6b74256a5e690d8ba93064259ed19fd1b5652196",
        "20c637ae49a2a6cf39e1c26c7051d3125d4e13e622d5d3bf46e5c39c605b67f2c2ac0063036f726401011e6170706c69636174696f6e2f6a736f6e3b636861727365743d7574662d38004cb77b2270223a22706f772d3230222c226f70223a226d696e74222c227469636b223a2250455045222c22616d74223a2231303030222c22736f6c7574696f6e223a22504550453a33436356314e345555394c45747331374e777553577966396e746845757a714c56513a303030303030303030303030303030303030303139393431613561653132383937363539383134343239323533333030353762306461393666336465613163353a3438373330383834333835227d68",
        "c0622ec7e628951f40268acf3dd3204d289dcdec54c93410598d2e422c74fc82f1"
      ],
      "is_coinbase": false,
      "sequence": 4294967295
    }
  ],
  "vout": [
    {
      "scriptpubkey": "a91477cde961f942d709292278892ca2683896bce9ef87",
      "scriptpubkey_asm": "OP_HASH160 OP_PUSHBYTES_20 77cde961f942d709292278892ca2683896bce9ef OP_EQUAL",
      "scriptpubkey_type": "p2sh",
      "scriptpubkey_address": "3CcV1N4UU9LEts17NwuSWyf9nthEuzqLVQ",
      "value": 546
    }
  ],
  "size": 448,
  "weight": 697,
  "fee": 2450,
  "status": {
    "confirmed": true,
    "block_height": 834460,
    "block_hash": "00000000000000000000484a79b643b2524bbce82e5d8a442013fa5b8905ed98",
    "block_time": 1710307468
  },
  "hex": "02000000000101c90a1d294d6e9d1bdfee0037335d5701e57a1d7f7fdbbcc43aa5ebea9f6bbf800200000000ffffffff01220200000000000017a91477cde961f942d709292278892ca2683896bce9ef8703406a65cfd528a9ec4e72d324e4f2448dd92658a98633033c1ef2656240c207c4786d423836c4b6876864f4779d6b74256a5e690d8ba93064259ed19fd1b5652196fd040120c637ae49a2a6cf39e1c26c7051d3125d4e13e622d5d3bf46e5c39c605b67f2c2ac0063036f726401011e6170706c69636174696f6e2f6a736f6e3b636861727365743d7574662d38004cb77b2270223a22706f772d3230222c226f70223a226d696e74222c227469636b223a2250455045222c22616d74223a2231303030222c22736f6c7574696f6e223a22504550453a33436356314e345555394c45747331374e777553577966396e746845757a714c56513a303030303030303030303030303030303030303139393431613561653132383937363539383134343239323533333030353762306461393666336465613163353a3438373330383834333835227d6821c0622ec7e628951f40268acf3dd3204d289dcdec54c93410598d2e422c74fc82f100000000"
}