{
  "txid": "b8513461e0dca0ec95e8b4db4f9537c57b7b8a593038e0a879d70c44dafa15f1",
  "version": 1,
  "locktime": 0,
  "vin": [
    {
      "txid": "2c9a21a13200b9def2ff443cfc4c3b502ce1b41cb9308bfe1f5e22eb79f592dd",
      "vout": 1,
      "prevout": {
        "scriptpubkey": "76a914e5415fda8ab70e16f22f7d841919a8ce0ac15eb088ac",
        "scriptpubkey_asm": "OP_DUP OP_HASH160 OP_PUSHBYTES_20 e5415fda8ab70e16f22f7d841919a8ce0ac15eb0 OP_EQUALVERIFY OP_CHECKSIG",
        "scriptpubkey_type": "p2pkh",
        "scriptpubkey_address": "1MuC4DzpmPPAQhDPUfZjkhfB7dHRu15QYQ",
        "value": 155810
      },
      "scriptsig": "483045022100a69a74a33bda7e26da1edf16276fcc53d3f604a46cb40d243110191d1a63041d02206a7cab7814f36d680d3b137de9409aa757bc3e955d4376f21b23a321ef7b9dc30121038c6b9718dccf92b4efdd5948aa68df930d0e3b6edacb03c4604b4ca34bc69b0f",
      "scriptsig_asm": "OP_PUSHBYTES_72 3045022100a69a74a33bda7e26da1edf16276fcc53d3f604a46cb40d243110191d1a63041d02206a7cab7814f36d680d3b137de9409aa757bc3e955d4376f21b23a321ef7b9dc301 OP_PUSHBYTES_33 038c6b9718dccf92b4efdd5948aa68df930d0e3b6edacb03c4604b4ca34bc69b0f",
      "is_coinbase": false,
      "sequence": 4294967295
    }
  ],
  "vout": [
    {
      "scriptpubkey": "a9140ea9f253a6dfafc9cff64ec37e62af59cdb55c1987",
      "scriptpubkey_asm": "OP_HASH160 OP_PUSHBYTES_20 0ea9f253a6dfafc9cff64ec37e62af59cdb55c19 OP_EQUAL",
      "scriptpubkey_type": "p2sh",
      "scriptpubkey_address": "332YyKprn5uVRxKSCQVyJBakx4rHN4PqQd",
      "value": 136400
    },
    {
      "scriptpubkey": "76a914e5415fda8ab70e16f22f7d841919a8ce0ac15eb088ac",
      "scriptpubkey_asm": "OP_DUP OP_HASH160 OP_PUSHBYTES_20 e5415fda8ab70e16f22f7d841919a8ce0ac15eb0 OP_EQUALVERIFY OP_CHECKSIG",
      "scriptpubkey_type": "p2pkh",
      "scriptpubkey_address": "1MuC4DzpmPPAQhDPUfZjkhfB7dHRu15QYQ",
      "value": 6361
    },
    {
      "scriptpubkey": "a914ec8577fa035f60c29c10bf0f9f1c2938356fb05587",
      "scriptpubkey_asm": "OP_HASH160 OP_PUSHBYTES_20 ec8577fa035f60c29c10bf0f9f1c2938356fb055 OP_EQUAL",
      "scriptpubkey_type": "p2sh",
      "scriptpubkey_address": "3PFdHP2yBefVpsKxZMtTMMYBCveukBG46t",
      "value": 9194
    }
  ],
  "size": 256,
  "weight": 1024,
  "fee": 3855,
  "status": {
    "confirmed": true,
    "block_height": 834638,
    "block_hash": "000000000000000000025f742c626208ac87e0b7d15054abb4a19ca2d735a54e",
    "block_time": 1710405325
  },
  "hex": "0100000001dd92f579eb225e1ffe8b30b91cb4e12c503b4cfc3c44fff2deb90032a1219a2c010000006b483045022100a69a74a33bda7e26da1edf16276fcc53d3f604a46cb40d243110191d1a63041d02206a7cab7814f36d680d3b137de9409aa757bc3e955d4376f21b23a321ef7b9dc30121038c6b9718dccf92b4efdd5948aa68df930d0e3b6edacb03c4604b4ca34bc69b0fffffffff03d01402000000000017a9140ea9f253a6dfafc9cff64ec37e62af59cdb55c1987d9180000000000001976a914e5415fda8ab70e16f22f7d841919a8ce0ac15eb088acea2300000000000017a914ec8577fa035f60c29c10bf0f9f1c2938356fb0558700000000"
}