{
  "txid": "b85f8721ee147e0f1d0893b2f12999caed4ff163bb2056a19dbbd4413a4bcd4c",
  "version": 2,
  "locktime": 0,
  "vin": [
    {
      "txid": "a6177179254b203b5b3d8097a222c673ab8e885df8e7050e6dbc30ef5f5bbf17",
      "vout": 0,
      "prevout": {
        "scriptpubkey": "5120ee84968e3939ae68e6a61bc5870ac35f4ed26012afb820ce89e9cd099c78b6e8",
        "scriptpubkey_asm": "OP_PUSHNUM_1 OP_PUSHBYTES_32 ee84968e3939ae68e6a61bc5870ac35f4ed26012afb820ce89e9cd099c78b6e8",
        "scriptpubkey_type": "v1_p2tr",
        "scriptpubkey_address": "bc1pa6zfdr3e8xhx3e4xr0zcwzkrta8dycqj47uzpn5fa8xsn8rckm5q9qcxzu",
        "value": 3780
      },
      "scriptsig": "",
      "scriptsig_asm": "",
      "witness": [
        "5cd959b1af7be2c568255e8ee07f48cc1e2297d2483c16f37595cdc57e8301db161ae68fccbcd4f4d037c5529dad3af702e689457ece64704335c15484609285",
        "20bb3a9b326a874c62ca9cabee456a4432a43c2eb40ad51973a2ee4c0d61302c39ac0063036f7264010118746578742f706c61696e3b636861727365743d7574662d3800407b2270223a226272632d3230222c226f70223a227472616e73666572222c227469636b223a2267617374222c22616d74223a223535373630302e31323634227d68",
        "c0bb3a9b326a874c62ca9cabee456a4432a43c2eb40ad51973a2ee4c0d61302c39"
      ],
      "is_coinbase": false,
      "sequence": 4294967293
    }
  ],
  "vout": [
    {
      "scriptpubkey": "5120515b769f11d0a4e969f4c83a72ef236920a37c8c40ff63e07750c7a700442237",
      "scriptpubkey_asm": "OP_PUSHNUM_1 OP_PUSHBYTES_32 515b769f11d0a4e969f4c83a72ef236920a37c8c40ff63e07750c7a700442237",
      "scriptpubkey_type": "v1_p2tr",
      "scriptpubkey_address": "bc1p29dhd8c36zjwj605eqa89merdys2xlyvgrlk8crh2rr6wqzyygmsalv86t",
      "value": 546
    }
  ],
  "size": 331,
  "weight": 613,
  "fee": 3234,
  "status": {
    "confirmed": true,
    "block_height": 834460,
    "block_hash": "00000000000000000000484a79b643b2524bbce82e5d8a442013fa5b8905ed98",
    "block_time": 1710307468
  },
  "hex": "0200000000010117bf5b5fef30bc6d0e05e7f85d888eab73c622a297803d5b3b204b25797117a60000000000fdffffff012202000000000000225120515b769f11d0a4e969f4c83a72ef236920a37c8c40ff63e07750c7a70044223703405cd959b1af7be2c568255e8ee07f48cc1e2297d2483c16f37595cdc57e8301db161ae68fccbcd4f4d037c5529dad3af702e689457ece64704335c154846092858620bb3a9b326a874c62ca9cabee456a4432a43c2eb40ad51973a2ee4c0d61302c39ac0063036f7264010118746578742f706c61696e3b636861727365743d7574662d3800407b2270223a226272632d3230222c226f70223a227472616e73666572222c227469636b223a2267617374222c22616d74223a223535373630302e31323634227d6821c0bb3a9b326a874c62ca9cabee456a4432a43c2eb40ad51973a2ee4c0d61302c3900000000"
}