{
  "txid": "b86099514fbfaa85015537ac44f35e7d6eea18ae264169941d226372e9fe30a5",
  "version": 2,
  "locktime": 0,
  "vin": [
    {
      "txid": "abdcbb8bcefa0f088373ceda41a70fe1aeaa3823b969e1169e2a29269068d8dc",
      "vout": 12,
      "prevout": {
        "scriptpubkey": "512069c5594da7a46dc03e81007fc8f3b064154d0e6509adcea1c93f1ea521ec3117",
        "scriptpubkey_asm": "OP_PUSHNUM_1 OP_PUSHBYTES_32 69c5594da7a46dc03e81007fc8f3b064154d0e6509adcea1c93f1ea521ec3117",
        "scriptpubkey_type": "v1_p2tr",
        "scriptpubkey_address": "bc1pd8z4jnd853kuq05pqplu3uasvs256rn9pxkuagwf8u022g0vxytsv3txzp",
        "value": 2522
      },
      "scriptsig": "",
      "scriptsig_asm": "",
      "witness": [
        "497a6ae91c827594a1d1a1c135d214dc1735d3dc60063fec4d416b4c6e2df6100f847cc0ee2ace8959ad77b5e5580723027e4ac2b12dc9f97a6cfbdbaf934e6f",
        "20d1dd49ee1c76efbb64e76209551cdc064a82a3aeeca51479786d17b86637d725ac0063036f7264010118746578742f706c61696e3b636861727365743d7574662d3800387b2270223a226272632d3230222c226f70223a227472616e73666572222c227469636b223a226f726e6a222c22616d74223a22313030227d68",
        "c025dced391475af84759664675c16f5ed581b243a944241d7ee258c8cfb80c9db"
      ],
      "is_coinbase": false,
      "sequence": 4294967295
    }
  ],
  "vout": [
    {
      "scriptpubkey": "512060e7b9d91ee3091b65165528563dba11a47299520ea2fc67070ec6ac303fc05d",
      "scriptpubkey_asm": "OP_PUSHNUM_1 OP_PUSHBYTES_32 60e7b9d91ee3091b65165528563dba11a47299520ea2fc67070ec6ac303fc05d",
      "scriptpubkey_type": "v1_p2tr",
      "scriptpubkey_address": "bc1pvrnmnkg7uvy3kegk2559v0d6zxj89x2jp630cec8pmr2cvplcpwsn3pn79",
      "value": 546
    }
  ],
  "size": 323,
  "weight": 605,
  "fee": 1976,
  "status": {
    "confirmed": true,
    "block_height": 834460,
    "block_hash": "00000000000000000000484a79b643b2524bbce82e5d8a442013fa5b8905ed98",
    "block_time": 1710307468
  },
  "hex": "02000000000101dcd8689026292a9e16e169b92338aaaee10fa741dace7383080fface8bbbdcab0c00000000ffffffff01220200000000000022512060e7b9d91ee3091b65165528563dba11a47299520ea2fc67070ec6ac303fc05d0340497a6ae91c827594a1d1a1c135d214dc1735d3dc60063fec4d416b4c6e2df6100f847cc0ee2ace8959ad77b5e5580723027e4ac2b12dc9f97a6cfbdbaf934e6f7e20d1dd49ee1c76efbb64e76209551cdc064a82a3aeeca51479786d17b86637d725ac0063036f7264010118746578742f706c61696e3b636861727365743d7574662d3800387b2270223a226272632d3230222c226f70223a227472616e73666572222c227469636b223a226f726e6a222c22616d74223a22313030227d6821c025dced391475af84759664675c16f5ed581b243a944241d7ee258c8cfb80c9db00000000"
}