{
  "txid": "b863edfc7bba0538f087fea2c8763084bcc5b78a85b9190f039bc21d5fb4077f",
  "version": 1,
  "locktime": 0,
  "vin": [
    {
      "txid": "f94eadf936ed2c8d299ca9920f2788242d62a7a5af9a6ba1db9b244fe6509f24",
      "vout": 1,
      "prevout": {
        "scriptpubkey": "0014ca3375c59a995177977cd20964b4e3fdf132d4e6",
        "scriptpubkey_asm": "OP_0 OP_PUSHBYTES_20 ca3375c59a995177977cd20964b4e3fdf132d4e6",
        "scriptpubkey_type": "v0_p2wpkh",
        "scriptpubkey_address": "bc1qegeht3v6n9gh09mu6gykfd8rlhcn948x65w7e6",
        "value": 157509
      },
      "scriptsig": "",
      "scriptsig_asm": "",
      "witness": [
        "3044022045344567a4c0b6e589f64372894bc9e7a38c2a3be8d38d97c380016b3a76bb9002207c93ec1a1758dc5d3a065530584b43191c38069641575ea2d7a5a5e5ce97a10201",
        "02ad0dcdedfd17ffa6d99abc150dc06230b4362c6195f7a1c6a60b09afdbf1924d"
      ],
      "is_coinbase": false,
      "sequence": 4294967295
    }
  ],
  "vout": [
    {
      "scriptpubkey": "001469bd3e0a2cc6062ca89b6985f56ad14dc6323f34",
      "scriptpubkey_asm": "OP_0 OP_PUSHBYTES_20 69bd3e0a2cc6062ca89b6985f56ad14dc6323f34",
      "scriptpubkey_type": "v0_p2wpkh",
      "scriptpubkey_address": "bc1qdx7nuz3vccrze2ymdxzl26k3fhrry0e5wa007t",
      "value": 99263
    },
    {
      "scriptpubkey": "0014c2c6ab0d326c0e4d146edc0d56ad28333af44c1c",
      "scriptpubkey_asm": "OP_0 OP_PUSHBYTES_20 c2c6ab0d326c0e4d146edc0d56ad28333af44c1c",
      "scriptpubkey_type": "v0_p2wpkh",
      "scriptpubkey_address": "bc1qctr2krfjds8y69rwmsx4dtfgxva0gnqunxyypd",
      "value": 55764
    }
  ],
  "size": 222,
  "weight": 561,
  "fee": 2482,
  "status": {
    "confirmed": true,
    "block_height": 834638,
    "block_hash": "000000000000000000025f742c626208ac87e0b7d15054abb4a19ca2d735a54e",
    "block_time": 1710405325
  },
  "hex": "01000000000101249f50e64f249bdba16b9aafa5a7622d2488270f92a99c298d2ced36f9ad4ef90100000000ffffffff02bf8301000000000016001469bd3e0a2cc6062ca89b6985f56ad14dc6323f34d4d9000000000000160014c2c6ab0d326c0e4d146edc0d56ad28333af44c1c02473044022045344567a4c0b6e589f64372894bc9e7a38c2a3be8d38d97c380016b3a76bb9002207c93ec1a1758dc5d3a065530584b43191c38069641575ea2d7a5a5e5ce97a102012102ad0dcdedfd17ffa6d99abc150dc06230b4362c6195f7a1c6a60b09afdbf1924d00000000"
}