{
  "txid": "b866d800240625b5c598208e6f401f62e7a7eb6f76060490b8e432afb4d80d08",
  "version": 1,
  "locktime": 0,
  "vin": [
    {
      "txid": "23e56b02a417f0e41176134a166805a444b896162f9ab6a41724f7b71c17bb56",
      "vout": 1,
      "prevout": {
        "scriptpubkey": "00148a5ee2c7bc66b5f7918910b397ad2a83397f0672",
        "scriptpubkey_asm": "OP_0 OP_PUSHBYTES_20 8a5ee2c7bc66b5f7918910b397ad2a83397f0672",
        "scriptpubkey_type": "v0_p2wpkh",
        "scriptpubkey_address": "bc1q3f0w93auv66l0yvfzzee0tf2svuh7pnj0uu0xe",
        "value": 345700
      },
      "scriptsig": "",
      "scriptsig_asm": "",
      "witness": [
        "3045022100a99fe1a48b654bbd92093156977d6a0adc29319925022d4c5d62f0d0bf2a1c2902202414dbef0d76873bc696b900cb8f4161af5f2bd78933f463e4c2172eafa5140701",
        "03a816f8ce5f63ff6e730980d44d427b70192142be73f62f69d8529746332bd003"
      ],
      "is_coinbase": false,
      "sequence": 4294967295
    },
    {
      "txid": "69b49a8634191cac5fc367da1d04114c72637e3b4adc69e49c1707042ba3ac50",
      "vout": 2,
      "prevout": {
        "scriptpubkey": "00143d36e61c1674ed0c3c238c03d73748a64b174313",
        "scriptpubkey_asm": "OP_0 OP_PUSHBYTES_20 3d36e61c1674ed0c3c238c03d73748a64b174313",
        "scriptpubkey_type": "v0_p2wpkh",
        "scriptpubkey_address": "bc1q85mwv8qkwnksc0pr3spawd6g5e93wscnamh0u8",
        "value": 47426
      },
      "scriptsig": "",
      "scriptsig_asm": "",
      "witness": [
        "3045022100e320f4f97c06129168c41e6f8ba21f13992a5ae9c3cc5eec977da4b31e7a6bee02201d6bd21a9a0a6269f8ab390352ca4df064395033d34df3e83888177d4e903aee01",
        "02dc26525e59f32b14354ddb51953794f2baac0a7b362bd58c9241eed7a32d458d"
      ],
      "is_coinbase": false,
      "sequence": 4294967295
    },
    {
      "txid": "ba1a2131d8a4237163332caf2eb580dfb33a397dc7344b5e74fa9592bf9895cd",
      "vout": 0,
      "prevout": {
        "scriptpubkey": "0014cd22c4a1de801f890201cdfe0460a54c9be45b17",
        "scriptpubkey_asm": "OP_0 OP_PUSHBYTES_20 cd22c4a1de801f890201cdfe0460a54c9be45b17",
        "scriptpubkey_type": "v0_p2wpkh",
        "scriptpubkey_address": "bc1qe53vfgw7sq0cjqspehlqgc99fjd7gkch3qfa9v",
        "value": 1000000
      },
      "scriptsig": "",
      "scriptsig_asm": "",
      "witness": [
        "3045022100dff959b0e6020de7a392919e1994acbf3a652eaf22218d9f04e77f918bb1fbda022021f90721b15de46270057e82219bce4a199e03ed7041f95b44889c1e0fe38cb401",
        "020b09c7fb4cd3be90e9337ac15a87593ac0284855426fd72dc40df7fe3ff9b98d"
      ],
      "is_coinbase": false,
      "sequence": 4294967295
    }
  ],
  "vout": [
    {
      "scriptpubkey": "0014df52cb8f365679fe7650ac89c18f39094a8289de",
      "scriptpubkey_asm": "OP_0 OP_PUSHBYTES_20 df52cb8f365679fe7650ac89c18f39094a8289de",
      "scriptpubkey_type": "v0_p2wpkh",
      "scriptpubkey_address": "bc1qmafvhrek2euluajs4jyurreep99g9zw7h7wfg2",
      "value": 11500
    },
    {
      "scriptpubkey": "0014286b6e0ec756930e0f9514436cc3264c62d6c03d",
      "scriptpubkey_asm": "OP_0 OP_PUSHBYTES_20 286b6e0ec756930e0f9514436cc3264c62d6c03d",
      "scriptpubkey_type": "v0_p2wpkh",
      "scriptpubkey_address": "bc1q9p4kurk826fsuru4z3pkesexf33ddspawqlz9s",
      "value": 1157020
    },
    {
      "scriptpubkey": "0014bfd381db151ce031e3d1a749dbc39fa2b320b803",
      "scriptpubkey_asm": "OP_0 OP_PUSHBYTES_20 bfd381db151ce031e3d1a749dbc39fa2b320b803",
      "scriptpubkey_type": "v0_p2wpkh",
      "scriptpubkey_address": "bc1qhlfcrkc4rnsrrc735ayahsul52ejpwqrjvhrwj",
      "value": 221096
    }
  ],
  "size": 552,
  "weight": 1230,
  "fee": 3510,
  "status": {
    "confirmed": true,
    "block_height": 834638,
    "block_hash": "000000000000000000025f742c626208ac87e0b7d15054abb4a19ca2d735a54e",
    "block_time": 1710405325
  },
  "hex": "0100000000010356bb171cb7f72417a4b69a2f1696b844a40568164a137611e4f017a4026be5230100000000ffffffff50aca32b0407179ce469dc4a3b7e63724c11041dda67c35fac1c1934869ab4690200000000ffffffffcd9598bf9295fa745e4b34c77d393ab3df80b52eaf2c33637123a4d831211aba0000000000ffffffff03ec2c000000000000160014df52cb8f365679fe7650ac89c18f39094a8289de9ca7110000000000160014286b6e0ec756930e0f9514436cc3264c62d6c03da85f030000000000160014bfd381db151ce031e3d1a749dbc39fa2b320b80302483045022100a99fe1a48b654bbd92093156977d6a0adc29319925022d4c5d62f0d0bf2a1c2902202414dbef0d76873bc696b900cb8f4161af5f2bd78933f463e4c2172eafa51407012103a816f8ce5f63ff6e730980d44d427b70192142be73f62f69d8529746332bd00302483045022100e320f4f97c06129168c41e6f8ba21f13992a5ae9c3cc5eec977da4b31e7a6bee02201d6bd21a9a0a6269f8ab390352ca4df064395033d34df3e83888177d4e903aee012102dc26525e59f32b14354ddb51953794f2baac0a7b362bd58c9241eed7a32d458d02483045022100dff959b0e6020de7a392919e1994acbf3a652eaf22218d9f04e77f918bb1fbda022021f90721b15de46270057e82219bce4a199e03ed7041f95b44889c1e0fe38cb40121020b09c7fb4cd3be90e9337ac15a87593ac0284855426fd72dc40df7fe3ff9b98d00000000"
}