{
  "txid": "b86bf2d7648253e0d2ded5e81843f190064fd37aced6ead38f8611498faab564",
  "version": 2,
  "locktime": 0,
  "vin": [
    {
      "txid": "7886abca1b48b3b4d33f4253ad754a2d7d1413d6280fc46fdaf9e023f541b170",
      "vout": 1,
      "prevout": {
        "scriptpubkey": "00148043481505439ed5e8d7c11ea336901f00ba14c9",
        "scriptpubkey_asm": "OP_0 OP_PUSHBYTES_20 8043481505439ed5e8d7c11ea336901f00ba14c9",
        "scriptpubkey_type": "v0_p2wpkh",
        "scriptpubkey_address": "bc1qspp5s9g9gw0dt6xhcy02xd5sruqt59xfnkceeu",
        "value": 6031499
      },
      "scriptsig": "",
      "scriptsig_asm": "",
      "witness": [
        "3045022100b04d81444929b8ae8ba0fcc4574af4fb3f7b10bdb8dd2682181fdb8522a47ec60220488ad502e679d6b6dbbb99855139041aee151924a749a97f2efbe6b2be6cabec01",
        "0293cc17b74f474cf6b30513ac9e2f55c5d2b00642d1b25d7ba96a238da52c7f85"
      ],
      "is_coinbase": false,
      "sequence": 4294967295
    }
  ],
  "vout": [
    {
      "scriptpubkey": "a914bdb580e66d78c4842f199a1fb341811f04409f0387",
      "scriptpubkey_asm": "OP_HASH160 OP_PUSHBYTES_20 bdb580e66d78c4842f199a1fb341811f04409f03 OP_EQUAL",
      "scriptpubkey_type": "p2sh",
      "scriptpubkey_address": "3Jz74tHgQLFP5tP4QDo2nPoinMuHpNS7UA",
      "value": 147093
    },
    {
      "scriptpubkey": "0014dba2037df99ca896a5dcf4196458d35427bcb56f",
      "scriptpubkey_asm": "OP_0 OP_PUSHBYTES_20 dba2037df99ca896a5dcf4196458d35427bcb56f",
      "scriptpubkey_type": "v0_p2wpkh",
      "scriptpubkey_address": "bc1qmw3qxl0enj5fdfwu7svkgkxn2snmedt0geghma",
      "value": 5880746
    }
  ],
  "size": 224,
  "weight": 566,
  "fee": 3660,
  "status": {
    "confirmed": true,
    "block_height": 834638,
    "block_hash": "000000000000000000025f742c626208ac87e0b7d15054abb4a19ca2d735a54e",
    "block_time": 1710405325
  },
  "hex": "0200000000010170b141f523e0f9da6fc40f28d613147d2d4a75ad53423fd3b4b3481bcaab86780100000000ffffffff02953e02000000000017a914bdb580e66d78c4842f199a1fb341811f04409f0387aabb590000000000160014dba2037df99ca896a5dcf4196458d35427bcb56f02483045022100b04d81444929b8ae8ba0fcc4574af4fb3f7b10bdb8dd2682181fdb8522a47ec60220488ad502e679d6b6dbbb99855139041aee151924a749a97f2efbe6b2be6cabec01210293cc17b74f474cf6b30513ac9e2f55c5d2b00642d1b25d7ba96a238da52c7f8500000000"
}