{
  "txid": "b873532f52ea129490053013bffad218ff8a57070f5c806c1a5daaea017370f7",
  "version": 2,
  "locktime": 0,
  "vin": [
    {
      "txid": "c4d97c83b47df5fc492076d4a34a57278993cd3988b7f29c56e26dfa5c5b304b",
      "vout": 8,
      "prevout": {
        "scriptpubkey": "76a914a36252b61ddd1891771be63991f538be59730b0088ac",
        "scriptpubkey_asm": "OP_DUP OP_HASH160 OP_PUSHBYTES_20 a36252b61ddd1891771be63991f538be59730b00 OP_EQUALVERIFY OP_CHECKSIG",
        "scriptpubkey_type": "p2pkh",
        "scriptpubkey_address": "1FttvsqbKZvdjtJiQYs5gBoKpYnChSnihu",
        "value": 11747690
      },
      "scriptsig": "483045022100ca5160ca54c64da909cd444855af81069e93f7e8fa09130dc8949b5256c7a0c102206f4c13a1d846a8e9591faa182d463a84a36c98f20b65ca2deff156cf0045debf012102aae6b25647e9271924ce95273abdf4a33e041a050c3eeef079891b27579ee9cc",
      "scriptsig_asm": "OP_PUSHBYTES_72 3045022100ca5160ca54c64da909cd444855af81069e93f7e8fa09130dc8949b5256c7a0c102206f4c13a1d846a8e9591faa182d463a84a36c98f20b65ca2deff156cf0045debf01 OP_PUSHBYTES_33 02aae6b25647e9271924ce95273abdf4a33e041a050c3eeef079891b27579ee9cc",
      "is_coinbase": false,
      "sequence": 4294967295
    },
    {
      "txid": "4a99c65404ce8e5386efba2e9953c9f0d9506ca62ccacba82711ef43983e4342",
      "vout": 11,
      "prevout": {
        "scriptpubkey": "76a91465b21f5b268e19af76bca084f433f8efbd1417de88ac",
        "scriptpubkey_asm": "OP_DUP OP_HASH160 OP_PUSHBYTES_20 65b21f5b268e19af76bca084f433f8efbd1417de OP_EQUALVERIFY OP_CHECKSIG",
        "scriptpubkey_type": "p2pkh",
        "scriptpubkey_address": "1AGidYSXZdMVDJaAbFUiSfzXsSzQ3xqHvE",
        "value": 11454960
      },
      "scriptsig": "473044022074a58c93ad6c843b3f4ca1608b1a292fee95f2b041bc9b4bf50dcecb7762d1b9022009601e8f46635402e0b024ba2805e75a3822f7bce92872037b181d5bfb32cce60121039a3d6b23ffe5824290212a59cfce115abc9561b88c7c3897fc04025ac43ebe12",
      "scriptsig_asm": "OP_PUSHBYTES_71 3044022074a58c93ad6c843b3f4ca1608b1a292fee95f2b041bc9b4bf50dcecb7762d1b9022009601e8f46635402e0b024ba2805e75a3822f7bce92872037b181d5bfb32cce601 OP_PUSHBYTES_33 039a3d6b23ffe5824290212a59cfce115abc9561b88c7c3897fc04025ac43ebe12",
      "is_coinbase": false,
      "sequence": 4294967295
    }
  ],
  "vout": [
    {
      "scriptpubkey": "a914d8e6ab63815da135837b36a4f269d9e33e933c4787",
      "scriptpubkey_asm": "OP_HASH160 OP_PUSHBYTES_20 d8e6ab63815da135837b36a4f269d9e33e933c47 OP_EQUAL",
      "scriptpubkey_type": "p2sh",
      "scriptpubkey_address": "3MTtDBAXZKiWkVJqJdRg8NVP11Ycegujna",
      "value": 136467
    },
    {
      "scriptpubkey": "a914e8ef718105dcd2dcbca5c2cf21490b8df9b2a01a87",
      "scriptpubkey_asm": "OP_HASH160 OP_PUSHBYTES_20 e8ef718105dcd2dcbca5c2cf21490b8df9b2a01a OP_EQUAL",
      "scriptpubkey_type": "p2sh",
      "scriptpubkey_address": "3NvfXsAhPCdRkRjjU3NaiFd9n4VHS8YJXf",
      "value": 124459
    },
    {
      "scriptpubkey": "001419d6d781ef82d02db5cb97caffaba960d5794f21",
      "scriptpubkey_asm": "OP_0 OP_PUSHBYTES_20 19d6d781ef82d02db5cb97caffaba960d5794f21",
      "scriptpubkey_type": "v0_p2wpkh",
      "scriptpubkey_address": "bc1qr8td0q00stgzmdwtjl90l2afvr2hjneptw8r46",
      "value": 114195
    },
    {
      "scriptpubkey": "a9148488c178ec139b7703b246a7d40339964a6289b187",
      "scriptpubkey_asm": "OP_HASH160 OP_PUSHBYTES_20 8488c178ec139b7703b246a7d40339964a6289b1 OP_EQUAL",
      "scriptpubkey_type": "p2sh",
      "scriptpubkey_address": "3DmnwpbxxBMWHttm3wF68qCYdQnEgzYAiX",
      "value": 500482
    },
    {
      "scriptpubkey": "76a9145b826d3ea18ef1cd41c9780dc232da7fb708eb1988ac",
      "scriptpubkey_asm": "OP_DUP OP_HASH160 OP_PUSHBYTES_20 5b826d3ea18ef1cd41c9780dc232da7fb708eb19 OP_EQUALVERIFY OP_CHECKSIG",
      "scriptpubkey_type": "p2pkh",
      "scriptpubkey_address": "19LrjfaU4vQMwiWmU3cMt1naaoHsHxckum",
      "value": 140307
    },
    {
      "scriptpubkey": "a9148340777750a2465db34eb6e520e146a6d5a0316987",
      "scriptpubkey_asm": "OP_HASH160 OP_PUSHBYTES_20 8340777750a2465db34eb6e520e146a6d5a03169 OP_EQUAL",
      "scriptpubkey_type": "p2sh",
      "scriptpubkey_address": "3Df1ftv5HBiZE8tUcagzDrmujzvBr2ZrpH",
      "value": 564987
    },
    {
      "scriptpubkey": "00209fea8bd8a44827b7fe2e9e7368ed9ec3c02619257e1902d4b793bb1df9bf5e4f",
      "scriptpubkey_asm": "OP_0 OP_PUSHBYTES_32 9fea8bd8a44827b7fe2e9e7368ed9ec3c02619257e1902d4b793bb1df9bf5e4f",
      "scriptpubkey_type": "v0_p2wsh",
      "scriptpubkey_address": "bc1qnl4ghk9yfqnm0l3wneek3mv7c0qzvxf90cvs949hjwa3m7dlte8s45cv02",
      "value": 30101
    },
    {
      "scriptpubkey": "a914c507d50c072c8e8c205765f58f20b8dac5702f8487",
      "scriptpubkey_asm": "OP_HASH160 OP_PUSHBYTES_20 c507d50c072c8e8c205765f58f20b8dac5702f84 OP_EQUAL",
      "scriptpubkey_type": "p2sh",
      "scriptpubkey_address": "3KepRXUHiza2n4UiZNSbGLSpRf48hEvYFF",
      "value": 73420
    },
    {
      "scriptpubkey": "a91474693fa216dbe0d0f9f8b86f4a791f78587ebef587",
      "scriptpubkey_asm": "OP_HASH160 OP_PUSHBYTES_20 74693fa216dbe0d0f9f8b86f4a791f78587ebef5 OP_EQUAL",
      "scriptpubkey_type": "p2sh",
      "scriptpubkey_address": "3CJYPbSu5qzzWm3N9zsygac23UWQ58Q3Kz",
      "value": 865377
    },
    {
      "scriptpubkey": "76a914ff1a978dd905cf676b2ee8870ba47728294e609588ac",
      "scriptpubkey_asm": "OP_DUP OP_HASH160 OP_PUSHBYTES_20 ff1a978dd905cf676b2ee8870ba47728294e6095 OP_EQUALVERIFY OP_CHECKSIG",
      "scriptpubkey_type": "p2pkh",
      "scriptpubkey_address": "1QFsAZb9puEnhxVB83evJAh6sw1x87LeW1",
      "value": 20643791
    }
  ],
  "size": 639,
  "weight": 2556,
  "fee": 9064,
  "status": {
    "confirmed": true,
    "block_height": 834638,
    "block_hash": "000000000000000000025f742c626208ac87e0b7d15054abb4a19ca2d735a54e",
    "block_time": 1710405325
  },
  "hex": "02000000024b305b5cfa6de2569cf2b78839cd938927574aa3d4762049fcf57db4837cd9c4080000006b483045022100ca5160ca54c64da909cd444855af81069e93f7e8fa09130dc8949b5256c7a0c102206f4c13a1d846a8e9591faa182d463a84a36c98f20b65ca2deff156cf0045debf012102aae6b25647e9271924ce95273abdf4a33e041a050c3eeef079891b27579ee9ccffffffff42433e9843ef1127a8cbca2ca66c50d9f0c953992ebaef86538ece0454c6994a0b0000006a473044022074a58c93ad6c843b3f4ca1608b1a292fee95f2b041bc9b4bf50dcecb7762d1b9022009601e8f46635402e0b024ba2805e75a3822f7bce92872037b181d5bfb32cce60121039a3d6b23ffe5824290212a59cfce115abc9561b88c7c3897fc04025ac43ebe12ffffffff0a131502000000000017a914d8e6ab63815da135837b36a4f269d9e33e933c47872be601000000000017a914e8ef718105dcd2dcbca5c2cf21490b8df9b2a01a8713be01000000000016001419d6d781ef82d02db5cb97caffaba960d5794f2102a307000000000017a9148488c178ec139b7703b246a7d40339964a6289b18713240200000000001976a9145b826d3ea18ef1cd41c9780dc232da7fb708eb1988acfb9e08000000000017a9148340777750a2465db34eb6e520e146a6d5a031698795750000000000002200209fea8bd8a44827b7fe2e9e7368ed9ec3c02619257e1902d4b793bb1df9bf5e4fcc1e01000000000017a914c507d50c072c8e8c205765f58f20b8dac5702f848761340d000000000017a91474693fa216dbe0d0f9f8b86f4a791f78587ebef587cfff3a01000000001976a914ff1a978dd905cf676b2ee8870ba47728294e609588ac00000000"
}