{
  "txid": "b876f3b2fef63386a8e1dc0e303fb1af91d471fa80ec379cd065b27d2d79b691",
  "version": 2,
  "locktime": 0,
  "vin": [
    {
      "txid": "6fd2ce6b7c4040b52535a22d19ef2cc0ae21ddadce8c80b50fb1fac3ef58115b",
      "vout": 0,
      "prevout": {
        "scriptpubkey": "512005a12184b600a88c27b19d3180f23d7735367dfdd4ca7909bf2b8c28017258e1",
        "scriptpubkey_asm": "OP_PUSHNUM_1 OP_PUSHBYTES_32 05a12184b600a88c27b19d3180f23d7735367dfdd4ca7909bf2b8c28017258e1",
        "scriptpubkey_type": "v1_p2tr",
        "scriptpubkey_address": "bc1pqksjrp9kqz5gcfa3n5ccpu3awu6nvl0a6n98jzdl9wxzsqtjtrss9n9xkq",
        "value": 5000
      },
      "scriptsig": "",
      "scriptsig_asm": "",
      "witness": [
        "b59d9cb848ccced17c4cd38d5c6884f39f6ac2d4688beeb1645e43baa183729977e68667b0186c76cc9a2e82a4d360d62439be2db0a756752b91b1d221a45ca8",
        "204e36f51404c87f1049102b629c111f634b2de419a5747aa5a9d398d5bdc4d90aac0063036f7264010118746578742f706c61696e3b636861727365743d7574662d38003a7b2270223a226272632d3230222c226f70223a227472616e73666572222c227469636b223a22314f6e38222c22616d74223a223236353936227d68",
        "c00011b4011883c69ae0bd3aef7ce452cec4cea9a3e918d1ce478ac8f7e867e58e"
      ],
      "is_coinbase": false,
      "sequence": 4294967293
    }
  ],
  "vout": [
    {
      "scriptpubkey": "5120b745858975d80a8e1f2499610b82b8e9308ef8aef661771b3e9e06459a3a0a0b",
      "scriptpubkey_asm": "OP_PUSHNUM_1 OP_PUSHBYTES_32 b745858975d80a8e1f2499610b82b8e9308ef8aef661771b3e9e06459a3a0a0b",
      "scriptpubkey_type": "v1_p2tr",
      "scriptpubkey_address": "bc1pkazctzt4mq9gu8eyn9sshq4caycga79w7eshwxe7ncrytx36pg9ss6rsud",
      "value": 546
    },
    {
      "scriptpubkey": "00144540dfede11c3c643bcc4c23e437ade0a235221d",
      "scriptpubkey_asm": "OP_0 OP_PUSHBYTES_20 4540dfede11c3c643bcc4c23e437ade0a235221d",
      "scriptpubkey_type": "v0_p2wpkh",
      "scriptpubkey_address": "bc1qg4qdlm0prs7xgw7vfs37gdaduz3r2gsaq78pwu",
      "value": 1343
    }
  ],
  "size": 356,
  "weight": 731,
  "fee": 3111,
  "status": {
    "confirmed": true,
    "block_height": 834638,
    "block_hash": "000000000000000000025f742c626208ac87e0b7d15054abb4a19ca2d735a54e",
    "block_time": 1710405325
  },
  "hex": "020000000001015b1158efc3fab10fb5808cceaddd21aec02cef192da23525b540407c6bced26f0000000000fdffffff022202000000000000225120b745858975d80a8e1f2499610b82b8e9308ef8aef661771b3e9e06459a3a0a0b3f050000000000001600144540dfede11c3c643bcc4c23e437ade0a235221d0340b59d9cb848ccced17c4cd38d5c6884f39f6ac2d4688beeb1645e43baa183729977e68667b0186c76cc9a2e82a4d360d62439be2db0a756752b91b1d221a45ca880204e36f51404c87f1049102b629c111f634b2de419a5747aa5a9d398d5bdc4d90aac0063036f7264010118746578742f706c61696e3b636861727365743d7574662d38003a7b2270223a226272632d3230222c226f70223a227472616e73666572222c227469636b223a22314f6e38222c22616d74223a223236353936227d6821c00011b4011883c69ae0bd3aef7ce452cec4cea9a3e918d1ce478ac8f7e867e58e00000000"
}