{
  "txid": "b88e1c041fc748ca4fafcf5f31e00c20467f1130462d9e01604d20d00aa6fe8a",
  "version": 1,
  "locktime": 0,
  "vin": [
    {
      "txid": "770efd2b2e32feaf81ae014608b26153a13a81c1de4e8fc3f863c9e7ad752fd5",
      "vout": 5,
      "prevout": {
        "scriptpubkey": "76a914d14f6d964896f292e43e9972a6c94dc648c9abcb88ac",
        "scriptpubkey_asm": "OP_DUP OP_HASH160 OP_PUSHBYTES_20 d14f6d964896f292e43e9972a6c94dc648c9abcb OP_EQUALVERIFY OP_CHECKSIG",
        "scriptpubkey_type": "p2pkh",
        "scriptpubkey_address": "1L5jNrQrEa4MvJwgSp6CogriCP43KmoxV8",
        "value": 252777
      },
      "scriptsig": "483045022100da9bde2b83c9bc9fc3eb91f04b6e7568f79e41f0f8b92915d766f1eb06f50efd02205d17c439880a0ea771f6b4641c3d49748b621703ec15247e2b4e2fd5ee258da20121031077a84048fefec4f029d2e7da14d7e5c8730e4b43385e3929aa1c6db9536655",
      "scriptsig_asm": "OP_PUSHBYTES_72 3045022100da9bde2b83c9bc9fc3eb91f04b6e7568f79e41f0f8b92915d766f1eb06f50efd02205d17c439880a0ea771f6b4641c3d49748b621703ec15247e2b4e2fd5ee258da201 OP_PUSHBYTES_33 031077a84048fefec4f029d2e7da14d7e5c8730e4b43385e3929aa1c6db9536655",
      "is_coinbase": false,
      "sequence": 4294967295
    }
  ],
  "vout": [
    {
      "scriptpubkey": "76a914e2c2a6881054807904917d84977ce6a6f11b71b588ac",
      "scriptpubkey_asm": "OP_DUP OP_HASH160 OP_PUSHBYTES_20 e2c2a6881054807904917d84977ce6a6f11b71b5 OP_EQUALVERIFY OP_CHECKSIG",
      "scriptpubkey_type": "p2pkh",
      "scriptpubkey_address": "1Mfztuh5bpib3LpvKcS4ncPUMb9idLmbLv",
      "value": 109526
    },
    {
      "scriptpubkey": "a914b06afa834000c9030011fc0d8bc861cdc4b90cd487",
      "scriptpubkey_asm": "OP_HASH160 OP_PUSHBYTES_20 b06afa834000c9030011fc0d8bc861cdc4b90cd4 OP_EQUAL",
      "scriptpubkey_type": "p2sh",
      "scriptpubkey_address": "3Hmq1Jkm2HrrKQBnxYiwHmjgyapZ9KSSRe",
      "value": 138771
    }
  ],
  "size": 224,
  "weight": 896,
  "fee": 4480,
  "status": {
    "confirmed": true,
    "block_height": 834460,
    "block_hash": "00000000000000000000484a79b643b2524bbce82e5d8a442013fa5b8905ed98",
    "block_time": 1710307468
  },
  "hex": "0100000001d52f75ade7c963f8c38f4edec1813aa15361b2084601ae81affe322e2bfd0e77050000006b483045022100da9bde2b83c9bc9fc3eb91f04b6e7568f79e41f0f8b92915d766f1eb06f50efd02205d17c439880a0ea771f6b4641c3d49748b621703ec15247e2b4e2fd5ee258da20121031077a84048fefec4f029d2e7da14d7e5c8730e4b43385e3929aa1c6db9536655ffffffff02d6ab0100000000001976a914e2c2a6881054807904917d84977ce6a6f11b71b588ac131e02000000000017a914b06afa834000c9030011fc0d8bc861cdc4b90cd48700000000"
}