{
  "txid": "b8ad0ab6e67b2bc498007a7983282ebd1cb737c29939a9add22133a033d8e74a",
  "version": 2,
  "locktime": 834637,
  "vin": [
    {
      "txid": "5d67040649c33bc341fccafad2fbada223a167be5cd16ecdc924ecc705502f43",
      "vout": 0,
      "prevout": {
        "scriptpubkey": "76a9142d50e466b4aa82a4f8571a99f1bd8d073f9878d388ac",
        "scriptpubkey_asm": "OP_DUP OP_HASH160 OP_PUSHBYTES_20 2d50e466b4aa82a4f8571a99f1bd8d073f9878d3 OP_EQUALVERIFY OP_CHECKSIG",
        "scriptpubkey_type": "p2pkh",
        "scriptpubkey_address": "158cK7z5GkyfUsJVM4V3DMb9ZCRngTgKR4",
        "value": 562646200
      },
      "scriptsig": "47304402205dfe1a63816d9a7db507a735b52c9059742e9589649ea392d6310faf81bcc22402203225fc1605475c92249d944215534f856dae14c2b1078c3aeb15503e613907b401210327637ead31e2b9579744bedddc11eaf3caa2a4f386f6a6a4761c616897095faf",
      "scriptsig_asm": "OP_PUSHBYTES_71 304402205dfe1a63816d9a7db507a735b52c9059742e9589649ea392d6310faf81bcc22402203225fc1605475c92249d944215534f856dae14c2b1078c3aeb15503e613907b401 OP_PUSHBYTES_33 0327637ead31e2b9579744bedddc11eaf3caa2a4f386f6a6a4761c616897095faf",
      "is_coinbase": false,
      "sequence": 4294967293
    },
    {
      "txid": "aad137ef73d9b4c8d1039866b9a370f45e46f8b295ee6e7b56413db3a1548493",
      "vout": 0,
      "prevout": {
        "scriptpubkey": "76a9141aa39ad9fc4088e3515541a2e6703abdcd1944f088ac",
        "scriptpubkey_asm": "OP_DUP OP_HASH160 OP_PUSHBYTES_20 1aa39ad9fc4088e3515541a2e6703abdcd1944f0 OP_EQUALVERIFY OP_CHECKSIG",
        "scriptpubkey_type": "p2pkh",
        "scriptpubkey_address": "13RrZTN5fkwSSEVsv5BV1AHbMnpd5xCnq7",
        "value": 723999400
      },
      "scriptsig": "47304402205e96d3767a4e8f1586427a7ad5248fd538f23460a063f15a63e3d2c8bc11caae0220567b0afbf94410cdcf749b7c5eb40bec30dcb1ec566f723527cb999a584e0c8b012102ed481a02614c45187d5c02c5b8846b113a9eaee773f13fb2f55884186f6f99f9",
      "scriptsig_asm": "OP_PUSHBYTES_71 304402205e96d3767a4e8f1586427a7ad5248fd538f23460a063f15a63e3d2c8bc11caae0220567b0afbf94410cdcf749b7c5eb40bec30dcb1ec566f723527cb999a584e0c8b01 OP_PUSHBYTES_33 02ed481a02614c45187d5c02c5b8846b113a9eaee773f13fb2f55884186f6f99f9",
      "is_coinbase": false,
      "sequence": 4294967293
    }
  ],
  "vout": [
    {
      "scriptpubkey": "0014708afd35266fbb2e80b0a2fc61ab1eac184b311c",
      "scriptpubkey_asm": "OP_0 OP_PUSHBYTES_20 708afd35266fbb2e80b0a2fc61ab1eac184b311c",
      "scriptpubkey_type": "v0_p2wpkh",
      "scriptpubkey_address": "bc1qwz906dfxd7ajaq9s5t7xr2c74svykvgunuyeta",
      "value": 1286636501
    }
  ],
  "size": 335,
  "weight": 1340,
  "fee": 9099,
  "status": {
    "confirmed": true,
    "block_height": 834638,
    "block_hash": "000000000000000000025f742c626208ac87e0b7d15054abb4a19ca2d735a54e",
    "block_time": 1710405325
  },
  "hex": "0200000002432f5005c7ec24c9cd6ed15cbe67a123a2adfbd2facafc41c33bc3490604675d000000006a47304402205dfe1a63816d9a7db507a735b52c9059742e9589649ea392d6310faf81bcc22402203225fc1605475c92249d944215534f856dae14c2b1078c3aeb15503e613907b401210327637ead31e2b9579744bedddc11eaf3caa2a4f386f6a6a4761c616897095faffdffffff938454a1b33d41567b6eee95b2f8465ef470a3b9669803d1c8b4d973ef37d1aa000000006a47304402205e96d3767a4e8f1586427a7ad5248fd538f23460a063f15a63e3d2c8bc11caae0220567b0afbf94410cdcf749b7c5eb40bec30dcb1ec566f723527cb999a584e0c8b012102ed481a02614c45187d5c02c5b8846b113a9eaee773f13fb2f55884186f6f99f9fdffffff01d583b04c00000000160014708afd35266fbb2e80b0a2fc61ab1eac184b311c4dbc0c00"
}