{
  "txid": "b8c89f699fec55eecd4d7b1369c03ae0a051e045bba4bfbe92bbd8e836de739e",
  "version": 1,
  "locktime": 0,
  "vin": [
    {
      "txid": "28903174bf5ed77c2d781777a95c424c55616eb13aaa10328be6d44bf264df81",
      "vout": 0,
      "prevout": {
        "scriptpubkey": "5120c4ab0a9b6aad9ac666916d5678ef472f7a7fb2973729070f446a9c4efbb994a8",
        "scriptpubkey_asm": "OP_PUSHNUM_1 OP_PUSHBYTES_32 c4ab0a9b6aad9ac666916d5678ef472f7a7fb2973729070f446a9c4efbb994a8",
        "scriptpubkey_type": "v1_p2tr",
        "scriptpubkey_address": "bc1pcj4s4xm24kdvve53d4t83m689aa8lv5hxu5swr6yd2wya7aejj5q2xqfa7",
        "value": 2770
      },
      "scriptsig": "",
      "scriptsig_asm": "",
      "witness": [
        "98ba9fb317eb80d4af4ce826fd2679abe8c0a473e4f17eb4eedd62fd7c81be98ca9ad04f754e20c9334a78e5d4f7524c8ed9a263bc17eaf503b4242e05dcda1d83",
        "20be11f1d0580232188e877ef283eb5a1efd4e9e5290a2633605d666f59ad3fff2ac00630461746f6d036e667440a16461726773a468626974776f726b6364323839306d726571756573745f7265616c6d676675636b616c6c656e6f6e63651a000ed5de6474696d651a65f1109468",
        "c1be11f1d0580232188e877ef283eb5a1efd4e9e5290a2633605d666f59ad3fff2"
      ],
      "is_coinbase": false,
      "sequence": 4294967293
    }
  ],
  "vout": [
    {
      "scriptpubkey": "51209d6dbbf9bad17d0135e06ea56ec304df985f9f9bc809fa52ae6789a0947e0300",
      "scriptpubkey_asm": "OP_PUSHNUM_1 OP_PUSHBYTES_32 9d6dbbf9bad17d0135e06ea56ec304df985f9f9bc809fa52ae6789a0947e0300",
      "scriptpubkey_type": "v1_p2tr",
      "scriptpubkey_address": "bc1pn4kmh7d6697szd0qd6jkascym7v9l8umeqyl554wv7y6p9r7qvqquzkndh",
      "value": 1000
    }
  ],
  "size": 309,
  "weight": 591,
  "fee": 1770,
  "status": {
    "confirmed": true,
    "block_height": 834460,
    "block_hash": "00000000000000000000484a79b643b2524bbce82e5d8a442013fa5b8905ed98",
    "block_time": 1710307468
  },
  "hex": "0100000000010181df64f24bd4e68b3210aa3ab16e61554c425ca97717782d7cd75ebf743190280000000000fdffffff01e8030000000000002251209d6dbbf9bad17d0135e06ea56ec304df985f9f9bc809fa52ae6789a0947e0300034198ba9fb317eb80d4af4ce826fd2679abe8c0a473e4f17eb4eedd62fd7c81be98ca9ad04f754e20c9334a78e5d4f7524c8ed9a263bc17eaf503b4242e05dcda1d836f20be11f1d0580232188e877ef283eb5a1efd4e9e5290a2633605d666f59ad3fff2ac00630461746f6d036e667440a16461726773a468626974776f726b6364323839306d726571756573745f7265616c6d676675636b616c6c656e6f6e63651a000ed5de6474696d651a65f110946821c1be11f1d0580232188e877ef283eb5a1efd4e9e5290a2633605d666f59ad3fff200000000"
}