{
  "txid": "b8d3158c6b5e657c75130a62f199b18dd3162be58d773c951aac01737ac5abd2",
  "version": 2,
  "locktime": 0,
  "vin": [
    {
      "txid": "95899e66c5b54b8cc7cd9e87325693bf51f309229e99f64bacb10c960711b2f0",
      "vout": 0,
      "prevout": {
        "scriptpubkey": "5120f4971126bd3accc0141f27cf2974e25e7bbe40a47d72d9906edd224f78a5a306",
        "scriptpubkey_asm": "OP_PUSHNUM_1 OP_PUSHBYTES_32 f4971126bd3accc0141f27cf2974e25e7bbe40a47d72d9906edd224f78a5a306",
        "scriptpubkey_type": "v1_p2tr",
        "scriptpubkey_address": "bc1p7jt3zf4a8txvq9qlyl8jja8zteamus9y04ednyrwm53y77995vrq2gnttd",
        "value": 546
      },
      "scriptsig": "",
      "scriptsig_asm": "",
      "witness": [
        "e67421201999dd63578dd80b225b9ba308b3cbcf8f2a36b9b1f7bf28fc77aa0ec8202b60172074ad40b98086410683a911fbe4d137f27b74d1f3cf84697f4405"
      ],
      "is_coinbase": false,
      "sequence": 4294967295
    },
    {
      "txid": "b230bd00a89a02b0a0a4eda50ca134d19bb08f741dae7d1d9b20897bfa83331a",
      "vout": 0,
      "prevout": {
        "scriptpubkey": "5120f4971126bd3accc0141f27cf2974e25e7bbe40a47d72d9906edd224f78a5a306",
        "scriptpubkey_asm": "OP_PUSHNUM_1 OP_PUSHBYTES_32 f4971126bd3accc0141f27cf2974e25e7bbe40a47d72d9906edd224f78a5a306",
        "scriptpubkey_type": "v1_p2tr",
        "scriptpubkey_address": "bc1p7jt3zf4a8txvq9qlyl8jja8zteamus9y04ednyrwm53y77995vrq2gnttd",
        "value": 546
      },
      "scriptsig": "",
      "scriptsig_asm": "",
      "witness": [
        "47d66ea138a461822f19b906d216bbed4f19f658cd23f38eaa7f60de687177e77b016325fdbf82b12c1df10eabd11a4f2377312b7ab2dd3f13a163e4cb36c0d6"
      ],
      "is_coinbase": false,
      "sequence": 4294967295
    },
    {
      "txid": "47cebc8ef5745f7b9ef696e22b6de79955667bd3305e4404e22b61a8db6e1fe4",
      "vout": 0,
      "prevout": {
        "scriptpubkey": "5120f4971126bd3accc0141f27cf2974e25e7bbe40a47d72d9906edd224f78a5a306",
        "scriptpubkey_asm": "OP_PUSHNUM_1 OP_PUSHBYTES_32 f4971126bd3accc0141f27cf2974e25e7bbe40a47d72d9906edd224f78a5a306",
        "scriptpubkey_type": "v1_p2tr",
        "scriptpubkey_address": "bc1p7jt3zf4a8txvq9qlyl8jja8zteamus9y04ednyrwm53y77995vrq2gnttd",
        "value": 546
      },
      "scriptsig": "",
      "scriptsig_asm": "",
      "witness": [
        "e50c2a061a2309eb2704d2d6e87128987205b4299e9c0f8cc3a69b46683c92f13019e2bf3a393a919c43cd14a16097fcceba37eb99ea500efbea7f3882326057"
      ],
      "is_coinbase": false,
      "sequence": 4294967295
    },
    {
      "txid": "aac743b8264a4e818660c1c69bbce2fa2c2ca8102dd28551096bb0678b396c78",
      "vout": 0,
      "prevout": {
        "scriptpubkey": "5120f4971126bd3accc0141f27cf2974e25e7bbe40a47d72d9906edd224f78a5a306",
        "scriptpubkey_asm": "OP_PUSHNUM_1 OP_PUSHBYTES_32 f4971126bd3accc0141f27cf2974e25e7bbe40a47d72d9906edd224f78a5a306",
        "scriptpubkey_type": "v1_p2tr",
        "scriptpubkey_address": "bc1p7jt3zf4a8txvq9qlyl8jja8zteamus9y04ednyrwm53y77995vrq2gnttd",
        "value": 546
      },
      "scriptsig": "",
      "scriptsig_asm": "",
      "witness": [
        "60d198945d9332044dbffeacee67619de960c7ca823b032be607672075ba9d1e3b4b3c34c5a13fb39612df37b1b42b004ada9e3f0fa265bbf7c0131416ffde0d"
      ],
      "is_coinbase": false,
      "sequence": 4294967295
    },
    {
      "txid": "c710a8459a65f33ac11b654dc49e2a8d603c8f6427df6cd88913565a044fd6b0",
      "vout": 0,
      "prevout": {
        "scriptpubkey": "5120f4971126bd3accc0141f27cf2974e25e7bbe40a47d72d9906edd224f78a5a306",
        "scriptpubkey_asm": "OP_PUSHNUM_1 OP_PUSHBYTES_32 f4971126bd3accc0141f27cf2974e25e7bbe40a47d72d9906edd224f78a5a306",
        "scriptpubkey_type": "v1_p2tr",
        "scriptpubkey_address": "bc1p7jt3zf4a8txvq9qlyl8jja8zteamus9y04ednyrwm53y77995vrq2gnttd",
        "value": 546
      },
      "scriptsig": "",
      "scriptsig_asm": "",
      "witness": [
        "15d1071bd852b11a5e33f9c089f963d4104a11cfd7cb38324c7258be51d2a08adbc96ba682487dc4601d0cfe52f153af853f16b2714fccc9a64a9ebff549f372"
      ],
      "is_coinbase": false,
      "sequence": 4294967295
    },
    {
      "txid": "8920d4a2c3b24aadb6aa22552bdcbad17774d51ec92731e90de59a9113d43547",
      "vout": 0,
      "prevout": {
        "scriptpubkey": "5120f4971126bd3accc0141f27cf2974e25e7bbe40a47d72d9906edd224f78a5a306",
        "scriptpubkey_asm": "OP_PUSHNUM_1 OP_PUSHBYTES_32 f4971126bd3accc0141f27cf2974e25e7bbe40a47d72d9906edd224f78a5a306",
        "scriptpubkey_type": "v1_p2tr",
        "scriptpubkey_address": "bc1p7jt3zf4a8txvq9qlyl8jja8zteamus9y04ednyrwm53y77995vrq2gnttd",
        "value": 546
      },
      "scriptsig": "",
      "scriptsig_asm": "",
      "witness": [
        "562ddd6857e110e302cfe936e86a82b2932f5e00ee3c22b8dd260976cd9fbeb5e3a902f05bca4f6ccd45ae6a727fa3ade52ac1fb35f37e3895c1bb19cd043cfa"
      ],
      "is_coinbase": false,
      "sequence": 4294967295
    },
    {
      "txid": "205407056f3bbecce7c5459fbbbaa3096ea7838661394ccb77f090481030c5e0",
      "vout": 0,
      "prevout": {
        "scriptpubkey": "5120f4971126bd3accc0141f27cf2974e25e7bbe40a47d72d9906edd224f78a5a306",
        "scriptpubkey_asm": "OP_PUSHNUM_1 OP_PUSHBYTES_32 f4971126bd3accc0141f27cf2974e25e7bbe40a47d72d9906edd224f78a5a306",
        "scriptpubkey_type": "v1_p2tr",
        "scriptpubkey_address": "bc1p7jt3zf4a8txvq9qlyl8jja8zteamus9y04ednyrwm53y77995vrq2gnttd",
        "value": 546
      },
      "scriptsig": "",
      "scriptsig_asm": "",
      "witness": [
        "df83965d12a30c0155f58fcc9b86d5ed00ae8eb2f21478c34578f55634fd24149248b8ad33a33a6908c328b536a510fb3307152d279ad96c288a9f4c919e133d"
      ],
      "is_coinbase": false,
      "sequence": 4294967295
    },
    {
      "txid": "dee64974ac6f9ff37d6a759a57d2b16b562043427bf2fa6c0a7ab23737610206",
      "vout": 0,
      "prevout": {
        "scriptpubkey": "5120f4971126bd3accc0141f27cf2974e25e7bbe40a47d72d9906edd224f78a5a306",
        "scriptpubkey_asm": "OP_PUSHNUM_1 OP_PUSHBYTES_32 f4971126bd3accc0141f27cf2974e25e7bbe40a47d72d9906edd224f78a5a306",
        "scriptpubkey_type": "v1_p2tr",
        "scriptpubkey_address": "bc1p7jt3zf4a8txvq9qlyl8jja8zteamus9y04ednyrwm53y77995vrq2gnttd",
        "value": 546
      },
      "scriptsig": "",
      "scriptsig_asm": "",
      "witness": [
        "45d8ca684a2ce5954a8a044b666669b3d1c73d0cfc53447addafaf19a8502830d51efebce26867436fd394a858305ae54515766e669c8794e878c0651c7bd906"
      ],
      "is_coinbase": false,
      "sequence": 4294967295
    },
    {
      "txid": "cb8b4f4d86dd00698cfd02c485d97307ee6c9c5ab0f5ddaded033cce70169e52",
      "vout": 0,
      "prevout": {
        "scriptpubkey": "5120f4971126bd3accc0141f27cf2974e25e7bbe40a47d72d9906edd224f78a5a306",
        "scriptpubkey_asm": "OP_PUSHNUM_1 OP_PUSHBYTES_32 f4971126bd3accc0141f27cf2974e25e7bbe40a47d72d9906edd224f78a5a306",
        "scriptpubkey_type": "v1_p2tr",
        "scriptpubkey_address": "bc1p7jt3zf4a8txvq9qlyl8jja8zteamus9y04ednyrwm53y77995vrq2gnttd",
        "value": 546
      },
      "scriptsig": "",
      "scriptsig_asm": "",
      "witness": [
        "05663f81567155d280b5ff6d88cbafbf056e0ae5865697bedcefb43c17c5662aeb24efa1d95d5e5685e50c9a0479522379b0dc53ce9d716d4342cc98889e5a2e"
      ],
      "is_coinbase": false,
      "sequence": 4294967295
    },
    {
      "txid": "9dd90475f9c484b835fb052c9d08928abc0c0defa0e9252028f9755a0284f335",
      "vout": 0,
      "prevout": {
        "scriptpubkey": "5120f4971126bd3accc0141f27cf2974e25e7bbe40a47d72d9906edd224f78a5a306",
        "scriptpubkey_asm": "OP_PUSHNUM_1 OP_PUSHBYTES_32 f4971126bd3accc0141f27cf2974e25e7bbe40a47d72d9906edd224f78a5a306",
        "scriptpubkey_type": "v1_p2tr",
        "scriptpubkey_address": "bc1p7jt3zf4a8txvq9qlyl8jja8zteamus9y04ednyrwm53y77995vrq2gnttd",
        "value": 546
      },
      "scriptsig": "",
      "scriptsig_asm": "",
      "witness": [
        "0c4f7e3fc42c7d4ae7edd0dce2d0d12320ffb7abe84069006b63ca1a9d005ef36e401af51f2f6fe36f89f11e3821285fec242b874bc9b727c041727008eef7e5"
      ],
      "is_coinbase": false,
      "sequence": 4294967295
    },
    {
      "txid": "f71f92b80c84d4c4765d6ce6138d6fd9453da4f7289f72b2e47c32bdff8d4467",
      "vout": 0,
      "prevout": {
        "scriptpubkey": "5120f4971126bd3accc0141f27cf2974e25e7bbe40a47d72d9906edd224f78a5a306",
        "scriptpubkey_asm": "OP_PUSHNUM_1 OP_PUSHBYTES_32 f4971126bd3accc0141f27cf2974e25e7bbe40a47d72d9906edd224f78a5a306",
        "scriptpubkey_type": "v1_p2tr",
        "scriptpubkey_address": "bc1p7jt3zf4a8txvq9qlyl8jja8zteamus9y04ednyrwm53y77995vrq2gnttd",
        "value": 546
      },
      "scriptsig": "",
      "scriptsig_asm": "",
      "witness": [
        "24885b07c68fd890d372b1ada0614c434c1144e142963a5c561b202d3417d8049a4ff5d3e3e2f2c536c65814b39545755ac996c890da1ec27655022d8022fb12"
      ],
      "is_coinbase": false,
      "sequence": 4294967295
    },
    {
      "txid": "566a2688628ee7b2de3dc3246118a0c131ece4f64c4c646f25b7af5dd9b595a6",
      "vout": 0,
      "prevout": {
        "scriptpubkey": "5120f4971126bd3accc0141f27cf2974e25e7bbe40a47d72d9906edd224f78a5a306",
        "scriptpubkey_asm": "OP_PUSHNUM_1 OP_PUSHBYTES_32 f4971126bd3accc0141f27cf2974e25e7bbe40a47d72d9906edd224f78a5a306",
        "scriptpubkey_type": "v1_p2tr",
        "scriptpubkey_address": "bc1p7jt3zf4a8txvq9qlyl8jja8zteamus9y04ednyrwm53y77995vrq2gnttd",
        "value": 546
      },
      "scriptsig": "",
      "scriptsig_asm": "",
      "witness": [
        "4e3a3b2f9dd2f34bf770d14a1d234b98946ae490850d1bc40edaf6a4e28d0c20dbfb267a41148a47902a9a784b30554c6919848090d89cf1e74648b50eca2cdc"
      ],
      "is_coinbase": false,
      "sequence": 4294967295
    },
    {
      "txid": "5e237a1f99aa1c6804f4112ae15a2108135691add3407f9d05a41a0c246612ce",
      "vout": 0,
      "prevout": {
        "scriptpubkey": "5120f4971126bd3accc0141f27cf2974e25e7bbe40a47d72d9906edd224f78a5a306",
        "scriptpubkey_asm": "OP_PUSHNUM_1 OP_PUSHBYTES_32 f4971126bd3accc0141f27cf2974e25e7bbe40a47d72d9906edd224f78a5a306",
        "scriptpubkey_type": "v1_p2tr",
        "scriptpubkey_address": "bc1p7jt3zf4a8txvq9qlyl8jja8zteamus9y04ednyrwm53y77995vrq2gnttd",
        "value": 546
      },
      "scriptsig": "",
      "scriptsig_asm": "",
      "witness": [
        "fc8aa6e6ed886f2d1299eb0235bcdeabb57ca92805a3f827038b9adc01792b0a7d3822b19930634b3f6cbcb84fab292b3e0d7c0baa397cc88f366d97485c338c"
      ],
      "is_coinbase": false,
      "sequence": 4294967295
    },
    {
      "txid": "947d30f5e1eff74f74e5d95d806e670ea7b652522f588d319c99a0adf750cb7e",
      "vout": 0,
      "prevout": {
        "scriptpubkey": "5120f4971126bd3accc0141f27cf2974e25e7bbe40a47d72d9906edd224f78a5a306",
        "scriptpubkey_asm": "OP_PUSHNUM_1 OP_PUSHBYTES_32 f4971126bd3accc0141f27cf2974e25e7bbe40a47d72d9906edd224f78a5a306",
        "scriptpubkey_type": "v1_p2tr",
        "scriptpubkey_address": "bc1p7jt3zf4a8txvq9qlyl8jja8zteamus9y04ednyrwm53y77995vrq2gnttd",
        "value": 546
      },
      "scriptsig": "",
      "scriptsig_asm": "",
      "witness": [
        "9468c08c765ec9230a017ee092c4afe014b76122ceab05ee494aa9a1707de429e99dbd0f83275a040c8cde8aca2923d9477b1f0317363c535ef4e583f0f9ea4d"
      ],
      "is_coinbase": false,
      "sequence": 4294967295
    },
    {
      "txid": "725c8d3154258d7bd0380352c3d9759fd714553abaede0224ba310f3922518fb",
      "vout": 0,
      "prevout": {
        "scriptpubkey": "5120f4971126bd3accc0141f27cf2974e25e7bbe40a47d72d9906edd224f78a5a306",
        "scriptpubkey_asm": "OP_PUSHNUM_1 OP_PUSHBYTES_32 f4971126bd3accc0141f27cf2974e25e7bbe40a47d72d9906edd224f78a5a306",
        "scriptpubkey_type": "v1_p2tr",
        "scriptpubkey_address": "bc1p7jt3zf4a8txvq9qlyl8jja8zteamus9y04ednyrwm53y77995vrq2gnttd",
        "value": 546
      },
      "scriptsig": "",
      "scriptsig_asm": "",
      "witness": [
        "414497252aba0adca32808c1c62a92b4edaacd9d3f00ebc85a2462c8011563a1c146882af178efe3dafce57ebdaf829d5cb737c79a903e7833ba4c289bd279b8"
      ],
      "is_coinbase": false,
      "sequence": 4294967295
    },
    {
      "txid": "bec25807fbe2b8d36de2227649b0a8b30d79ad5f4e61b71e3e92279502ef6f33",
      "vout": 0,
      "prevout": {
        "scriptpubkey": "5120f4971126bd3accc0141f27cf2974e25e7bbe40a47d72d9906edd224f78a5a306",
        "scriptpubkey_asm": "OP_PUSHNUM_1 OP_PUSHBYTES_32 f4971126bd3accc0141f27cf2974e25e7bbe40a47d72d9906edd224f78a5a306",
        "scriptpubkey_type": "v1_p2tr",
        "scriptpubkey_address": "bc1p7jt3zf4a8txvq9qlyl8jja8zteamus9y04ednyrwm53y77995vrq2gnttd",
        "value": 546
      },
      "scriptsig": "",
      "scriptsig_asm": "",
      "witness": [
        "eaf9d7ed2c827f9b5b32ee88b46f0f88ef9c20581cf8ff79470ac93e449c967760c84913cbdd684fe19976326c91d5d350c017575f977a68d287b58c6b8ee81e"
      ],
      "is_coinbase": false,
      "sequence": 4294967295
    },
    {
      "txid": "30e70709319896f7fd75d2c6cc940b74e3efb7d48f279f39fb644cda2dcf04d0",
      "vout": 0,
      "prevout": {
        "scriptpubkey": "5120f4971126bd3accc0141f27cf2974e25e7bbe40a47d72d9906edd224f78a5a306",
        "scriptpubkey_asm": "OP_PUSHNUM_1 OP_PUSHBYTES_32 f4971126bd3accc0141f27cf2974e25e7bbe40a47d72d9906edd224f78a5a306",
        "scriptpubkey_type": "v1_p2tr",
        "scriptpubkey_address": "bc1p7jt3zf4a8txvq9qlyl8jja8zteamus9y04ednyrwm53y77995vrq2gnttd",
        "value": 546
      },
      "scriptsig": "",
      "scriptsig_asm": "",
      "witness": [
        "b650183cdd0be6ca9880e03ea387a94823cf017eda9d0356c9097f710e77e509f45b7a8717d3c21af1c1955f669c4744a496bac74ec6df6740617a88ef3b33bb"
      ],
      "is_coinbase": false,
      "sequence": 4294967295
    },
    {
      "txid": "d32452dc9434d24eeb4ac1086d9c51eda8704e2d92a0926832384349c7cd7c3a",
      "vout": 0,
      "prevout": {
        "scriptpubkey": "5120f4971126bd3accc0141f27cf2974e25e7bbe40a47d72d9906edd224f78a5a306",
        "scriptpubkey_asm": "OP_PUSHNUM_1 OP_PUSHBYTES_32 f4971126bd3accc0141f27cf2974e25e7bbe40a47d72d9906edd224f78a5a306",
        "scriptpubkey_type": "v1_p2tr",
        "scriptpubkey_address": "bc1p7jt3zf4a8txvq9qlyl8jja8zteamus9y04ednyrwm53y77995vrq2gnttd",
        "value": 546
      },
      "scriptsig": "",
      "scriptsig_asm": "",
      "witness": [
        "29cd99c133b8847deaf7f83b41d719ae3641349dcb003be51d715b0a8044bc47ae1df958befa15b758172deedd07f6b90c73dd6e9d0c3efc84d3869e473edf44"
      ],
      "is_coinbase": false,
      "sequence": 4294967295
    },
    {
      "txid": "127ae6cbafd858b6334dd5bd493f4ef7ec964a41092f493b773c64e8f1a30bcc",
      "vout": 0,
      "prevout": {
        "scriptpubkey": "5120f4971126bd3accc0141f27cf2974e25e7bbe40a47d72d9906edd224f78a5a306",
        "scriptpubkey_asm": "OP_PUSHNUM_1 OP_PUSHBYTES_32 f4971126bd3accc0141f27cf2974e25e7bbe40a47d72d9906edd224f78a5a306",
        "scriptpubkey_type": "v1_p2tr",
        "scriptpubkey_address": "bc1p7jt3zf4a8txvq9qlyl8jja8zteamus9y04ednyrwm53y77995vrq2gnttd",
        "value": 546
      },
      "scriptsig": "",
      "scriptsig_asm": "",
      "witness": [
        "1a912e311d8eba0c0acba8fe8da3903cafb982f7d37661f6812862cc867d2c8376e83dbf77e8f560a6e48dd7389c5a1a59b01afe878c088db80f0e26995b8eaa"
      ],
      "is_coinbase": false,
      "sequence": 4294967295
    },
    {
      "txid": "3a5b5226f1ecbfd737c79e5a2da49867ebac386e4700228dae98e491f14faeb6",
      "vout": 0,
      "prevout": {
        "scriptpubkey": "5120f4971126bd3accc0141f27cf2974e25e7bbe40a47d72d9906edd224f78a5a306",
        "scriptpubkey_asm": "OP_PUSHNUM_1 OP_PUSHBYTES_32 f4971126bd3accc0141f27cf2974e25e7bbe40a47d72d9906edd224f78a5a306",
        "scriptpubkey_type": "v1_p2tr",
        "scriptpubkey_address": "bc1p7jt3zf4a8txvq9qlyl8jja8zteamus9y04ednyrwm53y77995vrq2gnttd",
        "value": 546
      },
      "scriptsig": "",
      "scriptsig_asm": "",
      "witness": [
        "3232fbfbea0490b615968a94ffb15c3f36c7fb0e4e5d40c85893bb40cfd88130a164a155b8194b90a557be80b2111d915b9c89ae18ffff0239cab831a67caa64"
      ],
      "is_coinbase": false,
      "sequence": 4294967295
    },
    {
      "txid": "d86c8324940b36ade896f678bcb08fd87363ca8441d840798f1bef202a3fa01e",
      "vout": 0,
      "prevout": {
        "scriptpubkey": "5120f4971126bd3accc0141f27cf2974e25e7bbe40a47d72d9906edd224f78a5a306",
        "scriptpubkey_asm": "OP_PUSHNUM_1 OP_PUSHBYTES_32 f4971126bd3accc0141f27cf2974e25e7bbe40a47d72d9906edd224f78a5a306",
        "scriptpubkey_type": "v1_p2tr",
        "scriptpubkey_address": "bc1p7jt3zf4a8txvq9qlyl8jja8zteamus9y04ednyrwm53y77995vrq2gnttd",
        "value": 1359577
      },
      "scriptsig": "",
      "scriptsig_asm": "",
      "witness": [
        "7c3e5effd8f65fcea46c12602365fc218fe2eb7f46f936310c9087b94e5ff4f4fa255293786e9f45c3fd1a615d3b4e9139cdabe82af40af383e9c174e5023c47"
      ],
      "is_coinbase": false,
      "sequence": 4294967295
    }
  ],
  "vout": [
    {
      "scriptpubkey": "5120f4971126bd3accc0141f27cf2974e25e7bbe40a47d72d9906edd224f78a5a306",
      "scriptpubkey_asm": "OP_PUSHNUM_1 OP_PUSHBYTES_32 f4971126bd3accc0141f27cf2974e25e7bbe40a47d72d9906edd224f78a5a306",
      "scriptpubkey_type": "v1_p2tr",
      "scriptpubkey_address": "bc1p7jt3zf4a8txvq9qlyl8jja8zteamus9y04ednyrwm53y77995vrq2gnttd",
      "value": 1352284
    },
    {
      "scriptpubkey": "6a01520b0080c793db8f52809b2002",
      "scriptpubkey_asm": "OP_RETURN OP_PUSHBYTES_1 52 OP_PUSHBYTES_11 0080c793db8f52809b2002",
      "scriptpubkey_type": "op_return",
      "value": 0
    },
    {
      "scriptpubkey": "5120f4971126bd3accc0141f27cf2974e25e7bbe40a47d72d9906edd224f78a5a306",
      "scriptpubkey_asm": "OP_PUSHNUM_1 OP_PUSHBYTES_32 f4971126bd3accc0141f27cf2974e25e7bbe40a47d72d9906edd224f78a5a306",
      "scriptpubkey_type": "v1_p2tr",
      "scriptpubkey_address": "bc1p7jt3zf4a8txvq9qlyl8jja8zteamus9y04ednyrwm53y77995vrq2gnttd",
      "value": 546
    }
  ],
  "size": 2369,
  "weight": 5312,
  "fee": 17667,
  "status": {
    "confirmed": true,
    "block_height": 834460,
    "block_hash": "00000000000000000000484a79b643b2524bbce82e5d8a442013fa5b8905ed98",
    "block_time": 1710307468
  },
  "hex": "02000000000115f0b21107960cb1ac4bf6999e2209f351bf935632879ecdc78c4bb5c5669e89950000000000ffffffff1a3383fa7b89209b1d7dae1d748fb09bd134a10ca5eda4a0b0029aa800bd30b20000000000ffffffffe41f6edba8612be204445e30d37b665599e76d2be296f69e7b5f74f58ebcce470000000000ffffffff786c398b67b06b095185d22d10a82c2cfae2bc9bc6c16086814e4a26b843c7aa0000000000ffffffffb0d64f045a561389d86cdf27648f3c608d2a9ec44d651bc13af3659a45a810c70000000000ffffffff4735d413919ae50de93127c91ed57477d1badc2b5522aab6ad4ab2c3a2d420890000000000ffffffffe0c530104890f077cb4c39618683a76e09a3babb9f45c5e7ccbe3b6f050754200000000000ffffffff0602613737b27a0a6cfaf27b424320566bb1d2579a756a7df39f6fac7449e6de0000000000ffffffff529e1670ce3c03edadddf5b05a9c6cee0773d985c402fd8c6900dd864d4f8bcb0000000000ffffffff35f384025a75f9282025e9a0ef0d0cbc8a92089d2c05fb35b884c4f97504d99d0000000000ffffffff67448dffbd327ce4b2729f28f7a43d45d96f8d13e66c5d76c4d4840cb8921ff70000000000ffffffffa695b5d95dafb7256f644c4cf6e4ec31c1a0186124c33ddeb2e78e6288266a560000000000ffffffffce1266240c1aa4059d7f40d3ad91561308215ae12a11f404681caa991f7a235e0000000000ffffffff7ecb50f7ada0999c318d582f5252b6a70e676e805dd9e5744ff7efe1f5307d940000000000fffffffffb182592f310a34b22e0edba3a5514d79f75d9c3520338d07b8d2554318d5c720000000000ffffffff336fef029527923e1eb7614e5fad790db3a8b0497622e26dd3b8e2fb0758c2be0000000000ffffffffd004cf2dda4c64fb399f278fd4b7efe3740b94ccc6d275fdf79698310907e7300000000000ffffffff3a7ccdc7494338326892a0922d4e70a8ed519c6d08c14aeb4ed23494dc5224d30000000000ffffffffcc0ba3f1e8643c773b492f09414a96ecf74e3f49bdd54d33b658d8afcbe67a120000000000ffffffffb6ae4ff191e498ae8d2200476e38aceb6798a42d5a9ec737d7bfecf126525b3a0000000000ffffffff1ea03f2a20ef1b8f7940d84184ca6373d88fb0bc78f696e8ad360b9424836cd80000000000ffffffff035ca2140000000000225120f4971126bd3accc0141f27cf2974e25e7bbe40a47d72d9906edd224f78a5a30600000000000000000f6a01520b0080c793db8f52809b20022202000000000000225120f4971126bd3accc0141f27cf2974e25e7bbe40a47d72d9906edd224f78a5a3060140e67421201999dd63578dd80b225b9ba308b3cbcf8f2a36b9b1f7bf28fc77aa0ec8202b60172074ad40b98086410683a911fbe4d137f27b74d1f3cf84697f4405014047d66ea138a461822f19b906d216bbed4f19f658cd23f38eaa7f60de687177e77b016325fdbf82b12c1df10eabd11a4f2377312b7ab2dd3f13a163e4cb36c0d60140e50c2a061a2309eb2704d2d6e87128987205b4299e9c0f8cc3a69b46683c92f13019e2bf3a393a919c43cd14a16097fcceba37eb99ea500efbea7f3882326057014060d198945d9332044dbffeacee67619de960c7ca823b032be607672075ba9d1e3b4b3c34c5a13fb39612df37b1b42b004ada9e3f0fa265bbf7c0131416ffde0d014015d1071bd852b11a5e33f9c089f963d4104a11cfd7cb38324c7258be51d2a08adbc96ba682487dc4601d0cfe52f153af853f16b2714fccc9a64a9ebff549f3720140562ddd6857e110e302cfe936e86a82b2932f5e00ee3c22b8dd260976cd9fbeb5e3a902f05bca4f6ccd45ae6a727fa3ade52ac1fb35f37e3895c1bb19cd043cfa0140df83965d12a30c0155f58fcc9b86d5ed00ae8eb2f21478c34578f55634fd24149248b8ad33a33a6908c328b536a510fb3307152d279ad96c288a9f4c919e133d014045d8ca684a2ce5954a8a044b666669b3d1c73d0cfc53447addafaf19a8502830d51efebce26867436fd394a858305ae54515766e669c8794e878c0651c7bd906014005663f81567155d280b5ff6d88cbafbf056e0ae5865697bedcefb43c17c5662aeb24efa1d95d5e5685e50c9a0479522379b0dc53ce9d716d4342cc98889e5a2e01400c4f7e3fc42c7d4ae7edd0dce2d0d12320ffb7abe84069006b63ca1a9d005ef36e401af51f2f6fe36f89f11e3821285fec242b874bc9b727c041727008eef7e5014024885b07c68fd890d372b1ada0614c434c1144e142963a5c561b202d3417d8049a4ff5d3e3e2f2c536c65814b39545755ac996c890da1ec27655022d8022fb1201404e3a3b2f9dd2f34bf770d14a1d234b98946ae490850d1bc40edaf6a4e28d0c20dbfb267a41148a47902a9a784b30554c6919848090d89cf1e74648b50eca2cdc0140fc8aa6e6ed886f2d1299eb0235bcdeabb57ca92805a3f827038b9adc01792b0a7d3822b19930634b3f6cbcb84fab292b3e0d7c0baa397cc88f366d97485c338c01409468c08c765ec9230a017ee092c4afe014b76122ceab05ee494aa9a1707de429e99dbd0f83275a040c8cde8aca2923d9477b1f0317363c535ef4e583f0f9ea4d0140414497252aba0adca32808c1c62a92b4edaacd9d3f00ebc85a2462c8011563a1c146882af178efe3dafce57ebdaf829d5cb737c79a903e7833ba4c289bd279b80140eaf9d7ed2c827f9b5b32ee88b46f0f88ef9c20581cf8ff79470ac93e449c967760c84913cbdd684fe19976326c91d5d350c017575f977a68d287b58c6b8ee81e0140b650183cdd0be6ca9880e03ea387a94823cf017eda9d0356c9097f710e77e509f45b7a8717d3c21af1c1955f669c4744a496bac74ec6df6740617a88ef3b33bb014029cd99c133b8847deaf7f83b41d719ae3641349dcb003be51d715b0a8044bc47ae1df958befa15b758172deedd07f6b90c73dd6e9d0c3efc84d3869e473edf4401401a912e311d8eba0c0acba8fe8da3903cafb982f7d37661f6812862cc867d2c8376e83dbf77e8f560a6e48dd7389c5a1a59b01afe878c088db80f0e26995b8eaa01403232fbfbea0490b615968a94ffb15c3f36c7fb0e4e5d40c85893bb40cfd88130a164a155b8194b90a557be80b2111d915b9c89ae18ffff0239cab831a67caa6401407c3e5effd8f65fcea46c12602365fc218fe2eb7f46f936310c9087b94e5ff4f4fa255293786e9f45c3fd1a615d3b4e9139cdabe82af40af383e9c174e5023c4700000000"
}