{
  "txid": "b8db87983ed62dfd698dc432095e1611b2592e7b402b2ec97ad7ab501a58574f",
  "version": 2,
  "locktime": 0,
  "vin": [
    {
      "txid": "acc3ba00869acb582a3f2904ce3a11dd3779350ce234063fc7d0959246213364",
      "vout": 85,
      "prevout": {
        "scriptpubkey": "5120bf29890bc6f5a8b27509e860824b9623308983c84bf6f42702d2824ab9aaf5f2",
        "scriptpubkey_asm": "OP_PUSHNUM_1 OP_PUSHBYTES_32 bf29890bc6f5a8b27509e860824b9623308983c84bf6f42702d2824ab9aaf5f2",
        "scriptpubkey_type": "v1_p2tr",
        "scriptpubkey_address": "bc1phu5cjz7x7k5tyagfapsgyjukyvcgnq7gf0m0gfcz62py4wd27heq0ress6",
        "value": 1806
      },
      "scriptsig": "",
      "scriptsig_asm": "",
      "witness": [
        "0c3396d6b06050b7f614a1ea900714a071bc1ac993ee5841f221f0671bd295282c6822fa46b70ee62baf8fc4d1684fe5ecb4fbc14bd3f0bffdf1d5e5722d32be",
        "2092a9322acbc5da799f51b360efd688aaed5d488cdd03dbd130a01a6b38040eecac0063036f726401010a746578742f706c61696e00357b2270223a226272632d3230222c226f70223a226d696e74222c227469636b223a22646f6765222c22616d74223a2234323030227d68",
        "c092a9322acbc5da799f51b360efd688aaed5d488cdd03dbd130a01a6b38040eec"
      ],
      "is_coinbase": false,
      "sequence": 4261412863
    }
  ],
  "vout": [
    {
      "scriptpubkey": "00147a665de7a370f4c9b372ab1fae587500a5bcbdb4",
      "scriptpubkey_asm": "OP_0 OP_PUSHBYTES_20 7a665de7a370f4c9b372ab1fae587500a5bcbdb4",
      "scriptpubkey_type": "v0_p2wpkh",
      "scriptpubkey_address": "bc1q0fn9mearwr6vnvmj4v06ukr4qzjme0d565dzcx",
      "value": 294
    }
  ],
  "size": 294,
  "weight": 540,
  "fee": 1512,
  "status": {
    "confirmed": true,
    "block_height": 834460,
    "block_hash": "00000000000000000000484a79b643b2524bbce82e5d8a442013fa5b8905ed98",
    "block_time": 1710307468
  },
  "hex": "02000000000101643321469295d0c73f0634e20c357937dd113ace04293f2a58cb9a8600bac3ac5500000000fffffffd0126010000000000001600147a665de7a370f4c9b372ab1fae587500a5bcbdb403400c3396d6b06050b7f614a1ea900714a071bc1ac993ee5841f221f0671bd295282c6822fa46b70ee62baf8fc4d1684fe5ecb4fbc14bd3f0bffdf1d5e5722d32be6d2092a9322acbc5da799f51b360efd688aaed5d488cdd03dbd130a01a6b38040eecac0063036f726401010a746578742f706c61696e00357b2270223a226272632d3230222c226f70223a226d696e74222c227469636b223a22646f6765222c22616d74223a2234323030227d6821c092a9322acbc5da799f51b360efd688aaed5d488cdd03dbd130a01a6b38040eec00000000"
}