{
  "txid": "b8ed2ecaa7512a086403c68e050e027b596ee941f96c433a92b8574d664b5184",
  "version": 2,
  "locktime": 0,
  "vin": [
    {
      "txid": "b58bef51f4ecb967a0720de4ee4086e4013546e4b7985b1a84f8d45a9bfc3bdf",
      "vout": 3,
      "prevout": {
        "scriptpubkey": "a9149cd03e792c7004be9aa5005d46653f28268416db87",
        "scriptpubkey_asm": "OP_HASH160 OP_PUSHBYTES_20 9cd03e792c7004be9aa5005d46653f28268416db OP_EQUAL",
        "scriptpubkey_type": "p2sh",
        "scriptpubkey_address": "3FzAoX2s7GhrZUZR4WXs1CvTKUGd7Ze6YM",
        "value": 971768713
      },
      "scriptsig": "0047304402203adebb2c3a04ec7c070467040707051c93a8a84e1e58e0b5240c6da9e39b8f2002207663260ecd363efc4077147963b07a3e6ef9d7cc05fb99431eb52cbcc12f03eb01483045022100bbe73a1dd7cc3c2c4480cd902c56a9a20ebff907ce5ce467c4b2285966715f4a02206b6cdf54693ebeec00ca660275582c9d151ffb14b01b00b0dc7ad34343fb6bd2014c6952210395f33d5a959556ba6b57298066baf468c2e5ab3cc58ddaf7166f057fae1655a7210246aae217f1102dde12a7e77203f7114de07f0068cfb1a3d825fff4ca2266737621028ace79c534a3b5c482b6cc446ea20d757e88c516ec054ae31c7a47863864904853ae",
      "scriptsig_asm": "OP_0 OP_PUSHBYTES_71 304402203adebb2c3a04ec7c070467040707051c93a8a84e1e58e0b5240c6da9e39b8f2002207663260ecd363efc4077147963b07a3e6ef9d7cc05fb99431eb52cbcc12f03eb01 OP_PUSHBYTES_72 3045022100bbe73a1dd7cc3c2c4480cd902c56a9a20ebff907ce5ce467c4b2285966715f4a02206b6cdf54693ebeec00ca660275582c9d151ffb14b01b00b0dc7ad34343fb6bd201 OP_PUSHDATA1 52210395f33d5a959556ba6b57298066baf468c2e5ab3cc58ddaf7166f057fae1655a7210246aae217f1102dde12a7e77203f7114de07f0068cfb1a3d825fff4ca2266737621028ace79c534a3b5c482b6cc446ea20d757e88c516ec054ae31c7a47863864904853ae",
      "is_coinbase": false,
      "sequence": 4294967295,
      "inner_redeemscript_asm": "OP_PUSHNUM_2 OP_PUSHBYTES_33 0395f33d5a959556ba6b57298066baf468c2e5ab3cc58ddaf7166f057fae1655a7 OP_PUSHBYTES_33 0246aae217f1102dde12a7e77203f7114de07f0068cfb1a3d825fff4ca22667376 OP_PUSHBYTES_33 028ace79c534a3b5c482b6cc446ea20d757e88c516ec054ae31c7a478638649048 OP_PUSHNUM_3 OP_CHECKMULTISIG"
    }
  ],
  "vout": [
    {
      "scriptpubkey": "76a9144b32ca71cef4999b817b815180bf016f727726df88ac",
      "scriptpubkey_asm": "OP_DUP OP_HASH160 OP_PUSHBYTES_20 4b32ca71cef4999b817b815180bf016f727726df OP_EQUALVERIFY OP_CHECKSIG",
      "scriptpubkey_type": "p2pkh",
      "scriptpubkey_address": "17rcXPqyb6aKvKwts9osTLu1KtJ1GGWoxN",
      "value": 20560100
    },
    {
      "scriptpubkey": "76a914382723c58e116a2ca0301d204c7fed5055d4b19788ac",
      "scriptpubkey_asm": "OP_DUP OP_HASH160 OP_PUSHBYTES_20 382723c58e116a2ca0301d204c7fed5055d4b197 OP_EQUALVERIFY OP_CHECKSIG",
      "scriptpubkey_type": "p2pkh",
      "scriptpubkey_address": "167ujDhBfWeufy7RsQpw5YaMRxiHUcNcfR",
      "value": 4737297
    },
    {
      "scriptpubkey": "a9149cd03e792c7004be9aa5005d46653f28268416db87",
      "scriptpubkey_asm": "OP_HASH160 OP_PUSHBYTES_20 9cd03e792c7004be9aa5005d46653f28268416db OP_EQUAL",
      "scriptpubkey_type": "p2sh",
      "scriptpubkey_address": "3FzAoX2s7GhrZUZR4WXs1CvTKUGd7Ze6YM",
      "value": 946463347
    }
  ],
  "size": 406,
  "weight": 1624,
  "fee": 7969,
  "status": {
    "confirmed": true,
    "block_height": 834638,
    "block_hash": "000000000000000000025f742c626208ac87e0b7d15054abb4a19ca2d735a54e",
    "block_time": 1710405325
  },
  "hex": "0200000001df3bfc9b5ad4f8841a5b98b7e4463501e48640eee40d72a067b9ecf451ef8bb503000000fdfd000047304402203adebb2c3a04ec7c070467040707051c93a8a84e1e58e0b5240c6da9e39b8f2002207663260ecd363efc4077147963b07a3e6ef9d7cc05fb99431eb52cbcc12f03eb01483045022100bbe73a1dd7cc3c2c4480cd902c56a9a20ebff907ce5ce467c4b2285966715f4a02206b6cdf54693ebeec00ca660275582c9d151ffb14b01b00b0dc7ad34343fb6bd2014c6952210395f33d5a959556ba6b57298066baf468c2e5ab3cc58ddaf7166f057fae1655a7210246aae217f1102dde12a7e77203f7114de07f0068cfb1a3d825fff4ca2266737621028ace79c534a3b5c482b6cc446ea20d757e88c516ec054ae31c7a47863864904853aeffffffff03e4b83901000000001976a9144b32ca71cef4999b817b815180bf016f727726df88ac11494800000000001976a914382723c58e116a2ca0301d204c7fed5055d4b19788ac73e269380000000017a9149cd03e792c7004be9aa5005d46653f28268416db8700000000"
}