{
  "txid": "b8f18f00a6cc8e5677ac0315cb7fbad9c8bc7d2a743db76811bb51968cf4f360",
  "version": 2,
  "locktime": 0,
  "vin": [
    {
      "txid": "a9bea7cb3138b05d4b45c906256e47ff208d9fa61af82007dc805982ba5549dd",
      "vout": 0,
      "prevout": {
        "scriptpubkey": "512009388741768f94d811898a4a5b2aaaa9d3b57e4e2d7e5d10e9667af210fb3a6b",
        "scriptpubkey_asm": "OP_PUSHNUM_1 OP_PUSHBYTES_32 09388741768f94d811898a4a5b2aaaa9d3b57e4e2d7e5d10e9667af210fb3a6b",
        "scriptpubkey_type": "v1_p2tr",
        "scriptpubkey_address": "bc1ppyugwstk372dsyvf3f99k24248fm2ljw94l96y8fvea0yy8m8f4srnynen",
        "value": 4000
      },
      "scriptsig": "",
      "scriptsig_asm": "",
      "witness": [
        "bc3945883fcf02cb20150c68026aaf25bcdf1d18a8ded8ecb4951bbaf41c108a2553ca13c88430ac8967809de15c5e52b7365d6af0b8a7764ca8ac84d39bd214",
        "2050adb9e13bfa9cc308589ad0ae7c4c0a6d016506c68de40b16f1eba8e94df968ac0063036f7264010118746578742f706c61696e3b636861727365743d7574662d3800367b2270223a226272632d3230222c226f70223a227472616e73666572222c227469636b223a2234353938222c22616d74223a2231227d68",
        "c0cb2d388f28127e6d46824ba8ed17f57bca8076e9ca83685d52c201de029aefa3"
      ],
      "is_coinbase": false,
      "sequence": 4294967293
    }
  ],
  "vout": [
    {
      "scriptpubkey": "5120a1b67b0df1be190cc9dfe5fcc3a0c790ff042fb81cc849f2a80b311b0673b001",
      "scriptpubkey_asm": "OP_PUSHNUM_1 OP_PUSHBYTES_32 a1b67b0df1be190cc9dfe5fcc3a0c790ff042fb81cc849f2a80b311b0673b001",
      "scriptpubkey_type": "v1_p2tr",
      "scriptpubkey_address": "bc1p5xm8kr03hcvsejwluh7v8gx8jrlsgtacrnyynu4gpvc3kpnnkqqsml4cdf",
      "value": 330
    },
    {
      "scriptpubkey": "001483331af02893ee121bdb42ff06b61d4ad392d760",
      "scriptpubkey_asm": "OP_0 OP_PUSHBYTES_20 83331af02893ee121bdb42ff06b61d4ad392d760",
      "scriptpubkey_type": "v0_p2wpkh",
      "scriptpubkey_address": "bc1qsve34upgj0hpyx7mgtlsddsaftfe94mq5rqgtq",
      "value": 1122
    }
  ],
  "size": 352,
  "weight": 727,
  "fee": 2548,
  "status": {
    "confirmed": true,
    "block_height": 834464,
    "block_hash": "0000000000000000000177a0869a911a2b65c9bdcd5a8bcb02b68f305bee848e",
    "block_time": 1710308296
  },
  "hex": "02000000000101dd4955ba825980dc0720f81aa69f8d20ff476e2506c9454b5db03831cba7bea90000000000fdffffff024a01000000000000225120a1b67b0df1be190cc9dfe5fcc3a0c790ff042fb81cc849f2a80b311b0673b001620400000000000016001483331af02893ee121bdb42ff06b61d4ad392d7600340bc3945883fcf02cb20150c68026aaf25bcdf1d18a8ded8ecb4951bbaf41c108a2553ca13c88430ac8967809de15c5e52b7365d6af0b8a7764ca8ac84d39bd2147c2050adb9e13bfa9cc308589ad0ae7c4c0a6d016506c68de40b16f1eba8e94df968ac0063036f7264010118746578742f706c61696e3b636861727365743d7574662d3800367b2270223a226272632d3230222c226f70223a227472616e73666572222c227469636b223a2234353938222c22616d74223a2231227d6821c0cb2d388f28127e6d46824ba8ed17f57bca8076e9ca83685d52c201de029aefa300000000"
}