{
  "txid": "b8fe4fa529796a4180c3c2f5520f12898938f6fe29d41f6b5051dd47f7d937fc",
  "version": 1,
  "locktime": 0,
  "vin": [
    {
      "txid": "79d74f47cb057f57afee045c577a081133d51e28499990cd453486f1424bb81b",
      "vout": 0,
      "prevout": {
        "scriptpubkey": "5120ab0b4dfe83d6db57b8076efd92df1890769c42ede197acb0e071858090a23031",
        "scriptpubkey_asm": "OP_PUSHNUM_1 OP_PUSHBYTES_32 ab0b4dfe83d6db57b8076efd92df1890769c42ede197acb0e071858090a23031",
        "scriptpubkey_type": "v1_p2tr",
        "scriptpubkey_address": "bc1p4v95ml5r6md40wq8dm7e9hccjpmfcshduxt6ev8qwxzcpy9zxqcs6h24pw",
        "value": 2185
      },
      "scriptsig": "",
      "scriptsig_asm": "",
      "witness": [
        "8ba726226819817420d42ca7894f0d56e8737f6245b0381ff2e7fb516ba0da51c4e8709c0c3cea3f837f258474842f158cebb39481b9e7fe9d071c8c58aa9e56",
        "20237ecd2c14dcaba5f86f0c4d25fce00cc1db5e4f3f91700275e0c0000465d908ac0063036f726401010a746578742f706c61696e003b7b2270223a226272632d3230222c226f70223a227472616e73666572222c227469636b223a2223534543222c22616d74223a22313030303030227d68",
        "c0237ecd2c14dcaba5f86f0c4d25fce00cc1db5e4f3f91700275e0c0000465d908"
      ],
      "is_coinbase": false,
      "sequence": 4294967293
    }
  ],
  "vout": [
    {
      "scriptpubkey": "5120a253de51ddc3779ec19d79ad84c50c4879963d98e1e9d1c5edbe39c7072e86b8",
      "scriptpubkey_asm": "OP_PUSHNUM_1 OP_PUSHBYTES_32 a253de51ddc3779ec19d79ad84c50c4879963d98e1e9d1c5edbe39c7072e86b8",
      "scriptpubkey_type": "v1_p2tr",
      "scriptpubkey_address": "bc1p5ffau5wacdmeasva0xkcf3gvfpuev0vcu85ar30dhcuuwpews6uq2xcgq7",
      "value": 546
    }
  ],
  "size": 312,
  "weight": 594,
  "fee": 1639,
  "status": {
    "confirmed": true,
    "block_height": 834464,
    "block_hash": "0000000000000000000177a0869a911a2b65c9bdcd5a8bcb02b68f305bee848e",
    "block_time": 1710308296
  },
  "hex": "010000000001011bb84b42f1863445cd909949281ed53311087a575c04eeaf577f05cb474fd7790000000000fdffffff012202000000000000225120a253de51ddc3779ec19d79ad84c50c4879963d98e1e9d1c5edbe39c7072e86b803408ba726226819817420d42ca7894f0d56e8737f6245b0381ff2e7fb516ba0da51c4e8709c0c3cea3f837f258474842f158cebb39481b9e7fe9d071c8c58aa9e567320237ecd2c14dcaba5f86f0c4d25fce00cc1db5e4f3f91700275e0c0000465d908ac0063036f726401010a746578742f706c61696e003b7b2270223a226272632d3230222c226f70223a227472616e73666572222c227469636b223a2223534543222c22616d74223a22313030303030227d6821c0237ecd2c14dcaba5f86f0c4d25fce00cc1db5e4f3f91700275e0c0000465d90800000000"
}