{
  "txid": "b90b1cccb6996b94c914e9aaa672393aa17309a77b77b1500fe92487b6c0da77",
  "version": 2,
  "locktime": 0,
  "vin": [
    {
      "txid": "9c10b007d2133e013cafef64d1faa7fec4afc4908ff78aa73222c05d55f4b3b4",
      "vout": 18,
      "prevout": {
        "scriptpubkey": "512056b7ea52fed258f4d3f5dc760a8fd18c6f9e90d6232859d6760a68fbc0910195",
        "scriptpubkey_asm": "OP_PUSHNUM_1 OP_PUSHBYTES_32 56b7ea52fed258f4d3f5dc760a8fd18c6f9e90d6232859d6760a68fbc0910195",
        "scriptpubkey_type": "v1_p2tr",
        "scriptpubkey_address": "bc1p26m755h76fv0f5l4m3mq4r7333heayxkyv59n4nkpf50hsy3qx2surscu3",
        "value": 3248
      },
      "scriptsig": "",
      "scriptsig_asm": "",
      "witness": [
        "78ca03f5931acb83d50b17bf9a5e4dcfedda6d23edd8403701fbda9c272e46567001ed6be9aa81a9fe118fd613fe8a85529b57d0c7fd53e4318a7bf858a0de6d",
        "206fc1389ed4e8a378db42c02a1ea2db8e6a21222da73fd2aac7e5294ddcaa0248ac0063036f726401011e6170706c69636174696f6e2f6a736f6e3b636861727365743d7574662d38004cd37b2270223a22706f772d3230222c226f70223a226d696e74222c227469636b223a2250455045222c22616d74223a2231303030222c22736f6c7574696f6e223a22504550453a62633170636a65387233733875656e746d64767a6e34777337786d3836367879707535756139357371796877756835616d61677565367a73707a733637713a303030303030303030303030303030303030303139393431613561653132383937363539383134343239323533333030353762306461393666336465613163353a3537393535313839313839227d68",
        "c13e1a296467c00ef4aae3d2c5b2725c238a71cd400892ce19de6d969e3f5bb91e"
      ],
      "is_coinbase": false,
      "sequence": 4294967295
    }
  ],
  "vout": [
    {
      "scriptpubkey": "5120c4b271c607e666bdb5829d5d0f1b67d68c40f29ce9690012eee5e9ddf51cce85",
      "scriptpubkey_asm": "OP_PUSHNUM_1 OP_PUSHBYTES_32 c4b271c607e666bdb5829d5d0f1b67d68c40f29ce9690012eee5e9ddf51cce85",
      "scriptpubkey_type": "v1_p2tr",
      "scriptpubkey_address": "bc1pcje8r3s8uentmdvzn4ws7xm866xypu5ua95sqyhwuh5amague6zspzs67q",
      "value": 546
    }
  ],
  "size": 487,
  "weight": 769,
  "fee": 2702,
  "status": {
    "confirmed": true,
    "block_height": 834460,
    "block_hash": "00000000000000000000484a79b643b2524bbce82e5d8a442013fa5b8905ed98",
    "block_time": 1710307468
  },
  "hex": "02000000000101b4b3f4555dc02232a78af78f90c4afc4fea7fad164efaf3c013e13d207b0109c1200000000ffffffff012202000000000000225120c4b271c607e666bdb5829d5d0f1b67d68c40f29ce9690012eee5e9ddf51cce85034078ca03f5931acb83d50b17bf9a5e4dcfedda6d23edd8403701fbda9c272e46567001ed6be9aa81a9fe118fd613fe8a85529b57d0c7fd53e4318a7bf858a0de6dfd2001206fc1389ed4e8a378db42c02a1ea2db8e6a21222da73fd2aac7e5294ddcaa0248ac0063036f726401011e6170706c69636174696f6e2f6a736f6e3b636861727365743d7574662d38004cd37b2270223a22706f772d3230222c226f70223a226d696e74222c227469636b223a2250455045222c22616d74223a2231303030222c22736f6c7574696f6e223a22504550453a62633170636a65387233733875656e746d64767a6e34777337786d3836367879707535756139357371796877756835616d61677565367a73707a733637713a303030303030303030303030303030303030303139393431613561653132383937363539383134343239323533333030353762306461393666336465613163353a3537393535313839313839227d6821c13e1a296467c00ef4aae3d2c5b2725c238a71cd400892ce19de6d969e3f5bb91e00000000"
}