{
  "txid": "b90c582f4030f83144dc7dca84bd87ab8bb4995828c3acb8cb81cb91f0204689",
  "version": 1,
  "locktime": 0,
  "vin": [
    {
      "txid": "1872765c6c98d6f90defafe7e4b9d08d67699b2eada5681d3cebcf28f49e274b",
      "vout": 2,
      "prevout": {
        "scriptpubkey": "00142d33763b267efd40fd909109a05fa87dc9f657ad",
        "scriptpubkey_asm": "OP_0 OP_PUSHBYTES_20 2d33763b267efd40fd909109a05fa87dc9f657ad",
        "scriptpubkey_type": "v0_p2wpkh",
        "scriptpubkey_address": "bc1q95ehvwex0m75plvsjyy6qhag0hylv4adj2qj4u",
        "value": 11920
      },
      "scriptsig": "",
      "scriptsig_asm": "",
      "witness": [
        "304402206be2ff9c7740cab3e770a1e3035288daae3ebc30e63e4bd9020b85df4ad5c58202204608d453c6ae87b5030912ebb337824f63eeccc224b44b9f58ff88516f69ff0601",
        "0257b169c21b751575627a22fd37f4e17bc3a2ba903ba878914b29b892efa18bc6"
      ],
      "is_coinbase": false,
      "sequence": 4294967285
    }
  ],
  "vout": [
    {
      "scriptpubkey": "5120517488a5f67bce152af3f893ba6b54a61a919e437fbc92ef2577ba49d3391096",
      "scriptpubkey_asm": "OP_PUSHNUM_1 OP_PUSHBYTES_32 517488a5f67bce152af3f893ba6b54a61a919e437fbc92ef2577ba49d3391096",
      "scriptpubkey_type": "v1_p2tr",
      "scriptpubkey_address": "bc1p296g3f0k008p22hnlzfm56655cdfr8jr077f9me9w7ayn5eezztqh0m6az",
      "value": 800
    },
    {
      "scriptpubkey": "512053a881b604ccbcb88d4b6c93a8ce5e003f98f7e0cb0910ac41cfc8f2dbe19279",
      "scriptpubkey_asm": "OP_PUSHNUM_1 OP_PUSHBYTES_32 53a881b604ccbcb88d4b6c93a8ce5e003f98f7e0cb0910ac41cfc8f2dbe19279",
      "scriptpubkey_type": "v1_p2tr",
      "scriptpubkey_address": "bc1p2w5grdsyej7t3r2tdjf63nj7qqle3alqevy3ptzpely09klpjfus0yptst",
      "value": 4082
    },
    {
      "scriptpubkey": "00142d33763b267efd40fd909109a05fa87dc9f657ad",
      "scriptpubkey_asm": "OP_0 OP_PUSHBYTES_20 2d33763b267efd40fd909109a05fa87dc9f657ad",
      "scriptpubkey_type": "v0_p2wpkh",
      "scriptpubkey_address": "bc1q95ehvwex0m75plvsjyy6qhag0hylv4adj2qj4u",
      "value": 1942
    }
  ],
  "size": 277,
  "weight": 781,
  "fee": 5096,
  "status": {
    "confirmed": true,
    "block_height": 834638,
    "block_hash": "000000000000000000025f742c626208ac87e0b7d15054abb4a19ca2d735a54e",
    "block_time": 1710405325
  },
  "hex": "010000000001014b279ef428cfeb3c1d68a5ad2e9b69678dd0b9e4e7afef0df9d6986c5c7672180200000000f5ffffff032003000000000000225120517488a5f67bce152af3f893ba6b54a61a919e437fbc92ef2577ba49d3391096f20f00000000000022512053a881b604ccbcb88d4b6c93a8ce5e003f98f7e0cb0910ac41cfc8f2dbe1927996070000000000001600142d33763b267efd40fd909109a05fa87dc9f657ad0247304402206be2ff9c7740cab3e770a1e3035288daae3ebc30e63e4bd9020b85df4ad5c58202204608d453c6ae87b5030912ebb337824f63eeccc224b44b9f58ff88516f69ff0601210257b169c21b751575627a22fd37f4e17bc3a2ba903ba878914b29b892efa18bc600000000"
}