{
  "txid": "b91771cda0cfc67f6ec936035613e56a680077a15fc263c19efe04ee10078489",
  "version": 2,
  "locktime": 0,
  "vin": [
    {
      "txid": "feb8d046b57107c77cd12332aeb71b27113ce258854a60971b63d784f263804a",
      "vout": 4,
      "prevout": {
        "scriptpubkey": "512093a26450a2daac1b796367ec9428d001df79e183d8fe0ea7f522d99a57cac898",
        "scriptpubkey_asm": "OP_PUSHNUM_1 OP_PUSHBYTES_32 93a26450a2daac1b796367ec9428d001df79e183d8fe0ea7f522d99a57cac898",
        "scriptpubkey_type": "v1_p2tr",
        "scriptpubkey_address": "bc1pjw3xg59zm2kpk7trvlkfg2xsq80hncvrmrlqafl4ytve5472ezvqmfmtf3",
        "value": 192800
      },
      "scriptsig": "",
      "scriptsig_asm": "",
      "witness": [
        "292bdb23406dfa053ae7f1f07173401c6986dd6d64999bdbaae42631975d6237286ad10a7903f611a9d5258a0aee341f593d733a3881eb56af99826579d692a0"
      ],
      "is_coinbase": false,
      "sequence": 4294967295
    }
  ],
  "vout": [
    {
      "scriptpubkey": "512093a26450a2daac1b796367ec9428d001df79e183d8fe0ea7f522d99a57cac898",
      "scriptpubkey_asm": "OP_PUSHNUM_1 OP_PUSHBYTES_32 93a26450a2daac1b796367ec9428d001df79e183d8fe0ea7f522d99a57cac898",
      "scriptpubkey_type": "v1_p2tr",
      "scriptpubkey_address": "bc1pjw3xg59zm2kpk7trvlkfg2xsq80hncvrmrlqafl4ytve5472ezvqmfmtf3",
      "value": 600
    },
    {
      "scriptpubkey": "512093a26450a2daac1b796367ec9428d001df79e183d8fe0ea7f522d99a57cac898",
      "scriptpubkey_asm": "OP_PUSHNUM_1 OP_PUSHBYTES_32 93a26450a2daac1b796367ec9428d001df79e183d8fe0ea7f522d99a57cac898",
      "scriptpubkey_type": "v1_p2tr",
      "scriptpubkey_address": "bc1pjw3xg59zm2kpk7trvlkfg2xsq80hncvrmrlqafl4ytve5472ezvqmfmtf3",
      "value": 600
    },
    {
      "scriptpubkey": "512093a26450a2daac1b796367ec9428d001df79e183d8fe0ea7f522d99a57cac898",
      "scriptpubkey_asm": "OP_PUSHNUM_1 OP_PUSHBYTES_32 93a26450a2daac1b796367ec9428d001df79e183d8fe0ea7f522d99a57cac898",
      "scriptpubkey_type": "v1_p2tr",
      "scriptpubkey_address": "bc1pjw3xg59zm2kpk7trvlkfg2xsq80hncvrmrlqafl4ytve5472ezvqmfmtf3",
      "value": 188645
    }
  ],
  "size": 248,
  "weight": 788,
  "fee": 2955,
  "status": {
    "confirmed": true,
    "block_height": 834638,
    "block_hash": "000000000000000000025f742c626208ac87e0b7d15054abb4a19ca2d735a54e",
    "block_time": 1710405325
  },
  "hex": "020000000001014a8063f284d7631b97604a8558e23c11271bb7ae3223d17cc70771b546d0b8fe0400000000ffffffff03580200000000000022512093a26450a2daac1b796367ec9428d001df79e183d8fe0ea7f522d99a57cac898580200000000000022512093a26450a2daac1b796367ec9428d001df79e183d8fe0ea7f522d99a57cac898e5e002000000000022512093a26450a2daac1b796367ec9428d001df79e183d8fe0ea7f522d99a57cac8980140292bdb23406dfa053ae7f1f07173401c6986dd6d64999bdbaae42631975d6237286ad10a7903f611a9d5258a0aee341f593d733a3881eb56af99826579d692a000000000"
}