{
  "txid": "b924aa5b2ac72f0688e0d2932e8d7e2a03e3ea438b4495c74d2d3fe756e4108b",
  "version": 1,
  "locktime": 0,
  "vin": [
    {
      "txid": "888888888bbcd8ebed5b2302e018eae1a271df1cd36d3c90b6c1d494e865e9c4",
      "vout": 0,
      "prevout": {
        "scriptpubkey": "5120b3ccead3791d872365400bd499421a731a049829fe4d4e51f09a55d5836f18ca",
        "scriptpubkey_asm": "OP_PUSHNUM_1 OP_PUSHBYTES_32 b3ccead3791d872365400bd499421a731a049829fe4d4e51f09a55d5836f18ca",
        "scriptpubkey_type": "v1_p2tr",
        "scriptpubkey_address": "bc1pk0xw45merkrjxe2qp02fjss6wvdqfxpflex5u50snf2atqm0rr9q67ruly",
        "value": 11781
      },
      "scriptsig": "",
      "scriptsig_asm": "",
      "witness": [
        "0cee18387c9faf7dafec55bf900606d637f49ea95dcc9495951644592882b05100e25438ddd7eb730540cd3de56d1403651fe75d8fff1178508fb9c0a229b769",
        "205673df2a4b56cef4788bc879c6a0441d98f389251d627d84907a05e44be65411ac00630461746f6d03646d7444a16461726773a46474696d651a65f0cd44656e6f6e63651912f968626974776f726b636b3838383838383838382e376b6d696e745f7469636b657268696e66696e69747968",
        "c05673df2a4b56cef4788bc879c6a0441d98f389251d627d84907a05e44be65411"
      ],
      "is_coinbase": false,
      "sequence": 1
    }
  ],
  "vout": [
    {
      "scriptpubkey": "5120ec1d23ca1d993f14656ffc92968d7aea7d929a134974587750ffc8eac219e55a",
      "scriptpubkey_asm": "OP_PUSHNUM_1 OP_PUSHBYTES_32 ec1d23ca1d993f14656ffc92968d7aea7d929a134974587750ffc8eac219e55a",
      "scriptpubkey_type": "v1_p2tr",
      "scriptpubkey_address": "bc1paswj8jsanyl3get0ljffdrt6af7e9xsnf969sa6sllyw4sseu4dq5dyztu",
      "value": 9999
    }
  ],
  "size": 312,
  "weight": 594,
  "fee": 1782,
  "status": {
    "confirmed": true,
    "block_height": 834460,
    "block_hash": "00000000000000000000484a79b643b2524bbce82e5d8a442013fa5b8905ed98",
    "block_time": 1710307468
  },
  "hex": "01000000000101c4e965e894d4c1b6903c6dd31cdf71a2e1ea18e002235bedebd8bc8b88888888000000000001000000010f27000000000000225120ec1d23ca1d993f14656ffc92968d7aea7d929a134974587750ffc8eac219e55a03400cee18387c9faf7dafec55bf900606d637f49ea95dcc9495951644592882b05100e25438ddd7eb730540cd3de56d1403651fe75d8fff1178508fb9c0a229b76973205673df2a4b56cef4788bc879c6a0441d98f389251d627d84907a05e44be65411ac00630461746f6d03646d7444a16461726773a46474696d651a65f0cd44656e6f6e63651912f968626974776f726b636b3838383838383838382e376b6d696e745f7469636b657268696e66696e6974796821c05673df2a4b56cef4788bc879c6a0441d98f389251d627d84907a05e44be6541100000000"
}