{
  "txid": "b9264d8578ef6bad18c4b8d2fc63abdc4202af2b0d932e6b0f867239b072e32f",
  "version": 1,
  "locktime": 0,
  "vin": [
    {
      "txid": "f44273b6721f9d47d939c51fa126d5289885ee4c8d3eecd56760027b87ffcd69",
      "vout": 1,
      "prevout": {
        "scriptpubkey": "0014688ceda4e6c6a148a77612dff84bfa13778bb12f",
        "scriptpubkey_asm": "OP_0 OP_PUSHBYTES_20 688ceda4e6c6a148a77612dff84bfa13778bb12f",
        "scriptpubkey_type": "v0_p2wpkh",
        "scriptpubkey_address": "bc1qdzxwmf8xc6s53fmkzt0lsjl6zdmchvf0dadyv4",
        "value": 609228
      },
      "scriptsig": "",
      "scriptsig_asm": "",
      "witness": [
        "3045022100d97f4548349d08ba7ebc722277febf4fd9da16d5d4152a54b4f38840fd6ec7fe02207eb6b3b68d21f850d20afce37de0b3410bf459199a326f9e453612e104a9459801",
        "0312d5747bf85376e68cf409e1ef999536eac2f22416503a5146b0aaf681d86477"
      ],
      "is_coinbase": false,
      "sequence": 4294967293
    }
  ],
  "vout": [
    {
      "scriptpubkey": "51205aba473de90922a46fb8ac178385bdbb9e65ae3be20bee948640fd6956063395",
      "scriptpubkey_asm": "OP_PUSHNUM_1 OP_PUSHBYTES_32 5aba473de90922a46fb8ac178385bdbb9e65ae3be20bee948640fd6956063395",
      "scriptpubkey_type": "v1_p2tr",
      "scriptpubkey_address": "bc1pt2ayw00fpy32gmac4stc8pdahw0xtt3mug97a9yxgr7kj4sxxw2scnv6kk",
      "value": 3263
    },
    {
      "scriptpubkey": "5120c414077999fbe8bc1367af5571971ddde7bc231e269f7ce953ecb407dfa4fa3a",
      "scriptpubkey_asm": "OP_PUSHNUM_1 OP_PUSHBYTES_32 c414077999fbe8bc1367af5571971ddde7bc231e269f7ce953ecb407dfa4fa3a",
      "scriptpubkey_type": "v1_p2tr",
      "scriptpubkey_address": "bc1pcs2qw7vel05tcym84a2hr9camhnmcgc7y60he62naj6q0haylgaqvuvpn2",
      "value": 3263
    },
    {
      "scriptpubkey": "512031ea8a44e755640a7a19aa6154c6344a8496f937903f32f22b7238c614de844a",
      "scriptpubkey_asm": "OP_PUSHNUM_1 OP_PUSHBYTES_32 31ea8a44e755640a7a19aa6154c6344a8496f937903f32f22b7238c614de844a",
      "scriptpubkey_type": "v1_p2tr",
      "scriptpubkey_address": "bc1px84g538824jq57se4fs4f335f2zfd7fhjqln9u3twguvv9x7s39q4y30u7",
      "value": 3263
    },
    {
      "scriptpubkey": "5120d78fd694e4b1036064c3339f1292b7cdcb8be122b35d1ed5656607449da6ac83",
      "scriptpubkey_asm": "OP_PUSHNUM_1 OP_PUSHBYTES_32 d78fd694e4b1036064c3339f1292b7cdcb8be122b35d1ed5656607449da6ac83",
      "scriptpubkey_type": "v1_p2tr",
      "scriptpubkey_address": "bc1p678ad98ykypkqexrxw039y4heh9chcfzkdw3a4t9vcr5f8dx4jpsm5fzmc",
      "value": 3263
    },
    {
      "scriptpubkey": "5120e031ddaafe3393ca6bda0c8dcc8846fc8bd8e0c2ac7b17ce90b010773f8e94c6",
      "scriptpubkey_asm": "OP_PUSHNUM_1 OP_PUSHBYTES_32 e031ddaafe3393ca6bda0c8dcc8846fc8bd8e0c2ac7b17ce90b010773f8e94c6",
      "scriptpubkey_type": "v1_p2tr",
      "scriptpubkey_address": "bc1puqcam2h7xwfu5676pjxuezzxlj9a3cxz43a30n5skqg8w0uwjnrq2g44ht",
      "value": 3263
    },
    {
      "scriptpubkey": "51209b57783ff38333b575f35634ba9795d28dddbe75b0e5fd582974df3b4f0fc37c",
      "scriptpubkey_asm": "OP_PUSHNUM_1 OP_PUSHBYTES_32 9b57783ff38333b575f35634ba9795d28dddbe75b0e5fd582974df3b4f0fc37c",
      "scriptpubkey_type": "v1_p2tr",
      "scriptpubkey_address": "bc1pndths0lnsvem2a0n2c6t49u462xam0n4krjl6kpfwn0nknc0cd7qmnxhf8",
      "value": 4354
    },
    {
      "scriptpubkey": "5120e50d741f352c5e8fce4ab12bb65c277f8b9663b1b419e341766e18ac953ca732",
      "scriptpubkey_asm": "OP_PUSHNUM_1 OP_PUSHBYTES_32 e50d741f352c5e8fce4ab12bb65c277f8b9663b1b419e341766e18ac953ca732",
      "scriptpubkey_type": "v1_p2tr",
      "scriptpubkey_address": "bc1pu5xhg8e4930glnj2ky4mvhp8079evca3ksv7xstkdcv2e9fu5ueqy2m6t6",
      "value": 9440
    },
    {
      "scriptpubkey": "5120e50d741f352c5e8fce4ab12bb65c277f8b9663b1b419e341766e18ac953ca732",
      "scriptpubkey_asm": "OP_PUSHNUM_1 OP_PUSHBYTES_32 e50d741f352c5e8fce4ab12bb65c277f8b9663b1b419e341766e18ac953ca732",
      "scriptpubkey_type": "v1_p2tr",
      "scriptpubkey_address": "bc1pu5xhg8e4930glnj2ky4mvhp8079evca3ksv7xstkdcv2e9fu5ueqy2m6t6",
      "value": 9440
    },
    {
      "scriptpubkey": "5120e50d741f352c5e8fce4ab12bb65c277f8b9663b1b419e341766e18ac953ca732",
      "scriptpubkey_asm": "OP_PUSHNUM_1 OP_PUSHBYTES_32 e50d741f352c5e8fce4ab12bb65c277f8b9663b1b419e341766e18ac953ca732",
      "scriptpubkey_type": "v1_p2tr",
      "scriptpubkey_address": "bc1pu5xhg8e4930glnj2ky4mvhp8079evca3ksv7xstkdcv2e9fu5ueqy2m6t6",
      "value": 9440
    },
    {
      "scriptpubkey": "5120e50d741f352c5e8fce4ab12bb65c277f8b9663b1b419e341766e18ac953ca732",
      "scriptpubkey_asm": "OP_PUSHNUM_1 OP_PUSHBYTES_32 e50d741f352c5e8fce4ab12bb65c277f8b9663b1b419e341766e18ac953ca732",
      "scriptpubkey_type": "v1_p2tr",
      "scriptpubkey_address": "bc1pu5xhg8e4930glnj2ky4mvhp8079evca3ksv7xstkdcv2e9fu5ueqy2m6t6",
      "value": 9440
    },
    {
      "scriptpubkey": "5120e50d741f352c5e8fce4ab12bb65c277f8b9663b1b419e341766e18ac953ca732",
      "scriptpubkey_asm": "OP_PUSHNUM_1 OP_PUSHBYTES_32 e50d741f352c5e8fce4ab12bb65c277f8b9663b1b419e341766e18ac953ca732",
      "scriptpubkey_type": "v1_p2tr",
      "scriptpubkey_address": "bc1pu5xhg8e4930glnj2ky4mvhp8079evca3ksv7xstkdcv2e9fu5ueqy2m6t6",
      "value": 9440
    },
    {
      "scriptpubkey": "0014688ceda4e6c6a148a77612dff84bfa13778bb12f",
      "scriptpubkey_asm": "OP_0 OP_PUSHBYTES_20 688ceda4e6c6a148a77612dff84bfa13778bb12f",
      "scriptpubkey_type": "v0_p2wpkh",
      "scriptpubkey_address": "bc1qdzxwmf8xc6s53fmkzt0lsjl6zdmchvf0dadyv4",
      "value": 530814
    }
  ],
  "size": 665,
  "weight": 2330,
  "fee": 10545,
  "status": {
    "confirmed": true,
    "block_height": 834638,
    "block_hash": "000000000000000000025f742c626208ac87e0b7d15054abb4a19ca2d735a54e",
    "block_time": 1710405325
  },
  "hex": "0100000000010169cdff877b026067d5ec3e8d4cee859828d526a11fc539d9479d1f72b67342f40100000000fdffffff0cbf0c0000000000002251205aba473de90922a46fb8ac178385bdbb9e65ae3be20bee948640fd6956063395bf0c000000000000225120c414077999fbe8bc1367af5571971ddde7bc231e269f7ce953ecb407dfa4fa3abf0c00000000000022512031ea8a44e755640a7a19aa6154c6344a8496f937903f32f22b7238c614de844abf0c000000000000225120d78fd694e4b1036064c3339f1292b7cdcb8be122b35d1ed5656607449da6ac83bf0c000000000000225120e031ddaafe3393ca6bda0c8dcc8846fc8bd8e0c2ac7b17ce90b010773f8e94c602110000000000002251209b57783ff38333b575f35634ba9795d28dddbe75b0e5fd582974df3b4f0fc37ce024000000000000225120e50d741f352c5e8fce4ab12bb65c277f8b9663b1b419e341766e18ac953ca732e024000000000000225120e50d741f352c5e8fce4ab12bb65c277f8b9663b1b419e341766e18ac953ca732e024000000000000225120e50d741f352c5e8fce4ab12bb65c277f8b9663b1b419e341766e18ac953ca732e024000000000000225120e50d741f352c5e8fce4ab12bb65c277f8b9663b1b419e341766e18ac953ca732e024000000000000225120e50d741f352c5e8fce4ab12bb65c277f8b9663b1b419e341766e18ac953ca7327e19080000000000160014688ceda4e6c6a148a77612dff84bfa13778bb12f02483045022100d97f4548349d08ba7ebc722277febf4fd9da16d5d4152a54b4f38840fd6ec7fe02207eb6b3b68d21f850d20afce37de0b3410bf459199a326f9e453612e104a9459801210312d5747bf85376e68cf409e1ef999536eac2f22416503a5146b0aaf681d8647700000000"
}