{
  "txid": "b92d43629219defe24fefc2eb7bf783716f9caab718b57891c446bb2fd8d22cb",
  "version": 2,
  "locktime": 0,
  "vin": [
    {
      "txid": "793da41718ee38da1fcda275a334857a494b4c580047a48f9dea9b3686dd3062",
      "vout": 5,
      "prevout": {
        "scriptpubkey": "5120d057d439e7b091b4e3a0f6bff7075534fa8e8ebd7f7b1017cd5723faea5918cd",
        "scriptpubkey_asm": "OP_PUSHNUM_1 OP_PUSHBYTES_32 d057d439e7b091b4e3a0f6bff7075534fa8e8ebd7f7b1017cd5723faea5918cd",
        "scriptpubkey_type": "v1_p2tr",
        "scriptpubkey_address": "bc1p6ptagw08kzgmfcaq76llwp64xnagar4a0aa3q97d2u3l46jerrxsmsh8y3",
        "value": 600
      },
      "scriptsig": "",
      "scriptsig_asm": "",
      "witness": [
        "5a72848cf16857eedf18a3a29e8036e64c251b75ddfcbfbb87a685c3858d424fb44d2bb508abb0e3500987af49e27785544c7dc48e00b5535133f86d4bea3ad9"
      ],
      "is_coinbase": false,
      "sequence": 4294967295
    },
    {
      "txid": "793da41718ee38da1fcda275a334857a494b4c580047a48f9dea9b3686dd3062",
      "vout": 1,
      "prevout": {
        "scriptpubkey": "5120d057d439e7b091b4e3a0f6bff7075534fa8e8ebd7f7b1017cd5723faea5918cd",
        "scriptpubkey_asm": "OP_PUSHNUM_1 OP_PUSHBYTES_32 d057d439e7b091b4e3a0f6bff7075534fa8e8ebd7f7b1017cd5723faea5918cd",
        "scriptpubkey_type": "v1_p2tr",
        "scriptpubkey_address": "bc1p6ptagw08kzgmfcaq76llwp64xnagar4a0aa3q97d2u3l46jerrxsmsh8y3",
        "value": 600
      },
      "scriptsig": "",
      "scriptsig_asm": "",
      "witness": [
        "5a7e69f1dccc93fb01b740cf69456ff2e2059cf4db504688970b3873574fc0ad52c8392b42d9de2c2f995bedc8beb4ded9f9312b3375734174bc468000aa2f92"
      ],
      "is_coinbase": false,
      "sequence": 4294967295
    },
    {
      "txid": "793da41718ee38da1fcda275a334857a494b4c580047a48f9dea9b3686dd3062",
      "vout": 8,
      "prevout": {
        "scriptpubkey": "5120d057d439e7b091b4e3a0f6bff7075534fa8e8ebd7f7b1017cd5723faea5918cd",
        "scriptpubkey_asm": "OP_PUSHNUM_1 OP_PUSHBYTES_32 d057d439e7b091b4e3a0f6bff7075534fa8e8ebd7f7b1017cd5723faea5918cd",
        "scriptpubkey_type": "v1_p2tr",
        "scriptpubkey_address": "bc1p6ptagw08kzgmfcaq76llwp64xnagar4a0aa3q97d2u3l46jerrxsmsh8y3",
        "value": 600
      },
      "scriptsig": "",
      "scriptsig_asm": "",
      "witness": [
        "74c7337281842cba17cd629a9fbe5e5c45634d96b9a6b2d827146ac0a76fa7600388d70f60d0150dd9f1776aa66dc051e57260f92260b1340ca12cabd1f64c63"
      ],
      "is_coinbase": false,
      "sequence": 4294967295
    },
    {
      "txid": "9cd51c2c4742f08ad41987b1c2fd5742f8ac77b81ff56509140c253ed718bad2",
      "vout": 1,
      "prevout": {
        "scriptpubkey": "5120d057d439e7b091b4e3a0f6bff7075534fa8e8ebd7f7b1017cd5723faea5918cd",
        "scriptpubkey_asm": "OP_PUSHNUM_1 OP_PUSHBYTES_32 d057d439e7b091b4e3a0f6bff7075534fa8e8ebd7f7b1017cd5723faea5918cd",
        "scriptpubkey_type": "v1_p2tr",
        "scriptpubkey_address": "bc1p6ptagw08kzgmfcaq76llwp64xnagar4a0aa3q97d2u3l46jerrxsmsh8y3",
        "value": 600
      },
      "scriptsig": "",
      "scriptsig_asm": "",
      "witness": [
        "ec041a56a3917362f39cb02516f4842460badd23f8005000605abf3dc8f9261e622cc67885c0f9e5692076afd5ef098212b97ab8af30026873e2cffe06a2e85c"
      ],
      "is_coinbase": false,
      "sequence": 4294967295
    },
    {
      "txid": "793da41718ee38da1fcda275a334857a494b4c580047a48f9dea9b3686dd3062",
      "vout": 7,
      "prevout": {
        "scriptpubkey": "5120d057d439e7b091b4e3a0f6bff7075534fa8e8ebd7f7b1017cd5723faea5918cd",
        "scriptpubkey_asm": "OP_PUSHNUM_1 OP_PUSHBYTES_32 d057d439e7b091b4e3a0f6bff7075534fa8e8ebd7f7b1017cd5723faea5918cd",
        "scriptpubkey_type": "v1_p2tr",
        "scriptpubkey_address": "bc1p6ptagw08kzgmfcaq76llwp64xnagar4a0aa3q97d2u3l46jerrxsmsh8y3",
        "value": 600
      },
      "scriptsig": "",
      "scriptsig_asm": "",
      "witness": [
        "015394b765a0a519b7ccbadc3a56efea2cce35bd7a4f5af032fcb3b76043647bad007216a5431cc2ca7d8465331975094c2293c526b0d1428180024a88a52f41"
      ],
      "is_coinbase": false,
      "sequence": 4294967295
    },
    {
      "txid": "793da41718ee38da1fcda275a334857a494b4c580047a48f9dea9b3686dd3062",
      "vout": 0,
      "prevout": {
        "scriptpubkey": "5120d057d439e7b091b4e3a0f6bff7075534fa8e8ebd7f7b1017cd5723faea5918cd",
        "scriptpubkey_asm": "OP_PUSHNUM_1 OP_PUSHBYTES_32 d057d439e7b091b4e3a0f6bff7075534fa8e8ebd7f7b1017cd5723faea5918cd",
        "scriptpubkey_type": "v1_p2tr",
        "scriptpubkey_address": "bc1p6ptagw08kzgmfcaq76llwp64xnagar4a0aa3q97d2u3l46jerrxsmsh8y3",
        "value": 600
      },
      "scriptsig": "",
      "scriptsig_asm": "",
      "witness": [
        "b3969680c5e64ddf8661d5b6545bf2d1e088c98233e145881c8092c3daedb695e7fcc5461c7f0f5f21cc18ec72104117333228c99fb5689a8d34e002ae7389cf"
      ],
      "is_coinbase": false,
      "sequence": 4294967295
    },
    {
      "txid": "793da41718ee38da1fcda275a334857a494b4c580047a48f9dea9b3686dd3062",
      "vout": 4,
      "prevout": {
        "scriptpubkey": "5120d057d439e7b091b4e3a0f6bff7075534fa8e8ebd7f7b1017cd5723faea5918cd",
        "scriptpubkey_asm": "OP_PUSHNUM_1 OP_PUSHBYTES_32 d057d439e7b091b4e3a0f6bff7075534fa8e8ebd7f7b1017cd5723faea5918cd",
        "scriptpubkey_type": "v1_p2tr",
        "scriptpubkey_address": "bc1p6ptagw08kzgmfcaq76llwp64xnagar4a0aa3q97d2u3l46jerrxsmsh8y3",
        "value": 600
      },
      "scriptsig": "",
      "scriptsig_asm": "",
      "witness": [
        "fcf50a39ce7ff66a01a7edb070c4335785e9e3889fc3cd3721fd2964c30178a696aace90432c550885bad826d1fb1abe79b95ed03a3cec5a9eb68111e20625d3"
      ],
      "is_coinbase": false,
      "sequence": 4294967295
    },
    {
      "txid": "793da41718ee38da1fcda275a334857a494b4c580047a48f9dea9b3686dd3062",
      "vout": 6,
      "prevout": {
        "scriptpubkey": "5120d057d439e7b091b4e3a0f6bff7075534fa8e8ebd7f7b1017cd5723faea5918cd",
        "scriptpubkey_asm": "OP_PUSHNUM_1 OP_PUSHBYTES_32 d057d439e7b091b4e3a0f6bff7075534fa8e8ebd7f7b1017cd5723faea5918cd",
        "scriptpubkey_type": "v1_p2tr",
        "scriptpubkey_address": "bc1p6ptagw08kzgmfcaq76llwp64xnagar4a0aa3q97d2u3l46jerrxsmsh8y3",
        "value": 600
      },
      "scriptsig": "",
      "scriptsig_asm": "",
      "witness": [
        "10e095c5c44cd79c67407595afb3fe78a17d28d4b77598db7975c1de3f3d098651b3dfae1d861e0906f9f616d9933b88c69ef8faf0702fdc0ad18526615feaf1"
      ],
      "is_coinbase": false,
      "sequence": 4294967295
    },
    {
      "txid": "9cd51c2c4742f08ad41987b1c2fd5742f8ac77b81ff56509140c253ed718bad2",
      "vout": 4,
      "prevout": {
        "scriptpubkey": "5120d057d439e7b091b4e3a0f6bff7075534fa8e8ebd7f7b1017cd5723faea5918cd",
        "scriptpubkey_asm": "OP_PUSHNUM_1 OP_PUSHBYTES_32 d057d439e7b091b4e3a0f6bff7075534fa8e8ebd7f7b1017cd5723faea5918cd",
        "scriptpubkey_type": "v1_p2tr",
        "scriptpubkey_address": "bc1p6ptagw08kzgmfcaq76llwp64xnagar4a0aa3q97d2u3l46jerrxsmsh8y3",
        "value": 600
      },
      "scriptsig": "",
      "scriptsig_asm": "",
      "witness": [
        "4e3ea61cbdd87f377c5803aec54d573bf8e408db4efd97c196b1e7bf23a86cc678aa2009ac6353739b6a5589b388dbccf0be9ebb5c7938780bcd3133583693ea"
      ],
      "is_coinbase": false,
      "sequence": 4294967295
    },
    {
      "txid": "9cd51c2c4742f08ad41987b1c2fd5742f8ac77b81ff56509140c253ed718bad2",
      "vout": 6,
      "prevout": {
        "scriptpubkey": "5120d057d439e7b091b4e3a0f6bff7075534fa8e8ebd7f7b1017cd5723faea5918cd",
        "scriptpubkey_asm": "OP_PUSHNUM_1 OP_PUSHBYTES_32 d057d439e7b091b4e3a0f6bff7075534fa8e8ebd7f7b1017cd5723faea5918cd",
        "scriptpubkey_type": "v1_p2tr",
        "scriptpubkey_address": "bc1p6ptagw08kzgmfcaq76llwp64xnagar4a0aa3q97d2u3l46jerrxsmsh8y3",
        "value": 600
      },
      "scriptsig": "",
      "scriptsig_asm": "",
      "witness": [
        "70484f23583bd34f70b6a77c6476d96be03fc0dc825093b492043504b7e0bfc21d388dd533e0679151ff91b7b4d9eb9c49a8be1183985f338d9758c4a141b424"
      ],
      "is_coinbase": false,
      "sequence": 4294967295
    },
    {
      "txid": "793da41718ee38da1fcda275a334857a494b4c580047a48f9dea9b3686dd3062",
      "vout": 9,
      "prevout": {
        "scriptpubkey": "5120d057d439e7b091b4e3a0f6bff7075534fa8e8ebd7f7b1017cd5723faea5918cd",
        "scriptpubkey_asm": "OP_PUSHNUM_1 OP_PUSHBYTES_32 d057d439e7b091b4e3a0f6bff7075534fa8e8ebd7f7b1017cd5723faea5918cd",
        "scriptpubkey_type": "v1_p2tr",
        "scriptpubkey_address": "bc1p6ptagw08kzgmfcaq76llwp64xnagar4a0aa3q97d2u3l46jerrxsmsh8y3",
        "value": 600
      },
      "scriptsig": "",
      "scriptsig_asm": "",
      "witness": [
        "2b076f255b7c64283202f90134fe78e933db3ebd7a66d166b969d5a222d5508cc1baf1c1a95596c0963f56447b204a2465fc3edf018048d43b7a8a5edad87109"
      ],
      "is_coinbase": false,
      "sequence": 4294967295
    },
    {
      "txid": "53952fb0a58f38ae1283255b230287ac96304b3f27763b6bc74349831f7da697",
      "vout": 1,
      "prevout": {
        "scriptpubkey": "512077a00a57c50b61ed72032f74473692ec026d466d8b2a44e83867977340781720",
        "scriptpubkey_asm": "OP_PUSHNUM_1 OP_PUSHBYTES_32 77a00a57c50b61ed72032f74473692ec026d466d8b2a44e83867977340781720",
        "scriptpubkey_type": "v1_p2tr",
        "scriptpubkey_address": "bc1pw7sq5479pds76usr9a6ywd5jaspx63nd3v4yf6pcv7thxsrczusqemj9sv",
        "value": 546
      },
      "scriptsig": "",
      "scriptsig_asm": "",
      "witness": [
        "80b47864ea139e867dcada447e37f513f48725309da430d782e70f48d32918c5f65e5a93b79cc74b4157173419e0220bef63ce44e403a30069a839042a12cc0a83"
      ],
      "is_coinbase": false,
      "sequence": 4294967295
    },
    {
      "txid": "47c392ad6672b7b535d6ca5d218cb23bdba9ba2d0ae90af17e8b36721a711c55",
      "vout": 1,
      "prevout": {
        "scriptpubkey": "512002724dcb17624053ed1fc6a93c0f17c9c50e938a31620ed78887480b702aa4ae",
        "scriptpubkey_asm": "OP_PUSHNUM_1 OP_PUSHBYTES_32 02724dcb17624053ed1fc6a93c0f17c9c50e938a31620ed78887480b702aa4ae",
        "scriptpubkey_type": "v1_p2tr",
        "scriptpubkey_address": "bc1pqfeymjchvfq98mglc65ncrche8zsayu2x93qa4ugsayqkup25jhqgnl83f",
        "value": 546
      },
      "scriptsig": "",
      "scriptsig_asm": "",
      "witness": [
        "a13b47fb4c607366900f29f7413d7c43305134fb2d6a895342fef14e218034cd8a382add7aa3cd6cee54f72c7c11b1e7a3d7e60a5e20a6765df1d647e44d669c83"
      ],
      "is_coinbase": false,
      "sequence": 4294967295
    },
    {
      "txid": "7f5420deb8cf0d00ba720bcc0394893b00c0d3e8f84772e5c19716ce9cb34043",
      "vout": 9,
      "prevout": {
        "scriptpubkey": "512002724dcb17624053ed1fc6a93c0f17c9c50e938a31620ed78887480b702aa4ae",
        "scriptpubkey_asm": "OP_PUSHNUM_1 OP_PUSHBYTES_32 02724dcb17624053ed1fc6a93c0f17c9c50e938a31620ed78887480b702aa4ae",
        "scriptpubkey_type": "v1_p2tr",
        "scriptpubkey_address": "bc1pqfeymjchvfq98mglc65ncrche8zsayu2x93qa4ugsayqkup25jhqgnl83f",
        "value": 1000
      },
      "scriptsig": "",
      "scriptsig_asm": "",
      "witness": [
        "d6cc996a9cbb932d1da5e24d74dfe5991d069830f9cb3afab9bfeae306cd76ed2cd644af70da24fb610f30b6ebecbbaf49ee33b686e4326a43b5f9344e19d25f83"
      ],
      "is_coinbase": false,
      "sequence": 4294967295
    },
    {
      "txid": "036d23db2d60d1e619b04a11d94bacb7bd354ee0c5d183ab74ffc6f1be8b9725",
      "vout": 4,
      "prevout": {
        "scriptpubkey": "512002724dcb17624053ed1fc6a93c0f17c9c50e938a31620ed78887480b702aa4ae",
        "scriptpubkey_asm": "OP_PUSHNUM_1 OP_PUSHBYTES_32 02724dcb17624053ed1fc6a93c0f17c9c50e938a31620ed78887480b702aa4ae",
        "scriptpubkey_type": "v1_p2tr",
        "scriptpubkey_address": "bc1pqfeymjchvfq98mglc65ncrche8zsayu2x93qa4ugsayqkup25jhqgnl83f",
        "value": 546
      },
      "scriptsig": "",
      "scriptsig_asm": "",
      "witness": [
        "f1dfa9e924daf54dbc2a208fa61cf55e84ff5422cc19d8e6e23d6a0f3b63465c66e6d422e8fa21d3bf701044876124acf818e353617ef16f8a4a8dc2e589283d83"
      ],
      "is_coinbase": false,
      "sequence": 4294967295
    },
    {
      "txid": "7f5420deb8cf0d00ba720bcc0394893b00c0d3e8f84772e5c19716ce9cb34043",
      "vout": 13,
      "prevout": {
        "scriptpubkey": "512002724dcb17624053ed1fc6a93c0f17c9c50e938a31620ed78887480b702aa4ae",
        "scriptpubkey_asm": "OP_PUSHNUM_1 OP_PUSHBYTES_32 02724dcb17624053ed1fc6a93c0f17c9c50e938a31620ed78887480b702aa4ae",
        "scriptpubkey_type": "v1_p2tr",
        "scriptpubkey_address": "bc1pqfeymjchvfq98mglc65ncrche8zsayu2x93qa4ugsayqkup25jhqgnl83f",
        "value": 546
      },
      "scriptsig": "",
      "scriptsig_asm": "",
      "witness": [
        "52bdf498b95037fa9b1103f1dd652d27ff54dd93d108f7850c1e28331c00f4644c068691ea9ae026b8061f76fe2806d1a275fd421013af2adf0d2b788b28ddea83"
      ],
      "is_coinbase": false,
      "sequence": 4294967295
    },
    {
      "txid": "645b4837e52788c1db218cb0def581e9fb8e98c4359036358eee52562c769742",
      "vout": 2,
      "prevout": {
        "scriptpubkey": "512002724dcb17624053ed1fc6a93c0f17c9c50e938a31620ed78887480b702aa4ae",
        "scriptpubkey_asm": "OP_PUSHNUM_1 OP_PUSHBYTES_32 02724dcb17624053ed1fc6a93c0f17c9c50e938a31620ed78887480b702aa4ae",
        "scriptpubkey_type": "v1_p2tr",
        "scriptpubkey_address": "bc1pqfeymjchvfq98mglc65ncrche8zsayu2x93qa4ugsayqkup25jhqgnl83f",
        "value": 546
      },
      "scriptsig": "",
      "scriptsig_asm": "",
      "witness": [
        "5245acc8e1b7870467620f2b45d82d1cd272e9a8c144b3a6528bc5e1d2125e86f028b1aaf3e718783f5d42027c6bfe1b2547c36154a0a9e28c9b67c077ffb0a383"
      ],
      "is_coinbase": false,
      "sequence": 4294967295
    },
    {
      "txid": "036d23db2d60d1e619b04a11d94bacb7bd354ee0c5d183ab74ffc6f1be8b9725",
      "vout": 5,
      "prevout": {
        "scriptpubkey": "512002724dcb17624053ed1fc6a93c0f17c9c50e938a31620ed78887480b702aa4ae",
        "scriptpubkey_asm": "OP_PUSHNUM_1 OP_PUSHBYTES_32 02724dcb17624053ed1fc6a93c0f17c9c50e938a31620ed78887480b702aa4ae",
        "scriptpubkey_type": "v1_p2tr",
        "scriptpubkey_address": "bc1pqfeymjchvfq98mglc65ncrche8zsayu2x93qa4ugsayqkup25jhqgnl83f",
        "value": 546
      },
      "scriptsig": "",
      "scriptsig_asm": "",
      "witness": [
        "4b04cf0ae81fb8d2b7e46ff33165841ebc21ca73cedd7c324f6b3f3009ab2222ac18079a77f39f43440afda2eb28dd5f26e22a8bd5a3674d2bc88f0e8915adb683"
      ],
      "is_coinbase": false,
      "sequence": 4294967295
    },
    {
      "txid": "7f5420deb8cf0d00ba720bcc0394893b00c0d3e8f84772e5c19716ce9cb34043",
      "vout": 8,
      "prevout": {
        "scriptpubkey": "512002724dcb17624053ed1fc6a93c0f17c9c50e938a31620ed78887480b702aa4ae",
        "scriptpubkey_asm": "OP_PUSHNUM_1 OP_PUSHBYTES_32 02724dcb17624053ed1fc6a93c0f17c9c50e938a31620ed78887480b702aa4ae",
        "scriptpubkey_type": "v1_p2tr",
        "scriptpubkey_address": "bc1pqfeymjchvfq98mglc65ncrche8zsayu2x93qa4ugsayqkup25jhqgnl83f",
        "value": 546
      },
      "scriptsig": "",
      "scriptsig_asm": "",
      "witness": [
        "d340ff0e0feb24a2732800373b449598c02b2836e187e8ec31f373a0abaa33d0acca084ed970554792864f1a2f7c3004886be37dddd3444c29f7e97f1a9a3fa383"
      ],
      "is_coinbase": false,
      "sequence": 4294967295
    },
    {
      "txid": "e1521f2b3c6c939a2e49dc124813a561d1672d050c686d26f5c6e4ab9ff03c1f",
      "vout": 2,
      "prevout": {
        "scriptpubkey": "512002724dcb17624053ed1fc6a93c0f17c9c50e938a31620ed78887480b702aa4ae",
        "scriptpubkey_asm": "OP_PUSHNUM_1 OP_PUSHBYTES_32 02724dcb17624053ed1fc6a93c0f17c9c50e938a31620ed78887480b702aa4ae",
        "scriptpubkey_type": "v1_p2tr",
        "scriptpubkey_address": "bc1pqfeymjchvfq98mglc65ncrche8zsayu2x93qa4ugsayqkup25jhqgnl83f",
        "value": 546
      },
      "scriptsig": "",
      "scriptsig_asm": "",
      "witness": [
        "a26c8455b90af7d81f3c8a3ddb8a3a661d269dce02a1093541acce891b5336019e0b6427729a8df089b0416b319e3cf29091341c4ca25725fdf959f1943a700583"
      ],
      "is_coinbase": false,
      "sequence": 4294967295
    },
    {
      "txid": "7f5420deb8cf0d00ba720bcc0394893b00c0d3e8f84772e5c19716ce9cb34043",
      "vout": 1,
      "prevout": {
        "scriptpubkey": "512002724dcb17624053ed1fc6a93c0f17c9c50e938a31620ed78887480b702aa4ae",
        "scriptpubkey_asm": "OP_PUSHNUM_1 OP_PUSHBYTES_32 02724dcb17624053ed1fc6a93c0f17c9c50e938a31620ed78887480b702aa4ae",
        "scriptpubkey_type": "v1_p2tr",
        "scriptpubkey_address": "bc1pqfeymjchvfq98mglc65ncrche8zsayu2x93qa4ugsayqkup25jhqgnl83f",
        "value": 546
      },
      "scriptsig": "",
      "scriptsig_asm": "",
      "witness": [
        "db99eeec17815cc0adfc1a6429ce1984699b6861696b5f234cd8fbd1c6fa82227e10da734546e493f15959dc72a12d69400d25c825db0504c629f3e6a9ad5e3983"
      ],
      "is_coinbase": false,
      "sequence": 4294967295
    },
    {
      "txid": "9cd51c2c4742f08ad41987b1c2fd5742f8ac77b81ff56509140c253ed718bad2",
      "vout": 7,
      "prevout": {
        "scriptpubkey": "5120d057d439e7b091b4e3a0f6bff7075534fa8e8ebd7f7b1017cd5723faea5918cd",
        "scriptpubkey_asm": "OP_PUSHNUM_1 OP_PUSHBYTES_32 d057d439e7b091b4e3a0f6bff7075534fa8e8ebd7f7b1017cd5723faea5918cd",
        "scriptpubkey_type": "v1_p2tr",
        "scriptpubkey_address": "bc1p6ptagw08kzgmfcaq76llwp64xnagar4a0aa3q97d2u3l46jerrxsmsh8y3",
        "value": 4910149
      },
      "scriptsig": "",
      "scriptsig_asm": "",
      "witness": [
        "d0881ac824765a8c6bb73edfc10fe1b5dede470e3105ac32c0fed9af4dad8227123149b036199310413dc897feff42783ba0751b7401e423c22fdce0f6029b2b"
      ],
      "is_coinbase": false,
      "sequence": 4294967295
    }
  ],
  "vout": [
    {
      "scriptpubkey": "5120d057d439e7b091b4e3a0f6bff7075534fa8e8ebd7f7b1017cd5723faea5918cd",
      "scriptpubkey_asm": "OP_PUSHNUM_1 OP_PUSHBYTES_32 d057d439e7b091b4e3a0f6bff7075534fa8e8ebd7f7b1017cd5723faea5918cd",
      "scriptpubkey_type": "v1_p2tr",
      "scriptpubkey_address": "bc1p6ptagw08kzgmfcaq76llwp64xnagar4a0aa3q97d2u3l46jerrxsmsh8y3",
      "value": 6600
    },
    {
      "scriptpubkey": "5120d057d439e7b091b4e3a0f6bff7075534fa8e8ebd7f7b1017cd5723faea5918cd",
      "scriptpubkey_asm": "OP_PUSHNUM_1 OP_PUSHBYTES_32 d057d439e7b091b4e3a0f6bff7075534fa8e8ebd7f7b1017cd5723faea5918cd",
      "scriptpubkey_type": "v1_p2tr",
      "scriptpubkey_address": "bc1p6ptagw08kzgmfcaq76llwp64xnagar4a0aa3q97d2u3l46jerrxsmsh8y3",
      "value": 546
    },
    {
      "scriptpubkey": "5120d057d439e7b091b4e3a0f6bff7075534fa8e8ebd7f7b1017cd5723faea5918cd",
      "scriptpubkey_asm": "OP_PUSHNUM_1 OP_PUSHBYTES_32 d057d439e7b091b4e3a0f6bff7075534fa8e8ebd7f7b1017cd5723faea5918cd",
      "scriptpubkey_type": "v1_p2tr",
      "scriptpubkey_address": "bc1p6ptagw08kzgmfcaq76llwp64xnagar4a0aa3q97d2u3l46jerrxsmsh8y3",
      "value": 546
    },
    {
      "scriptpubkey": "5120d057d439e7b091b4e3a0f6bff7075534fa8e8ebd7f7b1017cd5723faea5918cd",
      "scriptpubkey_asm": "OP_PUSHNUM_1 OP_PUSHBYTES_32 d057d439e7b091b4e3a0f6bff7075534fa8e8ebd7f7b1017cd5723faea5918cd",
      "scriptpubkey_type": "v1_p2tr",
      "scriptpubkey_address": "bc1p6ptagw08kzgmfcaq76llwp64xnagar4a0aa3q97d2u3l46jerrxsmsh8y3",
      "value": 1000
    },
    {
      "scriptpubkey": "5120d057d439e7b091b4e3a0f6bff7075534fa8e8ebd7f7b1017cd5723faea5918cd",
      "scriptpubkey_asm": "OP_PUSHNUM_1 OP_PUSHBYTES_32 d057d439e7b091b4e3a0f6bff7075534fa8e8ebd7f7b1017cd5723faea5918cd",
      "scriptpubkey_type": "v1_p2tr",
      "scriptpubkey_address": "bc1p6ptagw08kzgmfcaq76llwp64xnagar4a0aa3q97d2u3l46jerrxsmsh8y3",
      "value": 546
    },
    {
      "scriptpubkey": "5120d057d439e7b091b4e3a0f6bff7075534fa8e8ebd7f7b1017cd5723faea5918cd",
      "scriptpubkey_asm": "OP_PUSHNUM_1 OP_PUSHBYTES_32 d057d439e7b091b4e3a0f6bff7075534fa8e8ebd7f7b1017cd5723faea5918cd",
      "scriptpubkey_type": "v1_p2tr",
      "scriptpubkey_address": "bc1p6ptagw08kzgmfcaq76llwp64xnagar4a0aa3q97d2u3l46jerrxsmsh8y3",
      "value": 546
    },
    {
      "scriptpubkey": "5120d057d439e7b091b4e3a0f6bff7075534fa8e8ebd7f7b1017cd5723faea5918cd",
      "scriptpubkey_asm": "OP_PUSHNUM_1 OP_PUSHBYTES_32 d057d439e7b091b4e3a0f6bff7075534fa8e8ebd7f7b1017cd5723faea5918cd",
      "scriptpubkey_type": "v1_p2tr",
      "scriptpubkey_address": "bc1p6ptagw08kzgmfcaq76llwp64xnagar4a0aa3q97d2u3l46jerrxsmsh8y3",
      "value": 546
    },
    {
      "scriptpubkey": "5120d057d439e7b091b4e3a0f6bff7075534fa8e8ebd7f7b1017cd5723faea5918cd",
      "scriptpubkey_asm": "OP_PUSHNUM_1 OP_PUSHBYTES_32 d057d439e7b091b4e3a0f6bff7075534fa8e8ebd7f7b1017cd5723faea5918cd",
      "scriptpubkey_type": "v1_p2tr",
      "scriptpubkey_address": "bc1p6ptagw08kzgmfcaq76llwp64xnagar4a0aa3q97d2u3l46jerrxsmsh8y3",
      "value": 546
    },
    {
      "scriptpubkey": "5120d057d439e7b091b4e3a0f6bff7075534fa8e8ebd7f7b1017cd5723faea5918cd",
      "scriptpubkey_asm": "OP_PUSHNUM_1 OP_PUSHBYTES_32 d057d439e7b091b4e3a0f6bff7075534fa8e8ebd7f7b1017cd5723faea5918cd",
      "scriptpubkey_type": "v1_p2tr",
      "scriptpubkey_address": "bc1p6ptagw08kzgmfcaq76llwp64xnagar4a0aa3q97d2u3l46jerrxsmsh8y3",
      "value": 546
    },
    {
      "scriptpubkey": "5120d057d439e7b091b4e3a0f6bff7075534fa8e8ebd7f7b1017cd5723faea5918cd",
      "scriptpubkey_asm": "OP_PUSHNUM_1 OP_PUSHBYTES_32 d057d439e7b091b4e3a0f6bff7075534fa8e8ebd7f7b1017cd5723faea5918cd",
      "scriptpubkey_type": "v1_p2tr",
      "scriptpubkey_address": "bc1p6ptagw08kzgmfcaq76llwp64xnagar4a0aa3q97d2u3l46jerrxsmsh8y3",
      "value": 546
    },
    {
      "scriptpubkey": "5120d057d439e7b091b4e3a0f6bff7075534fa8e8ebd7f7b1017cd5723faea5918cd",
      "scriptpubkey_asm": "OP_PUSHNUM_1 OP_PUSHBYTES_32 d057d439e7b091b4e3a0f6bff7075534fa8e8ebd7f7b1017cd5723faea5918cd",
      "scriptpubkey_type": "v1_p2tr",
      "scriptpubkey_address": "bc1p6ptagw08kzgmfcaq76llwp64xnagar4a0aa3q97d2u3l46jerrxsmsh8y3",
      "value": 546
    },
    {
      "scriptpubkey": "a9141be107920e745ba0f9e23b1f6d6665a6dc4e828f87",
      "scriptpubkey_asm": "OP_HASH160 OP_PUSHBYTES_20 1be107920e745ba0f9e23b1f6d6665a6dc4e828f OP_EQUAL",
      "scriptpubkey_type": "p2sh",
      "scriptpubkey_address": "34ERk3y5o49zRRLcjzhWqkqNZna7zFG6FR",
      "value": 295066
    },
    {
      "scriptpubkey": "512002724dcb17624053ed1fc6a93c0f17c9c50e938a31620ed78887480b702aa4ae",
      "scriptpubkey_asm": "OP_PUSHNUM_1 OP_PUSHBYTES_32 02724dcb17624053ed1fc6a93c0f17c9c50e938a31620ed78887480b702aa4ae",
      "scriptpubkey_type": "v1_p2tr",
      "scriptpubkey_address": "bc1pqfeymjchvfq98mglc65ncrche8zsayu2x93qa4ugsayqkup25jhqgnl83f",
      "value": 296061
    },
    {
      "scriptpubkey": "512002724dcb17624053ed1fc6a93c0f17c9c50e938a31620ed78887480b702aa4ae",
      "scriptpubkey_asm": "OP_PUSHNUM_1 OP_PUSHBYTES_32 02724dcb17624053ed1fc6a93c0f17c9c50e938a31620ed78887480b702aa4ae",
      "scriptpubkey_type": "v1_p2tr",
      "scriptpubkey_address": "bc1pqfeymjchvfq98mglc65ncrche8zsayu2x93qa4ugsayqkup25jhqgnl83f",
      "value": 296515
    },
    {
      "scriptpubkey": "512002724dcb17624053ed1fc6a93c0f17c9c50e938a31620ed78887480b702aa4ae",
      "scriptpubkey_asm": "OP_PUSHNUM_1 OP_PUSHBYTES_32 02724dcb17624053ed1fc6a93c0f17c9c50e938a31620ed78887480b702aa4ae",
      "scriptpubkey_type": "v1_p2tr",
      "scriptpubkey_address": "bc1pqfeymjchvfq98mglc65ncrche8zsayu2x93qa4ugsayqkup25jhqgnl83f",
      "value": 296061
    },
    {
      "scriptpubkey": "512002724dcb17624053ed1fc6a93c0f17c9c50e938a31620ed78887480b702aa4ae",
      "scriptpubkey_asm": "OP_PUSHNUM_1 OP_PUSHBYTES_32 02724dcb17624053ed1fc6a93c0f17c9c50e938a31620ed78887480b702aa4ae",
      "scriptpubkey_type": "v1_p2tr",
      "scriptpubkey_address": "bc1pqfeymjchvfq98mglc65ncrche8zsayu2x93qa4ugsayqkup25jhqgnl83f",
      "value": 296061
    },
    {
      "scriptpubkey": "512002724dcb17624053ed1fc6a93c0f17c9c50e938a31620ed78887480b702aa4ae",
      "scriptpubkey_asm": "OP_PUSHNUM_1 OP_PUSHBYTES_32 02724dcb17624053ed1fc6a93c0f17c9c50e938a31620ed78887480b702aa4ae",
      "scriptpubkey_type": "v1_p2tr",
      "scriptpubkey_address": "bc1pqfeymjchvfq98mglc65ncrche8zsayu2x93qa4ugsayqkup25jhqgnl83f",
      "value": 296061
    },
    {
      "scriptpubkey": "512002724dcb17624053ed1fc6a93c0f17c9c50e938a31620ed78887480b702aa4ae",
      "scriptpubkey_asm": "OP_PUSHNUM_1 OP_PUSHBYTES_32 02724dcb17624053ed1fc6a93c0f17c9c50e938a31620ed78887480b702aa4ae",
      "scriptpubkey_type": "v1_p2tr",
      "scriptpubkey_address": "bc1pqfeymjchvfq98mglc65ncrche8zsayu2x93qa4ugsayqkup25jhqgnl83f",
      "value": 296061
    },
    {
      "scriptpubkey": "512002724dcb17624053ed1fc6a93c0f17c9c50e938a31620ed78887480b702aa4ae",
      "scriptpubkey_asm": "OP_PUSHNUM_1 OP_PUSHBYTES_32 02724dcb17624053ed1fc6a93c0f17c9c50e938a31620ed78887480b702aa4ae",
      "scriptpubkey_type": "v1_p2tr",
      "scriptpubkey_address": "bc1pqfeymjchvfq98mglc65ncrche8zsayu2x93qa4ugsayqkup25jhqgnl83f",
      "value": 296061
    },
    {
      "scriptpubkey": "512002724dcb17624053ed1fc6a93c0f17c9c50e938a31620ed78887480b702aa4ae",
      "scriptpubkey_asm": "OP_PUSHNUM_1 OP_PUSHBYTES_32 02724dcb17624053ed1fc6a93c0f17c9c50e938a31620ed78887480b702aa4ae",
      "scriptpubkey_type": "v1_p2tr",
      "scriptpubkey_address": "bc1pqfeymjchvfq98mglc65ncrche8zsayu2x93qa4ugsayqkup25jhqgnl83f",
      "value": 296061
    },
    {
      "scriptpubkey": "512002724dcb17624053ed1fc6a93c0f17c9c50e938a31620ed78887480b702aa4ae",
      "scriptpubkey_asm": "OP_PUSHNUM_1 OP_PUSHBYTES_32 02724dcb17624053ed1fc6a93c0f17c9c50e938a31620ed78887480b702aa4ae",
      "scriptpubkey_type": "v1_p2tr",
      "scriptpubkey_address": "bc1pqfeymjchvfq98mglc65ncrche8zsayu2x93qa4ugsayqkup25jhqgnl83f",
      "value": 296061
    },
    {
      "scriptpubkey": "a914ea6b832a05c6ca578baa3836f3f25553d41068a587",
      "scriptpubkey_asm": "OP_HASH160 OP_PUSHBYTES_20 ea6b832a05c6ca578baa3836f3f25553d41068a5 OP_EQUAL",
      "scriptpubkey_type": "p2sh",
      "scriptpubkey_address": "3P4WqXDbSLRhzo2H6MT6YFbvBKBDPLbVtQ",
      "value": 74225
    },
    {
      "scriptpubkey": "5120d057d439e7b091b4e3a0f6bff7075534fa8e8ebd7f7b1017cd5723faea5918cd",
      "scriptpubkey_asm": "OP_PUSHNUM_1 OP_PUSHBYTES_32 d057d439e7b091b4e3a0f6bff7075534fa8e8ebd7f7b1017cd5723faea5918cd",
      "scriptpubkey_type": "v1_p2tr",
      "scriptpubkey_address": "bc1p6ptagw08kzgmfcaq76llwp64xnagar4a0aa3q97d2u3l46jerrxsmsh8y3",
      "value": 600
    },
    {
      "scriptpubkey": "5120d057d439e7b091b4e3a0f6bff7075534fa8e8ebd7f7b1017cd5723faea5918cd",
      "scriptpubkey_asm": "OP_PUSHNUM_1 OP_PUSHBYTES_32 d057d439e7b091b4e3a0f6bff7075534fa8e8ebd7f7b1017cd5723faea5918cd",
      "scriptpubkey_type": "v1_p2tr",
      "scriptpubkey_address": "bc1p6ptagw08kzgmfcaq76llwp64xnagar4a0aa3q97d2u3l46jerrxsmsh8y3",
      "value": 600
    },
    {
      "scriptpubkey": "5120d057d439e7b091b4e3a0f6bff7075534fa8e8ebd7f7b1017cd5723faea5918cd",
      "scriptpubkey_asm": "OP_PUSHNUM_1 OP_PUSHBYTES_32 d057d439e7b091b4e3a0f6bff7075534fa8e8ebd7f7b1017cd5723faea5918cd",
      "scriptpubkey_type": "v1_p2tr",
      "scriptpubkey_address": "bc1p6ptagw08kzgmfcaq76llwp64xnagar4a0aa3q97d2u3l46jerrxsmsh8y3",
      "value": 600
    },
    {
      "scriptpubkey": "5120d057d439e7b091b4e3a0f6bff7075534fa8e8ebd7f7b1017cd5723faea5918cd",
      "scriptpubkey_asm": "OP_PUSHNUM_1 OP_PUSHBYTES_32 d057d439e7b091b4e3a0f6bff7075534fa8e8ebd7f7b1017cd5723faea5918cd",
      "scriptpubkey_type": "v1_p2tr",
      "scriptpubkey_address": "bc1p6ptagw08kzgmfcaq76llwp64xnagar4a0aa3q97d2u3l46jerrxsmsh8y3",
      "value": 600
    },
    {
      "scriptpubkey": "5120d057d439e7b091b4e3a0f6bff7075534fa8e8ebd7f7b1017cd5723faea5918cd",
      "scriptpubkey_asm": "OP_PUSHNUM_1 OP_PUSHBYTES_32 d057d439e7b091b4e3a0f6bff7075534fa8e8ebd7f7b1017cd5723faea5918cd",
      "scriptpubkey_type": "v1_p2tr",
      "scriptpubkey_address": "bc1p6ptagw08kzgmfcaq76llwp64xnagar4a0aa3q97d2u3l46jerrxsmsh8y3",
      "value": 600
    },
    {
      "scriptpubkey": "5120d057d439e7b091b4e3a0f6bff7075534fa8e8ebd7f7b1017cd5723faea5918cd",
      "scriptpubkey_asm": "OP_PUSHNUM_1 OP_PUSHBYTES_32 d057d439e7b091b4e3a0f6bff7075534fa8e8ebd7f7b1017cd5723faea5918cd",
      "scriptpubkey_type": "v1_p2tr",
      "scriptpubkey_address": "bc1p6ptagw08kzgmfcaq76llwp64xnagar4a0aa3q97d2u3l46jerrxsmsh8y3",
      "value": 600
    },
    {
      "scriptpubkey": "5120d057d439e7b091b4e3a0f6bff7075534fa8e8ebd7f7b1017cd5723faea5918cd",
      "scriptpubkey_asm": "OP_PUSHNUM_1 OP_PUSHBYTES_32 d057d439e7b091b4e3a0f6bff7075534fa8e8ebd7f7b1017cd5723faea5918cd",
      "scriptpubkey_type": "v1_p2tr",
      "scriptpubkey_address": "bc1p6ptagw08kzgmfcaq76llwp64xnagar4a0aa3q97d2u3l46jerrxsmsh8y3",
      "value": 600
    },
    {
      "scriptpubkey": "5120d057d439e7b091b4e3a0f6bff7075534fa8e8ebd7f7b1017cd5723faea5918cd",
      "scriptpubkey_asm": "OP_PUSHNUM_1 OP_PUSHBYTES_32 d057d439e7b091b4e3a0f6bff7075534fa8e8ebd7f7b1017cd5723faea5918cd",
      "scriptpubkey_type": "v1_p2tr",
      "scriptpubkey_address": "bc1p6ptagw08kzgmfcaq76llwp64xnagar4a0aa3q97d2u3l46jerrxsmsh8y3",
      "value": 600
    },
    {
      "scriptpubkey": "5120d057d439e7b091b4e3a0f6bff7075534fa8e8ebd7f7b1017cd5723faea5918cd",
      "scriptpubkey_asm": "OP_PUSHNUM_1 OP_PUSHBYTES_32 d057d439e7b091b4e3a0f6bff7075534fa8e8ebd7f7b1017cd5723faea5918cd",
      "scriptpubkey_type": "v1_p2tr",
      "scriptpubkey_address": "bc1p6ptagw08kzgmfcaq76llwp64xnagar4a0aa3q97d2u3l46jerrxsmsh8y3",
      "value": 600
    },
    {
      "scriptpubkey": "5120d057d439e7b091b4e3a0f6bff7075534fa8e8ebd7f7b1017cd5723faea5918cd",
      "scriptpubkey_asm": "OP_PUSHNUM_1 OP_PUSHBYTES_32 d057d439e7b091b4e3a0f6bff7075534fa8e8ebd7f7b1017cd5723faea5918cd",
      "scriptpubkey_type": "v1_p2tr",
      "scriptpubkey_address": "bc1p6ptagw08kzgmfcaq76llwp64xnagar4a0aa3q97d2u3l46jerrxsmsh8y3",
      "value": 600
    },
    {
      "scriptpubkey": "5120d057d439e7b091b4e3a0f6bff7075534fa8e8ebd7f7b1017cd5723faea5918cd",
      "scriptpubkey_asm": "OP_PUSHNUM_1 OP_PUSHBYTES_32 d057d439e7b091b4e3a0f6bff7075534fa8e8ebd7f7b1017cd5723faea5918cd",
      "scriptpubkey_type": "v1_p2tr",
      "scriptpubkey_address": "bc1p6ptagw08kzgmfcaq76llwp64xnagar4a0aa3q97d2u3l46jerrxsmsh8y3",
      "value": 600
    },
    {
      "scriptpubkey": "5120d057d439e7b091b4e3a0f6bff7075534fa8e8ebd7f7b1017cd5723faea5918cd",
      "scriptpubkey_asm": "OP_PUSHNUM_1 OP_PUSHBYTES_32 d057d439e7b091b4e3a0f6bff7075534fa8e8ebd7f7b1017cd5723faea5918cd",
      "scriptpubkey_type": "v1_p2tr",
      "scriptpubkey_address": "bc1p6ptagw08kzgmfcaq76llwp64xnagar4a0aa3q97d2u3l46jerrxsmsh8y3",
      "value": 1828440
    }
  ],
  "size": 3816,
  "weight": 10872,
  "fee": 40815,
  "status": {
    "confirmed": true,
    "block_height": 834638,
    "block_hash": "000000000000000000025f742c626208ac87e0b7d15054abb4a19ca2d735a54e",
    "block_time": 1710405325
  },
  "hex": "020000000001166230dd86369bea9d8fa44700584c4b497a8534a375a2cd1fda38ee1817a43d790500000000ffffffff6230dd86369bea9d8fa44700584c4b497a8534a375a2cd1fda38ee1817a43d790100000000ffffffff6230dd86369bea9d8fa44700584c4b497a8534a375a2cd1fda38ee1817a43d790800000000ffffffffd2ba18d73e250c140965f51fb877acf84257fdc2b18719d48af042472c1cd59c0100000000ffffffff6230dd86369bea9d8fa44700584c4b497a8534a375a2cd1fda38ee1817a43d790700000000ffffffff6230dd86369bea9d8fa44700584c4b497a8534a375a2cd1fda38ee1817a43d790000000000ffffffff6230dd86369bea9d8fa44700584c4b497a8534a375a2cd1fda38ee1817a43d790400000000ffffffff6230dd86369bea9d8fa44700584c4b497a8534a375a2cd1fda38ee1817a43d790600000000ffffffffd2ba18d73e250c140965f51fb877acf84257fdc2b18719d48af042472c1cd59c0400000000ffffffffd2ba18d73e250c140965f51fb877acf84257fdc2b18719d48af042472c1cd59c0600000000ffffffff6230dd86369bea9d8fa44700584c4b497a8534a375a2cd1fda38ee1817a43d790900000000ffffffff97a67d1f834943c76b3b76273f4b3096ac8702235b258312ae388fa5b02f95530100000000ffffffff551c711a72368b7ef10ae90a2dbaa9db3bb28c215dcad635b5b77266ad92c3470100000000ffffffff4340b39cce1697c1e57247f8e8d3c0003b899403cc0b72ba000dcfb8de20547f0900000000ffffffff25978bbef1c6ff74ab83d1c5e04e35bdb7ac4bd9114ab019e6d1602ddb236d030400000000ffffffff4340b39cce1697c1e57247f8e8d3c0003b899403cc0b72ba000dcfb8de20547f0d00000000ffffffff4297762c5652ee8e35369035c4988efbe981f5deb08c21dbc18827e537485b640200000000ffffffff25978bbef1c6ff74ab83d1c5e04e35bdb7ac4bd9114ab019e6d1602ddb236d030500000000ffffffff4340b39cce1697c1e57247f8e8d3c0003b899403cc0b72ba000dcfb8de20547f0800000000ffffffff1f3cf09fabe4c6f5266d680c052d67d161a5134812dc492e9a936c3c2b1f52e10200000000ffffffff4340b39cce1697c1e57247f8e8d3c0003b899403cc0b72ba000dcfb8de20547f0100000000ffffffffd2ba18d73e250c140965f51fb877acf84257fdc2b18719d48af042472c1cd59c0700000000ffffffff22c819000000000000225120d057d439e7b091b4e3a0f6bff7075534fa8e8ebd7f7b1017cd5723faea5918cd2202000000000000225120d057d439e7b091b4e3a0f6bff7075534fa8e8ebd7f7b1017cd5723faea5918cd2202000000000000225120d057d439e7b091b4e3a0f6bff7075534fa8e8ebd7f7b1017cd5723faea5918cde803000000000000225120d057d439e7b091b4e3a0f6bff7075534fa8e8ebd7f7b1017cd5723faea5918cd2202000000000000225120d057d439e7b091b4e3a0f6bff7075534fa8e8ebd7f7b1017cd5723faea5918cd2202000000000000225120d057d439e7b091b4e3a0f6bff7075534fa8e8ebd7f7b1017cd5723faea5918cd2202000000000000225120d057d439e7b091b4e3a0f6bff7075534fa8e8ebd7f7b1017cd5723faea5918cd2202000000000000225120d057d439e7b091b4e3a0f6bff7075534fa8e8ebd7f7b1017cd5723faea5918cd2202000000000000225120d057d439e7b091b4e3a0f6bff7075534fa8e8ebd7f7b1017cd5723faea5918cd2202000000000000225120d057d439e7b091b4e3a0f6bff7075534fa8e8ebd7f7b1017cd5723faea5918cd2202000000000000225120d057d439e7b091b4e3a0f6bff7075534fa8e8ebd7f7b1017cd5723faea5918cd9a8004000000000017a9141be107920e745ba0f9e23b1f6d6665a6dc4e828f877d8404000000000022512002724dcb17624053ed1fc6a93c0f17c9c50e938a31620ed78887480b702aa4ae438604000000000022512002724dcb17624053ed1fc6a93c0f17c9c50e938a31620ed78887480b702aa4ae7d8404000000000022512002724dcb17624053ed1fc6a93c0f17c9c50e938a31620ed78887480b702aa4ae7d8404000000000022512002724dcb17624053ed1fc6a93c0f17c9c50e938a31620ed78887480b702aa4ae7d8404000000000022512002724dcb17624053ed1fc6a93c0f17c9c50e938a31620ed78887480b702aa4ae7d8404000000000022512002724dcb17624053ed1fc6a93c0f17c9c50e938a31620ed78887480b702aa4ae7d8404000000000022512002724dcb17624053ed1fc6a93c0f17c9c50e938a31620ed78887480b702aa4ae7d8404000000000022512002724dcb17624053ed1fc6a93c0f17c9c50e938a31620ed78887480b702aa4ae7d8404000000000022512002724dcb17624053ed1fc6a93c0f17c9c50e938a31620ed78887480b702aa4aef12101000000000017a914ea6b832a05c6ca578baa3836f3f25553d41068a5875802000000000000225120d057d439e7b091b4e3a0f6bff7075534fa8e8ebd7f7b1017cd5723faea5918cd5802000000000000225120d057d439e7b091b4e3a0f6bff7075534fa8e8ebd7f7b1017cd5723faea5918cd5802000000000000225120d057d439e7b091b4e3a0f6bff7075534fa8e8ebd7f7b1017cd5723faea5918cd5802000000000000225120d057d439e7b091b4e3a0f6bff7075534fa8e8ebd7f7b1017cd5723faea5918cd5802000000000000225120d057d439e7b091b4e3a0f6bff7075534fa8e8ebd7f7b1017cd5723faea5918cd5802000000000000225120d057d439e7b091b4e3a0f6bff7075534fa8e8ebd7f7b1017cd5723faea5918cd5802000000000000225120d057d439e7b091b4e3a0f6bff7075534fa8e8ebd7f7b1017cd5723faea5918cd5802000000000000225120d057d439e7b091b4e3a0f6bff7075534fa8e8ebd7f7b1017cd5723faea5918cd5802000000000000225120d057d439e7b091b4e3a0f6bff7075534fa8e8ebd7f7b1017cd5723faea5918cd5802000000000000225120d057d439e7b091b4e3a0f6bff7075534fa8e8ebd7f7b1017cd5723faea5918cd5802000000000000225120d057d439e7b091b4e3a0f6bff7075534fa8e8ebd7f7b1017cd5723faea5918cd58e61b0000000000225120d057d439e7b091b4e3a0f6bff7075534fa8e8ebd7f7b1017cd5723faea5918cd01405a72848cf16857eedf18a3a29e8036e64c251b75ddfcbfbb87a685c3858d424fb44d2bb508abb0e3500987af49e27785544c7dc48e00b5535133f86d4bea3ad901405a7e69f1dccc93fb01b740cf69456ff2e2059cf4db504688970b3873574fc0ad52c8392b42d9de2c2f995bedc8beb4ded9f9312b3375734174bc468000aa2f92014074c7337281842cba17cd629a9fbe5e5c45634d96b9a6b2d827146ac0a76fa7600388d70f60d0150dd9f1776aa66dc051e57260f92260b1340ca12cabd1f64c630140ec041a56a3917362f39cb02516f4842460badd23f8005000605abf3dc8f9261e622cc67885c0f9e5692076afd5ef098212b97ab8af30026873e2cffe06a2e85c0140015394b765a0a519b7ccbadc3a56efea2cce35bd7a4f5af032fcb3b76043647bad007216a5431cc2ca7d8465331975094c2293c526b0d1428180024a88a52f410140b3969680c5e64ddf8661d5b6545bf2d1e088c98233e145881c8092c3daedb695e7fcc5461c7f0f5f21cc18ec72104117333228c99fb5689a8d34e002ae7389cf0140fcf50a39ce7ff66a01a7edb070c4335785e9e3889fc3cd3721fd2964c30178a696aace90432c550885bad826d1fb1abe79b95ed03a3cec5a9eb68111e20625d3014010e095c5c44cd79c67407595afb3fe78a17d28d4b77598db7975c1de3f3d098651b3dfae1d861e0906f9f616d9933b88c69ef8faf0702fdc0ad18526615feaf101404e3ea61cbdd87f377c5803aec54d573bf8e408db4efd97c196b1e7bf23a86cc678aa2009ac6353739b6a5589b388dbccf0be9ebb5c7938780bcd3133583693ea014070484f23583bd34f70b6a77c6476d96be03fc0dc825093b492043504b7e0bfc21d388dd533e0679151ff91b7b4d9eb9c49a8be1183985f338d9758c4a141b42401402b076f255b7c64283202f90134fe78e933db3ebd7a66d166b969d5a222d5508cc1baf1c1a95596c0963f56447b204a2465fc3edf018048d43b7a8a5edad87109014180b47864ea139e867dcada447e37f513f48725309da430d782e70f48d32918c5f65e5a93b79cc74b4157173419e0220bef63ce44e403a30069a839042a12cc0a830141a13b47fb4c607366900f29f7413d7c43305134fb2d6a895342fef14e218034cd8a382add7aa3cd6cee54f72c7c11b1e7a3d7e60a5e20a6765df1d647e44d669c830141d6cc996a9cbb932d1da5e24d74dfe5991d069830f9cb3afab9bfeae306cd76ed2cd644af70da24fb610f30b6ebecbbaf49ee33b686e4326a43b5f9344e19d25f830141f1dfa9e924daf54dbc2a208fa61cf55e84ff5422cc19d8e6e23d6a0f3b63465c66e6d422e8fa21d3bf701044876124acf818e353617ef16f8a4a8dc2e589283d83014152bdf498b95037fa9b1103f1dd652d27ff54dd93d108f7850c1e28331c00f4644c068691ea9ae026b8061f76fe2806d1a275fd421013af2adf0d2b788b28ddea8301415245acc8e1b7870467620f2b45d82d1cd272e9a8c144b3a6528bc5e1d2125e86f028b1aaf3e718783f5d42027c6bfe1b2547c36154a0a9e28c9b67c077ffb0a38301414b04cf0ae81fb8d2b7e46ff33165841ebc21ca73cedd7c324f6b3f3009ab2222ac18079a77f39f43440afda2eb28dd5f26e22a8bd5a3674d2bc88f0e8915adb6830141d340ff0e0feb24a2732800373b449598c02b2836e187e8ec31f373a0abaa33d0acca084ed970554792864f1a2f7c3004886be37dddd3444c29f7e97f1a9a3fa3830141a26c8455b90af7d81f3c8a3ddb8a3a661d269dce02a1093541acce891b5336019e0b6427729a8df089b0416b319e3cf29091341c4ca25725fdf959f1943a7005830141db99eeec17815cc0adfc1a6429ce1984699b6861696b5f234cd8fbd1c6fa82227e10da734546e493f15959dc72a12d69400d25c825db0504c629f3e6a9ad5e39830140d0881ac824765a8c6bb73edfc10fe1b5dede470e3105ac32c0fed9af4dad8227123149b036199310413dc897feff42783ba0751b7401e423c22fdce0f6029b2b00000000"
}