{
  "txid": "b934d2aaa349df6167e7612c5cf5c7d9a4029555fd3f703745479c5e62b19abb",
  "version": 1,
  "locktime": 0,
  "vin": [
    {
      "txid": "e6c4ea862a5671ef8c74d5a5da17e1961b5cab44500ca00d1e6262cfc2ea45f3",
      "vout": 132,
      "prevout": {
        "scriptpubkey": "0014c09bb774a01156dff147396366ac94abb0cc5476",
        "scriptpubkey_asm": "OP_0 OP_PUSHBYTES_20 c09bb774a01156dff147396366ac94abb0cc5476",
        "scriptpubkey_type": "v0_p2wpkh",
        "scriptpubkey_address": "bc1qczdmwa9qz9tdlu28893kdty54wcvc4rkz6w4dj",
        "value": 41353
      },
      "scriptsig": "",
      "scriptsig_asm": "",
      "witness": [
        "304402203892f9860a9d6a84c35f76a63e646e58c6b30e2cc4ee4955f3965c4f88d6356702200a40ff90e89ae5a18d24ff8d7ac67cdc19c3e68b5ea2e55a2e32ffa60c996fe901",
        "03a099cc3fb4339fceaba775af41a597d38c52eeff674500590833c9d07ade643d"
      ],
      "is_coinbase": false,
      "sequence": 4294967293
    },
    {
      "txid": "b7abfb285b5439a389fe556fa9a8e44545929a8f432578a37a5afef08455d6b2",
      "vout": 137,
      "prevout": {
        "scriptpubkey": "0014c9abb1ca7e974515d92faf0ef2a3a0eb2319f852",
        "scriptpubkey_asm": "OP_0 OP_PUSHBYTES_20 c9abb1ca7e974515d92faf0ef2a3a0eb2319f852",
        "scriptpubkey_type": "v0_p2wpkh",
        "scriptpubkey_address": "bc1qex4mrjn7jaz3tkf04u809gaqav33n7zj483jhm",
        "value": 41346
      },
      "scriptsig": "",
      "scriptsig_asm": "",
      "witness": [
        "304402205a5a8ec788007763b230da5c32fc681022179a3ffd789925abfc3f628375d4aa02206a21ac5948ccd2307eaea3b606946627724f4d1c8545bccda77a2038ace1ce8501",
        "03482876b8048e73fff70041f79b46d112b1623d10cf45c96fc1ff3eb6233846e2"
      ],
      "is_coinbase": false,
      "sequence": 4294967293
    },
    {
      "txid": "c185e9f3a07a38dbcaacd6f0f4075f716327f8fb7dc51369b83f0cbedb54564d",
      "vout": 149,
      "prevout": {
        "scriptpubkey": "001401413e03d2b3b4df9a82cdad2c9478274801d347",
        "scriptpubkey_asm": "OP_0 OP_PUSHBYTES_20 01413e03d2b3b4df9a82cdad2c9478274801d347",
        "scriptpubkey_type": "v0_p2wpkh",
        "scriptpubkey_address": "bc1qq9qnuq7jkw6dlx5zekkje9rcyayqr568xcm9pz",
        "value": 41341
      },
      "scriptsig": "",
      "scriptsig_asm": "",
      "witness": [
        "304402202e3b623d215765a87f96c82eca504f9c69561c6296f580ed621c521a7e0b64c202202b03ff9fe0b98fb82e8efade86b731ba2a91977eed9722db61036af4008fa74a01",
        "039fb85a5fe3ee4d37444707d658a343edcca36e66204c2fe39b6c722848c659c1"
      ],
      "is_coinbase": false,
      "sequence": 4294967293
    },
    {
      "txid": "a5631f2d06f1b0cd00bdac11e74708b5c778595cd5b2b5a6fd36b11f290a2bdd",
      "vout": 19,
      "prevout": {
        "scriptpubkey": "0014ce352ebaef4cfa9b4df56a66953c9f9f822a7705",
        "scriptpubkey_asm": "OP_0 OP_PUSHBYTES_20 ce352ebaef4cfa9b4df56a66953c9f9f822a7705",
        "scriptpubkey_type": "v0_p2wpkh",
        "scriptpubkey_address": "bc1qec6jawh0fnafkn04dfnf20yln7pz5ac9fc82pl",
        "value": 41338
      },
      "scriptsig": "",
      "scriptsig_asm": "",
      "witness": [
        "3045022100af49138faacb1b1e5fbfd7dcf6193ab1a1e5b443ee0515451f27405e80c8fa03022001e042d0a4752fe5c0a6f0b9331e2c8c7510e6494c89de7baa70b4707a669abd01",
        "03e0903e3f364ed84472d46edc9f7ed253cdcedd31669e42a1c43c363dfb9beccc"
      ],
      "is_coinbase": false,
      "sequence": 4294967293
    },
    {
      "txid": "8fd6aba6edd4d471a8770d8569d62a16a096cdd1576df8028a647debaa34b487",
      "vout": 132,
      "prevout": {
        "scriptpubkey": "00145e6942db24f380969eb7419aa0d77cbc26cd22cc",
        "scriptpubkey_asm": "OP_0 OP_PUSHBYTES_20 5e6942db24f380969eb7419aa0d77cbc26cd22cc",
        "scriptpubkey_type": "v0_p2wpkh",
        "scriptpubkey_address": "bc1qte559key7wqfd84hgxd2p4muhsnv6gkvn6lgwr",
        "value": 41336
      },
      "scriptsig": "",
      "scriptsig_asm": "",
      "witness": [
        "3045022100944ab54f75f9a91bed7b03609c276f69e8856b7571ebc1d8f485d3f30922783f02202f0f62bb06a53ed022b27ea6017ae4a2789b1e6e5c843821fbc676260e91da6601",
        "0329c16219bf689f83b54bb75be524e358c2a1ff0617023a2415a8042aa546c920"
      ],
      "is_coinbase": false,
      "sequence": 4294967293
    },
    {
      "txid": "5d23abcb428119fc9d6980c27366015611900d6ff797ff5868adf43b59ec4ae7",
      "vout": 4,
      "prevout": {
        "scriptpubkey": "0014b6006b8a551cf47a563419a6178264705fdcfbeb",
        "scriptpubkey_asm": "OP_0 OP_PUSHBYTES_20 b6006b8a551cf47a563419a6178264705fdcfbeb",
        "scriptpubkey_type": "v0_p2wpkh",
        "scriptpubkey_address": "bc1qkcqxhzj4rn685435rxnp0qnywp0ae7ltlz25gh",
        "value": 41332
      },
      "scriptsig": "",
      "scriptsig_asm": "",
      "witness": [
        "304402204727b9dc48b872fa2091349905328f6bf7d3bffd304db71128d034a5fc3ecf6e02205b544e6055dcca54558f6830306f94559f35a340554f0220fb9308ddf1b9d01a01",
        "0213fec2d699045f051fae7c6fb4f9426dd59e6a0e676e1616e6f0dcd2d0aede6d"
      ],
      "is_coinbase": false,
      "sequence": 4294967293
    },
    {
      "txid": "771ba9cb4eca7f5278a2e6d9172dc54c7b37b05a7a145c621d041727a4e0f9be",
      "vout": 139,
      "prevout": {
        "scriptpubkey": "00142cee668db42c11a20007e2ecc1b116ca154d719b",
        "scriptpubkey_asm": "OP_0 OP_PUSHBYTES_20 2cee668db42c11a20007e2ecc1b116ca154d719b",
        "scriptpubkey_type": "v0_p2wpkh",
        "scriptpubkey_address": "bc1q9nhxdrd59sg6yqq8utkvrvgkeg256uvm5u6t8t",
        "value": 41330
      },
      "scriptsig": "",
      "scriptsig_asm": "",
      "witness": [
        "3045022100a68c8d9fd595fb039c3610dd84ab13a049d38d98162e43214952415f4f94a06702206a6bc564d29790311421c99330b8475cfd47a59b7c3ce0ebc686f298edfd51e401",
        "03f63aac14df15c1c913feb14815e525983a726a8bda7c08fc371f395a23e09a5a"
      ],
      "is_coinbase": false,
      "sequence": 4294967293
    }
  ],
  "vout": [
    {
      "scriptpubkey": "0014e89b0d0abff9bce47b4f1536b35b87c5a3257745",
      "scriptpubkey_asm": "OP_0 OP_PUSHBYTES_20 e89b0d0abff9bce47b4f1536b35b87c5a3257745",
      "scriptpubkey_type": "v0_p2wpkh",
      "scriptpubkey_address": "bc1qazds6z4llx7wg760z5mtxku8ck3j2a69pz50lm",
      "value": 273776
    }
  ],
  "size": 1082,
  "weight": 2066,
  "fee": 15600,
  "status": {
    "confirmed": true,
    "block_height": 834638,
    "block_hash": "000000000000000000025f742c626208ac87e0b7d15054abb4a19ca2d735a54e",
    "block_time": 1710405325
  },
  "hex": "01000000000107f345eac2cf62621e0da00c5044ab5c1b96e117daa5d5748cef71562a86eac4e68400000000fdffffffb2d65584f0fe5a7aa37825438f9a924545e4a8a96f55fe89a339545b28fbabb78900000000fdffffff4d5654dbbe0c3fb86913c57dfbf82763715f07f4f0d6accadb387aa0f3e985c19500000000fdffffffdd2b0a291fb136fda6b5b2d55c5978c7b50847e711acbd00cdb0f1062d1f63a51300000000fdffffff87b434aaeb7d648a02f86d57d1cd96a0162ad669850d77a871d4d4eda6abd68f8400000000fdffffffe74aec593bf4ad6858ff97f76f0d901156016673c280699dfc198142cbab235d0400000000fdffffffbef9e0a42717041d625c147a5ab0377b4cc52d17d9e6a278527fca4ecba91b778b00000000fdffffff01702d040000000000160014e89b0d0abff9bce47b4f1536b35b87c5a32577450247304402203892f9860a9d6a84c35f76a63e646e58c6b30e2cc4ee4955f3965c4f88d6356702200a40ff90e89ae5a18d24ff8d7ac67cdc19c3e68b5ea2e55a2e32ffa60c996fe9012103a099cc3fb4339fceaba775af41a597d38c52eeff674500590833c9d07ade643d0247304402205a5a8ec788007763b230da5c32fc681022179a3ffd789925abfc3f628375d4aa02206a21ac5948ccd2307eaea3b606946627724f4d1c8545bccda77a2038ace1ce85012103482876b8048e73fff70041f79b46d112b1623d10cf45c96fc1ff3eb6233846e20247304402202e3b623d215765a87f96c82eca504f9c69561c6296f580ed621c521a7e0b64c202202b03ff9fe0b98fb82e8efade86b731ba2a91977eed9722db61036af4008fa74a0121039fb85a5fe3ee4d37444707d658a343edcca36e66204c2fe39b6c722848c659c102483045022100af49138faacb1b1e5fbfd7dcf6193ab1a1e5b443ee0515451f27405e80c8fa03022001e042d0a4752fe5c0a6f0b9331e2c8c7510e6494c89de7baa70b4707a669abd012103e0903e3f364ed84472d46edc9f7ed253cdcedd31669e42a1c43c363dfb9beccc02483045022100944ab54f75f9a91bed7b03609c276f69e8856b7571ebc1d8f485d3f30922783f02202f0f62bb06a53ed022b27ea6017ae4a2789b1e6e5c843821fbc676260e91da6601210329c16219bf689f83b54bb75be524e358c2a1ff0617023a2415a8042aa546c9200247304402204727b9dc48b872fa2091349905328f6bf7d3bffd304db71128d034a5fc3ecf6e02205b544e6055dcca54558f6830306f94559f35a340554f0220fb9308ddf1b9d01a01210213fec2d699045f051fae7c6fb4f9426dd59e6a0e676e1616e6f0dcd2d0aede6d02483045022100a68c8d9fd595fb039c3610dd84ab13a049d38d98162e43214952415f4f94a06702206a6bc564d29790311421c99330b8475cfd47a59b7c3ce0ebc686f298edfd51e4012103f63aac14df15c1c913feb14815e525983a726a8bda7c08fc371f395a23e09a5a00000000"
}