{
  "txid": "b935bfbd37db1723740fe6f076e5bbf53ebbc1052888396723dfe8e2543dea40",
  "version": 2,
  "locktime": 834637,
  "vin": [
    {
      "txid": "bb3b87601a2cb367d2c70ce98552d7ceae1190be52de6afa7d6fca55d1a98e63",
      "vout": 0,
      "prevout": {
        "scriptpubkey": "0014f274b649a3f24136cc1d015b2a5132c3fc5e9f40",
        "scriptpubkey_asm": "OP_0 OP_PUSHBYTES_20 f274b649a3f24136cc1d015b2a5132c3fc5e9f40",
        "scriptpubkey_type": "v0_p2wpkh",
        "scriptpubkey_address": "bc1q7f6tvjdr7fqndnqaq9dj55fjc079a86qwrfjh8",
        "value": 256470204
      },
      "scriptsig": "",
      "scriptsig_asm": "",
      "witness": [
        "3044022012b323e526201265db80eefff4a0ef3d8abc641f34189fdb2ebe840a012a9a7302200f0758a753537d29806e0540ada497515b147a5a4f5483877055d5d8091891aa01",
        "022fa997c6c82fdeaa3e30eb5cfca6c4c64cc8fef385bc41e0ada69168e1fc2cf7"
      ],
      "is_coinbase": false,
      "sequence": 4294967294
    }
  ],
  "vout": [
    {
      "scriptpubkey": "76a914882906aaa9cca64ff477078c994c712c00121ea088ac",
      "scriptpubkey_asm": "OP_DUP OP_HASH160 OP_PUSHBYTES_20 882906aaa9cca64ff477078c994c712c00121ea0 OP_EQUALVERIFY OP_CHECKSIG",
      "scriptpubkey_type": "p2pkh",
      "scriptpubkey_address": "1DQx3dSYKNPyA9nu9npJNiJsFx5CZAigZY",
      "value": 2476400
    },
    {
      "scriptpubkey": "00143606635920d63fe8131339c57dbb935f42a61460",
      "scriptpubkey_asm": "OP_0 OP_PUSHBYTES_20 3606635920d63fe8131339c57dbb935f42a61460",
      "scriptpubkey_type": "v0_p2wpkh",
      "scriptpubkey_address": "bc1qxcrxxkfq6cl7sycn88zhmwuntap2v9rq56enq2",
      "value": 253990274
    }
  ],
  "size": 225,
  "weight": 573,
  "fee": 3530,
  "status": {
    "confirmed": true,
    "block_height": 834638,
    "block_hash": "000000000000000000025f742c626208ac87e0b7d15054abb4a19ca2d735a54e",
    "block_time": 1710405325
  },
  "hex": "02000000000101638ea9d155ca6f7dfa6ade52be9011aeced75285e90cc7d267b32c1a60873bbb0000000000feffffff0270c92500000000001976a914882906aaa9cca64ff477078c994c712c00121ea088ac8295230f000000001600143606635920d63fe8131339c57dbb935f42a6146002473044022012b323e526201265db80eefff4a0ef3d8abc641f34189fdb2ebe840a012a9a7302200f0758a753537d29806e0540ada497515b147a5a4f5483877055d5d8091891aa0121022fa997c6c82fdeaa3e30eb5cfca6c4c64cc8fef385bc41e0ada69168e1fc2cf74dbc0c00"
}