{
  "txid": "b93ccefc04a653af10abe9bec36c0b466ee6207beaf6fc0ea6cfdffcdd87c8aa",
  "version": 2,
  "locktime": 0,
  "vin": [
    {
      "txid": "c59d907574755164818e1cfe249dc88edcb9efdf1f6d0b0dcdd696cf938efb47",
      "vout": 0,
      "prevout": {
        "scriptpubkey": "001424f53d6522d2d3f80604be4da1579b7c19464d14",
        "scriptpubkey_asm": "OP_0 OP_PUSHBYTES_20 24f53d6522d2d3f80604be4da1579b7c19464d14",
        "scriptpubkey_type": "v0_p2wpkh",
        "scriptpubkey_address": "bc1qyn6n6efz6tflspsyhex6z4um0sv5vng527p5ts",
        "value": 546
      },
      "scriptsig": "",
      "scriptsig_asm": "",
      "witness": [
        "3044022036955feb65eb9e9004d9e71954a2aaf0d47a3bddc348a1b95850e32022f74a4002203f6e49d5824dc7f93286e754f4462ab7ecde15e4fff803bf95410544ab72061e01",
        "0324fc2a96a5a91700363a3e02adffc3c73c3a1d9e8b84945873b57790a3b9a5f4"
      ],
      "is_coinbase": false,
      "sequence": 4294967295
    },
    {
      "txid": "65a1457546eb31bc7a363f61cabd0480387c04ea1292a6ee60c47a74ba9f3ce8",
      "vout": 1,
      "prevout": {
        "scriptpubkey": "001424f53d6522d2d3f80604be4da1579b7c19464d14",
        "scriptpubkey_asm": "OP_0 OP_PUSHBYTES_20 24f53d6522d2d3f80604be4da1579b7c19464d14",
        "scriptpubkey_type": "v0_p2wpkh",
        "scriptpubkey_address": "bc1qyn6n6efz6tflspsyhex6z4um0sv5vng527p5ts",
        "value": 108543
      },
      "scriptsig": "",
      "scriptsig_asm": "",
      "witness": [
        "30450221008df9cb20857b9652d7e40cd7ecf7324ae117fd58b1a078421c08483eb994e0f702203abbe3e52f74e29b541ac837f44cf30bf596dd23f8a5569a1094cfb19cf7ee7601",
        "0324fc2a96a5a91700363a3e02adffc3c73c3a1d9e8b84945873b57790a3b9a5f4"
      ],
      "is_coinbase": false,
      "sequence": 4294967295
    }
  ],
  "vout": [
    {
      "scriptpubkey": "001424f53d6522d2d3f80604be4da1579b7c19464d14",
      "scriptpubkey_asm": "OP_0 OP_PUSHBYTES_20 24f53d6522d2d3f80604be4da1579b7c19464d14",
      "scriptpubkey_type": "v0_p2wpkh",
      "scriptpubkey_address": "bc1qyn6n6efz6tflspsyhex6z4um0sv5vng527p5ts",
      "value": 546
    },
    {
      "scriptpubkey": "001424f53d6522d2d3f80604be4da1579b7c19464d14",
      "scriptpubkey_asm": "OP_0 OP_PUSHBYTES_20 24f53d6522d2d3f80604be4da1579b7c19464d14",
      "scriptpubkey_type": "v0_p2wpkh",
      "scriptpubkey_address": "bc1qyn6n6efz6tflspsyhex6z4um0sv5vng527p5ts",
      "value": 105826
    }
  ],
  "size": 371,
  "weight": 833,
  "fee": 2717,
  "status": {
    "confirmed": true,
    "block_height": 834460,
    "block_hash": "00000000000000000000484a79b643b2524bbce82e5d8a442013fa5b8905ed98",
    "block_time": 1710307468
  },
  "hex": "0200000000010247fb8e93cf96d6cd0d0b6d1fdfefb9dc8ec89d24fe1c8e816451757475909dc50000000000ffffffffe83c9fba747ac460eea69212ea047c388004bdca613f367abc31eb467545a1650100000000ffffffff02220200000000000016001424f53d6522d2d3f80604be4da1579b7c19464d14629d01000000000016001424f53d6522d2d3f80604be4da1579b7c19464d1402473044022036955feb65eb9e9004d9e71954a2aaf0d47a3bddc348a1b95850e32022f74a4002203f6e49d5824dc7f93286e754f4462ab7ecde15e4fff803bf95410544ab72061e01210324fc2a96a5a91700363a3e02adffc3c73c3a1d9e8b84945873b57790a3b9a5f4024830450221008df9cb20857b9652d7e40cd7ecf7324ae117fd58b1a078421c08483eb994e0f702203abbe3e52f74e29b541ac837f44cf30bf596dd23f8a5569a1094cfb19cf7ee7601210324fc2a96a5a91700363a3e02adffc3c73c3a1d9e8b84945873b57790a3b9a5f400000000"
}