{
  "txid": "b94771d38835fa037b5f1b6314c96be80516b3d31522b5734d239d9348959499",
  "version": 1,
  "locktime": 0,
  "vin": [
    {
      "txid": "07487bfd7ad60acb8d7146e25977abfe4e56479d43aa98452a97ce3662f129a2",
      "vout": 2,
      "prevout": {
        "scriptpubkey": "0020a7870af3cdfccb873b033dab385481e28d65ef6c8a251dec88450557f26dbd66",
        "scriptpubkey_asm": "OP_0 OP_PUSHBYTES_32 a7870af3cdfccb873b033dab385481e28d65ef6c8a251dec88450557f26dbd66",
        "scriptpubkey_type": "v0_p2wsh",
        "scriptpubkey_address": "bc1q57rs4u7dln9cwwcr8k4ns4ypu2xktmmv3gj3mmygg5z40undh4nqrhvppv",
        "value": 3033975
      },
      "scriptsig": "",
      "scriptsig_asm": "",
      "witness": [
        "",
        "3044022005a6e313662f1a776b88de475462d51197c1f0641bf22e99cc9ca2eab90df4d3022041e8d1a174fb8dd2f6d87232b10a0e365cd9010110060d04191c12beb0e0ea7a01",
        "30440220153cc417933d9513a329eddbc016e34de6eb506f8ad5044e4c210277fe30559802207803e95d0640fcfb6e715458f4408c3a61e1fb5328555be22ac5a1eee03ceba201",
        "5221031f606b57d81a8da0393519a22db86521fea5e7f223609848ef17984e0840f6b82103e78fd4a695f901129b11d8b08eb7af36e50eab78e56c61a0bdc5fb40d790a49c210256c054d4f29a7d6f0900a39fab4b0d2d4158fdb73c2c14e6d7c6a40be067b44a53ae"
      ],
      "is_coinbase": false,
      "sequence": 4294967293,
      "inner_witnessscript_asm": "OP_PUSHNUM_2 OP_PUSHBYTES_33 031f606b57d81a8da0393519a22db86521fea5e7f223609848ef17984e0840f6b8 OP_PUSHBYTES_33 03e78fd4a695f901129b11d8b08eb7af36e50eab78e56c61a0bdc5fb40d790a49c OP_PUSHBYTES_33 0256c054d4f29a7d6f0900a39fab4b0d2d4158fdb73c2c14e6d7c6a40be067b44a OP_PUSHNUM_3 OP_CHECKMULTISIG"
    }
  ],
  "vout": [
    {
      "scriptpubkey": "00203b1c7f1b2fa740303498be15e53d4537997123c057049885b7e84df75abe50c9",
      "scriptpubkey_asm": "OP_0 OP_PUSHBYTES_32 3b1c7f1b2fa740303498be15e53d4537997123c057049885b7e84df75abe50c9",
      "scriptpubkey_type": "v0_p2wsh",
      "scriptpubkey_address": "bc1q8vw87xe05aqrqdychc272029x7vhzg7q2uzf3pdhapxlwk472rysack5mm",
      "value": 1453661
    },
    {
      "scriptpubkey": "0014aed744e665f067813f5803933723d38073ec8de0",
      "scriptpubkey_asm": "OP_0 OP_PUSHBYTES_20 aed744e665f067813f5803933723d38073ec8de0",
      "scriptpubkey_type": "v0_p2wpkh",
      "scriptpubkey_address": "bc1q4mt5fen97pncz06cqwfnwg7nspe7er0qps438d",
      "value": 1576608
    }
  ],
  "size": 379,
  "weight": 754,
  "fee": 3706,
  "status": {
    "confirmed": true,
    "block_height": 834638,
    "block_hash": "000000000000000000025f742c626208ac87e0b7d15054abb4a19ca2d735a54e",
    "block_time": 1710405325
  },
  "hex": "01000000000101a229f16236ce972a4598aa439d47564efeab7759e246718dcb0ad67afd7b48070200000000fdffffff025d2e1600000000002200203b1c7f1b2fa740303498be15e53d4537997123c057049885b7e84df75abe50c9a00e180000000000160014aed744e665f067813f5803933723d38073ec8de00400473044022005a6e313662f1a776b88de475462d51197c1f0641bf22e99cc9ca2eab90df4d3022041e8d1a174fb8dd2f6d87232b10a0e365cd9010110060d04191c12beb0e0ea7a014730440220153cc417933d9513a329eddbc016e34de6eb506f8ad5044e4c210277fe30559802207803e95d0640fcfb6e715458f4408c3a61e1fb5328555be22ac5a1eee03ceba201695221031f606b57d81a8da0393519a22db86521fea5e7f223609848ef17984e0840f6b82103e78fd4a695f901129b11d8b08eb7af36e50eab78e56c61a0bdc5fb40d790a49c210256c054d4f29a7d6f0900a39fab4b0d2d4158fdb73c2c14e6d7c6a40be067b44a53ae00000000"
}