{
  "txid": "b96b0fe632d8dcaaea82f128e5dee2eb9f1fe8b6d6dc8322cf5c5efcad147e63",
  "version": 1,
  "locktime": 0,
  "vin": [
    {
      "txid": "8888888888696c3cb78d6095de671ff31da0f64a503468f2caad70ed612d47c0",
      "vout": 0,
      "prevout": {
        "scriptpubkey": "51200063930e1fec702be5ff9fac9f6bbcaedfa2f293e26f6997586710a3bc799ec8",
        "scriptpubkey_asm": "OP_PUSHNUM_1 OP_PUSHBYTES_32 0063930e1fec702be5ff9fac9f6bbcaedfa2f293e26f6997586710a3bc799ec8",
        "scriptpubkey_type": "v1_p2tr",
        "scriptpubkey_address": "bc1pqp3exrsla3czhe0ln7kf76au4m069u5nufhkn96cvug280renmyqaw8wlx",
        "value": 11923
      },
      "scriptsig": "",
      "scriptsig_asm": "",
      "witness": [
        "b13a6f5aa3ec11e9267d6a0c837c7b31f980c1be3a61f0ed5d2e48d8d9a24d18c864bb6a197f3e4576e0189535cb06ec7bd09e68a0f53889988e00fb6df5c7bf",
        "20b45a9ed8be961ae9776db234f21e7b6aabe8b15c60b8f3b876b6d23b2db4d9c2ac00630461746f6d03646d7446a16461726773a46474696d651a65f133cc656e6f6e63651a0001000668626974776f726b636b3838383838383838382e386b6d696e745f7469636b657268696e66696e69747968",
        "c1b45a9ed8be961ae9776db234f21e7b6aabe8b15c60b8f3b876b6d23b2db4d9c2"
      ],
      "is_coinbase": false,
      "sequence": 4294967295
    }
  ],
  "vout": [
    {
      "scriptpubkey": "5120ee5d73a166b5fcf6fb0e22e1428770d9455bcd536c28912b437450303ef41201",
      "scriptpubkey_asm": "OP_PUSHNUM_1 OP_PUSHBYTES_32 ee5d73a166b5fcf6fb0e22e1428770d9455bcd536c28912b437450303ef41201",
      "scriptpubkey_type": "v1_p2tr",
      "scriptpubkey_address": "bc1paewh8gtxkh70d7cwyts59pmsm9z4hn2nds5fz26rw3grq0h5zgqsmngref",
      "value": 9999
    }
  ],
  "size": 314,
  "weight": 596,
  "fee": 1924,
  "status": {
    "confirmed": true,
    "block_height": 834460,
    "block_hash": "00000000000000000000484a79b643b2524bbce82e5d8a442013fa5b8905ed98",
    "block_time": 1710307468
  },
  "hex": "01000000000101c0472d61ed70adcaf26834504af6a01df31f67de95608db73c6c6988888888880000000000ffffffff010f27000000000000225120ee5d73a166b5fcf6fb0e22e1428770d9455bcd536c28912b437450303ef412010340b13a6f5aa3ec11e9267d6a0c837c7b31f980c1be3a61f0ed5d2e48d8d9a24d18c864bb6a197f3e4576e0189535cb06ec7bd09e68a0f53889988e00fb6df5c7bf7520b45a9ed8be961ae9776db234f21e7b6aabe8b15c60b8f3b876b6d23b2db4d9c2ac00630461746f6d03646d7446a16461726773a46474696d651a65f133cc656e6f6e63651a0001000668626974776f726b636b3838383838383838382e386b6d696e745f7469636b657268696e66696e6974796821c1b45a9ed8be961ae9776db234f21e7b6aabe8b15c60b8f3b876b6d23b2db4d9c200000000"
}