{
  "txid": "b97b13203de7d12249db2b0620df7cb2427e6285ae52fdfb28aa5c2ad8b77360",
  "version": 1,
  "locktime": 0,
  "vin": [
    {
      "txid": "5ac88651c3681fefac99864fa0db4e591942d6afeda35e3409304543d45da26d",
      "vout": 0,
      "prevout": {
        "scriptpubkey": "51207eb7dc422ac650fb70cdddb1b6cacbe7d58f1e1157daf3c5ed35e80b9e3c32e1",
        "scriptpubkey_asm": "OP_PUSHNUM_1 OP_PUSHBYTES_32 7eb7dc422ac650fb70cdddb1b6cacbe7d58f1e1157daf3c5ed35e80b9e3c32e1",
        "scriptpubkey_type": "v1_p2tr",
        "scriptpubkey_address": "bc1p06macs32ceg0kuxdmkcmdjktul2c78s32ld0830dxh5qh83uxtss2npzh7",
        "value": 2721
      },
      "scriptsig": "",
      "scriptsig_asm": "",
      "witness": [
        "4c0248c63a4303e5d7338ae7d72ea5b38439600bb3585dc6dc9c02b801b401e912fc2340c25ab319fdd67b54921c1a26966a17b7b7bf711995714592802f037d",
        "20ce8fbdf73deecd900f3ca41f9fa4e34ab236e5915a2b1200fb07cfee35b33d18ac0063036f7264010118746578742f706c61696e3b636861727365743d7574662d3800397b2270223a226272632d3230222c226f70223a227472616e73666572222c227469636b223a227378696f222c22616d74223a2232303030227d68",
        "c0ce8fbdf73deecd900f3ca41f9fa4e34ab236e5915a2b1200fb07cfee35b33d18"
      ],
      "is_coinbase": false,
      "sequence": 4294967293
    }
  ],
  "vout": [
    {
      "scriptpubkey": "0014e10a6d4406e9ce9286cfc1433e8d0f3e8720b187",
      "scriptpubkey_asm": "OP_0 OP_PUSHBYTES_20 e10a6d4406e9ce9286cfc1433e8d0f3e8720b187",
      "scriptpubkey_type": "v0_p2wpkh",
      "scriptpubkey_address": "bc1quy9x63qxa88f9pk0c9pnarg086rjpvv8anvh2s",
      "value": 546
    }
  ],
  "size": 312,
  "weight": 558,
  "fee": 2175,
  "status": {
    "confirmed": true,
    "block_height": 834460,
    "block_hash": "00000000000000000000484a79b643b2524bbce82e5d8a442013fa5b8905ed98",
    "block_time": 1710307468
  },
  "hex": "010000000001016da25dd443453009345ea3edafd64219594edba04f8699acef1f68c35186c85a0000000000fdffffff012202000000000000160014e10a6d4406e9ce9286cfc1433e8d0f3e8720b18703404c0248c63a4303e5d7338ae7d72ea5b38439600bb3585dc6dc9c02b801b401e912fc2340c25ab319fdd67b54921c1a26966a17b7b7bf711995714592802f037d7f20ce8fbdf73deecd900f3ca41f9fa4e34ab236e5915a2b1200fb07cfee35b33d18ac0063036f7264010118746578742f706c61696e3b636861727365743d7574662d3800397b2270223a226272632d3230222c226f70223a227472616e73666572222c227469636b223a227378696f222c22616d74223a2232303030227d6821c0ce8fbdf73deecd900f3ca41f9fa4e34ab236e5915a2b1200fb07cfee35b33d1800000000"
}