{
  "txid": "b9853a28283219ae597b67ac6b497ea561bccf155e737307b3610e1d5fc458a4",
  "version": 2,
  "locktime": 0,
  "vin": [
    {
      "txid": "fc89c552e4e86f10809e576924197bd058d495fc7316897ae99f3c6d34dcd493",
      "vout": 4,
      "prevout": {
        "scriptpubkey": "5120dc8ac5bb0f043fe51f15f47e664e5d0f1080fac6dfd5d9ec41c73ee3d6de5551",
        "scriptpubkey_asm": "OP_PUSHNUM_1 OP_PUSHBYTES_32 dc8ac5bb0f043fe51f15f47e664e5d0f1080fac6dfd5d9ec41c73ee3d6de5551",
        "scriptpubkey_type": "v1_p2tr",
        "scriptpubkey_address": "bc1pmj9vtwc0qsl728c473lxvnjapuggp7kxml2anmzpculw84k724gsl87ehv",
        "value": 2658
      },
      "scriptsig": "",
      "scriptsig_asm": "",
      "witness": [
        "bd76129cae3089ce80d1f26c58fa4189bd7028ff1f83e116fbf8bfbf75e8eb590a3a611a7409e88093ddb0f63ac5898349e345d31337f4090a21b18024569702",
        "20867ffb16c1889e98cf84bf13b6dbe4bf57a4a11472e128ba758edb9b73a89533ac0063036f726401011e6170706c69636174696f6e2f6a736f6e3b636861727365743d7574662d38004cbf7b2270223a22706f772d3230222c226f70223a226d696e74222c227469636b223a2250455045222c22616d74223a2231303030222c22736f6c7574696f6e223a22504550453a6263317171633839726a7563797a776c77786d7761646c7763797139353668726e726b6a6833637361723a303030303030303030303030303030303030303139393431613561653132383937363539383134343239323533333030353762306461393666336465613163353a3534393530313834353335227d68",
        "c1def3a919f167a22fa6dfb9fa98ee16800d5a99e15fd4f4bd107d87271701c38a"
      ],
      "is_coinbase": false,
      "sequence": 4294967295
    }
  ],
  "vout": [
    {
      "scriptpubkey": "0014060e51cb98209df71b6eeb7eec1005a6ae398ed2",
      "scriptpubkey_asm": "OP_0 OP_PUSHBYTES_20 060e51cb98209df71b6eeb7eec1005a6ae398ed2",
      "scriptpubkey_type": "v0_p2wpkh",
      "scriptpubkey_address": "bc1qqc89rjucyzwlwxmwadlwcyq956hrnrkjh3csar",
      "value": 546
    }
  ],
  "size": 455,
  "weight": 701,
  "fee": 2112,
  "status": {
    "confirmed": true,
    "block_height": 834460,
    "block_hash": "00000000000000000000484a79b643b2524bbce82e5d8a442013fa5b8905ed98",
    "block_time": 1710307468
  },
  "hex": "0200000000010193d4dc346d3c9fe97a891673fc95d458d07b192469579e80106fe8e452c589fc0400000000ffffffff012202000000000000160014060e51cb98209df71b6eeb7eec1005a6ae398ed20340bd76129cae3089ce80d1f26c58fa4189bd7028ff1f83e116fbf8bfbf75e8eb590a3a611a7409e88093ddb0f63ac5898349e345d31337f4090a21b18024569702fd0c0120867ffb16c1889e98cf84bf13b6dbe4bf57a4a11472e128ba758edb9b73a89533ac0063036f726401011e6170706c69636174696f6e2f6a736f6e3b636861727365743d7574662d38004cbf7b2270223a22706f772d3230222c226f70223a226d696e74222c227469636b223a2250455045222c22616d74223a2231303030222c22736f6c7574696f6e223a22504550453a6263317171633839726a7563797a776c77786d7761646c7763797139353668726e726b6a6833637361723a303030303030303030303030303030303030303139393431613561653132383937363539383134343239323533333030353762306461393666336465613163353a3534393530313834353335227d6821c1def3a919f167a22fa6dfb9fa98ee16800d5a99e15fd4f4bd107d87271701c38a00000000"
}