{
  "txid": "b990b47243d3ab10d3ca2600afcf32f83fb9b6d0a9c170cb3792f75b9e84ebb9",
  "version": 2,
  "locktime": 834637,
  "vin": [
    {
      "txid": "37732e427a3172b9298b74fdeedff682638de8cda159ba3cba7ccee676345209",
      "vout": 0,
      "prevout": {
        "scriptpubkey": "0014128e4c383b07b5b04fb67e97c2ac92f86775b061",
        "scriptpubkey_asm": "OP_0 OP_PUSHBYTES_20 128e4c383b07b5b04fb67e97c2ac92f86775b061",
        "scriptpubkey_type": "v0_p2wpkh",
        "scriptpubkey_address": "bc1qz28ycwpmq76mqnak06tu9tyjlpnhtvrph9gpgq",
        "value": 131910
      },
      "scriptsig": "",
      "scriptsig_asm": "",
      "witness": [
        "304402200eb8ec05c6df4e7402c580605d13ab9f7b09e50c6e9074b7c061cecca63962f702205cb15134cefbf39ecbdeb90d84d785f8b5336ca28cb61cb22e09223421403b9b01",
        "02a26ca1fc30d2160590e72db413740e87ee7684d1c64e98bafc28c443d24a5a43"
      ],
      "is_coinbase": false,
      "sequence": 4294967293
    }
  ],
  "vout": [
    {
      "scriptpubkey": "001467bc76715d96593cedac01fe1e6e9ae466629af2",
      "scriptpubkey_asm": "OP_0 OP_PUSHBYTES_20 67bc76715d96593cedac01fe1e6e9ae466629af2",
      "scriptpubkey_type": "v0_p2wpkh",
      "scriptpubkey_address": "bc1qv778vu2ajevnemdvq8lpum56u3nx9xhjt37y50",
      "value": 63557
    },
    {
      "scriptpubkey": "a9142470fc8e4716e8470ada1ab0542e8d44c3622f7087",
      "scriptpubkey_asm": "OP_HASH160 OP_PUSHBYTES_20 2470fc8e4716e8470ada1ab0542e8d44c3622f70 OP_EQUAL",
      "scriptpubkey_type": "p2sh",
      "scriptpubkey_address": "351hbtibTQ4QX4xAyRtnmuT81ybMMiLts1",
      "value": 64519
    }
  ],
  "size": 223,
  "weight": 565,
  "fee": 3834,
  "status": {
    "confirmed": true,
    "block_height": 834638,
    "block_hash": "000000000000000000025f742c626208ac87e0b7d15054abb4a19ca2d735a54e",
    "block_time": 1710405325
  },
  "hex": "0200000000010109523476e6ce7cba3cba59a1cde88d6382f6dfeefd748b29b972317a422e73370000000000fdffffff0245f800000000000016001467bc76715d96593cedac01fe1e6e9ae466629af207fc00000000000017a9142470fc8e4716e8470ada1ab0542e8d44c3622f70870247304402200eb8ec05c6df4e7402c580605d13ab9f7b09e50c6e9074b7c061cecca63962f702205cb15134cefbf39ecbdeb90d84d785f8b5336ca28cb61cb22e09223421403b9b012102a26ca1fc30d2160590e72db413740e87ee7684d1c64e98bafc28c443d24a5a434dbc0c00"
}