{
  "txid": "b992bf15e21b2b19c096254cf769831af79647f15b76624f9f9e137e1a68242a",
  "version": 2,
  "locktime": 834637,
  "vin": [
    {
      "txid": "aa7c5a84bd25fea1c58eb671e89eceaf8066fae2dd26f6e20af0ba8da3cceb40",
      "vout": 0,
      "prevout": {
        "scriptpubkey": "00144d42df24584ac863a94f1c88cc3709045a6ef7c3",
        "scriptpubkey_asm": "OP_0 OP_PUSHBYTES_20 4d42df24584ac863a94f1c88cc3709045a6ef7c3",
        "scriptpubkey_type": "v0_p2wpkh",
        "scriptpubkey_address": "bc1qf4pd7fzcftyx8220rjyvcdcfq3dxaa7r2zhjv8",
        "value": 280671
      },
      "scriptsig": "",
      "scriptsig_asm": "",
      "witness": [
        "3044022064e1ec206578a37aec313f67fea5b2540763a4062ac579449b310cf0345afb24022062fb180ff6ab8ae2b0ab9acbeebf210627548428cc850305b92627cf7635a0c901",
        "02a256dea52b8e0aaeb10fbaf954d235f12cc8f4061d510316e75acd46c271ee31"
      ],
      "is_coinbase": false,
      "sequence": 4294967294
    },
    {
      "txid": "3ae3fd64638bfefd703fd91d612236dbd61416465f152ec6bbdd25ad88d850b0",
      "vout": 46,
      "prevout": {
        "scriptpubkey": "00140a435c2eb020c7702f5e6745486360b75647c894",
        "scriptpubkey_asm": "OP_0 OP_PUSHBYTES_20 0a435c2eb020c7702f5e6745486360b75647c894",
        "scriptpubkey_type": "v0_p2wpkh",
        "scriptpubkey_address": "bc1qpfp4ct4syrrhqt67vaz5scmqkaty0jy583avhc",
        "value": 5020
      },
      "scriptsig": "",
      "scriptsig_asm": "",
      "witness": [
        "304402204766dac6d5855c8e310d43f0b621465110f11dd1277f97bd1630a3b661f0a415022078dca48b518ad0419a553966600da7f2dab79983da04e088406081830ad735e101",
        "0233c613e272d46743082eaa02d7539bda895bd85469827b04b460503293b42bcf"
      ],
      "is_coinbase": false,
      "sequence": 4294967294
    },
    {
      "txid": "7bfd70563aef90f3e61677727d3e45a544d72bc1fdce18a3ed6b1aa9dea4899c",
      "vout": 1,
      "prevout": {
        "scriptpubkey": "0014924c5f096c91c974c3d4b0c8af6183f47b1ab11f",
        "scriptpubkey_asm": "OP_0 OP_PUSHBYTES_20 924c5f096c91c974c3d4b0c8af6183f47b1ab11f",
        "scriptpubkey_type": "v0_p2wpkh",
        "scriptpubkey_address": "bc1qjfx97ztvj8yhfs75kry27cvr73a34vgl7ga4zl",
        "value": 5476
      },
      "scriptsig": "",
      "scriptsig_asm": "",
      "witness": [
        "3044022045753ffbbc78d5cc399c778ca769d446015bdf4c0e4a5b766ec6a7febb43bd2002200fdf5a32750024c68128ecd8c48fb38e02c487bb992d9002a012ce39687f31ce01",
        "0281b45e2dd0fda9b9975d4f4a919dfa8b6ec669a00e8324d575c9268102dc9f54"
      ],
      "is_coinbase": false,
      "sequence": 4294967294
    }
  ],
  "vout": [
    {
      "scriptpubkey": "0014b9a697ca39a194d6279e1162ccacf447df3c023b",
      "scriptpubkey_asm": "OP_0 OP_PUSHBYTES_20 b9a697ca39a194d6279e1162ccacf447df3c023b",
      "scriptpubkey_type": "v0_p2wpkh",
      "scriptpubkey_address": "bc1qhxnf0j3e5x2dvfu7z93vet85gl0ncq3m3gmfgp",
      "value": 2167
    },
    {
      "scriptpubkey": "001427bae53222ee93774c08da3f52b3d78b80d9e180",
      "scriptpubkey_asm": "OP_0 OP_PUSHBYTES_20 27bae53222ee93774c08da3f52b3d78b80d9e180",
      "scriptpubkey_type": "v0_p2wpkh",
      "scriptpubkey_address": "bc1qy7aw2v3za6fhwnqgmgl49v7h3wqdncvqy0e8m9",
      "value": 284589
    }
  ],
  "size": 518,
  "weight": 1103,
  "fee": 4411,
  "status": {
    "confirmed": true,
    "block_height": 834638,
    "block_hash": "000000000000000000025f742c626208ac87e0b7d15054abb4a19ca2d735a54e",
    "block_time": 1710405325
  },
  "hex": "0200000000010340ebcca38dbaf00ae2f626dde2fa6680afce9ee871b68ec5a1fe25bd845a7caa0000000000feffffffb050d888ad25ddbbc62e155f461614d6db3622611dd93f70fdfe8b6364fde33a2e00000000feffffff9c89a4dea91a6beda318cefdc12bd744a5453e7d727716e6f390ef3a5670fd7b0100000000feffffff027708000000000000160014b9a697ca39a194d6279e1162ccacf447df3c023bad5704000000000016001427bae53222ee93774c08da3f52b3d78b80d9e18002473044022064e1ec206578a37aec313f67fea5b2540763a4062ac579449b310cf0345afb24022062fb180ff6ab8ae2b0ab9acbeebf210627548428cc850305b92627cf7635a0c9012102a256dea52b8e0aaeb10fbaf954d235f12cc8f4061d510316e75acd46c271ee310247304402204766dac6d5855c8e310d43f0b621465110f11dd1277f97bd1630a3b661f0a415022078dca48b518ad0419a553966600da7f2dab79983da04e088406081830ad735e101210233c613e272d46743082eaa02d7539bda895bd85469827b04b460503293b42bcf02473044022045753ffbbc78d5cc399c778ca769d446015bdf4c0e4a5b766ec6a7febb43bd2002200fdf5a32750024c68128ecd8c48fb38e02c487bb992d9002a012ce39687f31ce01210281b45e2dd0fda9b9975d4f4a919dfa8b6ec669a00e8324d575c9268102dc9f544dbc0c00"
}