{
  "txid": "b99984400edbfa07ec94e18c151a03c3a727371a7be544ec72fda38dbe6716ac",
  "version": 1,
  "locktime": 0,
  "vin": [
    {
      "txid": "e4ec1da8fcca6261fd80e55ef31ac9acf0bd25cd9b4c1e44cae886d99c3f1395",
      "vout": 1,
      "prevout": {
        "scriptpubkey": "5120be570c828e5971542aa38e8f7223247bd944f6ddec4b6f5560a83bbe4305b4a3",
        "scriptpubkey_asm": "OP_PUSHNUM_1 OP_PUSHBYTES_32 be570c828e5971542aa38e8f7223247bd944f6ddec4b6f5560a83bbe4305b4a3",
        "scriptpubkey_type": "v1_p2tr",
        "scriptpubkey_address": "bc1phetseq5wt9c4g24r368hygey00v5fakaa39k74tq4qamusc9kj3s47g5ke",
        "value": 890575
      },
      "scriptsig": "",
      "scriptsig_asm": "",
      "witness": [
        "3b390e7170d49136c6d7600f2619b7642cc45d8602f788e6ec1632a09870c860ee65e94d03700f82684dccdd7201faa915c9c33160cfcffbc22750d60ad92824"
      ],
      "is_coinbase": false,
      "sequence": 4294967293
    }
  ],
  "vout": [
    {
      "scriptpubkey": "512093ccdef9aa2328c4f9c5a20b590c97b9907af53f852e4516b36914498afc0145",
      "scriptpubkey_asm": "OP_PUSHNUM_1 OP_PUSHBYTES_32 93ccdef9aa2328c4f9c5a20b590c97b9907af53f852e4516b36914498afc0145",
      "scriptpubkey_type": "v1_p2tr",
      "scriptpubkey_address": "bc1pj0xda7d2yv5vf7w95g94jryhhxg84afls5hy294ndy2ynzhuq9zsxn0c5s",
      "value": 2088
    },
    {
      "scriptpubkey": "512043ad8b8bae69b62d99f96f779592297ceb4730c1e662b73c149513fd606ecefd",
      "scriptpubkey_asm": "OP_PUSHNUM_1 OP_PUSHBYTES_32 43ad8b8bae69b62d99f96f779592297ceb4730c1e662b73c149513fd606ecefd",
      "scriptpubkey_type": "v1_p2tr",
      "scriptpubkey_address": "bc1pgwkchzawdxmzmx0edamety3f0n45wvxpue3tw0q5j5fl6crwem7sc6mw47",
      "value": 886762
    }
  ],
  "size": 205,
  "weight": 616,
  "fee": 1725,
  "status": {
    "confirmed": true,
    "block_height": 834460,
    "block_hash": "00000000000000000000484a79b643b2524bbce82e5d8a442013fa5b8905ed98",
    "block_time": 1710307468
  },
  "hex": "0100000000010195133f9cd986e8ca441e4c9bcd25bdf0acc91af35ee580fd6162cafca81dece40100000000fdffffff02280800000000000022512093ccdef9aa2328c4f9c5a20b590c97b9907af53f852e4516b36914498afc0145ea870d000000000022512043ad8b8bae69b62d99f96f779592297ceb4730c1e662b73c149513fd606ecefd01403b390e7170d49136c6d7600f2619b7642cc45d8602f788e6ec1632a09870c860ee65e94d03700f82684dccdd7201faa915c9c33160cfcffbc22750d60ad9282400000000"
}