{
  "txid": "b99dfdf05957d075cb84953d0211da38c1e8901cff792f39e25f63962ed45392",
  "version": 2,
  "locktime": 0,
  "vin": [
    {
      "txid": "cf48049d445175d293dfd8cdf0e54c9a4fbd4240d2a1dc5605213569e2a7bcf4",
      "vout": 0,
      "prevout": {
        "scriptpubkey": "0014e7a5b6ceefb4a189b41b8ab136826771c021fecb",
        "scriptpubkey_asm": "OP_0 OP_PUSHBYTES_20 e7a5b6ceefb4a189b41b8ab136826771c021fecb",
        "scriptpubkey_type": "v0_p2wpkh",
        "scriptpubkey_address": "bc1qu7jmdnh0kjscndqm32cndqn8w8qzrlktqctz8j",
        "value": 1033601
      },
      "scriptsig": "",
      "scriptsig_asm": "",
      "witness": [
        "3044022027532adb9c645874fd1749962d654d1fbd1c355ffb5157f83eb9ef0733b21fa202203dc8b546b1b697b23dcdf1b0e73a2454afc3e949edb9d35ed0ce2538ef7f1d2701",
        "02b18b8f375492c5c2d499292c431cbb962da5eaf99fd95b8161389a9cafa681de"
      ],
      "is_coinbase": false,
      "sequence": 4294967293
    }
  ],
  "vout": [
    {
      "scriptpubkey": "0014734ca5d6f0bd9ae18972370a9aaebe8ce5255914",
      "scriptpubkey_asm": "OP_0 OP_PUSHBYTES_20 734ca5d6f0bd9ae18972370a9aaebe8ce5255914",
      "scriptpubkey_type": "v0_p2wpkh",
      "scriptpubkey_address": "bc1qwdx2t4hshkdwrztjxu9f4t473njj2kg5p5fkvu",
      "value": 1001854
    },
    {
      "scriptpubkey": "001440e2944d323062b6ae73b5a202b3107b74b98fc8",
      "scriptpubkey_asm": "OP_0 OP_PUSHBYTES_20 40e2944d323062b6ae73b5a202b3107b74b98fc8",
      "scriptpubkey_type": "v0_p2wpkh",
      "scriptpubkey_address": "bc1qgr3fgnfjxp3tdtnnkk3q9vcs0d6tnr7gcsktsk",
      "value": 30055
    }
  ],
  "size": 222,
  "weight": 561,
  "fee": 1692,
  "status": {
    "confirmed": true,
    "block_height": 834460,
    "block_hash": "00000000000000000000484a79b643b2524bbce82e5d8a442013fa5b8905ed98",
    "block_time": 1710307468
  },
  "hex": "02000000000101f4bca7e26935210556dca1d24042bd4f9a4ce5f0cdd8df93d27551449d0448cf0000000000fdffffff027e490f0000000000160014734ca5d6f0bd9ae18972370a9aaebe8ce5255914677500000000000016001440e2944d323062b6ae73b5a202b3107b74b98fc802473044022027532adb9c645874fd1749962d654d1fbd1c355ffb5157f83eb9ef0733b21fa202203dc8b546b1b697b23dcdf1b0e73a2454afc3e949edb9d35ed0ce2538ef7f1d27012102b18b8f375492c5c2d499292c431cbb962da5eaf99fd95b8161389a9cafa681de00000000"
}