{
  "txid": "b9adce74312e75a20002ea7e9a90ccdab10701f2b3dd2cbbf71a9b032cb2bb94",
  "version": 2,
  "locktime": 834600,
  "vin": [
    {
      "txid": "90fe4aabd2952cec384983efc97cdcd430768b8f8e31992f8bc332a40af48222",
      "vout": 1,
      "prevout": {
        "scriptpubkey": "00147abe33b6e40efba537eb65b14d4d609f88ff7c18",
        "scriptpubkey_asm": "OP_0 OP_PUSHBYTES_20 7abe33b6e40efba537eb65b14d4d609f88ff7c18",
        "scriptpubkey_type": "v0_p2wpkh",
        "scriptpubkey_address": "bc1q02lr8dhypma62dltvkc56ntqn7y07lqcw6zevg",
        "value": 791560154
      },
      "scriptsig": "",
      "scriptsig_asm": "",
      "witness": [
        "304402206e9f87ec6bde6102aef6802e77716bab90656e0ea5f3f1592e50ccbf7d189d92022049952f66122ee4b8ce3eb41e88bd42793323291392b1e57699672b0bfd54ea1d01",
        "020e718dedc053cfa13030d2fe683b62bada48117324e86288f901fafd793972c7"
      ],
      "is_coinbase": false,
      "sequence": 4294967294
    }
  ],
  "vout": [
    {
      "scriptpubkey": "00148d64dc33c62abf66d646b374ab8701b29047c0e9",
      "scriptpubkey_asm": "OP_0 OP_PUSHBYTES_20 8d64dc33c62abf66d646b374ab8701b29047c0e9",
      "scriptpubkey_type": "v0_p2wpkh",
      "scriptpubkey_address": "bc1q34jdcv7x92lkd4jxkd62hpcpk2gy0s8fnkth67",
      "value": 788803574
    },
    {
      "scriptpubkey": "a91470be1af1d1c957015789d6a7cf00472a228a252487",
      "scriptpubkey_asm": "OP_HASH160 OP_PUSHBYTES_20 70be1af1d1c957015789d6a7cf00472a228a2524 OP_EQUAL",
      "scriptpubkey_type": "p2sh",
      "scriptpubkey_address": "3By9LmoW4LT6K11gmQH9ZHjbNtsEWg1jpx",
      "value": 2753100
    }
  ],
  "size": 223,
  "weight": 565,
  "fee": 3480,
  "status": {
    "confirmed": true,
    "block_height": 834638,
    "block_hash": "000000000000000000025f742c626208ac87e0b7d15054abb4a19ca2d735a54e",
    "block_time": 1710405325
  },
  "hex": "020000000001012282f40aa432c38b2f99318e8f8b7630d4dc7cc9ef834938ec2c95d2ab4afe900100000000feffffff02f62f042f000000001600148d64dc33c62abf66d646b374ab8701b29047c0e94c022a000000000017a91470be1af1d1c957015789d6a7cf00472a228a2524870247304402206e9f87ec6bde6102aef6802e77716bab90656e0ea5f3f1592e50ccbf7d189d92022049952f66122ee4b8ce3eb41e88bd42793323291392b1e57699672b0bfd54ea1d0121020e718dedc053cfa13030d2fe683b62bada48117324e86288f901fafd793972c728bc0c00"
}