{
  "txid": "b9b515b6171b47940809366f5d58591a56063db03fc39f678a03cb2b455f9428",
  "version": 2,
  "locktime": 834637,
  "vin": [
    {
      "txid": "57dd36f69b16e1f54b77755753c486ec5423497412b2f65a09865a4bb356430b",
      "vout": 1,
      "prevout": {
        "scriptpubkey": "001440515109cbd8fd0d8a0d89e1555fbd3bd1ee5d0f",
        "scriptpubkey_asm": "OP_0 OP_PUSHBYTES_20 40515109cbd8fd0d8a0d89e1555fbd3bd1ee5d0f",
        "scriptpubkey_type": "v0_p2wpkh",
        "scriptpubkey_address": "bc1qgpg4zzwtmr7smzsd38s42haa80g7uhg0xfj543",
        "value": 307160530
      },
      "scriptsig": "",
      "scriptsig_asm": "",
      "witness": [
        "3044022055c62a252a95e1d25b15e2250b80601378e976b0c1fd7e9af3e54c4210e3302802206c6f40ff69db0c69e3b26fdc582dd313ec17346a5f742c56186215904ff2b15401",
        "0243bda700734ddb6edd08bb940508d3d0a0995dc63d9f2c0f6520ec25f8ae902c"
      ],
      "is_coinbase": false,
      "sequence": 4294967294
    }
  ],
  "vout": [
    {
      "scriptpubkey": "0014371e036c75b663254314287faa19c7b3f6c35e8a",
      "scriptpubkey_asm": "OP_0 OP_PUSHBYTES_20 371e036c75b663254314287faa19c7b3f6c35e8a",
      "scriptpubkey_type": "v0_p2wpkh",
      "scriptpubkey_address": "bc1qxu0qxmr4ke3j2sc59pl65xw8k0mvxh52kt0x5m",
      "value": 293400650
    },
    {
      "scriptpubkey": "a914f232f78b63227fe75fae79d558eb03fa14c4292a87",
      "scriptpubkey_asm": "OP_HASH160 OP_PUSHBYTES_20 f232f78b63227fe75fae79d558eb03fa14c4292a OP_EQUAL",
      "scriptpubkey_type": "p2sh",
      "scriptpubkey_address": "3PmeWDMsS3pTokfT6UKVWP54VrZdmfywUK",
      "value": 13756400
    }
  ],
  "size": 223,
  "weight": 565,
  "fee": 3480,
  "status": {
    "confirmed": true,
    "block_height": 834638,
    "block_hash": "000000000000000000025f742c626208ac87e0b7d15054abb4a19ca2d735a54e",
    "block_time": 1710405325
  },
  "hex": "020000000001010b4356b34b5a86095af6b21274492354ec86c4535775774bf5e1169bf636dd570100000000feffffff024af07c1100000000160014371e036c75b663254314287faa19c7b3f6c35e8af0e7d1000000000017a914f232f78b63227fe75fae79d558eb03fa14c4292a8702473044022055c62a252a95e1d25b15e2250b80601378e976b0c1fd7e9af3e54c4210e3302802206c6f40ff69db0c69e3b26fdc582dd313ec17346a5f742c56186215904ff2b15401210243bda700734ddb6edd08bb940508d3d0a0995dc63d9f2c0f6520ec25f8ae902c4dbc0c00"
}