{
  "txid": "b9ba348846b31c40da668f48351ab4e11712468d3213958df83083f9da85dab9",
  "version": 2,
  "locktime": 0,
  "vin": [
    {
      "txid": "12fe58804e9d061a699c82bf621db2a7ea6639dcfa94d259c4b01bfcf95b061a",
      "vout": 1,
      "prevout": {
        "scriptpubkey": "51209180ce961bfe3c8653237de0b858946a42dd306b4ea411f556d094ed4492fb75",
        "scriptpubkey_asm": "OP_PUSHNUM_1 OP_PUSHBYTES_32 9180ce961bfe3c8653237de0b858946a42dd306b4ea411f556d094ed4492fb75",
        "scriptpubkey_type": "v1_p2tr",
        "scriptpubkey_address": "bc1pjxqva9smlc7gv5er0hstsky5dfpd6vrtf6jpra2k6z2w63yjld6sat05fp",
        "value": 2471
      },
      "scriptsig": "",
      "scriptsig_asm": "",
      "witness": [
        "180831713b3bb440b95b1329f64ca8d2b2b98f89f5f04d51486004ce48414d3f60fb38f9707aaed6118454becd67f9a6766af18937835bf0879ec2771149439e",
        "20902f9a0c5994597dfe52c2c5e87075c401bf2b66af4e8be20c346a1c9d4a1665ac0063036f7264010118746578742f706c61696e3b636861727365743d7574662d38004c947b2270223a2022746170222c20226f70223a2022646d742d6d696e74222c2022646570223a2022366134396139343839376531373435326133633236363131363036323132346331346137333566623335353737303866313533623139666364376238376538336930222c20227469636b223a2022f09f92b0f09f90b8f09f92b0222c2022626c6b223a2022313332313035227d68",
        "c1f3c76533aefc774b0707ddcd1b4941606fa49e3564f0a84ef66fd28168e942d9"
      ],
      "is_coinbase": false,
      "sequence": 4294967295
    }
  ],
  "vout": [
    {
      "scriptpubkey": "51206995824a071ac4f752d81f89304c314d5fe918d3c4d9b534d336bc01090fa188",
      "scriptpubkey_asm": "OP_PUSHNUM_1 OP_PUSHBYTES_32 6995824a071ac4f752d81f89304c314d5fe918d3c4d9b534d336bc01090fa188",
      "scriptpubkey_type": "v1_p2tr",
      "scriptpubkey_address": "bc1pdx2cyjs8rtz0w5kcr7ynqnp3f407jxxncnvm2dxnx67qzzg05xyqy837q4",
      "value": 546
    }
  ],
  "size": 416,
  "weight": 698,
  "fee": 1925,
  "status": {
    "confirmed": true,
    "block_height": 834464,
    "block_hash": "0000000000000000000177a0869a911a2b65c9bdcd5a8bcb02b68f305bee848e",
    "block_time": 1710308296
  },
  "hex": "020000000001011a065bf9fc1bb0c459d294fadc3966eaa7b21d62bf829c691a069d4e8058fe120100000000ffffffff0122020000000000002251206995824a071ac4f752d81f89304c314d5fe918d3c4d9b534d336bc01090fa1880340180831713b3bb440b95b1329f64ca8d2b2b98f89f5f04d51486004ce48414d3f60fb38f9707aaed6118454becd67f9a6766af18937835bf0879ec2771149439edb20902f9a0c5994597dfe52c2c5e87075c401bf2b66af4e8be20c346a1c9d4a1665ac0063036f7264010118746578742f706c61696e3b636861727365743d7574662d38004c947b2270223a2022746170222c20226f70223a2022646d742d6d696e74222c2022646570223a2022366134396139343839376531373435326133633236363131363036323132346331346137333566623335353737303866313533623139666364376238376538336930222c20227469636b223a2022f09f92b0f09f90b8f09f92b0222c2022626c6b223a2022313332313035227d6821c1f3c76533aefc774b0707ddcd1b4941606fa49e3564f0a84ef66fd28168e942d900000000"
}