{
  "txid": "b9c46f9273edb5371ebd0cc9cb71f4fdd299958929c10cd4923ca80257afaf3b",
  "version": 1,
  "locktime": 0,
  "vin": [
    {
      "txid": "a98cd4a8eb56c93c862c6dded3e832d8e9a1174a2ec060e17d175baa834e87f0",
      "vout": 1,
      "prevout": {
        "scriptpubkey": "001418bb77c8912cf737963f521d22f4ee3ccfff01be",
        "scriptpubkey_asm": "OP_0 OP_PUSHBYTES_20 18bb77c8912cf737963f521d22f4ee3ccfff01be",
        "scriptpubkey_type": "v0_p2wpkh",
        "scriptpubkey_address": "bc1qrzah0jy39nmn093l2gwj9a8w8n8l7qd7svvskm",
        "value": 1364778
      },
      "scriptsig": "",
      "scriptsig_asm": "",
      "witness": [
        "304402205f823598efae4daefdcc383d5a29f7d255e9c66e0902c9703a7c3440ca5b155f0220689632a9112dbbe64c55c117b14831e3da046bdf2d3be22f69d7ef037b74aebc01",
        "03c37a146300244e983ac97e2218aa792bcf4c60c39b754afd8bbcb8766a8a4f64"
      ],
      "is_coinbase": false,
      "sequence": 4294967295
    }
  ],
  "vout": [
    {
      "scriptpubkey": "0014bf7efea88e5b680597c24e15bdc9d9f99df85d12",
      "scriptpubkey_asm": "OP_0 OP_PUSHBYTES_20 bf7efea88e5b680597c24e15bdc9d9f99df85d12",
      "scriptpubkey_type": "v0_p2wpkh",
      "scriptpubkey_address": "bc1qhal0a2ywtd5qt97zfc2mmjwelxwlshgj85lpc6",
      "value": 1296539
    },
    {
      "scriptpubkey": "001418bb77c8912cf737963f521d22f4ee3ccfff01be",
      "scriptpubkey_asm": "OP_0 OP_PUSHBYTES_20 18bb77c8912cf737963f521d22f4ee3ccfff01be",
      "scriptpubkey_type": "v0_p2wpkh",
      "scriptpubkey_address": "bc1qrzah0jy39nmn093l2gwj9a8w8n8l7qd7svvskm",
      "value": 64432
    },
    {
      "scriptpubkey": "6a453d3a4554482e555344542d4543373a3078423346454130376432323138303142393144363232314362336239664533643734653539433530413a302f312f303a74693a3730",
      "scriptpubkey_asm": "OP_RETURN OP_PUSHBYTES_69 3d3a4554482e555344542d4543373a3078423346454130376432323138303142393144363232314362336239664533643734653539433530413a302f312f303a74693a3730",
      "scriptpubkey_type": "op_return",
      "value": 0
    }
  ],
  "size": 302,
  "weight": 881,
  "fee": 3807,
  "status": {
    "confirmed": true,
    "block_height": 834638,
    "block_hash": "000000000000000000025f742c626208ac87e0b7d15054abb4a19ca2d735a54e",
    "block_time": 1710405325
  },
  "hex": "01000000000101f0874e83aa5b177de160c02e4a17a1e9d832e8d3de6d2c863cc956eba8d48ca90100000000ffffffff039bc8130000000000160014bf7efea88e5b680597c24e15bdc9d9f99df85d12b0fb00000000000016001418bb77c8912cf737963f521d22f4ee3ccfff01be0000000000000000476a453d3a4554482e555344542d4543373a3078423346454130376432323138303142393144363232314362336239664533643734653539433530413a302f312f303a74693a37300247304402205f823598efae4daefdcc383d5a29f7d255e9c66e0902c9703a7c3440ca5b155f0220689632a9112dbbe64c55c117b14831e3da046bdf2d3be22f69d7ef037b74aebc012103c37a146300244e983ac97e2218aa792bcf4c60c39b754afd8bbcb8766a8a4f6400000000"
}