{
  "txid": "b9d8869bea54606df91b216179ee99888556691e0874effa3858fb408c7d1b9a",
  "version": 2,
  "locktime": 0,
  "vin": [
    {
      "txid": "143e636fb0eb5f1ba2726bdc78e6f59d85fa4802850492d17c2f938106982139",
      "vout": 8,
      "prevout": {
        "scriptpubkey": "5120d826ab2636fc8fbdecaf2d73e51ed5dcc9e9e9c452a5604cd40d44ab61a2342d",
        "scriptpubkey_asm": "OP_PUSHNUM_1 OP_PUSHBYTES_32 d826ab2636fc8fbdecaf2d73e51ed5dcc9e9e9c452a5604cd40d44ab61a2342d",
        "scriptpubkey_type": "v1_p2tr",
        "scriptpubkey_address": "bc1pmqn2kf3klj8mmm9094e728k4mny7n6wy22jkqnx5p4z2kcdzxsksslj3mr",
        "value": 31317
      },
      "scriptsig": "",
      "scriptsig_asm": "",
      "witness": [
        "a7cb66b87f744b4212bc9673a177587dd5facd58eaf2aaffb465fb7e33e8b153b81701330cf7097165bdded6ec1ee1ae09a6755dbae9b022a80799d8c59e1ac0"
      ],
      "is_coinbase": false,
      "sequence": 4294967293
    }
  ],
  "vout": [
    {
      "scriptpubkey": "51204d03f3d308bedbd95261cf70d764b34a1d7af59dd777b66d65e69706a46dc13a",
      "scriptpubkey_asm": "OP_PUSHNUM_1 OP_PUSHBYTES_32 4d03f3d308bedbd95261cf70d764b34a1d7af59dd777b66d65e69706a46dc13a",
      "scriptpubkey_type": "v1_p2tr",
      "scriptpubkey_address": "bc1pf5pl85cghmdaj5npeacdwe9nfgwh4ava6ammvmt9u6tsdfrdcyaqz6nt3d",
      "value": 3010
    },
    {
      "scriptpubkey": "5120d826ab2636fc8fbdecaf2d73e51ed5dcc9e9e9c452a5604cd40d44ab61a2342d",
      "scriptpubkey_asm": "OP_PUSHNUM_1 OP_PUSHBYTES_32 d826ab2636fc8fbdecaf2d73e51ed5dcc9e9e9c452a5604cd40d44ab61a2342d",
      "scriptpubkey_type": "v1_p2tr",
      "scriptpubkey_address": "bc1pmqn2kf3klj8mmm9094e728k4mny7n6wy22jkqnx5p4z2kcdzxsksslj3mr",
      "value": 25843
    }
  ],
  "size": 205,
  "weight": 616,
  "fee": 2464,
  "status": {
    "confirmed": true,
    "block_height": 834464,
    "block_hash": "0000000000000000000177a0869a911a2b65c9bdcd5a8bcb02b68f305bee848e",
    "block_time": 1710308296
  },
  "hex": "020000000001013921980681932f7cd19204850248fa859df5e678dc6b72a21b5febb06f633e140800000000fdffffff02c20b0000000000002251204d03f3d308bedbd95261cf70d764b34a1d7af59dd777b66d65e69706a46dc13af364000000000000225120d826ab2636fc8fbdecaf2d73e51ed5dcc9e9e9c452a5604cd40d44ab61a2342d0140a7cb66b87f744b4212bc9673a177587dd5facd58eaf2aaffb465fb7e33e8b153b81701330cf7097165bdded6ec1ee1ae09a6755dbae9b022a80799d8c59e1ac000000000"
}