{
  "txid": "b9f225e49edfab33ec836f2f67e8cf8fe62be882b5db7d70e3ac7f128f13634c",
  "version": 2,
  "locktime": 0,
  "vin": [
    {
      "txid": "924e2c4b3bffda203a9e2553cc2f4b503d6c16ebde6fa420b71f30d0500232c6",
      "vout": 1,
      "prevout": {
        "scriptpubkey": "0014a1b553fef4bf488352335cadd93476bcab63c4be",
        "scriptpubkey_asm": "OP_0 OP_PUSHBYTES_20 a1b553fef4bf488352335cadd93476bcab63c4be",
        "scriptpubkey_type": "v0_p2wpkh",
        "scriptpubkey_address": "bc1q5x648lh5haygx53ntjkajdrkhj4k83978n6nse",
        "value": 684581661
      },
      "scriptsig": "",
      "scriptsig_asm": "",
      "witness": [
        "3044022061ca3451b5394fd741ff57b27997e447ad6529038658808d09b5c10a67b8a6bf02206d97c8ffbc4675b5b09eb8258188132ccfffbf1ff89306f5aeeab3eebc5df0e101",
        "022a14db51e1154b48a6e2cc05300c8ebe9f53c92898cecfc059a130017a12db36"
      ],
      "is_coinbase": false,
      "sequence": 4294967295
    },
    {
      "txid": "c0eb5ea57824dfe82c09a0fbaced98ba77df5171f89f17056750f4cfefddb8e9",
      "vout": 2,
      "prevout": {
        "scriptpubkey": "0014748a57ab89550687edf861c4b45a90f22258cfaa",
        "scriptpubkey_asm": "OP_0 OP_PUSHBYTES_20 748a57ab89550687edf861c4b45a90f22258cfaa",
        "scriptpubkey_type": "v0_p2wpkh",
        "scriptpubkey_address": "bc1qwj9902uf25rg0m0cv8ztgk5s7g393na2pyzlr4",
        "value": 1040000
      },
      "scriptsig": "",
      "scriptsig_asm": "",
      "witness": [
        "30440220594fa32c220b2f5f32f8a2dd1738a3f3d795eefb4f3054211d70d973068eff1b02207afdd717cb1b36a6d509a7e03b5fa37a7d2c178b9ccba65950821424d825510901",
        "03cdbc020ea50da8e4c4cf96a5c0187edae1a96f087261f5463566b263ef73ec1f"
      ],
      "is_coinbase": false,
      "sequence": 4294967295
    },
    {
      "txid": "3deb8150e84d80606e014e94c5e70625a4e790c3772fabc65040fdbe9113cd65",
      "vout": 3,
      "prevout": {
        "scriptpubkey": "0014748a57ab89550687edf861c4b45a90f22258cfaa",
        "scriptpubkey_asm": "OP_0 OP_PUSHBYTES_20 748a57ab89550687edf861c4b45a90f22258cfaa",
        "scriptpubkey_type": "v0_p2wpkh",
        "scriptpubkey_address": "bc1qwj9902uf25rg0m0cv8ztgk5s7g393na2pyzlr4",
        "value": 1264618
      },
      "scriptsig": "",
      "scriptsig_asm": "",
      "witness": [
        "3045022100e4d6ed0e95e8613a94bdb28fb33b737c829f05b12fe65aae180d0ea4790dd72a0220023ba3591371c012805e57b927a1be6b95a6269b0b6bfb568105b7eca2de197501",
        "03cdbc020ea50da8e4c4cf96a5c0187edae1a96f087261f5463566b263ef73ec1f"
      ],
      "is_coinbase": false,
      "sequence": 4294967295
    }
  ],
  "vout": [
    {
      "scriptpubkey": "76a91416b5d03e7baa9ef5f8b7cfa9998054be5725d56788ac",
      "scriptpubkey_asm": "OP_DUP OP_HASH160 OP_PUSHBYTES_20 16b5d03e7baa9ef5f8b7cfa9998054be5725d567 OP_EQUALVERIFY OP_CHECKSIG",
      "scriptpubkey_type": "p2pkh",
      "scriptpubkey_address": "1355fqkNCqvtGusGAmghhA6zhSHpV5vpaq",
      "value": 6312930
    },
    {
      "scriptpubkey": "0014a1b553fef4bf488352335cadd93476bcab63c4be",
      "scriptpubkey_asm": "OP_0 OP_PUSHBYTES_20 a1b553fef4bf488352335cadd93476bcab63c4be",
      "scriptpubkey_type": "v0_p2wpkh",
      "scriptpubkey_address": "bc1q5x648lh5haygx53ntjkajdrkhj4k83978n6nse",
      "value": 680564278
    }
  ],
  "size": 522,
  "weight": 1116,
  "fee": 9071,
  "status": {
    "confirmed": true,
    "block_height": 834638,
    "block_hash": "000000000000000000025f742c626208ac87e0b7d15054abb4a19ca2d735a54e",
    "block_time": 1710405325
  },
  "hex": "02000000000103c6320250d0301fb720a46fdeeb166c3d504b2fcc53259e3a20daff3b4b2c4e920100000000ffffffffe9b8ddefcff4506705179ff87151df77ba98edacfba0092ce8df2478a55eebc00200000000ffffffff65cd1391befd4050c6ab2f77c390e7a42506e7c5944e016e60804de85081eb3d0300000000ffffffff02e2536000000000001976a91416b5d03e7baa9ef5f8b7cfa9998054be5725d56788ac3696902800000000160014a1b553fef4bf488352335cadd93476bcab63c4be02473044022061ca3451b5394fd741ff57b27997e447ad6529038658808d09b5c10a67b8a6bf02206d97c8ffbc4675b5b09eb8258188132ccfffbf1ff89306f5aeeab3eebc5df0e10121022a14db51e1154b48a6e2cc05300c8ebe9f53c92898cecfc059a130017a12db36024730440220594fa32c220b2f5f32f8a2dd1738a3f3d795eefb4f3054211d70d973068eff1b02207afdd717cb1b36a6d509a7e03b5fa37a7d2c178b9ccba65950821424d8255109012103cdbc020ea50da8e4c4cf96a5c0187edae1a96f087261f5463566b263ef73ec1f02483045022100e4d6ed0e95e8613a94bdb28fb33b737c829f05b12fe65aae180d0ea4790dd72a0220023ba3591371c012805e57b927a1be6b95a6269b0b6bfb568105b7eca2de1975012103cdbc020ea50da8e4c4cf96a5c0187edae1a96f087261f5463566b263ef73ec1f00000000"
}