{
  "txid": "ba0ab4da907eb987c1f05a7ac49e2874849e4659aec28658a3fa8cae79ef225d",
  "version": 2,
  "locktime": 834550,
  "vin": [
    {
      "txid": "63083282b7c4acdc8d2b8b1d6d7ac9b1edd910bb7460a6b4502ed3753f6db30f",
      "vout": 1,
      "prevout": {
        "scriptpubkey": "00143d4f6d9b00d8e803dc28ad499a12b10a903fe0b2",
        "scriptpubkey_asm": "OP_0 OP_PUSHBYTES_20 3d4f6d9b00d8e803dc28ad499a12b10a903fe0b2",
        "scriptpubkey_type": "v0_p2wpkh",
        "scriptpubkey_address": "bc1q848kmxcqmr5q8hpg44ye5y43p2grlc9j4arhvv",
        "value": 1024447
      },
      "scriptsig": "",
      "scriptsig_asm": "",
      "witness": [
        "30440220595a30d4b32f930bb2150c0199cb1b62aab097b088818d9de9d65ae39e2bdceb02201d51dd9ddd27ab9b3f590331f6c484a815a91df5c284540f89a6a182e998ec6b01",
        "02dfbed67769d03a5ef7be5ef75152d1df890bc2a90ebf62b2aef339f617126092"
      ],
      "is_coinbase": false,
      "sequence": 4294967294
    },
    {
      "txid": "9128114df5655efebf7ff930698925fa888c25b00f60195f8c94ba5821487bcc",
      "vout": 0,
      "prevout": {
        "scriptpubkey": "0014d21cbf699b773c6205058a0f045c9b456378cce0",
        "scriptpubkey_asm": "OP_0 OP_PUSHBYTES_20 d21cbf699b773c6205058a0f045c9b456378cce0",
        "scriptpubkey_type": "v0_p2wpkh",
        "scriptpubkey_address": "bc1q6gwt76vmwu7xypg93g8sghymg43h3n8qaakwak",
        "value": 1054958
      },
      "scriptsig": "",
      "scriptsig_asm": "",
      "witness": [
        "3044022017d88992fe6731b13736e71ce6305167132486ddaac4f038a1910d6cf875b9c302207c64a4ca1a76b2821993c768ce61de1ba138538e5441b76dcb942b254932841501",
        "02b4b9d53f79330bab849fae30ac973bec357568bd4e0ea0bdec2bcf12cca59c73"
      ],
      "is_coinbase": false,
      "sequence": 4294967294
    }
  ],
  "vout": [
    {
      "scriptpubkey": "76a914398de67dac2cea226e8d42fb8038ba756c406a8f88ac",
      "scriptpubkey_asm": "OP_DUP OP_HASH160 OP_PUSHBYTES_20 398de67dac2cea226e8d42fb8038ba756c406a8f OP_EQUALVERIFY OP_CHECKSIG",
      "scriptpubkey_type": "p2pkh",
      "scriptpubkey_address": "16FKWLwj4X3667pNrpQ3tpXSEuogEm3ZNb",
      "value": 1194477
    },
    {
      "scriptpubkey": "76a914ae615196bd32952fcac4e4c1a8f1d95f10c43bd488ac",
      "scriptpubkey_asm": "OP_DUP OP_HASH160 OP_PUSHBYTES_20 ae615196bd32952fcac4e4c1a8f1d95f10c43bd4 OP_EQUALVERIFY OP_CHECKSIG",
      "scriptpubkey_type": "p2pkh",
      "scriptpubkey_address": "1Gu3ACeLF2oK41AMRHgAug5YiKhcvAowyD",
      "value": 881076
    }
  ],
  "size": 376,
  "weight": 856,
  "fee": 3852,
  "status": {
    "confirmed": true,
    "block_height": 834552,
    "block_hash": "00000000000000000001dd0468a70c94f619251d286585cff57aeb4bd9ede330",
    "block_time": 1710355598
  },
  "hex": "020000000001020fb36d3f75d32e50b4a66074bb10d9edb1c97a6d1d8b2b8ddcacc4b7823208630100000000feffffffcc7b482158ba948c5f19600fb0258c88fa25896930f97fbffe5e65f54d1128910000000000feffffff02ed391200000000001976a914398de67dac2cea226e8d42fb8038ba756c406a8f88acb4710d00000000001976a914ae615196bd32952fcac4e4c1a8f1d95f10c43bd488ac024730440220595a30d4b32f930bb2150c0199cb1b62aab097b088818d9de9d65ae39e2bdceb02201d51dd9ddd27ab9b3f590331f6c484a815a91df5c284540f89a6a182e998ec6b012102dfbed67769d03a5ef7be5ef75152d1df890bc2a90ebf62b2aef339f61712609202473044022017d88992fe6731b13736e71ce6305167132486ddaac4f038a1910d6cf875b9c302207c64a4ca1a76b2821993c768ce61de1ba138538e5441b76dcb942b2549328415012102b4b9d53f79330bab849fae30ac973bec357568bd4e0ea0bdec2bcf12cca59c73f6bb0c00"
}