{
  "txid": "ba15e841189cdb3bce58b4a1c5a2248005fbaaf9b57ce3d0851d3edfe26286d5",
  "version": 2,
  "locktime": 0,
  "vin": [
    {
      "txid": "d7678bd3b84eaba3a8179b3e475bfc6a9b947df23acdb3bf1b1c74f521716b6b",
      "vout": 0,
      "prevout": {
        "scriptpubkey": "0014b620411b4a791e660b04a05c90fbc6d0061b8bbc",
        "scriptpubkey_asm": "OP_0 OP_PUSHBYTES_20 b620411b4a791e660b04a05c90fbc6d0061b8bbc",
        "scriptpubkey_type": "v0_p2wpkh",
        "scriptpubkey_address": "bc1qkcsyzx620y0xvzcy5pwfp77x6qrphzauwc6z9x",
        "value": 149608
      },
      "scriptsig": "",
      "scriptsig_asm": "",
      "witness": [
        "3045022100c36d4e75ca8657f4ac3c055a1459182899b7b34e493b9e7e91c078454e702b9d022062c7706151ff179f658e8c7b32b825bf34f10081f85cb5894e4e8b4156b9ad1b01",
        "03f2fbe77ff127ebf343d59b4be5eaaecdc4e9d4bccde87ddaf3ac0d22151c2749"
      ],
      "is_coinbase": false,
      "sequence": 4294967293
    }
  ],
  "vout": [
    {
      "scriptpubkey": "76a914905b5876b680ee90afb157f98f626c1cb61eb09f88ac",
      "scriptpubkey_asm": "OP_DUP OP_HASH160 OP_PUSHBYTES_20 905b5876b680ee90afb157f98f626c1cb61eb09f OP_EQUALVERIFY OP_CHECKSIG",
      "scriptpubkey_type": "p2pkh",
      "scriptpubkey_address": "1EAHjRcsA4FJ39RMDRRfs8By1F5eTzX2At",
      "value": 148388
    }
  ],
  "size": 195,
  "weight": 450,
  "fee": 1220,
  "status": {
    "confirmed": true,
    "block_height": 834464,
    "block_hash": "0000000000000000000177a0869a911a2b65c9bdcd5a8bcb02b68f305bee848e",
    "block_time": 1710308296
  },
  "hex": "020000000001016b6b7121f5741c1bbfb3cd3af27d949b6afc5b473e9b17a8a3ab4eb8d38b67d70000000000fdffffff01a4430200000000001976a914905b5876b680ee90afb157f98f626c1cb61eb09f88ac02483045022100c36d4e75ca8657f4ac3c055a1459182899b7b34e493b9e7e91c078454e702b9d022062c7706151ff179f658e8c7b32b825bf34f10081f85cb5894e4e8b4156b9ad1b012103f2fbe77ff127ebf343d59b4be5eaaecdc4e9d4bccde87ddaf3ac0d22151c274900000000"
}