{
  "txid": "ba45936a67c752a9e5eaa26fe974e0cd661b31226140a6fc4a932aedf4c149d8",
  "version": 2,
  "locktime": 834637,
  "vin": [
    {
      "txid": "678ec5cb518c2abde6471e191c0d681fd5363be2108d7bfd252107bf4b82d7ca",
      "vout": 1,
      "prevout": {
        "scriptpubkey": "0014a3a6b1814221b740e95af4fa012cea48c0eb7d41",
        "scriptpubkey_asm": "OP_0 OP_PUSHBYTES_20 a3a6b1814221b740e95af4fa012cea48c0eb7d41",
        "scriptpubkey_type": "v0_p2wpkh",
        "scriptpubkey_address": "bc1q5wntrq2zyxm5p6267naqzt82frqwkl2pqa58vq",
        "value": 7454625
      },
      "scriptsig": "",
      "scriptsig_asm": "",
      "witness": [
        "3044022013c6529cac9c6ed3137bbe3397003b67306ee56d919affe60ae47a1f0e62692502206408192dc7d48b8cb4306adaea6d95bacb1e961c25c2f24a7a7a46ae4d687ff001",
        "02258f0f311b94707239a097c93fb220784987080a7f19b5daa536bee2a2990c94"
      ],
      "is_coinbase": false,
      "sequence": 4294967293
    }
  ],
  "vout": [
    {
      "scriptpubkey": "0014cff54fa3c9b1894bb68cff35aa318337e64160ab",
      "scriptpubkey_asm": "OP_0 OP_PUSHBYTES_20 cff54fa3c9b1894bb68cff35aa318337e64160ab",
      "scriptpubkey_type": "v0_p2wpkh",
      "scriptpubkey_address": "bc1qel65lg7fkxy5hd5vlu665vvrxlnyzc9tuvlje6",
      "value": 171475
    },
    {
      "scriptpubkey": "0014a3a6b1814221b740e95af4fa012cea48c0eb7d41",
      "scriptpubkey_asm": "OP_0 OP_PUSHBYTES_20 a3a6b1814221b740e95af4fa012cea48c0eb7d41",
      "scriptpubkey_type": "v0_p2wpkh",
      "scriptpubkey_address": "bc1q5wntrq2zyxm5p6267naqzt82frqwkl2pqa58vq",
      "value": 7279308
    }
  ],
  "size": 222,
  "weight": 561,
  "fee": 3842,
  "status": {
    "confirmed": true,
    "block_height": 834638,
    "block_hash": "000000000000000000025f742c626208ac87e0b7d15054abb4a19ca2d735a54e",
    "block_time": 1710405325
  },
  "hex": "02000000000101cad7824bbf072125fd7b8d10e23b36d51f680d1c191e47e6bd2a8c51cbc58e670100000000fdffffff02d39d020000000000160014cff54fa3c9b1894bb68cff35aa318337e64160abcc126f0000000000160014a3a6b1814221b740e95af4fa012cea48c0eb7d4102473044022013c6529cac9c6ed3137bbe3397003b67306ee56d919affe60ae47a1f0e62692502206408192dc7d48b8cb4306adaea6d95bacb1e961c25c2f24a7a7a46ae4d687ff0012102258f0f311b94707239a097c93fb220784987080a7f19b5daa536bee2a2990c944dbc0c00"
}