{
  "txid": "ba61babda725bb53aa37475a778988c3e84029081852f0f2be114a98f46385f6",
  "version": 1,
  "locktime": 0,
  "vin": [
    {
      "txid": "a344e2a24299aae5b4984005921308b7eee06750e31cdb1fa69ca90ce67a355b",
      "vout": 0,
      "prevout": {
        "scriptpubkey": "0014f1c35e78988366896059fa14394194bf06f62f54",
        "scriptpubkey_asm": "OP_0 OP_PUSHBYTES_20 f1c35e78988366896059fa14394194bf06f62f54",
        "scriptpubkey_type": "v0_p2wpkh",
        "scriptpubkey_address": "bc1q78p4u7ycsdngjczelg2rjsv5hur0vt65uum0mu",
        "value": 10152108
      },
      "scriptsig": "",
      "scriptsig_asm": "",
      "witness": [
        "3045022100da7d68b337b284d37c68b0fa9957c0e9e0297775d4a8cd78c80780995108eccf022006d78041abdd2fafdc3e7f05cb2c42903a3366d3c584d01b072f835da58ee93701",
        "0236608e671a8542f4f00678c4e1412d127e861e96cc9a164b340c0321c527befc"
      ],
      "is_coinbase": false,
      "sequence": 4294967295
    }
  ],
  "vout": [
    {
      "scriptpubkey": "76a91457e62312fbe488f4f0417f6885a6e905624d50ce88ac",
      "scriptpubkey_asm": "OP_DUP OP_HASH160 OP_PUSHBYTES_20 57e62312fbe488f4f0417f6885a6e905624d50ce OP_EQUALVERIFY OP_CHECKSIG",
      "scriptpubkey_type": "p2pkh",
      "scriptpubkey_address": "191mUtZKi3xESFPMNppNZaUEJEja7zTiEu",
      "value": 2774723
    },
    {
      "scriptpubkey": "001447fde0def9d3d694b86f82e31ef94ca5761698e6",
      "scriptpubkey_asm": "OP_0 OP_PUSHBYTES_20 47fde0def9d3d694b86f82e31ef94ca5761698e6",
      "scriptpubkey_type": "v0_p2wpkh",
      "scriptpubkey_address": "bc1qgl77phhe60tffwr0st33a72v54mpdx8xr66cxv",
      "value": 7374001
    }
  ],
  "size": 226,
  "weight": 574,
  "fee": 3384,
  "status": {
    "confirmed": true,
    "block_height": 834460,
    "block_hash": "00000000000000000000484a79b643b2524bbce82e5d8a442013fa5b8905ed98",
    "block_time": 1710307468
  },
  "hex": "010000000001015b357ae60ca99ca61fdb1ce35067e0eeb7081392054098b4e5aa9942a2e244a30000000000ffffffff02c3562a00000000001976a91457e62312fbe488f4f0417f6885a6e905624d50ce88acb18470000000000016001447fde0def9d3d694b86f82e31ef94ca5761698e602483045022100da7d68b337b284d37c68b0fa9957c0e9e0297775d4a8cd78c80780995108eccf022006d78041abdd2fafdc3e7f05cb2c42903a3366d3c584d01b072f835da58ee93701210236608e671a8542f4f00678c4e1412d127e861e96cc9a164b340c0321c527befc00000000"
}