{
  "txid": "ba6b07d56fe2896d728d08f66e68432d09212fecfce6f8dd6c781d92413d97cf",
  "version": 2,
  "locktime": 0,
  "vin": [
    {
      "txid": "b13bb5512a4904c28a6b7957b88edf574e8cb23551fc1dcfe22d6b239df42cf4",
      "vout": 86,
      "prevout": {
        "scriptpubkey": "5120638136b314888afb17a0f98b3550955847925c25aef95e0d0e0dfb6ae63eae83",
        "scriptpubkey_asm": "OP_PUSHNUM_1 OP_PUSHBYTES_32 638136b314888afb17a0f98b3550955847925c25aef95e0d0e0dfb6ae63eae83",
        "scriptpubkey_type": "v1_p2tr",
        "scriptpubkey_address": "bc1pvwqndvc53z90k9aqlx9n25y4tpreyhp94mu4urgwphak4e3746psdcwpmu",
        "value": 2575
      },
      "scriptsig": "",
      "scriptsig_asm": "",
      "witness": [
        "b12b265c863d466fe84e68ec92eef6c0a4c948fc6a49eb70fbe964e06d61d09c04ef11ea37dd23cbb90ecc76b7a55e2fedbd42aa2337bc18236c616625b71653",
        "2058f5f903c2d03678bb699218376170c1ee09ec072f98f52153a261039ad29635ac0063036f726401010a746578742f706c61696e00367b2270223a226272632d3230222c226f70223a226d696e74222c227469636b223a2261616161222c22616d74223a223130303030227d68",
        "c058f5f903c2d03678bb699218376170c1ee09ec072f98f52153a261039ad29635"
      ],
      "is_coinbase": false,
      "sequence": 4261412863
    }
  ],
  "vout": [
    {
      "scriptpubkey": "0014ce0b5aa0dac72397a8aa5a85d90a2cfb46f0f630",
      "scriptpubkey_asm": "OP_0 OP_PUSHBYTES_20 ce0b5aa0dac72397a8aa5a85d90a2cfb46f0f630",
      "scriptpubkey_type": "v0_p2wpkh",
      "scriptpubkey_address": "bc1qec944gx6cu3e0292t2zajz3vldr0pa3sh356d9",
      "value": 546
    }
  ],
  "size": 295,
  "weight": 541,
  "fee": 2029,
  "status": {
    "confirmed": true,
    "block_height": 834464,
    "block_hash": "0000000000000000000177a0869a911a2b65c9bdcd5a8bcb02b68f305bee848e",
    "block_time": 1710308296
  },
  "hex": "02000000000101f42cf49d236b2de2cf1dfc5135b28c4e57df8eb857796b8ac204492a51b53bb15600000000fffffffd012202000000000000160014ce0b5aa0dac72397a8aa5a85d90a2cfb46f0f6300340b12b265c863d466fe84e68ec92eef6c0a4c948fc6a49eb70fbe964e06d61d09c04ef11ea37dd23cbb90ecc76b7a55e2fedbd42aa2337bc18236c616625b716536e2058f5f903c2d03678bb699218376170c1ee09ec072f98f52153a261039ad29635ac0063036f726401010a746578742f706c61696e00367b2270223a226272632d3230222c226f70223a226d696e74222c227469636b223a2261616161222c22616d74223a223130303030227d6821c058f5f903c2d03678bb699218376170c1ee09ec072f98f52153a261039ad2963500000000"
}