{
  "txid": "ba7fe3d6bba6e8b9aa6c3153cf395182383929fd837e13ee8222174b34eb2427",
  "version": 2,
  "locktime": 0,
  "vin": [
    {
      "txid": "acc3ba00869acb582a3f2904ce3a11dd3779350ce234063fc7d0959246213364",
      "vout": 249,
      "prevout": {
        "scriptpubkey": "51207f2cdb7a9e2d1156cf85ede7644f313084f0c27130bfe4fa782025e421c46a0f",
        "scriptpubkey_asm": "OP_PUSHNUM_1 OP_PUSHBYTES_32 7f2cdb7a9e2d1156cf85ede7644f313084f0c27130bfe4fa782025e421c46a0f",
        "scriptpubkey_type": "v1_p2tr",
        "scriptpubkey_address": "bc1p0ukdk75795g4dnu9ahnkgne3xzz0psn3xzl7f7ncyqj7ggwydg8skyu5qr",
        "value": 1806
      },
      "scriptsig": "",
      "scriptsig_asm": "",
      "witness": [
        "945f5c47ddce15119145ae6f1b3ef12266309ac745a9663a112e25c9b118c4a19c09a7c41ca14ab7cc30a95d6364e05ca1a3382527fbc94e190b28bfbcccd084",
        "20db52d4be37a783c0f36ca7a3c5746e0e56ddc580a0aca1c21fd8a76878f0cb2eac0063036f726401010a746578742f706c61696e00357b2270223a226272632d3230222c226f70223a226d696e74222c227469636b223a22646f6765222c22616d74223a2234323030227d68",
        "c1db52d4be37a783c0f36ca7a3c5746e0e56ddc580a0aca1c21fd8a76878f0cb2e"
      ],
      "is_coinbase": false,
      "sequence": 4261412863
    }
  ],
  "vout": [
    {
      "scriptpubkey": "00147a665de7a370f4c9b372ab1fae587500a5bcbdb4",
      "scriptpubkey_asm": "OP_0 OP_PUSHBYTES_20 7a665de7a370f4c9b372ab1fae587500a5bcbdb4",
      "scriptpubkey_type": "v0_p2wpkh",
      "scriptpubkey_address": "bc1q0fn9mearwr6vnvmj4v06ukr4qzjme0d565dzcx",
      "value": 294
    }
  ],
  "size": 294,
  "weight": 540,
  "fee": 1512,
  "status": {
    "confirmed": true,
    "block_height": 834460,
    "block_hash": "00000000000000000000484a79b643b2524bbce82e5d8a442013fa5b8905ed98",
    "block_time": 1710307468
  },
  "hex": "02000000000101643321469295d0c73f0634e20c357937dd113ace04293f2a58cb9a8600bac3acf900000000fffffffd0126010000000000001600147a665de7a370f4c9b372ab1fae587500a5bcbdb40340945f5c47ddce15119145ae6f1b3ef12266309ac745a9663a112e25c9b118c4a19c09a7c41ca14ab7cc30a95d6364e05ca1a3382527fbc94e190b28bfbcccd0846d20db52d4be37a783c0f36ca7a3c5746e0e56ddc580a0aca1c21fd8a76878f0cb2eac0063036f726401010a746578742f706c61696e00357b2270223a226272632d3230222c226f70223a226d696e74222c227469636b223a22646f6765222c22616d74223a2234323030227d6821c1db52d4be37a783c0f36ca7a3c5746e0e56ddc580a0aca1c21fd8a76878f0cb2e00000000"
}