{
  "txid": "baa024b1df51e31141c2906e082b5a1bb04e1f4353ce4ffdaf7d106bca0c0dfc",
  "version": 2,
  "locktime": 0,
  "vin": [
    {
      "txid": "945ba8d4ae757dce36cd5e5b9cb282a5396c6e6972016ea5d78f63b2e8fe9e52",
      "vout": 19,
      "prevout": {
        "scriptpubkey": "5120c02726c14ff9e08ff57b678e08c471e8068fb6ea8017c20052a4c06030ef21c5",
        "scriptpubkey_asm": "OP_PUSHNUM_1 OP_PUSHBYTES_32 c02726c14ff9e08ff57b678e08c471e8068fb6ea8017c20052a4c06030ef21c5",
        "scriptpubkey_type": "v1_p2tr",
        "scriptpubkey_address": "bc1pcqnjds20l8sglatmv78q33r3aqrgldh2sqtuyqzj5nqxqv80y8zs0vt8k8",
        "value": 2862
      },
      "scriptsig": "",
      "scriptsig_asm": "",
      "witness": [
        "23fb085f39d071672530cb1206d1eb7efc25183d3d82f70e8ac9343431bb4e49e0d3fa217aa2cbccff5f4f6f0f8d6ad9a0acc68675e90d1e432bee48ebb89b42",
        "2029a57e88ac81a6119ca88a1af956284a1c279b918edf0ddb90dc5d965ed0108bac0063036f726401011e6170706c69636174696f6e2f6a736f6e3b636861727365743d7574662d38004cd37b2270223a22706f772d3230222c226f70223a226d696e74222c227469636b223a2250455045222c22616d74223a2231303030222c22736f6c7574696f6e223a22504550453a62633170367a67656779647861737432786571616535763930396434396a323636786e707a6178776634386336786b736871703766797a717734733761663a303030303030303030303030303030303030303139393431613561653132383937363539383134343239323533333030353762306461393666336465613163353a3135363439383634363737227d68",
        "c15067337a99a00666fd957e65b5c212a7b30f6b410af3fccba2d4635da920c85e"
      ],
      "is_coinbase": false,
      "sequence": 4294967295
    }
  ],
  "vout": [
    {
      "scriptpubkey": "5120d0919411a6ec16a3641dcd185795b52c95ad1a61174ce4d4f8d1ad0b803e4904",
      "scriptpubkey_asm": "OP_PUSHNUM_1 OP_PUSHBYTES_32 d0919411a6ec16a3641dcd185795b52c95ad1a61174ce4d4f8d1ad0b803e4904",
      "scriptpubkey_type": "v1_p2tr",
      "scriptpubkey_address": "bc1p6zgegydxast2xeqae5v909d49j266xnpzaxwf48c6xkshqp7fyzqw4s7af",
      "value": 546
    }
  ],
  "size": 487,
  "weight": 769,
  "fee": 2316,
  "status": {
    "confirmed": true,
    "block_height": 834460,
    "block_hash": "00000000000000000000484a79b643b2524bbce82e5d8a442013fa5b8905ed98",
    "block_time": 1710307468
  },
  "hex": "02000000000101529efee8b2638fd7a56e0172696e6c39a582b29c5b5ecd36ce7d75aed4a85b941300000000ffffffff012202000000000000225120d0919411a6ec16a3641dcd185795b52c95ad1a61174ce4d4f8d1ad0b803e4904034023fb085f39d071672530cb1206d1eb7efc25183d3d82f70e8ac9343431bb4e49e0d3fa217aa2cbccff5f4f6f0f8d6ad9a0acc68675e90d1e432bee48ebb89b42fd20012029a57e88ac81a6119ca88a1af956284a1c279b918edf0ddb90dc5d965ed0108bac0063036f726401011e6170706c69636174696f6e2f6a736f6e3b636861727365743d7574662d38004cd37b2270223a22706f772d3230222c226f70223a226d696e74222c227469636b223a2250455045222c22616d74223a2231303030222c22736f6c7574696f6e223a22504550453a62633170367a67656779647861737432786571616535763930396434396a323636786e707a6178776634386336786b736871703766797a717734733761663a303030303030303030303030303030303030303139393431613561653132383937363539383134343239323533333030353762306461393666336465613163353a3135363439383634363737227d6821c15067337a99a00666fd957e65b5c212a7b30f6b410af3fccba2d4635da920c85e00000000"
}