{
  "txid": "babb445aeb40a48ad9ce7c1e6fdf741c3d5f8ebcc5695a66d9ffeb1db4a505a8",
  "version": 2,
  "locktime": 0,
  "vin": [
    {
      "txid": "2ee7e9bc2f0f43192f5d2dcb9ba2f7bf417e46f7a86aea7e61bf494a2116911f",
      "vout": 6,
      "prevout": {
        "scriptpubkey": "5120f01736dfc545144cc84a0dc4c1e984c10a76335be5fc9bb13e454086051f54ea",
        "scriptpubkey_asm": "OP_PUSHNUM_1 OP_PUSHBYTES_32 f01736dfc545144cc84a0dc4c1e984c10a76335be5fc9bb13e454086051f54ea",
        "scriptpubkey_type": "v1_p2tr",
        "scriptpubkey_address": "bc1p7qtndh79g52yejz2phzvr6vycy98vv6muh7fhvf7g4qgvpgl2n4qcumpk0",
        "value": 2862
      },
      "scriptsig": "",
      "scriptsig_asm": "",
      "witness": [
        "70b2319b6d1a08d7c13777b345f56a9c42672d6c0e7cf8362d139dafe5ce7a8e79056fc5a9a9698750cddb22d4c3f5271557510692fd02b9b1957fe0b611a4aa",
        "20fb178cb8ed9e9e5a5c8a7381f98ed2384d7265b8cda14272b2e983dac25548faac0063036f726401011e6170706c69636174696f6e2f6a736f6e3b636861727365743d7574662d38004cd37b2270223a22706f772d3230222c226f70223a226d696e74222c227469636b223a2250455045222c22616d74223a2231303030222c22736f6c7574696f6e223a22504550453a6263317032643677617a36736d6332646c33337861686b7364747a70793379397164713670677072776d3535376d303063646135303976733972333779633a303030303030303030303030303030303030303139393431613561653132383937363539383134343239323533333030353762306461393666336465613163353a3231343039363138313338227d68",
        "c0c302becc0a7fa5f96ff01f380e695b2faa1e460e5e66e108f6410cf3df3f4a28"
      ],
      "is_coinbase": false,
      "sequence": 4294967295
    }
  ],
  "vout": [
    {
      "scriptpubkey": "51205374ee8b50de14dfc626eded06ac41244850341a0a02376e94f6defc37b47959",
      "scriptpubkey_asm": "OP_PUSHNUM_1 OP_PUSHBYTES_32 5374ee8b50de14dfc626eded06ac41244850341a0a02376e94f6defc37b47959",
      "scriptpubkey_type": "v1_p2tr",
      "scriptpubkey_address": "bc1p2d6waz6smc2dl33xahksdtzpy3y9qdq6pgprwm557m00cda509vs9r37yc",
      "value": 546
    }
  ],
  "size": 487,
  "weight": 769,
  "fee": 2316,
  "status": {
    "confirmed": true,
    "block_height": 834460,
    "block_hash": "00000000000000000000484a79b643b2524bbce82e5d8a442013fa5b8905ed98",
    "block_time": 1710307468
  },
  "hex": "020000000001011f9116214a49bf617eea6aa8f7467e41bff7a29bcb2d5d2f19430f2fbce9e72e0600000000ffffffff0122020000000000002251205374ee8b50de14dfc626eded06ac41244850341a0a02376e94f6defc37b47959034070b2319b6d1a08d7c13777b345f56a9c42672d6c0e7cf8362d139dafe5ce7a8e79056fc5a9a9698750cddb22d4c3f5271557510692fd02b9b1957fe0b611a4aafd200120fb178cb8ed9e9e5a5c8a7381f98ed2384d7265b8cda14272b2e983dac25548faac0063036f726401011e6170706c69636174696f6e2f6a736f6e3b636861727365743d7574662d38004cd37b2270223a22706f772d3230222c226f70223a226d696e74222c227469636b223a2250455045222c22616d74223a2231303030222c22736f6c7574696f6e223a22504550453a6263317032643677617a36736d6332646c33337861686b7364747a70793379397164713670677072776d3535376d303063646135303976733972333779633a303030303030303030303030303030303030303139393431613561653132383937363539383134343239323533333030353762306461393666336465613163353a3231343039363138313338227d6821c0c302becc0a7fa5f96ff01f380e695b2faa1e460e5e66e108f6410cf3df3f4a2800000000"
}