{
  "txid": "bac8a93b420cfbd2481d6bd51ab68668a964011a9ad74956140c75f229e6761d",
  "version": 1,
  "locktime": 0,
  "vin": [
    {
      "txid": "c8a47c31abd2d1018e3ec7f3b181055b6c0dbc032731e9da05ffbd6114fd1838",
      "vout": 1,
      "prevout": {
        "scriptpubkey": "a914cfef174e7fac076aea9a038feae06c98a0e80e1687",
        "scriptpubkey_asm": "OP_HASH160 OP_PUSHBYTES_20 cfef174e7fac076aea9a038feae06c98a0e80e16 OP_EQUAL",
        "scriptpubkey_type": "p2sh",
        "scriptpubkey_address": "3LeUDb9AdpxMpeA9NxHpJdKBTYUgZFgxQY",
        "value": 500000000
      },
      "scriptsig": "00483045022100b831ffd81c11f1c37db6b464c9c189f2dbd074bf982fdc07e9cba6f1523261dc0220527e8fbdce4f47f08817ce25c1dbff56443923606904420aa9f313625d1a93b20148304502210087e9b569b4ecfb16a1841243a2d92c5105c8f21dbe52f0bde38dab050753608002205b46a4a93a6c6a6dc81db0684f45d2a55ca8e582fc4012db8d422addf1e93974014c69522103fe5ad942a5b7eecdc532221f732b47ee9e9558aa05435313ed799e178daefbcd210300906ac283d1ab396a37d2bf602c55b671dadb305d15a4b272c8ec9d5a855c872103f6200e5218a6b2e93a682772b0c3c74e4e4e65e49c2456293962821bdf9013da53ae",
      "scriptsig_asm": "OP_0 OP_PUSHBYTES_72 3045022100b831ffd81c11f1c37db6b464c9c189f2dbd074bf982fdc07e9cba6f1523261dc0220527e8fbdce4f47f08817ce25c1dbff56443923606904420aa9f313625d1a93b201 OP_PUSHBYTES_72 304502210087e9b569b4ecfb16a1841243a2d92c5105c8f21dbe52f0bde38dab050753608002205b46a4a93a6c6a6dc81db0684f45d2a55ca8e582fc4012db8d422addf1e9397401 OP_PUSHDATA1 522103fe5ad942a5b7eecdc532221f732b47ee9e9558aa05435313ed799e178daefbcd210300906ac283d1ab396a37d2bf602c55b671dadb305d15a4b272c8ec9d5a855c872103f6200e5218a6b2e93a682772b0c3c74e4e4e65e49c2456293962821bdf9013da53ae",
      "is_coinbase": false,
      "sequence": 4294967295,
      "inner_redeemscript_asm": "OP_PUSHNUM_2 OP_PUSHBYTES_33 03fe5ad942a5b7eecdc532221f732b47ee9e9558aa05435313ed799e178daefbcd OP_PUSHBYTES_33 0300906ac283d1ab396a37d2bf602c55b671dadb305d15a4b272c8ec9d5a855c87 OP_PUSHBYTES_33 03f6200e5218a6b2e93a682772b0c3c74e4e4e65e49c2456293962821bdf9013da OP_PUSHNUM_3 OP_CHECKMULTISIG"
    }
  ],
  "vout": [
    {
      "scriptpubkey": "a9149db2c44bd42096acf690ea27b14d56779d61befd87",
      "scriptpubkey_asm": "OP_HASH160 OP_PUSHBYTES_20 9db2c44bd42096acf690ea27b14d56779d61befd OP_EQUAL",
      "scriptpubkey_type": "p2sh",
      "scriptpubkey_address": "3G4rAbTVrGjfg1WT9zCUtYApFuRvZhDDmd",
      "value": 137031
    },
    {
      "scriptpubkey": "a914c912018a7fe54048d8ebfd944dfa3f7c31dd73f987",
      "scriptpubkey_asm": "OP_HASH160 OP_PUSHBYTES_20 c912018a7fe54048d8ebfd944dfa3f7c31dd73f9 OP_EQUAL",
      "scriptpubkey_type": "p2sh",
      "scriptpubkey_address": "3L2BKBVyCGvD2Hgdfh4mpoePSA4rZDXFJQ",
      "value": 11000000
    },
    {
      "scriptpubkey": "5120da7a6cda7ed43736c498206b13e0d50e9b4623564594628c9184d37530aa24d7",
      "scriptpubkey_asm": "OP_PUSHNUM_1 OP_PUSHBYTES_32 da7a6cda7ed43736c498206b13e0d50e9b4623564594628c9184d37530aa24d7",
      "scriptpubkey_type": "v1_p2tr",
      "scriptpubkey_address": "bc1pmfaxekn76smnd3ycyp438cx4p6d5vg6kgk2x9ry3snfh2v92ynts3xsnaq",
      "value": 1075000
    },
    {
      "scriptpubkey": "76a914ea8295ff01de58821e42c46ee26a3626000152e388ac",
      "scriptpubkey_asm": "OP_DUP OP_HASH160 OP_PUSHBYTES_20 ea8295ff01de58821e42c46ee26a3626000152e3 OP_EQUALVERIFY OP_CHECKSIG",
      "scriptpubkey_type": "p2pkh",
      "scriptpubkey_address": "1NNyZA83wZgxfmPdi7tfidjGJwpFvGUXgG",
      "value": 180000
    },
    {
      "scriptpubkey": "5120145ab075a2abfca0dc6a986a2144b0986f6f2c8f748bde0f82f83f2f9d9b3d0a",
      "scriptpubkey_asm": "OP_PUSHNUM_1 OP_PUSHBYTES_32 145ab075a2abfca0dc6a986a2144b0986f6f2c8f748bde0f82f83f2f9d9b3d0a",
      "scriptpubkey_type": "v1_p2tr",
      "scriptpubkey_address": "bc1pz3dtqadz4072phr2np4zz39snphk7ty0wj9auruzlqljl8vm859q8j76c5",
      "value": 13607139
    },
    {
      "scriptpubkey": "5120ef70967c274c2e1e54fd5ec5985d90a4379a12f9e632b446a5e3818f4e9094e8",
      "scriptpubkey_asm": "OP_PUSHNUM_1 OP_PUSHBYTES_32 ef70967c274c2e1e54fd5ec5985d90a4379a12f9e632b446a5e3818f4e9094e8",
      "scriptpubkey_type": "v1_p2tr",
      "scriptpubkey_address": "bc1paacfvlp8fshpu48atmzeshvs5sme5yheucetg349uwqc7n5sjn5qn2hh6l",
      "value": 1075000
    },
    {
      "scriptpubkey": "0014dea69a56bdf97e1c2326960e651c4764928352f1",
      "scriptpubkey_asm": "OP_0 OP_PUSHBYTES_20 dea69a56bdf97e1c2326960e651c4764928352f1",
      "scriptpubkey_type": "v0_p2wpkh",
      "scriptpubkey_address": "bc1qm6nf544al9lpcgexjc8x28z8vjfgx5h3vkxjky",
      "value": 770000
    },
    {
      "scriptpubkey": "76a9140f0c49448158ff4ebd58af5880a9bdd954d34c5488ac",
      "scriptpubkey_asm": "OP_DUP OP_HASH160 OP_PUSHBYTES_20 0f0c49448158ff4ebd58af5880a9bdd954d34c54 OP_EQUALVERIFY OP_CHECKSIG",
      "scriptpubkey_type": "p2pkh",
      "scriptpubkey_address": "12NZrYBqvjEmqQ6kWNkanstMX1xaWeCtLf",
      "value": 47910400
    },
    {
      "scriptpubkey": "512004ac0b433194fcc5d7c6239a00c207f00a6ad1de75f8c76a76190f5c4220a0af",
      "scriptpubkey_asm": "OP_PUSHNUM_1 OP_PUSHBYTES_32 04ac0b433194fcc5d7c6239a00c207f00a6ad1de75f8c76a76190f5c4220a0af",
      "scriptpubkey_type": "v1_p2tr",
      "scriptpubkey_address": "bc1pqjkqkse3jn7vt47xywdqpss87q9x45w7whuvw6nkry84cs3q5zhsmph0vx",
      "value": 1075000
    },
    {
      "scriptpubkey": "001481572d0bbcb1bdfbaf4433d9d4665326d7b90087",
      "scriptpubkey_asm": "OP_0 OP_PUSHBYTES_20 81572d0bbcb1bdfbaf4433d9d4665326d7b90087",
      "scriptpubkey_type": "v0_p2wpkh",
      "scriptpubkey_address": "bc1qs9tj6zaukx7lht6yx0vagejnymtmjqy82p5v7z",
      "value": 5996000
    },
    {
      "scriptpubkey": "51209e21f45182dbd6f2c8fbb8c03b64fce124e1cb24016c91d82a6733e8d8edc76c",
      "scriptpubkey_asm": "OP_PUSHNUM_1 OP_PUSHBYTES_32 9e21f45182dbd6f2c8fbb8c03b64fce124e1cb24016c91d82a6733e8d8edc76c",
      "scriptpubkey_type": "v1_p2tr",
      "scriptpubkey_address": "bc1pncslg5vzm0t09j8mhrqrke8uuyjwrjeyq9kfrkp2vue73k8dcakqqrssm9",
      "value": 1075000
    },
    {
      "scriptpubkey": "512093ca1b746301807bb7ee01b2a7f723a2bb124a0715b05caabdc58fe24278bd16",
      "scriptpubkey_asm": "OP_PUSHNUM_1 OP_PUSHBYTES_32 93ca1b746301807bb7ee01b2a7f723a2bb124a0715b05caabdc58fe24278bd16",
      "scriptpubkey_type": "v1_p2tr",
      "scriptpubkey_address": "bc1pj09pkarrqxq8hdlwqxe20aer52a3yjs8zkc9e24ack87ysnch5tqh9ag38",
      "value": 159113
    },
    {
      "scriptpubkey": "a914040de1e04794cee6394d152d312fe1546247d4dc87",
      "scriptpubkey_asm": "OP_HASH160 OP_PUSHBYTES_20 040de1e04794cee6394d152d312fe1546247d4dc OP_EQUAL",
      "scriptpubkey_type": "p2sh",
      "scriptpubkey_address": "324TFsYECtfeXKzDkp4be977NepaCK7Fdw",
      "value": 760000
    },
    {
      "scriptpubkey": "5120799da7a0aa9397aea17212bf6b1b0d40655b84441f2adeeb6078311fef9be9d2",
      "scriptpubkey_asm": "OP_PUSHNUM_1 OP_PUSHBYTES_32 799da7a0aa9397aea17212bf6b1b0d40655b84441f2adeeb6078311fef9be9d2",
      "scriptpubkey_type": "v1_p2tr",
      "scriptpubkey_address": "bc1p0xw60g92jwt6agtjz2lkkxcdgpj4hpzyru4da6mq0qc3lmuma8fq2fpmgs",
      "value": 1075000
    },
    {
      "scriptpubkey": "51207909535345e09b5293dbb02df0b61e840ba874ae8c2bb6aadd42b33d2efb1e38",
      "scriptpubkey_asm": "OP_PUSHNUM_1 OP_PUSHBYTES_32 7909535345e09b5293dbb02df0b61e840ba874ae8c2bb6aadd42b33d2efb1e38",
      "scriptpubkey_type": "v1_p2tr",
      "scriptpubkey_address": "bc1p0yy4x569uzd49y7mkqklpds7ss96sa9w3s4md2kag2en6thmrcuqfmtd0l",
      "value": 1075000
    },
    {
      "scriptpubkey": "512045f55d8e47c1bd7185b3ee38e72dab3e74e2570a8787ed79581b1d2489d3e88f",
      "scriptpubkey_asm": "OP_PUSHNUM_1 OP_PUSHBYTES_32 45f55d8e47c1bd7185b3ee38e72dab3e74e2570a8787ed79581b1d2489d3e88f",
      "scriptpubkey_type": "v1_p2tr",
      "scriptpubkey_address": "bc1pgh64mrj8cx7hrpdnacuwwtdt8e6wy4c2s7r7672crvwjfzwnaz8sz6ltz8",
      "value": 131114
    },
    {
      "scriptpubkey": "5120dd117976b00d466f119c542fb32a618b3ec950a36d5106d3b4cb18d307d7114f",
      "scriptpubkey_asm": "OP_PUSHNUM_1 OP_PUSHBYTES_32 dd117976b00d466f119c542fb32a618b3ec950a36d5106d3b4cb18d307d7114f",
      "scriptpubkey_type": "v1_p2tr",
      "scriptpubkey_address": "bc1pm5ghja4sp4rx7yvu2shmx2np3vlvj59rd4gsd5a5evvdxp7hz98sz9h8f5",
      "value": 1075000
    },
    {
      "scriptpubkey": "a9142e850dc9e8eb6c178e35074d14e81b491838a28687",
      "scriptpubkey_asm": "OP_HASH160 OP_PUSHBYTES_20 2e850dc9e8eb6c178e35074d14e81b491838a286 OP_EQUAL",
      "scriptpubkey_type": "p2sh",
      "scriptpubkey_address": "35vzQ7UFiUj88vNd5rdLGtRQQU2rmjcD6r",
      "value": 673233
    },
    {
      "scriptpubkey": "51202c759e0cc5c1442e3971582cf0690f1537e966f1f558681f9a0d48ee209419ab",
      "scriptpubkey_asm": "OP_PUSHNUM_1 OP_PUSHBYTES_32 2c759e0cc5c1442e3971582cf0690f1537e966f1f558681f9a0d48ee209419ab",
      "scriptpubkey_type": "v1_p2tr",
      "scriptpubkey_address": "bc1p936eurx9c9zzuwt3tqk0q6g0z5m7jeh374vxs8u6p4ywugy5rx4szfsxly",
      "value": 1075000
    },
    {
      "scriptpubkey": "5120eb4f1e3a33a9358aaa8acd2924ee2519e7a7b4b267b4a95790084dd0953eca98",
      "scriptpubkey_asm": "OP_PUSHNUM_1 OP_PUSHBYTES_32 eb4f1e3a33a9358aaa8acd2924ee2519e7a7b4b267b4a95790084dd0953eca98",
      "scriptpubkey_type": "v1_p2tr",
      "scriptpubkey_address": "bc1pad83uw3n4y6c4252e55jfm39r8n60d9jv762j4usppxap9f7e2vqn8jst6",
      "value": 1075000
    },
    {
      "scriptpubkey": "0020e5c7c00d174631d2d1e365d6347b016fb87b6a0c08902d8e443989cb771fa7ec",
      "scriptpubkey_asm": "OP_0 OP_PUSHBYTES_32 e5c7c00d174631d2d1e365d6347b016fb87b6a0c08902d8e443989cb771fa7ec",
      "scriptpubkey_type": "v0_p2wsh",
      "scriptpubkey_address": "bc1quhruqrghgcca950rvhtrg7cpd7u8k6svpzgzmrjy8xyukacl5lkq0r8l2d",
      "value": 408914970
    }
  ],
  "size": 1124,
  "weight": 4496,
  "fee": 86000,
  "status": {
    "confirmed": true,
    "block_height": 834638,
    "block_hash": "000000000000000000025f742c626208ac87e0b7d15054abb4a19ca2d735a54e",
    "block_time": 1710405325
  },
  "hex": "01000000013818fd1461bdff05dae9312703bc0d6c5b0581b1f3c73e8e01d1d2ab317ca4c801000000fdfe0000483045022100b831ffd81c11f1c37db6b464c9c189f2dbd074bf982fdc07e9cba6f1523261dc0220527e8fbdce4f47f08817ce25c1dbff56443923606904420aa9f313625d1a93b20148304502210087e9b569b4ecfb16a1841243a2d92c5105c8f21dbe52f0bde38dab050753608002205b46a4a93a6c6a6dc81db0684f45d2a55ca8e582fc4012db8d422addf1e93974014c69522103fe5ad942a5b7eecdc532221f732b47ee9e9558aa05435313ed799e178daefbcd210300906ac283d1ab396a37d2bf602c55b671dadb305d15a4b272c8ec9d5a855c872103f6200e5218a6b2e93a682772b0c3c74e4e4e65e49c2456293962821bdf9013da53aeffffffff15471702000000000017a9149db2c44bd42096acf690ea27b14d56779d61befd87c0d8a7000000000017a914c912018a7fe54048d8ebfd944dfa3f7c31dd73f9873867100000000000225120da7a6cda7ed43736c498206b13e0d50e9b4623564594628c9184d37530aa24d720bf0200000000001976a914ea8295ff01de58821e42c46ee26a3626000152e388ace3a0cf0000000000225120145ab075a2abfca0dc6a986a2144b0986f6f2c8f748bde0f82f83f2f9d9b3d0a3867100000000000225120ef70967c274c2e1e54fd5ec5985d90a4379a12f9e632b446a5e3818f4e9094e8d0bf0b0000000000160014dea69a56bdf97e1c2326960e651c4764928352f1000edb02000000001976a9140f0c49448158ff4ebd58af5880a9bdd954d34c5488ac386710000000000022512004ac0b433194fcc5d7c6239a00c207f00a6ad1de75f8c76a76190f5c4220a0afe07d5b000000000016001481572d0bbcb1bdfbaf4433d9d4665326d7b9008738671000000000002251209e21f45182dbd6f2c8fbb8c03b64fce124e1cb24016c91d82a6733e8d8edc76c896d02000000000022512093ca1b746301807bb7ee01b2a7f723a2bb124a0715b05caabdc58fe24278bd16c0980b000000000017a914040de1e04794cee6394d152d312fe1546247d4dc873867100000000000225120799da7a0aa9397aea17212bf6b1b0d40655b84441f2adeeb6078311fef9be9d238671000000000002251207909535345e09b5293dbb02df0b61e840ba874ae8c2bb6aadd42b33d2efb1e382a0002000000000022512045f55d8e47c1bd7185b3ee38e72dab3e74e2570a8787ed79581b1d2489d3e88f3867100000000000225120dd117976b00d466f119c542fb32a618b3ec950a36d5106d3b4cb18d307d7114fd1450a000000000017a9142e850dc9e8eb6c178e35074d14e81b491838a2868738671000000000002251202c759e0cc5c1442e3971582cf0690f1537e966f1f558681f9a0d48ee209419ab3867100000000000225120eb4f1e3a33a9358aaa8acd2924ee2519e7a7b4b267b4a95790084dd0953eca981a8c5f1800000000220020e5c7c00d174631d2d1e365d6347b016fb87b6a0c08902d8e443989cb771fa7ec00000000"
}