{
  "txid": "bae5e289f1709552a03e09283a9c4e44e400c52de6923491b4983e3a97eb7087",
  "version": 2,
  "locktime": 0,
  "vin": [
    {
      "txid": "cda2a6929112c05a5164c6a6029ae71529b022f3c1aee6a76fc00736de570f4a",
      "vout": 17,
      "prevout": {
        "scriptpubkey": "51201e2d7e631e85167d2f538b89ed2a0e83b2bf209b1a3fe7011c58757a914be6b5",
        "scriptpubkey_asm": "OP_PUSHNUM_1 OP_PUSHBYTES_32 1e2d7e631e85167d2f538b89ed2a0e83b2bf209b1a3fe7011c58757a914be6b5",
        "scriptpubkey_type": "v1_p2tr",
        "scriptpubkey_address": "bc1prckhucc7s5t86t6n3wy762swswet7gymrgl7wqgutp6h4y2tu66s4x3q4c",
        "value": 1711
      },
      "scriptsig": "",
      "scriptsig_asm": "",
      "witness": [
        "02",
        "750063036f726401010a746578742f706c61696e00367b2270223a226272632d3230222c226f70223a226d696e74222c227469636b223a2261616161222c22616d74223a223130303030227d6851",
        "c1df3132ce091562b5150e601a4643bf625562d04dfdf3e4ede068c09e44ac01ab"
      ],
      "is_coinbase": false,
      "sequence": 4294967295
    }
  ],
  "vout": [
    {
      "scriptpubkey": "0014a40897ac0756778584e7dbe457cca54abc6daf4c",
      "scriptpubkey_asm": "OP_0 OP_PUSHBYTES_20 a40897ac0756778584e7dbe457cca54abc6daf4c",
      "scriptpubkey_type": "v0_p2wpkh",
      "scriptpubkey_address": "bc1q5syf0tq82emctp88m0j90n99f27xmt6v2f79lx",
      "value": 294
    }
  ],
  "size": 200,
  "weight": 446,
  "fee": 1417,
  "status": {
    "confirmed": true,
    "block_height": 834460,
    "block_hash": "00000000000000000000484a79b643b2524bbce82e5d8a442013fa5b8905ed98",
    "block_time": 1710307468
  },
  "hex": "020000000001014a0f57de3607c06fa7e6aec1f322b02915e79a02a6c664515ac0129192a6a2cd1100000000ffffffff012601000000000000160014a40897ac0756778584e7dbe457cca54abc6daf4c0301024e750063036f726401010a746578742f706c61696e00367b2270223a226272632d3230222c226f70223a226d696e74222c227469636b223a2261616161222c22616d74223a223130303030227d685121c1df3132ce091562b5150e601a4643bf625562d04dfdf3e4ede068c09e44ac01ab00000000"
}