{
  "txid": "bae8c033dcfddedab92dbc836025296391f739eb9844db8660bcc04824d11e14",
  "version": 2,
  "locktime": 0,
  "vin": [
    {
      "txid": "413c2b2cc5e44145c4fae3b47dba84756ea4a4c350679e23d5e6f94cfb459f61",
      "vout": 0,
      "prevout": {
        "scriptpubkey": "51205efecf3e2ba05346adf737ce057d5ec7ed35dc13962dc63b376d590b29e4c8c8",
        "scriptpubkey_asm": "OP_PUSHNUM_1 OP_PUSHBYTES_32 5efecf3e2ba05346adf737ce057d5ec7ed35dc13962dc63b376d590b29e4c8c8",
        "scriptpubkey_type": "v1_p2tr",
        "scriptpubkey_address": "bc1ptmlv703t5pf5dt0hxl8q2l27clknthqnjckuvwehd4vsk20yeryqa5u5jq",
        "value": 546
      },
      "scriptsig": "",
      "scriptsig_asm": "",
      "witness": [
        "080f3a92a71088d5dfb7818fba70b2e66a61b3b18b17e5e3a6c1cf065c7a1eba727833e0850a295bcc9f4d6eea65a99b936b0fe9c8b2852d855e78986ff32e8e"
      ],
      "is_coinbase": false,
      "sequence": 2147483649
    },
    {
      "txid": "ec992512e7d851439307cc83d72e5013e3cd7e20905b3e18c1d6771a2e67852e",
      "vout": 1,
      "prevout": {
        "scriptpubkey": "51205efecf3e2ba05346adf737ce057d5ec7ed35dc13962dc63b376d590b29e4c8c8",
        "scriptpubkey_asm": "OP_PUSHNUM_1 OP_PUSHBYTES_32 5efecf3e2ba05346adf737ce057d5ec7ed35dc13962dc63b376d590b29e4c8c8",
        "scriptpubkey_type": "v1_p2tr",
        "scriptpubkey_address": "bc1ptmlv703t5pf5dt0hxl8q2l27clknthqnjckuvwehd4vsk20yeryqa5u5jq",
        "value": 2598
      },
      "scriptsig": "",
      "scriptsig_asm": "",
      "witness": [
        "66bec8be8aeaa98df11675c0226b6ca49da4c546fd999a811f38ed0bb40d10d50e5ef206820c2c8ecf8d07a486ec5d9cc070c5d7c03695e04b4ef92156556a7e"
      ],
      "is_coinbase": false,
      "sequence": 2147483649
    },
    {
      "txid": "310eb0af4897e7b152624ff3c75ede2410ec5fd862e5e6a00e5fc7afe3229394",
      "vout": 0,
      "prevout": {
        "scriptpubkey": "51205efecf3e2ba05346adf737ce057d5ec7ed35dc13962dc63b376d590b29e4c8c8",
        "scriptpubkey_asm": "OP_PUSHNUM_1 OP_PUSHBYTES_32 5efecf3e2ba05346adf737ce057d5ec7ed35dc13962dc63b376d590b29e4c8c8",
        "scriptpubkey_type": "v1_p2tr",
        "scriptpubkey_address": "bc1ptmlv703t5pf5dt0hxl8q2l27clknthqnjckuvwehd4vsk20yeryqa5u5jq",
        "value": 1200
      },
      "scriptsig": "",
      "scriptsig_asm": "",
      "witness": [
        "2ada66d5e3ec83678782454a9b1ab149b2b6aad1dce647c8e5350e23cab979a1e9df9e4c9828fe0e47015221be6c0e5b14e2c7a5a495a028865bbb05b3f5d542"
      ],
      "is_coinbase": false,
      "sequence": 2147483649
    },
    {
      "txid": "3a9eeec54b810c89733fbf49370a59b9ff931cf5fd4054379ef3f1d8a50b7b88",
      "vout": 0,
      "prevout": {
        "scriptpubkey": "51205efecf3e2ba05346adf737ce057d5ec7ed35dc13962dc63b376d590b29e4c8c8",
        "scriptpubkey_asm": "OP_PUSHNUM_1 OP_PUSHBYTES_32 5efecf3e2ba05346adf737ce057d5ec7ed35dc13962dc63b376d590b29e4c8c8",
        "scriptpubkey_type": "v1_p2tr",
        "scriptpubkey_address": "bc1ptmlv703t5pf5dt0hxl8q2l27clknthqnjckuvwehd4vsk20yeryqa5u5jq",
        "value": 1200
      },
      "scriptsig": "",
      "scriptsig_asm": "",
      "witness": [
        "31c017bd73ed79a4d88def71b577154ee027fe6a5e2f67ef3eb3d9d32217c14cb89a7a00dbefe8e377df03beeec0b31091f061af135ec93024448f198e5454db"
      ],
      "is_coinbase": false,
      "sequence": 2147483649
    }
  ],
  "vout": [
    {
      "scriptpubkey": "51208e94e1691119a60b5f8cc15dbadfd1dc16902039c8175dc8c62aae8bcae83153",
      "scriptpubkey_asm": "OP_PUSHNUM_1 OP_PUSHBYTES_32 8e94e1691119a60b5f8cc15dbadfd1dc16902039c8175dc8c62aae8bcae83153",
      "scriptpubkey_type": "v1_p2tr",
      "scriptpubkey_address": "bc1p362wz6g3rxnqkhuvc9wm4h73mstfqgpeeqt4mjxx92hghjhgx9fs7n8myp",
      "value": 546
    }
  ],
  "size": 483,
  "weight": 1134,
  "fee": 4998,
  "status": {
    "confirmed": true,
    "block_height": 834552,
    "block_hash": "00000000000000000001dd0468a70c94f619251d286585cff57aeb4bd9ede330",
    "block_time": 1710355598
  },
  "hex": "02000000000104619f45fb4cf9e6d5239e6750c3a4a46e7584ba7db4e3fac44541e4c52c2b3c410000000000010000802e85672e1a77d6c1183e5b90207ecde313502ed783cc07934351d8e7122599ec010000000001000080949322e3afc75f0ea0e6e562d85fec1024de5ec7f34f6252b1e79748afb00e31000000000001000080887b0ba5d8f1f39e375440fdf51c93ffb9590a3749bf3f73890c814bc5ee9e3a0000000000010000800122020000000000002251208e94e1691119a60b5f8cc15dbadfd1dc16902039c8175dc8c62aae8bcae831530140080f3a92a71088d5dfb7818fba70b2e66a61b3b18b17e5e3a6c1cf065c7a1eba727833e0850a295bcc9f4d6eea65a99b936b0fe9c8b2852d855e78986ff32e8e014066bec8be8aeaa98df11675c0226b6ca49da4c546fd999a811f38ed0bb40d10d50e5ef206820c2c8ecf8d07a486ec5d9cc070c5d7c03695e04b4ef92156556a7e01402ada66d5e3ec83678782454a9b1ab149b2b6aad1dce647c8e5350e23cab979a1e9df9e4c9828fe0e47015221be6c0e5b14e2c7a5a495a028865bbb05b3f5d542014031c017bd73ed79a4d88def71b577154ee027fe6a5e2f67ef3eb3d9d32217c14cb89a7a00dbefe8e377df03beeec0b31091f061af135ec93024448f198e5454db00000000"
}