{
  "txid": "baefc8b06f7965221ac8f2ddf3c73c0bf40d297ef34ba57fa9c0358c8e83fdc1",
  "version": 2,
  "locktime": 0,
  "vin": [
    {
      "txid": "3f69fae8ca9bdd774ca5294e86509449f431bb44e2206cae9f7f495b7952d9e2",
      "vout": 15,
      "prevout": {
        "scriptpubkey": "51200d7de96b18be6be0cd8b280602f5f5c545f7a10f99c8783636e32d606831949a",
        "scriptpubkey_asm": "OP_PUSHNUM_1 OP_PUSHBYTES_32 0d7de96b18be6be0cd8b280602f5f5c545f7a10f99c8783636e32d606831949a",
        "scriptpubkey_type": "v1_p2tr",
        "scriptpubkey_address": "bc1pp477j6cche47pnvt9qrq9a04c4zl0gg0n8y8sd3kuvkkq6p3jjdqvg69az",
        "value": 2996
      },
      "scriptsig": "",
      "scriptsig_asm": "",
      "witness": [
        "ad3044a1e1d64841ac3c286ad3f31ccf14dadc909e25199532bed23a9edbab3c62290bb7100207bc7dff2c848c839d91d04f3d6cd4f757a40a326330ec22c76d",
        "2042132cc54bad0f7c14511f39b3f487b8ed6f0b7663a1b2b0d3093c669183b59bac0063036f726401011e6170706c69636174696f6e2f6a736f6e3b636861727365743d7574662d38004cb77b2270223a22706f772d3230222c226f70223a226d696e74222c227469636b223a2250455045222c22616d74223a2231303030222c22736f6c7574696f6e223a22504550453a334d524d3246744a42504c46315958564766504d33656556746675364446734762623a303030303030303030303030303030303030303139393431613561653132383937363539383134343239323533333030353762306461393666336465613163353a3635313131373534313432227d68",
        "c16b70a06f37e9fa1ff7e7bec8bd1210228b25051d0c17b5264cdd8c73b544f454"
      ],
      "is_coinbase": false,
      "sequence": 4294967295
    }
  ],
  "vout": [
    {
      "scriptpubkey": "a914d86bcd8c487ad519e95c6557e7463d579cce14a287",
      "scriptpubkey_asm": "OP_HASH160 OP_PUSHBYTES_20 d86bcd8c487ad519e95c6557e7463d579cce14a2 OP_EQUAL",
      "scriptpubkey_type": "p2sh",
      "scriptpubkey_address": "3MRM2FtJBPLF1YXVGfPM3eeVtfu6DFsGbb",
      "value": 546
    }
  ],
  "size": 448,
  "weight": 697,
  "fee": 2450,
  "status": {
    "confirmed": true,
    "block_height": 834460,
    "block_hash": "00000000000000000000484a79b643b2524bbce82e5d8a442013fa5b8905ed98",
    "block_time": 1710307468
  },
  "hex": "02000000000101e2d952795b497f9fae6c20e244bb31f4499450864e29a54c77dd9bcae8fa693f0f00000000ffffffff01220200000000000017a914d86bcd8c487ad519e95c6557e7463d579cce14a2870340ad3044a1e1d64841ac3c286ad3f31ccf14dadc909e25199532bed23a9edbab3c62290bb7100207bc7dff2c848c839d91d04f3d6cd4f757a40a326330ec22c76dfd04012042132cc54bad0f7c14511f39b3f487b8ed6f0b7663a1b2b0d3093c669183b59bac0063036f726401011e6170706c69636174696f6e2f6a736f6e3b636861727365743d7574662d38004cb77b2270223a22706f772d3230222c226f70223a226d696e74222c227469636b223a2250455045222c22616d74223a2231303030222c22736f6c7574696f6e223a22504550453a334d524d3246744a42504c46315958564766504d33656556746675364446734762623a303030303030303030303030303030303030303139393431613561653132383937363539383134343239323533333030353762306461393666336465613163353a3635313131373534313432227d6821c16b70a06f37e9fa1ff7e7bec8bd1210228b25051d0c17b5264cdd8c73b544f45400000000"
}