{
  "txid": "bb03e4776d56a4d22d949c3dd586a0397083826ceb4d8bb8b25474eeb83f0cc6",
  "version": 2,
  "locktime": 0,
  "vin": [
    {
      "txid": "acc3ba00869acb582a3f2904ce3a11dd3779350ce234063fc7d0959246213364",
      "vout": 196,
      "prevout": {
        "scriptpubkey": "51206dccab1ae2cdb514614dc900f895aaad55435cd7bdedda1cb57a5ec8b0a8b26c",
        "scriptpubkey_asm": "OP_PUSHNUM_1 OP_PUSHBYTES_32 6dccab1ae2cdb514614dc900f895aaad55435cd7bdedda1cb57a5ec8b0a8b26c",
        "scriptpubkey_type": "v1_p2tr",
        "scriptpubkey_address": "bc1pdhx2kxhzek63gc2deyq039d24425xhxhhhka58940f0v3v9gkfkqzgnvja",
        "value": 1806
      },
      "scriptsig": "",
      "scriptsig_asm": "",
      "witness": [
        "f0668f7636e9f97b19b6f8b910b9e9423b18b50f41fac3f3cdef8dcce7d90168165d545cf253a79cf8776d4ca60dce74257ff76543034eddc396763a9ebad9fa",
        "2056e5ec2d203bed78ad5a9999419fa918cc46d738deec85571d5cf45840c11353ac0063036f726401010a746578742f706c61696e00357b2270223a226272632d3230222c226f70223a226d696e74222c227469636b223a22646f6765222c22616d74223a2234323030227d68",
        "c056e5ec2d203bed78ad5a9999419fa918cc46d738deec85571d5cf45840c11353"
      ],
      "is_coinbase": false,
      "sequence": 4261412863
    }
  ],
  "vout": [
    {
      "scriptpubkey": "00147a665de7a370f4c9b372ab1fae587500a5bcbdb4",
      "scriptpubkey_asm": "OP_0 OP_PUSHBYTES_20 7a665de7a370f4c9b372ab1fae587500a5bcbdb4",
      "scriptpubkey_type": "v0_p2wpkh",
      "scriptpubkey_address": "bc1q0fn9mearwr6vnvmj4v06ukr4qzjme0d565dzcx",
      "value": 294
    }
  ],
  "size": 294,
  "weight": 540,
  "fee": 1512,
  "status": {
    "confirmed": true,
    "block_height": 834460,
    "block_hash": "00000000000000000000484a79b643b2524bbce82e5d8a442013fa5b8905ed98",
    "block_time": 1710307468
  },
  "hex": "02000000000101643321469295d0c73f0634e20c357937dd113ace04293f2a58cb9a8600bac3acc400000000fffffffd0126010000000000001600147a665de7a370f4c9b372ab1fae587500a5bcbdb40340f0668f7636e9f97b19b6f8b910b9e9423b18b50f41fac3f3cdef8dcce7d90168165d545cf253a79cf8776d4ca60dce74257ff76543034eddc396763a9ebad9fa6d2056e5ec2d203bed78ad5a9999419fa918cc46d738deec85571d5cf45840c11353ac0063036f726401010a746578742f706c61696e00357b2270223a226272632d3230222c226f70223a226d696e74222c227469636b223a22646f6765222c22616d74223a2234323030227d6821c056e5ec2d203bed78ad5a9999419fa918cc46d738deec85571d5cf45840c1135300000000"
}