{
  "txid": "bb05c3ca0e6fdbb691c143e9fab0677f96dd1cd549d3d756384bf6cd9de141f9",
  "version": 2,
  "locktime": 0,
  "vin": [
    {
      "txid": "749066255f2d3a2f1409f764c7c8220c96cacd114b3a693c3b14a6a2b15e0385",
      "vout": 2,
      "prevout": {
        "scriptpubkey": "a914d5c5f8c332e67bde6b1b659c67cffd1689073fa887",
        "scriptpubkey_asm": "OP_HASH160 OP_PUSHBYTES_20 d5c5f8c332e67bde6b1b659c67cffd1689073fa8 OP_EQUAL",
        "scriptpubkey_type": "p2sh",
        "scriptpubkey_address": "3MBM1ijwCDYuFZoFAhnWoKs92PfaWVyAQN",
        "value": 454246
      },
      "scriptsig": "160014cd329f2f5c9952f1a855aba51873a3cc8d6949d5",
      "scriptsig_asm": "OP_PUSHBYTES_22 0014cd329f2f5c9952f1a855aba51873a3cc8d6949d5",
      "witness": [
        "3044022044d147ce50b472d4a25cb7b6db28946901974f145870a1a1d4daad6e1e1dd01902204b5fc35ca88c894133867e0a6224f96beada05a3bd0c75ff394ad529d075d05601",
        "02fb6922c1eb3fff6e2dfdfe2e01ad5ed0c3add63e89193dc5c83e86f1d7e72bc1"
      ],
      "is_coinbase": false,
      "sequence": 4294967293,
      "inner_redeemscript_asm": "OP_0 OP_PUSHBYTES_20 cd329f2f5c9952f1a855aba51873a3cc8d6949d5"
    }
  ],
  "vout": [
    {
      "scriptpubkey": "a914d5c438cbe9af8f2c270e302690fbc0d4dc74023287",
      "scriptpubkey_asm": "OP_HASH160 OP_PUSHBYTES_20 d5c438cbe9af8f2c270e302690fbc0d4dc740232 OP_EQUAL",
      "scriptpubkey_type": "p2sh",
      "scriptpubkey_address": "3MBJv8w5m7PhBUesX2sSaoCHRMmi6A9vdw",
      "value": 216292
    },
    {
      "scriptpubkey": "a91406434f4a0686bc7ff083dc7d5beb2de3378aec0187",
      "scriptpubkey_asm": "OP_HASH160 OP_PUSHBYTES_20 06434f4a0686bc7ff083dc7d5beb2de3378aec01 OP_EQUAL",
      "scriptpubkey_type": "p2sh",
      "scriptpubkey_address": "32G8cTRFBpmnp57NAigsLfsExRZMuD8Le9",
      "value": 5000
    },
    {
      "scriptpubkey": "a914d5c5f8c332e67bde6b1b659c67cffd1689073fa887",
      "scriptpubkey_asm": "OP_HASH160 OP_PUSHBYTES_20 d5c5f8c332e67bde6b1b659c67cffd1689073fa8 OP_EQUAL",
      "scriptpubkey_type": "p2sh",
      "scriptpubkey_address": "3MBM1ijwCDYuFZoFAhnWoKs92PfaWVyAQN",
      "value": 227029
    }
  ],
  "size": 279,
  "weight": 789,
  "fee": 5925,
  "status": {
    "confirmed": true,
    "block_height": 834638,
    "block_hash": "000000000000000000025f742c626208ac87e0b7d15054abb4a19ca2d735a54e",
    "block_time": 1710405325
  },
  "hex": "0200000000010185035eb1a2a6143b3c693a4b11cdca960c22c8c764f709142f3a2d5f256690740200000017160014cd329f2f5c9952f1a855aba51873a3cc8d6949d5fdffffff03e44c03000000000017a914d5c438cbe9af8f2c270e302690fbc0d4dc74023287881300000000000017a91406434f4a0686bc7ff083dc7d5beb2de3378aec0187d57603000000000017a914d5c5f8c332e67bde6b1b659c67cffd1689073fa88702473044022044d147ce50b472d4a25cb7b6db28946901974f145870a1a1d4daad6e1e1dd01902204b5fc35ca88c894133867e0a6224f96beada05a3bd0c75ff394ad529d075d056012102fb6922c1eb3fff6e2dfdfe2e01ad5ed0c3add63e89193dc5c83e86f1d7e72bc100000000"
}