{
  "txid": "bb1a4386e25f7ce880cc74ead709b09d5c59a5a5dc0264ffb9c75bdcf5aa76a9",
  "version": 1,
  "locktime": 0,
  "vin": [
    {
      "txid": "49c743650b13446edd24275e86100663580fd9fd43b0ee715616b90797b489c2",
      "vout": 1,
      "prevout": {
        "scriptpubkey": "0014cff274706a283b6a2f9dd617a9d9406a32e69d9d",
        "scriptpubkey_asm": "OP_0 OP_PUSHBYTES_20 cff274706a283b6a2f9dd617a9d9406a32e69d9d",
        "scriptpubkey_type": "v0_p2wpkh",
        "scriptpubkey_address": "bc1qele8gur29qak5tua6ct6nk2qdgewd8vajwnzqx",
        "value": 14100
      },
      "scriptsig": "",
      "scriptsig_asm": "",
      "witness": [
        "3045022100e1efda79e634b6bbdbdab372bb377b5c32dcb966489499880a0172984d898cfb02205c75b432835cd2b27d3e93821beb8fe04b484f4f9fe280164e05d8961152603901",
        "03e771485d3e1898d47b2ff6a37dd96e1ad8437f917ac0a3967c55c47ec2bd0326"
      ],
      "is_coinbase": false,
      "sequence": 4294967295
    },
    {
      "txid": "cec10ca6e72ec5e4e585f1e534e3bb4a92dccd20c161b8ad8e528052d01d9e40",
      "vout": 1,
      "prevout": {
        "scriptpubkey": "0014cff274706a283b6a2f9dd617a9d9406a32e69d9d",
        "scriptpubkey_asm": "OP_0 OP_PUSHBYTES_20 cff274706a283b6a2f9dd617a9d9406a32e69d9d",
        "scriptpubkey_type": "v0_p2wpkh",
        "scriptpubkey_address": "bc1qele8gur29qak5tua6ct6nk2qdgewd8vajwnzqx",
        "value": 71275
      },
      "scriptsig": "",
      "scriptsig_asm": "",
      "witness": [
        "304402201de8599fd97af7e9ef5ce3b0c5bbacaa68ad37a6ab7606e2e35a91d6078b5c1a02201d56a1290623ce0cf70cfd7f5bcd9241e49e11cc89a1b20fe8bf0fb4df3c525601",
        "03e771485d3e1898d47b2ff6a37dd96e1ad8437f917ac0a3967c55c47ec2bd0326"
      ],
      "is_coinbase": false,
      "sequence": 4294967295
    },
    {
      "txid": "ae1d070aca2903fceb543b564bf4c08750d63aae408614445e9c80970d05fc5b",
      "vout": 0,
      "prevout": {
        "scriptpubkey": "0014cff274706a283b6a2f9dd617a9d9406a32e69d9d",
        "scriptpubkey_asm": "OP_0 OP_PUSHBYTES_20 cff274706a283b6a2f9dd617a9d9406a32e69d9d",
        "scriptpubkey_type": "v0_p2wpkh",
        "scriptpubkey_address": "bc1qele8gur29qak5tua6ct6nk2qdgewd8vajwnzqx",
        "value": 823279
      },
      "scriptsig": "",
      "scriptsig_asm": "",
      "witness": [
        "3045022100a0d96c7c8856c943492d156799860d532721ff6b464a5140bd4de8fd470c660002203972fd79ba9ec8a349edb3b5428c6ec7ec82d3f891c00c960f5aad6355b6e78101",
        "03e771485d3e1898d47b2ff6a37dd96e1ad8437f917ac0a3967c55c47ec2bd0326"
      ],
      "is_coinbase": false,
      "sequence": 4294967295
    }
  ],
  "vout": [
    {
      "scriptpubkey": "00141b845d43425cde49f48ae30752b3b42fbe43e427",
      "scriptpubkey_asm": "OP_0 OP_PUSHBYTES_20 1b845d43425cde49f48ae30752b3b42fbe43e427",
      "scriptpubkey_type": "v0_p2wpkh",
      "scriptpubkey_address": "bc1qrwz96s6ztn0ynay2uvr49va597ly8ep8ygy9g8",
      "value": 815946
    },
    {
      "scriptpubkey": "0014cff274706a283b6a2f9dd617a9d9406a32e69d9d",
      "scriptpubkey_asm": "OP_0 OP_PUSHBYTES_20 cff274706a283b6a2f9dd617a9d9406a32e69d9d",
      "scriptpubkey_type": "v0_p2wpkh",
      "scriptpubkey_address": "bc1qele8gur29qak5tua6ct6nk2qdgewd8vajwnzqx",
      "value": 88054
    }
  ],
  "size": 520,
  "weight": 1105,
  "fee": 4654,
  "status": {
    "confirmed": true,
    "block_height": 834552,
    "block_hash": "00000000000000000001dd0468a70c94f619251d286585cff57aeb4bd9ede330",
    "block_time": 1710355598
  },
  "hex": "01000000000103c289b49707b9165671eeb043fdd90f58630610865e2724dd6e44130b6543c7490100000000ffffffff409e1dd05280528eadb861c120cddc924abbe334e5f185e5e4c52ee7a60cc1ce0100000000ffffffff5bfc050d97809c5e44148640ae3ad65087c0f44b563b54ebfc0329ca0a071dae0000000000ffffffff024a730c00000000001600141b845d43425cde49f48ae30752b3b42fbe43e427f657010000000000160014cff274706a283b6a2f9dd617a9d9406a32e69d9d02483045022100e1efda79e634b6bbdbdab372bb377b5c32dcb966489499880a0172984d898cfb02205c75b432835cd2b27d3e93821beb8fe04b484f4f9fe280164e05d89611526039012103e771485d3e1898d47b2ff6a37dd96e1ad8437f917ac0a3967c55c47ec2bd03260247304402201de8599fd97af7e9ef5ce3b0c5bbacaa68ad37a6ab7606e2e35a91d6078b5c1a02201d56a1290623ce0cf70cfd7f5bcd9241e49e11cc89a1b20fe8bf0fb4df3c5256012103e771485d3e1898d47b2ff6a37dd96e1ad8437f917ac0a3967c55c47ec2bd032602483045022100a0d96c7c8856c943492d156799860d532721ff6b464a5140bd4de8fd470c660002203972fd79ba9ec8a349edb3b5428c6ec7ec82d3f891c00c960f5aad6355b6e781012103e771485d3e1898d47b2ff6a37dd96e1ad8437f917ac0a3967c55c47ec2bd032600000000"
}