{
  "txid": "bb3adaa21e230416f401f89f977bdc186ba656980430193cf43fb7ac27d6fc9c",
  "version": 2,
  "locktime": 0,
  "vin": [
    {
      "txid": "3344fd8002c2a866ed16212b9c5b38887ac8bc345cd644cde4223cefa133d493",
      "vout": 0,
      "prevout": {
        "scriptpubkey": "a9142c21151d54bd219dcc4c52e1cb38672dab8e36cc87",
        "scriptpubkey_asm": "OP_HASH160 OP_PUSHBYTES_20 2c21151d54bd219dcc4c52e1cb38672dab8e36cc OP_EQUAL",
        "scriptpubkey_type": "p2sh",
        "scriptpubkey_address": "35iMHbUZeTssxBodiHwEEkb32jpBfVueEL",
        "value": 990236899
      },
      "scriptsig": "1600147c846a806f4d9e516c9fb2fe364f28eac4e3c3fc",
      "scriptsig_asm": "OP_PUSHBYTES_22 00147c846a806f4d9e516c9fb2fe364f28eac4e3c3fc",
      "witness": [
        "3044022035574b088002fec9a2886cd637a947afdf0f7f2e7b03582e1f016f096ad0837c02200aee68014b963f10e75459dd6c0efddb5515b61da40e24e6c8d9fc04fd64fcbe01",
        "03789a9d83798d4cbf688f9969a94084ee1655059e137b43492ee94dc4538790ab"
      ],
      "is_coinbase": false,
      "sequence": 4294967295,
      "inner_redeemscript_asm": "OP_0 OP_PUSHBYTES_20 7c846a806f4d9e516c9fb2fe364f28eac4e3c3fc"
    }
  ],
  "vout": [
    {
      "scriptpubkey": "a9142c21151d54bd219dcc4c52e1cb38672dab8e36cc87",
      "scriptpubkey_asm": "OP_HASH160 OP_PUSHBYTES_20 2c21151d54bd219dcc4c52e1cb38672dab8e36cc OP_EQUAL",
      "scriptpubkey_type": "p2sh",
      "scriptpubkey_address": "35iMHbUZeTssxBodiHwEEkb32jpBfVueEL",
      "value": 790327573
    },
    {
      "scriptpubkey": "a914be3997d5955cee18c98a5e62392f8d22308dd9d587",
      "scriptpubkey_asm": "OP_HASH160 OP_PUSHBYTES_20 be3997d5955cee18c98a5e62392f8d22308dd9d5 OP_EQUAL",
      "scriptpubkey_type": "p2sh",
      "scriptpubkey_address": "3K2qJdX9VALGG84z2D2yNFu7grZ7uyMvQ4",
      "value": 199906683
    }
  ],
  "size": 247,
  "weight": 661,
  "fee": 2643,
  "status": {
    "confirmed": true,
    "block_height": 834638,
    "block_hash": "000000000000000000025f742c626208ac87e0b7d15054abb4a19ca2d735a54e",
    "block_time": 1710405325
  },
  "hex": "0200000000010193d433a1ef3c22e4cd44d65c34bcc87a88385b9c2b2116ed66a8c20280fd443300000000171600147c846a806f4d9e516c9fb2fe364f28eac4e3c3fcffffffff0215711b2f0000000017a9142c21151d54bd219dcc4c52e1cb38672dab8e36cc877b55ea0b0000000017a914be3997d5955cee18c98a5e62392f8d22308dd9d58702473044022035574b088002fec9a2886cd637a947afdf0f7f2e7b03582e1f016f096ad0837c02200aee68014b963f10e75459dd6c0efddb5515b61da40e24e6c8d9fc04fd64fcbe012103789a9d83798d4cbf688f9969a94084ee1655059e137b43492ee94dc4538790ab00000000"
}