{
  "txid": "bb3b87601a2cb367d2c70ce98552d7ceae1190be52de6afa7d6fca55d1a98e63",
  "version": 2,
  "locktime": 834637,
  "vin": [
    {
      "txid": "b54ea07a9da21367d1e83e979163f6dac8d05e6a748b95328b25d4fbc9546520",
      "vout": 1,
      "prevout": {
        "scriptpubkey": "0014ce93590cc34c66fc9ba8d046747581e2b0709f16",
        "scriptpubkey_asm": "OP_0 OP_PUSHBYTES_20 ce93590cc34c66fc9ba8d046747581e2b0709f16",
        "scriptpubkey_type": "v0_p2wpkh",
        "scriptpubkey_address": "bc1qe6f4jrxrf3n0exag6pr8gavpu2c8p8cks08ukm",
        "value": 257023684
      },
      "scriptsig": "",
      "scriptsig_asm": "",
      "witness": [
        "3044022019a4c32052b3719266841eb44bbd2a97892e80c6d3b764647f7c9d76bc8bbd3a02200948ddd93df7b416ffb0fd68c6a2b52c788bbbeaf3c1f5fca321a20e4d04d6f601",
        "02599113ae27dac925f406712bb39de2b45d0febc9da88e5dea7f3e2b1a5fcb58e"
      ],
      "is_coinbase": false,
      "sequence": 4294967294
    }
  ],
  "vout": [
    {
      "scriptpubkey": "0014f274b649a3f24136cc1d015b2a5132c3fc5e9f40",
      "scriptpubkey_asm": "OP_0 OP_PUSHBYTES_20 f274b649a3f24136cc1d015b2a5132c3fc5e9f40",
      "scriptpubkey_type": "v0_p2wpkh",
      "scriptpubkey_address": "bc1q7f6tvjdr7fqndnqaq9dj55fjc079a86qwrfjh8",
      "value": 256470204
    },
    {
      "scriptpubkey": "a91461d4c336d19a14c484707fb6c0f480254652fea287",
      "scriptpubkey_asm": "OP_HASH160 OP_PUSHBYTES_20 61d4c336d19a14c484707fb6c0f480254652fea2 OP_EQUAL",
      "scriptpubkey_type": "p2sh",
      "scriptpubkey_address": "3AcJM9pHeLM1siYBwGVHy1PSjJSK6HYWf9",
      "value": 550000
    }
  ],
  "size": 223,
  "weight": 565,
  "fee": 3480,
  "status": {
    "confirmed": true,
    "block_height": 834638,
    "block_hash": "000000000000000000025f742c626208ac87e0b7d15054abb4a19ca2d735a54e",
    "block_time": 1710405325
  },
  "hex": "02000000000101206554c9fbd4258b32958b746a5ed0c8daf66391973ee8d16713a29d7aa04eb50100000000feffffff02bc6c490f00000000160014f274b649a3f24136cc1d015b2a5132c3fc5e9f40706408000000000017a91461d4c336d19a14c484707fb6c0f480254652fea28702473044022019a4c32052b3719266841eb44bbd2a97892e80c6d3b764647f7c9d76bc8bbd3a02200948ddd93df7b416ffb0fd68c6a2b52c788bbbeaf3c1f5fca321a20e4d04d6f6012102599113ae27dac925f406712bb39de2b45d0febc9da88e5dea7f3e2b1a5fcb58e4dbc0c00"
}