{
  "txid": "bb41bc9c730b1a15695c8bc9089cd5f1c192fa76ee88552a109bcd12ebf51f80",
  "version": 2,
  "locktime": 0,
  "vin": [
    {
      "txid": "abdcbb8bcefa0f088373ceda41a70fe1aeaa3823b969e1169e2a29269068d8dc",
      "vout": 11,
      "prevout": {
        "scriptpubkey": "51209435150fd0ebd1f263daab2b3ad56723ee30da2489532e6c4e6cfdb3256da4a2",
        "scriptpubkey_asm": "OP_PUSHNUM_1 OP_PUSHBYTES_32 9435150fd0ebd1f263daab2b3ad56723ee30da2489532e6c4e6cfdb3256da4a2",
        "scriptpubkey_type": "v1_p2tr",
        "scriptpubkey_address": "bc1pjs632r7sa0glyc764v4n44t8y0hrpk3y39fjumzwdn7mxftd5j3qr473z5",
        "value": 2522
      },
      "scriptsig": "",
      "scriptsig_asm": "",
      "witness": [
        "bc37fcf82d7e2c43fe6b4f7bd1b23f1654c5c674986555bf22c237dc36880184f2292dd241040c4f99952399047206f54cbae0688c32efb4045ce72d6cc4f136",
        "20763d80d54c45da0c9cb02d6a6bf2f06d6937e1c56adfb06ddb9f7f95f188768cac0063036f7264010118746578742f706c61696e3b636861727365743d7574662d3800387b2270223a226272632d3230222c226f70223a227472616e73666572222c227469636b223a226f726e6a222c22616d74223a22313030227d68",
        "c025dced391475af84759664675c16f5ed581b243a944241d7ee258c8cfb80c9db"
      ],
      "is_coinbase": false,
      "sequence": 4294967295
    }
  ],
  "vout": [
    {
      "scriptpubkey": "512060e7b9d91ee3091b65165528563dba11a47299520ea2fc67070ec6ac303fc05d",
      "scriptpubkey_asm": "OP_PUSHNUM_1 OP_PUSHBYTES_32 60e7b9d91ee3091b65165528563dba11a47299520ea2fc67070ec6ac303fc05d",
      "scriptpubkey_type": "v1_p2tr",
      "scriptpubkey_address": "bc1pvrnmnkg7uvy3kegk2559v0d6zxj89x2jp630cec8pmr2cvplcpwsn3pn79",
      "value": 546
    }
  ],
  "size": 323,
  "weight": 605,
  "fee": 1976,
  "status": {
    "confirmed": true,
    "block_height": 834460,
    "block_hash": "00000000000000000000484a79b643b2524bbce82e5d8a442013fa5b8905ed98",
    "block_time": 1710307468
  },
  "hex": "02000000000101dcd8689026292a9e16e169b92338aaaee10fa741dace7383080fface8bbbdcab0b00000000ffffffff01220200000000000022512060e7b9d91ee3091b65165528563dba11a47299520ea2fc67070ec6ac303fc05d0340bc37fcf82d7e2c43fe6b4f7bd1b23f1654c5c674986555bf22c237dc36880184f2292dd241040c4f99952399047206f54cbae0688c32efb4045ce72d6cc4f1367e20763d80d54c45da0c9cb02d6a6bf2f06d6937e1c56adfb06ddb9f7f95f188768cac0063036f7264010118746578742f706c61696e3b636861727365743d7574662d3800387b2270223a226272632d3230222c226f70223a227472616e73666572222c227469636b223a226f726e6a222c22616d74223a22313030227d6821c025dced391475af84759664675c16f5ed581b243a944241d7ee258c8cfb80c9db00000000"
}