{
  "txid": "bb53327ec03747acd863c89f4ec22131718a1591fc5af9f9030a0bda8ff2e033",
  "version": 2,
  "locktime": 0,
  "vin": [
    {
      "txid": "5f846d283984d01eb9829d816f88218abd33effc15a08222518615da3e5f47c5",
      "vout": 13,
      "prevout": {
        "scriptpubkey": "5120753a85957564082d7d5db9904c0a988c0bc73c1b2775ff7c55c74ac217c668b9",
        "scriptpubkey_asm": "OP_PUSHNUM_1 OP_PUSHBYTES_32 753a85957564082d7d5db9904c0a988c0bc73c1b2775ff7c55c74ac217c668b9",
        "scriptpubkey_type": "v1_p2tr",
        "scriptpubkey_address": "bc1pw5agt9t4vsyz6l2ahxgycz5c3s9uw0qmya6l7lz4ca9vy97xdzusy4t9t7",
        "value": 2850
      },
      "scriptsig": "",
      "scriptsig_asm": "",
      "witness": [
        "70f1cf592b9a7aa2d5869f3c224245999f7c5a79336436f13afa61c268a536715e3d513e0b5ba7be217c8319d610d1858ed3cffbf073e5a6f1e4b288fccd56c2",
        "20ed683555f5e05f442ec011065080ab3e6b0c1d39a436957428b286ce922aaa24ac0063036f726401011e6170706c69636174696f6e2f6a736f6e3b636861727365743d7574662d38004cd27b2270223a22706f772d3230222c226f70223a226d696e74222c227469636b223a2250455045222c22616d74223a2231303030222c22736f6c7574696f6e223a22504550453a626331706d6c3973653572666b6c3076393075786c7972667871717a366c34797364637172647371683735656c727133396676647164777139777276736e3a303030303030303030303030303030303030303139393431613561653132383937363539383134343239323533333030353762306461393666336465613163353a34353530383234373437227d68",
        "c03beca27a4fc825f712a8ee0e92a93b2e9ce7496e1e1c5bfb1b103e51f3be77b5"
      ],
      "is_coinbase": false,
      "sequence": 4294967295
    }
  ],
  "vout": [
    {
      "scriptpubkey": "5120dfcb0cd069b7dec2bf86f906930002d7ea4837001b600bfa99f8c112a58d035c",
      "scriptpubkey_asm": "OP_PUSHNUM_1 OP_PUSHBYTES_32 dfcb0cd069b7dec2bf86f906930002d7ea4837001b600bfa99f8c112a58d035c",
      "scriptpubkey_type": "v1_p2tr",
      "scriptpubkey_address": "bc1pml9se5rfkl0v90uxlyrfxqqz6l4ysdcqrdsqh75elrq39fvdqdwq9wrvsn",
      "value": 546
    }
  ],
  "size": 486,
  "weight": 768,
  "fee": 2304,
  "status": {
    "confirmed": true,
    "block_height": 834460,
    "block_hash": "00000000000000000000484a79b643b2524bbce82e5d8a442013fa5b8905ed98",
    "block_time": 1710307468
  },
  "hex": "02000000000101c5475f3eda1586512282a015fcef33bd8a21886f819d82b91ed08439286d845f0d00000000ffffffff012202000000000000225120dfcb0cd069b7dec2bf86f906930002d7ea4837001b600bfa99f8c112a58d035c034070f1cf592b9a7aa2d5869f3c224245999f7c5a79336436f13afa61c268a536715e3d513e0b5ba7be217c8319d610d1858ed3cffbf073e5a6f1e4b288fccd56c2fd1f0120ed683555f5e05f442ec011065080ab3e6b0c1d39a436957428b286ce922aaa24ac0063036f726401011e6170706c69636174696f6e2f6a736f6e3b636861727365743d7574662d38004cd27b2270223a22706f772d3230222c226f70223a226d696e74222c227469636b223a2250455045222c22616d74223a2231303030222c22736f6c7574696f6e223a22504550453a626331706d6c3973653572666b6c3076393075786c7972667871717a366c34797364637172647371683735656c727133396676647164777139777276736e3a303030303030303030303030303030303030303139393431613561653132383937363539383134343239323533333030353762306461393666336465613163353a34353530383234373437227d6821c03beca27a4fc825f712a8ee0e92a93b2e9ce7496e1e1c5bfb1b103e51f3be77b500000000"
}