{
  "txid": "bb8cf5260a7ce66ce410e4e87d3449954be5f478f27e32beb05fa23dbf4b6614",
  "version": 1,
  "locktime": 0,
  "vin": [
    {
      "txid": "c037cf0a29865a7c639c6c8fbe6e73c1462162746a340140c0359e8d8cf2f609",
      "vout": 0,
      "prevout": {
        "scriptpubkey": "00147c99c46e8a18791477fec246ac898531c79af920",
        "scriptpubkey_asm": "OP_0 OP_PUSHBYTES_20 7c99c46e8a18791477fec246ac898531c79af920",
        "scriptpubkey_type": "v0_p2wpkh",
        "scriptpubkey_address": "bc1q0jvugm52rpu3gal7cfr2ezv9x8re47fqsuym65",
        "value": 878970
      },
      "scriptsig": "",
      "scriptsig_asm": "",
      "witness": [
        "3044022059e53982ff5dcd60c2b4ce99d56aaac307ec285c6e3f3a891939558c99b729e602204e44131c8d07b19305ffccdeff39082e4ffade08c9a96a5e52bf21b35d34f21701",
        "0393830553290bdde50a3335b892697e15dd5f187f8127950bb6ed821190aeafb3"
      ],
      "is_coinbase": false,
      "sequence": 4294967295
    }
  ],
  "vout": [
    {
      "scriptpubkey": "76a914179e44f2a81e9f61953f380c043b3b9b39842c7b88ac",
      "scriptpubkey_asm": "OP_DUP OP_HASH160 OP_PUSHBYTES_20 179e44f2a81e9f61953f380c043b3b9b39842c7b OP_EQUALVERIFY OP_CHECKSIG",
      "scriptpubkey_type": "p2pkh",
      "scriptpubkey_address": "139t9A9jvP2ocYAFRU2oo6VUghBn2Vmuin",
      "value": 875919
    }
  ],
  "size": 194,
  "weight": 449,
  "fee": 3051,
  "status": {
    "confirmed": true,
    "block_height": 834638,
    "block_hash": "000000000000000000025f742c626208ac87e0b7d15054abb4a19ca2d735a54e",
    "block_time": 1710405325
  },
  "hex": "0100000000010109f6f28c8d9e35c04001346a74622146c1736ebe8f6c9c637c5a86290acf37c00000000000ffffffff018f5d0d00000000001976a914179e44f2a81e9f61953f380c043b3b9b39842c7b88ac02473044022059e53982ff5dcd60c2b4ce99d56aaac307ec285c6e3f3a891939558c99b729e602204e44131c8d07b19305ffccdeff39082e4ffade08c9a96a5e52bf21b35d34f21701210393830553290bdde50a3335b892697e15dd5f187f8127950bb6ed821190aeafb300000000"
}