{
  "txid": "bb8e7faf0b52fa5d68d36fdb13b8ba5c98bd30346dda3ee994fa1a622ac835ff",
  "version": 2,
  "locktime": 0,
  "vin": [
    {
      "txid": "a0feba092c2748f4e609834d63d6a741e7469ff4eb46d9289940659617244f83",
      "vout": 4,
      "prevout": {
        "scriptpubkey": "5120cf95b3fecbca55d7c6499a1b683ed639c164f2f4f829740446f7a24838ac9253",
        "scriptpubkey_asm": "OP_PUSHNUM_1 OP_PUSHBYTES_32 cf95b3fecbca55d7c6499a1b683ed639c164f2f4f829740446f7a24838ac9253",
        "scriptpubkey_type": "v1_p2tr",
        "scriptpubkey_address": "bc1pe72m8lktef2a03jfngdks0kk88qkfuh5lq5hgpzx773ysw9vjffsfykpzw",
        "value": 600
      },
      "scriptsig": "",
      "scriptsig_asm": "",
      "witness": [
        "e862266407d1d1aa641edc7dcf0eee9de147f82c924792269878ee6ae95ee21f7f228c1db8c92189d58b0671687c9f87ae0fac4490c434b0012fcf0568946bc8"
      ],
      "is_coinbase": false,
      "sequence": 2147483649
    },
    {
      "txid": "a0feba092c2748f4e609834d63d6a741e7469ff4eb46d9289940659617244f83",
      "vout": 3,
      "prevout": {
        "scriptpubkey": "5120cf95b3fecbca55d7c6499a1b683ed639c164f2f4f829740446f7a24838ac9253",
        "scriptpubkey_asm": "OP_PUSHNUM_1 OP_PUSHBYTES_32 cf95b3fecbca55d7c6499a1b683ed639c164f2f4f829740446f7a24838ac9253",
        "scriptpubkey_type": "v1_p2tr",
        "scriptpubkey_address": "bc1pe72m8lktef2a03jfngdks0kk88qkfuh5lq5hgpzx773ysw9vjffsfykpzw",
        "value": 600
      },
      "scriptsig": "",
      "scriptsig_asm": "",
      "witness": [
        "fe375251c0b4add7b49cb278c34e0b1d231345683e89579e2393824be496fc4b87186ab931d019665092bd92341c1ee585305a8a0237094115db8daa844b7421"
      ],
      "is_coinbase": false,
      "sequence": 2147483649
    },
    {
      "txid": "459d64724aafe76b9057863c95c5645a4f931a0ef40cc7e6e9f4e8aec0767cf4",
      "vout": 0,
      "prevout": {
        "scriptpubkey": "512021ad5299e91cb95414c52fcad79cb8d6eebca52ec62e92f5afb8eed2bbfc65ad",
        "scriptpubkey_asm": "OP_PUSHNUM_1 OP_PUSHBYTES_32 21ad5299e91cb95414c52fcad79cb8d6eebca52ec62e92f5afb8eed2bbfc65ad",
        "scriptpubkey_type": "v1_p2tr",
        "scriptpubkey_address": "bc1pyxk49x0frju4g9x99l9d089c6mhteffwcchf9ad0hrhd9wluvkks8ph0yh",
        "value": 546
      },
      "scriptsig": "",
      "scriptsig_asm": "",
      "witness": [
        "7c0d1253f78ed5ffbcdd6665c4a5d0a395e5a7846fbdcbd160aa7a44293e075cd5d3a448666affbf393f88d75dba2d79acfbb042cc6d43cf82fb16944d10f40b83"
      ],
      "is_coinbase": false,
      "sequence": 4294967295
    },
    {
      "txid": "a0feba092c2748f4e609834d63d6a741e7469ff4eb46d9289940659617244f83",
      "vout": 5,
      "prevout": {
        "scriptpubkey": "5120cf95b3fecbca55d7c6499a1b683ed639c164f2f4f829740446f7a24838ac9253",
        "scriptpubkey_asm": "OP_PUSHNUM_1 OP_PUSHBYTES_32 cf95b3fecbca55d7c6499a1b683ed639c164f2f4f829740446f7a24838ac9253",
        "scriptpubkey_type": "v1_p2tr",
        "scriptpubkey_address": "bc1pe72m8lktef2a03jfngdks0kk88qkfuh5lq5hgpzx773ysw9vjffsfykpzw",
        "value": 1498505
      },
      "scriptsig": "",
      "scriptsig_asm": "",
      "witness": [
        "70a735d722a793bb52bef184c203c085b33f500d82263500c07573a12773fadd0163ece8f8d9b6ff96ed845816041da8b504e83e26c18c04d90631a5c6a8bf6d"
      ],
      "is_coinbase": false,
      "sequence": 2147483649
    }
  ],
  "vout": [
    {
      "scriptpubkey": "5120cf95b3fecbca55d7c6499a1b683ed639c164f2f4f829740446f7a24838ac9253",
      "scriptpubkey_asm": "OP_PUSHNUM_1 OP_PUSHBYTES_32 cf95b3fecbca55d7c6499a1b683ed639c164f2f4f829740446f7a24838ac9253",
      "scriptpubkey_type": "v1_p2tr",
      "scriptpubkey_address": "bc1pe72m8lktef2a03jfngdks0kk88qkfuh5lq5hgpzx773ysw9vjffsfykpzw",
      "value": 1200
    },
    {
      "scriptpubkey": "5120cf95b3fecbca55d7c6499a1b683ed639c164f2f4f829740446f7a24838ac9253",
      "scriptpubkey_asm": "OP_PUSHNUM_1 OP_PUSHBYTES_32 cf95b3fecbca55d7c6499a1b683ed639c164f2f4f829740446f7a24838ac9253",
      "scriptpubkey_type": "v1_p2tr",
      "scriptpubkey_address": "bc1pe72m8lktef2a03jfngdks0kk88qkfuh5lq5hgpzx773ysw9vjffsfykpzw",
      "value": 546
    },
    {
      "scriptpubkey": "512021ad5299e91cb95414c52fcad79cb8d6eebca52ec62e92f5afb8eed2bbfc65ad",
      "scriptpubkey_asm": "OP_PUSHNUM_1 OP_PUSHBYTES_32 21ad5299e91cb95414c52fcad79cb8d6eebca52ec62e92f5afb8eed2bbfc65ad",
      "scriptpubkey_type": "v1_p2tr",
      "scriptpubkey_address": "bc1pyxk49x0frju4g9x99l9d089c6mhteffwcchf9ad0hrhd9wluvkks8ph0yh",
      "value": 1400000
    },
    {
      "scriptpubkey": "5120cf95b3fecbca55d7c6499a1b683ed639c164f2f4f829740446f7a24838ac9253",
      "scriptpubkey_asm": "OP_PUSHNUM_1 OP_PUSHBYTES_32 cf95b3fecbca55d7c6499a1b683ed639c164f2f4f829740446f7a24838ac9253",
      "scriptpubkey_type": "v1_p2tr",
      "scriptpubkey_address": "bc1pe72m8lktef2a03jfngdks0kk88qkfuh5lq5hgpzx773ysw9vjffsfykpzw",
      "value": 600
    },
    {
      "scriptpubkey": "5120cf95b3fecbca55d7c6499a1b683ed639c164f2f4f829740446f7a24838ac9253",
      "scriptpubkey_asm": "OP_PUSHNUM_1 OP_PUSHBYTES_32 cf95b3fecbca55d7c6499a1b683ed639c164f2f4f829740446f7a24838ac9253",
      "scriptpubkey_type": "v1_p2tr",
      "scriptpubkey_address": "bc1pe72m8lktef2a03jfngdks0kk88qkfuh5lq5hgpzx773ysw9vjffsfykpzw",
      "value": 600
    },
    {
      "scriptpubkey": "5120cf95b3fecbca55d7c6499a1b683ed639c164f2f4f829740446f7a24838ac9253",
      "scriptpubkey_asm": "OP_PUSHNUM_1 OP_PUSHBYTES_32 cf95b3fecbca55d7c6499a1b683ed639c164f2f4f829740446f7a24838ac9253",
      "scriptpubkey_type": "v1_p2tr",
      "scriptpubkey_address": "bc1pe72m8lktef2a03jfngdks0kk88qkfuh5lq5hgpzx773ysw9vjffsfykpzw",
      "value": 89820
    }
  ],
  "size": 699,
  "weight": 1995,
  "fee": 7485,
  "status": {
    "confirmed": true,
    "block_height": 834460,
    "block_hash": "00000000000000000000484a79b643b2524bbce82e5d8a442013fa5b8905ed98",
    "block_time": 1710307468
  },
  "hex": "02000000000104834f24179665409928d946ebf49f46e741a7d6634d8309e6f448272c09bafea0040000000001000080834f24179665409928d946ebf49f46e741a7d6634d8309e6f448272c09bafea0030000000001000080f47c76c0aee8f4e9e6c70cf40e1a934f5a64c5953c8657906be7af4a72649d450000000000ffffffff834f24179665409928d946ebf49f46e741a7d6634d8309e6f448272c09bafea005000000000100008006b004000000000000225120cf95b3fecbca55d7c6499a1b683ed639c164f2f4f829740446f7a24838ac92532202000000000000225120cf95b3fecbca55d7c6499a1b683ed639c164f2f4f829740446f7a24838ac9253c05c15000000000022512021ad5299e91cb95414c52fcad79cb8d6eebca52ec62e92f5afb8eed2bbfc65ad5802000000000000225120cf95b3fecbca55d7c6499a1b683ed639c164f2f4f829740446f7a24838ac92535802000000000000225120cf95b3fecbca55d7c6499a1b683ed639c164f2f4f829740446f7a24838ac9253dc5e010000000000225120cf95b3fecbca55d7c6499a1b683ed639c164f2f4f829740446f7a24838ac92530140e862266407d1d1aa641edc7dcf0eee9de147f82c924792269878ee6ae95ee21f7f228c1db8c92189d58b0671687c9f87ae0fac4490c434b0012fcf0568946bc80140fe375251c0b4add7b49cb278c34e0b1d231345683e89579e2393824be496fc4b87186ab931d019665092bd92341c1ee585305a8a0237094115db8daa844b742101417c0d1253f78ed5ffbcdd6665c4a5d0a395e5a7846fbdcbd160aa7a44293e075cd5d3a448666affbf393f88d75dba2d79acfbb042cc6d43cf82fb16944d10f40b83014070a735d722a793bb52bef184c203c085b33f500d82263500c07573a12773fadd0163ece8f8d9b6ff96ed845816041da8b504e83e26c18c04d90631a5c6a8bf6d00000000"
}