{
  "txid": "bb92dce7d3216458c6e4320948ae12768d2eaf97c3876a3ab5260cbe00a1e9db",
  "version": 2,
  "locktime": 834458,
  "vin": [
    {
      "txid": "f464ce99e87b321c78a4a83a8c416fcdd7d2c63be3f25fb47f6f4aa9e982fc8c",
      "vout": 1,
      "prevout": {
        "scriptpubkey": "0014dd56fc472d81a141d911cc64c08dad075f31982e",
        "scriptpubkey_asm": "OP_0 OP_PUSHBYTES_20 dd56fc472d81a141d911cc64c08dad075f31982e",
        "scriptpubkey_type": "v0_p2wpkh",
        "scriptpubkey_address": "bc1qm4t0c3edsxs5rkg3e3jvprddqa0nrxpwm6gyt2",
        "value": 953899
      },
      "scriptsig": "",
      "scriptsig_asm": "",
      "witness": [
        "3045022100ff4bb27f9bcbdf559cf563611642951d2a7c8abf77016e3ab6ca1c92ae88fe1802203cfe5c61a80b2c1e8484a871738a9364d8711dfa4cd0a6280d11c9db404b31a101",
        "026b42028800420bf6d675ff0bcaee7af0d2ae15ef83028abdd1979955ff52f746"
      ],
      "is_coinbase": false,
      "sequence": 0
    }
  ],
  "vout": [
    {
      "scriptpubkey": "512001b7066110cd36216d2d7268d375c494c0ab4279942d7d979337cb9151ff273c",
      "scriptpubkey_asm": "OP_PUSHNUM_1 OP_PUSHBYTES_32 01b7066110cd36216d2d7268d375c494c0ab4279942d7d979337cb9151ff273c",
      "scriptpubkey_type": "v1_p2tr",
      "scriptpubkey_address": "bc1pqxmsvcgse5mzzmfdwf5dxawyjnq2ksnejskhm9unxl9ez50lyu7q4qza8k",
      "value": 952183
    }
  ],
  "size": 204,
  "weight": 486,
  "fee": 1716,
  "status": {
    "confirmed": true,
    "block_height": 834460,
    "block_hash": "00000000000000000000484a79b643b2524bbce82e5d8a442013fa5b8905ed98",
    "block_time": 1710307468
  },
  "hex": "020000000001018cfc82e9a94a6f7fb45ff2e33bc6d2d7cd6f418c3aa8a4781c327be899ce64f40100000000000000000177870e000000000022512001b7066110cd36216d2d7268d375c494c0ab4279942d7d979337cb9151ff273c02483045022100ff4bb27f9bcbdf559cf563611642951d2a7c8abf77016e3ab6ca1c92ae88fe1802203cfe5c61a80b2c1e8484a871738a9364d8711dfa4cd0a6280d11c9db404b31a10121026b42028800420bf6d675ff0bcaee7af0d2ae15ef83028abdd1979955ff52f7469abb0c00"
}