{
  "txid": "bbc3dba8d1aa63c9da777b6bfe06444bbc8df6411c60424fc30245439a432524",
  "version": 2,
  "locktime": 0,
  "vin": [
    {
      "txid": "530f7730d4a6670ba2435635a04db586dbb1985ce86459086d96cb46be174a53",
      "vout": 1,
      "prevout": {
        "scriptpubkey": "51203afd8dbcc665606b881b87f2a0bc5c1ccfde64f8b05b713453b42ddb1cfd9930",
        "scriptpubkey_asm": "OP_PUSHNUM_1 OP_PUSHBYTES_32 3afd8dbcc665606b881b87f2a0bc5c1ccfde64f8b05b713453b42ddb1cfd9930",
        "scriptpubkey_type": "v1_p2tr",
        "scriptpubkey_address": "bc1p8t7cm0xxv4sxhzqmsle2p0zurn8aue8ckpdhzdznkskak88anycqm2gu5u",
        "value": 54011
      },
      "scriptsig": "",
      "scriptsig_asm": "",
      "witness": [
        "44c8ad12096b048194d057dc93674bb7723ccb62aad4f3172757099a71dc805080e70a06497c88f29db44b7c8583d9120793811a25f6bd7c56ea48ceb219daa4"
      ],
      "is_coinbase": false,
      "sequence": 4294967295
    }
  ],
  "vout": [
    {
      "scriptpubkey": "51201595540b99795d054b1228f86eb6c7faed8f958c62d9fdefa46b14597bcbeb50",
      "scriptpubkey_asm": "OP_PUSHNUM_1 OP_PUSHBYTES_32 1595540b99795d054b1228f86eb6c7faed8f958c62d9fdefa46b14597bcbeb50",
      "scriptpubkey_type": "v1_p2tr",
      "scriptpubkey_address": "bc1pzk24gzue09ws2jcj9ruxadk8ltkcl9vvvtvlmmaydv29j77tadgq9kku7k",
      "value": 5000
    },
    {
      "scriptpubkey": "51203afd8dbcc665606b881b87f2a0bc5c1ccfde64f8b05b713453b42ddb1cfd9930",
      "scriptpubkey_asm": "OP_PUSHNUM_1 OP_PUSHBYTES_32 3afd8dbcc665606b881b87f2a0bc5c1ccfde64f8b05b713453b42ddb1cfd9930",
      "scriptpubkey_type": "v1_p2tr",
      "scriptpubkey_address": "bc1p8t7cm0xxv4sxhzqmsle2p0zurn8aue8ckpdhzdznkskak88anycqm2gu5u",
      "value": 46701
    }
  ],
  "size": 205,
  "weight": 616,
  "fee": 2310,
  "status": {
    "confirmed": true,
    "block_height": 834638,
    "block_hash": "000000000000000000025f742c626208ac87e0b7d15054abb4a19ca2d735a54e",
    "block_time": 1710405325
  },
  "hex": "02000000000101534a17be46cb966d085964e85c98b1db86b54da0355643a20b67a6d430770f530100000000ffffffff0288130000000000002251201595540b99795d054b1228f86eb6c7faed8f958c62d9fdefa46b14597bcbeb506db60000000000002251203afd8dbcc665606b881b87f2a0bc5c1ccfde64f8b05b713453b42ddb1cfd9930014044c8ad12096b048194d057dc93674bb7723ccb62aad4f3172757099a71dc805080e70a06497c88f29db44b7c8583d9120793811a25f6bd7c56ea48ceb219daa400000000"
}