{
  "txid": "bbcb14225d91a9b91e4443ddc4e30bf9f950c6799833c4af363b74afb0668511",
  "version": 2,
  "locktime": 0,
  "vin": [
    {
      "txid": "0b6dc730ba740591cbbdf981a1d8784b7da041773785dd31fe2fcdedf0f10121",
      "vout": 0,
      "prevout": {
        "scriptpubkey": "5120b913e1d5d14c638982390efe1961c1e27045edaebb427587a3764240be903f8e",
        "scriptpubkey_asm": "OP_PUSHNUM_1 OP_PUSHBYTES_32 b913e1d5d14c638982390efe1961c1e27045edaebb427587a3764240be903f8e",
        "scriptpubkey_type": "v1_p2tr",
        "scriptpubkey_address": "bc1phyf7r4w3f33cnq3epmlpjcwpufcytmdwhdp8tparwepyp05s878qk9wkkd",
        "value": 2856
      },
      "scriptsig": "",
      "scriptsig_asm": "",
      "witness": [
        "4f669de3333524d0b68c380474c6806ffd0df13c8309447ea23fb5d8b8e83dff48a0dd9126a6194e073f3bbda981bd1629776d24074a86bce39a8f4262c0930b",
        "202a190ac129a81ac2b7019f095f4092a672306ac6f2de4d804f846cd6edd4a1a8ac0063036f7264010118746578742f706c61696e3b636861727365743d7574662d3800417b2270223a226272632d3230222c226f70223a227472616e73666572222c227469636b223a22f09d9b91222c22616d74223a22323232323232323232323232227d68",
        "c12a190ac129a81ac2b7019f095f4092a672306ac6f2de4d804f846cd6edd4a1a8"
      ],
      "is_coinbase": false,
      "sequence": 4294967293
    }
  ],
  "vout": [
    {
      "scriptpubkey": "5120c4d6f33b3dabdff90cff99278d6a4d6b57f5307195b4b2e41397c3c02ef49d96",
      "scriptpubkey_asm": "OP_PUSHNUM_1 OP_PUSHBYTES_32 c4d6f33b3dabdff90cff99278d6a4d6b57f5307195b4b2e41397c3c02ef49d96",
      "scriptpubkey_type": "v1_p2tr",
      "scriptpubkey_address": "bc1pcnt0xwea400ljr8lnync66jdddtl2vr3jk6t9eqnjlpuqth5nktqs05r3w",
      "value": 546
    }
  ],
  "size": 332,
  "weight": 614,
  "fee": 2310,
  "status": {
    "confirmed": true,
    "block_height": 834460,
    "block_hash": "00000000000000000000484a79b643b2524bbce82e5d8a442013fa5b8905ed98",
    "block_time": 1710307468
  },
  "hex": "020000000001012101f1f0edcd2ffe31dd85377741a07d4b78d8a181f9bdcb910574ba30c76d0b0000000000fdffffff012202000000000000225120c4d6f33b3dabdff90cff99278d6a4d6b57f5307195b4b2e41397c3c02ef49d9603404f669de3333524d0b68c380474c6806ffd0df13c8309447ea23fb5d8b8e83dff48a0dd9126a6194e073f3bbda981bd1629776d24074a86bce39a8f4262c0930b87202a190ac129a81ac2b7019f095f4092a672306ac6f2de4d804f846cd6edd4a1a8ac0063036f7264010118746578742f706c61696e3b636861727365743d7574662d3800417b2270223a226272632d3230222c226f70223a227472616e73666572222c227469636b223a22f09d9b91222c22616d74223a22323232323232323232323232227d6821c12a190ac129a81ac2b7019f095f4092a672306ac6f2de4d804f846cd6edd4a1a800000000"
}