{
  "txid": "bbf75d3ae7619df58a5d66d82308a7aec862584131cd32c5da7f4ca28b37438f",
  "version": 2,
  "locktime": 0,
  "vin": [
    {
      "txid": "20de5c8f1fb5f3960a80c97519eab343b172bc318931b1423e68dbc2a79ba12a",
      "vout": 0,
      "prevout": {
        "scriptpubkey": "0014ea66388ccb003d7ccec6b939896c1bde0303c33f",
        "scriptpubkey_asm": "OP_0 OP_PUSHBYTES_20 ea66388ccb003d7ccec6b939896c1bde0303c33f",
        "scriptpubkey_type": "v0_p2wpkh",
        "scriptpubkey_address": "bc1qafnr3rxtqq7henkxhyucjmqmmcps8selxts3f0",
        "value": 14617780
      },
      "scriptsig": "",
      "scriptsig_asm": "",
      "witness": [
        "3044022054f6d08be19845508ebd27772a683eb9a2f993f7e337ffa9f53fc006e9907439022010a90bf36117e0fccfc677d222e707106fd0acf5ce18631a1e78c9fb7133dd9901",
        "02089c2a03425dc1e56218befba54293201fa94b5f49d84e5e5d50a3dc570d85ea"
      ],
      "is_coinbase": false,
      "sequence": 2147483648
    },
    {
      "txid": "5eec44737b2922f26a56484998cbb75bc11e7af38f3bebfdbce9fe0593f3e16f",
      "vout": 0,
      "prevout": {
        "scriptpubkey": "0014ea66388ccb003d7ccec6b939896c1bde0303c33f",
        "scriptpubkey_asm": "OP_0 OP_PUSHBYTES_20 ea66388ccb003d7ccec6b939896c1bde0303c33f",
        "scriptpubkey_type": "v0_p2wpkh",
        "scriptpubkey_address": "bc1qafnr3rxtqq7henkxhyucjmqmmcps8selxts3f0",
        "value": 28937820
      },
      "scriptsig": "",
      "scriptsig_asm": "",
      "witness": [
        "3044022068258a637d508d103651adc83b067ba3b289a70ca15b483b0d0309b097e8dfeb02207218e9ccf8eb82bbf417f4621d5638e11f1bb9ec80c714e02138bfc087d5d18401",
        "02089c2a03425dc1e56218befba54293201fa94b5f49d84e5e5d50a3dc570d85ea"
      ],
      "is_coinbase": false,
      "sequence": 2147483648
    }
  ],
  "vout": [
    {
      "scriptpubkey": "001476362ea6943e8a2d306eb6f0147875711f133169",
      "scriptpubkey_asm": "OP_0 OP_PUSHBYTES_20 76362ea6943e8a2d306eb6f0147875711f133169",
      "scriptpubkey_type": "v0_p2wpkh",
      "scriptpubkey_address": "bc1qwcmzaf55869z6vrwkmcpg7r4wy03xvtfja6yws",
      "value": 43552540
    }
  ],
  "size": 339,
  "weight": 708,
  "fee": 3060,
  "status": {
    "confirmed": true,
    "block_height": 834552,
    "block_hash": "00000000000000000001dd0468a70c94f619251d286585cff57aeb4bd9ede330",
    "block_time": 1710355598
  },
  "hex": "020000000001022aa19ba7c2db683e42b1318931bc72b143b3ea1975c9800a96f3b51f8f5cde200000000000000000806fe1f39305fee9bcfdeb3b8ff37a1ec15bb7cb984948566af222297b7344ec5e000000000000000080011c8f98020000000016001476362ea6943e8a2d306eb6f0147875711f13316902473044022054f6d08be19845508ebd27772a683eb9a2f993f7e337ffa9f53fc006e9907439022010a90bf36117e0fccfc677d222e707106fd0acf5ce18631a1e78c9fb7133dd99012102089c2a03425dc1e56218befba54293201fa94b5f49d84e5e5d50a3dc570d85ea02473044022068258a637d508d103651adc83b067ba3b289a70ca15b483b0d0309b097e8dfeb02207218e9ccf8eb82bbf417f4621d5638e11f1bb9ec80c714e02138bfc087d5d184012102089c2a03425dc1e56218befba54293201fa94b5f49d84e5e5d50a3dc570d85ea00000000"
}