{
  "txid": "bbffe54ff8bb61637c3cf2bd50797438cafa0207ae6974edebe39bdd2f338969",
  "version": 2,
  "locktime": 0,
  "vin": [
    {
      "txid": "fb2625718ee316cb10ea647ce9db5c576c8e0ed968521a9d53fdfbf53d3c1e3c",
      "vout": 1,
      "prevout": {
        "scriptpubkey": "0014b3214886a5929ddcbca14156003eede590fd8b15",
        "scriptpubkey_asm": "OP_0 OP_PUSHBYTES_20 b3214886a5929ddcbca14156003eede590fd8b15",
        "scriptpubkey_type": "v0_p2wpkh",
        "scriptpubkey_address": "bc1qkvs53p49j2wae09pg9tqq0hdukg0mzc47flgx9",
        "value": 535061
      },
      "scriptsig": "",
      "scriptsig_asm": "",
      "witness": [
        "3045022100803d3ea4a48be6fb46c68793cb1da2a7d281693e991b262277fa5d85c6d8a07d022069f3e14bcb04724c42c25d13b8e8a9a58b834a7fbc23eb5daf844d3eb443cb5901",
        "02cf356c143f001c0367ec9ed65f294732cb3ad3018614b603c858e34684e6a886"
      ],
      "is_coinbase": false,
      "sequence": 2147483648
    }
  ],
  "vout": [
    {
      "scriptpubkey": "001470852ade5661a6377f84c52ac2645889726260ec",
      "scriptpubkey_asm": "OP_0 OP_PUSHBYTES_20 70852ade5661a6377f84c52ac2645889726260ec",
      "scriptpubkey_type": "v0_p2wpkh",
      "scriptpubkey_address": "bc1qwzzj4hjkvxnrwluyc54vyezc39exyc8vp52w24",
      "value": 68094
    },
    {
      "scriptpubkey": "00145a142b2e0c6266f70900fba7100e15127840659d",
      "scriptpubkey_asm": "OP_0 OP_PUSHBYTES_20 5a142b2e0c6266f70900fba7100e15127840659d",
      "scriptpubkey_type": "v0_p2wpkh",
      "scriptpubkey_address": "bc1qtg2zktsvvfn0wzgqlwn3qrs4zfuyqevayfm8aa",
      "value": 464777
    }
  ],
  "size": 223,
  "weight": 562,
  "fee": 2190,
  "status": {
    "confirmed": true,
    "block_height": 834638,
    "block_hash": "000000000000000000025f742c626208ac87e0b7d15054abb4a19ca2d735a54e",
    "block_time": 1710405325
  },
  "hex": "020000000001013c1e3c3df5fbfd539d1a5268d90e8e6c575cdbe97c64ea10cb16e38e712526fb01000000000000008002fe0901000000000016001470852ade5661a6377f84c52ac2645889726260ec89170700000000001600145a142b2e0c6266f70900fba7100e15127840659d02483045022100803d3ea4a48be6fb46c68793cb1da2a7d281693e991b262277fa5d85c6d8a07d022069f3e14bcb04724c42c25d13b8e8a9a58b834a7fbc23eb5daf844d3eb443cb59012102cf356c143f001c0367ec9ed65f294732cb3ad3018614b603c858e34684e6a88600000000"
}