{
  "txid": "bc1988792fe2cb6de4c6e6da76ec63f278912396e134a843d9354f7fa84e5b9b",
  "version": 2,
  "locktime": 0,
  "vin": [
    {
      "txid": "acc3ba00869acb582a3f2904ce3a11dd3779350ce234063fc7d0959246213364",
      "vout": 233,
      "prevout": {
        "scriptpubkey": "512070d5ec69d185722c6181902e75e5e154d307c0288ed96451d531808b2040bc88",
        "scriptpubkey_asm": "OP_PUSHNUM_1 OP_PUSHBYTES_32 70d5ec69d185722c6181902e75e5e154d307c0288ed96451d531808b2040bc88",
        "scriptpubkey_type": "v1_p2tr",
        "scriptpubkey_address": "bc1pwr27c6w3s4ezccvpjqh8te0p2nfs0spg3mvkg5w4xxqgkgzqhjyqhqllyn",
        "value": 1806
      },
      "scriptsig": "",
      "scriptsig_asm": "",
      "witness": [
        "6a4b0bd9b3e25e14e3892aa034c23ccaf8bf167122f406cda90a497ad21746439c241c2281898db2d456b296c61daa9913de98cbbbaa7d0da898008b57a416be",
        "202f290422616caecd3755b42f3deb34c6e5d7a05f951251706ca5aa5828383376ac0063036f726401010a746578742f706c61696e00357b2270223a226272632d3230222c226f70223a226d696e74222c227469636b223a22646f6765222c22616d74223a2234323030227d68",
        "c02f290422616caecd3755b42f3deb34c6e5d7a05f951251706ca5aa5828383376"
      ],
      "is_coinbase": false,
      "sequence": 4261412863
    }
  ],
  "vout": [
    {
      "scriptpubkey": "00147a665de7a370f4c9b372ab1fae587500a5bcbdb4",
      "scriptpubkey_asm": "OP_0 OP_PUSHBYTES_20 7a665de7a370f4c9b372ab1fae587500a5bcbdb4",
      "scriptpubkey_type": "v0_p2wpkh",
      "scriptpubkey_address": "bc1q0fn9mearwr6vnvmj4v06ukr4qzjme0d565dzcx",
      "value": 294
    }
  ],
  "size": 294,
  "weight": 540,
  "fee": 1512,
  "status": {
    "confirmed": true,
    "block_height": 834460,
    "block_hash": "00000000000000000000484a79b643b2524bbce82e5d8a442013fa5b8905ed98",
    "block_time": 1710307468
  },
  "hex": "02000000000101643321469295d0c73f0634e20c357937dd113ace04293f2a58cb9a8600bac3ace900000000fffffffd0126010000000000001600147a665de7a370f4c9b372ab1fae587500a5bcbdb403406a4b0bd9b3e25e14e3892aa034c23ccaf8bf167122f406cda90a497ad21746439c241c2281898db2d456b296c61daa9913de98cbbbaa7d0da898008b57a416be6d202f290422616caecd3755b42f3deb34c6e5d7a05f951251706ca5aa5828383376ac0063036f726401010a746578742f706c61696e00357b2270223a226272632d3230222c226f70223a226d696e74222c227469636b223a22646f6765222c22616d74223a2234323030227d6821c02f290422616caecd3755b42f3deb34c6e5d7a05f951251706ca5aa582838337600000000"
}