{
  "txid": "bc23a5aba168c77fe23a7796517509c283cfcb900341a85e079b257477a2a572",
  "version": 2,
  "locktime": 0,
  "vin": [
    {
      "txid": "0e9f828b8f9ec0e9f4d6370ed5d88a87b23a05a38165e364c3ebacc42a62205b",
      "vout": 0,
      "prevout": {
        "scriptpubkey": "0014af63bc31b1e3ba304b906d5421e61106f78743e5",
        "scriptpubkey_asm": "OP_0 OP_PUSHBYTES_20 af63bc31b1e3ba304b906d5421e61106f78743e5",
        "scriptpubkey_type": "v0_p2wpkh",
        "scriptpubkey_address": "bc1q4a3mcvd3uwarqjusd42zres3qmmcwsl97v7q3c",
        "value": 1143346
      },
      "scriptsig": "",
      "scriptsig_asm": "",
      "witness": [
        "3045022100c9e757eaf525928893ef1733de5bd18c2fb2c76392fa14a0534f8b37d9a1a13d0220098b84b9bacb4b2925037e300fae9f3d325c1a961d539d658c9dd5e0661e96de01",
        "026a07f181427a1c692662f8ab3ece77da1a42e76956ea1f3ab26ffb80b7ebafcc"
      ],
      "is_coinbase": false,
      "sequence": 0
    },
    {
      "txid": "20fd2dd1e3bb53191a39e20ffe6d84c85e638da9debd0778e3440f5149d9a20f",
      "vout": 0,
      "prevout": {
        "scriptpubkey": "0014af63bc31b1e3ba304b906d5421e61106f78743e5",
        "scriptpubkey_asm": "OP_0 OP_PUSHBYTES_20 af63bc31b1e3ba304b906d5421e61106f78743e5",
        "scriptpubkey_type": "v0_p2wpkh",
        "scriptpubkey_address": "bc1q4a3mcvd3uwarqjusd42zres3qmmcwsl97v7q3c",
        "value": 1023566
      },
      "scriptsig": "",
      "scriptsig_asm": "",
      "witness": [
        "3045022100e244c6d0f5e1dc10e073de0a7098e5e846f5317ab4ba0ed13b4a5dfadd1b035f0220184d7bce5e16f9ef563fee542d6d03489e1e4d182d09f744376aca8c2324ba6901",
        "026a07f181427a1c692662f8ab3ece77da1a42e76956ea1f3ab26ffb80b7ebafcc"
      ],
      "is_coinbase": false,
      "sequence": 0
    }
  ],
  "vout": [
    {
      "scriptpubkey": "76a914020e000493c4eee79a2b6ca0b4d7a1285fa7e9f188ac",
      "scriptpubkey_asm": "OP_DUP OP_HASH160 OP_PUSHBYTES_20 020e000493c4eee79a2b6ca0b4d7a1285fa7e9f1 OP_EQUALVERIFY OP_CHECKSIG",
      "scriptpubkey_type": "p2pkh",
      "scriptpubkey_address": "1Bs88HQbaf7nf98pSbr2wRniXDop2Uqhr",
      "value": 1355848
    },
    {
      "scriptpubkey": "0014d19e7f6362dee0f44269257fc3484a22aef6f29f",
      "scriptpubkey_asm": "OP_0 OP_PUSHBYTES_20 d19e7f6362dee0f44269257fc3484a22aef6f29f",
      "scriptpubkey_type": "v0_p2wpkh",
      "scriptpubkey_address": "bc1q6x087cmzmms0gsnfy4luxjz2y2h0du5lqcngsp",
      "value": 807230
    }
  ],
  "size": 375,
  "weight": 846,
  "fee": 3834,
  "status": {
    "confirmed": true,
    "block_height": 834638,
    "block_hash": "000000000000000000025f742c626208ac87e0b7d15054abb4a19ca2d735a54e",
    "block_time": 1710405325
  },
  "hex": "020000000001025b20622ac4acebc364e36581a3053ab2878ad8d50e37d6f4e9c09e8f8b829f0e0000000000000000000fa2d949510f44e37807bddea98d635ec8846dfe0fe2391a1953bbe3d12dfd200000000000000000000248b01400000000001976a914020e000493c4eee79a2b6ca0b4d7a1285fa7e9f188ac3e510c0000000000160014d19e7f6362dee0f44269257fc3484a22aef6f29f02483045022100c9e757eaf525928893ef1733de5bd18c2fb2c76392fa14a0534f8b37d9a1a13d0220098b84b9bacb4b2925037e300fae9f3d325c1a961d539d658c9dd5e0661e96de0121026a07f181427a1c692662f8ab3ece77da1a42e76956ea1f3ab26ffb80b7ebafcc02483045022100e244c6d0f5e1dc10e073de0a7098e5e846f5317ab4ba0ed13b4a5dfadd1b035f0220184d7bce5e16f9ef563fee542d6d03489e1e4d182d09f744376aca8c2324ba690121026a07f181427a1c692662f8ab3ece77da1a42e76956ea1f3ab26ffb80b7ebafcc00000000"
}