{
  "txid": "bc3881b6b812f725e4a08c48b075a7a7487eb8c6ac04d345125467e695455553",
  "version": 2,
  "locktime": 0,
  "vin": [
    {
      "txid": "018728496637cbaafd7d0f09146e569f20bf1e48fb6a7f82be01f64233fb1d81",
      "vout": 0,
      "prevout": {
        "scriptpubkey": "0014dac0b9e3e5ec445f6daa9339fa1cc26519ee3e1e",
        "scriptpubkey_asm": "OP_0 OP_PUSHBYTES_20 dac0b9e3e5ec445f6daa9339fa1cc26519ee3e1e",
        "scriptpubkey_type": "v0_p2wpkh",
        "scriptpubkey_address": "bc1qmtqtncl9a3z97md2jvul58xzv5v7u0s7k7dcmf",
        "value": 155709
      },
      "scriptsig": "",
      "scriptsig_asm": "",
      "witness": [
        "30440220253c6bc38d306713fc723c6cc0a188a8f5de38eba53f0196cf418c1e53400c81022077bdd11687d6ff60b5abb2e8978d86161864e92a8b0e27305f443c2ae1730cf501",
        "0270b610462bed88323c9ceab1a1bb62ddc7f14e101beacfa2cfd2c9557a8e8063"
      ],
      "is_coinbase": false,
      "sequence": 4294967293
    }
  ],
  "vout": [
    {
      "scriptpubkey": "0014dac0b9e3e5ec445f6daa9339fa1cc26519ee3e1e",
      "scriptpubkey_asm": "OP_0 OP_PUSHBYTES_20 dac0b9e3e5ec445f6daa9339fa1cc26519ee3e1e",
      "scriptpubkey_type": "v0_p2wpkh",
      "scriptpubkey_address": "bc1qmtqtncl9a3z97md2jvul58xzv5v7u0s7k7dcmf",
      "value": 147679
    },
    {
      "scriptpubkey": "0014640d32c02f771808b0c5fb0c6535f9458b3384b3",
      "scriptpubkey_asm": "OP_0 OP_PUSHBYTES_20 640d32c02f771808b0c5fb0c6535f9458b3384b3",
      "scriptpubkey_type": "v0_p2wpkh",
      "scriptpubkey_address": "bc1qvsxn9sp0wuvq3vx9lvxx2d0egk9n8p9nr9d0sh",
      "value": 6500
    }
  ],
  "size": 222,
  "weight": 561,
  "fee": 1530,
  "status": {
    "confirmed": true,
    "block_height": 834464,
    "block_hash": "0000000000000000000177a0869a911a2b65c9bdcd5a8bcb02b68f305bee848e",
    "block_time": 1710308296
  },
  "hex": "02000000000101811dfb3342f601be827f6afb481ebf209f566e14090f7dfdaacb3766492887010000000000fdffffff02df40020000000000160014dac0b9e3e5ec445f6daa9339fa1cc26519ee3e1e6419000000000000160014640d32c02f771808b0c5fb0c6535f9458b3384b3024730440220253c6bc38d306713fc723c6cc0a188a8f5de38eba53f0196cf418c1e53400c81022077bdd11687d6ff60b5abb2e8978d86161864e92a8b0e27305f443c2ae1730cf501210270b610462bed88323c9ceab1a1bb62ddc7f14e101beacfa2cfd2c9557a8e806300000000"
}