{
  "txid": "bc52886407409c20cda9615d316e7bfc1d055bad292fc1b044a9045667651d90",
  "version": 2,
  "locktime": 0,
  "vin": [
    {
      "txid": "77c5597d0a8549bd6238298c741b31900dc2c0c8a0e53995938935076c853b43",
      "vout": 0,
      "prevout": {
        "scriptpubkey": "76a91445692e8c61976f682f91821f08ab9ec903ecbba688ac",
        "scriptpubkey_asm": "OP_DUP OP_HASH160 OP_PUSHBYTES_20 45692e8c61976f682f91821f08ab9ec903ecbba6 OP_EQUALVERIFY OP_CHECKSIG",
        "scriptpubkey_type": "p2pkh",
        "scriptpubkey_address": "17L1dQ5fCnpg3Nd1otmzrZiadZ7YwDPDo1",
        "value": 9342351
      },
      "scriptsig": "47304402204e0249d748df6f634d83e9ea67d5f8435e07f33403610650d8e27fa609781bc302201b7c0c85bdcd17e94e0bcbb040ceca9a336589fb5a646acb6b02412ca344e93d0121035baaa5689be443392caac0080778f76477e8c131f16d8abd52e37d32214b2bd0",
      "scriptsig_asm": "OP_PUSHBYTES_71 304402204e0249d748df6f634d83e9ea67d5f8435e07f33403610650d8e27fa609781bc302201b7c0c85bdcd17e94e0bcbb040ceca9a336589fb5a646acb6b02412ca344e93d01 OP_PUSHBYTES_33 035baaa5689be443392caac0080778f76477e8c131f16d8abd52e37d32214b2bd0",
      "is_coinbase": false,
      "sequence": 4294967293
    }
  ],
  "vout": [
    {
      "scriptpubkey": "001416534206e4d4eb393a7051db13d9a2da53454821",
      "scriptpubkey_asm": "OP_0 OP_PUSHBYTES_20 16534206e4d4eb393a7051db13d9a2da53454821",
      "scriptpubkey_type": "v0_p2wpkh",
      "scriptpubkey_address": "bc1qzef5yphy6n4njwns28d38kdzmff52jppk8kp4h",
      "value": 643406
    },
    {
      "scriptpubkey": "0014191569f995aba3b17b4c1755e7f74455c58fcd44",
      "scriptpubkey_asm": "OP_0 OP_PUSHBYTES_20 191569f995aba3b17b4c1755e7f74455c58fcd44",
      "scriptpubkey_type": "v0_p2wpkh",
      "scriptpubkey_address": "bc1qry2kn7v44w3mz76vza270a6y2hzcln2ygqmgu4",
      "value": 8695457
    }
  ],
  "size": 219,
  "weight": 876,
  "fee": 3488,
  "status": {
    "confirmed": true,
    "block_height": 834638,
    "block_hash": "000000000000000000025f742c626208ac87e0b7d15054abb4a19ca2d735a54e",
    "block_time": 1710405325
  },
  "hex": "0200000001433b856c073589939539e5a0c8c0c20d90311b748c293862bd49850a7d59c577000000006a47304402204e0249d748df6f634d83e9ea67d5f8435e07f33403610650d8e27fa609781bc302201b7c0c85bdcd17e94e0bcbb040ceca9a336589fb5a646acb6b02412ca344e93d0121035baaa5689be443392caac0080778f76477e8c131f16d8abd52e37d32214b2bd0fdffffff024ed109000000000016001416534206e4d4eb393a7051db13d9a2da53454821a1ae840000000000160014191569f995aba3b17b4c1755e7f74455c58fcd4400000000"
}