{
  "txid": "bc5aa0be6822604bdc51681f79f79979c96707959745cc7656c0755315220a31",
  "version": 2,
  "locktime": 0,
  "vin": [
    {
      "txid": "3f69fae8ca9bdd774ca5294e86509449f431bb44e2206cae9f7f495b7952d9e2",
      "vout": 8,
      "prevout": {
        "scriptpubkey": "5120a59fd43a8463d9fcbb233437deecd7bef4baac064ebdc7423f1d4d31d33bf8f9",
        "scriptpubkey_asm": "OP_PUSHNUM_1 OP_PUSHBYTES_32 a59fd43a8463d9fcbb233437deecd7bef4baac064ebdc7423f1d4d31d33bf8f9",
        "scriptpubkey_type": "v1_p2tr",
        "scriptpubkey_address": "bc1p5k0agw5yv0vlewerxsmaamxhhm6t4tqxf67uws3lr4xnr5emlrus3f8dyv",
        "value": 2982
      },
      "scriptsig": "",
      "scriptsig_asm": "",
      "witness": [
        "d805d0d31e2d980b0de8bf744a051db36ab06b0625b8a4993b5155a14dfb65853f477ff270bdd4540f01bb23f664b71b9a1304082743f4e914e6d252a51b0735",
        "202b1bb6a72dab86a3e29ed22cf4dfde1b6d77c603887ee005d98192909fb4e43bac0063036f726401011e6170706c69636174696f6e2f6a736f6e3b636861727365743d7574662d38004cb67b2270223a22706f772d3230222c226f70223a226d696e74222c227469636b223a2250455045222c22616d74223a2231303030222c22736f6c7574696f6e223a22504550453a334d524d3246744a42504c46315958564766504d33656556746675364446734762623a303030303030303030303030303030303030303139393431613561653132383937363539383134343239323533333030353762306461393666336465613163353a38393836353338353032227d68",
        "c16b70a06f37e9fa1ff7e7bec8bd1210228b25051d0c17b5264cdd8c73b544f454"
      ],
      "is_coinbase": false,
      "sequence": 4294967295
    }
  ],
  "vout": [
    {
      "scriptpubkey": "a914d86bcd8c487ad519e95c6557e7463d579cce14a287",
      "scriptpubkey_asm": "OP_HASH160 OP_PUSHBYTES_20 d86bcd8c487ad519e95c6557e7463d579cce14a2 OP_EQUAL",
      "scriptpubkey_type": "p2sh",
      "scriptpubkey_address": "3MRM2FtJBPLF1YXVGfPM3eeVtfu6DFsGbb",
      "value": 546
    }
  ],
  "size": 447,
  "weight": 696,
  "fee": 2436,
  "status": {
    "confirmed": true,
    "block_height": 834460,
    "block_hash": "00000000000000000000484a79b643b2524bbce82e5d8a442013fa5b8905ed98",
    "block_time": 1710307468
  },
  "hex": "02000000000101e2d952795b497f9fae6c20e244bb31f4499450864e29a54c77dd9bcae8fa693f0800000000ffffffff01220200000000000017a914d86bcd8c487ad519e95c6557e7463d579cce14a2870340d805d0d31e2d980b0de8bf744a051db36ab06b0625b8a4993b5155a14dfb65853f477ff270bdd4540f01bb23f664b71b9a1304082743f4e914e6d252a51b0735fd0301202b1bb6a72dab86a3e29ed22cf4dfde1b6d77c603887ee005d98192909fb4e43bac0063036f726401011e6170706c69636174696f6e2f6a736f6e3b636861727365743d7574662d38004cb67b2270223a22706f772d3230222c226f70223a226d696e74222c227469636b223a2250455045222c22616d74223a2231303030222c22736f6c7574696f6e223a22504550453a334d524d3246744a42504c46315958564766504d33656556746675364446734762623a303030303030303030303030303030303030303139393431613561653132383937363539383134343239323533333030353762306461393666336465613163353a38393836353338353032227d6821c16b70a06f37e9fa1ff7e7bec8bd1210228b25051d0c17b5264cdd8c73b544f45400000000"
}