{
  "txid": "bc827de503e7ef42c38cfce0dc5a2ee6e0436f66f2ec94f0712da1917d7e6c81",
  "version": 1,
  "locktime": 0,
  "vin": [
    {
      "txid": "391f7652e3b30cdf9efbbd701545125949f32b4e9c50a8e52a6ee438c94c6233",
      "vout": 1,
      "prevout": {
        "scriptpubkey": "00145d0ed57150622028b691e72dafd295125c0f52b8",
        "scriptpubkey_asm": "OP_0 OP_PUSHBYTES_20 5d0ed57150622028b691e72dafd295125c0f52b8",
        "scriptpubkey_type": "v0_p2wpkh",
        "scriptpubkey_address": "bc1qt58d2u2svgsz3d53uuk6l554zfwq754cftnq9s",
        "value": 1773957
      },
      "scriptsig": "",
      "scriptsig_asm": "",
      "witness": [
        "30440220066532d2a98126d86a23503a46e39ff76fe7eb9848be3e31c232dcfc951bbf8702200ef43e0d53414b7f6b319ad276439c4cd0eb9fb1d2c988bb689567ca8fa5292501",
        "03422015e4ead3d96921f9070f309f65cbfdc63344b3db5910bd0b5686afddda62"
      ],
      "is_coinbase": false,
      "sequence": 4294967295
    }
  ],
  "vout": [
    {
      "scriptpubkey": "76a9144fcc02169efecbb441f6802e54591c43d3affc4d88ac",
      "scriptpubkey_asm": "OP_DUP OP_HASH160 OP_PUSHBYTES_20 4fcc02169efecbb441f6802e54591c43d3affc4d OP_EQUALVERIFY OP_CHECKSIG",
      "scriptpubkey_type": "p2pkh",
      "scriptpubkey_address": "18Gvmtcckob8zPVgtJ3A22mzsLziKwcyqR",
      "value": 135900
    },
    {
      "scriptpubkey": "0014634eee0bc0af2bed8f704009fb0ae75d9c730c61",
      "scriptpubkey_asm": "OP_0 OP_PUSHBYTES_20 634eee0bc0af2bed8f704009fb0ae75d9c730c61",
      "scriptpubkey_type": "v0_p2wpkh",
      "scriptpubkey_address": "bc1qvd8wuz7q4u47mrmsgqylkzh8tkw8xrrpyd67zd",
      "value": 1635915
    }
  ],
  "size": 225,
  "weight": 573,
  "fee": 2142,
  "status": {
    "confirmed": true,
    "block_height": 834638,
    "block_hash": "000000000000000000025f742c626208ac87e0b7d15054abb4a19ca2d735a54e",
    "block_time": 1710405325
  },
  "hex": "0100000000010133624cc938e46e2ae5a8509c4e2bf3495912451570bdfb9edf0cb3e352761f390100000000ffffffff02dc120200000000001976a9144fcc02169efecbb441f6802e54591c43d3affc4d88ac4bf6180000000000160014634eee0bc0af2bed8f704009fb0ae75d9c730c61024730440220066532d2a98126d86a23503a46e39ff76fe7eb9848be3e31c232dcfc951bbf8702200ef43e0d53414b7f6b319ad276439c4cd0eb9fb1d2c988bb689567ca8fa52925012103422015e4ead3d96921f9070f309f65cbfdc63344b3db5910bd0b5686afddda6200000000"
}