{
  "txid": "bc84ccb74968514ef2ff5b56caeefb1692fe64eebb38bb8e361519e06f92085f",
  "version": 2,
  "locktime": 0,
  "vin": [
    {
      "txid": "d4604b6fd3f4e27c7a483f11681c612d9985e2e02c41fc72ddb5ecc97ea2d935",
      "vout": 1,
      "prevout": {
        "scriptpubkey": "00141b3c86bcf5e9140659b82951e357ba5f3dd3f2d1",
        "scriptpubkey_asm": "OP_0 OP_PUSHBYTES_20 1b3c86bcf5e9140659b82951e357ba5f3dd3f2d1",
        "scriptpubkey_type": "v0_p2wpkh",
        "scriptpubkey_address": "bc1qrv7gd084ay2qvkdc99g7x4a6tu7a8uk3msf2jh",
        "value": 36415633
      },
      "scriptsig": "",
      "scriptsig_asm": "",
      "witness": [
        "3045022100d803d9fce881769aad684f4d8063529e931a6943d7e18863a8a9d8d25f798298022049a9f50797ffd6f29c821105b0656f4fd16c31056bdbeedcc7df22c53586ba5e01",
        "020ebc067405d0101fe1d9c677f6624947949db00b7422bd2e7c08325d5131cdb6"
      ],
      "is_coinbase": false,
      "sequence": 4294967295
    }
  ],
  "vout": [
    {
      "scriptpubkey": "0014e506a8fcd707b42b96aa4cb095d4e25fdbc0ae3a",
      "scriptpubkey_asm": "OP_0 OP_PUSHBYTES_20 e506a8fcd707b42b96aa4cb095d4e25fdbc0ae3a",
      "scriptpubkey_type": "v0_p2wpkh",
      "scriptpubkey_address": "bc1qu5r23lxhq76zh942fjcft48ztldupt3607wcmc",
      "value": 155555
    },
    {
      "scriptpubkey": "00141b3c86bcf5e9140659b82951e357ba5f3dd3f2d1",
      "scriptpubkey_asm": "OP_0 OP_PUSHBYTES_20 1b3c86bcf5e9140659b82951e357ba5f3dd3f2d1",
      "scriptpubkey_type": "v0_p2wpkh",
      "scriptpubkey_address": "bc1qrv7gd084ay2qvkdc99g7x4a6tu7a8uk3msf2jh",
      "value": 36258122
    }
  ],
  "size": 223,
  "weight": 562,
  "fee": 1956,
  "status": {
    "confirmed": true,
    "block_height": 834460,
    "block_hash": "00000000000000000000484a79b643b2524bbce82e5d8a442013fa5b8905ed98",
    "block_time": 1710307468
  },
  "hex": "0200000000010135d9a27ec9ecb5dd72fc412ce0e285992d611c68113f487a7ce2f4d36f4b60d40100000000ffffffff02a35f020000000000160014e506a8fcd707b42b96aa4cb095d4e25fdbc0ae3a4a412902000000001600141b3c86bcf5e9140659b82951e357ba5f3dd3f2d102483045022100d803d9fce881769aad684f4d8063529e931a6943d7e18863a8a9d8d25f798298022049a9f50797ffd6f29c821105b0656f4fd16c31056bdbeedcc7df22c53586ba5e0121020ebc067405d0101fe1d9c677f6624947949db00b7422bd2e7c08325d5131cdb600000000"
}