{
  "txid": "bc9e2ac144171f145f4c537054e91cb2d8dfa3e39bdc34a541ea971c393e53ac",
  "version": 2,
  "locktime": 0,
  "vin": [
    {
      "txid": "5116c3a4e12fdf31d2ff104321398b4733b145868dc966b307585b8bd29d0272",
      "vout": 1,
      "prevout": {
        "scriptpubkey": "0014b8051c207e4a8378cb92ae0255902d11f611a63b",
        "scriptpubkey_asm": "OP_0 OP_PUSHBYTES_20 b8051c207e4a8378cb92ae0255902d11f611a63b",
        "scriptpubkey_type": "v0_p2wpkh",
        "scriptpubkey_address": "bc1qhqz3cgr7f2ph3juj4cp9typdz8mprf3mfff9r6",
        "value": 21900000
      },
      "scriptsig": "",
      "scriptsig_asm": "",
      "witness": [
        "3044022020a89dff29af5e75158bf300b27a47b2331d3446214fcd31278f5a902451760a022012dbd6e03171d6732b1c22a253e2f50342ff88faae881a862ae10174837d09b901",
        "033524b9676ea2b28890e87320a1999091286bb01a17c5bae0932a3f06e37c9880"
      ],
      "is_coinbase": false,
      "sequence": 4294967295
    },
    {
      "txid": "de92f6e46a16a59a0d461a62079cf3819dcb66344fe76955793659113443e036",
      "vout": 1,
      "prevout": {
        "scriptpubkey": "0014b8051c207e4a8378cb92ae0255902d11f611a63b",
        "scriptpubkey_asm": "OP_0 OP_PUSHBYTES_20 b8051c207e4a8378cb92ae0255902d11f611a63b",
        "scriptpubkey_type": "v0_p2wpkh",
        "scriptpubkey_address": "bc1qhqz3cgr7f2ph3juj4cp9typdz8mprf3mfff9r6",
        "value": 26571
      },
      "scriptsig": "",
      "scriptsig_asm": "",
      "witness": [
        "3045022100e7e298fe7bd6e01a404dd22b83550312b914764fa08c780f9755fa7e42991d4e022038eed6225cd95e2f7dd000ea9b5e5ca38443da76f569e604a58292a97632e06001",
        "033524b9676ea2b28890e87320a1999091286bb01a17c5bae0932a3f06e37c9880"
      ],
      "is_coinbase": false,
      "sequence": 4294967295
    },
    {
      "txid": "4f8ebdc9b2011aa8366c2bfa8b5ee009c54174019812aaf9ac12c05eb1c3af6f",
      "vout": 0,
      "prevout": {
        "scriptpubkey": "0014b8051c207e4a8378cb92ae0255902d11f611a63b",
        "scriptpubkey_asm": "OP_0 OP_PUSHBYTES_20 b8051c207e4a8378cb92ae0255902d11f611a63b",
        "scriptpubkey_type": "v0_p2wpkh",
        "scriptpubkey_address": "bc1qhqz3cgr7f2ph3juj4cp9typdz8mprf3mfff9r6",
        "value": 542067
      },
      "scriptsig": "",
      "scriptsig_asm": "",
      "witness": [
        "3045022100b891aff2af8bd408c6ac58e1f6d60c3ddf3225f35894f40f4fd54b6c794ac1a50220524318ab272cbff385934031f3cdf5bc4ec3be4ac54a679ce14e5111522c837001",
        "033524b9676ea2b28890e87320a1999091286bb01a17c5bae0932a3f06e37c9880"
      ],
      "is_coinbase": false,
      "sequence": 4294967295
    }
  ],
  "vout": [
    {
      "scriptpubkey": "0014b8051c207e4a8378cb92ae0255902d11f611a63b",
      "scriptpubkey_asm": "OP_0 OP_PUSHBYTES_20 b8051c207e4a8378cb92ae0255902d11f611a63b",
      "scriptpubkey_type": "v0_p2wpkh",
      "scriptpubkey_address": "bc1qhqz3cgr7f2ph3juj4cp9typdz8mprf3mfff9r6",
      "value": 8778257
    },
    {
      "scriptpubkey": "a9147903be4b9906a9c80cdc243aaed2870f750b47e087",
      "scriptpubkey_asm": "OP_HASH160 OP_PUSHBYTES_20 7903be4b9906a9c80cdc243aaed2870f750b47e0 OP_EQUAL",
      "scriptpubkey_type": "p2sh",
      "scriptpubkey_address": "3CitAr5zhys1bhDMMwWA8TMr8zkMJtPC6Q",
      "value": 13686422
    }
  ],
  "size": 521,
  "weight": 1109,
  "fee": 3959,
  "status": {
    "confirmed": true,
    "block_height": 834638,
    "block_hash": "000000000000000000025f742c626208ac87e0b7d15054abb4a19ca2d735a54e",
    "block_time": 1710405325
  },
  "hex": "0200000000010372029dd28b5b5807b366c98d8645b133478b39214310ffd231df2fe1a4c316510100000000ffffffff36e04334115936795569e74f3466cb9d81f39c07621a460d9aa5166ae4f692de0100000000ffffffff6fafc3b15ec012acf9aa1298017441c509e05e8bfa2b6c36a81a01b2c9bd8e4f0000000000ffffffff0211f2850000000000160014b8051c207e4a8378cb92ae0255902d11f611a63b96d6d0000000000017a9147903be4b9906a9c80cdc243aaed2870f750b47e08702473044022020a89dff29af5e75158bf300b27a47b2331d3446214fcd31278f5a902451760a022012dbd6e03171d6732b1c22a253e2f50342ff88faae881a862ae10174837d09b90121033524b9676ea2b28890e87320a1999091286bb01a17c5bae0932a3f06e37c988002483045022100e7e298fe7bd6e01a404dd22b83550312b914764fa08c780f9755fa7e42991d4e022038eed6225cd95e2f7dd000ea9b5e5ca38443da76f569e604a58292a97632e0600121033524b9676ea2b28890e87320a1999091286bb01a17c5bae0932a3f06e37c988002483045022100b891aff2af8bd408c6ac58e1f6d60c3ddf3225f35894f40f4fd54b6c794ac1a50220524318ab272cbff385934031f3cdf5bc4ec3be4ac54a679ce14e5111522c83700121033524b9676ea2b28890e87320a1999091286bb01a17c5bae0932a3f06e37c988000000000"
}