{
  "txid": "bca987d06080b6551ca1ab9140efd153a06e16904d8974d660e6e9274f3b31c8",
  "version": 1,
  "locktime": 0,
  "vin": [
    {
      "txid": "4ae07b4c93e54b18b220885e7e17de9759ff7dffe684c739d2e6969403baff7d",
      "vout": 0,
      "prevout": {
        "scriptpubkey": "5120b98f4d67f2f2bd0ecb88aea589418db62967bdfc68f2687516ce199244d01955",
        "scriptpubkey_asm": "OP_PUSHNUM_1 OP_PUSHBYTES_32 b98f4d67f2f2bd0ecb88aea589418db62967bdfc68f2687516ce199244d01955",
        "scriptpubkey_type": "v1_p2tr",
        "scriptpubkey_address": "bc1phx856elj727sajug46jcjsvdkc5k000udrexsagkecvey3xsr92spm8rfg",
        "value": 2710
      },
      "scriptsig": "",
      "scriptsig_asm": "",
      "witness": [
        "bdb420572b9ebadfd50137f6511a2ec1a69f7d16192d984016bae00961a5df1972a61db9a67ccd33cec717f9eaf4528ba0511e22b6832bf88a29e8ae3530caac83",
        "20be11f1d0580232188e877ef283eb5a1efd4e9e5290a2633605d666f59ad3fff2ac00630461746f6d03646d742ca16461726773a36b6d696e745f7469636b657263627463656e6f6e63651a0024c1326474696d651a65f10e7568",
        "c0be11f1d0580232188e877ef283eb5a1efd4e9e5290a2633605d666f59ad3fff2"
      ],
      "is_coinbase": false,
      "sequence": 4294967293
    }
  ],
  "vout": [
    {
      "scriptpubkey": "51209d6dbbf9bad17d0135e06ea56ec304df985f9f9bc809fa52ae6789a0947e0300",
      "scriptpubkey_asm": "OP_PUSHNUM_1 OP_PUSHBYTES_32 9d6dbbf9bad17d0135e06ea56ec304df985f9f9bc809fa52ae6789a0947e0300",
      "scriptpubkey_type": "v1_p2tr",
      "scriptpubkey_address": "bc1pn4kmh7d6697szd0qd6jkascym7v9l8umeqyl554wv7y6p9r7qvqquzkndh",
      "value": 1000
    }
  ],
  "size": 289,
  "weight": 571,
  "fee": 1710,
  "status": {
    "confirmed": true,
    "block_height": 834460,
    "block_hash": "00000000000000000000484a79b643b2524bbce82e5d8a442013fa5b8905ed98",
    "block_time": 1710307468
  },
  "hex": "010000000001017dffba039496e6d239c784e6ff7dff5997de177e5e8820b2184be5934c7be04a0000000000fdffffff01e8030000000000002251209d6dbbf9bad17d0135e06ea56ec304df985f9f9bc809fa52ae6789a0947e03000341bdb420572b9ebadfd50137f6511a2ec1a69f7d16192d984016bae00961a5df1972a61db9a67ccd33cec717f9eaf4528ba0511e22b6832bf88a29e8ae3530caac835b20be11f1d0580232188e877ef283eb5a1efd4e9e5290a2633605d666f59ad3fff2ac00630461746f6d03646d742ca16461726773a36b6d696e745f7469636b657263627463656e6f6e63651a0024c1326474696d651a65f10e756821c0be11f1d0580232188e877ef283eb5a1efd4e9e5290a2633605d666f59ad3fff200000000"
}