{
  "txid": "bcbbd606f8afc5d83d31f726dc786543184b559c7d8693e65427c2b4daa49ceb",
  "version": 2,
  "locktime": 0,
  "vin": [
    {
      "txid": "b5ce3a8f6f572f9468caf2012dea09049f718b120be8e162a16857dcbe8f706f",
      "vout": 0,
      "prevout": {
        "scriptpubkey": "51205ef3d67db93d3abcc0b9a5106624ffbfeb66691f79049580d3a4b9c2989806c6",
        "scriptpubkey_asm": "OP_PUSHNUM_1 OP_PUSHBYTES_32 5ef3d67db93d3abcc0b9a5106624ffbfeb66691f79049580d3a4b9c2989806c6",
        "scriptpubkey_type": "v1_p2tr",
        "scriptpubkey_address": "bc1ptmeavlde85ates9e55gxvf8lhl4kv6gl0yzftqxn5juu9xycqmrqzr2nfw",
        "value": 21281
      },
      "scriptsig": "",
      "scriptsig_asm": "",
      "witness": [
        "27a8b7abe5fff2248d003612d00fe63d126f209f879b0b1d0783ff77a950ee6cbbf0da4d5e61699499bb345ef2165f4ed5abaa799551b6a27184b2f0584baa2a",
        "20f2d00e1cce0b839d2e197679cac7a15152ec244338032c7767f72c1332d49a65ac0063036f7264010109696d6167652f706e67004d080289504e470d0a1a0a0000000d4948445200000118000001180803000000b05019be000000017352474200aece1ce90000000467414d410000b18f0bfc610500000150504c5445ff7b00fe8805fbb700f99801fc8e13febc3bffd400ffe000ffde00f9ab08ffa323ffeb64ffe75dfaae2efedd56ffe013ffe00efee953ffe329ffe63bffe644ffde0afcc902f8ea74fad544ef6f00ed8a10f7f081fdc745f07e10fdea67ef7a01ef7101f4bb4befa800efa500ac53006e5b3895541c866f308d755689776893807d5328010000000500270d00600c005e16077426149525149822118c0500625b28420300160900410a004d150767160c5838232edd6a00964801f2b76a4f3b21070035696580acacac02010b9994b41818172e1600f2c775ecd198edd096eece9452472c9e99c1ffffff535353d2d2d2e1e1e1f7e7caa1917477674ae4d3b6f77503f2d196e4c68bca9852bb9b605a2363c7954fc7a86ec8a86dd2a059bb9a5fe88c260b005333264d574084543f851b0b7e1e0d84eb490038164f450041b70000b80000cd0000e60000ea1600cf0c00fdd1725a000000097048597300000ec300000ec301c76fa8640000068749444154785eedddeb5fd36618c671ca5158119c02824caad3891bb42a8a45a7eb56c54dddd1c3e66107b7c9e669fbffdf2dd02b4f9ed8fb4ae2086d4aafefcb3eb734cfcf6e9f100319c8e8c1bf2f5f2578e33cbe4d0802703ec146adfa96da392cd99e63ac5aad375712acb77d615f03532b2b9b156c282f0a43280ca13084c2100a43280ca13084c2107b16a65a3de760c8d7cf616aa1ea1aa63cfd1cc6d950189bc2100a43280ca13084c2100a43f46a98105ac4a04a202d4c0887ec4b0983add9563165dbd330af1dc4f06125f0e2396c616b31580b6ce0983dc9619e3542abc667a789b580d1bc8ea546e36aee61fec127e2cd9bd7c667061fa697af5ebe084ff193bf393c7faefdf893c3446aeba8616a3ec398e9ef0e877182302d0a13a73084c2100a43280ca13084c210bb0953dd5a0b614861dee64e9b15264e610885211486501842610885217a330c1a98b287c19c6d576170a52c803fe0d9cb308e55c88509cef04366a2b5ad96356beb2961ea8e9568dda9e30f788a10067f6bb5da063669dbc2784c6218cf2a62d82e63ca5384302185d9a630018509280ca13084c2100a43280cb14fc25ccc3dccc05f193ddec2ed0c11b74bd31aa662c2abe117365643d65d0c5198cd6b868f0c0fb09f8e4bbe3fe65d5db8828d07df1c2686f9046f5f5c7b16c6bc674a6114264e610885211486d857617255fc300bbf6573f6cf3ff2f43b364ec234707577b57b619e3cfa359347f93a8d2c240cae2ad72e5ec26176de131c6987a58409290ca13084c2100a43280ca130443f8749bc8ba19fc3ac347196bbbede7e074c5f87719aedb77728cc368509280ca13084c24d0802100a43280ca13084c2100a43280ca13084c2100a43280ca13084c2100a43280c61855959c56fe26a345ca24bb8d92215b6939f22858934d0a5fa18f3699e603bf9511842610885211486501842610885211486c87a3b6bbe7a20cc2f4f7fee82a7f75080e87e98d2f5dbddf070190508852114865018426108852114865018a28fc334434811d7c01dd1b5ac617ec27e72d3ad3067f17bddeaf5cb681113de14ddbcf36336d74bd8505eba1606ffa9a43d14e6ceedaf32b9d57f61325118426108852114865018620fc2dc7a9804ef4b6088c090a9f8611e9cb99760f9fef709ee2f63ccf403a66c37dc8ff915344c65134760baf9ddd709bebd8931d33798b2dd55189bc2100a43280ca13084c2100a43280ca130c45d64490f834b74c9bedc55984f4fb5bb961ce6c617096e246ee92aa66c9f5f0e458f66b67c763d9b13d8e3ff720d6fd64b3af27bf01486501842610885211486501842610885211486501842610885211486501842610885211486b02e6d66761557226d57f040e33475cca7714f2fee48985db9741117af4d6b78a4499ae4a761477ae8a1302961f0149c34c9cf4f8f280ca13084c2100a43280ca13084c210fb270c4ee052ecc730cb67137d9c098603cb67929d6e3d93f8f429bc7d712dbe97abc363d9cce2ed8b2bef300732191bc4db1797c2100a43280ca13084c2100a43b830e54306acf9ccb93216fd30538619ac4d0802f55298c333eda68d3247b01673048b5e98a943e576ef63b1a7c2e0987d335618acc55861dca7c8a3300ad3a2300ab34361020a13a730b652b7c2e4fd936bf9282d1e0db9c31f298586061d23cc22a682b993981a1c3c8a452fcce8b033eecc62f1c0e86ca850894a07b10fcfc87c68e9c39321636eb182317fce0833bb84b1f94a34e7c23863a3c50f5369f1363c6e8609a586c15c6298030ab34d6114a64561146687c2041426a030841d2694160663de1c09033d1ee6e089d0c802cef94b0b897327dc9cf51dd70c8602d1dce0185623850f33772c74fc03fc55cf2f1973c73175ecd89c9bab1861a6dc179c5bc0d8fc7ccf8769fdbf213d4c6bae921a06630a1350986d0aa3303bfb509880c20452c2b853b3d430a1b430a15e0c13ddc57074c8499c3b82a18071e63b35e74c4e847af1cc37da5264cffe95c0a330db1446615a14466176284c4061020a437861703b65b96cddb53963dc7969dfb589c5f2e1d1d0b479d7261647512550d43093b823617812e7b3311358f49873eeabe0126660681af7f6fac6b1581a4796e28699c04b031378c1571ec6a2c79a8bbe4aa4e47d2a9c212c0e0ce1851e083389177cb98719c7a2c2bc456114a64561146687c2041426a03084c2100a43280ca13084c2100a43280ca13084c2109d0983dfbae4f3c2e09582fdbcd288e3b63e8c17628c8336e78c8025fcf05b8cbbb4e9ad16298c8888888888882e8888888888888888888888888888888888888888c8bb1918f80ff3e3e8d892557ddd0000000049454e44ae426082680063036f726401011e6170706c69636174696f6e2f6a736f6e3b636861727365743d7574662d38004d55017b2270223a22766f7264222c2276223a312c227479223a22696e7363222c22636f6c223a2261643262353365623665333264663466633139386133626262306662663638666637336432666432323832323163313136373630306533316337613163343836222c22696964223a22557073696465646f776e204e6f64654d6f6e6b6573222c227075626c223a2231455337623370636a527a4667796969714c7278484b546e43686535364c4a485937222c226e6f6e6365223a313234332c226d696e746572223a22626331713337306b63646468396136333667397364707766383677326568686b7770766b6c686472767a222c22736967223a22484e7461724b3557767352506a7a434e4751576464517433303056396e346573624433737264623837714272474a594e536d356e71653651677a744337754775705459387a6d2f30354f616441614e5271786a667132303d227d68",
        "c0f2d00e1cce0b839d2e197679cac7a15152ec244338032c7767f72c1332d49a65675a92934efa5e4869b2432a3e00abfc6819367af43949c2edc693b32d23ac05"
      ],
      "is_coinbase": false,
      "sequence": 4294967293
    }
  ],
  "vout": [
    {
      "scriptpubkey": "00148f9f6c35b72f751d20b0685c93e9cacdef670596",
      "scriptpubkey_asm": "OP_0 OP_PUSHBYTES_20 8f9f6c35b72f751d20b0685c93e9cacdef670596",
      "scriptpubkey_type": "v0_p2wpkh",
      "scriptpubkey_address": "bc1q370kcddh9a636g9sdpwf86w2ehhkwpvklhdrvz",
      "value": 1000
    },
    {
      "scriptpubkey": "5120f62171bf126320eed697da59179bb0a31c00c0460a1a69c591c3c0d0f8f5038f",
      "scriptpubkey_asm": "OP_PUSHNUM_1 OP_PUSHBYTES_32 f62171bf126320eed697da59179bb0a31c00c0460a1a69c591c3c0d0f8f5038f",
      "scriptpubkey_type": "v1_p2tr",
      "scriptpubkey_address": "bc1p7cshr0cjvvswa45hmfv30xas5vwqpszxpgdxn3v3c0qdp784qw8szjtge2",
      "value": 7713
    },
    {
      "scriptpubkey": "51200705a5767db892e98125775049b1a13dd9ecdc8aea0df413cabbee683e871012",
      "scriptpubkey_asm": "OP_PUSHNUM_1 OP_PUSHBYTES_32 0705a5767db892e98125775049b1a13dd9ecdc8aea0df413cabbee683e871012",
      "scriptpubkey_type": "v1_p2tr",
      "scriptpubkey_address": "bc1pquz62anahzfwnqf9wagynvdp8hv7ehy2agxlgy72h0hxs058zqfqk8ksyq",
      "value": 3251
    }
  ],
  "size": 2883,
  "weight": 3387,
  "fee": 9317,
  "status": {
    "confirmed": true,
    "block_height": 834464,
    "block_hash": "0000000000000000000177a0869a911a2b65c9bdcd5a8bcb02b68f305bee848e",
    "block_time": 1710308296
  },
  "hex": "020000000001016f708fbedc5768a162e1e80b128b719f0409ea2d01f2ca68942f576f8f3aceb50000000000fdffffff03e8030000000000001600148f9f6c35b72f751d20b0685c93e9cacdef670596211e000000000000225120f62171bf126320eed697da59179bb0a31c00c0460a1a69c591c3c0d0f8f5038fb30c0000000000002251200705a5767db892e98125775049b1a13dd9ecdc8aea0df413cabbee683e871012034027a8b7abe5fff2248d003612d00fe63d126f209f879b0b1d0783ff77a950ee6cbbf0da4d5e61699499bb345ef2165f4ed5abaa799551b6a27184b2f0584baa2afd120a20f2d00e1cce0b839d2e197679cac7a15152ec244338032c7767f72c1332d49a65ac0063036f7264010109696d6167652f706e67004d080289504e470d0a1a0a0000000d4948445200000118000001180803000000b05019be000000017352474200aece1ce90000000467414d410000b18f0bfc610500000150504c5445ff7b00fe8805fbb700f99801fc8e13febc3bffd400ffe000ffde00f9ab08ffa323ffeb64ffe75dfaae2efedd56ffe013ffe00efee953ffe329ffe63bffe644ffde0afcc902f8ea74fad544ef6f00ed8a10f7f081fdc745f07e10fdea67ef7a01ef7101f4bb4befa800efa500ac53006e5b3895541c866f308d755689776893807d5328010000000500270d00600c005e16077426149525149822118c0500625b28420300160900410a004d150767160c5838232edd6a00964801f2b76a4f3b21070035696580acacac02010b9994b41818172e1600f2c775ecd198edd096eece9452472c9e99c1ffffff535353d2d2d2e1e1e1f7e7caa1917477674ae4d3b6f77503f2d196e4c68bca9852bb9b605a2363c7954fc7a86ec8a86dd2a059bb9a5fe88c260b005333264d574084543f851b0b7e1e0d84eb490038164f450041b70000b80000cd0000e60000ea1600cf0c00fdd1725a000000097048597300000ec300000ec301c76fa8640000068749444154785eedddeb5fd36618c671ca5158119c02824caad3891bb42a8a45a7eb56c54dddd1c3e66107b7c9e669fbffdf2dd02b4f9ed8fb4ae2086d4aafefcb3eb734cfcf6e9f100319c8e8c1bf2f5f2578e33cbe4d0802703ec146adfa96da392cd99e63ac5aad375712acb77d615f03532b2b9b156c282f0a43280ca13084c2100a43280ca13084c2107b16a65a3de760c8d7cf616aa1ea1aa63cfd1cc6d950189bc2100a43280ca13084c2100a43f46a98105ac4a04a202d4c0887ec4b0983add9563165dbd330af1dc4f06125f0e2396c616b31580b6ce0983dc9619e3542abc667a789b580d1bc8ea546e36aee61fec127e2cd9bd7c667061fa697af5ebe084ff193bf393c7faefdf893c3446aeba8616a3ec398e9ef0e877182302d0a13a73084c2100a43280ca13084c210bb0953dd5a0b614861dee64e9b15264e610885211486501842610885217a330c1a98b287c19c6d576170a52c803fe0d9cb308e55c88509cef04366a2b5ad96356beb2961ea8e9568dda9e30f788a10067f6bb5da063669dbc2784c6218cf2a62d82e63ca5384302185d9a630018509280ca13084c2100a43280cb14fc25ccc3dccc05f193ddec2ed0c11b74bd31aa662c2abe117365643d65d0c5198cd6b868f0c0fb09f8e4bbe3fe65d5db8828d07df1c2686f9046f5f5c7b16c6bc674a6114264e610885211486d857617255fc300bbf6573f6cf3ff2f43b364ec234707577b57b619e3cfa359347f93a8d2c240cae2ad72e5ec26176de131c6987a58409290ca13084c2100a43280ca130443f8749bc8ba19fc3ac347196bbbede7e074c5f87719aedb77728cc368509280ca13084c24d0802100a43280ca13084c2100a43280ca13084c2100a43280ca13084c2100a43280c61855959c56fe26a345ca24bb8d92215b6939f22858934d0a5fa18f3699e603bf9511842610885211486501842610885211486c87a3b6bbe7a20cc2f4f7fee82a7f75080e87e98d2f5dbddf070190508852114865018426108852114865018a28fc334434811d7c01dd1b5ac617ec27e72d3ad3067f17bddeaf5cb681113de14ddbcf36336d74bd8505eba1606ffa9a43d14e6ceedaf32b9d57f61325118426108852114865018620fc2dc7a9804ef4b6088c090a9f8611e9cb99760f9fef709ee2f63ccf403a66c37dc8ff915344c65134760baf9ddd709bebd8931d33798b2dd55189bc2100a43280ca13084c2100a43280ca130c45d64490f834b74c9bedc55984f4fb5bb961ce6c617096e246ee92aa66c9f5f0e458f66b67c763d9b13d8e3ff720d6fd64b3af27bf01486501842610885211486501842610885211486501842610885211486501842610885211486b02e6d66761557226d57f040e33475cca7714f2fee48985db9741117af4d6b78a4499ae4a761477ae8a1302961f0149c34c9cf4f8f280ca13084c2100a43280ca13084c210fb270c4ee052ecc730cb67137d9c098603cb67929d6e3d93f8f429bc7d712dbe97abc363d9cce2ed8b2bef300732191bc4db1797c2100a43280ca13084c2100a43b830e54306acf9ccb93216fd30538619ac4d0802f55298c333eda68d3247b01673048b5e98a943e576ef63b1a7c2e0987d335618acc55861dca7c8a3300ad3a2300ab34361020a13a730b652b7c2e4fd936bf9282d1e0db9c31f298586061d23cc22a682b993981a1c3c8a452fcce8b033eecc62f1c0e86ca850894a07b10fcfc87c68e9c39321636eb182317fce0833bb84b1f94a34e7c23863a3c50f5369f1363c6e8609a586c15c6298030ab34d6114a64561146687c2041426a030841d2694160663de1c09033d1ee6e089d0c802cef94b0b897327dc9cf51dd70c8602d1dce0185623850f33772c74fc03fc55cf2f1973c73175ecd89c9bab1861a6dc179c5bc0d8fc7ccf8769fdbf213d4c6bae921a06630a1350986d0aa3303bfb509880c20452c2b853b3d430a1b430a15e0c13ddc57074c8499c3b82a18071e63b35e74c4e847af1cc37da5264cffe95c0a330db1446615a14466176284c4061020a437861703b65b96cddb53963dc7969dfb589c5f2e1d1d0b479d7261647512550d43093b823617812e7b3311358f49873eeabe0126660681af7f6fac6b1581a4796e28699c04b031378c1571ec6a2c79a8bbe4aa4e47d2a9c212c0e0ce1851e083389177cb98719c7a2c2bc456114a64561146687c2041426a03084c2100a43280ca13084c2100a43280ca13084c2109d0983dfbae4f3c2e09582fdbcd288e3b63e8c17628c8336e78c8025fcf05b8cbbb4e9ad16298c8888888888882e8888888888888888888888888888888888888888c8bb1918f80ff3e3e8d892557ddd0000000049454e44ae426082680063036f726401011e6170706c69636174696f6e2f6a736f6e3b636861727365743d7574662d38004d55017b2270223a22766f7264222c2276223a312c227479223a22696e7363222c22636f6c223a2261643262353365623665333264663466633139386133626262306662663638666637336432666432323832323163313136373630306533316337613163343836222c22696964223a22557073696465646f776e204e6f64654d6f6e6b6573222c227075626c223a2231455337623370636a527a4667796969714c7278484b546e43686535364c4a485937222c226e6f6e6365223a313234332c226d696e746572223a22626331713337306b63646468396136333667397364707766383677326568686b7770766b6c686472767a222c22736967223a22484e7461724b3557767352506a7a434e4751576464517433303056396e346573624433737264623837714272474a594e536d356e71653651677a744337754775705459387a6d2f30354f616441614e5271786a667132303d227d6841c0f2d00e1cce0b839d2e197679cac7a15152ec244338032c7767f72c1332d49a65675a92934efa5e4869b2432a3e00abfc6819367af43949c2edc693b32d23ac0500000000"
}