{
  "txid": "bcd3a68b65802f798620403e0fe914ffe055ce7bb9c429aeb6790042479043bc",
  "version": 2,
  "locktime": 0,
  "vin": [
    {
      "txid": "406c9c41704e70b8012c18b1dc234c0b1f466647fbac075064cd54db726e3880",
      "vout": 1,
      "prevout": {
        "scriptpubkey": "001498deceb0c362d30610b5059ba6dde8eb74cdbdb6",
        "scriptpubkey_asm": "OP_0 OP_PUSHBYTES_20 98deceb0c362d30610b5059ba6dde8eb74cdbdb6",
        "scriptpubkey_type": "v0_p2wpkh",
        "scriptpubkey_address": "bc1qnr0vavxrvtfsvy94qkd6dh0gad6vm0dkjv3xa8",
        "value": 10779
      },
      "scriptsig": "",
      "scriptsig_asm": "",
      "witness": [
        "304502210094cb9b5e7151804aa91bbff94805d959948278390835cd1d7a36f704bf33b51c022040fe5d8983a5efd89317f83b6ffe64c7db532713358a0437e2693cf2ea71098601",
        "02c73b6abe835f50a5d02a8b2242557e05e1d5d14fd2ad516e81773e6ea21d4580"
      ],
      "is_coinbase": false,
      "sequence": 4294967295
    }
  ],
  "vout": [
    {
      "scriptpubkey": "001435f97ccd177f6c7e13393848b4682814d754c959",
      "scriptpubkey_asm": "OP_0 OP_PUSHBYTES_20 35f97ccd177f6c7e13393848b4682814d754c959",
      "scriptpubkey_type": "v0_p2wpkh",
      "scriptpubkey_address": "bc1qxhuhengh0ak8uyee8pytg6pgznt4fj2enjxx3z",
      "value": 7230
    },
    {
      "scriptpubkey": "001458522b938444a7b387a87b97e8b2626035d234da",
      "scriptpubkey_asm": "OP_0 OP_PUSHBYTES_20 58522b938444a7b387a87b97e8b2626035d234da",
      "scriptpubkey_type": "v0_p2wpkh",
      "scriptpubkey_address": "bc1qtpfzhyuygjnm8pag0wt73vnzvq6aydx6jak47v",
      "value": 2026
    }
  ],
  "size": 223,
  "weight": 562,
  "fee": 1523,
  "status": {
    "confirmed": true,
    "block_height": 834464,
    "block_hash": "0000000000000000000177a0869a911a2b65c9bdcd5a8bcb02b68f305bee848e",
    "block_time": 1710308296
  },
  "hex": "0200000000010180386e72db54cd645007acfb4766461f0b4c23dcb1182c01b8704e70419c6c400100000000ffffffff023e1c00000000000016001435f97ccd177f6c7e13393848b4682814d754c959ea0700000000000016001458522b938444a7b387a87b97e8b2626035d234da0248304502210094cb9b5e7151804aa91bbff94805d959948278390835cd1d7a36f704bf33b51c022040fe5d8983a5efd89317f83b6ffe64c7db532713358a0437e2693cf2ea710986012102c73b6abe835f50a5d02a8b2242557e05e1d5d14fd2ad516e81773e6ea21d458000000000"
}