{
  "txid": "bcd9fa09cd7075fef51357b7bb06e83409467d22baf0a8d51277c9138342cd68",
  "version": 1,
  "locktime": 0,
  "vin": [
    {
      "txid": "6d2bc3e38e06daeecf5abf4a8a2f3486443d22149ee4800be32f6f3139f617e3",
      "vout": 0,
      "prevout": {
        "scriptpubkey": "51203f8ffad94d1a9a06351167840b236c4a3c20f484612a574d8b79c3a14a46217a",
        "scriptpubkey_asm": "OP_PUSHNUM_1 OP_PUSHBYTES_32 3f8ffad94d1a9a06351167840b236c4a3c20f484612a574d8b79c3a14a46217a",
        "scriptpubkey_type": "v1_p2tr",
        "scriptpubkey_address": "bc1p878l4k2dr2dqvdg3v7zqkgmvfg7zpayyvy49wnvt08p6zjjxy9aq6ze8er",
        "value": 2346
      },
      "scriptsig": "",
      "scriptsig_asm": "",
      "witness": [
        "2bc4785d277ca815cede93ef4f29c6e3e2e0bad77602a3e1330b5349b11aa1ffa27db39af22cbb82c3de084e285c63541a8334cb46914168cca8c294d058381b",
        "20df7d86a068f632a5c7dcbdc5a39b9bf728af7145d97493496be2bd3c4e5511a6ac0063036f726401010a746578742f706c61696e003e7b2270223a226272632d3230222c226f70223a227472616e73666572222c227469636b223a2253415453222c22616d74223a22313030303030303030227d68",
        "c1df7d86a068f632a5c7dcbdc5a39b9bf728af7145d97493496be2bd3c4e5511a6"
      ],
      "is_coinbase": false,
      "sequence": 4294967293
    }
  ],
  "vout": [
    {
      "scriptpubkey": "51203568766ef2d795b2041d57e14c404ad3268729183d191524cdc6627a3742cf22",
      "scriptpubkey_asm": "OP_PUSHNUM_1 OP_PUSHBYTES_32 3568766ef2d795b2041d57e14c404ad3268729183d191524cdc6627a3742cf22",
      "scriptpubkey_type": "v1_p2tr",
      "scriptpubkey_address": "bc1px458vmhj672mypqa2ls5csz26vngw2gc85v32fxdce385d6zeu3qym75g0",
      "value": 546
    }
  ],
  "size": 315,
  "weight": 597,
  "fee": 1800,
  "status": {
    "confirmed": true,
    "block_height": 834460,
    "block_hash": "00000000000000000000484a79b643b2524bbce82e5d8a442013fa5b8905ed98",
    "block_time": 1710307468
  },
  "hex": "01000000000101e317f639316f2fe30b80e49e14223d4486342f8a4abf5acfeeda068ee3c32b6d0000000000fdffffff0122020000000000002251203568766ef2d795b2041d57e14c404ad3268729183d191524cdc6627a3742cf2203402bc4785d277ca815cede93ef4f29c6e3e2e0bad77602a3e1330b5349b11aa1ffa27db39af22cbb82c3de084e285c63541a8334cb46914168cca8c294d058381b7620df7d86a068f632a5c7dcbdc5a39b9bf728af7145d97493496be2bd3c4e5511a6ac0063036f726401010a746578742f706c61696e003e7b2270223a226272632d3230222c226f70223a227472616e73666572222c227469636b223a2253415453222c22616d74223a22313030303030303030227d6821c1df7d86a068f632a5c7dcbdc5a39b9bf728af7145d97493496be2bd3c4e5511a600000000"
}