{
  "txid": "bce2ff8528e17fadadf3d347949fd531672126d57ffb27c1ca869f503c9b2135",
  "version": 2,
  "locktime": 0,
  "vin": [
    {
      "txid": "4455dd48015d10714ac5c6cbfb3e0776622595afd8e76d06fc078dd1ce06affe",
      "vout": 0,
      "prevout": {
        "scriptpubkey": "a9148961a95ef4a50b1b361c7ccbbab3de3888a408f487",
        "scriptpubkey_asm": "OP_HASH160 OP_PUSHBYTES_20 8961a95ef4a50b1b361c7ccbbab3de3888a408f4 OP_EQUAL",
        "scriptpubkey_type": "p2sh",
        "scriptpubkey_address": "3EDRVUKR5HHPFf52LaDNXgzYmSzXzFa462",
        "value": 9238560
      },
      "scriptsig": "160014a18ea5209d26b2d4a8d1ec250ff8463b356681e8",
      "scriptsig_asm": "OP_PUSHBYTES_22 0014a18ea5209d26b2d4a8d1ec250ff8463b356681e8",
      "witness": [
        "304402200c76ae008f9e5dd5aa4236dc7f25e17b5c47e2c87a25ac3977a14e606e804ac302204c17cff34b4830b76cd046941fdeb99c7ba053cccf5cd66d1e3d0cfeebc016fa01",
        "021f56a689d079c333f937de7bf6a563b28153eb33ce5b3ea7f399fe250a65167b"
      ],
      "is_coinbase": false,
      "sequence": 4294967295,
      "inner_redeemscript_asm": "OP_0 OP_PUSHBYTES_20 a18ea5209d26b2d4a8d1ec250ff8463b356681e8"
    }
  ],
  "vout": [
    {
      "scriptpubkey": "a9148961a95ef4a50b1b361c7ccbbab3de3888a408f487",
      "scriptpubkey_asm": "OP_HASH160 OP_PUSHBYTES_20 8961a95ef4a50b1b361c7ccbbab3de3888a408f4 OP_EQUAL",
      "scriptpubkey_type": "p2sh",
      "scriptpubkey_address": "3EDRVUKR5HHPFf52LaDNXgzYmSzXzFa462",
      "value": 600
    },
    {
      "scriptpubkey": "a9148961a95ef4a50b1b361c7ccbbab3de3888a408f487",
      "scriptpubkey_asm": "OP_HASH160 OP_PUSHBYTES_20 8961a95ef4a50b1b361c7ccbbab3de3888a408f4 OP_EQUAL",
      "scriptpubkey_type": "p2sh",
      "scriptpubkey_address": "3EDRVUKR5HHPFf52LaDNXgzYmSzXzFa462",
      "value": 600
    },
    {
      "scriptpubkey": "a9148961a95ef4a50b1b361c7ccbbab3de3888a408f487",
      "scriptpubkey_asm": "OP_HASH160 OP_PUSHBYTES_20 8961a95ef4a50b1b361c7ccbbab3de3888a408f4 OP_EQUAL",
      "scriptpubkey_type": "p2sh",
      "scriptpubkey_address": "3EDRVUKR5HHPFf52LaDNXgzYmSzXzFa462",
      "value": 600
    },
    {
      "scriptpubkey": "a9148961a95ef4a50b1b361c7ccbbab3de3888a408f487",
      "scriptpubkey_asm": "OP_HASH160 OP_PUSHBYTES_20 8961a95ef4a50b1b361c7ccbbab3de3888a408f4 OP_EQUAL",
      "scriptpubkey_type": "p2sh",
      "scriptpubkey_address": "3EDRVUKR5HHPFf52LaDNXgzYmSzXzFa462",
      "value": 600
    },
    {
      "scriptpubkey": "a9148961a95ef4a50b1b361c7ccbbab3de3888a408f487",
      "scriptpubkey_asm": "OP_HASH160 OP_PUSHBYTES_20 8961a95ef4a50b1b361c7ccbbab3de3888a408f4 OP_EQUAL",
      "scriptpubkey_type": "p2sh",
      "scriptpubkey_address": "3EDRVUKR5HHPFf52LaDNXgzYmSzXzFa462",
      "value": 600
    },
    {
      "scriptpubkey": "a9148961a95ef4a50b1b361c7ccbbab3de3888a408f487",
      "scriptpubkey_asm": "OP_HASH160 OP_PUSHBYTES_20 8961a95ef4a50b1b361c7ccbbab3de3888a408f4 OP_EQUAL",
      "scriptpubkey_type": "p2sh",
      "scriptpubkey_address": "3EDRVUKR5HHPFf52LaDNXgzYmSzXzFa462",
      "value": 600
    },
    {
      "scriptpubkey": "a9148961a95ef4a50b1b361c7ccbbab3de3888a408f487",
      "scriptpubkey_asm": "OP_HASH160 OP_PUSHBYTES_20 8961a95ef4a50b1b361c7ccbbab3de3888a408f4 OP_EQUAL",
      "scriptpubkey_type": "p2sh",
      "scriptpubkey_address": "3EDRVUKR5HHPFf52LaDNXgzYmSzXzFa462",
      "value": 600
    },
    {
      "scriptpubkey": "a9148961a95ef4a50b1b361c7ccbbab3de3888a408f487",
      "scriptpubkey_asm": "OP_HASH160 OP_PUSHBYTES_20 8961a95ef4a50b1b361c7ccbbab3de3888a408f4 OP_EQUAL",
      "scriptpubkey_type": "p2sh",
      "scriptpubkey_address": "3EDRVUKR5HHPFf52LaDNXgzYmSzXzFa462",
      "value": 600
    },
    {
      "scriptpubkey": "a9148961a95ef4a50b1b361c7ccbbab3de3888a408f487",
      "scriptpubkey_asm": "OP_HASH160 OP_PUSHBYTES_20 8961a95ef4a50b1b361c7ccbbab3de3888a408f4 OP_EQUAL",
      "scriptpubkey_type": "p2sh",
      "scriptpubkey_address": "3EDRVUKR5HHPFf52LaDNXgzYmSzXzFa462",
      "value": 600
    },
    {
      "scriptpubkey": "a9148961a95ef4a50b1b361c7ccbbab3de3888a408f487",
      "scriptpubkey_asm": "OP_HASH160 OP_PUSHBYTES_20 8961a95ef4a50b1b361c7ccbbab3de3888a408f4 OP_EQUAL",
      "scriptpubkey_type": "p2sh",
      "scriptpubkey_address": "3EDRVUKR5HHPFf52LaDNXgzYmSzXzFa462",
      "value": 600
    },
    {
      "scriptpubkey": "a9148961a95ef4a50b1b361c7ccbbab3de3888a408f487",
      "scriptpubkey_asm": "OP_HASH160 OP_PUSHBYTES_20 8961a95ef4a50b1b361c7ccbbab3de3888a408f4 OP_EQUAL",
      "scriptpubkey_type": "p2sh",
      "scriptpubkey_address": "3EDRVUKR5HHPFf52LaDNXgzYmSzXzFa462",
      "value": 9223480
    }
  ],
  "size": 535,
  "weight": 1813,
  "fee": 9080,
  "status": {
    "confirmed": true,
    "block_height": 834638,
    "block_hash": "000000000000000000025f742c626208ac87e0b7d15054abb4a19ca2d735a54e",
    "block_time": 1710405325
  },
  "hex": "02000000000101feaf06ced18d07fc066de7d8af95256276073efbcbc6c54a71105d0148dd55440000000017160014a18ea5209d26b2d4a8d1ec250ff8463b356681e8ffffffff0b580200000000000017a9148961a95ef4a50b1b361c7ccbbab3de3888a408f487580200000000000017a9148961a95ef4a50b1b361c7ccbbab3de3888a408f487580200000000000017a9148961a95ef4a50b1b361c7ccbbab3de3888a408f487580200000000000017a9148961a95ef4a50b1b361c7ccbbab3de3888a408f487580200000000000017a9148961a95ef4a50b1b361c7ccbbab3de3888a408f487580200000000000017a9148961a95ef4a50b1b361c7ccbbab3de3888a408f487580200000000000017a9148961a95ef4a50b1b361c7ccbbab3de3888a408f487580200000000000017a9148961a95ef4a50b1b361c7ccbbab3de3888a408f487580200000000000017a9148961a95ef4a50b1b361c7ccbbab3de3888a408f487580200000000000017a9148961a95ef4a50b1b361c7ccbbab3de3888a408f48738bd8c000000000017a9148961a95ef4a50b1b361c7ccbbab3de3888a408f4870247304402200c76ae008f9e5dd5aa4236dc7f25e17b5c47e2c87a25ac3977a14e606e804ac302204c17cff34b4830b76cd046941fdeb99c7ba053cccf5cd66d1e3d0cfeebc016fa0121021f56a689d079c333f937de7bf6a563b28153eb33ce5b3ea7f399fe250a65167b00000000"
}