{
  "txid": "bd0b9a6b77c80a21f6b2862bde084972eac85886328881eeeeb868f83a1fffd6",
  "version": 2,
  "locktime": 0,
  "vin": [
    {
      "txid": "3b02df69fd7f37807e0d6d081a1439475e9c48b78839c1875279ecd287cca1c2",
      "vout": 1,
      "prevout": {
        "scriptpubkey": "00149c0a9f112688c85fcb4417b05c8dec775e4cab36",
        "scriptpubkey_asm": "OP_0 OP_PUSHBYTES_20 9c0a9f112688c85fcb4417b05c8dec775e4cab36",
        "scriptpubkey_type": "v0_p2wpkh",
        "scriptpubkey_address": "bc1qns9f7yfx3ry9lj6yz7c9er0vwa0ye2eklpzqfw",
        "value": 155323140
      },
      "scriptsig": "",
      "scriptsig_asm": "",
      "witness": [
        "304402207c2329e46d45c88a00c87410875fc08d930e6cdd04fa8a47d8f4261c9d255e4102204e6328113238285ae8e41efcdb14f6929fd4a43fc09dd9d84ea8940c519038a001",
        "02616129debb96ad4f83f00ad5ef5d16ffd7878e7f5dcfb1b193451680631635ee"
      ],
      "is_coinbase": false,
      "sequence": 4294967293
    }
  ],
  "vout": [
    {
      "scriptpubkey": "a9148a16d4d55359203f0bbf752141d4cb481627f5a587",
      "scriptpubkey_asm": "OP_HASH160 OP_PUSHBYTES_20 8a16d4d55359203f0bbf752141d4cb481627f5a5 OP_EQUAL",
      "scriptpubkey_type": "p2sh",
      "scriptpubkey_address": "3EHAXNKisHVxmi54gCYBe35GVibj6VwSCk",
      "value": 201168
    },
    {
      "scriptpubkey": "00149c0a9f112688c85fcb4417b05c8dec775e4cab36",
      "scriptpubkey_asm": "OP_0 OP_PUSHBYTES_20 9c0a9f112688c85fcb4417b05c8dec775e4cab36",
      "scriptpubkey_type": "v0_p2wpkh",
      "scriptpubkey_address": "bc1qns9f7yfx3ry9lj6yz7c9er0vwa0ye2eklpzqfw",
      "value": 155120410
    }
  ],
  "size": 223,
  "weight": 565,
  "fee": 1562,
  "status": {
    "confirmed": true,
    "block_height": 834638,
    "block_hash": "000000000000000000025f742c626208ac87e0b7d15054abb4a19ca2d735a54e",
    "block_time": 1710405325
  },
  "hex": "02000000000101c2a1cc87d2ec795287c13988b7489c5e4739141a086d0d7e80377ffd69df023b0100000000fdffffff02d01103000000000017a9148a16d4d55359203f0bbf752141d4cb481627f5a5871af33e09000000001600149c0a9f112688c85fcb4417b05c8dec775e4cab360247304402207c2329e46d45c88a00c87410875fc08d930e6cdd04fa8a47d8f4261c9d255e4102204e6328113238285ae8e41efcdb14f6929fd4a43fc09dd9d84ea8940c519038a0012102616129debb96ad4f83f00ad5ef5d16ffd7878e7f5dcfb1b193451680631635ee00000000"
}