{
  "txid": "bd14ff7640606046a7ca7899f4bd58fc4dee574f1c11cf328a364d9b99de471d",
  "version": 2,
  "locktime": 0,
  "vin": [
    {
      "txid": "51ac6ff816d08b0475c899620237238574a4d6e67532e7636adc34ac0e5cffe0",
      "vout": 2,
      "prevout": {
        "scriptpubkey": "51201ec7ab5656500aa10623bcffbb1277eae944bc60a10a7d51daf21cd691660b1b",
        "scriptpubkey_asm": "OP_PUSHNUM_1 OP_PUSHBYTES_32 1ec7ab5656500aa10623bcffbb1277eae944bc60a10a7d51daf21cd691660b1b",
        "scriptpubkey_type": "v1_p2tr",
        "scriptpubkey_address": "bc1prmr6k4jk2q92zp3rhnlmkynhat55f0rq5y9865w67gwddytxpvds347wm8",
        "value": 10000
      },
      "scriptsig": "",
      "scriptsig_asm": "",
      "witness": [
        "eb66a0b7e4c4fef9c3b8ebffe0016fe8e24a5997a3a1d611800fd3d3ebe3aab4db17dbdaec754cadd0b4353747cf42464d70be0fb8546e8f36e126d557f7941f"
      ],
      "is_coinbase": false,
      "sequence": 2147483649
    },
    {
      "txid": "c618d952c87946c98e9fe8b9abb69351f9be13314d7878a90cbec4b73f9db6dd",
      "vout": 13,
      "prevout": {
        "scriptpubkey": "51201ec7ab5656500aa10623bcffbb1277eae944bc60a10a7d51daf21cd691660b1b",
        "scriptpubkey_asm": "OP_PUSHNUM_1 OP_PUSHBYTES_32 1ec7ab5656500aa10623bcffbb1277eae944bc60a10a7d51daf21cd691660b1b",
        "scriptpubkey_type": "v1_p2tr",
        "scriptpubkey_address": "bc1prmr6k4jk2q92zp3rhnlmkynhat55f0rq5y9865w67gwddytxpvds347wm8",
        "value": 10000
      },
      "scriptsig": "",
      "scriptsig_asm": "",
      "witness": [
        "cd810931b84c3c4be6ff442bd05558765567d21af8267593e686b7f8464e91f4137f60c3efa2e7dd63ade742ef61ee633fb42c5bdfac4743efdcc772779595a2"
      ],
      "is_coinbase": false,
      "sequence": 2147483649
    },
    {
      "txid": "44d062b1043312640254dc449d7eccc3200295e07b12edabf43056b792ffa3c7",
      "vout": 2,
      "prevout": {
        "scriptpubkey": "51201ec7ab5656500aa10623bcffbb1277eae944bc60a10a7d51daf21cd691660b1b",
        "scriptpubkey_asm": "OP_PUSHNUM_1 OP_PUSHBYTES_32 1ec7ab5656500aa10623bcffbb1277eae944bc60a10a7d51daf21cd691660b1b",
        "scriptpubkey_type": "v1_p2tr",
        "scriptpubkey_address": "bc1prmr6k4jk2q92zp3rhnlmkynhat55f0rq5y9865w67gwddytxpvds347wm8",
        "value": 10000
      },
      "scriptsig": "",
      "scriptsig_asm": "",
      "witness": [
        "b3e73f8c2036e748429865a08d1aad96a9a2fa1d04da14819805990f75e213c337d90715be965f773748332d1e6e01a81b98c4baf831dad8b35156bb78ebbdeb"
      ],
      "is_coinbase": false,
      "sequence": 2147483649
    },
    {
      "txid": "c618d952c87946c98e9fe8b9abb69351f9be13314d7878a90cbec4b73f9db6dd",
      "vout": 12,
      "prevout": {
        "scriptpubkey": "51201ec7ab5656500aa10623bcffbb1277eae944bc60a10a7d51daf21cd691660b1b",
        "scriptpubkey_asm": "OP_PUSHNUM_1 OP_PUSHBYTES_32 1ec7ab5656500aa10623bcffbb1277eae944bc60a10a7d51daf21cd691660b1b",
        "scriptpubkey_type": "v1_p2tr",
        "scriptpubkey_address": "bc1prmr6k4jk2q92zp3rhnlmkynhat55f0rq5y9865w67gwddytxpvds347wm8",
        "value": 10000
      },
      "scriptsig": "",
      "scriptsig_asm": "",
      "witness": [
        "18df289e5474759a3d552b57ecdcccb6957316eba2f81392a92350170ad08407015ecae32ac6f89fa17a4ddafd3db8e7558843290394970c534eb47ebce258cd"
      ],
      "is_coinbase": false,
      "sequence": 2147483649
    },
    {
      "txid": "c618d952c87946c98e9fe8b9abb69351f9be13314d7878a90cbec4b73f9db6dd",
      "vout": 11,
      "prevout": {
        "scriptpubkey": "51201ec7ab5656500aa10623bcffbb1277eae944bc60a10a7d51daf21cd691660b1b",
        "scriptpubkey_asm": "OP_PUSHNUM_1 OP_PUSHBYTES_32 1ec7ab5656500aa10623bcffbb1277eae944bc60a10a7d51daf21cd691660b1b",
        "scriptpubkey_type": "v1_p2tr",
        "scriptpubkey_address": "bc1prmr6k4jk2q92zp3rhnlmkynhat55f0rq5y9865w67gwddytxpvds347wm8",
        "value": 10000
      },
      "scriptsig": "",
      "scriptsig_asm": "",
      "witness": [
        "5cd4b249f2483a4eb5ea608b90ee3a0a554f4057084da5717d150e5403adf1438f718c542f345c21636c6d6ced1108631376de9479bc27afc408c51a118c07e8"
      ],
      "is_coinbase": false,
      "sequence": 2147483649
    }
  ],
  "vout": [
    {
      "scriptpubkey": "51208c97c26ee6487aea703fabfe8bdf7b74a179f826e5d13829c1373d68acea3ce8",
      "scriptpubkey_asm": "OP_PUSHNUM_1 OP_PUSHBYTES_32 8c97c26ee6487aea703fabfe8bdf7b74a179f826e5d13829c1373d68acea3ce8",
      "scriptpubkey_type": "v1_p2tr",
      "scriptpubkey_address": "bc1p3jtuymhxfpaw5upl40lghhmmwjshn7pxuhgns2wpxu7k3t828n5qemmlr8",
      "value": 40000
    },
    {
      "scriptpubkey": "51201ec7ab5656500aa10623bcffbb1277eae944bc60a10a7d51daf21cd691660b1b",
      "scriptpubkey_asm": "OP_PUSHNUM_1 OP_PUSHBYTES_32 1ec7ab5656500aa10623bcffbb1277eae944bc60a10a7d51daf21cd691660b1b",
      "scriptpubkey_type": "v1_p2tr",
      "scriptpubkey_address": "bc1prmr6k4jk2q92zp3rhnlmkynhat55f0rq5y9865w67gwddytxpvds347wm8",
      "value": 3472
    }
  ],
  "size": 633,
  "weight": 1536,
  "fee": 6528,
  "status": {
    "confirmed": true,
    "block_height": 834638,
    "block_hash": "000000000000000000025f742c626208ac87e0b7d15054abb4a19ca2d735a54e",
    "block_time": 1710405325
  },
  "hex": "02000000000105e0ff5c0eac34dc6a63e73275e6d6a474852337026299c875048bd016f86fac51020000000001000080ddb69d3fb7c4be0ca978784d3113bef95193b6abb9e89f8ec94679c852d918c60d0000000001000080c7a3ff92b75630f4abed127be0950220c3cc7e9d44dc540264123304b162d044020000000001000080ddb69d3fb7c4be0ca978784d3113bef95193b6abb9e89f8ec94679c852d918c60c0000000001000080ddb69d3fb7c4be0ca978784d3113bef95193b6abb9e89f8ec94679c852d918c60b000000000100008002409c0000000000002251208c97c26ee6487aea703fabfe8bdf7b74a179f826e5d13829c1373d68acea3ce8900d0000000000002251201ec7ab5656500aa10623bcffbb1277eae944bc60a10a7d51daf21cd691660b1b0140eb66a0b7e4c4fef9c3b8ebffe0016fe8e24a5997a3a1d611800fd3d3ebe3aab4db17dbdaec754cadd0b4353747cf42464d70be0fb8546e8f36e126d557f7941f0140cd810931b84c3c4be6ff442bd05558765567d21af8267593e686b7f8464e91f4137f60c3efa2e7dd63ade742ef61ee633fb42c5bdfac4743efdcc772779595a20140b3e73f8c2036e748429865a08d1aad96a9a2fa1d04da14819805990f75e213c337d90715be965f773748332d1e6e01a81b98c4baf831dad8b35156bb78ebbdeb014018df289e5474759a3d552b57ecdcccb6957316eba2f81392a92350170ad08407015ecae32ac6f89fa17a4ddafd3db8e7558843290394970c534eb47ebce258cd01405cd4b249f2483a4eb5ea608b90ee3a0a554f4057084da5717d150e5403adf1438f718c542f345c21636c6d6ced1108631376de9479bc27afc408c51a118c07e800000000"
}