{
  "txid": "bd1ffce5f2d254231ed58ae6933ff2cd0e8dda25f020aafc0a30ff5ee4ccbbd6",
  "version": 2,
  "locktime": 0,
  "vin": [
    {
      "txid": "caa5bbd38b6cea6126a40fcf5eba15dbb863d21570906f45caf0a3e95e7713fc",
      "vout": 1,
      "prevout": {
        "scriptpubkey": "51207707b0c4c4d16288a080dca38ea1a9905513ad8b5ba62f8ec3f9f598296fdc71",
        "scriptpubkey_asm": "OP_PUSHNUM_1 OP_PUSHBYTES_32 7707b0c4c4d16288a080dca38ea1a9905513ad8b5ba62f8ec3f9f598296fdc71",
        "scriptpubkey_type": "v1_p2tr",
        "scriptpubkey_address": "bc1pwurmp3xy693g3gyqmj3cagdfjp238tvttwnzlrkrl86es2t0m3csqqcaey",
        "value": 39972
      },
      "scriptsig": "",
      "scriptsig_asm": "",
      "witness": [
        "7457d0644c275145c04d2d0d5b3079e32e5eff570970d25a5ca7fc0ffdf0fa508a2a03ba2fb91d842cbd0eafa9aa891f34bf067336b000d33570bd44cc512e56"
      ],
      "is_coinbase": false,
      "sequence": 2147483649
    }
  ],
  "vout": [
    {
      "scriptpubkey": "5120b06c4ac019420bc300045facd5e8289afd7400190b0a835f3243c609166dbfe4",
      "scriptpubkey_asm": "OP_PUSHNUM_1 OP_PUSHBYTES_32 b06c4ac019420bc300045facd5e8289afd7400190b0a835f3243c609166dbfe4",
      "scriptpubkey_type": "v1_p2tr",
      "scriptpubkey_address": "bc1pkpky4sqegg9uxqqyt7kdt6pgnt7hgqqepv9gxhejg0rqj9ndhljqh3hu7j",
      "value": 18931
    },
    {
      "scriptpubkey": "51207707b0c4c4d16288a080dca38ea1a9905513ad8b5ba62f8ec3f9f598296fdc71",
      "scriptpubkey_asm": "OP_PUSHNUM_1 OP_PUSHBYTES_32 7707b0c4c4d16288a080dca38ea1a9905513ad8b5ba62f8ec3f9f598296fdc71",
      "scriptpubkey_type": "v1_p2tr",
      "scriptpubkey_address": "bc1pwurmp3xy693g3gyqmj3cagdfjp238tvttwnzlrkrl86es2t0m3csqqcaey",
      "value": 18423
    }
  ],
  "size": 205,
  "weight": 616,
  "fee": 2618,
  "status": {
    "confirmed": true,
    "block_height": 834638,
    "block_hash": "000000000000000000025f742c626208ac87e0b7d15054abb4a19ca2d735a54e",
    "block_time": 1710405325
  },
  "hex": "02000000000101fc13775ee9a3f0ca456f907015d263b8db15ba5ecf0fa42661ea6c8bd3bba5ca01000000000100008002f349000000000000225120b06c4ac019420bc300045facd5e8289afd7400190b0a835f3243c609166dbfe4f7470000000000002251207707b0c4c4d16288a080dca38ea1a9905513ad8b5ba62f8ec3f9f598296fdc7101407457d0644c275145c04d2d0d5b3079e32e5eff570970d25a5ca7fc0ffdf0fa508a2a03ba2fb91d842cbd0eafa9aa891f34bf067336b000d33570bd44cc512e5600000000"
}