{
  "txid": "bd22a4f9daff3309dc6d29574767ed3bb9c32d6b9781758a7de3a82e2bf88f80",
  "version": 1,
  "locktime": 0,
  "vin": [
    {
      "txid": "12401b089262bdb9f05d136a884a456a75e2601db732c5f79f37520b52e6d02b",
      "vout": 0,
      "prevout": {
        "scriptpubkey": "5120a6016fabc9b71e755057c7680f65f73a19090a96954e7f0f65608cc270cbcde3",
        "scriptpubkey_asm": "OP_PUSHNUM_1 OP_PUSHBYTES_32 a6016fabc9b71e755057c7680f65f73a19090a96954e7f0f65608cc270cbcde3",
        "scriptpubkey_type": "v1_p2tr",
        "scriptpubkey_address": "bc1p5cqkl27fku0825zhca5q7e0h8gvsjz5kj4887rm9vzxvyuxteh3sqwll3v",
        "value": 3034
      },
      "scriptsig": "",
      "scriptsig_asm": "",
      "witness": [
        "63d1b72e6f89be711085bd1acfd810276732bc147b5e1a971f2897eec3eb049e0f8e4cce7fe67b05cbcd51313d6d1e32aae1633318126b6e07c2d9b48472dd70",
        "20dfa7325ed77fab28d796d113dcead29a7490c58aaa244f71cf02d52f6b761081ac00630461746f6d03646d7437a16461726773a46474696d651a65edd17a656e6f6e63650068626974776f726b6364313234306b6d696e745f7469636b657264766d707868",
        "c1dfa7325ed77fab28d796d113dcead29a7490c58aaa244f71cf02d52f6b761081"
      ],
      "is_coinbase": false,
      "sequence": 0
    }
  ],
  "vout": [
    {
      "scriptpubkey": "0014fee280141d858d4048606b1379c35e291248b7f1",
      "scriptpubkey_asm": "OP_0 OP_PUSHBYTES_20 fee280141d858d4048606b1379c35e291248b7f1",
      "scriptpubkey_type": "v0_p2wpkh",
      "scriptpubkey_address": "bc1qlm3gq9qaskx5qjrqdvfhns679yfy3dl3yvarqn",
      "value": 1000
    }
  ],
  "size": 287,
  "weight": 533,
  "fee": 2034,
  "status": {
    "confirmed": true,
    "block_height": 834464,
    "block_hash": "0000000000000000000177a0869a911a2b65c9bdcd5a8bcb02b68f305bee848e",
    "block_time": 1710308296
  },
  "hex": "010000000001012bd0e6520b52379ff7c532b71d60e2756a454a886a135df0b9bd6292081b401200000000000000000001e803000000000000160014fee280141d858d4048606b1379c35e291248b7f1034063d1b72e6f89be711085bd1acfd810276732bc147b5e1a971f2897eec3eb049e0f8e4cce7fe67b05cbcd51313d6d1e32aae1633318126b6e07c2d9b48472dd706620dfa7325ed77fab28d796d113dcead29a7490c58aaa244f71cf02d52f6b761081ac00630461746f6d03646d7437a16461726773a46474696d651a65edd17a656e6f6e63650068626974776f726b6364313234306b6d696e745f7469636b657264766d70786821c1dfa7325ed77fab28d796d113dcead29a7490c58aaa244f71cf02d52f6b76108100000000"
}