{
  "txid": "bd2671f710ae5a43c6ddf9bfb504c685cf5181358079180a2fc682db3e9675df",
  "version": 2,
  "locktime": 0,
  "vin": [
    {
      "txid": "d77ddf7c6342477402f4694e2248d69de5f6de3b4eb0740e629ced95444a2dc5",
      "vout": 0,
      "prevout": {
        "scriptpubkey": "0014e25a77e90a95b50162d027de3830e07eece9e040",
        "scriptpubkey_asm": "OP_0 OP_PUSHBYTES_20 e25a77e90a95b50162d027de3830e07eece9e040",
        "scriptpubkey_type": "v0_p2wpkh",
        "scriptpubkey_address": "bc1qufd806g2jk6szcksyl0rsv8q0mkwnczqr30sky",
        "value": 47238
      },
      "scriptsig": "",
      "scriptsig_asm": "",
      "witness": [
        "3045022100f99f266a6e78d25ddc390ae380d90f8c02eace861c6c99096d2fec23672566700220094c2626f9169f0eb224b720643e1941c4f0ec79303c1b95f180c48d315b31e001",
        "02427459c529a810f79a3b5a0cafd34c892aa29efce72a22351c6074763bfbd9ed"
      ],
      "is_coinbase": false,
      "sequence": 4294967295
    }
  ],
  "vout": [
    {
      "scriptpubkey": "0014dcba9c4d04ad2d495abbfb4d9ab77cade6db6b9d",
      "scriptpubkey_asm": "OP_0 OP_PUSHBYTES_20 dcba9c4d04ad2d495abbfb4d9ab77cade6db6b9d",
      "scriptpubkey_type": "v0_p2wpkh",
      "scriptpubkey_address": "bc1qmjafcngy45k5jk4mldxe4dmu4hndk6ua7pmy9q",
      "value": 13621
    },
    {
      "scriptpubkey": "0014e25a77e90a95b50162d027de3830e07eece9e040",
      "scriptpubkey_asm": "OP_0 OP_PUSHBYTES_20 e25a77e90a95b50162d027de3830e07eece9e040",
      "scriptpubkey_type": "v0_p2wpkh",
      "scriptpubkey_address": "bc1qufd806g2jk6szcksyl0rsv8q0mkwnczqr30sky",
      "value": 31367
    }
  ],
  "size": 223,
  "weight": 562,
  "fee": 2250,
  "status": {
    "confirmed": true,
    "block_height": 834638,
    "block_hash": "000000000000000000025f742c626208ac87e0b7d15054abb4a19ca2d735a54e",
    "block_time": 1710405325
  },
  "hex": "02000000000101c52d4a4495ed9c620e74b04e3bdef6e59dd648224e69f402744742637cdf7dd70000000000ffffffff023535000000000000160014dcba9c4d04ad2d495abbfb4d9ab77cade6db6b9d877a000000000000160014e25a77e90a95b50162d027de3830e07eece9e04002483045022100f99f266a6e78d25ddc390ae380d90f8c02eace861c6c99096d2fec23672566700220094c2626f9169f0eb224b720643e1941c4f0ec79303c1b95f180c48d315b31e0012102427459c529a810f79a3b5a0cafd34c892aa29efce72a22351c6074763bfbd9ed00000000"
}