{
  "txid": "bd275be9928fb6987351a9c1ca507e041bbb2413e5677e0421773e3aaac53a3a",
  "version": 1,
  "locktime": 0,
  "vin": [
    {
      "txid": "ac235bcfe412fe1e434d3b1c03e1e88ca91f1a0fd132008084eb941589f5bac8",
      "vout": 32,
      "prevout": {
        "scriptpubkey": "5120b1044a38f772b8bc790e0e45013c773fc58ac857b854f21707ba4c878507501a",
        "scriptpubkey_asm": "OP_PUSHNUM_1 OP_PUSHBYTES_32 b1044a38f772b8bc790e0e45013c773fc58ac857b854f21707ba4c878507501a",
        "scriptpubkey_type": "v1_p2tr",
        "scriptpubkey_address": "bc1pkyzy5w8hw2utc7gwpezsz0rh8lzc4jzhhp20y9c8hfxg0pg82qdqsc5glu",
        "value": 14000
      },
      "scriptsig": "",
      "scriptsig_asm": "",
      "witness": [
        "c630942c11586f598e691ab2895e5e2b4418fb842e84768104d5801bcfff3ce12c88812ddc011cba3731475f339d83bba289da14402902c43ce675e0f2d6ae5a"
      ],
      "is_coinbase": false,
      "sequence": 4294967293
    }
  ],
  "vout": [
    {
      "scriptpubkey": "51203c7a4c5cd32f78d75e1475d3ca729e5fae1932538718649eeb8fe3659a315318",
      "scriptpubkey_asm": "OP_PUSHNUM_1 OP_PUSHBYTES_32 3c7a4c5cd32f78d75e1475d3ca729e5fae1932538718649eeb8fe3659a315318",
      "scriptpubkey_type": "v1_p2tr",
      "scriptpubkey_address": "bc1p83aychxn9audwhs5whfu5u57t7hpjvjnsuvxf8ht3l3ktx332vvqzjgs5h",
      "value": 2346
    },
    {
      "scriptpubkey": "5120f667578b85bed256c7fcb9f2cda488d5281e52ca42e7dd4bc21e95149562f09f",
      "scriptpubkey_asm": "OP_PUSHNUM_1 OP_PUSHBYTES_32 f667578b85bed256c7fcb9f2cda488d5281e52ca42e7dd4bc21e95149562f09f",
      "scriptpubkey_type": "v1_p2tr",
      "scriptpubkey_address": "bc1p7en40zu9hmf9d3luh8evmfyg655pu5k2gtna6j7zr623f9tz7z0stfnwav",
      "value": 2113
    },
    {
      "scriptpubkey": "5120b1044a38f772b8bc790e0e45013c773fc58ac857b854f21707ba4c878507501a",
      "scriptpubkey_asm": "OP_PUSHNUM_1 OP_PUSHBYTES_32 b1044a38f772b8bc790e0e45013c773fc58ac857b854f21707ba4c878507501a",
      "scriptpubkey_type": "v1_p2tr",
      "scriptpubkey_address": "bc1pkyzy5w8hw2utc7gwpezsz0rh8lzc4jzhhp20y9c8hfxg0pg82qdqsc5glu",
      "value": 7165
    }
  ],
  "size": 248,
  "weight": 788,
  "fee": 2376,
  "status": {
    "confirmed": true,
    "block_height": 834460,
    "block_hash": "00000000000000000000484a79b643b2524bbce82e5d8a442013fa5b8905ed98",
    "block_time": 1710307468
  },
  "hex": "01000000000101c8baf5891594eb84800032d10f1a1fa98ce8e1031c3b4d431efe12e4cf5b23ac2000000000fdffffff032a090000000000002251203c7a4c5cd32f78d75e1475d3ca729e5fae1932538718649eeb8fe3659a3153184108000000000000225120f667578b85bed256c7fcb9f2cda488d5281e52ca42e7dd4bc21e95149562f09ffd1b000000000000225120b1044a38f772b8bc790e0e45013c773fc58ac857b854f21707ba4c878507501a0140c630942c11586f598e691ab2895e5e2b4418fb842e84768104d5801bcfff3ce12c88812ddc011cba3731475f339d83bba289da14402902c43ce675e0f2d6ae5a00000000"
}