{
  "txid": "bd287d8d771a29de860c1b74fa7fa9bd16cc4a2b410e65cb64a903eb3fee048f",
  "version": 2,
  "locktime": 0,
  "vin": [
    {
      "txid": "72612b15907585467aab1b283bd6c67800c13f6709a9dc00b8f815683549745d",
      "vout": 1,
      "prevout": {
        "scriptpubkey": "0014bcc6fa9427abcfafe6855445b110fb534c07f043",
        "scriptpubkey_asm": "OP_0 OP_PUSHBYTES_20 bcc6fa9427abcfafe6855445b110fb534c07f043",
        "scriptpubkey_type": "v0_p2wpkh",
        "scriptpubkey_address": "bc1qhnr049p84086le5923zmzy8m2dxq0uzrynpfac",
        "value": 2564120
      },
      "scriptsig": "",
      "scriptsig_asm": "",
      "witness": [
        "3045022100a323c0502b097bd1d686400509e16fe3c0fd76ab5d6da57ace8e68dadcf91580022011bccbeb2291cea69b8be7affbd7680e300f615cdde9867a4ba1e91e7f6289c201",
        "0261adbeaf0153ff8f00a350cded8fc0772955b0b5fb67f639a02f096d3d036aa1"
      ],
      "is_coinbase": false,
      "sequence": 4294967295
    }
  ],
  "vout": [
    {
      "scriptpubkey": "0014740b2e8966a73bee15f7607b7575370d75270037",
      "scriptpubkey_asm": "OP_0 OP_PUSHBYTES_20 740b2e8966a73bee15f7607b7575370d75270037",
      "scriptpubkey_type": "v0_p2wpkh",
      "scriptpubkey_address": "bc1qws9jaztx5ua7u90hvpah2afhp46jwqph0lqa4u",
      "value": 41892
    },
    {
      "scriptpubkey": "0014a80d9c275a13411cc84836f7160e0e4f757580a3",
      "scriptpubkey_asm": "OP_0 OP_PUSHBYTES_20 a80d9c275a13411cc84836f7160e0e4f757580a3",
      "scriptpubkey_type": "v0_p2wpkh",
      "scriptpubkey_address": "bc1q4qxecf66zdq3ejzgxmm3vrswfa6htq9rhstqrq",
      "value": 2520705
    }
  ],
  "size": 223,
  "weight": 562,
  "fee": 1523,
  "status": {
    "confirmed": true,
    "block_height": 834464,
    "block_hash": "0000000000000000000177a0869a911a2b65c9bdcd5a8bcb02b68f305bee848e",
    "block_time": 1710308296
  },
  "hex": "020000000001015d7449356815f8b800dca909673fc10078c6d63b281bab7a46857590152b61720100000000ffffffff02a4a3000000000000160014740b2e8966a73bee15f7607b7575370d752700378176260000000000160014a80d9c275a13411cc84836f7160e0e4f757580a302483045022100a323c0502b097bd1d686400509e16fe3c0fd76ab5d6da57ace8e68dadcf91580022011bccbeb2291cea69b8be7affbd7680e300f615cdde9867a4ba1e91e7f6289c201210261adbeaf0153ff8f00a350cded8fc0772955b0b5fb67f639a02f096d3d036aa100000000"
}