{
  "txid": "bd373cfd7355ed11cc5cba6f9888d350f943e20f0a44f3ee4ae387ac2c824d35",
  "version": 2,
  "locktime": 0,
  "vin": [
    {
      "txid": "acc3ba00869acb582a3f2904ce3a11dd3779350ce234063fc7d0959246213364",
      "vout": 179,
      "prevout": {
        "scriptpubkey": "5120248ecc96d4b7fd1eaf062f500b7b3b83a5b3986322ebe48514cf668a785ae3ae",
        "scriptpubkey_asm": "OP_PUSHNUM_1 OP_PUSHBYTES_32 248ecc96d4b7fd1eaf062f500b7b3b83a5b3986322ebe48514cf668a785ae3ae",
        "scriptpubkey_type": "v1_p2tr",
        "scriptpubkey_address": "bc1pyj8ve9k5kl73atcx9agqk7emswjm8xrryt47fpg5eang57z6uwhqcpxqx3",
        "value": 1806
      },
      "scriptsig": "",
      "scriptsig_asm": "",
      "witness": [
        "abafa1624bf33c41104197b2c93e8e82746253db44a3e25f47e4a7752bfcda9e5dc33f2fe9c5dd1bc0c799b64387e51318167cf1de83803031b9469ea5467187",
        "20a6192bcaf4a86007a3b04703053ae86a8fecebda4f835e167dd3cd265a4774f1ac0063036f726401010a746578742f706c61696e00357b2270223a226272632d3230222c226f70223a226d696e74222c227469636b223a22646f6765222c22616d74223a2234323030227d68",
        "c0a6192bcaf4a86007a3b04703053ae86a8fecebda4f835e167dd3cd265a4774f1"
      ],
      "is_coinbase": false,
      "sequence": 4261412863
    }
  ],
  "vout": [
    {
      "scriptpubkey": "00147a665de7a370f4c9b372ab1fae587500a5bcbdb4",
      "scriptpubkey_asm": "OP_0 OP_PUSHBYTES_20 7a665de7a370f4c9b372ab1fae587500a5bcbdb4",
      "scriptpubkey_type": "v0_p2wpkh",
      "scriptpubkey_address": "bc1q0fn9mearwr6vnvmj4v06ukr4qzjme0d565dzcx",
      "value": 294
    }
  ],
  "size": 294,
  "weight": 540,
  "fee": 1512,
  "status": {
    "confirmed": true,
    "block_height": 834460,
    "block_hash": "00000000000000000000484a79b643b2524bbce82e5d8a442013fa5b8905ed98",
    "block_time": 1710307468
  },
  "hex": "02000000000101643321469295d0c73f0634e20c357937dd113ace04293f2a58cb9a8600bac3acb300000000fffffffd0126010000000000001600147a665de7a370f4c9b372ab1fae587500a5bcbdb40340abafa1624bf33c41104197b2c93e8e82746253db44a3e25f47e4a7752bfcda9e5dc33f2fe9c5dd1bc0c799b64387e51318167cf1de83803031b9469ea54671876d20a6192bcaf4a86007a3b04703053ae86a8fecebda4f835e167dd3cd265a4774f1ac0063036f726401010a746578742f706c61696e00357b2270223a226272632d3230222c226f70223a226d696e74222c227469636b223a22646f6765222c22616d74223a2234323030227d6821c0a6192bcaf4a86007a3b04703053ae86a8fecebda4f835e167dd3cd265a4774f100000000"
}