{
  "txid": "bd3cc90f2f7c72b6a092ea1848828ca9461ebf249df3cc71d0b3aae1020420e5",
  "version": 2,
  "locktime": 0,
  "vin": [
    {
      "txid": "e4b67ef95e8fe2bc180f8d1ff1efa1944535cba9098862fb0818a87b0ae7861e",
      "vout": 0,
      "prevout": {
        "scriptpubkey": "00140eaac4299f4a10e7612b008fbe1209b06aaa6e97",
        "scriptpubkey_asm": "OP_0 OP_PUSHBYTES_20 0eaac4299f4a10e7612b008fbe1209b06aaa6e97",
        "scriptpubkey_type": "v0_p2wpkh",
        "scriptpubkey_address": "bc1qp64vg2vlfggwwcftqz8muysfkp425m5h90qhhv",
        "value": 27212
      },
      "scriptsig": "",
      "scriptsig_asm": "",
      "witness": [
        "3044022013737f7d00519d30e69b27049df49dd919133bd424246e9cd721c60f0e78f96502202a7ff20c94e5cd0e1794f7ddebdf609c7183eb4bc09577072d093e20caa407db01",
        "020442a9debf5687a958529b6d2b877a2ebbc14aeb36938c8e9446848897ce61f7"
      ],
      "is_coinbase": false,
      "sequence": 4294967295
    }
  ],
  "vout": [
    {
      "scriptpubkey": "0014201636e4f7e33eebe2f213eea621e9ef237c9aa3",
      "scriptpubkey_asm": "OP_0 OP_PUSHBYTES_20 201636e4f7e33eebe2f213eea621e9ef237c9aa3",
      "scriptpubkey_type": "v0_p2wpkh",
      "scriptpubkey_address": "bc1qyqtrde8huvlwhchjz0h2vg0fau3hex4r4qarkn",
      "value": 25901
    }
  ],
  "size": 191,
  "weight": 437,
  "fee": 1311,
  "status": {
    "confirmed": true,
    "block_height": 834460,
    "block_hash": "00000000000000000000484a79b643b2524bbce82e5d8a442013fa5b8905ed98",
    "block_time": 1710307468
  },
  "hex": "020000000001011e86e70a7ba81808fb628809a9cb354594a1eff11f8d0f18bce28f5ef97eb6e40000000000ffffffff012d65000000000000160014201636e4f7e33eebe2f213eea621e9ef237c9aa302473044022013737f7d00519d30e69b27049df49dd919133bd424246e9cd721c60f0e78f96502202a7ff20c94e5cd0e1794f7ddebdf609c7183eb4bc09577072d093e20caa407db0121020442a9debf5687a958529b6d2b877a2ebbc14aeb36938c8e9446848897ce61f700000000"
}