{
  "txid": "bd3f5860928a6fa6919b1f5316daea86d817d932fa560bf8a6cedbbc8edfee2e",
  "version": 2,
  "locktime": 834458,
  "vin": [
    {
      "txid": "bcc3a84f907d54b16fc52d368e5973ed266369377e9c2b1ae66798aa6444a11a",
      "vout": 0,
      "prevout": {
        "scriptpubkey": "a914ccf452b2cba6d81bd0d7ac89ce66d5378439426187",
        "scriptpubkey_asm": "OP_HASH160 OP_PUSHBYTES_20 ccf452b2cba6d81bd0d7ac89ce66d53784394261 OP_EQUAL",
        "scriptpubkey_type": "p2sh",
        "scriptpubkey_address": "3LNiTYFankaRR4jWcNvp2QAkvpJWDgir5J",
        "value": 386250
      },
      "scriptsig": "160014bb053971ac45f661b6fc2e420c9c8b5bde34c88e",
      "scriptsig_asm": "OP_PUSHBYTES_22 0014bb053971ac45f661b6fc2e420c9c8b5bde34c88e",
      "witness": [
        "3044022079de596e7033f49bfc00efeeb934736208ced8a7616fe45d20e9c93496956bb802207319053c799947dee9930362a3565b57469443d40d84f0eefea1d94ade49001801",
        "032e54b68aa3c43d4ad3c2e70ce85469f19f0cfa106888d157e8dc07bc95e0a4cb"
      ],
      "is_coinbase": false,
      "sequence": 4294967293,
      "inner_redeemscript_asm": "OP_0 OP_PUSHBYTES_20 bb053971ac45f661b6fc2e420c9c8b5bde34c88e"
    }
  ],
  "vout": [
    {
      "scriptpubkey": "76a914730f92165e33cd305c911651ae306266d7c8118b88ac",
      "scriptpubkey_asm": "OP_DUP OP_HASH160 OP_PUSHBYTES_20 730f92165e33cd305c911651ae306266d7c8118b OP_EQUALVERIFY OP_CHECKSIG",
      "scriptpubkey_type": "p2pkh",
      "scriptpubkey_address": "1BVPMvrSnosx5PfXCRQTTNxCfmMo5QWq3j",
      "value": 91800
    },
    {
      "scriptpubkey": "76a914fa39562c012e414e99aafd1c7c92434b67b432a388ac",
      "scriptpubkey_asm": "OP_DUP OP_HASH160 OP_PUSHBYTES_20 fa39562c012e414e99aafd1c7c92434b67b432a3 OP_EQUALVERIFY OP_CHECKSIG",
      "scriptpubkey_type": "p2pkh",
      "scriptpubkey_address": "1Pp4cmxDsivBzY2ab4N8sDWhMGow5yjbzL",
      "value": 292237
    }
  ],
  "size": 251,
  "weight": 677,
  "fee": 2213,
  "status": {
    "confirmed": true,
    "block_height": 834460,
    "block_hash": "00000000000000000000484a79b643b2524bbce82e5d8a442013fa5b8905ed98",
    "block_time": 1710307468
  },
  "hex": "020000000001011aa14464aa9867e61a2b9c7e37696326ed73598e362dc56fb1547d904fa8c3bc0000000017160014bb053971ac45f661b6fc2e420c9c8b5bde34c88efdffffff0298660100000000001976a914730f92165e33cd305c911651ae306266d7c8118b88ac8d750400000000001976a914fa39562c012e414e99aafd1c7c92434b67b432a388ac02473044022079de596e7033f49bfc00efeeb934736208ced8a7616fe45d20e9c93496956bb802207319053c799947dee9930362a3565b57469443d40d84f0eefea1d94ade4900180121032e54b68aa3c43d4ad3c2e70ce85469f19f0cfa106888d157e8dc07bc95e0a4cb9abb0c00"
}