{
  "txid": "bd56d8914979e7ef7b000663c977d74323ef51f110a7720f94aa8bd4bab901a3",
  "version": 2,
  "locktime": 834637,
  "vin": [
    {
      "txid": "367c7995201cb1ac5c45babeeb183f7ce59b193c462f12d07ec31487c91b9e65",
      "vout": 9,
      "prevout": {
        "scriptpubkey": "001417d8db7fc599e36c837b8ccd1df401a0bb68267c",
        "scriptpubkey_asm": "OP_0 OP_PUSHBYTES_20 17d8db7fc599e36c837b8ccd1df401a0bb68267c",
        "scriptpubkey_type": "v0_p2wpkh",
        "scriptpubkey_address": "bc1qzlvdkl79n83keqmm3nx3maqp5zaksfnu3tzt47",
        "value": 10726910
      },
      "scriptsig": "",
      "scriptsig_asm": "",
      "witness": [
        "304402200b0ea211db97b23b4ac6f995b9641cd706ee3d4be3f4fd4288117ae4c0f5c8f30220024471ea8b5e25696b670a710d6aba2ba88325660ef6f7f0957a7edb2b14807b01",
        "0342baf8e0b2d476daadab3f9b4385c50984a78817b8ecb374bd0a0e024817efd8"
      ],
      "is_coinbase": false,
      "sequence": 4294967293
    }
  ],
  "vout": [
    {
      "scriptpubkey": "a9149539fe2209db17d939e7713df1c8ac117745651087",
      "scriptpubkey_asm": "OP_HASH160 OP_PUSHBYTES_20 9539fe2209db17d939e7713df1c8ac1177456510 OP_EQUAL",
      "scriptpubkey_type": "p2sh",
      "scriptpubkey_address": "3FJ45XiXFmmvonAxTj8rAmhej1KgDNWvnQ",
      "value": 10722470
    }
  ],
  "size": 192,
  "weight": 441,
  "fee": 4440,
  "status": {
    "confirmed": true,
    "block_height": 834638,
    "block_hash": "000000000000000000025f742c626208ac87e0b7d15054abb4a19ca2d735a54e",
    "block_time": 1710405325
  },
  "hex": "02000000000101659e1bc98714c37ed0122f463c199be57c3f18ebbeba455cacb11c2095797c360900000000fdffffff01a69ca3000000000017a9149539fe2209db17d939e7713df1c8ac1177456510870247304402200b0ea211db97b23b4ac6f995b9641cd706ee3d4be3f4fd4288117ae4c0f5c8f30220024471ea8b5e25696b670a710d6aba2ba88325660ef6f7f0957a7edb2b14807b01210342baf8e0b2d476daadab3f9b4385c50984a78817b8ecb374bd0a0e024817efd84dbc0c00"
}