{
  "txid": "bd5d76d22b2eabb02f7cd0d726c31bb1694b37d6a54bcb55c11610bc1b004642",
  "version": 2,
  "locktime": 834414,
  "vin": [
    {
      "txid": "60ab0388c833e4bd69c6bc4298f7cda81544738c28f94279c8c94ab2b3a2835e",
      "vout": 0,
      "prevout": {
        "scriptpubkey": "00148726f3444b494140358037fb50d7ac4c18bce075",
        "scriptpubkey_asm": "OP_0 OP_PUSHBYTES_20 8726f3444b494140358037fb50d7ac4c18bce075",
        "scriptpubkey_type": "v0_p2wpkh",
        "scriptpubkey_address": "bc1qsun0x3ztf9q5qdvqxla4p4avfsvtecr45yrwkz",
        "value": 4596515
      },
      "scriptsig": "",
      "scriptsig_asm": "",
      "witness": [
        "3044022002550dd052055591302a1c8b6c5ecdf1e6b448288cc3c8a415c7e6b6182623e6022049ac88ff0e562f4598860dffffabd8798ef7596e50404bd23943aff103372ca401",
        "03c35b58c222056c794a9f3e4d772594ce09f50d0d8f447a881e34903e4818588e"
      ],
      "is_coinbase": false,
      "sequence": 4294967293
    }
  ],
  "vout": [
    {
      "scriptpubkey": "001444a69d222b3f07f340277f9fe04ee607b25d27c2",
      "scriptpubkey_asm": "OP_0 OP_PUSHBYTES_20 44a69d222b3f07f340277f9fe04ee607b25d27c2",
      "scriptpubkey_type": "v0_p2wpkh",
      "scriptpubkey_address": "bc1qgjnf6g3t8urlxsp80707qnhxq7e96f7z528xer",
      "value": 4595308
    }
  ],
  "size": 191,
  "weight": 437,
  "fee": 1207,
  "status": {
    "confirmed": true,
    "block_height": 834464,
    "block_hash": "0000000000000000000177a0869a911a2b65c9bdcd5a8bcb02b68f305bee848e",
    "block_time": 1710308296
  },
  "hex": "020000000001015e83a2b3b24ac9c87942f9288c734415a8cdf79842bcc669bde433c88803ab600000000000fdffffff016c1e46000000000016001444a69d222b3f07f340277f9fe04ee607b25d27c202473044022002550dd052055591302a1c8b6c5ecdf1e6b448288cc3c8a415c7e6b6182623e6022049ac88ff0e562f4598860dffffabd8798ef7596e50404bd23943aff103372ca4012103c35b58c222056c794a9f3e4d772594ce09f50d0d8f447a881e34903e4818588e6ebb0c00"
}