{
  "txid": "bd6c0982cdf3673d593e51429b6e00aed22caaf5d542663b47c168d7b95cbf8d",
  "version": 2,
  "locktime": 834637,
  "vin": [
    {
      "txid": "5ea5642ba9af69c4896aa02bd0b8253f5ac728ee91dd118a9e6edb3842ab869d",
      "vout": 21,
      "prevout": {
        "scriptpubkey": "0014ed96eac1d476e77cde8d812ab15dd8a6477d1729",
        "scriptpubkey_asm": "OP_0 OP_PUSHBYTES_20 ed96eac1d476e77cde8d812ab15dd8a6477d1729",
        "scriptpubkey_type": "v0_p2wpkh",
        "scriptpubkey_address": "bc1qaktw4sw5wmnheh5dsy4tzhwc5erh69eff4zkdk",
        "value": 204657665
      },
      "scriptsig": "",
      "scriptsig_asm": "",
      "witness": [
        "3044022020514713d5554aa97992574a786edb1e4256bb304cbb07952245972468fbb78902202a87ccaa53c44d5278aba2c80bafc17860cad90a1d71ccd599af2e03f77527a701",
        "03ae9a9626325ec91e71b12099e22eee69d5bccfc8a751626b6fb6a9e8e5fa7e86"
      ],
      "is_coinbase": false,
      "sequence": 4294967293
    },
    {
      "txid": "cd0dfc3874405e8a693d7e8cc68c5f01551b3cda7d6336437a7081b3ada9abf9",
      "vout": 11,
      "prevout": {
        "scriptpubkey": "0014ed96eac1d476e77cde8d812ab15dd8a6477d1729",
        "scriptpubkey_asm": "OP_0 OP_PUSHBYTES_20 ed96eac1d476e77cde8d812ab15dd8a6477d1729",
        "scriptpubkey_type": "v0_p2wpkh",
        "scriptpubkey_address": "bc1qaktw4sw5wmnheh5dsy4tzhwc5erh69eff4zkdk",
        "value": 195342335
      },
      "scriptsig": "",
      "scriptsig_asm": "",
      "witness": [
        "3044022035cf0e919ef264afa798cb4f2628af19ce13addc362d695f2a6fed7cac87bf080220338cd32733ac7f676cc4dc784d5207bce824b9e74a00ac8febffaf495083078a01",
        "03ae9a9626325ec91e71b12099e22eee69d5bccfc8a751626b6fb6a9e8e5fa7e86"
      ],
      "is_coinbase": false,
      "sequence": 4294967293
    }
  ],
  "vout": [
    {
      "scriptpubkey": "0014381500586fc92c3acb68fe2a01d27639caade609",
      "scriptpubkey_asm": "OP_0 OP_PUSHBYTES_20 381500586fc92c3acb68fe2a01d27639caade609",
      "scriptpubkey_type": "v0_p2wpkh",
      "scriptpubkey_address": "bc1q8q2sqkr0eykr4jmglc4qr5nk8892mesf7r6nk5",
      "value": 2450515
    },
    {
      "scriptpubkey": "001454ba49dcdebc383ad4bcc8fe9de8e1659525db93",
      "scriptpubkey_asm": "OP_0 OP_PUSHBYTES_20 54ba49dcdebc383ad4bcc8fe9de8e1659525db93",
      "scriptpubkey_type": "v0_p2wpkh",
      "scriptpubkey_address": "bc1q2jaynhx7hsur449uerlfm68pvk2jtkunnr6j2h",
      "value": 397541021
    }
  ],
  "size": 370,
  "weight": 832,
  "fee": 8464,
  "status": {
    "confirmed": true,
    "block_height": 834638,
    "block_hash": "000000000000000000025f742c626208ac87e0b7d15054abb4a19ca2d735a54e",
    "block_time": 1710405325
  },
  "hex": "020000000001029d86ab4238db6e9e8a11dd91ee28c75a3f25b8d02ba06a89c469afa92b64a55e1500000000fdfffffff9aba9adb381707a4336637dda3c1b55015f8cc68c7e3d698a5e407438fc0dcd0b00000000fdffffff025364250000000000160014381500586fc92c3acb68fe2a01d27639caade6099dfeb1170000000016001454ba49dcdebc383ad4bcc8fe9de8e1659525db9302473044022020514713d5554aa97992574a786edb1e4256bb304cbb07952245972468fbb78902202a87ccaa53c44d5278aba2c80bafc17860cad90a1d71ccd599af2e03f77527a7012103ae9a9626325ec91e71b12099e22eee69d5bccfc8a751626b6fb6a9e8e5fa7e8602473044022035cf0e919ef264afa798cb4f2628af19ce13addc362d695f2a6fed7cac87bf080220338cd32733ac7f676cc4dc784d5207bce824b9e74a00ac8febffaf495083078a012103ae9a9626325ec91e71b12099e22eee69d5bccfc8a751626b6fb6a9e8e5fa7e864dbc0c00"
}