{
  "txid": "bd988dca987a913a0264e481bc2e8961668a3bb29f51c42cdef4b74c99b561dd",
  "version": 2,
  "locktime": 834458,
  "vin": [
    {
      "txid": "7fc6e05aee2b14bba81f684f324c37eb3d094cc89799e38bdff69974be3a4108",
      "vout": 1,
      "prevout": {
        "scriptpubkey": "001444724e03ed626aa059cbfe64c6cd11324c22e757",
        "scriptpubkey_asm": "OP_0 OP_PUSHBYTES_20 44724e03ed626aa059cbfe64c6cd11324c22e757",
        "scriptpubkey_type": "v0_p2wpkh",
        "scriptpubkey_address": "bc1qg3eyuqldvf42qkwtlejvdng3xfxz9e6h4s0cmv",
        "value": 2112700
      },
      "scriptsig": "",
      "scriptsig_asm": "",
      "witness": [
        "3044022020c3f7e76e02fe7a4124e7622922733a101814a3b6a26fe3413cd0df92beacd802205a5f20885287d6f86c0d2db4cb8342b30888250171734f1e3d271a698665f49501",
        "0335e720bae134677ff1f0ee945379b5be6ac311cf426921a036ee718e3b928070"
      ],
      "is_coinbase": false,
      "sequence": 4294967293
    }
  ],
  "vout": [
    {
      "scriptpubkey": "0014f328cb6480f7da6944c8df3d2e7f4a081c9f21db",
      "scriptpubkey_asm": "OP_0 OP_PUSHBYTES_20 f328cb6480f7da6944c8df3d2e7f4a081c9f21db",
      "scriptpubkey_type": "v0_p2wpkh",
      "scriptpubkey_address": "bc1q7v5vkeyq7ldxj3xgmu7jul62pqwf7gwm5sy030",
      "value": 555090
    },
    {
      "scriptpubkey": "0014097adc6b007dd0973c5c98c79df7452db4181116",
      "scriptpubkey_asm": "OP_0 OP_PUSHBYTES_20 097adc6b007dd0973c5c98c79df7452db4181116",
      "scriptpubkey_type": "v0_p2wpkh",
      "scriptpubkey_address": "bc1qp9adc6cq0hgfw0zunrrema699k6psygks88s87",
      "value": 1554150
    }
  ],
  "size": 222,
  "weight": 561,
  "fee": 3460,
  "status": {
    "confirmed": true,
    "block_height": 834460,
    "block_hash": "00000000000000000000484a79b643b2524bbce82e5d8a442013fa5b8905ed98",
    "block_time": 1710307468
  },
  "hex": "0200000000010108413abe7499f6df8be39997c84c093deb374c324f681fa8bb142bee5ae0c67f0100000000fdffffff025278080000000000160014f328cb6480f7da6944c8df3d2e7f4a081c9f21dbe6b6170000000000160014097adc6b007dd0973c5c98c79df7452db418111602473044022020c3f7e76e02fe7a4124e7622922733a101814a3b6a26fe3413cd0df92beacd802205a5f20885287d6f86c0d2db4cb8342b30888250171734f1e3d271a698665f49501210335e720bae134677ff1f0ee945379b5be6ac311cf426921a036ee718e3b9280709abb0c00"
}