{
  "txid": "bda1be119c7963fd80e10ce89aea5cc7e9fb1451ac6848f197f8d22ea2933a02",
  "version": 2,
  "locktime": 0,
  "vin": [
    {
      "txid": "3cf595fd0dcba98692c1790e90870e27a4406209f41367c0e3b9b16cef3068d1",
      "vout": 0,
      "prevout": {
        "scriptpubkey": "5120757927b003646eaa9a78bb6747e40182a39f3fbfd228c473324d13da6d748ff3",
        "scriptpubkey_asm": "OP_PUSHNUM_1 OP_PUSHBYTES_32 757927b003646eaa9a78bb6747e40182a39f3fbfd228c473324d13da6d748ff3",
        "scriptpubkey_type": "v1_p2tr",
        "scriptpubkey_address": "bc1pw4uj0vqrv3h24xnchdn50eqps23e70al6g5vguejf5fa5mt53lesrnnl3u",
        "value": 330000
      },
      "scriptsig": "",
      "scriptsig_asm": "",
      "witness": [
        "48eaf17a8a6e1f7fa1e208d685c1340faf9e8d859cdd3b8ae4631374c21bfbffe735e59c16619c0c6877628a4674595739c956a697fa3f05a6a28bee3c9134fd"
      ],
      "is_coinbase": false,
      "sequence": 4294967295
    }
  ],
  "vout": [
    {
      "scriptpubkey": "5120757927b003646eaa9a78bb6747e40182a39f3fbfd228c473324d13da6d748ff3",
      "scriptpubkey_asm": "OP_PUSHNUM_1 OP_PUSHBYTES_32 757927b003646eaa9a78bb6747e40182a39f3fbfd228c473324d13da6d748ff3",
      "scriptpubkey_type": "v1_p2tr",
      "scriptpubkey_address": "bc1pw4uj0vqrv3h24xnchdn50eqps23e70al6g5vguejf5fa5mt53lesrnnl3u",
      "value": 600
    },
    {
      "scriptpubkey": "5120757927b003646eaa9a78bb6747e40182a39f3fbfd228c473324d13da6d748ff3",
      "scriptpubkey_asm": "OP_PUSHNUM_1 OP_PUSHBYTES_32 757927b003646eaa9a78bb6747e40182a39f3fbfd228c473324d13da6d748ff3",
      "scriptpubkey_type": "v1_p2tr",
      "scriptpubkey_address": "bc1pw4uj0vqrv3h24xnchdn50eqps23e70al6g5vguejf5fa5mt53lesrnnl3u",
      "value": 600
    },
    {
      "scriptpubkey": "5120757927b003646eaa9a78bb6747e40182a39f3fbfd228c473324d13da6d748ff3",
      "scriptpubkey_asm": "OP_PUSHNUM_1 OP_PUSHBYTES_32 757927b003646eaa9a78bb6747e40182a39f3fbfd228c473324d13da6d748ff3",
      "scriptpubkey_type": "v1_p2tr",
      "scriptpubkey_address": "bc1pw4uj0vqrv3h24xnchdn50eqps23e70al6g5vguejf5fa5mt53lesrnnl3u",
      "value": 325845
    }
  ],
  "size": 248,
  "weight": 788,
  "fee": 2955,
  "status": {
    "confirmed": true,
    "block_height": 834460,
    "block_hash": "00000000000000000000484a79b643b2524bbce82e5d8a442013fa5b8905ed98",
    "block_time": 1710307468
  },
  "hex": "02000000000101d16830ef6cb1b9e3c06713f4096240a4270e87900e79c19286a9cb0dfd95f53c0000000000ffffffff035802000000000000225120757927b003646eaa9a78bb6747e40182a39f3fbfd228c473324d13da6d748ff35802000000000000225120757927b003646eaa9a78bb6747e40182a39f3fbfd228c473324d13da6d748ff3d5f8040000000000225120757927b003646eaa9a78bb6747e40182a39f3fbfd228c473324d13da6d748ff3014048eaf17a8a6e1f7fa1e208d685c1340faf9e8d859cdd3b8ae4631374c21bfbffe735e59c16619c0c6877628a4674595739c956a697fa3f05a6a28bee3c9134fd00000000"
}