{
  "txid": "bda36effbc096d06c3d290dff31e6483dd93ec6924a5323c88dc2329796d6bba",
  "version": 1,
  "locktime": 0,
  "vin": [
    {
      "txid": "ffa12117f19c288ec29c4a96360a711a6aeb5bab96aaea807904d8c667fce89c",
      "vout": 151,
      "prevout": {
        "scriptpubkey": "00140a33e0386776c75730107dc35c15437001a94bee",
        "scriptpubkey_asm": "OP_0 OP_PUSHBYTES_20 0a33e0386776c75730107dc35c15437001a94bee",
        "scriptpubkey_type": "v0_p2wpkh",
        "scriptpubkey_address": "bc1qpge7qwr8wmr4wvqs0hp4c92rwqq6jjlwzd8hwp",
        "value": 336269
      },
      "scriptsig": "",
      "scriptsig_asm": "",
      "witness": [
        "3044022078de9174bd0db9931489d924d7b2fd8d6b07f6911f3b50a38b29bd3fa6d68d3d02202489c7a5b0fee13197c97331d3e2f54971ce4a4449285a1a662ccafbbabc3ebc01",
        "033f0347c1fad0ea56e9295fe1fded1794902b1fc7c487d7dd151d72f024953d0f"
      ],
      "is_coinbase": false,
      "sequence": 4294967293
    },
    {
      "txid": "2979c353dc419a763df77e912980e7cce0be9feacde3b41c5b1782783fded3be",
      "vout": 114,
      "prevout": {
        "scriptpubkey": "00147d656fbe9ebfeea6404ae0c33ed7549a2af648ca",
        "scriptpubkey_asm": "OP_0 OP_PUSHBYTES_20 7d656fbe9ebfeea6404ae0c33ed7549a2af648ca",
        "scriptpubkey_type": "v0_p2wpkh",
        "scriptpubkey_address": "bc1q04jkl057hlh2vsz2urpna465ng40vjx24psju0",
        "value": 332903
      },
      "scriptsig": "",
      "scriptsig_asm": "",
      "witness": [
        "3044022063278dbb16316314960bc017095cb2afdaf93529f1ee553c6cc5c2a71ccaead3022068d66929d432870236003753ca7c91eca7074c1993537269ba5742b996ca216f01",
        "0291cc56a1cf9cc2160865f0ece3198158ec040cb9e155a1e8bede10045ac33877"
      ],
      "is_coinbase": false,
      "sequence": 4294967293
    },
    {
      "txid": "8954519b8352ffe51f670b99def764b5f8b9a9ff930824cfd184a165753c553a",
      "vout": 19,
      "prevout": {
        "scriptpubkey": "0014b7a5c1e85564f0038da4808dd707e26e4221aff9",
        "scriptpubkey_asm": "OP_0 OP_PUSHBYTES_20 b7a5c1e85564f0038da4808dd707e26e4221aff9",
        "scriptpubkey_type": "v0_p2wpkh",
        "scriptpubkey_address": "bc1qk7jur6z4vncq8rdyszxawplzdepzrtleteh5uy",
        "value": 332889
      },
      "scriptsig": "",
      "scriptsig_asm": "",
      "witness": [
        "304402200126e82742d86cc6a99d9ffcd035cfb4c2194419bea5b100678a32cfacd047c50220557d5a3e037cc6f0a4adfafd0719f951c7272e5baae209d621a0fad458c6026301",
        "02e1160ece0266ed074470f75fffd72f97050aaf22371b65f786be2d3419f658e6"
      ],
      "is_coinbase": false,
      "sequence": 4294967293
    },
    {
      "txid": "9fc2cd274a928169d320d402e97db07cede3b57a7e056021a8d608e954e58a51",
      "vout": 0,
      "prevout": {
        "scriptpubkey": "0014d10d78aaf60bd328e33c39c74e5956321c2612df",
        "scriptpubkey_asm": "OP_0 OP_PUSHBYTES_20 d10d78aaf60bd328e33c39c74e5956321c2612df",
        "scriptpubkey_type": "v0_p2wpkh",
        "scriptpubkey_address": "bc1q6yxh32hkp0fj3ceu88r5uk2kxgwzvyklpedez8",
        "value": 332797
      },
      "scriptsig": "",
      "scriptsig_asm": "",
      "witness": [
        "30450221008e4a1e06da97371ce600191abeb4ab600c30eecdf79f64b5422e66a835fcf0a30220471df50fffb2c37044007bd12fedb729abaa53a983e771f3a1014bac14c641d201",
        "0270ca70d11d641ef93f3eff18be105ca53902395cbb55e16e6a162ed7e754e713"
      ],
      "is_coinbase": false,
      "sequence": 4294967293
    },
    {
      "txid": "fd6712dd0c6eba802ffbdb080adfe388b765d9817902537cbfc186b2430f855e",
      "vout": 87,
      "prevout": {
        "scriptpubkey": "00146624e0c2d1ff8bb571b3e06f92ed286c716c1066",
        "scriptpubkey_asm": "OP_0 OP_PUSHBYTES_20 6624e0c2d1ff8bb571b3e06f92ed286c716c1066",
        "scriptpubkey_type": "v0_p2wpkh",
        "scriptpubkey_address": "bc1qvcjwpsk3l79m2udnuphe9mfgd3ckcyrxqwj7tr",
        "value": 332779
      },
      "scriptsig": "",
      "scriptsig_asm": "",
      "witness": [
        "3045022100b45d0dad9ada8cd2254f42b8cd7c73726c88f7e37617b41ae06e355dd6833fe202206e79d2e636df530105597aaca2be5ccc2682a68ec607b41aed40190b2975603101",
        "0219ca57c4c9151c3be7c7c02a6369fe3ca76c634fce9768de861b081ba9fd3187"
      ],
      "is_coinbase": false,
      "sequence": 4294967293
    },
    {
      "txid": "57b5be0152a49ff73bc5fd314f36aaa49f51120031d177765e10f6ec83cd4b9f",
      "vout": 0,
      "prevout": {
        "scriptpubkey": "0014ff23e456ab3788daa05782b8967ee6c77a97259e",
        "scriptpubkey_asm": "OP_0 OP_PUSHBYTES_20 ff23e456ab3788daa05782b8967ee6c77a97259e",
        "scriptpubkey_type": "v0_p2wpkh",
        "scriptpubkey_address": "bc1qlu37g44tx7yd4gzhs2ufvlhxcaafwfv75ev5e0",
        "value": 332530
      },
      "scriptsig": "",
      "scriptsig_asm": "",
      "witness": [
        "304402200a25b162190a519e3ad3f0e9b293d7abc2fe012d367abae28a9cccc4ee9e5a13022073b56636b8befea9c18fe39b5ca2e4039d92312d1c5440a08cb7a837231569ad01",
        "02ec425194bb4dc7505d6c611bbfb657538d1305b79c74903d6820aabac82b803e"
      ],
      "is_coinbase": false,
      "sequence": 4294967293
    },
    {
      "txid": "959b4875d7b983f4b04b2d0dedddbaa8c19d83c4106000db6c4852dc7fd1d128",
      "vout": 17,
      "prevout": {
        "scriptpubkey": "001401e7e5fdeab76fa8897a774b5a62284ee943ed5f",
        "scriptpubkey_asm": "OP_0 OP_PUSHBYTES_20 01e7e5fdeab76fa8897a774b5a62284ee943ed5f",
        "scriptpubkey_type": "v0_p2wpkh",
        "scriptpubkey_address": "bc1qq8n7tl02kah63zt6wa945c3gfm558m2l0d4gdw",
        "value": 329235
      },
      "scriptsig": "",
      "scriptsig_asm": "",
      "witness": [
        "3045022100b4259bbf300bcc95bce486d8a8f159749103f747ded16aa5d85e9b898a2912e602205bcf67b7dcd267dfffcdec3fd785a336fb2d7c8e8829f366b0aa90e88e32a31301",
        "03777299225980bd85b0d3a73d72b993b814629f40cdac578b79f45161bb109c6a"
      ],
      "is_coinbase": false,
      "sequence": 4294967293
    }
  ],
  "vout": [
    {
      "scriptpubkey": "a914d6bfee7c8c925ad5ff17035b2672eee12baf168b87",
      "scriptpubkey_asm": "OP_HASH160 OP_PUSHBYTES_20 d6bfee7c8c925ad5ff17035b2672eee12baf168b OP_EQUAL",
      "scriptpubkey_type": "p2sh",
      "scriptpubkey_address": "3MGWTEe7C77RBmhtGhYN1B3fszdXYSQdZA",
      "value": 2313802
    }
  ],
  "size": 1083,
  "weight": 2070,
  "fee": 15600,
  "status": {
    "confirmed": true,
    "block_height": 834638,
    "block_hash": "000000000000000000025f742c626208ac87e0b7d15054abb4a19ca2d735a54e",
    "block_time": 1710405325
  },
  "hex": "010000000001079ce8fc67c6d8047980eaaa96ab5beb6a1a710a36964a9cc28e289cf11721a1ff9700000000fdffffffbed3de3f7882175b1cb4e3cdea9fbee0cce78029917ef73d769a41dc53c379297200000000fdffffff3a553c7565a184d1cf240893ffa9b9f8b564f7de990b671fe5ff52839b5154891300000000fdffffff518ae554e908d6a82160057e7ab5e3ed7cb07de902d420d36981924a27cdc29f0000000000fdffffff5e850f43b286c1bf7c53027981d965b788e3df0a08dbfb2f80ba6e0cdd1267fd5700000000fdffffff9f4bcd83ecf6105e7677d1310012519fa4aa364f31fdc53bf79fa45201beb5570000000000fdffffff28d1d17fdc52486cdb006010c4839dc1a8badded0d2d4bb0f483b9d775489b951100000000fdffffff014a4e23000000000017a914d6bfee7c8c925ad5ff17035b2672eee12baf168b8702473044022078de9174bd0db9931489d924d7b2fd8d6b07f6911f3b50a38b29bd3fa6d68d3d02202489c7a5b0fee13197c97331d3e2f54971ce4a4449285a1a662ccafbbabc3ebc0121033f0347c1fad0ea56e9295fe1fded1794902b1fc7c487d7dd151d72f024953d0f02473044022063278dbb16316314960bc017095cb2afdaf93529f1ee553c6cc5c2a71ccaead3022068d66929d432870236003753ca7c91eca7074c1993537269ba5742b996ca216f01210291cc56a1cf9cc2160865f0ece3198158ec040cb9e155a1e8bede10045ac338770247304402200126e82742d86cc6a99d9ffcd035cfb4c2194419bea5b100678a32cfacd047c50220557d5a3e037cc6f0a4adfafd0719f951c7272e5baae209d621a0fad458c60263012102e1160ece0266ed074470f75fffd72f97050aaf22371b65f786be2d3419f658e6024830450221008e4a1e06da97371ce600191abeb4ab600c30eecdf79f64b5422e66a835fcf0a30220471df50fffb2c37044007bd12fedb729abaa53a983e771f3a1014bac14c641d201210270ca70d11d641ef93f3eff18be105ca53902395cbb55e16e6a162ed7e754e71302483045022100b45d0dad9ada8cd2254f42b8cd7c73726c88f7e37617b41ae06e355dd6833fe202206e79d2e636df530105597aaca2be5ccc2682a68ec607b41aed40190b2975603101210219ca57c4c9151c3be7c7c02a6369fe3ca76c634fce9768de861b081ba9fd31870247304402200a25b162190a519e3ad3f0e9b293d7abc2fe012d367abae28a9cccc4ee9e5a13022073b56636b8befea9c18fe39b5ca2e4039d92312d1c5440a08cb7a837231569ad012102ec425194bb4dc7505d6c611bbfb657538d1305b79c74903d6820aabac82b803e02483045022100b4259bbf300bcc95bce486d8a8f159749103f747ded16aa5d85e9b898a2912e602205bcf67b7dcd267dfffcdec3fd785a336fb2d7c8e8829f366b0aa90e88e32a313012103777299225980bd85b0d3a73d72b993b814629f40cdac578b79f45161bb109c6a00000000"
}