{
  "txid": "bdc84807b41c22bae70216d341cbc79e13a5258ffe518248ffe32e6f6cc54426",
  "version": 2,
  "locktime": 0,
  "vin": [
    {
      "txid": "3f69fae8ca9bdd774ca5294e86509449f431bb44e2206cae9f7f495b7952d9e2",
      "vout": 5,
      "prevout": {
        "scriptpubkey": "5120261b34a6b3f0ca716bff7f008bfc29449852ba7b694b2c29ddd5127c30dabfaa",
        "scriptpubkey_asm": "OP_PUSHNUM_1 OP_PUSHBYTES_32 261b34a6b3f0ca716bff7f008bfc29449852ba7b694b2c29ddd5127c30dabfaa",
        "scriptpubkey_type": "v1_p2tr",
        "scriptpubkey_address": "bc1pycdnff4n7r98z6ll0uqghlpfgjv99wnmd99jc2wa65f8cvx6h74qpr8a90",
        "value": 2996
      },
      "scriptsig": "",
      "scriptsig_asm": "",
      "witness": [
        "c74fd91a98caa8066ca0ae25b6c7f49b5e75b91e7c55a155e6b22a706e733815362c93e1f47a4a8d75740d6d1c8cf85a186c49174ec5258581137361c4e3ce36",
        "209e236f06abb5bffc01e076ddff2b826f1f5436b1794812cfe20fce7d88c6a21dac0063036f726401011e6170706c69636174696f6e2f6a736f6e3b636861727365743d7574662d38004cb77b2270223a22706f772d3230222c226f70223a226d696e74222c227469636b223a2250455045222c22616d74223a2231303030222c22736f6c7574696f6e223a22504550453a334d524d3246744a42504c46315958564766504d33656556746675364446734762623a303030303030303030303030303030303030303139393431613561653132383937363539383134343239323533333030353762306461393666336465613163353a3233353631373234353433227d68",
        "c06b70a06f37e9fa1ff7e7bec8bd1210228b25051d0c17b5264cdd8c73b544f454"
      ],
      "is_coinbase": false,
      "sequence": 4294967295
    }
  ],
  "vout": [
    {
      "scriptpubkey": "a914d86bcd8c487ad519e95c6557e7463d579cce14a287",
      "scriptpubkey_asm": "OP_HASH160 OP_PUSHBYTES_20 d86bcd8c487ad519e95c6557e7463d579cce14a2 OP_EQUAL",
      "scriptpubkey_type": "p2sh",
      "scriptpubkey_address": "3MRM2FtJBPLF1YXVGfPM3eeVtfu6DFsGbb",
      "value": 546
    }
  ],
  "size": 448,
  "weight": 697,
  "fee": 2450,
  "status": {
    "confirmed": true,
    "block_height": 834460,
    "block_hash": "00000000000000000000484a79b643b2524bbce82e5d8a442013fa5b8905ed98",
    "block_time": 1710307468
  },
  "hex": "02000000000101e2d952795b497f9fae6c20e244bb31f4499450864e29a54c77dd9bcae8fa693f0500000000ffffffff01220200000000000017a914d86bcd8c487ad519e95c6557e7463d579cce14a2870340c74fd91a98caa8066ca0ae25b6c7f49b5e75b91e7c55a155e6b22a706e733815362c93e1f47a4a8d75740d6d1c8cf85a186c49174ec5258581137361c4e3ce36fd0401209e236f06abb5bffc01e076ddff2b826f1f5436b1794812cfe20fce7d88c6a21dac0063036f726401011e6170706c69636174696f6e2f6a736f6e3b636861727365743d7574662d38004cb77b2270223a22706f772d3230222c226f70223a226d696e74222c227469636b223a2250455045222c22616d74223a2231303030222c22736f6c7574696f6e223a22504550453a334d524d3246744a42504c46315958564766504d33656556746675364446734762623a303030303030303030303030303030303030303139393431613561653132383937363539383134343239323533333030353762306461393666336465613163353a3233353631373234353433227d6821c06b70a06f37e9fa1ff7e7bec8bd1210228b25051d0c17b5264cdd8c73b544f45400000000"
}