{
  "txid": "bdcc76b394415bf035f008ddeea997e2f911d6402b2d42ba01706b2dcb960572",
  "version": 2,
  "locktime": 0,
  "vin": [
    {
      "txid": "bd63729e4b27578b9b085611b3d21d3dfedc8d03ff052607de7d73a2c93235b4",
      "vout": 3,
      "prevout": {
        "scriptpubkey": "00149fc24dff795a94714abea88bf3474b28b3b289bf",
        "scriptpubkey_asm": "OP_0 OP_PUSHBYTES_20 9fc24dff795a94714abea88bf3474b28b3b289bf",
        "scriptpubkey_type": "v0_p2wpkh",
        "scriptpubkey_address": "bc1qnlpymlmet228zj474z9lx36t9zem9zdl7g2xkz",
        "value": 11803183
      },
      "scriptsig": "",
      "scriptsig_asm": "",
      "witness": [
        "304402204dac404411054324e9c49fb883d3dfc04148ccf37a4693fbc14faeeafba719a70220519adc6062b885c0c474f9f27a3d59fbcb0db2c763cd951170b571660d323b9201",
        "03d8914c48ca7ea00b8b0e1a4910833f30ba0dfd97e3be9e345834fbc3ff165397"
      ],
      "is_coinbase": false,
      "sequence": 0
    }
  ],
  "vout": [
    {
      "scriptpubkey": "00149800fc1879b012bfb77e24749d9e7d0dd4bc5fc0",
      "scriptpubkey_asm": "OP_0 OP_PUSHBYTES_20 9800fc1879b012bfb77e24749d9e7d0dd4bc5fc0",
      "scriptpubkey_type": "v0_p2wpkh",
      "scriptpubkey_address": "bc1qnqq0cxrekqftldm7y36fm8naph2tch7qkvjvev",
      "value": 174575
    },
    {
      "scriptpubkey": "0014e95502afad8bfd0ccc3b487ccea88049c4dec1eb",
      "scriptpubkey_asm": "OP_0 OP_PUSHBYTES_20 e95502afad8bfd0ccc3b487ccea88049c4dec1eb",
      "scriptpubkey_type": "v0_p2wpkh",
      "scriptpubkey_address": "bc1qa92s9tad307senpmfp7va2yqf8zdas0t8d9u4p",
      "value": 11626097
    }
  ],
  "size": 222,
  "weight": 561,
  "fee": 2511,
  "status": {
    "confirmed": true,
    "block_height": 834638,
    "block_hash": "000000000000000000025f742c626208ac87e0b7d15054abb4a19ca2d735a54e",
    "block_time": 1710405325
  },
  "hex": "02000000000101b43532c9a2737dde072605ff038ddcfe3d1dd2b31156089b8b57274b9e7263bd03000000000000000002efa90200000000001600149800fc1879b012bfb77e24749d9e7d0dd4bc5fc07166b10000000000160014e95502afad8bfd0ccc3b487ccea88049c4dec1eb0247304402204dac404411054324e9c49fb883d3dfc04148ccf37a4693fbc14faeeafba719a70220519adc6062b885c0c474f9f27a3d59fbcb0db2c763cd951170b571660d323b92012103d8914c48ca7ea00b8b0e1a4910833f30ba0dfd97e3be9e345834fbc3ff16539700000000"
}