{
  "txid": "bdd2ae2a5c3a48fb8bfc49abd5825e3779521a8ae5640cbad0e021ce8db9d09f",
  "version": 2,
  "locktime": 0,
  "vin": [
    {
      "txid": "d01e31dca3e1b0f68c0c45ed454341357dfd61e838e07f5c224e0d01ca640632",
      "vout": 0,
      "prevout": {
        "scriptpubkey": "0014f49a019c5a7f261fcc3c475ab8b11d04d848ccaa",
        "scriptpubkey_asm": "OP_0 OP_PUSHBYTES_20 f49a019c5a7f261fcc3c475ab8b11d04d848ccaa",
        "scriptpubkey_type": "v0_p2wpkh",
        "scriptpubkey_address": "bc1q7jdqr8z60unplnpugadt3vgaqnvy3n92q4kycv",
        "value": 6799
      },
      "scriptsig": "",
      "scriptsig_asm": "",
      "witness": [
        "30440220389a65d6c405ab0562b319798b26d00ec024954c7092e32b55c40a9aa5a386cf02200d8367415e3761fbd4e6f578d8e30bd978732ae360810b960c3c1554f3c5c4cb01",
        "028ed6cab10033be82a53137c43e0053531d263ec460bcffaaf9b65632991c34fe"
      ],
      "is_coinbase": false,
      "sequence": 4294967293
    }
  ],
  "vout": [
    {
      "scriptpubkey": "00144dfb9ca75c855f65fc4a9c61cfd14dcde179efb4",
      "scriptpubkey_asm": "OP_0 OP_PUSHBYTES_20 4dfb9ca75c855f65fc4a9c61cfd14dcde179efb4",
      "scriptpubkey_type": "v0_p2wpkh",
      "scriptpubkey_address": "bc1qfhaeef6us40ktlz2n3sul52dehshnma50q37ka",
      "value": 5156
    }
  ],
  "size": 191,
  "weight": 437,
  "fee": 1643,
  "status": {
    "confirmed": true,
    "block_height": 834638,
    "block_hash": "000000000000000000025f742c626208ac87e0b7d15054abb4a19ca2d735a54e",
    "block_time": 1710405325
  },
  "hex": "02000000000101320664ca010d4e225c7fe038e861fd7d35414345ed450c8cf6b0e1a3dc311ed00000000000fdffffff0124140000000000001600144dfb9ca75c855f65fc4a9c61cfd14dcde179efb4024730440220389a65d6c405ab0562b319798b26d00ec024954c7092e32b55c40a9aa5a386cf02200d8367415e3761fbd4e6f578d8e30bd978732ae360810b960c3c1554f3c5c4cb0121028ed6cab10033be82a53137c43e0053531d263ec460bcffaaf9b65632991c34fe00000000"
}