{
  "txid": "bdd5c8d0c2852b1cc69816e8b475fc0cc9dad0725ee623f4d3cd88cb106722bc",
  "version": 2,
  "locktime": 0,
  "vin": [
    {
      "txid": "0ce06d196d06ff7b773a15c2213362682ead5c72832dddf1e4b6d954a3827a56",
      "vout": 0,
      "prevout": {
        "scriptpubkey": "00148f54f5035b7941a79df988cd000d281bde4e5f93",
        "scriptpubkey_asm": "OP_0 OP_PUSHBYTES_20 8f54f5035b7941a79df988cd000d281bde4e5f93",
        "scriptpubkey_type": "v0_p2wpkh",
        "scriptpubkey_address": "bc1q3a202q6m09q6080e3rxsqrfgr00yuhunm4j2na",
        "value": 688038
      },
      "scriptsig": "",
      "scriptsig_asm": "",
      "witness": [
        "3045022100ce6f89ea078b03a8feec3f20217b65ce09563c6637b42888eff266e8d84ce22502206d08cb832bf4a915d6eb9c3af71ce45acaed56892e3a24275c0949715a10e39701",
        "02c5db31298d53dfa494fe5c353704a59d322df1ac5fe8582f39ffb7d309ed2d84"
      ],
      "is_coinbase": false,
      "sequence": 4294967295
    },
    {
      "txid": "9787990cf43311b52119aa49afc4be605aacbaf009ca164ccdcabd03ace6c41b",
      "vout": 0,
      "prevout": {
        "scriptpubkey": "00148f54f5035b7941a79df988cd000d281bde4e5f93",
        "scriptpubkey_asm": "OP_0 OP_PUSHBYTES_20 8f54f5035b7941a79df988cd000d281bde4e5f93",
        "scriptpubkey_type": "v0_p2wpkh",
        "scriptpubkey_address": "bc1q3a202q6m09q6080e3rxsqrfgr00yuhunm4j2na",
        "value": 687650
      },
      "scriptsig": "",
      "scriptsig_asm": "",
      "witness": [
        "304402205b0875743e1187730d37c6079e6ceda702c0185455089a8af083a1ba82b34f050220655bf2f96c70baa3019627e15310d5a63e266ae7bb500b183f7c21ec054731c301",
        "02c5db31298d53dfa494fe5c353704a59d322df1ac5fe8582f39ffb7d309ed2d84"
      ],
      "is_coinbase": false,
      "sequence": 4294967295
    }
  ],
  "vout": [
    {
      "scriptpubkey": "76a91449cbc7dd60f724638547ba860491aef9ba59771088ac",
      "scriptpubkey_asm": "OP_DUP OP_HASH160 OP_PUSHBYTES_20 49cbc7dd60f724638547ba860491aef9ba597710 OP_EQUALVERIFY OP_CHECKSIG",
      "scriptpubkey_type": "p2pkh",
      "scriptpubkey_address": "17jCSwK1fKJ8DBHXky9HZtRpu8i46AGMvB",
      "value": 1372296
    }
  ],
  "size": 343,
  "weight": 721,
  "fee": 3392,
  "status": {
    "confirmed": true,
    "block_height": 834638,
    "block_hash": "000000000000000000025f742c626208ac87e0b7d15054abb4a19ca2d735a54e",
    "block_time": 1710405325
  },
  "hex": "02000000000102567a82a354d9b6e4f1dd2d83725cad2e68623321c2153a777bff066d196de00c0000000000ffffffff1bc4e6ac03bdcacd4c16ca09f0baac5a60bec4af49aa1921b51133f40c9987970000000000ffffffff0188f01400000000001976a91449cbc7dd60f724638547ba860491aef9ba59771088ac02483045022100ce6f89ea078b03a8feec3f20217b65ce09563c6637b42888eff266e8d84ce22502206d08cb832bf4a915d6eb9c3af71ce45acaed56892e3a24275c0949715a10e397012102c5db31298d53dfa494fe5c353704a59d322df1ac5fe8582f39ffb7d309ed2d840247304402205b0875743e1187730d37c6079e6ceda702c0185455089a8af083a1ba82b34f050220655bf2f96c70baa3019627e15310d5a63e266ae7bb500b183f7c21ec054731c3012102c5db31298d53dfa494fe5c353704a59d322df1ac5fe8582f39ffb7d309ed2d8400000000"
}