{
  "txid": "bde89c890d9497be68dfa7c1e1bcda4b8302a42a299d5bb511ec9b2f7af7e14a",
  "version": 2,
  "locktime": 0,
  "vin": [
    {
      "txid": "acc3ba00869acb582a3f2904ce3a11dd3779350ce234063fc7d0959246213364",
      "vout": 100,
      "prevout": {
        "scriptpubkey": "5120265c47a994281fb2ad20f33bc8a96964172fcb37abb523788e9ed97209552dcf",
        "scriptpubkey_asm": "OP_PUSHNUM_1 OP_PUSHBYTES_32 265c47a994281fb2ad20f33bc8a96964172fcb37abb523788e9ed97209552dcf",
        "scriptpubkey_type": "v1_p2tr",
        "scriptpubkey_address": "bc1pyewy02v59q0m9tfq7vau32tfvstjljeh4w6jx7ywnmvhyz249h8srqush5",
        "value": 1806
      },
      "scriptsig": "",
      "scriptsig_asm": "",
      "witness": [
        "18e18777666afe53526624de584d107011d7af34cf91cbcf5b5f58ef0cfc3fc798fdf1c6b58be2d753f73a3111534ebf11985e8e211d62320c046e8960e22cd3",
        "20955d4abf1af4abef7d90dd9ed1a6a7658fa8ebe3ed155dd9eaa8d0a8cd309cffac0063036f726401010a746578742f706c61696e00357b2270223a226272632d3230222c226f70223a226d696e74222c227469636b223a22646f6765222c22616d74223a2234323030227d68",
        "c0955d4abf1af4abef7d90dd9ed1a6a7658fa8ebe3ed155dd9eaa8d0a8cd309cff"
      ],
      "is_coinbase": false,
      "sequence": 4261412863
    }
  ],
  "vout": [
    {
      "scriptpubkey": "00147a665de7a370f4c9b372ab1fae587500a5bcbdb4",
      "scriptpubkey_asm": "OP_0 OP_PUSHBYTES_20 7a665de7a370f4c9b372ab1fae587500a5bcbdb4",
      "scriptpubkey_type": "v0_p2wpkh",
      "scriptpubkey_address": "bc1q0fn9mearwr6vnvmj4v06ukr4qzjme0d565dzcx",
      "value": 294
    }
  ],
  "size": 294,
  "weight": 540,
  "fee": 1512,
  "status": {
    "confirmed": true,
    "block_height": 834460,
    "block_hash": "00000000000000000000484a79b643b2524bbce82e5d8a442013fa5b8905ed98",
    "block_time": 1710307468
  },
  "hex": "02000000000101643321469295d0c73f0634e20c357937dd113ace04293f2a58cb9a8600bac3ac6400000000fffffffd0126010000000000001600147a665de7a370f4c9b372ab1fae587500a5bcbdb4034018e18777666afe53526624de584d107011d7af34cf91cbcf5b5f58ef0cfc3fc798fdf1c6b58be2d753f73a3111534ebf11985e8e211d62320c046e8960e22cd36d20955d4abf1af4abef7d90dd9ed1a6a7658fa8ebe3ed155dd9eaa8d0a8cd309cffac0063036f726401010a746578742f706c61696e00357b2270223a226272632d3230222c226f70223a226d696e74222c227469636b223a22646f6765222c22616d74223a2234323030227d6821c0955d4abf1af4abef7d90dd9ed1a6a7658fa8ebe3ed155dd9eaa8d0a8cd309cff00000000"
}