{
  "txid": "bdeb134236ff8c5177f6b19f2b836c4b192c29109859277054104806c88b9600",
  "version": 2,
  "locktime": 0,
  "vin": [
    {
      "txid": "230295c060d22fe7ba58a07c7b5acd6bb021a617cd0507904a924ce3ae62720a",
      "vout": 0,
      "prevout": {
        "scriptpubkey": "0014d0691a9e7d0aa7c9185783bc0fc2fe822f513e40",
        "scriptpubkey_asm": "OP_0 OP_PUSHBYTES_20 d0691a9e7d0aa7c9185783bc0fc2fe822f513e40",
        "scriptpubkey_type": "v0_p2wpkh",
        "scriptpubkey_address": "bc1q6p5348nap2nujxzhsw7qlsh7sgh4z0jqaf93mc",
        "value": 44761
      },
      "scriptsig": "",
      "scriptsig_asm": "",
      "witness": [
        "3044022053a8c57387f26708b0bbb5b8820e4ab0e618083ff211aa7d5e56e54925aa7fa50220224a946db1cd7f1cb3b3a9e4293a6c0a8b11ae6066c3c79ec256259aa39fe4a301",
        "03d968bc1da8c5783aa392de78b0be38bcdffb30e145a59c57fe78bed010e5e4e9"
      ],
      "is_coinbase": false,
      "sequence": 4294967295
    },
    {
      "txid": "24406546155376a982d390dd2154fe6d0618cfd4c5ec3946fdd7db26699016dc",
      "vout": 2,
      "prevout": {
        "scriptpubkey": "0014d6e2d40599aae81cdb910c9e3dfd390c538e9963",
        "scriptpubkey_asm": "OP_0 OP_PUSHBYTES_20 d6e2d40599aae81cdb910c9e3dfd390c538e9963",
        "scriptpubkey_type": "v0_p2wpkh",
        "scriptpubkey_address": "bc1q6m3dgpve4t5peku3pj0rmlfep3fcaxtrp53p77",
        "value": 2282968
      },
      "scriptsig": "",
      "scriptsig_asm": "",
      "witness": [
        "30450221008bb662f43c0e870290fb23e9d40e0a5973d277a2dbc1fed36f19b536d5f2e42702202e93f97f3fbc4b7c16d02fceaf7089d6f4c994e522f760033acac79bb503b9af01",
        "03262181439b7a00c22e4fe572c357ac159dc2abd1c89583c7fa33679e6c4a4597"
      ],
      "is_coinbase": false,
      "sequence": 4294967295
    },
    {
      "txid": "24be5cc336e09ff25afd799eab900a0427199209c7da19ab1301419f07554097",
      "vout": 0,
      "prevout": {
        "scriptpubkey": "0014942a2ded3b50f038246325b74d31727ff5862f3c",
        "scriptpubkey_asm": "OP_0 OP_PUSHBYTES_20 942a2ded3b50f038246325b74d31727ff5862f3c",
        "scriptpubkey_type": "v0_p2wpkh",
        "scriptpubkey_address": "bc1qjs4zmmfm2rcrsfrrykm56vtj0l6cvteuku9d2y",
        "value": 24137
      },
      "scriptsig": "",
      "scriptsig_asm": "",
      "witness": [
        "3045022100ab51c936fea83dd2683f07b294d09d540dbe0bec93bad92f7fd8500bedbe9d2e0220267a9d0eca31c18bfa6b38f35e283e4b9ac307255f9c2fcb67a7453d3e1e6bbc01",
        "03c39ca6f1c469c24a23f1035d783138d386c42cc7f145c74a1b0f31b4f71319f5"
      ],
      "is_coinbase": false,
      "sequence": 4294967295
    },
    {
      "txid": "835e4a0c7ab4243a08d3225cf92881d2ac9e4925f005aa4e3e8fb85fd6b800a3",
      "vout": 0,
      "prevout": {
        "scriptpubkey": "00142d25087f540645b522147b1c87570aa5925ea719",
        "scriptpubkey_asm": "OP_0 OP_PUSHBYTES_20 2d25087f540645b522147b1c87570aa5925ea719",
        "scriptpubkey_type": "v0_p2wpkh",
        "scriptpubkey_address": "bc1q95jssl65qezm2gs50vwgw4c25kf9afceccdzuk",
        "value": 38276
      },
      "scriptsig": "",
      "scriptsig_asm": "",
      "witness": [
        "304402201092fbd6c2537fcff9738fc730215d10c3e7670e018ae9ea5550329c29eff4370220608f6198ec8741edf88f4b6a009aca2f22b4fcc1bd705494a3c3e5e2cfde024e01",
        "0398c943b5729420f18c2fb0f3fb5bc7d611e6734fab783218d7904a59e3f1304d"
      ],
      "is_coinbase": false,
      "sequence": 4294967295
    },
    {
      "txid": "e59509c3b21439190b7ca65d6c4c172bc66f3266061df7fd7e7a8cc77bfeeda5",
      "vout": 1,
      "prevout": {
        "scriptpubkey": "0014de17439450ca5571499bd976e6f98a95f8b3652f",
        "scriptpubkey_asm": "OP_0 OP_PUSHBYTES_20 de17439450ca5571499bd976e6f98a95f8b3652f",
        "scriptpubkey_type": "v0_p2wpkh",
        "scriptpubkey_address": "bc1qmct589zsef2hzjvmm9mwd7v2jhutxef0wc52qg",
        "value": 96596
      },
      "scriptsig": "",
      "scriptsig_asm": "",
      "witness": [
        "3045022100f466acb1e1b0d983e6f2270179f9a5d936e2d75bbffec2e3882423a8cbb11fea022072efca56f574c409700011680d2ff1e8b7d181309035b77a97f9d7e24e82816f01",
        "0294a9be3184e175fd503e81cbda922bb7da5f9e9215cb76c6e395336dc7f14a35"
      ],
      "is_coinbase": false,
      "sequence": 4294967295
    }
  ],
  "vout": [
    {
      "scriptpubkey": "001435f6b26fe028ec1188764e81522f67f6abc92a98",
      "scriptpubkey_asm": "OP_0 OP_PUSHBYTES_20 35f6b26fe028ec1188764e81522f67f6abc92a98",
      "scriptpubkey_type": "v0_p2wpkh",
      "scriptpubkey_address": "bc1qxhmtymlq9rkprzrkf6q4ytm8764uj25cet5tgl",
      "value": 160054
    },
    {
      "scriptpubkey": "0014e64e6f4f0a6cf067b42e96e63d586144c24ff9b6",
      "scriptpubkey_asm": "OP_0 OP_PUSHBYTES_20 e64e6f4f0a6cf067b42e96e63d586144c24ff9b6",
      "scriptpubkey_type": "v0_p2wpkh",
      "scriptpubkey_address": "bc1que8x7nc2dncx0dpwjmnr6krpgnpyl7dkyttlj9",
      "value": 2316004
    }
  ],
  "size": 817,
  "weight": 1648,
  "fee": 10680,
  "status": {
    "confirmed": true,
    "block_height": 834638,
    "block_hash": "000000000000000000025f742c626208ac87e0b7d15054abb4a19ca2d735a54e",
    "block_time": 1710405325
  },
  "hex": "020000000001050a7262aee34c924a900705cd17a621b06bcd5a7b7ca058bae72fd260c09502230000000000ffffffffdc16906926dbd7fd4639ecc5d4cf18066dfe5421dd90d382a9765315466540240200000000ffffffff974055079f410113ab19dac709921927040a90ab9e79fd5af29fe036c35cbe240000000000ffffffffa300b8d65fb88f3e4eaa05f025499eacd28128f95c22d3083a24b47a0c4a5e830000000000ffffffffa5edfe7bc78c7a7efdf71d0666326fc62b174c6c5da67c0b193914b2c30995e50100000000ffffffff02367102000000000016001435f6b26fe028ec1188764e81522f67f6abc92a98e456230000000000160014e64e6f4f0a6cf067b42e96e63d586144c24ff9b602473044022053a8c57387f26708b0bbb5b8820e4ab0e618083ff211aa7d5e56e54925aa7fa50220224a946db1cd7f1cb3b3a9e4293a6c0a8b11ae6066c3c79ec256259aa39fe4a3012103d968bc1da8c5783aa392de78b0be38bcdffb30e145a59c57fe78bed010e5e4e9024830450221008bb662f43c0e870290fb23e9d40e0a5973d277a2dbc1fed36f19b536d5f2e42702202e93f97f3fbc4b7c16d02fceaf7089d6f4c994e522f760033acac79bb503b9af012103262181439b7a00c22e4fe572c357ac159dc2abd1c89583c7fa33679e6c4a459702483045022100ab51c936fea83dd2683f07b294d09d540dbe0bec93bad92f7fd8500bedbe9d2e0220267a9d0eca31c18bfa6b38f35e283e4b9ac307255f9c2fcb67a7453d3e1e6bbc012103c39ca6f1c469c24a23f1035d783138d386c42cc7f145c74a1b0f31b4f71319f50247304402201092fbd6c2537fcff9738fc730215d10c3e7670e018ae9ea5550329c29eff4370220608f6198ec8741edf88f4b6a009aca2f22b4fcc1bd705494a3c3e5e2cfde024e01210398c943b5729420f18c2fb0f3fb5bc7d611e6734fab783218d7904a59e3f1304d02483045022100f466acb1e1b0d983e6f2270179f9a5d936e2d75bbffec2e3882423a8cbb11fea022072efca56f574c409700011680d2ff1e8b7d181309035b77a97f9d7e24e82816f01210294a9be3184e175fd503e81cbda922bb7da5f9e9215cb76c6e395336dc7f14a3500000000"
}