{
  "txid": "be109c11056ad49cc686bc9e581a926942a51912f71c817fc0dff0451c3acc4e",
  "version": 2,
  "locktime": 0,
  "vin": [
    {
      "txid": "9f3f6abfa665a770e4502c75704f92963cb3e02c1ebf5394d89dc15e86627a44",
      "vout": 0,
      "prevout": {
        "scriptpubkey": "0014bdd965c0112429672d0c56720f7a16fbb5678092",
        "scriptpubkey_asm": "OP_0 OP_PUSHBYTES_20 bdd965c0112429672d0c56720f7a16fbb5678092",
        "scriptpubkey_type": "v0_p2wpkh",
        "scriptpubkey_address": "bc1qhhvktsq3ys5kwtgv2eeq77sklw6k0qyjze3355",
        "value": 63079
      },
      "scriptsig": "",
      "scriptsig_asm": "",
      "witness": [
        "3044022047b0cd618dde04df207180c7690e2272b9e1dd0e07bdd0fb88cf4f194c0213e202206a6a081181de1237ac61778a2a94e194f6f1b0d348f18cf9280f71977db609c601",
        "03ceba75a22b0750729950a064e724caf36d3d42aad7a73f210d8b38b55f278a27"
      ],
      "is_coinbase": false,
      "sequence": 4294967295
    },
    {
      "txid": "c7bb7c6585634efc50b494214c5072b6f362b7c3398d6f6daee4d09e050c978e",
      "vout": 22,
      "prevout": {
        "scriptpubkey": "00146be7c7b3d1d3d8a4b061813133b85278154b6488",
        "scriptpubkey_asm": "OP_0 OP_PUSHBYTES_20 6be7c7b3d1d3d8a4b061813133b85278154b6488",
        "scriptpubkey_type": "v0_p2wpkh",
        "scriptpubkey_address": "bc1qd0nu0v7360v2fvrpsycn8wzj0q25keygauh3me",
        "value": 163458
      },
      "scriptsig": "",
      "scriptsig_asm": "",
      "witness": [
        "3045022100dbff0f60bcaa76e07d5152855460b6dafb650b71e555802274cc3971008dfc580220191dcff4995ebc772487cc831ff2a440f1ffe7722f31341f174eb9814b685b8401",
        "0286356678c8ac158ed039fa08588289b2a907725b9b3bfe26bb22c0bfcf660bda"
      ],
      "is_coinbase": false,
      "sequence": 4294967295
    }
  ],
  "vout": [
    {
      "scriptpubkey": "0014075195c672bdf75f0668015a14e9bc9ba19369d4",
      "scriptpubkey_asm": "OP_0 OP_PUSHBYTES_20 075195c672bdf75f0668015a14e9bc9ba19369d4",
      "scriptpubkey_type": "v0_p2wpkh",
      "scriptpubkey_address": "bc1qqaget3njhhm47pngq9dpf6dunwsex6w58wt8sl",
      "value": 19401
    },
    {
      "scriptpubkey": "a9149d185eeebe71141d3dbe4c6645d0b8665985764b87",
      "scriptpubkey_asm": "OP_HASH160 OP_PUSHBYTES_20 9d185eeebe71141d3dbe4c6645d0b8665985764b OP_EQUAL",
      "scriptpubkey_type": "p2sh",
      "scriptpubkey_address": "3G1fCyZuLwkanWUjrYZFUdY5o4V1bErcDy",
      "value": 204008
    }
  ],
  "size": 372,
  "weight": 837,
  "fee": 3128,
  "status": {
    "confirmed": true,
    "block_height": 834638,
    "block_hash": "000000000000000000025f742c626208ac87e0b7d15054abb4a19ca2d735a54e",
    "block_time": 1710405325
  },
  "hex": "02000000000102447a62865ec19dd89453bf1e2ce0b33c96924f70752c50e470a765a6bf6a3f9f0000000000ffffffff8e970c059ed0e4ae6d6f8d39c3b762f3b672504c2194b450fc4e6385657cbbc71600000000ffffffff02c94b000000000000160014075195c672bdf75f0668015a14e9bc9ba19369d4e81c03000000000017a9149d185eeebe71141d3dbe4c6645d0b8665985764b8702473044022047b0cd618dde04df207180c7690e2272b9e1dd0e07bdd0fb88cf4f194c0213e202206a6a081181de1237ac61778a2a94e194f6f1b0d348f18cf9280f71977db609c6012103ceba75a22b0750729950a064e724caf36d3d42aad7a73f210d8b38b55f278a2702483045022100dbff0f60bcaa76e07d5152855460b6dafb650b71e555802274cc3971008dfc580220191dcff4995ebc772487cc831ff2a440f1ffe7722f31341f174eb9814b685b8401210286356678c8ac158ed039fa08588289b2a907725b9b3bfe26bb22c0bfcf660bda00000000"
}