{
  "txid": "be2e14b467e81486b779052804e7b3b4c33b0ed722ffe2a9e54c2deacf094ad5",
  "version": 1,
  "locktime": 834114,
  "vin": [
    {
      "txid": "3e84a805e4f4eeddfca8b9682572b010e57d51f0387a30069e1e928b57fab5cc",
      "vout": 0,
      "prevout": {
        "scriptpubkey": "a914784d641a4443070d910303a7b226fca955056bbc87",
        "scriptpubkey_asm": "OP_HASH160 OP_PUSHBYTES_20 784d641a4443070d910303a7b226fca955056bbc OP_EQUAL",
        "scriptpubkey_type": "p2sh",
        "scriptpubkey_address": "3Cf7inYr6gkWCuYchczHhYTcriNzMdV7Uv",
        "value": 238685
      },
      "scriptsig": "22002038729e71176e67b6c50c22c21041c73f68ca3b17d92d0240141f2dd37d5d1009",
      "scriptsig_asm": "OP_PUSHBYTES_34 002038729e71176e67b6c50c22c21041c73f68ca3b17d92d0240141f2dd37d5d1009",
      "witness": [
        "",
        "304402202703a4b9eb72f1dce03d58085ac736bae6d775b84db2215a711a821ae4ea68e602200241f3c5296cf8cb85d3d7bcd016fca7e47d22967ca2f29e5dccea7897c6109701",
        "304402201872bfdea32a0a92bcfac816fe39389c7f6e0105022f4faf6bfd193a4aff1d13022075deae89cbd10a5b01ff87379289fec99258f61a2a69959764712ec5b98b7d0e01",
        "5221036c6ea16cd939e63419b9e0fdee255c0fa1a8f2e9d24ea49646365780d2bce1d62102a8753eb3fb555b3f791c02c5860b2822002e9962a8dac7b3ec5ce19ec41894ef21024412bc3f166bafe90224a6cf28a9ecc58fca23ea494f70f9998d6325ace34a5153ae"
      ],
      "is_coinbase": false,
      "sequence": 4294967295,
      "inner_redeemscript_asm": "OP_0 OP_PUSHBYTES_32 38729e71176e67b6c50c22c21041c73f68ca3b17d92d0240141f2dd37d5d1009",
      "inner_witnessscript_asm": "OP_PUSHNUM_2 OP_PUSHBYTES_33 036c6ea16cd939e63419b9e0fdee255c0fa1a8f2e9d24ea49646365780d2bce1d6 OP_PUSHBYTES_33 02a8753eb3fb555b3f791c02c5860b2822002e9962a8dac7b3ec5ce19ec41894ef OP_PUSHBYTES_33 024412bc3f166bafe90224a6cf28a9ecc58fca23ea494f70f9998d6325ace34a51 OP_PUSHNUM_3 OP_CHECKMULTISIG"
    },
    {
      "txid": "61aded4000268d92fb357cb6be8c61a295e254ec914bbdf3f598960510e97549",
      "vout": 0,
      "prevout": {
        "scriptpubkey": "a91482a990e20b65580f4bc074bed97e86236c389cd787",
        "scriptpubkey_asm": "OP_HASH160 OP_PUSHBYTES_20 82a990e20b65580f4bc074bed97e86236c389cd7 OP_EQUAL",
        "scriptpubkey_type": "p2sh",
        "scriptpubkey_address": "3Dbtu8WvmAjaJn3ba5Xez7emSnvqpBNsuQ",
        "value": 796572
      },
      "scriptsig": "220020cad01eb78e06268a50b8b28e85af1b6f01829fcb4fa3b5824e87bd052ff7aeba",
      "scriptsig_asm": "OP_PUSHBYTES_34 0020cad01eb78e06268a50b8b28e85af1b6f01829fcb4fa3b5824e87bd052ff7aeba",
      "witness": [
        "",
        "3044022069edf37b0b5cef696f4cbe39b718df03acdd31eba3e959f92ada46c4649f146202206a95b5a42f83c9cd1eb4f2583be434cfc303062222694a8d43e2030777f8303a01",
        "30440220728d648eb02d71e9074a1cec6588b8d01006a99b356ec2da57790febce288701022007ba633c52a0c16dbc750d5df546e1e3ddc4a5e413bf8bbf52187a28b4d15d5401",
        "522103ba123c181be9b9920c9bcb20ad8451dfdccefdd1ba711e8753adce53d9d1ff4421031efab3e60f24083bdbec980da1c89ae856a5f0ab0f1c78c7b643fce819d69d3c2102b272464a9238183e725279dabe11154bb03de68143837bebc82b80cef8562fe953ae"
      ],
      "is_coinbase": false,
      "sequence": 4294967295,
      "inner_redeemscript_asm": "OP_0 OP_PUSHBYTES_32 cad01eb78e06268a50b8b28e85af1b6f01829fcb4fa3b5824e87bd052ff7aeba",
      "inner_witnessscript_asm": "OP_PUSHNUM_2 OP_PUSHBYTES_33 03ba123c181be9b9920c9bcb20ad8451dfdccefdd1ba711e8753adce53d9d1ff44 OP_PUSHBYTES_33 031efab3e60f24083bdbec980da1c89ae856a5f0ab0f1c78c7b643fce819d69d3c OP_PUSHBYTES_33 02b272464a9238183e725279dabe11154bb03de68143837bebc82b80cef8562fe9 OP_PUSHNUM_3 OP_CHECKMULTISIG"
    },
    {
      "txid": "9a15682656aea9ec888539aeffe21e051f37de1eed91442d665f19688d614ef7",
      "vout": 0,
      "prevout": {
        "scriptpubkey": "a914f4a62299b2ae4b9732da0069a4643dcba1fcff3287",
        "scriptpubkey_asm": "OP_HASH160 OP_PUSHBYTES_20 f4a62299b2ae4b9732da0069a4643dcba1fcff32 OP_EQUAL",
        "scriptpubkey_type": "p2sh",
        "scriptpubkey_address": "3Pzbpd7ifr76xXRfLrXhytN2xg67jArBDL",
        "value": 159297
      },
      "scriptsig": "220020bcdcef6f412fec4e1b6cb5c5ab124f2cdb81d88ea036db56fdde92879e49d2ca",
      "scriptsig_asm": "OP_PUSHBYTES_34 0020bcdcef6f412fec4e1b6cb5c5ab124f2cdb81d88ea036db56fdde92879e49d2ca",
      "witness": [
        "",
        "3045022100f27eae7f80b6f2dac3a58ab40456482bea83e10a7664a1285568e201ad1e5f7702206ecb2f09d583f23dca2cd1ce09a3ee9ef58108e1e0a548daf70821334bd3a81201",
        "304402207e348d3728a810852eae011eaf0f92f19c58402ac25b011c8f2ffdbd42890be302206c549dada563627a80ef41ecafcc792751ddf87c87eb4596021cfae0a57bf23e01",
        "522102b3180739d771a927f70c51a137b7522d5d287658ec4d7643ef3f4b37f588d9652103e46242ebb79af56ea9f6c98ef3bba6d2b375a58dac1d1dba7660c68b06173a78210211cbc6fd34704fe7edbd5168593f985623663ff28d12ad0e98d0d3164173b39753ae"
      ],
      "is_coinbase": false,
      "sequence": 4294967295,
      "inner_redeemscript_asm": "OP_0 OP_PUSHBYTES_32 bcdcef6f412fec4e1b6cb5c5ab124f2cdb81d88ea036db56fdde92879e49d2ca",
      "inner_witnessscript_asm": "OP_PUSHNUM_2 OP_PUSHBYTES_33 02b3180739d771a927f70c51a137b7522d5d287658ec4d7643ef3f4b37f588d965 OP_PUSHBYTES_33 03e46242ebb79af56ea9f6c98ef3bba6d2b375a58dac1d1dba7660c68b06173a78 OP_PUSHBYTES_33 0211cbc6fd34704fe7edbd5168593f985623663ff28d12ad0e98d0d3164173b397 OP_PUSHNUM_3 OP_CHECKMULTISIG"
    }
  ],
  "vout": [
    {
      "scriptpubkey": "00149e108f67dd4368336662e18080784010c7c6b710",
      "scriptpubkey_asm": "OP_0 OP_PUSHBYTES_20 9e108f67dd4368336662e18080784010c7c6b710",
      "scriptpubkey_type": "v0_p2wpkh",
      "scriptpubkey_address": "bc1qncgg7e7agd5rxenzuxqgq7zqzrruddcs5fp9dz",
      "value": 96921
    },
    {
      "scriptpubkey": "0020472dad3688e63005ecf398d855461d7083bfc918f90d66f2311bbfa4f564b9f6",
      "scriptpubkey_asm": "OP_0 OP_PUSHBYTES_32 472dad3688e63005ecf398d855461d7083bfc918f90d66f2311bbfa4f564b9f6",
      "scriptpubkey_type": "v0_p2wsh",
      "scriptpubkey_address": "bc1qguk66d5guccqtm8nnrv923sawzpmljgclyxkdu33rwl6fatyh8mqswz35d",
      "value": 1092149
    }
  ],
  "size": 1071,
  "weight": 2007,
  "fee": 5484,
  "status": {
    "confirmed": true,
    "block_height": 834464,
    "block_hash": "0000000000000000000177a0869a911a2b65c9bdcd5a8bcb02b68f305bee848e",
    "block_time": 1710308296
  },
  "hex": "01000000000103ccb5fa578b921e9e06307a38f0517de510b0722568b9a8fcddeef4e405a8843e000000002322002038729e71176e67b6c50c22c21041c73f68ca3b17d92d0240141f2dd37d5d1009ffffffff4975e910059698f5f3bd4b91ec54e295a2618cbeb67c35fb928d260040edad610000000023220020cad01eb78e06268a50b8b28e85af1b6f01829fcb4fa3b5824e87bd052ff7aebafffffffff74e618d68195f662d4491ed1ede371f051ee2ffae398588eca9ae562668159a0000000023220020bcdcef6f412fec4e1b6cb5c5ab124f2cdb81d88ea036db56fdde92879e49d2caffffffff02997a0100000000001600149e108f67dd4368336662e18080784010c7c6b71035aa100000000000220020472dad3688e63005ecf398d855461d7083bfc918f90d66f2311bbfa4f564b9f6040047304402202703a4b9eb72f1dce03d58085ac736bae6d775b84db2215a711a821ae4ea68e602200241f3c5296cf8cb85d3d7bcd016fca7e47d22967ca2f29e5dccea7897c610970147304402201872bfdea32a0a92bcfac816fe39389c7f6e0105022f4faf6bfd193a4aff1d13022075deae89cbd10a5b01ff87379289fec99258f61a2a69959764712ec5b98b7d0e01695221036c6ea16cd939e63419b9e0fdee255c0fa1a8f2e9d24ea49646365780d2bce1d62102a8753eb3fb555b3f791c02c5860b2822002e9962a8dac7b3ec5ce19ec41894ef21024412bc3f166bafe90224a6cf28a9ecc58fca23ea494f70f9998d6325ace34a5153ae0400473044022069edf37b0b5cef696f4cbe39b718df03acdd31eba3e959f92ada46c4649f146202206a95b5a42f83c9cd1eb4f2583be434cfc303062222694a8d43e2030777f8303a014730440220728d648eb02d71e9074a1cec6588b8d01006a99b356ec2da57790febce288701022007ba633c52a0c16dbc750d5df546e1e3ddc4a5e413bf8bbf52187a28b4d15d540169522103ba123c181be9b9920c9bcb20ad8451dfdccefdd1ba711e8753adce53d9d1ff4421031efab3e60f24083bdbec980da1c89ae856a5f0ab0f1c78c7b643fce819d69d3c2102b272464a9238183e725279dabe11154bb03de68143837bebc82b80cef8562fe953ae0400483045022100f27eae7f80b6f2dac3a58ab40456482bea83e10a7664a1285568e201ad1e5f7702206ecb2f09d583f23dca2cd1ce09a3ee9ef58108e1e0a548daf70821334bd3a8120147304402207e348d3728a810852eae011eaf0f92f19c58402ac25b011c8f2ffdbd42890be302206c549dada563627a80ef41ecafcc792751ddf87c87eb4596021cfae0a57bf23e0169522102b3180739d771a927f70c51a137b7522d5d287658ec4d7643ef3f4b37f588d9652103e46242ebb79af56ea9f6c98ef3bba6d2b375a58dac1d1dba7660c68b06173a78210211cbc6fd34704fe7edbd5168593f985623663ff28d12ad0e98d0d3164173b39753ae42ba0c00"
}