{
  "txid": "be4cbe8aa5da0dd87af5bd501473404a51290bff9a102984b362b082332183dc",
  "version": 1,
  "locktime": 0,
  "vin": [
    {
      "txid": "769d57d78f83b3d8af01f36b48792ed80ca6652143d82df282b48fbc90e4b058",
      "vout": 0,
      "prevout": {
        "scriptpubkey": "0014350739a6faaca34e0482c776caebed5d71d8631d",
        "scriptpubkey_asm": "OP_0 OP_PUSHBYTES_20 350739a6faaca34e0482c776caebed5d71d8631d",
        "scriptpubkey_type": "v0_p2wpkh",
        "scriptpubkey_address": "bc1qx5rnnfh64j35upyzcamv46ldt4casccaa9u59p",
        "value": 104254
      },
      "scriptsig": "",
      "scriptsig_asm": "",
      "witness": [
        "3045022100d2d74d8268f0043e5fae4a8c3f6ac8659df0b54bd40fc7d50778262ca7c1620c02204edb79abd96228bd9836d6eb1b090ad5ead9e4b338a0a12c5c3bcd4281e0fa9201",
        "0381a75fe83e5736e0eeeb4a261d9f8d93b8c3ab96de42b58ad8e78a08f30aa672"
      ],
      "is_coinbase": false,
      "sequence": 4294967293
    },
    {
      "txid": "7a8694ca52d1cbdcf35419cd9b330e61112254f3571089444e51b9ffbf7e696d",
      "vout": 17,
      "prevout": {
        "scriptpubkey": "0014b8747c708a7a7dbeb6926f6c9f91c631a7f068ff",
        "scriptpubkey_asm": "OP_0 OP_PUSHBYTES_20 b8747c708a7a7dbeb6926f6c9f91c631a7f068ff",
        "scriptpubkey_type": "v0_p2wpkh",
        "scriptpubkey_address": "bc1qhp68cuy20f7mad5jdakflywxxxnlq68lnjd2u8",
        "value": 321750
      },
      "scriptsig": "",
      "scriptsig_asm": "",
      "witness": [
        "304402201b0af951749859b604505292bcf78e23f3984fe5c429ffc372d3eae08117e3220220467ed21754e3713c524ff9db829a5829eaad0a110642e18478c0121befa6d03501",
        "03b762d9cd6da45beac6a5094ccbac6164026e32c124bef076a9163e9d00d4c984"
      ],
      "is_coinbase": false,
      "sequence": 4294967293
    },
    {
      "txid": "7b28f6578705290b8afeda1e9ff63b97ba3f3ca0ec29cae843beaf955083b03f",
      "vout": 0,
      "prevout": {
        "scriptpubkey": "0014d378e17386bb33afbb88a6f0a831369468f7a732",
        "scriptpubkey_asm": "OP_0 OP_PUSHBYTES_20 d378e17386bb33afbb88a6f0a831369468f7a732",
        "scriptpubkey_type": "v0_p2wpkh",
        "scriptpubkey_address": "bc1q6duwzuuxhve6lwug5mc2svfkj3500fej5lrj7t",
        "value": 58913
      },
      "scriptsig": "",
      "scriptsig_asm": "",
      "witness": [
        "304402202504e02e4a43644c0bb7c254ca556180376904f124716828fff468594d4c6de102207f8729c328ba2b34206b13d576f4c707d1cc08edfe2c41b581e02e87ca15b34a01",
        "02c08d92383991681e7fcaf0b1a952a76701833f202f44c8501c783d47b919a03f"
      ],
      "is_coinbase": false,
      "sequence": 4294967293
    },
    {
      "txid": "93b41cb90dfe0fe2868c08dc3ca5e507b6f00e2ea2514b191c45030206f0dc9d",
      "vout": 0,
      "prevout": {
        "scriptpubkey": "00141feab9c8b404ce20a0d403cc5114155b28e6a04a",
        "scriptpubkey_asm": "OP_0 OP_PUSHBYTES_20 1feab9c8b404ce20a0d403cc5114155b28e6a04a",
        "scriptpubkey_type": "v0_p2wpkh",
        "scriptpubkey_address": "bc1qrl4tnj95qn8zpgx5q0x9z9q4tv5wdgz2pjuj26",
        "value": 78512
      },
      "scriptsig": "",
      "scriptsig_asm": "",
      "witness": [
        "3045022100ad4e293375e911fef23a049ea97f9a89cc8e840d341d3ab15a1331d02cf0b8b7022022bb06a1203bf85717323ed237284c447bf244983a63ba719474c4fec8de517101",
        "02b0cd60fac27e9b3008bde811e74bde1a0833fa555475586c01674db5928731b5"
      ],
      "is_coinbase": false,
      "sequence": 4294967293
    },
    {
      "txid": "cb41d6053a8bdab42a9b7579c4fce9b830c2d41b4b702612719121c62d9edcfa",
      "vout": 0,
      "prevout": {
        "scriptpubkey": "0014d7979b9046ca5515f7a7edee5a46a292083b309b",
        "scriptpubkey_asm": "OP_0 OP_PUSHBYTES_20 d7979b9046ca5515f7a7edee5a46a292083b309b",
        "scriptpubkey_type": "v0_p2wpkh",
        "scriptpubkey_address": "bc1q67tehyzxef23taa8ahh9534zjgyrkvym8h3dgw",
        "value": 62153
      },
      "scriptsig": "",
      "scriptsig_asm": "",
      "witness": [
        "3045022100af92ee633e3b1935bcca65376634713f547221c987aaba34aa25da980d0da4aa02205e5e14eb3341a6fc67d455a08106cfcd08bc5ca2d8bb319c5919552dc92d5c5101",
        "022bc99c0b2a38d10083c8af907809d83e551562664e3de002ffcade4f9f7f25ac"
      ],
      "is_coinbase": false,
      "sequence": 4294967293
    }
  ],
  "vout": [
    {
      "scriptpubkey": "0014ca97b46f3a4082301b255f4423648926801996b2",
      "scriptpubkey_asm": "OP_0 OP_PUSHBYTES_20 ca97b46f3a4082301b255f4423648926801996b2",
      "scriptpubkey_type": "v0_p2wpkh",
      "scriptpubkey_address": "bc1qe2tmgme6gzprqxe9tazzxeyfy6qpn94j7grx2e",
      "value": 20614
    },
    {
      "scriptpubkey": "a91467680a0631b21502b5e41ce5731151cce033898587",
      "scriptpubkey_asm": "OP_HASH160 OP_PUSHBYTES_20 67680a0631b21502b5e41ce5731151cce0338985 OP_EQUAL",
      "scriptpubkey_type": "p2sh",
      "scriptpubkey_address": "3B7nA4zYH2CzguoBc5RpD5brRCYQ6Eh62M",
      "value": 600000
    }
  ],
  "size": 818,
  "weight": 1652,
  "fee": 4968,
  "status": {
    "confirmed": true,
    "block_height": 834460,
    "block_hash": "00000000000000000000484a79b643b2524bbce82e5d8a442013fa5b8905ed98",
    "block_time": 1710307468
  },
  "hex": "0100000000010558b0e490bc8fb482f22dd8432165a60cd82e79486bf301afd8b3838fd7579d760000000000fdffffff6d697ebfffb9514e44891057f3542211610e339bcd1954f3dccbd152ca94867a1100000000fdffffff3fb0835095afbe43e8ca29eca03c3fba973bf69f1edafe8a0b29058757f6287b0000000000fdffffff9ddcf0060203451c194b51a22e0ef0b607e5a53cdc088c86e20ffe0db91cb4930000000000fdfffffffadc9e2dc62191711226704b1bd4c230b8e9fcc479759b2ab4da8b3a05d641cb0000000000fdffffff028650000000000000160014ca97b46f3a4082301b255f4423648926801996b2c02709000000000017a91467680a0631b21502b5e41ce5731151cce03389858702483045022100d2d74d8268f0043e5fae4a8c3f6ac8659df0b54bd40fc7d50778262ca7c1620c02204edb79abd96228bd9836d6eb1b090ad5ead9e4b338a0a12c5c3bcd4281e0fa9201210381a75fe83e5736e0eeeb4a261d9f8d93b8c3ab96de42b58ad8e78a08f30aa6720247304402201b0af951749859b604505292bcf78e23f3984fe5c429ffc372d3eae08117e3220220467ed21754e3713c524ff9db829a5829eaad0a110642e18478c0121befa6d035012103b762d9cd6da45beac6a5094ccbac6164026e32c124bef076a9163e9d00d4c9840247304402202504e02e4a43644c0bb7c254ca556180376904f124716828fff468594d4c6de102207f8729c328ba2b34206b13d576f4c707d1cc08edfe2c41b581e02e87ca15b34a012102c08d92383991681e7fcaf0b1a952a76701833f202f44c8501c783d47b919a03f02483045022100ad4e293375e911fef23a049ea97f9a89cc8e840d341d3ab15a1331d02cf0b8b7022022bb06a1203bf85717323ed237284c447bf244983a63ba719474c4fec8de5171012102b0cd60fac27e9b3008bde811e74bde1a0833fa555475586c01674db5928731b502483045022100af92ee633e3b1935bcca65376634713f547221c987aaba34aa25da980d0da4aa02205e5e14eb3341a6fc67d455a08106cfcd08bc5ca2d8bb319c5919552dc92d5c510121022bc99c0b2a38d10083c8af907809d83e551562664e3de002ffcade4f9f7f25ac00000000"
}