{
  "txid": "be5f32684f3f249282f0379fbec661e869d96c440498ee9a0061089de0d1694d",
  "version": 2,
  "locktime": 0,
  "vin": [
    {
      "txid": "29b91552234b26591bef2529392e2627e8a81844fcf36e36ea25fdecb4ea5b9c",
      "vout": 5,
      "prevout": {
        "scriptpubkey": "76a9149e1ee7a1d980c2474de0a7a1b2ad71454da237fd88ac",
        "scriptpubkey_asm": "OP_DUP OP_HASH160 OP_PUSHBYTES_20 9e1ee7a1d980c2474de0a7a1b2ad71454da237fd OP_EQUALVERIFY OP_CHECKSIG",
        "scriptpubkey_type": "p2pkh",
        "scriptpubkey_address": "1FR4nca6CQW3mySQgzXtyBYDoUeNUfa9YX",
        "value": 97239
      },
      "scriptsig": "47304402200e3c51e560a367c127f46b0408485054a3356db9e591ff8aaec0d62dff08d2060220156ff5b179eba613809ad1e406f0aae945297083ef118c73bf5708d1f779deb90121021ef743688b7a187bf6f771200ce6ecde43d4eee787d9493d9c571550553ba51f",
      "scriptsig_asm": "OP_PUSHBYTES_71 304402200e3c51e560a367c127f46b0408485054a3356db9e591ff8aaec0d62dff08d2060220156ff5b179eba613809ad1e406f0aae945297083ef118c73bf5708d1f779deb901 OP_PUSHBYTES_33 021ef743688b7a187bf6f771200ce6ecde43d4eee787d9493d9c571550553ba51f",
      "is_coinbase": false,
      "sequence": 4294967295
    }
  ],
  "vout": [
    {
      "scriptpubkey": "6a22a4ef36cd1ea85b18fc054328bf53ff8cef0a6054c04409b3a1424df3ad5e2212ad8c",
      "scriptpubkey_asm": "OP_RETURN OP_PUSHBYTES_34 a4ef36cd1ea85b18fc054328bf53ff8cef0a6054c04409b3a1424df3ad5e2212ad8c",
      "scriptpubkey_type": "op_return",
      "value": 0
    },
    {
      "scriptpubkey": "002000497b2270223a227372632d373231222c226f70223a226d696e74222c226322",
      "scriptpubkey_asm": "OP_0 OP_PUSHBYTES_32 00497b2270223a227372632d373231222c226f70223a226d696e74222c226322",
      "scriptpubkey_type": "v0_p2wsh",
      "scriptpubkey_address": "bc1qqpyhkgnsygazyumjvvknwv33ygkzymmsygazymtfde6zytpzvv3qw9kz3j",
      "value": 330
    },
    {
      "scriptpubkey": "00203a224131323234343331343736303438333633313333222c227473223a5b382c",
      "scriptpubkey_asm": "OP_0 OP_PUSHBYTES_32 3a224131323234343331343736303438333633313333222c227473223a5b382c",
      "scriptpubkey_type": "v0_p2wsh",
      "scriptpubkey_address": "bc1q8g3yzvfjxg6rgve3xsmnvvp58qenvve3xvejytpzw3ejywjm8qkq4gufkw",
      "value": 330
    },
    {
      "scriptpubkey": "0020302c362c382c362c325d7d000000000000000000000000000000000000000000",
      "scriptpubkey_asm": "OP_0 OP_PUSHBYTES_32 302c362c382c362c325d7d000000000000000000000000000000000000000000",
      "scriptpubkey_type": "v0_p2wsh",
      "scriptpubkey_address": "bc1qxqkrvtpc9smzcvja05qqqqqqqqqqqqqqqqqqqqqqqqqqqqqqqqqqp7wnnk",
      "value": 330
    },
    {
      "scriptpubkey": "0014419854753506f2b3e771860f36eb919d89cc890f",
      "scriptpubkey_asm": "OP_0 OP_PUSHBYTES_20 419854753506f2b3e771860f36eb919d89cc890f",
      "scriptpubkey_type": "v0_p2wpkh",
      "scriptpubkey_address": "bc1qgxv9gaf4qmet8em3sc8nd6u3nkyuezg0cg9p36",
      "value": 22220
    },
    {
      "scriptpubkey": "76a9149e1ee7a1d980c2474de0a7a1b2ad71454da237fd88ac",
      "scriptpubkey_asm": "OP_DUP OP_HASH160 OP_PUSHBYTES_20 9e1ee7a1d980c2474de0a7a1b2ad71454da237fd OP_EQUALVERIFY OP_CHECKSIG",
      "scriptpubkey_type": "p2pkh",
      "scriptpubkey_address": "1FR4nca6CQW3mySQgzXtyBYDoUeNUfa9YX",
      "value": 68272
    }
  ],
  "size": 396,
  "weight": 1584,
  "fee": 5757,
  "status": {
    "confirmed": true,
    "block_height": 834460,
    "block_hash": "00000000000000000000484a79b643b2524bbce82e5d8a442013fa5b8905ed98",
    "block_time": 1710307468
  },
  "hex": "02000000019c5beab4ecfd25ea366ef3fc4418a8e827262e392925ef1b59264b235215b929050000006a47304402200e3c51e560a367c127f46b0408485054a3356db9e591ff8aaec0d62dff08d2060220156ff5b179eba613809ad1e406f0aae945297083ef118c73bf5708d1f779deb90121021ef743688b7a187bf6f771200ce6ecde43d4eee787d9493d9c571550553ba51fffffffff060000000000000000246a22a4ef36cd1ea85b18fc054328bf53ff8cef0a6054c04409b3a1424df3ad5e2212ad8c4a0100000000000022002000497b2270223a227372632d373231222c226f70223a226d696e74222c2263224a010000000000002200203a224131323234343331343736303438333633313333222c227473223a5b382c4a01000000000000220020302c362c382c362c325d7d000000000000000000000000000000000000000000cc56000000000000160014419854753506f2b3e771860f36eb919d89cc890fb00a0100000000001976a9149e1ee7a1d980c2474de0a7a1b2ad71454da237fd88ac00000000"
}