{
  "txid": "be615274b8725fafe8c69e2266c68942b88819e24811dee309ec320ce1359534",
  "version": 2,
  "locktime": 0,
  "vin": [
    {
      "txid": "214ebed3587ab6012aca6654e4e4188b6e6d0515666e1c5bcaa49140a44aeee7",
      "vout": 1,
      "prevout": {
        "scriptpubkey": "0014074382000e04ac6ae9168880580bc70cb9b455e2",
        "scriptpubkey_asm": "OP_0 OP_PUSHBYTES_20 074382000e04ac6ae9168880580bc70cb9b455e2",
        "scriptpubkey_type": "v0_p2wpkh",
        "scriptpubkey_address": "bc1qqapcyqqwqjkx46gk3zq9sz78pjumg40zaqxp0t",
        "value": 24119
      },
      "scriptsig": "",
      "scriptsig_asm": "",
      "witness": [
        "304402200d7594e2026e930de9275d525d9976ceb219a5174eaccca9dda362bf719c8c7a022077bd036a8255a02c06a2dd6cfdf87482f2aed5cf56c14f9e0c725fbbca1c568d01",
        "027ba6d0caf28573ec2858f0e508f8d9402bcb2938015e25cea61ca001991bbfd5"
      ],
      "is_coinbase": false,
      "sequence": 4294967295
    }
  ],
  "vout": [
    {
      "scriptpubkey": "6a2a0ce6a9f665e5c890562423586fbfaccd29413d02f91d34558a8941ac59a2b35084b1e889e84c76b582a8",
      "scriptpubkey_asm": "OP_RETURN OP_PUSHBYTES_42 0ce6a9f665e5c890562423586fbfaccd29413d02f91d34558a8941ac59a2b35084b1e889e84c76b582a8",
      "scriptpubkey_type": "op_return",
      "value": 0
    },
    {
      "scriptpubkey": "0014074382000e04ac6ae9168880580bc70cb9b455e2",
      "scriptpubkey_asm": "OP_0 OP_PUSHBYTES_20 074382000e04ac6ae9168880580bc70cb9b455e2",
      "scriptpubkey_type": "v0_p2wpkh",
      "scriptpubkey_address": "bc1qqapcyqqwqjkx46gk3zq9sz78pjumg40zaqxp0t",
      "value": 22311
    }
  ],
  "size": 244,
  "weight": 649,
  "fee": 1808,
  "status": {
    "confirmed": true,
    "block_height": 834464,
    "block_hash": "0000000000000000000177a0869a911a2b65c9bdcd5a8bcb02b68f305bee848e",
    "block_time": 1710308296
  },
  "hex": "02000000000101e7ee4aa44091a4ca5b1c6e6615056d6e8b18e4e45466ca2a01b67a58d3be4e210100000000ffffffff0200000000000000002c6a2a0ce6a9f665e5c890562423586fbfaccd29413d02f91d34558a8941ac59a2b35084b1e889e84c76b582a82757000000000000160014074382000e04ac6ae9168880580bc70cb9b455e20247304402200d7594e2026e930de9275d525d9976ceb219a5174eaccca9dda362bf719c8c7a022077bd036a8255a02c06a2dd6cfdf87482f2aed5cf56c14f9e0c725fbbca1c568d0121027ba6d0caf28573ec2858f0e508f8d9402bcb2938015e25cea61ca001991bbfd500000000"
}