{
  "txid": "be65e899c13d0f49ef5d4e6d5de7213078a5dcfb28b096bca4844047bf8f2b56",
  "version": 1,
  "locktime": 0,
  "vin": [
    {
      "txid": "ca4668b68ed24e8e2aedb5347ab42e8b522ea7dd40b520a7d0d76b9ab025044b",
      "vout": 0,
      "prevout": {
        "scriptpubkey": "76a914fad7d4ad7a8fbfe6417257e42115abf7586197d988ac",
        "scriptpubkey_asm": "OP_DUP OP_HASH160 OP_PUSHBYTES_20 fad7d4ad7a8fbfe6417257e42115abf7586197d9 OP_EQUALVERIFY OP_CHECKSIG",
        "scriptpubkey_type": "p2pkh",
        "scriptpubkey_address": "1PsLV9GY8181vnPUdjcB8SUK8KxUpzaH4h",
        "value": 426000
      },
      "scriptsig": "47304402200d59a81e758d9971197de68dc686e1f274fc4c547c285b989f3a8bd81688b5be0220274740f4e7fd3956f666ccb8e61644c7afb752f28c4abe4fbb56c3608a08f65b0121039417900145e1c8a571a95f5311928b40e80ec1bd3f384062ac59b5093902ec3b",
      "scriptsig_asm": "OP_PUSHBYTES_71 304402200d59a81e758d9971197de68dc686e1f274fc4c547c285b989f3a8bd81688b5be0220274740f4e7fd3956f666ccb8e61644c7afb752f28c4abe4fbb56c3608a08f65b01 OP_PUSHBYTES_33 039417900145e1c8a571a95f5311928b40e80ec1bd3f384062ac59b5093902ec3b",
      "is_coinbase": false,
      "sequence": 4294967295
    }
  ],
  "vout": [
    {
      "scriptpubkey": "76a91438f17ab979b90e9dacd3dadc6e2b283ed0a6635188ac",
      "scriptpubkey_asm": "OP_DUP OP_HASH160 OP_PUSHBYTES_20 38f17ab979b90e9dacd3dadc6e2b283ed0a66351 OP_EQUALVERIFY OP_CHECKSIG",
      "scriptpubkey_type": "p2pkh",
      "scriptpubkey_address": "16C682Sas4Kt6CJAcDUBPjNNTFyGMWAMzv",
      "value": 422940
    }
  ],
  "size": 191,
  "weight": 764,
  "fee": 3060,
  "status": {
    "confirmed": true,
    "block_height": 834638,
    "block_hash": "000000000000000000025f742c626208ac87e0b7d15054abb4a19ca2d735a54e",
    "block_time": 1710405325
  },
  "hex": "01000000014b0425b09a6bd7d0a720b540dda72e528b2eb47a34b5ed2a8e4ed28eb66846ca000000006a47304402200d59a81e758d9971197de68dc686e1f274fc4c547c285b989f3a8bd81688b5be0220274740f4e7fd3956f666ccb8e61644c7afb752f28c4abe4fbb56c3608a08f65b0121039417900145e1c8a571a95f5311928b40e80ec1bd3f384062ac59b5093902ec3bffffffff011c740600000000001976a91438f17ab979b90e9dacd3dadc6e2b283ed0a6635188ac00000000"
}