{
  "txid": "be6bbf79c48261a3c54c47d19003601598f219a985ab2ff54020efb18d53323a",
  "version": 2,
  "locktime": 0,
  "vin": [
    {
      "txid": "3f7ab26ffa64ec0734da75276bac98d6eef8218c3c21766a21af0515e1ddf7d1",
      "vout": 0,
      "prevout": {
        "scriptpubkey": "5120c6966eeacf67bbb596f1c01b836de742dcb9a26fdcf03a8ff1d5eabbcd8b4c42",
        "scriptpubkey_asm": "OP_PUSHNUM_1 OP_PUSHBYTES_32 c6966eeacf67bbb596f1c01b836de742dcb9a26fdcf03a8ff1d5eabbcd8b4c42",
        "scriptpubkey_type": "v1_p2tr",
        "scriptpubkey_address": "bc1pc6txa6k0v7amt9h3cqdcxm08gtwtngn0mncr4rl36h4thnvtf3pqucrfgx",
        "value": 3010
      },
      "scriptsig": "",
      "scriptsig_asm": "",
      "witness": [
        "ce975d7ae66958d2384a39f193ef961542e1a0a18a59819a7d95ca12cb35c6640fced432a5f327d6231aa495cd222a7c67ae8422cea0afe13045d7d47df07ea8",
        "20ef5e4134441dadc1ce3dd60ebc99a3991882ef613fda6567e83ca41d860b96c8ac0063036f7264010118746578742f706c61696e3b636861727365743d7574662d3800407b2270223a226272632d3230222c226f70223a227472616e73666572222c227469636b223a22f09d9b91222c22616d74223a223336303030303030303030227d68",
        "c0ef5e4134441dadc1ce3dd60ebc99a3991882ef613fda6567e83ca41d860b96c8"
      ],
      "is_coinbase": false,
      "sequence": 4294967293
    }
  ],
  "vout": [
    {
      "scriptpubkey": "5120d53cf72d3864e8263f220714e7988ed7514aadd2b95af8deda2482814b0e575a",
      "scriptpubkey_asm": "OP_PUSHNUM_1 OP_PUSHBYTES_32 d53cf72d3864e8263f220714e7988ed7514aadd2b95af8deda2482814b0e575a",
      "scriptpubkey_type": "v1_p2tr",
      "scriptpubkey_address": "bc1p6570wtfcvn5zv0ezqu2w0xyw6ag54twjh9d03hk6yjpgzjcw2adqcxn6uy",
      "value": 546
    }
  ],
  "size": 331,
  "weight": 613,
  "fee": 2464,
  "status": {
    "confirmed": true,
    "block_height": 834464,
    "block_hash": "0000000000000000000177a0869a911a2b65c9bdcd5a8bcb02b68f305bee848e",
    "block_time": 1710308296
  },
  "hex": "02000000000101d1f7dde11505af216a76213c8c21f8eed698ac6b2775da3407ec64fa6fb27a3f0000000000fdffffff012202000000000000225120d53cf72d3864e8263f220714e7988ed7514aadd2b95af8deda2482814b0e575a0340ce975d7ae66958d2384a39f193ef961542e1a0a18a59819a7d95ca12cb35c6640fced432a5f327d6231aa495cd222a7c67ae8422cea0afe13045d7d47df07ea88620ef5e4134441dadc1ce3dd60ebc99a3991882ef613fda6567e83ca41d860b96c8ac0063036f7264010118746578742f706c61696e3b636861727365743d7574662d3800407b2270223a226272632d3230222c226f70223a227472616e73666572222c227469636b223a22f09d9b91222c22616d74223a223336303030303030303030227d6821c0ef5e4134441dadc1ce3dd60ebc99a3991882ef613fda6567e83ca41d860b96c800000000"
}