{
  "txid": "be80cad661628511f178dd4f0617a6b8ace86b45ae9801b3db9c18b6dde80b37",
  "version": 1,
  "locktime": 0,
  "vin": [
    {
      "txid": "28900e8288083f7ceeca85156e96a7c77e42aecfac72a31a1637c648afe856fc",
      "vout": 0,
      "prevout": {
        "scriptpubkey": "00147e8284a6509fbf9cc2adf99c168da0ac9e1606c1",
        "scriptpubkey_asm": "OP_0 OP_PUSHBYTES_20 7e8284a6509fbf9cc2adf99c168da0ac9e1606c1",
        "scriptpubkey_type": "v0_p2wpkh",
        "scriptpubkey_address": "bc1q06pgffjsn7lees4dlxwpdrdq4j0pvpkp73aqgw",
        "value": 217506
      },
      "scriptsig": "",
      "scriptsig_asm": "",
      "witness": [
        "30440220748b60d907977e123c72c09693bec3fdb4e2c2263c80f2c868c46aebd510e9de02200f3c8a2dab1c1c0d2fb783a4f02d25d0b7e5ea9096725d194c9cf60ee3b4b06201",
        "038e74e4e3cbed2dea8b50c68d9777e032f8bcc4af511f4833b6162d1441a6bb44"
      ],
      "is_coinbase": false,
      "sequence": 4294967295
    }
  ],
  "vout": [
    {
      "scriptpubkey": "76a91488c49c9c877c43f9937425b25006d2997bbfe09c88ac",
      "scriptpubkey_asm": "OP_DUP OP_HASH160 OP_PUSHBYTES_20 88c49c9c877c43f9937425b25006d2997bbfe09c OP_EQUALVERIFY OP_CHECKSIG",
      "scriptpubkey_type": "p2pkh",
      "scriptpubkey_address": "1DUARuzrvMHtUzavP6TTvxmSMsrbstBVF8",
      "value": 215818
    }
  ],
  "size": 194,
  "weight": 449,
  "fee": 1688,
  "status": {
    "confirmed": true,
    "block_height": 834638,
    "block_hash": "000000000000000000025f742c626208ac87e0b7d15054abb4a19ca2d735a54e",
    "block_time": 1710405325
  },
  "hex": "01000000000101fc56e8af48c637161aa372accfae427ec7a7966e1585caee7c3f0888820e90280000000000ffffffff010a4b0300000000001976a91488c49c9c877c43f9937425b25006d2997bbfe09c88ac024730440220748b60d907977e123c72c09693bec3fdb4e2c2263c80f2c868c46aebd510e9de02200f3c8a2dab1c1c0d2fb783a4f02d25d0b7e5ea9096725d194c9cf60ee3b4b0620121038e74e4e3cbed2dea8b50c68d9777e032f8bcc4af511f4833b6162d1441a6bb4400000000"
}