{
  "txid": "be899c34cdd26133f829ada10f1ec4d87544991e649e923fc40917f9d91c5d06",
  "version": 2,
  "locktime": 834458,
  "vin": [
    {
      "txid": "62f985e19552b463de6b2e751d4efb9ceddafd66fe1ac89df78ab4d646c28731",
      "vout": 0,
      "prevout": {
        "scriptpubkey": "0014cd3c87fbbb1fc046f2cc16b0645542d97777613b",
        "scriptpubkey_asm": "OP_0 OP_PUSHBYTES_20 cd3c87fbbb1fc046f2cc16b0645542d97777613b",
        "scriptpubkey_type": "v0_p2wpkh",
        "scriptpubkey_address": "bc1qe57g07amrlqydukvz6cxg42zm9mhwcfmjxws5q",
        "value": 1584046
      },
      "scriptsig": "",
      "scriptsig_asm": "",
      "witness": [
        "304402206958c5f2e62368c636abfebaad75f13e70ea63b59dd38a5baedd6238c63f84ab02204f0c49dcde4884b2e584ae0319bfceb1c35c6407c9357bbe0ff1e55b3f2cbd0301",
        "02b0eb0b90fca9ab1e3bde0a0d8d6e7c90076ee869d8fa703027d0d48b53a1f737"
      ],
      "is_coinbase": false,
      "sequence": 4294967293
    }
  ],
  "vout": [
    {
      "scriptpubkey": "00145735b6483ea5e7ab339678e3701a2ad5d2395d19",
      "scriptpubkey_asm": "OP_0 OP_PUSHBYTES_20 5735b6483ea5e7ab339678e3701a2ad5d2395d19",
      "scriptpubkey_type": "v0_p2wpkh",
      "scriptpubkey_address": "bc1q2u6mvjp75hn6kvuk0r3hqx326hfrjhgedmtny3",
      "value": 751551
    },
    {
      "scriptpubkey": "a91491c50f8a6bd5fdb13ec443a29c35393bcf4460f087",
      "scriptpubkey_asm": "OP_HASH160 OP_PUSHBYTES_20 91c50f8a6bd5fdb13ec443a29c35393bcf4460f0 OP_EQUAL",
      "scriptpubkey_type": "p2sh",
      "scriptpubkey_address": "3EymyNpe5KVifau68mD7RGRBp8m8ui7ej8",
      "value": 830649
    }
  ],
  "size": 223,
  "weight": 565,
  "fee": 1846,
  "status": {
    "confirmed": true,
    "block_height": 834460,
    "block_hash": "00000000000000000000484a79b643b2524bbce82e5d8a442013fa5b8905ed98",
    "block_time": 1710307468
  },
  "hex": "020000000001013187c246d6b48af79dc81afe66fddaed9cfb4e1d752e6bde63b45295e185f9620000000000fdffffff02bf770b00000000001600145735b6483ea5e7ab339678e3701a2ad5d2395d19b9ac0c000000000017a91491c50f8a6bd5fdb13ec443a29c35393bcf4460f0870247304402206958c5f2e62368c636abfebaad75f13e70ea63b59dd38a5baedd6238c63f84ab02204f0c49dcde4884b2e584ae0319bfceb1c35c6407c9357bbe0ff1e55b3f2cbd03012102b0eb0b90fca9ab1e3bde0a0d8d6e7c90076ee869d8fa703027d0d48b53a1f7379abb0c00"
}