{
  "txid": "be8c3abea7e8e65f5206628fe324dfff446376ff1d91040e363a2f49c79e1f83",
  "version": 2,
  "locktime": 0,
  "vin": [
    {
      "txid": "8486ecb4df0880316dd6e82b3971b4df187aff23765bc3a47f8d78bb53aa273c",
      "vout": 92,
      "prevout": {
        "scriptpubkey": "5120afd59a83709d1cdfa9b9133ab27df634538f038a1a1dadc256adbea3c470c60c",
        "scriptpubkey_asm": "OP_PUSHNUM_1 OP_PUSHBYTES_32 afd59a83709d1cdfa9b9133ab27df634538f038a1a1dadc256adbea3c470c60c",
        "scriptpubkey_type": "v1_p2tr",
        "scriptpubkey_address": "bc1p4l2e4qmsn5wdl2dezvatyl0kx3fc7qu2rgw6msjk4kl283rsccxqfpwe5m",
        "value": 2575
      },
      "scriptsig": "",
      "scriptsig_asm": "",
      "witness": [
        "c985f50c4ab1cb6ca30f2b37640824c4c3c4e50c72de95c96583de6919a2757732b8a62de65459788a830bfa93cfebb41b275da6011520d42da036f915bb046a",
        "20976fc551b6a259f7fb033c3ef9272d5855a44fd5b0f76aaddc57c894dc9b1b30ac0063036f726401010a746578742f706c61696e00367b2270223a226272632d3230222c226f70223a226d696e74222c227469636b223a2261616161222c22616d74223a223130303030227d68",
        "c1976fc551b6a259f7fb033c3ef9272d5855a44fd5b0f76aaddc57c894dc9b1b30"
      ],
      "is_coinbase": false,
      "sequence": 4261412863
    }
  ],
  "vout": [
    {
      "scriptpubkey": "0014ddd7ef12ea6f78edcc1e8e7afa12c01ab59f3339",
      "scriptpubkey_asm": "OP_0 OP_PUSHBYTES_20 ddd7ef12ea6f78edcc1e8e7afa12c01ab59f3339",
      "scriptpubkey_type": "v0_p2wpkh",
      "scriptpubkey_address": "bc1qmht77yh2dauwmnq73ea05ykqr26e7veea8spz6",
      "value": 546
    }
  ],
  "size": 295,
  "weight": 541,
  "fee": 2029,
  "status": {
    "confirmed": true,
    "block_height": 834460,
    "block_hash": "00000000000000000000484a79b643b2524bbce82e5d8a442013fa5b8905ed98",
    "block_time": 1710307468
  },
  "hex": "020000000001013c27aa53bb788d7fa4c35b7623ff7a18dfb471392be8d66d318008dfb4ec86845c00000000fffffffd012202000000000000160014ddd7ef12ea6f78edcc1e8e7afa12c01ab59f33390340c985f50c4ab1cb6ca30f2b37640824c4c3c4e50c72de95c96583de6919a2757732b8a62de65459788a830bfa93cfebb41b275da6011520d42da036f915bb046a6e20976fc551b6a259f7fb033c3ef9272d5855a44fd5b0f76aaddc57c894dc9b1b30ac0063036f726401010a746578742f706c61696e00367b2270223a226272632d3230222c226f70223a226d696e74222c227469636b223a2261616161222c22616d74223a223130303030227d6821c1976fc551b6a259f7fb033c3ef9272d5855a44fd5b0f76aaddc57c894dc9b1b3000000000"
}