{
  "txid": "bea2bcdc91abf90451f34dd569b90a65f394acda38f427d182eca52073be9822",
  "version": 2,
  "locktime": 0,
  "vin": [
    {
      "txid": "434a190af4c77d79979d2d21602f5142851f9bba256446dd7d31a7b311999b99",
      "vout": 7,
      "prevout": {
        "scriptpubkey": "512080cd81f9d7d3604f266509c5973d9d193ad2f4a57e4b88e55e729b7476bd7802",
        "scriptpubkey_asm": "OP_PUSHNUM_1 OP_PUSHBYTES_32 80cd81f9d7d3604f266509c5973d9d193ad2f4a57e4b88e55e729b7476bd7802",
        "scriptpubkey_type": "v1_p2tr",
        "scriptpubkey_address": "bc1psrxcr7wh6dsy7fn9p8zew0varyad9a990e9c3e27w2dhga4a0qpq8fxrxf",
        "value": 3234
      },
      "scriptsig": "",
      "scriptsig_asm": "",
      "witness": [
        "f9b1312097e2d2d045f631b25a49ecc9a34749383a7249f8719d1eefc122f659f9dc2156a6ccb5cc33d36ba73097a19907cd81b143779e648820ce047e131d9c",
        "20a49aa3157c511f1cdd270fb777b403e193e64a804c47dc846ceea5c5c1aefda4ac0063036f726401011e6170706c69636174696f6e2f6a736f6e3b636861727365743d7574662d38004cd27b2270223a22706f772d3230222c226f70223a226d696e74222c227469636b223a2250455045222c22616d74223a2231303030222c22736f6c7574696f6e223a22504550453a6263317034346572347876306c6430706c6a3779346c6a71307536617433747936773234356c7961366173337474367578747039716c79737637327161613a303030303030303030303030303030303030303139393431613561653132383937363539383134343239323533333030353762306461393666336465613163353a33393230303231333136227d68",
        "c0f9337ae8d846120319842204c8fa6fb30a2d36b39aa08502370b80ec3c9c59a9"
      ],
      "is_coinbase": false,
      "sequence": 4294967295
    }
  ],
  "vout": [
    {
      "scriptpubkey": "5120ad723a998ffb5e1fcbc4afe407f35d5c564d3955a7c9dd76115af5c32c2507c9",
      "scriptpubkey_asm": "OP_PUSHNUM_1 OP_PUSHBYTES_32 ad723a998ffb5e1fcbc4afe407f35d5c564d3955a7c9dd76115af5c32c2507c9",
      "scriptpubkey_type": "v1_p2tr",
      "scriptpubkey_address": "bc1p44er4xv0ld0plj7y4ljq0u6at3ty6w245lya6as3tt6uxtp9qlysv72qaa",
      "value": 546
    }
  ],
  "size": 486,
  "weight": 768,
  "fee": 2688,
  "status": {
    "confirmed": true,
    "block_height": 834460,
    "block_hash": "00000000000000000000484a79b643b2524bbce82e5d8a442013fa5b8905ed98",
    "block_time": 1710307468
  },
  "hex": "02000000000101999b9911b3a7317ddd466425ba9b1f8542512f60212d9d97797dc7f40a194a430700000000ffffffff012202000000000000225120ad723a998ffb5e1fcbc4afe407f35d5c564d3955a7c9dd76115af5c32c2507c90340f9b1312097e2d2d045f631b25a49ecc9a34749383a7249f8719d1eefc122f659f9dc2156a6ccb5cc33d36ba73097a19907cd81b143779e648820ce047e131d9cfd1f0120a49aa3157c511f1cdd270fb777b403e193e64a804c47dc846ceea5c5c1aefda4ac0063036f726401011e6170706c69636174696f6e2f6a736f6e3b636861727365743d7574662d38004cd27b2270223a22706f772d3230222c226f70223a226d696e74222c227469636b223a2250455045222c22616d74223a2231303030222c22736f6c7574696f6e223a22504550453a6263317034346572347876306c6430706c6a3779346c6a71307536617433747936773234356c7961366173337474367578747039716c79737637327161613a303030303030303030303030303030303030303139393431613561653132383937363539383134343239323533333030353762306461393666336465613163353a33393230303231333136227d6821c0f9337ae8d846120319842204c8fa6fb30a2d36b39aa08502370b80ec3c9c59a900000000"
}