{
  "txid": "beb17508e483c079270952af15ae6fefce3dbf176830a75b919a93fdff69cb32",
  "version": 2,
  "locktime": 834637,
  "vin": [
    {
      "txid": "1e4a2ac54bdd13d2cac6983f0baedc7a4e8306f180df0855a9a0d82a11b13eb7",
      "vout": 1,
      "prevout": {
        "scriptpubkey": "00147daf95ecf29c1c4c7eb8e7dd4e72ca0ae2854aac",
        "scriptpubkey_asm": "OP_0 OP_PUSHBYTES_20 7daf95ecf29c1c4c7eb8e7dd4e72ca0ae2854aac",
        "scriptpubkey_type": "v0_p2wpkh",
        "scriptpubkey_address": "bc1q0khetm8jnswycl4culw5uuk2pt3g2j4vmyzvtl",
        "value": 126425
      },
      "scriptsig": "",
      "scriptsig_asm": "",
      "witness": [
        "304402206cef4ad376c9f2537081d0a8f48262240d03451287e81363f0789632e2e645f702205c4376a5458cbb648ff164c395707d86ea5ca9e3d7d2c92eb8f1e3ad3465598301",
        "0287d388c1c4343dd1fb0ee349fa2c3c9f1b5fce7c8c3906007d6149f6804a1b63"
      ],
      "is_coinbase": false,
      "sequence": 4294967293
    }
  ],
  "vout": [
    {
      "scriptpubkey": "0014cd4f9e6f2462eb78a202d12624d4abe32c73a7a3",
      "scriptpubkey_asm": "OP_0 OP_PUSHBYTES_20 cd4f9e6f2462eb78a202d12624d4abe32c73a7a3",
      "scriptpubkey_type": "v0_p2wpkh",
      "scriptpubkey_address": "bc1qe48eumeyvt4h3gsz6ynzf49tuvk88fareyren7",
      "value": 58598
    },
    {
      "scriptpubkey": "a914040086e70095a7b449771aeb95de225d2cbb4c2287",
      "scriptpubkey_asm": "OP_HASH160 OP_PUSHBYTES_20 040086e70095a7b449771aeb95de225d2cbb4c22 OP_EQUAL",
      "scriptpubkey_type": "p2sh",
      "scriptpubkey_address": "324BFvc9mtbUAxu7qV4AvKGJdKSDHQzQd7",
      "value": 62076
    }
  ],
  "size": 223,
  "weight": 565,
  "fee": 5751,
  "status": {
    "confirmed": true,
    "block_height": 834638,
    "block_hash": "000000000000000000025f742c626208ac87e0b7d15054abb4a19ca2d735a54e",
    "block_time": 1710405325
  },
  "hex": "02000000000101b73eb1112ad8a0a95508df80f106834e7adcae0b3f98c6cad213dd4bc52a4a1e0100000000fdffffff02e6e4000000000000160014cd4f9e6f2462eb78a202d12624d4abe32c73a7a37cf200000000000017a914040086e70095a7b449771aeb95de225d2cbb4c22870247304402206cef4ad376c9f2537081d0a8f48262240d03451287e81363f0789632e2e645f702205c4376a5458cbb648ff164c395707d86ea5ca9e3d7d2c92eb8f1e3ad3465598301210287d388c1c4343dd1fb0ee349fa2c3c9f1b5fce7c8c3906007d6149f6804a1b634dbc0c00"
}