{
  "txid": "bec11fb2fd836e5fb28996a8ae2008d59142f781bfbfa70a31447af315e89aec",
  "version": 2,
  "locktime": 0,
  "vin": [
    {
      "txid": "acc3ba00869acb582a3f2904ce3a11dd3779350ce234063fc7d0959246213364",
      "vout": 157,
      "prevout": {
        "scriptpubkey": "5120835518bb6c785b22923f57669e404d9c8dcb09eb7980ac32b85314cf83b17ca2",
        "scriptpubkey_asm": "OP_PUSHNUM_1 OP_PUSHBYTES_32 835518bb6c785b22923f57669e404d9c8dcb09eb7980ac32b85314cf83b17ca2",
        "scriptpubkey_type": "v1_p2tr",
        "scriptpubkey_address": "bc1psd233wmv0pdj9y3l2anfuszdnjxukz0t0xq2cv4c2v2vlqa30j3qgqssam",
        "value": 1806
      },
      "scriptsig": "",
      "scriptsig_asm": "",
      "witness": [
        "077ff4e57d6558bb91da166a5dfb6a7d60c097c832ebbac0bd854f1f9d3e75a14b4e4183b2f75e617c3b64a25a5ba2a296e4a34fa646af96684d4188b1c4e2c0",
        "201dda24da0b91e0eed9770878c504aeb07628ca4ccae9a7bd5347b96ee85dac52ac0063036f726401010a746578742f706c61696e00357b2270223a226272632d3230222c226f70223a226d696e74222c227469636b223a22646f6765222c22616d74223a2234323030227d68",
        "c01dda24da0b91e0eed9770878c504aeb07628ca4ccae9a7bd5347b96ee85dac52"
      ],
      "is_coinbase": false,
      "sequence": 4261412863
    }
  ],
  "vout": [
    {
      "scriptpubkey": "00147a665de7a370f4c9b372ab1fae587500a5bcbdb4",
      "scriptpubkey_asm": "OP_0 OP_PUSHBYTES_20 7a665de7a370f4c9b372ab1fae587500a5bcbdb4",
      "scriptpubkey_type": "v0_p2wpkh",
      "scriptpubkey_address": "bc1q0fn9mearwr6vnvmj4v06ukr4qzjme0d565dzcx",
      "value": 294
    }
  ],
  "size": 294,
  "weight": 540,
  "fee": 1512,
  "status": {
    "confirmed": true,
    "block_height": 834460,
    "block_hash": "00000000000000000000484a79b643b2524bbce82e5d8a442013fa5b8905ed98",
    "block_time": 1710307468
  },
  "hex": "02000000000101643321469295d0c73f0634e20c357937dd113ace04293f2a58cb9a8600bac3ac9d00000000fffffffd0126010000000000001600147a665de7a370f4c9b372ab1fae587500a5bcbdb40340077ff4e57d6558bb91da166a5dfb6a7d60c097c832ebbac0bd854f1f9d3e75a14b4e4183b2f75e617c3b64a25a5ba2a296e4a34fa646af96684d4188b1c4e2c06d201dda24da0b91e0eed9770878c504aeb07628ca4ccae9a7bd5347b96ee85dac52ac0063036f726401010a746578742f706c61696e00357b2270223a226272632d3230222c226f70223a226d696e74222c227469636b223a22646f6765222c22616d74223a2234323030227d6821c01dda24da0b91e0eed9770878c504aeb07628ca4ccae9a7bd5347b96ee85dac5200000000"
}