{
  "txid": "bec91311457d7dd90a4f4fa2f702f7839df02eb8ec249819cf713b8a2fd135f3",
  "version": 1,
  "locktime": 0,
  "vin": [
    {
      "txid": "3e50d802f7e25f5a05930e9aed5539e19a7746fe69cbf84df0b7ce187089312c",
      "vout": 110,
      "prevout": {
        "scriptpubkey": "0014f115f9dd97e61ccc5194bb69d8ecdfc1ce971813",
        "scriptpubkey_asm": "OP_0 OP_PUSHBYTES_20 f115f9dd97e61ccc5194bb69d8ecdfc1ce971813",
        "scriptpubkey_type": "v0_p2wpkh",
        "scriptpubkey_address": "bc1q7y2lnhvhucwvc5v5hd5a3mxlc88fwxqnf5p3ws",
        "value": 1000535
      },
      "scriptsig": "",
      "scriptsig_asm": "",
      "witness": [
        "3045022100b148548b79333376b9c3c0a161981ab14f90280c8a5c8dfec79986edf71743bf022064eab5c731f7d3488213823a37133f1de6e25342c6bbb7394e6187eac37c001f01",
        "02914eca46ca5fdc0d880df31c262adaa94917387d6c853cd0e1f616e94fc9e04f"
      ],
      "is_coinbase": false,
      "sequence": 4294967295
    },
    {
      "txid": "4e43ce199638af1f016901d6f836ed905649aee8b9ae6f917a5fe3ba3ab86c8b",
      "vout": 41,
      "prevout": {
        "scriptpubkey": "0014f115f9dd97e61ccc5194bb69d8ecdfc1ce971813",
        "scriptpubkey_asm": "OP_0 OP_PUSHBYTES_20 f115f9dd97e61ccc5194bb69d8ecdfc1ce971813",
        "scriptpubkey_type": "v0_p2wpkh",
        "scriptpubkey_address": "bc1q7y2lnhvhucwvc5v5hd5a3mxlc88fwxqnf5p3ws",
        "value": 1000005
      },
      "scriptsig": "",
      "scriptsig_asm": "",
      "witness": [
        "304402205d8ce48c6e87faa8fb29136b213c31c680a79460dd248fc5b7f440065ea5282a0220725e9133fa984abebb09f4d11e18b183628cc224bc890b0f40ec296523d0f7a601",
        "02914eca46ca5fdc0d880df31c262adaa94917387d6c853cd0e1f616e94fc9e04f"
      ],
      "is_coinbase": false,
      "sequence": 4294967295
    },
    {
      "txid": "5e5aaa541eb8a0b9111d820f76768f39595c9b2c520259d4cd0a1f87d852e252",
      "vout": 78,
      "prevout": {
        "scriptpubkey": "0014f115f9dd97e61ccc5194bb69d8ecdfc1ce971813",
        "scriptpubkey_asm": "OP_0 OP_PUSHBYTES_20 f115f9dd97e61ccc5194bb69d8ecdfc1ce971813",
        "scriptpubkey_type": "v0_p2wpkh",
        "scriptpubkey_address": "bc1q7y2lnhvhucwvc5v5hd5a3mxlc88fwxqnf5p3ws",
        "value": 1000077
      },
      "scriptsig": "",
      "scriptsig_asm": "",
      "witness": [
        "3045022100b43ae3d60dd3dfa98232be729d02391bf252b6001227029ec7f88d8f714e3b8c02207fb19ba7f806157b137a2cfaa1fdb9d65f37e36577e6e200c1a1dfdf9fea19a701",
        "02914eca46ca5fdc0d880df31c262adaa94917387d6c853cd0e1f616e94fc9e04f"
      ],
      "is_coinbase": false,
      "sequence": 4294967295
    },
    {
      "txid": "5c8c7773e8dc773ff88560fd3a68268e44b5ef6bfdc3e5eabe059a363d19c1cb",
      "vout": 106,
      "prevout": {
        "scriptpubkey": "0014f115f9dd97e61ccc5194bb69d8ecdfc1ce971813",
        "scriptpubkey_asm": "OP_0 OP_PUSHBYTES_20 f115f9dd97e61ccc5194bb69d8ecdfc1ce971813",
        "scriptpubkey_type": "v0_p2wpkh",
        "scriptpubkey_address": "bc1q7y2lnhvhucwvc5v5hd5a3mxlc88fwxqnf5p3ws",
        "value": 1000559
      },
      "scriptsig": "",
      "scriptsig_asm": "",
      "witness": [
        "3045022100ee4a222a8ef4cde526e98906e5903e37ac175d19a53362f5befc8987104fa07102203f337343e4ed13a2539bf6840b781827a63573cf0e34a9c95f3eb1cf04b3a95701",
        "02914eca46ca5fdc0d880df31c262adaa94917387d6c853cd0e1f616e94fc9e04f"
      ],
      "is_coinbase": false,
      "sequence": 4294967295
    },
    {
      "txid": "f215413280f7a77c7d0ba0b89c28e507c132d89aa2ac1a19ed7e13ae80150c72",
      "vout": 112,
      "prevout": {
        "scriptpubkey": "0014f115f9dd97e61ccc5194bb69d8ecdfc1ce971813",
        "scriptpubkey_asm": "OP_0 OP_PUSHBYTES_20 f115f9dd97e61ccc5194bb69d8ecdfc1ce971813",
        "scriptpubkey_type": "v0_p2wpkh",
        "scriptpubkey_address": "bc1q7y2lnhvhucwvc5v5hd5a3mxlc88fwxqnf5p3ws",
        "value": 1000216
      },
      "scriptsig": "",
      "scriptsig_asm": "",
      "witness": [
        "304402201f06293697c898c57a3e97767389d42ff100015f22fc90266b15388b2fddf74602205aae4e6ed83b792b69e622be27da790d03ba5ad818e7154400fb6d247f02aab601",
        "02914eca46ca5fdc0d880df31c262adaa94917387d6c853cd0e1f616e94fc9e04f"
      ],
      "is_coinbase": false,
      "sequence": 4294967295
    },
    {
      "txid": "62c14b552563a326758077c530416cfac95d964627fb174a30abacdc44250894",
      "vout": 6,
      "prevout": {
        "scriptpubkey": "0014f115f9dd97e61ccc5194bb69d8ecdfc1ce971813",
        "scriptpubkey_asm": "OP_0 OP_PUSHBYTES_20 f115f9dd97e61ccc5194bb69d8ecdfc1ce971813",
        "scriptpubkey_type": "v0_p2wpkh",
        "scriptpubkey_address": "bc1q7y2lnhvhucwvc5v5hd5a3mxlc88fwxqnf5p3ws",
        "value": 1011005
      },
      "scriptsig": "",
      "scriptsig_asm": "",
      "witness": [
        "3044022060155359d54fbe6fcf6407cba982f0366719b6adcac261362d7839b0f9726d73022017071336e561ee884d56e5e1e1912ae60f9df32a40197a91304310e34fadea8201",
        "02914eca46ca5fdc0d880df31c262adaa94917387d6c853cd0e1f616e94fc9e04f"
      ],
      "is_coinbase": false,
      "sequence": 4294967295
    }
  ],
  "vout": [
    {
      "scriptpubkey": "76a9148e06b266ea22f73dadea2d2c7e2628611ced96bc88ac",
      "scriptpubkey_asm": "OP_DUP OP_HASH160 OP_PUSHBYTES_20 8e06b266ea22f73dadea2d2c7e2628611ced96bc OP_EQUALVERIFY OP_CHECKSIG",
      "scriptpubkey_type": "p2pkh",
      "scriptpubkey_address": "1DwxyYknLki7cARTgYXecvpb3NBzZDFjdy",
      "value": 6000166
    }
  ],
  "size": 937,
  "weight": 1807,
  "fee": 12231,
  "status": {
    "confirmed": true,
    "block_height": 834638,
    "block_hash": "000000000000000000025f742c626208ac87e0b7d15054abb4a19ca2d735a54e",
    "block_time": 1710405325
  },
  "hex": "010000000001062c31897018ceb7f04df8cb69fe46779ae13955ed9a0e93055a5fe2f702d8503e6e00000000ffffffff8b6cb83abae35f7a916faeb9e8ae495690ed36f8d60169011faf389619ce434e2900000000ffffffff52e252d8871f0acdd45902522c9b5c59398f76760f821d11b9a0b81e54aa5a5e4e00000000ffffffffcbc1193d369a05beeae5c3fd6befb5448e26683afd6085f83f77dce873778c5c6a00000000ffffffff720c1580ae137eed191aaca29ad832c107e5289cb8a00b7d7ca7f780324115f27000000000ffffffff94082544dcacab304a17fb2746965dc9fa6c4130c577807526a36325554bc1620600000000ffffffff01268e5b00000000001976a9148e06b266ea22f73dadea2d2c7e2628611ced96bc88ac02483045022100b148548b79333376b9c3c0a161981ab14f90280c8a5c8dfec79986edf71743bf022064eab5c731f7d3488213823a37133f1de6e25342c6bbb7394e6187eac37c001f012102914eca46ca5fdc0d880df31c262adaa94917387d6c853cd0e1f616e94fc9e04f0247304402205d8ce48c6e87faa8fb29136b213c31c680a79460dd248fc5b7f440065ea5282a0220725e9133fa984abebb09f4d11e18b183628cc224bc890b0f40ec296523d0f7a6012102914eca46ca5fdc0d880df31c262adaa94917387d6c853cd0e1f616e94fc9e04f02483045022100b43ae3d60dd3dfa98232be729d02391bf252b6001227029ec7f88d8f714e3b8c02207fb19ba7f806157b137a2cfaa1fdb9d65f37e36577e6e200c1a1dfdf9fea19a7012102914eca46ca5fdc0d880df31c262adaa94917387d6c853cd0e1f616e94fc9e04f02483045022100ee4a222a8ef4cde526e98906e5903e37ac175d19a53362f5befc8987104fa07102203f337343e4ed13a2539bf6840b781827a63573cf0e34a9c95f3eb1cf04b3a957012102914eca46ca5fdc0d880df31c262adaa94917387d6c853cd0e1f616e94fc9e04f0247304402201f06293697c898c57a3e97767389d42ff100015f22fc90266b15388b2fddf74602205aae4e6ed83b792b69e622be27da790d03ba5ad818e7154400fb6d247f02aab6012102914eca46ca5fdc0d880df31c262adaa94917387d6c853cd0e1f616e94fc9e04f02473044022060155359d54fbe6fcf6407cba982f0366719b6adcac261362d7839b0f9726d73022017071336e561ee884d56e5e1e1912ae60f9df32a40197a91304310e34fadea82012102914eca46ca5fdc0d880df31c262adaa94917387d6c853cd0e1f616e94fc9e04f00000000"
}