{
  "txid": "bee1bfbd8abaad8530780e8c8fc6acc2b7265bf0159c61ad0f638c1f8405ab79",
  "version": 1,
  "locktime": 0,
  "vin": [
    {
      "txid": "e24b036064be7dcc6834e08262086aa00a53169b6a2b97ea8a8b9e14318625db",
      "vout": 0,
      "prevout": {
        "scriptpubkey": "0014356e4af99dca8f62f092037fdac11de6da998c2b",
        "scriptpubkey_asm": "OP_0 OP_PUSHBYTES_20 356e4af99dca8f62f092037fdac11de6da998c2b",
        "scriptpubkey_type": "v0_p2wpkh",
        "scriptpubkey_address": "bc1qx4hy47vae28k9uyjqdla4sgaumdfnrptznuf72",
        "value": 27119393
      },
      "scriptsig": "",
      "scriptsig_asm": "",
      "witness": [
        "3045022100f9b1131d33b34bbdebad1f2e3277f4cd8ccc820db21fcf9040c925cd373c2cfb022076eeffd390a69d8c85d5292490cb78acc11da07af08fd4532f2fde9a3301241a01",
        "03b92864980d2aebbd84320ee7d88b800a67a452d13f2e650cdc45be0199eb8b74"
      ],
      "is_coinbase": false,
      "sequence": 4294967295
    }
  ],
  "vout": [
    {
      "scriptpubkey": "00147dcf207a049e4672f5f56bc00a5ebc195739939b",
      "scriptpubkey_asm": "OP_0 OP_PUSHBYTES_20 7dcf207a049e4672f5f56bc00a5ebc195739939b",
      "scriptpubkey_type": "v0_p2wpkh",
      "scriptpubkey_address": "bc1q0h8jq7syner89a04d0qq5h4ur9tnnyum2ekd2z",
      "value": 25908000
    },
    {
      "scriptpubkey": "0014afef4ec02d80049ccbfba3076290265f07883f48",
      "scriptpubkey_asm": "OP_0 OP_PUSHBYTES_20 afef4ec02d80049ccbfba3076290265f07883f48",
      "scriptpubkey_type": "v0_p2wpkh",
      "scriptpubkey_address": "bc1q4lh5aspdsqzfejlm5vrk9ypxturcs06gctknn5",
      "value": 1207759
    }
  ],
  "size": 223,
  "weight": 562,
  "fee": 3634,
  "status": {
    "confirmed": true,
    "block_height": 834638,
    "block_hash": "000000000000000000025f742c626208ac87e0b7d15054abb4a19ca2d735a54e",
    "block_time": 1710405325
  },
  "hex": "01000000000101db258631149e8b8aea972b6a9b16530aa06a086282e03468cc7dbe6460034be20000000000ffffffff0220538b01000000001600147dcf207a049e4672f5f56bc00a5ebc195739939bcf6d120000000000160014afef4ec02d80049ccbfba3076290265f07883f4802483045022100f9b1131d33b34bbdebad1f2e3277f4cd8ccc820db21fcf9040c925cd373c2cfb022076eeffd390a69d8c85d5292490cb78acc11da07af08fd4532f2fde9a3301241a012103b92864980d2aebbd84320ee7d88b800a67a452d13f2e650cdc45be0199eb8b7400000000"
}