{
  "txid": "bee8ad0d0f3b3c739137f8d5d819bc30696fcf4afe0b7721547f7abe44b1fcf6",
  "version": 2,
  "locktime": 0,
  "vin": [
    {
      "txid": "e6c629cbbf8a73e8603b914d5b2fb62c74890f8fbea75d20e08c3dfaae937ad3",
      "vout": 1,
      "prevout": {
        "scriptpubkey": "0014b88774b148225b579a908186d57bbc31b1c4d66e",
        "scriptpubkey_asm": "OP_0 OP_PUSHBYTES_20 b88774b148225b579a908186d57bbc31b1c4d66e",
        "scriptpubkey_type": "v0_p2wpkh",
        "scriptpubkey_address": "bc1qhzrhfv2gyfd40x5ssxrd27auxxcuf4nw0tlvwr",
        "value": 1540624
      },
      "scriptsig": "",
      "scriptsig_asm": "",
      "witness": [
        "3045022100cc1fb0765efbc8612e22bd68a3e9937363cc8c749fb2d24298a870787972fa36022071dd3b3c3e1e088cb41fcf0a269a09eb1d00b0dc1d55737ff987e1cd9c3cf04d01",
        "02fc94fd63fb9de51349d10f07e820390deb4163223a9b20bde2e086bfe291c8ba"
      ],
      "is_coinbase": false,
      "sequence": 4294967295
    }
  ],
  "vout": [
    {
      "scriptpubkey": "0014896b87dd8f9520b1c5f71f50b7903f724dde0932",
      "scriptpubkey_asm": "OP_0 OP_PUSHBYTES_20 896b87dd8f9520b1c5f71f50b7903f724dde0932",
      "scriptpubkey_type": "v0_p2wpkh",
      "scriptpubkey_address": "bc1q394c0hv0j5str30hragt0yplwfxauzfj9ymedj",
      "value": 755148
    },
    {
      "scriptpubkey": "00147940d489e586923a2d0fa5ec55347031fcc98724",
      "scriptpubkey_asm": "OP_0 OP_PUSHBYTES_20 7940d489e586923a2d0fa5ec55347031fcc98724",
      "scriptpubkey_type": "v0_p2wpkh",
      "scriptpubkey_address": "bc1q09qdfz09s6fr5tg05hk92drsx87vnpeygcv6f3",
      "value": 783387
    }
  ],
  "size": 223,
  "weight": 562,
  "fee": 2089,
  "status": {
    "confirmed": true,
    "block_height": 834460,
    "block_hash": "00000000000000000000484a79b643b2524bbce82e5d8a442013fa5b8905ed98",
    "block_time": 1710307468
  },
  "hex": "02000000000101d37a93aefa3d8ce0205da7be8f0f89742cb62f5b4d913b60e8738abfcb29c6e60100000000ffffffff02cc850b0000000000160014896b87dd8f9520b1c5f71f50b7903f724dde09321bf40b00000000001600147940d489e586923a2d0fa5ec55347031fcc9872402483045022100cc1fb0765efbc8612e22bd68a3e9937363cc8c749fb2d24298a870787972fa36022071dd3b3c3e1e088cb41fcf0a269a09eb1d00b0dc1d55737ff987e1cd9c3cf04d012102fc94fd63fb9de51349d10f07e820390deb4163223a9b20bde2e086bfe291c8ba00000000"
}