{
  "txid": "bef93e4811c3f7133825033ace72adb52d34c3e1447ee6c589a813f4c1fd0d4b",
  "version": 2,
  "locktime": 834550,
  "vin": [
    {
      "txid": "cf5b59e4e10ae6bd433666a7a93c31e6794e1dbe84d9821e42315150b7a0ac5a",
      "vout": 6,
      "prevout": {
        "scriptpubkey": "001446277d1437ae1016ec0010121eafc4c01744e114",
        "scriptpubkey_asm": "OP_0 OP_PUSHBYTES_20 46277d1437ae1016ec0010121eafc4c01744e114",
        "scriptpubkey_type": "v0_p2wpkh",
        "scriptpubkey_address": "bc1qgcnh69ph4cgpdmqqzqfpat7ycqt5fcg5nac4y6",
        "value": 79798
      },
      "scriptsig": "",
      "scriptsig_asm": "",
      "witness": [
        "304402202ed687d096d2f689ba08407694aacf7f221d786f1abae898e40172260eab4c8d0220038fa1768d95d9e90f72f8d07323c667328972934c0c4f58ac20c6049ea281f701",
        "025445d17ef1782bbb7463d79e6d9924e696a9af4e69ffcdd61cd8312709aa6e5e"
      ],
      "is_coinbase": false,
      "sequence": 4294967294
    },
    {
      "txid": "226614a42541e2acb76ce4c704375fb4dfba730865a4d7f90b7b71238f48a0d6",
      "vout": 8,
      "prevout": {
        "scriptpubkey": "0014f50b72097b1b67d38f236bc2b41673afbf851091",
        "scriptpubkey_asm": "OP_0 OP_PUSHBYTES_20 f50b72097b1b67d38f236bc2b41673afbf851091",
        "scriptpubkey_type": "v0_p2wpkh",
        "scriptpubkey_address": "bc1q759hyztmrdna8rerd0ptg9nn47lc2yy3ufst0u",
        "value": 197739
      },
      "scriptsig": "",
      "scriptsig_asm": "",
      "witness": [
        "304402206b04ba70513a76b8c784b35b5be829cf63ed81de509f29f97984b425501c552d02205390b7590b15513614e7c7c8388cf64effac341e93ad4fb1d42a4d70bfa10bdc01",
        "03226431adfe3d1fb48a7c3126daf3cb91a7e3023481a9bc6952e4e053bcb52ba6"
      ],
      "is_coinbase": false,
      "sequence": 4294967294
    }
  ],
  "vout": [
    {
      "scriptpubkey": "0014da9ac2f539888912d5c2383c720fb027cff505e7",
      "scriptpubkey_asm": "OP_0 OP_PUSHBYTES_20 da9ac2f539888912d5c2383c720fb027cff505e7",
      "scriptpubkey_type": "v0_p2wpkh",
      "scriptpubkey_address": "bc1qm2dv9afe3zy394wz8q78yrasyl8l2p08nhptnk",
      "value": 273600
    }
  ],
  "size": 339,
  "weight": 708,
  "fee": 3937,
  "status": {
    "confirmed": true,
    "block_height": 834552,
    "block_hash": "00000000000000000001dd0468a70c94f619251d286585cff57aeb4bd9ede330",
    "block_time": 1710355598
  },
  "hex": "020000000001025aaca0b7505131421e82d984be1d4e79e6313ca9a7663643bde60ae1e4595bcf0600000000feffffffd6a0488f23717b0bf9d7a4650873badfb45f3704c7e46cb7ace24125a41466220800000000feffffff01c02c040000000000160014da9ac2f539888912d5c2383c720fb027cff505e70247304402202ed687d096d2f689ba08407694aacf7f221d786f1abae898e40172260eab4c8d0220038fa1768d95d9e90f72f8d07323c667328972934c0c4f58ac20c6049ea281f70121025445d17ef1782bbb7463d79e6d9924e696a9af4e69ffcdd61cd8312709aa6e5e0247304402206b04ba70513a76b8c784b35b5be829cf63ed81de509f29f97984b425501c552d02205390b7590b15513614e7c7c8388cf64effac341e93ad4fb1d42a4d70bfa10bdc012103226431adfe3d1fb48a7c3126daf3cb91a7e3023481a9bc6952e4e053bcb52ba6f6bb0c00"
}