{
  "txid": "bf051b3ea14377e615cfdc1a293df10f9a9b3d131c4b434bdeba2275976a806d",
  "version": 2,
  "locktime": 0,
  "vin": [
    {
      "txid": "96e70fd277117817dc85ec6289c4131dc405ac9c4dd9ce2ab494b4323be02bbd",
      "vout": 2,
      "prevout": {
        "scriptpubkey": "5120455b468f8dd3f5c903d75e21d0136756615b0ab51797832c39350febbc4fd7d4",
        "scriptpubkey_asm": "OP_PUSHNUM_1 OP_PUSHBYTES_32 455b468f8dd3f5c903d75e21d0136756615b0ab51797832c39350febbc4fd7d4",
        "scriptpubkey_type": "v1_p2tr",
        "scriptpubkey_address": "bc1pg4d5drud606ujq7htcsaqym82es4kz44z7tcxtpex587h0z06l2qu0sxh8",
        "value": 546
      },
      "scriptsig": "",
      "scriptsig_asm": "",
      "witness": [
        "c37bc870a16e1eeb558479cb789b277745529630df6382d81df47df1a8f486075a3ba003b191ec82e44306efa8d251ef8e002bc34fe1b19256f920a62e43c8ba"
      ],
      "is_coinbase": false,
      "sequence": 4294967295
    },
    {
      "txid": "f902b7a93649f3e0242b50c8945553229d4ea6b188ffd782e570998d8a787ac2",
      "vout": 1,
      "prevout": {
        "scriptpubkey": "5120455b468f8dd3f5c903d75e21d0136756615b0ab51797832c39350febbc4fd7d4",
        "scriptpubkey_asm": "OP_PUSHNUM_1 OP_PUSHBYTES_32 455b468f8dd3f5c903d75e21d0136756615b0ab51797832c39350febbc4fd7d4",
        "scriptpubkey_type": "v1_p2tr",
        "scriptpubkey_address": "bc1pg4d5drud606ujq7htcsaqym82es4kz44z7tcxtpex587h0z06l2qu0sxh8",
        "value": 280997
      },
      "scriptsig": "",
      "scriptsig_asm": "",
      "witness": [
        "5baa097878b2976afcd0f9db1259223878e2d519de0ecec1efc9a6e83d3d76b348042ef64f6c3a7b91efb0965a3678fc5c409e20acd885350ef9f12167cebf96"
      ],
      "is_coinbase": false,
      "sequence": 4294967295
    }
  ],
  "vout": [
    {
      "scriptpubkey": "5120b44dddcd4b2cd9d0d4ec6ac5db0a07fdb2ba2ac3958735b039a68820879a5d4d",
      "scriptpubkey_asm": "OP_PUSHNUM_1 OP_PUSHBYTES_32 b44dddcd4b2cd9d0d4ec6ac5db0a07fdb2ba2ac3958735b039a68820879a5d4d",
      "scriptpubkey_type": "v1_p2tr",
      "scriptpubkey_address": "bc1pk3xamn2t9nvap48vdtzakzs8lket52krjkrntvpe56yzppu6t4xsj22ppl",
      "value": 546
    },
    {
      "scriptpubkey": "5120455b468f8dd3f5c903d75e21d0136756615b0ab51797832c39350febbc4fd7d4",
      "scriptpubkey_asm": "OP_PUSHNUM_1 OP_PUSHBYTES_32 455b468f8dd3f5c903d75e21d0136756615b0ab51797832c39350febbc4fd7d4",
      "scriptpubkey_type": "v1_p2tr",
      "scriptpubkey_address": "bc1pg4d5drud606ujq7htcsaqym82es4kz44z7tcxtpex587h0z06l2qu0sxh8",
      "value": 278029
    }
  ],
  "size": 312,
  "weight": 846,
  "fee": 2968,
  "status": {
    "confirmed": true,
    "block_height": 834460,
    "block_hash": "00000000000000000000484a79b643b2524bbce82e5d8a442013fa5b8905ed98",
    "block_time": 1710307468
  },
  "hex": "02000000000102bd2be03b32b494b42aced94d9cac05c41d13c48962ec85dc17781177d20fe7960200000000ffffffffc27a788a8d9970e582d7ff88b1a64e9d22535594c8502b24e0f34936a9b702f90100000000ffffffff022202000000000000225120b44dddcd4b2cd9d0d4ec6ac5db0a07fdb2ba2ac3958735b039a68820879a5d4d0d3e040000000000225120455b468f8dd3f5c903d75e21d0136756615b0ab51797832c39350febbc4fd7d40140c37bc870a16e1eeb558479cb789b277745529630df6382d81df47df1a8f486075a3ba003b191ec82e44306efa8d251ef8e002bc34fe1b19256f920a62e43c8ba01405baa097878b2976afcd0f9db1259223878e2d519de0ecec1efc9a6e83d3d76b348042ef64f6c3a7b91efb0965a3678fc5c409e20acd885350ef9f12167cebf9600000000"
}