{
  "txid": "bf0a8a673a9963cfc7e02a016c30f4e642de3e2ff775b15c7e02cb07d0a96ee4",
  "version": 2,
  "locktime": 0,
  "vin": [
    {
      "txid": "b6eba2c06fb6d715989d7dd9ff991ba21a3c66287feeba8c128ae3ba91cc235f",
      "vout": 1,
      "prevout": {
        "scriptpubkey": "0014beadd64407e41edaf413168ccb102536a87a961c",
        "scriptpubkey_asm": "OP_0 OP_PUSHBYTES_20 beadd64407e41edaf413168ccb102536a87a961c",
        "scriptpubkey_type": "v0_p2wpkh",
        "scriptpubkey_address": "bc1qh6kav3q8us0d4aqnz6xvkyp9x65849suvr8z2a",
        "value": 1189250
      },
      "scriptsig": "",
      "scriptsig_asm": "",
      "witness": [
        "3045022100a7c82a577e3cd13e53b1f375c08d61bfb43e9c53c1694c3a730a643028af02fa022031eed7e854f6e044b0ee93bb24fb44551284b8c3b5481be99b7935db2b98c61b01",
        "023a322e3e74595fff28d8ff258bec1e2e506cac918b24470de0bface3c05bbf9f"
      ],
      "is_coinbase": false,
      "sequence": 4294967295
    }
  ],
  "vout": [
    {
      "scriptpubkey": "001481e1d564268dd965e427631271c5d83707f07319",
      "scriptpubkey_asm": "OP_0 OP_PUSHBYTES_20 81e1d564268dd965e427631271c5d83707f07319",
      "scriptpubkey_type": "v0_p2wpkh",
      "scriptpubkey_address": "bc1qs8sa2epx3hvktep8vvf8r3wcxurlqucee5dspr",
      "value": 558271
    },
    {
      "scriptpubkey": "00142358d52086669c9474b28530ffec22862b1e71d9",
      "scriptpubkey_asm": "OP_0 OP_PUSHBYTES_20 2358d52086669c9474b28530ffec22862b1e71d9",
      "scriptpubkey_type": "v0_p2wpkh",
      "scriptpubkey_address": "bc1qydvd2gyxv6wfga9js5c0lmpzsc43uuwe869pyq",
      "value": 628408
    }
  ],
  "size": 223,
  "weight": 562,
  "fee": 2571,
  "status": {
    "confirmed": true,
    "block_height": 834638,
    "block_hash": "000000000000000000025f742c626208ac87e0b7d15054abb4a19ca2d735a54e",
    "block_time": 1710405325
  },
  "hex": "020000000001015f23cc91bae38a128cbaee7f28663c1aa21b99ffd97d9d9815d7b66fc0a2ebb60100000000ffffffff02bf8408000000000016001481e1d564268dd965e427631271c5d83707f07319b8960900000000001600142358d52086669c9474b28530ffec22862b1e71d902483045022100a7c82a577e3cd13e53b1f375c08d61bfb43e9c53c1694c3a730a643028af02fa022031eed7e854f6e044b0ee93bb24fb44551284b8c3b5481be99b7935db2b98c61b0121023a322e3e74595fff28d8ff258bec1e2e506cac918b24470de0bface3c05bbf9f00000000"
}