{
  "txid": "bf308838c2f42c2907c2811f0188749e775541a3f17591cbabb3447b18d09d3b",
  "version": 2,
  "locktime": 0,
  "vin": [
    {
      "txid": "5bc47a3c783468b1b5cdc34c2fae93a31707089dcc4f21398b9e92de65e40d5a",
      "vout": 0,
      "prevout": {
        "scriptpubkey": "a914fea55207660129dcee7eab3a3855a416583245cf87",
        "scriptpubkey_asm": "OP_HASH160 OP_PUSHBYTES_20 fea55207660129dcee7eab3a3855a416583245cf OP_EQUAL",
        "scriptpubkey_type": "p2sh",
        "scriptpubkey_address": "3QuTbw5aPdXcZ3eJ2E34DnebSPgwSC5fbk",
        "value": 1521220
      },
      "scriptsig": "1600143493a35f5ff8a57be485eafb2b72abab0126f965",
      "scriptsig_asm": "OP_PUSHBYTES_22 00143493a35f5ff8a57be485eafb2b72abab0126f965",
      "witness": [
        "3045022100d05810a88910237ebb8dd3458ae19a4f61c8247a637e346a97de1f3ca56404f40220128b645cc253c290296523a93e4d56dcef7fe6c8158b5d9b2b7b0b8e9e45b6fd01",
        "029a44f46b7a21c9c4f6fcf8e170f3465d9abe5a8b3fb445cb639591deca7a0bf0"
      ],
      "is_coinbase": false,
      "sequence": 0,
      "inner_redeemscript_asm": "OP_0 OP_PUSHBYTES_20 3493a35f5ff8a57be485eafb2b72abab0126f965"
    },
    {
      "txid": "e722072d357f85e08b35756b6dcc77fc4db07a93fe193eb700ec01992bf9a304",
      "vout": 0,
      "prevout": {
        "scriptpubkey": "a914e37846bf92a3eb3dfbccd929d66b7c906fce895287",
        "scriptpubkey_asm": "OP_HASH160 OP_PUSHBYTES_20 e37846bf92a3eb3dfbccd929d66b7c906fce8952 OP_EQUAL",
        "scriptpubkey_type": "p2sh",
        "scriptpubkey_address": "3NRmQ37kQdyHqfZcysLC2JqhdJLHAvmAtM",
        "value": 2462455
      },
      "scriptsig": "160014970e983793d29a32c674493ceb11f3f7ba50903a",
      "scriptsig_asm": "OP_PUSHBYTES_22 0014970e983793d29a32c674493ceb11f3f7ba50903a",
      "witness": [
        "3045022100fa59f72db924416d6d6869bc49598bee803057c89ed294fe37729480618cf9ba02206894a98ab428cbc6fbf81e429554c7a44e78cf83451f1c0cb0bdff8fc8c6249b01",
        "030185b6c7a1a75362471f768e11697520c6cfd677f623401b60ccf886d7a03cea"
      ],
      "is_coinbase": false,
      "sequence": 0,
      "inner_redeemscript_asm": "OP_0 OP_PUSHBYTES_20 970e983793d29a32c674493ceb11f3f7ba50903a"
    },
    {
      "txid": "017d656f3464b76b35c6e233b87363240676fcd46889f3b46460a91aa1dd7a79",
      "vout": 2,
      "prevout": {
        "scriptpubkey": "a9140f23af5a7ef2a935856c7ab9271919763674036987",
        "scriptpubkey_asm": "OP_HASH160 OP_PUSHBYTES_20 0f23af5a7ef2a935856c7ab92719197636740369 OP_EQUAL",
        "scriptpubkey_type": "p2sh",
        "scriptpubkey_address": "3354oreEhQ9tjVKxf36GEjujk9vTu4F6xG",
        "value": 1003309
      },
      "scriptsig": "160014fad2ddd1f7b060d9947402dffe8af5451c66f14b",
      "scriptsig_asm": "OP_PUSHBYTES_22 0014fad2ddd1f7b060d9947402dffe8af5451c66f14b",
      "witness": [
        "3045022100fc5004228e793d5fb6a294a51d163e64f3ea7ce52c50296d5690c6a9ca2b3b2c02202b461a88642f5a1f1f0c7686f5f33b3cb29cd5e402dd5d1c35dd4b25a343995f01",
        "03fcbc1d4d3b8a7b5dc2db130ad8a16400dff9e83b9e398a9755f51b6cd77ff939"
      ],
      "is_coinbase": false,
      "sequence": 0,
      "inner_redeemscript_asm": "OP_0 OP_PUSHBYTES_20 fad2ddd1f7b060d9947402dffe8af5451c66f14b"
    },
    {
      "txid": "c7bccde7194ff50d8a4cbefa39c288f6912433c3ea269c30c44aa3d44743fd8b",
      "vout": 30,
      "prevout": {
        "scriptpubkey": "a914a7f21ed872fb24081c816f778c7d4b5347c317eb87",
        "scriptpubkey_asm": "OP_HASH160 OP_PUSHBYTES_20 a7f21ed872fb24081c816f778c7d4b5347c317eb OP_EQUAL",
        "scriptpubkey_type": "p2sh",
        "scriptpubkey_address": "3H12pQW78zoR3eZL5ejbHkM5Z9sXPZR8o8",
        "value": 2777218
      },
      "scriptsig": "1600143e2231db24116f54000b700516d9fe9d2702499c",
      "scriptsig_asm": "OP_PUSHBYTES_22 00143e2231db24116f54000b700516d9fe9d2702499c",
      "witness": [
        "3045022100885941d65fc11cd595cf9d412cba99bfc7c84ac20e0749fb4402916419e348330220697f288a86bf93ebce11cd9e29f0fffec3a557b14c1b1427c4270dc13c84611f01",
        "02f2d8dc8863644674ad69fdbab5a0b1bd2d903a07e9cd7751a9cf7caf6a62431f"
      ],
      "is_coinbase": false,
      "sequence": 0,
      "inner_redeemscript_asm": "OP_0 OP_PUSHBYTES_20 3e2231db24116f54000b700516d9fe9d2702499c"
    },
    {
      "txid": "f8aa9d3fe5184818bf05087105052577631744b706468c9e610e4d7659874bde",
      "vout": 9,
      "prevout": {
        "scriptpubkey": "a91447685811b82c9937c988a50c6aeae6616f97195d87",
        "scriptpubkey_asm": "OP_HASH160 OP_PUSHBYTES_20 47685811b82c9937c988a50c6aeae6616f97195d OP_EQUAL",
        "scriptpubkey_type": "p2sh",
        "scriptpubkey_address": "38Cau7XZWtfvzJUmkHQRqTL2735qNGyhKk",
        "value": 2096334
      },
      "scriptsig": "160014c74b0a76030e5a749c6d3d824e6ea373fb41672b",
      "scriptsig_asm": "OP_PUSHBYTES_22 0014c74b0a76030e5a749c6d3d824e6ea373fb41672b",
      "witness": [
        "3045022100ba4ca92a15e8caf30497a7116dcecd328856425774fd9bc51ccd2efa55747f790220795c4d46d2be00c687cb0089be2f9d5d508f181e72166a853fa75f3d3068360201",
        "02a9d50b701e6150b1b273a9c6176ad7e7a7841d5cf257c87b8435d0f16d6a98e0"
      ],
      "is_coinbase": false,
      "sequence": 0,
      "inner_redeemscript_asm": "OP_0 OP_PUSHBYTES_20 c74b0a76030e5a749c6d3d824e6ea373fb41672b"
    },
    {
      "txid": "5b3d05a8036d2f18f0da439ff5691eeb9307ca3bdf196ec696c465e461ba3458",
      "vout": 1,
      "prevout": {
        "scriptpubkey": "a91432e1c2b2f32e9fe205f1db50e6414550763553e487",
        "scriptpubkey_asm": "OP_HASH160 OP_PUSHBYTES_20 32e1c2b2f32e9fe205f1db50e6414550763553e4 OP_EQUAL",
        "scriptpubkey_type": "p2sh",
        "scriptpubkey_address": "36L4AFcgVP8Qj1Bt1YasyGRS6WQ2Zpw89d",
        "value": 2240824
      },
      "scriptsig": "1600143f19ed71d3af31725b3b6b3f44b8afbee6b7d999",
      "scriptsig_asm": "OP_PUSHBYTES_22 00143f19ed71d3af31725b3b6b3f44b8afbee6b7d999",
      "witness": [
        "304402207d0973c32f6c07703af2cbb49dd61f6ac729fa3e3c3bb02d73111e51da5e95fb02207b812fd64c18d7d329ba563adab8f8d45978586775349b005002fa25deeeb83c01",
        "0220235f90e64dec4d13bf4de7dbf58c41879f9b6f8a172bdd085d76ddd4b8f28a"
      ],
      "is_coinbase": false,
      "sequence": 0,
      "inner_redeemscript_asm": "OP_0 OP_PUSHBYTES_20 3f19ed71d3af31725b3b6b3f44b8afbee6b7d999"
    }
  ],
  "vout": [
    {
      "scriptpubkey": "a9149f506ac9aca6b8150913189344a50ae9c9aa4a5087",
      "scriptpubkey_asm": "OP_HASH160 OP_PUSHBYTES_20 9f506ac9aca6b8150913189344a50ae9c9aa4a50 OP_EQUAL",
      "scriptpubkey_type": "p2sh",
      "scriptpubkey_address": "3GDPhXSSKioQjDnZzGrDG958Bsa9LyGha9",
      "value": 10000000
    },
    {
      "scriptpubkey": "a91460ce89775f46f83a2a0e1450ab3a7f714129ef6387",
      "scriptpubkey_asm": "OP_HASH160 OP_PUSHBYTES_20 60ce89775f46f83a2a0e1450ab3a7f714129ef63 OP_EQUAL",
      "scriptpubkey_type": "p2sh",
      "scriptpubkey_address": "3AWtDQAkTqyZeWm3h3cb6YeASxD1eBS9Ar",
      "value": 2091584
    }
  ],
  "size": 1107,
  "weight": 2481,
  "fee": 9776,
  "status": {
    "confirmed": true,
    "block_height": 834638,
    "block_hash": "000000000000000000025f742c626208ac87e0b7d15054abb4a19ca2d735a54e",
    "block_time": 1710405325
  },
  "hex": "020000000001065a0de465de929e8b39214fcc9d080717a393ae2f4cc3cdb5b16834783c7ac45b00000000171600143493a35f5ff8a57be485eafb2b72abab0126f9650000000004a3f92b9901ec00b73e19fe937ab04dfc77cc6d6b75358be0857f352d0722e70000000017160014970e983793d29a32c674493ceb11f3f7ba50903a00000000797adda11aa96064b4f38968d4fc7606246373b833e2c6356bb764346f657d010200000017160014fad2ddd1f7b060d9947402dffe8af5451c66f14b000000008bfd4347d4a34ac4309c26eac3332491f688c239fabe4c8a0df54f19e7cdbcc71e000000171600143e2231db24116f54000b700516d9fe9d2702499c00000000de4b8759764d0e619e8c4606b744176377250505710805bf184818e53f9daaf80900000017160014c74b0a76030e5a749c6d3d824e6ea373fb41672b000000005834ba61e465c496c66e19df3bca0793eb1e69f59f43daf0182f6d03a8053d5b01000000171600143f19ed71d3af31725b3b6b3f44b8afbee6b7d9990000000002809698000000000017a9149f506ac9aca6b8150913189344a50ae9c9aa4a508740ea1f000000000017a91460ce89775f46f83a2a0e1450ab3a7f714129ef638702483045022100d05810a88910237ebb8dd3458ae19a4f61c8247a637e346a97de1f3ca56404f40220128b645cc253c290296523a93e4d56dcef7fe6c8158b5d9b2b7b0b8e9e45b6fd0121029a44f46b7a21c9c4f6fcf8e170f3465d9abe5a8b3fb445cb639591deca7a0bf002483045022100fa59f72db924416d6d6869bc49598bee803057c89ed294fe37729480618cf9ba02206894a98ab428cbc6fbf81e429554c7a44e78cf83451f1c0cb0bdff8fc8c6249b0121030185b6c7a1a75362471f768e11697520c6cfd677f623401b60ccf886d7a03cea02483045022100fc5004228e793d5fb6a294a51d163e64f3ea7ce52c50296d5690c6a9ca2b3b2c02202b461a88642f5a1f1f0c7686f5f33b3cb29cd5e402dd5d1c35dd4b25a343995f012103fcbc1d4d3b8a7b5dc2db130ad8a16400dff9e83b9e398a9755f51b6cd77ff93902483045022100885941d65fc11cd595cf9d412cba99bfc7c84ac20e0749fb4402916419e348330220697f288a86bf93ebce11cd9e29f0fffec3a557b14c1b1427c4270dc13c84611f012102f2d8dc8863644674ad69fdbab5a0b1bd2d903a07e9cd7751a9cf7caf6a62431f02483045022100ba4ca92a15e8caf30497a7116dcecd328856425774fd9bc51ccd2efa55747f790220795c4d46d2be00c687cb0089be2f9d5d508f181e72166a853fa75f3d30683602012102a9d50b701e6150b1b273a9c6176ad7e7a7841d5cf257c87b8435d0f16d6a98e00247304402207d0973c32f6c07703af2cbb49dd61f6ac729fa3e3c3bb02d73111e51da5e95fb02207b812fd64c18d7d329ba563adab8f8d45978586775349b005002fa25deeeb83c01210220235f90e64dec4d13bf4de7dbf58c41879f9b6f8a172bdd085d76ddd4b8f28a00000000"
}