{
  "txid": "bf3211c48cc464fa446253dfe57624b1d520f99eda607f3bee396acac8181c57",
  "version": 2,
  "locktime": 0,
  "vin": [
    {
      "txid": "5e5313bc4295e7d02f4e828fb8dce3203f2f06018a568304887353b047d64ebc",
      "vout": 3,
      "prevout": {
        "scriptpubkey": "a9149cd03e792c7004be9aa5005d46653f28268416db87",
        "scriptpubkey_asm": "OP_HASH160 OP_PUSHBYTES_20 9cd03e792c7004be9aa5005d46653f28268416db OP_EQUAL",
        "scriptpubkey_type": "p2sh",
        "scriptpubkey_address": "3FzAoX2s7GhrZUZR4WXs1CvTKUGd7Ze6YM",
        "value": 1481980174
      },
      "scriptsig": "004830450221008fe85ff31e00c6d78aed2a44c51a2046ecdb5374bfb3f8445c12d33de11a046702200e4d0a871a996e45e6a7067bb4443b5910948be7fd19c8de57a934c59e88409701483045022100ab42c509bae5cc4cc3a3f63d9852ead5384414fb191286c60af3ea7516ab1bb202207e3a93f8b5a549a7ef5c01ef8f202238d6be0cfef74d057117d79bb876687120014c6952210395f33d5a959556ba6b57298066baf468c2e5ab3cc58ddaf7166f057fae1655a7210246aae217f1102dde12a7e77203f7114de07f0068cfb1a3d825fff4ca2266737621028ace79c534a3b5c482b6cc446ea20d757e88c516ec054ae31c7a47863864904853ae",
      "scriptsig_asm": "OP_0 OP_PUSHBYTES_72 30450221008fe85ff31e00c6d78aed2a44c51a2046ecdb5374bfb3f8445c12d33de11a046702200e4d0a871a996e45e6a7067bb4443b5910948be7fd19c8de57a934c59e88409701 OP_PUSHBYTES_72 3045022100ab42c509bae5cc4cc3a3f63d9852ead5384414fb191286c60af3ea7516ab1bb202207e3a93f8b5a549a7ef5c01ef8f202238d6be0cfef74d057117d79bb87668712001 OP_PUSHDATA1 52210395f33d5a959556ba6b57298066baf468c2e5ab3cc58ddaf7166f057fae1655a7210246aae217f1102dde12a7e77203f7114de07f0068cfb1a3d825fff4ca2266737621028ace79c534a3b5c482b6cc446ea20d757e88c516ec054ae31c7a47863864904853ae",
      "is_coinbase": false,
      "sequence": 4294967295,
      "inner_redeemscript_asm": "OP_PUSHNUM_2 OP_PUSHBYTES_33 0395f33d5a959556ba6b57298066baf468c2e5ab3cc58ddaf7166f057fae1655a7 OP_PUSHBYTES_33 0246aae217f1102dde12a7e77203f7114de07f0068cfb1a3d825fff4ca22667376 OP_PUSHBYTES_33 028ace79c534a3b5c482b6cc446ea20d757e88c516ec054ae31c7a478638649048 OP_PUSHNUM_3 OP_CHECKMULTISIG"
    }
  ],
  "vout": [
    {
      "scriptpubkey": "76a914ffc7b54cc4bcd37e139d6e6d79699451ebf96f8f88ac",
      "scriptpubkey_asm": "OP_DUP OP_HASH160 OP_PUSHBYTES_20 ffc7b54cc4bcd37e139d6e6d79699451ebf96f8f OP_EQUALVERIFY OP_CHECKSIG",
      "scriptpubkey_type": "p2pkh",
      "scriptpubkey_address": "1QKSYtPJJ9wgUMZT4osQctD33HLyCSvp8k",
      "value": 29980000
    },
    {
      "scriptpubkey": "00143d4fae31664be6cabacc5987b99152a115df9049",
      "scriptpubkey_asm": "OP_0 OP_PUSHBYTES_20 3d4fae31664be6cabacc5987b99152a115df9049",
      "scriptpubkey_type": "v0_p2wpkh",
      "scriptpubkey_address": "bc1q8486uvtxf0nv4wkvtxrmny2j5y2alyzfgpu2ca",
      "value": 386785
    },
    {
      "scriptpubkey": "76a914e57eb8ec7007dccb5b5c1432e8c67d85386f251288ac",
      "scriptpubkey_asm": "OP_DUP OP_HASH160 OP_PUSHBYTES_20 e57eb8ec7007dccb5b5c1432e8c67d85386f2512 OP_EQUALVERIFY OP_CHECKSIG",
      "scriptpubkey_type": "p2pkh",
      "scriptpubkey_address": "1MvTYkftwpfsBShdUTs69YQrU2dMmUgph2",
      "value": 1091500
    },
    {
      "scriptpubkey": "a9149cd03e792c7004be9aa5005d46653f28268416db87",
      "scriptpubkey_asm": "OP_HASH160 OP_PUSHBYTES_20 9cd03e792c7004be9aa5005d46653f28268416db OP_EQUAL",
      "scriptpubkey_type": "p2sh",
      "scriptpubkey_address": "3FzAoX2s7GhrZUZR4WXs1CvTKUGd7Ze6YM",
      "value": 1450514018
    }
  ],
  "size": 438,
  "weight": 1752,
  "fee": 7871,
  "status": {
    "confirmed": true,
    "block_height": 834638,
    "block_hash": "000000000000000000025f742c626208ac87e0b7d15054abb4a19ca2d735a54e",
    "block_time": 1710405325
  },
  "hex": "0200000001bc4ed647b05373880483568a01062f3f20e3dcb88f824e2fd0e79542bc13535e03000000fdfe00004830450221008fe85ff31e00c6d78aed2a44c51a2046ecdb5374bfb3f8445c12d33de11a046702200e4d0a871a996e45e6a7067bb4443b5910948be7fd19c8de57a934c59e88409701483045022100ab42c509bae5cc4cc3a3f63d9852ead5384414fb191286c60af3ea7516ab1bb202207e3a93f8b5a549a7ef5c01ef8f202238d6be0cfef74d057117d79bb876687120014c6952210395f33d5a959556ba6b57298066baf468c2e5ab3cc58ddaf7166f057fae1655a7210246aae217f1102dde12a7e77203f7114de07f0068cfb1a3d825fff4ca2266737621028ace79c534a3b5c482b6cc446ea20d757e88c516ec054ae31c7a47863864904853aeffffffff046075c901000000001976a914ffc7b54cc4bcd37e139d6e6d79699451ebf96f8f88ace1e60500000000001600143d4fae31664be6cabacc5987b99152a115df9049aca71000000000001976a914e57eb8ec7007dccb5b5c1432e8c67d85386f251288ac621675560000000017a9149cd03e792c7004be9aa5005d46653f28268416db8700000000"
}