{
  "txid": "bf49aacef6106a24ec60ab7c612369e9368f2a24401bb80db9395686c886b752",
  "version": 2,
  "locktime": 0,
  "vin": [
    {
      "txid": "880a93d550587dd1c6d086366d90a4558ac1cf2a6857602283f4ade14c7a6ca4",
      "vout": 0,
      "prevout": {
        "scriptpubkey": "0014b6e394794b44746ba82cb488c1e0f7a37348d412",
        "scriptpubkey_asm": "OP_0 OP_PUSHBYTES_20 b6e394794b44746ba82cb488c1e0f7a37348d412",
        "scriptpubkey_type": "v0_p2wpkh",
        "scriptpubkey_address": "bc1qkm3eg72tg36xh2pvkjyvrc8h5de534qjg4rjjh",
        "value": 600
      },
      "scriptsig": "",
      "scriptsig_asm": "",
      "witness": [
        "304402200293b2d54d16379388a9d5c9a71e6ab907ef58615b6aebf714b6b109cf4b40160220113cddbf7f27f5c3a6ddaf72470b6999a972d251447c60688030f55c7264805001",
        "02b34ed0f25162672e29331eaa71339805f2826e5a097c763c7b67ed1c67888ab4"
      ],
      "is_coinbase": false,
      "sequence": 4294967295
    },
    {
      "txid": "880a93d550587dd1c6d086366d90a4558ac1cf2a6857602283f4ade14c7a6ca4",
      "vout": 1,
      "prevout": {
        "scriptpubkey": "0014b6e394794b44746ba82cb488c1e0f7a37348d412",
        "scriptpubkey_asm": "OP_0 OP_PUSHBYTES_20 b6e394794b44746ba82cb488c1e0f7a37348d412",
        "scriptpubkey_type": "v0_p2wpkh",
        "scriptpubkey_address": "bc1qkm3eg72tg36xh2pvkjyvrc8h5de534qjg4rjjh",
        "value": 600
      },
      "scriptsig": "",
      "scriptsig_asm": "",
      "witness": [
        "304402203ef92caa2fe79f43d1fd5b50fde4845f364dd5ece4ae28f5b6ff1cf0abac215802207ff107711cc9edefc97e66e2a6a80b005ecd4ab48bc04dc2e188da757e2b326d01",
        "02b34ed0f25162672e29331eaa71339805f2826e5a097c763c7b67ed1c67888ab4"
      ],
      "is_coinbase": false,
      "sequence": 4294967295
    },
    {
      "txid": "880a93d550587dd1c6d086366d90a4558ac1cf2a6857602283f4ade14c7a6ca4",
      "vout": 2,
      "prevout": {
        "scriptpubkey": "0014b6e394794b44746ba82cb488c1e0f7a37348d412",
        "scriptpubkey_asm": "OP_0 OP_PUSHBYTES_20 b6e394794b44746ba82cb488c1e0f7a37348d412",
        "scriptpubkey_type": "v0_p2wpkh",
        "scriptpubkey_address": "bc1qkm3eg72tg36xh2pvkjyvrc8h5de534qjg4rjjh",
        "value": 600
      },
      "scriptsig": "",
      "scriptsig_asm": "",
      "witness": [
        "30440220289279b3a408b1c4203b9c5c4bb9d1fbf16b124cb28c8983fc2834625592ba6e02207cb9237558f86bde1b71f2ec66d578e7a23496e764203397644527a16b05e3ac01",
        "02b34ed0f25162672e29331eaa71339805f2826e5a097c763c7b67ed1c67888ab4"
      ],
      "is_coinbase": false,
      "sequence": 4294967295
    },
    {
      "txid": "880a93d550587dd1c6d086366d90a4558ac1cf2a6857602283f4ade14c7a6ca4",
      "vout": 3,
      "prevout": {
        "scriptpubkey": "0014b6e394794b44746ba82cb488c1e0f7a37348d412",
        "scriptpubkey_asm": "OP_0 OP_PUSHBYTES_20 b6e394794b44746ba82cb488c1e0f7a37348d412",
        "scriptpubkey_type": "v0_p2wpkh",
        "scriptpubkey_address": "bc1qkm3eg72tg36xh2pvkjyvrc8h5de534qjg4rjjh",
        "value": 600
      },
      "scriptsig": "",
      "scriptsig_asm": "",
      "witness": [
        "3044022070a09ff99fde2452c13b07db5bb1c9b7a492edeaa58ef0697a5dcdfb9faa7b9d0220429a7d95fcc40901eb3c9351c8d164d7b4cabe55cec8f0af4d761b929e6fb76901",
        "02b34ed0f25162672e29331eaa71339805f2826e5a097c763c7b67ed1c67888ab4"
      ],
      "is_coinbase": false,
      "sequence": 4294967295
    },
    {
      "txid": "317177650af61ac8b5a23589b26ef198f8a0bb447e27683d07cad44324e05f9a",
      "vout": 0,
      "prevout": {
        "scriptpubkey": "51200b1a7c0287fa5658945d9267451ebc7e7329ee2d322ab210a4dc8116fd1b69eb",
        "scriptpubkey_asm": "OP_PUSHNUM_1 OP_PUSHBYTES_32 0b1a7c0287fa5658945d9267451ebc7e7329ee2d322ab210a4dc8116fd1b69eb",
        "scriptpubkey_type": "v1_p2tr",
        "scriptpubkey_address": "bc1ppvd8cq58lft939zajfn5284u0eejnm3dxg4tyy9ymjq3dlgmd84s49gh5m",
        "value": 10000
      },
      "scriptsig": "",
      "scriptsig_asm": "",
      "witness": [
        "16828caf4a696893bc92fc038e0261f6b8fa94bef04e8c46af1b54867b1b85a7f359a3dfe65896ed17b67ce49c37283d37a6605acf6448aa814cba9db335c89a83"
      ],
      "is_coinbase": false,
      "sequence": 4294967295
    },
    {
      "txid": "775a885aa094d8ae1f567d1b923ca85917526aca8ab16126a4adae44a5e9632f",
      "vout": 0,
      "prevout": {
        "scriptpubkey": "51200b1a7c0287fa5658945d9267451ebc7e7329ee2d322ab210a4dc8116fd1b69eb",
        "scriptpubkey_asm": "OP_PUSHNUM_1 OP_PUSHBYTES_32 0b1a7c0287fa5658945d9267451ebc7e7329ee2d322ab210a4dc8116fd1b69eb",
        "scriptpubkey_type": "v1_p2tr",
        "scriptpubkey_address": "bc1ppvd8cq58lft939zajfn5284u0eejnm3dxg4tyy9ymjq3dlgmd84s49gh5m",
        "value": 10000
      },
      "scriptsig": "",
      "scriptsig_asm": "",
      "witness": [
        "1e45e8ee55405b1bc850c19c85e81a8263814ef9e5a67a23531a044a9d070e4db37bde71a5b3cc9930e7cf7628035a91f6852eff9fba8511a18e5921e76dbda783"
      ],
      "is_coinbase": false,
      "sequence": 4294967295
    },
    {
      "txid": "c3902f19e1c9d9b3c2a15dd2d60da7a4bb0691a9dfea158047ff76dc53118f5c",
      "vout": 0,
      "prevout": {
        "scriptpubkey": "51200b1a7c0287fa5658945d9267451ebc7e7329ee2d322ab210a4dc8116fd1b69eb",
        "scriptpubkey_asm": "OP_PUSHNUM_1 OP_PUSHBYTES_32 0b1a7c0287fa5658945d9267451ebc7e7329ee2d322ab210a4dc8116fd1b69eb",
        "scriptpubkey_type": "v1_p2tr",
        "scriptpubkey_address": "bc1ppvd8cq58lft939zajfn5284u0eejnm3dxg4tyy9ymjq3dlgmd84s49gh5m",
        "value": 10000
      },
      "scriptsig": "",
      "scriptsig_asm": "",
      "witness": [
        "d280cf06a88ca5068716943aecd1ce5797ba98646d0e7580e28ae5ec7579edb62f796e3d70e6afb8dde14055bdd80ef30d3d7b68bdc081399711a873d04c9ed583"
      ],
      "is_coinbase": false,
      "sequence": 4294967295
    },
    {
      "txid": "880a93d550587dd1c6d086366d90a4558ac1cf2a6857602283f4ade14c7a6ca4",
      "vout": 10,
      "prevout": {
        "scriptpubkey": "0014b6e394794b44746ba82cb488c1e0f7a37348d412",
        "scriptpubkey_asm": "OP_0 OP_PUSHBYTES_20 b6e394794b44746ba82cb488c1e0f7a37348d412",
        "scriptpubkey_type": "v0_p2wpkh",
        "scriptpubkey_address": "bc1qkm3eg72tg36xh2pvkjyvrc8h5de534qjg4rjjh",
        "value": 123478
      },
      "scriptsig": "",
      "scriptsig_asm": "",
      "witness": [
        "3045022100a6275b510fa800468209444550b838c69fdbc3000f32b3b6253e33223a95051e02204634b45791c22c1d523c0f3516f2d6e7d7e5245491907f838af7454e943d16f001",
        "02b34ed0f25162672e29331eaa71339805f2826e5a097c763c7b67ed1c67888ab4"
      ],
      "is_coinbase": false,
      "sequence": 4294967295
    }
  ],
  "vout": [
    {
      "scriptpubkey": "0014b6e394794b44746ba82cb488c1e0f7a37348d412",
      "scriptpubkey_asm": "OP_0 OP_PUSHBYTES_20 b6e394794b44746ba82cb488c1e0f7a37348d412",
      "scriptpubkey_type": "v0_p2wpkh",
      "scriptpubkey_address": "bc1qkm3eg72tg36xh2pvkjyvrc8h5de534qjg4rjjh",
      "value": 2400
    },
    {
      "scriptpubkey": "512062acd2ee4e1f4ec82747188da486126a5a6a36e46628906905d90c1933393653",
      "scriptpubkey_asm": "OP_PUSHNUM_1 OP_PUSHBYTES_32 62acd2ee4e1f4ec82747188da486126a5a6a36e46628906905d90c1933393653",
      "scriptpubkey_type": "v1_p2tr",
      "scriptpubkey_address": "bc1pv2kd9mjwra8vsf68rzx6fpsjdfdx5dhyvc5fq6g9myxpjveexefslc4fqx",
      "value": 10000
    },
    {
      "scriptpubkey": "512062acd2ee4e1f4ec82747188da486126a5a6a36e46628906905d90c1933393653",
      "scriptpubkey_asm": "OP_PUSHNUM_1 OP_PUSHBYTES_32 62acd2ee4e1f4ec82747188da486126a5a6a36e46628906905d90c1933393653",
      "scriptpubkey_type": "v1_p2tr",
      "scriptpubkey_address": "bc1pv2kd9mjwra8vsf68rzx6fpsjdfdx5dhyvc5fq6g9myxpjveexefslc4fqx",
      "value": 10000
    },
    {
      "scriptpubkey": "512062acd2ee4e1f4ec82747188da486126a5a6a36e46628906905d90c1933393653",
      "scriptpubkey_asm": "OP_PUSHNUM_1 OP_PUSHBYTES_32 62acd2ee4e1f4ec82747188da486126a5a6a36e46628906905d90c1933393653",
      "scriptpubkey_type": "v1_p2tr",
      "scriptpubkey_address": "bc1pv2kd9mjwra8vsf68rzx6fpsjdfdx5dhyvc5fq6g9myxpjveexefslc4fqx",
      "value": 10000
    },
    {
      "scriptpubkey": "51200b1a7c0287fa5658945d9267451ebc7e7329ee2d322ab210a4dc8116fd1b69eb",
      "scriptpubkey_asm": "OP_PUSHNUM_1 OP_PUSHBYTES_32 0b1a7c0287fa5658945d9267451ebc7e7329ee2d322ab210a4dc8116fd1b69eb",
      "scriptpubkey_type": "v1_p2tr",
      "scriptpubkey_address": "bc1ppvd8cq58lft939zajfn5284u0eejnm3dxg4tyy9ymjq3dlgmd84s49gh5m",
      "value": 11493
    },
    {
      "scriptpubkey": "51200b1a7c0287fa5658945d9267451ebc7e7329ee2d322ab210a4dc8116fd1b69eb",
      "scriptpubkey_asm": "OP_PUSHNUM_1 OP_PUSHBYTES_32 0b1a7c0287fa5658945d9267451ebc7e7329ee2d322ab210a4dc8116fd1b69eb",
      "scriptpubkey_type": "v1_p2tr",
      "scriptpubkey_address": "bc1ppvd8cq58lft939zajfn5284u0eejnm3dxg4tyy9ymjq3dlgmd84s49gh5m",
      "value": 11493
    },
    {
      "scriptpubkey": "51200b1a7c0287fa5658945d9267451ebc7e7329ee2d322ab210a4dc8116fd1b69eb",
      "scriptpubkey_asm": "OP_PUSHNUM_1 OP_PUSHBYTES_32 0b1a7c0287fa5658945d9267451ebc7e7329ee2d322ab210a4dc8116fd1b69eb",
      "scriptpubkey_type": "v1_p2tr",
      "scriptpubkey_address": "bc1ppvd8cq58lft939zajfn5284u0eejnm3dxg4tyy9ymjq3dlgmd84s49gh5m",
      "value": 11493
    },
    {
      "scriptpubkey": "a914ea6b832a05c6ca578baa3836f3f25553d41068a587",
      "scriptpubkey_asm": "OP_HASH160 OP_PUSHBYTES_20 ea6b832a05c6ca578baa3836f3f25553d41068a5 OP_EQUAL",
      "scriptpubkey_type": "p2sh",
      "scriptpubkey_address": "3P4WqXDbSLRhzo2H6MT6YFbvBKBDPLbVtQ",
      "value": 580
    },
    {
      "scriptpubkey": "0014b6e394794b44746ba82cb488c1e0f7a37348d412",
      "scriptpubkey_asm": "OP_0 OP_PUSHBYTES_20 b6e394794b44746ba82cb488c1e0f7a37348d412",
      "scriptpubkey_type": "v0_p2wpkh",
      "scriptpubkey_address": "bc1qkm3eg72tg36xh2pvkjyvrc8h5de534qjg4rjjh",
      "value": 600
    },
    {
      "scriptpubkey": "0014b6e394794b44746ba82cb488c1e0f7a37348d412",
      "scriptpubkey_asm": "OP_0 OP_PUSHBYTES_20 b6e394794b44746ba82cb488c1e0f7a37348d412",
      "scriptpubkey_type": "v0_p2wpkh",
      "scriptpubkey_address": "bc1qkm3eg72tg36xh2pvkjyvrc8h5de534qjg4rjjh",
      "value": 600
    },
    {
      "scriptpubkey": "0014b6e394794b44746ba82cb488c1e0f7a37348d412",
      "scriptpubkey_asm": "OP_0 OP_PUSHBYTES_20 b6e394794b44746ba82cb488c1e0f7a37348d412",
      "scriptpubkey_type": "v0_p2wpkh",
      "scriptpubkey_address": "bc1qkm3eg72tg36xh2pvkjyvrc8h5de534qjg4rjjh",
      "value": 600
    },
    {
      "scriptpubkey": "0014b6e394794b44746ba82cb488c1e0f7a37348d412",
      "scriptpubkey_asm": "OP_0 OP_PUSHBYTES_20 b6e394794b44746ba82cb488c1e0f7a37348d412",
      "scriptpubkey_type": "v0_p2wpkh",
      "scriptpubkey_address": "bc1qkm3eg72tg36xh2pvkjyvrc8h5de534qjg4rjjh",
      "value": 600
    },
    {
      "scriptpubkey": "0014b6e394794b44746ba82cb488c1e0f7a37348d412",
      "scriptpubkey_asm": "OP_0 OP_PUSHBYTES_20 b6e394794b44746ba82cb488c1e0f7a37348d412",
      "scriptpubkey_type": "v0_p2wpkh",
      "scriptpubkey_address": "bc1qkm3eg72tg36xh2pvkjyvrc8h5de534qjg4rjjh",
      "value": 71004
    }
  ],
  "size": 1553,
  "weight": 3995,
  "fee": 15015,
  "status": {
    "confirmed": true,
    "block_height": 834638,
    "block_hash": "000000000000000000025f742c626208ac87e0b7d15054abb4a19ca2d735a54e",
    "block_time": 1710405325
  },
  "hex": "02000000000108a46c7a4ce1adf483226057682acfc18a55a4906d3686d0c6d17d5850d5930a880000000000ffffffffa46c7a4ce1adf483226057682acfc18a55a4906d3686d0c6d17d5850d5930a880100000000ffffffffa46c7a4ce1adf483226057682acfc18a55a4906d3686d0c6d17d5850d5930a880200000000ffffffffa46c7a4ce1adf483226057682acfc18a55a4906d3686d0c6d17d5850d5930a880300000000ffffffff9a5fe02443d4ca073d68277e44bba0f898f16eb28935a2b5c81af60a657771310000000000ffffffff2f63e9a544aeada42661b18aca6a521759a83c921b7d561faed894a05a885a770000000000ffffffff5c8f1153dc76ff478015eadfa99106bba4a70dd6d25da1c2b3d9c9e1192f90c30000000000ffffffffa46c7a4ce1adf483226057682acfc18a55a4906d3686d0c6d17d5850d5930a880a00000000ffffffff0d6009000000000000160014b6e394794b44746ba82cb488c1e0f7a37348d412102700000000000022512062acd2ee4e1f4ec82747188da486126a5a6a36e46628906905d90c1933393653102700000000000022512062acd2ee4e1f4ec82747188da486126a5a6a36e46628906905d90c1933393653102700000000000022512062acd2ee4e1f4ec82747188da486126a5a6a36e46628906905d90c1933393653e52c0000000000002251200b1a7c0287fa5658945d9267451ebc7e7329ee2d322ab210a4dc8116fd1b69ebe52c0000000000002251200b1a7c0287fa5658945d9267451ebc7e7329ee2d322ab210a4dc8116fd1b69ebe52c0000000000002251200b1a7c0287fa5658945d9267451ebc7e7329ee2d322ab210a4dc8116fd1b69eb440200000000000017a914ea6b832a05c6ca578baa3836f3f25553d41068a5875802000000000000160014b6e394794b44746ba82cb488c1e0f7a37348d4125802000000000000160014b6e394794b44746ba82cb488c1e0f7a37348d4125802000000000000160014b6e394794b44746ba82cb488c1e0f7a37348d4125802000000000000160014b6e394794b44746ba82cb488c1e0f7a37348d4125c15010000000000160014b6e394794b44746ba82cb488c1e0f7a37348d4120247304402200293b2d54d16379388a9d5c9a71e6ab907ef58615b6aebf714b6b109cf4b40160220113cddbf7f27f5c3a6ddaf72470b6999a972d251447c60688030f55c72648050012102b34ed0f25162672e29331eaa71339805f2826e5a097c763c7b67ed1c67888ab40247304402203ef92caa2fe79f43d1fd5b50fde4845f364dd5ece4ae28f5b6ff1cf0abac215802207ff107711cc9edefc97e66e2a6a80b005ecd4ab48bc04dc2e188da757e2b326d012102b34ed0f25162672e29331eaa71339805f2826e5a097c763c7b67ed1c67888ab4024730440220289279b3a408b1c4203b9c5c4bb9d1fbf16b124cb28c8983fc2834625592ba6e02207cb9237558f86bde1b71f2ec66d578e7a23496e764203397644527a16b05e3ac012102b34ed0f25162672e29331eaa71339805f2826e5a097c763c7b67ed1c67888ab402473044022070a09ff99fde2452c13b07db5bb1c9b7a492edeaa58ef0697a5dcdfb9faa7b9d0220429a7d95fcc40901eb3c9351c8d164d7b4cabe55cec8f0af4d761b929e6fb769012102b34ed0f25162672e29331eaa71339805f2826e5a097c763c7b67ed1c67888ab4014116828caf4a696893bc92fc038e0261f6b8fa94bef04e8c46af1b54867b1b85a7f359a3dfe65896ed17b67ce49c37283d37a6605acf6448aa814cba9db335c89a8301411e45e8ee55405b1bc850c19c85e81a8263814ef9e5a67a23531a044a9d070e4db37bde71a5b3cc9930e7cf7628035a91f6852eff9fba8511a18e5921e76dbda7830141d280cf06a88ca5068716943aecd1ce5797ba98646d0e7580e28ae5ec7579edb62f796e3d70e6afb8dde14055bdd80ef30d3d7b68bdc081399711a873d04c9ed58302483045022100a6275b510fa800468209444550b838c69fdbc3000f32b3b6253e33223a95051e02204634b45791c22c1d523c0f3516f2d6e7d7e5245491907f838af7454e943d16f0012102b34ed0f25162672e29331eaa71339805f2826e5a097c763c7b67ed1c67888ab400000000"
}