{
  "txid": "bf53da6f31276953d47112e455ea156979e109a5136be8ccc0ed8efc885c4bfc",
  "version": 2,
  "locktime": 0,
  "vin": [
    {
      "txid": "c95c6d2cb55503a2726704f4370747bb219f9faaf1288037bd4fde00903b8532",
      "vout": 0,
      "prevout": {
        "scriptpubkey": "51205efecf3e2ba05346adf737ce057d5ec7ed35dc13962dc63b376d590b29e4c8c8",
        "scriptpubkey_asm": "OP_PUSHNUM_1 OP_PUSHBYTES_32 5efecf3e2ba05346adf737ce057d5ec7ed35dc13962dc63b376d590b29e4c8c8",
        "scriptpubkey_type": "v1_p2tr",
        "scriptpubkey_address": "bc1ptmlv703t5pf5dt0hxl8q2l27clknthqnjckuvwehd4vsk20yeryqa5u5jq",
        "value": 546
      },
      "scriptsig": "",
      "scriptsig_asm": "",
      "witness": [
        "56272f823fda70319fa4120c5b1373da02a48ea1fb7095057192e4a93f63d053d058fae295b240b4dd2050155f6b6f136f4565f4c908ebb94f96e98514998cc6"
      ],
      "is_coinbase": false,
      "sequence": 2147483649
    },
    {
      "txid": "f56dba7f5106be46e84e559e1b0f833b5ac969df904c22c5eb493fdb3f06ac07",
      "vout": 1,
      "prevout": {
        "scriptpubkey": "51205efecf3e2ba05346adf737ce057d5ec7ed35dc13962dc63b376d590b29e4c8c8",
        "scriptpubkey_asm": "OP_PUSHNUM_1 OP_PUSHBYTES_32 5efecf3e2ba05346adf737ce057d5ec7ed35dc13962dc63b376d590b29e4c8c8",
        "scriptpubkey_type": "v1_p2tr",
        "scriptpubkey_address": "bc1ptmlv703t5pf5dt0hxl8q2l27clknthqnjckuvwehd4vsk20yeryqa5u5jq",
        "value": 4494
      },
      "scriptsig": "",
      "scriptsig_asm": "",
      "witness": [
        "a801b9f048a4d4b42cae0e41d18b745916209b408ff509fb3d9f44dfdae6ff80f8833e944fad57825bd4560ab8082876c26051f46bcc0f15c357931674f03da0"
      ],
      "is_coinbase": false,
      "sequence": 2147483649
    }
  ],
  "vout": [
    {
      "scriptpubkey": "512050d563eb17df2b4827c77921f9ba83f2a8eac7308a658fcfc97e7064be4ef374",
      "scriptpubkey_asm": "OP_PUSHNUM_1 OP_PUSHBYTES_32 50d563eb17df2b4827c77921f9ba83f2a8eac7308a658fcfc97e7064be4ef374",
      "scriptpubkey_type": "v1_p2tr",
      "scriptpubkey_address": "bc1p2r2k86chmu45sf780yslnw5r725w43es3fjcln7f0ecxf0jw7d6q93z5gn",
      "value": 546
    },
    {
      "scriptpubkey": "51205efecf3e2ba05346adf737ce057d5ec7ed35dc13962dc63b376d590b29e4c8c8",
      "scriptpubkey_asm": "OP_PUSHNUM_1 OP_PUSHBYTES_32 5efecf3e2ba05346adf737ce057d5ec7ed35dc13962dc63b376d590b29e4c8c8",
      "scriptpubkey_type": "v1_p2tr",
      "scriptpubkey_address": "bc1ptmlv703t5pf5dt0hxl8q2l27clknthqnjckuvwehd4vsk20yeryqa5u5jq",
      "value": 1118
    }
  ],
  "size": 312,
  "weight": 846,
  "fee": 3376,
  "status": {
    "confirmed": true,
    "block_height": 834552,
    "block_hash": "00000000000000000001dd0468a70c94f619251d286585cff57aeb4bd9ede330",
    "block_time": 1710355598
  },
  "hex": "0200000000010232853b9000de4fbd378028f1aa9f9f21bb470737f4046772a20355b52c6d5cc900000000000100008007ac063fdb3f49ebc5224c90df69c95a3b830f1b9e554ee846be06517fba6df501000000000100008002220200000000000022512050d563eb17df2b4827c77921f9ba83f2a8eac7308a658fcfc97e7064be4ef3745e040000000000002251205efecf3e2ba05346adf737ce057d5ec7ed35dc13962dc63b376d590b29e4c8c8014056272f823fda70319fa4120c5b1373da02a48ea1fb7095057192e4a93f63d053d058fae295b240b4dd2050155f6b6f136f4565f4c908ebb94f96e98514998cc60140a801b9f048a4d4b42cae0e41d18b745916209b408ff509fb3d9f44dfdae6ff80f8833e944fad57825bd4560ab8082876c26051f46bcc0f15c357931674f03da000000000"
}