{
  "txid": "bf5c65cee6fa18358d378acbd848197b59caace9fac024a19b5bffd61b82d022",
  "version": 1,
  "locktime": 0,
  "vin": [
    {
      "txid": "c37cf47b89ac4c31e23d44468acb5f632d85634c2070f671faa242d64b770923",
      "vout": 1,
      "prevout": {
        "scriptpubkey": "76a91425bab9d2a1e5c188ef7e6219904984fe16951f6c88ac",
        "scriptpubkey_asm": "OP_DUP OP_HASH160 OP_PUSHBYTES_20 25bab9d2a1e5c188ef7e6219904984fe16951f6c OP_EQUALVERIFY OP_CHECKSIG",
        "scriptpubkey_type": "p2pkh",
        "scriptpubkey_address": "14SVh3Eys8JN4FG8FjsJG2qzuA2bsPY29n",
        "value": 2289326173
      },
      "scriptsig": "4830450221009eb05e52c05023c4239806f6ad4bf5595e6d81fee329e3794f38259170e4d8b302200a1f7174be46c657dab0449ecaa9002a4480a7ba6bef26492e2990e6426fe55a0121026e9a6cf3ae45ee0d0e1fa75e36471c7b9f1909b8b8e4ecf27bd9b8e207f21d74",
      "scriptsig_asm": "OP_PUSHBYTES_72 30450221009eb05e52c05023c4239806f6ad4bf5595e6d81fee329e3794f38259170e4d8b302200a1f7174be46c657dab0449ecaa9002a4480a7ba6bef26492e2990e6426fe55a01 OP_PUSHBYTES_33 026e9a6cf3ae45ee0d0e1fa75e36471c7b9f1909b8b8e4ecf27bd9b8e207f21d74",
      "is_coinbase": false,
      "sequence": 4294967295
    }
  ],
  "vout": [
    {
      "scriptpubkey": "a914c3d990d1fdf5df4a700b825ff72428b85a0aba4f87",
      "scriptpubkey_asm": "OP_HASH160 OP_PUSHBYTES_20 c3d990d1fdf5df4a700b825ff72428b85a0aba4f OP_EQUAL",
      "scriptpubkey_type": "p2sh",
      "scriptpubkey_address": "3KYaKgSZcA2uaAY3tLqnghEjL9oSL2Fauo",
      "value": 50000000
    },
    {
      "scriptpubkey": "76a9146c972605f344036125927a3e848c7a64dd679b7088ac",
      "scriptpubkey_asm": "OP_DUP OP_HASH160 OP_PUSHBYTES_20 6c972605f344036125927a3e848c7a64dd679b70 OP_EQUALVERIFY OP_CHECKSIG",
      "scriptpubkey_type": "p2pkh",
      "scriptpubkey_address": "1AuB3hgzX5yVLRFWdTqiQNf3jFM4DmLwCK",
      "value": 2239322813
    }
  ],
  "size": 224,
  "weight": 896,
  "fee": 3360,
  "status": {
    "confirmed": true,
    "block_height": 834460,
    "block_hash": "00000000000000000000484a79b643b2524bbce82e5d8a442013fa5b8905ed98",
    "block_time": 1710307468
  },
  "hex": "01000000012309774bd642a2fa71f670204c63852d635fcb8a46443de2314cac897bf47cc3010000006b4830450221009eb05e52c05023c4239806f6ad4bf5595e6d81fee329e3794f38259170e4d8b302200a1f7174be46c657dab0449ecaa9002a4480a7ba6bef26492e2990e6426fe55a0121026e9a6cf3ae45ee0d0e1fa75e36471c7b9f1909b8b8e4ecf27bd9b8e207f21d74ffffffff0280f0fa020000000017a914c3d990d1fdf5df4a700b825ff72428b85a0aba4f87bd5a7985000000001976a9146c972605f344036125927a3e848c7a64dd679b7088ac00000000"
}