{
  "txid": "bf83bf172395f3c95009fe319fb028630a7d0905b47fa2f7c8794fd32a6443cb",
  "version": 1,
  "locktime": 0,
  "vin": [
    {
      "txid": "0c5a54123f8abba49185c17fa8c48596998cd5767e37fa5cb7c69766fca0a056",
      "vout": 25,
      "prevout": {
        "scriptpubkey": "a914afb5676cc5e35befc0c345fa086e1a14c279cfcd87",
        "scriptpubkey_asm": "OP_HASH160 OP_PUSHBYTES_20 afb5676cc5e35befc0c345fa086e1a14c279cfcd OP_EQUAL",
        "scriptpubkey_type": "p2sh",
        "scriptpubkey_address": "3Hi5VHVgmYZYfAPc9aNvQoNXyEv5rYvJQN",
        "value": 3810000000
      },
      "scriptsig": "220020bcefa2fec1df12f2033fca8a58385ed501ef82064a3ca6cac1e8dfe23bf1d4ec",
      "scriptsig_asm": "OP_PUSHBYTES_34 0020bcefa2fec1df12f2033fca8a58385ed501ef82064a3ca6cac1e8dfe23bf1d4ec",
      "witness": [
        "",
        "304402203e2293e31e1c5085e10f28fd2942e7cf982337061aa1e574e8cf30e4bd49a1f702204f05198cb5450ce08dbcaa2e77d3ae2ec79c3d89942ce8703034d0697a06428801",
        "30440220568e7da6f0ab448c447e9cffb8333b43de4509362883cce45b12701783f2365e02203930f83c7ebd55fa7ff12519cf1c6534638b53c30121e0687099c7e00332183401",
        "522103a373788db009094ac6009f748e5c47865ff99953f62611ccb8469d0d2fb12d202102f14b40e0d1fda2a873edd5903116a76f5f75500b58a867f539ad7387cfaddb6421025dbf42e5932b6f42f90035edce1d238ef0d934ddf440692f6db2e5d9d46c12d753ae"
      ],
      "is_coinbase": false,
      "sequence": 4294967293,
      "inner_redeemscript_asm": "OP_0 OP_PUSHBYTES_32 bcefa2fec1df12f2033fca8a58385ed501ef82064a3ca6cac1e8dfe23bf1d4ec",
      "inner_witnessscript_asm": "OP_PUSHNUM_2 OP_PUSHBYTES_33 03a373788db009094ac6009f748e5c47865ff99953f62611ccb8469d0d2fb12d20 OP_PUSHBYTES_33 02f14b40e0d1fda2a873edd5903116a76f5f75500b58a867f539ad7387cfaddb64 OP_PUSHBYTES_33 025dbf42e5932b6f42f90035edce1d238ef0d934ddf440692f6db2e5d9d46c12d7 OP_PUSHNUM_3 OP_CHECKMULTISIG"
    },
    {
      "txid": "52bc8fc7f2cfc75af737d029e9167bdbb4c440c42bed9d315c3665a6372f6dcd",
      "vout": 0,
      "prevout": {
        "scriptpubkey": "a9147c3ebd503ff6ecdbaaaab7c912bed45031405e6187",
        "scriptpubkey_asm": "OP_HASH160 OP_PUSHBYTES_20 7c3ebd503ff6ecdbaaaab7c912bed45031405e61 OP_EQUAL",
        "scriptpubkey_type": "p2sh",
        "scriptpubkey_address": "3D1xsYjkitAQR3MmgP5xyvs3vKNSiu7vot",
        "value": 1200000000
      },
      "scriptsig": "220020a0a4d480ea5089db7ebffd830c1344ede1d01fdcfeb50de9fcbed16cb5ce1da5",
      "scriptsig_asm": "OP_PUSHBYTES_34 0020a0a4d480ea5089db7ebffd830c1344ede1d01fdcfeb50de9fcbed16cb5ce1da5",
      "witness": [
        "",
        "304402203c3d1a1f12aaf50556808ef825ba30ff871f104357e688c08fac6eb7fc4af0a702201ce859ec0e8998232cd60ec22bab004bdd6df61114a42435e9ee8243bfb3e1ef01",
        "3044022050fd2b54b49debd17db522e7519936cbc591fde3f1d54fced93d68180cedc2d80220222707eb18c6a48bdbf48726e537924e9ba04986e50221017bd0b75310eb765701",
        "522102fc827ae54949b0c4333a829673b03f276161815953a50aa1538590dae55d58892102f677182e9cc582f8e5f4ed4da9f6fd539f6faba60706479ff6e599ece803d3712102abc9f3cafcd84d2dc6d8cf0cddb09194d9d6ca74705be3f85e7bab049a08fe1453ae"
      ],
      "is_coinbase": false,
      "sequence": 4294967293,
      "inner_redeemscript_asm": "OP_0 OP_PUSHBYTES_32 a0a4d480ea5089db7ebffd830c1344ede1d01fdcfeb50de9fcbed16cb5ce1da5",
      "inner_witnessscript_asm": "OP_PUSHNUM_2 OP_PUSHBYTES_33 02fc827ae54949b0c4333a829673b03f276161815953a50aa1538590dae55d5889 OP_PUSHBYTES_33 02f677182e9cc582f8e5f4ed4da9f6fd539f6faba60706479ff6e599ece803d371 OP_PUSHBYTES_33 02abc9f3cafcd84d2dc6d8cf0cddb09194d9d6ca74705be3f85e7bab049a08fe14 OP_PUSHNUM_3 OP_CHECKMULTISIG"
    },
    {
      "txid": "6a9cde07cb38e4cbe76b07627899429d5a7e385364c9628f997166f05fcad6e9",
      "vout": 11,
      "prevout": {
        "scriptpubkey": "0020d33df802436bb9e8d7f38cef4044f0a3f46d23ca2eade3668b2cb62488278752",
        "scriptpubkey_asm": "OP_0 OP_PUSHBYTES_32 d33df802436bb9e8d7f38cef4044f0a3f46d23ca2eade3668b2cb62488278752",
        "scriptpubkey_type": "v0_p2wsh",
        "scriptpubkey_address": "bc1q6v7lsqjrdwu734ln3nh5q38s506x6g7296k7xe5t9jmzfzp8safqyrd50v",
        "value": 186817197
      },
      "scriptsig": "",
      "scriptsig_asm": "",
      "witness": [
        "",
        "30440220031cb5e48c4c15def6970ddf64dd3f30ecfe7634ed66f5ebad47d9f36eaac52f02207598946a7a516ec0765ff67c4b03eb2200c219190234c92eaff2c24bba84222c01",
        "304402201d01f9e7d99bac50d329c3887c9942306f9d38ffa2b86b8b457653d55b684d9b022033ff35756f63be5ba749921a964f0c791eb03bd3464aee0609e271ede7a2e79f01",
        "522102aa4b96e156f0a1ed67b8f3ac1e1231f1ceb2f8d4c2a9ff016dd8964ae2bb79c62102534d6f1617707a28e753f7c2061d866f86ee1279f67f498d1898a49bba82d501210315a7990ad643eb12ff8e32e75081554df4c0782020d1a4f3bf51af68ac7fda0253ae"
      ],
      "is_coinbase": false,
      "sequence": 4294967293,
      "inner_witnessscript_asm": "OP_PUSHNUM_2 OP_PUSHBYTES_33 02aa4b96e156f0a1ed67b8f3ac1e1231f1ceb2f8d4c2a9ff016dd8964ae2bb79c6 OP_PUSHBYTES_33 02534d6f1617707a28e753f7c2061d866f86ee1279f67f498d1898a49bba82d501 OP_PUSHBYTES_33 0315a7990ad643eb12ff8e32e75081554df4c0782020d1a4f3bf51af68ac7fda02 OP_PUSHNUM_3 OP_CHECKMULTISIG"
    },
    {
      "txid": "9e3abfdce0e2b0ff1d7e6b6d4e05b91c3f598a8839d9ffa909b6b59d99b2431e",
      "vout": 12,
      "prevout": {
        "scriptpubkey": "002099717b6728de4c7482a5006bf79ea3eff5ccde27b6fe13357e45f87567f10c14",
        "scriptpubkey_asm": "OP_0 OP_PUSHBYTES_32 99717b6728de4c7482a5006bf79ea3eff5ccde27b6fe13357e45f87567f10c14",
        "scriptpubkey_type": "v0_p2wsh",
        "scriptpubkey_address": "bc1qn9chkeegmex8fq49qp4l084ral6ueh38kmlpxdt7ghu82el3ps2qug5xf9",
        "value": 325946438
      },
      "scriptsig": "",
      "scriptsig_asm": "",
      "witness": [
        "",
        "3045022100e36e02a50f62741b40e968c51098528f1199bee112586d19d3097590f632d8e1022061c9c62162988fc1266071e5946621df43f8558dc828189f8074e995b1b674d401",
        "304402200db8873fd46e0cc2abea37514bf01e5b7084209d94dfba9bfd4b5e4a2820537b022007b8672f3320b58d5ed6d0be98b6ffb16489c122dc3c976666747b019c55806b01",
        "5221029f960e3147f8d52f1f3173fd3fd9708122b8600e658fd4a6a04784fdffea129a2103dc08c827fda1cb3ce0468338f6f04ccbc0c941388933f8b42cf5751b06e7b29721031df34c4fea2ae638fea95906615f665daa99290b1563790f439fa8e37f2ddfd653ae"
      ],
      "is_coinbase": false,
      "sequence": 4294967293,
      "inner_witnessscript_asm": "OP_PUSHNUM_2 OP_PUSHBYTES_33 029f960e3147f8d52f1f3173fd3fd9708122b8600e658fd4a6a04784fdffea129a OP_PUSHBYTES_33 03dc08c827fda1cb3ce0468338f6f04ccbc0c941388933f8b42cf5751b06e7b297 OP_PUSHBYTES_33 031df34c4fea2ae638fea95906615f665daa99290b1563790f439fa8e37f2ddfd6 OP_PUSHNUM_3 OP_CHECKMULTISIG"
    },
    {
      "txid": "9e3abfdce0e2b0ff1d7e6b6d4e05b91c3f598a8839d9ffa909b6b59d99b2431e",
      "vout": 13,
      "prevout": {
        "scriptpubkey": "0020bf1bfcdd227921fa5fd97d3e07b538a0fd6777abaf5472461659f9c74580c384",
        "scriptpubkey_asm": "OP_0 OP_PUSHBYTES_32 bf1bfcdd227921fa5fd97d3e07b538a0fd6777abaf5472461659f9c74580c384",
        "scriptpubkey_type": "v0_p2wsh",
        "scriptpubkey_address": "bc1qhudlehfz0ysl5h7e05lq0dfc5r7kwaat4a28y3skt8uuw3vqcwzqx9k9a3",
        "value": 639892073
      },
      "scriptsig": "",
      "scriptsig_asm": "",
      "witness": [
        "",
        "304402206684be350358e13b71848e2fc6f753aedade6e382ef8986331a694a98ff4e5b102200530719089953d5a3ad6736138e8896202b490569238ffba3a454c429308fb7a01",
        "30440220545afd208880150c1751f107488c2b9f07536dde8f69095d44b58d2e69396057022020f1a7780c3935f490bfbacee077c9578db196ec0e96e666a9fb5974fe0ee3d201",
        "522102c66538b1de73288a1d39dc494d49cf995daf14de6ca20ac10916794863ec5d9b210331a7b0a7c9204eebded56ec1a9534529a6d71ca658ef0bffc90b274099cccf722103e4ad41ea5f560250c6638ecc06f303682f0d24eb42ace37d459f98c3aaff934b53ae"
      ],
      "is_coinbase": false,
      "sequence": 4294967293,
      "inner_witnessscript_asm": "OP_PUSHNUM_2 OP_PUSHBYTES_33 02c66538b1de73288a1d39dc494d49cf995daf14de6ca20ac10916794863ec5d9b OP_PUSHBYTES_33 0331a7b0a7c9204eebded56ec1a9534529a6d71ca658ef0bffc90b274099cccf72 OP_PUSHBYTES_33 03e4ad41ea5f560250c6638ecc06f303682f0d24eb42ace37d459f98c3aaff934b OP_PUSHNUM_3 OP_CHECKMULTISIG"
    },
    {
      "txid": "a1e0aab7ed678d4e362f9395768c23101c9e31d0b9e6949d799a7208c0705bd6",
      "vout": 0,
      "prevout": {
        "scriptpubkey": "a914afb5676cc5e35befc0c345fa086e1a14c279cfcd87",
        "scriptpubkey_asm": "OP_HASH160 OP_PUSHBYTES_20 afb5676cc5e35befc0c345fa086e1a14c279cfcd OP_EQUAL",
        "scriptpubkey_type": "p2sh",
        "scriptpubkey_address": "3Hi5VHVgmYZYfAPc9aNvQoNXyEv5rYvJQN",
        "value": 4500000000
      },
      "scriptsig": "220020bcefa2fec1df12f2033fca8a58385ed501ef82064a3ca6cac1e8dfe23bf1d4ec",
      "scriptsig_asm": "OP_PUSHBYTES_34 0020bcefa2fec1df12f2033fca8a58385ed501ef82064a3ca6cac1e8dfe23bf1d4ec",
      "witness": [
        "",
        "3045022100fadc6213b8b180bf0c52cc40f7f2ab6a63f8a28bcced81b83ceae2c9fcd67ef902203ec19a4ce81e61bf4dcc5c9ab932fa8bab04202e8580508106bafbfbccc31f7f01",
        "304402203d5f0520c4b65558ce41247730a1b933e6c775c97913903548fed1dfe1992b2f022048280da865d209b084d9f339ba60d5cf97f25289de4254116227e9fb92fea3da01",
        "522103a373788db009094ac6009f748e5c47865ff99953f62611ccb8469d0d2fb12d202102f14b40e0d1fda2a873edd5903116a76f5f75500b58a867f539ad7387cfaddb6421025dbf42e5932b6f42f90035edce1d238ef0d934ddf440692f6db2e5d9d46c12d753ae"
      ],
      "is_coinbase": false,
      "sequence": 4294967293,
      "inner_redeemscript_asm": "OP_0 OP_PUSHBYTES_32 bcefa2fec1df12f2033fca8a58385ed501ef82064a3ca6cac1e8dfe23bf1d4ec",
      "inner_witnessscript_asm": "OP_PUSHNUM_2 OP_PUSHBYTES_33 03a373788db009094ac6009f748e5c47865ff99953f62611ccb8469d0d2fb12d20 OP_PUSHBYTES_33 02f14b40e0d1fda2a873edd5903116a76f5f75500b58a867f539ad7387cfaddb64 OP_PUSHBYTES_33 025dbf42e5932b6f42f90035edce1d238ef0d934ddf440692f6db2e5d9d46c12d7 OP_PUSHNUM_3 OP_CHECKMULTISIG"
    },
    {
      "txid": "ef383e3c6acdac31464efdcd31c83cf615307325625ea33033ba348bf088a34a",
      "vout": 9,
      "prevout": {
        "scriptpubkey": "002085383f5cb7b67ed207b3acf0526f898570b27da67151dc12a61e791085fa5aa3",
        "scriptpubkey_asm": "OP_0 OP_PUSHBYTES_32 85383f5cb7b67ed207b3acf0526f898570b27da67151dc12a61e791085fa5aa3",
        "scriptpubkey_type": "v0_p2wsh",
        "scriptpubkey_address": "bc1qs5ur7h9hkeldypan4nc9ymufs4ctyldxw9gacy4xreu3pp06t23snqtnfj",
        "value": 324955411
      },
      "scriptsig": "",
      "scriptsig_asm": "",
      "witness": [
        "",
        "3044022058613f1f6320525df6310319af915586efd4bab19e7d5b6a9e5cb689071c697b02204bc0b0ae3f0a6d4eae354accf798a3004e40ef6ed8c73ea702a7a9a93378092b01",
        "3044022056342e2dc8b113069678789ceaccc2fd78c181be86a3eada4d16cc76b1a4c1b2022023a8dbba2615aa09a07a0e26f7d855b5d7e6a3611b061871a2b96fb4bb10ad5a01",
        "52210279228b5ecd7e63d521fc897c8ef5a8fd92400fe2d8af0bcd082e6f146c7e7ed22103957c25f629ab26c0b55d1c38b879085a3c9d19617e97131dbd6202ff28fbdee02103393366b24bf3b2411d1b266ccf541f8ed573643a9c6a297d207c504380f5ea1053ae"
      ],
      "is_coinbase": false,
      "sequence": 4294967293,
      "inner_witnessscript_asm": "OP_PUSHNUM_2 OP_PUSHBYTES_33 0279228b5ecd7e63d521fc897c8ef5a8fd92400fe2d8af0bcd082e6f146c7e7ed2 OP_PUSHBYTES_33 03957c25f629ab26c0b55d1c38b879085a3c9d19617e97131dbd6202ff28fbdee0 OP_PUSHBYTES_33 03393366b24bf3b2411d1b266ccf541f8ed573643a9c6a297d207c504380f5ea10 OP_PUSHNUM_3 OP_CHECKMULTISIG"
    },
    {
      "txid": "ef383e3c6acdac31464efdcd31c83cf615307325625ea33033ba348bf088a34a",
      "vout": 14,
      "prevout": {
        "scriptpubkey": "002085710951c49bc9983249d9c211c89ebf28d93c77e0d70c911a6a115efcd23d93",
        "scriptpubkey_asm": "OP_0 OP_PUSHBYTES_32 85710951c49bc9983249d9c211c89ebf28d93c77e0d70c911a6a115efcd23d93",
        "scriptpubkey_type": "v0_p2wsh",
        "scriptpubkey_address": "bc1qs4csj5wyn0yesvjfm8pprjy7hu5dj0rhurtseyg6dgg4alxj8kfs2555se",
        "value": 769021257
      },
      "scriptsig": "",
      "scriptsig_asm": "",
      "witness": [
        "",
        "304402207835c883aff5a07c745c4b48b70072342165bc105ed8be0a7202220e8a97409b022042388945aab4c505b0e90fbbe35baa59c719daefa1612938ae7453b5ab83c38c01",
        "3044022043587481f5374c1f40105f41dcd87c5e7752890537ef4fc460a8ecd208b00c1702207c7eb98ab0e0d9d99b2b53a81380034d8ee9cfa8ed0e75d6e7fcff637a8e81ef01",
        "522103730f4a700057fcd196436538692f016c1a421326dbefada8863cf843306d4c0f2102d81deda05849955ee78e3a957d88f94ea3ae32d9f6859285cf8332918eafdaf921036b2aca42630e609ea327ce95f2091c26a4b6127d7bf645500a616a1e7a333c0353ae"
      ],
      "is_coinbase": false,
      "sequence": 4294967293,
      "inner_witnessscript_asm": "OP_PUSHNUM_2 OP_PUSHBYTES_33 03730f4a700057fcd196436538692f016c1a421326dbefada8863cf843306d4c0f OP_PUSHBYTES_33 02d81deda05849955ee78e3a957d88f94ea3ae32d9f6859285cf8332918eafdaf9 OP_PUSHBYTES_33 036b2aca42630e609ea327ce95f2091c26a4b6127d7bf645500a616a1e7a333c03 OP_PUSHNUM_3 OP_CHECKMULTISIG"
    },
    {
      "txid": "ef383e3c6acdac31464efdcd31c83cf615307325625ea33033ba348bf088a34a",
      "vout": 15,
      "prevout": {
        "scriptpubkey": "0020950458451d036e78a4401736ac5c1c0ca9211548b79ba7dd17234f80d1c04078",
        "scriptpubkey_asm": "OP_0 OP_PUSHBYTES_32 950458451d036e78a4401736ac5c1c0ca9211548b79ba7dd17234f80d1c04078",
        "scriptpubkey_type": "v0_p2wsh",
        "scriptpubkey_address": "bc1qj5z9s3gaqdh83fzqzum2chqupj5jz92gk7d60hghyd8cp5wqgpuqqy6ucs",
        "value": 1059428258
      },
      "scriptsig": "",
      "scriptsig_asm": "",
      "witness": [
        "",
        "3044022052e9d0a0cc6cd48960a15993359f4dac0a47a6b50b19820fa5cec0190508356902202a0f8eccc3550f653f36a2d840d754232366710b844e649af2badf54aaf423b501",
        "3044022050b0704264aacafc245999936ee33c60577908f61b73381ac7bd557c621d83c802203b107569cbf4c1359265a810541219409af894f16de4daab4d48f6dc90beac5101",
        "522103c4c35b4ab8c68e859b435ef9a0ce54ee1b2cef06ab4ea334d1f4136fb547b1eb21030d14caacf614dfebc478d3a67cbf77298ef6ed4ee2c2894bb02cbd4be4687f352102a66a34fcf9c1373bdeda24d07066db390203ab691a8164418e3887d7f6a4b27d53ae"
      ],
      "is_coinbase": false,
      "sequence": 4294967293,
      "inner_witnessscript_asm": "OP_PUSHNUM_2 OP_PUSHBYTES_33 03c4c35b4ab8c68e859b435ef9a0ce54ee1b2cef06ab4ea334d1f4136fb547b1eb OP_PUSHBYTES_33 030d14caacf614dfebc478d3a67cbf77298ef6ed4ee2c2894bb02cbd4be4687f35 OP_PUSHBYTES_33 02a66a34fcf9c1373bdeda24d07066db390203ab691a8164418e3887d7f6a4b27d OP_PUSHNUM_3 OP_CHECKMULTISIG"
    },
    {
      "txid": "ef383e3c6acdac31464efdcd31c83cf615307325625ea33033ba348bf088a34a",
      "vout": 16,
      "prevout": {
        "scriptpubkey": "00204ac48f3aef22cbf2242d9ec7257d9b937316377f9b5afadfb7747f290dd07b0d",
        "scriptpubkey_asm": "OP_0 OP_PUSHBYTES_32 4ac48f3aef22cbf2242d9ec7257d9b937316377f9b5afadfb7747f290dd07b0d",
        "scriptpubkey_type": "v0_p2wsh",
        "scriptpubkey_address": "bc1qftzg7wh0yt9lyfpdnmrj2lvmjde3vdmlndd04hahw3ljjrws0vxsf7ta3v",
        "value": 1097811067
      },
      "scriptsig": "",
      "scriptsig_asm": "",
      "witness": [
        "",
        "3045022100e03ad67441f688edbaca9212e78edaad7f07f556e67135faaca03e65602d5a8c0220302bab853beb2cb9fad34497039b3abb59270ecdef373e7752ce5a30dd662f4701",
        "304402205360204f6faa677f95d40251061883cb18956c5c3f2274c52467a2d42662015b02204a4d66d6694bf38c8a42554d8199e437fe61cfc230ee350531c1395cbb32a88601",
        "5221027bd377bb8545d56db0f4e658bdce885f5d1fa2b4321b88ea25c8a3e3f2ab1e2921020d833d8ce718b5471b096c62d47d62d1b70983b11f92a694dbb0b17de6e63e3e2102460084f8dc492a5818ce8628d44ab8dfdf11bfcd44b837ee75da473d7e0efd3c53ae"
      ],
      "is_coinbase": false,
      "sequence": 4294967293,
      "inner_witnessscript_asm": "OP_PUSHNUM_2 OP_PUSHBYTES_33 027bd377bb8545d56db0f4e658bdce885f5d1fa2b4321b88ea25c8a3e3f2ab1e29 OP_PUSHBYTES_33 020d833d8ce718b5471b096c62d47d62d1b70983b11f92a694dbb0b17de6e63e3e OP_PUSHBYTES_33 02460084f8dc492a5818ce8628d44ab8dfdf11bfcd44b837ee75da473d7e0efd3c OP_PUSHNUM_3 OP_CHECKMULTISIG"
    }
  ],
  "vout": [
    {
      "scriptpubkey": "001489d64af19969653d4849af075dc32c1087d6afa3",
      "scriptpubkey_asm": "OP_0 OP_PUSHBYTES_20 89d64af19969653d4849af075dc32c1087d6afa3",
      "scriptpubkey_type": "v0_p2wpkh",
      "scriptpubkey_address": "bc1q38ty4uved9jn6jzf4ur4msevzzradtar7asc5u",
      "value": 78900
    },
    {
      "scriptpubkey": "00148982f313a6c5258cb554f2a5bf0bb353c6c0bd6c",
      "scriptpubkey_asm": "OP_0 OP_PUSHBYTES_20 8982f313a6c5258cb554f2a5bf0bb353c6c0bd6c",
      "scriptpubkey_type": "v0_p2wpkh",
      "scriptpubkey_address": "bc1q3xp0xyaxc5jced2572jm7zan20rvp0tvtteqq6",
      "value": 123630
    },
    {
      "scriptpubkey": "a91463ca433180fe033518bcf7b30c20de04ad5568c687",
      "scriptpubkey_asm": "OP_HASH160 OP_PUSHBYTES_20 63ca433180fe033518bcf7b30c20de04ad5568c6 OP_EQUAL",
      "scriptpubkey_type": "p2sh",
      "scriptpubkey_address": "3Anf7ygP7Cs9bpBrDhoMcV4LY8Y5j1psvh",
      "value": 137542
    },
    {
      "scriptpubkey": "00141247b7e32ed8a887efea09cea86116e9d6605cd2",
      "scriptpubkey_asm": "OP_0 OP_PUSHBYTES_20 1247b7e32ed8a887efea09cea86116e9d6605cd2",
      "scriptpubkey_type": "v0_p2wpkh",
      "scriptpubkey_address": "bc1qzfrm0cewmz5g0ml2p882scgka8txqhxj9e6ner",
      "value": 400000
    },
    {
      "scriptpubkey": "0014d9bbd1690ff0f34a66db5ff6b1e29693ec1947f3",
      "scriptpubkey_asm": "OP_0 OP_PUSHBYTES_20 d9bbd1690ff0f34a66db5ff6b1e29693ec1947f3",
      "scriptpubkey_type": "v0_p2wpkh",
      "scriptpubkey_address": "bc1qmxaaz6g07re55ekmtlmtrc5kj0kpj3lngy5y60",
      "value": 466000
    },
    {
      "scriptpubkey": "a914e845228a43f44ed530c9d88ffd599b2be89eedd687",
      "scriptpubkey_asm": "OP_HASH160 OP_PUSHBYTES_20 e845228a43f44ed530c9d88ffd599b2be89eedd6 OP_EQUAL",
      "scriptpubkey_type": "p2sh",
      "scriptpubkey_address": "3Ns9WdKZFfSPBkuFatYPYgt8vXsmHqxqRL",
      "value": 838700
    },
    {
      "scriptpubkey": "a914f9e45234e1e68a52a6e8a160d78eca9672dae5b787",
      "scriptpubkey_asm": "OP_HASH160 OP_PUSHBYTES_20 f9e45234e1e68a52a6e8a160d78eca9672dae5b7 OP_EQUAL",
      "scriptpubkey_type": "p2sh",
      "scriptpubkey_address": "3QUKhLcih5zGNU1QxQ7TAm15td1efzT6YU",
      "value": 1111200
    },
    {
      "scriptpubkey": "001448b15379f578eede4bfb491b57c7e89bbc8af97c",
      "scriptpubkey_asm": "OP_0 OP_PUSHBYTES_20 48b15379f578eede4bfb491b57c7e89bbc8af97c",
      "scriptpubkey_type": "v0_p2wpkh",
      "scriptpubkey_address": "bc1qfzc4x7040rhdujlmfyd403lgnw7g47tu96gyph",
      "value": 1456399
    },
    {
      "scriptpubkey": "0014e757dc9c1dd14026ef043fc08510ff2e39bc4c3a",
      "scriptpubkey_asm": "OP_0 OP_PUSHBYTES_20 e757dc9c1dd14026ef043fc08510ff2e39bc4c3a",
      "scriptpubkey_type": "v0_p2wpkh",
      "scriptpubkey_address": "bc1quatae8qa69qzdmcy8lqg2y8l9cumcnp6aljr4y",
      "value": 7068696
    },
    {
      "scriptpubkey": "002010e16eea5c4e9b027797c62f66ecd498f9c3706c5020b4e22ab36af78d1220b4",
      "scriptpubkey_asm": "OP_0 OP_PUSHBYTES_32 10e16eea5c4e9b027797c62f66ecd498f9c3706c5020b4e22ab36af78d1220b4",
      "scriptpubkey_type": "v0_p2wsh",
      "scriptpubkey_address": "bc1qzrska6juf6dsyauhcchkdmx5nruuxurv2qstfc32kd400rgjyz6q09c563",
      "value": 872157132
    },
    {
      "scriptpubkey": "a914491fc45b76a244065dc7a85864ff380eb394a51787",
      "scriptpubkey_asm": "OP_HASH160 OP_PUSHBYTES_20 491fc45b76a244065dc7a85864ff380eb394a517 OP_EQUAL",
      "scriptpubkey_type": "p2sh",
      "scriptpubkey_address": "38MfJkxPkpwsZxkyfESwjdaKBdXrV8DpWr",
      "value": 13030000000
    }
  ],
  "size": 3407,
  "weight": 6053,
  "fee": 33502,
  "status": {
    "confirmed": true,
    "block_height": 834638,
    "block_hash": "000000000000000000025f742c626208ac87e0b7d15054abb4a19ca2d735a54e",
    "block_time": 1710405325
  },
  "hex": "0100000000010a56a0a0fc6697c6b75cfa377e76d58c999685c4a87fc18591a4bb8a3f12545a0c1900000023220020bcefa2fec1df12f2033fca8a58385ed501ef82064a3ca6cac1e8dfe23bf1d4ecfdffffffcd6d2f37a665365c319ded2bc440c4b4db7b16e929d037f75ac7cff2c78fbc520000000023220020a0a4d480ea5089db7ebffd830c1344ede1d01fdcfeb50de9fcbed16cb5ce1da5fdffffffe9d6ca5ff06671998f62c96453387e5a9d42997862076be7cbe438cb07de9c6a0b00000000fdffffff1e43b2999db5b609a9ffd939888a593f1cb9054e6d6b7e1dffb0e2e0dcbf3a9e0c00000000fdffffff1e43b2999db5b609a9ffd939888a593f1cb9054e6d6b7e1dffb0e2e0dcbf3a9e0d00000000fdffffffd65b70c008729a799d94e6b9d0319e1c10238c7695932f364e8d67edb7aae0a10000000023220020bcefa2fec1df12f2033fca8a58385ed501ef82064a3ca6cac1e8dfe23bf1d4ecfdffffff4aa388f08b34ba3330a35e6225733015f63cc831cdfd4e4631accd6a3c3e38ef0900000000fdffffff4aa388f08b34ba3330a35e6225733015f63cc831cdfd4e4631accd6a3c3e38ef0e00000000fdffffff4aa388f08b34ba3330a35e6225733015f63cc831cdfd4e4631accd6a3c3e38ef0f00000000fdffffff4aa388f08b34ba3330a35e6225733015f63cc831cdfd4e4631accd6a3c3e38ef1000000000fdffffff0b343401000000000016001489d64af19969653d4849af075dc32c1087d6afa3eee20100000000001600148982f313a6c5258cb554f2a5bf0bb353c6c0bd6c461902000000000017a91463ca433180fe033518bcf7b30c20de04ad5568c687801a0600000000001600141247b7e32ed8a887efea09cea86116e9d6605cd2501c070000000000160014d9bbd1690ff0f34a66db5ff6b1e29693ec1947f32ccc0c000000000017a914e845228a43f44ed530c9d88ffd599b2be89eedd687a0f410000000000017a914f9e45234e1e68a52a6e8a160d78eca9672dae5b7870f3916000000000016001448b15379f578eede4bfb491b57c7e89bbc8af97c18dc6b0000000000160014e757dc9c1dd14026ef043fc08510ff2e39bc4c3acc0ffc330000000022002010e16eea5c4e9b027797c62f66ecd498f9c3706c5020b4e22ab36af78d1220b48005a6080300000017a914491fc45b76a244065dc7a85864ff380eb394a51787040047304402203e2293e31e1c5085e10f28fd2942e7cf982337061aa1e574e8cf30e4bd49a1f702204f05198cb5450ce08dbcaa2e77d3ae2ec79c3d89942ce8703034d0697a064288014730440220568e7da6f0ab448c447e9cffb8333b43de4509362883cce45b12701783f2365e02203930f83c7ebd55fa7ff12519cf1c6534638b53c30121e0687099c7e0033218340169522103a373788db009094ac6009f748e5c47865ff99953f62611ccb8469d0d2fb12d202102f14b40e0d1fda2a873edd5903116a76f5f75500b58a867f539ad7387cfaddb6421025dbf42e5932b6f42f90035edce1d238ef0d934ddf440692f6db2e5d9d46c12d753ae040047304402203c3d1a1f12aaf50556808ef825ba30ff871f104357e688c08fac6eb7fc4af0a702201ce859ec0e8998232cd60ec22bab004bdd6df61114a42435e9ee8243bfb3e1ef01473044022050fd2b54b49debd17db522e7519936cbc591fde3f1d54fced93d68180cedc2d80220222707eb18c6a48bdbf48726e537924e9ba04986e50221017bd0b75310eb76570169522102fc827ae54949b0c4333a829673b03f276161815953a50aa1538590dae55d58892102f677182e9cc582f8e5f4ed4da9f6fd539f6faba60706479ff6e599ece803d3712102abc9f3cafcd84d2dc6d8cf0cddb09194d9d6ca74705be3f85e7bab049a08fe1453ae04004730440220031cb5e48c4c15def6970ddf64dd3f30ecfe7634ed66f5ebad47d9f36eaac52f02207598946a7a516ec0765ff67c4b03eb2200c219190234c92eaff2c24bba84222c0147304402201d01f9e7d99bac50d329c3887c9942306f9d38ffa2b86b8b457653d55b684d9b022033ff35756f63be5ba749921a964f0c791eb03bd3464aee0609e271ede7a2e79f0169522102aa4b96e156f0a1ed67b8f3ac1e1231f1ceb2f8d4c2a9ff016dd8964ae2bb79c62102534d6f1617707a28e753f7c2061d866f86ee1279f67f498d1898a49bba82d501210315a7990ad643eb12ff8e32e75081554df4c0782020d1a4f3bf51af68ac7fda0253ae0400483045022100e36e02a50f62741b40e968c51098528f1199bee112586d19d3097590f632d8e1022061c9c62162988fc1266071e5946621df43f8558dc828189f8074e995b1b674d40147304402200db8873fd46e0cc2abea37514bf01e5b7084209d94dfba9bfd4b5e4a2820537b022007b8672f3320b58d5ed6d0be98b6ffb16489c122dc3c976666747b019c55806b01695221029f960e3147f8d52f1f3173fd3fd9708122b8600e658fd4a6a04784fdffea129a2103dc08c827fda1cb3ce0468338f6f04ccbc0c941388933f8b42cf5751b06e7b29721031df34c4fea2ae638fea95906615f665daa99290b1563790f439fa8e37f2ddfd653ae040047304402206684be350358e13b71848e2fc6f753aedade6e382ef8986331a694a98ff4e5b102200530719089953d5a3ad6736138e8896202b490569238ffba3a454c429308fb7a014730440220545afd208880150c1751f107488c2b9f07536dde8f69095d44b58d2e69396057022020f1a7780c3935f490bfbacee077c9578db196ec0e96e666a9fb5974fe0ee3d20169522102c66538b1de73288a1d39dc494d49cf995daf14de6ca20ac10916794863ec5d9b210331a7b0a7c9204eebded56ec1a9534529a6d71ca658ef0bffc90b274099cccf722103e4ad41ea5f560250c6638ecc06f303682f0d24eb42ace37d459f98c3aaff934b53ae0400483045022100fadc6213b8b180bf0c52cc40f7f2ab6a63f8a28bcced81b83ceae2c9fcd67ef902203ec19a4ce81e61bf4dcc5c9ab932fa8bab04202e8580508106bafbfbccc31f7f0147304402203d5f0520c4b65558ce41247730a1b933e6c775c97913903548fed1dfe1992b2f022048280da865d209b084d9f339ba60d5cf97f25289de4254116227e9fb92fea3da0169522103a373788db009094ac6009f748e5c47865ff99953f62611ccb8469d0d2fb12d202102f14b40e0d1fda2a873edd5903116a76f5f75500b58a867f539ad7387cfaddb6421025dbf42e5932b6f42f90035edce1d238ef0d934ddf440692f6db2e5d9d46c12d753ae0400473044022058613f1f6320525df6310319af915586efd4bab19e7d5b6a9e5cb689071c697b02204bc0b0ae3f0a6d4eae354accf798a3004e40ef6ed8c73ea702a7a9a93378092b01473044022056342e2dc8b113069678789ceaccc2fd78c181be86a3eada4d16cc76b1a4c1b2022023a8dbba2615aa09a07a0e26f7d855b5d7e6a3611b061871a2b96fb4bb10ad5a016952210279228b5ecd7e63d521fc897c8ef5a8fd92400fe2d8af0bcd082e6f146c7e7ed22103957c25f629ab26c0b55d1c38b879085a3c9d19617e97131dbd6202ff28fbdee02103393366b24bf3b2411d1b266ccf541f8ed573643a9c6a297d207c504380f5ea1053ae040047304402207835c883aff5a07c745c4b48b70072342165bc105ed8be0a7202220e8a97409b022042388945aab4c505b0e90fbbe35baa59c719daefa1612938ae7453b5ab83c38c01473044022043587481f5374c1f40105f41dcd87c5e7752890537ef4fc460a8ecd208b00c1702207c7eb98ab0e0d9d99b2b53a81380034d8ee9cfa8ed0e75d6e7fcff637a8e81ef0169522103730f4a700057fcd196436538692f016c1a421326dbefada8863cf843306d4c0f2102d81deda05849955ee78e3a957d88f94ea3ae32d9f6859285cf8332918eafdaf921036b2aca42630e609ea327ce95f2091c26a4b6127d7bf645500a616a1e7a333c0353ae0400473044022052e9d0a0cc6cd48960a15993359f4dac0a47a6b50b19820fa5cec0190508356902202a0f8eccc3550f653f36a2d840d754232366710b844e649af2badf54aaf423b501473044022050b0704264aacafc245999936ee33c60577908f61b73381ac7bd557c621d83c802203b107569cbf4c1359265a810541219409af894f16de4daab4d48f6dc90beac510169522103c4c35b4ab8c68e859b435ef9a0ce54ee1b2cef06ab4ea334d1f4136fb547b1eb21030d14caacf614dfebc478d3a67cbf77298ef6ed4ee2c2894bb02cbd4be4687f352102a66a34fcf9c1373bdeda24d07066db390203ab691a8164418e3887d7f6a4b27d53ae0400483045022100e03ad67441f688edbaca9212e78edaad7f07f556e67135faaca03e65602d5a8c0220302bab853beb2cb9fad34497039b3abb59270ecdef373e7752ce5a30dd662f470147304402205360204f6faa677f95d40251061883cb18956c5c3f2274c52467a2d42662015b02204a4d66d6694bf38c8a42554d8199e437fe61cfc230ee350531c1395cbb32a88601695221027bd377bb8545d56db0f4e658bdce885f5d1fa2b4321b88ea25c8a3e3f2ab1e2921020d833d8ce718b5471b096c62d47d62d1b70983b11f92a694dbb0b17de6e63e3e2102460084f8dc492a5818ce8628d44ab8dfdf11bfcd44b837ee75da473d7e0efd3c53ae00000000"
}