{
  "txid": "bf895a54b0c2c31d18435ae46b70ee47f1ecd6e2f51f3ee59cd6eef092495488",
  "version": 1,
  "locktime": 0,
  "vin": [
    {
      "txid": "d797d6e40a1401e0efc0d23d9cf0079909446bf2932c91c42e792ec589579210",
      "vout": 12,
      "prevout": {
        "scriptpubkey": "76a914e0492657ab99ff3b73586a41ec09c276fed1b20888ac",
        "scriptpubkey_asm": "OP_DUP OP_HASH160 OP_PUSHBYTES_20 e0492657ab99ff3b73586a41ec09c276fed1b208 OP_EQUALVERIFY OP_CHECKSIG",
        "scriptpubkey_type": "p2pkh",
        "scriptpubkey_address": "1MSuzWKWFjYBUL47GW6f8wuni9ZNKkcikz",
        "value": 676000
      },
      "scriptsig": "47304402207027c22d3c65f9c143a2f3bfeb039b19e59b4d17074830cae1900ffd8c75991702200a48ea494a715f827eb3777e0780e943dc222ebb57bc9351395eff946a4b171d012102f3ae97257627e54e50c00d8c9893c523665bc54c8776528859dfef6cf042ff54",
      "scriptsig_asm": "OP_PUSHBYTES_71 304402207027c22d3c65f9c143a2f3bfeb039b19e59b4d17074830cae1900ffd8c75991702200a48ea494a715f827eb3777e0780e943dc222ebb57bc9351395eff946a4b171d01 OP_PUSHBYTES_33 02f3ae97257627e54e50c00d8c9893c523665bc54c8776528859dfef6cf042ff54",
      "is_coinbase": false,
      "sequence": 4294967295
    }
  ],
  "vout": [
    {
      "scriptpubkey": "001474ce8c2984d3934feb1a9f5e828cec5c5ebc513c",
      "scriptpubkey_asm": "OP_0 OP_PUSHBYTES_20 74ce8c2984d3934feb1a9f5e828cec5c5ebc513c",
      "scriptpubkey_type": "v0_p2wpkh",
      "scriptpubkey_address": "bc1qwn8gc2vy6wf5l6c6na0g9r8vt30tc5fuumkfhm",
      "value": 136248
    },
    {
      "scriptpubkey": "76a91495d6184df7ead58ceb0454492fd5a16fc1adea7488ac",
      "scriptpubkey_asm": "OP_DUP OP_HASH160 OP_PUSHBYTES_20 95d6184df7ead58ceb0454492fd5a16fc1adea74 OP_EQUALVERIFY OP_CHECKSIG",
      "scriptpubkey_type": "p2pkh",
      "scriptpubkey_address": "1EfGAAH1AtvDyRzb5UyUiJqmABbmdD9oQu",
      "value": 531724
    }
  ],
  "size": 222,
  "weight": 888,
  "fee": 8028,
  "status": {
    "confirmed": true,
    "block_height": 834638,
    "block_hash": "000000000000000000025f742c626208ac87e0b7d15054abb4a19ca2d735a54e",
    "block_time": 1710405325
  },
  "hex": "010000000110925789c52e792ec4912c93f26b44099907f09c3dd2c0efe001140ae4d697d70c0000006a47304402207027c22d3c65f9c143a2f3bfeb039b19e59b4d17074830cae1900ffd8c75991702200a48ea494a715f827eb3777e0780e943dc222ebb57bc9351395eff946a4b171d012102f3ae97257627e54e50c00d8c9893c523665bc54c8776528859dfef6cf042ff54ffffffff02381402000000000016001474ce8c2984d3934feb1a9f5e828cec5c5ebc513c0c1d0800000000001976a91495d6184df7ead58ceb0454492fd5a16fc1adea7488ac00000000"
}