{
  "txid": "bf9b42429c88f6586e952480cb73dfc7c63524b110d59bbc4a77d789063dc260",
  "version": 2,
  "locktime": 0,
  "vin": [
    {
      "txid": "214e0c065bafff92f25c03c261e719ffc84a982d103613e79f0786d5a210d80d",
      "vout": 0,
      "prevout": {
        "scriptpubkey": "5120b6f768870637c028fdc1cd8a86c39552f345d36406325301f0e64902000fb229",
        "scriptpubkey_asm": "OP_PUSHNUM_1 OP_PUSHBYTES_32 b6f768870637c028fdc1cd8a86c39552f345d36406325301f0e64902000fb229",
        "scriptpubkey_type": "v1_p2tr",
        "scriptpubkey_address": "bc1pkmmk3pcxxlqz3lwpek9gdsu42te5t5myqce9xq0sueysyqq0kg5s5wdpx9",
        "value": 36189
      },
      "scriptsig": "",
      "scriptsig_asm": "",
      "witness": [
        "935beb48c0d1344b3a2e580052a1ca15c70f115b9cc670d318a06f23ada84c8412b336cfa00a63f86b8a3bc6bb96362581b861133e96115722b0cc503b4c5b76",
        "20f2d00e1cce0b839d2e197679cac7a15152ec244338032c7767f72c1332d49a65ac0063036f7264010109696d6167652f706e67004d080289504e470d0a1a0a0000000d494844520000001c0000001c0802000000fd6f48c3000000097048597300000b1300000b1301009a9c1800000ada69545874584d4c3a636f6d2e61646f62652e786d7000000000003c3f787061636b657420626567696e3d22efbbbf222069643d2257354d304d7043656869487a7265537a4e54637a6b633964223f3e203c783a786d706d65746120786d6c6e733a783d2261646f62653a6e733a6d6574612f2220783a786d70746b3d2241646f626520584d5020436f726520392e312d633030312037392e613864343735332c20323032332f30332f32332d30383a35363a33372020202020202020223e203c7264663a52444620786d6c6e733a7264663d22687474703a2f2f7777772e77332e6f72672f313939392f30322f32322d7264662d73796e7461782d6e7323223e203c7264663a4465736372697074696f6e207264663a61626f75743d222220786d6c6e733a786d703d22687474703a2f2f6e732e61646f62652e636f6d2f7861702f312e302f2220786d6c6e733a64633d22687474703a2f2f7075726c2e6f72672f64632f656c656d656e74732f312e312f2220786d6c6e733a70686f746f73686f703d22687474703a2f2f6e732e61646f62652e636f6d2f70686f746f73686f702f312e302f2220786d6c6e733a786d704d4d3d22687474703a2f2f6e732e61646f62652e636f6d2f7861702f4d0802312e302f6d6d2f2220786d6c6e733a73744576743d22687474703a2f2f6e732e61646f62652e636f6d2f7861702f312e302f73547970652f5265736f757263654576656e74232220786d6c6e733a73745265663d22687474703a2f2f6e732e61646f62652e636f6d2f7861702f312e302f73547970652f5265736f75726365526566232220786d6c6e733a746966663d22687474703a2f2f6e732e61646f62652e636f6d2f746966662f312e302f2220786d6c6e733a657869663d22687474703a2f2f6e732e61646f62652e636f6d2f657869662f312e302f2220786d703a43726561746f72546f6f6c3d2241646f62652050686f746f73686f702032342e36202857696e646f7773292220786d703a437265617465446174653d22323032342d30332d30385432333a34383a34342b30353a33302220786d703a4d6f64696679446174653d22323032342d30332d30395431303a35343a34372b30353a33302220786d703a4d65746164617461446174653d22323032342d30332d30395431303a35343a34372b30353a3330222064633a666f726d61743d22696d6167652f706e67222070686f746f73686f703a436f6c6f724d6f64653d22332220786d704d4d3a496e7374616e636549443d22786d702e6969643a30646265363063392d393239632d303234342d613536312d6666386637646131323962362220786d704d4d3a446f63756d4d0802656e7449443d2261646f62653a646f6369643a70686f746f73686f703a38343263343731642d323530352d643434302d613232312d3236643164363366383230632220786d704d4d3a4f726967696e616c446f63756d656e7449443d22786d702e6469643a64386135376261352d383633612d393434372d383335632d6337373266336330646437652220746966663a4f7269656e746174696f6e3d22312220746966663a585265736f6c7574696f6e3d223732303030302f31303030302220746966663a595265736f6c7574696f6e3d223732303030302f31303030302220746966663a5265736f6c7574696f6e556e69743d22322220657869663a436f6c6f7253706163653d2236353533352220657869663a506978656c5844696d656e73696f6e3d2232382220657869663a506978656c5944696d656e73696f6e3d223238223e203c786d704d4d3a486973746f72793e203c7264663a5365713e203c7264663a6c692073744576743a616374696f6e3d2263726561746564222073744576743a696e7374616e636549443d22786d702e6969643a64386135376261352d383633612d393434372d383335632d633737326633633064643765222073744576743a7768656e3d22323032342d30332d30385432333a34383a34342b30353a3330222073744576743a736f6674776172654167656e743d2241646f62652050686f746f73686f4d0802702032342e36202857696e646f777329222f3e203c7264663a6c692073744576743a616374696f6e3d22636f6e766572746564222073744576743a706172616d65746572733d2266726f6d20696d6167652f706e6720746f206170706c69636174696f6e2f766e642e61646f62652e70686f746f73686f70222f3e203c7264663a6c692073744576743a616374696f6e3d227361766564222073744576743a696e7374616e636549443d22786d702e6969643a61386634353335642d343038322d623534652d393765662d313937636634623131363835222073744576743a7768656e3d22323032342d30332d30395430313a32353a33382b30353a3330222073744576743a736f6674776172654167656e743d2241646f62652050686f746f73686f702032342e36202857696e646f777329222073744576743a6368616e6765643d222f222f3e203c7264663a6c692073744576743a616374696f6e3d227361766564222073744576743a696e7374616e636549443d22786d702e6969643a38636231336232362d316261372d383834352d393632382d656231636663306637393365222073744576743a7768656e3d22323032342d30332d30395431303a35343a34372b30353a3330222073744576743a736f6674776172654167656e743d2241646f62652050686f746f73686f702032342e36202857696e646f777329222073744576743a4d08026368616e6765643d222f222f3e203c7264663a6c692073744576743a616374696f6e3d22636f6e766572746564222073744576743a706172616d65746572733d2266726f6d206170706c69636174696f6e2f766e642e61646f62652e70686f746f73686f7020746f20696d6167652f706e67222f3e203c7264663a6c692073744576743a616374696f6e3d2264657269766564222073744576743a706172616d65746572733d22636f6e7665727465642066726f6d206170706c69636174696f6e2f766e642e61646f62652e70686f746f73686f7020746f20696d6167652f706e67222f3e203c7264663a6c692073744576743a616374696f6e3d227361766564222073744576743a696e7374616e636549443d22786d702e6969643a30646265363063392d393239632d303234342d613536312d666638663764613132396236222073744576743a7768656e3d22323032342d30332d30395431303a35343a34372b30353a3330222073744576743a736f6674776172654167656e743d2241646f62652050686f746f73686f702032342e36202857696e646f777329222073744576743a6368616e6765643d222f222f3e203c2f7264663a5365713e203c2f786d704d4d3a486973746f72793e203c786d704d4d3a4465726976656446726f6d2073745265663a696e7374616e636549443d22786d702e6969643a38636231336232362d3162614d0802372d383834352d393632382d656231636663306637393365222073745265663a646f63756d656e7449443d2261646f62653a646f6369643a70686f746f73686f703a33383765623131652d373632362d346234622d626534372d313531326262363435666239222073745265663a6f726967696e616c446f63756d656e7449443d22786d702e6469643a64386135376261352d383633612d393434372d383335632d633737326633633064643765222f3e203c2f7264663a4465736372697074696f6e3e203c2f7264663a5244463e203c2f783a786d706d6574613e203c3f787061636b657420656e643d2272223f3ef16f97e8000001374944415448896364201afc6760f8c8c08826c8cff01f532513f186e2011f191891ed63214933c45d10fd58dd0801d471293d0c450f783c004f44a1890f0297120908b834d25587785be1007b928298b57cf71534362e8016a638bd5f97648b55fcf6e3f770f632984d68866271e9a7e373f038eafec9331d5b8fa009a2650414432f4ec88068c36328a6899800c550457313821a18900cad470aa2a27908711443f92c531860debf7ff20cc48e9ed90b71995f921a0f61a0a9c112a670e3206cb84eb808ae1080872c16439103017f80c0431f394930d0289b92569ea201b47080a7568a0c2521f19301f0257e0880242c3820a34ca149c5871216b80a116470fbf17b555941381b2e3e7df755389b5e3b15dfedc7efd17211a6082680c7153fc37f9c2e859b72fbf1fb994d0524b9145f9222e83a5c0000708d70191f6770e10000000049454e44ae426082680063036f726401011e6170706c69636174696f6e2f6a736f6e3b636861727365743d7574662d38004d5f017b2270223a22766f7264222c2276223a312c227479223a22696e7363222c22636f6c223a2238363263383263316663333266663334323062396566333365353766336233626266666334393232333830613638373665613166393534623231326661393762222c22696964223a2278204e6f64652041706573222c227075626c223a2231455337623370636a527a4667796969714c7278484b546e43686535364c4a485937222c226e6f6e6365223a383838342c226d696e746572223a2262633170387a32757975393030726e78707a7a647779756d337937756d6d676b347279647830356876767176636364736464613464716e71377833766534222c22736967223a2247795972396a6f46766f5641444a5a48416f2f5a6a6154322f3838765145574f6e43356c61745a727050315a54444d7841676f4b744e626e547861717a715478456f654c705057546f51575a694c58686f727757335a413d227d68",
        "c1f2d00e1cce0b839d2e197679cac7a15152ec244338032c7767f72c1332d49a65675a92934efa5e4869b2432a3e00abfc6819367af43949c2edc693b32d23ac05"
      ],
      "is_coinbase": false,
      "sequence": 4294967293
    }
  ],
  "vout": [
    {
      "scriptpubkey": "51203895c270af78e660884d7139b893dcded16a8c8d33e976300cc61b06b7b56826",
      "scriptpubkey_asm": "OP_PUSHNUM_1 OP_PUSHBYTES_32 3895c270af78e660884d7139b893dcded16a8c8d33e976300cc61b06b7b56826",
      "scriptpubkey_type": "v1_p2tr",
      "scriptpubkey_address": "bc1p8z2uyu900rnxpzzdwyum3y7ummgk4rydx05hvvqvccdsdda4dqnq7x3ve4",
      "value": 1000
    },
    {
      "scriptpubkey": "512005cc289b355240be36d033937b1b6c8749dd58994144e966683c21ac89649015",
      "scriptpubkey_asm": "OP_PUSHNUM_1 OP_PUSHBYTES_32 05cc289b355240be36d033937b1b6c8749dd58994144e966683c21ac89649015",
      "scriptpubkey_type": "v1_p2tr",
      "scriptpubkey_address": "bc1pqhxz3xe42fqtudksxwfhkxmvsaya6kyeg9zwjeng8ss6eztyjq2sc4ck0e",
      "value": 7684
    },
    {
      "scriptpubkey": "51200705a5767db892e98125775049b1a13dd9ecdc8aea0df413cabbee683e871012",
      "scriptpubkey_asm": "OP_PUSHNUM_1 OP_PUSHBYTES_32 0705a5767db892e98125775049b1a13dd9ecdc8aea0df413cabbee683e871012",
      "scriptpubkey_type": "v1_p2tr",
      "scriptpubkey_address": "bc1pquz62anahzfwnqf9wagynvdp8hv7ehy2agxlgy72h0hxs058zqfqk8ksyq",
      "value": 2733
    }
  ],
  "size": 3964,
  "weight": 4504,
  "fee": 24772,
  "status": {
    "confirmed": true,
    "block_height": 834638,
    "block_hash": "000000000000000000025f742c626208ac87e0b7d15054abb4a19ca2d735a54e",
    "block_time": 1710405325
  },
  "hex": "020000000001010dd810a2d586079fe71336102d984ac8ff19e761c2035cf292ffaf5b060c4e210000000000fdffffff03e8030000000000002251203895c270af78e660884d7139b893dcded16a8c8d33e976300cc61b06b7b56826041e00000000000022512005cc289b355240be36d033937b1b6c8749dd58994144e966683c21ac89649015ad0a0000000000002251200705a5767db892e98125775049b1a13dd9ecdc8aea0df413cabbee683e8710120340935beb48c0d1344b3a2e580052a1ca15c70f115b9cc670d318a06f23ada84c8412b336cfa00a63f86b8a3bc6bb96362581b861133e96115722b0cc503b4c5b76fd3f0e20f2d00e1cce0b839d2e197679cac7a15152ec244338032c7767f72c1332d49a65ac0063036f7264010109696d6167652f706e67004d080289504e470d0a1a0a0000000d494844520000001c0000001c0802000000fd6f48c3000000097048597300000b1300000b1301009a9c1800000ada69545874584d4c3a636f6d2e61646f62652e786d7000000000003c3f787061636b657420626567696e3d22efbbbf222069643d2257354d304d7043656869487a7265537a4e54637a6b633964223f3e203c783a786d706d65746120786d6c6e733a783d2261646f62653a6e733a6d6574612f2220783a786d70746b3d2241646f626520584d5020436f726520392e312d633030312037392e613864343735332c20323032332f30332f32332d30383a35363a33372020202020202020223e203c7264663a52444620786d6c6e733a7264663d22687474703a2f2f7777772e77332e6f72672f313939392f30322f32322d7264662d73796e7461782d6e7323223e203c7264663a4465736372697074696f6e207264663a61626f75743d222220786d6c6e733a786d703d22687474703a2f2f6e732e61646f62652e636f6d2f7861702f312e302f2220786d6c6e733a64633d22687474703a2f2f7075726c2e6f72672f64632f656c656d656e74732f312e312f2220786d6c6e733a70686f746f73686f703d22687474703a2f2f6e732e61646f62652e636f6d2f70686f746f73686f702f312e302f2220786d6c6e733a786d704d4d3d22687474703a2f2f6e732e61646f62652e636f6d2f7861702f4d0802312e302f6d6d2f2220786d6c6e733a73744576743d22687474703a2f2f6e732e61646f62652e636f6d2f7861702f312e302f73547970652f5265736f757263654576656e74232220786d6c6e733a73745265663d22687474703a2f2f6e732e61646f62652e636f6d2f7861702f312e302f73547970652f5265736f75726365526566232220786d6c6e733a746966663d22687474703a2f2f6e732e61646f62652e636f6d2f746966662f312e302f2220786d6c6e733a657869663d22687474703a2f2f6e732e61646f62652e636f6d2f657869662f312e302f2220786d703a43726561746f72546f6f6c3d2241646f62652050686f746f73686f702032342e36202857696e646f7773292220786d703a437265617465446174653d22323032342d30332d30385432333a34383a34342b30353a33302220786d703a4d6f64696679446174653d22323032342d30332d30395431303a35343a34372b30353a33302220786d703a4d65746164617461446174653d22323032342d30332d30395431303a35343a34372b30353a3330222064633a666f726d61743d22696d6167652f706e67222070686f746f73686f703a436f6c6f724d6f64653d22332220786d704d4d3a496e7374616e636549443d22786d702e6969643a30646265363063392d393239632d303234342d613536312d6666386637646131323962362220786d704d4d3a446f63756d4d0802656e7449443d2261646f62653a646f6369643a70686f746f73686f703a38343263343731642d323530352d643434302d613232312d3236643164363366383230632220786d704d4d3a4f726967696e616c446f63756d656e7449443d22786d702e6469643a64386135376261352d383633612d393434372d383335632d6337373266336330646437652220746966663a4f7269656e746174696f6e3d22312220746966663a585265736f6c7574696f6e3d223732303030302f31303030302220746966663a595265736f6c7574696f6e3d223732303030302f31303030302220746966663a5265736f6c7574696f6e556e69743d22322220657869663a436f6c6f7253706163653d2236353533352220657869663a506978656c5844696d656e73696f6e3d2232382220657869663a506978656c5944696d656e73696f6e3d223238223e203c786d704d4d3a486973746f72793e203c7264663a5365713e203c7264663a6c692073744576743a616374696f6e3d2263726561746564222073744576743a696e7374616e636549443d22786d702e6969643a64386135376261352d383633612d393434372d383335632d633737326633633064643765222073744576743a7768656e3d22323032342d30332d30385432333a34383a34342b30353a3330222073744576743a736f6674776172654167656e743d2241646f62652050686f746f73686f4d0802702032342e36202857696e646f777329222f3e203c7264663a6c692073744576743a616374696f6e3d22636f6e766572746564222073744576743a706172616d65746572733d2266726f6d20696d6167652f706e6720746f206170706c69636174696f6e2f766e642e61646f62652e70686f746f73686f70222f3e203c7264663a6c692073744576743a616374696f6e3d227361766564222073744576743a696e7374616e636549443d22786d702e6969643a61386634353335642d343038322d623534652d393765662d313937636634623131363835222073744576743a7768656e3d22323032342d30332d30395430313a32353a33382b30353a3330222073744576743a736f6674776172654167656e743d2241646f62652050686f746f73686f702032342e36202857696e646f777329222073744576743a6368616e6765643d222f222f3e203c7264663a6c692073744576743a616374696f6e3d227361766564222073744576743a696e7374616e636549443d22786d702e6969643a38636231336232362d316261372d383834352d393632382d656231636663306637393365222073744576743a7768656e3d22323032342d30332d30395431303a35343a34372b30353a3330222073744576743a736f6674776172654167656e743d2241646f62652050686f746f73686f702032342e36202857696e646f777329222073744576743a4d08026368616e6765643d222f222f3e203c7264663a6c692073744576743a616374696f6e3d22636f6e766572746564222073744576743a706172616d65746572733d2266726f6d206170706c69636174696f6e2f766e642e61646f62652e70686f746f73686f7020746f20696d6167652f706e67222f3e203c7264663a6c692073744576743a616374696f6e3d2264657269766564222073744576743a706172616d65746572733d22636f6e7665727465642066726f6d206170706c69636174696f6e2f766e642e61646f62652e70686f746f73686f7020746f20696d6167652f706e67222f3e203c7264663a6c692073744576743a616374696f6e3d227361766564222073744576743a696e7374616e636549443d22786d702e6969643a30646265363063392d393239632d303234342d613536312d666638663764613132396236222073744576743a7768656e3d22323032342d30332d30395431303a35343a34372b30353a3330222073744576743a736f6674776172654167656e743d2241646f62652050686f746f73686f702032342e36202857696e646f777329222073744576743a6368616e6765643d222f222f3e203c2f7264663a5365713e203c2f786d704d4d3a486973746f72793e203c786d704d4d3a4465726976656446726f6d2073745265663a696e7374616e636549443d22786d702e6969643a38636231336232362d3162614d0802372d383834352d393632382d656231636663306637393365222073745265663a646f63756d656e7449443d2261646f62653a646f6369643a70686f746f73686f703a33383765623131652d373632362d346234622d626534372d313531326262363435666239222073745265663a6f726967696e616c446f63756d656e7449443d22786d702e6469643a64386135376261352d383633612d393434372d383335632d633737326633633064643765222f3e203c2f7264663a4465736372697074696f6e3e203c2f7264663a5244463e203c2f783a786d706d6574613e203c3f787061636b657420656e643d2272223f3ef16f97e8000001374944415448896364201afc6760f8c8c08826c8cff01f532513f186e2011f191891ed63214933c45d10fd58dd0801d471293d0c450f783c004f44a1890f0297120908b834d25587785be1007b928298b57cf71534362e8016a638bd5f97648b55fcf6e3f770f632984d68866271e9a7e373f038eafec9331d5b8fa009a2650414432f4ec88068c36328a6899800c550457313821a18900cad470aa2a27908711443f92c531860debf7ff20cc48e9ed90b71995f921a0f61a0a9c112a670e3206cb84eb808ae1080872c16439103017f80c0431f394930d0289b92569ea201b47080a7568a0c2521f19301f0257e0880242c3820a34ca149c5871216b80a116470fbf17b555941381b2e3e7df755389b5e3b15dfedc7efd17211a6082680c7153fc37f9c2e859b72fbf1fb994d0524b9145f9222e83a5c0000708d70191f6770e10000000049454e44ae426082680063036f726401011e6170706c69636174696f6e2f6a736f6e3b636861727365743d7574662d38004d5f017b2270223a22766f7264222c2276223a312c227479223a22696e7363222c22636f6c223a2238363263383263316663333266663334323062396566333365353766336233626266666334393232333830613638373665613166393534623231326661393762222c22696964223a2278204e6f64652041706573222c227075626c223a2231455337623370636a527a4667796969714c7278484b546e43686535364c4a485937222c226e6f6e6365223a383838342c226d696e746572223a2262633170387a32757975393030726e78707a7a647779756d337937756d6d676b347279647830356876767176636364736464613464716e71377833766534222c22736967223a2247795972396a6f46766f5641444a5a48416f2f5a6a6154322f3838765145574f6e43356c61745a727050315a54444d7841676f4b744e626e547861717a715478456f654c705057546f51575a694c58686f727757335a413d227d6841c1f2d00e1cce0b839d2e197679cac7a15152ec244338032c7767f72c1332d49a65675a92934efa5e4869b2432a3e00abfc6819367af43949c2edc693b32d23ac0500000000"
}