{
  "txid": "bf9c272e608b3d9967c7aca7407286ccb187f774e36521fa684b9ce66d43bf60",
  "version": 2,
  "locktime": 0,
  "vin": [
    {
      "txid": "408c717bcde69ce0c9322a81ad4380b44278812b1c8c369d0d8abb362e7c2f99",
      "vout": 0,
      "prevout": {
        "scriptpubkey": "00143ce9ed4b2c7ccca25956a308aa37b2af960edda5",
        "scriptpubkey_asm": "OP_0 OP_PUSHBYTES_20 3ce9ed4b2c7ccca25956a308aa37b2af960edda5",
        "scriptpubkey_type": "v0_p2wpkh",
        "scriptpubkey_address": "bc1q8n576jev0nx2yk2k5vy25daj47tqahd9l95vwv",
        "value": 226813
      },
      "scriptsig": "",
      "scriptsig_asm": "",
      "witness": [
        "30450221008c1ecf7cfbc064214a0de883ce5a44fc2ed986d89dd59ba9c03b551f6469dff402200d1797ca34aafb17b2c8cee7a90eaf5a6a82efe8e906a60507af170facb5deac01",
        "03c2b289753c2b9606324feb7d9ed379ec4fa26e9b5d5d02b6c1fa31c96f36c8ea"
      ],
      "is_coinbase": false,
      "sequence": 4294967293
    }
  ],
  "vout": [
    {
      "scriptpubkey": "76a91479c42662578554a53c988f330843238b533a6cab88ac",
      "scriptpubkey_asm": "OP_DUP OP_HASH160 OP_PUSHBYTES_20 79c42662578554a53c988f330843238b533a6cab OP_EQUALVERIFY OP_CHECKSIG",
      "scriptpubkey_type": "p2pkh",
      "scriptpubkey_address": "1C6qjwzRuS4B4SJ5zq3czn2UtBJmLKvYfk",
      "value": 225593
    }
  ],
  "size": 195,
  "weight": 450,
  "fee": 1220,
  "status": {
    "confirmed": true,
    "block_height": 834464,
    "block_hash": "0000000000000000000177a0869a911a2b65c9bdcd5a8bcb02b68f305bee848e",
    "block_time": 1710308296
  },
  "hex": "02000000000101992f7c2e36bb8a0d9d368c1c2b817842b48043ad812a32c9e09ce6cd7b718c400000000000fdffffff0139710300000000001976a91479c42662578554a53c988f330843238b533a6cab88ac024830450221008c1ecf7cfbc064214a0de883ce5a44fc2ed986d89dd59ba9c03b551f6469dff402200d1797ca34aafb17b2c8cee7a90eaf5a6a82efe8e906a60507af170facb5deac012103c2b289753c2b9606324feb7d9ed379ec4fa26e9b5d5d02b6c1fa31c96f36c8ea00000000"
}