{
  "txid": "bf9f73f20a97c0a4f1f708643a4280f71cf3ea32ab54689e3b32fc47e86aaa99",
  "version": 2,
  "locktime": 0,
  "vin": [
    {
      "txid": "0a1670b737c51caebeb470170a84082ddd14d6e5f775d3d83eabf7ea826a30c7",
      "vout": 16,
      "prevout": {
        "scriptpubkey": "0014a0f5fef71dd68869604592becf347a977e2087d0",
        "scriptpubkey_asm": "OP_0 OP_PUSHBYTES_20 a0f5fef71dd68869604592becf347a977e2087d0",
        "scriptpubkey_type": "v0_p2wpkh",
        "scriptpubkey_address": "bc1q5r6laaca66yxjcz9j2lv7dr6jalzpp7skcpscv",
        "value": 10664302
      },
      "scriptsig": "",
      "scriptsig_asm": "",
      "witness": [
        "3045022100d4d2ca7821e2e2520c63a33136ebd75ff868fa265a2e62e8dd1de374e313668502204a44d637f56229b3369b70480e9befc6dc6719a550ac5d9c01c13c376dcc977901",
        "02756c3cebbccc3f4fa12909fec00d3e30b99a45c7c1e59509e25cd24cf0069ade"
      ],
      "is_coinbase": false,
      "sequence": 4294967295
    }
  ],
  "vout": [
    {
      "scriptpubkey": "0014a0f5fef71dd68869604592becf347a977e2087d0",
      "scriptpubkey_asm": "OP_0 OP_PUSHBYTES_20 a0f5fef71dd68869604592becf347a977e2087d0",
      "scriptpubkey_type": "v0_p2wpkh",
      "scriptpubkey_address": "bc1q5r6laaca66yxjcz9j2lv7dr6jalzpp7skcpscv",
      "value": 4909107
    },
    {
      "scriptpubkey": "0014a222be0f07455397e8c759d5e3f2a42b158d0f67",
      "scriptpubkey_asm": "OP_0 OP_PUSHBYTES_20 a222be0f07455397e8c759d5e3f2a42b158d0f67",
      "scriptpubkey_type": "v0_p2wpkh",
      "scriptpubkey_address": "bc1q5g3turc8g4fe06x8t8278u4y9v2c6rm8kmdnn5",
      "value": 2869409
    },
    {
      "scriptpubkey": "0014368c4eeb10af3a5067f2bceadacc6eab54efd0a4",
      "scriptpubkey_asm": "OP_0 OP_PUSHBYTES_20 368c4eeb10af3a5067f2bceadacc6eab54efd0a4",
      "scriptpubkey_type": "v0_p2wpkh",
      "scriptpubkey_address": "bc1qx6xya6cs4ua9qeljhn4d4nrw4d2wl59yad4q87",
      "value": 1441409
    },
    {
      "scriptpubkey": "00142e2f9065b71cb752d27fa263254a93e07afc271a",
      "scriptpubkey_asm": "OP_0 OP_PUSHBYTES_20 2e2f9065b71cb752d27fa263254a93e07afc271a",
      "scriptpubkey_type": "v0_p2wpkh",
      "scriptpubkey_address": "bc1q9cheqedhrjm495nl5f3j2j5nupa0cfc6puyg7k",
      "value": 1441409
    }
  ],
  "size": 285,
  "weight": 810,
  "fee": 2968,
  "status": {
    "confirmed": true,
    "block_height": 834638,
    "block_hash": "000000000000000000025f742c626208ac87e0b7d15054abb4a19ca2d735a54e",
    "block_time": 1710405325
  },
  "hex": "02000000000101c7306a82eaf7ab3ed8d375f7e5d614dd2d08840a1770b4beae1cc537b770160a1000000000ffffffff0433e84a0000000000160014a0f5fef71dd68869604592becf347a977e2087d0a1c82b0000000000160014a222be0f07455397e8c759d5e3f2a42b158d0f6781fe150000000000160014368c4eeb10af3a5067f2bceadacc6eab54efd0a481fe1500000000001600142e2f9065b71cb752d27fa263254a93e07afc271a02483045022100d4d2ca7821e2e2520c63a33136ebd75ff868fa265a2e62e8dd1de374e313668502204a44d637f56229b3369b70480e9befc6dc6719a550ac5d9c01c13c376dcc9779012102756c3cebbccc3f4fa12909fec00d3e30b99a45c7c1e59509e25cd24cf0069ade00000000"
}