{
  "txid": "bfa0ca24afb007e9a169c627c8c15aaf28379c091bae5a5adae7504d7d405cfa",
  "version": 2,
  "locktime": 834637,
  "vin": [
    {
      "txid": "60b0f1959b1c85b96d5bbfa03add6174f534c0a696665034aaf23d2b132301c8",
      "vout": 1,
      "prevout": {
        "scriptpubkey": "76a914e7b914a2bd1770cb01d1acdac2a20495faf75ee288ac",
        "scriptpubkey_asm": "OP_DUP OP_HASH160 OP_PUSHBYTES_20 e7b914a2bd1770cb01d1acdac2a20495faf75ee2 OP_EQUALVERIFY OP_CHECKSIG",
        "scriptpubkey_type": "p2pkh",
        "scriptpubkey_address": "1N8EowTZFhCDmnf69wLnvNSugyopCSKeCf",
        "value": 2400000
      },
      "scriptsig": "473044022050815072141b6e70244b1dc77a61a4b60d969aa53f9a4d5d443b0dc0ddce68860220641b7eeb13ce3297a18f87f8e4a3085f23b60a4668a33f0a1ee9748cd5ae015401210231e4ccc1d5c142958481dcd4cfb8aa0360db8156e3842ff43c9df9e49e6aaa54",
      "scriptsig_asm": "OP_PUSHBYTES_71 3044022050815072141b6e70244b1dc77a61a4b60d969aa53f9a4d5d443b0dc0ddce68860220641b7eeb13ce3297a18f87f8e4a3085f23b60a4668a33f0a1ee9748cd5ae015401 OP_PUSHBYTES_33 0231e4ccc1d5c142958481dcd4cfb8aa0360db8156e3842ff43c9df9e49e6aaa54",
      "is_coinbase": false,
      "sequence": 4294967293
    },
    {
      "txid": "df36abef451e4a8742555cd05db6fc1c69544d14811cd2939c08116bd07b2a8e",
      "vout": 0,
      "prevout": {
        "scriptpubkey": "76a914e7b914a2bd1770cb01d1acdac2a20495faf75ee288ac",
        "scriptpubkey_asm": "OP_DUP OP_HASH160 OP_PUSHBYTES_20 e7b914a2bd1770cb01d1acdac2a20495faf75ee2 OP_EQUALVERIFY OP_CHECKSIG",
        "scriptpubkey_type": "p2pkh",
        "scriptpubkey_address": "1N8EowTZFhCDmnf69wLnvNSugyopCSKeCf",
        "value": 114700
      },
      "scriptsig": "4730440220135d1ad06fc9aa72eb3984572955c2c00906fc34b5385ccf9ffd381a5ebe349e0220429963e523406f51c7a1c420dbb18bbb747a9b10ac2ac085ee9c2a560de68cf801210231e4ccc1d5c142958481dcd4cfb8aa0360db8156e3842ff43c9df9e49e6aaa54",
      "scriptsig_asm": "OP_PUSHBYTES_71 30440220135d1ad06fc9aa72eb3984572955c2c00906fc34b5385ccf9ffd381a5ebe349e0220429963e523406f51c7a1c420dbb18bbb747a9b10ac2ac085ee9c2a560de68cf801 OP_PUSHBYTES_33 0231e4ccc1d5c142958481dcd4cfb8aa0360db8156e3842ff43c9df9e49e6aaa54",
      "is_coinbase": false,
      "sequence": 4294967293
    }
  ],
  "vout": [
    {
      "scriptpubkey": "76a914e7b914a2bd1770cb01d1acdac2a20495faf75ee288ac",
      "scriptpubkey_asm": "OP_DUP OP_HASH160 OP_PUSHBYTES_20 e7b914a2bd1770cb01d1acdac2a20495faf75ee2 OP_EQUALVERIFY OP_CHECKSIG",
      "scriptpubkey_type": "p2pkh",
      "scriptpubkey_address": "1N8EowTZFhCDmnf69wLnvNSugyopCSKeCf",
      "value": 64600
    },
    {
      "scriptpubkey": "001478a3faeee9b42b87fb7353b1da32d379208094e5",
      "scriptpubkey_asm": "OP_0 OP_PUSHBYTES_20 78a3faeee9b42b87fb7353b1da32d379208094e5",
      "scriptpubkey_type": "v0_p2wpkh",
      "scriptpubkey_address": "bc1q0z3l4mhfks4c07mn2wca5vkn0ysgp989jye92e",
      "value": 2440000
    }
  ],
  "size": 369,
  "weight": 1476,
  "fee": 10100,
  "status": {
    "confirmed": true,
    "block_height": 834638,
    "block_hash": "000000000000000000025f742c626208ac87e0b7d15054abb4a19ca2d735a54e",
    "block_time": 1710405325
  },
  "hex": "0200000002c80123132b3df2aa34506696a6c034f57461dd3aa0bf5b6db9851c9b95f1b060010000006a473044022050815072141b6e70244b1dc77a61a4b60d969aa53f9a4d5d443b0dc0ddce68860220641b7eeb13ce3297a18f87f8e4a3085f23b60a4668a33f0a1ee9748cd5ae015401210231e4ccc1d5c142958481dcd4cfb8aa0360db8156e3842ff43c9df9e49e6aaa54fdffffff8e2a7bd06b11089c93d21c81144d54691cfcb65dd05c5542874a1e45efab36df000000006a4730440220135d1ad06fc9aa72eb3984572955c2c00906fc34b5385ccf9ffd381a5ebe349e0220429963e523406f51c7a1c420dbb18bbb747a9b10ac2ac085ee9c2a560de68cf801210231e4ccc1d5c142958481dcd4cfb8aa0360db8156e3842ff43c9df9e49e6aaa54fdffffff0258fc0000000000001976a914e7b914a2bd1770cb01d1acdac2a20495faf75ee288ac403b25000000000016001478a3faeee9b42b87fb7353b1da32d379208094e54dbc0c00"
}