{
  "txid": "bfa1f00d6374a9a688389d728be384f88fe82961e08507561b8def91f61b2a22",
  "version": 2,
  "locktime": 0,
  "vin": [
    {
      "txid": "b43a7bf127b7ec1b6e8e1c9137f0d02b192a2567fb1aa0a6d8104f0223a8d617",
      "vout": 0,
      "prevout": {
        "scriptpubkey": "a9149f92806a2d6dfecf27ab236c1bb8a1e62665d08787",
        "scriptpubkey_asm": "OP_HASH160 OP_PUSHBYTES_20 9f92806a2d6dfecf27ab236c1bb8a1e62665d087 OP_EQUAL",
        "scriptpubkey_type": "p2sh",
        "scriptpubkey_address": "3GEks9zPz62XViSe4vAwkE96GGR4wZpiiF",
        "value": 9200000
      },
      "scriptsig": "160014a884aebe1a854f5677051c3c634f0f0b562ae2b2",
      "scriptsig_asm": "OP_PUSHBYTES_22 0014a884aebe1a854f5677051c3c634f0f0b562ae2b2",
      "witness": [
        "304502210080d565e3d938f26333b86c2497c24f41de49188eea38965976d3cff9ea11d63402202b49453caeff55108a9cf3768a97e5f7acbde9c0705a83aee630dea289c78d0f01",
        "03ac417c32813db76d16989e0a5f931ccb16a6aa5d5bdf41c82b3892d2d37a4fe5"
      ],
      "is_coinbase": false,
      "sequence": 4294967295,
      "inner_redeemscript_asm": "OP_0 OP_PUSHBYTES_20 a884aebe1a854f5677051c3c634f0f0b562ae2b2"
    }
  ],
  "vout": [
    {
      "scriptpubkey": "a9149f92806a2d6dfecf27ab236c1bb8a1e62665d08787",
      "scriptpubkey_asm": "OP_HASH160 OP_PUSHBYTES_20 9f92806a2d6dfecf27ab236c1bb8a1e62665d087 OP_EQUAL",
      "scriptpubkey_type": "p2sh",
      "scriptpubkey_address": "3GEks9zPz62XViSe4vAwkE96GGR4wZpiiF",
      "value": 600
    },
    {
      "scriptpubkey": "a9149f92806a2d6dfecf27ab236c1bb8a1e62665d08787",
      "scriptpubkey_asm": "OP_HASH160 OP_PUSHBYTES_20 9f92806a2d6dfecf27ab236c1bb8a1e62665d087 OP_EQUAL",
      "scriptpubkey_type": "p2sh",
      "scriptpubkey_address": "3GEks9zPz62XViSe4vAwkE96GGR4wZpiiF",
      "value": 600
    },
    {
      "scriptpubkey": "a9149f92806a2d6dfecf27ab236c1bb8a1e62665d08787",
      "scriptpubkey_asm": "OP_HASH160 OP_PUSHBYTES_20 9f92806a2d6dfecf27ab236c1bb8a1e62665d087 OP_EQUAL",
      "scriptpubkey_type": "p2sh",
      "scriptpubkey_address": "3GEks9zPz62XViSe4vAwkE96GGR4wZpiiF",
      "value": 600
    },
    {
      "scriptpubkey": "a9149f92806a2d6dfecf27ab236c1bb8a1e62665d08787",
      "scriptpubkey_asm": "OP_HASH160 OP_PUSHBYTES_20 9f92806a2d6dfecf27ab236c1bb8a1e62665d087 OP_EQUAL",
      "scriptpubkey_type": "p2sh",
      "scriptpubkey_address": "3GEks9zPz62XViSe4vAwkE96GGR4wZpiiF",
      "value": 600
    },
    {
      "scriptpubkey": "a9149f92806a2d6dfecf27ab236c1bb8a1e62665d08787",
      "scriptpubkey_asm": "OP_HASH160 OP_PUSHBYTES_20 9f92806a2d6dfecf27ab236c1bb8a1e62665d087 OP_EQUAL",
      "scriptpubkey_type": "p2sh",
      "scriptpubkey_address": "3GEks9zPz62XViSe4vAwkE96GGR4wZpiiF",
      "value": 600
    },
    {
      "scriptpubkey": "a9149f92806a2d6dfecf27ab236c1bb8a1e62665d08787",
      "scriptpubkey_asm": "OP_HASH160 OP_PUSHBYTES_20 9f92806a2d6dfecf27ab236c1bb8a1e62665d087 OP_EQUAL",
      "scriptpubkey_type": "p2sh",
      "scriptpubkey_address": "3GEks9zPz62XViSe4vAwkE96GGR4wZpiiF",
      "value": 600
    },
    {
      "scriptpubkey": "a9149f92806a2d6dfecf27ab236c1bb8a1e62665d08787",
      "scriptpubkey_asm": "OP_HASH160 OP_PUSHBYTES_20 9f92806a2d6dfecf27ab236c1bb8a1e62665d087 OP_EQUAL",
      "scriptpubkey_type": "p2sh",
      "scriptpubkey_address": "3GEks9zPz62XViSe4vAwkE96GGR4wZpiiF",
      "value": 600
    },
    {
      "scriptpubkey": "a9149f92806a2d6dfecf27ab236c1bb8a1e62665d08787",
      "scriptpubkey_asm": "OP_HASH160 OP_PUSHBYTES_20 9f92806a2d6dfecf27ab236c1bb8a1e62665d087 OP_EQUAL",
      "scriptpubkey_type": "p2sh",
      "scriptpubkey_address": "3GEks9zPz62XViSe4vAwkE96GGR4wZpiiF",
      "value": 600
    },
    {
      "scriptpubkey": "a9149f92806a2d6dfecf27ab236c1bb8a1e62665d08787",
      "scriptpubkey_asm": "OP_HASH160 OP_PUSHBYTES_20 9f92806a2d6dfecf27ab236c1bb8a1e62665d087 OP_EQUAL",
      "scriptpubkey_type": "p2sh",
      "scriptpubkey_address": "3GEks9zPz62XViSe4vAwkE96GGR4wZpiiF",
      "value": 600
    },
    {
      "scriptpubkey": "a9149f92806a2d6dfecf27ab236c1bb8a1e62665d08787",
      "scriptpubkey_asm": "OP_HASH160 OP_PUSHBYTES_20 9f92806a2d6dfecf27ab236c1bb8a1e62665d087 OP_EQUAL",
      "scriptpubkey_type": "p2sh",
      "scriptpubkey_address": "3GEks9zPz62XViSe4vAwkE96GGR4wZpiiF",
      "value": 600
    },
    {
      "scriptpubkey": "a9149f92806a2d6dfecf27ab236c1bb8a1e62665d08787",
      "scriptpubkey_asm": "OP_HASH160 OP_PUSHBYTES_20 9f92806a2d6dfecf27ab236c1bb8a1e62665d087 OP_EQUAL",
      "scriptpubkey_type": "p2sh",
      "scriptpubkey_address": "3GEks9zPz62XViSe4vAwkE96GGR4wZpiiF",
      "value": 9187190
    }
  ],
  "size": 536,
  "weight": 1814,
  "fee": 6810,
  "status": {
    "confirmed": true,
    "block_height": 834638,
    "block_hash": "000000000000000000025f742c626208ac87e0b7d15054abb4a19ca2d735a54e",
    "block_time": 1710405325
  },
  "hex": "0200000000010117d6a823024f10d8a6a01afb67252a192bd0f037911c8e6e1becb727f17b3ab40000000017160014a884aebe1a854f5677051c3c634f0f0b562ae2b2ffffffff0b580200000000000017a9149f92806a2d6dfecf27ab236c1bb8a1e62665d08787580200000000000017a9149f92806a2d6dfecf27ab236c1bb8a1e62665d08787580200000000000017a9149f92806a2d6dfecf27ab236c1bb8a1e62665d08787580200000000000017a9149f92806a2d6dfecf27ab236c1bb8a1e62665d08787580200000000000017a9149f92806a2d6dfecf27ab236c1bb8a1e62665d08787580200000000000017a9149f92806a2d6dfecf27ab236c1bb8a1e62665d08787580200000000000017a9149f92806a2d6dfecf27ab236c1bb8a1e62665d08787580200000000000017a9149f92806a2d6dfecf27ab236c1bb8a1e62665d08787580200000000000017a9149f92806a2d6dfecf27ab236c1bb8a1e62665d08787580200000000000017a9149f92806a2d6dfecf27ab236c1bb8a1e62665d08787762f8c000000000017a9149f92806a2d6dfecf27ab236c1bb8a1e62665d087870248304502210080d565e3d938f26333b86c2497c24f41de49188eea38965976d3cff9ea11d63402202b49453caeff55108a9cf3768a97e5f7acbde9c0705a83aee630dea289c78d0f012103ac417c32813db76d16989e0a5f931ccb16a6aa5d5bdf41c82b3892d2d37a4fe500000000"
}