{
  "txid": "bfac9e7574f5ba6ab95a7c41a55dd3730cf5778b10aa804c572bead9f9e7fbbe",
  "version": 2,
  "locktime": 0,
  "vin": [
    {
      "txid": "e054c137725b7a5d163dade8f5cd68c0927a2e8b00d920927dab9a7ba934ce5f",
      "vout": 14,
      "prevout": {
        "scriptpubkey": "5120440202445e15792ce5234ee743076e58bd2d809ce20a1cf173856e41a99ca49e",
        "scriptpubkey_asm": "OP_PUSHNUM_1 OP_PUSHBYTES_32 440202445e15792ce5234ee743076e58bd2d809ce20a1cf173856e41a99ca49e",
        "scriptpubkey_type": "v1_p2tr",
        "scriptpubkey_address": "bc1pgspqy3z7z4ujeefrfmn5xpmwtz7jmqyuug9peutns4hyr2vu5j0qu80gxf",
        "value": 2658
      },
      "scriptsig": "",
      "scriptsig_asm": "",
      "witness": [
        "668846c338a5b0382554483724b5216908478399c7f6af73b8385862e711fbff3d3139ea5a7529148c2427b87211fae85752cb8c78250a6d1fd79e97c36102d8",
        "2070b48a05151ab2e66e229fc0c27c2fa4cafde2be0dd4cf848a96ac8ba71563d5ac0063036f726401011e6170706c69636174696f6e2f6a736f6e3b636861727365743d7574662d38004cbf7b2270223a22706f772d3230222c226f70223a226d696e74222c227469636b223a2250455045222c22616d74223a2231303030222c22736f6c7574696f6e223a22504550453a6263317139736a36303977756e7468646a636d7a746a796379766475616e653071716b78726e773932653a303030303030303030303030303030303030303139393431613561653132383937363539383134343239323533333030353762306461393666336465613163353a3236333434363832373033227d68",
        "c0a0e509a599b6542378e5ac7959d344a1bebc95ec9899fd4ccf1904beefe3f047"
      ],
      "is_coinbase": false,
      "sequence": 4294967295
    }
  ],
  "vout": [
    {
      "scriptpubkey": "00142c25a795dc9aeed963625c898231bcecf2f002c6",
      "scriptpubkey_asm": "OP_0 OP_PUSHBYTES_20 2c25a795dc9aeed963625c898231bcecf2f002c6",
      "scriptpubkey_type": "v0_p2wpkh",
      "scriptpubkey_address": "bc1q9sj609wunthdjcmztjycyvduane0qqkxrnw92e",
      "value": 546
    }
  ],
  "size": 455,
  "weight": 701,
  "fee": 2112,
  "status": {
    "confirmed": true,
    "block_height": 834460,
    "block_hash": "00000000000000000000484a79b643b2524bbce82e5d8a442013fa5b8905ed98",
    "block_time": 1710307468
  },
  "hex": "020000000001015fce34a97b9aab7d9220d9008b2e7a92c068cdf5e8ad3d165d7a5b7237c154e00e00000000ffffffff0122020000000000001600142c25a795dc9aeed963625c898231bcecf2f002c60340668846c338a5b0382554483724b5216908478399c7f6af73b8385862e711fbff3d3139ea5a7529148c2427b87211fae85752cb8c78250a6d1fd79e97c36102d8fd0c012070b48a05151ab2e66e229fc0c27c2fa4cafde2be0dd4cf848a96ac8ba71563d5ac0063036f726401011e6170706c69636174696f6e2f6a736f6e3b636861727365743d7574662d38004cbf7b2270223a22706f772d3230222c226f70223a226d696e74222c227469636b223a2250455045222c22616d74223a2231303030222c22736f6c7574696f6e223a22504550453a6263317139736a36303977756e7468646a636d7a746a796379766475616e653071716b78726e773932653a303030303030303030303030303030303030303139393431613561653132383937363539383134343239323533333030353762306461393666336465613163353a3236333434363832373033227d6821c0a0e509a599b6542378e5ac7959d344a1bebc95ec9899fd4ccf1904beefe3f04700000000"
}