{
  "txid": "bfaf872a9ec5fe01885051ab0ad65f8d1403b0f9fbae845cb84be0c31de61da8",
  "version": 2,
  "locktime": 0,
  "vin": [
    {
      "txid": "5cf5838ec1a20f69603899696bd1c6cbe051cea9f65c7c39518f6eebb0932a49",
      "vout": 11,
      "prevout": {
        "scriptpubkey": "512051eee02be7480f6acfacc9a63b9f36bc2abf238f3534668612935f662970b69b",
        "scriptpubkey_asm": "OP_PUSHNUM_1 OP_PUSHBYTES_32 51eee02be7480f6acfacc9a63b9f36bc2abf238f3534668612935f662970b69b",
        "scriptpubkey_type": "v1_p2tr",
        "scriptpubkey_address": "bc1p28hwq2l8fq8k4navexnrh8ekhs4t7gu0x56xdpsjjd0kv2tsk6dsplldcv",
        "value": 947554
      },
      "scriptsig": "",
      "scriptsig_asm": "",
      "witness": [
        "6a91dffb6b53b30565f48700bff9b6172e02273ff5b7878a140bb86966d01887e0870c545436ac04a2a8c5228ce384249ec875e74b98b3fbc0681f47861a6c22",
        "201867ace60af4739c9066a71109304e22bafa1dff5fc016781ed116f39ece057bac",
        "c01867ace60af4739c9066a71109304e22bafa1dff5fc016781ed116f39ece057b"
      ],
      "is_coinbase": false,
      "sequence": 4294967293
    },
    {
      "txid": "4ed31f2e543aca443b3b64b516838b001fb0fb2fcaa656366136796fa3ac1454",
      "vout": 1,
      "prevout": {
        "scriptpubkey": "512051eee02be7480f6acfacc9a63b9f36bc2abf238f3534668612935f662970b69b",
        "scriptpubkey_asm": "OP_PUSHNUM_1 OP_PUSHBYTES_32 51eee02be7480f6acfacc9a63b9f36bc2abf238f3534668612935f662970b69b",
        "scriptpubkey_type": "v1_p2tr",
        "scriptpubkey_address": "bc1p28hwq2l8fq8k4navexnrh8ekhs4t7gu0x56xdpsjjd0kv2tsk6dsplldcv",
        "value": 1052446
      },
      "scriptsig": "",
      "scriptsig_asm": "",
      "witness": [
        "244d4c8106a7e80506bf78376747bf2673b83bc5eba3907a00da8ea378ceedb52e07ffee640b9de1d5a7ccfa2712cdd4e23d29678100776d6477cb854c951cea",
        "201867ace60af4739c9066a71109304e22bafa1dff5fc016781ed116f39ece057bac",
        "c01867ace60af4739c9066a71109304e22bafa1dff5fc016781ed116f39ece057b"
      ],
      "is_coinbase": false,
      "sequence": 4294967293
    }
  ],
  "vout": [
    {
      "scriptpubkey": "5120cd1d7cf6666da5073b2ca884abf0955839d289e0cc575bd1e79ec491b421064a",
      "scriptpubkey_asm": "OP_PUSHNUM_1 OP_PUSHBYTES_32 cd1d7cf6666da5073b2ca884abf0955839d289e0cc575bd1e79ec491b421064a",
      "scriptpubkey_type": "v1_p2tr",
      "scriptpubkey_address": "bc1pe5wheanxdkjswwev4zz2huy4tqua9z0qe3t4h508nmzfrdppqe9q4yf8xx",
      "value": 1711
    },
    {
      "scriptpubkey": "5120cd1d7cf6666da5073b2ca884abf0955839d289e0cc575bd1e79ec491b421064a",
      "scriptpubkey_asm": "OP_PUSHNUM_1 OP_PUSHBYTES_32 cd1d7cf6666da5073b2ca884abf0955839d289e0cc575bd1e79ec491b421064a",
      "scriptpubkey_type": "v1_p2tr",
      "scriptpubkey_address": "bc1pe5wheanxdkjswwev4zz2huy4tqua9z0qe3t4h508nmzfrdppqe9q4yf8xx",
      "value": 1711
    },
    {
      "scriptpubkey": "5120cd1d7cf6666da5073b2ca884abf0955839d289e0cc575bd1e79ec491b421064a",
      "scriptpubkey_asm": "OP_PUSHNUM_1 OP_PUSHBYTES_32 cd1d7cf6666da5073b2ca884abf0955839d289e0cc575bd1e79ec491b421064a",
      "scriptpubkey_type": "v1_p2tr",
      "scriptpubkey_address": "bc1pe5wheanxdkjswwev4zz2huy4tqua9z0qe3t4h508nmzfrdppqe9q4yf8xx",
      "value": 1711
    },
    {
      "scriptpubkey": "5120cd1d7cf6666da5073b2ca884abf0955839d289e0cc575bd1e79ec491b421064a",
      "scriptpubkey_asm": "OP_PUSHNUM_1 OP_PUSHBYTES_32 cd1d7cf6666da5073b2ca884abf0955839d289e0cc575bd1e79ec491b421064a",
      "scriptpubkey_type": "v1_p2tr",
      "scriptpubkey_address": "bc1pe5wheanxdkjswwev4zz2huy4tqua9z0qe3t4h508nmzfrdppqe9q4yf8xx",
      "value": 1711
    },
    {
      "scriptpubkey": "5120cd1d7cf6666da5073b2ca884abf0955839d289e0cc575bd1e79ec491b421064a",
      "scriptpubkey_asm": "OP_PUSHNUM_1 OP_PUSHBYTES_32 cd1d7cf6666da5073b2ca884abf0955839d289e0cc575bd1e79ec491b421064a",
      "scriptpubkey_type": "v1_p2tr",
      "scriptpubkey_address": "bc1pe5wheanxdkjswwev4zz2huy4tqua9z0qe3t4h508nmzfrdppqe9q4yf8xx",
      "value": 1711
    },
    {
      "scriptpubkey": "5120cd1d7cf6666da5073b2ca884abf0955839d289e0cc575bd1e79ec491b421064a",
      "scriptpubkey_asm": "OP_PUSHNUM_1 OP_PUSHBYTES_32 cd1d7cf6666da5073b2ca884abf0955839d289e0cc575bd1e79ec491b421064a",
      "scriptpubkey_type": "v1_p2tr",
      "scriptpubkey_address": "bc1pe5wheanxdkjswwev4zz2huy4tqua9z0qe3t4h508nmzfrdppqe9q4yf8xx",
      "value": 1711
    },
    {
      "scriptpubkey": "5120cd1d7cf6666da5073b2ca884abf0955839d289e0cc575bd1e79ec491b421064a",
      "scriptpubkey_asm": "OP_PUSHNUM_1 OP_PUSHBYTES_32 cd1d7cf6666da5073b2ca884abf0955839d289e0cc575bd1e79ec491b421064a",
      "scriptpubkey_type": "v1_p2tr",
      "scriptpubkey_address": "bc1pe5wheanxdkjswwev4zz2huy4tqua9z0qe3t4h508nmzfrdppqe9q4yf8xx",
      "value": 1711
    },
    {
      "scriptpubkey": "5120cd1d7cf6666da5073b2ca884abf0955839d289e0cc575bd1e79ec491b421064a",
      "scriptpubkey_asm": "OP_PUSHNUM_1 OP_PUSHBYTES_32 cd1d7cf6666da5073b2ca884abf0955839d289e0cc575bd1e79ec491b421064a",
      "scriptpubkey_type": "v1_p2tr",
      "scriptpubkey_address": "bc1pe5wheanxdkjswwev4zz2huy4tqua9z0qe3t4h508nmzfrdppqe9q4yf8xx",
      "value": 1711
    },
    {
      "scriptpubkey": "5120cd1d7cf6666da5073b2ca884abf0955839d289e0cc575bd1e79ec491b421064a",
      "scriptpubkey_asm": "OP_PUSHNUM_1 OP_PUSHBYTES_32 cd1d7cf6666da5073b2ca884abf0955839d289e0cc575bd1e79ec491b421064a",
      "scriptpubkey_type": "v1_p2tr",
      "scriptpubkey_address": "bc1pe5wheanxdkjswwev4zz2huy4tqua9z0qe3t4h508nmzfrdppqe9q4yf8xx",
      "value": 1711
    },
    {
      "scriptpubkey": "5120cd1d7cf6666da5073b2ca884abf0955839d289e0cc575bd1e79ec491b421064a",
      "scriptpubkey_asm": "OP_PUSHNUM_1 OP_PUSHBYTES_32 cd1d7cf6666da5073b2ca884abf0955839d289e0cc575bd1e79ec491b421064a",
      "scriptpubkey_type": "v1_p2tr",
      "scriptpubkey_address": "bc1pe5wheanxdkjswwev4zz2huy4tqua9z0qe3t4h508nmzfrdppqe9q4yf8xx",
      "value": 1711
    },
    {
      "scriptpubkey": "5120cd1d7cf6666da5073b2ca884abf0955839d289e0cc575bd1e79ec491b421064a",
      "scriptpubkey_asm": "OP_PUSHNUM_1 OP_PUSHBYTES_32 cd1d7cf6666da5073b2ca884abf0955839d289e0cc575bd1e79ec491b421064a",
      "scriptpubkey_type": "v1_p2tr",
      "scriptpubkey_address": "bc1pe5wheanxdkjswwev4zz2huy4tqua9z0qe3t4h508nmzfrdppqe9q4yf8xx",
      "value": 1711
    },
    {
      "scriptpubkey": "5120cd1d7cf6666da5073b2ca884abf0955839d289e0cc575bd1e79ec491b421064a",
      "scriptpubkey_asm": "OP_PUSHNUM_1 OP_PUSHBYTES_32 cd1d7cf6666da5073b2ca884abf0955839d289e0cc575bd1e79ec491b421064a",
      "scriptpubkey_type": "v1_p2tr",
      "scriptpubkey_address": "bc1pe5wheanxdkjswwev4zz2huy4tqua9z0qe3t4h508nmzfrdppqe9q4yf8xx",
      "value": 1711
    },
    {
      "scriptpubkey": "5120cd1d7cf6666da5073b2ca884abf0955839d289e0cc575bd1e79ec491b421064a",
      "scriptpubkey_asm": "OP_PUSHNUM_1 OP_PUSHBYTES_32 cd1d7cf6666da5073b2ca884abf0955839d289e0cc575bd1e79ec491b421064a",
      "scriptpubkey_type": "v1_p2tr",
      "scriptpubkey_address": "bc1pe5wheanxdkjswwev4zz2huy4tqua9z0qe3t4h508nmzfrdppqe9q4yf8xx",
      "value": 1711
    },
    {
      "scriptpubkey": "5120cd1d7cf6666da5073b2ca884abf0955839d289e0cc575bd1e79ec491b421064a",
      "scriptpubkey_asm": "OP_PUSHNUM_1 OP_PUSHBYTES_32 cd1d7cf6666da5073b2ca884abf0955839d289e0cc575bd1e79ec491b421064a",
      "scriptpubkey_type": "v1_p2tr",
      "scriptpubkey_address": "bc1pe5wheanxdkjswwev4zz2huy4tqua9z0qe3t4h508nmzfrdppqe9q4yf8xx",
      "value": 1711
    },
    {
      "scriptpubkey": "5120cd1d7cf6666da5073b2ca884abf0955839d289e0cc575bd1e79ec491b421064a",
      "scriptpubkey_asm": "OP_PUSHNUM_1 OP_PUSHBYTES_32 cd1d7cf6666da5073b2ca884abf0955839d289e0cc575bd1e79ec491b421064a",
      "scriptpubkey_type": "v1_p2tr",
      "scriptpubkey_address": "bc1pe5wheanxdkjswwev4zz2huy4tqua9z0qe3t4h508nmzfrdppqe9q4yf8xx",
      "value": 1711
    },
    {
      "scriptpubkey": "5120cd1d7cf6666da5073b2ca884abf0955839d289e0cc575bd1e79ec491b421064a",
      "scriptpubkey_asm": "OP_PUSHNUM_1 OP_PUSHBYTES_32 cd1d7cf6666da5073b2ca884abf0955839d289e0cc575bd1e79ec491b421064a",
      "scriptpubkey_type": "v1_p2tr",
      "scriptpubkey_address": "bc1pe5wheanxdkjswwev4zz2huy4tqua9z0qe3t4h508nmzfrdppqe9q4yf8xx",
      "value": 1711
    },
    {
      "scriptpubkey": "5120cd1d7cf6666da5073b2ca884abf0955839d289e0cc575bd1e79ec491b421064a",
      "scriptpubkey_asm": "OP_PUSHNUM_1 OP_PUSHBYTES_32 cd1d7cf6666da5073b2ca884abf0955839d289e0cc575bd1e79ec491b421064a",
      "scriptpubkey_type": "v1_p2tr",
      "scriptpubkey_address": "bc1pe5wheanxdkjswwev4zz2huy4tqua9z0qe3t4h508nmzfrdppqe9q4yf8xx",
      "value": 1711
    },
    {
      "scriptpubkey": "5120cd1d7cf6666da5073b2ca884abf0955839d289e0cc575bd1e79ec491b421064a",
      "scriptpubkey_asm": "OP_PUSHNUM_1 OP_PUSHBYTES_32 cd1d7cf6666da5073b2ca884abf0955839d289e0cc575bd1e79ec491b421064a",
      "scriptpubkey_type": "v1_p2tr",
      "scriptpubkey_address": "bc1pe5wheanxdkjswwev4zz2huy4tqua9z0qe3t4h508nmzfrdppqe9q4yf8xx",
      "value": 1711
    },
    {
      "scriptpubkey": "5120cd1d7cf6666da5073b2ca884abf0955839d289e0cc575bd1e79ec491b421064a",
      "scriptpubkey_asm": "OP_PUSHNUM_1 OP_PUSHBYTES_32 cd1d7cf6666da5073b2ca884abf0955839d289e0cc575bd1e79ec491b421064a",
      "scriptpubkey_type": "v1_p2tr",
      "scriptpubkey_address": "bc1pe5wheanxdkjswwev4zz2huy4tqua9z0qe3t4h508nmzfrdppqe9q4yf8xx",
      "value": 1711
    },
    {
      "scriptpubkey": "5120cd1d7cf6666da5073b2ca884abf0955839d289e0cc575bd1e79ec491b421064a",
      "scriptpubkey_asm": "OP_PUSHNUM_1 OP_PUSHBYTES_32 cd1d7cf6666da5073b2ca884abf0955839d289e0cc575bd1e79ec491b421064a",
      "scriptpubkey_type": "v1_p2tr",
      "scriptpubkey_address": "bc1pe5wheanxdkjswwev4zz2huy4tqua9z0qe3t4h508nmzfrdppqe9q4yf8xx",
      "value": 1711
    },
    {
      "scriptpubkey": "5120cd1d7cf6666da5073b2ca884abf0955839d289e0cc575bd1e79ec491b421064a",
      "scriptpubkey_asm": "OP_PUSHNUM_1 OP_PUSHBYTES_32 cd1d7cf6666da5073b2ca884abf0955839d289e0cc575bd1e79ec491b421064a",
      "scriptpubkey_type": "v1_p2tr",
      "scriptpubkey_address": "bc1pe5wheanxdkjswwev4zz2huy4tqua9z0qe3t4h508nmzfrdppqe9q4yf8xx",
      "value": 1711
    },
    {
      "scriptpubkey": "5120cd1d7cf6666da5073b2ca884abf0955839d289e0cc575bd1e79ec491b421064a",
      "scriptpubkey_asm": "OP_PUSHNUM_1 OP_PUSHBYTES_32 cd1d7cf6666da5073b2ca884abf0955839d289e0cc575bd1e79ec491b421064a",
      "scriptpubkey_type": "v1_p2tr",
      "scriptpubkey_address": "bc1pe5wheanxdkjswwev4zz2huy4tqua9z0qe3t4h508nmzfrdppqe9q4yf8xx",
      "value": 1711
    },
    {
      "scriptpubkey": "5120cd1d7cf6666da5073b2ca884abf0955839d289e0cc575bd1e79ec491b421064a",
      "scriptpubkey_asm": "OP_PUSHNUM_1 OP_PUSHBYTES_32 cd1d7cf6666da5073b2ca884abf0955839d289e0cc575bd1e79ec491b421064a",
      "scriptpubkey_type": "v1_p2tr",
      "scriptpubkey_address": "bc1pe5wheanxdkjswwev4zz2huy4tqua9z0qe3t4h508nmzfrdppqe9q4yf8xx",
      "value": 1711
    },
    {
      "scriptpubkey": "5120cd1d7cf6666da5073b2ca884abf0955839d289e0cc575bd1e79ec491b421064a",
      "scriptpubkey_asm": "OP_PUSHNUM_1 OP_PUSHBYTES_32 cd1d7cf6666da5073b2ca884abf0955839d289e0cc575bd1e79ec491b421064a",
      "scriptpubkey_type": "v1_p2tr",
      "scriptpubkey_address": "bc1pe5wheanxdkjswwev4zz2huy4tqua9z0qe3t4h508nmzfrdppqe9q4yf8xx",
      "value": 1711
    },
    {
      "scriptpubkey": "5120cd1d7cf6666da5073b2ca884abf0955839d289e0cc575bd1e79ec491b421064a",
      "scriptpubkey_asm": "OP_PUSHNUM_1 OP_PUSHBYTES_32 cd1d7cf6666da5073b2ca884abf0955839d289e0cc575bd1e79ec491b421064a",
      "scriptpubkey_type": "v1_p2tr",
      "scriptpubkey_address": "bc1pe5wheanxdkjswwev4zz2huy4tqua9z0qe3t4h508nmzfrdppqe9q4yf8xx",
      "value": 1711
    },
    {
      "scriptpubkey": "512051eee02be7480f6acfacc9a63b9f36bc2abf238f3534668612935f662970b69b",
      "scriptpubkey_asm": "OP_PUSHNUM_1 OP_PUSHBYTES_32 51eee02be7480f6acfacc9a63b9f36bc2abf238f3534668612935f662970b69b",
      "scriptpubkey_type": "v1_p2tr",
      "scriptpubkey_address": "bc1p28hwq2l8fq8k4navexnrh8ekhs4t7gu0x56xdpsjjd0kv2tsk6dsplldcv",
      "value": 1940994
    }
  ],
  "size": 1482,
  "weight": 5112,
  "fee": 16231,
  "status": {
    "confirmed": true,
    "block_height": 834460,
    "block_hash": "00000000000000000000484a79b643b2524bbce82e5d8a442013fa5b8905ed98",
    "block_time": 1710307468
  },
  "hex": "02000000000102492a93b0eb6e8f51397c5cf6a9ce51e0cbc6d16b69993860690fa2c18e83f55c0b00000000fdffffff5414aca36f7936613656a6ca2ffbb01f008b8316b5643b3b44ca3a542e1fd34e0100000000fdffffff1aaf06000000000000225120cd1d7cf6666da5073b2ca884abf0955839d289e0cc575bd1e79ec491b421064aaf06000000000000225120cd1d7cf6666da5073b2ca884abf0955839d289e0cc575bd1e79ec491b421064aaf06000000000000225120cd1d7cf6666da5073b2ca884abf0955839d289e0cc575bd1e79ec491b421064aaf06000000000000225120cd1d7cf6666da5073b2ca884abf0955839d289e0cc575bd1e79ec491b421064aaf06000000000000225120cd1d7cf6666da5073b2ca884abf0955839d289e0cc575bd1e79ec491b421064aaf06000000000000225120cd1d7cf6666da5073b2ca884abf0955839d289e0cc575bd1e79ec491b421064aaf06000000000000225120cd1d7cf6666da5073b2ca884abf0955839d289e0cc575bd1e79ec491b421064aaf06000000000000225120cd1d7cf6666da5073b2ca884abf0955839d289e0cc575bd1e79ec491b421064aaf06000000000000225120cd1d7cf6666da5073b2ca884abf0955839d289e0cc575bd1e79ec491b421064aaf06000000000000225120cd1d7cf6666da5073b2ca884abf0955839d289e0cc575bd1e79ec491b421064aaf06000000000000225120cd1d7cf6666da5073b2ca884abf0955839d289e0cc575bd1e79ec491b421064aaf06000000000000225120cd1d7cf6666da5073b2ca884abf0955839d289e0cc575bd1e79ec491b421064aaf06000000000000225120cd1d7cf6666da5073b2ca884abf0955839d289e0cc575bd1e79ec491b421064aaf06000000000000225120cd1d7cf6666da5073b2ca884abf0955839d289e0cc575bd1e79ec491b421064aaf06000000000000225120cd1d7cf6666da5073b2ca884abf0955839d289e0cc575bd1e79ec491b421064aaf06000000000000225120cd1d7cf6666da5073b2ca884abf0955839d289e0cc575bd1e79ec491b421064aaf06000000000000225120cd1d7cf6666da5073b2ca884abf0955839d289e0cc575bd1e79ec491b421064aaf06000000000000225120cd1d7cf6666da5073b2ca884abf0955839d289e0cc575bd1e79ec491b421064aaf06000000000000225120cd1d7cf6666da5073b2ca884abf0955839d289e0cc575bd1e79ec491b421064aaf06000000000000225120cd1d7cf6666da5073b2ca884abf0955839d289e0cc575bd1e79ec491b421064aaf06000000000000225120cd1d7cf6666da5073b2ca884abf0955839d289e0cc575bd1e79ec491b421064aaf06000000000000225120cd1d7cf6666da5073b2ca884abf0955839d289e0cc575bd1e79ec491b421064aaf06000000000000225120cd1d7cf6666da5073b2ca884abf0955839d289e0cc575bd1e79ec491b421064aaf06000000000000225120cd1d7cf6666da5073b2ca884abf0955839d289e0cc575bd1e79ec491b421064aaf06000000000000225120cd1d7cf6666da5073b2ca884abf0955839d289e0cc575bd1e79ec491b421064a029e1d000000000022512051eee02be7480f6acfacc9a63b9f36bc2abf238f3534668612935f662970b69b03406a91dffb6b53b30565f48700bff9b6172e02273ff5b7878a140bb86966d01887e0870c545436ac04a2a8c5228ce384249ec875e74b98b3fbc0681f47861a6c2222201867ace60af4739c9066a71109304e22bafa1dff5fc016781ed116f39ece057bac21c01867ace60af4739c9066a71109304e22bafa1dff5fc016781ed116f39ece057b0340244d4c8106a7e80506bf78376747bf2673b83bc5eba3907a00da8ea378ceedb52e07ffee640b9de1d5a7ccfa2712cdd4e23d29678100776d6477cb854c951cea22201867ace60af4739c9066a71109304e22bafa1dff5fc016781ed116f39ece057bac21c01867ace60af4739c9066a71109304e22bafa1dff5fc016781ed116f39ece057b00000000"
}