{
  "txid": "bfb16aa39bdcc9f429a27f16138ec7362e0becac0788969d24dbd13b6c885902",
  "version": 1,
  "locktime": 0,
  "vin": [
    {
      "txid": "191166826f728b99beaeb1cbf6967ea76238e7135149d6e815c8bb20b56ea60a",
      "vout": 1,
      "prevout": {
        "scriptpubkey": "0014e98ff30542ed54df5ecf90288cb46763eedd38a9",
        "scriptpubkey_asm": "OP_0 OP_PUSHBYTES_20 e98ff30542ed54df5ecf90288cb46763eedd38a9",
        "scriptpubkey_type": "v0_p2wpkh",
        "scriptpubkey_address": "bc1qax8lxp2za42d7hk0jq5gedr8v0hd6w9fu2fguv",
        "value": 898621
      },
      "scriptsig": "",
      "scriptsig_asm": "",
      "witness": [
        "3045022100c34c577dc408854071a853947ef4617d13901d00439e048d3275fb512dccd3d3022010f8d87a921cf343337906c1478bf4e218b21b2e661f50a40c105baea1d4377601",
        "03289c31a120acf437615f30046bb6c1167e400337a35e93d10136a4128efe2318"
      ],
      "is_coinbase": false,
      "sequence": 4294967295
    }
  ],
  "vout": [
    {
      "scriptpubkey": "0014da4b169238d13b81c7ee7cbb82621b5be7ada11a",
      "scriptpubkey_asm": "OP_0 OP_PUSHBYTES_20 da4b169238d13b81c7ee7cbb82621b5be7ada11a",
      "scriptpubkey_type": "v0_p2wpkh",
      "scriptpubkey_address": "bc1qmf93dy3c6yacr3lw0jacycsmt0n6mgg6hwz7kl",
      "value": 34034
    },
    {
      "scriptpubkey": "0014a4712e8d645efd43cb1974748aa2c77ff95e04f6",
      "scriptpubkey_asm": "OP_0 OP_PUSHBYTES_20 a4712e8d645efd43cb1974748aa2c77ff95e04f6",
      "scriptpubkey_type": "v0_p2wpkh",
      "scriptpubkey_address": "bc1q53cjartytm758jcew36g4gk80lu4up8kn86jl3",
      "value": 860953
    }
  ],
  "size": 223,
  "weight": 562,
  "fee": 3634,
  "status": {
    "confirmed": true,
    "block_height": 834638,
    "block_hash": "000000000000000000025f742c626208ac87e0b7d15054abb4a19ca2d735a54e",
    "block_time": 1710405325
  },
  "hex": "010000000001010aa66eb520bbc815e8d6495113e73862a77e96f6cbb1aebe998b726f826611190100000000ffffffff02f284000000000000160014da4b169238d13b81c7ee7cbb82621b5be7ada11a19230d0000000000160014a4712e8d645efd43cb1974748aa2c77ff95e04f602483045022100c34c577dc408854071a853947ef4617d13901d00439e048d3275fb512dccd3d3022010f8d87a921cf343337906c1478bf4e218b21b2e661f50a40c105baea1d43776012103289c31a120acf437615f30046bb6c1167e400337a35e93d10136a4128efe231800000000"
}