{
  "txid": "bfdaf4f2f9a1f5f3ca04b5ec2eada866a0cd2eca7d596367c449fed1baa0df0f",
  "version": 1,
  "locktime": 0,
  "vin": [
    {
      "txid": "888888888eaa20086a45ea7e182944a495ec6558228996cac59dbcb718fa4746",
      "vout": 0,
      "prevout": {
        "scriptpubkey": "51207f1c6f0f90aac86adfcbb3c549041a8347614ac41b041b5018087373e79c4f7f",
        "scriptpubkey_asm": "OP_PUSHNUM_1 OP_PUSHBYTES_32 7f1c6f0f90aac86adfcbb3c549041a8347614ac41b041b5018087373e79c4f7f",
        "scriptpubkey_type": "v1_p2tr",
        "scriptpubkey_address": "bc1p0uwx7rus4tyx4h7tk0z5jpq6sdrkzjkyrvzpk5qcppeh8euufals5k5tp9",
        "value": 11923
      },
      "scriptsig": "",
      "scriptsig_asm": "",
      "witness": [
        "49dc775d165c225ecdb95fa6e43193f2d6bc3374712da76528c1a7bf9c2e877d09db8b46409bff33023bdee967f2f7f18e6a5ce14d67c598e964e3fc3ed7c62f",
        "20288fe10385924d019ca2d9b0367651fb2df57f8842b5648100f5af9b72e8cb2bac00630461746f6d03646d7446a16461726773a46474696d651a65f13685656e6f6e63651a0001000368626974776f726b636b3838383838383838382e386b6d696e745f7469636b657268696e66696e69747968",
        "c0288fe10385924d019ca2d9b0367651fb2df57f8842b5648100f5af9b72e8cb2b"
      ],
      "is_coinbase": false,
      "sequence": 4294967295
    }
  ],
  "vout": [
    {
      "scriptpubkey": "5120ee5d73a166b5fcf6fb0e22e1428770d9455bcd536c28912b437450303ef41201",
      "scriptpubkey_asm": "OP_PUSHNUM_1 OP_PUSHBYTES_32 ee5d73a166b5fcf6fb0e22e1428770d9455bcd536c28912b437450303ef41201",
      "scriptpubkey_type": "v1_p2tr",
      "scriptpubkey_address": "bc1paewh8gtxkh70d7cwyts59pmsm9z4hn2nds5fz26rw3grq0h5zgqsmngref",
      "value": 9999
    }
  ],
  "size": 314,
  "weight": 596,
  "fee": 1924,
  "status": {
    "confirmed": true,
    "block_height": 834460,
    "block_hash": "00000000000000000000484a79b643b2524bbce82e5d8a442013fa5b8905ed98",
    "block_time": 1710307468
  },
  "hex": "010000000001014647fa18b7bc9dc5ca9689225865ec95a44429187eea456a0820aa8e888888880000000000ffffffff010f27000000000000225120ee5d73a166b5fcf6fb0e22e1428770d9455bcd536c28912b437450303ef41201034049dc775d165c225ecdb95fa6e43193f2d6bc3374712da76528c1a7bf9c2e877d09db8b46409bff33023bdee967f2f7f18e6a5ce14d67c598e964e3fc3ed7c62f7520288fe10385924d019ca2d9b0367651fb2df57f8842b5648100f5af9b72e8cb2bac00630461746f6d03646d7446a16461726773a46474696d651a65f13685656e6f6e63651a0001000368626974776f726b636b3838383838383838382e386b6d696e745f7469636b657268696e66696e6974796821c0288fe10385924d019ca2d9b0367651fb2df57f8842b5648100f5af9b72e8cb2b00000000"
}