{
  "txid": "bfdc99612c4b5c897c478d4c3f9959feba23f908f2a132d32e53ab2130efcbab",
  "version": 2,
  "locktime": 0,
  "vin": [
    {
      "txid": "a7d9e252f4402320964afccefc4b7a52dbbd5910eaef27c219b054577af68289",
      "vout": 22,
      "prevout": {
        "scriptpubkey": "512004f2632d758e24112de2bf98ed80cbc644b0bcd57eb37c233eb0777f6f8d155c",
        "scriptpubkey_asm": "OP_PUSHNUM_1 OP_PUSHBYTES_32 04f2632d758e24112de2bf98ed80cbc644b0bcd57eb37c233eb0777f6f8d155c",
        "scriptpubkey_type": "v1_p2tr",
        "scriptpubkey_address": "bc1pqnexxtt43cjpzt0zh7vwmqxtceztp0x406ehcge7kpmh7mudz4wqc9q4zp",
        "value": 1711
      },
      "scriptsig": "",
      "scriptsig_asm": "",
      "witness": [
        "02",
        "750063036f726401010a746578742f706c61696e00367b2270223a226272632d3230222c226f70223a226d696e74222c227469636b223a2261616161222c22616d74223a223130303030227d6851",
        "c11a005ecd1d9cb9b2b90638a1491b84882e6eb231de63b26454f723b872fea5dc"
      ],
      "is_coinbase": false,
      "sequence": 4294967295
    }
  ],
  "vout": [
    {
      "scriptpubkey": "0014a40897ac0756778584e7dbe457cca54abc6daf4c",
      "scriptpubkey_asm": "OP_0 OP_PUSHBYTES_20 a40897ac0756778584e7dbe457cca54abc6daf4c",
      "scriptpubkey_type": "v0_p2wpkh",
      "scriptpubkey_address": "bc1q5syf0tq82emctp88m0j90n99f27xmt6v2f79lx",
      "value": 294
    }
  ],
  "size": 200,
  "weight": 446,
  "fee": 1417,
  "status": {
    "confirmed": true,
    "block_height": 834460,
    "block_hash": "00000000000000000000484a79b643b2524bbce82e5d8a442013fa5b8905ed98",
    "block_time": 1710307468
  },
  "hex": "020000000001018982f67a5754b019c227efea1059bddb527a4bfccefc4a96202340f452e2d9a71600000000ffffffff012601000000000000160014a40897ac0756778584e7dbe457cca54abc6daf4c0301024e750063036f726401010a746578742f706c61696e00367b2270223a226272632d3230222c226f70223a226d696e74222c227469636b223a2261616161222c22616d74223a223130303030227d685121c11a005ecd1d9cb9b2b90638a1491b84882e6eb231de63b26454f723b872fea5dc00000000"
}