{
  "txid": "bfec2adf933664b3c5a8e0cc35ce60516063bc76062a70137e6c8c22486e27ff",
  "version": 1,
  "locktime": 0,
  "vin": [
    {
      "txid": "7dc4586eb503c6c3f845c498b6828276d0ace32ec440c39c71fded3339923e59",
      "vout": 0,
      "prevout": {
        "scriptpubkey": "5120f2b99d416fb1741d12e58d5c971a007e5d914e915af340085ad5c6faf0549870",
        "scriptpubkey_asm": "OP_PUSHNUM_1 OP_PUSHBYTES_32 f2b99d416fb1741d12e58d5c971a007e5d914e915af340085ad5c6faf0549870",
        "scriptpubkey_type": "v1_p2tr",
        "scriptpubkey_address": "bc1p72ue6st0k96p6yh934wfwxsq0ewezn53tte5qzz66hr04uz5npcqkd4rxx",
        "value": 2346
      },
      "scriptsig": "",
      "scriptsig_asm": "",
      "witness": [
        "c427610686aa493a4c525626232fb0667be8316ad5328b85d2def49dfd8cb99c46847b9f582213dca90cd93cb06a2d5da1ddac058506701fecaec6807a344cd7",
        "201e0d18cd2f8dcb8e1339eba35d9720e4342dd8fd5fe34979c5339c42cc8177e2ac0063036f726401010a746578742f706c61696e003e7b2270223a226272632d3230222c226f70223a227472616e73666572222c227469636b223a2253415453222c22616d74223a22323030303030303030227d68",
        "c11e0d18cd2f8dcb8e1339eba35d9720e4342dd8fd5fe34979c5339c42cc8177e2"
      ],
      "is_coinbase": false,
      "sequence": 4294967293
    }
  ],
  "vout": [
    {
      "scriptpubkey": "512043bd1f664559188bf40e7580a1e06c574e75c2f3dd9c65e565fd36c9a179a603",
      "scriptpubkey_asm": "OP_PUSHNUM_1 OP_PUSHBYTES_32 43bd1f664559188bf40e7580a1e06c574e75c2f3dd9c65e565fd36c9a179a603",
      "scriptpubkey_type": "v1_p2tr",
      "scriptpubkey_address": "bc1pgw737ej9tyvghaqwwkq2rcrv2a88tshnmkwxtet9l5mvngte5cps75gt0h",
      "value": 546
    }
  ],
  "size": 315,
  "weight": 597,
  "fee": 1800,
  "status": {
    "confirmed": true,
    "block_height": 834460,
    "block_hash": "00000000000000000000484a79b643b2524bbce82e5d8a442013fa5b8905ed98",
    "block_time": 1710307468
  },
  "hex": "01000000000101593e923933edfd719cc340c42ee3acd0768282b698c445f8c3c603b56e58c47d0000000000fdffffff01220200000000000022512043bd1f664559188bf40e7580a1e06c574e75c2f3dd9c65e565fd36c9a179a6030340c427610686aa493a4c525626232fb0667be8316ad5328b85d2def49dfd8cb99c46847b9f582213dca90cd93cb06a2d5da1ddac058506701fecaec6807a344cd776201e0d18cd2f8dcb8e1339eba35d9720e4342dd8fd5fe34979c5339c42cc8177e2ac0063036f726401010a746578742f706c61696e003e7b2270223a226272632d3230222c226f70223a227472616e73666572222c227469636b223a2253415453222c22616d74223a22323030303030303030227d6821c11e0d18cd2f8dcb8e1339eba35d9720e4342dd8fd5fe34979c5339c42cc8177e200000000"
}