{
  "txid": "bff51b4e32623858199cca601560c47c7a67ba86256be224eb3214c0b972e448",
  "version": 2,
  "locktime": 0,
  "vin": [
    {
      "txid": "9eb4324ae44eafae1c214f61a4c883e744cd622bd677024dd7214d36c263b5ed",
      "vout": 1,
      "prevout": {
        "scriptpubkey": "a914403befb1ee8e773e6af97944cf7f56e1453476e187",
        "scriptpubkey_asm": "OP_HASH160 OP_PUSHBYTES_20 403befb1ee8e773e6af97944cf7f56e1453476e1 OP_EQUAL",
        "scriptpubkey_type": "p2sh",
        "scriptpubkey_address": "37YeyGXxwJbXHuuAprs8SPZ22DNJNzKgdk",
        "value": 16885
      },
      "scriptsig": "160014b48d1e6e3e14c4b9edb0df3380a18deb04c5a055",
      "scriptsig_asm": "OP_PUSHBYTES_22 0014b48d1e6e3e14c4b9edb0df3380a18deb04c5a055",
      "witness": [
        "304402202d4705750d694ad872bca51a0559e4beca4611568534bc28cd23470f6deb97ae0220065ca64c9131a2b02895bf8338f277909013f26ddb2f97c2c2102beea848de8e01",
        "0338c23cc332ecce477d4f9eae1daa95d5751ff8459ecc8ee9cee5db249d6cc233"
      ],
      "is_coinbase": false,
      "sequence": 4294967293,
      "inner_redeemscript_asm": "OP_0 OP_PUSHBYTES_20 b48d1e6e3e14c4b9edb0df3380a18deb04c5a055"
    }
  ],
  "vout": [
    {
      "scriptpubkey": "00145850ebaa27db550f2712908ff0e38d127d83ca46",
      "scriptpubkey_asm": "OP_0 OP_PUSHBYTES_20 5850ebaa27db550f2712908ff0e38d127d83ca46",
      "scriptpubkey_type": "v0_p2wpkh",
      "scriptpubkey_address": "bc1qtpgwh238md2s7fcjjz8lpcudzf7c8jjxs6sxml",
      "value": 14624
    }
  ],
  "size": 214,
  "weight": 529,
  "fee": 2261,
  "status": {
    "confirmed": true,
    "block_height": 834638,
    "block_hash": "000000000000000000025f742c626208ac87e0b7d15054abb4a19ca2d735a54e",
    "block_time": 1710405325
  },
  "hex": "02000000000101edb563c2364d21d74d0277d62b62cd44e783c8a4614f211caeaf4ee44a32b49e0100000017160014b48d1e6e3e14c4b9edb0df3380a18deb04c5a055fdffffff0120390000000000001600145850ebaa27db550f2712908ff0e38d127d83ca460247304402202d4705750d694ad872bca51a0559e4beca4611568534bc28cd23470f6deb97ae0220065ca64c9131a2b02895bf8338f277909013f26ddb2f97c2c2102beea848de8e01210338c23cc332ecce477d4f9eae1daa95d5751ff8459ecc8ee9cee5db249d6cc23300000000"
}