{
  "txid": "c0252a0d11028647001beffd1d62c42900c47169c083d23f94d4187756a07563",
  "version": 2,
  "locktime": 0,
  "vin": [
    {
      "txid": "561429247eb5a940ff62c49cbcae907b228edea9241630b07f910e202e370e49",
      "vout": 0,
      "prevout": {
        "scriptpubkey": "76a914293981cccb72f4c5e8ed000dd1d7a54ee495bdf088ac",
        "scriptpubkey_asm": "OP_DUP OP_HASH160 OP_PUSHBYTES_20 293981cccb72f4c5e8ed000dd1d7a54ee495bdf0 OP_EQUALVERIFY OP_CHECKSIG",
        "scriptpubkey_type": "p2pkh",
        "scriptpubkey_address": "14kybXNTqAWeDvrjZJZArUoN5aGBkZTzMT",
        "value": 13723871
      },
      "scriptsig": "47304402204b4a1ae6427dc3139bcea2051e6cc6a8412fcece8ab7de4a3581d161e4307f43022024026697975a54d693b79fdee97dcbd3b416aea56f4dce92ed936cf6d36cf6ca012102d5f44f481cfb43bb2ea7b553b97ef8b2dbe18f767708bf1e6a296b6c6099ae87",
      "scriptsig_asm": "OP_PUSHBYTES_71 304402204b4a1ae6427dc3139bcea2051e6cc6a8412fcece8ab7de4a3581d161e4307f43022024026697975a54d693b79fdee97dcbd3b416aea56f4dce92ed936cf6d36cf6ca01 OP_PUSHBYTES_33 02d5f44f481cfb43bb2ea7b553b97ef8b2dbe18f767708bf1e6a296b6c6099ae87",
      "is_coinbase": false,
      "sequence": 4294967293
    },
    {
      "txid": "b0b796e5876d6f462a7da0d956081bf76ae19e5c69da87530cabf5eded46a8ad",
      "vout": 32,
      "prevout": {
        "scriptpubkey": "0014f719cd47709dc66b1de16bb27f1929dbe7c43c37",
        "scriptpubkey_asm": "OP_0 OP_PUSHBYTES_20 f719cd47709dc66b1de16bb27f1929dbe7c43c37",
        "scriptpubkey_type": "v0_p2wpkh",
        "scriptpubkey_address": "bc1q7uvu63msnhrxk80pdwe87xffm0nug0ph8rk7zq",
        "value": 2300000
      },
      "scriptsig": "",
      "scriptsig_asm": "",
      "witness": [
        "3044022064f51b8954ac08d5f30895458a332b5f6b532b4afb9cedb827cd787643ace73702204dc7a19ca7feb94645d2e6b03fee05ba95adf4c08b12bdb85a85bcdda65dbb5101",
        "027bec3aea4b9d7f5e6af38c9951473cfef2f83506f11e4cbc457553c703505be6"
      ],
      "is_coinbase": false,
      "sequence": 4294967293
    },
    {
      "txid": "6ec191f7105e74e4a8e92aa52f1040cd15d21fadead253ec712da108710fd3b8",
      "vout": 0,
      "prevout": {
        "scriptpubkey": "76a91431688fa3565b7568372bbefa4f9a898ce97a6f6088ac",
        "scriptpubkey_asm": "OP_DUP OP_HASH160 OP_PUSHBYTES_20 31688fa3565b7568372bbefa4f9a898ce97a6f60 OP_EQUALVERIFY OP_CHECKSIG",
        "scriptpubkey_type": "p2pkh",
        "scriptpubkey_address": "15WFNS1wvGmcmmtUB3ETeYe8zTUmU2zuVb",
        "value": 6881418
      },
      "scriptsig": "4730440220418c460b4e5b43ecaf294faf60136b03e66be1297fc4d1de2aa770325921606f02201396844c0f22cda9cfca1d93c7d4553b937f72657181587ad9dad0df472a4ced012102dbbe2c98de24cb25672bb1149361f196dadf30db14d2b026cebc067be099be44",
      "scriptsig_asm": "OP_PUSHBYTES_71 30440220418c460b4e5b43ecaf294faf60136b03e66be1297fc4d1de2aa770325921606f02201396844c0f22cda9cfca1d93c7d4553b937f72657181587ad9dad0df472a4ced01 OP_PUSHBYTES_33 02dbbe2c98de24cb25672bb1149361f196dadf30db14d2b026cebc067be099be44",
      "is_coinbase": false,
      "sequence": 4294967293
    },
    {
      "txid": "b07c42dc815a0afec1e5fc68ff37b915107a03aa7fba0ad0f6b165835b9cccea",
      "vout": 30,
      "prevout": {
        "scriptpubkey": "76a9141bc7cf82be52fd35ac1417e9751b637d2be63efb88ac",
        "scriptpubkey_asm": "OP_DUP OP_HASH160 OP_PUSHBYTES_20 1bc7cf82be52fd35ac1417e9751b637d2be63efb OP_EQUALVERIFY OP_CHECKSIG",
        "scriptpubkey_type": "p2pkh",
        "scriptpubkey_address": "13XtcGE6YdH6Q51zBxTzqDF58LCQ5TMdyj",
        "value": 889000
      },
      "scriptsig": "483045022100ffc81636f1112bc9f8ca5116ca719969b4682f7f15ecc84a9e9fe5d49083f16402206a6ae98e73e4cd75c028ed54f8c047c7fd1baf433666723da1e550aa9f0e560c012103f169f8a695a07800949fcb8ce80c91cd9d2851bcef7e6acb198cfcb8d41ab1b0",
      "scriptsig_asm": "OP_PUSHBYTES_72 3045022100ffc81636f1112bc9f8ca5116ca719969b4682f7f15ecc84a9e9fe5d49083f16402206a6ae98e73e4cd75c028ed54f8c047c7fd1baf433666723da1e550aa9f0e560c01 OP_PUSHBYTES_33 03f169f8a695a07800949fcb8ce80c91cd9d2851bcef7e6acb198cfcb8d41ab1b0",
      "is_coinbase": false,
      "sequence": 4294967293
    },
    {
      "txid": "ad01bac6534b1da2b76e01fb65d794f1ce1978745d36032012a11a0240e7f7c2",
      "vout": 8,
      "prevout": {
        "scriptpubkey": "0014f719cd47709dc66b1de16bb27f1929dbe7c43c37",
        "scriptpubkey_asm": "OP_0 OP_PUSHBYTES_20 f719cd47709dc66b1de16bb27f1929dbe7c43c37",
        "scriptpubkey_type": "v0_p2wpkh",
        "scriptpubkey_address": "bc1q7uvu63msnhrxk80pdwe87xffm0nug0ph8rk7zq",
        "value": 2306000
      },
      "scriptsig": "",
      "scriptsig_asm": "",
      "witness": [
        "30450221008b8659ff9567756b046dfe2fc47fd2f54cfd2fd9bd6ff882ef539dcaa5c748ca02203beeba2408c4aafdd62875bfb4722cf859c9de4716e845be84386e02a6f0509a01",
        "027bec3aea4b9d7f5e6af38c9951473cfef2f83506f11e4cbc457553c703505be6"
      ],
      "is_coinbase": false,
      "sequence": 4294967293
    },
    {
      "txid": "8885fa6e995e05cd5d96ea80527e3e911ae99878773fb22272e285ce07c9e4dd",
      "vout": 18,
      "prevout": {
        "scriptpubkey": "0014f719cd47709dc66b1de16bb27f1929dbe7c43c37",
        "scriptpubkey_asm": "OP_0 OP_PUSHBYTES_20 f719cd47709dc66b1de16bb27f1929dbe7c43c37",
        "scriptpubkey_type": "v0_p2wpkh",
        "scriptpubkey_address": "bc1q7uvu63msnhrxk80pdwe87xffm0nug0ph8rk7zq",
        "value": 2310000
      },
      "scriptsig": "",
      "scriptsig_asm": "",
      "witness": [
        "30440220015f4dc78e6edfaa395084705803291f27d9d11f10cfe945c6fdc9d4fd11a797022058f5f940ee73f922523143ffaa2044aedcdd72b9a0b240358930de535373d21f01",
        "027bec3aea4b9d7f5e6af38c9951473cfef2f83506f11e4cbc457553c703505be6"
      ],
      "is_coinbase": false,
      "sequence": 4294967293
    },
    {
      "txid": "7434d4ac09b5b586214bd84ab082d48332a57c676a3cd60cab53ff6112917146",
      "vout": 25,
      "prevout": {
        "scriptpubkey": "76a9141bc7cf82be52fd35ac1417e9751b637d2be63efb88ac",
        "scriptpubkey_asm": "OP_DUP OP_HASH160 OP_PUSHBYTES_20 1bc7cf82be52fd35ac1417e9751b637d2be63efb OP_EQUALVERIFY OP_CHECKSIG",
        "scriptpubkey_type": "p2pkh",
        "scriptpubkey_address": "13XtcGE6YdH6Q51zBxTzqDF58LCQ5TMdyj",
        "value": 640576
      },
      "scriptsig": "47304402202b11793a70fdbef8274342c7749f96ca709953cb7f168a6f673d0e6bf4ab362702204f8bc4576d64a0a04be7f4d9680208e4f7848893b1f97143ea340ffadde4c1d1012103f169f8a695a07800949fcb8ce80c91cd9d2851bcef7e6acb198cfcb8d41ab1b0",
      "scriptsig_asm": "OP_PUSHBYTES_71 304402202b11793a70fdbef8274342c7749f96ca709953cb7f168a6f673d0e6bf4ab362702204f8bc4576d64a0a04be7f4d9680208e4f7848893b1f97143ea340ffadde4c1d101 OP_PUSHBYTES_33 03f169f8a695a07800949fcb8ce80c91cd9d2851bcef7e6acb198cfcb8d41ab1b0",
      "is_coinbase": false,
      "sequence": 4294967293
    },
    {
      "txid": "ad01bac6534b1da2b76e01fb65d794f1ce1978745d36032012a11a0240e7f7c2",
      "vout": 6,
      "prevout": {
        "scriptpubkey": "76a91431688fa3565b7568372bbefa4f9a898ce97a6f6088ac",
        "scriptpubkey_asm": "OP_DUP OP_HASH160 OP_PUSHBYTES_20 31688fa3565b7568372bbefa4f9a898ce97a6f60 OP_EQUALVERIFY OP_CHECKSIG",
        "scriptpubkey_type": "p2pkh",
        "scriptpubkey_address": "15WFNS1wvGmcmmtUB3ETeYe8zTUmU2zuVb",
        "value": 2064000
      },
      "scriptsig": "483045022100857ee822d94c93daf82e0bef6c479119f8116966346489befe3d34acd328a02c02204cad460ff83bc23965a5ead9b7a4822e56f6e8c5fbf6d10ac1d2d7e99675b10a012102dbbe2c98de24cb25672bb1149361f196dadf30db14d2b026cebc067be099be44",
      "scriptsig_asm": "OP_PUSHBYTES_72 3045022100857ee822d94c93daf82e0bef6c479119f8116966346489befe3d34acd328a02c02204cad460ff83bc23965a5ead9b7a4822e56f6e8c5fbf6d10ac1d2d7e99675b10a01 OP_PUSHBYTES_33 02dbbe2c98de24cb25672bb1149361f196dadf30db14d2b026cebc067be099be44",
      "is_coinbase": false,
      "sequence": 4294967293
    }
  ],
  "vout": [
    {
      "scriptpubkey": "0014eac5cf09a249cf87ba75625a7dc01c7724d9e5bb",
      "scriptpubkey_asm": "OP_0 OP_PUSHBYTES_20 eac5cf09a249cf87ba75625a7dc01c7724d9e5bb",
      "scriptpubkey_type": "v0_p2wpkh",
      "scriptpubkey_address": "bc1qatzu7zdzf88c0wn4vfd8msquwujdnedmry04gd",
      "value": 31096123
    }
  ],
  "size": 1230,
  "weight": 3933,
  "fee": 18742,
  "status": {
    "confirmed": true,
    "block_height": 834638,
    "block_hash": "000000000000000000025f742c626208ac87e0b7d15054abb4a19ca2d735a54e",
    "block_time": 1710405325
  },
  "hex": "02000000000108490e372e200e917fb0301624a9de8e227b90aebc9cc462ff40a9b57e24291456000000006a47304402204b4a1ae6427dc3139bcea2051e6cc6a8412fcece8ab7de4a3581d161e4307f43022024026697975a54d693b79fdee97dcbd3b416aea56f4dce92ed936cf6d36cf6ca012102d5f44f481cfb43bb2ea7b553b97ef8b2dbe18f767708bf1e6a296b6c6099ae87fdffffffada846ededf5ab0c5387da695c9ee16af71b0856d9a07d2a466f6d87e596b7b02000000000fdffffffb8d30f7108a12d71ec53d2eaad1fd215cd40102fa52ae9a8e4745e10f791c16e000000006a4730440220418c460b4e5b43ecaf294faf60136b03e66be1297fc4d1de2aa770325921606f02201396844c0f22cda9cfca1d93c7d4553b937f72657181587ad9dad0df472a4ced012102dbbe2c98de24cb25672bb1149361f196dadf30db14d2b026cebc067be099be44fdffffffeacc9c5b8365b1f6d00aba7faa037a1015b937ff68fce5c1fe0a5a81dc427cb01e0000006b483045022100ffc81636f1112bc9f8ca5116ca719969b4682f7f15ecc84a9e9fe5d49083f16402206a6ae98e73e4cd75c028ed54f8c047c7fd1baf433666723da1e550aa9f0e560c012103f169f8a695a07800949fcb8ce80c91cd9d2851bcef7e6acb198cfcb8d41ab1b0fdffffffc2f7e740021aa1122003365d747819cef194d765fb016eb7a21d4b53c6ba01ad0800000000fdffffffdde4c907ce85e27222b23f777898e91a913e7e5280ea965dcd055e996efa85881200000000fdffffff4671911261ff53ab0cd63c6a677ca53283d482b04ad84b2186b5b509acd43474190000006a47304402202b11793a70fdbef8274342c7749f96ca709953cb7f168a6f673d0e6bf4ab362702204f8bc4576d64a0a04be7f4d9680208e4f7848893b1f97143ea340ffadde4c1d1012103f169f8a695a07800949fcb8ce80c91cd9d2851bcef7e6acb198cfcb8d41ab1b0fdffffffc2f7e740021aa1122003365d747819cef194d765fb016eb7a21d4b53c6ba01ad060000006b483045022100857ee822d94c93daf82e0bef6c479119f8116966346489befe3d34acd328a02c02204cad460ff83bc23965a5ead9b7a4822e56f6e8c5fbf6d10ac1d2d7e99675b10a012102dbbe2c98de24cb25672bb1149361f196dadf30db14d2b026cebc067be099be44fdffffff013b7dda0100000000160014eac5cf09a249cf87ba75625a7dc01c7724d9e5bb0002473044022064f51b8954ac08d5f30895458a332b5f6b532b4afb9cedb827cd787643ace73702204dc7a19ca7feb94645d2e6b03fee05ba95adf4c08b12bdb85a85bcdda65dbb510121027bec3aea4b9d7f5e6af38c9951473cfef2f83506f11e4cbc457553c703505be60000024830450221008b8659ff9567756b046dfe2fc47fd2f54cfd2fd9bd6ff882ef539dcaa5c748ca02203beeba2408c4aafdd62875bfb4722cf859c9de4716e845be84386e02a6f0509a0121027bec3aea4b9d7f5e6af38c9951473cfef2f83506f11e4cbc457553c703505be6024730440220015f4dc78e6edfaa395084705803291f27d9d11f10cfe945c6fdc9d4fd11a797022058f5f940ee73f922523143ffaa2044aedcdd72b9a0b240358930de535373d21f0121027bec3aea4b9d7f5e6af38c9951473cfef2f83506f11e4cbc457553c703505be6000000000000"
}