{
  "txid": "c05181923a92a8f493a58d3bfdcc3a7dc5fb3f4a3d743ed8aa71506c4e771ca9",
  "version": 1,
  "locktime": 0,
  "vin": [
    {
      "txid": "c6974bcff9efd114fda3d048e8f882d894a8d108905d765c454f6620ee39dee0",
      "vout": 8,
      "prevout": {
        "scriptpubkey": "0014445f4713c2279dff856deea399d96c9029ebe4e9",
        "scriptpubkey_asm": "OP_0 OP_PUSHBYTES_20 445f4713c2279dff856deea399d96c9029ebe4e9",
        "scriptpubkey_type": "v0_p2wpkh",
        "scriptpubkey_address": "bc1qg305wy7zy7wllptda63enktvjq57he8ff4svwt",
        "value": 154300
      },
      "scriptsig": "",
      "scriptsig_asm": "",
      "witness": [
        "3045022100bdcc53a8cae76214f1cde32034398fe42de6ebc399aac554832d42f65458366902201f5f6a32c9118349bda47337fa97056182c22c3566cccfaea0ff678457b86a7801",
        "02d537f50fa5cd40dff9d7da88da69d915445bbe12f6a2bd3770a2e1c9f518d6b3"
      ],
      "is_coinbase": false,
      "sequence": 4294967295
    }
  ],
  "vout": [
    {
      "scriptpubkey": "a9145e931bbebb83ede429120cc5b4004c45d563c63c87",
      "scriptpubkey_asm": "OP_HASH160 OP_PUSHBYTES_20 5e931bbebb83ede429120cc5b4004c45d563c63c OP_EQUAL",
      "scriptpubkey_type": "p2sh",
      "scriptpubkey_address": "3AK5fqyT9zqWQtd1D6A8cch2zc74ngnrod",
      "value": 153090
    }
  ],
  "size": 193,
  "weight": 442,
  "fee": 1210,
  "status": {
    "confirmed": true,
    "block_height": 834464,
    "block_hash": "0000000000000000000177a0869a911a2b65c9bdcd5a8bcb02b68f305bee848e",
    "block_time": 1710308296
  },
  "hex": "01000000000101e0de39ee20664f455c765d9008d1a894d882f8e848d0a3fd14d1eff9cf4b97c60800000000ffffffff01025602000000000017a9145e931bbebb83ede429120cc5b4004c45d563c63c8702483045022100bdcc53a8cae76214f1cde32034398fe42de6ebc399aac554832d42f65458366902201f5f6a32c9118349bda47337fa97056182c22c3566cccfaea0ff678457b86a78012102d537f50fa5cd40dff9d7da88da69d915445bbe12f6a2bd3770a2e1c9f518d6b300000000"
}