{
  "txid": "c053392fa38e65299d35f2a785ae75b0c178d11ef8596bd1496f9860d9e56666",
  "version": 1,
  "locktime": 0,
  "vin": [
    {
      "txid": "304b830cdad54c433559d3eb8da86bac9465d564b2aa6aa75415f2e476fca201",
      "vout": 0,
      "prevout": {
        "scriptpubkey": "00143ec7a6f871ce329aa9af1ec8657ed9a7db19fc92",
        "scriptpubkey_asm": "OP_0 OP_PUSHBYTES_20 3ec7a6f871ce329aa9af1ec8657ed9a7db19fc92",
        "scriptpubkey_type": "v0_p2wpkh",
        "scriptpubkey_address": "bc1q8mr6d7r3ecef42d0rmyx2lke5ld3nlyjsamzx7",
        "value": 1033182
      },
      "scriptsig": "",
      "scriptsig_asm": "",
      "witness": [
        "304402203118de5c28c1dcf18cfb1c43d1b370c6dca3a0ae8341074f8c36bc2f1a1b0a1202205b6146e8a97f34b07c593b06a767bf8ac4d8e90c3f92bfd950878d261b68ab0901",
        "0273eaf10e91ff97793d8464d9b088a6da76de8664ea9ef718b40477c8b86d0b3b"
      ],
      "is_coinbase": false,
      "sequence": 4294967295
    },
    {
      "txid": "47ca5a5663223870f54c004151a6987cde22a34f9758fabe2f287089529a8597",
      "vout": 0,
      "prevout": {
        "scriptpubkey": "0014945fc0e526caee03af762b1de6b7a3a278121374",
        "scriptpubkey_asm": "OP_0 OP_PUSHBYTES_20 945fc0e526caee03af762b1de6b7a3a278121374",
        "scriptpubkey_type": "v0_p2wpkh",
        "scriptpubkey_address": "bc1qj30upefxethq8tmk9vw7ddar5fupyym5ldh07p",
        "value": 98404
      },
      "scriptsig": "",
      "scriptsig_asm": "",
      "witness": [
        "3044022042adf630f093aa5fb0d7518c32cddc864aefb16e83ddf2480fc5c7d444714cba02206a06a4aea0195dced20d7a11c712eb31c9d01a9b253544aaf9b79ae1da09ca6c01",
        "02e7d2de6fe84671f50f1118ec7907d1c51ea0a122a845b58e37d98c5f1fb76823"
      ],
      "is_coinbase": false,
      "sequence": 4294967295
    },
    {
      "txid": "d7160f1a03a01403b1c2e7c0bf28a580d84a080bc09c9b7268995469d6fcbef3",
      "vout": 0,
      "prevout": {
        "scriptpubkey": "001444b376bb90b657f37904ad0169248f4228c07bbc",
        "scriptpubkey_asm": "OP_0 OP_PUSHBYTES_20 44b376bb90b657f37904ad0169248f4228c07bbc",
        "scriptpubkey_type": "v0_p2wpkh",
        "scriptpubkey_address": "bc1qgjehdwusketlx7gy45qkjfy0gg5vq7au60vjpr",
        "value": 207567
      },
      "scriptsig": "",
      "scriptsig_asm": "",
      "witness": [
        "304402202631b4bcec82cd3bcbbfd7caf2e3005051bec5c9751f16edc85b2f64e0fdc1c70220492564f08fbd7850fd3226db22a7706497a04d011e7b23075f0049940fe67ac301",
        "02107dbd5d2d257ad730a1711b896ce65a19c6a4031205c28c7dcb4d0b45e1ef4c"
      ],
      "is_coinbase": false,
      "sequence": 4294967295
    }
  ],
  "vout": [
    {
      "scriptpubkey": "0014bc80baa8b1f8e1c5b3b750378ca03347c8724e97",
      "scriptpubkey_asm": "OP_0 OP_PUSHBYTES_20 bc80baa8b1f8e1c5b3b750378ca03347c8724e97",
      "scriptpubkey_type": "v0_p2wpkh",
      "scriptpubkey_address": "bc1qhjqt4293lrsutvah2qmcegpngly8yn5h0xszfn",
      "value": 287765
    },
    {
      "scriptpubkey": "0014f5d5eb73d1aa6511502eae9595dbab4bb59da969",
      "scriptpubkey_asm": "OP_0 OP_PUSHBYTES_20 f5d5eb73d1aa6511502eae9595dbab4bb59da969",
      "scriptpubkey_type": "v0_p2wpkh",
      "scriptpubkey_address": "bc1q7h27ku734fj3z5pw462etkatfw6em2tfy29ty0",
      "value": 1048146
    }
  ],
  "size": 518,
  "weight": 1103,
  "fee": 3242,
  "status": {
    "confirmed": true,
    "block_height": 834460,
    "block_hash": "00000000000000000000484a79b643b2524bbce82e5d8a442013fa5b8905ed98",
    "block_time": 1710307468
  },
  "hex": "0100000000010301a2fc76e4f21554a76aaab264d56594ac6ba88debd35935434cd5da0c834b300000000000ffffffff97859a528970282fbefa58974fa322de7c98a65141004cf570382263565aca470000000000fffffffff3befcd669549968729b9cc00b084ad880a528bfc0e7c2b10314a0031a0f16d70000000000ffffffff021564040000000000160014bc80baa8b1f8e1c5b3b750378ca03347c8724e9752fe0f0000000000160014f5d5eb73d1aa6511502eae9595dbab4bb59da9690247304402203118de5c28c1dcf18cfb1c43d1b370c6dca3a0ae8341074f8c36bc2f1a1b0a1202205b6146e8a97f34b07c593b06a767bf8ac4d8e90c3f92bfd950878d261b68ab0901210273eaf10e91ff97793d8464d9b088a6da76de8664ea9ef718b40477c8b86d0b3b02473044022042adf630f093aa5fb0d7518c32cddc864aefb16e83ddf2480fc5c7d444714cba02206a06a4aea0195dced20d7a11c712eb31c9d01a9b253544aaf9b79ae1da09ca6c012102e7d2de6fe84671f50f1118ec7907d1c51ea0a122a845b58e37d98c5f1fb768230247304402202631b4bcec82cd3bcbbfd7caf2e3005051bec5c9751f16edc85b2f64e0fdc1c70220492564f08fbd7850fd3226db22a7706497a04d011e7b23075f0049940fe67ac3012102107dbd5d2d257ad730a1711b896ce65a19c6a4031205c28c7dcb4d0b45e1ef4c00000000"
}