{
  "txid": "c0576a5b7ab4de2b02a0745dae9c78842d11d644ebc1bfbf7b34528b063209e5",
  "version": 2,
  "locktime": 834458,
  "vin": [
    {
      "txid": "4cf0a689c1880575ff01a0ff604023198063a28da07e230db1ef7371b3b6465d",
      "vout": 1,
      "prevout": {
        "scriptpubkey": "5120c44c230b3c055b3cd66814da150721a8bf3ebeca8a0f2d56b35ab74c4df0aa15",
        "scriptpubkey_asm": "OP_PUSHNUM_1 OP_PUSHBYTES_32 c44c230b3c055b3cd66814da150721a8bf3ebeca8a0f2d56b35ab74c4df0aa15",
        "scriptpubkey_type": "v1_p2tr",
        "scriptpubkey_address": "bc1pc3xzxzeuq4dne4ngzndp2pep4zlna0k23g8j644nt2m5cn0s4g2smrwzup",
        "value": 2001258
      },
      "scriptsig": "",
      "scriptsig_asm": "",
      "witness": [
        "d1ed1d3dd893c077ccf88ed8d11578163aff3cc0f4935bd0ca591b88abe0de304cf810a231573624b0f74089a3229a532faf107d7125d126fa743aa4083dbf5f"
      ],
      "is_coinbase": false,
      "sequence": 4294967293
    }
  ],
  "vout": [
    {
      "scriptpubkey": "0020f85334ada4ab46947faa8683047589ead65e76f5026ad6bee4531c8a066eb40b",
      "scriptpubkey_asm": "OP_0 OP_PUSHBYTES_32 f85334ada4ab46947faa8683047589ead65e76f5026ad6bee4531c8a066eb40b",
      "scriptpubkey_type": "v0_p2wsh",
      "scriptpubkey_address": "bc1qlpfnftdy4drfgla2s6psgavfatt9uah4qf4dd0hy2vwg5pnwks9sqjv5lp",
      "value": 133366
    },
    {
      "scriptpubkey": "5120d4c6b341a482135dde1f00d40eadc43dcafee9c04491d3cb25b5ce75068c70ea",
      "scriptpubkey_asm": "OP_PUSHNUM_1 OP_PUSHBYTES_32 d4c6b341a482135dde1f00d40eadc43dcafee9c04491d3cb25b5ce75068c70ea",
      "scriptpubkey_type": "v1_p2tr",
      "scriptpubkey_address": "bc1p6nrtxsdysgf4mhslqr2qatwy8h90a6wqgjga8je9kh882p5vwr4qkvpuxd",
      "value": 1865921
    }
  ],
  "size": 205,
  "weight": 616,
  "fee": 1971,
  "status": {
    "confirmed": true,
    "block_height": 834460,
    "block_hash": "00000000000000000000484a79b643b2524bbce82e5d8a442013fa5b8905ed98",
    "block_time": 1710307468
  },
  "hex": "020000000001015d46b6b37173efb10d237ea08da2638019234060ffa001ff750588c189a6f04c0100000000fdffffff02f608020000000000220020f85334ada4ab46947faa8683047589ead65e76f5026ad6bee4531c8a066eb40bc1781c0000000000225120d4c6b341a482135dde1f00d40eadc43dcafee9c04491d3cb25b5ce75068c70ea0140d1ed1d3dd893c077ccf88ed8d11578163aff3cc0f4935bd0ca591b88abe0de304cf810a231573624b0f74089a3229a532faf107d7125d126fa743aa4083dbf5f9abb0c00"
}