{
  "txid": "c062954d1a4e68cd1ae2e972d8dfb540dd12ecaa72269e5f62943fb9957437dd",
  "version": 2,
  "locktime": 0,
  "vin": [
    {
      "txid": "f08f4b88c096083cd96a75498d4bb91236e4e84fe0965508c8b8a2432c2ad5eb",
      "vout": 9,
      "prevout": {
        "scriptpubkey": "5120665bb6d326074e414d950180a921317f470d07b72c24ac1ed36b03df701b5872",
        "scriptpubkey_asm": "OP_PUSHNUM_1 OP_PUSHBYTES_32 665bb6d326074e414d950180a921317f470d07b72c24ac1ed36b03df701b5872",
        "scriptpubkey_type": "v1_p2tr",
        "scriptpubkey_address": "bc1pvedmd5exqa8yznv4qxq2jgf30ars6pah9sj2c8kndvpa7uqmtpeq5wept8",
        "value": 1859
      },
      "scriptsig": "",
      "scriptsig_asm": "",
      "witness": [
        "479200611334b99acae6a0cd6e2bbded3274e0c481aa10d06d8d3d9d2f1a561b3b1b2690c4a167d17f2994c2cbda19650d43f4cff62f29ef5a87c7c02cd1a7c3",
        "2053eaaefc7e1f65aec8208441e1a070e7ebe8bb9fcb6fc07ae854cdfaa45d15f6ac0063036f7264010118746578742f706c61696e3b636861727365743d7574662d3800357b2270223a226272632d3230222c226f70223a226d696e74222c227469636b223a22646f6765222c22616d74223a2234323030227d68",
        "c0a1b8f27720bdb58312407ff108aa0a8a79eb6ade7272753df37ca3add73a736a"
      ],
      "is_coinbase": false,
      "sequence": 4294967295
    }
  ],
  "vout": [
    {
      "scriptpubkey": "00149e8548cc69df89adefb3c19ee6963818466a179d",
      "scriptpubkey_asm": "OP_0 OP_PUSHBYTES_20 9e8548cc69df89adefb3c19ee6963818466a179d",
      "scriptpubkey_type": "v0_p2wpkh",
      "scriptpubkey_address": "bc1qn6z53nrfm7y6mmancx0wd93crprx59uau9ymz7",
      "value": 330
    }
  ],
  "size": 308,
  "weight": 554,
  "fee": 1529,
  "status": {
    "confirmed": true,
    "block_height": 834464,
    "block_hash": "0000000000000000000177a0869a911a2b65c9bdcd5a8bcb02b68f305bee848e",
    "block_time": 1710308296
  },
  "hex": "02000000000101ebd52a2c43a2b8c8085596e04fe8e43612b94b8d49756ad93c0896c0884b8ff00900000000ffffffff014a010000000000001600149e8548cc69df89adefb3c19ee6963818466a179d0340479200611334b99acae6a0cd6e2bbded3274e0c481aa10d06d8d3d9d2f1a561b3b1b2690c4a167d17f2994c2cbda19650d43f4cff62f29ef5a87c7c02cd1a7c37b2053eaaefc7e1f65aec8208441e1a070e7ebe8bb9fcb6fc07ae854cdfaa45d15f6ac0063036f7264010118746578742f706c61696e3b636861727365743d7574662d3800357b2270223a226272632d3230222c226f70223a226d696e74222c227469636b223a22646f6765222c22616d74223a2234323030227d6821c0a1b8f27720bdb58312407ff108aa0a8a79eb6ade7272753df37ca3add73a736a00000000"
}