{
  "txid": "c062bec1e20bb8d362bd817fdc306fe7e0362271494d3447927f32b33740c581",
  "version": 2,
  "locktime": 0,
  "vin": [
    {
      "txid": "8da762edc03807cdf391993c53f295f05da74724c83fc448d00fd057036b4a24",
      "vout": 1,
      "prevout": {
        "scriptpubkey": "00141c387e28082c210764149d0fadf51764bab5152b",
        "scriptpubkey_asm": "OP_0 OP_PUSHBYTES_20 1c387e28082c210764149d0fadf51764bab5152b",
        "scriptpubkey_type": "v0_p2wpkh",
        "scriptpubkey_address": "bc1qrsu8u2qg9sssweq5n586maghvjat29ftscr9q8",
        "value": 101773
      },
      "scriptsig": "",
      "scriptsig_asm": "",
      "witness": [
        "3045022100d35fb49edfe484644e33191ff66130c19c9f8731fff81c64818420cb40c4145f022005e3565dec35a1f67f713c69305f9f684656541c0f6cb4dff24bc23cf86f224601",
        "036a736e8e966a5c33b5bb042f4464fb4040020043c79813d235129ed036aa3d09"
      ],
      "is_coinbase": false,
      "sequence": 4294967293
    }
  ],
  "vout": [
    {
      "scriptpubkey": "76a914c71b7180e905dd8076c1bb34831997aecf2b349888ac",
      "scriptpubkey_asm": "OP_DUP OP_HASH160 OP_PUSHBYTES_20 c71b7180e905dd8076c1bb34831997aecf2b3498 OP_EQUALVERIFY OP_CHECKSIG",
      "scriptpubkey_type": "p2pkh",
      "scriptpubkey_address": "1K9nLyT2zURKtigaoYmWY6wRv2G2ZPr7HN",
      "value": 97884
    }
  ],
  "size": 195,
  "weight": 450,
  "fee": 3889,
  "status": {
    "confirmed": true,
    "block_height": 834638,
    "block_hash": "000000000000000000025f742c626208ac87e0b7d15054abb4a19ca2d735a54e",
    "block_time": 1710405325
  },
  "hex": "02000000000101244a6b0357d00fd048c43fc82447a75df095f2533c9991f3cd0738c0ed62a78d0100000000fdffffff015c7e0100000000001976a914c71b7180e905dd8076c1bb34831997aecf2b349888ac02483045022100d35fb49edfe484644e33191ff66130c19c9f8731fff81c64818420cb40c4145f022005e3565dec35a1f67f713c69305f9f684656541c0f6cb4dff24bc23cf86f22460121036a736e8e966a5c33b5bb042f4464fb4040020043c79813d235129ed036aa3d0900000000"
}