{
  "txid": "c0747e733dc391450d3ea7ada5c8e0a943f6e2524846965454ee1fe5ea23fedb",
  "version": 1,
  "locktime": 0,
  "vin": [
    {
      "txid": "1240efa47a61f2a723b4a608f7561a8d7b0c17d72d3f916b145d497302f3412d",
      "vout": 0,
      "prevout": {
        "scriptpubkey": "51202c60912491aa1f2622aaa01360508b418cfd0197c743f0e944feb3ba8cedf167",
        "scriptpubkey_asm": "OP_PUSHNUM_1 OP_PUSHBYTES_32 2c60912491aa1f2622aaa01360508b418cfd0197c743f0e944feb3ba8cedf167",
        "scriptpubkey_type": "v1_p2tr",
        "scriptpubkey_address": "bc1p93sfzfy34g0jvg425qfkq5ytgxx06qvhcaplp62yl6em4r8d79nsf5yfjx",
        "value": 2463
      },
      "scriptsig": "",
      "scriptsig_asm": "",
      "witness": [
        "c78b71a9ae57a5840b888b49840c03fbdd0b0a61e870b4d7bbd9711db6d55108bc8978ce90da36a09811c77bc69d7f90cae94aeca34cc2ed931ad3b12c8760e583",
        "20be11f1d0580232188e877ef283eb5a1efd4e9e5290a2633605d666f59ad3fff2ac00630461746f6d03646d743ba16461726773a468626974776f726b6364313234306b6d696e745f7469636b657264766d7078656e6f6e63651a000e543d6474696d651a65eb4ba268",
        "c1be11f1d0580232188e877ef283eb5a1efd4e9e5290a2633605d666f59ad3fff2"
      ],
      "is_coinbase": false,
      "sequence": 4294967293
    }
  ],
  "vout": [
    {
      "scriptpubkey": "0014027bc455b49578636e080eabed6048b02ab3985f",
      "scriptpubkey_asm": "OP_0 OP_PUSHBYTES_20 027bc455b49578636e080eabed6048b02ab3985f",
      "scriptpubkey_type": "v0_p2wpkh",
      "scriptpubkey_address": "bc1qqfaug4d5j4uxxmsgp6476czgkq4t8xzl6u3zjv",
      "value": 1000
    }
  ],
  "size": 292,
  "weight": 538,
  "fee": 1463,
  "status": {
    "confirmed": true,
    "block_height": 834464,
    "block_hash": "0000000000000000000177a0869a911a2b65c9bdcd5a8bcb02b68f305bee848e",
    "block_time": 1710308296
  },
  "hex": "010000000001012d41f30273495d146b913f2dd7170c7b8d1a56f708a6b423a7f2617aa4ef40120000000000fdffffff01e803000000000000160014027bc455b49578636e080eabed6048b02ab3985f0341c78b71a9ae57a5840b888b49840c03fbdd0b0a61e870b4d7bbd9711db6d55108bc8978ce90da36a09811c77bc69d7f90cae94aeca34cc2ed931ad3b12c8760e5836a20be11f1d0580232188e877ef283eb5a1efd4e9e5290a2633605d666f59ad3fff2ac00630461746f6d03646d743ba16461726773a468626974776f726b6364313234306b6d696e745f7469636b657264766d7078656e6f6e63651a000e543d6474696d651a65eb4ba26821c1be11f1d0580232188e877ef283eb5a1efd4e9e5290a2633605d666f59ad3fff200000000"
}