{
  "txid": "c083f58eec9aea4597267f71bfff9864deda483ec8aef047c5ca3ce79ea23bf8",
  "version": 2,
  "locktime": 0,
  "vin": [
    {
      "txid": "e835c4d922fbed17c48b3bb466ba1ffc020ede84c1303bdb67ca1f883dd615bb",
      "vout": 22,
      "prevout": {
        "scriptpubkey": "5120c4c7874512562f81af1994cb5aceab3fb1241e66038bb03641d145eeabc45f5c",
        "scriptpubkey_asm": "OP_PUSHNUM_1 OP_PUSHBYTES_32 c4c7874512562f81af1994cb5aceab3fb1241e66038bb03641d145eeabc45f5c",
        "scriptpubkey_type": "v1_p2tr",
        "scriptpubkey_address": "bc1pcnrcw3gj2chcrtcejn944n4t87cjg8nxqw9mqdjp69z7a27ytawqyq4zdp",
        "value": 3248
      },
      "scriptsig": "",
      "scriptsig_asm": "",
      "witness": [
        "74a218e5cd38602da64efe3d045b5bb5856a599a1965f70027cc21970811ea72b4e6dc6f45ab9a2645d5d2412323c835761023c0de495aaf5c4a685a56f1ba2a",
        "20880d055de13e1e94e88b81eebf688929967f1eea17f47ffadb1b2e26bd5f9c7eac0063036f726401011e6170706c69636174696f6e2f6a736f6e3b636861727365743d7574662d38004cd37b2270223a22706f772d3230222c226f70223a226d696e74222c227469636b223a2250455045222c22616d74223a2231303030222c22736f6c7574696f6e223a22504550453a626331703378336875706e76383064666366666c34333367327a3776713378706c63673364666d79716365336d6c6d6e78397767753872717265763032653a303030303030303030303030303030303030303139393431613561653132383937363539383134343239323533333030353762306461393666336465613163353a3230313233363536343738227d68",
        "c1bf69a78b1b6433fca38fda21525e43a6c565682ca08e513a8f66feb668723930"
      ],
      "is_coinbase": false,
      "sequence": 4294967295
    }
  ],
  "vout": [
    {
      "scriptpubkey": "512089a37e066c3bda9c253fac62850bcc044c1fe1116a76406331dff73315c8e1c6",
      "scriptpubkey_asm": "OP_PUSHNUM_1 OP_PUSHBYTES_32 89a37e066c3bda9c253fac62850bcc044c1fe1116a76406331dff73315c8e1c6",
      "scriptpubkey_type": "v1_p2tr",
      "scriptpubkey_address": "bc1p3x3hupnv80dfcffl433g2z7vq3xplcg3dfmyqce3mlmnx9wgu8rqrev02e",
      "value": 546
    }
  ],
  "size": 487,
  "weight": 769,
  "fee": 2702,
  "status": {
    "confirmed": true,
    "block_height": 834460,
    "block_hash": "00000000000000000000484a79b643b2524bbce82e5d8a442013fa5b8905ed98",
    "block_time": 1710307468
  },
  "hex": "02000000000101bb15d63d881fca67db3b30c184de0e02fc1fba66b43b8bc417edfb22d9c435e81600000000ffffffff01220200000000000022512089a37e066c3bda9c253fac62850bcc044c1fe1116a76406331dff73315c8e1c6034074a218e5cd38602da64efe3d045b5bb5856a599a1965f70027cc21970811ea72b4e6dc6f45ab9a2645d5d2412323c835761023c0de495aaf5c4a685a56f1ba2afd200120880d055de13e1e94e88b81eebf688929967f1eea17f47ffadb1b2e26bd5f9c7eac0063036f726401011e6170706c69636174696f6e2f6a736f6e3b636861727365743d7574662d38004cd37b2270223a22706f772d3230222c226f70223a226d696e74222c227469636b223a2250455045222c22616d74223a2231303030222c22736f6c7574696f6e223a22504550453a626331703378336875706e76383064666366666c34333367327a3776713378706c63673364666d79716365336d6c6d6e78397767753872717265763032653a303030303030303030303030303030303030303139393431613561653132383937363539383134343239323533333030353762306461393666336465613163353a3230313233363536343738227d6821c1bf69a78b1b6433fca38fda21525e43a6c565682ca08e513a8f66feb66872393000000000"
}