{
  "txid": "c087efa078a3d8b212ac0407b6a90164469eef361c6fee9c5b56b4540834d61a",
  "version": 2,
  "locktime": 834458,
  "vin": [
    {
      "txid": "3d99ec40845dda4e67732ec041c4451717c8a8d27381aeeb31b795f35ee0efd4",
      "vout": 1,
      "prevout": {
        "scriptpubkey": "76a914eaab94372525b5fd96716e72a748117761405cbc88ac",
        "scriptpubkey_asm": "OP_DUP OP_HASH160 OP_PUSHBYTES_20 eaab94372525b5fd96716e72a748117761405cbc OP_EQUALVERIFY OP_CHECKSIG",
        "scriptpubkey_type": "p2pkh",
        "scriptpubkey_address": "1NPpfQRjkLE7dpmetxoEh3N4KcnFAsxhXX",
        "value": 69158966
      },
      "scriptsig": "47304402207653a942ce8e1f0429004b343e6c795a75b55ef983b7d94cc48b2dba0d88211c02203b8e33896062d5566acf505abb6db94f60ec94720d9cf8b1dd3c7519e6582581012102f6479d7e161769108a75f30f566e264b31a64b02aef051885d930d556830cad1",
      "scriptsig_asm": "OP_PUSHBYTES_71 304402207653a942ce8e1f0429004b343e6c795a75b55ef983b7d94cc48b2dba0d88211c02203b8e33896062d5566acf505abb6db94f60ec94720d9cf8b1dd3c7519e658258101 OP_PUSHBYTES_33 02f6479d7e161769108a75f30f566e264b31a64b02aef051885d930d556830cad1",
      "is_coinbase": false,
      "sequence": 4294967293
    }
  ],
  "vout": [
    {
      "scriptpubkey": "76a91460ac32f92a4f0b74fcf70da5278df14c2bff51ef88ac",
      "scriptpubkey_asm": "OP_DUP OP_HASH160 OP_PUSHBYTES_20 60ac32f92a4f0b74fcf70da5278df14c2bff51ef OP_EQUALVERIFY OP_CHECKSIG",
      "scriptpubkey_type": "p2pkh",
      "scriptpubkey_address": "19pAA2A6pUPpvJi1Bxvr9RSeoeTovQW6aU",
      "value": 21210
    },
    {
      "scriptpubkey": "76a914d837c0ab2a36604d567658c85ce87c96eeb209c188ac",
      "scriptpubkey_asm": "OP_DUP OP_HASH160 OP_PUSHBYTES_20 d837c0ab2a36604d567658c85ce87c96eeb209c1 OP_EQUALVERIFY OP_CHECKSIG",
      "scriptpubkey_type": "p2pkh",
      "scriptpubkey_address": "1LiFkCJ8ezXDRaFnq4yZTEnqfpmfELE8H6",
      "value": 69134584
    }
  ],
  "size": 225,
  "weight": 900,
  "fee": 3172,
  "status": {
    "confirmed": true,
    "block_height": 834460,
    "block_hash": "00000000000000000000484a79b643b2524bbce82e5d8a442013fa5b8905ed98",
    "block_time": 1710307468
  },
  "hex": "0200000001d4efe05ef395b731ebae8173d2a8c8171745c441c02e73674eda5d8440ec993d010000006a47304402207653a942ce8e1f0429004b343e6c795a75b55ef983b7d94cc48b2dba0d88211c02203b8e33896062d5566acf505abb6db94f60ec94720d9cf8b1dd3c7519e6582581012102f6479d7e161769108a75f30f566e264b31a64b02aef051885d930d556830cad1fdffffff02da520000000000001976a91460ac32f92a4f0b74fcf70da5278df14c2bff51ef88acf8e81e04000000001976a914d837c0ab2a36604d567658c85ce87c96eeb209c188ac9abb0c00"
}