{
  "txid": "c09cdcaee9659d4417c40541d780e3f3d0bdda3423f810380816cf48531da87f",
  "version": 2,
  "locktime": 0,
  "vin": [
    {
      "txid": "07b0f604693ff97dbad254b3da0982f6e253a75b34ca90f0943cb9ec74d3beff",
      "vout": 0,
      "prevout": {
        "scriptpubkey": "5120ad2f454063c07edc0f20890ac09e93c284f3adf33ab068d2de3fb64d82478d37",
        "scriptpubkey_asm": "OP_PUSHNUM_1 OP_PUSHBYTES_32 ad2f454063c07edc0f20890ac09e93c284f3adf33ab068d2de3fb64d82478d37",
        "scriptpubkey_type": "v1_p2tr",
        "scriptpubkey_address": "bc1p45h52srrcpldcreq3y9vp85nc2z08t0n82cx35k787mymqj835mskywupp",
        "value": 546
      },
      "scriptsig": "",
      "scriptsig_asm": "",
      "witness": [
        "51d9d787524e5f13f50a4b1366b1950456ea9a536262c4de48a1cb3b060faa0752e8913716cbaabcd9f1557bbe493a17c24ee7c7c361629ff9a93763e2dc5339"
      ],
      "is_coinbase": false,
      "sequence": 2147483649
    },
    {
      "txid": "8337cc5cef28121eaf4191b8f1f9754175c53384d7a4174f2a11b60071f420ac",
      "vout": 1,
      "prevout": {
        "scriptpubkey": "5120ad2f454063c07edc0f20890ac09e93c284f3adf33ab068d2de3fb64d82478d37",
        "scriptpubkey_asm": "OP_PUSHNUM_1 OP_PUSHBYTES_32 ad2f454063c07edc0f20890ac09e93c284f3adf33ab068d2de3fb64d82478d37",
        "scriptpubkey_type": "v1_p2tr",
        "scriptpubkey_address": "bc1p45h52srrcpldcreq3y9vp85nc2z08t0n82cx35k787mymqj835mskywupp",
        "value": 298056
      },
      "scriptsig": "",
      "scriptsig_asm": "",
      "witness": [
        "aa4b9f168b8537c9ed94d537f559b253af8c85dd321ed3837a3918d682b1f3373cfc08a46ba91b47bb697ca051da5442e05c8d38320bd25d5119249e939ee535"
      ],
      "is_coinbase": false,
      "sequence": 2147483649
    }
  ],
  "vout": [
    {
      "scriptpubkey": "5120b6c79878f3a6654183225ec4068e4caa3e01c5e8842d1241ad0ecfc023178b7d",
      "scriptpubkey_asm": "OP_PUSHNUM_1 OP_PUSHBYTES_32 b6c79878f3a6654183225ec4068e4caa3e01c5e8842d1241ad0ecfc023178b7d",
      "scriptpubkey_type": "v1_p2tr",
      "scriptpubkey_address": "bc1pkmres78n5ej5rqeztmzqdrjv4glqr30gssk3ysddpm8uqgch3d7s0esna4",
      "value": 546
    },
    {
      "scriptpubkey": "5120ad2f454063c07edc0f20890ac09e93c284f3adf33ab068d2de3fb64d82478d37",
      "scriptpubkey_asm": "OP_PUSHNUM_1 OP_PUSHBYTES_32 ad2f454063c07edc0f20890ac09e93c284f3adf33ab068d2de3fb64d82478d37",
      "scriptpubkey_type": "v1_p2tr",
      "scriptpubkey_address": "bc1p45h52srrcpldcreq3y9vp85nc2z08t0n82cx35k787mymqj835mskywupp",
      "value": 294891
    }
  ],
  "size": 312,
  "weight": 846,
  "fee": 3165,
  "status": {
    "confirmed": true,
    "block_height": 834638,
    "block_hash": "000000000000000000025f742c626208ac87e0b7d15054abb4a19ca2d735a54e",
    "block_time": 1710405325
  },
  "hex": "02000000000102ffbed374ecb93c94f090ca345ba753e2f68209dab354d2ba7df93f6904f6b007000000000001000080ac20f47100b6112a4f17a4d78433c5754175f9f1b89141af1e1228ef5ccc3783010000000001000080022202000000000000225120b6c79878f3a6654183225ec4068e4caa3e01c5e8842d1241ad0ecfc023178b7deb7f040000000000225120ad2f454063c07edc0f20890ac09e93c284f3adf33ab068d2de3fb64d82478d37014051d9d787524e5f13f50a4b1366b1950456ea9a536262c4de48a1cb3b060faa0752e8913716cbaabcd9f1557bbe493a17c24ee7c7c361629ff9a93763e2dc53390140aa4b9f168b8537c9ed94d537f559b253af8c85dd321ed3837a3918d682b1f3373cfc08a46ba91b47bb697ca051da5442e05c8d38320bd25d5119249e939ee53500000000"
}