{
  "txid": "c0b0913a57e37faeb5e9fad88b33b0ad4d3734c04211b75c80c2b9328e23e7c0",
  "version": 1,
  "locktime": 0,
  "vin": [
    {
      "txid": "6375af38dc645bfa16606c03a881383d70bd1ede0df511a0f9fab7b0273d30c0",
      "vout": 11,
      "prevout": {
        "scriptpubkey": "5120f1768c246d76ff8a45c86e479459158c70d9b33887ba83b7b633606f1b0bb536",
        "scriptpubkey_asm": "OP_PUSHNUM_1 OP_PUSHBYTES_32 f1768c246d76ff8a45c86e479459158c70d9b33887ba83b7b633606f1b0bb536",
        "scriptpubkey_type": "v1_p2tr",
        "scriptpubkey_address": "bc1p79mgcfrdwmlc53wgderegkg433cdnvecs7ag8dakxdsx7xctk5mqnszxzv",
        "value": 531507
      },
      "scriptsig": "",
      "scriptsig_asm": "",
      "witness": [
        "8cc434cbcd579e3f8502093ac72441a2c486e1e2d1de0a5fdba43da5147fc089961073ef63be3881017b14fbe893113ee0443697efc3efc582441697753714ee"
      ],
      "is_coinbase": false,
      "sequence": 4294967293
    }
  ],
  "vout": [
    {
      "scriptpubkey": "5120bcaac1d3ffe5f2b6204a705f11eabb5d57c4cdffa174090a0423644189c28d6b",
      "scriptpubkey_asm": "OP_PUSHNUM_1 OP_PUSHBYTES_32 bcaac1d3ffe5f2b6204a705f11eabb5d57c4cdffa174090a0423644189c28d6b",
      "scriptpubkey_type": "v1_p2tr",
      "scriptpubkey_address": "bc1phj4vr5lluhetvgz2wp03r64mt4tufn0l596qjzsyydjyrzwz344su3vw93",
      "value": 2561
    },
    {
      "scriptpubkey": "5120fc21c1265bd215002a09110678ccc753544d8e7b8a5d0a28da79a02a298e02b8",
      "scriptpubkey_asm": "OP_PUSHNUM_1 OP_PUSHBYTES_32 fc21c1265bd215002a09110678ccc753544d8e7b8a5d0a28da79a02a298e02b8",
      "scriptpubkey_type": "v1_p2tr",
      "scriptpubkey_address": "bc1plssuzfjm6g2sq2sfzyr83nx82d2ymrnm3fws52x60xsz52vwq2uq982e94",
      "value": 2561
    },
    {
      "scriptpubkey": "5120a89f716c716dc31f8529b9260dc8b173101567464431fd8968d239b459edef1c",
      "scriptpubkey_asm": "OP_PUSHNUM_1 OP_PUSHBYTES_32 a89f716c716dc31f8529b9260dc8b173101567464431fd8968d239b459edef1c",
      "scriptpubkey_type": "v1_p2tr",
      "scriptpubkey_address": "bc1p4z0hzmr3dhp3lpffhynqmj93wvgp2e6xgsclmztg6gumgk0dauwqej4zlx",
      "value": 2561
    },
    {
      "scriptpubkey": "512098c00c7c6e78c19942924a7476ea4a528f45fdfd2a7633fc3ef1a65a843acadd",
      "scriptpubkey_asm": "OP_PUSHNUM_1 OP_PUSHBYTES_32 98c00c7c6e78c19942924a7476ea4a528f45fdfd2a7633fc3ef1a65a843acadd",
      "scriptpubkey_type": "v1_p2tr",
      "scriptpubkey_address": "bc1pnrqqclrw0rqejs5jff68d6j22285tl0a9fmr8lp77xn94pp6etwsx83dx4",
      "value": 2561
    },
    {
      "scriptpubkey": "512030962266cdaf015c99ebb55050649c69ac844318a7eabc0cac0e6578e80ab66e",
      "scriptpubkey_asm": "OP_PUSHNUM_1 OP_PUSHBYTES_32 30962266cdaf015c99ebb55050649c69ac844318a7eabc0cac0e6578e80ab66e",
      "scriptpubkey_type": "v1_p2tr",
      "scriptpubkey_address": "bc1pxztzyekd4uq4ex0tk4g9qeyudxkggscc5l4tcr9vpejh36q2kehq6mnmpa",
      "value": 2561
    },
    {
      "scriptpubkey": "51209b57783ff38333b575f35634ba9795d28dddbe75b0e5fd582974df3b4f0fc37c",
      "scriptpubkey_asm": "OP_PUSHNUM_1 OP_PUSHBYTES_32 9b57783ff38333b575f35634ba9795d28dddbe75b0e5fd582974df3b4f0fc37c",
      "scriptpubkey_type": "v1_p2tr",
      "scriptpubkey_address": "bc1pndths0lnsvem2a0n2c6t49u462xam0n4krjl6kpfwn0nknc0cd7qmnxhf8",
      "value": 13975
    },
    {
      "scriptpubkey": "5120824d27318841c3affc2583ac5f354938bb8f2ac9148bfe2ee4f0dbea008f7d55",
      "scriptpubkey_asm": "OP_PUSHNUM_1 OP_PUSHBYTES_32 824d27318841c3affc2583ac5f354938bb8f2ac9148bfe2ee4f0dbea008f7d55",
      "scriptpubkey_type": "v1_p2tr",
      "scriptpubkey_address": "bc1psfxjwvvgg8p6llp9swk97d2f8zac72kfzj9luthy7rd75qy0042skqer0k",
      "value": 48000
    },
    {
      "scriptpubkey": "5120824d27318841c3affc2583ac5f354938bb8f2ac9148bfe2ee4f0dbea008f7d55",
      "scriptpubkey_asm": "OP_PUSHNUM_1 OP_PUSHBYTES_32 824d27318841c3affc2583ac5f354938bb8f2ac9148bfe2ee4f0dbea008f7d55",
      "scriptpubkey_type": "v1_p2tr",
      "scriptpubkey_address": "bc1psfxjwvvgg8p6llp9swk97d2f8zac72kfzj9luthy7rd75qy0042skqer0k",
      "value": 48000
    },
    {
      "scriptpubkey": "5120824d27318841c3affc2583ac5f354938bb8f2ac9148bfe2ee4f0dbea008f7d55",
      "scriptpubkey_asm": "OP_PUSHNUM_1 OP_PUSHBYTES_32 824d27318841c3affc2583ac5f354938bb8f2ac9148bfe2ee4f0dbea008f7d55",
      "scriptpubkey_type": "v1_p2tr",
      "scriptpubkey_address": "bc1psfxjwvvgg8p6llp9swk97d2f8zac72kfzj9luthy7rd75qy0042skqer0k",
      "value": 48000
    },
    {
      "scriptpubkey": "5120824d27318841c3affc2583ac5f354938bb8f2ac9148bfe2ee4f0dbea008f7d55",
      "scriptpubkey_asm": "OP_PUSHNUM_1 OP_PUSHBYTES_32 824d27318841c3affc2583ac5f354938bb8f2ac9148bfe2ee4f0dbea008f7d55",
      "scriptpubkey_type": "v1_p2tr",
      "scriptpubkey_address": "bc1psfxjwvvgg8p6llp9swk97d2f8zac72kfzj9luthy7rd75qy0042skqer0k",
      "value": 48000
    },
    {
      "scriptpubkey": "5120824d27318841c3affc2583ac5f354938bb8f2ac9148bfe2ee4f0dbea008f7d55",
      "scriptpubkey_asm": "OP_PUSHNUM_1 OP_PUSHBYTES_32 824d27318841c3affc2583ac5f354938bb8f2ac9148bfe2ee4f0dbea008f7d55",
      "scriptpubkey_type": "v1_p2tr",
      "scriptpubkey_address": "bc1psfxjwvvgg8p6llp9swk97d2f8zac72kfzj9luthy7rd75qy0042skqer0k",
      "value": 48000
    },
    {
      "scriptpubkey": "5120f1768c246d76ff8a45c86e479459158c70d9b33887ba83b7b633606f1b0bb536",
      "scriptpubkey_asm": "OP_PUSHNUM_1 OP_PUSHBYTES_32 f1768c246d76ff8a45c86e479459158c70d9b33887ba83b7b633606f1b0bb536",
      "scriptpubkey_type": "v1_p2tr",
      "scriptpubkey_address": "bc1p79mgcfrdwmlc53wgderegkg433cdnvecs7ag8dakxdsx7xctk5mqnszxzv",
      "value": 257356
    }
  ],
  "size": 635,
  "weight": 2336,
  "fee": 7371,
  "status": {
    "confirmed": true,
    "block_height": 834460,
    "block_hash": "00000000000000000000484a79b643b2524bbce82e5d8a442013fa5b8905ed98",
    "block_time": 1710307468
  },
  "hex": "01000000000101c0303d27b0b7faf9a011f50dde1ebd703d3881a8036c6016fa5b64dc38af75630b00000000fdffffff0c010a000000000000225120bcaac1d3ffe5f2b6204a705f11eabb5d57c4cdffa174090a0423644189c28d6b010a000000000000225120fc21c1265bd215002a09110678ccc753544d8e7b8a5d0a28da79a02a298e02b8010a000000000000225120a89f716c716dc31f8529b9260dc8b173101567464431fd8968d239b459edef1c010a00000000000022512098c00c7c6e78c19942924a7476ea4a528f45fdfd2a7633fc3ef1a65a843acadd010a00000000000022512030962266cdaf015c99ebb55050649c69ac844318a7eabc0cac0e6578e80ab66e97360000000000002251209b57783ff38333b575f35634ba9795d28dddbe75b0e5fd582974df3b4f0fc37c80bb000000000000225120824d27318841c3affc2583ac5f354938bb8f2ac9148bfe2ee4f0dbea008f7d5580bb000000000000225120824d27318841c3affc2583ac5f354938bb8f2ac9148bfe2ee4f0dbea008f7d5580bb000000000000225120824d27318841c3affc2583ac5f354938bb8f2ac9148bfe2ee4f0dbea008f7d5580bb000000000000225120824d27318841c3affc2583ac5f354938bb8f2ac9148bfe2ee4f0dbea008f7d5580bb000000000000225120824d27318841c3affc2583ac5f354938bb8f2ac9148bfe2ee4f0dbea008f7d554ced030000000000225120f1768c246d76ff8a45c86e479459158c70d9b33887ba83b7b633606f1b0bb53601408cc434cbcd579e3f8502093ac72441a2c486e1e2d1de0a5fdba43da5147fc089961073ef63be3881017b14fbe893113ee0443697efc3efc582441697753714ee00000000"
}