{
  "txid": "c0c5f1469e36a33cac6108101593e395744b0369cffe01f4fcea4f0e90f5608e",
  "version": 2,
  "locktime": 0,
  "vin": [
    {
      "txid": "b13bb5512a4904c28a6b7957b88edf574e8cb23551fc1dcfe22d6b239df42cf4",
      "vout": 92,
      "prevout": {
        "scriptpubkey": "512074bc8fe566214b9b6b85178e71da109a07e3bf196776a3112c335131d8515e9c",
        "scriptpubkey_asm": "OP_PUSHNUM_1 OP_PUSHBYTES_32 74bc8fe566214b9b6b85178e71da109a07e3bf196776a3112c335131d8515e9c",
        "scriptpubkey_type": "v1_p2tr",
        "scriptpubkey_address": "bc1pwj7gletxy99ek6u9z788rkssngr780cevam2xyfvxdgnrkz3t6wqsnqyat",
        "value": 2575
      },
      "scriptsig": "",
      "scriptsig_asm": "",
      "witness": [
        "a446c12496008fe69d0c491bb31c51190680845af71d69e1b1ba2095028503f4c7a4d7f88171e0525d44fdb0591f40cb332db742113dff9075f2da549fa0dad9",
        "205f0f17a96d07831921e207a123971afacfb540ee43768ce3fc23e1e9ccf2df9aac0063036f726401010a746578742f706c61696e00367b2270223a226272632d3230222c226f70223a226d696e74222c227469636b223a2261616161222c22616d74223a223130303030227d68",
        "c05f0f17a96d07831921e207a123971afacfb540ee43768ce3fc23e1e9ccf2df9a"
      ],
      "is_coinbase": false,
      "sequence": 4261412863
    }
  ],
  "vout": [
    {
      "scriptpubkey": "0014ce0b5aa0dac72397a8aa5a85d90a2cfb46f0f630",
      "scriptpubkey_asm": "OP_0 OP_PUSHBYTES_20 ce0b5aa0dac72397a8aa5a85d90a2cfb46f0f630",
      "scriptpubkey_type": "v0_p2wpkh",
      "scriptpubkey_address": "bc1qec944gx6cu3e0292t2zajz3vldr0pa3sh356d9",
      "value": 546
    }
  ],
  "size": 295,
  "weight": 541,
  "fee": 2029,
  "status": {
    "confirmed": true,
    "block_height": 834464,
    "block_hash": "0000000000000000000177a0869a911a2b65c9bdcd5a8bcb02b68f305bee848e",
    "block_time": 1710308296
  },
  "hex": "02000000000101f42cf49d236b2de2cf1dfc5135b28c4e57df8eb857796b8ac204492a51b53bb15c00000000fffffffd012202000000000000160014ce0b5aa0dac72397a8aa5a85d90a2cfb46f0f6300340a446c12496008fe69d0c491bb31c51190680845af71d69e1b1ba2095028503f4c7a4d7f88171e0525d44fdb0591f40cb332db742113dff9075f2da549fa0dad96e205f0f17a96d07831921e207a123971afacfb540ee43768ce3fc23e1e9ccf2df9aac0063036f726401010a746578742f706c61696e00367b2270223a226272632d3230222c226f70223a226d696e74222c227469636b223a2261616161222c22616d74223a223130303030227d6821c05f0f17a96d07831921e207a123971afacfb540ee43768ce3fc23e1e9ccf2df9a00000000"
}