{
  "txid": "c0cadc2046d982a30b1c6a4b91b3a8475bf69101c04382616c03f3b5b55984e0",
  "version": 1,
  "locktime": 0,
  "vin": [
    {
      "txid": "19c7fae482208f4920396bd5b85c27004ee0de7947a6c259338b0636d677293f",
      "vout": 134,
      "prevout": {
        "scriptpubkey": "0014b9db6ba8e9e9c2fa77fa118601c6af75c0af20e6",
        "scriptpubkey_asm": "OP_0 OP_PUSHBYTES_20 b9db6ba8e9e9c2fa77fa118601c6af75c0af20e6",
        "scriptpubkey_type": "v0_p2wpkh",
        "scriptpubkey_address": "bc1qh8dkh28fa8p05al6zxrqr340whq27g8xr433pc",
        "value": 367469
      },
      "scriptsig": "",
      "scriptsig_asm": "",
      "witness": [
        "304402207f1922bcea1e1fff4226ae57f66557f9b6e7485561df91c5f166c8084543ad19022015cf750de1101e632f125cf2728b50b9308342d1c789aaae1c0faabab1de692501",
        "02b428e4b2998c75f6f9b17575106d92781be039309f4270672eae8dec699df3c9"
      ],
      "is_coinbase": false,
      "sequence": 4294967293
    },
    {
      "txid": "1bc490e7ca43c9c594fc99eff31a9b13f6feaa2562afa561bc395683feca539e",
      "vout": 1,
      "prevout": {
        "scriptpubkey": "00147ba3c2d5ee2b25663315e799f44e071aa166d1b0",
        "scriptpubkey_asm": "OP_0 OP_PUSHBYTES_20 7ba3c2d5ee2b25663315e799f44e071aa166d1b0",
        "scriptpubkey_type": "v0_p2wpkh",
        "scriptpubkey_address": "bc1q0w3u940w9vjkvvc4u7vlgns8r2skd5dskmm2uu",
        "value": 459812
      },
      "scriptsig": "",
      "scriptsig_asm": "",
      "witness": [
        "3045022100c41e3bffeca7dc8b17bee067ef4bbdad1b282a7388cf1983e564e430c3288c820220354e97399759d5f4f5c44d34d19d809489f58b22520c44dbc3dcec0e9962608c01",
        "03b9a3b343ac6d689417c68a6e26853ab39b074167e362e1dc97b932a937bf4976"
      ],
      "is_coinbase": false,
      "sequence": 4294967293
    },
    {
      "txid": "241f1637bb3a48c18f097648e9c2a5ab29ab0a4047ebf06f496d2a3584e2fab1",
      "vout": 19,
      "prevout": {
        "scriptpubkey": "00149d502e43d88f5f9b4d8d1f6c1e7ef5a08254e74b",
        "scriptpubkey_asm": "OP_0 OP_PUSHBYTES_20 9d502e43d88f5f9b4d8d1f6c1e7ef5a08254e74b",
        "scriptpubkey_type": "v0_p2wpkh",
        "scriptpubkey_address": "bc1qn4gzus7c3a0eknvdrakpulh45zp9fe6tnjv2km",
        "value": 337865
      },
      "scriptsig": "",
      "scriptsig_asm": "",
      "witness": [
        "30450221009336a905eca7a5bf67fa0f9696de44a3ce284e6dbbf0c7368132ac1810437587022078071dd080598c8c16db7aef3bb7e35a8bf3dd6f296e0de471631f41dfc283cc01",
        "03646dd7652a4e76322ce22a8f891e569b2ed347bec757a8f921659d58ea440076"
      ],
      "is_coinbase": false,
      "sequence": 4294967293
    },
    {
      "txid": "33052c552cd2c46c038d8ceb1a82c19776ae02de32c3874b12ac1de81813bbfe",
      "vout": 8,
      "prevout": {
        "scriptpubkey": "00149d502e43d88f5f9b4d8d1f6c1e7ef5a08254e74b",
        "scriptpubkey_asm": "OP_0 OP_PUSHBYTES_20 9d502e43d88f5f9b4d8d1f6c1e7ef5a08254e74b",
        "scriptpubkey_type": "v0_p2wpkh",
        "scriptpubkey_address": "bc1qn4gzus7c3a0eknvdrakpulh45zp9fe6tnjv2km",
        "value": 276257
      },
      "scriptsig": "",
      "scriptsig_asm": "",
      "witness": [
        "3045022100c57e552d9bbf892d4bf94ce7bd0d0135314068f735d4ecf1bde10cf6943422bb022067443e928eb017b49966d1e567ebc3c09e8c68de52fed5d71a71b6ece7a88afc01",
        "03646dd7652a4e76322ce22a8f891e569b2ed347bec757a8f921659d58ea440076"
      ],
      "is_coinbase": false,
      "sequence": 4294967293
    },
    {
      "txid": "451625cccca25c326352a929e6ecd16bfa0534c2de217d8261a1c1c7d42e7052",
      "vout": 4,
      "prevout": {
        "scriptpubkey": "0014a76edfe67140937f3b4f0a91110bf8976dcfe3e2",
        "scriptpubkey_asm": "OP_0 OP_PUSHBYTES_20 a76edfe67140937f3b4f0a91110bf8976dcfe3e2",
        "scriptpubkey_type": "v0_p2wpkh",
        "scriptpubkey_address": "bc1q5ahdlen3gzfh7w60p2g3zzlcjakulclzmmvgva",
        "value": 367970
      },
      "scriptsig": "",
      "scriptsig_asm": "",
      "witness": [
        "3044022008c2878459131ffa7fedd27c368a11c269795537e56d0070010657fa2328fb8402207027a1e8551940639bb28fa273979cecd8ed77a8fcdebe641734eacc6b7e596401",
        "030eff05c6a74d95cf0b74023cfa7de2ccc470cad8a167324308509cedc4ba455e"
      ],
      "is_coinbase": false,
      "sequence": 4294967293
    },
    {
      "txid": "459deda37ab27b2a777850b8d370401131e273653d348fe93a2f2e1adbd1e34b",
      "vout": 92,
      "prevout": {
        "scriptpubkey": "0014a76edfe67140937f3b4f0a91110bf8976dcfe3e2",
        "scriptpubkey_asm": "OP_0 OP_PUSHBYTES_20 a76edfe67140937f3b4f0a91110bf8976dcfe3e2",
        "scriptpubkey_type": "v0_p2wpkh",
        "scriptpubkey_address": "bc1q5ahdlen3gzfh7w60p2g3zzlcjakulclzmmvgva",
        "value": 309513
      },
      "scriptsig": "",
      "scriptsig_asm": "",
      "witness": [
        "3045022100b8b4d0175d77786e8d55e378873d8c04edcb603053bd2462b092bd26ae0926ed02204f553beb8cb60bb8d1031c4a317fbeba333f2df7ec6ec54b37be65ffe5786bd301",
        "030eff05c6a74d95cf0b74023cfa7de2ccc470cad8a167324308509cedc4ba455e"
      ],
      "is_coinbase": false,
      "sequence": 4294967293
    },
    {
      "txid": "4db616c419984290bcb72d5900d818996bbc0d6132a185ba4527690120536d8a",
      "vout": 1,
      "prevout": {
        "scriptpubkey": "00146ffdc447ce1b881a531c8a87d4838e14a039c78c",
        "scriptpubkey_asm": "OP_0 OP_PUSHBYTES_20 6ffdc447ce1b881a531c8a87d4838e14a039c78c",
        "scriptpubkey_type": "v0_p2wpkh",
        "scriptpubkey_address": "bc1qdl7ug37wrwyp55cu32rafquwzjsrn3uv2g28tr",
        "value": 333891
      },
      "scriptsig": "",
      "scriptsig_asm": "",
      "witness": [
        "3044022021fa482975750d5213ee8a992169191d1870557aa0f7cf739853d91053d2cb3f02202dd294b3d9197c6eb9dcc220de6245a9d485c5af699f693246be54a07e6a07a601",
        "03ae323db82f2fb6e3255a090e8cd53d6017444a12fe86495108e2d7f3dc1314e2"
      ],
      "is_coinbase": false,
      "sequence": 4294967293
    },
    {
      "txid": "671691f20780e60e01c349f99b2a34e9508293cfc485923fdda581df59d77b5f",
      "vout": 6,
      "prevout": {
        "scriptpubkey": "0014b9db6ba8e9e9c2fa77fa118601c6af75c0af20e6",
        "scriptpubkey_asm": "OP_0 OP_PUSHBYTES_20 b9db6ba8e9e9c2fa77fa118601c6af75c0af20e6",
        "scriptpubkey_type": "v0_p2wpkh",
        "scriptpubkey_address": "bc1qh8dkh28fa8p05al6zxrqr340whq27g8xr433pc",
        "value": 246000
      },
      "scriptsig": "",
      "scriptsig_asm": "",
      "witness": [
        "3045022100d405ee3f4ee0f60fba1b8b84e260c6c954e53f4a7b20ec0530d1116dabdc1cb0022060a4aae26033c53bcb24d76b311c085292cc38fa74eda3a65b29926019d70a9b01",
        "02b428e4b2998c75f6f9b17575106d92781be039309f4270672eae8dec699df3c9"
      ],
      "is_coinbase": false,
      "sequence": 4294967293
    },
    {
      "txid": "67b696bb05bd61a819b752496a29083c74fc5b1bf5c242453b59eab9719cde25",
      "vout": 8,
      "prevout": {
        "scriptpubkey": "00149d502e43d88f5f9b4d8d1f6c1e7ef5a08254e74b",
        "scriptpubkey_asm": "OP_0 OP_PUSHBYTES_20 9d502e43d88f5f9b4d8d1f6c1e7ef5a08254e74b",
        "scriptpubkey_type": "v0_p2wpkh",
        "scriptpubkey_address": "bc1qn4gzus7c3a0eknvdrakpulh45zp9fe6tnjv2km",
        "value": 379661
      },
      "scriptsig": "",
      "scriptsig_asm": "",
      "witness": [
        "304402204f95e2de2501e4b39bb29444867fb27ec12250e0674f6a9f3e1eb460ec6b7adf02206604a754a094ae24eb79a48f9cf36ae550351ba181d627b4afaba4d5600e29ef01",
        "03646dd7652a4e76322ce22a8f891e569b2ed347bec757a8f921659d58ea440076"
      ],
      "is_coinbase": false,
      "sequence": 4294967293
    },
    {
      "txid": "7a4fc2ee306125448b5e3c39f919a505e156fe06175438a7034f4a5fe04a4458",
      "vout": 15,
      "prevout": {
        "scriptpubkey": "00149d502e43d88f5f9b4d8d1f6c1e7ef5a08254e74b",
        "scriptpubkey_asm": "OP_0 OP_PUSHBYTES_20 9d502e43d88f5f9b4d8d1f6c1e7ef5a08254e74b",
        "scriptpubkey_type": "v0_p2wpkh",
        "scriptpubkey_address": "bc1qn4gzus7c3a0eknvdrakpulh45zp9fe6tnjv2km",
        "value": 447547
      },
      "scriptsig": "",
      "scriptsig_asm": "",
      "witness": [
        "3045022100e9ef64aefe8514ba28ce67b1f15c713b5da0e4fdbe7500a13764e1d85f2f036402204c611e7d0841ca4aab8707cc9811cd918372da336fa4d1495c117d9bc7d055be01",
        "03646dd7652a4e76322ce22a8f891e569b2ed347bec757a8f921659d58ea440076"
      ],
      "is_coinbase": false,
      "sequence": 4294967293
    },
    {
      "txid": "7b2960262d0d27cce3cf1380909ade2be18e33f093ebde1623c9cb024620d78e",
      "vout": 31,
      "prevout": {
        "scriptpubkey": "0014a76edfe67140937f3b4f0a91110bf8976dcfe3e2",
        "scriptpubkey_asm": "OP_0 OP_PUSHBYTES_20 a76edfe67140937f3b4f0a91110bf8976dcfe3e2",
        "scriptpubkey_type": "v0_p2wpkh",
        "scriptpubkey_address": "bc1q5ahdlen3gzfh7w60p2g3zzlcjakulclzmmvgva",
        "value": 428363
      },
      "scriptsig": "",
      "scriptsig_asm": "",
      "witness": [
        "304402205ed4b0333d3c0f68d80977e0d76dc486b2d497b0f7ed54daf74561ba3b20cd530220579781bc6dff5df6f751411e2331877b7656444009f8faf3ac99c564c08ff85601",
        "030eff05c6a74d95cf0b74023cfa7de2ccc470cad8a167324308509cedc4ba455e"
      ],
      "is_coinbase": false,
      "sequence": 4294967293
    },
    {
      "txid": "8e7efe29310ad588f948a8f2c9abf94869cf44a42dc94d024b5c53435b6ee1f2",
      "vout": 20,
      "prevout": {
        "scriptpubkey": "0014bd23232264145e512d54971bfedd0823cb901cbf",
        "scriptpubkey_asm": "OP_0 OP_PUSHBYTES_20 bd23232264145e512d54971bfedd0823cb901cbf",
        "scriptpubkey_type": "v0_p2wpkh",
        "scriptpubkey_address": "bc1qh53jxgnyz309zt25judlahggy09eq89lppdkdu",
        "value": 431658
      },
      "scriptsig": "",
      "scriptsig_asm": "",
      "witness": [
        "3045022100aa149490f61234809b05ff0d57b7c8d0ffa7a8c9167dfdc041878e47d94ebba0022034b584741115591ee79484fcdd49467c7f765987264d7ab94886f902abb7949701",
        "02cb101d911c186c00dfbbedf286c7aa746ff0d6228eeebaf098b32fc7ec830f40"
      ],
      "is_coinbase": false,
      "sequence": 4294967293
    },
    {
      "txid": "c79a7c6e8892368f70649e1a3e80efc170caa85df38617969242831e016f9ad9",
      "vout": 14,
      "prevout": {
        "scriptpubkey": "0014b9db6ba8e9e9c2fa77fa118601c6af75c0af20e6",
        "scriptpubkey_asm": "OP_0 OP_PUSHBYTES_20 b9db6ba8e9e9c2fa77fa118601c6af75c0af20e6",
        "scriptpubkey_type": "v0_p2wpkh",
        "scriptpubkey_address": "bc1qh8dkh28fa8p05al6zxrqr340whq27g8xr433pc",
        "value": 230522
      },
      "scriptsig": "",
      "scriptsig_asm": "",
      "witness": [
        "304402200e679c780c894b34d26a6f8159b1594daf5b09632969f94d84c86c39841fe75b022002c4fcdebb5779155b26990633556abd9ee36db6e2b184695b45561217920f5001",
        "02b428e4b2998c75f6f9b17575106d92781be039309f4270672eae8dec699df3c9"
      ],
      "is_coinbase": false,
      "sequence": 4294967293
    },
    {
      "txid": "cff1ee0d33e070a3200460228732164bc2755087ec86718568aa2662e1bcce09",
      "vout": 2,
      "prevout": {
        "scriptpubkey": "0014b9db6ba8e9e9c2fa77fa118601c6af75c0af20e6",
        "scriptpubkey_asm": "OP_0 OP_PUSHBYTES_20 b9db6ba8e9e9c2fa77fa118601c6af75c0af20e6",
        "scriptpubkey_type": "v0_p2wpkh",
        "scriptpubkey_address": "bc1qh8dkh28fa8p05al6zxrqr340whq27g8xr433pc",
        "value": 435981
      },
      "scriptsig": "",
      "scriptsig_asm": "",
      "witness": [
        "3045022100c2e18ca050208f9047e5bd88ff168070affe0d4a2af4b8ee0c1c7642c38122d7022019cd280269495fd1e382d94d39fe5e108595441803d76790774f0eee88b9c99901",
        "02b428e4b2998c75f6f9b17575106d92781be039309f4270672eae8dec699df3c9"
      ],
      "is_coinbase": false,
      "sequence": 4294967293
    },
    {
      "txid": "d5e662341c1ac601e0688f995fcd21dc5b663aea04edd5c8ee0366def72829eb",
      "vout": 11,
      "prevout": {
        "scriptpubkey": "00149d502e43d88f5f9b4d8d1f6c1e7ef5a08254e74b",
        "scriptpubkey_asm": "OP_0 OP_PUSHBYTES_20 9d502e43d88f5f9b4d8d1f6c1e7ef5a08254e74b",
        "scriptpubkey_type": "v0_p2wpkh",
        "scriptpubkey_address": "bc1qn4gzus7c3a0eknvdrakpulh45zp9fe6tnjv2km",
        "value": 449000
      },
      "scriptsig": "",
      "scriptsig_asm": "",
      "witness": [
        "304502210083037fe615f7ce183538c11d8754e3492b4acb9046b8fe64298aa62acdb06f2e022028d4a942f693caf95b9b87f23e81ece45aaf7853c51d0dbe258cc368d355564301",
        "03646dd7652a4e76322ce22a8f891e569b2ed347bec757a8f921659d58ea440076"
      ],
      "is_coinbase": false,
      "sequence": 4294967293
    },
    {
      "txid": "ddaf7a3f6a0a47adf559617622b45dc651fe622284e64f04157757f12999c51a",
      "vout": 70,
      "prevout": {
        "scriptpubkey": "0014b9db6ba8e9e9c2fa77fa118601c6af75c0af20e6",
        "scriptpubkey_asm": "OP_0 OP_PUSHBYTES_20 b9db6ba8e9e9c2fa77fa118601c6af75c0af20e6",
        "scriptpubkey_type": "v0_p2wpkh",
        "scriptpubkey_address": "bc1qh8dkh28fa8p05al6zxrqr340whq27g8xr433pc",
        "value": 322117
      },
      "scriptsig": "",
      "scriptsig_asm": "",
      "witness": [
        "3045022100ce8a32188cbf7c7713dc318bd5f1861989db4d54602e44f13de854510fc77c4f022017e384dde29cd27c9637368a48ff3e3fa084d2f6ebd525798ed8593588cb733501",
        "02b428e4b2998c75f6f9b17575106d92781be039309f4270672eae8dec699df3c9"
      ],
      "is_coinbase": false,
      "sequence": 4294967293
    },
    {
      "txid": "e7517d4dca12eaa9679ba9fe61c027f9d2c2390f6ccfad835c5806d76bad9da4",
      "vout": 9,
      "prevout": {
        "scriptpubkey": "0014b9db6ba8e9e9c2fa77fa118601c6af75c0af20e6",
        "scriptpubkey_asm": "OP_0 OP_PUSHBYTES_20 b9db6ba8e9e9c2fa77fa118601c6af75c0af20e6",
        "scriptpubkey_type": "v0_p2wpkh",
        "scriptpubkey_address": "bc1qh8dkh28fa8p05al6zxrqr340whq27g8xr433pc",
        "value": 352310
      },
      "scriptsig": "",
      "scriptsig_asm": "",
      "witness": [
        "304402201fe3f800c49ee39364738c4d798dce57e662c340462431d1579a83d35df1809202202b1fff7b98b505e75d4a298d0524b4f903e850013831f304fc09277afe6739eb01",
        "02b428e4b2998c75f6f9b17575106d92781be039309f4270672eae8dec699df3c9"
      ],
      "is_coinbase": false,
      "sequence": 4294967293
    },
    {
      "txid": "f090311202191c3ecd9c8db3d13782f00f7e039f8f7f40027e78856c37eb4b36",
      "vout": 1,
      "prevout": {
        "scriptpubkey": "0014b9db6ba8e9e9c2fa77fa118601c6af75c0af20e6",
        "scriptpubkey_asm": "OP_0 OP_PUSHBYTES_20 b9db6ba8e9e9c2fa77fa118601c6af75c0af20e6",
        "scriptpubkey_type": "v0_p2wpkh",
        "scriptpubkey_address": "bc1qh8dkh28fa8p05al6zxrqr340whq27g8xr433pc",
        "value": 428198
      },
      "scriptsig": "",
      "scriptsig_asm": "",
      "witness": [
        "304402205f3d481d7c741442f6777908af829f0bd3ade7a6e5e4fe1418f8775af7f58b4a022064fe2154c0fde344cc6631377d97cb55f1c0a762c70e6ea21950681f8205d86701",
        "02b428e4b2998c75f6f9b17575106d92781be039309f4270672eae8dec699df3c9"
      ],
      "is_coinbase": false,
      "sequence": 4294967293
    }
  ],
  "vout": [
    {
      "scriptpubkey": "a914cc666fc1288ca817d82fd436844d952d6e66e11e87",
      "scriptpubkey_asm": "OP_HASH160 OP_PUSHBYTES_20 cc666fc1288ca817d82fd436844d952d6e66e11e OP_EQUAL",
      "scriptpubkey_type": "p2sh",
      "scriptpubkey_address": "3LKnV6LUWxpv2PUNF4gDrjvjZpBRB3CDwZ",
      "value": 6583600
    }
  ],
  "size": 2718,
  "weight": 5058,
  "fee": 20534,
  "status": {
    "confirmed": true,
    "block_height": 834638,
    "block_hash": "000000000000000000025f742c626208ac87e0b7d15054abb4a19ca2d735a54e",
    "block_time": 1710405325
  },
  "hex": "010000000001123f2977d636068b3359c2a64779dee04e00275cb8d56b3920498f2082e4fac7198600000000fdffffff9e53cafe835639bc61a5af6225aafef6139b1af3ef99fc94c5c943cae790c41b0100000000fdffffffb1fae284352a6d496ff0eb47400aab29aba5c2e94876098fc1483abb37161f241300000000fdfffffffebb1318e81dac124b87c332de02ae7697c1821aeb8c8d036cc4d22c552c05330800000000fdffffff52702ed4c7c1a161827d21dec23405fa6bd1ece629a95263325ca2cccc2516450400000000fdffffff4be3d1db1a2e2f3ae98f343d6573e231114070d3b85078772a7bb27aa3ed9d455c00000000fdffffff8a6d532001692745ba85a132610dbc6b9918d800592db7bc90429819c416b64d0100000000fdffffff5f7bd759df81a5dd3f9285c4cf938250e9342a9bf949c3010ee68007f29116670600000000fdffffff25de9c71b9ea593b4542c2f51b5bfc743c08296a4952b719a861bd05bb96b6670800000000fdffffff58444ae05f4a4f03a738541706fe56e105a519f9393c5e8b44256130eec24f7a0f00000000fdffffff8ed7204602cbc92316deeb93f0338ee12bde9a908013cfe3cc270d2d2660297b1f00000000fdfffffff2e16e5b43535c4b024dc92da444cf6948f9abc9f2a848f988d50a3129fe7e8e1400000000fdffffffd99a6f011e834292961786f35da8ca70c1ef803e1a9e64708f3692886e7c9ac70e00000000fdffffff09cebce16226aa68857186ec875075c24b16328722600420a370e0330deef1cf0200000000fdffffffeb2928f7de6603eec8d5ed04ea3a665bdc21cd5f998f68e001c61a1c3462e6d50b00000000fdffffff1ac59929f1577715044fe6842262fe51c65db422766159f5ad470a6a3f7aafdd4600000000fdffffffa49dad6bd706585c83adcf6c0f39c2d2f927c061fea99b67a9ea12ca4d7d51e70900000000fdffffff364beb376c85787e02407f8f9f037e0ff08237d1b38d9ccd3e1c1902123190f00100000000fdffffff01307564000000000017a914cc666fc1288ca817d82fd436844d952d6e66e11e870247304402207f1922bcea1e1fff4226ae57f66557f9b6e7485561df91c5f166c8084543ad19022015cf750de1101e632f125cf2728b50b9308342d1c789aaae1c0faabab1de6925012102b428e4b2998c75f6f9b17575106d92781be039309f4270672eae8dec699df3c902483045022100c41e3bffeca7dc8b17bee067ef4bbdad1b282a7388cf1983e564e430c3288c820220354e97399759d5f4f5c44d34d19d809489f58b22520c44dbc3dcec0e9962608c012103b9a3b343ac6d689417c68a6e26853ab39b074167e362e1dc97b932a937bf4976024830450221009336a905eca7a5bf67fa0f9696de44a3ce284e6dbbf0c7368132ac1810437587022078071dd080598c8c16db7aef3bb7e35a8bf3dd6f296e0de471631f41dfc283cc012103646dd7652a4e76322ce22a8f891e569b2ed347bec757a8f921659d58ea44007602483045022100c57e552d9bbf892d4bf94ce7bd0d0135314068f735d4ecf1bde10cf6943422bb022067443e928eb017b49966d1e567ebc3c09e8c68de52fed5d71a71b6ece7a88afc012103646dd7652a4e76322ce22a8f891e569b2ed347bec757a8f921659d58ea44007602473044022008c2878459131ffa7fedd27c368a11c269795537e56d0070010657fa2328fb8402207027a1e8551940639bb28fa273979cecd8ed77a8fcdebe641734eacc6b7e59640121030eff05c6a74d95cf0b74023cfa7de2ccc470cad8a167324308509cedc4ba455e02483045022100b8b4d0175d77786e8d55e378873d8c04edcb603053bd2462b092bd26ae0926ed02204f553beb8cb60bb8d1031c4a317fbeba333f2df7ec6ec54b37be65ffe5786bd30121030eff05c6a74d95cf0b74023cfa7de2ccc470cad8a167324308509cedc4ba455e02473044022021fa482975750d5213ee8a992169191d1870557aa0f7cf739853d91053d2cb3f02202dd294b3d9197c6eb9dcc220de6245a9d485c5af699f693246be54a07e6a07a6012103ae323db82f2fb6e3255a090e8cd53d6017444a12fe86495108e2d7f3dc1314e202483045022100d405ee3f4ee0f60fba1b8b84e260c6c954e53f4a7b20ec0530d1116dabdc1cb0022060a4aae26033c53bcb24d76b311c085292cc38fa74eda3a65b29926019d70a9b012102b428e4b2998c75f6f9b17575106d92781be039309f4270672eae8dec699df3c90247304402204f95e2de2501e4b39bb29444867fb27ec12250e0674f6a9f3e1eb460ec6b7adf02206604a754a094ae24eb79a48f9cf36ae550351ba181d627b4afaba4d5600e29ef012103646dd7652a4e76322ce22a8f891e569b2ed347bec757a8f921659d58ea44007602483045022100e9ef64aefe8514ba28ce67b1f15c713b5da0e4fdbe7500a13764e1d85f2f036402204c611e7d0841ca4aab8707cc9811cd918372da336fa4d1495c117d9bc7d055be012103646dd7652a4e76322ce22a8f891e569b2ed347bec757a8f921659d58ea4400760247304402205ed4b0333d3c0f68d80977e0d76dc486b2d497b0f7ed54daf74561ba3b20cd530220579781bc6dff5df6f751411e2331877b7656444009f8faf3ac99c564c08ff8560121030eff05c6a74d95cf0b74023cfa7de2ccc470cad8a167324308509cedc4ba455e02483045022100aa149490f61234809b05ff0d57b7c8d0ffa7a8c9167dfdc041878e47d94ebba0022034b584741115591ee79484fcdd49467c7f765987264d7ab94886f902abb79497012102cb101d911c186c00dfbbedf286c7aa746ff0d6228eeebaf098b32fc7ec830f400247304402200e679c780c894b34d26a6f8159b1594daf5b09632969f94d84c86c39841fe75b022002c4fcdebb5779155b26990633556abd9ee36db6e2b184695b45561217920f50012102b428e4b2998c75f6f9b17575106d92781be039309f4270672eae8dec699df3c902483045022100c2e18ca050208f9047e5bd88ff168070affe0d4a2af4b8ee0c1c7642c38122d7022019cd280269495fd1e382d94d39fe5e108595441803d76790774f0eee88b9c999012102b428e4b2998c75f6f9b17575106d92781be039309f4270672eae8dec699df3c90248304502210083037fe615f7ce183538c11d8754e3492b4acb9046b8fe64298aa62acdb06f2e022028d4a942f693caf95b9b87f23e81ece45aaf7853c51d0dbe258cc368d3555643012103646dd7652a4e76322ce22a8f891e569b2ed347bec757a8f921659d58ea44007602483045022100ce8a32188cbf7c7713dc318bd5f1861989db4d54602e44f13de854510fc77c4f022017e384dde29cd27c9637368a48ff3e3fa084d2f6ebd525798ed8593588cb7335012102b428e4b2998c75f6f9b17575106d92781be039309f4270672eae8dec699df3c90247304402201fe3f800c49ee39364738c4d798dce57e662c340462431d1579a83d35df1809202202b1fff7b98b505e75d4a298d0524b4f903e850013831f304fc09277afe6739eb012102b428e4b2998c75f6f9b17575106d92781be039309f4270672eae8dec699df3c90247304402205f3d481d7c741442f6777908af829f0bd3ade7a6e5e4fe1418f8775af7f58b4a022064fe2154c0fde344cc6631377d97cb55f1c0a762c70e6ea21950681f8205d867012102b428e4b2998c75f6f9b17575106d92781be039309f4270672eae8dec699df3c900000000"
}