{
  "txid": "c0d67d6cb71d5cd372060a6f508017d0e90167f111a5219a0008cfa5eb37b0fa",
  "version": 1,
  "locktime": 0,
  "vin": [
    {
      "txid": "c5f7614f62f721e07be9808cab67c722904b0d4ddd4cb3334b86203ab3c76e68",
      "vout": 0,
      "prevout": {
        "scriptpubkey": "76a9147478a9bffb58b9d40f1dad6cc7cd0a034568d29188ac",
        "scriptpubkey_asm": "OP_DUP OP_HASH160 OP_PUSHBYTES_20 7478a9bffb58b9d40f1dad6cc7cd0a034568d291 OP_EQUALVERIFY OP_CHECKSIG",
        "scriptpubkey_type": "p2pkh",
        "scriptpubkey_address": "1Bcqw56A7Z7e8LF6gxngwhVTumKGSGy2vP",
        "value": 102080000
      },
      "scriptsig": "483045022100fbedd58be998bbfd21ba1b7cfe89f29ead1df1499d976b4c8b3a00ee0936aafb0220750138809745481ad4fb66789a400cb4168e92c035e78485c2cd8785628000df0121030c68cb69accde839efcd744dfd4a81c0602e1278b18ec7d85058235b140fbb0b",
      "scriptsig_asm": "OP_PUSHBYTES_72 3045022100fbedd58be998bbfd21ba1b7cfe89f29ead1df1499d976b4c8b3a00ee0936aafb0220750138809745481ad4fb66789a400cb4168e92c035e78485c2cd8785628000df01 OP_PUSHBYTES_33 030c68cb69accde839efcd744dfd4a81c0602e1278b18ec7d85058235b140fbb0b",
      "is_coinbase": false,
      "sequence": 4294967295
    }
  ],
  "vout": [
    {
      "scriptpubkey": "00149b5623d2572b96c8f05f5e3cf5b80280353373c3",
      "scriptpubkey_asm": "OP_0 OP_PUSHBYTES_20 9b5623d2572b96c8f05f5e3cf5b80280353373c3",
      "scriptpubkey_type": "v0_p2wpkh",
      "scriptpubkey_address": "bc1qndtz85jh9wtv3uzltc70twqzsq6nxu7rc9f5zp",
      "value": 102035400
    }
  ],
  "size": 189,
  "weight": 756,
  "fee": 44600,
  "status": {
    "confirmed": true,
    "block_height": 834638,
    "block_hash": "000000000000000000025f742c626208ac87e0b7d15054abb4a19ca2d735a54e",
    "block_time": 1710405325
  },
  "hex": "0100000001686ec7b33a20864b33b34cdd4d0d4b9022c767ab8c80e97be021f7624f61f7c5000000006b483045022100fbedd58be998bbfd21ba1b7cfe89f29ead1df1499d976b4c8b3a00ee0936aafb0220750138809745481ad4fb66789a400cb4168e92c035e78485c2cd8785628000df0121030c68cb69accde839efcd744dfd4a81c0602e1278b18ec7d85058235b140fbb0bffffffff01c8ef1406000000001600149b5623d2572b96c8f05f5e3cf5b80280353373c300000000"
}