{
  "txid": "c0e786b6e06e8f9efd9ca36398a96d5a11e972dd3015a418f6042a2977f8ccea",
  "version": 2,
  "locktime": 0,
  "vin": [
    {
      "txid": "2ee7e9bc2f0f43192f5d2dcb9ba2f7bf417e46f7a86aea7e61bf494a2116911f",
      "vout": 3,
      "prevout": {
        "scriptpubkey": "5120e7160a3de041b6947e837defb1279454c954344615210b0f7004e56262745d54",
        "scriptpubkey_asm": "OP_PUSHNUM_1 OP_PUSHBYTES_32 e7160a3de041b6947e837defb1279454c954344615210b0f7004e56262745d54",
        "scriptpubkey_type": "v1_p2tr",
        "scriptpubkey_address": "bc1puutq500qgxmfgl5r0hhmzfu52ny4gdzxz5sskrmsqnjkycn5t42qavp6zq",
        "value": 2862
      },
      "scriptsig": "",
      "scriptsig_asm": "",
      "witness": [
        "ff5b4c9bd44b4930712988f6dc36be7b817b440474f73464c25cd8e2615dcfa75be72ba837787777695eb6d5a821a75d2d0b3ba1bbc4dfd8a08d81db42404b35",
        "20dd30d5ff1739a0b16b06ef8e2052ca27b6d3a3d39549ed35a07964f1b62382f2ac0063036f726401011e6170706c69636174696f6e2f6a736f6e3b636861727365743d7574662d38004cd37b2270223a22706f772d3230222c226f70223a226d696e74222c227469636b223a2250455045222c22616d74223a2231303030222c22736f6c7574696f6e223a22504550453a6263317032643677617a36736d6332646c33337861686b7364747a70793379397164713670677072776d3535376d303063646135303976733972333779633a303030303030303030303030303030303030303139393431613561653132383937363539383134343239323533333030353762306461393666336465613163353a3530333137393934363732227d68",
        "c1c302becc0a7fa5f96ff01f380e695b2faa1e460e5e66e108f6410cf3df3f4a28"
      ],
      "is_coinbase": false,
      "sequence": 4294967295
    }
  ],
  "vout": [
    {
      "scriptpubkey": "51205374ee8b50de14dfc626eded06ac41244850341a0a02376e94f6defc37b47959",
      "scriptpubkey_asm": "OP_PUSHNUM_1 OP_PUSHBYTES_32 5374ee8b50de14dfc626eded06ac41244850341a0a02376e94f6defc37b47959",
      "scriptpubkey_type": "v1_p2tr",
      "scriptpubkey_address": "bc1p2d6waz6smc2dl33xahksdtzpy3y9qdq6pgprwm557m00cda509vs9r37yc",
      "value": 546
    }
  ],
  "size": 487,
  "weight": 769,
  "fee": 2316,
  "status": {
    "confirmed": true,
    "block_height": 834460,
    "block_hash": "00000000000000000000484a79b643b2524bbce82e5d8a442013fa5b8905ed98",
    "block_time": 1710307468
  },
  "hex": "020000000001011f9116214a49bf617eea6aa8f7467e41bff7a29bcb2d5d2f19430f2fbce9e72e0300000000ffffffff0122020000000000002251205374ee8b50de14dfc626eded06ac41244850341a0a02376e94f6defc37b479590340ff5b4c9bd44b4930712988f6dc36be7b817b440474f73464c25cd8e2615dcfa75be72ba837787777695eb6d5a821a75d2d0b3ba1bbc4dfd8a08d81db42404b35fd200120dd30d5ff1739a0b16b06ef8e2052ca27b6d3a3d39549ed35a07964f1b62382f2ac0063036f726401011e6170706c69636174696f6e2f6a736f6e3b636861727365743d7574662d38004cd37b2270223a22706f772d3230222c226f70223a226d696e74222c227469636b223a2250455045222c22616d74223a2231303030222c22736f6c7574696f6e223a22504550453a6263317032643677617a36736d6332646c33337861686b7364747a70793379397164713670677072776d3535376d303063646135303976733972333779633a303030303030303030303030303030303030303139393431613561653132383937363539383134343239323533333030353762306461393666336465613163353a3530333137393934363732227d6821c1c302becc0a7fa5f96ff01f380e695b2faa1e460e5e66e108f6410cf3df3f4a2800000000"
}