{
  "txid": "c0eab7e1d5cab91a06e028929ccfe0dc8f3f8c5b324ac3ff628c12d7cfc117e9",
  "version": 1,
  "locktime": 0,
  "vin": [
    {
      "txid": "d4d51abbe97a8590f73b7f460c223594eb8b09598d6a345bfb6fb71a13a60cf6",
      "vout": 1,
      "prevout": {
        "scriptpubkey": "00141b06f46bfd72b154f90e5e4f34d7088963ea438f",
        "scriptpubkey_asm": "OP_0 OP_PUSHBYTES_20 1b06f46bfd72b154f90e5e4f34d7088963ea438f",
        "scriptpubkey_type": "v0_p2wpkh",
        "scriptpubkey_address": "bc1qrvr0g6law2c4f7gwte8nf4cg39375su0c9827a",
        "value": 26467
      },
      "scriptsig": "",
      "scriptsig_asm": "",
      "witness": [
        "304402200ec9250224c55a0b89df7a5a6527b29ff76edb5edf1c2476796075957fcaae340220320b7d90edbdbcdcda5f5af2053d0106c58d28aa7c334ec6d87e064750ea83e001",
        "02301a22edabb3d3befb3b543236c25389270d5b4fe8aa82d1023fabe93327b0eb"
      ],
      "is_coinbase": false,
      "sequence": 4294967293
    }
  ],
  "vout": [
    {
      "scriptpubkey": "0014b6b11955dc6c6a7e400e07c8e34587a76acf63de",
      "scriptpubkey_asm": "OP_0 OP_PUSHBYTES_20 b6b11955dc6c6a7e400e07c8e34587a76acf63de",
      "scriptpubkey_type": "v0_p2wpkh",
      "scriptpubkey_address": "bc1qk6c3j4wud348usqwqlywx3v85a4v7c774ms99g",
      "value": 24047
    }
  ],
  "size": 191,
  "weight": 437,
  "fee": 2420,
  "status": {
    "confirmed": true,
    "block_height": 834638,
    "block_hash": "000000000000000000025f742c626208ac87e0b7d15054abb4a19ca2d735a54e",
    "block_time": 1710405325
  },
  "hex": "01000000000101f60ca6131ab76ffb5b346a8d59098beb9435220c467f3bf790857ae9bb1ad5d40100000000fdffffff01ef5d000000000000160014b6b11955dc6c6a7e400e07c8e34587a76acf63de0247304402200ec9250224c55a0b89df7a5a6527b29ff76edb5edf1c2476796075957fcaae340220320b7d90edbdbcdcda5f5af2053d0106c58d28aa7c334ec6d87e064750ea83e0012102301a22edabb3d3befb3b543236c25389270d5b4fe8aa82d1023fabe93327b0eb00000000"
}