{
  "txid": "c0f4f29d42cc481e5963868f4e877f1613e4329ea7bdfa0d8adadaf56ab77a14",
  "version": 2,
  "locktime": 0,
  "vin": [
    {
      "txid": "659b82bf51c32df260f3e3563d90fcbcb0098209af4d18020ca9e1a619ccc8c8",
      "vout": 5,
      "prevout": {
        "scriptpubkey": "51209310eb3a7a4a520e8d5e4aadc78f8195610ca392a9cbfdc9a3b83c124161c768",
        "scriptpubkey_asm": "OP_PUSHNUM_1 OP_PUSHBYTES_32 9310eb3a7a4a520e8d5e4aadc78f8195610ca392a9cbfdc9a3b83c124161c768",
        "scriptpubkey_type": "v1_p2tr",
        "scriptpubkey_address": "bc1pjvgwkwn6fffqar27f2ku0rupj4sseguj489lmjdrhq7pystpca5qqrtn52",
        "value": 1931
      },
      "scriptsig": "",
      "scriptsig_asm": "",
      "witness": [
        "001aacbc20f790ec2197f0d1406e128c036d6f31ee03c6cea994d446a2b5468ab060046204057d6e756a8c308a639d3b72b439d3c242cf60d2ad916e84b09391",
        "20de7539e9145464df201e759e09d57c6c86e9a993f31bbdfe184375dba27eae74ac0063036f726401010a746578742f706c61696e00367b2270223a226272632d3230222c226f70223a226d696e74222c227469636b223a2261616161222c22616d74223a223130303030227d68",
        "c1de7539e9145464df201e759e09d57c6c86e9a993f31bbdfe184375dba27eae74"
      ],
      "is_coinbase": false,
      "sequence": 4261412863
    }
  ],
  "vout": [
    {
      "scriptpubkey": "0014be9f0c070a9b1bd40f5fcb06fba89738d936ceb6",
      "scriptpubkey_asm": "OP_0 OP_PUSHBYTES_20 be9f0c070a9b1bd40f5fcb06fba89738d936ceb6",
      "scriptpubkey_type": "v0_p2wpkh",
      "scriptpubkey_address": "bc1qh60scpc2nvdagr6levr0h2yh8rvndn4k4v5s9g",
      "value": 294
    }
  ],
  "size": 295,
  "weight": 541,
  "fee": 1637,
  "status": {
    "confirmed": true,
    "block_height": 834460,
    "block_hash": "00000000000000000000484a79b643b2524bbce82e5d8a442013fa5b8905ed98",
    "block_time": 1710307468
  },
  "hex": "02000000000101c8c8cc19a6e1a90c02184daf098209b0bcfc903d56e3f360f22dc351bf829b650500000000fffffffd012601000000000000160014be9f0c070a9b1bd40f5fcb06fba89738d936ceb60340001aacbc20f790ec2197f0d1406e128c036d6f31ee03c6cea994d446a2b5468ab060046204057d6e756a8c308a639d3b72b439d3c242cf60d2ad916e84b093916e20de7539e9145464df201e759e09d57c6c86e9a993f31bbdfe184375dba27eae74ac0063036f726401010a746578742f706c61696e00367b2270223a226272632d3230222c226f70223a226d696e74222c227469636b223a2261616161222c22616d74223a223130303030227d6821c1de7539e9145464df201e759e09d57c6c86e9a993f31bbdfe184375dba27eae7400000000"
}