{
  "txid": "c10a00c78a678ee38cf9a38060533d7a732ce4f31565f1b211800e7e58aa0f76",
  "version": 2,
  "locktime": 0,
  "vin": [
    {
      "txid": "7b84f43cc0e049b106ef9ac5cc442a2e654f8ab3307308ac32fb74d314fb1341",
      "vout": 24,
      "prevout": {
        "scriptpubkey": "512094fa28296ff1e514f75fb73b0b0380606d56145b94aad602931e4e6e986ff4b0",
        "scriptpubkey_asm": "OP_PUSHNUM_1 OP_PUSHBYTES_32 94fa28296ff1e514f75fb73b0b0380606d56145b94aad602931e4e6e986ff4b0",
        "scriptpubkey_type": "v1_p2tr",
        "scriptpubkey_address": "bc1pjnazs2t078j3fa6lkuaskquqvpk4v9zmjj4dvq5nre8xaxr07jcqkd999q",
        "value": 16310
      },
      "scriptsig": "",
      "scriptsig_asm": "",
      "witness": [
        "b6e001c68ef72282ae686aaceec017e7a9f2ef11ff8ddfda6d84560b3a9be20c1d2be764dc8021b8143d1bf523b253909c5eebf3c4e452f915f0ba37de16a19e"
      ],
      "is_coinbase": false,
      "sequence": 4294967293
    }
  ],
  "vout": [
    {
      "scriptpubkey": "5120f63b76c95dd52d52f40d9a21c88ee07cbf16114c9b0bf6a607c872454a9d47f3",
      "scriptpubkey_asm": "OP_PUSHNUM_1 OP_PUSHBYTES_32 f63b76c95dd52d52f40d9a21c88ee07cbf16114c9b0bf6a607c872454a9d47f3",
      "scriptpubkey_type": "v1_p2tr",
      "scriptpubkey_address": "bc1p7cahdj2a65k49aqdngsu3rhq0jl3vy2vnv9ldfs8epey2j5agles6x8kk2",
      "value": 2548
    },
    {
      "scriptpubkey": "512094fa28296ff1e514f75fb73b0b0380606d56145b94aad602931e4e6e986ff4b0",
      "scriptpubkey_asm": "OP_PUSHNUM_1 OP_PUSHBYTES_32 94fa28296ff1e514f75fb73b0b0380606d56145b94aad602931e4e6e986ff4b0",
      "scriptpubkey_type": "v1_p2tr",
      "scriptpubkey_address": "bc1pjnazs2t078j3fa6lkuaskquqvpk4v9zmjj4dvq5nre8xaxr07jcqkd999q",
      "value": 11760
    }
  ],
  "size": 205,
  "weight": 616,
  "fee": 2002,
  "status": {
    "confirmed": true,
    "block_height": 834460,
    "block_hash": "00000000000000000000484a79b643b2524bbce82e5d8a442013fa5b8905ed98",
    "block_time": 1710307468
  },
  "hex": "020000000001014113fb14d374fb32ac087330b38a4f652e2a44ccc59aef06b149e0c03cf4847b1800000000fdffffff02f409000000000000225120f63b76c95dd52d52f40d9a21c88ee07cbf16114c9b0bf6a607c872454a9d47f3f02d00000000000022512094fa28296ff1e514f75fb73b0b0380606d56145b94aad602931e4e6e986ff4b00140b6e001c68ef72282ae686aaceec017e7a9f2ef11ff8ddfda6d84560b3a9be20c1d2be764dc8021b8143d1bf523b253909c5eebf3c4e452f915f0ba37de16a19e00000000"
}