{
  "txid": "c10b7c0866d81b91450e552c350173cf1c1f5e8de33a92c0eb135d18c369063c",
  "version": 2,
  "locktime": 0,
  "vin": [
    {
      "txid": "acc3ba00869acb582a3f2904ce3a11dd3779350ce234063fc7d0959246213364",
      "vout": 35,
      "prevout": {
        "scriptpubkey": "5120651e96e557f70aa05f8c6e45df0fff398e63d5d9a27556192bd9ae911f683e99",
        "scriptpubkey_asm": "OP_PUSHNUM_1 OP_PUSHBYTES_32 651e96e557f70aa05f8c6e45df0fff398e63d5d9a27556192bd9ae911f683e99",
        "scriptpubkey_type": "v1_p2tr",
        "scriptpubkey_address": "bc1pv50fde2h7u92qhuvdeza7rll8x8x84we5f64vxftmxhfz8mg86vs5sfxsp",
        "value": 1806
      },
      "scriptsig": "",
      "scriptsig_asm": "",
      "witness": [
        "5147f3bc9c37a1346ee4192adb7d870e232c70a1d3089cfe18860744f9a185100923559a31a1c186b8425d0a3388a86c84dbc2de990bfc458e3a35854a813e3a",
        "20eac97750a82522263653ce1328dabebeba59c9d7ace8c890d4ea1e218fef6340ac0063036f726401010a746578742f706c61696e00357b2270223a226272632d3230222c226f70223a226d696e74222c227469636b223a22646f6765222c22616d74223a2234323030227d68",
        "c1eac97750a82522263653ce1328dabebeba59c9d7ace8c890d4ea1e218fef6340"
      ],
      "is_coinbase": false,
      "sequence": 4261412863
    }
  ],
  "vout": [
    {
      "scriptpubkey": "00147a665de7a370f4c9b372ab1fae587500a5bcbdb4",
      "scriptpubkey_asm": "OP_0 OP_PUSHBYTES_20 7a665de7a370f4c9b372ab1fae587500a5bcbdb4",
      "scriptpubkey_type": "v0_p2wpkh",
      "scriptpubkey_address": "bc1q0fn9mearwr6vnvmj4v06ukr4qzjme0d565dzcx",
      "value": 294
    }
  ],
  "size": 294,
  "weight": 540,
  "fee": 1512,
  "status": {
    "confirmed": true,
    "block_height": 834460,
    "block_hash": "00000000000000000000484a79b643b2524bbce82e5d8a442013fa5b8905ed98",
    "block_time": 1710307468
  },
  "hex": "02000000000101643321469295d0c73f0634e20c357937dd113ace04293f2a58cb9a8600bac3ac2300000000fffffffd0126010000000000001600147a665de7a370f4c9b372ab1fae587500a5bcbdb403405147f3bc9c37a1346ee4192adb7d870e232c70a1d3089cfe18860744f9a185100923559a31a1c186b8425d0a3388a86c84dbc2de990bfc458e3a35854a813e3a6d20eac97750a82522263653ce1328dabebeba59c9d7ace8c890d4ea1e218fef6340ac0063036f726401010a746578742f706c61696e00357b2270223a226272632d3230222c226f70223a226d696e74222c227469636b223a22646f6765222c22616d74223a2234323030227d6821c1eac97750a82522263653ce1328dabebeba59c9d7ace8c890d4ea1e218fef634000000000"
}