{
  "txid": "c113ea84a8bbd605ef94492d67463889db5e22f8017141557b35b0f5790023be",
  "version": 2,
  "locktime": 0,
  "vin": [
    {
      "txid": "e1097653c71e000b75ef33457432c62c77f7b362ea903b6a6278b357029bb008",
      "vout": 3,
      "prevout": {
        "scriptpubkey": "0014e27725ff317aa4f2011157028b93d04ae48fe2fe",
        "scriptpubkey_asm": "OP_0 OP_PUSHBYTES_20 e27725ff317aa4f2011157028b93d04ae48fe2fe",
        "scriptpubkey_type": "v0_p2wpkh",
        "scriptpubkey_address": "bc1qufmjtle302j0yqg32upghy7sftjglch7umur40",
        "value": 254227
      },
      "scriptsig": "",
      "scriptsig_asm": "",
      "witness": [
        "304402200bc69b5a99ba53b4c0841cc748ddfd95d9d9b498a202a56113b3a4ce68d81b5102205efa1d1170bf28cf1862ab907774c4fd56334f6c8aed15666a0bc1e3d1f72aa301",
        "02fb4fee8b08d2fb0fdc68e7452dbf082aa64adb92275eb73782bfdbec4f128d68"
      ],
      "is_coinbase": false,
      "sequence": 4294967295
    }
  ],
  "vout": [
    {
      "scriptpubkey": "00145efd30dc1221e98c5d1d30aa74f88debb6a82e8e",
      "scriptpubkey_asm": "OP_0 OP_PUSHBYTES_20 5efd30dc1221e98c5d1d30aa74f88debb6a82e8e",
      "scriptpubkey_type": "v0_p2wpkh",
      "scriptpubkey_address": "bc1qtm7nphqjy85cchgaxz48f7ydawm2st5wzd95ec",
      "value": 333
    },
    {
      "scriptpubkey": "512102a893dac539867a1f24fb47b4e5503812aebba6a4f0c32dc5e3ad084a13627dc9210308c5f58a250f3343e2abdf1b4aa5a9401ed8484606ab504e49bc1c3f0b4ec9dc2102020202020202020202020202020202020202020202020202020202020202020253ae",
      "scriptpubkey_asm": "OP_PUSHNUM_1 OP_PUSHBYTES_33 02a893dac539867a1f24fb47b4e5503812aebba6a4f0c32dc5e3ad084a13627dc9 OP_PUSHBYTES_33 0308c5f58a250f3343e2abdf1b4aa5a9401ed8484606ab504e49bc1c3f0b4ec9dc OP_PUSHBYTES_33 020202020202020202020202020202020202020202020202020202020202020202 OP_PUSHNUM_3 OP_CHECKMULTISIG",
      "scriptpubkey_type": "unknown",
      "value": 801
    },
    {
      "scriptpubkey": "512103e87fafbaacbe2fc117927a00c9505ea0b8840e09cc49af6672a1fcc981188c70210373052b4968d74aa338aea107f3385f9032231d3e412ee7f6f8e124266eef21b72102020202020202020202020202020202020202020202020202020202020202020253ae",
      "scriptpubkey_asm": "OP_PUSHNUM_1 OP_PUSHBYTES_33 03e87fafbaacbe2fc117927a00c9505ea0b8840e09cc49af6672a1fcc981188c70 OP_PUSHBYTES_33 0373052b4968d74aa338aea107f3385f9032231d3e412ee7f6f8e124266eef21b7 OP_PUSHBYTES_33 020202020202020202020202020202020202020202020202020202020202020202 OP_PUSHNUM_3 OP_CHECKMULTISIG",
      "scriptpubkey_type": "unknown",
      "value": 801
    },
    {
      "scriptpubkey": "0014e27725ff317aa4f2011157028b93d04ae48fe2fe",
      "scriptpubkey_asm": "OP_0 OP_PUSHBYTES_20 e27725ff317aa4f2011157028b93d04ae48fe2fe",
      "scriptpubkey_type": "v0_p2wpkh",
      "scriptpubkey_address": "bc1qufmjtle302j0yqg32upghy7sftjglch7umur40",
      "value": 236078
    }
  ],
  "size": 450,
  "weight": 1473,
  "fee": 16214,
  "status": {
    "confirmed": true,
    "block_height": 834638,
    "block_hash": "000000000000000000025f742c626208ac87e0b7d15054abb4a19ca2d735a54e",
    "block_time": 1710405325
  },
  "hex": "0200000000010108b09b0257b378626a3b90ea62b3f7772cc632744533ef750b001ec7537609e10300000000ffffffff044d010000000000001600145efd30dc1221e98c5d1d30aa74f88debb6a82e8e210300000000000069512102a893dac539867a1f24fb47b4e5503812aebba6a4f0c32dc5e3ad084a13627dc9210308c5f58a250f3343e2abdf1b4aa5a9401ed8484606ab504e49bc1c3f0b4ec9dc2102020202020202020202020202020202020202020202020202020202020202020253ae210300000000000069512103e87fafbaacbe2fc117927a00c9505ea0b8840e09cc49af6672a1fcc981188c70210373052b4968d74aa338aea107f3385f9032231d3e412ee7f6f8e124266eef21b72102020202020202020202020202020202020202020202020202020202020202020253ae2e9a030000000000160014e27725ff317aa4f2011157028b93d04ae48fe2fe0247304402200bc69b5a99ba53b4c0841cc748ddfd95d9d9b498a202a56113b3a4ce68d81b5102205efa1d1170bf28cf1862ab907774c4fd56334f6c8aed15666a0bc1e3d1f72aa3012102fb4fee8b08d2fb0fdc68e7452dbf082aa64adb92275eb73782bfdbec4f128d6800000000"
}