{
  "txid": "c119b7c0fcc465881fb38252906b0836909a377712c016eec16c2561ef35afda",
  "version": 2,
  "locktime": 0,
  "vin": [
    {
      "txid": "acc3ba00869acb582a3f2904ce3a11dd3779350ce234063fc7d0959246213364",
      "vout": 182,
      "prevout": {
        "scriptpubkey": "5120c1a61f323f27c83d6bc74cd13673ccf42d5452b558c8c0c5a43d481e4c5ca3c5",
        "scriptpubkey_asm": "OP_PUSHNUM_1 OP_PUSHBYTES_32 c1a61f323f27c83d6bc74cd13673ccf42d5452b558c8c0c5a43d481e4c5ca3c5",
        "scriptpubkey_type": "v1_p2tr",
        "scriptpubkey_address": "bc1pcxnp7v3lylyr6678fngnvu7v7sk4g544tryvp3dy84ypunzu50zsm0gpu7",
        "value": 1806
      },
      "scriptsig": "",
      "scriptsig_asm": "",
      "witness": [
        "e81ad3592279c35704e95d901893669384183cb27c4f1bd1127a5a5684832daab8bffe104fe3ecd73217b90e0495942cdbff07232a21a9605dc7bc2302f224ce",
        "20d9a47883bc2e5e18b85b6a03c3227d614a2de9596f91a7a207a13ce586548d16ac0063036f726401010a746578742f706c61696e00357b2270223a226272632d3230222c226f70223a226d696e74222c227469636b223a22646f6765222c22616d74223a2234323030227d68",
        "c0d9a47883bc2e5e18b85b6a03c3227d614a2de9596f91a7a207a13ce586548d16"
      ],
      "is_coinbase": false,
      "sequence": 4261412863
    }
  ],
  "vout": [
    {
      "scriptpubkey": "00147a665de7a370f4c9b372ab1fae587500a5bcbdb4",
      "scriptpubkey_asm": "OP_0 OP_PUSHBYTES_20 7a665de7a370f4c9b372ab1fae587500a5bcbdb4",
      "scriptpubkey_type": "v0_p2wpkh",
      "scriptpubkey_address": "bc1q0fn9mearwr6vnvmj4v06ukr4qzjme0d565dzcx",
      "value": 294
    }
  ],
  "size": 294,
  "weight": 540,
  "fee": 1512,
  "status": {
    "confirmed": true,
    "block_height": 834460,
    "block_hash": "00000000000000000000484a79b643b2524bbce82e5d8a442013fa5b8905ed98",
    "block_time": 1710307468
  },
  "hex": "02000000000101643321469295d0c73f0634e20c357937dd113ace04293f2a58cb9a8600bac3acb600000000fffffffd0126010000000000001600147a665de7a370f4c9b372ab1fae587500a5bcbdb40340e81ad3592279c35704e95d901893669384183cb27c4f1bd1127a5a5684832daab8bffe104fe3ecd73217b90e0495942cdbff07232a21a9605dc7bc2302f224ce6d20d9a47883bc2e5e18b85b6a03c3227d614a2de9596f91a7a207a13ce586548d16ac0063036f726401010a746578742f706c61696e00357b2270223a226272632d3230222c226f70223a226d696e74222c227469636b223a22646f6765222c22616d74223a2234323030227d6821c0d9a47883bc2e5e18b85b6a03c3227d614a2de9596f91a7a207a13ce586548d1600000000"
}