{
  "txid": "c11f3d41b70ffa221bf10ca22d21d8877339d470e2ccd785de62d4eb06829993",
  "version": 1,
  "locktime": 0,
  "vin": [
    {
      "txid": "1d2c790508621dd02862da860d6b873ce113d9131314f6eefbee634df6370036",
      "vout": 62,
      "prevout": {
        "scriptpubkey": "a914f57cc286d3fa10becef7b672d2d490c2e8fb323987",
        "scriptpubkey_asm": "OP_HASH160 OP_PUSHBYTES_20 f57cc286d3fa10becef7b672d2d490c2e8fb3239 OP_EQUAL",
        "scriptpubkey_type": "p2sh",
        "scriptpubkey_address": "3Q52w1Xf3rc14CsQKvBe1mUbYB2jNBYHWU",
        "value": 2958365
      },
      "scriptsig": "1600147bd95bee136d6abf341ff1c950ef03852fafa148",
      "scriptsig_asm": "OP_PUSHBYTES_22 00147bd95bee136d6abf341ff1c950ef03852fafa148",
      "witness": [
        "30450221008842819709fa74d4ff2a698eae4c87d6f2e4f0cbe767627721bff7f28846969902202fa4432cdf428a8ecc04cd5278d8ff79b23615a6f9c4a216fdc4e84045f7fbd501",
        "03892510c1100546d58a568e9570097d3935c9a15c0305ff80b6a325439b314617"
      ],
      "is_coinbase": false,
      "sequence": 4294967293,
      "inner_redeemscript_asm": "OP_0 OP_PUSHBYTES_20 7bd95bee136d6abf341ff1c950ef03852fafa148"
    },
    {
      "txid": "369c007c138030a55ecbd0683b9ec89f4fc6f3b90c27c6d6dc9473c0985662f7",
      "vout": 0,
      "prevout": {
        "scriptpubkey": "a9144fe5b23451db96403849b710ea62217a964cc0dd87",
        "scriptpubkey_asm": "OP_HASH160 OP_PUSHBYTES_20 4fe5b23451db96403849b710ea62217a964cc0dd OP_EQUAL",
        "scriptpubkey_type": "p2sh",
        "scriptpubkey_address": "38yUUGG79NfEq38pY58YSi29HZQss18LBs",
        "value": 1886106
      },
      "scriptsig": "1600140301971ecd9531e744df26e289f14db0e76c2f8e",
      "scriptsig_asm": "OP_PUSHBYTES_22 00140301971ecd9531e744df26e289f14db0e76c2f8e",
      "witness": [
        "304402202c3286d9d4593175ab7397dfb4d2bf77b9933ca86686dd30db9c2fbd0cd27854022074777869040336a0e2ebe0141d156eaf1d348243f9d638229fb4f08ba660546b01",
        "033186e9d06d7297f500b58d37ba42f40b5a5ccebe49f11dc1ffc6aa061ac9eef2"
      ],
      "is_coinbase": false,
      "sequence": 4294967293,
      "inner_redeemscript_asm": "OP_0 OP_PUSHBYTES_20 0301971ecd9531e744df26e289f14db0e76c2f8e"
    },
    {
      "txid": "406f7ac67d2fd7eac12ae5f633b02b56ccd6b225bbfaffad5fffcf0f7af74ae3",
      "vout": 0,
      "prevout": {
        "scriptpubkey": "a9141156bd0a0d76c53e676ab4a6862bc011321a764487",
        "scriptpubkey_asm": "OP_HASH160 OP_PUSHBYTES_20 1156bd0a0d76c53e676ab4a6862bc011321a7644 OP_EQUAL",
        "scriptpubkey_type": "p2sh",
        "scriptpubkey_address": "33GhKVn3SuS9Dc6HQxZSTRttzbkhMk3qor",
        "value": 2242746
      },
      "scriptsig": "1600141ee85a3bbf2216686a6486495dabaf2838c4a6ed",
      "scriptsig_asm": "OP_PUSHBYTES_22 00141ee85a3bbf2216686a6486495dabaf2838c4a6ed",
      "witness": [
        "304402203c9bd334c2b5981a70134a3f581d9669f750174dae88a6a93d94b667953347f8022028f9eec6ac635f6b165c9b7748479041c22bb420be2ad490b918efa6ced8fdfb01",
        "02933500cfd95e3f83f937e9dca6a7296cc2ee0418eaa1286a9d8145473da5645a"
      ],
      "is_coinbase": false,
      "sequence": 4294967293,
      "inner_redeemscript_asm": "OP_0 OP_PUSHBYTES_20 1ee85a3bbf2216686a6486495dabaf2838c4a6ed"
    },
    {
      "txid": "435435e427bece011a84ccac76fa7b4df987c0e1553fd6ce332b029cd3bd188f",
      "vout": 1,
      "prevout": {
        "scriptpubkey": "a914aa40a0c9a7b46c1efa8366406e0f31b4c4ea177187",
        "scriptpubkey_asm": "OP_HASH160 OP_PUSHBYTES_20 aa40a0c9a7b46c1efa8366406e0f31b4c4ea1771 OP_EQUAL",
        "scriptpubkey_type": "p2sh",
        "scriptpubkey_address": "3HDEDbKDYb7p82gcg64nv4cpBYpxAwuZn5",
        "value": 3048132
      },
      "scriptsig": "1600148e55b9ee712c2d7309f8554879192e164884c1ac",
      "scriptsig_asm": "OP_PUSHBYTES_22 00148e55b9ee712c2d7309f8554879192e164884c1ac",
      "witness": [
        "3045022100bc2df62b9c616c747fa4058a2389ada4f9082be4db2fcce9d2adbc97f3b1b9d0022002c493098a33010faa390cb070fa84610a9638de62fc8504cb2ee57c0448147b01",
        "021f67dd0cc1f846f130fa140c1645b179aff2b30e6b26cbde687ad62f848ef197"
      ],
      "is_coinbase": false,
      "sequence": 4294967293,
      "inner_redeemscript_asm": "OP_0 OP_PUSHBYTES_20 8e55b9ee712c2d7309f8554879192e164884c1ac"
    }
  ],
  "vout": [
    {
      "scriptpubkey": "00146bb284d12f4f2eb14b266080aa834184793e175f",
      "scriptpubkey_asm": "OP_0 OP_PUSHBYTES_20 6bb284d12f4f2eb14b266080aa834184793e175f",
      "scriptpubkey_type": "v0_p2wpkh",
      "scriptpubkey_address": "bc1qdwegf5f0fuhtzjexvzq24q6ps3unu96lkcvmfw",
      "value": 10129259
    }
  ],
  "size": 729,
  "weight": 1620,
  "fee": 6090,
  "status": {
    "confirmed": true,
    "block_height": 834460,
    "block_hash": "00000000000000000000484a79b643b2524bbce82e5d8a442013fa5b8905ed98",
    "block_time": 1710307468
  },
  "hex": "01000000000104360037f64d63eefbeef6141313d913e13c876b0d86da6228d01d620805792c1d3e000000171600147bd95bee136d6abf341ff1c950ef03852fafa148fdfffffff7625698c07394dcd6c6270cb9f3c64f9fc89e3b68d0cb5ea53080137c009c3600000000171600140301971ecd9531e744df26e289f14db0e76c2f8efdffffffe34af77a0fcfff5fadfffabb25b2d6cc562bb033f6e52ac1ead72f7dc67a6f4000000000171600141ee85a3bbf2216686a6486495dabaf2838c4a6edfdffffff8f18bdd39c022b33ced63f55e1c087f94d7bfa76accc841a01cebe27e435544301000000171600148e55b9ee712c2d7309f8554879192e164884c1acfdffffff016b8f9a00000000001600146bb284d12f4f2eb14b266080aa834184793e175f024830450221008842819709fa74d4ff2a698eae4c87d6f2e4f0cbe767627721bff7f28846969902202fa4432cdf428a8ecc04cd5278d8ff79b23615a6f9c4a216fdc4e84045f7fbd5012103892510c1100546d58a568e9570097d3935c9a15c0305ff80b6a325439b3146170247304402202c3286d9d4593175ab7397dfb4d2bf77b9933ca86686dd30db9c2fbd0cd27854022074777869040336a0e2ebe0141d156eaf1d348243f9d638229fb4f08ba660546b0121033186e9d06d7297f500b58d37ba42f40b5a5ccebe49f11dc1ffc6aa061ac9eef20247304402203c9bd334c2b5981a70134a3f581d9669f750174dae88a6a93d94b667953347f8022028f9eec6ac635f6b165c9b7748479041c22bb420be2ad490b918efa6ced8fdfb012102933500cfd95e3f83f937e9dca6a7296cc2ee0418eaa1286a9d8145473da5645a02483045022100bc2df62b9c616c747fa4058a2389ada4f9082be4db2fcce9d2adbc97f3b1b9d0022002c493098a33010faa390cb070fa84610a9638de62fc8504cb2ee57c0448147b0121021f67dd0cc1f846f130fa140c1645b179aff2b30e6b26cbde687ad62f848ef19700000000"
}