{
  "txid": "c12ae040d310bd0b2038519d0175e760dac15f5072ed6e24c27ad88ba47998ff",
  "version": 2,
  "locktime": 0,
  "vin": [
    {
      "txid": "b13bb5512a4904c28a6b7957b88edf574e8cb23551fc1dcfe22d6b239df42cf4",
      "vout": 66,
      "prevout": {
        "scriptpubkey": "51209727ef1bd62376756ce36b1b6b3134a8372661f574193827e81ef5f73ea66081",
        "scriptpubkey_asm": "OP_PUSHNUM_1 OP_PUSHBYTES_32 9727ef1bd62376756ce36b1b6b3134a8372661f574193827e81ef5f73ea66081",
        "scriptpubkey_type": "v1_p2tr",
        "scriptpubkey_address": "bc1pjun77x7kydm82m8rdvdkkvf54qmjvc04wsvnsflgrm6lw04xvzqs2052qv",
        "value": 2575
      },
      "scriptsig": "",
      "scriptsig_asm": "",
      "witness": [
        "b5e2f3643bb323a7c840ac70f95d3e2255b3af0264ce64666c46ff3026f67d4297b9a06926da3493c140f0eedd7991fc6ee5976eac76430bedfc4f03c2344606",
        "2058c0a6c634b8debd30dfc6ba9ad5ebebea22ee9010222e7a690925826b7c07d8ac0063036f726401010a746578742f706c61696e00367b2270223a226272632d3230222c226f70223a226d696e74222c227469636b223a2261616161222c22616d74223a223130303030227d68",
        "c058c0a6c634b8debd30dfc6ba9ad5ebebea22ee9010222e7a690925826b7c07d8"
      ],
      "is_coinbase": false,
      "sequence": 4261412863
    }
  ],
  "vout": [
    {
      "scriptpubkey": "0014ce0b5aa0dac72397a8aa5a85d90a2cfb46f0f630",
      "scriptpubkey_asm": "OP_0 OP_PUSHBYTES_20 ce0b5aa0dac72397a8aa5a85d90a2cfb46f0f630",
      "scriptpubkey_type": "v0_p2wpkh",
      "scriptpubkey_address": "bc1qec944gx6cu3e0292t2zajz3vldr0pa3sh356d9",
      "value": 546
    }
  ],
  "size": 295,
  "weight": 541,
  "fee": 2029,
  "status": {
    "confirmed": true,
    "block_height": 834464,
    "block_hash": "0000000000000000000177a0869a911a2b65c9bdcd5a8bcb02b68f305bee848e",
    "block_time": 1710308296
  },
  "hex": "02000000000101f42cf49d236b2de2cf1dfc5135b28c4e57df8eb857796b8ac204492a51b53bb14200000000fffffffd012202000000000000160014ce0b5aa0dac72397a8aa5a85d90a2cfb46f0f6300340b5e2f3643bb323a7c840ac70f95d3e2255b3af0264ce64666c46ff3026f67d4297b9a06926da3493c140f0eedd7991fc6ee5976eac76430bedfc4f03c23446066e2058c0a6c634b8debd30dfc6ba9ad5ebebea22ee9010222e7a690925826b7c07d8ac0063036f726401010a746578742f706c61696e00367b2270223a226272632d3230222c226f70223a226d696e74222c227469636b223a2261616161222c22616d74223a223130303030227d6821c058c0a6c634b8debd30dfc6ba9ad5ebebea22ee9010222e7a690925826b7c07d800000000"
}