{
  "txid": "c12b398e0a7e895b3def77e9f0dc32a8ccb1ba6c145f24503b563388ca307980",
  "version": 1,
  "locktime": 0,
  "vin": [
    {
      "txid": "ae1d070aca2903fceb543b564bf4c08750d63aae408614445e9c80970d05fc5b",
      "vout": 1,
      "prevout": {
        "scriptpubkey": "001493857615b8f88852e7d924fe68a083c18151df88",
        "scriptpubkey_asm": "OP_0 OP_PUSHBYTES_20 93857615b8f88852e7d924fe68a083c18151df88",
        "scriptpubkey_type": "v0_p2wpkh",
        "scriptpubkey_address": "bc1qjwzhv9dclzy99e7eynlx3gyrcxq4rhugx5f4du",
        "value": 3424738
      },
      "scriptsig": "",
      "scriptsig_asm": "",
      "witness": [
        "3044022049621d804160b45d652fd92c80e2bdaff8745e2dbc0308cdca3f56f8a325a45c022002bcd957dae938dc21caaafd03ee37793989c30f089e1d7b6f29b91884ebc47401",
        "02f604604b97c884cad13d972b3f09c22c71ec7f0391f3b5302ec50b8bf373d325"
      ],
      "is_coinbase": false,
      "sequence": 4294967295
    }
  ],
  "vout": [
    {
      "scriptpubkey": "00145279260dee5aa76f98d6798d3306bc480c9c38ed",
      "scriptpubkey_asm": "OP_0 OP_PUSHBYTES_20 5279260dee5aa76f98d6798d3306bc480c9c38ed",
      "scriptpubkey_type": "v0_p2wpkh",
      "scriptpubkey_address": "bc1q2fujvr0wt2nklxxk0xxnxp4ufqxfcw8deqpm96",
      "value": 567415
    },
    {
      "scriptpubkey": "001493857615b8f88852e7d924fe68a083c18151df88",
      "scriptpubkey_asm": "OP_0 OP_PUSHBYTES_20 93857615b8f88852e7d924fe68a083c18151df88",
      "scriptpubkey_type": "v0_p2wpkh",
      "scriptpubkey_address": "bc1qjwzhv9dclzy99e7eynlx3gyrcxq4rhugx5f4du",
      "value": 2855123
    }
  ],
  "size": 222,
  "weight": 561,
  "fee": 2200,
  "status": {
    "confirmed": true,
    "block_height": 834552,
    "block_hash": "00000000000000000001dd0468a70c94f619251d286585cff57aeb4bd9ede330",
    "block_time": 1710355598
  },
  "hex": "010000000001015bfc050d97809c5e44148640ae3ad65087c0f44b563b54ebfc0329ca0a071dae0100000000ffffffff0277a80800000000001600145279260dee5aa76f98d6798d3306bc480c9c38edd3902b000000000016001493857615b8f88852e7d924fe68a083c18151df8802473044022049621d804160b45d652fd92c80e2bdaff8745e2dbc0308cdca3f56f8a325a45c022002bcd957dae938dc21caaafd03ee37793989c30f089e1d7b6f29b91884ebc474012102f604604b97c884cad13d972b3f09c22c71ec7f0391f3b5302ec50b8bf373d32500000000"
}