{
  "txid": "c1301bbf001f5fe7c83dd98ea7de0e66fc216b709474018e1979e9ba2249f68c",
  "version": 2,
  "locktime": 0,
  "vin": [
    {
      "txid": "5bdeae4ee68af5210922d314535640186268012bf24185616f8ab169c614b56a",
      "vout": 7,
      "prevout": {
        "scriptpubkey": "51206eb694da36792727d16606fcfccc87b26fe22de67e734ff749118b6c6f197183",
        "scriptpubkey_asm": "OP_PUSHNUM_1 OP_PUSHBYTES_32 6eb694da36792727d16606fcfccc87b26fe22de67e734ff749118b6c6f197183",
        "scriptpubkey_type": "v1_p2tr",
        "scriptpubkey_address": "bc1pd6mffk3k0ynj05txqm70eny8kfh7yt0x0ee5la6fzx9kcmcewxpsdrgg0w",
        "value": 2501980000
      },
      "scriptsig": "",
      "scriptsig_asm": "",
      "witness": [
        "dabcdcb68c8377279f0926040213b13ada2e0464ba8ac0e2437b1bc72fca3ad6c832d99adefc3774ada000f3382a4e82ad9d380d5ba7361c839a3eff1b5b01e0"
      ],
      "is_coinbase": false,
      "sequence": 4294967293
    }
  ],
  "vout": [
    {
      "scriptpubkey": "76a9149387ed90660108f858d9a75ea6b46b1d1d8e5dae88ac",
      "scriptpubkey_asm": "OP_DUP OP_HASH160 OP_PUSHBYTES_20 9387ed90660108f858d9a75ea6b46b1d1d8e5dae OP_EQUALVERIFY OP_CHECKSIG",
      "scriptpubkey_type": "p2pkh",
      "scriptpubkey_address": "1ET5AeBNSYcuTZMgfYqVuDfLHUD9Dxn91D",
      "value": 71256801
    },
    {
      "scriptpubkey": "51201859b93c2a9af6ab211a69d91cd0b3184ce7e5b3265be5afd7ae88ef0732e0d8",
      "scriptpubkey_asm": "OP_PUSHNUM_1 OP_PUSHBYTES_32 1859b93c2a9af6ab211a69d91cd0b3184ce7e5b3265be5afd7ae88ef0732e0d8",
      "scriptpubkey_type": "v1_p2tr",
      "scriptpubkey_address": "bc1prpvmj0p2ntm2kgg6d8v3e59nrpxw0ednyed7tt7h46yw7pejurvqujwx05",
      "value": 546
    },
    {
      "scriptpubkey": "76a9149387ed90660108f858d9a75ea6b46b1d1d8e5dae88ac",
      "scriptpubkey_asm": "OP_DUP OP_HASH160 OP_PUSHBYTES_20 9387ed90660108f858d9a75ea6b46b1d1d8e5dae OP_EQUALVERIFY OP_CHECKSIG",
      "scriptpubkey_type": "p2pkh",
      "scriptpubkey_address": "1ET5AeBNSYcuTZMgfYqVuDfLHUD9Dxn91D",
      "value": 91519052
    },
    {
      "scriptpubkey": "51201859b93c2a9af6ab211a69d91cd0b3184ce7e5b3265be5afd7ae88ef0732e0d8",
      "scriptpubkey_asm": "OP_PUSHNUM_1 OP_PUSHBYTES_32 1859b93c2a9af6ab211a69d91cd0b3184ce7e5b3265be5afd7ae88ef0732e0d8",
      "scriptpubkey_type": "v1_p2tr",
      "scriptpubkey_address": "bc1prpvmj0p2ntm2kgg6d8v3e59nrpxw0ednyed7tt7h46yw7pejurvqujwx05",
      "value": 546
    },
    {
      "scriptpubkey": "76a9149387ed90660108f858d9a75ea6b46b1d1d8e5dae88ac",
      "scriptpubkey_asm": "OP_DUP OP_HASH160 OP_PUSHBYTES_20 9387ed90660108f858d9a75ea6b46b1d1d8e5dae OP_EQUALVERIFY OP_CHECKSIG",
      "scriptpubkey_type": "p2pkh",
      "scriptpubkey_address": "1ET5AeBNSYcuTZMgfYqVuDfLHUD9Dxn91D",
      "value": 6071640
    },
    {
      "scriptpubkey": "51201859b93c2a9af6ab211a69d91cd0b3184ce7e5b3265be5afd7ae88ef0732e0d8",
      "scriptpubkey_asm": "OP_PUSHNUM_1 OP_PUSHBYTES_32 1859b93c2a9af6ab211a69d91cd0b3184ce7e5b3265be5afd7ae88ef0732e0d8",
      "scriptpubkey_type": "v1_p2tr",
      "scriptpubkey_address": "bc1prpvmj0p2ntm2kgg6d8v3e59nrpxw0ednyed7tt7h46yw7pejurvqujwx05",
      "value": 546
    },
    {
      "scriptpubkey": "76a9149387ed90660108f858d9a75ea6b46b1d1d8e5dae88ac",
      "scriptpubkey_asm": "OP_DUP OP_HASH160 OP_PUSHBYTES_20 9387ed90660108f858d9a75ea6b46b1d1d8e5dae OP_EQUALVERIFY OP_CHECKSIG",
      "scriptpubkey_type": "p2pkh",
      "scriptpubkey_address": "1ET5AeBNSYcuTZMgfYqVuDfLHUD9Dxn91D",
      "value": 908909467
    },
    {
      "scriptpubkey": "51201859b93c2a9af6ab211a69d91cd0b3184ce7e5b3265be5afd7ae88ef0732e0d8",
      "scriptpubkey_asm": "OP_PUSHNUM_1 OP_PUSHBYTES_32 1859b93c2a9af6ab211a69d91cd0b3184ce7e5b3265be5afd7ae88ef0732e0d8",
      "scriptpubkey_type": "v1_p2tr",
      "scriptpubkey_address": "bc1prpvmj0p2ntm2kgg6d8v3e59nrpxw0ednyed7tt7h46yw7pejurvqujwx05",
      "value": 546
    },
    {
      "scriptpubkey": "76a9149387ed90660108f858d9a75ea6b46b1d1d8e5dae88ac",
      "scriptpubkey_asm": "OP_DUP OP_HASH160 OP_PUSHBYTES_20 9387ed90660108f858d9a75ea6b46b1d1d8e5dae OP_EQUALVERIFY OP_CHECKSIG",
      "scriptpubkey_type": "p2pkh",
      "scriptpubkey_address": "1ET5AeBNSYcuTZMgfYqVuDfLHUD9Dxn91D",
      "value": 494426178
    },
    {
      "scriptpubkey": "51201859b93c2a9af6ab211a69d91cd0b3184ce7e5b3265be5afd7ae88ef0732e0d8",
      "scriptpubkey_asm": "OP_PUSHNUM_1 OP_PUSHBYTES_32 1859b93c2a9af6ab211a69d91cd0b3184ce7e5b3265be5afd7ae88ef0732e0d8",
      "scriptpubkey_type": "v1_p2tr",
      "scriptpubkey_address": "bc1prpvmj0p2ntm2kgg6d8v3e59nrpxw0ednyed7tt7h46yw7pejurvqujwx05",
      "value": 546
    },
    {
      "scriptpubkey": "76a9149387ed90660108f858d9a75ea6b46b1d1d8e5dae88ac",
      "scriptpubkey_asm": "OP_DUP OP_HASH160 OP_PUSHBYTES_20 9387ed90660108f858d9a75ea6b46b1d1d8e5dae OP_EQUALVERIFY OP_CHECKSIG",
      "scriptpubkey_type": "p2pkh",
      "scriptpubkey_address": "1ET5AeBNSYcuTZMgfYqVuDfLHUD9Dxn91D",
      "value": 606508144
    },
    {
      "scriptpubkey": "51201859b93c2a9af6ab211a69d91cd0b3184ce7e5b3265be5afd7ae88ef0732e0d8",
      "scriptpubkey_asm": "OP_PUSHNUM_1 OP_PUSHBYTES_32 1859b93c2a9af6ab211a69d91cd0b3184ce7e5b3265be5afd7ae88ef0732e0d8",
      "scriptpubkey_type": "v1_p2tr",
      "scriptpubkey_address": "bc1prpvmj0p2ntm2kgg6d8v3e59nrpxw0ednyed7tt7h46yw7pejurvqujwx05",
      "value": 546
    },
    {
      "scriptpubkey": "76a9149387ed90660108f858d9a75ea6b46b1d1d8e5dae88ac",
      "scriptpubkey_asm": "OP_DUP OP_HASH160 OP_PUSHBYTES_20 9387ed90660108f858d9a75ea6b46b1d1d8e5dae OP_EQUALVERIFY OP_CHECKSIG",
      "scriptpubkey_type": "p2pkh",
      "scriptpubkey_address": "1ET5AeBNSYcuTZMgfYqVuDfLHUD9Dxn91D",
      "value": 323276847
    }
  ],
  "size": 615,
  "weight": 2256,
  "fee": 8595,
  "status": {
    "confirmed": true,
    "block_height": 834638,
    "block_hash": "000000000000000000025f742c626208ac87e0b7d15054abb4a19ca2d735a54e",
    "block_time": 1710405325
  },
  "hex": "020000000001016ab514c669b18a6f618541f22b0168621840565314d3220921f58ae64eaede5b0700000000fdffffff0de14a3f04000000001976a9149387ed90660108f858d9a75ea6b46b1d1d8e5dae88ac22020000000000002251201859b93c2a9af6ab211a69d91cd0b3184ce7e5b3265be5afd7ae88ef0732e0d84c787405000000001976a9149387ed90660108f858d9a75ea6b46b1d1d8e5dae88ac22020000000000002251201859b93c2a9af6ab211a69d91cd0b3184ce7e5b3265be5afd7ae88ef0732e0d858a55c00000000001976a9149387ed90660108f858d9a75ea6b46b1d1d8e5dae88ac22020000000000002251201859b93c2a9af6ab211a69d91cd0b3184ce7e5b3265be5afd7ae88ef0732e0d89bdb2c36000000001976a9149387ed90660108f858d9a75ea6b46b1d1d8e5dae88ac22020000000000002251201859b93c2a9af6ab211a69d91cd0b3184ce7e5b3265be5afd7ae88ef0732e0d84258781d000000001976a9149387ed90660108f858d9a75ea6b46b1d1d8e5dae88ac22020000000000002251201859b93c2a9af6ab211a69d91cd0b3184ce7e5b3265be5afd7ae88ef0732e0d870942624000000001976a9149387ed90660108f858d9a75ea6b46b1d1d8e5dae88ac22020000000000002251201859b93c2a9af6ab211a69d91cd0b3184ce7e5b3265be5afd7ae88ef0732e0d82fd04413000000001976a9149387ed90660108f858d9a75ea6b46b1d1d8e5dae88ac0140dabcdcb68c8377279f0926040213b13ada2e0464ba8ac0e2437b1bc72fca3ad6c832d99adefc3774ada000f3382a4e82ad9d380d5ba7361c839a3eff1b5b01e000000000"
}