{
  "txid": "c1311a7f803f80b441e4395f44c578810e8ae6dee64a9db68a2a9cdaf6885d21",
  "version": 1,
  "locktime": 0,
  "vin": [
    {
      "txid": "38660359cc8d6150383e896ab39e8f667a6a489a6ad700737022c02b37f7b649",
      "vout": 1,
      "prevout": {
        "scriptpubkey": "0014728deac9551d00c62bc95ea9123db83837792491",
        "scriptpubkey_asm": "OP_0 OP_PUSHBYTES_20 728deac9551d00c62bc95ea9123db83837792491",
        "scriptpubkey_type": "v0_p2wpkh",
        "scriptpubkey_address": "bc1qw2x74j24r5qvv27ft653y0dc8qmhjfy3n9j0zd",
        "value": 161571
      },
      "scriptsig": "",
      "scriptsig_asm": "",
      "witness": [
        "3045022100ae63219d1ca9e15a13c75f5d5ba51c6de3993af8f92569ed695ce33b22ed0ad002206b9ae1859c441cd26b4302cb9a17919d8623ab5028a8d79caa1c2b550c335f5c01",
        "026d2df9a5b63e19fd55958f924d47f5d3f795ff2d8c0b1cdf0efb794d035a91d4"
      ],
      "is_coinbase": false,
      "sequence": 4294967295
    },
    {
      "txid": "2be90266a1c7f1ddb52996a50293f14fa38995d11658c7d55ac0b9d0e9c0aa75",
      "vout": 0,
      "prevout": {
        "scriptpubkey": "0014b64177ad00bd47c5bab8bee5bd105517c784657b",
        "scriptpubkey_asm": "OP_0 OP_PUSHBYTES_20 b64177ad00bd47c5bab8bee5bd105517c784657b",
        "scriptpubkey_type": "v0_p2wpkh",
        "scriptpubkey_address": "bc1qkeqh0tgqh4rutw4chmjm6yz4zlrcgetmh5rax0",
        "value": 7607
      },
      "scriptsig": "",
      "scriptsig_asm": "",
      "witness": [
        "304402204a4fdc80a32761d67718a219ae31308c001fba9201a6f16e75e5032a341c0bab02202eb5c69f57e1cb007a9b9aa774b59abe24a939f287ebbd83f2b035ccb63e2ea601",
        "026d210f0550f587f093134fb12b2684a10ffe402021c5eadff7f86e0c26efa32f"
      ],
      "is_coinbase": false,
      "sequence": 4294967295
    }
  ],
  "vout": [
    {
      "scriptpubkey": "001403515cd9b406e57f980c3165eba58bd5cd156871",
      "scriptpubkey_asm": "OP_0 OP_PUSHBYTES_20 03515cd9b406e57f980c3165eba58bd5cd156871",
      "scriptpubkey_type": "v0_p2wpkh",
      "scriptpubkey_address": "bc1qqdg4ekd5qmjhlxqvx9j7hfvt6hx326r39kdsap",
      "value": 166238
    }
  ],
  "size": 340,
  "weight": 709,
  "fee": 2940,
  "status": {
    "confirmed": true,
    "block_height": 834638,
    "block_hash": "000000000000000000025f742c626208ac87e0b7d15054abb4a19ca2d735a54e",
    "block_time": 1710405325
  },
  "hex": "0100000000010249b6f7372bc022707300d76a9a486a7a668f9eb36a893e3850618dcc590366380100000000ffffffff75aac0e9d0b9c05ad5c75816d19589a34ff19302a59629b5ddf1c7a16602e92b0000000000ffffffff015e8902000000000016001403515cd9b406e57f980c3165eba58bd5cd15687102483045022100ae63219d1ca9e15a13c75f5d5ba51c6de3993af8f92569ed695ce33b22ed0ad002206b9ae1859c441cd26b4302cb9a17919d8623ab5028a8d79caa1c2b550c335f5c0121026d2df9a5b63e19fd55958f924d47f5d3f795ff2d8c0b1cdf0efb794d035a91d40247304402204a4fdc80a32761d67718a219ae31308c001fba9201a6f16e75e5032a341c0bab02202eb5c69f57e1cb007a9b9aa774b59abe24a939f287ebbd83f2b035ccb63e2ea60121026d210f0550f587f093134fb12b2684a10ffe402021c5eadff7f86e0c26efa32f00000000"
}