{
  "txid": "c1333259aa211b0cefea58a7d97b123e7ef4be08a61e76ea2edc5a2013d2014a",
  "version": 2,
  "locktime": 0,
  "vin": [
    {
      "txid": "acc3ba00869acb582a3f2904ce3a11dd3779350ce234063fc7d0959246213364",
      "vout": 155,
      "prevout": {
        "scriptpubkey": "5120cb0d059c248656ba7784f0bad3777b0a8841d0b7035a42d5b9e0123bda1dd673",
        "scriptpubkey_asm": "OP_PUSHNUM_1 OP_PUSHBYTES_32 cb0d059c248656ba7784f0bad3777b0a8841d0b7035a42d5b9e0123bda1dd673",
        "scriptpubkey_type": "v1_p2tr",
        "scriptpubkey_address": "bc1pevxst8pysett5auy7zadxammp2yyr59hqddy94deuqfrhksa6eesxcljdj",
        "value": 1806
      },
      "scriptsig": "",
      "scriptsig_asm": "",
      "witness": [
        "93fafcd322a0d9e24f39299c30b02226fc5b7f0f817c349c36e9d78a3cb649ad9058e1a890e4d7660c05f2a43124d70c4370a487e643442ec8e7b1b36ca67a88",
        "201893d03f6d1b412ca6b7eab0324d8769ec555bc468e7a14cc8d5ab423b48a519ac0063036f726401010a746578742f706c61696e00357b2270223a226272632d3230222c226f70223a226d696e74222c227469636b223a22646f6765222c22616d74223a2234323030227d68",
        "c01893d03f6d1b412ca6b7eab0324d8769ec555bc468e7a14cc8d5ab423b48a519"
      ],
      "is_coinbase": false,
      "sequence": 4261412863
    }
  ],
  "vout": [
    {
      "scriptpubkey": "00147a665de7a370f4c9b372ab1fae587500a5bcbdb4",
      "scriptpubkey_asm": "OP_0 OP_PUSHBYTES_20 7a665de7a370f4c9b372ab1fae587500a5bcbdb4",
      "scriptpubkey_type": "v0_p2wpkh",
      "scriptpubkey_address": "bc1q0fn9mearwr6vnvmj4v06ukr4qzjme0d565dzcx",
      "value": 294
    }
  ],
  "size": 294,
  "weight": 540,
  "fee": 1512,
  "status": {
    "confirmed": true,
    "block_height": 834460,
    "block_hash": "00000000000000000000484a79b643b2524bbce82e5d8a442013fa5b8905ed98",
    "block_time": 1710307468
  },
  "hex": "02000000000101643321469295d0c73f0634e20c357937dd113ace04293f2a58cb9a8600bac3ac9b00000000fffffffd0126010000000000001600147a665de7a370f4c9b372ab1fae587500a5bcbdb4034093fafcd322a0d9e24f39299c30b02226fc5b7f0f817c349c36e9d78a3cb649ad9058e1a890e4d7660c05f2a43124d70c4370a487e643442ec8e7b1b36ca67a886d201893d03f6d1b412ca6b7eab0324d8769ec555bc468e7a14cc8d5ab423b48a519ac0063036f726401010a746578742f706c61696e00357b2270223a226272632d3230222c226f70223a226d696e74222c227469636b223a22646f6765222c22616d74223a2234323030227d6821c01893d03f6d1b412ca6b7eab0324d8769ec555bc468e7a14cc8d5ab423b48a51900000000"
}