{
  "txid": "c137fa9351f1d335316d242728c8d89f3e4347381696b119f82ebf1cd96860c3",
  "version": 2,
  "locktime": 0,
  "vin": [
    {
      "txid": "bc6bd7f5c99650e065ab5bd90d87aee91d873ece7457773889695cadf7d9cc4e",
      "vout": 0,
      "prevout": {
        "scriptpubkey": "0014314129c08449a8723f22aaa29d62f191631dea13",
        "scriptpubkey_asm": "OP_0 OP_PUSHBYTES_20 314129c08449a8723f22aaa29d62f191631dea13",
        "scriptpubkey_type": "v0_p2wpkh",
        "scriptpubkey_address": "bc1qx9qjnsyyfx58y0ez423f6ch3j933m6sn9qkzz3",
        "value": 155401
      },
      "scriptsig": "",
      "scriptsig_asm": "",
      "witness": [
        "304402203a0f684f9785fc44b594c0c2a8f1d675231d1c1649674d89afae2212af5d66bc022066ab6ed20d7ab31e7311f4c6d7b738fca11023baec206b5c89894f3b2535238d01",
        "038d77923379082f6651e9ea9202d463730f1bbf6bb4a988af8fd040a1173fa981"
      ],
      "is_coinbase": false,
      "sequence": 4294967295
    }
  ],
  "vout": [
    {
      "scriptpubkey": "0014314129c08449a8723f22aaa29d62f191631dea13",
      "scriptpubkey_asm": "OP_0 OP_PUSHBYTES_20 314129c08449a8723f22aaa29d62f191631dea13",
      "scriptpubkey_type": "v0_p2wpkh",
      "scriptpubkey_address": "bc1qx9qjnsyyfx58y0ez423f6ch3j933m6sn9qkzz3",
      "value": 132830
    },
    {
      "scriptpubkey": "0014930853530fd16dd63281cf99397916aabe553ebd",
      "scriptpubkey_asm": "OP_0 OP_PUSHBYTES_20 930853530fd16dd63281cf99397916aabe553ebd",
      "scriptpubkey_type": "v0_p2wpkh",
      "scriptpubkey_address": "bc1qjvy9x5c069kavv5pe7vnj7gk42l9204aydnzja",
      "value": 20000
    }
  ],
  "size": 222,
  "weight": 561,
  "fee": 2571,
  "status": {
    "confirmed": true,
    "block_height": 834638,
    "block_hash": "000000000000000000025f742c626208ac87e0b7d15054abb4a19ca2d735a54e",
    "block_time": 1710405325
  },
  "hex": "020000000001014eccd9f7ad5c698938775774ce3e871de9ae870dd95bab65e05096c9f5d76bbc0000000000ffffffff02de06020000000000160014314129c08449a8723f22aaa29d62f191631dea13204e000000000000160014930853530fd16dd63281cf99397916aabe553ebd0247304402203a0f684f9785fc44b594c0c2a8f1d675231d1c1649674d89afae2212af5d66bc022066ab6ed20d7ab31e7311f4c6d7b738fca11023baec206b5c89894f3b2535238d0121038d77923379082f6651e9ea9202d463730f1bbf6bb4a988af8fd040a1173fa98100000000"
}