{
  "txid": "c143d51b6bb8e76cf4e81151730b9863a2d7e8d92e437c84fbf98ec99aea4d54",
  "version": 2,
  "locktime": 0,
  "vin": [
    {
      "txid": "acc3ba00869acb582a3f2904ce3a11dd3779350ce234063fc7d0959246213364",
      "vout": 122,
      "prevout": {
        "scriptpubkey": "512000112cf0a14ce13a62adb71716b352a24531ed2f36af13f01f8d53b0e53000d4",
        "scriptpubkey_asm": "OP_PUSHNUM_1 OP_PUSHBYTES_32 00112cf0a14ce13a62adb71716b352a24531ed2f36af13f01f8d53b0e53000d4",
        "scriptpubkey_type": "v1_p2tr",
        "scriptpubkey_address": "bc1pqqgjeu9pfnsn5c4dkut3dv6j5fznrmf0x6h38uql34fmpefsqr2q9p99gt",
        "value": 1806
      },
      "scriptsig": "",
      "scriptsig_asm": "",
      "witness": [
        "01f71421f187a98992e9a0d5827c816a0d13e85b4f618cce69c5e94ff7147f1e68500f23335a0d7f61efffe69d49fc3b8b6cd6567a13acc2b6495081972cb0ff",
        "20260d5297e249b111e362343b480020e8778a47874de6e735d4390c0d90e8ef17ac0063036f726401010a746578742f706c61696e00357b2270223a226272632d3230222c226f70223a226d696e74222c227469636b223a22646f6765222c22616d74223a2234323030227d68",
        "c0260d5297e249b111e362343b480020e8778a47874de6e735d4390c0d90e8ef17"
      ],
      "is_coinbase": false,
      "sequence": 4261412863
    }
  ],
  "vout": [
    {
      "scriptpubkey": "00147a665de7a370f4c9b372ab1fae587500a5bcbdb4",
      "scriptpubkey_asm": "OP_0 OP_PUSHBYTES_20 7a665de7a370f4c9b372ab1fae587500a5bcbdb4",
      "scriptpubkey_type": "v0_p2wpkh",
      "scriptpubkey_address": "bc1q0fn9mearwr6vnvmj4v06ukr4qzjme0d565dzcx",
      "value": 294
    }
  ],
  "size": 294,
  "weight": 540,
  "fee": 1512,
  "status": {
    "confirmed": true,
    "block_height": 834460,
    "block_hash": "00000000000000000000484a79b643b2524bbce82e5d8a442013fa5b8905ed98",
    "block_time": 1710307468
  },
  "hex": "02000000000101643321469295d0c73f0634e20c357937dd113ace04293f2a58cb9a8600bac3ac7a00000000fffffffd0126010000000000001600147a665de7a370f4c9b372ab1fae587500a5bcbdb4034001f71421f187a98992e9a0d5827c816a0d13e85b4f618cce69c5e94ff7147f1e68500f23335a0d7f61efffe69d49fc3b8b6cd6567a13acc2b6495081972cb0ff6d20260d5297e249b111e362343b480020e8778a47874de6e735d4390c0d90e8ef17ac0063036f726401010a746578742f706c61696e00357b2270223a226272632d3230222c226f70223a226d696e74222c227469636b223a22646f6765222c22616d74223a2234323030227d6821c0260d5297e249b111e362343b480020e8778a47874de6e735d4390c0d90e8ef1700000000"
}