{
  "txid": "c15c904023b54914307539e930d4db5910cc0ec238a4bef9148b8df40ed10c90",
  "version": 1,
  "locktime": 0,
  "vin": [
    {
      "txid": "31e14b2ba0166cc306e3de334e387fd67b3bfe035de0d03199df892b77531058",
      "vout": 0,
      "prevout": {
        "scriptpubkey": "0014331270a0ad9d4e3e17fc0ccf4eb20708df68a64b",
        "scriptpubkey_asm": "OP_0 OP_PUSHBYTES_20 331270a0ad9d4e3e17fc0ccf4eb20708df68a64b",
        "scriptpubkey_type": "v0_p2wpkh",
        "scriptpubkey_address": "bc1qxvf8pg9dn48ru9lupn85avs8pr0k3fjtv33nv9",
        "value": 73634806
      },
      "scriptsig": "",
      "scriptsig_asm": "",
      "witness": [
        "30440220730a42343786d754e42e16878d6d088e1ecc25267a22d1bf09e104247adbd09902205d9a89088d732f92c63bc1e44e5b7b34ceaea74079d2ad125e3ad8b62ca7387701",
        "023b3344b6e4f8ec68315aaf357a6b1fa581d249985253f42288d56af88696240f"
      ],
      "is_coinbase": false,
      "sequence": 4294967295
    }
  ],
  "vout": [
    {
      "scriptpubkey": "a9145839031f6fe408d2ef5f5b992397a0001f442d1687",
      "scriptpubkey_asm": "OP_HASH160 OP_PUSHBYTES_20 5839031f6fe408d2ef5f5b992397a0001f442d16 OP_EQUAL",
      "scriptpubkey_type": "p2sh",
      "scriptpubkey_address": "39jVghfC19dQCGdMDjAiDmBV9RwPjZWP5v",
      "value": 741620
    },
    {
      "scriptpubkey": "001497dbad7ee0a754b1fed66d1a0673fec6c04dd621",
      "scriptpubkey_asm": "OP_0 OP_PUSHBYTES_20 97dbad7ee0a754b1fed66d1a0673fec6c04dd621",
      "scriptpubkey_type": "v0_p2wpkh",
      "scriptpubkey_address": "bc1qjld66lhq5a2trlkkd5dqvul7cmqym43pm8urj9",
      "value": 13861
    },
    {
      "scriptpubkey": "0014287546de5521fdeecc6014f2da4eb4965f79c9dd",
      "scriptpubkey_asm": "OP_0 OP_PUSHBYTES_20 287546de5521fdeecc6014f2da4eb4965f79c9dd",
      "scriptpubkey_type": "v0_p2wpkh",
      "scriptpubkey_address": "bc1q9p65dhj4y877anrqzned5n45je0hnjwae3swvg",
      "value": 18420
    },
    {
      "scriptpubkey": "a9144a804da8cd1c507ffc23f92211716997b3de49a387",
      "scriptpubkey_asm": "OP_HASH160 OP_PUSHBYTES_20 4a804da8cd1c507ffc23f92211716997b3de49a3 OP_EQUAL",
      "scriptpubkey_type": "p2sh",
      "scriptpubkey_address": "38UwdQtgMWC1FzxRxJpfMvE6F3VVAgYMRS",
      "value": 92267
    },
    {
      "scriptpubkey": "0014d98e4d0a647467d89c9415a8ff0fb34885d1588b",
      "scriptpubkey_asm": "OP_0 OP_PUSHBYTES_20 d98e4d0a647467d89c9415a8ff0fb34885d1588b",
      "scriptpubkey_type": "v0_p2wpkh",
      "scriptpubkey_address": "bc1qmx8y6znyw3na38y5zk507ranfzzazkytlud5a5",
      "value": 192477
    },
    {
      "scriptpubkey": "0014512db9f529e2f8dbaaedf22c0736d646eafc2329",
      "scriptpubkey_asm": "OP_0 OP_PUSHBYTES_20 512db9f529e2f8dbaaedf22c0736d646eafc2329",
      "scriptpubkey_type": "v0_p2wpkh",
      "scriptpubkey_address": "bc1q2ykmnaffutudh2hd7gkqwdkkgm40cgefqt2vdw",
      "value": 17129091
    },
    {
      "scriptpubkey": "0014b46d80cf74553acb4f50d2473711f2ca4c212304",
      "scriptpubkey_asm": "OP_0 OP_PUSHBYTES_20 b46d80cf74553acb4f50d2473711f2ca4c212304",
      "scriptpubkey_type": "v0_p2wpkh",
      "scriptpubkey_address": "bc1qk3kcpnm525avkn6s6frnwy0jefxzzgcypy6f6u",
      "value": 69312
    },
    {
      "scriptpubkey": "0014ae986c7488359d567739b9637eb0c0eaa1c9d546",
      "scriptpubkey_asm": "OP_0 OP_PUSHBYTES_20 ae986c7488359d567739b9637eb0c0eaa1c9d546",
      "scriptpubkey_type": "v0_p2wpkh",
      "scriptpubkey_address": "bc1q46vxcaygxkw4vaeeh93havxqa2sun42xm4agxz",
      "value": 124747
    },
    {
      "scriptpubkey": "76a914aa9540fd8aaabb036ca599930594a234ef4aa9f388ac",
      "scriptpubkey_asm": "OP_DUP OP_HASH160 OP_PUSHBYTES_20 aa9540fd8aaabb036ca599930594a234ef4aa9f3 OP_EQUALVERIFY OP_CHECKSIG",
      "scriptpubkey_type": "p2pkh",
      "scriptpubkey_address": "1GYxfxCmqiM5xedtKa5n99wcw9gU8TvUcE",
      "value": 732725
    },
    {
      "scriptpubkey": "001444d8dfef4d785692e958c274565ffa3356fd88b5",
      "scriptpubkey_asm": "OP_0 OP_PUSHBYTES_20 44d8dfef4d785692e958c274565ffa3356fd88b5",
      "scriptpubkey_type": "v0_p2wpkh",
      "scriptpubkey_address": "bc1qgnvdlm6d0ptf962ccf69vhl6xdt0mz94pgq2f9",
      "value": 1381497
    },
    {
      "scriptpubkey": "001412e1cdcefff5613e695c5810c5b372bc60b23f82",
      "scriptpubkey_asm": "OP_0 OP_PUSHBYTES_20 12e1cdcefff5613e695c5810c5b372bc60b23f82",
      "scriptpubkey_type": "v0_p2wpkh",
      "scriptpubkey_address": "bc1qztsumnhl74snu62utqgvtvmjh3sty0uz4ecdg6",
      "value": 942600
    },
    {
      "scriptpubkey": "00141daa75248b9b588cafc2f00c05fd2209f216a34e",
      "scriptpubkey_asm": "OP_0 OP_PUSHBYTES_20 1daa75248b9b588cafc2f00c05fd2209f216a34e",
      "scriptpubkey_type": "v0_p2wpkh",
      "scriptpubkey_address": "bc1qrk482fytndvget7z7qxqtlfzp8epdg6w2mxnux",
      "value": 411028
    },
    {
      "scriptpubkey": "0014feac95f0f50b2ead18e95d4b4d60d872e45bb369",
      "scriptpubkey_asm": "OP_0 OP_PUSHBYTES_20 feac95f0f50b2ead18e95d4b4d60d872e45bb369",
      "scriptpubkey_type": "v0_p2wpkh",
      "scriptpubkey_address": "bc1ql6kftu84pvh26x8ft4956cxcwtj9hvmfx2xg4n",
      "value": 1400255
    },
    {
      "scriptpubkey": "00140661b89e2324d81e53a5dad53180e80bbf5c645d",
      "scriptpubkey_asm": "OP_0 OP_PUSHBYTES_20 0661b89e2324d81e53a5dad53180e80bbf5c645d",
      "scriptpubkey_type": "v0_p2wpkh",
      "scriptpubkey_address": "bc1qqesm383rynvpu5a9mt2nrq8gpwl4ceza622wpe",
      "value": 67920
    },
    {
      "scriptpubkey": "76a914c57f1cac26f621996a1ae52a4ba58e445580ce2688ac",
      "scriptpubkey_asm": "OP_DUP OP_HASH160 OP_PUSHBYTES_20 c57f1cac26f621996a1ae52a4ba58e445580ce26 OP_EQUALVERIFY OP_CHECKSIG",
      "scriptpubkey_type": "p2pkh",
      "scriptpubkey_address": "1K1GPgs897dR67tTwMvu76eTx3Rnb2Fzxn",
      "value": 50000000
    },
    {
      "scriptpubkey": "00147a339f31409d9bdbd552ec5490888a45dc0a3a30",
      "scriptpubkey_asm": "OP_0 OP_PUSHBYTES_20 7a339f31409d9bdbd552ec5490888a45dc0a3a30",
      "scriptpubkey_type": "v0_p2wpkh",
      "scriptpubkey_address": "bc1q0gee7v2qnkdah42ja32fpzy2ghwq5w3sejxw9x",
      "value": 69300
    },
    {
      "scriptpubkey": "a914b647cf7edf56e146d7867ee922f5c381b22ea73c87",
      "scriptpubkey_asm": "OP_HASH160 OP_PUSHBYTES_20 b647cf7edf56e146d7867ee922f5c381b22ea73c OP_EQUAL",
      "scriptpubkey_type": "p2sh",
      "scriptpubkey_address": "3JJpvwUHk8Sdbt5vJ7CsZeVnZX45cB2w1s",
      "value": 69372
    },
    {
      "scriptpubkey": "001450d551d32214d82eb209eb36b3dbcddcbd22ac48",
      "scriptpubkey_asm": "OP_0 OP_PUSHBYTES_20 50d551d32214d82eb209eb36b3dbcddcbd22ac48",
      "scriptpubkey_type": "v0_p2wpkh",
      "scriptpubkey_address": "bc1q2r24r5ezznvzavsfavmt8k7dmj7j9tzgtnwa2r",
      "value": 21503
    },
    {
      "scriptpubkey": "00146eba8bb049d66408e0901940c84119b9bb7e3778",
      "scriptpubkey_asm": "OP_0 OP_PUSHBYTES_20 6eba8bb049d66408e0901940c84119b9bb7e3778",
      "scriptpubkey_type": "v0_p2wpkh",
      "scriptpubkey_address": "bc1qd6aghvzf6ejq3cysr9qvssgehxahudmcep8cqu",
      "value": 138532
    }
  ],
  "size": 758,
  "weight": 2705,
  "fee": 18279,
  "status": {
    "confirmed": true,
    "block_height": 834460,
    "block_hash": "00000000000000000000484a79b643b2524bbce82e5d8a442013fa5b8905ed98",
    "block_time": 1710307468
  },
  "hex": "01000000000101581053772b89df9931d0e05d03fe3b7bd67f384e33dee306c36c16a02b4be1310000000000ffffffff13f4500b000000000017a9145839031f6fe408d2ef5f5b992397a0001f442d1687253600000000000016001497dbad7ee0a754b1fed66d1a0673fec6c04dd621f447000000000000160014287546de5521fdeecc6014f2da4eb4965f79c9dd6b6801000000000017a9144a804da8cd1c507ffc23f92211716997b3de49a387ddef020000000000160014d98e4d0a647467d89c9415a8ff0fb34885d1588b835e050100000000160014512db9f529e2f8dbaaedf22c0736d646eafc2329c00e010000000000160014b46d80cf74553acb4f50d2473711f2ca4c2123044be7010000000000160014ae986c7488359d567739b9637eb0c0eaa1c9d546352e0b00000000001976a914aa9540fd8aaabb036ca599930594a234ef4aa9f388ac791415000000000016001444d8dfef4d785692e958c274565ffa3356fd88b508620e000000000016001412e1cdcefff5613e695c5810c5b372bc60b23f8294450600000000001600141daa75248b9b588cafc2f00c05fd2209f216a34ebf5d150000000000160014feac95f0f50b2ead18e95d4b4d60d872e45bb36950090100000000001600140661b89e2324d81e53a5dad53180e80bbf5c645d80f0fa02000000001976a914c57f1cac26f621996a1ae52a4ba58e445580ce2688acb40e0100000000001600147a339f31409d9bdbd552ec5490888a45dc0a3a30fc0e01000000000017a914b647cf7edf56e146d7867ee922f5c381b22ea73c87ff5300000000000016001450d551d32214d82eb209eb36b3dbcddcbd22ac48241d0200000000001600146eba8bb049d66408e0901940c84119b9bb7e3778024730440220730a42343786d754e42e16878d6d088e1ecc25267a22d1bf09e104247adbd09902205d9a89088d732f92c63bc1e44e5b7b34ceaea74079d2ad125e3ad8b62ca738770121023b3344b6e4f8ec68315aaf357a6b1fa581d249985253f42288d56af88696240f00000000"
}