{
  "txid": "c15e4441def3f7f922461a12ee277afeda15979e344df421b89cec87536ed596",
  "version": 2,
  "locktime": 0,
  "vin": [
    {
      "txid": "4a29f904c36e1c49c937ffb0c5f1505488b88aa9735044406c3758165691ea48",
      "vout": 0,
      "prevout": {
        "scriptpubkey": "51202dac05f0eb0eacd6f02652e291fb4059374c82ed3af393ec5cda1e75a0dea3f6",
        "scriptpubkey_asm": "OP_PUSHNUM_1 OP_PUSHBYTES_32 2dac05f0eb0eacd6f02652e291fb4059374c82ed3af393ec5cda1e75a0dea3f6",
        "scriptpubkey_type": "v1_p2tr",
        "scriptpubkey_address": "bc1p9kkqtu8tp6kddupx2t3fr76qtym5eqhd8tee8mzumg08tgx750mqg82xsf",
        "value": 2856
      },
      "scriptsig": "",
      "scriptsig_asm": "",
      "witness": [
        "72a7c8846d4a9a6070811859ee2b4dc93cd7d4df33d733c0a67ba7a82004ea893c71c4883ce8a3c62ca9eb4817ae1d775f4f59be16e8e02a2bdb97d549fe274f",
        "20aa988901a306d9609a5b6a72c090410c62a32facbbd2a5a41247f84f7830a10bac0063036f7264010118746578742f706c61696e3b636861727365743d7574662d3800417b2270223a226272632d3230222c226f70223a227472616e73666572222c227469636b223a22f09d9b91222c22616d74223a22333030303030303030303030227d68",
        "c0aa988901a306d9609a5b6a72c090410c62a32facbbd2a5a41247f84f7830a10b"
      ],
      "is_coinbase": false,
      "sequence": 4294967293
    }
  ],
  "vout": [
    {
      "scriptpubkey": "51200c64fc95702d653e54459ebb4825c31b5f1af1b3a7bcc927da7aa51ed9acd528",
      "scriptpubkey_asm": "OP_PUSHNUM_1 OP_PUSHBYTES_32 0c64fc95702d653e54459ebb4825c31b5f1af1b3a7bcc927da7aa51ed9acd528",
      "scriptpubkey_type": "v1_p2tr",
      "scriptpubkey_address": "bc1pp3j0e9ts94jnu4z9n6a5sfwrrd034udn577vjf7602j3akdv655qw4knye",
      "value": 546
    }
  ],
  "size": 332,
  "weight": 614,
  "fee": 2310,
  "status": {
    "confirmed": true,
    "block_height": 834460,
    "block_hash": "00000000000000000000484a79b643b2524bbce82e5d8a442013fa5b8905ed98",
    "block_time": 1710307468
  },
  "hex": "0200000000010148ea91561658376c40445073a98ab8885450f1c5b0ff37c9491c6ec304f9294a0000000000fdffffff0122020000000000002251200c64fc95702d653e54459ebb4825c31b5f1af1b3a7bcc927da7aa51ed9acd528034072a7c8846d4a9a6070811859ee2b4dc93cd7d4df33d733c0a67ba7a82004ea893c71c4883ce8a3c62ca9eb4817ae1d775f4f59be16e8e02a2bdb97d549fe274f8720aa988901a306d9609a5b6a72c090410c62a32facbbd2a5a41247f84f7830a10bac0063036f7264010118746578742f706c61696e3b636861727365743d7574662d3800417b2270223a226272632d3230222c226f70223a227472616e73666572222c227469636b223a22f09d9b91222c22616d74223a22333030303030303030303030227d6821c0aa988901a306d9609a5b6a72c090410c62a32facbbd2a5a41247f84f7830a10b00000000"
}