{
  "txid": "c179d7559de70342e5d495d3f98ea803a1d5ecd7e965c0546b694a0960f676b9",
  "version": 2,
  "locktime": 834229,
  "vin": [
    {
      "txid": "6a725c1d1e7e923d2ceccc3e72efe3a43395caf834dffdd1060c1e410a009dd5",
      "vout": 5,
      "prevout": {
        "scriptpubkey": "0014fbd569f89c60cb2886c5c77c379a47c8b157239c",
        "scriptpubkey_asm": "OP_0 OP_PUSHBYTES_20 fbd569f89c60cb2886c5c77c379a47c8b157239c",
        "scriptpubkey_type": "v0_p2wpkh",
        "scriptpubkey_address": "bc1ql02kn7yuvr9j3pk9ca7r0xj8ezc4wguu3pnwtm",
        "value": 2095450
      },
      "scriptsig": "",
      "scriptsig_asm": "",
      "witness": [
        "304402207559f3eed4b7f483f97e45baab2fb5e655a0fc7a41509c993f48c5177817959a02206cc429cf7efe03eae9e6212582f5a44d3c23301eb665fa1569732d3c74274c8901",
        "02a311753ca28782a1390051530cfa736e8acc9a1b6284ece38bb3d63b55d3cfb0"
      ],
      "is_coinbase": false,
      "sequence": 4294967293
    }
  ],
  "vout": [
    {
      "scriptpubkey": "0014a41e4c18c547853a3e49bab6e198e9e5d225d56b",
      "scriptpubkey_asm": "OP_0 OP_PUSHBYTES_20 a41e4c18c547853a3e49bab6e198e9e5d225d56b",
      "scriptpubkey_type": "v0_p2wpkh",
      "scriptpubkey_address": "bc1q5s0ycxx9g7zn50jfh2mwrx8fuhfzt4ttku5uxf",
      "value": 2094240
    }
  ],
  "size": 191,
  "weight": 437,
  "fee": 1210,
  "status": {
    "confirmed": true,
    "block_height": 834464,
    "block_hash": "0000000000000000000177a0869a911a2b65c9bdcd5a8bcb02b68f305bee848e",
    "block_time": 1710308296
  },
  "hex": "02000000000101d59d000a411e0c06d1fddf34f8ca9533a4e3ef723eccec2c3d927e1e1d5c726a0500000000fdffffff01a0f41f0000000000160014a41e4c18c547853a3e49bab6e198e9e5d225d56b0247304402207559f3eed4b7f483f97e45baab2fb5e655a0fc7a41509c993f48c5177817959a02206cc429cf7efe03eae9e6212582f5a44d3c23301eb665fa1569732d3c74274c89012102a311753ca28782a1390051530cfa736e8acc9a1b6284ece38bb3d63b55d3cfb0b5ba0c00"
}