{
  "txid": "c1980e1597de038fd2dfc4d0a1a59352d1d6f78007e29c4a1f0e98b58227ec88",
  "version": 1,
  "locktime": 0,
  "vin": [
    {
      "txid": "0000b57984b5bc684b013ae57bc78b06878e02a1f683ee837fd25be90fc14f2a",
      "vout": 1,
      "prevout": {
        "scriptpubkey": "51203e4de2c59d68015dc5c704364002b6045d335265e86d4b4ff2ece4c2a0ebb8d9",
        "scriptpubkey_asm": "OP_PUSHNUM_1 OP_PUSHBYTES_32 3e4de2c59d68015dc5c704364002b6045d335265e86d4b4ff2ece4c2a0ebb8d9",
        "scriptpubkey_type": "v1_p2tr",
        "scriptpubkey_address": "bc1p8ex793vadqq4m3w8qsmyqq4kq3wnx5n9apk5knljanjv9g8thrvs402kdq",
        "value": 1593
      },
      "scriptsig": "",
      "scriptsig_asm": "",
      "witness": [
        "91b07dcbb008998cf920616ccb59ebc4fff0966c20a9a7a035ed0a75d0a2425fd04d2326aad1c5306e39d90f861e5070059ff4212bff8f71649e3c794cb8e97d"
      ],
      "is_coinbase": false,
      "sequence": 160346
    },
    {
      "txid": "c19806014e25b667eef856b6f6afd93a31890759e4d9ea7bdcc6be5a4b7ced5f",
      "vout": 2,
      "prevout": {
        "scriptpubkey": "51203e4de2c59d68015dc5c704364002b6045d335265e86d4b4ff2ece4c2a0ebb8d9",
        "scriptpubkey_asm": "OP_PUSHNUM_1 OP_PUSHBYTES_32 3e4de2c59d68015dc5c704364002b6045d335265e86d4b4ff2ece4c2a0ebb8d9",
        "scriptpubkey_type": "v1_p2tr",
        "scriptpubkey_address": "bc1p8ex793vadqq4m3w8qsmyqq4kq3wnx5n9apk5knljanjv9g8thrvs402kdq",
        "value": 143234
      },
      "scriptsig": "",
      "scriptsig_asm": "",
      "witness": [
        "77fc6c08d9b0b58c925cdde01dc5789fe634e1c7deedaffc38621d0842c272cc7e3c72d56fd71d25b1cb946ef03724536b1d5aa759fa2a160839cb29bb83e2c5"
      ],
      "is_coinbase": false,
      "sequence": 4294967293
    }
  ],
  "vout": [
    {
      "scriptpubkey": "5120792df2e25842131fd3b6d6bcabfd07d35706969988e9af2290d4baaec1c10049",
      "scriptpubkey_asm": "OP_PUSHNUM_1 OP_PUSHBYTES_32 792df2e25842131fd3b6d6bcabfd07d35706969988e9af2290d4baaec1c10049",
      "scriptpubkey_type": "v1_p2tr",
      "scriptpubkey_address": "bc1p0ykl9cjcggf3l5ak6672hlg86dtsd95e3r567g5s6ja2aswpqpys3n9zlv",
      "value": 7386
    },
    {
      "scriptpubkey": "a914a1a1911c113d27d73e0cc8b507dd897156c4d59687",
      "scriptpubkey_asm": "OP_HASH160 OP_PUSHBYTES_20 a1a1911c113d27d73e0cc8b507dd897156c4d596 OP_EQUAL",
      "scriptpubkey_type": "p2sh",
      "scriptpubkey_address": "3GReGHiAkvkHznFQvjkEb6R7pnaop9r55k",
      "value": 4400
    },
    {
      "scriptpubkey": "51203e4de2c59d68015dc5c704364002b6045d335265e86d4b4ff2ece4c2a0ebb8d9",
      "scriptpubkey_asm": "OP_PUSHNUM_1 OP_PUSHBYTES_32 3e4de2c59d68015dc5c704364002b6045d335265e86d4b4ff2ece4c2a0ebb8d9",
      "scriptpubkey_type": "v1_p2tr",
      "scriptpubkey_address": "bc1p8ex793vadqq4m3w8qsmyqq4kq3wnx5n9apk5knljanjv9g8thrvs402kdq",
      "value": 129987
    }
  ],
  "size": 344,
  "weight": 974,
  "fee": 3054,
  "status": {
    "confirmed": true,
    "block_height": 834460,
    "block_hash": "00000000000000000000484a79b643b2524bbce82e5d8a442013fa5b8905ed98",
    "block_time": 1710307468
  },
  "hex": "010000000001022a4fc10fe95bd27f83ee83f6a1028e87068bc77be53a014b68bcb58479b5000001000000005a7202005fed7c4b5abec6dc7bead9e4590789313ad9aff6b656f8ee67b6254e010698c10200000000fdffffff03da1c000000000000225120792df2e25842131fd3b6d6bcabfd07d35706969988e9af2290d4baaec1c10049301100000000000017a914a1a1911c113d27d73e0cc8b507dd897156c4d59687c3fb0100000000002251203e4de2c59d68015dc5c704364002b6045d335265e86d4b4ff2ece4c2a0ebb8d9014091b07dcbb008998cf920616ccb59ebc4fff0966c20a9a7a035ed0a75d0a2425fd04d2326aad1c5306e39d90f861e5070059ff4212bff8f71649e3c794cb8e97d014077fc6c08d9b0b58c925cdde01dc5789fe634e1c7deedaffc38621d0842c272cc7e3c72d56fd71d25b1cb946ef03724536b1d5aa759fa2a160839cb29bb83e2c500000000"
}