{
  "txid": "c19806014e25b667eef856b6f6afd93a31890759e4d9ea7bdcc6be5a4b7ced5f",
  "version": 1,
  "locktime": 0,
  "vin": [
    {
      "txid": "c27e2ef77d13ed58e14dc5988e94d123b2188815900c3b594a5ba28e621e51db",
      "vout": 10,
      "prevout": {
        "scriptpubkey": "51203e4de2c59d68015dc5c704364002b6045d335265e86d4b4ff2ece4c2a0ebb8d9",
        "scriptpubkey_asm": "OP_PUSHNUM_1 OP_PUSHBYTES_32 3e4de2c59d68015dc5c704364002b6045d335265e86d4b4ff2ece4c2a0ebb8d9",
        "scriptpubkey_type": "v1_p2tr",
        "scriptpubkey_address": "bc1p8ex793vadqq4m3w8qsmyqq4kq3wnx5n9apk5knljanjv9g8thrvs402kdq",
        "value": 158806
      },
      "scriptsig": "",
      "scriptsig_asm": "",
      "witness": [
        "c12000cfc9ff875d09a66116b9e30a024e4c04840eeaa32fc8d4eb380e40460ef4041139890113fdb1227810e537cfaad83a8275130abe8e9bd8ae293bdf5f8c"
      ],
      "is_coinbase": false,
      "sequence": 86695
    }
  ],
  "vout": [
    {
      "scriptpubkey": "5120913774a3e1485c956a64d920f3dd975a9deed4e228334cfd3f8822270208862f",
      "scriptpubkey_asm": "OP_PUSHNUM_1 OP_PUSHBYTES_32 913774a3e1485c956a64d920f3dd975a9deed4e228334cfd3f8822270208862f",
      "scriptpubkey_type": "v1_p2tr",
      "scriptpubkey_address": "bc1pjymhfglpfpwf26nymys08hvht2w7a48z9qe5elfl3q3zwqsgschszz268y",
      "value": 8414
    },
    {
      "scriptpubkey": "a914a1a1911c113d27d73e0cc8b507dd897156c4d59687",
      "scriptpubkey_asm": "OP_HASH160 OP_PUSHBYTES_20 a1a1911c113d27d73e0cc8b507dd897156c4d596 OP_EQUAL",
      "scriptpubkey_type": "p2sh",
      "scriptpubkey_address": "3GReGHiAkvkHznFQvjkEb6R7pnaop9r55k",
      "value": 4400
    },
    {
      "scriptpubkey": "51203e4de2c59d68015dc5c704364002b6045d335265e86d4b4ff2ece4c2a0ebb8d9",
      "scriptpubkey_asm": "OP_PUSHNUM_1 OP_PUSHBYTES_32 3e4de2c59d68015dc5c704364002b6045d335265e86d4b4ff2ece4c2a0ebb8d9",
      "scriptpubkey_type": "v1_p2tr",
      "scriptpubkey_address": "bc1p8ex793vadqq4m3w8qsmyqq4kq3wnx5n9apk5knljanjv9g8thrvs402kdq",
      "value": 143234
    }
  ],
  "size": 237,
  "weight": 744,
  "fee": 2758,
  "status": {
    "confirmed": true,
    "block_height": 834460,
    "block_hash": "00000000000000000000484a79b643b2524bbce82e5d8a442013fa5b8905ed98",
    "block_time": 1710307468
  },
  "hex": "01000000000101db511e628ea25b4a593b0c90158818b223d1948e98c54de158ed137df72e7ec20a00000000a752010003de20000000000000225120913774a3e1485c956a64d920f3dd975a9deed4e228334cfd3f8822270208862f301100000000000017a914a1a1911c113d27d73e0cc8b507dd897156c4d59687822f0200000000002251203e4de2c59d68015dc5c704364002b6045d335265e86d4b4ff2ece4c2a0ebb8d90140c12000cfc9ff875d09a66116b9e30a024e4c04840eeaa32fc8d4eb380e40460ef4041139890113fdb1227810e537cfaad83a8275130abe8e9bd8ae293bdf5f8c00000000"
}