{
  "txid": "c19deada2ca35dcae489b834e90f466e2066a1e3e64db1a30ce95cf590de9270",
  "version": 2,
  "locktime": 0,
  "vin": [
    {
      "txid": "b13bb5512a4904c28a6b7957b88edf574e8cb23551fc1dcfe22d6b239df42cf4",
      "vout": 73,
      "prevout": {
        "scriptpubkey": "51202c1053a1ee5af2cc9989eae28f31917d38460847f74f0c9d7d603b0e28369302",
        "scriptpubkey_asm": "OP_PUSHNUM_1 OP_PUSHBYTES_32 2c1053a1ee5af2cc9989eae28f31917d38460847f74f0c9d7d603b0e28369302",
        "scriptpubkey_type": "v1_p2tr",
        "scriptpubkey_address": "bc1p9sg98g0wttevexvfat3g7vv305uyvzz87a8se8tavqasu2pkjvpq6jg79v",
        "value": 2575
      },
      "scriptsig": "",
      "scriptsig_asm": "",
      "witness": [
        "a3074ddeee2b18ac8d2873f13311a569f7119108ab2e90dcc3754a93c0307cfef9cabe40ee458f3d425ff23909b52566d6bfc61bc4a9d72a93e297ecbfb53bb6",
        "201b0e3c1fa66b8fae55845d2354d08674e36cdcba99c1890147acf631a0ff6b98ac0063036f726401010a746578742f706c61696e00367b2270223a226272632d3230222c226f70223a226d696e74222c227469636b223a2261616161222c22616d74223a223130303030227d68",
        "c01b0e3c1fa66b8fae55845d2354d08674e36cdcba99c1890147acf631a0ff6b98"
      ],
      "is_coinbase": false,
      "sequence": 4261412863
    }
  ],
  "vout": [
    {
      "scriptpubkey": "0014ce0b5aa0dac72397a8aa5a85d90a2cfb46f0f630",
      "scriptpubkey_asm": "OP_0 OP_PUSHBYTES_20 ce0b5aa0dac72397a8aa5a85d90a2cfb46f0f630",
      "scriptpubkey_type": "v0_p2wpkh",
      "scriptpubkey_address": "bc1qec944gx6cu3e0292t2zajz3vldr0pa3sh356d9",
      "value": 546
    }
  ],
  "size": 295,
  "weight": 541,
  "fee": 2029,
  "status": {
    "confirmed": true,
    "block_height": 834464,
    "block_hash": "0000000000000000000177a0869a911a2b65c9bdcd5a8bcb02b68f305bee848e",
    "block_time": 1710308296
  },
  "hex": "02000000000101f42cf49d236b2de2cf1dfc5135b28c4e57df8eb857796b8ac204492a51b53bb14900000000fffffffd012202000000000000160014ce0b5aa0dac72397a8aa5a85d90a2cfb46f0f6300340a3074ddeee2b18ac8d2873f13311a569f7119108ab2e90dcc3754a93c0307cfef9cabe40ee458f3d425ff23909b52566d6bfc61bc4a9d72a93e297ecbfb53bb66e201b0e3c1fa66b8fae55845d2354d08674e36cdcba99c1890147acf631a0ff6b98ac0063036f726401010a746578742f706c61696e00367b2270223a226272632d3230222c226f70223a226d696e74222c227469636b223a2261616161222c22616d74223a223130303030227d6821c01b0e3c1fa66b8fae55845d2354d08674e36cdcba99c1890147acf631a0ff6b9800000000"
}