{
  "txid": "c1a0f99bab1a25deb64a86e773969d997f17de4776560556b562170d2a16d9ad",
  "version": 2,
  "locktime": 0,
  "vin": [
    {
      "txid": "b13bb5512a4904c28a6b7957b88edf574e8cb23551fc1dcfe22d6b239df42cf4",
      "vout": 58,
      "prevout": {
        "scriptpubkey": "51209ac81b4a8a141e4697169fbd8bbf08d6fcaeba8dc8f0a5616f2bb1a795a4f973",
        "scriptpubkey_asm": "OP_PUSHNUM_1 OP_PUSHBYTES_32 9ac81b4a8a141e4697169fbd8bbf08d6fcaeba8dc8f0a5616f2bb1a795a4f973",
        "scriptpubkey_type": "v1_p2tr",
        "scriptpubkey_address": "bc1pntypkj52zs0yd9ckn77ch0cg6m72aw5derc22ct09wc609dyl9es7ham88",
        "value": 2575
      },
      "scriptsig": "",
      "scriptsig_asm": "",
      "witness": [
        "953db5c734e04b1e860b49cbacab6ebbf8372eeac91de71ce1a5a59d3a3a604e07140d557758b654f45b1ddd28808fcc6a1d26cb3cd418e6ab4f6f8e4eca1856",
        "20c44dd4b88db8c33242b7b22d41a2672055ee122f128261ae20d102ed50b1bc29ac0063036f726401010a746578742f706c61696e00367b2270223a226272632d3230222c226f70223a226d696e74222c227469636b223a2261616161222c22616d74223a223130303030227d68",
        "c0c44dd4b88db8c33242b7b22d41a2672055ee122f128261ae20d102ed50b1bc29"
      ],
      "is_coinbase": false,
      "sequence": 4261412863
    }
  ],
  "vout": [
    {
      "scriptpubkey": "0014ce0b5aa0dac72397a8aa5a85d90a2cfb46f0f630",
      "scriptpubkey_asm": "OP_0 OP_PUSHBYTES_20 ce0b5aa0dac72397a8aa5a85d90a2cfb46f0f630",
      "scriptpubkey_type": "v0_p2wpkh",
      "scriptpubkey_address": "bc1qec944gx6cu3e0292t2zajz3vldr0pa3sh356d9",
      "value": 546
    }
  ],
  "size": 295,
  "weight": 541,
  "fee": 2029,
  "status": {
    "confirmed": true,
    "block_height": 834464,
    "block_hash": "0000000000000000000177a0869a911a2b65c9bdcd5a8bcb02b68f305bee848e",
    "block_time": 1710308296
  },
  "hex": "02000000000101f42cf49d236b2de2cf1dfc5135b28c4e57df8eb857796b8ac204492a51b53bb13a00000000fffffffd012202000000000000160014ce0b5aa0dac72397a8aa5a85d90a2cfb46f0f6300340953db5c734e04b1e860b49cbacab6ebbf8372eeac91de71ce1a5a59d3a3a604e07140d557758b654f45b1ddd28808fcc6a1d26cb3cd418e6ab4f6f8e4eca18566e20c44dd4b88db8c33242b7b22d41a2672055ee122f128261ae20d102ed50b1bc29ac0063036f726401010a746578742f706c61696e00367b2270223a226272632d3230222c226f70223a226d696e74222c227469636b223a2261616161222c22616d74223a223130303030227d6821c0c44dd4b88db8c33242b7b22d41a2672055ee122f128261ae20d102ed50b1bc2900000000"
}