{
  "txid": "c1a25668b3a665e9bc4eca605bb028355a9edd8533f9af7db56595f93fdf476e",
  "version": 1,
  "locktime": 0,
  "vin": [
    {
      "txid": "2f69ba6d5f53cfc0078211c1808d4f8b9dc1a503ba3bad05a4f7e0790aa56120",
      "vout": 1,
      "prevout": {
        "scriptpubkey": "0014ea35fcc87eb16750b3fc66708d2be7c058d26198",
        "scriptpubkey_asm": "OP_0 OP_PUSHBYTES_20 ea35fcc87eb16750b3fc66708d2be7c058d26198",
        "scriptpubkey_type": "v0_p2wpkh",
        "scriptpubkey_address": "bc1qag6lejr7k9n4pvluvecg62l8cpvdycvckeyt8n",
        "value": 20608
      },
      "scriptsig": "",
      "scriptsig_asm": "",
      "witness": [
        "304402202593947f3dc401e7e66c3ec8c4b0716f648976fa010a97787ff459aeab851f52022036b1ce6810d7c1bd2dc28416a8ab1988500ee74925fd41e7598524942f98e65901",
        "03615514921825c9264bd1064e30dc4777d917d3ba4b1e43bde39522390ed25de2"
      ],
      "is_coinbase": false,
      "sequence": 4294967295
    },
    {
      "txid": "897d3768260700e495f857e4737bcd7bd5a4ee0dd2d9c2b72da671ad9a9d95dc",
      "vout": 1,
      "prevout": {
        "scriptpubkey": "0014ea35fcc87eb16750b3fc66708d2be7c058d26198",
        "scriptpubkey_asm": "OP_0 OP_PUSHBYTES_20 ea35fcc87eb16750b3fc66708d2be7c058d26198",
        "scriptpubkey_type": "v0_p2wpkh",
        "scriptpubkey_address": "bc1qag6lejr7k9n4pvluvecg62l8cpvdycvckeyt8n",
        "value": 20657
      },
      "scriptsig": "",
      "scriptsig_asm": "",
      "witness": [
        "3044022063b11aa5e266947043c255b464abb848fc56ed2ad0c7f07eb67bafcf122ec66d02207346092cf6dbf67fcaa51104ece9933bd13429c35d93a3b620fc8ec4045b44b301",
        "03615514921825c9264bd1064e30dc4777d917d3ba4b1e43bde39522390ed25de2"
      ],
      "is_coinbase": false,
      "sequence": 4294967295
    }
  ],
  "vout": [
    {
      "scriptpubkey": "a91478c27729c8cae65d0ca1465e9ed29914602b031187",
      "scriptpubkey_asm": "OP_HASH160 OP_PUSHBYTES_20 78c27729c8cae65d0ca1465e9ed29914602b0311 OP_EQUAL",
      "scriptpubkey_type": "p2sh",
      "scriptpubkey_address": "3ChXyG9Mx583ruYrEnW6mh8QAp9DhgfMom",
      "value": 30000
    },
    {
      "scriptpubkey": "0014ea35fcc87eb16750b3fc66708d2be7c058d26198",
      "scriptpubkey_asm": "OP_0 OP_PUSHBYTES_20 ea35fcc87eb16750b3fc66708d2be7c058d26198",
      "scriptpubkey_type": "v0_p2wpkh",
      "scriptpubkey_address": "bc1qag6lejr7k9n4pvluvecg62l8cpvdycvckeyt8n",
      "value": 6645
    }
  ],
  "size": 371,
  "weight": 836,
  "fee": 4620,
  "status": {
    "confirmed": true,
    "block_height": 834638,
    "block_hash": "000000000000000000025f742c626208ac87e0b7d15054abb4a19ca2d735a54e",
    "block_time": 1710405325
  },
  "hex": "010000000001022061a50a79e0f7a405ad3bba03a5c19d8b4f8d80c1118207c0cf535f6dba692f0100000000ffffffffdc959d9aad71a62db7c2d9d20deea4d57bcd7b73e457f895e400072668377d890100000000ffffffff02307500000000000017a91478c27729c8cae65d0ca1465e9ed29914602b031187f519000000000000160014ea35fcc87eb16750b3fc66708d2be7c058d261980247304402202593947f3dc401e7e66c3ec8c4b0716f648976fa010a97787ff459aeab851f52022036b1ce6810d7c1bd2dc28416a8ab1988500ee74925fd41e7598524942f98e659012103615514921825c9264bd1064e30dc4777d917d3ba4b1e43bde39522390ed25de202473044022063b11aa5e266947043c255b464abb848fc56ed2ad0c7f07eb67bafcf122ec66d02207346092cf6dbf67fcaa51104ece9933bd13429c35d93a3b620fc8ec4045b44b3012103615514921825c9264bd1064e30dc4777d917d3ba4b1e43bde39522390ed25de200000000"
}