{
  "txid": "c1a46710b7a46e288fe4320da8203285b3bc86bcc2611c0066c916272b324a05",
  "version": 2,
  "locktime": 0,
  "vin": [
    {
      "txid": "e4ccf8a14cb483f16241a5ad1e1ad52fb6005f16a03575882193b571f5700e92",
      "vout": 6,
      "prevout": {
        "scriptpubkey": "0014f6e6eaf9b70d6cd313419ef9eabdc9f0c74ca4e4",
        "scriptpubkey_asm": "OP_0 OP_PUSHBYTES_20 f6e6eaf9b70d6cd313419ef9eabdc9f0c74ca4e4",
        "scriptpubkey_type": "v0_p2wpkh",
        "scriptpubkey_address": "bc1q7mnw47dhp4kdxy6pnmu740wf7rr5ef8yh03gy7",
        "value": 2907532
      },
      "scriptsig": "",
      "scriptsig_asm": "",
      "witness": [
        "3045022100961d28dbc98ceaa18160d68375e9230edfc4d2a9983a2d0d7f37d033f0373b3f022045e082eafa90b401cc112e75da4d3cf74583dcf866f514bd8438bec1f72eb27401",
        "03a72fb9e7373923ea1296bb3caad17bd54448c3cc614075a61752400e0bdee849"
      ],
      "is_coinbase": false,
      "sequence": 4294967293
    }
  ],
  "vout": [
    {
      "scriptpubkey": "0014d2296af8e0f94581e10ec856e674d8a4d00b599a",
      "scriptpubkey_asm": "OP_0 OP_PUSHBYTES_20 d2296af8e0f94581e10ec856e674d8a4d00b599a",
      "scriptpubkey_type": "v0_p2wpkh",
      "scriptpubkey_address": "bc1q6g5k478ql9zcrcgweptwvaxc5ngqkkv6k6xxla",
      "value": 2892452
    },
    {
      "scriptpubkey": "0014b29ff7f8d89fc14e86eed11d57b98160cdae2797",
      "scriptpubkey_asm": "OP_0 OP_PUSHBYTES_20 b29ff7f8d89fc14e86eed11d57b98160cdae2797",
      "scriptpubkey_type": "v0_p2wpkh",
      "scriptpubkey_address": "bc1qk20l07xcnlq5aphw6yw40wvpvrx6ufuhsmrhke",
      "value": 10616
    }
  ],
  "size": 223,
  "weight": 562,
  "fee": 4464,
  "status": {
    "confirmed": true,
    "block_height": 834638,
    "block_hash": "000000000000000000025f742c626208ac87e0b7d15054abb4a19ca2d735a54e",
    "block_time": 1710405325
  },
  "hex": "02000000000101920e70f571b59321887535a0165f00b62fd51a1eada54162f183b44ca1f8cce40600000000fdffffff02a4222c0000000000160014d2296af8e0f94581e10ec856e674d8a4d00b599a7829000000000000160014b29ff7f8d89fc14e86eed11d57b98160cdae279702483045022100961d28dbc98ceaa18160d68375e9230edfc4d2a9983a2d0d7f37d033f0373b3f022045e082eafa90b401cc112e75da4d3cf74583dcf866f514bd8438bec1f72eb274012103a72fb9e7373923ea1296bb3caad17bd54448c3cc614075a61752400e0bdee84900000000"
}