{
  "txid": "c1aca44f3e3c6d52281dca6743d726d7b851e5556943ed12280ddf865222f75f",
  "version": 2,
  "locktime": 0,
  "vin": [
    {
      "txid": "061fddd49a0d550c95dd07e03f8ccabb388212e36ee6f40e6c2090dc878deb34",
      "vout": 1,
      "prevout": {
        "scriptpubkey": "512078a36020f0d21f3de371108c8f77241ae5c2811cf004f8320060241186bc1457",
        "scriptpubkey_asm": "OP_PUSHNUM_1 OP_PUSHBYTES_32 78a36020f0d21f3de371108c8f77241ae5c2811cf004f8320060241186bc1457",
        "scriptpubkey_type": "v1_p2tr",
        "scriptpubkey_address": "bc1p0z3kqg8s6g0nmcm3zzxg7aeyrtju9qgu7qz0svsqvqjprp4uz3ts3wplgt",
        "value": 2622
      },
      "scriptsig": "",
      "scriptsig_asm": "",
      "witness": [
        "c15f317eec0dbf1f323949dcc863439490ec6c05221ad5d2f12ba2732e07eb8ffbad278fcc47a308372f3ad3ed4b6c69af95786c9d98dd2f57ae3e8450b72609",
        "2030ac75c73bc28a5985c2973d6b98fad8b6cfc251792c66d1ee988dbece83fdb6ac0063036f7264010118746578742f706c61696e3b636861727365743d7574662d38004c867b2270223a22746170222c226f70223a22646d742d6d696e74222c22646570223a22333962373532343338626533613435326464623731376230613635346233313662316164343661383139656234343831383933626337313331663738396539616930222c227469636b223a226e61746f776c73222c22626c6b223a22343830353137227d68",
        "c030ac75c73bc28a5985c2973d6b98fad8b6cfc251792c66d1ee988dbece83fdb61fc1336a11544c4015af27ecd311e2108df2b9a4177a0ee172fc99d3456f2845"
      ],
      "is_coinbase": false,
      "sequence": 4294967293
    }
  ],
  "vout": [
    {
      "scriptpubkey": "5120407ce73505c7777e7685ae6d44dc916690e9998f4f5aed44697ab225d0a4670c",
      "scriptpubkey_asm": "OP_PUSHNUM_1 OP_PUSHBYTES_32 407ce73505c7777e7685ae6d44dc916690e9998f4f5aed44697ab225d0a4670c",
      "scriptpubkey_type": "v1_p2tr",
      "scriptpubkey_address": "bc1pgp7wwdg9camhua594ek5fhy3v6gwnxv0fadw63rf02ezt59yvuxqyddy5y",
      "value": 546
    }
  ],
  "size": 434,
  "weight": 716,
  "fee": 2076,
  "status": {
    "confirmed": true,
    "block_height": 834460,
    "block_hash": "00000000000000000000484a79b643b2524bbce82e5d8a442013fa5b8905ed98",
    "block_time": 1710307468
  },
  "hex": "0200000000010134eb8d87dc90206c0ef4e66ee3128238bbca8c3fe007dd950c550d9ad4dd1f060100000000fdffffff012202000000000000225120407ce73505c7777e7685ae6d44dc916690e9998f4f5aed44697ab225d0a4670c0340c15f317eec0dbf1f323949dcc863439490ec6c05221ad5d2f12ba2732e07eb8ffbad278fcc47a308372f3ad3ed4b6c69af95786c9d98dd2f57ae3e8450b72609cd2030ac75c73bc28a5985c2973d6b98fad8b6cfc251792c66d1ee988dbece83fdb6ac0063036f7264010118746578742f706c61696e3b636861727365743d7574662d38004c867b2270223a22746170222c226f70223a22646d742d6d696e74222c22646570223a22333962373532343338626533613435326464623731376230613635346233313662316164343661383139656234343831383933626337313331663738396539616930222c227469636b223a226e61746f776c73222c22626c6b223a22343830353137227d6841c030ac75c73bc28a5985c2973d6b98fad8b6cfc251792c66d1ee988dbece83fdb61fc1336a11544c4015af27ecd311e2108df2b9a4177a0ee172fc99d3456f284500000000"
}