{
  "txid": "c1afa9a8884350ec36f1ad5ebb15201ccddea7f17c0240d75e49e301cef3ced0",
  "version": 2,
  "locktime": 0,
  "vin": [
    {
      "txid": "c5c8f19178fed3ad166d0a6be48695a10ee173c590f72e54e501da7189ccec7f",
      "vout": 6,
      "prevout": {
        "scriptpubkey": "5120ac72fb028349f8fbf7a23633883c1c7b0c21acfdcb8edefcfa02269699dc8f2d",
        "scriptpubkey_asm": "OP_PUSHNUM_1 OP_PUSHBYTES_32 ac72fb028349f8fbf7a23633883c1c7b0c21acfdcb8edefcfa02269699dc8f2d",
        "scriptpubkey_type": "v1_p2tr",
        "scriptpubkey_address": "bc1p43e0kq5rf8u0haazxcecs0qu0vxzrt8aew8dal86qgnfdxwu3uksxr7cpz",
        "value": 2586
      },
      "scriptsig": "",
      "scriptsig_asm": "",
      "witness": [
        "0da2389a386aa9517d6a38024fa5085d0dffa4e7a2ec02ece9105cc2e72e11cfee7b0058db499593c0a432844ecd98dd44b7917d7626c164b32d7fdcb02e27bf",
        "20efdf21fabcbbda63732e380c9cb64331690c0dec8e192552cf9d31f786755532ac0063036f7264010118746578742f706c61696e3b636861727365743d7574662d38004c827b2270223a22746170222c226f70223a22646d742d6d696e74222c22646570223a22303238313934396339656438363764633061323338346636303239623438633766333032663831613163333162653763363030306333636439626135616435656930222c227469636b223a22626268222c22626c6b223a22383334343433227d68",
        "c1efdf21fabcbbda63732e380c9cb64331690c0dec8e192552cf9d31f786755532"
      ],
      "is_coinbase": false,
      "sequence": 4294967293
    }
  ],
  "vout": [
    {
      "scriptpubkey": "5120343476391501163ffc69f78bf5566876e8cc2b880ae6b0093327194a6c7b04b5",
      "scriptpubkey_asm": "OP_PUSHNUM_1 OP_PUSHBYTES_32 343476391501163ffc69f78bf5566876e8cc2b880ae6b0093327194a6c7b04b5",
      "scriptpubkey_type": "v1_p2tr",
      "scriptpubkey_address": "bc1pxs68vwg4qytrllrf779l24ngwm5vc2ugptntqzfnyuv55mrmqj6sgcwchg",
      "value": 546
    }
  ],
  "size": 398,
  "weight": 680,
  "fee": 2040,
  "status": {
    "confirmed": true,
    "block_height": 834460,
    "block_hash": "00000000000000000000484a79b643b2524bbce82e5d8a442013fa5b8905ed98",
    "block_time": 1710307468
  },
  "hex": "020000000001017feccc8971da01e5542ef790c573e10ea19586e46b0a6d16add3fe7891f1c8c50600000000fdffffff012202000000000000225120343476391501163ffc69f78bf5566876e8cc2b880ae6b0093327194a6c7b04b503400da2389a386aa9517d6a38024fa5085d0dffa4e7a2ec02ece9105cc2e72e11cfee7b0058db499593c0a432844ecd98dd44b7917d7626c164b32d7fdcb02e27bfc920efdf21fabcbbda63732e380c9cb64331690c0dec8e192552cf9d31f786755532ac0063036f7264010118746578742f706c61696e3b636861727365743d7574662d38004c827b2270223a22746170222c226f70223a22646d742d6d696e74222c22646570223a22303238313934396339656438363764633061323338346636303239623438633766333032663831613163333162653763363030306333636439626135616435656930222c227469636b223a22626268222c22626c6b223a22383334343433227d6821c1efdf21fabcbbda63732e380c9cb64331690c0dec8e192552cf9d31f78675553200000000"
}