{
  "txid": "c1c0e93e54663673f53a4e774d8d6b6d79199d1300731ee2250fe6cdac5cb368",
  "version": 2,
  "locktime": 0,
  "vin": [
    {
      "txid": "bffbef89c612699ae5ba166f3abf95322399da384b2bad64ac75575c95de9dbb",
      "vout": 1,
      "prevout": {
        "scriptpubkey": "00147a59b5946c666f24a25eb33cdec66bc8ac3f76a3",
        "scriptpubkey_asm": "OP_0 OP_PUSHBYTES_20 7a59b5946c666f24a25eb33cdec66bc8ac3f76a3",
        "scriptpubkey_type": "v0_p2wpkh",
        "scriptpubkey_address": "bc1q0fvmt9rvvehjfgj7kv7da3ntezkr7a4rkxxexg",
        "value": 20445086
      },
      "scriptsig": "",
      "scriptsig_asm": "",
      "witness": [
        "304402207c5338b814d4c6a060adde34e63e7161a50f87da2cef4bf22a1c72f9f62e18c502203f4d02ed772b763ea6bbfc490d6a7d97757643e093f660acfd9aea129317356001",
        "020dcbd7e04add96049680980830e261caced605f1d510cf6d3ff6be8d632d8b74"
      ],
      "is_coinbase": false,
      "sequence": 4294967295
    }
  ],
  "vout": [
    {
      "scriptpubkey": "00147a59b5946c666f24a25eb33cdec66bc8ac3f76a3",
      "scriptpubkey_asm": "OP_0 OP_PUSHBYTES_20 7a59b5946c666f24a25eb33cdec66bc8ac3f76a3",
      "scriptpubkey_type": "v0_p2wpkh",
      "scriptpubkey_address": "bc1q0fvmt9rvvehjfgj7kv7da3ntezkr7a4rkxxexg",
      "value": 19442354
    },
    {
      "scriptpubkey": "0014cb6289259cbb8faafa7a788103d181fee668fc88",
      "scriptpubkey_asm": "OP_0 OP_PUSHBYTES_20 cb6289259cbb8faafa7a788103d181fee668fc88",
      "scriptpubkey_type": "v0_p2wpkh",
      "scriptpubkey_address": "bc1qed3gjfvuhw8647n60zqs85vplmnx3lygpfg2mh",
      "value": 1000000
    }
  ],
  "size": 222,
  "weight": 561,
  "fee": 2732,
  "status": {
    "confirmed": true,
    "block_height": 834638,
    "block_hash": "000000000000000000025f742c626208ac87e0b7d15054abb4a19ca2d735a54e",
    "block_time": 1710405325
  },
  "hex": "02000000000101bb9dde955c5775ac64ad2b4b38da99233295bf3a6f16bae59a6912c689effbbf0100000000ffffffff02b2aa2801000000001600147a59b5946c666f24a25eb33cdec66bc8ac3f76a340420f0000000000160014cb6289259cbb8faafa7a788103d181fee668fc880247304402207c5338b814d4c6a060adde34e63e7161a50f87da2cef4bf22a1c72f9f62e18c502203f4d02ed772b763ea6bbfc490d6a7d97757643e093f660acfd9aea12931735600121020dcbd7e04add96049680980830e261caced605f1d510cf6d3ff6be8d632d8b7400000000"
}