{
  "txid": "c1da40532a16412890aa0d3d1be8e293a5abc073881ef11ca3d73afb78ba675d",
  "version": 2,
  "locktime": 0,
  "vin": [
    {
      "txid": "148cdc36716a1ce6b360bed5d8c384d4f55c2d7725bbf82264ce760eae5165d5",
      "vout": 0,
      "prevout": {
        "scriptpubkey": "5120c00f04df9f0e816f9c98ff32b0871a9f1695b3eb0de79a71effae8d6b04b45c3",
        "scriptpubkey_asm": "OP_PUSHNUM_1 OP_PUSHBYTES_32 c00f04df9f0e816f9c98ff32b0871a9f1695b3eb0de79a71effae8d6b04b45c3",
        "scriptpubkey_type": "v1_p2tr",
        "scriptpubkey_address": "bc1pcq8sfhulp6qkl8ycluetppc6nutftvltphne5u00lt5ddvztghps9kzh9t",
        "value": 250000
      },
      "scriptsig": "",
      "scriptsig_asm": "",
      "witness": [
        "c081cadbc3bcea334f7a07224a4c185bc2eff419906e09c3efe936d41298f2511bc723d5bb394359c0c46f0b733385af17e5a7d2dda4235078615ad0a4dcf914"
      ],
      "is_coinbase": false,
      "sequence": 4294967295
    }
  ],
  "vout": [
    {
      "scriptpubkey": "76a914d334967b3e4d0cc2545f7d0fb71000b5ca61a4fc88ac",
      "scriptpubkey_asm": "OP_DUP OP_HASH160 OP_PUSHBYTES_20 d334967b3e4d0cc2545f7d0fb71000b5ca61a4fc OP_EQUALVERIFY OP_CHECKSIG",
      "scriptpubkey_type": "p2pkh",
      "scriptpubkey_address": "1LFkaLq4VePKTNdySsgqgitaT1CNaHUgKC",
      "value": 248470
    }
  ],
  "size": 153,
  "weight": 408,
  "fee": 1530,
  "status": {
    "confirmed": true,
    "block_height": 834638,
    "block_hash": "000000000000000000025f742c626208ac87e0b7d15054abb4a19ca2d735a54e",
    "block_time": 1710405325
  },
  "hex": "02000000000101d56551ae0e76ce6422f8bb25772d5cf5d484c3d8d5be60b3e61c6a7136dc8c140000000000ffffffff0196ca0300000000001976a914d334967b3e4d0cc2545f7d0fb71000b5ca61a4fc88ac0140c081cadbc3bcea334f7a07224a4c185bc2eff419906e09c3efe936d41298f2511bc723d5bb394359c0c46f0b733385af17e5a7d2dda4235078615ad0a4dcf91400000000"
}