{
  "txid": "c1eb971113b9fac237f9f1d9736ce083dc203bf35274c1b8b7493b66612a39f1",
  "version": 1,
  "locktime": 0,
  "vin": [
    {
      "txid": "535c5fb667ab6a32f18722bb653c4afbc5911e75ecefa25760c0d2774d4c9796",
      "vout": 0,
      "prevout": {
        "scriptpubkey": "00146a49983aca899fc190a5a8469e1369ca5ae06fe4",
        "scriptpubkey_asm": "OP_0 OP_PUSHBYTES_20 6a49983aca899fc190a5a8469e1369ca5ae06fe4",
        "scriptpubkey_type": "v0_p2wpkh",
        "scriptpubkey_address": "bc1qdfyeswk23x0ury994prfuymfefdwqmlyamzgjg",
        "value": 24802
      },
      "scriptsig": "",
      "scriptsig_asm": "",
      "witness": [
        "3044022039a917dc00072a4da4a83cc203cb8103b8e2035072d3a927f739d9c4f7958075022011cf84440f55b89d8cbf5fe5127b6bc3d91e4e2b651370dc0f1cda5ccfc43f9601",
        "02802b1fd795be9a9b704976ba0372663569953b719292e7ef18b5764d5332cf0c"
      ],
      "is_coinbase": false,
      "sequence": 4294967293
    }
  ],
  "vout": [
    {
      "scriptpubkey": "00146a49983aca899fc190a5a8469e1369ca5ae06fe4",
      "scriptpubkey_asm": "OP_0 OP_PUSHBYTES_20 6a49983aca899fc190a5a8469e1369ca5ae06fe4",
      "scriptpubkey_type": "v0_p2wpkh",
      "scriptpubkey_address": "bc1qdfyeswk23x0ury994prfuymfefdwqmlyamzgjg",
      "value": 23482
    }
  ],
  "size": 191,
  "weight": 437,
  "fee": 1320,
  "status": {
    "confirmed": true,
    "block_height": 834460,
    "block_hash": "00000000000000000000484a79b643b2524bbce82e5d8a442013fa5b8905ed98",
    "block_time": 1710307468
  },
  "hex": "0100000000010196974c4d77d2c06057a2efec751e91c5fb4a3c65bb2287f1326aab67b65f5c530000000000fdffffff01ba5b0000000000001600146a49983aca899fc190a5a8469e1369ca5ae06fe402473044022039a917dc00072a4da4a83cc203cb8103b8e2035072d3a927f739d9c4f7958075022011cf84440f55b89d8cbf5fe5127b6bc3d91e4e2b651370dc0f1cda5ccfc43f96012102802b1fd795be9a9b704976ba0372663569953b719292e7ef18b5764d5332cf0c00000000"
}