{
  "txid": "c1ec95bde4686e2705aab12440f1bbb594ed37e7fb3467f280ab6d4851009334",
  "version": 1,
  "locktime": 0,
  "vin": [
    {
      "txid": "c66c396158fe4995623bc4459a7cdc8ee368f794e5064092d76393da9ff2b983",
      "vout": 1,
      "prevout": {
        "scriptpubkey": "0014f155d2c972362c730b3300ea5f72c7d097678812",
        "scriptpubkey_asm": "OP_0 OP_PUSHBYTES_20 f155d2c972362c730b3300ea5f72c7d097678812",
        "scriptpubkey_type": "v0_p2wpkh",
        "scriptpubkey_address": "bc1q792a9jtjxck8xzenqr497uk86ztk0zqjsgvtdx",
        "value": 245062
      },
      "scriptsig": "",
      "scriptsig_asm": "",
      "witness": [
        "3045022100d6acd9f33b0415d9d1ed87940f57fce3db7ec892f04e2a906ed66ced54c4c2dd02207e9e238e83b0286a409122ba929ee700ed7e1aa2ea7b2247789697f60a168f4a01",
        "02e177b455ede82713a5c8d0e6bc4981d3a3b35a79de5838ccc04924c644d0668a"
      ],
      "is_coinbase": false,
      "sequence": 4294967295
    }
  ],
  "vout": [
    {
      "scriptpubkey": "76a914fd1a7afc96c4b7fdf5f1a32bbcf0ebf108feb57688ac",
      "scriptpubkey_asm": "OP_DUP OP_HASH160 OP_PUSHBYTES_20 fd1a7afc96c4b7fdf5f1a32bbcf0ebf108feb576 OP_EQUALVERIFY OP_CHECKSIG",
      "scriptpubkey_type": "p2pkh",
      "scriptpubkey_address": "1Q5HgRdhrcW1xTya8JayuRwGVchncmzViC",
      "value": 206000
    },
    {
      "scriptpubkey": "0014f155d2c972362c730b3300ea5f72c7d097678812",
      "scriptpubkey_asm": "OP_0 OP_PUSHBYTES_20 f155d2c972362c730b3300ea5f72c7d097678812",
      "scriptpubkey_type": "v0_p2wpkh",
      "scriptpubkey_address": "bc1q792a9jtjxck8xzenqr497uk86ztk0zqjsgvtdx",
      "value": 35174
    }
  ],
  "size": 226,
  "weight": 574,
  "fee": 3888,
  "status": {
    "confirmed": true,
    "block_height": 834638,
    "block_hash": "000000000000000000025f742c626208ac87e0b7d15054abb4a19ca2d735a54e",
    "block_time": 1710405325
  },
  "hex": "0100000000010183b9f29fda9363d7924006e594f768e38edc7c9a45c43b629549fe5861396cc60100000000ffffffff02b0240300000000001976a914fd1a7afc96c4b7fdf5f1a32bbcf0ebf108feb57688ac6689000000000000160014f155d2c972362c730b3300ea5f72c7d09767881202483045022100d6acd9f33b0415d9d1ed87940f57fce3db7ec892f04e2a906ed66ced54c4c2dd02207e9e238e83b0286a409122ba929ee700ed7e1aa2ea7b2247789697f60a168f4a012102e177b455ede82713a5c8d0e6bc4981d3a3b35a79de5838ccc04924c644d0668a00000000"
}