{
  "txid": "c1f3a2105903fec9ec5fa2424dcb6fb17c84eb9d28517d4ac8790d0a13c6c246",
  "version": 2,
  "locktime": 0,
  "vin": [
    {
      "txid": "acc3ba00869acb582a3f2904ce3a11dd3779350ce234063fc7d0959246213364",
      "vout": 296,
      "prevout": {
        "scriptpubkey": "51208100edb8c66eb9cbe3e80ffec713878d81726e810097835d9a60abfdc05fb51d",
        "scriptpubkey_asm": "OP_PUSHNUM_1 OP_PUSHBYTES_32 8100edb8c66eb9cbe3e80ffec713878d81726e810097835d9a60abfdc05fb51d",
        "scriptpubkey_type": "v1_p2tr",
        "scriptpubkey_address": "bc1psyqwmwxxd6uuhclgpllvwyu83kqhym5pqztcxhv6vz4lmszlk5ws975hme",
        "value": 1806
      },
      "scriptsig": "",
      "scriptsig_asm": "",
      "witness": [
        "80b65083cc167aaddbb83b7628177cab61e03b6de4d733d05f3a23cfaacfaafce6f9174c17ad0527bbbc5d77b71bfaec6697b419175f7bd6037c42b4446c027f",
        "2064081f38d31bffdd2c601c5ee24633d37b81c5f899e64c38106cfd6508b7f5e5ac0063036f726401010a746578742f706c61696e00357b2270223a226272632d3230222c226f70223a226d696e74222c227469636b223a22646f6765222c22616d74223a2234323030227d68",
        "c064081f38d31bffdd2c601c5ee24633d37b81c5f899e64c38106cfd6508b7f5e5"
      ],
      "is_coinbase": false,
      "sequence": 4261412863
    }
  ],
  "vout": [
    {
      "scriptpubkey": "00147a665de7a370f4c9b372ab1fae587500a5bcbdb4",
      "scriptpubkey_asm": "OP_0 OP_PUSHBYTES_20 7a665de7a370f4c9b372ab1fae587500a5bcbdb4",
      "scriptpubkey_type": "v0_p2wpkh",
      "scriptpubkey_address": "bc1q0fn9mearwr6vnvmj4v06ukr4qzjme0d565dzcx",
      "value": 294
    }
  ],
  "size": 294,
  "weight": 540,
  "fee": 1512,
  "status": {
    "confirmed": true,
    "block_height": 834460,
    "block_hash": "00000000000000000000484a79b643b2524bbce82e5d8a442013fa5b8905ed98",
    "block_time": 1710307468
  },
  "hex": "02000000000101643321469295d0c73f0634e20c357937dd113ace04293f2a58cb9a8600bac3ac2801000000fffffffd0126010000000000001600147a665de7a370f4c9b372ab1fae587500a5bcbdb4034080b65083cc167aaddbb83b7628177cab61e03b6de4d733d05f3a23cfaacfaafce6f9174c17ad0527bbbc5d77b71bfaec6697b419175f7bd6037c42b4446c027f6d2064081f38d31bffdd2c601c5ee24633d37b81c5f899e64c38106cfd6508b7f5e5ac0063036f726401010a746578742f706c61696e00357b2270223a226272632d3230222c226f70223a226d696e74222c227469636b223a22646f6765222c22616d74223a2234323030227d6821c064081f38d31bffdd2c601c5ee24633d37b81c5f899e64c38106cfd6508b7f5e500000000"
}