{
  "txid": "c1f4b1453ee08b1fa1ce45e5b3167a1e0853493041fa1837de255ef4810acd2c",
  "version": 1,
  "locktime": 0,
  "vin": [
    {
      "txid": "034e7a277a94931ab18e21ddf10afd086fecc15adf1603910b302f0fa3b559b5",
      "vout": 0,
      "prevout": {
        "scriptpubkey": "5120c63e3f3f73c321879bc520a715314239fd2fd71f7d53f1f60abe1aeceb470aef",
        "scriptpubkey_asm": "OP_PUSHNUM_1 OP_PUSHBYTES_32 c63e3f3f73c321879bc520a715314239fd2fd71f7d53f1f60abe1aeceb470aef",
        "scriptpubkey_type": "v1_p2tr",
        "scriptpubkey_address": "bc1pcclr70mncvsc0x79yzn32v2z887jl4cl04flras2hcdwe668pthsu3as3c",
        "value": 2431
      },
      "scriptsig": "",
      "scriptsig_asm": "",
      "witness": [
        "4d900f4a91c286368dbd6d23a2db2cb687883b6c4589f9f69afe63bfb1359730155f7a075af23f324a18c114a3d9f8f9038c1ea1f0e2e77525406bb84fb800fc",
        "202b304a1489c771913d0291a3a11cffd7e454e57eb0f5a51d68fe50d1a31e79dcac0063036f7264010118746578742f706c61696e3b636861727365743d7574662d38003b7b2270223a226272632d3230222c226f70223a227472616e73666572222c227469636b223a22696e6473222c22616d74223a22313530303030227d68",
        "c02b304a1489c771913d0291a3a11cffd7e454e57eb0f5a51d68fe50d1a31e79dc"
      ],
      "is_coinbase": false,
      "sequence": 4294967293
    }
  ],
  "vout": [
    {
      "scriptpubkey": "00149d746b894b461750a04a10135c923c0bebf19f30",
      "scriptpubkey_asm": "OP_0 OP_PUSHBYTES_20 9d746b894b461750a04a10135c923c0bebf19f30",
      "scriptpubkey_type": "v0_p2wpkh",
      "scriptpubkey_address": "bc1qn46xhz2tgct4pgz2zqf4ey3up04lr8es0lcm9z",
      "value": 546
    }
  ],
  "size": 314,
  "weight": 560,
  "fee": 1885,
  "status": {
    "confirmed": true,
    "block_height": 834460,
    "block_hash": "00000000000000000000484a79b643b2524bbce82e5d8a442013fa5b8905ed98",
    "block_time": 1710307468
  },
  "hex": "01000000000101b559b5a30f2f300b910316df5ac1ec6f08fd0af1dd218eb11a93947a277a4e030000000000fdffffff0122020000000000001600149d746b894b461750a04a10135c923c0bebf19f3003404d900f4a91c286368dbd6d23a2db2cb687883b6c4589f9f69afe63bfb1359730155f7a075af23f324a18c114a3d9f8f9038c1ea1f0e2e77525406bb84fb800fc81202b304a1489c771913d0291a3a11cffd7e454e57eb0f5a51d68fe50d1a31e79dcac0063036f7264010118746578742f706c61696e3b636861727365743d7574662d38003b7b2270223a226272632d3230222c226f70223a227472616e73666572222c227469636b223a22696e6473222c22616d74223a22313530303030227d6821c02b304a1489c771913d0291a3a11cffd7e454e57eb0f5a51d68fe50d1a31e79dc00000000"
}