{
  "txid": "c201290dd26f08fd27e08d78db982ab5f71ec12109f6c9308a09be0ac5db89cb",
  "version": 2,
  "locktime": 0,
  "vin": [
    {
      "txid": "56d47d293e7b4e367125351dfcecd0b6731d5d1a57169a2cf32a17b26685003c",
      "vout": 1,
      "prevout": {
        "scriptpubkey": "a91448420aa8a3a45114def3ca845522116a2fde2ccc87",
        "scriptpubkey_asm": "OP_HASH160 OP_PUSHBYTES_20 48420aa8a3a45114def3ca845522116a2fde2ccc OP_EQUAL",
        "scriptpubkey_type": "p2sh",
        "scriptpubkey_address": "38H5h1TzGM5J5GWLxG1Py8dbDeL7pbwpYa",
        "value": 142318
      },
      "scriptsig": "160014a962b1b69380de037846e608d4628cd8116f8132",
      "scriptsig_asm": "OP_PUSHBYTES_22 0014a962b1b69380de037846e608d4628cd8116f8132",
      "witness": [
        "3044022068db9c3dbfa576a58e108b111075d12f5055038f3a1e71cc27f09a8e9e98f05b022029f5f72796751a99d3e170f3463146635ae56b4113c6f4fbf4885639583fa86c01",
        "02b38e0a215f1f4a2a32b6326cef6c51cef2101c2dc3f5025ec5600ae9aff68dda"
      ],
      "is_coinbase": false,
      "sequence": 4294967293,
      "inner_redeemscript_asm": "OP_0 OP_PUSHBYTES_20 a962b1b69380de037846e608d4628cd8116f8132"
    }
  ],
  "vout": [
    {
      "scriptpubkey": "5120400784ab7050a09835e3455c855eb9efefed1c29883d3c18fff7e8aa2fc50b29",
      "scriptpubkey_asm": "OP_PUSHNUM_1 OP_PUSHBYTES_32 400784ab7050a09835e3455c855eb9efefed1c29883d3c18fff7e8aa2fc50b29",
      "scriptpubkey_type": "v1_p2tr",
      "scriptpubkey_address": "bc1pgqrcf2ms2zsfsd0rg4wg2h4ealh768pf3q7ncx8l7l525t79pv5sgsu8pu",
      "value": 27469
    },
    {
      "scriptpubkey": "a91448420aa8a3a45114def3ca845522116a2fde2ccc87",
      "scriptpubkey_asm": "OP_HASH160 OP_PUSHBYTES_20 48420aa8a3a45114def3ca845522116a2fde2ccc OP_EQUAL",
      "scriptpubkey_type": "p2sh",
      "scriptpubkey_address": "38H5h1TzGM5J5GWLxG1Py8dbDeL7pbwpYa",
      "value": 112902
    }
  ],
  "size": 258,
  "weight": 705,
  "fee": 1947,
  "status": {
    "confirmed": true,
    "block_height": 834464,
    "block_hash": "0000000000000000000177a0869a911a2b65c9bdcd5a8bcb02b68f305bee848e",
    "block_time": 1710308296
  },
  "hex": "020000000001013c008566b2172af32c9a16571a5d1d73b6d0ecfc1d352571364e7b3e297dd4560100000017160014a962b1b69380de037846e608d4628cd8116f8132fdffffff024d6b000000000000225120400784ab7050a09835e3455c855eb9efefed1c29883d3c18fff7e8aa2fc50b2906b901000000000017a91448420aa8a3a45114def3ca845522116a2fde2ccc8702473044022068db9c3dbfa576a58e108b111075d12f5055038f3a1e71cc27f09a8e9e98f05b022029f5f72796751a99d3e170f3463146635ae56b4113c6f4fbf4885639583fa86c012102b38e0a215f1f4a2a32b6326cef6c51cef2101c2dc3f5025ec5600ae9aff68dda00000000"
}