{
  "txid": "c20de979128acb6246d620475355ef5d3f678a171e81c67defb87a55292d6a32",
  "version": 2,
  "locktime": 0,
  "vin": [
    {
      "txid": "1bbb3ec2ffd158f573a48dac6c1481c7c3e9f12a4c341d5cb1cd9b8ee660be27",
      "vout": 0,
      "prevout": {
        "scriptpubkey": "00146d119d75d5c326791bb612d7932f0541014b14f1",
        "scriptpubkey_asm": "OP_0 OP_PUSHBYTES_20 6d119d75d5c326791bb612d7932f0541014b14f1",
        "scriptpubkey_type": "v0_p2wpkh",
        "scriptpubkey_address": "bc1qd5ge6aw4cvn8jxakzttextc9gyq5k983hfulf9",
        "value": 10970854
      },
      "scriptsig": "",
      "scriptsig_asm": "",
      "witness": [
        "304402202234a2a5bd56728f9f31be879c41df87027338df955186eff02f44f40839f54602204053301c3c2b8862e1989d7dcb1b787802b189d943095e953edc50a05797a8f401",
        "028cba3e2811790a1de611be4fc049f6cb542bf2932bf822e044fe397234e1a5b1"
      ],
      "is_coinbase": false,
      "sequence": 4294967295
    }
  ],
  "vout": [
    {
      "scriptpubkey": "00144ffaa8f97980cd7aff9ac8df25f595bf5bdd205d",
      "scriptpubkey_asm": "OP_0 OP_PUSHBYTES_20 4ffaa8f97980cd7aff9ac8df25f595bf5bdd205d",
      "scriptpubkey_type": "v0_p2wpkh",
      "scriptpubkey_address": "bc1qfla237tesrxh4lu6er0jtav4hada6gzaulkern",
      "value": 40076
    },
    {
      "scriptpubkey": "0014822032ec948584ded522a8462533db6503ca741c",
      "scriptpubkey_asm": "OP_0 OP_PUSHBYTES_20 822032ec948584ded522a8462533db6503ca741c",
      "scriptpubkey_type": "v0_p2wpkh",
      "scriptpubkey_address": "bc1qsgsr9my5skzda4fz4prz2v7mv5pu5aqu5gjgu2",
      "value": 10923803
    }
  ],
  "size": 222,
  "weight": 561,
  "fee": 6975,
  "status": {
    "confirmed": true,
    "block_height": 834638,
    "block_hash": "000000000000000000025f742c626208ac87e0b7d15054abb4a19ca2d735a54e",
    "block_time": 1710405325
  },
  "hex": "0200000000010127be60e68e9bcdb15c1d344c2af1e9c3c781146cac8da473f558d1ffc23ebb1b0000000000ffffffff028c9c0000000000001600144ffaa8f97980cd7aff9ac8df25f595bf5bdd205d1bafa60000000000160014822032ec948584ded522a8462533db6503ca741c0247304402202234a2a5bd56728f9f31be879c41df87027338df955186eff02f44f40839f54602204053301c3c2b8862e1989d7dcb1b787802b189d943095e953edc50a05797a8f40121028cba3e2811790a1de611be4fc049f6cb542bf2932bf822e044fe397234e1a5b100000000"
}