{
  "txid": "c212dc36443128a8a0953331a8eb655d5d8fc9213781550db63ab7443cbaf1e2",
  "version": 2,
  "locktime": 0,
  "vin": [
    {
      "txid": "a709db0195c1a72fca9a793249079634975325f5e219bca6527dec1a064e1ba3",
      "vout": 0,
      "prevout": {
        "scriptpubkey": "512094c5cbdaf491fad25487d88a200a7d414cb928522b3b1da8e952a600f93cba98",
        "scriptpubkey_asm": "OP_PUSHNUM_1 OP_PUSHBYTES_32 94c5cbdaf491fad25487d88a200a7d414cb928522b3b1da8e952a600f93cba98",
        "scriptpubkey_type": "v1_p2tr",
        "scriptpubkey_address": "bc1pjnzuhkh5j8ady4y8mz9zqznag9xtj2zj9va3m28f22nqp7fuh2vqxaelva",
        "value": 2826
      },
      "scriptsig": "",
      "scriptsig_asm": "",
      "witness": [
        "35af6176a33ed9057668a72a93733d1bb6ed43bac5921d154472b03804144c4280fddc9e6b34f5029b443664e25334427ae63195f9827d59d4062b3c06b608a3",
        "20cc23153977a487935e6b3c85d14d45f473dd6bf2e5b84898fa60dbb39b31478cac0063036f7264010118746578742f706c61696e3b636861727365743d7574662d3800387b2270223a226272632d3230222c226f70223a227472616e73666572222c227469636b223a225a455445222c22616d74223a22393031227d68",
        "c0cc23153977a487935e6b3c85d14d45f473dd6bf2e5b84898fa60dbb39b31478c"
      ],
      "is_coinbase": false,
      "sequence": 4294967293
    }
  ],
  "vout": [
    {
      "scriptpubkey": "5120decb7196b65261495004a2e8d93ef51746686d19f73e30d457ad71fa61768b4c",
      "scriptpubkey_asm": "OP_PUSHNUM_1 OP_PUSHBYTES_32 decb7196b65261495004a2e8d93ef51746686d19f73e30d457ad71fa61768b4c",
      "scriptpubkey_type": "v1_p2tr",
      "scriptpubkey_address": "bc1pmm9hr94k2fs5j5qy5t5dj0h4zarxsmge7ulrp4zh44cl5ctk3dxqf40hf8",
      "value": 546
    }
  ],
  "size": 323,
  "weight": 605,
  "fee": 2280,
  "status": {
    "confirmed": true,
    "block_height": 834638,
    "block_hash": "000000000000000000025f742c626208ac87e0b7d15054abb4a19ca2d735a54e",
    "block_time": 1710405325
  },
  "hex": "02000000000101a31b4e061aec7d52a6bc19e2f52553973496074932799aca2fa7c19501db09a70000000000fdffffff012202000000000000225120decb7196b65261495004a2e8d93ef51746686d19f73e30d457ad71fa61768b4c034035af6176a33ed9057668a72a93733d1bb6ed43bac5921d154472b03804144c4280fddc9e6b34f5029b443664e25334427ae63195f9827d59d4062b3c06b608a37e20cc23153977a487935e6b3c85d14d45f473dd6bf2e5b84898fa60dbb39b31478cac0063036f7264010118746578742f706c61696e3b636861727365743d7574662d3800387b2270223a226272632d3230222c226f70223a227472616e73666572222c227469636b223a225a455445222c22616d74223a22393031227d6821c0cc23153977a487935e6b3c85d14d45f473dd6bf2e5b84898fa60dbb39b31478c00000000"
}