{
  "txid": "c2151d35cc52cda5650f18e7b0a72987f063ca94d8b749c8fc82cc884007853f",
  "version": 2,
  "locktime": 0,
  "vin": [
    {
      "txid": "7b7598fc03e91989ad88fe03ec18b2e5a52f5a496a8f2bcd04c83952d775f9de",
      "vout": 2,
      "prevout": {
        "scriptpubkey": "0014a254da759284926c67611e35588faaeb8b45d24f",
        "scriptpubkey_asm": "OP_0 OP_PUSHBYTES_20 a254da759284926c67611e35588faaeb8b45d24f",
        "scriptpubkey_type": "v0_p2wpkh",
        "scriptpubkey_address": "bc1q5f2d5avjsjfxcemprc643ra2aw95t5j0556vtr",
        "value": 5242652
      },
      "scriptsig": "",
      "scriptsig_asm": "",
      "witness": [
        "304402202e12cb43a636472ccfdfe642958504620333df604ce3cd7cb45cb1f98890c82402206116fd8cf1a3c528a506c4891abfba1e7cee32b4bcaca494ca07bd9b6ec64d6901",
        "03cc4a157e25cb6733aad0a6d7b66bf3e768cfd7e3291e14971da77e92ef0d16ff"
      ],
      "is_coinbase": false,
      "sequence": 4294967295
    }
  ],
  "vout": [
    {
      "scriptpubkey": "0014a254da759284926c67611e35588faaeb8b45d24f",
      "scriptpubkey_asm": "OP_0 OP_PUSHBYTES_20 a254da759284926c67611e35588faaeb8b45d24f",
      "scriptpubkey_type": "v0_p2wpkh",
      "scriptpubkey_address": "bc1q5f2d5avjsjfxcemprc643ra2aw95t5j0556vtr",
      "value": 4281041
    },
    {
      "scriptpubkey": "0014e09973b2007a2482994fbf93961b20b5d022ec9a",
      "scriptpubkey_asm": "OP_0 OP_PUSHBYTES_20 e09973b2007a2482994fbf93961b20b5d022ec9a",
      "scriptpubkey_type": "v0_p2wpkh",
      "scriptpubkey_address": "bc1quzvh8vsq0gjg9x20h7fevxeqkhgz9my6jzqn6p",
      "value": 959683
    }
  ],
  "size": 222,
  "weight": 561,
  "fee": 1928,
  "status": {
    "confirmed": true,
    "block_height": 834638,
    "block_hash": "000000000000000000025f742c626208ac87e0b7d15054abb4a19ca2d735a54e",
    "block_time": 1710405325
  },
  "hex": "02000000000101def975d75239c804cd2b8f6a495a2fa5e5b218ec03fe88ad8919e903fc98757b0200000000ffffffff02d152410000000000160014a254da759284926c67611e35588faaeb8b45d24fc3a40e0000000000160014e09973b2007a2482994fbf93961b20b5d022ec9a0247304402202e12cb43a636472ccfdfe642958504620333df604ce3cd7cb45cb1f98890c82402206116fd8cf1a3c528a506c4891abfba1e7cee32b4bcaca494ca07bd9b6ec64d69012103cc4a157e25cb6733aad0a6d7b66bf3e768cfd7e3291e14971da77e92ef0d16ff00000000"
}