{
  "txid": "c22aeff2e48460b609c1d0623af2e8b484de0fb8beaba8ad374e235ccc70c8af",
  "version": 1,
  "locktime": 0,
  "vin": [
    {
      "txid": "ec0875c119b48fc47d1337e7dc13abb04ac797de9b705dfd31f3e6efd59fef05",
      "vout": 1,
      "prevout": {
        "scriptpubkey": "001448721845d8d8ad552aecdd259053f9fcc1f10a72",
        "scriptpubkey_asm": "OP_0 OP_PUSHBYTES_20 48721845d8d8ad552aecdd259053f9fcc1f10a72",
        "scriptpubkey_type": "v0_p2wpkh",
        "scriptpubkey_address": "bc1qfpeps3wcmzk422hvm5jeq5lelnqlzznjwyfy69",
        "value": 11138321105
      },
      "scriptsig": "",
      "scriptsig_asm": "",
      "witness": [
        "304402200221394791fab51ba81499b07e0adc2f30a4e6fb2a353ac43f13f73e8314f4e0022010d35e4e6080b65a595503737c25a96d226c228db5eb85fce215c7406a0587fb01",
        "02dc8683704adb6dbea6d1e0bb392ab45b57dcc9c5f919b7d59389fdd9fb096f25"
      ],
      "is_coinbase": false,
      "sequence": 4294967295
    }
  ],
  "vout": [
    {
      "scriptpubkey": "0014d48ce8e4b35a71fea205f1b8935038e664fb1fc6",
      "scriptpubkey_asm": "OP_0 OP_PUSHBYTES_20 d48ce8e4b35a71fea205f1b8935038e664fb1fc6",
      "scriptpubkey_type": "v0_p2wpkh",
      "scriptpubkey_address": "bc1q6jxw3e9ntfclags97xufx5pcuej0k87xj7gu9p",
      "value": 149128
    },
    {
      "scriptpubkey": "001448721845d8d8ad552aecdd259053f9fcc1f10a72",
      "scriptpubkey_asm": "OP_0 OP_PUSHBYTES_20 48721845d8d8ad552aecdd259053f9fcc1f10a72",
      "scriptpubkey_type": "v0_p2wpkh",
      "scriptpubkey_address": "bc1qfpeps3wcmzk422hvm5jeq5lelnqlzznjwyfy69",
      "value": 11138169947
    }
  ],
  "size": 222,
  "weight": 561,
  "fee": 2030,
  "status": {
    "confirmed": true,
    "block_height": 834638,
    "block_hash": "000000000000000000025f742c626208ac87e0b7d15054abb4a19ca2d735a54e",
    "block_time": 1710405325
  },
  "hex": "0100000000010105ef9fd5efe6f331fd5d709bde97c74ab0ab13dce737137dc48fb419c17508ec0100000000ffffffff028846020000000000160014d48ce8e4b35a71fea205f1b8935038e664fb1fc65bfce2970200000016001448721845d8d8ad552aecdd259053f9fcc1f10a720247304402200221394791fab51ba81499b07e0adc2f30a4e6fb2a353ac43f13f73e8314f4e0022010d35e4e6080b65a595503737c25a96d226c228db5eb85fce215c7406a0587fb012102dc8683704adb6dbea6d1e0bb392ab45b57dcc9c5f919b7d59389fdd9fb096f2500000000"
}