{
  "txid": "c2432559e7a6d98f5973ada70913faddd976f702da2c051284bd9f7b5deb595a",
  "version": 2,
  "locktime": 0,
  "vin": [
    {
      "txid": "e2876912d7c4f91b1286661b46926e048435a379a17b3813c86a992a8d81f489",
      "vout": 0,
      "prevout": {
        "scriptpubkey": "5120c644f9224fca4f79f606803220fc73b96897a0350fbbbcfb9a0ed8ba1f87a505",
        "scriptpubkey_asm": "OP_PUSHNUM_1 OP_PUSHBYTES_32 c644f9224fca4f79f606803220fc73b96897a0350fbbbcfb9a0ed8ba1f87a505",
        "scriptpubkey_type": "v1_p2tr",
        "scriptpubkey_address": "bc1pcez0jgj0ef8hnasxsqezplrnh95f0gp4p7ame7u6pmvt58u855zs8m3rlr",
        "value": 2841
      },
      "scriptsig": "",
      "scriptsig_asm": "",
      "witness": [
        "f255bb46f053b5fd82d833161c8741a348feadd1590b3f1d96a975ac2828c655b0b0f012d9c9faa772a8b59bfb483c65801160cfb92749d20d61e223e3c97e3f",
        "2079a5a2e38195f1c1bac96298f512823c93ab414f41e2c08b58e4a4af57476ee4ac0063036f7264010118746578742f706c61696e3b636861727365743d7574662d38003c7b2270223a226272632d3230222c226f70223a227472616e73666572222c227469636b223a2244524352222c22616d74223a2232303030303030227d68",
        "c079a5a2e38195f1c1bac96298f512823c93ab414f41e2c08b58e4a4af57476ee4"
      ],
      "is_coinbase": false,
      "sequence": 4294967293
    }
  ],
  "vout": [
    {
      "scriptpubkey": "5120a7aab72de1019a27eeec674fdbfea94d7b7e6f6787da121f59da8dad8b0bcbbb",
      "scriptpubkey_asm": "OP_PUSHNUM_1 OP_PUSHBYTES_32 a7aab72de1019a27eeec674fdbfea94d7b7e6f6787da121f59da8dad8b0bcbbb",
      "scriptpubkey_type": "v1_p2tr",
      "scriptpubkey_address": "bc1p574twt0pqxdz0mhvva8ahl4ff4ahumm8sldpy86em2x6mzctewas2v3nhu",
      "value": 546
    }
  ],
  "size": 327,
  "weight": 609,
  "fee": 2295,
  "status": {
    "confirmed": true,
    "block_height": 834638,
    "block_hash": "000000000000000000025f742c626208ac87e0b7d15054abb4a19ca2d735a54e",
    "block_time": 1710405325
  },
  "hex": "0200000000010189f4818d2a996ac813387ba179a33584046e92461b6686121bf9c4d7126987e20000000000fdffffff012202000000000000225120a7aab72de1019a27eeec674fdbfea94d7b7e6f6787da121f59da8dad8b0bcbbb0340f255bb46f053b5fd82d833161c8741a348feadd1590b3f1d96a975ac2828c655b0b0f012d9c9faa772a8b59bfb483c65801160cfb92749d20d61e223e3c97e3f822079a5a2e38195f1c1bac96298f512823c93ab414f41e2c08b58e4a4af57476ee4ac0063036f7264010118746578742f706c61696e3b636861727365743d7574662d38003c7b2270223a226272632d3230222c226f70223a227472616e73666572222c227469636b223a2244524352222c22616d74223a2232303030303030227d6821c079a5a2e38195f1c1bac96298f512823c93ab414f41e2c08b58e4a4af57476ee400000000"
}