{
  "txid": "c2539fcb4fea2efdb1b7459f3598115adfa5caffa1e91556d76b4d471aef8225",
  "version": 2,
  "locktime": 0,
  "vin": [
    {
      "txid": "17427404bfa931cc830db15bfdf6496afaaef006683394f811ea29a78857c5f5",
      "vout": 0,
      "prevout": {
        "scriptpubkey": "5120fd3d74489bf991abfc7bfc03a7a704d26d23c16583cf9bf750f785d46cae3adc",
        "scriptpubkey_asm": "OP_PUSHNUM_1 OP_PUSHBYTES_32 fd3d74489bf991abfc7bfc03a7a704d26d23c16583cf9bf750f785d46cae3adc",
        "scriptpubkey_type": "v1_p2tr",
        "scriptpubkey_address": "bc1pl57hgjymlxg6hlrmlsp60fcy6fkj8st9s08eha6s77zagm9w8twqgv6zck",
        "value": 2392
      },
      "scriptsig": "",
      "scriptsig_asm": "",
      "witness": [
        "fdcc032cdb6e1c19f66d2c441e52972fe99be821e1b63f6cb5ab7b1a783a1a8910489f5c792a9b1baa0f7636206e02d19180b2a34ac0992bd2a8b52f53691f2d",
        "202c797d0a24701a713333c91fb7369f8701b9076ade9398eae9af6ae3b0a59a46ac0063036f7264010118746578742f706c61696e3b636861727365743d7574662d3800417b2270223a226272632d3230222c226f70223a227472616e73666572222c227469636b223a2273626273222c22616d74223a22353030303030303030303030227d68",
        "c02c797d0a24701a713333c91fb7369f8701b9076ade9398eae9af6ae3b0a59a46"
      ],
      "is_coinbase": false,
      "sequence": 4294967293
    }
  ],
  "vout": [
    {
      "scriptpubkey": "001435bc30147ba7e9472d9986e32250bfade9e5222d",
      "scriptpubkey_asm": "OP_0 OP_PUSHBYTES_20 35bc30147ba7e9472d9986e32250bfade9e5222d",
      "scriptpubkey_type": "v0_p2wpkh",
      "scriptpubkey_address": "bc1qxk7rq9rm5l55wtvesm3jy59l4h572g3dh7znz7",
      "value": 546
    }
  ],
  "size": 320,
  "weight": 566,
  "fee": 1846,
  "status": {
    "confirmed": true,
    "block_height": 834460,
    "block_hash": "00000000000000000000484a79b643b2524bbce82e5d8a442013fa5b8905ed98",
    "block_time": 1710307468
  },
  "hex": "02000000000101f5c55788a729ea11f894336806f0aefa6a49f6fd5bb10d83cc31a9bf047442170000000000fdffffff01220200000000000016001435bc30147ba7e9472d9986e32250bfade9e5222d0340fdcc032cdb6e1c19f66d2c441e52972fe99be821e1b63f6cb5ab7b1a783a1a8910489f5c792a9b1baa0f7636206e02d19180b2a34ac0992bd2a8b52f53691f2d87202c797d0a24701a713333c91fb7369f8701b9076ade9398eae9af6ae3b0a59a46ac0063036f7264010118746578742f706c61696e3b636861727365743d7574662d3800417b2270223a226272632d3230222c226f70223a227472616e73666572222c227469636b223a2273626273222c22616d74223a22353030303030303030303030227d6821c02c797d0a24701a713333c91fb7369f8701b9076ade9398eae9af6ae3b0a59a4600000000"
}