{
  "txid": "c25f73bc82e3d7d6f4197d3a7073c5f84599bb6ad646e6b543c0b22b2446c3e3",
  "version": 1,
  "locktime": 0,
  "vin": [
    {
      "txid": "4b2a4cc583ca931e680c9d8df39172912e8712ca914dc153e749d47d744571ed",
      "vout": 1,
      "prevout": {
        "scriptpubkey": "51207b36a08eccf5e49949838749bb93fd241f5d5dfc952bb9a0feebfef5b4c92ae6",
        "scriptpubkey_asm": "OP_PUSHNUM_1 OP_PUSHBYTES_32 7b36a08eccf5e49949838749bb93fd241f5d5dfc952bb9a0feebfef5b4c92ae6",
        "scriptpubkey_type": "v1_p2tr",
        "scriptpubkey_address": "bc1p0vm2prkv7hjfjjvrsaymhylays046h0uj54mng87a0l0tdxf9tnqhgvruy",
        "value": 294246
      },
      "scriptsig": "",
      "scriptsig_asm": "",
      "witness": [
        "9e0bd90f7f8682ac3843c068e743ddfcbf3abaae3cc359f5485caa164ad1e1c1df18d4d7c0ea90ec60a19d5c97b8916d4e9a66b4a5f43046a084ccf0999db49f"
      ],
      "is_coinbase": false,
      "sequence": 4294967295
    }
  ],
  "vout": [
    {
      "scriptpubkey": "51203259496ab2fb4f8d0966a6aa19a31f82687c82dcaf9b7a393995bd6105ad6362",
      "scriptpubkey_asm": "OP_PUSHNUM_1 OP_PUSHBYTES_32 3259496ab2fb4f8d0966a6aa19a31f82687c82dcaf9b7a393995bd6105ad6362",
      "scriptpubkey_type": "v1_p2tr",
      "scriptpubkey_address": "bc1pxfv5j64jld8c6ztx564pngclsf58eqku47dh5wfejk7kzpddvd3qefzdpy",
      "value": 200000
    },
    {
      "scriptpubkey": "51207b36a08eccf5e49949838749bb93fd241f5d5dfc952bb9a0feebfef5b4c92ae6",
      "scriptpubkey_asm": "OP_PUSHNUM_1 OP_PUSHBYTES_32 7b36a08eccf5e49949838749bb93fd241f5d5dfc952bb9a0feebfef5b4c92ae6",
      "scriptpubkey_type": "v1_p2tr",
      "scriptpubkey_address": "bc1p0vm2prkv7hjfjjvrsaymhylays046h0uj54mng87a0l0tdxf9tnqhgvruy",
      "value": 91581
    }
  ],
  "size": 205,
  "weight": 616,
  "fee": 2665,
  "status": {
    "confirmed": true,
    "block_height": 834638,
    "block_hash": "000000000000000000025f742c626208ac87e0b7d15054abb4a19ca2d735a54e",
    "block_time": 1710405325
  },
  "hex": "01000000000101ed7145747dd449e753c14d91ca12872e917291f38d9d0c681e93ca83c54c2a4b0100000000ffffffff02400d0300000000002251203259496ab2fb4f8d0966a6aa19a31f82687c82dcaf9b7a393995bd6105ad6362bd650100000000002251207b36a08eccf5e49949838749bb93fd241f5d5dfc952bb9a0feebfef5b4c92ae601409e0bd90f7f8682ac3843c068e743ddfcbf3abaae3cc359f5485caa164ad1e1c1df18d4d7c0ea90ec60a19d5c97b8916d4e9a66b4a5f43046a084ccf0999db49f00000000"
}