{
  "txid": "c260babbb811fba86335691d88185d89be9ba660ef296acef8e062de070cc460",
  "version": 1,
  "locktime": 0,
  "vin": [
    {
      "txid": "e14c5fef3cf10e4a564e4cde5c5cc135d6af2a599baf286eab2ae31008c83636",
      "vout": 0,
      "prevout": {
        "scriptpubkey": "0014abea2f7e213cf4a9c3da7e76f04374ea2f7ec073",
        "scriptpubkey_asm": "OP_0 OP_PUSHBYTES_20 abea2f7e213cf4a9c3da7e76f04374ea2f7ec073",
        "scriptpubkey_type": "v0_p2wpkh",
        "scriptpubkey_address": "bc1q404z7l3p8n62ns760em0qsm5aghhasrndcedac",
        "value": 208538
      },
      "scriptsig": "",
      "scriptsig_asm": "",
      "witness": [
        "3045022100eeac6307a7833f825ccd8ea580f9b7bb8aff8a796fa19498c0454f4330da3753022060bb96512f83b7efcc802cf55e173faa08e5eca073c36916f63ac2261e1da08b01",
        "03d7d115141cd2ab54198cdc22c9b42cc01d0ff445c7d5faa2fd8a35aa331092f3"
      ],
      "is_coinbase": false,
      "sequence": 0
    },
    {
      "txid": "e14c5fef3cf10e4a564e4cde5c5cc135d6af2a599baf286eab2ae31008c83636",
      "vout": 8,
      "prevout": {
        "scriptpubkey": "0014abea2f7e213cf4a9c3da7e76f04374ea2f7ec073",
        "scriptpubkey_asm": "OP_0 OP_PUSHBYTES_20 abea2f7e213cf4a9c3da7e76f04374ea2f7ec073",
        "scriptpubkey_type": "v0_p2wpkh",
        "scriptpubkey_address": "bc1q404z7l3p8n62ns760em0qsm5aghhasrndcedac",
        "value": 190127
      },
      "scriptsig": "",
      "scriptsig_asm": "",
      "witness": [
        "304402204d5f97cca7a343f9c53c2476beb07bf3400114705618b1179a24488b201c491202207dbf8faa225a22946be70f3987539bb97681a486108b42e80cbbb68b137e147f01",
        "03d7d115141cd2ab54198cdc22c9b42cc01d0ff445c7d5faa2fd8a35aa331092f3"
      ],
      "is_coinbase": false,
      "sequence": 0
    }
  ],
  "vout": [
    {
      "scriptpubkey": "a914c23d66fe246442046e7d71618185031da6b8af1f87",
      "scriptpubkey_asm": "OP_HASH160 OP_PUSHBYTES_20 c23d66fe246442046e7d71618185031da6b8af1f OP_EQUAL",
      "scriptpubkey_type": "p2sh",
      "scriptpubkey_address": "3KQ4a4p338T1oo1yXP64znzubAubgdjtjC",
      "value": 204142
    },
    {
      "scriptpubkey": "0014ca52d4e2748ecfb34de72104c21dbfcbb4277fef",
      "scriptpubkey_asm": "OP_0 OP_PUSHBYTES_20 ca52d4e2748ecfb34de72104c21dbfcbb4277fef",
      "scriptpubkey_type": "v0_p2wpkh",
      "scriptpubkey_address": "bc1qeffdfcn53m8mxn08yyzvy8dlew6zwll0ytye2f",
      "value": 188283
    }
  ],
  "size": 372,
  "weight": 837,
  "fee": 6240,
  "status": {
    "confirmed": true,
    "block_height": 834638,
    "block_hash": "000000000000000000025f742c626208ac87e0b7d15054abb4a19ca2d735a54e",
    "block_time": 1710405325
  },
  "hex": "010000000001023636c80810e32aab6e28af9b592aafd635c15c5cde4c4e564a0ef13cef5f4ce10000000000000000003636c80810e32aab6e28af9b592aafd635c15c5cde4c4e564a0ef13cef5f4ce1080000000000000000026e1d03000000000017a914c23d66fe246442046e7d71618185031da6b8af1f877bdf020000000000160014ca52d4e2748ecfb34de72104c21dbfcbb4277fef02483045022100eeac6307a7833f825ccd8ea580f9b7bb8aff8a796fa19498c0454f4330da3753022060bb96512f83b7efcc802cf55e173faa08e5eca073c36916f63ac2261e1da08b012103d7d115141cd2ab54198cdc22c9b42cc01d0ff445c7d5faa2fd8a35aa331092f30247304402204d5f97cca7a343f9c53c2476beb07bf3400114705618b1179a24488b201c491202207dbf8faa225a22946be70f3987539bb97681a486108b42e80cbbb68b137e147f012103d7d115141cd2ab54198cdc22c9b42cc01d0ff445c7d5faa2fd8a35aa331092f300000000"
}