{
  "txid": "c26e86aa123adbbe36b5ee01db4bddb41002a65646100e8c47f9b9edffa3b211",
  "version": 2,
  "locktime": 0,
  "vin": [
    {
      "txid": "133f5023638328fc13eb7dfce1bf571729b58331f90692dd901f9211f29fe576",
      "vout": 0,
      "prevout": {
        "scriptpubkey": "00141880844b7469c9532c2d592d8e1c0b14b50ad2d0",
        "scriptpubkey_asm": "OP_0 OP_PUSHBYTES_20 1880844b7469c9532c2d592d8e1c0b14b50ad2d0",
        "scriptpubkey_type": "v0_p2wpkh",
        "scriptpubkey_address": "bc1qrzqggjm5d8y4xtpdtykcu8qtzj6s45kspv6nkq",
        "value": 600
      },
      "scriptsig": "",
      "scriptsig_asm": "",
      "witness": [
        "304402201da3c1728497c05a7af530959eddc81894c93fad425c60cbb69a6e0eff6df92b02202d4d7876eb58e573dd500e9a8703dc60abd83a0287c4fa8389f4db05b4145ba901",
        "02366549cb73ebac0f12c59e43b0c060f874b576162cf21d190b16a8dba9f70899"
      ],
      "is_coinbase": false,
      "sequence": 4294967295
    },
    {
      "txid": "133f5023638328fc13eb7dfce1bf571729b58331f90692dd901f9211f29fe576",
      "vout": 1,
      "prevout": {
        "scriptpubkey": "00141880844b7469c9532c2d592d8e1c0b14b50ad2d0",
        "scriptpubkey_asm": "OP_0 OP_PUSHBYTES_20 1880844b7469c9532c2d592d8e1c0b14b50ad2d0",
        "scriptpubkey_type": "v0_p2wpkh",
        "scriptpubkey_address": "bc1qrzqggjm5d8y4xtpdtykcu8qtzj6s45kspv6nkq",
        "value": 600
      },
      "scriptsig": "",
      "scriptsig_asm": "",
      "witness": [
        "3044022078ac17d9fcf504f6e5eaa9f794236e3bdfc3d8e9273d7d4b242dbe019ca56b7b02207ea2edc0bc09eae039048cbae8609af6315c79a1306facdc2030aee05eed3f4301",
        "02366549cb73ebac0f12c59e43b0c060f874b576162cf21d190b16a8dba9f70899"
      ],
      "is_coinbase": false,
      "sequence": 4294967295
    },
    {
      "txid": "0559bb6b1f044bec6629530f181dc526918103718b1a949c26898ba96a796e1b",
      "vout": 1,
      "prevout": {
        "scriptpubkey": "5120be5134b0c76a0d3b53107a63d5217103404d57468f438115a1d6cb164352de1a",
        "scriptpubkey_asm": "OP_PUSHNUM_1 OP_PUSHBYTES_32 be5134b0c76a0d3b53107a63d5217103404d57468f438115a1d6cb164352de1a",
        "scriptpubkey_type": "v1_p2tr",
        "scriptpubkey_address": "bc1phegnfvx8dgxnk5cs0f3a2gt3qdqy646x3apcz9dp6m93vs6jmcdql27jag",
        "value": 1000
      },
      "scriptsig": "",
      "scriptsig_asm": "",
      "witness": [
        "2d8f55750968f4c3512821b59f4042499723ef5706d721a364a026777a0d497d1d5f0c955be6d9bc1cfe27f085d621077d6362b7dd9829ff8e05caef53a7c94983"
      ],
      "is_coinbase": false,
      "sequence": 4294967295
    },
    {
      "txid": "133f5023638328fc13eb7dfce1bf571729b58331f90692dd901f9211f29fe576",
      "vout": 10,
      "prevout": {
        "scriptpubkey": "00141880844b7469c9532c2d592d8e1c0b14b50ad2d0",
        "scriptpubkey_asm": "OP_0 OP_PUSHBYTES_20 1880844b7469c9532c2d592d8e1c0b14b50ad2d0",
        "scriptpubkey_type": "v0_p2wpkh",
        "scriptpubkey_address": "bc1qrzqggjm5d8y4xtpdtykcu8qtzj6s45kspv6nkq",
        "value": 338271
      },
      "scriptsig": "",
      "scriptsig_asm": "",
      "witness": [
        "3044022072e44cda74cde2d4800f34b780f72710983a13619246fd7f35fec5c014cabd9f0220424135f9a2dd39b605e428f90be2eda2330883af0c8c307d2b69093de46602f601",
        "02366549cb73ebac0f12c59e43b0c060f874b576162cf21d190b16a8dba9f70899"
      ],
      "is_coinbase": false,
      "sequence": 4294967295
    },
    {
      "txid": "b750e064056ef69b5da3eb5f1e79b24415e21d63c21b54670d89d7f9933eaad8",
      "vout": 17,
      "prevout": {
        "scriptpubkey": "00141880844b7469c9532c2d592d8e1c0b14b50ad2d0",
        "scriptpubkey_asm": "OP_0 OP_PUSHBYTES_20 1880844b7469c9532c2d592d8e1c0b14b50ad2d0",
        "scriptpubkey_type": "v0_p2wpkh",
        "scriptpubkey_address": "bc1qrzqggjm5d8y4xtpdtykcu8qtzj6s45kspv6nkq",
        "value": 184000
      },
      "scriptsig": "",
      "scriptsig_asm": "",
      "witness": [
        "3045022100db04a4672f26c47b9703e848cfbe8f4a78796f8ca60f17e0bb687b836d8f1906022028b0c96717ae85a47331d1bed4d2f437708936cbb568a43fe70f4349d93b7df801",
        "02366549cb73ebac0f12c59e43b0c060f874b576162cf21d190b16a8dba9f70899"
      ],
      "is_coinbase": false,
      "sequence": 4294967295
    }
  ],
  "vout": [
    {
      "scriptpubkey": "00141880844b7469c9532c2d592d8e1c0b14b50ad2d0",
      "scriptpubkey_asm": "OP_0 OP_PUSHBYTES_20 1880844b7469c9532c2d592d8e1c0b14b50ad2d0",
      "scriptpubkey_type": "v0_p2wpkh",
      "scriptpubkey_address": "bc1qrzqggjm5d8y4xtpdtykcu8qtzj6s45kspv6nkq",
      "value": 1200
    },
    {
      "scriptpubkey": "00141880844b7469c9532c2d592d8e1c0b14b50ad2d0",
      "scriptpubkey_asm": "OP_0 OP_PUSHBYTES_20 1880844b7469c9532c2d592d8e1c0b14b50ad2d0",
      "scriptpubkey_type": "v0_p2wpkh",
      "scriptpubkey_address": "bc1qrzqggjm5d8y4xtpdtykcu8qtzj6s45kspv6nkq",
      "value": 1000
    },
    {
      "scriptpubkey": "a914a97d6fb4fd903a0a891b09184860bea4dd32789387",
      "scriptpubkey_asm": "OP_HASH160 OP_PUSHBYTES_20 a97d6fb4fd903a0a891b09184860bea4dd327893 OP_EQUAL",
      "scriptpubkey_type": "p2sh",
      "scriptpubkey_address": "3H9CPS7meG5hmjoKDBZsr8Y9oL52cJUbsr",
      "value": 467655
    },
    {
      "scriptpubkey": "a914ea6b832a05c6ca578baa3836f3f25553d41068a587",
      "scriptpubkey_asm": "OP_HASH160 OP_PUSHBYTES_20 ea6b832a05c6ca578baa3836f3f25553d41068a5 OP_EQUAL",
      "scriptpubkey_type": "p2sh",
      "scriptpubkey_address": "3P4WqXDbSLRhzo2H6MT6YFbvBKBDPLbVtQ",
      "value": 11725
    },
    {
      "scriptpubkey": "00141880844b7469c9532c2d592d8e1c0b14b50ad2d0",
      "scriptpubkey_asm": "OP_0 OP_PUSHBYTES_20 1880844b7469c9532c2d592d8e1c0b14b50ad2d0",
      "scriptpubkey_type": "v0_p2wpkh",
      "scriptpubkey_address": "bc1qrzqggjm5d8y4xtpdtykcu8qtzj6s45kspv6nkq",
      "value": 600
    },
    {
      "scriptpubkey": "00141880844b7469c9532c2d592d8e1c0b14b50ad2d0",
      "scriptpubkey_asm": "OP_0 OP_PUSHBYTES_20 1880844b7469c9532c2d592d8e1c0b14b50ad2d0",
      "scriptpubkey_type": "v0_p2wpkh",
      "scriptpubkey_address": "bc1qrzqggjm5d8y4xtpdtykcu8qtzj6s45kspv6nkq",
      "value": 600
    },
    {
      "scriptpubkey": "00141880844b7469c9532c2d592d8e1c0b14b50ad2d0",
      "scriptpubkey_asm": "OP_0 OP_PUSHBYTES_20 1880844b7469c9532c2d592d8e1c0b14b50ad2d0",
      "scriptpubkey_type": "v0_p2wpkh",
      "scriptpubkey_address": "bc1qrzqggjm5d8y4xtpdtykcu8qtzj6s45kspv6nkq",
      "value": 33276
    }
  ],
  "size": 932,
  "weight": 2234,
  "fee": 8415,
  "status": {
    "confirmed": true,
    "block_height": 834638,
    "block_hash": "000000000000000000025f742c626208ac87e0b7d15054abb4a19ca2d735a54e",
    "block_time": 1710405325
  },
  "hex": "0200000000010576e59ff211921f90dd9206f93183b5291757bfe1fc7deb13fc28836323503f130000000000ffffffff76e59ff211921f90dd9206f93183b5291757bfe1fc7deb13fc28836323503f130100000000ffffffff1b6e796aa98b89269c941a8b7103819126c51d180f532966ec4b041f6bbb59050100000000ffffffff76e59ff211921f90dd9206f93183b5291757bfe1fc7deb13fc28836323503f130a00000000ffffffffd8aa3e93f9d7890d67541bc2631de21544b2791e5feba35d9bf66e0564e050b71100000000ffffffff07b0040000000000001600141880844b7469c9532c2d592d8e1c0b14b50ad2d0e8030000000000001600141880844b7469c9532c2d592d8e1c0b14b50ad2d0c72207000000000017a914a97d6fb4fd903a0a891b09184860bea4dd32789387cd2d00000000000017a914ea6b832a05c6ca578baa3836f3f25553d41068a58758020000000000001600141880844b7469c9532c2d592d8e1c0b14b50ad2d058020000000000001600141880844b7469c9532c2d592d8e1c0b14b50ad2d0fc810000000000001600141880844b7469c9532c2d592d8e1c0b14b50ad2d00247304402201da3c1728497c05a7af530959eddc81894c93fad425c60cbb69a6e0eff6df92b02202d4d7876eb58e573dd500e9a8703dc60abd83a0287c4fa8389f4db05b4145ba9012102366549cb73ebac0f12c59e43b0c060f874b576162cf21d190b16a8dba9f7089902473044022078ac17d9fcf504f6e5eaa9f794236e3bdfc3d8e9273d7d4b242dbe019ca56b7b02207ea2edc0bc09eae039048cbae8609af6315c79a1306facdc2030aee05eed3f43012102366549cb73ebac0f12c59e43b0c060f874b576162cf21d190b16a8dba9f7089901412d8f55750968f4c3512821b59f4042499723ef5706d721a364a026777a0d497d1d5f0c955be6d9bc1cfe27f085d621077d6362b7dd9829ff8e05caef53a7c9498302473044022072e44cda74cde2d4800f34b780f72710983a13619246fd7f35fec5c014cabd9f0220424135f9a2dd39b605e428f90be2eda2330883af0c8c307d2b69093de46602f6012102366549cb73ebac0f12c59e43b0c060f874b576162cf21d190b16a8dba9f7089902483045022100db04a4672f26c47b9703e848cfbe8f4a78796f8ca60f17e0bb687b836d8f1906022028b0c96717ae85a47331d1bed4d2f437708936cbb568a43fe70f4349d93b7df8012102366549cb73ebac0f12c59e43b0c060f874b576162cf21d190b16a8dba9f7089900000000"
}