{
  "txid": "c29277901fc81c86ce5d5bcbde43fc31725897b8f5411cbcf05a9549544cb398",
  "version": 2,
  "locktime": 0,
  "vin": [
    {
      "txid": "1a886543f6b45db10980dff6767e738438c79208347575dc659ec37b1be184b9",
      "vout": 5,
      "prevout": {
        "scriptpubkey": "0014f55e8478325c370aa6fca92bb5c576eff49c8ebc",
        "scriptpubkey_asm": "OP_0 OP_PUSHBYTES_20 f55e8478325c370aa6fca92bb5c576eff49c8ebc",
        "scriptpubkey_type": "v0_p2wpkh",
        "scriptpubkey_address": "bc1q740gg7pjtsms4fhu4y4mt3tkal6fer4uxd5l8m",
        "value": 3418736
      },
      "scriptsig": "",
      "scriptsig_asm": "",
      "witness": [
        "3044022013ab2493dae459f2e1cfed5b6405262b306947dc8d22dd5ea605226ae2a43ad80220228c7173e5c95a6391aab9ce3ca957beb947fb3537f1b0a6aa616331c0d363fe01",
        "024ce594520bd99c241e813cca84f8b2ca27a30a2a2874d9adf91aedf3a6e4d267"
      ],
      "is_coinbase": false,
      "sequence": 4294967293
    }
  ],
  "vout": [
    {
      "scriptpubkey": "a91419772396eb798489e9ca587b5bba147b68bcf33a87",
      "scriptpubkey_asm": "OP_HASH160 OP_PUSHBYTES_20 19772396eb798489e9ca587b5bba147b68bcf33a OP_EQUAL",
      "scriptpubkey_type": "p2sh",
      "scriptpubkey_address": "341fYGFsLoYy8dr8DeD36TncWcqKgRQiBL",
      "value": 53285
    },
    {
      "scriptpubkey": "001436cae417fd495f1bcc7ab30125e0161c33dfbaa1",
      "scriptpubkey_asm": "OP_0 OP_PUSHBYTES_20 36cae417fd495f1bcc7ab30125e0161c33dfbaa1",
      "scriptpubkey_type": "v0_p2wpkh",
      "scriptpubkey_address": "bc1qxm9wg9laf903hnr6kvqjtcqkrsealw4p2je7xm",
      "value": 3361292
    },
    {
      "scriptpubkey": "0014432e50dd59c8d97b68eb7313ecbc22dd922c58b3",
      "scriptpubkey_asm": "OP_0 OP_PUSHBYTES_20 432e50dd59c8d97b68eb7313ecbc22dd922c58b3",
      "scriptpubkey_type": "v0_p2wpkh",
      "scriptpubkey_address": "bc1qgvh9ph2eervhk68twvf7e0pzmkfzck9nttqfkp",
      "value": 2083
    }
  ],
  "size": 254,
  "weight": 689,
  "fee": 2076,
  "status": {
    "confirmed": true,
    "block_height": 834460,
    "block_hash": "00000000000000000000484a79b643b2524bbce82e5d8a442013fa5b8905ed98",
    "block_time": 1710307468
  },
  "hex": "02000000000101b984e11b7bc39e65dc7575340892c73884737e76f6df8009b15db4f64365881a0500000000fdffffff0325d000000000000017a91419772396eb798489e9ca587b5bba147b68bcf33a870c4a33000000000016001436cae417fd495f1bcc7ab30125e0161c33dfbaa12308000000000000160014432e50dd59c8d97b68eb7313ecbc22dd922c58b302473044022013ab2493dae459f2e1cfed5b6405262b306947dc8d22dd5ea605226ae2a43ad80220228c7173e5c95a6391aab9ce3ca957beb947fb3537f1b0a6aa616331c0d363fe0121024ce594520bd99c241e813cca84f8b2ca27a30a2a2874d9adf91aedf3a6e4d26700000000"
}