{
  "txid": "c2968c8a276978bcac607701f1415f85b526d0bea59d85e6c875f33bfbfa478f",
  "version": 2,
  "locktime": 0,
  "vin": [
    {
      "txid": "03e69eb8195892244d479b6ff86815ad1d46a83687986f7e6b4945b1a2a4df2d",
      "vout": 0,
      "prevout": {
        "scriptpubkey": "512060f1ad04c5336c9ba651b3f9f8a0e6e8b2fb1399d8266b0f1b5c3a76fbb63f10",
        "scriptpubkey_asm": "OP_PUSHNUM_1 OP_PUSHBYTES_32 60f1ad04c5336c9ba651b3f9f8a0e6e8b2fb1399d8266b0f1b5c3a76fbb63f10",
        "scriptpubkey_type": "v1_p2tr",
        "scriptpubkey_address": "bc1pvrc66px9xdkfhfj3k0ul3g8xaze0kyuemqnxkrcmtsa8d7ak8ugqt9gvpg",
        "value": 18435
      },
      "scriptsig": "",
      "scriptsig_asm": "",
      "witness": [
        "dac6db9ffcf95d93b90149c447e5d48d91b8169747c1e6a4f5ff510b1accfd55088b4c35cff14676818ac564e8d070b9889513148bf73273a8fbd41e7762c225",
        "2074e0898d1b749f3903999eaa385f2b0764c9472b9c519c291709618090e54c26ac0063036f7264010109696d6167652f706e67004d080289504e470d0a1a0a0000000d494844520000025800000258080300000089b868ee00000051504c54453b56ac3431343e3b3e8d6641304587944f09a17345bd895a5b8697b9690caf7a4b222522ffc401f70400a17a53040004bc0400fff258ad830cf7c7444e6d96a06e2e7380793c44556a543fd7b339e3321fbb338748000000097048597300000b1300000b1301009a9c1800000fb849444154789ceddd81561b39164551974db06233c61d040efdff1f3a8bcc108c4b862aabae9ef4740e493a995e4d3ba99d5b3231d3ab402468a578a744c02249c02249c02249c02249c02249c02249c02249c02249c02249c02249c02249c02249c02249c02249c02249c02249c02249c02249c02249c02249c02249c02249c02249c05a152c866e02564958a19f7afab9dac38aa19b80052c49c002962460014b12b080250958c092042c60490216b024010b589280052c49c002962460014b12b08065086b1ffc062c43589eff541e5892b815024b12b080250958c092e416565c355c0ccd07ac1a8ba1f980556331341fb06a2c86e603568dc5d07cc0aab2d07c0e7e0ae97856681bb06a2c86e603568dc5d07cc0aab1189a0f58351643f301abca42f339f829a4e359a16dc0aab1189a0f58351643f301abc662683e60d5580ccd07ac2a0bcde7e0a7908e6785b601abc662683e60d5580ccd07ac742fa98add5e6368bea660c57897788b71957acb4d0802bbb20fa90e93fff9ed6baa390f60ea5bad069b827597ec263937c17a99fccfbfa6fef157c9230d75062cc962bd022b34bf58775d2fd62ad459ad8fabca5b218b353d6035be5831d419b0d2978bc5cacc012cce5835e60096e406c3626506ac19b038634d0f582c962407b03863d59803589cb16a0c589cb124018b33962407b03863d59803589cb16a0c589cb124018b33962407b03863d5580db0e2d43863250a71f25b67b0ee325b15fbb3c2d743a2e4e7f3bc3e3cbc8edf56c695bcaac04a167ffdfaf53afa92d4f64faad75f899e57c675062b5638596fb0c6350e2b7606ab425773603d35036b55f2aa022b198be50056eead50f17b9bc572002bf756c8196b6a25afaa03582b412e172b7606abf15b613bcf0a579dc162b10ad5db62e5c2e28c35b5ce60357e2b6ce78cb5ea0c568583e5f38c154b5e5560a5af018bd53e2cfeacb0502c5653b742ce58b52e1667ac5275068b678585e256687f2f74f9ac70d5d962357e2b6ce78c15fdc24abec6bf71582c5605b0720d159395bb584fa9ff30c576555fb21573004bf2ebfd94ea617a4f8980052c60e5c662b158921cc0baabf056f8c4adb07d580257dc0ab30316b024010b58921cc0aaf18cf5c019ab7d5802571cdeb303168b250958c092e4001667ac8cf8b342ce589280d516ac079e15b67f2b0456462c5659592c566e2c9604d613b7c250326e85b5c5ad903396246071c69204ac4d0802b24f15e336d58c33d62b9f4cd1fc194b01ab9ba2ea523b38bc032b2360014b12b080250958c092042c60490216b024010b589280052c49c002962460014b12b080250958c092042c60490216b024010b589280052c49c002962460014b12b080250958f35f9c9cf8a2b9382d1755af42f7fa9af72bd87aee2e15b080951bb0582c49c002962460014b12b080250958c092042c60490216b024010b589280052c49c002962460014b12b080250958c092042c60490216b024010b589280052c49c002962460014b926758319510127d971358c9befdc9d34295bcaa15c062b25a5fa74a6195fa75a55030607554e80b16b7c242712b244d9d2d96e857914675068b5b61a1b81592a6ce164bf4ab48a33a83c5adb050dc0a4953678b25fa55a4519dc1e25658286e85a4a9b3c512fd2ad2a8ce60712b2c14b742d2d4d962897e15695467b0b81516aab75b61f2332c4ec3c4eeee368771f79bc36133ea77f23d9cfc15d375062bd9693fb1bbbb8754ffa4da26dfc3da5d27ebabe718d6d37458c3da5dc13eafb0582ce3aa86f5f8cd5716eb4ad657af7658dff478f3627dd2b976d7c9faea350eebb6c57a9f3ac767ac93f5d56b03d6e395bf72c6ba9af5d5ab1cd6c751ea0b5b3c2b1cc7627d0debbbfef03a9d6e7f56f83f9f6b779d827d352f5602416ab4e67e1cebfc39a5cf33d6dafaeab504eb7a7c1ceb3216eb1b58ffdf96eb63f5e77bb77e4d0802e4fdfdddb0581d2fd657cf0c7316ebedfdacdd75b2be7aedc04af49873c63acfdf629dacaf5efdb0ce10a43f8c75eb629dbd97b5bf827d95c34a4abaf83bb79eb158ac5e618d455d1cdb3316ebec9dacdd75b2be7a95c3ba365a17e0662e56077f56b8b6be7a2dc0ba1ca9bf3f7e7cffe6b6c5fa78bf6b779dacaf5e0bb0be6ffe19ebf368b158fdc1fa18a92f6e86d317ebd708251fc7ea135682c1f8870f931bc39ab358c3b04fbc55b97731c6978cafddc13af7f4cd1f425f87357a6639f56aed1f530d95b6bffdeb3e7a87f5e91e78e9e9ef0f6f59ac5b5edd9086f57631bcf5e21dd6d59be0a7726f853e172b27f78b754dd5a3c919ab9fc58a9dc04a12bbf98cf5e9a63ae759218be505d6d94bb14633b5e0ad90c5ea73b1be3a5e3d2e018bc5ea13d6d58f5fe52c16cf0abfaaa36785a9cf037bbc11d6e5ed95c5bac8ffc7b1be7e5543ce629dbf3bce5897f98795e2f4b8c40748cf63b1fa847565aa323edc70118bd51baceb37c2ef5fddf015ac8b574bb058bdc14adef8c63fbc7db1fef70e58ac8e9f155e9d2bce58cbd7c1b3c22f46ebe3c30f9cb196ce3facaf86eac6c5fa7bc0fafbfe3863f507eb4a9f8de52cd6db7be28c7559b7b072166b1c8bd513acdfebe16aebe1ec6faed7d35d3d0af2f87aac17c7b0ee73db8efbad8035f86bef79b19a81e571b1e202171058990d0e8bc062b11401ab025883c3228b650fcbe319eb054d080258f6b0067fed59ac0a60795cacc862d9c31a1c1681650f8bc54ac7c7b1321b1c16437ec062b146f1acb0825be1e0af3d8b55012cce58e9b8156636382c86fc80c5628d025605b7c2c16191c5b287e5f18cf5022c7b5883bff62c5605b03c2e5664b1ec61bd5d88dfb575ca0b58f360edee051d0e87c3b6b6827d3d7db8a19f827dc0f258b00f581e0bf601cb63c13e60792cd8072c8f05fb80e5b1601fb03c16ec0396c7827dc0f258b00f581e0bf601cb63c13e60792cd8072c8f05fb80e5b1601fb03c16ec0396c7827dc0f258b00f581e0bf601cb63c13e60792cd8072c8f05fb80e5b1601fb03c16ec0396c7827dc0f258b00f581e0bf601cb63c13e60792cd8072c8f05fb80e5b1601fb03c16ec0396c7827dc0f258b00f581e0bf601cb63c13e60792cd8072c8f05fb80e5b1601fb03c16ec0396c7827dc0da146b9b57b9070aac25fecb14e5aed716583dfd274f80356a890bc8ad7053ac2d8b651f8b65f83b60890bc86295bb5edbbcca3d506071c692042c60490216b024010b589280052c49c002962460014b12b080250958c092042c60490216b024010b589280052c49c0029673582f0b7fe5f55889fa83b51554ee857ebfd793df36f7f7f79bdbbf6cf39af74073be2c600258dbfdf43687acb679957ba0c05a62b1f6c3e437635843a9070aac4560fd6998f0ad35ac620f14580b2ed6c737d7bf5fc562edf50f14580b2dd6dbef4d0802f33f17e5faf7872a16abd00305d6428bf5fe9bfdecaf9f46e0fdbbe68bb52ff34081b5cc62bdffa6bff872f1bf57b05843a1070aacc56e859f2ed2e518d4b258fb520f14584bdd0a3fdf4a46df7b5f02fb5be1bec80305d652b7c22bf798da166b28f44081b5d0adf0fd92a58f2fd52c56b1070a2c166b60b1e6759fdb8c21b87cba7efe64ebfc7997f9620d851e288bb508ace4b3ace4478aec0fef4391070aac85ce585f3dd13a3f2f5b2fd6bed00305d6828bf5c5d5fa7b28ae62b106fd0305d68267ac6b0798b3a76183f5620d851e28b096bb155e39c054b558fb520f14586517cb1cd650e881026ba1c5fa7885dc659f5e3e670eabd40305d612b07e4fefb0db6d0fdbdbbfc96bc6037dc90b584bc0f258b08f4ffff258b00f581e0bf601cb63c13e60792cd8072c8f05fb80e5b1601fb03c16ec0396c7827dc0f258b00f581e0bf601cb63c13e60792cd8072c8f05fb80e5b1601fb03c16ec0396c7827dc0f258b00f581e0bf601cb63c13e60156b774cf56f6ec09ad57d6edb46601dff9317b0e605ac89010b5847166b5e8afb068b3531160b5847168bc512b40316b080951b1fc72ad68ec59a99e22a70789f188777601d39bcb3588276c00216b072e3f05eac1d8b3533c555e0f03e310eefc03a727867b104ed80052c60e5c6e1bd583b166b668aabc0e17d621cde8175e4f0ce6209da01ab0258cfb96dab6b07ac1a60fdc86c5b5d4d08023b6055002bd715b08cabf5c30d2cd6c4785608ac23cf0aed178b5be1c4582c16ebc862b1588276c0aa001687f789712b9c1767ac89018bc53a72c6b2bf15b2581363b158ac238bc56209da01ab02583c2b9c18b7c27971c69a18b058ac23672cfb5b218b3531168bc53ab2582c96a01db02a8065ffac70b7f897a36cb12efe4d5efe93272f828c61fd94744ca5f8176d820b588a8c61edda8675b0be7cc062b144b1582c96246071c692042c164b12b0582c49c062b124018bc592042c164b12b0582c49c062b124018bc592042c164b12b0582c49c062b124018bc592042c164b12b0582c49c062b124018bc5720aeb65932af725ef3fde5efabdcbf8aae8f9dfe7d157cdbfe87efcb6e90e56b6a1abb06a6b5bee1382c63d97bdacc02ad816580563b1cac462712b94042c60490216b024010b589280052c49c002962460014b12b080250958c092042c60490216b024010b589280052c49c002962460014b12b080250958c09204ac7a616d77596fe9f2dee7f4cffb0056c5b02aec27b09a7fcdfbb5cd31ed27b09a87c562cd884fff62b124018bc592042c164b12b0582c49c062b124018bc592042c164b12b0582c49c062b124018bc592042c164b12b0582c49c062b124018bc592042c164b12b0582c49c062b124016b9eac3f9f1451d3373fa7c62753d4fbd2e4a67bd62c138bd57bcfc062b114010b589280052c49c002962460014b124d0802b080250958c092042c60490216b024010b589280052c49c002962460014b12b080250958c092042c60490216b024010b589280052c6075f6fff3de74cfbce61d588a80052c49c002962460014b12b080250958c092042c60490216b024010b589280052c49c002962460014b12b080250958c092042c60490216b024010b589280052c49c002962460014b12b080250958c092042c60490216b024010b589280052c49c002962460014b12b080250958c092042c60490216b024010b589280052c49c002962460014b12b080250958c092042c60490216b024010b589280052c49c002962460014b12b080250958c092042c60490216b024010b589280052c49c002962460014b12b080250958c092042c60490216b024010b589280052c49c002962460014b12b080250958c092042c60490216b024010b589280052c49c002962460014b12b080250958c092042c60490216b024010b589280052c49c002962460014b12b080250958c092042c60490216b024010b589280052c49c00296a4fe606d52fdf8f19cf7e5677d3d9bb6e90d56bafbbc369b5d7d859e720aeb1958c63985c56259e714168b659d53582c96754e61b158d63985c56259e714168b659d53582c96754e61b158d63985c56259e714168b659d53582c96754e61b158d63985c56259e714168b659d53582c96754e61b158d63985c56259e714168b659d53582c96754e61b12358d63985c56259e714168b158cfb2f56ad72eb247198d10000000049454e44ae42608268",
        "c074e0898d1b749f3903999eaa385f2b0764c9472b9c519c291709618090e54c26"
      ],
      "is_coinbase": false,
      "sequence": 4294967293
    }
  ],
  "vout": [
    {
      "scriptpubkey": "5120d8151a134828d5539196f5b4f2e7c0426c816e8722f1330f79bc9cea7a0a8a8a",
      "scriptpubkey_asm": "OP_PUSHNUM_1 OP_PUSHBYTES_32 d8151a134828d5539196f5b4f2e7c0426c816e8722f1330f79bc9cea7a0a8a8a",
      "scriptpubkey_type": "v1_p2tr",
      "scriptpubkey_address": "bc1pmq235y6g9r248yvk7k609e7qgfkgzm58ytcnxrmehjww57s2329qrla5t3",
      "value": 600
    }
  ],
  "size": 4473,
  "weight": 4755,
  "fee": 17835,
  "status": {
    "confirmed": true,
    "block_height": 834460,
    "block_hash": "00000000000000000000484a79b643b2524bbce82e5d8a442013fa5b8905ed98",
    "block_time": 1710307468
  },
  "hex": "020000000001012ddfa4a2b145496b7e6f988736a8461dad1568f86f9b474d24925819b89ee6030000000000fdffffff015802000000000000225120d8151a134828d5539196f5b4f2e7c0426c816e8722f1330f79bc9cea7a0a8a8a0340dac6db9ffcf95d93b90149c447e5d48d91b8169747c1e6a4f5ff510b1accfd55088b4c35cff14676818ac564e8d070b9889513148bf73273a8fbd41e7762c225fdb2102074e0898d1b749f3903999eaa385f2b0764c9472b9c519c291709618090e54c26ac0063036f7264010109696d6167652f706e67004d080289504e470d0a1a0a0000000d494844520000025800000258080300000089b868ee00000051504c54453b56ac3431343e3b3e8d6641304587944f09a17345bd895a5b8697b9690caf7a4b222522ffc401f70400a17a53040004bc0400fff258ad830cf7c7444e6d96a06e2e7380793c44556a543fd7b339e3321fbb338748000000097048597300000b1300000b1301009a9c1800000fb849444154789ceddd81561b39164551974db06233c61d040efdff1f3a8bcc108c4b862aabae9ef4740e493a995e4d3ba99d5b3231d3ab402468a578a744c02249c02249c02249c02249c02249c02249c02249c02249c02249c02249c02249c02249c02249c02249c02249c02249c02249c02249c02249c02249c02249c02249c02249c05a152c866e02564958a19f7afab9dac38aa19b80052c49c002962460014b12b080250958c092042c60490216b024010b589280052c49c002962460014b12b08065086b1ffc062c43589eff541e5892b815024b12b080250958c092e416565c355c0ccd07ac1a8ba1f980556331341fb06a2c86e603568dc5d07cc0aab2d07c0e7e0ae97856681bb06a2c86e603568dc5d07cc0aab1189a0f58351643f301abca42f339f829a4e359a16dc0aab1189a0f58351643f301abc662683e60d5580ccd07ac2a0bcde7e0a7908e6785b601abc662683e60d5580ccd07ac742fa98add5e6368bea660c57897788b71957acb4d0802bbb20fa90e93fff9ed6baa390f60ea5bad069b827597ec263937c17a99fccfbfa6fef157c9230d75062cc962bd022b34bf58775d2fd62ad459ad8fabca5b218b353d6035be5831d419b0d2978bc5cacc012cce5835e60096e406c3626506ac19b038634d0f582c962407b03863d59803589cb16a0c589cb124018b33962407b03863d59803589cb16a0c589cb124018b33962407b03863d5580db0e2d43863250a71f25b67b0ee325b15fbb3c2d743a2e4e7f3bc3e3cbc8edf56c695bcaac04a167ffdfaf53afa92d4f64faad75f899e57c675062b5638596fb0c6350e2b7606ab425773603d35036b55f2aa022b198be50056eead50f17b9bc572002bf756c8196b6a25afaa03582b412e172b7606abf15b613bcf0a579dc162b10ad5db62e5c2e28c35b5ce60357e2b6ce78cb5ea0c568583e5f38c154b5e5560a5af018bd53e2cfeacb0502c5653b742ce58b52e1667ac5275068b678585e256687f2f74f9ac70d5d962357e2b6ce78c15fdc24abec6bf71582c5605b0720d159395bb584fa9ff30c576555fb21573004bf2ebfd94ea617a4f8980052c60e5c662b158921cc0baabf056f8c4adb07d580257dc0ab30316b024010b58921cc0aaf18cf5c019ab7d5802571cdeb303168b250958c092e4001667ac8cf8b342ce589280d516ac079e15b67f2b0456462c5659592c566e2c9604d613b7c250326e85b5c5ad903396246071c69204ac4d0802b24f15e336d58c33d62b9f4cd1fc194b01ab9ba2ea523b38bc032b2360014b12b080250958c092042c60490216b024010b589280052c49c002962460014b12b080250958c092042c60490216b024010b589280052c49c002962460014b12b080250958f35f9c9cf8a2b9382d1755af42f7fa9af72bd87aee2e15b080951bb0582c49c002962460014b12b080250958c092042c60490216b024010b589280052c49c002962460014b12b080250958c092042c60490216b024010b589280052c49c002962460014b926758319510127d971358c9befdc9d34295bcaa15c062b25a5fa74a6195fa75a55030607554e80b16b7c242712b244d9d2d96e857914675068b5b61a1b81592a6ce164bf4ab48a33a83c5adb050dc0a4953678b25fa55a4519dc1e25658286e85a4a9b3c512fd2ad2a8ce60712b2c14b742d2d4d962897e15695467b0b81516aab75b61f2332c4ec3c4eeee368771f79bc36133ea77f23d9cfc15d375062bd9693fb1bbbb8754ffa4da26dfc3da5d27ebabe718d6d37458c3da5dc13eafb0582ce3aa86f5f8cd5716eb4ad657af7658dff478f3627dd2b976d7c9faea350eebb6c57a9f3ac767ac93f5d56b03d6e395bf72c6ba9af5d5ab1cd6c751ea0b5b3c2b1cc7627d0debbbfef03a9d6e7f56f83f9f6b779d827d352f5602416ab4e67e1cebfc39a5cf33d6dafaeab504eb7a7c1ceb3216eb1b58ffdf96eb63f5e77bb77e4d0802e4fdfdddb0581d2fd657cf0c7316ebedfdacdd75b2be7aedc04af49873c63acfdf629dacaf5efdb0ce10a43f8c75eb629dbd97b5bf827d95c34a4abaf83bb79eb158ac5e618d455d1cdb3316ebec9dacdd75b2be7a95c3ba365a17e0662e56077f56b8b6be7a2dc0ba1ca9bf3f7e7cffe6b6c5fa78bf6b779dacaf5e0bb0be6ffe19ebf368b158fdc1fa18a92f6e86d317ebd708251fc7ea135682c1f8870f931bc39ab358c3b04fbc55b97731c6978cafddc13af7f4cd1f425f87357a6639f56aed1f530d95b6bffdeb3e7a87f5e91e78e9e9ef0f6f59ac5b5edd9086f57631bcf5e21dd6d59be0a7726f853e172b27f78b754dd5a3c919ab9fc58a9dc04a12bbf98cf5e9a63ae759218be505d6d94bb14633b5e0ad90c5ea73b1be3a5e3d2e018bc5ea13d6d58f5fe52c16cf0abfaaa36785a9cf037bbc11d6e5ed95c5bac8ffc7b1be7e5543ce629dbf3bce5897f98795e2f4b8c40748cf63b1fa847565aa323edc70118bd51baceb37c2ef5fddf015ac8b574bb058bdc14adef8c63fbc7db1fef70e58ac8e9f155e9d2bce58cbd7c1b3c22f46ebe3c30f9cb196ce3facaf86eac6c5fa7bc0fafbfe3863f507eb4a9f8de52cd6db7be28c7559b7b072166b1c8bd513acdfebe16aebe1ec6faed7d35d3d0af2f87aac17c7b0ee73db8efbad8035f86bef79b19a81e571b1e202171058990d0e8bc062b11401ab025883c3228b650fcbe319eb054d080258f6b0067fed59ac0a60795cacc862d9c31a1c1681650f8bc54ac7c7b1321b1c16437ec062b146f1acb0825be1e0af3d8b55012cce58e9b8156636382c86fc80c5628d025605b7c2c16191c5b287e5f18cf5022c7b5883bff62c5605b03c2e5664b1ec61bd5d88dfb575ca0b58f360edee051d0e87c3b6b6827d3d7db8a19f827dc0f258b00f581e0bf601cb63c13e60792cd8072c8f05fb80e5b1601fb03c16ec0396c7827dc0f258b00f581e0bf601cb63c13e60792cd8072c8f05fb80e5b1601fb03c16ec0396c7827dc0f258b00f581e0bf601cb63c13e60792cd8072c8f05fb80e5b1601fb03c16ec0396c7827dc0f258b00f581e0bf601cb63c13e60792cd8072c8f05fb80e5b1601fb03c16ec0396c7827dc0f258b00f581e0bf601cb63c13e60792cd8072c8f05fb80e5b1601fb03c16ec0396c7827dc0da146b9b57b9070aac25fecb14e5aed716583dfd274f80356a890bc8ad7053ac2d8b651f8b65f83b60890bc86295bb5edbbcca3d506071c692042c60490216b024010b589280052c49c002962460014b12b080250958c092042c60490216b024010b589280052c49c0029673582f0b7fe5f55889fa83b51554ee857ebfd793df36f7f7f79bdbbf6cf39af74073be2c600258dbfdf43687acb679957ba0c05a62b1f6c3e437635843a9070aac4560fd6998f0ad35ac620f14580b2ed6c737d7bf5fc562edf50f14580b2dd6dbef4d0802f33f17e5faf7872a16abd00305d6428bf5fe9bfdecaf9f46e0fdbbe68bb52ff34081b5cc62bdffa6bff872f1bf57b05843a1070aacc56e859f2ed2e518d4b258fb520f14584bdd0a3fdf4a46df7b5f02fb5be1bec80305d652b7c22bf798da166b28f44081b5d0adf0fd92a58f2fd52c56b1070a2c166b60b1e6759fdb8c21b87cba7efe64ebfc7997f9620d851e288bb508ace4b3ace4478aec0fef4391070aac85ce585f3dd13a3f2f5b2fd6bed00305d6828bf5c5d5fa7b28ae62b106fd0305d68267ac6b0798b3a76183f5620d851e28b096bb155e39c054b558fb520f14586517cb1cd650e881026ba1c5fa7885dc659f5e3e670eabd40305d612b07e4fefb0db6d0fdbdbbfc96bc6037dc90b584bc0f258b08f4ffff258b00f581e0bf601cb63c13e60792cd8072c8f05fb80e5b1601fb03c16ec0396c7827dc0f258b00f581e0bf601cb63c13e60792cd8072c8f05fb80e5b1601fb03c16ec0396c7827dc0f258b00f581e0bf601cb63c13e60156b774cf56f6ec09ad57d6edb46601dff9317b0e605ac89010b5847166b5e8afb068b3531160b5847168bc512b40316b080951b1fc72ad68ec59a99e22a70789f188777601d39bcb3588276c00216b072e3f05eac1d8b3533c555e0f03e310eefc03a727867b104ed80052c60e5c6e1bd583b166b668aabc0e17d621cde8175e4f0ce6209da01ab0258cfb96dab6b07ac1a60fdc86c5b5d4d08023b6055002bd715b08cabf5c30d2cd6c4785608ac23cf0aed178b5be1c4582c16ebc862b1588276c0aa001687f789712b9c1767ac89018bc53a72c6b2bf15b2581363b158ac238bc56209da01ab02583c2b9c18b7c27971c69a18b058ac23672cfb5b218b3531168bc53ab2582c96a01db02a8065ffac70b7f897a36cb12efe4d5efe93272f828c61fd94744ca5f8176d820b588a8c61edda8675b0be7cc062b144b1582c96246071c692042c164b12b0582c49c062b124018bc592042c164b12b0582c49c062b124018bc592042c164b12b0582c49c062b124018bc592042c164b12b0582c49c062b124018bc5720aeb65932af725ef3fde5efabdcbf8aae8f9dfe7d157cdbfe87efcb6e90e56b6a1abb06a6b5bee1382c63d97bdacc02ad816580563b1cac462712b94042c60490216b024010b589280052c49c002962460014b12b080250958c092042c60490216b024010b589280052c49c002962460014b12b080250958c09204ac7a616d77596fe9f2dee7f4cffb0056c5b02aec27b09a7fcdfbb5cd31ed27b09a87c562cd884fff62b124018bc592042c164b12b0582c49c062b124018bc592042c164b12b0582c49c062b124018bc592042c164b12b0582c49c062b124018bc592042c164b12b0582c49c062b124016b9eac3f9f1451d3373fa7c62753d4fbd2e4a67bd62c138bd57bcfc062b114010b589280052c49c002962460014b124d0802b080250958c092042c60490216b024010b589280052c49c002962460014b12b080250958c092042c60490216b024010b589280052c6075f6fff3de74cfbce61d588a80052c49c002962460014b12b080250958c092042c60490216b024010b589280052c49c002962460014b12b080250958c092042c60490216b024010b589280052c49c002962460014b12b080250958c092042c60490216b024010b589280052c49c002962460014b12b080250958c092042c60490216b024010b589280052c49c002962460014b12b080250958c092042c60490216b024010b589280052c49c002962460014b12b080250958c092042c60490216b024010b589280052c49c002962460014b12b080250958c092042c60490216b024010b589280052c49c002962460014b12b080250958c092042c60490216b024010b589280052c49c002962460014b12b080250958c092042c60490216b024010b589280052c49c002962460014b12b080250958c092042c60490216b024010b589280052c49c00296a4fe606d52fdf8f19cf7e5677d3d9bb6e90d56bafbbc369b5d7d859e720aeb1958c63985c56259e714168b659d53582c96754e61b158d63985c56259e714168b659d53582c96754e61b158d63985c56259e714168b659d53582c96754e61b158d63985c56259e714168b659d53582c96754e61b158d63985c56259e714168b659d53582c96754e61b12358d63985c56259e714168b158cfb2f56ad72eb247198d10000000049454e44ae4260826821c074e0898d1b749f3903999eaa385f2b0764c9472b9c519c291709618090e54c2600000000"
}