{
  "txid": "c2a49fa150934affe9c501080df700b8dc073ed57ba87febfac8743e46d3138d",
  "version": 1,
  "locktime": 0,
  "vin": [
    {
      "txid": "b36a8ae301bfa2709ffa100035206c2b67dea71640bfd734bd4be52f3875999d",
      "vout": 0,
      "prevout": {
        "scriptpubkey": "5120c0921f41ab6de5974740dd19255177c601371c98992673c352f6fccfdf0da91b",
        "scriptpubkey_asm": "OP_PUSHNUM_1 OP_PUSHBYTES_32 c0921f41ab6de5974740dd19255177c601371c98992673c352f6fccfdf0da91b",
        "scriptpubkey_type": "v1_p2tr",
        "scriptpubkey_address": "bc1pczfp7sdtdhjew36qm5vj25thccqnw8ycnyn88s6j7m7vlhcd4ydsd483kv",
        "value": 2710
      },
      "scriptsig": "",
      "scriptsig_asm": "",
      "witness": [
        "dce35e28ffe7c8ac750d6467956748dc7ed517095ae272342f94b66775f73d181a8da82758f65db5b73e0cbfbb47333181e5e74a69e056afeab2481984d7b2f783",
        "20be11f1d0580232188e877ef283eb5a1efd4e9e5290a2633605d666f59ad3fff2ac00630461746f6d03646d742ca16461726773a36b6d696e745f7469636b657263627463656e6f6e63651a0089b96b6474696d651a65f10e8a68",
        "c1be11f1d0580232188e877ef283eb5a1efd4e9e5290a2633605d666f59ad3fff2"
      ],
      "is_coinbase": false,
      "sequence": 4294967293
    }
  ],
  "vout": [
    {
      "scriptpubkey": "51209d6dbbf9bad17d0135e06ea56ec304df985f9f9bc809fa52ae6789a0947e0300",
      "scriptpubkey_asm": "OP_PUSHNUM_1 OP_PUSHBYTES_32 9d6dbbf9bad17d0135e06ea56ec304df985f9f9bc809fa52ae6789a0947e0300",
      "scriptpubkey_type": "v1_p2tr",
      "scriptpubkey_address": "bc1pn4kmh7d6697szd0qd6jkascym7v9l8umeqyl554wv7y6p9r7qvqquzkndh",
      "value": 1000
    }
  ],
  "size": 289,
  "weight": 571,
  "fee": 1710,
  "status": {
    "confirmed": true,
    "block_height": 834460,
    "block_hash": "00000000000000000000484a79b643b2524bbce82e5d8a442013fa5b8905ed98",
    "block_time": 1710307468
  },
  "hex": "010000000001019d9975382fe54bbd34d7bf4016a7de672b6c20350010fa9f70a2bf01e38a6ab30000000000fdffffff01e8030000000000002251209d6dbbf9bad17d0135e06ea56ec304df985f9f9bc809fa52ae6789a0947e03000341dce35e28ffe7c8ac750d6467956748dc7ed517095ae272342f94b66775f73d181a8da82758f65db5b73e0cbfbb47333181e5e74a69e056afeab2481984d7b2f7835b20be11f1d0580232188e877ef283eb5a1efd4e9e5290a2633605d666f59ad3fff2ac00630461746f6d03646d742ca16461726773a36b6d696e745f7469636b657263627463656e6f6e63651a0089b96b6474696d651a65f10e8a6821c1be11f1d0580232188e877ef283eb5a1efd4e9e5290a2633605d666f59ad3fff200000000"
}