{
  "txid": "c2c168690e01aba6b48175236ae192a20c9a6b11889cee6df4455d5e30b98597",
  "version": 2,
  "locktime": 0,
  "vin": [
    {
      "txid": "2322028386b018874a655280481f61b0394532a6c7e9c94f5d90902d7a200c3e",
      "vout": 126,
      "prevout": {
        "scriptpubkey": "5120a1476e1a836979e80f3bf3c05c841e977616b85b595d4ea117929824afbc60c5",
        "scriptpubkey_asm": "OP_PUSHNUM_1 OP_PUSHBYTES_32 a1476e1a836979e80f3bf3c05c841e977616b85b595d4ea117929824afbc60c5",
        "scriptpubkey_type": "v1_p2tr",
        "scriptpubkey_address": "bc1p59rkux5rd9u7srem70q9epq7jampdwzmt9w5agghj2vzftauvrzs3sder0",
        "value": 1069174
      },
      "scriptsig": "",
      "scriptsig_asm": "",
      "witness": [
        "2b0664732a9c281537c6815b779489ed9d2e382783d8087a0e08698cd04a75f78cd67f104afae4816a63cd40538abad883e38836f81c2c591b86096b93bcf154"
      ],
      "is_coinbase": false,
      "sequence": 4294967295
    }
  ],
  "vout": [
    {
      "scriptpubkey": "5120a1476e1a836979e80f3bf3c05c841e977616b85b595d4ea117929824afbc60c5",
      "scriptpubkey_asm": "OP_PUSHNUM_1 OP_PUSHBYTES_32 a1476e1a836979e80f3bf3c05c841e977616b85b595d4ea117929824afbc60c5",
      "scriptpubkey_type": "v1_p2tr",
      "scriptpubkey_address": "bc1p59rkux5rd9u7srem70q9epq7jampdwzmt9w5agghj2vzftauvrzs3sder0",
      "value": 600
    },
    {
      "scriptpubkey": "5120a1476e1a836979e80f3bf3c05c841e977616b85b595d4ea117929824afbc60c5",
      "scriptpubkey_asm": "OP_PUSHNUM_1 OP_PUSHBYTES_32 a1476e1a836979e80f3bf3c05c841e977616b85b595d4ea117929824afbc60c5",
      "scriptpubkey_type": "v1_p2tr",
      "scriptpubkey_address": "bc1p59rkux5rd9u7srem70q9epq7jampdwzmt9w5agghj2vzftauvrzs3sder0",
      "value": 600
    },
    {
      "scriptpubkey": "5120a1476e1a836979e80f3bf3c05c841e977616b85b595d4ea117929824afbc60c5",
      "scriptpubkey_asm": "OP_PUSHNUM_1 OP_PUSHBYTES_32 a1476e1a836979e80f3bf3c05c841e977616b85b595d4ea117929824afbc60c5",
      "scriptpubkey_type": "v1_p2tr",
      "scriptpubkey_address": "bc1p59rkux5rd9u7srem70q9epq7jampdwzmt9w5agghj2vzftauvrzs3sder0",
      "value": 600
    },
    {
      "scriptpubkey": "5120a1476e1a836979e80f3bf3c05c841e977616b85b595d4ea117929824afbc60c5",
      "scriptpubkey_asm": "OP_PUSHNUM_1 OP_PUSHBYTES_32 a1476e1a836979e80f3bf3c05c841e977616b85b595d4ea117929824afbc60c5",
      "scriptpubkey_type": "v1_p2tr",
      "scriptpubkey_address": "bc1p59rkux5rd9u7srem70q9epq7jampdwzmt9w5agghj2vzftauvrzs3sder0",
      "value": 600
    },
    {
      "scriptpubkey": "5120a1476e1a836979e80f3bf3c05c841e977616b85b595d4ea117929824afbc60c5",
      "scriptpubkey_asm": "OP_PUSHNUM_1 OP_PUSHBYTES_32 a1476e1a836979e80f3bf3c05c841e977616b85b595d4ea117929824afbc60c5",
      "scriptpubkey_type": "v1_p2tr",
      "scriptpubkey_address": "bc1p59rkux5rd9u7srem70q9epq7jampdwzmt9w5agghj2vzftauvrzs3sder0",
      "value": 600
    },
    {
      "scriptpubkey": "5120a1476e1a836979e80f3bf3c05c841e977616b85b595d4ea117929824afbc60c5",
      "scriptpubkey_asm": "OP_PUSHNUM_1 OP_PUSHBYTES_32 a1476e1a836979e80f3bf3c05c841e977616b85b595d4ea117929824afbc60c5",
      "scriptpubkey_type": "v1_p2tr",
      "scriptpubkey_address": "bc1p59rkux5rd9u7srem70q9epq7jampdwzmt9w5agghj2vzftauvrzs3sder0",
      "value": 600
    },
    {
      "scriptpubkey": "5120a1476e1a836979e80f3bf3c05c841e977616b85b595d4ea117929824afbc60c5",
      "scriptpubkey_asm": "OP_PUSHNUM_1 OP_PUSHBYTES_32 a1476e1a836979e80f3bf3c05c841e977616b85b595d4ea117929824afbc60c5",
      "scriptpubkey_type": "v1_p2tr",
      "scriptpubkey_address": "bc1p59rkux5rd9u7srem70q9epq7jampdwzmt9w5agghj2vzftauvrzs3sder0",
      "value": 600
    },
    {
      "scriptpubkey": "5120a1476e1a836979e80f3bf3c05c841e977616b85b595d4ea117929824afbc60c5",
      "scriptpubkey_asm": "OP_PUSHNUM_1 OP_PUSHBYTES_32 a1476e1a836979e80f3bf3c05c841e977616b85b595d4ea117929824afbc60c5",
      "scriptpubkey_type": "v1_p2tr",
      "scriptpubkey_address": "bc1p59rkux5rd9u7srem70q9epq7jampdwzmt9w5agghj2vzftauvrzs3sder0",
      "value": 600
    },
    {
      "scriptpubkey": "5120a1476e1a836979e80f3bf3c05c841e977616b85b595d4ea117929824afbc60c5",
      "scriptpubkey_asm": "OP_PUSHNUM_1 OP_PUSHBYTES_32 a1476e1a836979e80f3bf3c05c841e977616b85b595d4ea117929824afbc60c5",
      "scriptpubkey_type": "v1_p2tr",
      "scriptpubkey_address": "bc1p59rkux5rd9u7srem70q9epq7jampdwzmt9w5agghj2vzftauvrzs3sder0",
      "value": 600
    },
    {
      "scriptpubkey": "5120a1476e1a836979e80f3bf3c05c841e977616b85b595d4ea117929824afbc60c5",
      "scriptpubkey_asm": "OP_PUSHNUM_1 OP_PUSHBYTES_32 a1476e1a836979e80f3bf3c05c841e977616b85b595d4ea117929824afbc60c5",
      "scriptpubkey_type": "v1_p2tr",
      "scriptpubkey_address": "bc1p59rkux5rd9u7srem70q9epq7jampdwzmt9w5agghj2vzftauvrzs3sder0",
      "value": 600
    },
    {
      "scriptpubkey": "5120a1476e1a836979e80f3bf3c05c841e977616b85b595d4ea117929824afbc60c5",
      "scriptpubkey_asm": "OP_PUSHNUM_1 OP_PUSHBYTES_32 a1476e1a836979e80f3bf3c05c841e977616b85b595d4ea117929824afbc60c5",
      "scriptpubkey_type": "v1_p2tr",
      "scriptpubkey_address": "bc1p59rkux5rd9u7srem70q9epq7jampdwzmt9w5agghj2vzftauvrzs3sder0",
      "value": 600
    },
    {
      "scriptpubkey": "5120a1476e1a836979e80f3bf3c05c841e977616b85b595d4ea117929824afbc60c5",
      "scriptpubkey_asm": "OP_PUSHNUM_1 OP_PUSHBYTES_32 a1476e1a836979e80f3bf3c05c841e977616b85b595d4ea117929824afbc60c5",
      "scriptpubkey_type": "v1_p2tr",
      "scriptpubkey_address": "bc1p59rkux5rd9u7srem70q9epq7jampdwzmt9w5agghj2vzftauvrzs3sder0",
      "value": 600
    },
    {
      "scriptpubkey": "5120a1476e1a836979e80f3bf3c05c841e977616b85b595d4ea117929824afbc60c5",
      "scriptpubkey_asm": "OP_PUSHNUM_1 OP_PUSHBYTES_32 a1476e1a836979e80f3bf3c05c841e977616b85b595d4ea117929824afbc60c5",
      "scriptpubkey_type": "v1_p2tr",
      "scriptpubkey_address": "bc1p59rkux5rd9u7srem70q9epq7jampdwzmt9w5agghj2vzftauvrzs3sder0",
      "value": 600
    },
    {
      "scriptpubkey": "5120a1476e1a836979e80f3bf3c05c841e977616b85b595d4ea117929824afbc60c5",
      "scriptpubkey_asm": "OP_PUSHNUM_1 OP_PUSHBYTES_32 a1476e1a836979e80f3bf3c05c841e977616b85b595d4ea117929824afbc60c5",
      "scriptpubkey_type": "v1_p2tr",
      "scriptpubkey_address": "bc1p59rkux5rd9u7srem70q9epq7jampdwzmt9w5agghj2vzftauvrzs3sder0",
      "value": 600
    },
    {
      "scriptpubkey": "5120a1476e1a836979e80f3bf3c05c841e977616b85b595d4ea117929824afbc60c5",
      "scriptpubkey_asm": "OP_PUSHNUM_1 OP_PUSHBYTES_32 a1476e1a836979e80f3bf3c05c841e977616b85b595d4ea117929824afbc60c5",
      "scriptpubkey_type": "v1_p2tr",
      "scriptpubkey_address": "bc1p59rkux5rd9u7srem70q9epq7jampdwzmt9w5agghj2vzftauvrzs3sder0",
      "value": 600
    },
    {
      "scriptpubkey": "5120a1476e1a836979e80f3bf3c05c841e977616b85b595d4ea117929824afbc60c5",
      "scriptpubkey_asm": "OP_PUSHNUM_1 OP_PUSHBYTES_32 a1476e1a836979e80f3bf3c05c841e977616b85b595d4ea117929824afbc60c5",
      "scriptpubkey_type": "v1_p2tr",
      "scriptpubkey_address": "bc1p59rkux5rd9u7srem70q9epq7jampdwzmt9w5agghj2vzftauvrzs3sder0",
      "value": 600
    },
    {
      "scriptpubkey": "5120a1476e1a836979e80f3bf3c05c841e977616b85b595d4ea117929824afbc60c5",
      "scriptpubkey_asm": "OP_PUSHNUM_1 OP_PUSHBYTES_32 a1476e1a836979e80f3bf3c05c841e977616b85b595d4ea117929824afbc60c5",
      "scriptpubkey_type": "v1_p2tr",
      "scriptpubkey_address": "bc1p59rkux5rd9u7srem70q9epq7jampdwzmt9w5agghj2vzftauvrzs3sder0",
      "value": 600
    },
    {
      "scriptpubkey": "5120a1476e1a836979e80f3bf3c05c841e977616b85b595d4ea117929824afbc60c5",
      "scriptpubkey_asm": "OP_PUSHNUM_1 OP_PUSHBYTES_32 a1476e1a836979e80f3bf3c05c841e977616b85b595d4ea117929824afbc60c5",
      "scriptpubkey_type": "v1_p2tr",
      "scriptpubkey_address": "bc1p59rkux5rd9u7srem70q9epq7jampdwzmt9w5agghj2vzftauvrzs3sder0",
      "value": 600
    },
    {
      "scriptpubkey": "5120a1476e1a836979e80f3bf3c05c841e977616b85b595d4ea117929824afbc60c5",
      "scriptpubkey_asm": "OP_PUSHNUM_1 OP_PUSHBYTES_32 a1476e1a836979e80f3bf3c05c841e977616b85b595d4ea117929824afbc60c5",
      "scriptpubkey_type": "v1_p2tr",
      "scriptpubkey_address": "bc1p59rkux5rd9u7srem70q9epq7jampdwzmt9w5agghj2vzftauvrzs3sder0",
      "value": 600
    },
    {
      "scriptpubkey": "5120a1476e1a836979e80f3bf3c05c841e977616b85b595d4ea117929824afbc60c5",
      "scriptpubkey_asm": "OP_PUSHNUM_1 OP_PUSHBYTES_32 a1476e1a836979e80f3bf3c05c841e977616b85b595d4ea117929824afbc60c5",
      "scriptpubkey_type": "v1_p2tr",
      "scriptpubkey_address": "bc1p59rkux5rd9u7srem70q9epq7jampdwzmt9w5agghj2vzftauvrzs3sder0",
      "value": 600
    },
    {
      "scriptpubkey": "5120a1476e1a836979e80f3bf3c05c841e977616b85b595d4ea117929824afbc60c5",
      "scriptpubkey_asm": "OP_PUSHNUM_1 OP_PUSHBYTES_32 a1476e1a836979e80f3bf3c05c841e977616b85b595d4ea117929824afbc60c5",
      "scriptpubkey_type": "v1_p2tr",
      "scriptpubkey_address": "bc1p59rkux5rd9u7srem70q9epq7jampdwzmt9w5agghj2vzftauvrzs3sder0",
      "value": 600
    },
    {
      "scriptpubkey": "5120a1476e1a836979e80f3bf3c05c841e977616b85b595d4ea117929824afbc60c5",
      "scriptpubkey_asm": "OP_PUSHNUM_1 OP_PUSHBYTES_32 a1476e1a836979e80f3bf3c05c841e977616b85b595d4ea117929824afbc60c5",
      "scriptpubkey_type": "v1_p2tr",
      "scriptpubkey_address": "bc1p59rkux5rd9u7srem70q9epq7jampdwzmt9w5agghj2vzftauvrzs3sder0",
      "value": 600
    },
    {
      "scriptpubkey": "5120a1476e1a836979e80f3bf3c05c841e977616b85b595d4ea117929824afbc60c5",
      "scriptpubkey_asm": "OP_PUSHNUM_1 OP_PUSHBYTES_32 a1476e1a836979e80f3bf3c05c841e977616b85b595d4ea117929824afbc60c5",
      "scriptpubkey_type": "v1_p2tr",
      "scriptpubkey_address": "bc1p59rkux5rd9u7srem70q9epq7jampdwzmt9w5agghj2vzftauvrzs3sder0",
      "value": 600
    },
    {
      "scriptpubkey": "5120a1476e1a836979e80f3bf3c05c841e977616b85b595d4ea117929824afbc60c5",
      "scriptpubkey_asm": "OP_PUSHNUM_1 OP_PUSHBYTES_32 a1476e1a836979e80f3bf3c05c841e977616b85b595d4ea117929824afbc60c5",
      "scriptpubkey_type": "v1_p2tr",
      "scriptpubkey_address": "bc1p59rkux5rd9u7srem70q9epq7jampdwzmt9w5agghj2vzftauvrzs3sder0",
      "value": 600
    },
    {
      "scriptpubkey": "5120a1476e1a836979e80f3bf3c05c841e977616b85b595d4ea117929824afbc60c5",
      "scriptpubkey_asm": "OP_PUSHNUM_1 OP_PUSHBYTES_32 a1476e1a836979e80f3bf3c05c841e977616b85b595d4ea117929824afbc60c5",
      "scriptpubkey_type": "v1_p2tr",
      "scriptpubkey_address": "bc1p59rkux5rd9u7srem70q9epq7jampdwzmt9w5agghj2vzftauvrzs3sder0",
      "value": 600
    },
    {
      "scriptpubkey": "5120a1476e1a836979e80f3bf3c05c841e977616b85b595d4ea117929824afbc60c5",
      "scriptpubkey_asm": "OP_PUSHNUM_1 OP_PUSHBYTES_32 a1476e1a836979e80f3bf3c05c841e977616b85b595d4ea117929824afbc60c5",
      "scriptpubkey_type": "v1_p2tr",
      "scriptpubkey_address": "bc1p59rkux5rd9u7srem70q9epq7jampdwzmt9w5agghj2vzftauvrzs3sder0",
      "value": 600
    },
    {
      "scriptpubkey": "5120a1476e1a836979e80f3bf3c05c841e977616b85b595d4ea117929824afbc60c5",
      "scriptpubkey_asm": "OP_PUSHNUM_1 OP_PUSHBYTES_32 a1476e1a836979e80f3bf3c05c841e977616b85b595d4ea117929824afbc60c5",
      "scriptpubkey_type": "v1_p2tr",
      "scriptpubkey_address": "bc1p59rkux5rd9u7srem70q9epq7jampdwzmt9w5agghj2vzftauvrzs3sder0",
      "value": 600
    },
    {
      "scriptpubkey": "5120a1476e1a836979e80f3bf3c05c841e977616b85b595d4ea117929824afbc60c5",
      "scriptpubkey_asm": "OP_PUSHNUM_1 OP_PUSHBYTES_32 a1476e1a836979e80f3bf3c05c841e977616b85b595d4ea117929824afbc60c5",
      "scriptpubkey_type": "v1_p2tr",
      "scriptpubkey_address": "bc1p59rkux5rd9u7srem70q9epq7jampdwzmt9w5agghj2vzftauvrzs3sder0",
      "value": 600
    },
    {
      "scriptpubkey": "5120a1476e1a836979e80f3bf3c05c841e977616b85b595d4ea117929824afbc60c5",
      "scriptpubkey_asm": "OP_PUSHNUM_1 OP_PUSHBYTES_32 a1476e1a836979e80f3bf3c05c841e977616b85b595d4ea117929824afbc60c5",
      "scriptpubkey_type": "v1_p2tr",
      "scriptpubkey_address": "bc1p59rkux5rd9u7srem70q9epq7jampdwzmt9w5agghj2vzftauvrzs3sder0",
      "value": 1031318
    }
  ],
  "size": 1366,
  "weight": 5260,
  "fee": 21056,
  "status": {
    "confirmed": true,
    "block_height": 834638,
    "block_hash": "000000000000000000025f742c626208ac87e0b7d15054abb4a19ca2d735a54e",
    "block_time": 1710405325
  },
  "hex": "020000000001013e0c207a2d90905d4fc9e9c7a6324539b0611f488052654a8718b086830222237e00000000ffffffff1d5802000000000000225120a1476e1a836979e80f3bf3c05c841e977616b85b595d4ea117929824afbc60c55802000000000000225120a1476e1a836979e80f3bf3c05c841e977616b85b595d4ea117929824afbc60c55802000000000000225120a1476e1a836979e80f3bf3c05c841e977616b85b595d4ea117929824afbc60c55802000000000000225120a1476e1a836979e80f3bf3c05c841e977616b85b595d4ea117929824afbc60c55802000000000000225120a1476e1a836979e80f3bf3c05c841e977616b85b595d4ea117929824afbc60c55802000000000000225120a1476e1a836979e80f3bf3c05c841e977616b85b595d4ea117929824afbc60c55802000000000000225120a1476e1a836979e80f3bf3c05c841e977616b85b595d4ea117929824afbc60c55802000000000000225120a1476e1a836979e80f3bf3c05c841e977616b85b595d4ea117929824afbc60c55802000000000000225120a1476e1a836979e80f3bf3c05c841e977616b85b595d4ea117929824afbc60c55802000000000000225120a1476e1a836979e80f3bf3c05c841e977616b85b595d4ea117929824afbc60c55802000000000000225120a1476e1a836979e80f3bf3c05c841e977616b85b595d4ea117929824afbc60c55802000000000000225120a1476e1a836979e80f3bf3c05c841e977616b85b595d4ea117929824afbc60c55802000000000000225120a1476e1a836979e80f3bf3c05c841e977616b85b595d4ea117929824afbc60c55802000000000000225120a1476e1a836979e80f3bf3c05c841e977616b85b595d4ea117929824afbc60c55802000000000000225120a1476e1a836979e80f3bf3c05c841e977616b85b595d4ea117929824afbc60c55802000000000000225120a1476e1a836979e80f3bf3c05c841e977616b85b595d4ea117929824afbc60c55802000000000000225120a1476e1a836979e80f3bf3c05c841e977616b85b595d4ea117929824afbc60c55802000000000000225120a1476e1a836979e80f3bf3c05c841e977616b85b595d4ea117929824afbc60c55802000000000000225120a1476e1a836979e80f3bf3c05c841e977616b85b595d4ea117929824afbc60c55802000000000000225120a1476e1a836979e80f3bf3c05c841e977616b85b595d4ea117929824afbc60c55802000000000000225120a1476e1a836979e80f3bf3c05c841e977616b85b595d4ea117929824afbc60c55802000000000000225120a1476e1a836979e80f3bf3c05c841e977616b85b595d4ea117929824afbc60c55802000000000000225120a1476e1a836979e80f3bf3c05c841e977616b85b595d4ea117929824afbc60c55802000000000000225120a1476e1a836979e80f3bf3c05c841e977616b85b595d4ea117929824afbc60c55802000000000000225120a1476e1a836979e80f3bf3c05c841e977616b85b595d4ea117929824afbc60c55802000000000000225120a1476e1a836979e80f3bf3c05c841e977616b85b595d4ea117929824afbc60c55802000000000000225120a1476e1a836979e80f3bf3c05c841e977616b85b595d4ea117929824afbc60c55802000000000000225120a1476e1a836979e80f3bf3c05c841e977616b85b595d4ea117929824afbc60c596bc0f0000000000225120a1476e1a836979e80f3bf3c05c841e977616b85b595d4ea117929824afbc60c501402b0664732a9c281537c6815b779489ed9d2e382783d8087a0e08698cd04a75f78cd67f104afae4816a63cd40538abad883e38836f81c2c591b86096b93bcf15400000000"
}