{
  "txid": "c2c56999ea052ec49d03b25d7f3d92104b36546c3a53bf20992fc4336d3c8db4",
  "version": 2,
  "locktime": 0,
  "vin": [
    {
      "txid": "4ee77778659dcfe8d7a4e15882fc6193f4f3d5f6607624e256337b44c2280af5",
      "vout": 98,
      "prevout": {
        "scriptpubkey": "5120d288168c817900bb6c2b93d5677b0d29c04dcfd08975ebf3772099cffd9f8aaf",
        "scriptpubkey_asm": "OP_PUSHNUM_1 OP_PUSHBYTES_32 d288168c817900bb6c2b93d5677b0d29c04dcfd08975ebf3772099cffd9f8aaf",
        "scriptpubkey_type": "v1_p2tr",
        "scriptpubkey_address": "bc1p62ypdryp0yqtkmptj02kw7cd98qymn7s3967humhyzvullvl32hsers0ej",
        "value": 2075
      },
      "scriptsig": "",
      "scriptsig_asm": "",
      "witness": [
        "fd73040660e1d99841c293759c4f4a0d7cd469464c003e8bab699531da86c52ecefdc9e4523b2af371bf843ec8465e1ebc7514f1a634061a007d1ba8b3d76b69",
        "2055d1814a705bdc3f78904cb1ba3d3adea03b0c2101431aa9279fb0d09f5679e0ac0063036f7264010118746578742f706c61696e3b636861727365743d7574662d3800357b2270223a224252432d313030222c226f70223a226d696e74222c227469636b223a22696e73222c22616d74223a2231303030227d68",
        "c1c50eac15d7d7889f5ad84f80015e8a209129aeea937c37fa4b8bc0f9be289730"
      ],
      "is_coinbase": false,
      "sequence": 4294967295
    }
  ],
  "vout": [
    {
      "scriptpubkey": "00143e2325412b554cacdd163a93a42204c4707f8851",
      "scriptpubkey_asm": "OP_0 OP_PUSHBYTES_20 3e2325412b554cacdd163a93a42204c4707f8851",
      "scriptpubkey_type": "v0_p2wpkh",
      "scriptpubkey_address": "bc1q8c3j2sft24x2ehgk82f6ggsyc3c8lzz3yw9wsu",
      "value": 546
    }
  ],
  "size": 308,
  "weight": 554,
  "fee": 1529,
  "status": {
    "confirmed": true,
    "block_height": 834464,
    "block_hash": "0000000000000000000177a0869a911a2b65c9bdcd5a8bcb02b68f305bee848e",
    "block_time": 1710308296
  },
  "hex": "02000000000101f50a28c2447b3356e2247660f6d5f3f49361fc8258e1a4d7e8cf9d657877e74e6200000000ffffffff0122020000000000001600143e2325412b554cacdd163a93a42204c4707f88510340fd73040660e1d99841c293759c4f4a0d7cd469464c003e8bab699531da86c52ecefdc9e4523b2af371bf843ec8465e1ebc7514f1a634061a007d1ba8b3d76b697b2055d1814a705bdc3f78904cb1ba3d3adea03b0c2101431aa9279fb0d09f5679e0ac0063036f7264010118746578742f706c61696e3b636861727365743d7574662d3800357b2270223a224252432d313030222c226f70223a226d696e74222c227469636b223a22696e73222c22616d74223a2231303030227d6821c1c50eac15d7d7889f5ad84f80015e8a209129aeea937c37fa4b8bc0f9be28973000000000"
}