{
  "txid": "c2c976499bf3dff472da9252e990e49a00c66d2277eaeda63d792d4d24863638",
  "version": 1,
  "locktime": 0,
  "vin": [
    {
      "txid": "5b56c7a1b91391f6ea747bc56e022988063c511e54ef9779751db2b333cd708c",
      "vout": 23,
      "prevout": {
        "scriptpubkey": "0014df8a461b2483c77191663357238762ac785bc393",
        "scriptpubkey_asm": "OP_0 OP_PUSHBYTES_20 df8a461b2483c77191663357238762ac785bc393",
        "scriptpubkey_type": "v0_p2wpkh",
        "scriptpubkey_address": "bc1qm79yvxeys0rhrytxxdtj8pmz43u9hsunyg6nvg",
        "value": 64942
      },
      "scriptsig": "",
      "scriptsig_asm": "",
      "witness": [
        "30450221009e7a703411be6c3e0c4829a2e90104773cb1a0310431cfbed023fd8967a4f819022043b63549a3c70ac9bd0ee308298ac4ee22ed650b1533af327d0ec469b21f629001",
        "02432d53fede68f3fd243c9532417453f714205b2adc7e80e715edf7ed8de83b36"
      ],
      "is_coinbase": false,
      "sequence": 4294967295
    }
  ],
  "vout": [
    {
      "scriptpubkey": "a914ee5f7a12f1807521112495aa991a0fa699ad9af887",
      "scriptpubkey_asm": "OP_HASH160 OP_PUSHBYTES_20 ee5f7a12f1807521112495aa991a0fa699ad9af8 OP_EQUAL",
      "scriptpubkey_type": "p2sh",
      "scriptpubkey_address": "3PRR83hW1ktRZCPDEVyQNkBmcMnyr5GypZ",
      "value": 14000
    },
    {
      "scriptpubkey": "0014df8a461b2483c77191663357238762ac785bc393",
      "scriptpubkey_asm": "OP_0 OP_PUSHBYTES_20 df8a461b2483c77191663357238762ac785bc393",
      "scriptpubkey_type": "v0_p2wpkh",
      "scriptpubkey_address": "bc1qm79yvxeys0rhrytxxdtj8pmz43u9hsunyg6nvg",
      "value": 47108
    }
  ],
  "size": 224,
  "weight": 566,
  "fee": 3834,
  "status": {
    "confirmed": true,
    "block_height": 834638,
    "block_hash": "000000000000000000025f742c626208ac87e0b7d15054abb4a19ca2d735a54e",
    "block_time": 1710405325
  },
  "hex": "010000000001018c70cd33b3b21d757997ef541e513c068829026ec57b74eaf69113b9a1c7565b1700000000ffffffff02b03600000000000017a914ee5f7a12f1807521112495aa991a0fa699ad9af88704b8000000000000160014df8a461b2483c77191663357238762ac785bc393024830450221009e7a703411be6c3e0c4829a2e90104773cb1a0310431cfbed023fd8967a4f819022043b63549a3c70ac9bd0ee308298ac4ee22ed650b1533af327d0ec469b21f6290012102432d53fede68f3fd243c9532417453f714205b2adc7e80e715edf7ed8de83b3600000000"
}