{
  "txid": "c2d29b1b02bfd7aa823367159de00034df141ba7bfe657f06e4a9e13a895ac44",
  "version": 2,
  "locktime": 0,
  "vin": [
    {
      "txid": "8486ecb4df0880316dd6e82b3971b4df187aff23765bc3a47f8d78bb53aa273c",
      "vout": 123,
      "prevout": {
        "scriptpubkey": "512079520eff030f6ae747cd5c149476c07f86e3779c5a3bbfaad3aa8c17fe9739d6",
        "scriptpubkey_asm": "OP_PUSHNUM_1 OP_PUSHBYTES_32 79520eff030f6ae747cd5c149476c07f86e3779c5a3bbfaad3aa8c17fe9739d6",
        "scriptpubkey_type": "v1_p2tr",
        "scriptpubkey_address": "bc1p09fqalcrpa4ww37dts2fgakq07rwxauutgaml2kn42xp0l5h88tqqll72z",
        "value": 2575
      },
      "scriptsig": "",
      "scriptsig_asm": "",
      "witness": [
        "ff9dfdc113673b72e8679f5592e7e81e10c31a902461f7c264e3198542b5265ed87d9e30ea6df2e06af9852d456bc0781cb8eb522f783b9fa09bc4896d4eb449",
        "20ff6097c7cba89ffa19614880f091f31902feb218975356e0e90e6c050fe3dc61ac0063036f726401010a746578742f706c61696e00367b2270223a226272632d3230222c226f70223a226d696e74222c227469636b223a2261616161222c22616d74223a223130303030227d68",
        "c0ff6097c7cba89ffa19614880f091f31902feb218975356e0e90e6c050fe3dc61"
      ],
      "is_coinbase": false,
      "sequence": 4261412863
    }
  ],
  "vout": [
    {
      "scriptpubkey": "0014ddd7ef12ea6f78edcc1e8e7afa12c01ab59f3339",
      "scriptpubkey_asm": "OP_0 OP_PUSHBYTES_20 ddd7ef12ea6f78edcc1e8e7afa12c01ab59f3339",
      "scriptpubkey_type": "v0_p2wpkh",
      "scriptpubkey_address": "bc1qmht77yh2dauwmnq73ea05ykqr26e7veea8spz6",
      "value": 546
    }
  ],
  "size": 295,
  "weight": 541,
  "fee": 2029,
  "status": {
    "confirmed": true,
    "block_height": 834460,
    "block_hash": "00000000000000000000484a79b643b2524bbce82e5d8a442013fa5b8905ed98",
    "block_time": 1710307468
  },
  "hex": "020000000001013c27aa53bb788d7fa4c35b7623ff7a18dfb471392be8d66d318008dfb4ec86847b00000000fffffffd012202000000000000160014ddd7ef12ea6f78edcc1e8e7afa12c01ab59f33390340ff9dfdc113673b72e8679f5592e7e81e10c31a902461f7c264e3198542b5265ed87d9e30ea6df2e06af9852d456bc0781cb8eb522f783b9fa09bc4896d4eb4496e20ff6097c7cba89ffa19614880f091f31902feb218975356e0e90e6c050fe3dc61ac0063036f726401010a746578742f706c61696e00367b2270223a226272632d3230222c226f70223a226d696e74222c227469636b223a2261616161222c22616d74223a223130303030227d6821c0ff6097c7cba89ffa19614880f091f31902feb218975356e0e90e6c050fe3dc6100000000"
}