{
  "txid": "c2d4276a8be2affe6e5e7824baeade0c504e7cbe2d7a2d527a349827b21a18af",
  "version": 2,
  "locktime": 0,
  "vin": [
    {
      "txid": "33198a5cbe2a53fc30099ab53009144888cef479020e7acbc065183b03c26d7b",
      "vout": 19,
      "prevout": {
        "scriptpubkey": "5120bcd50a1e78b21e7ad65588cc391d7bb167478ad075256a0a927e2123f4f2178b",
        "scriptpubkey_asm": "OP_PUSHNUM_1 OP_PUSHBYTES_32 bcd50a1e78b21e7ad65588cc391d7bb167478ad075256a0a927e2123f4f2178b",
        "scriptpubkey_type": "v1_p2tr",
        "scriptpubkey_address": "bc1phn2s58nckg0844j43rxrj8tmk9n50zksw5jk5z5j0csj8a8jz79sz4pqx2",
        "value": 2658
      },
      "scriptsig": "",
      "scriptsig_asm": "",
      "witness": [
        "3bd90dd24c076c29dbf73ae22be8cd966fa926daf28c25de1c0ec8013649e4b153354a98806142ce9a0f50f43d00530efd5b182712862f63e962f92b89d6e6d4",
        "20288772f43b004c07cbac58cdf7dce83753d21a227e3bfbfbc6e1ebb648824bafac0063036f726401011e6170706c69636174696f6e2f6a736f6e3b636861727365743d7574662d38004cbf7b2270223a22706f772d3230222c226f70223a226d696e74222c227469636b223a2250455045222c22616d74223a2231303030222c22736f6c7574696f6e223a22504550453a626331717832636c7935673578376b356a6b7376396d61346332753661646c7a78657470616e387071733a303030303030303030303030303030303030303139393431613561653132383937363539383134343239323533333030353762306461393666336465613163353a3637393831373731373739227d68",
        "c1da2c9a1920efdfbecd176e4adbb0ca1150e62509fd8a3a19d8331b0c89a8a97b"
      ],
      "is_coinbase": false,
      "sequence": 4294967295
    }
  ],
  "vout": [
    {
      "scriptpubkey": "001432b1f2511437ad495a0c2efb5c2b9aeb7e236561",
      "scriptpubkey_asm": "OP_0 OP_PUSHBYTES_20 32b1f2511437ad495a0c2efb5c2b9aeb7e236561",
      "scriptpubkey_type": "v0_p2wpkh",
      "scriptpubkey_address": "bc1qx2cly5g5x7k5jksv9ma4c2u6adlzxetpan8pqs",
      "value": 546
    }
  ],
  "size": 455,
  "weight": 701,
  "fee": 2112,
  "status": {
    "confirmed": true,
    "block_height": 834460,
    "block_hash": "00000000000000000000484a79b643b2524bbce82e5d8a442013fa5b8905ed98",
    "block_time": 1710307468
  },
  "hex": "020000000001017b6dc2033b1865c0cb7a0e0279f4ce8848140930b59a0930fc532abe5c8a19331300000000ffffffff01220200000000000016001432b1f2511437ad495a0c2efb5c2b9aeb7e23656103403bd90dd24c076c29dbf73ae22be8cd966fa926daf28c25de1c0ec8013649e4b153354a98806142ce9a0f50f43d00530efd5b182712862f63e962f92b89d6e6d4fd0c0120288772f43b004c07cbac58cdf7dce83753d21a227e3bfbfbc6e1ebb648824bafac0063036f726401011e6170706c69636174696f6e2f6a736f6e3b636861727365743d7574662d38004cbf7b2270223a22706f772d3230222c226f70223a226d696e74222c227469636b223a2250455045222c22616d74223a2231303030222c22736f6c7574696f6e223a22504550453a626331717832636c7935673578376b356a6b7376396d61346332753661646c7a78657470616e387071733a303030303030303030303030303030303030303139393431613561653132383937363539383134343239323533333030353762306461393666336465613163353a3637393831373731373739227d6821c1da2c9a1920efdfbecd176e4adbb0ca1150e62509fd8a3a19d8331b0c89a8a97b00000000"
}