{
  "txid": "c2d781875f992eac370ce0faa9e606d8d0a53930f3d30e5ebc6edda406597d4e",
  "version": 1,
  "locktime": 0,
  "vin": [
    {
      "txid": "cb76ef3080eb45360d04e8ad8d5036776a7246a6de38ac4567fc4603a0032e0d",
      "vout": 1,
      "prevout": {
        "scriptpubkey": "76a914ad1f3e115036ba0ccf4a9a41cde5e9cebf81176d88ac",
        "scriptpubkey_asm": "OP_DUP OP_HASH160 OP_PUSHBYTES_20 ad1f3e115036ba0ccf4a9a41cde5e9cebf81176d OP_EQUALVERIFY OP_CHECKSIG",
        "scriptpubkey_type": "p2pkh",
        "scriptpubkey_address": "1GnPKx7gQMmhAFqS5aAnTy76P6pnrjkEii",
        "value": 165094
      },
      "scriptsig": "483045022100a1c5428e59e71d6e6beb56e693e7fafc4a7451edaf88b5c49fd1e827d289583702204bcc3c6c952c09b3ceebb488a89c02a7809c2bfefed77734d68e095c4625735f012103711e87997eee82bae593df316312b0ff6b2b2b32f242a88d8f190693a069ca3a",
      "scriptsig_asm": "OP_PUSHBYTES_72 3045022100a1c5428e59e71d6e6beb56e693e7fafc4a7451edaf88b5c49fd1e827d289583702204bcc3c6c952c09b3ceebb488a89c02a7809c2bfefed77734d68e095c4625735f01 OP_PUSHBYTES_33 03711e87997eee82bae593df316312b0ff6b2b2b32f242a88d8f190693a069ca3a",
      "is_coinbase": false,
      "sequence": 4294967295
    }
  ],
  "vout": [
    {
      "scriptpubkey": "76a9141e23678e6b41c20587070cce2a7c2e81836d4f5288ac",
      "scriptpubkey_asm": "OP_DUP OP_HASH160 OP_PUSHBYTES_20 1e23678e6b41c20587070cce2a7c2e81836d4f52 OP_EQUALVERIFY OP_CHECKSIG",
      "scriptpubkey_type": "p2pkh",
      "scriptpubkey_address": "13kMghppsU13oY51hU7K4UiVE16JqrTjnn",
      "value": 54444
    },
    {
      "scriptpubkey": "76a9149f3fd7008dcb39ee195d68387a92324719611cc588ac",
      "scriptpubkey_asm": "OP_DUP OP_HASH160 OP_PUSHBYTES_20 9f3fd7008dcb39ee195d68387a92324719611cc5 OP_EQUALVERIFY OP_CHECKSIG",
      "scriptpubkey_type": "p2pkh",
      "scriptpubkey_address": "1FX2vAxhdKyWbAkcgMBMJm7N9oDBwyBMZJ",
      "value": 103192
    }
  ],
  "size": 226,
  "weight": 904,
  "fee": 7458,
  "status": {
    "confirmed": true,
    "block_height": 834638,
    "block_hash": "000000000000000000025f742c626208ac87e0b7d15054abb4a19ca2d735a54e",
    "block_time": 1710405325
  },
  "hex": "01000000010d2e03a00346fc6745ac38dea646726a7736508dade8040d3645eb8030ef76cb010000006b483045022100a1c5428e59e71d6e6beb56e693e7fafc4a7451edaf88b5c49fd1e827d289583702204bcc3c6c952c09b3ceebb488a89c02a7809c2bfefed77734d68e095c4625735f012103711e87997eee82bae593df316312b0ff6b2b2b32f242a88d8f190693a069ca3affffffff02acd40000000000001976a9141e23678e6b41c20587070cce2a7c2e81836d4f5288ac18930100000000001976a9149f3fd7008dcb39ee195d68387a92324719611cc588ac00000000"
}