{
  "txid": "c2d955eab9dbe4c6331b384702a74058db6eb0cd4b14c840f725bb772c46d4b0",
  "version": 1,
  "locktime": 0,
  "vin": [
    {
      "txid": "2a504af7ee3a3c4d35108a57b20ff664cdd48a7fbf6711fe508cb3a440a5a23d",
      "vout": 0,
      "prevout": {
        "scriptpubkey": "00146643a7ec4df9059cb5b10831d4c5650b03c6ad30",
        "scriptpubkey_asm": "OP_0 OP_PUSHBYTES_20 6643a7ec4df9059cb5b10831d4c5650b03c6ad30",
        "scriptpubkey_type": "v0_p2wpkh",
        "scriptpubkey_address": "bc1qvep60mzdlyzeedd3pqcaf3t9pvpudtfsfp2xhw",
        "value": 1150000
      },
      "scriptsig": "",
      "scriptsig_asm": "",
      "witness": [
        "304402202c015cb0f22173abf328ee7295d49f9e676adaf74a973e5b7d8536d9732d5d5a02206f0276b5930259aefb8c84d7a254beb93b2a3970001f9d92e0e31204cbf5933101",
        "03daf0a043b5ad24ad974b697e7fa7eaa5e8bcbe64d5c1c40690d717b7ec66a3dc"
      ],
      "is_coinbase": false,
      "sequence": 4294967295
    },
    {
      "txid": "945aff43bda9d85d984f7aceafe2bfb92e13793276badae1319b5cd79fd8f364",
      "vout": 2,
      "prevout": {
        "scriptpubkey": "0014e2590a5b2585c51df8f75d3b4eb481c4c1f43630",
        "scriptpubkey_asm": "OP_0 OP_PUSHBYTES_20 e2590a5b2585c51df8f75d3b4eb481c4c1f43630",
        "scriptpubkey_type": "v0_p2wpkh",
        "scriptpubkey_address": "bc1qufvs5ke9shz3m78ht5a5adypcnqlgd3sa49wqv",
        "value": 943250
      },
      "scriptsig": "",
      "scriptsig_asm": "",
      "witness": [
        "304402205fb74590b54e4153c175072d3315ca0d1c336b955a6f64f02178387f87dc9a8b02207eca8ace0b88323896514ed2285e3c7c6274451a3ad1b2b4596519522644981f01",
        "02b0da1cab45534776d8c400901893d03442328972f57b86819daf1a7136c0fd56"
      ],
      "is_coinbase": false,
      "sequence": 4294967295
    },
    {
      "txid": "289375aaf8fbac379df580b5e1ee4b400f2d2bea8e89206c19ff56b97428bd64",
      "vout": 0,
      "prevout": {
        "scriptpubkey": "00144ea8d14bb658be99e7e213a317287e55df0af42a",
        "scriptpubkey_asm": "OP_0 OP_PUSHBYTES_20 4ea8d14bb658be99e7e213a317287e55df0af42a",
        "scriptpubkey_type": "v0_p2wpkh",
        "scriptpubkey_address": "bc1qf65dzjaktzlfnelzzw33w2r72h0s4ap25h4t9t",
        "value": 1200000
      },
      "scriptsig": "",
      "scriptsig_asm": "",
      "witness": [
        "3045022100d8900015c9cb07d105ef798587e273aa9ef8b9eaaf8183623b9b43eed8f5f0c302202080cbae5eee49745ecf2d228831c88d301de975c9f6e2f51a25904ed19a5ada01",
        "03e95930ca2f6015c4b4f620d633a732483caa4de56f32cd4c580e61035f437590"
      ],
      "is_coinbase": false,
      "sequence": 4294967295
    },
    {
      "txid": "4309619eb1fe1ced54d6915d52cec0f852c94e002c052d6ed8109ea0509f6488",
      "vout": 2,
      "prevout": {
        "scriptpubkey": "0014487235a5c3c57447083ce2a7317dd668cc1ce664",
        "scriptpubkey_asm": "OP_0 OP_PUSHBYTES_20 487235a5c3c57447083ce2a7317dd668cc1ce664",
        "scriptpubkey_type": "v0_p2wpkh",
        "scriptpubkey_address": "bc1qfpertfwrc46ywzpuu2nnzlwkdrxpeenyrz39r3",
        "value": 801950
      },
      "scriptsig": "",
      "scriptsig_asm": "",
      "witness": [
        "304402207568a9d32594107f8517e926cf7994a798d2952d6099ff38ba028d0bbd907f59022035679842d6d91789e310559c5403d2a9ddca0568fc63359ebc1ec5bb240f45a201",
        "023afad4cf9ccd374643d6516e5b633e7c11f0a94a662bdef62ee5e0a1c5bcbc5e"
      ],
      "is_coinbase": false,
      "sequence": 4294967295
    }
  ],
  "vout": [
    {
      "scriptpubkey": "00143ce8d3b06597c129fa9ab1e3793a68cb40611c22",
      "scriptpubkey_asm": "OP_0 OP_PUSHBYTES_20 3ce8d3b06597c129fa9ab1e3793a68cb40611c22",
      "scriptpubkey_type": "v0_p2wpkh",
      "scriptpubkey_address": "bc1q8n5d8vr9jlqjn756k83hjwngedqxz8pzqj3pv5",
      "value": 4003708
    },
    {
      "scriptpubkey": "0014714823dc4319140e383bc6967bd7db67a8ce7dbf",
      "scriptpubkey_asm": "OP_0 OP_PUSHBYTES_20 714823dc4319140e383bc6967bd7db67a8ce7dbf",
      "scriptpubkey_type": "v0_p2wpkh",
      "scriptpubkey_address": "bc1qw9yz8hzrry2quwpmc6t8h47mv75vuldllzg7hq",
      "value": 87708
    }
  ],
  "size": 667,
  "weight": 1375,
  "fee": 3784,
  "status": {
    "confirmed": true,
    "block_height": 834464,
    "block_hash": "0000000000000000000177a0869a911a2b65c9bdcd5a8bcb02b68f305bee848e",
    "block_time": 1710308296
  },
  "hex": "010000000001043da2a540a4b38c50fe1167bf7f8ad4cd64f60fb2578a10354d3c3aeef74a502a0000000000ffffffff64f3d89fd75c9b31e1daba763279132eb9bfe2afce7a4f985dd8a9bd43ff5a940200000000ffffffff64bd2874b956ff196c20898eea2b2d0f404beee1b580f59d37acfbf8aa7593280000000000ffffffff88649f50a09e10d86e2d052c004ec952f8c0ce525d91d654ed1cfeb19e6109430200000000ffffffff027c173d00000000001600143ce8d3b06597c129fa9ab1e3793a68cb40611c229c56010000000000160014714823dc4319140e383bc6967bd7db67a8ce7dbf0247304402202c015cb0f22173abf328ee7295d49f9e676adaf74a973e5b7d8536d9732d5d5a02206f0276b5930259aefb8c84d7a254beb93b2a3970001f9d92e0e31204cbf59331012103daf0a043b5ad24ad974b697e7fa7eaa5e8bcbe64d5c1c40690d717b7ec66a3dc0247304402205fb74590b54e4153c175072d3315ca0d1c336b955a6f64f02178387f87dc9a8b02207eca8ace0b88323896514ed2285e3c7c6274451a3ad1b2b4596519522644981f012102b0da1cab45534776d8c400901893d03442328972f57b86819daf1a7136c0fd5602483045022100d8900015c9cb07d105ef798587e273aa9ef8b9eaaf8183623b9b43eed8f5f0c302202080cbae5eee49745ecf2d228831c88d301de975c9f6e2f51a25904ed19a5ada012103e95930ca2f6015c4b4f620d633a732483caa4de56f32cd4c580e61035f4375900247304402207568a9d32594107f8517e926cf7994a798d2952d6099ff38ba028d0bbd907f59022035679842d6d91789e310559c5403d2a9ddca0568fc63359ebc1ec5bb240f45a20121023afad4cf9ccd374643d6516e5b633e7c11f0a94a662bdef62ee5e0a1c5bcbc5e00000000"
}