{
  "txid": "c2e3f6aaf36f7c80c4d3be4b31872b8fbc69611f14f480d0ad1b2b5d0244a7a2",
  "version": 2,
  "locktime": 0,
  "vin": [
    {
      "txid": "f8a938178aacd20be758702ea9abf3a467a71b60640ea42961631e4ecb9e4127",
      "vout": 0,
      "prevout": {
        "scriptpubkey": "5120cd78b46602d66c7c4b1d28a94e5959241baf3e53190c88a76fe8010534e20e65",
        "scriptpubkey_asm": "OP_PUSHNUM_1 OP_PUSHBYTES_32 cd78b46602d66c7c4b1d28a94e5959241baf3e53190c88a76fe8010534e20e65",
        "scriptpubkey_type": "v1_p2tr",
        "scriptpubkey_address": "bc1pe4utgesz6ek8cjca9z55uk2eysd670jnryxg3fm0aqqs2d8zpejskuaty8",
        "value": 32981
      },
      "scriptsig": "",
      "scriptsig_asm": "",
      "witness": [
        "d902e9fc78bbd7192526f4ed2b42b9dff411a0ca4bcba2a71afe99b88e2c3b1a04340efe4e89f06a957f0a7bf0eb6308917323e14adbce36f10bb0103da5bdb7",
        "20f2d00e1cce0b839d2e197679cac7a15152ec244338032c7767f72c1332d49a65ac0063036f7264010109696d6167652f706e67004d080289504e470d0a1a0a0000000d49484452000000c8000000c80806000000ad58ae9e000000097048597300002e2300002e230178a53f7600000da149444154789ceddddb8e1cb71106e07daa3c69dea591fbdce5cabe73802089acd83074a2b49225cb51b5c1853a21289e596415d97f0104a49d991e76b3be2eb27b66f7e138e944c331400e50f0183ce0c000077280a2c700400004404e004112e04470b61c035410240e4e1e27804c4f82878787ff3520a4658f012ac804208042e2890e200a0e268090f87107908581a092d07ae328dd81bbe10012121f1f00913ea800724a8f01802838780042e2c71a4036c4816916ad339ed21db833104021f1f10210e538702391748fa97407766aad408084c4c70e4094030112d239a6d21dd8a5f5e20014121f4300590408aa09e91957e90eecd20084f61c57e90eecd0b871a08a90f8980208808827dfb1404305515a3d504d481c0780701c400039a59318406e8e036b120210e9645f0108a0102a8874d2af00c436e97d3f6ed2b0485f1007901080489f39b4e3001242059186b002104cb70853ac1d80d800125a6faca53b70171ca381a092108048e3d00e0448887fbca5136eb5a61d089010808492552b0e09204042a8206ef26906e2078090f82ca06acca53bd093a86ed201082ac8012000826916a182d4540f77daa26d8af5f2d93bb12916d62274bf29566e5eaf0dc8a70f9fbfe9ab8f04f74d080247483caf004408482c24ae704927dab1685ba68294249df6e9550a089090788e2d09a4e48c3c639ab503105412da0b48290e6d402c8e1410b7bfb3810009e9055233603538460369a91eef5e7ca8060224744f20ad67badad050416ce4aa870620a824a403484fc2d7c6a881af055d02c4ed6fe86740427b031901a3a4c24801b9c2defb2805e2ee536a3f5149682f203370e4a628a371f87dbaa264811eeb736e5f31dda2f5818c9a4e95ae552480b851b2408fed5fe9feb6b4dc766727de71472023d71aa9c10e3d97637fcc9fff54553d6cd4560fbfdfa381a4b62d9d8cc7ce403870949cf542cf9704e2470f906bbba381a4b62f9d90c78e4046e0280192dbd60820fe7b8c001243c80924b44dbbbfd20979ec06a41747c9a0d6be0707109b2c578bf5c98fda2b58b9fe87de8713c715eebe5e4d3a310f254d1448e9a096bc4728813980d4807df6fd0b1620a163937aac07470c0890503f90561c3df3e5dcf6fc9fcdaa1e367ef8ebf3f3dfdffdf28424f65d90d6e3947aac15861b4042bc156446e5c8254ac9d4ac07870bc47fdf50581c36ec65deeb7e48cb25dfd03ee61eef0572052a09cd01523a25aa993ea5a65ea1edb554915cf5488505e2568e6b4dc2852516b99344ac02c50248680e90dab35fe8b1d4b65215c5fdd98ceaf1f2d9dbf3bbbffcf30942e8756e55198525771c533f730340a81f888ba4648e9c1bd45825a89d3af44d0802ac45524052ef6f2b855d7fd8e602493ddf0723810648681e90dcfaa0641053286a9184b6df82a3643f6c72fffcf7d7e73ffef673d35ac09f8a855aeba23f76c228ed9fb9f9d52db6cbbc5c552437972ec5c60d24166e12e75e530aa6064eaaeae48e63e931353746c20a841b49c980c79e13fb792d9054d8c7affb1e25895753555af094548b9293911f0640e4ab88ffdcdc736a5f5f0bc4b692be5e67f0d23375edf4ab26dc6dfb604ab0c4c200c8bc2a5233c8358f970c36179054a2d502e18252f23eb93ec6a66b064018e66a05538bda2a5282a4e6ec9caa22ad404af7797435a9e953ec35b1358e0190b140fcc1a819ecdaa42879fe0c20a1e7d5bcb6264ae1d59cbcdc358e01907591d4462f909a2a107b7c3410f767a1e796f4b1e4735ae60657b3867de53677b6aa1978ce8855915a2035fd2b01d2ba9f29843daf77c300c81c20fe80d40c9e0620a1b374cdfb86fecf0924f57eb97ea5fa6100e41e552486a30408472287fedfb35dce699abbbd50184cb1745691ebf95c835f03e46af64a0e77350b4db97af689fb1885c2600da2ab8a700f7a0c470e48c90710b9fad8b36f23fb6150417420e11af452182548b81331d5d79e7d1cd90f032073818406a467c0fdd7d6c0d004a466fb9cfdca6dcb00886c156919ecd4eb5bfa0a200072f8f93b02452f921e1c3dfdd400a4f575a820b42e101f494f828c80012098621d9a80c4aa480b4d08020ece3eae56417a5f1bdb0ed620341f48ae8ad40ee088fe9502e144d2bb5d8e3e95ec9fc1225d2792d155a315081792deed71f4a9741b06370af5209909230724d69fdee0da5ecf766af6cb00880e2012385a80482535d7b66af7c700883c12291c3920b1be7124e5ec6ad4ba1f06406490c4066e665f7a81f424e50820b1eda6fa50f29be90dbe302583441a470990da64cf3d8f0b474ddf52385a8098cdbf55a81288545f4a81f424e2481cad7db30120a413c885c41ddc158070209911a5ef5dfad7b10c2a885c157107b42471a581a412500a444f94fe752c8329962c92d4979746426901124b34ae3fc536330084becd4b6d405210fce046b21a10bfeaf60680905e2017929624e5425283339768a964eb49e8d074347505adb6df256130c59201d29394a32b496da2c592ad656de23fb764add3b2f60110d25b416a1372e49a64149096857c2ef94b90d4f4bb240c2a882c909ac11981a417887fc9b4e5f26fef25e4162400426b5490161cfee392407a139c0b48ed540e4048279096440c3d9fab8ab4021991d433910008ed0324854602889f88b9bff00420b4440310c60a923a1bcf5a67f454115410da1708e7427d04902b464d99fc7f0308a182c4606805c25125524062ff2fad22a820b44f051979a9570248e9f3725523160042eb0219711f4423103f5143ff0f2573c915a8eb752511db1e2a08ad01249690a1fb1efecf3990cc044d0802124ad8d4229c2362e80084f4022945120aee4a32124849d4548ddef7700340682d20b9e41c35d5d20264747001311b7f2f5d15901492de0620f9e801623645a20e482f128eb39c7405b131a3827003311b225109a40549c940ae044422388098cd90a805520ae59aaf732201903a24367685a21e4828696bee13b49ee57a91ec5c416c704f6bb5b687653b9eb9d9e646cb229e0388fde2d49d805cb1139265815c48aea89d6ab5b4dd7ff50f17909daac9f2406a3e8f141b3800e107b20b92a5815c487aee4003c838203656bfd2b505909aa95669705ce6bdf314cb0f005186a435b163035a1b00b20792e52b888b84b38a00c89863b3da746b2b20b12ad2020540ea137d4724db00f191b855a4f4d22dd725debb4db10c1314e9fcd91e888ba414c8884bbc7703720cf82e8f741e6d0bc4472205e4dd8b0fb7027230fdf2716d48b607e23f360b888d5d8198442273af4da4a16c09a4b701483b9083e10f116982022085505ae28e15e4d80c098000c810200743354e4d790144e154ab36ee5c410ea66309200a2000c8782047c794551209a658005205c474246acf7a0e4014548cdcb4a07670779c621900914f4c6dad150980507305f18f372a88020800a2a78298c049096b10051850417400b111aada58a42b0071c72956c967c74ce7d5a458b297be9ffff319638fab580381d8a45b254a3e7d6c0601a941820aa2a06200c8b7f1e9c3674d08023620b135c50894a82000c212b67ac42adea70f9fcf9f7e78f5f4786fb2e6ae4c0188828a800af26de4707cfafa5b22b980e49a1b52d5c336ac4130c50a02b1205e7e5d97b8bf42751490523cb34f8e00d230b03b2ed2ddbe5e55e36560d1ce95b4b16d68c201208d03da9274ab5cc10a550d37b4242e8028383877016231bcfd7a1fa4e5f3588782f119d530c5029027c8ee421c4008405041fe7ff7bcb6d2195410f9d2a6aded34c572af50b5840110f984d4d64aeefaae0024b7082f090320f209a9adad0ee49a4e717c80d200887c426a6bab0271ef6970fccd4483cbbcf2c9a8b1f9895192709240dc7506673f0c80c827a3c6e62746eca3187e824a5eb6e5066a14dde19ed5701fa411880be1d58f8fe7abe78fe7e3ab5f457fbbbbbbce18f127a80d80c88bd5da729f38fdefef5fcecf1f7f7f4accf7af3f9e2ffef5f67cf5e31c2057b5aab9d9571be686386c43056102e2c7972f743ebefcf57cffe6e3393246ac33fc30ca3e4008201b0071e3e3e36fe79b9fdeb32631e765db5418651f3f07900d81d8203acff76f3e9daffff3f854596ac29d36e52e0ecc846100443e3135b558b2d4c6ebe78fc55323fbf8d566c0b071f7aa71380d6b100120359f897af6fd8ba73603c61577477100880e20575cd5e102e0c2b13866df70040e4205e939ab8c40e27e24c49d7a5dd3ab59011c840aa2b5925824fe346ae61d794cad08532ccd40624dbf010120843588f4624cc3344b1208aa0761913e03c90828a3ef94db0010029055ab49c96f5eef09dcefa0e8d8e23ec802406c0008894ca5016491e9d6a86956ecb2ee9d6f0e1e0032e6608e0432ea722fee961380cc3eeb8cac229c1f37c14d414205d9a992702fd60184006437245c408083b006d91109c7621d38a8780c71156b31241c8b75002100d91949cf621d38a86aec50418480f42069fd2e3a7050f5d8018860156985d232cdc267ada869dc00645124358b75e0a0e63103904581d4dc13c1d48a00640728b581bf2748c3c70a154419921a28b9ab59985a1180dc1949ee6a16a6560420bb22e9bd9a051cc4323e98622d8e24040438886d6c004439921c94d0e55e002100914e682dd5c45f870007b18e072ac8e240dcfb21b86a45ece301209b5411540f1a321600b2189210140b04d58300443a69b500f1a100070d1b07549085b160614ec38f3d802c8e04d58300443a393535e0a0a9c71b15643324d27d3b366b00b268030e0210e9245ca1a17ad0d0e38b0ab20910e97e1c9b360051300868a4f618008882414023b5c70040140c021aa93d0600a26010d048ed310010058380466a8fc11f64301ea88e12951f0000000049454e44ae426082680063036f726401011e6170706c69636174696f6e2f6a736f6e3b636861727365743d7574662d38004d5e017b2270223a22766f7264222c2276223a312c227479223a22696e7363222c22636f6c223a2262383533613639326462393765393436363865303137323138346466393431326161306136336331616334626138656531333634646138663834366637306232222c22696964223a2252756e65746172647373222c227075626c223a2231455337623370636a527a4667796969714c7278484b546e43686535364c4a485937222c226e6f6e6365223a373833342c226d696e746572223a2262633170376d3637666e3437796d32723277377067336836706c71616c70703863663938656535383378636835616363326e70366870327176653636736a222c22736967223a22477a66746f65737a37736743584d746c57415955766747506c492f7a5039725647484a4f4965764e2b436a534847756d324a494b544e4a6a50447367764b43716853665a5378557a6434764e32446c2f686972556f334d3d227d68",
        "c1f2d00e1cce0b839d2e197679cac7a15152ec244338032c7767f72c1332d49a65675a92934efa5e4869b2432a3e00abfc6819367af43949c2edc693b32d23ac05"
      ],
      "is_coinbase": false,
      "sequence": 4294967293
    }
  ],
  "vout": [
    {
      "scriptpubkey": "5120f6f5e4cebe26d4353bc1446fa0fc1df8427c24a7ce68789b17a771854c3ab854",
      "scriptpubkey_asm": "OP_PUSHNUM_1 OP_PUSHBYTES_32 f6f5e4cebe26d4353bc1446fa0fc1df8427c24a7ce68789b17a771854c3ab854",
      "scriptpubkey_type": "v1_p2tr",
      "scriptpubkey_address": "bc1p7m67fn47ym2r2w7pg3h6plqalpp8cf98ee583xch5acc2np6hp2qve66sj",
      "value": 1000
    },
    {
      "scriptpubkey": "a914d88afa5bba84515ecba75b9367582017e50045ea87",
      "scriptpubkey_asm": "OP_HASH160 OP_PUSHBYTES_20 d88afa5bba84515ecba75b9367582017e50045ea OP_EQUAL",
      "scriptpubkey_type": "p2sh",
      "scriptpubkey_address": "3MRzNLWfwW82tYdyTRBeu7xzBNSV8cZ6Lb",
      "value": 15728
    },
    {
      "scriptpubkey": "51200705a5767db892e98125775049b1a13dd9ecdc8aea0df413cabbee683e871012",
      "scriptpubkey_asm": "OP_PUSHNUM_1 OP_PUSHBYTES_32 0705a5767db892e98125775049b1a13dd9ecdc8aea0df413cabbee683e871012",
      "scriptpubkey_type": "v1_p2tr",
      "scriptpubkey_address": "bc1pquz62anahzfwnqf9wagynvdp8hv7ehy2agxlgy72h0hxs058zqfqk8ksyq",
      "value": 2910
    }
  ],
  "size": 4342,
  "weight": 4849,
  "fee": 13343,
  "status": {
    "confirmed": true,
    "block_height": 834464,
    "block_hash": "0000000000000000000177a0869a911a2b65c9bdcd5a8bcb02b68f305bee848e",
    "block_time": 1710308296
  },
  "hex": "0200000000010127419ecb4e1e636129a40e64601ba767a4f3aba92e7058e70bd2ac8a1738a9f80000000000fdffffff03e803000000000000225120f6f5e4cebe26d4353bc1446fa0fc1df8427c24a7ce68789b17a771854c3ab854703d00000000000017a914d88afa5bba84515ecba75b9367582017e50045ea875e0b0000000000002251200705a5767db892e98125775049b1a13dd9ecdc8aea0df413cabbee683e8710120340d902e9fc78bbd7192526f4ed2b42b9dff411a0ca4bcba2a71afe99b88e2c3b1a04340efe4e89f06a957f0a7bf0eb6308917323e14adbce36f10bb0103da5bdb7fdc40f20f2d00e1cce0b839d2e197679cac7a15152ec244338032c7767f72c1332d49a65ac0063036f7264010109696d6167652f706e67004d080289504e470d0a1a0a0000000d49484452000000c8000000c80806000000ad58ae9e000000097048597300002e2300002e230178a53f7600000da149444154789ceddddb8e1cb71106e07daa3c69dea591fbdce5cabe73802089acd83074a2b49225cb51b5c1853a21289e596415d97f0104a49d991e76b3be2eb27b66f7e138e944c331400e50f0183ce0c000077280a2c700400004404e004112e04470b61c035410240e4e1e27804c4f82878787ff3520a4658f012ac804208042e2890e200a0e268090f87107908581a092d07ae328dd81bbe10012121f1f00913ea800724a8f01802838780042e2c71a4036c4816916ad339ed21db833104021f1f10210e538702391748fa97407766aad408084c4c70e4094030112d239a6d21dd8a5f5e20014121f4300590408aa09e91957e90eecd20084f61c57e90eecd0b871a08a90f8980208808827dfb1404305515a3d504d481c0780701c400039a59318406e8e036b120210e9645f0108a0102a8874d2af00c436e97d3f6ed2b0485f1007901080489f39b4e3001242059186b002104cb70853ac1d80d800125a6faca53b70171ca381a092108048e3d00e0448887fbca5136eb5a61d089010808492552b0e09204042a8206ef26906e2078090f82ca06acca53bd093a86ed201082ac8012000826916a182d4540f77daa26d8af5f2d93bb12916d62274bf29566e5eaf0dc8a70f9fbfe9ab8f04f74d080247483caf004408482c24ae704927dab1685ba68294249df6e9550a089090788e2d09a4e48c3c639ab503105412da0b48290e6d402c8e1410b7bfb3810009e9055233603538460369a91eef5e7ca8060224744f20ad67badad050416ce4aa870620a824a403484fc2d7c6a881af055d02c4ed6fe86740427b031901a3a4c24801b9c2defb2805e2ee536a3f5149682f203370e4a628a371f87dbaa264811eeb736e5f31dda2f5818c9a4e95ae552480b851b2408fed5fe9feb6b4dc766727de71472023d71aa9c10e3d97637fcc9fff54553d6cd4560fbfdfa381a4b62d9d8cc7ce403870949cf542cf9704e2470f906bbba381a4b62f9d90c78e4046e0280192dbd60820fe7b8c001243c80924b44dbbbfd20979ec06a41747c9a0d6be0707109b2c578bf5c98fda2b58b9fe87de8713c715eebe5e4d3a310f254d1448e9a096bc4728813980d4807df6fd0b1620a163937aac07470c0890503f90561c3df3e5dcf6fc9fcdaa1e367ef8ebf3f3dfdffdf28424f65d90d6e3947aac15861b4042bc156446e5c8254ac9d4ac07870bc47fdf50581c36ec65deeb7e48cb25dfd03ee61eef0572052a09cd01523a25aa993ea5a65ea1edb554915cf5488505e2568e6b4dc2852516b99344ac02c50248680e90dab35fe8b1d4b65215c5fdd98ceaf1f2d9dbf3bbbffcf30942e8756e55198525771c533f730340a81f888ba4648e9c1bd45825a89d3af44d0802ac45524052ef6f2b855d7fd8e602493ddf0723810648681e90dcfaa0641053286a9184b6df82a3643f6c72fffcf7d7e73ffef673d35ac09f8a855aeba23f76c228ed9fb9f9d52db6cbbc5c552437972ec5c60d24166e12e75e530aa6064eaaeae48e63e931353746c20a841b49c980c79e13fb792d9054d8c7affb1e25895753555af094548b9293911f0640e4ab88ffdcdc736a5f5f0bc4b692be5e67f0d23375edf4ab26dc6dfb604ab0c4c200c8bc2a5233c8358f970c36179054a2d502e18252f23eb93ec6a66b064018e66a05538bda2a5282a4e6ec9caa22ad404af7797435a9e953ec35b1358e0190b140fcc1a819ecdaa42879fe0c20a1e7d5bcb6264ae1d59cbcdc358e01907591d4462f909a2a107b7c3410f767a1e796f4b1e4735ae60657b3867de53677b6aa1978ce8855915a2035fd2b01d2ba9f29843daf77c300c81c20fe80d40c9e0620a1b374cdfb86fecf0924f57eb97ea5fa6100e41e552486a30408472287fedfb35dce699abbbd50184cb1745691ebf95c835f03e46af64a0e77350b4db97af689fb1885c2600da2ab8a700f7a0c470e48c90710b9fad8b36f23fb6150417420e11af452182548b81331d5d79e7d1cd90f032073818406a467c0fdd7d6c0d004a466fb9cfdca6dcb00886c156919ecd4eb5bfa0a200072f8f93b02452f921e1c3dfdd400a4f575a820b42e101f494f828c80012098621d9a80c4aa480b4d08020ece3eae56417a5f1bdb0ed620341f48ae8ad40ee088fe9502e144d2bb5d8e3e95ec9fc1225d2792d155a315081792deed71f4a9741b06370af5209909230724d69fdee0da5ecf766af6cb00880e2012385a80482535d7b66af7c700883c12291c3920b1be7124e5ec6ad4ba1f06406490c4066e665f7a81f424e50820b1eda6fa50f29be90dbe302583441a470990da64cf3d8f0b474ddf52385a8098cdbf55a81288545f4a81f424e2481cad7db30120a413c885c41ddc158070209911a5ef5dfad7b10c2a885c157107b42471a581a412500a444f94fe752c8329962c92d4979746426901124b34ae3fc536330084becd4b6d405210fce046b21a10bfeaf60680905e2017929624e5425283339768a964eb49e8d074347505adb6df256130c59201d29394a32b496da2c592ad656de23fb764add3b2f60110d25b416a1372e49a64149096857c2ef94b90d4f4bb240c2a882c909ac11981a417887fc9b4e5f26fef25e4162400426b5490161cfee392407a139c0b48ed540e4048279096440c3d9fab8ab4021991d433910008ed0324854602889f88b9bff00420b4440310c60a923a1bcf5a67f454115410da1708e7427d04902b464d99fc7f0308a182c4606805c25125524062ff2fad22a820b44f051979a9570248e9f3725523160042eb0219711f4423103f5143ff0f2573c915a8eb752511db1e2a08ad01249690a1fb1efecf3990cc044d0802124ad8d4229c2362e80084f4022945120aee4a32124849d4548ddef7700340682d20b9e41c35d5d20264747001311b7f2f5d15901492de0620f9e801623645a20e482f128eb39c7405b131a3827003311b225109a40549c940ae044422388098cd90a805520ae59aaf732201903a24367685a21e4828696bee13b49ee57a91ec5c416c704f6bb5b687653b9eb9d9e646cb229e0388fde2d49d805cb1139265815c48aea89d6ab5b4dd7ff50f17909daac9f2406a3e8f141b3800e107b20b92a5815c487aee4003c838203656bfd2b505909aa95669705ce6bdf314cb0f005186a435b163035a1b00b20792e52b888b84b38a00c89863b3da746b2b20b12ad2020540ea137d4724db00f191b855a4f4d22dd725debb4db10c1314e9fcd91e888ba414c8884bbc7703720cf82e8f741e6d0bc4472205e4dd8b0fb7027230fdf2716d48b607e23f360b888d5d8198442273af4da4a16c09a4b701483b9083e10f116982022085505ae28e15e4d80c098000c810200743354e4d790144e154ab36ee5c410ea66309200a2000c8782047c794551209a658005205c474246acf7a0e4014548cdcb4a07670779c621900914f4c6dad150980507305f18f372a88020800a2a78298c049096b10051850417400b111aada58a42b0071c72956c967c74ce7d5a458b297be9ffff319638fab580381d8a45b254a3e7d6c0601a941820aa2a06200c8b7f1e9c3674d08023620b135c50894a82000c212b67ac42adea70f9fcf9f7e78f5f4786fb2e6ae4c0188828a800af26de4707cfafa5b22b980e49a1b52d5c336ac4130c50a02b1205e7e5d97b8bf42751490523cb34f8e00d230b03b2ed2ddbe5e55e36560d1ce95b4b16d68c201208d03da9274ab5cc10a550d37b4242e8028383877016231bcfd7a1fa4e5f3588782f119d530c5029027c8ee421c4008405041fe7ff7bcb6d2195410f9d2a6aded34c572af50b5840110f984d4d64aeefaae0024b7082f090320f209a9adad0ee49a4e717c80d200887c426a6bab0271ef6970fccd4483cbbcf2c9a8b1f9895192709240dc7506673f0c80c827a3c6e62746eca3187e824a5eb6e5066a14dde19ed5701fa411880be1d58f8fe7abe78fe7e3ab5f457fbbbbbbce18f127a80d80c88bd5da729f38fdefef5fcecf1f7f7f4accf7af3f9e2ffef5f67cf5e31c2057b5aab9d9571be686386c43056102e2c7972f743ebefcf57cffe6e3393246ac33fc30ca3e4008201b0071e3e3e36fe79b9fdeb32631e765db5418651f3f07900d81d8203acff76f3e9daffff3f854596ac29d36e52e0ecc846100443e3135b558b2d4c6ebe78fc55323fbf8d566c0b071f7aa71380d6b100120359f897af6fd8ba73603c61577477100880e20575cd5e102e0c2b13866df70040e4205e939ab8c40e27e24c49d7a5dd3ab59011c840aa2b5925824fe346ae61d794cad08532ccd40624dbf010120843588f4624cc3344b1208aa0761913e03c90828a3ef94db0010029055ab49c96f5eef09dcefa0e8d8e23ec802406c0008894ca5016491e9d6a86956ecb2ee9d6f0e1e0032e6608e0432ea722fee961380cc3eeb8cac229c1f37c14d414205d9a992702fd60184006437245c408083b006d91109c7621d38a8780c71156b31241c8b75002100d91949cf621d38a86aec50418480f42069fd2e3a7050f5d8018860156985d232cdc267ada869dc00645124358b75e0a0e63103904581d4dc13c1d48a00640728b581bf2748c3c70a154419921a28b9ab59985a1180dc1949ee6a16a6560420bb22e9bd9a051cc4323e98622d8e24040438886d6c004439921c94d0e55e002100914e682dd5c45f870007b18e072ac8e240dcfb21b86a45ece301209b5411540f1a321600b2189210140b04d58300443a69b500f1a100070d1b07549085b160614ec38f3d802c8e04d58300443a393535e0a0a9c71b15643324d27d3b366b00b268030e0210e9245ca1a17ad0d0e38b0ab20910e97e1c9b360051300868a4f618008882414023b5c70040140c021aa93d0600a26010d048ed310010058380466a8fc11f64301ea88e12951f0000000049454e44ae426082680063036f726401011e6170706c69636174696f6e2f6a736f6e3b636861727365743d7574662d38004d5e017b2270223a22766f7264222c2276223a312c227479223a22696e7363222c22636f6c223a2262383533613639326462393765393436363865303137323138346466393431326161306136336331616334626138656531333634646138663834366637306232222c22696964223a2252756e65746172647373222c227075626c223a2231455337623370636a527a4667796969714c7278484b546e43686535364c4a485937222c226e6f6e6365223a373833342c226d696e746572223a2262633170376d3637666e3437796d32723277377067336836706c71616c70703863663938656535383378636835616363326e70366870327176653636736a222c22736967223a22477a66746f65737a37736743584d746c57415955766747506c492f7a5039725647484a4f4965764e2b436a534847756d324a494b544e4a6a50447367764b43716853665a5378557a6434764e32446c2f686972556f334d3d227d6841c1f2d00e1cce0b839d2e197679cac7a15152ec244338032c7767f72c1332d49a65675a92934efa5e4869b2432a3e00abfc6819367af43949c2edc693b32d23ac0500000000"
}