{
  "txid": "c2ecc0f73ca9c98df4dc1f9a64fbc426097cc88dd0ce3bc7efd7c53a006d3ee8",
  "version": 2,
  "locktime": 0,
  "vin": [
    {
      "txid": "4ee77778659dcfe8d7a4e15882fc6193f4f3d5f6607624e256337b44c2280af5",
      "vout": 52,
      "prevout": {
        "scriptpubkey": "5120b33516a7d025eff836dbb596b9e82d7211bf8b6bc7a892668c066f3eb97842de",
        "scriptpubkey_asm": "OP_PUSHNUM_1 OP_PUSHBYTES_32 b33516a7d025eff836dbb596b9e82d7211bf8b6bc7a892668c066f3eb97842de",
        "scriptpubkey_type": "v1_p2tr",
        "scriptpubkey_address": "bc1pkv63df7syhhlsdkmkkttn6pdwggmlzmtc75fye5vqehnawtcgt0quh6fdc",
        "value": 2075
      },
      "scriptsig": "",
      "scriptsig_asm": "",
      "witness": [
        "6f866f64af1c3b2c5db5b25c253f4d71b7000fff7a5e1b6f94ecd0cec7dc086f82f25b2ef55f138337c052323c81359b73e5716396cf339b06f024226fec5eb7",
        "2025c2a0fb6cc6fe0b5c0e752b6fd5e64e596c85958c4905e7129e9b9e90e4e3c8ac0063036f7264010118746578742f706c61696e3b636861727365743d7574662d3800357b2270223a224252432d313030222c226f70223a226d696e74222c227469636b223a22696e73222c22616d74223a2231303030227d68",
        "c1c50eac15d7d7889f5ad84f80015e8a209129aeea937c37fa4b8bc0f9be289730"
      ],
      "is_coinbase": false,
      "sequence": 4294967295
    }
  ],
  "vout": [
    {
      "scriptpubkey": "00143e2325412b554cacdd163a93a42204c4707f8851",
      "scriptpubkey_asm": "OP_0 OP_PUSHBYTES_20 3e2325412b554cacdd163a93a42204c4707f8851",
      "scriptpubkey_type": "v0_p2wpkh",
      "scriptpubkey_address": "bc1q8c3j2sft24x2ehgk82f6ggsyc3c8lzz3yw9wsu",
      "value": 546
    }
  ],
  "size": 308,
  "weight": 554,
  "fee": 1529,
  "status": {
    "confirmed": true,
    "block_height": 834464,
    "block_hash": "0000000000000000000177a0869a911a2b65c9bdcd5a8bcb02b68f305bee848e",
    "block_time": 1710308296
  },
  "hex": "02000000000101f50a28c2447b3356e2247660f6d5f3f49361fc8258e1a4d7e8cf9d657877e74e3400000000ffffffff0122020000000000001600143e2325412b554cacdd163a93a42204c4707f885103406f866f64af1c3b2c5db5b25c253f4d71b7000fff7a5e1b6f94ecd0cec7dc086f82f25b2ef55f138337c052323c81359b73e5716396cf339b06f024226fec5eb77b2025c2a0fb6cc6fe0b5c0e752b6fd5e64e596c85958c4905e7129e9b9e90e4e3c8ac0063036f7264010118746578742f706c61696e3b636861727365743d7574662d3800357b2270223a224252432d313030222c226f70223a226d696e74222c227469636b223a22696e73222c22616d74223a2231303030227d6821c1c50eac15d7d7889f5ad84f80015e8a209129aeea937c37fa4b8bc0f9be28973000000000"
}