{
  "txid": "c2f88a56a718b6178ab915a8563e0b0f19c6f377ea6507b11491f0a05584574b",
  "version": 2,
  "locktime": 0,
  "vin": [
    {
      "txid": "d21600eb747e34f6e3121ab3f87ab6e811f075001de218a6fcd63c9b51156c1f",
      "vout": 1,
      "prevout": {
        "scriptpubkey": "0014edc2763c52871ac79575a3635e6fc5a6d60b04ee",
        "scriptpubkey_asm": "OP_0 OP_PUSHBYTES_20 edc2763c52871ac79575a3635e6fc5a6d60b04ee",
        "scriptpubkey_type": "v0_p2wpkh",
        "scriptpubkey_address": "bc1qahp8v0zjsudv09t45d34um795mtqkp8wshce3x",
        "value": 48572164
      },
      "scriptsig": "",
      "scriptsig_asm": "",
      "witness": [
        "3045022100e754b2a7b2bdf79c8b242fdd013cb9f8d2aca31bd78b6866c3323ae6309a308c02206f336bc07e1a6c57d2544fe7c72dc47fd5561e41823fe79c06932ab10c2bc5ea01",
        "027fdcbb647cb13e248cad161ca9c02c9645d51fdb8fcb94688ea6841e4ab5ffdb"
      ],
      "is_coinbase": false,
      "sequence": 0
    },
    {
      "txid": "05328bfc57f128a09ce6c333cd448b50220343b899bb5fb595887b78856888f6",
      "vout": 0,
      "prevout": {
        "scriptpubkey": "0014a0745a0571dfd42274617b985495a7881db5165f",
        "scriptpubkey_asm": "OP_0 OP_PUSHBYTES_20 a0745a0571dfd42274617b985495a7881db5165f",
        "scriptpubkey_type": "v0_p2wpkh",
        "scriptpubkey_address": "bc1q5p695pt3ml2zyarp0wv9f9d83qwm29jlpz0a2j",
        "value": 997690
      },
      "scriptsig": "",
      "scriptsig_asm": "",
      "witness": [
        "3045022100fade3ebf07733f27e8ff68f6c87a266e5631ccbaf227bcbef7d59b3cfadfbedf0220065455313b2c047e2ed9692ae6f14286b6dfd4377c03b6a309530acaf8c3e8b001",
        "03cc89f1988d8c3d27300b30d372f3c305f6792bd69ec29ea8879bbe819a469f8c"
      ],
      "is_coinbase": false,
      "sequence": 0
    }
  ],
  "vout": [
    {
      "scriptpubkey": "0014c280eab60af2e1299358fa15995dc7394fd559d8",
      "scriptpubkey_asm": "OP_0 OP_PUSHBYTES_20 c280eab60af2e1299358fa15995dc7394fd559d8",
      "scriptpubkey_type": "v0_p2wpkh",
      "scriptpubkey_address": "bc1qc2qw4ds27tsjny6clg2ejhw8898a2kwcuwmgg5",
      "value": 49566650
    }
  ],
  "size": 341,
  "weight": 710,
  "fee": 3204,
  "status": {
    "confirmed": true,
    "block_height": 834638,
    "block_hash": "000000000000000000025f742c626208ac87e0b7d15054abb4a19ca2d735a54e",
    "block_time": 1710405325
  },
  "hex": "020000000001021f6c15519b3cd6fca618e21d0075f011e8b67af8b31a12e3f6347e74eb0016d2010000000000000000f6886885787b8895b55fbb99b8430322508b44cd33c3e69ca028f157fc8b320500000000000000000001ba53f40200000000160014c280eab60af2e1299358fa15995dc7394fd559d802483045022100e754b2a7b2bdf79c8b242fdd013cb9f8d2aca31bd78b6866c3323ae6309a308c02206f336bc07e1a6c57d2544fe7c72dc47fd5561e41823fe79c06932ab10c2bc5ea0121027fdcbb647cb13e248cad161ca9c02c9645d51fdb8fcb94688ea6841e4ab5ffdb02483045022100fade3ebf07733f27e8ff68f6c87a266e5631ccbaf227bcbef7d59b3cfadfbedf0220065455313b2c047e2ed9692ae6f14286b6dfd4377c03b6a309530acaf8c3e8b0012103cc89f1988d8c3d27300b30d372f3c305f6792bd69ec29ea8879bbe819a469f8c00000000"
}