{
  "txid": "c300137ec88c0bcc42558bb00cd377048688942d7f71e0c064a3d9b1751ff61b",
  "version": 2,
  "locktime": 0,
  "vin": [
    {
      "txid": "34488f734a700f7e155016cc58c3b90f907330e1ef04945fda609a39973ee3c0",
      "vout": 1,
      "prevout": {
        "scriptpubkey": "51202b3edf8344567a402fc2ad439225a14c1f2c63114f84638101aa2084eda5ad93",
        "scriptpubkey_asm": "OP_PUSHNUM_1 OP_PUSHBYTES_32 2b3edf8344567a402fc2ad439225a14c1f2c63114f84638101aa2084eda5ad93",
        "scriptpubkey_type": "v1_p2tr",
        "scriptpubkey_address": "bc1p9vldlq6y2eayqt7z44peyfdpfs0jccc3f7zx8qgp4gsgfmd94kfslu5nqr",
        "value": 45861270
      },
      "scriptsig": "",
      "scriptsig_asm": "",
      "witness": [
        "15f380b234da886a62a24b435f81b399134013a4342cd4078eceab0f9de949b6a52ea9f8a90ab34c7bb9ae4d4a8351d488617d7ba300211a99312b1d95c87c6b"
      ],
      "is_coinbase": false,
      "sequence": 4294967293
    }
  ],
  "vout": [
    {
      "scriptpubkey": "51208146db75109a0c55b54649c71e03a04662de0fd339468236e4a2d632de113633",
      "scriptpubkey_asm": "OP_PUSHNUM_1 OP_PUSHBYTES_32 8146db75109a0c55b54649c71e03a04662de0fd339468236e4a2d632de113633",
      "scriptpubkey_type": "v1_p2tr",
      "scriptpubkey_address": "bc1ps9rdkagsngx9td2xf8r3uqaqge3dur7n89rgydhy5ttr9hs3xceslayr47",
      "value": 4776
    },
    {
      "scriptpubkey": "51202b3edf8344567a402fc2ad439225a14c1f2c63114f84638101aa2084eda5ad93",
      "scriptpubkey_asm": "OP_PUSHNUM_1 OP_PUSHBYTES_32 2b3edf8344567a402fc2ad439225a14c1f2c63114f84638101aa2084eda5ad93",
      "scriptpubkey_type": "v1_p2tr",
      "scriptpubkey_address": "bc1p9vldlq6y2eayqt7z44peyfdpfs0jccc3f7zx8qgp4gsgfmd94kfslu5nqr",
      "value": 45851652
    }
  ],
  "size": 205,
  "weight": 616,
  "fee": 4842,
  "status": {
    "confirmed": true,
    "block_height": 834638,
    "block_hash": "000000000000000000025f742c626208ac87e0b7d15054abb4a19ca2d735a54e",
    "block_time": 1710405325
  },
  "hex": "02000000000101c0e33e97399a60da5f9404efe13073900fb9c358cc1650157e0f704a738f48340100000000fdffffff02a8120000000000002251208146db75109a0c55b54649c71e03a04662de0fd339468236e4a2d632de11363304a4bb02000000002251202b3edf8344567a402fc2ad439225a14c1f2c63114f84638101aa2084eda5ad93014015f380b234da886a62a24b435f81b399134013a4342cd4078eceab0f9de949b6a52ea9f8a90ab34c7bb9ae4d4a8351d488617d7ba300211a99312b1d95c87c6b00000000"
}