{
  "txid": "c306b7e72f151427d82ebfef22e8b96e74a3881e5a216b859d061e07013f6330",
  "version": 2,
  "locktime": 0,
  "vin": [
    {
      "txid": "2ee7e9bc2f0f43192f5d2dcb9ba2f7bf417e46f7a86aea7e61bf494a2116911f",
      "vout": 5,
      "prevout": {
        "scriptpubkey": "5120a7f501b6f1e85c836e65850e5a3260dee357ce94a48ab30cfef367c7fe9b42ed",
        "scriptpubkey_asm": "OP_PUSHNUM_1 OP_PUSHBYTES_32 a7f501b6f1e85c836e65850e5a3260dee357ce94a48ab30cfef367c7fe9b42ed",
        "scriptpubkey_type": "v1_p2tr",
        "scriptpubkey_address": "bc1p5l6srdh3apwgxmn9s5895vnqmm340n555j9txr877dnu0l5mgtkswt57d9",
        "value": 2862
      },
      "scriptsig": "",
      "scriptsig_asm": "",
      "witness": [
        "7cdc963c80104d4debfdbbac02b8e2ec5dbe11887bdd58bb0bf3123ef8cef80717d2ba56bb5c041bb0833a225c9c59559202ba771a022c8952630131328a3b8c",
        "204f6c15294c1a3fd0ae0836c8910eafdb42a4929efcaff70cf74603af3b8e24a4ac0063036f726401011e6170706c69636174696f6e2f6a736f6e3b636861727365743d7574662d38004cd37b2270223a22706f772d3230222c226f70223a226d696e74222c227469636b223a2250455045222c22616d74223a2231303030222c22736f6c7574696f6e223a22504550453a6263317032643677617a36736d6332646c33337861686b7364747a70793379397164713670677072776d3535376d303063646135303976733972333779633a303030303030303030303030303030303030303139393431613561653132383937363539383134343239323533333030353762306461393666336465613163353a3631383038393936323133227d68",
        "c0c302becc0a7fa5f96ff01f380e695b2faa1e460e5e66e108f6410cf3df3f4a28"
      ],
      "is_coinbase": false,
      "sequence": 4294967295
    }
  ],
  "vout": [
    {
      "scriptpubkey": "51205374ee8b50de14dfc626eded06ac41244850341a0a02376e94f6defc37b47959",
      "scriptpubkey_asm": "OP_PUSHNUM_1 OP_PUSHBYTES_32 5374ee8b50de14dfc626eded06ac41244850341a0a02376e94f6defc37b47959",
      "scriptpubkey_type": "v1_p2tr",
      "scriptpubkey_address": "bc1p2d6waz6smc2dl33xahksdtzpy3y9qdq6pgprwm557m00cda509vs9r37yc",
      "value": 546
    }
  ],
  "size": 487,
  "weight": 769,
  "fee": 2316,
  "status": {
    "confirmed": true,
    "block_height": 834460,
    "block_hash": "00000000000000000000484a79b643b2524bbce82e5d8a442013fa5b8905ed98",
    "block_time": 1710307468
  },
  "hex": "020000000001011f9116214a49bf617eea6aa8f7467e41bff7a29bcb2d5d2f19430f2fbce9e72e0500000000ffffffff0122020000000000002251205374ee8b50de14dfc626eded06ac41244850341a0a02376e94f6defc37b4795903407cdc963c80104d4debfdbbac02b8e2ec5dbe11887bdd58bb0bf3123ef8cef80717d2ba56bb5c041bb0833a225c9c59559202ba771a022c8952630131328a3b8cfd2001204f6c15294c1a3fd0ae0836c8910eafdb42a4929efcaff70cf74603af3b8e24a4ac0063036f726401011e6170706c69636174696f6e2f6a736f6e3b636861727365743d7574662d38004cd37b2270223a22706f772d3230222c226f70223a226d696e74222c227469636b223a2250455045222c22616d74223a2231303030222c22736f6c7574696f6e223a22504550453a6263317032643677617a36736d6332646c33337861686b7364747a70793379397164713670677072776d3535376d303063646135303976733972333779633a303030303030303030303030303030303030303139393431613561653132383937363539383134343239323533333030353762306461393666336465613163353a3631383038393936323133227d6821c0c302becc0a7fa5f96ff01f380e695b2faa1e460e5e66e108f6410cf3df3f4a2800000000"
}