{
  "txid": "c3102ee4267e930ca38cc9a266e22aa8637d74bb08af30beb38f324fa9a43bc9",
  "version": 2,
  "locktime": 834591,
  "vin": [
    {
      "txid": "47a4ff75b8b3f006c2651d78d50cb28eb7086bc5ee042774873e595dcefdedb4",
      "vout": 1,
      "prevout": {
        "scriptpubkey": "0014068a24e3d80d35ec0e8b1d065d2e69f42a646702",
        "scriptpubkey_asm": "OP_0 OP_PUSHBYTES_20 068a24e3d80d35ec0e8b1d065d2e69f42a646702",
        "scriptpubkey_type": "v0_p2wpkh",
        "scriptpubkey_address": "bc1qq69zfc7cp567cr5tr5r96tnf7s4xgeczjn580t",
        "value": 263755204
      },
      "scriptsig": "",
      "scriptsig_asm": "",
      "witness": [
        "3044022070b887ed2c3d5d4f5f853ac2a067dc148f2082252b9a2cc4ee99825ee8172d30022032dd5b7f5269df11c8fd02c48410846bb96041d70b58dd83a93f53a85de051da01",
        "037b2f939441a9dc9d5a35d60c811976fd744c2bc3b98b4b8dcf3fa525bcba276d"
      ],
      "is_coinbase": false,
      "sequence": 4294967294
    }
  ],
  "vout": [
    {
      "scriptpubkey": "0014b03a47c29e350f2c2523b4459831731630638bae",
      "scriptpubkey_asm": "OP_0 OP_PUSHBYTES_20 b03a47c29e350f2c2523b4459831731630638bae",
      "scriptpubkey_type": "v0_p2wpkh",
      "scriptpubkey_address": "bc1qkqay0s57x58jcffrk3zesvtnzccx8zawv6yjh9",
      "value": 1101200
    },
    {
      "scriptpubkey": "00145f11f344700001a55ac5854640f07e59e548b580",
      "scriptpubkey_asm": "OP_0 OP_PUSHBYTES_20 5f11f344700001a55ac5854640f07e59e548b580",
      "scriptpubkey_type": "v0_p2wpkh",
      "scriptpubkey_address": "bc1qtuglx3rsqqq62kk9s4rypur7t8j53dvq06j2zp",
      "value": 262650548
    }
  ],
  "size": 222,
  "weight": 561,
  "fee": 3456,
  "status": {
    "confirmed": true,
    "block_height": 834638,
    "block_hash": "000000000000000000025f742c626208ac87e0b7d15054abb4a19ca2d735a54e",
    "block_time": 1710405325
  },
  "hex": "02000000000101b4edfdce5d593e87742704eec56b08b78eb20cd5781d65c206f0b3b875ffa4470100000000feffffff0290cd100000000000160014b03a47c29e350f2c2523b4459831731630638baeb4baa70f000000001600145f11f344700001a55ac5854640f07e59e548b58002473044022070b887ed2c3d5d4f5f853ac2a067dc148f2082252b9a2cc4ee99825ee8172d30022032dd5b7f5269df11c8fd02c48410846bb96041d70b58dd83a93f53a85de051da0121037b2f939441a9dc9d5a35d60c811976fd744c2bc3b98b4b8dcf3fa525bcba276d1fbc0c00"
}