{
  "txid": "c31e946023d98977472f4f91ed974039d740b2936218bed8494049ee634d43ad",
  "version": 1,
  "locktime": 0,
  "vin": [
    {
      "txid": "9147354acf81878f8bcfc7680aa407bb95c122490de3bc5a4370fefd4ff60a41",
      "vout": 1,
      "prevout": {
        "scriptpubkey": "0014ddb8c3b5508717a531c9a65192e8da0dfc4527a2",
        "scriptpubkey_asm": "OP_0 OP_PUSHBYTES_20 ddb8c3b5508717a531c9a65192e8da0dfc4527a2",
        "scriptpubkey_type": "v0_p2wpkh",
        "scriptpubkey_address": "bc1qmkuv8d2ssut62vwf5ege96x6ph7y2fazydewrp",
        "value": 560000
      },
      "scriptsig": "",
      "scriptsig_asm": "",
      "witness": [
        "3045022100edd74bde099fc1ce5c4db742aefc6688c91cc5f8d1440334a5cbff28751e84b902202f38220f5412674ab70c81b632a5ebca92f8e86ec3e1fd98297f7ccd977a212601",
        "02d4a6f9d390c62a122875403c720a8cd1a66335ea5458a24e0d3cc515ab96eaaf"
      ],
      "is_coinbase": false,
      "sequence": 4294967295
    },
    {
      "txid": "19f76203cb6900fbbd2019b7fbb88b7fdef9f0540b8787f47aa16c37944e2ef2",
      "vout": 2,
      "prevout": {
        "scriptpubkey": "00140f21d326fd610ac21a5dc7a06f66d41d17000dac",
        "scriptpubkey_asm": "OP_0 OP_PUSHBYTES_20 0f21d326fd610ac21a5dc7a06f66d41d17000dac",
        "scriptpubkey_type": "v0_p2wpkh",
        "scriptpubkey_address": "bc1qpusaxfhavy9vyxjac7sx7ek5r5tsqrdv7nz8fj",
        "value": 1182572
      },
      "scriptsig": "",
      "scriptsig_asm": "",
      "witness": [
        "304402203ea708ef92b4c9b76c645133be5e7e69557ae99ca6d1ea48e88fbf2e7eaff3e60220544915952ba06a543fe357289aff61628a7e01390872e5b44a7e7f81d921a3f201",
        "02d41ab5a776ced5dfc523bad39befd87747d17404f0d4719d3ee63d5f8756265e"
      ],
      "is_coinbase": false,
      "sequence": 4294967295
    },
    {
      "txid": "0a359f07ccc20b85bb95f9b06c7b79c09c99649fb79ef3202977ebffabf57df3",
      "vout": 1,
      "prevout": {
        "scriptpubkey": "0014748340d2fb41a3987ffb8cb61739cf170773b497",
        "scriptpubkey_asm": "OP_0 OP_PUSHBYTES_20 748340d2fb41a3987ffb8cb61739cf170773b497",
        "scriptpubkey_type": "v0_p2wpkh",
        "scriptpubkey_address": "bc1qwjp5p5hmgx3esllm3jmpwww0zurh8dyhjwm8se",
        "value": 620000
      },
      "scriptsig": "",
      "scriptsig_asm": "",
      "witness": [
        "30450221008c59e6e8c02b7f14e082e22a9c707dd514f5fa6896e40be2d69958e11b608db2022042f354123b39c1f996938d87c3f1099fd07eb0a224a01c7b6b3c7d3252d4787901",
        "0205dc618f946700ab0c95f5a58c003906ee59c2e6f88635be97942808e184c0b4"
      ],
      "is_coinbase": false,
      "sequence": 4294967295
    },
    {
      "txid": "9f42ca6334c4873798717804da8016a64605ffae2c8be680b9592eff54f58260",
      "vout": 2,
      "prevout": {
        "scriptpubkey": "0014b449c2bb6d3fcb6eb5e8847639efe092b49146a8",
        "scriptpubkey_asm": "OP_0 OP_PUSHBYTES_20 b449c2bb6d3fcb6eb5e8847639efe092b49146a8",
        "scriptpubkey_type": "v0_p2wpkh",
        "scriptpubkey_address": "bc1qk3yu9wmd8l9kad0gs3mrnmlqj26fz34gen5x3n",
        "value": 1447776
      },
      "scriptsig": "",
      "scriptsig_asm": "",
      "witness": [
        "3045022100caf770385dead630e3aa3bb76fea12fc9c56244ec9bd1b1ca4f9af6d6011a0e202200cee8f522cb88f89c1caf63d90e29ad363749eecb4bad9f1cd3ea5afa06f38db01",
        "02d3bba502cfbcece28244eae9502e2172577387cd261c69ca8108bab7112f40b4"
      ],
      "is_coinbase": false,
      "sequence": 4294967295
    },
    {
      "txid": "9da801b77746e82ca7f093aeece906be47343aa1efd68121f0b1fdd05796291b",
      "vout": 1,
      "prevout": {
        "scriptpubkey": "0014d21f2bf79dac9997cac96f664091c11e33da199c",
        "scriptpubkey_asm": "OP_0 OP_PUSHBYTES_20 d21f2bf79dac9997cac96f664091c11e33da199c",
        "scriptpubkey_type": "v0_p2wpkh",
        "scriptpubkey_address": "bc1q6g0jhaua4jve0jkfdanypywprcea5xvuauj898",
        "value": 1822500
      },
      "scriptsig": "",
      "scriptsig_asm": "",
      "witness": [
        "304402207c0d22cf79acf9c75cf841c7c08ee238966a0d0c96e4ece0f7b6dbe55dcaa2930220263ae7aa24f669843c955c863b63748f5db625fa61accd32938fdc467c5b1e2001",
        "03b145068848097845b99ce0e03b6330fa4fdd87becdb56bdd6ffb44549a3cf27e"
      ],
      "is_coinbase": false,
      "sequence": 4294967295
    },
    {
      "txid": "9346e19440cee8d2edc40613b4a22fa5b750d6b79f395d44cf8e7b97ea99f50f",
      "vout": 1,
      "prevout": {
        "scriptpubkey": "0014504890a31a83c07247d702aae64cc9d1395991d8",
        "scriptpubkey_asm": "OP_0 OP_PUSHBYTES_20 504890a31a83c07247d702aae64cc9d1395991d8",
        "scriptpubkey_type": "v0_p2wpkh",
        "scriptpubkey_address": "bc1q2pyfpgc6s0q8y37hq24wvnxf6yu4nywch2ejah",
        "value": 600000
      },
      "scriptsig": "",
      "scriptsig_asm": "",
      "witness": [
        "3045022100dc0b2ea7d54f95405abfff6e481eb9fc50b1deff464c13dc84ce1d3214d816ed0220049ceee6f8351c48875372d577028f0718522a4974f2ba9e8163528c736f359301",
        "02a75bef4b983b1460d7f492d036f6a7936b41c9e1d5039b63a48664f190b664bd"
      ],
      "is_coinbase": false,
      "sequence": 4294967295
    },
    {
      "txid": "d3de29fb5d746c4227e73353945f0ee633e05619aebeb5d9a141a987722e90ae",
      "vout": 4,
      "prevout": {
        "scriptpubkey": "0014c8b60e40427431af1ec59272221f7d6779a4dba3",
        "scriptpubkey_asm": "OP_0 OP_PUSHBYTES_20 c8b60e40427431af1ec59272221f7d6779a4dba3",
        "scriptpubkey_type": "v0_p2wpkh",
        "scriptpubkey_address": "bc1qezmquszzwsc678k9jfezy8mavau6fkar3w20m0",
        "value": 2862102
      },
      "scriptsig": "",
      "scriptsig_asm": "",
      "witness": [
        "304402201a085daa70dd10adae0d32298c9ec345e3f19706178ce1f906fa51933733df3f022065a6808f238417053bd52c23eacc9bf3ccb65253ba5500647591a3196bc493dd01",
        "020c2dd93fe1ed8352534eeaaaa9d84f27a4650c57bda9383ec644f516bfb02158"
      ],
      "is_coinbase": false,
      "sequence": 4294967295
    },
    {
      "txid": "d261a2bc77f04cc0a361e11c3b51801b38503576d1729c5ef6fd6fd0c0e681b6",
      "vout": 1,
      "prevout": {
        "scriptpubkey": "0014260039755d8b12cae1d0537e0de3066a1ac5d075",
        "scriptpubkey_asm": "OP_0 OP_PUSHBYTES_20 260039755d8b12cae1d0537e0de3066a1ac5d075",
        "scriptpubkey_type": "v0_p2wpkh",
        "scriptpubkey_address": "bc1qycqrja2a3vfv4cws2dlqmccxdgdvt5r4lv5g7y",
        "value": 525000
      },
      "scriptsig": "",
      "scriptsig_asm": "",
      "witness": [
        "3045022100d2b933ee06882786836afd7ef7e7d8d429581e0b705d78509ace67eb3f632740022035ccf35f394e697a00c77e5e4e81e8f58f4a2850c5394d105e19a0bdccd1119601",
        "025feb53881072ff77ca8770b54d0428ca19d145822cabca14744aa10ada1ec72c"
      ],
      "is_coinbase": false,
      "sequence": 4294967295
    },
    {
      "txid": "afaaabfe393db759eea0f39de4169370e655c9227f623b12cc0d9821aadfa551",
      "vout": 1,
      "prevout": {
        "scriptpubkey": "0014b0effd0282fa60af7b22e10b8d8c2fd7a0273f5e",
        "scriptpubkey_asm": "OP_0 OP_PUSHBYTES_20 b0effd0282fa60af7b22e10b8d8c2fd7a0273f5e",
        "scriptpubkey_type": "v0_p2wpkh",
        "scriptpubkey_address": "bc1qkrhl6q5zlfs277ezuy9cmrp067szw067mr23ps",
        "value": 525000
      },
      "scriptsig": "",
      "scriptsig_asm": "",
      "witness": [
        "3045022100c48e01c73aef6babd302d4da96058ce59239460f669d742f0846a855cff609d7022038560b56bd9f20a2a65f43fe52d44f62d823b55d337ebf6630bf1ae72a38ca1501",
        "03c3cf3aac58b7efced2f4ef8ea41e02adf36e7f9af310614c5ce1d61af2f54bcd"
      ],
      "is_coinbase": false,
      "sequence": 4294967295
    },
    {
      "txid": "8d4a09c63f086be53922fc37957b6a2eff95379773df4b660e3231be7c0a0c5b",
      "vout": 1,
      "prevout": {
        "scriptpubkey": "0014d772beff26533a25bb535fabc8255fad8d5e5c33",
        "scriptpubkey_asm": "OP_0 OP_PUSHBYTES_20 d772beff26533a25bb535fabc8255fad8d5e5c33",
        "scriptpubkey_type": "v0_p2wpkh",
        "scriptpubkey_address": "bc1q6aetalex2vaztw6nt74usf2l4kx4uhpnapjy9p",
        "value": 500000
      },
      "scriptsig": "",
      "scriptsig_asm": "",
      "witness": [
        "304402200677f19c36eb2cbfce3cc07c25cd004cd65a89a88b9dfadd50051b41724dc66d02200e912e25013d072ec64a732278b5310b95bbc0af6f854b0bcd7c7665cf7f481501",
        "03c2673afa41354e5905669844f968dbb84c737a565b74dee708ed3867c77cfc4a"
      ],
      "is_coinbase": false,
      "sequence": 4294967295
    },
    {
      "txid": "0fdf3eb73798011b56ecc88553467a09200f78868dc90a73e209486ef0859bfa",
      "vout": 1,
      "prevout": {
        "scriptpubkey": "00145ff59451d87522a3292d38b95ce296e8af67ae32",
        "scriptpubkey_asm": "OP_0 OP_PUSHBYTES_20 5ff59451d87522a3292d38b95ce296e8af67ae32",
        "scriptpubkey_type": "v0_p2wpkh",
        "scriptpubkey_address": "bc1qtl6eg5wcw532x2fd8zu4ec5kazhk0t3jcn60hh",
        "value": 525000
      },
      "scriptsig": "",
      "scriptsig_asm": "",
      "witness": [
        "3045022100d89b91f2609c8e64e6de73fa1252739c839dfbf98fca99109b9ac7b38602477c022049f32c00ac13b1a2e8a30a0cfb7c82cd074232b81b49f32ae053faa4db00fdd201",
        "032530209372b4d34295cff68b9ef3cc6668c7713ef9dc3597eb6e0e68a4a65e5f"
      ],
      "is_coinbase": false,
      "sequence": 4294967295
    },
    {
      "txid": "1fb3eeb8d3c1abf257ce9820e5fba372f7cf2c7b8781b0d87dd833e819761544",
      "vout": 1,
      "prevout": {
        "scriptpubkey": "00146c6b0376e2bc7605ef76e511be268ed682cbe667",
        "scriptpubkey_asm": "OP_0 OP_PUSHBYTES_20 6c6b0376e2bc7605ef76e511be268ed682cbe667",
        "scriptpubkey_type": "v0_p2wpkh",
        "scriptpubkey_address": "bc1qd34sxahzh3mqtmmku5gmuf5w66pvhen8895w2v",
        "value": 525000
      },
      "scriptsig": "",
      "scriptsig_asm": "",
      "witness": [
        "30440220073daac1bee41fd609c2a9e9b3ab1fb361a71206935116ffb7a71c225d22e36b02205b61dd84fea5ccc9b7f1133e9594bcd8a80508037a1ef2ee68e6be9e8c4afe8201",
        "0218b85a21b3759511c8c458a65a18aa555317df9bae423387728a87b69ad3923e"
      ],
      "is_coinbase": false,
      "sequence": 4294967295
    },
    {
      "txid": "c2dc1130d506bfbeba1c40a40de95cecfcb6d6566c13360760c2eabeff081930",
      "vout": 1,
      "prevout": {
        "scriptpubkey": "0014dfa1623bed8b2d1bd576efc038fdb81855cc9a16",
        "scriptpubkey_asm": "OP_0 OP_PUSHBYTES_20 dfa1623bed8b2d1bd576efc038fdb81855cc9a16",
        "scriptpubkey_type": "v0_p2wpkh",
        "scriptpubkey_address": "bc1qm7skywld3vk3h4tkalqr3ldcrp2uexsk9jypc9",
        "value": 490000
      },
      "scriptsig": "",
      "scriptsig_asm": "",
      "witness": [
        "3045022100b920cdbde051aaf94cbf3255a30efcbe24ca5aae147924e403338d7bcbdafaa702205626d2020abb9c3337b0d2e27e294a4a3c89b78578fb091ceb899662a18aa30701",
        "03f8586bbb728d824cd82dff836f35b67f27b594d67804f21c33c00367c236525b"
      ],
      "is_coinbase": false,
      "sequence": 4294967295
    },
    {
      "txid": "659c70f5598b3e48394808d0d3df9a0e23887bf92116a3d569f087af8c6c3be2",
      "vout": 1,
      "prevout": {
        "scriptpubkey": "0014d10fe4d7a3411b904c3a0a5ebb2a211af1087b70",
        "scriptpubkey_asm": "OP_0 OP_PUSHBYTES_20 d10fe4d7a3411b904c3a0a5ebb2a211af1087b70",
        "scriptpubkey_type": "v0_p2wpkh",
        "scriptpubkey_address": "bc1q6y87f4argydeqnp6pf0tk23prtcss7msrnezwh",
        "value": 525000
      },
      "scriptsig": "",
      "scriptsig_asm": "",
      "witness": [
        "304402207667e7786e0ccbd8fac5a40d656bb1a889fbeafc09c1301de1c92d20ee6b183a02202f3a7b932c47cab5b175d011f80ef701fd7dea439dff5980021c508f1e59b7a901",
        "03a153e5aad0e884e993b5d25c3e4beb9858cd65a28a2e4e8f45e5b8488519c384"
      ],
      "is_coinbase": false,
      "sequence": 4294967295
    },
    {
      "txid": "b1932fee26b6488a4a8bb0d975f29246f6e89ffb7a5167a0c378992ed8b23897",
      "vout": 1,
      "prevout": {
        "scriptpubkey": "0014c8b60e40427431af1ec59272221f7d6779a4dba3",
        "scriptpubkey_asm": "OP_0 OP_PUSHBYTES_20 c8b60e40427431af1ec59272221f7d6779a4dba3",
        "scriptpubkey_type": "v0_p2wpkh",
        "scriptpubkey_address": "bc1qezmquszzwsc678k9jfezy8mavau6fkar3w20m0",
        "value": 525000
      },
      "scriptsig": "",
      "scriptsig_asm": "",
      "witness": [
        "30450221008cd66794b93db1d72eefb173cc9c7d74d539b9a0edf066fe57c094e2f0be5da802201d964c3d3a8e93241c85b0782bfb5f47f1534232ffd02a4ce61321adb91033a701",
        "020c2dd93fe1ed8352534eeaaaa9d84f27a4650c57bda9383ec644f516bfb02158"
      ],
      "is_coinbase": false,
      "sequence": 4294967295
    },
    {
      "txid": "8de2bf7cf9ad2adf77cc56c7ea0e7b05db583d86085249872a8ff764d144e836",
      "vout": 1,
      "prevout": {
        "scriptpubkey": "00145ba96710c5e66e1d1ea6f909f80bc7146cac811e",
        "scriptpubkey_asm": "OP_0 OP_PUSHBYTES_20 5ba96710c5e66e1d1ea6f909f80bc7146cac811e",
        "scriptpubkey_type": "v0_p2wpkh",
        "scriptpubkey_address": "bc1qtw5kwyx9uehp684xlyylsz78z3k2eqg7lfkret",
        "value": 500000
      },
      "scriptsig": "",
      "scriptsig_asm": "",
      "witness": [
        "3044022040adf6217da3f1c05409b7223404cfbc8dfb3be9349abca6410a51f9425b0340022033926c73bab1aeedb2b4994404734ceff8adb8c6b8d7d0716b03996b4166f3a101",
        "02a5984c63f8a0fdb12165493dd7bcec1f00f6722fb8db61fe7dee632eb7de2d42"
      ],
      "is_coinbase": false,
      "sequence": 4294967295
    },
    {
      "txid": "084953c1df03ec00ba387c89e39ced8cc85066f8335efb014c46ba0ac0b74392",
      "vout": 2,
      "prevout": {
        "scriptpubkey": "00140bfe0e5cf01b884e3bf4d19df3f11f40098d0fc7",
        "scriptpubkey_asm": "OP_0 OP_PUSHBYTES_20 0bfe0e5cf01b884e3bf4d19df3f11f40098d0fc7",
        "scriptpubkey_type": "v0_p2wpkh",
        "scriptpubkey_address": "bc1qp0lquh8srwyyuwl56xwl8uglgqyc6r787zmxn7",
        "value": 449650
      },
      "scriptsig": "",
      "scriptsig_asm": "",
      "witness": [
        "304402201d75d44f78dda02cad8c37b4d8c988e90fa87edc697c903ba9dcabe805d7d66502201f639d7e50e8bfb5703d6f4468bf39da4298261a4123ff78157ec17b2faef28e01",
        "03b63dc596076c657e99e80cde2f8dbef7f7e8b718e92ae1ebe616bc74b1409c32"
      ],
      "is_coinbase": false,
      "sequence": 4294967295
    },
    {
      "txid": "efa4a64f6cc22a6bcf4b78aedaae05c0aa8dcaf806c565b89f22995cedef4c0c",
      "vout": 1,
      "prevout": {
        "scriptpubkey": "00140f51757881dd529b6abfdad709756a17fbd038f2",
        "scriptpubkey_asm": "OP_0 OP_PUSHBYTES_20 0f51757881dd529b6abfdad709756a17fbd038f2",
        "scriptpubkey_type": "v0_p2wpkh",
        "scriptpubkey_address": "bc1qpagh27ypm4ffk64lmttsjat2zlaaqw8jqcgq77",
        "value": 220000
      },
      "scriptsig": "",
      "scriptsig_asm": "",
      "witness": [
        "3044022008b55ac4976b27d413adaa991b92cedf022be1221a2fbf2de13c4b89f0f24d9e022020e5759da11db7de3632f72ba186b459109fda48c155de3977c4060b14c39d0101",
        "03a86cf99fb8abdbba137c4b4da9394adf1c923459252819989f518867ae028821"
      ],
      "is_coinbase": false,
      "sequence": 4294967295
    },
    {
      "txid": "82d41f7db34f5526782a8b63c16ad6ec1d891317b26d24430e31dd36c645d1f7",
      "vout": 1,
      "prevout": {
        "scriptpubkey": "0014a31e0b9cad93ab996b6d1d1a79b2f6f641c5f512",
        "scriptpubkey_asm": "OP_0 OP_PUSHBYTES_20 a31e0b9cad93ab996b6d1d1a79b2f6f641c5f512",
        "scriptpubkey_type": "v0_p2wpkh",
        "scriptpubkey_address": "bc1q5v0qh89djw4ej6mdr5d8nvhk7equtagjckq2w0",
        "value": 525000
      },
      "scriptsig": "",
      "scriptsig_asm": "",
      "witness": [
        "30440220711c1386e516d390dcf6b616cd06d1477d86ad72e9f49575dea0b928e3675f9a022038e7733bff96d5cea023a1e80dac192291d7b475a9fe589fbdd984fdc4ca504601",
        "02fc35f465e5b2e117a4ffb81455c5b6f32b33d6139b8eca79890817030581291f"
      ],
      "is_coinbase": false,
      "sequence": 4294967295
    },
    {
      "txid": "226f950da9afc171db91cd0de3ef2d9977a5ad56bfb67d60f6cf3ae8eebd1ec6",
      "vout": 1,
      "prevout": {
        "scriptpubkey": "0014358a2e4ff187d65bf4dd1c0ea3db923519c4907e",
        "scriptpubkey_asm": "OP_0 OP_PUSHBYTES_20 358a2e4ff187d65bf4dd1c0ea3db923519c4907e",
        "scriptpubkey_type": "v0_p2wpkh",
        "scriptpubkey_address": "bc1qxk9zunl3slt9haxars828kujx5vufyr7qzaxnt",
        "value": 490000
      },
      "scriptsig": "",
      "scriptsig_asm": "",
      "witness": [
        "3045022100a857b556309b623f647296a8df197b92498a95934849b6a589aef2bef3a9ac53022047bcecbca2fd263741626d06df163f3e051a6ed856a38419eeade1af0b315d1801",
        "038bfffab7fd2202e462d6fda3fa29bb5fac0327478bf1dbdfb2334b42ed190b5b"
      ],
      "is_coinbase": false,
      "sequence": 4294967295
    },
    {
      "txid": "eead12c4a41c2c04a86c0c1f6fb6805bc0b25cf2c7664b38396c77c5fc75764c",
      "vout": 2,
      "prevout": {
        "scriptpubkey": "001432761383bdcf0a669fa16624ba649a17c4bb9a9a",
        "scriptpubkey_asm": "OP_0 OP_PUSHBYTES_20 32761383bdcf0a669fa16624ba649a17c4bb9a9a",
        "scriptpubkey_type": "v0_p2wpkh",
        "scriptpubkey_address": "bc1qxfmp8qaaeu9xd8apvcjt5ey6zlzthx564npsq7",
        "value": 729773
      },
      "scriptsig": "",
      "scriptsig_asm": "",
      "witness": [
        "304402203171163de99733e3719f8b4c9e24e7b8cfd4a8c47733c05665b10be5d722c9ed0220503d11705a62fcf892b39a7240ebf2b88b8caf8fbd7a140f3941af6f07bff97a01",
        "03f9a9b14faced292d7ca48c928d98a0c6995bf5b4071071d0b34bd0fe6967ad4d"
      ],
      "is_coinbase": false,
      "sequence": 4294967295
    },
    {
      "txid": "54108b8f0be957f07bf568bb341fc1ba47bde7301c196ed681cef1b5d2e3dc4d",
      "vout": 1,
      "prevout": {
        "scriptpubkey": "0014027156c55864e36d3dba1728a76256a39059f540",
        "scriptpubkey_asm": "OP_0 OP_PUSHBYTES_20 027156c55864e36d3dba1728a76256a39059f540",
        "scriptpubkey_type": "v0_p2wpkh",
        "scriptpubkey_address": "bc1qqfc4d32cvn3k60d6zu52wcjk5wg9na2q5nhwl9",
        "value": 200000
      },
      "scriptsig": "",
      "scriptsig_asm": "",
      "witness": [
        "3045022100c3549630b2013de3d813cf942361ab6f6f3b0a57dd3ea6f3306f9088ea9a85170220653a466f8c7f5836add1775458e2b55ed9dbe00b21dc281e79baf72ec05e33f401",
        "03dc4711f7d9e814fafe01ba12069a8914f1b7eff09261bfd1d33023bd11de2a49"
      ],
      "is_coinbase": false,
      "sequence": 4294967295
    },
    {
      "txid": "7b124a2fe18aa15655efc85734c814cff2f8d393c6dc24520e6f95c168c39f66",
      "vout": 1,
      "prevout": {
        "scriptpubkey": "001485a78090800cc9d628bc5827f27f35935521b28f",
        "scriptpubkey_asm": "OP_0 OP_PUSHBYTES_20 85a78090800cc9d628bc5827f27f35935521b28f",
        "scriptpubkey_type": "v0_p2wpkh",
        "scriptpubkey_address": "bc1qskncpyyqpnyav29utqnlyle4jd2jrv506dtqz7",
        "value": 400000
      },
      "scriptsig": "",
      "scriptsig_asm": "",
      "witness": [
        "30450221008365164df1b74c2278bfe65005df5f679b803f0e509843a0da22b3d5a9b43d8102203195e33280f79293c2854e0d7f2002e95394659bb85b0f4b2107e03ec811c0af01",
        "0342576a844e2145a9982686685efca231716738e0c61336bfaf000353ec46c4f9"
      ],
      "is_coinbase": false,
      "sequence": 4294967295
    },
    {
      "txid": "e6fdd32653fe16504abf821471b25ef986655d89d542b3789dab9066ed4b5cc5",
      "vout": 1,
      "prevout": {
        "scriptpubkey": "0014fd5f5f70b37c0a99ca14db28245229dec22e8f10",
        "scriptpubkey_asm": "OP_0 OP_PUSHBYTES_20 fd5f5f70b37c0a99ca14db28245229dec22e8f10",
        "scriptpubkey_type": "v0_p2wpkh",
        "scriptpubkey_address": "bc1ql4047u9n0s9fnjs5mv5zg53fmmpzarcs2l9ldp",
        "value": 490000
      },
      "scriptsig": "",
      "scriptsig_asm": "",
      "witness": [
        "3045022100ef6f57be003e78aeb8c2242e996943c6d553bde0478d38a98c17137aa13b326902204889b6898f3f84953a271e08aced48575f49c08431cee6e3426480924a082dc601",
        "034df61d3185fc053010854aeed65e07697254e3a6156eee36954aefae8ce2d17f"
      ],
      "is_coinbase": false,
      "sequence": 4294967295
    },
    {
      "txid": "3a77178cb94271023bc75b7488f60f7b7f0dd4933b2f7b544fae793df718d520",
      "vout": 2,
      "prevout": {
        "scriptpubkey": "00140220e92373acecf9b23a06300b854cdb2dcb25c8",
        "scriptpubkey_asm": "OP_0 OP_PUSHBYTES_20 0220e92373acecf9b23a06300b854cdb2dcb25c8",
        "scriptpubkey_type": "v0_p2wpkh",
        "scriptpubkey_address": "bc1qqgswjgmn4nk0nv36qccqhp2vmvkukfwggz37ky",
        "value": 1217629
      },
      "scriptsig": "",
      "scriptsig_asm": "",
      "witness": [
        "304402206e811a31edab91fcc0f226ca12f52b2765197af633ec697b00f4637e4c440f80022067a0180101655221663a62524ef45d3f2dca60efc31162561fd0cea6464cd0b901",
        "0297ae1f4e02727f37fa9b5020c928f83372a63ac9cd770ac7611115f70de69d53"
      ],
      "is_coinbase": false,
      "sequence": 4294967295
    },
    {
      "txid": "86f0e6c9910d26b80f93c6380e678c26f1200597ae75a5b15e4191d24ab180b5",
      "vout": 2,
      "prevout": {
        "scriptpubkey": "0014fc139bd32e6edd177027a5a18ca9395d7b333d51",
        "scriptpubkey_asm": "OP_0 OP_PUSHBYTES_20 fc139bd32e6edd177027a5a18ca9395d7b333d51",
        "scriptpubkey_type": "v0_p2wpkh",
        "scriptpubkey_address": "bc1qlsfeh5ewdmw3wup85ksce2fet4anx023m0vwjr",
        "value": 417189
      },
      "scriptsig": "",
      "scriptsig_asm": "",
      "witness": [
        "304402202d6c32bc346edd45180a0b7ce0282d9d24dae040d9cfebcc80fed2bc0ae803d7022019762051849a054ff1a69666bffc80e769a991da5aeea792ae5a047ddd72fddb01",
        "0293e2de505daf0611882d9dc2e36387a9c1e454d118b6ce869392a33b014e9e8e"
      ],
      "is_coinbase": false,
      "sequence": 4294967295
    },
    {
      "txid": "347d4e5803b2761990c35d6e74d6010e9b250e356c9a4799502064058ce56eab",
      "vout": 1,
      "prevout": {
        "scriptpubkey": "00143a541cae436fc3d7ee6e3d3f847af67a8230f525",
        "scriptpubkey_asm": "OP_0 OP_PUSHBYTES_20 3a541cae436fc3d7ee6e3d3f847af67a8230f525",
        "scriptpubkey_type": "v0_p2wpkh",
        "scriptpubkey_address": "bc1q8f2petjrdlpa0mnw85lcg7hk02prpaf9rm0r0f",
        "value": 490000
      },
      "scriptsig": "",
      "scriptsig_asm": "",
      "witness": [
        "3045022100e46d9c13840b2e5bf0e0840ebdb90e4861862d0010912c7818f8a66f84c05b4502202058af967511502d7a468dadac4ed119930f3176213a0036f6418ae8bf0087e601",
        "0363bf3aac592a01d3f7ef2b2e94306ce17bec5c6fc4ea09deaf11955eaf89d498"
      ],
      "is_coinbase": false,
      "sequence": 4294967295
    },
    {
      "txid": "9da801b77746e82ca7f093aeece906be47343aa1efd68121f0b1fdd05796291b",
      "vout": 2,
      "prevout": {
        "scriptpubkey": "0014657e7781e3eb25d94fabdd1fcad0c68c89561aa7",
        "scriptpubkey_asm": "OP_0 OP_PUSHBYTES_20 657e7781e3eb25d94fabdd1fcad0c68c89561aa7",
        "scriptpubkey_type": "v0_p2wpkh",
        "scriptpubkey_address": "bc1qv4l80q0ravjajnatm50u45xx3jy4vx48u3ezjm",
        "value": 533169
      },
      "scriptsig": "",
      "scriptsig_asm": "",
      "witness": [
        "3045022100a8895fbb91a0173aa9359b4b3c6df69c9365d2b0aba681b3c84de89ddd76e40c02207706a45194202829aa9b3fe4120eae0acc90590a8d099b54cb13c324b997843401",
        "03d340f009f474ee8bca89978730a191f4127c7031f8a110fe5a3f57429a40cabc"
      ],
      "is_coinbase": false,
      "sequence": 4294967295
    },
    {
      "txid": "ffc2fc7aa623c5f88941c50111304370f69ac8cc0ec70913cfd4012e4398b57b",
      "vout": 1,
      "prevout": {
        "scriptpubkey": "0014e1b784db1fe01b821d8616aed001e13c42bf2ff2",
        "scriptpubkey_asm": "OP_0 OP_PUSHBYTES_20 e1b784db1fe01b821d8616aed001e13c42bf2ff2",
        "scriptpubkey_type": "v0_p2wpkh",
        "scriptpubkey_address": "bc1quxmcfkcluqdcy8vxz6hdqq0p83pt7tljytr22g",
        "value": 490000
      },
      "scriptsig": "",
      "scriptsig_asm": "",
      "witness": [
        "3044022063bbea4bbb80b35c03896a97de713f5ed38eb533ddb748fe06c7926a18dabda502201330b12a898506282aad896cde15f3af1cb7f29d37f73ef7d8db807c0ce0b6bf01",
        "02146d4b2f6d37322adf88cfe2feb098a08159ceb01aaae139b113def0cba830b7"
      ],
      "is_coinbase": false,
      "sequence": 4294967295
    },
    {
      "txid": "64e5f7351b8aa0b85c1ddd1ccd07e87583d67e848681971f17bac2336d9d330a",
      "vout": 2,
      "prevout": {
        "scriptpubkey": "0014eee7b68074ce80810f9248a25fb4622582c788c6",
        "scriptpubkey_asm": "OP_0 OP_PUSHBYTES_20 eee7b68074ce80810f9248a25fb4622582c788c6",
        "scriptpubkey_type": "v0_p2wpkh",
        "scriptpubkey_address": "bc1qamnmdqr5e6qgzrujfz39ldrzykpv0zxxn52603",
        "value": 121095
      },
      "scriptsig": "",
      "scriptsig_asm": "",
      "witness": [
        "3045022100db8fa96b3c47ba0ac5931a805709b0d07a10f73907d71437dce57022f0a7671a02200f61459712fb3b1b3f2b6459b99836713fdb503a1feacb079574a312b59542b401",
        "02614be9df4c8f623bd37e0071d84db1079111f719f0d1a735d7d2735d582edb38"
      ],
      "is_coinbase": false,
      "sequence": 4294967295
    },
    {
      "txid": "9f0f5a08caa2dcfc68e453b383d4f77a2ce1ad98458f276b355d4d10da537b9c",
      "vout": 1,
      "prevout": {
        "scriptpubkey": "001423e813eb958a41fa7de73e4f8b996b12e685254b",
        "scriptpubkey_asm": "OP_0 OP_PUSHBYTES_20 23e813eb958a41fa7de73e4f8b996b12e685254b",
        "scriptpubkey_type": "v0_p2wpkh",
        "scriptpubkey_address": "bc1qy05p86u43fql5l088e8chxttztng2f2tzpga4t",
        "value": 490000
      },
      "scriptsig": "",
      "scriptsig_asm": "",
      "witness": [
        "304402204ae92b4a7f130c0f954f74a7e6c7146641af1e86428703d3602881de9e426d1102200659045f877917b846c52d27897d77b6a67f0fdd03ced34022654ba937a62a4201",
        "02d4729b9a285e63a905d149893e97bdde8c72b09479c63529ee00ebae52b38bd1"
      ],
      "is_coinbase": false,
      "sequence": 4294967295
    },
    {
      "txid": "812c0ed6af634323f282c76bd6fc3f23e00a7b2b9a1a5d83367e6c6ad16dd499",
      "vout": 1,
      "prevout": {
        "scriptpubkey": "0014f3a8fd796b343ea65985b70e5c8b7cbe11ecaf71",
        "scriptpubkey_asm": "OP_0 OP_PUSHBYTES_20 f3a8fd796b343ea65985b70e5c8b7cbe11ecaf71",
        "scriptpubkey_type": "v0_p2wpkh",
        "scriptpubkey_address": "bc1q7w5067ttxsl2vkv9ku89ezmuhcg7etm3ppr4qf",
        "value": 400000
      },
      "scriptsig": "",
      "scriptsig_asm": "",
      "witness": [
        "304402203c189acb006e74fa19f375f07397914b50fed90a08ba07c687fc3afc6142fa9802207892cd80dec001495caa4c303f8070aaa68adaa542e0ba6f51caa6097fb7a3d501",
        "02ee571ef10c6c885f679f1625e597f8f99b792888ab206aab1a040fdc5e3fc335"
      ],
      "is_coinbase": false,
      "sequence": 4294967295
    },
    {
      "txid": "bb0be3e8ae0a7c682cb4f8e993c0dcdb057cb5cdb97ea524cf56f63254c1094f",
      "vout": 1,
      "prevout": {
        "scriptpubkey": "0014833d39a0dc4fc7e649392c8efe6bbb6ac15d2fb6",
        "scriptpubkey_asm": "OP_0 OP_PUSHBYTES_20 833d39a0dc4fc7e649392c8efe6bbb6ac15d2fb6",
        "scriptpubkey_type": "v0_p2wpkh",
        "scriptpubkey_address": "bc1qsv7nngxuflr7vjfe9j80u6amdtq46tak3qqrsz",
        "value": 60000
      },
      "scriptsig": "",
      "scriptsig_asm": "",
      "witness": [
        "304402206017a180840c1f902d7e6a96a7015fb34c525ee90b427c7ae5ce31b7e81353220220538a3c6a7a44c22a9cdb626e7ad2e6417f44ac23d843d742850509d078b9267401",
        "039cb4ad0315014e18849f18bccce2905a255ef79abb0acc99196949c9d4869b75"
      ],
      "is_coinbase": false,
      "sequence": 4294967295
    },
    {
      "txid": "47930134298dbc137d40755518a4169a77812691e02bb60aeb93cd1556c261fe",
      "vout": 2,
      "prevout": {
        "scriptpubkey": "001450a12026693a9b901d7b3bf96ec017674a4cb954",
        "scriptpubkey_asm": "OP_0 OP_PUSHBYTES_20 50a12026693a9b901d7b3bf96ec017674a4cb954",
        "scriptpubkey_type": "v0_p2wpkh",
        "scriptpubkey_address": "bc1q2zsjqfnf82deq8tm80ukasqhva9yew25k4eczu",
        "value": 29734
      },
      "scriptsig": "",
      "scriptsig_asm": "",
      "witness": [
        "3045022100e1cc8f12e9210a43ac4f8bdfd4edee04a203b155d53529fe5a60cf66a12acf7a022048d4a8cba06dc5bb13804886878c6e6c2eef1986bc636ca5e58ae1c6fcc0393b01",
        "03b38b4c85a5367e56ec99b3f8c22a6689bcdb56e1ab38f7f215d21d07fadd54aa"
      ],
      "is_coinbase": false,
      "sequence": 4294967295
    },
    {
      "txid": "359fd11bd0729cf0f6d0e893d4278bd15f9f60e4aff6556f6b243425db31d414",
      "vout": 1,
      "prevout": {
        "scriptpubkey": "001453997751b3fd24ca45803343853474a43c7bdcaa",
        "scriptpubkey_asm": "OP_0 OP_PUSHBYTES_20 53997751b3fd24ca45803343853474a43c7bdcaa",
        "scriptpubkey_type": "v0_p2wpkh",
        "scriptpubkey_address": "bc1q2wvhw5dnl5jv53vqxdpc2dr55s78hh92rvr0k5",
        "value": 490000
      },
      "scriptsig": "",
      "scriptsig_asm": "",
      "witness": [
        "304402207de3709d9b9557b7a003c3a89b760f20b7a90c34b35508a38bb702eaf529cb1902207ed05b9af2bab48794329c29aae94de8a113d5471f10211c74ff42b4487ffa9f01",
        "03bcc9aea3b5c2766647f93b02815d07749acb1bd75ffebfbb0c682ceb13e61f46"
      ],
      "is_coinbase": false,
      "sequence": 4294967295
    },
    {
      "txid": "b95e81d0ac4f451505ad0788120ee97b2a8f432de58d85d0c8aaae19d1360885",
      "vout": 1,
      "prevout": {
        "scriptpubkey": "0014c92750f860d9b6062303b8d8e15f8abd851980fa",
        "scriptpubkey_asm": "OP_0 OP_PUSHBYTES_20 c92750f860d9b6062303b8d8e15f8abd851980fa",
        "scriptpubkey_type": "v0_p2wpkh",
        "scriptpubkey_address": "bc1qeyn4p7rqmxmqvgcrhrvwzhu2hkz3nq86sz8ena",
        "value": 490000
      },
      "scriptsig": "",
      "scriptsig_asm": "",
      "witness": [
        "304402200816a35f6b20605c8fabf4c7fcff65c2bff14300940156ac3b4f087c9145e54802203e2796cef6e7e714c8242fc278f2758457939cc0eedab134c338c5d76122184401",
        "03e488f8c4c3d308a7741280478403fb7c34d5b35561acf6340064df3117101161"
      ],
      "is_coinbase": false,
      "sequence": 4294967295
    },
    {
      "txid": "f1f1f8674370b8fb48d8131e50ef8a4a017d0071aa1af2bffffb4d8098dae2dc",
      "vout": 1,
      "prevout": {
        "scriptpubkey": "0014a80137207c96f0c22228588b8165a214778766c5",
        "scriptpubkey_asm": "OP_0 OP_PUSHBYTES_20 a80137207c96f0c22228588b8165a214778766c5",
        "scriptpubkey_type": "v0_p2wpkh",
        "scriptpubkey_address": "bc1q4qqnwgrujmcvyg3gtz9czedzz3mcwek9xty7tr",
        "value": 455000
      },
      "scriptsig": "",
      "scriptsig_asm": "",
      "witness": [
        "304402200d03a99cc7e9a0a8ec84271383fbf97fda17063e471e60ffa1d24d4f4d42e77502207133e5fa3cf4341ff640f5646766d4f88b009df196c694476740aeced25c40ae01",
        "02650cdd18fcdd5a29b00dc70338ebfc71fab4c410ffa787d30929a914de2809be"
      ],
      "is_coinbase": false,
      "sequence": 4294967295
    },
    {
      "txid": "25ec7c20f23480ac0b855c205192b33b8d896b40dd745026d3eef7fd569cd16d",
      "vout": 1,
      "prevout": {
        "scriptpubkey": "00141091ef6ad17f5f58ca7027d203f1b828d0da72f1",
        "scriptpubkey_asm": "OP_0 OP_PUSHBYTES_20 1091ef6ad17f5f58ca7027d203f1b828d0da72f1",
        "scriptpubkey_type": "v0_p2wpkh",
        "scriptpubkey_address": "bc1qzzg776k30a043jnsylfq8udc9rgd5uh350ydl3",
        "value": 20000
      },
      "scriptsig": "",
      "scriptsig_asm": "",
      "witness": [
        "3044022053eb96c0fe2b428460875cca7a2389bf65bb7c07b1b3ceee0180ab43b5acb45a0220434e3e75c2b7cd71f0a98305e5134f165e5793fc9dd383b197536239bbbd46c001",
        "02fd559be79eae7bef55068f2f108992ee73c0e433ee9f5c765fcca5bef4aaa748"
      ],
      "is_coinbase": false,
      "sequence": 4294967295
    },
    {
      "txid": "3b6fbfe0f1a988161cb64a7cd4c9f065ec78913ad0cc60163a5f6810750d2286",
      "vout": 1,
      "prevout": {
        "scriptpubkey": "001417b78cca137c2aced4eab5f4a54f91c2d967bc90",
        "scriptpubkey_asm": "OP_0 OP_PUSHBYTES_20 17b78cca137c2aced4eab5f4a54f91c2d967bc90",
        "scriptpubkey_type": "v0_p2wpkh",
        "scriptpubkey_address": "bc1qz7mcejsn0s4va482kh622nu3ctvk00ysvmczz5",
        "value": 1037145
      },
      "scriptsig": "",
      "scriptsig_asm": "",
      "witness": [
        "3045022100c5bd195eb3592eee7e132359c46d4e966bfbb303bcd3a402a84b8131fe856b19022072d0b986dc467e4c205943d634b28f3aa49aa310c46310529104a34a05807c2d01",
        "03b893ec9c4c524708d532b80b94f2b4e7960d1962765b1d0e4af872cfeea82879"
      ],
      "is_coinbase": false,
      "sequence": 4294967295
    }
  ],
  "vout": [
    {
      "scriptpubkey": "0014cb6bf18802cacb8b73de17b0361645636236e5a3",
      "scriptpubkey_asm": "OP_0 OP_PUSHBYTES_20 cb6bf18802cacb8b73de17b0361645636236e5a3",
      "scriptpubkey_type": "v0_p2wpkh",
      "scriptpubkey_address": "bc1qed4lrzqzet9cku77z7crv9j9vd3rdedr3q5a8s",
      "value": 23948054
    }
  ],
  "size": 5833,
  "weight": 10753,
  "fee": 32280,
  "status": {
    "confirmed": true,
    "block_height": 834460,
    "block_hash": "00000000000000000000484a79b643b2524bbce82e5d8a442013fa5b8905ed98",
    "block_time": 1710307468
  },
  "hex": "01000000000127410af64ffdfe70435abce30d4922c195bb07a40a68c7cf8b8f8781cf4a3547910100000000fffffffff22e4e94376ca17af487870b54f0f9de7f8bb8fbb71920bdfb0069cb0362f7190200000000fffffffff37df5abffeb772920f39eb79f64999cc0797b6cb0f995bb850bc2cc079f350a0100000000ffffffff6082f554ff2e59b980e68b2caeff0546a61680da047871983787c43463ca429f0200000000ffffffff1b299657d0fdb1f02181d6efa13a3447be06e9ecae93f0a72ce84677b701a89d0100000000ffffffff0ff599ea977b8ecf445d399fb7d650b7a52fa2b41306c4edd2e8ce4094e146930100000000ffffffffae902e7287a941a1d9b5beae1956e033e60e5f945333e727426c745dfb29ded30400000000ffffffffb681e6c0d06ffdf65e9c72d1763550381b80513b1ce161a3c04cf077bca261d20100000000ffffffff51a5dfaa21980dcc123b627f22c955e6709316e49df3a0ee59b73d39feabaaaf0100000000ffffffff5b0c0a7cbe31320e664bdf73973795ff2e6a7b9537fc2239e56b083fc6094a8d0100000000fffffffffa9b85f06e4809e2730ac98d86780f20097a465385c8ec561b019837b73edf0f0100000000ffffffff44157619e833d87dd8b081877b2ccff772a3fbe52098ce57f2abc1d3b8eeb31f0100000000ffffffff301908ffbeeac2600736136c56d6b6fcec5ce90da4401cbabebf06d53011dcc20100000000ffffffffe23b6c8caf87f069d5a31621f97b88230e9adfd3d0084839483e8b59f5709c650100000000ffffffff9738b2d82e9978c3a067517afb9fe8f64692f275d9b08b4a8a48b626ee2f93b10100000000ffffffff36e844d164f78f2a87495208863d58db057b0eeac756cc77df2aadf97cbfe28d0100000000ffffffff9243b7c00aba464c01fb5e33f86650c88ced9ce3897c38ba00ec03dfc15349080200000000ffffffff0c4cefed5c99229fb865c506f8ca8daac005aedaae784bcf6b2ac26c4fa6a4ef0100000000fffffffff7d145c636dd310e43246db21713891decd66ac1638b2a7826554fb37d1fd4820100000000ffffffffc61ebdeee83acff6607db6bf56ada577992defe30dcd91db71c1afa90d956f220100000000ffffffff4c7675fcc5776c39384b66c7f25cb2c05b80b66f1f0c6ca8042c1ca4c412adee0200000000ffffffff4ddce3d2b5f1ce81d66e191c30e7bd47bac11f34bb68f57bf057e90b8f8b10540100000000ffffffff669fc368c1956f0e5224dcc693d3f8f2cf14c83457c8ef5556a18ae12f4a127b0100000000ffffffffc55c4bed6690ab9d78b342d5895d6586f95eb2711482bf4a5016fe5326d3fde60100000000ffffffff20d518f73d79ae4f547b2f3b93d40d7f7b0ff688745bc73b027142b98c17773a0200000000ffffffffb580b14ad291415eb1a575ae970520f1268c670e38c6930fb8260d91c9e6f0860200000000ffffffffab6ee58c0564205099479a6c350e259b0e01d6746e5dc3901976b203584e7d340100000000ffffffff1b299657d0fdb1f02181d6efa13a3447be06e9ecae93f0a72ce84677b701a89d0200000000ffffffff7bb598432e01d4cf1309c70eccc89af67043301101c54189f8c523a67afcc2ff0100000000ffffffff0a339d6d33c2ba171f978186847ed68375e807cd1cdd1d5cb8a08a1b35f7e5640200000000ffffffff9c7b53da104d5d356b278f4598ade12c7af7d483b353e468fcdca2ca085a0f9f0100000000ffffffff99d46dd16a6c7e36835d1a9a2b7b0ae0233ffcd66bc782f2234363afd60e2c810100000000ffffffff4f09c15432f656cf24a57eb9cdb57c05dbdcc093e9f8b42c687c0aaee8e30bbb0100000000fffffffffe61c25615cd93eb0ab62be0912681779a16a4185575407d13bc8d29340193470200000000ffffffff14d431db2534246b6f55f6afe4609f5fd18b27d493e8d0f6f09c72d01bd19f350100000000ffffffff850836d119aeaac8d0858de52d438f2a7be90e128807ad0515454facd0815eb90100000000ffffffffdce2da98804dfbffbff21aaa71007d014a8aef501e13d848fbb8704367f8f1f10100000000ffffffff6dd19c56fdf7eed3265074dd406b898d3bb39251205c850bac8034f2207cec250100000000ffffffff86220d7510685f3a1660ccd03a9178ec65f0c9d47c4ab61c1688a9f1e0bf6f3b0100000000ffffffff01166b6d0100000000160014cb6bf18802cacb8b73de17b0361645636236e5a302483045022100edd74bde099fc1ce5c4db742aefc6688c91cc5f8d1440334a5cbff28751e84b902202f38220f5412674ab70c81b632a5ebca92f8e86ec3e1fd98297f7ccd977a2126012102d4a6f9d390c62a122875403c720a8cd1a66335ea5458a24e0d3cc515ab96eaaf0247304402203ea708ef92b4c9b76c645133be5e7e69557ae99ca6d1ea48e88fbf2e7eaff3e60220544915952ba06a543fe357289aff61628a7e01390872e5b44a7e7f81d921a3f2012102d41ab5a776ced5dfc523bad39befd87747d17404f0d4719d3ee63d5f8756265e024830450221008c59e6e8c02b7f14e082e22a9c707dd514f5fa6896e40be2d69958e11b608db2022042f354123b39c1f996938d87c3f1099fd07eb0a224a01c7b6b3c7d3252d4787901210205dc618f946700ab0c95f5a58c003906ee59c2e6f88635be97942808e184c0b402483045022100caf770385dead630e3aa3bb76fea12fc9c56244ec9bd1b1ca4f9af6d6011a0e202200cee8f522cb88f89c1caf63d90e29ad363749eecb4bad9f1cd3ea5afa06f38db012102d3bba502cfbcece28244eae9502e2172577387cd261c69ca8108bab7112f40b40247304402207c0d22cf79acf9c75cf841c7c08ee238966a0d0c96e4ece0f7b6dbe55dcaa2930220263ae7aa24f669843c955c863b63748f5db625fa61accd32938fdc467c5b1e20012103b145068848097845b99ce0e03b6330fa4fdd87becdb56bdd6ffb44549a3cf27e02483045022100dc0b2ea7d54f95405abfff6e481eb9fc50b1deff464c13dc84ce1d3214d816ed0220049ceee6f8351c48875372d577028f0718522a4974f2ba9e8163528c736f3593012102a75bef4b983b1460d7f492d036f6a7936b41c9e1d5039b63a48664f190b664bd0247304402201a085daa70dd10adae0d32298c9ec345e3f19706178ce1f906fa51933733df3f022065a6808f238417053bd52c23eacc9bf3ccb65253ba5500647591a3196bc493dd0121020c2dd93fe1ed8352534eeaaaa9d84f27a4650c57bda9383ec644f516bfb0215802483045022100d2b933ee06882786836afd7ef7e7d8d429581e0b705d78509ace67eb3f632740022035ccf35f394e697a00c77e5e4e81e8f58f4a2850c5394d105e19a0bdccd111960121025feb53881072ff77ca8770b54d0428ca19d145822cabca14744aa10ada1ec72c02483045022100c48e01c73aef6babd302d4da96058ce59239460f669d742f0846a855cff609d7022038560b56bd9f20a2a65f43fe52d44f62d823b55d337ebf6630bf1ae72a38ca15012103c3cf3aac58b7efced2f4ef8ea41e02adf36e7f9af310614c5ce1d61af2f54bcd0247304402200677f19c36eb2cbfce3cc07c25cd004cd65a89a88b9dfadd50051b41724dc66d02200e912e25013d072ec64a732278b5310b95bbc0af6f854b0bcd7c7665cf7f4815012103c2673afa41354e5905669844f968dbb84c737a565b74dee708ed3867c77cfc4a02483045022100d89b91f2609c8e64e6de73fa1252739c839dfbf98fca99109b9ac7b38602477c022049f32c00ac13b1a2e8a30a0cfb7c82cd074232b81b49f32ae053faa4db00fdd20121032530209372b4d34295cff68b9ef3cc6668c7713ef9dc3597eb6e0e68a4a65e5f024730440220073daac1bee41fd609c2a9e9b3ab1fb361a71206935116ffb7a71c225d22e36b02205b61dd84fea5ccc9b7f1133e9594bcd8a80508037a1ef2ee68e6be9e8c4afe8201210218b85a21b3759511c8c458a65a18aa555317df9bae423387728a87b69ad3923e02483045022100b920cdbde051aaf94cbf3255a30efcbe24ca5aae147924e403338d7bcbdafaa702205626d2020abb9c3337b0d2e27e294a4a3c89b78578fb091ceb899662a18aa307012103f8586bbb728d824cd82dff836f35b67f27b594d67804f21c33c00367c236525b0247304402207667e7786e0ccbd8fac5a40d656bb1a889fbeafc09c1301de1c92d20ee6b183a02202f3a7b932c47cab5b175d011f80ef701fd7dea439dff5980021c508f1e59b7a9012103a153e5aad0e884e993b5d25c3e4beb9858cd65a28a2e4e8f45e5b8488519c384024830450221008cd66794b93db1d72eefb173cc9c7d74d539b9a0edf066fe57c094e2f0be5da802201d964c3d3a8e93241c85b0782bfb5f47f1534232ffd02a4ce61321adb91033a70121020c2dd93fe1ed8352534eeaaaa9d84f27a4650c57bda9383ec644f516bfb0215802473044022040adf6217da3f1c05409b7223404cfbc8dfb3be9349abca6410a51f9425b0340022033926c73bab1aeedb2b4994404734ceff8adb8c6b8d7d0716b03996b4166f3a1012102a5984c63f8a0fdb12165493dd7bcec1f00f6722fb8db61fe7dee632eb7de2d420247304402201d75d44f78dda02cad8c37b4d8c988e90fa87edc697c903ba9dcabe805d7d66502201f639d7e50e8bfb5703d6f4468bf39da4298261a4123ff78157ec17b2faef28e012103b63dc596076c657e99e80cde2f8dbef7f7e8b718e92ae1ebe616bc74b1409c3202473044022008b55ac4976b27d413adaa991b92cedf022be1221a2fbf2de13c4b89f0f24d9e022020e5759da11db7de3632f72ba186b459109fda48c155de3977c4060b14c39d01012103a86cf99fb8abdbba137c4b4da9394adf1c923459252819989f518867ae028821024730440220711c1386e516d390dcf6b616cd06d1477d86ad72e9f49575dea0b928e3675f9a022038e7733bff96d5cea023a1e80dac192291d7b475a9fe589fbdd984fdc4ca5046012102fc35f465e5b2e117a4ffb81455c5b6f32b33d6139b8eca79890817030581291f02483045022100a857b556309b623f647296a8df197b92498a95934849b6a589aef2bef3a9ac53022047bcecbca2fd263741626d06df163f3e051a6ed856a38419eeade1af0b315d180121038bfffab7fd2202e462d6fda3fa29bb5fac0327478bf1dbdfb2334b42ed190b5b0247304402203171163de99733e3719f8b4c9e24e7b8cfd4a8c47733c05665b10be5d722c9ed0220503d11705a62fcf892b39a7240ebf2b88b8caf8fbd7a140f3941af6f07bff97a012103f9a9b14faced292d7ca48c928d98a0c6995bf5b4071071d0b34bd0fe6967ad4d02483045022100c3549630b2013de3d813cf942361ab6f6f3b0a57dd3ea6f3306f9088ea9a85170220653a466f8c7f5836add1775458e2b55ed9dbe00b21dc281e79baf72ec05e33f4012103dc4711f7d9e814fafe01ba12069a8914f1b7eff09261bfd1d33023bd11de2a49024830450221008365164df1b74c2278bfe65005df5f679b803f0e509843a0da22b3d5a9b43d8102203195e33280f79293c2854e0d7f2002e95394659bb85b0f4b2107e03ec811c0af01210342576a844e2145a9982686685efca231716738e0c61336bfaf000353ec46c4f902483045022100ef6f57be003e78aeb8c2242e996943c6d553bde0478d38a98c17137aa13b326902204889b6898f3f84953a271e08aced48575f49c08431cee6e3426480924a082dc60121034df61d3185fc053010854aeed65e07697254e3a6156eee36954aefae8ce2d17f0247304402206e811a31edab91fcc0f226ca12f52b2765197af633ec697b00f4637e4c440f80022067a0180101655221663a62524ef45d3f2dca60efc31162561fd0cea6464cd0b901210297ae1f4e02727f37fa9b5020c928f83372a63ac9cd770ac7611115f70de69d530247304402202d6c32bc346edd45180a0b7ce0282d9d24dae040d9cfebcc80fed2bc0ae803d7022019762051849a054ff1a69666bffc80e769a991da5aeea792ae5a047ddd72fddb01210293e2de505daf0611882d9dc2e36387a9c1e454d118b6ce869392a33b014e9e8e02483045022100e46d9c13840b2e5bf0e0840ebdb90e4861862d0010912c7818f8a66f84c05b4502202058af967511502d7a468dadac4ed119930f3176213a0036f6418ae8bf0087e601210363bf3aac592a01d3f7ef2b2e94306ce17bec5c6fc4ea09deaf11955eaf89d49802483045022100a8895fbb91a0173aa9359b4b3c6df69c9365d2b0aba681b3c84de89ddd76e40c02207706a45194202829aa9b3fe4120eae0acc90590a8d099b54cb13c324b9978434012103d340f009f474ee8bca89978730a191f4127c7031f8a110fe5a3f57429a40cabc02473044022063bbea4bbb80b35c03896a97de713f5ed38eb533ddb748fe06c7926a18dabda502201330b12a898506282aad896cde15f3af1cb7f29d37f73ef7d8db807c0ce0b6bf012102146d4b2f6d37322adf88cfe2feb098a08159ceb01aaae139b113def0cba830b702483045022100db8fa96b3c47ba0ac5931a805709b0d07a10f73907d71437dce57022f0a7671a02200f61459712fb3b1b3f2b6459b99836713fdb503a1feacb079574a312b59542b4012102614be9df4c8f623bd37e0071d84db1079111f719f0d1a735d7d2735d582edb380247304402204ae92b4a7f130c0f954f74a7e6c7146641af1e86428703d3602881de9e426d1102200659045f877917b846c52d27897d77b6a67f0fdd03ced34022654ba937a62a42012102d4729b9a285e63a905d149893e97bdde8c72b09479c63529ee00ebae52b38bd10247304402203c189acb006e74fa19f375f07397914b50fed90a08ba07c687fc3afc6142fa9802207892cd80dec001495caa4c303f8070aaa68adaa542e0ba6f51caa6097fb7a3d5012102ee571ef10c6c885f679f1625e597f8f99b792888ab206aab1a040fdc5e3fc3350247304402206017a180840c1f902d7e6a96a7015fb34c525ee90b427c7ae5ce31b7e81353220220538a3c6a7a44c22a9cdb626e7ad2e6417f44ac23d843d742850509d078b926740121039cb4ad0315014e18849f18bccce2905a255ef79abb0acc99196949c9d4869b7502483045022100e1cc8f12e9210a43ac4f8bdfd4edee04a203b155d53529fe5a60cf66a12acf7a022048d4a8cba06dc5bb13804886878c6e6c2eef1986bc636ca5e58ae1c6fcc0393b012103b38b4c85a5367e56ec99b3f8c22a6689bcdb56e1ab38f7f215d21d07fadd54aa0247304402207de3709d9b9557b7a003c3a89b760f20b7a90c34b35508a38bb702eaf529cb1902207ed05b9af2bab48794329c29aae94de8a113d5471f10211c74ff42b4487ffa9f012103bcc9aea3b5c2766647f93b02815d07749acb1bd75ffebfbb0c682ceb13e61f460247304402200816a35f6b20605c8fabf4c7fcff65c2bff14300940156ac3b4f087c9145e54802203e2796cef6e7e714c8242fc278f2758457939cc0eedab134c338c5d761221844012103e488f8c4c3d308a7741280478403fb7c34d5b35561acf6340064df31171011610247304402200d03a99cc7e9a0a8ec84271383fbf97fda17063e471e60ffa1d24d4f4d42e77502207133e5fa3cf4341ff640f5646766d4f88b009df196c694476740aeced25c40ae012102650cdd18fcdd5a29b00dc70338ebfc71fab4c410ffa787d30929a914de2809be02473044022053eb96c0fe2b428460875cca7a2389bf65bb7c07b1b3ceee0180ab43b5acb45a0220434e3e75c2b7cd71f0a98305e5134f165e5793fc9dd383b197536239bbbd46c0012102fd559be79eae7bef55068f2f108992ee73c0e433ee9f5c765fcca5bef4aaa74802483045022100c5bd195eb3592eee7e132359c46d4e966bfbb303bcd3a402a84b8131fe856b19022072d0b986dc467e4c205943d634b28f3aa49aa310c46310529104a34a05807c2d012103b893ec9c4c524708d532b80b94f2b4e7960d1962765b1d0e4af872cfeea8287900000000"
}