{
  "txid": "c329b7fb906eccd869db66e54c1a74061c8d4ef2bd9c3ef99d1aca882ceb4401",
  "version": 1,
  "locktime": 0,
  "vin": [
    {
      "txid": "888888888ccb1ccc4b32b85f7ae5474a274b72134ef0aaf91f420b23898826e7",
      "vout": 0,
      "prevout": {
        "scriptpubkey": "5120bc18d7b3719959062a0818a6e9e6b90f635b13141dd02119afc46824cb8c6ba7",
        "scriptpubkey_asm": "OP_PUSHNUM_1 OP_PUSHBYTES_32 bc18d7b3719959062a0818a6e9e6b90f635b13141dd02119afc46824cb8c6ba7",
        "scriptpubkey_type": "v1_p2tr",
        "scriptpubkey_address": "bc1phsvd0vm3n9vsv2sgrznwne4epa34kyc5rhgzzxd0c35zfjuvdwnsuruv5u",
        "value": 12071
      },
      "scriptsig": "",
      "scriptsig_asm": "",
      "witness": [
        "2dc54e3bd2f0e667ba3e5f39619b8fa02a878e91e60362d1d3e3336154c38a64fd2c8418b347fff09e677747e3b242bd9596b008ade35d56b3b961c8beab0e65",
        "20964ac4b39c9655d5bed1908c028e5b13bdcc67f011169207c5b2bcfd1aaffa8cac00630461746f6d03646d7446a16461726773a46474696d651a65f13814656e6f6e63651a0001000268626974776f726b636b3838383838383838382e386b6d696e745f7469636b657268696e66696e69747968",
        "c0964ac4b39c9655d5bed1908c028e5b13bdcc67f011169207c5b2bcfd1aaffa8c"
      ],
      "is_coinbase": false,
      "sequence": 4294967295
    }
  ],
  "vout": [
    {
      "scriptpubkey": "5120c9778f0f7116a0fa90e759ca54b375f5c38d7db5875a2860af8354d65a8671e2",
      "scriptpubkey_asm": "OP_PUSHNUM_1 OP_PUSHBYTES_32 c9778f0f7116a0fa90e759ca54b375f5c38d7db5875a2860af8354d65a8671e2",
      "scriptpubkey_type": "v1_p2tr",
      "scriptpubkey_address": "bc1pe9mc7rm3z6s04y88t899fvm47hpc6ld4sadzsc90sd2dvk5xw83qeh2mmm",
      "value": 9999
    }
  ],
  "size": 314,
  "weight": 596,
  "fee": 2072,
  "status": {
    "confirmed": true,
    "block_height": 834460,
    "block_hash": "00000000000000000000484a79b643b2524bbce82e5d8a442013fa5b8905ed98",
    "block_time": 1710307468
  },
  "hex": "01000000000101e7268889230b421ff9aaf04e13724b274a47e57a5fb8324bcc1ccb8c888888880000000000ffffffff010f27000000000000225120c9778f0f7116a0fa90e759ca54b375f5c38d7db5875a2860af8354d65a8671e203402dc54e3bd2f0e667ba3e5f39619b8fa02a878e91e60362d1d3e3336154c38a64fd2c8418b347fff09e677747e3b242bd9596b008ade35d56b3b961c8beab0e657520964ac4b39c9655d5bed1908c028e5b13bdcc67f011169207c5b2bcfd1aaffa8cac00630461746f6d03646d7446a16461726773a46474696d651a65f13814656e6f6e63651a0001000268626974776f726b636b3838383838383838382e386b6d696e745f7469636b657268696e66696e6974796821c0964ac4b39c9655d5bed1908c028e5b13bdcc67f011169207c5b2bcfd1aaffa8c00000000"
}