{
  "txid": "c343eaa9447bc1c2e9a67ba0d54c84eb8c3fa2f6b92e3712381edc9d4ee29934",
  "version": 1,
  "locktime": 0,
  "vin": [
    {
      "txid": "9ba3f13d48fde1e95502230e9169b78a6445c51a6243c7b8134f01b5288ce463",
      "vout": 1,
      "prevout": {
        "scriptpubkey": "0014c730d03ec8731041ed82eaf11f7687bc23b4a499",
        "scriptpubkey_asm": "OP_0 OP_PUSHBYTES_20 c730d03ec8731041ed82eaf11f7687bc23b4a499",
        "scriptpubkey_type": "v0_p2wpkh",
        "scriptpubkey_address": "bc1qcucdq0kgwvgyrmvzatc37a58hs3mffyeptjv5p",
        "value": 105078
      },
      "scriptsig": "",
      "scriptsig_asm": "",
      "witness": [
        "30440220431b1baed8a8a7c89e7c1d4e315569ac3b582ca09f7e046fa9e0dd12b0300c59022031088828f7861f662c6f75931ea64e9c8c45e42f814c3878a31b2482cd82974401",
        "036d2c58664d58e08f24f7343b5d79c4e9c582a9fadfc75e0334a89740432df9f7"
      ],
      "is_coinbase": false,
      "sequence": 4294967295
    }
  ],
  "vout": [
    {
      "scriptpubkey": "76a914adf1d6521f5df3a8b66762323f3fcfa6d22d347a88ac",
      "scriptpubkey_asm": "OP_DUP OP_HASH160 OP_PUSHBYTES_20 adf1d6521f5df3a8b66762323f3fcfa6d22d347a OP_EQUALVERIFY OP_CHECKSIG",
      "scriptpubkey_type": "p2pkh",
      "scriptpubkey_address": "1GrjcL6aPuFP9NLZZ4K1F5N2yCASwGJs8j",
      "value": 69360
    },
    {
      "scriptpubkey": "00145a206b0f007f97c2efda45a31cb5ca1cdde92623",
      "scriptpubkey_asm": "OP_0 OP_PUSHBYTES_20 5a206b0f007f97c2efda45a31cb5ca1cdde92623",
      "scriptpubkey_type": "v0_p2wpkh",
      "scriptpubkey_address": "bc1qtgsxkrcq07tu9m76gk33edw2rnw7jf3rv49mdv",
      "value": 33576
    }
  ],
  "size": 225,
  "weight": 573,
  "fee": 2142,
  "status": {
    "confirmed": true,
    "block_height": 834638,
    "block_hash": "000000000000000000025f742c626208ac87e0b7d15054abb4a19ca2d735a54e",
    "block_time": 1710405325
  },
  "hex": "0100000000010163e48c28b5014f13b8c743621ac545648ab769910e230255e9e1fd483df1a39b0100000000ffffffff02f00e0100000000001976a914adf1d6521f5df3a8b66762323f3fcfa6d22d347a88ac28830000000000001600145a206b0f007f97c2efda45a31cb5ca1cdde92623024730440220431b1baed8a8a7c89e7c1d4e315569ac3b582ca09f7e046fa9e0dd12b0300c59022031088828f7861f662c6f75931ea64e9c8c45e42f814c3878a31b2482cd8297440121036d2c58664d58e08f24f7343b5d79c4e9c582a9fadfc75e0334a89740432df9f700000000"
}