{
  "txid": "c3558e7105c25aa2cdb349d76e21b67aca8f8c147fc79bd31f23fc4d37e2380c",
  "version": 2,
  "locktime": 0,
  "vin": [
    {
      "txid": "e87844864e4ca558152e88c03965a0729058d47a4395b9d1cb71ee60e4d5fbdc",
      "vout": 36,
      "prevout": {
        "scriptpubkey": "00140357ee99835ad27740cb3cddca225fd799daf634",
        "scriptpubkey_asm": "OP_0 OP_PUSHBYTES_20 0357ee99835ad27740cb3cddca225fd799daf634",
        "scriptpubkey_type": "v0_p2wpkh",
        "scriptpubkey_address": "bc1qqdt7axvrttf8wsxt8nwu5gjl67va4a35czrcfk",
        "value": 369691
      },
      "scriptsig": "",
      "scriptsig_asm": "",
      "witness": [
        "3045022100c45f8183199f1dede74e879846aad71aa0e3b50407ec49765b0840368caf1d9f0220258bdae5922d1cc2ace44cfa032535db6095718b7a782189dde9f767965f420201",
        "02cf526e429c0fb77d8173ce8b0b58fe1e8481947fb6a345e68285d2ae742946c3"
      ],
      "is_coinbase": false,
      "sequence": 4294967295
    }
  ],
  "vout": [
    {
      "scriptpubkey": "a914b38e581853da114df7b96510eee00bb13df458b687",
      "scriptpubkey_asm": "OP_HASH160 OP_PUSHBYTES_20 b38e581853da114df7b96510eee00bb13df458b6 OP_EQUAL",
      "scriptpubkey_type": "p2sh",
      "scriptpubkey_address": "3J4RQ8AVZozTdCTkWGs5MvdaMsHG6bk1am",
      "value": 365000
    },
    {
      "scriptpubkey": "00140357ee99835ad27740cb3cddca225fd799daf634",
      "scriptpubkey_asm": "OP_0 OP_PUSHBYTES_20 0357ee99835ad27740cb3cddca225fd799daf634",
      "scriptpubkey_type": "v0_p2wpkh",
      "scriptpubkey_address": "bc1qqdt7axvrttf8wsxt8nwu5gjl67va4a35czrcfk",
      "value": 2987
    }
  ],
  "size": 224,
  "weight": 566,
  "fee": 1704,
  "status": {
    "confirmed": true,
    "block_height": 834460,
    "block_hash": "00000000000000000000484a79b643b2524bbce82e5d8a442013fa5b8905ed98",
    "block_time": 1710307468
  },
  "hex": "02000000000101dcfbd5e460ee71cbd1b995437ad4589072a06539c0882e1558a54c4e864478e82400000000ffffffff02c89105000000000017a914b38e581853da114df7b96510eee00bb13df458b687ab0b0000000000001600140357ee99835ad27740cb3cddca225fd799daf63402483045022100c45f8183199f1dede74e879846aad71aa0e3b50407ec49765b0840368caf1d9f0220258bdae5922d1cc2ace44cfa032535db6095718b7a782189dde9f767965f4202012102cf526e429c0fb77d8173ce8b0b58fe1e8481947fb6a345e68285d2ae742946c300000000"
}