{
  "txid": "c36406c941e49729f9be80bc68bbb34a61c9d7d5f341b8102e1f006c94f25891",
  "version": 2,
  "locktime": 0,
  "vin": [
    {
      "txid": "abdcbb8bcefa0f088373ceda41a70fe1aeaa3823b969e1169e2a29269068d8dc",
      "vout": 2,
      "prevout": {
        "scriptpubkey": "512013f9992bc45de76ad529fd3919da4d2a74d7705c05108cfde69f7f8ca2224693",
        "scriptpubkey_asm": "OP_PUSHNUM_1 OP_PUSHBYTES_32 13f9992bc45de76ad529fd3919da4d2a74d7705c05108cfde69f7f8ca2224693",
        "scriptpubkey_type": "v1_p2tr",
        "scriptpubkey_address": "bc1pz0uej27ythnk44ffl5u3nkjd9f6dwuzuq5ggel0xnalceg3zg6fsnw48yk",
        "value": 2522
      },
      "scriptsig": "",
      "scriptsig_asm": "",
      "witness": [
        "eba1a58f5a045e0178c585df43537060499feb5f01d90f1e0824171f61c3d62ceab6ac5ba99eb02826f93a3d9585471782cd901ded735aeec45ef53cb8ffbb07",
        "201fd089f87f60c6b2ed0892347411c7ab5a5c328b4779f2f76eb0d78c27e3c4e0ac0063036f7264010118746578742f706c61696e3b636861727365743d7574662d3800387b2270223a226272632d3230222c226f70223a227472616e73666572222c227469636b223a226f726e6a222c22616d74223a22313030227d68",
        "c025dced391475af84759664675c16f5ed581b243a944241d7ee258c8cfb80c9db"
      ],
      "is_coinbase": false,
      "sequence": 4294967295
    }
  ],
  "vout": [
    {
      "scriptpubkey": "512060e7b9d91ee3091b65165528563dba11a47299520ea2fc67070ec6ac303fc05d",
      "scriptpubkey_asm": "OP_PUSHNUM_1 OP_PUSHBYTES_32 60e7b9d91ee3091b65165528563dba11a47299520ea2fc67070ec6ac303fc05d",
      "scriptpubkey_type": "v1_p2tr",
      "scriptpubkey_address": "bc1pvrnmnkg7uvy3kegk2559v0d6zxj89x2jp630cec8pmr2cvplcpwsn3pn79",
      "value": 546
    }
  ],
  "size": 323,
  "weight": 605,
  "fee": 1976,
  "status": {
    "confirmed": true,
    "block_height": 834460,
    "block_hash": "00000000000000000000484a79b643b2524bbce82e5d8a442013fa5b8905ed98",
    "block_time": 1710307468
  },
  "hex": "02000000000101dcd8689026292a9e16e169b92338aaaee10fa741dace7383080fface8bbbdcab0200000000ffffffff01220200000000000022512060e7b9d91ee3091b65165528563dba11a47299520ea2fc67070ec6ac303fc05d0340eba1a58f5a045e0178c585df43537060499feb5f01d90f1e0824171f61c3d62ceab6ac5ba99eb02826f93a3d9585471782cd901ded735aeec45ef53cb8ffbb077e201fd089f87f60c6b2ed0892347411c7ab5a5c328b4779f2f76eb0d78c27e3c4e0ac0063036f7264010118746578742f706c61696e3b636861727365743d7574662d3800387b2270223a226272632d3230222c226f70223a227472616e73666572222c227469636b223a226f726e6a222c22616d74223a22313030227d6821c025dced391475af84759664675c16f5ed581b243a944241d7ee258c8cfb80c9db00000000"
}