{
  "txid": "c365c722abaa90b1a2dd9cf4038cb0b497159d84a4fbea01cb4927dd4a5778bf",
  "version": 2,
  "locktime": 834462,
  "vin": [
    {
      "txid": "5feddc06542c849b33217e91abd13e8ebc208b35fbaef85bfbfe5cd88fbad54c",
      "vout": 0,
      "prevout": {
        "scriptpubkey": "0014f1b2e40ab8c02bb089c419b71edfde216f1bbd25",
        "scriptpubkey_asm": "OP_0 OP_PUSHBYTES_20 f1b2e40ab8c02bb089c419b71edfde216f1bbd25",
        "scriptpubkey_type": "v0_p2wpkh",
        "scriptpubkey_address": "bc1q7xewgz4ccq4mpzwyrxm3ah77y9h3h0f9hcyalx",
        "value": 171992764
      },
      "scriptsig": "",
      "scriptsig_asm": "",
      "witness": [
        "304402202f873685726415807b5075fd2f8c0eac294a1059e3864310068e83f327636fee022024809eea2990237bd1b5a57886e411e8d8492c7e69c0ac4f92c301aaa2a3b41d01",
        "021bb6e0c4e963dff90402584b1b324677034044199ace35a6be6634b3f2053a11"
      ],
      "is_coinbase": false,
      "sequence": 4294967294
    }
  ],
  "vout": [
    {
      "scriptpubkey": "00144b1c28a7de26c179e79bbd7085f389f84d5e18af",
      "scriptpubkey_asm": "OP_0 OP_PUSHBYTES_20 4b1c28a7de26c179e79bbd7085f389f84d5e18af",
      "scriptpubkey_type": "v0_p2wpkh",
      "scriptpubkey_address": "bc1qfvwz3f77ymqhneumh4cgtuuflpx4ux90mgrfwa",
      "value": 171709555
    },
    {
      "scriptpubkey": "0014df2ce4d5423b9726f2d86569976162f546b24cb1",
      "scriptpubkey_asm": "OP_0 OP_PUSHBYTES_20 df2ce4d5423b9726f2d86569976162f546b24cb1",
      "scriptpubkey_type": "v0_p2wpkh",
      "scriptpubkey_address": "bc1qmukwf42z8wtjdukcv45ewctz74rtyn93j7aqd4",
      "value": 280100
    }
  ],
  "size": 222,
  "weight": 561,
  "fee": 3109,
  "status": {
    "confirmed": true,
    "block_height": 834464,
    "block_hash": "0000000000000000000177a0869a911a2b65c9bdcd5a8bcb02b68f305bee848e",
    "block_time": 1710308296
  },
  "hex": "020000000001014cd5ba8fd85cfefb5bf8aefb358b20bc8e3ed1ab917e21339b842c5406dced5f0000000000feffffff0273143c0a000000001600144b1c28a7de26c179e79bbd7085f389f84d5e18af2446040000000000160014df2ce4d5423b9726f2d86569976162f546b24cb10247304402202f873685726415807b5075fd2f8c0eac294a1059e3864310068e83f327636fee022024809eea2990237bd1b5a57886e411e8d8492c7e69c0ac4f92c301aaa2a3b41d0121021bb6e0c4e963dff90402584b1b324677034044199ace35a6be6634b3f2053a119ebb0c00"
}