{
  "txid": "c36981fffe037331c0d07b6e865a09354bb8ab29e7d35d5e34343459735207c4",
  "version": 2,
  "locktime": 0,
  "vin": [
    {
      "txid": "b5cf74a7a85b76f04610f235a622c508bcdde784a6680ea7ee667f5262e437c6",
      "vout": 5,
      "prevout": {
        "scriptpubkey": "a914cc4895c3d05783d4da021a5a783e3aa1ff08b45f87",
        "scriptpubkey_asm": "OP_HASH160 OP_PUSHBYTES_20 cc4895c3d05783d4da021a5a783e3aa1ff08b45f OP_EQUAL",
        "scriptpubkey_type": "p2sh",
        "scriptpubkey_address": "3LKAiyNRogmxcurNkfNY2WEK3TPbVqRpy1",
        "value": 600
      },
      "scriptsig": "1600148c5de912aea08ab11a1282ce2a2990e54e0eb4b0",
      "scriptsig_asm": "OP_PUSHBYTES_22 00148c5de912aea08ab11a1282ce2a2990e54e0eb4b0",
      "witness": [
        "3045022100aa43c95c4723ec93db82f245e32921266be0e29f4fcde59a4eddf0c672dd655b02207c7e46c16abaa8072015de7ddc0be2d57bf542a41f5f744958cf3a5b82949e0401",
        "02bfcd3732f4899d82b7b6163afc18ea1b1ae44dd54b35774d1e39593d63762875"
      ],
      "is_coinbase": false,
      "sequence": 4294967295,
      "inner_redeemscript_asm": "OP_0 OP_PUSHBYTES_20 8c5de912aea08ab11a1282ce2a2990e54e0eb4b0"
    },
    {
      "txid": "b5cf74a7a85b76f04610f235a622c508bcdde784a6680ea7ee667f5262e437c6",
      "vout": 4,
      "prevout": {
        "scriptpubkey": "a914cc4895c3d05783d4da021a5a783e3aa1ff08b45f87",
        "scriptpubkey_asm": "OP_HASH160 OP_PUSHBYTES_20 cc4895c3d05783d4da021a5a783e3aa1ff08b45f OP_EQUAL",
        "scriptpubkey_type": "p2sh",
        "scriptpubkey_address": "3LKAiyNRogmxcurNkfNY2WEK3TPbVqRpy1",
        "value": 600
      },
      "scriptsig": "1600148c5de912aea08ab11a1282ce2a2990e54e0eb4b0",
      "scriptsig_asm": "OP_PUSHBYTES_22 00148c5de912aea08ab11a1282ce2a2990e54e0eb4b0",
      "witness": [
        "30440220680c7307cd2d71d78fd5e71e02dec7f5d7fb63c6e11c958c213ac7c5947ef3d2022070e769a21ab8bce319a3a92ad8a158d65e7c84cd469117a2a12d68d66a02e1f001",
        "02bfcd3732f4899d82b7b6163afc18ea1b1ae44dd54b35774d1e39593d63762875"
      ],
      "is_coinbase": false,
      "sequence": 4294967295,
      "inner_redeemscript_asm": "OP_0 OP_PUSHBYTES_20 8c5de912aea08ab11a1282ce2a2990e54e0eb4b0"
    },
    {
      "txid": "78f4682943e3450fdd78854c44ef5a5ece8b642e44d0cfd947db14f9a9689e9c",
      "vout": 0,
      "prevout": {
        "scriptpubkey": "51203d11568f27f1420c6b229838cfe9daf9b4085ca9ebda817b04c39084f7114967",
        "scriptpubkey_asm": "OP_PUSHNUM_1 OP_PUSHBYTES_32 3d11568f27f1420c6b229838cfe9daf9b4085ca9ebda817b04c39084f7114967",
        "scriptpubkey_type": "v1_p2tr",
        "scriptpubkey_address": "bc1p85g4dre879pqc6eznquvl6w6lx6qsh9fa0dgz7cycwggfac3f9ns8advq0",
        "value": 546
      },
      "scriptsig": "",
      "scriptsig_asm": "",
      "witness": [
        "46f486040900271ab8add557d4197bb23b4250c6406f7941c2cac8342a0e6f80b6b8aa430cbe3d8b787c8e2b55e826ab66a61f5b705030fabe80428cf1739acd83"
      ],
      "is_coinbase": false,
      "sequence": 4294967295
    },
    {
      "txid": "b5cf74a7a85b76f04610f235a622c508bcdde784a6680ea7ee667f5262e437c6",
      "vout": 6,
      "prevout": {
        "scriptpubkey": "a914cc4895c3d05783d4da021a5a783e3aa1ff08b45f87",
        "scriptpubkey_asm": "OP_HASH160 OP_PUSHBYTES_20 cc4895c3d05783d4da021a5a783e3aa1ff08b45f OP_EQUAL",
        "scriptpubkey_type": "p2sh",
        "scriptpubkey_address": "3LKAiyNRogmxcurNkfNY2WEK3TPbVqRpy1",
        "value": 113064
      },
      "scriptsig": "1600148c5de912aea08ab11a1282ce2a2990e54e0eb4b0",
      "scriptsig_asm": "OP_PUSHBYTES_22 00148c5de912aea08ab11a1282ce2a2990e54e0eb4b0",
      "witness": [
        "304402200955e749eb9aa12543d49bb5c99d79638f08a3ad2ca5d1440dca1f57c98c2f8402202fd01bdebd09cc05fcd2db9f94934f191d0c3c72d67fa11e04d622132e3fd37101",
        "02bfcd3732f4899d82b7b6163afc18ea1b1ae44dd54b35774d1e39593d63762875"
      ],
      "is_coinbase": false,
      "sequence": 4294967295,
      "inner_redeemscript_asm": "OP_0 OP_PUSHBYTES_20 8c5de912aea08ab11a1282ce2a2990e54e0eb4b0"
    },
    {
      "txid": "47d3af9645333f608eaf7a54c9ec1be2f3052e287cc7372e6b4e029a020807f2",
      "vout": 14,
      "prevout": {
        "scriptpubkey": "a914cc4895c3d05783d4da021a5a783e3aa1ff08b45f87",
        "scriptpubkey_asm": "OP_HASH160 OP_PUSHBYTES_20 cc4895c3d05783d4da021a5a783e3aa1ff08b45f OP_EQUAL",
        "scriptpubkey_type": "p2sh",
        "scriptpubkey_address": "3LKAiyNRogmxcurNkfNY2WEK3TPbVqRpy1",
        "value": 98356
      },
      "scriptsig": "1600148c5de912aea08ab11a1282ce2a2990e54e0eb4b0",
      "scriptsig_asm": "OP_PUSHBYTES_22 00148c5de912aea08ab11a1282ce2a2990e54e0eb4b0",
      "witness": [
        "3045022100c087984d7fd08f74805bd638bb82936ce6b0cac11e7253226e7087c157526994022023bb3503f4565b4e7c5f91ebb5cd762768ff50a8b6512aef47e11da74fd5b02901",
        "02bfcd3732f4899d82b7b6163afc18ea1b1ae44dd54b35774d1e39593d63762875"
      ],
      "is_coinbase": false,
      "sequence": 4294967295,
      "inner_redeemscript_asm": "OP_0 OP_PUSHBYTES_20 8c5de912aea08ab11a1282ce2a2990e54e0eb4b0"
    }
  ],
  "vout": [
    {
      "scriptpubkey": "a914cc4895c3d05783d4da021a5a783e3aa1ff08b45f87",
      "scriptpubkey_asm": "OP_HASH160 OP_PUSHBYTES_20 cc4895c3d05783d4da021a5a783e3aa1ff08b45f OP_EQUAL",
      "scriptpubkey_type": "p2sh",
      "scriptpubkey_address": "3LKAiyNRogmxcurNkfNY2WEK3TPbVqRpy1",
      "value": 1200
    },
    {
      "scriptpubkey": "512049ceeee2b04518ab20a100dcd5cb67ebac9e8126fe1e31ed0da8c12a5b72e6a1",
      "scriptpubkey_asm": "OP_PUSHNUM_1 OP_PUSHBYTES_32 49ceeee2b04518ab20a100dcd5cb67ebac9e8126fe1e31ed0da8c12a5b72e6a1",
      "scriptpubkey_type": "v1_p2tr",
      "scriptpubkey_address": "bc1pf88wac4sg5v2kg9pqrwdtjm8awkfaqfxlc0rrmgd4rqj5kmju6ssv8g406",
      "value": 546
    },
    {
      "scriptpubkey": "51203d11568f27f1420c6b229838cfe9daf9b4085ca9ebda817b04c39084f7114967",
      "scriptpubkey_asm": "OP_PUSHNUM_1 OP_PUSHBYTES_32 3d11568f27f1420c6b229838cfe9daf9b4085ca9ebda817b04c39084f7114967",
      "scriptpubkey_type": "v1_p2tr",
      "scriptpubkey_address": "bc1p85g4dre879pqc6eznquvl6w6lx6qsh9fa0dgz7cycwggfac3f9ns8advq0",
      "value": 199995
    },
    {
      "scriptpubkey": "5120080ed232d2aff2f63d956576db394f477df7f0a9bb4ee5b75ec36f1d1b43c5d7",
      "scriptpubkey_asm": "OP_PUSHNUM_1 OP_PUSHBYTES_32 080ed232d2aff2f63d956576db394f477df7f0a9bb4ee5b75ec36f1d1b43c5d7",
      "scriptpubkey_type": "v1_p2tr",
      "scriptpubkey_address": "bc1ppq8dyvkj4le0v0v4v4mdkw20ga7l0u9fhd8wtd67cdh36x6rchtsudyat9",
      "value": 5025
    }
  ],
  "size": 967,
  "weight": 2371,
  "fee": 6400,
  "status": {
    "confirmed": true,
    "block_height": 834464,
    "block_hash": "0000000000000000000177a0869a911a2b65c9bdcd5a8bcb02b68f305bee848e",
    "block_time": 1710308296
  },
  "hex": "02000000000105c637e462527f66eea70e68a684e7ddbc08c522a635f21046f0765ba8a774cfb505000000171600148c5de912aea08ab11a1282ce2a2990e54e0eb4b0ffffffffc637e462527f66eea70e68a684e7ddbc08c522a635f21046f0765ba8a774cfb504000000171600148c5de912aea08ab11a1282ce2a2990e54e0eb4b0ffffffff9c9e68a9f914db47d9cfd0442e648bce5e5aef444c8578dd0f45e3432968f4780000000000ffffffffc637e462527f66eea70e68a684e7ddbc08c522a635f21046f0765ba8a774cfb506000000171600148c5de912aea08ab11a1282ce2a2990e54e0eb4b0fffffffff20708029a024e6b2e37c77c282e05f3e21becc9547aaf8e603f334596afd3470e000000171600148c5de912aea08ab11a1282ce2a2990e54e0eb4b0ffffffff04b00400000000000017a914cc4895c3d05783d4da021a5a783e3aa1ff08b45f87220200000000000022512049ceeee2b04518ab20a100dcd5cb67ebac9e8126fe1e31ed0da8c12a5b72e6a13b0d0300000000002251203d11568f27f1420c6b229838cfe9daf9b4085ca9ebda817b04c39084f7114967a113000000000000225120080ed232d2aff2f63d956576db394f477df7f0a9bb4ee5b75ec36f1d1b43c5d702483045022100aa43c95c4723ec93db82f245e32921266be0e29f4fcde59a4eddf0c672dd655b02207c7e46c16abaa8072015de7ddc0be2d57bf542a41f5f744958cf3a5b82949e04012102bfcd3732f4899d82b7b6163afc18ea1b1ae44dd54b35774d1e39593d63762875024730440220680c7307cd2d71d78fd5e71e02dec7f5d7fb63c6e11c958c213ac7c5947ef3d2022070e769a21ab8bce319a3a92ad8a158d65e7c84cd469117a2a12d68d66a02e1f0012102bfcd3732f4899d82b7b6163afc18ea1b1ae44dd54b35774d1e39593d63762875014146f486040900271ab8add557d4197bb23b4250c6406f7941c2cac8342a0e6f80b6b8aa430cbe3d8b787c8e2b55e826ab66a61f5b705030fabe80428cf1739acd830247304402200955e749eb9aa12543d49bb5c99d79638f08a3ad2ca5d1440dca1f57c98c2f8402202fd01bdebd09cc05fcd2db9f94934f191d0c3c72d67fa11e04d622132e3fd371012102bfcd3732f4899d82b7b6163afc18ea1b1ae44dd54b35774d1e39593d6376287502483045022100c087984d7fd08f74805bd638bb82936ce6b0cac11e7253226e7087c157526994022023bb3503f4565b4e7c5f91ebb5cd762768ff50a8b6512aef47e11da74fd5b029012102bfcd3732f4899d82b7b6163afc18ea1b1ae44dd54b35774d1e39593d6376287500000000"
}