{
  "txid": "c36be30090f643e9ffe060cb717a168ea47b0df399384036c2d0361926e82162",
  "version": 2,
  "locktime": 0,
  "vin": [
    {
      "txid": "ca49732a8789b812361e997512b66bc3787f1e3ff39f5f0d8b845e09438043f6",
      "vout": 12,
      "prevout": {
        "scriptpubkey": "512059d9be9e60f5f6abcd0d47b878712ec4516b03903ff13522faa89c6d5b66bbcb",
        "scriptpubkey_asm": "OP_PUSHNUM_1 OP_PUSHBYTES_32 59d9be9e60f5f6abcd0d47b878712ec4516b03903ff13522faa89c6d5b66bbcb",
        "scriptpubkey_type": "v1_p2tr",
        "scriptpubkey_address": "bc1pt8vma8nq7hm2hngdg7u8sufwc3gkkqus8lcn2gh64zwx6kmxh09st7t60u",
        "value": 2066
      },
      "scriptsig": "",
      "scriptsig_asm": "",
      "witness": [
        "303f9b19b2fec664b9081d2c93fd603b3cbcd809a7e1e09fbfdc7b8ade4c9a4896c7c7f8c93803393b590fac0b28fc55f3d5e4caee61847541727581d328733a",
        "205773aa332783506174c8b31b64f621d88e43a91669b99c3d64bf6a4fc8087018ac0063036f726401010a746578742f706c61696e00367b2270223a226272632d3230222c226f70223a226d696e74222c227469636b223a2261616161222c22616d74223a223130303030227d68",
        "c15773aa332783506174c8b31b64f621d88e43a91669b99c3d64bf6a4fc8087018"
      ],
      "is_coinbase": false,
      "sequence": 4261412863
    }
  ],
  "vout": [
    {
      "scriptpubkey": "0014b12a255b419b46c01324705abea5fd2949f55051",
      "scriptpubkey_asm": "OP_0 OP_PUSHBYTES_20 b12a255b419b46c01324705abea5fd2949f55051",
      "scriptpubkey_type": "v0_p2wpkh",
      "scriptpubkey_address": "bc1qky4z2k6pndrvqyeywpdtaf0a99yl25z3zp84r6",
      "value": 294
    }
  ],
  "size": 295,
  "weight": 541,
  "fee": 1772,
  "status": {
    "confirmed": true,
    "block_height": 834460,
    "block_hash": "00000000000000000000484a79b643b2524bbce82e5d8a442013fa5b8905ed98",
    "block_time": 1710307468
  },
  "hex": "02000000000101f6438043095e848b0d5f9ff33f1e7f78c36bb61275991e3612b889872a7349ca0c00000000fffffffd012601000000000000160014b12a255b419b46c01324705abea5fd2949f550510340303f9b19b2fec664b9081d2c93fd603b3cbcd809a7e1e09fbfdc7b8ade4c9a4896c7c7f8c93803393b590fac0b28fc55f3d5e4caee61847541727581d328733a6e205773aa332783506174c8b31b64f621d88e43a91669b99c3d64bf6a4fc8087018ac0063036f726401010a746578742f706c61696e00367b2270223a226272632d3230222c226f70223a226d696e74222c227469636b223a2261616161222c22616d74223a223130303030227d6821c15773aa332783506174c8b31b64f621d88e43a91669b99c3d64bf6a4fc808701800000000"
}