{
  "txid": "c37c81f56f36d4c08d3afd5072bf8779b12949abfd2d081af230ada474cdd45d",
  "version": 1,
  "locktime": 0,
  "vin": [
    {
      "txid": "11a50d449eee2b147da3f012c98a2769c969302e705f4c4e64e249283efe48f4",
      "vout": 0,
      "prevout": {
        "scriptpubkey": "001440d6c4f6d247a8d7bcae4e6c73c2f2ef47115618",
        "scriptpubkey_asm": "OP_0 OP_PUSHBYTES_20 40d6c4f6d247a8d7bcae4e6c73c2f2ef47115618",
        "scriptpubkey_type": "v0_p2wpkh",
        "scriptpubkey_address": "bc1qgrtvfakjg75d009wfek88shjaar3z4sce2sqse",
        "value": 1942336
      },
      "scriptsig": "",
      "scriptsig_asm": "",
      "witness": [
        "304402207466935d6cfc8435226fe40d28701ac05e92b35a71ea17273dc5035db243c2c302202e4786945113613b053aa48a279d12f114b54adcc01399278de6c6f7b07d97dd01",
        "0333db0430a9895c218f3d7fa9b71ac6dda369afb1296e209859467b7e5db7ec94"
      ],
      "is_coinbase": false,
      "sequence": 4294967295
    }
  ],
  "vout": [
    {
      "scriptpubkey": "0014f2ee68b7d0caaa14e7d75557d57c432db947b2bb",
      "scriptpubkey_asm": "OP_0 OP_PUSHBYTES_20 f2ee68b7d0caaa14e7d75557d57c432db947b2bb",
      "scriptpubkey_type": "v0_p2wpkh",
      "scriptpubkey_address": "bc1q7thx3d7se24pfe7h24ta2lzr9ku50v4mjg228u",
      "value": 1920000
    },
    {
      "scriptpubkey": "001440d6c4f6d247a8d7bcae4e6c73c2f2ef47115618",
      "scriptpubkey_asm": "OP_0 OP_PUSHBYTES_20 40d6c4f6d247a8d7bcae4e6c73c2f2ef47115618",
      "scriptpubkey_type": "v0_p2wpkh",
      "scriptpubkey_address": "bc1qgrtvfakjg75d009wfek88shjaar3z4sce2sqse",
      "value": 18529
    }
  ],
  "size": 222,
  "weight": 561,
  "fee": 3807,
  "status": {
    "confirmed": true,
    "block_height": 834638,
    "block_hash": "000000000000000000025f742c626208ac87e0b7d15054abb4a19ca2d735a54e",
    "block_time": 1710405325
  },
  "hex": "01000000000101f448fe3e2849e2644e4c5f702e3069c969278ac912f0a37d142bee9e440da5110000000000ffffffff02004c1d0000000000160014f2ee68b7d0caaa14e7d75557d57c432db947b2bb614800000000000016001440d6c4f6d247a8d7bcae4e6c73c2f2ef471156180247304402207466935d6cfc8435226fe40d28701ac05e92b35a71ea17273dc5035db243c2c302202e4786945113613b053aa48a279d12f114b54adcc01399278de6c6f7b07d97dd01210333db0430a9895c218f3d7fa9b71ac6dda369afb1296e209859467b7e5db7ec9400000000"
}