{
  "txid": "c37fb468455a38e9eff5a78444c564262c330a1f7b07da38c70220e23d1ff168",
  "version": 2,
  "locktime": 0,
  "vin": [
    {
      "txid": "f7ee1d9857f23adb6df9fd8217beb528bdc0691f0011cdc5da4b9c98e3415cb2",
      "vout": 4,
      "prevout": {
        "scriptpubkey": "51207b968f84243a067d4db7970d793974271d841c53d9d30401813ff0d21e9888f1",
        "scriptpubkey_asm": "OP_PUSHNUM_1 OP_PUSHBYTES_32 7b968f84243a067d4db7970d793974271d841c53d9d30401813ff0d21e9888f1",
        "scriptpubkey_type": "v1_p2tr",
        "scriptpubkey_address": "bc1p0wtglppy8gr86ndhjuxhjwt5yuwcg8znm8fsgqvp8lcdy85c3rcshpk8s4",
        "value": 2862
      },
      "scriptsig": "",
      "scriptsig_asm": "",
      "witness": [
        "f8d800040b2794732f54df1ff375373e00eadcd234dd9b8fa51d3f3fb4848b23dd61d74811771ce03bbd9d15a1da28906d6596c1193b6d9df9885d5e72cb8a07",
        "208f7a74e21a6b68a9fef26575c8028af2d135c7d2f3dbb2ffa11c11cb3fa91966ac0063036f726401011e6170706c69636174696f6e2f6a736f6e3b636861727365743d7574662d38004cd37b2270223a22706f772d3230222c226f70223a226d696e74222c227469636b223a2250455045222c22616d74223a2231303030222c22736f6c7574696f6e223a22504550453a626331707136676b767964716164703375666734666865777770757771743730716b37396d6c6b6d37706b356a38657967363870796632716379703832633a303030303030303030303030303030303030303139393431613561653132383937363539383134343239323533333030353762306461393666336465613163353a3539323234323936303238227d68",
        "c09c5626bdc3533ba8aa729d0f30d751dd071a8b8f6bd9e78daf679d343f12d20e"
      ],
      "is_coinbase": false,
      "sequence": 4294967295
    }
  ],
  "vout": [
    {
      "scriptpubkey": "512006916611a0eb431e25154df2e7078e02fcf05bc5dfedbf06d491f24468e12254",
      "scriptpubkey_asm": "OP_PUSHNUM_1 OP_PUSHBYTES_32 06916611a0eb431e25154df2e7078e02fcf05bc5dfedbf06d491f24468e12254",
      "scriptpubkey_type": "v1_p2tr",
      "scriptpubkey_address": "bc1pq6gkvydqadp3ufg4fhewwpuwqt70qk79mlkm7pk5j8eyg68pyf2qcyp82c",
      "value": 546
    }
  ],
  "size": 487,
  "weight": 769,
  "fee": 2316,
  "status": {
    "confirmed": true,
    "block_height": 834460,
    "block_hash": "00000000000000000000484a79b643b2524bbce82e5d8a442013fa5b8905ed98",
    "block_time": 1710307468
  },
  "hex": "02000000000101b25c41e3989c4bdac5cd11001f69c0bd28b5be1782fdf96ddb3af257981deef70400000000ffffffff01220200000000000022512006916611a0eb431e25154df2e7078e02fcf05bc5dfedbf06d491f24468e122540340f8d800040b2794732f54df1ff375373e00eadcd234dd9b8fa51d3f3fb4848b23dd61d74811771ce03bbd9d15a1da28906d6596c1193b6d9df9885d5e72cb8a07fd2001208f7a74e21a6b68a9fef26575c8028af2d135c7d2f3dbb2ffa11c11cb3fa91966ac0063036f726401011e6170706c69636174696f6e2f6a736f6e3b636861727365743d7574662d38004cd37b2270223a22706f772d3230222c226f70223a226d696e74222c227469636b223a2250455045222c22616d74223a2231303030222c22736f6c7574696f6e223a22504550453a626331707136676b767964716164703375666734666865777770757771743730716b37396d6c6b6d37706b356a38657967363870796632716379703832633a303030303030303030303030303030303030303139393431613561653132383937363539383134343239323533333030353762306461393666336465613163353a3539323234323936303238227d6821c09c5626bdc3533ba8aa729d0f30d751dd071a8b8f6bd9e78daf679d343f12d20e00000000"
}