{
  "txid": "c3851d80e6332e77d6f2c5c9a45ccc7483d6ca0e45bb16485ed1a77d7a845a71",
  "version": 1,
  "locktime": 0,
  "vin": [
    {
      "txid": "a21cf11a4009d1d8f095e98a2b3585f808633eeb57ff769b45b7af2d6969194e",
      "vout": 1,
      "prevout": {
        "scriptpubkey": "00142d49cf8690778545e1214c0056145f04c9e33b97",
        "scriptpubkey_asm": "OP_0 OP_PUSHBYTES_20 2d49cf8690778545e1214c0056145f04c9e33b97",
        "scriptpubkey_type": "v0_p2wpkh",
        "scriptpubkey_address": "bc1q94yulp5sw7z5tcfpfsq9v9zlqny7xwuh95zry2",
        "value": 87015967
      },
      "scriptsig": "",
      "scriptsig_asm": "",
      "witness": [
        "304402206e11f263cff5273bdfaeab4897e9077c611621966bdb3d50a9f3dc21dae3c82e02206581520c5301753cd39f2900c7af12bf2901b5fb5b8382c92f2d13bdfe11fe3201",
        "0234e5ce67dc49769b6d477c533694bed19cbe5b377d7399a5816d8c19f5ddf110"
      ],
      "is_coinbase": false,
      "sequence": 4294967295
    }
  ],
  "vout": [
    {
      "scriptpubkey": "76a9148d21a69f0099e4d5bceca74910202a97c324f63388ac",
      "scriptpubkey_asm": "OP_DUP OP_HASH160 OP_PUSHBYTES_20 8d21a69f0099e4d5bceca74910202a97c324f633 OP_EQUALVERIFY OP_CHECKSIG",
      "scriptpubkey_type": "p2pkh",
      "scriptpubkey_address": "1DsEb9mG12WocjDLNg7TNL3vkyFf5Qt5KP",
      "value": 63700
    },
    {
      "scriptpubkey": "00142d49cf8690778545e1214c0056145f04c9e33b97",
      "scriptpubkey_asm": "OP_0 OP_PUSHBYTES_20 2d49cf8690778545e1214c0056145f04c9e33b97",
      "scriptpubkey_type": "v0_p2wpkh",
      "scriptpubkey_address": "bc1q94yulp5sw7z5tcfpfsq9v9zlqny7xwuh95zry2",
      "value": 86948030
    }
  ],
  "size": 225,
  "weight": 573,
  "fee": 4237,
  "status": {
    "confirmed": true,
    "block_height": 834552,
    "block_hash": "00000000000000000001dd0468a70c94f619251d286585cff57aeb4bd9ede330",
    "block_time": 1710355598
  },
  "hex": "010000000001014e1969692dafb7459b76ff57eb3e6308f885352b8ae995f0d8d109401af11ca20100000000ffffffff02d4f80000000000001976a9148d21a69f0099e4d5bceca74910202a97c324f63388acbeb82e05000000001600142d49cf8690778545e1214c0056145f04c9e33b970247304402206e11f263cff5273bdfaeab4897e9077c611621966bdb3d50a9f3dc21dae3c82e02206581520c5301753cd39f2900c7af12bf2901b5fb5b8382c92f2d13bdfe11fe3201210234e5ce67dc49769b6d477c533694bed19cbe5b377d7399a5816d8c19f5ddf11000000000"
}