{
  "txid": "c38635dbc58cbbc0820a1dc915352aac68d81449c3771373ba49d7e858645eda",
  "version": 1,
  "locktime": 0,
  "vin": [
    {
      "txid": "c8a101fab319c36a4403a7bbe1a930be60cdfd71a4a2e50e194776beff9a249e",
      "vout": 1,
      "prevout": {
        "scriptpubkey": "0014318502b999d58790bf80176fd97b9b58640bb8ee",
        "scriptpubkey_asm": "OP_0 OP_PUSHBYTES_20 318502b999d58790bf80176fd97b9b58640bb8ee",
        "scriptpubkey_type": "v0_p2wpkh",
        "scriptpubkey_address": "bc1qxxzs9wve6krep0uqzahaj7umtpjqhw8wqsz9mq",
        "value": 174505690
      },
      "scriptsig": "",
      "scriptsig_asm": "",
      "witness": [
        "304402204f0246363c701e4fe8aff95db3439a31966717b20aa09d49d8f0be102100ea5f022019ba58f334a5ff744131b0c73ef1a0ba09580a91f47ed4cb50266b529023275501",
        "03a76d35609a365be7b0349f98a4d330b226345c37f6c5360330879d1e1f734b34"
      ],
      "is_coinbase": false,
      "sequence": 20230627
    }
  ],
  "vout": [
    {
      "scriptpubkey": "76a914093a7162a76d28b5b254ab200c31e49866fdd87b88ac",
      "scriptpubkey_asm": "OP_DUP OP_HASH160 OP_PUSHBYTES_20 093a7162a76d28b5b254ab200c31e49866fdd87b OP_EQUALVERIFY OP_CHECKSIG",
      "scriptpubkey_type": "p2pkh",
      "scriptpubkey_address": "1qo6Qr9Bvd8Cf9LyHaubewkBRUtTzwmbT",
      "value": 10746948
    },
    {
      "scriptpubkey": "0014318502b999d58790bf80176fd97b9b58640bb8ee",
      "scriptpubkey_asm": "OP_0 OP_PUSHBYTES_20 318502b999d58790bf80176fd97b9b58640bb8ee",
      "scriptpubkey_type": "v0_p2wpkh",
      "scriptpubkey_address": "bc1qxxzs9wve6krep0uqzahaj7umtpjqhw8wqsz9mq",
      "value": 80739842
    },
    {
      "scriptpubkey": "76a914f3ef012c204f385af597bc1070043149dfb2f50788ac",
      "scriptpubkey_asm": "OP_DUP OP_HASH160 OP_PUSHBYTES_20 f3ef012c204f385af597bc1070043149dfb2f507 OP_EQUALVERIFY OP_CHECKSIG",
      "scriptpubkey_type": "p2pkh",
      "scriptpubkey_address": "1PEoWwkyttBW7JC6uMv5gmf4V3cwXoLrbk",
      "value": 83010000
    }
  ],
  "size": 259,
  "weight": 709,
  "fee": 8900,
  "status": {
    "confirmed": true,
    "block_height": 834638,
    "block_hash": "000000000000000000025f742c626208ac87e0b7d15054abb4a19ca2d735a54e",
    "block_time": 1710405325
  },
  "hex": "010000000001019e249affbe7647190ee5a2a471fdcd60be30a9e1bba703446ac319b3fa01a1c80100000000e3b134010344fca300000000001976a914093a7162a76d28b5b254ab200c31e49866fdd87b88ac02fecf0400000000160014318502b999d58790bf80176fd97b9b58640bb8eed0a1f204000000001976a914f3ef012c204f385af597bc1070043149dfb2f50788ac0247304402204f0246363c701e4fe8aff95db3439a31966717b20aa09d49d8f0be102100ea5f022019ba58f334a5ff744131b0c73ef1a0ba09580a91f47ed4cb50266b5290232755012103a76d35609a365be7b0349f98a4d330b226345c37f6c5360330879d1e1f734b3400000000"
}