{
  "txid": "c3a4d8229277ee5bceaf32309e3b4c7ec0a009346cd96ebeb7f9eec6ec347da5",
  "version": 2,
  "locktime": 0,
  "vin": [
    {
      "txid": "85c5ed88775b8f0c6ee3f4dab435e4a75573cb2c37c86fe611db0ff7025552a2",
      "vout": 1,
      "prevout": {
        "scriptpubkey": "5120e7ddcf1cce238f708b9128b962480461d34e1e02efa4fd82e7c450c28ee2ac15",
        "scriptpubkey_asm": "OP_PUSHNUM_1 OP_PUSHBYTES_32 e7ddcf1cce238f708b9128b962480461d34e1e02efa4fd82e7c450c28ee2ac15",
        "scriptpubkey_type": "v1_p2tr",
        "scriptpubkey_address": "bc1pulwu78xwyw8hpzu39zukyjqyv8f5u8sza7j0mqh8c3gv9rhz4s2sy0u94w",
        "value": 1754526
      },
      "scriptsig": "",
      "scriptsig_asm": "",
      "witness": [
        "10d8739bdaa0219a03610fee8167cb6d94fa24e02a4157536ea08d8d1f0c838e63c8d1cd83aaeed3ecf9dd98600984b46df8a7cf187c4b5cb6ba0e5ccd098609"
      ],
      "is_coinbase": false,
      "sequence": 4294967293
    }
  ],
  "vout": [
    {
      "scriptpubkey": "5120e89c048efa8c700af0369a12c3829e4a368e7c754467d4637e01858a96818dbf",
      "scriptpubkey_asm": "OP_PUSHNUM_1 OP_PUSHBYTES_32 e89c048efa8c700af0369a12c3829e4a368e7c754467d4637e01858a96818dbf",
      "scriptpubkey_type": "v1_p2tr",
      "scriptpubkey_address": "bc1pazwqfrh633cq4upkngfv8q57fgmgulr4g3nagcm7qxzc495p3klsum5fze",
      "value": 2306
    },
    {
      "scriptpubkey": "5120e89c048efa8c700af0369a12c3829e4a368e7c754467d4637e01858a96818dbf",
      "scriptpubkey_asm": "OP_PUSHNUM_1 OP_PUSHBYTES_32 e89c048efa8c700af0369a12c3829e4a368e7c754467d4637e01858a96818dbf",
      "scriptpubkey_type": "v1_p2tr",
      "scriptpubkey_address": "bc1pazwqfrh633cq4upkngfv8q57fgmgulr4g3nagcm7qxzc495p3klsum5fze",
      "value": 2306
    },
    {
      "scriptpubkey": "5120e89c048efa8c700af0369a12c3829e4a368e7c754467d4637e01858a96818dbf",
      "scriptpubkey_asm": "OP_PUSHNUM_1 OP_PUSHBYTES_32 e89c048efa8c700af0369a12c3829e4a368e7c754467d4637e01858a96818dbf",
      "scriptpubkey_type": "v1_p2tr",
      "scriptpubkey_address": "bc1pazwqfrh633cq4upkngfv8q57fgmgulr4g3nagcm7qxzc495p3klsum5fze",
      "value": 2306
    },
    {
      "scriptpubkey": "5120e7ddcf1cce238f708b9128b962480461d34e1e02efa4fd82e7c450c28ee2ac15",
      "scriptpubkey_asm": "OP_PUSHNUM_1 OP_PUSHBYTES_32 e7ddcf1cce238f708b9128b962480461d34e1e02efa4fd82e7c450c28ee2ac15",
      "scriptpubkey_type": "v1_p2tr",
      "scriptpubkey_address": "bc1pulwu78xwyw8hpzu39zukyjqyv8f5u8sza7j0mqh8c3gv9rhz4s2sy0u94w",
      "value": 1744488
    }
  ],
  "size": 291,
  "weight": 960,
  "fee": 3120,
  "status": {
    "confirmed": true,
    "block_height": 834460,
    "block_hash": "00000000000000000000484a79b643b2524bbce82e5d8a442013fa5b8905ed98",
    "block_time": 1710307468
  },
  "hex": "02000000000101a2525502f70fdb11e66fc8372ccb7355a7e435b4daf4e36e0c8f5b7788edc5850100000000fdffffff040209000000000000225120e89c048efa8c700af0369a12c3829e4a368e7c754467d4637e01858a96818dbf0209000000000000225120e89c048efa8c700af0369a12c3829e4a368e7c754467d4637e01858a96818dbf0209000000000000225120e89c048efa8c700af0369a12c3829e4a368e7c754467d4637e01858a96818dbf689e1a0000000000225120e7ddcf1cce238f708b9128b962480461d34e1e02efa4fd82e7c450c28ee2ac15014010d8739bdaa0219a03610fee8167cb6d94fa24e02a4157536ea08d8d1f0c838e63c8d1cd83aaeed3ecf9dd98600984b46df8a7cf187c4b5cb6ba0e5ccd09860900000000"
}