{
  "txid": "c3a542bc37788d3872c92b68220899ca76fef89e0d32101dc45e075b3ffc5cf0",
  "version": 2,
  "locktime": 0,
  "vin": [
    {
      "txid": "79c5a8ebae612f0348b78395aab01a27087e4b5892c6f93f20b14efb0ded051e",
      "vout": 0,
      "prevout": {
        "scriptpubkey": "a914e280d91ab0f233b9fad52069c3f496ec9990ae7087",
        "scriptpubkey_asm": "OP_HASH160 OP_PUSHBYTES_20 e280d91ab0f233b9fad52069c3f496ec9990ae70 OP_EQUAL",
        "scriptpubkey_type": "p2sh",
        "scriptpubkey_address": "3NLezRBqRYYGBvNdQSW9etkvAb5f3fr1Kp",
        "value": 600
      },
      "scriptsig": "1600149bf838bc3ae119819414f7f482bacb3df7d2d2e6",
      "scriptsig_asm": "OP_PUSHBYTES_22 00149bf838bc3ae119819414f7f482bacb3df7d2d2e6",
      "witness": [
        "3045022100e03afb0d59e523443008fb72202c1be37e779dbd7a9d1791b574a70e1dab0151022052c20ec4370a61e386b25251ba226d44ec7f68814aaf84148d6a19be4bbb82f301",
        "036db1e1088fcd452b385461e15f1f02ffb33ceae9823be718e60c0b318883084b"
      ],
      "is_coinbase": false,
      "sequence": 4294967295,
      "inner_redeemscript_asm": "OP_0 OP_PUSHBYTES_20 9bf838bc3ae119819414f7f482bacb3df7d2d2e6"
    },
    {
      "txid": "79c5a8ebae612f0348b78395aab01a27087e4b5892c6f93f20b14efb0ded051e",
      "vout": 1,
      "prevout": {
        "scriptpubkey": "a914e280d91ab0f233b9fad52069c3f496ec9990ae7087",
        "scriptpubkey_asm": "OP_HASH160 OP_PUSHBYTES_20 e280d91ab0f233b9fad52069c3f496ec9990ae70 OP_EQUAL",
        "scriptpubkey_type": "p2sh",
        "scriptpubkey_address": "3NLezRBqRYYGBvNdQSW9etkvAb5f3fr1Kp",
        "value": 600
      },
      "scriptsig": "1600149bf838bc3ae119819414f7f482bacb3df7d2d2e6",
      "scriptsig_asm": "OP_PUSHBYTES_22 00149bf838bc3ae119819414f7f482bacb3df7d2d2e6",
      "witness": [
        "304402207a701066f81d187451fdce4390e7091f732746d7830ca187e36ea100ec1a160902201e8717f12b153349c92128ae6d7442147a8d99c449c3d6e411fbad99e596f59401",
        "036db1e1088fcd452b385461e15f1f02ffb33ceae9823be718e60c0b318883084b"
      ],
      "is_coinbase": false,
      "sequence": 4294967295,
      "inner_redeemscript_asm": "OP_0 OP_PUSHBYTES_20 9bf838bc3ae119819414f7f482bacb3df7d2d2e6"
    },
    {
      "txid": "aab2b9ae12f12bf92199218440f17344db8d019cb82c04a8737590dce710e188",
      "vout": 1,
      "prevout": {
        "scriptpubkey": "51208cb2404ade20bd01337fc5d62fcdcf1f30080d3c1c39e46b448a78371ec8ad48",
        "scriptpubkey_asm": "OP_PUSHNUM_1 OP_PUSHBYTES_32 8cb2404ade20bd01337fc5d62fcdcf1f30080d3c1c39e46b448a78371ec8ad48",
        "scriptpubkey_type": "v1_p2tr",
        "scriptpubkey_address": "bc1p3jeyqjk7yz7szvmlchtzlnw0rucqsrfursu7g66y3furw8kg44yqe6mq6a",
        "value": 10000
      },
      "scriptsig": "",
      "scriptsig_asm": "",
      "witness": [
        "52d26d7f311f46b8edcd4f42653d6c43ff7bb5460bc9e29f0c0f2ff24c7f9b1ecdf772939759d06de574ec6284a973c58c4e53caf8617a18a7c4a1fe113e659383"
      ],
      "is_coinbase": false,
      "sequence": 4294967295
    },
    {
      "txid": "79c5a8ebae612f0348b78395aab01a27087e4b5892c6f93f20b14efb0ded051e",
      "vout": 10,
      "prevout": {
        "scriptpubkey": "a914e280d91ab0f233b9fad52069c3f496ec9990ae7087",
        "scriptpubkey_asm": "OP_HASH160 OP_PUSHBYTES_20 e280d91ab0f233b9fad52069c3f496ec9990ae70 OP_EQUAL",
        "scriptpubkey_type": "p2sh",
        "scriptpubkey_address": "3NLezRBqRYYGBvNdQSW9etkvAb5f3fr1Kp",
        "value": 12463624
      },
      "scriptsig": "1600149bf838bc3ae119819414f7f482bacb3df7d2d2e6",
      "scriptsig_asm": "OP_PUSHBYTES_22 00149bf838bc3ae119819414f7f482bacb3df7d2d2e6",
      "witness": [
        "304402203dded7a8f9c105fdf19aecad69943ea256264fda301536b622729284437ab9ff022025f118c6d5deef2905ca0218c083390dc7d90d3789a22a35c56da81e3b7f6f6301",
        "036db1e1088fcd452b385461e15f1f02ffb33ceae9823be718e60c0b318883084b"
      ],
      "is_coinbase": false,
      "sequence": 4294967295,
      "inner_redeemscript_asm": "OP_0 OP_PUSHBYTES_20 9bf838bc3ae119819414f7f482bacb3df7d2d2e6"
    },
    {
      "txid": "c227af580553f102ce8964c6c66ae610b822084a408a978d69329dd651679e29",
      "vout": 1,
      "prevout": {
        "scriptpubkey": "a914e280d91ab0f233b9fad52069c3f496ec9990ae7087",
        "scriptpubkey_asm": "OP_HASH160 OP_PUSHBYTES_20 e280d91ab0f233b9fad52069c3f496ec9990ae70 OP_EQUAL",
        "scriptpubkey_type": "p2sh",
        "scriptpubkey_address": "3NLezRBqRYYGBvNdQSW9etkvAb5f3fr1Kp",
        "value": 11136906
      },
      "scriptsig": "1600149bf838bc3ae119819414f7f482bacb3df7d2d2e6",
      "scriptsig_asm": "OP_PUSHBYTES_22 00149bf838bc3ae119819414f7f482bacb3df7d2d2e6",
      "witness": [
        "30450221008dadf56813a8b718e32163d90e8f72397892afe863d36306054be5ecc91f54d702204a623691ffb93a84d3d7c8ba1425ca40831f51f5e813c752c867c5092fef765b01",
        "036db1e1088fcd452b385461e15f1f02ffb33ceae9823be718e60c0b318883084b"
      ],
      "is_coinbase": false,
      "sequence": 4294967295,
      "inner_redeemscript_asm": "OP_0 OP_PUSHBYTES_20 9bf838bc3ae119819414f7f482bacb3df7d2d2e6"
    }
  ],
  "vout": [
    {
      "scriptpubkey": "a914e280d91ab0f233b9fad52069c3f496ec9990ae7087",
      "scriptpubkey_asm": "OP_HASH160 OP_PUSHBYTES_20 e280d91ab0f233b9fad52069c3f496ec9990ae70 OP_EQUAL",
      "scriptpubkey_type": "p2sh",
      "scriptpubkey_address": "3NLezRBqRYYGBvNdQSW9etkvAb5f3fr1Kp",
      "value": 1200
    },
    {
      "scriptpubkey": "512019283abbbc6a440423b9765a55964f7176eb8e247713a9ac7475cfe90c7ed9be",
      "scriptpubkey_asm": "OP_PUSHNUM_1 OP_PUSHBYTES_32 19283abbbc6a440423b9765a55964f7176eb8e247713a9ac7475cfe90c7ed9be",
      "scriptpubkey_type": "v1_p2tr",
      "scriptpubkey_address": "bc1pry5r4waudfzqggaewed9t9j0w9mwhr3ywuf6ntr5wh87jrr7mxlq8trfzs",
      "value": 10000
    },
    {
      "scriptpubkey": "a9141540589583aa8ba07a3d1a5cb26dcb42d35847b087",
      "scriptpubkey_asm": "OP_HASH160 OP_PUSHBYTES_20 1540589583aa8ba07a3d1a5cb26dcb42d35847b0 OP_EQUAL",
      "scriptpubkey_type": "p2sh",
      "scriptpubkey_address": "33dPCQu2WSqHtCtSBsNqLv6UnaRojufjzF",
      "value": 19711000
    },
    {
      "scriptpubkey": "a914ea6b832a05c6ca578baa3836f3f25553d41068a587",
      "scriptpubkey_asm": "OP_HASH160 OP_PUSHBYTES_20 ea6b832a05c6ca578baa3836f3f25553d41068a5 OP_EQUAL",
      "scriptpubkey_type": "p2sh",
      "scriptpubkey_address": "3P4WqXDbSLRhzo2H6MT6YFbvBKBDPLbVtQ",
      "value": 495000
    },
    {
      "scriptpubkey": "a914e280d91ab0f233b9fad52069c3f496ec9990ae7087",
      "scriptpubkey_asm": "OP_HASH160 OP_PUSHBYTES_20 e280d91ab0f233b9fad52069c3f496ec9990ae70 OP_EQUAL",
      "scriptpubkey_type": "p2sh",
      "scriptpubkey_address": "3NLezRBqRYYGBvNdQSW9etkvAb5f3fr1Kp",
      "value": 600
    },
    {
      "scriptpubkey": "a914e280d91ab0f233b9fad52069c3f496ec9990ae7087",
      "scriptpubkey_asm": "OP_HASH160 OP_PUSHBYTES_20 e280d91ab0f233b9fad52069c3f496ec9990ae70 OP_EQUAL",
      "scriptpubkey_type": "p2sh",
      "scriptpubkey_address": "3NLezRBqRYYGBvNdQSW9etkvAb5f3fr1Kp",
      "value": 600
    },
    {
      "scriptpubkey": "a914e280d91ab0f233b9fad52069c3f496ec9990ae7087",
      "scriptpubkey_asm": "OP_HASH160 OP_PUSHBYTES_20 e280d91ab0f233b9fad52069c3f496ec9990ae70 OP_EQUAL",
      "scriptpubkey_type": "p2sh",
      "scriptpubkey_address": "3NLezRBqRYYGBvNdQSW9etkvAb5f3fr1Kp",
      "value": 3379302
    }
  ],
  "size": 1041,
  "weight": 2667,
  "fee": 14028,
  "status": {
    "confirmed": true,
    "block_height": 834460,
    "block_hash": "00000000000000000000484a79b643b2524bbce82e5d8a442013fa5b8905ed98",
    "block_time": 1710307468
  },
  "hex": "020000000001051e05ed0dfb4eb1203ff9c692584b7e08271ab0aa9583b748032f61aeeba8c57900000000171600149bf838bc3ae119819414f7f482bacb3df7d2d2e6ffffffff1e05ed0dfb4eb1203ff9c692584b7e08271ab0aa9583b748032f61aeeba8c57901000000171600149bf838bc3ae119819414f7f482bacb3df7d2d2e6ffffffff88e110e7dc907573a8042cb89c018ddb4473f14084219921f92bf112aeb9b2aa0100000000ffffffff1e05ed0dfb4eb1203ff9c692584b7e08271ab0aa9583b748032f61aeeba8c5790a000000171600149bf838bc3ae119819414f7f482bacb3df7d2d2e6ffffffff299e6751d69d32698d978a404a0822b810e66ac6c66489ce02f1530558af27c201000000171600149bf838bc3ae119819414f7f482bacb3df7d2d2e6ffffffff07b00400000000000017a914e280d91ab0f233b9fad52069c3f496ec9990ae7087102700000000000022512019283abbbc6a440423b9765a55964f7176eb8e247713a9ac7475cfe90c7ed9be18c42c010000000017a9141540589583aa8ba07a3d1a5cb26dcb42d35847b087988d07000000000017a914ea6b832a05c6ca578baa3836f3f25553d41068a587580200000000000017a914e280d91ab0f233b9fad52069c3f496ec9990ae7087580200000000000017a914e280d91ab0f233b9fad52069c3f496ec9990ae7087669033000000000017a914e280d91ab0f233b9fad52069c3f496ec9990ae708702483045022100e03afb0d59e523443008fb72202c1be37e779dbd7a9d1791b574a70e1dab0151022052c20ec4370a61e386b25251ba226d44ec7f68814aaf84148d6a19be4bbb82f30121036db1e1088fcd452b385461e15f1f02ffb33ceae9823be718e60c0b318883084b0247304402207a701066f81d187451fdce4390e7091f732746d7830ca187e36ea100ec1a160902201e8717f12b153349c92128ae6d7442147a8d99c449c3d6e411fbad99e596f5940121036db1e1088fcd452b385461e15f1f02ffb33ceae9823be718e60c0b318883084b014152d26d7f311f46b8edcd4f42653d6c43ff7bb5460bc9e29f0c0f2ff24c7f9b1ecdf772939759d06de574ec6284a973c58c4e53caf8617a18a7c4a1fe113e6593830247304402203dded7a8f9c105fdf19aecad69943ea256264fda301536b622729284437ab9ff022025f118c6d5deef2905ca0218c083390dc7d90d3789a22a35c56da81e3b7f6f630121036db1e1088fcd452b385461e15f1f02ffb33ceae9823be718e60c0b318883084b024830450221008dadf56813a8b718e32163d90e8f72397892afe863d36306054be5ecc91f54d702204a623691ffb93a84d3d7c8ba1425ca40831f51f5e813c752c867c5092fef765b0121036db1e1088fcd452b385461e15f1f02ffb33ceae9823be718e60c0b318883084b00000000"
}