{
  "txid": "c3b74abb29099f952b1ec2c23d22302ebcd5c54ac860c97c54553538e837a014",
  "version": 2,
  "locktime": 0,
  "vin": [
    {
      "txid": "ca49732a8789b812361e997512b66bc3787f1e3ff39f5f0d8b845e09438043f6",
      "vout": 16,
      "prevout": {
        "scriptpubkey": "51200322799b2563743109221986f74617edd23aedd6f89db1ad55dd010f60243035",
        "scriptpubkey_asm": "OP_PUSHNUM_1 OP_PUSHBYTES_32 0322799b2563743109221986f74617edd23aedd6f89db1ad55dd010f60243035",
        "scriptpubkey_type": "v1_p2tr",
        "scriptpubkey_address": "bc1pqv38nxe9vd6rzzfzrxr0w3shahfr4mwklzwmrt24m5qs7cpyxq6s0uhj5j",
        "value": 2066
      },
      "scriptsig": "",
      "scriptsig_asm": "",
      "witness": [
        "8626b17abfa556457fe603ec29e9b9fdbb9d5c3d022de0c73e30a1d2304ebc776517de2d310eaf1fb32a9e5571edc4b45df56134d6053985b008d033c0ff3e05",
        "204bb7d5c6ec7ad3a7bc6065404d86a8dcf3c6bc4d53d536f5e28360da8badcf78ac0063036f726401010a746578742f706c61696e00367b2270223a226272632d3230222c226f70223a226d696e74222c227469636b223a2261616161222c22616d74223a223130303030227d68",
        "c04bb7d5c6ec7ad3a7bc6065404d86a8dcf3c6bc4d53d536f5e28360da8badcf78"
      ],
      "is_coinbase": false,
      "sequence": 4261412863
    }
  ],
  "vout": [
    {
      "scriptpubkey": "0014b12a255b419b46c01324705abea5fd2949f55051",
      "scriptpubkey_asm": "OP_0 OP_PUSHBYTES_20 b12a255b419b46c01324705abea5fd2949f55051",
      "scriptpubkey_type": "v0_p2wpkh",
      "scriptpubkey_address": "bc1qky4z2k6pndrvqyeywpdtaf0a99yl25z3zp84r6",
      "value": 294
    }
  ],
  "size": 295,
  "weight": 541,
  "fee": 1772,
  "status": {
    "confirmed": true,
    "block_height": 834460,
    "block_hash": "00000000000000000000484a79b643b2524bbce82e5d8a442013fa5b8905ed98",
    "block_time": 1710307468
  },
  "hex": "02000000000101f6438043095e848b0d5f9ff33f1e7f78c36bb61275991e3612b889872a7349ca1000000000fffffffd012601000000000000160014b12a255b419b46c01324705abea5fd2949f5505103408626b17abfa556457fe603ec29e9b9fdbb9d5c3d022de0c73e30a1d2304ebc776517de2d310eaf1fb32a9e5571edc4b45df56134d6053985b008d033c0ff3e056e204bb7d5c6ec7ad3a7bc6065404d86a8dcf3c6bc4d53d536f5e28360da8badcf78ac0063036f726401010a746578742f706c61696e00367b2270223a226272632d3230222c226f70223a226d696e74222c227469636b223a2261616161222c22616d74223a223130303030227d6821c04bb7d5c6ec7ad3a7bc6065404d86a8dcf3c6bc4d53d536f5e28360da8badcf7800000000"
}