{
  "txid": "c3bdce9d2a6a9a5bec080feeb96babd80644d1a53e39e0340e695d50bae395fa",
  "version": 2,
  "locktime": 0,
  "vin": [
    {
      "txid": "426f08fbaaacdc4b13cb6f428c89487358ea4dac9ed7948a96cfaa3f67ad9d67",
      "vout": 29,
      "prevout": {
        "scriptpubkey": "5120cad3349223db825d7a91555117a44e714866cdcb76d7d930b5f169e2681f6d0b",
        "scriptpubkey_asm": "OP_PUSHNUM_1 OP_PUSHBYTES_32 cad3349223db825d7a91555117a44e714866cdcb76d7d930b5f169e2681f6d0b",
        "scriptpubkey_type": "v1_p2tr",
        "scriptpubkey_address": "bc1petfnfy3rmwp9675324g30fzww9yxdnwtwmtajv947957y6qld59s49nt0t",
        "value": 4599
      },
      "scriptsig": "",
      "scriptsig_asm": "",
      "witness": [
        "dbef62f0cabac811e2b3aa7a666b49b16aa76bcb37adf2a0ed82380338dd5eba56c4f4e38c730439f35641b1d7dcb99f13ee0a73c5934b6be60abe53d0ceba72",
        "206280c8182ee4c8955657a9e4b6a9dafda2f687276c61ed4abe052d4b890b3045ac0063036f726401011e6170706c69636174696f6e2f6a736f6e3b636861727365743d7574662d38004cd37b2270223a22706f772d3230222c226f70223a226d696e74222c227469636b223a2250455045222c22616d74223a2231303030222c22736f6c7574696f6e223a22504550453a62633170636a65387233733875656e746d64767a6e34777337786d3836367879707535756139357371796877756835616d61677565367a73707a733637713a303030303030303030303030303030303030303139393431613561653132383937363539383134343239323533333030353762306461393666336465613163353a3530363336303337333631227d68",
        "c1039ed2fd528e891a28907036b81ec900320c2b9f26f0b27e7e5cfd0fc9102a4d"
      ],
      "is_coinbase": false,
      "sequence": 4294967295
    }
  ],
  "vout": [
    {
      "scriptpubkey": "5120c4b271c607e666bdb5829d5d0f1b67d68c40f29ce9690012eee5e9ddf51cce85",
      "scriptpubkey_asm": "OP_PUSHNUM_1 OP_PUSHBYTES_32 c4b271c607e666bdb5829d5d0f1b67d68c40f29ce9690012eee5e9ddf51cce85",
      "scriptpubkey_type": "v1_p2tr",
      "scriptpubkey_address": "bc1pcje8r3s8uentmdvzn4ws7xm866xypu5ua95sqyhwuh5amague6zspzs67q",
      "value": 546
    }
  ],
  "size": 487,
  "weight": 769,
  "fee": 4053,
  "status": {
    "confirmed": true,
    "block_height": 834460,
    "block_hash": "00000000000000000000484a79b643b2524bbce82e5d8a442013fa5b8905ed98",
    "block_time": 1710307468
  },
  "hex": "02000000000101679dad673faacf968a94d79eac4dea587348898c426fcb134bdcacaafb086f421d00000000ffffffff012202000000000000225120c4b271c607e666bdb5829d5d0f1b67d68c40f29ce9690012eee5e9ddf51cce850340dbef62f0cabac811e2b3aa7a666b49b16aa76bcb37adf2a0ed82380338dd5eba56c4f4e38c730439f35641b1d7dcb99f13ee0a73c5934b6be60abe53d0ceba72fd2001206280c8182ee4c8955657a9e4b6a9dafda2f687276c61ed4abe052d4b890b3045ac0063036f726401011e6170706c69636174696f6e2f6a736f6e3b636861727365743d7574662d38004cd37b2270223a22706f772d3230222c226f70223a226d696e74222c227469636b223a2250455045222c22616d74223a2231303030222c22736f6c7574696f6e223a22504550453a62633170636a65387233733875656e746d64767a6e34777337786d3836367879707535756139357371796877756835616d61677565367a73707a733637713a303030303030303030303030303030303030303139393431613561653132383937363539383134343239323533333030353762306461393666336465613163353a3530363336303337333631227d6821c1039ed2fd528e891a28907036b81ec900320c2b9f26f0b27e7e5cfd0fc9102a4d00000000"
}