{
  "txid": "c3dcf22d53491f9355965eeefbd8486805c991a7c6d055288b4a8e9c8ee4db84",
  "version": 2,
  "locktime": 0,
  "vin": [
    {
      "txid": "febf3c02a6d6478185bcd552e5cc3f1b32fbce741f977edf12a5b8256f4ceb76",
      "vout": 3,
      "prevout": {
        "scriptpubkey": "512024f890030d713aa5af956352a2d5d3186257f80ae010b9bcfad6bdedf3daeef5",
        "scriptpubkey_asm": "OP_PUSHNUM_1 OP_PUSHBYTES_32 24f890030d713aa5af956352a2d5d3186257f80ae010b9bcfad6bdedf3daeef5",
        "scriptpubkey_type": "v1_p2tr",
        "scriptpubkey_address": "bc1pynufqqcdwya2ttu4vdf294wnrp3907q2uqgtn0866677mu76am6setgy5z",
        "value": 106000
      },
      "scriptsig": "",
      "scriptsig_asm": "",
      "witness": [
        "caf3fe7e273ec986685e4b467c43d20978b87c4f2d047d4664f08a17fb0ba1222873b2ddabf57fff6480a8f204bab957caf619c64974a5eb7b0867c27e562287"
      ],
      "is_coinbase": false,
      "sequence": 4294967295
    }
  ],
  "vout": [
    {
      "scriptpubkey": "512024f890030d713aa5af956352a2d5d3186257f80ae010b9bcfad6bdedf3daeef5",
      "scriptpubkey_asm": "OP_PUSHNUM_1 OP_PUSHBYTES_32 24f890030d713aa5af956352a2d5d3186257f80ae010b9bcfad6bdedf3daeef5",
      "scriptpubkey_type": "v1_p2tr",
      "scriptpubkey_address": "bc1pynufqqcdwya2ttu4vdf294wnrp3907q2uqgtn0866677mu76am6setgy5z",
      "value": 600
    },
    {
      "scriptpubkey": "512024f890030d713aa5af956352a2d5d3186257f80ae010b9bcfad6bdedf3daeef5",
      "scriptpubkey_asm": "OP_PUSHNUM_1 OP_PUSHBYTES_32 24f890030d713aa5af956352a2d5d3186257f80ae010b9bcfad6bdedf3daeef5",
      "scriptpubkey_type": "v1_p2tr",
      "scriptpubkey_address": "bc1pynufqqcdwya2ttu4vdf294wnrp3907q2uqgtn0866677mu76am6setgy5z",
      "value": 600
    },
    {
      "scriptpubkey": "512024f890030d713aa5af956352a2d5d3186257f80ae010b9bcfad6bdedf3daeef5",
      "scriptpubkey_asm": "OP_PUSHNUM_1 OP_PUSHBYTES_32 24f890030d713aa5af956352a2d5d3186257f80ae010b9bcfad6bdedf3daeef5",
      "scriptpubkey_type": "v1_p2tr",
      "scriptpubkey_address": "bc1pynufqqcdwya2ttu4vdf294wnrp3907q2uqgtn0866677mu76am6setgy5z",
      "value": 101845
    }
  ],
  "size": 248,
  "weight": 788,
  "fee": 2955,
  "status": {
    "confirmed": true,
    "block_height": 834638,
    "block_hash": "000000000000000000025f742c626208ac87e0b7d15054abb4a19ca2d735a54e",
    "block_time": 1710405325
  },
  "hex": "0200000000010176eb4c6f25b8a512df7e971f74cefb321b3fcce552d5bc858147d6a6023cbffe0300000000ffffffff03580200000000000022512024f890030d713aa5af956352a2d5d3186257f80ae010b9bcfad6bdedf3daeef5580200000000000022512024f890030d713aa5af956352a2d5d3186257f80ae010b9bcfad6bdedf3daeef5d58d01000000000022512024f890030d713aa5af956352a2d5d3186257f80ae010b9bcfad6bdedf3daeef50140caf3fe7e273ec986685e4b467c43d20978b87c4f2d047d4664f08a17fb0ba1222873b2ddabf57fff6480a8f204bab957caf619c64974a5eb7b0867c27e56228700000000"
}