{
  "txid": "c3de1cc3e93ac56d6d779c989a8ee2c6eb658d8bda3eaa8939554bb01c1a9cae",
  "version": 1,
  "locktime": 0,
  "vin": [
    {
      "txid": "8888888f6f9fdaf6613e5d64f8e42d5b3e035c8abc3ad6207e77750983387861",
      "vout": 0,
      "prevout": {
        "scriptpubkey": "5120e943c4cd9a8cdb83a2cba977b6d65a9f35ae8a11a88c61c83e3add57047d5a1d",
        "scriptpubkey_asm": "OP_PUSHNUM_1 OP_PUSHBYTES_32 e943c4cd9a8cdb83a2cba977b6d65a9f35ae8a11a88c61c83e3add57047d5a1d",
        "scriptpubkey_type": "v1_p2tr",
        "scriptpubkey_address": "bc1pa9pufnv63ndc8gkt49mmd4j6nu66azs34zxxrjp78tw4wpratgwsufyy9m",
        "value": 11487
      },
      "scriptsig": "",
      "scriptsig_asm": "",
      "witness": [
        "c8771f90a0a3b3103d6f78d0d317e63279cdca2352a89f03cee07bdb3027d26ecb3ebe05369806426e27ab3e65524af8d76a743dd0e24677808e604bd0d5627c83",
        "20be11f1d0580232188e877ef283eb5a1efd4e9e5290a2633605d666f59ad3fff2ac00630461746f6d03646d7445a16461726773a468626974776f726b636a383838383838382e31326b6d696e745f7469636b657268696e66696e697479656e6f6e63651a007f67576474696d651a65e63a3668",
        "c1be11f1d0580232188e877ef283eb5a1efd4e9e5290a2633605d666f59ad3fff2"
      ],
      "is_coinbase": false,
      "sequence": 4294967293
    }
  ],
  "vout": [
    {
      "scriptpubkey": "0014ddb95f82fd7c5c1d1c001667e198d0749f66aacd",
      "scriptpubkey_asm": "OP_0 OP_PUSHBYTES_20 ddb95f82fd7c5c1d1c001667e198d0749f66aacd",
      "scriptpubkey_type": "v0_p2wpkh",
      "scriptpubkey_address": "bc1qmku4lqha03wp68qqzen7rxxswj0kd2kdnra4x8",
      "value": 9999
    }
  ],
  "size": 302,
  "weight": 548,
  "fee": 1488,
  "status": {
    "confirmed": true,
    "block_height": 834464,
    "block_hash": "0000000000000000000177a0869a911a2b65c9bdcd5a8bcb02b68f305bee848e",
    "block_time": 1710308296
  },
  "hex": "01000000000101617838830975777e20d63abc8a5c033e5b2de4f8645d3e61f6da9f6f8f8888880000000000fdffffff010f27000000000000160014ddb95f82fd7c5c1d1c001667e198d0749f66aacd0341c8771f90a0a3b3103d6f78d0d317e63279cdca2352a89f03cee07bdb3027d26ecb3ebe05369806426e27ab3e65524af8d76a743dd0e24677808e604bd0d5627c837420be11f1d0580232188e877ef283eb5a1efd4e9e5290a2633605d666f59ad3fff2ac00630461746f6d03646d7445a16461726773a468626974776f726b636a383838383838382e31326b6d696e745f7469636b657268696e66696e697479656e6f6e63651a007f67576474696d651a65e63a366821c1be11f1d0580232188e877ef283eb5a1efd4e9e5290a2633605d666f59ad3fff200000000"
}