{
  "txid": "c425e85748065588498ebe263d487cb5ed05d02b90114d30340e88f1bf3c9fea",
  "version": 1,
  "locktime": 0,
  "vin": [
    {
      "txid": "3f3d11ea5568f39a51041e07cf2dcec47f626c6abb87906d2b585845f4e52575",
      "vout": 0,
      "prevout": {
        "scriptpubkey": "00143031ed8dc4e10a9a899d0e1e170caef36f3c587a",
        "scriptpubkey_asm": "OP_0 OP_PUSHBYTES_20 3031ed8dc4e10a9a899d0e1e170caef36f3c587a",
        "scriptpubkey_type": "v0_p2wpkh",
        "scriptpubkey_address": "bc1qxqc7mrwyuy9f4zvapc0pwr9w7dhnckr67chftv",
        "value": 7836
      },
      "scriptsig": "",
      "scriptsig_asm": "",
      "witness": [
        "30440220738fa34784c9b2dcfbb5f53a3968210d128e374d5cd4a51abc634138cc4eee23022043db7dca27f266910491f059cc378a1fdd753fae288a19df303c0d2b9c9f491701",
        "03e469f5d5706bfe9d30e982e3e8a82010c822110302c48e6bf0ce88952d2b2662"
      ],
      "is_coinbase": false,
      "sequence": 4294967295
    },
    {
      "txid": "72808cd68b23fb3fd0db5e5a9064d86d9a7074bc95ff49c2db978325d617edf4",
      "vout": 0,
      "prevout": {
        "scriptpubkey": "001451d6c42fd882229b8ebae90d9e3f3761056229d4",
        "scriptpubkey_asm": "OP_0 OP_PUSHBYTES_20 51d6c42fd882229b8ebae90d9e3f3761056229d4",
        "scriptpubkey_type": "v0_p2wpkh",
        "scriptpubkey_address": "bc1q28tvgt7csg3fhr46ayxeu0ehvyzky2w58ste8y",
        "value": 7535
      },
      "scriptsig": "",
      "scriptsig_asm": "",
      "witness": [
        "3045022100a69998fad11325d74eff2a954e4bd2a53447e5a34d0d3c212938eccc0c00060c022049eef74042ed21fc9a5a41c59562279024304e6cf935a82c6d6b6bc67a3a316501",
        "032105a053b03d5a869698abd3dc502e6c6942fcd2cf7c548c974db7acadd9cb17"
      ],
      "is_coinbase": false,
      "sequence": 4294967295
    },
    {
      "txid": "8d2c9c05811ae87b2fce3323ca3fa5828b47314795a0a8d6c5d469a3a88cbfcf",
      "vout": 0,
      "prevout": {
        "scriptpubkey": "00145d58cf4ddb2bdad358f1be271f4300e79d80decb",
        "scriptpubkey_asm": "OP_0 OP_PUSHBYTES_20 5d58cf4ddb2bdad358f1be271f4300e79d80decb",
        "scriptpubkey_type": "v0_p2wpkh",
        "scriptpubkey_address": "bc1qt4vv7nwm90ddxk83hcn37scqu7wcphktq8phu6",
        "value": 6539
      },
      "scriptsig": "",
      "scriptsig_asm": "",
      "witness": [
        "3045022100e8fff7dd44eaa7b368c74728815f0fba381f10eef1062a8d3a050e2d860bc13f02207a070d8c7876afc43411b8125aaa2faba635e8e6268341b95acf8e2b5cd3af2701",
        "036b24d838f1ba71c46b880bad63a8fdbeb6cb706837e55b49c62c153bf400c05f"
      ],
      "is_coinbase": false,
      "sequence": 4294967295
    },
    {
      "txid": "dc0ab87bfb1486c3b118d015fa6d895c516f93dfee4344f941cc745c7574cc01",
      "vout": 0,
      "prevout": {
        "scriptpubkey": "00145d58cf4ddb2bdad358f1be271f4300e79d80decb",
        "scriptpubkey_asm": "OP_0 OP_PUSHBYTES_20 5d58cf4ddb2bdad358f1be271f4300e79d80decb",
        "scriptpubkey_type": "v0_p2wpkh",
        "scriptpubkey_address": "bc1qt4vv7nwm90ddxk83hcn37scqu7wcphktq8phu6",
        "value": 1615
      },
      "scriptsig": "",
      "scriptsig_asm": "",
      "witness": [
        "304402205008cca31f99ce0d526ccec766489cba230021fc81c8026cb1b9e8b8cac56aa1022039c66a946deb0be63a6e18764aac692246d1c404ff7106031a58c7681ef0713e01",
        "036b24d838f1ba71c46b880bad63a8fdbeb6cb706837e55b49c62c153bf400c05f"
      ],
      "is_coinbase": false,
      "sequence": 4294967295
    }
  ],
  "vout": [
    {
      "scriptpubkey": "001488f8faf0c3a4aead9f80daf50102f1e5a612e39a",
      "scriptpubkey_asm": "OP_0 OP_PUSHBYTES_20 88f8faf0c3a4aead9f80daf50102f1e5a612e39a",
      "scriptpubkey_type": "v0_p2wpkh",
      "scriptpubkey_address": "bc1q3ru04uxr5jh2m8uqmt6szqh3uknp9cu6wu4ld7",
      "value": 6740
    },
    {
      "scriptpubkey": "51205d37e0eaaa44dd78428d0baf1a14f74b2d2e0d8fd80f2bca2d3ca7d1cc72d2a4",
      "scriptpubkey_asm": "OP_PUSHNUM_1 OP_PUSHBYTES_32 5d37e0eaaa44dd78428d0baf1a14f74b2d2e0d8fd80f2bca2d3ca7d1cc72d2a4",
      "scriptpubkey_type": "v1_p2tr",
      "scriptpubkey_address": "bc1pt5m7p642gnwhss5dpwh3598hfvkjurv0mq8jhj3d8jnarnrj62jqt3wdyu",
      "value": 12465
    }
  ],
  "size": 680,
  "weight": 1424,
  "fee": 4320,
  "status": {
    "confirmed": true,
    "block_height": 834460,
    "block_hash": "00000000000000000000484a79b643b2524bbce82e5d8a442013fa5b8905ed98",
    "block_time": 1710307468
  },
  "hex": "010000000001047525e5f44558582b6d9087bb6a6c627fc4ce2dcf071e04519af36855ea113d3f0000000000fffffffff4ed17d6258397dbc249ff95bc74709a6dd864905a5edbd03ffb238bd68c80720000000000ffffffffcfbf8ca8a369d4c5d6a8a0954731478b82a53fca2333ce2f7be81a81059c2c8d0000000000ffffffff01cc74755c74cc41f94443eedf936f515c896dfa15d018b1c38614fb7bb80adc0000000000ffffffff02541a00000000000016001488f8faf0c3a4aead9f80daf50102f1e5a612e39ab1300000000000002251205d37e0eaaa44dd78428d0baf1a14f74b2d2e0d8fd80f2bca2d3ca7d1cc72d2a4024730440220738fa34784c9b2dcfbb5f53a3968210d128e374d5cd4a51abc634138cc4eee23022043db7dca27f266910491f059cc378a1fdd753fae288a19df303c0d2b9c9f4917012103e469f5d5706bfe9d30e982e3e8a82010c822110302c48e6bf0ce88952d2b266202483045022100a69998fad11325d74eff2a954e4bd2a53447e5a34d0d3c212938eccc0c00060c022049eef74042ed21fc9a5a41c59562279024304e6cf935a82c6d6b6bc67a3a31650121032105a053b03d5a869698abd3dc502e6c6942fcd2cf7c548c974db7acadd9cb1702483045022100e8fff7dd44eaa7b368c74728815f0fba381f10eef1062a8d3a050e2d860bc13f02207a070d8c7876afc43411b8125aaa2faba635e8e6268341b95acf8e2b5cd3af270121036b24d838f1ba71c46b880bad63a8fdbeb6cb706837e55b49c62c153bf400c05f0247304402205008cca31f99ce0d526ccec766489cba230021fc81c8026cb1b9e8b8cac56aa1022039c66a946deb0be63a6e18764aac692246d1c404ff7106031a58c7681ef0713e0121036b24d838f1ba71c46b880bad63a8fdbeb6cb706837e55b49c62c153bf400c05f00000000"
}