{
  "txid": "c42a6175ee0cf75e5a3d5e9c6d5a3570f184cd6e09b181460883da288d690a79",
  "version": 2,
  "locktime": 834637,
  "vin": [
    {
      "txid": "04f637fac332533dc94212b59c51d866764d4d8a8b8dc934b0383abf0111dbfb",
      "vout": 1,
      "prevout": {
        "scriptpubkey": "76a914c3291a35ce4d051005ad07b84c03e88bda7662dd88ac",
        "scriptpubkey_asm": "OP_DUP OP_HASH160 OP_PUSHBYTES_20 c3291a35ce4d051005ad07b84c03e88bda7662dd OP_EQUALVERIFY OP_CHECKSIG",
        "scriptpubkey_type": "p2pkh",
        "scriptpubkey_address": "1Jnv1FY2xadCjvPPF7tWrwvRMMdAcMMwrF",
        "value": 12319700
      },
      "scriptsig": "47304402204b014391c44443d73f4cb604e76df79bd38622047217dac787edb85d191b54a7022022e95a350cdcd5f36ee0dec4e2e87c47889d14c21a420038b632f3cada791421012103be1064304d21f01714bf59f05d8ee8f41d53b20153705d5065dc759cac3ac9c0",
      "scriptsig_asm": "OP_PUSHBYTES_71 304402204b014391c44443d73f4cb604e76df79bd38622047217dac787edb85d191b54a7022022e95a350cdcd5f36ee0dec4e2e87c47889d14c21a420038b632f3cada79142101 OP_PUSHBYTES_33 03be1064304d21f01714bf59f05d8ee8f41d53b20153705d5065dc759cac3ac9c0",
      "is_coinbase": false,
      "sequence": 4294967293
    },
    {
      "txid": "caa7009186fcee37d2f6263e26b2418242aca0dabaa05ce3049c40204f5d36db",
      "vout": 1,
      "prevout": {
        "scriptpubkey": "76a9145d830959a0f2da9dcdf5e51f038e52a5340683ec88ac",
        "scriptpubkey_asm": "OP_DUP OP_HASH160 OP_PUSHBYTES_20 5d830959a0f2da9dcdf5e51f038e52a5340683ec OP_EQUALVERIFY OP_CHECKSIG",
        "scriptpubkey_type": "p2pkh",
        "scriptpubkey_address": "19XSpRDYXShfMP9nCjEQanSbWc6vaZtFFa",
        "value": 12547760
      },
      "scriptsig": "473044022039f5cc470ff214f70b05866b7e150b75128c0ba07d90eee112e4940374513389022039b131c55bbea6d8c03ba37ccf9a76ef046073fa6aa901ac4f85c97854428286012103ccb4d634a3f59dd9afe312f42734ff670e8233c55c8ca03a26d77d4ebf8fb233",
      "scriptsig_asm": "OP_PUSHBYTES_71 3044022039f5cc470ff214f70b05866b7e150b75128c0ba07d90eee112e4940374513389022039b131c55bbea6d8c03ba37ccf9a76ef046073fa6aa901ac4f85c9785442828601 OP_PUSHBYTES_33 03ccb4d634a3f59dd9afe312f42734ff670e8233c55c8ca03a26d77d4ebf8fb233",
      "is_coinbase": false,
      "sequence": 4294967293
    }
  ],
  "vout": [
    {
      "scriptpubkey": "76a914c3291a35ce4d051005ad07b84c03e88bda7662dd88ac",
      "scriptpubkey_asm": "OP_DUP OP_HASH160 OP_PUSHBYTES_20 c3291a35ce4d051005ad07b84c03e88bda7662dd OP_EQUALVERIFY OP_CHECKSIG",
      "scriptpubkey_type": "p2pkh",
      "scriptpubkey_address": "1Jnv1FY2xadCjvPPF7tWrwvRMMdAcMMwrF",
      "value": 10995200
    },
    {
      "scriptpubkey": "a9140e77e3170b3763461886debfa8a5e344ce0b0ef687",
      "scriptpubkey_asm": "OP_HASH160 OP_PUSHBYTES_20 0e77e3170b3763461886debfa8a5e344ce0b0ef6 OP_EQUAL",
      "scriptpubkey_type": "p2sh",
      "scriptpubkey_address": "331X18SRCbqhPHP7zvBq8E7VcH4hEhgYXx",
      "value": 13816460
    }
  ],
  "size": 370,
  "weight": 1480,
  "fee": 55800,
  "status": {
    "confirmed": true,
    "block_height": 834638,
    "block_hash": "000000000000000000025f742c626208ac87e0b7d15054abb4a19ca2d735a54e",
    "block_time": 1710405325
  },
  "hex": "0200000002fbdb1101bf3a38b034c98d8b8a4d4d7666d8519cb51242c93d5332c3fa37f604010000006a47304402204b014391c44443d73f4cb604e76df79bd38622047217dac787edb85d191b54a7022022e95a350cdcd5f36ee0dec4e2e87c47889d14c21a420038b632f3cada791421012103be1064304d21f01714bf59f05d8ee8f41d53b20153705d5065dc759cac3ac9c0fdffffffdb365d4f20409c04e35ca0badaa0ac428241b2263e26f6d237eefc869100a7ca010000006a473044022039f5cc470ff214f70b05866b7e150b75128c0ba07d90eee112e4940374513389022039b131c55bbea6d8c03ba37ccf9a76ef046073fa6aa901ac4f85c97854428286012103ccb4d634a3f59dd9afe312f42734ff670e8233c55c8ca03a26d77d4ebf8fb233fdffffff0200c6a700000000001976a914c3291a35ce4d051005ad07b84c03e88bda7662dd88ac8cd2d2000000000017a9140e77e3170b3763461886debfa8a5e344ce0b0ef6874dbc0c00"
}