{
  "txid": "c434bcdf967d3529ff6356502f3d88fd455e6bc8e4d9c532ccfbb74245e981e8",
  "version": 1,
  "locktime": 0,
  "vin": [
    {
      "txid": "8e200a54901ad0ec13c1c3ee84783749e28b34bd22596c9ae66918a8a56a2c5c",
      "vout": 1,
      "prevout": {
        "scriptpubkey": "0014cc06c84ce8f7e7a1ed63e52dbe3335c6fb1f0ca8",
        "scriptpubkey_asm": "OP_0 OP_PUSHBYTES_20 cc06c84ce8f7e7a1ed63e52dbe3335c6fb1f0ca8",
        "scriptpubkey_type": "v0_p2wpkh",
        "scriptpubkey_address": "bc1qesrvsn8g7ln6rmtru5kmuve4cma37r9gsrd78w",
        "value": 481028
      },
      "scriptsig": "",
      "scriptsig_asm": "",
      "witness": [
        "304402201c93c4b32a0c424857167147c32f8b03506f55fb2ab67039646d884f95eb938a02205437b9237cb0a7f8b492f1638917d80330354f75bc50bd4d11c353bf033185aa01",
        "02c42099e7a7925705fa9b49a04e6ddab14526e554bd9787b916e14680897d6d64"
      ],
      "is_coinbase": false,
      "sequence": 4294967295
    },
    {
      "txid": "c14dfca5d4d8309ca660aa34a1cc8691ddb801386c063ae9a5b7a00d7141c70a",
      "vout": 0,
      "prevout": {
        "scriptpubkey": "0014cc06c84ce8f7e7a1ed63e52dbe3335c6fb1f0ca8",
        "scriptpubkey_asm": "OP_0 OP_PUSHBYTES_20 cc06c84ce8f7e7a1ed63e52dbe3335c6fb1f0ca8",
        "scriptpubkey_type": "v0_p2wpkh",
        "scriptpubkey_address": "bc1qesrvsn8g7ln6rmtru5kmuve4cma37r9gsrd78w",
        "value": 80833834
      },
      "scriptsig": "",
      "scriptsig_asm": "",
      "witness": [
        "3044022009df129c974b48b684c94c8374d9ddeafe2e26e04f584d4437a759151fe338dd022040da7759af8c71a805a1c07e620fe84dd51fa2a91f7e9da98e022393332823b301",
        "02c42099e7a7925705fa9b49a04e6ddab14526e554bd9787b916e14680897d6d64"
      ],
      "is_coinbase": false,
      "sequence": 4294967295
    },
    {
      "txid": "516fb85d6f24e3d8bd151b1879b956c08dc04ce67b27c1b3cea7d0fa1bf83208",
      "vout": 0,
      "prevout": {
        "scriptpubkey": "0014cc06c84ce8f7e7a1ed63e52dbe3335c6fb1f0ca8",
        "scriptpubkey_asm": "OP_0 OP_PUSHBYTES_20 cc06c84ce8f7e7a1ed63e52dbe3335c6fb1f0ca8",
        "scriptpubkey_type": "v0_p2wpkh",
        "scriptpubkey_address": "bc1qesrvsn8g7ln6rmtru5kmuve4cma37r9gsrd78w",
        "value": 69363635
      },
      "scriptsig": "",
      "scriptsig_asm": "",
      "witness": [
        "304402203dc830637b0877fac37d0650eb1e9c0e35d70653b97ff80b2e30dd46500bbe2f0220757b92c11c2d428918e08fd3811041a50dbcce30c24ed9cb68b8ce669f471ba601",
        "02c42099e7a7925705fa9b49a04e6ddab14526e554bd9787b916e14680897d6d64"
      ],
      "is_coinbase": false,
      "sequence": 4294967295
    },
    {
      "txid": "3ccc894ac10c9c7e7640dce1a6e9f8023a1b4911ae8b44ec9eea1acdf8f5b8c7",
      "vout": 0,
      "prevout": {
        "scriptpubkey": "0014cc06c84ce8f7e7a1ed63e52dbe3335c6fb1f0ca8",
        "scriptpubkey_asm": "OP_0 OP_PUSHBYTES_20 cc06c84ce8f7e7a1ed63e52dbe3335c6fb1f0ca8",
        "scriptpubkey_type": "v0_p2wpkh",
        "scriptpubkey_address": "bc1qesrvsn8g7ln6rmtru5kmuve4cma37r9gsrd78w",
        "value": 69830205
      },
      "scriptsig": "",
      "scriptsig_asm": "",
      "witness": [
        "3044022071c924da332fdb87529f2c4e05c6e6d0b362ca897e54e841fc5dc006c2fcd51802202832bab1825911972d85b8cd41da034c6634616775de02e3c488820bf55b073c01",
        "02c42099e7a7925705fa9b49a04e6ddab14526e554bd9787b916e14680897d6d64"
      ],
      "is_coinbase": false,
      "sequence": 4294967295
    },
    {
      "txid": "8164f7037b3292b5af4e1d2713d44469341852698cf1148fbc21c331266755d9",
      "vout": 0,
      "prevout": {
        "scriptpubkey": "0014cc06c84ce8f7e7a1ed63e52dbe3335c6fb1f0ca8",
        "scriptpubkey_asm": "OP_0 OP_PUSHBYTES_20 cc06c84ce8f7e7a1ed63e52dbe3335c6fb1f0ca8",
        "scriptpubkey_type": "v0_p2wpkh",
        "scriptpubkey_address": "bc1qesrvsn8g7ln6rmtru5kmuve4cma37r9gsrd78w",
        "value": 81447578
      },
      "scriptsig": "",
      "scriptsig_asm": "",
      "witness": [
        "3045022100979aa94c2fe2a4f9af38bef849dc61921c91221cc3cca0ee136642598fb454a302203f804f0e15ace7b028107deb5031e1a04719fca0a2df102df3de7bdb38ee7dc601",
        "02c42099e7a7925705fa9b49a04e6ddab14526e554bd9787b916e14680897d6d64"
      ],
      "is_coinbase": false,
      "sequence": 4294967295
    },
    {
      "txid": "41eaf12554e1b34c973254df1112c889f8d40c81e9d914983ffc8382c970cfd8",
      "vout": 0,
      "prevout": {
        "scriptpubkey": "0014cc06c84ce8f7e7a1ed63e52dbe3335c6fb1f0ca8",
        "scriptpubkey_asm": "OP_0 OP_PUSHBYTES_20 cc06c84ce8f7e7a1ed63e52dbe3335c6fb1f0ca8",
        "scriptpubkey_type": "v0_p2wpkh",
        "scriptpubkey_address": "bc1qesrvsn8g7ln6rmtru5kmuve4cma37r9gsrd78w",
        "value": 81158368
      },
      "scriptsig": "",
      "scriptsig_asm": "",
      "witness": [
        "3044022054090e6c4ccf29a797d2680f8dbd26defb53f352d620e7b0bc290fd124f88f3802205b9f45a5701cd1b5107c5466f9a6d91028123092be856c0b97494ad4018d0d1801",
        "02c42099e7a7925705fa9b49a04e6ddab14526e554bd9787b916e14680897d6d64"
      ],
      "is_coinbase": false,
      "sequence": 4294967295
    },
    {
      "txid": "06a37bca7960b1769337cccc7863194dfe93e695f1d9fd60f7f0fdc211fe4a5a",
      "vout": 0,
      "prevout": {
        "scriptpubkey": "0014cc06c84ce8f7e7a1ed63e52dbe3335c6fb1f0ca8",
        "scriptpubkey_asm": "OP_0 OP_PUSHBYTES_20 cc06c84ce8f7e7a1ed63e52dbe3335c6fb1f0ca8",
        "scriptpubkey_type": "v0_p2wpkh",
        "scriptpubkey_address": "bc1qesrvsn8g7ln6rmtru5kmuve4cma37r9gsrd78w",
        "value": 69555183
      },
      "scriptsig": "",
      "scriptsig_asm": "",
      "witness": [
        "3045022100ea707444b5f992bbf0bd7878d213e6426a2e76584fbba32206c07114b0a8de4d0220706bdb1684f5b5b7e570b5afcc3c9e030887a1a25bd6a5b6e10c2c2b9316c74f01",
        "02c42099e7a7925705fa9b49a04e6ddab14526e554bd9787b916e14680897d6d64"
      ],
      "is_coinbase": false,
      "sequence": 4294967295
    }
  ],
  "vout": [
    {
      "scriptpubkey": "76a9142c51ac058d95dd87f7cd687aada54f7232c16ba088ac",
      "scriptpubkey_asm": "OP_DUP OP_HASH160 OP_PUSHBYTES_20 2c51ac058d95dd87f7cd687aada54f7232c16ba0 OP_EQUALVERIFY OP_CHECKSIG",
      "scriptpubkey_type": "p2pkh",
      "scriptpubkey_address": "153La7Fb1p9JLeM26UGmwTXZuMdA9fWmav",
      "value": 452200000
    },
    {
      "scriptpubkey": "0014cc06c84ce8f7e7a1ed63e52dbe3335c6fb1f0ca8",
      "scriptpubkey_asm": "OP_0 OP_PUSHBYTES_20 cc06c84ce8f7e7a1ed63e52dbe3335c6fb1f0ca8",
      "scriptpubkey_type": "v0_p2wpkh",
      "scriptpubkey_address": "bc1qesrvsn8g7ln6rmtru5kmuve4cma37r9gsrd78w",
      "value": 449007
    }
  ],
  "size": 1115,
  "weight": 2201,
  "fee": 20824,
  "status": {
    "confirmed": true,
    "block_height": 834460,
    "block_hash": "00000000000000000000484a79b643b2524bbce82e5d8a442013fa5b8905ed98",
    "block_time": 1710307468
  },
  "hex": "010000000001075c2c6aa5a81869e69a6c5922bd348be249377884eec3c113ecd01a90540a208e0100000000ffffffff0ac741710da0b7a5e93a066c3801b8dd9186cca134aa60a69c30d8d4a5fc4dc10000000000ffffffff0832f81bfad0a7ceb3c1277be64cc08dc056b979181b15bdd8e3246f5db86f510000000000ffffffffc7b8f5f8cd1aea9eec448bae11491b3a02f8e9a6e1dc40767e9c0cc14a89cc3c0000000000ffffffffd955672631c321bc8f14f18c695218346944d413271d4eafb592327b03f764810000000000ffffffffd8cf70c98283fc3f9814d9e9810cd4f889c81211df5432974cb3e15425f1ea410000000000ffffffff5a4afe11c2fdf0f760fdd9f195e693fe4d196378cccc379376b16079ca7ba3060000000000ffffffff024006f41a000000001976a9142c51ac058d95dd87f7cd687aada54f7232c16ba088acefd9060000000000160014cc06c84ce8f7e7a1ed63e52dbe3335c6fb1f0ca80247304402201c93c4b32a0c424857167147c32f8b03506f55fb2ab67039646d884f95eb938a02205437b9237cb0a7f8b492f1638917d80330354f75bc50bd4d11c353bf033185aa012102c42099e7a7925705fa9b49a04e6ddab14526e554bd9787b916e14680897d6d6402473044022009df129c974b48b684c94c8374d9ddeafe2e26e04f584d4437a759151fe338dd022040da7759af8c71a805a1c07e620fe84dd51fa2a91f7e9da98e022393332823b3012102c42099e7a7925705fa9b49a04e6ddab14526e554bd9787b916e14680897d6d640247304402203dc830637b0877fac37d0650eb1e9c0e35d70653b97ff80b2e30dd46500bbe2f0220757b92c11c2d428918e08fd3811041a50dbcce30c24ed9cb68b8ce669f471ba6012102c42099e7a7925705fa9b49a04e6ddab14526e554bd9787b916e14680897d6d6402473044022071c924da332fdb87529f2c4e05c6e6d0b362ca897e54e841fc5dc006c2fcd51802202832bab1825911972d85b8cd41da034c6634616775de02e3c488820bf55b073c012102c42099e7a7925705fa9b49a04e6ddab14526e554bd9787b916e14680897d6d6402483045022100979aa94c2fe2a4f9af38bef849dc61921c91221cc3cca0ee136642598fb454a302203f804f0e15ace7b028107deb5031e1a04719fca0a2df102df3de7bdb38ee7dc6012102c42099e7a7925705fa9b49a04e6ddab14526e554bd9787b916e14680897d6d6402473044022054090e6c4ccf29a797d2680f8dbd26defb53f352d620e7b0bc290fd124f88f3802205b9f45a5701cd1b5107c5466f9a6d91028123092be856c0b97494ad4018d0d18012102c42099e7a7925705fa9b49a04e6ddab14526e554bd9787b916e14680897d6d6402483045022100ea707444b5f992bbf0bd7878d213e6426a2e76584fbba32206c07114b0a8de4d0220706bdb1684f5b5b7e570b5afcc3c9e030887a1a25bd6a5b6e10c2c2b9316c74f012102c42099e7a7925705fa9b49a04e6ddab14526e554bd9787b916e14680897d6d6400000000"
}