{
  "txid": "c437ef391d7f7991dbc86aa1e7f192033f1d53ddb00a4f2f4ba50a281f7946d4",
  "version": 2,
  "locktime": 0,
  "vin": [
    {
      "txid": "08bcfcc89637115ed776e53e9481d99eab3ba10f1dee866fc03f016b49456a97",
      "vout": 1,
      "prevout": {
        "scriptpubkey": "0014adf715cb79cf912f92ae1b6ce2cff51626854f6f",
        "scriptpubkey_asm": "OP_0 OP_PUSHBYTES_20 adf715cb79cf912f92ae1b6ce2cff51626854f6f",
        "scriptpubkey_type": "v0_p2wpkh",
        "scriptpubkey_address": "bc1q4hm3tjmee7gjly4wrdkw9nl4zcng2nm056pxrf",
        "value": 37827
      },
      "scriptsig": "",
      "scriptsig_asm": "",
      "witness": [
        "30440220098225951644f0c98f6d400045fd1f67437db0033323f85719a2316bf1e987de02200fe5d36c70e139b6f25a722e85d330e28f54d2ba8839bcf6ee74aca4b966038d01",
        "02a4105bac12fe7488436f439edae93968d90c6f3b067f061a953baa184bdde23f"
      ],
      "is_coinbase": false,
      "sequence": 4294967295
    }
  ],
  "vout": [
    {
      "scriptpubkey": "6a2ad2592b2ee7726e3b6bb9cf7575daa2bf4e311b54bf8768bd39c09566d589c99c04bd9b21181e24f3c221",
      "scriptpubkey_asm": "OP_RETURN OP_PUSHBYTES_42 d2592b2ee7726e3b6bb9cf7575daa2bf4e311b54bf8768bd39c09566d589c99c04bd9b21181e24f3c221",
      "scriptpubkey_type": "op_return",
      "value": 0
    },
    {
      "scriptpubkey": "0014adf715cb79cf912f92ae1b6ce2cff51626854f6f",
      "scriptpubkey_asm": "OP_0 OP_PUSHBYTES_20 adf715cb79cf912f92ae1b6ce2cff51626854f6f",
      "scriptpubkey_type": "v0_p2wpkh",
      "scriptpubkey_address": "bc1q4hm3tjmee7gjly4wrdkw9nl4zcng2nm056pxrf",
      "value": 36022
    }
  ],
  "size": 244,
  "weight": 649,
  "fee": 1805,
  "status": {
    "confirmed": true,
    "block_height": 834464,
    "block_hash": "0000000000000000000177a0869a911a2b65c9bdcd5a8bcb02b68f305bee848e",
    "block_time": 1710308296
  },
  "hex": "02000000000101976a45496b013fc06f86ee1d0fa13bab9ed981943ee576d75e113796c8fcbc080100000000ffffffff0200000000000000002c6a2ad2592b2ee7726e3b6bb9cf7575daa2bf4e311b54bf8768bd39c09566d589c99c04bd9b21181e24f3c221b68c000000000000160014adf715cb79cf912f92ae1b6ce2cff51626854f6f024730440220098225951644f0c98f6d400045fd1f67437db0033323f85719a2316bf1e987de02200fe5d36c70e139b6f25a722e85d330e28f54d2ba8839bcf6ee74aca4b966038d012102a4105bac12fe7488436f439edae93968d90c6f3b067f061a953baa184bdde23f00000000"
}