{
  "txid": "c450815ef7464894c3d57832aa590d86eb0cef070cc305db061fc842e0f5492e",
  "version": 2,
  "locktime": 0,
  "vin": [
    {
      "txid": "2b7ec05ec2b73d0853db50619ac026ef5eaf6767c2bff444210dc96505092442",
      "vout": 12,
      "prevout": {
        "scriptpubkey": "5120a15d584f2830809a3ccd43c7edb7bcc0598313da61ab893e56c0a0cb8536e240",
        "scriptpubkey_asm": "OP_PUSHNUM_1 OP_PUSHBYTES_32 a15d584f2830809a3ccd43c7edb7bcc0598313da61ab893e56c0a0cb8536e240",
        "scriptpubkey_type": "v1_p2tr",
        "scriptpubkey_address": "bc1p59w4snegxzqf50xdg0r7mdaucpvcxy76vx4cj0jkczsvhpfkufqqdjmjzs",
        "value": 106000
      },
      "scriptsig": "",
      "scriptsig_asm": "",
      "witness": [
        "7295bc4a9f59662772534039741475cb2acacaaf398f17da19b3619565298530d503e906f860a8d10030fc92b1fd3500b45655220b4e1e93e8cb1bd4ccf20bbd"
      ],
      "is_coinbase": false,
      "sequence": 4294967295
    }
  ],
  "vout": [
    {
      "scriptpubkey": "5120a15d584f2830809a3ccd43c7edb7bcc0598313da61ab893e56c0a0cb8536e240",
      "scriptpubkey_asm": "OP_PUSHNUM_1 OP_PUSHBYTES_32 a15d584f2830809a3ccd43c7edb7bcc0598313da61ab893e56c0a0cb8536e240",
      "scriptpubkey_type": "v1_p2tr",
      "scriptpubkey_address": "bc1p59w4snegxzqf50xdg0r7mdaucpvcxy76vx4cj0jkczsvhpfkufqqdjmjzs",
      "value": 600
    },
    {
      "scriptpubkey": "5120a15d584f2830809a3ccd43c7edb7bcc0598313da61ab893e56c0a0cb8536e240",
      "scriptpubkey_asm": "OP_PUSHNUM_1 OP_PUSHBYTES_32 a15d584f2830809a3ccd43c7edb7bcc0598313da61ab893e56c0a0cb8536e240",
      "scriptpubkey_type": "v1_p2tr",
      "scriptpubkey_address": "bc1p59w4snegxzqf50xdg0r7mdaucpvcxy76vx4cj0jkczsvhpfkufqqdjmjzs",
      "value": 600
    },
    {
      "scriptpubkey": "5120a15d584f2830809a3ccd43c7edb7bcc0598313da61ab893e56c0a0cb8536e240",
      "scriptpubkey_asm": "OP_PUSHNUM_1 OP_PUSHBYTES_32 a15d584f2830809a3ccd43c7edb7bcc0598313da61ab893e56c0a0cb8536e240",
      "scriptpubkey_type": "v1_p2tr",
      "scriptpubkey_address": "bc1p59w4snegxzqf50xdg0r7mdaucpvcxy76vx4cj0jkczsvhpfkufqqdjmjzs",
      "value": 101648
    }
  ],
  "size": 248,
  "weight": 788,
  "fee": 3152,
  "status": {
    "confirmed": true,
    "block_height": 834638,
    "block_hash": "000000000000000000025f742c626208ac87e0b7d15054abb4a19ca2d735a54e",
    "block_time": 1710405325
  },
  "hex": "020000000001014224090565c90d2144f4bfc26767af5eef26c09a6150db53083db7c25ec07e2b0c00000000ffffffff035802000000000000225120a15d584f2830809a3ccd43c7edb7bcc0598313da61ab893e56c0a0cb8536e2405802000000000000225120a15d584f2830809a3ccd43c7edb7bcc0598313da61ab893e56c0a0cb8536e240108d010000000000225120a15d584f2830809a3ccd43c7edb7bcc0598313da61ab893e56c0a0cb8536e24001407295bc4a9f59662772534039741475cb2acacaaf398f17da19b3619565298530d503e906f860a8d10030fc92b1fd3500b45655220b4e1e93e8cb1bd4ccf20bbd00000000"
}