{
  "txid": "c45890a773e2616a3b6574f22a3767ef300c8cde90de8bb0705597550f4b6ddd",
  "version": 2,
  "locktime": 0,
  "vin": [
    {
      "txid": "acc3ba00869acb582a3f2904ce3a11dd3779350ce234063fc7d0959246213364",
      "vout": 125,
      "prevout": {
        "scriptpubkey": "51208c17b90dda681f1a3cfedcabb8041a625bfcd4855ac471e63e29a82ed331d128",
        "scriptpubkey_asm": "OP_PUSHNUM_1 OP_PUSHBYTES_32 8c17b90dda681f1a3cfedcabb8041a625bfcd4855ac471e63e29a82ed331d128",
        "scriptpubkey_type": "v1_p2tr",
        "scriptpubkey_address": "bc1p3stmjrw6dq035087mj4mspq6vfdle4y9ttz8re379x5za5e36y5qddtxzy",
        "value": 1806
      },
      "scriptsig": "",
      "scriptsig_asm": "",
      "witness": [
        "d118045445bed49e9156bec9bbd2295426fbe369c5475acc1475242695b2c106245777ca763fdcdaa4c5627c72f8d687bf7c6323ae001b1ecae83f44edacb018",
        "20b3ac1ceda5080c03389f14b6010bb0056266fa9d1b965b746e0d129c734b1008ac0063036f726401010a746578742f706c61696e00357b2270223a226272632d3230222c226f70223a226d696e74222c227469636b223a22646f6765222c22616d74223a2234323030227d68",
        "c1b3ac1ceda5080c03389f14b6010bb0056266fa9d1b965b746e0d129c734b1008"
      ],
      "is_coinbase": false,
      "sequence": 4261412863
    }
  ],
  "vout": [
    {
      "scriptpubkey": "00147a665de7a370f4c9b372ab1fae587500a5bcbdb4",
      "scriptpubkey_asm": "OP_0 OP_PUSHBYTES_20 7a665de7a370f4c9b372ab1fae587500a5bcbdb4",
      "scriptpubkey_type": "v0_p2wpkh",
      "scriptpubkey_address": "bc1q0fn9mearwr6vnvmj4v06ukr4qzjme0d565dzcx",
      "value": 294
    }
  ],
  "size": 294,
  "weight": 540,
  "fee": 1512,
  "status": {
    "confirmed": true,
    "block_height": 834460,
    "block_hash": "00000000000000000000484a79b643b2524bbce82e5d8a442013fa5b8905ed98",
    "block_time": 1710307468
  },
  "hex": "02000000000101643321469295d0c73f0634e20c357937dd113ace04293f2a58cb9a8600bac3ac7d00000000fffffffd0126010000000000001600147a665de7a370f4c9b372ab1fae587500a5bcbdb40340d118045445bed49e9156bec9bbd2295426fbe369c5475acc1475242695b2c106245777ca763fdcdaa4c5627c72f8d687bf7c6323ae001b1ecae83f44edacb0186d20b3ac1ceda5080c03389f14b6010bb0056266fa9d1b965b746e0d129c734b1008ac0063036f726401010a746578742f706c61696e00357b2270223a226272632d3230222c226f70223a226d696e74222c227469636b223a22646f6765222c22616d74223a2234323030227d6821c1b3ac1ceda5080c03389f14b6010bb0056266fa9d1b965b746e0d129c734b100800000000"
}