{
  "txid": "c46bf1f9866e899e1728e8cd6a19adb5ddc76de33696ccf288cc2a68988c19b2",
  "version": 1,
  "locktime": 0,
  "vin": [
    {
      "txid": "dfaad4104748735feea504a3670a743fa65bb58f7b05682d73191574674d2bbe",
      "vout": 0,
      "prevout": {
        "scriptpubkey": "0014e4df3d80e922b21086b04ce21b661293d9604d97",
        "scriptpubkey_asm": "OP_0 OP_PUSHBYTES_20 e4df3d80e922b21086b04ce21b661293d9604d97",
        "scriptpubkey_type": "v0_p2wpkh",
        "scriptpubkey_address": "bc1qun0nmq8fy2eppp4sfn3pkesjj0vkqnvhzd7nlz",
        "value": 1736300
      },
      "scriptsig": "",
      "scriptsig_asm": "",
      "witness": [
        "30440220664a46e667ea18181e342959d2dd65a3ef1f4fd2d7c3ad9118c3c3151393bdf0022066ad392c2c3d1d6e81c7bb61d3cc8223c84dbc9d7d94a168b44a6fab8aea5d9301",
        "0362ab203ce6488600e325973d136fb5307f7dfb09747c1ae889c7596d09cd321f"
      ],
      "is_coinbase": false,
      "sequence": 4294967295
    }
  ],
  "vout": [
    {
      "scriptpubkey": "a914acf559eed3371b8781f43049d90522c67b1a911b87",
      "scriptpubkey_asm": "OP_HASH160 OP_PUSHBYTES_20 acf559eed3371b8781f43049d90522c67b1a911b OP_EQUAL",
      "scriptpubkey_type": "p2sh",
      "scriptpubkey_address": "3HTY4r1XFh9sGxfTPrj4CLHUMNknY4FHix",
      "value": 1733880
    }
  ],
  "size": 192,
  "weight": 441,
  "fee": 2420,
  "status": {
    "confirmed": true,
    "block_height": 834552,
    "block_hash": "00000000000000000001dd0468a70c94f619251d286585cff57aeb4bd9ede330",
    "block_time": 1710355598
  },
  "hex": "01000000000101be2b4d67741519732d68057b8fb55ba63f740a67a304a5ee5f73484710d4aadf0000000000ffffffff01f8741a000000000017a914acf559eed3371b8781f43049d90522c67b1a911b87024730440220664a46e667ea18181e342959d2dd65a3ef1f4fd2d7c3ad9118c3c3151393bdf0022066ad392c2c3d1d6e81c7bb61d3cc8223c84dbc9d7d94a168b44a6fab8aea5d9301210362ab203ce6488600e325973d136fb5307f7dfb09747c1ae889c7596d09cd321f00000000"
}