{
  "txid": "c47329c7d747c80316273bb726e6ee87bae8fa3cf0ad22dcfd6d9af692459d07",
  "version": 1,
  "locktime": 0,
  "vin": [
    {
      "txid": "d9f0167dd081192594d223a676043ba093e74a61b20f914aebad2afbc1b95b70",
      "vout": 1,
      "prevout": {
        "scriptpubkey": "00147aca719a048d4362a21b36a8bb93d46f3f7d8fd5",
        "scriptpubkey_asm": "OP_0 OP_PUSHBYTES_20 7aca719a048d4362a21b36a8bb93d46f3f7d8fd5",
        "scriptpubkey_type": "v0_p2wpkh",
        "scriptpubkey_address": "bc1q0t98rxsy34pk9gsmx65thy75dulhmr743ej4f2",
        "value": 120839
      },
      "scriptsig": "",
      "scriptsig_asm": "",
      "witness": [
        "304402206e457c530fed3eec30166e1ac124cbd909e1fd8e2f9ad9c1491f6e1ea8424b4e02206008d948cf6f72706e89ad756c548a0bce8b8e7a38e6d80f4397370d3486d43c01",
        "02bedf5cfd39cca7db485232bba914d879afa76031b0453b686fabb529b53e20e4"
      ],
      "is_coinbase": false,
      "sequence": 4294967295
    }
  ],
  "vout": [
    {
      "scriptpubkey": "00147fc90e528d6c4652ca7430ed25b6966587cbf890",
      "scriptpubkey_asm": "OP_0 OP_PUSHBYTES_20 7fc90e528d6c4652ca7430ed25b6966587cbf890",
      "scriptpubkey_type": "v0_p2wpkh",
      "scriptpubkey_address": "bc1q0lysu55dd3r99jn5xrkjtd5kvkruh7ys4z2kdu",
      "value": 42392
    },
    {
      "scriptpubkey": "00147a1cd5b5566d2e0d816fa848d3fc1fac750d0670",
      "scriptpubkey_asm": "OP_0 OP_PUSHBYTES_20 7a1cd5b5566d2e0d816fa848d3fc1fac750d0670",
      "scriptpubkey_type": "v0_p2wpkh",
      "scriptpubkey_address": "bc1q0gwdtd2kd5hqmqt04pyd8lql436s6pnsm8czlz",
      "value": 74933
    }
  ],
  "size": 222,
  "weight": 561,
  "fee": 3514,
  "status": {
    "confirmed": true,
    "block_height": 834552,
    "block_hash": "00000000000000000001dd0468a70c94f619251d286585cff57aeb4bd9ede330",
    "block_time": 1710355598
  },
  "hex": "01000000000101705bb9c1fb2aadeb4a910fb2614ae793a03b0476a623d294251981d07d16f0d90100000000ffffffff0298a50000000000001600147fc90e528d6c4652ca7430ed25b6966587cbf890b5240100000000001600147a1cd5b5566d2e0d816fa848d3fc1fac750d06700247304402206e457c530fed3eec30166e1ac124cbd909e1fd8e2f9ad9c1491f6e1ea8424b4e02206008d948cf6f72706e89ad756c548a0bce8b8e7a38e6d80f4397370d3486d43c012102bedf5cfd39cca7db485232bba914d879afa76031b0453b686fabb529b53e20e400000000"
}