{
  "txid": "c47454f6454564cf2c6e624cec87e29f75666a814712dcaaad1d723702b1dec1",
  "version": 2,
  "locktime": 834637,
  "vin": [
    {
      "txid": "94fbfef25f116b423f810f60b8d4c6f494aba8d8b7c90ea150346cc88818e9fa",
      "vout": 0,
      "prevout": {
        "scriptpubkey": "0014295f679e1878dba91958fc5ad11774e4524bcb05",
        "scriptpubkey_asm": "OP_0 OP_PUSHBYTES_20 295f679e1878dba91958fc5ad11774e4524bcb05",
        "scriptpubkey_type": "v0_p2wpkh",
        "scriptpubkey_address": "bc1q990k08sc0rd6jx2cl3ddz9m5u3fyhjc99fmv3w",
        "value": 335639748
      },
      "scriptsig": "",
      "scriptsig_asm": "",
      "witness": [
        "304402206dade3a641c19ff335927e9401e4b5c6564ca09db5a816fee3718818b89b2ffd02206caffc3e8d41ca48a69ee7a1e79a7b4a29e67fc6aeb057d081dff9fe4cd8595d01",
        "02a943ced05f28083ec7b287f072e6273154f987b815fe599220fab60966cee109"
      ],
      "is_coinbase": false,
      "sequence": 4294967294
    }
  ],
  "vout": [
    {
      "scriptpubkey": "0014fe51170c3d02c0b9dc8141c12bc6f2a6cb892489",
      "scriptpubkey_asm": "OP_0 OP_PUSHBYTES_20 fe51170c3d02c0b9dc8141c12bc6f2a6cb892489",
      "scriptpubkey_type": "v0_p2wpkh",
      "scriptpubkey_address": "bc1qleg3wrpaqtqtnhypg8qjh3hj5m9cjfyfm2dd4w",
      "value": 335223168
    },
    {
      "scriptpubkey": "a91438f4d214fd92efe6818a338a49f6807e7e67077087",
      "scriptpubkey_asm": "OP_HASH160 OP_PUSHBYTES_20 38f4d214fd92efe6818a338a49f6807e7e670770 OP_EQUAL",
      "scriptpubkey_type": "p2sh",
      "scriptpubkey_address": "36tB3iqBeZpZCgzarYU879a1U8nvVUw2WS",
      "value": 413100
    }
  ],
  "size": 223,
  "weight": 565,
  "fee": 3480,
  "status": {
    "confirmed": true,
    "block_height": 834638,
    "block_hash": "000000000000000000025f742c626208ac87e0b7d15054abb4a19ca2d735a54e",
    "block_time": 1710405325
  },
  "hex": "02000000000101fae91888c86c3450a10ec9b7d8a8ab94f4c6d4b8600f813f426b115ff2fefb940000000000feffffff028019fb1300000000160014fe51170c3d02c0b9dc8141c12bc6f2a6cb892489ac4d06000000000017a91438f4d214fd92efe6818a338a49f6807e7e670770870247304402206dade3a641c19ff335927e9401e4b5c6564ca09db5a816fee3718818b89b2ffd02206caffc3e8d41ca48a69ee7a1e79a7b4a29e67fc6aeb057d081dff9fe4cd8595d012102a943ced05f28083ec7b287f072e6273154f987b815fe599220fab60966cee1094dbc0c00"
}