{
  "txid": "c4b069cb4eb9b22e0e98e19e3d6caede07d9ced397e04824c5a2d09d09ea0faf",
  "version": 2,
  "locktime": 0,
  "vin": [
    {
      "txid": "4ee77778659dcfe8d7a4e15882fc6193f4f3d5f6607624e256337b44c2280af5",
      "vout": 65,
      "prevout": {
        "scriptpubkey": "5120cfeeba64e56930bfb5bff7b8a28ee6e0afac6fc4e4aa24cfcfecef33a1fd7903",
        "scriptpubkey_asm": "OP_PUSHNUM_1 OP_PUSHBYTES_32 cfeeba64e56930bfb5bff7b8a28ee6e0afac6fc4e4aa24cfcfecef33a1fd7903",
        "scriptpubkey_type": "v1_p2tr",
        "scriptpubkey_address": "bc1pelht5e89dyctlddl77u29rhxuzh6cm7yuj4zfn70anhn8g0a0yps4ywwua",
        "value": 2075
      },
      "scriptsig": "",
      "scriptsig_asm": "",
      "witness": [
        "078cd1399514349536be9af40d707f11598c126011515ca978ee9e33d76410a6e150aaa0f6ad48795d2674671f3e7e3a703aec1f37261bd33b11cadb915d82f5",
        "205daf120c52eb96d8437bc2b09efdb91705695a0f185dabe2b1aeec77d8c87365ac0063036f7264010118746578742f706c61696e3b636861727365743d7574662d3800357b2270223a224252432d313030222c226f70223a226d696e74222c227469636b223a22696e73222c22616d74223a2231303030227d68",
        "c1c50eac15d7d7889f5ad84f80015e8a209129aeea937c37fa4b8bc0f9be289730"
      ],
      "is_coinbase": false,
      "sequence": 4294967295
    }
  ],
  "vout": [
    {
      "scriptpubkey": "00143e2325412b554cacdd163a93a42204c4707f8851",
      "scriptpubkey_asm": "OP_0 OP_PUSHBYTES_20 3e2325412b554cacdd163a93a42204c4707f8851",
      "scriptpubkey_type": "v0_p2wpkh",
      "scriptpubkey_address": "bc1q8c3j2sft24x2ehgk82f6ggsyc3c8lzz3yw9wsu",
      "value": 546
    }
  ],
  "size": 308,
  "weight": 554,
  "fee": 1529,
  "status": {
    "confirmed": true,
    "block_height": 834464,
    "block_hash": "0000000000000000000177a0869a911a2b65c9bdcd5a8bcb02b68f305bee848e",
    "block_time": 1710308296
  },
  "hex": "02000000000101f50a28c2447b3356e2247660f6d5f3f49361fc8258e1a4d7e8cf9d657877e74e4100000000ffffffff0122020000000000001600143e2325412b554cacdd163a93a42204c4707f88510340078cd1399514349536be9af40d707f11598c126011515ca978ee9e33d76410a6e150aaa0f6ad48795d2674671f3e7e3a703aec1f37261bd33b11cadb915d82f57b205daf120c52eb96d8437bc2b09efdb91705695a0f185dabe2b1aeec77d8c87365ac0063036f7264010118746578742f706c61696e3b636861727365743d7574662d3800357b2270223a224252432d313030222c226f70223a226d696e74222c227469636b223a22696e73222c22616d74223a2231303030227d6821c1c50eac15d7d7889f5ad84f80015e8a209129aeea937c37fa4b8bc0f9be28973000000000"
}