{
  "txid": "c4c8c4b4e2c79189654ff9f7d88393e5814c09f19140f04e55b1f9dfb8148d59",
  "version": 2,
  "locktime": 0,
  "vin": [
    {
      "txid": "0ee1a401e43c7c3df3fa37113373bda9436fee611a32e67239c6643ea6ff87e9",
      "vout": 0,
      "prevout": {
        "scriptpubkey": "00146e34aa71eb3c8dac112c63ca443481903c11fa86",
        "scriptpubkey_asm": "OP_0 OP_PUSHBYTES_20 6e34aa71eb3c8dac112c63ca443481903c11fa86",
        "scriptpubkey_type": "v0_p2wpkh",
        "scriptpubkey_address": "bc1qdc625u0t8jx6cyfvv09ygdypjq7pr75xjy4s67",
        "value": 17363221
      },
      "scriptsig": "",
      "scriptsig_asm": "",
      "witness": [
        "304402205ac48972084dcf0cec7ceb6f1ec0031aa830cd56c2991e78d07093ecb1cb1db9022006fe65600e243985564721c32fe54244a2cd713214e636e478a0cc405c95988701",
        "0294cfc0912bb3b1aa3cd9431f64a931ca865fba1fe24ee001f094c9e5d7bdbc7b"
      ],
      "is_coinbase": false,
      "sequence": 4294967295
    }
  ],
  "vout": [
    {
      "scriptpubkey": "00146e34aa71eb3c8dac112c63ca443481903c11fa86",
      "scriptpubkey_asm": "OP_0 OP_PUSHBYTES_20 6e34aa71eb3c8dac112c63ca443481903c11fa86",
      "scriptpubkey_type": "v0_p2wpkh",
      "scriptpubkey_address": "bc1qdc625u0t8jx6cyfvv09ygdypjq7pr75xjy4s67",
      "value": 14098469
    },
    {
      "scriptpubkey": "0014c3674893fb873b6ad51cab6d71e0977c19ccf97f",
      "scriptpubkey_asm": "OP_0 OP_PUSHBYTES_20 c3674893fb873b6ad51cab6d71e0977c19ccf97f",
      "scriptpubkey_type": "v0_p2wpkh",
      "scriptpubkey_address": "bc1qcdn53ylmsuak44gu4dkhrcyh0svue7tlfn8z53",
      "value": 3259958
    }
  ],
  "size": 222,
  "weight": 561,
  "fee": 4794,
  "status": {
    "confirmed": true,
    "block_height": 834638,
    "block_hash": "000000000000000000025f742c626208ac87e0b7d15054abb4a19ca2d735a54e",
    "block_time": 1710405325
  },
  "hex": "02000000000101e987ffa63e64c63972e6321a61ee6f43a9bd73331137faf33d7c3ce401a4e10e0000000000ffffffff022520d700000000001600146e34aa71eb3c8dac112c63ca443481903c11fa8636be310000000000160014c3674893fb873b6ad51cab6d71e0977c19ccf97f0247304402205ac48972084dcf0cec7ceb6f1ec0031aa830cd56c2991e78d07093ecb1cb1db9022006fe65600e243985564721c32fe54244a2cd713214e636e478a0cc405c95988701210294cfc0912bb3b1aa3cd9431f64a931ca865fba1fe24ee001f094c9e5d7bdbc7b00000000"
}