{
  "txid": "c4d1712173287e5a91496e2f349fe4c4eab0294e409f4a908ff3b07dbd96ffaf",
  "version": 2,
  "locktime": 0,
  "vin": [
    {
      "txid": "956932799808887e7ea4fc84cb0b7a0b61e38f8d4029f29f22a8ca4ca91b584f",
      "vout": 72,
      "prevout": {
        "scriptpubkey": "5120727da28731cccc6f227d0200b43c384ae06e717f6f14f62f31145a8cbb145048",
        "scriptpubkey_asm": "OP_PUSHNUM_1 OP_PUSHBYTES_32 727da28731cccc6f227d0200b43c384ae06e717f6f14f62f31145a8cbb145048",
        "scriptpubkey_type": "v1_p2tr",
        "scriptpubkey_address": "bc1pwf769pe3enxx7gnaqgqtg0pcftsxuutldu20vte3z3dgewc52pyq83gryt",
        "value": 2161
      },
      "scriptsig": "",
      "scriptsig_asm": "",
      "witness": [
        "835d95184fb384a3f39546b690e078914932f6387b8b163f20787cac7a564ce6883e3ef20bc05f94ef7867fd078f1a58f5c68c1cc32e7ba9afdf6852761c75bd",
        "2060847fc4278bc4c26babdb16309fba96c1dd2fbd2c9656372568b6cfe52f5e53ac0063036f726401010a746578742f706c61696e00347b2270223a226272632d3230222c227469636b223a2268756875222c226f70223a226d696e74222c22616d74223a22313030227d68",
        "c160847fc4278bc4c26babdb16309fba96c1dd2fbd2c9656372568b6cfe52f5e53"
      ],
      "is_coinbase": false,
      "sequence": 4294967293
    }
  ],
  "vout": [
    {
      "scriptpubkey": "5120deef3731bdcccf281c4800106602316ecdfb41e67097243522f910241bffc616",
      "scriptpubkey_asm": "OP_PUSHNUM_1 OP_PUSHBYTES_32 deef3731bdcccf281c4800106602316ecdfb41e67097243522f910241bffc616",
      "scriptpubkey_type": "v1_p2tr",
      "scriptpubkey_address": "bc1pmmhnwvdaen8js8zgqqgxvq33dmxlks0xwztjgdfzlygzgxllcctqugtsss",
      "value": 546
    }
  ],
  "size": 305,
  "weight": 587,
  "fee": 1615,
  "status": {
    "confirmed": true,
    "block_height": 834464,
    "block_hash": "0000000000000000000177a0869a911a2b65c9bdcd5a8bcb02b68f305bee848e",
    "block_time": 1710308296
  },
  "hex": "020000000001014f581ba94ccaa8229ff229408d8fe3610b7a0bcb84fca47e7e880898793269954800000000fdffffff012202000000000000225120deef3731bdcccf281c4800106602316ecdfb41e67097243522f910241bffc6160340835d95184fb384a3f39546b690e078914932f6387b8b163f20787cac7a564ce6883e3ef20bc05f94ef7867fd078f1a58f5c68c1cc32e7ba9afdf6852761c75bd6c2060847fc4278bc4c26babdb16309fba96c1dd2fbd2c9656372568b6cfe52f5e53ac0063036f726401010a746578742f706c61696e00347b2270223a226272632d3230222c227469636b223a2268756875222c226f70223a226d696e74222c22616d74223a22313030227d6821c160847fc4278bc4c26babdb16309fba96c1dd2fbd2c9656372568b6cfe52f5e5300000000"
}