{
  "txid": "c4dac3bc8b63cdedec5bc5f970313b8ec0d200e4f697e38a63ec4f0581b14e3c",
  "version": 2,
  "locktime": 0,
  "vin": [
    {
      "txid": "8376c2ab44a8b9585c9d2b847170d8db6df4ff789502ee02ab4a08b90970af68",
      "vout": 0,
      "prevout": {
        "scriptpubkey": "5120008345a664bdb8be8bc2d9dfe2dec02aa168f3559e6571ed31310339625e424e",
        "scriptpubkey_asm": "OP_PUSHNUM_1 OP_PUSHBYTES_32 008345a664bdb8be8bc2d9dfe2dec02aa168f3559e6571ed31310339625e424e",
        "scriptpubkey_type": "v1_p2tr",
        "scriptpubkey_address": "bc1pqzp5tfnyhkutaz7zm8079hkq92sk3u64nejhrmf3xypnjcj7gf8qccnh9n",
        "value": 978
      },
      "scriptsig": "",
      "scriptsig_asm": "",
      "witness": [
        "7133cd67ed245080c6ce81bcd12242ad843ca6f4c0793c4b99e4a50110c81d0a1cca8433994922c43da29a8f1b4125894dd5ef962c281a61b08c051abe7a4d39"
      ],
      "is_coinbase": false,
      "sequence": 4294967293
    },
    {
      "txid": "34b1dd97a7b26b311903c2d618a99855b78be1f198438bde6b18006cee155f52",
      "vout": 2,
      "prevout": {
        "scriptpubkey": "5120c55a24895b6c06bb4c760ab2b66cc33095b603bd0ecf60f6d3a374afb9668b6c",
        "scriptpubkey_asm": "OP_PUSHNUM_1 OP_PUSHBYTES_32 c55a24895b6c06bb4c760ab2b66cc33095b603bd0ecf60f6d3a374afb9668b6c",
        "scriptpubkey_type": "v1_p2tr",
        "scriptpubkey_address": "bc1pc4dzfz2mdsrtknrkp2etvmxrxz2mvqaapm8kpakn5d62lwtx3dkqv57p5j",
        "value": 78071
      },
      "scriptsig": "",
      "scriptsig_asm": "",
      "witness": [
        "dc541e199cf3c9d44e364006b6b53cf029b14ef301ae38540e96ac89b440b357b4a2e263e15bdecdb21035f7e379f0a20ebe67423558d17271e8d8fa88a00171"
      ],
      "is_coinbase": false,
      "sequence": 4294967293
    }
  ],
  "vout": [
    {
      "scriptpubkey": "5120f824afc476fd2f4a7c06701356ff4c3277ce98cff6b0a00d5c871338289568bd",
      "scriptpubkey_asm": "OP_PUSHNUM_1 OP_PUSHBYTES_32 f824afc476fd2f4a7c06701356ff4c3277ce98cff6b0a00d5c871338289568bd",
      "scriptpubkey_type": "v1_p2tr",
      "scriptpubkey_address": "bc1plqj2l3rkl5h55lqxwqf4dl6vxfmuaxx076c2qr2usufns2y4dz7svxkkjr",
      "value": 977
    },
    {
      "scriptpubkey": "512037baaf19fc3feb26274ab0f1bbccb15ee19c0e864419a4048fc024776cac23aa",
      "scriptpubkey_asm": "OP_PUSHNUM_1 OP_PUSHBYTES_32 37baaf19fc3feb26274ab0f1bbccb15ee19c0e864419a4048fc024776cac23aa",
      "scriptpubkey_type": "v1_p2tr",
      "scriptpubkey_address": "bc1px7a27x0u8l4jvf62krcmhn93tmsecr5xgsv6gpy0cqj8wm9vyw4qu6ca4z",
      "value": 44277
    },
    {
      "scriptpubkey": "5120eb7e2558c8d436ae774e802ae872d1f17292f02259a376e113b469561169c341",
      "scriptpubkey_asm": "OP_PUSHNUM_1 OP_PUSHBYTES_32 eb7e2558c8d436ae774e802ae872d1f17292f02259a376e113b469561169c341",
      "scriptpubkey_type": "v1_p2tr",
      "scriptpubkey_address": "bc1padlz2kxg6sm2ua6wsq4wsuk379ef9upztx3hdcgnk354vytfcdqsjczu9q",
      "value": 31500
    }
  ],
  "size": 355,
  "weight": 1018,
  "fee": 2295,
  "status": {
    "confirmed": true,
    "block_height": 834460,
    "block_hash": "00000000000000000000484a79b643b2524bbce82e5d8a442013fa5b8905ed98",
    "block_time": 1710307468
  },
  "hex": "0200000000010268af7009b9084aab02ee029578fff46ddbd87071842b9d5c58b9a844abc276830000000000fdffffff525f15ee6c00186bde8b4398f1e18bb75598a918d6c20319316bb2a797ddb1340200000000fdffffff03d103000000000000225120f824afc476fd2f4a7c06701356ff4c3277ce98cff6b0a00d5c871338289568bdf5ac00000000000022512037baaf19fc3feb26274ab0f1bbccb15ee19c0e864419a4048fc024776cac23aa0c7b000000000000225120eb7e2558c8d436ae774e802ae872d1f17292f02259a376e113b469561169c34101407133cd67ed245080c6ce81bcd12242ad843ca6f4c0793c4b99e4a50110c81d0a1cca8433994922c43da29a8f1b4125894dd5ef962c281a61b08c051abe7a4d390140dc541e199cf3c9d44e364006b6b53cf029b14ef301ae38540e96ac89b440b357b4a2e263e15bdecdb21035f7e379f0a20ebe67423558d17271e8d8fa88a0017100000000"
}