{
  "txid": "c4da5fecb9ee797031869cfd18c85032de50c1927f03bc4e3a9effbb2c25627a",
  "version": 1,
  "locktime": 0,
  "vin": [
    {
      "txid": "5ef25a5251e875714c49b0dde0aeb1ea9cd0de8b7c8a66927b9c8c2c59898d00",
      "vout": 1,
      "prevout": {
        "scriptpubkey": "001473480904a72d4d438b33766761d4677630e8328e",
        "scriptpubkey_asm": "OP_0 OP_PUSHBYTES_20 73480904a72d4d438b33766761d4677630e8328e",
        "scriptpubkey_type": "v0_p2wpkh",
        "scriptpubkey_address": "bc1qwdyqjp9894x58zenwenkr4r8wccwsv5wlswm8v",
        "value": 224511
      },
      "scriptsig": "",
      "scriptsig_asm": "",
      "witness": [
        "3045022100ccf85b444117b0c111aae1da82b6a8f36acfe8333545eb5a67a1ecab3277d0fc02204246fa59e0f75d21826d204a031c847dcbcb2f5183e4ed2ea7c711730d87a25001",
        "0266540c6741546d2f88c7a6e079b705a33a9cef200cdf7724b13aedb9a4c33c81"
      ],
      "is_coinbase": false,
      "sequence": 4294967293
    }
  ],
  "vout": [
    {
      "scriptpubkey": "5120dfed28d21262b4fdd79ce39ac071ac7d20469ab74239b19186b765c740fc8be7",
      "scriptpubkey_asm": "OP_PUSHNUM_1 OP_PUSHBYTES_32 dfed28d21262b4fdd79ce39ac071ac7d20469ab74239b19186b765c740fc8be7",
      "scriptpubkey_type": "v1_p2tr",
      "scriptpubkey_address": "bc1pmlkj35sjv260m4uuuwdvqudv05sydx4hggumryvxkajuws8u30nsus9rct",
      "value": 2431
    },
    {
      "scriptpubkey": "001473480904a72d4d438b33766761d4677630e8328e",
      "scriptpubkey_asm": "OP_0 OP_PUSHBYTES_20 73480904a72d4d438b33766761d4677630e8328e",
      "scriptpubkey_type": "v0_p2wpkh",
      "scriptpubkey_address": "bc1qwdyqjp9894x58zenwenkr4r8wccwsv5wlswm8v",
      "value": 220065
    }
  ],
  "size": 235,
  "weight": 610,
  "fee": 2015,
  "status": {
    "confirmed": true,
    "block_height": 834460,
    "block_hash": "00000000000000000000484a79b643b2524bbce82e5d8a442013fa5b8905ed98",
    "block_time": 1710307468
  },
  "hex": "01000000000101008d89592c8c9c7b92668a7c8bded09ceab1aee0ddb0494c7175e851525af25e0100000000fdffffff027f09000000000000225120dfed28d21262b4fdd79ce39ac071ac7d20469ab74239b19186b765c740fc8be7a15b03000000000016001473480904a72d4d438b33766761d4677630e8328e02483045022100ccf85b444117b0c111aae1da82b6a8f36acfe8333545eb5a67a1ecab3277d0fc02204246fa59e0f75d21826d204a031c847dcbcb2f5183e4ed2ea7c711730d87a25001210266540c6741546d2f88c7a6e079b705a33a9cef200cdf7724b13aedb9a4c33c8100000000"
}