{
  "txid": "c4e05aefc9e6796d590124e5aab6e67e38b3f0432333ef266825535cc2d73493",
  "version": 2,
  "locktime": 0,
  "vin": [
    {
      "txid": "2ec861de74f4ee19bb41c910c8cd041538f2ad94a92729115e72c7b6159441b7",
      "vout": 5,
      "prevout": {
        "scriptpubkey": "5120c0dd96c8cae7c8a06eab884b1a1d9a8e7ec204ead5db9342cb94cff3f1222499",
        "scriptpubkey_asm": "OP_PUSHNUM_1 OP_PUSHBYTES_32 c0dd96c8cae7c8a06eab884b1a1d9a8e7ec204ead5db9342cb94cff3f1222499",
        "scriptpubkey_type": "v1_p2tr",
        "scriptpubkey_address": "bc1pcrwedjx2uly2qm4t3p9358v63elvyp826hdexsktjn8l8ufzyjvsv0msal",
        "value": 2862
      },
      "scriptsig": "",
      "scriptsig_asm": "",
      "witness": [
        "f6b021d062b207d88201222701326ee28db46cffec1fc751bef6b1963430cd32e364d74d47aa5ae7e36e9039faf7fa44b69cc0d9af02911fe58672acc3019539",
        "207aebce7208da380565ece506c5e4531d096161e07d2af25540b8806ff5834ceeac0063036f726401011e6170706c69636174696f6e2f6a736f6e3b636861727365743d7574662d38004cd37b2270223a22706f772d3230222c226f70223a226d696e74222c227469636b223a2250455045222c22616d74223a2231303030222c22736f6c7574696f6e223a22504550453a62633170746e776d6a6c6e30347468677938776d3632347175746a357163736676646a7179343676366b67747337656e6330797367633871666d646135723a303030303030303030303030303030303030303139393431613561653132383937363539383134343239323533333030353762306461393666336465613163353a3638303535333433343534227d68",
        "c1b3bc6f424055c5ec6ac1dc8b207f1ba18c4db693056bc938ea6425d8b7a62268"
      ],
      "is_coinbase": false,
      "sequence": 4294967295
    }
  ],
  "vout": [
    {
      "scriptpubkey": "51205cddb97e6faaee821ddbd2aa0e2e5406209636402574cd590b87b33c3c90460e",
      "scriptpubkey_asm": "OP_PUSHNUM_1 OP_PUSHBYTES_32 5cddb97e6faaee821ddbd2aa0e2e5406209636402574cd590b87b33c3c90460e",
      "scriptpubkey_type": "v1_p2tr",
      "scriptpubkey_address": "bc1ptnwmjln04thgy8wm624qutj5qcsfvdjqy46v6kgts7enc0ysgc8qfmda5r",
      "value": 546
    }
  ],
  "size": 487,
  "weight": 769,
  "fee": 2316,
  "status": {
    "confirmed": true,
    "block_height": 834460,
    "block_hash": "00000000000000000000484a79b643b2524bbce82e5d8a442013fa5b8905ed98",
    "block_time": 1710307468
  },
  "hex": "02000000000101b7419415b6c7725e112927a994adf2381504cdc810c941bb19eef474de61c82e0500000000ffffffff0122020000000000002251205cddb97e6faaee821ddbd2aa0e2e5406209636402574cd590b87b33c3c90460e0340f6b021d062b207d88201222701326ee28db46cffec1fc751bef6b1963430cd32e364d74d47aa5ae7e36e9039faf7fa44b69cc0d9af02911fe58672acc3019539fd2001207aebce7208da380565ece506c5e4531d096161e07d2af25540b8806ff5834ceeac0063036f726401011e6170706c69636174696f6e2f6a736f6e3b636861727365743d7574662d38004cd37b2270223a22706f772d3230222c226f70223a226d696e74222c227469636b223a2250455045222c22616d74223a2231303030222c22736f6c7574696f6e223a22504550453a62633170746e776d6a6c6e30347468677938776d3632347175746a357163736676646a7179343676366b67747337656e6330797367633871666d646135723a303030303030303030303030303030303030303139393431613561653132383937363539383134343239323533333030353762306461393666336465613163353a3638303535333433343534227d6821c1b3bc6f424055c5ec6ac1dc8b207f1ba18c4db693056bc938ea6425d8b7a6226800000000"
}