{
  "txid": "c4e992af01a6531d713170bb54545ffe5255bafbb4f665fca959610617385f5a",
  "version": 2,
  "locktime": 834637,
  "vin": [
    {
      "txid": "05d78fdf4c3086b243b58270415f640bf01b4bf92a8c53fe593084ebf643518c",
      "vout": 1,
      "prevout": {
        "scriptpubkey": "0014d78693950d9950f0ff5e1e3a0e9032fbf6c85505",
        "scriptpubkey_asm": "OP_0 OP_PUSHBYTES_20 d78693950d9950f0ff5e1e3a0e9032fbf6c85505",
        "scriptpubkey_type": "v0_p2wpkh",
        "scriptpubkey_address": "bc1q67rf89gdn9g0pl67rcaqaypjl0mvs4g990l70q",
        "value": 387500
      },
      "scriptsig": "",
      "scriptsig_asm": "",
      "witness": [
        "3044022009f8fb7fa6b995752e2adafcdafedace6dce4ab6c1171beb533be3678fa0685102201fac3dd510c6a8517611b611c1bb42a0d5bd9d43d7b2d618083396827d04219201",
        "0346133efef4b1c883dc51e24bacf5486dfc279b1a5001d5304891602e4cca2888"
      ],
      "is_coinbase": false,
      "sequence": 4294967293
    },
    {
      "txid": "29b7efc6b474fc368b9e4d293629ce62e8f1cf125000d23762549dc0ad94eacc",
      "vout": 4,
      "prevout": {
        "scriptpubkey": "0014d78693950d9950f0ff5e1e3a0e9032fbf6c85505",
        "scriptpubkey_asm": "OP_0 OP_PUSHBYTES_20 d78693950d9950f0ff5e1e3a0e9032fbf6c85505",
        "scriptpubkey_type": "v0_p2wpkh",
        "scriptpubkey_address": "bc1q67rf89gdn9g0pl67rcaqaypjl0mvs4g990l70q",
        "value": 670000
      },
      "scriptsig": "",
      "scriptsig_asm": "",
      "witness": [
        "304402201ac3b21e08f79a76ea2b977a945259628eeb611fba4b91ece8a71f93f1ee7bfa022050ead210e19d32f7e1a3d15cfab0cb5ce95bf25c730b8a5ab0919f1953e8d50201",
        "0346133efef4b1c883dc51e24bacf5486dfc279b1a5001d5304891602e4cca2888"
      ],
      "is_coinbase": false,
      "sequence": 4294967293
    },
    {
      "txid": "330046356cd90973ea2009390efed0c3401afe9df58671811e559bad5f50cf7f",
      "vout": 3,
      "prevout": {
        "scriptpubkey": "0014d78693950d9950f0ff5e1e3a0e9032fbf6c85505",
        "scriptpubkey_asm": "OP_0 OP_PUSHBYTES_20 d78693950d9950f0ff5e1e3a0e9032fbf6c85505",
        "scriptpubkey_type": "v0_p2wpkh",
        "scriptpubkey_address": "bc1q67rf89gdn9g0pl67rcaqaypjl0mvs4g990l70q",
        "value": 821523
      },
      "scriptsig": "",
      "scriptsig_asm": "",
      "witness": [
        "304402207be6748117872000207d60d5b07ea60ef8468f86a9f66eaad60ed5520ea89dea02201cb6fc5ae5312856cb70605c0465454595934ebe5626690ad7739684e4692de601",
        "0346133efef4b1c883dc51e24bacf5486dfc279b1a5001d5304891602e4cca2888"
      ],
      "is_coinbase": false,
      "sequence": 4294967293
    }
  ],
  "vout": [
    {
      "scriptpubkey": "001470138e1bf41ea2bbaaf02508e15274febeab43a3",
      "scriptpubkey_asm": "OP_0 OP_PUSHBYTES_20 70138e1bf41ea2bbaaf02508e15274febeab43a3",
      "scriptpubkey_type": "v0_p2wpkh",
      "scriptpubkey_address": "bc1qwqfcuxl5r63th2hsy5ywz5n5l6l2ksarhwt60c",
      "value": 1600
    },
    {
      "scriptpubkey": "001479134364bab354fe6f39043057470fa7dd95140a",
      "scriptpubkey_asm": "OP_0 OP_PUSHBYTES_20 79134364bab354fe6f39043057470fa7dd95140a",
      "scriptpubkey_type": "v0_p2wpkh",
      "scriptpubkey_address": "bc1q0yf5xe96kd20umeeqsc9w3c05lwe29q20aa2g0",
      "value": 1873000
    }
  ],
  "size": 518,
  "weight": 1103,
  "fee": 4423,
  "status": {
    "confirmed": true,
    "block_height": 834638,
    "block_hash": "000000000000000000025f742c626208ac87e0b7d15054abb4a19ca2d735a54e",
    "block_time": 1710405325
  },
  "hex": "020000000001038c5143f6eb843059fe538c2af94b1bf00b645f417082b543b286304cdf8fd7050100000000fdffffffccea94adc09d546237d2005012cff1e862ce2936294d9e8b36fc74b4c6efb7290400000000fdffffff7fcf505fad9b551e817186f59dfe1a40c3d0fe0e390920ea7309d96c354600330300000000fdffffff02400600000000000016001470138e1bf41ea2bbaaf02508e15274febeab43a368941c000000000016001479134364bab354fe6f39043057470fa7dd95140a02473044022009f8fb7fa6b995752e2adafcdafedace6dce4ab6c1171beb533be3678fa0685102201fac3dd510c6a8517611b611c1bb42a0d5bd9d43d7b2d618083396827d04219201210346133efef4b1c883dc51e24bacf5486dfc279b1a5001d5304891602e4cca28880247304402201ac3b21e08f79a76ea2b977a945259628eeb611fba4b91ece8a71f93f1ee7bfa022050ead210e19d32f7e1a3d15cfab0cb5ce95bf25c730b8a5ab0919f1953e8d50201210346133efef4b1c883dc51e24bacf5486dfc279b1a5001d5304891602e4cca28880247304402207be6748117872000207d60d5b07ea60ef8468f86a9f66eaad60ed5520ea89dea02201cb6fc5ae5312856cb70605c0465454595934ebe5626690ad7739684e4692de601210346133efef4b1c883dc51e24bacf5486dfc279b1a5001d5304891602e4cca28884dbc0c00"
}