{
  "txid": "c4ea15e50f72ae587d840828210a88350884fba15b82719853627266dc4aace0",
  "version": 1,
  "locktime": 0,
  "vin": [
    {
      "txid": "2ec170cb9e5c2168808795d3da770c3bab0b9e8fc84254cc5b52415b60d28a50",
      "vout": 1801,
      "prevout": {
        "scriptpubkey": "00144a67796f8d16160bfa271a88541d99e9e9a08a83",
        "scriptpubkey_asm": "OP_0 OP_PUSHBYTES_20 4a67796f8d16160bfa271a88541d99e9e9a08a83",
        "scriptpubkey_type": "v0_p2wpkh",
        "scriptpubkey_address": "bc1qffnhjmudzctqh738r2y9g8vea856pz5rxuad75",
        "value": 1781616
      },
      "scriptsig": "",
      "scriptsig_asm": "",
      "witness": [
        "304402203dce7d13f9c91f2e53c8b9131efe225d3693b5ff08c3a259af141091f29a6fa4022042c46caf8a26fe8719045a6c34cf2e699db6e25a5af618e81ae3a65d74fb317601",
        "02fc0719a1233e7dea9c8f8042f77cb3ee36cce06f9852e81fc9f459909a7baa6f"
      ],
      "is_coinbase": false,
      "sequence": 4294967295
    },
    {
      "txid": "49a3e1f04de70c197429dc5ab0cbdbf6bc0da124c570bedfc4ce21780f31aab0",
      "vout": 2425,
      "prevout": {
        "scriptpubkey": "00144a67796f8d16160bfa271a88541d99e9e9a08a83",
        "scriptpubkey_asm": "OP_0 OP_PUSHBYTES_20 4a67796f8d16160bfa271a88541d99e9e9a08a83",
        "scriptpubkey_type": "v0_p2wpkh",
        "scriptpubkey_address": "bc1qffnhjmudzctqh738r2y9g8vea856pz5rxuad75",
        "value": 1151384
      },
      "scriptsig": "",
      "scriptsig_asm": "",
      "witness": [
        "3045022100d7ce1eb6912e53710eaf2d7587bfbd34d34ceb7d3dd5a0e78b7de3718f7582d0022068a3cd129148c0bf93d8e1c3df4e3e7979d8d0aeecd8aba2fa91626832648bab01",
        "02fc0719a1233e7dea9c8f8042f77cb3ee36cce06f9852e81fc9f459909a7baa6f"
      ],
      "is_coinbase": false,
      "sequence": 4294967295
    },
    {
      "txid": "9d0cb71e0340049dab450f438df523c68a6569c5cb7c3899dddbab1b6dc2c24b",
      "vout": 2226,
      "prevout": {
        "scriptpubkey": "00144a67796f8d16160bfa271a88541d99e9e9a08a83",
        "scriptpubkey_asm": "OP_0 OP_PUSHBYTES_20 4a67796f8d16160bfa271a88541d99e9e9a08a83",
        "scriptpubkey_type": "v0_p2wpkh",
        "scriptpubkey_address": "bc1qffnhjmudzctqh738r2y9g8vea856pz5rxuad75",
        "value": 2369795
      },
      "scriptsig": "",
      "scriptsig_asm": "",
      "witness": [
        "3045022100c97c7f89d5fe96c52b40a1f674e52ea137e24909ecaec7fe3ff2b075dc9706c402205ffed4921fe2cfd48cd7d9c076fb294a43d0ff9f39b230d1dd3c38adefd7d26d01",
        "02fc0719a1233e7dea9c8f8042f77cb3ee36cce06f9852e81fc9f459909a7baa6f"
      ],
      "is_coinbase": false,
      "sequence": 4294967295
    },
    {
      "txid": "9ea4bdb294a279f229affa9e6cea17080dc25a71af388c30137815ffb5c45918",
      "vout": 1778,
      "prevout": {
        "scriptpubkey": "00144a67796f8d16160bfa271a88541d99e9e9a08a83",
        "scriptpubkey_asm": "OP_0 OP_PUSHBYTES_20 4a67796f8d16160bfa271a88541d99e9e9a08a83",
        "scriptpubkey_type": "v0_p2wpkh",
        "scriptpubkey_address": "bc1qffnhjmudzctqh738r2y9g8vea856pz5rxuad75",
        "value": 1796487
      },
      "scriptsig": "",
      "scriptsig_asm": "",
      "witness": [
        "304402206d8b7bd852a35f92b3dda849f704ab19084629c37281c7e4b44a87495df78ade02203a792d7d608b90bd256f3dd83dc5466ed2ebb4f8b89133fab1d0d6eabf1259cb01",
        "02fc0719a1233e7dea9c8f8042f77cb3ee36cce06f9852e81fc9f459909a7baa6f"
      ],
      "is_coinbase": false,
      "sequence": 4294967295
    }
  ],
  "vout": [
    {
      "scriptpubkey": "76a9143994b50361320a56da264d9a47ffa0637f25d78988ac",
      "scriptpubkey_asm": "OP_DUP OP_HASH160 OP_PUSHBYTES_20 3994b50361320a56da264d9a47ffa0637f25d789 OP_EQUALVERIFY OP_CHECKSIG",
      "scriptpubkey_type": "p2pkh",
      "scriptpubkey_address": "16FTfHSz8GSS3Qu6HiNYB9hB7SDt9gdGRk",
      "value": 7090723
    }
  ],
  "size": 640,
  "weight": 1264,
  "fee": 8559,
  "status": {
    "confirmed": true,
    "block_height": 834638,
    "block_hash": "000000000000000000025f742c626208ac87e0b7d15054abb4a19ca2d735a54e",
    "block_time": 1710405325
  },
  "hex": "01000000000104508ad2605b41525bcc5442c88f9e0bab3b0c77dad395878068215c9ecb70c12e0907000000ffffffffb0aa310f7821cec4dfbe70c524a10dbcf6dbcbb05adc2974190ce74df0e1a3497909000000ffffffff4bc2c26d1babdbdd99387ccbc569658ac623f58d430f45ab9d0440031eb70c9db208000000ffffffff1859c4b5ff157813308c38af715ac20d0817ea6c9efaaf29f279a294b2bda49ef206000000ffffffff0123326c00000000001976a9143994b50361320a56da264d9a47ffa0637f25d78988ac0247304402203dce7d13f9c91f2e53c8b9131efe225d3693b5ff08c3a259af141091f29a6fa4022042c46caf8a26fe8719045a6c34cf2e699db6e25a5af618e81ae3a65d74fb3176012102fc0719a1233e7dea9c8f8042f77cb3ee36cce06f9852e81fc9f459909a7baa6f02483045022100d7ce1eb6912e53710eaf2d7587bfbd34d34ceb7d3dd5a0e78b7de3718f7582d0022068a3cd129148c0bf93d8e1c3df4e3e7979d8d0aeecd8aba2fa91626832648bab012102fc0719a1233e7dea9c8f8042f77cb3ee36cce06f9852e81fc9f459909a7baa6f02483045022100c97c7f89d5fe96c52b40a1f674e52ea137e24909ecaec7fe3ff2b075dc9706c402205ffed4921fe2cfd48cd7d9c076fb294a43d0ff9f39b230d1dd3c38adefd7d26d012102fc0719a1233e7dea9c8f8042f77cb3ee36cce06f9852e81fc9f459909a7baa6f0247304402206d8b7bd852a35f92b3dda849f704ab19084629c37281c7e4b44a87495df78ade02203a792d7d608b90bd256f3dd83dc5466ed2ebb4f8b89133fab1d0d6eabf1259cb012102fc0719a1233e7dea9c8f8042f77cb3ee36cce06f9852e81fc9f459909a7baa6f00000000"
}