{
  "txid": "c50bb594ded591b02edcd2c9466870aa4ae04bdb12a135e7b1fd8da19e9f3e8c",
  "version": 1,
  "locktime": 0,
  "vin": [
    {
      "txid": "232bdeb588b94f48a8edf80eb53d0faedd9d322816329ac59e233048c7c8dfea",
      "vout": 2,
      "prevout": {
        "scriptpubkey": "00145e5b90f5c01a741cf54afedb3f2a7177d5317d0e",
        "scriptpubkey_asm": "OP_0 OP_PUSHBYTES_20 5e5b90f5c01a741cf54afedb3f2a7177d5317d0e",
        "scriptpubkey_type": "v0_p2wpkh",
        "scriptpubkey_address": "bc1qtedepawqrf6pea22lmdn72n3wl2nzlgwv4h6ad",
        "value": 100000
      },
      "scriptsig": "",
      "scriptsig_asm": "",
      "witness": [
        "304402204c6866f40614eca744e1147e62d5aa16293264e765c841178d33b90b63b27ea70220146e86c04e6a8bdce2314d9074da0a756a9ff784f8971c093f546ed1f0d8c02101",
        "031f27cf9a8bd0aa8f6afa57c2434bccb390ec4a15602bda86495c8e3eb9570b67"
      ],
      "is_coinbase": false,
      "sequence": 4294967295
    },
    {
      "txid": "6d351060b4b4bcb319c18fe7b88fb5d9b6cd481e1fb9d62fb7ed3ec9f8132c46",
      "vout": 11,
      "prevout": {
        "scriptpubkey": "0014787ff05ff50bbbaeeab0771c581fc2028997cab7",
        "scriptpubkey_asm": "OP_0 OP_PUSHBYTES_20 787ff05ff50bbbaeeab0771c581fc2028997cab7",
        "scriptpubkey_type": "v0_p2wpkh",
        "scriptpubkey_address": "bc1q0pllqhl4pwa6a64swuw9s87zq2ye0j4hjasdnd",
        "value": 103932
      },
      "scriptsig": "",
      "scriptsig_asm": "",
      "witness": [
        "3044022025c2708c951a5c09eb6de136cfaf9085ef69a219aba1b54cd930ee1bb1866e9802207806739d88b8e9fc88ab655d212e565417fa471021d2dfb7fa925d13c408361801",
        "02ff125d379eff7177b621010952a1452a272cc781f14ccd246d31abb3075381ac"
      ],
      "is_coinbase": false,
      "sequence": 4294967295
    },
    {
      "txid": "7b8afba7911e784399113f85685ed3882dd7b9954ffbe719ee1153020efd3c79",
      "vout": 10,
      "prevout": {
        "scriptpubkey": "00144106fb8a314b220b196d24c3ee1f9031cc189e1c",
        "scriptpubkey_asm": "OP_0 OP_PUSHBYTES_20 4106fb8a314b220b196d24c3ee1f9031cc189e1c",
        "scriptpubkey_type": "v0_p2wpkh",
        "scriptpubkey_address": "bc1qgyr0hz33fv3qkxtdynp7u8usx8xp38suku732t",
        "value": 103412
      },
      "scriptsig": "",
      "scriptsig_asm": "",
      "witness": [
        "3044022027c471066fe6ff8891f0922e1c3e660cfa3d916dcf827b46d64f6b56e3595fc0022032b77733c6417e1f1cae10cccb6bf66b6ff576574d0c65f262d766ad890c9eb701",
        "0361a454607804dc78d1523186f454cfc5fa555032ce3c7776a54053d25c6104f7"
      ],
      "is_coinbase": false,
      "sequence": 4294967295
    },
    {
      "txid": "8146a7fa5a4881f12c5cbebc01eda4f479102f56031aa39759e5f7162f651505",
      "vout": 0,
      "prevout": {
        "scriptpubkey": "00145393302edfde890044050071ec306e6e62dc7bf3",
        "scriptpubkey_asm": "OP_0 OP_PUSHBYTES_20 5393302edfde890044050071ec306e6e62dc7bf3",
        "scriptpubkey_type": "v0_p2wpkh",
        "scriptpubkey_address": "bc1q2wfnqtklm6ysq3q9qpc7cvrwde3dc7ln05mzvj",
        "value": 100000
      },
      "scriptsig": "",
      "scriptsig_asm": "",
      "witness": [
        "3044022057c11024bb9d394d883ea70974223dbc412eb59eb77386f6cddeeab7ecab1d7a02204f6ac73d34a2c22a840c0b7f8e1eea46fdc9db2cf0b17d81d86ef85ba708633e01",
        "03d890dc934b757e918f8240a3e5d974ef89f8f561db8595d9dbb57d165d49019f"
      ],
      "is_coinbase": false,
      "sequence": 4294967295
    },
    {
      "txid": "82d65e3340bcf88c292135eaa1527c6b783328b10c17a11ccd6704b303328b81",
      "vout": 4,
      "prevout": {
        "scriptpubkey": "0014f6bd5825d88dd1c7e2bcbd77f6a1d86efdd2ea2b",
        "scriptpubkey_asm": "OP_0 OP_PUSHBYTES_20 f6bd5825d88dd1c7e2bcbd77f6a1d86efdd2ea2b",
        "scriptpubkey_type": "v0_p2wpkh",
        "scriptpubkey_address": "bc1q7674sfwc3hgu0c4uh4mldgwcdm7a963t0r24lv",
        "value": 100000
      },
      "scriptsig": "",
      "scriptsig_asm": "",
      "witness": [
        "30450221008a2fcc8cd474edb8e33a0841312e1a38fdbba32ae3654f31e0866468ecc04ccd02203b42894cb4bc7c80d9c1c4fda188f869293d1817e6654ed7ac4a3673116c63fe01",
        "0259f4b3f0828f02054f9a2a6986d75e2f57dcfef72d9bdb4a2275b3d849bcc977"
      ],
      "is_coinbase": false,
      "sequence": 4294967295
    }
  ],
  "vout": [
    {
      "scriptpubkey": "001482ef93800a0feea17e60ba44a6e6dbdc846109a3",
      "scriptpubkey_asm": "OP_0 OP_PUSHBYTES_20 82ef93800a0feea17e60ba44a6e6dbdc846109a3",
      "scriptpubkey_type": "v0_p2wpkh",
      "scriptpubkey_address": "bc1qsthe8qq2plh2zlnqhfz2dekmmjzxzzdrdw3lcd",
      "value": 100000
    },
    {
      "scriptpubkey": "00149d981673b517c5f298d8b94c22fb0bd39ab992ca",
      "scriptpubkey_asm": "OP_0 OP_PUSHBYTES_20 9d981673b517c5f298d8b94c22fb0bd39ab992ca",
      "scriptpubkey_type": "v0_p2wpkh",
      "scriptpubkey_address": "bc1qnkvpvua4zlzl9xxch9xz97ct6wdtnyk2dmqeu8",
      "value": 100000
    },
    {
      "scriptpubkey": "0014a8a4e0c386d8734caa2cbee0ff84abd4493f7be4",
      "scriptpubkey_asm": "OP_0 OP_PUSHBYTES_20 a8a4e0c386d8734caa2cbee0ff84abd4493f7be4",
      "scriptpubkey_type": "v0_p2wpkh",
      "scriptpubkey_address": "bc1q4zjwpsuxmpe5e23vhms0lp9t63yn77lymp3a0z",
      "value": 100000
    },
    {
      "scriptpubkey": "0014d20225fcdbf5d122dca7215315afe3b274b661cd",
      "scriptpubkey_asm": "OP_0 OP_PUSHBYTES_20 d20225fcdbf5d122dca7215315afe3b274b661cd",
      "scriptpubkey_type": "v0_p2wpkh",
      "scriptpubkey_address": "bc1q6gpztlxm7hgj9h98y9f3ttlrkf6tvcwdk6mnnn",
      "value": 100000
    },
    {
      "scriptpubkey": "0014dac8809e7f61df87269158d55000f7b9c32b2a16",
      "scriptpubkey_asm": "OP_0 OP_PUSHBYTES_20 dac8809e7f61df87269158d55000f7b9c32b2a16",
      "scriptpubkey_type": "v0_p2wpkh",
      "scriptpubkey_address": "bc1qmtygp8nlv80cwf53tr24qq8hh8pjk2skjxsax2",
      "value": 100000
    }
  ],
  "size": 908,
  "weight": 2018,
  "fee": 7344,
  "status": {
    "confirmed": true,
    "block_height": 834638,
    "block_hash": "000000000000000000025f742c626208ac87e0b7d15054abb4a19ca2d735a54e",
    "block_time": 1710405325
  },
  "hex": "01000000000105eadfc8c74830239ec59a321628329dddae0f3db50ef8eda8484fb988b5de2b230200000000ffffffff462c13f8c93eedb72fd6b91f1e48cdb6d9b58fb8e78fc119b3bcb4b46010356d0b00000000ffffffff793cfd0e025311ee19e7fb4f95b9d72d88d35e68853f119943781e91a7fb8a7b0a00000000ffffffff0515652f16f7e55997a31a03562f1079f4a4ed01bcbe5c2cf181485afaa746810000000000ffffffff818b3203b30467cd1ca1170cb12833786b7c52a1ea3521298cf8bc40335ed6820400000000ffffffff05a08601000000000016001482ef93800a0feea17e60ba44a6e6dbdc846109a3a0860100000000001600149d981673b517c5f298d8b94c22fb0bd39ab992caa086010000000000160014a8a4e0c386d8734caa2cbee0ff84abd4493f7be4a086010000000000160014d20225fcdbf5d122dca7215315afe3b274b661cda086010000000000160014dac8809e7f61df87269158d55000f7b9c32b2a160247304402204c6866f40614eca744e1147e62d5aa16293264e765c841178d33b90b63b27ea70220146e86c04e6a8bdce2314d9074da0a756a9ff784f8971c093f546ed1f0d8c0210121031f27cf9a8bd0aa8f6afa57c2434bccb390ec4a15602bda86495c8e3eb9570b6702473044022025c2708c951a5c09eb6de136cfaf9085ef69a219aba1b54cd930ee1bb1866e9802207806739d88b8e9fc88ab655d212e565417fa471021d2dfb7fa925d13c4083618012102ff125d379eff7177b621010952a1452a272cc781f14ccd246d31abb3075381ac02473044022027c471066fe6ff8891f0922e1c3e660cfa3d916dcf827b46d64f6b56e3595fc0022032b77733c6417e1f1cae10cccb6bf66b6ff576574d0c65f262d766ad890c9eb701210361a454607804dc78d1523186f454cfc5fa555032ce3c7776a54053d25c6104f702473044022057c11024bb9d394d883ea70974223dbc412eb59eb77386f6cddeeab7ecab1d7a02204f6ac73d34a2c22a840c0b7f8e1eea46fdc9db2cf0b17d81d86ef85ba708633e012103d890dc934b757e918f8240a3e5d974ef89f8f561db8595d9dbb57d165d49019f024830450221008a2fcc8cd474edb8e33a0841312e1a38fdbba32ae3654f31e0866468ecc04ccd02203b42894cb4bc7c80d9c1c4fda188f869293d1817e6654ed7ac4a3673116c63fe01210259f4b3f0828f02054f9a2a6986d75e2f57dcfef72d9bdb4a2275b3d849bcc97700000000"
}