{
  "txid": "c513e1a3da2c46acdfe5d4233292ca2e403e989e01a79e49c23f6f61173a4cb8",
  "version": 2,
  "locktime": 0,
  "vin": [
    {
      "txid": "952be5a684d87729e789c49dac3c53b45e10766e9ac60dd2307d5ead9f7aae65",
      "vout": 1,
      "prevout": {
        "scriptpubkey": "001422ceeb6ebfe77f69bf936ba3ec86a5b242461a5a",
        "scriptpubkey_asm": "OP_0 OP_PUSHBYTES_20 22ceeb6ebfe77f69bf936ba3ec86a5b242461a5a",
        "scriptpubkey_type": "v0_p2wpkh",
        "scriptpubkey_address": "bc1qyt8wkm4lualkn0undw37ep49kfpyvxj6gnl253",
        "value": 1056973969
      },
      "scriptsig": "",
      "scriptsig_asm": "",
      "witness": [
        "3045022100c28126e4ee4e23b595ea646328b1fec49d9b59a14bb93f284652b2fea65dad2e022054de00440878a3d034c5e70e83127e2a50ca490b0d40c46bc6c62d7799c4122e01",
        "0224c4ea89119813c03bfd67f410f0757fd6c0a7d68fe28767e68e7282ec55ad9a"
      ],
      "is_coinbase": false,
      "sequence": 0
    }
  ],
  "vout": [
    {
      "scriptpubkey": "0014d2a8bb1c34d3df87dc9a947a4dc9e2c4ceadb6be",
      "scriptpubkey_asm": "OP_0 OP_PUSHBYTES_20 d2a8bb1c34d3df87dc9a947a4dc9e2c4ceadb6be",
      "scriptpubkey_type": "v0_p2wpkh",
      "scriptpubkey_address": "bc1q625tk8p5600c0hy6j3aymj0zcn82md47maz8x2",
      "value": 200000000
    },
    {
      "scriptpubkey": "0014bb37334e60027b4724913eef08e486d7b8f00f19",
      "scriptpubkey_asm": "OP_0 OP_PUSHBYTES_20 bb37334e60027b4724913eef08e486d7b8f00f19",
      "scriptpubkey_type": "v0_p2wpkh",
      "scriptpubkey_address": "bc1qhvmnxnnqqfa5wfy38mhs3eyx67u0qrces6n6dt",
      "value": 856970063
    }
  ],
  "size": 223,
  "weight": 562,
  "fee": 3906,
  "status": {
    "confirmed": true,
    "block_height": 834460,
    "block_hash": "00000000000000000000484a79b643b2524bbce82e5d8a442013fa5b8905ed98",
    "block_time": 1710307468
  },
  "hex": "0200000000010165ae7a9fad5e7d30d20dc69a6e76105eb4533cac9dc489e72977d884a6e52b950100000000000000000200c2eb0b00000000160014d2a8bb1c34d3df87dc9a947a4dc9e2c4ceadb6be4f53143300000000160014bb37334e60027b4724913eef08e486d7b8f00f1902483045022100c28126e4ee4e23b595ea646328b1fec49d9b59a14bb93f284652b2fea65dad2e022054de00440878a3d034c5e70e83127e2a50ca490b0d40c46bc6c62d7799c4122e01210224c4ea89119813c03bfd67f410f0757fd6c0a7d68fe28767e68e7282ec55ad9a00000000"
}