{
  "txid": "c518a9a62e12ba2a04aef6f077f7c5a3211c7edf6d5a76d786428a4787ab5df5",
  "version": 2,
  "locktime": 0,
  "vin": [
    {
      "txid": "80ea18f680f86fc90db05e9b6f8bf05eb21a1534caedd72dbfec37bf55818ea4",
      "vout": 5,
      "prevout": {
        "scriptpubkey": "512007972c4ff3c15b19ed1b027031854a2270b53ccc5458744f9133994cba388b2e",
        "scriptpubkey_asm": "OP_PUSHNUM_1 OP_PUSHBYTES_32 07972c4ff3c15b19ed1b027031854a2270b53ccc5458744f9133994cba388b2e",
        "scriptpubkey_type": "v1_p2tr",
        "scriptpubkey_address": "bc1pq7tjcnlnc9d3nmgmqfcrrp22yfct20xv23v8gnu3xwv5ew3c3vhqkvdjal",
        "value": 1962
      },
      "scriptsig": "",
      "scriptsig_asm": "",
      "witness": [
        "12bc318453f771106d3e67a7575ffe5685b06152d74a8441a0eb796de18a982fca8350f6c431079d8b534e8963ea7ad499c628c8eff6a667e823ffb7fa7188dd",
        "20cc0d40fbb5fa0b324bad57f7af7a372c0607f83cfd143e71b0d95bea532527deac0063036f7264010118746578742f706c61696e3b636861727365743d7574662d3800367b2270223a226272632d3230222c226f70223a226d696e74222c227469636b223a2261616161222c22616d74223a223130303030227d68",
        "c1cc0d40fbb5fa0b324bad57f7af7a372c0607f83cfd143e71b0d95bea532527de"
      ],
      "is_coinbase": false,
      "sequence": 4294967293
    }
  ],
  "vout": [
    {
      "scriptpubkey": "00149f9b8d4b89304c7ec05fcaa4d43065401f861325",
      "scriptpubkey_asm": "OP_0 OP_PUSHBYTES_20 9f9b8d4b89304c7ec05fcaa4d43065401f861325",
      "scriptpubkey_type": "v0_p2wpkh",
      "scriptpubkey_address": "bc1qn7dc6jufxpx8aszle2jdgvr9gq0cvye9gksctu",
      "value": 294
    }
  ],
  "size": 309,
  "weight": 555,
  "fee": 1668,
  "status": {
    "confirmed": true,
    "block_height": 834460,
    "block_hash": "00000000000000000000484a79b643b2524bbce82e5d8a442013fa5b8905ed98",
    "block_time": 1710307468
  },
  "hex": "02000000000101a48e8155bf37ecbf2dd7edca34151ab25ef08b6f9b5eb00dc96ff880f618ea800500000000fdffffff0126010000000000001600149f9b8d4b89304c7ec05fcaa4d43065401f861325034012bc318453f771106d3e67a7575ffe5685b06152d74a8441a0eb796de18a982fca8350f6c431079d8b534e8963ea7ad499c628c8eff6a667e823ffb7fa7188dd7c20cc0d40fbb5fa0b324bad57f7af7a372c0607f83cfd143e71b0d95bea532527deac0063036f7264010118746578742f706c61696e3b636861727365743d7574662d3800367b2270223a226272632d3230222c226f70223a226d696e74222c227469636b223a2261616161222c22616d74223a223130303030227d6821c1cc0d40fbb5fa0b324bad57f7af7a372c0607f83cfd143e71b0d95bea532527de00000000"
}