{
  "txid": "c533328538493b161ab22b5b21608f2376b0904fcc661014f6789b565c80b17b",
  "version": 1,
  "locktime": 0,
  "vin": [
    {
      "txid": "d9583036e6faa079c1297a0ba9b7b3437805d585592b620b0e75a8d4200683b5",
      "vout": 1,
      "prevout": {
        "scriptpubkey": "a91498e6bbd659055e484148a4997d803f495bbf31e287",
        "scriptpubkey_asm": "OP_HASH160 OP_PUSHBYTES_20 98e6bbd659055e484148a4997d803f495bbf31e2 OP_EQUAL",
        "scriptpubkey_type": "p2sh",
        "scriptpubkey_address": "3FdV3N2DcoMhVvBoqJdZgVENLLtxN2ZnYH",
        "value": 250000
      },
      "scriptsig": "16001487b4321b247b0bf66e60e85391c96eda67e4ec40",
      "scriptsig_asm": "OP_PUSHBYTES_22 001487b4321b247b0bf66e60e85391c96eda67e4ec40",
      "witness": [
        "3045022100e32fb863de722a1a51f0e5229831951960d9cf5ccd83df702f02d22df247c4fc0220716783c00fa678af8bfd0af14b43f01a6acc263a7ffe8e7cebef79195604998d01",
        "027c325e32e78524dd41083e0f57f0ea76107e5c8a8634bd1c50e839ba5ee1cb56"
      ],
      "is_coinbase": false,
      "sequence": 4294967280,
      "inner_redeemscript_asm": "OP_0 OP_PUSHBYTES_20 87b4321b247b0bf66e60e85391c96eda67e4ec40"
    },
    {
      "txid": "71a62c366831b06ed3c19a3865256e7d4d5bd54f5f649b120c5a7eca62649dce",
      "vout": 69,
      "prevout": {
        "scriptpubkey": "a914c9d050f11377e6fb6dddbdc4e21f54aa9f0a134887",
        "scriptpubkey_asm": "OP_HASH160 OP_PUSHBYTES_20 c9d050f11377e6fb6dddbdc4e21f54aa9f0a1348 OP_EQUAL",
        "scriptpubkey_type": "p2sh",
        "scriptpubkey_address": "3L67JASGQTXxN4qUu7oaNkevh8AdhZJCsA",
        "value": 1444013
      },
      "scriptsig": "1600143d66bc24c6a11f27bcf2738840850b2d603235f3",
      "scriptsig_asm": "OP_PUSHBYTES_22 00143d66bc24c6a11f27bcf2738840850b2d603235f3",
      "witness": [
        "3044022047a48e95a9c719d8d516f51aa04c9661d7f92165798d6603344d6be61ebcb0f802204c02c681cf85bed1105710b1496d0692ae589160487b0f8ffa5a42fa9a06852c01",
        "03aa422d79ab7deb313fa3f456956224533b265f9e8d5700e51b085fb08ba30813"
      ],
      "is_coinbase": false,
      "sequence": 4294967280,
      "inner_redeemscript_asm": "OP_0 OP_PUSHBYTES_20 3d66bc24c6a11f27bcf2738840850b2d603235f3"
    },
    {
      "txid": "33b71d149ed56077147a5df7d8ea43730c6703d1e72ba35132a7040492c87f0b",
      "vout": 10,
      "prevout": {
        "scriptpubkey": "a9142171b0de836787611f37af50db002ac1d3c9e49c87",
        "scriptpubkey_asm": "OP_HASH160 OP_PUSHBYTES_20 2171b0de836787611f37af50db002ac1d3c9e49c OP_EQUAL",
        "scriptpubkey_type": "p2sh",
        "scriptpubkey_address": "34jrRFobai8ETD1aGwH44rFHMQCwDhx97L",
        "value": 260822
      },
      "scriptsig": "160014e798f7712aa17d4451d1650a7ac43da2a50319e0",
      "scriptsig_asm": "OP_PUSHBYTES_22 0014e798f7712aa17d4451d1650a7ac43da2a50319e0",
      "witness": [
        "30450221009769f7a5465e510da25622a3e8ac93aeeecf96bab1e38cf7cda2362071e0ab340220221bee0eee18ead828a941f25a96453398f1c65fa170ff182dd768a3abf655a601",
        "02602565ef0a144749f2de79d81a0e51c7f877d9e205e1942a59d525839802a856"
      ],
      "is_coinbase": false,
      "sequence": 4294967280,
      "inner_redeemscript_asm": "OP_0 OP_PUSHBYTES_20 e798f7712aa17d4451d1650a7ac43da2a50319e0"
    },
    {
      "txid": "d8803f947a1232728056e47bb3c9f38b88b0247e5df9428b6a9f4a0797daee91",
      "vout": 0,
      "prevout": {
        "scriptpubkey": "a914a9c90af673a4e3572f2af5508cd64b7624bb6bda87",
        "scriptpubkey_asm": "OP_HASH160 OP_PUSHBYTES_20 a9c90af673a4e3572f2af5508cd64b7624bb6bda OP_EQUAL",
        "scriptpubkey_type": "p2sh",
        "scriptpubkey_address": "3HAkxfRgynmoWPLhEr7S8Qo9KUmx7rhbdt",
        "value": 400000
      },
      "scriptsig": "160014d0bb2f7803c35dea99b084a3d4452d4ba138e936",
      "scriptsig_asm": "OP_PUSHBYTES_22 0014d0bb2f7803c35dea99b084a3d4452d4ba138e936",
      "witness": [
        "304402204c9ae57c213f63ede46156eee196ce56588f74bcdf91f7bedc888f3a9dc49f5002206c2523dc0d7148975f5bc1b1fe64aff0318efee8b09e76d52fa2518dd504400d01",
        "03a2a3ff1d32e0382760ed8eb1bf1c4facf333a87b67c8b98f9ccb5a4aa6e34f10"
      ],
      "is_coinbase": false,
      "sequence": 4294967280,
      "inner_redeemscript_asm": "OP_0 OP_PUSHBYTES_20 d0bb2f7803c35dea99b084a3d4452d4ba138e936"
    },
    {
      "txid": "f1205656421587833594c915f048168ac2964bc44fc871aaaac2e729c88346d6",
      "vout": 0,
      "prevout": {
        "scriptpubkey": "a91409531bc2c69d1716dcdd14a614cfeafaed59054387",
        "scriptpubkey_asm": "OP_HASH160 OP_PUSHBYTES_20 09531bc2c69d1716dcdd14a614cfeafaed590543 OP_EQUAL",
        "scriptpubkey_type": "p2sh",
        "scriptpubkey_address": "32YKZkDZ23oCoKJgrje5e55bkSNegHxEMc",
        "value": 281837
      },
      "scriptsig": "16001429bc7c67baca3e03951f661cbbf239abf174eeea",
      "scriptsig_asm": "OP_PUSHBYTES_22 001429bc7c67baca3e03951f661cbbf239abf174eeea",
      "witness": [
        "30440220267f0716fbc8fc96b0f291fac53784574e2904b6e6dfe514d03b48cca06819f1022014ed20eeb1bba986accb3dbb6ba5fde62fda65c6448c7a5ef7de551ccad4241501",
        "02f103c2543e81c7a511af963d3daaa88dbd3b1d56014b1ea93d4d577dc7ef6e6d"
      ],
      "is_coinbase": false,
      "sequence": 4294967280,
      "inner_redeemscript_asm": "OP_0 OP_PUSHBYTES_20 29bc7c67baca3e03951f661cbbf239abf174eeea"
    },
    {
      "txid": "ecbb01d26d916243060482d516afe04a646f750a8e9b5d3855edd69c8ffa174c",
      "vout": 0,
      "prevout": {
        "scriptpubkey": "a9147e0b850162bd237ed1e1ebe38c8188cdf3e7e4ab87",
        "scriptpubkey_asm": "OP_HASH160 OP_PUSHBYTES_20 7e0b850162bd237ed1e1ebe38c8188cdf3e7e4ab OP_EQUAL",
        "scriptpubkey_type": "p2sh",
        "scriptpubkey_address": "3DBUs79voosJPLAYMAEpt6xtd643QsV23c",
        "value": 419544
      },
      "scriptsig": "1600149546b37e2a7046b33079a3160d26f7310d08f323",
      "scriptsig_asm": "OP_PUSHBYTES_22 00149546b37e2a7046b33079a3160d26f7310d08f323",
      "witness": [
        "3045022100a700c6b9faa010980d45f9d4460cf11db1be547964344608bde22441cabd30e202207642698adbf54ae719f9e35fb7198053072a1f9f3723f0b5d3d0ec07ae9961f801",
        "03c1c335e3c32f070a01b301702b19cd6376bb5b96dc31cc0cb7b207147a624ae4"
      ],
      "is_coinbase": false,
      "sequence": 4294967280,
      "inner_redeemscript_asm": "OP_0 OP_PUSHBYTES_20 9546b37e2a7046b33079a3160d26f7310d08f323"
    },
    {
      "txid": "31bf61e6bb708a92522beacbb1bb10a13a3bb18c562756b049783fabe329b9f7",
      "vout": 1,
      "prevout": {
        "scriptpubkey": "a91459529c83aad77fb4e8762f5832d9368fe2c1b96f87",
        "scriptpubkey_asm": "OP_HASH160 OP_PUSHBYTES_20 59529c83aad77fb4e8762f5832d9368fe2c1b96f OP_EQUAL",
        "scriptpubkey_type": "p2sh",
        "scriptpubkey_address": "39qK2ZDVjFvLtvzCxLcpLBYqjyghpK3f2y",
        "value": 1504747
      },
      "scriptsig": "1600140bac45bd72ce3cc4e3c0ed80a423d552308cec6a",
      "scriptsig_asm": "OP_PUSHBYTES_22 00140bac45bd72ce3cc4e3c0ed80a423d552308cec6a",
      "witness": [
        "3045022100b719e92c6d4363ffa5dbf043192634ed6166eb5cf5fdc719977372aacb59bf210220097fa18836b5b7f7062c52ced73249748140cc925dcfb5a1b81bc2a7c484227901",
        "034f0662447e560aee773e7c4b3366430ec6c32b94f9dd4531c2f767e7b660d96f"
      ],
      "is_coinbase": false,
      "sequence": 4294967280,
      "inner_redeemscript_asm": "OP_0 OP_PUSHBYTES_20 0bac45bd72ce3cc4e3c0ed80a423d552308cec6a"
    },
    {
      "txid": "4ed17a72d1bf583432ffe22e8946d025cd111594b7bb26ab92ac97f801245f26",
      "vout": 0,
      "prevout": {
        "scriptpubkey": "a914728b6aed677cd0952b7c729f7ac4dbeb67017db187",
        "scriptpubkey_asm": "OP_HASH160 OP_PUSHBYTES_20 728b6aed677cd0952b7c729f7ac4dbeb67017db1 OP_EQUAL",
        "scriptpubkey_type": "p2sh",
        "scriptpubkey_address": "3C8fyKgpYEMuyduSMs65iRUuezdA8AhxdD",
        "value": 6000000
      },
      "scriptsig": "16001429c804534e8653b891541773c9b2ff4270091d12",
      "scriptsig_asm": "OP_PUSHBYTES_22 001429c804534e8653b891541773c9b2ff4270091d12",
      "witness": [
        "304402204bd1447330c95cc407fb68324de80800cc77a4bbdbb935dbee07f6504b3bf6c502202e9336ebc4dcfcc77d964e9cfecdfe1e9d2136c683ff32798170758c4a478b2301",
        "02c6a24525f7bcdca164ff8c5083fd24ef70a083a45f6ce1e14856090a0f303a2c"
      ],
      "is_coinbase": false,
      "sequence": 4294967280,
      "inner_redeemscript_asm": "OP_0 OP_PUSHBYTES_20 29c804534e8653b891541773c9b2ff4270091d12"
    },
    {
      "txid": "80c24f530536ff4c6c9531bd4f2d383a822d1f80774f451e5508744f0e7ca71d",
      "vout": 1,
      "prevout": {
        "scriptpubkey": "a91420768b8fe86c04aedc42dfaeb2aca364036a2bfd87",
        "scriptpubkey_asm": "OP_HASH160 OP_PUSHBYTES_20 20768b8fe86c04aedc42dfaeb2aca364036a2bfd OP_EQUAL",
        "scriptpubkey_type": "p2sh",
        "scriptpubkey_address": "34efZLx31PTVebsZgxa6zXSdzJkCy2YdHh",
        "value": 5000000
      },
      "scriptsig": "1600149bfec820d01b8e0b523e96283805cc981d2a61a2",
      "scriptsig_asm": "OP_PUSHBYTES_22 00149bfec820d01b8e0b523e96283805cc981d2a61a2",
      "witness": [
        "304402203abbc74c8c7ac560be2d47d3c5f96a2eb09db3eb42d0a09461251b1af4ed410a02201df13ed025ffa76e0e110c4e1e9dd62b6832928e715be40e08c7dae63fa209af01",
        "03b9a276c998d3522e5acc3e86f2ffbeda2ba1bddc2345826238355c184c8dfe4f"
      ],
      "is_coinbase": false,
      "sequence": 4294967280,
      "inner_redeemscript_asm": "OP_0 OP_PUSHBYTES_20 9bfec820d01b8e0b523e96283805cc981d2a61a2"
    },
    {
      "txid": "8118540ee30f9a394d28c9a7b7f5e92f74b5bd00a41a59c7b70a7cbcbc3a9fb2",
      "vout": 0,
      "prevout": {
        "scriptpubkey": "a914641d9046b422b3eb05279b82bcacffda4b06403d87",
        "scriptpubkey_asm": "OP_HASH160 OP_PUSHBYTES_20 641d9046b422b3eb05279b82bcacffda4b06403d OP_EQUAL",
        "scriptpubkey_type": "p2sh",
        "scriptpubkey_address": "3ApNuqguXgRvzyB2vrC27CDNm1t11JDJUT",
        "value": 375000
      },
      "scriptsig": "160014089eb95c70db490fd3af27789f67492731ae7770",
      "scriptsig_asm": "OP_PUSHBYTES_22 0014089eb95c70db490fd3af27789f67492731ae7770",
      "witness": [
        "3045022100aab9a7fc6598ec3edf8b884919f11f26df5656ccbac0c391ea40c053b85396b7022036ed48d0cbf8c3995e222e53fe579d322afa85460d97920fd10056fcb0ec485401",
        "03826afdd96c8b137404a94bb823359745c26c96616bf540196ff6a6448d85784e"
      ],
      "is_coinbase": false,
      "sequence": 4294967280,
      "inner_redeemscript_asm": "OP_0 OP_PUSHBYTES_20 089eb95c70db490fd3af27789f67492731ae7770"
    }
  ],
  "vout": [
    {
      "scriptpubkey": "a914423877331b30a905240c7e1f2adee4ebaa47c5f687",
      "scriptpubkey_asm": "OP_HASH160 OP_PUSHBYTES_20 423877331b30a905240c7e1f2adee4ebaa47c5f6 OP_EQUAL",
      "scriptpubkey_type": "p2sh",
      "scriptpubkey_address": "37jAAWEdJ9D9mXybRobcveioxSkt7Lkwog",
      "value": 15897843
    }
  ],
  "size": 1759,
  "weight": 3805,
  "fee": 38120,
  "status": {
    "confirmed": true,
    "block_height": 834638,
    "block_hash": "000000000000000000025f742c626208ac87e0b7d15054abb4a19ca2d735a54e",
    "block_time": 1710405325
  },
  "hex": "0100000000010ab5830620d4a8750e0b622b5985d5057843b3b7a90b7a29c179a0fae6363058d9010000001716001487b4321b247b0bf66e60e85391c96eda67e4ec40f0ffffffce9d6462ca7e5a0c129b645f4fd55b4d7d6e2565389ac1d36eb03168362ca67145000000171600143d66bc24c6a11f27bcf2738840850b2d603235f3f0ffffff0b7fc8920404a73251a32be7d103670c7343ead8f75d7a147760d59e141db7330a00000017160014e798f7712aa17d4451d1650a7ac43da2a50319e0f0ffffff91eeda97074a9f6a8b42f95d7e24b0888bf3c9b37be456807232127a943f80d80000000017160014d0bb2f7803c35dea99b084a3d4452d4ba138e936f0ffffffd64683c829e7c2aaaa71c84fc44b96c28a1648f015c9943583871542565620f1000000001716001429bc7c67baca3e03951f661cbbf239abf174eeeaf0ffffff4c17fa8f9cd6ed55385d9b8e0a756f644ae0af16d58204064362916dd201bbec00000000171600149546b37e2a7046b33079a3160d26f7310d08f323f0fffffff7b929e3ab3f7849b05627568cb13b3aa110bbb1cbea2b52928a70bbe661bf3101000000171600140bac45bd72ce3cc4e3c0ed80a423d552308cec6af0ffffff265f2401f897ac92ab26bbb7941511cd25d046892ee2ff323458bfd1727ad14e000000001716001429c804534e8653b891541773c9b2ff4270091d12f0ffffff1da77c0e4f7408551e454f77801f2d823a382d4fbd31956c4cff3605534fc28001000000171600149bfec820d01b8e0b523e96283805cc981d2a61a2f0ffffffb29f3abcbc7c0ab7c7591aa400bdb5742fe9f5b7a7c9284d399a0fe30e5418810000000017160014089eb95c70db490fd3af27789f67492731ae7770f0ffffff01f394f2000000000017a914423877331b30a905240c7e1f2adee4ebaa47c5f68702483045022100e32fb863de722a1a51f0e5229831951960d9cf5ccd83df702f02d22df247c4fc0220716783c00fa678af8bfd0af14b43f01a6acc263a7ffe8e7cebef79195604998d0121027c325e32e78524dd41083e0f57f0ea76107e5c8a8634bd1c50e839ba5ee1cb5602473044022047a48e95a9c719d8d516f51aa04c9661d7f92165798d6603344d6be61ebcb0f802204c02c681cf85bed1105710b1496d0692ae589160487b0f8ffa5a42fa9a06852c012103aa422d79ab7deb313fa3f456956224533b265f9e8d5700e51b085fb08ba30813024830450221009769f7a5465e510da25622a3e8ac93aeeecf96bab1e38cf7cda2362071e0ab340220221bee0eee18ead828a941f25a96453398f1c65fa170ff182dd768a3abf655a6012102602565ef0a144749f2de79d81a0e51c7f877d9e205e1942a59d525839802a8560247304402204c9ae57c213f63ede46156eee196ce56588f74bcdf91f7bedc888f3a9dc49f5002206c2523dc0d7148975f5bc1b1fe64aff0318efee8b09e76d52fa2518dd504400d012103a2a3ff1d32e0382760ed8eb1bf1c4facf333a87b67c8b98f9ccb5a4aa6e34f10024730440220267f0716fbc8fc96b0f291fac53784574e2904b6e6dfe514d03b48cca06819f1022014ed20eeb1bba986accb3dbb6ba5fde62fda65c6448c7a5ef7de551ccad42415012102f103c2543e81c7a511af963d3daaa88dbd3b1d56014b1ea93d4d577dc7ef6e6d02483045022100a700c6b9faa010980d45f9d4460cf11db1be547964344608bde22441cabd30e202207642698adbf54ae719f9e35fb7198053072a1f9f3723f0b5d3d0ec07ae9961f8012103c1c335e3c32f070a01b301702b19cd6376bb5b96dc31cc0cb7b207147a624ae402483045022100b719e92c6d4363ffa5dbf043192634ed6166eb5cf5fdc719977372aacb59bf210220097fa18836b5b7f7062c52ced73249748140cc925dcfb5a1b81bc2a7c48422790121034f0662447e560aee773e7c4b3366430ec6c32b94f9dd4531c2f767e7b660d96f0247304402204bd1447330c95cc407fb68324de80800cc77a4bbdbb935dbee07f6504b3bf6c502202e9336ebc4dcfcc77d964e9cfecdfe1e9d2136c683ff32798170758c4a478b23012102c6a24525f7bcdca164ff8c5083fd24ef70a083a45f6ce1e14856090a0f303a2c0247304402203abbc74c8c7ac560be2d47d3c5f96a2eb09db3eb42d0a09461251b1af4ed410a02201df13ed025ffa76e0e110c4e1e9dd62b6832928e715be40e08c7dae63fa209af012103b9a276c998d3522e5acc3e86f2ffbeda2ba1bddc2345826238355c184c8dfe4f02483045022100aab9a7fc6598ec3edf8b884919f11f26df5656ccbac0c391ea40c053b85396b7022036ed48d0cbf8c3995e222e53fe579d322afa85460d97920fd10056fcb0ec4854012103826afdd96c8b137404a94bb823359745c26c96616bf540196ff6a6448d85784e00000000"
}