{
  "txid": "c53ba499a5026a81760def9328bdb00f2434e59be2a37800a0bcb2f178382481",
  "version": 2,
  "locktime": 539066723,
  "vin": [
    {
      "txid": "32c51deb56957be956830895ae6c513e1ee2d84dfdeed9134a053721364aee88",
      "vout": 1,
      "prevout": {
        "scriptpubkey": "002012e55c7a73e960fc9ee8a81d94a590afdc22c30b351073f0a189accd423ddcd2",
        "scriptpubkey_asm": "OP_0 OP_PUSHBYTES_32 12e55c7a73e960fc9ee8a81d94a590afdc22c30b351073f0a189accd423ddcd2",
        "scriptpubkey_type": "v0_p2wsh",
        "scriptpubkey_address": "bc1qztj4c7nna9s0e8hg4qweffvs4lwz9sctx5g88u9p3xkv6s3amnfq6rp9sa",
        "value": 2000000
      },
      "scriptsig": "",
      "scriptsig_asm": "",
      "witness": [
        "",
        "304402202d6be9c481b32b2ef3f049b0f76d76eb7fac536c44a190cad151a413d6290b5a022039e3f8c00927734bc82bbc19c7a8ab09104acf7b46af4432a9004e46d529825f01",
        "3044022027209f7add73712c186865b4c6a52e53597446dc33865fb3c3f27d479a2ca804022017287d2d21d8c5da7323250926a451ad902e1b420f4907487c44ec52a499530501",
        "5221028645c70c2be8eba57981ef39827f54e765e182a5a57740910b398bb4401f838c210334a940ee3fbee96a1a598ac47baa30dd9c18534d25b0aa4a11ab6257fcb3082352ae"
      ],
      "is_coinbase": false,
      "sequence": 2157292952,
      "inner_witnessscript_asm": "OP_PUSHNUM_2 OP_PUSHBYTES_33 028645c70c2be8eba57981ef39827f54e765e182a5a57740910b398bb4401f838c OP_PUSHBYTES_33 0334a940ee3fbee96a1a598ac47baa30dd9c18534d25b0aa4a11ab6257fcb30823 OP_PUSHNUM_2 OP_CHECKMULTISIG"
    }
  ],
  "vout": [
    {
      "scriptpubkey": "00202000ed4543c4cf18ae0b2f3cf368509c3520919e992f7f836456f1abc2bf15e3",
      "scriptpubkey_asm": "OP_0 OP_PUSHBYTES_32 2000ed4543c4cf18ae0b2f3cf368509c3520919e992f7f836456f1abc2bf15e3",
      "scriptpubkey_type": "v0_p2wsh",
      "scriptpubkey_address": "bc1qyqqw632rcn833tst9u70x6zsns6jpyv7nyhhlqmy2mc6hs4lzh3smkpvcx",
      "value": 330
    },
    {
      "scriptpubkey": "0020570fd7d05d800a85aad452dfa631275bf7f53697b83a8a0606eef3befeee688d",
      "scriptpubkey_asm": "OP_0 OP_PUSHBYTES_32 570fd7d05d800a85aad452dfa631275bf7f53697b83a8a0606eef3befeee688d",
      "scriptpubkey_type": "v0_p2wsh",
      "scriptpubkey_address": "bc1q2u8a05zasq9gt2k52t06vvf8t0ml2d5hhqag5psxamemalhwdzxszgrfhc",
      "value": 330
    },
    {
      "scriptpubkey": "00208855fabc5c6e996869ecf96a0774c3212157cf508db60057ea9ef07043ddd34b",
      "scriptpubkey_asm": "OP_0 OP_PUSHBYTES_32 8855fabc5c6e996869ecf96a0774c3212157cf508db60057ea9ef07043ddd34b",
      "scriptpubkey_type": "v0_p2wsh",
      "scriptpubkey_address": "bc1q3p2l40zud6vks60vl94qwaxryys40n6s3kmqq4l2nmc8qs7a6d9s5wyu08",
      "value": 20753
    },
    {
      "scriptpubkey": "002078ba171b6e520ce21046f10bbfec92462460d0c2f4bf7df2a5ac4d16f5122c1c",
      "scriptpubkey_asm": "OP_0 OP_PUSHBYTES_32 78ba171b6e520ce21046f10bbfec92462460d0c2f4bf7df2a5ac4d16f5122c1c",
      "scriptpubkey_type": "v0_p2wsh",
      "scriptpubkey_address": "bc1q0zapwxmw2gxwyyzx7y9mlmyjgcjxp5xz7jlhmu4943x3dagj9swqzqs335",
      "value": 1975590
    }
  ],
  "size": 443,
  "weight": 1112,
  "fee": 2997,
  "status": {
    "confirmed": true,
    "block_height": 834464,
    "block_hash": "0000000000000000000177a0869a911a2b65c9bdcd5a8bcb02b68f305bee848e",
    "block_time": 1710308296
  },
  "hex": "0200000000010188ee4a362137054a13d9eefd4dd8e21e3e516cae95088356e97b9556eb1dc532010000000098ad9580044a010000000000002200202000ed4543c4cf18ae0b2f3cf368509c3520919e992f7f836456f1abc2bf15e34a01000000000000220020570fd7d05d800a85aad452dfa631275bf7f53697b83a8a0606eef3befeee688d11510000000000002200208855fabc5c6e996869ecf96a0774c3212157cf508db60057ea9ef07043ddd34b26251e000000000022002078ba171b6e520ce21046f10bbfec92462460d0c2f4bf7df2a5ac4d16f5122c1c040047304402202d6be9c481b32b2ef3f049b0f76d76eb7fac536c44a190cad151a413d6290b5a022039e3f8c00927734bc82bbc19c7a8ab09104acf7b46af4432a9004e46d529825f01473044022027209f7add73712c186865b4c6a52e53597446dc33865fb3c3f27d479a2ca804022017287d2d21d8c5da7323250926a451ad902e1b420f4907487c44ec52a499530501475221028645c70c2be8eba57981ef39827f54e765e182a5a57740910b398bb4401f838c210334a940ee3fbee96a1a598ac47baa30dd9c18534d25b0aa4a11ab6257fcb3082352ae63812120"
}