{
  "txid": "c547aecb53ca27ca12a95eeb4790d33c987ec205f55a8640e297e0cbaa63cddd",
  "version": 1,
  "locktime": 0,
  "vin": [
    {
      "txid": "087109fada083ca780064ced960ccd7f3763d5f668b0588f2ea13b905ac684e3",
      "vout": 0,
      "prevout": {
        "scriptpubkey": "0014e3effed996be97e831720848b86c87850ea70ef6",
        "scriptpubkey_asm": "OP_0 OP_PUSHBYTES_20 e3effed996be97e831720848b86c87850ea70ef6",
        "scriptpubkey_type": "v0_p2wpkh",
        "scriptpubkey_address": "bc1qu0hlakvkh6t7svtjppytsmy8s582wrhkz4xj5c",
        "value": 45379940
      },
      "scriptsig": "",
      "scriptsig_asm": "",
      "witness": [
        "304402207dfab637862b33fed2e5d157749cb1a105b8bbd2b0aec201f3b70a59255a053002202d0fc5633ce8a71f3febec5c143647b60c7eeb5ea585392cc822405f87f704ed01",
        "027df04fb3b8add30db4e6fd0c56e9c6571296d5883c8e747b4e05e6a91b97c596"
      ],
      "is_coinbase": false,
      "sequence": 4294967295
    }
  ],
  "vout": [
    {
      "scriptpubkey": "0014853df49a394eaa37c5ce1fde9198d48d26195ace",
      "scriptpubkey_asm": "OP_0 OP_PUSHBYTES_20 853df49a394eaa37c5ce1fde9198d48d26195ace",
      "scriptpubkey_type": "v0_p2wpkh",
      "scriptpubkey_address": "bc1qs57lfx3ef64r03wwrl0frxx535npjkkway9csd",
      "value": 295740
    },
    {
      "scriptpubkey": "0014e07e6970f04ed9b4710b62c78dc8b744770bc9bc",
      "scriptpubkey_asm": "OP_0 OP_PUSHBYTES_20 e07e6970f04ed9b4710b62c78dc8b744770bc9bc",
      "scriptpubkey_type": "v0_p2wpkh",
      "scriptpubkey_address": "bc1quplxju8sfmvmgugtvtrcmj9hg3mshjduag60hq",
      "value": 44553064
    },
    {
      "scriptpubkey": "001409e5b10fa277c74af25c16688fde1e3ec4ba040e",
      "scriptpubkey_asm": "OP_0 OP_PUSHBYTES_20 09e5b10fa277c74af25c16688fde1e3ec4ba040e",
      "scriptpubkey_type": "v0_p2wpkh",
      "scriptpubkey_address": "bc1qp8jmzrazwlr54ujuze5glhs78mzt5pqwrvfupv",
      "value": 14196
    },
    {
      "scriptpubkey": "0014712baa0f574b54930248f4ed0d28a8282f10e531",
      "scriptpubkey_asm": "OP_0 OP_PUSHBYTES_20 712baa0f574b54930248f4ed0d28a8282f10e531",
      "scriptpubkey_type": "v0_p2wpkh",
      "scriptpubkey_address": "bc1qwy465r6hfd2fxqjg7nks629g9qh3pef3q9n3x4",
      "value": 355727
    },
    {
      "scriptpubkey": "00147b9cd4d174d7e04855850614a4068cc0d1f4885f",
      "scriptpubkey_asm": "OP_0 OP_PUSHBYTES_20 7b9cd4d174d7e04855850614a4068cc0d1f4885f",
      "scriptpubkey_type": "v0_p2wpkh",
      "scriptpubkey_address": "bc1q0wwdf5t56lsys4v9qc22gp5vcrglfzzlwape9k",
      "value": 158405
    }
  ],
  "size": 315,
  "weight": 933,
  "fee": 2808,
  "status": {
    "confirmed": true,
    "block_height": 834460,
    "block_hash": "00000000000000000000484a79b643b2524bbce82e5d8a442013fa5b8905ed98",
    "block_time": 1710307468
  },
  "hex": "01000000000101e384c65a903ba12e8f58b068f6d563377fcd0c96ed4c0680a73c08dafa0971080000000000ffffffff053c83040000000000160014853df49a394eaa37c5ce1fde9198d48d26195ace68d3a70200000000160014e07e6970f04ed9b4710b62c78dc8b744770bc9bc743700000000000016001409e5b10fa277c74af25c16688fde1e3ec4ba040e8f6d050000000000160014712baa0f574b54930248f4ed0d28a8282f10e531c56a0200000000001600147b9cd4d174d7e04855850614a4068cc0d1f4885f0247304402207dfab637862b33fed2e5d157749cb1a105b8bbd2b0aec201f3b70a59255a053002202d0fc5633ce8a71f3febec5c143647b60c7eeb5ea585392cc822405f87f704ed0121027df04fb3b8add30db4e6fd0c56e9c6571296d5883c8e747b4e05e6a91b97c59600000000"
}