{
  "txid": "c55d13bd120f0d981e9ec0f71bacefef1f04c781ad535db3b299802291cb1c4f",
  "version": 2,
  "locktime": 0,
  "vin": [
    {
      "txid": "4ac12fd7a91a336864cfd5f2d68b03cbf587be1f2c0d799d0d95fec2b4896cda",
      "vout": 0,
      "prevout": {
        "scriptpubkey": "51204b5b10fd8a97bb0136c579686f913efeb850eca3e3b48339ce649d22d1f10b42",
        "scriptpubkey_asm": "OP_PUSHNUM_1 OP_PUSHBYTES_32 4b5b10fd8a97bb0136c579686f913efeb850eca3e3b48339ce649d22d1f10b42",
        "scriptpubkey_type": "v1_p2tr",
        "scriptpubkey_address": "bc1pfdd3plv2j7aszdk9095xlyf7l6u9pm9ruw6gxwwwvjwj9503pdpqg7ktu3",
        "value": 18000
      },
      "scriptsig": "",
      "scriptsig_asm": "",
      "witness": [
        "e7cb7bf6a5847b48a58a85813008bf280b482d018e0c2a76e17b6a6b46c21c4a8c6f68c5f333442cc068e70c8579147631ca6587e32789e692249a536d22c5bc",
        "2007624481c4ab22d41cf5e0016915b532824d0ac00598f97f2ac8ab8dcd5049b6ac0063036f726401011e6170706c69636174696f6e2f6a736f6e3b636861727365743d7574662d38004cd37b2270223a22706f772d3230222c226f70223a226d696e74222c227469636b223a2250455045222c22616d74223a2231303030222c22736f6c7574696f6e223a22504550453a626331706b79306a6d686471683675343061616b6e353376673936387a3533396379383879633261386b78656d6e703832786c76633336736763773777653a303030303030303030303030303030303030303139393431613561653132383937363539383134343239323533333030353762306461393666336465613163353a3235353133323236383139227d68",
        "c153c416cf7a0a7bfeca3887b8d7742e19b7125829738fef977e775c0a6289d195"
      ],
      "is_coinbase": false,
      "sequence": 4294967293
    }
  ],
  "vout": [
    {
      "scriptpubkey": "5120b11f2ddda0beb957f7b69d22c4174715225c10e72615d3d8d9dcc2751becc475",
      "scriptpubkey_asm": "OP_PUSHNUM_1 OP_PUSHBYTES_32 b11f2ddda0beb957f7b69d22c4174715225c10e72615d3d8d9dcc2751becc475",
      "scriptpubkey_type": "v1_p2tr",
      "scriptpubkey_address": "bc1pky0jmhdqh6u40aakn53vg968z539cy88yc2a8kxemnp82xlvc36sgcw7we",
      "value": 546
    },
    {
      "scriptpubkey": "51206e149daa067bd7f6d28859b58c8c30d6085a3545d7eecb8ac1f12867b609de8d",
      "scriptpubkey_asm": "OP_PUSHNUM_1 OP_PUSHBYTES_32 6e149daa067bd7f6d28859b58c8c30d6085a3545d7eecb8ac1f12867b609de8d",
      "scriptpubkey_type": "v1_p2tr",
      "scriptpubkey_address": "bc1pdc2fm2sx00tld55gtx6cerps6cy95d296lhvhzkp7y5x0dsfm6xsk5vl2x",
      "value": 3441
    },
    {
      "scriptpubkey": "512029342bcb78c7145dd84898d21cee79d8eba0b40b76154822041947a75c712b24",
      "scriptpubkey_asm": "OP_PUSHNUM_1 OP_PUSHBYTES_32 29342bcb78c7145dd84898d21cee79d8eba0b40b76154822041947a75c712b24",
      "scriptpubkey_type": "v1_p2tr",
      "scriptpubkey_address": "bc1p9y6zhjmccu29mkzgnrfpemnemr46pdqtwc25sgsyr9r6whr39vjqa5xxey",
      "value": 3441
    },
    {
      "scriptpubkey": "00149e692702d7b1afd57c59987e9dbea0b5ee756c63",
      "scriptpubkey_asm": "OP_0 OP_PUSHBYTES_20 9e692702d7b1afd57c59987e9dbea0b5ee756c63",
      "scriptpubkey_type": "v0_p2wpkh",
      "scriptpubkey_address": "bc1qne5jwqkhkxha2lzenplfm04qkhh82mrrkgy9q0",
      "value": 5922
    }
  ],
  "size": 604,
  "weight": 1237,
  "fee": 4650,
  "status": {
    "confirmed": true,
    "block_height": 834460,
    "block_hash": "00000000000000000000484a79b643b2524bbce82e5d8a442013fa5b8905ed98",
    "block_time": 1710307468
  },
  "hex": "02000000000101da6c89b4c2fe950d9d790d2c1fbe87f5cb038bd6f2d5cf6468331aa9d72fc14a0000000000fdffffff042202000000000000225120b11f2ddda0beb957f7b69d22c4174715225c10e72615d3d8d9dcc2751becc475710d0000000000002251206e149daa067bd7f6d28859b58c8c30d6085a3545d7eecb8ac1f12867b609de8d710d00000000000022512029342bcb78c7145dd84898d21cee79d8eba0b40b76154822041947a75c712b2422170000000000001600149e692702d7b1afd57c59987e9dbea0b5ee756c630340e7cb7bf6a5847b48a58a85813008bf280b482d018e0c2a76e17b6a6b46c21c4a8c6f68c5f333442cc068e70c8579147631ca6587e32789e692249a536d22c5bcfd20012007624481c4ab22d41cf5e0016915b532824d0ac00598f97f2ac8ab8dcd5049b6ac0063036f726401011e6170706c69636174696f6e2f6a736f6e3b636861727365743d7574662d38004cd37b2270223a22706f772d3230222c226f70223a226d696e74222c227469636b223a2250455045222c22616d74223a2231303030222c22736f6c7574696f6e223a22504550453a626331706b79306a6d686471683675343061616b6e353376673936387a3533396379383879633261386b78656d6e703832786c76633336736763773777653a303030303030303030303030303030303030303139393431613561653132383937363539383134343239323533333030353762306461393666336465613163353a3235353133323236383139227d6821c153c416cf7a0a7bfeca3887b8d7742e19b7125829738fef977e775c0a6289d19500000000"
}