{
  "txid": "c5669973b90ccb72526f6b9d684bc409ac373af08cbd2799a9a645a742bd746b",
  "version": 2,
  "locktime": 0,
  "vin": [
    {
      "txid": "acc3ba00869acb582a3f2904ce3a11dd3779350ce234063fc7d0959246213364",
      "vout": 29,
      "prevout": {
        "scriptpubkey": "5120deb8f130c06daacb5c433caf63edbf8755a49ce16d55263f648f47ee118958a5",
        "scriptpubkey_asm": "OP_PUSHNUM_1 OP_PUSHBYTES_32 deb8f130c06daacb5c433caf63edbf8755a49ce16d55263f648f47ee118958a5",
        "scriptpubkey_type": "v1_p2tr",
        "scriptpubkey_address": "bc1pm6u0zvxqdk4vkhzr8jhk8mdlsa26f88pd42jv0my3ar7uyvftzjssk7uln",
        "value": 1806
      },
      "scriptsig": "",
      "scriptsig_asm": "",
      "witness": [
        "a2f24eb493be17302e089146d759ca8cb0be931a9ab70be58a9cd0dc5d4a9b2ff64b317b93fae3575d8af4a2efece3e3302702044618bd4829997a45bc8be54d",
        "201a3e441133165463a954fd3405df0a268d17b486729c94c84194a3d46eac2047ac0063036f726401010a746578742f706c61696e00357b2270223a226272632d3230222c226f70223a226d696e74222c227469636b223a22646f6765222c22616d74223a2234323030227d68",
        "c11a3e441133165463a954fd3405df0a268d17b486729c94c84194a3d46eac2047"
      ],
      "is_coinbase": false,
      "sequence": 4261412863
    }
  ],
  "vout": [
    {
      "scriptpubkey": "00147a665de7a370f4c9b372ab1fae587500a5bcbdb4",
      "scriptpubkey_asm": "OP_0 OP_PUSHBYTES_20 7a665de7a370f4c9b372ab1fae587500a5bcbdb4",
      "scriptpubkey_type": "v0_p2wpkh",
      "scriptpubkey_address": "bc1q0fn9mearwr6vnvmj4v06ukr4qzjme0d565dzcx",
      "value": 294
    }
  ],
  "size": 294,
  "weight": 540,
  "fee": 1512,
  "status": {
    "confirmed": true,
    "block_height": 834460,
    "block_hash": "00000000000000000000484a79b643b2524bbce82e5d8a442013fa5b8905ed98",
    "block_time": 1710307468
  },
  "hex": "02000000000101643321469295d0c73f0634e20c357937dd113ace04293f2a58cb9a8600bac3ac1d00000000fffffffd0126010000000000001600147a665de7a370f4c9b372ab1fae587500a5bcbdb40340a2f24eb493be17302e089146d759ca8cb0be931a9ab70be58a9cd0dc5d4a9b2ff64b317b93fae3575d8af4a2efece3e3302702044618bd4829997a45bc8be54d6d201a3e441133165463a954fd3405df0a268d17b486729c94c84194a3d46eac2047ac0063036f726401010a746578742f706c61696e00357b2270223a226272632d3230222c226f70223a226d696e74222c227469636b223a22646f6765222c22616d74223a2234323030227d6821c11a3e441133165463a954fd3405df0a268d17b486729c94c84194a3d46eac204700000000"
}