{
  "txid": "c56ca3d8ca8652fdd942d03e06758f3fbdefca6f9b961d313e4acd3a7a83659f",
  "version": 2,
  "locktime": 834637,
  "vin": [
    {
      "txid": "839a16efbd1000474b1ac010131d8b6071925567749d1acf20294de66b54d708",
      "vout": 13,
      "prevout": {
        "scriptpubkey": "0014980e0ceaa2093a1871bd3d55b6a9a0796de2b651",
        "scriptpubkey_asm": "OP_0 OP_PUSHBYTES_20 980e0ceaa2093a1871bd3d55b6a9a0796de2b651",
        "scriptpubkey_type": "v0_p2wpkh",
        "scriptpubkey_address": "bc1qnq8qe64zpyapsuda842md2dq09k79dj3ll9m4r",
        "value": 229205
      },
      "scriptsig": "",
      "scriptsig_asm": "",
      "witness": [
        "3044022005bdaed13b6cae9ab3949c17869c6227364b9f6ffcfa6e3d6406d721802f172302203feb324294136facaece98efc6858e99e1d60052f8ed5e777719eee2a623b91b01",
        "0353f5abb4ca715a15df9ce9f682027d8dd7d15fbfdc2ec97a0c80645e6d75c2d2"
      ],
      "is_coinbase": false,
      "sequence": 4294967293
    }
  ],
  "vout": [
    {
      "scriptpubkey": "0014c43e5e836069373d88afa19ca252b4b7481dae2c",
      "scriptpubkey_asm": "OP_0 OP_PUSHBYTES_20 c43e5e836069373d88afa19ca252b4b7481dae2c",
      "scriptpubkey_type": "v0_p2wpkh",
      "scriptpubkey_address": "bc1qcsl9aqmqdymnmz905xw2y545kaypmt3v0wexfz",
      "value": 227538
    }
  ],
  "size": 191,
  "weight": 437,
  "fee": 1667,
  "status": {
    "confirmed": true,
    "block_height": 834638,
    "block_hash": "000000000000000000025f742c626208ac87e0b7d15054abb4a19ca2d735a54e",
    "block_time": 1710405325
  },
  "hex": "0200000000010108d7546be64d2920cf1a9d7467559271608b1d1310c01a4b470010bdef169a830d00000000fdffffff01d278030000000000160014c43e5e836069373d88afa19ca252b4b7481dae2c02473044022005bdaed13b6cae9ab3949c17869c6227364b9f6ffcfa6e3d6406d721802f172302203feb324294136facaece98efc6858e99e1d60052f8ed5e777719eee2a623b91b01210353f5abb4ca715a15df9ce9f682027d8dd7d15fbfdc2ec97a0c80645e6d75c2d24dbc0c00"
}