{
  "txid": "c587bf02524cd4a5dd529f855ee41192501255fa80f1073e044d678ec8865ed4",
  "version": 1,
  "locktime": 0,
  "vin": [
    {
      "txid": "71a8c4646c69ce44b8b0205c43aaeb8fae9af2996459500cbaab59c2cfbc9db7",
      "vout": 0,
      "prevout": {
        "scriptpubkey": "001426bb26c4d44249264e145a21f56903cee58822d9",
        "scriptpubkey_asm": "OP_0 OP_PUSHBYTES_20 26bb26c4d44249264e145a21f56903cee58822d9",
        "scriptpubkey_type": "v0_p2wpkh",
        "scriptpubkey_address": "bc1qy6ajd3x5gfyjvns5tgsl26gremjcsgke6qvzsh",
        "value": 1297950
      },
      "scriptsig": "",
      "scriptsig_asm": "",
      "witness": [
        "3045022100c625bef4aff3755e6c9c020b377b43e09bbb5f1e7a5911e38306f2f5c4091198022045335afa5c15be11615726b20054ff1109668ee5254c178f18d1df0bdd846b1d01",
        "037d5df1726c19d48c4a63c8cb272e66150749a695b76bf8822b6c06aed9c1b263"
      ],
      "is_coinbase": false,
      "sequence": 4294967295
    }
  ],
  "vout": [
    {
      "scriptpubkey": "a9144457c5244882e64a24ca5eae26bf6a579319f46487",
      "scriptpubkey_asm": "OP_HASH160 OP_PUSHBYTES_20 4457c5244882e64a24ca5eae26bf6a579319f464 OP_EQUAL",
      "scriptpubkey_type": "p2sh",
      "scriptpubkey_address": "37vP1xfpVkfkzkMQArrj7sPAU3anDjTsyq",
      "value": 136003
    },
    {
      "scriptpubkey": "001426bb26c4d44249264e145a21f56903cee58822d9",
      "scriptpubkey_asm": "OP_0 OP_PUSHBYTES_20 26bb26c4d44249264e145a21f56903cee58822d9",
      "scriptpubkey_type": "v0_p2wpkh",
      "scriptpubkey_address": "bc1qy6ajd3x5gfyjvns5tgsl26gremjcsgke6qvzsh",
      "value": 1158113
    }
  ],
  "size": 224,
  "weight": 566,
  "fee": 3834,
  "status": {
    "confirmed": true,
    "block_height": 834638,
    "block_hash": "000000000000000000025f742c626208ac87e0b7d15054abb4a19ca2d735a54e",
    "block_time": 1710405325
  },
  "hex": "01000000000101b79dbccfc259abba0c50596499f29aae8febaa435c20b0b844ce696c64c4a8710000000000ffffffff02431302000000000017a9144457c5244882e64a24ca5eae26bf6a579319f46487e1ab11000000000016001426bb26c4d44249264e145a21f56903cee58822d902483045022100c625bef4aff3755e6c9c020b377b43e09bbb5f1e7a5911e38306f2f5c4091198022045335afa5c15be11615726b20054ff1109668ee5254c178f18d1df0bdd846b1d0121037d5df1726c19d48c4a63c8cb272e66150749a695b76bf8822b6c06aed9c1b26300000000"
}