{
  "txid": "c58bff0930fc3afd25967b428d7d2882af9bb221ef6426fb02067482d6844474",
  "version": 2,
  "locktime": 0,
  "vin": [
    {
      "txid": "b3fd643965262ef04dfd711227d4c929a510ad8e85c2a8ce65f0dc6365455bb2",
      "vout": 0,
      "prevout": {
        "scriptpubkey": "a914c3fcfb52931e708425b08a825d83335e0404fbb487",
        "scriptpubkey_asm": "OP_HASH160 OP_PUSHBYTES_20 c3fcfb52931e708425b08a825d83335e0404fbb4 OP_EQUAL",
        "scriptpubkey_type": "p2sh",
        "scriptpubkey_address": "3KZJkRrbTVTY8LtkPfshne5hXGk8ahfB3K",
        "value": 121221
      },
      "scriptsig": "160014231e3d61fbc478975ff5d4044277812296dd5f74",
      "scriptsig_asm": "OP_PUSHBYTES_22 0014231e3d61fbc478975ff5d4044277812296dd5f74",
      "witness": [
        "3044022063a80c42b063bf9fcaf6e5ec45f670c86a34502c8aa20a316a76fc12728df0b502207eb08a2f4ce1e8e821b7551d1ec75188c1a744ddd1b36eaf5903fb1a99e37b3901",
        "03fe71022a83085047048622bb36d806136675ed9abddaa36547c73d838852474f"
      ],
      "is_coinbase": false,
      "sequence": 4294967295,
      "inner_redeemscript_asm": "OP_0 OP_PUSHBYTES_20 231e3d61fbc478975ff5d4044277812296dd5f74"
    }
  ],
  "vout": [
    {
      "scriptpubkey": "001474cdea9c04133513aebe150cbec90e9b419e0807",
      "scriptpubkey_asm": "OP_0 OP_PUSHBYTES_20 74cdea9c04133513aebe150cbec90e9b419e0807",
      "scriptpubkey_type": "v0_p2wpkh",
      "scriptpubkey_address": "bc1qwnx748qyzv638t47z5xtajgwndqeuzq8cds0jq",
      "value": 80476
    },
    {
      "scriptpubkey": "00142b034e880fe46d2510eedf78f1af8fead46f16da",
      "scriptpubkey_asm": "OP_0 OP_PUSHBYTES_20 2b034e880fe46d2510eedf78f1af8fead46f16da",
      "scriptpubkey_type": "v0_p2wpkh",
      "scriptpubkey_address": "bc1q9vp5azq0u3kj2y8wmau0rtu0at2x79k67wa90t",
      "value": 29432
    },
    {
      "scriptpubkey": "a914387d787b1b77de6718f5fd31e450404abc0bef0587",
      "scriptpubkey_asm": "OP_HASH160 OP_PUSHBYTES_20 387d787b1b77de6718f5fd31e450404abc0bef05 OP_EQUAL",
      "scriptpubkey_type": "p2sh",
      "scriptpubkey_address": "36qi58ygsBbqPGkmSUryR47YF6UhSwhYfw",
      "value": 5931
    }
  ],
  "size": 277,
  "weight": 781,
  "fee": 5382,
  "status": {
    "confirmed": true,
    "block_height": 834638,
    "block_hash": "000000000000000000025f742c626208ac87e0b7d15054abb4a19ca2d735a54e",
    "block_time": 1710405325
  },
  "hex": "02000000000101b25b456563dcf065cea8c2858ead10a529c9d4271271fd4df02e26653964fdb30000000017160014231e3d61fbc478975ff5d4044277812296dd5f74ffffffff035c3a01000000000016001474cdea9c04133513aebe150cbec90e9b419e0807f8720000000000001600142b034e880fe46d2510eedf78f1af8fead46f16da2b1700000000000017a914387d787b1b77de6718f5fd31e450404abc0bef058702473044022063a80c42b063bf9fcaf6e5ec45f670c86a34502c8aa20a316a76fc12728df0b502207eb08a2f4ce1e8e821b7551d1ec75188c1a744ddd1b36eaf5903fb1a99e37b39012103fe71022a83085047048622bb36d806136675ed9abddaa36547c73d838852474f00000000"
}