{
  "txid": "c590c942c3200e9f59a0c9dbd88289269a1b225be2ee7f0c005afc568fe6f4b4",
  "version": 2,
  "locktime": 0,
  "vin": [
    {
      "txid": "003e39cf3fa6fe5d3520c38b7c09c935b0b2e08f3658ab627b0f61bfe61d0198",
      "vout": 1,
      "prevout": {
        "scriptpubkey": "00141479ec3d3df3c30b158ce5e2cbc94232183c1e77",
        "scriptpubkey_asm": "OP_0 OP_PUSHBYTES_20 1479ec3d3df3c30b158ce5e2cbc94232183c1e77",
        "scriptpubkey_type": "v0_p2wpkh",
        "scriptpubkey_address": "bc1qz3u7c0fa70psk9vvuh3vhj2zxgvrc8nhr4ls8w",
        "value": 23235
      },
      "scriptsig": "",
      "scriptsig_asm": "",
      "witness": [
        "304402203470774b13456e2e40fb5e493c1426de16339de3a163a632f3793499a527bb830220452b2712fbcab7912b032535bb3c0986289edad47daff58a9bdd0d82f083347701",
        "02211e5b2efc80840f3f2b5afcd44df958ae70b0e6cd14234186e47b179d94b976"
      ],
      "is_coinbase": false,
      "sequence": 4294967293
    }
  ],
  "vout": [
    {
      "scriptpubkey": "76a914f24646acd895a3c1d307fccc804b9ae95447d5d988ac",
      "scriptpubkey_asm": "OP_DUP OP_HASH160 OP_PUSHBYTES_20 f24646acd895a3c1d307fccc804b9ae95447d5d9 OP_EQUALVERIFY OP_CHECKSIG",
      "scriptpubkey_type": "p2pkh",
      "scriptpubkey_address": "1P62iHqQAAsuwbGK2yKMj84N3EWSbMBzXw",
      "value": 19732
    }
  ],
  "size": 194,
  "weight": 449,
  "fee": 3503,
  "status": {
    "confirmed": true,
    "block_height": 834638,
    "block_hash": "000000000000000000025f742c626208ac87e0b7d15054abb4a19ca2d735a54e",
    "block_time": 1710405325
  },
  "hex": "0200000000010198011de6bf610f7b62ab58368fe0b2b035c9097c8bc320355dfea63fcf393e000100000000fdffffff01144d0000000000001976a914f24646acd895a3c1d307fccc804b9ae95447d5d988ac0247304402203470774b13456e2e40fb5e493c1426de16339de3a163a632f3793499a527bb830220452b2712fbcab7912b032535bb3c0986289edad47daff58a9bdd0d82f0833477012102211e5b2efc80840f3f2b5afcd44df958ae70b0e6cd14234186e47b179d94b97600000000"
}