{
  "txid": "c5927770b7704c09100a47dfe7601886cfe749e2a0efb751c809fde69a7e6bad",
  "version": 2,
  "locktime": 834633,
  "vin": [
    {
      "txid": "76597b09e714d9cc348970ecc0f860d180c37c471f2b8310f57ab98b1e93c746",
      "vout": 16,
      "prevout": {
        "scriptpubkey": "76a914e0cb8b32dba9af2c32213d5ace261d411c7a67bd88ac",
        "scriptpubkey_asm": "OP_DUP OP_HASH160 OP_PUSHBYTES_20 e0cb8b32dba9af2c32213d5ace261d411c7a67bd OP_EQUALVERIFY OP_CHECKSIG",
        "scriptpubkey_type": "p2pkh",
        "scriptpubkey_address": "1MVcCSNCRQ1eRDtMAqrTaeyVLqV8jfyNgz",
        "value": 580000
      },
      "scriptsig": "47304402201a8e21407c205575c309b98cecd179cac4d669df6487170f5bf78daf3172eb7002207b803875ac6a8035ee1f8f56c90ff973fab43bc7b1b4ae9cfffdc90d991999c4012102fda04742ee082fc85e4abe587b573ffdc9d191a671e3ec960d713399af3aec64",
      "scriptsig_asm": "OP_PUSHBYTES_71 304402201a8e21407c205575c309b98cecd179cac4d669df6487170f5bf78daf3172eb7002207b803875ac6a8035ee1f8f56c90ff973fab43bc7b1b4ae9cfffdc90d991999c401 OP_PUSHBYTES_33 02fda04742ee082fc85e4abe587b573ffdc9d191a671e3ec960d713399af3aec64",
      "is_coinbase": false,
      "sequence": 4294967294
    }
  ],
  "vout": [
    {
      "scriptpubkey": "76a914e0cb8b32dba9af2c32213d5ace261d411c7a67bd88ac",
      "scriptpubkey_asm": "OP_DUP OP_HASH160 OP_PUSHBYTES_20 e0cb8b32dba9af2c32213d5ace261d411c7a67bd OP_EQUALVERIFY OP_CHECKSIG",
      "scriptpubkey_type": "p2pkh",
      "scriptpubkey_address": "1MVcCSNCRQ1eRDtMAqrTaeyVLqV8jfyNgz",
      "value": 576352
    }
  ],
  "size": 191,
  "weight": 764,
  "fee": 3648,
  "status": {
    "confirmed": true,
    "block_height": 834638,
    "block_hash": "000000000000000000025f742c626208ac87e0b7d15054abb4a19ca2d735a54e",
    "block_time": 1710405325
  },
  "hex": "020000000146c7931e8bb97af510832b1f477cc380d160f8c0ec708934ccd914e7097b5976100000006a47304402201a8e21407c205575c309b98cecd179cac4d669df6487170f5bf78daf3172eb7002207b803875ac6a8035ee1f8f56c90ff973fab43bc7b1b4ae9cfffdc90d991999c4012102fda04742ee082fc85e4abe587b573ffdc9d191a671e3ec960d713399af3aec64feffffff0160cb0800000000001976a914e0cb8b32dba9af2c32213d5ace261d411c7a67bd88ac49bc0c00"
}