{
  "txid": "c59c09f01974c399ed6948943cc3445530c972ca51031e8b8f0fb1ef3b987156",
  "version": 1,
  "locktime": 0,
  "vin": [
    {
      "txid": "b2d4a65a267eb5ffbb0d3560eb736e475b3ed1c6282da3f228a0f616ecba3aac",
      "vout": 1,
      "prevout": {
        "scriptpubkey": "0014dbd17d0aa0d3f7e071ed461f026c8367249ad881",
        "scriptpubkey_asm": "OP_0 OP_PUSHBYTES_20 dbd17d0aa0d3f7e071ed461f026c8367249ad881",
        "scriptpubkey_type": "v0_p2wpkh",
        "scriptpubkey_address": "bc1qm0gh6z4q60m7qu0dgc0symyrvujf4kyp4dq4gq",
        "value": 241175
      },
      "scriptsig": "",
      "scriptsig_asm": "",
      "witness": [
        "30440220512fbffadce875dacafcf0f48aaf60fadaa18d5ac009b7a691f4d4b74cd776490220687fb3caa622fd6747513e30049034a55afef8c80bcf396f14e3bb88c4b1270101",
        "031b57805bd755391379a3403af0890d36fbe0147a8b4fa94b30b7d7cfe321bbd8"
      ],
      "is_coinbase": false,
      "sequence": 4294967295
    }
  ],
  "vout": [
    {
      "scriptpubkey": "a9143a93b00e84b3cf87364203058548de0462a0439287",
      "scriptpubkey_asm": "OP_HASH160 OP_PUSHBYTES_20 3a93b00e84b3cf87364203058548de0462a04392 OP_EQUAL",
      "scriptpubkey_type": "p2sh",
      "scriptpubkey_address": "372k3C8X54WK7T6LriXeo9mAPghrHZ6iBr",
      "value": 206014
    },
    {
      "scriptpubkey": "0014dbd17d0aa0d3f7e071ed461f026c8367249ad881",
      "scriptpubkey_asm": "OP_0 OP_PUSHBYTES_20 dbd17d0aa0d3f7e071ed461f026c8367249ad881",
      "scriptpubkey_type": "v0_p2wpkh",
      "scriptpubkey_address": "bc1qm0gh6z4q60m7qu0dgc0symyrvujf4kyp4dq4gq",
      "value": 31327
    }
  ],
  "size": 223,
  "weight": 565,
  "fee": 3834,
  "status": {
    "confirmed": true,
    "block_height": 834638,
    "block_hash": "000000000000000000025f742c626208ac87e0b7d15054abb4a19ca2d735a54e",
    "block_time": 1710405325
  },
  "hex": "01000000000101ac3abaec16f6a028f2a32d28c6d13e5b476e73eb60350dbbffb57e265aa6d4b20100000000ffffffff02be2403000000000017a9143a93b00e84b3cf87364203058548de0462a04392875f7a000000000000160014dbd17d0aa0d3f7e071ed461f026c8367249ad881024730440220512fbffadce875dacafcf0f48aaf60fadaa18d5ac009b7a691f4d4b74cd776490220687fb3caa622fd6747513e30049034a55afef8c80bcf396f14e3bb88c4b127010121031b57805bd755391379a3403af0890d36fbe0147a8b4fa94b30b7d7cfe321bbd800000000"
}