{
  "txid": "c5b1b4d384f12e091f52240eca971aed1079c3746493bf768b9ccf646acb3f6f",
  "version": 2,
  "locktime": 834459,
  "vin": [
    {
      "txid": "01210d8e2ad6e4e2cbd2ca53c754b040dc14e0cee3eb0c36a98a3437054c5c8e",
      "vout": 84,
      "prevout": {
        "scriptpubkey": "0014d8c12540714873323dab9713f9966a701a8f91d3",
        "scriptpubkey_asm": "OP_0 OP_PUSHBYTES_20 d8c12540714873323dab9713f9966a701a8f91d3",
        "scriptpubkey_type": "v0_p2wpkh",
        "scriptpubkey_address": "bc1qmrqj2sr3fpeny0dtjufln9n2wqdglywnpvlss9",
        "value": 14001
      },
      "scriptsig": "",
      "scriptsig_asm": "",
      "witness": [
        "3044022034db7bd5e0cd26446083bea18533a240eb2cd98654e8e759caa651c237d176da0220509c52f0084bcc41ac3d89db189c99c7fea075eca778a6777a2cde82ee11cce001",
        "031aac523987d0750b63160f9271d38de5c972c814cf1370857bab30bfcb293cd9"
      ],
      "is_coinbase": false,
      "sequence": 4294967293
    },
    {
      "txid": "41f16e2c4c0565a08fd391c4ea9b259032fe2bf9ff350408b8d5339a52c03f28",
      "vout": 0,
      "prevout": {
        "scriptpubkey": "001483f372d6261e9892a4bd84518a9b30770f0d821e",
        "scriptpubkey_asm": "OP_0 OP_PUSHBYTES_20 83f372d6261e9892a4bd84518a9b30770f0d821e",
        "scriptpubkey_type": "v0_p2wpkh",
        "scriptpubkey_address": "bc1qs0eh943xr6vf9f9as3gc4xeswu8smqs7eg7cj7",
        "value": 1400
      },
      "scriptsig": "",
      "scriptsig_asm": "",
      "witness": [
        "30440220793f112235a5c7c3663ddf552e9b6b2873964618af8385f6413d510501141898022026739363983b564cd18f508722caf5f14a951432a36c4da7a86393645c78aae101",
        "03fa359c3e6a70cbdb3f062f2bf2608e539ffde26398b98a6d77799c44cd06f051"
      ],
      "is_coinbase": false,
      "sequence": 4294967293
    },
    {
      "txid": "44320bca09cecf3463d8f5b78cefe409571597977de8e8d696217705dadb51cd",
      "vout": 0,
      "prevout": {
        "scriptpubkey": "0014bd921867c4cef778284dd63808da100490280386",
        "scriptpubkey_asm": "OP_0 OP_PUSHBYTES_20 bd921867c4cef778284dd63808da100490280386",
        "scriptpubkey_type": "v0_p2wpkh",
        "scriptpubkey_address": "bc1qhkfpse7yemmhs2zd6cuq3kssqjgzsqux8wf2gm",
        "value": 118963
      },
      "scriptsig": "",
      "scriptsig_asm": "",
      "witness": [
        "304402204a7d64db4a3bd27e16e95ec511843ba7ed1939a54f606ebe6ee9739c7d163b8502205cdea322720b30fd49e7ba31de4369d4209d3e640f9f26c8863b6e4916dd3d7501",
        "020b3893983a0021163f1d558246a4a9b4a72dc80abf412e15c6e6b1be4698a10c"
      ],
      "is_coinbase": false,
      "sequence": 4294967293
    },
    {
      "txid": "e46c67d293469f8d29a03319a59d11196bda8baf6900259f9a797be2210b1582",
      "vout": 168,
      "prevout": {
        "scriptpubkey": "0014d7d4c510b37b4ffeaf249189328885ce0268237c",
        "scriptpubkey_asm": "OP_0 OP_PUSHBYTES_20 d7d4c510b37b4ffeaf249189328885ce0268237c",
        "scriptpubkey_type": "v0_p2wpkh",
        "scriptpubkey_address": "bc1q6l2v2y9n0d8lateyjxyn9zy9ecpxsgmuvqjy4k",
        "value": 6945
      },
      "scriptsig": "",
      "scriptsig_asm": "",
      "witness": [
        "304402204f32b1cd6518790023f58a72ac681b4fae62ded63d8281732fb2294d0fd6c81502202cd3b10d9f74ed667747bef0107191b4dbad2e9a046fece34c094752a543d1b601",
        "02d82df355844c07d7d50b3fd7f3528658c13f027b2ce2ffc1172ffb47b033dfdd"
      ],
      "is_coinbase": false,
      "sequence": 4294967293
    }
  ],
  "vout": [
    {
      "scriptpubkey": "a9147f8314bb4b5738cc1b9b7dfe10bffe36e6a0bbc987",
      "scriptpubkey_asm": "OP_HASH160 OP_PUSHBYTES_20 7f8314bb4b5738cc1b9b7dfe10bffe36e6a0bbc9 OP_EQUAL",
      "scriptpubkey_type": "p2sh",
      "scriptpubkey_address": "3DKEmaAQ7GyJ3rYLjJzjGiLhGMGuZ54hqR",
      "value": 135900
    }
  ],
  "size": 636,
  "weight": 1254,
  "fee": 5409,
  "status": {
    "confirmed": true,
    "block_height": 834460,
    "block_hash": "00000000000000000000484a79b643b2524bbce82e5d8a442013fa5b8905ed98",
    "block_time": 1710307468
  },
  "hex": "020000000001048e5c4c0537348aa9360cebe3cee014dc40b054c753cad2cbe2e4d62a8e0d21015400000000fdffffff283fc0529a33d5b8080435fff92bfe3290259beac491d38fa065054c2c6ef1410000000000fdffffffcd51dbda05772196d6e8e87d9797155709e4ef8cb7f5d86334cfce09ca0b32440000000000fdffffff82150b21e27b799a9f250069af8bda6b19119da51933a0298d9f4693d2676ce4a800000000fdffffff01dc1202000000000017a9147f8314bb4b5738cc1b9b7dfe10bffe36e6a0bbc98702473044022034db7bd5e0cd26446083bea18533a240eb2cd98654e8e759caa651c237d176da0220509c52f0084bcc41ac3d89db189c99c7fea075eca778a6777a2cde82ee11cce00121031aac523987d0750b63160f9271d38de5c972c814cf1370857bab30bfcb293cd9024730440220793f112235a5c7c3663ddf552e9b6b2873964618af8385f6413d510501141898022026739363983b564cd18f508722caf5f14a951432a36c4da7a86393645c78aae1012103fa359c3e6a70cbdb3f062f2bf2608e539ffde26398b98a6d77799c44cd06f0510247304402204a7d64db4a3bd27e16e95ec511843ba7ed1939a54f606ebe6ee9739c7d163b8502205cdea322720b30fd49e7ba31de4369d4209d3e640f9f26c8863b6e4916dd3d750121020b3893983a0021163f1d558246a4a9b4a72dc80abf412e15c6e6b1be4698a10c0247304402204f32b1cd6518790023f58a72ac681b4fae62ded63d8281732fb2294d0fd6c81502202cd3b10d9f74ed667747bef0107191b4dbad2e9a046fece34c094752a543d1b6012102d82df355844c07d7d50b3fd7f3528658c13f027b2ce2ffc1172ffb47b033dfdd9bbb0c00"
}