{
  "txid": "c5bbf4c3e1c7d2c49b8b0ba00a4760f0e733970387eef72382c3132365f9d293",
  "version": 2,
  "locktime": 0,
  "vin": [
    {
      "txid": "dde232196f6f367191d9e0fb76f95922c70150716cc2903e8ee294acc8aa3173",
      "vout": 60,
      "prevout": {
        "scriptpubkey": "00149eb3d34959f97bc4654b904378fee609339706f2",
        "scriptpubkey_asm": "OP_0 OP_PUSHBYTES_20 9eb3d34959f97bc4654b904378fee609339706f2",
        "scriptpubkey_type": "v0_p2wpkh",
        "scriptpubkey_address": "bc1qn6eaxj2el9auge2tjpph3lhxpyeewphjhlg3sg",
        "value": 54647
      },
      "scriptsig": "",
      "scriptsig_asm": "",
      "witness": [
        "3045022100a998697430561a935aeffe34d9699cbae8a23a1c4d7da6d435614b3be8a0701d02201656fcb710968fa67a6a2dcd64e9b38b0d9b920a849a7ee9b1c5aea1d4620ba301",
        "03e271e8e7a32fee5d7779f8ca260d0a74d344858392432f42f9cd444443bf06b8"
      ],
      "is_coinbase": false,
      "sequence": 4294967295
    },
    {
      "txid": "0d281799ee14c3c67f42a252fb2e72d8e5a3e34df44f3f218981d911916dc616",
      "vout": 3,
      "prevout": {
        "scriptpubkey": "0014021beb46e2725dec525a7f9bce2a446846e634fe",
        "scriptpubkey_asm": "OP_0 OP_PUSHBYTES_20 021beb46e2725dec525a7f9bce2a446846e634fe",
        "scriptpubkey_type": "v0_p2wpkh",
        "scriptpubkey_address": "bc1qqgd7k3hzwfw7c5j607duu2jydprwvd87n28e3l",
        "value": 840162
      },
      "scriptsig": "",
      "scriptsig_asm": "",
      "witness": [
        "3044022077188f4af7ee4e9516326433f07c15af042943249d615efde974d740874d2e8e02203f9ea1ff088c96895c4f412d6a1288f19922b9866ed933072861fa9fa35b958501",
        "03565531b93f4e2b5c00484d80bc24999fd99f611e1660bfeaeca5073d49243b7d"
      ],
      "is_coinbase": false,
      "sequence": 4294967295
    },
    {
      "txid": "127d3fd707042214e6807191825e7d420eae28d23ccd60e7fde592201a603a38",
      "vout": 1,
      "prevout": {
        "scriptpubkey": "76a9143bb1ffa74fce7de840b71208691f047a2c3d0b8088ac",
        "scriptpubkey_asm": "OP_DUP OP_HASH160 OP_PUSHBYTES_20 3bb1ffa74fce7de840b71208691f047a2c3d0b80 OP_EQUALVERIFY OP_CHECKSIG",
        "scriptpubkey_type": "p2pkh",
        "scriptpubkey_address": "16Se6t5y8yoNntPouBXSoYSW3aQVbfmd25",
        "value": 100610724
      },
      "scriptsig": "47304402202e903e1de89361b1d03bd24e0e53a52837c594309d11e04db4840fa90ea838800220127225ad1241dda2a3c99bc046ae4cbf54df2b86810fd4ef9f324498d331c905012103e7be54bd4fef1f594e8b9cca1f87d6855a357a01a1d80ae132bb572f94a6999d",
      "scriptsig_asm": "OP_PUSHBYTES_71 304402202e903e1de89361b1d03bd24e0e53a52837c594309d11e04db4840fa90ea838800220127225ad1241dda2a3c99bc046ae4cbf54df2b86810fd4ef9f324498d331c90501 OP_PUSHBYTES_33 03e7be54bd4fef1f594e8b9cca1f87d6855a357a01a1d80ae132bb572f94a6999d",
      "is_coinbase": false,
      "sequence": 4294967295
    }
  ],
  "vout": [
    {
      "scriptpubkey": "00148adb07ef5c0aecafb0361b080be26126fbbc02b6",
      "scriptpubkey_asm": "OP_0 OP_PUSHBYTES_20 8adb07ef5c0aecafb0361b080be26126fbbc02b6",
      "scriptpubkey_type": "v0_p2wpkh",
      "scriptpubkey_address": "bc1q3tds0m6uptk2lvpkrvyqhcnpymamcq4k4kr3d2",
      "value": 306400
    },
    {
      "scriptpubkey": "76a9143bb1ffa74fce7de840b71208691f047a2c3d0b8088ac",
      "scriptpubkey_asm": "OP_DUP OP_HASH160 OP_PUSHBYTES_20 3bb1ffa74fce7de840b71208691f047a2c3d0b80 OP_EQUALVERIFY OP_CHECKSIG",
      "scriptpubkey_type": "p2pkh",
      "scriptpubkey_address": "16Se6t5y8yoNntPouBXSoYSW3aQVbfmd25",
      "value": 101189674
    }
  ],
  "size": 522,
  "weight": 1434,
  "fee": 9459,
  "status": {
    "confirmed": true,
    "block_height": 834638,
    "block_hash": "000000000000000000025f742c626208ac87e0b7d15054abb4a19ca2d735a54e",
    "block_time": 1710405325
  },
  "hex": "020000000001037331aac8ac94e28e3e90c26c715001c72259f976fbe0d99171366f6f1932e2dd3c00000000ffffffff16c66d9111d98189213f4ff44de3a3e5d8722efb52a2427fc6c314ee9917280d0300000000ffffffff383a601a2092e5fde760cd3cd228ae0e427d5e82917180e614220407d73f7d12010000006a47304402202e903e1de89361b1d03bd24e0e53a52837c594309d11e04db4840fa90ea838800220127225ad1241dda2a3c99bc046ae4cbf54df2b86810fd4ef9f324498d331c905012103e7be54bd4fef1f594e8b9cca1f87d6855a357a01a1d80ae132bb572f94a6999dffffffff02e0ac0400000000001600148adb07ef5c0aecafb0361b080be26126fbbc02b62a080806000000001976a9143bb1ffa74fce7de840b71208691f047a2c3d0b8088ac02483045022100a998697430561a935aeffe34d9699cbae8a23a1c4d7da6d435614b3be8a0701d02201656fcb710968fa67a6a2dcd64e9b38b0d9b920a849a7ee9b1c5aea1d4620ba3012103e271e8e7a32fee5d7779f8ca260d0a74d344858392432f42f9cd444443bf06b802473044022077188f4af7ee4e9516326433f07c15af042943249d615efde974d740874d2e8e02203f9ea1ff088c96895c4f412d6a1288f19922b9866ed933072861fa9fa35b9585012103565531b93f4e2b5c00484d80bc24999fd99f611e1660bfeaeca5073d49243b7d0000000000"
}