{
  "txid": "c5ce85572cc2bc159f3ff3d2bad5546fbe3705a36ea95d1e27c9a70195af8517",
  "version": 1,
  "locktime": 0,
  "vin": [
    {
      "txid": "44e78b46538563d0101feb8fd8b746e3792447735122ae81d9a75cd40131c93c",
      "vout": 0,
      "prevout": {
        "scriptpubkey": "a914a0709dda130f2e1985111fb3a4ff72a923ef5f3587",
        "scriptpubkey_asm": "OP_HASH160 OP_PUSHBYTES_20 a0709dda130f2e1985111fb3a4ff72a923ef5f35 OP_EQUAL",
        "scriptpubkey_type": "p2sh",
        "scriptpubkey_address": "3GKLwyYmYEkSHEg5FuWPW177Z5g7YECEeH",
        "value": 5000000
      },
      "scriptsig": "2200209f5c97893b6fd63bc9def56cab2131081ea55cb36925559d73cb27c33dc6953b",
      "scriptsig_asm": "OP_PUSHBYTES_34 00209f5c97893b6fd63bc9def56cab2131081ea55cb36925559d73cb27c33dc6953b",
      "witness": [
        "",
        "304402205ffd2085c6d3f8364d63ea3d084e44fcd8f15beb45949bf5a37d8a47462f68f802207acbf5f0b661688fe4a93abc625a310a7f48c5603f37e1779a33f8f2cd9d754a01",
        "30440220190241485f05afe38438a0356c66de42c279ac6d8d4464c5306966f03c388ac502204db4e2870583a4c6fc2c74cb2c07b05aba6cde0d9d9ea8ae2b20a5bffd3109f701",
        "5221028faea94cd52b58b23f2acca322c6fc26c5ed882894af7644265c4f4a0c51622821022abaa41d014be77b93f584f1fd5fb61622dffc6160bf5f3b3451f0b80df934ec21034ebe66b4cbcbb4932cf1c70dc74bb3f6066cf0f989d11a6796e06505aec3df8253ae"
      ],
      "is_coinbase": false,
      "sequence": 4294967293,
      "inner_redeemscript_asm": "OP_0 OP_PUSHBYTES_32 9f5c97893b6fd63bc9def56cab2131081ea55cb36925559d73cb27c33dc6953b",
      "inner_witnessscript_asm": "OP_PUSHNUM_2 OP_PUSHBYTES_33 028faea94cd52b58b23f2acca322c6fc26c5ed882894af7644265c4f4a0c516228 OP_PUSHBYTES_33 022abaa41d014be77b93f584f1fd5fb61622dffc6160bf5f3b3451f0b80df934ec OP_PUSHBYTES_33 034ebe66b4cbcbb4932cf1c70dc74bb3f6066cf0f989d11a6796e06505aec3df82 OP_PUSHNUM_3 OP_CHECKMULTISIG"
    },
    {
      "txid": "b5e691f95dfa03eb927adaa8c41a375e0d6c37ffdbf2614d7d7d263cdcfcf9cc",
      "vout": 17,
      "prevout": {
        "scriptpubkey": "00209ae74687cb803d8d6c8f791251b9d85e8681ea346d2abff648a27889bee97f0a",
        "scriptpubkey_asm": "OP_0 OP_PUSHBYTES_32 9ae74687cb803d8d6c8f791251b9d85e8681ea346d2abff648a27889bee97f0a",
        "scriptpubkey_type": "v0_p2wsh",
        "scriptpubkey_address": "bc1qntn5dp7tsq7c6my00yf9rwwct6rgr635d54tlajg5fugn0hf0u9qrk7sv0",
        "value": 554068257
      },
      "scriptsig": "",
      "scriptsig_asm": "",
      "witness": [
        "",
        "3045022100e2d40c5a356c9ecf883b6a9c78aceecec100d1c324692032d3ac684891c5fac6022076535b90c2d5187070c9a2697e3137c88a95ae22cb80bb24511d7bfca4e3ed5d01",
        "304402202b96f4c028abe11baf99842085063938b4d00aada9282f747cbbf7ec990f067c022076dc103cec9a8e861902f3176bf5ab7c0e24e19981f2b7ec02c6d6790dda1c4601",
        "522102ec9d6f697985f2ab9511f4632cb2789fc35ddcf8c6120eebf45a66eb51c1cbde210259fbb45d4cd226e4b77f3b6a19020653454cf1a0d6ac8b951a92e969ed39a0502103fd05971d0e37064cdb4a2d40a461be51c1860cdc8496b2c9d62b43a68a24e28753ae"
      ],
      "is_coinbase": false,
      "sequence": 4294967293,
      "inner_witnessscript_asm": "OP_PUSHNUM_2 OP_PUSHBYTES_33 02ec9d6f697985f2ab9511f4632cb2789fc35ddcf8c6120eebf45a66eb51c1cbde OP_PUSHBYTES_33 0259fbb45d4cd226e4b77f3b6a19020653454cf1a0d6ac8b951a92e969ed39a050 OP_PUSHBYTES_33 03fd05971d0e37064cdb4a2d40a461be51c1860cdc8496b2c9d62b43a68a24e287 OP_PUSHNUM_3 OP_CHECKMULTISIG"
    },
    {
      "txid": "b5e691f95dfa03eb927adaa8c41a375e0d6c37ffdbf2614d7d7d263cdcfcf9cc",
      "vout": 18,
      "prevout": {
        "scriptpubkey": "00202f2ecf02a276c0985565777d8f111978e915fa87d784e05c8ee3f02013939e36",
        "scriptpubkey_asm": "OP_0 OP_PUSHBYTES_32 2f2ecf02a276c0985565777d8f111978e915fa87d784e05c8ee3f02013939e36",
        "scriptpubkey_type": "v0_p2wsh",
        "scriptpubkey_address": "bc1q9uhv7q4zwmqfs4t9wa7c7yge0r53t75867zwqhywu0czqyunncmq6snzmk",
        "value": 555034090
      },
      "scriptsig": "",
      "scriptsig_asm": "",
      "witness": [
        "",
        "3045022100d5f726e34dc9affe986f0849c32d4c134bf072723efc61f3904d091a43b9a28702205ae0e2c0ffad3ca94b14fddf0f73cc9ae52894264b9d7a4846fc3ebd870b7f8f01",
        "304402202e2910110259ccb77780474b215182607d7e289cb6a8d3e7b07c680e021fd906022063a9120d0c07b880b41694e6bb2224f01fa97021c74982725ddbe5058b9005dd01",
        "5221027b6b06ff08aab462c4e1577c21af46651fb19211de9df955aa61e79001c7c3df2102dac7150f8393caee72945921a42619760c6338b4fb97d4274ed2028bdf3a14e42103cc77f96694535a2f9ba58559516f93560ec4df52245186bee47d5393e8d5a05a53ae"
      ],
      "is_coinbase": false,
      "sequence": 4294967293,
      "inner_witnessscript_asm": "OP_PUSHNUM_2 OP_PUSHBYTES_33 027b6b06ff08aab462c4e1577c21af46651fb19211de9df955aa61e79001c7c3df OP_PUSHBYTES_33 02dac7150f8393caee72945921a42619760c6338b4fb97d4274ed2028bdf3a14e4 OP_PUSHBYTES_33 03cc77f96694535a2f9ba58559516f93560ec4df52245186bee47d5393e8d5a05a OP_PUSHNUM_3 OP_CHECKMULTISIG"
    },
    {
      "txid": "b5e691f95dfa03eb927adaa8c41a375e0d6c37ffdbf2614d7d7d263cdcfcf9cc",
      "vout": 19,
      "prevout": {
        "scriptpubkey": "0020db0b7af0ac1c9e4438530754971f0d4290bf215eec51e987e70796306a11d4db",
        "scriptpubkey_asm": "OP_0 OP_PUSHBYTES_32 db0b7af0ac1c9e4438530754971f0d4290bf215eec51e987e70796306a11d4db",
        "scriptpubkey_type": "v0_p2wsh",
        "scriptpubkey_address": "bc1qmv9h4u9vrj0ygwznqa2fw8cdg2gt7g27a3g7npl8q7trq6s36ndsevl5kj",
        "value": 676245860
      },
      "scriptsig": "",
      "scriptsig_asm": "",
      "witness": [
        "",
        "3045022100d51a5d0dded1f690560884d8ba3ff073bcf27bf00acefc8e72f58f6562716931022065cc90d4422f29d2192788d1100df2090f5d791d49c897379b185c0fbdf544c901",
        "3044022018d75c9596dddbe1f0cceb5d89408d60ae4af91fb669f8512d6b6577c03597890220628625d209e03dad5f31930b60a7e20d1f38a818937d80d032dd6aa200c5460801",
        "5221033ba674864fb4367c4481521c2df5966bc870b813699b336174bad9bd028f8cbf2103b2bca10e850e52ad195fcc55b37a7354f5a2c01b87afa30945805ace8a40f703210394bdd12c2f03b8f421ab6fc31c81203a630fac89cf3307813a40935b11ddf19853ae"
      ],
      "is_coinbase": false,
      "sequence": 4294967293,
      "inner_witnessscript_asm": "OP_PUSHNUM_2 OP_PUSHBYTES_33 033ba674864fb4367c4481521c2df5966bc870b813699b336174bad9bd028f8cbf OP_PUSHBYTES_33 03b2bca10e850e52ad195fcc55b37a7354f5a2c01b87afa30945805ace8a40f703 OP_PUSHBYTES_33 0394bdd12c2f03b8f421ab6fc31c81203a630fac89cf3307813a40935b11ddf198 OP_PUSHNUM_3 OP_CHECKMULTISIG"
    },
    {
      "txid": "dbb1c8416cf8cf68fda438a8fa371f7d2c31692d0d5b94394e451a07d8bb2e5c",
      "vout": 0,
      "prevout": {
        "scriptpubkey": "a914093e17a4f67fb7e19e97d9ac47773ee85b57ca6e87",
        "scriptpubkey_asm": "OP_HASH160 OP_PUSHBYTES_20 093e17a4f67fb7e19e97d9ac47773ee85b57ca6e OP_EQUAL",
        "scriptpubkey_type": "p2sh",
        "scriptpubkey_address": "32XtPXHwurLEWNVVgSbWk8Dv62TANydm2Q",
        "value": 10000000
      },
      "scriptsig": "220020f42e0663b44dc9bf8d5e81e0388307d1f71ce417e61b1b4cd225c542d8a341c2",
      "scriptsig_asm": "OP_PUSHBYTES_34 0020f42e0663b44dc9bf8d5e81e0388307d1f71ce417e61b1b4cd225c542d8a341c2",
      "witness": [
        "",
        "3044022026b462cf2463ef07b46a7a16ea60daa073927e9169d30a936b6562bfa0d30ce1022004845d66e10827f937ccdee282ec2807b7c2263d49ce42a78ab5d115e8c20e7201",
        "3044022013334015d5f0ce0801800383283db8cb1c20d5cfb97b871f13a9b642c0e2bd110220023437a67f69b7790e473e92ffd3e1d03c65a62774f724f16695b538e9b7df2701",
        "52210245019ef3ff33eeef1eb264e8f6a320071209b234dbc07dee60e752c4002f432221035808d142acfc03dcc68c23d4fa2027c5e74ddc78eff5ecdd7b70d3734f15ff702103050073d71fb096f183c5bed878cb564994cd1220735dcf78ecbb977f4ec1cfc153ae"
      ],
      "is_coinbase": false,
      "sequence": 4294967293,
      "inner_redeemscript_asm": "OP_0 OP_PUSHBYTES_32 f42e0663b44dc9bf8d5e81e0388307d1f71ce417e61b1b4cd225c542d8a341c2",
      "inner_witnessscript_asm": "OP_PUSHNUM_2 OP_PUSHBYTES_33 0245019ef3ff33eeef1eb264e8f6a320071209b234dbc07dee60e752c4002f4322 OP_PUSHBYTES_33 035808d142acfc03dcc68c23d4fa2027c5e74ddc78eff5ecdd7b70d3734f15ff70 OP_PUSHBYTES_33 03050073d71fb096f183c5bed878cb564994cd1220735dcf78ecbb977f4ec1cfc1 OP_PUSHNUM_3 OP_CHECKMULTISIG"
    },
    {
      "txid": "ef383e3c6acdac31464efdcd31c83cf615307325625ea33033ba348bf088a34a",
      "vout": 10,
      "prevout": {
        "scriptpubkey": "0020c4a3776c9c95e1009e49c0b144178ef324a6661c0f54ab6b261a6c313f11a0c9",
        "scriptpubkey_asm": "OP_0 OP_PUSHBYTES_32 c4a3776c9c95e1009e49c0b144178ef324a6661c0f54ab6b261a6c313f11a0c9",
        "scriptpubkey_type": "v0_p2wsh",
        "scriptpubkey_address": "bc1qcj3hwmyujhssp8jfczc5g9uw7vj2vesupa22k6exrfkrz0c35rysult25k",
        "value": 387924183
      },
      "scriptsig": "",
      "scriptsig_asm": "",
      "witness": [
        "",
        "304402203deee9c28629d7abbeb35a8e304639ded24e8c8751dcf87b0303c3939346b11b0220573531ef163aa7fa5cd65456221585d3a3e43662e985640e903365f89b3f985c01",
        "304402206a78e650da403183059160f6c491b4f9535eab05130270f14fa45d0b9ab6794b02201446fa63f34538c17ab19bb797fbabf159d410fbb3aeb943a7cbf7fc940103b101",
        "522102fb00176482263d18d8ad5259a15e823c6534065c0f0458a72218c5615532f9c0210357700653ae57dcb7bf15363b295e6ee087b6ea9f7c3c30995eb502beed36225d2103a213a3d8a61ff130adaf5d9898b3543772fc17a57eae435314d3cdd15f3e84e353ae"
      ],
      "is_coinbase": false,
      "sequence": 4294967293,
      "inner_witnessscript_asm": "OP_PUSHNUM_2 OP_PUSHBYTES_33 02fb00176482263d18d8ad5259a15e823c6534065c0f0458a72218c5615532f9c0 OP_PUSHBYTES_33 0357700653ae57dcb7bf15363b295e6ee087b6ea9f7c3c30995eb502beed36225d OP_PUSHBYTES_33 03a213a3d8a61ff130adaf5d9898b3543772fc17a57eae435314d3cdd15f3e84e3 OP_PUSHNUM_3 OP_CHECKMULTISIG"
    },
    {
      "txid": "ef383e3c6acdac31464efdcd31c83cf615307325625ea33033ba348bf088a34a",
      "vout": 11,
      "prevout": {
        "scriptpubkey": "0020346ee502af0a7fc8ab43075aeff1a17b4f946fb00e989bda590bc032f29b47f4",
        "scriptpubkey_asm": "OP_0 OP_PUSHBYTES_32 346ee502af0a7fc8ab43075aeff1a17b4f946fb00e989bda590bc032f29b47f4",
        "scriptpubkey_type": "v0_p2wsh",
        "scriptpubkey_address": "bc1qx3hw2q40pflu326rqadwludp0d8egmasp6vfhkjep0qr9u5mgl6qns0h4d",
        "value": 481133774
      },
      "scriptsig": "",
      "scriptsig_asm": "",
      "witness": [
        "",
        "3045022100a38434ddad3d3f54b90098c461035119ba3ab724615f4f1ddcb5243cf10bf33c022026bd78a38439dea42e0029bbbe74dcfc53d252cfbe93f525a9ab67421b518a3301",
        "304402207b226ae07555431f52dd5535568ffd1d2a697189c7b9c7527a0023112d54110602205ba6779d171489a9de9fbb47aa601c1190f89f3e1f7f5069d7bc1e7c0002adca01",
        "522102c99fd2160c41a9b72e82c64537de03a72101f3884756a15f6364db7f17fa282a21028cdf4b51341c11c0fe09dd66452efd79935f5cca4d0e65617f7454c5418c6f422102e7151dd90de6ad9e5f39f9623580b501102144f996ba71f9dd8172c3e1e9427253ae"
      ],
      "is_coinbase": false,
      "sequence": 4294967293,
      "inner_witnessscript_asm": "OP_PUSHNUM_2 OP_PUSHBYTES_33 02c99fd2160c41a9b72e82c64537de03a72101f3884756a15f6364db7f17fa282a OP_PUSHBYTES_33 028cdf4b51341c11c0fe09dd66452efd79935f5cca4d0e65617f7454c5418c6f42 OP_PUSHBYTES_33 02e7151dd90de6ad9e5f39f9623580b501102144f996ba71f9dd8172c3e1e94272 OP_PUSHNUM_3 OP_CHECKMULTISIG"
    },
    {
      "txid": "ef383e3c6acdac31464efdcd31c83cf615307325625ea33033ba348bf088a34a",
      "vout": 12,
      "prevout": {
        "scriptpubkey": "0020e74bfb1bed8c0b291e84b7cdcd4cb36f61c6c144af7c18d743cb81210aa8131e",
        "scriptpubkey_asm": "OP_0 OP_PUSHBYTES_32 e74bfb1bed8c0b291e84b7cdcd4cb36f61c6c144af7c18d743cb81210aa8131e",
        "scriptpubkey_type": "v0_p2wsh",
        "scriptpubkey_address": "bc1qua9lkxld3s9jj85yklxu6n9ndasuds2y4a7p346rewqjzz4gzv0qsuw7yh",
        "value": 493036747
      },
      "scriptsig": "",
      "scriptsig_asm": "",
      "witness": [
        "",
        "304402205e5720efee728644ac3eaa38488d40aab7bd6a98af9f5f83f8a08980cda7042f0220591db6bbd9fcb55c4f26be8ae25c6812220a43f09655d41c75e7c9eefac5dddb01",
        "30440220568ee81e0930bc27fb89d01c9392c2230a07c63c324e6ec147d2db74cbd6d3f3022021c38ebc48d10f5a2a2874cfe340d1599b8bbc4f6d5e9bdf13a0a3a1cea51a4401",
        "5221036881cdb104e6560e75e346f5a46e6c1286d81ee5468edda15b87461769e47a4f21029a6eb2dd5c2b10d4e35f4e60583de8013b183f98c52af66d1f3ec5bddb305a8421025ac93079ca4d77842f25733737a58b496c830d0820155018c06fddf2fab5417853ae"
      ],
      "is_coinbase": false,
      "sequence": 4294967293,
      "inner_witnessscript_asm": "OP_PUSHNUM_2 OP_PUSHBYTES_33 036881cdb104e6560e75e346f5a46e6c1286d81ee5468edda15b87461769e47a4f OP_PUSHBYTES_33 029a6eb2dd5c2b10d4e35f4e60583de8013b183f98c52af66d1f3ec5bddb305a84 OP_PUSHBYTES_33 025ac93079ca4d77842f25733737a58b496c830d0820155018c06fddf2fab54178 OP_PUSHNUM_3 OP_CHECKMULTISIG"
    },
    {
      "txid": "ef383e3c6acdac31464efdcd31c83cf615307325625ea33033ba348bf088a34a",
      "vout": 13,
      "prevout": {
        "scriptpubkey": "0020d6c4c20075b739bf6c7d7edc6a27aaa960e7a76a6d2c8993a037a52d829f87a0",
        "scriptpubkey_asm": "OP_0 OP_PUSHBYTES_32 d6c4c20075b739bf6c7d7edc6a27aaa960e7a76a6d2c8993a037a52d829f87a0",
        "scriptpubkey_type": "v0_p2wsh",
        "scriptpubkey_address": "bc1q6mzvyqr4kuum7mra0mwx5fa249sw0fm2d5kgnyaqx7jjmq5ls7sqgnx9r2",
        "value": 683195808
      },
      "scriptsig": "",
      "scriptsig_asm": "",
      "witness": [
        "",
        "3044022027368546e026fa281ed143b7d666ab70696ebb7d9fc7ad4af8c003af658fd4bb022008a839a220f3d3745c3d01e1e0adb1ba2900b6bb1bb20b8e14f9c3da04fb516701",
        "3044022050c255d5724def43552e65adae836fc866ee40932f0389b5f022366d28a9aec00220714f41da012cee047c79ee523f490c9e2bd56620c6f86d93e67b709d4366875d01",
        "522103df460c21d5d82de677194f968a169902147fcb760c5630612c3ae870cd4f23fe21033ae9577b7759bde2463703bf9daee686e6b8afd391d97d07636de89e986d00842102d8683a033bc3d0fcc008585c5dfa7b3f9aa7fbfa6b13e1f0a86a612f276ffc6153ae"
      ],
      "is_coinbase": false,
      "sequence": 4294967293,
      "inner_witnessscript_asm": "OP_PUSHNUM_2 OP_PUSHBYTES_33 03df460c21d5d82de677194f968a169902147fcb760c5630612c3ae870cd4f23fe OP_PUSHBYTES_33 033ae9577b7759bde2463703bf9daee686e6b8afd391d97d07636de89e986d0084 OP_PUSHBYTES_33 02d8683a033bc3d0fcc008585c5dfa7b3f9aa7fbfa6b13e1f0a86a612f276ffc61 OP_PUSHNUM_3 OP_CHECKMULTISIG"
    }
  ],
  "vout": [
    {
      "scriptpubkey": "a914dcd4012f153d34d067376f959f4caa7bf558f8ac87",
      "scriptpubkey_asm": "OP_HASH160 OP_PUSHBYTES_20 dcd4012f153d34d067376f959f4caa7bf558f8ac OP_EQUAL",
      "scriptpubkey_type": "p2sh",
      "scriptpubkey_address": "3MpeZ5wb3v5dAWE5ystyJpcYFJRVbfesSY",
      "value": 103947
    },
    {
      "scriptpubkey": "76a91411f0b86496a12b77f6c8e4c2aa65b4843fa6401a88ac",
      "scriptpubkey_asm": "OP_DUP OP_HASH160 OP_PUSHBYTES_20 11f0b86496a12b77f6c8e4c2aa65b4843fa6401a OP_EQUALVERIFY OP_CHECKSIG",
      "scriptpubkey_type": "p2pkh",
      "scriptpubkey_address": "12drroPHQsc8KTd8qQtxT3WrEcJ8mENu1U",
      "value": 280857
    },
    {
      "scriptpubkey": "00144ebb1b2236e9ae96591455f8795e55eea5a7c9f6",
      "scriptpubkey_asm": "OP_0 OP_PUSHBYTES_20 4ebb1b2236e9ae96591455f8795e55eea5a7c9f6",
      "scriptpubkey_type": "v0_p2wpkh",
      "scriptpubkey_address": "bc1qf6a3kg3kaxhfvkg52hu8jhj4a6j60j0ksm2w44",
      "value": 1459989
    },
    {
      "scriptpubkey": "0020a6afc6371bc9e88d584569d9f22c3fd9f8c6e3bdc126621ff27422aefef4b214",
      "scriptpubkey_asm": "OP_0 OP_PUSHBYTES_32 a6afc6371bc9e88d584569d9f22c3fd9f8c6e3bdc126621ff27422aefef4b214",
      "scriptpubkey_type": "v0_p2wsh",
      "scriptpubkey_address": "bc1q56huvdcme85g6kz9d8vlytplm8uvdcaacynxy8ljws32alh5kg2qvhlmmn",
      "value": 13611467
    },
    {
      "scriptpubkey": "a91403b6725fddefe89a2fd2a79082bd2cf8c72659a787",
      "scriptpubkey_asm": "OP_HASH160 OP_PUSHBYTES_20 03b6725fddefe89a2fd2a79082bd2cf8c72659a7 OP_EQUAL",
      "scriptpubkey_type": "p2sh",
      "scriptpubkey_address": "322eWk59mgQReBbgd5GsUb6iJNJhasakn9",
      "value": 3830159100
    }
  ],
  "size": 2895,
  "weight": 4758,
  "fee": 23359,
  "status": {
    "confirmed": true,
    "block_height": 834638,
    "block_hash": "000000000000000000025f742c626208ac87e0b7d15054abb4a19ca2d735a54e",
    "block_time": 1710405325
  },
  "hex": "010000000001093cc93101d45ca7d981ae225173472479e346b7d88feb1f10d0638553468be74400000000232200209f5c97893b6fd63bc9def56cab2131081ea55cb36925559d73cb27c33dc6953bfdffffffccf9fcdc3c267d7d4d61f2dbff376c0d5e371ac4a8da7a92eb03fa5df991e6b51100000000fdffffffccf9fcdc3c267d7d4d61f2dbff376c0d5e371ac4a8da7a92eb03fa5df991e6b51200000000fdffffffccf9fcdc3c267d7d4d61f2dbff376c0d5e371ac4a8da7a92eb03fa5df991e6b51300000000fdffffff5c2ebbd8071a454e39945b0d2d69312c7d1f37faa838a4fd68cff86c41c8b1db0000000023220020f42e0663b44dc9bf8d5e81e0388307d1f71ce417e61b1b4cd225c542d8a341c2fdffffff4aa388f08b34ba3330a35e6225733015f63cc831cdfd4e4631accd6a3c3e38ef0a00000000fdffffff4aa388f08b34ba3330a35e6225733015f63cc831cdfd4e4631accd6a3c3e38ef0b00000000fdffffff4aa388f08b34ba3330a35e6225733015f63cc831cdfd4e4631accd6a3c3e38ef0c00000000fdffffff4aa388f08b34ba3330a35e6225733015f63cc831cdfd4e4631accd6a3c3e38ef0d00000000fdffffff050b9601000000000017a914dcd4012f153d34d067376f959f4caa7bf558f8ac8719490400000000001976a91411f0b86496a12b77f6c8e4c2aa65b4843fa6401a88ac15471600000000001600144ebb1b2236e9ae96591455f8795e55eea5a7c9f6cbb1cf0000000000220020a6afc6371bc9e88d584569d9f22c3fd9f8c6e3bdc126621ff27422aefef4b214fc964be40000000017a91403b6725fddefe89a2fd2a79082bd2cf8c72659a787040047304402205ffd2085c6d3f8364d63ea3d084e44fcd8f15beb45949bf5a37d8a47462f68f802207acbf5f0b661688fe4a93abc625a310a7f48c5603f37e1779a33f8f2cd9d754a014730440220190241485f05afe38438a0356c66de42c279ac6d8d4464c5306966f03c388ac502204db4e2870583a4c6fc2c74cb2c07b05aba6cde0d9d9ea8ae2b20a5bffd3109f701695221028faea94cd52b58b23f2acca322c6fc26c5ed882894af7644265c4f4a0c51622821022abaa41d014be77b93f584f1fd5fb61622dffc6160bf5f3b3451f0b80df934ec21034ebe66b4cbcbb4932cf1c70dc74bb3f6066cf0f989d11a6796e06505aec3df8253ae0400483045022100e2d40c5a356c9ecf883b6a9c78aceecec100d1c324692032d3ac684891c5fac6022076535b90c2d5187070c9a2697e3137c88a95ae22cb80bb24511d7bfca4e3ed5d0147304402202b96f4c028abe11baf99842085063938b4d00aada9282f747cbbf7ec990f067c022076dc103cec9a8e861902f3176bf5ab7c0e24e19981f2b7ec02c6d6790dda1c460169522102ec9d6f697985f2ab9511f4632cb2789fc35ddcf8c6120eebf45a66eb51c1cbde210259fbb45d4cd226e4b77f3b6a19020653454cf1a0d6ac8b951a92e969ed39a0502103fd05971d0e37064cdb4a2d40a461be51c1860cdc8496b2c9d62b43a68a24e28753ae0400483045022100d5f726e34dc9affe986f0849c32d4c134bf072723efc61f3904d091a43b9a28702205ae0e2c0ffad3ca94b14fddf0f73cc9ae52894264b9d7a4846fc3ebd870b7f8f0147304402202e2910110259ccb77780474b215182607d7e289cb6a8d3e7b07c680e021fd906022063a9120d0c07b880b41694e6bb2224f01fa97021c74982725ddbe5058b9005dd01695221027b6b06ff08aab462c4e1577c21af46651fb19211de9df955aa61e79001c7c3df2102dac7150f8393caee72945921a42619760c6338b4fb97d4274ed2028bdf3a14e42103cc77f96694535a2f9ba58559516f93560ec4df52245186bee47d5393e8d5a05a53ae0400483045022100d51a5d0dded1f690560884d8ba3ff073bcf27bf00acefc8e72f58f6562716931022065cc90d4422f29d2192788d1100df2090f5d791d49c897379b185c0fbdf544c901473044022018d75c9596dddbe1f0cceb5d89408d60ae4af91fb669f8512d6b6577c03597890220628625d209e03dad5f31930b60a7e20d1f38a818937d80d032dd6aa200c5460801695221033ba674864fb4367c4481521c2df5966bc870b813699b336174bad9bd028f8cbf2103b2bca10e850e52ad195fcc55b37a7354f5a2c01b87afa30945805ace8a40f703210394bdd12c2f03b8f421ab6fc31c81203a630fac89cf3307813a40935b11ddf19853ae0400473044022026b462cf2463ef07b46a7a16ea60daa073927e9169d30a936b6562bfa0d30ce1022004845d66e10827f937ccdee282ec2807b7c2263d49ce42a78ab5d115e8c20e7201473044022013334015d5f0ce0801800383283db8cb1c20d5cfb97b871f13a9b642c0e2bd110220023437a67f69b7790e473e92ffd3e1d03c65a62774f724f16695b538e9b7df27016952210245019ef3ff33eeef1eb264e8f6a320071209b234dbc07dee60e752c4002f432221035808d142acfc03dcc68c23d4fa2027c5e74ddc78eff5ecdd7b70d3734f15ff702103050073d71fb096f183c5bed878cb564994cd1220735dcf78ecbb977f4ec1cfc153ae040047304402203deee9c28629d7abbeb35a8e304639ded24e8c8751dcf87b0303c3939346b11b0220573531ef163aa7fa5cd65456221585d3a3e43662e985640e903365f89b3f985c0147304402206a78e650da403183059160f6c491b4f9535eab05130270f14fa45d0b9ab6794b02201446fa63f34538c17ab19bb797fbabf159d410fbb3aeb943a7cbf7fc940103b10169522102fb00176482263d18d8ad5259a15e823c6534065c0f0458a72218c5615532f9c0210357700653ae57dcb7bf15363b295e6ee087b6ea9f7c3c30995eb502beed36225d2103a213a3d8a61ff130adaf5d9898b3543772fc17a57eae435314d3cdd15f3e84e353ae0400483045022100a38434ddad3d3f54b90098c461035119ba3ab724615f4f1ddcb5243cf10bf33c022026bd78a38439dea42e0029bbbe74dcfc53d252cfbe93f525a9ab67421b518a330147304402207b226ae07555431f52dd5535568ffd1d2a697189c7b9c7527a0023112d54110602205ba6779d171489a9de9fbb47aa601c1190f89f3e1f7f5069d7bc1e7c0002adca0169522102c99fd2160c41a9b72e82c64537de03a72101f3884756a15f6364db7f17fa282a21028cdf4b51341c11c0fe09dd66452efd79935f5cca4d0e65617f7454c5418c6f422102e7151dd90de6ad9e5f39f9623580b501102144f996ba71f9dd8172c3e1e9427253ae040047304402205e5720efee728644ac3eaa38488d40aab7bd6a98af9f5f83f8a08980cda7042f0220591db6bbd9fcb55c4f26be8ae25c6812220a43f09655d41c75e7c9eefac5dddb014730440220568ee81e0930bc27fb89d01c9392c2230a07c63c324e6ec147d2db74cbd6d3f3022021c38ebc48d10f5a2a2874cfe340d1599b8bbc4f6d5e9bdf13a0a3a1cea51a4401695221036881cdb104e6560e75e346f5a46e6c1286d81ee5468edda15b87461769e47a4f21029a6eb2dd5c2b10d4e35f4e60583de8013b183f98c52af66d1f3ec5bddb305a8421025ac93079ca4d77842f25733737a58b496c830d0820155018c06fddf2fab5417853ae0400473044022027368546e026fa281ed143b7d666ab70696ebb7d9fc7ad4af8c003af658fd4bb022008a839a220f3d3745c3d01e1e0adb1ba2900b6bb1bb20b8e14f9c3da04fb516701473044022050c255d5724def43552e65adae836fc866ee40932f0389b5f022366d28a9aec00220714f41da012cee047c79ee523f490c9e2bd56620c6f86d93e67b709d4366875d0169522103df460c21d5d82de677194f968a169902147fcb760c5630612c3ae870cd4f23fe21033ae9577b7759bde2463703bf9daee686e6b8afd391d97d07636de89e986d00842102d8683a033bc3d0fcc008585c5dfa7b3f9aa7fbfa6b13e1f0a86a612f276ffc6153ae00000000"
}