{
  "txid": "c5eac44e78896ddb0503d7610169d08a7ffa57e917cac66fe4c8fafc992cbed2",
  "version": 2,
  "locktime": 538770804,
  "vin": [
    {
      "txid": "b7e74d40d17b1a3372f18b1f9738e4c2c8a0118f90de248b669eea2c13a350a5",
      "vout": 0,
      "prevout": {
        "scriptpubkey": "00209adf8dd8a29f549657d2bf31dcb3dfefc50a4005dc49d636ce29e6198d6603a1",
        "scriptpubkey_asm": "OP_0 OP_PUSHBYTES_32 9adf8dd8a29f549657d2bf31dcb3dfefc50a4005dc49d636ce29e6198d6603a1",
        "scriptpubkey_type": "v0_p2wsh",
        "scriptpubkey_address": "bc1qnt0cmk9zna2fv47jhucaev7lalzs5sq9m3yavdkw98npnrtxqwss9d24pw",
        "value": 30000
      },
      "scriptsig": "",
      "scriptsig_asm": "",
      "witness": [
        "",
        "304402204f0ea1a9dc61dccd8874bd420060929cc21dd0b6ea2ddcd1fb8dabcc2ff532ca0220546baccc94c63cf8ad913763ec0dd7602837f71f4271087ebc3884e400b3ff7e01",
        "30440220039d97d571c96440de1a49a1f05cca88b5ad53271af9d5a77e93f2b548185851022053afd5412cf025868e313281ebc74348766e9edeb594a7bfb5eb745f4d73a4b201",
        "52210241138f9570c0cf7a91ed8f60b28ada6c77e6203339f0d13ae41fc431e25763492102944259faa6a3bc5c4403b55c8675e063ec00665e37c050808a18645010ec39f952ae"
      ],
      "is_coinbase": false,
      "sequence": 2162938768,
      "inner_witnessscript_asm": "OP_PUSHNUM_2 OP_PUSHBYTES_33 0241138f9570c0cf7a91ed8f60b28ada6c77e6203339f0d13ae41fc431e2576349 OP_PUSHBYTES_33 02944259faa6a3bc5c4403b55c8675e063ec00665e37c050808a18645010ec39f9 OP_PUSHNUM_2 OP_CHECKMULTISIG"
    }
  ],
  "vout": [
    {
      "scriptpubkey": "0020b641fec4ab9990c569429ac4e4194530513a088742d9cefb60aa5437a72f38e7",
      "scriptpubkey_asm": "OP_0 OP_PUSHBYTES_32 b641fec4ab9990c569429ac4e4194530513a088742d9cefb60aa5437a72f38e7",
      "scriptpubkey_type": "v0_p2wsh",
      "scriptpubkey_address": "bc1qkeqla39tnxgv262zntzwgx29xpgn5zy8gtvua7mq4f2r0fe08rnsrxh0zl",
      "value": 330
    },
    {
      "scriptpubkey": "0020fa0344234fbe1131f5d2570b5a4c0a3a11fcf0220c13585ca569e8551c1bc6aa",
      "scriptpubkey_asm": "OP_0 OP_PUSHBYTES_32 fa0344234fbe1131f5d2570b5a4c0a3a11fcf0220c13585ca569e8551c1bc6aa",
      "scriptpubkey_type": "v0_p2wsh",
      "scriptpubkey_address": "bc1qlgp5gg60hcgnrawj2u945nq28ggleupzpsf4sh99d85928qmc64q0y87ku",
      "value": 330
    },
    {
      "scriptpubkey": "0020f2d8d646a643eda05a075c42cab2ba8a19b865032ee7fb1350f2effa6b88aa13",
      "scriptpubkey_asm": "OP_0 OP_PUSHBYTES_32 f2d8d646a643eda05a075c42cab2ba8a19b865032ee7fb1350f2effa6b88aa13",
      "scriptpubkey_type": "v0_p2wsh",
      "scriptpubkey_address": "bc1q7tvdv34xg0k6qks8t3pv4v463gvmsegr9mnlky6s7thl56ug4gfsmyeqg3",
      "value": 600
    },
    {
      "scriptpubkey": "00201b1c47adaacd9027e6364be10fd43f1bb412485a0f37e0467ab4e22f5177225b",
      "scriptpubkey_asm": "OP_0 OP_PUSHBYTES_32 1b1c47adaacd9027e6364be10fd43f1bb412485a0f37e0467ab4e22f5177225b",
      "scriptpubkey_type": "v0_p2wsh",
      "scriptpubkey_address": "bc1qrvwy0td2ekgz0e3kf0ssl4plrw6pyjz6pum7q3n6kn3z75thyfds0mvrfe",
      "value": 6400
    },
    {
      "scriptpubkey": "00209c54e1227261a605645b8dd297581a03dbcaa79b84298ff10baca8889959ba1a",
      "scriptpubkey_asm": "OP_0 OP_PUSHBYTES_32 9c54e1227261a605645b8dd297581a03dbcaa79b84298ff10baca8889959ba1a",
      "scriptpubkey_type": "v0_p2wsh",
      "scriptpubkey_address": "bc1qn32wzgnjvxnq2ezm3hffwkq6q0du4fumss5clugt4j5g3x2ehgdqjeq2pq",
      "value": 19100
    }
  ],
  "size": 486,
  "weight": 1284,
  "fee": 3240,
  "status": {
    "confirmed": true,
    "block_height": 834460,
    "block_hash": "00000000000000000000484a79b643b2524bbce82e5d8a442013fa5b8905ed98",
    "block_time": 1710307468
  },
  "hex": "02000000000101a550a3132cea9e668b24de908f11a0c8c2e438971f8bf172331a7bd1404de7b7000000000090d3eb80054a01000000000000220020b641fec4ab9990c569429ac4e4194530513a088742d9cefb60aa5437a72f38e74a01000000000000220020fa0344234fbe1131f5d2570b5a4c0a3a11fcf0220c13585ca569e8551c1bc6aa5802000000000000220020f2d8d646a643eda05a075c42cab2ba8a19b865032ee7fb1350f2effa6b88aa1300190000000000002200201b1c47adaacd9027e6364be10fd43f1bb412485a0f37e0467ab4e22f5177225b9c4a0000000000002200209c54e1227261a605645b8dd297581a03dbcaa79b84298ff10baca8889959ba1a040047304402204f0ea1a9dc61dccd8874bd420060929cc21dd0b6ea2ddcd1fb8dabcc2ff532ca0220546baccc94c63cf8ad913763ec0dd7602837f71f4271087ebc3884e400b3ff7e014730440220039d97d571c96440de1a49a1f05cca88b5ad53271af9d5a77e93f2b548185851022053afd5412cf025868e313281ebc74348766e9edeb594a7bfb5eb745f4d73a4b2014752210241138f9570c0cf7a91ed8f60b28ada6c77e6203339f0d13ae41fc431e25763492102944259faa6a3bc5c4403b55c8675e063ec00665e37c050808a18645010ec39f952ae74fd1c20"
}