{
  "txid": "c5f8bc0f398b69700b270a4f8cdc53199f84dafe40f3a09b72e37848aadc2aa1",
  "version": 1,
  "locktime": 0,
  "vin": [
    {
      "txid": "a862a7f7ee2d2b888a8f56f5814270d19ddf55c20da2966d27c7ba3242d8b540",
      "vout": 1,
      "prevout": {
        "scriptpubkey": "76a914aea9af77c78bd115aa4a1d00df4a14e520bd823388ac",
        "scriptpubkey_asm": "OP_DUP OP_HASH160 OP_PUSHBYTES_20 aea9af77c78bd115aa4a1d00df4a14e520bd8233 OP_EQUALVERIFY OP_CHECKSIG",
        "scriptpubkey_type": "p2pkh",
        "scriptpubkey_address": "1GvXrL3HhuXB5eqDw2cLjT8d77nfmdkzw9",
        "value": 9067874
      },
      "scriptsig": "47304402201c2e22c5c01bc35c0ed92be4b329473e15c8d2732d12bbcdec7f2048240845c702206ed6dc74e7701557ca236d26461ca2baf8716935cb06398c446d79d9e8d9e7c70121021af26ad967ee96fbbede42812b3f2b3e6c529af01324e0902aff3a6d884d03d7",
      "scriptsig_asm": "OP_PUSHBYTES_71 304402201c2e22c5c01bc35c0ed92be4b329473e15c8d2732d12bbcdec7f2048240845c702206ed6dc74e7701557ca236d26461ca2baf8716935cb06398c446d79d9e8d9e7c701 OP_PUSHBYTES_33 021af26ad967ee96fbbede42812b3f2b3e6c529af01324e0902aff3a6d884d03d7",
      "is_coinbase": false,
      "sequence": 4294967295
    }
  ],
  "vout": [
    {
      "scriptpubkey": "a914a514f895889102cadc9b0b541c030980d9a269eb87",
      "scriptpubkey_asm": "OP_HASH160 OP_PUSHBYTES_20 a514f895889102cadc9b0b541c030980d9a269eb OP_EQUAL",
      "scriptpubkey_type": "p2sh",
      "scriptpubkey_address": "3GjtYHh6zqZaEctDZx8qrrs7QSTa63Usxp",
      "value": 68193
    },
    {
      "scriptpubkey": "76a914aea9af77c78bd115aa4a1d00df4a14e520bd823388ac",
      "scriptpubkey_asm": "OP_DUP OP_HASH160 OP_PUSHBYTES_20 aea9af77c78bd115aa4a1d00df4a14e520bd8233 OP_EQUALVERIFY OP_CHECKSIG",
      "scriptpubkey_type": "p2pkh",
      "scriptpubkey_address": "1GvXrL3HhuXB5eqDw2cLjT8d77nfmdkzw9",
      "value": 8995161
    }
  ],
  "size": 223,
  "weight": 892,
  "fee": 4520,
  "status": {
    "confirmed": true,
    "block_height": 834638,
    "block_hash": "000000000000000000025f742c626208ac87e0b7d15054abb4a19ca2d735a54e",
    "block_time": 1710405325
  },
  "hex": "010000000140b5d84232bac7276d96a20dc255df9dd1704281f5568f8a882b2deef7a762a8010000006a47304402201c2e22c5c01bc35c0ed92be4b329473e15c8d2732d12bbcdec7f2048240845c702206ed6dc74e7701557ca236d26461ca2baf8716935cb06398c446d79d9e8d9e7c70121021af26ad967ee96fbbede42812b3f2b3e6c529af01324e0902aff3a6d884d03d7ffffffff02610a01000000000017a914a514f895889102cadc9b0b541c030980d9a269eb8759418900000000001976a914aea9af77c78bd115aa4a1d00df4a14e520bd823388ac00000000"
}