{
  "txid": "c5ffcfed21367f36ae6e0f2498ad2fbc8b468f3549973edbe9061e73b2591256",
  "version": 2,
  "locktime": 0,
  "vin": [
    {
      "txid": "c83cfe6b93b0d690a1a97143cf64f69f9ca7316f43b254c6fbc03012158d6d67",
      "vout": 0,
      "prevout": {
        "scriptpubkey": "5120a83962c216b82ef6c53378969deabf6e19e59820102d029b1e5fdcc35edf532c",
        "scriptpubkey_asm": "OP_PUSHNUM_1 OP_PUSHBYTES_32 a83962c216b82ef6c53378969deabf6e19e59820102d029b1e5fdcc35edf532c",
        "scriptpubkey_type": "v1_p2tr",
        "scriptpubkey_address": "bc1p4quk9sskhqh0d3fn0ztfm64ldcv7txpqzqks9xc7tlwvxhkl2vkqdezsly",
        "value": 3375
      },
      "scriptsig": "",
      "scriptsig_asm": "",
      "witness": [
        "a46fc301631c194d30aeeb4f0c575be3cc4af916586c9703e38234dff94d6d1ee5e55aae43fd7a4276846acce1ff21cefd6781dfaec24131d86b2dbb93b327c4",
        "2079dc84a005228f6b7a6cc9e61cdc81f8962b1cb1e6fbb0f2bf8bcb193b45ad6bac0063036f7264010117746578742f68746d6c3b636861727365743d7574662d38004cbb3c736372697074207372633d222f636f6e74656e742f6439313635306139313165323763353430326666643435383933623137303233653065646538636236393132616131316665653062626232363464653262666469302220646174612d703d226530653066623162353239373166316330316665396135373830343236613034373439346238343933333538623365333230623430393037646430326262653669302c73732c372c37392c302c6c223e3c2f7363726970743e68",
        "c079dc84a005228f6b7a6cc9e61cdc81f8962b1cb1e6fbb0f2bf8bcb193b45ad6b"
      ],
      "is_coinbase": false,
      "sequence": 4294967293
    }
  ],
  "vout": [
    {
      "scriptpubkey": "51205e86d2cfca1917153b64552781de1c8de4d395dd9b1f6edc9183d92a820822b2",
      "scriptpubkey_asm": "OP_PUSHNUM_1 OP_PUSHBYTES_32 5e86d2cfca1917153b64552781de1c8de4d395dd9b1f6edc9183d92a820822b2",
      "scriptpubkey_type": "v1_p2tr",
      "scriptpubkey_address": "bc1pt6rd9n72ryt32wmy25ncrhsu3hjd89wanv0kahy3s0vj4qsgy2eq23qupl",
      "value": 600
    }
  ],
  "size": 456,
  "weight": 738,
  "fee": 2775,
  "status": {
    "confirmed": true,
    "block_height": 834638,
    "block_hash": "000000000000000000025f742c626208ac87e0b7d15054abb4a19ca2d735a54e",
    "block_time": 1710405325
  },
  "hex": "02000000000101676d8d151230c0fbc654b2436f31a79c9ff664cf4371a9a190d6b0936bfe3cc80000000000fdffffff0158020000000000002251205e86d2cfca1917153b64552781de1c8de4d395dd9b1f6edc9183d92a820822b20340a46fc301631c194d30aeeb4f0c575be3cc4af916586c9703e38234dff94d6d1ee5e55aae43fd7a4276846acce1ff21cefd6781dfaec24131d86b2dbb93b327c4fd01012079dc84a005228f6b7a6cc9e61cdc81f8962b1cb1e6fbb0f2bf8bcb193b45ad6bac0063036f7264010117746578742f68746d6c3b636861727365743d7574662d38004cbb3c736372697074207372633d222f636f6e74656e742f6439313635306139313165323763353430326666643435383933623137303233653065646538636236393132616131316665653062626232363464653262666469302220646174612d703d226530653066623162353239373166316330316665396135373830343236613034373439346238343933333538623365333230623430393037646430326262653669302c73732c372c37392c302c6c223e3c2f7363726970743e6821c079dc84a005228f6b7a6cc9e61cdc81f8962b1cb1e6fbb0f2bf8bcb193b45ad6b00000000"
}