{
  "txid": "c667fd8e84af84527e613f8defd4c8ad29d4db17107c120f64aa30bdddf28f79",
  "version": 2,
  "locktime": 0,
  "vin": [
    {
      "txid": "2b7ec05ec2b73d0853db50619ac026ef5eaf6767c2bff444210dc96505092442",
      "vout": 13,
      "prevout": {
        "scriptpubkey": "512008bfcb0d3cc21ce2af4e81bce81465473e4433e56bc37ac40ca9d74af00abeb4",
        "scriptpubkey_asm": "OP_PUSHNUM_1 OP_PUSHBYTES_32 08bfcb0d3cc21ce2af4e81bce81465473e4433e56bc37ac40ca9d74af00abeb4",
        "scriptpubkey_type": "v1_p2tr",
        "scriptpubkey_address": "bc1ppzlukrfucgww9t6wsx7ws9r9gulygvl9d0ph43qv48t54uq2h66qhrfymh",
        "value": 106000
      },
      "scriptsig": "",
      "scriptsig_asm": "",
      "witness": [
        "8869ad491fb5bbfeef0867309bc7c9f8bf2d2e14d22db1d89f05cd67906d085d1377c154599dc3f69256d904d88a46a6d2a3f99f233f16878c809cb9f2f7b898"
      ],
      "is_coinbase": false,
      "sequence": 4294967295
    }
  ],
  "vout": [
    {
      "scriptpubkey": "512008bfcb0d3cc21ce2af4e81bce81465473e4433e56bc37ac40ca9d74af00abeb4",
      "scriptpubkey_asm": "OP_PUSHNUM_1 OP_PUSHBYTES_32 08bfcb0d3cc21ce2af4e81bce81465473e4433e56bc37ac40ca9d74af00abeb4",
      "scriptpubkey_type": "v1_p2tr",
      "scriptpubkey_address": "bc1ppzlukrfucgww9t6wsx7ws9r9gulygvl9d0ph43qv48t54uq2h66qhrfymh",
      "value": 600
    },
    {
      "scriptpubkey": "512008bfcb0d3cc21ce2af4e81bce81465473e4433e56bc37ac40ca9d74af00abeb4",
      "scriptpubkey_asm": "OP_PUSHNUM_1 OP_PUSHBYTES_32 08bfcb0d3cc21ce2af4e81bce81465473e4433e56bc37ac40ca9d74af00abeb4",
      "scriptpubkey_type": "v1_p2tr",
      "scriptpubkey_address": "bc1ppzlukrfucgww9t6wsx7ws9r9gulygvl9d0ph43qv48t54uq2h66qhrfymh",
      "value": 600
    },
    {
      "scriptpubkey": "512008bfcb0d3cc21ce2af4e81bce81465473e4433e56bc37ac40ca9d74af00abeb4",
      "scriptpubkey_asm": "OP_PUSHNUM_1 OP_PUSHBYTES_32 08bfcb0d3cc21ce2af4e81bce81465473e4433e56bc37ac40ca9d74af00abeb4",
      "scriptpubkey_type": "v1_p2tr",
      "scriptpubkey_address": "bc1ppzlukrfucgww9t6wsx7ws9r9gulygvl9d0ph43qv48t54uq2h66qhrfymh",
      "value": 101648
    }
  ],
  "size": 248,
  "weight": 788,
  "fee": 3152,
  "status": {
    "confirmed": true,
    "block_height": 834638,
    "block_hash": "000000000000000000025f742c626208ac87e0b7d15054abb4a19ca2d735a54e",
    "block_time": 1710405325
  },
  "hex": "020000000001014224090565c90d2144f4bfc26767af5eef26c09a6150db53083db7c25ec07e2b0d00000000ffffffff03580200000000000022512008bfcb0d3cc21ce2af4e81bce81465473e4433e56bc37ac40ca9d74af00abeb4580200000000000022512008bfcb0d3cc21ce2af4e81bce81465473e4433e56bc37ac40ca9d74af00abeb4108d01000000000022512008bfcb0d3cc21ce2af4e81bce81465473e4433e56bc37ac40ca9d74af00abeb401408869ad491fb5bbfeef0867309bc7c9f8bf2d2e14d22db1d89f05cd67906d085d1377c154599dc3f69256d904d88a46a6d2a3f99f233f16878c809cb9f2f7b89800000000"
}