{
  "txid": "c685209916e58ab1377d531a6395edd26eb65c4eb2c8d0647ba452322ae93161",
  "version": 2,
  "locktime": 0,
  "vin": [
    {
      "txid": "bfaf872a9ec5fe01885051ab0ad65f8d1403b0f9fbae845cb84be0c31de61da8",
      "vout": 3,
      "prevout": {
        "scriptpubkey": "5120cd1d7cf6666da5073b2ca884abf0955839d289e0cc575bd1e79ec491b421064a",
        "scriptpubkey_asm": "OP_PUSHNUM_1 OP_PUSHBYTES_32 cd1d7cf6666da5073b2ca884abf0955839d289e0cc575bd1e79ec491b421064a",
        "scriptpubkey_type": "v1_p2tr",
        "scriptpubkey_address": "bc1pe5wheanxdkjswwev4zz2huy4tqua9z0qe3t4h508nmzfrdppqe9q4yf8xx",
        "value": 1711
      },
      "scriptsig": "",
      "scriptsig_asm": "",
      "witness": [
        "02",
        "750063036f726401010a746578742f706c61696e00367b2270223a226272632d3230222c226f70223a226d696e74222c227469636b223a2261616161222c22616d74223a223130303030227d6851",
        "c11867ace60af4739c9066a71109304e22bafa1dff5fc016781ed116f39ece057b"
      ],
      "is_coinbase": false,
      "sequence": 4294967295
    }
  ],
  "vout": [
    {
      "scriptpubkey": "0014a40897ac0756778584e7dbe457cca54abc6daf4c",
      "scriptpubkey_asm": "OP_0 OP_PUSHBYTES_20 a40897ac0756778584e7dbe457cca54abc6daf4c",
      "scriptpubkey_type": "v0_p2wpkh",
      "scriptpubkey_address": "bc1q5syf0tq82emctp88m0j90n99f27xmt6v2f79lx",
      "value": 294
    }
  ],
  "size": 200,
  "weight": 446,
  "fee": 1417,
  "status": {
    "confirmed": true,
    "block_height": 834460,
    "block_hash": "00000000000000000000484a79b643b2524bbce82e5d8a442013fa5b8905ed98",
    "block_time": 1710307468
  },
  "hex": "02000000000101a81de61dc3e04bb85c84aefbf9b003148d5fd60aab51508801fec59e2a87afbf0300000000ffffffff012601000000000000160014a40897ac0756778584e7dbe457cca54abc6daf4c0301024e750063036f726401010a746578742f706c61696e00367b2270223a226272632d3230222c226f70223a226d696e74222c227469636b223a2261616161222c22616d74223a223130303030227d685121c11867ace60af4739c9066a71109304e22bafa1dff5fc016781ed116f39ece057b00000000"
}