{
  "txid": "c692455532dc6993bf554067fbd46f22f75820b4f86d25bc80f34949fc2a5ea4",
  "version": 2,
  "locktime": 0,
  "vin": [
    {
      "txid": "bb3bde6ced744d26015e173d055addb10f9d232c36c804d1b380b10fe4581e8a",
      "vout": 0,
      "prevout": {
        "scriptpubkey": "5120974dd4d07cc6a6d593a1341543b237da1a8fbd1b8414dae1be115a1c20916c67",
        "scriptpubkey_asm": "OP_PUSHNUM_1 OP_PUSHBYTES_32 974dd4d07cc6a6d593a1341543b237da1a8fbd1b8414dae1be115a1c20916c67",
        "scriptpubkey_type": "v1_p2tr",
        "scriptpubkey_address": "bc1pjaxaf5ruc6ndtyapxs258v3hmgdgl0gmss2d4cd7z9dpcgy3d3nsaknuuu",
        "value": 33588
      },
      "scriptsig": "",
      "scriptsig_asm": "",
      "witness": [
        "dc118cae914c115ceb789e02fb147abb6b658ab79ed4aa8daed3f2eedd5d446c664c520230042dd2a3afb0ef1ccac1a005ad84dc1e34e0c214b28fb9bf14ef0d",
        "20f2d00e1cce0b839d2e197679cac7a15152ec244338032c7767f72c1332d49a65ac0063036f7264010109696d6167652f706e67004d080289504e470d0a1a0a0000000d49484452000000c8000000c80806000000ad58ae9e000000097048597300002e2300002e230178a53f7600000e7d49444154789ced9ddd8edcb81185ebfddf28f7b9cbd5e66e030449bcce2e02bbdbb0c75e3bded80cd4b00c59239255649155244f01c4ae67f443b1cea753a434dd146e14d03006d0005d8e01616000073440d13100209d01212a6b1031998c0100710a0460211737050032081470160220d6778b51a040094670106bc18f0206e62ad436bfd6021bb53d136608e6707cef8b83f1099334005209c60ec731ac0101280440bcb8c65564852b0840427090d1e0288ddafd4be1b11ebb30704389a50c478d5bb48404a01000b1760e96488d41b1be2387c11a1ca4231cad6101240440bade3d0442ae5a6d621e1f90101c640438ae7e5ebddaa4187012428935726985728bc6d18275073c360e1c5a60b484084e4200a4151c2dca282d28a4f0b0cee3e0c6141c363808c33d3c8091db36070a202100d2d23d7ab849ee1c350140088068c15152e2b428a5b40390104a2c4d407a80d11310404200a4051ca3432185c47a621c1c354cd213738f9e20f4860790100029710fae804a01f1e22c00840048cde4dc4b2955e24457fb03124289a5b572e5ad71effe29584a20090ee600d66de93988b5f04b5c27b7add4b1000801909901d1083808c1414682e34af82510d5024228b3d62db14603432272ce4d0802b65c4882835c99eac4ba03abc35113d2e3a4ce9dede76dcdb60420e7445b43c111b61648dcf38bfb7d5ba30d0d082761d600f4804902462948b42828c302724c782c51d682ee0d4a0ba06871488604e42c80ab24cd267e89b06b02a01000e188534be4da026e756c15b86ff3b5e11c2425c25a07d11252cb68754ec041e3031213c319905ea54eabf2a9557f5b9c9726768fe500692d3e0d307b43a1d5ffe0401f4b03921385c4416ac4d053742d2068d1470220f660e4c4724c5489f83c0bb845688e517070036da6bf19e0e000921348a980460146e35a0880f4137cee0e24159d149096c2b286a6455f694138ba39482f619d13d6e2f8a3b5acc02baf373810f1d080f4bc935e25ad258c1e5baabf2dae2d3810f19080b40083238658d2344426ed9f150c2dfa1e22e3682de02101e90147ecf8b9c45909b0245a817bf533ae3bd0622ea20e482b717185cc4dda48a0d406fb3a85373f02203ee03827f9fcb3ab6dd90e37212cac6bb93f6f0084da398886806262ccba452520a33a4b4d5faf00e1404270101f707000c91dab04901fb6bbd7c1a201930482927369b848b8cddbaa1da4a500cedb488f5903c833e10cb8b4cb1e2fa193d0422e620a0837e99c735c41a50d08b7efde81a82db70880b485432a809c3892ae93496e091ca5d7e505885a480880f8708eabed39c739fe5e0ac8a54898f1af9ffef3f8efbb571fc2eb17ef1ecd2b104d0802b1e0404200a41e106e4924299f6280c48e7705416b403e7df8fcfddfdbffefa06c6d03a777a45cb9141202203a8048b6e18a3f95648e8ba4008996198c78fde26df8e94ffff8c1358e7174959eb0e4c6f6721fb8485099a4a720e03a44ecae5f5a7e5c017204410a082736a7f8f9cf2f1fed5c56c5b63f03d30a9a5c691add0f2e125401c9cd0f38494c412185e4522409406a4aab4ddcbffded1efefe97df8ae613e752ecaa1d4b3749c46e18ecb1bc5f975bab94596acbbc5a2e12db470a5b2f408e22ce5d2f1718093829d7c98d237b4cef17e30340ea5de42a219c64728e953b0ee7f8b5806cfb6f224d1e9fd1b792b88287e3169c9bd1b3ebbcafeb222aef62690072de36b78d747f6d40f6fdf73b38f74ecd1d8b92381efb0c0c0796e871ef00440d90d23b3f77dbdcdd99bb6f0d2029a1a5ce1513a94670ce93eb63ac5c2300a2eb2225e2956c5b7a776e0108f79a5bbb89a44fb17d62731c02206d01392743926ca928c4db3702e46a3bc9be92e08227b9791de7382400e438a63334d5bf28b480441ab580485c20f6fbd6801c7f76b52da78f3f6c738f3f4405208d4a2d49e23d0222e91f0790d2eb4c4158b3ff0fdbdc01c8322e5203c8d55d5a72deab7f6b02923a5fae5fc99cdd01c8122e922a0772806808f9eadf35c7d52cd38ec7bbfcdd9d5f621dc775f4d6fc637f6a5d64df5e2bf91240f6f658c95176b3ab92abf69a34fa244d080286840088998bb404430208e70544ad3ed65c5bcb7e50e20faae0201d4b2dada44741489402dc32423b0008ad556295965a3542e45abd774024c7d7ec573657773848774892a54f415253605cf5e7d9ef00881a2034c944dde4eb0f7222af8143d2178f8094ee67e92061e27948b76f9892945a92444a9301400048f00e48cc454ae0a802757007a9dd37761c3808f50724e722e2046af4a110104d486a8fabd127cef5114a2c9f9068d7b65a806841527b3c8d3e718f418939c8acf310936fb96525a3d160970012ed4f65681dafe63892eb2200e203909677224d40ac44ad752ce9f51000b17791d6365d0a48ac6f1aa2eced46a5d74100a41f2047b14693dc1a4c45406a44d90290d871537dd83fa125799e3b7f0ed2534bcd346ade8158626ffe00918a3db79d161c92bea5e02801842687c42520bdce570a488d105bc251dab72d0008f9046417ed31b92300a201498fe09e7bff9086ecf1ee70103317392694255c63405202b402a22638806c8112cb1a92c41f2fd582a20dc85570cb9519010993cd435c94583f0c6a0a8444a2c420dec607e499eb56060021bf807c176f49992380a4c441a490e400a911f455397a55c6959c03809073402a44c9858463fd2d0129999b9cb7e5cc754ae63e0084fc02221564e99cc4129092897c4efc1c4824fde60431c67b9679884b4024c99142d20390f39269c9f2af741f0d4800088d0d486e8ee0054d0802905a816b01222de50008f904a4448857db4bad5f1b9016a2ee09494b4068d0326b58403412a709c8590cb96f789a1d9030c93c0480280192135bab32ea781cee310108ad070877a26e05480c142d4738ff3f002138480c0caf8068b8440a90d8bfb92ed2bac4a201cbac611da474a9d72b20dced72ae111d2f0340c204f3101780b4780ee2119047ff13ce70b50d67ee70dc8f13b1e301101a03909820af9e7b9c7f9e82846bf93d01b9126c0c22ad88410740c82f205c482e13ce74120f80b0ae47e01ab5e7680d4860bab6d7e61a909c38a5a5d66880b40e2d4048e1fd37afcd152029486a9b0492550039470d20c458cdb2d6d61480d442924a620c126f803cfa3f2020945918b1d6d534809440c24964cdb95b89cd536800429341e216103628bb132842024064906c91030580f40445f09c405a2f6b4132b3836c515ad65adf70c5bab3ee4071c7330fdb8e2199c46b02b2fde1d44a80ec9182c45a37cb00f27dc0f7a4084bad9236fb47ff6801b245ac1cb6d6cc728048de478a260e80a803b20500710249cd136800d20e909a39a09736b483a45ca46469f6181acbbc2b9758e70020de2029147634a1c20020734032bc831c21d1741100d2666c462bb7a60224e62225a0009002a14f08c934809c2139ba0877e9566b8977b5128b9440b1d6cff4801c21e102d262897735404283bfe5b1d6d1b4803c83c4089077af3e2c054850faf0714d08026f904c0fc8b3df7502648b5901a18490b5e726d6a04c0948f5a00090624082c217117902058030412989151d244c06090001204d00090a6e9c2c790188bf524b1a2b3b48501a4b00e2000400d21e905051b25a4282120b808800a10aa1d6cce7008803c7c89505d2e4ce58621100b117a6b7560a0900a16207398f371cc4010800c48f83d0c54d0973100730c0417c00b2c5956b6392ee0088154b2ccebb6354b99a14133bf77ccff6eb917b6bf1cd0cc826ba5182f3f63135024402091cc4011000e4797cfaf0590d90e89ca20194d5b9b716df086d150789f5f7d387cfe1d79f6f8fdfd78a35bb32750a00e200000012b2707cfaf629915a80e45a0a92aeb9b716df086d050739f77503e2f5b779c9f123545b01c285a77beeadc5374a5b0990dd355e5f7d53af926863c7f00407000120cf56b0ae5ce3185e840b401c0cce2a0eb2c1f0f6db739092f7b18283fcc041ac076a6240b67e1e27e2b92000624faeb7362320fbd373693f0980d80bd25b9b0990e30a55491000b117e40c4bbd1e01c94dc2394100c45e90dedae880ece594c60b940440ec05e9ad8d0ac8f19986c67726129679edc5e8b19d85c1119c2520c77986663f0880d88bd1633b0b23f62ac659a096cbb6da8092a327dcddf26edd81d14bac0d84db2f4fe1f6f2293cdd7e37fd74f7e33ca3c557501300b117a2d7967be3f47f7f7c099f3ffef110e6fbfbc7f0ea9f6fc3ed4d0802973e80ec6e2579d8270d5a108e47dead3b300b20e7f8f2e56b787afd7b78ffe66368192de619e720672f1076cdbb75076605e4181f9ffe1bdefcfa5e55c49acbb6a92067af9f77cfbb75075600648baf5f4378ffe653b8fffbe9e12c9238964db9c5819e601000b117a6a716158b30ee2f9fd8a5d1f6fbbdf500638bd55d231c736edd81150191bc13f5e2afaf1ead07187bac0e4538e6dcba032b03b2c7ee0e3b00477036387a3f70041c0440b441d17c25e4587aede555af001c0407f1ea241b24e732aae7137994568412cb73a9150b00427665b5755d3f6a9b0d10b80701901e90b400a5f593f22d0008019051dd84f3c9eb3581e71d84126bf4720b80904d296d5dcbcfd25a975badcaacd8b2eeca0f07c331afd61d98a9b504a4d5722f9e961300b106452bb45f37c143418283cce424da937500420064b6724b0b10c041bc3c5ad7ed33b71690684cd60107f173682da2d99b36241a93750042006466486a26eb808364b9b316cf0a4dfb1949e9dfa2030e92e7ce5a3cabb4e49fb07628b3f0ae1595e5cd5a382b354d48249375c041e539b316cd4a4d1310c93311945604406600451af83e416a9f2b6bb1acda34dc24b79a85d28a00c8ca90e456b3505a1100991592dad52cc0413af9b116085abd8b000e6a77038340c72eb7ae967be11e044056032505c8d1450007c141ac45ec0990e3f310ac5a917e3eac0581a6e322700f6a73c34c938240c79f936c80c03d0880588bd60b2067500007b5cb83b510d0ca61c1c49cdadfa820d0791ce53b380efa1b266900643250acfb17266b0064c4a4019000401c08d173837b509f71b64e349a1e28184b022010c135201817828340040021f42e65213a880e1a20000211e04610e02010016e0484120b22c08d20741a83ff0344b06d6f72aea7bf0000000049454e44ae426082680063036f726401011e6170706c69636174696f6e2f6a736f6e3b636861727365743d7574662d38004d5e017b2270223a22766f7264222c2276223a312c227479223a22696e7363222c22636f6c223a2262383533613639326462393765393436363865303137323138346466393431326161306136336331616334626138656531333634646138663834366637306232222c22696964223a2252756e65746172647373222c227075626c223a2231455337623370636a527a4667796969714c7278484b546e43686535364c4a485937222c226e6f6e6365223a323331302c226d696e746572223a226263317039756177723473343674727136346c30616a79633679617971616c396d636c6b637938727a786d73703732323668633063367773676b67353063222c22736967223a2248427866644f5564485170673475623248654e6556345a644848557363386a487178464e3163696b65305673536344366d364d437555647a4c6a464e332b7665374c3954335a5546366841695968676d4d495335662f343d227d68",
        "c1f2d00e1cce0b839d2e197679cac7a15152ec244338032c7767f72c1332d49a65675a92934efa5e4869b2432a3e00abfc6819367af43949c2edc693b32d23ac05"
      ],
      "is_coinbase": false,
      "sequence": 4294967293
    }
  ],
  "vout": [
    {
      "scriptpubkey": "51202f3ae1d615d2c60d57efec898d13a4077e5de3f6c10e311b700f94ad5f0fc69d",
      "scriptpubkey_asm": "OP_PUSHNUM_1 OP_PUSHBYTES_32 2f3ae1d615d2c60d57efec898d13a4077e5de3f6c10e311b700f94ad5f0fc69d",
      "scriptpubkey_type": "v1_p2tr",
      "scriptpubkey_address": "bc1p9uawr4s46trq64l0ajyc6yayqal9mclkcy8rzxmsp7226hc0c6wsgkg50c",
      "value": 1000
    },
    {
      "scriptpubkey": "a914d88afa5bba84515ecba75b9367582017e50045ea87",
      "scriptpubkey_asm": "OP_HASH160 OP_PUSHBYTES_20 d88afa5bba84515ecba75b9367582017e50045ea OP_EQUAL",
      "scriptpubkey_type": "p2sh",
      "scriptpubkey_address": "3MRzNLWfwW82tYdyTRBeu7xzBNSV8cZ6Lb",
      "value": 15728
    },
    {
      "scriptpubkey": "51200705a5767db892e98125775049b1a13dd9ecdc8aea0df413cabbee683e871012",
      "scriptpubkey_asm": "OP_PUSHNUM_1 OP_PUSHBYTES_32 0705a5767db892e98125775049b1a13dd9ecdc8aea0df413cabbee683e871012",
      "scriptpubkey_type": "v1_p2tr",
      "scriptpubkey_address": "bc1pquz62anahzfwnqf9wagynvdp8hv7ehy2agxlgy72h0hxs058zqfqk8ksyq",
      "value": 2912
    }
  ],
  "size": 4564,
  "weight": 5071,
  "fee": 13948,
  "status": {
    "confirmed": true,
    "block_height": 834464,
    "block_hash": "0000000000000000000177a0869a911a2b65c9bdcd5a8bcb02b68f305bee848e",
    "block_time": 1710308296
  },
  "hex": "020000000001018a1e58e40fb180b3d104c8362c239d0fb1dd5a053d175e01264d74ed6cde3bbb0000000000fdffffff03e8030000000000002251202f3ae1d615d2c60d57efec898d13a4077e5de3f6c10e311b700f94ad5f0fc69d703d00000000000017a914d88afa5bba84515ecba75b9367582017e50045ea87600b0000000000002251200705a5767db892e98125775049b1a13dd9ecdc8aea0df413cabbee683e8710120340dc118cae914c115ceb789e02fb147abb6b658ab79ed4aa8daed3f2eedd5d446c664c520230042dd2a3afb0ef1ccac1a005ad84dc1e34e0c214b28fb9bf14ef0dfda21020f2d00e1cce0b839d2e197679cac7a15152ec244338032c7767f72c1332d49a65ac0063036f7264010109696d6167652f706e67004d080289504e470d0a1a0a0000000d49484452000000c8000000c80806000000ad58ae9e000000097048597300002e2300002e230178a53f7600000e7d49444154789ced9ddd8edcb81185ebfddf28f7b9cbd5e66e030449bcce2e02bbdbb0c75e3bded80cd4b00c59239255649155244f01c4ae67f443b1cea753a434dd146e14d03006d0005d8e01616000073440d13100209d01212a6b1031998c0100710a0460211737050032081470160220d6778b51a040094670106bc18f0206e62ad436bfd6021bb53d136608e6707cef8b83f1099334005209c60ec731ac0101280440bcb8c65564852b0840427090d1e0288ddafd4be1b11ebb30704389a50c478d5bb48404a01000b1760e96488d41b1be2387c11a1ca4231cad6101240440bade3d0442ae5a6d621e1f90101c640438ae7e5ebddaa4187012428935726985728bc6d18275073c360e1c5a60b484084e4200a4151c2dca282d28a4f0b0cee3e0c6141c363808c33d3c8091db36070a202100d2d23d7ab849ee1c350140088068c15152e2b428a5b40390104a2c4d407a80d11310404200a4051ca3432185c47a621c1c354cd213738f9e20f4860790100029710fae804a01f1e22c00840048cde4dc4b2955e24457fb03124289a5b572e5ad71effe29584a20090ee600d66de93988b5f04b5c27b7add4b1000801909901d1083808c1414682e34af82510d5024228b3d62db14603432272ce4d0802b65c4882835c99eac4ba03abc35113d2e3a4ce9dede76dcdb60420e7445b43c111b61648dcf38bfb7d5ba30d0d082761d600f4804902462948b42828c302724c782c51d682ee0d4a0ba06871488604e42c80ab24cd267e89b06b02a01000e188534be4da026e756c15b86ff3b5e11c2425c25a07d11252cb68754ec041e3031213c319905ea54eabf2a9557f5b9c9726768fe500692d3e0d307b43a1d5ffe0401f4b03921385c4416ac4d053742d2068d1470220f660e4c4724c5489f83c0bb845688e517070036da6bf19e0e000921348a980460146e35a0880f4137cee0e24159d149096c2b286a6455f694138ba39482f619d13d6e2f8a3b5acc02baf373810f1d080f4bc935e25ad258c1e5baabf2dae2d3810f19080b40083238658d2344426ed9f150c2dfa1e22e3682de02101e90147ecf8b9c45909b0245a817bf533ae3bd0622ea20e482b717185cc4dda48a0d406fb3a85373f02203ee03827f9fcb3ab6dd90e37212cac6bb93f6f0084da398886806262ccba452520a33a4b4d5faf00e1404270101f707000c91dab04901fb6bbd7c1a201930482927369b848b8cddbaa1da4a500cedb488f5903c833e10cb8b4cb1e2fa193d0422e620a0837e99c735c41a50d08b7efde81a82db70880b485432a809c3892ae93496e091ca5d7e505885a480880f8708eabed39c739fe5e0ac8a54898f1af9ffef3f8efbb571fc2eb17ef1ecd2b104d0802b1e0404200a41e106e4924299f6280c48e7705416b403e7df8fcfddfdbffefa06c6d03a777a45cb9141202203a8048b6e18a3f95648e8ba4008996198c78fde26df8e94ffff8c1358e7174959eb0e4c6f6721fb8485099a4a720e03a44ecae5f5a7e5c017204410a082736a7f8f9cf2f1fed5c56c5b63f03d30a9a5c691add0f2e125401c9cd0f38494c412185e4522409406a4aab4ddcbffded1efefe97df8ae613e752ecaa1d4b3749c46e18ecb1bc5f975bab94596acbbc5a2e12db470a5b2f408e22ce5d2f1718093829d7c98d237b4cef17e30340ea5de42a219c64728e953b0ee7f8b5806cfb6f224d1e9fd1b792b88287e3169c9bd1b3ebbcafeb222aef62690072de36b78d747f6d40f6fdf73b38f74ecd1d8b92381efb0c0c0796e871ef00440d90d23b3f77dbdcdd99bb6f0d2029a1a5ce1513a94670ce93eb63ac5c2300a2eb2225e2956c5b7a776e0108f79a5bbb89a44fb17d62731c02206d01392743926ca928c4db3702e46a3bc9be92e08227b9791de7382400e438a63334d5bf28b480441ab580485c20f6fbd6801c7f76b52da78f3f6c738f3f4405208d4a2d49e23d0222e91f0790d2eb4c4158b3ff0fdbdc01c8322e5203c8d55d5a72deab7f6b02923a5fae5fc99cdd01c8122e922a0772806808f9eadf35c7d52cd38ec7bbfcdd9d5f621dc775f4d6fc637f6a5d64df5e2bf91240f6f658c95176b3ab92abf69a34fa244d080286840088998bb404430208e70544ad3ed65c5bcb7e50e20faae0201d4b2dada44741489402dc32423b0008ad556295965a3542e45abd774024c7d7ec573657773848774892a54f415253605cf5e7d9ef00881a2034c944dde4eb0f7222af8143d2178f8094ee67e92061e27948b76f9892945a92444a9301400048f00e48cc454ae0a802757007a9dd37761c3808f50724e722e2046af4a110104d486a8fabd127cef5114a2c9f9068d7b65a806841527b3c8d3e718f418939c8acf310936fb96525a3d160970012ed4f65681dafe63892eb2200e203909677224d40ac44ad752ce9f51000b17791d6365d0a48ac6f1aa2eced46a5d74100a41f2047b14693dc1a4c45406a44d90290d871537dd83fa125799e3b7f0ed2534bcd346ade8158626ffe00918a3db79d161c92bea5e02801842687c42520bdce570a488d105bc251dab72d0008f9046417ed31b92300a201498fe09e7bff9086ecf1ee70103317392694255c63405202b402a22638806c8112cb1a92c41f2fd582a20dc85570cb9519010993cd435c94583f0c6a0a8444a2c420dec607e499eb56060021bf807c176f49992380a4c441a490e400a911f455397a55c6959c03809073402a44c9858463fd2d0129999b9cb7e5cc754ae63e0084fc02221564e99cc4129092897c4efc1c4824fde60431c67b9679884b4024c99142d20390f39269c9f2af741f0d4800088d0d486e8ee0054d0802905a816b01222de50008f904a4448857db4bad5f1b9016a2ee09494b4068d0326b58403412a709c8590cb96f789a1d9030c93c0480280192135bab32ea781cee310108ad070877a26e05480c142d4738ff3f002138480c0caf8068b8440a90d8bfb92ed2bac4a201cbac611da474a9d72b20dced72ae111d2f0340c204f3101780b4780ee2119047ff13ce70b50d67ee70dc8f13b1e301101a03909820af9e7b9c7f9e82846bf93d01b9126c0c22ad88410740c82f205c482e13ce74120f80b0ae47e01ab5e7680d4860bab6d7e61a909c38a5a5d66880b40e2d4048e1fd37afcd152029486a9b0492550039470d20c458cdb2d6d61480d442924a620c126f803cfa3f2020945918b1d6d534809440c24964cdb95b89cd536800429341e216103628bb132842024064906c91030580f40445f09c405a2f6b4132b3836c515ad65adf70c5bab3ee4071c7330fdb8e2199c46b02b2fde1d44a80ec9182c45a37cb00f27dc0f7a4084bad9236fb47ff6801b245ac1cb6d6cc728048de478a260e80a803b20500710249cd136800d20e909a39a09736b483a45ca46469f6181acbbc2b9758e70020de2029147634a1c20020734032bc831c21d1741100d2666c462bb7a60224e62225a0009002a14f08c934809c2139ba0877e9566b8977b5128b9440b1d6cff4801c21e102d262897735404283bfe5b1d6d1b4803c83c4089077af3e2c054850faf0714d08026f904c0fc8b3df7502648b5901a18490b5e726d6a04c0948f5a00090624082c217117902058030412989151d244c06090001204d00090a6e9c2c790188bf524b1a2b3b48501a4b00e2000400d21e905051b25a4282120b808800a10aa1d6cce7008803c7c89505d2e4ce58621100b117a6b7560a0900a16207398f371cc4010800c48f83d0c54d0973100730c0417c00b2c5956b6392ee0088154b2ccebb6354b99a14133bf77ccff6eb917b6bf1cd0cc826ba5182f3f63135024402091cc4011000e4797cfaf0590d90e89ca20194d5b9b716df086d150789f5f7d387cfe1d79f6f8fdfd78a35bb32750a00e200000012b2707cfaf629915a80e45a0a92aeb9b716df086d050739f77503e2f5b779c9f123545b01c285a77beeadc5374a5b0990dd355e5f7d53af926863c7f00407000120cf56b0ae5ce3185e840b401c0cce2a0eb2c1f0f6db739092f7b18283fcc041ac076a6240b67e1e27e2b92000624faeb7362320fbd373693f0980d80bd25b9b0990e30a55491000b117e40c4bbd1e01c94dc2394100c45e90dedae880ece594c60b940440ec05e9ad8d0ac8f19986c67726129679edc5e8b19d85c1119c2520c77986663f0880d88bd1633b0b23f62ac659a096cbb6da8092a327dcddf26edd81d14bac0d84db2f4fe1f6f2293cdd7e37fd74f7e33ca3c557501300b117a2d7967be3f47f7f7c099f3ffef110e6fbfbc7f0ea9f6fc3ed4d0802973e80ec6e2579d8270d5a108e47dead3b300b20e7f8f2e56b787afd7b78ffe66368192de619e720672f1076cdbb75076605e4181f9ffe1bdefcfa5e55c49acbb6a92067af9f77cfbb75075600648baf5f4378ffe653b8fffbe9e12c9238964db9c5819e601000b117a6a716158b30ee2f9fd8a5d1f6fbbdf500638bd55d231c736edd81150191bc13f5e2afaf1ead07187bac0e4538e6dcba032b03b2c7ee0e3b00477036387a3f70041c0440b441d17c25e4587aede555af001c0407f1ea241b24e732aae7137994568412cb73a9150b00427665b5755d3f6a9b0d10b80701901e90b400a5f593f22d0008019051dd84f3c9eb3581e71d84126bf4720b80904d296d5dcbcfd25a975badcaacd8b2eeca0f07c331afd61d98a9b504a4d5722f9e961300b106452bb45f37c143418283cce424da937500420064b6724b0b10c041bc3c5ad7ed33b71690684cd60107f173682da2d99b36241a93750042006466486a26eb808364b9b316cf0a4dfb1949e9dfa2030e92e7ce5a3cabb4e49fb07628b3f0ae1595e5cd5a382b354d48249375c041e539b316cd4a4d1310c93311945604406600451af83e416a9f2b6bb1acda34dc24b79a85d28a00c8ca90e456b3505a1100991592dad52cc0413af9b116085abd8b000e6a77038340c72eb7ae967be11e044056032505c8d1450007c141ac45ec0990e3f310ac5a917e3eac0581a6e322700f6a73c34c938240c79f936c80c03d0880588bd60b2067500007b5cb83b510d0ca61c1c49cdadfa820d0791ce53b380efa1b266900643250acfb17266b0064c4a4019000401c08d173837b509f71b64e349a1e28184b022010c135201817828340040021f42e65213a880e1a20000211e04610e02010016e0484120b22c08d20741a83ff0344b06d6f72aea7bf0000000049454e44ae426082680063036f726401011e6170706c69636174696f6e2f6a736f6e3b636861727365743d7574662d38004d5e017b2270223a22766f7264222c2276223a312c227479223a22696e7363222c22636f6c223a2262383533613639326462393765393436363865303137323138346466393431326161306136336331616334626138656531333634646138663834366637306232222c22696964223a2252756e65746172647373222c227075626c223a2231455337623370636a527a4667796969714c7278484b546e43686535364c4a485937222c226e6f6e6365223a323331302c226d696e746572223a226263317039756177723473343674727136346c30616a79633679617971616c396d636c6b637938727a786d73703732323668633063367773676b67353063222c22736967223a2248427866644f5564485170673475623248654e6556345a644848557363386a487178464e3163696b65305673536344366d364d437555647a4c6a464e332b7665374c3954335a5546366841695968676d4d495335662f343d227d6841c1f2d00e1cce0b839d2e197679cac7a15152ec244338032c7767f72c1332d49a65675a92934efa5e4869b2432a3e00abfc6819367af43949c2edc693b32d23ac0500000000"
}