{
  "txid": "c69ce636cb3327830439f2cba8657cea64960d3948cfa5fc843f9cbce193f231",
  "version": 2,
  "locktime": 0,
  "vin": [
    {
      "txid": "945ba8d4ae757dce36cd5e5b9cb282a5396c6e6972016ea5d78f63b2e8fe9e52",
      "vout": 22,
      "prevout": {
        "scriptpubkey": "5120b5d90ed1433676c4c4d5656a56466217506349554fd63dca62a1275c5148bcf2",
        "scriptpubkey_asm": "OP_PUSHNUM_1 OP_PUSHBYTES_32 b5d90ed1433676c4c4d5656a56466217506349554fd63dca62a1275c5148bcf2",
        "scriptpubkey_type": "v1_p2tr",
        "scriptpubkey_address": "bc1pkhvsa52rxemvf3x4v449v3nzzagxxj24fltrmjnz5yn4c52ghneqrpycwe",
        "value": 2862
      },
      "scriptsig": "",
      "scriptsig_asm": "",
      "witness": [
        "d7fac37fcd561d9cd7ca6bc402f07a96afedadb83e57c35c4e2b446a2b9fcb122d045660048b75652a588075a43baa34569bd5ece9e8922489f76f49066b4561",
        "20f6e126a684f0d6df9c5f9758110702f6084ef337a7f1be48a664aac8ce7cf7d7ac0063036f726401011e6170706c69636174696f6e2f6a736f6e3b636861727365743d7574662d38004cd37b2270223a22706f772d3230222c226f70223a226d696e74222c227469636b223a2250455045222c22616d74223a2231303030222c22736f6c7574696f6e223a22504550453a62633170367a67656779647861737432786571616535763930396434396a323636786e707a6178776634386336786b736871703766797a717734733761663a303030303030303030303030303030303030303139393431613561653132383937363539383134343239323533333030353762306461393666336465613163353a3637313935353530363933227d68",
        "c05067337a99a00666fd957e65b5c212a7b30f6b410af3fccba2d4635da920c85e"
      ],
      "is_coinbase": false,
      "sequence": 4294967295
    }
  ],
  "vout": [
    {
      "scriptpubkey": "5120d0919411a6ec16a3641dcd185795b52c95ad1a61174ce4d4f8d1ad0b803e4904",
      "scriptpubkey_asm": "OP_PUSHNUM_1 OP_PUSHBYTES_32 d0919411a6ec16a3641dcd185795b52c95ad1a61174ce4d4f8d1ad0b803e4904",
      "scriptpubkey_type": "v1_p2tr",
      "scriptpubkey_address": "bc1p6zgegydxast2xeqae5v909d49j266xnpzaxwf48c6xkshqp7fyzqw4s7af",
      "value": 546
    }
  ],
  "size": 487,
  "weight": 769,
  "fee": 2316,
  "status": {
    "confirmed": true,
    "block_height": 834460,
    "block_hash": "00000000000000000000484a79b643b2524bbce82e5d8a442013fa5b8905ed98",
    "block_time": 1710307468
  },
  "hex": "02000000000101529efee8b2638fd7a56e0172696e6c39a582b29c5b5ecd36ce7d75aed4a85b941600000000ffffffff012202000000000000225120d0919411a6ec16a3641dcd185795b52c95ad1a61174ce4d4f8d1ad0b803e49040340d7fac37fcd561d9cd7ca6bc402f07a96afedadb83e57c35c4e2b446a2b9fcb122d045660048b75652a588075a43baa34569bd5ece9e8922489f76f49066b4561fd200120f6e126a684f0d6df9c5f9758110702f6084ef337a7f1be48a664aac8ce7cf7d7ac0063036f726401011e6170706c69636174696f6e2f6a736f6e3b636861727365743d7574662d38004cd37b2270223a22706f772d3230222c226f70223a226d696e74222c227469636b223a2250455045222c22616d74223a2231303030222c22736f6c7574696f6e223a22504550453a62633170367a67656779647861737432786571616535763930396434396a323636786e707a6178776634386336786b736871703766797a717734733761663a303030303030303030303030303030303030303139393431613561653132383937363539383134343239323533333030353762306461393666336465613163353a3637313935353530363933227d6821c05067337a99a00666fd957e65b5c212a7b30f6b410af3fccba2d4635da920c85e00000000"
}