{
  "txid": "c6a868e0d22945bf46ecb0df469c11a30485da01f6dea71669adbb95a9b3f8bc",
  "version": 1,
  "locktime": 0,
  "vin": [
    {
      "txid": "2fa9cf08cb6b4703272ef719d26a796a230bdac701240587261304a19868c9d0",
      "vout": 0,
      "prevout": {
        "scriptpubkey": "00142a2c19d4316a02c0d23695d57df5c53b2216c54b",
        "scriptpubkey_asm": "OP_0 OP_PUSHBYTES_20 2a2c19d4316a02c0d23695d57df5c53b2216c54b",
        "scriptpubkey_type": "v0_p2wpkh",
        "scriptpubkey_address": "bc1q9gkpn4p3dgpvp53kjh2hmaw98v3pd32t6c5cme",
        "value": 1204692
      },
      "scriptsig": "",
      "scriptsig_asm": "",
      "witness": [
        "30440220084975f784771d7ddb7eae687e84b5f510042247d7e18caa1cd08f7db4ca17de02202eb07b12c63f30d3186894800dd3828bad26c103b27d59464a0edaf4660864b201",
        "0387478790a8788ca6c0793a6a7314c495b3d064c16ad2ddb99920740707752bab"
      ],
      "is_coinbase": false,
      "sequence": 4294967295
    }
  ],
  "vout": [
    {
      "scriptpubkey": "00140dc6aeb1a45c3b78266e549fbd1033e81420d24c",
      "scriptpubkey_asm": "OP_0 OP_PUSHBYTES_20 0dc6aeb1a45c3b78266e549fbd1033e81420d24c",
      "scriptpubkey_type": "v0_p2wpkh",
      "scriptpubkey_address": "bc1qphr2avdytsahsfnw2j0m6ypnaq2zp5jvmrxhwf",
      "value": 446521
    },
    {
      "scriptpubkey": "00142a2c19d4316a02c0d23695d57df5c53b2216c54b",
      "scriptpubkey_asm": "OP_0 OP_PUSHBYTES_20 2a2c19d4316a02c0d23695d57df5c53b2216c54b",
      "scriptpubkey_type": "v0_p2wpkh",
      "scriptpubkey_address": "bc1q9gkpn4p3dgpvp53kjh2hmaw98v3pd32t6c5cme",
      "value": 753553
    }
  ],
  "size": 222,
  "weight": 561,
  "fee": 4618,
  "status": {
    "confirmed": true,
    "block_height": 834638,
    "block_hash": "000000000000000000025f742c626208ac87e0b7d15054abb4a19ca2d735a54e",
    "block_time": 1710405325
  },
  "hex": "01000000000101d0c96898a104132687052401c7da0b236a796ad219f72e2703476bcb08cfa92f0000000000ffffffff0239d00600000000001600140dc6aeb1a45c3b78266e549fbd1033e81420d24c917f0b00000000001600142a2c19d4316a02c0d23695d57df5c53b2216c54b024730440220084975f784771d7ddb7eae687e84b5f510042247d7e18caa1cd08f7db4ca17de02202eb07b12c63f30d3186894800dd3828bad26c103b27d59464a0edaf4660864b201210387478790a8788ca6c0793a6a7314c495b3d064c16ad2ddb99920740707752bab00000000"
}