{
  "txid": "c6b403a62d1f54a54f425cd3264b12668e50a27728ee86aba5ebab3f9bd2a77e",
  "version": 2,
  "locktime": 834637,
  "vin": [
    {
      "txid": "02f4b018327ca3f8d215299adac125c28b1c870228822ad49b38f131d0e6c5e8",
      "vout": 0,
      "prevout": {
        "scriptpubkey": "00146577a6fba7ba8835814383eec61e3ef675c0fea2",
        "scriptpubkey_asm": "OP_0 OP_PUSHBYTES_20 6577a6fba7ba8835814383eec61e3ef675c0fea2",
        "scriptpubkey_type": "v0_p2wpkh",
        "scriptpubkey_address": "bc1qv4m6d7a8h2yrtq2rs0hvv8377e6upl4zcvln3e",
        "value": 222011
      },
      "scriptsig": "",
      "scriptsig_asm": "",
      "witness": [
        "30440220397eede1e767bd09e84a2d1536d6c764124af809c32f3c8d8a79bc48e0eba3f802204dcc0fe48a9b8449586d5f4b360e7117f9ef6529fa571178784e8abea3ec33eb01",
        "0305be102a140793ae552cd7b60164c0a73a8c2dfddec525f69b94b32238e2099e"
      ],
      "is_coinbase": false,
      "sequence": 4294967293
    },
    {
      "txid": "4ae7b580303ff9b837d063767f019bb7e118a3c808d7086268efcdfaf3ddcc93",
      "vout": 0,
      "prevout": {
        "scriptpubkey": "0014e4ee281e583215758a67e840a4bf0e11e4cc569a",
        "scriptpubkey_asm": "OP_0 OP_PUSHBYTES_20 e4ee281e583215758a67e840a4bf0e11e4cc569a",
        "scriptpubkey_type": "v0_p2wpkh",
        "scriptpubkey_address": "bc1qunhzs8jcxg2htzn8apq2f0cwz8jvc4564xrdvf",
        "value": 216130
      },
      "scriptsig": "",
      "scriptsig_asm": "",
      "witness": [
        "304402207d17eba23f0079b9bf7b687f8e1261de5159ddd9789775d3e5931ff790cde2e502204396b9a4ff08855ce49e854085c311280d0144228930bed19c49be8fdf5fcbcb01",
        "032788d67bf2ebab41d03eb4079eec17773592a07e3d06161ffe35ae8ebbcb50c7"
      ],
      "is_coinbase": false,
      "sequence": 4294967293
    },
    {
      "txid": "f5b6ba8c884ce5db976390e1e7da3a05eff69e235e3d9ebe216f10c3ac726874",
      "vout": 0,
      "prevout": {
        "scriptpubkey": "00148cde518213d3869416d3bc47c1e7392f8115165e",
        "scriptpubkey_asm": "OP_0 OP_PUSHBYTES_20 8cde518213d3869416d3bc47c1e7392f8115165e",
        "scriptpubkey_type": "v0_p2wpkh",
        "scriptpubkey_address": "bc1q3n09rqsn6wrfg9knh3rureee97q329j7ssmlxe",
        "value": 535173
      },
      "scriptsig": "",
      "scriptsig_asm": "",
      "witness": [
        "3044022073b5b651ac587330958061d4762f885b7ab5d0d9b97672aca2d0cd5605d25d3b022007661cb7d1337d88e2235b8d219f0557f6d0006c47d6c5569deb46b9de0a915301",
        "0311f1e1960f2506f910facfae69dc970e2af33da42ae936efe606d827d5d66ffa"
      ],
      "is_coinbase": false,
      "sequence": 4294967293
    }
  ],
  "vout": [
    {
      "scriptpubkey": "0014b6d135e3e4f8e67cc73cf633283756ef59310980",
      "scriptpubkey_asm": "OP_0 OP_PUSHBYTES_20 b6d135e3e4f8e67cc73cf633283756ef59310980",
      "scriptpubkey_type": "v0_p2wpkh",
      "scriptpubkey_address": "bc1qkmgntclylrn8e3eu7cejsd6kaavnzzvqavspyh",
      "value": 965464
    }
  ],
  "size": 487,
  "weight": 979,
  "fee": 7850,
  "status": {
    "confirmed": true,
    "block_height": 834638,
    "block_hash": "000000000000000000025f742c626208ac87e0b7d15054abb4a19ca2d735a54e",
    "block_time": 1710405325
  },
  "hex": "02000000000103e8c5e6d031f1389bd42a822802871c8bc225c1da9a2915d2f8a37c3218b0f4020000000000fdffffff93ccddf3facdef686208d708c8a318e1b79b017f7663d037b8f93f3080b5e74a0000000000fdffffff746872acc3106f21be9e3d5e239ef6ef053adae7e1906397dbe54c888cbab6f50000000000fdffffff0158bb0e0000000000160014b6d135e3e4f8e67cc73cf633283756ef59310980024730440220397eede1e767bd09e84a2d1536d6c764124af809c32f3c8d8a79bc48e0eba3f802204dcc0fe48a9b8449586d5f4b360e7117f9ef6529fa571178784e8abea3ec33eb01210305be102a140793ae552cd7b60164c0a73a8c2dfddec525f69b94b32238e2099e0247304402207d17eba23f0079b9bf7b687f8e1261de5159ddd9789775d3e5931ff790cde2e502204396b9a4ff08855ce49e854085c311280d0144228930bed19c49be8fdf5fcbcb0121032788d67bf2ebab41d03eb4079eec17773592a07e3d06161ffe35ae8ebbcb50c702473044022073b5b651ac587330958061d4762f885b7ab5d0d9b97672aca2d0cd5605d25d3b022007661cb7d1337d88e2235b8d219f0557f6d0006c47d6c5569deb46b9de0a915301210311f1e1960f2506f910facfae69dc970e2af33da42ae936efe606d827d5d66ffa4dbc0c00"
}