{
  "txid": "c6d349263661e18207e994f4d764be32c246ea6610f953786ca1bd866de41e53",
  "version": 2,
  "locktime": 0,
  "vin": [
    {
      "txid": "9447ea161feb971b797441fe8a0c6c6e81187839bdfb0663dd362b3f180eba35",
      "vout": 2,
      "prevout": {
        "scriptpubkey": "5120995d679c9cd7a8b335fd6776c004396c7b964c74db226801b04b65d0fb5823fb",
        "scriptpubkey_asm": "OP_PUSHNUM_1 OP_PUSHBYTES_32 995d679c9cd7a8b335fd6776c004396c7b964c74db226801b04b65d0fb5823fb",
        "scriptpubkey_type": "v1_p2tr",
        "scriptpubkey_address": "bc1pn9wk08yu675txd0avamvqpped3aevnr5mv3xsqdsfdjap76cy0asls8kja",
        "value": 546
      },
      "scriptsig": "",
      "scriptsig_asm": "",
      "witness": [
        "adbe0b746f9a4c6c728f44839d45170ebaf0012d4799f07977386f560259b6ba656c5ec770bce382630fd527e510dd1e4a9f2f6fa17582dbeda3c20d691f4771"
      ],
      "is_coinbase": false,
      "sequence": 4294967295
    },
    {
      "txid": "88042807d4f067bc83f7c31a11a389797f3c3d3213324edffcce32a083d610a6",
      "vout": 2,
      "prevout": {
        "scriptpubkey": "5120995d679c9cd7a8b335fd6776c004396c7b964c74db226801b04b65d0fb5823fb",
        "scriptpubkey_asm": "OP_PUSHNUM_1 OP_PUSHBYTES_32 995d679c9cd7a8b335fd6776c004396c7b964c74db226801b04b65d0fb5823fb",
        "scriptpubkey_type": "v1_p2tr",
        "scriptpubkey_address": "bc1pn9wk08yu675txd0avamvqpped3aevnr5mv3xsqdsfdjap76cy0asls8kja",
        "value": 10518
      },
      "scriptsig": "",
      "scriptsig_asm": "",
      "witness": [
        "aec45eb9f38af4ffb2162dda5f192d6e525137777d6439c4964e8436fa42ad3ee93d9f33e0add3d2f258eac6621128f5286096537ba939e5e3f5c07f2c9be920"
      ],
      "is_coinbase": false,
      "sequence": 4294967295
    }
  ],
  "vout": [
    {
      "scriptpubkey": "5120995d679c9cd7a8b335fd6776c004396c7b964c74db226801b04b65d0fb5823fb",
      "scriptpubkey_asm": "OP_PUSHNUM_1 OP_PUSHBYTES_32 995d679c9cd7a8b335fd6776c004396c7b964c74db226801b04b65d0fb5823fb",
      "scriptpubkey_type": "v1_p2tr",
      "scriptpubkey_address": "bc1pn9wk08yu675txd0avamvqpped3aevnr5mv3xsqdsfdjap76cy0asls8kja",
      "value": 546
    },
    {
      "scriptpubkey": "6a1152554e45414c5048415f5354414b494e47096338323937303835320431303030",
      "scriptpubkey_asm": "OP_RETURN OP_PUSHBYTES_17 52554e45414c5048415f5354414b494e47 OP_PUSHBYTES_9 633832393730383532 OP_PUSHBYTES_4 31303030",
      "scriptpubkey_type": "op_return",
      "value": 0
    },
    {
      "scriptpubkey": "5120995d679c9cd7a8b335fd6776c004396c7b964c74db226801b04b65d0fb5823fb",
      "scriptpubkey_asm": "OP_PUSHNUM_1 OP_PUSHBYTES_32 995d679c9cd7a8b335fd6776c004396c7b964c74db226801b04b65d0fb5823fb",
      "scriptpubkey_type": "v1_p2tr",
      "scriptpubkey_address": "bc1pn9wk08yu675txd0avamvqpped3aevnr5mv3xsqdsfdjap76cy0asls8kja",
      "value": 6956
    }
  ],
  "size": 355,
  "weight": 1018,
  "fee": 3562,
  "status": {
    "confirmed": true,
    "block_height": 834464,
    "block_hash": "0000000000000000000177a0869a911a2b65c9bdcd5a8bcb02b68f305bee848e",
    "block_time": 1710308296
  },
  "hex": "0200000000010235ba0e183f2b36dd6306fbbd397818816e6c0c8afe4174791b97eb1f16ea47940200000000ffffffffa610d683a032cefcdf4e3213323d3c7f7989a3111ac3f783bc67f0d4072804880200000000ffffffff032202000000000000225120995d679c9cd7a8b335fd6776c004396c7b964c74db226801b04b65d0fb5823fb0000000000000000226a1152554e45414c5048415f5354414b494e470963383239373038353204313030302c1b000000000000225120995d679c9cd7a8b335fd6776c004396c7b964c74db226801b04b65d0fb5823fb0140adbe0b746f9a4c6c728f44839d45170ebaf0012d4799f07977386f560259b6ba656c5ec770bce382630fd527e510dd1e4a9f2f6fa17582dbeda3c20d691f47710140aec45eb9f38af4ffb2162dda5f192d6e525137777d6439c4964e8436fa42ad3ee93d9f33e0add3d2f258eac6621128f5286096537ba939e5e3f5c07f2c9be92000000000"
}