{
  "txid": "c6d58952db7976eb09939a35289e4ed251de5b5fcc074726bb4a0e29f0395b1e",
  "version": 1,
  "locktime": 0,
  "vin": [
    {
      "txid": "9896adeabc57d1a2fe149103fa597c38a3edb59a7974171b0fe8b9a080e925e2",
      "vout": 0,
      "prevout": {
        "scriptpubkey": "0014ac72f1c9628877deba4b13ceb1a82ce1dc1cadb5",
        "scriptpubkey_asm": "OP_0 OP_PUSHBYTES_20 ac72f1c9628877deba4b13ceb1a82ce1dc1cadb5",
        "scriptpubkey_type": "v0_p2wpkh",
        "scriptpubkey_address": "bc1q43e0rjtz3pmaawjtz08tr2pvu8wpetd4qrq7s7",
        "value": 961
      },
      "scriptsig": "",
      "scriptsig_asm": "",
      "witness": [
        "3044022057e6e7815d0a749f70d29acbad144836f6c62bd17660e54960474bea7113981c02207182c3abaa4d8b4e40edd3328dd3f5b1f303162c4c11157c702c1b97b594113f01",
        "03a41ee84e0156d230a6b740013dd6edeacd24ace546412e79d9310e9c6c78aa42"
      ],
      "is_coinbase": false,
      "sequence": 4294967295
    },
    {
      "txid": "9ffa8c8e004508bc3b7366dd70a7bf7144d5f7138b5bc9d7b7b25a7f0f4214ee",
      "vout": 0,
      "prevout": {
        "scriptpubkey": "001431b54e35423a875f8d4ad54a76bce4e1f83cbd57",
        "scriptpubkey_asm": "OP_0 OP_PUSHBYTES_20 31b54e35423a875f8d4ad54a76bce4e1f83cbd57",
        "scriptpubkey_type": "v0_p2wpkh",
        "scriptpubkey_address": "bc1qxx65ud2z82r4lr226498d08yu8ure02hjzxc2z",
        "value": 8893
      },
      "scriptsig": "",
      "scriptsig_asm": "",
      "witness": [
        "3045022100c4321e0f7292b86d71cd40d64cf9e41c0688968b1cb51e942ea070e76e418ff702203a06ba94d451edcdb19b579a1ac4a26926cc4b884390128caa0ec2935e1f444001",
        "024beba838290ba7d2e35f2e31fd22b13913e6c87bdbd45094c92c819bf190cd22"
      ],
      "is_coinbase": false,
      "sequence": 4294967295
    },
    {
      "txid": "da76da781c88e41a00d90ec0c857bad4c699a998d2b08db69c9b49efcf84004a",
      "vout": 0,
      "prevout": {
        "scriptpubkey": "001457c009f6e33350c7c743cd02c2dba9385d215059",
        "scriptpubkey_asm": "OP_0 OP_PUSHBYTES_20 57c009f6e33350c7c743cd02c2dba9385d215059",
        "scriptpubkey_type": "v0_p2wpkh",
        "scriptpubkey_address": "bc1q2lqqnahrxdgv036re5pv9kaf8pwjz5ze6n3xn5",
        "value": 3275
      },
      "scriptsig": "",
      "scriptsig_asm": "",
      "witness": [
        "30450221008a99c58684e95d14b2c122078d9f539e216a65f1e97383db0e6991a8127c098c02202f772dff2bb0c5916c1e988bce88b961fe546b6b553c5a89707a3382c01b8a6c01",
        "03cdf114bcaf66ccbfd0c10a2b17273d55d0e3ad6a45bc8a64a9b94b080e8fc420"
      ],
      "is_coinbase": false,
      "sequence": 4294967295
    }
  ],
  "vout": [
    {
      "scriptpubkey": "0014f8d13ce36765fba31698cdca479f63920e91a669",
      "scriptpubkey_asm": "OP_0 OP_PUSHBYTES_20 f8d13ce36765fba31698cdca479f63920e91a669",
      "scriptpubkey_type": "v0_p2wpkh",
      "scriptpubkey_address": "bc1qlrgnecm8vha6x95ceh9y08mrjg8frfnfcpus9p",
      "value": 10431
    }
  ],
  "size": 489,
  "weight": 981,
  "fee": 2698,
  "status": {
    "confirmed": true,
    "block_height": 834464,
    "block_hash": "0000000000000000000177a0869a911a2b65c9bdcd5a8bcb02b68f305bee848e",
    "block_time": 1710308296
  },
  "hex": "01000000000103e225e980a0b9e80f1b1774799ab5eda3387c59fa039114fea2d157bceaad96980000000000ffffffffee14420f7f5ab2b7d7c95b8b13f7d54471bfa770dd66733bbc0845008e8cfa9f0000000000ffffffff4a0084cfef499b9cb68db0d298a999c6d4ba57c8c00ed9001ae4881c78da76da0000000000ffffffff01bf28000000000000160014f8d13ce36765fba31698cdca479f63920e91a66902473044022057e6e7815d0a749f70d29acbad144836f6c62bd17660e54960474bea7113981c02207182c3abaa4d8b4e40edd3328dd3f5b1f303162c4c11157c702c1b97b594113f012103a41ee84e0156d230a6b740013dd6edeacd24ace546412e79d9310e9c6c78aa4202483045022100c4321e0f7292b86d71cd40d64cf9e41c0688968b1cb51e942ea070e76e418ff702203a06ba94d451edcdb19b579a1ac4a26926cc4b884390128caa0ec2935e1f44400121024beba838290ba7d2e35f2e31fd22b13913e6c87bdbd45094c92c819bf190cd22024830450221008a99c58684e95d14b2c122078d9f539e216a65f1e97383db0e6991a8127c098c02202f772dff2bb0c5916c1e988bce88b961fe546b6b553c5a89707a3382c01b8a6c012103cdf114bcaf66ccbfd0c10a2b17273d55d0e3ad6a45bc8a64a9b94b080e8fc42000000000"
}