{
  "txid": "c6d9518519ff651a87388616ae16d528bec73775b92c8749a77110ff8a93ce87",
  "version": 1,
  "locktime": 0,
  "vin": [
    {
      "txid": "e4ad4d468e7b66da4b4365a4ccbb1f023154927bb85546fbbe11757d879f66cc",
      "vout": 1,
      "prevout": {
        "scriptpubkey": "0014443a95633e92ed695e30833ef95c640aa8d6072c",
        "scriptpubkey_asm": "OP_0 OP_PUSHBYTES_20 443a95633e92ed695e30833ef95c640aa8d6072c",
        "scriptpubkey_type": "v0_p2wpkh",
        "scriptpubkey_address": "bc1qgsaf2ce7jtkkjh3ssvl0jhryp25dvpevvzm0gm",
        "value": 6727
      },
      "scriptsig": "",
      "scriptsig_asm": "",
      "witness": [
        "304402201874e3775bc73145c849263f3a5222c66affd54b792d66fe26e8b1c8e2eb9dba0220183d7b166568c9a7e9d3a762ec588a142f38450f9800dfb8c091a35b9df0ce6201",
        "030f3a00daca5f51acbb54d67f2eda9204e56e1dac98c6e17dd5bab084aad73d59"
      ],
      "is_coinbase": false,
      "sequence": 4294967295
    },
    {
      "txid": "bf0d4c045c75938dbcf8566d6cef89ce906cb6152b1b17ac51db3ec39f1218a3",
      "vout": 0,
      "prevout": {
        "scriptpubkey": "001427675b66471184f9347ad0750e1859223420851d",
        "scriptpubkey_asm": "OP_0 OP_PUSHBYTES_20 27675b66471184f9347ad0750e1859223420851d",
        "scriptpubkey_type": "v0_p2wpkh",
        "scriptpubkey_address": "bc1qyan4kej8zxz0jdr66p6suxzeyg6zppga6q04jq",
        "value": 75026
      },
      "scriptsig": "",
      "scriptsig_asm": "",
      "witness": [
        "304402205396cc28f6bc1134ef7936ef0305f3ada4843d972ab945c7d5f040096b80052602201c3e07a0332d9fca4336dd5274d59b1c2c159520580d28d96ef5989df93ab36801",
        "0224c9c27ec56a0f330ff28c962a63ea8010648183dc6b8dea4f181be0181063ea"
      ],
      "is_coinbase": false,
      "sequence": 4294967295
    }
  ],
  "vout": [
    {
      "scriptpubkey": "001420f8f90bb50c39212729f32e8abe796d5b89c242",
      "scriptpubkey_asm": "OP_0 OP_PUSHBYTES_20 20f8f90bb50c39212729f32e8abe796d5b89c242",
      "scriptpubkey_type": "v0_p2wpkh",
      "scriptpubkey_address": "bc1qyru0jza4psujzfef7vhg40ned4dcnsjzxznxg0",
      "value": 27200
    },
    {
      "scriptpubkey": "0014fcf46f752e24edb675549470c122f3f714304e4b",
      "scriptpubkey_asm": "OP_0 OP_PUSHBYTES_20 fcf46f752e24edb675549470c122f3f714304e4b",
      "scriptpubkey_type": "v0_p2wpkh",
      "scriptpubkey_address": "bc1qln6x7afwynkmva25j3cvzghn7u2rqnjtsylysm",
      "value": 51439
    }
  ],
  "size": 370,
  "weight": 832,
  "fee": 3114,
  "status": {
    "confirmed": true,
    "block_height": 834638,
    "block_hash": "000000000000000000025f742c626208ac87e0b7d15054abb4a19ca2d735a54e",
    "block_time": 1710405325
  },
  "hex": "01000000000102cc669f877d7511befb4655b87b925431021fbbcca465434bda667b8e464dade40100000000ffffffffa318129fc33edb51ac171b2b15b66c90ce89ef6c6d56f8bc8d93755c044c0dbf0000000000ffffffff02406a00000000000016001420f8f90bb50c39212729f32e8abe796d5b89c242efc8000000000000160014fcf46f752e24edb675549470c122f3f714304e4b0247304402201874e3775bc73145c849263f3a5222c66affd54b792d66fe26e8b1c8e2eb9dba0220183d7b166568c9a7e9d3a762ec588a142f38450f9800dfb8c091a35b9df0ce620121030f3a00daca5f51acbb54d67f2eda9204e56e1dac98c6e17dd5bab084aad73d590247304402205396cc28f6bc1134ef7936ef0305f3ada4843d972ab945c7d5f040096b80052602201c3e07a0332d9fca4336dd5274d59b1c2c159520580d28d96ef5989df93ab36801210224c9c27ec56a0f330ff28c962a63ea8010648183dc6b8dea4f181be0181063ea00000000"
}