{
  "txid": "c6dc3529f1f595aedc4e1996c3beae1728ea73be494df48d8b995aea301749ea",
  "version": 1,
  "locktime": 0,
  "vin": [
    {
      "txid": "1ae6ae05f5be3e21e310ee765db8a468976bd9fa3acc69d9593690bfbeec6ebb",
      "vout": 1,
      "prevout": {
        "scriptpubkey": "001421eb09b012215d2a65cd5b994257d2c09c4bd38c",
        "scriptpubkey_asm": "OP_0 OP_PUSHBYTES_20 21eb09b012215d2a65cd5b994257d2c09c4bd38c",
        "scriptpubkey_type": "v0_p2wpkh",
        "scriptpubkey_address": "bc1qy84snvqjy9wj5ewdtwv5y47jczwyh5uvfe29v4",
        "value": 1358882
      },
      "scriptsig": "",
      "scriptsig_asm": "",
      "witness": [
        "304402202f42f2330de461c65d201355a2fbbf27ccf94d40d253ee140f42acb98428565d022054a9ef1bbd9186420c74423a04c796ffe658d4385ff471699919efb5a35c1c7601",
        "03cfe2808134cae1890eb4ff235e55de3c9dd3609faea7b37765ad6909045b470e"
      ],
      "is_coinbase": false,
      "sequence": 4294967295
    }
  ],
  "vout": [
    {
      "scriptpubkey": "0014b5241fe79d08aecf4d57f5ce9247c3ce19565629",
      "scriptpubkey_asm": "OP_0 OP_PUSHBYTES_20 b5241fe79d08aecf4d57f5ce9247c3ce19565629",
      "scriptpubkey_type": "v0_p2wpkh",
      "scriptpubkey_address": "bc1qk5jpleuapzhv7n2h7h8fy37recv4v43fyefnfk",
      "value": 207900
    },
    {
      "scriptpubkey": "0014d7d38c198e69f04c8e21641f09705071ad944d9e",
      "scriptpubkey_asm": "OP_0 OP_PUSHBYTES_20 d7d38c198e69f04c8e21641f09705071ad944d9e",
      "scriptpubkey_type": "v0_p2wpkh",
      "scriptpubkey_address": "bc1q6lfccxvwd8cyer3pvs0sjuzswxkegnv7tdgzcs",
      "value": 1149442
    }
  ],
  "size": 222,
  "weight": 561,
  "fee": 1540,
  "status": {
    "confirmed": true,
    "block_height": 834464,
    "block_hash": "0000000000000000000177a0869a911a2b65c9bdcd5a8bcb02b68f305bee848e",
    "block_time": 1710308296
  },
  "hex": "01000000000101bb6eecbebf903659d969cc3afad96b9768a4b85d76ee10e3213ebef505aee61a0100000000ffffffff021c2c030000000000160014b5241fe79d08aecf4d57f5ce9247c3ce19565629028a110000000000160014d7d38c198e69f04c8e21641f09705071ad944d9e0247304402202f42f2330de461c65d201355a2fbbf27ccf94d40d253ee140f42acb98428565d022054a9ef1bbd9186420c74423a04c796ffe658d4385ff471699919efb5a35c1c76012103cfe2808134cae1890eb4ff235e55de3c9dd3609faea7b37765ad6909045b470e00000000"
}