{
  "txid": "c6ec0ef150433414fe0aa25d4f9eeaa63a926b13de41e7c0689f737409100af1",
  "version": 1,
  "locktime": 0,
  "vin": [
    {
      "txid": "dc9d7bad9716037c80963b31a09fba18ec9b1d333317f2c9b77c1bae6f7e3eee",
      "vout": 0,
      "prevout": {
        "scriptpubkey": "76a91452befadd6bc84d7227081d1d19427bbf6d7374b588ac",
        "scriptpubkey_asm": "OP_DUP OP_HASH160 OP_PUSHBYTES_20 52befadd6bc84d7227081d1d19427bbf6d7374b5 OP_EQUALVERIFY OP_CHECKSIG",
        "scriptpubkey_type": "p2pkh",
        "scriptpubkey_address": "18YXCFSkRXkvFfJH88f77Wv6PRBQRQxv4y",
        "value": 4657
      },
      "scriptsig": "47304402206b7a009ab48f24915aabf7f0f866905ba83531b08c5e471dd4eb6289abb5b5c102202971b3efb0760a15fd36af7f6b86f7f66c8ad5a8e32ec041d3da88ee9ef89d4201210322ee5d3c0e0187070a51d305dc4c74cb8c9b52bff9a076e2b137a50945ed59e7",
      "scriptsig_asm": "OP_PUSHBYTES_71 304402206b7a009ab48f24915aabf7f0f866905ba83531b08c5e471dd4eb6289abb5b5c102202971b3efb0760a15fd36af7f6b86f7f66c8ad5a8e32ec041d3da88ee9ef89d4201 OP_PUSHBYTES_33 0322ee5d3c0e0187070a51d305dc4c74cb8c9b52bff9a076e2b137a50945ed59e7",
      "is_coinbase": false,
      "sequence": 4294967295
    },
    {
      "txid": "80daea3fd26f6b6a623f2702c356195e2adbe59ff104a4882cc87d4c42a7c685",
      "vout": 0,
      "prevout": {
        "scriptpubkey": "76a914c0e2c88facaf8893265ffccce191d99ea517d32488ac",
        "scriptpubkey_asm": "OP_DUP OP_HASH160 OP_PUSHBYTES_20 c0e2c88facaf8893265ffccce191d99ea517d324 OP_EQUALVERIFY OP_CHECKSIG",
        "scriptpubkey_type": "p2pkh",
        "scriptpubkey_address": "1JatR2EVqpBF1QEB7qg6qGwakBKqCxmtnd",
        "value": 47790
      },
      "scriptsig": "47304402204cf1aa0c2689737ab09baef1cbf6d78634eb1b9126ee5974946d4418a35a446e022072238c1ebed2a1ab379a63aad7e631e62c66efefb6fd0526bb6ec9f9abeacfe6012102c05aed1a5d62ed65ff9a825e9c6726e23168217354ee6bd806612791256dd496",
      "scriptsig_asm": "OP_PUSHBYTES_71 304402204cf1aa0c2689737ab09baef1cbf6d78634eb1b9126ee5974946d4418a35a446e022072238c1ebed2a1ab379a63aad7e631e62c66efefb6fd0526bb6ec9f9abeacfe601 OP_PUSHBYTES_33 02c05aed1a5d62ed65ff9a825e9c6726e23168217354ee6bd806612791256dd496",
      "is_coinbase": false,
      "sequence": 4294967295
    },
    {
      "txid": "4cee20393f6d28eee1231222c1b38a3fac78b0948297a39daabd7cf5303f9319",
      "vout": 0,
      "prevout": {
        "scriptpubkey": "76a91438bd0d1a9fcfc4dafd025fc6191e5ce17997424488ac",
        "scriptpubkey_asm": "OP_DUP OP_HASH160 OP_PUSHBYTES_20 38bd0d1a9fcfc4dafd025fc6191e5ce179974244 OP_EQUALVERIFY OP_CHECKSIG",
        "scriptpubkey_type": "p2pkh",
        "scriptpubkey_address": "16B1KFTctz8YLn9KbfociGHUiZDYYE13T8",
        "value": 80900
      },
      "scriptsig": "4830450221009c8a6580cdcb3a582a591baf79986be25336649d1718142a375d10cc500569f40220527c7bb2ebd12beda5f57a4f855919dfe108df1d64d41fbfb55e810628c2fe6701210231f3a638a6b4aad503ba45a745dc4035fb97048f7069975af95dbbd94f25a26e",
      "scriptsig_asm": "OP_PUSHBYTES_72 30450221009c8a6580cdcb3a582a591baf79986be25336649d1718142a375d10cc500569f40220527c7bb2ebd12beda5f57a4f855919dfe108df1d64d41fbfb55e810628c2fe6701 OP_PUSHBYTES_33 0231f3a638a6b4aad503ba45a745dc4035fb97048f7069975af95dbbd94f25a26e",
      "is_coinbase": false,
      "sequence": 4294967295
    }
  ],
  "vout": [
    {
      "scriptpubkey": "00143c905efa685776c9797221b943af3400a93b927a",
      "scriptpubkey_asm": "OP_0 OP_PUSHBYTES_20 3c905efa685776c9797221b943af3400a93b927a",
      "scriptpubkey_type": "v0_p2wpkh",
      "scriptpubkey_address": "bc1q8jg9a7ng2amvj7tjyxu58te5qz5nhyn667ju09",
      "value": 50000
    },
    {
      "scriptpubkey": "0014e504aee1b005c6c52587f3706dc61878c9c512f3",
      "scriptpubkey_asm": "OP_0 OP_PUSHBYTES_20 e504aee1b005c6c52587f3706dc61878c9c512f3",
      "scriptpubkey_type": "v0_p2wpkh",
      "scriptpubkey_address": "bc1qu5z2acdsqhrv2fv87dcxm3sc0ryu2yhnm2m6mf",
      "value": 73027
    }
  ],
  "size": 514,
  "weight": 2056,
  "fee": 10320,
  "status": {
    "confirmed": true,
    "block_height": 834638,
    "block_hash": "000000000000000000025f742c626208ac87e0b7d15054abb4a19ca2d735a54e",
    "block_time": 1710405325
  },
  "hex": "0100000003ee3e7e6fae1b7cb7c9f21733331d9bec18ba9fa0313b96807c031697ad7b9ddc000000006a47304402206b7a009ab48f24915aabf7f0f866905ba83531b08c5e471dd4eb6289abb5b5c102202971b3efb0760a15fd36af7f6b86f7f66c8ad5a8e32ec041d3da88ee9ef89d4201210322ee5d3c0e0187070a51d305dc4c74cb8c9b52bff9a076e2b137a50945ed59e7ffffffff85c6a7424c7dc82c88a404f19fe5db2a5e1956c302273f626a6b6fd23feada80000000006a47304402204cf1aa0c2689737ab09baef1cbf6d78634eb1b9126ee5974946d4418a35a446e022072238c1ebed2a1ab379a63aad7e631e62c66efefb6fd0526bb6ec9f9abeacfe6012102c05aed1a5d62ed65ff9a825e9c6726e23168217354ee6bd806612791256dd496ffffffff19933f30f57cbdaa9da3978294b078ac3f8ab3c1221223e1ee286d3f3920ee4c000000006b4830450221009c8a6580cdcb3a582a591baf79986be25336649d1718142a375d10cc500569f40220527c7bb2ebd12beda5f57a4f855919dfe108df1d64d41fbfb55e810628c2fe6701210231f3a638a6b4aad503ba45a745dc4035fb97048f7069975af95dbbd94f25a26effffffff0250c30000000000001600143c905efa685776c9797221b943af3400a93b927a431d010000000000160014e504aee1b005c6c52587f3706dc61878c9c512f300000000"
}