{
  "txid": "c6ee231a1bafe97969c02b0025d777ac496c0afef31b6d3e5c42bff099b32e86",
  "version": 2,
  "locktime": 834637,
  "vin": [
    {
      "txid": "8ad482e9fabf469deaddcb124ad27ba2a41df82fc811c03a1f23bc11df9df1b7",
      "vout": 0,
      "prevout": {
        "scriptpubkey": "001483c8885b1527e6483d113f04947d0de4bac081aa",
        "scriptpubkey_asm": "OP_0 OP_PUSHBYTES_20 83c8885b1527e6483d113f04947d0de4bac081aa",
        "scriptpubkey_type": "v0_p2wpkh",
        "scriptpubkey_address": "bc1qs0ygskc4ylnys0g38uzfglgdujavpqd2lcyxqd",
        "value": 310885528
      },
      "scriptsig": "",
      "scriptsig_asm": "",
      "witness": [
        "304402202fa8b828fe0aee5c84365cbef88c62b22c7958912042d5134ed230a82157702302205bce486ed5c407e541f20a3c578727def06e3c3e063380170396e59204c3dd4601",
        "023c3611048eb6dbb3be08c91693164d728aa192b2e1a621da9a9937d4c38e9055"
      ],
      "is_coinbase": false,
      "sequence": 4294967294
    }
  ],
  "vout": [
    {
      "scriptpubkey": "00147cd09f149521d38b60e250221ce697bc39985d24",
      "scriptpubkey_asm": "OP_0 OP_PUSHBYTES_20 7cd09f149521d38b60e250221ce697bc39985d24",
      "scriptpubkey_type": "v0_p2wpkh",
      "scriptpubkey_address": "bc1q0ngf79y4y8fckc8z2q3pee5hhsueshfy2xqhvg",
      "value": 826100
    },
    {
      "scriptpubkey": "00145efca165073bd06eb813b190b5ec2e959094c180",
      "scriptpubkey_asm": "OP_0 OP_PUSHBYTES_20 5efca165073bd06eb813b190b5ec2e959094c180",
      "scriptpubkey_type": "v0_p2wpkh",
      "scriptpubkey_address": "bc1qtm72zeg880gxawqnkxgttmpwjkgffsvq0leck2",
      "value": 310055972
    }
  ],
  "size": 222,
  "weight": 561,
  "fee": 3456,
  "status": {
    "confirmed": true,
    "block_height": 834638,
    "block_hash": "000000000000000000025f742c626208ac87e0b7d15054abb4a19ca2d735a54e",
    "block_time": 1710405325
  },
  "hex": "02000000000101b7f19ddf11bc231f3ac011c82ff81da4a27bd24a12cbddea9d46bffae982d48a0000000000feffffff02f49a0c00000000001600147cd09f149521d38b60e250221ce697bc39985d2424147b12000000001600145efca165073bd06eb813b190b5ec2e959094c1800247304402202fa8b828fe0aee5c84365cbef88c62b22c7958912042d5134ed230a82157702302205bce486ed5c407e541f20a3c578727def06e3c3e063380170396e59204c3dd460121023c3611048eb6dbb3be08c91693164d728aa192b2e1a621da9a9937d4c38e90554dbc0c00"
}