{
  "txid": "c6f00b54b8d523c69e7b84c34d1538f11c2ef2a7f8acf9ea715850f339357bc7",
  "version": 2,
  "locktime": 0,
  "vin": [
    {
      "txid": "8b062e0572710c19163ca3269266ed529052f1414162a56ecc3e29d96a53ab40",
      "vout": 9,
      "prevout": {
        "scriptpubkey": "0014db73457e094b98073cec946f3557de081bf7539a",
        "scriptpubkey_asm": "OP_0 OP_PUSHBYTES_20 db73457e094b98073cec946f3557de081bf7539a",
        "scriptpubkey_type": "v0_p2wpkh",
        "scriptpubkey_address": "bc1qmde52lsffwvqw08vj3hn2477pqdlw5u6hc94ps",
        "value": 1000000
      },
      "scriptsig": "",
      "scriptsig_asm": "",
      "witness": [
        "3044022039a66dab1dd535ddb99223ba6720281559e92d4d774d8c9d4b6f7fc0e0ae330502202584e59c6a726271d717d2ce2f1d053727f406464c98c568fe4e4965fe6fa29101",
        "0345554f37072a356dea0f73e9e6783ae9d5be4d74924c3cc254d010acc19ccfe2"
      ],
      "is_coinbase": false,
      "sequence": 4294967295
    }
  ],
  "vout": [
    {
      "scriptpubkey": "0014db73457e094b98073cec946f3557de081bf7539a",
      "scriptpubkey_asm": "OP_0 OP_PUSHBYTES_20 db73457e094b98073cec946f3557de081bf7539a",
      "scriptpubkey_type": "v0_p2wpkh",
      "scriptpubkey_address": "bc1qmde52lsffwvqw08vj3hn2477pqdlw5u6hc94ps",
      "value": 600
    },
    {
      "scriptpubkey": "0014db73457e094b98073cec946f3557de081bf7539a",
      "scriptpubkey_asm": "OP_0 OP_PUSHBYTES_20 db73457e094b98073cec946f3557de081bf7539a",
      "scriptpubkey_type": "v0_p2wpkh",
      "scriptpubkey_address": "bc1qmde52lsffwvqw08vj3hn2477pqdlw5u6hc94ps",
      "value": 997860
    }
  ],
  "size": 222,
  "weight": 561,
  "fee": 1540,
  "status": {
    "confirmed": true,
    "block_height": 834464,
    "block_hash": "0000000000000000000177a0869a911a2b65c9bdcd5a8bcb02b68f305bee848e",
    "block_time": 1710308296
  },
  "hex": "0200000000010140ab536ad9293ecc6ea5624141f1529052ed669226a33c16190c7172052e068b0900000000ffffffff025802000000000000160014db73457e094b98073cec946f3557de081bf7539ae4390f0000000000160014db73457e094b98073cec946f3557de081bf7539a02473044022039a66dab1dd535ddb99223ba6720281559e92d4d774d8c9d4b6f7fc0e0ae330502202584e59c6a726271d717d2ce2f1d053727f406464c98c568fe4e4965fe6fa29101210345554f37072a356dea0f73e9e6783ae9d5be4d74924c3cc254d010acc19ccfe200000000"
}