{
  "txid": "c7036d46c010aaa07efc49c33c6f0b2178d1100d379eafea99fdd1cf122a2a31",
  "version": 2,
  "locktime": 834637,
  "vin": [
    {
      "txid": "01f7dbe5eb9561758df66e5f2abbe163a1d7c3bb076644ad8bc323266d1753ed",
      "vout": 0,
      "prevout": {
        "scriptpubkey": "0014fc68ea1d40a09bc9cf9889304860669e0c3e8fe2",
        "scriptpubkey_asm": "OP_0 OP_PUSHBYTES_20 fc68ea1d40a09bc9cf9889304860669e0c3e8fe2",
        "scriptpubkey_type": "v0_p2wpkh",
        "scriptpubkey_address": "bc1ql35w582q5zdunnuc3ycyscrxncxrarlzlsvx7q",
        "value": 1590828
      },
      "scriptsig": "",
      "scriptsig_asm": "",
      "witness": [
        "304402207b985e70116e9ba2c1ab360688d23c47f6d2a6f8755e289d411514926a4d9e3b02201d1ea8207e6593620754baeed07af40709e978ebcc28d9c745b8b9bc9ed78afa01",
        "0229ab13e1cf83a1c6cf56c8f09641c8bdc5984766ccd992baeb2554149045a69a"
      ],
      "is_coinbase": false,
      "sequence": 4294967293
    },
    {
      "txid": "06ef5bad0301574fcabaee2efa88caed856e5792779e6417c3b2029b17721561",
      "vout": 0,
      "prevout": {
        "scriptpubkey": "0014f8666ee7b9fea9ba2c60778ddc0f96f791922974",
        "scriptpubkey_asm": "OP_0 OP_PUSHBYTES_20 f8666ee7b9fea9ba2c60778ddc0f96f791922974",
        "scriptpubkey_type": "v0_p2wpkh",
        "scriptpubkey_address": "bc1qlpnxaeael65m5trqw7xacruk77gey2t5cv2zfl",
        "value": 3746954
      },
      "scriptsig": "",
      "scriptsig_asm": "",
      "witness": [
        "3044022020a61a665602b3ffcfe498dd8c4e00b95d9b46c1571211827c547d9e4d01c64102205ba376c771d6a618879272c6cef875896850052fcd35b1a19096ed88555c934401",
        "0394924bddfd08abb2d8da070ac9b5bea520acee74f30e86946b0d2a53091d129a"
      ],
      "is_coinbase": false,
      "sequence": 4294967293
    },
    {
      "txid": "0ba3dd573895a23117c20cf3705afbc831c3a277808da24f6b5c4a4e3c6d5c45",
      "vout": 1,
      "prevout": {
        "scriptpubkey": "001431da9237c71e4e9196e2748b23e5ad5076277db3",
        "scriptpubkey_asm": "OP_0 OP_PUSHBYTES_20 31da9237c71e4e9196e2748b23e5ad5076277db3",
        "scriptpubkey_type": "v0_p2wpkh",
        "scriptpubkey_address": "bc1qx8dfyd78re8fr9hzwj9j8edd2pmzwldnw5y2mv",
        "value": 6859513
      },
      "scriptsig": "",
      "scriptsig_asm": "",
      "witness": [
        "3043021f7b49bab2367ced09b6297daa90da379a1a4b503a1fea785371b5f654e2e58802200d1b6c6602a67fc515a23c28fad9b4905074ea4126951c0d5e5a6780a2e3d70201",
        "03c2883ff02a860832dc50b3b42b96039e045364cbe9581dd6130d36eac991106a"
      ],
      "is_coinbase": false,
      "sequence": 4294967293
    },
    {
      "txid": "68c3db67348f60e59ce37fff0a7abc81edd0d5e864127c70550a85129413ce75",
      "vout": 1,
      "prevout": {
        "scriptpubkey": "001459bdef413f4ffa56ee3853fe801ecd9cfef38597",
        "scriptpubkey_asm": "OP_0 OP_PUSHBYTES_20 59bdef413f4ffa56ee3853fe801ecd9cfef38597",
        "scriptpubkey_type": "v0_p2wpkh",
        "scriptpubkey_address": "bc1qtx777sflfla9dm3c20lgq8kdnnl08pvh8keytv",
        "value": 1960620
      },
      "scriptsig": "",
      "scriptsig_asm": "",
      "witness": [
        "304502210088a65a45bfd25005ac6fc2a4221893be845fffd2216edd674b6af387083b0b70022039660a2c4ef1940301feb92782c326e468079bd290b9d0631cb18b4d79a0196701",
        "02d4dc83f1cc6e925b8d2016167683b02312a4beebcaf305363b217355a075fcb1"
      ],
      "is_coinbase": false,
      "sequence": 4294967293
    },
    {
      "txid": "917d771d60edde5d1ff5e876d01a9e39fac6bc55ff31d58693113f2249287e03",
      "vout": 1,
      "prevout": {
        "scriptpubkey": "0014913bc8b484fae93aba483ad2f9b0fd0fc19c0909",
        "scriptpubkey_asm": "OP_0 OP_PUSHBYTES_20 913bc8b484fae93aba483ad2f9b0fd0fc19c0909",
        "scriptpubkey_type": "v0_p2wpkh",
        "scriptpubkey_address": "bc1qjyau3dyylt5n4wjg8tf0nv8aplqeczgffnhe86",
        "value": 1682659
      },
      "scriptsig": "",
      "scriptsig_asm": "",
      "witness": [
        "3045022100b14aa40e823dea4cceeaabf8a4127703c0532ca5016fe30fb39415a223cbef7002204c60b51e36f85cf46212e7ae57d08194dbda5b9596df8a6e9b461703cf4d03ad01",
        "0328e02870573cacdefef95632befe1d4e4806e42edd3c90d05638dc458a7b715c"
      ],
      "is_coinbase": false,
      "sequence": 4294967293
    }
  ],
  "vout": [
    {
      "scriptpubkey": "001490b0e6f69bb63309d969380131035bd79e92a76e",
      "scriptpubkey_asm": "OP_0 OP_PUSHBYTES_20 90b0e6f69bb63309d969380131035bd79e92a76e",
      "scriptpubkey_type": "v0_p2wpkh",
      "scriptpubkey_address": "bc1qjzcwda5mkcesnktf8qqnzq6m670f9fmwd4dfy0",
      "value": 802041
    },
    {
      "scriptpubkey": "76a9146fd4faeb4a683901ab4c103550a6ad48fba73b2288ac",
      "scriptpubkey_asm": "OP_DUP OP_HASH160 OP_PUSHBYTES_20 6fd4faeb4a683901ab4c103550a6ad48fba73b22 OP_EQUALVERIFY OP_CHECKSIG",
      "scriptpubkey_type": "p2pkh",
      "scriptpubkey_address": "1BCK9QzQsEYRXqAwo7uabXUM3sFDgfgZeA",
      "value": 14976133
    }
  ],
  "size": 818,
  "weight": 1658,
  "fee": 62400,
  "status": {
    "confirmed": true,
    "block_height": 834638,
    "block_hash": "000000000000000000025f742c626208ac87e0b7d15054abb4a19ca2d735a54e",
    "block_time": 1710405325
  },
  "hex": "02000000000105ed53176d2623c38bad446607bbc3d7a163e1bb2a5f6ef68d756195ebe5dbf7010000000000fdffffff611572179b02b2c317649e7792576e85edca88fa2eeebaca4f570103ad5bef060000000000fdffffff455c6d3c4e4a5c6b4fa28d8077a2c331c8fb5a70f30cc21731a2953857dda30b0100000000fdffffff75ce139412850a55707c1264e8d5d0ed81bc7a0aff7fe39ce5608f3467dbc3680100000000fdffffff037e2849223f119386d531ff55bcc6fa399e1ad076e8f51f5ddeed601d777d910100000000fdffffff02f93c0c000000000016001490b0e6f69bb63309d969380131035bd79e92a76e8584e400000000001976a9146fd4faeb4a683901ab4c103550a6ad48fba73b2288ac0247304402207b985e70116e9ba2c1ab360688d23c47f6d2a6f8755e289d411514926a4d9e3b02201d1ea8207e6593620754baeed07af40709e978ebcc28d9c745b8b9bc9ed78afa01210229ab13e1cf83a1c6cf56c8f09641c8bdc5984766ccd992baeb2554149045a69a02473044022020a61a665602b3ffcfe498dd8c4e00b95d9b46c1571211827c547d9e4d01c64102205ba376c771d6a618879272c6cef875896850052fcd35b1a19096ed88555c934401210394924bddfd08abb2d8da070ac9b5bea520acee74f30e86946b0d2a53091d129a02463043021f7b49bab2367ced09b6297daa90da379a1a4b503a1fea785371b5f654e2e58802200d1b6c6602a67fc515a23c28fad9b4905074ea4126951c0d5e5a6780a2e3d702012103c2883ff02a860832dc50b3b42b96039e045364cbe9581dd6130d36eac991106a0248304502210088a65a45bfd25005ac6fc2a4221893be845fffd2216edd674b6af387083b0b70022039660a2c4ef1940301feb92782c326e468079bd290b9d0631cb18b4d79a01967012102d4dc83f1cc6e925b8d2016167683b02312a4beebcaf305363b217355a075fcb102483045022100b14aa40e823dea4cceeaabf8a4127703c0532ca5016fe30fb39415a223cbef7002204c60b51e36f85cf46212e7ae57d08194dbda5b9596df8a6e9b461703cf4d03ad01210328e02870573cacdefef95632befe1d4e4806e42edd3c90d05638dc458a7b715c4dbc0c00"
}