{
  "txid": "c717f24a62c365d78e683c3613ee02e7303c64b63f5fe5b35cd9ff0049bce0b8",
  "version": 2,
  "locktime": 834637,
  "vin": [
    {
      "txid": "776595c53a1a39c135c9078b917b4824b7c4627ffbd54aefc2102c5d27db5b30",
      "vout": 0,
      "prevout": {
        "scriptpubkey": "00147cf43f0affbd001cba12ab867c9cb45e98117133",
        "scriptpubkey_asm": "OP_0 OP_PUSHBYTES_20 7cf43f0affbd001cba12ab867c9cb45e98117133",
        "scriptpubkey_type": "v0_p2wpkh",
        "scriptpubkey_address": "bc1q0n6r7zhlh5qpewsj4wr8e895t6vpzufnjkgkd8",
        "value": 231159184
      },
      "scriptsig": "",
      "scriptsig_asm": "",
      "witness": [
        "30440220378bd7c55eaea6275d710ecd124c077bd218de6b231e2ada22c4154dec0a3df00220019438a323dbfefe78ad9c1bcd249af170177c082e7ffb98217c6a2ff4560b5d01",
        "02f33894ddd49737c86ecc54eac9324adaa1ea2400487a61da725c159b64a455af"
      ],
      "is_coinbase": false,
      "sequence": 4294967294
    }
  ],
  "vout": [
    {
      "scriptpubkey": "a914608c36502cf8cf1ce83a24f62714f146c78d2eaa87",
      "scriptpubkey_asm": "OP_HASH160 OP_PUSHBYTES_20 608c36502cf8cf1ce83a24f62714f146c78d2eaa OP_EQUAL",
      "scriptpubkey_type": "p2sh",
      "scriptpubkey_address": "3AVWm55nDMnFCtkwwhr4rK6RNC8YjY9uDg",
      "value": 963800
    },
    {
      "scriptpubkey": "0014365756c02c7fca007d44c79fc34ecda1bd8a60e1",
      "scriptpubkey_asm": "OP_0 OP_PUSHBYTES_20 365756c02c7fca007d44c79fc34ecda1bd8a60e1",
      "scriptpubkey_type": "v0_p2wpkh",
      "scriptpubkey_address": "bc1qxet4dspv0l9qql2yc70uxnkd5x7c5c8pfqz2c5",
      "value": 230191904
    }
  ],
  "size": 223,
  "weight": 565,
  "fee": 3480,
  "status": {
    "confirmed": true,
    "block_height": 834638,
    "block_hash": "000000000000000000025f742c626208ac87e0b7d15054abb4a19ca2d735a54e",
    "block_time": 1710405325
  },
  "hex": "02000000000101305bdb275d2c10c2ef4ad5fb7f62c4b724487b918b07c935c1391a3ac59565770000000000feffffff02d8b40e000000000017a914608c36502cf8cf1ce83a24f62714f146c78d2eaa872073b80d00000000160014365756c02c7fca007d44c79fc34ecda1bd8a60e1024730440220378bd7c55eaea6275d710ecd124c077bd218de6b231e2ada22c4154dec0a3df00220019438a323dbfefe78ad9c1bcd249af170177c082e7ffb98217c6a2ff4560b5d012102f33894ddd49737c86ecc54eac9324adaa1ea2400487a61da725c159b64a455af4dbc0c00"
}