{
  "txid": "c723f7b90b8a460e3f1bcca57c3a47361223581aefdde3b1184e43a81a2d479e",
  "version": 1,
  "locktime": 0,
  "vin": [
    {
      "txid": "dd657637734ec6db4e78f2bdb394ab6a48e41bb9041ec2ffb8bcf8fb3bd11f73",
      "vout": 0,
      "prevout": {
        "scriptpubkey": "0014dc6c2959f6e6e9dc7289aa5924494476b80bb1b7",
        "scriptpubkey_asm": "OP_0 OP_PUSHBYTES_20 dc6c2959f6e6e9dc7289aa5924494476b80bb1b7",
        "scriptpubkey_type": "v0_p2wpkh",
        "scriptpubkey_address": "bc1qm3kzjk0kum5acu5f4fvjgj2yw6uqhvdh0nchqc",
        "value": 1235191
      },
      "scriptsig": "",
      "scriptsig_asm": "",
      "witness": [
        "3044022057b9862cf0c67ab7082a970509519739792a65b723213651b89aaaacb9b874de02205ca12dcf1efbf752a014f14522e5dc7aa88e064e8426eb96da30e25e0977018b01",
        "0372bd7b2e144273d4db2edc30a30fd77a51ea91465dabe1db3a4f2580f840e1f8"
      ],
      "is_coinbase": false,
      "sequence": 0
    }
  ],
  "vout": [
    {
      "scriptpubkey": "76a914204e2194d7bc2d49c8588c21631546a27883ac9e88ac",
      "scriptpubkey_asm": "OP_DUP OP_HASH160 OP_PUSHBYTES_20 204e2194d7bc2d49c8588c21631546a27883ac9e OP_EQUALVERIFY OP_CHECKSIG",
      "scriptpubkey_type": "p2pkh",
      "scriptpubkey_address": "13wpDnhfbGXTP6ZTdiY17xj6hrP3n9oo1q",
      "value": 1233383
    }
  ],
  "size": 194,
  "weight": 449,
  "fee": 1808,
  "status": {
    "confirmed": true,
    "block_height": 834638,
    "block_hash": "000000000000000000025f742c626208ac87e0b7d15054abb4a19ca2d735a54e",
    "block_time": 1710405325
  },
  "hex": "01000000000101731fd13bfbf8bcb8ffc21e04b91be4486aab94b3bdf2784edbc64e73377665dd00000000000000000001e7d11200000000001976a914204e2194d7bc2d49c8588c21631546a27883ac9e88ac02473044022057b9862cf0c67ab7082a970509519739792a65b723213651b89aaaacb9b874de02205ca12dcf1efbf752a014f14522e5dc7aa88e064e8426eb96da30e25e0977018b01210372bd7b2e144273d4db2edc30a30fd77a51ea91465dabe1db3a4f2580f840e1f800000000"
}