{
  "txid": "c725e3de7b3174dc33853e5fe38b8be477b41b67534fc0b70ea502160cb50c56",
  "version": 2,
  "locktime": 0,
  "vin": [
    {
      "txid": "0ff389efdab7a0c8c7d78cbfc0cca26b2aa6d9141b52a221d1e32f2f8620119e",
      "vout": 3,
      "prevout": {
        "scriptpubkey": "5120b226cb33b2d43e7b9b65e7e666c3d100d7462dfd11c1e5115ae5699c5610fa26",
        "scriptpubkey_asm": "OP_PUSHNUM_1 OP_PUSHBYTES_32 b226cb33b2d43e7b9b65e7e666c3d100d7462dfd11c1e5115ae5699c5610fa26",
        "scriptpubkey_type": "v1_p2tr",
        "scriptpubkey_address": "bc1pkgnvkvaj6sl8hxm9ulnxds73qrt5vt0az8q72y26u45ec4sslgnqd09533",
        "value": 600
      },
      "scriptsig": "",
      "scriptsig_asm": "",
      "witness": [
        "3b5c072812b1219fb7ed4fa226dfcbdabc59c45e81a84b86690082d97801ceae7addee2ffb52f9184a5aedc47fccd34d0c440b0e37cb921753773bb08a2f6485"
      ],
      "is_coinbase": false,
      "sequence": 2147483649
    },
    {
      "txid": "0ff389efdab7a0c8c7d78cbfc0cca26b2aa6d9141b52a221d1e32f2f8620119e",
      "vout": 4,
      "prevout": {
        "scriptpubkey": "5120b226cb33b2d43e7b9b65e7e666c3d100d7462dfd11c1e5115ae5699c5610fa26",
        "scriptpubkey_asm": "OP_PUSHNUM_1 OP_PUSHBYTES_32 b226cb33b2d43e7b9b65e7e666c3d100d7462dfd11c1e5115ae5699c5610fa26",
        "scriptpubkey_type": "v1_p2tr",
        "scriptpubkey_address": "bc1pkgnvkvaj6sl8hxm9ulnxds73qrt5vt0az8q72y26u45ec4sslgnqd09533",
        "value": 600
      },
      "scriptsig": "",
      "scriptsig_asm": "",
      "witness": [
        "c6d24c1aec5334f5ebde367fec65dda9ebb70123cb8456e7588a0f97928808dd649c71a7ad17a47180c2cd35e266a705fb1a77177d7d75f0481afca45f98e89d"
      ],
      "is_coinbase": false,
      "sequence": 2147483649
    },
    {
      "txid": "953f5a7a30da1f17512e7eeb72707dc5394471762045be23fca33abe13a49928",
      "vout": 0,
      "prevout": {
        "scriptpubkey": "0014e83620905a143360c5189c693a4fb4bd86d2f58b",
        "scriptpubkey_asm": "OP_0 OP_PUSHBYTES_20 e83620905a143360c5189c693a4fb4bd86d2f58b",
        "scriptpubkey_type": "v0_p2wpkh",
        "scriptpubkey_address": "bc1qaqmzpyz6zsekp3gcn35n5na5hkrd9avtsmmphd",
        "value": 546
      },
      "scriptsig": "",
      "scriptsig_asm": "",
      "witness": [
        "30450221009b7c8616a7401a39500ba1214db94c639f56944b0bfb440216dc846008ffe44602203a2e2135c30cd3cb4e910b065d985fb55450cde68dc4ebc1117328356a5c704283",
        "0256d56731ba6875e132ce1008fa28e38e2aa6b474d71b40c8b036180c92c4dccd"
      ],
      "is_coinbase": false,
      "sequence": 4294967295
    },
    {
      "txid": "071eece865423938b508d3444405bb8e5f823a9a39a3805d2976bd8f6ffccf2d",
      "vout": 3,
      "prevout": {
        "scriptpubkey": "5120b226cb33b2d43e7b9b65e7e666c3d100d7462dfd11c1e5115ae5699c5610fa26",
        "scriptpubkey_asm": "OP_PUSHNUM_1 OP_PUSHBYTES_32 b226cb33b2d43e7b9b65e7e666c3d100d7462dfd11c1e5115ae5699c5610fa26",
        "scriptpubkey_type": "v1_p2tr",
        "scriptpubkey_address": "bc1pkgnvkvaj6sl8hxm9ulnxds73qrt5vt0az8q72y26u45ec4sslgnqd09533",
        "value": 492600
      },
      "scriptsig": "",
      "scriptsig_asm": "",
      "witness": [
        "9db953f736f9251ed5ba2193c9e28f36b7f0b39a1ccd72cf60ea9f1cb6fd008a3da5696b6cb6242792d4327aa4cc40637ce75335770d8e368e30f44de82c9097"
      ],
      "is_coinbase": false,
      "sequence": 2147483649
    },
    {
      "txid": "0ff389efdab7a0c8c7d78cbfc0cca26b2aa6d9141b52a221d1e32f2f8620119e",
      "vout": 5,
      "prevout": {
        "scriptpubkey": "5120b226cb33b2d43e7b9b65e7e666c3d100d7462dfd11c1e5115ae5699c5610fa26",
        "scriptpubkey_asm": "OP_PUSHNUM_1 OP_PUSHBYTES_32 b226cb33b2d43e7b9b65e7e666c3d100d7462dfd11c1e5115ae5699c5610fa26",
        "scriptpubkey_type": "v1_p2tr",
        "scriptpubkey_address": "bc1pkgnvkvaj6sl8hxm9ulnxds73qrt5vt0az8q72y26u45ec4sslgnqd09533",
        "value": 165016
      },
      "scriptsig": "",
      "scriptsig_asm": "",
      "witness": [
        "c2116b96b0808395785fe21597f6e521d4d0d21b837f502fe718dc50a44264a254557b8131a2ae230a71d7cc063fd5ceaee7654f29446fe2030b15e81bb8af82"
      ],
      "is_coinbase": false,
      "sequence": 2147483649
    },
    {
      "txid": "6c5e8ec7e1b8d0bbae25d30b67e12ea12f79b5728b292e3f6d7472053cc9f74a",
      "vout": 1,
      "prevout": {
        "scriptpubkey": "5120b226cb33b2d43e7b9b65e7e666c3d100d7462dfd11c1e5115ae5699c5610fa26",
        "scriptpubkey_asm": "OP_PUSHNUM_1 OP_PUSHBYTES_32 b226cb33b2d43e7b9b65e7e666c3d100d7462dfd11c1e5115ae5699c5610fa26",
        "scriptpubkey_type": "v1_p2tr",
        "scriptpubkey_address": "bc1pkgnvkvaj6sl8hxm9ulnxds73qrt5vt0az8q72y26u45ec4sslgnqd09533",
        "value": 147029
      },
      "scriptsig": "",
      "scriptsig_asm": "",
      "witness": [
        "15c4462db649a37dcfb249cda35243e564593f9a9b545c73f3c72c243d62a554047f7764dd7a0aa99fbfffa3dcc95e4ee86f954d28156247519e319c338f54d1"
      ],
      "is_coinbase": false,
      "sequence": 2147483649
    }
  ],
  "vout": [
    {
      "scriptpubkey": "5120b226cb33b2d43e7b9b65e7e666c3d100d7462dfd11c1e5115ae5699c5610fa26",
      "scriptpubkey_asm": "OP_PUSHNUM_1 OP_PUSHBYTES_32 b226cb33b2d43e7b9b65e7e666c3d100d7462dfd11c1e5115ae5699c5610fa26",
      "scriptpubkey_type": "v1_p2tr",
      "scriptpubkey_address": "bc1pkgnvkvaj6sl8hxm9ulnxds73qrt5vt0az8q72y26u45ec4sslgnqd09533",
      "value": 1200
    },
    {
      "scriptpubkey": "5120b226cb33b2d43e7b9b65e7e666c3d100d7462dfd11c1e5115ae5699c5610fa26",
      "scriptpubkey_asm": "OP_PUSHNUM_1 OP_PUSHBYTES_32 b226cb33b2d43e7b9b65e7e666c3d100d7462dfd11c1e5115ae5699c5610fa26",
      "scriptpubkey_type": "v1_p2tr",
      "scriptpubkey_address": "bc1pkgnvkvaj6sl8hxm9ulnxds73qrt5vt0az8q72y26u45ec4sslgnqd09533",
      "value": 546
    },
    {
      "scriptpubkey": "0014e83620905a143360c5189c693a4fb4bd86d2f58b",
      "scriptpubkey_asm": "OP_0 OP_PUSHBYTES_20 e83620905a143360c5189c693a4fb4bd86d2f58b",
      "scriptpubkey_type": "v0_p2wpkh",
      "scriptpubkey_address": "bc1qaqmzpyz6zsekp3gcn35n5na5hkrd9avtsmmphd",
      "value": 661500
    },
    {
      "scriptpubkey": "5120b226cb33b2d43e7b9b65e7e666c3d100d7462dfd11c1e5115ae5699c5610fa26",
      "scriptpubkey_asm": "OP_PUSHNUM_1 OP_PUSHBYTES_32 b226cb33b2d43e7b9b65e7e666c3d100d7462dfd11c1e5115ae5699c5610fa26",
      "scriptpubkey_type": "v1_p2tr",
      "scriptpubkey_address": "bc1pkgnvkvaj6sl8hxm9ulnxds73qrt5vt0az8q72y26u45ec4sslgnqd09533",
      "value": 600
    },
    {
      "scriptpubkey": "5120b226cb33b2d43e7b9b65e7e666c3d100d7462dfd11c1e5115ae5699c5610fa26",
      "scriptpubkey_asm": "OP_PUSHNUM_1 OP_PUSHBYTES_32 b226cb33b2d43e7b9b65e7e666c3d100d7462dfd11c1e5115ae5699c5610fa26",
      "scriptpubkey_type": "v1_p2tr",
      "scriptpubkey_address": "bc1pkgnvkvaj6sl8hxm9ulnxds73qrt5vt0az8q72y26u45ec4sslgnqd09533",
      "value": 600
    },
    {
      "scriptpubkey": "5120b226cb33b2d43e7b9b65e7e666c3d100d7462dfd11c1e5115ae5699c5610fa26",
      "scriptpubkey_asm": "OP_PUSHNUM_1 OP_PUSHBYTES_32 b226cb33b2d43e7b9b65e7e666c3d100d7462dfd11c1e5115ae5699c5610fa26",
      "scriptpubkey_type": "v1_p2tr",
      "scriptpubkey_address": "bc1pkgnvkvaj6sl8hxm9ulnxds73qrt5vt0az8q72y26u45ec4sslgnqd09533",
      "value": 132765
    }
  ],
  "size": 942,
  "weight": 2448,
  "fee": 9180,
  "status": {
    "confirmed": true,
    "block_height": 834460,
    "block_hash": "00000000000000000000484a79b643b2524bbce82e5d8a442013fa5b8905ed98",
    "block_time": 1710307468
  },
  "hex": "020000000001069e1120862f2fe3d121a2521b14d9a62a6ba2ccc0bf8cd7c7c8a0b7daef89f30f0300000000010000809e1120862f2fe3d121a2521b14d9a62a6ba2ccc0bf8cd7c7c8a0b7daef89f30f0400000000010000802899a413be3aa3fc23be452076714439c57d7072eb7e2e51171fda307a5a3f950000000000ffffffff2dcffc6f8fbd76295d80a3399a3a825f8ebb054444d308b538394265e8ec1e070300000000010000809e1120862f2fe3d121a2521b14d9a62a6ba2ccc0bf8cd7c7c8a0b7daef89f30f0500000000010000804af7c93c0572746d3f2e298b72b5792fa12ee1670bd325aebbd0b8e1c78e5e6c01000000000100008006b004000000000000225120b226cb33b2d43e7b9b65e7e666c3d100d7462dfd11c1e5115ae5699c5610fa262202000000000000225120b226cb33b2d43e7b9b65e7e666c3d100d7462dfd11c1e5115ae5699c5610fa26fc170a0000000000160014e83620905a143360c5189c693a4fb4bd86d2f58b5802000000000000225120b226cb33b2d43e7b9b65e7e666c3d100d7462dfd11c1e5115ae5699c5610fa265802000000000000225120b226cb33b2d43e7b9b65e7e666c3d100d7462dfd11c1e5115ae5699c5610fa269d06020000000000225120b226cb33b2d43e7b9b65e7e666c3d100d7462dfd11c1e5115ae5699c5610fa2601403b5c072812b1219fb7ed4fa226dfcbdabc59c45e81a84b86690082d97801ceae7addee2ffb52f9184a5aedc47fccd34d0c440b0e37cb921753773bb08a2f64850140c6d24c1aec5334f5ebde367fec65dda9ebb70123cb8456e7588a0f97928808dd649c71a7ad17a47180c2cd35e266a705fb1a77177d7d75f0481afca45f98e89d024830450221009b7c8616a7401a39500ba1214db94c639f56944b0bfb440216dc846008ffe44602203a2e2135c30cd3cb4e910b065d985fb55450cde68dc4ebc1117328356a5c704283210256d56731ba6875e132ce1008fa28e38e2aa6b474d71b40c8b036180c92c4dccd01409db953f736f9251ed5ba2193c9e28f36b7f0b39a1ccd72cf60ea9f1cb6fd008a3da5696b6cb6242792d4327aa4cc40637ce75335770d8e368e30f44de82c90970140c2116b96b0808395785fe21597f6e521d4d0d21b837f502fe718dc50a44264a254557b8131a2ae230a71d7cc063fd5ceaee7654f29446fe2030b15e81bb8af82014015c4462db649a37dcfb249cda35243e564593f9a9b545c73f3c72c243d62a554047f7764dd7a0aa99fbfffa3dcc95e4ee86f954d28156247519e319c338f54d100000000"
}