{
  "txid": "c7330d6960eef7a6154fbc458c10e54cb90cb4913e28e131040fce2af2750825",
  "version": 2,
  "locktime": 834637,
  "vin": [
    {
      "txid": "08bc2bc0bc48a5787ff47a1381be51b47bd2bb34ef149b18e46ae3ec55cf8dfa",
      "vout": 1,
      "prevout": {
        "scriptpubkey": "76a91481136328997980ff8a9f462b56c2af1a374616ee88ac",
        "scriptpubkey_asm": "OP_DUP OP_HASH160 OP_PUSHBYTES_20 81136328997980ff8a9f462b56c2af1a374616ee OP_EQUALVERIFY OP_CHECKSIG",
        "scriptpubkey_type": "p2pkh",
        "scriptpubkey_address": "1CmVPoWw45uLUjiG2YVkzowy3ExazHK5Cc",
        "value": 64844
      },
      "scriptsig": "47304402203ea235cab0622246d558c373595fe58788eb4ac886c1bc40c79083d4081f31d0022059c121a5264bfefdb305b1bef650fb6b187dd773a8f9c1713d03df7d7fc9893e01210263bc7c678d806ab5bed4add65a47f798457219ab847bb07fcacab588df99b0de",
      "scriptsig_asm": "OP_PUSHBYTES_71 304402203ea235cab0622246d558c373595fe58788eb4ac886c1bc40c79083d4081f31d0022059c121a5264bfefdb305b1bef650fb6b187dd773a8f9c1713d03df7d7fc9893e01 OP_PUSHBYTES_33 0263bc7c678d806ab5bed4add65a47f798457219ab847bb07fcacab588df99b0de",
      "is_coinbase": false,
      "sequence": 4294967293
    },
    {
      "txid": "fc5f3360075ea8f9b6857b74edaf1f6317f5467c3410c56300e4741363ed54b7",
      "vout": 1,
      "prevout": {
        "scriptpubkey": "76a91459183f3e4ac3cfd7d0f6c2ebb3e227ba0cfd526888ac",
        "scriptpubkey_asm": "OP_DUP OP_HASH160 OP_PUSHBYTES_20 59183f3e4ac3cfd7d0f6c2ebb3e227ba0cfd5268 OP_EQUALVERIFY OP_CHECKSIG",
        "scriptpubkey_type": "p2pkh",
        "scriptpubkey_address": "1986BnejA8vqkKUeSE1LUGEFV18MD4Q6mb",
        "value": 634032
      },
      "scriptsig": "4730440220605a28f86cdb00d1577185c48b5a1a4fb91eb30c058f106ed760c468ad7b92ba02205d6e5e55a288084bbc351a7d6b5d61766059ace46f409db8c2275c2f25b4d8d70121030870a20898b71921e2cb1278bb7869dcea2c61a83233f59a7fd214b92a8695d8",
      "scriptsig_asm": "OP_PUSHBYTES_71 30440220605a28f86cdb00d1577185c48b5a1a4fb91eb30c058f106ed760c468ad7b92ba02205d6e5e55a288084bbc351a7d6b5d61766059ace46f409db8c2275c2f25b4d8d701 OP_PUSHBYTES_33 030870a20898b71921e2cb1278bb7869dcea2c61a83233f59a7fd214b92a8695d8",
      "is_coinbase": false,
      "sequence": 4294967293
    },
    {
      "txid": "e9fde4636820316a21794db14e6b96be6d8500e67737be8382b43eea39a27098",
      "vout": 1,
      "prevout": {
        "scriptpubkey": "76a9149025b19e875ed6be4b75e2dc95c8184f358de25088ac",
        "scriptpubkey_asm": "OP_DUP OP_HASH160 OP_PUSHBYTES_20 9025b19e875ed6be4b75e2dc95c8184f358de250 OP_EQUALVERIFY OP_CHECKSIG",
        "scriptpubkey_type": "p2pkh",
        "scriptpubkey_address": "1E9BTdv5yfFXsRJiapjRHqAUcyEsrjAECt",
        "value": 508118
      },
      "scriptsig": "473044022018da7d715b33b8000cd13d549e3cee4fde10ec94023363f381fc6714dfddf5a502203029414d0356be1e7141ff97ca8fc9f0a604177ec18d79d1b734288ab546ee6c012103a8a4583959c6d40e06a77aed45d181534076fb415f07b0420c554a3e534e327b",
      "scriptsig_asm": "OP_PUSHBYTES_71 3044022018da7d715b33b8000cd13d549e3cee4fde10ec94023363f381fc6714dfddf5a502203029414d0356be1e7141ff97ca8fc9f0a604177ec18d79d1b734288ab546ee6c01 OP_PUSHBYTES_33 03a8a4583959c6d40e06a77aed45d181534076fb415f07b0420c554a3e534e327b",
      "is_coinbase": false,
      "sequence": 4294967293
    }
  ],
  "vout": [
    {
      "scriptpubkey": "76a914157d7f12259552f30921e3c64b26285d401434ed88ac",
      "scriptpubkey_asm": "OP_DUP OP_HASH160 OP_PUSHBYTES_20 157d7f12259552f30921e3c64b26285d401434ed OP_EQUALVERIFY OP_CHECKSIG",
      "scriptpubkey_type": "p2pkh",
      "scriptpubkey_address": "12xdXfoyfWpQeHrMBDa4GHFNTXyAQXPv23",
      "value": 1200000
    }
  ],
  "size": 485,
  "weight": 1940,
  "fee": 6994,
  "status": {
    "confirmed": true,
    "block_height": 834638,
    "block_hash": "000000000000000000025f742c626208ac87e0b7d15054abb4a19ca2d735a54e",
    "block_time": 1710405325
  },
  "hex": "0200000003fa8dcf55ece36ae4189b14ef34bbd27bb451be81137af47f78a548bcc02bbc08010000006a47304402203ea235cab0622246d558c373595fe58788eb4ac886c1bc40c79083d4081f31d0022059c121a5264bfefdb305b1bef650fb6b187dd773a8f9c1713d03df7d7fc9893e01210263bc7c678d806ab5bed4add65a47f798457219ab847bb07fcacab588df99b0defdffffffb754ed631374e40063c510347c46f517631fafed747b85b6f9a85e0760335ffc010000006a4730440220605a28f86cdb00d1577185c48b5a1a4fb91eb30c058f106ed760c468ad7b92ba02205d6e5e55a288084bbc351a7d6b5d61766059ace46f409db8c2275c2f25b4d8d70121030870a20898b71921e2cb1278bb7869dcea2c61a83233f59a7fd214b92a8695d8fdffffff9870a239ea3eb48283be3777e600856dbe966b4eb14d79216a31206863e4fde9010000006a473044022018da7d715b33b8000cd13d549e3cee4fde10ec94023363f381fc6714dfddf5a502203029414d0356be1e7141ff97ca8fc9f0a604177ec18d79d1b734288ab546ee6c012103a8a4583959c6d40e06a77aed45d181534076fb415f07b0420c554a3e534e327bfdffffff01804f1200000000001976a914157d7f12259552f30921e3c64b26285d401434ed88ac4dbc0c00"
}