{
  "txid": "c748f8cd6098337267b98f4207419a6c5603b37624698d9f2ebb78981e3d3d91",
  "version": 2,
  "locktime": 0,
  "vin": [
    {
      "txid": "12848a1f84ad552475e874cce291926f292412de23b7537898e98c7370f2e86c",
      "vout": 3,
      "prevout": {
        "scriptpubkey": "512067e1d4b30ead6e25df76e83ff2a9d93d82a4665ef88df98847a9f6e64b8c8919",
        "scriptpubkey_asm": "OP_PUSHNUM_1 OP_PUSHBYTES_32 67e1d4b30ead6e25df76e83ff2a9d93d82a4665ef88df98847a9f6e64b8c8919",
        "scriptpubkey_type": "v1_p2tr",
        "scriptpubkey_address": "bc1pvlsafvcw44hzthmkaqll92we8kp2gej7lzxlnzz848mwvjuv3yvsn7zlaa",
        "value": 2358
      },
      "scriptsig": "",
      "scriptsig_asm": "",
      "witness": [
        "5f769ad4393b514fb134c4f2709be34a4cb9eff22b387b776ddb4ca0021001b386a33d5b57d2e2afda56b705106aa2ecf5f4a00cfdb75fea44f99784f40d0280",
        "20ff7a26a09cd46e692ad3d4b0e7cae743f104ab82de2a701af56bf039295aabc0ac0063036f7264010118746578742f706c61696e3b636861727365743d7574662d3800377b2270223a226272632d3230222c226f70223a226d696e74222c227469636b223a22424f424f222c22616d74223a22313030303030227d68",
        "c1507504f881a2548efcb0bd8b5287fd78c473d5bd35b181abdd5c5cd6d10de204"
      ],
      "is_coinbase": false,
      "sequence": 4294967295
    }
  ],
  "vout": [
    {
      "scriptpubkey": "512048d62e6aa4ce9b4b4d760b1dc0c3e46b46d84be76ae456792a664139e7aaa19c",
      "scriptpubkey_asm": "OP_PUSHNUM_1 OP_PUSHBYTES_32 48d62e6aa4ce9b4b4d760b1dc0c3e46b46d84be76ae456792a664139e7aaa19c",
      "scriptpubkey_type": "v1_p2tr",
      "scriptpubkey_address": "bc1pfrtzu64ye6d5kntkpvwupslyddrdsjl8dtj9v7f2veqnnea25xwqu8ycu4",
      "value": 546
    }
  ],
  "size": 322,
  "weight": 604,
  "fee": 1812,
  "status": {
    "confirmed": true,
    "block_height": 834460,
    "block_hash": "00000000000000000000484a79b643b2524bbce82e5d8a442013fa5b8905ed98",
    "block_time": 1710307468
  },
  "hex": "020000000001016ce8f270738ce9987853b723de1224296f9291e2cc74e8752455ad841f8a84120300000000ffffffff01220200000000000022512048d62e6aa4ce9b4b4d760b1dc0c3e46b46d84be76ae456792a664139e7aaa19c03405f769ad4393b514fb134c4f2709be34a4cb9eff22b387b776ddb4ca0021001b386a33d5b57d2e2afda56b705106aa2ecf5f4a00cfdb75fea44f99784f40d02807d20ff7a26a09cd46e692ad3d4b0e7cae743f104ab82de2a701af56bf039295aabc0ac0063036f7264010118746578742f706c61696e3b636861727365743d7574662d3800377b2270223a226272632d3230222c226f70223a226d696e74222c227469636b223a22424f424f222c22616d74223a22313030303030227d6821c1507504f881a2548efcb0bd8b5287fd78c473d5bd35b181abdd5c5cd6d10de20400000000"
}