{
  "txid": "c760f441017ddae392a8dcf1d696e5ebcfd94d564c03675cede5663b285af16d",
  "version": 1,
  "locktime": 0,
  "vin": [
    {
      "txid": "a8c1d08c6dd955fad7811c5d653af2f3dc36bf4747f3f8ecb507034fab4d46f3",
      "vout": 1,
      "prevout": {
        "scriptpubkey": "001461e360872d95a65fcd155bb062be00d9a613b0e2",
        "scriptpubkey_asm": "OP_0 OP_PUSHBYTES_20 61e360872d95a65fcd155bb062be00d9a613b0e2",
        "scriptpubkey_type": "v0_p2wpkh",
        "scriptpubkey_address": "bc1qv83kppedjkn9lng4twcx90sqmxnp8v8zmtm69r",
        "value": 675200
      },
      "scriptsig": "",
      "scriptsig_asm": "",
      "witness": [
        "30440220763e87ca3a6b7578d69f8f079f5de5387c3060271044c52b67c21c68375f2e4f0220411c062b816acc30197e35a6244e6c9b634984ed0faaee53677ef8f0bf3e0fb301",
        "02be760fb0017a0b2ef42479ecb4bfad84bb7b78ae0a5eb30f9dfe526806ac8c41"
      ],
      "is_coinbase": false,
      "sequence": 4294967295
    }
  ],
  "vout": [
    {
      "scriptpubkey": "0014835d589ce2c0b6db7c7c036dac93fa38637c4fc0",
      "scriptpubkey_asm": "OP_0 OP_PUSHBYTES_20 835d589ce2c0b6db7c7c036dac93fa38637c4fc0",
      "scriptpubkey_type": "v0_p2wpkh",
      "scriptpubkey_address": "bc1qsdw4388zczmdklruqdk6eyl68p3hcn7q7dy573",
      "value": 450000
    },
    {
      "scriptpubkey": "001461e360872d95a65fcd155bb062be00d9a613b0e2",
      "scriptpubkey_asm": "OP_0 OP_PUSHBYTES_20 61e360872d95a65fcd155bb062be00d9a613b0e2",
      "scriptpubkey_type": "v0_p2wpkh",
      "scriptpubkey_address": "bc1qv83kppedjkn9lng4twcx90sqmxnp8v8zmtm69r",
      "value": 213920
    }
  ],
  "size": 222,
  "weight": 561,
  "fee": 11280,
  "status": {
    "confirmed": true,
    "block_height": 834464,
    "block_hash": "0000000000000000000177a0869a911a2b65c9bdcd5a8bcb02b68f305bee848e",
    "block_time": 1710308296
  },
  "hex": "01000000000101f3464dab4f0307b5ecf8f34747bf36dcf3f23a655d1c81d7fa55d96d8cd0c1a80100000000ffffffff02d0dd060000000000160014835d589ce2c0b6db7c7c036dac93fa38637c4fc0a04303000000000016001461e360872d95a65fcd155bb062be00d9a613b0e2024730440220763e87ca3a6b7578d69f8f079f5de5387c3060271044c52b67c21c68375f2e4f0220411c062b816acc30197e35a6244e6c9b634984ed0faaee53677ef8f0bf3e0fb3012102be760fb0017a0b2ef42479ecb4bfad84bb7b78ae0a5eb30f9dfe526806ac8c4100000000"
}