{
  "txid": "c780011059e6fdaa7e892bcdfbb0cfb884e704d549c3394eb1cb2b753240df92",
  "version": 2,
  "locktime": 0,
  "vin": [
    {
      "txid": "f86ce8745306b47a94851a891c19c010b14d5de44367c25f5c042958cd2dc780",
      "vout": 1,
      "prevout": {
        "scriptpubkey": "0014a49484ec34aa48120ff64fe13ca2bee7acb9ca46",
        "scriptpubkey_asm": "OP_0 OP_PUSHBYTES_20 a49484ec34aa48120ff64fe13ca2bee7acb9ca46",
        "scriptpubkey_type": "v0_p2wpkh",
        "scriptpubkey_address": "bc1q5j2gfmp54fypyrlkflsneg47u7ktnjjxetl6gl",
        "value": 151030
      },
      "scriptsig": "",
      "scriptsig_asm": "",
      "witness": [
        "304502210085ef574a0783ce3880a745d9bc0d2494059c768760271abde0dd05aca08110400220244410848147713ad5995a99dc7f510b5df7756a8dc3824dbafa1776e248fd9c01",
        "03ed55c83bd3467497ac716420eed6a08609fbecbe7d2c00f064c01b52c3ce57a7"
      ],
      "is_coinbase": false,
      "sequence": 4294967293
    }
  ],
  "vout": [
    {
      "scriptpubkey": "00140600de48d7115de26b94e699bda3fb15c688ba9f",
      "scriptpubkey_asm": "OP_0 OP_PUSHBYTES_20 0600de48d7115de26b94e699bda3fb15c688ba9f",
      "scriptpubkey_type": "v0_p2wpkh",
      "scriptpubkey_address": "bc1qqcqdujxhz9w7y6u5u6vmmglmzhrg3w5l332848",
      "value": 149574
    }
  ],
  "size": 192,
  "weight": 438,
  "fee": 1456,
  "status": {
    "confirmed": true,
    "block_height": 834464,
    "block_hash": "0000000000000000000177a0869a911a2b65c9bdcd5a8bcb02b68f305bee848e",
    "block_time": 1710308296
  },
  "hex": "0200000000010180c72dcd5829045c5fc26743e45d4db110c0191c891a85947ab4065374e86cf80100000000fdffffff0146480200000000001600140600de48d7115de26b94e699bda3fb15c688ba9f0248304502210085ef574a0783ce3880a745d9bc0d2494059c768760271abde0dd05aca08110400220244410848147713ad5995a99dc7f510b5df7756a8dc3824dbafa1776e248fd9c012103ed55c83bd3467497ac716420eed6a08609fbecbe7d2c00f064c01b52c3ce57a700000000"
}