{
  "txid": "c799c8e22fa4b7c700730ecc48cf22504e0a704ab51ab5b4082e9b75bed526dd",
  "version": 1,
  "locktime": 0,
  "vin": [
    {
      "txid": "953953e5fc0316dab684a83a7e656a6ecdead78da0036a3264d346daa0245fc3",
      "vout": 8,
      "prevout": {
        "scriptpubkey": "51203429c2bad6675effdb4f90956e1728ab5522bf04fe47905f86822274decfff98",
        "scriptpubkey_asm": "OP_PUSHNUM_1 OP_PUSHBYTES_32 3429c2bad6675effdb4f90956e1728ab5522bf04fe47905f86822274decfff98",
        "scriptpubkey_type": "v1_p2tr",
        "scriptpubkey_address": "bc1pxs5u9wkkva00lk60jz2ku9eg4d2j90cylereqhuxsg38fhk0l7vq2jsza2",
        "value": 2034
      },
      "scriptsig": "",
      "scriptsig_asm": "",
      "witness": [
        "7c78b7ff763b3b3c8778571216725f02e452f924b1628beb65508743dce9c3913bdc68118cae1ae7efda67d04a9dfe7aa3241555983098911138f71c266e7df9",
        "20f62780a9e4239811809cd77143c95c8823bcb0410e5a945cad71bfd1049884b3ac0063036f7264010118746578742f706c61696e3b636861727365743d7574662d3800407b2270223a226272632d3230222c226f70223a226d696e74222c227469636b223a2262696261222c22616d74223a22343230343230363930363930362e39227d68",
        "c1f62780a9e4239811809cd77143c95c8823bcb0410e5a945cad71bfd1049884b3"
      ],
      "is_coinbase": false,
      "sequence": 4294967293
    }
  ],
  "vout": [
    {
      "scriptpubkey": "00146d37601965cb1b6763ab5d3ffb0670679025e6ac",
      "scriptpubkey_asm": "OP_0 OP_PUSHBYTES_20 6d37601965cb1b6763ab5d3ffb0670679025e6ac",
      "scriptpubkey_type": "v0_p2wpkh",
      "scriptpubkey_address": "bc1qd5mkqxt9evdkwcatt5llkpnsv7gzte4ve5ex54",
      "value": 294
    }
  ],
  "size": 319,
  "weight": 565,
  "fee": 1740,
  "status": {
    "confirmed": true,
    "block_height": 834460,
    "block_hash": "00000000000000000000484a79b643b2524bbce82e5d8a442013fa5b8905ed98",
    "block_time": 1710307468
  },
  "hex": "01000000000101c35f24a0da46d364326a03a08dd7eacd6e6a657e3aa884b6da1603fce55339950800000000fdffffff0126010000000000001600146d37601965cb1b6763ab5d3ffb0670679025e6ac03407c78b7ff763b3b3c8778571216725f02e452f924b1628beb65508743dce9c3913bdc68118cae1ae7efda67d04a9dfe7aa3241555983098911138f71c266e7df98620f62780a9e4239811809cd77143c95c8823bcb0410e5a945cad71bfd1049884b3ac0063036f7264010118746578742f706c61696e3b636861727365743d7574662d3800407b2270223a226272632d3230222c226f70223a226d696e74222c227469636b223a2262696261222c22616d74223a22343230343230363930363930362e39227d6821c1f62780a9e4239811809cd77143c95c8823bcb0410e5a945cad71bfd1049884b300000000"
}