{
  "txid": "c79fd5f8d4b01262ac673160cb32f6f637776682c83854af7059946f1815390f",
  "version": 2,
  "locktime": 832304,
  "vin": [
    {
      "txid": "309a415b70a8e59688a2882fb1ac754d057310c7292bff7085f6730a85256ab0",
      "vout": 1,
      "prevout": {
        "scriptpubkey": "00143e58ae30d008763eb7aea76d2579656a565e29d6",
        "scriptpubkey_asm": "OP_0 OP_PUSHBYTES_20 3e58ae30d008763eb7aea76d2579656a565e29d6",
        "scriptpubkey_type": "v0_p2wpkh",
        "scriptpubkey_address": "bc1q8ev2uvxsppmradaw5akj27t9dft9u2wkl5g429",
        "value": 18451
      },
      "scriptsig": "",
      "scriptsig_asm": "",
      "witness": [
        "304402200d96990ec343af4dd51fb231206621517e5fb423a5ad6918b501e45575fdb50c02207da7cb9f5c512c2f722e2f87568931dbdd66c857b6dc972d846127e16660576901",
        "021852b2ad2e281e9ec70fa24e7acb574a5fe78ec8224ff43d20abb2aebbfcc7ae"
      ],
      "is_coinbase": false,
      "sequence": 4294967294
    }
  ],
  "vout": [
    {
      "scriptpubkey": "0014bdcaf8c9e1aec053ae008cfdf83b0e33ebb47c22",
      "scriptpubkey_asm": "OP_0 OP_PUSHBYTES_20 bdcaf8c9e1aec053ae008cfdf83b0e33ebb47c22",
      "scriptpubkey_type": "v0_p2wpkh",
      "scriptpubkey_address": "bc1qhh903j0p4mq98tsq3n7lswcwx04mglpzr3828l",
      "value": 16339
    },
    {
      "scriptpubkey": "a914175b60a32ab8cfed7d3d09111c67923aa232422e87",
      "scriptpubkey_asm": "OP_HASH160 OP_PUSHBYTES_20 175b60a32ab8cfed7d3d09111c67923aa232422e OP_EQUAL",
      "scriptpubkey_type": "p2sh",
      "scriptpubkey_address": "33pWvyWeGboTEQTkVrSdtWAz85iT27QZVS",
      "value": 546
    }
  ],
  "size": 223,
  "weight": 565,
  "fee": 1566,
  "status": {
    "confirmed": true,
    "block_height": 834464,
    "block_hash": "0000000000000000000177a0869a911a2b65c9bdcd5a8bcb02b68f305bee848e",
    "block_time": 1710308296
  },
  "hex": "02000000000101b06a25850a73f68570ff2b29c71073054d75acb12f88a28896e5a8705b419a300100000000feffffff02d33f000000000000160014bdcaf8c9e1aec053ae008cfdf83b0e33ebb47c22220200000000000017a914175b60a32ab8cfed7d3d09111c67923aa232422e870247304402200d96990ec343af4dd51fb231206621517e5fb423a5ad6918b501e45575fdb50c02207da7cb9f5c512c2f722e2f87568931dbdd66c857b6dc972d846127e1666057690121021852b2ad2e281e9ec70fa24e7acb574a5fe78ec8224ff43d20abb2aebbfcc7ae30b30c00"
}