{
  "txid": "c7ae45e14927e42c2bf4e164446e19d8e43357a5cfb3e4e3464d4670633fcbc6",
  "version": 2,
  "locktime": 0,
  "vin": [
    {
      "txid": "66a8237315bc2a1b1b1d2793e3e9b702978aa3e3c647fcaa4b532f7fe5fcf42a",
      "vout": 31,
      "prevout": {
        "scriptpubkey": "0014f316b0c6e836d8f351323079e4a2c400eae5cf8e",
        "scriptpubkey_asm": "OP_0 OP_PUSHBYTES_20 f316b0c6e836d8f351323079e4a2c400eae5cf8e",
        "scriptpubkey_type": "v0_p2wpkh",
        "scriptpubkey_address": "bc1q7vttp3hgxmv0x5fjxpu7fgkyqr4wtnuwktm0ny",
        "value": 331040
      },
      "scriptsig": "",
      "scriptsig_asm": "",
      "witness": [
        "304402201c5612dba1ec3e19393b5e0ca8d263b9d8f57cdebf817fc79277914aa58e761702200fd971a7af27aa161edccd6c1ba2b406b92230873e737f87e44c3b89f739649e01",
        "039713286e3411b97a21f373404b250bf3f8a169bc5f56de8379e7bc35662767f2"
      ],
      "is_coinbase": false,
      "sequence": 4294967293
    }
  ],
  "vout": [
    {
      "scriptpubkey": "0014bf49ecc1b164fc9dbc68ef4210405749725f6fb2",
      "scriptpubkey_asm": "OP_0 OP_PUSHBYTES_20 bf49ecc1b164fc9dbc68ef4210405749725f6fb2",
      "scriptpubkey_type": "v0_p2wpkh",
      "scriptpubkey_address": "bc1qhay7esd3vn7fm0rgaappqszhf9e97majqg9cdx",
      "value": 4949
    },
    {
      "scriptpubkey": "0014619c3387030d79c94ae9cbcf2321b66cd5a63f48",
      "scriptpubkey_asm": "OP_0 OP_PUSHBYTES_20 619c3387030d79c94ae9cbcf2321b66cd5a63f48",
      "scriptpubkey_type": "v0_p2wpkh",
      "scriptpubkey_address": "bc1qvxwr8pcrp4uujjhfe08jxgdkdn26v06gv5s8lw",
      "value": 3942
    },
    {
      "scriptpubkey": "0014b3500182a7983e81f03bdd09e4f1452a4d9d457e",
      "scriptpubkey_asm": "OP_0 OP_PUSHBYTES_20 b3500182a7983e81f03bdd09e4f1452a4d9d457e",
      "scriptpubkey_type": "v0_p2wpkh",
      "scriptpubkey_address": "bc1qkdgqrq48nqlgrupmm5y7fu299fxe63t7erl4ue",
      "value": 320251
    }
  ],
  "size": 253,
  "weight": 685,
  "fee": 1898,
  "status": {
    "confirmed": true,
    "block_height": 834460,
    "block_hash": "00000000000000000000484a79b643b2524bbce82e5d8a442013fa5b8905ed98",
    "block_time": 1710307468
  },
  "hex": "020000000001012af4fce57f2f534baafc47c6e3a38a9702b7e9e393271d1b1b2abc157323a8661f00000000fdffffff035513000000000000160014bf49ecc1b164fc9dbc68ef4210405749725f6fb2660f000000000000160014619c3387030d79c94ae9cbcf2321b66cd5a63f48fbe2040000000000160014b3500182a7983e81f03bdd09e4f1452a4d9d457e0247304402201c5612dba1ec3e19393b5e0ca8d263b9d8f57cdebf817fc79277914aa58e761702200fd971a7af27aa161edccd6c1ba2b406b92230873e737f87e44c3b89f739649e0121039713286e3411b97a21f373404b250bf3f8a169bc5f56de8379e7bc35662767f200000000"
}