{
  "txid": "c7b6a88bb36c301a4fff0253f841625be1ff10483ab8b6430957a263f3543a22",
  "version": 2,
  "locktime": 0,
  "vin": [
    {
      "txid": "16832043f5a8e6d909ef00a411aab85aedbfe3a07e7a41394c4a634ef5d94e2a",
      "vout": 1,
      "prevout": {
        "scriptpubkey": "a91443b7328d5a6aafe0619b52e3b3ea8c18d35fac5687",
        "scriptpubkey_asm": "OP_HASH160 OP_PUSHBYTES_20 43b7328d5a6aafe0619b52e3b3ea8c18d35fac56 OP_EQUAL",
        "scriptpubkey_type": "p2sh",
        "scriptpubkey_address": "37s4fBNpC78UGVCKzdEcEayXSQJfaqbx1b",
        "value": 80029334
      },
      "scriptsig": "16001429e98ad631c74606b08bcc0d529717a2a751e226",
      "scriptsig_asm": "OP_PUSHBYTES_22 001429e98ad631c74606b08bcc0d529717a2a751e226",
      "witness": [
        "3045022100d0272532d48399daecb43773fcff1b581ddaf0d06b0722b467652648768c286a0220055a83a743437a2889085b2ab23ac7bf79ce93348132f125cf498001bc94429001",
        "030dd42927279070f31a7bea40d1453e1eecaff9c539b46c0c0100a7fdf5ed9ac3"
      ],
      "is_coinbase": false,
      "sequence": 0,
      "inner_redeemscript_asm": "OP_0 OP_PUSHBYTES_20 29e98ad631c74606b08bcc0d529717a2a751e226"
    }
  ],
  "vout": [
    {
      "scriptpubkey": "a9145c0e54019435a105f2f795b92e96143d6a4f70a487",
      "scriptpubkey_asm": "OP_HASH160 OP_PUSHBYTES_20 5c0e54019435a105f2f795b92e96143d6a4f70a4 OP_EQUAL",
      "scriptpubkey_type": "p2sh",
      "scriptpubkey_address": "3A5mFjFyCBPnGEqa2g58FPaiJ1xwFB8U9b",
      "value": 5000000
    },
    {
      "scriptpubkey": "a914897079b44dfec40b84a64fa8a6587c57a9381e5887",
      "scriptpubkey_asm": "OP_HASH160 OP_PUSHBYTES_20 897079b44dfec40b84a64fa8a6587c57a9381e58 OP_EQUAL",
      "scriptpubkey_type": "p2sh",
      "scriptpubkey_address": "3EDjEkcoNxowvVe6CuL9bHtWtYtnWjU1qF",
      "value": 75026391
    }
  ],
  "size": 248,
  "weight": 662,
  "fee": 2943,
  "status": {
    "confirmed": true,
    "block_height": 834638,
    "block_hash": "000000000000000000025f742c626208ac87e0b7d15054abb4a19ca2d735a54e",
    "block_time": 1710405325
  },
  "hex": "020000000001012a4ed9f54e634a4c39417a7ea0e3bfed5ab8aa11a400ef09d9e6a8f543208316010000001716001429e98ad631c74606b08bcc0d529717a2a751e2260000000002404b4c000000000017a9145c0e54019435a105f2f795b92e96143d6a4f70a487d7cf78040000000017a914897079b44dfec40b84a64fa8a6587c57a9381e588702483045022100d0272532d48399daecb43773fcff1b581ddaf0d06b0722b467652648768c286a0220055a83a743437a2889085b2ab23ac7bf79ce93348132f125cf498001bc9442900121030dd42927279070f31a7bea40d1453e1eecaff9c539b46c0c0100a7fdf5ed9ac300000000"
}