{
  "txid": "c7c0cc6d879fac3a5774bca00cac0e8a56c52c930e51d16c8bb45ac3f8fba3e8",
  "version": 2,
  "locktime": 834637,
  "vin": [
    {
      "txid": "aa5831589c53a942497f775d6ae42ecb115aaae14e2da724e205f81a87faeb23",
      "vout": 2,
      "prevout": {
        "scriptpubkey": "0014d641b29c9913da80345e2490f9a1304434b142fe",
        "scriptpubkey_asm": "OP_0 OP_PUSHBYTES_20 d641b29c9913da80345e2490f9a1304434b142fe",
        "scriptpubkey_type": "v0_p2wpkh",
        "scriptpubkey_address": "bc1q6eqm98yez0dgqdz7yjg0ngfsgs6tzsh77jccwp",
        "value": 26142
      },
      "scriptsig": "",
      "scriptsig_asm": "",
      "witness": [
        "304402202d9a6eea02185d6cfe5f23622fda152951b1cdf0f3c1f69901d16e4196495a0802200393f682d2de27b94bdcfa3c643a36cf35c56b0692513f3b472a3105382948c601",
        "035405e872eaf92da67c2104df36612bb722bd944b14894a6de979cb3355814413"
      ],
      "is_coinbase": false,
      "sequence": 4294967294
    },
    {
      "txid": "7c706216c1c3d0397719a6917995c65ab171c086dbb153d5c5b0040b05c97ef2",
      "vout": 0,
      "prevout": {
        "scriptpubkey": "0014796bf2659faf7ef1ef2994b8d201b745e8cf6822",
        "scriptpubkey_asm": "OP_0 OP_PUSHBYTES_20 796bf2659faf7ef1ef2994b8d201b745e8cf6822",
        "scriptpubkey_type": "v0_p2wpkh",
        "scriptpubkey_address": "bc1q094lyevl4al0rmefjjudyqdhgh5v76pzxnld6s",
        "value": 653455
      },
      "scriptsig": "",
      "scriptsig_asm": "",
      "witness": [
        "3044022064647dbdf9cebee6457a09bb6068374c906196841e2fb3d25c8ca7e03804c522022004fa9e6b15957bfe6e9adc6e559e9aa97b5c013215ddf4ce46d632dd6bc3a9d501",
        "02be9dd45babdd22649b088cbc30141a9799ba3de0ad51a5eeb85c10b4f7688fa2"
      ],
      "is_coinbase": false,
      "sequence": 4294967294
    }
  ],
  "vout": [
    {
      "scriptpubkey": "0014a5ed5df367e80db3d8f2ff7e64d4bff7fa96161a",
      "scriptpubkey_asm": "OP_0 OP_PUSHBYTES_20 a5ed5df367e80db3d8f2ff7e64d4bff7fa96161a",
      "scriptpubkey_type": "v0_p2wpkh",
      "scriptpubkey_address": "bc1q5hk4mum8aqxm8k8jlalxf49l7lafv9s62q8j2t",
      "value": 676002
    }
  ],
  "size": 339,
  "weight": 708,
  "fee": 3595,
  "status": {
    "confirmed": true,
    "block_height": 834638,
    "block_hash": "000000000000000000025f742c626208ac87e0b7d15054abb4a19ca2d735a54e",
    "block_time": 1710405325
  },
  "hex": "0200000000010223ebfa871af805e224a72d4ee1aa5a11cb2ee46a5d777f4942a9539c583158aa0200000000fefffffff27ec9050b04b0c5d553b1db86c071b15ac6957991a6197739d0c3c11662707c0000000000feffffff01a2500a0000000000160014a5ed5df367e80db3d8f2ff7e64d4bff7fa96161a0247304402202d9a6eea02185d6cfe5f23622fda152951b1cdf0f3c1f69901d16e4196495a0802200393f682d2de27b94bdcfa3c643a36cf35c56b0692513f3b472a3105382948c60121035405e872eaf92da67c2104df36612bb722bd944b14894a6de979cb335581441302473044022064647dbdf9cebee6457a09bb6068374c906196841e2fb3d25c8ca7e03804c522022004fa9e6b15957bfe6e9adc6e559e9aa97b5c013215ddf4ce46d632dd6bc3a9d5012102be9dd45babdd22649b088cbc30141a9799ba3de0ad51a5eeb85c10b4f7688fa24dbc0c00"
}