{
  "txid": "c7fd24dfce405b792fd01c7897294c37bd4bd4e93286a1f1d9e7eff0f0d07db1",
  "version": 2,
  "locktime": 0,
  "vin": [
    {
      "txid": "0c609b45de1746311431b31191f289307b2462a262555508f95b46a9467f0152",
      "vout": 0,
      "prevout": {
        "scriptpubkey": "51201b670e8d12aabaeb64c0d72ad8c8b7895649ff124cf6cc0c5ba8f6515b53c11a",
        "scriptpubkey_asm": "OP_PUSHNUM_1 OP_PUSHBYTES_32 1b670e8d12aabaeb64c0d72ad8c8b7895649ff124cf6cc0c5ba8f6515b53c11a",
        "scriptpubkey_type": "v1_p2tr",
        "scriptpubkey_address": "bc1prdnsargj42awkexq6u4d3j9h39tynlcjfnmvcrzm4rm9zk6ncydq2pgjrg",
        "value": 5000
      },
      "scriptsig": "",
      "scriptsig_asm": "",
      "witness": [
        "88bfc9f0e9fce2598cc4bcad8b9e14bd8085dfa2d3b4633f6e01ad8a540ea17ab3e84300dec28946e66fdc6233e183854531517e6409676d6999e06938dab6b001"
      ],
      "is_coinbase": false,
      "sequence": 4294967295
    }
  ],
  "vout": [
    {
      "scriptpubkey": "76a914afbc586159ab1a7ae76a345ba9225a5dd5b18c0e88ac",
      "scriptpubkey_asm": "OP_DUP OP_HASH160 OP_PUSHBYTES_20 afbc586159ab1a7ae76a345ba9225a5dd5b18c0e OP_EQUALVERIFY OP_CHECKSIG",
      "scriptpubkey_type": "p2pkh",
      "scriptpubkey_address": "1H2Ct2Yq8mgnq9HSi5gFzPNhEo1FgDLRyy",
      "value": 3768
    }
  ],
  "size": 154,
  "weight": 409,
  "fee": 1232,
  "status": {
    "confirmed": true,
    "block_height": 834460,
    "block_hash": "00000000000000000000484a79b643b2524bbce82e5d8a442013fa5b8905ed98",
    "block_time": 1710307468
  },
  "hex": "0200000000010152017f46a9465bf908555562a262247b3089f29111b33114314617de459b600c0000000000ffffffff01b80e0000000000001976a914afbc586159ab1a7ae76a345ba9225a5dd5b18c0e88ac014188bfc9f0e9fce2598cc4bcad8b9e14bd8085dfa2d3b4633f6e01ad8a540ea17ab3e84300dec28946e66fdc6233e183854531517e6409676d6999e06938dab6b00100000000"
}