{
  "txid": "c816fb1a46e97bc1736a2144d57d9b7c61202685325e4902077ac08afe66db1e",
  "version": 2,
  "locktime": 0,
  "vin": [
    {
      "txid": "d84d62f544f920cdcb7d749d395723dc08c1f9bbe7cffde1427ff76812a91d66",
      "vout": 1,
      "prevout": {
        "scriptpubkey": "5120515b769f11d0a4e969f4c83a72ef236920a37c8c40ff63e07750c7a700442237",
        "scriptpubkey_asm": "OP_PUSHNUM_1 OP_PUSHBYTES_32 515b769f11d0a4e969f4c83a72ef236920a37c8c40ff63e07750c7a700442237",
        "scriptpubkey_type": "v1_p2tr",
        "scriptpubkey_address": "bc1p29dhd8c36zjwj605eqa89merdys2xlyvgrlk8crh2rr6wqzyygmsalv86t",
        "value": 177538
      },
      "scriptsig": "",
      "scriptsig_asm": "",
      "witness": [
        "0bee885d16011de194c7e08b3d59f24505844ea9e21ada1941d659b456d96a0961d5e9e2869b69e97b88481ef8ff265e77593599ee09b7ba99dbffa45807ae11"
      ],
      "is_coinbase": false,
      "sequence": 4294967293
    }
  ],
  "vout": [
    {
      "scriptpubkey": "5120bba47ec95d90868b14ba3137fb090ed0c3bb0828b741852f7cebbefbbf5e49a9",
      "scriptpubkey_asm": "OP_PUSHNUM_1 OP_PUSHBYTES_32 bba47ec95d90868b14ba3137fb090ed0c3bb0828b741852f7cebbefbbf5e49a9",
      "scriptpubkey_type": "v1_p2tr",
      "scriptpubkey_address": "bc1phwj8aj2ajzrgk996xymlkzgw6rpmkzpgkaqc2tmuawl0h067fx5syyfnnh",
      "value": 2994
    },
    {
      "scriptpubkey": "5120515b769f11d0a4e969f4c83a72ef236920a37c8c40ff63e07750c7a700442237",
      "scriptpubkey_asm": "OP_PUSHNUM_1 OP_PUSHBYTES_32 515b769f11d0a4e969f4c83a72ef236920a37c8c40ff63e07750c7a700442237",
      "scriptpubkey_type": "v1_p2tr",
      "scriptpubkey_address": "bc1p29dhd8c36zjwj605eqa89merdys2xlyvgrlk8crh2rr6wqzyygmsalv86t",
      "value": 172080
    }
  ],
  "size": 205,
  "weight": 616,
  "fee": 2464,
  "status": {
    "confirmed": true,
    "block_height": 834638,
    "block_hash": "000000000000000000025f742c626208ac87e0b7d15054abb4a19ca2d735a54e",
    "block_time": 1710405325
  },
  "hex": "02000000000101661da91268f77f42e1fdcfe7bbf9c108dc2357399d747dcbcd20f944f5624dd80100000000fdffffff02b20b000000000000225120bba47ec95d90868b14ba3137fb090ed0c3bb0828b741852f7cebbefbbf5e49a930a0020000000000225120515b769f11d0a4e969f4c83a72ef236920a37c8c40ff63e07750c7a70044223701400bee885d16011de194c7e08b3d59f24505844ea9e21ada1941d659b456d96a0961d5e9e2869b69e97b88481ef8ff265e77593599ee09b7ba99dbffa45807ae1100000000"
}