{
  "txid": "c82ae7b8c2f03f7928111c36447b75900acd3874a26cc7503370902dd986064b",
  "version": 1,
  "locktime": 0,
  "vin": [
    {
      "txid": "43a57709272c9be8d4704f73e21c3fd556a4d73379d11a2677be00955cea8c2e",
      "vout": 18,
      "prevout": {
        "scriptpubkey": "0014e85b49f1af12838ca4d8e4ab49f4f318ead74127",
        "scriptpubkey_asm": "OP_0 OP_PUSHBYTES_20 e85b49f1af12838ca4d8e4ab49f4f318ead74127",
        "scriptpubkey_type": "v0_p2wpkh",
        "scriptpubkey_address": "bc1qapd5nud0z2pcefxcuj45na8nrr4dwsf8rcjmhy",
        "value": 127293
      },
      "scriptsig": "",
      "scriptsig_asm": "",
      "witness": [
        "304402200265f8f8f20aac3fbf4bb9eca849ac6d33e01975f7318cb8b8e6d9de61336bfa022031b35b6f414a817079f33d464647e29c61e8189d8b4dd4d1c6dca9a051260b5101",
        "0356ceaf8e24c635e0c211a48bcbdb171840679008d69e1d80215723fe6b0d00bb"
      ],
      "is_coinbase": false,
      "sequence": 4294967295
    }
  ],
  "vout": [
    {
      "scriptpubkey": "a9144c9cb253f99ea3db5a365b7bd02c1b25edd2436287",
      "scriptpubkey_asm": "OP_HASH160 OP_PUSHBYTES_20 4c9cb253f99ea3db5a365b7bd02c1b25edd24362 OP_EQUAL",
      "scriptpubkey_type": "p2sh",
      "scriptpubkey_address": "38g6zbMN83pyfSmbGbzMBWydVVbJWNDAsz",
      "value": 125635
    }
  ],
  "size": 192,
  "weight": 441,
  "fee": 1658,
  "status": {
    "confirmed": true,
    "block_height": 834638,
    "block_hash": "000000000000000000025f742c626208ac87e0b7d15054abb4a19ca2d735a54e",
    "block_time": 1710405325
  },
  "hex": "010000000001012e8cea5c9500be77261ad17933d7a456d53f1ce2734f70d4e89b2c270977a5431200000000ffffffff01c3ea01000000000017a9144c9cb253f99ea3db5a365b7bd02c1b25edd24362870247304402200265f8f8f20aac3fbf4bb9eca849ac6d33e01975f7318cb8b8e6d9de61336bfa022031b35b6f414a817079f33d464647e29c61e8189d8b4dd4d1c6dca9a051260b5101210356ceaf8e24c635e0c211a48bcbdb171840679008d69e1d80215723fe6b0d00bb00000000"
}