{
  "txid": "c84e878b9011308f15642618bb87e682206ff1af3c7e1cabf48c40963e29d6fc",
  "version": 2,
  "locktime": 834550,
  "vin": [
    {
      "txid": "a90bab5e00787f30cb82ce604970772120e08a81d9e282141c14b83a7cb7e46c",
      "vout": 0,
      "prevout": {
        "scriptpubkey": "0014305061e45d622190f85e7f816dac1a418cb7ede9",
        "scriptpubkey_asm": "OP_0 OP_PUSHBYTES_20 305061e45d622190f85e7f816dac1a418cb7ede9",
        "scriptpubkey_type": "v0_p2wpkh",
        "scriptpubkey_address": "bc1qxpgxrezavgsep7z707qkmtq6gxxt0m0fxt0ky4",
        "value": 309990
      },
      "scriptsig": "",
      "scriptsig_asm": "",
      "witness": [
        "304402202346fda4814d02023c88be2eddbe876ec98d93631e5f5148d8dded69203ad7c60220657e4c4d7a01314abe380ac34cdd6c8675cfa26155f71b9d3f5e4e5db279781c01",
        "029ffeda1d0d4deccd26f5af0744e25c57cb3ac8a1979678b884c169a0df2b8ea4"
      ],
      "is_coinbase": false,
      "sequence": 4294967293
    }
  ],
  "vout": [
    {
      "scriptpubkey": "001490abcc82df32a731ad75b5934432280e8afc6121",
      "scriptpubkey_asm": "OP_0 OP_PUSHBYTES_20 90abcc82df32a731ad75b5934432280e8afc6121",
      "scriptpubkey_type": "v0_p2wpkh",
      "scriptpubkey_address": "bc1qjz4ueqklx2nnrtt4kkf5gv3gp690ccfpxy6vgh",
      "value": 30308
    },
    {
      "scriptpubkey": "0014381559f1ad28dadd3b905b754fc62367f15255a1",
      "scriptpubkey_asm": "OP_0 OP_PUSHBYTES_20 381559f1ad28dadd3b905b754fc62367f15255a1",
      "scriptpubkey_type": "v0_p2wpkh",
      "scriptpubkey_address": "bc1q8q24nudd9rdd6wustd65l33rvlc4y4dpz56jj5",
      "value": 272632
    }
  ],
  "size": 222,
  "weight": 561,
  "fee": 7050,
  "status": {
    "confirmed": true,
    "block_height": 834552,
    "block_hash": "00000000000000000001dd0468a70c94f619251d286585cff57aeb4bd9ede330",
    "block_time": 1710355598
  },
  "hex": "020000000001016ce4b77c3ab8141c1482e2d9818ae0202177704960ce82cb307f78005eab0ba90000000000fdffffff02647600000000000016001490abcc82df32a731ad75b5934432280e8afc6121f828040000000000160014381559f1ad28dadd3b905b754fc62367f15255a10247304402202346fda4814d02023c88be2eddbe876ec98d93631e5f5148d8dded69203ad7c60220657e4c4d7a01314abe380ac34cdd6c8675cfa26155f71b9d3f5e4e5db279781c0121029ffeda1d0d4deccd26f5af0744e25c57cb3ac8a1979678b884c169a0df2b8ea4f6bb0c00"
}