{
  "txid": "c85c0199ac0089d5c701b32e0924a34fc2b9c1bd07ea4d905b9219aaa7adff61",
  "version": 1,
  "locktime": 0,
  "vin": [
    {
      "txid": "43caf5c6f9cbf8c14965c0bfbb2493cb94eb9f709d55708b6debc60bb636b77e",
      "vout": 3,
      "prevout": {
        "scriptpubkey": "76a914da8c7906050967d9a010353cdd0bdd45f10efc5e88ac",
        "scriptpubkey_asm": "OP_DUP OP_HASH160 OP_PUSHBYTES_20 da8c7906050967d9a010353cdd0bdd45f10efc5e OP_EQUALVERIFY OP_CHECKSIG",
        "scriptpubkey_type": "p2pkh",
        "scriptpubkey_address": "1Lvab38PGyvChhoDKjfNW6NkDEtKdrhvN4",
        "value": 85702
      },
      "scriptsig": "47304402202bbe5fa7d770880353d51948db3242d7330f8fc9ac62d5aaf9f4506d2471e813022076d7e088868d966d8cb5ad9d083c6cd1ef0ec943acc94ef853941da23cf83caf0121028bfc4f4aeb9f1b8e649db3e25873900c2a2c5c85de9708b395105cc309f8358a",
      "scriptsig_asm": "OP_PUSHBYTES_71 304402202bbe5fa7d770880353d51948db3242d7330f8fc9ac62d5aaf9f4506d2471e813022076d7e088868d966d8cb5ad9d083c6cd1ef0ec943acc94ef853941da23cf83caf01 OP_PUSHBYTES_33 028bfc4f4aeb9f1b8e649db3e25873900c2a2c5c85de9708b395105cc309f8358a",
      "is_coinbase": false,
      "sequence": 4294967295
    }
  ],
  "vout": [
    {
      "scriptpubkey": "76a914c1ec9a16ccc19703bd06de55a7ca4b7b045ea71b88ac",
      "scriptpubkey_asm": "OP_DUP OP_HASH160 OP_PUSHBYTES_20 c1ec9a16ccc19703bd06de55a7ca4b7b045ea71b OP_EQUALVERIFY OP_CHECKSIG",
      "scriptpubkey_type": "p2pkh",
      "scriptpubkey_address": "1JgNrQufayskgwxuUhD7bKXT58LzWux8Qy",
      "value": 82033
    }
  ],
  "size": 191,
  "weight": 764,
  "fee": 3669,
  "status": {
    "confirmed": true,
    "block_height": 834638,
    "block_hash": "000000000000000000025f742c626208ac87e0b7d15054abb4a19ca2d735a54e",
    "block_time": 1710405325
  },
  "hex": "01000000017eb736b60bc6eb6d8b70559d709feb94cb9324bbbfc06549c1f8cbf9c6f5ca43030000006a47304402202bbe5fa7d770880353d51948db3242d7330f8fc9ac62d5aaf9f4506d2471e813022076d7e088868d966d8cb5ad9d083c6cd1ef0ec943acc94ef853941da23cf83caf0121028bfc4f4aeb9f1b8e649db3e25873900c2a2c5c85de9708b395105cc309f8358affffffff0171400100000000001976a914c1ec9a16ccc19703bd06de55a7ca4b7b045ea71b88ac00000000"
}