{
  "txid": "c88aeb00c1d40dc6177eaa3db6513ce2c628551ef79c20fdf05e9421eb54a8a8",
  "version": 2,
  "locktime": 834637,
  "vin": [
    {
      "txid": "e9fcb1af7e43313ab356d11108070d9e7be1ac388ed112b6259bcbdb961d5240",
      "vout": 1,
      "prevout": {
        "scriptpubkey": "0014a0e6ffc312775d56f6049ded7720148aef34a678",
        "scriptpubkey_asm": "OP_0 OP_PUSHBYTES_20 a0e6ffc312775d56f6049ded7720148aef34a678",
        "scriptpubkey_type": "v0_p2wpkh",
        "scriptpubkey_address": "bc1q5rn0lscjwaw4dasynhkhwgq53thnffncv22946",
        "value": 14409400
      },
      "scriptsig": "",
      "scriptsig_asm": "",
      "witness": [
        "3044022017f4e04adb3d99f386d60b1ca11fb34643a7792faf3c7272441f092a38d302ac02206c5f46bc1fdadfd8ae238b8839e01c0b514c3da17bc372ae1748b613f023857101",
        "0274d97a4f69f5c5f622b07c0fe793e496947b8dc03a374a23b13b21bfa72831ec"
      ],
      "is_coinbase": false,
      "sequence": 4294967293
    }
  ],
  "vout": [
    {
      "scriptpubkey": "0014a4c2fc24060f00b9b25af00bbbba98b931a8c3e8",
      "scriptpubkey_asm": "OP_0 OP_PUSHBYTES_20 a4c2fc24060f00b9b25af00bbbba98b931a8c3e8",
      "scriptpubkey_type": "v0_p2wpkh",
      "scriptpubkey_address": "bc1q5np0cfqxpuqtnvj67q9mhw5chyc63slgc7s0lf",
      "value": 4905500
    },
    {
      "scriptpubkey": "0014241545f91131081a8d8293eb17c4e763928cf57d",
      "scriptpubkey_asm": "OP_0 OP_PUSHBYTES_20 241545f91131081a8d8293eb17c4e763928cf57d",
      "scriptpubkey_type": "v0_p2wpkh",
      "scriptpubkey_address": "bc1qys25t7g3xyyp4rvzj0430388vwfgeatam0qwne",
      "value": 9500000
    }
  ],
  "size": 222,
  "weight": 561,
  "fee": 3900,
  "status": {
    "confirmed": true,
    "block_height": 834638,
    "block_hash": "000000000000000000025f742c626208ac87e0b7d15054abb4a19ca2d735a54e",
    "block_time": 1710405325
  },
  "hex": "0200000000010140521d96dbcb9b25b612d18e38ace17b9e0d070811d156b33a31437eafb1fce90100000000fdffffff021cda4a0000000000160014a4c2fc24060f00b9b25af00bbbba98b931a8c3e860f5900000000000160014241545f91131081a8d8293eb17c4e763928cf57d02473044022017f4e04adb3d99f386d60b1ca11fb34643a7792faf3c7272441f092a38d302ac02206c5f46bc1fdadfd8ae238b8839e01c0b514c3da17bc372ae1748b613f023857101210274d97a4f69f5c5f622b07c0fe793e496947b8dc03a374a23b13b21bfa72831ec4dbc0c00"
}