{
  "txid": "c8965070a1b123043ad0ec9b91a6f8973965354933ca5552d503c37c463ea75f",
  "version": 2,
  "locktime": 0,
  "vin": [
    {
      "txid": "42d209265dcd398f51780319ad375ea204e871b78eb1bef0ceae8b3983b5c8fd",
      "vout": 0,
      "prevout": {
        "scriptpubkey": "00142df773526a1f2717960f79a3f65a660659e9fc50",
        "scriptpubkey_asm": "OP_0 OP_PUSHBYTES_20 2df773526a1f2717960f79a3f65a660659e9fc50",
        "scriptpubkey_type": "v0_p2wpkh",
        "scriptpubkey_address": "bc1q9hmhx5n2run309s00x3lvknxqev7nlzsmp3fmd",
        "value": 2384881
      },
      "scriptsig": "",
      "scriptsig_asm": "",
      "witness": [
        "3044022053efde7f4dd0ffe6de4b7f84dd64690b6306d230b0a587f4ae58c9df411347e302200ad901eb106c910645e3c79dc6654727378bc814c991f86997c2e892bf14a02501",
        "03f2f6dc892107f61b968dde51a085261752c854573946d3e1505d199b69fcf166"
      ],
      "is_coinbase": false,
      "sequence": 4294967295
    },
    {
      "txid": "f295b027ae3e4b79fafb9cdae3625febfb74ea416d117f4e71c39e52fc26faab",
      "vout": 1,
      "prevout": {
        "scriptpubkey": "00142df773526a1f2717960f79a3f65a660659e9fc50",
        "scriptpubkey_asm": "OP_0 OP_PUSHBYTES_20 2df773526a1f2717960f79a3f65a660659e9fc50",
        "scriptpubkey_type": "v0_p2wpkh",
        "scriptpubkey_address": "bc1q9hmhx5n2run309s00x3lvknxqev7nlzsmp3fmd",
        "value": 268941
      },
      "scriptsig": "",
      "scriptsig_asm": "",
      "witness": [
        "304402203c32c8394133d0ba0c165f0fa514c92cb9e216b174e384d2c07bb726ba2a0cd102203db22751cb1ecc9754c7a36488c819e32284e09eb814cd238c479993799d401101",
        "03f2f6dc892107f61b968dde51a085261752c854573946d3e1505d199b69fcf166"
      ],
      "is_coinbase": false,
      "sequence": 4294967295
    }
  ],
  "vout": [
    {
      "scriptpubkey": "00142df773526a1f2717960f79a3f65a660659e9fc50",
      "scriptpubkey_asm": "OP_0 OP_PUSHBYTES_20 2df773526a1f2717960f79a3f65a660659e9fc50",
      "scriptpubkey_type": "v0_p2wpkh",
      "scriptpubkey_address": "bc1q9hmhx5n2run309s00x3lvknxqev7nlzsmp3fmd",
      "value": 1770890
    },
    {
      "scriptpubkey": "0014691bf9ff95cb4877ae64362790151b39af1d3796",
      "scriptpubkey_asm": "OP_0 OP_PUSHBYTES_20 691bf9ff95cb4877ae64362790151b39af1d3796",
      "scriptpubkey_type": "v0_p2wpkh",
      "scriptpubkey_address": "bc1qdydlnlu4edy80tnyxcneq9gm8xh36duka7sgaf",
      "value": 879683
    }
  ],
  "size": 370,
  "weight": 832,
  "fee": 3249,
  "status": {
    "confirmed": true,
    "block_height": 834638,
    "block_hash": "000000000000000000025f742c626208ac87e0b7d15054abb4a19ca2d735a54e",
    "block_time": 1710405325
  },
  "hex": "02000000000102fdc8b583398baecef0beb18eb771e804a25e37ad190378518f39cd5d2609d2420000000000ffffffffabfa26fc529ec3714e7f116d41ea74fbeb5f62e3da9cfbfa794b3eae27b095f20100000000ffffffff028a051b00000000001600142df773526a1f2717960f79a3f65a660659e9fc50436c0d0000000000160014691bf9ff95cb4877ae64362790151b39af1d379602473044022053efde7f4dd0ffe6de4b7f84dd64690b6306d230b0a587f4ae58c9df411347e302200ad901eb106c910645e3c79dc6654727378bc814c991f86997c2e892bf14a025012103f2f6dc892107f61b968dde51a085261752c854573946d3e1505d199b69fcf1660247304402203c32c8394133d0ba0c165f0fa514c92cb9e216b174e384d2c07bb726ba2a0cd102203db22751cb1ecc9754c7a36488c819e32284e09eb814cd238c479993799d4011012103f2f6dc892107f61b968dde51a085261752c854573946d3e1505d199b69fcf16600000000"
}