{
  "txid": "c89d47e55121bd1d02a69ee617a898328cee106d9e905c9a0ca29cfd81ef4971",
  "version": 2,
  "locktime": 834458,
  "vin": [
    {
      "txid": "50a2144789b9f16ac9bb09ba5bc8a6b43af4c374dfa2ce4375a60261af8593d3",
      "vout": 741,
      "prevout": {
        "scriptpubkey": "001451a174617d15191ceb92884fd95e63241e55e159",
        "scriptpubkey_asm": "OP_0 OP_PUSHBYTES_20 51a174617d15191ceb92884fd95e63241e55e159",
        "scriptpubkey_type": "v0_p2wpkh",
        "scriptpubkey_address": "bc1q2xshgctaz5v3e6uj3p8ajhnrys09tc2eg05268",
        "value": 145041
      },
      "scriptsig": "",
      "scriptsig_asm": "",
      "witness": [
        "30440220217612fb0458e0e889aba900d1253e3f78c3e25293cd60313447d50b6892d69a022042bcb4c61983f7d52b25a815d3ba85ee4d05f21c79fd893f8c860a71c033a6cb01",
        "02ccf44c8a47655c1f1e6165a53af579160fdc9db5f391127c42af8f36fac18103"
      ],
      "is_coinbase": false,
      "sequence": 4294967293
    },
    {
      "txid": "a2482d4d70213011804e1f16311a5ee591d732c1b9edbe49b2c58b2ffa4ea0b6",
      "vout": 1,
      "prevout": {
        "scriptpubkey": "00141598fb1384c4041a9dcfcd512deaf226a61871b4",
        "scriptpubkey_asm": "OP_0 OP_PUSHBYTES_20 1598fb1384c4041a9dcfcd512deaf226a61871b4",
        "scriptpubkey_type": "v0_p2wpkh",
        "scriptpubkey_address": "bc1qzkv0kyuycszp48w0e4gjm6hjy6npsud58ka60q",
        "value": 44156
      },
      "scriptsig": "",
      "scriptsig_asm": "",
      "witness": [
        "3044022072dbab4df80e571b1a88f6928aa4096e1c59c9ac46f87392291a660ca2acf26002206b1e08fe1e5ef5142c1b675a60ce1535fd47cfbbef383b9ccbd0e4ec67a1fb2b01",
        "02637870ee9478a13cabde3e51c94cf86f4fbdf000b6ce870231e275dce29405f6"
      ],
      "is_coinbase": false,
      "sequence": 4294967293
    },
    {
      "txid": "ac06709587bfffe36b91696b48d82c6a7942ec35f07ae6a394e8dc81f64c1ed0",
      "vout": 740,
      "prevout": {
        "scriptpubkey": "001451a174617d15191ceb92884fd95e63241e55e159",
        "scriptpubkey_asm": "OP_0 OP_PUSHBYTES_20 51a174617d15191ceb92884fd95e63241e55e159",
        "scriptpubkey_type": "v0_p2wpkh",
        "scriptpubkey_address": "bc1q2xshgctaz5v3e6uj3p8ajhnrys09tc2eg05268",
        "value": 134299
      },
      "scriptsig": "",
      "scriptsig_asm": "",
      "witness": [
        "304402206695b7f48c83e1d920d9f835d4212f195a807f6c64cf75a7e371e9590b17579e02201f490e1081473cbd5c5d8c675843a2176b318a72319fba0e89f1a4441ae0052501",
        "02ccf44c8a47655c1f1e6165a53af579160fdc9db5f391127c42af8f36fac18103"
      ],
      "is_coinbase": false,
      "sequence": 4294967293
    },
    {
      "txid": "e568f5e18a527e252eee7778139946c99fd3e6a566f3dd2026d6bc5961641ec0",
      "vout": 1065,
      "prevout": {
        "scriptpubkey": "001451a174617d15191ceb92884fd95e63241e55e159",
        "scriptpubkey_asm": "OP_0 OP_PUSHBYTES_20 51a174617d15191ceb92884fd95e63241e55e159",
        "scriptpubkey_type": "v0_p2wpkh",
        "scriptpubkey_address": "bc1q2xshgctaz5v3e6uj3p8ajhnrys09tc2eg05268",
        "value": 149253
      },
      "scriptsig": "",
      "scriptsig_asm": "",
      "witness": [
        "304402207173f1fc1c1f042f4d3b584d4572fcdec46e9771212efe7de84c831fdddd3eaf02206dae0749b354493fb52bf3794bb3327acb5e79c70127d70e4d213731a39e3c4501",
        "02ccf44c8a47655c1f1e6165a53af579160fdc9db5f391127c42af8f36fac18103"
      ],
      "is_coinbase": false,
      "sequence": 4294967293
    },
    {
      "txid": "969eaae29721c3b492da98468f381db10ce28f88e589cec2d118c79f39eee48c",
      "vout": 590,
      "prevout": {
        "scriptpubkey": "001451a174617d15191ceb92884fd95e63241e55e159",
        "scriptpubkey_asm": "OP_0 OP_PUSHBYTES_20 51a174617d15191ceb92884fd95e63241e55e159",
        "scriptpubkey_type": "v0_p2wpkh",
        "scriptpubkey_address": "bc1q2xshgctaz5v3e6uj3p8ajhnrys09tc2eg05268",
        "value": 163972
      },
      "scriptsig": "",
      "scriptsig_asm": "",
      "witness": [
        "3044022030af49df8e79d8f682580cbb7bd3e74e4061a255e0657e41aac5ea16513de63f022001eccc95712960743b4695d5555f4fb6248e2f336bd8c6b0aebdb3cb2ccd9b1501",
        "02ccf44c8a47655c1f1e6165a53af579160fdc9db5f391127c42af8f36fac18103"
      ],
      "is_coinbase": false,
      "sequence": 4294967293
    }
  ],
  "vout": [
    {
      "scriptpubkey": "a914e3f70a79625114282dd3af1efe0499b200d19c2387",
      "scriptpubkey_asm": "OP_HASH160 OP_PUSHBYTES_20 e3f70a79625114282dd3af1efe0499b200d19c23 OP_EQUAL",
      "scriptpubkey_type": "p2sh",
      "scriptpubkey_address": "3NUPFnwfSHvPADpp26n89WGJ7XCHUo6tTA",
      "value": 600000
    },
    {
      "scriptpubkey": "a9146c0c127881c396d6771b703cde95cbf7c5b5527887",
      "scriptpubkey_asm": "OP_HASH160 OP_PUSHBYTES_20 6c0c127881c396d6771b703cde95cbf7c5b55278 OP_EQUAL",
      "scriptpubkey_type": "p2sh",
      "scriptpubkey_address": "3BYKN3opDikc97AYid4raWnCLcZpvqY2Dm",
      "value": 31558
    }
  ],
  "size": 816,
  "weight": 1653,
  "fee": 5163,
  "status": {
    "confirmed": true,
    "block_height": 834460,
    "block_hash": "00000000000000000000484a79b643b2524bbce82e5d8a442013fa5b8905ed98",
    "block_time": 1710307468
  },
  "hex": "02000000000105d39385af6102a67543cea2df74c3f43ab4a6c85bba09bbc96af1b9894714a250e502000000fdffffffb6a04efa2f8bc5b249beedb9c132d791e55e1a31161f4e80113021704d2d48a20100000000fdffffffd01e4cf681dce894a3e67af035ec42796a2cd8486b69916be3ffbf87957006ace402000000fdffffffc01e646159bcd62620ddf366a5e6d39fc94699137877ee2e257e528ae1f568e52904000000fdffffff8ce4ee399fc718d1c2ce89e5888fe20cb11d388f4698da92b4c32197e2aa9e964e02000000fdffffff02c02709000000000017a914e3f70a79625114282dd3af1efe0499b200d19c2387467b00000000000017a9146c0c127881c396d6771b703cde95cbf7c5b5527887024730440220217612fb0458e0e889aba900d1253e3f78c3e25293cd60313447d50b6892d69a022042bcb4c61983f7d52b25a815d3ba85ee4d05f21c79fd893f8c860a71c033a6cb012102ccf44c8a47655c1f1e6165a53af579160fdc9db5f391127c42af8f36fac1810302473044022072dbab4df80e571b1a88f6928aa4096e1c59c9ac46f87392291a660ca2acf26002206b1e08fe1e5ef5142c1b675a60ce1535fd47cfbbef383b9ccbd0e4ec67a1fb2b012102637870ee9478a13cabde3e51c94cf86f4fbdf000b6ce870231e275dce29405f60247304402206695b7f48c83e1d920d9f835d4212f195a807f6c64cf75a7e371e9590b17579e02201f490e1081473cbd5c5d8c675843a2176b318a72319fba0e89f1a4441ae00525012102ccf44c8a47655c1f1e6165a53af579160fdc9db5f391127c42af8f36fac181030247304402207173f1fc1c1f042f4d3b584d4572fcdec46e9771212efe7de84c831fdddd3eaf02206dae0749b354493fb52bf3794bb3327acb5e79c70127d70e4d213731a39e3c45012102ccf44c8a47655c1f1e6165a53af579160fdc9db5f391127c42af8f36fac1810302473044022030af49df8e79d8f682580cbb7bd3e74e4061a255e0657e41aac5ea16513de63f022001eccc95712960743b4695d5555f4fb6248e2f336bd8c6b0aebdb3cb2ccd9b15012102ccf44c8a47655c1f1e6165a53af579160fdc9db5f391127c42af8f36fac181039abb0c00"
}