{
  "txid": "c8a181085631b7452a36ccdf88980cd581d83ecf1575e5307544ac8f4032836c",
  "version": 2,
  "locktime": 0,
  "vin": [
    {
      "txid": "1cb082e64e2de5ca287017c87247313fd6cb4226282ae836c859ff3779532224",
      "vout": 0,
      "prevout": {
        "scriptpubkey": "5120a8ca4b57e4be761b8093f8f5bb021df6157c745c3131be4675ab636087da6aa1",
        "scriptpubkey_asm": "OP_PUSHNUM_1 OP_PUSHBYTES_32 a8ca4b57e4be761b8093f8f5bb021df6157c745c3131be4675ab636087da6aa1",
        "scriptpubkey_type": "v1_p2tr",
        "scriptpubkey_address": "bc1p4r9yk4lyhemphqynlr6mkqsa7c2hcazuxycmu3n44d3kpp76d2ssxshkqe",
        "value": 2994
      },
      "scriptsig": "",
      "scriptsig_asm": "",
      "witness": [
        "c75e8e9fb5d40a5a472b087d99bd589c5a75d34821d104a77b48fb1e508dc76e8d0d1bc8e160d781a0345ff5994878a6703e77739f2658386a5de067da96833f",
        "20f883762fb1ab5d8d12d4bffea793a06d6655851c59696e8f59e656cb3cec97d7ac0063036f7264010118746578742f706c61696e3b636861727365743d7574662d38003c7b2270223a226272632d3230222c226f70223a227472616e73666572222c227469636b223a227069696e222c22616d74223a2232303030303030227d68",
        "c1f883762fb1ab5d8d12d4bffea793a06d6655851c59696e8f59e656cb3cec97d7"
      ],
      "is_coinbase": false,
      "sequence": 4294967293
    }
  ],
  "vout": [
    {
      "scriptpubkey": "5120cb83a415fd6a72cdba6f30d867d9fd0eed8a942ddeb9619814c62c762e8435f6",
      "scriptpubkey_asm": "OP_PUSHNUM_1 OP_PUSHBYTES_32 cb83a415fd6a72cdba6f30d867d9fd0eed8a942ddeb9619814c62c762e8435f6",
      "scriptpubkey_type": "v1_p2tr",
      "scriptpubkey_address": "bc1pewp6g90adfevmwn0xrvx0k0apmkc49pdm6ukrxq5cck8vt5yxhmq42u74l",
      "value": 546
    }
  ],
  "size": 327,
  "weight": 609,
  "fee": 2448,
  "status": {
    "confirmed": true,
    "block_height": 834638,
    "block_hash": "000000000000000000025f742c626208ac87e0b7d15054abb4a19ca2d735a54e",
    "block_time": 1710405325
  },
  "hex": "020000000001012422537937ff59c836e82a282642cbd63f314772c8177028cae52d4ee682b01c0000000000fdffffff012202000000000000225120cb83a415fd6a72cdba6f30d867d9fd0eed8a942ddeb9619814c62c762e8435f60340c75e8e9fb5d40a5a472b087d99bd589c5a75d34821d104a77b48fb1e508dc76e8d0d1bc8e160d781a0345ff5994878a6703e77739f2658386a5de067da96833f8220f883762fb1ab5d8d12d4bffea793a06d6655851c59696e8f59e656cb3cec97d7ac0063036f7264010118746578742f706c61696e3b636861727365743d7574662d38003c7b2270223a226272632d3230222c226f70223a227472616e73666572222c227469636b223a227069696e222c22616d74223a2232303030303030227d6821c1f883762fb1ab5d8d12d4bffea793a06d6655851c59696e8f59e656cb3cec97d700000000"
}