{
  "txid": "c8a66f02bf82632ed4ad38854a15b99fe8d4b5ed5a6d877175f364cc43145546",
  "version": 2,
  "locktime": 0,
  "vin": [
    {
      "txid": "ca9e423995c641f3d7a49ae5facbfadc50c8e11c310ffc3fd8ba492b9e14e027",
      "vout": 0,
      "prevout": {
        "scriptpubkey": "0014e29a03b8ff61d91ffbe35628b61a24fad8a50e33",
        "scriptpubkey_asm": "OP_0 OP_PUSHBYTES_20 e29a03b8ff61d91ffbe35628b61a24fad8a50e33",
        "scriptpubkey_type": "v0_p2wpkh",
        "scriptpubkey_address": "bc1qu2dq8w8lv8v3l7lr2c5tvx3yltv22r3nhkx7w0",
        "value": 15086173
      },
      "scriptsig": "",
      "scriptsig_asm": "",
      "witness": [
        "304402207abf524b308df5bb58a601d8898aba6ec2683057b6524993b49c32f02c21bcaf02207dddd6ddba4bd81ccf6056be4461353fc570c14a11304b8b63128b3384c683ff01",
        "03fb7712af2421132a6126a1ec47a437c9777fc282c8d53af1e06b7662ac9f8e37"
      ],
      "is_coinbase": false,
      "sequence": 4294967293
    }
  ],
  "vout": [
    {
      "scriptpubkey": "0014836108ba417c8ad1d20ebda9018a4849ccebcbdd",
      "scriptpubkey_asm": "OP_0 OP_PUSHBYTES_20 836108ba417c8ad1d20ebda9018a4849ccebcbdd",
      "scriptpubkey_type": "v0_p2wpkh",
      "scriptpubkey_address": "bc1qsdss3wjp0j9dr5swhk5srzjgf8xwhj7azs8z36",
      "value": 13846699
    },
    {
      "scriptpubkey": "0014002268e244a40539cd7acbbe12295f635bfa738b",
      "scriptpubkey_asm": "OP_0 OP_PUSHBYTES_20 002268e244a40539cd7acbbe12295f635bfa738b",
      "scriptpubkey_type": "v0_p2wpkh",
      "scriptpubkey_address": "bc1qqq3x3cjy5sznnnt6ewlpy22lvddl5uutydz9c5",
      "value": 1237359
    }
  ],
  "size": 222,
  "weight": 561,
  "fee": 2115,
  "status": {
    "confirmed": true,
    "block_height": 834460,
    "block_hash": "00000000000000000000484a79b643b2524bbce82e5d8a442013fa5b8905ed98",
    "block_time": 1710307468
  },
  "hex": "0200000000010127e0149e2b49bad83ffc0f311ce1c850dcfacbfae59aa4d7f341c69539429eca0000000000fdffffff02ab48d30000000000160014836108ba417c8ad1d20ebda9018a4849ccebcbdd6fe1120000000000160014002268e244a40539cd7acbbe12295f635bfa738b0247304402207abf524b308df5bb58a601d8898aba6ec2683057b6524993b49c32f02c21bcaf02207dddd6ddba4bd81ccf6056be4461353fc570c14a11304b8b63128b3384c683ff012103fb7712af2421132a6126a1ec47a437c9777fc282c8d53af1e06b7662ac9f8e3700000000"
}