{
  "txid": "c8a6c5ca8fb8661dbf24e21b5a9fdd2bcb38ab008a9af4105e679c47ca0d9ab8",
  "version": 2,
  "locktime": 834637,
  "vin": [
    {
      "txid": "50d96c43c78ee35c96954ecb5e72be8d0142f6810c928a3c57e7590458f5b16e",
      "vout": 1,
      "prevout": {
        "scriptpubkey": "00145c79d05b5c93ff50ad3a28914f283159461c2a6f",
        "scriptpubkey_asm": "OP_0 OP_PUSHBYTES_20 5c79d05b5c93ff50ad3a28914f283159461c2a6f",
        "scriptpubkey_type": "v0_p2wpkh",
        "scriptpubkey_address": "bc1qt3uaqk6uj0l4ptf69zg572p3t9rpc2n0uwtmpr",
        "value": 236405580
      },
      "scriptsig": "",
      "scriptsig_asm": "",
      "witness": [
        "304402204e18e40b32b51e4d3128fb7e788e5c5536fab6b3a6db72da6a5038d27dbbd464022012685a5e848165928c84f1135789745c18ea9a51fc2dd825ded17332136bc00201",
        "03f97775fab60c218dadba904ba3449c9f2b932a58cd43a7ae1d6da9445fa2b2f7"
      ],
      "is_coinbase": false,
      "sequence": 4294967294
    }
  ],
  "vout": [
    {
      "scriptpubkey": "00149ae82a17abb0c8ad333b749303ae5360b1898b8e",
      "scriptpubkey_asm": "OP_0 OP_PUSHBYTES_20 9ae82a17abb0c8ad333b749303ae5360b1898b8e",
      "scriptpubkey_type": "v0_p2wpkh",
      "scriptpubkey_address": "bc1qnt5z59atkry26vemwjfs8tjnvzccnzuw6umucd",
      "value": 826100
    },
    {
      "scriptpubkey": "001425bdb830f0f35dbd505cc64c4beadf29f88f55e8",
      "scriptpubkey_asm": "OP_0 OP_PUSHBYTES_20 25bdb830f0f35dbd505cc64c4beadf29f88f55e8",
      "scriptpubkey_type": "v0_p2wpkh",
      "scriptpubkey_address": "bc1qyk7msv8s7dwm65zucexyh6kl98ug740gmt66g4",
      "value": 235576024
    }
  ],
  "size": 222,
  "weight": 561,
  "fee": 3456,
  "status": {
    "confirmed": true,
    "block_height": 834638,
    "block_hash": "000000000000000000025f742c626208ac87e0b7d15054abb4a19ca2d735a54e",
    "block_time": 1710405325
  },
  "hex": "020000000001016eb1f5580459e7573c8a920c81f642018dbe725ecb4e95965ce38ec7436cd9500100000000feffffff02f49a0c00000000001600149ae82a17abb0c8ad333b749303ae5360b1898b8ed89a0a0e0000000016001425bdb830f0f35dbd505cc64c4beadf29f88f55e80247304402204e18e40b32b51e4d3128fb7e788e5c5536fab6b3a6db72da6a5038d27dbbd464022012685a5e848165928c84f1135789745c18ea9a51fc2dd825ded17332136bc002012103f97775fab60c218dadba904ba3449c9f2b932a58cd43a7ae1d6da9445fa2b2f74dbc0c00"
}