{
  "txid": "c8b6e8dbbe49371b3ebb6fe5d1e736bdb85551504c6690405aec5e088273f4b7",
  "version": 2,
  "locktime": 0,
  "vin": [
    {
      "txid": "3cd66cc4ea499d64bad19242d9d6b45a6120ba2d736a540dedb9de5e2ad68662",
      "vout": 1,
      "prevout": {
        "scriptpubkey": "0014bf882bdf44968ca4290eac11cc28ada32681c41a",
        "scriptpubkey_asm": "OP_0 OP_PUSHBYTES_20 bf882bdf44968ca4290eac11cc28ada32681c41a",
        "scriptpubkey_type": "v0_p2wpkh",
        "scriptpubkey_address": "bc1qh7yzhh6yj6x2g2gw4sguc29d5vngr3q6nc0w87",
        "value": 3476521
      },
      "scriptsig": "",
      "scriptsig_asm": "",
      "witness": [
        "304502210092f2253583fda6b673f74a407bc3893b5e6ebb1549ba12b91acb2680dd5747c402202b66d2cedf82b5b4571fd2b7540da76e3a8788071185fa8066aeedc1f3fcf2f501",
        "03023c92b30d59d58c45355f5b449db5dc8c5367379ca0a66ea020b4fa789892ca"
      ],
      "is_coinbase": false,
      "sequence": 0
    }
  ],
  "vout": [
    {
      "scriptpubkey": "a91410ad33940f541f3fcf86ddea7fa12538990b90fa87",
      "scriptpubkey_asm": "OP_HASH160 OP_PUSHBYTES_20 10ad33940f541f3fcf86ddea7fa12538990b90fa OP_EQUAL",
      "scriptpubkey_type": "p2sh",
      "scriptpubkey_address": "33DCDrzPa9mQawAhNWQdDBCZRfUMMU2HHE",
      "value": 27200
    },
    {
      "scriptpubkey": "0014c3eb39b371ecf4b77ca542893d3b4461179aa34b",
      "scriptpubkey_asm": "OP_0 OP_PUSHBYTES_20 c3eb39b371ecf4b77ca542893d3b4461179aa34b",
      "scriptpubkey_type": "v0_p2wpkh",
      "scriptpubkey_address": "bc1qc04nnvm3an6twl99g2yn6w6yvyte4g6tmwn68s",
      "value": 3446774
    }
  ],
  "size": 224,
  "weight": 566,
  "fee": 2547,
  "status": {
    "confirmed": true,
    "block_height": 834638,
    "block_hash": "000000000000000000025f742c626208ac87e0b7d15054abb4a19ca2d735a54e",
    "block_time": 1710405325
  },
  "hex": "020000000001016286d62a5edeb9ed0d546a732dba20615ab4d6d94292d1ba649d49eac46cd63c01000000000000000002406a00000000000017a91410ad33940f541f3fcf86ddea7fa12538990b90fa87f697340000000000160014c3eb39b371ecf4b77ca542893d3b4461179aa34b0248304502210092f2253583fda6b673f74a407bc3893b5e6ebb1549ba12b91acb2680dd5747c402202b66d2cedf82b5b4571fd2b7540da76e3a8788071185fa8066aeedc1f3fcf2f5012103023c92b30d59d58c45355f5b449db5dc8c5367379ca0a66ea020b4fa789892ca00000000"
}