{
  "txid": "c8c78f172bd8de749cbc52d47d7f5fb04e75d5de425416615eef9def660dbd5c",
  "version": 2,
  "locktime": 0,
  "vin": [
    {
      "txid": "8486ecb4df0880316dd6e82b3971b4df187aff23765bc3a47f8d78bb53aa273c",
      "vout": 120,
      "prevout": {
        "scriptpubkey": "51207fa4bac31f685d9028dd026c74c6eca861f93eb1f0931d33719c38751d125d89",
        "scriptpubkey_asm": "OP_PUSHNUM_1 OP_PUSHBYTES_32 7fa4bac31f685d9028dd026c74c6eca861f93eb1f0931d33719c38751d125d89",
        "scriptpubkey_type": "v1_p2tr",
        "scriptpubkey_address": "bc1p07jt4scldpweq2xaqfk8f3hv4pslj0437zf36vm3nsu828gjtkys4qsv9w",
        "value": 2575
      },
      "scriptsig": "",
      "scriptsig_asm": "",
      "witness": [
        "8636a6b1d4b24ec7f93757e79230255bd5e160ded086d7f6ff11ae12ce6ac83dac3dab41cac0a225d9f877b5f03ee8200448eae6e12c5a6099dee581df5dd405",
        "20da785a8a253817d7604e9a184248e3ed018f5e4cf4548be53743517dbbc71064ac0063036f726401010a746578742f706c61696e00367b2270223a226272632d3230222c226f70223a226d696e74222c227469636b223a2261616161222c22616d74223a223130303030227d68",
        "c1da785a8a253817d7604e9a184248e3ed018f5e4cf4548be53743517dbbc71064"
      ],
      "is_coinbase": false,
      "sequence": 4261412863
    }
  ],
  "vout": [
    {
      "scriptpubkey": "0014ddd7ef12ea6f78edcc1e8e7afa12c01ab59f3339",
      "scriptpubkey_asm": "OP_0 OP_PUSHBYTES_20 ddd7ef12ea6f78edcc1e8e7afa12c01ab59f3339",
      "scriptpubkey_type": "v0_p2wpkh",
      "scriptpubkey_address": "bc1qmht77yh2dauwmnq73ea05ykqr26e7veea8spz6",
      "value": 546
    }
  ],
  "size": 295,
  "weight": 541,
  "fee": 2029,
  "status": {
    "confirmed": true,
    "block_height": 834460,
    "block_hash": "00000000000000000000484a79b643b2524bbce82e5d8a442013fa5b8905ed98",
    "block_time": 1710307468
  },
  "hex": "020000000001013c27aa53bb788d7fa4c35b7623ff7a18dfb471392be8d66d318008dfb4ec86847800000000fffffffd012202000000000000160014ddd7ef12ea6f78edcc1e8e7afa12c01ab59f333903408636a6b1d4b24ec7f93757e79230255bd5e160ded086d7f6ff11ae12ce6ac83dac3dab41cac0a225d9f877b5f03ee8200448eae6e12c5a6099dee581df5dd4056e20da785a8a253817d7604e9a184248e3ed018f5e4cf4548be53743517dbbc71064ac0063036f726401010a746578742f706c61696e00367b2270223a226272632d3230222c226f70223a226d696e74222c227469636b223a2261616161222c22616d74223a223130303030227d6821c1da785a8a253817d7604e9a184248e3ed018f5e4cf4548be53743517dbbc7106400000000"
}