{
  "txid": "c8df8671f9668ac130fc7765ce316ebbf578b00a1c4d7bcd26f63cd8332ea6e5",
  "version": 1,
  "locktime": 0,
  "vin": [
    {
      "txid": "28903174bf5ed77c2d781777a95c424c55616eb13aaa10328be6d44bf264df81",
      "vout": 1,
      "prevout": {
        "scriptpubkey": "51209d6dbbf9bad17d0135e06ea56ec304df985f9f9bc809fa52ae6789a0947e0300",
        "scriptpubkey_asm": "OP_PUSHNUM_1 OP_PUSHBYTES_32 9d6dbbf9bad17d0135e06ea56ec304df985f9f9bc809fa52ae6789a0947e0300",
        "scriptpubkey_type": "v1_p2tr",
        "scriptpubkey_address": "bc1pn4kmh7d6697szd0qd6jkascym7v9l8umeqyl554wv7y6p9r7qvqquzkndh",
        "value": 353247
      },
      "scriptsig": "",
      "scriptsig_asm": "",
      "witness": [
        "7a8f292152bbd91a17b4fd8553aeb0287201f63c5a40a758ac0ca817594348d959cf9aac486997fb7c602a2e7f3e0533a7604cca2fe1669e0e19b7f80ec760dc"
      ],
      "is_coinbase": false,
      "sequence": 0
    }
  ],
  "vout": [
    {
      "scriptpubkey": "51207d16856802e7ef11418ea479c3c35154b1fb033c120e78da579f363e96acb142",
      "scriptpubkey_asm": "OP_PUSHNUM_1 OP_PUSHBYTES_32 7d16856802e7ef11418ea479c3c35154b1fb033c120e78da579f363e96acb142",
      "scriptpubkey_type": "v1_p2tr",
      "scriptpubkey_address": "bc1p05tg26qzulh3zsvw53uu8s632jclkqeuzg883kjhnumra94vk9pq92f08j",
      "value": 2710
    },
    {
      "scriptpubkey": "51209d6dbbf9bad17d0135e06ea56ec304df985f9f9bc809fa52ae6789a0947e0300",
      "scriptpubkey_asm": "OP_PUSHNUM_1 OP_PUSHBYTES_32 9d6dbbf9bad17d0135e06ea56ec304df985f9f9bc809fa52ae6789a0947e0300",
      "scriptpubkey_type": "v1_p2tr",
      "scriptpubkey_address": "bc1pn4kmh7d6697szd0qd6jkascym7v9l8umeqyl554wv7y6p9r7qvqquzkndh",
      "value": 348689
    }
  ],
  "size": 205,
  "weight": 616,
  "fee": 1848,
  "status": {
    "confirmed": true,
    "block_height": 834460,
    "block_hash": "00000000000000000000484a79b643b2524bbce82e5d8a442013fa5b8905ed98",
    "block_time": 1710307468
  },
  "hex": "0100000000010181df64f24bd4e68b3210aa3ab16e61554c425ca97717782d7cd75ebf7431902801000000000000000002960a0000000000002251207d16856802e7ef11418ea479c3c35154b1fb033c120e78da579f363e96acb14211520500000000002251209d6dbbf9bad17d0135e06ea56ec304df985f9f9bc809fa52ae6789a0947e030001407a8f292152bbd91a17b4fd8553aeb0287201f63c5a40a758ac0ca817594348d959cf9aac486997fb7c602a2e7f3e0533a7604cca2fe1669e0e19b7f80ec760dc00000000"
}