{
  "txid": "c8e792f356f4f952d54971eb3a05d7e1a95ff4a3796a83e1c046b8d2039268af",
  "version": 2,
  "locktime": 0,
  "vin": [
    {
      "txid": "b13bb5512a4904c28a6b7957b88edf574e8cb23551fc1dcfe22d6b239df42cf4",
      "vout": 41,
      "prevout": {
        "scriptpubkey": "51208de6a2636ab0f534954b63dd92b950724a1c216c55690acedbafcbfaa13d65f1",
        "scriptpubkey_asm": "OP_PUSHNUM_1 OP_PUSHBYTES_32 8de6a2636ab0f534954b63dd92b950724a1c216c55690acedbafcbfaa13d65f1",
        "scriptpubkey_type": "v1_p2tr",
        "scriptpubkey_address": "bc1p3hn2ycm2kr6nf92tv0we9w2swf9pcgtv245s4nkm4l9l4gfavhcspd4gxx",
        "value": 2575
      },
      "scriptsig": "",
      "scriptsig_asm": "",
      "witness": [
        "b65c700d4e297899b5bad4b5de0eb631a8a5fee903431142c81b30823f670bc4062e37c42203e1919cefc916d4248b7158c5956be8c52ad4ac2fcbef42236ae3",
        "2055f4caf4acc97ca8c582c96592a421b407a5997d8d6183611c013b1d754383b8ac0063036f726401010a746578742f706c61696e00367b2270223a226272632d3230222c226f70223a226d696e74222c227469636b223a2261616161222c22616d74223a223130303030227d68",
        "c055f4caf4acc97ca8c582c96592a421b407a5997d8d6183611c013b1d754383b8"
      ],
      "is_coinbase": false,
      "sequence": 4261412863
    }
  ],
  "vout": [
    {
      "scriptpubkey": "0014ce0b5aa0dac72397a8aa5a85d90a2cfb46f0f630",
      "scriptpubkey_asm": "OP_0 OP_PUSHBYTES_20 ce0b5aa0dac72397a8aa5a85d90a2cfb46f0f630",
      "scriptpubkey_type": "v0_p2wpkh",
      "scriptpubkey_address": "bc1qec944gx6cu3e0292t2zajz3vldr0pa3sh356d9",
      "value": 546
    }
  ],
  "size": 295,
  "weight": 541,
  "fee": 2029,
  "status": {
    "confirmed": true,
    "block_height": 834464,
    "block_hash": "0000000000000000000177a0869a911a2b65c9bdcd5a8bcb02b68f305bee848e",
    "block_time": 1710308296
  },
  "hex": "02000000000101f42cf49d236b2de2cf1dfc5135b28c4e57df8eb857796b8ac204492a51b53bb12900000000fffffffd012202000000000000160014ce0b5aa0dac72397a8aa5a85d90a2cfb46f0f6300340b65c700d4e297899b5bad4b5de0eb631a8a5fee903431142c81b30823f670bc4062e37c42203e1919cefc916d4248b7158c5956be8c52ad4ac2fcbef42236ae36e2055f4caf4acc97ca8c582c96592a421b407a5997d8d6183611c013b1d754383b8ac0063036f726401010a746578742f706c61696e00367b2270223a226272632d3230222c226f70223a226d696e74222c227469636b223a2261616161222c22616d74223a223130303030227d6821c055f4caf4acc97ca8c582c96592a421b407a5997d8d6183611c013b1d754383b800000000"
}