{
  "txid": "c8e89782db4efe3ac474affae08d0a40a8751abf827a4c437e81857bd1d535d6",
  "version": 2,
  "locktime": 0,
  "vin": [
    {
      "txid": "886bcbaf337cca276ff8064b325cf938e54c2bc4415e757d35f46e607291681e",
      "vout": 1,
      "prevout": {
        "scriptpubkey": "0014bc4d1e62a1111a60375c733d3f291759851e17cf",
        "scriptpubkey_asm": "OP_0 OP_PUSHBYTES_20 bc4d1e62a1111a60375c733d3f291759851e17cf",
        "scriptpubkey_type": "v0_p2wpkh",
        "scriptpubkey_address": "bc1qh3x3uc4pzydxqd6uwv7n72ghtxz3u970edf0xa",
        "value": 202712
      },
      "scriptsig": "",
      "scriptsig_asm": "",
      "witness": [
        "304402201e8fca33b2d37ab687bf93cc3e09271e6f9a032f0ffda485dc424e8e04cb0c8202207a78c5696196ce936c9f0bd4e20fa84d3229153f7d9b7b57de604e090895ddd101",
        "0333e3b02b0b0f1228287077ee67c0106e275a2048e204c67d4a3f3d6a9c75473e"
      ],
      "is_coinbase": false,
      "sequence": 4294967295
    },
    {
      "txid": "d843de006bb6d518ea35cd4b4b002f69b8d6fda59c408f57ab42b5c7b0a41419",
      "vout": 1,
      "prevout": {
        "scriptpubkey": "0014bc4d1e62a1111a60375c733d3f291759851e17cf",
        "scriptpubkey_asm": "OP_0 OP_PUSHBYTES_20 bc4d1e62a1111a60375c733d3f291759851e17cf",
        "scriptpubkey_type": "v0_p2wpkh",
        "scriptpubkey_address": "bc1qh3x3uc4pzydxqd6uwv7n72ghtxz3u970edf0xa",
        "value": 65707
      },
      "scriptsig": "",
      "scriptsig_asm": "",
      "witness": [
        "3044022049d4488fc134a2990ed816d0c96764a76b9c7e86f3aec3440c40394e9fa6103002203f8f9cc83235c8dc45d40343050f9d26d7aaced2e882ad70eef596c501025c7401",
        "0333e3b02b0b0f1228287077ee67c0106e275a2048e204c67d4a3f3d6a9c75473e"
      ],
      "is_coinbase": false,
      "sequence": 4294967295
    },
    {
      "txid": "e763684fd3737c256d47574ffccd86b90855bd71bb2d3efd8013ffe066f0b30c",
      "vout": 16,
      "prevout": {
        "scriptpubkey": "0014bc4d1e62a1111a60375c733d3f291759851e17cf",
        "scriptpubkey_asm": "OP_0 OP_PUSHBYTES_20 bc4d1e62a1111a60375c733d3f291759851e17cf",
        "scriptpubkey_type": "v0_p2wpkh",
        "scriptpubkey_address": "bc1qh3x3uc4pzydxqd6uwv7n72ghtxz3u970edf0xa",
        "value": 63685
      },
      "scriptsig": "",
      "scriptsig_asm": "",
      "witness": [
        "304402201d4b11bfe4660dd2f14b37e89f55369485c43360eff9c1b6038086558706c8f8022061e8a666437f062545e784c8c026e080223d59f0525b3999bb2da44bddb0fda401",
        "0333e3b02b0b0f1228287077ee67c0106e275a2048e204c67d4a3f3d6a9c75473e"
      ],
      "is_coinbase": false,
      "sequence": 4294967295
    },
    {
      "txid": "c3f3c1a39c65122da6e9d759007c8a312a25bc0aad72b1491629e0bf55e36afd",
      "vout": 2,
      "prevout": {
        "scriptpubkey": "0014bc4d1e62a1111a60375c733d3f291759851e17cf",
        "scriptpubkey_asm": "OP_0 OP_PUSHBYTES_20 bc4d1e62a1111a60375c733d3f291759851e17cf",
        "scriptpubkey_type": "v0_p2wpkh",
        "scriptpubkey_address": "bc1qh3x3uc4pzydxqd6uwv7n72ghtxz3u970edf0xa",
        "value": 63685
      },
      "scriptsig": "",
      "scriptsig_asm": "",
      "witness": [
        "304402202c7bb7acdbbe669f66d1189258febab6ffcee7b7bfb45a700da43561e1253fb802204581914b2e35a7fa5295c9f300f43728d4371b8bb622af732983474f93b6451b01",
        "0333e3b02b0b0f1228287077ee67c0106e275a2048e204c67d4a3f3d6a9c75473e"
      ],
      "is_coinbase": false,
      "sequence": 4294967295
    },
    {
      "txid": "d2fd53dbc0a5b0a68ac1773466f23b22ca4f08c867f74c58c5a7d14dfdc5b3a6",
      "vout": 8,
      "prevout": {
        "scriptpubkey": "0014bc4d1e62a1111a60375c733d3f291759851e17cf",
        "scriptpubkey_asm": "OP_0 OP_PUSHBYTES_20 bc4d1e62a1111a60375c733d3f291759851e17cf",
        "scriptpubkey_type": "v0_p2wpkh",
        "scriptpubkey_address": "bc1qh3x3uc4pzydxqd6uwv7n72ghtxz3u970edf0xa",
        "value": 57715
      },
      "scriptsig": "",
      "scriptsig_asm": "",
      "witness": [
        "3045022100dc92c0aeabad1f0923f08e9f8e3ec319bfb57098a70091331b692836a833f4450220418e22f4ae8a1834d7d642ec73a12235f3789c2200338192f5a1e3570c5fff0801",
        "0333e3b02b0b0f1228287077ee67c0106e275a2048e204c67d4a3f3d6a9c75473e"
      ],
      "is_coinbase": false,
      "sequence": 4294967295
    }
  ],
  "vout": [
    {
      "scriptpubkey": "512014ab952f59fbdfc33383533e0e4df557378b3e6a68a4a96156f41c3dc03ba65c",
      "scriptpubkey_asm": "OP_PUSHNUM_1 OP_PUSHBYTES_32 14ab952f59fbdfc33383533e0e4df557378b3e6a68a4a96156f41c3dc03ba65c",
      "scriptpubkey_type": "v1_p2tr",
      "scriptpubkey_address": "bc1pzj4e2t6el00uxvur2vlqun042umck0n2dzj2jc2k7swrmspm5ewqvptqkk",
      "value": 416000
    },
    {
      "scriptpubkey": "0014bc4d1e62a1111a60375c733d3f291759851e17cf",
      "scriptpubkey_asm": "OP_0 OP_PUSHBYTES_20 bc4d1e62a1111a60375c733d3f291759851e17cf",
      "scriptpubkey_type": "v0_p2wpkh",
      "scriptpubkey_address": "bc1qh3x3uc4pzydxqd6uwv7n72ghtxz3u970edf0xa",
      "value": 31979
    }
  ],
  "size": 827,
  "weight": 1694,
  "fee": 5525,
  "status": {
    "confirmed": true,
    "block_height": 834460,
    "block_hash": "00000000000000000000484a79b643b2524bbce82e5d8a442013fa5b8905ed98",
    "block_time": 1710307468
  },
  "hex": "020000000001051e689172606ef4357d755e41c42b4ce538f95c324b06f86f27ca7c33afcb6b880100000000ffffffff1914a4b0c7b542ab578f409ca5fdd6b8692f004b4bcd35ea18d5b66b00de43d80100000000ffffffff0cb3f066e0ff1380fd3e2dbb71bd5508b986cdfc4f57476d257c73d34f6863e71000000000fffffffffd6ae355bfe0291649b172ad0abc252a318a7c0059d7e9a62d12659ca3c1f3c30200000000ffffffffa6b3c5fd4dd1a7c5584cf767c8084fca223bf2663477c18aa6b0a5c0db53fdd20800000000ffffffff02005906000000000022512014ab952f59fbdfc33383533e0e4df557378b3e6a68a4a96156f41c3dc03ba65ceb7c000000000000160014bc4d1e62a1111a60375c733d3f291759851e17cf0247304402201e8fca33b2d37ab687bf93cc3e09271e6f9a032f0ffda485dc424e8e04cb0c8202207a78c5696196ce936c9f0bd4e20fa84d3229153f7d9b7b57de604e090895ddd101210333e3b02b0b0f1228287077ee67c0106e275a2048e204c67d4a3f3d6a9c75473e02473044022049d4488fc134a2990ed816d0c96764a76b9c7e86f3aec3440c40394e9fa6103002203f8f9cc83235c8dc45d40343050f9d26d7aaced2e882ad70eef596c501025c7401210333e3b02b0b0f1228287077ee67c0106e275a2048e204c67d4a3f3d6a9c75473e0247304402201d4b11bfe4660dd2f14b37e89f55369485c43360eff9c1b6038086558706c8f8022061e8a666437f062545e784c8c026e080223d59f0525b3999bb2da44bddb0fda401210333e3b02b0b0f1228287077ee67c0106e275a2048e204c67d4a3f3d6a9c75473e0247304402202c7bb7acdbbe669f66d1189258febab6ffcee7b7bfb45a700da43561e1253fb802204581914b2e35a7fa5295c9f300f43728d4371b8bb622af732983474f93b6451b01210333e3b02b0b0f1228287077ee67c0106e275a2048e204c67d4a3f3d6a9c75473e02483045022100dc92c0aeabad1f0923f08e9f8e3ec319bfb57098a70091331b692836a833f4450220418e22f4ae8a1834d7d642ec73a12235f3789c2200338192f5a1e3570c5fff0801210333e3b02b0b0f1228287077ee67c0106e275a2048e204c67d4a3f3d6a9c75473e00000000"
}