{
  "txid": "c8f19f7e90da85ca0070df54f07a6eaa69eb572847186e9be9855cf7957f1c03",
  "version": 2,
  "locktime": 0,
  "vin": [
    {
      "txid": "e7e213abd2371ed5e74841dbec0f9ea112e5e405b3cbfdc7818a0a7269b62d78",
      "vout": 1,
      "prevout": {
        "scriptpubkey": "5120469e9a174f9f10b9828aaf9088946970ed2f2a2630eeafcd062cff6f1803b963",
        "scriptpubkey_asm": "OP_PUSHNUM_1 OP_PUSHBYTES_32 469e9a174f9f10b9828aaf9088946970ed2f2a2630eeafcd062cff6f1803b963",
        "scriptpubkey_type": "v1_p2tr",
        "scriptpubkey_address": "bc1pg60f5960nugtnq5247gg39rfwrkj723xxrh2lngx9nlk7xqrh93sksy2sn",
        "value": 202986
      },
      "scriptsig": "",
      "scriptsig_asm": "",
      "witness": [
        "9565d0a1d975de5d604f6177ba5f739da2c13e8025308e38617a1a69cdcac6fc56f04502511cfb10456502fb1673c476bbb32972e5485b885ac80861ccb6154a"
      ],
      "is_coinbase": false,
      "sequence": 2147483649
    },
    {
      "txid": "8406a66b3f4aa8b18f99d79d2b3e48a6ddb609f30c7d8e59793d9680b017fc35",
      "vout": 1,
      "prevout": {
        "scriptpubkey": "5120469e9a174f9f10b9828aaf9088946970ed2f2a2630eeafcd062cff6f1803b963",
        "scriptpubkey_asm": "OP_PUSHNUM_1 OP_PUSHBYTES_32 469e9a174f9f10b9828aaf9088946970ed2f2a2630eeafcd062cff6f1803b963",
        "scriptpubkey_type": "v1_p2tr",
        "scriptpubkey_address": "bc1pg60f5960nugtnq5247gg39rfwrkj723xxrh2lngx9nlk7xqrh93sksy2sn",
        "value": 198461
      },
      "scriptsig": "",
      "scriptsig_asm": "",
      "witness": [
        "65b62599c567177b7a038a2f590f6284c777fb5a502727aa588b4932676cf1350e62e176bc2c434badbbc34c7681f56801977d28d3f574f0a0e7a656a448108d"
      ],
      "is_coinbase": false,
      "sequence": 2147483649
    },
    {
      "txid": "605f2107f1f7b9e494d717b2049e552f1c816820826f489c6bf52155346d35e3",
      "vout": 5,
      "prevout": {
        "scriptpubkey": "5120469e9a174f9f10b9828aaf9088946970ed2f2a2630eeafcd062cff6f1803b963",
        "scriptpubkey_asm": "OP_PUSHNUM_1 OP_PUSHBYTES_32 469e9a174f9f10b9828aaf9088946970ed2f2a2630eeafcd062cff6f1803b963",
        "scriptpubkey_type": "v1_p2tr",
        "scriptpubkey_address": "bc1pg60f5960nugtnq5247gg39rfwrkj723xxrh2lngx9nlk7xqrh93sksy2sn",
        "value": 130816
      },
      "scriptsig": "",
      "scriptsig_asm": "",
      "witness": [
        "d336394fa44dedbe231613682ca72631c12229a72954a1c5e4fcd955707564cee747aa8b40aafe69cbd477e1275620baa7d87a3939f67d7c0bca588e8e77ed17"
      ],
      "is_coinbase": false,
      "sequence": 2147483649
    },
    {
      "txid": "1308306fe8ae033873b05c2ac45e287e04370217d6b91c19e1389920bde18b92",
      "vout": 2,
      "prevout": {
        "scriptpubkey": "5120469e9a174f9f10b9828aaf9088946970ed2f2a2630eeafcd062cff6f1803b963",
        "scriptpubkey_asm": "OP_PUSHNUM_1 OP_PUSHBYTES_32 469e9a174f9f10b9828aaf9088946970ed2f2a2630eeafcd062cff6f1803b963",
        "scriptpubkey_type": "v1_p2tr",
        "scriptpubkey_address": "bc1pg60f5960nugtnq5247gg39rfwrkj723xxrh2lngx9nlk7xqrh93sksy2sn",
        "value": 90000
      },
      "scriptsig": "",
      "scriptsig_asm": "",
      "witness": [
        "4ac7aeae88000ff6bdcad74352bc402eec7cb96053d3d7720ed53b09f9217ac1a382a111de37a08b79042ee283406126c4f55a81bedd4c88370f9679a9efba12"
      ],
      "is_coinbase": false,
      "sequence": 2147483649
    },
    {
      "txid": "4b2b902d42d6d9bb5962329a1c68fb69aaa9fbde62c6f88f21bf1ffcbc959116",
      "vout": 2,
      "prevout": {
        "scriptpubkey": "5120469e9a174f9f10b9828aaf9088946970ed2f2a2630eeafcd062cff6f1803b963",
        "scriptpubkey_asm": "OP_PUSHNUM_1 OP_PUSHBYTES_32 469e9a174f9f10b9828aaf9088946970ed2f2a2630eeafcd062cff6f1803b963",
        "scriptpubkey_type": "v1_p2tr",
        "scriptpubkey_address": "bc1pg60f5960nugtnq5247gg39rfwrkj723xxrh2lngx9nlk7xqrh93sksy2sn",
        "value": 89000
      },
      "scriptsig": "",
      "scriptsig_asm": "",
      "witness": [
        "979c512f3a327a275d401c7fc29a43850e73fda1d9ec5cfc64b48e9f602fd1cdd4474da91729d6ce4339765e03f09ff237c06b52f38d9834234e52d524d2ae65"
      ],
      "is_coinbase": false,
      "sequence": 2147483649
    },
    {
      "txid": "02a5ea6a4ec26739820c015da20ad27fdf62ad698b775096882e44e4d0b8d9ed",
      "vout": 2,
      "prevout": {
        "scriptpubkey": "5120469e9a174f9f10b9828aaf9088946970ed2f2a2630eeafcd062cff6f1803b963",
        "scriptpubkey_asm": "OP_PUSHNUM_1 OP_PUSHBYTES_32 469e9a174f9f10b9828aaf9088946970ed2f2a2630eeafcd062cff6f1803b963",
        "scriptpubkey_type": "v1_p2tr",
        "scriptpubkey_address": "bc1pg60f5960nugtnq5247gg39rfwrkj723xxrh2lngx9nlk7xqrh93sksy2sn",
        "value": 72000
      },
      "scriptsig": "",
      "scriptsig_asm": "",
      "witness": [
        "8261729f809688f56c42d24505337f9f6d354c382cb74173e3fd7368b8eaf5896841da24ce8f324dd8e9e0c2ee8460a63d3c8da5a23e11e5e06b491e115d46e7"
      ],
      "is_coinbase": false,
      "sequence": 2147483649
    },
    {
      "txid": "7713591deba564e4d80ff20fd782eb619de8277e1afe0496a4211793356a7698",
      "vout": 2,
      "prevout": {
        "scriptpubkey": "5120469e9a174f9f10b9828aaf9088946970ed2f2a2630eeafcd062cff6f1803b963",
        "scriptpubkey_asm": "OP_PUSHNUM_1 OP_PUSHBYTES_32 469e9a174f9f10b9828aaf9088946970ed2f2a2630eeafcd062cff6f1803b963",
        "scriptpubkey_type": "v1_p2tr",
        "scriptpubkey_address": "bc1pg60f5960nugtnq5247gg39rfwrkj723xxrh2lngx9nlk7xqrh93sksy2sn",
        "value": 21000
      },
      "scriptsig": "",
      "scriptsig_asm": "",
      "witness": [
        "2c648eef1e106304b6b7a8501fb9545ebca6955a6313da3077d996a168818864ca2c5d1ab718972b67d86f723136d17e220cb07cf505c9b294974889b6a09995"
      ],
      "is_coinbase": false,
      "sequence": 2147483649
    },
    {
      "txid": "9ddb40f698687215e53959320d22326e70cf4bafdf072a230443805ca6e4072d",
      "vout": 5,
      "prevout": {
        "scriptpubkey": "5120469e9a174f9f10b9828aaf9088946970ed2f2a2630eeafcd062cff6f1803b963",
        "scriptpubkey_asm": "OP_PUSHNUM_1 OP_PUSHBYTES_32 469e9a174f9f10b9828aaf9088946970ed2f2a2630eeafcd062cff6f1803b963",
        "scriptpubkey_type": "v1_p2tr",
        "scriptpubkey_address": "bc1pg60f5960nugtnq5247gg39rfwrkj723xxrh2lngx9nlk7xqrh93sksy2sn",
        "value": 19000
      },
      "scriptsig": "",
      "scriptsig_asm": "",
      "witness": [
        "7916100e873ace68935922a105af939326aa72df635449e3a93205533c8e2200ebdf880df420079b7bb72d0f53f9bb5eb52ac0bfae3eff8e8cb173d455c70a62"
      ],
      "is_coinbase": false,
      "sequence": 2147483649
    },
    {
      "txid": "9ddb40f698687215e53959320d22326e70cf4bafdf072a230443805ca6e4072d",
      "vout": 6,
      "prevout": {
        "scriptpubkey": "5120469e9a174f9f10b9828aaf9088946970ed2f2a2630eeafcd062cff6f1803b963",
        "scriptpubkey_asm": "OP_PUSHNUM_1 OP_PUSHBYTES_32 469e9a174f9f10b9828aaf9088946970ed2f2a2630eeafcd062cff6f1803b963",
        "scriptpubkey_type": "v1_p2tr",
        "scriptpubkey_address": "bc1pg60f5960nugtnq5247gg39rfwrkj723xxrh2lngx9nlk7xqrh93sksy2sn",
        "value": 19000
      },
      "scriptsig": "",
      "scriptsig_asm": "",
      "witness": [
        "2496e35a3f4d0c5a1365dbb4dc2f3332379a04dcb89c926fd273745ac162c9bc1cac8b461b3c88ccd5e5959b59cb01ddc99ab40674ab1f6e2cf23f83ccb3c690"
      ],
      "is_coinbase": false,
      "sequence": 2147483649
    },
    {
      "txid": "9b404312d3f63a32bd33ed8d9a3f2792ec0d2abb3db103e0300a8d3dfa4e5ada",
      "vout": 2,
      "prevout": {
        "scriptpubkey": "5120469e9a174f9f10b9828aaf9088946970ed2f2a2630eeafcd062cff6f1803b963",
        "scriptpubkey_asm": "OP_PUSHNUM_1 OP_PUSHBYTES_32 469e9a174f9f10b9828aaf9088946970ed2f2a2630eeafcd062cff6f1803b963",
        "scriptpubkey_type": "v1_p2tr",
        "scriptpubkey_address": "bc1pg60f5960nugtnq5247gg39rfwrkj723xxrh2lngx9nlk7xqrh93sksy2sn",
        "value": 19000
      },
      "scriptsig": "",
      "scriptsig_asm": "",
      "witness": [
        "0cd64e6434e6c0b23321de4717d942765c23fa63696862cab28c0d23c3b3457571da8af08cec73a6b40c88e3e124b4e4d17e67049cda5d1ff7295a5c5a3d3db0"
      ],
      "is_coinbase": false,
      "sequence": 2147483649
    },
    {
      "txid": "9ddb40f698687215e53959320d22326e70cf4bafdf072a230443805ca6e4072d",
      "vout": 4,
      "prevout": {
        "scriptpubkey": "5120469e9a174f9f10b9828aaf9088946970ed2f2a2630eeafcd062cff6f1803b963",
        "scriptpubkey_asm": "OP_PUSHNUM_1 OP_PUSHBYTES_32 469e9a174f9f10b9828aaf9088946970ed2f2a2630eeafcd062cff6f1803b963",
        "scriptpubkey_type": "v1_p2tr",
        "scriptpubkey_address": "bc1pg60f5960nugtnq5247gg39rfwrkj723xxrh2lngx9nlk7xqrh93sksy2sn",
        "value": 19000
      },
      "scriptsig": "",
      "scriptsig_asm": "",
      "witness": [
        "b8c6b52b43233364a4594a4024a15970172c36e24697da115fdd0574c2e4af1cf46b868e3b30944e813f1badd33943dbaa792c85e64a112f28210167a588de24"
      ],
      "is_coinbase": false,
      "sequence": 2147483649
    },
    {
      "txid": "d84792b8cd53287c5d7d8c2a44f71205d9c0baa9682f7caec176f7784213ed24",
      "vout": 5,
      "prevout": {
        "scriptpubkey": "5120469e9a174f9f10b9828aaf9088946970ed2f2a2630eeafcd062cff6f1803b963",
        "scriptpubkey_asm": "OP_PUSHNUM_1 OP_PUSHBYTES_32 469e9a174f9f10b9828aaf9088946970ed2f2a2630eeafcd062cff6f1803b963",
        "scriptpubkey_type": "v1_p2tr",
        "scriptpubkey_address": "bc1pg60f5960nugtnq5247gg39rfwrkj723xxrh2lngx9nlk7xqrh93sksy2sn",
        "value": 4879
      },
      "scriptsig": "",
      "scriptsig_asm": "",
      "witness": [
        "f10f913f8437835ef86a198dcf951336c987a1b742fc76de4b4fadbbc705eceb9306376d60e2b9012679117e1710adcb90a2b2c9c696711fa741f52d8fcc45a2"
      ],
      "is_coinbase": false,
      "sequence": 2147483649
    },
    {
      "txid": "669eb529549a61e6a6c4a52530ec4eb0dd433b5b8bd44bd48a592731a4908f95",
      "vout": 1,
      "prevout": {
        "scriptpubkey": "5120469e9a174f9f10b9828aaf9088946970ed2f2a2630eeafcd062cff6f1803b963",
        "scriptpubkey_asm": "OP_PUSHNUM_1 OP_PUSHBYTES_32 469e9a174f9f10b9828aaf9088946970ed2f2a2630eeafcd062cff6f1803b963",
        "scriptpubkey_type": "v1_p2tr",
        "scriptpubkey_address": "bc1pg60f5960nugtnq5247gg39rfwrkj723xxrh2lngx9nlk7xqrh93sksy2sn",
        "value": 2648
      },
      "scriptsig": "",
      "scriptsig_asm": "",
      "witness": [
        "49a76831a6d087dbc1513f0793ef3b61659eb239e03dd996d00ebc708ba69a75bfcc2c07d4fc0aa86b0abaff08625e1d6765be0917f9bb5c318471bb570de8e9"
      ],
      "is_coinbase": false,
      "sequence": 2147483649
    },
    {
      "txid": "20a0822ec05603cb878e4513defd87855db1bb2614595f7fe453b898a1184f7f",
      "vout": 1,
      "prevout": {
        "scriptpubkey": "5120469e9a174f9f10b9828aaf9088946970ed2f2a2630eeafcd062cff6f1803b963",
        "scriptpubkey_asm": "OP_PUSHNUM_1 OP_PUSHBYTES_32 469e9a174f9f10b9828aaf9088946970ed2f2a2630eeafcd062cff6f1803b963",
        "scriptpubkey_type": "v1_p2tr",
        "scriptpubkey_address": "bc1pg60f5960nugtnq5247gg39rfwrkj723xxrh2lngx9nlk7xqrh93sksy2sn",
        "value": 2276
      },
      "scriptsig": "",
      "scriptsig_asm": "",
      "witness": [
        "e3bea16d54b912bbca51ee76c47087c9ba41c229635bfeed622ceccb66a3645983aaa0bb0183d1a0ffdc1c4c66fc5c240f46c4e83bd012243b968d0ce00eb7e7"
      ],
      "is_coinbase": false,
      "sequence": 2147483649
    },
    {
      "txid": "c2588fc8d3a48235072d4bf52ce1dc0416c104b820d7c6a009fee7c35d334528",
      "vout": 5,
      "prevout": {
        "scriptpubkey": "5120469e9a174f9f10b9828aaf9088946970ed2f2a2630eeafcd062cff6f1803b963",
        "scriptpubkey_asm": "OP_PUSHNUM_1 OP_PUSHBYTES_32 469e9a174f9f10b9828aaf9088946970ed2f2a2630eeafcd062cff6f1803b963",
        "scriptpubkey_type": "v1_p2tr",
        "scriptpubkey_address": "bc1pg60f5960nugtnq5247gg39rfwrkj723xxrh2lngx9nlk7xqrh93sksy2sn",
        "value": 1845
      },
      "scriptsig": "",
      "scriptsig_asm": "",
      "witness": [
        "9e0a02d16aa8683149bdb2931a0e59c65670ec440bacf24b0093f4b107340341791ba5a9a6d09eb8dfdb774fbd55aba9ed6080373949db09a519a1ece5f8d042"
      ],
      "is_coinbase": false,
      "sequence": 2147483649
    },
    {
      "txid": "84316257539aa1476eeacfe780189c682769ba918db3aaff3aef90b89d9f6373",
      "vout": 1,
      "prevout": {
        "scriptpubkey": "5120469e9a174f9f10b9828aaf9088946970ed2f2a2630eeafcd062cff6f1803b963",
        "scriptpubkey_asm": "OP_PUSHNUM_1 OP_PUSHBYTES_32 469e9a174f9f10b9828aaf9088946970ed2f2a2630eeafcd062cff6f1803b963",
        "scriptpubkey_type": "v1_p2tr",
        "scriptpubkey_address": "bc1pg60f5960nugtnq5247gg39rfwrkj723xxrh2lngx9nlk7xqrh93sksy2sn",
        "value": 1555
      },
      "scriptsig": "",
      "scriptsig_asm": "",
      "witness": [
        "a3e699750adce35ee4348e592107c8c1929bacbef113d68f7150b9e845230f23c5b51020684ce4824d8b85f31e51c9fd030e479f0bd8fb2112df01558851f4af"
      ],
      "is_coinbase": false,
      "sequence": 2147483649
    },
    {
      "txid": "605f2107f1f7b9e494d717b2049e552f1c816820826f489c6bf52155346d35e3",
      "vout": 0,
      "prevout": {
        "scriptpubkey": "5120469e9a174f9f10b9828aaf9088946970ed2f2a2630eeafcd062cff6f1803b963",
        "scriptpubkey_asm": "OP_PUSHNUM_1 OP_PUSHBYTES_32 469e9a174f9f10b9828aaf9088946970ed2f2a2630eeafcd062cff6f1803b963",
        "scriptpubkey_type": "v1_p2tr",
        "scriptpubkey_address": "bc1pg60f5960nugtnq5247gg39rfwrkj723xxrh2lngx9nlk7xqrh93sksy2sn",
        "value": 1200
      },
      "scriptsig": "",
      "scriptsig_asm": "",
      "witness": [
        "a804e6fd1581cb280ab4a773a3d911055a296f6b6a1994a91cce6d690c05bff75813237fb49eae94e5c7f83531a245f2cb589b6a1b7d30ff45807a74396b951a"
      ],
      "is_coinbase": false,
      "sequence": 2147483649
    },
    {
      "txid": "af77381ea112ca4d9c6105d60a141361ef6a19356306f2dcb2f905a3c36e7d76",
      "vout": 0,
      "prevout": {
        "scriptpubkey": "5120469e9a174f9f10b9828aaf9088946970ed2f2a2630eeafcd062cff6f1803b963",
        "scriptpubkey_asm": "OP_PUSHNUM_1 OP_PUSHBYTES_32 469e9a174f9f10b9828aaf9088946970ed2f2a2630eeafcd062cff6f1803b963",
        "scriptpubkey_type": "v1_p2tr",
        "scriptpubkey_address": "bc1pg60f5960nugtnq5247gg39rfwrkj723xxrh2lngx9nlk7xqrh93sksy2sn",
        "value": 1200
      },
      "scriptsig": "",
      "scriptsig_asm": "",
      "witness": [
        "62d7737544587370c5d4aa2d671b1c95c291f2837a821f113be978d31bc3462218466887f1136f57e9fa77f73016337ee2866485c5bc76f64095861d8947c643"
      ],
      "is_coinbase": false,
      "sequence": 2147483649
    },
    {
      "txid": "374a4629bd34e1cc02cf43f69a44e902143ae7933ff024e048c4e44d18e98035",
      "vout": 0,
      "prevout": {
        "scriptpubkey": "5120469e9a174f9f10b9828aaf9088946970ed2f2a2630eeafcd062cff6f1803b963",
        "scriptpubkey_asm": "OP_PUSHNUM_1 OP_PUSHBYTES_32 469e9a174f9f10b9828aaf9088946970ed2f2a2630eeafcd062cff6f1803b963",
        "scriptpubkey_type": "v1_p2tr",
        "scriptpubkey_address": "bc1pg60f5960nugtnq5247gg39rfwrkj723xxrh2lngx9nlk7xqrh93sksy2sn",
        "value": 1200
      },
      "scriptsig": "",
      "scriptsig_asm": "",
      "witness": [
        "56f02176ca9017001ff1745190834458b7401483c8949adeb0ca20b62b921119f94279f9cf6d18e0bc5fe7e7888f1cee046113d8c5a92c3b60fa5ad957054de5"
      ],
      "is_coinbase": false,
      "sequence": 2147483649
    },
    {
      "txid": "4f0894c77ebd84ba21700e243b6900d2f27b0820bbd1b7837578459a07d05d30",
      "vout": 0,
      "prevout": {
        "scriptpubkey": "5120469e9a174f9f10b9828aaf9088946970ed2f2a2630eeafcd062cff6f1803b963",
        "scriptpubkey_asm": "OP_PUSHNUM_1 OP_PUSHBYTES_32 469e9a174f9f10b9828aaf9088946970ed2f2a2630eeafcd062cff6f1803b963",
        "scriptpubkey_type": "v1_p2tr",
        "scriptpubkey_address": "bc1pg60f5960nugtnq5247gg39rfwrkj723xxrh2lngx9nlk7xqrh93sksy2sn",
        "value": 1200
      },
      "scriptsig": "",
      "scriptsig_asm": "",
      "witness": [
        "f8a57377d9cf905f9d8b96ae26f96a15870763899679769bdc1f0efd51a73b713c1044df6e1a1ebad9301e64290e5ec70cb11262b83ec3fb7eb8f869ae582b31"
      ],
      "is_coinbase": false,
      "sequence": 2147483649
    },
    {
      "txid": "755c9d8c76207dba7f2fcaa5be25ca090b942a03336ddc00c038e137f81d4bf6",
      "vout": 0,
      "prevout": {
        "scriptpubkey": "5120469e9a174f9f10b9828aaf9088946970ed2f2a2630eeafcd062cff6f1803b963",
        "scriptpubkey_asm": "OP_PUSHNUM_1 OP_PUSHBYTES_32 469e9a174f9f10b9828aaf9088946970ed2f2a2630eeafcd062cff6f1803b963",
        "scriptpubkey_type": "v1_p2tr",
        "scriptpubkey_address": "bc1pg60f5960nugtnq5247gg39rfwrkj723xxrh2lngx9nlk7xqrh93sksy2sn",
        "value": 1200
      },
      "scriptsig": "",
      "scriptsig_asm": "",
      "witness": [
        "0498ddc8032551101dba330f45310c22d1642e836d5a9dc90f2201bf7328da56ca4cf564d34a4be808c447a826f1c51abdaa030b2119a1beb0e9bed92637654c"
      ],
      "is_coinbase": false,
      "sequence": 2147483649
    },
    {
      "txid": "22e079b18feede4336a605fb5a28ee24b2763966176534e544627fa9e5fb2696",
      "vout": 0,
      "prevout": {
        "scriptpubkey": "5120469e9a174f9f10b9828aaf9088946970ed2f2a2630eeafcd062cff6f1803b963",
        "scriptpubkey_asm": "OP_PUSHNUM_1 OP_PUSHBYTES_32 469e9a174f9f10b9828aaf9088946970ed2f2a2630eeafcd062cff6f1803b963",
        "scriptpubkey_type": "v1_p2tr",
        "scriptpubkey_address": "bc1pg60f5960nugtnq5247gg39rfwrkj723xxrh2lngx9nlk7xqrh93sksy2sn",
        "value": 1200
      },
      "scriptsig": "",
      "scriptsig_asm": "",
      "witness": [
        "a3cc37659d6333f61d91565288d6fd945c7b86d7882bd14783b4162d4db3c6b44303aba87d5468ad4d138adf0c18d1084f09c166065ed70e19658e1da364c8a2"
      ],
      "is_coinbase": false,
      "sequence": 2147483649
    },
    {
      "txid": "b461d382395e1d8da788a64874559e73ef81686b4be364f517fb75786fe2678a",
      "vout": 0,
      "prevout": {
        "scriptpubkey": "5120469e9a174f9f10b9828aaf9088946970ed2f2a2630eeafcd062cff6f1803b963",
        "scriptpubkey_asm": "OP_PUSHNUM_1 OP_PUSHBYTES_32 469e9a174f9f10b9828aaf9088946970ed2f2a2630eeafcd062cff6f1803b963",
        "scriptpubkey_type": "v1_p2tr",
        "scriptpubkey_address": "bc1pg60f5960nugtnq5247gg39rfwrkj723xxrh2lngx9nlk7xqrh93sksy2sn",
        "value": 1200
      },
      "scriptsig": "",
      "scriptsig_asm": "",
      "witness": [
        "800ad9b38bf6b2501d6f6142c01165009c6a3553c84a4f98e630b4a4aa293f4b7000c20fb4359a74c543460ff5545ff617d42f86e6bea451a5a2c928828e50b6"
      ],
      "is_coinbase": false,
      "sequence": 2147483649
    },
    {
      "txid": "b3b111d446750a705e6a12cb5e3f5e222870b67e7cfbc3d209941ace6c71063e",
      "vout": 0,
      "prevout": {
        "scriptpubkey": "5120469e9a174f9f10b9828aaf9088946970ed2f2a2630eeafcd062cff6f1803b963",
        "scriptpubkey_asm": "OP_PUSHNUM_1 OP_PUSHBYTES_32 469e9a174f9f10b9828aaf9088946970ed2f2a2630eeafcd062cff6f1803b963",
        "scriptpubkey_type": "v1_p2tr",
        "scriptpubkey_address": "bc1pg60f5960nugtnq5247gg39rfwrkj723xxrh2lngx9nlk7xqrh93sksy2sn",
        "value": 1200
      },
      "scriptsig": "",
      "scriptsig_asm": "",
      "witness": [
        "6f6e408291037eec9efaeba736f10a13020b068a708116b2f65bc188aeab96a8e9848ff36491d603c462cafdbfc70d18647a3290ebbba834a2df16e5652e8f9b"
      ],
      "is_coinbase": false,
      "sequence": 2147483649
    },
    {
      "txid": "2563bfc57c6c5e7b6ca7159ae3c965830cc58aa80f20cb2cd95695569fef1fc5",
      "vout": 0,
      "prevout": {
        "scriptpubkey": "5120469e9a174f9f10b9828aaf9088946970ed2f2a2630eeafcd062cff6f1803b963",
        "scriptpubkey_asm": "OP_PUSHNUM_1 OP_PUSHBYTES_32 469e9a174f9f10b9828aaf9088946970ed2f2a2630eeafcd062cff6f1803b963",
        "scriptpubkey_type": "v1_p2tr",
        "scriptpubkey_address": "bc1pg60f5960nugtnq5247gg39rfwrkj723xxrh2lngx9nlk7xqrh93sksy2sn",
        "value": 1200
      },
      "scriptsig": "",
      "scriptsig_asm": "",
      "witness": [
        "e3757b15f60af088631da938197921ee1945ef4c9cbb9739c7ef585a84144b4737a46e7da21c51007b199e10ddc137c1eb9b6e2df77e0140e6211ee878c22552"
      ],
      "is_coinbase": false,
      "sequence": 2147483649
    },
    {
      "txid": "a16268a8d29df2d5b4b857d8d8a689ccd6aef1536a00b5dc226abd85c0d36d6e",
      "vout": 0,
      "prevout": {
        "scriptpubkey": "5120469e9a174f9f10b9828aaf9088946970ed2f2a2630eeafcd062cff6f1803b963",
        "scriptpubkey_asm": "OP_PUSHNUM_1 OP_PUSHBYTES_32 469e9a174f9f10b9828aaf9088946970ed2f2a2630eeafcd062cff6f1803b963",
        "scriptpubkey_type": "v1_p2tr",
        "scriptpubkey_address": "bc1pg60f5960nugtnq5247gg39rfwrkj723xxrh2lngx9nlk7xqrh93sksy2sn",
        "value": 1200
      },
      "scriptsig": "",
      "scriptsig_asm": "",
      "witness": [
        "94f71f00d22abf7a7f3533deddc186083cefb2c2abd585b97992354587226dd052eadefc6e49d93706c1e911a4143321da121ac82cb593a945dba120595d8072"
      ],
      "is_coinbase": false,
      "sequence": 2147483649
    },
    {
      "txid": "361b70a0129fd6703222140e6a0bf71e11f6ab2cfcf722a450701eac19295de4",
      "vout": 0,
      "prevout": {
        "scriptpubkey": "5120469e9a174f9f10b9828aaf9088946970ed2f2a2630eeafcd062cff6f1803b963",
        "scriptpubkey_asm": "OP_PUSHNUM_1 OP_PUSHBYTES_32 469e9a174f9f10b9828aaf9088946970ed2f2a2630eeafcd062cff6f1803b963",
        "scriptpubkey_type": "v1_p2tr",
        "scriptpubkey_address": "bc1pg60f5960nugtnq5247gg39rfwrkj723xxrh2lngx9nlk7xqrh93sksy2sn",
        "value": 1200
      },
      "scriptsig": "",
      "scriptsig_asm": "",
      "witness": [
        "4e1b886cb40eacc9ab97c0e5ed383d7019a746ceb92121f523c1f6bcc51b276c0df59d7e0ab809c2621a21bcfe42d72ae88db7d38c616d180257f694f51b9cc7"
      ],
      "is_coinbase": false,
      "sequence": 2147483649
    },
    {
      "txid": "16917bddd0b94b084d3c325ffa67fbc9bef7ab360f88aca8cfc61bfbed6fd41e",
      "vout": 0,
      "prevout": {
        "scriptpubkey": "5120469e9a174f9f10b9828aaf9088946970ed2f2a2630eeafcd062cff6f1803b963",
        "scriptpubkey_asm": "OP_PUSHNUM_1 OP_PUSHBYTES_32 469e9a174f9f10b9828aaf9088946970ed2f2a2630eeafcd062cff6f1803b963",
        "scriptpubkey_type": "v1_p2tr",
        "scriptpubkey_address": "bc1pg60f5960nugtnq5247gg39rfwrkj723xxrh2lngx9nlk7xqrh93sksy2sn",
        "value": 1200
      },
      "scriptsig": "",
      "scriptsig_asm": "",
      "witness": [
        "be748c6721b4902116e8e8adfb5bc2612eefd07a2b070756dde766c633d7946e0d029cb33108561a3bf67b34a4b2f057d0a0d04de293c0dfdcd03ad155e16279"
      ],
      "is_coinbase": false,
      "sequence": 2147483649
    },
    {
      "txid": "7715b354bac23aed4653c5f11c6bc7f1cbf372a0dece0646a7e311f17eff861b",
      "vout": 0,
      "prevout": {
        "scriptpubkey": "5120469e9a174f9f10b9828aaf9088946970ed2f2a2630eeafcd062cff6f1803b963",
        "scriptpubkey_asm": "OP_PUSHNUM_1 OP_PUSHBYTES_32 469e9a174f9f10b9828aaf9088946970ed2f2a2630eeafcd062cff6f1803b963",
        "scriptpubkey_type": "v1_p2tr",
        "scriptpubkey_address": "bc1pg60f5960nugtnq5247gg39rfwrkj723xxrh2lngx9nlk7xqrh93sksy2sn",
        "value": 1200
      },
      "scriptsig": "",
      "scriptsig_asm": "",
      "witness": [
        "64c45ce22f5f874e80f93d54f13c4387facde1d099cf2f7a1aaa60a80f8ad3a6dc464d717a696764495de8290c081f74ec6df3d0ee90e5fab4162bc8d5a27b29"
      ],
      "is_coinbase": false,
      "sequence": 2147483649
    },
    {
      "txid": "7a8e8118bc49107686380cffac79f33aabc69ab475284ded9e7dca87a8d049c1",
      "vout": 0,
      "prevout": {
        "scriptpubkey": "5120469e9a174f9f10b9828aaf9088946970ed2f2a2630eeafcd062cff6f1803b963",
        "scriptpubkey_asm": "OP_PUSHNUM_1 OP_PUSHBYTES_32 469e9a174f9f10b9828aaf9088946970ed2f2a2630eeafcd062cff6f1803b963",
        "scriptpubkey_type": "v1_p2tr",
        "scriptpubkey_address": "bc1pg60f5960nugtnq5247gg39rfwrkj723xxrh2lngx9nlk7xqrh93sksy2sn",
        "value": 1200
      },
      "scriptsig": "",
      "scriptsig_asm": "",
      "witness": [
        "515244bc3c143a8af929734fb6815466923fa0c5c606aaa8726e54b8cef23d7a381e8b3073f0406ae4add3a6cf10da31dcaa9b3a21c5c17c16b4b25d8ccb0e89"
      ],
      "is_coinbase": false,
      "sequence": 2147483649
    },
    {
      "txid": "08a8777395e67331b0333eac9e8a4ec198e50de003aed95045be79a620c44cd4",
      "vout": 0,
      "prevout": {
        "scriptpubkey": "5120469e9a174f9f10b9828aaf9088946970ed2f2a2630eeafcd062cff6f1803b963",
        "scriptpubkey_asm": "OP_PUSHNUM_1 OP_PUSHBYTES_32 469e9a174f9f10b9828aaf9088946970ed2f2a2630eeafcd062cff6f1803b963",
        "scriptpubkey_type": "v1_p2tr",
        "scriptpubkey_address": "bc1pg60f5960nugtnq5247gg39rfwrkj723xxrh2lngx9nlk7xqrh93sksy2sn",
        "value": 1200
      },
      "scriptsig": "",
      "scriptsig_asm": "",
      "witness": [
        "cf6929632109c632dd8fbe39a1c2fd1c355b4aaa73f28a8a8ba39bdf12aad14283ddacad5dedc443f14783059c2c4b8d14f36a25d75a761aae94d28cefd4a48a"
      ],
      "is_coinbase": false,
      "sequence": 2147483649
    },
    {
      "txid": "ad627f2e980f0ef0b699eb27e4b958d007330ff7ccffc84b19eadd4e1ea1d8d2",
      "vout": 0,
      "prevout": {
        "scriptpubkey": "5120469e9a174f9f10b9828aaf9088946970ed2f2a2630eeafcd062cff6f1803b963",
        "scriptpubkey_asm": "OP_PUSHNUM_1 OP_PUSHBYTES_32 469e9a174f9f10b9828aaf9088946970ed2f2a2630eeafcd062cff6f1803b963",
        "scriptpubkey_type": "v1_p2tr",
        "scriptpubkey_address": "bc1pg60f5960nugtnq5247gg39rfwrkj723xxrh2lngx9nlk7xqrh93sksy2sn",
        "value": 1200
      },
      "scriptsig": "",
      "scriptsig_asm": "",
      "witness": [
        "0796be224d14dbac835e923a8dc0bc22a2cd65f7feaf14b67791dcf135cfbb0000aad4fc064a7328d4d39bed8661edb12df9201882a5ea490d090df8b61e74c4"
      ],
      "is_coinbase": false,
      "sequence": 2147483649
    },
    {
      "txid": "ba5ec51e26d16f2f3ef88584c14b01131b6b6d5c0dfc0ea888337805b61046cc",
      "vout": 0,
      "prevout": {
        "scriptpubkey": "5120469e9a174f9f10b9828aaf9088946970ed2f2a2630eeafcd062cff6f1803b963",
        "scriptpubkey_asm": "OP_PUSHNUM_1 OP_PUSHBYTES_32 469e9a174f9f10b9828aaf9088946970ed2f2a2630eeafcd062cff6f1803b963",
        "scriptpubkey_type": "v1_p2tr",
        "scriptpubkey_address": "bc1pg60f5960nugtnq5247gg39rfwrkj723xxrh2lngx9nlk7xqrh93sksy2sn",
        "value": 1200
      },
      "scriptsig": "",
      "scriptsig_asm": "",
      "witness": [
        "f54cfe3650edc842c7aec89d31a549a70268fafb53a084a777cf1f336a945d4c39adbf2f1336ddffbb00a77f351c186c3f372dc18cafd507995be80df06c82cd"
      ],
      "is_coinbase": false,
      "sequence": 2147483649
    },
    {
      "txid": "b2f9e78f47bc6e2da0933c147ec623c5fc05ba350c8a76adb42d60466e4542d5",
      "vout": 0,
      "prevout": {
        "scriptpubkey": "5120469e9a174f9f10b9828aaf9088946970ed2f2a2630eeafcd062cff6f1803b963",
        "scriptpubkey_asm": "OP_PUSHNUM_1 OP_PUSHBYTES_32 469e9a174f9f10b9828aaf9088946970ed2f2a2630eeafcd062cff6f1803b963",
        "scriptpubkey_type": "v1_p2tr",
        "scriptpubkey_address": "bc1pg60f5960nugtnq5247gg39rfwrkj723xxrh2lngx9nlk7xqrh93sksy2sn",
        "value": 1200
      },
      "scriptsig": "",
      "scriptsig_asm": "",
      "witness": [
        "73dc0f8086735327afe232675867281ac53cf0a3a68dc2f8252de0e7a8695b8175606db72eccd1f78897d86ff1dd2771aaaac25a983f4798e14800f4c3216ee9"
      ],
      "is_coinbase": false,
      "sequence": 2147483649
    },
    {
      "txid": "c2588fc8d3a48235072d4bf52ce1dc0416c104b820d7c6a009fee7c35d334528",
      "vout": 0,
      "prevout": {
        "scriptpubkey": "5120469e9a174f9f10b9828aaf9088946970ed2f2a2630eeafcd062cff6f1803b963",
        "scriptpubkey_asm": "OP_PUSHNUM_1 OP_PUSHBYTES_32 469e9a174f9f10b9828aaf9088946970ed2f2a2630eeafcd062cff6f1803b963",
        "scriptpubkey_type": "v1_p2tr",
        "scriptpubkey_address": "bc1pg60f5960nugtnq5247gg39rfwrkj723xxrh2lngx9nlk7xqrh93sksy2sn",
        "value": 1200
      },
      "scriptsig": "",
      "scriptsig_asm": "",
      "witness": [
        "ac1ceea086a46353177071a0963b9e937154b365a4631b77fddf673b094e85c363045b6442d4e1b31a9c3a9e2da2d1b3ad6d69ad27c00a2224523e12fbb91a3a"
      ],
      "is_coinbase": false,
      "sequence": 2147483649
    },
    {
      "txid": "0929b49d17aff8f99882809d27b20ac5720e5253771c8a2d80eeafc56ca782ff",
      "vout": 0,
      "prevout": {
        "scriptpubkey": "5120469e9a174f9f10b9828aaf9088946970ed2f2a2630eeafcd062cff6f1803b963",
        "scriptpubkey_asm": "OP_PUSHNUM_1 OP_PUSHBYTES_32 469e9a174f9f10b9828aaf9088946970ed2f2a2630eeafcd062cff6f1803b963",
        "scriptpubkey_type": "v1_p2tr",
        "scriptpubkey_address": "bc1pg60f5960nugtnq5247gg39rfwrkj723xxrh2lngx9nlk7xqrh93sksy2sn",
        "value": 1200
      },
      "scriptsig": "",
      "scriptsig_asm": "",
      "witness": [
        "ea9c940a324c207a0d1f55151662953bd7af19ed68d0fd075160aca5680aae9e7eacdc7ad41e28e52d8d9b2133ac7accace53c9a8b1975a49da399c2ff0e7410"
      ],
      "is_coinbase": false,
      "sequence": 2147483649
    },
    {
      "txid": "5ad888f0adeb88e44884c8e9fb778d4f2fdf846f8a05cbcc02b3416ead14b38c",
      "vout": 0,
      "prevout": {
        "scriptpubkey": "5120469e9a174f9f10b9828aaf9088946970ed2f2a2630eeafcd062cff6f1803b963",
        "scriptpubkey_asm": "OP_PUSHNUM_1 OP_PUSHBYTES_32 469e9a174f9f10b9828aaf9088946970ed2f2a2630eeafcd062cff6f1803b963",
        "scriptpubkey_type": "v1_p2tr",
        "scriptpubkey_address": "bc1pg60f5960nugtnq5247gg39rfwrkj723xxrh2lngx9nlk7xqrh93sksy2sn",
        "value": 1200
      },
      "scriptsig": "",
      "scriptsig_asm": "",
      "witness": [
        "1aad5fd09e094f328795002cd0ca4819932bc0b3a2d80c6e0604b018f0870517e5e5e42fb6ddcf94bcabdf034e47fbf6e3baedb911cb0822e91ff7c55ce0c295"
      ],
      "is_coinbase": false,
      "sequence": 2147483649
    },
    {
      "txid": "939c676529735f34addb4a70d67ef514c5b12db7129da987c3eec8064e3ccada",
      "vout": 0,
      "prevout": {
        "scriptpubkey": "5120469e9a174f9f10b9828aaf9088946970ed2f2a2630eeafcd062cff6f1803b963",
        "scriptpubkey_asm": "OP_PUSHNUM_1 OP_PUSHBYTES_32 469e9a174f9f10b9828aaf9088946970ed2f2a2630eeafcd062cff6f1803b963",
        "scriptpubkey_type": "v1_p2tr",
        "scriptpubkey_address": "bc1pg60f5960nugtnq5247gg39rfwrkj723xxrh2lngx9nlk7xqrh93sksy2sn",
        "value": 1200
      },
      "scriptsig": "",
      "scriptsig_asm": "",
      "witness": [
        "2340e014ff25fba835923409b76ff833bbf6932d9c0f876cd6b9dda70278ae8d437424e739234f46e2a1edfaa94a325b322af30d18e43a16e5b5cff1fc0afcc3"
      ],
      "is_coinbase": false,
      "sequence": 2147483649
    },
    {
      "txid": "91f2fc2ccba03129c894c470372fa70cdee3381bfd712d9f1838a5e1a5306aab",
      "vout": 0,
      "prevout": {
        "scriptpubkey": "5120469e9a174f9f10b9828aaf9088946970ed2f2a2630eeafcd062cff6f1803b963",
        "scriptpubkey_asm": "OP_PUSHNUM_1 OP_PUSHBYTES_32 469e9a174f9f10b9828aaf9088946970ed2f2a2630eeafcd062cff6f1803b963",
        "scriptpubkey_type": "v1_p2tr",
        "scriptpubkey_address": "bc1pg60f5960nugtnq5247gg39rfwrkj723xxrh2lngx9nlk7xqrh93sksy2sn",
        "value": 1200
      },
      "scriptsig": "",
      "scriptsig_asm": "",
      "witness": [
        "fcd0e27e45b7dbad4eb8b63797bb0c9e93ebbd2888ccb42d9857950c26dcac9231e12a36ab397029e5df8f459056c61475f20ed0470d86be0f63574a114c39c1"
      ],
      "is_coinbase": false,
      "sequence": 2147483649
    },
    {
      "txid": "0bc09c6c716f7eae777ae6a6359af6876b92a994a3a7bdad04a5eaccec4819bd",
      "vout": 0,
      "prevout": {
        "scriptpubkey": "5120469e9a174f9f10b9828aaf9088946970ed2f2a2630eeafcd062cff6f1803b963",
        "scriptpubkey_asm": "OP_PUSHNUM_1 OP_PUSHBYTES_32 469e9a174f9f10b9828aaf9088946970ed2f2a2630eeafcd062cff6f1803b963",
        "scriptpubkey_type": "v1_p2tr",
        "scriptpubkey_address": "bc1pg60f5960nugtnq5247gg39rfwrkj723xxrh2lngx9nlk7xqrh93sksy2sn",
        "value": 1200
      },
      "scriptsig": "",
      "scriptsig_asm": "",
      "witness": [
        "19f64a81c698ecfd329b13e5857980a6c9c4a49842e3ce582ae49fb63413b295b9bf1f79982e54730c5f6f9a898b15257bf41ceaf9e72cec51f75a068cf0496f"
      ],
      "is_coinbase": false,
      "sequence": 2147483649
    },
    {
      "txid": "d84792b8cd53287c5d7d8c2a44f71205d9c0baa9682f7caec176f7784213ed24",
      "vout": 0,
      "prevout": {
        "scriptpubkey": "5120469e9a174f9f10b9828aaf9088946970ed2f2a2630eeafcd062cff6f1803b963",
        "scriptpubkey_asm": "OP_PUSHNUM_1 OP_PUSHBYTES_32 469e9a174f9f10b9828aaf9088946970ed2f2a2630eeafcd062cff6f1803b963",
        "scriptpubkey_type": "v1_p2tr",
        "scriptpubkey_address": "bc1pg60f5960nugtnq5247gg39rfwrkj723xxrh2lngx9nlk7xqrh93sksy2sn",
        "value": 1200
      },
      "scriptsig": "",
      "scriptsig_asm": "",
      "witness": [
        "83695419590f45c11cbd28cffaeb49093b377aa498be8be496d9b8223ae08de6e0f575fa77536d5787b8ea60cc30fbbb83c72b687c3ac314fcb298dc7c0bdc22"
      ],
      "is_coinbase": false,
      "sequence": 2147483649
    },
    {
      "txid": "1af58cf9ee46dcccf2854412232c7e4ffcc49d19be0c8c1bd50be21e0eecae95",
      "vout": 0,
      "prevout": {
        "scriptpubkey": "5120469e9a174f9f10b9828aaf9088946970ed2f2a2630eeafcd062cff6f1803b963",
        "scriptpubkey_asm": "OP_PUSHNUM_1 OP_PUSHBYTES_32 469e9a174f9f10b9828aaf9088946970ed2f2a2630eeafcd062cff6f1803b963",
        "scriptpubkey_type": "v1_p2tr",
        "scriptpubkey_address": "bc1pg60f5960nugtnq5247gg39rfwrkj723xxrh2lngx9nlk7xqrh93sksy2sn",
        "value": 1200
      },
      "scriptsig": "",
      "scriptsig_asm": "",
      "witness": [
        "c3d4127a0a930d80233f1daff6bf6d6bf6cf15862257b4e2125736db0aeed646a5d26dc47acfbcccaef23e0019ef459bfd5501c796688cb23d7888201acdbdbd"
      ],
      "is_coinbase": false,
      "sequence": 2147483649
    }
  ],
  "vout": [
    {
      "scriptpubkey": "a914e1dd9a181ad890359d39eee2a34197bc68022aa887",
      "scriptpubkey_asm": "OP_HASH160 OP_PUSHBYTES_20 e1dd9a181ad890359d39eee2a34197bc68022aa8 OP_EQUAL",
      "scriptpubkey_type": "p2sh",
      "scriptpubkey_address": "3NHHRsrf5bEdErYLvEe8YUfv8ApKmafPi5",
      "value": 887811
    }
  ],
  "size": 4538,
  "weight": 9830,
  "fee": 36855,
  "status": {
    "confirmed": true,
    "block_height": 834460,
    "block_hash": "00000000000000000000484a79b643b2524bbce82e5d8a442013fa5b8905ed98",
    "block_time": 1710307468
  },
  "hex": "0200000000012a782db669720a8a81c7fdcbb305e4e512a19e0fecdb4148e7d51e37d2ab13e2e701000000000100008035fc17b080963d79598e7d0cf309b6dda6483e2b9dd7998fb1a84a3f6ba60684010000000001000080e3356d345521f56b9c486f822068811c2f559e04b217d794e4b9f7f107215f60050000000001000080928be1bd209938e1191cb9d6170237047e285ec42a5cb0733803aee86f300813020000000001000080169195bcfc1fbf218ff8c662defba9aa69fb681c9a326259bbd9d6422d902b4b020000000001000080edd9b8d0e4442e889650778b69ad62df7fd20aa25d010c823967c24e6aeaa50202000000000100008098766a35931721a49604fe1a7e27e89d61eb82d70ff20fd8e464a5eb1d5913770200000000010000802d07e4a65c804304232a07dfaf4bcf706e32220d325939e515726898f640db9d0500000000010000802d07e4a65c804304232a07dfaf4bcf706e32220d325939e515726898f640db9d060000000001000080da5a4efa3d8d0a30e003b13dbb2a0dec92273f9a8ded33bd323af6d31243409b0200000000010000802d07e4a65c804304232a07dfaf4bcf706e32220d325939e515726898f640db9d04000000000100008024ed134278f776c1ae7c2f68a9bac0d90512f7442a8c7d5d7c2853cdb89247d8050000000001000080958f90a43127598ad44bd48b5b3b43ddb04eec3025a5c4a6e6619a5429b59e660100000000010000807f4f18a198b853e47f5f591426bbb15d8587fdde13458e87cb0356c02e82a0200100000000010000802845335dc3e7fe09a0c6d720b804c11604dce12cf54b2d073582a4d3c88f58c205000000000100008073639f9db890ef3affaab38d91ba6927689c1880e7cfea6e47a19a5357623184010000000001000080e3356d345521f56b9c486f822068811c2f559e04b217d794e4b9f7f107215f60000000000001000080767d6ec3a305f9b2dcf2066335196aef6113140ad605619c4dca12a11e3877af0000000000010000803580e9184de4c448e024f03f93e73a1402e9449af643cf02cce134bd29464a37000000000001000080305dd0079a45787583b7d1bb20087bf2d200693b240e7021ba84bd7ec794084f000000000001000080f64b1df837e138c000dc6d33032a940b09ca25bea5ca2f7fba7d20768c9d5c750000000000010000809626fbe5a97f6244e5346517663976b224ee285afb05a63643deee8fb179e0220000000000010000808a67e26f7875fb17f564e34b6b6881ef739e557448a688a78d1d5e3982d361b40000000000010000803e06716cce1a9409d2c3fb7c7eb67028225e3f5ecb126a5e700a7546d411b1b3000000000001000080c51fef9f569556d92ccb200fa88ac50c8365c9e39a15a76c7b5e6c7cc5bf63250000000000010000806e6dd3c085bd6a22dcb5006a53f1aed6cc89a6d8d857b8b4d5f29dd2a86862a1000000000001000080e45d2919ac1e7050a422f7fc2cabf6111ef70b6a0e14223270d69f12a0701b360000000000010000801ed46fedfb1bc6cfa8ac880f36abf7bec9fb67fa5f323c4d084bb9d0dd7b91160000000000010000801b86ff7ef111e3a74606cedea072f3cbf1c76b1cf1c55346ed3ac2ba54b31577000000000001000080c149d0a887ca7d9eed4d2875b49ac6ab3af379acff0c3886761049bc18818e7a000000000001000080d44cc420a679be4550d9ae03e00de598c14e8a9eac3e33b03173e6957377a808000000000001000080d2d8a11e4eddea194bc8ffccf70f3307d058b9e427eb99b6f00e0f982e7f62ad000000000001000080cc4610b605783388a80efc0d5c6d6b1b13014bc18485f83e2f6fd1261ec55eba000000000001000080d542456e46602db4ad768a0c35ba05fcc523c67e143c93a02d6ebc478fe7f9b20000000000010000802845335dc3e7fe09a0c6d720b804c11604dce12cf54b2d073582a4d3c88f58c2000000000001000080ff82a76cc5afee802d8a1c7753520e72c50ab2279d808298f9f8af179db429090000000000010000808cb314ad6e41b302cccb058a6f84df2f4f8d77fbe9c88448e488ebadf088d85a000000000001000080daca3c4e06c8eec387a99d12b72db1c514f57ed6704adbad345f732965679c93000000000001000080ab6a30a5e1a538189f2d71fd1b38e3de0ca72f3770c494c82931a0cb2cfcf291000000000001000080bd1948eccceaa504adbda7a394a9926b87f69a35a6e67a77ae7e6f716c9cc00b00000000000100008024ed134278f776c1ae7c2f68a9bac0d90512f7442a8c7d5d7c2853cdb89247d800000000000100008095aeec0e1ee20bd51b8c0cbe199dc4fc4f7e2c23124485f2ccdc46eef98cf51a00000000000100008001038c0d000000000017a914e1dd9a181ad890359d39eee2a34197bc68022aa88701409565d0a1d975de5d604f6177ba5f739da2c13e8025308e38617a1a69cdcac6fc56f04502511cfb10456502fb1673c476bbb32972e5485b885ac80861ccb6154a014065b62599c567177b7a038a2f590f6284c777fb5a502727aa588b4932676cf1350e62e176bc2c434badbbc34c7681f56801977d28d3f574f0a0e7a656a448108d0140d336394fa44dedbe231613682ca72631c12229a72954a1c5e4fcd955707564cee747aa8b40aafe69cbd477e1275620baa7d87a3939f67d7c0bca588e8e77ed1701404ac7aeae88000ff6bdcad74352bc402eec7cb96053d3d7720ed53b09f9217ac1a382a111de37a08b79042ee283406126c4f55a81bedd4c88370f9679a9efba120140979c512f3a327a275d401c7fc29a43850e73fda1d9ec5cfc64b48e9f602fd1cdd4474da91729d6ce4339765e03f09ff237c06b52f38d9834234e52d524d2ae6501408261729f809688f56c42d24505337f9f6d354c382cb74173e3fd7368b8eaf5896841da24ce8f324dd8e9e0c2ee8460a63d3c8da5a23e11e5e06b491e115d46e701402c648eef1e106304b6b7a8501fb9545ebca6955a6313da3077d996a168818864ca2c5d1ab718972b67d86f723136d17e220cb07cf505c9b294974889b6a0999501407916100e873ace68935922a105af939326aa72df635449e3a93205533c8e2200ebdf880df420079b7bb72d0f53f9bb5eb52ac0bfae3eff8e8cb173d455c70a6201402496e35a3f4d0c5a1365dbb4dc2f3332379a04dcb89c926fd273745ac162c9bc1cac8b461b3c88ccd5e5959b59cb01ddc99ab40674ab1f6e2cf23f83ccb3c69001400cd64e6434e6c0b23321de4717d942765c23fa63696862cab28c0d23c3b3457571da8af08cec73a6b40c88e3e124b4e4d17e67049cda5d1ff7295a5c5a3d3db00140b8c6b52b43233364a4594a4024a15970172c36e24697da115fdd0574c2e4af1cf46b868e3b30944e813f1badd33943dbaa792c85e64a112f28210167a588de240140f10f913f8437835ef86a198dcf951336c987a1b742fc76de4b4fadbbc705eceb9306376d60e2b9012679117e1710adcb90a2b2c9c696711fa741f52d8fcc45a2014049a76831a6d087dbc1513f0793ef3b61659eb239e03dd996d00ebc708ba69a75bfcc2c07d4fc0aa86b0abaff08625e1d6765be0917f9bb5c318471bb570de8e90140e3bea16d54b912bbca51ee76c47087c9ba41c229635bfeed622ceccb66a3645983aaa0bb0183d1a0ffdc1c4c66fc5c240f46c4e83bd012243b968d0ce00eb7e701409e0a02d16aa8683149bdb2931a0e59c65670ec440bacf24b0093f4b107340341791ba5a9a6d09eb8dfdb774fbd55aba9ed6080373949db09a519a1ece5f8d0420140a3e699750adce35ee4348e592107c8c1929bacbef113d68f7150b9e845230f23c5b51020684ce4824d8b85f31e51c9fd030e479f0bd8fb2112df01558851f4af0140a804e6fd1581cb280ab4a773a3d911055a296f6b6a1994a91cce6d690c05bff75813237fb49eae94e5c7f83531a245f2cb589b6a1b7d30ff45807a74396b951a014062d7737544587370c5d4aa2d671b1c95c291f2837a821f113be978d31bc3462218466887f1136f57e9fa77f73016337ee2866485c5bc76f64095861d8947c643014056f02176ca9017001ff1745190834458b7401483c8949adeb0ca20b62b921119f94279f9cf6d18e0bc5fe7e7888f1cee046113d8c5a92c3b60fa5ad957054de50140f8a57377d9cf905f9d8b96ae26f96a15870763899679769bdc1f0efd51a73b713c1044df6e1a1ebad9301e64290e5ec70cb11262b83ec3fb7eb8f869ae582b3101400498ddc8032551101dba330f45310c22d1642e836d5a9dc90f2201bf7328da56ca4cf564d34a4be808c447a826f1c51abdaa030b2119a1beb0e9bed92637654c0140a3cc37659d6333f61d91565288d6fd945c7b86d7882bd14783b4162d4db3c6b44303aba87d5468ad4d138adf0c18d1084f09c166065ed70e19658e1da364c8a20140800ad9b38bf6b2501d6f6142c01165009c6a3553c84a4f98e630b4a4aa293f4b7000c20fb4359a74c543460ff5545ff617d42f86e6bea451a5a2c928828e50b601406f6e408291037eec9efaeba736f10a13020b068a708116b2f65bc188aeab96a8e9848ff36491d603c462cafdbfc70d18647a3290ebbba834a2df16e5652e8f9b0140e3757b15f60af088631da938197921ee1945ef4c9cbb9739c7ef585a84144b4737a46e7da21c51007b199e10ddc137c1eb9b6e2df77e0140e6211ee878c22552014094f71f00d22abf7a7f3533deddc186083cefb2c2abd585b97992354587226dd052eadefc6e49d93706c1e911a4143321da121ac82cb593a945dba120595d807201404e1b886cb40eacc9ab97c0e5ed383d7019a746ceb92121f523c1f6bcc51b276c0df59d7e0ab809c2621a21bcfe42d72ae88db7d38c616d180257f694f51b9cc70140be748c6721b4902116e8e8adfb5bc2612eefd07a2b070756dde766c633d7946e0d029cb33108561a3bf67b34a4b2f057d0a0d04de293c0dfdcd03ad155e16279014064c45ce22f5f874e80f93d54f13c4387facde1d099cf2f7a1aaa60a80f8ad3a6dc464d717a696764495de8290c081f74ec6df3d0ee90e5fab4162bc8d5a27b290140515244bc3c143a8af929734fb6815466923fa0c5c606aaa8726e54b8cef23d7a381e8b3073f0406ae4add3a6cf10da31dcaa9b3a21c5c17c16b4b25d8ccb0e890140cf6929632109c632dd8fbe39a1c2fd1c355b4aaa73f28a8a8ba39bdf12aad14283ddacad5dedc443f14783059c2c4b8d14f36a25d75a761aae94d28cefd4a48a01400796be224d14dbac835e923a8dc0bc22a2cd65f7feaf14b67791dcf135cfbb0000aad4fc064a7328d4d39bed8661edb12df9201882a5ea490d090df8b61e74c40140f54cfe3650edc842c7aec89d31a549a70268fafb53a084a777cf1f336a945d4c39adbf2f1336ddffbb00a77f351c186c3f372dc18cafd507995be80df06c82cd014073dc0f8086735327afe232675867281ac53cf0a3a68dc2f8252de0e7a8695b8175606db72eccd1f78897d86ff1dd2771aaaac25a983f4798e14800f4c3216ee90140ac1ceea086a46353177071a0963b9e937154b365a4631b77fddf673b094e85c363045b6442d4e1b31a9c3a9e2da2d1b3ad6d69ad27c00a2224523e12fbb91a3a0140ea9c940a324c207a0d1f55151662953bd7af19ed68d0fd075160aca5680aae9e7eacdc7ad41e28e52d8d9b2133ac7accace53c9a8b1975a49da399c2ff0e741001401aad5fd09e094f328795002cd0ca4819932bc0b3a2d80c6e0604b018f0870517e5e5e42fb6ddcf94bcabdf034e47fbf6e3baedb911cb0822e91ff7c55ce0c29501402340e014ff25fba835923409b76ff833bbf6932d9c0f876cd6b9dda70278ae8d437424e739234f46e2a1edfaa94a325b322af30d18e43a16e5b5cff1fc0afcc30140fcd0e27e45b7dbad4eb8b63797bb0c9e93ebbd2888ccb42d9857950c26dcac9231e12a36ab397029e5df8f459056c61475f20ed0470d86be0f63574a114c39c1014019f64a81c698ecfd329b13e5857980a6c9c4a49842e3ce582ae49fb63413b295b9bf1f79982e54730c5f6f9a898b15257bf41ceaf9e72cec51f75a068cf0496f014083695419590f45c11cbd28cffaeb49093b377aa498be8be496d9b8223ae08de6e0f575fa77536d5787b8ea60cc30fbbb83c72b687c3ac314fcb298dc7c0bdc220140c3d4127a0a930d80233f1daff6bf6d6bf6cf15862257b4e2125736db0aeed646a5d26dc47acfbcccaef23e0019ef459bfd5501c796688cb23d7888201acdbdbd00000000"
}