{
  "txid": "c8f2a5e40b99f05a953547ad6593c58ec7b384fea8c8461dabc77c7f01c9a8f1",
  "version": 2,
  "locktime": 0,
  "vin": [
    {
      "txid": "3bfb54712e01d612ecb7aa18a345dd91bb8c35624e6f24b3245bf3afd0ca15df",
      "vout": 1,
      "prevout": {
        "scriptpubkey": "0014e660c06ebc498c384650f448fb992668c271a965",
        "scriptpubkey_asm": "OP_0 OP_PUSHBYTES_20 e660c06ebc498c384650f448fb992668c271a965",
        "scriptpubkey_type": "v0_p2wpkh",
        "scriptpubkey_address": "bc1quesvqm4ufxxrs3js73y0hxfxdrp8r2t9t3drud",
        "value": 12002
      },
      "scriptsig": "",
      "scriptsig_asm": "",
      "witness": [
        "3045022100a1c4f6917ed7bd330f673a9c15cebd8b9b2851f63028daf81851bbfbf9cbcfd902207d94e578d8a4d37827a2b1d1632dd1348475934df4f59f30f7972e14fad3467b01",
        "03279fe5014f4b10e3b04fe1718e88e7e0ef96118ef8d92d3b1d0d4d112139744d"
      ],
      "is_coinbase": false,
      "sequence": 4294967293
    },
    {
      "txid": "a11602dcaddef893033149fc693f4162a4c7cec24ed9ae9f7ed88927c0ae2d24",
      "vout": 0,
      "prevout": {
        "scriptpubkey": "0014e660c06ebc498c384650f448fb992668c271a965",
        "scriptpubkey_asm": "OP_0 OP_PUSHBYTES_20 e660c06ebc498c384650f448fb992668c271a965",
        "scriptpubkey_type": "v0_p2wpkh",
        "scriptpubkey_address": "bc1quesvqm4ufxxrs3js73y0hxfxdrp8r2t9t3drud",
        "value": 1200
      },
      "scriptsig": "",
      "scriptsig_asm": "",
      "witness": [
        "304402202b9fd6bb7213350bb889f12ce8149283f87b59bb24a3067578e49c8ac243681002200420a3803029df3c2bce626aad08ff457b6773140bdab8494aa08e5ed7dbe8d901",
        "03279fe5014f4b10e3b04fe1718e88e7e0ef96118ef8d92d3b1d0d4d112139744d"
      ],
      "is_coinbase": false,
      "sequence": 4294967293
    },
    {
      "txid": "66b93d531a6ef6fb46df0ddfe15b238c3884cd7afc1a520d7e8e1b79fdda11de",
      "vout": 0,
      "prevout": {
        "scriptpubkey": "0014e660c06ebc498c384650f448fb992668c271a965",
        "scriptpubkey_asm": "OP_0 OP_PUSHBYTES_20 e660c06ebc498c384650f448fb992668c271a965",
        "scriptpubkey_type": "v0_p2wpkh",
        "scriptpubkey_address": "bc1quesvqm4ufxxrs3js73y0hxfxdrp8r2t9t3drud",
        "value": 1200
      },
      "scriptsig": "",
      "scriptsig_asm": "",
      "witness": [
        "304402202d2e7b269d7515ec78a7ee7be960e013ed09fe2227fc13ac6507cd3891929471022078809fe0ed74df39e9d4da9a7a600a973a00125d689b614f8015588e369074e701",
        "03279fe5014f4b10e3b04fe1718e88e7e0ef96118ef8d92d3b1d0d4d112139744d"
      ],
      "is_coinbase": false,
      "sequence": 4294967293
    },
    {
      "txid": "5d45c80d5dd57d64ddcd12e5e4f8cfbf6465ec8c498fdf8cc4337cd681d65fd3",
      "vout": 0,
      "prevout": {
        "scriptpubkey": "0014e660c06ebc498c384650f448fb992668c271a965",
        "scriptpubkey_asm": "OP_0 OP_PUSHBYTES_20 e660c06ebc498c384650f448fb992668c271a965",
        "scriptpubkey_type": "v0_p2wpkh",
        "scriptpubkey_address": "bc1quesvqm4ufxxrs3js73y0hxfxdrp8r2t9t3drud",
        "value": 1200
      },
      "scriptsig": "",
      "scriptsig_asm": "",
      "witness": [
        "3045022100e1e353b1ea6a3301aa8d09b4300ff0386e71c48fb269a7dbccf3d690105e738f02202a11b14da9b6f732c5025a70119a9c81b095bda3e6ec02c3241b47d2bde3169d01",
        "03279fe5014f4b10e3b04fe1718e88e7e0ef96118ef8d92d3b1d0d4d112139744d"
      ],
      "is_coinbase": false,
      "sequence": 4294967293
    },
    {
      "txid": "88caac3c72016981ffc6be6b6bbbb12d2d030c0e40932fc141463037d3834617",
      "vout": 0,
      "prevout": {
        "scriptpubkey": "0014e660c06ebc498c384650f448fb992668c271a965",
        "scriptpubkey_asm": "OP_0 OP_PUSHBYTES_20 e660c06ebc498c384650f448fb992668c271a965",
        "scriptpubkey_type": "v0_p2wpkh",
        "scriptpubkey_address": "bc1quesvqm4ufxxrs3js73y0hxfxdrp8r2t9t3drud",
        "value": 1200
      },
      "scriptsig": "",
      "scriptsig_asm": "",
      "witness": [
        "3044022011481235f5002011fc2c964df9f90d64e884c66ddc23775d33b70382f29d42e80220736b2452f8ecddf0b701138ea27cf1e7196314e0db2f9e7a3a822cdef7fd4cc601",
        "03279fe5014f4b10e3b04fe1718e88e7e0ef96118ef8d92d3b1d0d4d112139744d"
      ],
      "is_coinbase": false,
      "sequence": 4294967293
    },
    {
      "txid": "aaccd10ba842a31a134405d96307014204fd7fe537052c0f3eb5375f5ab9dead",
      "vout": 0,
      "prevout": {
        "scriptpubkey": "0014e660c06ebc498c384650f448fb992668c271a965",
        "scriptpubkey_asm": "OP_0 OP_PUSHBYTES_20 e660c06ebc498c384650f448fb992668c271a965",
        "scriptpubkey_type": "v0_p2wpkh",
        "scriptpubkey_address": "bc1quesvqm4ufxxrs3js73y0hxfxdrp8r2t9t3drud",
        "value": 1200
      },
      "scriptsig": "",
      "scriptsig_asm": "",
      "witness": [
        "3045022100849b1a56b3bbceebbc2debf27b6174ee03e893e83907c85ae8333873d99a92420220523e7f2f18a8cd0f7a5f34ecb56be0be7472b5820bb8fe00f0a4e2b2d5fc67cf01",
        "03279fe5014f4b10e3b04fe1718e88e7e0ef96118ef8d92d3b1d0d4d112139744d"
      ],
      "is_coinbase": false,
      "sequence": 4294967293
    },
    {
      "txid": "debae7807b752a927fbec39218f2557b298ef12261384fc9d5b641aefd35cd23",
      "vout": 0,
      "prevout": {
        "scriptpubkey": "0014e660c06ebc498c384650f448fb992668c271a965",
        "scriptpubkey_asm": "OP_0 OP_PUSHBYTES_20 e660c06ebc498c384650f448fb992668c271a965",
        "scriptpubkey_type": "v0_p2wpkh",
        "scriptpubkey_address": "bc1quesvqm4ufxxrs3js73y0hxfxdrp8r2t9t3drud",
        "value": 1200
      },
      "scriptsig": "",
      "scriptsig_asm": "",
      "witness": [
        "304402200f91fdc890ff455ceb5eeea35ec6fc3aabd53552c2ab2e9991a0815b61f55358022078fd488ea1adff523cde786f4abaa7654009924807d7b8dfaf2305be59005e3701",
        "03279fe5014f4b10e3b04fe1718e88e7e0ef96118ef8d92d3b1d0d4d112139744d"
      ],
      "is_coinbase": false,
      "sequence": 4294967293
    },
    {
      "txid": "32fd6064f49e86c0604e31770e75a9c035ea28129069309dbab4298d13cd4ef0",
      "vout": 0,
      "prevout": {
        "scriptpubkey": "0014e660c06ebc498c384650f448fb992668c271a965",
        "scriptpubkey_asm": "OP_0 OP_PUSHBYTES_20 e660c06ebc498c384650f448fb992668c271a965",
        "scriptpubkey_type": "v0_p2wpkh",
        "scriptpubkey_address": "bc1quesvqm4ufxxrs3js73y0hxfxdrp8r2t9t3drud",
        "value": 1200
      },
      "scriptsig": "",
      "scriptsig_asm": "",
      "witness": [
        "3045022100dfa409469f6c427adcdc9e3f493efff9308fab2d8c063b6f214ffb78e5b457ec02201e5301affadafbd151db2347891708d1cb654c1870a604f6c950e9ddaac21bbf01",
        "03279fe5014f4b10e3b04fe1718e88e7e0ef96118ef8d92d3b1d0d4d112139744d"
      ],
      "is_coinbase": false,
      "sequence": 4294967293
    },
    {
      "txid": "4ddf08bfb543fe13e4e0a4697c55418c61d8d4c15fa5142d5cb178afe9d94263",
      "vout": 0,
      "prevout": {
        "scriptpubkey": "0014e660c06ebc498c384650f448fb992668c271a965",
        "scriptpubkey_asm": "OP_0 OP_PUSHBYTES_20 e660c06ebc498c384650f448fb992668c271a965",
        "scriptpubkey_type": "v0_p2wpkh",
        "scriptpubkey_address": "bc1quesvqm4ufxxrs3js73y0hxfxdrp8r2t9t3drud",
        "value": 1200
      },
      "scriptsig": "",
      "scriptsig_asm": "",
      "witness": [
        "3045022100861a222b5ecd65ada390ed81ec62e39f86af0157b22da6a5d014e6ffcee019f10220242539b8ae0324d573e702a2ade2dee564d7f1865dd3fd590f059201f86171bc01",
        "03279fe5014f4b10e3b04fe1718e88e7e0ef96118ef8d92d3b1d0d4d112139744d"
      ],
      "is_coinbase": false,
      "sequence": 4294967293
    },
    {
      "txid": "a726b89ffefe9bfa9fa19dd659327a6c934baa1441b815d79d526883c693cba5",
      "vout": 0,
      "prevout": {
        "scriptpubkey": "0014e660c06ebc498c384650f448fb992668c271a965",
        "scriptpubkey_asm": "OP_0 OP_PUSHBYTES_20 e660c06ebc498c384650f448fb992668c271a965",
        "scriptpubkey_type": "v0_p2wpkh",
        "scriptpubkey_address": "bc1quesvqm4ufxxrs3js73y0hxfxdrp8r2t9t3drud",
        "value": 1200
      },
      "scriptsig": "",
      "scriptsig_asm": "",
      "witness": [
        "304402200e43716e1225e6d2eea1942a7450178abd6db4bd9f4998d624d26104a3ae79730220687e1ecd5c79b398f581cfc04d09d40498021b15c74b04a6b278ba20804d432801",
        "03279fe5014f4b10e3b04fe1718e88e7e0ef96118ef8d92d3b1d0d4d112139744d"
      ],
      "is_coinbase": false,
      "sequence": 4294967293
    },
    {
      "txid": "d4485c9e2b46384266773951b1c3441d307e526e109f5464650ae9c7f8179d62",
      "vout": 0,
      "prevout": {
        "scriptpubkey": "0014e660c06ebc498c384650f448fb992668c271a965",
        "scriptpubkey_asm": "OP_0 OP_PUSHBYTES_20 e660c06ebc498c384650f448fb992668c271a965",
        "scriptpubkey_type": "v0_p2wpkh",
        "scriptpubkey_address": "bc1quesvqm4ufxxrs3js73y0hxfxdrp8r2t9t3drud",
        "value": 1200
      },
      "scriptsig": "",
      "scriptsig_asm": "",
      "witness": [
        "3045022100857dc46e4e98b4f5f365e6741c705cdc2851b5fa98997b02fe865ec50d7aee2402203f5ea102837b0d28085c8ddbbee5b6476af6a1d05259d97f3ee43de9bdc72d9a01",
        "03279fe5014f4b10e3b04fe1718e88e7e0ef96118ef8d92d3b1d0d4d112139744d"
      ],
      "is_coinbase": false,
      "sequence": 4294967293
    },
    {
      "txid": "83486f026f4662796f87b6ec7e63bc168cb60a21f7f03875631c0a449632f8f6",
      "vout": 0,
      "prevout": {
        "scriptpubkey": "0014e660c06ebc498c384650f448fb992668c271a965",
        "scriptpubkey_asm": "OP_0 OP_PUSHBYTES_20 e660c06ebc498c384650f448fb992668c271a965",
        "scriptpubkey_type": "v0_p2wpkh",
        "scriptpubkey_address": "bc1quesvqm4ufxxrs3js73y0hxfxdrp8r2t9t3drud",
        "value": 1200
      },
      "scriptsig": "",
      "scriptsig_asm": "",
      "witness": [
        "3045022100c7512133c9eeb2c2326758fda3cbaa6d8860785defa27298d82225d44b2d381802207ca92291fc6add22458255f2b171fb75af00b9075953106a5e75471aadd0800e01",
        "03279fe5014f4b10e3b04fe1718e88e7e0ef96118ef8d92d3b1d0d4d112139744d"
      ],
      "is_coinbase": false,
      "sequence": 4294967293
    },
    {
      "txid": "f8282def588ee7d8ce28c482458f7319ccf9ea7b9cbcc848d8ec61fdd9b9688d",
      "vout": 0,
      "prevout": {
        "scriptpubkey": "0014e660c06ebc498c384650f448fb992668c271a965",
        "scriptpubkey_asm": "OP_0 OP_PUSHBYTES_20 e660c06ebc498c384650f448fb992668c271a965",
        "scriptpubkey_type": "v0_p2wpkh",
        "scriptpubkey_address": "bc1quesvqm4ufxxrs3js73y0hxfxdrp8r2t9t3drud",
        "value": 1200
      },
      "scriptsig": "",
      "scriptsig_asm": "",
      "witness": [
        "30440220667470f71fb92ec24ee9e8978f91c6314844ec9a543631868dca3a940bce313c02203b1d9c333b315a92f38caa4ad35733a026db1e90bdc2d071f647e2895b47557701",
        "03279fe5014f4b10e3b04fe1718e88e7e0ef96118ef8d92d3b1d0d4d112139744d"
      ],
      "is_coinbase": false,
      "sequence": 4294967293
    },
    {
      "txid": "c0b21304a9e8220c5e5182cbd71f184be74cc03c4e3c74bfdfc2fc49ebcb8797",
      "vout": 0,
      "prevout": {
        "scriptpubkey": "0014e660c06ebc498c384650f448fb992668c271a965",
        "scriptpubkey_asm": "OP_0 OP_PUSHBYTES_20 e660c06ebc498c384650f448fb992668c271a965",
        "scriptpubkey_type": "v0_p2wpkh",
        "scriptpubkey_address": "bc1quesvqm4ufxxrs3js73y0hxfxdrp8r2t9t3drud",
        "value": 1200
      },
      "scriptsig": "",
      "scriptsig_asm": "",
      "witness": [
        "3044022030cbfc353345eee13ca615308d787ccf247379e0bbc22e5b63cb576af94d245502202c1469aeead8ecce886bc7876dfa3884c582632238986067d813c9387bdc423701",
        "03279fe5014f4b10e3b04fe1718e88e7e0ef96118ef8d92d3b1d0d4d112139744d"
      ],
      "is_coinbase": false,
      "sequence": 4294967293
    },
    {
      "txid": "93dc6260127b2c412eb00d1ad52ec627a95c1afc9c673f89edc470076ab22667",
      "vout": 0,
      "prevout": {
        "scriptpubkey": "0014e660c06ebc498c384650f448fb992668c271a965",
        "scriptpubkey_asm": "OP_0 OP_PUSHBYTES_20 e660c06ebc498c384650f448fb992668c271a965",
        "scriptpubkey_type": "v0_p2wpkh",
        "scriptpubkey_address": "bc1quesvqm4ufxxrs3js73y0hxfxdrp8r2t9t3drud",
        "value": 1200
      },
      "scriptsig": "",
      "scriptsig_asm": "",
      "witness": [
        "3044022013b4aebfa3ae212638c697b7daf1d7d5f3b524d61f3fbd8b02c96bebd56f1bf402204e4a32fd21d6ae693159546d1c14c7bfcfc20c4f940aab3e62e9821631dfdfa101",
        "03279fe5014f4b10e3b04fe1718e88e7e0ef96118ef8d92d3b1d0d4d112139744d"
      ],
      "is_coinbase": false,
      "sequence": 4294967293
    },
    {
      "txid": "977258b5ef63f3647322d25ac0b567772828dba57090f2ed3dc4db6018ba60e8",
      "vout": 0,
      "prevout": {
        "scriptpubkey": "0014e660c06ebc498c384650f448fb992668c271a965",
        "scriptpubkey_asm": "OP_0 OP_PUSHBYTES_20 e660c06ebc498c384650f448fb992668c271a965",
        "scriptpubkey_type": "v0_p2wpkh",
        "scriptpubkey_address": "bc1quesvqm4ufxxrs3js73y0hxfxdrp8r2t9t3drud",
        "value": 1200
      },
      "scriptsig": "",
      "scriptsig_asm": "",
      "witness": [
        "3044022004cd9811eafc1324fa51ebe452e6fdd13ac4802063e0ad1cd3c042ee61383ad902203d259794f77a7a33436d5202aaba9697071ef5e7af0a46e9e979bd7db5cee77701",
        "03279fe5014f4b10e3b04fe1718e88e7e0ef96118ef8d92d3b1d0d4d112139744d"
      ],
      "is_coinbase": false,
      "sequence": 4294967293
    },
    {
      "txid": "7aeb05ffc86d4c3636a7bf14a43a06dac238d3f0af9074d32be40d567375d9ee",
      "vout": 0,
      "prevout": {
        "scriptpubkey": "0014e660c06ebc498c384650f448fb992668c271a965",
        "scriptpubkey_asm": "OP_0 OP_PUSHBYTES_20 e660c06ebc498c384650f448fb992668c271a965",
        "scriptpubkey_type": "v0_p2wpkh",
        "scriptpubkey_address": "bc1quesvqm4ufxxrs3js73y0hxfxdrp8r2t9t3drud",
        "value": 1200
      },
      "scriptsig": "",
      "scriptsig_asm": "",
      "witness": [
        "304402201259617456c052274ab6b1601b392ed45e7aa57698a8614b624e8d224d3b5a8202204032adc2621b16e78153271f1e2b2cdced172124bc3a1ca7c9c3f16a22aba03701",
        "03279fe5014f4b10e3b04fe1718e88e7e0ef96118ef8d92d3b1d0d4d112139744d"
      ],
      "is_coinbase": false,
      "sequence": 4294967293
    },
    {
      "txid": "7094ba16adfb459fdbeecb1b57073afbe23a90ab9c70f5c88292ada00cc1eb00",
      "vout": 0,
      "prevout": {
        "scriptpubkey": "0014e660c06ebc498c384650f448fb992668c271a965",
        "scriptpubkey_asm": "OP_0 OP_PUSHBYTES_20 e660c06ebc498c384650f448fb992668c271a965",
        "scriptpubkey_type": "v0_p2wpkh",
        "scriptpubkey_address": "bc1quesvqm4ufxxrs3js73y0hxfxdrp8r2t9t3drud",
        "value": 1200
      },
      "scriptsig": "",
      "scriptsig_asm": "",
      "witness": [
        "30440220124573eeed35e2871eb0c67ad8de082d42e160eb764e2251873bca1408c528c502206fed8b868c3a17f719b36da33f43af360968595cdc38a48e8b73b54db1be6d9201",
        "03279fe5014f4b10e3b04fe1718e88e7e0ef96118ef8d92d3b1d0d4d112139744d"
      ],
      "is_coinbase": false,
      "sequence": 4294967293
    }
  ],
  "vout": [
    {
      "scriptpubkey": "5120c07486ea522d69f6bb35b97b5533603dd06ab0cf73e46c3defb356db9fbed88a",
      "scriptpubkey_asm": "OP_PUSHNUM_1 OP_PUSHBYTES_32 c07486ea522d69f6bb35b97b5533603dd06ab0cf73e46c3defb356db9fbed88a",
      "scriptpubkey_type": "v1_p2tr",
      "scriptpubkey_address": "bc1pcp6gd6jj945ldwe4h9a42vmq8hgx4vx0w0jxc000kdtdh8a7mz9qfthml4",
      "value": 18461
    }
  ],
  "size": 2726,
  "weight": 5099,
  "fee": 13941,
  "status": {
    "confirmed": true,
    "block_height": 834464,
    "block_hash": "0000000000000000000177a0869a911a2b65c9bdcd5a8bcb02b68f305bee848e",
    "block_time": 1710308296
  },
  "hex": "02000000000112df15cad0aff35b24b3246f4e62358cbb91dd45a318aab7ec12d6012e7154fb3b0100000000fdffffff242daec02789d87e9faed94ec2cec7a462413f69fc49310393f8deaddc0216a10000000000fdffffffde11dafd791b8e7e0d521afc7acd84388c235be1df0ddf46fbf66e1a533db9660000000000fdffffffd35fd681d67c33c48cdf8f498cec6564bfcff8e4e512cddd647dd55d0dc8455d0000000000fdffffff174683d337304641c12f93400e0c032d2db1bb6b6bbec6ff816901723cacca880000000000fdffffffaddeb95a5f37b53e0f2c0537e57ffd0442010763d90544131aa342a80bd1ccaa0000000000fdffffff23cd35fdae41b6d5c94f386122f18e297b55f21892c3be7f922a757b80e7bade0000000000fdfffffff04ecd138d29b4ba9d3069901228ea35c0a9750e77314e60c0869ef46460fd320000000000fdffffff6342d9e9af78b15c2d14a55fc1d4d8618c41557c69a4e0e413fe43b5bf08df4d0000000000fdffffffa5cb93c68368529dd715b84114aa4b936c7a3259d69da19ffa9bfefe9fb826a70000000000fdffffff629d17f8c7e90a6564549f106e527e301d44c3b1513977664238462b9e5c48d40000000000fdfffffff6f83296440a1c637538f0f7210ab68c16bc637eecb6876f7962466f026f48830000000000fdffffff8d68b9d9fd61ecd848c8bc9c7beaf9cc19738f4582c428ced8e78e58ef2d28f80000000000fdffffff9787cbeb49fcc2dfbf743c4e3cc04ce74b181fd7cb82515e0c22e8a90413b2c00000000000fdffffff6726b26a0770c4ed893f679cfc1a5ca927c62ed51a0db02e412c7b126062dc930000000000fdffffffe860ba1860dbc43dedf29070a5db28287767b5c05ad2227364f363efb55872970000000000fdffffffeed97573560de42bd37490aff0d338c2da063aa414bfa736364c6dc8ff05eb7a0000000000fdffffff00ebc10ca0ad9282c8f5709cab903ae2fb3a07571bcbeedb9f45fbad16ba94700000000000fdffffff011d48000000000000225120c07486ea522d69f6bb35b97b5533603dd06ab0cf73e46c3defb356db9fbed88a02483045022100a1c4f6917ed7bd330f673a9c15cebd8b9b2851f63028daf81851bbfbf9cbcfd902207d94e578d8a4d37827a2b1d1632dd1348475934df4f59f30f7972e14fad3467b012103279fe5014f4b10e3b04fe1718e88e7e0ef96118ef8d92d3b1d0d4d112139744d0247304402202b9fd6bb7213350bb889f12ce8149283f87b59bb24a3067578e49c8ac243681002200420a3803029df3c2bce626aad08ff457b6773140bdab8494aa08e5ed7dbe8d9012103279fe5014f4b10e3b04fe1718e88e7e0ef96118ef8d92d3b1d0d4d112139744d0247304402202d2e7b269d7515ec78a7ee7be960e013ed09fe2227fc13ac6507cd3891929471022078809fe0ed74df39e9d4da9a7a600a973a00125d689b614f8015588e369074e7012103279fe5014f4b10e3b04fe1718e88e7e0ef96118ef8d92d3b1d0d4d112139744d02483045022100e1e353b1ea6a3301aa8d09b4300ff0386e71c48fb269a7dbccf3d690105e738f02202a11b14da9b6f732c5025a70119a9c81b095bda3e6ec02c3241b47d2bde3169d012103279fe5014f4b10e3b04fe1718e88e7e0ef96118ef8d92d3b1d0d4d112139744d02473044022011481235f5002011fc2c964df9f90d64e884c66ddc23775d33b70382f29d42e80220736b2452f8ecddf0b701138ea27cf1e7196314e0db2f9e7a3a822cdef7fd4cc6012103279fe5014f4b10e3b04fe1718e88e7e0ef96118ef8d92d3b1d0d4d112139744d02483045022100849b1a56b3bbceebbc2debf27b6174ee03e893e83907c85ae8333873d99a92420220523e7f2f18a8cd0f7a5f34ecb56be0be7472b5820bb8fe00f0a4e2b2d5fc67cf012103279fe5014f4b10e3b04fe1718e88e7e0ef96118ef8d92d3b1d0d4d112139744d0247304402200f91fdc890ff455ceb5eeea35ec6fc3aabd53552c2ab2e9991a0815b61f55358022078fd488ea1adff523cde786f4abaa7654009924807d7b8dfaf2305be59005e37012103279fe5014f4b10e3b04fe1718e88e7e0ef96118ef8d92d3b1d0d4d112139744d02483045022100dfa409469f6c427adcdc9e3f493efff9308fab2d8c063b6f214ffb78e5b457ec02201e5301affadafbd151db2347891708d1cb654c1870a604f6c950e9ddaac21bbf012103279fe5014f4b10e3b04fe1718e88e7e0ef96118ef8d92d3b1d0d4d112139744d02483045022100861a222b5ecd65ada390ed81ec62e39f86af0157b22da6a5d014e6ffcee019f10220242539b8ae0324d573e702a2ade2dee564d7f1865dd3fd590f059201f86171bc012103279fe5014f4b10e3b04fe1718e88e7e0ef96118ef8d92d3b1d0d4d112139744d0247304402200e43716e1225e6d2eea1942a7450178abd6db4bd9f4998d624d26104a3ae79730220687e1ecd5c79b398f581cfc04d09d40498021b15c74b04a6b278ba20804d4328012103279fe5014f4b10e3b04fe1718e88e7e0ef96118ef8d92d3b1d0d4d112139744d02483045022100857dc46e4e98b4f5f365e6741c705cdc2851b5fa98997b02fe865ec50d7aee2402203f5ea102837b0d28085c8ddbbee5b6476af6a1d05259d97f3ee43de9bdc72d9a012103279fe5014f4b10e3b04fe1718e88e7e0ef96118ef8d92d3b1d0d4d112139744d02483045022100c7512133c9eeb2c2326758fda3cbaa6d8860785defa27298d82225d44b2d381802207ca92291fc6add22458255f2b171fb75af00b9075953106a5e75471aadd0800e012103279fe5014f4b10e3b04fe1718e88e7e0ef96118ef8d92d3b1d0d4d112139744d024730440220667470f71fb92ec24ee9e8978f91c6314844ec9a543631868dca3a940bce313c02203b1d9c333b315a92f38caa4ad35733a026db1e90bdc2d071f647e2895b475577012103279fe5014f4b10e3b04fe1718e88e7e0ef96118ef8d92d3b1d0d4d112139744d02473044022030cbfc353345eee13ca615308d787ccf247379e0bbc22e5b63cb576af94d245502202c1469aeead8ecce886bc7876dfa3884c582632238986067d813c9387bdc4237012103279fe5014f4b10e3b04fe1718e88e7e0ef96118ef8d92d3b1d0d4d112139744d02473044022013b4aebfa3ae212638c697b7daf1d7d5f3b524d61f3fbd8b02c96bebd56f1bf402204e4a32fd21d6ae693159546d1c14c7bfcfc20c4f940aab3e62e9821631dfdfa1012103279fe5014f4b10e3b04fe1718e88e7e0ef96118ef8d92d3b1d0d4d112139744d02473044022004cd9811eafc1324fa51ebe452e6fdd13ac4802063e0ad1cd3c042ee61383ad902203d259794f77a7a33436d5202aaba9697071ef5e7af0a46e9e979bd7db5cee777012103279fe5014f4b10e3b04fe1718e88e7e0ef96118ef8d92d3b1d0d4d112139744d0247304402201259617456c052274ab6b1601b392ed45e7aa57698a8614b624e8d224d3b5a8202204032adc2621b16e78153271f1e2b2cdced172124bc3a1ca7c9c3f16a22aba037012103279fe5014f4b10e3b04fe1718e88e7e0ef96118ef8d92d3b1d0d4d112139744d024730440220124573eeed35e2871eb0c67ad8de082d42e160eb764e2251873bca1408c528c502206fed8b868c3a17f719b36da33f43af360968595cdc38a48e8b73b54db1be6d92012103279fe5014f4b10e3b04fe1718e88e7e0ef96118ef8d92d3b1d0d4d112139744d00000000"
}