{
  "txid": "c8fe90c3b3dbcfb7a7d40925a8f55021a394d1d17007fb753659fd6689f01b9b",
  "version": 2,
  "locktime": 0,
  "vin": [
    {
      "txid": "915a16a80320a34f1ef4fe21721c83d3eda3cfe4b2919e8214218bf869b86987",
      "vout": 1,
      "prevout": {
        "scriptpubkey": "51203a8d5b4b92f1b6320d148eb14aa839d0e01369e7caa862d623a7ae13f85243b6",
        "scriptpubkey_asm": "OP_PUSHNUM_1 OP_PUSHBYTES_32 3a8d5b4b92f1b6320d148eb14aa839d0e01369e7caa862d623a7ae13f85243b6",
        "scriptpubkey_type": "v1_p2tr",
        "scriptpubkey_address": "bc1p82x4kjuj7xmryrg536c542pe6rspx608e25x943r57hp87zjgwmqsfss3v",
        "value": 508726
      },
      "scriptsig": "",
      "scriptsig_asm": "",
      "witness": [
        "9c6986752a90d52ff2df4b1adfef2d9bee8aee166451ba18f6167e4086a754e8119e39a0213fe0082c2207f1210946c0356f4ed24a8e5e2ff2409b48689fe056"
      ],
      "is_coinbase": false,
      "sequence": 4294967295
    }
  ],
  "vout": [
    {
      "scriptpubkey": "5120a6eee652731b84d592ae521b4eb8f39b8988301fc522dd02357baa565b9575a9",
      "scriptpubkey_asm": "OP_PUSHNUM_1 OP_PUSHBYTES_32 a6eee652731b84d592ae521b4eb8f39b8988301fc522dd02357baa565b9575a9",
      "scriptpubkey_type": "v1_p2tr",
      "scriptpubkey_address": "bc1p5mhwv5nnrwzdty4w2gd5aw8nnwycsvqlc53d6q340w49vku4wk5sf3vjvy",
      "value": 100000
    },
    {
      "scriptpubkey": "51203a8d5b4b92f1b6320d148eb14aa839d0e01369e7caa862d623a7ae13f85243b6",
      "scriptpubkey_asm": "OP_PUSHNUM_1 OP_PUSHBYTES_32 3a8d5b4b92f1b6320d148eb14aa839d0e01369e7caa862d623a7ae13f85243b6",
      "scriptpubkey_type": "v1_p2tr",
      "scriptpubkey_address": "bc1p82x4kjuj7xmryrg536c542pe6rspx608e25x943r57hp87zjgwmqsfss3v",
      "value": 407032
    }
  ],
  "size": 205,
  "weight": 616,
  "fee": 1694,
  "status": {
    "confirmed": true,
    "block_height": 834638,
    "block_hash": "000000000000000000025f742c626208ac87e0b7d15054abb4a19ca2d735a54e",
    "block_time": 1710405325
  },
  "hex": "020000000001018769b869f88b2114829e91b2e4cfa3edd3831c7221fef41e4fa32003a8165a910100000000ffffffff02a086010000000000225120a6eee652731b84d592ae521b4eb8f39b8988301fc522dd02357baa565b9575a9f8350600000000002251203a8d5b4b92f1b6320d148eb14aa839d0e01369e7caa862d623a7ae13f85243b601409c6986752a90d52ff2df4b1adfef2d9bee8aee166451ba18f6167e4086a754e8119e39a0213fe0082c2207f1210946c0356f4ed24a8e5e2ff2409b48689fe05600000000"
}