{
  "txid": "c9016fb840750ae7a0aee9135af8f90baa0cadd457d668d431a3b40e17879ff3",
  "version": 1,
  "locktime": 0,
  "vin": [
    {
      "txid": "0e2106b8e60c43f3a4e0af853606f13619e4fedd61bfc33e6fcbed238bf556de",
      "vout": 1,
      "prevout": {
        "scriptpubkey": "0014d8737896eb32cc4aef9180ddf51ee23357809cd3",
        "scriptpubkey_asm": "OP_0 OP_PUSHBYTES_20 d8737896eb32cc4aef9180ddf51ee23357809cd3",
        "scriptpubkey_type": "v0_p2wpkh",
        "scriptpubkey_address": "bc1qmpeh39htxtxy4mu3srwl28hzxdtcp8xn43uufa",
        "value": 1388160
      },
      "scriptsig": "",
      "scriptsig_asm": "",
      "witness": [
        "3045022100c6c6f202fb19ccad7fd40100711aae9d338497ece45de956e77082f320d4c3d602207dcec9c2ac56414b81f5d51d02ce3e0e15f3a94d425620cc0b1fe81c3359c28901",
        "028a61c3f31e774a7d1f1aeee3fa3ff6f2a8b0fc16df80d552e76b251ac6389d9e"
      ],
      "is_coinbase": false,
      "sequence": 0
    }
  ],
  "vout": [
    {
      "scriptpubkey": "a9148d666e2863fb7b20fdec37443c6277e5ef8fdebd87",
      "scriptpubkey_asm": "OP_HASH160 OP_PUSHBYTES_20 8d666e2863fb7b20fdec37443c6277e5ef8fdebd OP_EQUAL",
      "scriptpubkey_type": "p2sh",
      "scriptpubkey_address": "3EafuaFbXLjY7UMuTXxDdWhkeREeApZkVo",
      "value": 410000
    },
    {
      "scriptpubkey": "0014d8737896eb32cc4aef9180ddf51ee23357809cd3",
      "scriptpubkey_asm": "OP_0 OP_PUSHBYTES_20 d8737896eb32cc4aef9180ddf51ee23357809cd3",
      "scriptpubkey_type": "v0_p2wpkh",
      "scriptpubkey_address": "bc1qmpeh39htxtxy4mu3srwl28hzxdtcp8xn43uufa",
      "value": 974326
    }
  ],
  "size": 224,
  "weight": 566,
  "fee": 3834,
  "status": {
    "confirmed": true,
    "block_height": 834638,
    "block_hash": "000000000000000000025f742c626208ac87e0b7d15054abb4a19ca2d735a54e",
    "block_time": 1710405325
  },
  "hex": "01000000000101de56f58b23edcb6f3ec3bf61ddfee41936f1063685afe0a4f3430ce6b806210e01000000000000000002904106000000000017a9148d666e2863fb7b20fdec37443c6277e5ef8fdebd87f6dd0e0000000000160014d8737896eb32cc4aef9180ddf51ee23357809cd302483045022100c6c6f202fb19ccad7fd40100711aae9d338497ece45de956e77082f320d4c3d602207dcec9c2ac56414b81f5d51d02ce3e0e15f3a94d425620cc0b1fe81c3359c2890121028a61c3f31e774a7d1f1aeee3fa3ff6f2a8b0fc16df80d552e76b251ac6389d9e00000000"
}