{
  "txid": "c9015c6ad7f7e59f8fcfb19f87347c9c9285a0356b668f969f3cfd31fd7dfd20",
  "version": 1,
  "locktime": 0,
  "vin": [
    {
      "txid": "3ccb39d5d6c77bbd1936fe0b1a91c38bf73c378e60d539cd8d933b7cef42e21a",
      "vout": 12,
      "prevout": {
        "scriptpubkey": "0014a3b47f41207516c5fe05cda0494993798546794f",
        "scriptpubkey_asm": "OP_0 OP_PUSHBYTES_20 a3b47f41207516c5fe05cda0494993798546794f",
        "scriptpubkey_type": "v0_p2wpkh",
        "scriptpubkey_address": "bc1q5w687sfqw5tvtls9eksyjjvn0xz5v720c8cl5v",
        "value": 110777
      },
      "scriptsig": "",
      "scriptsig_asm": "",
      "witness": [
        "3045022100a1c4beb5ba614847114bc669325ffe63cfc4f5793b2fb5d432b3d82a1ca9c6f402202ac6200b7da5ac2fec5c1b333a5e7b50b9f6690db0fd109ca1190fb41abf405b01",
        "02c880c60cc7312849d36df1e2abe0990f6b33ff2af67a4f20eb106f8ce991d8e3"
      ],
      "is_coinbase": false,
      "sequence": 4294967295
    }
  ],
  "vout": [
    {
      "scriptpubkey": "0014658210a2af3799f35be6f2fe7d0111bc1ec21190",
      "scriptpubkey_asm": "OP_0 OP_PUSHBYTES_20 658210a2af3799f35be6f2fe7d0111bc1ec21190",
      "scriptpubkey_type": "v0_p2wpkh",
      "scriptpubkey_address": "bc1qvkpppg40x7vlxklx7tl86qg3hs0vyyvsluhle4",
      "value": 100000
    },
    {
      "scriptpubkey": "0014a3b47f41207516c5fe05cda0494993798546794f",
      "scriptpubkey_asm": "OP_0 OP_PUSHBYTES_20 a3b47f41207516c5fe05cda0494993798546794f",
      "scriptpubkey_type": "v0_p2wpkh",
      "scriptpubkey_address": "bc1q5w687sfqw5tvtls9eksyjjvn0xz5v720c8cl5v",
      "value": 6970
    }
  ],
  "size": 223,
  "weight": 562,
  "fee": 3807,
  "status": {
    "confirmed": true,
    "block_height": 834552,
    "block_hash": "00000000000000000001dd0468a70c94f619251d286585cff57aeb4bd9ede330",
    "block_time": 1710355598
  },
  "hex": "010000000001011ae242ef7c3b938dcd39d5608e373cf78bc3911a0bfe3619bd7bc7d6d539cb3c0c00000000ffffffff02a086010000000000160014658210a2af3799f35be6f2fe7d0111bc1ec211903a1b000000000000160014a3b47f41207516c5fe05cda0494993798546794f02483045022100a1c4beb5ba614847114bc669325ffe63cfc4f5793b2fb5d432b3d82a1ca9c6f402202ac6200b7da5ac2fec5c1b333a5e7b50b9f6690db0fd109ca1190fb41abf405b012102c880c60cc7312849d36df1e2abe0990f6b33ff2af67a4f20eb106f8ce991d8e300000000"
}