{
  "txid": "c90c24322271762c664ecebc068ee4bb820871b7affd7defdb2ae1bc6a1faad2",
  "version": 2,
  "locktime": 0,
  "vin": [
    {
      "txid": "e6f9df01363b2286d48e612ff15de5d2be33dc9990ec7f6c860f8cf103cc30db",
      "vout": 0,
      "prevout": {
        "scriptpubkey": "512013ba19713df8b14a33ecdf28f55487c47e75321bd24ba17d2b6ed7c69fb8aef3",
        "scriptpubkey_asm": "OP_PUSHNUM_1 OP_PUSHBYTES_32 13ba19713df8b14a33ecdf28f55487c47e75321bd24ba17d2b6ed7c69fb8aef3",
        "scriptpubkey_type": "v1_p2tr",
        "scriptpubkey_address": "bc1pzwapjufalzc55vlvmu5024y8c3l82vsm6f96zlftdmtud8ac4mesuuqfr7",
        "value": 546
      },
      "scriptsig": "",
      "scriptsig_asm": "",
      "witness": [
        "f7ad48df0ce6b676d18ebff97cd0a586ca0ea606b8ad5e5dea3134e0642cedbc8fdb128b81326619b720749ac6c80a7d84834adcd83005bb0c601ac6d5f7e9c2"
      ],
      "is_coinbase": false,
      "sequence": 4294967295
    },
    {
      "txid": "1c99dd459d4c2436ef681e198890b5f452f59a174669c03a0751fc7b0c85ab2f",
      "vout": 1,
      "prevout": {
        "scriptpubkey": "512013ba19713df8b14a33ecdf28f55487c47e75321bd24ba17d2b6ed7c69fb8aef3",
        "scriptpubkey_asm": "OP_PUSHNUM_1 OP_PUSHBYTES_32 13ba19713df8b14a33ecdf28f55487c47e75321bd24ba17d2b6ed7c69fb8aef3",
        "scriptpubkey_type": "v1_p2tr",
        "scriptpubkey_address": "bc1pzwapjufalzc55vlvmu5024y8c3l82vsm6f96zlftdmtud8ac4mesuuqfr7",
        "value": 1844
      },
      "scriptsig": "",
      "scriptsig_asm": "",
      "witness": [
        "c133cf0fa5fab6bcc80dee6cbd4f36543ff492dd25be1a662f26dc9a44ff07eae073b418fad5a3b4d2d9a6ec072bd4558599902404ccdd4bcf541b2e627e57e0"
      ],
      "is_coinbase": false,
      "sequence": 4294967295
    },
    {
      "txid": "e86fbd41c8caa8442eb44133baea4ba33911ce63050351755d8fc2bb2c5c9de7",
      "vout": 0,
      "prevout": {
        "scriptpubkey": "512013ba19713df8b14a33ecdf28f55487c47e75321bd24ba17d2b6ed7c69fb8aef3",
        "scriptpubkey_asm": "OP_PUSHNUM_1 OP_PUSHBYTES_32 13ba19713df8b14a33ecdf28f55487c47e75321bd24ba17d2b6ed7c69fb8aef3",
        "scriptpubkey_type": "v1_p2tr",
        "scriptpubkey_address": "bc1pzwapjufalzc55vlvmu5024y8c3l82vsm6f96zlftdmtud8ac4mesuuqfr7",
        "value": 1200
      },
      "scriptsig": "",
      "scriptsig_asm": "",
      "witness": [
        "247c1efeb4039ff891804cd9834b3563bb952ad0f3b877afb5ae82837d7d2e60526220dfc4bf0351f65fe59b75306ee5f4dd6e3eea2f3df244aae312b0a2d4d2"
      ],
      "is_coinbase": false,
      "sequence": 4294967295
    }
  ],
  "vout": [
    {
      "scriptpubkey": "51202f7e516b6b0a0fd0f78435e19df4238d02243d6e4f1875eb15693da86c650333",
      "scriptpubkey_asm": "OP_PUSHNUM_1 OP_PUSHBYTES_32 2f7e516b6b0a0fd0f78435e19df4238d02243d6e4f1875eb15693da86c650333",
      "scriptpubkey_type": "v1_p2tr",
      "scriptpubkey_address": "bc1p9al9z6mtpg8apauyxhsemapr35pzg0twfuv8t6c4dy76smr9qvesaex378",
      "value": 330
    }
  ],
  "size": 376,
  "weight": 904,
  "fee": 3260,
  "status": {
    "confirmed": true,
    "block_height": 834638,
    "block_hash": "000000000000000000025f742c626208ac87e0b7d15054abb4a19ca2d735a54e",
    "block_time": 1710405325
  },
  "hex": "02000000000103db30cc03f18c0f866c7fec9099dc33bed2e55df12f618ed486223b3601dff9e60000000000ffffffff2fab850c7bfc51073ac06946179af552f4b59088191e68ef36244c9d45dd991c0100000000ffffffffe79d5c2cbbc28f5d7551030563ce1139a34beaba3341b42e44a8cac841bd6fe80000000000ffffffff014a010000000000002251202f7e516b6b0a0fd0f78435e19df4238d02243d6e4f1875eb15693da86c6503330140f7ad48df0ce6b676d18ebff97cd0a586ca0ea606b8ad5e5dea3134e0642cedbc8fdb128b81326619b720749ac6c80a7d84834adcd83005bb0c601ac6d5f7e9c20140c133cf0fa5fab6bcc80dee6cbd4f36543ff492dd25be1a662f26dc9a44ff07eae073b418fad5a3b4d2d9a6ec072bd4558599902404ccdd4bcf541b2e627e57e00140247c1efeb4039ff891804cd9834b3563bb952ad0f3b877afb5ae82837d7d2e60526220dfc4bf0351f65fe59b75306ee5f4dd6e3eea2f3df244aae312b0a2d4d200000000"
}