{
  "txid": "c915d5eaf3f70f36f1e095ec72266acf9c2e363e8a1dea27d6048818b625e0ba",
  "version": 1,
  "locktime": 0,
  "vin": [
    {
      "txid": "80248cb6eb522a6f0eb228fe49ab162a4b4428eb201845eaef47d15056c60da9",
      "vout": 1,
      "prevout": {
        "scriptpubkey": "00144c4b2e102d7bb0884e1319c15b6decf14ae9c85d",
        "scriptpubkey_asm": "OP_0 OP_PUSHBYTES_20 4c4b2e102d7bb0884e1319c15b6decf14ae9c85d",
        "scriptpubkey_type": "v0_p2wpkh",
        "scriptpubkey_address": "bc1qf39juypd0wcgsnsnr8q4km0v799wnjzaye6h0u",
        "value": 254872
      },
      "scriptsig": "",
      "scriptsig_asm": "",
      "witness": [
        "304402204d2924a6edd8bd44694966204c098df80786a74c3ed1132492024786915dc2a402205b0dd31f95641da9b906e64934bb642ca7f3f72db0e5496682cbea50d99a450f01",
        "031bd47a4d6ac66e3fe6803bcb03eda60c4472a217d6bb72a2412903bcf0ba2fb0"
      ],
      "is_coinbase": false,
      "sequence": 4294967295
    }
  ],
  "vout": [
    {
      "scriptpubkey": "a9149743c2945c2a775e8223f55003eea074ce782ffd87",
      "scriptpubkey_asm": "OP_HASH160 OP_PUSHBYTES_20 9743c2945c2a775e8223f55003eea074ce782ffd OP_EQUAL",
      "scriptpubkey_type": "p2sh",
      "scriptpubkey_address": "3FUq8ZbTvTCiU2KWhENDv15mwzFhtnEuV2",
      "value": 130650
    },
    {
      "scriptpubkey": "00144c4b2e102d7bb0884e1319c15b6decf14ae9c85d",
      "scriptpubkey_asm": "OP_0 OP_PUSHBYTES_20 4c4b2e102d7bb0884e1319c15b6decf14ae9c85d",
      "scriptpubkey_type": "v0_p2wpkh",
      "scriptpubkey_address": "bc1qf39juypd0wcgsnsnr8q4km0v799wnjzaye6h0u",
      "value": 120388
    }
  ],
  "size": 223,
  "weight": 565,
  "fee": 3834,
  "status": {
    "confirmed": true,
    "block_height": 834638,
    "block_hash": "000000000000000000025f742c626208ac87e0b7d15054abb4a19ca2d735a54e",
    "block_time": 1710405325
  },
  "hex": "01000000000101a90dc65650d147efea451820eb28444b2a16ab49fe28b20e6f2a52ebb68c24800100000000ffffffff025afe01000000000017a9149743c2945c2a775e8223f55003eea074ce782ffd8744d60100000000001600144c4b2e102d7bb0884e1319c15b6decf14ae9c85d0247304402204d2924a6edd8bd44694966204c098df80786a74c3ed1132492024786915dc2a402205b0dd31f95641da9b906e64934bb642ca7f3f72db0e5496682cbea50d99a450f0121031bd47a4d6ac66e3fe6803bcb03eda60c4472a217d6bb72a2412903bcf0ba2fb000000000"
}