{
  "txid": "c942a46ff02de55dc1a2e6da77ae679fffdf9cfb0f9f4b3582523c4cc74089c9",
  "version": 2,
  "locktime": 0,
  "vin": [
    {
      "txid": "ca49732a8789b812361e997512b66bc3787f1e3ff39f5f0d8b845e09438043f6",
      "vout": 7,
      "prevout": {
        "scriptpubkey": "512017e3f63ae9e49c2138e68ebf52166b32e9d0219ee9d47446261b575381ce215c",
        "scriptpubkey_asm": "OP_PUSHNUM_1 OP_PUSHBYTES_32 17e3f63ae9e49c2138e68ebf52166b32e9d0219ee9d47446261b575381ce215c",
        "scriptpubkey_type": "v1_p2tr",
        "scriptpubkey_address": "bc1pzl3lvwhfujwzzw8x36l4y9ntxt5aqgv7a828g33xrdt48qwwy9wqlc5pnp",
        "value": 2066
      },
      "scriptsig": "",
      "scriptsig_asm": "",
      "witness": [
        "78b8808b3dc5e2eed68d7ad2f66f464bec1ee24c4b84a7967c1d3f05a83fcfedb4fe91fa4c172563cefd701b8cde46bf4df53f9b167c3e9168c6d69bd8dce78d",
        "2011e85127372332018470dcd691aa4faefa035127669b37b285d0319fecc0d931ac0063036f726401010a746578742f706c61696e00367b2270223a226272632d3230222c226f70223a226d696e74222c227469636b223a2261616161222c22616d74223a223130303030227d68",
        "c011e85127372332018470dcd691aa4faefa035127669b37b285d0319fecc0d931"
      ],
      "is_coinbase": false,
      "sequence": 4261412863
    }
  ],
  "vout": [
    {
      "scriptpubkey": "0014b12a255b419b46c01324705abea5fd2949f55051",
      "scriptpubkey_asm": "OP_0 OP_PUSHBYTES_20 b12a255b419b46c01324705abea5fd2949f55051",
      "scriptpubkey_type": "v0_p2wpkh",
      "scriptpubkey_address": "bc1qky4z2k6pndrvqyeywpdtaf0a99yl25z3zp84r6",
      "value": 294
    }
  ],
  "size": 295,
  "weight": 541,
  "fee": 1772,
  "status": {
    "confirmed": true,
    "block_height": 834460,
    "block_hash": "00000000000000000000484a79b643b2524bbce82e5d8a442013fa5b8905ed98",
    "block_time": 1710307468
  },
  "hex": "02000000000101f6438043095e848b0d5f9ff33f1e7f78c36bb61275991e3612b889872a7349ca0700000000fffffffd012601000000000000160014b12a255b419b46c01324705abea5fd2949f55051034078b8808b3dc5e2eed68d7ad2f66f464bec1ee24c4b84a7967c1d3f05a83fcfedb4fe91fa4c172563cefd701b8cde46bf4df53f9b167c3e9168c6d69bd8dce78d6e2011e85127372332018470dcd691aa4faefa035127669b37b285d0319fecc0d931ac0063036f726401010a746578742f706c61696e00367b2270223a226272632d3230222c226f70223a226d696e74222c227469636b223a2261616161222c22616d74223a223130303030227d6821c011e85127372332018470dcd691aa4faefa035127669b37b285d0319fecc0d93100000000"
}