{
  "txid": "c94bc2d1b33fc6bdea57b3008f25f3cac75a82bbe644367b13391ec6eef37e93",
  "version": 1,
  "locktime": 0,
  "vin": [
    {
      "txid": "9f9da35c023fee745d28996ce551f93251c652c2059d6e7f9e9dc1c12ae71a0a",
      "vout": 2,
      "prevout": {
        "scriptpubkey": "0014af57248826c9df36796fca9729ec77d8c5930518",
        "scriptpubkey_asm": "OP_0 OP_PUSHBYTES_20 af57248826c9df36796fca9729ec77d8c5930518",
        "scriptpubkey_type": "v0_p2wpkh",
        "scriptpubkey_address": "bc1q4atjfzpxe80nv7t0e2tjnmrhmrzexpgceyukr3",
        "value": 131110
      },
      "scriptsig": "",
      "scriptsig_asm": "",
      "witness": [
        "304502210092ae0d0ef9b3958ace8f8811f3e13f24bace31ea1cc2026ce3da53e59c53fe3e02201cbef70980f184a0406b725031ce51a4121f01f185e0bcb9679d389ddb6e4ba301",
        "03fee34465b67019c654b99502547f67f52c1cc9524ea2fa1499c36c68efd4d225"
      ],
      "is_coinbase": false,
      "sequence": 4294967295
    }
  ],
  "vout": [
    {
      "scriptpubkey": "001403231406e46fcce54ce7942219c0adb81263d0d0",
      "scriptpubkey_asm": "OP_0 OP_PUSHBYTES_20 03231406e46fcce54ce7942219c0adb81263d0d0",
      "scriptpubkey_type": "v0_p2wpkh",
      "scriptpubkey_address": "bc1qqv33gphydlxw2n88js3pns9dhqfx85xsf7q46m",
      "value": 128930
    }
  ],
  "size": 192,
  "weight": 438,
  "fee": 2180,
  "status": {
    "confirmed": true,
    "block_height": 834638,
    "block_hash": "000000000000000000025f742c626208ac87e0b7d15054abb4a19ca2d735a54e",
    "block_time": 1710405325
  },
  "hex": "010000000001010a1ae72ac1c19d9e7f6e9d05c252c65132f951e56c99285d74ee3f025ca39d9f0200000000ffffffff01a2f701000000000016001403231406e46fcce54ce7942219c0adb81263d0d00248304502210092ae0d0ef9b3958ace8f8811f3e13f24bace31ea1cc2026ce3da53e59c53fe3e02201cbef70980f184a0406b725031ce51a4121f01f185e0bcb9679d389ddb6e4ba3012103fee34465b67019c654b99502547f67f52c1cc9524ea2fa1499c36c68efd4d22500000000"
}