{
  "txid": "c9501a6e552a457437a618e8b39ff96124898010d7048e7ed0936026fb6190bb",
  "version": 2,
  "locktime": 0,
  "vin": [
    {
      "txid": "6066ed4dea29286f0112d410be7b0e4912166b00d4cbce40fc10a6e3bc1c2803",
      "vout": 3,
      "prevout": {
        "scriptpubkey": "5120cf88ba6180c77171969641834199b7eb47a777a7b853b67d6ae8dfbeb2ac77b1",
        "scriptpubkey_asm": "OP_PUSHNUM_1 OP_PUSHBYTES_32 cf88ba6180c77171969641834199b7eb47a777a7b853b67d6ae8dfbeb2ac77b1",
        "scriptpubkey_type": "v1_p2tr",
        "scriptpubkey_address": "bc1pe7yt5cvqcachr95kgxp5rxdhadr6waa8hpfmvlt2ar0mav4vw7csu5ngg7",
        "value": 600
      },
      "scriptsig": "",
      "scriptsig_asm": "",
      "witness": [
        "0bf2b2b2bdb6300dd73981aa813ff68bb7c9568aeff9e158f55dce6a36379bba12e0a636b6b8d6e8499d9293e194b064d294a396d2e7f258c6060615c750057401"
      ],
      "is_coinbase": false,
      "sequence": 4294967295
    },
    {
      "txid": "2bebcfc80d2d3cf4b28f4fadc053f4f7e9bdf295e62bd680fd6802012fd17987",
      "vout": 4,
      "prevout": {
        "scriptpubkey": "5120cf88ba6180c77171969641834199b7eb47a777a7b853b67d6ae8dfbeb2ac77b1",
        "scriptpubkey_asm": "OP_PUSHNUM_1 OP_PUSHBYTES_32 cf88ba6180c77171969641834199b7eb47a777a7b853b67d6ae8dfbeb2ac77b1",
        "scriptpubkey_type": "v1_p2tr",
        "scriptpubkey_address": "bc1pe7yt5cvqcachr95kgxp5rxdhadr6waa8hpfmvlt2ar0mav4vw7csu5ngg7",
        "value": 600
      },
      "scriptsig": "",
      "scriptsig_asm": "",
      "witness": [
        "997e932c0e3f8d69a5d2547c1d7b3ae0f23cbd631a7724ebfa028c3e309488739c655d00240d210d2c2a85006dce9072dee448b1c02c36007b377fe4c30d7afa01"
      ],
      "is_coinbase": false,
      "sequence": 4294967295
    },
    {
      "txid": "15483e3fce9f4e1dbca9ca0287fa187bb09404bc0671a30a2c925c47e5b996cc",
      "vout": 3,
      "prevout": {
        "scriptpubkey": "512026007c65981b50b8ccd2b903132d6d69735482d0225d3ee93b1c05602e2c8530",
        "scriptpubkey_asm": "OP_PUSHNUM_1 OP_PUSHBYTES_32 26007c65981b50b8ccd2b903132d6d69735482d0225d3ee93b1c05602e2c8530",
        "scriptpubkey_type": "v1_p2tr",
        "scriptpubkey_address": "bc1pycq8cevcrdgt3nxjhyp3xttdd9e4fqksyfwna6fmrszkqt3vs5cq76nzj0",
        "value": 546
      },
      "scriptsig": "",
      "scriptsig_asm": "",
      "witness": [
        "b5f35aafb356a72a09d4e0fe29fff7703cdaca154b2cc857e3c172647755848db537968ba463376201f42915b83695a191dbd07688952d5084769350a181bdb583"
      ],
      "is_coinbase": false,
      "sequence": 4294967295
    },
    {
      "txid": "af6a9310d15ff8d5d433c74a27a4557cfc9664236b80f6a71333fad7a7974802",
      "vout": 5,
      "prevout": {
        "scriptpubkey": "5120cf88ba6180c77171969641834199b7eb47a777a7b853b67d6ae8dfbeb2ac77b1",
        "scriptpubkey_asm": "OP_PUSHNUM_1 OP_PUSHBYTES_32 cf88ba6180c77171969641834199b7eb47a777a7b853b67d6ae8dfbeb2ac77b1",
        "scriptpubkey_type": "v1_p2tr",
        "scriptpubkey_address": "bc1pe7yt5cvqcachr95kgxp5rxdhadr6waa8hpfmvlt2ar0mav4vw7csu5ngg7",
        "value": 4453552
      },
      "scriptsig": "",
      "scriptsig_asm": "",
      "witness": [
        "4fc327f95fd1b64d350547dc7f8018e9165447074ba71a78ec9530c388264bcd22234a43ea859b1009426e6c530dd5cb56124214a03aafce803443c2772cc46f01"
      ],
      "is_coinbase": false,
      "sequence": 4294967295
    }
  ],
  "vout": [
    {
      "scriptpubkey": "5120cf88ba6180c77171969641834199b7eb47a777a7b853b67d6ae8dfbeb2ac77b1",
      "scriptpubkey_asm": "OP_PUSHNUM_1 OP_PUSHBYTES_32 cf88ba6180c77171969641834199b7eb47a777a7b853b67d6ae8dfbeb2ac77b1",
      "scriptpubkey_type": "v1_p2tr",
      "scriptpubkey_address": "bc1pe7yt5cvqcachr95kgxp5rxdhadr6waa8hpfmvlt2ar0mav4vw7csu5ngg7",
      "value": 1200
    },
    {
      "scriptpubkey": "5120cf88ba6180c77171969641834199b7eb47a777a7b853b67d6ae8dfbeb2ac77b1",
      "scriptpubkey_asm": "OP_PUSHNUM_1 OP_PUSHBYTES_32 cf88ba6180c77171969641834199b7eb47a777a7b853b67d6ae8dfbeb2ac77b1",
      "scriptpubkey_type": "v1_p2tr",
      "scriptpubkey_address": "bc1pe7yt5cvqcachr95kgxp5rxdhadr6waa8hpfmvlt2ar0mav4vw7csu5ngg7",
      "value": 546
    },
    {
      "scriptpubkey": "512026007c65981b50b8ccd2b903132d6d69735482d0225d3ee93b1c05602e2c8530",
      "scriptpubkey_asm": "OP_PUSHNUM_1 OP_PUSHBYTES_32 26007c65981b50b8ccd2b903132d6d69735482d0225d3ee93b1c05602e2c8530",
      "scriptpubkey_type": "v1_p2tr",
      "scriptpubkey_address": "bc1pycq8cevcrdgt3nxjhyp3xttdd9e4fqksyfwna6fmrszkqt3vs5cq76nzj0",
      "value": 265000
    },
    {
      "scriptpubkey": "5120cf88ba6180c77171969641834199b7eb47a777a7b853b67d6ae8dfbeb2ac77b1",
      "scriptpubkey_asm": "OP_PUSHNUM_1 OP_PUSHBYTES_32 cf88ba6180c77171969641834199b7eb47a777a7b853b67d6ae8dfbeb2ac77b1",
      "scriptpubkey_type": "v1_p2tr",
      "scriptpubkey_address": "bc1pe7yt5cvqcachr95kgxp5rxdhadr6waa8hpfmvlt2ar0mav4vw7csu5ngg7",
      "value": 600
    },
    {
      "scriptpubkey": "5120cf88ba6180c77171969641834199b7eb47a777a7b853b67d6ae8dfbeb2ac77b1",
      "scriptpubkey_asm": "OP_PUSHNUM_1 OP_PUSHBYTES_32 cf88ba6180c77171969641834199b7eb47a777a7b853b67d6ae8dfbeb2ac77b1",
      "scriptpubkey_type": "v1_p2tr",
      "scriptpubkey_address": "bc1pe7yt5cvqcachr95kgxp5rxdhadr6waa8hpfmvlt2ar0mav4vw7csu5ngg7",
      "value": 600
    },
    {
      "scriptpubkey": "5120cf88ba6180c77171969641834199b7eb47a777a7b853b67d6ae8dfbeb2ac77b1",
      "scriptpubkey_asm": "OP_PUSHNUM_1 OP_PUSHBYTES_32 cf88ba6180c77171969641834199b7eb47a777a7b853b67d6ae8dfbeb2ac77b1",
      "scriptpubkey_type": "v1_p2tr",
      "scriptpubkey_address": "bc1pe7yt5cvqcachr95kgxp5rxdhadr6waa8hpfmvlt2ar0mav4vw7csu5ngg7",
      "value": 4179144
    }
  ],
  "size": 702,
  "weight": 1998,
  "fee": 8208,
  "status": {
    "confirmed": true,
    "block_height": 834638,
    "block_hash": "000000000000000000025f742c626208ac87e0b7d15054abb4a19ca2d735a54e",
    "block_time": 1710405325
  },
  "hex": "0200000000010403281cbce3a610fc40cecbd4006b1612490e7bbe10d412016f2829ea4ded66600300000000ffffffff8779d12f010268fd80d62be695f2bde9f7f453c0ad4f8fb2f43c2d0dc8cfeb2b0400000000ffffffffcc96b9e5475c922c0aa37106bc0494b07b18fa8702caa9bc1d4e9fce3f3e48150300000000ffffffff024897a7d7fa3313a7f6806b236496fc7c55a4274ac733d4d5f85fd110936aaf0500000000ffffffff06b004000000000000225120cf88ba6180c77171969641834199b7eb47a777a7b853b67d6ae8dfbeb2ac77b12202000000000000225120cf88ba6180c77171969641834199b7eb47a777a7b853b67d6ae8dfbeb2ac77b1280b04000000000022512026007c65981b50b8ccd2b903132d6d69735482d0225d3ee93b1c05602e2c85305802000000000000225120cf88ba6180c77171969641834199b7eb47a777a7b853b67d6ae8dfbeb2ac77b15802000000000000225120cf88ba6180c77171969641834199b7eb47a777a7b853b67d6ae8dfbeb2ac77b1c8c43f0000000000225120cf88ba6180c77171969641834199b7eb47a777a7b853b67d6ae8dfbeb2ac77b101410bf2b2b2bdb6300dd73981aa813ff68bb7c9568aeff9e158f55dce6a36379bba12e0a636b6b8d6e8499d9293e194b064d294a396d2e7f258c6060615c7500574010141997e932c0e3f8d69a5d2547c1d7b3ae0f23cbd631a7724ebfa028c3e309488739c655d00240d210d2c2a85006dce9072dee448b1c02c36007b377fe4c30d7afa010141b5f35aafb356a72a09d4e0fe29fff7703cdaca154b2cc857e3c172647755848db537968ba463376201f42915b83695a191dbd07688952d5084769350a181bdb58301414fc327f95fd1b64d350547dc7f8018e9165447074ba71a78ec9530c388264bcd22234a43ea859b1009426e6c530dd5cb56124214a03aafce803443c2772cc46f0100000000"
}