{
  "txid": "c960f579dde942f2e40b20bced7823b5ab210742a69bda0f0e698e1551eeb6d9",
  "version": 2,
  "locktime": 0,
  "vin": [
    {
      "txid": "5c3864e3e852ec96346d84fbc3195b536ef1db1891f28d4b48dba69c282b1a0d",
      "vout": 4,
      "prevout": {
        "scriptpubkey": "51201129dc918f337cb7a7cfb4f41caa2eed0b2b63edce2b4f51c8c57c0cf2e3b6c1",
        "scriptpubkey_asm": "OP_PUSHNUM_1 OP_PUSHBYTES_32 1129dc918f337cb7a7cfb4f41caa2eed0b2b63edce2b4f51c8c57c0cf2e3b6c1",
        "scriptpubkey_type": "v1_p2tr",
        "scriptpubkey_address": "bc1pzy5aeyv0xd7t0f70kn6pe23wa59jkcldec4575wgc47qeuhrkmqsqwlfnv",
        "value": 3042
      },
      "scriptsig": "",
      "scriptsig_asm": "",
      "witness": [
        "6bf47078819eea9fbbbd6364783971eaed1ffeec5d5b00dc75eb50eed643da4911e2723d34224fb1e481be9830e3e1e37f95a1e8105f9c2ca8b3e4944fa71ce9",
        "20eff1cec12b9f0e3b103575d151d9d235efd2195567ead00e8c650684e03b80feac0063036f726401011e6170706c69636174696f6e2f6a736f6e3b636861727365743d7574662d38004cd27b2270223a22706f772d3230222c226f70223a226d696e74222c227469636b223a2250455045222c22616d74223a2231303030222c22736f6c7574696f6e223a22504550453a626331703237796d68736b396a36716e706b7367767973363471356663717670646465716a6832716a796c6330793861667138663261727375637776796b3a303030303030303030303030303030303030303139393431613561653132383937363539383134343239323533333030353762306461393666336465613163353a38333635323637393732227d68",
        "c129e6ca6c8c5ab61eaab81da0d3884f0ac7596b050aac6663ac46dee308a1dbc8"
      ],
      "is_coinbase": false,
      "sequence": 4294967295
    }
  ],
  "vout": [
    {
      "scriptpubkey": "51205789bbc2c5968130da086121aa8289c01816b72095d40913f8790fd480e95747",
      "scriptpubkey_asm": "OP_PUSHNUM_1 OP_PUSHBYTES_32 5789bbc2c5968130da086121aa8289c01816b72095d40913f8790fd480e95747",
      "scriptpubkey_type": "v1_p2tr",
      "scriptpubkey_address": "bc1p27ymhsk9j6qnpksgvys64q5fcqvpddeqjh2qjylc0y8afq8f2arsucwvyk",
      "value": 546
    }
  ],
  "size": 486,
  "weight": 768,
  "fee": 2496,
  "status": {
    "confirmed": true,
    "block_height": 834460,
    "block_hash": "00000000000000000000484a79b643b2524bbce82e5d8a442013fa5b8905ed98",
    "block_time": 1710307468
  },
  "hex": "020000000001010d1a2b289ca6db484b8df29118dbf16e535b19c3fb846d3496ec52e8e364385c0400000000ffffffff0122020000000000002251205789bbc2c5968130da086121aa8289c01816b72095d40913f8790fd480e9574703406bf47078819eea9fbbbd6364783971eaed1ffeec5d5b00dc75eb50eed643da4911e2723d34224fb1e481be9830e3e1e37f95a1e8105f9c2ca8b3e4944fa71ce9fd1f0120eff1cec12b9f0e3b103575d151d9d235efd2195567ead00e8c650684e03b80feac0063036f726401011e6170706c69636174696f6e2f6a736f6e3b636861727365743d7574662d38004cd27b2270223a22706f772d3230222c226f70223a226d696e74222c227469636b223a2250455045222c22616d74223a2231303030222c22736f6c7574696f6e223a22504550453a626331703237796d68736b396a36716e706b7367767973363471356663717670646465716a6832716a796c6330793861667138663261727375637776796b3a303030303030303030303030303030303030303139393431613561653132383937363539383134343239323533333030353762306461393666336465613163353a38333635323637393732227d6821c129e6ca6c8c5ab61eaab81da0d3884f0ac7596b050aac6663ac46dee308a1dbc800000000"
}