{
  "txid": "c9636697f07093e1f834bd4e75f1186418072f0ee107fe667a8c3e94a2d4deca",
  "version": 2,
  "locktime": 0,
  "vin": [
    {
      "txid": "a2f5feaffb350572fdbda4927864925b98e69b13583f59d5e8bff35c1a687525",
      "vout": 4,
      "prevout": {
        "scriptpubkey": "5120a80ca7b4bc490cbc96a9128b8e7055ace3b9a05c00f28833d6dde38216d36518",
        "scriptpubkey_asm": "OP_PUSHNUM_1 OP_PUSHBYTES_32 a80ca7b4bc490cbc96a9128b8e7055ace3b9a05c00f28833d6dde38216d36518",
        "scriptpubkey_type": "v1_p2tr",
        "scriptpubkey_address": "bc1p4qx20d9ufyxte94fz29cuuz44n3mngzuqregsv7kmh3cy9knv5vq46qep8",
        "value": 600
      },
      "scriptsig": "",
      "scriptsig_asm": "",
      "witness": [
        "c92538886c20af56f1a621f2b7092a3024a54a416788243010aede29fc86ddcb40eb708d9cd760f6b3638ac13581bcb9f9b22254d350176f773f78f4badbb868"
      ],
      "is_coinbase": false,
      "sequence": 4294967295
    },
    {
      "txid": "a2f5feaffb350572fdbda4927864925b98e69b13583f59d5e8bff35c1a687525",
      "vout": 3,
      "prevout": {
        "scriptpubkey": "5120a80ca7b4bc490cbc96a9128b8e7055ace3b9a05c00f28833d6dde38216d36518",
        "scriptpubkey_asm": "OP_PUSHNUM_1 OP_PUSHBYTES_32 a80ca7b4bc490cbc96a9128b8e7055ace3b9a05c00f28833d6dde38216d36518",
        "scriptpubkey_type": "v1_p2tr",
        "scriptpubkey_address": "bc1p4qx20d9ufyxte94fz29cuuz44n3mngzuqregsv7kmh3cy9knv5vq46qep8",
        "value": 600
      },
      "scriptsig": "",
      "scriptsig_asm": "",
      "witness": [
        "787bf3e423f0959e9db997cb3103173b2f22fed6bb8b3c5e9c0adb034fd1f7dc92a34e9e76f01367b0154416f3f25c5c7f2ffb033d307a6320c1e45d6213d32f"
      ],
      "is_coinbase": false,
      "sequence": 4294967295
    },
    {
      "txid": "ff3d124d8e4b9b1fd17740cbe0daf0c556dbf156163513ff68a86737958ac60e",
      "vout": 0,
      "prevout": {
        "scriptpubkey": "5120418192108c67f4a2bb28e29dfb4375e0b1242d5ed93bd2736245a465d9b54b0b",
        "scriptpubkey_asm": "OP_PUSHNUM_1 OP_PUSHBYTES_32 418192108c67f4a2bb28e29dfb4375e0b1242d5ed93bd2736245a465d9b54b0b",
        "scriptpubkey_type": "v1_p2tr",
        "scriptpubkey_address": "bc1pgxqeyyyvvl629wegu2wlksm4uzcjgt27myaayumzgkjxtkd4fv9sk683dl",
        "value": 546
      },
      "scriptsig": "",
      "scriptsig_asm": "",
      "witness": [
        "88c0e9917d85a3f1b5b4a5621c8d9eabe88b108d70b2732409810800e99e86af8a2b86c0ca9931aa7ff49c3c718ec8467f4b7ca00e4a9aa684c373a9ba39378483"
      ],
      "is_coinbase": false,
      "sequence": 4294967295
    },
    {
      "txid": "6135b37a74b7e0baf4cdf48856fe19b6daf2f3c162f78d1cce9cf53b44d8dbc5",
      "vout": 1,
      "prevout": {
        "scriptpubkey": "5120a80ca7b4bc490cbc96a9128b8e7055ace3b9a05c00f28833d6dde38216d36518",
        "scriptpubkey_asm": "OP_PUSHNUM_1 OP_PUSHBYTES_32 a80ca7b4bc490cbc96a9128b8e7055ace3b9a05c00f28833d6dde38216d36518",
        "scriptpubkey_type": "v1_p2tr",
        "scriptpubkey_address": "bc1p4qx20d9ufyxte94fz29cuuz44n3mngzuqregsv7kmh3cy9knv5vq46qep8",
        "value": 218838
      },
      "scriptsig": "",
      "scriptsig_asm": "",
      "witness": [
        "263fd9870ceddc87abe9fd59c8f5af9b954b4ccfa7c6015852ee3c0756983dc045546f34eb1e40df9fbe7283eb82f5fc4da391f876e5385d624a3331a41e3e0b"
      ],
      "is_coinbase": false,
      "sequence": 4294967295
    }
  ],
  "vout": [
    {
      "scriptpubkey": "5120a80ca7b4bc490cbc96a9128b8e7055ace3b9a05c00f28833d6dde38216d36518",
      "scriptpubkey_asm": "OP_PUSHNUM_1 OP_PUSHBYTES_32 a80ca7b4bc490cbc96a9128b8e7055ace3b9a05c00f28833d6dde38216d36518",
      "scriptpubkey_type": "v1_p2tr",
      "scriptpubkey_address": "bc1p4qx20d9ufyxte94fz29cuuz44n3mngzuqregsv7kmh3cy9knv5vq46qep8",
      "value": 1200
    },
    {
      "scriptpubkey": "5120a80ca7b4bc490cbc96a9128b8e7055ace3b9a05c00f28833d6dde38216d36518",
      "scriptpubkey_asm": "OP_PUSHNUM_1 OP_PUSHBYTES_32 a80ca7b4bc490cbc96a9128b8e7055ace3b9a05c00f28833d6dde38216d36518",
      "scriptpubkey_type": "v1_p2tr",
      "scriptpubkey_address": "bc1p4qx20d9ufyxte94fz29cuuz44n3mngzuqregsv7kmh3cy9knv5vq46qep8",
      "value": 546
    },
    {
      "scriptpubkey": "5120418192108c67f4a2bb28e29dfb4375e0b1242d5ed93bd2736245a465d9b54b0b",
      "scriptpubkey_asm": "OP_PUSHNUM_1 OP_PUSHBYTES_32 418192108c67f4a2bb28e29dfb4375e0b1242d5ed93bd2736245a465d9b54b0b",
      "scriptpubkey_type": "v1_p2tr",
      "scriptpubkey_address": "bc1pgxqeyyyvvl629wegu2wlksm4uzcjgt27myaayumzgkjxtkd4fv9sk683dl",
      "value": 140000
    },
    {
      "scriptpubkey": "5120a80ca7b4bc490cbc96a9128b8e7055ace3b9a05c00f28833d6dde38216d36518",
      "scriptpubkey_asm": "OP_PUSHNUM_1 OP_PUSHBYTES_32 a80ca7b4bc490cbc96a9128b8e7055ace3b9a05c00f28833d6dde38216d36518",
      "scriptpubkey_type": "v1_p2tr",
      "scriptpubkey_address": "bc1p4qx20d9ufyxte94fz29cuuz44n3mngzuqregsv7kmh3cy9knv5vq46qep8",
      "value": 600
    },
    {
      "scriptpubkey": "5120a80ca7b4bc490cbc96a9128b8e7055ace3b9a05c00f28833d6dde38216d36518",
      "scriptpubkey_asm": "OP_PUSHNUM_1 OP_PUSHBYTES_32 a80ca7b4bc490cbc96a9128b8e7055ace3b9a05c00f28833d6dde38216d36518",
      "scriptpubkey_type": "v1_p2tr",
      "scriptpubkey_address": "bc1p4qx20d9ufyxte94fz29cuuz44n3mngzuqregsv7kmh3cy9knv5vq46qep8",
      "value": 600
    },
    {
      "scriptpubkey": "5120a80ca7b4bc490cbc96a9128b8e7055ace3b9a05c00f28833d6dde38216d36518",
      "scriptpubkey_asm": "OP_PUSHNUM_1 OP_PUSHBYTES_32 a80ca7b4bc490cbc96a9128b8e7055ace3b9a05c00f28833d6dde38216d36518",
      "scriptpubkey_type": "v1_p2tr",
      "scriptpubkey_address": "bc1p4qx20d9ufyxte94fz29cuuz44n3mngzuqregsv7kmh3cy9knv5vq46qep8",
      "value": 72149
    }
  ],
  "size": 699,
  "weight": 1995,
  "fee": 5489,
  "status": {
    "confirmed": true,
    "block_height": 834464,
    "block_hash": "0000000000000000000177a0869a911a2b65c9bdcd5a8bcb02b68f305bee848e",
    "block_time": 1710308296
  },
  "hex": "020000000001042575681a5cf3bfe8d5593f58139be6985b92647892a4bdfd720535fbaffef5a20400000000ffffffff2575681a5cf3bfe8d5593f58139be6985b92647892a4bdfd720535fbaffef5a20300000000ffffffff0ec68a953767a868ff13351656f1db56c5f0dae0cb4077d11f9b4b8e4d123dff0000000000ffffffffc5dbd8443bf59cce1c8df762c1f3f2dab619fe5688f4cdf4bae0b7747ab335610100000000ffffffff06b004000000000000225120a80ca7b4bc490cbc96a9128b8e7055ace3b9a05c00f28833d6dde38216d365182202000000000000225120a80ca7b4bc490cbc96a9128b8e7055ace3b9a05c00f28833d6dde38216d36518e022020000000000225120418192108c67f4a2bb28e29dfb4375e0b1242d5ed93bd2736245a465d9b54b0b5802000000000000225120a80ca7b4bc490cbc96a9128b8e7055ace3b9a05c00f28833d6dde38216d365185802000000000000225120a80ca7b4bc490cbc96a9128b8e7055ace3b9a05c00f28833d6dde38216d36518d519010000000000225120a80ca7b4bc490cbc96a9128b8e7055ace3b9a05c00f28833d6dde38216d365180140c92538886c20af56f1a621f2b7092a3024a54a416788243010aede29fc86ddcb40eb708d9cd760f6b3638ac13581bcb9f9b22254d350176f773f78f4badbb8680140787bf3e423f0959e9db997cb3103173b2f22fed6bb8b3c5e9c0adb034fd1f7dc92a34e9e76f01367b0154416f3f25c5c7f2ffb033d307a6320c1e45d6213d32f014188c0e9917d85a3f1b5b4a5621c8d9eabe88b108d70b2732409810800e99e86af8a2b86c0ca9931aa7ff49c3c718ec8467f4b7ca00e4a9aa684c373a9ba393784830140263fd9870ceddc87abe9fd59c8f5af9b954b4ccfa7c6015852ee3c0756983dc045546f34eb1e40df9fbe7283eb82f5fc4da391f876e5385d624a3331a41e3e0b00000000"
}