{
  "txid": "c9773ff2f3dd0a53929155cb426d6837fa87c21993f9b4451233f659cb202134",
  "version": 2,
  "locktime": 0,
  "vin": [
    {
      "txid": "e60d01f1eeee2dbec06ec3a8d448424ca93ea4dcefc453871fc404580cc03558",
      "vout": 9,
      "prevout": {
        "scriptpubkey": "5120141c6da87fffdffca625617ebfa23fab87cc60fd1b8d977f8739acc5ba65da1e",
        "scriptpubkey_asm": "OP_PUSHNUM_1 OP_PUSHBYTES_32 141c6da87fffdffca625617ebfa23fab87cc60fd1b8d977f8739acc5ba65da1e",
        "scriptpubkey_type": "v1_p2tr",
        "scriptpubkey_address": "bc1pzswxm2rlll0lef39v9ltlg3l4wrucc8arwxewlu88xkvtwn9mg0q34qg66",
        "value": 2646
      },
      "scriptsig": "",
      "scriptsig_asm": "",
      "witness": [
        "0730c2cdd315206110885b2f49a87946e54e1c5f128eac71cda4efe7cee8562b40e27b1b83fa4cfe60e48a00b92a05471964d75fa72479cac75c3606b506f8cc",
        "2051c9dc13c4adecd2ddd38b4f4166743583624a51f42ac1688ab4ed3d47c41d36ac0063036f726401011e6170706c69636174696f6e2f6a736f6e3b636861727365743d7574662d38004cb77b2270223a22706f772d3230222c226f70223a226d696e74222c227469636b223a2250455045222c22616d74223a2231303030222c22736f6c7574696f6e223a22504550453a3351345a614567486177466561585773437a6d775a743766465543593771377759703a303030303030303030303030303030303030303139393431613561653132383937363539383134343239323533333030353762306461393666336465613163353a3430363431383337393138227d68",
        "c08db7ab6533b96c0773861c29df1705bf8b1dfa6577ecaa232ec7cdccd60ed417"
      ],
      "is_coinbase": false,
      "sequence": 4294967295
    }
  ],
  "vout": [
    {
      "scriptpubkey": "a914f565ec243898a586d6342e6d91e39b804127827787",
      "scriptpubkey_asm": "OP_HASH160 OP_PUSHBYTES_20 f565ec243898a586d6342e6d91e39b8041278277 OP_EQUAL",
      "scriptpubkey_type": "p2sh",
      "scriptpubkey_address": "3Q4ZaEgHawFeaXWsCzmwZt7fFUCY7q7wYp",
      "value": 546
    }
  ],
  "size": 448,
  "weight": 697,
  "fee": 2100,
  "status": {
    "confirmed": true,
    "block_height": 834460,
    "block_hash": "00000000000000000000484a79b643b2524bbce82e5d8a442013fa5b8905ed98",
    "block_time": 1710307468
  },
  "hex": "020000000001015835c00c5804c41f8753c4efdca43ea94c4248d4a8c36ec0be2deeeef1010de60900000000ffffffff01220200000000000017a914f565ec243898a586d6342e6d91e39b80412782778703400730c2cdd315206110885b2f49a87946e54e1c5f128eac71cda4efe7cee8562b40e27b1b83fa4cfe60e48a00b92a05471964d75fa72479cac75c3606b506f8ccfd04012051c9dc13c4adecd2ddd38b4f4166743583624a51f42ac1688ab4ed3d47c41d36ac0063036f726401011e6170706c69636174696f6e2f6a736f6e3b636861727365743d7574662d38004cb77b2270223a22706f772d3230222c226f70223a226d696e74222c227469636b223a2250455045222c22616d74223a2231303030222c22736f6c7574696f6e223a22504550453a3351345a614567486177466561585773437a6d775a743766465543593771377759703a303030303030303030303030303030303030303139393431613561653132383937363539383134343239323533333030353762306461393666336465613163353a3430363431383337393138227d6821c08db7ab6533b96c0773861c29df1705bf8b1dfa6577ecaa232ec7cdccd60ed41700000000"
}