{
  "txid": "c97af89a9475d93a2aeebe1392d14f1fd44352c3ad3e391d0a8829a084bdd5c3",
  "version": 2,
  "locktime": 834590,
  "vin": [
    {
      "txid": "9943a47e446a9057edac23e79f7de354a43008069ea29959938fdb5a29dac095",
      "vout": 1,
      "prevout": {
        "scriptpubkey": "00141cc3ca31d789de9b57fe14c7a8dfb6265e1cd3ea",
        "scriptpubkey_asm": "OP_0 OP_PUSHBYTES_20 1cc3ca31d789de9b57fe14c7a8dfb6265e1cd3ea",
        "scriptpubkey_type": "v0_p2wpkh",
        "scriptpubkey_address": "bc1qrnpu5vwh380fk4l7znr63hakye0pe5l2eenu9h",
        "value": 1135024
      },
      "scriptsig": "",
      "scriptsig_asm": "",
      "witness": [
        "30440220618801e0c853fd07c9020bf3bfc1a8b90e50bfd020007f97e6953833730f918e022048f1bb5e22e955dae36ef2b54c5ec82b183767a08fb6c16c79ba36761e3918e901",
        "0289942b10f5b8a0a4562fe5f60726886ae4996c135ab73022bcc3ef2141c1dca4"
      ],
      "is_coinbase": false,
      "sequence": 4294967294
    }
  ],
  "vout": [
    {
      "scriptpubkey": "001494752b941d177646691c963bf25589b6e555d29b",
      "scriptpubkey_asm": "OP_0 OP_PUSHBYTES_20 94752b941d177646691c963bf25589b6e555d29b",
      "scriptpubkey_type": "v0_p2wpkh",
      "scriptpubkey_address": "bc1qj36jh9qazamyv6gujcaly4vfkmj4t55my49n4t",
      "value": 1064066
    },
    {
      "scriptpubkey": "001441d9dc0ef91ec5543596eee90e2d42e752ea53d7",
      "scriptpubkey_asm": "OP_0 OP_PUSHBYTES_20 41d9dc0ef91ec5543596eee90e2d42e752ea53d7",
      "scriptpubkey_type": "v0_p2wpkh",
      "scriptpubkey_address": "bc1qg8vacrhermz4gdvkam5sut2zuafw557hlej467",
      "value": 67152
    }
  ],
  "size": 222,
  "weight": 561,
  "fee": 3806,
  "status": {
    "confirmed": true,
    "block_height": 834638,
    "block_hash": "000000000000000000025f742c626208ac87e0b7d15054abb4a19ca2d735a54e",
    "block_time": 1710405325
  },
  "hex": "0200000000010195c0da295adb8f935999a29e060830a454e37d9fe723aced57906a447ea443990100000000feffffff02823c10000000000016001494752b941d177646691c963bf25589b6e555d29b500601000000000016001441d9dc0ef91ec5543596eee90e2d42e752ea53d7024730440220618801e0c853fd07c9020bf3bfc1a8b90e50bfd020007f97e6953833730f918e022048f1bb5e22e955dae36ef2b54c5ec82b183767a08fb6c16c79ba36761e3918e901210289942b10f5b8a0a4562fe5f60726886ae4996c135ab73022bcc3ef2141c1dca41ebc0c00"
}