{
  "txid": "c9890df20d3227e6f78dc9fe43b440a1111fd2ab46e11cb935f2e9a634614cdb",
  "version": 2,
  "locktime": 0,
  "vin": [
    {
      "txid": "b7f7d6b6ce5c0fc6de1d46a44a157767ebd3dba91ade3b4b8408c16f62cabd12",
      "vout": 1,
      "prevout": {
        "scriptpubkey": "001432ea85817add37931688751e293c9de14d2fa3aa",
        "scriptpubkey_asm": "OP_0 OP_PUSHBYTES_20 32ea85817add37931688751e293c9de14d2fa3aa",
        "scriptpubkey_type": "v0_p2wpkh",
        "scriptpubkey_address": "bc1qxt4gtqt6m5mex95gw50zj0yau9xjlga2y8nyjd",
        "value": 166283
      },
      "scriptsig": "",
      "scriptsig_asm": "",
      "witness": [
        "3044022040a390e476c38a03f541c7cc180ee84c700660b077e5b6e18d1264e98eec1ab10220620356e8ee235936db115404f7900c637a81e927ccfa0b1c0ff15ca55ec1a61101",
        "03edb4aef966094e55c2713963bee197e930d2f4b07570ee4d292dea6eb8b2d5d5"
      ],
      "is_coinbase": false,
      "sequence": 4294967295
    }
  ],
  "vout": [
    {
      "scriptpubkey": "a914db185f14b72f19f40080d6dbf136acade73d93ef87",
      "scriptpubkey_asm": "OP_HASH160 OP_PUSHBYTES_20 db185f14b72f19f40080d6dbf136acade73d93ef OP_EQUAL",
      "scriptpubkey_type": "p2sh",
      "scriptpubkey_address": "3MfV6uj1utQnCzHi7NtQN11fR5FFwkVico",
      "value": 164849
    }
  ],
  "size": 192,
  "weight": 441,
  "fee": 1434,
  "status": {
    "confirmed": true,
    "block_height": 834460,
    "block_hash": "00000000000000000000484a79b643b2524bbce82e5d8a442013fa5b8905ed98",
    "block_time": 1710307468
  },
  "hex": "0200000000010112bdca626fc108844b3bde1aa9dbd3eb6777154aa4461ddec60f5cceb6d6f7b70100000000ffffffff01f18302000000000017a914db185f14b72f19f40080d6dbf136acade73d93ef8702473044022040a390e476c38a03f541c7cc180ee84c700660b077e5b6e18d1264e98eec1ab10220620356e8ee235936db115404f7900c637a81e927ccfa0b1c0ff15ca55ec1a611012103edb4aef966094e55c2713963bee197e930d2f4b07570ee4d292dea6eb8b2d5d500000000"
}