{
  "txid": "c98fbd90c7ee9de9231503bcbd9724519b5aa20fd5539e13d83199d89d86eac8",
  "version": 2,
  "locktime": 0,
  "vin": [
    {
      "txid": "0ad82719c5568c4acd81b83e609db57306639901211bd5a5b68a6fc3de4e1473",
      "vout": 7,
      "prevout": {
        "scriptpubkey": "5120d88130e7b107ca0ce797cbcf962bfbf1f9a34a10c63c7ffdcd7e5508d73f9e11",
        "scriptpubkey_asm": "OP_PUSHNUM_1 OP_PUSHBYTES_32 d88130e7b107ca0ce797cbcf962bfbf1f9a34a10c63c7ffdcd7e5508d73f9e11",
        "scriptpubkey_type": "v1_p2tr",
        "scriptpubkey_address": "bc1pmzqnpea3ql9qeeuhe08ev2lm78u6xjsscc78llwd0e2s34elncgs7vanaa",
        "value": 2834
      },
      "scriptsig": "",
      "scriptsig_asm": "",
      "witness": [
        "640270c952bc60975e0dc9dc7dd084809c4ad49d3bcf41686d07f1a04c27bda5a67cb559af29d9696437ec0c1269adc944c319faaf778a328df67d2b3e7379b4",
        "20ef381b288b8f068c531667f67362fdf7dd99b17f8bd15469336e09e7352f579eac0063036f726401011e6170706c69636174696f6e2f6a736f6e3b636861727365743d7574662d38004cbf7b2270223a22706f772d3230222c226f70223a226d696e74222c227469636b223a2250455045222c22616d74223a2231303030222c22736f6c7574696f6e223a22504550453a6263317173637064736c337671777466366a733538786832307637717775716839336e777737783763793a303030303030303030303030303030303030303139393431613561653132383937363539383134343239323533333030353762306461393666336465613163353a3231353730303235333931227d68",
        "c0962df30d9be27fcd73fd9a4053b3728334e273f9929aba028483b2e810075667"
      ],
      "is_coinbase": false,
      "sequence": 4294967295
    }
  ],
  "vout": [
    {
      "scriptpubkey": "00148602d87e2c03969d4a1439aea7b3c0770172c66e",
      "scriptpubkey_asm": "OP_0 OP_PUSHBYTES_20 8602d87e2c03969d4a1439aea7b3c0770172c66e",
      "scriptpubkey_type": "v0_p2wpkh",
      "scriptpubkey_address": "bc1qscpdsl3vqwtf6js58xh20v7qwuqh93nww7x7cy",
      "value": 546
    }
  ],
  "size": 455,
  "weight": 701,
  "fee": 2288,
  "status": {
    "confirmed": true,
    "block_height": 834460,
    "block_hash": "00000000000000000000484a79b643b2524bbce82e5d8a442013fa5b8905ed98",
    "block_time": 1710307468
  },
  "hex": "0200000000010173144edec36f8ab6a5d51b210199630673b59d603eb881cd4a8c56c51927d80a0700000000ffffffff0122020000000000001600148602d87e2c03969d4a1439aea7b3c0770172c66e0340640270c952bc60975e0dc9dc7dd084809c4ad49d3bcf41686d07f1a04c27bda5a67cb559af29d9696437ec0c1269adc944c319faaf778a328df67d2b3e7379b4fd0c0120ef381b288b8f068c531667f67362fdf7dd99b17f8bd15469336e09e7352f579eac0063036f726401011e6170706c69636174696f6e2f6a736f6e3b636861727365743d7574662d38004cbf7b2270223a22706f772d3230222c226f70223a226d696e74222c227469636b223a2250455045222c22616d74223a2231303030222c22736f6c7574696f6e223a22504550453a6263317173637064736c337671777466366a733538786832307637717775716839336e777737783763793a303030303030303030303030303030303030303139393431613561653132383937363539383134343239323533333030353762306461393666336465613163353a3231353730303235333931227d6821c0962df30d9be27fcd73fd9a4053b3728334e273f9929aba028483b2e81007566700000000"
}