{
  "txid": "c9a782f519986779d6f37be3d9309bda4cdfe58e12709c1b4da5e60217ea18a8",
  "version": 2,
  "locktime": 0,
  "vin": [
    {
      "txid": "426f08fbaaacdc4b13cb6f428c89487358ea4dac9ed7948a96cfaa3f67ad9d67",
      "vout": 38,
      "prevout": {
        "scriptpubkey": "512087dcc681f20b17d89db1f5fffa518b2e8761f0b158e096819b4998bad4680995",
        "scriptpubkey_asm": "OP_PUSHNUM_1 OP_PUSHBYTES_32 87dcc681f20b17d89db1f5fffa518b2e8761f0b158e096819b4998bad4680995",
        "scriptpubkey_type": "v1_p2tr",
        "scriptpubkey_address": "bc1pslwvdq0jpvta38d37hll55vt96rkru93trsfdqvmfxvt44rgpx2szzuuqp",
        "value": 4599
      },
      "scriptsig": "",
      "scriptsig_asm": "",
      "witness": [
        "888912a5ade70b60e4c36cce633c3f8bfbbd2301bbe0b14684ab7bb9a8145cf9660de372df6179dde649ddcb83ee630fe5670bd51f315867c2d5e1f4f31c20dc",
        "20369f8ed4ad84542caf91d1b94ff86f5a78df350348b8473c248d0c9e380337ecac0063036f726401011e6170706c69636174696f6e2f6a736f6e3b636861727365743d7574662d38004cd37b2270223a22706f772d3230222c226f70223a226d696e74222c227469636b223a2250455045222c22616d74223a2231303030222c22736f6c7574696f6e223a22504550453a62633170636a65387233733875656e746d64767a6e34777337786d3836367879707535756139357371796877756835616d61677565367a73707a733637713a303030303030303030303030303030303030303139393431613561653132383937363539383134343239323533333030353762306461393666336465613163353a3330393633353334313836227d68",
        "c0039ed2fd528e891a28907036b81ec900320c2b9f26f0b27e7e5cfd0fc9102a4d"
      ],
      "is_coinbase": false,
      "sequence": 4294967295
    }
  ],
  "vout": [
    {
      "scriptpubkey": "5120c4b271c607e666bdb5829d5d0f1b67d68c40f29ce9690012eee5e9ddf51cce85",
      "scriptpubkey_asm": "OP_PUSHNUM_1 OP_PUSHBYTES_32 c4b271c607e666bdb5829d5d0f1b67d68c40f29ce9690012eee5e9ddf51cce85",
      "scriptpubkey_type": "v1_p2tr",
      "scriptpubkey_address": "bc1pcje8r3s8uentmdvzn4ws7xm866xypu5ua95sqyhwuh5amague6zspzs67q",
      "value": 546
    }
  ],
  "size": 487,
  "weight": 769,
  "fee": 4053,
  "status": {
    "confirmed": true,
    "block_height": 834460,
    "block_hash": "00000000000000000000484a79b643b2524bbce82e5d8a442013fa5b8905ed98",
    "block_time": 1710307468
  },
  "hex": "02000000000101679dad673faacf968a94d79eac4dea587348898c426fcb134bdcacaafb086f422600000000ffffffff012202000000000000225120c4b271c607e666bdb5829d5d0f1b67d68c40f29ce9690012eee5e9ddf51cce850340888912a5ade70b60e4c36cce633c3f8bfbbd2301bbe0b14684ab7bb9a8145cf9660de372df6179dde649ddcb83ee630fe5670bd51f315867c2d5e1f4f31c20dcfd200120369f8ed4ad84542caf91d1b94ff86f5a78df350348b8473c248d0c9e380337ecac0063036f726401011e6170706c69636174696f6e2f6a736f6e3b636861727365743d7574662d38004cd37b2270223a22706f772d3230222c226f70223a226d696e74222c227469636b223a2250455045222c22616d74223a2231303030222c22736f6c7574696f6e223a22504550453a62633170636a65387233733875656e746d64767a6e34777337786d3836367879707535756139357371796877756835616d61677565367a73707a733637713a303030303030303030303030303030303030303139393431613561653132383937363539383134343239323533333030353762306461393666336465613163353a3330393633353334313836227d6821c0039ed2fd528e891a28907036b81ec900320c2b9f26f0b27e7e5cfd0fc9102a4d00000000"
}