{
  "txid": "c9a8d134418a07fa92a86bde0bf248fbbb6b0295d0913d0286c831c4a96825f2",
  "version": 1,
  "locktime": 0,
  "vin": [
    {
      "txid": "e6857758ba9dc4699c8296ec752ac97a8e493c7b8a015296c4e68d145de221f5",
      "vout": 1,
      "prevout": {
        "scriptpubkey": "76a9142ec291b8cbd82b27a22ec22bd87cba8f9d3972ef88ac",
        "scriptpubkey_asm": "OP_DUP OP_HASH160 OP_PUSHBYTES_20 2ec291b8cbd82b27a22ec22bd87cba8f9d3972ef OP_EQUALVERIFY OP_CHECKSIG",
        "scriptpubkey_type": "p2pkh",
        "scriptpubkey_address": "15GFAjQApLCeFtem6xYzuTf6vM9XyECpHJ",
        "value": 3491
      },
      "scriptsig": "483045022100f2dc88473d6637cc59a41e90cbc411c6f928d77fb88723f58911c447b7b2728d02204d5fb3d44a6086e519f6cfefba98258078ba7451d1ed5559372e8030ec533374012103feb09e67af012da6c92fd5498bf1f62ab2372c0b28a50538f52e3c208c5b0797",
      "scriptsig_asm": "OP_PUSHBYTES_72 3045022100f2dc88473d6637cc59a41e90cbc411c6f928d77fb88723f58911c447b7b2728d02204d5fb3d44a6086e519f6cfefba98258078ba7451d1ed5559372e8030ec53337401 OP_PUSHBYTES_33 03feb09e67af012da6c92fd5498bf1f62ab2372c0b28a50538f52e3c208c5b0797",
      "is_coinbase": false,
      "sequence": 4294967295
    },
    {
      "txid": "f5a3d7ecbdf15f95dcbdc122bd2a72c9fcfaf1bde797feb391e1da6328cbcbb5",
      "vout": 1,
      "prevout": {
        "scriptpubkey": "76a9146d091d2ddc9a5f1c41cddd744ef4e6c1e254e9a788ac",
        "scriptpubkey_asm": "OP_DUP OP_HASH160 OP_PUSHBYTES_20 6d091d2ddc9a5f1c41cddd744ef4e6c1e254e9a7 OP_EQUALVERIFY OP_CHECKSIG",
        "scriptpubkey_type": "p2pkh",
        "scriptpubkey_address": "1AwXaAHJtWQQTEPn5mwi7zomQK8Dh17237",
        "value": 3898
      },
      "scriptsig": "47304402201d142f778bf61ecb4faae587758ccd2c1372dedfd5510bdfbccb59cb33db6033022002efa960020660b85697e8faf86cf58b8e0efad32b8d6289249d6d4d8b10e2e8012102dd307b5d07761f6cba7e1ca29df3d6e80661a0ed4ddf36236974fd9c90a72140",
      "scriptsig_asm": "OP_PUSHBYTES_71 304402201d142f778bf61ecb4faae587758ccd2c1372dedfd5510bdfbccb59cb33db6033022002efa960020660b85697e8faf86cf58b8e0efad32b8d6289249d6d4d8b10e2e801 OP_PUSHBYTES_33 02dd307b5d07761f6cba7e1ca29df3d6e80661a0ed4ddf36236974fd9c90a72140",
      "is_coinbase": false,
      "sequence": 4294967295
    },
    {
      "txid": "dd8f10ae99f3c22d5a163dda70e3f766181c86492145b2adccd8ec5044be0cf0",
      "vout": 1,
      "prevout": {
        "scriptpubkey": "76a914b7ab5168989e06c77c66afc21210a041337d70f088ac",
        "scriptpubkey_asm": "OP_DUP OP_HASH160 OP_PUSHBYTES_20 b7ab5168989e06c77c66afc21210a041337d70f0 OP_EQUALVERIFY OP_CHECKSIG",
        "scriptpubkey_type": "p2pkh",
        "scriptpubkey_address": "1Hk9tVL8KrJxFx1e5W1tEjeJLjE8Ti84wn",
        "value": 4439
      },
      "scriptsig": "47304402206fec4592f5305fdbd9d6219bcc4763d0c21cf40dd9657d0744dd30ab3123121e0220240292e03cb9eec78bace9bcf4cef81a2d28b27ec9834f17d81efed91c608251012103555b1ef4771413c4890f0384fdc736e8440b1e784ceb3536ce11f0ca024e6505",
      "scriptsig_asm": "OP_PUSHBYTES_71 304402206fec4592f5305fdbd9d6219bcc4763d0c21cf40dd9657d0744dd30ab3123121e0220240292e03cb9eec78bace9bcf4cef81a2d28b27ec9834f17d81efed91c60825101 OP_PUSHBYTES_33 03555b1ef4771413c4890f0384fdc736e8440b1e784ceb3536ce11f0ca024e6505",
      "is_coinbase": false,
      "sequence": 4294967295
    },
    {
      "txid": "b342513ba65118cfcc8ee70d727357998b554b405d780fb3a5719d6b84bde7e2",
      "vout": 1,
      "prevout": {
        "scriptpubkey": "76a914961be04f17a2a67ad90caa9628ad9ae2b422276888ac",
        "scriptpubkey_asm": "OP_DUP OP_HASH160 OP_PUSHBYTES_20 961be04f17a2a67ad90caa9628ad9ae2b4222768 OP_EQUALVERIFY OP_CHECKSIG",
        "scriptpubkey_type": "p2pkh",
        "scriptpubkey_address": "1EghkeYkodK6raM7zeCVbtxhiBPR24CmCw",
        "value": 5481
      },
      "scriptsig": "47304402206347349acdb756c221ffae46d0093c11fe1d655563ebdd6ceda5ba4e9ff9149b02201207d1eaf9179977509a8c9913228b6d9e6f0d608f33032b63acd6fe54dc5cd601210208d4e35fd247e5ce811c596dd12f97763c267b869ddab65be54b87290303cda3",
      "scriptsig_asm": "OP_PUSHBYTES_71 304402206347349acdb756c221ffae46d0093c11fe1d655563ebdd6ceda5ba4e9ff9149b02201207d1eaf9179977509a8c9913228b6d9e6f0d608f33032b63acd6fe54dc5cd601 OP_PUSHBYTES_33 0208d4e35fd247e5ce811c596dd12f97763c267b869ddab65be54b87290303cda3",
      "is_coinbase": false,
      "sequence": 4294967295
    },
    {
      "txid": "3acf018f2c42df6bdb83184c5a30e28f7d61986eb3cad23a174c3897b1b62cce",
      "vout": 1,
      "prevout": {
        "scriptpubkey": "76a9140e1f031f4e1468894aa7ebfb39ebf6da25b65cc588ac",
        "scriptpubkey_asm": "OP_DUP OP_HASH160 OP_PUSHBYTES_20 0e1f031f4e1468894aa7ebfb39ebf6da25b65cc5 OP_EQUALVERIFY OP_CHECKSIG",
        "scriptpubkey_type": "p2pkh",
        "scriptpubkey_address": "12HfcT9XGx65GXRQY2WLaKEvXNwAymC8oB",
        "value": 5485
      },
      "scriptsig": "4730440220660ba3ac6366acd03adb118726b5df301c02e36e1a1e1ac8cda17398d8127ed202202087f28b19f371a1f49b7700084977b78276065450ec22fa295373c9667aad39012102ec5c36b84f892bef58a5a056ec01b972962c49f23c2add6709adccb09f68b986",
      "scriptsig_asm": "OP_PUSHBYTES_71 30440220660ba3ac6366acd03adb118726b5df301c02e36e1a1e1ac8cda17398d8127ed202202087f28b19f371a1f49b7700084977b78276065450ec22fa295373c9667aad3901 OP_PUSHBYTES_33 02ec5c36b84f892bef58a5a056ec01b972962c49f23c2add6709adccb09f68b986",
      "is_coinbase": false,
      "sequence": 4294967295
    },
    {
      "txid": "b576a589e45ea8f3473807653a221a011c8b0e823b27f363ac7fb22fe31727db",
      "vout": 1,
      "prevout": {
        "scriptpubkey": "76a914610bc2d7b8d39ee884768088ed00f2e36671de3488ac",
        "scriptpubkey_asm": "OP_DUP OP_HASH160 OP_PUSHBYTES_20 610bc2d7b8d39ee884768088ed00f2e36671de34 OP_EQUALVERIFY OP_CHECKSIG",
        "scriptpubkey_type": "p2pkh",
        "scriptpubkey_address": "19r8dnSLUkngXVHhMTdJc7gVAqURvt5cSQ",
        "value": 5702
      },
      "scriptsig": "48304502210099cbc05eb78917a3c61f1b63abc5bc16dda98452751cd802523b1442d6f167d102202a6c3b6f714a71c3b5aef33120d579f636713fba0981a8ec963540b0662ea6a2012102dedd871467a6be6e2a510326c9a8588ce66714ba2f892f718cf9ddf2c2bfeb57",
      "scriptsig_asm": "OP_PUSHBYTES_72 304502210099cbc05eb78917a3c61f1b63abc5bc16dda98452751cd802523b1442d6f167d102202a6c3b6f714a71c3b5aef33120d579f636713fba0981a8ec963540b0662ea6a201 OP_PUSHBYTES_33 02dedd871467a6be6e2a510326c9a8588ce66714ba2f892f718cf9ddf2c2bfeb57",
      "is_coinbase": false,
      "sequence": 4294967295
    }
  ],
  "vout": [
    {
      "scriptpubkey": "001488d9d09264a12f65a6cbaa73ebcd99fa87eca6d6",
      "scriptpubkey_asm": "OP_0 OP_PUSHBYTES_20 88d9d09264a12f65a6cbaa73ebcd99fa87eca6d6",
      "scriptpubkey_type": "v0_p2wpkh",
      "scriptpubkey_address": "bc1q3rvapyny5yhktfkt4fe7hnvel2r7efkk0jlg0q",
      "value": 18457
    }
  ],
  "size": 925,
  "weight": 3700,
  "fee": 10039,
  "status": {
    "confirmed": true,
    "block_height": 834464,
    "block_hash": "0000000000000000000177a0869a911a2b65c9bdcd5a8bcb02b68f305bee848e",
    "block_time": 1710308296
  },
  "hex": "0100000006f521e25d148de6c49652018a7b3c498e7ac92a75ec96829c69c49dba587785e6010000006b483045022100f2dc88473d6637cc59a41e90cbc411c6f928d77fb88723f58911c447b7b2728d02204d5fb3d44a6086e519f6cfefba98258078ba7451d1ed5559372e8030ec533374012103feb09e67af012da6c92fd5498bf1f62ab2372c0b28a50538f52e3c208c5b0797ffffffffb5cbcb2863dae191b3fe97e7bdf1fafcc9722abd22c1bddc955ff1bdecd7a3f5010000006a47304402201d142f778bf61ecb4faae587758ccd2c1372dedfd5510bdfbccb59cb33db6033022002efa960020660b85697e8faf86cf58b8e0efad32b8d6289249d6d4d8b10e2e8012102dd307b5d07761f6cba7e1ca29df3d6e80661a0ed4ddf36236974fd9c90a72140fffffffff00cbe4450ecd8ccadb2452149861c1866f7e370da3d165a2dc2f399ae108fdd010000006a47304402206fec4592f5305fdbd9d6219bcc4763d0c21cf40dd9657d0744dd30ab3123121e0220240292e03cb9eec78bace9bcf4cef81a2d28b27ec9834f17d81efed91c608251012103555b1ef4771413c4890f0384fdc736e8440b1e784ceb3536ce11f0ca024e6505ffffffffe2e7bd846b9d71a5b30f785d404b558b995773720de78ecccf1851a63b5142b3010000006a47304402206347349acdb756c221ffae46d0093c11fe1d655563ebdd6ceda5ba4e9ff9149b02201207d1eaf9179977509a8c9913228b6d9e6f0d608f33032b63acd6fe54dc5cd601210208d4e35fd247e5ce811c596dd12f97763c267b869ddab65be54b87290303cda3ffffffffce2cb6b197384c173ad2cab36e98617d8fe2305a4c1883db6bdf422c8f01cf3a010000006a4730440220660ba3ac6366acd03adb118726b5df301c02e36e1a1e1ac8cda17398d8127ed202202087f28b19f371a1f49b7700084977b78276065450ec22fa295373c9667aad39012102ec5c36b84f892bef58a5a056ec01b972962c49f23c2add6709adccb09f68b986ffffffffdb2717e32fb27fac63f3273b820e8b1c011a223a65073847f3a85ee489a576b5010000006b48304502210099cbc05eb78917a3c61f1b63abc5bc16dda98452751cd802523b1442d6f167d102202a6c3b6f714a71c3b5aef33120d579f636713fba0981a8ec963540b0662ea6a2012102dedd871467a6be6e2a510326c9a8588ce66714ba2f892f718cf9ddf2c2bfeb57ffffffff01194800000000000016001488d9d09264a12f65a6cbaa73ebcd99fa87eca6d600000000"
}