{
  "txid": "c9ade905c330beba2e75418d2b41e589630104465748217220c87fbe466ba118",
  "version": 2,
  "locktime": 0,
  "vin": [
    {
      "txid": "ebac93cc48e8dc82949839d125c6432843bf652ca9deca69d3cb1ccf35159c77",
      "vout": 1,
      "prevout": {
        "scriptpubkey": "00146fce0d43abb3a905d2f7fa9a3ee0e2965ddc71db",
        "scriptpubkey_asm": "OP_0 OP_PUSHBYTES_20 6fce0d43abb3a905d2f7fa9a3ee0e2965ddc71db",
        "scriptpubkey_type": "v0_p2wpkh",
        "scriptpubkey_address": "bc1qdl8q6satkw5st5hhl2drac8zjewacuwmtrg53f",
        "value": 79620952
      },
      "scriptsig": "",
      "scriptsig_asm": "",
      "witness": [
        "3045022100ef9b597d99c0e787e67d647e569152004ecb64e8154dcbe0794e62a3680c6d11022030633158ad28c67875a4f7044f81f4ec9dca5a800303c6759dde6f2879089db401",
        "02a087cc3c83e4d131ab8d29fbedc2453847cc9681da2b350d7e2453098827702a"
      ],
      "is_coinbase": false,
      "sequence": 4294967293
    }
  ],
  "vout": [
    {
      "scriptpubkey": "00148f7022cb44ee8d90b6306a06e0397481affa738b",
      "scriptpubkey_asm": "OP_0 OP_PUSHBYTES_20 8f7022cb44ee8d90b6306a06e0397481affa738b",
      "scriptpubkey_type": "v0_p2wpkh",
      "scriptpubkey_address": "bc1q3acz9j6ya6xepd3sdgrwqwt5sxhl5uutvnwtjy",
      "value": 1516478
    },
    {
      "scriptpubkey": "0014df45063fbbe6c2420d697c6324eb097aeea6d7ef",
      "scriptpubkey_asm": "OP_0 OP_PUSHBYTES_20 df45063fbbe6c2420d697c6324eb097aeea6d7ef",
      "scriptpubkey_type": "v0_p2wpkh",
      "scriptpubkey_address": "bc1qmazsv0amumpyyrtf033jf6cf0th2d4l09n2fdv",
      "value": 78102230
    }
  ],
  "size": 223,
  "weight": 562,
  "fee": 2244,
  "status": {
    "confirmed": true,
    "block_height": 834638,
    "block_hash": "000000000000000000025f742c626208ac87e0b7d15054abb4a19ca2d735a54e",
    "block_time": 1710405325
  },
  "hex": "02000000000101779c1535cf1ccbd369cadea92c65bf432843c625d139989482dce848cc93aceb0100000000fdffffff02be231700000000001600148f7022cb44ee8d90b6306a06e0397481affa738bd6bea70400000000160014df45063fbbe6c2420d697c6324eb097aeea6d7ef02483045022100ef9b597d99c0e787e67d647e569152004ecb64e8154dcbe0794e62a3680c6d11022030633158ad28c67875a4f7044f81f4ec9dca5a800303c6759dde6f2879089db4012102a087cc3c83e4d131ab8d29fbedc2453847cc9681da2b350d7e2453098827702a00000000"
}