{
  "txid": "c9ada5d0986afcb20dd19d686a63e09e1de09264e47d1966ccfeaba69de26c80",
  "version": 1,
  "locktime": 0,
  "vin": [
    {
      "txid": "b07142ce94b17431faf6f2378f2d343564ecc7d83210532b91b29a5d45ed402e",
      "vout": 0,
      "prevout": {
        "scriptpubkey": "512073aacdbdaa6876d9bc5a7b724831c0813723846dc27cb2349f5b46bf30201b90",
        "scriptpubkey_asm": "OP_PUSHNUM_1 OP_PUSHBYTES_32 73aacdbdaa6876d9bc5a7b724831c0813723846dc27cb2349f5b46bf30201b90",
        "scriptpubkey_type": "v1_p2tr",
        "scriptpubkey_address": "bc1pww4vm0d2dpmdn0z60deysvwqsymj8prdcf7tydyltdrt7vpqrwgqjjl5fh",
        "value": 5000
      },
      "scriptsig": "",
      "scriptsig_asm": "",
      "witness": [
        "ee4e72e5ee3b9e5a6e8b6faa5d0e0a6b88da4fd493aef6723604de28386022ab48fb3cf2fae3fa691871d678017d17e7e767dfeb07821b38f43c0d8afa43498701"
      ],
      "is_coinbase": false,
      "sequence": 4294967295
    },
    {
      "txid": "a15a3eed9cb9985858badab65e1bd5d3d578ba2fc9f89ad091d1ddb27077c98c",
      "vout": 0,
      "prevout": {
        "scriptpubkey": "5120ec691b1cfab1df3cc98ac84868667161efb4d1ca29603755b05fe82880066870",
        "scriptpubkey_asm": "OP_PUSHNUM_1 OP_PUSHBYTES_32 ec691b1cfab1df3cc98ac84868667161efb4d1ca29603755b05fe82880066870",
        "scriptpubkey_type": "v1_p2tr",
        "scriptpubkey_address": "bc1pa353k886k80nejv2epyxsen3v8hmf5w299srw4dstl5z3qqxdpcq05vejw",
        "value": 1552
      },
      "scriptsig": "",
      "scriptsig_asm": "",
      "witness": [
        "982a91cd1eee5fb5af6e158b3dc32052c52ffaa8fd2c7514048db9992f1a48cf2af4fddce00b86479e9cc5b695d42e59717338f8c574237b6e31e3e6330f987901"
      ],
      "is_coinbase": false,
      "sequence": 4294967295
    },
    {
      "txid": "e99054e042e569d9046cb8508a16ea7353e7be15d2d5b96608d631e1f4a0a1ea",
      "vout": 0,
      "prevout": {
        "scriptpubkey": "512023ac86bb9acace148aa744b4649d484b6ed260f11d6a81ef8a4904b9ee6ab838",
        "scriptpubkey_asm": "OP_PUSHNUM_1 OP_PUSHBYTES_32 23ac86bb9acace148aa744b4649d484b6ed260f11d6a81ef8a4904b9ee6ab838",
        "scriptpubkey_type": "v1_p2tr",
        "scriptpubkey_address": "bc1pywkgdwu6et8pfz48gj6xf82gfdhdyc83r44grmu2fyztnmn2hquqy6r0nt",
        "value": 5000
      },
      "scriptsig": "",
      "scriptsig_asm": "",
      "witness": [
        "9a123ff98b96535890a383d1ef4fbfd3613a156903a333da12c6336cfd07e62deb8ca821edf77421a28e0a176467acac0046a39b39499a53c1f2a1bd7766037c01"
      ],
      "is_coinbase": false,
      "sequence": 4294967295
    },
    {
      "txid": "c1828e75b7e339c434569a198499d904bd494eb5637181f6cee941de737366eb",
      "vout": 0,
      "prevout": {
        "scriptpubkey": "512007226f674d8b4dd6c2c1eeb55639f5e65a77ffa30d83c82ba772fb04879a46de",
        "scriptpubkey_asm": "OP_PUSHNUM_1 OP_PUSHBYTES_32 07226f674d8b4dd6c2c1eeb55639f5e65a77ffa30d83c82ba772fb04879a46de",
        "scriptpubkey_type": "v1_p2tr",
        "scriptpubkey_address": "bc1pqu3x7e6d3dxadskpa664vw04ued80larpkpus2a8wtasfpu6gm0qd5nuhc",
        "value": 2500
      },
      "scriptsig": "",
      "scriptsig_asm": "",
      "witness": [
        "dfc4781b960e1683d01a8ecacaf87a4536840652366d9b63e42abb5606ee9177a8a93d77571ca33ec7ee987c9d88c63fb9e2db1222a327d4e0602b5cbb13617f01"
      ],
      "is_coinbase": false,
      "sequence": 4294967295
    },
    {
      "txid": "5984b8d3ee428482b2feb81822b06da567de01c19652ff8593e71c004bd68633",
      "vout": 0,
      "prevout": {
        "scriptpubkey": "5120dc262fb2484a08f2cc24be709e0be996c0be19fb559db933e63bfbb24301e114",
        "scriptpubkey_asm": "OP_PUSHNUM_1 OP_PUSHBYTES_32 dc262fb2484a08f2cc24be709e0be996c0be19fb559db933e63bfbb24301e114",
        "scriptpubkey_type": "v1_p2tr",
        "scriptpubkey_address": "bc1pmsnzlvjgfgy09npyhecfuzlfjmqtux0m2kwmjvlx80amyscpuy2qhnzpsa",
        "value": 2500
      },
      "scriptsig": "",
      "scriptsig_asm": "",
      "witness": [
        "58efb98b20b2428cb3fb995b33ba11770e55a3e8d9fa75c2dcf642b5b477e9034817857327b46223a8d853e29245d3fe8306fc65c8493219537b69175f3d02a301"
      ],
      "is_coinbase": false,
      "sequence": 4294967295
    }
  ],
  "vout": [
    {
      "scriptpubkey": "5120c909cf71e04a89510a5c16241a38e985b905ad2b3fb8be08f51bbdbda0a80804",
      "scriptpubkey_asm": "OP_PUSHNUM_1 OP_PUSHBYTES_32 c909cf71e04a89510a5c16241a38e985b905ad2b3fb8be08f51bbdbda0a80804",
      "scriptpubkey_type": "v1_p2tr",
      "scriptpubkey_address": "bc1peyyu7u0qf2y4zzjuzcjp5w8fskusttft87utuz84rw7mmg9gpqzql0hn43",
      "value": 1612
    },
    {
      "scriptpubkey": "0014dc2d1c2418f3c22463073d798e38b94481c5c0f7",
      "scriptpubkey_asm": "OP_0 OP_PUSHBYTES_20 dc2d1c2418f3c22463073d798e38b94481c5c0f7",
      "scriptpubkey_type": "v0_p2wpkh",
      "scriptpubkey_address": "bc1qmsk3cfqc70pzgcc884ucuw9egjquts8hx3vyp4",
      "value": 10865
    }
  ],
  "size": 626,
  "weight": 1493,
  "fee": 4075,
  "status": {
    "confirmed": true,
    "block_height": 834464,
    "block_hash": "0000000000000000000177a0869a911a2b65c9bdcd5a8bcb02b68f305bee848e",
    "block_time": 1710308296
  },
  "hex": "010000000001052e40ed455d9ab2912b531032d8c7ec6435342d8f37f2f6fa3174b194ce4271b00000000000ffffffff8cc97770b2ddd191d09af8c92fba78d5d3d51b5eb6daba585898b99ced3e5aa10000000000ffffffffeaa1a0f4e131d60866b9d5d215bee75373ea168a50b86c04d969e542e05490e90000000000ffffffffeb667373de41e9cef6817163b54e49bd04d99984199a5634c439e3b7758e82c10000000000ffffffff3386d64b001ce79385ff5296c101de67a56db02218b8feb2828442eed3b884590000000000ffffffff024c06000000000000225120c909cf71e04a89510a5c16241a38e985b905ad2b3fb8be08f51bbdbda0a80804712a000000000000160014dc2d1c2418f3c22463073d798e38b94481c5c0f70141ee4e72e5ee3b9e5a6e8b6faa5d0e0a6b88da4fd493aef6723604de28386022ab48fb3cf2fae3fa691871d678017d17e7e767dfeb07821b38f43c0d8afa434987010141982a91cd1eee5fb5af6e158b3dc32052c52ffaa8fd2c7514048db9992f1a48cf2af4fddce00b86479e9cc5b695d42e59717338f8c574237b6e31e3e6330f98790101419a123ff98b96535890a383d1ef4fbfd3613a156903a333da12c6336cfd07e62deb8ca821edf77421a28e0a176467acac0046a39b39499a53c1f2a1bd7766037c010141dfc4781b960e1683d01a8ecacaf87a4536840652366d9b63e42abb5606ee9177a8a93d77571ca33ec7ee987c9d88c63fb9e2db1222a327d4e0602b5cbb13617f01014158efb98b20b2428cb3fb995b33ba11770e55a3e8d9fa75c2dcf642b5b477e9034817857327b46223a8d853e29245d3fe8306fc65c8493219537b69175f3d02a30100000000"
}