{
  "txid": "c9d98f855abaf44eb18cea9077d2aa7f809ea4cae3a38aed3bb5805d5badb4f3",
  "version": 2,
  "locktime": 0,
  "vin": [
    {
      "txid": "d2a72cf09b1bdba6fe841a339981a70ada405ab07c615633fa9f83358d488b0c",
      "vout": 0,
      "prevout": {
        "scriptpubkey": "51203d3518672af381ca4eba998ee176c6d53500bed5b8a10cc9dbe23b2e4fe2b9e7",
        "scriptpubkey_asm": "OP_PUSHNUM_1 OP_PUSHBYTES_32 3d3518672af381ca4eba998ee176c6d53500bed5b8a10cc9dbe23b2e4fe2b9e7",
        "scriptpubkey_type": "v1_p2tr",
        "scriptpubkey_address": "bc1p8563see27wqu5n46nx8wzakx656sp0k4hzssejwmugajunlzh8nsgkkrap",
        "value": 546
      },
      "scriptsig": "",
      "scriptsig_asm": "",
      "witness": [
        "4ccf1e26625e23256e433689b3f7e0484908b47ae89c6595bcd2e32b95b6d03774e995e9316e617ef51dd084b2543e011b57157425b70d1107d2579fd74577da"
      ],
      "is_coinbase": false,
      "sequence": 2147483649
    },
    {
      "txid": "036b0fc7b82a4e0575152013d2316661ac1c98c4b52d3dcb653f325dc0b552e8",
      "vout": 1,
      "prevout": {
        "scriptpubkey": "51203d3518672af381ca4eba998ee176c6d53500bed5b8a10cc9dbe23b2e4fe2b9e7",
        "scriptpubkey_asm": "OP_PUSHNUM_1 OP_PUSHBYTES_32 3d3518672af381ca4eba998ee176c6d53500bed5b8a10cc9dbe23b2e4fe2b9e7",
        "scriptpubkey_type": "v1_p2tr",
        "scriptpubkey_address": "bc1p8563see27wqu5n46nx8wzakx656sp0k4hzssejwmugajunlzh8nsgkkrap",
        "value": 1081520
      },
      "scriptsig": "",
      "scriptsig_asm": "",
      "witness": [
        "1440c30f0e4d242908cc9b2a88ff03d548a8d7570747d26ef35a453097999338a0a554ed96e60af6eb5fe9025372c5670f61bfc794c83bbd5b72c2d3d297f23d"
      ],
      "is_coinbase": false,
      "sequence": 2147483649
    }
  ],
  "vout": [
    {
      "scriptpubkey": "0014c4b12098f76b666b15e4ff07db909eb2d31fe317",
      "scriptpubkey_asm": "OP_0 OP_PUSHBYTES_20 c4b12098f76b666b15e4ff07db909eb2d31fe317",
      "scriptpubkey_type": "v0_p2wpkh",
      "scriptpubkey_address": "bc1qcjcjpx8hddnxk90ylurahyy7ktf3lcchrnu7cu",
      "value": 546
    },
    {
      "scriptpubkey": "51203d3518672af381ca4eba998ee176c6d53500bed5b8a10cc9dbe23b2e4fe2b9e7",
      "scriptpubkey_asm": "OP_PUSHNUM_1 OP_PUSHBYTES_32 3d3518672af381ca4eba998ee176c6d53500bed5b8a10cc9dbe23b2e4fe2b9e7",
      "scriptpubkey_type": "v1_p2tr",
      "scriptpubkey_address": "bc1p8563see27wqu5n46nx8wzakx656sp0k4hzssejwmugajunlzh8nsgkkrap",
      "value": 1078535
    }
  ],
  "size": 300,
  "weight": 798,
  "fee": 2985,
  "status": {
    "confirmed": true,
    "block_height": 834460,
    "block_hash": "00000000000000000000484a79b643b2524bbce82e5d8a442013fa5b8905ed98",
    "block_time": 1710307468
  },
  "hex": "020000000001020c8b488d35839ffa3356617cb05a40da0aa78199331a84fea6db1b9bf02ca7d2000000000001000080e852b5c05d323f65cb3d2db5c4981cac616631d213201575054e2ab8c70f6b03010000000001000080022202000000000000160014c4b12098f76b666b15e4ff07db909eb2d31fe31707751000000000002251203d3518672af381ca4eba998ee176c6d53500bed5b8a10cc9dbe23b2e4fe2b9e701404ccf1e26625e23256e433689b3f7e0484908b47ae89c6595bcd2e32b95b6d03774e995e9316e617ef51dd084b2543e011b57157425b70d1107d2579fd74577da01401440c30f0e4d242908cc9b2a88ff03d548a8d7570747d26ef35a453097999338a0a554ed96e60af6eb5fe9025372c5670f61bfc794c83bbd5b72c2d3d297f23d00000000"
}