{
  "txid": "c9da35738b4336623de4f3edca6a0e1380a18f8bd91179ec6e82c8d165f430e7",
  "version": 2,
  "locktime": 0,
  "vin": [
    {
      "txid": "aaa82ebd72937cc6c60fe2aafc334f6dfcc61d2d1da7115372da6824973a1bf8",
      "vout": 1,
      "prevout": {
        "scriptpubkey": "0014b54627f9c1d908441a8f6e76f6b12e7e6eb55170",
        "scriptpubkey_asm": "OP_0 OP_PUSHBYTES_20 b54627f9c1d908441a8f6e76f6b12e7e6eb55170",
        "scriptpubkey_type": "v0_p2wpkh",
        "scriptpubkey_address": "bc1qk4rz07wpmyyygx50dem0dvfw0eht25tswpp76r",
        "value": 1537744
      },
      "scriptsig": "",
      "scriptsig_asm": "",
      "witness": [
        "3044022025af81a2911d949a78597f6118e59920d496edb86d373b444b38e50700cb4365022048777ac363c7b996520bcba1752b98aae0f809a8fed1271e7f3d64831af713aa01",
        "036e9f8603ac9c43aede55587059810b7f972c1e730e1796ad3b514e7be656ff63"
      ],
      "is_coinbase": false,
      "sequence": 4294967295
    }
  ],
  "vout": [
    {
      "scriptpubkey": "00208cc1a1505c336a8b5564d1dda6c57c2f4542880af5c5cbeae2d438a9071439c9",
      "scriptpubkey_asm": "OP_0 OP_PUSHBYTES_32 8cc1a1505c336a8b5564d1dda6c57c2f4542880af5c5cbeae2d438a9071439c9",
      "scriptpubkey_type": "v0_p2wsh",
      "scriptpubkey_address": "bc1q3nq6z5zuxd4gk4ty68w6d3tu9az59zq27hzuh6hz6su2jpc588ys7m3c28",
      "value": 6893
    },
    {
      "scriptpubkey": "0014a5b3200b5e1238bceb1339bb4347e524970fefff",
      "scriptpubkey_asm": "OP_0 OP_PUSHBYTES_20 a5b3200b5e1238bceb1339bb4347e524970fefff",
      "scriptpubkey_type": "v0_p2wpkh",
      "scriptpubkey_address": "bc1q5kejqz67zgute6cn8xa5x3l9yjtslmll03uun4",
      "value": 1528564
    }
  ],
  "size": 234,
  "weight": 609,
  "fee": 2287,
  "status": {
    "confirmed": true,
    "block_height": 834638,
    "block_hash": "000000000000000000025f742c626208ac87e0b7d15054abb4a19ca2d735a54e",
    "block_time": 1710405325
  },
  "hex": "02000000000101f81b3a972468da725311a71d2d1dc6fc6d4f33fcaae20fc6c67c9372bd2ea8aa0100000000ffffffff02ed1a0000000000002200208cc1a1505c336a8b5564d1dda6c57c2f4542880af5c5cbeae2d438a9071439c9f452170000000000160014a5b3200b5e1238bceb1339bb4347e524970fefff02473044022025af81a2911d949a78597f6118e59920d496edb86d373b444b38e50700cb4365022048777ac363c7b996520bcba1752b98aae0f809a8fed1271e7f3d64831af713aa0121036e9f8603ac9c43aede55587059810b7f972c1e730e1796ad3b514e7be656ff6300000000"
}