{
  "txid": "c9e6f04f40b9cff66b4992c08ad26a2aaa0babf7dd17be25c8547047cbf5dabe",
  "version": 2,
  "locktime": 0,
  "vin": [
    {
      "txid": "c3994f6b2f658c7704aeca6a4c90a33f62ce969f8bf64db33edac828a4f596d1",
      "vout": 1,
      "prevout": {
        "scriptpubkey": "51204cba3cb95f6257b0917d280e3a40846df02566afe03b5798b2a55d6f4f70e2e4",
        "scriptpubkey_asm": "OP_PUSHNUM_1 OP_PUSHBYTES_32 4cba3cb95f6257b0917d280e3a40846df02566afe03b5798b2a55d6f4f70e2e4",
        "scriptpubkey_type": "v1_p2tr",
        "scriptpubkey_address": "bc1pfjarew2lvftmpyta9q8r5syydhcz2e40uqa40x9j54wk7nmsutjq8rn3dt",
        "value": 165252
      },
      "scriptsig": "",
      "scriptsig_asm": "",
      "witness": [
        "88bd14592a0b85092ccaf6c02222bc4a966f9a5942d4e0cdda0ecb43b5e93874696b674bfb28382c89c78b1a4d3e0652ca6f8058418fc88039980e0d73b9cd31"
      ],
      "is_coinbase": false,
      "sequence": 2147483649
    }
  ],
  "vout": [
    {
      "scriptpubkey": "5120c6309106f096645a1ab5a87d55c79990b3e5b8af7c3ac00dd336060b241a2406",
      "scriptpubkey_asm": "OP_PUSHNUM_1 OP_PUSHBYTES_32 c6309106f096645a1ab5a87d55c79990b3e5b8af7c3ac00dd336060b241a2406",
      "scriptpubkey_type": "v1_p2tr",
      "scriptpubkey_address": "bc1pcccfzphsjej95x444p74t3uejze7tw900savqrwnxcrqkfq6ysrq4a0ry9",
      "value": 162000
    },
    {
      "scriptpubkey": "51204cba3cb95f6257b0917d280e3a40846df02566afe03b5798b2a55d6f4f70e2e4",
      "scriptpubkey_asm": "OP_PUSHNUM_1 OP_PUSHBYTES_32 4cba3cb95f6257b0917d280e3a40846df02566afe03b5798b2a55d6f4f70e2e4",
      "scriptpubkey_type": "v1_p2tr",
      "scriptpubkey_address": "bc1pfjarew2lvftmpyta9q8r5syydhcz2e40uqa40x9j54wk7nmsutjq8rn3dt",
      "value": 1587
    }
  ],
  "size": 205,
  "weight": 616,
  "fee": 1665,
  "status": {
    "confirmed": true,
    "block_height": 834464,
    "block_hash": "0000000000000000000177a0869a911a2b65c9bdcd5a8bcb02b68f305bee848e",
    "block_time": 1710308296
  },
  "hex": "02000000000101d196f5a428c8da3eb34df68b9f96ce623fa3904c6acaae04778c652f6b4f99c301000000000100008002d078020000000000225120c6309106f096645a1ab5a87d55c79990b3e5b8af7c3ac00dd336060b241a240633060000000000002251204cba3cb95f6257b0917d280e3a40846df02566afe03b5798b2a55d6f4f70e2e4014088bd14592a0b85092ccaf6c02222bc4a966f9a5942d4e0cdda0ecb43b5e93874696b674bfb28382c89c78b1a4d3e0652ca6f8058418fc88039980e0d73b9cd3100000000"
}