{
  "txid": "c9eb1a33a769b0886fab721218380c0600dfc4931cbd15f993767e19382b755c",
  "version": 2,
  "locktime": 0,
  "vin": [
    {
      "txid": "e9f217ac674fe5242fa9dac2c109007030d7e9c7a9acd2edab9036baf0e073a0",
      "vout": 1,
      "prevout": {
        "scriptpubkey": "512070271c42fe00e22a305c20ca6dc3a3117aeb2ceff3db8077017fd085cdf6c7e4",
        "scriptpubkey_asm": "OP_PUSHNUM_1 OP_PUSHBYTES_32 70271c42fe00e22a305c20ca6dc3a3117aeb2ceff3db8077017fd085cdf6c7e4",
        "scriptpubkey_type": "v1_p2tr",
        "scriptpubkey_address": "bc1pwqn3csh7qr3z5vzuyr9xmsarz9awkt8070dcqacp0lggtn0kcljqfyyh0c",
        "value": 560427
      },
      "scriptsig": "",
      "scriptsig_asm": "",
      "witness": [
        "4d650ab2960b064b903381489ab45736eff0909e13abc4098ddaaf1f4d49fea3d1e0f3af1446c39e18ce83d83d793e0c178433696810492bbdeb5c867bc6c6af"
      ],
      "is_coinbase": false,
      "sequence": 4294967295
    }
  ],
  "vout": [
    {
      "scriptpubkey": "0014a43becf611be88e352c0895dc737b0668a475642",
      "scriptpubkey_asm": "OP_0 OP_PUSHBYTES_20 a43becf611be88e352c0895dc737b0668a475642",
      "scriptpubkey_type": "v0_p2wpkh",
      "scriptpubkey_address": "bc1q5sa7eas3h6ywx5kq39wuwdasv69yw4jzv4lxzg",
      "value": 100000
    },
    {
      "scriptpubkey": "512070271c42fe00e22a305c20ca6dc3a3117aeb2ceff3db8077017fd085cdf6c7e4",
      "scriptpubkey_asm": "OP_PUSHNUM_1 OP_PUSHBYTES_32 70271c42fe00e22a305c20ca6dc3a3117aeb2ceff3db8077017fd085cdf6c7e4",
      "scriptpubkey_type": "v1_p2tr",
      "scriptpubkey_address": "bc1pwqn3csh7qr3z5vzuyr9xmsarz9awkt8070dcqacp0lggtn0kcljqfyyh0c",
      "value": 458581
    }
  ],
  "size": 193,
  "weight": 568,
  "fee": 1846,
  "status": {
    "confirmed": true,
    "block_height": 834552,
    "block_hash": "00000000000000000001dd0468a70c94f619251d286585cff57aeb4bd9ede330",
    "block_time": 1710355598
  },
  "hex": "02000000000101a073e0f0ba3690abedd2aca9c7e9d730700009c1c2daa92f24e54f67ac17f2e90100000000ffffffff02a086010000000000160014a43becf611be88e352c0895dc737b0668a47564255ff06000000000022512070271c42fe00e22a305c20ca6dc3a3117aeb2ceff3db8077017fd085cdf6c7e401404d650ab2960b064b903381489ab45736eff0909e13abc4098ddaaf1f4d49fea3d1e0f3af1446c39e18ce83d83d793e0c178433696810492bbdeb5c867bc6c6af00000000"
}