{
  "txid": "c9fef5d273a99298a4a4a6551691ea33afb6698d028af6dd08b22a013b1d8c81",
  "version": 2,
  "locktime": 834442,
  "vin": [
    {
      "txid": "7ca4af1238ce26643c6295a0ca3a5408b4b99e5e73afe1151427e02dd3b4e811",
      "vout": 0,
      "prevout": {
        "scriptpubkey": "001441d86acc7194017fb6687e9030cc5ffd6914ac66",
        "scriptpubkey_asm": "OP_0 OP_PUSHBYTES_20 41d86acc7194017fb6687e9030cc5ffd6914ac66",
        "scriptpubkey_type": "v0_p2wpkh",
        "scriptpubkey_address": "bc1qg8vx4nr3jsqhldng06grpnzll453ftrxg0lp68",
        "value": 44200
      },
      "scriptsig": "",
      "scriptsig_asm": "",
      "witness": [
        "304402200949f68458f3f4a588e381739a60e2507e1caae7a28428257c6a8543ac951d0202204d8bd6b6ab56ab8c4b89d737dd72d7e7f4d12762fe394571ef565372a86991c701",
        "028d8b8a504d503df8b9b08edaa34f962a2aef692b80c4a756eaccc178493175ee"
      ],
      "is_coinbase": false,
      "sequence": 4294967293
    },
    {
      "txid": "9e72708205e9498264f10fb4af866b011108f5c87c5426c34aec41243d6baa55",
      "vout": 1,
      "prevout": {
        "scriptpubkey": "001402f0ecbc9a691cdb4b7588a0fa6d352edb3d5ca1",
        "scriptpubkey_asm": "OP_0 OP_PUSHBYTES_20 02f0ecbc9a691cdb4b7588a0fa6d352edb3d5ca1",
        "scriptpubkey_type": "v0_p2wpkh",
        "scriptpubkey_address": "bc1qqtcwe0y6dywdkjm43zs05mf49mdn6h9p3hlx9t",
        "value": 24490
      },
      "scriptsig": "",
      "scriptsig_asm": "",
      "witness": [
        "304402204b023c148d2f76ef578cfd64c9a3e0ba3b38a552eadd722d3d41bf2da0713e2802202361abdf0cfa037bedfb8a5e152a649ffade2e2cf2fd87da75b53970bb118e8f01",
        "03a7b50577d8dd44365c4cb9a60bae9a60e7ef6d4e8b14ee9f25ef67209bcd0600"
      ],
      "is_coinbase": false,
      "sequence": 4294967293
    }
  ],
  "vout": [
    {
      "scriptpubkey": "0014bdbec57d6f4458af4be0ed8f8dc5167c6dbd23c8",
      "scriptpubkey_asm": "OP_0 OP_PUSHBYTES_20 bdbec57d6f4458af4be0ed8f8dc5167c6dbd23c8",
      "scriptpubkey_type": "v0_p2wpkh",
      "scriptpubkey_address": "bc1qhklv2lt0g3v27jlqak8cm3gk03km6g7ggrumxp",
      "value": 66732
    }
  ],
  "size": 339,
  "weight": 708,
  "fee": 1958,
  "status": {
    "confirmed": true,
    "block_height": 834460,
    "block_hash": "00000000000000000000484a79b643b2524bbce82e5d8a442013fa5b8905ed98",
    "block_time": 1710307468
  },
  "hex": "0200000000010211e8b4d32de0271415e1af735e9eb9b408543acaa095623c6426ce3812afa47c0000000000fdffffff55aa6b3d2441ec4ac326547cc8f50811016b86afb40ff1648249e9058270729e0100000000fdffffff01ac04010000000000160014bdbec57d6f4458af4be0ed8f8dc5167c6dbd23c80247304402200949f68458f3f4a588e381739a60e2507e1caae7a28428257c6a8543ac951d0202204d8bd6b6ab56ab8c4b89d737dd72d7e7f4d12762fe394571ef565372a86991c70121028d8b8a504d503df8b9b08edaa34f962a2aef692b80c4a756eaccc178493175ee0247304402204b023c148d2f76ef578cfd64c9a3e0ba3b38a552eadd722d3d41bf2da0713e2802202361abdf0cfa037bedfb8a5e152a649ffade2e2cf2fd87da75b53970bb118e8f012103a7b50577d8dd44365c4cb9a60bae9a60e7ef6d4e8b14ee9f25ef67209bcd06008abb0c00"
}