{
  "txid": "ca00e52b6183d99724885accc07a5cdfee03bd882f712c802b505c18b6abb278",
  "version": 2,
  "locktime": 0,
  "vin": [
    {
      "txid": "acc3ba00869acb582a3f2904ce3a11dd3779350ce234063fc7d0959246213364",
      "vout": 162,
      "prevout": {
        "scriptpubkey": "51201b3f1a18ab093bc93b61725102fa0ccc41bd63645f491a800628832d7d124019",
        "scriptpubkey_asm": "OP_PUSHNUM_1 OP_PUSHBYTES_32 1b3f1a18ab093bc93b61725102fa0ccc41bd63645f491a800628832d7d124019",
        "scriptpubkey_type": "v1_p2tr",
        "scriptpubkey_address": "bc1prvl35x9tpyaujwmpwfgs97sve3qm6cmytay34qqx9zpj6lgjgqvs4yjrf3",
        "value": 1806
      },
      "scriptsig": "",
      "scriptsig_asm": "",
      "witness": [
        "573da2471952fa4577886864d899cb1dc1b3b8193c562ac8a67c9dadc8e29209c40a53cbfcb3274b24e287600aaead8efd8c73d2b0cbd310dccdd7b46d8fd9d5",
        "20d9b82487d20c9142b47e559c730b249e95299b1b42133837cff772c51395ad2eac0063036f726401010a746578742f706c61696e00357b2270223a226272632d3230222c226f70223a226d696e74222c227469636b223a22646f6765222c22616d74223a2234323030227d68",
        "c0d9b82487d20c9142b47e559c730b249e95299b1b42133837cff772c51395ad2e"
      ],
      "is_coinbase": false,
      "sequence": 4261412863
    }
  ],
  "vout": [
    {
      "scriptpubkey": "00147a665de7a370f4c9b372ab1fae587500a5bcbdb4",
      "scriptpubkey_asm": "OP_0 OP_PUSHBYTES_20 7a665de7a370f4c9b372ab1fae587500a5bcbdb4",
      "scriptpubkey_type": "v0_p2wpkh",
      "scriptpubkey_address": "bc1q0fn9mearwr6vnvmj4v06ukr4qzjme0d565dzcx",
      "value": 294
    }
  ],
  "size": 294,
  "weight": 540,
  "fee": 1512,
  "status": {
    "confirmed": true,
    "block_height": 834460,
    "block_hash": "00000000000000000000484a79b643b2524bbce82e5d8a442013fa5b8905ed98",
    "block_time": 1710307468
  },
  "hex": "02000000000101643321469295d0c73f0634e20c357937dd113ace04293f2a58cb9a8600bac3aca200000000fffffffd0126010000000000001600147a665de7a370f4c9b372ab1fae587500a5bcbdb40340573da2471952fa4577886864d899cb1dc1b3b8193c562ac8a67c9dadc8e29209c40a53cbfcb3274b24e287600aaead8efd8c73d2b0cbd310dccdd7b46d8fd9d56d20d9b82487d20c9142b47e559c730b249e95299b1b42133837cff772c51395ad2eac0063036f726401010a746578742f706c61696e00357b2270223a226272632d3230222c226f70223a226d696e74222c227469636b223a22646f6765222c22616d74223a2234323030227d6821c0d9b82487d20c9142b47e559c730b249e95299b1b42133837cff772c51395ad2e00000000"
}