{
  "txid": "ca1a7fa3e8838fb9f104248e2b1fdc5673af9a16c4c5110d41c94fdc68ab3184",
  "version": 2,
  "locktime": 0,
  "vin": [
    {
      "txid": "ac2145d1fa71ff3de1b1a06b55f530c86a9054e0829826ec1002dfd4d7646e8c",
      "vout": 0,
      "prevout": {
        "scriptpubkey": "51206eb3d44d25a9a44f47af23db4c49b81cf751e5543c467ae5ea376d993bb0f3b2",
        "scriptpubkey_asm": "OP_PUSHNUM_1 OP_PUSHBYTES_32 6eb3d44d25a9a44f47af23db4c49b81cf751e5543c467ae5ea376d993bb0f3b2",
        "scriptpubkey_type": "v1_p2tr",
        "scriptpubkey_address": "bc1pd6eagnf94xjy73a0y0d5cjdcrnm4re2583r84e02xakejwas7weqery4a7",
        "value": 546
      },
      "scriptsig": "",
      "scriptsig_asm": "",
      "witness": [
        "9d424ab997c281d613f1268493c6cab67e5999fa11a36a6035912ad0099b57465f35644fc2d940fc2e7f7956b929d4209b1470ed9a18e5de81a1f78061bf31dc"
      ],
      "is_coinbase": false,
      "sequence": 4294967295
    },
    {
      "txid": "ff2ad21e7d36aa58c08fc706f43493a9d8857daf723a75ca3f074b733ff813c7",
      "vout": 0,
      "prevout": {
        "scriptpubkey": "51206eb3d44d25a9a44f47af23db4c49b81cf751e5543c467ae5ea376d993bb0f3b2",
        "scriptpubkey_asm": "OP_PUSHNUM_1 OP_PUSHBYTES_32 6eb3d44d25a9a44f47af23db4c49b81cf751e5543c467ae5ea376d993bb0f3b2",
        "scriptpubkey_type": "v1_p2tr",
        "scriptpubkey_address": "bc1pd6eagnf94xjy73a0y0d5cjdcrnm4re2583r84e02xakejwas7weqery4a7",
        "value": 5477827
      },
      "scriptsig": "",
      "scriptsig_asm": "",
      "witness": [
        "5831f3926b2ccf9a1485672ef40aaeed71d44496ffb8cfeb9fc584517748ef79d8a73c09960d163acf8700d4d47eab03419f033e6e3bfe50cd1c45bf5036bb1f"
      ],
      "is_coinbase": false,
      "sequence": 4294967295
    }
  ],
  "vout": [
    {
      "scriptpubkey": "51206eb3d44d25a9a44f47af23db4c49b81cf751e5543c467ae5ea376d993bb0f3b2",
      "scriptpubkey_asm": "OP_PUSHNUM_1 OP_PUSHBYTES_32 6eb3d44d25a9a44f47af23db4c49b81cf751e5543c467ae5ea376d993bb0f3b2",
      "scriptpubkey_type": "v1_p2tr",
      "scriptpubkey_address": "bc1pd6eagnf94xjy73a0y0d5cjdcrnm4re2583r84e02xakejwas7weqery4a7",
      "value": 546
    },
    {
      "scriptpubkey": "6a1152554e45414c5048415f5354414b494e4709633832393730383532053335303030",
      "scriptpubkey_asm": "OP_RETURN OP_PUSHBYTES_17 52554e45414c5048415f5354414b494e47 OP_PUSHBYTES_9 633832393730383532 OP_PUSHBYTES_5 3335303030",
      "scriptpubkey_type": "op_return",
      "value": 0
    },
    {
      "scriptpubkey": "51206eb3d44d25a9a44f47af23db4c49b81cf751e5543c467ae5ea376d993bb0f3b2",
      "scriptpubkey_asm": "OP_PUSHNUM_1 OP_PUSHBYTES_32 6eb3d44d25a9a44f47af23db4c49b81cf751e5543c467ae5ea376d993bb0f3b2",
      "scriptpubkey_type": "v1_p2tr",
      "scriptpubkey_address": "bc1pd6eagnf94xjy73a0y0d5cjdcrnm4re2583r84e02xakejwas7weqery4a7",
      "value": 5474252
    }
  ],
  "size": 356,
  "weight": 1022,
  "fee": 3575,
  "status": {
    "confirmed": true,
    "block_height": 834460,
    "block_hash": "00000000000000000000484a79b643b2524bbce82e5d8a442013fa5b8905ed98",
    "block_time": 1710307468
  },
  "hex": "020000000001028c6e64d7d4df0210ec269882e054906ac830f5556ba0b1e13dff71fad14521ac0000000000ffffffffc713f83f734b073fca753a72af7d85d8a99334f406c78fc058aa367d1ed22aff0000000000ffffffff0322020000000000002251206eb3d44d25a9a44f47af23db4c49b81cf751e5543c467ae5ea376d993bb0f3b20000000000000000236a1152554e45414c5048415f5354414b494e4709633832393730383532053335303030cc875300000000002251206eb3d44d25a9a44f47af23db4c49b81cf751e5543c467ae5ea376d993bb0f3b201409d424ab997c281d613f1268493c6cab67e5999fa11a36a6035912ad0099b57465f35644fc2d940fc2e7f7956b929d4209b1470ed9a18e5de81a1f78061bf31dc01405831f3926b2ccf9a1485672ef40aaeed71d44496ffb8cfeb9fc584517748ef79d8a73c09960d163acf8700d4d47eab03419f033e6e3bfe50cd1c45bf5036bb1f00000000"
}