{
  "txid": "ca1cb812202dea9515ed14d8794fabf9f4b98049e86ba45fcc0d8e0e4a1f0fba",
  "version": 2,
  "locktime": 0,
  "vin": [
    {
      "txid": "acc3ba00869acb582a3f2904ce3a11dd3779350ce234063fc7d0959246213364",
      "vout": 63,
      "prevout": {
        "scriptpubkey": "512068a059c664fa9dadc9a2bdd239a5b9b5c759782b9a7d9a0ab651114b8d33da5f",
        "scriptpubkey_asm": "OP_PUSHNUM_1 OP_PUSHBYTES_32 68a059c664fa9dadc9a2bdd239a5b9b5c759782b9a7d9a0ab651114b8d33da5f",
        "scriptpubkey_type": "v1_p2tr",
        "scriptpubkey_address": "bc1pdzs9n3nyl2w6mjdzhhfrnfdekhr4j7ptnf7e5z4k2yg5hrfnmf0stygthp",
        "value": 1806
      },
      "scriptsig": "",
      "scriptsig_asm": "",
      "witness": [
        "ba4100262858a49eff0d4b0a47c833af5c78c21e72adfdbf67bcc826fa18e6696e2d4b399c21789136c5fab12a0407dcff82746d9ce299251922f05fdbdb712f",
        "20f7b1b5a68798e0eda76f9839a1b191501f78ea43602a4e2c01953951d349fa70ac0063036f726401010a746578742f706c61696e00357b2270223a226272632d3230222c226f70223a226d696e74222c227469636b223a22646f6765222c22616d74223a2234323030227d68",
        "c1f7b1b5a68798e0eda76f9839a1b191501f78ea43602a4e2c01953951d349fa70"
      ],
      "is_coinbase": false,
      "sequence": 4261412863
    }
  ],
  "vout": [
    {
      "scriptpubkey": "00147a665de7a370f4c9b372ab1fae587500a5bcbdb4",
      "scriptpubkey_asm": "OP_0 OP_PUSHBYTES_20 7a665de7a370f4c9b372ab1fae587500a5bcbdb4",
      "scriptpubkey_type": "v0_p2wpkh",
      "scriptpubkey_address": "bc1q0fn9mearwr6vnvmj4v06ukr4qzjme0d565dzcx",
      "value": 294
    }
  ],
  "size": 294,
  "weight": 540,
  "fee": 1512,
  "status": {
    "confirmed": true,
    "block_height": 834460,
    "block_hash": "00000000000000000000484a79b643b2524bbce82e5d8a442013fa5b8905ed98",
    "block_time": 1710307468
  },
  "hex": "02000000000101643321469295d0c73f0634e20c357937dd113ace04293f2a58cb9a8600bac3ac3f00000000fffffffd0126010000000000001600147a665de7a370f4c9b372ab1fae587500a5bcbdb40340ba4100262858a49eff0d4b0a47c833af5c78c21e72adfdbf67bcc826fa18e6696e2d4b399c21789136c5fab12a0407dcff82746d9ce299251922f05fdbdb712f6d20f7b1b5a68798e0eda76f9839a1b191501f78ea43602a4e2c01953951d349fa70ac0063036f726401010a746578742f706c61696e00357b2270223a226272632d3230222c226f70223a226d696e74222c227469636b223a22646f6765222c22616d74223a2234323030227d6821c1f7b1b5a68798e0eda76f9839a1b191501f78ea43602a4e2c01953951d349fa7000000000"
}