{
  "txid": "ca2817d3d6ddc96ee9034edd252f1b76a89cb9a2ef3eeb62eeba5d8cf0a52ca1",
  "version": 2,
  "locktime": 0,
  "vin": [
    {
      "txid": "6922a04e4ec804cfb74195e00d8e5f7d740af515b9b3d4a0f0ec842e225eb37b",
      "vout": 4,
      "prevout": {
        "scriptpubkey": "5120e2d45977884f1267beea23bcc7bac588b59c811d5d32c82b4169327adb245145",
        "scriptpubkey_asm": "OP_PUSHNUM_1 OP_PUSHBYTES_32 e2d45977884f1267beea23bcc7bac588b59c811d5d32c82b4169327adb245145",
        "scriptpubkey_type": "v1_p2tr",
        "scriptpubkey_address": "bc1put29jaugfufx00h2yw7v0wk93z6eeqgat5evs26pdye84key29zsqlqz94",
        "value": 600
      },
      "scriptsig": "",
      "scriptsig_asm": "",
      "witness": [
        "be08fdfa37c084a5fe5da7f32e7cf2fbef8d76dd0479f3938f8b951f33608977fb5414559425c16d9dab31bf4cd112d0c058c1d301bdd7be3033716347994e2c01"
      ],
      "is_coinbase": false,
      "sequence": 4294967295
    },
    {
      "txid": "6922a04e4ec804cfb74195e00d8e5f7d740af515b9b3d4a0f0ec842e225eb37b",
      "vout": 3,
      "prevout": {
        "scriptpubkey": "5120e2d45977884f1267beea23bcc7bac588b59c811d5d32c82b4169327adb245145",
        "scriptpubkey_asm": "OP_PUSHNUM_1 OP_PUSHBYTES_32 e2d45977884f1267beea23bcc7bac588b59c811d5d32c82b4169327adb245145",
        "scriptpubkey_type": "v1_p2tr",
        "scriptpubkey_address": "bc1put29jaugfufx00h2yw7v0wk93z6eeqgat5evs26pdye84key29zsqlqz94",
        "value": 600
      },
      "scriptsig": "",
      "scriptsig_asm": "",
      "witness": [
        "440e9e367115dc0f9b9d71e74898350f8ddc4484f40ae17c20b98d8b838363a88c55e9f2c440a11f343229877002ef95038fa83afca2f124cb9029d2d6ab339e01"
      ],
      "is_coinbase": false,
      "sequence": 4294967295
    },
    {
      "txid": "6956bc444c5f215235d28e0d7c8020079f082f670da685a168e5eb0c30bdb2da",
      "vout": 0,
      "prevout": {
        "scriptpubkey": "512062788e33245345425f257ce348df8f9ca70ab21597570291c398580f6b7dccb1",
        "scriptpubkey_asm": "OP_PUSHNUM_1 OP_PUSHBYTES_32 62788e33245345425f257ce348df8f9ca70ab21597570291c398580f6b7dccb1",
        "scriptpubkey_type": "v1_p2tr",
        "scriptpubkey_address": "bc1pvfuguvey2dz5yhe90n353hu0njns4vs4jats9ywrnpvq76maejcsc68dn9",
        "value": 546
      },
      "scriptsig": "",
      "scriptsig_asm": "",
      "witness": [
        "f378ce7bb66542cdfea3918d3059d3f40dd14f32749afc14fa4ab5e5b36f8533fa7ea0311a779a36f960137da1bf3239684483eff0d98a793113d9c9c591a3e183"
      ],
      "is_coinbase": false,
      "sequence": 4294967295
    },
    {
      "txid": "6922a04e4ec804cfb74195e00d8e5f7d740af515b9b3d4a0f0ec842e225eb37b",
      "vout": 5,
      "prevout": {
        "scriptpubkey": "5120e2d45977884f1267beea23bcc7bac588b59c811d5d32c82b4169327adb245145",
        "scriptpubkey_asm": "OP_PUSHNUM_1 OP_PUSHBYTES_32 e2d45977884f1267beea23bcc7bac588b59c811d5d32c82b4169327adb245145",
        "scriptpubkey_type": "v1_p2tr",
        "scriptpubkey_address": "bc1put29jaugfufx00h2yw7v0wk93z6eeqgat5evs26pdye84key29zsqlqz94",
        "value": 195347
      },
      "scriptsig": "",
      "scriptsig_asm": "",
      "witness": [
        "e1043753977515a0521873fb4252ab7057776a50854525bf8cd6867ca49f05f913d714e7529d885ed81fd541788de24d77280050a842b828ecd36baa1e79a85201"
      ],
      "is_coinbase": false,
      "sequence": 4294967295
    },
    {
      "txid": "95d1284cc1e5623320ae2b57572d034b7468048e5b94d73167dc176796274053",
      "vout": 4,
      "prevout": {
        "scriptpubkey": "5120e2d45977884f1267beea23bcc7bac588b59c811d5d32c82b4169327adb245145",
        "scriptpubkey_asm": "OP_PUSHNUM_1 OP_PUSHBYTES_32 e2d45977884f1267beea23bcc7bac588b59c811d5d32c82b4169327adb245145",
        "scriptpubkey_type": "v1_p2tr",
        "scriptpubkey_address": "bc1put29jaugfufx00h2yw7v0wk93z6eeqgat5evs26pdye84key29zsqlqz94",
        "value": 138421
      },
      "scriptsig": "",
      "scriptsig_asm": "",
      "witness": [
        "f93b07d76d6bd5a526f0ac9c88d9d0da3dfcb17c7cebd1308f967b6b5e1a5127f15e96ea55a238c1d22071f692ddb0c9e8cb19a41d07791d4e4161e79983de5401"
      ],
      "is_coinbase": false,
      "sequence": 4294967295
    },
    {
      "txid": "bc3b276624c8925e33d49b1bf2ab1a710bea3111dfd2aa1b44905b9c637b879d",
      "vout": 5,
      "prevout": {
        "scriptpubkey": "5120e2d45977884f1267beea23bcc7bac588b59c811d5d32c82b4169327adb245145",
        "scriptpubkey_asm": "OP_PUSHNUM_1 OP_PUSHBYTES_32 e2d45977884f1267beea23bcc7bac588b59c811d5d32c82b4169327adb245145",
        "scriptpubkey_type": "v1_p2tr",
        "scriptpubkey_address": "bc1put29jaugfufx00h2yw7v0wk93z6eeqgat5evs26pdye84key29zsqlqz94",
        "value": 96874
      },
      "scriptsig": "",
      "scriptsig_asm": "",
      "witness": [
        "bb69e64af3367b0b1d93991f514249c9f41190eab340ee2d313d39a9357f56e4fb2211e18b80cb42274682ac4ae6b9e6a843780c5a8fa61f146cae12333a9a2901"
      ],
      "is_coinbase": false,
      "sequence": 4294967295
    },
    {
      "txid": "6922a04e4ec804cfb74195e00d8e5f7d740af515b9b3d4a0f0ec842e225eb37b",
      "vout": 0,
      "prevout": {
        "scriptpubkey": "5120e2d45977884f1267beea23bcc7bac588b59c811d5d32c82b4169327adb245145",
        "scriptpubkey_asm": "OP_PUSHNUM_1 OP_PUSHBYTES_32 e2d45977884f1267beea23bcc7bac588b59c811d5d32c82b4169327adb245145",
        "scriptpubkey_type": "v1_p2tr",
        "scriptpubkey_address": "bc1put29jaugfufx00h2yw7v0wk93z6eeqgat5evs26pdye84key29zsqlqz94",
        "value": 1200
      },
      "scriptsig": "",
      "scriptsig_asm": "",
      "witness": [
        "43f5ae74a40c4fb72ee1cac444bf43443dacb49a31fa8ae8120f2f52b929c8cd1403811c7daa0bc693bd9c8993ea4f2f6adc44cb6dabb34a03b075081b35c49b01"
      ],
      "is_coinbase": false,
      "sequence": 4294967295
    },
    {
      "txid": "0b49f34fddf9d7fab613c430934c858e548bc3db951dceba9ced481f7efbc321",
      "vout": 0,
      "prevout": {
        "scriptpubkey": "5120e2d45977884f1267beea23bcc7bac588b59c811d5d32c82b4169327adb245145",
        "scriptpubkey_asm": "OP_PUSHNUM_1 OP_PUSHBYTES_32 e2d45977884f1267beea23bcc7bac588b59c811d5d32c82b4169327adb245145",
        "scriptpubkey_type": "v1_p2tr",
        "scriptpubkey_address": "bc1put29jaugfufx00h2yw7v0wk93z6eeqgat5evs26pdye84key29zsqlqz94",
        "value": 1200
      },
      "scriptsig": "",
      "scriptsig_asm": "",
      "witness": [
        "639177c90f2e3d7eca791da8da4894c0253235a7c5be0d312685790f58d864e943f20c2bb07a0b8ef082dd804be63ca1ced334986963931eb1b45997cd32f77701"
      ],
      "is_coinbase": false,
      "sequence": 4294967295
    },
    {
      "txid": "7632bdb3f10005b5259b78616dca8f9d7a7d32848557510821b11a06893d8627",
      "vout": 0,
      "prevout": {
        "scriptpubkey": "5120e2d45977884f1267beea23bcc7bac588b59c811d5d32c82b4169327adb245145",
        "scriptpubkey_asm": "OP_PUSHNUM_1 OP_PUSHBYTES_32 e2d45977884f1267beea23bcc7bac588b59c811d5d32c82b4169327adb245145",
        "scriptpubkey_type": "v1_p2tr",
        "scriptpubkey_address": "bc1put29jaugfufx00h2yw7v0wk93z6eeqgat5evs26pdye84key29zsqlqz94",
        "value": 1200
      },
      "scriptsig": "",
      "scriptsig_asm": "",
      "witness": [
        "77aae595711992ce355028c724205d4d3f92711e8d65fcd77b30c8a11808e8c478772153fbedc6902b6ebebf5f4c81230da2a9f372a773ef7bbbccf1e758aaf801"
      ],
      "is_coinbase": false,
      "sequence": 4294967295
    }
  ],
  "vout": [
    {
      "scriptpubkey": "5120e2d45977884f1267beea23bcc7bac588b59c811d5d32c82b4169327adb245145",
      "scriptpubkey_asm": "OP_PUSHNUM_1 OP_PUSHBYTES_32 e2d45977884f1267beea23bcc7bac588b59c811d5d32c82b4169327adb245145",
      "scriptpubkey_type": "v1_p2tr",
      "scriptpubkey_address": "bc1put29jaugfufx00h2yw7v0wk93z6eeqgat5evs26pdye84key29zsqlqz94",
      "value": 1200
    },
    {
      "scriptpubkey": "5120e2d45977884f1267beea23bcc7bac588b59c811d5d32c82b4169327adb245145",
      "scriptpubkey_asm": "OP_PUSHNUM_1 OP_PUSHBYTES_32 e2d45977884f1267beea23bcc7bac588b59c811d5d32c82b4169327adb245145",
      "scriptpubkey_type": "v1_p2tr",
      "scriptpubkey_address": "bc1put29jaugfufx00h2yw7v0wk93z6eeqgat5evs26pdye84key29zsqlqz94",
      "value": 546
    },
    {
      "scriptpubkey": "512062788e33245345425f257ce348df8f9ca70ab21597570291c398580f6b7dccb1",
      "scriptpubkey_asm": "OP_PUSHNUM_1 OP_PUSHBYTES_32 62788e33245345425f257ce348df8f9ca70ab21597570291c398580f6b7dccb1",
      "scriptpubkey_type": "v1_p2tr",
      "scriptpubkey_address": "bc1pvfuguvey2dz5yhe90n353hu0njns4vs4jats9ywrnpvq76maejcsc68dn9",
      "value": 384000
    },
    {
      "scriptpubkey": "5120e2d45977884f1267beea23bcc7bac588b59c811d5d32c82b4169327adb245145",
      "scriptpubkey_asm": "OP_PUSHNUM_1 OP_PUSHBYTES_32 e2d45977884f1267beea23bcc7bac588b59c811d5d32c82b4169327adb245145",
      "scriptpubkey_type": "v1_p2tr",
      "scriptpubkey_address": "bc1put29jaugfufx00h2yw7v0wk93z6eeqgat5evs26pdye84key29zsqlqz94",
      "value": 600
    },
    {
      "scriptpubkey": "5120e2d45977884f1267beea23bcc7bac588b59c811d5d32c82b4169327adb245145",
      "scriptpubkey_asm": "OP_PUSHNUM_1 OP_PUSHBYTES_32 e2d45977884f1267beea23bcc7bac588b59c811d5d32c82b4169327adb245145",
      "scriptpubkey_type": "v1_p2tr",
      "scriptpubkey_address": "bc1put29jaugfufx00h2yw7v0wk93z6eeqgat5evs26pdye84key29zsqlqz94",
      "value": 600
    },
    {
      "scriptpubkey": "5120e2d45977884f1267beea23bcc7bac588b59c811d5d32c82b4169327adb245145",
      "scriptpubkey_asm": "OP_PUSHNUM_1 OP_PUSHBYTES_32 e2d45977884f1267beea23bcc7bac588b59c811d5d32c82b4169327adb245145",
      "scriptpubkey_type": "v1_p2tr",
      "scriptpubkey_address": "bc1put29jaugfufx00h2yw7v0wk93z6eeqgat5evs26pdye84key29zsqlqz94",
      "value": 37027
    }
  ],
  "size": 1242,
  "weight": 3153,
  "fee": 12015,
  "status": {
    "confirmed": true,
    "block_height": 834638,
    "block_hash": "000000000000000000025f742c626208ac87e0b7d15054abb4a19ca2d735a54e",
    "block_time": 1710405325
  },
  "hex": "020000000001097bb35e222e84ecf0a0d4b3b915f50a747d5f8e0de09541b7cf04c84e4ea022690400000000ffffffff7bb35e222e84ecf0a0d4b3b915f50a747d5f8e0de09541b7cf04c84e4ea022690300000000ffffffffdab2bd300cebe568a185a60d672f089f0720807c0d8ed23552215f4c44bc56690000000000ffffffff7bb35e222e84ecf0a0d4b3b915f50a747d5f8e0de09541b7cf04c84e4ea022690500000000ffffffff534027966717dc6731d7945b8e0468744b032d57572bae203362e5c14c28d1950400000000ffffffff9d877b639c5b90441baad2df1131ea0b711aabf21b9bd4335e92c82466273bbc0500000000ffffffff7bb35e222e84ecf0a0d4b3b915f50a747d5f8e0de09541b7cf04c84e4ea022690000000000ffffffff21c3fb7e1f48ed9cbace1d95dbc38b548e854c9330c413b6fad7f9dd4ff3490b0000000000ffffffff27863d89061ab1210851578584327d7a9d8fca6d61789b25b50500f1b3bd32760000000000ffffffff06b004000000000000225120e2d45977884f1267beea23bcc7bac588b59c811d5d32c82b4169327adb2451452202000000000000225120e2d45977884f1267beea23bcc7bac588b59c811d5d32c82b4169327adb24514500dc05000000000022512062788e33245345425f257ce348df8f9ca70ab21597570291c398580f6b7dccb15802000000000000225120e2d45977884f1267beea23bcc7bac588b59c811d5d32c82b4169327adb2451455802000000000000225120e2d45977884f1267beea23bcc7bac588b59c811d5d32c82b4169327adb245145a390000000000000225120e2d45977884f1267beea23bcc7bac588b59c811d5d32c82b4169327adb2451450141be08fdfa37c084a5fe5da7f32e7cf2fbef8d76dd0479f3938f8b951f33608977fb5414559425c16d9dab31bf4cd112d0c058c1d301bdd7be3033716347994e2c010141440e9e367115dc0f9b9d71e74898350f8ddc4484f40ae17c20b98d8b838363a88c55e9f2c440a11f343229877002ef95038fa83afca2f124cb9029d2d6ab339e010141f378ce7bb66542cdfea3918d3059d3f40dd14f32749afc14fa4ab5e5b36f8533fa7ea0311a779a36f960137da1bf3239684483eff0d98a793113d9c9c591a3e1830141e1043753977515a0521873fb4252ab7057776a50854525bf8cd6867ca49f05f913d714e7529d885ed81fd541788de24d77280050a842b828ecd36baa1e79a852010141f93b07d76d6bd5a526f0ac9c88d9d0da3dfcb17c7cebd1308f967b6b5e1a5127f15e96ea55a238c1d22071f692ddb0c9e8cb19a41d07791d4e4161e79983de54010141bb69e64af3367b0b1d93991f514249c9f41190eab340ee2d313d39a9357f56e4fb2211e18b80cb42274682ac4ae6b9e6a843780c5a8fa61f146cae12333a9a2901014143f5ae74a40c4fb72ee1cac444bf43443dacb49a31fa8ae8120f2f52b929c8cd1403811c7daa0bc693bd9c8993ea4f2f6adc44cb6dabb34a03b075081b35c49b010141639177c90f2e3d7eca791da8da4894c0253235a7c5be0d312685790f58d864e943f20c2bb07a0b8ef082dd804be63ca1ced334986963931eb1b45997cd32f77701014177aae595711992ce355028c724205d4d3f92711e8d65fcd77b30c8a11808e8c478772153fbedc6902b6ebebf5f4c81230da2a9f372a773ef7bbbccf1e758aaf80100000000"
}