{
  "txid": "ca371c508eedf480c948d905fc079b3e5ee06bc49e9678a56a606438f98c9936",
  "version": 2,
  "locktime": 834637,
  "vin": [
    {
      "txid": "913e88cb1adf38fc8423c096f637da0b0037baf5796ad16fb9e53448e9a9f980",
      "vout": 17,
      "prevout": {
        "scriptpubkey": "0014fe8e6db0c2d1f595e4eb596752f847c62efe0048",
        "scriptpubkey_asm": "OP_0 OP_PUSHBYTES_20 fe8e6db0c2d1f595e4eb596752f847c62efe0048",
        "scriptpubkey_type": "v0_p2wpkh",
        "scriptpubkey_address": "bc1ql68xmvxz686ete8tt9n497z8cch0uqzg6drsrd",
        "value": 237870
      },
      "scriptsig": "",
      "scriptsig_asm": "",
      "witness": [
        "30440220286398ef2310271bc0e54be9011c1949d5b184f7e2c33d7b4bb28d8d72c6e3c20220724c1443512af727336e6879683947c41905093afaa2117a04e37e67b4e7b3e801",
        "02576cfe54ae9a3b21eeaecc4dc7d5d85c2d9ae1ce9653bc9bec5f500cbb49cc21"
      ],
      "is_coinbase": false,
      "sequence": 4294967294
    },
    {
      "txid": "4f9c0c4d2a5ec2056f5db421fb4c86164f8a62265c08cf192e810734f7fcbb91",
      "vout": 0,
      "prevout": {
        "scriptpubkey": "00149bbe3a1ff37c0338e6b2839d432f52f3f69afaff",
        "scriptpubkey_asm": "OP_0 OP_PUSHBYTES_20 9bbe3a1ff37c0338e6b2839d432f52f3f69afaff",
        "scriptpubkey_type": "v0_p2wpkh",
        "scriptpubkey_address": "bc1qnwlr58ln0spn3e4jsww5xt6j70mf47hlx58mnj",
        "value": 1029156
      },
      "scriptsig": "",
      "scriptsig_asm": "",
      "witness": [
        "304402202580a6ce9146fafbedcf435563cb09fa88e9d3e16d71cdc2b2c5c50526f6088602204a946efa97d1d4968cd220fd62ea11a49c3e427def9ed9b2a1ffcc46deb2594601",
        "03f64e2345e722c7bd4db7bfc563b1c89f759a56bd2a4f31e7bf5cf9b034e4ebc6"
      ],
      "is_coinbase": false,
      "sequence": 4294967294
    }
  ],
  "vout": [
    {
      "scriptpubkey": "001496d158595058798869593dfb7a882a253f14ed80",
      "scriptpubkey_asm": "OP_0 OP_PUSHBYTES_20 96d158595058798869593dfb7a882a253f14ed80",
      "scriptpubkey_type": "v0_p2wpkh",
      "scriptpubkey_address": "bc1qjmg4sk2stpucs62e8hah4zp2y5l3fmvqj0ygg6",
      "value": 956106
    },
    {
      "scriptpubkey": "0014c243a14aa7058edbf14f71d9c78a98152e636909",
      "scriptpubkey_asm": "OP_0 OP_PUSHBYTES_20 c243a14aa7058edbf14f71d9c78a98152e636909",
      "scriptpubkey_type": "v0_p2wpkh",
      "scriptpubkey_address": "bc1qcfp6zj48qk8dhu20w8vu0z5cz5hxx6gfnrlvl4",
      "value": 263080
    }
  ],
  "size": 370,
  "weight": 832,
  "fee": 47840,
  "status": {
    "confirmed": true,
    "block_height": 834638,
    "block_hash": "000000000000000000025f742c626208ac87e0b7d15054abb4a19ca2d735a54e",
    "block_time": 1710405325
  },
  "hex": "0200000000010280f9a9e94834e5b96fd16a79f5ba37000bda37f696c02384fc38df1acb883e911100000000feffffff91bbfcf73407812e19cf085c26628a4f16864cfb21b45d6f05c25e2a4d0c9c4f0000000000feffffff02ca960e000000000016001496d158595058798869593dfb7a882a253f14ed80a803040000000000160014c243a14aa7058edbf14f71d9c78a98152e636909024730440220286398ef2310271bc0e54be9011c1949d5b184f7e2c33d7b4bb28d8d72c6e3c20220724c1443512af727336e6879683947c41905093afaa2117a04e37e67b4e7b3e8012102576cfe54ae9a3b21eeaecc4dc7d5d85c2d9ae1ce9653bc9bec5f500cbb49cc210247304402202580a6ce9146fafbedcf435563cb09fa88e9d3e16d71cdc2b2c5c50526f6088602204a946efa97d1d4968cd220fd62ea11a49c3e427def9ed9b2a1ffcc46deb25946012103f64e2345e722c7bd4db7bfc563b1c89f759a56bd2a4f31e7bf5cf9b034e4ebc64dbc0c00"
}