{
  "txid": "ca4254ca8f99029236bf3e4061f66944eb8449e25ebacd0df5b08441afca8629",
  "version": 2,
  "locktime": 834637,
  "vin": [
    {
      "txid": "ddba2222af4af3e56a163ec73f85bfb804afd574d545f0d79fdb0c4c8c363f45",
      "vout": 0,
      "prevout": {
        "scriptpubkey": "a914893bb8299384c7998389b7f2731f08af0818370487",
        "scriptpubkey_asm": "OP_HASH160 OP_PUSHBYTES_20 893bb8299384c7998389b7f2731f08af08183704 OP_EQUAL",
        "scriptpubkey_type": "p2sh",
        "scriptpubkey_address": "3ECe3CZNDXUkMCuXeYbzbcy9Zb3KtQWz4w",
        "value": 400000
      },
      "scriptsig": "1600145e70791ce04ea540fe05a8ac3a36333c84e6f251",
      "scriptsig_asm": "OP_PUSHBYTES_22 00145e70791ce04ea540fe05a8ac3a36333c84e6f251",
      "witness": [
        "3044022047afbbe02f8e7b3415fcc37ea2944905d339616b823cc6ce79822d5fee1cc23f022003de23a3c40600e5254746e0eec5ac703641c0d37827c2e5732afeb5e35fd74f01",
        "033dc845321d0608877bb137bdf72c42444469d4612c420f5a8e91ba2a8396a83b"
      ],
      "is_coinbase": false,
      "sequence": 4294967294,
      "inner_redeemscript_asm": "OP_0 OP_PUSHBYTES_20 5e70791ce04ea540fe05a8ac3a36333c84e6f251"
    },
    {
      "txid": "5e81157b1b44263c76748d8c6e32b7e8d29ba6efa7f36465fe2d6d603cbc6933",
      "vout": 0,
      "prevout": {
        "scriptpubkey": "a91432af424390f00cdc3ae8d66447defff5a660674087",
        "scriptpubkey_asm": "OP_HASH160 OP_PUSHBYTES_20 32af424390f00cdc3ae8d66447defff5a6606740 OP_EQUAL",
        "scriptpubkey_type": "p2sh",
        "scriptpubkey_address": "36K1fLH92PwqSGxt3j9izDYg9NXLm6YqYx",
        "value": 5000000
      },
      "scriptsig": "160014f189879f30bf7e3f43c039a94219418475cd9584",
      "scriptsig_asm": "OP_PUSHBYTES_22 0014f189879f30bf7e3f43c039a94219418475cd9584",
      "witness": [
        "30440220728b2ad36310adb3ed3e6117221c438c8a859efc25b40486bd591521379db5ad022010b912f156ade183b3ae8b3ebfba7f3099574966f70f8746d1dbd41f54ef033601",
        "0247784fc24e322e1853b90df7e8bf5697e47eacbddaacd08fa4f227a0cb5a8cd9"
      ],
      "is_coinbase": false,
      "sequence": 4294967294,
      "inner_redeemscript_asm": "OP_0 OP_PUSHBYTES_20 f189879f30bf7e3f43c039a94219418475cd9584"
    },
    {
      "txid": "64cce8da7888d7b68650b64d95e199a28f3843b268296bccb7a25083cac37594",
      "vout": 0,
      "prevout": {
        "scriptpubkey": "a914e68c02aa0395edfc2c57bfa7c6424b4e88b7a52787",
        "scriptpubkey_asm": "OP_HASH160 OP_PUSHBYTES_20 e68c02aa0395edfc2c57bfa7c6424b4e88b7a527 OP_EQUAL",
        "scriptpubkey_type": "p2sh",
        "scriptpubkey_address": "3Ni34kwMVTkbe8Tk1UwDuSwosc4zyDGuWb",
        "value": 10000000
      },
      "scriptsig": "160014cbf28ee9d13bf5f82d4b4659c746c19ca7a45f3d",
      "scriptsig_asm": "OP_PUSHBYTES_22 0014cbf28ee9d13bf5f82d4b4659c746c19ca7a45f3d",
      "witness": [
        "3044022075bfd25053a8962d9e4c05d693220975c16e1d3037355f6e224d05d6d4c0548302204d6da2c7d0140d4cfa73d43a6d285640b92163a5db54baad4f878544e4283e9001",
        "02e52ea67006a0fcf48f504376bc64e5493b7ebe854dfcabe9652646f7f63a5805"
      ],
      "is_coinbase": false,
      "sequence": 4294967294,
      "inner_redeemscript_asm": "OP_0 OP_PUSHBYTES_20 cbf28ee9d13bf5f82d4b4659c746c19ca7a45f3d"
    },
    {
      "txid": "72f3e183192fd37bc2a77d24b70b10ea562b70a507bbca510f146be68209aef4",
      "vout": 0,
      "prevout": {
        "scriptpubkey": "a9141da10c6a0b0685c7d824df15687e1ca99885f5bf87",
        "scriptpubkey_asm": "OP_HASH160 OP_PUSHBYTES_20 1da10c6a0b0685c7d824df15687e1ca99885f5bf OP_EQUAL",
        "scriptpubkey_type": "p2sh",
        "scriptpubkey_address": "34PgSxBpAyXZ8C2mVRghoFH7XgHwvntL5y",
        "value": 273700
      },
      "scriptsig": "160014eadbcb6c3d02cb9efc356fb3b6ee3401700e1c22",
      "scriptsig_asm": "OP_PUSHBYTES_22 0014eadbcb6c3d02cb9efc356fb3b6ee3401700e1c22",
      "witness": [
        "30440220158e76dd3abad9a84f9cbda75d8b155c7854df8eaf23b685e8f7fb5e34cd347702202d22e57fa327eeb2351cf67b15c1c6533cfb11d2407834d0d789aed57934dc7801",
        "02de227d80b65e87b1d0c5e41cbf328cb36d646415941397dd058095db0988b4ad"
      ],
      "is_coinbase": false,
      "sequence": 4294967294,
      "inner_redeemscript_asm": "OP_0 OP_PUSHBYTES_20 eadbcb6c3d02cb9efc356fb3b6ee3401700e1c22"
    },
    {
      "txid": "b348ec9b91bed7bb0627455eee322f4189a916de66f07033bb3f690b03c7b4ad",
      "vout": 0,
      "prevout": {
        "scriptpubkey": "a914e012d6c09853cfd55d3eddd47843f6f7e06acc4387",
        "scriptpubkey_asm": "OP_HASH160 OP_PUSHBYTES_20 e012d6c09853cfd55d3eddd47843f6f7e06acc43 OP_EQUAL",
        "scriptpubkey_type": "p2sh",
        "scriptpubkey_address": "3N7orTjsqdMW4fzbFjALxkHRQ7VTNT18QM",
        "value": 49996941
      },
      "scriptsig": "160014831ca72e8b53886699a8f81178dc702131c99c41",
      "scriptsig_asm": "OP_PUSHBYTES_22 0014831ca72e8b53886699a8f81178dc702131c99c41",
      "witness": [
        "3044022031d1360451c16d0d5eb5a164ac4699d0c78e1f09956b847c09d336dfe11be421022054a383f08e488a02b2f72e7e894891f6fa8f354e24f17a31349894cfd053148701",
        "03b3f646819212451b8afadb6263ad7621ea2841192e1bf1628fd2db1f53da6b45"
      ],
      "is_coinbase": false,
      "sequence": 4294967294,
      "inner_redeemscript_asm": "OP_0 OP_PUSHBYTES_20 831ca72e8b53886699a8f81178dc702131c99c41"
    },
    {
      "txid": "4dbbd46e849c2e40751b99cf32a9bfac22e6d667c25c69aa1639eefc21003cb9",
      "vout": 0,
      "prevout": {
        "scriptpubkey": "a914c312572eda02610032245e1e4e44c5cb50f8f62887",
        "scriptpubkey_asm": "OP_HASH160 OP_PUSHBYTES_20 c312572eda02610032245e1e4e44c5cb50f8f628 OP_EQUAL",
        "scriptpubkey_type": "p2sh",
        "scriptpubkey_address": "3KUTfGuVSx7auTyyY6na6fuj2MCpAJXcqW",
        "value": 161800
      },
      "scriptsig": "160014bf8fd29e61c3b4413b3009a9cf1768df8bcc7ca6",
      "scriptsig_asm": "OP_PUSHBYTES_22 0014bf8fd29e61c3b4413b3009a9cf1768df8bcc7ca6",
      "witness": [
        "304402202577158219c0eda765cd923ec6dc4e5e7ec4f6e903b8a88c7ae07546b810c383022061345760d62139fa63e76b8ce4b8d53e97657b56a44f7f4041f46029281dedf001",
        "024023b2ce16703c85c1bc25902a592dbacf28a55f93470c1fdd265424893ac3a8"
      ],
      "is_coinbase": false,
      "sequence": 4294967294,
      "inner_redeemscript_asm": "OP_0 OP_PUSHBYTES_20 bf8fd29e61c3b4413b3009a9cf1768df8bcc7ca6"
    },
    {
      "txid": "a25f3d0d72b2b3715812deec558e796c56a0c7ca548cc0c3d121d7f7b2c25628",
      "vout": 0,
      "prevout": {
        "scriptpubkey": "a9140bb111677b91843e00d9d49c5de2abfefc56738287",
        "scriptpubkey_asm": "OP_HASH160 OP_PUSHBYTES_20 0bb111677b91843e00d9d49c5de2abfefc567382 OP_EQUAL",
        "scriptpubkey_type": "p2sh",
        "scriptpubkey_address": "32kqUZ3BXz8ttMfeKNPaJaU5VmvSsENQUm",
        "value": 1277800
      },
      "scriptsig": "160014d7bf61df0d4ce4bf9c74e4380d5cdac9f05e6378",
      "scriptsig_asm": "OP_PUSHBYTES_22 0014d7bf61df0d4ce4bf9c74e4380d5cdac9f05e6378",
      "witness": [
        "304402205f7c37ee88b8322055116a5e1a2a3fa39e1fba0d2c57a107312cbc89834136fc022077773990b68a9a06a24016f687cc4d92c0188db40d69fdfb624ba8e54743465c01",
        "0211b19f150f2bbd552e6b2c08d363725cb31665e99e930ff5d7bab9e11501ff53"
      ],
      "is_coinbase": false,
      "sequence": 4294967294,
      "inner_redeemscript_asm": "OP_0 OP_PUSHBYTES_20 d7bf61df0d4ce4bf9c74e4380d5cdac9f05e6378"
    },
    {
      "txid": "3a8437f0aeaf54950d6f08ed7ce8f5ae65aef219fe1520e04b63c12072b6eaac",
      "vout": 0,
      "prevout": {
        "scriptpubkey": "a914edcb4fa739fd40f18398842bf96ba3589b4156c087",
        "scriptpubkey_asm": "OP_HASH160 OP_PUSHBYTES_20 edcb4fa739fd40f18398842bf96ba3589b4156c0 OP_EQUAL",
        "scriptpubkey_type": "p2sh",
        "scriptpubkey_address": "3PNMdK9CQw2RmfKKtmZiQrjLqKqjeYADpi",
        "value": 143010
      },
      "scriptsig": "160014e417147095d63f88051d56fbe3c6bde3ac5916e0",
      "scriptsig_asm": "OP_PUSHBYTES_22 0014e417147095d63f88051d56fbe3c6bde3ac5916e0",
      "witness": [
        "3044022043ca3294a5c47ff22a767740d03c38bf0a376b2d4b55358e29873916aee7d563022071220d00fc5b71528cade3cc7d0b0c21c4f7cc04634d9cb2ce0f382c8a74730401",
        "0387ce64f0d8196737d52baacfbe5ab356b90c7052bb82f7cf33e6e8c0835c406e"
      ],
      "is_coinbase": false,
      "sequence": 4294967294,
      "inner_redeemscript_asm": "OP_0 OP_PUSHBYTES_20 e417147095d63f88051d56fbe3c6bde3ac5916e0"
    },
    {
      "txid": "ce33b6702d8f3ff4a7d9f6fa75e975de316151b7df42245531f01db44559f182",
      "vout": 1,
      "prevout": {
        "scriptpubkey": "a9145a6d069885221037eab1939851fa9d22a3c59ca787",
        "scriptpubkey_asm": "OP_HASH160 OP_PUSHBYTES_20 5a6d069885221037eab1939851fa9d22a3c59ca7 OP_EQUAL",
        "scriptpubkey_type": "p2sh",
        "scriptpubkey_address": "39w9M3wGRi2XFaBkC6aze9we6UEgUWukzs",
        "value": 218222857
      },
      "scriptsig": "1600142bf3d49e9948964d4638f85327857037a4d7d0d8",
      "scriptsig_asm": "OP_PUSHBYTES_22 00142bf3d49e9948964d4638f85327857037a4d7d0d8",
      "witness": [
        "304402205e2a1a127ff0ec84aa18a263606e443169d046603e8d713806ec7e39aef2093f02201412336b618e3a700caceebf675a674d9ac78adf98bf44e4e97392b1f62251ba01",
        "032b317da744ad14f2f1409910a0d0a1e24e6aee506f8918dbf1ca73d27952cbc3"
      ],
      "is_coinbase": false,
      "sequence": 4294967294,
      "inner_redeemscript_asm": "OP_0 OP_PUSHBYTES_20 2bf3d49e9948964d4638f85327857037a4d7d0d8"
    },
    {
      "txid": "311e1af1f20fe9ed7d3a5b9756c6469058899fd3b25ca0f6d8b8df7d2f8262ac",
      "vout": 0,
      "prevout": {
        "scriptpubkey": "a9146c6addeba134eb858e584a7a7387f591401b496e87",
        "scriptpubkey_asm": "OP_HASH160 OP_PUSHBYTES_20 6c6addeba134eb858e584a7a7387f591401b496e OP_EQUAL",
        "scriptpubkey_type": "p2sh",
        "scriptpubkey_address": "3BaGvW5fcpPhXNduPFq2DbAvVMek5kefMq",
        "value": 1498128
      },
      "scriptsig": "1600140f33d79b61abec32be93009383ff34de01f74c01",
      "scriptsig_asm": "OP_PUSHBYTES_22 00140f33d79b61abec32be93009383ff34de01f74c01",
      "witness": [
        "30440220077de8b35125560db5a54af4d54d54668b94e8302a558a36fadbd355362c524902206d9bed0b873244d7c4140bd61ea393e063c8a7dd050053ffaca3a1bac966cbed01",
        "025ae4f104c170f46218be739b77c2ab757acffd51e13ec80735e2b0ad4a6d5c4a"
      ],
      "is_coinbase": false,
      "sequence": 4294967294,
      "inner_redeemscript_asm": "OP_0 OP_PUSHBYTES_20 0f33d79b61abec32be93009383ff34de01f74c01"
    },
    {
      "txid": "0f47aa9ee2d69734d49b660bee3b816672f794333e9f87d588cf45a4a10ba483",
      "vout": 0,
      "prevout": {
        "scriptpubkey": "a914d192388c5b721e121562f49b53d96ef5ed785ea387",
        "scriptpubkey_asm": "OP_HASH160 OP_PUSHBYTES_20 d192388c5b721e121562f49b53d96ef5ed785ea3 OP_EQUAL",
        "scriptpubkey_type": "p2sh",
        "scriptpubkey_address": "3Lo8KEzFxLv9buTQc1VJvxHav8dsLNd6Kh",
        "value": 1579160
      },
      "scriptsig": "160014b0f4857ec832810159503b6845b0979f700de31a",
      "scriptsig_asm": "OP_PUSHBYTES_22 0014b0f4857ec832810159503b6845b0979f700de31a",
      "witness": [
        "3044022079f1a6a7a559f6191a05d8fb98c00cba29af75726a08a183437b55273e2f75cc022012ef2c1673c9e8b52b7764746d45dcba006842b1cf33a1ced4eca9866fae9f9e01",
        "0370716810f6b88679d16cde6e1f1e91b216b95112e123aa88c6bcf0801b3b3568"
      ],
      "is_coinbase": false,
      "sequence": 4294967294,
      "inner_redeemscript_asm": "OP_0 OP_PUSHBYTES_20 b0f4857ec832810159503b6845b0979f700de31a"
    },
    {
      "txid": "0f4b941a6272af212aaf2aad255d3538a9b25d1705cc7578af25f7db6b3f4cec",
      "vout": 0,
      "prevout": {
        "scriptpubkey": "a914a14e6e7bcfa071553483bf077cd07e99f97f1a3287",
        "scriptpubkey_asm": "OP_HASH160 OP_PUSHBYTES_20 a14e6e7bcfa071553483bf077cd07e99f97f1a32 OP_EQUAL",
        "scriptpubkey_type": "p2sh",
        "scriptpubkey_address": "3GPvfx3qrhhmYtFGhxvVJhg3H5AyLt7Hgo",
        "value": 39534100
      },
      "scriptsig": "1600145d3043f6da4db2897c3b9e182c343b639ed237c5",
      "scriptsig_asm": "OP_PUSHBYTES_22 00145d3043f6da4db2897c3b9e182c343b639ed237c5",
      "witness": [
        "304402207f221956ca5118db538281a9e506fde90945842020b8a26e2c8d80aaa8813c74022006d64cdf847bc26aa01a0706014d44c746d6babb6a7eb0456fc0769910921b2301",
        "034d42e45cf71332dfb519bd16c82b063bcdb1d4d291f7404b3d1011f0152d6d24"
      ],
      "is_coinbase": false,
      "sequence": 4294967294,
      "inner_redeemscript_asm": "OP_0 OP_PUSHBYTES_20 5d3043f6da4db2897c3b9e182c343b639ed237c5"
    },
    {
      "txid": "a598366bddb206c48fb8128499fb58395690c01e6ec31f99556b5c5fec815033",
      "vout": 0,
      "prevout": {
        "scriptpubkey": "a914e8ae80f6b5a838a97d9a557b07aa5dd0631da85d87",
        "scriptpubkey_asm": "OP_HASH160 OP_PUSHBYTES_20 e8ae80f6b5a838a97d9a557b07aa5dd0631da85d OP_EQUAL",
        "scriptpubkey_type": "p2sh",
        "scriptpubkey_address": "3NuKjnLgQt23tXrwmp8UTT9ffy6irViUYr",
        "value": 3693895
      },
      "scriptsig": "1600145fff3c140961a1325a633838a5296032cac043cb",
      "scriptsig_asm": "OP_PUSHBYTES_22 00145fff3c140961a1325a633838a5296032cac043cb",
      "witness": [
        "304402205f48287db733499fc82d13b950869e22234f96a53bf2d10ae38aa5008fda76130220328c80ba7b06c40b142e44f327a0ec4ed8c3940cef9b1c375b1c77cc88409eca01",
        "021eb44113c1890af4502e0348f7caa05f1226663507b5bb28775c9356cddb58ec"
      ],
      "is_coinbase": false,
      "sequence": 4294967294,
      "inner_redeemscript_asm": "OP_0 OP_PUSHBYTES_20 5fff3c140961a1325a633838a5296032cac043cb"
    },
    {
      "txid": "322f9a351be8db35ca84f9c0d6e933463ecf551f6856678cd185ae36bc07939f",
      "vout": 0,
      "prevout": {
        "scriptpubkey": "a91427c31a7013167556ae2e0fc2404dd2d802853d3087",
        "scriptpubkey_asm": "OP_HASH160 OP_PUSHBYTES_20 27c31a7013167556ae2e0fc2404dd2d802853d30 OP_EQUAL",
        "scriptpubkey_type": "p2sh",
        "scriptpubkey_address": "35KG13Ag2QuC4JnUay7MWxsHEvvptGUxpL",
        "value": 490982
      },
      "scriptsig": "160014840de58fdb8a7b96ff045338cd08e0c0392c6241",
      "scriptsig_asm": "OP_PUSHBYTES_22 0014840de58fdb8a7b96ff045338cd08e0c0392c6241",
      "witness": [
        "304402207d719a9098e451881a91abaacdb00474e7db2197530055660f49bc485f9416940220186b8b5be4c0a32f760d77cb8fa1c1e12e7c5e73651a3402c99729274c132acb01",
        "03219dbc19d01046bec07031337d2e2ad3dbd06b3e1a9d5db24a4366ed71552973"
      ],
      "is_coinbase": false,
      "sequence": 4294967294,
      "inner_redeemscript_asm": "OP_0 OP_PUSHBYTES_20 840de58fdb8a7b96ff045338cd08e0c0392c6241"
    },
    {
      "txid": "f5884fe4aaeb241226e530b22c5fd1381a01107115166b3e4a4f0483bc9d606e",
      "vout": 58,
      "prevout": {
        "scriptpubkey": "a914c8b4e93f25d73f779bdb2ebbf4e490f7043d2e3387",
        "scriptpubkey_asm": "OP_HASH160 OP_PUSHBYTES_20 c8b4e93f25d73f779bdb2ebbf4e490f7043d2e33 OP_EQUAL",
        "scriptpubkey_type": "p2sh",
        "scriptpubkey_address": "3KzFnqNYeikf5HNYvh3iAJV61YCkhtc7Fy",
        "value": 95411
      },
      "scriptsig": "16001461368b6a721dac1d32578065eafef614a2f01b6d",
      "scriptsig_asm": "OP_PUSHBYTES_22 001461368b6a721dac1d32578065eafef614a2f01b6d",
      "witness": [
        "3044022053df71bfee480f02e34b60b88fa9878d9834c66f0bf034747497605e56cd7f1002205cf4e7029dc5805e22e912413c960e9ca7cb70fde1503257e847c2bf83281ec501",
        "02ca214a5b0b011fbfa45eda1ca837a7687967345ab9a36fa14e51cf4e0d86b819"
      ],
      "is_coinbase": false,
      "sequence": 4294967294,
      "inner_redeemscript_asm": "OP_0 OP_PUSHBYTES_20 61368b6a721dac1d32578065eafef614a2f01b6d"
    },
    {
      "txid": "cc2aba9c26a3ccec555aef7708b97cc23f735735986b36b2545091612fcef0b1",
      "vout": 0,
      "prevout": {
        "scriptpubkey": "a9145a6d069885221037eab1939851fa9d22a3c59ca787",
        "scriptpubkey_asm": "OP_HASH160 OP_PUSHBYTES_20 5a6d069885221037eab1939851fa9d22a3c59ca7 OP_EQUAL",
        "scriptpubkey_type": "p2sh",
        "scriptpubkey_address": "39w9M3wGRi2XFaBkC6aze9we6UEgUWukzs",
        "value": 200000000
      },
      "scriptsig": "1600142bf3d49e9948964d4638f85327857037a4d7d0d8",
      "scriptsig_asm": "OP_PUSHBYTES_22 00142bf3d49e9948964d4638f85327857037a4d7d0d8",
      "witness": [
        "304402201ef4dc0ec3627a9ffd8f75f097dd187b028c2ff1b04ddc048c0c12ac7bbdda02022053038750936a0a8a3e6582d9f50e7709b769f91895a6648f702353564b30949501",
        "032b317da744ad14f2f1409910a0d0a1e24e6aee506f8918dbf1ca73d27952cbc3"
      ],
      "is_coinbase": false,
      "sequence": 4294967294,
      "inner_redeemscript_asm": "OP_0 OP_PUSHBYTES_20 2bf3d49e9948964d4638f85327857037a4d7d0d8"
    },
    {
      "txid": "b750e064056ef69b5da3eb5f1e79b24415e21d63c21b54670d89d7f9933eaad8",
      "vout": 2,
      "prevout": {
        "scriptpubkey": "a914befb3c52d18a75f9cde9367c7d2afda7c44c8ba887",
        "scriptpubkey_asm": "OP_HASH160 OP_PUSHBYTES_20 befb3c52d18a75f9cde9367c7d2afda7c44c8ba8 OP_EQUAL",
        "scriptpubkey_type": "p2sh",
        "scriptpubkey_address": "3K6qH9dyNByGiY2WenehEmtQJdufUAPKid",
        "value": 42000
      },
      "scriptsig": "1600148bccf832c36b841e83395a2cd5b732472a3a8547",
      "scriptsig_asm": "OP_PUSHBYTES_22 00148bccf832c36b841e83395a2cd5b732472a3a8547",
      "witness": [
        "304402207c6a073892be08730922378257e2b73a7e98d4be46148294852b950d774c997c022063cbfe7c0539530424829e3f9045d1489a922a70c8891eb6a57f94776852944601",
        "02b228ec48645d37b40cfac5ac4adc787ef33709b6809fd07f8aad6353480e15e4"
      ],
      "is_coinbase": false,
      "sequence": 4294967294,
      "inner_redeemscript_asm": "OP_0 OP_PUSHBYTES_20 8bccf832c36b841e83395a2cd5b732472a3a8547"
    },
    {
      "txid": "09a23c0c8614d61e58391351cf4a435b37f27653ed6e7393fd5ed02c67f1bcc4",
      "vout": 0,
      "prevout": {
        "scriptpubkey": "a9146dc1cef00f655018841b47983c07bd2fb9932c4b87",
        "scriptpubkey_asm": "OP_HASH160 OP_PUSHBYTES_20 6dc1cef00f655018841b47983c07bd2fb9932c4b OP_EQUAL",
        "scriptpubkey_type": "p2sh",
        "scriptpubkey_address": "3BhMkVaXBGeb2YkGw8hVFVTsGtbr7PA3dg",
        "value": 1629628
      },
      "scriptsig": "160014635e7297606da52333e12786dc8132e1b54b7366",
      "scriptsig_asm": "OP_PUSHBYTES_22 0014635e7297606da52333e12786dc8132e1b54b7366",
      "witness": [
        "304402200e184705636e3927d8ece500af9df0536387039048d36f01df6dc53009cb0697022025952732548a9842722697ef71d6336a018c888dcc577e599fa45cd22c0708a701",
        "037486f8ff855036501765d1b9a6671f6c20003f26ab474a58fbc775e8cfee86f0"
      ],
      "is_coinbase": false,
      "sequence": 4294967294,
      "inner_redeemscript_asm": "OP_0 OP_PUSHBYTES_20 635e7297606da52333e12786dc8132e1b54b7366"
    },
    {
      "txid": "fba8b18d160665636e18cdb4b044ac204c23a17c0da7ee13056030c677fa95df",
      "vout": 1,
      "prevout": {
        "scriptpubkey": "a9140718f515f5ba0352fb81dd3406b6c3f405bd7a0887",
        "scriptpubkey_asm": "OP_HASH160 OP_PUSHBYTES_20 0718f515f5ba0352fb81dd3406b6c3f405bd7a08 OP_EQUAL",
        "scriptpubkey_type": "p2sh",
        "scriptpubkey_address": "32LYYxL8dZq9eEYJsv8HsE3xEmz82uxfw8",
        "value": 9812
      },
      "scriptsig": "160014dcbb456eb6beddbff37a48016b9163c9c6dd6805",
      "scriptsig_asm": "OP_PUSHBYTES_22 0014dcbb456eb6beddbff37a48016b9163c9c6dd6805",
      "witness": [
        "30440220683b1ffbf23cc6d419506129d4bfac27dad32163de36f158309d8c3175f9e1eb02201f3c28a5e3d1edb9cf826a054294c1a4531cc7ad380dcbfbd12b8356de654ee701",
        "030aef2023410fb02060575a8dd3afd257a52f6ae93d524ed1633dfba072a39738"
      ],
      "is_coinbase": false,
      "sequence": 4294967294,
      "inner_redeemscript_asm": "OP_0 OP_PUSHBYTES_20 dcbb456eb6beddbff37a48016b9163c9c6dd6805"
    },
    {
      "txid": "3dc3bdbbea0185d72a1f258d6e6a37ab8016b348f114f566c83008c7780beeef",
      "vout": 0,
      "prevout": {
        "scriptpubkey": "a9140a1d25d3e56a3b8cfa58467deee43f535d775edf87",
        "scriptpubkey_asm": "OP_HASH160 OP_PUSHBYTES_20 0a1d25d3e56a3b8cfa58467deee43f535d775edf OP_EQUAL",
        "scriptpubkey_type": "p2sh",
        "scriptpubkey_address": "32cVbge3UppkZvK2rNW6wPBT4ZVwjDWNcN",
        "value": 100000000
      },
      "scriptsig": "160014264e0243550d3b37b3be3af43ec6f898d54adc85",
      "scriptsig_asm": "OP_PUSHBYTES_22 0014264e0243550d3b37b3be3af43ec6f898d54adc85",
      "witness": [
        "304402204097a72d591e36196e0b9cd92201169cf84b2124f52b915d8ede838d2299d00302207dc390c9118cd2a1193625ad38887e3190173b089b9d0e725bfdbdd63ed7cafc01",
        "0202817639fd5bbdc8993a9d1a8b224c2b482199fcf963436a9c741b98713f378b"
      ],
      "is_coinbase": false,
      "sequence": 4294967294,
      "inner_redeemscript_asm": "OP_0 OP_PUSHBYTES_20 264e0243550d3b37b3be3af43ec6f898d54adc85"
    },
    {
      "txid": "8db531c3c9d1583f3d83c3fe52bdb7c56b5d1516bcaaea8428ddb077df36a1f8",
      "vout": 0,
      "prevout": {
        "scriptpubkey": "a914e9bb077dc8af56da823ea87b68384f0f96368fc387",
        "scriptpubkey_asm": "OP_HASH160 OP_PUSHBYTES_20 e9bb077dc8af56da823ea87b68384f0f96368fc3 OP_EQUAL",
        "scriptpubkey_type": "p2sh",
        "scriptpubkey_address": "3NzsRG783N5CKWKFJrD3nK1QNzWVc6DESM",
        "value": 5215021
      },
      "scriptsig": "160014e67ba421771a764af5baa45c866feaf827ebcfa9",
      "scriptsig_asm": "OP_PUSHBYTES_22 0014e67ba421771a764af5baa45c866feaf827ebcfa9",
      "witness": [
        "3044022036ca4d09d9bb626283cb43a215c0f0c3ed5085ddd49eca242784f38aa21c50710220751ddf0acc8888caeff6113be59a64dea991c9e95f483f6662fe44f75a14dff801",
        "035060fe0f9f890cc60e4f099792366b663254cac43e935fb071cf2a352e56fec5"
      ],
      "is_coinbase": false,
      "sequence": 4294967294,
      "inner_redeemscript_asm": "OP_0 OP_PUSHBYTES_20 e67ba421771a764af5baa45c866feaf827ebcfa9"
    },
    {
      "txid": "bae823165181c9fd99e807d8f26ae0b24378a503d83ce4803eb3f57c08f469af",
      "vout": 1,
      "prevout": {
        "scriptpubkey": "a914f59b5860a8e7e80744ffa8a78ceead0a2da4735687",
        "scriptpubkey_asm": "OP_HASH160 OP_PUSHBYTES_20 f59b5860a8e7e80744ffa8a78ceead0a2da47356 OP_EQUAL",
        "scriptpubkey_type": "p2sh",
        "scriptpubkey_address": "3Q5fa7n44G4VsvWj8djJuK6WiQYFin5MNZ",
        "value": 409200
      },
      "scriptsig": "16001452821b055c0af328a56efe12e1f26bcac26ccf43",
      "scriptsig_asm": "OP_PUSHBYTES_22 001452821b055c0af328a56efe12e1f26bcac26ccf43",
      "witness": [
        "304402203c206b7c2f506ff02d9481f4f7a18e4d0bc2aeb66b44dba8842a51d9afdfa6c202206f3659d05be4be3c61d3fa5a0ba8025a4e60972cccaf34779d77699a34f35f2b01",
        "033b36081756519a93e0e59466f9ca2d91d34c7a34ab7f11e8c6462ff75e46aba2"
      ],
      "is_coinbase": false,
      "sequence": 4294967294,
      "inner_redeemscript_asm": "OP_0 OP_PUSHBYTES_20 52821b055c0af328a56efe12e1f26bcac26ccf43"
    },
    {
      "txid": "ce33b6702d8f3ff4a7d9f6fa75e975de316151b7df42245531f01db44559f182",
      "vout": 0,
      "prevout": {
        "scriptpubkey": "a9145a6d069885221037eab1939851fa9d22a3c59ca787",
        "scriptpubkey_asm": "OP_HASH160 OP_PUSHBYTES_20 5a6d069885221037eab1939851fa9d22a3c59ca7 OP_EQUAL",
        "scriptpubkey_type": "p2sh",
        "scriptpubkey_address": "39w9M3wGRi2XFaBkC6aze9we6UEgUWukzs",
        "value": 316956583
      },
      "scriptsig": "1600142bf3d49e9948964d4638f85327857037a4d7d0d8",
      "scriptsig_asm": "OP_PUSHBYTES_22 00142bf3d49e9948964d4638f85327857037a4d7d0d8",
      "witness": [
        "304402204caedbf4108892537cfe98ed808829583d219b546e9b904092d8a7bf0b2f72b4022026125523d81c4a9f38ad9cb77fa95b90bbf714cccf8b4b4f57b4ab6d4349751d01",
        "032b317da744ad14f2f1409910a0d0a1e24e6aee506f8918dbf1ca73d27952cbc3"
      ],
      "is_coinbase": false,
      "sequence": 4294967294,
      "inner_redeemscript_asm": "OP_0 OP_PUSHBYTES_20 2bf3d49e9948964d4638f85327857037a4d7d0d8"
    },
    {
      "txid": "07717db5c0356a4d5efd3b22653799fee10933a41c5eb6f2daca0e1fa9d26d1e",
      "vout": 2,
      "prevout": {
        "scriptpubkey": "a914dc4a3d5b41b568841c2ae36a80fa893a7ab4cbfd87",
        "scriptpubkey_asm": "OP_HASH160 OP_PUSHBYTES_20 dc4a3d5b41b568841c2ae36a80fa893a7ab4cbfd OP_EQUAL",
        "scriptpubkey_type": "p2sh",
        "scriptpubkey_address": "3MmoX1VtxBnM3YXpibvyC47VybvfnzbpVJ",
        "value": 940000
      },
      "scriptsig": "1600142358a9b2010a20df492a98b73f5135d27668deaa",
      "scriptsig_asm": "OP_PUSHBYTES_22 00142358a9b2010a20df492a98b73f5135d27668deaa",
      "witness": [
        "3044022034b68664e4ec7b84bb1672d6f9060752e5df1a48982c7e678f7181978f7234ea022050db771c92a4f432d9eb3befc8320d315a896ce0131ad3358a49212a1adbcd8f01",
        "0334b94f7295b072defcacca5008c9d6fbd0b3d883b149d9132782f3126e08ba77"
      ],
      "is_coinbase": false,
      "sequence": 4294967294,
      "inner_redeemscript_asm": "OP_0 OP_PUSHBYTES_20 2358a9b2010a20df492a98b73f5135d27668deaa"
    },
    {
      "txid": "67175e1d05aaef65739eb6578766cb0d7adda016ff289290b2a47f41520ec349",
      "vout": 3,
      "prevout": {
        "scriptpubkey": "a914fd9bbf6867cfafaef177a4b0f7d61484cf046e6f87",
        "scriptpubkey_asm": "OP_HASH160 OP_PUSHBYTES_20 fd9bbf6867cfafaef177a4b0f7d61484cf046e6f OP_EQUAL",
        "scriptpubkey_type": "p2sh",
        "scriptpubkey_address": "3QoyTcfxkSTryCGmNB2LxWf2A5dhAfQ3NA",
        "value": 125396
      },
      "scriptsig": "1600149075bf0f1edc32b97df479f09380b555670b2ca5",
      "scriptsig_asm": "OP_PUSHBYTES_22 00149075bf0f1edc32b97df479f09380b555670b2ca5",
      "witness": [
        "3044022007f1599469b1af62530a82292bce82e660d868cb5605228944a74572e98a979402205dc48bbf1d14ac8052a33279c6cb990d36bb267bdc612766db13f5f98dafc09d01",
        "030a9931e0184658c427e0ede2263ab498029d00640b3667300f53ec12c024db29"
      ],
      "is_coinbase": false,
      "sequence": 4294967294,
      "inner_redeemscript_asm": "OP_0 OP_PUSHBYTES_20 9075bf0f1edc32b97df479f09380b555670b2ca5"
    },
    {
      "txid": "984842b669decd20b95879d64933e1c7ad54d698eba4c0fc864aac31068d6964",
      "vout": 7,
      "prevout": {
        "scriptpubkey": "a914228e8a24ef3919755e8310943c6153e3e9ea6f5987",
        "scriptpubkey_asm": "OP_HASH160 OP_PUSHBYTES_20 228e8a24ef3919755e8310943c6153e3e9ea6f59 OP_EQUAL",
        "scriptpubkey_type": "p2sh",
        "scriptpubkey_address": "34qjetjkCAkWCw3soo36pNBojQSsumgEWL",
        "value": 2304255
      },
      "scriptsig": "16001453310fff854f6f3ae573ee5db43a4da83dfce2f4",
      "scriptsig_asm": "OP_PUSHBYTES_22 001453310fff854f6f3ae573ee5db43a4da83dfce2f4",
      "witness": [
        "304402203252a41bf99f0e0e79b59af7e97af5920a0b1e77b906190ecfab19326c6e7ca302205077e93af881cf02b4c8f7399639117336b2f04c0fcc29d6b4185f7b6a47d31d01",
        "03d678258e0383662dfd7972068743f37c06b28e291917be147ff8749028a1c28b"
      ],
      "is_coinbase": false,
      "sequence": 4294967294,
      "inner_redeemscript_asm": "OP_0 OP_PUSHBYTES_20 53310fff854f6f3ae573ee5db43a4da83dfce2f4"
    }
  ],
  "vout": [
    {
      "scriptpubkey": "a9141945832368414ba813050a0ce5d907f0dfc9f21f87",
      "scriptpubkey_asm": "OP_HASH160 OP_PUSHBYTES_20 1945832368414ba813050a0ce5d907f0dfc9f21f OP_EQUAL",
      "scriptpubkey_type": "p2sh",
      "scriptpubkey_address": "33ze68qZoBE9R4uMtRQGNnvgFTYN4sPBUq",
      "value": 959961287
    }
  ],
  "size": 4490,
  "weight": 9608,
  "fee": 38392,
  "status": {
    "confirmed": true,
    "block_height": 834638,
    "block_hash": "000000000000000000025f742c626208ac87e0b7d15054abb4a19ca2d735a54e",
    "block_time": 1710405325
  },
  "hex": "0200000000011a453f368c4c0cdb9fd7f045d574d5af04b8bf853fc73e166ae5f34aaf2222badd00000000171600145e70791ce04ea540fe05a8ac3a36333c84e6f251feffffff3369bc3c606d2dfe6564f3a7efa69bd2e8b7326e8c8d74763c26441b7b15815e0000000017160014f189879f30bf7e3f43c039a94219418475cd9584feffffff9475c3ca8350a2b7cc6b2968b243388fa299e1954db65086b6d78878dae8cc640000000017160014cbf28ee9d13bf5f82d4b4659c746c19ca7a45f3dfefffffff4ae0982e66b140f51cabb07a5702b56ea100bb7247da7c27bd32f1983e1f3720000000017160014eadbcb6c3d02cb9efc356fb3b6ee3401700e1c22feffffffadb4c7030b693fbb3370f066de16a989412f32ee5e452706bbd7be919bec48b30000000017160014831ca72e8b53886699a8f81178dc702131c99c41feffffffb93c0021fcee3916aa695cc267d6e622acbfa932cf991b75402e9c846ed4bb4d0000000017160014bf8fd29e61c3b4413b3009a9cf1768df8bcc7ca6feffffff2856c2b2f7d721d1c3c08c54cac7a0566c798e55ecde125871b3b2720d3d5fa20000000017160014d7bf61df0d4ce4bf9c74e4380d5cdac9f05e6378feffffffaceab67220c1634be02015fe19f2ae65aef5e87ced086f0d9554afaef037843a0000000017160014e417147095d63f88051d56fbe3c6bde3ac5916e0feffffff82f15945b41df031552442dfb7516131de75e975faf6d9a7f43f8f2d70b633ce01000000171600142bf3d49e9948964d4638f85327857037a4d7d0d8feffffffac62822f7ddfb8d8f6a05cb2d39f89589046c656975b3a7dede90ff2f11a1e3100000000171600140f33d79b61abec32be93009383ff34de01f74c01feffffff83a40ba1a445cf88d5879f3e3394f77266813bee0b669bd43497d6e29eaa470f0000000017160014b0f4857ec832810159503b6845b0979f700de31afeffffffec4c3f6bdbf725af7875cc05175db2a938355d25ad2aaf2a21af72621a944b0f00000000171600145d3043f6da4db2897c3b9e182c343b639ed237c5feffffff335081ec5f5c6b55991fc36e1ec090563958fb998412b88fc406b2dd6b3698a500000000171600145fff3c140961a1325a633838a5296032cac043cbfeffffff9f9307bc36ae85d18c6756681f55cf3e4633e9d6c0f984ca35dbe81b359a2f320000000017160014840de58fdb8a7b96ff045338cd08e0c0392c6241feffffff6e609dbc83044f4a3e6b16157110011a38d15f2cb230e5261224ebaae44f88f53a0000001716001461368b6a721dac1d32578065eafef614a2f01b6dfeffffffb1f0ce2f61915054b2366b983557733fc27cb90877ef5a55eccca3269cba2acc00000000171600142bf3d49e9948964d4638f85327857037a4d7d0d8feffffffd8aa3e93f9d7890d67541bc2631de21544b2791e5feba35d9bf66e0564e050b702000000171600148bccf832c36b841e83395a2cd5b732472a3a8547feffffffc4bcf1672cd05efd93736eed5376f2375b434acf511339581ed614860c3ca2090000000017160014635e7297606da52333e12786dc8132e1b54b7366feffffffdf95fa77c630600513eea70d7ca1234c20ac44b0b4cd186e636506168db1a8fb0100000017160014dcbb456eb6beddbff37a48016b9163c9c6dd6805feffffffefee0b78c70830c866f514f148b31680ab376a6e8d251f2ad78501eabbbdc33d0000000017160014264e0243550d3b37b3be3af43ec6f898d54adc85fefffffff8a136df77b0dd2884eaaabc16155d6bc5b7bd52fec3833d3f58d1c9c331b58d0000000017160014e67ba421771a764af5baa45c866feaf827ebcfa9feffffffaf69f4087cf5b33e80e43cd803a57843b2e06af2d807e899fdc981511623e8ba010000001716001452821b055c0af328a56efe12e1f26bcac26ccf43feffffff82f15945b41df031552442dfb7516131de75e975faf6d9a7f43f8f2d70b633ce00000000171600142bf3d49e9948964d4638f85327857037a4d7d0d8feffffff1e6dd2a91f0ecadaf2b65e1ca43309e1fe993765223bfd5e4d6a35c0b57d710702000000171600142358a9b2010a20df492a98b73f5135d27668deaafeffffff49c30e52417fa4b2909228ff16a0dd7a0dcb668757b69e7365efaa051d5e176703000000171600149075bf0f1edc32b97df479f09380b555670b2ca5feffffff64698d0631ac4a86fcc0a4eb98d654adc7e13349d67958b920cdde69b6424898070000001716001453310fff854f6f3ae573ee5db43a4da83dfce2f4feffffff01c7d837390000000017a9141945832368414ba813050a0ce5d907f0dfc9f21f8702473044022047afbbe02f8e7b3415fcc37ea2944905d339616b823cc6ce79822d5fee1cc23f022003de23a3c40600e5254746e0eec5ac703641c0d37827c2e5732afeb5e35fd74f0121033dc845321d0608877bb137bdf72c42444469d4612c420f5a8e91ba2a8396a83b024730440220728b2ad36310adb3ed3e6117221c438c8a859efc25b40486bd591521379db5ad022010b912f156ade183b3ae8b3ebfba7f3099574966f70f8746d1dbd41f54ef033601210247784fc24e322e1853b90df7e8bf5697e47eacbddaacd08fa4f227a0cb5a8cd902473044022075bfd25053a8962d9e4c05d693220975c16e1d3037355f6e224d05d6d4c0548302204d6da2c7d0140d4cfa73d43a6d285640b92163a5db54baad4f878544e4283e90012102e52ea67006a0fcf48f504376bc64e5493b7ebe854dfcabe9652646f7f63a5805024730440220158e76dd3abad9a84f9cbda75d8b155c7854df8eaf23b685e8f7fb5e34cd347702202d22e57fa327eeb2351cf67b15c1c6533cfb11d2407834d0d789aed57934dc78012102de227d80b65e87b1d0c5e41cbf328cb36d646415941397dd058095db0988b4ad02473044022031d1360451c16d0d5eb5a164ac4699d0c78e1f09956b847c09d336dfe11be421022054a383f08e488a02b2f72e7e894891f6fa8f354e24f17a31349894cfd0531487012103b3f646819212451b8afadb6263ad7621ea2841192e1bf1628fd2db1f53da6b450247304402202577158219c0eda765cd923ec6dc4e5e7ec4f6e903b8a88c7ae07546b810c383022061345760d62139fa63e76b8ce4b8d53e97657b56a44f7f4041f46029281dedf00121024023b2ce16703c85c1bc25902a592dbacf28a55f93470c1fdd265424893ac3a80247304402205f7c37ee88b8322055116a5e1a2a3fa39e1fba0d2c57a107312cbc89834136fc022077773990b68a9a06a24016f687cc4d92c0188db40d69fdfb624ba8e54743465c01210211b19f150f2bbd552e6b2c08d363725cb31665e99e930ff5d7bab9e11501ff5302473044022043ca3294a5c47ff22a767740d03c38bf0a376b2d4b55358e29873916aee7d563022071220d00fc5b71528cade3cc7d0b0c21c4f7cc04634d9cb2ce0f382c8a74730401210387ce64f0d8196737d52baacfbe5ab356b90c7052bb82f7cf33e6e8c0835c406e0247304402205e2a1a127ff0ec84aa18a263606e443169d046603e8d713806ec7e39aef2093f02201412336b618e3a700caceebf675a674d9ac78adf98bf44e4e97392b1f62251ba0121032b317da744ad14f2f1409910a0d0a1e24e6aee506f8918dbf1ca73d27952cbc3024730440220077de8b35125560db5a54af4d54d54668b94e8302a558a36fadbd355362c524902206d9bed0b873244d7c4140bd61ea393e063c8a7dd050053ffaca3a1bac966cbed0121025ae4f104c170f46218be739b77c2ab757acffd51e13ec80735e2b0ad4a6d5c4a02473044022079f1a6a7a559f6191a05d8fb98c00cba29af75726a08a183437b55273e2f75cc022012ef2c1673c9e8b52b7764746d45dcba006842b1cf33a1ced4eca9866fae9f9e01210370716810f6b88679d16cde6e1f1e91b216b95112e123aa88c6bcf0801b3b35680247304402207f221956ca5118db538281a9e506fde90945842020b8a26e2c8d80aaa8813c74022006d64cdf847bc26aa01a0706014d44c746d6babb6a7eb0456fc0769910921b230121034d42e45cf71332dfb519bd16c82b063bcdb1d4d291f7404b3d1011f0152d6d240247304402205f48287db733499fc82d13b950869e22234f96a53bf2d10ae38aa5008fda76130220328c80ba7b06c40b142e44f327a0ec4ed8c3940cef9b1c375b1c77cc88409eca0121021eb44113c1890af4502e0348f7caa05f1226663507b5bb28775c9356cddb58ec0247304402207d719a9098e451881a91abaacdb00474e7db2197530055660f49bc485f9416940220186b8b5be4c0a32f760d77cb8fa1c1e12e7c5e73651a3402c99729274c132acb012103219dbc19d01046bec07031337d2e2ad3dbd06b3e1a9d5db24a4366ed7155297302473044022053df71bfee480f02e34b60b88fa9878d9834c66f0bf034747497605e56cd7f1002205cf4e7029dc5805e22e912413c960e9ca7cb70fde1503257e847c2bf83281ec5012102ca214a5b0b011fbfa45eda1ca837a7687967345ab9a36fa14e51cf4e0d86b8190247304402201ef4dc0ec3627a9ffd8f75f097dd187b028c2ff1b04ddc048c0c12ac7bbdda02022053038750936a0a8a3e6582d9f50e7709b769f91895a6648f702353564b3094950121032b317da744ad14f2f1409910a0d0a1e24e6aee506f8918dbf1ca73d27952cbc30247304402207c6a073892be08730922378257e2b73a7e98d4be46148294852b950d774c997c022063cbfe7c0539530424829e3f9045d1489a922a70c8891eb6a57f947768529446012102b228ec48645d37b40cfac5ac4adc787ef33709b6809fd07f8aad6353480e15e40247304402200e184705636e3927d8ece500af9df0536387039048d36f01df6dc53009cb0697022025952732548a9842722697ef71d6336a018c888dcc577e599fa45cd22c0708a70121037486f8ff855036501765d1b9a6671f6c20003f26ab474a58fbc775e8cfee86f0024730440220683b1ffbf23cc6d419506129d4bfac27dad32163de36f158309d8c3175f9e1eb02201f3c28a5e3d1edb9cf826a054294c1a4531cc7ad380dcbfbd12b8356de654ee70121030aef2023410fb02060575a8dd3afd257a52f6ae93d524ed1633dfba072a397380247304402204097a72d591e36196e0b9cd92201169cf84b2124f52b915d8ede838d2299d00302207dc390c9118cd2a1193625ad38887e3190173b089b9d0e725bfdbdd63ed7cafc01210202817639fd5bbdc8993a9d1a8b224c2b482199fcf963436a9c741b98713f378b02473044022036ca4d09d9bb626283cb43a215c0f0c3ed5085ddd49eca242784f38aa21c50710220751ddf0acc8888caeff6113be59a64dea991c9e95f483f6662fe44f75a14dff80121035060fe0f9f890cc60e4f099792366b663254cac43e935fb071cf2a352e56fec50247304402203c206b7c2f506ff02d9481f4f7a18e4d0bc2aeb66b44dba8842a51d9afdfa6c202206f3659d05be4be3c61d3fa5a0ba8025a4e60972cccaf34779d77699a34f35f2b0121033b36081756519a93e0e59466f9ca2d91d34c7a34ab7f11e8c6462ff75e46aba20247304402204caedbf4108892537cfe98ed808829583d219b546e9b904092d8a7bf0b2f72b4022026125523d81c4a9f38ad9cb77fa95b90bbf714cccf8b4b4f57b4ab6d4349751d0121032b317da744ad14f2f1409910a0d0a1e24e6aee506f8918dbf1ca73d27952cbc302473044022034b68664e4ec7b84bb1672d6f9060752e5df1a48982c7e678f7181978f7234ea022050db771c92a4f432d9eb3befc8320d315a896ce0131ad3358a49212a1adbcd8f01210334b94f7295b072defcacca5008c9d6fbd0b3d883b149d9132782f3126e08ba7702473044022007f1599469b1af62530a82292bce82e660d868cb5605228944a74572e98a979402205dc48bbf1d14ac8052a33279c6cb990d36bb267bdc612766db13f5f98dafc09d0121030a9931e0184658c427e0ede2263ab498029d00640b3667300f53ec12c024db290247304402203252a41bf99f0e0e79b59af7e97af5920a0b1e77b906190ecfab19326c6e7ca302205077e93af881cf02b4c8f7399639117336b2f04c0fcc29d6b4185f7b6a47d31d012103d678258e0383662dfd7972068743f37c06b28e291917be147ff8749028a1c28b4dbc0c00"
}