{
  "txid": "ca4668b68ed24e8e2aedb5347ab42e8b522ea7dd40b520a7d0d76b9ab025044b",
  "version": 1,
  "locktime": 0,
  "vin": [
    {
      "txid": "5cc1876c4f14dba952cc477ec14be7d015ac0ced5c6edd2950cd705e0f9cd046",
      "vout": 0,
      "prevout": {
        "scriptpubkey": "76a914e8288e2614a880574cbc9ff8b7c006ffc499cec688ac",
        "scriptpubkey_asm": "OP_DUP OP_HASH160 OP_PUSHBYTES_20 e8288e2614a880574cbc9ff8b7c006ffc499cec6 OP_EQUALVERIFY OP_CHECKSIG",
        "scriptpubkey_type": "p2pkh",
        "scriptpubkey_address": "1NAYMLNyGJTcKutK9pvQWMKsX9BucZ6Vpc",
        "value": 86000
      },
      "scriptsig": "483045022100badd101b871f60765054094c06fe655da2491af88b895390f4766425e412013802206405d921769fa412937cdc2d301cefdc661e8acbe29279d9581a608c6473ac55012103fd06a1c16a022be47420d22c616698592f0aea2a1087e12f774302a26e08cd2d",
      "scriptsig_asm": "OP_PUSHBYTES_72 3045022100badd101b871f60765054094c06fe655da2491af88b895390f4766425e412013802206405d921769fa412937cdc2d301cefdc661e8acbe29279d9581a608c6473ac5501 OP_PUSHBYTES_33 03fd06a1c16a022be47420d22c616698592f0aea2a1087e12f774302a26e08cd2d",
      "is_coinbase": false,
      "sequence": 4294967295
    },
    {
      "txid": "4d71c718f41667442f5224fc1172fa242e04630242fa588ee8552be7d3317188",
      "vout": 1,
      "prevout": {
        "scriptpubkey": "76a914dc5784c67863ee5313adc48f9b12608e7c48c49c88ac",
        "scriptpubkey_asm": "OP_DUP OP_HASH160 OP_PUSHBYTES_20 dc5784c67863ee5313adc48f9b12608e7c48c49c OP_EQUALVERIFY OP_CHECKSIG",
        "scriptpubkey_type": "p2pkh",
        "scriptpubkey_address": "1M64W77MXL3woTe3B72Z36ekE77JHT1Cbj",
        "value": 98917
      },
      "scriptsig": "483045022100cf28a20793d5042c85e0d8e94d64b24217a885cb302ca6404543cfe3f94d895702207a56b0e5c0eed4c118bd947969a8fde3b1817db423f0143c1d73490d4f5976ac0121027f76d28d4f1f4d2c96d5d1c9b2077e5c3d335084d7ffaca67fafd2ca6265ec8a",
      "scriptsig_asm": "OP_PUSHBYTES_72 3045022100cf28a20793d5042c85e0d8e94d64b24217a885cb302ca6404543cfe3f94d895702207a56b0e5c0eed4c118bd947969a8fde3b1817db423f0143c1d73490d4f5976ac01 OP_PUSHBYTES_33 027f76d28d4f1f4d2c96d5d1c9b2077e5c3d335084d7ffaca67fafd2ca6265ec8a",
      "is_coinbase": false,
      "sequence": 4294967295
    },
    {
      "txid": "b231fb21b1be888cc9209137cfd2cfccf2b80e2b5cd74ffd1943c446dbbeb941",
      "vout": 1,
      "prevout": {
        "scriptpubkey": "76a914efcc4fbf2cab61f6cf3428baea073d7280bf5d0c88ac",
        "scriptpubkey_asm": "OP_DUP OP_HASH160 OP_PUSHBYTES_20 efcc4fbf2cab61f6cf3428baea073d7280bf5d0c OP_EQUALVERIFY OP_CHECKSIG",
        "scriptpubkey_type": "p2pkh",
        "scriptpubkey_address": "1NrwFfHcwUKWp19qC1yBWmYR4jCWXggX4Z",
        "value": 259346
      },
      "scriptsig": "483045022100a8b5be60368ec308d0aff2e82af85e800efdd7fa23530898931c8ef69c8cda02022054fc1cc51d686ff661077644fd73eda39271e6b0504e7ed9b609034120ad0505012102b8a920cee57dc349ed847ed3b77ff65a699aae513d17349c2aecf75e7d0e77b8",
      "scriptsig_asm": "OP_PUSHBYTES_72 3045022100a8b5be60368ec308d0aff2e82af85e800efdd7fa23530898931c8ef69c8cda02022054fc1cc51d686ff661077644fd73eda39271e6b0504e7ed9b609034120ad050501 OP_PUSHBYTES_33 02b8a920cee57dc349ed847ed3b77ff65a699aae513d17349c2aecf75e7d0e77b8",
      "is_coinbase": false,
      "sequence": 4294967295
    }
  ],
  "vout": [
    {
      "scriptpubkey": "76a914fad7d4ad7a8fbfe6417257e42115abf7586197d988ac",
      "scriptpubkey_asm": "OP_DUP OP_HASH160 OP_PUSHBYTES_20 fad7d4ad7a8fbfe6417257e42115abf7586197d9 OP_EQUALVERIFY OP_CHECKSIG",
      "scriptpubkey_type": "p2pkh",
      "scriptpubkey_address": "1PsLV9GY8181vnPUdjcB8SUK8KxUpzaH4h",
      "value": 426000
    }
  ],
  "size": 488,
  "weight": 1952,
  "fee": 18263,
  "status": {
    "confirmed": true,
    "block_height": 834638,
    "block_hash": "000000000000000000025f742c626208ac87e0b7d15054abb4a19ca2d735a54e",
    "block_time": 1710405325
  },
  "hex": "010000000346d09c0f5e70cd5029dd6e5ced0cac15d0e74bc17e47cc52a9db144f6c87c15c000000006b483045022100badd101b871f60765054094c06fe655da2491af88b895390f4766425e412013802206405d921769fa412937cdc2d301cefdc661e8acbe29279d9581a608c6473ac55012103fd06a1c16a022be47420d22c616698592f0aea2a1087e12f774302a26e08cd2dffffffff887131d3e72b55e88e58fa420263042e24fa7211fc24522f446716f418c7714d010000006b483045022100cf28a20793d5042c85e0d8e94d64b24217a885cb302ca6404543cfe3f94d895702207a56b0e5c0eed4c118bd947969a8fde3b1817db423f0143c1d73490d4f5976ac0121027f76d28d4f1f4d2c96d5d1c9b2077e5c3d335084d7ffaca67fafd2ca6265ec8affffffff41b9bedb46c44319fd4fd75c2b0eb8f2cccfd2cf379120c98c88beb121fb31b2010000006b483045022100a8b5be60368ec308d0aff2e82af85e800efdd7fa23530898931c8ef69c8cda02022054fc1cc51d686ff661077644fd73eda39271e6b0504e7ed9b609034120ad0505012102b8a920cee57dc349ed847ed3b77ff65a699aae513d17349c2aecf75e7d0e77b8ffffffff0110800600000000001976a914fad7d4ad7a8fbfe6417257e42115abf7586197d988ac00000000"
}