{
  "txid": "ca49732a8789b812361e997512b66bc3787f1e3ff39f5f0d8b845e09438043f6",
  "version": 2,
  "locktime": 0,
  "vin": [
    {
      "txid": "a4321af89ddc566b7c0cfdd53202ad13795809ceada3a7df41dc1f45d912517e",
      "vout": 0,
      "prevout": {
        "scriptpubkey": "5120802a19bc0e49157a4cdd9a8c8db603d8a6c554bf065c91710c78ff84a18926fe",
        "scriptpubkey_asm": "OP_PUSHNUM_1 OP_PUSHBYTES_32 802a19bc0e49157a4cdd9a8c8db603d8a6c554bf065c91710c78ff84a18926fe",
        "scriptpubkey_type": "v1_p2tr",
        "scriptpubkey_address": "bc1psq4pn0qwfy2h5nxan2xgmdsrmznv249lqewfzugv0rlcfgvfymlqqd2utl",
        "value": 64600
      },
      "scriptsig": "",
      "scriptsig_asm": "",
      "witness": [
        "a5d82cb705d5894d94368a8147cc945a184f9afa58d46c542fb848d8d2ce2d736a187801d335e9bf841362d9c3d0dd1408ca81ea2def717cd6e2c793374e3cfa"
      ],
      "is_coinbase": false,
      "sequence": 0
    }
  ],
  "vout": [
    {
      "scriptpubkey": "51207af90567e62d3673f5a13fdebb3b2a8b0d84cf1d40c583d10cd216bf720b19fa",
      "scriptpubkey_asm": "OP_PUSHNUM_1 OP_PUSHBYTES_32 7af90567e62d3673f5a13fdebb3b2a8b0d84cf1d40c583d10cd216bf720b19fa",
      "scriptpubkey_type": "v1_p2tr",
      "scriptpubkey_address": "bc1p0tus2elx95m88adp8l0tkwe23vxcfncagrzc85gv6gtt7ustr8aqv0jep8",
      "value": 2066
    },
    {
      "scriptpubkey": "5120a93105bc845caeb357d52c9fd365d04a93c33e0d529810f18e5fb144ce443d01",
      "scriptpubkey_asm": "OP_PUSHNUM_1 OP_PUSHBYTES_32 a93105bc845caeb357d52c9fd365d04a93c33e0d529810f18e5fb144ce443d01",
      "scriptpubkey_type": "v1_p2tr",
      "scriptpubkey_address": "bc1p4ycst0yytjhtx4749j0axewsf2fux0sd22vppuvwt7c5fnjy85qskmavyw",
      "value": 2066
    },
    {
      "scriptpubkey": "5120e4caf307d11407d54467efcecd52d3e47fa0e93fc22263c14e799ec2df54a0e1",
      "scriptpubkey_asm": "OP_PUSHNUM_1 OP_PUSHBYTES_32 e4caf307d11407d54467efcecd52d3e47fa0e93fc22263c14e799ec2df54a0e1",
      "scriptpubkey_type": "v1_p2tr",
      "scriptpubkey_address": "bc1pun90xp73zsra23r8al8v65knu3l6p6flcg3x8s2w0x0v9h655rss745dwn",
      "value": 2066
    },
    {
      "scriptpubkey": "5120f0ce7de5c31f5fc8bac7274dbb3550bcec90641477e426dfefcaa4b135f2e5c4",
      "scriptpubkey_asm": "OP_PUSHNUM_1 OP_PUSHBYTES_32 f0ce7de5c31f5fc8bac7274dbb3550bcec90641477e426dfefcaa4b135f2e5c4",
      "scriptpubkey_type": "v1_p2tr",
      "scriptpubkey_address": "bc1p7r88mewrra0u3wk8yaxmkd2shnkfqeq5wljzdhl0e2jtzd0juhzq4lkaw2",
      "value": 2066
    },
    {
      "scriptpubkey": "512079e2c3e5be86f13f369519e67a482fbba6198b8c98602e510355dc52d2058a3d",
      "scriptpubkey_asm": "OP_PUSHNUM_1 OP_PUSHBYTES_32 79e2c3e5be86f13f369519e67a482fbba6198b8c98602e510355dc52d2058a3d",
      "scriptpubkey_type": "v1_p2tr",
      "scriptpubkey_address": "bc1p083v8ed7smcn7d54r8n85jp0hwnpnzuvnpszu5gr2hw995s93g7suw2j5q",
      "value": 2066
    },
    {
      "scriptpubkey": "5120af027fec2c74e36aea0b811ca406b0cd4a5c160ccb9175d9b59babd67d87ea3f",
      "scriptpubkey_asm": "OP_PUSHNUM_1 OP_PUSHBYTES_32 af027fec2c74e36aea0b811ca406b0cd4a5c160ccb9175d9b59babd67d87ea3f",
      "scriptpubkey_type": "v1_p2tr",
      "scriptpubkey_address": "bc1p4up8lmpvwn3k46stsyw2gp4se499c9svewghtkd4nw4avlv8aglsggjyhs",
      "value": 2066
    },
    {
      "scriptpubkey": "5120d6583245acfe183a86e59b9e508b0a1fd0b8460650fc4b16ec788eb568a84bea",
      "scriptpubkey_asm": "OP_PUSHNUM_1 OP_PUSHBYTES_32 d6583245acfe183a86e59b9e508b0a1fd0b8460650fc4b16ec788eb568a84bea",
      "scriptpubkey_type": "v1_p2tr",
      "scriptpubkey_address": "bc1p6evry3dvlcvr4ph9nw09pzc2rlgts3sx2r7yk9hv0z8t269gf04q7edura",
      "value": 2066
    },
    {
      "scriptpubkey": "512017e3f63ae9e49c2138e68ebf52166b32e9d0219ee9d47446261b575381ce215c",
      "scriptpubkey_asm": "OP_PUSHNUM_1 OP_PUSHBYTES_32 17e3f63ae9e49c2138e68ebf52166b32e9d0219ee9d47446261b575381ce215c",
      "scriptpubkey_type": "v1_p2tr",
      "scriptpubkey_address": "bc1pzl3lvwhfujwzzw8x36l4y9ntxt5aqgv7a828g33xrdt48qwwy9wqlc5pnp",
      "value": 2066
    },
    {
      "scriptpubkey": "512076f25cedef11f27df2e8b6ea1038c0a38c334d852c622e984ebba5b1930fa225",
      "scriptpubkey_asm": "OP_PUSHNUM_1 OP_PUSHBYTES_32 76f25cedef11f27df2e8b6ea1038c0a38c334d852c622e984ebba5b1930fa225",
      "scriptpubkey_type": "v1_p2tr",
      "scriptpubkey_address": "bc1pwme9em00z8e8muhgkm4pqwxq5wxrxnv9933zaxzwhwjmryc05gjs897ulm",
      "value": 2066
    },
    {
      "scriptpubkey": "51200b30c0b3c4336e24069da4bbe9dc536f6eb180a341ac2a55ba2d43ac3cd40a8b",
      "scriptpubkey_asm": "OP_PUSHNUM_1 OP_PUSHBYTES_32 0b30c0b3c4336e24069da4bbe9dc536f6eb180a341ac2a55ba2d43ac3cd40a8b",
      "scriptpubkey_type": "v1_p2tr",
      "scriptpubkey_address": "bc1ppvcvpv7yxdhzgp5a5ja7nhzndahtrq9rgxkz54d694p6c0x5p29stuk479",
      "value": 2066
    },
    {
      "scriptpubkey": "51203b6ef0c83ee24c00987d67cf431dc60de70a7584c82fa21a9b5129d52f2dffa1",
      "scriptpubkey_asm": "OP_PUSHNUM_1 OP_PUSHBYTES_32 3b6ef0c83ee24c00987d67cf431dc60de70a7584c82fa21a9b5129d52f2dffa1",
      "scriptpubkey_type": "v1_p2tr",
      "scriptpubkey_address": "bc1p8dh0pjp7ufxqpxravl85x8wxphns5avyeqh6yx5m2y5a2tedl7ss4wuanp",
      "value": 2066
    },
    {
      "scriptpubkey": "51209db72bef9731c47faa5ddef985e5e634652ae0f319b30e623560e2cc1d311d74",
      "scriptpubkey_asm": "OP_PUSHNUM_1 OP_PUSHBYTES_32 9db72bef9731c47faa5ddef985e5e634652ae0f319b30e623560e2cc1d311d74",
      "scriptpubkey_type": "v1_p2tr",
      "scriptpubkey_address": "bc1pnkmjhmuhx8z8l2jammucte0xx3jj4c8nrxesuc34vr3vc8f3r46qr5zuqy",
      "value": 2066
    },
    {
      "scriptpubkey": "512059d9be9e60f5f6abcd0d47b878712ec4516b03903ff13522faa89c6d5b66bbcb",
      "scriptpubkey_asm": "OP_PUSHNUM_1 OP_PUSHBYTES_32 59d9be9e60f5f6abcd0d47b878712ec4516b03903ff13522faa89c6d5b66bbcb",
      "scriptpubkey_type": "v1_p2tr",
      "scriptpubkey_address": "bc1pt8vma8nq7hm2hngdg7u8sufwc3gkkqus8lcn2gh64zwx6kmxh09st7t60u",
      "value": 2066
    },
    {
      "scriptpubkey": "512058e1c403070b0c23b5d92212d739278b6310ff351cc75d20831d85278a36f6ed",
      "scriptpubkey_asm": "OP_PUSHNUM_1 OP_PUSHBYTES_32 58e1c403070b0c23b5d92212d739278b6310ff351cc75d20831d85278a36f6ed",
      "scriptpubkey_type": "v1_p2tr",
      "scriptpubkey_address": "bc1ptrsugqc8pvxz8dweygfdwwf83d33ple4rnr46gyrrkzj0z3k7mks2ujkvr",
      "value": 2066
    },
    {
      "scriptpubkey": "512045aecd243613d895f0344ad7fd2a5a4c3ecc070b965a473781ad390fc7abe7ee",
      "scriptpubkey_asm": "OP_PUSHNUM_1 OP_PUSHBYTES_32 45aecd243613d895f0344ad7fd2a5a4c3ecc070b965a473781ad390fc7abe7ee",
      "scriptpubkey_type": "v1_p2tr",
      "scriptpubkey_address": "bc1pgkhv6fpkz0vftup5fttl62j6fslvcpctjedywdup45usl3atulhqn34gkn",
      "value": 2066
    },
    {
      "scriptpubkey": "51206f9edc0b782a4900f594cf46cc745f83a4587d6177a932edd0bf5dc4d2fc8cf0",
      "scriptpubkey_asm": "OP_PUSHNUM_1 OP_PUSHBYTES_32 6f9edc0b782a4900f594cf46cc745f83a4587d6177a932edd0bf5dc4d2fc8cf0",
      "scriptpubkey_type": "v1_p2tr",
      "scriptpubkey_address": "bc1pd70dczmc9fyspav5earvcazlswj9sltpw75n9mwshawuf5hu3ncq2tx2fn",
      "value": 2066
    },
    {
      "scriptpubkey": "51200322799b2563743109221986f74617edd23aedd6f89db1ad55dd010f60243035",
      "scriptpubkey_asm": "OP_PUSHNUM_1 OP_PUSHBYTES_32 0322799b2563743109221986f74617edd23aedd6f89db1ad55dd010f60243035",
      "scriptpubkey_type": "v1_p2tr",
      "scriptpubkey_address": "bc1pqv38nxe9vd6rzzfzrxr0w3shahfr4mwklzwmrt24m5qs7cpyxq6s0uhj5j",
      "value": 2066
    },
    {
      "scriptpubkey": "5120b446292c4394294422349b6e5b5c73a2643e8023ad3acc5fc78ed4d6a7064911",
      "scriptpubkey_asm": "OP_PUSHNUM_1 OP_PUSHBYTES_32 b446292c4394294422349b6e5b5c73a2643e8023ad3acc5fc78ed4d6a7064911",
      "scriptpubkey_type": "v1_p2tr",
      "scriptpubkey_address": "bc1pk3rzjtzrjs55gg35ndh9khrn5fjraqpr45avch783m2ddfcxfygsd75re6",
      "value": 2066
    },
    {
      "scriptpubkey": "5120b9f980302488fa3e86e26ad2001ba1f68e62804fc9cd46486c5ecd6863212d87",
      "scriptpubkey_asm": "OP_PUSHNUM_1 OP_PUSHBYTES_32 b9f980302488fa3e86e26ad2001ba1f68e62804fc9cd46486c5ecd6863212d87",
      "scriptpubkey_type": "v1_p2tr",
      "scriptpubkey_address": "bc1ph8ucqvpy3raraphzdtfqqxap768x9qz0e8x5vjrvtmxkscep9krsc8mtrp",
      "value": 2066
    },
    {
      "scriptpubkey": "51208135dff4c9e3401f2ccfac9d75448130ceba0216ddc75cb1a9e9ba98d0e40eae",
      "scriptpubkey_asm": "OP_PUSHNUM_1 OP_PUSHBYTES_32 8135dff4c9e3401f2ccfac9d75448130ceba0216ddc75cb1a9e9ba98d0e40eae",
      "scriptpubkey_type": "v1_p2tr",
      "scriptpubkey_address": "bc1psy6alaxfudqp7tx04jwh23ypxr8t5qskmhr4evdfaxaf358yp6hqper2tx",
      "value": 2066
    },
    {
      "scriptpubkey": "512020912362f07db53d957eba29f9b63d4877407e1f86ae6aaf0c954c824e4cf974",
      "scriptpubkey_asm": "OP_PUSHNUM_1 OP_PUSHBYTES_32 20912362f07db53d957eba29f9b63d4877407e1f86ae6aaf0c954c824e4cf974",
      "scriptpubkey_type": "v1_p2tr",
      "scriptpubkey_address": "bc1pyzgjxchs0k6nm9t7hg5lnd3afpm5qlsls6hx4tcvj4xgynjvl96q75kjlz",
      "value": 2066
    },
    {
      "scriptpubkey": "512009ec99b672ebdc4c57f51514b1496c019f3d37457fd75a93fd323ce65051153c",
      "scriptpubkey_asm": "OP_PUSHNUM_1 OP_PUSHBYTES_32 09ec99b672ebdc4c57f51514b1496c019f3d37457fd75a93fd323ce65051153c",
      "scriptpubkey_type": "v1_p2tr",
      "scriptpubkey_address": "bc1pp8kfndnja0wyc4l4z52tzjtvqx0n6d690lt44ylaxg7wv5z3z57q6lnytu",
      "value": 2066
    },
    {
      "scriptpubkey": "5120892fe32e58d3506c78de2f1f4745038cb4160b676ae8ed832b7a40836de95fb4",
      "scriptpubkey_asm": "OP_PUSHNUM_1 OP_PUSHBYTES_32 892fe32e58d3506c78de2f1f4745038cb4160b676ae8ed832b7a40836de95fb4",
      "scriptpubkey_type": "v1_p2tr",
      "scriptpubkey_address": "bc1p3yh7xtjc6dgxc7x79u05w3gr3j6pvzm8dt5wmqet0fqgxm0ft76qk8kqlu",
      "value": 2066
    },
    {
      "scriptpubkey": "00141de72fabad809343fbc8fb13c44a0ecbd5f9f33d",
      "scriptpubkey_asm": "OP_0 OP_PUSHBYTES_20 1de72fabad809343fbc8fb13c44a0ecbd5f9f33d",
      "scriptpubkey_type": "v0_p2wpkh",
      "scriptpubkey_address": "bc1qrhnjl2adszf5877glvfugjswe02lnueaaepe20",
      "value": 2300
    }
  ],
  "size": 1139,
  "weight": 4352,
  "fee": 14782,
  "status": {
    "confirmed": true,
    "block_height": 834460,
    "block_hash": "00000000000000000000484a79b643b2524bbce82e5d8a442013fa5b8905ed98",
    "block_time": 1710307468
  },
  "hex": "020000000001017e5112d9451fdc41dfa7a3adce09587913ad0232d5fd0c7c6b56dc9df81a32a40000000000000000001812080000000000002251207af90567e62d3673f5a13fdebb3b2a8b0d84cf1d40c583d10cd216bf720b19fa1208000000000000225120a93105bc845caeb357d52c9fd365d04a93c33e0d529810f18e5fb144ce443d011208000000000000225120e4caf307d11407d54467efcecd52d3e47fa0e93fc22263c14e799ec2df54a0e11208000000000000225120f0ce7de5c31f5fc8bac7274dbb3550bcec90641477e426dfefcaa4b135f2e5c4120800000000000022512079e2c3e5be86f13f369519e67a482fbba6198b8c98602e510355dc52d2058a3d1208000000000000225120af027fec2c74e36aea0b811ca406b0cd4a5c160ccb9175d9b59babd67d87ea3f1208000000000000225120d6583245acfe183a86e59b9e508b0a1fd0b8460650fc4b16ec788eb568a84bea120800000000000022512017e3f63ae9e49c2138e68ebf52166b32e9d0219ee9d47446261b575381ce215c120800000000000022512076f25cedef11f27df2e8b6ea1038c0a38c334d852c622e984ebba5b1930fa22512080000000000002251200b30c0b3c4336e24069da4bbe9dc536f6eb180a341ac2a55ba2d43ac3cd40a8b12080000000000002251203b6ef0c83ee24c00987d67cf431dc60de70a7584c82fa21a9b5129d52f2dffa112080000000000002251209db72bef9731c47faa5ddef985e5e634652ae0f319b30e623560e2cc1d311d74120800000000000022512059d9be9e60f5f6abcd0d47b878712ec4516b03903ff13522faa89c6d5b66bbcb120800000000000022512058e1c403070b0c23b5d92212d739278b6310ff351cc75d20831d85278a36f6ed120800000000000022512045aecd243613d895f0344ad7fd2a5a4c3ecc070b965a473781ad390fc7abe7ee12080000000000002251206f9edc0b782a4900f594cf46cc745f83a4587d6177a932edd0bf5dc4d2fc8cf012080000000000002251200322799b2563743109221986f74617edd23aedd6f89db1ad55dd010f602430351208000000000000225120b446292c4394294422349b6e5b5c73a2643e8023ad3acc5fc78ed4d6a70649111208000000000000225120b9f980302488fa3e86e26ad2001ba1f68e62804fc9cd46486c5ecd6863212d8712080000000000002251208135dff4c9e3401f2ccfac9d75448130ceba0216ddc75cb1a9e9ba98d0e40eae120800000000000022512020912362f07db53d957eba29f9b63d4877407e1f86ae6aaf0c954c824e4cf974120800000000000022512009ec99b672ebdc4c57f51514b1496c019f3d37457fd75a93fd323ce65051153c1208000000000000225120892fe32e58d3506c78de2f1f4745038cb4160b676ae8ed832b7a40836de95fb4fc080000000000001600141de72fabad809343fbc8fb13c44a0ecbd5f9f33d0140a5d82cb705d5894d94368a8147cc945a184f9afa58d46c542fb848d8d2ce2d736a187801d335e9bf841362d9c3d0dd1408ca81ea2def717cd6e2c793374e3cfa00000000"
}