{
  "txid": "ca779b21a33c8500c6a6909bca3e6a073cfa80e561fa788e58e90d53eba40308",
  "version": 2,
  "locktime": 834621,
  "vin": [
    {
      "txid": "5a9edcdf6838adfba8d1ec0dde7c3562bd610040635a4a8a9b716fe10b5161fe",
      "vout": 1,
      "prevout": {
        "scriptpubkey": "00144c3b8763176c90d8cf5f9971479781ab5e19dab9",
        "scriptpubkey_asm": "OP_0 OP_PUSHBYTES_20 4c3b8763176c90d8cf5f9971479781ab5e19dab9",
        "scriptpubkey_type": "v0_p2wpkh",
        "scriptpubkey_address": "bc1qfsacwcchdjgd3n6ln9c509up4d0pnk4eyj8dye",
        "value": 1181885
      },
      "scriptsig": "",
      "scriptsig_asm": "",
      "witness": [
        "3044022076ea4ba00f0e4e000b69def5ab961b3087a6bffbe3967be019cf254aed01ca90022013bae51d4cd98e9fbbd62ed4131e7babc3b66f0f061c151a1cae8b59b984cab201",
        "02385be5a50a10b07a098bbb367e4d9cd8d72d1e509c4b394572bb060cc4095acd"
      ],
      "is_coinbase": false,
      "sequence": 4294967293
    }
  ],
  "vout": [
    {
      "scriptpubkey": "0014878677a7faeeeacd81502953c186da17c2194dd5",
      "scriptpubkey_asm": "OP_0 OP_PUSHBYTES_20 878677a7faeeeacd81502953c186da17c2194dd5",
      "scriptpubkey_type": "v0_p2wpkh",
      "scriptpubkey_address": "bc1qs7r80fl6am4vmq2s99furpk6zlppjnw4ka22vr",
      "value": 133930
    },
    {
      "scriptpubkey": "0014d134d4f4c82d4b699345d5189ded0d2be6ff1ce4",
      "scriptpubkey_asm": "OP_0 OP_PUSHBYTES_20 d134d4f4c82d4b699345d5189ded0d2be6ff1ce4",
      "scriptpubkey_type": "v0_p2wpkh",
      "scriptpubkey_address": "bc1q6y6dfaxg949kny6965vfmmgd90n0788yj65xjl",
      "value": 1045710
    }
  ],
  "size": 222,
  "weight": 561,
  "fee": 2245,
  "status": {
    "confirmed": true,
    "block_height": 834638,
    "block_hash": "000000000000000000025f742c626208ac87e0b7d15054abb4a19ca2d735a54e",
    "block_time": 1710405325
  },
  "hex": "02000000000101fe61510be16f719b8a4a5a63400061bd62357cde0decd1a8fbad3868dfdc9e5a0100000000fdffffff022a0b020000000000160014878677a7faeeeacd81502953c186da17c2194dd5cef40f0000000000160014d134d4f4c82d4b699345d5189ded0d2be6ff1ce402473044022076ea4ba00f0e4e000b69def5ab961b3087a6bffbe3967be019cf254aed01ca90022013bae51d4cd98e9fbbd62ed4131e7babc3b66f0f061c151a1cae8b59b984cab2012102385be5a50a10b07a098bbb367e4d9cd8d72d1e509c4b394572bb060cc4095acd3dbc0c00"
}