{
  "txid": "ca7ed12cb676e78db3a67a02991e3214d3df66e41e9d54124644d6485c5c93fa",
  "version": 2,
  "locktime": 0,
  "vin": [
    {
      "txid": "6356aa747802299c61f0674fb2deea7674303669df3fd051ca2e2cd36ef977cd",
      "vout": 0,
      "prevout": {
        "scriptpubkey": "5120f1a37382ec13312f1999249f0bed61a6f13626b67a9dbc59f3691a34848f503f",
        "scriptpubkey_asm": "OP_PUSHNUM_1 OP_PUSHBYTES_32 f1a37382ec13312f1999249f0bed61a6f13626b67a9dbc59f3691a34848f503f",
        "scriptpubkey_type": "v1_p2tr",
        "scriptpubkey_address": "bc1p7x3h8qhvzvcj7xveyj0shmtp5mcnvf4k02wmck0ndydrfpy02qls8czgga",
        "value": 7521
      },
      "scriptsig": "",
      "scriptsig_asm": "",
      "witness": [
        "fa5095328e55df5fdf7961d07fcace72a44514e3c5d2f8dc52af97821a16ded46419154345fb3b36b2a8ec8f2e7defb8adbc54df80d21e349bc397150cf1b972",
        "209318f6a429c2c2a179ace4ec96e31c85ff027dd881b432108cfef82f431b2fa2ac0063036f726401010a746578742f706c61696e004c827b2270223a22746170222c226f70223a22646d742d6d696e74222c22646570223a22346439363761663336646361636437653631393963333962646138353564376231623337323638663463383033316665643534303361393961633537666536376930222c227469636b223a226e6174222c22626c6b223a22383334363338227d68",
        "c19318f6a429c2c2a179ace4ec96e31c85ff027dd881b432108cfef82f431b2fa2"
      ],
      "is_coinbase": false,
      "sequence": 4294967293
    }
  ],
  "vout": [
    {
      "scriptpubkey": "0014e7d55aceb43b746ede2fb33e127db54549083433",
      "scriptpubkey_asm": "OP_0 OP_PUSHBYTES_20 e7d55aceb43b746ede2fb33e127db54549083433",
      "scriptpubkey_type": "v0_p2wpkh",
      "scriptpubkey_address": "bc1qul244n458d6xah30kvlpyld4g4yssdpnpy0e95",
      "value": 546
    }
  ],
  "size": 372,
  "weight": 618,
  "fee": 6975,
  "status": {
    "confirmed": true,
    "block_height": 834638,
    "block_hash": "000000000000000000025f742c626208ac87e0b7d15054abb4a19ca2d735a54e",
    "block_time": 1710405325
  },
  "hex": "02000000000101cd77f96ed32c2eca51d03fdf6936307476eadeb24f67f0619c29027874aa56630000000000fdffffff012202000000000000160014e7d55aceb43b746ede2fb33e127db545490834330340fa5095328e55df5fdf7961d07fcace72a44514e3c5d2f8dc52af97821a16ded46419154345fb3b36b2a8ec8f2e7defb8adbc54df80d21e349bc397150cf1b972bb209318f6a429c2c2a179ace4ec96e31c85ff027dd881b432108cfef82f431b2fa2ac0063036f726401010a746578742f706c61696e004c827b2270223a22746170222c226f70223a22646d742d6d696e74222c22646570223a22346439363761663336646361636437653631393963333962646138353564376231623337323638663463383033316665643534303361393961633537666536376930222c227469636b223a226e6174222c22626c6b223a22383334363338227d6821c19318f6a429c2c2a179ace4ec96e31c85ff027dd881b432108cfef82f431b2fa200000000"
}