{
  "txid": "ca8b9902ec2c6e12fc94c76890aa7060cc26afc03945456378738691089c59ba",
  "version": 2,
  "locktime": 0,
  "vin": [
    {
      "txid": "8486ecb4df0880316dd6e82b3971b4df187aff23765bc3a47f8d78bb53aa273c",
      "vout": 89,
      "prevout": {
        "scriptpubkey": "51203181504e137a49702528177a1c1a73df1bad0e29939bb62e8b46ac301b8a65ec",
        "scriptpubkey_asm": "OP_PUSHNUM_1 OP_PUSHBYTES_32 3181504e137a49702528177a1c1a73df1bad0e29939bb62e8b46ac301b8a65ec",
        "scriptpubkey_type": "v1_p2tr",
        "scriptpubkey_address": "bc1pxxq4qnsn0fyhqffgzaapcxnnmud66r3fjwdmvt5tg6krqxu2vhkqrl06pc",
        "value": 2575
      },
      "scriptsig": "",
      "scriptsig_asm": "",
      "witness": [
        "4e4532086df36f97cb361659c6f6f958d1db5c62e7bdf771f0ed6145d3f7d4744fefee5ca026eea51d374683deea06d85748a68bfe009e58126e632c8fcefdd7",
        "20f3197a5370098d00c8066d981ebf968aba783b06f499121694d934b8a2de181fac0063036f726401010a746578742f706c61696e00367b2270223a226272632d3230222c226f70223a226d696e74222c227469636b223a2261616161222c22616d74223a223130303030227d68",
        "c0f3197a5370098d00c8066d981ebf968aba783b06f499121694d934b8a2de181f"
      ],
      "is_coinbase": false,
      "sequence": 4261412863
    }
  ],
  "vout": [
    {
      "scriptpubkey": "0014ddd7ef12ea6f78edcc1e8e7afa12c01ab59f3339",
      "scriptpubkey_asm": "OP_0 OP_PUSHBYTES_20 ddd7ef12ea6f78edcc1e8e7afa12c01ab59f3339",
      "scriptpubkey_type": "v0_p2wpkh",
      "scriptpubkey_address": "bc1qmht77yh2dauwmnq73ea05ykqr26e7veea8spz6",
      "value": 546
    }
  ],
  "size": 295,
  "weight": 541,
  "fee": 2029,
  "status": {
    "confirmed": true,
    "block_height": 834460,
    "block_hash": "00000000000000000000484a79b643b2524bbce82e5d8a442013fa5b8905ed98",
    "block_time": 1710307468
  },
  "hex": "020000000001013c27aa53bb788d7fa4c35b7623ff7a18dfb471392be8d66d318008dfb4ec86845900000000fffffffd012202000000000000160014ddd7ef12ea6f78edcc1e8e7afa12c01ab59f333903404e4532086df36f97cb361659c6f6f958d1db5c62e7bdf771f0ed6145d3f7d4744fefee5ca026eea51d374683deea06d85748a68bfe009e58126e632c8fcefdd76e20f3197a5370098d00c8066d981ebf968aba783b06f499121694d934b8a2de181fac0063036f726401010a746578742f706c61696e00367b2270223a226272632d3230222c226f70223a226d696e74222c227469636b223a2261616161222c22616d74223a223130303030227d6821c0f3197a5370098d00c8066d981ebf968aba783b06f499121694d934b8a2de181f00000000"
}