{
  "txid": "ca8e4aee00a80c31b5b249efa9cc3aef465cb810f918e3fa1a3ae0e4d8fcd839",
  "version": 2,
  "locktime": 834457,
  "vin": [
    {
      "txid": "ccff771fda66df94eef64b0fc8548453faa40f45e8e4e63fba12c7260ef33ea3",
      "vout": 1,
      "prevout": {
        "scriptpubkey": "5120f270f2b7900fbbb881e22ef3a1808512d5df4eb2c92b8c6f148361f3fb4b7be0",
        "scriptpubkey_asm": "OP_PUSHNUM_1 OP_PUSHBYTES_32 f270f2b7900fbbb881e22ef3a1808512d5df4eb2c92b8c6f148361f3fb4b7be0",
        "scriptpubkey_type": "v1_p2tr",
        "scriptpubkey_address": "bc1p7fc09dusp7am3q0z9me6rqy9zt2a7n4jey4ccmc5sdsl876t00sqwaek5k",
        "value": 28260
      },
      "scriptsig": "",
      "scriptsig_asm": "",
      "witness": [
        "b0d6169f1e44ecc9f25373860ba1ff0ef60c976b764ecf1f437a19670485a5cdad28731a6cd64b9e83560b1043f1ee87c319c9195c080ddd6322f2726d1388b2"
      ],
      "is_coinbase": false,
      "sequence": 0
    },
    {
      "txid": "6db659e33188ac22b2929231a1be6f64bae2d6cdc898a646fda19b611f0ccb2b",
      "vout": 1,
      "prevout": {
        "scriptpubkey": "51203d2ebc6e73857f9b16f4c5ff9ca1dd29693669515532534ee66f6bf5a8bea48d",
        "scriptpubkey_asm": "OP_PUSHNUM_1 OP_PUSHBYTES_32 3d2ebc6e73857f9b16f4c5ff9ca1dd29693669515532534ee66f6bf5a8bea48d",
        "scriptpubkey_type": "v1_p2tr",
        "scriptpubkey_address": "bc1p85htcmnns4lek9h5chleegwa995nv62325e9xnhxda4lt2975jxsx08q7h",
        "value": 4840
      },
      "scriptsig": "",
      "scriptsig_asm": "",
      "witness": [
        "5585b6c09c2253b50628b77ea2b57c52775b3dca4b56d9caf01466eeed19fc464202215f9133e26cedb21f0459b8e8d25b0d5204ec2fd844b04a06dfe83b4773"
      ],
      "is_coinbase": false,
      "sequence": 0
    }
  ],
  "vout": [
    {
      "scriptpubkey": "0014ca23e3491268db31f60e6583bd65345729e891a0",
      "scriptpubkey_asm": "OP_0 OP_PUSHBYTES_20 ca23e3491268db31f60e6583bd65345729e891a0",
      "scriptpubkey_type": "v0_p2wpkh",
      "scriptpubkey_address": "bc1qeg37xjgjdrdnraswvkpm6ef52u573ydqz3v7sf",
      "value": 31059
    }
  ],
  "size": 257,
  "weight": 626,
  "fee": 2041,
  "status": {
    "confirmed": true,
    "block_height": 834460,
    "block_hash": "00000000000000000000484a79b643b2524bbce82e5d8a442013fa5b8905ed98",
    "block_time": 1710307468
  },
  "hex": "02000000000102a33ef30e26c712ba3fe6e4e8450fa4fa538454c80f4bf6ee94df66da1f77ffcc0100000000000000002bcb0c1f619ba1fd46a698c8cdd6e2ba646fbea1319292b222ac8831e359b66d010000000000000000015379000000000000160014ca23e3491268db31f60e6583bd65345729e891a00140b0d6169f1e44ecc9f25373860ba1ff0ef60c976b764ecf1f437a19670485a5cdad28731a6cd64b9e83560b1043f1ee87c319c9195c080ddd6322f2726d1388b201405585b6c09c2253b50628b77ea2b57c52775b3dca4b56d9caf01466eeed19fc464202215f9133e26cedb21f0459b8e8d25b0d5204ec2fd844b04a06dfe83b477399bb0c00"
}