{
  "txid": "caa55c9f9b647cfee64fa33e8b44ff6a0c65135a0eb5920748a5d7fdb3853de2",
  "version": 2,
  "locktime": 0,
  "vin": [
    {
      "txid": "acc3ba00869acb582a3f2904ce3a11dd3779350ce234063fc7d0959246213364",
      "vout": 87,
      "prevout": {
        "scriptpubkey": "5120b27d0a050c7e1f6950c27d3efae57b8ba2ad3ad29cc3c4769e8efdc3410f29e7",
        "scriptpubkey_asm": "OP_PUSHNUM_1 OP_PUSHBYTES_32 b27d0a050c7e1f6950c27d3efae57b8ba2ad3ad29cc3c4769e8efdc3410f29e7",
        "scriptpubkey_type": "v1_p2tr",
        "scriptpubkey_address": "bc1pkf7s5pgv0c0kj5xz05l04etm3w326wkjnnpuga573m7uxsg098nsqyhp93",
        "value": 1806
      },
      "scriptsig": "",
      "scriptsig_asm": "",
      "witness": [
        "6647be0b42ba0f84c08cd168689c15117f9ddc93ae80c18c3de55c65f35283fded4028ab921aedfa9516f72bf9f80787253bc0053a4ccfe495ac8ebad771a26b",
        "202484d51dcc6cdf5da9dcff600d805095029683ec3c048dcf4111ced56a6aac23ac0063036f726401010a746578742f706c61696e00357b2270223a226272632d3230222c226f70223a226d696e74222c227469636b223a22646f6765222c22616d74223a2234323030227d68",
        "c02484d51dcc6cdf5da9dcff600d805095029683ec3c048dcf4111ced56a6aac23"
      ],
      "is_coinbase": false,
      "sequence": 4261412863
    }
  ],
  "vout": [
    {
      "scriptpubkey": "00147a665de7a370f4c9b372ab1fae587500a5bcbdb4",
      "scriptpubkey_asm": "OP_0 OP_PUSHBYTES_20 7a665de7a370f4c9b372ab1fae587500a5bcbdb4",
      "scriptpubkey_type": "v0_p2wpkh",
      "scriptpubkey_address": "bc1q0fn9mearwr6vnvmj4v06ukr4qzjme0d565dzcx",
      "value": 294
    }
  ],
  "size": 294,
  "weight": 540,
  "fee": 1512,
  "status": {
    "confirmed": true,
    "block_height": 834460,
    "block_hash": "00000000000000000000484a79b643b2524bbce82e5d8a442013fa5b8905ed98",
    "block_time": 1710307468
  },
  "hex": "02000000000101643321469295d0c73f0634e20c357937dd113ace04293f2a58cb9a8600bac3ac5700000000fffffffd0126010000000000001600147a665de7a370f4c9b372ab1fae587500a5bcbdb403406647be0b42ba0f84c08cd168689c15117f9ddc93ae80c18c3de55c65f35283fded4028ab921aedfa9516f72bf9f80787253bc0053a4ccfe495ac8ebad771a26b6d202484d51dcc6cdf5da9dcff600d805095029683ec3c048dcf4111ced56a6aac23ac0063036f726401010a746578742f706c61696e00357b2270223a226272632d3230222c226f70223a226d696e74222c227469636b223a22646f6765222c22616d74223a2234323030227d6821c02484d51dcc6cdf5da9dcff600d805095029683ec3c048dcf4111ced56a6aac2300000000"
}