{
  "txid": "cab3cdf822d993f077f6a6812bcac1740dc36ef24a0852dc0c79da7530824f08",
  "version": 1,
  "locktime": 0,
  "vin": [
    {
      "txid": "049f41a0dfd61af74c6561ed3b03fc6f247566559f4d7d6168cc443cfd6d641d",
      "vout": 0,
      "prevout": {
        "scriptpubkey": "00207250d91085a77a4568fa4cfd5bebb59f0b9cb3530f8154cd4fab6d28abd548fe",
        "scriptpubkey_asm": "OP_0 OP_PUSHBYTES_32 7250d91085a77a4568fa4cfd5bebb59f0b9cb3530f8154cd4fab6d28abd548fe",
        "scriptpubkey_type": "v0_p2wsh",
        "scriptpubkey_address": "bc1qwfgdjyy95aay2686fn74h6a4nu9eev6np7q4fn204dkj3274frlqrskvx0",
        "value": 194152981
      },
      "scriptsig": "",
      "scriptsig_asm": "",
      "witness": [
        "",
        "304402200843f1861055661ffb5e6c1e48a5ba5875607d1cd9f97ec0f114f46148aecf29022035d66e737305b8e59f518da4e5f41cc9982942559aeb70024ca88f00a77943f601",
        "3044022030465ab5e37d8e8570776bbdce246a83f9c2e59a64988057fe326cc2b8424216022059f6d0190aacbce1e2898ae1042cb778a7238ac0333a0eed3398c298cee0dd1801",
        "5221030fac04165b606dea3b8f81ada5eb66ca181d5215c873fcf46623ea7cf8e98b1b2102b7836a2a9d3ff095415383cb23a5f4f1badd75e44adb17537962eafe3ded3b602102f8cb472df1ae03cfa6b65b013add7862c7d3ac3684a8a92a44192faace228aee53ae"
      ],
      "is_coinbase": false,
      "sequence": 4294967295,
      "inner_witnessscript_asm": "OP_PUSHNUM_2 OP_PUSHBYTES_33 030fac04165b606dea3b8f81ada5eb66ca181d5215c873fcf46623ea7cf8e98b1b OP_PUSHBYTES_33 02b7836a2a9d3ff095415383cb23a5f4f1badd75e44adb17537962eafe3ded3b60 OP_PUSHBYTES_33 02f8cb472df1ae03cfa6b65b013add7862c7d3ac3684a8a92a44192faace228aee OP_PUSHNUM_3 OP_CHECKMULTISIG"
    }
  ],
  "vout": [
    {
      "scriptpubkey": "00207250d91085a77a4568fa4cfd5bebb59f0b9cb3530f8154cd4fab6d28abd548fe",
      "scriptpubkey_asm": "OP_0 OP_PUSHBYTES_32 7250d91085a77a4568fa4cfd5bebb59f0b9cb3530f8154cd4fab6d28abd548fe",
      "scriptpubkey_type": "v0_p2wsh",
      "scriptpubkey_address": "bc1qwfgdjyy95aay2686fn74h6a4nu9eev6np7q4fn204dkj3274frlqrskvx0",
      "value": 193936414
    },
    {
      "scriptpubkey": "76a914a087574ffe31a48792eabea80a54fd8842358fae88ac",
      "scriptpubkey_asm": "OP_DUP OP_HASH160 OP_PUSHBYTES_20 a087574ffe31a48792eabea80a54fd8842358fae OP_EQUALVERIFY OP_CHECKSIG",
      "scriptpubkey_type": "p2pkh",
      "scriptpubkey_address": "1FdoFMaoQ3E3o2qjofZF9XrLq5MYPLCFCx",
      "value": 212556
    }
  ],
  "size": 382,
  "weight": 766,
  "fee": 4011,
  "status": {
    "confirmed": true,
    "block_height": 834638,
    "block_hash": "000000000000000000025f742c626208ac87e0b7d15054abb4a19ca2d735a54e",
    "block_time": 1710405325
  },
  "hex": "010000000001011d646dfd3c44cc68617d4d9f556675246ffc033bed61654cf71ad6dfa0419f040000000000ffffffff021e3c8f0b000000002200207250d91085a77a4568fa4cfd5bebb59f0b9cb3530f8154cd4fab6d28abd548fe4c3e0300000000001976a914a087574ffe31a48792eabea80a54fd8842358fae88ac040047304402200843f1861055661ffb5e6c1e48a5ba5875607d1cd9f97ec0f114f46148aecf29022035d66e737305b8e59f518da4e5f41cc9982942559aeb70024ca88f00a77943f601473044022030465ab5e37d8e8570776bbdce246a83f9c2e59a64988057fe326cc2b8424216022059f6d0190aacbce1e2898ae1042cb778a7238ac0333a0eed3398c298cee0dd1801695221030fac04165b606dea3b8f81ada5eb66ca181d5215c873fcf46623ea7cf8e98b1b2102b7836a2a9d3ff095415383cb23a5f4f1badd75e44adb17537962eafe3ded3b602102f8cb472df1ae03cfa6b65b013add7862c7d3ac3684a8a92a44192faace228aee53ae00000000"
}