{
  "txid": "cab865910ed8ade413af57a20af437d6cde5581b3d15d78bcf52ae5586ae1d3f",
  "version": 2,
  "locktime": 0,
  "vin": [
    {
      "txid": "99e01649b392251f94f243a76890180e2ca7ab83c5890f1577b731c200ef67f1",
      "vout": 0,
      "prevout": {
        "scriptpubkey": "001477081d2173144a31c56a16cd21487883c616692b",
        "scriptpubkey_asm": "OP_0 OP_PUSHBYTES_20 77081d2173144a31c56a16cd21487883c616692b",
        "scriptpubkey_type": "v0_p2wpkh",
        "scriptpubkey_address": "bc1qwuyp6gtnz39rr3t2zmxjzjrcs0rpv6ft0hn9rt",
        "value": 2875789
      },
      "scriptsig": "",
      "scriptsig_asm": "",
      "witness": [
        "30440220103482ab4b47e33dd6527f13fc2aeee4ee0a05924cb14eaed0a65cf356790b2a0220342f676ebcbc60b48d38f5b517e50007753a6742d41c0a9c437f35e7fdcc37c701",
        "0266d6ec160ea3d8dd4887b43a63a04284affd30a90bb8960250932308f74a9b05"
      ],
      "is_coinbase": false,
      "sequence": 4294967293
    }
  ],
  "vout": [
    {
      "scriptpubkey": "001421a439a9993ec20477c8c4f43bd1a9ed1e44b287",
      "scriptpubkey_asm": "OP_0 OP_PUSHBYTES_20 21a439a9993ec20477c8c4f43bd1a9ed1e44b287",
      "scriptpubkey_type": "v0_p2wpkh",
      "scriptpubkey_address": "bc1qyxjrn2ve8mpqga7gcn6rh5dfa50yfv58x5k4h2",
      "value": 52924
    },
    {
      "scriptpubkey": "00148cca6c87d9d249cb72a5c4984ff2883df82c4ea6",
      "scriptpubkey_asm": "OP_0 OP_PUSHBYTES_20 8cca6c87d9d249cb72a5c4984ff2883df82c4ea6",
      "scriptpubkey_type": "v0_p2wpkh",
      "scriptpubkey_address": "bc1q3n9xep7e6fyuku49cjvylu5g8huzcn4xp9cs3v",
      "value": 2819763
    }
  ],
  "size": 222,
  "weight": 561,
  "fee": 3102,
  "status": {
    "confirmed": true,
    "block_height": 834638,
    "block_hash": "000000000000000000025f742c626208ac87e0b7d15054abb4a19ca2d735a54e",
    "block_time": 1710405325
  },
  "hex": "02000000000101f167ef00c231b777150f89c583aba72c0e189068a743f2941f2592b34916e0990000000000fdffffff02bcce00000000000016001421a439a9993ec20477c8c4f43bd1a9ed1e44b287b3062b00000000001600148cca6c87d9d249cb72a5c4984ff2883df82c4ea6024730440220103482ab4b47e33dd6527f13fc2aeee4ee0a05924cb14eaed0a65cf356790b2a0220342f676ebcbc60b48d38f5b517e50007753a6742d41c0a9c437f35e7fdcc37c701210266d6ec160ea3d8dd4887b43a63a04284affd30a90bb8960250932308f74a9b0500000000"
}