{
  "txid": "cae6d8a1648f14dc007e9718fa7d52765f2a8e62aa5cb257503b782de2af859a",
  "version": 2,
  "locktime": 834637,
  "vin": [
    {
      "txid": "7be814ab63c856c2a25c280bb4cc064515c783ddbbdb8b3109ea45b9577d4f4d",
      "vout": 1,
      "prevout": {
        "scriptpubkey": "a914e140fb518aa52e6ba24034d86c32a611ad4bbb6b87",
        "scriptpubkey_asm": "OP_HASH160 OP_PUSHBYTES_20 e140fb518aa52e6ba24034d86c32a611ad4bbb6b OP_EQUAL",
        "scriptpubkey_type": "p2sh",
        "scriptpubkey_address": "3NE3oiNie38mEjTJeyLJ4mzQkXszrnLyxx",
        "value": 6881210
      },
      "scriptsig": "1600147197708a8cef6d8092e0280d6858d5af5887d150",
      "scriptsig_asm": "OP_PUSHBYTES_22 00147197708a8cef6d8092e0280d6858d5af5887d150",
      "witness": [
        "304402203a7b8a774f8dca2f981d6899c76716d99541140bc8dfa65aac67c12ac5a56500022068c84f0e71e127e4fce26c5d2ebf9ceb12f2c294e20d1de0a7ed437f60d5a78401",
        "0317a1e07bfcbb635ed184b6567ecdb30b40ffeb793dbe571eb8274eabd9fcdc4b"
      ],
      "is_coinbase": false,
      "sequence": 4294967293,
      "inner_redeemscript_asm": "OP_0 OP_PUSHBYTES_20 7197708a8cef6d8092e0280d6858d5af5887d150"
    }
  ],
  "vout": [
    {
      "scriptpubkey": "a9141d2c2e218194a27bcafad0bb256c0fd72e87e5cf87",
      "scriptpubkey_asm": "OP_HASH160 OP_PUSHBYTES_20 1d2c2e218194a27bcafad0bb256c0fd72e87e5cf OP_EQUAL",
      "scriptpubkey_type": "p2sh",
      "scriptpubkey_address": "34MGSoQMLEypAhDU2bfBiQYeLt8RxdrW1A",
      "value": 5815070
    },
    {
      "scriptpubkey": "a9144f9ce136ab9fffc6fb9687d1bda057d3cbada0d087",
      "scriptpubkey_asm": "OP_HASH160 OP_PUSHBYTES_20 4f9ce136ab9fffc6fb9687d1bda057d3cbada0d0 OP_EQUAL",
      "scriptpubkey_type": "p2sh",
      "scriptpubkey_address": "38wyEto45S1EfSMVrrX2pjbCabobHfzUZj",
      "value": 1061492
    }
  ],
  "size": 247,
  "weight": 661,
  "fee": 4648,
  "status": {
    "confirmed": true,
    "block_height": 834638,
    "block_hash": "000000000000000000025f742c626208ac87e0b7d15054abb4a19ca2d735a54e",
    "block_time": 1710405325
  },
  "hex": "020000000001014d4f7d57b945ea09318bdbbbdd83c7154506ccb40b285ca2c256c863ab14e87b01000000171600147197708a8cef6d8092e0280d6858d5af5887d150fdffffff021ebb58000000000017a9141d2c2e218194a27bcafad0bb256c0fd72e87e5cf87743210000000000017a9144f9ce136ab9fffc6fb9687d1bda057d3cbada0d0870247304402203a7b8a774f8dca2f981d6899c76716d99541140bc8dfa65aac67c12ac5a56500022068c84f0e71e127e4fce26c5d2ebf9ceb12f2c294e20d1de0a7ed437f60d5a78401210317a1e07bfcbb635ed184b6567ecdb30b40ffeb793dbe571eb8274eabd9fcdc4b4dbc0c00"
}