{
  "txid": "cafbb81c6bd123517e8784fdf544ad17e14f6e3fd45c683e156ee45f29c3c2c9",
  "version": 2,
  "locktime": 0,
  "vin": [
    {
      "txid": "acc3ba00869acb582a3f2904ce3a11dd3779350ce234063fc7d0959246213364",
      "vout": 202,
      "prevout": {
        "scriptpubkey": "5120ee46b5da72874cdeb8ab23c9468eb9c78ec7f0ee48950dd8174f4a84884e910b",
        "scriptpubkey_asm": "OP_PUSHNUM_1 OP_PUSHBYTES_32 ee46b5da72874cdeb8ab23c9468eb9c78ec7f0ee48950dd8174f4a84884e910b",
        "scriptpubkey_type": "v1_p2tr",
        "scriptpubkey_address": "bc1paerttknjsaxdaw9ty0y5dr4ec78v0u8wfz2smkqhfa9gfzzwjy9sfc6ctd",
        "value": 1806
      },
      "scriptsig": "",
      "scriptsig_asm": "",
      "witness": [
        "c7da734b8666bf6faa54aeb0ef336ae7a7febcf6b68249e408dbdbdc49f82da84f616fc340c1d5f956fc914f943910f05617a82cf25eba4f8fe9e23622352f95",
        "20dba884ce555122b83d862396833f68194cb068f5ae6d7001f6cd7fec7521f5a3ac0063036f726401010a746578742f706c61696e00357b2270223a226272632d3230222c226f70223a226d696e74222c227469636b223a22646f6765222c22616d74223a2234323030227d68",
        "c1dba884ce555122b83d862396833f68194cb068f5ae6d7001f6cd7fec7521f5a3"
      ],
      "is_coinbase": false,
      "sequence": 4261412863
    }
  ],
  "vout": [
    {
      "scriptpubkey": "00147a665de7a370f4c9b372ab1fae587500a5bcbdb4",
      "scriptpubkey_asm": "OP_0 OP_PUSHBYTES_20 7a665de7a370f4c9b372ab1fae587500a5bcbdb4",
      "scriptpubkey_type": "v0_p2wpkh",
      "scriptpubkey_address": "bc1q0fn9mearwr6vnvmj4v06ukr4qzjme0d565dzcx",
      "value": 294
    }
  ],
  "size": 294,
  "weight": 540,
  "fee": 1512,
  "status": {
    "confirmed": true,
    "block_height": 834460,
    "block_hash": "00000000000000000000484a79b643b2524bbce82e5d8a442013fa5b8905ed98",
    "block_time": 1710307468
  },
  "hex": "02000000000101643321469295d0c73f0634e20c357937dd113ace04293f2a58cb9a8600bac3acca00000000fffffffd0126010000000000001600147a665de7a370f4c9b372ab1fae587500a5bcbdb40340c7da734b8666bf6faa54aeb0ef336ae7a7febcf6b68249e408dbdbdc49f82da84f616fc340c1d5f956fc914f943910f05617a82cf25eba4f8fe9e23622352f956d20dba884ce555122b83d862396833f68194cb068f5ae6d7001f6cd7fec7521f5a3ac0063036f726401010a746578742f706c61696e00357b2270223a226272632d3230222c226f70223a226d696e74222c227469636b223a22646f6765222c22616d74223a2234323030227d6821c1dba884ce555122b83d862396833f68194cb068f5ae6d7001f6cd7fec7521f5a300000000"
}