{
  "txid": "caff29e3a569914c4a73374a55922380f01c138fc78b3fdbc74d85939dd2675d",
  "version": 2,
  "locktime": 834637,
  "vin": [
    {
      "txid": "7a049544c543ea0028f1b26dda43f177dfd2ded6ee7b8bafed3a4a026b3024f9",
      "vout": 0,
      "prevout": {
        "scriptpubkey": "0014042a66ca412d1da640dcc620a09d10ca65b234f4",
        "scriptpubkey_asm": "OP_0 OP_PUSHBYTES_20 042a66ca412d1da640dcc620a09d10ca65b234f4",
        "scriptpubkey_type": "v0_p2wpkh",
        "scriptpubkey_address": "bc1qqs4xdjjp95w6vsxuccs2p8gsefjmyd854y508q",
        "value": 1624467
      },
      "scriptsig": "",
      "scriptsig_asm": "",
      "witness": [
        "3044022072765e2ff0d95081be5e26852bdc1bb354789dbcdc26858896be65125463da1302203081092cd6caf0e39f91aaa8d0c9c4a8c55323a7d086f4b56a62d999db3b3bb301",
        "03eacca8f2ffe0e7fc53413d67db2ccd646a5d6e0897926fa2493dc47a8465068d"
      ],
      "is_coinbase": false,
      "sequence": 4294967294
    }
  ],
  "vout": [
    {
      "scriptpubkey": "00144fcee2169aa863d50b9fd51db350bf92331a8afe",
      "scriptpubkey_asm": "OP_0 OP_PUSHBYTES_20 4fcee2169aa863d50b9fd51db350bf92331a8afe",
      "scriptpubkey_type": "v0_p2wpkh",
      "scriptpubkey_address": "bc1qfl8wy9564p3a2zul65wmx59ljge34zh7xtm6wv",
      "value": 600000
    },
    {
      "scriptpubkey": "0014af1b2e71495788ca90009fb50364283042a30fec",
      "scriptpubkey_asm": "OP_0 OP_PUSHBYTES_20 af1b2e71495788ca90009fb50364283042a30fec",
      "scriptpubkey_type": "v0_p2wpkh",
      "scriptpubkey_address": "bc1q4udjuu2f27yv4yqqn76sxepgxpp2xrlvyy9h28",
      "value": 1020661
    }
  ],
  "size": 222,
  "weight": 561,
  "fee": 3806,
  "status": {
    "confirmed": true,
    "block_height": 834638,
    "block_hash": "000000000000000000025f742c626208ac87e0b7d15054abb4a19ca2d735a54e",
    "block_time": 1710405325
  },
  "hex": "02000000000101f924306b024a3aedaf8b7beed6ded2df77f143da6db2f12800ea43c54495047a0000000000feffffff02c0270900000000001600144fcee2169aa863d50b9fd51db350bf92331a8afef5920f0000000000160014af1b2e71495788ca90009fb50364283042a30fec02473044022072765e2ff0d95081be5e26852bdc1bb354789dbcdc26858896be65125463da1302203081092cd6caf0e39f91aaa8d0c9c4a8c55323a7d086f4b56a62d999db3b3bb3012103eacca8f2ffe0e7fc53413d67db2ccd646a5d6e0897926fa2493dc47a8465068d4dbc0c00"
}