{
  "txid": "cb0af1915ad5220b6793d6bf8dd8d3e1f2b6448373954a4ee5f301eaf09d9ed3",
  "version": 2,
  "locktime": 0,
  "vin": [
    {
      "txid": "ec078e23291808b7ceea0c33bb1ef80fa4b0de310ddafb8382b96a252ad51ff3",
      "vout": 2,
      "prevout": {
        "scriptpubkey": "001459f097294eab24cea2dcdd0557ef6324e5193259",
        "scriptpubkey_asm": "OP_0 OP_PUSHBYTES_20 59f097294eab24cea2dcdd0557ef6324e5193259",
        "scriptpubkey_type": "v0_p2wpkh",
        "scriptpubkey_address": "bc1qt8cfw22w4vjvagkum5z40mmrynj3jvjephh2lf",
        "value": 150250
      },
      "scriptsig": "",
      "scriptsig_asm": "",
      "witness": [
        "3045022100aa7108c7d002a271975482cb41072168611dbec6b78c1cacfe4639ba2f38342a02201477ff11cccc2733030f1e63b849447c60bc1dda2e28828e7c6fd348af50f78901",
        "02d25110f8bfb5c0e5f873eacdbe731f8d44a8ddbef00a50aae93a138265ef7b9e"
      ],
      "is_coinbase": false,
      "sequence": 4294967295
    },
    {
      "txid": "968c1c551945082678368df1482e4ac43997ed3625a7dada6f505b8826f42f0a",
      "vout": 0,
      "prevout": {
        "scriptpubkey": "001459f097294eab24cea2dcdd0557ef6324e5193259",
        "scriptpubkey_asm": "OP_0 OP_PUSHBYTES_20 59f097294eab24cea2dcdd0557ef6324e5193259",
        "scriptpubkey_type": "v0_p2wpkh",
        "scriptpubkey_address": "bc1qt8cfw22w4vjvagkum5z40mmrynj3jvjephh2lf",
        "value": 7631
      },
      "scriptsig": "",
      "scriptsig_asm": "",
      "witness": [
        "3045022100b067257ab9e271041889de40bf3655f1c58a1a2c9ac6101cfa226200217a430302200d394be8623cae1a6c644ebbb1ce568a80e3f039b7938789422d67d17cd630d901",
        "02d25110f8bfb5c0e5f873eacdbe731f8d44a8ddbef00a50aae93a138265ef7b9e"
      ],
      "is_coinbase": false,
      "sequence": 4294967295
    },
    {
      "txid": "1f80ebed945d6350412125ad4f95c0b6312ae7040977c19160a874ec454232c4",
      "vout": 0,
      "prevout": {
        "scriptpubkey": "001459f097294eab24cea2dcdd0557ef6324e5193259",
        "scriptpubkey_asm": "OP_0 OP_PUSHBYTES_20 59f097294eab24cea2dcdd0557ef6324e5193259",
        "scriptpubkey_type": "v0_p2wpkh",
        "scriptpubkey_address": "bc1qt8cfw22w4vjvagkum5z40mmrynj3jvjephh2lf",
        "value": 6485
      },
      "scriptsig": "",
      "scriptsig_asm": "",
      "witness": [
        "304402201aa4d35173b71f6752c39a5acf8b3c98560f9076a49ddb5979f04175f73c9e1102204459a6ae38e6fc16295f843d3b6c0a1037f11240aa371e7972fa815a9eecc04b01",
        "02d25110f8bfb5c0e5f873eacdbe731f8d44a8ddbef00a50aae93a138265ef7b9e"
      ],
      "is_coinbase": false,
      "sequence": 4294967295
    },
    {
      "txid": "67d9c056a168d7cf7012ba121f2c1a8f482b964c838d606cf64e9e7bad87f16a",
      "vout": 1,
      "prevout": {
        "scriptpubkey": "001459f097294eab24cea2dcdd0557ef6324e5193259",
        "scriptpubkey_asm": "OP_0 OP_PUSHBYTES_20 59f097294eab24cea2dcdd0557ef6324e5193259",
        "scriptpubkey_type": "v0_p2wpkh",
        "scriptpubkey_address": "bc1qt8cfw22w4vjvagkum5z40mmrynj3jvjephh2lf",
        "value": 4900
      },
      "scriptsig": "",
      "scriptsig_asm": "",
      "witness": [
        "30450221009ff86e55869a26a4b14e46ea7e7f80e88eee6197ab054eb70050eafa52235f3a022073d53c1f158d1e76fb4c5aa7bf5bd450e3b004dc40aea3e9ca4ed1803516918801",
        "02d25110f8bfb5c0e5f873eacdbe731f8d44a8ddbef00a50aae93a138265ef7b9e"
      ],
      "is_coinbase": false,
      "sequence": 4294967295
    },
    {
      "txid": "9431148cfbe9ada50e3c57f8bd1e8b08c6c89ee8790ed6b7b3a80684c604ee10",
      "vout": 0,
      "prevout": {
        "scriptpubkey": "001459f097294eab24cea2dcdd0557ef6324e5193259",
        "scriptpubkey_asm": "OP_0 OP_PUSHBYTES_20 59f097294eab24cea2dcdd0557ef6324e5193259",
        "scriptpubkey_type": "v0_p2wpkh",
        "scriptpubkey_address": "bc1qt8cfw22w4vjvagkum5z40mmrynj3jvjephh2lf",
        "value": 1704
      },
      "scriptsig": "",
      "scriptsig_asm": "",
      "witness": [
        "3044022034fb7fd36dbc15f1ebd898f807504e6a955de64e5a44e45a5cbb19508f9ac474022022eeb2cde619a4cb7148649bbf67c5114dc0992954947805f0e32ea753b4b4f101",
        "02d25110f8bfb5c0e5f873eacdbe731f8d44a8ddbef00a50aae93a138265ef7b9e"
      ],
      "is_coinbase": false,
      "sequence": 4294967295
    },
    {
      "txid": "0d0b479e1af1e21b53948888d4e2ba8e2e7ac9a2634fd3611b23d54ae814010f",
      "vout": 0,
      "prevout": {
        "scriptpubkey": "001459f097294eab24cea2dcdd0557ef6324e5193259",
        "scriptpubkey_asm": "OP_0 OP_PUSHBYTES_20 59f097294eab24cea2dcdd0557ef6324e5193259",
        "scriptpubkey_type": "v0_p2wpkh",
        "scriptpubkey_address": "bc1qt8cfw22w4vjvagkum5z40mmrynj3jvjephh2lf",
        "value": 951
      },
      "scriptsig": "",
      "scriptsig_asm": "",
      "witness": [
        "30440220743e2b666ddebe90e943257ef31e0a994f98f4c02ef98232bc3f73b61b9ea8d902203abde8dab7d6032fc991051f8b8d82e0b69ee1ec5b9f5386e230eff2ec9c70a301",
        "02d25110f8bfb5c0e5f873eacdbe731f8d44a8ddbef00a50aae93a138265ef7b9e"
      ],
      "is_coinbase": false,
      "sequence": 4294967295
    }
  ],
  "vout": [
    {
      "scriptpubkey": "a914ed4a9ce74fe2ae9ce36f4cfb2a678fa4f6cb966b87",
      "scriptpubkey_asm": "OP_HASH160 OP_PUSHBYTES_20 ed4a9ce74fe2ae9ce36f4cfb2a678fa4f6cb966b OP_EQUAL",
      "scriptpubkey_type": "p2sh",
      "scriptpubkey_address": "3PKhTCjLJ9zNeaBysqzUiM89V9beaERhGX",
      "value": 166728
    }
  ],
  "size": 935,
  "weight": 1799,
  "fee": 5193,
  "status": {
    "confirmed": true,
    "block_height": 834460,
    "block_hash": "00000000000000000000484a79b643b2524bbce82e5d8a442013fa5b8905ed98",
    "block_time": 1710307468
  },
  "hex": "02000000000106f31fd52a256ab98283fbda0d31deb0a40ff81ebb330ceaceb7081829238e07ec0200000000ffffffff0a2ff426885b506fdadaa72536ed9739c44a2e48f18d367826084519551c8c960000000000ffffffffc4324245ec74a86091c1770904e72a31b6c0954fad25214150635d94edeb801f0000000000ffffffff6af187ad7b9e4ef66c608d834c962b488f1a2c1f12ba1270cfd768a156c0d9670100000000ffffffff10ee04c68406a8b3b7d60e79e89ec8c6088b1ebdf8573c0ea5ade9fb8c1431940000000000ffffffff0f0114e84ad5231b61d34f63a2c97a2e8ebae2d4888894531be2f11a9e470b0d0000000000ffffffff01488b02000000000017a914ed4a9ce74fe2ae9ce36f4cfb2a678fa4f6cb966b8702483045022100aa7108c7d002a271975482cb41072168611dbec6b78c1cacfe4639ba2f38342a02201477ff11cccc2733030f1e63b849447c60bc1dda2e28828e7c6fd348af50f789012102d25110f8bfb5c0e5f873eacdbe731f8d44a8ddbef00a50aae93a138265ef7b9e02483045022100b067257ab9e271041889de40bf3655f1c58a1a2c9ac6101cfa226200217a430302200d394be8623cae1a6c644ebbb1ce568a80e3f039b7938789422d67d17cd630d9012102d25110f8bfb5c0e5f873eacdbe731f8d44a8ddbef00a50aae93a138265ef7b9e0247304402201aa4d35173b71f6752c39a5acf8b3c98560f9076a49ddb5979f04175f73c9e1102204459a6ae38e6fc16295f843d3b6c0a1037f11240aa371e7972fa815a9eecc04b012102d25110f8bfb5c0e5f873eacdbe731f8d44a8ddbef00a50aae93a138265ef7b9e024830450221009ff86e55869a26a4b14e46ea7e7f80e88eee6197ab054eb70050eafa52235f3a022073d53c1f158d1e76fb4c5aa7bf5bd450e3b004dc40aea3e9ca4ed18035169188012102d25110f8bfb5c0e5f873eacdbe731f8d44a8ddbef00a50aae93a138265ef7b9e02473044022034fb7fd36dbc15f1ebd898f807504e6a955de64e5a44e45a5cbb19508f9ac474022022eeb2cde619a4cb7148649bbf67c5114dc0992954947805f0e32ea753b4b4f1012102d25110f8bfb5c0e5f873eacdbe731f8d44a8ddbef00a50aae93a138265ef7b9e024730440220743e2b666ddebe90e943257ef31e0a994f98f4c02ef98232bc3f73b61b9ea8d902203abde8dab7d6032fc991051f8b8d82e0b69ee1ec5b9f5386e230eff2ec9c70a3012102d25110f8bfb5c0e5f873eacdbe731f8d44a8ddbef00a50aae93a138265ef7b9e00000000"
}