{
  "txid": "cb0e2ffdb432fa68b7c0046235053f3d3a339dcf1c58fbb16cd182aeca0f4734",
  "version": 2,
  "locktime": 0,
  "vin": [
    {
      "txid": "012dd6be448f188b2b8c29068281931e3d91b9a98ffab8444e4ede1f19c246cf",
      "vout": 1,
      "prevout": {
        "scriptpubkey": "512075334c38a38f32bfde98df25d435a4ac32baad2c76c237aa3704e5a763284000",
        "scriptpubkey_asm": "OP_PUSHNUM_1 OP_PUSHBYTES_32 75334c38a38f32bfde98df25d435a4ac32baad2c76c237aa3704e5a763284000",
        "scriptpubkey_type": "v1_p2tr",
        "scriptpubkey_address": "bc1pw5e5cw9r3uetlh5cmujagddy4set4tfvwmpr023hqnj6wceggqqqv2aeqt",
        "value": 328202
      },
      "scriptsig": "",
      "scriptsig_asm": "",
      "witness": [
        "c3a17a149e79d0a4b505cbfd6a0072e3a3e74aae2c8736404b82f40dc53d3b270e007965a7cb663230f48d14773e06c3345cef1f7aed3c14d208c114785a6e79"
      ],
      "is_coinbase": false,
      "sequence": 4294967295
    }
  ],
  "vout": [
    {
      "scriptpubkey": "5120e65ff50a8f5ad3b1b8b1595fcfa84a1f7f078078135e1492d51739d12e9a089e",
      "scriptpubkey_asm": "OP_PUSHNUM_1 OP_PUSHBYTES_32 e65ff50a8f5ad3b1b8b1595fcfa84a1f7f078078135e1492d51739d12e9a089e",
      "scriptpubkey_type": "v1_p2tr",
      "scriptpubkey_address": "bc1pue0l2z50ttfmrw93t90ul2z2rals0qrczd0pfyk4zuuazt56pz0qhayk55",
      "value": 8000
    },
    {
      "scriptpubkey": "512075334c38a38f32bfde98df25d435a4ac32baad2c76c237aa3704e5a763284000",
      "scriptpubkey_asm": "OP_PUSHNUM_1 OP_PUSHBYTES_32 75334c38a38f32bfde98df25d435a4ac32baad2c76c237aa3704e5a763284000",
      "scriptpubkey_type": "v1_p2tr",
      "scriptpubkey_address": "bc1pw5e5cw9r3uetlh5cmujagddy4set4tfvwmpr023hqnj6wceggqqqv2aeqt",
      "value": 315582
    }
  ],
  "size": 205,
  "weight": 616,
  "fee": 4620,
  "status": {
    "confirmed": true,
    "block_height": 834638,
    "block_hash": "000000000000000000025f742c626208ac87e0b7d15054abb4a19ca2d735a54e",
    "block_time": 1710405325
  },
  "hex": "02000000000101cf46c2191fde4e4e44b8fa8fa9b9913d1e93818206298c2b8b188f44bed62d010100000000ffffffff02401f000000000000225120e65ff50a8f5ad3b1b8b1595fcfa84a1f7f078078135e1492d51739d12e9a089ebed004000000000022512075334c38a38f32bfde98df25d435a4ac32baad2c76c237aa3704e5a7632840000140c3a17a149e79d0a4b505cbfd6a0072e3a3e74aae2c8736404b82f40dc53d3b270e007965a7cb663230f48d14773e06c3345cef1f7aed3c14d208c114785a6e7900000000"
}