{
  "txid": "cb1094b3c10ecf5e39ffed13e6cb3207ccfa19306ab09205fdb2902cbf534ca3",
  "version": 1,
  "locktime": 0,
  "vin": [
    {
      "txid": "f8b71ead7272c4641e7fb745e19b38873fe477b6662bd0ea5ea6c7158e84ebff",
      "vout": 1,
      "prevout": {
        "scriptpubkey": "001443b0fb99fe52ebb222dfe587537c635d7d1f172f",
        "scriptpubkey_asm": "OP_0 OP_PUSHBYTES_20 43b0fb99fe52ebb222dfe587537c635d7d1f172f",
        "scriptpubkey_type": "v0_p2wpkh",
        "scriptpubkey_address": "bc1qgwc0hx072t4mygklukr4xlrrt47379e070j6l4",
        "value": 21460
      },
      "scriptsig": "",
      "scriptsig_asm": "",
      "witness": [
        "3045022100ae331b9a1c1d5f671a54234d2696413d02eace6a529d5a4027ce095894be8d5602202220ce7b6914004db93a5dbd43cefbc69e7f45a08d355ae9249b78f493c4500401",
        "03737a0e123abdf8e6f79b51062ce33f669e32234828cb7b3a55651044664185eb"
      ],
      "is_coinbase": false,
      "sequence": 4294967295
    }
  ],
  "vout": [
    {
      "scriptpubkey": "76a914efb73f4855842ca0ebb70245553bcc01e398320288ac",
      "scriptpubkey_asm": "OP_DUP OP_HASH160 OP_PUSHBYTES_20 efb73f4855842ca0ebb70245553bcc01e3983202 OP_EQUALVERIFY OP_CHECKSIG",
      "scriptpubkey_type": "p2pkh",
      "scriptpubkey_address": "1NrW25zBHSXsoeB3vYqJLAcnf5M1vZDqUQ",
      "value": 13622
    },
    {
      "scriptpubkey": "0014ee42d14a0bbcfd48049691745b9a3884bf973757",
      "scriptpubkey_asm": "OP_0 OP_PUSHBYTES_20 ee42d14a0bbcfd48049691745b9a3884bf973757",
      "scriptpubkey_type": "v0_p2wpkh",
      "scriptpubkey_address": "bc1qaepdzjsthn75spykj969hx3csjlewd6hcanla7",
      "value": 5300
    }
  ],
  "size": 226,
  "weight": 574,
  "fee": 2538,
  "status": {
    "confirmed": true,
    "block_height": 834638,
    "block_hash": "000000000000000000025f742c626208ac87e0b7d15054abb4a19ca2d735a54e",
    "block_time": 1710405325
  },
  "hex": "01000000000101ffeb848e15c7a65eead02b66b677e43f87389be145b77f1e64c47272ad1eb7f80100000000ffffffff0236350000000000001976a914efb73f4855842ca0ebb70245553bcc01e398320288acb414000000000000160014ee42d14a0bbcfd48049691745b9a3884bf97375702483045022100ae331b9a1c1d5f671a54234d2696413d02eace6a529d5a4027ce095894be8d5602202220ce7b6914004db93a5dbd43cefbc69e7f45a08d355ae9249b78f493c45004012103737a0e123abdf8e6f79b51062ce33f669e32234828cb7b3a55651044664185eb00000000"
}