{
  "txid": "cb2930faf9670b24e09be9a5a98e72d1b5cfd0dcecb1b1b5452eb85a1ce80ff4",
  "version": 1,
  "locktime": 0,
  "vin": [
    {
      "txid": "9f18cfb37d248e035bd19f952bcc60997a7059b1b2d48317018c9de268094d4e",
      "vout": 0,
      "prevout": {
        "scriptpubkey": "76a91456c0bc2f50bc150d4ea122e66db7c48b01b9722988ac",
        "scriptpubkey_asm": "OP_DUP OP_HASH160 OP_PUSHBYTES_20 56c0bc2f50bc150d4ea122e66db7c48b01b97229 OP_EQUALVERIFY OP_CHECKSIG",
        "scriptpubkey_type": "p2pkh",
        "scriptpubkey_address": "18uhzy546Qz7CxRNkHohg4W9VSkfTkbSvY",
        "value": 13328156
      },
      "scriptsig": "47304402202860f487235603e3a02cebed6f630f2fd8a57df0befca3d1028b0a08257ab91802202cf1ee3890856cb260a646a310e3615e06957491d17ae36140e61dc5258377df012102671f1ae5ef3966dc547de554cccf34a0aaf1f245be325ca00dc54934f10736f3",
      "scriptsig_asm": "OP_PUSHBYTES_71 304402202860f487235603e3a02cebed6f630f2fd8a57df0befca3d1028b0a08257ab91802202cf1ee3890856cb260a646a310e3615e06957491d17ae36140e61dc5258377df01 OP_PUSHBYTES_33 02671f1ae5ef3966dc547de554cccf34a0aaf1f245be325ca00dc54934f10736f3",
      "is_coinbase": false,
      "sequence": 2147483648
    }
  ],
  "vout": [
    {
      "scriptpubkey": "a91456d70a64dd40954750a8e361a11ed4af2265015e87",
      "scriptpubkey_asm": "OP_HASH160 OP_PUSHBYTES_20 56d70a64dd40954750a8e361a11ed4af2265015e OP_EQUAL",
      "scriptpubkey_type": "p2sh",
      "scriptpubkey_address": "39cBeKkYSMSySie9U3qPVyxidywUneGPnT",
      "value": 13090000
    },
    {
      "scriptpubkey": "76a91456c0bc2f50bc150d4ea122e66db7c48b01b9722988ac",
      "scriptpubkey_asm": "OP_DUP OP_HASH160 OP_PUSHBYTES_20 56c0bc2f50bc150d4ea122e66db7c48b01b97229 OP_EQUALVERIFY OP_CHECKSIG",
      "scriptpubkey_type": "p2pkh",
      "scriptpubkey_address": "18uhzy546Qz7CxRNkHohg4W9VSkfTkbSvY",
      "value": 197631
    }
  ],
  "size": 223,
  "weight": 892,
  "fee": 40525,
  "status": {
    "confirmed": true,
    "block_height": 834638,
    "block_hash": "000000000000000000025f742c626208ac87e0b7d15054abb4a19ca2d735a54e",
    "block_time": 1710405325
  },
  "hex": "01000000014e4d0968e29d8c011783d4b2b159707a9960cc2b959fd15b038e247db3cf189f000000006a47304402202860f487235603e3a02cebed6f630f2fd8a57df0befca3d1028b0a08257ab91802202cf1ee3890856cb260a646a310e3615e06957491d17ae36140e61dc5258377df012102671f1ae5ef3966dc547de554cccf34a0aaf1f245be325ca00dc54934f10736f30000008002d0bcc7000000000017a91456d70a64dd40954750a8e361a11ed4af2265015e87ff030300000000001976a91456c0bc2f50bc150d4ea122e66db7c48b01b9722988ac00000000"
}