{
  "txid": "cb39a285990cb9dbe4f6778788b340d857541c8cb0f416a909f880a2040bae2a",
  "version": 2,
  "locktime": 0,
  "vin": [
    {
      "txid": "acc3ba00869acb582a3f2904ce3a11dd3779350ce234063fc7d0959246213364",
      "vout": 274,
      "prevout": {
        "scriptpubkey": "51205d863ba57a7146cc22cb41c649d18f5827febdb561ec62671e34fae89f5a22e3",
        "scriptpubkey_asm": "OP_PUSHNUM_1 OP_PUSHBYTES_32 5d863ba57a7146cc22cb41c649d18f5827febdb561ec62671e34fae89f5a22e3",
        "scriptpubkey_type": "v1_p2tr",
        "scriptpubkey_address": "bc1ptkrrhft6w9rvcgktg8ryn5v0tqnla0d4v8kxyec7xnaw3866yt3sfha6sq",
        "value": 1806
      },
      "scriptsig": "",
      "scriptsig_asm": "",
      "witness": [
        "9899e5e3cd188ef23f67a11ccca4f783ea336cfe8a37c20b032dd8567d5920730d0bd6a878fed5afa6930bce00bf184c18c143b99860b90c86420478d6d9b710",
        "209a67f5b1aa3bbd8109f967d9f9e6809c9806c8a0bce7a4a23947d2a560dcfc90ac0063036f726401010a746578742f706c61696e00357b2270223a226272632d3230222c226f70223a226d696e74222c227469636b223a22646f6765222c22616d74223a2234323030227d68",
        "c09a67f5b1aa3bbd8109f967d9f9e6809c9806c8a0bce7a4a23947d2a560dcfc90"
      ],
      "is_coinbase": false,
      "sequence": 4261412863
    }
  ],
  "vout": [
    {
      "scriptpubkey": "00147a665de7a370f4c9b372ab1fae587500a5bcbdb4",
      "scriptpubkey_asm": "OP_0 OP_PUSHBYTES_20 7a665de7a370f4c9b372ab1fae587500a5bcbdb4",
      "scriptpubkey_type": "v0_p2wpkh",
      "scriptpubkey_address": "bc1q0fn9mearwr6vnvmj4v06ukr4qzjme0d565dzcx",
      "value": 294
    }
  ],
  "size": 294,
  "weight": 540,
  "fee": 1512,
  "status": {
    "confirmed": true,
    "block_height": 834460,
    "block_hash": "00000000000000000000484a79b643b2524bbce82e5d8a442013fa5b8905ed98",
    "block_time": 1710307468
  },
  "hex": "02000000000101643321469295d0c73f0634e20c357937dd113ace04293f2a58cb9a8600bac3ac1201000000fffffffd0126010000000000001600147a665de7a370f4c9b372ab1fae587500a5bcbdb403409899e5e3cd188ef23f67a11ccca4f783ea336cfe8a37c20b032dd8567d5920730d0bd6a878fed5afa6930bce00bf184c18c143b99860b90c86420478d6d9b7106d209a67f5b1aa3bbd8109f967d9f9e6809c9806c8a0bce7a4a23947d2a560dcfc90ac0063036f726401010a746578742f706c61696e00357b2270223a226272632d3230222c226f70223a226d696e74222c227469636b223a22646f6765222c22616d74223a2234323030227d6821c09a67f5b1aa3bbd8109f967d9f9e6809c9806c8a0bce7a4a23947d2a560dcfc9000000000"
}