{
  "txid": "cb4d13f1974f1d29b917136fc496acb3902f632dd88f8e53f1f5d3e18d220e56",
  "version": 1,
  "locktime": 0,
  "vin": [
    {
      "txid": "8a43a06d6cbf48820325aa2e55e6bb2e1eb3cc63002f19b03de670f7c7258645",
      "vout": 1,
      "prevout": {
        "scriptpubkey": "00144033492b9f727e3d282cf09889e483d3bbe91d12",
        "scriptpubkey_asm": "OP_0 OP_PUSHBYTES_20 4033492b9f727e3d282cf09889e483d3bbe91d12",
        "scriptpubkey_type": "v0_p2wpkh",
        "scriptpubkey_address": "bc1qgqe5j2ulwflr62pv7zvgneyr6wa7j8gj7sdusr",
        "value": 710661
      },
      "scriptsig": "",
      "scriptsig_asm": "",
      "witness": [
        "304402207f295e5ecc59e6eec5f772ab1f5661f8f9b05cd392dec34ecc1ed41a6ebe248802207305d9e28ae7434caf1a7355b1571f1f7f11d10abf5819b5780f24e83a0e280901",
        "0373ebafb4943cf88b028d6a21e5e8a8ad14d164dfe33fee4597363269d8ccd607"
      ],
      "is_coinbase": false,
      "sequence": 4294967295
    }
  ],
  "vout": [
    {
      "scriptpubkey": "76a914afb5d23d392f2d03af9b1bea7013212ec3aec3e888ac",
      "scriptpubkey_asm": "OP_DUP OP_HASH160 OP_PUSHBYTES_20 afb5d23d392f2d03af9b1bea7013212ec3aec3e8 OP_EQUALVERIFY OP_CHECKSIG",
      "scriptpubkey_type": "p2pkh",
      "scriptpubkey_address": "1H254jTWVWsFzWh3xsX478isnjSnsg4ccK",
      "value": 68050
    },
    {
      "scriptpubkey": "00146700a75320d03b9ce42e1fbc906d04d55e7e6c30",
      "scriptpubkey_asm": "OP_0 OP_PUSHBYTES_20 6700a75320d03b9ce42e1fbc906d04d55e7e6c30",
      "scriptpubkey_type": "v0_p2wpkh",
      "scriptpubkey_address": "bc1qvuq2w5eq6qaeeepwr77fqmgy6408umpsky4u3s",
      "value": 638899
    }
  ],
  "size": 225,
  "weight": 573,
  "fee": 3712,
  "status": {
    "confirmed": true,
    "block_height": 834638,
    "block_hash": "000000000000000000025f742c626208ac87e0b7d15054abb4a19ca2d735a54e",
    "block_time": 1710405325
  },
  "hex": "01000000000101458625c7f770e63db0192f0063ccb31e2ebbe6552eaa25038248bf6c6da0438a0100000000ffffffff02d2090100000000001976a914afb5d23d392f2d03af9b1bea7013212ec3aec3e888acb3bf0900000000001600146700a75320d03b9ce42e1fbc906d04d55e7e6c300247304402207f295e5ecc59e6eec5f772ab1f5661f8f9b05cd392dec34ecc1ed41a6ebe248802207305d9e28ae7434caf1a7355b1571f1f7f11d10abf5819b5780f24e83a0e280901210373ebafb4943cf88b028d6a21e5e8a8ad14d164dfe33fee4597363269d8ccd60700000000"
}