{
  "txid": "cb54cd5bc4513e2b21afc21d445315b1211b0e329fe645d932e9a0edd66a22b0",
  "version": 2,
  "locktime": 0,
  "vin": [
    {
      "txid": "284cac5db33108bc524a54ef85434005411131d8174f4e123b9821f784a3be8c",
      "vout": 0,
      "prevout": {
        "scriptpubkey": "00140f0c4a31b99e7b21998114dc53128a32b3e91c83",
        "scriptpubkey_asm": "OP_0 OP_PUSHBYTES_20 0f0c4a31b99e7b21998114dc53128a32b3e91c83",
        "scriptpubkey_type": "v0_p2wpkh",
        "scriptpubkey_address": "bc1qpuxy5vdeneajrxvpznw9xy52x2e7j8yr2qmhqg",
        "value": 190724
      },
      "scriptsig": "",
      "scriptsig_asm": "",
      "witness": [
        "304402206a3b140aa1d541cad737ef31099a86343f1ff7137ea6cba0ae1fcdf1cb7377bc0220017a43dfbfa2a75d458e767f585a6aea562a2d0c48b294423fca1efe66b1b95501",
        "030325dea537f5a5628780a10c133b0b895ba54cf6b608113f7b7ee1a0ec05fb99"
      ],
      "is_coinbase": false,
      "sequence": 4294967293
    }
  ],
  "vout": [
    {
      "scriptpubkey": "a914ec6d45d6f668c4cfc44bf90af595800cd4cd17f387",
      "scriptpubkey_asm": "OP_HASH160 OP_PUSHBYTES_20 ec6d45d6f668c4cfc44bf90af595800cd4cd17f3 OP_EQUAL",
      "scriptpubkey_type": "p2sh",
      "scriptpubkey_address": "3PF8JDw1JGMCwxUE1MKVoXejG8joogs6Y9",
      "value": 187283
    }
  ],
  "size": 192,
  "weight": 441,
  "fee": 3441,
  "status": {
    "confirmed": true,
    "block_height": 834638,
    "block_hash": "000000000000000000025f742c626208ac87e0b7d15054abb4a19ca2d735a54e",
    "block_time": 1710405325
  },
  "hex": "020000000001018cbea384f721983b124e4f17d831114105404385ef544a52bc0831b35dac4c280000000000fdffffff0193db02000000000017a914ec6d45d6f668c4cfc44bf90af595800cd4cd17f3870247304402206a3b140aa1d541cad737ef31099a86343f1ff7137ea6cba0ae1fcdf1cb7377bc0220017a43dfbfa2a75d458e767f585a6aea562a2d0c48b294423fca1efe66b1b9550121030325dea537f5a5628780a10c133b0b895ba54cf6b608113f7b7ee1a0ec05fb9900000000"
}