{
  "txid": "cb57c94eba2d5c02591a7dd4fb1785e725c82b37010bfac359f2f1e033889670",
  "version": 1,
  "locktime": 0,
  "vin": [
    {
      "txid": "b2561c42301a454fb19496d17c2720be1175c3f71f56d0941b7df8b40e372a95",
      "vout": 0,
      "prevout": {
        "scriptpubkey": "5120630f8c417c39fe3dde680e13b18f814d341d980b97ab6dc973a7db33c2b55f55",
        "scriptpubkey_asm": "OP_PUSHNUM_1 OP_PUSHBYTES_32 630f8c417c39fe3dde680e13b18f814d341d980b97ab6dc973a7db33c2b55f55",
        "scriptpubkey_type": "v1_p2tr",
        "scriptpubkey_address": "bc1pvv8ccstu88lrmhngpcfmrrupf56pmxqtj74kmjtn5ldn8s44ta2s3jskq9",
        "value": 3063
      },
      "scriptsig": "",
      "scriptsig_asm": "",
      "witness": [
        "c06aa5207ab11034983b241da93f0b56a87451dd54692125fabbe01712aa0f205761c4ed3cacd02aefd89215886eacacd8d83f75464d794279b423849be3e82e",
        "20dfa7325ed77fab28d796d113dcead29a7490c58aaa244f71cf02d52f6b761081ac00630461746f6d03646d7418a16461726773a16b6d696e745f7469636b657264646f676568",
        "c1dfa7325ed77fab28d796d113dcead29a7490c58aaa244f71cf02d52f6b761081"
      ],
      "is_coinbase": false,
      "sequence": 0
    }
  ],
  "vout": [
    {
      "scriptpubkey": "0014fee280141d858d4048606b1379c35e291248b7f1",
      "scriptpubkey_asm": "OP_0 OP_PUSHBYTES_20 fee280141d858d4048606b1379c35e291248b7f1",
      "scriptpubkey_type": "v0_p2wpkh",
      "scriptpubkey_address": "bc1qlm3gq9qaskx5qjrqdvfhns679yfy3dl3yvarqn",
      "value": 1000
    }
  ],
  "size": 256,
  "weight": 502,
  "fee": 2063,
  "status": {
    "confirmed": true,
    "block_height": 834464,
    "block_hash": "0000000000000000000177a0869a911a2b65c9bdcd5a8bcb02b68f305bee848e",
    "block_time": 1710308296
  },
  "hex": "01000000000101952a370eb4f87d1b94d0561ff7c37511be20277cd19694b14f451a30421c56b200000000000000000001e803000000000000160014fee280141d858d4048606b1379c35e291248b7f10340c06aa5207ab11034983b241da93f0b56a87451dd54692125fabbe01712aa0f205761c4ed3cacd02aefd89215886eacacd8d83f75464d794279b423849be3e82e4720dfa7325ed77fab28d796d113dcead29a7490c58aaa244f71cf02d52f6b761081ac00630461746f6d03646d7418a16461726773a16b6d696e745f7469636b657264646f67656821c1dfa7325ed77fab28d796d113dcead29a7490c58aaa244f71cf02d52f6b76108100000000"
}