{
  "txid": "cb67ec18fb933e4d9887fcfa1944fc7aab5cbf0b6d67326432569810418b9ee1",
  "version": 1,
  "locktime": 0,
  "vin": [
    {
      "txid": "f807a80b7675dc899aa3de5ed13f79485d405f5150594d3ac7c91f41860e2917",
      "vout": 0,
      "prevout": {
        "scriptpubkey": "0014212a51a1e5985e5735ab35ba26ea15894c5f9b69",
        "scriptpubkey_asm": "OP_0 OP_PUSHBYTES_20 212a51a1e5985e5735ab35ba26ea15894c5f9b69",
        "scriptpubkey_type": "v0_p2wpkh",
        "scriptpubkey_address": "bc1qyy49rg09np09wddtxkazd6s439x9lxmfs27ax6",
        "value": 3411175
      },
      "scriptsig": "",
      "scriptsig_asm": "",
      "witness": [
        "30440220709cb14d2183c25530122417b0fa4961c121260e2312e328a28d46adede80e0002201aac0b71a319185b4af4c862525aa3d2fa5372d208f7e3f9ec79b4c38a29315701",
        "02e9dc2c5577e0c7f4f1f103c67ebdc3c1d7ef1fd57dbb97dacf75626d63092cdc"
      ],
      "is_coinbase": false,
      "sequence": 4294967295
    }
  ],
  "vout": [
    {
      "scriptpubkey": "0014c200898d6462bd7508869dd57e74bae8ac0bd8e0",
      "scriptpubkey_asm": "OP_0 OP_PUSHBYTES_20 c200898d6462bd7508869dd57e74bae8ac0bd8e0",
      "scriptpubkey_type": "v0_p2wpkh",
      "scriptpubkey_address": "bc1qcgqgnrtyv27h2zyxnh2hua96azkqhk8qnqgaqx",
      "value": 3408205
    }
  ],
  "size": 191,
  "weight": 437,
  "fee": 2970,
  "status": {
    "confirmed": true,
    "block_height": 834638,
    "block_hash": "000000000000000000025f742c626208ac87e0b7d15054abb4a19ca2d735a54e",
    "block_time": 1710405325
  },
  "hex": "0100000000010117290e86411fc9c73a4d5950515f405d48793fd15edea39a89dc75760ba807f80000000000ffffffff014d01340000000000160014c200898d6462bd7508869dd57e74bae8ac0bd8e0024730440220709cb14d2183c25530122417b0fa4961c121260e2312e328a28d46adede80e0002201aac0b71a319185b4af4c862525aa3d2fa5372d208f7e3f9ec79b4c38a293157012102e9dc2c5577e0c7f4f1f103c67ebdc3c1d7ef1fd57dbb97dacf75626d63092cdc00000000"
}