{
  "txid": "cb6956e264a5fd11c99a08b537f9513a13a2e3412b031dec3c01c45d1f7ed667",
  "version": 2,
  "locktime": 0,
  "vin": [
    {
      "txid": "3f69fae8ca9bdd774ca5294e86509449f431bb44e2206cae9f7f495b7952d9e2",
      "vout": 18,
      "prevout": {
        "scriptpubkey": "5120c57e75eeb12cd53e5c69764779f1e5a8c147c9d8ae8e9e7565c8e0f846093571",
        "scriptpubkey_asm": "OP_PUSHNUM_1 OP_PUSHBYTES_32 c57e75eeb12cd53e5c69764779f1e5a8c147c9d8ae8e9e7565c8e0f846093571",
        "scriptpubkey_type": "v1_p2tr",
        "scriptpubkey_address": "bc1pc4l8tm439n2nuhrfwerhnu094rq50jwc468fuat9ers0s3sfx4cs43egqk",
        "value": 2996
      },
      "scriptsig": "",
      "scriptsig_asm": "",
      "witness": [
        "590650b161c1f53862304bec990013e7aee72e22b3da42727cc14c31e27bda0e125f2601c89484a4fa4731debd4ae2ca5cbce98e72390954b92415844c0ab8b2",
        "202d51d3be9daec19b4d2c5e6cb624df5f5323a3752b5eef8c615c5e844a3482ceac0063036f726401011e6170706c69636174696f6e2f6a736f6e3b636861727365743d7574662d38004cb77b2270223a22706f772d3230222c226f70223a226d696e74222c227469636b223a2250455045222c22616d74223a2231303030222c22736f6c7574696f6e223a22504550453a334d524d3246744a42504c46315958564766504d33656556746675364446734762623a303030303030303030303030303030303030303139393431613561653132383937363539383134343239323533333030353762306461393666336465613163353a3532313634313039303934227d68",
        "c16b70a06f37e9fa1ff7e7bec8bd1210228b25051d0c17b5264cdd8c73b544f454"
      ],
      "is_coinbase": false,
      "sequence": 4294967295
    }
  ],
  "vout": [
    {
      "scriptpubkey": "a914d86bcd8c487ad519e95c6557e7463d579cce14a287",
      "scriptpubkey_asm": "OP_HASH160 OP_PUSHBYTES_20 d86bcd8c487ad519e95c6557e7463d579cce14a2 OP_EQUAL",
      "scriptpubkey_type": "p2sh",
      "scriptpubkey_address": "3MRM2FtJBPLF1YXVGfPM3eeVtfu6DFsGbb",
      "value": 546
    }
  ],
  "size": 448,
  "weight": 697,
  "fee": 2450,
  "status": {
    "confirmed": true,
    "block_height": 834460,
    "block_hash": "00000000000000000000484a79b643b2524bbce82e5d8a442013fa5b8905ed98",
    "block_time": 1710307468
  },
  "hex": "02000000000101e2d952795b497f9fae6c20e244bb31f4499450864e29a54c77dd9bcae8fa693f1200000000ffffffff01220200000000000017a914d86bcd8c487ad519e95c6557e7463d579cce14a2870340590650b161c1f53862304bec990013e7aee72e22b3da42727cc14c31e27bda0e125f2601c89484a4fa4731debd4ae2ca5cbce98e72390954b92415844c0ab8b2fd0401202d51d3be9daec19b4d2c5e6cb624df5f5323a3752b5eef8c615c5e844a3482ceac0063036f726401011e6170706c69636174696f6e2f6a736f6e3b636861727365743d7574662d38004cb77b2270223a22706f772d3230222c226f70223a226d696e74222c227469636b223a2250455045222c22616d74223a2231303030222c22736f6c7574696f6e223a22504550453a334d524d3246744a42504c46315958564766504d33656556746675364446734762623a303030303030303030303030303030303030303139393431613561653132383937363539383134343239323533333030353762306461393666336465613163353a3532313634313039303934227d6821c16b70a06f37e9fa1ff7e7bec8bd1210228b25051d0c17b5264cdd8c73b544f45400000000"
}