{
  "txid": "cb72367ff7618ef29b63b18ae2c2117f4d4ab3f2daae686467510d1433edbec4",
  "version": 2,
  "locktime": 834637,
  "vin": [
    {
      "txid": "464838d40f39440a43fe58fde513254058d0025f46df91b11cd30699b0f8516e",
      "vout": 1,
      "prevout": {
        "scriptpubkey": "76a9145f36360a4f4abeb6524e793815a0345d3919261d88ac",
        "scriptpubkey_asm": "OP_DUP OP_HASH160 OP_PUSHBYTES_20 5f36360a4f4abeb6524e793815a0345d3919261d OP_EQUALVERIFY OP_CHECKSIG",
        "scriptpubkey_type": "p2pkh",
        "scriptpubkey_address": "19gS8srXXTPbuMeh3Run4gWYJah3WLBvLF",
        "value": 1754870
      },
      "scriptsig": "47304402207a3ff40cb52d8b4527e93ad9ef2125ad8ae82c83dfa2e727127f3aa58cefb46d0220453bf2b42714d31645cca88e86908c553c7809eb97a97732d7b8dde24d6c07b6012103c5e9eb879b346eec88226a71311c00869bf974f1a1f515c594333a3fd7fb65b6",
      "scriptsig_asm": "OP_PUSHBYTES_71 304402207a3ff40cb52d8b4527e93ad9ef2125ad8ae82c83dfa2e727127f3aa58cefb46d0220453bf2b42714d31645cca88e86908c553c7809eb97a97732d7b8dde24d6c07b601 OP_PUSHBYTES_33 03c5e9eb879b346eec88226a71311c00869bf974f1a1f515c594333a3fd7fb65b6",
      "is_coinbase": false,
      "sequence": 4294967293
    }
  ],
  "vout": [
    {
      "scriptpubkey": "76a9147f1fdfd91a97b76465b49e0b8f30041d592ac11588ac",
      "scriptpubkey_asm": "OP_DUP OP_HASH160 OP_PUSHBYTES_20 7f1fdfd91a97b76465b49e0b8f30041d592ac115 OP_EQUALVERIFY OP_CHECKSIG",
      "scriptpubkey_type": "p2pkh",
      "scriptpubkey_address": "1CbB132v72dt7gNCfiZ8BVj91orUf5YRMz",
      "value": 551689
    },
    {
      "scriptpubkey": "76a914e1b7ebcb942028613f9e24d9760a882efa68d7af88ac",
      "scriptpubkey_asm": "OP_DUP OP_HASH160 OP_PUSHBYTES_20 e1b7ebcb942028613f9e24d9760a882efa68d7af OP_EQUALVERIFY OP_CHECKSIG",
      "scriptpubkey_type": "p2pkh",
      "scriptpubkey_address": "1MaVNDtQ4QR1maJbikfcNVQiLsAKU7MZEA",
      "value": 1200000
    }
  ],
  "size": 225,
  "weight": 900,
  "fee": 3181,
  "status": {
    "confirmed": true,
    "block_height": 834638,
    "block_hash": "000000000000000000025f742c626208ac87e0b7d15054abb4a19ca2d735a54e",
    "block_time": 1710405325
  },
  "hex": "02000000016e51f8b09906d31cb191df465f02d058402513e5fd58fe430a44390fd4384846010000006a47304402207a3ff40cb52d8b4527e93ad9ef2125ad8ae82c83dfa2e727127f3aa58cefb46d0220453bf2b42714d31645cca88e86908c553c7809eb97a97732d7b8dde24d6c07b6012103c5e9eb879b346eec88226a71311c00869bf974f1a1f515c594333a3fd7fb65b6fdffffff02096b0800000000001976a9147f1fdfd91a97b76465b49e0b8f30041d592ac11588ac804f1200000000001976a914e1b7ebcb942028613f9e24d9760a882efa68d7af88ac4dbc0c00"
}