{
  "txid": "cb7602a69a31ea6228d44e8de00f25488160ac5be7e893468e3ef6f6a5be3a38",
  "version": 1,
  "locktime": 0,
  "vin": [
    {
      "txid": "f6d763f41b50225e1464013f5243ce4da0d589aada097b56d98b8a627ff8addc",
      "vout": 3,
      "prevout": {
        "scriptpubkey": "00144341af702ea15e5c2f7b8ae95106d5360479e374",
        "scriptpubkey_asm": "OP_0 OP_PUSHBYTES_20 4341af702ea15e5c2f7b8ae95106d5360479e374",
        "scriptpubkey_type": "v0_p2wpkh",
        "scriptpubkey_address": "bc1qgdq67upw5909ctmm3t54zpk4xcz8ncm5ggafcr",
        "value": 29786302
      },
      "scriptsig": "",
      "scriptsig_asm": "",
      "witness": [
        "30450221008a0b809dec88119e66b1c5a40a7b7a1bd19eb5488b481cbc65d7a48623cce63902206aabefcaa569a3809c2b8fb09136af0d19b39ffae432c992d4653e6b072bdfab01",
        "026b7da7e93af51ba7f78e02ab9aef00747f989a51cd9aef4855c980a50840c970"
      ],
      "is_coinbase": false,
      "sequence": 4294967293
    }
  ],
  "vout": [
    {
      "scriptpubkey": "6a4c5058325b87b3d2e29d9c8f9ca0a8955e6b8b87632085c42ca2c90feb7d97bf9266f7de16c8451ecc24b43635c1d638f64bc12591c9b61ec02d205beac08f26dfca419eaf000cbc4d003c000cabd500084a",
      "scriptpubkey_asm": "OP_RETURN OP_PUSHDATA1 58325b87b3d2e29d9c8f9ca0a8955e6b8b87632085c42ca2c90feb7d97bf9266f7de16c8451ecc24b43635c1d638f64bc12591c9b61ec02d205beac08f26dfca419eaf000cbc4d003c000cabd500084a",
      "scriptpubkey_type": "op_return",
      "value": 0
    },
    {
      "scriptpubkey": "0014b312cfae72955d2533e99fe0ce23a2c142017446",
      "scriptpubkey_asm": "OP_0 OP_PUSHBYTES_20 b312cfae72955d2533e99fe0ce23a2c142017446",
      "scriptpubkey_type": "v0_p2wpkh",
      "scriptpubkey_address": "bc1qkvfvltnjj4wj2vlfnlsvugazc9pqzazxdwcfwc",
      "value": 1000
    },
    {
      "scriptpubkey": "a91476779351a0831b2e37c7cfea03656f0e22373cbe87",
      "scriptpubkey_asm": "OP_HASH160 OP_PUSHBYTES_20 76779351a0831b2e37c7cfea03656f0e22373cbe OP_EQUAL",
      "scriptpubkey_type": "p2sh",
      "scriptpubkey_address": "3CVQuRpFMnDV71ABpXNg9yhUpgsWL1L8y6",
      "value": 1000
    },
    {
      "scriptpubkey": "00144341af702ea15e5c2f7b8ae95106d5360479e374",
      "scriptpubkey_asm": "OP_0 OP_PUSHBYTES_20 4341af702ea15e5c2f7b8ae95106d5360479e374",
      "scriptpubkey_type": "v0_p2wpkh",
      "scriptpubkey_address": "bc1qgdq67upw5909ctmm3t54zpk4xcz8ncm5ggafcr",
      "value": 29779055
    }
  ],
  "size": 347,
  "weight": 1058,
  "fee": 5247,
  "status": {
    "confirmed": true,
    "block_height": 834638,
    "block_hash": "000000000000000000025f742c626208ac87e0b7d15054abb4a19ca2d735a54e",
    "block_time": 1710405325
  },
  "hex": "01000000000101dcadf87f628a8bd9567b09daaa89d5a04dce43523f0164145e22501bf463d7f60300000000fdffffff040000000000000000536a4c5058325b87b3d2e29d9c8f9ca0a8955e6b8b87632085c42ca2c90feb7d97bf9266f7de16c8451ecc24b43635c1d638f64bc12591c9b61ec02d205beac08f26dfca419eaf000cbc4d003c000cabd500084ae803000000000000160014b312cfae72955d2533e99fe0ce23a2c142017446e80300000000000017a91476779351a0831b2e37c7cfea03656f0e22373cbe876f64c601000000001600144341af702ea15e5c2f7b8ae95106d5360479e374024830450221008a0b809dec88119e66b1c5a40a7b7a1bd19eb5488b481cbc65d7a48623cce63902206aabefcaa569a3809c2b8fb09136af0d19b39ffae432c992d4653e6b072bdfab0121026b7da7e93af51ba7f78e02ab9aef00747f989a51cd9aef4855c980a50840c97000000000"
}