{
  "txid": "cb85ef47a1c2f4924cc6515a56cdcde23b47981a49d5120577146e8872b94db8",
  "version": 1,
  "locktime": 0,
  "vin": [
    {
      "txid": "e98655582397d569184fe281228eb416052b1cdea3abbe4e1e8d7157efb0e3dc",
      "vout": 1,
      "prevout": {
        "scriptpubkey": "001486221f8bbe2ce08e1a99ebd23c71a87c31412700",
        "scriptpubkey_asm": "OP_0 OP_PUSHBYTES_20 86221f8bbe2ce08e1a99ebd23c71a87c31412700",
        "scriptpubkey_type": "v0_p2wpkh",
        "scriptpubkey_address": "bc1qsc3plza79nsgux5ea0frcudg0sc5zfcqgyfhxr",
        "value": 166876
      },
      "scriptsig": "",
      "scriptsig_asm": "",
      "witness": [
        "304502210094a38459b48f22b9d1146edfe2f6079aad423586f4348bcad6045712eb9d9c2b02202889b544b45d56d0c8d0b66e00f27ed51cfc3c38b3e934533268fcc9207211a801",
        "039221dd68abfc49f2f1983a4aed860332604d7c2a4b77b482b68332a3b2474598"
      ],
      "is_coinbase": false,
      "sequence": 4294967295
    }
  ],
  "vout": [
    {
      "scriptpubkey": "00147873a54312ea85bff3732a21637c80177667ab1e",
      "scriptpubkey_asm": "OP_0 OP_PUSHBYTES_20 7873a54312ea85bff3732a21637c80177667ab1e",
      "scriptpubkey_type": "v0_p2wpkh",
      "scriptpubkey_address": "bc1q0pe62scja2zmlumn9gskxlyqzamx02c7waa6pt",
      "value": 61351
    },
    {
      "scriptpubkey": "001486221f8bbe2ce08e1a99ebd23c71a87c31412700",
      "scriptpubkey_asm": "OP_0 OP_PUSHBYTES_20 86221f8bbe2ce08e1a99ebd23c71a87c31412700",
      "scriptpubkey_type": "v0_p2wpkh",
      "scriptpubkey_address": "bc1qsc3plza79nsgux5ea0frcudg0sc5zfcqgyfhxr",
      "value": 101718
    }
  ],
  "size": 223,
  "weight": 562,
  "fee": 3807,
  "status": {
    "confirmed": true,
    "block_height": 834638,
    "block_hash": "000000000000000000025f742c626208ac87e0b7d15054abb4a19ca2d735a54e",
    "block_time": 1710405325
  },
  "hex": "01000000000101dce3b0ef57718d1e4ebeaba3de1c2b0516b48e2281e24f1869d59723585586e90100000000ffffffff02a7ef0000000000001600147873a54312ea85bff3732a21637c80177667ab1e568d01000000000016001486221f8bbe2ce08e1a99ebd23c71a87c314127000248304502210094a38459b48f22b9d1146edfe2f6079aad423586f4348bcad6045712eb9d9c2b02202889b544b45d56d0c8d0b66e00f27ed51cfc3c38b3e934533268fcc9207211a80121039221dd68abfc49f2f1983a4aed860332604d7c2a4b77b482b68332a3b247459800000000"
}