{
  "txid": "cba59aa4f9f94cdfd6a57aa854124f86fe5f442dabee2a486529a213c6c45578",
  "version": 2,
  "locktime": 834459,
  "vin": [
    {
      "txid": "6e071cfe4fa6254212d4ca7af9a3ffb32821036c59b427b66b207244e754b2c3",
      "vout": 0,
      "prevout": {
        "scriptpubkey": "0014239303a816e6747a68184f8463fc10f6c7d76985",
        "scriptpubkey_asm": "OP_0 OP_PUSHBYTES_20 239303a816e6747a68184f8463fc10f6c7d76985",
        "scriptpubkey_type": "v0_p2wpkh",
        "scriptpubkey_address": "bc1qywfs82qkue6856qcf7zx8lqs7mraw6v932lcf3",
        "value": 5852027
      },
      "scriptsig": "",
      "scriptsig_asm": "",
      "witness": [
        "3044022056f966ad094fed99459d4bce611e1c9648fbfd8aff4438dbe5db8e9d8b9a6531022071c9a0721318c36e772e7f767adbc70e20ba1bb3f1ad14be7bb564c9e3d1f53101",
        "02f4361a72433490263ef5a6a73e78030077ddfb6926be13fb0cd0c4a8b9b2c434"
      ],
      "is_coinbase": false,
      "sequence": 4294967294
    }
  ],
  "vout": [
    {
      "scriptpubkey": "a914a151f56d624db512ae36060278a12d4e2e0f1d5587",
      "scriptpubkey_asm": "OP_HASH160 OP_PUSHBYTES_20 a151f56d624db512ae36060278a12d4e2e0f1d55 OP_EQUAL",
      "scriptpubkey_type": "p2sh",
      "scriptpubkey_address": "3GPzu23SJs21BrubGoBtRMhmEA4N87THJV",
      "value": 140914
    },
    {
      "scriptpubkey": "0014b94c2b556353be157a8f2c62fc713c795d84317e",
      "scriptpubkey_asm": "OP_0 OP_PUSHBYTES_20 b94c2b556353be157a8f2c62fc713c795d84317e",
      "scriptpubkey_type": "v0_p2wpkh",
      "scriptpubkey_address": "bc1qh9xzk4tr2wlp27509330cufu09wcgvt76cfn3n",
      "value": 5707238
    }
  ],
  "size": 223,
  "weight": 565,
  "fee": 3875,
  "status": {
    "confirmed": true,
    "block_height": 834460,
    "block_hash": "00000000000000000000484a79b643b2524bbce82e5d8a442013fa5b8905ed98",
    "block_time": 1710307468
  },
  "hex": "02000000000101c3b254e74472206bb627b4596c032128b3ffa3f97acad4124225a64ffe1c076e0000000000feffffff02722602000000000017a914a151f56d624db512ae36060278a12d4e2e0f1d5587e615570000000000160014b94c2b556353be157a8f2c62fc713c795d84317e02473044022056f966ad094fed99459d4bce611e1c9648fbfd8aff4438dbe5db8e9d8b9a6531022071c9a0721318c36e772e7f767adbc70e20ba1bb3f1ad14be7bb564c9e3d1f531012102f4361a72433490263ef5a6a73e78030077ddfb6926be13fb0cd0c4a8b9b2c4349bbb0c00"
}