{
  "txid": "cbcfeb1b4fd45a8145692b81c17f9f8344c292efc023d71f1212d4134c38bacd",
  "version": 2,
  "locktime": 0,
  "vin": [
    {
      "txid": "ea6e4cc9c9350df80c05ae5b5d24a254a53cae03fc34672656915cd1c71a262d",
      "vout": 1,
      "prevout": {
        "scriptpubkey": "5120c08e94560cc6d74a219ede5f17656cbf198dc86f4deef2756fd2549edc892542",
        "scriptpubkey_asm": "OP_PUSHNUM_1 OP_PUSHBYTES_32 c08e94560cc6d74a219ede5f17656cbf198dc86f4deef2756fd2549edc892542",
        "scriptpubkey_type": "v1_p2tr",
        "scriptpubkey_address": "bc1pcz8fg4svcmt55gv7me03wetvhuvcmjr0fhh0yat06f2fahyfy4pqlgg2kn",
        "value": 948183
      },
      "scriptsig": "",
      "scriptsig_asm": "",
      "witness": [
        "55afec4026244dac14c5ecc2e56164ed94a9bbbd4ababe007c5fd5a18da159c2436a114ab36c5fa289cc62553fa450500a3f6fb07342a49e7939330b29054b79"
      ],
      "is_coinbase": false,
      "sequence": 4294967293
    }
  ],
  "vout": [
    {
      "scriptpubkey": "5120b02d2cf8006917a76d6dedebbc95f21e546b61db48d6ef8e74a8de35b4129f12",
      "scriptpubkey_asm": "OP_PUSHNUM_1 OP_PUSHBYTES_32 b02d2cf8006917a76d6dedebbc95f21e546b61db48d6ef8e74a8de35b4129f12",
      "scriptpubkey_type": "v1_p2tr",
      "scriptpubkey_address": "bc1pkqkje7qqdyt6wmtdah4me90jre2xkcwmfrtwlrn54r0rtdqjnufqnj6slg",
      "value": 2841
    },
    {
      "scriptpubkey": "5120c08e94560cc6d74a219ede5f17656cbf198dc86f4deef2756fd2549edc892542",
      "scriptpubkey_asm": "OP_PUSHNUM_1 OP_PUSHBYTES_32 c08e94560cc6d74a219ede5f17656cbf198dc86f4deef2756fd2549edc892542",
      "scriptpubkey_type": "v1_p2tr",
      "scriptpubkey_address": "bc1pcz8fg4svcmt55gv7me03wetvhuvcmjr0fhh0yat06f2fahyfy4pqlgg2kn",
      "value": 943032
    }
  ],
  "size": 205,
  "weight": 616,
  "fee": 2310,
  "status": {
    "confirmed": true,
    "block_height": 834638,
    "block_hash": "000000000000000000025f742c626208ac87e0b7d15054abb4a19ca2d735a54e",
    "block_time": 1710405325
  },
  "hex": "020000000001012d261ac7d15c9156266734fc03ae3ca554a2245d5bae050cf80d35c9c94c6eea0100000000fdffffff02190b000000000000225120b02d2cf8006917a76d6dedebbc95f21e546b61db48d6ef8e74a8de35b4129f12b8630e0000000000225120c08e94560cc6d74a219ede5f17656cbf198dc86f4deef2756fd2549edc892542014055afec4026244dac14c5ecc2e56164ed94a9bbbd4ababe007c5fd5a18da159c2436a114ab36c5fa289cc62553fa450500a3f6fb07342a49e7939330b29054b7900000000"
}