{
  "txid": "cbdb60aaf21ddbe880c3ee8bf6bd214dec5d6d8c7cb5fe764ca940b810b8cc80",
  "version": 2,
  "locktime": 0,
  "vin": [
    {
      "txid": "2bbe4525358701bc9cdc9fdb15d151be7e9cda91178591c5958778b45e938998",
      "vout": 0,
      "prevout": {
        "scriptpubkey": "0014192e80ed2c7c412bdc2a6c8f371d15cb90f3c85b",
        "scriptpubkey_asm": "OP_0 OP_PUSHBYTES_20 192e80ed2c7c412bdc2a6c8f371d15cb90f3c85b",
        "scriptpubkey_type": "v0_p2wpkh",
        "scriptpubkey_address": "bc1qryhgpmfv03qjhhp2dj8nw8g4ewg08jzmgy3cyx",
        "value": 102074630
      },
      "scriptsig": "",
      "scriptsig_asm": "",
      "witness": [
        "304402204449061635dee6ce9a07675000fa067eda31a278f7b6b3cbbbd0ea7ab50d0c0a02202f4c5cfc27921ba5cda85a5fd0c8c151c74d83c197f59a6bf00bfa09ccfb0d5f01",
        "03b01bd095f648ea829f000207087f16622431077bb5cc0875225ada601375c885"
      ],
      "is_coinbase": false,
      "sequence": 4294967293
    }
  ],
  "vout": [
    {
      "scriptpubkey": "0014406e2d8c37a1b227043deb78aa5929fe11907582",
      "scriptpubkey_asm": "OP_0 OP_PUSHBYTES_20 406e2d8c37a1b227043deb78aa5929fe11907582",
      "scriptpubkey_type": "v0_p2wpkh",
      "scriptpubkey_address": "bc1qgphzmrph5xezwppaadu25kfflcgeqavzqefxse",
      "value": 184124
    },
    {
      "scriptpubkey": "0014192e80ed2c7c412bdc2a6c8f371d15cb90f3c85b",
      "scriptpubkey_asm": "OP_0 OP_PUSHBYTES_20 192e80ed2c7c412bdc2a6c8f371d15cb90f3c85b",
      "scriptpubkey_type": "v0_p2wpkh",
      "scriptpubkey_address": "bc1qryhgpmfv03qjhhp2dj8nw8g4ewg08jzmgy3cyx",
      "value": 101884020
    }
  ],
  "size": 222,
  "weight": 561,
  "fee": 6486,
  "status": {
    "confirmed": true,
    "block_height": 834638,
    "block_hash": "000000000000000000025f742c626208ac87e0b7d15054abb4a19ca2d735a54e",
    "block_time": 1710405325
  },
  "hex": "020000000001019889935eb4788795c591851791da9c7ebe51d115db9fdc9cbc0187352545be2b0000000000fdffffff023ccf020000000000160014406e2d8c37a1b227043deb78aa5929fe1190758274a0120600000000160014192e80ed2c7c412bdc2a6c8f371d15cb90f3c85b0247304402204449061635dee6ce9a07675000fa067eda31a278f7b6b3cbbbd0ea7ab50d0c0a02202f4c5cfc27921ba5cda85a5fd0c8c151c74d83c197f59a6bf00bfa09ccfb0d5f012103b01bd095f648ea829f000207087f16622431077bb5cc0875225ada601375c88500000000"
}