{
  "txid": "cbe0ae6a6a0c3b2d4ca108eb14099fe914444bc6b467ba01ea2e66725feb0ff5",
  "version": 2,
  "locktime": 0,
  "vin": [
    {
      "txid": "e31fc17a259c41d46f62582f1925475edc8a5a669d17021d0b23f1ed19ab44fb",
      "vout": 116,
      "prevout": {
        "scriptpubkey": "a914b18686c474af95a005b348cfa918a720b3b56d0c87",
        "scriptpubkey_asm": "OP_HASH160 OP_PUSHBYTES_20 b18686c474af95a005b348cfa918a720b3b56d0c OP_EQUAL",
        "scriptpubkey_type": "p2sh",
        "scriptpubkey_address": "3HsggZLSSC8SvBDaLdUNqHhQVfsPM1rtGt",
        "value": 343679
      },
      "scriptsig": "160014e8aa699525fd9b6eccdff02c25ec1e1234d981be",
      "scriptsig_asm": "OP_PUSHBYTES_22 0014e8aa699525fd9b6eccdff02c25ec1e1234d981be",
      "witness": [
        "3044022013d0ea6bf77b96768d671ea118237e7904fd09fd87f60ff29d81a0dc8bd717ba02201a87571d37fce6e87a5918139aabda4d5cfa6417bdd6409f3967c68c7327f3ac01",
        "0211691a4b76102c525bba8f03bbed72622ceb9e06b07b19d2aa7244f5f5a53782"
      ],
      "is_coinbase": false,
      "sequence": 4294967295,
      "inner_redeemscript_asm": "OP_0 OP_PUSHBYTES_20 e8aa699525fd9b6eccdff02c25ec1e1234d981be"
    },
    {
      "txid": "e31fc17a259c41d46f62582f1925475edc8a5a669d17021d0b23f1ed19ab44fb",
      "vout": 165,
      "prevout": {
        "scriptpubkey": "00143d2b485552054c04853d8e99bb1a2d0347df64f4",
        "scriptpubkey_asm": "OP_0 OP_PUSHBYTES_20 3d2b485552054c04853d8e99bb1a2d0347df64f4",
        "scriptpubkey_type": "v0_p2wpkh",
        "scriptpubkey_address": "bc1q8545s42jq4xqfpfa36vmkx3dqdra7e850xhrum",
        "value": 67869503
      },
      "scriptsig": "",
      "scriptsig_asm": "",
      "witness": [
        "3044022021c348fb2ef12fd81f5173ce33be7fb3838d793a3327856cf8e866f8123aebaa0220478e8e606d67952822f975edece8883ac4cec733c8d3d59759401f2199a1884401",
        "030928caedda3e1d4659769b33ef180e0783bbf83e0fd37af0c1ea3dd39b9ef5f7"
      ],
      "is_coinbase": false,
      "sequence": 4294967295
    }
  ],
  "vout": [
    {
      "scriptpubkey": "76a9148773174ffba3b0db5128b27c1fb473772aeef87a88ac",
      "scriptpubkey_asm": "OP_DUP OP_HASH160 OP_PUSHBYTES_20 8773174ffba3b0db5128b27c1fb473772aeef87a OP_EQUALVERIFY OP_CHECKSIG",
      "scriptpubkey_type": "p2pkh",
      "scriptpubkey_address": "1DMC6Zjmb17mt3XEKS6noUuBTziKQjWd4g",
      "value": 278147
    },
    {
      "scriptpubkey": "00141578eb3410cbf55d76b9167d5dee75c5350e3382",
      "scriptpubkey_asm": "OP_0 OP_PUSHBYTES_20 1578eb3410cbf55d76b9167d5dee75c5350e3382",
      "scriptpubkey_type": "v0_p2wpkh",
      "scriptpubkey_address": "bc1qz4uwkdqse0646a4eze74mmn4c56suvuz7ryke8",
      "value": 73036
    },
    {
      "scriptpubkey": "00141ccd0b1eeeb74013b923964192783644bd477611",
      "scriptpubkey_asm": "OP_0 OP_PUSHBYTES_20 1ccd0b1eeeb74013b923964192783644bd477611",
      "scriptpubkey_type": "v0_p2wpkh",
      "scriptpubkey_address": "bc1qrnxsk8hwkaqp8wfrjeqey7pkgj75was3c9wygn",
      "value": 127188
    },
    {
      "scriptpubkey": "76a9146d1f216cc1f8409223baaf901104dd185560073b88ac",
      "scriptpubkey_asm": "OP_DUP OP_HASH160 OP_PUSHBYTES_20 6d1f216cc1f8409223baaf901104dd185560073b OP_EQUALVERIFY OP_CHECKSIG",
      "scriptpubkey_type": "p2pkh",
      "scriptpubkey_address": "1Awywu9ithxs9qjswMRfqHpFq959MRzbQb",
      "value": 108267
    },
    {
      "scriptpubkey": "a91408e6499d268155b1e8b0dd43d821b6316469743187",
      "scriptpubkey_asm": "OP_HASH160 OP_PUSHBYTES_20 08e6499d268155b1e8b0dd43d821b63164697431 OP_EQUAL",
      "scriptpubkey_type": "p2sh",
      "scriptpubkey_address": "32W5CjmToeNnVkS51R2i5cKzp69iYJ3geL",
      "value": 203887
    },
    {
      "scriptpubkey": "0014f63fedf47b51b4033e4f1f3829b20a611f64ad54",
      "scriptpubkey_asm": "OP_0 OP_PUSHBYTES_20 f63fedf47b51b4033e4f1f3829b20a611f64ad54",
      "scriptpubkey_type": "v0_p2wpkh",
      "scriptpubkey_address": "bc1q7cl7marm2x6qx0j0ruuznvs2vy0kft25ss7hmy",
      "value": 52886765
    },
    {
      "scriptpubkey": "76a914a366836cb22f02d32e2c539a40a24bdde75b060f88ac",
      "scriptpubkey_asm": "OP_DUP OP_HASH160 OP_PUSHBYTES_20 a366836cb22f02d32e2c539a40a24bdde75b060f OP_EQUALVERIFY OP_CHECKSIG",
      "scriptpubkey_type": "p2pkh",
      "scriptpubkey_address": "1Ftyx2KK62XkpXA6Ze7jbwDUFF8gsi7swU",
      "value": 67745
    },
    {
      "scriptpubkey": "a91408e6d6e6d3f8ea6432a8561815016a0906dd8a5c87",
      "scriptpubkey_asm": "OP_HASH160 OP_PUSHBYTES_20 08e6d6e6d3f8ea6432a8561815016a0906dd8a5c OP_EQUAL",
      "scriptpubkey_type": "p2sh",
      "scriptpubkey_address": "32W5s5tzNNgwEeygFbHNRXN4qSn1w7cDMp",
      "value": 61144
    },
    {
      "scriptpubkey": "0014bd5d3ffe1e33dd0f957cf03ef31b2e8dbd1e21c0",
      "scriptpubkey_asm": "OP_0 OP_PUSHBYTES_20 bd5d3ffe1e33dd0f957cf03ef31b2e8dbd1e21c0",
      "scriptpubkey_type": "v0_p2wpkh",
      "scriptpubkey_address": "bc1qh4wnlls7x0wsl9tu7ql0xxew3k73ugwqk5a4xq",
      "value": 910873
    },
    {
      "scriptpubkey": "00140dab7216248335ac1f3b9f79a1937e4abf931380",
      "scriptpubkey_asm": "OP_0 OP_PUSHBYTES_20 0dab7216248335ac1f3b9f79a1937e4abf931380",
      "scriptpubkey_type": "v0_p2wpkh",
      "scriptpubkey_address": "bc1qpk4hy93ysv66c8emnau6rym7f2lexyuqk039yr",
      "value": 21465
    },
    {
      "scriptpubkey": "0014ee4d6eba80b5dbcf341e4c4db46c1bc0344f4951",
      "scriptpubkey_asm": "OP_0 OP_PUSHBYTES_20 ee4d6eba80b5dbcf341e4c4db46c1bc0344f4951",
      "scriptpubkey_type": "v0_p2wpkh",
      "scriptpubkey_address": "bc1qaexkaw5qkhdu7dq7f3xmgmqmcq6y7j23p5tlm9",
      "value": 407881
    },
    {
      "scriptpubkey": "76a9141c064a6aa9582aa4748e22e0a49141c280df404488ac",
      "scriptpubkey_asm": "OP_DUP OP_HASH160 OP_PUSHBYTES_20 1c064a6aa9582aa4748e22e0a49141c280df4044 OP_EQUALVERIFY OP_CHECKSIG",
      "scriptpubkey_type": "p2pkh",
      "scriptpubkey_address": "13ZBTTTBFsNNuYRqPKGBuZWrBMMQBTPXkQ",
      "value": 387810
    },
    {
      "scriptpubkey": "00143daf396fe831a53357b6b9958726685831f3379b",
      "scriptpubkey_asm": "OP_0 OP_PUSHBYTES_20 3daf396fe831a53357b6b9958726685831f3379b",
      "scriptpubkey_type": "v0_p2wpkh",
      "scriptpubkey_address": "bc1q8khnjmlgxxjnx4akhx2cwfngtqclxdumxg7fnz",
      "value": 61239
    },
    {
      "scriptpubkey": "001425d25347b94443bba0ca20ddd636c30cd7ec5299",
      "scriptpubkey_asm": "OP_0 OP_PUSHBYTES_20 25d25347b94443bba0ca20ddd636c30cd7ec5299",
      "scriptpubkey_type": "v0_p2wpkh",
      "scriptpubkey_address": "bc1qyhf9x3aeg3pmhgx2yrwavdkrpnt7c55edmm83q",
      "value": 13596
    },
    {
      "scriptpubkey": "a914f192a279fd985c9aca3b77f39f7f648874b183d987",
      "scriptpubkey_asm": "OP_HASH160 OP_PUSHBYTES_20 f192a279fd985c9aca3b77f39f7f648874b183d9 OP_EQUAL",
      "scriptpubkey_type": "p2sh",
      "scriptpubkey_address": "3PiLS8Xjkat3Vbfq5RiRYZPKeJf7QoDh6k",
      "value": 39425
    },
    {
      "scriptpubkey": "0014755d20daa0d1d75815403e2bc40723182762f538",
      "scriptpubkey_asm": "OP_0 OP_PUSHBYTES_20 755d20daa0d1d75815403e2bc40723182762f538",
      "scriptpubkey_type": "v0_p2wpkh",
      "scriptpubkey_address": "bc1qw4wjpk4q68t4s92q8c4ugperrqnk9afc93g4t9",
      "value": 40769
    },
    {
      "scriptpubkey": "76a91488316ef22d541d3d04c66a513d1a2db7ebc61ec888ac",
      "scriptpubkey_asm": "OP_DUP OP_HASH160 OP_PUSHBYTES_20 88316ef22d541d3d04c66a513d1a2db7ebc61ec8 OP_EQUALVERIFY OP_CHECKSIG",
      "scriptpubkey_type": "p2pkh",
      "scriptpubkey_address": "1DR87nGuWtdkV8iLWAMsrrXQvVtreBt93Y",
      "value": 21463
    },
    {
      "scriptpubkey": "00142850023a31025c562eb63eb5a4bbdeae98642af1",
      "scriptpubkey_asm": "OP_0 OP_PUSHBYTES_20 2850023a31025c562eb63eb5a4bbdeae98642af1",
      "scriptpubkey_type": "v0_p2wpkh",
      "scriptpubkey_address": "bc1q9pgqyw33qfw9vt4k8666fw7746vxg2h3c5ar6x",
      "value": 167034
    },
    {
      "scriptpubkey": "0014704384cd5cd4f4d8ecbf92c7d6f54699cb656952",
      "scriptpubkey_asm": "OP_0 OP_PUSHBYTES_20 704384cd5cd4f4d8ecbf92c7d6f54699cb656952",
      "scriptpubkey_type": "v0_p2wpkh",
      "scriptpubkey_address": "bc1qwppcfn2u6n6d3m9ljtrada2xn89k262jfrzysd",
      "value": 34679
    },
    {
      "scriptpubkey": "0014bc112fbd0461767b88a2cb521de19b9ab004861b",
      "scriptpubkey_asm": "OP_0 OP_PUSHBYTES_20 bc112fbd0461767b88a2cb521de19b9ab004861b",
      "scriptpubkey_type": "v0_p2wpkh",
      "scriptpubkey_address": "bc1qhsgjl0gyv9m8hz9zedfpmcvmn2cqfpsmyx62cf",
      "value": 29407
    },
    {
      "scriptpubkey": "0014237eeed5edc0477bab1933330ad880f200df0650",
      "scriptpubkey_asm": "OP_0 OP_PUSHBYTES_20 237eeed5edc0477bab1933330ad880f200df0650",
      "scriptpubkey_type": "v0_p2wpkh",
      "scriptpubkey_address": "bc1qydlwa40dcprhh2cexves4kyq7gqd7pjsmlnfea",
      "value": 61138
    },
    {
      "scriptpubkey": "00144dbfdf6e91e2b733cb4e42f93f7ae3804224a520",
      "scriptpubkey_asm": "OP_0 OP_PUSHBYTES_20 4dbfdf6e91e2b733cb4e42f93f7ae3804224a520",
      "scriptpubkey_type": "v0_p2wpkh",
      "scriptpubkey_address": "bc1qfkla7m53u2mn8j6wgtun77hrsppzfffqt87xmt",
      "value": 455356
    },
    {
      "scriptpubkey": "a914c0b2ff7f7f357d44e30ad39c7e339f92818f26ec87",
      "scriptpubkey_asm": "OP_HASH160 OP_PUSHBYTES_20 c0b2ff7f7f357d44e30ad39c7e339f92818f26ec OP_EQUAL",
      "scriptpubkey_type": "p2sh",
      "scriptpubkey_address": "3KFv6NpTYrt9pnSUAYVuuQXe7ug9znpp1j",
      "value": 2300349
    },
    {
      "scriptpubkey": "0014b906e03f401642f54fff22a47cc86570d1452747",
      "scriptpubkey_asm": "OP_0 OP_PUSHBYTES_20 b906e03f401642f54fff22a47cc86570d1452747",
      "scriptpubkey_type": "v0_p2wpkh",
      "scriptpubkey_address": "bc1qhyrwq06qzep02nlly2j8ejr9wrg52f68u5kp42",
      "value": 409146
    },
    {
      "scriptpubkey": "a914762509ca31528c8a36f2342e664c411d3707e76587",
      "scriptpubkey_asm": "OP_HASH160 OP_PUSHBYTES_20 762509ca31528c8a36f2342e664c411d3707e765 OP_EQUAL",
      "scriptpubkey_type": "p2sh",
      "scriptpubkey_address": "3CTi2eBXQ1bpJPRRYWKPSRxJxzGq4YPKCo",
      "value": 33386
    },
    {
      "scriptpubkey": "0020d6f2fe42b9a52de20992e3eb8bf99a5c6014224e1d566d701c494871f33786a1",
      "scriptpubkey_asm": "OP_0 OP_PUSHBYTES_32 d6f2fe42b9a52de20992e3eb8bf99a5c6014224e1d566d701c494871f33786a1",
      "scriptpubkey_type": "v0_p2wsh",
      "scriptpubkey_address": "bc1q6me0us4e55k7yzvju04ch7v6t3spggjwr4tx6uquf9y8ruehs6ssxu2czj",
      "value": 41278
    },
    {
      "scriptpubkey": "0014f1b6251e96dbaec3403b347049805e6c657de6da",
      "scriptpubkey_asm": "OP_0 OP_PUSHBYTES_20 f1b6251e96dbaec3403b347049805e6c657de6da",
      "scriptpubkey_type": "v0_p2wpkh",
      "scriptpubkey_address": "bc1q7xmz285kmwhvxspmx3cynqz7d3jhmek6yjc3kr",
      "value": 193782
    },
    {
      "scriptpubkey": "0014edcd3c3fc8f71c03e80a330711e4443e5a2946c0",
      "scriptpubkey_asm": "OP_0 OP_PUSHBYTES_20 edcd3c3fc8f71c03e80a330711e4443e5a2946c0",
      "scriptpubkey_type": "v0_p2wpkh",
      "scriptpubkey_address": "bc1qahxnc07g7uwq86q2xvr3rezy8edzj3kqfyhgny",
      "value": 179909
    },
    {
      "scriptpubkey": "0014936ba19c285250534562760bd6a8c76da709dbc0",
      "scriptpubkey_asm": "OP_0 OP_PUSHBYTES_20 936ba19c285250534562760bd6a8c76da709dbc0",
      "scriptpubkey_type": "v0_p2wpkh",
      "scriptpubkey_address": "bc1qjd46r8pg2fg9x3tzwc9ad2x8dknsnk7qxk4lav",
      "value": 61146
    },
    {
      "scriptpubkey": "a914d4816c36478ad9de2c4f52ac7b89a94d922cbc1487",
      "scriptpubkey_asm": "OP_HASH160 OP_PUSHBYTES_20 d4816c36478ad9de2c4f52ac7b89a94d922cbc14 OP_EQUAL",
      "scriptpubkey_type": "p2sh",
      "scriptpubkey_address": "3M4eDfAhVPzupzkr36jJmR1VqqLU9sZGwY",
      "value": 21465
    },
    {
      "scriptpubkey": "00141fd52f500b2d21f9e5ed11235da158f57bd6a332",
      "scriptpubkey_asm": "OP_0 OP_PUSHBYTES_20 1fd52f500b2d21f9e5ed11235da158f57bd6a332",
      "scriptpubkey_type": "v0_p2wpkh",
      "scriptpubkey_address": "bc1qrl2j75qt95slne0dzy34mg2c74aadgejdsfmhn",
      "value": 33975
    },
    {
      "scriptpubkey": "0014ffdb9292351b0fe91b396a1384f255ef6417015b",
      "scriptpubkey_asm": "OP_0 OP_PUSHBYTES_20 ffdb9292351b0fe91b396a1384f255ef6417015b",
      "scriptpubkey_type": "v0_p2wpkh",
      "scriptpubkey_address": "bc1qllde9y34rv87jxeedgfcfuj4aajpwq2m3g8h90",
      "value": 59820
    },
    {
      "scriptpubkey": "0014558fdda84c6d80e80e2262e57be0b5e123874fb5",
      "scriptpubkey_asm": "OP_0 OP_PUSHBYTES_20 558fdda84c6d80e80e2262e57be0b5e123874fb5",
      "scriptpubkey_type": "v0_p2wpkh",
      "scriptpubkey_address": "bc1q2k8am2zvdkqwsr3zvtjhhc94uy3cwna4f6ec3u",
      "value": 326135
    },
    {
      "scriptpubkey": "00145672ec86dbc08e7aa457a247e5fec87eaf36969c",
      "scriptpubkey_asm": "OP_0 OP_PUSHBYTES_20 5672ec86dbc08e7aa457a247e5fec87eaf36969c",
      "scriptpubkey_type": "v0_p2wpkh",
      "scriptpubkey_address": "bc1q2eewepkmcz884fzh5fr7tlkg06hnd95uywnkhw",
      "value": 23103
    },
    {
      "scriptpubkey": "a91488a1b3f17a8088cc8f7833cae2eb2b9a2ecd91ad87",
      "scriptpubkey_asm": "OP_HASH160 OP_PUSHBYTES_20 88a1b3f17a8088cc8f7833cae2eb2b9a2ecd91ad OP_EQUAL",
      "scriptpubkey_type": "p2sh",
      "scriptpubkey_address": "3E9TXwuGaYCE9uQm8dPp1cqY9j6yrGbYs6",
      "value": 14562
    },
    {
      "scriptpubkey": "76a91441b6c954e287d2a9b8902fb812283455ad40802b88ac",
      "scriptpubkey_asm": "OP_DUP OP_HASH160 OP_PUSHBYTES_20 41b6c954e287d2a9b8902fb812283455ad40802b OP_EQUALVERIFY OP_CHECKSIG",
      "scriptpubkey_type": "p2pkh",
      "scriptpubkey_address": "16zTthGYj1ynugKadKs8MFQCwzu8T3hvu8",
      "value": 97105
    },
    {
      "scriptpubkey": "a9141b975aa4b872ce858293b3ebf31a28c5f7499bd987",
      "scriptpubkey_asm": "OP_HASH160 OP_PUSHBYTES_20 1b975aa4b872ce858293b3ebf31a28c5f7499bd9 OP_EQUAL",
      "scriptpubkey_type": "p2sh",
      "scriptpubkey_address": "34CuUzJMTVQnaFsPmhRzwaWqBWuRoNCBrk",
      "value": 15387
    },
    {
      "scriptpubkey": "76a91489e25ba8ca7a373ffc69d53004170ee2fae8e4db88ac",
      "scriptpubkey_asm": "OP_DUP OP_HASH160 OP_PUSHBYTES_20 89e25ba8ca7a373ffc69d53004170ee2fae8e4db OP_EQUALVERIFY OP_CHECKSIG",
      "scriptpubkey_type": "p2pkh",
      "scriptpubkey_address": "1Da4juyi4jq9SasSyq4aQbp3at53Sfrc4G",
      "value": 24102
    },
    {
      "scriptpubkey": "0014215ff087f7aa6333c3f3b39627fa1b0f0a9ffa5f",
      "scriptpubkey_asm": "OP_0 OP_PUSHBYTES_20 215ff087f7aa6333c3f3b39627fa1b0f0a9ffa5f",
      "scriptpubkey_type": "v0_p2wpkh",
      "scriptpubkey_address": "bc1qy90lpplh4f3n8slnkwtz07smpu9fl7jlyjngkp",
      "value": 134226
    },
    {
      "scriptpubkey": "a91465e5454332f98c9e3a0f1c69b4346d11ad3ab9d587",
      "scriptpubkey_asm": "OP_HASH160 OP_PUSHBYTES_20 65e5454332f98c9e3a0f1c69b4346d11ad3ab9d5 OP_EQUAL",
      "scriptpubkey_type": "p2sh",
      "scriptpubkey_address": "3Aynpv6FrtiZsyg5eEAESdsM4WFasg5uYV",
      "value": 8242
    },
    {
      "scriptpubkey": "76a9145b190739052bba3d6f1fa761d1e9f00ed679975688ac",
      "scriptpubkey_asm": "OP_DUP OP_HASH160 OP_PUSHBYTES_20 5b190739052bba3d6f1fa761d1e9f00ed6799756 OP_EQUALVERIFY OP_CHECKSIG",
      "scriptpubkey_type": "p2pkh",
      "scriptpubkey_address": "19JgUSwtPokRBv3ytsZYb8ETaBwp2E6HJ9",
      "value": 67952
    },
    {
      "scriptpubkey": "0014c17763e4d7481be8fc419f010692979c11902d62",
      "scriptpubkey_asm": "OP_0 OP_PUSHBYTES_20 c17763e4d7481be8fc419f010692979c11902d62",
      "scriptpubkey_type": "v0_p2wpkh",
      "scriptpubkey_address": "bc1qc9mk8exhfqd73lzpnuqsdy5hnsgeqttzls72z4",
      "value": 108771
    },
    {
      "scriptpubkey": "76a91495ee273a254a753fcb11315faeef2e5a394ffa9388ac",
      "scriptpubkey_asm": "OP_DUP OP_HASH160 OP_PUSHBYTES_20 95ee273a254a753fcb11315faeef2e5a394ffa93 OP_EQUALVERIFY OP_CHECKSIG",
      "scriptpubkey_type": "p2pkh",
      "scriptpubkey_address": "1Efkym3L1uYcoENup5iokmDQp9khKnG4WE",
      "value": 74371
    },
    {
      "scriptpubkey": "00149897a53adab34718009ff90d13ee7761190e3135",
      "scriptpubkey_asm": "OP_0 OP_PUSHBYTES_20 9897a53adab34718009ff90d13ee7761190e3135",
      "scriptpubkey_type": "v0_p2wpkh",
      "scriptpubkey_address": "bc1qnzt62wk6kdr3sqyllyx38mnhvyvsuvf4h2snj8",
      "value": 130525
    },
    {
      "scriptpubkey": "001432cf4950c83874f9231c1d0a7add3e0d41d92019",
      "scriptpubkey_asm": "OP_0 OP_PUSHBYTES_20 32cf4950c83874f9231c1d0a7add3e0d41d92019",
      "scriptpubkey_type": "v0_p2wpkh",
      "scriptpubkey_address": "bc1qxt85j5xg8p60jgcur5984hf7p4qajgqefu4z9t",
      "value": 32029
    },
    {
      "scriptpubkey": "0014d8bd6b76ab5ed27a94ff6d950bd16dec08ee1d7a",
      "scriptpubkey_asm": "OP_0 OP_PUSHBYTES_20 d8bd6b76ab5ed27a94ff6d950bd16dec08ee1d7a",
      "scriptpubkey_type": "v0_p2wpkh",
      "scriptpubkey_address": "bc1qmz7kka4ttmf8498ldk2sh5tdasywu8t693mm9p",
      "value": 27179
    },
    {
      "scriptpubkey": "0014bf5449e05522df55e1f468c9a1dac8c6719bff3b",
      "scriptpubkey_asm": "OP_0 OP_PUSHBYTES_20 bf5449e05522df55e1f468c9a1dac8c6719bff3b",
      "scriptpubkey_type": "v0_p2wpkh",
      "scriptpubkey_address": "bc1qha2yncz4yt04tc05dry6rkkgcecehlemvdcrwl",
      "value": 44169
    },
    {
      "scriptpubkey": "a914f2f970a8153af786a3165aeb4579cc319748f15187",
      "scriptpubkey_asm": "OP_HASH160 OP_PUSHBYTES_20 f2f970a8153af786a3165aeb4579cc319748f151 OP_EQUAL",
      "scriptpubkey_type": "p2sh",
      "scriptpubkey_address": "3PqkGNCL77utqBb7oHsoAsh3h342yYCPBW",
      "value": 146762
    },
    {
      "scriptpubkey": "a9149f262966d4f44996a1750c74a48c9dbea0e08a0d87",
      "scriptpubkey_asm": "OP_HASH160 OP_PUSHBYTES_20 9f262966d4f44996a1750c74a48c9dbea0e08a0d OP_EQUAL",
      "scriptpubkey_type": "p2sh",
      "scriptpubkey_address": "3GCX5ZtqoNLxYzhcPmXxBuw4W1LyA9y5ct",
      "value": 53191
    },
    {
      "scriptpubkey": "001494ad296caf988f87e38d2f0aa2566509c017f266",
      "scriptpubkey_asm": "OP_0 OP_PUSHBYTES_20 94ad296caf988f87e38d2f0aa2566509c017f266",
      "scriptpubkey_type": "v0_p2wpkh",
      "scriptpubkey_address": "bc1qjjkjjm90nz8c0cud9u92y4n9p8qp0unxmhp0z0",
      "value": 61142
    },
    {
      "scriptpubkey": "a9141876d4325c1d222ec66a510e999e9966c1d7ecdb87",
      "scriptpubkey_asm": "OP_HASH160 OP_PUSHBYTES_20 1876d4325c1d222ec66a510e999e9966c1d7ecdb OP_EQUAL",
      "scriptpubkey_type": "p2sh",
      "scriptpubkey_address": "33vNVXLoJL7rxVVfPFvCSCUk284JA3LtA7",
      "value": 74370
    },
    {
      "scriptpubkey": "76a9141d50a19d54726ebae79e6c71e8ce8924086df91788ac",
      "scriptpubkey_asm": "OP_DUP OP_HASH160 OP_PUSHBYTES_20 1d50a19d54726ebae79e6c71e8ce8924086df917 OP_EQUALVERIFY OP_CHECKSIG",
      "scriptpubkey_type": "p2pkh",
      "scriptpubkey_address": "13g1Bvd2XqqvtYxECxyre1mA9pgTkxap5K",
      "value": 512395
    },
    {
      "scriptpubkey": "76a91414e84839c626e6d23a5209cd0bb98f1c5f25147a88ac",
      "scriptpubkey_asm": "OP_DUP OP_HASH160 OP_PUSHBYTES_20 14e84839c626e6d23a5209cd0bb98f1c5f25147a OP_EQUALVERIFY OP_CHECKSIG",
      "scriptpubkey_type": "p2pkh",
      "scriptpubkey_address": "12uYn5m1oNd3CSevkSzcN51WxjtabQCRLe",
      "value": 127260
    },
    {
      "scriptpubkey": "a9144de30f11b9f8dfc9ef2838368b21f25f7394db2a87",
      "scriptpubkey_asm": "OP_HASH160 OP_PUSHBYTES_20 4de30f11b9f8dfc9ef2838368b21f25f7394db2a OP_EQUAL",
      "scriptpubkey_type": "p2sh",
      "scriptpubkey_address": "38nqxe97oYyBZCnvtvVrhuRSAaC3QaAyWg",
      "value": 61680
    },
    {
      "scriptpubkey": "0014357cc2116258ffee288ba915ca82e84a82d6700f",
      "scriptpubkey_asm": "OP_0 OP_PUSHBYTES_20 357cc2116258ffee288ba915ca82e84a82d6700f",
      "scriptpubkey_type": "v0_p2wpkh",
      "scriptpubkey_address": "bc1qx47vyytztrl7u2yt4y2u4qhgf2pdvuq0hpdnr7",
      "value": 245002
    },
    {
      "scriptpubkey": "a91401fb9a6086b0816d66e12c87269347e3d3e52cdf87",
      "scriptpubkey_asm": "OP_HASH160 OP_PUSHBYTES_20 01fb9a6086b0816d66e12c87269347e3d3e52cdf OP_EQUAL",
      "scriptpubkey_type": "p2sh",
      "scriptpubkey_address": "31sW1RNMJVK87pyRjsraJZAcZP4ADbtk4g",
      "value": 65092
    },
    {
      "scriptpubkey": "76a914faea859d0bf370b38ec4fd525819224b6b8db9b588ac",
      "scriptpubkey_asm": "OP_DUP OP_HASH160 OP_PUSHBYTES_20 faea859d0bf370b38ec4fd525819224b6b8db9b5 OP_EQUALVERIFY OP_CHECKSIG",
      "scriptpubkey_type": "p2pkh",
      "scriptpubkey_address": "1PsispxN3VkY6jUz9xDrWmQthRFq5LbZZ9",
      "value": 127258
    },
    {
      "scriptpubkey": "001431d4f67b1004751d7082fcb3758c633ebd435ff8",
      "scriptpubkey_asm": "OP_0 OP_PUSHBYTES_20 31d4f67b1004751d7082fcb3758c633ebd435ff8",
      "scriptpubkey_type": "v0_p2wpkh",
      "scriptpubkey_address": "bc1qx820v7csq3636uyzljehtrrr8675xhlcqep607",
      "value": 34774
    },
    {
      "scriptpubkey": "0014062ff376d38b0a717a2c9bc5fac0ceb8be789130",
      "scriptpubkey_asm": "OP_0 OP_PUSHBYTES_20 062ff376d38b0a717a2c9bc5fac0ceb8be789130",
      "scriptpubkey_type": "v0_p2wpkh",
      "scriptpubkey_address": "bc1qqchlxakn3v98z73vn0zl4sxwhzl83yfs93s2r0",
      "value": 167779
    },
    {
      "scriptpubkey": "0014f98402c05250c99f00a0a146add505420bd66241",
      "scriptpubkey_asm": "OP_0 OP_PUSHBYTES_20 f98402c05250c99f00a0a146add505420bd66241",
      "scriptpubkey_type": "v0_p2wpkh",
      "scriptpubkey_address": "bc1qlxzq9szj2rye7q9q59r2m4g9gg9avcjpjqfa5e",
      "value": 61146
    },
    {
      "scriptpubkey": "0014c9a350507875e8dc50647bcec8ef62f95a4fd854",
      "scriptpubkey_asm": "OP_0 OP_PUSHBYTES_20 c9a350507875e8dc50647bcec8ef62f95a4fd854",
      "scriptpubkey_type": "v0_p2wpkh",
      "scriptpubkey_address": "bc1qex34q5rcwh5dc5ry008v3mmzl9dylkz5llaqm0",
      "value": 65109
    },
    {
      "scriptpubkey": "76a914473567cc4e0a9138d5d75bea262c52f93ac1ec1c88ac",
      "scriptpubkey_asm": "OP_DUP OP_HASH160 OP_PUSHBYTES_20 473567cc4e0a9138d5d75bea262c52f93ac1ec1c OP_EQUALVERIFY OP_CHECKSIG",
      "scriptpubkey_type": "p2pkh",
      "scriptpubkey_address": "17VWxJCH9XrH3mkMChjh1EJD6oPmcKc3Ma",
      "value": 67944
    },
    {
      "scriptpubkey": "76a91483754057e181909183eee552b7c013072752d9c588ac",
      "scriptpubkey_asm": "OP_DUP OP_HASH160 OP_PUSHBYTES_20 83754057e181909183eee552b7c013072752d9c5 OP_EQUALVERIFY OP_CHECKSIG",
      "scriptpubkey_type": "p2pkh",
      "scriptpubkey_address": "1Cz5ytxPqhBBechoHwWr8a31E56Liq4jp6",
      "value": 61141
    },
    {
      "scriptpubkey": "001480f5892efd29e83215fff216b7f845b0900cea68",
      "scriptpubkey_asm": "OP_0 OP_PUSHBYTES_20 80f5892efd29e83215fff216b7f845b0900cea68",
      "scriptpubkey_type": "v0_p2wpkh",
      "scriptpubkey_address": "bc1qsr6cjtha985ry90l7gtt07z9kzgqe6ngu8ltff",
      "value": 61141
    },
    {
      "scriptpubkey": "0014ffe37da1c76a575db597cd03ad4d8577e2deeffc",
      "scriptpubkey_asm": "OP_0 OP_PUSHBYTES_20 ffe37da1c76a575db597cd03ad4d8577e2deeffc",
      "scriptpubkey_type": "v0_p2wpkh",
      "scriptpubkey_address": "bc1qll3hmgw8dft4mdvhe5p66nv9wl3damluhtkk3p",
      "value": 58869
    },
    {
      "scriptpubkey": "a9143d810fafb724dd2091a3080f51c638fb0e59ef6b87",
      "scriptpubkey_asm": "OP_HASH160 OP_PUSHBYTES_20 3d810fafb724dd2091a3080f51c638fb0e59ef6b OP_EQUAL",
      "scriptpubkey_type": "p2sh",
      "scriptpubkey_address": "37JDkabNr14H395NUKJZAVwK9tMjKTLVGa",
      "value": 34683
    },
    {
      "scriptpubkey": "a91418732811ce1682c5c4db708cda8a456d9f9444f887",
      "scriptpubkey_asm": "OP_HASH160 OP_PUSHBYTES_20 18732811ce1682c5c4db708cda8a456d9f9444f8 OP_EQUAL",
      "scriptpubkey_type": "p2sh",
      "scriptpubkey_address": "33vJ6N1f9aDin9hy17zrXKf53WjhUJu4rS",
      "value": 27193
    },
    {
      "scriptpubkey": "a91431e584f7f0b9245af6893e19d9276f26ae807eba87",
      "scriptpubkey_asm": "OP_HASH160 OP_PUSHBYTES_20 31e584f7f0b9245af6893e19d9276f26ae807eba OP_EQUAL",
      "scriptpubkey_type": "p2sh",
      "scriptpubkey_address": "36EqzEP3BrVABjUKaEbqiL7edzJm7RuYBq",
      "value": 133838
    },
    {
      "scriptpubkey": "a91455585c16458dd7caaacef6aa84d6f947f208712787",
      "scriptpubkey_asm": "OP_HASH160 OP_PUSHBYTES_20 55585c16458dd7caaacef6aa84d6f947f2087127 OP_EQUAL",
      "scriptpubkey_type": "p2sh",
      "scriptpubkey_address": "39UHDByGRbj44YDw5QfUncVXQHQzAjHWjg",
      "value": 127259
    },
    {
      "scriptpubkey": "001422f1bd5ca56a5a32530a617fefaddc7206b76910",
      "scriptpubkey_asm": "OP_0 OP_PUSHBYTES_20 22f1bd5ca56a5a32530a617fefaddc7206b76910",
      "scriptpubkey_type": "v0_p2wpkh",
      "scriptpubkey_address": "bc1qytcm6h99dfdry5c2v9l7ltwuwgrtw6gsz3kyh3",
      "value": 54385
    },
    {
      "scriptpubkey": "a914d8507fc3cac6470878c8c9ed87f6bbfb1772077987",
      "scriptpubkey_asm": "OP_HASH160 OP_PUSHBYTES_20 d8507fc3cac6470878c8c9ed87f6bbfb17720779 OP_EQUAL",
      "scriptpubkey_type": "p2sh",
      "scriptpubkey_address": "3MQnK9r7iT8LoXStQjJskjLn8K7zC6rGHQ",
      "value": 25590
    },
    {
      "scriptpubkey": "a914885004729818abf52f04dd33510403894b8c610787",
      "scriptpubkey_asm": "OP_HASH160 OP_PUSHBYTES_20 885004729818abf52f04dd33510403894b8c6107 OP_EQUAL",
      "scriptpubkey_type": "p2sh",
      "scriptpubkey_address": "3E7mgLWqxux458JnospfRxXegXiGyUWSXU",
      "value": 20244
    },
    {
      "scriptpubkey": "a9149e2e711f301d579dc0688a0eab5b4e83c5af7ecb87",
      "scriptpubkey_asm": "OP_HASH160 OP_PUSHBYTES_20 9e2e711f301d579dc0688a0eab5b4e83c5af7ecb OP_EQUAL",
      "scriptpubkey_type": "p2sh",
      "scriptpubkey_address": "3G7QKh4Tu4RewBBFUwnBvN5yddjBVe5eU4",
      "value": 326775
    },
    {
      "scriptpubkey": "a914b39b8f0875dbebf65ff8e0146a5dcbc5986df67e87",
      "scriptpubkey_asm": "OP_HASH160 OP_PUSHBYTES_20 b39b8f0875dbebf65ff8e0146a5dcbc5986df67e OP_EQUAL",
      "scriptpubkey_type": "p2sh",
      "scriptpubkey_address": "3J4hEHpznRKYgWHxfWRMM8p17iqG2hdv78",
      "value": 200424
    },
    {
      "scriptpubkey": "a914fae40826b471d33d12ce0fd4f2bd6569a8de0bf387",
      "scriptpubkey_asm": "OP_HASH160 OP_PUSHBYTES_20 fae40826b471d33d12ce0fd4f2bd6569a8de0bf3 OP_EQUAL",
      "scriptpubkey_type": "p2sh",
      "scriptpubkey_address": "3QZc2RyW52aWXgC8C9MnoEiuR32YVRpPwg",
      "value": 34682
    },
    {
      "scriptpubkey": "00146b0436b33482ec22e5e554fc112cbbf0b26b97c9",
      "scriptpubkey_asm": "OP_0 OP_PUSHBYTES_20 6b0436b33482ec22e5e554fc112cbbf0b26b97c9",
      "scriptpubkey_type": "v0_p2wpkh",
      "scriptpubkey_address": "bc1qdvzrdve5stkz9e092n7pzt9m7zexh97fx27scp",
      "value": 16772
    },
    {
      "scriptpubkey": "76a914ac2a2cd099fe8d4f441c242cf9d2060910bd057b88ac",
      "scriptpubkey_asm": "OP_DUP OP_HASH160 OP_PUSHBYTES_20 ac2a2cd099fe8d4f441c242cf9d2060910bd057b OP_EQUALVERIFY OP_CHECKSIG",
      "scriptpubkey_type": "p2pkh",
      "scriptpubkey_address": "1GhKkNR7G47Ztm9JEXanHLgxUdwSZeN39h",
      "value": 59961
    },
    {
      "scriptpubkey": "a9142e5d89e3672a1494512df0affb85a66f19ba1bd587",
      "scriptpubkey_asm": "OP_HASH160 OP_PUSHBYTES_20 2e5d89e3672a1494512df0affb85a66f19ba1bd5 OP_EQUAL",
      "scriptpubkey_type": "p2sh",
      "scriptpubkey_address": "35vB4Ybmm1ASTxn4eBhQX2BUQhQDKNz5JM",
      "value": 65097
    },
    {
      "scriptpubkey": "a9147d2bd5990f54dac10623a5488178783034cbe17187",
      "scriptpubkey_asm": "OP_HASH160 OP_PUSHBYTES_20 7d2bd5990f54dac10623a5488178783034cbe171 OP_EQUAL",
      "scriptpubkey_type": "p2sh",
      "scriptpubkey_address": "3D6ruBqrUHkHQCVQjHzLccHVtUFNjf3FWc",
      "value": 1357521
    },
    {
      "scriptpubkey": "0014906af0979deb87b4cc2f9878f5837b605157fd7a",
      "scriptpubkey_asm": "OP_0 OP_PUSHBYTES_20 906af0979deb87b4cc2f9878f5837b605157fd7a",
      "scriptpubkey_type": "v0_p2wpkh",
      "scriptpubkey_address": "bc1qjp40p9uaawrmfnp0npu0tqmmvpg40lt68smeq4",
      "value": 77001
    },
    {
      "scriptpubkey": "0014d9e3ea4154888cee66009b877329678b73be4cad",
      "scriptpubkey_asm": "OP_0 OP_PUSHBYTES_20 d9e3ea4154888cee66009b877329678b73be4cad",
      "scriptpubkey_type": "v0_p2wpkh",
      "scriptpubkey_address": "bc1qm8375s253zxwuesqnwrhx2t83demun9d0lnlmp",
      "value": 127260
    },
    {
      "scriptpubkey": "76a914723709971ccef5148e684eee91630ac98a68d96a88ac",
      "scriptpubkey_asm": "OP_DUP OP_HASH160 OP_PUSHBYTES_20 723709971ccef5148e684eee91630ac98a68d96a OP_EQUALVERIFY OP_CHECKSIG",
      "scriptpubkey_type": "p2pkh",
      "scriptpubkey_address": "1BQuxwSMVMfETWYijSPWUFA81HoS3pQ63u",
      "value": 1114886
    },
    {
      "scriptpubkey": "0014dbb9db35b7e0945f1b2a73b876dd1c6c5894c622",
      "scriptpubkey_asm": "OP_0 OP_PUSHBYTES_20 dbb9db35b7e0945f1b2a73b876dd1c6c5894c622",
      "scriptpubkey_type": "v0_p2wpkh",
      "scriptpubkey_address": "bc1qmwuakddhuz297xe2wwu8dhgud3vff33zpk7zzl",
      "value": 41302
    },
    {
      "scriptpubkey": "a91435295d20bdba94257d9088888ce117eda514926787",
      "scriptpubkey_asm": "OP_HASH160 OP_PUSHBYTES_20 35295d20bdba94257d9088888ce117eda5149267 OP_EQUAL",
      "scriptpubkey_type": "p2sh",
      "scriptpubkey_address": "36Y7HiX3Qc9EbeHcMZoNgaTABGTCmcVvJK",
      "value": 435000
    },
    {
      "scriptpubkey": "00142c33180a4aec9d7380264f5c81e439cd728f1bb2",
      "scriptpubkey_asm": "OP_0 OP_PUSHBYTES_20 2c33180a4aec9d7380264f5c81e439cd728f1bb2",
      "scriptpubkey_type": "v0_p2wpkh",
      "scriptpubkey_address": "bc1q9se3szj2ajwh8qpxfawgrepee4eg7xaj9wdhnq",
      "value": 61144
    },
    {
      "scriptpubkey": "0014afb77393f4b05ab3ce37e8551818479a61468bdc",
      "scriptpubkey_asm": "OP_0 OP_PUSHBYTES_20 afb77393f4b05ab3ce37e8551818479a61468bdc",
      "scriptpubkey_type": "v0_p2wpkh",
      "scriptpubkey_address": "bc1q47mh8yl5kpdt8n3hap23sxz8nfs5dz7uasv77s",
      "value": 27260
    },
    {
      "scriptpubkey": "0014800249d74216126624cd1bbe98fed5be6704c3f4",
      "scriptpubkey_asm": "OP_0 OP_PUSHBYTES_20 800249d74216126624cd1bbe98fed5be6704c3f4",
      "scriptpubkey_type": "v0_p2wpkh",
      "scriptpubkey_address": "bc1qsqpyn46zzcfxvfxdrwlf3lk4hensfsl5le9gej",
      "value": 59806
    },
    {
      "scriptpubkey": "0014b24ef960342bcd4e500ddb235d1c3d1c37cd7a9d",
      "scriptpubkey_asm": "OP_0 OP_PUSHBYTES_20 b24ef960342bcd4e500ddb235d1c3d1c37cd7a9d",
      "scriptpubkey_type": "v0_p2wpkh",
      "scriptpubkey_address": "bc1qkf80jcp590x5u5qdmv3468parsmu675akzkvnk",
      "value": 61146
    },
    {
      "scriptpubkey": "a91485f2c724eb4ae832d20a06ed4b71ae7beb9d40ef87",
      "scriptpubkey_asm": "OP_HASH160 OP_PUSHBYTES_20 85f2c724eb4ae832d20a06ed4b71ae7beb9d40ef OP_EQUAL",
      "scriptpubkey_type": "p2sh",
      "scriptpubkey_address": "3DuGdZYWrdbKm7R6ohTmajtiW8bkbWE78a",
      "value": 40789
    },
    {
      "scriptpubkey": "a91490672a93ff44cd36c5d07004d90bb183bd4fc82a87",
      "scriptpubkey_asm": "OP_HASH160 OP_PUSHBYTES_20 90672a93ff44cd36c5d07004d90bb183bd4fc82a OP_EQUAL",
      "scriptpubkey_type": "p2sh",
      "scriptpubkey_address": "3ErYpHiLQMxVF2LJazyuR26G9x7oez38TE",
      "value": 14303
    },
    {
      "scriptpubkey": "a91436a00e6678a99def3becdff978360016e17a32e187",
      "scriptpubkey_asm": "OP_HASH160 OP_PUSHBYTES_20 36a00e6678a99def3becdff978360016e17a32e1 OP_EQUAL",
      "scriptpubkey_type": "p2sh",
      "scriptpubkey_address": "36fr9ohFRJtGoZmaSLq7qBa4NrPXat6usx",
      "value": 473493
    },
    {
      "scriptpubkey": "0014530d287590597fe78cd1fd9ac949db6675b95e97",
      "scriptpubkey_asm": "OP_0 OP_PUSHBYTES_20 530d287590597fe78cd1fd9ac949db6675b95e97",
      "scriptpubkey_type": "v0_p2wpkh",
      "scriptpubkey_address": "bc1q2vxjsavst9l70rx3lkdvjjwmve6mjh5hlv3c8p",
      "value": 21464
    },
    {
      "scriptpubkey": "0014f89daf4a3dbce895524a1d0c56e2fa6e1b5ffa62",
      "scriptpubkey_asm": "OP_0 OP_PUSHBYTES_20 f89daf4a3dbce895524a1d0c56e2fa6e1b5ffa62",
      "scriptpubkey_type": "v0_p2wpkh",
      "scriptpubkey_address": "bc1qlzw67j3ahn5f25j2r5x9dch6dcd4l7nz0ws5fe",
      "value": 28025
    },
    {
      "scriptpubkey": "00140ee25cd108415efd7c5f87645cf1d9b731f505dc",
      "scriptpubkey_asm": "OP_0 OP_PUSHBYTES_20 0ee25cd108415efd7c5f87645cf1d9b731f505dc",
      "scriptpubkey_type": "v0_p2wpkh",
      "scriptpubkey_address": "bc1qpm39e5ggg9006lzlsaj9euwekucl2pwuanrzdj",
      "value": 127259
    }
  ],
  "size": 3334,
  "weight": 12688,
  "fee": 46137,
  "status": {
    "confirmed": true,
    "block_height": 834638,
    "block_hash": "000000000000000000025f742c626208ac87e0b7d15054abb4a19ca2d735a54e",
    "block_time": 1710405325
  },
  "hex": "02000000000102fb44ab19edf1230b1d02179d665a8adc5e4725192f58626fd4419c257ac11fe37400000017160014e8aa699525fd9b6eccdff02c25ec1e1234d981befffffffffb44ab19edf1230b1d02179d665a8adc5e4725192f58626fd4419c257ac11fe3a500000000ffffffff5e833e0400000000001976a9148773174ffba3b0db5128b27c1fb473772aeef87a88ac4c1d0100000000001600141578eb3410cbf55d76b9167d5dee75c5350e3382d4f00100000000001600141ccd0b1eeeb74013b923964192783644bd477611eba60100000000001976a9146d1f216cc1f8409223baaf901104dd185560073b88ac6f1c03000000000017a91408e6499d268155b1e8b0dd43d821b6316469743187edfc260300000000160014f63fedf47b51b4033e4f1f3829b20a611f64ad54a1080100000000001976a914a366836cb22f02d32e2c539a40a24bdde75b060f88acd8ee00000000000017a91408e6d6e6d3f8ea6432a8561815016a0906dd8a5c8719e60d0000000000160014bd5d3ffe1e33dd0f957cf03ef31b2e8dbd1e21c0d9530000000000001600140dab7216248335ac1f3b9f79a1937e4abf9313804939060000000000160014ee4d6eba80b5dbcf341e4c4db46c1bc0344f4951e2ea0500000000001976a9141c064a6aa9582aa4748e22e0a49141c280df404488ac37ef0000000000001600143daf396fe831a53357b6b9958726685831f3379b1c3500000000000016001425d25347b94443bba0ca20ddd636c30cd7ec5299019a00000000000017a914f192a279fd985c9aca3b77f39f7f648874b183d987419f000000000000160014755d20daa0d1d75815403e2bc40723182762f538d7530000000000001976a91488316ef22d541d3d04c66a513d1a2db7ebc61ec888ac7a8c0200000000001600142850023a31025c562eb63eb5a4bbdeae98642af17787000000000000160014704384cd5cd4f4d8ecbf92c7d6f54699cb656952df72000000000000160014bc112fbd0461767b88a2cb521de19b9ab004861bd2ee000000000000160014237eeed5edc0477bab1933330ad880f200df0650bcf20600000000001600144dbfdf6e91e2b733cb4e42f93f7ae3804224a520bd1923000000000017a914c0b2ff7f7f357d44e30ad39c7e339f92818f26ec873a3e060000000000160014b906e03f401642f54fff22a47cc86570d14527476a8200000000000017a914762509ca31528c8a36f2342e664c411d3707e765873ea1000000000000220020d6f2fe42b9a52de20992e3eb8bf99a5c6014224e1d566d701c494871f33786a1f6f4020000000000160014f1b6251e96dbaec3403b347049805e6c657de6dac5be020000000000160014edcd3c3fc8f71c03e80a330711e4443e5a2946c0daee000000000000160014936ba19c285250534562760bd6a8c76da709dbc0d95300000000000017a914d4816c36478ad9de2c4f52ac7b89a94d922cbc1487b7840000000000001600141fd52f500b2d21f9e5ed11235da158f57bd6a332ace9000000000000160014ffdb9292351b0fe91b396a1384f255ef6417015bf7f9040000000000160014558fdda84c6d80e80e2262e57be0b5e123874fb53f5a0000000000001600145672ec86dbc08e7aa457a247e5fec87eaf36969ce23800000000000017a91488a1b3f17a8088cc8f7833cae2eb2b9a2ecd91ad87517b0100000000001976a91441b6c954e287d2a9b8902fb812283455ad40802b88ac1b3c00000000000017a9141b975aa4b872ce858293b3ebf31a28c5f7499bd987265e0000000000001976a91489e25ba8ca7a373ffc69d53004170ee2fae8e4db88ac520c020000000000160014215ff087f7aa6333c3f3b39627fa1b0f0a9ffa5f322000000000000017a91465e5454332f98c9e3a0f1c69b4346d11ad3ab9d58770090100000000001976a9145b190739052bba3d6f1fa761d1e9f00ed679975688ace3a8010000000000160014c17763e4d7481be8fc419f010692979c11902d6283220100000000001976a91495ee273a254a753fcb11315faeef2e5a394ffa9388acddfd0100000000001600149897a53adab34718009ff90d13ee7761190e31351d7d00000000000016001432cf4950c83874f9231c1d0a7add3e0d41d920192b6a000000000000160014d8bd6b76ab5ed27a94ff6d950bd16dec08ee1d7a89ac000000000000160014bf5449e05522df55e1f468c9a1dac8c6719bff3b4a3d02000000000017a914f2f970a8153af786a3165aeb4579cc319748f15187c7cf00000000000017a9149f262966d4f44996a1750c74a48c9dbea0e08a0d87d6ee00000000000016001494ad296caf988f87e38d2f0aa2566509c017f266822201000000000017a9141876d4325c1d222ec66a510e999e9966c1d7ecdb878bd10700000000001976a9141d50a19d54726ebae79e6c71e8ce8924086df91788ac1cf10100000000001976a91414e84839c626e6d23a5209cd0bb98f1c5f25147a88acf0f000000000000017a9144de30f11b9f8dfc9ef2838368b21f25f7394db2a870abd030000000000160014357cc2116258ffee288ba915ca82e84a82d6700f44fe00000000000017a91401fb9a6086b0816d66e12c87269347e3d3e52cdf871af10100000000001976a914faea859d0bf370b38ec4fd525819224b6b8db9b588acd68700000000000016001431d4f67b1004751d7082fcb3758c633ebd435ff8638f020000000000160014062ff376d38b0a717a2c9bc5fac0ceb8be789130daee000000000000160014f98402c05250c99f00a0a146add505420bd6624155fe000000000000160014c9a350507875e8dc50647bcec8ef62f95a4fd85468090100000000001976a914473567cc4e0a9138d5d75bea262c52f93ac1ec1c88acd5ee0000000000001976a91483754057e181909183eee552b7c013072752d9c588acd5ee00000000000016001480f5892efd29e83215fff216b7f845b0900cea68f5e5000000000000160014ffe37da1c76a575db597cd03ad4d8577e2deeffc7b8700000000000017a9143d810fafb724dd2091a3080f51c638fb0e59ef6b87396a00000000000017a91418732811ce1682c5c4db708cda8a456d9f9444f887ce0a02000000000017a91431e584f7f0b9245af6893e19d9276f26ae807eba871bf101000000000017a91455585c16458dd7caaacef6aa84d6f947f20871278771d400000000000016001422f1bd5ca56a5a32530a617fefaddc7206b76910f66300000000000017a914d8507fc3cac6470878c8c9ed87f6bbfb1772077987144f00000000000017a914885004729818abf52f04dd33510403894b8c61078777fc04000000000017a9149e2e711f301d579dc0688a0eab5b4e83c5af7ecb87e80e03000000000017a914b39b8f0875dbebf65ff8e0146a5dcbc5986df67e877a8700000000000017a914fae40826b471d33d12ce0fd4f2bd6569a8de0bf38784410000000000001600146b0436b33482ec22e5e554fc112cbbf0b26b97c939ea0000000000001976a914ac2a2cd099fe8d4f441c242cf9d2060910bd057b88ac49fe00000000000017a9142e5d89e3672a1494512df0affb85a66f19ba1bd587d1b614000000000017a9147d2bd5990f54dac10623a5488178783034cbe17187c92c010000000000160014906af0979deb87b4cc2f9878f5837b605157fd7a1cf1010000000000160014d9e3ea4154888cee66009b877329678b73be4cad06031100000000001976a914723709971ccef5148e684eee91630ac98a68d96a88ac56a1000000000000160014dbb9db35b7e0945f1b2a73b876dd1c6c5894c62238a306000000000017a91435295d20bdba94257d9088888ce117eda514926787d8ee0000000000001600142c33180a4aec9d7380264f5c81e439cd728f1bb27c6a000000000000160014afb77393f4b05ab3ce37e8551818479a61468bdc9ee9000000000000160014800249d74216126624cd1bbe98fed5be6704c3f4daee000000000000160014b24ef960342bcd4e500ddb235d1c3d1c37cd7a9d559f00000000000017a91485f2c724eb4ae832d20a06ed4b71ae7beb9d40ef87df3700000000000017a91490672a93ff44cd36c5d07004d90bb183bd4fc82a87953907000000000017a91436a00e6678a99def3becdff978360016e17a32e187d853000000000000160014530d287590597fe78cd1fd9ac949db6675b95e97796d000000000000160014f89daf4a3dbce895524a1d0c56e2fa6e1b5ffa621bf10100000000001600140ee25cd108415efd7c5f87645cf1d9b731f505dc02473044022013d0ea6bf77b96768d671ea118237e7904fd09fd87f60ff29d81a0dc8bd717ba02201a87571d37fce6e87a5918139aabda4d5cfa6417bdd6409f3967c68c7327f3ac01210211691a4b76102c525bba8f03bbed72622ceb9e06b07b19d2aa7244f5f5a5378202473044022021c348fb2ef12fd81f5173ce33be7fb3838d793a3327856cf8e866f8123aebaa0220478e8e606d67952822f975edece8883ac4cec733c8d3d59759401f2199a188440121030928caedda3e1d4659769b33ef180e0783bbf83e0fd37af0c1ea3dd39b9ef5f700000000"
}