{
  "txid": "cbe50735372af177bf2a1c866cee5426271e7bc77eda37e11a6521b05e5f6865",
  "version": 1,
  "locktime": 0,
  "vin": [
    {
      "txid": "80be0908cb823c26754401dc8910153e084e95c2c7d4ef2ae019d94c56360a00",
      "vout": 1,
      "prevout": {
        "scriptpubkey": "0014b5c1e7d36c48a6951e5142b6c7ac0fbb5491c1eb",
        "scriptpubkey_asm": "OP_0 OP_PUSHBYTES_20 b5c1e7d36c48a6951e5142b6c7ac0fbb5491c1eb",
        "scriptpubkey_type": "v0_p2wpkh",
        "scriptpubkey_address": "bc1qkhq705mvfznf28j3g2mv0tq0hd2frs0tztd8gj",
        "value": 427689
      },
      "scriptsig": "",
      "scriptsig_asm": "",
      "witness": [
        "3045022100ea6b1fd5737f0cb1ea5a7f97b0a2475a134a44a6a0f292cf6478027b2302a7dc02201a6426cc9a91f6e1dfdc52a92382f295898873ecf4168684e2bbd623c3f7264001",
        "027a7d2e907e49d6efe33a8c0c48cda7054bf123600d7758cc2abc39b70e509c7a"
      ],
      "is_coinbase": false,
      "sequence": 4294967295
    }
  ],
  "vout": [
    {
      "scriptpubkey": "76a914571f225ac53faed1a5d17ba64f3c21c07f692ddf88ac",
      "scriptpubkey_asm": "OP_DUP OP_HASH160 OP_PUSHBYTES_20 571f225ac53faed1a5d17ba64f3c21c07f692ddf OP_EQUALVERIFY OP_CHECKSIG",
      "scriptpubkey_type": "p2pkh",
      "scriptpubkey_address": "18wf5w1cUktXUxMg8Yi4avvZAutq1NN6Kj",
      "value": 13610
    },
    {
      "scriptpubkey": "00140a763187dfb0b86e81ec25d7cc544a94e1b1756a",
      "scriptpubkey_asm": "OP_0 OP_PUSHBYTES_20 0a763187dfb0b86e81ec25d7cc544a94e1b1756a",
      "scriptpubkey_type": "v0_p2wpkh",
      "scriptpubkey_address": "bc1qpfmrrp7lkzuxaq0vyhtuc4z2jnsmzat2jtzr04",
      "value": 411937
    }
  ],
  "size": 226,
  "weight": 574,
  "fee": 2142,
  "status": {
    "confirmed": true,
    "block_height": 834638,
    "block_hash": "000000000000000000025f742c626208ac87e0b7d15054abb4a19ca2d735a54e",
    "block_time": 1710405325
  },
  "hex": "01000000000101000a36564cd919e02aefd4c7c2954e083e151089dc014475263c82cb0809be800100000000ffffffff022a350000000000001976a914571f225ac53faed1a5d17ba64f3c21c07f692ddf88ac21490600000000001600140a763187dfb0b86e81ec25d7cc544a94e1b1756a02483045022100ea6b1fd5737f0cb1ea5a7f97b0a2475a134a44a6a0f292cf6478027b2302a7dc02201a6426cc9a91f6e1dfdc52a92382f295898873ecf4168684e2bbd623c3f726400121027a7d2e907e49d6efe33a8c0c48cda7054bf123600d7758cc2abc39b70e509c7a00000000"
}