{
  "txid": "cbf62c4d4c652c932ef0ece58c8fbdd616efe3c138bbc768871e62ceceb40e11",
  "version": 2,
  "locktime": 834559,
  "vin": [
    {
      "txid": "1fe3d42c34d70c8f6192be9f4771061c6fde1d55a086e18184a1f8af5c0fd87c",
      "vout": 0,
      "prevout": {
        "scriptpubkey": "0014e78f33bbcc9427f771fa6148e8e64bde2a69648b",
        "scriptpubkey_asm": "OP_0 OP_PUSHBYTES_20 e78f33bbcc9427f771fa6148e8e64bde2a69648b",
        "scriptpubkey_type": "v0_p2wpkh",
        "scriptpubkey_address": "bc1qu78n8w7vjsnlwu06v9yw3ejtmc4xjeyt3jh4aw",
        "value": 254594112
      },
      "scriptsig": "",
      "scriptsig_asm": "",
      "witness": [
        "304402206cca4207612b0a996d9957105cfed91a9fc339a0bb4a2dd3871a58f13a773caa022078846f8e703d93c2960a2269357e3e7d5a9c92059bd902cc97a48ce811f3fbda01",
        "036fa83703e0d919c06366e8bd0ad80c84d880372873c447b6c0023eecb4d29cdb"
      ],
      "is_coinbase": false,
      "sequence": 4294967294
    }
  ],
  "vout": [
    {
      "scriptpubkey": "a914dcd97e455e566fffc4a22cdb5f1b1aa03323001487",
      "scriptpubkey_asm": "OP_HASH160 OP_PUSHBYTES_20 dcd97e455e566fffc4a22cdb5f1b1aa033230014 OP_EQUAL",
      "scriptpubkey_type": "p2sh",
      "scriptpubkey_address": "3Mpm8SbVBPfnHrKANdTWNwiNn7jtJgata2",
      "value": 2753100
    },
    {
      "scriptpubkey": "0014ca733361d9bbc960d6616c86554bf57c754489a2",
      "scriptpubkey_asm": "OP_0 OP_PUSHBYTES_20 ca733361d9bbc960d6616c86554bf57c754489a2",
      "scriptpubkey_type": "v0_p2wpkh",
      "scriptpubkey_address": "bc1qefenxcweh0ykp4npdjr92jl40365fzdzsf9qe4",
      "value": 251837532
    }
  ],
  "size": 223,
  "weight": 565,
  "fee": 3480,
  "status": {
    "confirmed": true,
    "block_height": 834638,
    "block_hash": "000000000000000000025f742c626208ac87e0b7d15054abb4a19ca2d735a54e",
    "block_time": 1710405325
  },
  "hex": "020000000001017cd80f5caff8a18481e186a0551dde6f1c0671479fbe92618f0cd7342cd4e31f0000000000feffffff024c022a000000000017a914dcd97e455e566fffc4a22cdb5f1b1aa033230014875cbc020f00000000160014ca733361d9bbc960d6616c86554bf57c754489a20247304402206cca4207612b0a996d9957105cfed91a9fc339a0bb4a2dd3871a58f13a773caa022078846f8e703d93c2960a2269357e3e7d5a9c92059bd902cc97a48ce811f3fbda0121036fa83703e0d919c06366e8bd0ad80c84d880372873c447b6c0023eecb4d29cdbffbb0c00"
}