{
  "txid": "cc064089fac9282110c20ff014c0bb53299c77a5c93456c3d6671882cc7af79b",
  "version": 2,
  "locktime": 0,
  "vin": [
    {
      "txid": "9d7f1d50fb795ef1a9d8ccfdd05a5ce1c6f674ab73789b8d6e93eb476e69b003",
      "vout": 1,
      "prevout": {
        "scriptpubkey": "0014aa88f43d4cf60f2905ef1bce1c96a2a2742b3aee",
        "scriptpubkey_asm": "OP_0 OP_PUSHBYTES_20 aa88f43d4cf60f2905ef1bce1c96a2a2742b3aee",
        "scriptpubkey_type": "v0_p2wpkh",
        "scriptpubkey_address": "bc1q42y0g02v7c8jjp00r08pe94z5f6zkwhw6rwkts",
        "value": 256370
      },
      "scriptsig": "",
      "scriptsig_asm": "",
      "witness": [
        "3045022100a7515e5e6fcc17194e84040d1cdff0223adb6eb94f8234f9384f3e1f7882ccad02201fb4ed1b3b4afbb1d550d52c111607e846142025b30498ff52649238412c11be01",
        "036eca200c8902a07bef36889fa9a346d42c6132fe8ec9f288077001a3d09eba33"
      ],
      "is_coinbase": false,
      "sequence": 4294967295
    }
  ],
  "vout": [
    {
      "scriptpubkey": "0014f2cc37c752e320a93d68e3d3915be174931aade8",
      "scriptpubkey_asm": "OP_0 OP_PUSHBYTES_20 f2cc37c752e320a93d68e3d3915be174931aade8",
      "scriptpubkey_type": "v0_p2wpkh",
      "scriptpubkey_address": "bc1q7txr036juvs2j0tgu0fezklpwjf34t0gq2xfku",
      "value": 254704
    }
  ],
  "size": 192,
  "weight": 438,
  "fee": 1666,
  "status": {
    "confirmed": true,
    "block_height": 834552,
    "block_hash": "00000000000000000001dd0468a70c94f619251d286585cff57aeb4bd9ede330",
    "block_time": 1710355598
  },
  "hex": "0200000000010103b0696e47eb936e8d9b7873ab74f6c6e15c5ad0fdccd8a9f15e79fb501d7f9d0100000000ffffffff01f0e2030000000000160014f2cc37c752e320a93d68e3d3915be174931aade802483045022100a7515e5e6fcc17194e84040d1cdff0223adb6eb94f8234f9384f3e1f7882ccad02201fb4ed1b3b4afbb1d550d52c111607e846142025b30498ff52649238412c11be0121036eca200c8902a07bef36889fa9a346d42c6132fe8ec9f288077001a3d09eba3300000000"
}