{
  "txid": "cc0bd316966fc89f56fdb2e189b6291c32d283b37753f98543ea1adf1e42395b",
  "version": 2,
  "locktime": 834550,
  "vin": [
    {
      "txid": "dcd32cedd554f30beb78fb12b8aa13f4b4dd98b4602ed1560a0a98bb0b3a8ac7",
      "vout": 2,
      "prevout": {
        "scriptpubkey": "001416831dadfc86ec8c6bef79abdf527e98691306e0",
        "scriptpubkey_asm": "OP_0 OP_PUSHBYTES_20 16831dadfc86ec8c6bef79abdf527e98691306e0",
        "scriptpubkey_type": "v0_p2wpkh",
        "scriptpubkey_address": "bc1qz6p3mt0usmkgc6l00x4a75n7np53xphq08se6f",
        "value": 68536
      },
      "scriptsig": "",
      "scriptsig_asm": "",
      "witness": [
        "3044022023e30cd215dd104b311d51ba331b54c8f01409af792989384730014a6b39143302201c8d27265a156a40fb0faac613abff43fb7d4ba787411731b3351a9c61d1869001",
        "036c4c38cb9e42acfe9c357fbbaea66ebdb9eaa965158fa9e7c82c892e88ca0c0d"
      ],
      "is_coinbase": false,
      "sequence": 4294967293
    }
  ],
  "vout": [
    {
      "scriptpubkey": "00140dee7300579c8f3ed1e4c5bcf4f4d5caa622fc91",
      "scriptpubkey_asm": "OP_0 OP_PUSHBYTES_20 0dee7300579c8f3ed1e4c5bcf4f4d5caa622fc91",
      "scriptpubkey_type": "v0_p2wpkh",
      "scriptpubkey_address": "bc1qphh8xqzhnj8na50yck70fax4e2nz9ly3er3mn0",
      "value": 67106
    }
  ],
  "size": 191,
  "weight": 437,
  "fee": 1430,
  "status": {
    "confirmed": true,
    "block_height": 834552,
    "block_hash": "00000000000000000001dd0468a70c94f619251d286585cff57aeb4bd9ede330",
    "block_time": 1710355598
  },
  "hex": "02000000000101c78a3a0bbb980a0a56d12e60b498ddb4f413aab812fb78eb0bf354d5ed2cd3dc0200000000fdffffff0122060100000000001600140dee7300579c8f3ed1e4c5bcf4f4d5caa622fc9102473044022023e30cd215dd104b311d51ba331b54c8f01409af792989384730014a6b39143302201c8d27265a156a40fb0faac613abff43fb7d4ba787411731b3351a9c61d186900121036c4c38cb9e42acfe9c357fbbaea66ebdb9eaa965158fa9e7c82c892e88ca0c0df6bb0c00"
}