{
  "txid": "cc183b54d325a7919c6d08cfaa203a259b4a691d8d01c94c97b44358f040cf9e",
  "version": 2,
  "locktime": 0,
  "vin": [
    {
      "txid": "44236b40227700e23b0447a77b2836768ea5b9bc1b575b3de903f85894760877",
      "vout": 0,
      "prevout": {
        "scriptpubkey": "0014449e2fb7170493be81efa93154acf56579585c43",
        "scriptpubkey_asm": "OP_0 OP_PUSHBYTES_20 449e2fb7170493be81efa93154acf56579585c43",
        "scriptpubkey_type": "v0_p2wpkh",
        "scriptpubkey_address": "bc1qgj0zldchqjfmaq004yc4ft84v4u4shzrazjwc8",
        "value": 320000
      },
      "scriptsig": "",
      "scriptsig_asm": "",
      "witness": [
        "3045022100da50663627d00ffeb6c77f21db45c6c8d36b745d8ace1ff565ec21f5d09478fd02206aa4fb43e0acf6a448bef79db0c665142d01f2cd5948e05899f706efddfb9cf801",
        "03c7bab46069c4bd5e156385281e869cd8f32898d44d8d1aef9f7488bbc727595f"
      ],
      "is_coinbase": false,
      "sequence": 4294967293
    },
    {
      "txid": "bc7ab11e8c215f000957f4a712f3c18d07c9feaa91044cde7918f8305ffe4c8e",
      "vout": 0,
      "prevout": {
        "scriptpubkey": "001409f2a645a25c8ae179011b5953fab4cf64edeac8",
        "scriptpubkey_asm": "OP_0 OP_PUSHBYTES_20 09f2a645a25c8ae179011b5953fab4cf64edeac8",
        "scriptpubkey_type": "v0_p2wpkh",
        "scriptpubkey_address": "bc1qp8e2v3dztj9wz7gprdv48745eajwm6kghhxazm",
        "value": 276060
      },
      "scriptsig": "",
      "scriptsig_asm": "",
      "witness": [
        "3045022100e2082bde6208fbf6cd4513bd72a04dbb0d9c7cca27b3e3655daa635cc2ab3631022058aa259bc3b1c5035cbbf06cbef9ca38bca08cdc9e9ae404a512b43c51f9e35c01",
        "0339984ff339ab168f59a2d7ad7ad4769312eb28e3253d9aca3ee0674bbfbe587a"
      ],
      "is_coinbase": false,
      "sequence": 4294967293
    }
  ],
  "vout": [
    {
      "scriptpubkey": "001455cbbda01a966da70296523526868ff8f0d014f1",
      "scriptpubkey_asm": "OP_0 OP_PUSHBYTES_20 55cbbda01a966da70296523526868ff8f0d014f1",
      "scriptpubkey_type": "v0_p2wpkh",
      "scriptpubkey_address": "bc1q2h9mmgq6jek6wq5k2g6jdp50lrcdq98347fuqu",
      "value": 75858
    },
    {
      "scriptpubkey": "00143e84be75854fa7f74dfddf1507257bc8f888d1c0",
      "scriptpubkey_asm": "OP_0 OP_PUSHBYTES_20 3e84be75854fa7f74dfddf1507257bc8f888d1c0",
      "scriptpubkey_type": "v0_p2wpkh",
      "scriptpubkey_address": "bc1q86ztuav9f7nlwn0amu2swftmerug35wq003d7p",
      "value": 516882
    }
  ],
  "size": 372,
  "weight": 834,
  "fee": 3320,
  "status": {
    "confirmed": true,
    "block_height": 834638,
    "block_hash": "000000000000000000025f742c626208ac87e0b7d15054abb4a19ca2d735a54e",
    "block_time": 1710405325
  },
  "hex": "020000000001027708769458f803e93d5b571bbcb9a58e7636287ba747043be2007722406b23440000000000fdffffff8e4cfe5f30f81879de4c0491aafec9078dc1f312a7f45709005f218c1eb17abc0000000000fdffffff02522801000000000016001455cbbda01a966da70296523526868ff8f0d014f112e30700000000001600143e84be75854fa7f74dfddf1507257bc8f888d1c002483045022100da50663627d00ffeb6c77f21db45c6c8d36b745d8ace1ff565ec21f5d09478fd02206aa4fb43e0acf6a448bef79db0c665142d01f2cd5948e05899f706efddfb9cf8012103c7bab46069c4bd5e156385281e869cd8f32898d44d8d1aef9f7488bbc727595f02483045022100e2082bde6208fbf6cd4513bd72a04dbb0d9c7cca27b3e3655daa635cc2ab3631022058aa259bc3b1c5035cbbf06cbef9ca38bca08cdc9e9ae404a512b43c51f9e35c01210339984ff339ab168f59a2d7ad7ad4769312eb28e3253d9aca3ee0674bbfbe587a00000000"
}