{
  "txid": "cc1c07e470f3277b2eb3e3cfb2b899e0583a28c1436b1297224e2e7792f285cc",
  "version": 2,
  "locktime": 0,
  "vin": [
    {
      "txid": "12848a1f84ad552475e874cce291926f292412de23b7537898e98c7370f2e86c",
      "vout": 4,
      "prevout": {
        "scriptpubkey": "51209c1f814bdec119807e0c008812dc8d5e282c0acc60cb446d7dcfb27caf2ec313",
        "scriptpubkey_asm": "OP_PUSHNUM_1 OP_PUSHBYTES_32 9c1f814bdec119807e0c008812dc8d5e282c0acc60cb446d7dcfb27caf2ec313",
        "scriptpubkey_type": "v1_p2tr",
        "scriptpubkey_address": "bc1pns0czj77cyvcqlsvqzyp9hydtc5zczkvvr95gmtae7e8etewcvfsdmht29",
        "value": 2358
      },
      "scriptsig": "",
      "scriptsig_asm": "",
      "witness": [
        "536b736f7b022e9e5411be4032ffd68626fcc5b43fda0fc12e3e8dae8d9e647638b698199577d31d3296f5ad3f1adb24c378cc5bd96b53c5e13256d8496dff51",
        "208d5c92eb7cf1b4d308f64d26cf49f23db3dec410da2377a8007db89e0f3205beac0063036f7264010118746578742f706c61696e3b636861727365743d7574662d3800377b2270223a226272632d3230222c226f70223a226d696e74222c227469636b223a22424f424f222c22616d74223a22313030303030227d68",
        "c0507504f881a2548efcb0bd8b5287fd78c473d5bd35b181abdd5c5cd6d10de204"
      ],
      "is_coinbase": false,
      "sequence": 4294967295
    }
  ],
  "vout": [
    {
      "scriptpubkey": "512048d62e6aa4ce9b4b4d760b1dc0c3e46b46d84be76ae456792a664139e7aaa19c",
      "scriptpubkey_asm": "OP_PUSHNUM_1 OP_PUSHBYTES_32 48d62e6aa4ce9b4b4d760b1dc0c3e46b46d84be76ae456792a664139e7aaa19c",
      "scriptpubkey_type": "v1_p2tr",
      "scriptpubkey_address": "bc1pfrtzu64ye6d5kntkpvwupslyddrdsjl8dtj9v7f2veqnnea25xwqu8ycu4",
      "value": 546
    }
  ],
  "size": 322,
  "weight": 604,
  "fee": 1812,
  "status": {
    "confirmed": true,
    "block_height": 834460,
    "block_hash": "00000000000000000000484a79b643b2524bbce82e5d8a442013fa5b8905ed98",
    "block_time": 1710307468
  },
  "hex": "020000000001016ce8f270738ce9987853b723de1224296f9291e2cc74e8752455ad841f8a84120400000000ffffffff01220200000000000022512048d62e6aa4ce9b4b4d760b1dc0c3e46b46d84be76ae456792a664139e7aaa19c0340536b736f7b022e9e5411be4032ffd68626fcc5b43fda0fc12e3e8dae8d9e647638b698199577d31d3296f5ad3f1adb24c378cc5bd96b53c5e13256d8496dff517d208d5c92eb7cf1b4d308f64d26cf49f23db3dec410da2377a8007db89e0f3205beac0063036f7264010118746578742f706c61696e3b636861727365743d7574662d3800377b2270223a226272632d3230222c226f70223a226d696e74222c227469636b223a22424f424f222c22616d74223a22313030303030227d6821c0507504f881a2548efcb0bd8b5287fd78c473d5bd35b181abdd5c5cd6d10de20400000000"
}