{
  "txid": "cc4d47024e9564d4838be1e428ae2bd6cdaee5ee9cc39757c9f4a0722563d8b9",
  "version": 2,
  "locktime": 834538,
  "vin": [
    {
      "txid": "c6765f4f3afd12c5bffde749419277fd97c4e6173d5e142249f010184830bf9f",
      "vout": 6,
      "prevout": {
        "scriptpubkey": "0014160dac89c34105698c4834eec373f32659557b28",
        "scriptpubkey_asm": "OP_0 OP_PUSHBYTES_20 160dac89c34105698c4834eec373f32659557b28",
        "scriptpubkey_type": "v0_p2wpkh",
        "scriptpubkey_address": "bc1qzcx6ezwrgyzknrzgxnhvxulnyev427eg5t5nht",
        "value": 47988
      },
      "scriptsig": "",
      "scriptsig_asm": "",
      "witness": [
        "30440220588fa7eb029eacaed576e62f9226f9c2f2dfce6c57472ee0664ca490b7fe447c02205c54d362a909b68d855a664694060af4904b415ec5af6298b21e84127196e43a01",
        "02c343c079fb5f200acb387aef0effb32e5db89160b22c16eb0e6d975eaac1a0f4"
      ],
      "is_coinbase": false,
      "sequence": 4294967294
    },
    {
      "txid": "048eb6d9e2b76949ee775f4ce4f7af0519d12ea747b0453cbbf81bd976439399",
      "vout": 0,
      "prevout": {
        "scriptpubkey": "0014c64836622d4c035c9e3dd77b7198e815d4e87e7c",
        "scriptpubkey_asm": "OP_0 OP_PUSHBYTES_20 c64836622d4c035c9e3dd77b7198e815d4e87e7c",
        "scriptpubkey_type": "v0_p2wpkh",
        "scriptpubkey_address": "bc1qceyrvc3dfsp4e83a6aahrx8gzh2wslnupt4zp2",
        "value": 800000
      },
      "scriptsig": "",
      "scriptsig_asm": "",
      "witness": [
        "3044022035c9d4c1c23d56d435d1e43416040a3bc04e50fb06775a16eb0b467879cfe83802202d118047ea0d5aaf1e9edb4394dfe569886b99c172ee26fb1e2bb944c9d2a01301",
        "022cf8b0c3009311447aadd8baafdacfb49cb827d549ca8da18258cce543e71836"
      ],
      "is_coinbase": false,
      "sequence": 4294967294
    }
  ],
  "vout": [
    {
      "scriptpubkey": "001445557a2b618451308d86aab129b68697f75d0849",
      "scriptpubkey_asm": "OP_0 OP_PUSHBYTES_20 45557a2b618451308d86aab129b68697f75d0849",
      "scriptpubkey_type": "v0_p2wpkh",
      "scriptpubkey_address": "bc1qg42h52mps3gnprvx42cjnd5xjlm46zzfsfysw4",
      "value": 842430
    }
  ],
  "size": 339,
  "weight": 708,
  "fee": 5558,
  "status": {
    "confirmed": true,
    "block_height": 834638,
    "block_hash": "000000000000000000025f742c626208ac87e0b7d15054abb4a19ca2d735a54e",
    "block_time": 1710405325
  },
  "hex": "020000000001029fbf30481810f04922145e3d17e6c497fd77924149e7fdbfc512fd3a4f5f76c60600000000feffffff99934376d91bf8bb3c45b047a72ed11905aff7e44c5f77ee4969b7e2d9b68e040000000000feffffff01beda0c000000000016001445557a2b618451308d86aab129b68697f75d0849024730440220588fa7eb029eacaed576e62f9226f9c2f2dfce6c57472ee0664ca490b7fe447c02205c54d362a909b68d855a664694060af4904b415ec5af6298b21e84127196e43a012102c343c079fb5f200acb387aef0effb32e5db89160b22c16eb0e6d975eaac1a0f402473044022035c9d4c1c23d56d435d1e43416040a3bc04e50fb06775a16eb0b467879cfe83802202d118047ea0d5aaf1e9edb4394dfe569886b99c172ee26fb1e2bb944c9d2a0130121022cf8b0c3009311447aadd8baafdacfb49cb827d549ca8da18258cce543e71836eabb0c00"
}