{
  "txid": "cc6e51d15a89ef50623b7e8cd8503472b497468f86f146357c41b3dc731e85bd",
  "version": 1,
  "locktime": 0,
  "vin": [
    {
      "txid": "6b96648219f1eac4ce4c5e73b2ffbf2f98f01b51416b3e9761a76bde83fcdc60",
      "vout": 0,
      "prevout": {
        "scriptpubkey": "51201b4753164209a62aabae74ca0a2c4da1a0fe5a4389e48833ba7d315222184ab8",
        "scriptpubkey_asm": "OP_PUSHNUM_1 OP_PUSHBYTES_32 1b4753164209a62aabae74ca0a2c4da1a0fe5a4389e48833ba7d315222184ab8",
        "scriptpubkey_type": "v1_p2tr",
        "scriptpubkey_address": "bc1prdr4x9jzpxnz42awwn9q5tzd5xs0ukjr38jgsva605c4ygscf2uqusm0me",
        "value": 550
      },
      "scriptsig": "",
      "scriptsig_asm": "",
      "witness": [
        "b0a78e3607a3fa35a4eee358ac58d2792024e981f9355d2cb93c6a020afc0505429e101638f28760553c9ddb2e4ae654ee908386d09646d39076d1d1897deafe"
      ],
      "is_coinbase": false,
      "sequence": 4294967293
    },
    {
      "txid": "e416fce1267146cc27c865d957c7db1fd8428a65ec9ec55592265151e3e840e0",
      "vout": 1,
      "prevout": {
        "scriptpubkey": "51201b4753164209a62aabae74ca0a2c4da1a0fe5a4389e48833ba7d315222184ab8",
        "scriptpubkey_asm": "OP_PUSHNUM_1 OP_PUSHBYTES_32 1b4753164209a62aabae74ca0a2c4da1a0fe5a4389e48833ba7d315222184ab8",
        "scriptpubkey_type": "v1_p2tr",
        "scriptpubkey_address": "bc1prdr4x9jzpxnz42awwn9q5tzd5xs0ukjr38jgsva605c4ygscf2uqusm0me",
        "value": 1816
      },
      "scriptsig": "",
      "scriptsig_asm": "",
      "witness": [
        "16edcdc12ba7fb9919efaea482c01bcbd5d72ab28c5496d1def668637d221345cc5998b5edc00e234fdab27edb4e5978d2fd9fe6e03eb808363c0dbd2b6dc1b4"
      ],
      "is_coinbase": false,
      "sequence": 4294967293
    }
  ],
  "vout": [
    {
      "scriptpubkey": "51207433501d519374d4de6bb33abe15a453514da891393cb765c7bd463be0a84ba9",
      "scriptpubkey_asm": "OP_PUSHNUM_1 OP_PUSHBYTES_32 7433501d519374d4de6bb33abe15a453514da891393cb765c7bd463be0a84ba9",
      "scriptpubkey_type": "v1_p2tr",
      "scriptpubkey_address": "bc1pwse4q823jd6dfhntkvatu9dy2dg5m2y38y7twew8h4rrhc9gfw5sy6vh66",
      "value": 550
    }
  ],
  "size": 269,
  "weight": 674,
  "fee": 1816,
  "status": {
    "confirmed": true,
    "block_height": 834464,
    "block_hash": "0000000000000000000177a0869a911a2b65c9bdcd5a8bcb02b68f305bee848e",
    "block_time": 1710308296
  },
  "hex": "0100000000010260dcfc83de6ba761973e6b41511bf0982fbfffb2735e4ccec4eaf1198264966b0000000000fdffffffe040e8e35151269255c59eec658a42d81fdbc757d965c827cc467126e1fc16e40100000000fdffffff0126020000000000002251207433501d519374d4de6bb33abe15a453514da891393cb765c7bd463be0a84ba90140b0a78e3607a3fa35a4eee358ac58d2792024e981f9355d2cb93c6a020afc0505429e101638f28760553c9ddb2e4ae654ee908386d09646d39076d1d1897deafe014016edcdc12ba7fb9919efaea482c01bcbd5d72ab28c5496d1def668637d221345cc5998b5edc00e234fdab27edb4e5978d2fd9fe6e03eb808363c0dbd2b6dc1b400000000"
}