{
  "txid": "cc7dc394c5f7690fc13d6d8108d3267d1f8307be6647aa013b7c5ddc79bf3bf6",
  "version": 2,
  "locktime": 834637,
  "vin": [
    {
      "txid": "bcdfa7e25a0171250fc54c19bf86459e6ae6fe117d67939fb87d9a8b8aa0fc01",
      "vout": 0,
      "prevout": {
        "scriptpubkey": "001458fb19844d508cfc3dce7962b5a286093350530b",
        "scriptpubkey_asm": "OP_0 OP_PUSHBYTES_20 58fb19844d508cfc3dce7962b5a286093350530b",
        "scriptpubkey_type": "v0_p2wpkh",
        "scriptpubkey_address": "bc1qtra3npzd2zx0c0ww093ttg5xpye4q5ctm52wf7",
        "value": 63915
      },
      "scriptsig": "",
      "scriptsig_asm": "",
      "witness": [
        "3044022076233147164d3b3ea65f8570047b52110ffda75688d51c4d3c95f6af21c4792002206dcf9a873312dda52c5fc63f2afad579760165823027f7489703952198ebd48101",
        "0294ab361aec725b455e2dfa24f13d909ed7ab3b75085e89f69a11921acc2db590"
      ],
      "is_coinbase": false,
      "sequence": 4294967293
    }
  ],
  "vout": [
    {
      "scriptpubkey": "0020b62ff2ba8b403c8a8b2aa223107acc2c8d3f7588548a6ec29fd9c18c1ce6536c",
      "scriptpubkey_asm": "OP_0 OP_PUSHBYTES_32 b62ff2ba8b403c8a8b2aa223107acc2c8d3f7588548a6ec29fd9c18c1ce6536c",
      "scriptpubkey_type": "v0_p2wsh",
      "scriptpubkey_address": "bc1qkchl9w5tgq7g4ze25g33q7kv9jxn7avg2j9xas5lm8qcc88x2dkqrgml4w",
      "value": 62085
    }
  ],
  "size": 203,
  "weight": 485,
  "fee": 1830,
  "status": {
    "confirmed": true,
    "block_height": 834638,
    "block_hash": "000000000000000000025f742c626208ac87e0b7d15054abb4a19ca2d735a54e",
    "block_time": 1710405325
  },
  "hex": "0200000000010101fca08a8b9a7db89f93677d11fee66a9e4586bf194cc50f2571015ae2a7dfbc0000000000fdffffff0185f2000000000000220020b62ff2ba8b403c8a8b2aa223107acc2c8d3f7588548a6ec29fd9c18c1ce6536c02473044022076233147164d3b3ea65f8570047b52110ffda75688d51c4d3c95f6af21c4792002206dcf9a873312dda52c5fc63f2afad579760165823027f7489703952198ebd48101210294ab361aec725b455e2dfa24f13d909ed7ab3b75085e89f69a11921acc2db5904dbc0c00"
}