{
  "txid": "cc9135bbe37f7a09a256e92411589c960f80f826185519ecc551090eed32f110",
  "version": 2,
  "locktime": 0,
  "vin": [
    {
      "txid": "14e2167695fd53b97ae50c0a70e65ac4ef7ad1480621c0c13d9d798945a5d5dc",
      "vout": 3,
      "prevout": {
        "scriptpubkey": "51202e5ab2d37d0a9256cc0ad4dfd49b7efad5bb5539f151f8bbd418642cfac700db",
        "scriptpubkey_asm": "OP_PUSHNUM_1 OP_PUSHBYTES_32 2e5ab2d37d0a9256cc0ad4dfd49b7efad5bb5539f151f8bbd418642cfac700db",
        "scriptpubkey_type": "v1_p2tr",
        "scriptpubkey_address": "bc1p9edt95map2f9dnq26n0afxm7lt2mk4fe79gl3w75rpjze7k8qrdsqjp78u",
        "value": 2850
      },
      "scriptsig": "",
      "scriptsig_asm": "",
      "witness": [
        "7656919e5d485788d3309e20b82c2e63f973d9bc852b249d858a01fb051933b6df1fd2092575f67172d4fc5e6bf54ff9ccf08fffe9404d25dd8b454c06e74aea",
        "200352436c9f7bdcc16279891d69912a74c93e199e9c9bda369646c7677ce7a0ecac0063036f726401011e6170706c69636174696f6e2f6a736f6e3b636861727365743d7574662d38004cd27b2270223a22706f772d3230222c226f70223a226d696e74222c227469636b223a2250455045222c22616d74223a2231303030222c22736f6c7574696f6e223a22504550453a62633170673935386e6b7a747678347271756e78676d747a6c35666e70666b633330776a323770777367396e6c706a786b796e64793671737376386c6b303a303030303030303030303030303030303030303139393431613561653132383937363539383134343239323533333030353762306461393666336465613163353a33343131333636383836227d68",
        "c1631b34e489e80d4fba35164e5ad52a60d66865df7d7db84d2adbf53ec13ca2a1"
      ],
      "is_coinbase": false,
      "sequence": 4294967295
    }
  ],
  "vout": [
    {
      "scriptpubkey": "5120416879d84b61aa30726646d62fd1330a6d88bdd25782e820b3f8646b126d2681",
      "scriptpubkey_asm": "OP_PUSHNUM_1 OP_PUSHBYTES_32 416879d84b61aa30726646d62fd1330a6d88bdd25782e820b3f8646b126d2681",
      "scriptpubkey_type": "v1_p2tr",
      "scriptpubkey_address": "bc1pg958nkztvx4rqunxgmtzl5fnpfkc30wj27pwsg9nlpjxkyndy6qssv8lk0",
      "value": 546
    }
  ],
  "size": 486,
  "weight": 768,
  "fee": 2304,
  "status": {
    "confirmed": true,
    "block_height": 834460,
    "block_hash": "00000000000000000000484a79b643b2524bbce82e5d8a442013fa5b8905ed98",
    "block_time": 1710307468
  },
  "hex": "02000000000101dcd5a54589799d3dc1c0210648d17aefc45ae6700a0ce57ab953fd957616e2140300000000ffffffff012202000000000000225120416879d84b61aa30726646d62fd1330a6d88bdd25782e820b3f8646b126d268103407656919e5d485788d3309e20b82c2e63f973d9bc852b249d858a01fb051933b6df1fd2092575f67172d4fc5e6bf54ff9ccf08fffe9404d25dd8b454c06e74aeafd1f01200352436c9f7bdcc16279891d69912a74c93e199e9c9bda369646c7677ce7a0ecac0063036f726401011e6170706c69636174696f6e2f6a736f6e3b636861727365743d7574662d38004cd27b2270223a22706f772d3230222c226f70223a226d696e74222c227469636b223a2250455045222c22616d74223a2231303030222c22736f6c7574696f6e223a22504550453a62633170673935386e6b7a747678347271756e78676d747a6c35666e70666b633330776a323770777367396e6c706a786b796e64793671737376386c6b303a303030303030303030303030303030303030303139393431613561653132383937363539383134343239323533333030353762306461393666336465613163353a33343131333636383836227d6821c1631b34e489e80d4fba35164e5ad52a60d66865df7d7db84d2adbf53ec13ca2a100000000"
}