{
  "txid": "cc9f421202086446002d6abdb57d7163666f98233995d6ad6d69e0c75ba704f0",
  "version": 2,
  "locktime": 834539,
  "vin": [
    {
      "txid": "f85c0710d50df537be01b5d4a9862aae9b342160154b9e006dd507442511cfe5",
      "vout": 5,
      "prevout": {
        "scriptpubkey": "0014050813a5ab579c8a6ab92cc144eb68dc32f30f04",
        "scriptpubkey_asm": "OP_0 OP_PUSHBYTES_20 050813a5ab579c8a6ab92cc144eb68dc32f30f04",
        "scriptpubkey_type": "v0_p2wpkh",
        "scriptpubkey_address": "bc1qq5yp8fdt27wg564e9nq5f6mgmse0xrcye8aasg",
        "value": 531207705
      },
      "scriptsig": "",
      "scriptsig_asm": "",
      "witness": [
        "30440220622a1f30f2204051f7e0d1a4624ee9596aae118fdf04cdc60b6a50b67c24a7fb022048d35156b4498d7a71006107eb147e606ba4ae81eb840fcd99f69501d721dfbf01",
        "0372d17a454134c5774af052a7f65055321698edf77e511d8daee1cf74c571a492"
      ],
      "is_coinbase": false,
      "sequence": 4294967293
    }
  ],
  "vout": [
    {
      "scriptpubkey": "a91413dc510718efb8e3a7ffb8db2344ba71bc1eece187",
      "scriptpubkey_asm": "OP_HASH160 OP_PUSHBYTES_20 13dc510718efb8e3a7ffb8db2344ba71bc1eece1 OP_EQUAL",
      "scriptpubkey_type": "p2sh",
      "scriptpubkey_address": "33W2h3kpuexd9UWLuuJY6Kvmy4TiXDv1hb",
      "value": 5985000
    },
    {
      "scriptpubkey": "0014f718cfae27315c5b560db8d8f183ad5154b7866c",
      "scriptpubkey_asm": "OP_0 OP_PUSHBYTES_20 f718cfae27315c5b560db8d8f183ad5154b7866c",
      "scriptpubkey_type": "v0_p2wpkh",
      "scriptpubkey_address": "bc1q7uvvlt38x9w9k4sdhrv0rqad292t0pnvgp5au3",
      "value": 1916832
    },
    {
      "scriptpubkey": "a914a4635d34e2528af05068c2ae25166c3b77a14b3d87",
      "scriptpubkey_asm": "OP_HASH160 OP_PUSHBYTES_20 a4635d34e2528af05068c2ae25166c3b77a14b3d OP_EQUAL",
      "scriptpubkey_type": "p2sh",
      "scriptpubkey_address": "3GgDmwaYxg9GESbLrzt8UipMM1Zpqm8tGt",
      "value": 7985000
    },
    {
      "scriptpubkey": "0014abb7494dbbd47207143cda824cea61f5efa27a77",
      "scriptpubkey_asm": "OP_0 OP_PUSHBYTES_20 abb7494dbbd47207143cda824cea61f5efa27a77",
      "scriptpubkey_type": "v0_p2wpkh",
      "scriptpubkey_address": "bc1q4wm5jndm63eqw9pum2pye6np7hh6y7nhzmzg44",
      "value": 3293140
    },
    {
      "scriptpubkey": "00141f287a8e8e5f0432c9e24da89344e281e04906b4",
      "scriptpubkey_asm": "OP_0 OP_PUSHBYTES_20 1f287a8e8e5f0432c9e24da89344e281e04906b4",
      "scriptpubkey_type": "v0_p2wpkh",
      "scriptpubkey_address": "bc1qru584r5wtuzr9j0zfk5fx38zs8syjp45wp0ltv",
      "value": 2143149
    },
    {
      "scriptpubkey": "0014dffefa04962bf602b872432398caacf26bc3b477",
      "scriptpubkey_asm": "OP_0 OP_PUSHBYTES_20 dffefa04962bf602b872432398caacf26bc3b477",
      "scriptpubkey_type": "v0_p2wpkh",
      "scriptpubkey_address": "bc1qmll05pyk90mq9wrjgv3e3j4v7f4u8drhxjnuwg",
      "value": 1131365
    },
    {
      "scriptpubkey": "0014747d495ce26992e36801fb57b4992e0851650d93",
      "scriptpubkey_asm": "OP_0 OP_PUSHBYTES_20 747d495ce26992e36801fb57b4992e0851650d93",
      "scriptpubkey_type": "v0_p2wpkh",
      "scriptpubkey_address": "bc1qw375jh8zdxfwx6qpldtmfxfwppgk2rvnn74emd",
      "value": 508745175
    }
  ],
  "size": 379,
  "weight": 1189,
  "fee": 8044,
  "status": {
    "confirmed": true,
    "block_height": 834638,
    "block_hash": "000000000000000000025f742c626208ac87e0b7d15054abb4a19ca2d735a54e",
    "block_time": 1710405325
  },
  "hex": "02000000000101e5cf11254407d56d009e4b156021349bae2a86a9d4b501be37f50dd510075cf80500000000fdffffff07e8525b000000000017a91413dc510718efb8e3a7ffb8db2344ba71bc1eece187a03f1d0000000000160014f718cfae27315c5b560db8d8f183ad5154b7866c68d779000000000017a914a4635d34e2528af05068c2ae25166c3b77a14b3d87d43f320000000000160014abb7494dbbd47207143cda824cea61f5efa27a77adb32000000000001600141f287a8e8e5f0432c9e24da89344e281e04906b46543110000000000160014dffefa04962bf602b872432398caacf26bc3b477d7d5521e00000000160014747d495ce26992e36801fb57b4992e0851650d93024730440220622a1f30f2204051f7e0d1a4624ee9596aae118fdf04cdc60b6a50b67c24a7fb022048d35156b4498d7a71006107eb147e606ba4ae81eb840fcd99f69501d721dfbf01210372d17a454134c5774af052a7f65055321698edf77e511d8daee1cf74c571a492ebbb0c00"
}