{
  "txid": "cca4ecaa88e3f31a15cf0dcc4b8e2b5b178b8543e5ae0dca8df4ef4d775b127a",
  "version": 2,
  "locktime": 0,
  "vin": [
    {
      "txid": "e9c784d649325ca3ed223126253f370c6de94edf91f3ff436d917e2a3eebf407",
      "vout": 3,
      "prevout": {
        "scriptpubkey": "51204a983902bf34feb7c058a1cb3b3be0ad8f4af8776719899b9e82e4af21a4415f",
        "scriptpubkey_asm": "OP_PUSHNUM_1 OP_PUSHBYTES_32 4a983902bf34feb7c058a1cb3b3be0ad8f4af8776719899b9e82e4af21a4415f",
        "scriptpubkey_type": "v1_p2tr",
        "scriptpubkey_address": "bc1pf2vrjq4lxnlt0szc589nkwlq4k8547rhvuvcnxu7stj27gdyg90sh2unz8",
        "value": 600
      },
      "scriptsig": "",
      "scriptsig_asm": "",
      "witness": [
        "470717352f6a03940baeed152ce9da31f29890fd42393bd7ca7aba6d42b94d0661bdf6c0359bc97296789110fa852ae8c71a26859d0dac0e66113ec5e3af3c95"
      ],
      "is_coinbase": false,
      "sequence": 4294967295
    },
    {
      "txid": "e9c784d649325ca3ed223126253f370c6de94edf91f3ff436d917e2a3eebf407",
      "vout": 4,
      "prevout": {
        "scriptpubkey": "51204a983902bf34feb7c058a1cb3b3be0ad8f4af8776719899b9e82e4af21a4415f",
        "scriptpubkey_asm": "OP_PUSHNUM_1 OP_PUSHBYTES_32 4a983902bf34feb7c058a1cb3b3be0ad8f4af8776719899b9e82e4af21a4415f",
        "scriptpubkey_type": "v1_p2tr",
        "scriptpubkey_address": "bc1pf2vrjq4lxnlt0szc589nkwlq4k8547rhvuvcnxu7stj27gdyg90sh2unz8",
        "value": 600
      },
      "scriptsig": "",
      "scriptsig_asm": "",
      "witness": [
        "f026d285aa7ca6711fc942a259a4f4156af67eac981e65c7cbe8463dc7e91f26d3bc138a7d1277f6025b5515489612211dc3286c78e6fe0c351509a41fdc7910"
      ],
      "is_coinbase": false,
      "sequence": 4294967295
    },
    {
      "txid": "fd08bf50deccce476f9c811f8689dd78cb9fd99eac3c46e547f705ba6ec330c8",
      "vout": 1,
      "prevout": {
        "scriptpubkey": "51208b12e9fb93cf423826186b72146dee65d31c3c160e6f88426e65105f5566b382",
        "scriptpubkey_asm": "OP_PUSHNUM_1 OP_PUSHBYTES_32 8b12e9fb93cf423826186b72146dee65d31c3c160e6f88426e65105f5566b382",
        "scriptpubkey_type": "v1_p2tr",
        "scriptpubkey_address": "bc1p3vfwn7uneaprsfscddepgm0wvhf3c0qkpehcssnwv5g974txkwpqpa5ywe",
        "value": 546
      },
      "scriptsig": "",
      "scriptsig_asm": "",
      "witness": [
        "376c4f06387c825ffc9033ca50fca778a60d588f3b1d7ef07ee9a3786a8981bcb28b9c0b22563bd510970e31eaf647e078806b53fa4e91c11ebb5c400109a9fb83"
      ],
      "is_coinbase": false,
      "sequence": 4294967295
    },
    {
      "txid": "4340cc0d194cc6da42534425d332843d6d9f331537753c395ea861572f829f3a",
      "vout": 1,
      "prevout": {
        "scriptpubkey": "51204a983902bf34feb7c058a1cb3b3be0ad8f4af8776719899b9e82e4af21a4415f",
        "scriptpubkey_asm": "OP_PUSHNUM_1 OP_PUSHBYTES_32 4a983902bf34feb7c058a1cb3b3be0ad8f4af8776719899b9e82e4af21a4415f",
        "scriptpubkey_type": "v1_p2tr",
        "scriptpubkey_address": "bc1pf2vrjq4lxnlt0szc589nkwlq4k8547rhvuvcnxu7stj27gdyg90sh2unz8",
        "value": 592758
      },
      "scriptsig": "",
      "scriptsig_asm": "",
      "witness": [
        "830b6f98ab2320d55b5ec6c98250969f1be36e02f105fac5cfffd35e605e8a6eadb0eb8e124f885311967d21346e22919f97dee654e0dc3a88c6a65cde8ca3dc"
      ],
      "is_coinbase": false,
      "sequence": 4294967295
    }
  ],
  "vout": [
    {
      "scriptpubkey": "51204a983902bf34feb7c058a1cb3b3be0ad8f4af8776719899b9e82e4af21a4415f",
      "scriptpubkey_asm": "OP_PUSHNUM_1 OP_PUSHBYTES_32 4a983902bf34feb7c058a1cb3b3be0ad8f4af8776719899b9e82e4af21a4415f",
      "scriptpubkey_type": "v1_p2tr",
      "scriptpubkey_address": "bc1pf2vrjq4lxnlt0szc589nkwlq4k8547rhvuvcnxu7stj27gdyg90sh2unz8",
      "value": 1200
    },
    {
      "scriptpubkey": "51204a983902bf34feb7c058a1cb3b3be0ad8f4af8776719899b9e82e4af21a4415f",
      "scriptpubkey_asm": "OP_PUSHNUM_1 OP_PUSHBYTES_32 4a983902bf34feb7c058a1cb3b3be0ad8f4af8776719899b9e82e4af21a4415f",
      "scriptpubkey_type": "v1_p2tr",
      "scriptpubkey_address": "bc1pf2vrjq4lxnlt0szc589nkwlq4k8547rhvuvcnxu7stj27gdyg90sh2unz8",
      "value": 546
    },
    {
      "scriptpubkey": "51208b12e9fb93cf423826186b72146dee65d31c3c160e6f88426e65105f5566b382",
      "scriptpubkey_asm": "OP_PUSHNUM_1 OP_PUSHBYTES_32 8b12e9fb93cf423826186b72146dee65d31c3c160e6f88426e65105f5566b382",
      "scriptpubkey_type": "v1_p2tr",
      "scriptpubkey_address": "bc1p3vfwn7uneaprsfscddepgm0wvhf3c0qkpehcssnwv5g974txkwpqpa5ywe",
      "value": 349000
    },
    {
      "scriptpubkey": "51204a983902bf34feb7c058a1cb3b3be0ad8f4af8776719899b9e82e4af21a4415f",
      "scriptpubkey_asm": "OP_PUSHNUM_1 OP_PUSHBYTES_32 4a983902bf34feb7c058a1cb3b3be0ad8f4af8776719899b9e82e4af21a4415f",
      "scriptpubkey_type": "v1_p2tr",
      "scriptpubkey_address": "bc1pf2vrjq4lxnlt0szc589nkwlq4k8547rhvuvcnxu7stj27gdyg90sh2unz8",
      "value": 600
    },
    {
      "scriptpubkey": "51204a983902bf34feb7c058a1cb3b3be0ad8f4af8776719899b9e82e4af21a4415f",
      "scriptpubkey_asm": "OP_PUSHNUM_1 OP_PUSHBYTES_32 4a983902bf34feb7c058a1cb3b3be0ad8f4af8776719899b9e82e4af21a4415f",
      "scriptpubkey_type": "v1_p2tr",
      "scriptpubkey_address": "bc1pf2vrjq4lxnlt0szc589nkwlq4k8547rhvuvcnxu7stj27gdyg90sh2unz8",
      "value": 600
    },
    {
      "scriptpubkey": "51204a983902bf34feb7c058a1cb3b3be0ad8f4af8776719899b9e82e4af21a4415f",
      "scriptpubkey_asm": "OP_PUSHNUM_1 OP_PUSHBYTES_32 4a983902bf34feb7c058a1cb3b3be0ad8f4af8776719899b9e82e4af21a4415f",
      "scriptpubkey_type": "v1_p2tr",
      "scriptpubkey_address": "bc1pf2vrjq4lxnlt0szc589nkwlq4k8547rhvuvcnxu7stj27gdyg90sh2unz8",
      "value": 235073
    }
  ],
  "size": 699,
  "weight": 1995,
  "fee": 7485,
  "status": {
    "confirmed": true,
    "block_height": 834638,
    "block_hash": "000000000000000000025f742c626208ac87e0b7d15054abb4a19ca2d735a54e",
    "block_time": 1710405325
  },
  "hex": "0200000000010407f4eb3e2a7e916d43fff391df4ee96d0c373f25263122eda35c3249d684c7e90300000000ffffffff07f4eb3e2a7e916d43fff391df4ee96d0c373f25263122eda35c3249d684c7e90400000000ffffffffc830c36eba05f747e5463cac9ed99fcb78dd89861f819c6f47ceccde50bf08fd0100000000ffffffff3a9f822f5761a85e393c753715339f6d3d8432d325445342dac64c190dcc40430100000000ffffffff06b0040000000000002251204a983902bf34feb7c058a1cb3b3be0ad8f4af8776719899b9e82e4af21a4415f22020000000000002251204a983902bf34feb7c058a1cb3b3be0ad8f4af8776719899b9e82e4af21a4415f48530500000000002251208b12e9fb93cf423826186b72146dee65d31c3c160e6f88426e65105f5566b38258020000000000002251204a983902bf34feb7c058a1cb3b3be0ad8f4af8776719899b9e82e4af21a4415f58020000000000002251204a983902bf34feb7c058a1cb3b3be0ad8f4af8776719899b9e82e4af21a4415f41960300000000002251204a983902bf34feb7c058a1cb3b3be0ad8f4af8776719899b9e82e4af21a4415f0140470717352f6a03940baeed152ce9da31f29890fd42393bd7ca7aba6d42b94d0661bdf6c0359bc97296789110fa852ae8c71a26859d0dac0e66113ec5e3af3c950140f026d285aa7ca6711fc942a259a4f4156af67eac981e65c7cbe8463dc7e91f26d3bc138a7d1277f6025b5515489612211dc3286c78e6fe0c351509a41fdc79100141376c4f06387c825ffc9033ca50fca778a60d588f3b1d7ef07ee9a3786a8981bcb28b9c0b22563bd510970e31eaf647e078806b53fa4e91c11ebb5c400109a9fb830140830b6f98ab2320d55b5ec6c98250969f1be36e02f105fac5cfffd35e605e8a6eadb0eb8e124f885311967d21346e22919f97dee654e0dc3a88c6a65cde8ca3dc00000000"
}