{
  "txid": "ccc6253c11d89af11bdcf20bdf513112ff3c0bc6fe526045542e1edf9ac6ecd6",
  "version": 1,
  "locktime": 0,
  "vin": [
    {
      "txid": "c6fa5cb4ac9f4f59b193a48bbb38b70b246bb109c91775160f35070f46838821",
      "vout": 1,
      "prevout": {
        "scriptpubkey": "00147ef8d1162a3f3691023a6fccb7723edd126ac80a",
        "scriptpubkey_asm": "OP_0 OP_PUSHBYTES_20 7ef8d1162a3f3691023a6fccb7723edd126ac80a",
        "scriptpubkey_type": "v0_p2wpkh",
        "scriptpubkey_address": "bc1q0mudz9328umfzq36dlxtwu37m5fx4jq2hqlq0s",
        "value": 9132594
      },
      "scriptsig": "",
      "scriptsig_asm": "",
      "witness": [
        "3044022074bbefd100b6317dbc481188505a147a84bf76bc077cd6fa5d2e74a6c8a268a602204a871710fa1c8a5151600f38039654d026d60b2796da01459294e71b589a769901",
        "02fc2f7e7450bee9acf9f8a373f06ae0f924959f3ed6395255fe8efb3113f874cf"
      ],
      "is_coinbase": false,
      "sequence": 4294967295
    }
  ],
  "vout": [
    {
      "scriptpubkey": "001437fff1c9ce1d770cf82b38a1cdeba3972cddbb08",
      "scriptpubkey_asm": "OP_0 OP_PUSHBYTES_20 37fff1c9ce1d770cf82b38a1cdeba3972cddbb08",
      "scriptpubkey_type": "v0_p2wpkh",
      "scriptpubkey_address": "bc1qxlllrjwwr4mse7pt8zsum6arjukdmwcgv0mslg",
      "value": 24660
    },
    {
      "scriptpubkey": "00147ef8d1162a3f3691023a6fccb7723edd126ac80a",
      "scriptpubkey_asm": "OP_0 OP_PUSHBYTES_20 7ef8d1162a3f3691023a6fccb7723edd126ac80a",
      "scriptpubkey_type": "v0_p2wpkh",
      "scriptpubkey_address": "bc1q0mudz9328umfzq36dlxtwu37m5fx4jq2hqlq0s",
      "value": 9105058
    }
  ],
  "size": 222,
  "weight": 561,
  "fee": 2876,
  "status": {
    "confirmed": true,
    "block_height": 834638,
    "block_hash": "000000000000000000025f742c626208ac87e0b7d15054abb4a19ca2d735a54e",
    "block_time": 1710405325
  },
  "hex": "01000000000101218883460f07350f167517c909b16b240bb738bb8ba493b1594f9facb45cfac60100000000ffffffff02546000000000000016001437fff1c9ce1d770cf82b38a1cdeba3972cddbb08a2ee8a00000000001600147ef8d1162a3f3691023a6fccb7723edd126ac80a02473044022074bbefd100b6317dbc481188505a147a84bf76bc077cd6fa5d2e74a6c8a268a602204a871710fa1c8a5151600f38039654d026d60b2796da01459294e71b589a7699012102fc2f7e7450bee9acf9f8a373f06ae0f924959f3ed6395255fe8efb3113f874cf00000000"
}