{
  "txid": "ccca66352bd06b200e85266c7253e2d0d443812d166f7a7a5ef7d587bb42cff3",
  "version": 2,
  "locktime": 0,
  "vin": [
    {
      "txid": "acc3ba00869acb582a3f2904ce3a11dd3779350ce234063fc7d0959246213364",
      "vout": 176,
      "prevout": {
        "scriptpubkey": "51209b3bb22806363d5ae910d92cad42dbdc612eb5c57b4c12786df2317b95b2b822",
        "scriptpubkey_asm": "OP_PUSHNUM_1 OP_PUSHBYTES_32 9b3bb22806363d5ae910d92cad42dbdc612eb5c57b4c12786df2317b95b2b822",
        "scriptpubkey_type": "v1_p2tr",
        "scriptpubkey_address": "bc1pnvamy2qxxc7446gsmyk26skmm3sjadw90dxpy7rd7gchh9djhq3q7mz8z2",
        "value": 1806
      },
      "scriptsig": "",
      "scriptsig_asm": "",
      "witness": [
        "3e00fa1039a5fd1b5a949d1f1acd84112eac197015117fcb81c1ceb9aff239860a9ad4df0fa1a05edc4e09c5d1f172bfbee67bc215c38bb981209b4aad097426",
        "20709489778335ed03c653077610aab2e7af8f53b491b86057afd10affe4d02d05ac0063036f726401010a746578742f706c61696e00357b2270223a226272632d3230222c226f70223a226d696e74222c227469636b223a22646f6765222c22616d74223a2234323030227d68",
        "c0709489778335ed03c653077610aab2e7af8f53b491b86057afd10affe4d02d05"
      ],
      "is_coinbase": false,
      "sequence": 4261412863
    }
  ],
  "vout": [
    {
      "scriptpubkey": "00147a665de7a370f4c9b372ab1fae587500a5bcbdb4",
      "scriptpubkey_asm": "OP_0 OP_PUSHBYTES_20 7a665de7a370f4c9b372ab1fae587500a5bcbdb4",
      "scriptpubkey_type": "v0_p2wpkh",
      "scriptpubkey_address": "bc1q0fn9mearwr6vnvmj4v06ukr4qzjme0d565dzcx",
      "value": 294
    }
  ],
  "size": 294,
  "weight": 540,
  "fee": 1512,
  "status": {
    "confirmed": true,
    "block_height": 834460,
    "block_hash": "00000000000000000000484a79b643b2524bbce82e5d8a442013fa5b8905ed98",
    "block_time": 1710307468
  },
  "hex": "02000000000101643321469295d0c73f0634e20c357937dd113ace04293f2a58cb9a8600bac3acb000000000fffffffd0126010000000000001600147a665de7a370f4c9b372ab1fae587500a5bcbdb403403e00fa1039a5fd1b5a949d1f1acd84112eac197015117fcb81c1ceb9aff239860a9ad4df0fa1a05edc4e09c5d1f172bfbee67bc215c38bb981209b4aad0974266d20709489778335ed03c653077610aab2e7af8f53b491b86057afd10affe4d02d05ac0063036f726401010a746578742f706c61696e00357b2270223a226272632d3230222c226f70223a226d696e74222c227469636b223a22646f6765222c22616d74223a2234323030227d6821c0709489778335ed03c653077610aab2e7af8f53b491b86057afd10affe4d02d0500000000"
}