{
  "txid": "ccd7761a162c39d1de08a37039ecfce8336d33e9a4590b348ca0b9f53c2633cd",
  "version": 1,
  "locktime": 0,
  "vin": [
    {
      "txid": "b4247893090a037c777a17b750bdbce09a9b8ffca0749327617ccca90347ad95",
      "vout": 0,
      "prevout": {
        "scriptpubkey": "76a914de948e8fc22430080d7bd4c2aae481c96bbee5d988ac",
        "scriptpubkey_asm": "OP_DUP OP_HASH160 OP_PUSHBYTES_20 de948e8fc22430080d7bd4c2aae481c96bbee5d9 OP_EQUALVERIFY OP_CHECKSIG",
        "scriptpubkey_type": "p2pkh",
        "scriptpubkey_address": "1MHtyVy14cYgVFuLhvJzhquCsRAzx74aPX",
        "value": 2663126
      },
      "scriptsig": "4830450221008f8e0ac4c361d9edf001db5cf84b4418e66ca7edc891bd3da8dbcd77565e5f7102200156491dad3ab55623c6e407e5c54e51902d0ada0d5632b5d86b65f93cf350b20121036a9c5a23d4265bc3a487a30c6c2c2b953b8360b01a264fd98479167238138fd3",
      "scriptsig_asm": "OP_PUSHBYTES_72 30450221008f8e0ac4c361d9edf001db5cf84b4418e66ca7edc891bd3da8dbcd77565e5f7102200156491dad3ab55623c6e407e5c54e51902d0ada0d5632b5d86b65f93cf350b201 OP_PUSHBYTES_33 036a9c5a23d4265bc3a487a30c6c2c2b953b8360b01a264fd98479167238138fd3",
      "is_coinbase": false,
      "sequence": 4294967293
    }
  ],
  "vout": [
    {
      "scriptpubkey": "0020690e929ca40f0ba97bc0d734a7daa3c9fef7e464cad51e9531db14c18faba69d",
      "scriptpubkey_asm": "OP_0 OP_PUSHBYTES_32 690e929ca40f0ba97bc0d734a7daa3c9fef7e464cad51e9531db14c18faba69d",
      "scriptpubkey_type": "v0_p2wsh",
      "scriptpubkey_address": "bc1qdy8f989ypu96j77q6u620k4re8l00eryet23a9f3mv2vrrat56wsu5nmh4",
      "value": 11772
    },
    {
      "scriptpubkey": "76a914574397a930840f030690ae087aa10774c71263e488ac",
      "scriptpubkey_asm": "OP_DUP OP_HASH160 OP_PUSHBYTES_20 574397a930840f030690ae087aa10774c71263e4 OP_EQUALVERIFY OP_CHECKSIG",
      "scriptpubkey_type": "p2pkh",
      "scriptpubkey_address": "18xQm6Qr1oogvDp3YSVFxxKftyoPDXio1i",
      "value": 2647829
    }
  ],
  "size": 235,
  "weight": 940,
  "fee": 3525,
  "status": {
    "confirmed": true,
    "block_height": 834638,
    "block_hash": "000000000000000000025f742c626208ac87e0b7d15054abb4a19ca2d735a54e",
    "block_time": 1710405325
  },
  "hex": "010000000195ad4703a9cc7c61279374a0fc8f9b9ae0bcbd50b7177a777c030a09937824b4000000006b4830450221008f8e0ac4c361d9edf001db5cf84b4418e66ca7edc891bd3da8dbcd77565e5f7102200156491dad3ab55623c6e407e5c54e51902d0ada0d5632b5d86b65f93cf350b20121036a9c5a23d4265bc3a487a30c6c2c2b953b8360b01a264fd98479167238138fd3fdffffff02fc2d000000000000220020690e929ca40f0ba97bc0d734a7daa3c9fef7e464cad51e9531db14c18faba69d15672800000000001976a914574397a930840f030690ae087aa10774c71263e488ac00000000"
}