{
  "txid": "ccecca8dc6083c5066b3618fc42d6fc27745c51ade1b82d332b2a6fceea44f1d",
  "version": 1,
  "locktime": 0,
  "vin": [
    {
      "txid": "5e797128e5900884730b756181f96b638657606de797f5ae0495e27c209d2ade",
      "vout": 63,
      "prevout": {
        "scriptpubkey": "0014a0752f5f963b426f23c121fa4be67f06fe6a0ee0",
        "scriptpubkey_asm": "OP_0 OP_PUSHBYTES_20 a0752f5f963b426f23c121fa4be67f06fe6a0ee0",
        "scriptpubkey_type": "v0_p2wpkh",
        "scriptpubkey_address": "bc1q5p6j7huk8dpx7g7py8ayhenlqmlx5rhq8w5q4g",
        "value": 60966
      },
      "scriptsig": "",
      "scriptsig_asm": "",
      "witness": [
        "30440220068b0622f33f630cbff6a08ebbd45994044113fe1cd56ea7cc0dbd79513ebf63022041a4dca451b5a4d374f8e102de5cd6250a95b5cefe4c564fda42cb4ed84ad60a01",
        "02b412b5b482beeb506a32c52525b3025519c8224bd2d89e762e6eb48366334bfa"
      ],
      "is_coinbase": false,
      "sequence": 4294967295
    }
  ],
  "vout": [
    {
      "scriptpubkey": "a914f644e6bd8eea65ee909308a236c6c8252c5482e887",
      "scriptpubkey_asm": "OP_HASH160 OP_PUSHBYTES_20 f644e6bd8eea65ee909308a236c6c8252c5482e8 OP_EQUAL",
      "scriptpubkey_type": "p2sh",
      "scriptpubkey_address": "3Q9Ah5jLimHw6WkSY9y9QwhGS3gv4sFBTo",
      "value": 58106
    }
  ],
  "size": 192,
  "weight": 441,
  "fee": 2860,
  "status": {
    "confirmed": true,
    "block_height": 834638,
    "block_hash": "000000000000000000025f742c626208ac87e0b7d15054abb4a19ca2d735a54e",
    "block_time": 1710405325
  },
  "hex": "01000000000101de2a9d207ce29504aef597e76d605786636bf98161750b73840890e52871795e3f00000000ffffffff01fae200000000000017a914f644e6bd8eea65ee909308a236c6c8252c5482e887024730440220068b0622f33f630cbff6a08ebbd45994044113fe1cd56ea7cc0dbd79513ebf63022041a4dca451b5a4d374f8e102de5cd6250a95b5cefe4c564fda42cb4ed84ad60a012102b412b5b482beeb506a32c52525b3025519c8224bd2d89e762e6eb48366334bfa00000000"
}