{
  "txid": "ccf1926acbea367696b7a022846708d18411c9aec983ef741d98e68b03b29eb8",
  "version": 1,
  "locktime": 834458,
  "vin": [
    {
      "txid": "2ab5131624bc14c643b1e4c1fb09fe7708429df6b726c280265185183922ed28",
      "vout": 1,
      "prevout": {
        "scriptpubkey": "0020c1c53b35c5fb48ac1bcf36e2a599ce21de200e13dd0d00c7ac2464368666a0b4",
        "scriptpubkey_asm": "OP_0 OP_PUSHBYTES_32 c1c53b35c5fb48ac1bcf36e2a599ce21de200e13dd0d00c7ac2464368666a0b4",
        "scriptpubkey_type": "v0_p2wsh",
        "scriptpubkey_address": "bc1qc8znkdw9ldy2cx70xm32txwwy80zqrsnm5xsp3avy3jrdpnx5z6qsm2rkh",
        "value": 1432275
      },
      "scriptsig": "",
      "scriptsig_asm": "",
      "witness": [
        "",
        "304402204c0f9b8cbbea2efd634abbe669bd7a11f9bb2dcaf3ad53ac9adc80ce35ba1f6602204327345fcc5c26d5076eb2cdd692776f163fc7e0f9f8f4846df92900d0fbe4b301",
        "304402206de12669fbd9aa5c2f562d60eb261491f9bce450f162cd93ff95996d2697069f02205de6b24bfc0b4d4bb07c91726b341e04455a7e63bae52fd4cbbb0831e404fd8201",
        "5221027b810ed8588a54c4ba5ae498a782a519e27b82c447ca04eb88a53d6be93a750d2102cf1fb72cc0333ccf22b3f4466f01132e5739c47e4bfab693b3d610c9260896b72103bcea41d64afb0752274a8a62026bde503a47a65e920c5cedfe4f3bdff7fcac8b53ae"
      ],
      "is_coinbase": false,
      "sequence": 4294967295,
      "inner_witnessscript_asm": "OP_PUSHNUM_2 OP_PUSHBYTES_33 027b810ed8588a54c4ba5ae498a782a519e27b82c447ca04eb88a53d6be93a750d OP_PUSHBYTES_33 02cf1fb72cc0333ccf22b3f4466f01132e5739c47e4bfab693b3d610c9260896b7 OP_PUSHBYTES_33 03bcea41d64afb0752274a8a62026bde503a47a65e920c5cedfe4f3bdff7fcac8b OP_PUSHNUM_3 OP_CHECKMULTISIG"
    },
    {
      "txid": "b8b9fa01e7df30fe6bd530228863a75a7b9460c34d4a7c5fff1b8db4ab098a44",
      "vout": 1,
      "prevout": {
        "scriptpubkey": "a914c62e61806be295779304e8a720b83666624bdb1f87",
        "scriptpubkey_asm": "OP_HASH160 OP_PUSHBYTES_20 c62e61806be295779304e8a720b83666624bdb1f OP_EQUAL",
        "scriptpubkey_type": "p2sh",
        "scriptpubkey_address": "3KkuH8DXLkxcmNtxdbVMwbjwGDWUUkUnZZ",
        "value": 651000
      },
      "scriptsig": "2200206080c56d9d095cb968a0218f59a5f644b4c5f14c18e145a07d9f2140f51ca8a5",
      "scriptsig_asm": "OP_PUSHBYTES_34 00206080c56d9d095cb968a0218f59a5f644b4c5f14c18e145a07d9f2140f51ca8a5",
      "witness": [
        "",
        "30440220217d81aabaec9a09354717737768437c5ee1d0a240b9b6c76e875fcbabaf895a02204dca833912ec27d7095cf3f6aea43ab4f3aaf4e8d947dc3ea1407903034a915b01",
        "304402206c22420554c0b82f32f7bc4d2a3167475c4d4d6865aef3e26b15d443eb69b32902204df6c153448afeb94a6101697a6b777734c65a1d2894c2f53660b7a8e0d6d28301",
        "5221036483f51d4586a81a2b732c3cccc036f271777eee306e7f270106e437ca5cf13e21034ae6d22fcb39ac6c80885bfcfa34fe3194cfb9711b5007411ee6a14517f81ca92102f7edb3350e2d6b0f88bf7d61530c95ff58a2e6c9bd66378140a5f09f18be720d53ae"
      ],
      "is_coinbase": false,
      "sequence": 4294967295,
      "inner_redeemscript_asm": "OP_0 OP_PUSHBYTES_32 6080c56d9d095cb968a0218f59a5f644b4c5f14c18e145a07d9f2140f51ca8a5",
      "inner_witnessscript_asm": "OP_PUSHNUM_2 OP_PUSHBYTES_33 036483f51d4586a81a2b732c3cccc036f271777eee306e7f270106e437ca5cf13e OP_PUSHBYTES_33 034ae6d22fcb39ac6c80885bfcfa34fe3194cfb9711b5007411ee6a14517f81ca9 OP_PUSHBYTES_33 02f7edb3350e2d6b0f88bf7d61530c95ff58a2e6c9bd66378140a5f09f18be720d OP_PUSHNUM_3 OP_CHECKMULTISIG"
    }
  ],
  "vout": [
    {
      "scriptpubkey": "00147a6d8a173d4f4eb54841ac2cdfb4c2518f133c16",
      "scriptpubkey_asm": "OP_0 OP_PUSHBYTES_20 7a6d8a173d4f4eb54841ac2cdfb4c2518f133c16",
      "scriptpubkey_type": "v0_p2wpkh",
      "scriptpubkey_address": "bc1q0fkc59eafa8t2jzp4skdldxz2x83x0qkc0ndup",
      "value": 764468
    },
    {
      "scriptpubkey": "00206ac451177fbd95cc9ae78af24bd13aa49f6c34e4ae0dfbcc55f623b82b527d7f",
      "scriptpubkey_asm": "OP_0 OP_PUSHBYTES_32 6ac451177fbd95cc9ae78af24bd13aa49f6c34e4ae0dfbcc55f623b82b527d7f",
      "scriptpubkey_type": "v0_p2wsh",
      "scriptpubkey_address": "bc1qdtz9z9mlhk2uexh83teyh5f65j0kcd8y4cxlhnz47c3ms26j04lsv5a98l",
      "value": 1314847
    }
  ],
  "size": 707,
  "weight": 1310,
  "fee": 3960,
  "status": {
    "confirmed": true,
    "block_height": 834460,
    "block_hash": "00000000000000000000484a79b643b2524bbce82e5d8a442013fa5b8905ed98",
    "block_time": 1710307468
  },
  "hex": "0100000000010228ed22391885512680c226b7f69d420877fe09fbc1e4b143c614bc241613b52a0100000000ffffffff448a09abb48d1bff5f7c4a4dc360947b5aa763882230d56bfe30dfe701fab9b801000000232200206080c56d9d095cb968a0218f59a5f644b4c5f14c18e145a07d9f2140f51ca8a5ffffffff0234aa0b00000000001600147a6d8a173d4f4eb54841ac2cdfb4c2518f133c161f101400000000002200206ac451177fbd95cc9ae78af24bd13aa49f6c34e4ae0dfbcc55f623b82b527d7f040047304402204c0f9b8cbbea2efd634abbe669bd7a11f9bb2dcaf3ad53ac9adc80ce35ba1f6602204327345fcc5c26d5076eb2cdd692776f163fc7e0f9f8f4846df92900d0fbe4b30147304402206de12669fbd9aa5c2f562d60eb261491f9bce450f162cd93ff95996d2697069f02205de6b24bfc0b4d4bb07c91726b341e04455a7e63bae52fd4cbbb0831e404fd8201695221027b810ed8588a54c4ba5ae498a782a519e27b82c447ca04eb88a53d6be93a750d2102cf1fb72cc0333ccf22b3f4466f01132e5739c47e4bfab693b3d610c9260896b72103bcea41d64afb0752274a8a62026bde503a47a65e920c5cedfe4f3bdff7fcac8b53ae04004730440220217d81aabaec9a09354717737768437c5ee1d0a240b9b6c76e875fcbabaf895a02204dca833912ec27d7095cf3f6aea43ab4f3aaf4e8d947dc3ea1407903034a915b0147304402206c22420554c0b82f32f7bc4d2a3167475c4d4d6865aef3e26b15d443eb69b32902204df6c153448afeb94a6101697a6b777734c65a1d2894c2f53660b7a8e0d6d28301695221036483f51d4586a81a2b732c3cccc036f271777eee306e7f270106e437ca5cf13e21034ae6d22fcb39ac6c80885bfcfa34fe3194cfb9711b5007411ee6a14517f81ca92102f7edb3350e2d6b0f88bf7d61530c95ff58a2e6c9bd66378140a5f09f18be720d53ae9abb0c00"
}