{
  "txid": "cd020024189b3b42e2b13943067ee52a0a5ec1cc500bcb0bd32e4d880ebca352",
  "version": 2,
  "locktime": 0,
  "vin": [
    {
      "txid": "291e914bfa2ea8ee021832efbe1d0311d049af4d8a6b85e09ce80153fb0a5ef1",
      "vout": 2,
      "prevout": {
        "scriptpubkey": "0014f9cdee9e7db820cad232ae177b403fbef06390ba",
        "scriptpubkey_asm": "OP_0 OP_PUSHBYTES_20 f9cdee9e7db820cad232ae177b403fbef06390ba",
        "scriptpubkey_type": "v0_p2wpkh",
        "scriptpubkey_address": "bc1ql8x7a8nahqsv453j4cthksplhmcx8y96m7spss",
        "value": 92415
      },
      "scriptsig": "",
      "scriptsig_asm": "",
      "witness": [
        "3045022100a2aec6ccd7b78602f9e0a07a3be6f79a06c49df0e6ccba411d4279ddb61b395702206cee282cc03885c60d57f4a7fa7da2be1a135cc5ebb9775fc8d12208d7dab41801",
        "023e5ae6da3993dcf8619f940ecaad7d1f5053e15b4674504fccc0177f5c0388c6"
      ],
      "is_coinbase": false,
      "sequence": 4294967295
    },
    {
      "txid": "5fb9da37ef94c180a1b6d9a352c6650282a75d13812de7dbe4b304201921a852",
      "vout": 5,
      "prevout": {
        "scriptpubkey": "0014f9cdee9e7db820cad232ae177b403fbef06390ba",
        "scriptpubkey_asm": "OP_0 OP_PUSHBYTES_20 f9cdee9e7db820cad232ae177b403fbef06390ba",
        "scriptpubkey_type": "v0_p2wpkh",
        "scriptpubkey_address": "bc1ql8x7a8nahqsv453j4cthksplhmcx8y96m7spss",
        "value": 40000
      },
      "scriptsig": "",
      "scriptsig_asm": "",
      "witness": [
        "3045022100fecdebab3b0e737cfc942e163e68e31b9ba8609aa55f8ce32fd5d44f58d1d77302200d258aee8fb03611fd82f197e549fc61c3fc45c55ac78580dfdb45c35d9b3b6301",
        "023e5ae6da3993dcf8619f940ecaad7d1f5053e15b4674504fccc0177f5c0388c6"
      ],
      "is_coinbase": false,
      "sequence": 4294967295
    }
  ],
  "vout": [
    {
      "scriptpubkey": "001423acd41eceadecd9306eadb9882d76963764704a",
      "scriptpubkey_asm": "OP_0 OP_PUSHBYTES_20 23acd41eceadecd9306eadb9882d76963764704a",
      "scriptpubkey_type": "v0_p2wpkh",
      "scriptpubkey_address": "bc1qywkdg8kw4hkdjvrw4kucsttkjcmkguz2k3z5ua",
      "value": 110000
    },
    {
      "scriptpubkey": "6a493d3a4b554a492e55534b3a6b756a69726131647a7a687330366635636c717979726a79377239776561356a777539377972773771306d61703a373238393539303637353a43533a3530",
      "scriptpubkey_asm": "OP_RETURN OP_PUSHBYTES_73 3d3a4b554a492e55534b3a6b756a69726131647a7a687330366635636c717979726a79377239776561356a777539377972773771306d61703a373238393539303637353a43533a3530",
      "scriptpubkey_type": "op_return",
      "value": 0
    },
    {
      "scriptpubkey": "0014f9cdee9e7db820cad232ae177b403fbef06390ba",
      "scriptpubkey_asm": "OP_0 OP_PUSHBYTES_20 f9cdee9e7db820cad232ae177b403fbef06390ba",
      "scriptpubkey_type": "v0_p2wpkh",
      "scriptpubkey_address": "bc1ql8x7a8nahqsv453j4cthksplhmcx8y96m7spss",
      "value": 19209
    }
  ],
  "size": 456,
  "weight": 1170,
  "fee": 3206,
  "status": {
    "confirmed": true,
    "block_height": 834464,
    "block_hash": "0000000000000000000177a0869a911a2b65c9bdcd5a8bcb02b68f305bee848e",
    "block_time": 1710308296
  },
  "hex": "02000000000102f15e0afb5301e89ce0856b8a4daf49d011031dbeef321802eea82efa4b911e290200000000ffffffff52a821192004b3e4dbe72d81135da7820265c652a3d9b6a180c194ef37dab95f0500000000ffffffff03b0ad01000000000016001423acd41eceadecd9306eadb9882d76963764704a00000000000000004b6a493d3a4b554a492e55534b3a6b756a69726131647a7a687330366635636c717979726a79377239776561356a777539377972773771306d61703a373238393539303637353a43533a3530094b000000000000160014f9cdee9e7db820cad232ae177b403fbef06390ba02483045022100a2aec6ccd7b78602f9e0a07a3be6f79a06c49df0e6ccba411d4279ddb61b395702206cee282cc03885c60d57f4a7fa7da2be1a135cc5ebb9775fc8d12208d7dab4180121023e5ae6da3993dcf8619f940ecaad7d1f5053e15b4674504fccc0177f5c0388c602483045022100fecdebab3b0e737cfc942e163e68e31b9ba8609aa55f8ce32fd5d44f58d1d77302200d258aee8fb03611fd82f197e549fc61c3fc45c55ac78580dfdb45c35d9b3b630121023e5ae6da3993dcf8619f940ecaad7d1f5053e15b4674504fccc0177f5c0388c600000000"
}