{
  "txid": "cd0fb3c38bfab2e68e32030e1661596a7c99445de845012119702ff713156095",
  "version": 2,
  "locktime": 0,
  "vin": [
    {
      "txid": "90b4f27bf68a7bde87bf2cc9ac063837b9d6aebae1976e510f2d1c0d4753fbfa",
      "vout": 1,
      "prevout": {
        "scriptpubkey": "0014bad355520b2e78a53c3555f97978d459c78e4fe5",
        "scriptpubkey_asm": "OP_0 OP_PUSHBYTES_20 bad355520b2e78a53c3555f97978d459c78e4fe5",
        "scriptpubkey_type": "v0_p2wpkh",
        "scriptpubkey_address": "bc1qhtf425st9eu220p42huhj7x5t8rcunl9ka3g39",
        "value": 6428756
      },
      "scriptsig": "",
      "scriptsig_asm": "",
      "witness": [
        "30440220334b4c38365a7610339420ab9b4def8c300c5fb2af8fa5375ac17b3afa90f00402200e6b9097b1a40d726f56a580116d518c18f112824fe5d589832e46c9e13ec9d101",
        "03e787912d56b38ac731bad6c348587579655e1067cf0378fd1cfde654dc506fb7"
      ],
      "is_coinbase": false,
      "sequence": 4294967295
    }
  ],
  "vout": [
    {
      "scriptpubkey": "001403405b1683afa2d69843655c5516eb3d9cabb7be",
      "scriptpubkey_asm": "OP_0 OP_PUSHBYTES_20 03405b1683afa2d69843655c5516eb3d9cabb7be",
      "scriptpubkey_type": "v0_p2wpkh",
      "scriptpubkey_address": "bc1qqdq9k95r473ddxzrv4w929ht8kw2hda7x9r0n5",
      "value": 6427524
    }
  ],
  "size": 191,
  "weight": 437,
  "fee": 1232,
  "status": {
    "confirmed": true,
    "block_height": 834460,
    "block_hash": "00000000000000000000484a79b643b2524bbce82e5d8a442013fa5b8905ed98",
    "block_time": 1710307468
  },
  "hex": "02000000000101fafb53470d1c2d0f516e97e1baaed6b9373806acc92cbf87de7b8af67bf2b4900100000000ffffffff01841362000000000016001403405b1683afa2d69843655c5516eb3d9cabb7be024730440220334b4c38365a7610339420ab9b4def8c300c5fb2af8fa5375ac17b3afa90f00402200e6b9097b1a40d726f56a580116d518c18f112824fe5d589832e46c9e13ec9d1012103e787912d56b38ac731bad6c348587579655e1067cf0378fd1cfde654dc506fb700000000"
}