{
  "txid": "cd122821ac60bfbe6414372ea6222629aea084875647824ef2962fbe9e9e008c",
  "version": 2,
  "locktime": 0,
  "vin": [
    {
      "txid": "3f69fae8ca9bdd774ca5294e86509449f431bb44e2206cae9f7f495b7952d9e2",
      "vout": 20,
      "prevout": {
        "scriptpubkey": "5120284b2af0bf51fd58371028960e5aae34cf7984e358da38660d6f8855ec59ed95",
        "scriptpubkey_asm": "OP_PUSHNUM_1 OP_PUSHBYTES_32 284b2af0bf51fd58371028960e5aae34cf7984e358da38660d6f8855ec59ed95",
        "scriptpubkey_type": "v1_p2tr",
        "scriptpubkey_address": "bc1p9p9j4u9l2874sdcs9ztquk4wxn8hnp8rtrdrsesdd7y9tmzeak2sue22e5",
        "value": 2996
      },
      "scriptsig": "",
      "scriptsig_asm": "",
      "witness": [
        "a6d6c97f952ea5825f20b2cd1f0996af0752a54416fc2cfc7ef2bbacc702ef99e011f80c17c6582616ced110ad987ef7f1d099709c40f8aec5d3d3ab7e5e1d9b",
        "2092f453b5204d293f65fdfccea5d3b5dc501ffab4527eb86ca864560abeafdc3aac0063036f726401011e6170706c69636174696f6e2f6a736f6e3b636861727365743d7574662d38004cb77b2270223a22706f772d3230222c226f70223a226d696e74222c227469636b223a2250455045222c22616d74223a2231303030222c22736f6c7574696f6e223a22504550453a334d524d3246744a42504c46315958564766504d33656556746675364446734762623a303030303030303030303030303030303030303139393431613561653132383937363539383134343239323533333030353762306461393666336465613163353a3430303536363034363736227d68",
        "c06b70a06f37e9fa1ff7e7bec8bd1210228b25051d0c17b5264cdd8c73b544f454"
      ],
      "is_coinbase": false,
      "sequence": 4294967295
    }
  ],
  "vout": [
    {
      "scriptpubkey": "a914d86bcd8c487ad519e95c6557e7463d579cce14a287",
      "scriptpubkey_asm": "OP_HASH160 OP_PUSHBYTES_20 d86bcd8c487ad519e95c6557e7463d579cce14a2 OP_EQUAL",
      "scriptpubkey_type": "p2sh",
      "scriptpubkey_address": "3MRM2FtJBPLF1YXVGfPM3eeVtfu6DFsGbb",
      "value": 546
    }
  ],
  "size": 448,
  "weight": 697,
  "fee": 2450,
  "status": {
    "confirmed": true,
    "block_height": 834460,
    "block_hash": "00000000000000000000484a79b643b2524bbce82e5d8a442013fa5b8905ed98",
    "block_time": 1710307468
  },
  "hex": "02000000000101e2d952795b497f9fae6c20e244bb31f4499450864e29a54c77dd9bcae8fa693f1400000000ffffffff01220200000000000017a914d86bcd8c487ad519e95c6557e7463d579cce14a2870340a6d6c97f952ea5825f20b2cd1f0996af0752a54416fc2cfc7ef2bbacc702ef99e011f80c17c6582616ced110ad987ef7f1d099709c40f8aec5d3d3ab7e5e1d9bfd04012092f453b5204d293f65fdfccea5d3b5dc501ffab4527eb86ca864560abeafdc3aac0063036f726401011e6170706c69636174696f6e2f6a736f6e3b636861727365743d7574662d38004cb77b2270223a22706f772d3230222c226f70223a226d696e74222c227469636b223a2250455045222c22616d74223a2231303030222c22736f6c7574696f6e223a22504550453a334d524d3246744a42504c46315958564766504d33656556746675364446734762623a303030303030303030303030303030303030303139393431613561653132383937363539383134343239323533333030353762306461393666336465613163353a3430303536363034363736227d6821c06b70a06f37e9fa1ff7e7bec8bd1210228b25051d0c17b5264cdd8c73b544f45400000000"
}