{
  "txid": "cd12ba33baeb21153b476fc10aa9100f795644e4d378f3151d4424e628d25a08",
  "version": 2,
  "locktime": 0,
  "vin": [
    {
      "txid": "9c4de8640a4e65834b32135799221133b65078699a325a0af37a00d1ec9c73f6",
      "vout": 5,
      "prevout": {
        "scriptpubkey": "76a91400cb82d220e12aa2d4fdf0d8917aee4fd495eff288ac",
        "scriptpubkey_asm": "OP_DUP OP_HASH160 OP_PUSHBYTES_20 00cb82d220e12aa2d4fdf0d8917aee4fd495eff2 OP_EQUALVERIFY OP_CHECKSIG",
        "scriptpubkey_type": "p2pkh",
        "scriptpubkey_address": "115CoCDsSFG7bja6M3TkNNPQKy9fY8nLxh",
        "value": 134300
      },
      "scriptsig": "47304402203326e403dbbd9201e882f5407ea7dd6918db4d28a96b4c3cfa8f6dc99dfcc46802202b4a131f57ecda6446a530fae8549591252416482dcf1439b52e44dac7aeb8100121033ecb8ebb583a69f8ba3e77fffad8b6eaad1f32ffe388803478af1fc1817e01fe",
      "scriptsig_asm": "OP_PUSHBYTES_71 304402203326e403dbbd9201e882f5407ea7dd6918db4d28a96b4c3cfa8f6dc99dfcc46802202b4a131f57ecda6446a530fae8549591252416482dcf1439b52e44dac7aeb81001 OP_PUSHBYTES_33 033ecb8ebb583a69f8ba3e77fffad8b6eaad1f32ffe388803478af1fc1817e01fe",
      "is_coinbase": false,
      "sequence": 4294967295
    }
  ],
  "vout": [
    {
      "scriptpubkey": "001446dffaa3e6982dc97cb91f1ea5fb8da594ed9f24",
      "scriptpubkey_asm": "OP_0 OP_PUSHBYTES_20 46dffaa3e6982dc97cb91f1ea5fb8da594ed9f24",
      "scriptpubkey_type": "v0_p2wpkh",
      "scriptpubkey_address": "bc1qgm0l4glxnqkujl9eru02t7ud5k2wm8ey3gz77g",
      "value": 131419
    }
  ],
  "size": 188,
  "weight": 752,
  "fee": 2881,
  "status": {
    "confirmed": true,
    "block_height": 834552,
    "block_hash": "00000000000000000001dd0468a70c94f619251d286585cff57aeb4bd9ede330",
    "block_time": 1710355598
  },
  "hex": "0200000001f6739cecd1007af30a5a329a697850b6331122995713324b83654e0a64e84d9c050000006a47304402203326e403dbbd9201e882f5407ea7dd6918db4d28a96b4c3cfa8f6dc99dfcc46802202b4a131f57ecda6446a530fae8549591252416482dcf1439b52e44dac7aeb8100121033ecb8ebb583a69f8ba3e77fffad8b6eaad1f32ffe388803478af1fc1817e01feffffffff015b0102000000000016001446dffaa3e6982dc97cb91f1ea5fb8da594ed9f2400000000"
}