{
  "txid": "cd2a8466cb8279dad96eae14ef42b075ea97d520df7b0afecffe0bb7f1728417",
  "version": 1,
  "locktime": 0,
  "vin": [
    {
      "txid": "121c42883dfdebeb9f4ef8dbb0f7e45bca7ad68a229f602f9a5df6671d0fa517",
      "vout": 0,
      "prevout": {
        "scriptpubkey": "76a914a520c86a08366941cd90d22e11ac1c7eefa2db3788ac",
        "scriptpubkey_asm": "OP_DUP OP_HASH160 OP_PUSHBYTES_20 a520c86a08366941cd90d22e11ac1c7eefa2db37 OP_EQUALVERIFY OP_CHECKSIG",
        "scriptpubkey_type": "p2pkh",
        "scriptpubkey_address": "1G47mSr3oANXMafVrR8UC4pzV7FEAzo3r9",
        "value": 793431
      },
      "scriptsig": "483045022100d2515955768602503a4eaac025c74e0acf8cde61c91d82c95137d439ab337d1302206245c54693acd868926821dcd346dedc462c4fb136cfee86a68d8974a25572e9012103f3f44c9e80e2cedc1a2909631a3adea8866ee32187f74d0912387359b0ff36a2",
      "scriptsig_asm": "OP_PUSHBYTES_72 3045022100d2515955768602503a4eaac025c74e0acf8cde61c91d82c95137d439ab337d1302206245c54693acd868926821dcd346dedc462c4fb136cfee86a68d8974a25572e901 OP_PUSHBYTES_33 03f3f44c9e80e2cedc1a2909631a3adea8866ee32187f74d0912387359b0ff36a2",
      "is_coinbase": false,
      "sequence": 0
    }
  ],
  "vout": [
    {
      "scriptpubkey": "512062f1a4527c507d94601b4197d5b37dccfdbdb287e731b61b8219af4cc7ada4e5",
      "scriptpubkey_asm": "OP_PUSHNUM_1 OP_PUSHBYTES_32 62f1a4527c507d94601b4197d5b37dccfdbdb287e731b61b8219af4cc7ada4e5",
      "scriptpubkey_type": "v1_p2tr",
      "scriptpubkey_address": "bc1pvtc6g5nu2p7egcqmgxtatvmaen7mmv58uucmvxuzrxh5e3ad5njswu6a9w",
      "value": 546
    },
    {
      "scriptpubkey": "51208174e3595fd28a034b9d3ec77161eef7a1c645b7d853a1d9a24c0f4ce0a80f69",
      "scriptpubkey_asm": "OP_PUSHNUM_1 OP_PUSHBYTES_32 8174e3595fd28a034b9d3ec77161eef7a1c645b7d853a1d9a24c0f4ce0a80f69",
      "scriptpubkey_type": "v1_p2tr",
      "scriptpubkey_address": "bc1ps96wxk2l629qxjua8mrhzc0w77suv3dhmpf6rkdzfs85ec9gpa5s8py2ra",
      "value": 546
    },
    {
      "scriptpubkey": "5120b5ba8a3bd07da02782a00426d92b3f314f6cb2ea5a3b46e708064a020c796ac7",
      "scriptpubkey_asm": "OP_PUSHNUM_1 OP_PUSHBYTES_32 b5ba8a3bd07da02782a00426d92b3f314f6cb2ea5a3b46e708064a020c796ac7",
      "scriptpubkey_type": "v1_p2tr",
      "scriptpubkey_address": "bc1pkkag5w7s0ksz0q4qqsndj2elx98kevh2tga5decgqe9qyrredtrs39e5r4",
      "value": 546
    },
    {
      "scriptpubkey": "51201e7127ecd60f8d21352b12aa21c5304150a2a5bef2db16378e68b192333eb967",
      "scriptpubkey_asm": "OP_PUSHNUM_1 OP_PUSHBYTES_32 1e7127ecd60f8d21352b12aa21c5304150a2a5bef2db16378e68b192333eb967",
      "scriptpubkey_type": "v1_p2tr",
      "scriptpubkey_address": "bc1precj0mxkp7xjzdftz24zr3fsg9g29fd77td3vduwdzceyve7h9nst3ap7x",
      "value": 546
    },
    {
      "scriptpubkey": "76a914a520c86a08366941cd90d22e11ac1c7eefa2db3788ac",
      "scriptpubkey_asm": "OP_DUP OP_HASH160 OP_PUSHBYTES_20 a520c86a08366941cd90d22e11ac1c7eefa2db37 OP_EQUALVERIFY OP_CHECKSIG",
      "scriptpubkey_type": "p2pkh",
      "scriptpubkey_address": "1G47mSr3oANXMafVrR8UC4pzV7FEAzo3r9",
      "value": 782747
    }
  ],
  "size": 364,
  "weight": 1456,
  "fee": 8500,
  "status": {
    "confirmed": true,
    "block_height": 834460,
    "block_hash": "00000000000000000000484a79b643b2524bbce82e5d8a442013fa5b8905ed98",
    "block_time": 1710307468
  },
  "hex": "010000000117a50f1d67f65d9a2f609f228ad67aca5be4f7b0dbf84e9febebfd3d88421c12000000006b483045022100d2515955768602503a4eaac025c74e0acf8cde61c91d82c95137d439ab337d1302206245c54693acd868926821dcd346dedc462c4fb136cfee86a68d8974a25572e9012103f3f44c9e80e2cedc1a2909631a3adea8866ee32187f74d0912387359b0ff36a20000000005220200000000000022512062f1a4527c507d94601b4197d5b37dccfdbdb287e731b61b8219af4cc7ada4e522020000000000002251208174e3595fd28a034b9d3ec77161eef7a1c645b7d853a1d9a24c0f4ce0a80f692202000000000000225120b5ba8a3bd07da02782a00426d92b3f314f6cb2ea5a3b46e708064a020c796ac722020000000000002251201e7127ecd60f8d21352b12aa21c5304150a2a5bef2db16378e68b192333eb9679bf10b00000000001976a914a520c86a08366941cd90d22e11ac1c7eefa2db3788ac00000000"
}