{
  "txid": "cd36424db073bb00782bfaf8c2f334b7c6270f97d7bc4423b537fe27e5092bc2",
  "version": 2,
  "locktime": 0,
  "vin": [
    {
      "txid": "acc3ba00869acb582a3f2904ce3a11dd3779350ce234063fc7d0959246213364",
      "vout": 83,
      "prevout": {
        "scriptpubkey": "5120bfa3cfd02f9fc822e1d27d7d245564b95d058d1c45d36163a437bb9044f82390",
        "scriptpubkey_asm": "OP_PUSHNUM_1 OP_PUSHBYTES_32 bfa3cfd02f9fc822e1d27d7d245564b95d058d1c45d36163a437bb9044f82390",
        "scriptpubkey_type": "v1_p2tr",
        "scriptpubkey_address": "bc1ph73ul5p0nlyz9cwj047jg4tyh9wstrgughfkzcayx7aeq38cywgqc0c267",
        "value": 1806
      },
      "scriptsig": "",
      "scriptsig_asm": "",
      "witness": [
        "79b0fb84abee755be4ee17bb9ae338705be045a1551cec1cd8c264f2e966d798209f4b397a01de0f1ae55da89bf1b42d114a31b29fca976aef1e333af188c711",
        "208085bb3a9ff945b1997d17e65bca1308324827ef3e37a1fdd3110208bb8b9c9dac0063036f726401010a746578742f706c61696e00357b2270223a226272632d3230222c226f70223a226d696e74222c227469636b223a22646f6765222c22616d74223a2234323030227d68",
        "c08085bb3a9ff945b1997d17e65bca1308324827ef3e37a1fdd3110208bb8b9c9d"
      ],
      "is_coinbase": false,
      "sequence": 4261412863
    }
  ],
  "vout": [
    {
      "scriptpubkey": "00147a665de7a370f4c9b372ab1fae587500a5bcbdb4",
      "scriptpubkey_asm": "OP_0 OP_PUSHBYTES_20 7a665de7a370f4c9b372ab1fae587500a5bcbdb4",
      "scriptpubkey_type": "v0_p2wpkh",
      "scriptpubkey_address": "bc1q0fn9mearwr6vnvmj4v06ukr4qzjme0d565dzcx",
      "value": 294
    }
  ],
  "size": 294,
  "weight": 540,
  "fee": 1512,
  "status": {
    "confirmed": true,
    "block_height": 834460,
    "block_hash": "00000000000000000000484a79b643b2524bbce82e5d8a442013fa5b8905ed98",
    "block_time": 1710307468
  },
  "hex": "02000000000101643321469295d0c73f0634e20c357937dd113ace04293f2a58cb9a8600bac3ac5300000000fffffffd0126010000000000001600147a665de7a370f4c9b372ab1fae587500a5bcbdb4034079b0fb84abee755be4ee17bb9ae338705be045a1551cec1cd8c264f2e966d798209f4b397a01de0f1ae55da89bf1b42d114a31b29fca976aef1e333af188c7116d208085bb3a9ff945b1997d17e65bca1308324827ef3e37a1fdd3110208bb8b9c9dac0063036f726401010a746578742f706c61696e00357b2270223a226272632d3230222c226f70223a226d696e74222c227469636b223a22646f6765222c22616d74223a2234323030227d6821c08085bb3a9ff945b1997d17e65bca1308324827ef3e37a1fdd3110208bb8b9c9d00000000"
}