{
  "txid": "cd390b3b760c981be2b472cc7bca1af1efe641820075fb5c93e680a621e05146",
  "version": 1,
  "locktime": 0,
  "vin": [
    {
      "txid": "2d7418a0ce26dbe73df0676dafb935e577588c73fbd42db7077e82102fd405c0",
      "vout": 1,
      "prevout": {
        "scriptpubkey": "0014f610c8f95d5f3c44b1f28a0c8b053833fbf6cfd4",
        "scriptpubkey_asm": "OP_0 OP_PUSHBYTES_20 f610c8f95d5f3c44b1f28a0c8b053833fbf6cfd4",
        "scriptpubkey_type": "v0_p2wpkh",
        "scriptpubkey_address": "bc1q7cgv372atu7yfv0j3gxgkpfcx0aldn75c0eusv",
        "value": 1100960
      },
      "scriptsig": "",
      "scriptsig_asm": "",
      "witness": [
        "304402202daa2f851b524658706ca25604736d0074e6e0e23d635b2b9154fcc79a5487e302201d47a892833a31210ecae7924f21ed5ec1d1e9c97f147bc29264afee73e57ade01",
        "027d891ac52af68a5a90b170a4e624549adac9201482e3467a4dab1d9a26aaccb6"
      ],
      "is_coinbase": false,
      "sequence": 4294967295
    }
  ],
  "vout": [
    {
      "scriptpubkey": "76a9142e86e192ddaed81b79253094eb6f9db9c4e0f0e388ac",
      "scriptpubkey_asm": "OP_DUP OP_HASH160 OP_PUSHBYTES_20 2e86e192ddaed81b79253094eb6f9db9c4e0f0e3 OP_EQUALVERIFY OP_CHECKSIG",
      "scriptpubkey_type": "p2pkh",
      "scriptpubkey_address": "15F1fXmxoUXJc9APK3jnDQtPQUdzCk3F66",
      "value": 69462
    },
    {
      "scriptpubkey": "00146cf10fe9928c1aa58a5694f913fecb05132df2eb",
      "scriptpubkey_asm": "OP_0 OP_PUSHBYTES_20 6cf10fe9928c1aa58a5694f913fecb05132df2eb",
      "scriptpubkey_type": "v0_p2wpkh",
      "scriptpubkey_address": "bc1qdncsl6vj3sd2tzjkjnu38lktq5fjmuht92f9eu",
      "value": 1027786
    }
  ],
  "size": 225,
  "weight": 573,
  "fee": 3712,
  "status": {
    "confirmed": true,
    "block_height": 834638,
    "block_hash": "000000000000000000025f742c626208ac87e0b7d15054abb4a19ca2d735a54e",
    "block_time": 1710405325
  },
  "hex": "01000000000101c005d42f10827e07b72dd4fb738c5877e535b9af6d67f03de7db26cea018742d0100000000ffffffff02560f0100000000001976a9142e86e192ddaed81b79253094eb6f9db9c4e0f0e388accaae0f00000000001600146cf10fe9928c1aa58a5694f913fecb05132df2eb0247304402202daa2f851b524658706ca25604736d0074e6e0e23d635b2b9154fcc79a5487e302201d47a892833a31210ecae7924f21ed5ec1d1e9c97f147bc29264afee73e57ade0121027d891ac52af68a5a90b170a4e624549adac9201482e3467a4dab1d9a26aaccb600000000"
}