{
  "txid": "cd6d52d0ba3d51ca9bdefcf43bf343b20a588c8e1d79c8bb075ca88cc020f3c4",
  "version": 2,
  "locktime": 0,
  "vin": [
    {
      "txid": "6f80853690f33272a6527660313ad53666504cccc2be2b38dc82a1cf5cf3a9f1",
      "vout": 0,
      "prevout": {
        "scriptpubkey": "0020fb0567899510f3646965cd9579cb7cfd6f351e41e3ffd6cf169b387666b61047",
        "scriptpubkey_asm": "OP_0 OP_PUSHBYTES_32 fb0567899510f3646965cd9579cb7cfd6f351e41e3ffd6cf169b387666b61047",
        "scriptpubkey_type": "v0_p2wsh",
        "scriptpubkey_address": "bc1qlvzk0zv4zrekg6t9ek2hnjmul4hn28jpu0ladncknvu8ve4kzprspcs5jy",
        "value": 66276
      },
      "scriptsig": "",
      "scriptsig_asm": "",
      "witness": [
        "",
        "3044022041cc920ff96eedd2cc86b42a7aaf1b25a9d4919ca089c858195a3d0f37dce69f0220409e05660049ebf3f916ddf434ab08ffe708846702ac05e2d03934fa1b230c3d01",
        "304402202eed92cb1e19b5399517af1343c97764f714ab3bce86490cdc2ce9a11b4c18bd0220144e02272d6edbf265b6b09e0073c6e1c83db9d63705520099511b131ce0afbb01",
        "522102e802a2008ce51881d748c6ee7b6c715661763cbaa026e3b6d540027aaaf0a34121030438b8dc4275dd9473734ba3f308379849f466f09ee54fe1b06f23d8358cf4b6210350b24080db8c7f854cdf9ef84e1c17c1754d9aa2d20e8801961c807c0b9658ca53ae"
      ],
      "is_coinbase": false,
      "sequence": 4294967295,
      "inner_witnessscript_asm": "OP_PUSHNUM_2 OP_PUSHBYTES_33 02e802a2008ce51881d748c6ee7b6c715661763cbaa026e3b6d540027aaaf0a341 OP_PUSHBYTES_33 030438b8dc4275dd9473734ba3f308379849f466f09ee54fe1b06f23d8358cf4b6 OP_PUSHBYTES_33 0350b24080db8c7f854cdf9ef84e1c17c1754d9aa2d20e8801961c807c0b9658ca OP_PUSHNUM_3 OP_CHECKMULTISIG"
    },
    {
      "txid": "3f4e2630a7000d3a58abeb4f06fac9e3add9bfdfb6dbe89a1810a06960b793c7",
      "vout": 0,
      "prevout": {
        "scriptpubkey": "0020fb0567899510f3646965cd9579cb7cfd6f351e41e3ffd6cf169b387666b61047",
        "scriptpubkey_asm": "OP_0 OP_PUSHBYTES_32 fb0567899510f3646965cd9579cb7cfd6f351e41e3ffd6cf169b387666b61047",
        "scriptpubkey_type": "v0_p2wsh",
        "scriptpubkey_address": "bc1qlvzk0zv4zrekg6t9ek2hnjmul4hn28jpu0ladncknvu8ve4kzprspcs5jy",
        "value": 34005
      },
      "scriptsig": "",
      "scriptsig_asm": "",
      "witness": [
        "",
        "3045022100f03350116269abab5be6c70bfe6869171769ab39bb8d97c579a4ae9a15d062da02206139e7f8da3bd54829a330a00d9783fe6ff6f0281fd04b1bfb980d4389a1c39d01",
        "3045022100e66180cabd50b1a305ffdda6873113c4066821fde247ab8a5cabd09af2178a53022046c4781b48611dbbd7ae31d5dce5c7fcad267e6e79b0755f4fda7eb91da75fa501",
        "522102e802a2008ce51881d748c6ee7b6c715661763cbaa026e3b6d540027aaaf0a34121030438b8dc4275dd9473734ba3f308379849f466f09ee54fe1b06f23d8358cf4b6210350b24080db8c7f854cdf9ef84e1c17c1754d9aa2d20e8801961c807c0b9658ca53ae"
      ],
      "is_coinbase": false,
      "sequence": 4294967295,
      "inner_witnessscript_asm": "OP_PUSHNUM_2 OP_PUSHBYTES_33 02e802a2008ce51881d748c6ee7b6c715661763cbaa026e3b6d540027aaaf0a341 OP_PUSHBYTES_33 030438b8dc4275dd9473734ba3f308379849f466f09ee54fe1b06f23d8358cf4b6 OP_PUSHBYTES_33 0350b24080db8c7f854cdf9ef84e1c17c1754d9aa2d20e8801961c807c0b9658ca OP_PUSHNUM_3 OP_CHECKMULTISIG"
    },
    {
      "txid": "41e4f914ead426a0962e02e652deb5cb57cc02b77d3b0331a97513f432005221",
      "vout": 1,
      "prevout": {
        "scriptpubkey": "00205e5502e3343afce0db53ca8c46b501137057f31b2923b59f2c5ee232466bef72",
        "scriptpubkey_asm": "OP_0 OP_PUSHBYTES_32 5e5502e3343afce0db53ca8c46b501137057f31b2923b59f2c5ee232466bef72",
        "scriptpubkey_type": "v0_p2wsh",
        "scriptpubkey_address": "bc1qte2s9ce58t7wpk6ne2xyddgpzdc90ucm9y3mt8evtm3ry3ntaaeqc6mwm0",
        "value": 3603
      },
      "scriptsig": "",
      "scriptsig_asm": "",
      "witness": [
        "",
        "3044022056bec07fe528d8bda3309cc8870ce39c184af5bf75497894d50eb511e12483b102201e82612663fb3f8540f6622b69ff8df5f0523d746d21294acfdec4b22b929bf501",
        "3045022100acfff3bc9ad932346acd37e7a643592c130454b2f3517fcdba12cca5f279ad1302201746720af02d9b16e01a0eee6729e5acfc82462bc613a1cb983de14be4f111fa01",
        "5221021e7dddbdba0753a49eb677697b7ceb289a380fc1ed4ae54c7e7435d0eed2a7882103747ffa94790d2a2abd031289a05f0b4883d2e988f6515cf70e12f6c49abfb4c22103ef7b515c6a1a9d2e5bb8c9af7976329cfc5396aa4f42adadaaa8df26fec16fad53ae"
      ],
      "is_coinbase": false,
      "sequence": 4294967295,
      "inner_witnessscript_asm": "OP_PUSHNUM_2 OP_PUSHBYTES_33 021e7dddbdba0753a49eb677697b7ceb289a380fc1ed4ae54c7e7435d0eed2a788 OP_PUSHBYTES_33 03747ffa94790d2a2abd031289a05f0b4883d2e988f6515cf70e12f6c49abfb4c2 OP_PUSHBYTES_33 03ef7b515c6a1a9d2e5bb8c9af7976329cfc5396aa4f42adadaaa8df26fec16fad OP_PUSHNUM_3 OP_CHECKMULTISIG"
    }
  ],
  "vout": [
    {
      "scriptpubkey": "0014b39faebb945da16bd2ebec8ae346bc8382eaa014",
      "scriptpubkey_asm": "OP_0 OP_PUSHBYTES_20 b39faebb945da16bd2ebec8ae346bc8382eaa014",
      "scriptpubkey_type": "v0_p2wpkh",
      "scriptpubkey_address": "bc1qkw06awu5tkskh5htaj9wx34uswpw4gq5zqgm8e",
      "value": 100000
    }
  ],
  "size": 925,
  "weight": 1417,
  "fee": 3884,
  "status": {
    "confirmed": true,
    "block_height": 834464,
    "block_hash": "0000000000000000000177a0869a911a2b65c9bdcd5a8bcb02b68f305bee848e",
    "block_time": 1710308296
  },
  "hex": "02000000000103f1a9f35ccfa182dc382bbec2cc4c506636d53a31607652a67232f3903685806f0000000000ffffffffc793b76069a010189ae8dbb6dfbfd9ade3c9fa064febab583a0d00a730264e3f0000000000ffffffff21520032f41375a931033b7db702cc57cbb5de52e6022e96a026d4ea14f9e4410100000000ffffffff01a086010000000000160014b39faebb945da16bd2ebec8ae346bc8382eaa0140400473044022041cc920ff96eedd2cc86b42a7aaf1b25a9d4919ca089c858195a3d0f37dce69f0220409e05660049ebf3f916ddf434ab08ffe708846702ac05e2d03934fa1b230c3d0147304402202eed92cb1e19b5399517af1343c97764f714ab3bce86490cdc2ce9a11b4c18bd0220144e02272d6edbf265b6b09e0073c6e1c83db9d63705520099511b131ce0afbb0169522102e802a2008ce51881d748c6ee7b6c715661763cbaa026e3b6d540027aaaf0a34121030438b8dc4275dd9473734ba3f308379849f466f09ee54fe1b06f23d8358cf4b6210350b24080db8c7f854cdf9ef84e1c17c1754d9aa2d20e8801961c807c0b9658ca53ae0400483045022100f03350116269abab5be6c70bfe6869171769ab39bb8d97c579a4ae9a15d062da02206139e7f8da3bd54829a330a00d9783fe6ff6f0281fd04b1bfb980d4389a1c39d01483045022100e66180cabd50b1a305ffdda6873113c4066821fde247ab8a5cabd09af2178a53022046c4781b48611dbbd7ae31d5dce5c7fcad267e6e79b0755f4fda7eb91da75fa50169522102e802a2008ce51881d748c6ee7b6c715661763cbaa026e3b6d540027aaaf0a34121030438b8dc4275dd9473734ba3f308379849f466f09ee54fe1b06f23d8358cf4b6210350b24080db8c7f854cdf9ef84e1c17c1754d9aa2d20e8801961c807c0b9658ca53ae0400473044022056bec07fe528d8bda3309cc8870ce39c184af5bf75497894d50eb511e12483b102201e82612663fb3f8540f6622b69ff8df5f0523d746d21294acfdec4b22b929bf501483045022100acfff3bc9ad932346acd37e7a643592c130454b2f3517fcdba12cca5f279ad1302201746720af02d9b16e01a0eee6729e5acfc82462bc613a1cb983de14be4f111fa01695221021e7dddbdba0753a49eb677697b7ceb289a380fc1ed4ae54c7e7435d0eed2a7882103747ffa94790d2a2abd031289a05f0b4883d2e988f6515cf70e12f6c49abfb4c22103ef7b515c6a1a9d2e5bb8c9af7976329cfc5396aa4f42adadaaa8df26fec16fad53ae00000000"
}