{
  "txid": "cd755ee383e30efdbf74e7cd9c5b418a9501b9e4cc74a3c568a5b61854179a24",
  "version": 2,
  "locktime": 0,
  "vin": [
    {
      "txid": "e60d01f1eeee2dbec06ec3a8d448424ca93ea4dcefc453871fc404580cc03558",
      "vout": 1,
      "prevout": {
        "scriptpubkey": "51207c7ecf900351048a16271b054d4b6a6bb55199889030ab4d326d71e19a320cc2",
        "scriptpubkey_asm": "OP_PUSHNUM_1 OP_PUSHBYTES_32 7c7ecf900351048a16271b054d4b6a6bb55199889030ab4d326d71e19a320cc2",
        "scriptpubkey_type": "v1_p2tr",
        "scriptpubkey_address": "bc1p03lvlyqr2yzg5938rvz56jm2dw64rxvgjqc2knfjd4c7rx3jpnpqf3ssmh",
        "value": 2646
      },
      "scriptsig": "",
      "scriptsig_asm": "",
      "witness": [
        "579c6bc37db227b0b5f6dc9e67ab9dab33d7007d4356393ec4044b467b02ba5ba7abf2abcddaa59fdbcab24c3b7a88dc81c3f39dbca6b68c00efc0e9ad8e1929",
        "20fd623d9b4c0b58a68121a0afb68ee2eeefc2b114ce9349c439ea23731b056fe2ac0063036f726401011e6170706c69636174696f6e2f6a736f6e3b636861727365743d7574662d38004cb77b2270223a22706f772d3230222c226f70223a226d696e74222c227469636b223a2250455045222c22616d74223a2231303030222c22736f6c7574696f6e223a22504550453a3351345a614567486177466561585773437a6d775a743766465543593771377759703a303030303030303030303030303030303030303139393431613561653132383937363539383134343239323533333030353762306461393666336465613163353a3438303935323734363431227d68",
        "c08db7ab6533b96c0773861c29df1705bf8b1dfa6577ecaa232ec7cdccd60ed417"
      ],
      "is_coinbase": false,
      "sequence": 4294967295
    }
  ],
  "vout": [
    {
      "scriptpubkey": "a914f565ec243898a586d6342e6d91e39b804127827787",
      "scriptpubkey_asm": "OP_HASH160 OP_PUSHBYTES_20 f565ec243898a586d6342e6d91e39b8041278277 OP_EQUAL",
      "scriptpubkey_type": "p2sh",
      "scriptpubkey_address": "3Q4ZaEgHawFeaXWsCzmwZt7fFUCY7q7wYp",
      "value": 546
    }
  ],
  "size": 448,
  "weight": 697,
  "fee": 2100,
  "status": {
    "confirmed": true,
    "block_height": 834460,
    "block_hash": "00000000000000000000484a79b643b2524bbce82e5d8a442013fa5b8905ed98",
    "block_time": 1710307468
  },
  "hex": "020000000001015835c00c5804c41f8753c4efdca43ea94c4248d4a8c36ec0be2deeeef1010de60100000000ffffffff01220200000000000017a914f565ec243898a586d6342e6d91e39b8041278277870340579c6bc37db227b0b5f6dc9e67ab9dab33d7007d4356393ec4044b467b02ba5ba7abf2abcddaa59fdbcab24c3b7a88dc81c3f39dbca6b68c00efc0e9ad8e1929fd040120fd623d9b4c0b58a68121a0afb68ee2eeefc2b114ce9349c439ea23731b056fe2ac0063036f726401011e6170706c69636174696f6e2f6a736f6e3b636861727365743d7574662d38004cb77b2270223a22706f772d3230222c226f70223a226d696e74222c227469636b223a2250455045222c22616d74223a2231303030222c22736f6c7574696f6e223a22504550453a3351345a614567486177466561585773437a6d775a743766465543593771377759703a303030303030303030303030303030303030303139393431613561653132383937363539383134343239323533333030353762306461393666336465613163353a3438303935323734363431227d6821c08db7ab6533b96c0773861c29df1705bf8b1dfa6577ecaa232ec7cdccd60ed41700000000"
}