{
  "txid": "cd820ddfcea985d1eecbcf48f4139e934bccd849fb1a1f1a225908f1be097ba6",
  "version": 1,
  "locktime": 0,
  "vin": [
    {
      "txid": "9a266e6acf0579e11160ea33ccbef567df6f32bc3fa569a3ba04ba0d660a49d6",
      "vout": 1,
      "prevout": {
        "scriptpubkey": "00207250d91085a77a4568fa4cfd5bebb59f0b9cb3530f8154cd4fab6d28abd548fe",
        "scriptpubkey_asm": "OP_0 OP_PUSHBYTES_32 7250d91085a77a4568fa4cfd5bebb59f0b9cb3530f8154cd4fab6d28abd548fe",
        "scriptpubkey_type": "v0_p2wsh",
        "scriptpubkey_address": "bc1qwfgdjyy95aay2686fn74h6a4nu9eev6np7q4fn204dkj3274frlqrskvx0",
        "value": 120796458
      },
      "scriptsig": "",
      "scriptsig_asm": "",
      "witness": [
        "",
        "3045022100c7c6b8daba3aefd0e1ca852b51157db411d3cda44114be616a98621b195e8d4e02204963525a3e572bc29312e840a61fdb9f8359815b8e70637e74373738d3a0654e01",
        "304402205fe2a9b8c708ce4dd54a11e7496c5ecf29fcb76886379e35a5fbf4f515637f5b02200625f8af1bb6b32b6f4d192d6d34035fee9f9151bde6d8d13df31132bb3186df01",
        "5221030fac04165b606dea3b8f81ada5eb66ca181d5215c873fcf46623ea7cf8e98b1b2102b7836a2a9d3ff095415383cb23a5f4f1badd75e44adb17537962eafe3ded3b602102f8cb472df1ae03cfa6b65b013add7862c7d3ac3684a8a92a44192faace228aee53ae"
      ],
      "is_coinbase": false,
      "sequence": 4294967295,
      "inner_witnessscript_asm": "OP_PUSHNUM_2 OP_PUSHBYTES_33 030fac04165b606dea3b8f81ada5eb66ca181d5215c873fcf46623ea7cf8e98b1b OP_PUSHBYTES_33 02b7836a2a9d3ff095415383cb23a5f4f1badd75e44adb17537962eafe3ded3b60 OP_PUSHBYTES_33 02f8cb472df1ae03cfa6b65b013add7862c7d3ac3684a8a92a44192faace228aee OP_PUSHNUM_3 OP_CHECKMULTISIG"
    }
  ],
  "vout": [
    {
      "scriptpubkey": "a914384414f4c154664a49a7623c2f5250922d2f5c9c87",
      "scriptpubkey_asm": "OP_HASH160 OP_PUSHBYTES_20 384414f4c154664a49a7623c2f5250922d2f5c9c OP_EQUAL",
      "scriptpubkey_type": "p2sh",
      "scriptpubkey_address": "36pXKhNH4AnkTEzt71UwqyxjxX3harnBZd",
      "value": 247901
    },
    {
      "scriptpubkey": "0014fc8bef320c50c7c736cd3d645c02e59531babd34",
      "scriptpubkey_asm": "OP_0 OP_PUSHBYTES_20 fc8bef320c50c7c736cd3d645c02e59531babd34",
      "scriptpubkey_type": "v0_p2wpkh",
      "scriptpubkey_address": "bc1qlj977vsv2rruwdkd84j9cqh9j5cm40f57krzaw",
      "value": 1422014
    },
    {
      "scriptpubkey": "00207250d91085a77a4568fa4cfd5bebb59f0b9cb3530f8154cd4fab6d28abd548fe",
      "scriptpubkey_asm": "OP_0 OP_PUSHBYTES_32 7250d91085a77a4568fa4cfd5bebb59f0b9cb3530f8154cd4fab6d28abd548fe",
      "scriptpubkey_type": "v0_p2wsh",
      "scriptpubkey_address": "bc1qwfgdjyy95aay2686fn74h6a4nu9eev6np7q4fn204dkj3274frlqrskvx0",
      "value": 119122143
    }
  ],
  "size": 412,
  "weight": 883,
  "fee": 4400,
  "status": {
    "confirmed": true,
    "block_height": 834638,
    "block_hash": "000000000000000000025f742c626208ac87e0b7d15054abb4a19ca2d735a54e",
    "block_time": 1710405325
  },
  "hex": "01000000000101d6490a660dba04baa369a53fbc326fdf67f5becc33ea6011e17905cf6a6e269a0100000000ffffffff035dc803000000000017a914384414f4c154664a49a7623c2f5250922d2f5c9c87beb2150000000000160014fc8bef320c50c7c736cd3d645c02e59531babd34dfa81907000000002200207250d91085a77a4568fa4cfd5bebb59f0b9cb3530f8154cd4fab6d28abd548fe0400483045022100c7c6b8daba3aefd0e1ca852b51157db411d3cda44114be616a98621b195e8d4e02204963525a3e572bc29312e840a61fdb9f8359815b8e70637e74373738d3a0654e0147304402205fe2a9b8c708ce4dd54a11e7496c5ecf29fcb76886379e35a5fbf4f515637f5b02200625f8af1bb6b32b6f4d192d6d34035fee9f9151bde6d8d13df31132bb3186df01695221030fac04165b606dea3b8f81ada5eb66ca181d5215c873fcf46623ea7cf8e98b1b2102b7836a2a9d3ff095415383cb23a5f4f1badd75e44adb17537962eafe3ded3b602102f8cb472df1ae03cfa6b65b013add7862c7d3ac3684a8a92a44192faace228aee53ae00000000"
}