{
  "txid": "cd98ca77faef729789d882a361305cac0757b119d3bf3138c39a426264fb8aa9",
  "version": 1,
  "locktime": 0,
  "vin": [
    {
      "txid": "888888888f56c70ca13614dbaf8f1d70c0a11e0013abcce294b232383838bac4",
      "vout": 0,
      "prevout": {
        "scriptpubkey": "512055c5375fe396ddf8ca35f6adc7cc5de94c7fbdfed87db4f62d82b161d11f7250",
        "scriptpubkey_asm": "OP_PUSHNUM_1 OP_PUSHBYTES_32 55c5375fe396ddf8ca35f6adc7cc5de94c7fbdfed87db4f62d82b161d11f7250",
        "scriptpubkey_type": "v1_p2tr",
        "scriptpubkey_address": "bc1p2hznwhlrjmwl3j3476ku0nzaa9x8l007mp7mfa3ds2ckr5glwfgqkhwya9",
        "value": 12071
      },
      "scriptsig": "",
      "scriptsig_asm": "",
      "witness": [
        "3fb73bfb25e4b303e1db85ec85f7aa920fc956b013c26a055068458d482e89acddc84cf0288e243a7a4aeea9a1392747cceb239dc84bfcd837e3152c3398dfdd",
        "20964ac4b39c9655d5bed1908c028e5b13bdcc67f011169207c5b2bcfd1aaffa8cac00630461746f6d03646d7446a16461726773a46474696d651a65f133de656e6f6e63651a0001000068626974776f726b636b3838383838383838382e386b6d696e745f7469636b657268696e66696e69747968",
        "c0964ac4b39c9655d5bed1908c028e5b13bdcc67f011169207c5b2bcfd1aaffa8c"
      ],
      "is_coinbase": false,
      "sequence": 4294967295
    }
  ],
  "vout": [
    {
      "scriptpubkey": "5120c9778f0f7116a0fa90e759ca54b375f5c38d7db5875a2860af8354d65a8671e2",
      "scriptpubkey_asm": "OP_PUSHNUM_1 OP_PUSHBYTES_32 c9778f0f7116a0fa90e759ca54b375f5c38d7db5875a2860af8354d65a8671e2",
      "scriptpubkey_type": "v1_p2tr",
      "scriptpubkey_address": "bc1pe9mc7rm3z6s04y88t899fvm47hpc6ld4sadzsc90sd2dvk5xw83qeh2mmm",
      "value": 9999
    }
  ],
  "size": 314,
  "weight": 596,
  "fee": 2072,
  "status": {
    "confirmed": true,
    "block_height": 834460,
    "block_hash": "00000000000000000000484a79b643b2524bbce82e5d8a442013fa5b8905ed98",
    "block_time": 1710307468
  },
  "hex": "01000000000101c4ba38383832b294e2ccab13001ea1c0701d8fafdb1436a10cc7568f888888880000000000ffffffff010f27000000000000225120c9778f0f7116a0fa90e759ca54b375f5c38d7db5875a2860af8354d65a8671e203403fb73bfb25e4b303e1db85ec85f7aa920fc956b013c26a055068458d482e89acddc84cf0288e243a7a4aeea9a1392747cceb239dc84bfcd837e3152c3398dfdd7520964ac4b39c9655d5bed1908c028e5b13bdcc67f011169207c5b2bcfd1aaffa8cac00630461746f6d03646d7446a16461726773a46474696d651a65f133de656e6f6e63651a0001000068626974776f726b636b3838383838383838382e386b6d696e745f7469636b657268696e66696e6974796821c0964ac4b39c9655d5bed1908c028e5b13bdcc67f011169207c5b2bcfd1aaffa8c00000000"
}