{
  "txid": "cda2a6929112c05a5164c6a6029ae71529b022f3c1aee6a76fc00736de570f4a",
  "version": 2,
  "locktime": 0,
  "vin": [
    {
      "txid": "931935d19f2acac9eb00d6f109f5bb62fa35a2d1ec149b1fc46c78b4e9a22223",
      "vout": 25,
      "prevout": {
        "scriptpubkey": "5120ba71d1cd65ed54b8991a7f4ce35295136738c89b2332bdf00ebee170fa0ea13a",
        "scriptpubkey_asm": "OP_PUSHNUM_1 OP_PUSHBYTES_32 ba71d1cd65ed54b8991a7f4ce35295136738c89b2332bdf00ebee170fa0ea13a",
        "scriptpubkey_type": "v1_p2tr",
        "scriptpubkey_address": "bc1phfcarnt9a42t3xg60axwx554zdnn3jymyvetmuqwhmshp7sw5yaqgyfj4z",
        "value": 1199204
      },
      "scriptsig": "",
      "scriptsig_asm": "",
      "witness": [
        "b33b951fc25bbaa0b8ae315dd7e5c4e0b1bf9ed3534bffb62fd5e605d5da8724d649d9a9e2198ee0fcc3b992558b4d07ff05ab417a3ab6a79e5018230d9268a0",
        "20df3132ce091562b5150e601a4643bf625562d04dfdf3e4ede068c09e44ac01abac",
        "c0df3132ce091562b5150e601a4643bf625562d04dfdf3e4ede068c09e44ac01ab"
      ],
      "is_coinbase": false,
      "sequence": 4294967293
    },
    {
      "txid": "5cf5838ec1a20f69603899696bd1c6cbe051cea9f65c7c39518f6eebb0932a49",
      "vout": 15,
      "prevout": {
        "scriptpubkey": "5120ba71d1cd65ed54b8991a7f4ce35295136738c89b2332bdf00ebee170fa0ea13a",
        "scriptpubkey_asm": "OP_PUSHNUM_1 OP_PUSHBYTES_32 ba71d1cd65ed54b8991a7f4ce35295136738c89b2332bdf00ebee170fa0ea13a",
        "scriptpubkey_type": "v1_p2tr",
        "scriptpubkey_address": "bc1phfcarnt9a42t3xg60axwx554zdnn3jymyvetmuqwhmshp7sw5yaqgyfj4z",
        "value": 800796
      },
      "scriptsig": "",
      "scriptsig_asm": "",
      "witness": [
        "c0a01575f0a0ff244305caf2d22931c2d4bb02cd6d3b53549fad6451c477108e02665968d970c2d8a025ca87381af45b7899c8ee520e8602e3339785db5ea620",
        "20df3132ce091562b5150e601a4643bf625562d04dfdf3e4ede068c09e44ac01abac",
        "c0df3132ce091562b5150e601a4643bf625562d04dfdf3e4ede068c09e44ac01ab"
      ],
      "is_coinbase": false,
      "sequence": 4294967293
    }
  ],
  "vout": [
    {
      "scriptpubkey": "51201e2d7e631e85167d2f538b89ed2a0e83b2bf209b1a3fe7011c58757a914be6b5",
      "scriptpubkey_asm": "OP_PUSHNUM_1 OP_PUSHBYTES_32 1e2d7e631e85167d2f538b89ed2a0e83b2bf209b1a3fe7011c58757a914be6b5",
      "scriptpubkey_type": "v1_p2tr",
      "scriptpubkey_address": "bc1prckhucc7s5t86t6n3wy762swswet7gymrgl7wqgutp6h4y2tu66s4x3q4c",
      "value": 1711
    },
    {
      "scriptpubkey": "51201e2d7e631e85167d2f538b89ed2a0e83b2bf209b1a3fe7011c58757a914be6b5",
      "scriptpubkey_asm": "OP_PUSHNUM_1 OP_PUSHBYTES_32 1e2d7e631e85167d2f538b89ed2a0e83b2bf209b1a3fe7011c58757a914be6b5",
      "scriptpubkey_type": "v1_p2tr",
      "scriptpubkey_address": "bc1prckhucc7s5t86t6n3wy762swswet7gymrgl7wqgutp6h4y2tu66s4x3q4c",
      "value": 1711
    },
    {
      "scriptpubkey": "51201e2d7e631e85167d2f538b89ed2a0e83b2bf209b1a3fe7011c58757a914be6b5",
      "scriptpubkey_asm": "OP_PUSHNUM_1 OP_PUSHBYTES_32 1e2d7e631e85167d2f538b89ed2a0e83b2bf209b1a3fe7011c58757a914be6b5",
      "scriptpubkey_type": "v1_p2tr",
      "scriptpubkey_address": "bc1prckhucc7s5t86t6n3wy762swswet7gymrgl7wqgutp6h4y2tu66s4x3q4c",
      "value": 1711
    },
    {
      "scriptpubkey": "51201e2d7e631e85167d2f538b89ed2a0e83b2bf209b1a3fe7011c58757a914be6b5",
      "scriptpubkey_asm": "OP_PUSHNUM_1 OP_PUSHBYTES_32 1e2d7e631e85167d2f538b89ed2a0e83b2bf209b1a3fe7011c58757a914be6b5",
      "scriptpubkey_type": "v1_p2tr",
      "scriptpubkey_address": "bc1prckhucc7s5t86t6n3wy762swswet7gymrgl7wqgutp6h4y2tu66s4x3q4c",
      "value": 1711
    },
    {
      "scriptpubkey": "51201e2d7e631e85167d2f538b89ed2a0e83b2bf209b1a3fe7011c58757a914be6b5",
      "scriptpubkey_asm": "OP_PUSHNUM_1 OP_PUSHBYTES_32 1e2d7e631e85167d2f538b89ed2a0e83b2bf209b1a3fe7011c58757a914be6b5",
      "scriptpubkey_type": "v1_p2tr",
      "scriptpubkey_address": "bc1prckhucc7s5t86t6n3wy762swswet7gymrgl7wqgutp6h4y2tu66s4x3q4c",
      "value": 1711
    },
    {
      "scriptpubkey": "51201e2d7e631e85167d2f538b89ed2a0e83b2bf209b1a3fe7011c58757a914be6b5",
      "scriptpubkey_asm": "OP_PUSHNUM_1 OP_PUSHBYTES_32 1e2d7e631e85167d2f538b89ed2a0e83b2bf209b1a3fe7011c58757a914be6b5",
      "scriptpubkey_type": "v1_p2tr",
      "scriptpubkey_address": "bc1prckhucc7s5t86t6n3wy762swswet7gymrgl7wqgutp6h4y2tu66s4x3q4c",
      "value": 1711
    },
    {
      "scriptpubkey": "51201e2d7e631e85167d2f538b89ed2a0e83b2bf209b1a3fe7011c58757a914be6b5",
      "scriptpubkey_asm": "OP_PUSHNUM_1 OP_PUSHBYTES_32 1e2d7e631e85167d2f538b89ed2a0e83b2bf209b1a3fe7011c58757a914be6b5",
      "scriptpubkey_type": "v1_p2tr",
      "scriptpubkey_address": "bc1prckhucc7s5t86t6n3wy762swswet7gymrgl7wqgutp6h4y2tu66s4x3q4c",
      "value": 1711
    },
    {
      "scriptpubkey": "51201e2d7e631e85167d2f538b89ed2a0e83b2bf209b1a3fe7011c58757a914be6b5",
      "scriptpubkey_asm": "OP_PUSHNUM_1 OP_PUSHBYTES_32 1e2d7e631e85167d2f538b89ed2a0e83b2bf209b1a3fe7011c58757a914be6b5",
      "scriptpubkey_type": "v1_p2tr",
      "scriptpubkey_address": "bc1prckhucc7s5t86t6n3wy762swswet7gymrgl7wqgutp6h4y2tu66s4x3q4c",
      "value": 1711
    },
    {
      "scriptpubkey": "51201e2d7e631e85167d2f538b89ed2a0e83b2bf209b1a3fe7011c58757a914be6b5",
      "scriptpubkey_asm": "OP_PUSHNUM_1 OP_PUSHBYTES_32 1e2d7e631e85167d2f538b89ed2a0e83b2bf209b1a3fe7011c58757a914be6b5",
      "scriptpubkey_type": "v1_p2tr",
      "scriptpubkey_address": "bc1prckhucc7s5t86t6n3wy762swswet7gymrgl7wqgutp6h4y2tu66s4x3q4c",
      "value": 1711
    },
    {
      "scriptpubkey": "51201e2d7e631e85167d2f538b89ed2a0e83b2bf209b1a3fe7011c58757a914be6b5",
      "scriptpubkey_asm": "OP_PUSHNUM_1 OP_PUSHBYTES_32 1e2d7e631e85167d2f538b89ed2a0e83b2bf209b1a3fe7011c58757a914be6b5",
      "scriptpubkey_type": "v1_p2tr",
      "scriptpubkey_address": "bc1prckhucc7s5t86t6n3wy762swswet7gymrgl7wqgutp6h4y2tu66s4x3q4c",
      "value": 1711
    },
    {
      "scriptpubkey": "51201e2d7e631e85167d2f538b89ed2a0e83b2bf209b1a3fe7011c58757a914be6b5",
      "scriptpubkey_asm": "OP_PUSHNUM_1 OP_PUSHBYTES_32 1e2d7e631e85167d2f538b89ed2a0e83b2bf209b1a3fe7011c58757a914be6b5",
      "scriptpubkey_type": "v1_p2tr",
      "scriptpubkey_address": "bc1prckhucc7s5t86t6n3wy762swswet7gymrgl7wqgutp6h4y2tu66s4x3q4c",
      "value": 1711
    },
    {
      "scriptpubkey": "51201e2d7e631e85167d2f538b89ed2a0e83b2bf209b1a3fe7011c58757a914be6b5",
      "scriptpubkey_asm": "OP_PUSHNUM_1 OP_PUSHBYTES_32 1e2d7e631e85167d2f538b89ed2a0e83b2bf209b1a3fe7011c58757a914be6b5",
      "scriptpubkey_type": "v1_p2tr",
      "scriptpubkey_address": "bc1prckhucc7s5t86t6n3wy762swswet7gymrgl7wqgutp6h4y2tu66s4x3q4c",
      "value": 1711
    },
    {
      "scriptpubkey": "51201e2d7e631e85167d2f538b89ed2a0e83b2bf209b1a3fe7011c58757a914be6b5",
      "scriptpubkey_asm": "OP_PUSHNUM_1 OP_PUSHBYTES_32 1e2d7e631e85167d2f538b89ed2a0e83b2bf209b1a3fe7011c58757a914be6b5",
      "scriptpubkey_type": "v1_p2tr",
      "scriptpubkey_address": "bc1prckhucc7s5t86t6n3wy762swswet7gymrgl7wqgutp6h4y2tu66s4x3q4c",
      "value": 1711
    },
    {
      "scriptpubkey": "51201e2d7e631e85167d2f538b89ed2a0e83b2bf209b1a3fe7011c58757a914be6b5",
      "scriptpubkey_asm": "OP_PUSHNUM_1 OP_PUSHBYTES_32 1e2d7e631e85167d2f538b89ed2a0e83b2bf209b1a3fe7011c58757a914be6b5",
      "scriptpubkey_type": "v1_p2tr",
      "scriptpubkey_address": "bc1prckhucc7s5t86t6n3wy762swswet7gymrgl7wqgutp6h4y2tu66s4x3q4c",
      "value": 1711
    },
    {
      "scriptpubkey": "51201e2d7e631e85167d2f538b89ed2a0e83b2bf209b1a3fe7011c58757a914be6b5",
      "scriptpubkey_asm": "OP_PUSHNUM_1 OP_PUSHBYTES_32 1e2d7e631e85167d2f538b89ed2a0e83b2bf209b1a3fe7011c58757a914be6b5",
      "scriptpubkey_type": "v1_p2tr",
      "scriptpubkey_address": "bc1prckhucc7s5t86t6n3wy762swswet7gymrgl7wqgutp6h4y2tu66s4x3q4c",
      "value": 1711
    },
    {
      "scriptpubkey": "51201e2d7e631e85167d2f538b89ed2a0e83b2bf209b1a3fe7011c58757a914be6b5",
      "scriptpubkey_asm": "OP_PUSHNUM_1 OP_PUSHBYTES_32 1e2d7e631e85167d2f538b89ed2a0e83b2bf209b1a3fe7011c58757a914be6b5",
      "scriptpubkey_type": "v1_p2tr",
      "scriptpubkey_address": "bc1prckhucc7s5t86t6n3wy762swswet7gymrgl7wqgutp6h4y2tu66s4x3q4c",
      "value": 1711
    },
    {
      "scriptpubkey": "51201e2d7e631e85167d2f538b89ed2a0e83b2bf209b1a3fe7011c58757a914be6b5",
      "scriptpubkey_asm": "OP_PUSHNUM_1 OP_PUSHBYTES_32 1e2d7e631e85167d2f538b89ed2a0e83b2bf209b1a3fe7011c58757a914be6b5",
      "scriptpubkey_type": "v1_p2tr",
      "scriptpubkey_address": "bc1prckhucc7s5t86t6n3wy762swswet7gymrgl7wqgutp6h4y2tu66s4x3q4c",
      "value": 1711
    },
    {
      "scriptpubkey": "51201e2d7e631e85167d2f538b89ed2a0e83b2bf209b1a3fe7011c58757a914be6b5",
      "scriptpubkey_asm": "OP_PUSHNUM_1 OP_PUSHBYTES_32 1e2d7e631e85167d2f538b89ed2a0e83b2bf209b1a3fe7011c58757a914be6b5",
      "scriptpubkey_type": "v1_p2tr",
      "scriptpubkey_address": "bc1prckhucc7s5t86t6n3wy762swswet7gymrgl7wqgutp6h4y2tu66s4x3q4c",
      "value": 1711
    },
    {
      "scriptpubkey": "51201e2d7e631e85167d2f538b89ed2a0e83b2bf209b1a3fe7011c58757a914be6b5",
      "scriptpubkey_asm": "OP_PUSHNUM_1 OP_PUSHBYTES_32 1e2d7e631e85167d2f538b89ed2a0e83b2bf209b1a3fe7011c58757a914be6b5",
      "scriptpubkey_type": "v1_p2tr",
      "scriptpubkey_address": "bc1prckhucc7s5t86t6n3wy762swswet7gymrgl7wqgutp6h4y2tu66s4x3q4c",
      "value": 1711
    },
    {
      "scriptpubkey": "51201e2d7e631e85167d2f538b89ed2a0e83b2bf209b1a3fe7011c58757a914be6b5",
      "scriptpubkey_asm": "OP_PUSHNUM_1 OP_PUSHBYTES_32 1e2d7e631e85167d2f538b89ed2a0e83b2bf209b1a3fe7011c58757a914be6b5",
      "scriptpubkey_type": "v1_p2tr",
      "scriptpubkey_address": "bc1prckhucc7s5t86t6n3wy762swswet7gymrgl7wqgutp6h4y2tu66s4x3q4c",
      "value": 1711
    },
    {
      "scriptpubkey": "51201e2d7e631e85167d2f538b89ed2a0e83b2bf209b1a3fe7011c58757a914be6b5",
      "scriptpubkey_asm": "OP_PUSHNUM_1 OP_PUSHBYTES_32 1e2d7e631e85167d2f538b89ed2a0e83b2bf209b1a3fe7011c58757a914be6b5",
      "scriptpubkey_type": "v1_p2tr",
      "scriptpubkey_address": "bc1prckhucc7s5t86t6n3wy762swswet7gymrgl7wqgutp6h4y2tu66s4x3q4c",
      "value": 1711
    },
    {
      "scriptpubkey": "51201e2d7e631e85167d2f538b89ed2a0e83b2bf209b1a3fe7011c58757a914be6b5",
      "scriptpubkey_asm": "OP_PUSHNUM_1 OP_PUSHBYTES_32 1e2d7e631e85167d2f538b89ed2a0e83b2bf209b1a3fe7011c58757a914be6b5",
      "scriptpubkey_type": "v1_p2tr",
      "scriptpubkey_address": "bc1prckhucc7s5t86t6n3wy762swswet7gymrgl7wqgutp6h4y2tu66s4x3q4c",
      "value": 1711
    },
    {
      "scriptpubkey": "51201e2d7e631e85167d2f538b89ed2a0e83b2bf209b1a3fe7011c58757a914be6b5",
      "scriptpubkey_asm": "OP_PUSHNUM_1 OP_PUSHBYTES_32 1e2d7e631e85167d2f538b89ed2a0e83b2bf209b1a3fe7011c58757a914be6b5",
      "scriptpubkey_type": "v1_p2tr",
      "scriptpubkey_address": "bc1prckhucc7s5t86t6n3wy762swswet7gymrgl7wqgutp6h4y2tu66s4x3q4c",
      "value": 1711
    },
    {
      "scriptpubkey": "51201e2d7e631e85167d2f538b89ed2a0e83b2bf209b1a3fe7011c58757a914be6b5",
      "scriptpubkey_asm": "OP_PUSHNUM_1 OP_PUSHBYTES_32 1e2d7e631e85167d2f538b89ed2a0e83b2bf209b1a3fe7011c58757a914be6b5",
      "scriptpubkey_type": "v1_p2tr",
      "scriptpubkey_address": "bc1prckhucc7s5t86t6n3wy762swswet7gymrgl7wqgutp6h4y2tu66s4x3q4c",
      "value": 1711
    },
    {
      "scriptpubkey": "51201e2d7e631e85167d2f538b89ed2a0e83b2bf209b1a3fe7011c58757a914be6b5",
      "scriptpubkey_asm": "OP_PUSHNUM_1 OP_PUSHBYTES_32 1e2d7e631e85167d2f538b89ed2a0e83b2bf209b1a3fe7011c58757a914be6b5",
      "scriptpubkey_type": "v1_p2tr",
      "scriptpubkey_address": "bc1prckhucc7s5t86t6n3wy762swswet7gymrgl7wqgutp6h4y2tu66s4x3q4c",
      "value": 1711
    },
    {
      "scriptpubkey": "5120ba71d1cd65ed54b8991a7f4ce35295136738c89b2332bdf00ebee170fa0ea13a",
      "scriptpubkey_asm": "OP_PUSHNUM_1 OP_PUSHBYTES_32 ba71d1cd65ed54b8991a7f4ce35295136738c89b2332bdf00ebee170fa0ea13a",
      "scriptpubkey_type": "v1_p2tr",
      "scriptpubkey_address": "bc1phfcarnt9a42t3xg60axwx554zdnn3jymyvetmuqwhmshp7sw5yaqgyfj4z",
      "value": 1940994
    }
  ],
  "size": 1482,
  "weight": 5112,
  "fee": 16231,
  "status": {
    "confirmed": true,
    "block_height": 834460,
    "block_hash": "00000000000000000000484a79b643b2524bbce82e5d8a442013fa5b8905ed98",
    "block_time": 1710307468
  },
  "hex": "020000000001022322a2e9b4786cc41f9b14ecd1a235fa62bbf509f1d600ebc9ca2a9fd13519931900000000fdffffff492a93b0eb6e8f51397c5cf6a9ce51e0cbc6d16b69993860690fa2c18e83f55c0f00000000fdffffff1aaf060000000000002251201e2d7e631e85167d2f538b89ed2a0e83b2bf209b1a3fe7011c58757a914be6b5af060000000000002251201e2d7e631e85167d2f538b89ed2a0e83b2bf209b1a3fe7011c58757a914be6b5af060000000000002251201e2d7e631e85167d2f538b89ed2a0e83b2bf209b1a3fe7011c58757a914be6b5af060000000000002251201e2d7e631e85167d2f538b89ed2a0e83b2bf209b1a3fe7011c58757a914be6b5af060000000000002251201e2d7e631e85167d2f538b89ed2a0e83b2bf209b1a3fe7011c58757a914be6b5af060000000000002251201e2d7e631e85167d2f538b89ed2a0e83b2bf209b1a3fe7011c58757a914be6b5af060000000000002251201e2d7e631e85167d2f538b89ed2a0e83b2bf209b1a3fe7011c58757a914be6b5af060000000000002251201e2d7e631e85167d2f538b89ed2a0e83b2bf209b1a3fe7011c58757a914be6b5af060000000000002251201e2d7e631e85167d2f538b89ed2a0e83b2bf209b1a3fe7011c58757a914be6b5af060000000000002251201e2d7e631e85167d2f538b89ed2a0e83b2bf209b1a3fe7011c58757a914be6b5af060000000000002251201e2d7e631e85167d2f538b89ed2a0e83b2bf209b1a3fe7011c58757a914be6b5af060000000000002251201e2d7e631e85167d2f538b89ed2a0e83b2bf209b1a3fe7011c58757a914be6b5af060000000000002251201e2d7e631e85167d2f538b89ed2a0e83b2bf209b1a3fe7011c58757a914be6b5af060000000000002251201e2d7e631e85167d2f538b89ed2a0e83b2bf209b1a3fe7011c58757a914be6b5af060000000000002251201e2d7e631e85167d2f538b89ed2a0e83b2bf209b1a3fe7011c58757a914be6b5af060000000000002251201e2d7e631e85167d2f538b89ed2a0e83b2bf209b1a3fe7011c58757a914be6b5af060000000000002251201e2d7e631e85167d2f538b89ed2a0e83b2bf209b1a3fe7011c58757a914be6b5af060000000000002251201e2d7e631e85167d2f538b89ed2a0e83b2bf209b1a3fe7011c58757a914be6b5af060000000000002251201e2d7e631e85167d2f538b89ed2a0e83b2bf209b1a3fe7011c58757a914be6b5af060000000000002251201e2d7e631e85167d2f538b89ed2a0e83b2bf209b1a3fe7011c58757a914be6b5af060000000000002251201e2d7e631e85167d2f538b89ed2a0e83b2bf209b1a3fe7011c58757a914be6b5af060000000000002251201e2d7e631e85167d2f538b89ed2a0e83b2bf209b1a3fe7011c58757a914be6b5af060000000000002251201e2d7e631e85167d2f538b89ed2a0e83b2bf209b1a3fe7011c58757a914be6b5af060000000000002251201e2d7e631e85167d2f538b89ed2a0e83b2bf209b1a3fe7011c58757a914be6b5af060000000000002251201e2d7e631e85167d2f538b89ed2a0e83b2bf209b1a3fe7011c58757a914be6b5029e1d0000000000225120ba71d1cd65ed54b8991a7f4ce35295136738c89b2332bdf00ebee170fa0ea13a0340b33b951fc25bbaa0b8ae315dd7e5c4e0b1bf9ed3534bffb62fd5e605d5da8724d649d9a9e2198ee0fcc3b992558b4d07ff05ab417a3ab6a79e5018230d9268a02220df3132ce091562b5150e601a4643bf625562d04dfdf3e4ede068c09e44ac01abac21c0df3132ce091562b5150e601a4643bf625562d04dfdf3e4ede068c09e44ac01ab0340c0a01575f0a0ff244305caf2d22931c2d4bb02cd6d3b53549fad6451c477108e02665968d970c2d8a025ca87381af45b7899c8ee520e8602e3339785db5ea6202220df3132ce091562b5150e601a4643bf625562d04dfdf3e4ede068c09e44ac01abac21c0df3132ce091562b5150e601a4643bf625562d04dfdf3e4ede068c09e44ac01ab00000000"
}