{
  "txid": "cdafcca089590bf2f114448a20560127cad8a038fc9dc4db56592c3c8ddad976",
  "version": 1,
  "locktime": 0,
  "vin": [
    {
      "txid": "108ee6b94e598ca6c6c3f5f92d47f52bdab085216a9cf963b09e10a32a89c66c",
      "vout": 1,
      "prevout": {
        "scriptpubkey": "0014c583ddedb0130dff7c6aa1d2b34b5d30701cca3c",
        "scriptpubkey_asm": "OP_0 OP_PUSHBYTES_20 c583ddedb0130dff7c6aa1d2b34b5d30701cca3c",
        "scriptpubkey_type": "v0_p2wpkh",
        "scriptpubkey_address": "bc1qckpammdszvxl7lr258ftxj6axpcpej3u9trnrg",
        "value": 157546
      },
      "scriptsig": "",
      "scriptsig_asm": "",
      "witness": [
        "30440220207a8b0d40e37ce1c29b458ca267fb5016fdc82c0eb30ddd5603704fd5cd281f0220792e396e35d334f77838ae1b94da0fec3f0fa3641b9178016263583f2bdce19101",
        "02c2117f6e2c9f0f725ddd434b3967ec6354b949dc217803eb388292cae3ddc40a"
      ],
      "is_coinbase": false,
      "sequence": 4294967295
    },
    {
      "txid": "8504eb06a40b591743c410658bb82d0ad7eb95f6efe0364db775a73fd2c828ba",
      "vout": 5,
      "prevout": {
        "scriptpubkey": "0014c583ddedb0130dff7c6aa1d2b34b5d30701cca3c",
        "scriptpubkey_asm": "OP_0 OP_PUSHBYTES_20 c583ddedb0130dff7c6aa1d2b34b5d30701cca3c",
        "scriptpubkey_type": "v0_p2wpkh",
        "scriptpubkey_address": "bc1qckpammdszvxl7lr258ftxj6axpcpej3u9trnrg",
        "value": 911158
      },
      "scriptsig": "",
      "scriptsig_asm": "",
      "witness": [
        "3044022031227293f4b75562278c11a3398551cce9aa31add1e7307e2471ef3506219e44022042c6727cec07f4e3cf366eacc6b81c27c61048341fe5e25e3899c83eb3b8560101",
        "02c2117f6e2c9f0f725ddd434b3967ec6354b949dc217803eb388292cae3ddc40a"
      ],
      "is_coinbase": false,
      "sequence": 4294967295
    },
    {
      "txid": "a0c1c15c7b6149cfd841dfe6714609e07f2a9998e00795bd4700db7d506766e9",
      "vout": 163,
      "prevout": {
        "scriptpubkey": "0014c583ddedb0130dff7c6aa1d2b34b5d30701cca3c",
        "scriptpubkey_asm": "OP_0 OP_PUSHBYTES_20 c583ddedb0130dff7c6aa1d2b34b5d30701cca3c",
        "scriptpubkey_type": "v0_p2wpkh",
        "scriptpubkey_address": "bc1qckpammdszvxl7lr258ftxj6axpcpej3u9trnrg",
        "value": 1759475
      },
      "scriptsig": "",
      "scriptsig_asm": "",
      "witness": [
        "304402205d8ca4d726c6f0c0e61f0415373729bef0076d183e5c3cd13ab33620dae11c94022068840de39ad1ef6789777b1e3123da7b85ac00a797bcf891c56f05e153d934f501",
        "02c2117f6e2c9f0f725ddd434b3967ec6354b949dc217803eb388292cae3ddc40a"
      ],
      "is_coinbase": false,
      "sequence": 4294967295
    }
  ],
  "vout": [
    {
      "scriptpubkey": "76a914e1bd8b4a2f8d55ddaeb575ef5a9d100de9a62daf88ac",
      "scriptpubkey_asm": "OP_DUP OP_HASH160 OP_PUSHBYTES_20 e1bd8b4a2f8d55ddaeb575ef5a9d100de9a62daf OP_EQUALVERIFY OP_CHECKSIG",
      "scriptpubkey_type": "p2pkh",
      "scriptpubkey_address": "1Mac6vBGRHrnZbFcgsiCPHP12jhxmdFA8L",
      "value": 2722935
    },
    {
      "scriptpubkey": "0014c583ddedb0130dff7c6aa1d2b34b5d30701cca3c",
      "scriptpubkey_asm": "OP_0 OP_PUSHBYTES_20 c583ddedb0130dff7c6aa1d2b34b5d30701cca3c",
      "scriptpubkey_type": "v0_p2wpkh",
      "scriptpubkey_address": "bc1qckpammdszvxl7lr258ftxj6axpcpej3u9trnrg",
      "value": 96844
    }
  ],
  "size": 521,
  "weight": 1115,
  "fee": 8400,
  "status": {
    "confirmed": true,
    "block_height": 834638,
    "block_hash": "000000000000000000025f742c626208ac87e0b7d15054abb4a19ca2d735a54e",
    "block_time": 1710405325
  },
  "hex": "010000000001036cc6892aa3109eb063f99c6a2185b0da2bf5472df9f5c3c6a68c594eb9e68e100100000000ffffffffba28c8d23fa775b74d36e0eff695ebd70a2db88b6510c44317590ba406eb04850500000000ffffffffe96667507ddb0047bd9507e098992a7fe0094671e6df41d8cf49617b5cc1c1a0a300000000ffffffff02778c2900000000001976a914e1bd8b4a2f8d55ddaeb575ef5a9d100de9a62daf88ac4c7a010000000000160014c583ddedb0130dff7c6aa1d2b34b5d30701cca3c024730440220207a8b0d40e37ce1c29b458ca267fb5016fdc82c0eb30ddd5603704fd5cd281f0220792e396e35d334f77838ae1b94da0fec3f0fa3641b9178016263583f2bdce191012102c2117f6e2c9f0f725ddd434b3967ec6354b949dc217803eb388292cae3ddc40a02473044022031227293f4b75562278c11a3398551cce9aa31add1e7307e2471ef3506219e44022042c6727cec07f4e3cf366eacc6b81c27c61048341fe5e25e3899c83eb3b85601012102c2117f6e2c9f0f725ddd434b3967ec6354b949dc217803eb388292cae3ddc40a0247304402205d8ca4d726c6f0c0e61f0415373729bef0076d183e5c3cd13ab33620dae11c94022068840de39ad1ef6789777b1e3123da7b85ac00a797bcf891c56f05e153d934f5012102c2117f6e2c9f0f725ddd434b3967ec6354b949dc217803eb388292cae3ddc40a00000000"
}