{
  "txid": "cdcf7bfbd085f9656a7a4e5562758849a97e245de07bebb369f752d426b341cd",
  "version": 1,
  "locktime": 0,
  "vin": [
    {
      "txid": "f51a9a3a8c55e27c1bb1d0ce9838dbfd605ba5b9f01aa800a8beabacbaf21287",
      "vout": 0,
      "prevout": {
        "scriptpubkey": "512045633876394d2d635ef52982ca44624aa94cd0095d935e6fdee55651b9128c02",
        "scriptpubkey_asm": "OP_PUSHNUM_1 OP_PUSHBYTES_32 45633876394d2d635ef52982ca44624aa94cd0095d935e6fdee55651b9128c02",
        "scriptpubkey_type": "v1_p2tr",
        "scriptpubkey_address": "bc1pg43nsa3ef5kkxhh49xpv53rzf255e5qftkf4um77u4t9rwgj3spqrkmzq0",
        "value": 2346
      },
      "scriptsig": "",
      "scriptsig_asm": "",
      "witness": [
        "439af5d2fb50b3c4189deae2c106c070fae2857e1863b7169aaede03ab74f92fe04f9f00514bceb215cc386968ab0dc0230059ebeba9c425198aa615829094fc",
        "20369bf2ca5d944aef7ac3648d17ac2427ced0899d3db72095ff0c7af859e1f8a2ac0063036f726401010a746578742f706c61696e003e7b2270223a226272632d3230222c226f70223a227472616e73666572222c227469636b223a2253415453222c22616d74223a22333030303030303030227d68",
        "c0369bf2ca5d944aef7ac3648d17ac2427ced0899d3db72095ff0c7af859e1f8a2"
      ],
      "is_coinbase": false,
      "sequence": 4294967293
    }
  ],
  "vout": [
    {
      "scriptpubkey": "5120adaf180868914f0be2c808c4a25335b5509ad6b2f6020aede2495fc0d6fc67a1",
      "scriptpubkey_asm": "OP_PUSHNUM_1 OP_PUSHBYTES_32 adaf180868914f0be2c808c4a25335b5509ad6b2f6020aede2495fc0d6fc67a1",
      "scriptpubkey_type": "v1_p2tr",
      "scriptpubkey_address": "bc1p4kh3szrgj98shckgprz2y5e4k4gf444j7cpq4m0zf90up4huv7sscs3jmm",
      "value": 546
    }
  ],
  "size": 315,
  "weight": 597,
  "fee": 1800,
  "status": {
    "confirmed": true,
    "block_height": 834460,
    "block_hash": "00000000000000000000484a79b643b2524bbce82e5d8a442013fa5b8905ed98",
    "block_time": 1710307468
  },
  "hex": "010000000001018712f2baacabbea800a81af0b9a55b60fddb3898ced0b11b7ce2558c3a9a1af50000000000fdffffff012202000000000000225120adaf180868914f0be2c808c4a25335b5509ad6b2f6020aede2495fc0d6fc67a10340439af5d2fb50b3c4189deae2c106c070fae2857e1863b7169aaede03ab74f92fe04f9f00514bceb215cc386968ab0dc0230059ebeba9c425198aa615829094fc7620369bf2ca5d944aef7ac3648d17ac2427ced0899d3db72095ff0c7af859e1f8a2ac0063036f726401010a746578742f706c61696e003e7b2270223a226272632d3230222c226f70223a227472616e73666572222c227469636b223a2253415453222c22616d74223a22333030303030303030227d6821c0369bf2ca5d944aef7ac3648d17ac2427ced0899d3db72095ff0c7af859e1f8a200000000"
}