{
  "txid": "cdd158c0a0d82bdff5b9f301264c7d2e79e47570651f67f0836cfb3ad949b214",
  "version": 2,
  "locktime": 0,
  "vin": [
    {
      "txid": "3d71589a43bbb9dee79030523891f2433e85aa6cddd4aa8231133acfdbd2945e",
      "vout": 0,
      "prevout": {
        "scriptpubkey": "0014ff4d52a87e81d2d3bdaa87fbb1f5e4284f5d4985",
        "scriptpubkey_asm": "OP_0 OP_PUSHBYTES_20 ff4d52a87e81d2d3bdaa87fbb1f5e4284f5d4985",
        "scriptpubkey_type": "v0_p2wpkh",
        "scriptpubkey_address": "bc1qlax492r7s8fd80d2slamra0y9p846jv9pav3ly",
        "value": 4000000
      },
      "scriptsig": "",
      "scriptsig_asm": "",
      "witness": [
        "3045022100e61c47973baaa37ce0d4e17db2495332c59e82183c758f4cdeaf8132257484ea022054eb1972d484e42fdb60a32912e44430fae832f6f00f13b722ea990e4cf59ffa01",
        "0380053ed501de74cc74263b0305d5659190694f8d278c4d9ce6d4eaa7d0c135b9"
      ],
      "is_coinbase": false,
      "sequence": 4294967295
    },
    {
      "txid": "45d79945792735d1fb4111bb6181392d2f336ff0276ca3b8edebd60159537f6c",
      "vout": 0,
      "prevout": {
        "scriptpubkey": "0014e272c15580351bb8d0c198ff8092ab7c7fad491f",
        "scriptpubkey_asm": "OP_0 OP_PUSHBYTES_20 e272c15580351bb8d0c198ff8092ab7c7fad491f",
        "scriptpubkey_type": "v0_p2wpkh",
        "scriptpubkey_address": "bc1qufevz4vqx5dm35xpnrlcpy4t03l66jglznjfep",
        "value": 4000000
      },
      "scriptsig": "",
      "scriptsig_asm": "",
      "witness": [
        "304402206728171feace8de1e87325212a447362d6ac352bb4f55825183664ae8b0e6fff0220527b80d5d5d08596c3cd41ec6315798aae80f43555a44a9e0ad264a75c658f2401",
        "02e8b5d3992928776e759fdedcdff30bb24f0263fdec55577cdab7db693b90b2d8"
      ],
      "is_coinbase": false,
      "sequence": 4294967295
    },
    {
      "txid": "344d11d61b4e1720f7b52622a92d5f8768cb43335d5f9c06f814fa5f733e4898",
      "vout": 1,
      "prevout": {
        "scriptpubkey": "0014e0145df166b20db925a3f7492889a5eb5ff6d363",
        "scriptpubkey_asm": "OP_0 OP_PUSHBYTES_20 e0145df166b20db925a3f7492889a5eb5ff6d363",
        "scriptpubkey_type": "v0_p2wpkh",
        "scriptpubkey_address": "bc1quq29mutxkgxmjfdr7ayj3zd9ad0ld5mrhh89l2",
        "value": 5929743
      },
      "scriptsig": "",
      "scriptsig_asm": "",
      "witness": [
        "30440220048fdbaef24bd70440f32bad9b92abd53676e642a0e9b40c71f27278177d131602200815f5544f634b9eb229ddf5b360116d5220ec77da9b939bbde37b1c838eab1601",
        "029c73c9de8db31bd1e6c27b8e0f83f7caf385f4d83b37912b8aa8ab23e047d9cb"
      ],
      "is_coinbase": false,
      "sequence": 4294967295
    }
  ],
  "vout": [
    {
      "scriptpubkey": "0014e6b7665efc1e8504ed37bbe0f17863bb8fc46012",
      "scriptpubkey_asm": "OP_0 OP_PUSHBYTES_20 e6b7665efc1e8504ed37bbe0f17863bb8fc46012",
      "scriptpubkey_type": "v0_p2wpkh",
      "scriptpubkey_address": "bc1qu6mkvhhur6zsfmfhh0s0z7rrhw8ugcqjemwz6j",
      "value": 10401658
    },
    {
      "scriptpubkey": "0014e0145df166b20db925a3f7492889a5eb5ff6d363",
      "scriptpubkey_asm": "OP_0 OP_PUSHBYTES_20 e0145df166b20db925a3f7492889a5eb5ff6d363",
      "scriptpubkey_type": "v0_p2wpkh",
      "scriptpubkey_address": "bc1quq29mutxkgxmjfdr7ayj3zd9ad0ld5mrhh89l2",
      "value": 3519498
    }
  ],
  "size": 519,
  "weight": 1104,
  "fee": 8587,
  "status": {
    "confirmed": true,
    "block_height": 834638,
    "block_hash": "000000000000000000025f742c626208ac87e0b7d15054abb4a19ca2d735a54e",
    "block_time": 1710405325
  },
  "hex": "020000000001035e94d2dbcf3a133182aad4dd6caa853e43f29138523090e7deb9bb439a58713d0000000000ffffffff6c7f535901d6ebedb8a36c27f06f332f2d398161bb1141fbd13527794599d7450000000000ffffffff98483e735ffa14f8069c5f5d3343cb68875f2da92226b5f720174e1bd6114d340100000000ffffffff027ab79e0000000000160014e6b7665efc1e8504ed37bbe0f17863bb8fc460120ab4350000000000160014e0145df166b20db925a3f7492889a5eb5ff6d36302483045022100e61c47973baaa37ce0d4e17db2495332c59e82183c758f4cdeaf8132257484ea022054eb1972d484e42fdb60a32912e44430fae832f6f00f13b722ea990e4cf59ffa01210380053ed501de74cc74263b0305d5659190694f8d278c4d9ce6d4eaa7d0c135b90247304402206728171feace8de1e87325212a447362d6ac352bb4f55825183664ae8b0e6fff0220527b80d5d5d08596c3cd41ec6315798aae80f43555a44a9e0ad264a75c658f24012102e8b5d3992928776e759fdedcdff30bb24f0263fdec55577cdab7db693b90b2d8024730440220048fdbaef24bd70440f32bad9b92abd53676e642a0e9b40c71f27278177d131602200815f5544f634b9eb229ddf5b360116d5220ec77da9b939bbde37b1c838eab160121029c73c9de8db31bd1e6c27b8e0f83f7caf385f4d83b37912b8aa8ab23e047d9cb00000000"
}