{
  "txid": "cdd5369767b8e3b2db8f59fdc468fbe5cfb38ac61be7163736b14d861a724235",
  "version": 2,
  "locktime": 0,
  "vin": [
    {
      "txid": "6d9af74d95071bdd8ce7cfe08067fb0c5ac129b03f5613e882759a0cb82c66f5",
      "vout": 0,
      "prevout": {
        "scriptpubkey": "76a914ed990253368c1c871ddff7bb27dee32d4dbd296388ac",
        "scriptpubkey_asm": "OP_DUP OP_HASH160 OP_PUSHBYTES_20 ed990253368c1c871ddff7bb27dee32d4dbd2963 OP_EQUALVERIFY OP_CHECKSIG",
        "scriptpubkey_type": "p2pkh",
        "scriptpubkey_address": "1NfJSiqBw4fb74KgVQrPsk5W5aqitAD1Xv",
        "value": 29994680
      },
      "scriptsig": "473044022036a3716e4b05c3c8d76a1bb9c98ac28fd04ac2f10e9349f029ddfca1b570dd6202203564b19c128eec38271a572022cc9250c748d76517430cf3f7ea80b605966fbe012102f60edb17578ae2672a38eeb0f184da7f1d48b72517969ed902d9d5b3e3ce0115",
      "scriptsig_asm": "OP_PUSHBYTES_71 3044022036a3716e4b05c3c8d76a1bb9c98ac28fd04ac2f10e9349f029ddfca1b570dd6202203564b19c128eec38271a572022cc9250c748d76517430cf3f7ea80b605966fbe01 OP_PUSHBYTES_33 02f60edb17578ae2672a38eeb0f184da7f1d48b72517969ed902d9d5b3e3ce0115",
      "is_coinbase": false,
      "sequence": 4294967295
    },
    {
      "txid": "a7a524f71dafbf52f038a59a402b3dd338fee21a69949ddf463a69bf0acad109",
      "vout": 1,
      "prevout": {
        "scriptpubkey": "76a914ed990253368c1c871ddff7bb27dee32d4dbd296388ac",
        "scriptpubkey_asm": "OP_DUP OP_HASH160 OP_PUSHBYTES_20 ed990253368c1c871ddff7bb27dee32d4dbd2963 OP_EQUALVERIFY OP_CHECKSIG",
        "scriptpubkey_type": "p2pkh",
        "scriptpubkey_address": "1NfJSiqBw4fb74KgVQrPsk5W5aqitAD1Xv",
        "value": 10903127
      },
      "scriptsig": "4730440220379e6b01ee2328148846149c4718671a403c596a1ab0b86f06870d15a56dc11d02207bee5ab4367d24464bc2713c2877b0d25c7c44b7b835a84ffb798d0f5f5ab9a0012102f60edb17578ae2672a38eeb0f184da7f1d48b72517969ed902d9d5b3e3ce0115",
      "scriptsig_asm": "OP_PUSHBYTES_71 30440220379e6b01ee2328148846149c4718671a403c596a1ab0b86f06870d15a56dc11d02207bee5ab4367d24464bc2713c2877b0d25c7c44b7b835a84ffb798d0f5f5ab9a001 OP_PUSHBYTES_33 02f60edb17578ae2672a38eeb0f184da7f1d48b72517969ed902d9d5b3e3ce0115",
      "is_coinbase": false,
      "sequence": 4294967295
    }
  ],
  "vout": [
    {
      "scriptpubkey": "00146b3471ba2f77c47f3d4b8efa090d99518b0ba6df",
      "scriptpubkey_asm": "OP_0 OP_PUSHBYTES_20 6b3471ba2f77c47f3d4b8efa090d99518b0ba6df",
      "scriptpubkey_type": "v0_p2wpkh",
      "scriptpubkey_address": "bc1qdv68rw30wlz8702t3maqjrve2x9shfkl5nr9gy",
      "value": 30000000
    },
    {
      "scriptpubkey": "76a914ed990253368c1c871ddff7bb27dee32d4dbd296388ac",
      "scriptpubkey_asm": "OP_DUP OP_HASH160 OP_PUSHBYTES_20 ed990253368c1c871ddff7bb27dee32d4dbd2963 OP_EQUALVERIFY OP_CHECKSIG",
      "scriptpubkey_type": "p2pkh",
      "scriptpubkey_address": "1NfJSiqBw4fb74KgVQrPsk5W5aqitAD1Xv",
      "value": 10887079
    }
  ],
  "size": 369,
  "weight": 1476,
  "fee": 10728,
  "status": {
    "confirmed": true,
    "block_height": 834638,
    "block_hash": "000000000000000000025f742c626208ac87e0b7d15054abb4a19ca2d735a54e",
    "block_time": 1710405325
  },
  "hex": "0200000002f5662cb80c9a7582e813563fb029c15a0cfb6780e0cfe78cdd1b07954df79a6d000000006a473044022036a3716e4b05c3c8d76a1bb9c98ac28fd04ac2f10e9349f029ddfca1b570dd6202203564b19c128eec38271a572022cc9250c748d76517430cf3f7ea80b605966fbe012102f60edb17578ae2672a38eeb0f184da7f1d48b72517969ed902d9d5b3e3ce0115ffffffff09d1ca0abf693a46df9d94691ae2fe38d33d2b409aa538f052bfaf1df724a5a7010000006a4730440220379e6b01ee2328148846149c4718671a403c596a1ab0b86f06870d15a56dc11d02207bee5ab4367d24464bc2713c2877b0d25c7c44b7b835a84ffb798d0f5f5ab9a0012102f60edb17578ae2672a38eeb0f184da7f1d48b72517969ed902d9d5b3e3ce0115ffffffff0280c3c901000000001600146b3471ba2f77c47f3d4b8efa090d99518b0ba6dfa71fa600000000001976a914ed990253368c1c871ddff7bb27dee32d4dbd296388ac00000000"
}