{
  "txid": "cdf24342c9dd0f2672adc780816350025db36560f4e5aa9226a993627ea46261",
  "version": 1,
  "locktime": 0,
  "vin": [
    {
      "txid": "5a8453e7be387d77dee25d95092e1bcbeb2ca752446b72089e51e2a263779439",
      "vout": 0,
      "prevout": {
        "scriptpubkey": "5120b5658e03a35279cae649d344cf7358d0c01831b4a3b70d638699e4d76a8cf462",
        "scriptpubkey_asm": "OP_PUSHNUM_1 OP_PUSHBYTES_32 b5658e03a35279cae649d344cf7358d0c01831b4a3b70d638699e4d76a8cf462",
        "scriptpubkey_type": "v1_p2tr",
        "scriptpubkey_address": "bc1pk4jcuqar2fuu4ejf6dzv7u6c6rqpsvd55wms6cuxn8jdw65v733q7yu6t0",
        "value": 2721
      },
      "scriptsig": "",
      "scriptsig_asm": "",
      "witness": [
        "be5186a555af0ed9532b26febee93daa8b11a5c967a5e2fde59f47203f4ca9b270904d2c09ed0e23d36b91108a255e5e6ab601ee3ada057bda69db196fc730c9",
        "2079f9d72d9b9b1dcb10f7ce421deb098c111f9504f4c35d2f77d14ee0d7bea71eac0063036f7264010118746578742f706c61696e3b636861727365743d7574662d3800397b2270223a226272632d3230222c226f70223a227472616e73666572222c227469636b223a224d574343222c22616d74223a2234343239227d68",
        "c079f9d72d9b9b1dcb10f7ce421deb098c111f9504f4c35d2f77d14ee0d7bea71e"
      ],
      "is_coinbase": false,
      "sequence": 4294967293
    }
  ],
  "vout": [
    {
      "scriptpubkey": "0014303339128bc1e7928aebac5f28757088066d5977",
      "scriptpubkey_asm": "OP_0 OP_PUSHBYTES_20 303339128bc1e7928aebac5f28757088066d5977",
      "scriptpubkey_type": "v0_p2wpkh",
      "scriptpubkey_address": "bc1qxqenjy5tc8ne9zht430jsats3qrx6kthmqu50d",
      "value": 546
    }
  ],
  "size": 312,
  "weight": 558,
  "fee": 2175,
  "status": {
    "confirmed": true,
    "block_height": 834460,
    "block_hash": "00000000000000000000484a79b643b2524bbce82e5d8a442013fa5b8905ed98",
    "block_time": 1710307468
  },
  "hex": "0100000000010139947763a2e2519e08726b4452a72cebcb1b2e09955de2de777d38bee753845a0000000000fdffffff012202000000000000160014303339128bc1e7928aebac5f28757088066d59770340be5186a555af0ed9532b26febee93daa8b11a5c967a5e2fde59f47203f4ca9b270904d2c09ed0e23d36b91108a255e5e6ab601ee3ada057bda69db196fc730c97f2079f9d72d9b9b1dcb10f7ce421deb098c111f9504f4c35d2f77d14ee0d7bea71eac0063036f7264010118746578742f706c61696e3b636861727365743d7574662d3800397b2270223a226272632d3230222c226f70223a227472616e73666572222c227469636b223a224d574343222c22616d74223a2234343239227d6821c079f9d72d9b9b1dcb10f7ce421deb098c111f9504f4c35d2f77d14ee0d7bea71e00000000"
}