{
  "txid": "cdf38142283471fbcd28e43f58e18fdeb8c5f3f1f8e911e99f881f4c892f47f8",
  "version": 2,
  "locktime": 0,
  "vin": [
    {
      "txid": "1773c005b93797202fb8245c660cba9a464bbe5197fb7fb44f706f4330cd520b",
      "vout": 1,
      "prevout": {
        "scriptpubkey": "5120e29fd041c8b9ee3506addbb621e7aaf6af3aa55eb7431ef1edcba5d9fc1b3260",
        "scriptpubkey_asm": "OP_PUSHNUM_1 OP_PUSHBYTES_32 e29fd041c8b9ee3506addbb621e7aaf6af3aa55eb7431ef1edcba5d9fc1b3260",
        "scriptpubkey_type": "v1_p2tr",
        "scriptpubkey_address": "bc1pu20aqswgh8hr2p4dmwmzrea276hn4f27kap3au0dewjanlqmxfsq0d74vd",
        "value": 9958
      },
      "scriptsig": "",
      "scriptsig_asm": "",
      "witness": [
        "d3bdc81b0d05c914b92ce99b2edb8388611e8ef012697675d4da3b9146aaf7f8ea2ecf74b1c80d6dcaeee67503847a3c39972f7beec1d0d47a7d2dc19fb7d47d"
      ],
      "is_coinbase": false,
      "sequence": 4294967293
    },
    {
      "txid": "10d774f81b41e572c01e3f80fc55c4c195103801ec517e89c2beb10382868fbb",
      "vout": 1,
      "prevout": {
        "scriptpubkey": "5120504c936c815556c8e294a7c5e1ca5412cc8be4801462ae20c6228920b9030d81",
        "scriptpubkey_asm": "OP_PUSHNUM_1 OP_PUSHBYTES_32 504c936c815556c8e294a7c5e1ca5412cc8be4801462ae20c6228920b9030d81",
        "scriptpubkey_type": "v1_p2tr",
        "scriptpubkey_address": "bc1p2pxfxmyp24tv3c555lz7rjj5ztxgheyqz332ugxxy2yjpwgrpkqs0agca0",
        "value": 7980
      },
      "scriptsig": "",
      "scriptsig_asm": "",
      "witness": [
        "a1382ec47f0447d6ab55ac1fce2da94a64c80372c2e14e709fae24e38b361c2f28e1809cdff98eae89647ad0c49290ec98ff86df82ea1cbf6db41d4586e11c61"
      ],
      "is_coinbase": false,
      "sequence": 4294967293
    }
  ],
  "vout": [
    {
      "scriptpubkey": "5120cd734dfdcb4ed6d3fda7a5694bc484b4cf3d1c35e1e50d55d23fc0b96e7a5b72",
      "scriptpubkey_asm": "OP_PUSHNUM_1 OP_PUSHBYTES_32 cd734dfdcb4ed6d3fda7a5694bc484b4cf3d1c35e1e50d55d23fc0b96e7a5b72",
      "scriptpubkey_type": "v1_p2tr",
      "scriptpubkey_address": "bc1pe4e5mlwtfmtd8ld85455h3yykn8n68p4u8js64wj8lqtjmn6tdeqsdaaf8",
      "value": 12498
    },
    {
      "scriptpubkey": "51208cae3994d3d5902cea7f68a3fdffef0e00ffdfc6db187072296fb1cc95fe10ce",
      "scriptpubkey_asm": "OP_PUSHNUM_1 OP_PUSHBYTES_32 8cae3994d3d5902cea7f68a3fdffef0e00ffdfc6db187072296fb1cc95fe10ce",
      "scriptpubkey_type": "v1_p2tr",
      "scriptpubkey_address": "bc1p3jhrn9xn6kgze6nldz3lmll0pcq0lh7xmvv8qu3fd7cue907zr8q9kes3h",
      "value": 2896
    }
  ],
  "size": 312,
  "weight": 846,
  "fee": 2544,
  "status": {
    "confirmed": true,
    "block_height": 834460,
    "block_hash": "00000000000000000000484a79b643b2524bbce82e5d8a442013fa5b8905ed98",
    "block_time": 1710307468
  },
  "hex": "020000000001020b52cd30436f704fb47ffb9751be4b469aba0c665c24b82f209737b905c073170100000000fdffffffbb8f868203b1bec2897e51ec01381095c1c455fc803f1ec072e5411bf874d7100100000000fdffffff02d230000000000000225120cd734dfdcb4ed6d3fda7a5694bc484b4cf3d1c35e1e50d55d23fc0b96e7a5b72500b0000000000002251208cae3994d3d5902cea7f68a3fdffef0e00ffdfc6db187072296fb1cc95fe10ce0140d3bdc81b0d05c914b92ce99b2edb8388611e8ef012697675d4da3b9146aaf7f8ea2ecf74b1c80d6dcaeee67503847a3c39972f7beec1d0d47a7d2dc19fb7d47d0140a1382ec47f0447d6ab55ac1fce2da94a64c80372c2e14e709fae24e38b361c2f28e1809cdff98eae89647ad0c49290ec98ff86df82ea1cbf6db41d4586e11c6100000000"
}