{
  "txid": "cdf64c97975b25103f47537f196c6ded385cb11029c9177e0d245e58e8d1950d",
  "version": 1,
  "locktime": 0,
  "vin": [
    {
      "txid": "93f038c2615e1ccc108910139a560308e7ff1d77910263d5240879546703006e",
      "vout": 0,
      "prevout": {
        "scriptpubkey": "001453d4b498cd0def3623f9c12405ce9eeb350b68b9",
        "scriptpubkey_asm": "OP_0 OP_PUSHBYTES_20 53d4b498cd0def3623f9c12405ce9eeb350b68b9",
        "scriptpubkey_type": "v0_p2wpkh",
        "scriptpubkey_address": "bc1q202tfxxdphhnvglecyjqtn57av6sk69e6dhnsu",
        "value": 32753601
      },
      "scriptsig": "",
      "scriptsig_asm": "",
      "witness": [
        "304402205bba29b065fb4a6374a031d3d154f4c7d18eb020b4ea469c9fb6b2d570069e8f02205b9378d603060b0317f85835048541a89c44abf1916daf810dffb9a276e7c23c01",
        "023d38a0515b9a46a324e1ae57e25e67451894f3d6b14ad096420671d91a3050b4"
      ],
      "is_coinbase": false,
      "sequence": 4294967295
    }
  ],
  "vout": [
    {
      "scriptpubkey": "0020089e80d6bcfd325f467fd4dd95dc7a0a8c7f7c374d3efb75e745a60deac155fd",
      "scriptpubkey_asm": "OP_0 OP_PUSHBYTES_32 089e80d6bcfd325f467fd4dd95dc7a0a8c7f7c374d3efb75e745a60deac155fd",
      "scriptpubkey_type": "v0_p2wsh",
      "scriptpubkey_address": "bc1qpz0gp44ul5e973nl6nwethr6p2x87lphf5l0ka08gknqm6kp2h7sahw0mn",
      "value": 394510
    },
    {
      "scriptpubkey": "a914941df0da9217e98f9c847498856504854d46177b87",
      "scriptpubkey_asm": "OP_HASH160 OP_PUSHBYTES_20 941df0da9217e98f9c847498856504854d46177b OP_EQUAL",
      "scriptpubkey_type": "p2sh",
      "scriptpubkey_address": "3FCBoG45EnyUAqS2yYdU89wHSt7CM8LqDN",
      "value": 954084
    },
    {
      "scriptpubkey": "0014973584b56989dcb32409b895e40e0a9f95faefa8",
      "scriptpubkey_asm": "OP_0 OP_PUSHBYTES_20 973584b56989dcb32409b895e40e0a9f95faefa8",
      "scriptpubkey_type": "v0_p2wpkh",
      "scriptpubkey_address": "bc1qju6cfdtf38wtxfqfhz27grs2n72l4magnvulrn",
      "value": 27160442
    },
    {
      "scriptpubkey": "a91482ebb2da34e551825ff783f695d5fa3449c03f9087",
      "scriptpubkey_asm": "OP_HASH160 OP_PUSHBYTES_20 82ebb2da34e551825ff783f695d5fa3449c03f90 OP_EQUAL",
      "scriptpubkey_type": "p2sh",
      "scriptpubkey_address": "3DdG87MquMQqrX6jUvno63m9U82nrWShQ4",
      "value": 14299
    },
    {
      "scriptpubkey": "00142b44e841eada7c7c35117bbc405770146415862c",
      "scriptpubkey_asm": "OP_0 OP_PUSHBYTES_20 2b44e841eada7c7c35117bbc405770146415862c",
      "scriptpubkey_type": "v0_p2wpkh",
      "scriptpubkey_address": "bc1q9dzwss02mf78cdg30w7yq4msz3jptp3vrhkx6s",
      "value": 127220
    },
    {
      "scriptpubkey": "a914afc9a60ce37b2018284b4c21eb30cc5c7ed8c0bf87",
      "scriptpubkey_asm": "OP_HASH160 OP_PUSHBYTES_20 afc9a60ce37b2018284b4c21eb30cc5c7ed8c0bf OP_EQUAL",
      "scriptpubkey_type": "p2sh",
      "scriptpubkey_address": "3HiVjuYk8fkVNbDKiM8jkQ4urkugkz4ENo",
      "value": 189092
    },
    {
      "scriptpubkey": "00140954c5ec993bdfdb6b055c03d197fa37f27acd17",
      "scriptpubkey_asm": "OP_0 OP_PUSHBYTES_20 0954c5ec993bdfdb6b055c03d197fa37f27acd17",
      "scriptpubkey_type": "v0_p2wpkh",
      "scriptpubkey_address": "bc1qp92vtmye800ak6c9tspar9l6xle84ngh9el3yn",
      "value": 328961
    },
    {
      "scriptpubkey": "001468dcad0e0a6a7464298e4dcc26b8f261c1d9b4ee",
      "scriptpubkey_asm": "OP_0 OP_PUSHBYTES_20 68dcad0e0a6a7464298e4dcc26b8f261c1d9b4ee",
      "scriptpubkey_type": "v0_p2wpkh",
      "scriptpubkey_address": "bc1qdrw26rs2df6xg2vwfhxzdw8jv8qand8wq46kk6",
      "value": 246231
    },
    {
      "scriptpubkey": "a914a4108f806c44b0675b3ebdad8057939ea0b541ca87",
      "scriptpubkey_asm": "OP_HASH160 OP_PUSHBYTES_20 a4108f806c44b0675b3ebdad8057939ea0b541ca OP_EQUAL",
      "scriptpubkey_type": "p2sh",
      "scriptpubkey_address": "3GeWaejRpspi9QYuf7b9KcnZrqAFZQQ4Z1",
      "value": 37516
    },
    {
      "scriptpubkey": "00201e6602ad478d0bfe43f751d4d533d2ef443bbeafca4e209a601f68aeab6c8351",
      "scriptpubkey_asm": "OP_0 OP_PUSHBYTES_32 1e6602ad478d0bfe43f751d4d533d2ef443bbeafca4e209a601f68aeab6c8351",
      "scriptpubkey_type": "v0_p2wsh",
      "scriptpubkey_address": "bc1qrenq9t28359luslh282d2v7jaazrh040ef8zpxnqra52a2mvsdgsmq2crd",
      "value": 401498
    },
    {
      "scriptpubkey": "0014a98093d0575a17c52ef506a8a9dc98b9486ff18a",
      "scriptpubkey_asm": "OP_0 OP_PUSHBYTES_20 a98093d0575a17c52ef506a8a9dc98b9486ff18a",
      "scriptpubkey_type": "v0_p2wpkh",
      "scriptpubkey_address": "bc1q4xqf85zhtgtu2th4q652nhych9yxluv2jdycln",
      "value": 410321
    },
    {
      "scriptpubkey": "0014b614661b6f19626b1e6772f1181540e8ebbeed6f",
      "scriptpubkey_asm": "OP_0 OP_PUSHBYTES_20 b614661b6f19626b1e6772f1181540e8ebbeed6f",
      "scriptpubkey_type": "v0_p2wpkh",
      "scriptpubkey_address": "bc1qkc2xvxm0r93xk8n8wtc3s92qar4mamt0evxfxg",
      "value": 2291843
    },
    {
      "scriptpubkey": "0014f37afd927c27bc1832ef7b4301d9e2fce7864ecd",
      "scriptpubkey_asm": "OP_0 OP_PUSHBYTES_20 f37afd927c27bc1832ef7b4301d9e2fce7864ecd",
      "scriptpubkey_type": "v0_p2wpkh",
      "scriptpubkey_address": "bc1q7da0mynuy77psvh00dpsrk0zlnncvnkdsy48nt",
      "value": 183817
    }
  ],
  "size": 591,
  "weight": 2037,
  "fee": 13767,
  "status": {
    "confirmed": true,
    "block_height": 834638,
    "block_hash": "000000000000000000025f742c626208ac87e0b7d15054abb4a19ca2d735a54e",
    "block_time": 1710405325
  },
  "hex": "010000000001016e00036754790824d5630291771dffe70803569a13108910cc1c5e61c238f0930000000000ffffffff0d0e05060000000000220020089e80d6bcfd325f467fd4dd95dc7a0a8c7f7c374d3efb75e745a60deac155fde48e0e000000000017a914941df0da9217e98f9c847498856504854d46177b877a6f9e0100000000160014973584b56989dcb32409b895e40e0a9f95faefa8db3700000000000017a91482ebb2da34e551825ff783f695d5fa3449c03f9087f4f00100000000001600142b44e841eada7c7c35117bbc405770146415862ca4e202000000000017a914afc9a60ce37b2018284b4c21eb30cc5c7ed8c0bf8701050500000000001600140954c5ec993bdfdb6b055c03d197fa37f27acd17d7c103000000000016001468dcad0e0a6a7464298e4dcc26b8f261c1d9b4ee8c9200000000000017a914a4108f806c44b0675b3ebdad8057939ea0b541ca875a200600000000002200201e6602ad478d0bfe43f751d4d533d2ef443bbeafca4e209a601f68aeab6c8351d142060000000000160014a98093d0575a17c52ef506a8a9dc98b9486ff18a83f8220000000000160014b614661b6f19626b1e6772f1181540e8ebbeed6f09ce020000000000160014f37afd927c27bc1832ef7b4301d9e2fce7864ecd0247304402205bba29b065fb4a6374a031d3d154f4c7d18eb020b4ea469c9fb6b2d570069e8f02205b9378d603060b0317f85835048541a89c44abf1916daf810dffb9a276e7c23c0121023d38a0515b9a46a324e1ae57e25e67451894f3d6b14ad096420671d91a3050b400000000"
}