{
  "txid": "ce0332ba00e9781489dd0271055a8ae9149f7150cca484297399c456bd41d2a6",
  "version": 2,
  "locktime": 0,
  "vin": [
    {
      "txid": "efe16b51a6084ba64738ac0d3425761d287cefce51773fcad7dab4539399f285",
      "vout": 16,
      "prevout": {
        "scriptpubkey": "0014cc6b2b63bf089e5204a2b8e00c570f633d43fd2e",
        "scriptpubkey_asm": "OP_0 OP_PUSHBYTES_20 cc6b2b63bf089e5204a2b8e00c570f633d43fd2e",
        "scriptpubkey_type": "v0_p2wpkh",
        "scriptpubkey_address": "bc1qe34jkcalpz09yp9zhrsqc4c0vv758lfw0wa3z2",
        "value": 104000
      },
      "scriptsig": "",
      "scriptsig_asm": "",
      "witness": [
        "3045022100be0324540c6e4502926ea62de7a377ecf179816f313a501c4faa976e0e1f63250220057dbac14674f02f6a03a8690701a85ca6f8a25b9817f2165d33fc9faf22f09b01",
        "0254b448f381d22d860b54e24e9362fafe83e8b2e5fb60080851414374fecd99a9"
      ],
      "is_coinbase": false,
      "sequence": 4294967295
    },
    {
      "txid": "efe16b51a6084ba64738ac0d3425761d287cefce51773fcad7dab4539399f285",
      "vout": 12,
      "prevout": {
        "scriptpubkey": "0014cc6b2b63bf089e5204a2b8e00c570f633d43fd2e",
        "scriptpubkey_asm": "OP_0 OP_PUSHBYTES_20 cc6b2b63bf089e5204a2b8e00c570f633d43fd2e",
        "scriptpubkey_type": "v0_p2wpkh",
        "scriptpubkey_address": "bc1qe34jkcalpz09yp9zhrsqc4c0vv758lfw0wa3z2",
        "value": 104000
      },
      "scriptsig": "",
      "scriptsig_asm": "",
      "witness": [
        "304402203efcd20ae220898465beddddc3f27864e8ee778a5947f1e5519bc64bb5762dba0220066efeaad64d354ebf0223a2b60a981e87abfa26fcd6c014423797607c7e37a901",
        "0254b448f381d22d860b54e24e9362fafe83e8b2e5fb60080851414374fecd99a9"
      ],
      "is_coinbase": false,
      "sequence": 4294967295
    },
    {
      "txid": "4dedf8154a430aab5c66bd41ee7ce44d091305f9d8ab152d8c68d1114e09f2c2",
      "vout": 8,
      "prevout": {
        "scriptpubkey": "0014cc6b2b63bf089e5204a2b8e00c570f633d43fd2e",
        "scriptpubkey_asm": "OP_0 OP_PUSHBYTES_20 cc6b2b63bf089e5204a2b8e00c570f633d43fd2e",
        "scriptpubkey_type": "v0_p2wpkh",
        "scriptpubkey_address": "bc1qe34jkcalpz09yp9zhrsqc4c0vv758lfw0wa3z2",
        "value": 84000
      },
      "scriptsig": "",
      "scriptsig_asm": "",
      "witness": [
        "3045022100c57f422eaaf416ef6793d437aaf7de454791edf7a4363c26efed18fa692d0f85022015fe2700bfe812d4093d33fb358fa9454116a500ec3723f2e0e04a1cafc8e79301",
        "0254b448f381d22d860b54e24e9362fafe83e8b2e5fb60080851414374fecd99a9"
      ],
      "is_coinbase": false,
      "sequence": 4294967295
    }
  ],
  "vout": [
    {
      "scriptpubkey": "00148eb41930c171fed3e090933e2156310b72ffa86c",
      "scriptpubkey_asm": "OP_0 OP_PUSHBYTES_20 8eb41930c171fed3e090933e2156310b72ffa86c",
      "scriptpubkey_type": "v0_p2wpkh",
      "scriptpubkey_address": "bc1q366pjvxpw8ld8cysjvlzz433pde0l2rv06nnc5",
      "value": 288464
    }
  ],
  "size": 489,
  "weight": 981,
  "fee": 3536,
  "status": {
    "confirmed": true,
    "block_height": 834460,
    "block_hash": "00000000000000000000484a79b643b2524bbce82e5d8a442013fa5b8905ed98",
    "block_time": 1710307468
  },
  "hex": "0200000000010385f2999353b4dad7ca3f7751ceef7c281d7625340dac3847a64b08a6516be1ef1000000000ffffffff85f2999353b4dad7ca3f7751ceef7c281d7625340dac3847a64b08a6516be1ef0c00000000ffffffffc2f2094e11d1688c2d15abd8f90513094de47cee41bd665cab0a434a15f8ed4d0800000000ffffffff01d0660400000000001600148eb41930c171fed3e090933e2156310b72ffa86c02483045022100be0324540c6e4502926ea62de7a377ecf179816f313a501c4faa976e0e1f63250220057dbac14674f02f6a03a8690701a85ca6f8a25b9817f2165d33fc9faf22f09b01210254b448f381d22d860b54e24e9362fafe83e8b2e5fb60080851414374fecd99a90247304402203efcd20ae220898465beddddc3f27864e8ee778a5947f1e5519bc64bb5762dba0220066efeaad64d354ebf0223a2b60a981e87abfa26fcd6c014423797607c7e37a901210254b448f381d22d860b54e24e9362fafe83e8b2e5fb60080851414374fecd99a902483045022100c57f422eaaf416ef6793d437aaf7de454791edf7a4363c26efed18fa692d0f85022015fe2700bfe812d4093d33fb358fa9454116a500ec3723f2e0e04a1cafc8e79301210254b448f381d22d860b54e24e9362fafe83e8b2e5fb60080851414374fecd99a900000000"
}