{
  "txid": "ce2e97ae718f6c6b5cb537b99b511ab73f5577cb52ace204ed57c5971143b441",
  "version": 1,
  "locktime": 0,
  "vin": [
    {
      "txid": "efc9db28622a4c8a2f7487b27dfdf2999194278e964997ab249d304eb1f6c8f2",
      "vout": 3,
      "prevout": {
        "scriptpubkey": "76a91488105ce03f3942ceed5467c54e055be2968a566488ac",
        "scriptpubkey_asm": "OP_DUP OP_HASH160 OP_PUSHBYTES_20 88105ce03f3942ceed5467c54e055be2968a5664 OP_EQUALVERIFY OP_CHECKSIG",
        "scriptpubkey_type": "p2pkh",
        "scriptpubkey_address": "1DQSVzmVm4fY1cU2LFtWFfhbumXAQXULBh",
        "value": 311561
      },
      "scriptsig": "4730440220101973695cd609d4a6dc49b87767de1ac3d2880e845754916653f4aac13cd3db022004e11b379bc5911849039e2ba7beb892d794b7f6ce314df98fa37a9d0d3275ef012103ae5364605f9128ec38de7531f1b3805a004e2806daed1d9a9844d2daf4373b85",
      "scriptsig_asm": "OP_PUSHBYTES_71 30440220101973695cd609d4a6dc49b87767de1ac3d2880e845754916653f4aac13cd3db022004e11b379bc5911849039e2ba7beb892d794b7f6ce314df98fa37a9d0d3275ef01 OP_PUSHBYTES_33 03ae5364605f9128ec38de7531f1b3805a004e2806daed1d9a9844d2daf4373b85",
      "is_coinbase": false,
      "sequence": 4294967295
    }
  ],
  "vout": [
    {
      "scriptpubkey": "76a914c224901e8858137336989f68f7c0db4e8857522f88ac",
      "scriptpubkey_asm": "OP_DUP OP_HASH160 OP_PUSHBYTES_20 c224901e8858137336989f68f7c0db4e8857522f OP_EQUALVERIFY OP_CHECKSIG",
      "scriptpubkey_type": "p2pkh",
      "scriptpubkey_address": "1JhXtexmSM5ER5H4Th38JTNZ4Lyt98xoyc",
      "value": 307721
    }
  ],
  "size": 191,
  "weight": 764,
  "fee": 3840,
  "status": {
    "confirmed": true,
    "block_height": 834638,
    "block_hash": "000000000000000000025f742c626208ac87e0b7d15054abb4a19ca2d735a54e",
    "block_time": 1710405325
  },
  "hex": "0100000001f2c8f6b14e309d24ab9749968e27949199f2fd7db287742f8a4c2a6228dbc9ef030000006a4730440220101973695cd609d4a6dc49b87767de1ac3d2880e845754916653f4aac13cd3db022004e11b379bc5911849039e2ba7beb892d794b7f6ce314df98fa37a9d0d3275ef012103ae5364605f9128ec38de7531f1b3805a004e2806daed1d9a9844d2daf4373b85ffffffff0109b20400000000001976a914c224901e8858137336989f68f7c0db4e8857522f88ac00000000"
}