{
  "txid": "ce3d9d5cf8f47b944e30e0f039b42da1f42ad72bd678542b28f446101e27579c",
  "version": 2,
  "locktime": 0,
  "vin": [
    {
      "txid": "3f4718e0e734ebbfe59e4ea480771eb3936486702e99833aad577e008dbf5bd5",
      "vout": 1,
      "prevout": {
        "scriptpubkey": "00147a697b6cb23f425014efe47202a20e1e4650d11a",
        "scriptpubkey_asm": "OP_0 OP_PUSHBYTES_20 7a697b6cb23f425014efe47202a20e1e4650d11a",
        "scriptpubkey_type": "v0_p2wpkh",
        "scriptpubkey_address": "bc1q0f5hkm9j8ap9q980u3eq9gswrer9p5g6sajc46",
        "value": 3669348
      },
      "scriptsig": "",
      "scriptsig_asm": "",
      "witness": [
        "30440220056a302949e25800c01b6829b50bc10e3d72f43789c737a509e6a946f2e959c702201bf62a2679b4b6ebad232ab2be966fc11af42b5bf49bbc7d76ece467bf73751d01",
        "0352a19dcc27bab0825e5bda76914764adc88355b705e5e084c88d944ce685c2f1"
      ],
      "is_coinbase": false,
      "sequence": 4294967295
    }
  ],
  "vout": [
    {
      "scriptpubkey": "00149975bfba6a6ea35adcbef0a8eb32838f972b277a",
      "scriptpubkey_asm": "OP_0 OP_PUSHBYTES_20 9975bfba6a6ea35adcbef0a8eb32838f972b277a",
      "scriptpubkey_type": "v0_p2wpkh",
      "scriptpubkey_address": "bc1qn96mlwn2d6344h977z5wkv5r37tjkfm63xkznu",
      "value": 79599
    },
    {
      "scriptpubkey": "00147a697b6cb23f425014efe47202a20e1e4650d11a",
      "scriptpubkey_asm": "OP_0 OP_PUSHBYTES_20 7a697b6cb23f425014efe47202a20e1e4650d11a",
      "scriptpubkey_type": "v0_p2wpkh",
      "scriptpubkey_address": "bc1q0f5hkm9j8ap9q980u3eq9gswrer9p5g6sajc46",
      "value": 3584532
    }
  ],
  "size": 222,
  "weight": 561,
  "fee": 5217,
  "status": {
    "confirmed": true,
    "block_height": 834638,
    "block_hash": "000000000000000000025f742c626208ac87e0b7d15054abb4a19ca2d735a54e",
    "block_time": 1710405325
  },
  "hex": "02000000000101d55bbf8d007e57ad3a83992e70866493b31e7780a44e9ee5bfeb34e7e018473f0100000000ffffffff02ef360100000000001600149975bfba6a6ea35adcbef0a8eb32838f972b277a14b23600000000001600147a697b6cb23f425014efe47202a20e1e4650d11a024730440220056a302949e25800c01b6829b50bc10e3d72f43789c737a509e6a946f2e959c702201bf62a2679b4b6ebad232ab2be966fc11af42b5bf49bbc7d76ece467bf73751d01210352a19dcc27bab0825e5bda76914764adc88355b705e5e084c88d944ce685c2f100000000"
}