{
  "txid": "ce5182f11629e431c827bf6a72ba0974d6510ed12cde60901ce079f4f666ca27",
  "version": 2,
  "locktime": 0,
  "vin": [
    {
      "txid": "e32cc9d1a18aae4fe3fa68cff89b27c26d1ade8c7d4e2c60214f4222b5271a68",
      "vout": 1,
      "prevout": {
        "scriptpubkey": "001426799bc24e19a68bee1bccb641922bd5e359a4ef",
        "scriptpubkey_asm": "OP_0 OP_PUSHBYTES_20 26799bc24e19a68bee1bccb641922bd5e359a4ef",
        "scriptpubkey_type": "v0_p2wpkh",
        "scriptpubkey_address": "bc1qyeuehsjwrxnghmsmejmyry3t6h34nf802c23gh",
        "value": 77819
      },
      "scriptsig": "",
      "scriptsig_asm": "",
      "witness": [
        "30450221009905205fcc6a1acf0199dc29bcd1b135c04a355e85035329fb495eb28fd5d66a02203e400bfedbdbe6fee1478ee4a936bd6b301edf2070a5d05425fe6b6ad85ef2e601",
        "026496bc77007aa16da43146c68199a8b34d341e08ca4bc0210b04bd8155a687cb"
      ],
      "is_coinbase": false,
      "sequence": 4294967293
    }
  ],
  "vout": [
    {
      "scriptpubkey": "a9140df2534200687cc1ea8a3733273d1c1920bf87ba87",
      "scriptpubkey_asm": "OP_HASH160 OP_PUSHBYTES_20 0df2534200687cc1ea8a3733273d1c1920bf87ba OP_EQUAL",
      "scriptpubkey_type": "p2sh",
      "scriptpubkey_address": "32xm1693bK15YhptJsa63uhmMBakpR3cAM",
      "value": 75641
    }
  ],
  "size": 193,
  "weight": 442,
  "fee": 2178,
  "status": {
    "confirmed": true,
    "block_height": 834638,
    "block_hash": "000000000000000000025f742c626208ac87e0b7d15054abb4a19ca2d735a54e",
    "block_time": 1710405325
  },
  "hex": "02000000000101681a27b522424f21602c4e7d8cde1a6dc2279bf8cf68fae34fae8aa1d1c92ce30100000000fdffffff01792701000000000017a9140df2534200687cc1ea8a3733273d1c1920bf87ba87024830450221009905205fcc6a1acf0199dc29bcd1b135c04a355e85035329fb495eb28fd5d66a02203e400bfedbdbe6fee1478ee4a936bd6b301edf2070a5d05425fe6b6ad85ef2e60121026496bc77007aa16da43146c68199a8b34d341e08ca4bc0210b04bd8155a687cb00000000"
}