{
  "txid": "ce6c6e8ad42498e771785ded5a6cf0d60a9986fe84fe74fb8af6e3c26a2f33ad",
  "version": 2,
  "locktime": 0,
  "vin": [
    {
      "txid": "8486ecb4df0880316dd6e82b3971b4df187aff23765bc3a47f8d78bb53aa273c",
      "vout": 73,
      "prevout": {
        "scriptpubkey": "51209570ef422a3601053a9da31b855e21165f37081d23bcd7ea11a94d12c3d6f306",
        "scriptpubkey_asm": "OP_PUSHNUM_1 OP_PUSHBYTES_32 9570ef422a3601053a9da31b855e21165f37081d23bcd7ea11a94d12c3d6f306",
        "scriptpubkey_type": "v1_p2tr",
        "scriptpubkey_address": "bc1pj4cw7s32xcqs2w5a5vdc2h3pze0nwzqayw7d06s349x39s7k7vrqma8nr3",
        "value": 2575
      },
      "scriptsig": "",
      "scriptsig_asm": "",
      "witness": [
        "0f6d2049e496b1f9f36eb613e6dc5e8ea8ded5bf1f8e9fe85c321ee677e5335f5727ed8b527c29811f5a8eceeae9d16cc354c70001414304a0f7f13399353a46",
        "20976a845db22dd17bc781655df5dadcf0006bad9392cadaa7796448a5260e915aac0063036f726401010a746578742f706c61696e00367b2270223a226272632d3230222c226f70223a226d696e74222c227469636b223a2261616161222c22616d74223a223130303030227d68",
        "c1976a845db22dd17bc781655df5dadcf0006bad9392cadaa7796448a5260e915a"
      ],
      "is_coinbase": false,
      "sequence": 4261412863
    }
  ],
  "vout": [
    {
      "scriptpubkey": "0014ddd7ef12ea6f78edcc1e8e7afa12c01ab59f3339",
      "scriptpubkey_asm": "OP_0 OP_PUSHBYTES_20 ddd7ef12ea6f78edcc1e8e7afa12c01ab59f3339",
      "scriptpubkey_type": "v0_p2wpkh",
      "scriptpubkey_address": "bc1qmht77yh2dauwmnq73ea05ykqr26e7veea8spz6",
      "value": 546
    }
  ],
  "size": 295,
  "weight": 541,
  "fee": 2029,
  "status": {
    "confirmed": true,
    "block_height": 834460,
    "block_hash": "00000000000000000000484a79b643b2524bbce82e5d8a442013fa5b8905ed98",
    "block_time": 1710307468
  },
  "hex": "020000000001013c27aa53bb788d7fa4c35b7623ff7a18dfb471392be8d66d318008dfb4ec86844900000000fffffffd012202000000000000160014ddd7ef12ea6f78edcc1e8e7afa12c01ab59f333903400f6d2049e496b1f9f36eb613e6dc5e8ea8ded5bf1f8e9fe85c321ee677e5335f5727ed8b527c29811f5a8eceeae9d16cc354c70001414304a0f7f13399353a466e20976a845db22dd17bc781655df5dadcf0006bad9392cadaa7796448a5260e915aac0063036f726401010a746578742f706c61696e00367b2270223a226272632d3230222c226f70223a226d696e74222c227469636b223a2261616161222c22616d74223a223130303030227d6821c1976a845db22dd17bc781655df5dadcf0006bad9392cadaa7796448a5260e915a00000000"
}