{
  "txid": "ceb2038750e3a6026f622889e891579d4d24e91adb4c5ec9ff12e008441fa3b8",
  "version": 1,
  "locktime": 0,
  "vin": [
    {
      "txid": "e6427917e5a8c311f2284ccf589bdb91babe1abede4a02894fb55a033d4dd42e",
      "vout": 7,
      "prevout": {
        "scriptpubkey": "00206781c9942023846865d72470cb671301987faf5bb08855bb003288589a6fdc5e",
        "scriptpubkey_asm": "OP_0 OP_PUSHBYTES_32 6781c9942023846865d72470cb671301987faf5bb08855bb003288589a6fdc5e",
        "scriptpubkey_type": "v0_p2wsh",
        "scriptpubkey_address": "bc1qv7qun9pqywzxsewhy3cvkecnqxv8lt6mkzy9twcqx2y93xn0m30qhkcajk",
        "value": 105352108
      },
      "scriptsig": "",
      "scriptsig_asm": "",
      "witness": [
        "",
        "3044022054700053cef9ef527f149e4c710979b43c34078c747a601776d587a16897d68f02201256870d0977ea134510774b5b0e9df29abe92710fc3928bac7d5c2d979643e901",
        "304402201b2513c46561108b379e6455fc244fef8164c622eded54eb585286826df8ebdd0220798d068d3924a92580458fee410a28f1753663d4ce825ffb13bba4350b6108a301",
        "522103c6fb366e08aa3d129bcae119f706f218e4111dc2407bc32ca75c1bea59d4c2502102c0b9f70fb6a1e20bd661cb5e5caa96c94aa9d0086632aadc2b4da5bcef0bf53c210280ad107548daed128e61fa0c2449a9d12418ccf1aab5dbd3ba4b6624db9d1eb853ae"
      ],
      "is_coinbase": false,
      "sequence": 4294967295,
      "inner_witnessscript_asm": "OP_PUSHNUM_2 OP_PUSHBYTES_33 03c6fb366e08aa3d129bcae119f706f218e4111dc2407bc32ca75c1bea59d4c250 OP_PUSHBYTES_33 02c0b9f70fb6a1e20bd661cb5e5caa96c94aa9d0086632aadc2b4da5bcef0bf53c OP_PUSHBYTES_33 0280ad107548daed128e61fa0c2449a9d12418ccf1aab5dbd3ba4b6624db9d1eb8 OP_PUSHNUM_3 OP_CHECKMULTISIG"
    }
  ],
  "vout": [
    {
      "scriptpubkey": "76a9145f193cf8474e176d9ec0163d44e53be7c754064688ac",
      "scriptpubkey_asm": "OP_DUP OP_HASH160 OP_PUSHBYTES_20 5f193cf8474e176d9ec0163d44e53be7c7540646 OP_EQUALVERIFY OP_CHECKSIG",
      "scriptpubkey_type": "p2pkh",
      "scriptpubkey_address": "19fqRoXhAbMXy3NVcWFEjb8nWrHYWt5fyi",
      "value": 8447891
    },
    {
      "scriptpubkey": "00202bde8c8a1c40e669b1da64add5727f13a73bb48816e14f74b237ab3ee8ab0717",
      "scriptpubkey_asm": "OP_0 OP_PUSHBYTES_32 2bde8c8a1c40e669b1da64add5727f13a73bb48816e14f74b237ab3ee8ab0717",
      "scriptpubkey_type": "v0_p2wsh",
      "scriptpubkey_address": "bc1q900gezsugrnxnvw6vjka2unlzwnnhdygzms57a9jx74na69tqutsvkm39w",
      "value": 96900453
    }
  ],
  "size": 382,
  "weight": 766,
  "fee": 3764,
  "status": {
    "confirmed": true,
    "block_height": 834638,
    "block_hash": "000000000000000000025f742c626208ac87e0b7d15054abb4a19ca2d735a54e",
    "block_time": 1710405325
  },
  "hex": "010000000001012ed44d3d035ab54f89024adebe1abeba91db9b58cf4c28f211c3a8e5177942e60700000000ffffffff0293e78000000000001976a9145f193cf8474e176d9ec0163d44e53be7c754064688ac6595c605000000002200202bde8c8a1c40e669b1da64add5727f13a73bb48816e14f74b237ab3ee8ab07170400473044022054700053cef9ef527f149e4c710979b43c34078c747a601776d587a16897d68f02201256870d0977ea134510774b5b0e9df29abe92710fc3928bac7d5c2d979643e90147304402201b2513c46561108b379e6455fc244fef8164c622eded54eb585286826df8ebdd0220798d068d3924a92580458fee410a28f1753663d4ce825ffb13bba4350b6108a30169522103c6fb366e08aa3d129bcae119f706f218e4111dc2407bc32ca75c1bea59d4c2502102c0b9f70fb6a1e20bd661cb5e5caa96c94aa9d0086632aadc2b4da5bcef0bf53c210280ad107548daed128e61fa0c2449a9d12418ccf1aab5dbd3ba4b6624db9d1eb853ae00000000"
}