{
  "txid": "ceb86ea9ec7653638ba175b0fedc9290463fa65aefb7e776eb79de1ea44b4eb8",
  "version": 2,
  "locktime": 0,
  "vin": [
    {
      "txid": "ebac42450a1608452b3803a325a92fcfd589c3abaed3a39fac92c83a09bb8a0b",
      "vout": 0,
      "prevout": {
        "scriptpubkey": "5120eab4b8c658be75cf92c44b38067cc6b2403533ce882fed9365634ff98a138514",
        "scriptpubkey_asm": "OP_PUSHNUM_1 OP_PUSHBYTES_32 eab4b8c658be75cf92c44b38067cc6b2403533ce882fed9365634ff98a138514",
        "scriptpubkey_type": "v1_p2tr",
        "scriptpubkey_address": "bc1pa26t33jche6ulykyfvuqvlxxkfqr2v7w3qh7mym9vd8lnzsns52qd249vm",
        "value": 2218
      },
      "scriptsig": "",
      "scriptsig_asm": "",
      "witness": [
        "fb375f994ae0f3932163dae5dfdaadf76f3776892770fb6d86786f6b85e6cecfc9cbdf6013fba8339e3d6441d82e31177676db18252534e2d98d4dbf245e29d2",
        "203229be241ee7e7e60e84d6e7f7fbefa1837a9bafbbe9dd47ed62f399af1c3b0cac0063036f7264010118746578742f706c61696e3b636861727365743d7574662d38003a7b2270223a226272632d3230222c226f70223a227472616e73666572222c227469636b223a2244657044222c22616d74223a223530303030227d68",
        "c03229be241ee7e7e60e84d6e7f7fbefa1837a9bafbbe9dd47ed62f399af1c3b0c"
      ],
      "is_coinbase": false,
      "sequence": 4294967293
    }
  ],
  "vout": [
    {
      "scriptpubkey": "51209fc5f0a829654ec50303aa44f89982dfbbe0f33d1869afeee53bf38f057f8132",
      "scriptpubkey_asm": "OP_PUSHNUM_1 OP_PUSHBYTES_32 9fc5f0a829654ec50303aa44f89982dfbbe0f33d1869afeee53bf38f057f8132",
      "scriptpubkey_type": "v1_p2tr",
      "scriptpubkey_address": "bc1pnlzlp2pfv48v2qcr4fz03xvzm7a7puearp56lmh980ec7ptlsyeqxz2num",
      "value": 546
    }
  ],
  "size": 325,
  "weight": 607,
  "fee": 1672,
  "status": {
    "confirmed": true,
    "block_height": 834464,
    "block_hash": "0000000000000000000177a0869a911a2b65c9bdcd5a8bcb02b68f305bee848e",
    "block_time": 1710308296
  },
  "hex": "020000000001010b8abb093ac892ac9fa3d3aeabc389d5cf2fa925a303382b4508160a4542aceb0000000000fdffffff0122020000000000002251209fc5f0a829654ec50303aa44f89982dfbbe0f33d1869afeee53bf38f057f81320340fb375f994ae0f3932163dae5dfdaadf76f3776892770fb6d86786f6b85e6cecfc9cbdf6013fba8339e3d6441d82e31177676db18252534e2d98d4dbf245e29d280203229be241ee7e7e60e84d6e7f7fbefa1837a9bafbbe9dd47ed62f399af1c3b0cac0063036f7264010118746578742f706c61696e3b636861727365743d7574662d38003a7b2270223a226272632d3230222c226f70223a227472616e73666572222c227469636b223a2244657044222c22616d74223a223530303030227d6821c03229be241ee7e7e60e84d6e7f7fbefa1837a9bafbbe9dd47ed62f399af1c3b0c00000000"
}