{
  "txid": "cebdc4941806c8ecc36c379533379ca8f218bfb62c30db64ceeeb82bdf14fe88",
  "version": 1,
  "locktime": 0,
  "vin": [
    {
      "txid": "491b55873b1992665a2c6cc19763282797c7da6efb79b1ee9fd6300a8c1838cc",
      "vout": 1,
      "prevout": {
        "scriptpubkey": "0014ec437953979f3bcb687a562dcd0f49f947d700d5",
        "scriptpubkey_asm": "OP_0 OP_PUSHBYTES_20 ec437953979f3bcb687a562dcd0f49f947d700d5",
        "scriptpubkey_type": "v0_p2wpkh",
        "scriptpubkey_address": "bc1qa3phj5uhnuauk6r62cku6r6fl9rawqx4n6d690",
        "value": 9774118866
      },
      "scriptsig": "",
      "scriptsig_asm": "",
      "witness": [
        "3045022100b22a5d107b21bf88f478659b5b40f926c6ab806192f72e24b78cfe4a8ec287d1022042924c87f2e22a2185703e581461d4227b0d5a8ed7365199bec801294c41146001",
        "0386d7ac9fe71487e5e8c44bf0d39be679d9074f04d0a28d968e164bd9539161ef"
      ],
      "is_coinbase": false,
      "sequence": 4294967295
    }
  ],
  "vout": [
    {
      "scriptpubkey": "a914cec524c807624a33dd4b1c819b422abdc1b2c21687",
      "scriptpubkey_asm": "OP_HASH160 OP_PUSHBYTES_20 cec524c807624a33dd4b1c819b422abdc1b2c216 OP_EQUAL",
      "scriptpubkey_type": "p2sh",
      "scriptpubkey_address": "3LYKHqtHwZ37rS1EtagYTYPAfC1syGY8X1",
      "value": 3644052
    },
    {
      "scriptpubkey": "0014ec437953979f3bcb687a562dcd0f49f947d700d5",
      "scriptpubkey_asm": "OP_0 OP_PUSHBYTES_20 ec437953979f3bcb687a562dcd0f49f947d700d5",
      "scriptpubkey_type": "v0_p2wpkh",
      "scriptpubkey_address": "bc1qa3phj5uhnuauk6r62cku6r6fl9rawqx4n6d690",
      "value": 9770472428
    }
  ],
  "size": 224,
  "weight": 566,
  "fee": 2386,
  "status": {
    "confirmed": true,
    "block_height": 834638,
    "block_hash": "000000000000000000025f742c626208ac87e0b7d15054abb4a19ca2d735a54e",
    "block_time": 1710405325
  },
  "hex": "01000000000101cc38188c0a30d69feeb179fb6edac79727286397c16c2c5a6692193b87551b490100000000ffffffff02949a37000000000017a914cec524c807624a33dd4b1c819b422abdc1b2c21687ec935d4602000000160014ec437953979f3bcb687a562dcd0f49f947d700d502483045022100b22a5d107b21bf88f478659b5b40f926c6ab806192f72e24b78cfe4a8ec287d1022042924c87f2e22a2185703e581461d4227b0d5a8ed7365199bec801294c41146001210386d7ac9fe71487e5e8c44bf0d39be679d9074f04d0a28d968e164bd9539161ef00000000"
}