{
  "txid": "ceceb24f0214c8ecc9f5c9575e8c80102db4992805a47555155ce3aa4e4523e0",
  "version": 2,
  "locktime": 0,
  "vin": [
    {
      "txid": "acc3ba00869acb582a3f2904ce3a11dd3779350ce234063fc7d0959246213364",
      "vout": 199,
      "prevout": {
        "scriptpubkey": "51206ab105001fbe9f0da488f1ec05c1d97b219b47f72bf1d1ce794439ea49674d51",
        "scriptpubkey_asm": "OP_PUSHNUM_1 OP_PUSHBYTES_32 6ab105001fbe9f0da488f1ec05c1d97b219b47f72bf1d1ce794439ea49674d51",
        "scriptpubkey_type": "v1_p2tr",
        "scriptpubkey_address": "bc1pd2cs2qqlh60smfyg78kqtswe0vsek3lh90carnnegsu75jt8f4gs8r96ge",
        "value": 1806
      },
      "scriptsig": "",
      "scriptsig_asm": "",
      "witness": [
        "5fb16e72a347dbac26f2bf978b40c65c5153c0fdaab50fad42525ddc842be2433a4c862e2cc25770ed748e600ab4a494b275d996447e0e037b949b7b4c71e676",
        "20cc5f8b8112546d5cc108b2f418cbf2e58c6ae3462eb2f568a5147ef11a47d74aac0063036f726401010a746578742f706c61696e00357b2270223a226272632d3230222c226f70223a226d696e74222c227469636b223a22646f6765222c22616d74223a2234323030227d68",
        "c0cc5f8b8112546d5cc108b2f418cbf2e58c6ae3462eb2f568a5147ef11a47d74a"
      ],
      "is_coinbase": false,
      "sequence": 4261412863
    }
  ],
  "vout": [
    {
      "scriptpubkey": "00147a665de7a370f4c9b372ab1fae587500a5bcbdb4",
      "scriptpubkey_asm": "OP_0 OP_PUSHBYTES_20 7a665de7a370f4c9b372ab1fae587500a5bcbdb4",
      "scriptpubkey_type": "v0_p2wpkh",
      "scriptpubkey_address": "bc1q0fn9mearwr6vnvmj4v06ukr4qzjme0d565dzcx",
      "value": 294
    }
  ],
  "size": 294,
  "weight": 540,
  "fee": 1512,
  "status": {
    "confirmed": true,
    "block_height": 834460,
    "block_hash": "00000000000000000000484a79b643b2524bbce82e5d8a442013fa5b8905ed98",
    "block_time": 1710307468
  },
  "hex": "02000000000101643321469295d0c73f0634e20c357937dd113ace04293f2a58cb9a8600bac3acc700000000fffffffd0126010000000000001600147a665de7a370f4c9b372ab1fae587500a5bcbdb403405fb16e72a347dbac26f2bf978b40c65c5153c0fdaab50fad42525ddc842be2433a4c862e2cc25770ed748e600ab4a494b275d996447e0e037b949b7b4c71e6766d20cc5f8b8112546d5cc108b2f418cbf2e58c6ae3462eb2f568a5147ef11a47d74aac0063036f726401010a746578742f706c61696e00357b2270223a226272632d3230222c226f70223a226d696e74222c227469636b223a22646f6765222c22616d74223a2234323030227d6821c0cc5f8b8112546d5cc108b2f418cbf2e58c6ae3462eb2f568a5147ef11a47d74a00000000"
}