{
  "txid": "ced856f750aabeefbab75dbc00f528490732bbec8bdb0f7ee4c429428c489d03",
  "version": 2,
  "locktime": 0,
  "vin": [
    {
      "txid": "06190c14c90f80229102c9d874030f211df14950f751519200b7ff375997b64f",
      "vout": 1,
      "prevout": {
        "scriptpubkey": "00142fe7f7690ad0eaec1bb9cc1ab1e8b0c2ef9605c0",
        "scriptpubkey_asm": "OP_0 OP_PUSHBYTES_20 2fe7f7690ad0eaec1bb9cc1ab1e8b0c2ef9605c0",
        "scriptpubkey_type": "v0_p2wpkh",
        "scriptpubkey_address": "bc1q9lnlw6g26r4wcxaeesdtr69scthevpwqrqpgem",
        "value": 481568
      },
      "scriptsig": "",
      "scriptsig_asm": "",
      "witness": [
        "3045022100e4f9f21f68f99f79a3239ec60680908aaada126f7efd856383ab1e4ef4b877d7022021a51fb9c679fae8b3043255f72ad3a2d8f41073d51472dff3ffed5b1dd9568c01",
        "021fe2a0aad3adf66d544d38854d225467e0a1df03bc9d3bc60c129890b23ab355"
      ],
      "is_coinbase": false,
      "sequence": 4294967293
    }
  ],
  "vout": [
    {
      "scriptpubkey": "0014c9f0b1a75c23b1d2175f9ec429740c69ed566711",
      "scriptpubkey_asm": "OP_0 OP_PUSHBYTES_20 c9f0b1a75c23b1d2175f9ec429740c69ed566711",
      "scriptpubkey_type": "v0_p2wpkh",
      "scriptpubkey_address": "bc1qe8ctrf6uywcay96lnmzzjaqvd8k4vec3tssz6u",
      "value": 118725
    },
    {
      "scriptpubkey": "00149045d4a5b170ea5a4d90620372cbf213b57834a1",
      "scriptpubkey_asm": "OP_0 OP_PUSHBYTES_20 9045d4a5b170ea5a4d90620372cbf213b57834a1",
      "scriptpubkey_type": "v0_p2wpkh",
      "scriptpubkey_address": "bc1qjpzaffd3wr495nvsvgph9jljzw6hsd9pj6zuvp",
      "value": 358379
    }
  ],
  "size": 223,
  "weight": 562,
  "fee": 4464,
  "status": {
    "confirmed": true,
    "block_height": 834638,
    "block_hash": "000000000000000000025f742c626208ac87e0b7d15054abb4a19ca2d735a54e",
    "block_time": 1710405325
  },
  "hex": "020000000001014fb6975937ffb700925151f75049f11d210f0374d8c9029122800fc9140c19060100000000fdffffff02c5cf010000000000160014c9f0b1a75c23b1d2175f9ec429740c69ed566711eb770500000000001600149045d4a5b170ea5a4d90620372cbf213b57834a102483045022100e4f9f21f68f99f79a3239ec60680908aaada126f7efd856383ab1e4ef4b877d7022021a51fb9c679fae8b3043255f72ad3a2d8f41073d51472dff3ffed5b1dd9568c0121021fe2a0aad3adf66d544d38854d225467e0a1df03bc9d3bc60c129890b23ab35500000000"
}