{
  "txid": "cef5b6662ed578e7ea673c6f340218ec48495e62063832e9c07f9d1f87ab7f8c",
  "version": 2,
  "locktime": 0,
  "vin": [
    {
      "txid": "2e0c5312e51ec5273dc4f97d4dee37750ae468f5843098b662967f513bbf78db",
      "vout": 1,
      "prevout": {
        "scriptpubkey": "76a914869b07280c4b7daf9529a573e468885d143260eb88ac",
        "scriptpubkey_asm": "OP_DUP OP_HASH160 OP_PUSHBYTES_20 869b07280c4b7daf9529a573e468885d143260eb OP_EQUALVERIFY OP_CHECKSIG",
        "scriptpubkey_type": "p2pkh",
        "scriptpubkey_address": "1DGjGEiJYu5TejxuLMuac8LNbt24w5bdtt",
        "value": 4200000
      },
      "scriptsig": "47304402204d6c11cca86dcb09d1c7ab88a9400f69bfc15e37478239115a5da55da3d71c810220123c4914792096eb853f0a1bbdea63de1a89d20430192bfbb659a650d3e782ea012102cda12cc55e2127ef868c35430da2b7ac616fd8d6de4e64fa621a03e763a5bb39",
      "scriptsig_asm": "OP_PUSHBYTES_71 304402204d6c11cca86dcb09d1c7ab88a9400f69bfc15e37478239115a5da55da3d71c810220123c4914792096eb853f0a1bbdea63de1a89d20430192bfbb659a650d3e782ea01 OP_PUSHBYTES_33 02cda12cc55e2127ef868c35430da2b7ac616fd8d6de4e64fa621a03e763a5bb39",
      "is_coinbase": false,
      "sequence": 4294967293
    },
    {
      "txid": "982cb66c4fb6fbee29b21b330e974adb8520a9e86f3390d80b48e5fe686860e0",
      "vout": 1,
      "prevout": {
        "scriptpubkey": "76a91470f0c2cb4f628727cdab759e2f8a376bcc7a303288ac",
        "scriptpubkey_asm": "OP_DUP OP_HASH160 OP_PUSHBYTES_20 70f0c2cb4f628727cdab759e2f8a376bcc7a3032 OP_EQUALVERIFY OP_CHECKSIG",
        "scriptpubkey_type": "p2pkh",
        "scriptpubkey_address": "1BJB6r75DqLWBY9nH81Y2DznPRRHPJW1X2",
        "value": 207426
      },
      "scriptsig": "483045022100fc49c02c6f726ed825cfd4dc2e52ee2e894266086f0993a467bbc5efcbf9f1b502203e60011c735abb940c9973c6e69e1a419a0f733e3f705c58bc10f3ec5f949c41012102fa12682944ee5341e857c8e58e0d37788a239ae89ff73af26994edabc5a793af",
      "scriptsig_asm": "OP_PUSHBYTES_72 3045022100fc49c02c6f726ed825cfd4dc2e52ee2e894266086f0993a467bbc5efcbf9f1b502203e60011c735abb940c9973c6e69e1a419a0f733e3f705c58bc10f3ec5f949c4101 OP_PUSHBYTES_33 02fa12682944ee5341e857c8e58e0d37788a239ae89ff73af26994edabc5a793af",
      "is_coinbase": false,
      "sequence": 4294967293
    },
    {
      "txid": "ad1a6659f1823eddfb3b10c481b75781a001ff7b1e87fc743cc2198599043de4",
      "vout": 0,
      "prevout": {
        "scriptpubkey": "76a914d19ea5abd8a7181066b8fc194ef6a28b90eaaf9888ac",
        "scriptpubkey_asm": "OP_DUP OP_HASH160 OP_PUSHBYTES_20 d19ea5abd8a7181066b8fc194ef6a28b90eaaf98 OP_EQUALVERIFY OP_CHECKSIG",
        "scriptpubkey_type": "p2pkh",
        "scriptpubkey_address": "1L7NH6DqcEcrv2sPwvn4FGeijrXwrgSiKQ",
        "value": 1217687
      },
      "scriptsig": "47304402201789c4bb360ab722056a7003f2699276e13e508718cf3c78dfbfdc2eb980d13002206c7c9c7123b9a849c1d2313a4afdccd16de71da9ebea272ca0a7aa6b0077e5390121031da2275fee75aab41aa19f6a1ca66e8dbb1ce974f20a0b7a1f2eb8d33565c75c",
      "scriptsig_asm": "OP_PUSHBYTES_71 304402201789c4bb360ab722056a7003f2699276e13e508718cf3c78dfbfdc2eb980d13002206c7c9c7123b9a849c1d2313a4afdccd16de71da9ebea272ca0a7aa6b0077e53901 OP_PUSHBYTES_33 031da2275fee75aab41aa19f6a1ca66e8dbb1ce974f20a0b7a1f2eb8d33565c75c",
      "is_coinbase": false,
      "sequence": 4294967293
    }
  ],
  "vout": [
    {
      "scriptpubkey": "76a914edba802bcafeb7ddf04e5e48bd22d6a312675ac988ac",
      "scriptpubkey_asm": "OP_DUP OP_HASH160 OP_PUSHBYTES_20 edba802bcafeb7ddf04e5e48bd22d6a312675ac9 OP_EQUALVERIFY OP_CHECKSIG",
      "scriptpubkey_type": "p2pkh",
      "scriptpubkey_address": "1NfzZkvwBJiwNEQdxza1DEZcdGLGm2Qizc",
      "value": 5609985
    }
  ],
  "size": 486,
  "weight": 1944,
  "fee": 15128,
  "status": {
    "confirmed": true,
    "block_height": 834638,
    "block_hash": "000000000000000000025f742c626208ac87e0b7d15054abb4a19ca2d735a54e",
    "block_time": 1710405325
  },
  "hex": "0200000003db78bf3b517f9662b6983084f568e40a7537ee4d7df9c43d27c51ee512530c2e010000006a47304402204d6c11cca86dcb09d1c7ab88a9400f69bfc15e37478239115a5da55da3d71c810220123c4914792096eb853f0a1bbdea63de1a89d20430192bfbb659a650d3e782ea012102cda12cc55e2127ef868c35430da2b7ac616fd8d6de4e64fa621a03e763a5bb39fdffffffe0606868fee5480bd890336fe8a92085db4a970e331bb229eefbb64f6cb62c98010000006b483045022100fc49c02c6f726ed825cfd4dc2e52ee2e894266086f0993a467bbc5efcbf9f1b502203e60011c735abb940c9973c6e69e1a419a0f733e3f705c58bc10f3ec5f949c41012102fa12682944ee5341e857c8e58e0d37788a239ae89ff73af26994edabc5a793affdffffffe43d04998519c23c74fc871e7bff01a08157b781c4103bfbdd3e82f159661aad000000006a47304402201789c4bb360ab722056a7003f2699276e13e508718cf3c78dfbfdc2eb980d13002206c7c9c7123b9a849c1d2313a4afdccd16de71da9ebea272ca0a7aa6b0077e5390121031da2275fee75aab41aa19f6a1ca66e8dbb1ce974f20a0b7a1f2eb8d33565c75cfdffffff01019a5500000000001976a914edba802bcafeb7ddf04e5e48bd22d6a312675ac988ac00000000"
}