{
  "txid": "cef7d3a0e0eab7cd1793003c1d5863bc165af3ec845a12c9c5e45774cca203c4",
  "version": 2,
  "locktime": 0,
  "vin": [
    {
      "txid": "c816fb1a46e97bc1736a2144d57d9b7c61202685325e4902077ac08afe66db1e",
      "vout": 0,
      "prevout": {
        "scriptpubkey": "5120bba47ec95d90868b14ba3137fb090ed0c3bb0828b741852f7cebbefbbf5e49a9",
        "scriptpubkey_asm": "OP_PUSHNUM_1 OP_PUSHBYTES_32 bba47ec95d90868b14ba3137fb090ed0c3bb0828b741852f7cebbefbbf5e49a9",
        "scriptpubkey_type": "v1_p2tr",
        "scriptpubkey_address": "bc1phwj8aj2ajzrgk996xymlkzgw6rpmkzpgkaqc2tmuawl0h067fx5syyfnnh",
        "value": 2994
      },
      "scriptsig": "",
      "scriptsig_asm": "",
      "witness": [
        "22eef9fa7d0e642ee83749f368c6985a07e6752a5f1ec400b191f9a87531c60bd69112fb24c175288a2287a25ae426fc2b2d2cb0df8321d53dd2557192ca33ab",
        "20bb3a9b326a874c62ca9cabee456a4432a43c2eb40ad51973a2ee4c0d61302c39ac0063036f7264010118746578742f706c61696e3b636861727365743d7574662d38003e7b2270223a226272632d3230222c226f70223a227472616e73666572222c227469636b223a2267617374222c22616d74223a22313531342e32333532227d68",
        "c1bb3a9b326a874c62ca9cabee456a4432a43c2eb40ad51973a2ee4c0d61302c39"
      ],
      "is_coinbase": false,
      "sequence": 4294967293
    }
  ],
  "vout": [
    {
      "scriptpubkey": "5120515b769f11d0a4e969f4c83a72ef236920a37c8c40ff63e07750c7a700442237",
      "scriptpubkey_asm": "OP_PUSHNUM_1 OP_PUSHBYTES_32 515b769f11d0a4e969f4c83a72ef236920a37c8c40ff63e07750c7a700442237",
      "scriptpubkey_type": "v1_p2tr",
      "scriptpubkey_address": "bc1p29dhd8c36zjwj605eqa89merdys2xlyvgrlk8crh2rr6wqzyygmsalv86t",
      "value": 546
    }
  ],
  "size": 329,
  "weight": 611,
  "fee": 2448,
  "status": {
    "confirmed": true,
    "block_height": 834638,
    "block_hash": "000000000000000000025f742c626208ac87e0b7d15054abb4a19ca2d735a54e",
    "block_time": 1710405325
  },
  "hex": "020000000001011edb66fe8ac07a0702495e32852620617c9b7dd544216a73c17be9461afb16c80000000000fdffffff012202000000000000225120515b769f11d0a4e969f4c83a72ef236920a37c8c40ff63e07750c7a700442237034022eef9fa7d0e642ee83749f368c6985a07e6752a5f1ec400b191f9a87531c60bd69112fb24c175288a2287a25ae426fc2b2d2cb0df8321d53dd2557192ca33ab8420bb3a9b326a874c62ca9cabee456a4432a43c2eb40ad51973a2ee4c0d61302c39ac0063036f7264010118746578742f706c61696e3b636861727365743d7574662d38003e7b2270223a226272632d3230222c226f70223a227472616e73666572222c227469636b223a2267617374222c22616d74223a22313531342e32333532227d6821c1bb3a9b326a874c62ca9cabee456a4432a43c2eb40ad51973a2ee4c0d61302c3900000000"
}