{
  "txid": "cf0e274c70ebaee91a66d6811fed32e503710ba405f32966cea37de5053463c1",
  "version": 2,
  "locktime": 0,
  "vin": [
    {
      "txid": "f95912bc5151eb4d467dd51110ccb0e1e44189d58fa3c833fdaff209418f9215",
      "vout": 6,
      "prevout": {
        "scriptpubkey": "0014e748f53dbbb3c317782c144a2dea7dbb440a0714",
        "scriptpubkey_asm": "OP_0 OP_PUSHBYTES_20 e748f53dbbb3c317782c144a2dea7dbb440a0714",
        "scriptpubkey_type": "v0_p2wpkh",
        "scriptpubkey_address": "bc1quay020dmk0p3w7pvz39zm6nahdzq5pc5c0dm6u",
        "value": 730425
      },
      "scriptsig": "",
      "scriptsig_asm": "",
      "witness": [
        "304402204ac98008fcbe7deedfba2cb1bffac8fe51715f96486fe1def0935230b534e0c402201339f26fa63550d01f32cb216cc9ae32f8742072dcd962c7a4daba8126f7f8f301",
        "03ca25b681563e6acde7633f07215bd084241acc6a1699378e7eed893b829e8eac"
      ],
      "is_coinbase": false,
      "sequence": 4294967295
    },
    {
      "txid": "92bcc21de81583023c2ca64e4e021f8f04a932ff4fdb9e576a50fbb76fa8f62b",
      "vout": 1,
      "prevout": {
        "scriptpubkey": "0014e748f53dbbb3c317782c144a2dea7dbb440a0714",
        "scriptpubkey_asm": "OP_0 OP_PUSHBYTES_20 e748f53dbbb3c317782c144a2dea7dbb440a0714",
        "scriptpubkey_type": "v0_p2wpkh",
        "scriptpubkey_address": "bc1quay020dmk0p3w7pvz39zm6nahdzq5pc5c0dm6u",
        "value": 667396
      },
      "scriptsig": "",
      "scriptsig_asm": "",
      "witness": [
        "30450221009d7561e68cbb5c8908fd3cb9792a4e6c8de9cfc8bae5be5ca4e627d2337d35270220166c73bb6e004dec235c538bf21f9b63253ef922bd559f97cbd980d4c65452b701",
        "03ca25b681563e6acde7633f07215bd084241acc6a1699378e7eed893b829e8eac"
      ],
      "is_coinbase": false,
      "sequence": 4294967295
    },
    {
      "txid": "206a8051058fdec564514ca9476fe78d66856b1244b32dba8a4fc6acc29066e7",
      "vout": 6,
      "prevout": {
        "scriptpubkey": "0014e748f53dbbb3c317782c144a2dea7dbb440a0714",
        "scriptpubkey_asm": "OP_0 OP_PUSHBYTES_20 e748f53dbbb3c317782c144a2dea7dbb440a0714",
        "scriptpubkey_type": "v0_p2wpkh",
        "scriptpubkey_address": "bc1quay020dmk0p3w7pvz39zm6nahdzq5pc5c0dm6u",
        "value": 624502
      },
      "scriptsig": "",
      "scriptsig_asm": "",
      "witness": [
        "3045022100dd4312d65d4a5a8d483f4e9651b1eb962376e0c6b2262a47d5752dc39ad7f3930220648e8e20d17c40b86c84c34a6a5824b23ab400bc769b8700b3d430233fae3b1301",
        "03ca25b681563e6acde7633f07215bd084241acc6a1699378e7eed893b829e8eac"
      ],
      "is_coinbase": false,
      "sequence": 4294967295
    }
  ],
  "vout": [
    {
      "scriptpubkey": "001490dc899f4739fa1e160c805b27fbc19021425056",
      "scriptpubkey_asm": "OP_0 OP_PUSHBYTES_20 90dc899f4739fa1e160c805b27fbc19021425056",
      "scriptpubkey_type": "v0_p2wpkh",
      "scriptpubkey_address": "bc1qjrwgn86888apu9svspdj077pjqs5y5zknzr6tr",
      "value": 1500000
    },
    {
      "scriptpubkey": "0014e748f53dbbb3c317782c144a2dea7dbb440a0714",
      "scriptpubkey_asm": "OP_0 OP_PUSHBYTES_20 e748f53dbbb3c317782c144a2dea7dbb440a0714",
      "scriptpubkey_type": "v0_p2wpkh",
      "scriptpubkey_address": "bc1quay020dmk0p3w7pvz39zm6nahdzq5pc5c0dm6u",
      "value": 518999
    }
  ],
  "size": 520,
  "weight": 1105,
  "fee": 3324,
  "status": {
    "confirmed": true,
    "block_height": 834460,
    "block_hash": "00000000000000000000484a79b643b2524bbce82e5d8a442013fa5b8905ed98",
    "block_time": 1710307468
  },
  "hex": "0200000000010315928f4109f2affd33c8a38fd58941e4e1b0cc1011d57d464deb5151bc1259f90600000000ffffffff2bf6a86fb7fb506a579edb4fff32a9048f1f024e4ea62c3c028315e81dc2bc920100000000ffffffffe76690c2acc64f8aba2db344126b85668de76f47a94c5164c5de8f0551806a200600000000ffffffff0260e316000000000016001490dc899f4739fa1e160c805b27fbc1902142505657eb070000000000160014e748f53dbbb3c317782c144a2dea7dbb440a07140247304402204ac98008fcbe7deedfba2cb1bffac8fe51715f96486fe1def0935230b534e0c402201339f26fa63550d01f32cb216cc9ae32f8742072dcd962c7a4daba8126f7f8f3012103ca25b681563e6acde7633f07215bd084241acc6a1699378e7eed893b829e8eac024830450221009d7561e68cbb5c8908fd3cb9792a4e6c8de9cfc8bae5be5ca4e627d2337d35270220166c73bb6e004dec235c538bf21f9b63253ef922bd559f97cbd980d4c65452b7012103ca25b681563e6acde7633f07215bd084241acc6a1699378e7eed893b829e8eac02483045022100dd4312d65d4a5a8d483f4e9651b1eb962376e0c6b2262a47d5752dc39ad7f3930220648e8e20d17c40b86c84c34a6a5824b23ab400bc769b8700b3d430233fae3b13012103ca25b681563e6acde7633f07215bd084241acc6a1699378e7eed893b829e8eac00000000"
}