{
  "txid": "cf21a36378743b525acb83d9ed3256fb0f2f08553358beb4729726265272f1f4",
  "version": 2,
  "locktime": 0,
  "vin": [
    {
      "txid": "09c763b8e5dc8af219717c009ed0e2675caf8dd27f5e0bcde530cf7a59b0f5c5",
      "vout": 105,
      "prevout": {
        "scriptpubkey": "001403bbc0ad86b9af3955639d3853f32ce3516206b9",
        "scriptpubkey_asm": "OP_0 OP_PUSHBYTES_20 03bbc0ad86b9af3955639d3853f32ce3516206b9",
        "scriptpubkey_type": "v0_p2wpkh",
        "scriptpubkey_address": "bc1qqwauptvxhxhnj4trn5u98uevudgkyp4ex3d7ct",
        "value": 83183571
      },
      "scriptsig": "",
      "scriptsig_asm": "",
      "witness": [
        "3044022011906a34198eb55588d2dfcfe6ed724b01f80d05fd92e4f83ba086527e45daee022071f027b7fcbe6e488948ee1d28335350d5731e0a437ba756fde4d451534860c101",
        "02988706524d46d96e5388f9ee010c832d6ecf68791d3831a17493b49e50026020"
      ],
      "is_coinbase": false,
      "sequence": 4294967295
    }
  ],
  "vout": [
    {
      "scriptpubkey": "00141f28d05edfc8c24353edeba4b08f2611c918ea54",
      "scriptpubkey_asm": "OP_0 OP_PUSHBYTES_20 1f28d05edfc8c24353edeba4b08f2611c918ea54",
      "scriptpubkey_type": "v0_p2wpkh",
      "scriptpubkey_address": "bc1qru5dqhklerpyx5ldawjtprexz8y336j58vz498",
      "value": 32154
    },
    {
      "scriptpubkey": "0014e1327f00621ac1819b60e73fab345535858ae296",
      "scriptpubkey_asm": "OP_0 OP_PUSHBYTES_20 e1327f00621ac1819b60e73fab345535858ae296",
      "scriptpubkey_type": "v0_p2wpkh",
      "scriptpubkey_address": "bc1quye87qrzrtqcrxmquul6kdz4xkzc4c5kgre2eh",
      "value": 41410
    },
    {
      "scriptpubkey": "0014a8683beede69ea5647daf82774982471df0b461d",
      "scriptpubkey_asm": "OP_0 OP_PUSHBYTES_20 a8683beede69ea5647daf82774982471df0b461d",
      "scriptpubkey_type": "v0_p2wpkh",
      "scriptpubkey_address": "bc1q4p5rhmk7d849v376lqnhfxpyw80sk3say2sstv",
      "value": 127574
    },
    {
      "scriptpubkey": "a9148c7964297b6c9907909e3c1a358b2ea717ffae6587",
      "scriptpubkey_asm": "OP_HASH160 OP_PUSHBYTES_20 8c7964297b6c9907909e3c1a358b2ea717ffae65 OP_EQUAL",
      "scriptpubkey_type": "p2sh",
      "scriptpubkey_address": "3EVmwp5SWMXiLLmkpkQBx8ZCUhg8B5DP35",
      "value": 37428
    },
    {
      "scriptpubkey": "76a91476e947a3af9e7a82b3a2bbbcfcb6052a666a0a6088ac",
      "scriptpubkey_asm": "OP_DUP OP_HASH160 OP_PUSHBYTES_20 76e947a3af9e7a82b3a2bbbcfcb6052a666a0a60 OP_EQUALVERIFY OP_CHECKSIG",
      "scriptpubkey_type": "p2pkh",
      "scriptpubkey_address": "1BqkCCofE7c1ER7hyYnKBuYEqcZ9VF4RWV",
      "value": 2671121
    },
    {
      "scriptpubkey": "00145142aebd573a28bbbd70bfe6a9fb0c0e822f8a51",
      "scriptpubkey_asm": "OP_0 OP_PUSHBYTES_20 5142aebd573a28bbbd70bfe6a9fb0c0e822f8a51",
      "scriptpubkey_type": "v0_p2wpkh",
      "scriptpubkey_address": "bc1q29p2a02h8g5th0tshln2n7cvp6pzlzj3ylfdzs",
      "value": 694066
    },
    {
      "scriptpubkey": "0014a7e86cf2e7bd63fe38208e541ce4f89dd3a92447",
      "scriptpubkey_asm": "OP_0 OP_PUSHBYTES_20 a7e86cf2e7bd63fe38208e541ce4f89dd3a92447",
      "scriptpubkey_type": "v0_p2wpkh",
      "scriptpubkey_address": "bc1q5l5xeuh8h43luwpq3e2pee8cnhf6jfz8wlk9nq",
      "value": 34051
    },
    {
      "scriptpubkey": "0014ec2a6cba03d246049f4a65c6ecc3ba9f2302c607",
      "scriptpubkey_asm": "OP_0 OP_PUSHBYTES_20 ec2a6cba03d246049f4a65c6ecc3ba9f2302c607",
      "scriptpubkey_type": "v0_p2wpkh",
      "scriptpubkey_address": "bc1qas4xewsr6frqf862vhrwesa6nu3s93s8wwnq5d",
      "value": 301196
    },
    {
      "scriptpubkey": "a9146c4181850f04a34e16fc30a92ff982820d37a22687",
      "scriptpubkey_asm": "OP_HASH160 OP_PUSHBYTES_20 6c4181850f04a34e16fc30a92ff982820d37a226 OP_EQUAL",
      "scriptpubkey_type": "p2sh",
      "scriptpubkey_address": "3BZRNhBsYn8ohEJ5cTKtujtRiWD4FT1QFk",
      "value": 40000
    },
    {
      "scriptpubkey": "76a914df4f30e408ed17ae49f7326fc91560c516fae9dd88ac",
      "scriptpubkey_asm": "OP_DUP OP_HASH160 OP_PUSHBYTES_20 df4f30e408ed17ae49f7326fc91560c516fae9dd OP_EQUALVERIFY OP_CHECKSIG",
      "scriptpubkey_type": "p2pkh",
      "scriptpubkey_address": "1MMkZ4hyJGNWeVpkZrG2YWYnVseQuot5zt",
      "value": 260833
    },
    {
      "scriptpubkey": "0014d79fa7d9c86e5e63e5464169540658490545f81a",
      "scriptpubkey_asm": "OP_0 OP_PUSHBYTES_20 d79fa7d9c86e5e63e5464169540658490545f81a",
      "scriptpubkey_type": "v0_p2wpkh",
      "scriptpubkey_address": "bc1q67060kwgde0x8e2xg954gpjcfyz5t7q6du6t9f",
      "value": 428309
    },
    {
      "scriptpubkey": "001440d10f5337742098a35d636f624b3bcbe5826751",
      "scriptpubkey_asm": "OP_0 OP_PUSHBYTES_20 40d10f5337742098a35d636f624b3bcbe5826751",
      "scriptpubkey_type": "v0_p2wpkh",
      "scriptpubkey_address": "bc1qgrgs75ehwssf3g6avdhkyjeme0jcye63xt3duf",
      "value": 65527908
    },
    {
      "scriptpubkey": "76a914d15618d5fc18b68354def1092b823c67c0bfe1c188ac",
      "scriptpubkey_asm": "OP_DUP OP_HASH160 OP_PUSHBYTES_20 d15618d5fc18b68354def1092b823c67c0bfe1c1 OP_EQUALVERIFY OP_CHECKSIG",
      "scriptpubkey_type": "p2pkh",
      "scriptpubkey_address": "1L5sNDeVyykiAGxkhEamw1R3scFtZoJ5kP",
      "value": 136222
    },
    {
      "scriptpubkey": "a914fcedf21435a1bd59e08df13bdf59ae30c26076d287",
      "scriptpubkey_asm": "OP_HASH160 OP_PUSHBYTES_20 fcedf21435a1bd59e08df13bdf59ae30c26076d2 OP_EQUAL",
      "scriptpubkey_type": "p2sh",
      "scriptpubkey_address": "3QkPFdsmFWbYXcZkQ6XNmrcEKSXkc9NgDs",
      "value": 48312
    },
    {
      "scriptpubkey": "00142502659d0a49f0b141b56e58ddd41af4c957ede8",
      "scriptpubkey_asm": "OP_0 OP_PUSHBYTES_20 2502659d0a49f0b141b56e58ddd41af4c957ede8",
      "scriptpubkey_type": "v0_p2wpkh",
      "scriptpubkey_address": "bc1qy5pxt8g2f8ctzsd4devdm4q67ny40m0gx0aq8x",
      "value": 27252
    },
    {
      "scriptpubkey": "0020515f393ff578910bf0c44007470b17f4715ec7743284b6df9733e29afb54a039",
      "scriptpubkey_asm": "OP_0 OP_PUSHBYTES_32 515f393ff578910bf0c44007470b17f4715ec7743284b6df9733e29afb54a039",
      "scriptpubkey_type": "v0_p2wsh",
      "scriptpubkey_address": "bc1q290nj0l40zgshuxygqr5wzch73c4a3m5x2ztdhuhx03f47655quszenjzt",
      "value": 28181
    },
    {
      "scriptpubkey": "00147bd480c0558170870e15e99f3e8ca306fe3cfebb",
      "scriptpubkey_asm": "OP_0 OP_PUSHBYTES_20 7bd480c0558170870e15e99f3e8ca306fe3cfebb",
      "scriptpubkey_type": "v0_p2wpkh",
      "scriptpubkey_address": "bc1q002gpsz4s9cgwrs4ax0nar9rqmlrel4maexejt",
      "value": 217862
    },
    {
      "scriptpubkey": "76a9144ae1a3225223c678b3aa0397de15b30dd18efe6288ac",
      "scriptpubkey_asm": "OP_DUP OP_HASH160 OP_PUSHBYTES_20 4ae1a3225223c678b3aa0397de15b30dd18efe62 OP_EQUALVERIFY OP_CHECKSIG",
      "scriptpubkey_type": "p2pkh",
      "scriptpubkey_address": "17pwJkGDSQAR1DErP5cr9CUoCPd6EqNLGc",
      "value": 362202
    },
    {
      "scriptpubkey": "00142c654bbb63b7e52fad1b1fbc68d413486cecf168",
      "scriptpubkey_asm": "OP_0 OP_PUSHBYTES_20 2c654bbb63b7e52fad1b1fbc68d413486cecf168",
      "scriptpubkey_type": "v0_p2wpkh",
      "scriptpubkey_address": "bc1q93j5hwmrkljjltgmr77x34qnfpkweutglr0aay",
      "value": 25900
    },
    {
      "scriptpubkey": "76a914af8aa51b4ab9be29089c3f405007fa87c2337a7488ac",
      "scriptpubkey_asm": "OP_DUP OP_HASH160 OP_PUSHBYTES_20 af8aa51b4ab9be29089c3f405007fa87c2337a74 OP_EQUALVERIFY OP_CHECKSIG",
      "scriptpubkey_type": "p2pkh",
      "scriptpubkey_address": "1H1BLnq8nkBTwBT2LkSq2cUgVWnrkYTUUb",
      "value": 1341532
    },
    {
      "scriptpubkey": "a91447b597ea777358108f157eb0fe1853a7f605744187",
      "scriptpubkey_asm": "OP_HASH160 OP_PUSHBYTES_20 47b597ea777358108f157eb0fe1853a7f6057441 OP_EQUAL",
      "scriptpubkey_type": "p2sh",
      "scriptpubkey_address": "38EBSViEEfZUShjC7pYPrbjMSQg3vtw6ck",
      "value": 61284
    },
    {
      "scriptpubkey": "a914337247ae86feedefb9eb4234f9b99fe2be03881f87",
      "scriptpubkey_asm": "OP_HASH160 OP_PUSHBYTES_20 337247ae86feedefb9eb4234f9b99fe2be03881f OP_EQUAL",
      "scriptpubkey_type": "p2sh",
      "scriptpubkey_address": "36P3He9C4TpNPPBBEmvT3acfFnwA5H6tbU",
      "value": 50684
    },
    {
      "scriptpubkey": "a914839cf76dcdb84f45a7feac7343dd1f7e9c1e881f87",
      "scriptpubkey_asm": "OP_HASH160 OP_PUSHBYTES_20 839cf76dcdb84f45a7feac7343dd1f7e9c1e881f OP_EQUAL",
      "scriptpubkey_type": "p2sh",
      "scriptpubkey_address": "3DgvUu4nTBRW66WVAvdHc7H3ezmj1KXi6e",
      "value": 260167
    },
    {
      "scriptpubkey": "00144b47c39155a1f216531cfe3ec52e0ff9783595c6",
      "scriptpubkey_asm": "OP_0 OP_PUSHBYTES_20 4b47c39155a1f216531cfe3ec52e0ff9783595c6",
      "scriptpubkey_type": "v0_p2wpkh",
      "scriptpubkey_address": "bc1qfdru8y2458epv5culclv2ts0l9urt9wxzjjm7t",
      "value": 41429
    },
    {
      "scriptpubkey": "a9148d21fc2ccbcb43a9a3b60bc2b3aa5cbd36dddc8d87",
      "scriptpubkey_asm": "OP_HASH160 OP_PUSHBYTES_20 8d21fc2ccbcb43a9a3b60bc2b3aa5cbd36dddc8d OP_EQUAL",
      "scriptpubkey_type": "p2sh",
      "scriptpubkey_address": "3EZFuv2fxDMePFQ32fdqZoPo7SB1iN531R",
      "value": 18223
    },
    {
      "scriptpubkey": "001404ff8ff63db7e367b2f55b309fac920d78823322",
      "scriptpubkey_asm": "OP_0 OP_PUSHBYTES_20 04ff8ff63db7e367b2f55b309fac920d78823322",
      "scriptpubkey_type": "v0_p2wpkh",
      "scriptpubkey_address": "bc1qqnlcla3akl3k0vh4tvcfltyjp4ugyvezhs6v5t",
      "value": 127514
    },
    {
      "scriptpubkey": "00146ded7f2df94fa44347711e18e65b7280c775e7b3",
      "scriptpubkey_asm": "OP_0 OP_PUSHBYTES_20 6ded7f2df94fa44347711e18e65b7280c775e7b3",
      "scriptpubkey_type": "v0_p2wpkh",
      "scriptpubkey_address": "bc1qdhkh7t0ef7jyx3m3rcvwvkmjsrrhteangp56nq",
      "value": 41401
    },
    {
      "scriptpubkey": "0014421d7fe7c330c053b258fe6f85345e187d2f4969",
      "scriptpubkey_asm": "OP_0 OP_PUSHBYTES_20 421d7fe7c330c053b258fe6f85345e187d2f4969",
      "scriptpubkey_type": "v0_p2wpkh",
      "scriptpubkey_address": "bc1qggwhle7rxrq98vjclehc2dz7rp7j7jtfkvtvdu",
      "value": 681075
    },
    {
      "scriptpubkey": "a9141683a98212b74f4579af40ae7e01015ff9e1224d87",
      "scriptpubkey_asm": "OP_HASH160 OP_PUSHBYTES_20 1683a98212b74f4579af40ae7e01015ff9e1224d OP_EQUAL",
      "scriptpubkey_type": "p2sh",
      "scriptpubkey_address": "33k4WovwrPChk1BHsyRrnnNEt5A7DeawPt",
      "value": 154406
    },
    {
      "scriptpubkey": "00200d3764f46044dfed2792d47ccc6bdf37af3aa044e3402fffdb94068e992c0d95",
      "scriptpubkey_asm": "OP_0 OP_PUSHBYTES_32 0d3764f46044dfed2792d47ccc6bdf37af3aa044e3402fffdb94068e992c0d95",
      "scriptpubkey_type": "v0_p2wsh",
      "scriptpubkey_address": "bc1qp5mkfarqgn076fuj637vc67lx7hn4gzyudqzll7mjsrgaxfvpk2sw9mnwj",
      "value": 37410
    },
    {
      "scriptpubkey": "76a9141a10b2306f6c376be4ae5d2d0371f505df3dc00f88ac",
      "scriptpubkey_asm": "OP_DUP OP_HASH160 OP_PUSHBYTES_20 1a10b2306f6c376be4ae5d2d0371f505df3dc00f OP_EQUALVERIFY OP_CHECKSIG",
      "scriptpubkey_type": "p2pkh",
      "scriptpubkey_address": "13Npa3spkny6dRRhQHKVWWVEF3pu1sWc94",
      "value": 14917
    },
    {
      "scriptpubkey": "76a914a07be601027da60d74f6ea961353625b2649fb2288ac",
      "scriptpubkey_asm": "OP_DUP OP_HASH160 OP_PUSHBYTES_20 a07be601027da60d74f6ea961353625b2649fb22 OP_EQUALVERIFY OP_CHECKSIG",
      "scriptpubkey_type": "p2pkh",
      "scriptpubkey_address": "1FdZYJt6vFvGB4zFHRoFPp4F3kLG9G1dfm",
      "value": 398519
    },
    {
      "scriptpubkey": "00202832853744fcf7972b6a5cdcb33daffa5fae6260c29582564b285ebae1d939ae",
      "scriptpubkey_asm": "OP_0 OP_PUSHBYTES_32 2832853744fcf7972b6a5cdcb33daffa5fae6260c29582564b285ebae1d939ae",
      "scriptpubkey_type": "v0_p2wsh",
      "scriptpubkey_address": "bc1q9qeg2d6ylnmew2m2tnwtx0d0lf06ucnqc22cy4jt9p0t4cwe8xhqszsx32",
      "value": 180978
    },
    {
      "scriptpubkey": "0014620d81c4d45e8826400b88806a5280824d5fff25",
      "scriptpubkey_asm": "OP_0 OP_PUSHBYTES_20 620d81c4d45e8826400b88806a5280824d5fff25",
      "scriptpubkey_type": "v0_p2wpkh",
      "scriptpubkey_address": "bc1qvgxcr3x5t6yzvsqt3zqx555qsfx4lle9yydk4x",
      "value": 143005
    },
    {
      "scriptpubkey": "001496e9cc4a93888b224965a825a6f48cf4d25805e2",
      "scriptpubkey_asm": "OP_0 OP_PUSHBYTES_20 96e9cc4a93888b224965a825a6f48cf4d25805e2",
      "scriptpubkey_type": "v0_p2wpkh",
      "scriptpubkey_address": "bc1qjm5ucj5n3z9jyjt94qj6dayv7nf9sp0z9gzccn",
      "value": 68140
    },
    {
      "scriptpubkey": "a9146f33ec695e492ee1327a2e57f505f69551f3192c87",
      "scriptpubkey_asm": "OP_HASH160 OP_PUSHBYTES_20 6f33ec695e492ee1327a2e57f505f69551f3192c OP_EQUAL",
      "scriptpubkey_type": "p2sh",
      "scriptpubkey_address": "3Bq18YVUBbSrGJQzaZKYrheto8jcpotG3q",
      "value": 361625
    },
    {
      "scriptpubkey": "002017bae542e078aece7f5a3bb11ca1bbdad701252ebd632ea65326fb7a2d9fc598",
      "scriptpubkey_asm": "OP_0 OP_PUSHBYTES_32 17bae542e078aece7f5a3bb11ca1bbdad701252ebd632ea65326fb7a2d9fc598",
      "scriptpubkey_type": "v0_p2wsh",
      "scriptpubkey_address": "bc1qz7aw2shq0zhvul668wc3egdmmttszffwh43jafjnymah5tvlckvqzwjw6f",
      "value": 110662
    },
    {
      "scriptpubkey": "00148aaa7b898bcee6b2f06246d41a174f2f956795f8",
      "scriptpubkey_asm": "OP_0 OP_PUSHBYTES_20 8aaa7b898bcee6b2f06246d41a174f2f956795f8",
      "scriptpubkey_type": "v0_p2wpkh",
      "scriptpubkey_address": "bc1q3248hzvtemnt9urzgm2p5960972k090c9u90vx",
      "value": 50395
    },
    {
      "scriptpubkey": "a91472a81afef53332bec614fa5fcef3bcc2cf29ed0d87",
      "scriptpubkey_asm": "OP_HASH160 OP_PUSHBYTES_20 72a81afef53332bec614fa5fcef3bcc2cf29ed0d OP_EQUAL",
      "scriptpubkey_type": "p2sh",
      "scriptpubkey_address": "3C9GLaq1Ld3Fjjn3Jsmhk9fMu6sytFKrPr",
      "value": 127521
    },
    {
      "scriptpubkey": "0014a14989ec014f685d162aa6856c33aa7ad62aef66",
      "scriptpubkey_asm": "OP_0 OP_PUSHBYTES_20 a14989ec014f685d162aa6856c33aa7ad62aef66",
      "scriptpubkey_type": "v0_p2wpkh",
      "scriptpubkey_address": "bc1q59ycnmqpfa59693256zkcva20ttz4mmx3wvdjn",
      "value": 54486
    },
    {
      "scriptpubkey": "00149b12105890271dbc0f834f1f6eac84340e20196e",
      "scriptpubkey_asm": "OP_0 OP_PUSHBYTES_20 9b12105890271dbc0f834f1f6eac84340e20196e",
      "scriptpubkey_type": "v0_p2wpkh",
      "scriptpubkey_address": "bc1qnvfpqkysyuwmcrurfu0katyyxs8zqxtwh6w32v",
      "value": 61280
    },
    {
      "scriptpubkey": "76a914a6ec0db33f4ca7bab9eece83a84e0d11a6379ff388ac",
      "scriptpubkey_asm": "OP_DUP OP_HASH160 OP_PUSHBYTES_20 a6ec0db33f4ca7bab9eece83a84e0d11a6379ff3 OP_EQUALVERIFY OP_CHECKSIG",
      "scriptpubkey_type": "p2pkh",
      "scriptpubkey_address": "1GDbx8XJt2DoJrYWa6TNmFj9hXMLvcwjZy",
      "value": 13620
    },
    {
      "scriptpubkey": "001462d357901888028345af94a28bd7e7260608fd9e",
      "scriptpubkey_asm": "OP_0 OP_PUSHBYTES_20 62d357901888028345af94a28bd7e7260608fd9e",
      "scriptpubkey_type": "v0_p2wpkh",
      "scriptpubkey_address": "bc1qvtf40yqc3qpgx3d0jj3gh4l8ycrq3lv7luq7uz",
      "value": 69226
    },
    {
      "scriptpubkey": "00142940687854a7fc95e333872b944403e872e698e7",
      "scriptpubkey_asm": "OP_0 OP_PUSHBYTES_20 2940687854a7fc95e333872b944403e872e698e7",
      "scriptpubkey_type": "v0_p2wpkh",
      "scriptpubkey_address": "bc1q99qxs7z55l7ftcensu4eg3qrapewdx885uurn2",
      "value": 54483
    },
    {
      "scriptpubkey": "76a914361019b50376a08b051a61e75082572c29a9b61b88ac",
      "scriptpubkey_asm": "OP_DUP OP_HASH160 OP_PUSHBYTES_20 361019b50376a08b051a61e75082572c29a9b61b OP_EQUALVERIFY OP_CHECKSIG",
      "scriptpubkey_type": "p2pkh",
      "scriptpubkey_address": "15vrn34Uvc6jekDFx2wbugfHqZi1YvhezD",
      "value": 50686
    },
    {
      "scriptpubkey": "a914c1c1d856062f5b319a10baa29a64cc5d3652b1c687",
      "scriptpubkey_asm": "OP_HASH160 OP_PUSHBYTES_20 c1c1d856062f5b319a10baa29a64cc5d3652b1c6 OP_EQUAL",
      "scriptpubkey_type": "p2sh",
      "scriptpubkey_address": "3KMWZA868FhUKBM2dg95kX4mH1vTeTuKn8",
      "value": 34775
    },
    {
      "scriptpubkey": "0014217927bc24c954131da680cbb5ee942165e1b0db",
      "scriptpubkey_asm": "OP_0 OP_PUSHBYTES_20 217927bc24c954131da680cbb5ee942165e1b0db",
      "scriptpubkey_type": "v0_p2wpkh",
      "scriptpubkey_address": "bc1qy9uj00pye92px8dxsr9mtm55y9j7rvxmd0gqhw",
      "value": 81156
    },
    {
      "scriptpubkey": "76a9143caaf5e28a6b9a96e8bcb03e65821d031728aedf88ac",
      "scriptpubkey_asm": "OP_DUP OP_HASH160 OP_PUSHBYTES_20 3caaf5e28a6b9a96e8bcb03e65821d031728aedf OP_EQUALVERIFY OP_CHECKSIG",
      "scriptpubkey_type": "p2pkh",
      "scriptpubkey_address": "16XnM44Y72ZnSQwuYGJ3796hpSKkfLQ75p",
      "value": 540530
    },
    {
      "scriptpubkey": "0014344a82aa4c5fbe0ff69f0cb8ab992a97491fe657",
      "scriptpubkey_asm": "OP_0 OP_PUSHBYTES_20 344a82aa4c5fbe0ff69f0cb8ab992a97491fe657",
      "scriptpubkey_type": "v0_p2wpkh",
      "scriptpubkey_address": "bc1qx39g92jvt7lqla5lpju2hxf2jay3lejhrvlzk8",
      "value": 46624
    },
    {
      "scriptpubkey": "001428b96555aff4026c4a849159d3e9150a6463d4d9",
      "scriptpubkey_asm": "OP_0 OP_PUSHBYTES_20 28b96555aff4026c4a849159d3e9150a6463d4d9",
      "scriptpubkey_type": "v0_p2wpkh",
      "scriptpubkey_address": "bc1q9zuk24d07spxcj5yj9va86g4pfjx84xezrxhvy",
      "value": 136208
    },
    {
      "scriptpubkey": "0014ad57b188c89a3862564b4e12d0af6053b8625d49",
      "scriptpubkey_asm": "OP_0 OP_PUSHBYTES_20 ad57b188c89a3862564b4e12d0af6053b8625d49",
      "scriptpubkey_type": "v0_p2wpkh",
      "scriptpubkey_address": "bc1q44tmrzxgnguxy4jtfcfdptmq2wuxyh2fskdadj",
      "value": 87773
    },
    {
      "scriptpubkey": "00149618ece18074222bdbc9229890f143388e371986",
      "scriptpubkey_asm": "OP_0 OP_PUSHBYTES_20 9618ece18074222bdbc9229890f143388e371986",
      "scriptpubkey_type": "v0_p2wpkh",
      "scriptpubkey_address": "bc1qjcvwecvqws3zhk7fy2vfpu2r8z8rwxvxtsw3zs",
      "value": 259945
    },
    {
      "scriptpubkey": "001476c03a86f8fe2c46e4331b9448be7c238e5e86c6",
      "scriptpubkey_asm": "OP_0 OP_PUSHBYTES_20 76c03a86f8fe2c46e4331b9448be7c238e5e86c6",
      "scriptpubkey_type": "v0_p2wpkh",
      "scriptpubkey_address": "bc1qwmqr4phclckydepnrw2y30nuyw89apkxzgy7r4",
      "value": 41870
    },
    {
      "scriptpubkey": "001437a54b723a86bee835bcf1d7e1be411099a62076",
      "scriptpubkey_asm": "OP_0 OP_PUSHBYTES_20 37a54b723a86bee835bcf1d7e1be411099a62076",
      "scriptpubkey_type": "v0_p2wpkh",
      "scriptpubkey_address": "bc1qx7j5ku36s6lwsddu78t7r0jpzzv6vgrkymcvmv",
      "value": 1354519
    },
    {
      "scriptpubkey": "0014f801e10a813eaa9f02769201f8b5b919e9f5a9e0",
      "scriptpubkey_asm": "OP_0 OP_PUSHBYTES_20 f801e10a813eaa9f02769201f8b5b919e9f5a9e0",
      "scriptpubkey_type": "v0_p2wpkh",
      "scriptpubkey_address": "bc1qlqq7zz5p864f7qnkjgql3dder85lt20qepns95",
      "value": 20431
    },
    {
      "scriptpubkey": "a91436fd883a5d105f1f45c113d194a093e1549d37ad87",
      "scriptpubkey_asm": "OP_HASH160 OP_PUSHBYTES_20 36fd883a5d105f1f45c113d194a093e1549d37ad OP_EQUAL",
      "scriptpubkey_type": "p2sh",
      "scriptpubkey_address": "36hn8dBEDQptFQCdyiMtyu8fWtVbNJBNkH",
      "value": 61291
    },
    {
      "scriptpubkey": "0014bc5ead6270abe435c1403c05d821b97f70e96a10",
      "scriptpubkey_asm": "OP_0 OP_PUSHBYTES_20 bc5ead6270abe435c1403c05d821b97f70e96a10",
      "scriptpubkey_type": "v0_p2wpkh",
      "scriptpubkey_address": "bc1qh3026cns40jrts2q8szasgde0acwj6ssu40p2l",
      "value": 83864
    },
    {
      "scriptpubkey": "a91419f167824a85bee39fef79c3bc39f3ece249036987",
      "scriptpubkey_asm": "OP_HASH160 OP_PUSHBYTES_20 19f167824a85bee39fef79c3bc39f3ece2490369 OP_EQUAL",
      "scriptpubkey_type": "p2sh",
      "scriptpubkey_address": "344C1QXrqUj6WgR5s5h5Mtvcz1Li4BovmX",
      "value": 272407
    },
    {
      "scriptpubkey": "00145469dee6252b2a5788eae19f5090e61c4cb7649e",
      "scriptpubkey_asm": "OP_0 OP_PUSHBYTES_20 5469dee6252b2a5788eae19f5090e61c4cb7649e",
      "scriptpubkey_type": "v0_p2wpkh",
      "scriptpubkey_address": "bc1q235aae399v490z82ux04py8xr3xtwey7cq7ll9",
      "value": 50675
    },
    {
      "scriptpubkey": "a9141c788d08026d8bf827c52f8252b82fa3a9eb165587",
      "scriptpubkey_asm": "OP_HASH160 OP_PUSHBYTES_20 1c788d08026d8bf827c52f8252b82fa3a9eb1655 OP_EQUAL",
      "scriptpubkey_type": "p2sh",
      "scriptpubkey_address": "34HZFwPmf4oV98MiDKTDmkEXBh4BYzDRuF",
      "value": 127521
    },
    {
      "scriptpubkey": "a914c057965e8532282dc1d267955e067dc7b61b48ad87",
      "scriptpubkey_asm": "OP_HASH160 OP_PUSHBYTES_20 c057965e8532282dc1d267955e067dc7b61b48ad OP_EQUAL",
      "scriptpubkey_type": "p2sh",
      "scriptpubkey_address": "3KE2b42eN1BwKGdK9rXah6JcfLny9nzfZ9",
      "value": 68102
    },
    {
      "scriptpubkey": "a914d056bf36eba0407dd4eddc0e3a348f3b4120ce4d87",
      "scriptpubkey_asm": "OP_HASH160 OP_PUSHBYTES_20 d056bf36eba0407dd4eddc0e3a348f3b4120ce4d OP_EQUAL",
      "scriptpubkey_type": "p2sh",
      "scriptpubkey_address": "3LgcPj7mQG3ENXxDFij663JJtDJAeS37Nq",
      "value": 34052
    },
    {
      "scriptpubkey": "0014a3fc480f760b26e12e7c7fdcaeb07a61d68d6e20",
      "scriptpubkey_asm": "OP_0 OP_PUSHBYTES_20 a3fc480f760b26e12e7c7fdcaeb07a61d68d6e20",
      "scriptpubkey_type": "v0_p2wpkh",
      "scriptpubkey_address": "bc1q507ysrmkpvnwztnu0lw2avr6v8tg6m3qam02xz",
      "value": 201008
    },
    {
      "scriptpubkey": "76a914c8f8e8d9a2e643ce3af99bcff9c8da15d5008ea188ac",
      "scriptpubkey_asm": "OP_DUP OP_HASH160 OP_PUSHBYTES_20 c8f8e8d9a2e643ce3af99bcff9c8da15d5008ea1 OP_EQUALVERIFY OP_CHECKSIG",
      "scriptpubkey_type": "p2pkh",
      "scriptpubkey_address": "1KKeKuZfUbc8E9wkCwQLPFrqooKttR9ZyQ",
      "value": 1362189
    },
    {
      "scriptpubkey": "a914e407e252081cdf3b75620945e3935724d7c4b33087",
      "scriptpubkey_asm": "OP_HASH160 OP_PUSHBYTES_20 e407e252081cdf3b75620945e3935724d7c4b330 OP_EQUAL",
      "scriptpubkey_type": "p2sh",
      "scriptpubkey_address": "3NUjS5L9Wwnt2WLhRCX5Dx6HFYfUAw2sUB",
      "value": 36099
    },
    {
      "scriptpubkey": "a9141a8a811b55fe6e99f4b14749023c54f2ed30074b87",
      "scriptpubkey_asm": "OP_HASH160 OP_PUSHBYTES_20 1a8a811b55fe6e99f4b14749023c54f2ed30074b OP_EQUAL",
      "scriptpubkey_type": "p2sh",
      "scriptpubkey_address": "347MQypTjHFA6wgGDEGtBG64Cpmtc256VS",
      "value": 211675
    },
    {
      "scriptpubkey": "a914e6ad6f126a40bf6b54e9e827388df417c6bf215a87",
      "scriptpubkey_asm": "OP_HASH160 OP_PUSHBYTES_20 e6ad6f126a40bf6b54e9e827388df417c6bf215a OP_EQUAL",
      "scriptpubkey_type": "p2sh",
      "scriptpubkey_address": "3Nij74XZSD1jNRLDed9umNtBqEw8drNQA3",
      "value": 49063
    },
    {
      "scriptpubkey": "a9145a9409b813d1b89af052adaac157cb29565407b787",
      "scriptpubkey_asm": "OP_HASH160 OP_PUSHBYTES_20 5a9409b813d1b89af052adaac157cb29565407b7 OP_EQUAL",
      "scriptpubkey_type": "p2sh",
      "scriptpubkey_address": "39wx5fcnTYpg1ysVLD1xaS1Rbv6fvCkeqG",
      "value": 204363
    },
    {
      "scriptpubkey": "0014f7e3dcaa3fe4a4e7fbc608728db24941817f102c",
      "scriptpubkey_asm": "OP_0 OP_PUSHBYTES_20 f7e3dcaa3fe4a4e7fbc608728db24941817f102c",
      "scriptpubkey_type": "v0_p2wpkh",
      "scriptpubkey_address": "bc1q7l3ae23lujjw077xppegmvjfgxqh7ypvjazyq0",
      "value": 128382
    },
    {
      "scriptpubkey": "001406209de19f7af8754007a9fbd437871503d7ad7e",
      "scriptpubkey_asm": "OP_0 OP_PUSHBYTES_20 06209de19f7af8754007a9fbd437871503d7ad7e",
      "scriptpubkey_type": "v0_p2wpkh",
      "scriptpubkey_address": "bc1qqcsfmcvl0tu82sq848aagdu8z5pa0tt738cd36",
      "value": 28164
    },
    {
      "scriptpubkey": "001402f4a19ab32ba26e178c89edfd49bd8792a36a6c",
      "scriptpubkey_asm": "OP_0 OP_PUSHBYTES_20 02f4a19ab32ba26e178c89edfd49bd8792a36a6c",
      "scriptpubkey_type": "v0_p2wpkh",
      "scriptpubkey_address": "bc1qqt62rx4n9w3xu9uv38kl6jdas7f2x6nvdplppe",
      "value": 1328618
    },
    {
      "scriptpubkey": "a9149693848a922d7ab7ec0f908c430e31b10b51836987",
      "scriptpubkey_asm": "OP_HASH160 OP_PUSHBYTES_20 9693848a922d7ab7ec0f908c430e31b10b518369 OP_EQUAL",
      "scriptpubkey_type": "p2sh",
      "scriptpubkey_address": "3FRC12izgnYAcrrMCYXLDhXdF8xRFdStjW",
      "value": 118243
    },
    {
      "scriptpubkey": "0014f1572bdd4d4e67c7cf104759687907a689454b0d",
      "scriptpubkey_asm": "OP_0 OP_PUSHBYTES_20 f1572bdd4d4e67c7cf104759687907a689454b0d",
      "scriptpubkey_type": "v0_p2wpkh",
      "scriptpubkey_address": "bc1q79tjhh2dfenu0ncsgavks7g856y52jcdg5gy4d",
      "value": 87770
    },
    {
      "scriptpubkey": "a914e74825e907e0c92082ec75fdae454f5927c0ec6e87",
      "scriptpubkey_asm": "OP_HASH160 OP_PUSHBYTES_20 e74825e907e0c92082ec75fdae454f5927c0ec6e OP_EQUAL",
      "scriptpubkey_type": "p2sh",
      "scriptpubkey_address": "3NmvSnykfkYbiSR9AgSBnSVMLpSCgyNJNi",
      "value": 41391
    },
    {
      "scriptpubkey": "00143f84c7cd57549aaa2d8befc202c8ecb602720b33",
      "scriptpubkey_asm": "OP_0 OP_PUSHBYTES_20 3f84c7cd57549aaa2d8befc202c8ecb602720b33",
      "scriptpubkey_type": "v0_p2wpkh",
      "scriptpubkey_address": "bc1q87zv0n2h2jd25tvtalpq9j8vkcp8yzenvy9qkn",
      "value": 22296
    },
    {
      "scriptpubkey": "0014c99edc92b02fe3cf8793966a228b8fb46e9b11f2",
      "scriptpubkey_asm": "OP_0 OP_PUSHBYTES_20 c99edc92b02fe3cf8793966a228b8fb46e9b11f2",
      "scriptpubkey_type": "v0_p2wpkh",
      "scriptpubkey_address": "bc1qex0dey4s9l3ulpunje4z9zu0k3hfky0jynjjxj",
      "value": 14903
    },
    {
      "scriptpubkey": "a9140be3056a3f36098b440145682296bc33ef5cba0587",
      "scriptpubkey_asm": "OP_HASH160 OP_PUSHBYTES_20 0be3056a3f36098b440145682296bc33ef5cba05 OP_EQUAL",
      "scriptpubkey_type": "p2sh",
      "scriptpubkey_address": "32msKMqbybHA15rAJWEeKaWCet3C6HfCno",
      "value": 61280
    },
    {
      "scriptpubkey": "0014fb9e0a3f7ee5bb0baa557553b71d6b01bb7542d0",
      "scriptpubkey_asm": "OP_0 OP_PUSHBYTES_20 fb9e0a3f7ee5bb0baa557553b71d6b01bb7542d0",
      "scriptpubkey_type": "v0_p2wpkh",
      "scriptpubkey_address": "bc1qlw0q50m7ukash2j4w4fmw8ttqxah2sksaqexqj",
      "value": 55967
    },
    {
      "scriptpubkey": "00144dcc392839697423e3747f7e4d29e85f87d51e8f",
      "scriptpubkey_asm": "OP_0 OP_PUSHBYTES_20 4dcc392839697423e3747f7e4d29e85f87d51e8f",
      "scriptpubkey_type": "v0_p2wpkh",
      "scriptpubkey_address": "bc1qfhxrj2ped96z8cm50aly620gt7ra2850fnjzmz",
      "value": 28154
    },
    {
      "scriptpubkey": "0014e801f797b8cf8ffbaeb17005fdfbd7b7812c701f",
      "scriptpubkey_asm": "OP_0 OP_PUSHBYTES_20 e801f797b8cf8ffbaeb17005fdfbd7b7812c701f",
      "scriptpubkey_type": "v0_p2wpkh",
      "scriptpubkey_address": "bc1qaqql09ace78lht43wqzlm77hk7qjcuqlp68dw0",
      "value": 28161
    },
    {
      "scriptpubkey": "0014b5f81913f8d3cfacef31ebf86a4d0e0702c791a3",
      "scriptpubkey_asm": "OP_0 OP_PUSHBYTES_20 b5f81913f8d3cfacef31ebf86a4d0e0702c791a3",
      "scriptpubkey_type": "v0_p2wpkh",
      "scriptpubkey_address": "bc1qkhupjylc6086eme3a0ux5ngwqupv0ydrf3yhmr",
      "value": 127511
    },
    {
      "scriptpubkey": "0014acbc4d5d6cd556d519f3478f873dcd10dc86e48a",
      "scriptpubkey_asm": "OP_0 OP_PUSHBYTES_20 acbc4d5d6cd556d519f3478f873dcd10dc86e48a",
      "scriptpubkey_type": "v0_p2wpkh",
      "scriptpubkey_address": "bc1q4j7y6htv64td2x0ng78cw0wdzrwgdey279l9km",
      "value": 102156
    }
  ],
  "size": 2806,
  "weight": 10897,
  "fee": 27786,
  "status": {
    "confirmed": true,
    "block_height": 834638,
    "block_hash": "000000000000000000025f742c626208ac87e0b7d15054abb4a19ca2d735a54e",
    "block_time": 1710405325
  },
  "hex": "02000000000101c5f5b0597acf30e5cd0b5e7fd28daf5c67e2d09e007c7119f28adce5b863c7096900000000ffffffff529a7d0000000000001600141f28d05edfc8c24353edeba4b08f2611c918ea54c2a1000000000000160014e1327f00621ac1819b60e73fab345535858ae29656f2010000000000160014a8683beede69ea5647daf82774982471df0b461d349200000000000017a9148c7964297b6c9907909e3c1a358b2ea717ffae658711c22800000000001976a91476e947a3af9e7a82b3a2bbbcfcb6052a666a0a6088ac32970a00000000001600145142aebd573a28bbbd70bfe6a9fb0c0e822f8a510385000000000000160014a7e86cf2e7bd63fe38208e541ce4f89dd3a924478c98040000000000160014ec2a6cba03d246049f4a65c6ecc3ba9f2302c607409c00000000000017a9146c4181850f04a34e16fc30a92ff982820d37a22687e1fa0300000000001976a914df4f30e408ed17ae49f7326fc91560c516fae9dd88ac1589060000000000160014d79fa7d9c86e5e63e5464169540658490545f81a64e0e7030000000016001440d10f5337742098a35d636f624b3bcbe58267511e140200000000001976a914d15618d5fc18b68354def1092b823c67c0bfe1c188acb8bc00000000000017a914fcedf21435a1bd59e08df13bdf59ae30c26076d287746a0000000000001600142502659d0a49f0b141b56e58ddd41af4c957ede8156e000000000000220020515f393ff578910bf0c44007470b17f4715ec7743284b6df9733e29afb54a03906530300000000001600147bd480c0558170870e15e99f3e8ca306fe3cfebbda860500000000001976a9144ae1a3225223c678b3aa0397de15b30dd18efe6288ac2c650000000000001600142c654bbb63b7e52fad1b1fbc68d413486cecf1685c781400000000001976a914af8aa51b4ab9be29089c3f405007fa87c2337a7488ac64ef00000000000017a91447b597ea777358108f157eb0fe1853a7f605744187fcc500000000000017a914337247ae86feedefb9eb4234f9b99fe2be03881f8747f803000000000017a914839cf76dcdb84f45a7feac7343dd1f7e9c1e881f87d5a10000000000001600144b47c39155a1f216531cfe3ec52e0ff9783595c62f4700000000000017a9148d21fc2ccbcb43a9a3b60bc2b3aa5cbd36dddc8d871af201000000000016001404ff8ff63db7e367b2f55b309fac920d78823322b9a10000000000001600146ded7f2df94fa44347711e18e65b7280c775e7b373640a0000000000160014421d7fe7c330c053b258fe6f85345e187d2f4969265b02000000000017a9141683a98212b74f4579af40ae7e01015ff9e1224d8722920000000000002200200d3764f46044dfed2792d47ccc6bdf37af3aa044e3402fffdb94068e992c0d95453a0000000000001976a9141a10b2306f6c376be4ae5d2d0371f505df3dc00f88acb7140600000000001976a914a07be601027da60d74f6ea961353625b2649fb2288acf2c20200000000002200202832853744fcf7972b6a5cdcb33daffa5fae6260c29582564b285ebae1d939ae9d2e020000000000160014620d81c4d45e8826400b88806a5280824d5fff252c0a01000000000016001496e9cc4a93888b224965a825a6f48cf4d25805e2998405000000000017a9146f33ec695e492ee1327a2e57f505f69551f3192c8746b001000000000022002017bae542e078aece7f5a3bb11ca1bbdad701252ebd632ea65326fb7a2d9fc598dbc40000000000001600148aaa7b898bcee6b2f06246d41a174f2f956795f821f201000000000017a91472a81afef53332bec614fa5fcef3bcc2cf29ed0d87d6d4000000000000160014a14989ec014f685d162aa6856c33aa7ad62aef6660ef0000000000001600149b12105890271dbc0f834f1f6eac84340e20196e34350000000000001976a914a6ec0db33f4ca7bab9eece83a84e0d11a6379ff388ac6a0e01000000000016001462d357901888028345af94a28bd7e7260608fd9ed3d40000000000001600142940687854a7fc95e333872b944403e872e698e7fec50000000000001976a914361019b50376a08b051a61e75082572c29a9b61b88acd78700000000000017a914c1c1d856062f5b319a10baa29a64cc5d3652b1c687043d010000000000160014217927bc24c954131da680cbb5ee942165e1b0db723f0800000000001976a9143caaf5e28a6b9a96e8bcb03e65821d031728aedf88ac20b6000000000000160014344a82aa4c5fbe0ff69f0cb8ab992a97491fe657101402000000000016001428b96555aff4026c4a849159d3e9150a6463d4d9dd56010000000000160014ad57b188c89a3862564b4e12d0af6053b8625d4969f70300000000001600149618ece18074222bdbc9229890f143388e3719868ea300000000000016001476c03a86f8fe2c46e4331b9448be7c238e5e86c617ab14000000000016001437a54b723a86bee835bcf1d7e1be411099a62076cf4f000000000000160014f801e10a813eaa9f02769201f8b5b919e9f5a9e06bef00000000000017a91436fd883a5d105f1f45c113d194a093e1549d37ad879847010000000000160014bc5ead6270abe435c1403c05d821b97f70e96a10172804000000000017a91419f167824a85bee39fef79c3bc39f3ece249036987f3c50000000000001600145469dee6252b2a5788eae19f5090e61c4cb7649e21f201000000000017a9141c788d08026d8bf827c52f8252b82fa3a9eb165587060a01000000000017a914c057965e8532282dc1d267955e067dc7b61b48ad87048500000000000017a914d056bf36eba0407dd4eddc0e3a348f3b4120ce4d873011030000000000160014a3fc480f760b26e12e7c7fdcaeb07a61d68d6e200dc91400000000001976a914c8f8e8d9a2e643ce3af99bcff9c8da15d5008ea188ac038d00000000000017a914e407e252081cdf3b75620945e3935724d7c4b33087db3a03000000000017a9141a8a811b55fe6e99f4b14749023c54f2ed30074b87a7bf00000000000017a914e6ad6f126a40bf6b54e9e827388df417c6bf215a874b1e03000000000017a9145a9409b813d1b89af052adaac157cb29565407b7877ef5010000000000160014f7e3dcaa3fe4a4e7fbc608728db24941817f102c046e00000000000016001406209de19f7af8754007a9fbd437871503d7ad7eea4514000000000016001402f4a19ab32ba26e178c89edfd49bd8792a36a6ce3cd01000000000017a9149693848a922d7ab7ec0f908c430e31b10b51836987da56010000000000160014f1572bdd4d4e67c7cf104759687907a689454b0dafa100000000000017a914e74825e907e0c92082ec75fdae454f5927c0ec6e8718570000000000001600143f84c7cd57549aaa2d8befc202c8ecb602720b33373a000000000000160014c99edc92b02fe3cf8793966a228b8fb46e9b11f260ef00000000000017a9140be3056a3f36098b440145682296bc33ef5cba05879fda000000000000160014fb9e0a3f7ee5bb0baa557553b71d6b01bb7542d0fa6d0000000000001600144dcc392839697423e3747f7e4d29e85f87d51e8f016e000000000000160014e801f797b8cf8ffbaeb17005fdfbd7b7812c701f17f2010000000000160014b5f81913f8d3cfacef31ebf86a4d0e0702c791a30c8f010000000000160014acbc4d5d6cd556d519f3478f873dcd10dc86e48a02473044022011906a34198eb55588d2dfcfe6ed724b01f80d05fd92e4f83ba086527e45daee022071f027b7fcbe6e488948ee1d28335350d5731e0a437ba756fde4d451534860c1012102988706524d46d96e5388f9ee010c832d6ecf68791d3831a17493b49e5002602000000000"
}