{
  "txid": "cf26971fb787c2fe5af1618dc6b8bd461c34513e59cee4b85ade0e56a074bf3f",
  "version": 2,
  "locktime": 0,
  "vin": [
    {
      "txid": "325faf46a4d5096fea8ede61329d93f173331cc919cc7d565b08ba2028e58b54",
      "vout": 0,
      "prevout": {
        "scriptpubkey": "5120f96997f2ac26497d60de152db76265603c339cb9a0577648602d69146cd9af3d",
        "scriptpubkey_asm": "OP_PUSHNUM_1 OP_PUSHBYTES_32 f96997f2ac26497d60de152db76265603c339cb9a0577648602d69146cd9af3d",
        "scriptpubkey_type": "v1_p2tr",
        "scriptpubkey_address": "bc1pl95e0u4vyeyh6cx7z5kmwcn9vq7r889e5pthvjrq9453gmxe4u7s5x9ggv",
        "value": 17730
      },
      "scriptsig": "",
      "scriptsig_asm": "",
      "witness": [
        "2828d525fb267e9f0b521d50103ea889bf75fc580085c62880b387e388d92598947e202d90d7a2d610a9cdcc6956a20d70a0fcbf9697ba698d7cce8dd62725ef",
        "204caee11ca8831114ca260d1ae04bbc314b6880bcde4ed7e9ce7aa4d7fc9dce1fac0063036f7264010109696d6167652f706e67004d080289504e470d0a1a0a0000000d49484452000001f4000001f40803000000fc082fb80000008d504c54455b8697c5acab03050ff8ebed1e1e1eeed5d6a98a87fbeff1ef0f0fdec9c8f60807528c9e5d8494ffc301fff9fb2f2a26558294c92d31697a8985626b79727ce11a1b9d4f58d9cdcafff158eee0e2939aa03b3d3fe3d0ceae908ee9d4d46e909db14046f02526a9a6aa4f7e90f7a1a3b8c2cbed8081928888ffc501d6bfbeee5858d8b625fde987fed01adfa09eb416f9ea000000097048597300000b1300000b1301009a9c1800000ec049444154789ced9d017bda361746dd4082235c1c834d464b139a6ecd92f6ebffff79df43939120994a36b62cf99e43d6e5d9338ce1e4bd72ad1b2949000000000000000000000000000000000000000ce6761217e6d68764b2f5ceca7ae9eb64960e64f6e3942b2ba5c361464b56a854fd915455e5dccf47b42c546ac57a32d97ca7ac14be7e9043956e232ce92b07e9f6a3203d2ae9a54bd26d0721e902a5a7247d74e55dd90e42d2e3925e92f4115dc86573c67471d2138fe59d313d2ee92563babca497d1277df09b81f1495fc59ff4a1adc727bd8c3de9df3e27031390f44cc8d5fbb7e5d0510f487ac2d5bb27e2935ec69ef4a1c93a939e9924f697d79ee02add02b36c7f66de95f4562d2e738dacb04f84abd5dcd25f93d4255d3f4a35dea4db5b51cac2e1037290be2e7456d6b35b1e37b34d0802ac57eb9d7194b5d9f362ed8b29d7c63baad63a43ffb5a92fb2f9aab26206bb68de2e55d7acb2b6457dbe326b8ac1ca08f22e6dfea65421a6292e9baf7ec7589d7ed4d4f67dfd6cfe4a66455d5b0f53d60c25fac9acf5817fbe2f4dcaf2a8913ed6649f92de0c6fd2e766d24df4a3bc486ffc9e906e939e8493f414e98d5590f41748ba85a0c6f494a493f484313deef29e907479d2e75cbdcb939e907479d2e7245d9ef484a4cb933e27e9f2a427243d66e9599634979e3926fd78a684bfa70f27dd9cf06c51de4b27e9c9be2de2e5b16fcc709a7051daa41bb7613b90be2c359666cfcb5a3f8cd14ee592f4dd4bcbc4fecfd7ef5c5a7d8c5e8c1d53ab674aaf6b9948cdce99b9f6a455b1db15ef1ebbc241bad92ee5f01cb3f3424c0f456fe5bda6f35015b60581b2fd08d0d85f2bd4daec9d4ca4e055baed63cd5c7eefa43be989543c4bfff3079d21dd0b245d20481708d205827481205d20481708d205827481205d20481708d245a0ff5a6fbb7bef756b891c4f59b94cb864c6a2204cb8f482b6378d93f49af53dace8f3e90eb36c497fd26bfa37ec6be4ec277f2d5f490c64463fcbda619925875d6e0c8cbd7d0a63398fa5d15551b3e84527984b8b94f6cf6a6776d71844617de9b2b8882e7d67c4d858b1c5a4a829f91a658b969756a82a6bda269325cbca6cc931ce771943bfcdb2b22dc351f3911573eb805df324fbc994a927f60b454d080265dac382dbe2655524d23b589823734b7a38d2d3e6ab8339ae58178974e54b7a60496f08d263979e22bd2924fd3494f723487a3030a63bc298ce987e0aca7bb0e55d7121d7f82323e92721e94790f4609079219752dee549574897273d45bab709175b734d99fa9c656bc8a866d9bc8de9f6e69a65ea899af9743b35fb15453c9fee45ba2a4a2babd41795fd64ccb3333faa683b677c25dd61ef9c2af586c3c9d8cfae2acd959062c0a3f4f1510dbe036a3b907e0648174815c5086e42d2cf00e902a948ba3c2aa4cba342ba3c2aa4cba342ba3c2aa4cba342ba3c2aa4cba342ba3c2aa48f1e65b64c2472eebdeff4f6101953ab85b1828a24e945b9d2ba4aec2b51c48f5ac7d932d18d74a128fbfe90918074817bfb20dd19922e104579978742ba3c14d2e5a1902e0f85747928a4cb43215d1e0ae9f25048978742ba3c14d2c78fd21f481f3f85ceaa762b1f1b01cecc31cb7602552deddbbcac1db6f2598537218b74f705a8cc4f6fbfb39565279f1067e1917e4eabab7d3bb334457a3c28a40ba422e9e25048174845d2c5a1902e908aa48b43215d201549178742ba402a922e0e85748154245d1cca619b9778275c7c7c82315219f3e926214a7768e35856c60c30bcb0b35304273d9baf8d6d488c368eccd89ec6e58d8840194d72fac3e993f22e7d7f5a6f2799aad4ecdd6955b2c01defd28d3330a5eb17274817205d07e91d837481acc34d08024f3ae55da074cabb40e9245da074922e503a4917289da40b944ed2054a27e902a5937481d249fa28a577d10d0227317e433d04e99d7483c0292a7b0b8377e9bb552d47dbb120bd3d6a6d84c8a3f113d24fac91511d7e42537ae6a2dedca74e3af48b5afb758cf40040ba401449978742ba3c14d2e5a1902e0f85747928a4cb43215d1e0ae9f25048978742ba3c14d2e5a1902e0f1580f49a897318b7f4a45ceb14bdbe6550434bffcdfcdd5732cf907e0e476d65f5382c3ee79b25d2cf61e9b9e1ad1b907e16cbf0d601b492cd917e16245d20cb08cb3b4917289d315da074922e503a4917289da40b944ed2054a27e902a5937481d249ba40e9245da0f41893ae2c0fafc428bd6e9b9eb0d71af9faacf355e7f96bcdd3be5abf6ca45f2bbdcba88a547ab636f61beac6cef3df56beb739ca6c62e5d27ca5af9d5094fad23cf14dacd6d2d10a25ead7c2cac47e98efc693660e184fbaeca47ca962e03583425f9646fdb2067276693fccb3f9acd9447b68ecff8f16afe4f29e0a63cdbd64147427dd1e480715df5d826d4f7e67491f89e5a0a5ab4ea44f901e93f4f4b90be9243d2ae98aa4cb939e32a6cb93ae48ba3ce92963ba3ce98aa4cb939e32a6cb93ae48ba3ce92963ba3ce98aa4c7243d1de998ae918c82c092fe1cd4bdf71d53abef31fa599e9f267619dfadfc1d52d2d3aad05925e3205bea3cdb3f8eefdbebdba3c7f5ad5dba2726b34d0802d9c6dec6f3b7c3bbd477390a6441991eb8b97fb6e7e4fbf65a231ce97b6c4d3cb3c5cc45baf1433062e969f4d26793c91fbf66b309d2c796743b4847ba1b632eef24fd0448a7bc8f07927e1a924ed2c703493f0d4927e9e381a49f86a493f4f140d265263db5c26dd87181f4d3a87592d94862444c79572da4afe6769208b9b9ff65ef7079ba8d5f7a6a5f76c6a058ef76eb3fb22b9308b9b9bfdb5ad195c7277d7679b9bdfc334f3ba318283bab18a37e735fa3d44e74d217d6e69acdba4dab5d946d7452a44fac6be4b492ae901e351ba48f2de976908e743728ef71b3a1bc53de9d20e971b321e924dd09921e371b922e25e993c377481723fd0da423dd0dc6f40899bc1578924ed2dd20e95a88fa62d626d1ccb2f9985a5d7cb8ea832f574f8be6da375f1c68733acb9b2442fa923ee949fa553be93d9dcbd53dd28f10217d8974921e07b18de957243d5ce98ce9221b23497ab090f4b3e0ea9d313d1248fa599074c6f44820e96741d219d32381a49f0549674c4fa427fde14ac084cbbdf709979b0ef8d6dfbdf79ea6b09f24cfa7dfdcffd309b73d25fd7165e7ca4586a6a695f4553f27f3c577d26f3e2dba60d697f4cf1776be7c68ce751be953fbb94cdb9ccc27efd23b6943dbf4253def49fab68df48b9e4ec67fd2dffd7a467b26b149bfed497a34496fadfadde7119bf46d48d249ba1fe9d721498f31e9fb5ff020e9f2921e5d79bf4d080226e96743d2c5257d129ff46b922eafbc6f43921e65d2232cefd721498ff1ea3d46e9db90a44799f4497ce5fd3a24e924dd8ff46d48d2a34c7a84e5fd3a24e991263dbaf2be0d493a498f7b96ed424ad2fbbbf73e9b3d96766eef9ab369f33e1f1db8ffd49c4893de5379b7ef9ab267e68b859dcdb7364d877e9d077e21e7b6bad4cc172eab4b7d4bc227ec7beff1b11123bdc7f21e1b1b41d249fa2b4827e96112f6bdf7f8d850de911e248ce9dd2229e9947781d2b97a9726bdcf7befb1b191229df22e533a4917279d7bef02a573f52e523ae5fd15a473f51e26dc7bef16924ed2c38431bd5b24259d7bef02a573f52e4d3af7de054aa7bccb944e7917279d7bef02a573f52e523ae5fd15a473472e4cb8f7de2d249da48709637ab7484a3af7dee396bef8f9d74f1b97deaede6f7f2f30f2bab4c7cb62232d568bf1479cd2278bbf3e6afcfb97cecf89af25c51ea7799ee7d317f2699e4f1f911e84f41e578c7ccc35902e20e948ef1ea4778ba4319df22e503ae51de98ce941c3d57bb750deb97a0f13c6f46e919474aede054ae7eafd15a433a68709e5bd5b483a490f37e9c7388ee9dadaf64cb84495f4c5f12e153327e9face163dcea76b5c309f7e3637f7ffe8fcd0a57ffc9f81f1a4be3a67b69d6caee58f28926e90cd7ffcfbd1c68fecf84937f7db9ea4d7ec8d13b2f3d978a5ffeb4ffa90fbf4b401e91d488f8d0d49477a1c0456de4d0802636343d2911e0724fd2c483a498f04927e16249da44702493f0b924ed22381a49f054927e991107ed227fd7c99b43948bc49b7c26dd8132c3637498464f31f1f7f581930e9779ffa61a2bfd0e4e1b1f9511e974994dccced2443499f2c3e4c2fa6dd7331dd682f34db7c6ef142179f9338c9ec0c29fdbf1568ba25d7a4cf669bcf6d8e13abf4e68c40fab426e96d0e83f488a5cf904ed25d21e9247dc430a61f20e9247dc490f403249da48f18927e80a493f41143d20f9074923e6248fa01923e54d2f3c68f13b36c0e4fd440fa50d22f9a533f9f6e7d16d24391be7ad9e2a71946d2279faccf7934675f49fa40d21f3c2d5132597c427a28497f40babcabf707a423bd2f28ef24fd375cc851de470c63fa01924ed2470c493f40d249fa8821e907483a491f3124fd004927e92386a41f20e9c325dd0f4cad8634cbe68b07e3b549fa40d2cb075f94480f25e917fe407ac4ddb079cb07d283913e208ce9481f3181fd3d7d48483ad247cc5049cf8ffe150424dd6fd2f36900209df23e62b8903b40d2a5243d7ffb16e952a4bf03e94348cfa78382f4f1273dd7ff03d207949e7bf9d304e9fd4acf4f846d5090ee31e9f9340c903efe31dd00e9481f31dc913b40d2a5243d7ffb16e90348cfa7c3827429497f07d207939e4f3dc11d39ffd27307233eefc791740fd2ff239c924f791facbc0f07d2913e62b8397380a47b4e7a3e1d1ea44b29eff94d6f01dbb7489722fd1d48ef557a3eadc7d70f45fdeb20dd47d2f3464e7a07e9c397f7bcb73f912ef6579573fd3f90f4f14b3740ba47e9f9340c904ed2478cdc31dd80a44b919ebf7d8bf421a4e7d341417acfd2f301e5f2bb6c838ee9f9492543fc5090f421cabb81c7db7148f795f4b020e93ea5e7bef5d6bf28d249fa88e1e6cc01924ed2470c493f40d205263d4fa4d02ee94f4f9be64c3e7c0e983c5f26526829fdc3dd6573ee3a607bf9f0ad9f4f224bc4e0537a276cfa922e88f6d25fb5df35f8a703ee903ea4f461b8433ad2a105245d20481708d205827481205d20481708d205827481205d20481708d205827481205d20481708d205827481205d20481708d205827481205d20481708d205827481205d20481708d205827481205d20481708d205827481205d20481708d205827481205d20481708d205827481205d20481708d205827481205d20481708d205827481205d20484f06e1ffb174db57659479b70000000049454e44ae42608268",
        "c04caee11ca8831114ca260d1ae04bbc314b6880bcde4ed7e9ce7aa4d7fc9dce1f"
      ],
      "is_coinbase": false,
      "sequence": 4294967293
    }
  ],
  "vout": [
    {
      "scriptpubkey": "5120d8151a134828d5539196f5b4f2e7c0426c816e8722f1330f79bc9cea7a0a8a8a",
      "scriptpubkey_asm": "OP_PUSHNUM_1 OP_PUSHBYTES_32 d8151a134828d5539196f5b4f2e7c0426c816e8722f1330f79bc9cea7a0a8a8a",
      "scriptpubkey_type": "v1_p2tr",
      "scriptpubkey_address": "bc1pmq235y6g9r248yvk7k609e7qgfkgzm58ytcnxrmehjww57s2329qrla5t3",
      "value": 600
    }
  ],
  "size": 4284,
  "weight": 4566,
  "fee": 17130,
  "status": {
    "confirmed": true,
    "block_height": 834460,
    "block_hash": "00000000000000000000484a79b643b2524bbce82e5d8a442013fa5b8905ed98",
    "block_time": 1710307468
  },
  "hex": "02000000000101548be52820ba085b567dcc19c91c3373f1939d3261de8eea6f09d5a446af5f320000000000fdffffff015802000000000000225120d8151a134828d5539196f5b4f2e7c0426c816e8722f1330f79bc9cea7a0a8a8a03402828d525fb267e9f0b521d50103ea889bf75fc580085c62880b387e388d92598947e202d90d7a2d610a9cdcc6956a20d70a0fcbf9697ba698d7cce8dd62725effdf50f204caee11ca8831114ca260d1ae04bbc314b6880bcde4ed7e9ce7aa4d7fc9dce1fac0063036f7264010109696d6167652f706e67004d080289504e470d0a1a0a0000000d49484452000001f4000001f40803000000fc082fb80000008d504c54455b8697c5acab03050ff8ebed1e1e1eeed5d6a98a87fbeff1ef0f0fdec9c8f60807528c9e5d8494ffc301fff9fb2f2a26558294c92d31697a8985626b79727ce11a1b9d4f58d9cdcafff158eee0e2939aa03b3d3fe3d0ceae908ee9d4d46e909db14046f02526a9a6aa4f7e90f7a1a3b8c2cbed8081928888ffc501d6bfbeee5858d8b625fde987fed01adfa09eb416f9ea000000097048597300000b1300000b1301009a9c1800000ec049444154789ced9d017bda361746dd4082235c1c834d464b139a6ecd92f6ebffff79df43939120994a36b62cf99e43d6e5d9338ce1e4bd72ad1b2949000000000000000000000000000000000000000ce6761217e6d68764b2f5ceca7ae9eb64960e64f6e3942b2ba5c361464b56a854fd915455e5dccf47b42c546ac57a32d97ca7ac14be7e9043956e232ce92b07e9f6a3203d2ae9a54bd26d0721e902a5a7247d74e55dd90e42d2e3925e92f4115dc86573c67471d2138fe59d313d2ee92563babca497d1277df09b81f1495fc59ff4a1adc727bd8c3de9df3e27031390f44cc8d5fbb7e5d0510f487ac2d5bb27e2935ec69ef4a1c93a939e9924f697d79ee02add02b36c7f66de95f4562d2e738dacb04f84abd5dcd25f93d4255d3f4a35dea4db5b51cac2e1037290be2e7456d6b35b1e37b34d0802ac57eb9d7194b5d9f362ed8b29d7c63baad63a43ffb5a92fb2f9aab26206bb68de2e55d7acb2b6457dbe326b8ac1ca08f22e6dfea65421a6292e9baf7ec7589d7ed4d4f67dfd6cfe4a66455d5b0f53d60c25fac9acf5817fbe2f4dcaf2a8913ed6649f92de0c6fd2e766d24df4a3bc486ffc9e906e939e8493f414e98d5590f41748ba85a0c6f494a493f484313deef29e907479d2e75cbdcb939e907479d2e7245d9ef484a4cb933e27e9f2a427243d66e9599634979e3926fd78a684bfa70f27dd9cf06c51de4b27e9c9be2de2e5b16fcc709a7051daa41bb7613b90be2c359666cfcb5a3f8cd14ee592f4dd4bcbc4fecfd7ef5c5a7d8c5e8c1d53ab674aaf6b9948cdce99b9f6a455b1db15ef1ebbc241bad92ee5f01cb3f3424c0f456fe5bda6f35015b60581b2fd08d0d85f2bd4daec9d4ca4e055baed63cd5c7eefa43be989543c4bfff3079d21dd0b245d20481708d205827481205d20481708d205827481205d20481708d245a0ff5a6fbb7bef756b891c4f59b94cb864c6a2204cb8f482b6378d93f49af53dace8f3e90eb36c497fd26bfa37ec6be4ec277f2d5f490c64463fcbda619925875d6e0c8cbd7d0a63398fa5d15551b3e84527984b8b94f6cf6a6776d71844617de9b2b8882e7d67c4d858b1c5a4a829f91a658b969756a82a6bda269325cbca6cc931ce771943bfcdb2b22dc351f3911573eb805df324fbc994a927f60b454d080265dac382dbe2655524d23b589823734b7a38d2d3e6ab8339ae58178974e54b7a60496f08d263979e22bd2924fd3494f723487a3030a63bc298ce987e0aca7bb0e55d7121d7f82323e92721e94790f4609079219752dee549574897273d45bab709175b734d99fa9c656bc8a866d9bc8de9f6e69a65ea899af9743b35fb15453c9fee45ba2a4a2babd41795fd64ccb3333faa683b677c25dd61ef9c2af586c3c9d8cfae2acd959062c0a3f4f1510dbe036a3b907e0648174815c5086e42d2cf00e902a948ba3c2aa4cba342ba3c2aa4cba342ba3c2aa4cba342ba3c2aa4cba342ba3c2aa48f1e65b64c2472eebdeff4f6101953ab85b1828a24e945b9d2ba4aec2b51c48f5ac7d932d18d74a128fbfe90918074817bfb20dd19922e104579978742ba3c14d2e5a1902e0f85747928a4cb43215d1e0ae9f25048978742ba3c14d2c78fd21f481f3f85ceaa762b1f1b01cecc31cb7602552deddbbcac1db6f2598537218b74f705a8cc4f6fbfb39565279f1067e1917e4eabab7d3bb334457a3c28a40ba422e9e25048174845d2c5a1902e908aa48b43215d201549178742ba402a922e0e85748154245d1cca619b9778275c7c7c82315219f3e926214a7768e35856c60c30bcb0b35304273d9baf8d6d488c368eccd89ec6e58d8840194d72fac3e993f22e7d7f5a6f2799aad4ecdd6955b2c01defd28d3330a5eb17274817205d07e91d837481acc34d08024f3ae55da074cabb40e9245da074922e503a4917289da40b944ed2054a27e902a5937481d249fa28a577d10d0227317e433d04e99d7483c0292a7b0b8377e9bb552d47dbb120bd3d6a6d84c8a3f113d24fac91511d7e42537ae6a2dedca74e3af48b5afb758cf40040ba401449978742ba3c14d2e5a1902e0f85747928a4cb43215d1e0ae9f25048978742ba3c14d2e5a1902e0f1580f49a897318b7f4a45ceb14bdbe6550434bffcdfcdd5732cf907e0e476d65f5382c3ee79b25d2cf61e9b9e1ad1b907e16cbf0d601b492cd917e16245d20cb08cb3b4917289d315da074922e503a4917289da40b944ed2054a27e902a5937481d249ba40e9245da0f41893ae2c0fafc428bd6e9b9eb0d71af9faacf355e7f96bcdd3be5abf6ca45f2bbdcba88a547ab636f61beac6cef3df56beb739ca6c62e5d27ca5af9d5094fad23cf14dacd6d2d10a25ead7c2cac47e98efc693660e184fbaeca47ca962e03583425f9646fdb2067276693fccb3f9acd9447b68ecff8f16afe4f29e0a63cdbd64147427dd1e480715df5d826d4f7e67491f89e5a0a5ab4ea44f901e93f4f4b90be9243d2ae98aa4cb939e32a6cb93ae48ba3ce92963ba3ce98aa4cb939e32a6cb93ae48ba3ce92963ba3ce98aa4c7243d1de998ae918c82c092fe1cd4bdf71d53abef31fa599e9f267619dfadfc1d52d2d3aad05925e3205bea3cdb3f8eefdbebdba3c7f5ad5dba2726b34d0802d9c6dec6f3b7c3bbd477390a6441991eb8b97fb6e7e4fbf65a231ce97b6c4d3cb3c5cc45baf1433062e969f4d26793c91fbf66b309d2c796743b4847ba1b632eef24fd0448a7bc8f07927e1a924ed2c703493f0d4927e9e381a49f86a493f4f140d265263db5c26dd87181f4d3a87592d94862444c79572da4afe6769208b9b9ff65ef7079ba8d5f7a6a5f76c6a058ef76eb3fb22b9308b9b9bfdb5ad195c7277d7679b9bdfc334f3ba318283bab18a37e735fa3d44e74d217d6e69acdba4dab5d946d7452a44fac6be4b492ae901e351ba48f2de976908e743728ef71b3a1bc53de9d20e971b321e924dd09921e371b922e25e993c377481723fd0da423dd0dc6f40899bc1578924ed2dd20e95a88fa62d626d1ccb2f9985a5d7cb8ea832f574f8be6da375f1c68733acb9b2442fa923ee949fa553be93d9dcbd53dd28f10217d8974921e07b18de957243d5ce98ce9221b23497ab090f4b3e0ea9d313d1248fa599074c6f44820e96741d219d32381a49f0549674c4fa427fde14ac084cbbdf709979b0ef8d6dfbdf79ea6b09f24cfa7dfdcffd309b73d25fd7165e7ca4586a6a695f4553f27f3c577d26f3e2dba60d697f4cf1776be7c68ce751be953fbb94cdb9ccc27efd23b6943dbf4253def49fab68df48b9e4ec67fd2dffd7a467b26b149bfed497a34496fadfadde7119bf46d48d249ba1fe9d721498f31e9fb5ff020e9f2921e5d79bf4d080226e96743d2c5257d129ff46b922eafbc6f43921e65d2232cefd721498ff1ea3d46e9db90a44799f4497ce5fd3a24e924dd8ff46d48d2a34c7a84e5fd3a24e991263dbaf2be0d493a498f7b96ed424ad2fbbbf73e9b3d96766eef9ab369f33e1f1db8ffd49c4893de5379b7ef9ab267e68b859dcdb7364d877e9d077e21e7b6bad4cc172eab4b7d4bc227ec7beff1b11123bdc7f21e1b1b41d249fa2b4827e96112f6bdf7f8d850de911e248ce9dd2229e9947781d2b97a9726bdcf7befb1b191229df22e533a4917279d7bef02a573f52e523ae5fd15a473f51e26dc7bef16924ed2c38431bd5b24259d7bef02a573f52e4d3af7de054aa7bccb944e7917279d7bef02a573f52e523ae5fd15a473472e4cb8f7de2d249da48709637ab7484a3af7dee396bef8f9d74f1b97deaede6f7f2f30f2bab4c7cb62232d568bf1479cd2278bbf3e6afcfb97cecf89af25c51ea7799ee7d317f2699e4f1f911e84f41e578c7ccc35902e20e948ef1ea4778ba4319df22e503ae51de98ce941c3d57bb750deb97a0f13c6f46e919474aede054ae7eafd15a433a68709e5bd5b483a490f37e9c7388ee9dadaf64cb84495f4c5f12e153327e9face163dcea76b5c309f7e3637f7ffe8fcd0a57ffc9f81f1a4be3a67b69d6caee58f28926e90cd7ffcfbd1c68fecf84937f7db9ea4d7ec8d13b2f3d978a5ffeb4ffa90fbf4b401e91d488f8d0d49477a1c0456de4d0802636343d2911e0724fd2c483a498f04927e16249da44702493f0b924ed22381a49f054927e991107ed227fd7c99b43948bc49b7c26dd8132c3637498464f31f1f7f581930e9779ffa61a2bfd0e4e1b1f9511e974994dccced2443499f2c3e4c2fa6dd7331dd682f34db7c6ef142179f9338c9ec0c29fdbf1568ba25d7a4cf669bcf6d8e13abf4e68c40fab426e96d0e83f488a5cf904ed25d21e9247dc430a61f20e9247dc490f403249da48f18927e80a493f41143d20f9074923e6248fa01923e54d2f3c68f13b36c0e4fd440fa50d22f9a533f9f6e7d16d24391be7ad9e2a71946d2279faccf7934675f49fa40d21f3c2d5132597c427a28497f40babcabf707a423bd2f28ef24fd375cc851de470c63fa01924ed2470c493f40d249fa8821e907483a491f3124fd004927e92386a41f20e9c325dd0f4cad8634cbe68b07e3b549fa40d2cb075f94480f25e917fe407ac4ddb079cb07d283913e208ce9481f3181fd3d7d48483ad247cc5049cf8ffe150424dd6fd2f36900209df23e62b8903b40d2a5243d7ffb16e952a4bf03e94348cfa78382f4f1273dd7ff03d207949e7bf9d304e9fd4acf4f846d5090ee31e9f9340c903efe31dd00e9481f31dc913b40d2a5243d7ffb16e90348cfa7c3827429497f07d207939e4f3dc11d39ffd27307233eefc791740fd2ff239c924f791facbc0f07d2913e62b8397380a47b4e7a3e1d1ea44b29eff94d6f01dbb7489722fd1d48ef557a3eadc7d70f45fdeb20dd47d2f3464e7a07e9c397f7bcb73f912ef6579573fd3f90f4f14b3740ba47e9f9340c904ed2478cdc31dd80a44b919ebf7d8bf421a4e7d341417acfd2f301e5f2bb6c838ee9f9492543fc5090f421cabb81c7db7148f795f4b020e93ea5e7bef5d6bf28d249fa88e1e6cc01924ed2470c493f40d205263d4fa4d02ee94f4f9be64c3e7c0e983c5f26526829fdc3dd6573ee3a607bf9f0ad9f4f224bc4e0537a276cfa922e88f6d25fb5df35f8a703ee903ea4f461b8433ad2a105245d20481708d205827481205d20481708d205827481205d20481708d205827481205d20481708d205827481205d20481708d205827481205d20481708d205827481205d20481708d205827481205d20481708d205827481205d20481708d205827481205d20481708d205827481205d20481708d205827481205d20481708d205827481205d20484f06e1ffb174db57659479b70000000049454e44ae4260826821c04caee11ca8831114ca260d1ae04bbc314b6880bcde4ed7e9ce7aa4d7fc9dce1f00000000"
}