{
  "txid": "cf3d6b3ddc50fc2db5a91659950979c7bde4cbf0640600e6edab37e4548f33b4",
  "version": 1,
  "locktime": 0,
  "vin": [
    {
      "txid": "492c8a34b81f3d21ccabad349befc1f7c81dc54b68e3c42e60830d29f1d069e1",
      "vout": 1,
      "prevout": {
        "scriptpubkey": "76a914b9c457c7848ccb1be09e0e32659229a68d4deb1788ac",
        "scriptpubkey_asm": "OP_DUP OP_HASH160 OP_PUSHBYTES_20 b9c457c7848ccb1be09e0e32659229a68d4deb17 OP_EQUALVERIFY OP_CHECKSIG",
        "scriptpubkey_type": "p2pkh",
        "scriptpubkey_address": "1HwFDdduGgvU6ES36X7L3RiA4epQA8KrQX",
        "value": 85112016
      },
      "scriptsig": "47304402206acd8ac31277300da0fc72c88eb9ef1fdc3099bc91cc700c87ffe9b555df7dc6022024e94a504713fc63ec9682bf5dfcfe48db31eb74dd4be58d33effee601af6074012103c3ce451e8b53088d6e905987eb2e195776ab9d80fc03fedb30776d3135e8aa52",
      "scriptsig_asm": "OP_PUSHBYTES_71 304402206acd8ac31277300da0fc72c88eb9ef1fdc3099bc91cc700c87ffe9b555df7dc6022024e94a504713fc63ec9682bf5dfcfe48db31eb74dd4be58d33effee601af607401 OP_PUSHBYTES_33 03c3ce451e8b53088d6e905987eb2e195776ab9d80fc03fedb30776d3135e8aa52",
      "is_coinbase": false,
      "sequence": 4294967295
    }
  ],
  "vout": [
    {
      "scriptpubkey": "a914c422d2c04e12185a2b5aaf98e118a42de09f55bc87",
      "scriptpubkey_asm": "OP_HASH160 OP_PUSHBYTES_20 c422d2c04e12185a2b5aaf98e118a42de09f55bc OP_EQUAL",
      "scriptpubkey_type": "p2sh",
      "scriptpubkey_address": "3Ka65hnvmDXSfHAEq5ZgcivDSDnsSRP99F",
      "value": 149066
    },
    {
      "scriptpubkey": "76a914b9c457c7848ccb1be09e0e32659229a68d4deb1788ac",
      "scriptpubkey_asm": "OP_DUP OP_HASH160 OP_PUSHBYTES_20 b9c457c7848ccb1be09e0e32659229a68d4deb17 OP_EQUALVERIFY OP_CHECKSIG",
      "scriptpubkey_type": "p2pkh",
      "scriptpubkey_address": "1HwFDdduGgvU6ES36X7L3RiA4epQA8KrQX",
      "value": 84960025
    }
  ],
  "size": 223,
  "weight": 892,
  "fee": 2925,
  "status": {
    "confirmed": true,
    "block_height": 834460,
    "block_hash": "00000000000000000000484a79b643b2524bbce82e5d8a442013fa5b8905ed98",
    "block_time": 1710307468
  },
  "hex": "0100000001e169d0f1290d83602ec4e3684bc51dc8f7c1ef9b34adabcc213d1fb8348a2c49010000006a47304402206acd8ac31277300da0fc72c88eb9ef1fdc3099bc91cc700c87ffe9b555df7dc6022024e94a504713fc63ec9682bf5dfcfe48db31eb74dd4be58d33effee601af6074012103c3ce451e8b53088d6e905987eb2e195776ab9d80fc03fedb30776d3135e8aa52ffffffff024a4602000000000017a914c422d2c04e12185a2b5aaf98e118a42de09f55bc8719631005000000001976a914b9c457c7848ccb1be09e0e32659229a68d4deb1788ac00000000"
}