{
  "txid": "cf400034ccfb391cb82148455675c37449fdc261801bb8529c7695d673bcf163",
  "version": 2,
  "locktime": 0,
  "vin": [
    {
      "txid": "a42380fe0a74ac11e1346de247c61e1f2632bcf631d88bd68e064aa0c5154a95",
      "vout": 1,
      "prevout": {
        "scriptpubkey": "5120a959d975c31a975a3c572158365911c10a5f7e7c81f072a1b7ec35b9bd07175c",
        "scriptpubkey_asm": "OP_PUSHNUM_1 OP_PUSHBYTES_32 a959d975c31a975a3c572158365911c10a5f7e7c81f072a1b7ec35b9bd07175c",
        "scriptpubkey_type": "v1_p2tr",
        "scriptpubkey_address": "bc1p49vajawrr2t450zhy9vrvkg3cy997lnus8c89gdhas6mn0g8zawq9ce29p",
        "value": 1411170
      },
      "scriptsig": "",
      "scriptsig_asm": "",
      "witness": [
        "e40487bd96ff4b3fd4c0f5220aa585a3af7f56ab452a767138c7ebec08ef6aa4a67daec041e93ec3ccace26f640a12ddce6b6745001f3ed250eb663f88d562cd"
      ],
      "is_coinbase": false,
      "sequence": 2147483649
    }
  ],
  "vout": [
    {
      "scriptpubkey": "5120efef76923eb4db99267bd94f0cc4f54d12ebc3d2f008d0046cd9673eb96d7c97",
      "scriptpubkey_asm": "OP_PUSHNUM_1 OP_PUSHBYTES_32 efef76923eb4db99267bd94f0cc4f54d12ebc3d2f008d0046cd9673eb96d7c97",
      "scriptpubkey_type": "v1_p2tr",
      "scriptpubkey_address": "bc1palhhdy37kndejfnmm98se384f5fwhs7j7qydqprvm9nnawtd0jtsmsjnu3",
      "value": 378624
    },
    {
      "scriptpubkey": "5120a959d975c31a975a3c572158365911c10a5f7e7c81f072a1b7ec35b9bd07175c",
      "scriptpubkey_asm": "OP_PUSHNUM_1 OP_PUSHBYTES_32 a959d975c31a975a3c572158365911c10a5f7e7c81f072a1b7ec35b9bd07175c",
      "scriptpubkey_type": "v1_p2tr",
      "scriptpubkey_address": "bc1p49vajawrr2t450zhy9vrvkg3cy997lnus8c89gdhas6mn0g8zawq9ce29p",
      "value": 1029928
    }
  ],
  "size": 205,
  "weight": 616,
  "fee": 2618,
  "status": {
    "confirmed": true,
    "block_height": 834638,
    "block_hash": "000000000000000000025f742c626208ac87e0b7d15054abb4a19ca2d735a54e",
    "block_time": 1710405325
  },
  "hex": "02000000000101954a15c5a04a068ed68bd831f6bc32261f1ec647e26d34e111ac740afe8023a40100000000010000800200c7050000000000225120efef76923eb4db99267bd94f0cc4f54d12ebc3d2f008d0046cd9673eb96d7c9728b70f0000000000225120a959d975c31a975a3c572158365911c10a5f7e7c81f072a1b7ec35b9bd07175c0140e40487bd96ff4b3fd4c0f5220aa585a3af7f56ab452a767138c7ebec08ef6aa4a67daec041e93ec3ccace26f640a12ddce6b6745001f3ed250eb663f88d562cd00000000"
}