{
  "txid": "cf45fc7796b8fd2f7b6d1121dadd3450aae32c479ed8bf97168187e293882dd0",
  "version": 2,
  "locktime": 0,
  "vin": [
    {
      "txid": "4c8871c5a1fc315e5495715229b6e56cca82fd456e11b3df1a98b52074827e5c",
      "vout": 0,
      "prevout": {
        "scriptpubkey": "a91404e66fb348a6fbd51116df902064bac0288893c887",
        "scriptpubkey_asm": "OP_HASH160 OP_PUSHBYTES_20 04e66fb348a6fbd51116df902064bac0288893c8 OP_EQUAL",
        "scriptpubkey_type": "p2sh",
        "scriptpubkey_address": "328vgJp9HvXD1aPnU8sJh3qcsd4xzYfu9v",
        "value": 500000
      },
      "scriptsig": "160014919a4ade6140f89accdc4351887debbc9476d17a",
      "scriptsig_asm": "OP_PUSHBYTES_22 0014919a4ade6140f89accdc4351887debbc9476d17a",
      "witness": [
        "3044022064ed8723927d8d1a6aa03c02ac98aec7c0e56c7752728fe8a0da6b8bd0983cb402207dafa0f88356bb93282b2bc9cf022d2d32bf0fb3f5942845d7171a3027c1394c01",
        "03e68869e6a26a02a8ec6166579e1298888494465f78a8b5ae457924412760a8e9"
      ],
      "is_coinbase": false,
      "sequence": 4294967293,
      "inner_redeemscript_asm": "OP_0 OP_PUSHBYTES_20 919a4ade6140f89accdc4351887debbc9476d17a"
    },
    {
      "txid": "4a6c4f59be088eb6b7ff5b5f16568f568c28376a31ef9354dbee7d714634ccea",
      "vout": 8,
      "prevout": {
        "scriptpubkey": "a91404e66fb348a6fbd51116df902064bac0288893c887",
        "scriptpubkey_asm": "OP_HASH160 OP_PUSHBYTES_20 04e66fb348a6fbd51116df902064bac0288893c8 OP_EQUAL",
        "scriptpubkey_type": "p2sh",
        "scriptpubkey_address": "328vgJp9HvXD1aPnU8sJh3qcsd4xzYfu9v",
        "value": 207400
      },
      "scriptsig": "160014919a4ade6140f89accdc4351887debbc9476d17a",
      "scriptsig_asm": "OP_PUSHBYTES_22 0014919a4ade6140f89accdc4351887debbc9476d17a",
      "witness": [
        "304402206a6e4116749d2af819ebc69e6036ba467da08c5d8d5d6b1360604efd347cad3202205603f5a0868a7c27906c996d16199fee66b4a66f6f06f59d19f3bfa399f297a001",
        "03e68869e6a26a02a8ec6166579e1298888494465f78a8b5ae457924412760a8e9"
      ],
      "is_coinbase": false,
      "sequence": 4294967293,
      "inner_redeemscript_asm": "OP_0 OP_PUSHBYTES_20 919a4ade6140f89accdc4351887debbc9476d17a"
    },
    {
      "txid": "4a6c4f59be088eb6b7ff5b5f16568f568c28376a31ef9354dbee7d714634ccea",
      "vout": 9,
      "prevout": {
        "scriptpubkey": "a91404e66fb348a6fbd51116df902064bac0288893c887",
        "scriptpubkey_asm": "OP_HASH160 OP_PUSHBYTES_20 04e66fb348a6fbd51116df902064bac0288893c8 OP_EQUAL",
        "scriptpubkey_type": "p2sh",
        "scriptpubkey_address": "328vgJp9HvXD1aPnU8sJh3qcsd4xzYfu9v",
        "value": 207400
      },
      "scriptsig": "160014919a4ade6140f89accdc4351887debbc9476d17a",
      "scriptsig_asm": "OP_PUSHBYTES_22 0014919a4ade6140f89accdc4351887debbc9476d17a",
      "witness": [
        "304402205316a7a81435fcfa20f14ca7a80f52c6ea52f01daf77e5d7b3a2372dea4c0a6f02205cf23e57af11d7e7faf54b512f5c88736224f5185f49f766b077ded3ed2ce24101",
        "03e68869e6a26a02a8ec6166579e1298888494465f78a8b5ae457924412760a8e9"
      ],
      "is_coinbase": false,
      "sequence": 4294967293,
      "inner_redeemscript_asm": "OP_0 OP_PUSHBYTES_20 919a4ade6140f89accdc4351887debbc9476d17a"
    }
  ],
  "vout": [
    {
      "scriptpubkey": "a9143bf9a698e8766ea7d92c363770a8b9f1ee64fb6287",
      "scriptpubkey_asm": "OP_HASH160 OP_PUSHBYTES_20 3bf9a698e8766ea7d92c363770a8b9f1ee64fb62 OP_EQUAL",
      "scriptpubkey_type": "p2sh",
      "scriptpubkey_address": "37A8ruEYCP8UABQT46oZvGHYGKvC3YvzQh",
      "value": 909428
    }
  ],
  "size": 557,
  "weight": 1259,
  "fee": 5372,
  "status": {
    "confirmed": true,
    "block_height": 834638,
    "block_hash": "000000000000000000025f742c626208ac87e0b7d15054abb4a19ca2d735a54e",
    "block_time": 1710405325
  },
  "hex": "020000000001035c7e827420b5981adfb3116e45fd82ca6ce5b629527195545e31fca1c571884c0000000017160014919a4ade6140f89accdc4351887debbc9476d17afdffffffeacc3446717deedb5493ef316a37288c568f56165f5bffb7b68e08be594f6c4a0800000017160014919a4ade6140f89accdc4351887debbc9476d17afdffffffeacc3446717deedb5493ef316a37288c568f56165f5bffb7b68e08be594f6c4a0900000017160014919a4ade6140f89accdc4351887debbc9476d17afdffffff0174e00d000000000017a9143bf9a698e8766ea7d92c363770a8b9f1ee64fb628702473044022064ed8723927d8d1a6aa03c02ac98aec7c0e56c7752728fe8a0da6b8bd0983cb402207dafa0f88356bb93282b2bc9cf022d2d32bf0fb3f5942845d7171a3027c1394c012103e68869e6a26a02a8ec6166579e1298888494465f78a8b5ae457924412760a8e90247304402206a6e4116749d2af819ebc69e6036ba467da08c5d8d5d6b1360604efd347cad3202205603f5a0868a7c27906c996d16199fee66b4a66f6f06f59d19f3bfa399f297a0012103e68869e6a26a02a8ec6166579e1298888494465f78a8b5ae457924412760a8e90247304402205316a7a81435fcfa20f14ca7a80f52c6ea52f01daf77e5d7b3a2372dea4c0a6f02205cf23e57af11d7e7faf54b512f5c88736224f5185f49f766b077ded3ed2ce241012103e68869e6a26a02a8ec6166579e1298888494465f78a8b5ae457924412760a8e900000000"
}