{
  "txid": "cf5defde2692c92c514841b231404db099ab1278e1a3b6bca120917f6a99c323",
  "version": 2,
  "locktime": 834637,
  "vin": [
    {
      "txid": "fe8c9f2812726fd03c833a5d38027f42bf48ca0564da5bc8c39daa28296ca327",
      "vout": 1,
      "prevout": {
        "scriptpubkey": "0014c2d8abfab6721b256640429aca0cc2bcc415f8c1",
        "scriptpubkey_asm": "OP_0 OP_PUSHBYTES_20 c2d8abfab6721b256640429aca0cc2bcc415f8c1",
        "scriptpubkey_type": "v0_p2wpkh",
        "scriptpubkey_address": "bc1qctv2h74kwgdj2ejqg2dv5rxzhnzpt7xpytw020",
        "value": 643881431
      },
      "scriptsig": "",
      "scriptsig_asm": "",
      "witness": [
        "30440220645acafd6aceec418fe21101c28d0fe99427fb738d38084ee55db203283c564402207de2e31c2dd3110884fc3df72c71bb57a0daeee615351af37cde5396644bc08401",
        "0308e2fbf203966ae99b69fc7f2d1048195891a3e1b5397dd36ae27f7c90cf475d"
      ],
      "is_coinbase": false,
      "sequence": 4294967294
    }
  ],
  "vout": [
    {
      "scriptpubkey": "0014ad24d71943a1b8f4d5b92a55ab18542706658fee",
      "scriptpubkey_asm": "OP_0 OP_PUSHBYTES_20 ad24d71943a1b8f4d5b92a55ab18542706658fee",
      "scriptpubkey_type": "v0_p2wpkh",
      "scriptpubkey_address": "bc1q45jdwx2r5xu0f4de9f26kxz5yurxtrlwzzqawx",
      "value": 104980000
    },
    {
      "scriptpubkey": "0014b2ce20bcc78a1bc727fd7d2a55511bd9a3814fba",
      "scriptpubkey_asm": "OP_0 OP_PUSHBYTES_20 b2ce20bcc78a1bc727fd7d2a55511bd9a3814fba",
      "scriptpubkey_type": "v0_p2wpkh",
      "scriptpubkey_address": "bc1qkt8zp0x83gduwfla054925gmmx3czna68r9e3w",
      "value": 538897625
    }
  ],
  "size": 222,
  "weight": 561,
  "fee": 3806,
  "status": {
    "confirmed": true,
    "block_height": 834638,
    "block_hash": "000000000000000000025f742c626208ac87e0b7d15054abb4a19ca2d735a54e",
    "block_time": 1710405325
  },
  "hex": "0200000000010127a36c2928aa9dc3c85bda6405ca48bf427f02385d3a833cd06f7212289f8cfe0100000000feffffff0220de410600000000160014ad24d71943a1b8f4d5b92a55ab18542706658feed9ec1e2000000000160014b2ce20bcc78a1bc727fd7d2a55511bd9a3814fba024730440220645acafd6aceec418fe21101c28d0fe99427fb738d38084ee55db203283c564402207de2e31c2dd3110884fc3df72c71bb57a0daeee615351af37cde5396644bc08401210308e2fbf203966ae99b69fc7f2d1048195891a3e1b5397dd36ae27f7c90cf475d4dbc0c00"
}