{
  "txid": "cf5d48ddf3576981a23ef8800f573bf1ea59c3fc0a094d68005e0f78929e14f2",
  "version": 2,
  "locktime": 0,
  "vin": [
    {
      "txid": "8d9efa07e47a3418db1d04069a29318dbddd4af7a9bd596c81f66fdc84d297b1",
      "vout": 1,
      "prevout": {
        "scriptpubkey": "0014d9fbde612034a418ddd0cbaa5556e90700645c13",
        "scriptpubkey_asm": "OP_0 OP_PUSHBYTES_20 d9fbde612034a418ddd0cbaa5556e90700645c13",
        "scriptpubkey_type": "v0_p2wpkh",
        "scriptpubkey_address": "bc1qm8aaucfqxjjp3hwsew4924hfquqxghqn2uns3q",
        "value": 215545
      },
      "scriptsig": "",
      "scriptsig_asm": "",
      "witness": [
        "3044022030779ff309389e5591a601e55c4a7a60fa8ca6f30c081622bf4e6070e2ecefad0220548e2eb712e0bb7f0d0e26e109498fcef5c89505f9ed29a9b9c007604aca3dd801",
        "03cb81173e4068d65248e13c358c8ca36bb01eb7d03d151b3fa78cd89a96f7151d"
      ],
      "is_coinbase": false,
      "sequence": 4294967295
    }
  ],
  "vout": [
    {
      "scriptpubkey": "a9144012b3147afc3a870879d8a2f5c872bb4aa4828c87",
      "scriptpubkey_asm": "OP_HASH160 OP_PUSHBYTES_20 4012b3147afc3a870879d8a2f5c872bb4aa4828c OP_EQUAL",
      "scriptpubkey_type": "p2sh",
      "scriptpubkey_address": "37Xoa61HsGkyYdXspevgNKqgm9x3waR9QS",
      "value": 132570
    },
    {
      "scriptpubkey": "0014463b6bd2bc115cff18944097094fb3e269a113de",
      "scriptpubkey_asm": "OP_0 OP_PUSHBYTES_20 463b6bd2bc115cff18944097094fb3e269a113de",
      "scriptpubkey_type": "v0_p2wpkh",
      "scriptpubkey_address": "bc1qgcakh54uz9w07xy5gztsjnanuf56zy77khjg5e",
      "value": 81438
    }
  ],
  "size": 223,
  "weight": 565,
  "fee": 1537,
  "status": {
    "confirmed": true,
    "block_height": 834464,
    "block_hash": "0000000000000000000177a0869a911a2b65c9bdcd5a8bcb02b68f305bee848e",
    "block_time": 1710308296
  },
  "hex": "02000000000101b197d284dc6ff6816c59bda9f74addbd8d31299a06041ddb18347ae407fa9e8d0100000000ffffffff02da0502000000000017a9144012b3147afc3a870879d8a2f5c872bb4aa4828c871e3e010000000000160014463b6bd2bc115cff18944097094fb3e269a113de02473044022030779ff309389e5591a601e55c4a7a60fa8ca6f30c081622bf4e6070e2ecefad0220548e2eb712e0bb7f0d0e26e109498fcef5c89505f9ed29a9b9c007604aca3dd8012103cb81173e4068d65248e13c358c8ca36bb01eb7d03d151b3fa78cd89a96f7151d00000000"
}