{
  "txid": "cf6b01bbe3d2876e7c7509f8fa9301a91d46813d881f48821863d7938f5185f7",
  "version": 2,
  "locktime": 0,
  "vin": [
    {
      "txid": "386a7883c04d057e831b9672899df5a4f6203fb1b14c71b3ee9409415615c714",
      "vout": 24,
      "prevout": {
        "scriptpubkey": "001401c1e12939eb55159ca440912f943f4518e31ece",
        "scriptpubkey_asm": "OP_0 OP_PUSHBYTES_20 01c1e12939eb55159ca440912f943f4518e31ece",
        "scriptpubkey_type": "v0_p2wpkh",
        "scriptpubkey_address": "bc1qq8q7z2fead23t89ygzgjl9plg5vwx8kw7swxzk",
        "value": 340507
      },
      "scriptsig": "",
      "scriptsig_asm": "",
      "witness": [
        "304402205f297f078733d90c62f12ae5490c89f3b5d47b5beec42f63103930f307af86b902201cee373010799d4a0c1def4bd4e85b9ed9dac0dc0baf711774eff8499e16e19601",
        "03dca768bb58b0973f7146c71c462af5de3a961436c1dce68c99611e6750f16a89"
      ],
      "is_coinbase": false,
      "sequence": 4294967293
    },
    {
      "txid": "9eac5ea3870f303c0296ec1d33f2a82410f0e5dee62f8ff848386b26b3dc3a9e",
      "vout": 79,
      "prevout": {
        "scriptpubkey": "0014b8e45953405111f5f28fa41d44d937fcc489950e",
        "scriptpubkey_asm": "OP_0 OP_PUSHBYTES_20 b8e45953405111f5f28fa41d44d937fcc489950e",
        "scriptpubkey_type": "v0_p2wpkh",
        "scriptpubkey_address": "bc1qhrj9j56q2ygltu505sw5fkfhlnzgn9gw7p3x52",
        "value": 51273
      },
      "scriptsig": "",
      "scriptsig_asm": "",
      "witness": [
        "304402201683486c05a454aa323860a9d1e81699a4438e95f765d9aa508268a2dccd634902206eb8a77f6c2cab7a6cc9736db638a88290a9e99ce82e79d3d511240e440e791201",
        "02a9fdb4ba67f6b1bde99d11299293d2cced8f752df74a0db6743210a250d02f94"
      ],
      "is_coinbase": false,
      "sequence": 4294967293
    },
    {
      "txid": "0a3fa2941f316cbf05d7a708f180a4f7cd8034f33ccfea77091252354da41e61",
      "vout": 1,
      "prevout": {
        "scriptpubkey": "0014450523091f5923f340092bfeac9b159ebac2ba11",
        "scriptpubkey_asm": "OP_0 OP_PUSHBYTES_20 450523091f5923f340092bfeac9b159ebac2ba11",
        "scriptpubkey_type": "v0_p2wpkh",
        "scriptpubkey_address": "bc1qg5zjxzglty3lxsqf90l2exc4n6av9ws34s907j",
        "value": 1000884
      },
      "scriptsig": "",
      "scriptsig_asm": "",
      "witness": [
        "30440220791d53b7c2cf0c200e7622955b03e5836664273bbdbc6513f0b45a08c24dab2002200c3e8c92a2f0a2e8117170407a6f82aa1e3004d7b41b195e9e7250fe458f5b5101",
        "02b3c6b08caa616a355e05f523d581bcbcd97baa1256735cc6e4acf0bd9da3b224"
      ],
      "is_coinbase": false,
      "sequence": 4294967293
    },
    {
      "txid": "ea57e3a3a5893bf20bc9c66b958cd60215eebd061da79204a83e8c3ed09642c0",
      "vout": 9,
      "prevout": {
        "scriptpubkey": "001405355d34caad33352012d2462ecab826b03f624f",
        "scriptpubkey_asm": "OP_0 OP_PUSHBYTES_20 05355d34caad33352012d2462ecab826b03f624f",
        "scriptpubkey_type": "v0_p2wpkh",
        "scriptpubkey_address": "bc1qq5646dx245en2gqj6frzaj4cy6cr7cj0e7aa52",
        "value": 345842
      },
      "scriptsig": "",
      "scriptsig_asm": "",
      "witness": [
        "304402201252b32841c0cdecb3b11d471ce382e30bbb007c2c600bece017f3e85d721c8e0220039806d15d07749e2729f780a23abcbff30d1a9d89e7889ed89d8d0cb57039e001",
        "02a4e97894c5fb44f3b588eeffa2fc3efb054f12ad00e7b8a07584c865e9a5e600"
      ],
      "is_coinbase": false,
      "sequence": 4294967293
    },
    {
      "txid": "69ace605ec04c2f878869a6349225a7cea089f3c5fa8c5a4c25ebbb5c1e14c9e",
      "vout": 31,
      "prevout": {
        "scriptpubkey": "00143daaec989ac92a097251fa11b08bf9464e09c6f2",
        "scriptpubkey_asm": "OP_0 OP_PUSHBYTES_20 3daaec989ac92a097251fa11b08bf9464e09c6f2",
        "scriptpubkey_type": "v0_p2wpkh",
        "scriptpubkey_address": "bc1q8k4wexy6ey4qjuj3lggmpzlege8qn3hjzn3cst",
        "value": 389026
      },
      "scriptsig": "",
      "scriptsig_asm": "",
      "witness": [
        "304402201474da86c8c3c6d2404bb8f9a70ec3dfa72534f245efaadb0c97f60e6d82bdc70220503efb8f756d087dc49f6492638fa8679c701980136d9d6bee8a4f949f8d569d01",
        "03dffff4a640075d4630108eddbcef34c6e15514b01ceb5a8a80d7f691c346f98e"
      ],
      "is_coinbase": false,
      "sequence": 4294967293
    }
  ],
  "vout": [
    {
      "scriptpubkey": "0014b325f599399e19e7c360c800a14cb668aaf29989",
      "scriptpubkey_asm": "OP_0 OP_PUSHBYTES_20 b325f599399e19e7c360c800a14cb668aaf29989",
      "scriptpubkey_type": "v0_p2wpkh",
      "scriptpubkey_address": "bc1qkvjltxfencv70smqeqq2zn9kdz409xvf6anynw",
      "value": 2122184
    }
  ],
  "size": 783,
  "weight": 1521,
  "fee": 5348,
  "status": {
    "confirmed": true,
    "block_height": 834460,
    "block_hash": "00000000000000000000484a79b643b2524bbce82e5d8a442013fa5b8905ed98",
    "block_time": 1710307468
  },
  "hex": "0200000000010514c71556410994eeb3714cb1b13f20f6a4f59d8972961b837e054dc083786a381800000000fdffffff9e3adcb3266b3848f88f2fe6dee5f01024a8f2331dec96023c300f87a35eac9e4f00000000fdffffff611ea44d3552120977eacf3cf33480cdf7a480f108a7d705bf6c311f94a23f0a0100000000fdffffffc04296d03e8c3ea80492a71d06bdee1502d68c956bc6c90bf23b89a5a3e357ea0900000000fdffffff9e4ce1c1b5bb5ec2a4c5a85f3c9f08ea7c5a2249639a8678f8c204ec05e6ac691f00000000fdffffff01c861200000000000160014b325f599399e19e7c360c800a14cb668aaf299890247304402205f297f078733d90c62f12ae5490c89f3b5d47b5beec42f63103930f307af86b902201cee373010799d4a0c1def4bd4e85b9ed9dac0dc0baf711774eff8499e16e196012103dca768bb58b0973f7146c71c462af5de3a961436c1dce68c99611e6750f16a890247304402201683486c05a454aa323860a9d1e81699a4438e95f765d9aa508268a2dccd634902206eb8a77f6c2cab7a6cc9736db638a88290a9e99ce82e79d3d511240e440e7912012102a9fdb4ba67f6b1bde99d11299293d2cced8f752df74a0db6743210a250d02f94024730440220791d53b7c2cf0c200e7622955b03e5836664273bbdbc6513f0b45a08c24dab2002200c3e8c92a2f0a2e8117170407a6f82aa1e3004d7b41b195e9e7250fe458f5b51012102b3c6b08caa616a355e05f523d581bcbcd97baa1256735cc6e4acf0bd9da3b2240247304402201252b32841c0cdecb3b11d471ce382e30bbb007c2c600bece017f3e85d721c8e0220039806d15d07749e2729f780a23abcbff30d1a9d89e7889ed89d8d0cb57039e0012102a4e97894c5fb44f3b588eeffa2fc3efb054f12ad00e7b8a07584c865e9a5e6000247304402201474da86c8c3c6d2404bb8f9a70ec3dfa72534f245efaadb0c97f60e6d82bdc70220503efb8f756d087dc49f6492638fa8679c701980136d9d6bee8a4f949f8d569d012103dffff4a640075d4630108eddbcef34c6e15514b01ceb5a8a80d7f691c346f98e00000000"
}