{
  "txid": "cf7187f109d9a7508d791ea946555b9bc14b235908642a522ebdb1da88301646",
  "version": 2,
  "locktime": 0,
  "vin": [
    {
      "txid": "e208273559c5225708c7938560db953c8dcb3c89e79c7ef62d09b8cb299db3d0",
      "vout": 0,
      "prevout": {
        "scriptpubkey": "0014d8e9e5bbfdade898f3f4b3a826012f8dd0df549b",
        "scriptpubkey_asm": "OP_0 OP_PUSHBYTES_20 d8e9e5bbfdade898f3f4b3a826012f8dd0df549b",
        "scriptpubkey_type": "v0_p2wpkh",
        "scriptpubkey_address": "bc1qmr57twla4h5f3ul5kw5zvqf03hgd74ymcv4zpf",
        "value": 3410400
      },
      "scriptsig": "",
      "scriptsig_asm": "",
      "witness": [
        "3045022100bfbfb5b634795f555578fd178ccf9db90e6762f2751cdefab68553efce546964022062ced7dabe2be2219d5b608097a5d57140bf39505f29b189282e2f6e82bc5a8601",
        "03d10d5355cc32574340006cf92ed314a7e695ae96d60e19b424094cf92a81206b"
      ],
      "is_coinbase": false,
      "sequence": 4294967295
    },
    {
      "txid": "63dd814b1eb3c54717cacb3bc999fbd26eb42f8fdf18cace6917eeb16d9f3038",
      "vout": 0,
      "prevout": {
        "scriptpubkey": "0014d8e9e5bbfdade898f3f4b3a826012f8dd0df549b",
        "scriptpubkey_asm": "OP_0 OP_PUSHBYTES_20 d8e9e5bbfdade898f3f4b3a826012f8dd0df549b",
        "scriptpubkey_type": "v0_p2wpkh",
        "scriptpubkey_address": "bc1qmr57twla4h5f3ul5kw5zvqf03hgd74ymcv4zpf",
        "value": 12593
      },
      "scriptsig": "",
      "scriptsig_asm": "",
      "witness": [
        "3045022100d6c8f7f3413ffcc88dce5e0acd2defd778d6a2b9a0bf1035b402badd7f9adc5f02200cea6cfc554bd81561f82b6795a4aefd7c757899b5fb05e0c854a8ce08654c0501",
        "03d10d5355cc32574340006cf92ed314a7e695ae96d60e19b424094cf92a81206b"
      ],
      "is_coinbase": false,
      "sequence": 4294967295
    }
  ],
  "vout": [
    {
      "scriptpubkey": "0014d8e9e5bbfdade898f3f4b3a826012f8dd0df549b",
      "scriptpubkey_asm": "OP_0 OP_PUSHBYTES_20 d8e9e5bbfdade898f3f4b3a826012f8dd0df549b",
      "scriptpubkey_type": "v0_p2wpkh",
      "scriptpubkey_address": "bc1qmr57twla4h5f3ul5kw5zvqf03hgd74ymcv4zpf",
      "value": 7084
    },
    {
      "scriptpubkey": "76a914b4c1588db4069d150e0029730d434248cca6f62c88ac",
      "scriptpubkey_asm": "OP_DUP OP_HASH160 OP_PUSHBYTES_20 b4c1588db4069d150e0029730d434248cca6f62c OP_EQUALVERIFY OP_CHECKSIG",
      "scriptpubkey_type": "p2pkh",
      "scriptpubkey_address": "1HUkFSTh5mF7VNLUZ8ANbrAtpXYZimwC7n",
      "value": 3411035
    }
  ],
  "size": 375,
  "weight": 846,
  "fee": 4874,
  "status": {
    "confirmed": true,
    "block_height": 834460,
    "block_hash": "00000000000000000000484a79b643b2524bbce82e5d8a442013fa5b8905ed98",
    "block_time": 1710307468
  },
  "hex": "02000000000102d0b39d29cbb8092df67e9ce7893ccb8d3c95db608593c7085722c559352708e20000000000ffffffff38309f6db1ee1769ceca18df8f2fb46ed2fb99c93bcbca1747c5b31e4b81dd630000000000ffffffff02ac1b000000000000160014d8e9e5bbfdade898f3f4b3a826012f8dd0df549b5b0c3400000000001976a914b4c1588db4069d150e0029730d434248cca6f62c88ac02483045022100bfbfb5b634795f555578fd178ccf9db90e6762f2751cdefab68553efce546964022062ced7dabe2be2219d5b608097a5d57140bf39505f29b189282e2f6e82bc5a86012103d10d5355cc32574340006cf92ed314a7e695ae96d60e19b424094cf92a81206b02483045022100d6c8f7f3413ffcc88dce5e0acd2defd778d6a2b9a0bf1035b402badd7f9adc5f02200cea6cfc554bd81561f82b6795a4aefd7c757899b5fb05e0c854a8ce08654c05012103d10d5355cc32574340006cf92ed314a7e695ae96d60e19b424094cf92a81206b00000000"
}