{
  "txid": "cfa6ecda43589d02e8b3637db9e2cd60ad5b00681e5f7ddf92743dea6576b02b",
  "version": 1,
  "locktime": 0,
  "vin": [
    {
      "txid": "4f3c47d655a0b35878f6e7f8eaf8e4052cb95931ffd633dd6e14e7ae1c3ed4da",
      "vout": 1,
      "prevout": {
        "scriptpubkey": "0014d4181a889e5c699a0313a6580658201dfc47537c",
        "scriptpubkey_asm": "OP_0 OP_PUSHBYTES_20 d4181a889e5c699a0313a6580658201dfc47537c",
        "scriptpubkey_type": "v0_p2wpkh",
        "scriptpubkey_address": "bc1q6svp4zy7t35e5qcn5evqvkpqrh7yw5mu7s3zg2",
        "value": 386340
      },
      "scriptsig": "",
      "scriptsig_asm": "",
      "witness": [
        "3044022033e571b60a583575b2fdc9ef130b02997863a1ed1dfe412bad622aaa49b07f68022074e309509a7c5660e1450894e770e01adcd5ea293042afdd575ca58d98efee3001",
        "02e985a2d777e1d3c10cdc7b06e3e868b1ea9fdad2506037f2cb7ea607a77246b6"
      ],
      "is_coinbase": false,
      "sequence": 4294967293
    },
    {
      "txid": "cb36c1f71404f91d5b0260234f7c227aeac0724fb20f95fb7c3e074122d5cf19",
      "vout": 0,
      "prevout": {
        "scriptpubkey": "0014c682318f79097205edcf1d3ffa19b12fa097e5f6",
        "scriptpubkey_asm": "OP_0 OP_PUSHBYTES_20 c682318f79097205edcf1d3ffa19b12fa097e5f6",
        "scriptpubkey_type": "v0_p2wpkh",
        "scriptpubkey_address": "bc1qc6prrrmep9eqtmw0r5ll5xd397sf0e0kdk4qt5",
        "value": 235311
      },
      "scriptsig": "",
      "scriptsig_asm": "",
      "witness": [
        "30440220722955d31e1c904063aee3eb03a1048e4f3923026c05f55031b92601aee438f002206a5f187b88cbcde987db62e90db341c49fd3835a9c018bb4cfc696d8346d35fd01",
        "02f2e519a9757a0d33d1401b422cb820b1d8849c72739e798df0358888b3dcc1a2"
      ],
      "is_coinbase": false,
      "sequence": 4294967295
    }
  ],
  "vout": [
    {
      "scriptpubkey": "001478e4eed13d4f9e8f279f1ad62e2ee51553aa891f",
      "scriptpubkey_asm": "OP_0 OP_PUSHBYTES_20 78e4eed13d4f9e8f279f1ad62e2ee51553aa891f",
      "scriptpubkey_type": "v0_p2wpkh",
      "scriptpubkey_address": "bc1q0rjwa5faf70g7fulrttzuth9z4f64zgl0lsqf8",
      "value": 112026
    },
    {
      "scriptpubkey": "0014d4181a889e5c699a0313a6580658201dfc47537c",
      "scriptpubkey_asm": "OP_0 OP_PUSHBYTES_20 d4181a889e5c699a0313a6580658201dfc47537c",
      "scriptpubkey_type": "v0_p2wpkh",
      "scriptpubkey_address": "bc1q6svp4zy7t35e5qcn5evqvkpqrh7yw5mu7s3zg2",
      "value": 506895
    }
  ],
  "size": 370,
  "weight": 832,
  "fee": 2730,
  "status": {
    "confirmed": true,
    "block_height": 834460,
    "block_hash": "00000000000000000000484a79b643b2524bbce82e5d8a442013fa5b8905ed98",
    "block_time": 1710307468
  },
  "hex": "01000000000102dad43e1caee7146edd33d6ff3159b92c05e4f8eaf8e7f67858b3a055d6473c4f0100000000fdffffff19cfd52241073e7cfb950fb24f72c0ea7a227c4f2360025b1df90414f7c136cb0000000000ffffffff029ab501000000000016001478e4eed13d4f9e8f279f1ad62e2ee51553aa891f0fbc070000000000160014d4181a889e5c699a0313a6580658201dfc47537c02473044022033e571b60a583575b2fdc9ef130b02997863a1ed1dfe412bad622aaa49b07f68022074e309509a7c5660e1450894e770e01adcd5ea293042afdd575ca58d98efee30012102e985a2d777e1d3c10cdc7b06e3e868b1ea9fdad2506037f2cb7ea607a77246b6024730440220722955d31e1c904063aee3eb03a1048e4f3923026c05f55031b92601aee438f002206a5f187b88cbcde987db62e90db341c49fd3835a9c018bb4cfc696d8346d35fd012102f2e519a9757a0d33d1401b422cb820b1d8849c72739e798df0358888b3dcc1a200000000"
}