{
  "txid": "cfa9e00f6f298bd911857ea037d09e2fb42b0a5145452ade9b2d9b8464ebb6f8",
  "version": 2,
  "locktime": 834637,
  "vin": [
    {
      "txid": "f628b8e085d98f354a24cd460aaf223fe64b8ae0072acebc65280c6d6bdfc0a3",
      "vout": 0,
      "prevout": {
        "scriptpubkey": "001449197844b1d8884b05c4008d8ef40bff706f7eec",
        "scriptpubkey_asm": "OP_0 OP_PUSHBYTES_20 49197844b1d8884b05c4008d8ef40bff706f7eec",
        "scriptpubkey_type": "v0_p2wpkh",
        "scriptpubkey_address": "bc1qfyvhs393mzyykpwyqzxcaaqtlacx7lhvlvc773",
        "value": 3976891
      },
      "scriptsig": "",
      "scriptsig_asm": "",
      "witness": [
        "304402202c22b45c14e5eef658ec2bf9e7774b8a3bf0e6b89dd9a20de701b5a0f9504263022011a6006cc5e1084e2dc8092cb4962cda6200156783a51d391c4638046ea87c8801",
        "026994da6a44a7f482b2575c35ce7a14ef5f96e62ab9113d3420d1be730812e1d2"
      ],
      "is_coinbase": false,
      "sequence": 4294967293
    }
  ],
  "vout": [
    {
      "scriptpubkey": "76a914b9c5d55d918e01453f14243dc58d74e79dd1ac2188ac",
      "scriptpubkey_asm": "OP_DUP OP_HASH160 OP_PUSHBYTES_20 b9c5d55d918e01453f14243dc58d74e79dd1ac21 OP_EQUALVERIFY OP_CHECKSIG",
      "scriptpubkey_type": "p2pkh",
      "scriptpubkey_address": "1HwH1CWCvLaWBwqUNjCuKj1A2UwaeKJKMz",
      "value": 367134
    },
    {
      "scriptpubkey": "76a914b9f952534b91e2237d30233717b4e897084cc7fb88ac",
      "scriptpubkey_asm": "OP_DUP OP_HASH160 OP_PUSHBYTES_20 b9f952534b91e2237d30233717b4e897084cc7fb OP_EQUALVERIFY OP_CHECKSIG",
      "scriptpubkey_type": "p2pkh",
      "scriptpubkey_address": "1HxLgf3bUFU6BN8urfYKmqz4HBpHS4DVJn",
      "value": 2633688
    },
    {
      "scriptpubkey": "001428cbc989f9fb02362618be5b4fe7c5c3fe40117c",
      "scriptpubkey_asm": "OP_0 OP_PUSHBYTES_20 28cbc989f9fb02362618be5b4fe7c5c3fe40117c",
      "scriptpubkey_type": "v0_p2wpkh",
      "scriptpubkey_address": "bc1q9r9unz0elvprvfsched5le79c0lyqytuxrhr2m",
      "value": 42186
    },
    {
      "scriptpubkey": "001461397e018fa11333bca2b31578264ddd8b3a2761",
      "scriptpubkey_asm": "OP_0 OP_PUSHBYTES_20 61397e018fa11333bca2b31578264ddd8b3a2761",
      "scriptpubkey_type": "v0_p2wpkh",
      "scriptpubkey_address": "bc1qvyuhuqv05yfn809zkv2hsfjdmk9n5fmp356wx8",
      "value": 714070
    },
    {
      "scriptpubkey": "001409db3bfedb39bd661a3871f266518cc07d837531",
      "scriptpubkey_asm": "OP_0 OP_PUSHBYTES_20 09db3bfedb39bd661a3871f266518cc07d837531",
      "scriptpubkey_type": "v0_p2wpkh",
      "scriptpubkey_address": "bc1qp8dnhlkm8x7kvx3cw8exv5vvcp7cxaf3snuetp",
      "value": 131968
    },
    {
      "scriptpubkey": "0014674300006599efe254108a46fec9a613173c6631",
      "scriptpubkey_asm": "OP_0 OP_PUSHBYTES_20 674300006599efe254108a46fec9a613173c6631",
      "scriptpubkey_type": "v0_p2wpkh",
      "scriptpubkey_address": "bc1qvapsqqr9n8h7y4qs3fr0ajdxzvtnce33yh4gn8",
      "value": 59240
    },
    {
      "scriptpubkey": "a914dd42d71210ebe8ee9024be62b249fb1f1c27e38787",
      "scriptpubkey_asm": "OP_HASH160 OP_PUSHBYTES_20 dd42d71210ebe8ee9024be62b249fb1f1c27e387 OP_EQUAL",
      "scriptpubkey_type": "p2sh",
      "scriptpubkey_address": "3MrwL55jpuNSNtXEtFPkivsPw7yKkBzeUN",
      "value": 20424
    }
  ],
  "size": 384,
  "weight": 1209,
  "fee": 8181,
  "status": {
    "confirmed": true,
    "block_height": 834638,
    "block_hash": "000000000000000000025f742c626208ac87e0b7d15054abb4a19ca2d735a54e",
    "block_time": 1710405325
  },
  "hex": "02000000000101a3c0df6b6d0c2865bcce2a07e08a4be63f22af0a46cd244a358fd985e0b828f60000000000fdffffff071e9a0500000000001976a914b9c5d55d918e01453f14243dc58d74e79dd1ac2188acd82f2800000000001976a914b9f952534b91e2237d30233717b4e897084cc7fb88accaa400000000000016001428cbc989f9fb02362618be5b4fe7c5c3fe40117c56e50a000000000016001461397e018fa11333bca2b31578264ddd8b3a2761800302000000000016001409db3bfedb39bd661a3871f266518cc07d83753168e7000000000000160014674300006599efe254108a46fec9a613173c6631c84f00000000000017a914dd42d71210ebe8ee9024be62b249fb1f1c27e387870247304402202c22b45c14e5eef658ec2bf9e7774b8a3bf0e6b89dd9a20de701b5a0f9504263022011a6006cc5e1084e2dc8092cb4962cda6200156783a51d391c4638046ea87c880121026994da6a44a7f482b2575c35ce7a14ef5f96e62ab9113d3420d1be730812e1d24dbc0c00"
}