{
  "txid": "cfcf171ba5f1209b7d081bc5aeaa77c84fdef58715cf2b7e935879220fa1c88d",
  "version": 2,
  "locktime": 0,
  "vin": [
    {
      "txid": "246d654c08ac53d370d501753f3ac2c90861e2c8cea715ed4b7554841cced399",
      "vout": 65,
      "prevout": {
        "scriptpubkey": "5120167a3ada4970983a3ce4d3a3b78874c051df013e51b794b6e28d8451e139042e",
        "scriptpubkey_asm": "OP_PUSHNUM_1 OP_PUSHBYTES_32 167a3ada4970983a3ce4d3a3b78874c051df013e51b794b6e28d8451e139042e",
        "scriptpubkey_type": "v1_p2tr",
        "scriptpubkey_address": "bc1pzear4kjfwzvr508y6w3m0zr5cpga7qf72xmefdhz3kz9rcfeqshq5xqyjd",
        "value": 3055
      },
      "scriptsig": "",
      "scriptsig_asm": "",
      "witness": [
        "8e9e224a0441d30032678d181d720a2bfa1961c76bcaddf150b1e7efb6d5207022badab2f859373fc4db3680885f1563e67c18953fc0d8c86addd16aab09a87e",
        "204e658b63edb8fb9ba46b9cce9f2106b0cb4958516c5e5b940bbe6367e242965dac0063036f726401011e6170706c69636174696f6e2f6a736f6e3b636861727365743d7574662d38004cd37b2270223a22706f772d3230222c226f70223a226d696e74222c227469636b223a2250455045222c22616d74223a2231303030222c22736f6c7574696f6e223a22504550453a62633170756a666d33753333656e70786b38383339796c6b3239323239396b6e6467686c717468396e39647a6c7663647635617076366a717732776e71663a303030303030303030303030303030303030303139393431613561653132383937363539383134343239323533333030353762306461393666336465613163353a3233313734333434313135227d68",
        "c1f4929cb66946e40c5d3e5e2b126f88b9a6070d7490abd3aa8e42bf5bbcfe7b9f"
      ],
      "is_coinbase": false,
      "sequence": 4294967295
    }
  ],
  "vout": [
    {
      "scriptpubkey": "5120e493b8f231ccc26b1cf1293f65154a296d36a2ff02ee5995a2fb30d653a166a4",
      "scriptpubkey_asm": "OP_PUSHNUM_1 OP_PUSHBYTES_32 e493b8f231ccc26b1cf1293f65154a296d36a2ff02ee5995a2fb30d653a166a4",
      "scriptpubkey_type": "v1_p2tr",
      "scriptpubkey_address": "bc1pujfm3u33enpxk8839ylk292299kndghlqth9n9dzlvcdv5apv6jqw2wnqf",
      "value": 546
    }
  ],
  "size": 487,
  "weight": 769,
  "fee": 2509,
  "status": {
    "confirmed": true,
    "block_height": 834460,
    "block_hash": "00000000000000000000484a79b643b2524bbce82e5d8a442013fa5b8905ed98",
    "block_time": 1710307468
  },
  "hex": "0200000000010199d3ce1c8454754bed15a7cec8e26108c9c23a3f7501d570d353ac084c656d244100000000ffffffff012202000000000000225120e493b8f231ccc26b1cf1293f65154a296d36a2ff02ee5995a2fb30d653a166a403408e9e224a0441d30032678d181d720a2bfa1961c76bcaddf150b1e7efb6d5207022badab2f859373fc4db3680885f1563e67c18953fc0d8c86addd16aab09a87efd2001204e658b63edb8fb9ba46b9cce9f2106b0cb4958516c5e5b940bbe6367e242965dac0063036f726401011e6170706c69636174696f6e2f6a736f6e3b636861727365743d7574662d38004cd37b2270223a22706f772d3230222c226f70223a226d696e74222c227469636b223a2250455045222c22616d74223a2231303030222c22736f6c7574696f6e223a22504550453a62633170756a666d33753333656e70786b38383339796c6b3239323239396b6e6467686c717468396e39647a6c7663647635617076366a717732776e71663a303030303030303030303030303030303030303139393431613561653132383937363539383134343239323533333030353762306461393666336465613163353a3233313734333434313135227d6821c1f4929cb66946e40c5d3e5e2b126f88b9a6070d7490abd3aa8e42bf5bbcfe7b9f00000000"
}