{
  "txid": "cfd473c7b1f15e558e1f4d211811e718174dd57a6d9a045342579bb707a52b94",
  "version": 1,
  "locktime": 0,
  "vin": [
    {
      "txid": "6773eda68fc3918167c4b2047088d9781104a8ecd40db45b34273a0a37e318b3",
      "vout": 1,
      "prevout": {
        "scriptpubkey": "0014bb5907b6ca967e712057aec5c527aab8ff8f2186",
        "scriptpubkey_asm": "OP_0 OP_PUSHBYTES_20 bb5907b6ca967e712057aec5c527aab8ff8f2186",
        "scriptpubkey_type": "v0_p2wpkh",
        "scriptpubkey_address": "bc1qhdvs0dk2jel8zgzh4mzu2fa2hrlc7gvxcmrywj",
        "value": 16282419
      },
      "scriptsig": "",
      "scriptsig_asm": "",
      "witness": [
        "3045022100fb6823c1e05a49bed1d531e6e55b559ff3b02b95f8d0fbe61cd1149d489495fa02205ada113dea6b23f183a2e0da09659242ee0534aef73a319c484ad466463cf6e601",
        "030a06a7e9c9bba9dd7d91828ecb3a1b9a42c0795b06e45b1787f301e150ef4065"
      ],
      "is_coinbase": false,
      "sequence": 4294967295
    }
  ],
  "vout": [
    {
      "scriptpubkey": "00147e536ca07f03b598b88a001880627876d6d4d1f1",
      "scriptpubkey_asm": "OP_0 OP_PUSHBYTES_20 7e536ca07f03b598b88a001880627876d6d4d1f1",
      "scriptpubkey_type": "v0_p2wpkh",
      "scriptpubkey_address": "bc1q0efkegrlqw6e3wy2qqvgqcncwmtdf503aqpyyg",
      "value": 3000000
    },
    {
      "scriptpubkey": "0014bb5907b6ca967e712057aec5c527aab8ff8f2186",
      "scriptpubkey_asm": "OP_0 OP_PUSHBYTES_20 bb5907b6ca967e712057aec5c527aab8ff8f2186",
      "scriptpubkey_type": "v0_p2wpkh",
      "scriptpubkey_address": "bc1qhdvs0dk2jel8zgzh4mzu2fa2hrlc7gvxcmrywj",
      "value": 13278612
    }
  ],
  "size": 223,
  "weight": 562,
  "fee": 3807,
  "status": {
    "confirmed": true,
    "block_height": 834638,
    "block_hash": "000000000000000000025f742c626208ac87e0b7d15054abb4a19ca2d735a54e",
    "block_time": 1710405325
  },
  "hex": "01000000000101b318e3370a3a27345bb40dd4eca8041178d9887004b2c4678191c38fa6ed73670100000000ffffffff02c0c62d00000000001600147e536ca07f03b598b88a001880627876d6d4d1f1949dca0000000000160014bb5907b6ca967e712057aec5c527aab8ff8f218602483045022100fb6823c1e05a49bed1d531e6e55b559ff3b02b95f8d0fbe61cd1149d489495fa02205ada113dea6b23f183a2e0da09659242ee0534aef73a319c484ad466463cf6e60121030a06a7e9c9bba9dd7d91828ecb3a1b9a42c0795b06e45b1787f301e150ef406500000000"
}