{
  "txid": "cfe1b508511f26ede8468852f80f2394b92a109628c01dd414aff5ad2fe629bc",
  "version": 1,
  "locktime": 0,
  "vin": [
    {
      "txid": "f8881774ef3ea403294b6eb2b174c5551e2e9a5c433eaab192faf2fb5a74853e",
      "vout": 0,
      "prevout": {
        "scriptpubkey": "76a91439a1995df9ab95581d88c0e395aa9584cd8dc54f88ac",
        "scriptpubkey_asm": "OP_DUP OP_HASH160 OP_PUSHBYTES_20 39a1995df9ab95581d88c0e395aa9584cd8dc54f OP_EQUALVERIFY OP_CHECKSIG",
        "scriptpubkey_type": "p2pkh",
        "scriptpubkey_address": "16Fj735ymgX29adxNMxbEMeJhogCWsC3z2",
        "value": 4612075
      },
      "scriptsig": "47304402204b790642d5b6dc90ba227b68b935d58553ddafc702c32187e588091c5dad8b48022055b41fdaa8b196d8110cb0da0c90f7c847109dd3d94a046258f611842c4d2d4e0121028b7c862cb65100812f5aa1c21d61df6c8149ce9d90d410b0fbca3b4ec17f52e6",
      "scriptsig_asm": "OP_PUSHBYTES_71 304402204b790642d5b6dc90ba227b68b935d58553ddafc702c32187e588091c5dad8b48022055b41fdaa8b196d8110cb0da0c90f7c847109dd3d94a046258f611842c4d2d4e01 OP_PUSHBYTES_33 028b7c862cb65100812f5aa1c21d61df6c8149ce9d90d410b0fbca3b4ec17f52e6",
      "is_coinbase": false,
      "sequence": 4294967295
    }
  ],
  "vout": [
    {
      "scriptpubkey": "a9142f2d0dab5737a3a267145a77d5197d1bdadaddc887",
      "scriptpubkey_asm": "OP_HASH160 OP_PUSHBYTES_20 2f2d0dab5737a3a267145a77d5197d1bdadaddc8 OP_EQUAL",
      "scriptpubkey_type": "p2sh",
      "scriptpubkey_address": "35zTevabQNMb8brD9gM9QdQGE83GWd3KBJ",
      "value": 2454954
    },
    {
      "scriptpubkey": "76a91432bbf82a4038b3ed37285772096262fcce7a015088ac",
      "scriptpubkey_asm": "OP_DUP OP_HASH160 OP_PUSHBYTES_20 32bbf82a4038b3ed37285772096262fcce7a0150 OP_EQUALVERIFY OP_CHECKSIG",
      "scriptpubkey_type": "p2pkh",
      "scriptpubkey_address": "15dFxwB51vJB3JMGacYP1GgjQW1nUmJPV5",
      "value": 2152601
    }
  ],
  "size": 223,
  "weight": 892,
  "fee": 4520,
  "status": {
    "confirmed": true,
    "block_height": 834638,
    "block_hash": "000000000000000000025f742c626208ac87e0b7d15054abb4a19ca2d735a54e",
    "block_time": 1710405325
  },
  "hex": "01000000013e85745afbf2fa92b1aa3e435c9a2e1e55c574b1b26e4b2903a43eef741788f8000000006a47304402204b790642d5b6dc90ba227b68b935d58553ddafc702c32187e588091c5dad8b48022055b41fdaa8b196d8110cb0da0c90f7c847109dd3d94a046258f611842c4d2d4e0121028b7c862cb65100812f5aa1c21d61df6c8149ce9d90d410b0fbca3b4ec17f52e6ffffffff02aa7525000000000017a9142f2d0dab5737a3a267145a77d5197d1bdadaddc88799d82000000000001976a91432bbf82a4038b3ed37285772096262fcce7a015088ac00000000"
}