{
  "txid": "d0060cc3b53efed24564faa7a69ed3e862d5c206751db52ea6471adf7fd110a4",
  "version": 1,
  "locktime": 0,
  "vin": [
    {
      "txid": "95e9608d902d54321f72e9fbabfb93a86d1992f3b3ac7933d429c86d3af25d87",
      "vout": 1,
      "prevout": {
        "scriptpubkey": "001403e04aa06a6f862c20c1e30976117f550e47ad83",
        "scriptpubkey_asm": "OP_0 OP_PUSHBYTES_20 03e04aa06a6f862c20c1e30976117f550e47ad83",
        "scriptpubkey_type": "v0_p2wpkh",
        "scriptpubkey_address": "bc1qq0sy4gr2d7rzcgxpuvyhvytl258y0tvrlq3dhu",
        "value": 36846
      },
      "scriptsig": "",
      "scriptsig_asm": "",
      "witness": [
        "3045022100ddac25f46345afd2da76114eec7fd1b98e1e21fa438c32dbdfdb1a7c2765d1bc02205a048050900cfdf0595bc5da7902e390a6c9f008671bdac40ec53d0044f86dbf01",
        "02a5597d2ef62d840a2ca31bb752386bec043418f501bb4ac95369162a3d147890"
      ],
      "is_coinbase": false,
      "sequence": 4294967295
    },
    {
      "txid": "eed90f4b96a695fbb76868c0b9d7e3003cd93870111ee1893b418efd57a4e87c",
      "vout": 1,
      "prevout": {
        "scriptpubkey": "001403e04aa06a6f862c20c1e30976117f550e47ad83",
        "scriptpubkey_asm": "OP_0 OP_PUSHBYTES_20 03e04aa06a6f862c20c1e30976117f550e47ad83",
        "scriptpubkey_type": "v0_p2wpkh",
        "scriptpubkey_address": "bc1qq0sy4gr2d7rzcgxpuvyhvytl258y0tvrlq3dhu",
        "value": 48219
      },
      "scriptsig": "",
      "scriptsig_asm": "",
      "witness": [
        "304402206a425d683cbb55b6b13e839c477ff806c1013f1be1f650070f67a298923dce320220056b6dc1b3e40e703278e7b44ed94e534df9d21d6c93c534cfc5f07c1d64505401",
        "02a5597d2ef62d840a2ca31bb752386bec043418f501bb4ac95369162a3d147890"
      ],
      "is_coinbase": false,
      "sequence": 4294967295
    },
    {
      "txid": "8fd9cd3426457c3a97698ef3b45b15e32f2a4a7cf55c04edf27fa88a4ee61aa3",
      "vout": 1,
      "prevout": {
        "scriptpubkey": "001403e04aa06a6f862c20c1e30976117f550e47ad83",
        "scriptpubkey_asm": "OP_0 OP_PUSHBYTES_20 03e04aa06a6f862c20c1e30976117f550e47ad83",
        "scriptpubkey_type": "v0_p2wpkh",
        "scriptpubkey_address": "bc1qq0sy4gr2d7rzcgxpuvyhvytl258y0tvrlq3dhu",
        "value": 56598
      },
      "scriptsig": "",
      "scriptsig_asm": "",
      "witness": [
        "30450221008d93de8596b9ac58df67b421608c11ab88292afa4e7d710d55cbc8d2ee23b4f902203691079d5413bec8668dc89bd6119c451730adc1e85b4906213af44f3511a3fc01",
        "02a5597d2ef62d840a2ca31bb752386bec043418f501bb4ac95369162a3d147890"
      ],
      "is_coinbase": false,
      "sequence": 4294967295
    }
  ],
  "vout": [
    {
      "scriptpubkey": "a9145bea50fbf7cfcf02f9e11b83d089af841762e0c387",
      "scriptpubkey_asm": "OP_HASH160 OP_PUSHBYTES_20 5bea50fbf7cfcf02f9e11b83d089af841762e0c3 OP_EQUAL",
      "scriptpubkey_type": "p2sh",
      "scriptpubkey_address": "3A527auSeg4oDhVXJWPtNRSPBLjbp915WS",
      "value": 109191
    },
    {
      "scriptpubkey": "001403e04aa06a6f862c20c1e30976117f550e47ad83",
      "scriptpubkey_asm": "OP_0 OP_PUSHBYTES_20 03e04aa06a6f862c20c1e30976117f550e47ad83",
      "scriptpubkey_type": "v0_p2wpkh",
      "scriptpubkey_address": "bc1qq0sy4gr2d7rzcgxpuvyhvytl258y0tvrlq3dhu",
      "value": 24966
    }
  ],
  "size": 521,
  "weight": 1109,
  "fee": 7506,
  "status": {
    "confirmed": true,
    "block_height": 834638,
    "block_hash": "000000000000000000025f742c626208ac87e0b7d15054abb4a19ca2d735a54e",
    "block_time": 1710405325
  },
  "hex": "01000000000103875df23a6dc829d43379acb3f392196da893fbabfbe9721f32542d908d60e9950100000000ffffffff7ce8a457fd8e413b89e11e117038d93c00e3d7b9c06868b7fb95a6964b0fd9ee0100000000ffffffffa31ae64e8aa87ff2ed045cf57c4a2a2fe3155bb4f38e69973a7c452634cdd98f0100000000ffffffff0287aa01000000000017a9145bea50fbf7cfcf02f9e11b83d089af841762e0c387866100000000000016001403e04aa06a6f862c20c1e30976117f550e47ad8302483045022100ddac25f46345afd2da76114eec7fd1b98e1e21fa438c32dbdfdb1a7c2765d1bc02205a048050900cfdf0595bc5da7902e390a6c9f008671bdac40ec53d0044f86dbf012102a5597d2ef62d840a2ca31bb752386bec043418f501bb4ac95369162a3d1478900247304402206a425d683cbb55b6b13e839c477ff806c1013f1be1f650070f67a298923dce320220056b6dc1b3e40e703278e7b44ed94e534df9d21d6c93c534cfc5f07c1d645054012102a5597d2ef62d840a2ca31bb752386bec043418f501bb4ac95369162a3d147890024830450221008d93de8596b9ac58df67b421608c11ab88292afa4e7d710d55cbc8d2ee23b4f902203691079d5413bec8668dc89bd6119c451730adc1e85b4906213af44f3511a3fc012102a5597d2ef62d840a2ca31bb752386bec043418f501bb4ac95369162a3d14789000000000"
}