{
  "txid": "d00dcaabb6665ffe310c7715d47c253d4c1363548865e13ccab1e8731961e43d",
  "version": 2,
  "locktime": 0,
  "vin": [
    {
      "txid": "ab308eea7d3d8dba78a6f609c6600d71ca75a21f6b2b88089069e65090200108",
      "vout": 1,
      "prevout": {
        "scriptpubkey": "a914ef9c609499b8cd9801519f6635e2c15b266b904987",
        "scriptpubkey_asm": "OP_HASH160 OP_PUSHBYTES_20 ef9c609499b8cd9801519f6635e2c15b266b9049 OP_EQUAL",
        "scriptpubkey_type": "p2sh",
        "scriptpubkey_address": "3PXxkg4RfN53f1G43aQBTxaXXtRRdj9YRL",
        "value": 5218
      },
      "scriptsig": "160014f61ecc203ef9026225f0be3c0bfca0cf27baa71d",
      "scriptsig_asm": "OP_PUSHBYTES_22 0014f61ecc203ef9026225f0be3c0bfca0cf27baa71d",
      "witness": [
        "304402201fb498405f14dadfd5366be0c1f4bf14bea263e43e641b0085cd522de08b277f022040c87148047a017afd7239bee81f06c87f57c5984e75e78b395370a60522e48901",
        "0234aba1aafe63a886d68e9d4dd1957aed5e425b1dd4492b40ef60b08fc8c46767"
      ],
      "is_coinbase": false,
      "sequence": 4294967293,
      "inner_redeemscript_asm": "OP_0 OP_PUSHBYTES_20 f61ecc203ef9026225f0be3c0bfca0cf27baa71d"
    },
    {
      "txid": "778aa1b686a24754fc3d377f100c980b3c3d700e2fbff4a7f164577427b7aa1a",
      "vout": 6,
      "prevout": {
        "scriptpubkey": "a91424d75b15726dc1ca17e6cbc65ef307b16b6ff03e87",
        "scriptpubkey_asm": "OP_HASH160 OP_PUSHBYTES_20 24d75b15726dc1ca17e6cbc65ef307b16b6ff03e OP_EQUAL",
        "scriptpubkey_type": "p2sh",
        "scriptpubkey_address": "353pEdeaeFZaYLicMZ3XKg2UcekyywKusg",
        "value": 25554
      },
      "scriptsig": "160014224d8c479a15686d3423c080bf08882d177bb064",
      "scriptsig_asm": "OP_PUSHBYTES_22 0014224d8c479a15686d3423c080bf08882d177bb064",
      "witness": [
        "304402206b6d5f59961b57b7781373cb555fc27eb20b4cba12c329ccafd642acfb7c22ca02202dfdd13f5774d2e4caab1a0e8aecd57ce4b0bcbfd84c7dcbbce336c30569bfbd01",
        "02ecba32c01dd6a0bce0d12bcaa76e366506491c12743d322525a4057672a9154e"
      ],
      "is_coinbase": false,
      "sequence": 4294967293,
      "inner_redeemscript_asm": "OP_0 OP_PUSHBYTES_20 224d8c479a15686d3423c080bf08882d177bb064"
    }
  ],
  "vout": [
    {
      "scriptpubkey": "a914ca6683c85232d25ffbb3abf2055cc2ed26770c9287",
      "scriptpubkey_asm": "OP_HASH160 OP_PUSHBYTES_20 ca6683c85232d25ffbb3abf2055cc2ed26770c92 OP_EQUAL",
      "scriptpubkey_type": "p2sh",
      "scriptpubkey_address": "3L9DE9MvEVPhsacoRK3TV1up5VSQvshM7z",
      "value": 18686
    },
    {
      "scriptpubkey": "a9145b0d655dde8275fbb63297d5b2f2d946d20e780587",
      "scriptpubkey_asm": "OP_HASH160 OP_PUSHBYTES_20 5b0d655dde8275fbb63297d5b2f2d946d20e7805 OP_EQUAL",
      "scriptpubkey_type": "p2sh",
      "scriptpubkey_address": "39zTTmWSYjZ2QSJj83yCpo9b5M24jSb5j6",
      "value": 7319
    }
  ],
  "size": 418,
  "weight": 1024,
  "fee": 4767,
  "status": {
    "confirmed": true,
    "block_height": 834638,
    "block_hash": "000000000000000000025f742c626208ac87e0b7d15054abb4a19ca2d735a54e",
    "block_time": 1710405325
  },
  "hex": "020000000001020801209050e6699008882b6b1fa275ca710d60c609f6a678ba8d3d7dea8e30ab0100000017160014f61ecc203ef9026225f0be3c0bfca0cf27baa71dfdffffff1aaab727745764f1a7f4bf2f0e703d3c0b980c107f373dfc5447a286b6a18a770600000017160014224d8c479a15686d3423c080bf08882d177bb064fdffffff02fe4800000000000017a914ca6683c85232d25ffbb3abf2055cc2ed26770c9287971c00000000000017a9145b0d655dde8275fbb63297d5b2f2d946d20e7805870247304402201fb498405f14dadfd5366be0c1f4bf14bea263e43e641b0085cd522de08b277f022040c87148047a017afd7239bee81f06c87f57c5984e75e78b395370a60522e48901210234aba1aafe63a886d68e9d4dd1957aed5e425b1dd4492b40ef60b08fc8c467670247304402206b6d5f59961b57b7781373cb555fc27eb20b4cba12c329ccafd642acfb7c22ca02202dfdd13f5774d2e4caab1a0e8aecd57ce4b0bcbfd84c7dcbbce336c30569bfbd012102ecba32c01dd6a0bce0d12bcaa76e366506491c12743d322525a4057672a9154e00000000"
}