{
  "txid": "d01a918d6de91bb81972a85d28e944bd7b3c1bd37180e144744063dbe1f7b5dd",
  "version": 1,
  "locktime": 0,
  "vin": [
    {
      "txid": "7955ad981ff6bdf8c095a5afb786e12575899565b0691d92ed41f17486fcd811",
      "vout": 0,
      "prevout": {
        "scriptpubkey": "001470e4be0f04f03a0c2f2421d96c7d9583b60235a6",
        "scriptpubkey_asm": "OP_0 OP_PUSHBYTES_20 70e4be0f04f03a0c2f2421d96c7d9583b60235a6",
        "scriptpubkey_type": "v0_p2wpkh",
        "scriptpubkey_address": "bc1qwrjturcy7qaqcteyy8vkclv4swmqyddxgt0dn8",
        "value": 23721
      },
      "scriptsig": "",
      "scriptsig_asm": "",
      "witness": [
        "304402200c556246d5243b6fbbc735534a2a7d6af496d1069f99cc3e5e8c02f67b6534330220710c0e56e1068336ecbe57855cac8cdfe4728ea139c25291e4361a733e6365ae01",
        "023379b6bf31f2535502bf663599ba18f4ff8590693d63673afe7ba608bd39439a"
      ],
      "is_coinbase": false,
      "sequence": 4294967295
    }
  ],
  "vout": [
    {
      "scriptpubkey": "001498dca3c991ca0d613e416ac18fd414615e7da5bd",
      "scriptpubkey_asm": "OP_0 OP_PUSHBYTES_20 98dca3c991ca0d613e416ac18fd414615e7da5bd",
      "scriptpubkey_type": "v0_p2wpkh",
      "scriptpubkey_address": "bc1qnrw28jv3egxkz0jpdtqcl4q5v908mfdazvfecp",
      "value": 6070
    },
    {
      "scriptpubkey": "76a914d4977a6979046e298d068427a3817f615205abc288ac",
      "scriptpubkey_asm": "OP_DUP OP_HASH160 OP_PUSHBYTES_20 d4977a6979046e298d068427a3817f615205abc2 OP_EQUALVERIFY OP_CHECKSIG",
      "scriptpubkey_type": "p2pkh",
      "scriptpubkey_address": "1LP5iZFCbb7zCucEEboCG1Udbg7XcM4asy",
      "value": 15347
    }
  ],
  "size": 225,
  "weight": 573,
  "fee": 2304,
  "status": {
    "confirmed": true,
    "block_height": 834638,
    "block_hash": "000000000000000000025f742c626208ac87e0b7d15054abb4a19ca2d735a54e",
    "block_time": 1710405325
  },
  "hex": "0100000000010111d8fc8674f141ed921d69b06595897525e186b7afa595c0f8bdf61f98ad55790000000000ffffffff02b61700000000000016001498dca3c991ca0d613e416ac18fd414615e7da5bdf33b0000000000001976a914d4977a6979046e298d068427a3817f615205abc288ac0247304402200c556246d5243b6fbbc735534a2a7d6af496d1069f99cc3e5e8c02f67b6534330220710c0e56e1068336ecbe57855cac8cdfe4728ea139c25291e4361a733e6365ae0121023379b6bf31f2535502bf663599ba18f4ff8590693d63673afe7ba608bd39439a00000000"
}