{
  "txid": "d0251a830a057750356e4e64ece9fdd57e02ea8f059b4843798da841883c3767",
  "version": 2,
  "locktime": 0,
  "vin": [
    {
      "txid": "fe49f53029e35d7bd7d57aeeffe6a16d91435fca65db9217656774a19e33229b",
      "vout": 0,
      "prevout": {
        "scriptpubkey": "0014192e80ed2c7c412bdc2a6c8f371d15cb90f3c85b",
        "scriptpubkey_asm": "OP_0 OP_PUSHBYTES_20 192e80ed2c7c412bdc2a6c8f371d15cb90f3c85b",
        "scriptpubkey_type": "v0_p2wpkh",
        "scriptpubkey_address": "bc1qryhgpmfv03qjhhp2dj8nw8g4ewg08jzmgy3cyx",
        "value": 1038718603
      },
      "scriptsig": "",
      "scriptsig_asm": "",
      "witness": [
        "3044022069e01207f624e08ca3c07c9134f94bef2de6c35687f318e301c693a4d239f46a02205e4ed643989313cd94ed8f45a0f2597ca7acc301c0ded0737b50637706e255e001",
        "03b01bd095f648ea829f000207087f16622431077bb5cc0875225ada601375c885"
      ],
      "is_coinbase": false,
      "sequence": 4294967293
    }
  ],
  "vout": [
    {
      "scriptpubkey": "0014192e80ed2c7c412bdc2a6c8f371d15cb90f3c85b",
      "scriptpubkey_asm": "OP_0 OP_PUSHBYTES_20 192e80ed2c7c412bdc2a6c8f371d15cb90f3c85b",
      "scriptpubkey_type": "v0_p2wpkh",
      "scriptpubkey_address": "bc1qryhgpmfv03qjhhp2dj8nw8g4ewg08jzmgy3cyx",
      "value": 1038262117
    },
    {
      "scriptpubkey": "00149abbd70853956e7bfc99fc7daeeed6afde728b54",
      "scriptpubkey_asm": "OP_0 OP_PUSHBYTES_20 9abbd70853956e7bfc99fc7daeeed6afde728b54",
      "scriptpubkey_type": "v0_p2wpkh",
      "scriptpubkey_address": "bc1qn2aawzznj4h8hlyel376amkk4l089z65jyqp7c",
      "value": 450000
    }
  ],
  "size": 222,
  "weight": 561,
  "fee": 6486,
  "status": {
    "confirmed": true,
    "block_height": 834638,
    "block_hash": "000000000000000000025f742c626208ac87e0b7d15054abb4a19ca2d735a54e",
    "block_time": 1710405325
  },
  "hex": "020000000001019b22339ea17467651792db65ca5f43916da1e6ffee7ad5d77b5de32930f549fe0000000000fdffffff02659fe23d00000000160014192e80ed2c7c412bdc2a6c8f371d15cb90f3c85bd0dd0600000000001600149abbd70853956e7bfc99fc7daeeed6afde728b5402473044022069e01207f624e08ca3c07c9134f94bef2de6c35687f318e301c693a4d239f46a02205e4ed643989313cd94ed8f45a0f2597ca7acc301c0ded0737b50637706e255e0012103b01bd095f648ea829f000207087f16622431077bb5cc0875225ada601375c88500000000"
}