{
  "txid": "d036ea10494c005cb7951d49d6d3467043bdad638731cbfd460a8cfc65f380e1",
  "version": 1,
  "locktime": 0,
  "vin": [
    {
      "txid": "1275ab4a0ecf89e5c24f6262b778c34f10c32f6c3a5c429659304255b56dd2ea",
      "vout": 1,
      "prevout": {
        "scriptpubkey": "0014681b9fa1e84e45dbbbd31925d95a539aa9b12d54",
        "scriptpubkey_asm": "OP_0 OP_PUSHBYTES_20 681b9fa1e84e45dbbbd31925d95a539aa9b12d54",
        "scriptpubkey_type": "v0_p2wpkh",
        "scriptpubkey_address": "bc1qdqdelg0gfezahw7nryjajkjnn25mzt25zg3xff",
        "value": 3784
      },
      "scriptsig": "",
      "scriptsig_asm": "",
      "witness": [
        "3045022100d55252c40b798c27a3cad36fdf664bc7bfddfaeb5feb45e29d7a5ca55dfae250022034cc99a574b67a3c96c823abc3e1434c3ff85796e9a9a0ded05b1b900b886e1001",
        "036b54389778dc89f87093af0984c2da9848bc518eebffe4ccc839486d305a5af6"
      ],
      "is_coinbase": false,
      "sequence": 4294967295
    },
    {
      "txid": "eed6171e7a9b381ade19dd7e142e1a6f8dc588b35f69ad11c474eee2374d2c7b",
      "vout": 1,
      "prevout": {
        "scriptpubkey": "0014681b9fa1e84e45dbbbd31925d95a539aa9b12d54",
        "scriptpubkey_asm": "OP_0 OP_PUSHBYTES_20 681b9fa1e84e45dbbbd31925d95a539aa9b12d54",
        "scriptpubkey_type": "v0_p2wpkh",
        "scriptpubkey_address": "bc1qdqdelg0gfezahw7nryjajkjnn25mzt25zg3xff",
        "value": 10271
      },
      "scriptsig": "",
      "scriptsig_asm": "",
      "witness": [
        "3044022051d385aed8980b0e626f8182244dec8536bc3ae08ffa025a76f4a8ef50de0e1d02204b0401acfc2ea2ee5a55b88082817c2431829f38ba9ba15df76c8e1e340584b101",
        "036b54389778dc89f87093af0984c2da9848bc518eebffe4ccc839486d305a5af6"
      ],
      "is_coinbase": false,
      "sequence": 4294967295
    },
    {
      "txid": "13fd4653b09a6064fb96e2eca67b4e68a090db3ba617d65d1c335575c4582a21",
      "vout": 1,
      "prevout": {
        "scriptpubkey": "0014681b9fa1e84e45dbbbd31925d95a539aa9b12d54",
        "scriptpubkey_asm": "OP_0 OP_PUSHBYTES_20 681b9fa1e84e45dbbbd31925d95a539aa9b12d54",
        "scriptpubkey_type": "v0_p2wpkh",
        "scriptpubkey_address": "bc1qdqdelg0gfezahw7nryjajkjnn25mzt25zg3xff",
        "value": 139469
      },
      "scriptsig": "",
      "scriptsig_asm": "",
      "witness": [
        "3045022100d700d419905a75eb490713ad5c605e5a8eaea2258281b775ead0dd1bd491055302200cc534d8ecc5b19470b2e6d9200443f3be345476c5ea947d258a65675c2610bb01",
        "036b54389778dc89f87093af0984c2da9848bc518eebffe4ccc839486d305a5af6"
      ],
      "is_coinbase": false,
      "sequence": 4294967295
    }
  ],
  "vout": [
    {
      "scriptpubkey": "76a9148a9e3cfb3d5e8c091c320750ed247a1df9abef1988ac",
      "scriptpubkey_asm": "OP_DUP OP_HASH160 OP_PUSHBYTES_20 8a9e3cfb3d5e8c091c320750ed247a1df9abef19 OP_EQUALVERIFY OP_CHECKSIG",
      "scriptpubkey_type": "p2pkh",
      "scriptpubkey_address": "1Ddwp4FexfAEEZjU1uJeT3nghwMzSZ4C6w",
      "value": 143045
    },
    {
      "scriptpubkey": "0014681b9fa1e84e45dbbbd31925d95a539aa9b12d54",
      "scriptpubkey_asm": "OP_0 OP_PUSHBYTES_20 681b9fa1e84e45dbbbd31925d95a539aa9b12d54",
      "scriptpubkey_type": "v0_p2wpkh",
      "scriptpubkey_address": "bc1qdqdelg0gfezahw7nryjajkjnn25mzt25zg3xff",
      "value": 2919
    }
  ],
  "size": 523,
  "weight": 1117,
  "fee": 7560,
  "status": {
    "confirmed": true,
    "block_height": 834638,
    "block_hash": "000000000000000000025f742c626208ac87e0b7d15054abb4a19ca2d735a54e",
    "block_time": 1710405325
  },
  "hex": "01000000000103ead26db55542305996425c3a6c2fc3104fc378b762624fc2e589cf0e4aab75120100000000ffffffff7b2c4d37e2ee74c411ad695fb388c58d6f1a2e147edd19de1a389b7a1e17d6ee0100000000ffffffff212a58c47555331c5dd617a63bdb90a0684e7ba6ece296fb64609ab05346fd130100000000ffffffff02c52e0200000000001976a9148a9e3cfb3d5e8c091c320750ed247a1df9abef1988ac670b000000000000160014681b9fa1e84e45dbbbd31925d95a539aa9b12d5402483045022100d55252c40b798c27a3cad36fdf664bc7bfddfaeb5feb45e29d7a5ca55dfae250022034cc99a574b67a3c96c823abc3e1434c3ff85796e9a9a0ded05b1b900b886e100121036b54389778dc89f87093af0984c2da9848bc518eebffe4ccc839486d305a5af602473044022051d385aed8980b0e626f8182244dec8536bc3ae08ffa025a76f4a8ef50de0e1d02204b0401acfc2ea2ee5a55b88082817c2431829f38ba9ba15df76c8e1e340584b10121036b54389778dc89f87093af0984c2da9848bc518eebffe4ccc839486d305a5af602483045022100d700d419905a75eb490713ad5c605e5a8eaea2258281b775ead0dd1bd491055302200cc534d8ecc5b19470b2e6d9200443f3be345476c5ea947d258a65675c2610bb0121036b54389778dc89f87093af0984c2da9848bc518eebffe4ccc839486d305a5af600000000"
}