{
  "txid": "d03a4c0196ed88ac144d2284b21c5478cbaf5c1a96319f18bf3ae76e0f5893b0",
  "version": 2,
  "locktime": 0,
  "vin": [
    {
      "txid": "c10e48caeee8756d57fbce0e4f26c1d08bb9f0d4a35c2d26269682da8df04dac",
      "vout": 33,
      "prevout": {
        "scriptpubkey": "5120973021ff7e233954fb16af071753f4dcb6145a273c4b311df535a977d9580ca4",
        "scriptpubkey_asm": "OP_PUSHNUM_1 OP_PUSHBYTES_32 973021ff7e233954fb16af071753f4dcb6145a273c4b311df535a977d9580ca4",
        "scriptpubkey_type": "v1_p2tr",
        "scriptpubkey_address": "bc1pjuczrlm7yvu4f7ck4ur3w5l5mjmpgk38839nz804xk5h0k2cpjjqyywmhn",
        "value": 3634
      },
      "scriptsig": "",
      "scriptsig_asm": "",
      "witness": [
        "13dd477ed68ef69e18692f68e982c3620831d08cac5e1f5c341808a6cb704f282cbe20affc481bf217f74ff8fb4b95f18628a8b5e88cc19765b75fd13fc5ad9f",
        "20402fddcd87067ee2b53240602e5713f98d7896768b5f11f23f30a9cf0c5dfa90ac0063036f726401011e6170706c69636174696f6e2f6a736f6e3b636861727365743d7574662d38004cd37b2270223a22706f772d3230222c226f70223a226d696e74222c227469636b223a2250455045222c22616d74223a2231303030222c22736f6c7574696f6e223a22504550453a6263317071336e67663775716e73667434706d37357236397371616c6c30637068747278677773757a6d657864356c337039333566366d713666337664383a303030303030303030303030303030303030303139393431613561653132383937363539383134343239323533333030353762306461393666336465613163353a3139363837333130333933227d68",
        "c1406c0f2a67700582b42f36a71eb03478d57ba1acdc179ee1ec758acb282de3fd"
      ],
      "is_coinbase": false,
      "sequence": 4294967295
    }
  ],
  "vout": [
    {
      "scriptpubkey": "5120046684fb809c12ba877ea0f45803bffbf01bac6643a1c16f266d3f1096344eb6",
      "scriptpubkey_asm": "OP_PUSHNUM_1 OP_PUSHBYTES_32 046684fb809c12ba877ea0f45803bffbf01bac6643a1c16f266d3f1096344eb6",
      "scriptpubkey_type": "v1_p2tr",
      "scriptpubkey_address": "bc1pq3ngf7uqnsft4pm75r69sqall0cphtrxgwsuzmexd5l3p935f6mq6f3vd8",
      "value": 546
    }
  ],
  "size": 487,
  "weight": 769,
  "fee": 3088,
  "status": {
    "confirmed": true,
    "block_height": 834460,
    "block_hash": "00000000000000000000484a79b643b2524bbce82e5d8a442013fa5b8905ed98",
    "block_time": 1710307468
  },
  "hex": "02000000000101ac4df08dda829626262d5ca3d4f0b98bd0c1264f0ecefb576d75e8eeca480ec12100000000ffffffff012202000000000000225120046684fb809c12ba877ea0f45803bffbf01bac6643a1c16f266d3f1096344eb6034013dd477ed68ef69e18692f68e982c3620831d08cac5e1f5c341808a6cb704f282cbe20affc481bf217f74ff8fb4b95f18628a8b5e88cc19765b75fd13fc5ad9ffd200120402fddcd87067ee2b53240602e5713f98d7896768b5f11f23f30a9cf0c5dfa90ac0063036f726401011e6170706c69636174696f6e2f6a736f6e3b636861727365743d7574662d38004cd37b2270223a22706f772d3230222c226f70223a226d696e74222c227469636b223a2250455045222c22616d74223a2231303030222c22736f6c7574696f6e223a22504550453a6263317071336e67663775716e73667434706d37357236397371616c6c30637068747278677773757a6d657864356c337039333566366d713666337664383a303030303030303030303030303030303030303139393431613561653132383937363539383134343239323533333030353762306461393666336465613163353a3139363837333130333933227d6821c1406c0f2a67700582b42f36a71eb03478d57ba1acdc179ee1ec758acb282de3fd00000000"
}