{
  "txid": "d05141eeeb467a622d8ad66f4c06137667a000503049acb5632d2bccc6ba7956",
  "version": 2,
  "locktime": 0,
  "vin": [
    {
      "txid": "84d6c60c5b59baabc7509731dbca3f1eee04caf5965794cf3090d8ac6ac96694",
      "vout": 1,
      "prevout": {
        "scriptpubkey": "00149c38191f20275ea9ececd2f762c450ff159508f8",
        "scriptpubkey_asm": "OP_0 OP_PUSHBYTES_20 9c38191f20275ea9ececd2f762c450ff159508f8",
        "scriptpubkey_type": "v0_p2wpkh",
        "scriptpubkey_address": "bc1qnsupj8eqya02nm8v6tmk93zslu2e2z8chlmcej",
        "value": 658091001
      },
      "scriptsig": "",
      "scriptsig_asm": "",
      "witness": [
        "30450221008391c1d24f213621b4357de84ab929f7883264863901afc1cf0928dfa79f780202206b389864f1c66404e8bcc2543ee0689bf4c24c8f44e5500337bb72c03f9d697901",
        "0244587bb17c3d845ae477a2fb2511ef7233e7b3e8f3ec6f83bd154be74c39bf66"
      ],
      "is_coinbase": false,
      "sequence": 4294967295
    }
  ],
  "vout": [
    {
      "scriptpubkey": "a9148b7a4a170ec216346b144328dbed33df684a1daf87",
      "scriptpubkey_asm": "OP_HASH160 OP_PUSHBYTES_20 8b7a4a170ec216346b144328dbed33df684a1daf OP_EQUAL",
      "scriptpubkey_type": "p2sh",
      "scriptpubkey_address": "3EQWM2SY7MfPi4ofRPFEoKkU1LgMFwQd89",
      "value": 3000000
    },
    {
      "scriptpubkey": "00149c38191f20275ea9ececd2f762c450ff159508f8",
      "scriptpubkey_asm": "OP_0 OP_PUSHBYTES_20 9c38191f20275ea9ececd2f762c450ff159508f8",
      "scriptpubkey_type": "v0_p2wpkh",
      "scriptpubkey_address": "bc1qnsupj8eqya02nm8v6tmk93zslu2e2z8chlmcej",
      "value": 655086410
    }
  ],
  "size": 224,
  "weight": 566,
  "fee": 4591,
  "status": {
    "confirmed": true,
    "block_height": 834638,
    "block_hash": "000000000000000000025f742c626208ac87e0b7d15054abb4a19ca2d735a54e",
    "block_time": 1710405325
  },
  "hex": "020000000001019466c96aacd89030cf945796f5ca04ee1e3fcadb319750c7abba595b0cc6d6840100000000ffffffff02c0c62d000000000017a9148b7a4a170ec216346b144328dbed33df684a1daf874ad30b27000000001600149c38191f20275ea9ececd2f762c450ff159508f8024830450221008391c1d24f213621b4357de84ab929f7883264863901afc1cf0928dfa79f780202206b389864f1c66404e8bcc2543ee0689bf4c24c8f44e5500337bb72c03f9d697901210244587bb17c3d845ae477a2fb2511ef7233e7b3e8f3ec6f83bd154be74c39bf6600000000"
}