{
  "txid": "d0a627c672fb58b0c099c9140477c08831389a82794fe542a66bfebaa036d078",
  "version": 2,
  "locktime": 0,
  "vin": [
    {
      "txid": "8486ecb4df0880316dd6e82b3971b4df187aff23765bc3a47f8d78bb53aa273c",
      "vout": 57,
      "prevout": {
        "scriptpubkey": "5120dcbdb702f0831950fb0780047fbe7220d48103d128ad9f67f70e98ec7550f2a6",
        "scriptpubkey_asm": "OP_PUSHNUM_1 OP_PUSHBYTES_32 dcbdb702f0831950fb0780047fbe7220d48103d128ad9f67f70e98ec7550f2a6",
        "scriptpubkey_type": "v1_p2tr",
        "scriptpubkey_address": "bc1pmj7mwqhssvv4p7c8sqz8l0njyr2gzq739zke7elhp6vwca2s72nq02vyyd",
        "value": 2575
      },
      "scriptsig": "",
      "scriptsig_asm": "",
      "witness": [
        "ee4f222578a42b9d51c19fbc5a86ebffa62421d2add5e7ae161191d7c76ef75fe379d11c9e64060bf7d398308b7b9406ab3976e33c5987cd12346e2512a10880",
        "205ecc984f775fc3c69264f5eea03430a0018dc8f217fbcd365891fce502519496ac0063036f726401010a746578742f706c61696e00367b2270223a226272632d3230222c226f70223a226d696e74222c227469636b223a2261616161222c22616d74223a223130303030227d68",
        "c15ecc984f775fc3c69264f5eea03430a0018dc8f217fbcd365891fce502519496"
      ],
      "is_coinbase": false,
      "sequence": 4261412863
    }
  ],
  "vout": [
    {
      "scriptpubkey": "0014ddd7ef12ea6f78edcc1e8e7afa12c01ab59f3339",
      "scriptpubkey_asm": "OP_0 OP_PUSHBYTES_20 ddd7ef12ea6f78edcc1e8e7afa12c01ab59f3339",
      "scriptpubkey_type": "v0_p2wpkh",
      "scriptpubkey_address": "bc1qmht77yh2dauwmnq73ea05ykqr26e7veea8spz6",
      "value": 546
    }
  ],
  "size": 295,
  "weight": 541,
  "fee": 2029,
  "status": {
    "confirmed": true,
    "block_height": 834460,
    "block_hash": "00000000000000000000484a79b643b2524bbce82e5d8a442013fa5b8905ed98",
    "block_time": 1710307468
  },
  "hex": "020000000001013c27aa53bb788d7fa4c35b7623ff7a18dfb471392be8d66d318008dfb4ec86843900000000fffffffd012202000000000000160014ddd7ef12ea6f78edcc1e8e7afa12c01ab59f33390340ee4f222578a42b9d51c19fbc5a86ebffa62421d2add5e7ae161191d7c76ef75fe379d11c9e64060bf7d398308b7b9406ab3976e33c5987cd12346e2512a108806e205ecc984f775fc3c69264f5eea03430a0018dc8f217fbcd365891fce502519496ac0063036f726401010a746578742f706c61696e00367b2270223a226272632d3230222c226f70223a226d696e74222c227469636b223a2261616161222c22616d74223a223130303030227d6821c15ecc984f775fc3c69264f5eea03430a0018dc8f217fbcd365891fce50251949600000000"
}