{
  "txid": "d0c4cb2f0085b7ee58c12cd775826e1dc03f0ef36ddc61fbc775444e299188c5",
  "version": 2,
  "locktime": 0,
  "vin": [
    {
      "txid": "4ee77778659dcfe8d7a4e15882fc6193f4f3d5f6607624e256337b44c2280af5",
      "vout": 70,
      "prevout": {
        "scriptpubkey": "512028a49221122c0c408e900772119adf567754885a76e191bd9eae582ab9a5cdb4",
        "scriptpubkey_asm": "OP_PUSHNUM_1 OP_PUSHBYTES_32 28a49221122c0c408e900772119adf567754885a76e191bd9eae582ab9a5cdb4",
        "scriptpubkey_type": "v1_p2tr",
        "scriptpubkey_address": "bc1p9zjfyggj9sxypr5sqaeprxkl2em4fzz6wmser0v74evz4wd9ek6quvcyhm",
        "value": 2075
      },
      "scriptsig": "",
      "scriptsig_asm": "",
      "witness": [
        "ef6f0efa2d729cf84d673222b2788bbd1c634052085be66ddc33becb02c5947e82fea8fa447dda94164475c5f902fc0469f74ca81029fbc963d762388e14055f",
        "20b0c8d6d56b615020761098a402114cc016682dbe925bf57688d073058f7709e7ac0063036f7264010118746578742f706c61696e3b636861727365743d7574662d3800357b2270223a224252432d313030222c226f70223a226d696e74222c227469636b223a22696e73222c22616d74223a2231303030227d68",
        "c1c50eac15d7d7889f5ad84f80015e8a209129aeea937c37fa4b8bc0f9be289730"
      ],
      "is_coinbase": false,
      "sequence": 4294967295
    }
  ],
  "vout": [
    {
      "scriptpubkey": "00143e2325412b554cacdd163a93a42204c4707f8851",
      "scriptpubkey_asm": "OP_0 OP_PUSHBYTES_20 3e2325412b554cacdd163a93a42204c4707f8851",
      "scriptpubkey_type": "v0_p2wpkh",
      "scriptpubkey_address": "bc1q8c3j2sft24x2ehgk82f6ggsyc3c8lzz3yw9wsu",
      "value": 546
    }
  ],
  "size": 308,
  "weight": 554,
  "fee": 1529,
  "status": {
    "confirmed": true,
    "block_height": 834464,
    "block_hash": "0000000000000000000177a0869a911a2b65c9bdcd5a8bcb02b68f305bee848e",
    "block_time": 1710308296
  },
  "hex": "02000000000101f50a28c2447b3356e2247660f6d5f3f49361fc8258e1a4d7e8cf9d657877e74e4600000000ffffffff0122020000000000001600143e2325412b554cacdd163a93a42204c4707f88510340ef6f0efa2d729cf84d673222b2788bbd1c634052085be66ddc33becb02c5947e82fea8fa447dda94164475c5f902fc0469f74ca81029fbc963d762388e14055f7b20b0c8d6d56b615020761098a402114cc016682dbe925bf57688d073058f7709e7ac0063036f7264010118746578742f706c61696e3b636861727365743d7574662d3800357b2270223a224252432d313030222c226f70223a226d696e74222c227469636b223a22696e73222c22616d74223a2231303030227d6821c1c50eac15d7d7889f5ad84f80015e8a209129aeea937c37fa4b8bc0f9be28973000000000"
}