{
  "txid": "d0c8bf00b2efeed4352b3a9f8461ed79e8ad6754e227d268f3dac358e9de3035",
  "version": 2,
  "locktime": 0,
  "vin": [
    {
      "txid": "95f88e6bc54907a0176197b140f721063ef5171710c1f0d2485505840fbab9a7",
      "vout": 50,
      "prevout": {
        "scriptpubkey": "5120b3ceccadba288577611296fda2dea28df51332fed3a16b95ff9d8b85a0de296d",
        "scriptpubkey_asm": "OP_PUSHNUM_1 OP_PUSHBYTES_32 b3ceccadba288577611296fda2dea28df51332fed3a16b95ff9d8b85a0de296d",
        "scriptpubkey_type": "v1_p2tr",
        "scriptpubkey_address": "bc1pk08vetd69zzhwcgjjm769h4z3h63xvh76wskh90lnk9ctgx799ksq4cvnv",
        "value": 782752
      },
      "scriptsig": "",
      "scriptsig_asm": "",
      "witness": [
        "82365cf4f715ce8ee4751104eedbddcab3f45b3beb4074b9652018e9760152e08baf7f7f68456d2b5126daa73563a083a329bc4d4c7eed0cf2bc02a9b73053a1",
        "20bea10d7f6fea428670f03f8b2cbd278c74d11ac4f6080549a7965e2f9a29094cac",
        "c1bea10d7f6fea428670f03f8b2cbd278c74d11ac4f6080549a7965e2f9a29094c"
      ],
      "is_coinbase": false,
      "sequence": 4294967293
    },
    {
      "txid": "5cf5838ec1a20f69603899696bd1c6cbe051cea9f65c7c39518f6eebb0932a49",
      "vout": 16,
      "prevout": {
        "scriptpubkey": "5120b3ceccadba288577611296fda2dea28df51332fed3a16b95ff9d8b85a0de296d",
        "scriptpubkey_asm": "OP_PUSHNUM_1 OP_PUSHBYTES_32 b3ceccadba288577611296fda2dea28df51332fed3a16b95ff9d8b85a0de296d",
        "scriptpubkey_type": "v1_p2tr",
        "scriptpubkey_address": "bc1pk08vetd69zzhwcgjjm769h4z3h63xvh76wskh90lnk9ctgx799ksq4cvnv",
        "value": 1217248
      },
      "scriptsig": "",
      "scriptsig_asm": "",
      "witness": [
        "f8f38b563ff602805a53d766d9c3116d85700bded24a61b0a85d4192e44462f8cf1bb794671163770f28f463f717a272cd5dd013cdf670789ed28599c5b58e63",
        "20bea10d7f6fea428670f03f8b2cbd278c74d11ac4f6080549a7965e2f9a29094cac",
        "c1bea10d7f6fea428670f03f8b2cbd278c74d11ac4f6080549a7965e2f9a29094c"
      ],
      "is_coinbase": false,
      "sequence": 4294967293
    }
  ],
  "vout": [
    {
      "scriptpubkey": "512060b47e9026375962bd326d5239060c3e9283d8febd0ebaeb96b966b598a4e1b0",
      "scriptpubkey_asm": "OP_PUSHNUM_1 OP_PUSHBYTES_32 60b47e9026375962bd326d5239060c3e9283d8febd0ebaeb96b966b598a4e1b0",
      "scriptpubkey_type": "v1_p2tr",
      "scriptpubkey_address": "bc1pvz68aypxxavk90fjd4frjpsv86fg8k87h58t46ukh9nttx9yuxcqan5s4h",
      "value": 1711
    },
    {
      "scriptpubkey": "512060b47e9026375962bd326d5239060c3e9283d8febd0ebaeb96b966b598a4e1b0",
      "scriptpubkey_asm": "OP_PUSHNUM_1 OP_PUSHBYTES_32 60b47e9026375962bd326d5239060c3e9283d8febd0ebaeb96b966b598a4e1b0",
      "scriptpubkey_type": "v1_p2tr",
      "scriptpubkey_address": "bc1pvz68aypxxavk90fjd4frjpsv86fg8k87h58t46ukh9nttx9yuxcqan5s4h",
      "value": 1711
    },
    {
      "scriptpubkey": "512060b47e9026375962bd326d5239060c3e9283d8febd0ebaeb96b966b598a4e1b0",
      "scriptpubkey_asm": "OP_PUSHNUM_1 OP_PUSHBYTES_32 60b47e9026375962bd326d5239060c3e9283d8febd0ebaeb96b966b598a4e1b0",
      "scriptpubkey_type": "v1_p2tr",
      "scriptpubkey_address": "bc1pvz68aypxxavk90fjd4frjpsv86fg8k87h58t46ukh9nttx9yuxcqan5s4h",
      "value": 1711
    },
    {
      "scriptpubkey": "512060b47e9026375962bd326d5239060c3e9283d8febd0ebaeb96b966b598a4e1b0",
      "scriptpubkey_asm": "OP_PUSHNUM_1 OP_PUSHBYTES_32 60b47e9026375962bd326d5239060c3e9283d8febd0ebaeb96b966b598a4e1b0",
      "scriptpubkey_type": "v1_p2tr",
      "scriptpubkey_address": "bc1pvz68aypxxavk90fjd4frjpsv86fg8k87h58t46ukh9nttx9yuxcqan5s4h",
      "value": 1711
    },
    {
      "scriptpubkey": "512060b47e9026375962bd326d5239060c3e9283d8febd0ebaeb96b966b598a4e1b0",
      "scriptpubkey_asm": "OP_PUSHNUM_1 OP_PUSHBYTES_32 60b47e9026375962bd326d5239060c3e9283d8febd0ebaeb96b966b598a4e1b0",
      "scriptpubkey_type": "v1_p2tr",
      "scriptpubkey_address": "bc1pvz68aypxxavk90fjd4frjpsv86fg8k87h58t46ukh9nttx9yuxcqan5s4h",
      "value": 1711
    },
    {
      "scriptpubkey": "512060b47e9026375962bd326d5239060c3e9283d8febd0ebaeb96b966b598a4e1b0",
      "scriptpubkey_asm": "OP_PUSHNUM_1 OP_PUSHBYTES_32 60b47e9026375962bd326d5239060c3e9283d8febd0ebaeb96b966b598a4e1b0",
      "scriptpubkey_type": "v1_p2tr",
      "scriptpubkey_address": "bc1pvz68aypxxavk90fjd4frjpsv86fg8k87h58t46ukh9nttx9yuxcqan5s4h",
      "value": 1711
    },
    {
      "scriptpubkey": "512060b47e9026375962bd326d5239060c3e9283d8febd0ebaeb96b966b598a4e1b0",
      "scriptpubkey_asm": "OP_PUSHNUM_1 OP_PUSHBYTES_32 60b47e9026375962bd326d5239060c3e9283d8febd0ebaeb96b966b598a4e1b0",
      "scriptpubkey_type": "v1_p2tr",
      "scriptpubkey_address": "bc1pvz68aypxxavk90fjd4frjpsv86fg8k87h58t46ukh9nttx9yuxcqan5s4h",
      "value": 1711
    },
    {
      "scriptpubkey": "512060b47e9026375962bd326d5239060c3e9283d8febd0ebaeb96b966b598a4e1b0",
      "scriptpubkey_asm": "OP_PUSHNUM_1 OP_PUSHBYTES_32 60b47e9026375962bd326d5239060c3e9283d8febd0ebaeb96b966b598a4e1b0",
      "scriptpubkey_type": "v1_p2tr",
      "scriptpubkey_address": "bc1pvz68aypxxavk90fjd4frjpsv86fg8k87h58t46ukh9nttx9yuxcqan5s4h",
      "value": 1711
    },
    {
      "scriptpubkey": "512060b47e9026375962bd326d5239060c3e9283d8febd0ebaeb96b966b598a4e1b0",
      "scriptpubkey_asm": "OP_PUSHNUM_1 OP_PUSHBYTES_32 60b47e9026375962bd326d5239060c3e9283d8febd0ebaeb96b966b598a4e1b0",
      "scriptpubkey_type": "v1_p2tr",
      "scriptpubkey_address": "bc1pvz68aypxxavk90fjd4frjpsv86fg8k87h58t46ukh9nttx9yuxcqan5s4h",
      "value": 1711
    },
    {
      "scriptpubkey": "512060b47e9026375962bd326d5239060c3e9283d8febd0ebaeb96b966b598a4e1b0",
      "scriptpubkey_asm": "OP_PUSHNUM_1 OP_PUSHBYTES_32 60b47e9026375962bd326d5239060c3e9283d8febd0ebaeb96b966b598a4e1b0",
      "scriptpubkey_type": "v1_p2tr",
      "scriptpubkey_address": "bc1pvz68aypxxavk90fjd4frjpsv86fg8k87h58t46ukh9nttx9yuxcqan5s4h",
      "value": 1711
    },
    {
      "scriptpubkey": "512060b47e9026375962bd326d5239060c3e9283d8febd0ebaeb96b966b598a4e1b0",
      "scriptpubkey_asm": "OP_PUSHNUM_1 OP_PUSHBYTES_32 60b47e9026375962bd326d5239060c3e9283d8febd0ebaeb96b966b598a4e1b0",
      "scriptpubkey_type": "v1_p2tr",
      "scriptpubkey_address": "bc1pvz68aypxxavk90fjd4frjpsv86fg8k87h58t46ukh9nttx9yuxcqan5s4h",
      "value": 1711
    },
    {
      "scriptpubkey": "512060b47e9026375962bd326d5239060c3e9283d8febd0ebaeb96b966b598a4e1b0",
      "scriptpubkey_asm": "OP_PUSHNUM_1 OP_PUSHBYTES_32 60b47e9026375962bd326d5239060c3e9283d8febd0ebaeb96b966b598a4e1b0",
      "scriptpubkey_type": "v1_p2tr",
      "scriptpubkey_address": "bc1pvz68aypxxavk90fjd4frjpsv86fg8k87h58t46ukh9nttx9yuxcqan5s4h",
      "value": 1711
    },
    {
      "scriptpubkey": "512060b47e9026375962bd326d5239060c3e9283d8febd0ebaeb96b966b598a4e1b0",
      "scriptpubkey_asm": "OP_PUSHNUM_1 OP_PUSHBYTES_32 60b47e9026375962bd326d5239060c3e9283d8febd0ebaeb96b966b598a4e1b0",
      "scriptpubkey_type": "v1_p2tr",
      "scriptpubkey_address": "bc1pvz68aypxxavk90fjd4frjpsv86fg8k87h58t46ukh9nttx9yuxcqan5s4h",
      "value": 1711
    },
    {
      "scriptpubkey": "512060b47e9026375962bd326d5239060c3e9283d8febd0ebaeb96b966b598a4e1b0",
      "scriptpubkey_asm": "OP_PUSHNUM_1 OP_PUSHBYTES_32 60b47e9026375962bd326d5239060c3e9283d8febd0ebaeb96b966b598a4e1b0",
      "scriptpubkey_type": "v1_p2tr",
      "scriptpubkey_address": "bc1pvz68aypxxavk90fjd4frjpsv86fg8k87h58t46ukh9nttx9yuxcqan5s4h",
      "value": 1711
    },
    {
      "scriptpubkey": "512060b47e9026375962bd326d5239060c3e9283d8febd0ebaeb96b966b598a4e1b0",
      "scriptpubkey_asm": "OP_PUSHNUM_1 OP_PUSHBYTES_32 60b47e9026375962bd326d5239060c3e9283d8febd0ebaeb96b966b598a4e1b0",
      "scriptpubkey_type": "v1_p2tr",
      "scriptpubkey_address": "bc1pvz68aypxxavk90fjd4frjpsv86fg8k87h58t46ukh9nttx9yuxcqan5s4h",
      "value": 1711
    },
    {
      "scriptpubkey": "512060b47e9026375962bd326d5239060c3e9283d8febd0ebaeb96b966b598a4e1b0",
      "scriptpubkey_asm": "OP_PUSHNUM_1 OP_PUSHBYTES_32 60b47e9026375962bd326d5239060c3e9283d8febd0ebaeb96b966b598a4e1b0",
      "scriptpubkey_type": "v1_p2tr",
      "scriptpubkey_address": "bc1pvz68aypxxavk90fjd4frjpsv86fg8k87h58t46ukh9nttx9yuxcqan5s4h",
      "value": 1711
    },
    {
      "scriptpubkey": "512060b47e9026375962bd326d5239060c3e9283d8febd0ebaeb96b966b598a4e1b0",
      "scriptpubkey_asm": "OP_PUSHNUM_1 OP_PUSHBYTES_32 60b47e9026375962bd326d5239060c3e9283d8febd0ebaeb96b966b598a4e1b0",
      "scriptpubkey_type": "v1_p2tr",
      "scriptpubkey_address": "bc1pvz68aypxxavk90fjd4frjpsv86fg8k87h58t46ukh9nttx9yuxcqan5s4h",
      "value": 1711
    },
    {
      "scriptpubkey": "512060b47e9026375962bd326d5239060c3e9283d8febd0ebaeb96b966b598a4e1b0",
      "scriptpubkey_asm": "OP_PUSHNUM_1 OP_PUSHBYTES_32 60b47e9026375962bd326d5239060c3e9283d8febd0ebaeb96b966b598a4e1b0",
      "scriptpubkey_type": "v1_p2tr",
      "scriptpubkey_address": "bc1pvz68aypxxavk90fjd4frjpsv86fg8k87h58t46ukh9nttx9yuxcqan5s4h",
      "value": 1711
    },
    {
      "scriptpubkey": "512060b47e9026375962bd326d5239060c3e9283d8febd0ebaeb96b966b598a4e1b0",
      "scriptpubkey_asm": "OP_PUSHNUM_1 OP_PUSHBYTES_32 60b47e9026375962bd326d5239060c3e9283d8febd0ebaeb96b966b598a4e1b0",
      "scriptpubkey_type": "v1_p2tr",
      "scriptpubkey_address": "bc1pvz68aypxxavk90fjd4frjpsv86fg8k87h58t46ukh9nttx9yuxcqan5s4h",
      "value": 1711
    },
    {
      "scriptpubkey": "512060b47e9026375962bd326d5239060c3e9283d8febd0ebaeb96b966b598a4e1b0",
      "scriptpubkey_asm": "OP_PUSHNUM_1 OP_PUSHBYTES_32 60b47e9026375962bd326d5239060c3e9283d8febd0ebaeb96b966b598a4e1b0",
      "scriptpubkey_type": "v1_p2tr",
      "scriptpubkey_address": "bc1pvz68aypxxavk90fjd4frjpsv86fg8k87h58t46ukh9nttx9yuxcqan5s4h",
      "value": 1711
    },
    {
      "scriptpubkey": "512060b47e9026375962bd326d5239060c3e9283d8febd0ebaeb96b966b598a4e1b0",
      "scriptpubkey_asm": "OP_PUSHNUM_1 OP_PUSHBYTES_32 60b47e9026375962bd326d5239060c3e9283d8febd0ebaeb96b966b598a4e1b0",
      "scriptpubkey_type": "v1_p2tr",
      "scriptpubkey_address": "bc1pvz68aypxxavk90fjd4frjpsv86fg8k87h58t46ukh9nttx9yuxcqan5s4h",
      "value": 1711
    },
    {
      "scriptpubkey": "512060b47e9026375962bd326d5239060c3e9283d8febd0ebaeb96b966b598a4e1b0",
      "scriptpubkey_asm": "OP_PUSHNUM_1 OP_PUSHBYTES_32 60b47e9026375962bd326d5239060c3e9283d8febd0ebaeb96b966b598a4e1b0",
      "scriptpubkey_type": "v1_p2tr",
      "scriptpubkey_address": "bc1pvz68aypxxavk90fjd4frjpsv86fg8k87h58t46ukh9nttx9yuxcqan5s4h",
      "value": 1711
    },
    {
      "scriptpubkey": "512060b47e9026375962bd326d5239060c3e9283d8febd0ebaeb96b966b598a4e1b0",
      "scriptpubkey_asm": "OP_PUSHNUM_1 OP_PUSHBYTES_32 60b47e9026375962bd326d5239060c3e9283d8febd0ebaeb96b966b598a4e1b0",
      "scriptpubkey_type": "v1_p2tr",
      "scriptpubkey_address": "bc1pvz68aypxxavk90fjd4frjpsv86fg8k87h58t46ukh9nttx9yuxcqan5s4h",
      "value": 1711
    },
    {
      "scriptpubkey": "512060b47e9026375962bd326d5239060c3e9283d8febd0ebaeb96b966b598a4e1b0",
      "scriptpubkey_asm": "OP_PUSHNUM_1 OP_PUSHBYTES_32 60b47e9026375962bd326d5239060c3e9283d8febd0ebaeb96b966b598a4e1b0",
      "scriptpubkey_type": "v1_p2tr",
      "scriptpubkey_address": "bc1pvz68aypxxavk90fjd4frjpsv86fg8k87h58t46ukh9nttx9yuxcqan5s4h",
      "value": 1711
    },
    {
      "scriptpubkey": "512060b47e9026375962bd326d5239060c3e9283d8febd0ebaeb96b966b598a4e1b0",
      "scriptpubkey_asm": "OP_PUSHNUM_1 OP_PUSHBYTES_32 60b47e9026375962bd326d5239060c3e9283d8febd0ebaeb96b966b598a4e1b0",
      "scriptpubkey_type": "v1_p2tr",
      "scriptpubkey_address": "bc1pvz68aypxxavk90fjd4frjpsv86fg8k87h58t46ukh9nttx9yuxcqan5s4h",
      "value": 1711
    },
    {
      "scriptpubkey": "5120b3ceccadba288577611296fda2dea28df51332fed3a16b95ff9d8b85a0de296d",
      "scriptpubkey_asm": "OP_PUSHNUM_1 OP_PUSHBYTES_32 b3ceccadba288577611296fda2dea28df51332fed3a16b95ff9d8b85a0de296d",
      "scriptpubkey_type": "v1_p2tr",
      "scriptpubkey_address": "bc1pk08vetd69zzhwcgjjm769h4z3h63xvh76wskh90lnk9ctgx799ksq4cvnv",
      "value": 1940994
    }
  ],
  "size": 1482,
  "weight": 5112,
  "fee": 16231,
  "status": {
    "confirmed": true,
    "block_height": 834460,
    "block_hash": "00000000000000000000484a79b643b2524bbce82e5d8a442013fa5b8905ed98",
    "block_time": 1710307468
  },
  "hex": "02000000000102a7b9ba0f84055548d2f0c1101717f53e0621f740b1976117a00749c56b8ef8953200000000fdffffff492a93b0eb6e8f51397c5cf6a9ce51e0cbc6d16b69993860690fa2c18e83f55c1000000000fdffffff1aaf0600000000000022512060b47e9026375962bd326d5239060c3e9283d8febd0ebaeb96b966b598a4e1b0af0600000000000022512060b47e9026375962bd326d5239060c3e9283d8febd0ebaeb96b966b598a4e1b0af0600000000000022512060b47e9026375962bd326d5239060c3e9283d8febd0ebaeb96b966b598a4e1b0af0600000000000022512060b47e9026375962bd326d5239060c3e9283d8febd0ebaeb96b966b598a4e1b0af0600000000000022512060b47e9026375962bd326d5239060c3e9283d8febd0ebaeb96b966b598a4e1b0af0600000000000022512060b47e9026375962bd326d5239060c3e9283d8febd0ebaeb96b966b598a4e1b0af0600000000000022512060b47e9026375962bd326d5239060c3e9283d8febd0ebaeb96b966b598a4e1b0af0600000000000022512060b47e9026375962bd326d5239060c3e9283d8febd0ebaeb96b966b598a4e1b0af0600000000000022512060b47e9026375962bd326d5239060c3e9283d8febd0ebaeb96b966b598a4e1b0af0600000000000022512060b47e9026375962bd326d5239060c3e9283d8febd0ebaeb96b966b598a4e1b0af0600000000000022512060b47e9026375962bd326d5239060c3e9283d8febd0ebaeb96b966b598a4e1b0af0600000000000022512060b47e9026375962bd326d5239060c3e9283d8febd0ebaeb96b966b598a4e1b0af0600000000000022512060b47e9026375962bd326d5239060c3e9283d8febd0ebaeb96b966b598a4e1b0af0600000000000022512060b47e9026375962bd326d5239060c3e9283d8febd0ebaeb96b966b598a4e1b0af0600000000000022512060b47e9026375962bd326d5239060c3e9283d8febd0ebaeb96b966b598a4e1b0af0600000000000022512060b47e9026375962bd326d5239060c3e9283d8febd0ebaeb96b966b598a4e1b0af0600000000000022512060b47e9026375962bd326d5239060c3e9283d8febd0ebaeb96b966b598a4e1b0af0600000000000022512060b47e9026375962bd326d5239060c3e9283d8febd0ebaeb96b966b598a4e1b0af0600000000000022512060b47e9026375962bd326d5239060c3e9283d8febd0ebaeb96b966b598a4e1b0af0600000000000022512060b47e9026375962bd326d5239060c3e9283d8febd0ebaeb96b966b598a4e1b0af0600000000000022512060b47e9026375962bd326d5239060c3e9283d8febd0ebaeb96b966b598a4e1b0af0600000000000022512060b47e9026375962bd326d5239060c3e9283d8febd0ebaeb96b966b598a4e1b0af0600000000000022512060b47e9026375962bd326d5239060c3e9283d8febd0ebaeb96b966b598a4e1b0af0600000000000022512060b47e9026375962bd326d5239060c3e9283d8febd0ebaeb96b966b598a4e1b0af0600000000000022512060b47e9026375962bd326d5239060c3e9283d8febd0ebaeb96b966b598a4e1b0029e1d0000000000225120b3ceccadba288577611296fda2dea28df51332fed3a16b95ff9d8b85a0de296d034082365cf4f715ce8ee4751104eedbddcab3f45b3beb4074b9652018e9760152e08baf7f7f68456d2b5126daa73563a083a329bc4d4c7eed0cf2bc02a9b73053a12220bea10d7f6fea428670f03f8b2cbd278c74d11ac4f6080549a7965e2f9a29094cac21c1bea10d7f6fea428670f03f8b2cbd278c74d11ac4f6080549a7965e2f9a29094c0340f8f38b563ff602805a53d766d9c3116d85700bded24a61b0a85d4192e44462f8cf1bb794671163770f28f463f717a272cd5dd013cdf670789ed28599c5b58e632220bea10d7f6fea428670f03f8b2cbd278c74d11ac4f6080549a7965e2f9a29094cac21c1bea10d7f6fea428670f03f8b2cbd278c74d11ac4f6080549a7965e2f9a29094c00000000"
}