{
  "txid": "d0dc51837910b5eff1877ae0fa8b75ef1bf047fe580e59c4b96f29ebcc34ef12",
  "version": 1,
  "locktime": 833784,
  "vin": [
    {
      "txid": "5c70f8ae37dcef9446d75c8b49ce4c59493d3728128e9a0a5e0ef18ce2492e4b",
      "vout": 0,
      "prevout": {
        "scriptpubkey": "a9148da545660dc82337d6d8bdf21e3ce29b55b1bd5687",
        "scriptpubkey_asm": "OP_HASH160 OP_PUSHBYTES_20 8da545660dc82337d6d8bdf21e3ce29b55b1bd56 OP_EQUAL",
        "scriptpubkey_type": "p2sh",
        "scriptpubkey_address": "3EbyBpzwPjWcb9q2K6ncyQRotP1sa9i798",
        "value": 815098
      },
      "scriptsig": "2200206b48eda18d2e11141f4f6727b454a1972f7d8d1340d3da5f3c717a6dc20a12f3",
      "scriptsig_asm": "OP_PUSHBYTES_34 00206b48eda18d2e11141f4f6727b454a1972f7d8d1340d3da5f3c717a6dc20a12f3",
      "witness": [
        "",
        "3045022100e2c92fa2712d15b8c6fc7231633c0573d924b94303f19cb6a93a0975ce14901e022049bd289edaaa9b0cb58b3956e550fd0df91ebdfa5c588933127411123a4b54f301",
        "304402205898338df838984e5482071c1ebe50e203d0b9db72fe2d117c00536b03c7441902203e1e9598968c16899f11e47e63d55066b1a2b870d4cc39f89a141db3e39d4dd301",
        "522103562259dbbe21b5361724c1ec46bbe2e427b33510988668d392ac6661c698e5cd21021da0259a1f3a5837b69a81a61a08a9c5a669ca888dff35b39ec79317e1b7c68021021e2e8e288d9c3a0e45b03f026b720ccd9418e38db226f32a65d3de6730a1e10653ae"
      ],
      "is_coinbase": false,
      "sequence": 4294967295,
      "inner_redeemscript_asm": "OP_0 OP_PUSHBYTES_32 6b48eda18d2e11141f4f6727b454a1972f7d8d1340d3da5f3c717a6dc20a12f3",
      "inner_witnessscript_asm": "OP_PUSHNUM_2 OP_PUSHBYTES_33 03562259dbbe21b5361724c1ec46bbe2e427b33510988668d392ac6661c698e5cd OP_PUSHBYTES_33 021da0259a1f3a5837b69a81a61a08a9c5a669ca888dff35b39ec79317e1b7c680 OP_PUSHBYTES_33 021e2e8e288d9c3a0e45b03f026b720ccd9418e38db226f32a65d3de6730a1e106 OP_PUSHNUM_3 OP_CHECKMULTISIG"
    },
    {
      "txid": "76354ca608fdc715bd579ab415a6262cccc650f911cabcaff72b3b23f63fa9a6",
      "vout": 1,
      "prevout": {
        "scriptpubkey": "0020d42e156dfacd0549c4d63c42c25b5bce338be7d37735469aa48b6f0817b62501",
        "scriptpubkey_asm": "OP_0 OP_PUSHBYTES_32 d42e156dfacd0549c4d63c42c25b5bce338be7d37735469aa48b6f0817b62501",
        "scriptpubkey_type": "v0_p2wsh",
        "scriptpubkey_address": "bc1q6shp2m06e5z5n3xk83pvyk6meceche7nwu65dx4y3dhss9aky5qskuakyz",
        "value": 1020492
      },
      "scriptsig": "",
      "scriptsig_asm": "",
      "witness": [
        "",
        "3044022012176fc4c3d1df307819861106fe3e6ee070db1a261d8d7a3c843ff9c4db86c602203fcb8c90fd4909b1755ea79780f8459912e0ae3086d1a65637489c715e018fc801",
        "304402201331a70cf96b5bc6f2216290c68f496691182cea2e7e9f3c713b55e586a97e4f02206cea5c8ab2ea8764de6e96a5663c6f38e03742da149a38339c41f772aa47a52601",
        "5221030a06ab12c25887a0c539a2abe3a5757e902446ca1821c970f1e50082d0fdbe0f2103eb40c5f5d3b8a7f4495f27ebca57f18df9a97ab5dfa0887d23ffb6e16bfbbc7e210215c994105d74f7f0d856ea6c35579f727c91a6377528b47bd45f0031e4062b3b53ae"
      ],
      "is_coinbase": false,
      "sequence": 4294967295,
      "inner_witnessscript_asm": "OP_PUSHNUM_2 OP_PUSHBYTES_33 030a06ab12c25887a0c539a2abe3a5757e902446ca1821c970f1e50082d0fdbe0f OP_PUSHBYTES_33 03eb40c5f5d3b8a7f4495f27ebca57f18df9a97ab5dfa0887d23ffb6e16bfbbc7e OP_PUSHBYTES_33 0215c994105d74f7f0d856ea6c35579f727c91a6377528b47bd45f0031e4062b3b OP_PUSHNUM_3 OP_CHECKMULTISIG"
    }
  ],
  "vout": [
    {
      "scriptpubkey": "001441253d566cd587eb241d01afacf7cbc9f8229cf6",
      "scriptpubkey_asm": "OP_0 OP_PUSHBYTES_20 41253d566cd587eb241d01afacf7cbc9f8229cf6",
      "scriptpubkey_type": "v0_p2wpkh",
      "scriptpubkey_address": "bc1qgyjn64nv6kr7kfqaqxh6ea7te8uz988kxe3g65",
      "value": 182847
    },
    {
      "scriptpubkey": "002057d9ce8bbebf12deda784316e1f86c5d82f09df83ce2bf1fab82fdc4d8984c7a",
      "scriptpubkey_asm": "OP_0 OP_PUSHBYTES_32 57d9ce8bbebf12deda784316e1f86c5d82f09df83ce2bf1fab82fdc4d8984c7a",
      "scriptpubkey_type": "v0_p2wsh",
      "scriptpubkey_address": "bc1q2lvuaza7hufdakncgvtwr7rvtkp0p80c8n3t78atst7ufkycf3aqsp3jqy",
      "value": 1649163
    }
  ],
  "size": 708,
  "weight": 1311,
  "fee": 3580,
  "status": {
    "confirmed": true,
    "block_height": 834464,
    "block_hash": "0000000000000000000177a0869a911a2b65c9bdcd5a8bcb02b68f305bee848e",
    "block_time": 1710308296
  },
  "hex": "010000000001024b2e49e28cf10e5e0a9a8e1228373d49594cce498b5cd74694efdc37aef8705c00000000232200206b48eda18d2e11141f4f6727b454a1972f7d8d1340d3da5f3c717a6dc20a12f3ffffffffa6a93ff6233b2bf7afbcca11f950c6cc2c26a615b49a57bd15c7fd08a64c35760100000000ffffffff023fca02000000000016001441253d566cd587eb241d01afacf7cbc9f8229cf60b2a19000000000022002057d9ce8bbebf12deda784316e1f86c5d82f09df83ce2bf1fab82fdc4d8984c7a0400483045022100e2c92fa2712d15b8c6fc7231633c0573d924b94303f19cb6a93a0975ce14901e022049bd289edaaa9b0cb58b3956e550fd0df91ebdfa5c588933127411123a4b54f30147304402205898338df838984e5482071c1ebe50e203d0b9db72fe2d117c00536b03c7441902203e1e9598968c16899f11e47e63d55066b1a2b870d4cc39f89a141db3e39d4dd30169522103562259dbbe21b5361724c1ec46bbe2e427b33510988668d392ac6661c698e5cd21021da0259a1f3a5837b69a81a61a08a9c5a669ca888dff35b39ec79317e1b7c68021021e2e8e288d9c3a0e45b03f026b720ccd9418e38db226f32a65d3de6730a1e10653ae0400473044022012176fc4c3d1df307819861106fe3e6ee070db1a261d8d7a3c843ff9c4db86c602203fcb8c90fd4909b1755ea79780f8459912e0ae3086d1a65637489c715e018fc80147304402201331a70cf96b5bc6f2216290c68f496691182cea2e7e9f3c713b55e586a97e4f02206cea5c8ab2ea8764de6e96a5663c6f38e03742da149a38339c41f772aa47a52601695221030a06ab12c25887a0c539a2abe3a5757e902446ca1821c970f1e50082d0fdbe0f2103eb40c5f5d3b8a7f4495f27ebca57f18df9a97ab5dfa0887d23ffb6e16bfbbc7e210215c994105d74f7f0d856ea6c35579f727c91a6377528b47bd45f0031e4062b3b53aef8b80c00"
}