{
  "txid": "d0e548351f498aecba1225d9bb2a141c7c4626ddd7af419c1e9d654d36a786f8",
  "version": 2,
  "locktime": 0,
  "vin": [
    {
      "txid": "c427b65bdebdfa918e2bf7a105007aecbb1b2cd4e5d0fec63879359a217080ba",
      "vout": 0,
      "prevout": {
        "scriptpubkey": "5120ac9dcb814fdccaa4fc4012c18b67d48a9f3fd418e2e2d23461f75166c53f68a9",
        "scriptpubkey_asm": "OP_PUSHNUM_1 OP_PUSHBYTES_32 ac9dcb814fdccaa4fc4012c18b67d48a9f3fd418e2e2d23461f75166c53f68a9",
        "scriptpubkey_type": "v1_p2tr",
        "scriptpubkey_address": "bc1p4jwuhq20mn92flzqztqcke75320nl4qcut3dydrp7agkd3fldz5sv9pdg0",
        "value": 2108
      },
      "scriptsig": "",
      "scriptsig_asm": "",
      "witness": [
        "cc0ecb5d6a236e75db389fd64e7f391ec015ae18eebae15b9877a5c5204b8da781500674dc1defa3357703f535f1ca28656000928591dec8582b5e4d5d031769",
        "20be90820dd64017c68f5e779928353e03747edbec4b6c639e693addf97fec0f0cac0063036f7264010118746578742f706c61696e3b636861727365743d7574662d3800427b2270223a226272632d3230222c226f70223a227472616e73666572222c227469636b223a2258404149222c22616d74223a2231303030303030303030303030227d68",
        "c0be90820dd64017c68f5e779928353e03747edbec4b6c639e693addf97fec0f0c"
      ],
      "is_coinbase": false,
      "sequence": 4294967293
    }
  ],
  "vout": [
    {
      "scriptpubkey": "0014f295bb77cdd39b10fb89898fd18aa1cf792ea056",
      "scriptpubkey_asm": "OP_0 OP_PUSHBYTES_20 f295bb77cdd39b10fb89898fd18aa1cf792ea056",
      "scriptpubkey_type": "v0_p2wpkh",
      "scriptpubkey_address": "bc1q722mka7d6wd3p7uf3x8arz4peaujagzkevvd9p",
      "value": 546
    }
  ],
  "size": 321,
  "weight": 567,
  "fee": 1562,
  "status": {
    "confirmed": true,
    "block_height": 834464,
    "block_hash": "0000000000000000000177a0869a911a2b65c9bdcd5a8bcb02b68f305bee848e",
    "block_time": 1710308296
  },
  "hex": "02000000000101ba8070219a357938c6fed0e5d42c1bbbec7a0005a1f72b8e91fabdde5bb627c40000000000fdffffff012202000000000000160014f295bb77cdd39b10fb89898fd18aa1cf792ea0560340cc0ecb5d6a236e75db389fd64e7f391ec015ae18eebae15b9877a5c5204b8da781500674dc1defa3357703f535f1ca28656000928591dec8582b5e4d5d0317698820be90820dd64017c68f5e779928353e03747edbec4b6c639e693addf97fec0f0cac0063036f7264010118746578742f706c61696e3b636861727365743d7574662d3800427b2270223a226272632d3230222c226f70223a227472616e73666572222c227469636b223a2258404149222c22616d74223a2231303030303030303030303030227d6821c0be90820dd64017c68f5e779928353e03747edbec4b6c639e693addf97fec0f0c00000000"
}