{
  "txid": "d0fa3356fb263009d4fc8d7d6ba59963a560baba8da03501fdc411ff26b76ad6",
  "version": 1,
  "locktime": 0,
  "vin": [
    {
      "txid": "03231c8ad1ac071b4b1d850bc893e4d064843177aefc1af9cb128837903c758d",
      "vout": 0,
      "prevout": {
        "scriptpubkey": "0014dc6bf86354105de2fcd9868a2b0376d6731cb92f",
        "scriptpubkey_asm": "OP_0 OP_PUSHBYTES_20 dc6bf86354105de2fcd9868a2b0376d6731cb92f",
        "scriptpubkey_type": "v0_p2wpkh",
        "scriptpubkey_address": "bc1qm34lsc65zpw79lxes69zkqmk6ee3ewf0j77s3h",
        "value": 5396298538
      },
      "scriptsig": "",
      "scriptsig_asm": "",
      "witness": [
        "3044022079b5dd2330c5f03854e1e9a793be1ec5f1895283abf99fc356d28cb459ef232a022034dbf18c8979ffc1c712a607bc957ef5e5eae72d0260e7f21bf94bfe9af9288101",
        "02174ee672429ff94304321cdae1fc1e487edf658b34bd1d36da03761658a2bb09"
      ],
      "is_coinbase": false,
      "sequence": 4294967295
    }
  ],
  "vout": [
    {
      "scriptpubkey": "76a9142efa9b6059d99fa5fac599c47b6217ce02dd619d88ac",
      "scriptpubkey_asm": "OP_DUP OP_HASH160 OP_PUSHBYTES_20 2efa9b6059d99fa5fac599c47b6217ce02dd619d OP_EQUALVERIFY OP_CHECKSIG",
      "scriptpubkey_type": "p2pkh",
      "scriptpubkey_address": "15HQJJNnQ6xFnToT9EDCVfBEQAvao8Byoc",
      "value": 9233460
    },
    {
      "scriptpubkey": "0014dc6bf86354105de2fcd9868a2b0376d6731cb92f",
      "scriptpubkey_asm": "OP_0 OP_PUSHBYTES_20 dc6bf86354105de2fcd9868a2b0376d6731cb92f",
      "scriptpubkey_type": "v0_p2wpkh",
      "scriptpubkey_address": "bc1qm34lsc65zpw79lxes69zkqmk6ee3ewf0j77s3h",
      "value": 2168080529
    },
    {
      "scriptpubkey": "a9148fdd0cb73a7b2f6c1a2be3079d27cb0146a6561c87",
      "scriptpubkey_asm": "OP_HASH160 OP_PUSHBYTES_20 8fdd0cb73a7b2f6c1a2be3079d27cb0146a6561c OP_EQUAL",
      "scriptpubkey_type": "p2sh",
      "scriptpubkey_address": "3EohMmxMUyhpo2X6f7EDKC3kFTu1ya6SRS",
      "value": 2020208910
    },
    {
      "scriptpubkey": "001448b7ae792ddae0bd372e29b271a8525694b6cb75",
      "scriptpubkey_asm": "OP_0 OP_PUSHBYTES_20 48b7ae792ddae0bd372e29b271a8525694b6cb75",
      "scriptpubkey_type": "v0_p2wpkh",
      "scriptpubkey_address": "bc1qfzm6u7fdmtst6dew9xe8r2zj262tdjm4mspr6q",
      "value": 3720315
    },
    {
      "scriptpubkey": "0014371c620e2a5f79132ddea30020e251ddab5e315f",
      "scriptpubkey_asm": "OP_0 OP_PUSHBYTES_20 371c620e2a5f79132ddea30020e251ddab5e315f",
      "scriptpubkey_type": "v0_p2wpkh",
      "scriptpubkey_address": "bc1qxuwxyr32tau3xtw75vqzpcj3mk44uv2lwv5gtu",
      "value": 68200
    },
    {
      "scriptpubkey": "a914bd529402ed56bc0c64dc57afcd906c02c960042787",
      "scriptpubkey_asm": "OP_HASH160 OP_PUSHBYTES_20 bd529402ed56bc0c64dc57afcd906c02c9600427 OP_EQUAL",
      "scriptpubkey_type": "p2sh",
      "scriptpubkey_address": "3Jx4ZRytA8MNTHubecmd6nG9HGZdboydmn",
      "value": 65616278
    },
    {
      "scriptpubkey": "001420a497f145145a44c3619d044c6620a7d76aa239",
      "scriptpubkey_asm": "OP_0 OP_PUSHBYTES_20 20a497f145145a44c3619d044c6620a7d76aa239",
      "scriptpubkey_type": "v0_p2wpkh",
      "scriptpubkey_address": "bc1qyzjf0u29z3dyfsmpn5zyce3q5ltk4g3e4vgq5q",
      "value": 386477
    },
    {
      "scriptpubkey": "76a914c93fa9e6c24e711d88c59b4b0370666d51553f3188ac",
      "scriptpubkey_asm": "OP_DUP OP_HASH160 OP_PUSHBYTES_20 c93fa9e6c24e711d88c59b4b0370666d51553f31 OP_EQUALVERIFY OP_CHECKSIG",
      "scriptpubkey_type": "p2pkh",
      "scriptpubkey_address": "1KM75zHqm5hxhsP6W73jdn4HSzHsxE3SHg",
      "value": 78386
    },
    {
      "scriptpubkey": "0014007fd3d74579697415b7e81a02e2c1ac8341a775",
      "scriptpubkey_asm": "OP_0 OP_PUSHBYTES_20 007fd3d74579697415b7e81a02e2c1ac8341a775",
      "scriptpubkey_type": "v0_p2wpkh",
      "scriptpubkey_address": "bc1qqpla8469095hg9dhaqdq9ckp4jp5rfm4j3m72n",
      "value": 980000
    },
    {
      "scriptpubkey": "a914730e5e06450aae03deb4e20482f8b9f2fc4e3b2f87",
      "scriptpubkey_asm": "OP_HASH160 OP_PUSHBYTES_20 730e5e06450aae03deb4e20482f8b9f2fc4e3b2f OP_EQUAL",
      "scriptpubkey_type": "p2sh",
      "scriptpubkey_address": "3CBNqrsGYXs2PJGxVodBBmXCQ4pfnUVbfs",
      "value": 350974
    },
    {
      "scriptpubkey": "a91477157bdd54dd9152249346a030cc3b5b8e0a955387",
      "scriptpubkey_asm": "OP_HASH160 OP_PUSHBYTES_20 77157bdd54dd9152249346a030cc3b5b8e0a9553 OP_EQUAL",
      "scriptpubkey_type": "p2sh",
      "scriptpubkey_address": "3CYg56V494XhsZsKFKqF1nQDy1UpiY8m3f",
      "value": 1651834
    },
    {
      "scriptpubkey": "76a914d72d159c26a7b46910de13a28f25263ab5401c0188ac",
      "scriptpubkey_asm": "OP_DUP OP_HASH160 OP_PUSHBYTES_20 d72d159c26a7b46910de13a28f25263ab5401c01 OP_EQUALVERIFY OP_CHECKSIG",
      "scriptpubkey_type": "p2pkh",
      "scriptpubkey_address": "1LckHmHY8nZvQ5SVJtpWutdjEbB7XgULP7",
      "value": 297722
    },
    {
      "scriptpubkey": "a9141f0973cacf82373a617ffe807753d85a902884f487",
      "scriptpubkey_asm": "OP_HASH160 OP_PUSHBYTES_20 1f0973cacf82373a617ffe807753d85a902884f4 OP_EQUAL",
      "scriptpubkey_type": "p2sh",
      "scriptpubkey_address": "34X8CFP2pp4418PVmSEGoNB46JX2SczJ9d",
      "value": 30000000
    },
    {
      "scriptpubkey": "76a91403959574c5f85de9623d0effeec757787992310488ac",
      "scriptpubkey_asm": "OP_DUP OP_HASH160 OP_PUSHBYTES_20 03959574c5f85de9623d0effeec7577879923104 OP_EQUALVERIFY OP_CHECKSIG",
      "scriptpubkey_type": "p2pkh",
      "scriptpubkey_address": "1KxDqnDx6Bav5vJZnYYr19n2J6fF7YG7C",
      "value": 400000000
    },
    {
      "scriptpubkey": "00141dfbfd915be7cab26282821339473cf2ceb64cb4",
      "scriptpubkey_asm": "OP_0 OP_PUSHBYTES_20 1dfbfd915be7cab26282821339473cf2ceb64cb4",
      "scriptpubkey_type": "v0_p2wpkh",
      "scriptpubkey_address": "bc1qrhalmy2mul9tyc5zsgfnj3eu7t8tvn95zkusf2",
      "value": 207081
    },
    {
      "scriptpubkey": "a914d0c4971a220c10585002bbcbe938927248db88c087",
      "scriptpubkey_asm": "OP_HASH160 OP_PUSHBYTES_20 d0c4971a220c10585002bbcbe938927248db88c0 OP_EQUAL",
      "scriptpubkey_type": "p2sh",
      "scriptpubkey_address": "3LisymqyJifxfYxnyz69UqQYA7puFBeXi2",
      "value": 372309
    },
    {
      "scriptpubkey": "0014f7862a9e082b848a3da88c264fd3a6b6a12c19bf",
      "scriptpubkey_asm": "OP_0 OP_PUSHBYTES_20 f7862a9e082b848a3da88c264fd3a6b6a12c19bf",
      "scriptpubkey_type": "v0_p2wpkh",
      "scriptpubkey_address": "bc1q77rz48sg9wzg50dg3snyl5axk6sjcxdltl6ssm",
      "value": 2310000
    },
    {
      "scriptpubkey": "a914d15e46d3f86a246115d359a837f1246764476c6e87",
      "scriptpubkey_asm": "OP_HASH160 OP_PUSHBYTES_20 d15e46d3f86a246115d359a837f1246764476c6e OP_EQUAL",
      "scriptpubkey_type": "p2sh",
      "scriptpubkey_address": "3Ln466RXHQJkcr4po8rm33SyoxaPW6brzt",
      "value": 136256000
    },
    {
      "scriptpubkey": "00144b8df0ec400e1f21fa4c0af756b0c229c95d5157",
      "scriptpubkey_asm": "OP_0 OP_PUSHBYTES_20 4b8df0ec400e1f21fa4c0af756b0c229c95d5157",
      "scriptpubkey_type": "v0_p2wpkh",
      "scriptpubkey_address": "bc1qfwxlpmzqpc0jr7jvptm4dvxz98y4652hc8plwe",
      "value": 110000
    },
    {
      "scriptpubkey": "a91441bf3cddbba7fb1f03e54a6c13c546e9376b01cc87",
      "scriptpubkey_asm": "OP_HASH160 OP_PUSHBYTES_20 41bf3cddbba7fb1f03e54a6c13c546e9376b01cc OP_EQUAL",
      "scriptpubkey_type": "p2sh",
      "scriptpubkey_address": "37gewSmfNdJZe37XttA82LAU2TSkXHezbR",
      "value": 65100
    },
    {
      "scriptpubkey": "a914a12d8e3f41fa75ce1d61d2f655506217d901796b87",
      "scriptpubkey_asm": "OP_HASH160 OP_PUSHBYTES_20 a12d8e3f41fa75ce1d61d2f655506217d901796b OP_EQUAL",
      "scriptpubkey_type": "p2sh",
      "scriptpubkey_address": "3GPFHh1kPz8kffhgr41bq2FJBkvUYYMiFn",
      "value": 548312838
    },
    {
      "scriptpubkey": "0014dca675d93057b092151a47a5a5a035555f321eed",
      "scriptpubkey_asm": "OP_0 OP_PUSHBYTES_20 dca675d93057b092151a47a5a5a035555f321eed",
      "scriptpubkey_type": "v0_p2wpkh",
      "scriptpubkey_address": "bc1qmjn8tkfs27cfy9g6g7j6tgp4240ny8hdhfu2mx",
      "value": 6112000
    },
    {
      "scriptpubkey": "a914bdec5eb9bcab697a834f3339d3ee9ee1e00f8ad087",
      "scriptpubkey_asm": "OP_HASH160 OP_PUSHBYTES_20 bdec5eb9bcab697a834f3339d3ee9ee1e00f8ad0 OP_EQUAL",
      "scriptpubkey_type": "p2sh",
      "scriptpubkey_address": "3K1Eo5QMagfSBSE8j3rSGu4d1QvBd2wCjC",
      "value": 1839425
    }
  ],
  "size": 895,
  "weight": 3253,
  "fee": 40700,
  "status": {
    "confirmed": true,
    "block_height": 834638,
    "block_hash": "000000000000000000025f742c626208ac87e0b7d15054abb4a19ca2d735a54e",
    "block_time": 1710405325
  },
  "hex": "010000000001018d753c90378812cbf91afcae77318464d0e493c80b851d4b1b07acd18a1c23030000000000ffffffff1734e48c00000000001976a9142efa9b6059d99fa5fac599c47b6217ce02dd619d88ac91483a8100000000160014dc6bf86354105de2fcd9868a2b0376d6731cb92f0ef169780000000017a9148fdd0cb73a7b2f6c1a2be3079d27cb0146a6561c877bc438000000000016001448b7ae792ddae0bd372e29b271a8525694b6cb75680a010000000000160014371c620e2a5f79132ddea30020e251ddab5e315f9639e9030000000017a914bd529402ed56bc0c64dc57afcd906c02c960042787ade505000000000016001420a497f145145a44c3619d044c6620a7d76aa23932320100000000001976a914c93fa9e6c24e711d88c59b4b0370666d51553f3188ac20f40e0000000000160014007fd3d74579697415b7e81a02e2c1ac8341a775fe5a05000000000017a914730e5e06450aae03deb4e20482f8b9f2fc4e3b2f877a3419000000000017a91477157bdd54dd9152249346a030cc3b5b8e0a955387fa8a0400000000001976a914d72d159c26a7b46910de13a28f25263ab5401c0188ac80c3c9010000000017a9141f0973cacf82373a617ffe807753d85a902884f4870084d717000000001976a91403959574c5f85de9623d0effeec757787992310488ace9280300000000001600141dfbfd915be7cab26282821339473cf2ceb64cb455ae05000000000017a914d0c4971a220c10585002bbcbe938927248db88c087703f230000000000160014f7862a9e082b848a3da88c264fd3a6b6a12c19bf001a1f080000000017a914d15e46d3f86a246115d359a837f1246764476c6e87b0ad0100000000001600144b8df0ec400e1f21fa4c0af756b0c229c95d51574cfe00000000000017a91441bf3cddbba7fb1f03e54a6c13c546e9376b01cc870697ae200000000017a914a12d8e3f41fa75ce1d61d2f655506217d901796b8700435d0000000000160014dca675d93057b092151a47a5a5a035555f321eed41111c000000000017a914bdec5eb9bcab697a834f3339d3ee9ee1e00f8ad08702473044022079b5dd2330c5f03854e1e9a793be1ec5f1895283abf99fc356d28cb459ef232a022034dbf18c8979ffc1c712a607bc957ef5e5eae72d0260e7f21bf94bfe9af92881012102174ee672429ff94304321cdae1fc1e487edf658b34bd1d36da03761658a2bb0900000000"
}