{
  "txid": "d10c32a5d1137338367c32454990e4b98f6f1a09d82340327d6910eab6b75e85",
  "version": 1,
  "locktime": 0,
  "vin": [
    {
      "txid": "bb5a1f6358b0bce8e94f1aeaa2e38b34befb58bc6257c6514d99cae7cf18767f",
      "vout": 2,
      "prevout": {
        "scriptpubkey": "0014d8c8c1592ead4e1a5f3c58eeb828585aa8bb7eea",
        "scriptpubkey_asm": "OP_0 OP_PUSHBYTES_20 d8c8c1592ead4e1a5f3c58eeb828585aa8bb7eea",
        "scriptpubkey_type": "v0_p2wpkh",
        "scriptpubkey_address": "bc1qmryvzkfw448p5heutrhts2zct25tklh2nueh9h",
        "value": 44000
      },
      "scriptsig": "",
      "scriptsig_asm": "",
      "witness": [
        "3045022100c9908f0c2784cc520226e5a5a46044dd448c4d7f031e7d998e2eff69a809210502206e44fc83397a9494b3531003426ec0e9c99cd790f25d040272613c3816dcdd9e01",
        "0242d9a31219d2a139b1dcd66182633690ffc9082b33bab5c6379438b922af70e2"
      ],
      "is_coinbase": false,
      "sequence": 4294967293
    },
    {
      "txid": "d43a1acbe149d27543478038cd49af5bba5b113aa9e3f143fa79640bd8737daf",
      "vout": 1,
      "prevout": {
        "scriptpubkey": "0014d8c8c1592ead4e1a5f3c58eeb828585aa8bb7eea",
        "scriptpubkey_asm": "OP_0 OP_PUSHBYTES_20 d8c8c1592ead4e1a5f3c58eeb828585aa8bb7eea",
        "scriptpubkey_type": "v0_p2wpkh",
        "scriptpubkey_address": "bc1qmryvzkfw448p5heutrhts2zct25tklh2nueh9h",
        "value": 8526
      },
      "scriptsig": "",
      "scriptsig_asm": "",
      "witness": [
        "30440220161fb8f2f07ad35a717a7d1ebf9b8f96294bbd535eead68a90ad0b7e7fe3ecf602205d6ed592e403bcef25a14d40dcabd6c00ff0c59bc915b2e203a97e49f936d56801",
        "0242d9a31219d2a139b1dcd66182633690ffc9082b33bab5c6379438b922af70e2"
      ],
      "is_coinbase": false,
      "sequence": 4294967293
    }
  ],
  "vout": [
    {
      "scriptpubkey": "76a9143f6601557164b4031abec53c8dc39bcb89c38cb188ac",
      "scriptpubkey_asm": "OP_DUP OP_HASH160 OP_PUSHBYTES_20 3f6601557164b4031abec53c8dc39bcb89c38cb1 OP_EQUALVERIFY OP_CHECKSIG",
      "scriptpubkey_type": "p2pkh",
      "scriptpubkey_address": "16nDmXqAXR4GUbJDi16NnuTtPE5udesMNc",
      "value": 49582
    }
  ],
  "size": 343,
  "weight": 721,
  "fee": 2944,
  "status": {
    "confirmed": true,
    "block_height": 834638,
    "block_hash": "000000000000000000025f742c626208ac87e0b7d15054abb4a19ca2d735a54e",
    "block_time": 1710405325
  },
  "hex": "010000000001027f7618cfe7ca994d51c65762bc58fbbe348be3a2ea1a4fe9e8bcb058631f5abb0200000000fdffffffaf7d73d80b6479fa43f1e3a93a115bba5baf49cd3880474375d249e1cb1a3ad40100000000fdffffff01aec10000000000001976a9143f6601557164b4031abec53c8dc39bcb89c38cb188ac02483045022100c9908f0c2784cc520226e5a5a46044dd448c4d7f031e7d998e2eff69a809210502206e44fc83397a9494b3531003426ec0e9c99cd790f25d040272613c3816dcdd9e01210242d9a31219d2a139b1dcd66182633690ffc9082b33bab5c6379438b922af70e2024730440220161fb8f2f07ad35a717a7d1ebf9b8f96294bbd535eead68a90ad0b7e7fe3ecf602205d6ed592e403bcef25a14d40dcabd6c00ff0c59bc915b2e203a97e49f936d56801210242d9a31219d2a139b1dcd66182633690ffc9082b33bab5c6379438b922af70e200000000"
}