{
  "txid": "d1156e5752876584e17b45f887a826b8c3b9a72fd33e70805c9d8f3f03bf81bd",
  "version": 2,
  "locktime": 0,
  "vin": [
    {
      "txid": "eeff905bc1556d393129ca90c28416c18925229b7d8c6087e44ff78a9ae9a164",
      "vout": 0,
      "prevout": {
        "scriptpubkey": "51201679eea8264082e571de60fc96f97b9b8d6507c2b3c1e1f9a27250e6c48f79e6",
        "scriptpubkey_asm": "OP_PUSHNUM_1 OP_PUSHBYTES_32 1679eea8264082e571de60fc96f97b9b8d6507c2b3c1e1f9a27250e6c48f79e6",
        "scriptpubkey_type": "v1_p2tr",
        "scriptpubkey_address": "bc1pzeu7a2pxgzpw2uw7vr7fd7tmnwxk2p7zk0q7r7dzwfgwd3y008nqnu0gue",
        "value": 3282
      },
      "scriptsig": "",
      "scriptsig_asm": "",
      "witness": [
        "1111c03838ccd3696b596f5bf9784eaee8d8eda9cccf05a82609c85d4cbdc8f0b93bc77294dadc4dce30c09e9d893ab7c3be5356aa7c84d6c733edca63a68c5d",
        "2089e17177ea86043abd5bf9f27b8969d6d4a617c2670225be8279f8a3c9586691ac0063036f7264010118746578742f706c61696e3b636861727365743d7574662d3800397b2270223a226272632d3230222c226f70223a227472616e73666572222c227469636b223a2262756c6c222c22616d74223a2235303030227d68",
        "c089e17177ea86043abd5bf9f27b8969d6d4a617c2670225be8279f8a3c9586691"
      ],
      "is_coinbase": false,
      "sequence": 4294967293
    }
  ],
  "vout": [
    {
      "scriptpubkey": "5120f098b52ae1ab8d5be1061669cb655ed651b5e7e7b081100d1e4f2530473f3430",
      "scriptpubkey_asm": "OP_PUSHNUM_1 OP_PUSHBYTES_32 f098b52ae1ab8d5be1061669cb655ed651b5e7e7b081100d1e4f2530473f3430",
      "scriptpubkey_type": "v1_p2tr",
      "scriptpubkey_address": "bc1p7zvt22hp4wx4hcgxze5uke276egmtel8kzq3qrg7fujnq3elxscqcmf746",
      "value": 546
    }
  ],
  "size": 324,
  "weight": 606,
  "fee": 2736,
  "status": {
    "confirmed": true,
    "block_height": 834638,
    "block_hash": "000000000000000000025f742c626208ac87e0b7d15054abb4a19ca2d735a54e",
    "block_time": 1710405325
  },
  "hex": "0200000000010164a1e99a8af74fe487608c7d9b222589c11684c290ca2931396d55c15b90ffee0000000000fdffffff012202000000000000225120f098b52ae1ab8d5be1061669cb655ed651b5e7e7b081100d1e4f2530473f343003401111c03838ccd3696b596f5bf9784eaee8d8eda9cccf05a82609c85d4cbdc8f0b93bc77294dadc4dce30c09e9d893ab7c3be5356aa7c84d6c733edca63a68c5d7f2089e17177ea86043abd5bf9f27b8969d6d4a617c2670225be8279f8a3c9586691ac0063036f7264010118746578742f706c61696e3b636861727365743d7574662d3800397b2270223a226272632d3230222c226f70223a227472616e73666572222c227469636b223a2262756c6c222c22616d74223a2235303030227d6821c089e17177ea86043abd5bf9f27b8969d6d4a617c2670225be8279f8a3c958669100000000"
}