{
  "txid": "d11e998cb62ed02941783a49681ff6873677b8e1d1642bcb7214bbee80f1f4fa",
  "version": 2,
  "locktime": 0,
  "vin": [
    {
      "txid": "862a2e3e72623bd509ff52d3b440547a2eeb3e69b2f4b6d570adc494d0b29543",
      "vout": 0,
      "prevout": {
        "scriptpubkey": "5120f84c125fd7b64f449f1de02b458291cbc84f606ff0bcb56421d350ce5bdbe469",
        "scriptpubkey_asm": "OP_PUSHNUM_1 OP_PUSHBYTES_32 f84c125fd7b64f449f1de02b458291cbc84f606ff0bcb56421d350ce5bdbe469",
        "scriptpubkey_type": "v1_p2tr",
        "scriptpubkey_address": "bc1plpxpyh7hke85f8cauq45tq53e0yy7cr07z7t2epp6dgvuk7mu35sfzukst",
        "value": 4000
      },
      "scriptsig": "",
      "scriptsig_asm": "",
      "witness": [
        "3efe63ba6820ab99e5d4640a13c136b9333b2d79d28cad900d1605eb051d1b7ebb3f2b621ea17b3fd24e2d512fca4af93010e9b0132292d8ccb8c967744aaf43",
        "207c162e9d68069ce4af6042ab77b96144a2b88c764b59c81bb9bc40ba748c3670ac0063036f7264010118746578742f706c61696e3b636861727365743d7574662d3800387b2270223a226272632d3230222c226f70223a227472616e73666572222c227469636b223a22636f7773222c22616d74223a22302e35227d68",
        "c0ca4175e25e49f19048f9852bfe14e312186dd2dae292d2bafad89056bc980d4a"
      ],
      "is_coinbase": false,
      "sequence": 4294967293
    }
  ],
  "vout": [
    {
      "scriptpubkey": "5120ab9f97e49bdb9e46f2d7428deb604c5efe0921c6f6f7a876d55193d2a43b383d",
      "scriptpubkey_asm": "OP_PUSHNUM_1 OP_PUSHBYTES_32 ab9f97e49bdb9e46f2d7428deb604c5efe0921c6f6f7a876d55193d2a43b383d",
      "scriptpubkey_type": "v1_p2tr",
      "scriptpubkey_address": "bc1p4w0e0eymmw0ydukhg2x7kczvtmlqjgwx7mm6sak42xfa9fpm8q7sd5efxh",
      "value": 330
    },
    {
      "scriptpubkey": "00146b1759c3ed6f6ba17cf2d2c2c8f5d299bad003e3",
      "scriptpubkey_asm": "OP_0 OP_PUSHBYTES_20 6b1759c3ed6f6ba17cf2d2c2c8f5d299bad003e3",
      "scriptpubkey_type": "v0_p2wpkh",
      "scriptpubkey_address": "bc1qdvt4nsldda46zl8j6tpv3awjnxadqqlrjhr3n7",
      "value": 1657
    }
  ],
  "size": 354,
  "weight": 729,
  "fee": 2013,
  "status": {
    "confirmed": true,
    "block_height": 834464,
    "block_hash": "0000000000000000000177a0869a911a2b65c9bdcd5a8bcb02b68f305bee848e",
    "block_time": 1710308296
  },
  "hex": "020000000001014395b2d094c4ad70d5b6f4b2693eeb2e7a5440b4d352ff09d53b62723e2e2a860000000000fdffffff024a01000000000000225120ab9f97e49bdb9e46f2d7428deb604c5efe0921c6f6f7a876d55193d2a43b383d79060000000000001600146b1759c3ed6f6ba17cf2d2c2c8f5d299bad003e303403efe63ba6820ab99e5d4640a13c136b9333b2d79d28cad900d1605eb051d1b7ebb3f2b621ea17b3fd24e2d512fca4af93010e9b0132292d8ccb8c967744aaf437e207c162e9d68069ce4af6042ab77b96144a2b88c764b59c81bb9bc40ba748c3670ac0063036f7264010118746578742f706c61696e3b636861727365743d7574662d3800387b2270223a226272632d3230222c226f70223a227472616e73666572222c227469636b223a22636f7773222c22616d74223a22302e35227d6821c0ca4175e25e49f19048f9852bfe14e312186dd2dae292d2bafad89056bc980d4a00000000"
}