{
  "txid": "d121d977e6414f5b63230fbc8e2c460ef7a39760029b83529453feca920f651e",
  "version": 2,
  "locktime": 0,
  "vin": [
    {
      "txid": "acc3ba00869acb582a3f2904ce3a11dd3779350ce234063fc7d0959246213364",
      "vout": 223,
      "prevout": {
        "scriptpubkey": "51202f38b2defad20a3375bcc835353797d9f08bb1c17e3ca34c80020e85f7a3fff8",
        "scriptpubkey_asm": "OP_PUSHNUM_1 OP_PUSHBYTES_32 2f38b2defad20a3375bcc835353797d9f08bb1c17e3ca34c80020e85f7a3fff8",
        "scriptpubkey_type": "v1_p2tr",
        "scriptpubkey_address": "bc1p9uut9hh66g9rxadueq6n2duhm8cghvwp0c72xnyqqg8gtaarlluqt8v9t0",
        "value": 1806
      },
      "scriptsig": "",
      "scriptsig_asm": "",
      "witness": [
        "d5db0dd55c21a379ff57de6ee665fc919d19c834ec027a1c1a08f00680dec02d38208bfa6faeca576d813c9384b87101e0c1fffbe111589accad44ab109cb1ab",
        "20de1b8d316f02d5fbbf18171f7327922e81557d24631e0846fc87102236c320e6ac0063036f726401010a746578742f706c61696e00357b2270223a226272632d3230222c226f70223a226d696e74222c227469636b223a22646f6765222c22616d74223a2234323030227d68",
        "c1de1b8d316f02d5fbbf18171f7327922e81557d24631e0846fc87102236c320e6"
      ],
      "is_coinbase": false,
      "sequence": 4261412863
    }
  ],
  "vout": [
    {
      "scriptpubkey": "00147a665de7a370f4c9b372ab1fae587500a5bcbdb4",
      "scriptpubkey_asm": "OP_0 OP_PUSHBYTES_20 7a665de7a370f4c9b372ab1fae587500a5bcbdb4",
      "scriptpubkey_type": "v0_p2wpkh",
      "scriptpubkey_address": "bc1q0fn9mearwr6vnvmj4v06ukr4qzjme0d565dzcx",
      "value": 294
    }
  ],
  "size": 294,
  "weight": 540,
  "fee": 1512,
  "status": {
    "confirmed": true,
    "block_height": 834460,
    "block_hash": "00000000000000000000484a79b643b2524bbce82e5d8a442013fa5b8905ed98",
    "block_time": 1710307468
  },
  "hex": "02000000000101643321469295d0c73f0634e20c357937dd113ace04293f2a58cb9a8600bac3acdf00000000fffffffd0126010000000000001600147a665de7a370f4c9b372ab1fae587500a5bcbdb40340d5db0dd55c21a379ff57de6ee665fc919d19c834ec027a1c1a08f00680dec02d38208bfa6faeca576d813c9384b87101e0c1fffbe111589accad44ab109cb1ab6d20de1b8d316f02d5fbbf18171f7327922e81557d24631e0846fc87102236c320e6ac0063036f726401010a746578742f706c61696e00357b2270223a226272632d3230222c226f70223a226d696e74222c227469636b223a22646f6765222c22616d74223a2234323030227d6821c1de1b8d316f02d5fbbf18171f7327922e81557d24631e0846fc87102236c320e600000000"
}