{
  "txid": "d147362789d7f704b438161d0cf1228df40c67600fc19b048070d735d0c3262b",
  "version": 2,
  "locktime": 0,
  "vin": [
    {
      "txid": "24e61a82c563e3517a442af6137fe0f7ae6b88b1d6b09f53af9520bd2159cf1d",
      "vout": 0,
      "prevout": {
        "scriptpubkey": "51204d03f3d308bedbd95261cf70d764b34a1d7af59dd777b66d65e69706a46dc13a",
        "scriptpubkey_asm": "OP_PUSHNUM_1 OP_PUSHBYTES_32 4d03f3d308bedbd95261cf70d764b34a1d7af59dd777b66d65e69706a46dc13a",
        "scriptpubkey_type": "v1_p2tr",
        "scriptpubkey_address": "bc1pf5pl85cghmdaj5npeacdwe9nfgwh4ava6ammvmt9u6tsdfrdcyaqz6nt3d",
        "value": 3010
      },
      "scriptsig": "",
      "scriptsig_asm": "",
      "witness": [
        "8f71c37d0135af874790b9a0f33ba72a39fa9b33d4db52d9beb61f8bccda8050a2594b98a5214b9ddcc354b6485a0dcc44ee11803a5756dbcbcbbe19721d0692",
        "20eceee3e0895d03998c44aa750d699fc3a57a168e2b79de699eb9f0ad18c7d8eeac0063036f7264010118746578742f706c61696e3b636861727365743d7574662d3800407b2270223a226272632d3230222c226f70223a227472616e73666572222c227469636b223a22f09d9b91222c22616d74223a223232323232323232323232227d68",
        "c0eceee3e0895d03998c44aa750d699fc3a57a168e2b79de699eb9f0ad18c7d8ee"
      ],
      "is_coinbase": false,
      "sequence": 4294967293
    }
  ],
  "vout": [
    {
      "scriptpubkey": "5120d826ab2636fc8fbdecaf2d73e51ed5dcc9e9e9c452a5604cd40d44ab61a2342d",
      "scriptpubkey_asm": "OP_PUSHNUM_1 OP_PUSHBYTES_32 d826ab2636fc8fbdecaf2d73e51ed5dcc9e9e9c452a5604cd40d44ab61a2342d",
      "scriptpubkey_type": "v1_p2tr",
      "scriptpubkey_address": "bc1pmqn2kf3klj8mmm9094e728k4mny7n6wy22jkqnx5p4z2kcdzxsksslj3mr",
      "value": 546
    }
  ],
  "size": 331,
  "weight": 613,
  "fee": 2464,
  "status": {
    "confirmed": true,
    "block_height": 834464,
    "block_hash": "0000000000000000000177a0869a911a2b65c9bdcd5a8bcb02b68f305bee848e",
    "block_time": 1710308296
  },
  "hex": "020000000001011dcf5921bd2095af539fb0d6b1886baef7e07f13f62a447a51e363c5821ae6240000000000fdffffff012202000000000000225120d826ab2636fc8fbdecaf2d73e51ed5dcc9e9e9c452a5604cd40d44ab61a2342d03408f71c37d0135af874790b9a0f33ba72a39fa9b33d4db52d9beb61f8bccda8050a2594b98a5214b9ddcc354b6485a0dcc44ee11803a5756dbcbcbbe19721d06928620eceee3e0895d03998c44aa750d699fc3a57a168e2b79de699eb9f0ad18c7d8eeac0063036f7264010118746578742f706c61696e3b636861727365743d7574662d3800407b2270223a226272632d3230222c226f70223a227472616e73666572222c227469636b223a22f09d9b91222c22616d74223a223232323232323232323232227d6821c0eceee3e0895d03998c44aa750d699fc3a57a168e2b79de699eb9f0ad18c7d8ee00000000"
}