{
  "txid": "d151e22a3ebbdd7cd423dc3c1b31f2ec46e44c913b6e252299098cb1d7a1dc1b",
  "version": 2,
  "locktime": 0,
  "vin": [
    {
      "txid": "5724b05c38f77cd5df2b589090320558e5b6a996c82c7fdb14aff8793f7c228d",
      "vout": 0,
      "prevout": {
        "scriptpubkey": "5120bdd5946f4e79fddebf8f2efd9991ddc870070b33acf488c279d7d2258eb0b050",
        "scriptpubkey_asm": "OP_PUSHNUM_1 OP_PUSHBYTES_32 bdd5946f4e79fddebf8f2efd9991ddc870070b33acf488c279d7d2258eb0b050",
        "scriptpubkey_type": "v1_p2tr",
        "scriptpubkey_address": "bc1phh2egm6w087aa0u09m7enywaepcqwzen4n6g3sne6lfztr4skpgqp8r4hw",
        "value": 600
      },
      "scriptsig": "",
      "scriptsig_asm": "",
      "witness": [
        "7cecf7e793a44bdea5220d5a521667b3f23672e1184ad231481faac03804882206112b6372ec00c9916aa8deaa2461dc950ccf8702eb737d592b6ca63a007c0301"
      ],
      "is_coinbase": false,
      "sequence": 4294967295
    },
    {
      "txid": "5724b05c38f77cd5df2b589090320558e5b6a996c82c7fdb14aff8793f7c228d",
      "vout": 1,
      "prevout": {
        "scriptpubkey": "5120bdd5946f4e79fddebf8f2efd9991ddc870070b33acf488c279d7d2258eb0b050",
        "scriptpubkey_asm": "OP_PUSHNUM_1 OP_PUSHBYTES_32 bdd5946f4e79fddebf8f2efd9991ddc870070b33acf488c279d7d2258eb0b050",
        "scriptpubkey_type": "v1_p2tr",
        "scriptpubkey_address": "bc1phh2egm6w087aa0u09m7enywaepcqwzen4n6g3sne6lfztr4skpgqp8r4hw",
        "value": 600
      },
      "scriptsig": "",
      "scriptsig_asm": "",
      "witness": [
        "7541dd9939892fd8d6de4504ca9fe749d06bddabccfb19d38f481e4f63efa1e28c94c4319e46aa9410d1ba4d02138c79912a2efffa8458e54f86e638b39306a501"
      ],
      "is_coinbase": false,
      "sequence": 4294967295
    },
    {
      "txid": "cedb984ae7e3d2425549d81eaa24fd1503837d44fab36a95df121493947d5238",
      "vout": 3,
      "prevout": {
        "scriptpubkey": "5120e72ef158230987f0c084c5c2d02f9f2679c12c9f061e4dc91330dc8faee216ac",
        "scriptpubkey_asm": "OP_PUSHNUM_1 OP_PUSHBYTES_32 e72ef158230987f0c084c5c2d02f9f2679c12c9f061e4dc91330dc8faee216ac",
        "scriptpubkey_type": "v1_p2tr",
        "scriptpubkey_address": "bc1puuh0zkprpxrlpsyychpdqtulyeuuztylqc0ymjgnxrwglthzz6kqvtrwz6",
        "value": 546
      },
      "scriptsig": "",
      "scriptsig_asm": "",
      "witness": [
        "a1015ad1df816e8c6d8747e72cd796d801809078c63add83d3268fe41b8baddb25ff237dd1018ffdcff73a40f6859de1c3abf530c27fd72d1c729a9dc32c161f83"
      ],
      "is_coinbase": false,
      "sequence": 4294967295
    },
    {
      "txid": "5724b05c38f77cd5df2b589090320558e5b6a996c82c7fdb14aff8793f7c228d",
      "vout": 2,
      "prevout": {
        "scriptpubkey": "5120bdd5946f4e79fddebf8f2efd9991ddc870070b33acf488c279d7d2258eb0b050",
        "scriptpubkey_asm": "OP_PUSHNUM_1 OP_PUSHBYTES_32 bdd5946f4e79fddebf8f2efd9991ddc870070b33acf488c279d7d2258eb0b050",
        "scriptpubkey_type": "v1_p2tr",
        "scriptpubkey_address": "bc1phh2egm6w087aa0u09m7enywaepcqwzen4n6g3sne6lfztr4skpgqp8r4hw",
        "value": 774269
      },
      "scriptsig": "",
      "scriptsig_asm": "",
      "witness": [
        "6175b3700ceee35c3bc2bb4acc3b238c0a695e554c29bdb4c8197c4fd774bbd189692a67bf78193e72a38bcd82fe1ad39628f403c4d7a64c688a11065641a05801"
      ],
      "is_coinbase": false,
      "sequence": 4294967295
    }
  ],
  "vout": [
    {
      "scriptpubkey": "5120bdd5946f4e79fddebf8f2efd9991ddc870070b33acf488c279d7d2258eb0b050",
      "scriptpubkey_asm": "OP_PUSHNUM_1 OP_PUSHBYTES_32 bdd5946f4e79fddebf8f2efd9991ddc870070b33acf488c279d7d2258eb0b050",
      "scriptpubkey_type": "v1_p2tr",
      "scriptpubkey_address": "bc1phh2egm6w087aa0u09m7enywaepcqwzen4n6g3sne6lfztr4skpgqp8r4hw",
      "value": 1200
    },
    {
      "scriptpubkey": "5120bdd5946f4e79fddebf8f2efd9991ddc870070b33acf488c279d7d2258eb0b050",
      "scriptpubkey_asm": "OP_PUSHNUM_1 OP_PUSHBYTES_32 bdd5946f4e79fddebf8f2efd9991ddc870070b33acf488c279d7d2258eb0b050",
      "scriptpubkey_type": "v1_p2tr",
      "scriptpubkey_address": "bc1phh2egm6w087aa0u09m7enywaepcqwzen4n6g3sne6lfztr4skpgqp8r4hw",
      "value": 546
    },
    {
      "scriptpubkey": "5120e72ef158230987f0c084c5c2d02f9f2679c12c9f061e4dc91330dc8faee216ac",
      "scriptpubkey_asm": "OP_PUSHNUM_1 OP_PUSHBYTES_32 e72ef158230987f0c084c5c2d02f9f2679c12c9f061e4dc91330dc8faee216ac",
      "scriptpubkey_type": "v1_p2tr",
      "scriptpubkey_address": "bc1puuh0zkprpxrlpsyychpdqtulyeuuztylqc0ymjgnxrwglthzz6kqvtrwz6",
      "value": 372000
    },
    {
      "scriptpubkey": "5120bdd5946f4e79fddebf8f2efd9991ddc870070b33acf488c279d7d2258eb0b050",
      "scriptpubkey_asm": "OP_PUSHNUM_1 OP_PUSHBYTES_32 bdd5946f4e79fddebf8f2efd9991ddc870070b33acf488c279d7d2258eb0b050",
      "scriptpubkey_type": "v1_p2tr",
      "scriptpubkey_address": "bc1phh2egm6w087aa0u09m7enywaepcqwzen4n6g3sne6lfztr4skpgqp8r4hw",
      "value": 600
    },
    {
      "scriptpubkey": "5120bdd5946f4e79fddebf8f2efd9991ddc870070b33acf488c279d7d2258eb0b050",
      "scriptpubkey_asm": "OP_PUSHNUM_1 OP_PUSHBYTES_32 bdd5946f4e79fddebf8f2efd9991ddc870070b33acf488c279d7d2258eb0b050",
      "scriptpubkey_type": "v1_p2tr",
      "scriptpubkey_address": "bc1phh2egm6w087aa0u09m7enywaepcqwzen4n6g3sne6lfztr4skpgqp8r4hw",
      "value": 600
    },
    {
      "scriptpubkey": "5120bdd5946f4e79fddebf8f2efd9991ddc870070b33acf488c279d7d2258eb0b050",
      "scriptpubkey_asm": "OP_PUSHNUM_1 OP_PUSHBYTES_32 bdd5946f4e79fddebf8f2efd9991ddc870070b33acf488c279d7d2258eb0b050",
      "scriptpubkey_type": "v1_p2tr",
      "scriptpubkey_address": "bc1phh2egm6w087aa0u09m7enywaepcqwzen4n6g3sne6lfztr4skpgqp8r4hw",
      "value": 393837
    }
  ],
  "size": 702,
  "weight": 1998,
  "fee": 7232,
  "status": {
    "confirmed": true,
    "block_height": 834460,
    "block_hash": "00000000000000000000484a79b643b2524bbce82e5d8a442013fa5b8905ed98",
    "block_time": 1710307468
  },
  "hex": "020000000001048d227c3f79f8af14db7f2cc896a9b6e55805329090582bdfd57cf7385cb024570000000000ffffffff8d227c3f79f8af14db7f2cc896a9b6e55805329090582bdfd57cf7385cb024570100000000ffffffff38527d94931412df956ab3fa447d830315fd24aa1ed8495542d2e3e74a98dbce0300000000ffffffff8d227c3f79f8af14db7f2cc896a9b6e55805329090582bdfd57cf7385cb024570200000000ffffffff06b004000000000000225120bdd5946f4e79fddebf8f2efd9991ddc870070b33acf488c279d7d2258eb0b0502202000000000000225120bdd5946f4e79fddebf8f2efd9991ddc870070b33acf488c279d7d2258eb0b05020ad050000000000225120e72ef158230987f0c084c5c2d02f9f2679c12c9f061e4dc91330dc8faee216ac5802000000000000225120bdd5946f4e79fddebf8f2efd9991ddc870070b33acf488c279d7d2258eb0b0505802000000000000225120bdd5946f4e79fddebf8f2efd9991ddc870070b33acf488c279d7d2258eb0b0506d02060000000000225120bdd5946f4e79fddebf8f2efd9991ddc870070b33acf488c279d7d2258eb0b05001417cecf7e793a44bdea5220d5a521667b3f23672e1184ad231481faac03804882206112b6372ec00c9916aa8deaa2461dc950ccf8702eb737d592b6ca63a007c030101417541dd9939892fd8d6de4504ca9fe749d06bddabccfb19d38f481e4f63efa1e28c94c4319e46aa9410d1ba4d02138c79912a2efffa8458e54f86e638b39306a5010141a1015ad1df816e8c6d8747e72cd796d801809078c63add83d3268fe41b8baddb25ff237dd1018ffdcff73a40f6859de1c3abf530c27fd72d1c729a9dc32c161f8301416175b3700ceee35c3bc2bb4acc3b238c0a695e554c29bdb4c8197c4fd774bbd189692a67bf78193e72a38bcd82fe1ad39628f403c4d7a64c688a11065641a0580100000000"
}