{
  "txid": "d15229547c87b42528ee4780606a14d0928dd0328142e5f3bdd924b8fb6ec7d4",
  "version": 1,
  "locktime": 0,
  "vin": [
    {
      "txid": "dad60c8a338ab90c918c955ac2d736f1d156b81777d8a708526ef43dde182d1a",
      "vout": 1,
      "prevout": {
        "scriptpubkey": "a9149a6b340cac30d1c857df0474410cd45d0576d1cf87",
        "scriptpubkey_asm": "OP_HASH160 OP_PUSHBYTES_20 9a6b340cac30d1c857df0474410cd45d0576d1cf OP_EQUAL",
        "scriptpubkey_type": "p2sh",
        "scriptpubkey_address": "3FmWQhiQojS4eg1ep2jVP2QtzNoAczdaii",
        "value": 42613446
      },
      "scriptsig": "160014c47de77fbd8005e16fce77e7e79468473603713f",
      "scriptsig_asm": "OP_PUSHBYTES_22 0014c47de77fbd8005e16fce77e7e79468473603713f",
      "witness": [
        "30440220171f517f152291d5a92cb2bc18d505706ed9811930c0873b60253220b48f30e702202a52e23948da36ea009b7b2c738b5215bc53a73869e3736fc44859cd0805939e01",
        "039d622c5ff075e6b244f5913ffe5fc9b5e8f284a202fd95c93de5ef4b947ce86e"
      ],
      "is_coinbase": false,
      "sequence": 4294967293,
      "inner_redeemscript_asm": "OP_0 OP_PUSHBYTES_20 c47de77fbd8005e16fce77e7e79468473603713f"
    }
  ],
  "vout": [
    {
      "scriptpubkey": "001438893c90a3bd43ef51de9887e9821b77d4d381e4",
      "scriptpubkey_asm": "OP_0 OP_PUSHBYTES_20 38893c90a3bd43ef51de9887e9821b77d4d381e4",
      "scriptpubkey_type": "v0_p2wpkh",
      "scriptpubkey_address": "bc1q8zyney9rh4p775w7nzr7nqsmwl2d8q0yv26d53",
      "value": 10000000
    },
    {
      "scriptpubkey": "a9141674683c497d9110d552b7eff7d616723631427687",
      "scriptpubkey_asm": "OP_HASH160 OP_PUSHBYTES_20 1674683c497d9110d552b7eff7d6167236314276 OP_EQUAL",
      "scriptpubkey_type": "p2sh",
      "scriptpubkey_address": "33jkEsm4KwB35FzBxkavyqvkQd5VgQLDms",
      "value": 32610146
    }
  ],
  "size": 246,
  "weight": 657,
  "fee": 3300,
  "status": {
    "confirmed": true,
    "block_height": 834638,
    "block_hash": "000000000000000000025f742c626208ac87e0b7d15054abb4a19ca2d735a54e",
    "block_time": 1710405325
  },
  "hex": "010000000001011a2d18de3df46e5208a7d87717b856d1f136d7c25a958c910cb98a338a0cd6da0100000017160014c47de77fbd8005e16fce77e7e79468473603713ffdffffff02809698000000000016001438893c90a3bd43ef51de9887e9821b77d4d381e46297f1010000000017a9141674683c497d9110d552b7eff7d616723631427687024730440220171f517f152291d5a92cb2bc18d505706ed9811930c0873b60253220b48f30e702202a52e23948da36ea009b7b2c738b5215bc53a73869e3736fc44859cd0805939e0121039d622c5ff075e6b244f5913ffe5fc9b5e8f284a202fd95c93de5ef4b947ce86e00000000"
}