{
  "txid": "d15bdf5d7798a4d842cd7abc494484c5060ba11aac6dae658232c01d76cf32a5",
  "version": 1,
  "locktime": 0,
  "vin": [
    {
      "txid": "b2891eba6f474cfdac716202efacafba1a7963f4942ba152bfe37d64bbe76f6a",
      "vout": 3368,
      "prevout": {
        "scriptpubkey": "0014d9256aed462b4bcb1a59cdc41ed01cef2a7fa29d",
        "scriptpubkey_asm": "OP_0 OP_PUSHBYTES_20 d9256aed462b4bcb1a59cdc41ed01cef2a7fa29d",
        "scriptpubkey_type": "v0_p2wpkh",
        "scriptpubkey_address": "bc1qmyjk4m2x9d9ukxjeehzpa5quau48lg5agam0vz",
        "value": 506255
      },
      "scriptsig": "",
      "scriptsig_asm": "",
      "witness": [
        "3045022100be97df7679f334753660c5dc9719dcda090e4048bb80a19ba5c97f60d5ed50da022076a3c11300084d054ceeb4d4baacc0f1c55eeb2ccb9f95e1c34aab0f9a2de22701",
        "03e00a4c0b6e6d1b042bf07593e2039c7492e9ad3f26b9089e63e423f7b8edba8c"
      ],
      "is_coinbase": false,
      "sequence": 4294967295
    }
  ],
  "vout": [
    {
      "scriptpubkey": "0014467ff3f97690e9d45261700527a778c701c761dc",
      "scriptpubkey_asm": "OP_0 OP_PUSHBYTES_20 467ff3f97690e9d45261700527a778c701c761dc",
      "scriptpubkey_type": "v0_p2wpkh",
      "scriptpubkey_address": "bc1qgell87tkjr5ag5npwqzj0fmccuquwcwuu6g0w0",
      "value": 503285
    }
  ],
  "size": 192,
  "weight": 438,
  "fee": 2970,
  "status": {
    "confirmed": true,
    "block_height": 834638,
    "block_hash": "000000000000000000025f742c626208ac87e0b7d15054abb4a19ca2d735a54e",
    "block_time": 1710405325
  },
  "hex": "010000000001016a6fe7bb647de3bf52a12b94f463791abaafacef026271acfd4c476fba1e89b2280d000000ffffffff01f5ad070000000000160014467ff3f97690e9d45261700527a778c701c761dc02483045022100be97df7679f334753660c5dc9719dcda090e4048bb80a19ba5c97f60d5ed50da022076a3c11300084d054ceeb4d4baacc0f1c55eeb2ccb9f95e1c34aab0f9a2de227012103e00a4c0b6e6d1b042bf07593e2039c7492e9ad3f26b9089e63e423f7b8edba8c00000000"
}