{
  "txid": "d175178c5df2ee708924be190724ec5f3bf7a34395a42c8a473fa98c67e5ab29",
  "version": 2,
  "locktime": 834637,
  "vin": [
    {
      "txid": "f39beceb4183449bb05898dc4f55e363c639e4ee184fe4efc7109dbf042823c5",
      "vout": 15,
      "prevout": {
        "scriptpubkey": "001473ee023c52d1486514fde984f3a6718ed0076a9d",
        "scriptpubkey_asm": "OP_0 OP_PUSHBYTES_20 73ee023c52d1486514fde984f3a6718ed0076a9d",
        "scriptpubkey_type": "v0_p2wpkh",
        "scriptpubkey_address": "bc1qw0hqy0zj69yx298aaxz08fn33mgqw65a23v9vf",
        "value": 374093
      },
      "scriptsig": "",
      "scriptsig_asm": "",
      "witness": [
        "3044022027ffd534a59a622f4260b40998f7240de1a01ffecb8c1215851dda9eb16310ca022043212dfafb3285740efd0b80929f5183abbd0754df91094575b88e1cc7cb62ea01",
        "0264d075a9b515246a2e4dfb951b48870a433c3c8b6ba497fd6848b1ebb2daee72"
      ],
      "is_coinbase": false,
      "sequence": 4294967293
    }
  ],
  "vout": [
    {
      "scriptpubkey": "a9140896c84c176b337d948fe987c5f112bd5c98a27687",
      "scriptpubkey_asm": "OP_HASH160 OP_PUSHBYTES_20 0896c84c176b337d948fe987c5f112bd5c98a276 OP_EQUAL",
      "scriptpubkey_type": "p2sh",
      "scriptpubkey_address": "32URxd9LSFa4NzRAwa24Pf2cAwu4KeRjcS",
      "value": 372019
    }
  ],
  "size": 192,
  "weight": 441,
  "fee": 2074,
  "status": {
    "confirmed": true,
    "block_height": 834638,
    "block_hash": "000000000000000000025f742c626208ac87e0b7d15054abb4a19ca2d735a54e",
    "block_time": 1710405325
  },
  "hex": "02000000000101c5232804bf9d10c7efe44f18eee439c663e3554fdc9858b09b448341ebec9bf30f00000000fdffffff0133ad05000000000017a9140896c84c176b337d948fe987c5f112bd5c98a2768702473044022027ffd534a59a622f4260b40998f7240de1a01ffecb8c1215851dda9eb16310ca022043212dfafb3285740efd0b80929f5183abbd0754df91094575b88e1cc7cb62ea01210264d075a9b515246a2e4dfb951b48870a433c3c8b6ba497fd6848b1ebb2daee724dbc0c00"
}