{
  "txid": "d17c2beda41c5e4d75813937ba1562d7c3092855711b60a476ced4bea19daa1b",
  "version": 1,
  "locktime": 0,
  "vin": [
    {
      "txid": "642b14ee95d8fb9a2281b440c254fd7a609dc7673f885a1f2099c58e6c82e671",
      "vout": 0,
      "prevout": {
        "scriptpubkey": "00144639af50cc9b5fcc4fc09644c0140078b2d2356c",
        "scriptpubkey_asm": "OP_0 OP_PUSHBYTES_20 4639af50cc9b5fcc4fc09644c0140078b2d2356c",
        "scriptpubkey_type": "v0_p2wpkh",
        "scriptpubkey_address": "bc1qgcu675xvnd0ucn7qjezvq9qq0zedydtv07pqxg",
        "value": 546
      },
      "scriptsig": "",
      "scriptsig_asm": "",
      "witness": [
        "3045022100f0ab01281e312a3a8c61051de271cfd2ca0315668ea13c568064ebb74b8bbd8f0220273f7ff820fa802511d9df6f6fb743e0d25dc2498206125128c761d5d034979e01",
        "02bb0543170d1752bfb0d173724effdc58a708c53d5154e56364e6cb19fd993a73"
      ],
      "is_coinbase": false,
      "sequence": 4294967293
    },
    {
      "txid": "251b4aadb1980128906449bcc82b5eb098226ae6583dc68fcabd4828eaeac4ff",
      "vout": 1,
      "prevout": {
        "scriptpubkey": "00144639af50cc9b5fcc4fc09644c0140078b2d2356c",
        "scriptpubkey_asm": "OP_0 OP_PUSHBYTES_20 4639af50cc9b5fcc4fc09644c0140078b2d2356c",
        "scriptpubkey_type": "v0_p2wpkh",
        "scriptpubkey_address": "bc1qgcu675xvnd0ucn7qjezvq9qq0zedydtv07pqxg",
        "value": 378472
      },
      "scriptsig": "",
      "scriptsig_asm": "",
      "witness": [
        "30440220246c83fc98c7f5e55514438865097d77b48d7bf35be8bb69d15c5d48b0e92d5402204c62ab72e6d0fa4d09064601b2c8870c189f6f1328170ce8fbda96b20021c62701",
        "02bb0543170d1752bfb0d173724effdc58a708c53d5154e56364e6cb19fd993a73"
      ],
      "is_coinbase": false,
      "sequence": 4294967293
    }
  ],
  "vout": [
    {
      "scriptpubkey": "001403aeb9e7c4672bbf569a5cf11ee7b3b40662cb13",
      "scriptpubkey_asm": "OP_0 OP_PUSHBYTES_20 03aeb9e7c4672bbf569a5cf11ee7b3b40662cb13",
      "scriptpubkey_type": "v0_p2wpkh",
      "scriptpubkey_address": "bc1qqwhtne7yvu4m7456tnc3aeanksrx9jcnux2rey",
      "value": 546
    },
    {
      "scriptpubkey": "00144639af50cc9b5fcc4fc09644c0140078b2d2356c",
      "scriptpubkey_asm": "OP_0 OP_PUSHBYTES_20 4639af50cc9b5fcc4fc09644c0140078b2d2356c",
      "scriptpubkey_type": "v0_p2wpkh",
      "scriptpubkey_address": "bc1qgcu675xvnd0ucn7qjezvq9qq0zedydtv07pqxg",
      "value": 373808
    }
  ],
  "size": 371,
  "weight": 833,
  "fee": 4664,
  "status": {
    "confirmed": true,
    "block_height": 834460,
    "block_hash": "00000000000000000000484a79b643b2524bbce82e5d8a442013fa5b8905ed98",
    "block_time": 1710307468
  },
  "hex": "0100000000010271e6826c8ec599201f5a883f67c79d607afd54c240b481229afbd895ee142b640000000000fdffffffffc4eaea2848bdca8fc63d58e66a2298b05e2bc8bc496490280198b1ad4a1b250100000000fdffffff02220200000000000016001403aeb9e7c4672bbf569a5cf11ee7b3b40662cb1330b40500000000001600144639af50cc9b5fcc4fc09644c0140078b2d2356c02483045022100f0ab01281e312a3a8c61051de271cfd2ca0315668ea13c568064ebb74b8bbd8f0220273f7ff820fa802511d9df6f6fb743e0d25dc2498206125128c761d5d034979e012102bb0543170d1752bfb0d173724effdc58a708c53d5154e56364e6cb19fd993a73024730440220246c83fc98c7f5e55514438865097d77b48d7bf35be8bb69d15c5d48b0e92d5402204c62ab72e6d0fa4d09064601b2c8870c189f6f1328170ce8fbda96b20021c627012102bb0543170d1752bfb0d173724effdc58a708c53d5154e56364e6cb19fd993a7300000000"
}