{
  "txid": "d180fa0e6dab18bd85f4b50172ec81eefcc4fd0a71c4b4849b3ccdbf49c216f8",
  "version": 2,
  "locktime": 0,
  "vin": [
    {
      "txid": "d74a869427d1a3a521fe02ce475fadee3b38b394290d8c7301782bf2139a70b3",
      "vout": 0,
      "prevout": {
        "scriptpubkey": "0014abc152b0bff54b5d9912659c8a7431eaf3a9642d",
        "scriptpubkey_asm": "OP_0 OP_PUSHBYTES_20 abc152b0bff54b5d9912659c8a7431eaf3a9642d",
        "scriptpubkey_type": "v0_p2wpkh",
        "scriptpubkey_address": "bc1q40q49v9l7494mxgjvkwg5ap3ate6jepdnglwlp",
        "value": 25000
      },
      "scriptsig": "",
      "scriptsig_asm": "",
      "witness": [
        "304402202006b5a3c800b484b93b1528abad08c47eb9c7d59c858654c8a8d93a116aaa3a02202eb695e43862c16ca3bdd9c23c39778b3a0b681dd88f4166fc02ebca267c824f01",
        "0370c7d6adb0429e23494f8d705d0cff76fa45e6d2777caaf2499a4bb3a8d2db92"
      ],
      "is_coinbase": false,
      "sequence": 4294967295
    },
    {
      "txid": "70f7c66769e818b0a679d40f6de6ddae4db58e2fc380e1ff1da3adb339de25cd",
      "vout": 2,
      "prevout": {
        "scriptpubkey": "0014abc152b0bff54b5d9912659c8a7431eaf3a9642d",
        "scriptpubkey_asm": "OP_0 OP_PUSHBYTES_20 abc152b0bff54b5d9912659c8a7431eaf3a9642d",
        "scriptpubkey_type": "v0_p2wpkh",
        "scriptpubkey_address": "bc1q40q49v9l7494mxgjvkwg5ap3ate6jepdnglwlp",
        "value": 25000
      },
      "scriptsig": "",
      "scriptsig_asm": "",
      "witness": [
        "30440220237db57b24db1c0897a34afc00850be39ab1b9bfb6c74c83de5dd88923d03b4d02206526d04cbfc033d1447870b1cf76e77e4a143298f22e2502475784344e25c39201",
        "0370c7d6adb0429e23494f8d705d0cff76fa45e6d2777caaf2499a4bb3a8d2db92"
      ],
      "is_coinbase": false,
      "sequence": 4294967295
    },
    {
      "txid": "8869fc59a9a355817304af74234a7709f8ebd0ade17529e05f4ba9e1216827d1",
      "vout": 0,
      "prevout": {
        "scriptpubkey": "0014abc152b0bff54b5d9912659c8a7431eaf3a9642d",
        "scriptpubkey_asm": "OP_0 OP_PUSHBYTES_20 abc152b0bff54b5d9912659c8a7431eaf3a9642d",
        "scriptpubkey_type": "v0_p2wpkh",
        "scriptpubkey_address": "bc1q40q49v9l7494mxgjvkwg5ap3ate6jepdnglwlp",
        "value": 25000
      },
      "scriptsig": "",
      "scriptsig_asm": "",
      "witness": [
        "3045022100da82816dba423e6bb055cdffec29fec01a09c62c12585f88a4ecd0299c7f335e02203708793c069a872ad716e6c602c380d219508eec11d9f1fe7c425673b436caf701",
        "0370c7d6adb0429e23494f8d705d0cff76fa45e6d2777caaf2499a4bb3a8d2db92"
      ],
      "is_coinbase": false,
      "sequence": 4294967295
    },
    {
      "txid": "737d1716f26d46edd3242c87f887cf9827027391604c8472cb38197ce8b54881",
      "vout": 0,
      "prevout": {
        "scriptpubkey": "0014abc152b0bff54b5d9912659c8a7431eaf3a9642d",
        "scriptpubkey_asm": "OP_0 OP_PUSHBYTES_20 abc152b0bff54b5d9912659c8a7431eaf3a9642d",
        "scriptpubkey_type": "v0_p2wpkh",
        "scriptpubkey_address": "bc1q40q49v9l7494mxgjvkwg5ap3ate6jepdnglwlp",
        "value": 25000
      },
      "scriptsig": "",
      "scriptsig_asm": "",
      "witness": [
        "3045022100b4f0ebfffe541d8211e5ff8f5d4fbe06f12e6ccd0766e3793798da89e32e9f1e02202102f852ae0b25d0e781a38c30ac9f5c7a8c79be1849153008852cf77398ce1b01",
        "0370c7d6adb0429e23494f8d705d0cff76fa45e6d2777caaf2499a4bb3a8d2db92"
      ],
      "is_coinbase": false,
      "sequence": 4294967295
    },
    {
      "txid": "84419beecd026615bde1d86656fa57951c798816e18d700aa264772701dbc3de",
      "vout": 2,
      "prevout": {
        "scriptpubkey": "0014abc152b0bff54b5d9912659c8a7431eaf3a9642d",
        "scriptpubkey_asm": "OP_0 OP_PUSHBYTES_20 abc152b0bff54b5d9912659c8a7431eaf3a9642d",
        "scriptpubkey_type": "v0_p2wpkh",
        "scriptpubkey_address": "bc1q40q49v9l7494mxgjvkwg5ap3ate6jepdnglwlp",
        "value": 25000
      },
      "scriptsig": "",
      "scriptsig_asm": "",
      "witness": [
        "304402205227def36b0e3aa4628d1e9d4bba106561cf7432f50ce5d19600d6e15772eb4002205f9caf7f3dbcdfd44942571f8c853f321a6647d305fb46c7ba5542ac7fb9da4d01",
        "0370c7d6adb0429e23494f8d705d0cff76fa45e6d2777caaf2499a4bb3a8d2db92"
      ],
      "is_coinbase": false,
      "sequence": 4294967295
    },
    {
      "txid": "67f36b577f65933ae94ea7b2e64f7f34989c0f069ea1b89ff2a1502b2a0f0e7b",
      "vout": 2,
      "prevout": {
        "scriptpubkey": "0014abc152b0bff54b5d9912659c8a7431eaf3a9642d",
        "scriptpubkey_asm": "OP_0 OP_PUSHBYTES_20 abc152b0bff54b5d9912659c8a7431eaf3a9642d",
        "scriptpubkey_type": "v0_p2wpkh",
        "scriptpubkey_address": "bc1q40q49v9l7494mxgjvkwg5ap3ate6jepdnglwlp",
        "value": 25000
      },
      "scriptsig": "",
      "scriptsig_asm": "",
      "witness": [
        "304402207cd846125a26d69476f5caf8c797a553c895e49fa646323ff57fe146a99b21bc02203f7251abca64e8fa17a233d07b56fe99469d0943eda21d1729ba2e136aeffee901",
        "0370c7d6adb0429e23494f8d705d0cff76fa45e6d2777caaf2499a4bb3a8d2db92"
      ],
      "is_coinbase": false,
      "sequence": 4294967295
    },
    {
      "txid": "17c8ac821d58dd5712733044e17c333b5cdc801dd30e4624b264f9fd09eda323",
      "vout": 0,
      "prevout": {
        "scriptpubkey": "0014abc152b0bff54b5d9912659c8a7431eaf3a9642d",
        "scriptpubkey_asm": "OP_0 OP_PUSHBYTES_20 abc152b0bff54b5d9912659c8a7431eaf3a9642d",
        "scriptpubkey_type": "v0_p2wpkh",
        "scriptpubkey_address": "bc1q40q49v9l7494mxgjvkwg5ap3ate6jepdnglwlp",
        "value": 25000
      },
      "scriptsig": "",
      "scriptsig_asm": "",
      "witness": [
        "3045022100ad6704570b9a509ad068bf047db4aaecc416c58be792a797a18eef31ab80326c02202901c2a6309ed62d7c53e5908855ef08ef4edf0ca097126b817043aa38ebbcb001",
        "0370c7d6adb0429e23494f8d705d0cff76fa45e6d2777caaf2499a4bb3a8d2db92"
      ],
      "is_coinbase": false,
      "sequence": 4294967295
    },
    {
      "txid": "9420d45d6d6891fa333d259ed68ee23ad9a15f64b8d3a2640125e34a2e334c51",
      "vout": 0,
      "prevout": {
        "scriptpubkey": "0014abc152b0bff54b5d9912659c8a7431eaf3a9642d",
        "scriptpubkey_asm": "OP_0 OP_PUSHBYTES_20 abc152b0bff54b5d9912659c8a7431eaf3a9642d",
        "scriptpubkey_type": "v0_p2wpkh",
        "scriptpubkey_address": "bc1q40q49v9l7494mxgjvkwg5ap3ate6jepdnglwlp",
        "value": 25000
      },
      "scriptsig": "",
      "scriptsig_asm": "",
      "witness": [
        "3045022100af02c0ce8c79e43d6f3b9afc621f9ef9b8a39ed636388778822471536a81c61002203f7aa0c0bd6fa4efe475eaa68463c954d2cd8231d8239b816d12e4bbe8b10b7c01",
        "0370c7d6adb0429e23494f8d705d0cff76fa45e6d2777caaf2499a4bb3a8d2db92"
      ],
      "is_coinbase": false,
      "sequence": 4294967295
    },
    {
      "txid": "ddf30a11760b9c974b07ef6fc1aa1bb9f221319c845dec830fcecd836ca22d9a",
      "vout": 0,
      "prevout": {
        "scriptpubkey": "0014abc152b0bff54b5d9912659c8a7431eaf3a9642d",
        "scriptpubkey_asm": "OP_0 OP_PUSHBYTES_20 abc152b0bff54b5d9912659c8a7431eaf3a9642d",
        "scriptpubkey_type": "v0_p2wpkh",
        "scriptpubkey_address": "bc1q40q49v9l7494mxgjvkwg5ap3ate6jepdnglwlp",
        "value": 25000
      },
      "scriptsig": "",
      "scriptsig_asm": "",
      "witness": [
        "30450221009fd3ebd09dce3dd976f1860d46a381219728a08c0406a3672194a564ba67fc8802205a0d57531ac4ea0db8d88fe35b08954fdea8c935309bcd593a2d29dc984ac4bc01",
        "0370c7d6adb0429e23494f8d705d0cff76fa45e6d2777caaf2499a4bb3a8d2db92"
      ],
      "is_coinbase": false,
      "sequence": 4294967295
    }
  ],
  "vout": [
    {
      "scriptpubkey": "0014419854753506f2b3e771860f36eb919d89cc890f",
      "scriptpubkey_asm": "OP_0 OP_PUSHBYTES_20 419854753506f2b3e771860f36eb919d89cc890f",
      "scriptpubkey_type": "v0_p2wpkh",
      "scriptpubkey_address": "bc1qgxv9gaf4qmet8em3sc8nd6u3nkyuezg0cg9p36",
      "value": 2222
    },
    {
      "scriptpubkey": "0014c3da1e98f377468b1dc302483d79507b75b62ce2",
      "scriptpubkey_asm": "OP_0 OP_PUSHBYTES_20 c3da1e98f377468b1dc302483d79507b75b62ce2",
      "scriptpubkey_type": "v0_p2wpkh",
      "scriptpubkey_address": "bc1qc0dpax8nwargk8wrqfyr672s0d6mvt8z0zj95y",
      "value": 213557
    }
  ],
  "size": 1411,
  "weight": 2734,
  "fee": 9221,
  "status": {
    "confirmed": true,
    "block_height": 834460,
    "block_hash": "00000000000000000000484a79b643b2524bbce82e5d8a442013fa5b8905ed98",
    "block_time": 1710307468
  },
  "hex": "02000000000109b3709a13f22b7801738c0d2994b3383beead5f47ce02fe21a5a3d12794864ad70000000000ffffffffcd25de39b3ada31dffe180c32f8eb54daedde66d0fd479a6b018e86967c6f7700200000000ffffffffd1276821e1a94b5fe02975e1add0ebf809774a2374af04738155a3a959fc69880000000000ffffffff8148b5e87c1938cb72844c609173022798cf87f8872c24d3ed466df216177d730000000000ffffffffdec3db01277764a20a708de11688791c9557fa5666d8e1bd156602cdee9b41840200000000ffffffff7b0e0f2a2b50a1f29fb8a19e060f9c98347f4fe6b2a74ee93a93657f576bf3670200000000ffffffff23a3ed09fdf964b224460ed31d80dc5c3b337ce14430731257dd581d82acc8170000000000ffffffff514c332e4ae3250164a2d3b8645fa1d93ae28ed69e253d33fa91686d5dd420940000000000ffffffff9a2da26c83cdce0f83ec5d849c3121f2b91baac16fef074b979c0b76110af3dd0000000000ffffffff02ae08000000000000160014419854753506f2b3e771860f36eb919d89cc890f3542030000000000160014c3da1e98f377468b1dc302483d79507b75b62ce20247304402202006b5a3c800b484b93b1528abad08c47eb9c7d59c858654c8a8d93a116aaa3a02202eb695e43862c16ca3bdd9c23c39778b3a0b681dd88f4166fc02ebca267c824f01210370c7d6adb0429e23494f8d705d0cff76fa45e6d2777caaf2499a4bb3a8d2db92024730440220237db57b24db1c0897a34afc00850be39ab1b9bfb6c74c83de5dd88923d03b4d02206526d04cbfc033d1447870b1cf76e77e4a143298f22e2502475784344e25c39201210370c7d6adb0429e23494f8d705d0cff76fa45e6d2777caaf2499a4bb3a8d2db9202483045022100da82816dba423e6bb055cdffec29fec01a09c62c12585f88a4ecd0299c7f335e02203708793c069a872ad716e6c602c380d219508eec11d9f1fe7c425673b436caf701210370c7d6adb0429e23494f8d705d0cff76fa45e6d2777caaf2499a4bb3a8d2db9202483045022100b4f0ebfffe541d8211e5ff8f5d4fbe06f12e6ccd0766e3793798da89e32e9f1e02202102f852ae0b25d0e781a38c30ac9f5c7a8c79be1849153008852cf77398ce1b01210370c7d6adb0429e23494f8d705d0cff76fa45e6d2777caaf2499a4bb3a8d2db920247304402205227def36b0e3aa4628d1e9d4bba106561cf7432f50ce5d19600d6e15772eb4002205f9caf7f3dbcdfd44942571f8c853f321a6647d305fb46c7ba5542ac7fb9da4d01210370c7d6adb0429e23494f8d705d0cff76fa45e6d2777caaf2499a4bb3a8d2db920247304402207cd846125a26d69476f5caf8c797a553c895e49fa646323ff57fe146a99b21bc02203f7251abca64e8fa17a233d07b56fe99469d0943eda21d1729ba2e136aeffee901210370c7d6adb0429e23494f8d705d0cff76fa45e6d2777caaf2499a4bb3a8d2db9202483045022100ad6704570b9a509ad068bf047db4aaecc416c58be792a797a18eef31ab80326c02202901c2a6309ed62d7c53e5908855ef08ef4edf0ca097126b817043aa38ebbcb001210370c7d6adb0429e23494f8d705d0cff76fa45e6d2777caaf2499a4bb3a8d2db9202483045022100af02c0ce8c79e43d6f3b9afc621f9ef9b8a39ed636388778822471536a81c61002203f7aa0c0bd6fa4efe475eaa68463c954d2cd8231d8239b816d12e4bbe8b10b7c01210370c7d6adb0429e23494f8d705d0cff76fa45e6d2777caaf2499a4bb3a8d2db92024830450221009fd3ebd09dce3dd976f1860d46a381219728a08c0406a3672194a564ba67fc8802205a0d57531ac4ea0db8d88fe35b08954fdea8c935309bcd593a2d29dc984ac4bc01210370c7d6adb0429e23494f8d705d0cff76fa45e6d2777caaf2499a4bb3a8d2db9200000000"
}