{
  "txid": "d193910eccbadf22c24063830fd18dc08d55b1ffba1c008b53522061d63d613a",
  "version": 2,
  "locktime": 0,
  "vin": [
    {
      "txid": "ca49732a8789b812361e997512b66bc3787f1e3ff39f5f0d8b845e09438043f6",
      "vout": 6,
      "prevout": {
        "scriptpubkey": "5120d6583245acfe183a86e59b9e508b0a1fd0b8460650fc4b16ec788eb568a84bea",
        "scriptpubkey_asm": "OP_PUSHNUM_1 OP_PUSHBYTES_32 d6583245acfe183a86e59b9e508b0a1fd0b8460650fc4b16ec788eb568a84bea",
        "scriptpubkey_type": "v1_p2tr",
        "scriptpubkey_address": "bc1p6evry3dvlcvr4ph9nw09pzc2rlgts3sx2r7yk9hv0z8t269gf04q7edura",
        "value": 2066
      },
      "scriptsig": "",
      "scriptsig_asm": "",
      "witness": [
        "02c8c107dd994a91365372399871f8d86468c83f734558a83bcae8261ca6ab53868a6be259edf11434c2ab3511146df0ae03ef8a43c8bbea6387ef1ccdb2643b",
        "20137f0ee0da3070e92380d98ec9fab288f81b194062d3df3f085d14d60dd61dacac0063036f726401010a746578742f706c61696e00367b2270223a226272632d3230222c226f70223a226d696e74222c227469636b223a2261616161222c22616d74223a223130303030227d68",
        "c1137f0ee0da3070e92380d98ec9fab288f81b194062d3df3f085d14d60dd61dac"
      ],
      "is_coinbase": false,
      "sequence": 4261412863
    }
  ],
  "vout": [
    {
      "scriptpubkey": "0014b12a255b419b46c01324705abea5fd2949f55051",
      "scriptpubkey_asm": "OP_0 OP_PUSHBYTES_20 b12a255b419b46c01324705abea5fd2949f55051",
      "scriptpubkey_type": "v0_p2wpkh",
      "scriptpubkey_address": "bc1qky4z2k6pndrvqyeywpdtaf0a99yl25z3zp84r6",
      "value": 294
    }
  ],
  "size": 295,
  "weight": 541,
  "fee": 1772,
  "status": {
    "confirmed": true,
    "block_height": 834460,
    "block_hash": "00000000000000000000484a79b643b2524bbce82e5d8a442013fa5b8905ed98",
    "block_time": 1710307468
  },
  "hex": "02000000000101f6438043095e848b0d5f9ff33f1e7f78c36bb61275991e3612b889872a7349ca0600000000fffffffd012601000000000000160014b12a255b419b46c01324705abea5fd2949f55051034002c8c107dd994a91365372399871f8d86468c83f734558a83bcae8261ca6ab53868a6be259edf11434c2ab3511146df0ae03ef8a43c8bbea6387ef1ccdb2643b6e20137f0ee0da3070e92380d98ec9fab288f81b194062d3df3f085d14d60dd61dacac0063036f726401010a746578742f706c61696e00367b2270223a226272632d3230222c226f70223a226d696e74222c227469636b223a2261616161222c22616d74223a223130303030227d6821c1137f0ee0da3070e92380d98ec9fab288f81b194062d3df3f085d14d60dd61dac00000000"
}