{
  "txid": "d1e1bce3634ccf7d4cdf1253338818a413904af68d0d118e24f691bb3aea912d",
  "version": 2,
  "locktime": 834462,
  "vin": [
    {
      "txid": "23042ae487a09a15e2ec0ae325959f5a302a30ceb1f998dfd82c4b7426ba0c6b",
      "vout": 1,
      "prevout": {
        "scriptpubkey": "0014a5e600f330428754337d7365c9271348297c6d02",
        "scriptpubkey_asm": "OP_0 OP_PUSHBYTES_20 a5e600f330428754337d7365c9271348297c6d02",
        "scriptpubkey_type": "v0_p2wpkh",
        "scriptpubkey_address": "bc1q5hnqpuesg2r4gvmawdjujfcnfq5hcmgzufqx2u",
        "value": 167912844
      },
      "scriptsig": "",
      "scriptsig_asm": "",
      "witness": [
        "3044022051abde919f0fb04ee2b7db4af966c027a7bf9499d7f9e7e9a24db460510ab8cd02207cd9007a2de5567cc16e153035f828b91a5d0fe010bc9cf1945ac13b58310b8501",
        "0298c09d9720840bab2f112d10cccb6f9a0e3fbd29ffdca55a900f90def0c24487"
      ],
      "is_coinbase": false,
      "sequence": 4294967294
    }
  ],
  "vout": [
    {
      "scriptpubkey": "0014ea409863ba498f98be468f00c018fa718728d109",
      "scriptpubkey_asm": "OP_0 OP_PUSHBYTES_20 ea409863ba498f98be468f00c018fa718728d109",
      "scriptpubkey_type": "v0_p2wpkh",
      "scriptpubkey_address": "bc1qafqfsca6fx8e30jx3uqvqx86wxrj35gfzam0hh",
      "value": 166929435
    },
    {
      "scriptpubkey": "0014b70a5a0b93b00b40e4cdef95cd6f804f5b8cbed9",
      "scriptpubkey_asm": "OP_0 OP_PUSHBYTES_20 b70a5a0b93b00b40e4cdef95cd6f804f5b8cbed9",
      "scriptpubkey_type": "v0_p2wpkh",
      "scriptpubkey_address": "bc1qku995zunkq95pexda72u6muqfadce0kerks3xl",
      "value": 980300
    }
  ],
  "size": 222,
  "weight": 561,
  "fee": 3109,
  "status": {
    "confirmed": true,
    "block_height": 834464,
    "block_hash": "0000000000000000000177a0869a911a2b65c9bdcd5a8bcb02b68f305bee848e",
    "block_time": 1710308296
  },
  "hex": "020000000001016b0cba26744b2cd8df98f9b1ce302a305a9f9525e30aece2159aa087e42a04230100000000feffffff021b24f30900000000160014ea409863ba498f98be468f00c018fa718728d1094cf50e0000000000160014b70a5a0b93b00b40e4cdef95cd6f804f5b8cbed902473044022051abde919f0fb04ee2b7db4af966c027a7bf9499d7f9e7e9a24db460510ab8cd02207cd9007a2de5567cc16e153035f828b91a5d0fe010bc9cf1945ac13b58310b8501210298c09d9720840bab2f112d10cccb6f9a0e3fbd29ffdca55a900f90def0c244879ebb0c00"
}