{
  "txid": "d1e78f0babf79268778d6cf15aa5d366487bf62287ff001003a4ca8efb704d87",
  "version": 2,
  "locktime": 834637,
  "vin": [
    {
      "txid": "aabf894a815ca072db22e11b6b296980c73efc1ff097e7a33a873b340e1e8cfe",
      "vout": 0,
      "prevout": {
        "scriptpubkey": "00145a861d589e77879ef00371bbab4156e225c61c5b",
        "scriptpubkey_asm": "OP_0 OP_PUSHBYTES_20 5a861d589e77879ef00371bbab4156e225c61c5b",
        "scriptpubkey_type": "v0_p2wpkh",
        "scriptpubkey_address": "bc1qt2rp6ky7w7reauqrwxa6ks2kugjuv8zmdc9lh2",
        "value": 273986098
      },
      "scriptsig": "",
      "scriptsig_asm": "",
      "witness": [
        "3044022024d7cf71b8c5754744d4be7ea19c0fe4d24d9236392262151be2714df21c5c5002202910b8cd7802cf1860bc7a063cccfc3113c27578e2836e7ae13158d0d0614e4e01",
        "029646cee3863e391d27526db2757ade3c1c2d368aaa8dfe3cc5fce4ec9943ed28"
      ],
      "is_coinbase": false,
      "sequence": 4294967294
    }
  ],
  "vout": [
    {
      "scriptpubkey": "a91486100920e28d84bb012cae035a5a718ab6edf60b87",
      "scriptpubkey_asm": "OP_HASH160 OP_PUSHBYTES_20 86100920e28d84bb012cae035a5a718ab6edf60b OP_EQUAL",
      "scriptpubkey_type": "p2sh",
      "scriptpubkey_address": "3DusgRfbbDbfSj8Y1JyQUth3Z1FpXPp9Wj",
      "value": 1926100
    },
    {
      "scriptpubkey": "0014128a7f34aeba10f4c0d578f38f3be3821e8e3516",
      "scriptpubkey_asm": "OP_0 OP_PUSHBYTES_20 128a7f34aeba10f4c0d578f38f3be3821e8e3516",
      "scriptpubkey_type": "v0_p2wpkh",
      "scriptpubkey_address": "bc1qz2987d9whgg0fsx40rec7wlrsg0gudgk5cac7l",
      "value": 272056518
    }
  ],
  "size": 223,
  "weight": 565,
  "fee": 3480,
  "status": {
    "confirmed": true,
    "block_height": 834638,
    "block_hash": "000000000000000000025f742c626208ac87e0b7d15054abb4a19ca2d735a54e",
    "block_time": 1710405325
  },
  "hex": "02000000000101fe8c1e0e343b873aa3e797f01ffc3ec78069296b1be122db72a05c814a89bfaa0000000000feffffff02d4631d000000000017a91486100920e28d84bb012cae035a5a718ab6edf60b87c640371000000000160014128a7f34aeba10f4c0d578f38f3be3821e8e351602473044022024d7cf71b8c5754744d4be7ea19c0fe4d24d9236392262151be2714df21c5c5002202910b8cd7802cf1860bc7a063cccfc3113c27578e2836e7ae13158d0d0614e4e0121029646cee3863e391d27526db2757ade3c1c2d368aaa8dfe3cc5fce4ec9943ed284dbc0c00"
}