{
  "txid": "d1eb125bda8110e193cfc13d2d25bbe9eb65dbc425b43c9a46fc6cb2b287d577",
  "version": 1,
  "locktime": 0,
  "vin": [
    {
      "txid": "c1ed81a25c8cad8a4b2f7884f8afb278485ee022ef8b5dcac3eb8e747983c73d",
      "vout": 11,
      "prevout": {
        "scriptpubkey": "0014694ea0fafa54556fc58747fe77d3b0fc71dd24ad",
        "scriptpubkey_asm": "OP_0 OP_PUSHBYTES_20 694ea0fafa54556fc58747fe77d3b0fc71dd24ad",
        "scriptpubkey_type": "v0_p2wpkh",
        "scriptpubkey_address": "bc1qd982p7h6232kl3v8gll805asl3ca6f9d520ey7",
        "value": 195804
      },
      "scriptsig": "",
      "scriptsig_asm": "",
      "witness": [
        "30440220741c3793b027900946b127fd27b66d4f1b5dd72b27951c54af035e01f9ba1817022010ad575bcb75c0d9d3b9efbde34dba7fe5e3b89f237e4adbbbe3f910606550a801",
        "03c087efa8721980a325ce52b836fe0574d1c7448afbd25791eefa0120f575946e"
      ],
      "is_coinbase": false,
      "sequence": 4294967295
    }
  ],
  "vout": [
    {
      "scriptpubkey": "a914dec98acc14db6c484d7a059918c20b854d7c4b2e87",
      "scriptpubkey_asm": "OP_HASH160 OP_PUSHBYTES_20 dec98acc14db6c484d7a059918c20b854d7c4b2e OP_EQUAL",
      "scriptpubkey_type": "p2sh",
      "scriptpubkey_address": "3N11NXTpB21h8utQwUxbd7rq765K1CuqwN",
      "value": 194139
    }
  ],
  "size": 192,
  "weight": 441,
  "fee": 1665,
  "status": {
    "confirmed": true,
    "block_height": 834460,
    "block_hash": "00000000000000000000484a79b643b2524bbce82e5d8a442013fa5b8905ed98",
    "block_time": 1710307468
  },
  "hex": "010000000001013dc78379748eebc3ca5d8bef22e05e4878b2aff884782f4b8aad8c5ca281edc10b00000000ffffffff015bf602000000000017a914dec98acc14db6c484d7a059918c20b854d7c4b2e87024730440220741c3793b027900946b127fd27b66d4f1b5dd72b27951c54af035e01f9ba1817022010ad575bcb75c0d9d3b9efbde34dba7fe5e3b89f237e4adbbbe3f910606550a8012103c087efa8721980a325ce52b836fe0574d1c7448afbd25791eefa0120f575946e00000000"
}