{
  "txid": "d1f2e56bb0b5c87466a28cf0fb59f1bc198978e6338eafb988f343191f77d743",
  "version": 2,
  "locktime": 0,
  "vin": [
    {
      "txid": "f1371a335f69042ed9a07edbae3f7a9ab4acdb9714dfe5a36510b75e7b14606d",
      "vout": 0,
      "prevout": {
        "scriptpubkey": "5120bb8d2a9a26a6be818823942084217dfd7ac4a2f7950dc250fa0a1b452ee3c0c6",
        "scriptpubkey_asm": "OP_PUSHNUM_1 OP_PUSHBYTES_32 bb8d2a9a26a6be818823942084217dfd7ac4a2f7950dc250fa0a1b452ee3c0c6",
        "scriptpubkey_type": "v1_p2tr",
        "scriptpubkey_address": "bc1phwxj4x3x56lgrzprjssgggtal4avfghhj5xuy586pgd52thrcrrq36dc3m",
        "value": 40907
      },
      "scriptsig": "",
      "scriptsig_asm": "",
      "witness": [
        "7a1a92370f445b84b7b37d0f5286ee5ad7bf38676998d2d81a1f75afcf9fec9fc91c4c1587390c8eaf0dc915dd76fef07476d17e973884b2fbb79e45dbe56a6f",
        "208057c0d51199858280f1f556eddbe243577e88a28777bdb38a683689c16c4c9cac0063036f726401010a746578742f706c61696e004c8f7b2270223a2022746170222c20226f70223a2022646d742d6d696e74222c2022646570223a2022333962373532343338626533613435326464623731376230613635346233313662316164343661383139656234343831383933626337313331663738396539616930222c20227469636b223a20226e61746f776c73222c2022626c6b223a2022373036323630227d68",
        "c08057c0d51199858280f1f556eddbe243577e88a28777bdb38a683689c16c4c9c"
      ],
      "is_coinbase": false,
      "sequence": 4294967293
    }
  ],
  "vout": [
    {
      "scriptpubkey": "51202c5c7b584418f7df16e266886880e520a408eb99881dc4d7bb8770bb5b3cbbc9",
      "scriptpubkey_asm": "OP_PUSHNUM_1 OP_PUSHBYTES_32 2c5c7b584418f7df16e266886880e520a408eb99881dc4d7bb8770bb5b3cbbc9",
      "scriptpubkey_type": "v1_p2tr",
      "scriptpubkey_address": "bc1p93w8kkzyrrma79hzv6yx3q89yzjq36ue3qwuf4amsactkkeuh0ysjzsu97",
      "value": 546
    },
    {
      "scriptpubkey": "51209a25f84dce8355583d00be8d848ef223583d607b5c07bd7ecac94501054768cb",
      "scriptpubkey_asm": "OP_PUSHNUM_1 OP_PUSHBYTES_32 9a25f84dce8355583d00be8d848ef223583d607b5c07bd7ecac94501054768cb",
      "scriptpubkey_type": "v1_p2tr",
      "scriptpubkey_address": "bc1pngjlsnwwsd24s0gqh6xcfrhjydvr6crmtsrm6lk2e9zszp28dr9s2mwtg0",
      "value": 3093
    },
    {
      "scriptpubkey": "51204721ad60641005445e5e053eda236a650a587ce62bcfa24ebd6023a00cd89b40",
      "scriptpubkey_asm": "OP_PUSHNUM_1 OP_PUSHBYTES_32 4721ad60641005445e5e053eda236a650a587ce62bcfa24ebd6023a00cd89b40",
      "scriptpubkey_type": "v1_p2tr",
      "scriptpubkey_address": "bc1pgus66cryzqz5ghj7q5ld5gm2v599sl8x9086yn4avq36qrxcndqq8xe653",
      "value": 3093
    },
    {
      "scriptpubkey": "5120f812d06ab1b297ca764639badfc01bb8df1c907de767a4ca6bf8c25c4743807d",
      "scriptpubkey_asm": "OP_PUSHNUM_1 OP_PUSHBYTES_32 f812d06ab1b297ca764639badfc01bb8df1c907de767a4ca6bf8c25c4743807d",
      "scriptpubkey_type": "v1_p2tr",
      "scriptpubkey_address": "bc1plqfdq643k2tu5ajx8xadlsqmhr03eyrauan6fjntlrp9c36rsp7s25dvpx",
      "value": 3093
    },
    {
      "scriptpubkey": "512091bb4513bfd581074d305c83ecd6ed24280f7bf0ef004642fec9336672f7ea6b",
      "scriptpubkey_asm": "OP_PUSHNUM_1 OP_PUSHBYTES_32 91bb4513bfd581074d305c83ecd6ed24280f7bf0ef004642fec9336672f7ea6b",
      "scriptpubkey_type": "v1_p2tr",
      "scriptpubkey_address": "bc1pjxa52yal6kqswnfstjp7e4hdys5q77lsauqyvsh7eyekvuhhaf4s2u5rz7",
      "value": 3093
    },
    {
      "scriptpubkey": "5120246a07637b1b2025ea71aaa9ca56503dfc9cb0e0576a5c69298da7361fff53ff",
      "scriptpubkey_asm": "OP_PUSHNUM_1 OP_PUSHBYTES_32 246a07637b1b2025ea71aaa9ca56503dfc9cb0e0576a5c69298da7361fff53ff",
      "scriptpubkey_type": "v1_p2tr",
      "scriptpubkey_address": "bc1py34qwcmmrvszt6n3425u54js8h7fev8q2a49c6ff3knnv8ll20ls5jy8l6",
      "value": 3093
    },
    {
      "scriptpubkey": "5120f8fd1dba95b588fe8df218d02402581aa45730fb19349d4adf4bf5f2f5755f59",
      "scriptpubkey_asm": "OP_PUSHNUM_1 OP_PUSHBYTES_32 f8fd1dba95b588fe8df218d02402581aa45730fb19349d4adf4bf5f2f5755f59",
      "scriptpubkey_type": "v1_p2tr",
      "scriptpubkey_address": "bc1plr73mw54kky0ar0jrrgzgqjcr2j9wv8mry6f6jklf06l9at4tavs2vdsfs",
      "value": 3093
    },
    {
      "scriptpubkey": "5120fe7922b2c47b2ed041f6a2f7d3e68d257a2a7ae7d5328a54e12a615d57ec6cea",
      "scriptpubkey_asm": "OP_PUSHNUM_1 OP_PUSHBYTES_32 fe7922b2c47b2ed041f6a2f7d3e68d257a2a7ae7d5328a54e12a615d57ec6cea",
      "scriptpubkey_type": "v1_p2tr",
      "scriptpubkey_address": "bc1pleuj9vky0vhdqs0k5tma8e5dy4az57h865eg548p9fs464lvdn4q2mkfcc",
      "value": 3093
    },
    {
      "scriptpubkey": "51201be83397d3b711e69ced47966ff81beb100c608f608a3bab45aefa4a4a6bc627",
      "scriptpubkey_asm": "OP_PUSHNUM_1 OP_PUSHBYTES_32 1be83397d3b711e69ced47966ff81beb100c608f608a3bab45aefa4a4a6bc627",
      "scriptpubkey_type": "v1_p2tr",
      "scriptpubkey_address": "bc1pr05r897nkug7d88dg7txl7qmavgqccy0vz9rh2694may5jntccnsgxfey9",
      "value": 3093
    },
    {
      "scriptpubkey": "5120fbacb9705d24a106b826cdcd4e32f348a31be75d746dc593c8083667a619ce45",
      "scriptpubkey_asm": "OP_PUSHNUM_1 OP_PUSHBYTES_32 fbacb9705d24a106b826cdcd4e32f348a31be75d746dc593c8083667a619ce45",
      "scriptpubkey_type": "v1_p2tr",
      "scriptpubkey_address": "bc1plwktjuzayjssdwpxehx5uvhnfz33he6aw3kuty7gpqmx0fseeezs0mjfsg",
      "value": 3093
    },
    {
      "scriptpubkey": "0014862e9c37baad895d8cef4df215ca8fe9b36b93b8",
      "scriptpubkey_asm": "OP_0 OP_PUSHBYTES_20 862e9c37baad895d8cef4df215ca8fe9b36b93b8",
      "scriptpubkey_type": "v0_p2wpkh",
      "scriptpubkey_address": "bc1qschfcda64ky4mr80fheptj50axekhyacak9kqn",
      "value": 3704
    }
  ],
  "size": 815,
  "weight": 2351,
  "fee": 8820,
  "status": {
    "confirmed": true,
    "block_height": 834464,
    "block_hash": "0000000000000000000177a0869a911a2b65c9bdcd5a8bcb02b68f305bee848e",
    "block_time": 1710308296
  },
  "hex": "020000000001016d60147b5eb71065a3e5df1497dbacb49a7a3faedb7ea0d92e04695f331a37f10000000000fdffffff0b22020000000000002251202c5c7b584418f7df16e266886880e520a408eb99881dc4d7bb8770bb5b3cbbc9150c0000000000002251209a25f84dce8355583d00be8d848ef223583d607b5c07bd7ecac94501054768cb150c0000000000002251204721ad60641005445e5e053eda236a650a587ce62bcfa24ebd6023a00cd89b40150c000000000000225120f812d06ab1b297ca764639badfc01bb8df1c907de767a4ca6bf8c25c4743807d150c00000000000022512091bb4513bfd581074d305c83ecd6ed24280f7bf0ef004642fec9336672f7ea6b150c000000000000225120246a07637b1b2025ea71aaa9ca56503dfc9cb0e0576a5c69298da7361fff53ff150c000000000000225120f8fd1dba95b588fe8df218d02402581aa45730fb19349d4adf4bf5f2f5755f59150c000000000000225120fe7922b2c47b2ed041f6a2f7d3e68d257a2a7ae7d5328a54e12a615d57ec6cea150c0000000000002251201be83397d3b711e69ced47966ff81beb100c608f608a3bab45aefa4a4a6bc627150c000000000000225120fbacb9705d24a106b826cdcd4e32f348a31be75d746dc593c8083667a619ce45780e000000000000160014862e9c37baad895d8cef4df215ca8fe9b36b93b803407a1a92370f445b84b7b37d0f5286ee5ad7bf38676998d2d81a1f75afcf9fec9fc91c4c1587390c8eaf0dc915dd76fef07476d17e973884b2fbb79e45dbe56a6fc8208057c0d51199858280f1f556eddbe243577e88a28777bdb38a683689c16c4c9cac0063036f726401010a746578742f706c61696e004c8f7b2270223a2022746170222c20226f70223a2022646d742d6d696e74222c2022646570223a2022333962373532343338626533613435326464623731376230613635346233313662316164343661383139656234343831383933626337313331663738396539616930222c20227469636b223a20226e61746f776c73222c2022626c6b223a2022373036323630227d6821c08057c0d51199858280f1f556eddbe243577e88a28777bdb38a683689c16c4c9c00000000"
}