{
  "txid": "d1fbbd30fc61e23fbde66a1d308879cd5b55328a03f2716a6e053efef48af9e5",
  "version": 2,
  "locktime": 0,
  "vin": [
    {
      "txid": "1c9c35b8e8fe7027321497991a3922626ffe6b452c86c7e49af00aa59718acb8",
      "vout": 0,
      "prevout": {
        "scriptpubkey": "512073bde32fdbabb20eb396055194c2449c0379b3ffe9ba5689839df87ae2c99c1f",
        "scriptpubkey_asm": "OP_PUSHNUM_1 OP_PUSHBYTES_32 73bde32fdbabb20eb396055194c2449c0379b3ffe9ba5689839df87ae2c99c1f",
        "scriptpubkey_type": "v1_p2tr",
        "scriptpubkey_address": "bc1pww77xt7m4weqavukq4gefsjynsphnvllaxa9dzvrnhu84ckfns0sm22e73",
        "value": 4238
      },
      "scriptsig": "",
      "scriptsig_asm": "",
      "witness": [
        "58ca062a18f5ae8df08c0eea3c59f05ac94a6eb267d4796ed6addcd5ca054d09937ae02626acf6c82550d60489795c5aef2df421aa74ddaeb70502430d1ecd84",
        "209542bb61af3f0bde92fe87707d7b00616e4fdebc309f268a1114d5c4a0d60579ac0063036f726401010a746578742f706c61696e01071a636272632d32303a7472616e736665723a636272633d3830303000013068",
        "c09542bb61af3f0bde92fe87707d7b00616e4fdebc309f268a1114d5c4a0d60579"
      ],
      "is_coinbase": false,
      "sequence": 4294967295
    }
  ],
  "vout": [
    {
      "scriptpubkey": "5120e76d2285c61fa56ab91a4930d41d85bb749d4d6a6e542eb42c8bbf2e27109088",
      "scriptpubkey_asm": "OP_PUSHNUM_1 OP_PUSHBYTES_32 e76d2285c61fa56ab91a4930d41d85bb749d4d6a6e542eb42c8bbf2e27109088",
      "scriptpubkey_type": "v1_p2tr",
      "scriptpubkey_address": "bc1puakj9pwxr7jk4wg6fycdg8v9hd6f6nt2de2zadpv3wljufcsjzyqjnntyr",
      "value": 546
    }
  ],
  "size": 283,
  "weight": 565,
  "fee": 3692,
  "status": {
    "confirmed": true,
    "block_height": 834638,
    "block_hash": "000000000000000000025f742c626208ac87e0b7d15054abb4a19ca2d735a54e",
    "block_time": 1710405325
  },
  "hex": "02000000000101b8ac1897a50af09ae4c7862c456bfe6f6222391a999714322770fee8b8359c1c0000000000ffffffff012202000000000000225120e76d2285c61fa56ab91a4930d41d85bb749d4d6a6e542eb42c8bbf2e27109088034058ca062a18f5ae8df08c0eea3c59f05ac94a6eb267d4796ed6addcd5ca054d09937ae02626acf6c82550d60489795c5aef2df421aa74ddaeb70502430d1ecd8456209542bb61af3f0bde92fe87707d7b00616e4fdebc309f268a1114d5c4a0d60579ac0063036f726401010a746578742f706c61696e01071a636272632d32303a7472616e736665723a636272633d383030300001306821c09542bb61af3f0bde92fe87707d7b00616e4fdebc309f268a1114d5c4a0d6057900000000"
}