{
  "txid": "d1fb19f3ea8d473568b5d7d76e64387ec807b94a2464353bcda50a635acee66d",
  "version": 1,
  "locktime": 0,
  "vin": [
    {
      "txid": "21e74cfe6a8f3238e857de4b2bef993aabac0e779e3a38d495f06c37c50aa77e",
      "vout": 56,
      "prevout": {
        "scriptpubkey": "00149a5e12bd4dcd1b5279ae14185629d5272b5a1ee8",
        "scriptpubkey_asm": "OP_0 OP_PUSHBYTES_20 9a5e12bd4dcd1b5279ae14185629d5272b5a1ee8",
        "scriptpubkey_type": "v0_p2wpkh",
        "scriptpubkey_address": "bc1qnf0p902de5d4y7dwzsv9v2w4yu4458hgu8ah7p",
        "value": 30802
      },
      "scriptsig": "",
      "scriptsig_asm": "",
      "witness": [
        "30450221008bdac0326e7399b710f31b6428e58d72e343f9a88e30720cceded226e217631d02202b175c9fae6e13c811545283ec826d8db977d411129a8b8c9faedc557b5919f901",
        "028c5b91744b27c4474bb65ce60d8ff8b0964ce5b407fffeb3df68545a19a06711"
      ],
      "is_coinbase": false,
      "sequence": 4294967293
    },
    {
      "txid": "1a408e20cef7d55d6ebfea9015f4934bb5f1f70fa148e3aec6bcfc73d78b56fd",
      "vout": 182,
      "prevout": {
        "scriptpubkey": "001464aff6c00bbfd3feca6fedec71e2b8100bfab777",
        "scriptpubkey_asm": "OP_0 OP_PUSHBYTES_20 64aff6c00bbfd3feca6fedec71e2b8100bfab777",
        "scriptpubkey_type": "v0_p2wpkh",
        "scriptpubkey_address": "bc1qvjhldsqthlflajn0ahk8rc4czq9l4dmhzh6ff2",
        "value": 30787
      },
      "scriptsig": "",
      "scriptsig_asm": "",
      "witness": [
        "3045022100cb6ba8d0d9ffe6694a25c6e427176986bada8374d241946eacdc3a67b08a909b02206c03dfaa1bb63574ced5fedc83ade175b31e366be665b9807b1b25d465cadfd201",
        "021978f7e1898428343cf6c2acc02c3231b7e4ceb0676600887e5424d92c138f5e"
      ],
      "is_coinbase": false,
      "sequence": 4294967293
    },
    {
      "txid": "cd7aab5e6d6af5c6e6a3ac01130abca3d3282d445c4997d6be255bcd1ead7488",
      "vout": 3,
      "prevout": {
        "scriptpubkey": "0014242f660fe7ce22d9ca07b6348628e2d427bcf82d",
        "scriptpubkey_asm": "OP_0 OP_PUSHBYTES_20 242f660fe7ce22d9ca07b6348628e2d427bcf82d",
        "scriptpubkey_type": "v0_p2wpkh",
        "scriptpubkey_address": "bc1qyshkvrl8ec3dnjs8kc6gv28z6snme7pdvzsgf0",
        "value": 30786
      },
      "scriptsig": "",
      "scriptsig_asm": "",
      "witness": [
        "304502210093c387a570424be416def5bbb5d6b4f34558667fdeb571bcabdbc80b292b525302206933cbae7cbc7addbb7c8b6fc976a832846145ff2a5ca89fb07a127a7e13234f01",
        "03b5e346e223f9415d531a545089b211daabb5102be498ff3ae8700323f1a49c5a"
      ],
      "is_coinbase": false,
      "sequence": 4294967293
    },
    {
      "txid": "810d84064f673952b73e9111385ea36d38383cc2584eb24ec6792d2432d0a641",
      "vout": 8,
      "prevout": {
        "scriptpubkey": "00141d5f3a33d6256ca6851a9538d57ed3afe18d3a0f",
        "scriptpubkey_asm": "OP_0 OP_PUSHBYTES_20 1d5f3a33d6256ca6851a9538d57ed3afe18d3a0f",
        "scriptpubkey_type": "v0_p2wpkh",
        "scriptpubkey_address": "bc1qr40n5v7ky4k2dpg6j5ud2lkn4lsc6ws0nrz70l",
        "value": 30782
      },
      "scriptsig": "",
      "scriptsig_asm": "",
      "witness": [
        "304402203a03333dfc694efca3760705b98b244aced237133201a091684eb54656cac107022008ac544e729da03e460cacf50f59290fdc17979b2c7a4c86e7d4ee2cfb6341c801",
        "0225a4e8114520835fce7d7b0e6b3f7a3835577f5bcc59950c1cbca5dce2272ce3"
      ],
      "is_coinbase": false,
      "sequence": 4294967293
    },
    {
      "txid": "ae4f98a2a023e59f726649382a4c5eb51d9748c4e2e1e22cdf270e6bbf0905ef",
      "vout": 139,
      "prevout": {
        "scriptpubkey": "001489fb2fc5c21b640627e55925cbc03a073cdd8802",
        "scriptpubkey_asm": "OP_0 OP_PUSHBYTES_20 89fb2fc5c21b640627e55925cbc03a073cdd8802",
        "scriptpubkey_type": "v0_p2wpkh",
        "scriptpubkey_address": "bc1q38ajl3wzrdjqvfl9tyjuhsp6qu7dmzqz90f3v0",
        "value": 30771
      },
      "scriptsig": "",
      "scriptsig_asm": "",
      "witness": [
        "30440220412cb62eaa493bd2513a72635cfa8233bb74dccd93c2de5fc0706b7638f0bf0d022052afb5184380452c72d9a295b63be11c5241f3892553f646c2fef1d5194b5a3a01",
        "02d51b44ca88e337f2ece36e075abfae87ea3051401d4706854dd4e23134861531"
      ],
      "is_coinbase": false,
      "sequence": 4294967293
    }
  ],
  "vout": [
    {
      "scriptpubkey": "76a914d1d04c36027cfdfdebfe687b742f56e47a13763e88ac",
      "scriptpubkey_asm": "OP_DUP OP_HASH160 OP_PUSHBYTES_20 d1d04c36027cfdfdebfe687b742f56e47a13763e OP_EQUALVERIFY OP_CHECKSIG",
      "scriptpubkey_type": "p2pkh",
      "scriptpubkey_address": "1L8PksV5vLLgzuqfjJFL8mgprdWWP8G51n",
      "value": 142408
    }
  ],
  "size": 789,
  "weight": 1536,
  "fee": 11520,
  "status": {
    "confirmed": true,
    "block_height": 834638,
    "block_hash": "000000000000000000025f742c626208ac87e0b7d15054abb4a19ca2d735a54e",
    "block_time": 1710405325
  },
  "hex": "010000000001057ea70ac5376cf095d4383a9e770eacab3a99ef2b4bde57e838328f6afe4ce7213800000000fdfffffffd568bd773fcbcc6aee348a10ff7f1b54b93f41590eabf6e5dd5f7ce208e401ab600000000fdffffff8874ad1ecd5b25bed697495c442d28d3a3bc0a1301aca3e6c6f56a6d5eab7acd0300000000fdffffff41a6d032242d79c64eb24e58c23c38386da35e3811913eb75239674f06840d810800000000fdffffffef0509bf6b0e27df2ce2e1e2c448971db55e4c2a384966729fe523a0a2984fae8b00000000fdffffff01482c0200000000001976a914d1d04c36027cfdfdebfe687b742f56e47a13763e88ac024830450221008bdac0326e7399b710f31b6428e58d72e343f9a88e30720cceded226e217631d02202b175c9fae6e13c811545283ec826d8db977d411129a8b8c9faedc557b5919f90121028c5b91744b27c4474bb65ce60d8ff8b0964ce5b407fffeb3df68545a19a0671102483045022100cb6ba8d0d9ffe6694a25c6e427176986bada8374d241946eacdc3a67b08a909b02206c03dfaa1bb63574ced5fedc83ade175b31e366be665b9807b1b25d465cadfd20121021978f7e1898428343cf6c2acc02c3231b7e4ceb0676600887e5424d92c138f5e0248304502210093c387a570424be416def5bbb5d6b4f34558667fdeb571bcabdbc80b292b525302206933cbae7cbc7addbb7c8b6fc976a832846145ff2a5ca89fb07a127a7e13234f012103b5e346e223f9415d531a545089b211daabb5102be498ff3ae8700323f1a49c5a0247304402203a03333dfc694efca3760705b98b244aced237133201a091684eb54656cac107022008ac544e729da03e460cacf50f59290fdc17979b2c7a4c86e7d4ee2cfb6341c801210225a4e8114520835fce7d7b0e6b3f7a3835577f5bcc59950c1cbca5dce2272ce3024730440220412cb62eaa493bd2513a72635cfa8233bb74dccd93c2de5fc0706b7638f0bf0d022052afb5184380452c72d9a295b63be11c5241f3892553f646c2fef1d5194b5a3a012102d51b44ca88e337f2ece36e075abfae87ea3051401d4706854dd4e2313486153100000000"
}