{
  "txid": "d2165a3dc4f46981795609d095fe8b2aa8af73c59e72c3c823c6cb330c878375",
  "version": 2,
  "locktime": 0,
  "vin": [
    {
      "txid": "5d80c221f0c723abbea739c9f3e4e872e82f09f2d5afcbec056169b56fc761ba",
      "vout": 1,
      "prevout": {
        "scriptpubkey": "0014ff87b633872486105f459ae325fc373fb4971285",
        "scriptpubkey_asm": "OP_0 OP_PUSHBYTES_20 ff87b633872486105f459ae325fc373fb4971285",
        "scriptpubkey_type": "v0_p2wpkh",
        "scriptpubkey_address": "bc1ql7rmvvu8yjrpqh69nt3jtlph876fwy59ej8jte",
        "value": 10111
      },
      "scriptsig": "",
      "scriptsig_asm": "",
      "witness": [
        "3045022100b1dd55b919d384d3da7dc9cfbf0f2062c9371c3623d538f8e03a6c210cf3286202202962c46786f030cddc479ad6aa393d24ca643ebb10f2f4eee3bfeb5d22be133001",
        "03c2e4a41b299c9f7cdf24e520f196677a6657b1dacaa69b4b13c1ad62e3267c8a"
      ],
      "is_coinbase": false,
      "sequence": 4294967295
    },
    {
      "txid": "fa7536ee10bfeddb39476855fac5b9e095821bbb6f3c5936a857cb9c57fc428b",
      "vout": 59,
      "prevout": {
        "scriptpubkey": "0014988fc8780deccf2c63ab99c141fb7562648d5ea0",
        "scriptpubkey_asm": "OP_0 OP_PUSHBYTES_20 988fc8780deccf2c63ab99c141fb7562648d5ea0",
        "scriptpubkey_type": "v0_p2wpkh",
        "scriptpubkey_address": "bc1qnz8us7qdan8jccatn8q5r7m4vfjg6h4qm38nvq",
        "value": 1325608
      },
      "scriptsig": "",
      "scriptsig_asm": "",
      "witness": [
        "3044022030eae80d7205e4a37a8733efa27ffad5ada36b1cfd0543ca109235b3fa6d57070220636c1e422af57035bb37f2f81c53d2bd1a058c2ba185dc5e378e86beb0072c3d01",
        "02153a006566c13de57e95732cbb4635c45acd14ab4748bc4d2f0f2ae48c2d6c52"
      ],
      "is_coinbase": false,
      "sequence": 4294967295
    }
  ],
  "vout": [
    {
      "scriptpubkey": "001402023803c02179b7e87eaa69e1437c268b73a7b4",
      "scriptpubkey_asm": "OP_0 OP_PUSHBYTES_20 02023803c02179b7e87eaa69e1437c268b73a7b4",
      "scriptpubkey_type": "v0_p2wpkh",
      "scriptpubkey_address": "bc1qqgprsq7qy9um06r74f57zsmuy69h8fa5m829qk",
      "value": 1332367
    }
  ],
  "size": 340,
  "weight": 709,
  "fee": 3352,
  "status": {
    "confirmed": true,
    "block_height": 834638,
    "block_hash": "000000000000000000025f742c626208ac87e0b7d15054abb4a19ca2d735a54e",
    "block_time": 1710405325
  },
  "hex": "02000000000102ba61c76fb5696105eccbafd5f2092fe872e8e4f3c939a7beab23c7f021c2805d0100000000ffffffff8b42fc579ccb57a836593c6fbb1b8295e0b9c5fa55684739dbedbf10ee3675fa3b00000000ffffffff018f5414000000000016001402023803c02179b7e87eaa69e1437c268b73a7b402483045022100b1dd55b919d384d3da7dc9cfbf0f2062c9371c3623d538f8e03a6c210cf3286202202962c46786f030cddc479ad6aa393d24ca643ebb10f2f4eee3bfeb5d22be1330012103c2e4a41b299c9f7cdf24e520f196677a6657b1dacaa69b4b13c1ad62e3267c8a02473044022030eae80d7205e4a37a8733efa27ffad5ada36b1cfd0543ca109235b3fa6d57070220636c1e422af57035bb37f2f81c53d2bd1a058c2ba185dc5e378e86beb0072c3d012102153a006566c13de57e95732cbb4635c45acd14ab4748bc4d2f0f2ae48c2d6c5200000000"
}