{
  "txid": "d229cb092f4a0bf337d779a823cc5ea78dcd208d2522d96c50d13ecea99b645c",
  "version": 1,
  "locktime": 0,
  "vin": [
    {
      "txid": "94aaad46deab81195612f5f16ee8b02309f72e6fd0a8add2b820d3ae8aae31d5",
      "vout": 1,
      "prevout": {
        "scriptpubkey": "001477714119e43bac3ef7630e9715b97374bba1513b",
        "scriptpubkey_asm": "OP_0 OP_PUSHBYTES_20 77714119e43bac3ef7630e9715b97374bba1513b",
        "scriptpubkey_type": "v0_p2wpkh",
        "scriptpubkey_address": "bc1qwac5zx0y8wkraamrp6t3twtnwja6z5fmqjgmqh",
        "value": 729401
      },
      "scriptsig": "",
      "scriptsig_asm": "",
      "witness": [
        "3044022001e250334b7e87a5faa913934971029c4f24171109f14c7171d0dd5d810606cf0220396ad079b97a4b7dab8ee9b7e2ceeb2aaa79e18ef861af1f9473fff83a752a3e01",
        "039e4731e3471848eda14b15164c3741fdf0b6b67c1d2150adda51592425e3a4fa"
      ],
      "is_coinbase": false,
      "sequence": 4294967295
    }
  ],
  "vout": [
    {
      "scriptpubkey": "a914e09967ede98df92da4d052e5a43a7fa79ad9b7e187",
      "scriptpubkey_asm": "OP_HASH160 OP_PUSHBYTES_20 e09967ede98df92da4d052e5a43a7fa79ad9b7e1 OP_EQUAL",
      "scriptpubkey_type": "p2sh",
      "scriptpubkey_address": "3NAb4M7vnWTf1EcK3aWDsuoT4Fyev7HAhg",
      "value": 67950
    },
    {
      "scriptpubkey": "0014f926e0b4790590616fbb5b17e74d646ae371b8af",
      "scriptpubkey_asm": "OP_0 OP_PUSHBYTES_20 f926e0b4790590616fbb5b17e74d646ae371b8af",
      "scriptpubkey_type": "v0_p2wpkh",
      "scriptpubkey_address": "bc1qlynwpdreqkgxzmamtvt7wntydt3hrw90kkdquv",
      "value": 659339
    }
  ],
  "size": 223,
  "weight": 565,
  "fee": 2112,
  "status": {
    "confirmed": true,
    "block_height": 834638,
    "block_hash": "000000000000000000025f742c626208ac87e0b7d15054abb4a19ca2d735a54e",
    "block_time": 1710405325
  },
  "hex": "01000000000101d531ae8aaed320b8d2ada8d06f2ef70923b0e86ef1f512561981abde46adaa940100000000ffffffff026e0901000000000017a914e09967ede98df92da4d052e5a43a7fa79ad9b7e1878b0f0a0000000000160014f926e0b4790590616fbb5b17e74d646ae371b8af02473044022001e250334b7e87a5faa913934971029c4f24171109f14c7171d0dd5d810606cf0220396ad079b97a4b7dab8ee9b7e2ceeb2aaa79e18ef861af1f9473fff83a752a3e0121039e4731e3471848eda14b15164c3741fdf0b6b67c1d2150adda51592425e3a4fa00000000"
}