{
  "txid": "d23a5477b3d478f41797fc171b824a4268f62fe8e927545d736cea7f7b3e97e5",
  "version": 2,
  "locktime": 0,
  "vin": [
    {
      "txid": "facaf313417bc24a0270aaa49b996359f61bad66c887c49e0f52c173018a5962",
      "vout": 5,
      "prevout": {
        "scriptpubkey": "51204e2e9225ff0eb680764341c3e1b1a4ccbe91e335dea78a68fdb648a5d4a7411c",
        "scriptpubkey_asm": "OP_PUSHNUM_1 OP_PUSHBYTES_32 4e2e9225ff0eb680764341c3e1b1a4ccbe91e335dea78a68fdb648a5d4a7411c",
        "scriptpubkey_type": "v1_p2tr",
        "scriptpubkey_address": "bc1pfchfyf0lp6mgqajrg8p7rvdyejlfrce4m6nc568akey2t498gywqgk04gd",
        "value": 600
      },
      "scriptsig": "",
      "scriptsig_asm": "",
      "witness": [
        "91bf987b21d72f703a8742d0306208b582272ca8d3937fc9f30701b7ac1d21e8032e50826a2e58aaa82fe2c6fc4bf9e47a826d1e60ab2f5fcb6df769cc1687df"
      ],
      "is_coinbase": false,
      "sequence": 4294967295
    },
    {
      "txid": "689b072110208141c8aedaf59c6177941ab6a9096c468ff5ecaa05da1805e606",
      "vout": 5,
      "prevout": {
        "scriptpubkey": "51204e2e9225ff0eb680764341c3e1b1a4ccbe91e335dea78a68fdb648a5d4a7411c",
        "scriptpubkey_asm": "OP_PUSHNUM_1 OP_PUSHBYTES_32 4e2e9225ff0eb680764341c3e1b1a4ccbe91e335dea78a68fdb648a5d4a7411c",
        "scriptpubkey_type": "v1_p2tr",
        "scriptpubkey_address": "bc1pfchfyf0lp6mgqajrg8p7rvdyejlfrce4m6nc568akey2t498gywqgk04gd",
        "value": 600
      },
      "scriptsig": "",
      "scriptsig_asm": "",
      "witness": [
        "e6141f2f57ec606e9b743b2abbbd4f6d26b6eac23d43e757deb2f9303518b63da695d8f5ad725fbf5da4833052a0724c3171cfbd84446e28467c34fa6b413a31"
      ],
      "is_coinbase": false,
      "sequence": 4294967295
    },
    {
      "txid": "f159fca38a965c38c05bb8116979b7730a553d3c40dd184fac3047db57dc676d",
      "vout": 0,
      "prevout": {
        "scriptpubkey": "51208a608903427ab644656f81f230f1e2a1db1ce0edf6603b9b96cba190cac8c391",
        "scriptpubkey_asm": "OP_PUSHNUM_1 OP_PUSHBYTES_32 8a608903427ab644656f81f230f1e2a1db1ce0edf6603b9b96cba190cac8c391",
        "scriptpubkey_type": "v1_p2tr",
        "scriptpubkey_address": "bc1p3fsgjq6z02myget0s8erpu0z58d3ec8d7esrhxukewsepjkgcwgshjrjts",
        "value": 546
      },
      "scriptsig": "",
      "scriptsig_asm": "",
      "witness": [
        "77a3d7c60c9f94e7c00dfa33308ccc411a5ec285da6aa91f2f400792a6769527bbea19311b16a027c82b5bb58c17658280b2edca08cacbaac033753cccf6f31f83"
      ],
      "is_coinbase": false,
      "sequence": 4294967295
    },
    {
      "txid": "4d21bf834f5057348412e84a497f2aebff43a3bf5387832d1f5d886b9b6b5fea",
      "vout": 6,
      "prevout": {
        "scriptpubkey": "51204e2e9225ff0eb680764341c3e1b1a4ccbe91e335dea78a68fdb648a5d4a7411c",
        "scriptpubkey_asm": "OP_PUSHNUM_1 OP_PUSHBYTES_32 4e2e9225ff0eb680764341c3e1b1a4ccbe91e335dea78a68fdb648a5d4a7411c",
        "scriptpubkey_type": "v1_p2tr",
        "scriptpubkey_address": "bc1pfchfyf0lp6mgqajrg8p7rvdyejlfrce4m6nc568akey2t498gywqgk04gd",
        "value": 1282318
      },
      "scriptsig": "",
      "scriptsig_asm": "",
      "witness": [
        "9dea8b84a787ff032aa3debe6ca0ebba0cf26a79e945d7313e50912de7a66ed3e65fb8f58f76395dac6c433acaae1f0435dd9f0b581f16ce4f8b4da021b7e46b"
      ],
      "is_coinbase": false,
      "sequence": 4294967295
    }
  ],
  "vout": [
    {
      "scriptpubkey": "51204e2e9225ff0eb680764341c3e1b1a4ccbe91e335dea78a68fdb648a5d4a7411c",
      "scriptpubkey_asm": "OP_PUSHNUM_1 OP_PUSHBYTES_32 4e2e9225ff0eb680764341c3e1b1a4ccbe91e335dea78a68fdb648a5d4a7411c",
      "scriptpubkey_type": "v1_p2tr",
      "scriptpubkey_address": "bc1pfchfyf0lp6mgqajrg8p7rvdyejlfrce4m6nc568akey2t498gywqgk04gd",
      "value": 1200
    },
    {
      "scriptpubkey": "51204e2e9225ff0eb680764341c3e1b1a4ccbe91e335dea78a68fdb648a5d4a7411c",
      "scriptpubkey_asm": "OP_PUSHNUM_1 OP_PUSHBYTES_32 4e2e9225ff0eb680764341c3e1b1a4ccbe91e335dea78a68fdb648a5d4a7411c",
      "scriptpubkey_type": "v1_p2tr",
      "scriptpubkey_address": "bc1pfchfyf0lp6mgqajrg8p7rvdyejlfrce4m6nc568akey2t498gywqgk04gd",
      "value": 546
    },
    {
      "scriptpubkey": "a914e3a326d3e09422338cf8c9faeb28e7588891418d87",
      "scriptpubkey_asm": "OP_HASH160 OP_PUSHBYTES_20 e3a326d3e09422338cf8c9faeb28e7588891418d OP_EQUAL",
      "scriptpubkey_type": "p2sh",
      "scriptpubkey_address": "3NSem4nUKX1qeKYNDxTsn4ABq12CK9D26N",
      "value": 851271
    },
    {
      "scriptpubkey": "a914ea6b832a05c6ca578baa3836f3f25553d41068a587",
      "scriptpubkey_asm": "OP_HASH160 OP_PUSHBYTES_20 ea6b832a05c6ca578baa3836f3f25553d41068a5 OP_EQUAL",
      "scriptpubkey_type": "p2sh",
      "scriptpubkey_address": "3P4WqXDbSLRhzo2H6MT6YFbvBKBDPLbVtQ",
      "value": 21375
    },
    {
      "scriptpubkey": "51204e2e9225ff0eb680764341c3e1b1a4ccbe91e335dea78a68fdb648a5d4a7411c",
      "scriptpubkey_asm": "OP_PUSHNUM_1 OP_PUSHBYTES_32 4e2e9225ff0eb680764341c3e1b1a4ccbe91e335dea78a68fdb648a5d4a7411c",
      "scriptpubkey_type": "v1_p2tr",
      "scriptpubkey_address": "bc1pfchfyf0lp6mgqajrg8p7rvdyejlfrce4m6nc568akey2t498gywqgk04gd",
      "value": 600
    },
    {
      "scriptpubkey": "51204e2e9225ff0eb680764341c3e1b1a4ccbe91e335dea78a68fdb648a5d4a7411c",
      "scriptpubkey_asm": "OP_PUSHNUM_1 OP_PUSHBYTES_32 4e2e9225ff0eb680764341c3e1b1a4ccbe91e335dea78a68fdb648a5d4a7411c",
      "scriptpubkey_type": "v1_p2tr",
      "scriptpubkey_address": "bc1pfchfyf0lp6mgqajrg8p7rvdyejlfrce4m6nc568akey2t498gywqgk04gd",
      "value": 600
    },
    {
      "scriptpubkey": "51204e2e9225ff0eb680764341c3e1b1a4ccbe91e335dea78a68fdb648a5d4a7411c",
      "scriptpubkey_asm": "OP_PUSHNUM_1 OP_PUSHBYTES_32 4e2e9225ff0eb680764341c3e1b1a4ccbe91e335dea78a68fdb648a5d4a7411c",
      "scriptpubkey_type": "v1_p2tr",
      "scriptpubkey_address": "bc1pfchfyf0lp6mgqajrg8p7rvdyejlfrce4m6nc568akey2t498gywqgk04gd",
      "value": 400657
    }
  ],
  "size": 720,
  "weight": 2079,
  "fee": 7815,
  "status": {
    "confirmed": true,
    "block_height": 834638,
    "block_hash": "000000000000000000025f742c626208ac87e0b7d15054abb4a19ca2d735a54e",
    "block_time": 1710405325
  },
  "hex": "0200000000010462598a0173c1520f9ec487c866ad1bf65963999ba4aa70024ac27b4113f3cafa0500000000ffffffff06e60518da05aaecf58f466c09a9b61a9477619cf5daaec84181201021079b680500000000ffffffff6d67dc57db4730ac4f18dd403c3d550a73b7796911b85bc0385c968aa3fc59f10000000000ffffffffea5f6b9b6b885d1f2d838753bfa343ffeb2a7f494ae812843457504f83bf214d0600000000ffffffff07b0040000000000002251204e2e9225ff0eb680764341c3e1b1a4ccbe91e335dea78a68fdb648a5d4a7411c22020000000000002251204e2e9225ff0eb680764341c3e1b1a4ccbe91e335dea78a68fdb648a5d4a7411c47fd0c000000000017a914e3a326d3e09422338cf8c9faeb28e7588891418d877f5300000000000017a914ea6b832a05c6ca578baa3836f3f25553d41068a58758020000000000002251204e2e9225ff0eb680764341c3e1b1a4ccbe91e335dea78a68fdb648a5d4a7411c58020000000000002251204e2e9225ff0eb680764341c3e1b1a4ccbe91e335dea78a68fdb648a5d4a7411c111d0600000000002251204e2e9225ff0eb680764341c3e1b1a4ccbe91e335dea78a68fdb648a5d4a7411c014091bf987b21d72f703a8742d0306208b582272ca8d3937fc9f30701b7ac1d21e8032e50826a2e58aaa82fe2c6fc4bf9e47a826d1e60ab2f5fcb6df769cc1687df0140e6141f2f57ec606e9b743b2abbbd4f6d26b6eac23d43e757deb2f9303518b63da695d8f5ad725fbf5da4833052a0724c3171cfbd84446e28467c34fa6b413a31014177a3d7c60c9f94e7c00dfa33308ccc411a5ec285da6aa91f2f400792a6769527bbea19311b16a027c82b5bb58c17658280b2edca08cacbaac033753cccf6f31f8301409dea8b84a787ff032aa3debe6ca0ebba0cf26a79e945d7313e50912de7a66ed3e65fb8f58f76395dac6c433acaae1f0435dd9f0b581f16ce4f8b4da021b7e46b00000000"
}