{
  "txid": "d23c777d0f6b79ea799659345844b116cb06f43b5d8b88af330a10cccb374417",
  "version": 2,
  "locktime": 834637,
  "vin": [
    {
      "txid": "5be40bf37e1b79ee60710dbd6e521ed8062fdd0f8d09313ab800fc66dfbc0b11",
      "vout": 0,
      "prevout": {
        "scriptpubkey": "76a914f1336794a353afcf513254137b3abe366e83ada288ac",
        "scriptpubkey_asm": "OP_DUP OP_HASH160 OP_PUSHBYTES_20 f1336794a353afcf513254137b3abe366e83ada2 OP_EQUALVERIFY OP_CHECKSIG",
        "scriptpubkey_type": "p2pkh",
        "scriptpubkey_address": "1NzMRtQ63wuHBLQMfGD3MTv78wnZUjSmZ1",
        "value": 9000000
      },
      "scriptsig": "47304402206f34d5b86fef9a20112a5e16fcec26d5c4ef27e2f7856dca9246fbd77f43760e02207391e4b2f3640769e6f57a9691d33fae16c3e017aa527487ce723ec7bd6869ca01210300f2b4d72e4f5c5959d1ab353df3df1f54b0aec343165121c73b1390d40a5edb",
      "scriptsig_asm": "OP_PUSHBYTES_71 304402206f34d5b86fef9a20112a5e16fcec26d5c4ef27e2f7856dca9246fbd77f43760e02207391e4b2f3640769e6f57a9691d33fae16c3e017aa527487ce723ec7bd6869ca01 OP_PUSHBYTES_33 0300f2b4d72e4f5c5959d1ab353df3df1f54b0aec343165121c73b1390d40a5edb",
      "is_coinbase": false,
      "sequence": 4294967293
    }
  ],
  "vout": [
    {
      "scriptpubkey": "0014ff69e1309b6216f19ebd13576d39783b1a6e25ce",
      "scriptpubkey_asm": "OP_0 OP_PUSHBYTES_20 ff69e1309b6216f19ebd13576d39783b1a6e25ce",
      "scriptpubkey_type": "v0_p2wpkh",
      "scriptpubkey_address": "bc1qla57zvymvgt0r84azdtk6wtc8vdxufwwq45ket",
      "value": 4000000
    },
    {
      "scriptpubkey": "76a914f1336794a353afcf513254137b3abe366e83ada288ac",
      "scriptpubkey_asm": "OP_DUP OP_HASH160 OP_PUSHBYTES_20 f1336794a353afcf513254137b3abe366e83ada2 OP_EQUALVERIFY OP_CHECKSIG",
      "scriptpubkey_type": "p2pkh",
      "scriptpubkey_address": "1NzMRtQ63wuHBLQMfGD3MTv78wnZUjSmZ1",
      "value": 4990968
    }
  ],
  "size": 222,
  "weight": 888,
  "fee": 9032,
  "status": {
    "confirmed": true,
    "block_height": 834638,
    "block_hash": "000000000000000000025f742c626208ac87e0b7d15054abb4a19ca2d735a54e",
    "block_time": 1710405325
  },
  "hex": "0200000001110bbcdf66fc00b83a31098d0fdd2f06d81e526ebd0d7160ee791b7ef30be45b000000006a47304402206f34d5b86fef9a20112a5e16fcec26d5c4ef27e2f7856dca9246fbd77f43760e02207391e4b2f3640769e6f57a9691d33fae16c3e017aa527487ce723ec7bd6869ca01210300f2b4d72e4f5c5959d1ab353df3df1f54b0aec343165121c73b1390d40a5edbfdffffff0200093d0000000000160014ff69e1309b6216f19ebd13576d39783b1a6e25cef8274c00000000001976a914f1336794a353afcf513254137b3abe366e83ada288ac4dbc0c00"
}