{
  "txid": "d24ab60da59846b69b88344fb976625f96d0c10c6c0c924b8c9fd4aaf01b32b2",
  "version": 2,
  "locktime": 0,
  "vin": [
    {
      "txid": "c6e917f07349a92d440870e842ed8055d061c91994ed703753f4fc51421324d3",
      "vout": 100,
      "prevout": {
        "scriptpubkey": "51203ade3abb166b01c3924270fd3e3dfd308c6837847647326651508e6fa30bafb8",
        "scriptpubkey_asm": "OP_PUSHNUM_1 OP_PUSHBYTES_32 3ade3abb166b01c3924270fd3e3dfd308c6837847647326651508e6fa30bafb8",
        "scriptpubkey_type": "v1_p2tr",
        "scriptpubkey_address": "bc1p8t0r4wckdvqu8yjzwr7nu00axzxxsduywernyej32z8xlgct47uq5mnt6c",
        "value": 60589
      },
      "scriptsig": "",
      "scriptsig_asm": "",
      "witness": [
        "be9f777a43beaeb12b2c3d4f3c266938dd609ecbb9ea4174471c4b4491555c7fcc3146142af11e774bfc56198759cba99ef31fff0f070b76cfa46cb541e0b838"
      ],
      "is_coinbase": false,
      "sequence": 4294967293
    }
  ],
  "vout": [
    {
      "scriptpubkey": "5120d5cd9c2042f9f9861de782f2713a5c209e89400d6ce0401a410e84e4b8758ab3",
      "scriptpubkey_asm": "OP_PUSHNUM_1 OP_PUSHBYTES_32 d5cd9c2042f9f9861de782f2713a5c209e89400d6ce0401a410e84e4b8758ab3",
      "scriptpubkey_type": "v1_p2tr",
      "scriptpubkey_address": "bc1p6hxecgzzl8ucv808ste8zwjuyz0gjsqddnsyqxjpp6zwfwr432esp7glrx",
      "value": 3130
    },
    {
      "scriptpubkey": "51203ade3abb166b01c3924270fd3e3dfd308c6837847647326651508e6fa30bafb8",
      "scriptpubkey_asm": "OP_PUSHNUM_1 OP_PUSHBYTES_32 3ade3abb166b01c3924270fd3e3dfd308c6837847647326651508e6fa30bafb8",
      "scriptpubkey_type": "v1_p2tr",
      "scriptpubkey_address": "bc1p8t0r4wckdvqu8yjzwr7nu00axzxxsduywernyej32z8xlgct47uq5mnt6c",
      "value": 54841
    }
  ],
  "size": 205,
  "weight": 616,
  "fee": 2618,
  "status": {
    "confirmed": true,
    "block_height": 834638,
    "block_hash": "000000000000000000025f742c626208ac87e0b7d15054abb4a19ca2d735a54e",
    "block_time": 1710405325
  },
  "hex": "02000000000101d324134251fcf4533770ed9419c961d05580ed42e87008442da94973f017e9c66400000000fdffffff023a0c000000000000225120d5cd9c2042f9f9861de782f2713a5c209e89400d6ce0401a410e84e4b8758ab339d60000000000002251203ade3abb166b01c3924270fd3e3dfd308c6837847647326651508e6fa30bafb80140be9f777a43beaeb12b2c3d4f3c266938dd609ecbb9ea4174471c4b4491555c7fcc3146142af11e774bfc56198759cba99ef31fff0f070b76cfa46cb541e0b83800000000"
}