{
  "txid": "d24eba880a83cb5c3b23031778132f7a32a592bc4cf17312ce5f37b170c061b3",
  "version": 1,
  "locktime": 0,
  "vin": [
    {
      "txid": "feb159de9cca8b0c030fbdc4280c2601db1eb372c245a1cf62c70f9f9f3be76b",
      "vout": 4,
      "prevout": {
        "scriptpubkey": "0014a8935517cbbe9e84cab0467423a4920d0bcff365",
        "scriptpubkey_asm": "OP_0 OP_PUSHBYTES_20 a8935517cbbe9e84cab0467423a4920d0bcff365",
        "scriptpubkey_type": "v0_p2wpkh",
        "scriptpubkey_address": "bc1q4zf4297th60gfj4sge6z8fyjp59ulum9g6czqt",
        "value": 272181
      },
      "scriptsig": "",
      "scriptsig_asm": "",
      "witness": [
        "3045022100c6fdcfce9f3976acf6067e0bf3e7e18e7d68f43628d6500a34ec38953bcf7c6a022006c7a04b502ce8f97d5b2bf012a0b624cc270f8b8d9a09eaed4081f8e69a5da201",
        "0328e17758487a2096505556a0b89b2682fb2788c88ba5200cbb17d089cc8aa630"
      ],
      "is_coinbase": false,
      "sequence": 4294967293
    },
    {
      "txid": "d01df8229e5988c1b0211049c61652b3d81e4a33c27c1799addf3b86dcb84209",
      "vout": 0,
      "prevout": {
        "scriptpubkey": "0014fb83b74ac4b01b43fc3e344f1301e182426144ad",
        "scriptpubkey_asm": "OP_0 OP_PUSHBYTES_20 fb83b74ac4b01b43fc3e344f1301e182426144ad",
        "scriptpubkey_type": "v0_p2wpkh",
        "scriptpubkey_address": "bc1qlwpmwjkykqd58lp7x383xq0psfpxz39dljnjw0",
        "value": 262594
      },
      "scriptsig": "",
      "scriptsig_asm": "",
      "witness": [
        "304502210096e752ed4fa8e2afa4a0d8bc42334bf0f8397e868578e3be312a0e3b3ee704790220787d805a80a0595ca2c28ef2ca459599b2f423862846f555f59c20dca7a04bb601",
        "03ecec848becceeb9f52a34b9a62d829cf3ba64da061846e06539857aa4569777a"
      ],
      "is_coinbase": false,
      "sequence": 4294967293
    },
    {
      "txid": "5b3e5f79fccba0a058e59d1d8d3c5372e3d1d0ccbfe6e4dedd384f401f84176b",
      "vout": 5,
      "prevout": {
        "scriptpubkey": "0014c0683e2c87e9ac0fd993830100b4baf8ff58af27",
        "scriptpubkey_asm": "OP_0 OP_PUSHBYTES_20 c0683e2c87e9ac0fd993830100b4baf8ff58af27",
        "scriptpubkey_type": "v0_p2wpkh",
        "scriptpubkey_address": "bc1qcp5ruty8axkqlkvnsvqspd96lrl43te8zepacf",
        "value": 259855
      },
      "scriptsig": "",
      "scriptsig_asm": "",
      "witness": [
        "3045022100ec8420843b84784abc6bac06ac0526f7ec1dcce9b7eee422348f43e87aa829c602207c5836986fa10b6948906cb611b2fb5109fda70456886493c5617d917b70b5b301",
        "037def5ecdfa6fafea907e0a287c449f0232452ae76dce91dee9f8b053a3bc368d"
      ],
      "is_coinbase": false,
      "sequence": 4294967293
    },
    {
      "txid": "73b77b9728665d884b08bbae480d3e4f2b6272078561c32a5117e5928d21a79d",
      "vout": 94,
      "prevout": {
        "scriptpubkey": "001472884dffd091fdbe69f911c80f0a2e23eaa748f9",
        "scriptpubkey_asm": "OP_0 OP_PUSHBYTES_20 72884dffd091fdbe69f911c80f0a2e23eaa748f9",
        "scriptpubkey_type": "v0_p2wpkh",
        "scriptpubkey_address": "bc1qw2yyml7sj87mu60ez8yq7z3wy042wj8etug5mf",
        "value": 254386
      },
      "scriptsig": "",
      "scriptsig_asm": "",
      "witness": [
        "304402207e124bd83ce06dd6a984a5fa3b6a9ff9ba047069f5f1b59c6af731a473c1bee20220388059c5a92125176455af5e2442fcd1d91087646726720d915fbc0fe8e873de01",
        "03ab615e646f4a1c4750b486a12ebc3761449a400f6dd84ddb04719d86f1a1f214"
      ],
      "is_coinbase": false,
      "sequence": 4294967293
    }
  ],
  "vout": [
    {
      "scriptpubkey": "0014bb571eaf2db33eb17936bf945a5e32b68c59e4e3",
      "scriptpubkey_asm": "OP_0 OP_PUSHBYTES_20 bb571eaf2db33eb17936bf945a5e32b68c59e4e3",
      "scriptpubkey_type": "v0_p2wpkh",
      "scriptpubkey_address": "bc1qhdt3atedkvltz7fkh7295h3jk6x9ne8rq3a7lc",
      "value": 1040235
    }
  ],
  "size": 638,
  "weight": 1253,
  "fee": 8781,
  "status": {
    "confirmed": true,
    "block_height": 834460,
    "block_hash": "00000000000000000000484a79b643b2524bbce82e5d8a442013fa5b8905ed98",
    "block_time": 1710307468
  },
  "hex": "010000000001046be73b9f9f0fc762cfa145c272b31edb01260c28c4bd0f030c8bca9cde59b1fe0400000000fdffffff0942b8dc863bdfad99177cc2334a1ed8b35216c6491021b0c188599e22f81dd00000000000fdffffff6b17841f404f38dddee4e6bfccd0d1e372533c8d1d9de558a0a0cbfc795f3e5b0500000000fdffffff9da7218d92e517512ac361850772622b4f3e0d48aebb084b885d6628977bb7735e00000000fdffffff016bdf0f0000000000160014bb571eaf2db33eb17936bf945a5e32b68c59e4e302483045022100c6fdcfce9f3976acf6067e0bf3e7e18e7d68f43628d6500a34ec38953bcf7c6a022006c7a04b502ce8f97d5b2bf012a0b624cc270f8b8d9a09eaed4081f8e69a5da201210328e17758487a2096505556a0b89b2682fb2788c88ba5200cbb17d089cc8aa6300248304502210096e752ed4fa8e2afa4a0d8bc42334bf0f8397e868578e3be312a0e3b3ee704790220787d805a80a0595ca2c28ef2ca459599b2f423862846f555f59c20dca7a04bb6012103ecec848becceeb9f52a34b9a62d829cf3ba64da061846e06539857aa4569777a02483045022100ec8420843b84784abc6bac06ac0526f7ec1dcce9b7eee422348f43e87aa829c602207c5836986fa10b6948906cb611b2fb5109fda70456886493c5617d917b70b5b30121037def5ecdfa6fafea907e0a287c449f0232452ae76dce91dee9f8b053a3bc368d0247304402207e124bd83ce06dd6a984a5fa3b6a9ff9ba047069f5f1b59c6af731a473c1bee20220388059c5a92125176455af5e2442fcd1d91087646726720d915fbc0fe8e873de012103ab615e646f4a1c4750b486a12ebc3761449a400f6dd84ddb04719d86f1a1f21400000000"
}