{
  "txid": "d255c2af6fc2897d6c4c4eabb50a8414e173006e9f9080b611bcfbeaee826303",
  "version": 1,
  "locktime": 0,
  "vin": [
    {
      "txid": "a6915547463272f797e980de5562339f305c6db4b84eff7e2f819caeeb4f9a28",
      "vout": 0,
      "prevout": {
        "scriptpubkey": "0020dd86beecd5e1d40b6a4f0aed369b6a1e9f89747e5917ea719b755cda41f3d34d",
        "scriptpubkey_asm": "OP_0 OP_PUSHBYTES_32 dd86beecd5e1d40b6a4f0aed369b6a1e9f89747e5917ea719b755cda41f3d34d",
        "scriptpubkey_type": "v0_p2wsh",
        "scriptpubkey_address": "bc1qmkrtamx4u82qk6j0ptkndxm2r60cjar7tyt75uvmw4wd5s0n6dxsx7h70l",
        "value": 9636934
      },
      "scriptsig": "",
      "scriptsig_asm": "",
      "witness": [
        "",
        "3044022003911abf22cb61bb1f1efdd87b4ff11393678c6db5fcf1c41ef3cc68150b1172022019b6d0c8a59deaa0df617161a6629c42f0629ff9f0c873961210a7001a5710f101",
        "3045022100cfed060307692c2ce8b3a83f933ff72f4f71807c44810ebe8d89860c6a3e875d0220017d2d4425eb85682f73b4997170d4b8d3e57079bdad308ebbc14fd06cee3a2601",
        "3045022100d51003b5875351c8013efe791c093ec02acad609496fe46ac6d250880c9d655102204c52cff4e9da16d1b5fee5235a93fd86d00d740390454a5bbebbb88fb9fd3a7101",
        "5321029824e0682fe72a5ce69b918eca86e09891136964503d0f6415a4af85b75523fb2102a5e04ab67cf3fcafed262ab49b348d321a65b04a5a2033457eb6205d3ceef7ab2102f56b13de83df8c32d8335352ca1c6a710364afe4babc2f715247f7cf7e07111b2103923dad5a92169561b71729bbdf147ca28d535da3fd678d5f2781a5ba90a2c0c054ae"
      ],
      "is_coinbase": false,
      "sequence": 4294967293,
      "inner_witnessscript_asm": "OP_PUSHNUM_3 OP_PUSHBYTES_33 029824e0682fe72a5ce69b918eca86e09891136964503d0f6415a4af85b75523fb OP_PUSHBYTES_33 02a5e04ab67cf3fcafed262ab49b348d321a65b04a5a2033457eb6205d3ceef7ab OP_PUSHBYTES_33 02f56b13de83df8c32d8335352ca1c6a710364afe4babc2f715247f7cf7e07111b OP_PUSHBYTES_33 03923dad5a92169561b71729bbdf147ca28d535da3fd678d5f2781a5ba90a2c0c0 OP_PUSHNUM_4 OP_CHECKMULTISIG"
    }
  ],
  "vout": [
    {
      "scriptpubkey": "a9143b4a9b6088f86a08dc73eb9638a700a5ebea3c4d87",
      "scriptpubkey_asm": "OP_HASH160 OP_PUSHBYTES_20 3b4a9b6088f86a08dc73eb9638a700a5ebea3c4d OP_EQUAL",
      "scriptpubkey_type": "p2sh",
      "scriptpubkey_address": "376XAeF6uXS1bHJK6FST6ERfooEZXX5nBs",
      "value": 898260
    },
    {
      "scriptpubkey": "00202a4738024df7a156f587c1a60d02d1c144fd1dfdc9e18c34dce1c9e97bf975ad",
      "scriptpubkey_asm": "OP_0 OP_PUSHBYTES_32 2a4738024df7a156f587c1a60d02d1c144fd1dfdc9e18c34dce1c9e97bf975ad",
      "scriptpubkey_type": "v0_p2wsh",
      "scriptpubkey_address": "bc1q9frnsqjd77s4dav8cxnq6qk3c9z0680ae8sccdxuu8y7j7lewkksetvyg9",
      "value": 8734384
    }
  ],
  "size": 488,
  "weight": 866,
  "fee": 4290,
  "status": {
    "confirmed": true,
    "block_height": 834638,
    "block_hash": "000000000000000000025f742c626208ac87e0b7d15054abb4a19ca2d735a54e",
    "block_time": 1710405325
  },
  "hex": "01000000000101289a4febae9c812f7eff4eb8b46d5c309f336255de80e997f7723246475591a60000000000fdffffff02d4b40d000000000017a9143b4a9b6088f86a08dc73eb9638a700a5ebea3c4d87b0468500000000002200202a4738024df7a156f587c1a60d02d1c144fd1dfdc9e18c34dce1c9e97bf975ad0500473044022003911abf22cb61bb1f1efdd87b4ff11393678c6db5fcf1c41ef3cc68150b1172022019b6d0c8a59deaa0df617161a6629c42f0629ff9f0c873961210a7001a5710f101483045022100cfed060307692c2ce8b3a83f933ff72f4f71807c44810ebe8d89860c6a3e875d0220017d2d4425eb85682f73b4997170d4b8d3e57079bdad308ebbc14fd06cee3a2601483045022100d51003b5875351c8013efe791c093ec02acad609496fe46ac6d250880c9d655102204c52cff4e9da16d1b5fee5235a93fd86d00d740390454a5bbebbb88fb9fd3a71018b5321029824e0682fe72a5ce69b918eca86e09891136964503d0f6415a4af85b75523fb2102a5e04ab67cf3fcafed262ab49b348d321a65b04a5a2033457eb6205d3ceef7ab2102f56b13de83df8c32d8335352ca1c6a710364afe4babc2f715247f7cf7e07111b2103923dad5a92169561b71729bbdf147ca28d535da3fd678d5f2781a5ba90a2c0c054ae00000000"
}