{
  "txid": "d263c02f82edbe2d14b9044902eb3b9abf5a2c0fe52b7e7abe5d83efac857733",
  "version": 2,
  "locktime": 0,
  "vin": [
    {
      "txid": "dd77165dd812ca2e2e8279b94bec9b3c28c006cd4cbfaba68cea6e397e70a9e0",
      "vout": 0,
      "prevout": {
        "scriptpubkey": "001477605b51fc26ae56194c1cfe49ea28bafb337371",
        "scriptpubkey_asm": "OP_0 OP_PUSHBYTES_20 77605b51fc26ae56194c1cfe49ea28bafb337371",
        "scriptpubkey_type": "v0_p2wpkh",
        "scriptpubkey_address": "bc1qwas9k50uy6h9vx2vrnlyn63ghtanxum3hrdvfp",
        "value": 131930
      },
      "scriptsig": "",
      "scriptsig_asm": "",
      "witness": [
        "30450221009281002c1a58802ac2778986dcd42305053f1fbae8eee4b6f092acf23d1d306f022000ff193a8c94255ce1a701589ef28d37ed09d91a92b21d3ad209bc23a62ac48701",
        "03d81b21dbf534e570b0ad9a981e1d685f29cba30b96927331878c65a4664ffde0"
      ],
      "is_coinbase": false,
      "sequence": 4294967295
    }
  ],
  "vout": [
    {
      "scriptpubkey": "001477605b51fc26ae56194c1cfe49ea28bafb337371",
      "scriptpubkey_asm": "OP_0 OP_PUSHBYTES_20 77605b51fc26ae56194c1cfe49ea28bafb337371",
      "scriptpubkey_type": "v0_p2wpkh",
      "scriptpubkey_address": "bc1qwas9k50uy6h9vx2vrnlyn63ghtanxum3hrdvfp",
      "value": 61514
    },
    {
      "scriptpubkey": "001459391637bd63e57b70071575c7d06d05020932d2",
      "scriptpubkey_asm": "OP_0 OP_PUSHBYTES_20 59391637bd63e57b70071575c7d06d05020932d2",
      "scriptpubkey_type": "v0_p2wpkh",
      "scriptpubkey_address": "bc1qtyu3vdaav0jhkuq8z46u05rdq5pqjvkjc07vuz",
      "value": 68327
    }
  ],
  "size": 223,
  "weight": 562,
  "fee": 2089,
  "status": {
    "confirmed": true,
    "block_height": 834552,
    "block_hash": "00000000000000000001dd0468a70c94f619251d286585cff57aeb4bd9ede330",
    "block_time": 1710355598
  },
  "hex": "02000000000101e0a9707e396eea8ca6abbf4ccd06c0283c9bec4bb979822e2eca12d85d1677dd0000000000ffffffff024af000000000000016001477605b51fc26ae56194c1cfe49ea28bafb337371e70a01000000000016001459391637bd63e57b70071575c7d06d05020932d2024830450221009281002c1a58802ac2778986dcd42305053f1fbae8eee4b6f092acf23d1d306f022000ff193a8c94255ce1a701589ef28d37ed09d91a92b21d3ad209bc23a62ac487012103d81b21dbf534e570b0ad9a981e1d685f29cba30b96927331878c65a4664ffde000000000"
}