{
  "txid": "d26ec68f4a8de230c260a37f6e0ca64d37003e7463f3394ad6856f2f532fcba6",
  "version": 2,
  "locktime": 0,
  "vin": [
    {
      "txid": "0da47077b6e3938910c12570ef657a73550bd0aca3a40158f90f36569560044b",
      "vout": 1,
      "prevout": {
        "scriptpubkey": "001483f7443950122df7735a867d516210b98b15c544",
        "scriptpubkey_asm": "OP_0 OP_PUSHBYTES_20 83f7443950122df7735a867d516210b98b15c544",
        "scriptpubkey_type": "v0_p2wpkh",
        "scriptpubkey_address": "bc1qs0m5gw2szgklwu66se74zcsshx93t32ydlx54d",
        "value": 2989045
      },
      "scriptsig": "",
      "scriptsig_asm": "",
      "witness": [
        "3045022100e23805c67000ac8e0e74f57b340c11d7c1a2f7b243a87af413d05593d4e53b9f0220411322c4f5a2e67bca49c986bd163a3b3085f853b396c4e1c01ca62a456f78b001",
        "029f2a1a4f4fc517d8886b44c92282f12752dd48c8a7c207f3754d17737243f10c"
      ],
      "is_coinbase": false,
      "sequence": 4294967293
    }
  ],
  "vout": [
    {
      "scriptpubkey": "00149d8b95b1a1b4ffafd70287045beb6209e9569ff6",
      "scriptpubkey_asm": "OP_0 OP_PUSHBYTES_20 9d8b95b1a1b4ffafd70287045beb6209e9569ff6",
      "scriptpubkey_type": "v0_p2wpkh",
      "scriptpubkey_address": "bc1qnk9etvdpknl6l4czsuz9h6mzp854d8lksnpntw",
      "value": 510000
    },
    {
      "scriptpubkey": "0014af6d6a19e9e7f7bb94cd11310de2413259a8e102",
      "scriptpubkey_asm": "OP_0 OP_PUSHBYTES_20 af6d6a19e9e7f7bb94cd11310de2413259a8e102",
      "scriptpubkey_type": "v0_p2wpkh",
      "scriptpubkey_address": "bc1q4akk5x0fulmmh9xdzycsmcjpxfv63cgzq6ymy3",
      "value": 2474581
    }
  ],
  "size": 223,
  "weight": 562,
  "fee": 4464,
  "status": {
    "confirmed": true,
    "block_height": 834638,
    "block_hash": "000000000000000000025f742c626208ac87e0b7d15054abb4a19ca2d735a54e",
    "block_time": 1710405325
  },
  "hex": "020000000001014b04609556360ff95801a4a3acd00b55737a65ef7025c1108993e3b67770a40d0100000000fdffffff0230c80700000000001600149d8b95b1a1b4ffafd70287045beb6209e9569ff655c2250000000000160014af6d6a19e9e7f7bb94cd11310de2413259a8e10202483045022100e23805c67000ac8e0e74f57b340c11d7c1a2f7b243a87af413d05593d4e53b9f0220411322c4f5a2e67bca49c986bd163a3b3085f853b396c4e1c01ca62a456f78b00121029f2a1a4f4fc517d8886b44c92282f12752dd48c8a7c207f3754d17737243f10c00000000"
}