{
  "txid": "d28dc66b4e32439458fc7fc0ce9afd3f189cbe4bff296bed6cc6febe1df208fd",
  "version": 1,
  "locktime": 0,
  "vin": [
    {
      "txid": "3c8d283a6548d40674d46000a8aea0ad7800b47cc2d4e13891eddf52bc02025c",
      "vout": 5,
      "prevout": {
        "scriptpubkey": "76a91452950c660134197b8aba09be8fa5a0d0db6a079888ac",
        "scriptpubkey_asm": "OP_DUP OP_HASH160 OP_PUSHBYTES_20 52950c660134197b8aba09be8fa5a0d0db6a0798 OP_EQUALVERIFY OP_CHECKSIG",
        "scriptpubkey_type": "p2pkh",
        "scriptpubkey_address": "18XexoCzGPVfK8b1oG9pWpv6cbCBKveucE",
        "value": 8583836
      },
      "scriptsig": "47304402202fdb9cfbf6c21d7b36d3390932032363224fa79280b026247506e4fd4685e74002202b3f097740ade53f73c7e5ec79a58d300ed2b5c58112e195d3d84eb167b59955012102d096dfaff5d7e67440a15be8a76ac4f4b7ce054138da49cc2c728035d29cf9db",
      "scriptsig_asm": "OP_PUSHBYTES_71 304402202fdb9cfbf6c21d7b36d3390932032363224fa79280b026247506e4fd4685e74002202b3f097740ade53f73c7e5ec79a58d300ed2b5c58112e195d3d84eb167b5995501 OP_PUSHBYTES_33 02d096dfaff5d7e67440a15be8a76ac4f4b7ce054138da49cc2c728035d29cf9db",
      "is_coinbase": false,
      "sequence": 4294967295
    },
    {
      "txid": "7357b22068176181596a8b5839a8575025a8cf77f7e049efec5da5559faeda05",
      "vout": 1,
      "prevout": {
        "scriptpubkey": "76a914cbdd393ccb5f82754813e67f4579fc443de4386b88ac",
        "scriptpubkey_asm": "OP_DUP OP_HASH160 OP_PUSHBYTES_20 cbdd393ccb5f82754813e67f4579fc443de4386b OP_EQUALVERIFY OP_CHECKSIG",
        "scriptpubkey_type": "p2pkh",
        "scriptpubkey_address": "1KawBptW3ZyFoCbg636bfLBBiRir11EA7y",
        "value": 2359796
      },
      "scriptsig": "483045022100eccb673a481192a6dca78c25953ebfe287da703b3050224b1295bff8634784a902203e034564eef89f7a4e2bb2b07e17d7f25d8edf2e3083f4aea146a64c68593b4c0121035e038ce47c58b47f00c31ffba4e20a44ea3f10857783a1bdae9ca2244392a16e",
      "scriptsig_asm": "OP_PUSHBYTES_72 3045022100eccb673a481192a6dca78c25953ebfe287da703b3050224b1295bff8634784a902203e034564eef89f7a4e2bb2b07e17d7f25d8edf2e3083f4aea146a64c68593b4c01 OP_PUSHBYTES_33 035e038ce47c58b47f00c31ffba4e20a44ea3f10857783a1bdae9ca2244392a16e",
      "is_coinbase": false,
      "sequence": 4294967295
    },
    {
      "txid": "5d1498b928a5e1f6113cd6e0976b15a23e3f648a84bdc5a6ff5156bd74d76871",
      "vout": 1,
      "prevout": {
        "scriptpubkey": "76a914e4cd75d33531080aad44ad4a4efbe6d859691af088ac",
        "scriptpubkey_asm": "OP_DUP OP_HASH160 OP_PUSHBYTES_20 e4cd75d33531080aad44ad4a4efbe6d859691af0 OP_EQUALVERIFY OP_CHECKSIG",
        "scriptpubkey_type": "p2pkh",
        "scriptpubkey_address": "1MroCNEQWeiUwkU7cY9v45f2GmBurmdhQf",
        "value": 1820504
      },
      "scriptsig": "47304402203eba2c20286c1e38081ab5d7dbda9e4a19872dfecbe92402a147f7eafe5195f60220753a10222983b9dca1de55d8fa3b734d0d7e42c8b31c0d3259c836809515eb1c01210357bb8d76ea0eccf94691259ab098028cea13c9409053603a545be967fc7d477a",
      "scriptsig_asm": "OP_PUSHBYTES_71 304402203eba2c20286c1e38081ab5d7dbda9e4a19872dfecbe92402a147f7eafe5195f60220753a10222983b9dca1de55d8fa3b734d0d7e42c8b31c0d3259c836809515eb1c01 OP_PUSHBYTES_33 0357bb8d76ea0eccf94691259ab098028cea13c9409053603a545be967fc7d477a",
      "is_coinbase": false,
      "sequence": 4294967295
    },
    {
      "txid": "fc91b6fe2293bf6df2fe35b7a886ed22d7211985a771ccba9db48399da4b5270",
      "vout": 1,
      "prevout": {
        "scriptpubkey": "76a914f612d29fb08d87e77a93409ade2311bbe568fa9588ac",
        "scriptpubkey_asm": "OP_DUP OP_HASH160 OP_PUSHBYTES_20 f612d29fb08d87e77a93409ade2311bbe568fa95 OP_EQUALVERIFY OP_CHECKSIG",
        "scriptpubkey_type": "p2pkh",
        "scriptpubkey_address": "1PS7n22xZAu9BXqF6miKW4aAG3yErbDjtf",
        "value": 9977200
      },
      "scriptsig": "4830450221009b50281ad30ed28f2fd0e3298621d46d3d63ee687e19bf74e41a582fceb14a01022018109cd9ebe05e38365da92cc6e9e31eaf2e862dc37598dbd489ae00efa3f13c012102393bd48cf57bdc44015987deed955b4237d2dacda3427b1ebda19f6be303587b",
      "scriptsig_asm": "OP_PUSHBYTES_72 30450221009b50281ad30ed28f2fd0e3298621d46d3d63ee687e19bf74e41a582fceb14a01022018109cd9ebe05e38365da92cc6e9e31eaf2e862dc37598dbd489ae00efa3f13c01 OP_PUSHBYTES_33 02393bd48cf57bdc44015987deed955b4237d2dacda3427b1ebda19f6be303587b",
      "is_coinbase": false,
      "sequence": 4294967295
    }
  ],
  "vout": [
    {
      "scriptpubkey": "a9142252b005e09fd7ec84ef353abf88816c0a2e3b7c87",
      "scriptpubkey_asm": "OP_HASH160 OP_PUSHBYTES_20 2252b005e09fd7ec84ef353abf88816c0a2e3b7c OP_EQUAL",
      "scriptpubkey_type": "p2sh",
      "scriptpubkey_address": "34pVxJNw6avUKRxWC2Yy8vfbd46gqgVZwD",
      "value": 22729888
    }
  ],
  "size": 632,
  "weight": 2528,
  "fee": 11448,
  "status": {
    "confirmed": true,
    "block_height": 834638,
    "block_hash": "000000000000000000025f742c626208ac87e0b7d15054abb4a19ca2d735a54e",
    "block_time": 1710405325
  },
  "hex": "01000000045c0202bc52dfed9138e1d4c27cb40078ada0aea80060d47406d448653a288d3c050000006a47304402202fdb9cfbf6c21d7b36d3390932032363224fa79280b026247506e4fd4685e74002202b3f097740ade53f73c7e5ec79a58d300ed2b5c58112e195d3d84eb167b59955012102d096dfaff5d7e67440a15be8a76ac4f4b7ce054138da49cc2c728035d29cf9dbffffffff05daae9f55a55decef49e0f777cfa8255057a839588b6a598161176820b25773010000006b483045022100eccb673a481192a6dca78c25953ebfe287da703b3050224b1295bff8634784a902203e034564eef89f7a4e2bb2b07e17d7f25d8edf2e3083f4aea146a64c68593b4c0121035e038ce47c58b47f00c31ffba4e20a44ea3f10857783a1bdae9ca2244392a16effffffff7168d774bd5651ffa6c5bd848a643f3ea2156b97e0d63c11f6e1a528b998145d010000006a47304402203eba2c20286c1e38081ab5d7dbda9e4a19872dfecbe92402a147f7eafe5195f60220753a10222983b9dca1de55d8fa3b734d0d7e42c8b31c0d3259c836809515eb1c01210357bb8d76ea0eccf94691259ab098028cea13c9409053603a545be967fc7d477affffffff70524bda9983b49dbacc71a7851921d722ed86a8b735fef26dbf9322feb691fc010000006b4830450221009b50281ad30ed28f2fd0e3298621d46d3d63ee687e19bf74e41a582fceb14a01022018109cd9ebe05e38365da92cc6e9e31eaf2e862dc37598dbd489ae00efa3f13c012102393bd48cf57bdc44015987deed955b4237d2dacda3427b1ebda19f6be303587bffffffff01a0d45a010000000017a9142252b005e09fd7ec84ef353abf88816c0a2e3b7c8700000000"
}