{
  "txid": "d28f1866de6029d2c2b64685ca5f23a3bba98e5867b0251d89432b84ab4a4b36",
  "version": 2,
  "locktime": 0,
  "vin": [
    {
      "txid": "f5884fe4aaeb241226e530b22c5fd1381a01107115166b3e4a4f0483bc9d606e",
      "vout": 10,
      "prevout": {
        "scriptpubkey": "00147ab7381a72ce9ac5923373d347da008d16fb596c",
        "scriptpubkey_asm": "OP_0 OP_PUSHBYTES_20 7ab7381a72ce9ac5923373d347da008d16fb596c",
        "scriptpubkey_type": "v0_p2wpkh",
        "scriptpubkey_address": "bc1q02mnsxnje6dvty3nw0f50ksq35t0kktvjacxxu",
        "value": 190000
      },
      "scriptsig": "",
      "scriptsig_asm": "",
      "witness": [
        "30450221008a8cd0a384738a1aa6179cfa617cbb9389c6bc244b557cdf92caf20c77471b9202207baf8e30d53ef60dc4b3edf3d70d508f86e047d76fce548ea21dd5ebdbf042c901",
        "02d6cc79bcfed3be930e38faad61e815e2f2b841b50111ea699c5e86cf87d5dabe"
      ],
      "is_coinbase": false,
      "sequence": 4294967295
    },
    {
      "txid": "8cb4b3829b96958c170c1dd6a80f63543bb748b0222af9fa72ca1e1eb90bb7a7",
      "vout": 0,
      "prevout": {
        "scriptpubkey": "0014fa61e080b97105cec071589853a277bb853d404f",
        "scriptpubkey_asm": "OP_0 OP_PUSHBYTES_20 fa61e080b97105cec071589853a277bb853d404f",
        "scriptpubkey_type": "v0_p2wpkh",
        "scriptpubkey_address": "bc1qlfs7pq9ewyzuasr3tzv98gnhhwzn6sz07ptfv5",
        "value": 240000
      },
      "scriptsig": "",
      "scriptsig_asm": "",
      "witness": [
        "3044022071e6f856a21796285d5b4ed72520179da3488123b2b8b8ef33fb16bb31d9b21b0220056d802a58247a5a2dee1671bf467e7bf4e6981283a240614e965d42fa04b47b01",
        "0331feb43d6908d796a02733a9abd3f368bbc26987231f2c99ef5b78f6362206b4"
      ],
      "is_coinbase": false,
      "sequence": 4294967295
    }
  ],
  "vout": [
    {
      "scriptpubkey": "001462860fd12b9d8b358a56e3469bcb8ac13bc9defa",
      "scriptpubkey_asm": "OP_0 OP_PUSHBYTES_20 62860fd12b9d8b358a56e3469bcb8ac13bc9defa",
      "scriptpubkey_type": "v0_p2wpkh",
      "scriptpubkey_address": "bc1qv2rql5ftnk9ntzjkudrfhju2cyaunhh668zm7z",
      "value": 378117
    },
    {
      "scriptpubkey": "76a91446b660c453db24e6ebed8bb179299619f758dd7188ac",
      "scriptpubkey_asm": "OP_DUP OP_HASH160 OP_PUSHBYTES_20 46b660c453db24e6ebed8bb179299619f758dd71 OP_EQUALVERIFY OP_CHECKSIG",
      "scriptpubkey_type": "p2pkh",
      "scriptpubkey_address": "17StnGroPUsNXBq4AVJQ1fqGftoFZh3zva",
      "value": 45525
    }
  ],
  "size": 374,
  "weight": 845,
  "fee": 6358,
  "status": {
    "confirmed": true,
    "block_height": 834638,
    "block_hash": "000000000000000000025f742c626208ac87e0b7d15054abb4a19ca2d735a54e",
    "block_time": 1710405325
  },
  "hex": "020000000001026e609dbc83044f4a3e6b16157110011a38d15f2cb230e5261224ebaae44f88f50a00000000ffffffffa7b70bb91e1eca72faf92a22b048b73b54630fa8d61d0c178c95969b82b3b48c0000000000ffffffff0205c505000000000016001462860fd12b9d8b358a56e3469bcb8ac13bc9defad5b10000000000001976a91446b660c453db24e6ebed8bb179299619f758dd7188ac024830450221008a8cd0a384738a1aa6179cfa617cbb9389c6bc244b557cdf92caf20c77471b9202207baf8e30d53ef60dc4b3edf3d70d508f86e047d76fce548ea21dd5ebdbf042c9012102d6cc79bcfed3be930e38faad61e815e2f2b841b50111ea699c5e86cf87d5dabe02473044022071e6f856a21796285d5b4ed72520179da3488123b2b8b8ef33fb16bb31d9b21b0220056d802a58247a5a2dee1671bf467e7bf4e6981283a240614e965d42fa04b47b01210331feb43d6908d796a02733a9abd3f368bbc26987231f2c99ef5b78f6362206b400000000"
}