{
  "txid": "d29d21fae667e384ea891c751b42487777c44df2c8f1eba14f5b2704db92c06b",
  "version": 1,
  "locktime": 0,
  "vin": [
    {
      "txid": "18c8a5f4b9097bceb4535c61b5c003f9557846297549ab704e5f8b72c505fc4b",
      "vout": 6,
      "prevout": {
        "scriptpubkey": "76a914ff364b4971fac145cbd9142cafca0159b581e5bd88ac",
        "scriptpubkey_asm": "OP_DUP OP_HASH160 OP_PUSHBYTES_20 ff364b4971fac145cbd9142cafca0159b581e5bd OP_EQUALVERIFY OP_CHECKSIG",
        "scriptpubkey_type": "p2pkh",
        "scriptpubkey_address": "1QGSMLW4iNbY5968aMrbhSgzByCyYCg266",
        "value": 1371868
      },
      "scriptsig": "47304402205fd5984c719452ac2d00753859b3294ffa4e400a22e9f06e58c66187bc804cfe022049658c1edf90cf07dee1689a417cd1611ad853b0397e6038d503eae8c647ed1f012102e196a69cb6e9265ac696f7de050a4e101433fc5f3aab66353a10618192f37a2e",
      "scriptsig_asm": "OP_PUSHBYTES_71 304402205fd5984c719452ac2d00753859b3294ffa4e400a22e9f06e58c66187bc804cfe022049658c1edf90cf07dee1689a417cd1611ad853b0397e6038d503eae8c647ed1f01 OP_PUSHBYTES_33 02e196a69cb6e9265ac696f7de050a4e101433fc5f3aab66353a10618192f37a2e",
      "is_coinbase": false,
      "sequence": 4294967295
    },
    {
      "txid": "ac71f3da5e4cd2084c8c5defef7e38760d06252c2ad089ff1235a3150084ba2e",
      "vout": 1,
      "prevout": {
        "scriptpubkey": "76a91471ec3fa7d8f2a69843d99abd017962de157ec67088ac",
        "scriptpubkey_asm": "OP_DUP OP_HASH160 OP_PUSHBYTES_20 71ec3fa7d8f2a69843d99abd017962de157ec670 OP_EQUALVERIFY OP_CHECKSIG",
        "scriptpubkey_type": "p2pkh",
        "scriptpubkey_address": "1BPNNXE9t6rDFSxxGNFcZfKYafRv1jaU6u",
        "value": 2150000
      },
      "scriptsig": "483045022100bda6c35594c717c5e40f6b5e4c6de8d24fbf0de269047c3c7a37be860e26b63102204747b98c0c612bb5451ef00a6b258773b5f76bbbd65f7e33127f21a0a4b097b90121032e9e52d3b0533250db777d27822b7ce1945ddc4191b10c85ffd30cf52b61325b",
      "scriptsig_asm": "OP_PUSHBYTES_72 3045022100bda6c35594c717c5e40f6b5e4c6de8d24fbf0de269047c3c7a37be860e26b63102204747b98c0c612bb5451ef00a6b258773b5f76bbbd65f7e33127f21a0a4b097b901 OP_PUSHBYTES_33 032e9e52d3b0533250db777d27822b7ce1945ddc4191b10c85ffd30cf52b61325b",
      "is_coinbase": false,
      "sequence": 4294967295
    }
  ],
  "vout": [
    {
      "scriptpubkey": "001468068bfd00727003c1d9cced6f967b79444d85b5",
      "scriptpubkey_asm": "OP_0 OP_PUSHBYTES_20 68068bfd00727003c1d9cced6f967b79444d85b5",
      "scriptpubkey_type": "v0_p2wpkh",
      "scriptpubkey_address": "bc1qdqrghlgqwfcq8sweenkkl9nm09zympd44ka2ux",
      "value": 514468
    },
    {
      "scriptpubkey": "0014b647c1ac898af569f67abced61310d2ec3651eff",
      "scriptpubkey_asm": "OP_0 OP_PUSHBYTES_20 b647c1ac898af569f67abced61310d2ec3651eff",
      "scriptpubkey_type": "v0_p2wpkh",
      "scriptpubkey_address": "bc1qkerurtyf3t6knan6hnkkzvgd9mpk28hllsjeee",
      "value": 3000000
    }
  ],
  "size": 367,
  "weight": 1468,
  "fee": 7400,
  "status": {
    "confirmed": true,
    "block_height": 834638,
    "block_hash": "000000000000000000025f742c626208ac87e0b7d15054abb4a19ca2d735a54e",
    "block_time": 1710405325
  },
  "hex": "01000000024bfc05c5728b5f4e70ab497529467855f903c0b5615c53b4ce7b09b9f4a5c818060000006a47304402205fd5984c719452ac2d00753859b3294ffa4e400a22e9f06e58c66187bc804cfe022049658c1edf90cf07dee1689a417cd1611ad853b0397e6038d503eae8c647ed1f012102e196a69cb6e9265ac696f7de050a4e101433fc5f3aab66353a10618192f37a2effffffff2eba840015a33512ff89d02a2c25060d76387eefef5d8c4c08d24c5edaf371ac010000006b483045022100bda6c35594c717c5e40f6b5e4c6de8d24fbf0de269047c3c7a37be860e26b63102204747b98c0c612bb5451ef00a6b258773b5f76bbbd65f7e33127f21a0a4b097b90121032e9e52d3b0533250db777d27822b7ce1945ddc4191b10c85ffd30cf52b61325bffffffff02a4d907000000000016001468068bfd00727003c1d9cced6f967b79444d85b5c0c62d0000000000160014b647c1ac898af569f67abced61310d2ec3651eff00000000"
}