{
  "txid": "d2a0916a6ae0e4037136a12b442ab61184b78e6a8e097a0c9cd2a50ea89b6648",
  "version": 2,
  "locktime": 0,
  "vin": [
    {
      "txid": "9ac66cf5c76291ce47b05b005d65b0d1dcd63882185176b693dd81ecb7b30a43",
      "vout": 3,
      "prevout": {
        "scriptpubkey": "51205d01c86976afd5bcc8624b22384c8ff2f896c0810146f108ffae7eaef0050d31",
        "scriptpubkey_asm": "OP_PUSHNUM_1 OP_PUSHBYTES_32 5d01c86976afd5bcc8624b22384c8ff2f896c0810146f108ffae7eaef0050d31",
        "scriptpubkey_type": "v1_p2tr",
        "scriptpubkey_address": "bc1pt5qus6tk4l2mejrzfv3rsny07tufdsypq9r0zz8l4el2auq9p5csedw522",
        "value": 600
      },
      "scriptsig": "",
      "scriptsig_asm": "",
      "witness": [
        "c588f42fb0b32df66dabb3d0b2053d7d42b209c207ff778c9ade9b7a6600b79bdaebca0d0a3ba9f9a471142d32c657102f97b8027eb1575375997c751fc47fb5"
      ],
      "is_coinbase": false,
      "sequence": 4294967295
    },
    {
      "txid": "9ac66cf5c76291ce47b05b005d65b0d1dcd63882185176b693dd81ecb7b30a43",
      "vout": 9,
      "prevout": {
        "scriptpubkey": "51205d01c86976afd5bcc8624b22384c8ff2f896c0810146f108ffae7eaef0050d31",
        "scriptpubkey_asm": "OP_PUSHNUM_1 OP_PUSHBYTES_32 5d01c86976afd5bcc8624b22384c8ff2f896c0810146f108ffae7eaef0050d31",
        "scriptpubkey_type": "v1_p2tr",
        "scriptpubkey_address": "bc1pt5qus6tk4l2mejrzfv3rsny07tufdsypq9r0zz8l4el2auq9p5csedw522",
        "value": 600
      },
      "scriptsig": "",
      "scriptsig_asm": "",
      "witness": [
        "abad8eb5dd564078f5cc6665b11b614070b4dc8f2708294af6313294bfa72f8967673f9e7973c9f7999e75fb269aa6e0e5b1143a757eee0793175cbb844c846f"
      ],
      "is_coinbase": false,
      "sequence": 4294967295
    },
    {
      "txid": "8532a781e58ea2054ba73ac199903118a56a0c08736dc022b0ea2bfbcd7689de",
      "vout": 1,
      "prevout": {
        "scriptpubkey": "51201a6de8952b0ca76a1bb8c85438c2b4afb3b104d6faf4726cf2535726520dc5f1",
        "scriptpubkey_asm": "OP_PUSHNUM_1 OP_PUSHBYTES_32 1a6de8952b0ca76a1bb8c85438c2b4afb3b104d6faf4726cf2535726520dc5f1",
        "scriptpubkey_type": "v1_p2tr",
        "scriptpubkey_address": "bc1prfk739ftpjnk5xacep2r3s4547emzpxklt68ym8j2dtjv5sdchcsa242ur",
        "value": 555
      },
      "scriptsig": "",
      "scriptsig_asm": "",
      "witness": [
        "a3f08b5f3eb9ad684ff5609ccfda34f99f29da4ab6c6ec5727b8e46fd0c25a0daa86773e4fb5235e136756e16e706c727df4a4469ebc3bacda5c234e6f11324683"
      ],
      "is_coinbase": false,
      "sequence": 4294967295
    },
    {
      "txid": "d3c6cb1d62fcaf6c9c8da4477f305709d771fefd4b1ed01c3c191f658188ad24",
      "vout": 74,
      "prevout": {
        "scriptpubkey": "51205d01c86976afd5bcc8624b22384c8ff2f896c0810146f108ffae7eaef0050d31",
        "scriptpubkey_asm": "OP_PUSHNUM_1 OP_PUSHBYTES_32 5d01c86976afd5bcc8624b22384c8ff2f896c0810146f108ffae7eaef0050d31",
        "scriptpubkey_type": "v1_p2tr",
        "scriptpubkey_address": "bc1pt5qus6tk4l2mejrzfv3rsny07tufdsypq9r0zz8l4el2auq9p5csedw522",
        "value": 6590000
      },
      "scriptsig": "",
      "scriptsig_asm": "",
      "witness": [
        "2f7c60d7e91c97629e604a2e87eafe6ae7d80ad32017a06a190fd8b56bc73447ef7af724d87fe6d108b68372480b3282b49ae3c90199607b3630c384df75851f"
      ],
      "is_coinbase": false,
      "sequence": 4294967295
    },
    {
      "txid": "24870c2cb2f23fd7666ff5266d0c64d62eaadafca4cc734498e331040b9086b3",
      "vout": 2,
      "prevout": {
        "scriptpubkey": "51205d01c86976afd5bcc8624b22384c8ff2f896c0810146f108ffae7eaef0050d31",
        "scriptpubkey_asm": "OP_PUSHNUM_1 OP_PUSHBYTES_32 5d01c86976afd5bcc8624b22384c8ff2f896c0810146f108ffae7eaef0050d31",
        "scriptpubkey_type": "v1_p2tr",
        "scriptpubkey_address": "bc1pt5qus6tk4l2mejrzfv3rsny07tufdsypq9r0zz8l4el2auq9p5csedw522",
        "value": 1000000
      },
      "scriptsig": "",
      "scriptsig_asm": "",
      "witness": [
        "00880c7ce0a9a2567977324fd07504ea78183a7f39187cdc0a6d53c259c866d1ccb44725e7417d23d6e339b330e5a9b039ad7bf512294cdcb850c654563a674d"
      ],
      "is_coinbase": false,
      "sequence": 4294967295
    }
  ],
  "vout": [
    {
      "scriptpubkey": "51205d01c86976afd5bcc8624b22384c8ff2f896c0810146f108ffae7eaef0050d31",
      "scriptpubkey_asm": "OP_PUSHNUM_1 OP_PUSHBYTES_32 5d01c86976afd5bcc8624b22384c8ff2f896c0810146f108ffae7eaef0050d31",
      "scriptpubkey_type": "v1_p2tr",
      "scriptpubkey_address": "bc1pt5qus6tk4l2mejrzfv3rsny07tufdsypq9r0zz8l4el2auq9p5csedw522",
      "value": 1200
    },
    {
      "scriptpubkey": "51205d01c86976afd5bcc8624b22384c8ff2f896c0810146f108ffae7eaef0050d31",
      "scriptpubkey_asm": "OP_PUSHNUM_1 OP_PUSHBYTES_32 5d01c86976afd5bcc8624b22384c8ff2f896c0810146f108ffae7eaef0050d31",
      "scriptpubkey_type": "v1_p2tr",
      "scriptpubkey_address": "bc1pt5qus6tk4l2mejrzfv3rsny07tufdsypq9r0zz8l4el2auq9p5csedw522",
      "value": 555
    },
    {
      "scriptpubkey": "a91444da563f9f6262f9f72659cdb69e5fa80ba632ee87",
      "scriptpubkey_asm": "OP_HASH160 OP_PUSHBYTES_20 44da563f9f6262f9f72659cdb69e5fa80ba632ee OP_EQUAL",
      "scriptpubkey_type": "p2sh",
      "scriptpubkey_address": "37y5RuJUseb3ZkWmVwPEJ8ocJj5xuZ9YwD",
      "value": 6955605
    },
    {
      "scriptpubkey": "a914ea6b832a05c6ca578baa3836f3f25553d41068a587",
      "scriptpubkey_asm": "OP_HASH160 OP_PUSHBYTES_20 ea6b832a05c6ca578baa3836f3f25553d41068a5 OP_EQUAL",
      "scriptpubkey_type": "p2sh",
      "scriptpubkey_address": "3P4WqXDbSLRhzo2H6MT6YFbvBKBDPLbVtQ",
      "value": 174750
    },
    {
      "scriptpubkey": "51205d01c86976afd5bcc8624b22384c8ff2f896c0810146f108ffae7eaef0050d31",
      "scriptpubkey_asm": "OP_PUSHNUM_1 OP_PUSHBYTES_32 5d01c86976afd5bcc8624b22384c8ff2f896c0810146f108ffae7eaef0050d31",
      "scriptpubkey_type": "v1_p2tr",
      "scriptpubkey_address": "bc1pt5qus6tk4l2mejrzfv3rsny07tufdsypq9r0zz8l4el2auq9p5csedw522",
      "value": 600
    },
    {
      "scriptpubkey": "51205d01c86976afd5bcc8624b22384c8ff2f896c0810146f108ffae7eaef0050d31",
      "scriptpubkey_asm": "OP_PUSHNUM_1 OP_PUSHBYTES_32 5d01c86976afd5bcc8624b22384c8ff2f896c0810146f108ffae7eaef0050d31",
      "scriptpubkey_type": "v1_p2tr",
      "scriptpubkey_address": "bc1pt5qus6tk4l2mejrzfv3rsny07tufdsypq9r0zz8l4el2auq9p5csedw522",
      "value": 600
    },
    {
      "scriptpubkey": "51205d01c86976afd5bcc8624b22384c8ff2f896c0810146f108ffae7eaef0050d31",
      "scriptpubkey_asm": "OP_PUSHNUM_1 OP_PUSHBYTES_32 5d01c86976afd5bcc8624b22384c8ff2f896c0810146f108ffae7eaef0050d31",
      "scriptpubkey_type": "v1_p2tr",
      "scriptpubkey_address": "bc1pt5qus6tk4l2mejrzfv3rsny07tufdsypq9r0zz8l4el2auq9p5csedw522",
      "value": 448023
    }
  ],
  "size": 827,
  "weight": 2309,
  "fee": 10422,
  "status": {
    "confirmed": true,
    "block_height": 834638,
    "block_hash": "000000000000000000025f742c626208ac87e0b7d15054abb4a19ca2d735a54e",
    "block_time": 1710405325
  },
  "hex": "02000000000105430ab3b7ec81dd93b67651188238d6dcd1b0655d005bb047ce9162c7f56cc69a0300000000ffffffff430ab3b7ec81dd93b67651188238d6dcd1b0655d005bb047ce9162c7f56cc69a0900000000ffffffffde8976cdfb2beab022c06d73080c6aa518319099c13aa74b05a28ee581a732850100000000ffffffff24ad8881651f193c1cd01e4bfdfe71d70957307f47a48d9c6caffc621dcbc6d34a00000000ffffffffb386900b0431e3984473cca4fcdaaa2ed6640c6d26f56f66d73ff2b22c0c87240200000000ffffffff07b0040000000000002251205d01c86976afd5bcc8624b22384c8ff2f896c0810146f108ffae7eaef0050d312b020000000000002251205d01c86976afd5bcc8624b22384c8ff2f896c0810146f108ffae7eaef0050d3155226a000000000017a91444da563f9f6262f9f72659cdb69e5fa80ba632ee879eaa02000000000017a914ea6b832a05c6ca578baa3836f3f25553d41068a58758020000000000002251205d01c86976afd5bcc8624b22384c8ff2f896c0810146f108ffae7eaef0050d3158020000000000002251205d01c86976afd5bcc8624b22384c8ff2f896c0810146f108ffae7eaef0050d3117d60600000000002251205d01c86976afd5bcc8624b22384c8ff2f896c0810146f108ffae7eaef0050d310140c588f42fb0b32df66dabb3d0b2053d7d42b209c207ff778c9ade9b7a6600b79bdaebca0d0a3ba9f9a471142d32c657102f97b8027eb1575375997c751fc47fb50140abad8eb5dd564078f5cc6665b11b614070b4dc8f2708294af6313294bfa72f8967673f9e7973c9f7999e75fb269aa6e0e5b1143a757eee0793175cbb844c846f0141a3f08b5f3eb9ad684ff5609ccfda34f99f29da4ab6c6ec5727b8e46fd0c25a0daa86773e4fb5235e136756e16e706c727df4a4469ebc3bacda5c234e6f1132468301402f7c60d7e91c97629e604a2e87eafe6ae7d80ad32017a06a190fd8b56bc73447ef7af724d87fe6d108b68372480b3282b49ae3c90199607b3630c384df75851f014000880c7ce0a9a2567977324fd07504ea78183a7f39187cdc0a6d53c259c866d1ccb44725e7417d23d6e339b330e5a9b039ad7bf512294cdcb850c654563a674d00000000"
}