{
  "txid": "d2a2f318c9ad17565842fcc9894f69083324e112028c329b2152a6a40f2c60c5",
  "version": 1,
  "locktime": 0,
  "vin": [
    {
      "txid": "88888881d1a6e9563a2c8e4afd1a8105409e9e505b6f438ad39124aafe07da75",
      "vout": 0,
      "prevout": {
        "scriptpubkey": "5120857f43ac07e1936fc23c7740730de9c7f92073f487507bdbc95e5ec62d034fa3",
        "scriptpubkey_asm": "OP_PUSHNUM_1 OP_PUSHBYTES_32 857f43ac07e1936fc23c7740730de9c7f92073f487507bdbc95e5ec62d034fa3",
        "scriptpubkey_type": "v1_p2tr",
        "scriptpubkey_address": "bc1ps4l58tq8uxfkls3uwaq8xr0fclujqul5sag8hk7fte0vvtgrf73shrpn7r",
        "value": 11704
      },
      "scriptsig": "",
      "scriptsig_asm": "",
      "witness": [
        "aea5deb876bd29f713a00b982d7c10ceee41f3b83453db2d0bf92087b0b37106f63706712b211d9f9edec9bb4616e9a080653db1a8d7a2ca826f38053284006c",
        "20c939a6c99941b6d3b54ce120ec99b1597a9557352a600150e097bc361ea60299ac00630461746f6d03646d7442a16461726773a46474696d651a65dc1f80656e6f6e636519250c68626974776f726b6369383838383838382e316b6d696e745f7469636b657268696e66696e69747968",
        "c0c939a6c99941b6d3b54ce120ec99b1597a9557352a600150e097bc361ea60299"
      ],
      "is_coinbase": false,
      "sequence": 1
    }
  ],
  "vout": [
    {
      "scriptpubkey": "5120b510c4cbbd9adad0840a5f50b2fbc7bb1d8231996d5f115e52bb89456507f42a",
      "scriptpubkey_asm": "OP_PUSHNUM_1 OP_PUSHBYTES_32 b510c4cbbd9adad0840a5f50b2fbc7bb1d8231996d5f115e52bb89456507f42a",
      "scriptpubkey_type": "v1_p2tr",
      "scriptpubkey_address": "bc1pk5gvfjaantddppq2tagt9778hvwcyvved403zhjjhwy52eg87s4qdwylgf",
      "value": 9999
    }
  ],
  "size": 310,
  "weight": 592,
  "fee": 1705,
  "status": {
    "confirmed": true,
    "block_height": 834464,
    "block_hash": "0000000000000000000177a0869a911a2b65c9bdcd5a8bcb02b68f305bee848e",
    "block_time": 1710308296
  },
  "hex": "0100000000010175da07feaa2491d38a436f5b509e9e4005811afd4a8e2c3a56e9a6d181888888000000000001000000010f27000000000000225120b510c4cbbd9adad0840a5f50b2fbc7bb1d8231996d5f115e52bb89456507f42a0340aea5deb876bd29f713a00b982d7c10ceee41f3b83453db2d0bf92087b0b37106f63706712b211d9f9edec9bb4616e9a080653db1a8d7a2ca826f38053284006c7120c939a6c99941b6d3b54ce120ec99b1597a9557352a600150e097bc361ea60299ac00630461746f6d03646d7442a16461726773a46474696d651a65dc1f80656e6f6e636519250c68626974776f726b6369383838383838382e316b6d696e745f7469636b657268696e66696e6974796821c0c939a6c99941b6d3b54ce120ec99b1597a9557352a600150e097bc361ea6029900000000"
}