{
  "txid": "d2a4fb2e495941e24a46865e81d5abe3b680002bd22af8f47122f259c20bd12c",
  "version": 2,
  "locktime": 0,
  "vin": [
    {
      "txid": "acc3ba00869acb582a3f2904ce3a11dd3779350ce234063fc7d0959246213364",
      "vout": 281,
      "prevout": {
        "scriptpubkey": "51200ba7d433f6639f51d499bc52466c1c18f8e3dca7e6bb0ffdd744133945b06d4b",
        "scriptpubkey_asm": "OP_PUSHNUM_1 OP_PUSHBYTES_32 0ba7d433f6639f51d499bc52466c1c18f8e3dca7e6bb0ffdd744133945b06d4b",
        "scriptpubkey_type": "v1_p2tr",
        "scriptpubkey_address": "bc1ppwnagvlkvw04r4yeh3fyvmqurruw8h98u6asllwhgsfnj3dsd49s55z2x3",
        "value": 1806
      },
      "scriptsig": "",
      "scriptsig_asm": "",
      "witness": [
        "bd8b7f201fe05f07361449006881eec56d1e1c0f64d01befd9224cd9bff39e123941a58a501ff0d6a2dd419a4886141e2a3ffd3dc56ebdf45039a718f8e35e7c",
        "20dddf86175a4f533a142342f1c0f3167dcb35b189a4845b753f69d4dd5030f48dac0063036f726401010a746578742f706c61696e00357b2270223a226272632d3230222c226f70223a226d696e74222c227469636b223a22646f6765222c22616d74223a2234323030227d68",
        "c0dddf86175a4f533a142342f1c0f3167dcb35b189a4845b753f69d4dd5030f48d"
      ],
      "is_coinbase": false,
      "sequence": 4261412863
    }
  ],
  "vout": [
    {
      "scriptpubkey": "00147a665de7a370f4c9b372ab1fae587500a5bcbdb4",
      "scriptpubkey_asm": "OP_0 OP_PUSHBYTES_20 7a665de7a370f4c9b372ab1fae587500a5bcbdb4",
      "scriptpubkey_type": "v0_p2wpkh",
      "scriptpubkey_address": "bc1q0fn9mearwr6vnvmj4v06ukr4qzjme0d565dzcx",
      "value": 294
    }
  ],
  "size": 294,
  "weight": 540,
  "fee": 1512,
  "status": {
    "confirmed": true,
    "block_height": 834460,
    "block_hash": "00000000000000000000484a79b643b2524bbce82e5d8a442013fa5b8905ed98",
    "block_time": 1710307468
  },
  "hex": "02000000000101643321469295d0c73f0634e20c357937dd113ace04293f2a58cb9a8600bac3ac1901000000fffffffd0126010000000000001600147a665de7a370f4c9b372ab1fae587500a5bcbdb40340bd8b7f201fe05f07361449006881eec56d1e1c0f64d01befd9224cd9bff39e123941a58a501ff0d6a2dd419a4886141e2a3ffd3dc56ebdf45039a718f8e35e7c6d20dddf86175a4f533a142342f1c0f3167dcb35b189a4845b753f69d4dd5030f48dac0063036f726401010a746578742f706c61696e00357b2270223a226272632d3230222c226f70223a226d696e74222c227469636b223a22646f6765222c22616d74223a2234323030227d6821c0dddf86175a4f533a142342f1c0f3167dcb35b189a4845b753f69d4dd5030f48d00000000"
}