{
  "txid": "d2a658cb618779e9c0e32b1112be65dd2419680d3041c777e2e918fec0985c3e",
  "version": 1,
  "locktime": 0,
  "vin": [
    {
      "txid": "cc1ac00effce4c02d85678316cbf8b5b809871604d304b88265fb2730adb665c",
      "vout": 6,
      "prevout": {
        "scriptpubkey": "00140dfbc6bd5bc0b0430647cb3ab31bc69831fc0206",
        "scriptpubkey_asm": "OP_0 OP_PUSHBYTES_20 0dfbc6bd5bc0b0430647cb3ab31bc69831fc0206",
        "scriptpubkey_type": "v0_p2wpkh",
        "scriptpubkey_address": "bc1qphaud02mczcyxpj8evatxx7xnqclcqsxes390v",
        "value": 916132
      },
      "scriptsig": "",
      "scriptsig_asm": "",
      "witness": [
        "30450221008878dfcf585dd1fca6324269b3790a458de0c94e3a28985e300499a1c334e25f02202975405f4351451a583c3f0b7874fbb6581176d3df2d4b4fd1d053d755d38ea301",
        "02af42a16a14c8a8a998ae759abcda71b75482ff4a76991f50381677afd519baa4"
      ],
      "is_coinbase": false,
      "sequence": 4294967293
    },
    {
      "txid": "c8dcb2d4f3594877a07918f5b0bd64ae6f64d6d9fe6b2ee810dba3f23753a3d2",
      "vout": 84,
      "prevout": {
        "scriptpubkey": "001410e1dcb025f3f69cc307c1f4b6858f1f39b9af9f",
        "scriptpubkey_asm": "OP_0 OP_PUSHBYTES_20 10e1dcb025f3f69cc307c1f4b6858f1f39b9af9f",
        "scriptpubkey_type": "v0_p2wpkh",
        "scriptpubkey_address": "bc1qzrsaevp970mfesc8c86tdpv0ruumntulpg4xzm",
        "value": 500309
      },
      "scriptsig": "",
      "scriptsig_asm": "",
      "witness": [
        "30450221009bdc0f2276b7ec46334a874818159cbceb2f873c6391528b458db7200035880f0220391ab4c78aad0a64242772fe7b62c2d817eac893234f2d374902011ea0607b7401",
        "023fefa3a3ab81ec8aa370d9aa01d63595441459fc25817dacda82f3d980cea2f0"
      ],
      "is_coinbase": false,
      "sequence": 4294967293
    },
    {
      "txid": "2d3d93270e8d07c06727457ffb0bda5976782fdcbab325a34c59871dbbf38453",
      "vout": 0,
      "prevout": {
        "scriptpubkey": "0014f04d31d2b5b54e48d820759651a2d6779114393d",
        "scriptpubkey_asm": "OP_0 OP_PUSHBYTES_20 f04d31d2b5b54e48d820759651a2d6779114393d",
        "scriptpubkey_type": "v0_p2wpkh",
        "scriptpubkey_address": "bc1q7pxnr544k48y3kpqwkt9rgkkw7g3gwfaya2xaw",
        "value": 88165
      },
      "scriptsig": "",
      "scriptsig_asm": "",
      "witness": [
        "30450221008427ad1d7e4fd11dd350be4bf29586f69aa2355eff62a90fede0f51b6507459802201d8ebc1ffea9719cd867f5afc1b6b3a06f872e153c4d8a4b1ff3e3200df78a7301",
        "030e3e4f0da680fe687564f957b5f854e9ad2e761686cae0026d53a08e7ad67b6d"
      ],
      "is_coinbase": false,
      "sequence": 4294967293
    }
  ],
  "vout": [
    {
      "scriptpubkey": "76a9147f83e54e2b50701c7512a1b228b447a6d49ee8ea88ac",
      "scriptpubkey_asm": "OP_DUP OP_HASH160 OP_PUSHBYTES_20 7f83e54e2b50701c7512a1b228b447a6d49ee8ea OP_EQUALVERIFY OP_CHECKSIG",
      "scriptpubkey_type": "p2pkh",
      "scriptpubkey_address": "1CdEpe1L2cU2EFk6FYw3s1A3DqWXgagHc7",
      "value": 1497166
    }
  ],
  "size": 493,
  "weight": 994,
  "fee": 7440,
  "status": {
    "confirmed": true,
    "block_height": 834638,
    "block_hash": "000000000000000000025f742c626208ac87e0b7d15054abb4a19ca2d735a54e",
    "block_time": 1710405325
  },
  "hex": "010000000001035c66db0a73b25f26884b304d607198805b8bbf6c317856d8024cceff0ec01acc0600000000fdffffffd2a35337f2a3db10e82e6bfed9d6646fae64bdb0f51879a0774859f3d4b2dcc85400000000fdffffff5384f3bb1d87594ca325b3badc2f787659da0bfb7f452767c0078d0e27933d2d0000000000fdffffff014ed81600000000001976a9147f83e54e2b50701c7512a1b228b447a6d49ee8ea88ac024830450221008878dfcf585dd1fca6324269b3790a458de0c94e3a28985e300499a1c334e25f02202975405f4351451a583c3f0b7874fbb6581176d3df2d4b4fd1d053d755d38ea3012102af42a16a14c8a8a998ae759abcda71b75482ff4a76991f50381677afd519baa4024830450221009bdc0f2276b7ec46334a874818159cbceb2f873c6391528b458db7200035880f0220391ab4c78aad0a64242772fe7b62c2d817eac893234f2d374902011ea0607b740121023fefa3a3ab81ec8aa370d9aa01d63595441459fc25817dacda82f3d980cea2f0024830450221008427ad1d7e4fd11dd350be4bf29586f69aa2355eff62a90fede0f51b6507459802201d8ebc1ffea9719cd867f5afc1b6b3a06f872e153c4d8a4b1ff3e3200df78a730121030e3e4f0da680fe687564f957b5f854e9ad2e761686cae0026d53a08e7ad67b6d00000000"
}