{
  "txid": "d2c58b18c7f724fc92031de6869dfce8787b6330e4ebc9c01856b977eb6f33c5",
  "version": 2,
  "locktime": 0,
  "vin": [
    {
      "txid": "953da112836526a0842f2096b64abb78f90484b6fdf8e65bd9c5e69ea9a419eb",
      "vout": 0,
      "prevout": {
        "scriptpubkey": "76a914e8370eaa39a8e0e427ea1ce3f9986ec0b7e87b0788ac",
        "scriptpubkey_asm": "OP_DUP OP_HASH160 OP_PUSHBYTES_20 e8370eaa39a8e0e427ea1ce3f9986ec0b7e87b07 OP_EQUALVERIFY OP_CHECKSIG",
        "scriptpubkey_type": "p2pkh",
        "scriptpubkey_address": "1NAqixD81LnZnMFNGRK32irAEQeefbS7ec",
        "value": 23689
      },
      "scriptsig": "47304402203fa3c0ca5462e4b28d629e428062ce49e64d1537c406ad699a879f319b523674022060183cc1aabde74d9445b3fb1d73eccbf24827b24766d978ac896c373fe0ee220121023e875c5f807106f7b39bfa951d035634cf655fb12428347758f55254c373a6d3",
      "scriptsig_asm": "OP_PUSHBYTES_71 304402203fa3c0ca5462e4b28d629e428062ce49e64d1537c406ad699a879f319b523674022060183cc1aabde74d9445b3fb1d73eccbf24827b24766d978ac896c373fe0ee2201 OP_PUSHBYTES_33 023e875c5f807106f7b39bfa951d035634cf655fb12428347758f55254c373a6d3",
      "is_coinbase": false,
      "sequence": 4294967295
    }
  ],
  "vout": [
    {
      "scriptpubkey": "76a914adc6f6d0bb45ff6313ae130a739c36931139052588ac",
      "scriptpubkey_asm": "OP_DUP OP_HASH160 OP_PUSHBYTES_20 adc6f6d0bb45ff6313ae130a739c369311390525 OP_EQUALVERIFY OP_CHECKSIG",
      "scriptpubkey_type": "p2pkh",
      "scriptpubkey_address": "1GqrFTTpeZBVAFLUMwh1Qks9vzr9wRcH1g",
      "value": 20399
    }
  ],
  "size": 191,
  "weight": 764,
  "fee": 3290,
  "status": {
    "confirmed": true,
    "block_height": 834638,
    "block_hash": "000000000000000000025f742c626208ac87e0b7d15054abb4a19ca2d735a54e",
    "block_time": 1710405325
  },
  "hex": "0200000001eb19a4a99ee6c5d95be6f8fdb68404f978bb4ab696202f84a026658312a13d95000000006a47304402203fa3c0ca5462e4b28d629e428062ce49e64d1537c406ad699a879f319b523674022060183cc1aabde74d9445b3fb1d73eccbf24827b24766d978ac896c373fe0ee220121023e875c5f807106f7b39bfa951d035634cf655fb12428347758f55254c373a6d3ffffffff01af4f0000000000001976a914adc6f6d0bb45ff6313ae130a739c36931139052588ac00000000"
}