{
  "txid": "d2dda4c08eb46128861dbd7888afdc57f54e91525017dfca043206965686fb81",
  "version": 2,
  "locktime": 0,
  "vin": [
    {
      "txid": "77863e2a9440a3a41b44fb99281ee99b547a9804afd9db4ab5c22416edc14e7c",
      "vout": 10,
      "prevout": {
        "scriptpubkey": "51205cddb97e6faaee821ddbd2aa0e2e5406209636402574cd590b87b33c3c90460e",
        "scriptpubkey_asm": "OP_PUSHNUM_1 OP_PUSHBYTES_32 5cddb97e6faaee821ddbd2aa0e2e5406209636402574cd590b87b33c3c90460e",
        "scriptpubkey_type": "v1_p2tr",
        "scriptpubkey_address": "bc1ptnwmjln04thgy8wm624qutj5qcsfvdjqy46v6kgts7enc0ysgc8qfmda5r",
        "value": 67479
      },
      "scriptsig": "",
      "scriptsig_asm": "",
      "witness": [
        "aa5bc756f53f815bc3b9da8288b5989f22f26a636d236c4572553ccf13451ec40b38b42d3fe7a310f884c72c39299e0e77a41a7af8d3d0d06ac55fca0078381b"
      ],
      "is_coinbase": false,
      "sequence": 4294967295
    }
  ],
  "vout": [
    {
      "scriptpubkey": "5120ede757d3fbf1a16aa6d77db679e75f86bfb70956f08e21323a14af1954c26265",
      "scriptpubkey_asm": "OP_PUSHNUM_1 OP_PUSHBYTES_32 ede757d3fbf1a16aa6d77db679e75f86bfb70956f08e21323a14af1954c26265",
      "scriptpubkey_type": "v1_p2tr",
      "scriptpubkey_address": "bc1pahn405lm7xsk4fkh0km8ne6ls6lmwz2k7z8zzv36zjh3j4xzvfjspvzp07",
      "value": 43000
    },
    {
      "scriptpubkey": "51205cddb97e6faaee821ddbd2aa0e2e5406209636402574cd590b87b33c3c90460e",
      "scriptpubkey_asm": "OP_PUSHNUM_1 OP_PUSHBYTES_32 5cddb97e6faaee821ddbd2aa0e2e5406209636402574cd590b87b33c3c90460e",
      "scriptpubkey_type": "v1_p2tr",
      "scriptpubkey_address": "bc1ptnwmjln04thgy8wm624qutj5qcsfvdjqy46v6kgts7enc0ysgc8qfmda5r",
      "value": 22631
    }
  ],
  "size": 205,
  "weight": 616,
  "fee": 1848,
  "status": {
    "confirmed": true,
    "block_height": 834460,
    "block_hash": "00000000000000000000484a79b643b2524bbce82e5d8a442013fa5b8905ed98",
    "block_time": 1710307468
  },
  "hex": "020000000001017c4ec1ed1624c2b54adbd9af04987a549be91e2899fb441ba4a340942a3e86770a00000000ffffffff02f8a7000000000000225120ede757d3fbf1a16aa6d77db679e75f86bfb70956f08e21323a14af1954c2626567580000000000002251205cddb97e6faaee821ddbd2aa0e2e5406209636402574cd590b87b33c3c90460e0140aa5bc756f53f815bc3b9da8288b5989f22f26a636d236c4572553ccf13451ec40b38b42d3fe7a310f884c72c39299e0e77a41a7af8d3d0d06ac55fca0078381b00000000"
}