{
  "txid": "d2ef411b8867a0c06ec1ee1fc060468072068b66cad2f37d07e1f19d3bbfc774",
  "version": 1,
  "locktime": 0,
  "vin": [
    {
      "txid": "c2af6219cedfbe880ded90d947601fe8c84eac3bf7cbd8f6fca3344c2166dda9",
      "vout": 49,
      "prevout": {
        "scriptpubkey": "00145698c9efe2b091bf167d8c61f757829b64aa2257",
        "scriptpubkey_asm": "OP_0 OP_PUSHBYTES_20 5698c9efe2b091bf167d8c61f757829b64aa2257",
        "scriptpubkey_type": "v0_p2wpkh",
        "scriptpubkey_address": "bc1q26vvnmlzkzgm79na33slw4uzndj25gjhv6s4ur",
        "value": 194977
      },
      "scriptsig": "",
      "scriptsig_asm": "",
      "witness": [
        "30440220517a8472a0192bf0e59d826c1f3482d435e99ee02e0797bf260f93416d4e2fa8022079d3e99dd571161b40d423fdeef9133aee18b1cb0e92263e7bedcfbf7798f7e801",
        "03f3aeb8d72270368751a35ba127789e2913fe98eb87521fcc2598c63c67a56450"
      ],
      "is_coinbase": false,
      "sequence": 4294967295
    }
  ],
  "vout": [
    {
      "scriptpubkey": "0014bfaaf1fb3b5a721d0614153a6c0e7dc63172e90f",
      "scriptpubkey_asm": "OP_0 OP_PUSHBYTES_20 bfaaf1fb3b5a721d0614153a6c0e7dc63172e90f",
      "scriptpubkey_type": "v0_p2wpkh",
      "scriptpubkey_address": "bc1qh740r7emtfep6ps5z5axcrnaccch96g0jfzrfc",
      "value": 174799
    },
    {
      "scriptpubkey": "00144f1981438f3cc94d7697d968b9085316d015c3c2",
      "scriptpubkey_asm": "OP_0 OP_PUSHBYTES_20 4f1981438f3cc94d7697d968b9085316d015c3c2",
      "scriptpubkey_type": "v0_p2wpkh",
      "scriptpubkey_address": "bc1qfuvczsu08ny56a5hm95tjzznzmgpts7zsm0atm",
      "value": 17781
    }
  ],
  "size": 222,
  "weight": 561,
  "fee": 2397,
  "status": {
    "confirmed": true,
    "block_height": 834638,
    "block_hash": "000000000000000000025f742c626208ac87e0b7d15054abb4a19ca2d735a54e",
    "block_time": 1710405325
  },
  "hex": "01000000000101a9dd66214c34a3fcf6d8cbf73bac4ec8e81f6047d990ed0d88bedfce1962afc23100000000ffffffff02cfaa020000000000160014bfaaf1fb3b5a721d0614153a6c0e7dc63172e90f75450000000000001600144f1981438f3cc94d7697d968b9085316d015c3c2024730440220517a8472a0192bf0e59d826c1f3482d435e99ee02e0797bf260f93416d4e2fa8022079d3e99dd571161b40d423fdeef9133aee18b1cb0e92263e7bedcfbf7798f7e8012103f3aeb8d72270368751a35ba127789e2913fe98eb87521fcc2598c63c67a5645000000000"
}