{
  "txid": "d30090121e6c301a90f225114654138d79218ba1f98cdd93cb447aad1429cb84",
  "version": 1,
  "locktime": 0,
  "vin": [
    {
      "txid": "8888888cbdc0354cf161a0667703a689e80b52134f6dbf35df2bc9c0f46f9430",
      "vout": 0,
      "prevout": {
        "scriptpubkey": "5120833374bd0ea7077e46aae789c385abd7973f3276c560be22d857036936b6e1a3",
        "scriptpubkey_asm": "OP_PUSHNUM_1 OP_PUSHBYTES_32 833374bd0ea7077e46aae789c385abd7973f3276c560be22d857036936b6e1a3",
        "scriptpubkey_type": "v1_p2tr",
        "scriptpubkey_address": "bc1psvehf0gw5urhu342u7yu8pdt67tn7vnkc4stugkc2upkjd4kux3slntxpv",
        "value": 12212
      },
      "scriptsig": "",
      "scriptsig_asm": "",
      "witness": [
        "184277e264e6390061b6a1729f5b1226bc769489634c27d125e452ee3971927cba0ea54364aa11cc357af9efb8d7255ab03e5c986f1261e5f5d3176b86374df0",
        "20dfa7325ed77fab28d796d113dcead29a7490c58aaa244f71cf02d52f6b761081ac00630461746f6d03646d7440a16461726773a46474696d651a65deea26656e6f6e63650068626974776f726b6369383838383838382e326b6d696e745f7469636b657268696e66696e69747968",
        "c1dfa7325ed77fab28d796d113dcead29a7490c58aaa244f71cf02d52f6b761081"
      ],
      "is_coinbase": false,
      "sequence": 0
    }
  ],
  "vout": [
    {
      "scriptpubkey": "51206f4cbed8c3c592a52c824983f4bc1382dd93893daed40cfc3cf0295dbb7e5d16",
      "scriptpubkey_asm": "OP_PUSHNUM_1 OP_PUSHBYTES_32 6f4cbed8c3c592a52c824983f4bc1382dd93893daed40cfc3cf0295dbb7e5d16",
      "scriptpubkey_type": "v1_p2tr",
      "scriptpubkey_address": "bc1pdaxtakxrckf22tyzfxplf0qnstwe8zfa4m2qelpu7q54mwm7t5tq47qtu5",
      "value": 9999
    }
  ],
  "size": 308,
  "weight": 590,
  "fee": 2213,
  "status": {
    "confirmed": true,
    "block_height": 834464,
    "block_hash": "0000000000000000000177a0869a911a2b65c9bdcd5a8bcb02b68f305bee848e",
    "block_time": 1710308296
  },
  "hex": "0100000000010130946ff4c0c92bdf35bf6d4f13520be889a6037766a061f14c35c0bd8c888888000000000000000000010f270000000000002251206f4cbed8c3c592a52c824983f4bc1382dd93893daed40cfc3cf0295dbb7e5d160340184277e264e6390061b6a1729f5b1226bc769489634c27d125e452ee3971927cba0ea54364aa11cc357af9efb8d7255ab03e5c986f1261e5f5d3176b86374df06f20dfa7325ed77fab28d796d113dcead29a7490c58aaa244f71cf02d52f6b761081ac00630461746f6d03646d7440a16461726773a46474696d651a65deea26656e6f6e63650068626974776f726b6369383838383838382e326b6d696e745f7469636b657268696e66696e6974796821c1dfa7325ed77fab28d796d113dcead29a7490c58aaa244f71cf02d52f6b76108100000000"
}