{
  "txid": "d308506c751775ee7b5d2d217656153457fcad5ecc22fdad49ae3cccb48d98bd",
  "version": 1,
  "locktime": 0,
  "vin": [
    {
      "txid": "da13f91e9aa8904a91856b69d133ab7e7120ef4bdffca28ea82f0a6095241b89",
      "vout": 1,
      "prevout": {
        "scriptpubkey": "001450609b149a8b116b688b1d7d168885274222fc8d",
        "scriptpubkey_asm": "OP_0 OP_PUSHBYTES_20 50609b149a8b116b688b1d7d168885274222fc8d",
        "scriptpubkey_type": "v0_p2wpkh",
        "scriptpubkey_address": "bc1q2psfk9y63vgkk6ytr473dzy9yapz9lyd4xgx2r",
        "value": 693150
      },
      "scriptsig": "",
      "scriptsig_asm": "",
      "witness": [
        "3044022053edb0c38435ca98a09be73064bc1b3ef0a6c346717a87d30275137cc57e73a80220780811e7b1f24504770e49a37a94f471fe6228a2a5201e1bc5158ed75a5b2bcc01",
        "03e8046f7fa28deef72eb704def11b47238894c894d95ef5e3dba64a92b61b4763"
      ],
      "is_coinbase": false,
      "sequence": 4294967295
    }
  ],
  "vout": [
    {
      "scriptpubkey": "76a9146bac04ccfc155eb85a76b051f9ab3cf7a77e772b88ac",
      "scriptpubkey_asm": "OP_DUP OP_HASH160 OP_PUSHBYTES_20 6bac04ccfc155eb85a76b051f9ab3cf7a77e772b OP_EQUALVERIFY OP_CHECKSIG",
      "scriptpubkey_type": "p2pkh",
      "scriptpubkey_address": "1ApKNbhoGNXz3yLdKys4GQBk8xz8Hsbfyu",
      "value": 136000
    },
    {
      "scriptpubkey": "00144d41f5a347ea290e077c5ce56c58e7ea1dceaaf3",
      "scriptpubkey_asm": "OP_0 OP_PUSHBYTES_20 4d41f5a347ea290e077c5ce56c58e7ea1dceaaf3",
      "scriptpubkey_type": "v0_p2wpkh",
      "scriptpubkey_address": "bc1qf4qltg68ag5supmutnjkck88agwua2hnexs005",
      "value": 553438
    }
  ],
  "size": 225,
  "weight": 573,
  "fee": 3712,
  "status": {
    "confirmed": true,
    "block_height": 834638,
    "block_hash": "000000000000000000025f742c626208ac87e0b7d15054abb4a19ca2d735a54e",
    "block_time": 1710405325
  },
  "hex": "01000000000101891b2495600a2fa88ea2fcdf4bef20717eab33d1696b85914a90a89a1ef913da0100000000ffffffff0240130200000000001976a9146bac04ccfc155eb85a76b051f9ab3cf7a77e772b88acde710800000000001600144d41f5a347ea290e077c5ce56c58e7ea1dceaaf302473044022053edb0c38435ca98a09be73064bc1b3ef0a6c346717a87d30275137cc57e73a80220780811e7b1f24504770e49a37a94f471fe6228a2a5201e1bc5158ed75a5b2bcc012103e8046f7fa28deef72eb704def11b47238894c894d95ef5e3dba64a92b61b476300000000"
}