{
  "txid": "d33374cb9f0cff75b590e0ea05525668e79195e414becdb3bfc1b32912950c02",
  "version": 1,
  "locktime": 0,
  "vin": [
    {
      "txid": "eee2c7065f8d76d51ac2973d5f268074dea3d5ca9360a02cf030dddaa654412d",
      "vout": 1,
      "prevout": {
        "scriptpubkey": "001452ae1f4d4775ed4b96a22c59b7d2e93284681f1d",
        "scriptpubkey_asm": "OP_0 OP_PUSHBYTES_20 52ae1f4d4775ed4b96a22c59b7d2e93284681f1d",
        "scriptpubkey_type": "v0_p2wpkh",
        "scriptpubkey_address": "bc1q22hp7n28whk5h94z93vm05hfx2zxs8ca9gglk7",
        "value": 117057
      },
      "scriptsig": "",
      "scriptsig_asm": "",
      "witness": [
        "3044022009fa7b1ca1667ad7ab82581b05a3590c7ca3979ff09d59eceb9ed0c8e31609b902201ed5a25b567f52db01f36ad98a432965fa0452f7d8ae88e048a1dd5d8611c60701",
        "023d41af70aeb0c7da84da0bfed4153a8792029ff94976b726d6e56819b0a66c96"
      ],
      "is_coinbase": false,
      "sequence": 4294967295
    },
    {
      "txid": "f87fed9368cd06659cad3d76a6b8dba70c6b8d92974779fbdc7598afc869be36",
      "vout": 1,
      "prevout": {
        "scriptpubkey": "001452ae1f4d4775ed4b96a22c59b7d2e93284681f1d",
        "scriptpubkey_asm": "OP_0 OP_PUSHBYTES_20 52ae1f4d4775ed4b96a22c59b7d2e93284681f1d",
        "scriptpubkey_type": "v0_p2wpkh",
        "scriptpubkey_address": "bc1q22hp7n28whk5h94z93vm05hfx2zxs8ca9gglk7",
        "value": 180689785
      },
      "scriptsig": "",
      "scriptsig_asm": "",
      "witness": [
        "30450221009e221e52624923dd98bb97692ac5f83c49b0d613eef191b8b21a5475f67ddade0220248bd396c03685f7143109f01e42ae5768d2f71c3ce7828f0c2b7d44925ec79701",
        "023d41af70aeb0c7da84da0bfed4153a8792029ff94976b726d6e56819b0a66c96"
      ],
      "is_coinbase": false,
      "sequence": 4294967295
    }
  ],
  "vout": [
    {
      "scriptpubkey": "0014ea95375cd373bdef02d28152277ccad1337fb302",
      "scriptpubkey_asm": "OP_0 OP_PUSHBYTES_20 ea95375cd373bdef02d28152277ccad1337fb302",
      "scriptpubkey_type": "v0_p2wpkh",
      "scriptpubkey_address": "bc1qa22nwhxnww777qkjs9fzwlx26yehlvczg47qg2",
      "value": 218164
    },
    {
      "scriptpubkey": "001452ae1f4d4775ed4b96a22c59b7d2e93284681f1d",
      "scriptpubkey_asm": "OP_0 OP_PUSHBYTES_20 52ae1f4d4775ed4b96a22c59b7d2e93284681f1d",
      "scriptpubkey_type": "v0_p2wpkh",
      "scriptpubkey_address": "bc1q22hp7n28whk5h94z93vm05hfx2zxs8ca9gglk7",
      "value": 180585543
    }
  ],
  "size": 371,
  "weight": 833,
  "fee": 3135,
  "status": {
    "confirmed": true,
    "block_height": 834638,
    "block_hash": "000000000000000000025f742c626208ac87e0b7d15054abb4a19ca2d735a54e",
    "block_time": 1710405325
  },
  "hex": "010000000001022d4154a6dadd30f02ca06093cad5a3de7480265f3d97c21ad5768d5f06c7e2ee0100000000ffffffff36be69c8af9875dcfb794797928d6b0ca7dbb8a6763dad9c6506cd6893ed7ff80100000000ffffffff023454030000000000160014ea95375cd373bdef02d28152277ccad1337fb3024784c30a0000000016001452ae1f4d4775ed4b96a22c59b7d2e93284681f1d02473044022009fa7b1ca1667ad7ab82581b05a3590c7ca3979ff09d59eceb9ed0c8e31609b902201ed5a25b567f52db01f36ad98a432965fa0452f7d8ae88e048a1dd5d8611c6070121023d41af70aeb0c7da84da0bfed4153a8792029ff94976b726d6e56819b0a66c96024830450221009e221e52624923dd98bb97692ac5f83c49b0d613eef191b8b21a5475f67ddade0220248bd396c03685f7143109f01e42ae5768d2f71c3ce7828f0c2b7d44925ec7970121023d41af70aeb0c7da84da0bfed4153a8792029ff94976b726d6e56819b0a66c9600000000"
}