{
  "txid": "d33d151dfc599bf9da2d862c6bcf393df16edb7b223285d2d4438e53bca343d0",
  "version": 1,
  "locktime": 0,
  "vin": [
    {
      "txid": "fca808f610df5b5bb8d53122c811163873d99702fcee296aef516726e0e3b08f",
      "vout": 0,
      "prevout": {
        "scriptpubkey": "0020f3dd3441ecabade1be9dc8787d8b5ae716dd251f75091ff923daa862677dee04",
        "scriptpubkey_asm": "OP_0 OP_PUSHBYTES_32 f3dd3441ecabade1be9dc8787d8b5ae716dd251f75091ff923daa862677dee04",
        "scriptpubkey_type": "v0_p2wsh",
        "scriptpubkey_address": "bc1q70wngs0v4wk7r05aepu8mz66uutd6fglw5y3l7frm25xyemaaczqqnn0ge",
        "value": 100000
      },
      "scriptsig": "",
      "scriptsig_asm": "",
      "witness": [
        "",
        "3045022100f8cba79fd79447c500a975c1191324d665bd4e1eae62c351c9c4bf6ab85c517302201976716c83f641142acda55e226c6a84d60b3e474391ae6d18370face49837a201",
        "3045022100d78c1e30217bbbb00622ebcd9e8c48aed555886d88dd549548a19cc9b0623a27022053cd2f50d34e302f26cd227d552897378f574fd82a8f5d03ea8d9b11d94d966e01",
        "5221035a1e542113e6969fcbdc9cf3615d49835162117bc9cbc0cf44e3feffbc0718f3210309921619b12a37dd876dd25aca0d50ff4e61c32cfaee43013ec8f58d362fdc4e21025dd08e0f37db088a63756bbe1a3080e3e2f92b1497a63475bea3c728211e03d453ae"
      ],
      "is_coinbase": false,
      "sequence": 4294967295,
      "inner_witnessscript_asm": "OP_PUSHNUM_2 OP_PUSHBYTES_33 035a1e542113e6969fcbdc9cf3615d49835162117bc9cbc0cf44e3feffbc0718f3 OP_PUSHBYTES_33 0309921619b12a37dd876dd25aca0d50ff4e61c32cfaee43013ec8f58d362fdc4e OP_PUSHBYTES_33 025dd08e0f37db088a63756bbe1a3080e3e2f92b1497a63475bea3c728211e03d4 OP_PUSHNUM_3 OP_CHECKMULTISIG"
    }
  ],
  "vout": [
    {
      "scriptpubkey": "51208737963ba1e064ee424820e7cf09a28cbd579f9809e05e61de0309ae5d6d1001",
      "scriptpubkey_asm": "OP_PUSHNUM_1 OP_PUSHBYTES_32 8737963ba1e064ee424820e7cf09a28cbd579f9809e05e61de0309ae5d6d1001",
      "scriptpubkey_type": "v1_p2tr",
      "scriptpubkey_address": "bc1psumevwapupjwusjgyrnu7zdz3j7408ucp8s9ucw7qvy6uhtdzqqs8fdvcz",
      "value": 6546
    },
    {
      "scriptpubkey": "00200d906c99283f6ef93d29b45198b6a1e8faa28cfc419eac5fcdecbb181f95557c",
      "scriptpubkey_asm": "OP_0 OP_PUSHBYTES_32 0d906c99283f6ef93d29b45198b6a1e8faa28cfc419eac5fcdecbb181f95557c",
      "scriptpubkey_type": "v0_p2wsh",
      "scriptpubkey_address": "bc1qpkgxexfg8ah0j0ffk3ge3d4para29r8ugx02ch7daja3s8u4247qw2d2jq",
      "value": 82654
    }
  ],
  "size": 393,
  "weight": 804,
  "fee": 10800,
  "status": {
    "confirmed": true,
    "block_height": 834460,
    "block_hash": "00000000000000000000484a79b643b2524bbce82e5d8a442013fa5b8905ed98",
    "block_time": 1710307468
  },
  "hex": "010000000001018fb0e3e0266751ef6a29eefc0297d973381611c82231d5b85b5bdf10f608a8fc0000000000ffffffff0292190000000000002251208737963ba1e064ee424820e7cf09a28cbd579f9809e05e61de0309ae5d6d1001de420100000000002200200d906c99283f6ef93d29b45198b6a1e8faa28cfc419eac5fcdecbb181f95557c0400483045022100f8cba79fd79447c500a975c1191324d665bd4e1eae62c351c9c4bf6ab85c517302201976716c83f641142acda55e226c6a84d60b3e474391ae6d18370face49837a201483045022100d78c1e30217bbbb00622ebcd9e8c48aed555886d88dd549548a19cc9b0623a27022053cd2f50d34e302f26cd227d552897378f574fd82a8f5d03ea8d9b11d94d966e01695221035a1e542113e6969fcbdc9cf3615d49835162117bc9cbc0cf44e3feffbc0718f3210309921619b12a37dd876dd25aca0d50ff4e61c32cfaee43013ec8f58d362fdc4e21025dd08e0f37db088a63756bbe1a3080e3e2f92b1497a63475bea3c728211e03d453ae00000000"
}