{
  "txid": "d3463ec9fb16032c62bed673c9bfef7c10d65d1ef46d87a3277e0ee405e3375d",
  "version": 2,
  "locktime": 834637,
  "vin": [
    {
      "txid": "0dda23d2ba9a2d968c1429f4b011d29ebe47bde4bd0bd8a36bad5d30cb7cbc1e",
      "vout": 1,
      "prevout": {
        "scriptpubkey": "0014c9421c977369ddf25b48f552fac27a354a03e6fa",
        "scriptpubkey_asm": "OP_0 OP_PUSHBYTES_20 c9421c977369ddf25b48f552fac27a354a03e6fa",
        "scriptpubkey_type": "v0_p2wpkh",
        "scriptpubkey_address": "bc1qe9ppe9mnd8wlyk6g74f04sn6x49q8eh6lsjwex",
        "value": 70000000
      },
      "scriptsig": "",
      "scriptsig_asm": "",
      "witness": [
        "3044022065fad52e1fa6ea3f624d362aebb89c8a4e49e56bab5c356766217bf92c38dd5c02203d36b67b5d3b915afdbe7767dec1a6302bac7f85bc454c67e93238f8292f9df801",
        "0296dfc4b40dccf36fcb3c2934346aff10125d5d9f54b93077e63ac483ca68a380"
      ],
      "is_coinbase": false,
      "sequence": 4294967293
    },
    {
      "txid": "84918e3acf8c8604f7fa2c00b776738f1943ded5b9ccc55802731a7347f9d757",
      "vout": 1,
      "prevout": {
        "scriptpubkey": "0014c9421c977369ddf25b48f552fac27a354a03e6fa",
        "scriptpubkey_asm": "OP_0 OP_PUSHBYTES_20 c9421c977369ddf25b48f552fac27a354a03e6fa",
        "scriptpubkey_type": "v0_p2wpkh",
        "scriptpubkey_address": "bc1qe9ppe9mnd8wlyk6g74f04sn6x49q8eh6lsjwex",
        "value": 34000000
      },
      "scriptsig": "",
      "scriptsig_asm": "",
      "witness": [
        "3044022018289dc46d4b5659b02b4a67e09da23e05d4476a54c69af6e36124799feac4a20220197fb423bf410e300aa7a1fc8818bd9a196d9a1748184dd41ca67c56b1385f6801",
        "0296dfc4b40dccf36fcb3c2934346aff10125d5d9f54b93077e63ac483ca68a380"
      ],
      "is_coinbase": false,
      "sequence": 4294967293
    },
    {
      "txid": "8d27a5cbff0bd4832f6feffc422b812603fbb6fac356ec22987b23116e812404",
      "vout": 1,
      "prevout": {
        "scriptpubkey": "0014c9421c977369ddf25b48f552fac27a354a03e6fa",
        "scriptpubkey_asm": "OP_0 OP_PUSHBYTES_20 c9421c977369ddf25b48f552fac27a354a03e6fa",
        "scriptpubkey_type": "v0_p2wpkh",
        "scriptpubkey_address": "bc1qe9ppe9mnd8wlyk6g74f04sn6x49q8eh6lsjwex",
        "value": 32000000
      },
      "scriptsig": "",
      "scriptsig_asm": "",
      "witness": [
        "3044022019aeb68d7fe48e3a9b4a75b446478a9cb20756084c6714a27c9e3210763389890220796b5ca6379818b2cdc699391aef2092498571730a37aedf014578b8adf1929601",
        "0296dfc4b40dccf36fcb3c2934346aff10125d5d9f54b93077e63ac483ca68a380"
      ],
      "is_coinbase": false,
      "sequence": 4294967293
    }
  ],
  "vout": [
    {
      "scriptpubkey": "001433c30e1361f51166c4d5e8f4c8626ba1e0ee309e",
      "scriptpubkey_asm": "OP_0 OP_PUSHBYTES_20 33c30e1361f51166c4d5e8f4c8626ba1e0ee309e",
      "scriptpubkey_type": "v0_p2wpkh",
      "scriptpubkey_address": "bc1qx0psuymp75gkd3x4ar6vscnt58swuvy70lr24x",
      "value": 20000000
    },
    {
      "scriptpubkey": "00146ee3c5545904ef9801849841070886d4b98a5195",
      "scriptpubkey_asm": "OP_0 OP_PUSHBYTES_20 6ee3c5545904ef9801849841070886d4b98a5195",
      "scriptpubkey_type": "v0_p2wpkh",
      "scriptpubkey_address": "bc1qdm3u24zeqnhesqvynpqswzyx6juc55v4ftgduz",
      "value": 20000000
    },
    {
      "scriptpubkey": "00145f1be98146b63b1cb151710a44d98a0e3424890d",
      "scriptpubkey_asm": "OP_0 OP_PUSHBYTES_20 5f1be98146b63b1cb151710a44d98a0e3424890d",
      "scriptpubkey_type": "v0_p2wpkh",
      "scriptpubkey_address": "bc1qtud7nq2xkca3ev23wy9yfkv2pc6zfzgdpy2qar",
      "value": 40000000
    },
    {
      "scriptpubkey": "00143df8514e326e92044e5221cf914c68b96dd51bf0",
      "scriptpubkey_asm": "OP_0 OP_PUSHBYTES_20 3df8514e326e92044e5221cf914c68b96dd51bf0",
      "scriptpubkey_type": "v0_p2wpkh",
      "scriptpubkey_address": "bc1q8hu9zn3jd6fqgnjjy88eznrgh9ka2xls3w8y7x",
      "value": 55990800
    }
  ],
  "size": 580,
  "weight": 1351,
  "fee": 9200,
  "status": {
    "confirmed": true,
    "block_height": 834638,
    "block_hash": "000000000000000000025f742c626208ac87e0b7d15054abb4a19ca2d735a54e",
    "block_time": 1710405325
  },
  "hex": "020000000001031ebc7ccb305dad6ba3d80bbde4bd47be9ed211b0f429148c962d9abad223da0d0100000000fdffffff57d7f947731a730258c5ccb9d5de43198f7376b7002cfaf704868ccf3a8e91840100000000fdffffff0424816e11237b9822ec56c3fab6fb0326812b42fcef6f2f83d40bffcba5278d0100000000fdffffff04002d31010000000016001433c30e1361f51166c4d5e8f4c8626ba1e0ee309e002d3101000000001600146ee3c5545904ef9801849841070886d4b98a5195005a6202000000001600145f1be98146b63b1cb151710a44d98a0e3424890d105a5603000000001600143df8514e326e92044e5221cf914c68b96dd51bf002473044022065fad52e1fa6ea3f624d362aebb89c8a4e49e56bab5c356766217bf92c38dd5c02203d36b67b5d3b915afdbe7767dec1a6302bac7f85bc454c67e93238f8292f9df801210296dfc4b40dccf36fcb3c2934346aff10125d5d9f54b93077e63ac483ca68a38002473044022018289dc46d4b5659b02b4a67e09da23e05d4476a54c69af6e36124799feac4a20220197fb423bf410e300aa7a1fc8818bd9a196d9a1748184dd41ca67c56b1385f6801210296dfc4b40dccf36fcb3c2934346aff10125d5d9f54b93077e63ac483ca68a38002473044022019aeb68d7fe48e3a9b4a75b446478a9cb20756084c6714a27c9e3210763389890220796b5ca6379818b2cdc699391aef2092498571730a37aedf014578b8adf1929601210296dfc4b40dccf36fcb3c2934346aff10125d5d9f54b93077e63ac483ca68a3804dbc0c00"
}