{
  "txid": "d3498ff59cd4b517b50326c74c487d03ded7e0416bea046b59d80d7ca7272387",
  "version": 1,
  "locktime": 0,
  "vin": [
    {
      "txid": "15a007843c63bb372f4f2c6c3466072115a9ecd56ba10aff50978200f655a267",
      "vout": 0,
      "prevout": {
        "scriptpubkey": "0014cc06c84ce8f7e7a1ed63e52dbe3335c6fb1f0ca8",
        "scriptpubkey_asm": "OP_0 OP_PUSHBYTES_20 cc06c84ce8f7e7a1ed63e52dbe3335c6fb1f0ca8",
        "scriptpubkey_type": "v0_p2wpkh",
        "scriptpubkey_address": "bc1qesrvsn8g7ln6rmtru5kmuve4cma37r9gsrd78w",
        "value": 18696472
      },
      "scriptsig": "",
      "scriptsig_asm": "",
      "witness": [
        "30440220340a3aff554afad7abbf87dba0ad63db0315b1a3d0e8696650afba3f8338f9d4022031e09c23e448cba729393b47189805e07eb3dc1594dc1bfc3e0080f89dc3cdcd01",
        "02c42099e7a7925705fa9b49a04e6ddab14526e554bd9787b916e14680897d6d64"
      ],
      "is_coinbase": false,
      "sequence": 4294967295
    },
    {
      "txid": "4406410f0a69fd9a1387bf4719abf8f51379a1a7b892ce8db49c3c7d8d6a053c",
      "vout": 0,
      "prevout": {
        "scriptpubkey": "0014cc06c84ce8f7e7a1ed63e52dbe3335c6fb1f0ca8",
        "scriptpubkey_asm": "OP_0 OP_PUSHBYTES_20 cc06c84ce8f7e7a1ed63e52dbe3335c6fb1f0ca8",
        "scriptpubkey_type": "v0_p2wpkh",
        "scriptpubkey_address": "bc1qesrvsn8g7ln6rmtru5kmuve4cma37r9gsrd78w",
        "value": 150305211
      },
      "scriptsig": "",
      "scriptsig_asm": "",
      "witness": [
        "3045022100959bedcfbfa2c50e313f093489267a3e33b34b926ae9eaf47e178a61673c800c02207a405366e9e68ffa201fd4824498e5e5d3ecc300b73ea738505882438259957001",
        "02c42099e7a7925705fa9b49a04e6ddab14526e554bd9787b916e14680897d6d64"
      ],
      "is_coinbase": false,
      "sequence": 4294967295
    },
    {
      "txid": "d52ab5f783acdfe3e229750feb4d7d25bf3a307ab2a826be99d6f67aa7ae79e9",
      "vout": 1,
      "prevout": {
        "scriptpubkey": "0014cc06c84ce8f7e7a1ed63e52dbe3335c6fb1f0ca8",
        "scriptpubkey_asm": "OP_0 OP_PUSHBYTES_20 cc06c84ce8f7e7a1ed63e52dbe3335c6fb1f0ca8",
        "scriptpubkey_type": "v0_p2wpkh",
        "scriptpubkey_address": "bc1qesrvsn8g7ln6rmtru5kmuve4cma37r9gsrd78w",
        "value": 437011
      },
      "scriptsig": "",
      "scriptsig_asm": "",
      "witness": [
        "304402203e376e101980d5389163bacfc507a09fa1b943d97ca2de547eaf703a99999713022023537969c3d97b0d2c35b2329c8a1e72a06e7de0bb7ce0e645f28a94337ce2a601",
        "02c42099e7a7925705fa9b49a04e6ddab14526e554bd9787b916e14680897d6d64"
      ],
      "is_coinbase": false,
      "sequence": 4294967295
    },
    {
      "txid": "e6af704ccd8c01139358ad91ff9906f2bf68ff5c5d5f0bae8254403e928a6bda",
      "vout": 0,
      "prevout": {
        "scriptpubkey": "0014cc06c84ce8f7e7a1ed63e52dbe3335c6fb1f0ca8",
        "scriptpubkey_asm": "OP_0 OP_PUSHBYTES_20 cc06c84ce8f7e7a1ed63e52dbe3335c6fb1f0ca8",
        "scriptpubkey_type": "v0_p2wpkh",
        "scriptpubkey_address": "bc1qesrvsn8g7ln6rmtru5kmuve4cma37r9gsrd78w",
        "value": 17284653
      },
      "scriptsig": "",
      "scriptsig_asm": "",
      "witness": [
        "304402202cf239644184cbeebd93843e98cea230550d5a962877dcbc5f3048e7ceab105602200c47bb3be81e375ac6d2dd244ff3ca51de2f5a7875c12d9f8a1dd5ea14123e2301",
        "02c42099e7a7925705fa9b49a04e6ddab14526e554bd9787b916e14680897d6d64"
      ],
      "is_coinbase": false,
      "sequence": 4294967295
    },
    {
      "txid": "3a048e8f927f768d2566b5ce15c8823e30ad2b53cfe8c8e9e08c53d900c10439",
      "vout": 0,
      "prevout": {
        "scriptpubkey": "0014cc06c84ce8f7e7a1ed63e52dbe3335c6fb1f0ca8",
        "scriptpubkey_asm": "OP_0 OP_PUSHBYTES_20 cc06c84ce8f7e7a1ed63e52dbe3335c6fb1f0ca8",
        "scriptpubkey_type": "v0_p2wpkh",
        "scriptpubkey_address": "bc1qesrvsn8g7ln6rmtru5kmuve4cma37r9gsrd78w",
        "value": 21526971
      },
      "scriptsig": "",
      "scriptsig_asm": "",
      "witness": [
        "30440220682636d35d7e9d7ee127138445659dd384b87e10510fbc9405f4f159f37a837a0220430b454d27990b61ca59da387e93358ef3679fba416ec799e48efe5697bda70701",
        "02c42099e7a7925705fa9b49a04e6ddab14526e554bd9787b916e14680897d6d64"
      ],
      "is_coinbase": false,
      "sequence": 4294967295
    },
    {
      "txid": "7a63620406e55370ddf99c710202aaaf0a59b3055904448894419ce2c6580808",
      "vout": 0,
      "prevout": {
        "scriptpubkey": "0014cc06c84ce8f7e7a1ed63e52dbe3335c6fb1f0ca8",
        "scriptpubkey_asm": "OP_0 OP_PUSHBYTES_20 cc06c84ce8f7e7a1ed63e52dbe3335c6fb1f0ca8",
        "scriptpubkey_type": "v0_p2wpkh",
        "scriptpubkey_address": "bc1qesrvsn8g7ln6rmtru5kmuve4cma37r9gsrd78w",
        "value": 17213344
      },
      "scriptsig": "",
      "scriptsig_asm": "",
      "witness": [
        "3045022100c77d542794a3b28b227e6e06d6df88b563745e0cd44bda9b8cda54562fc54d850220588930c494282c759343d66dbfec2ff6d94231f415f62539ecc540a405a13d2601",
        "02c42099e7a7925705fa9b49a04e6ddab14526e554bd9787b916e14680897d6d64"
      ],
      "is_coinbase": false,
      "sequence": 4294967295
    },
    {
      "txid": "56e4905b054e12740109b887afa013157ae9bd4e23a1a9d0eefe4092ee921050",
      "vout": 0,
      "prevout": {
        "scriptpubkey": "0014cc06c84ce8f7e7a1ed63e52dbe3335c6fb1f0ca8",
        "scriptpubkey_asm": "OP_0 OP_PUSHBYTES_20 cc06c84ce8f7e7a1ed63e52dbe3335c6fb1f0ca8",
        "scriptpubkey_type": "v0_p2wpkh",
        "scriptpubkey_address": "bc1qesrvsn8g7ln6rmtru5kmuve4cma37r9gsrd78w",
        "value": 18501317
      },
      "scriptsig": "",
      "scriptsig_asm": "",
      "witness": [
        "304402200b95d310de9ddb2657c4ac7a945196f663f2a83e5995802f7377fa72ea6d1edb02205a216c1d812d333bbb8d36a22efd48f9ae32e7cb55e807ff266071016f09883701",
        "02c42099e7a7925705fa9b49a04e6ddab14526e554bd9787b916e14680897d6d64"
      ],
      "is_coinbase": false,
      "sequence": 4294967295
    },
    {
      "txid": "5bdeae4ee68af5210922d314535640186268012bf24185616f8ab169c614b56a",
      "vout": 5,
      "prevout": {
        "scriptpubkey": "0014cc06c84ce8f7e7a1ed63e52dbe3335c6fb1f0ca8",
        "scriptpubkey_asm": "OP_0 OP_PUSHBYTES_20 cc06c84ce8f7e7a1ed63e52dbe3335c6fb1f0ca8",
        "scriptpubkey_type": "v0_p2wpkh",
        "scriptpubkey_address": "bc1qesrvsn8g7ln6rmtru5kmuve4cma37r9gsrd78w",
        "value": 1717550000
      },
      "scriptsig": "",
      "scriptsig_asm": "",
      "witness": [
        "3044022033884cc4b2776d9f797eebf6a2a4fba7e4ff8f6fb1782dab55d35a6ead47369702204734311818213e10963cc7fc15b94ca02b92b74417e4043a04a92c1ca6c5732c01",
        "02c42099e7a7925705fa9b49a04e6ddab14526e554bd9787b916e14680897d6d64"
      ],
      "is_coinbase": false,
      "sequence": 4294967295
    }
  ],
  "vout": [
    {
      "scriptpubkey": "00141e3a55f5e650a7b076f373a090d9ad97d1e8c27e",
      "scriptpubkey_asm": "OP_0 OP_PUSHBYTES_20 1e3a55f5e650a7b076f373a090d9ad97d1e8c27e",
      "scriptpubkey_type": "v0_p2wpkh",
      "scriptpubkey_address": "bc1qrca9ta0x2znmqahnwwsfpkddjlg73sn79pcq02",
      "value": 1000000000
    },
    {
      "scriptpubkey": "6a433d3a6274632f6274633a74686f723136366e3477353033396d65756c666133703679646736307665367565616337746c74306a77733a3939383030303030302f312f30",
      "scriptpubkey_asm": "OP_RETURN OP_PUSHBYTES_67 3d3a6274632f6274633a74686f723136366e3477353033396d65756c666133703679646736307665367565616337746c74306a77733a3939383030303030302f312f30",
      "scriptpubkey_type": "op_return",
      "value": 0
    },
    {
      "scriptpubkey": "0014cc06c84ce8f7e7a1ed63e52dbe3335c6fb1f0ca8",
      "scriptpubkey_asm": "OP_0 OP_PUSHBYTES_20 cc06c84ce8f7e7a1ed63e52dbe3335c6fb1f0ca8",
      "scriptpubkey_type": "v0_p2wpkh",
      "scriptpubkey_address": "bc1qesrvsn8g7ln6rmtru5kmuve4cma37r9gsrd78w",
      "value": 961494922
    }
  ],
  "size": 1338,
  "weight": 2772,
  "fee": 20057,
  "status": {
    "confirmed": true,
    "block_height": 834638,
    "block_hash": "000000000000000000025f742c626208ac87e0b7d15054abb4a19ca2d735a54e",
    "block_time": 1710405325
  },
  "hex": "0100000000010867a255f600829750ff0aa16bd5eca915210766346c2c4f2f37bb633c8407a0150000000000ffffffff3c056a8d7d3c9cb48dce92b8a7a17913f5f8ab1947bf87139afd690a0f4106440000000000ffffffffe979aea77af6d699be26a8b27a303abf257d4deb0f7529e2e3dfac83f7b52ad50100000000ffffffffda6b8a923e405482ae0b5f5d5cff68bff20699ff91ad589313018ccd4c70afe60000000000ffffffff3904c100d9538ce0e9c8e8cf532bad303e82c815ceb566258d767f928f8e043a0000000000ffffffff080858c6e29c41948844045905b3590aafaa0202719cf9dd7053e5060462637a0000000000ffffffff501092ee9240feeed0a9a1234ebde97a1513a0af87b8090174124e055b90e4560000000000ffffffff6ab514c669b18a6f618541f22b0168621840565314d3220921f58ae64eaede5b0500000000ffffffff0300ca9a3b000000001600141e3a55f5e650a7b076f373a090d9ad97d1e8c27e0000000000000000456a433d3a6274632f6274633a74686f723136366e3477353033396d65756c666133703679646736307665367565616337746c74306a77733a3939383030303030302f312f308a3f4f3900000000160014cc06c84ce8f7e7a1ed63e52dbe3335c6fb1f0ca8024730440220340a3aff554afad7abbf87dba0ad63db0315b1a3d0e8696650afba3f8338f9d4022031e09c23e448cba729393b47189805e07eb3dc1594dc1bfc3e0080f89dc3cdcd012102c42099e7a7925705fa9b49a04e6ddab14526e554bd9787b916e14680897d6d6402483045022100959bedcfbfa2c50e313f093489267a3e33b34b926ae9eaf47e178a61673c800c02207a405366e9e68ffa201fd4824498e5e5d3ecc300b73ea7385058824382599570012102c42099e7a7925705fa9b49a04e6ddab14526e554bd9787b916e14680897d6d640247304402203e376e101980d5389163bacfc507a09fa1b943d97ca2de547eaf703a99999713022023537969c3d97b0d2c35b2329c8a1e72a06e7de0bb7ce0e645f28a94337ce2a6012102c42099e7a7925705fa9b49a04e6ddab14526e554bd9787b916e14680897d6d640247304402202cf239644184cbeebd93843e98cea230550d5a962877dcbc5f3048e7ceab105602200c47bb3be81e375ac6d2dd244ff3ca51de2f5a7875c12d9f8a1dd5ea14123e23012102c42099e7a7925705fa9b49a04e6ddab14526e554bd9787b916e14680897d6d64024730440220682636d35d7e9d7ee127138445659dd384b87e10510fbc9405f4f159f37a837a0220430b454d27990b61ca59da387e93358ef3679fba416ec799e48efe5697bda707012102c42099e7a7925705fa9b49a04e6ddab14526e554bd9787b916e14680897d6d6402483045022100c77d542794a3b28b227e6e06d6df88b563745e0cd44bda9b8cda54562fc54d850220588930c494282c759343d66dbfec2ff6d94231f415f62539ecc540a405a13d26012102c42099e7a7925705fa9b49a04e6ddab14526e554bd9787b916e14680897d6d640247304402200b95d310de9ddb2657c4ac7a945196f663f2a83e5995802f7377fa72ea6d1edb02205a216c1d812d333bbb8d36a22efd48f9ae32e7cb55e807ff266071016f098837012102c42099e7a7925705fa9b49a04e6ddab14526e554bd9787b916e14680897d6d6402473044022033884cc4b2776d9f797eebf6a2a4fba7e4ff8f6fb1782dab55d35a6ead47369702204734311818213e10963cc7fc15b94ca02b92b74417e4043a04a92c1ca6c5732c012102c42099e7a7925705fa9b49a04e6ddab14526e554bd9787b916e14680897d6d6400000000"
}