{
  "txid": "d35da651b66d557e1fc4540329d2ee2ae5c929202cfc4aecb81087e81f074b7e",
  "version": 2,
  "locktime": 0,
  "vin": [
    {
      "txid": "47bf330cc6bf45e82f058f2dacd681ab1a558d79f8e0e8a0cbb06b25dc12cc23",
      "vout": 0,
      "prevout": {
        "scriptpubkey": "76a9141014cd7d3cbcea0435218fc264236721ae674d6b88ac",
        "scriptpubkey_asm": "OP_DUP OP_HASH160 OP_PUSHBYTES_20 1014cd7d3cbcea0435218fc264236721ae674d6b OP_EQUALVERIFY OP_CHECKSIG",
        "scriptpubkey_type": "p2pkh",
        "scriptpubkey_address": "12U2jU1Z4nRkaCH9ec4htA3gECDx1UTq1p",
        "value": 26730
      },
      "scriptsig": "47304402207c25e395f6890691f72ed23fbce6c3108628a07f7a7c386822185307eefea14402205ee35c6fb2e6255dab23eb4ca33b6dc834dfe6d81b6bc82cd435e1cc2d5457e4012102f6fb73dd5d7f395a1f1e860f651946deca8edd6e8c49ec44f980cb5a761cb32a",
      "scriptsig_asm": "OP_PUSHBYTES_71 304402207c25e395f6890691f72ed23fbce6c3108628a07f7a7c386822185307eefea14402205ee35c6fb2e6255dab23eb4ca33b6dc834dfe6d81b6bc82cd435e1cc2d5457e401 OP_PUSHBYTES_33 02f6fb73dd5d7f395a1f1e860f651946deca8edd6e8c49ec44f980cb5a761cb32a",
      "is_coinbase": false,
      "sequence": 4294967295
    },
    {
      "txid": "6a1e69b6ffa0efdc8c603f7973db5553df8d362f1c7ff059f9df9408907b6d4d",
      "vout": 0,
      "prevout": {
        "scriptpubkey": "76a9141014cd7d3cbcea0435218fc264236721ae674d6b88ac",
        "scriptpubkey_asm": "OP_DUP OP_HASH160 OP_PUSHBYTES_20 1014cd7d3cbcea0435218fc264236721ae674d6b OP_EQUALVERIFY OP_CHECKSIG",
        "scriptpubkey_type": "p2pkh",
        "scriptpubkey_address": "12U2jU1Z4nRkaCH9ec4htA3gECDx1UTq1p",
        "value": 27000
      },
      "scriptsig": "473044022010852fe0ecce8842f0a14a4c5843701e8ab861ee27dfa2d3870a23abadf160b90220571f3dde1913d1ee7f22ddb5605ed3d00e29a3ac81cecc15ed6cfc7fd1d542aa012102f6fb73dd5d7f395a1f1e860f651946deca8edd6e8c49ec44f980cb5a761cb32a",
      "scriptsig_asm": "OP_PUSHBYTES_71 3044022010852fe0ecce8842f0a14a4c5843701e8ab861ee27dfa2d3870a23abadf160b90220571f3dde1913d1ee7f22ddb5605ed3d00e29a3ac81cecc15ed6cfc7fd1d542aa01 OP_PUSHBYTES_33 02f6fb73dd5d7f395a1f1e860f651946deca8edd6e8c49ec44f980cb5a761cb32a",
      "is_coinbase": false,
      "sequence": 4294967295
    }
  ],
  "vout": [
    {
      "scriptpubkey": "00141c68ae17b88691c19f793ef08c88b8afa0bb70b9",
      "scriptpubkey_asm": "OP_0 OP_PUSHBYTES_20 1c68ae17b88691c19f793ef08c88b8afa0bb70b9",
      "scriptpubkey_type": "v0_p2wpkh",
      "scriptpubkey_address": "bc1qr352u9acs6gur8me8mcgez9c47stku9eytj2v7",
      "value": 23895
    },
    {
      "scriptpubkey": "76a914861e66118afe588006069ee65f50896e7cc5d41c88ac",
      "scriptpubkey_asm": "OP_DUP OP_HASH160 OP_PUSHBYTES_20 861e66118afe588006069ee65f50896e7cc5d41c OP_EQUALVERIFY OP_CHECKSIG",
      "scriptpubkey_type": "p2pkh",
      "scriptpubkey_address": "1DE9xqyN1Dm7Gjb8bop2Daip6tfnL42DDN",
      "value": 24270
    }
  ],
  "size": 369,
  "weight": 1476,
  "fee": 5565,
  "status": {
    "confirmed": true,
    "block_height": 834638,
    "block_hash": "000000000000000000025f742c626208ac87e0b7d15054abb4a19ca2d735a54e",
    "block_time": 1710405325
  },
  "hex": "020000000223cc12dc256bb0cba0e8e0f8798d551aab81d6ac2d8f052fe845bfc60c33bf47000000006a47304402207c25e395f6890691f72ed23fbce6c3108628a07f7a7c386822185307eefea14402205ee35c6fb2e6255dab23eb4ca33b6dc834dfe6d81b6bc82cd435e1cc2d5457e4012102f6fb73dd5d7f395a1f1e860f651946deca8edd6e8c49ec44f980cb5a761cb32affffffff4d6d7b900894dff959f07f1c2f368ddf5355db73793f608cdcefa0ffb6691e6a000000006a473044022010852fe0ecce8842f0a14a4c5843701e8ab861ee27dfa2d3870a23abadf160b90220571f3dde1913d1ee7f22ddb5605ed3d00e29a3ac81cecc15ed6cfc7fd1d542aa012102f6fb73dd5d7f395a1f1e860f651946deca8edd6e8c49ec44f980cb5a761cb32affffffff02575d0000000000001600141c68ae17b88691c19f793ef08c88b8afa0bb70b9ce5e0000000000001976a914861e66118afe588006069ee65f50896e7cc5d41c88ac00000000"
}