{
  "txid": "d36d32f6824bcd3068103206be6bf0a9b3a6f66d02aa9804730cc66b95eb88dc",
  "version": 1,
  "locktime": 0,
  "vin": [
    {
      "txid": "cdba2f8ee7a35a44e80af0b276313d6ec5cea943cbda975227fc25f117ac80b1",
      "vout": 1,
      "prevout": {
        "scriptpubkey": "0020bbe2c54242f02d7e9b8716ad86f1bcabeab7861e0b280f7422d051f2f0539f0a",
        "scriptpubkey_asm": "OP_0 OP_PUSHBYTES_32 bbe2c54242f02d7e9b8716ad86f1bcabeab7861e0b280f7422d051f2f0539f0a",
        "scriptpubkey_type": "v0_p2wsh",
        "scriptpubkey_address": "bc1qh03v2sjz7qkhaxu8z6kcdudu404t0ps7pv5q7apz6pgl9uznnu9qaslscn",
        "value": 444681534
      },
      "scriptsig": "",
      "scriptsig_asm": "",
      "witness": [
        "",
        "3045022100e819a5b63aba04f6b2a3927e812e40f5c27c5ee7f391ad4ed8fb063478081fa5022045c5c65c4eef3a3cd55c3ea2834e232c24626571a8d1183336d10b0935a30b2101",
        "304402201046f814d8c283d63c0d7f8f7ed3e82ea8119ee814e271e0dc4d181756f1223a02202ec31f3e800f503604b3a0f20c4a4fd8254c34eebcbeb37623b123a126bff83801",
        "522102fa6dbba257ad59e4311b4004e99450c46a21e9f60a37870d0b9dfc585df74b122103016519f248fd1c7330d522a50e4cbb642c607e1270112ac9d5c9307652dbe38052ae"
      ],
      "is_coinbase": false,
      "sequence": 0,
      "inner_witnessscript_asm": "OP_PUSHNUM_2 OP_PUSHBYTES_33 02fa6dbba257ad59e4311b4004e99450c46a21e9f60a37870d0b9dfc585df74b12 OP_PUSHBYTES_33 03016519f248fd1c7330d522a50e4cbb642c607e1270112ac9d5c9307652dbe380 OP_PUSHNUM_2 OP_CHECKMULTISIG"
    }
  ],
  "vout": [
    {
      "scriptpubkey": "76a9143e195a4c0c17c656e0c1070d6be567a7e09a2d3e88ac",
      "scriptpubkey_asm": "OP_DUP OP_HASH160 OP_PUSHBYTES_20 3e195a4c0c17c656e0c1070d6be567a7e09a2d3e OP_EQUALVERIFY OP_CHECKSIG",
      "scriptpubkey_type": "p2pkh",
      "scriptpubkey_address": "16fMGS2kPz7mwWD6tdo9JoyRLWY9WWzvY9",
      "value": 100000000
    },
    {
      "scriptpubkey": "0020bbe2c54242f02d7e9b8716ad86f1bcabeab7861e0b280f7422d051f2f0539f0a",
      "scriptpubkey_asm": "OP_0 OP_PUSHBYTES_32 bbe2c54242f02d7e9b8716ad86f1bcabeab7861e0b280f7422d051f2f0539f0a",
      "scriptpubkey_type": "v0_p2wsh",
      "scriptpubkey_address": "bc1qh03v2sjz7qkhaxu8z6kcdudu404t0ps7pv5q7apz6pgl9uznnu9qaslscn",
      "value": 344676382
    }
  ],
  "size": 349,
  "weight": 733,
  "fee": 5152,
  "status": {
    "confirmed": true,
    "block_height": 834638,
    "block_hash": "000000000000000000025f742c626208ac87e0b7d15054abb4a19ca2d735a54e",
    "block_time": 1710405325
  },
  "hex": "01000000000101b180ac17f125fc275297dacb43a9cec56e3d3176b2f00ae8445aa3e78e2fbacd0100000000000000000200e1f505000000001976a9143e195a4c0c17c656e0c1070d6be567a7e09a2d3e88ac1e588b1400000000220020bbe2c54242f02d7e9b8716ad86f1bcabeab7861e0b280f7422d051f2f0539f0a0400483045022100e819a5b63aba04f6b2a3927e812e40f5c27c5ee7f391ad4ed8fb063478081fa5022045c5c65c4eef3a3cd55c3ea2834e232c24626571a8d1183336d10b0935a30b210147304402201046f814d8c283d63c0d7f8f7ed3e82ea8119ee814e271e0dc4d181756f1223a02202ec31f3e800f503604b3a0f20c4a4fd8254c34eebcbeb37623b123a126bff8380147522102fa6dbba257ad59e4311b4004e99450c46a21e9f60a37870d0b9dfc585df74b122103016519f248fd1c7330d522a50e4cbb642c607e1270112ac9d5c9307652dbe38052ae00000000"
}