{
  "txid": "d374baf28591560f2bd5305b64f37e8629d4ebe5ca125811142ada697fd81f51",
  "version": 2,
  "locktime": 0,
  "vin": [
    {
      "txid": "42af99b30b70f276ba10b35aa2454c5964fe5c4ab991751548907e39fb03611c",
      "vout": 1,
      "prevout": {
        "scriptpubkey": "5120ba665e44b715150347265b3995fe4093fe20a0a97664b3ad64c6b9483105d676",
        "scriptpubkey_asm": "OP_PUSHNUM_1 OP_PUSHBYTES_32 ba665e44b715150347265b3995fe4093fe20a0a97664b3ad64c6b9483105d676",
        "scriptpubkey_type": "v1_p2tr",
        "scriptpubkey_address": "bc1phfn9u39hz52sx3extvuetljqj0lzpg9fwejt8ttyc6u5svg96emqetp6th",
        "value": 900000
      },
      "scriptsig": "",
      "scriptsig_asm": "",
      "witness": [
        "9899c7cad770b3d86c81b24055eb4bd8637b365c36feebea49bb5a3d438cf659d60699199f7dc568cb5c9de7c2d039c40ec7d9060728df5af90be1f186a290a0"
      ],
      "is_coinbase": false,
      "sequence": 4294967295
    },
    {
      "txid": "8fb650cd45063f1c52a4b7f9feac2150fcb13473862515e9eda447f51664b0db",
      "vout": 0,
      "prevout": {
        "scriptpubkey": "5120ba665e44b715150347265b3995fe4093fe20a0a97664b3ad64c6b9483105d676",
        "scriptpubkey_asm": "OP_PUSHNUM_1 OP_PUSHBYTES_32 ba665e44b715150347265b3995fe4093fe20a0a97664b3ad64c6b9483105d676",
        "scriptpubkey_type": "v1_p2tr",
        "scriptpubkey_address": "bc1phfn9u39hz52sx3extvuetljqj0lzpg9fwejt8ttyc6u5svg96emqetp6th",
        "value": 100000
      },
      "scriptsig": "",
      "scriptsig_asm": "",
      "witness": [
        "7d405717a36b7953ae8cf6575163f39a37e0b4f6442df9f130ba9fc2d0a0bc47fa0308bb126152d1e7482318a4d8f6779440cbb1efaa02d4652c07ecf50f575c"
      ],
      "is_coinbase": false,
      "sequence": 4294967295
    },
    {
      "txid": "42af99b30b70f276ba10b35aa2454c5964fe5c4ab991751548907e39fb03611c",
      "vout": 2,
      "prevout": {
        "scriptpubkey": "5120ba665e44b715150347265b3995fe4093fe20a0a97664b3ad64c6b9483105d676",
        "scriptpubkey_asm": "OP_PUSHNUM_1 OP_PUSHBYTES_32 ba665e44b715150347265b3995fe4093fe20a0a97664b3ad64c6b9483105d676",
        "scriptpubkey_type": "v1_p2tr",
        "scriptpubkey_address": "bc1phfn9u39hz52sx3extvuetljqj0lzpg9fwejt8ttyc6u5svg96emqetp6th",
        "value": 134392
      },
      "scriptsig": "",
      "scriptsig_asm": "",
      "witness": [
        "7640a371b1edb243d9dff0e5f09c8b02d2fa6ed41994da87171c946d104a8989560e0e38bf85d6d7bf5f5512dc3aefcb7baf31cbd9ac9302c0becb4b24ad3b0a"
      ],
      "is_coinbase": false,
      "sequence": 4294967295
    }
  ],
  "vout": [
    {
      "scriptpubkey": "512021f0bbd5a89a9e4b55249a39d8f8fafe81c6765f7b0ce2bd1ecfe6ac4ca7668c",
      "scriptpubkey_asm": "OP_PUSHNUM_1 OP_PUSHBYTES_32 21f0bbd5a89a9e4b55249a39d8f8fafe81c6765f7b0ce2bd1ecfe6ac4ca7668c",
      "scriptpubkey_type": "v1_p2tr",
      "scriptpubkey_address": "bc1py8cth4dgn20yk4fyngua3786l6quvajl0vxw90g7eln2cn98v6xqy8272v",
      "value": 910000
    },
    {
      "scriptpubkey": "5120ba665e44b715150347265b3995fe4093fe20a0a97664b3ad64c6b9483105d676",
      "scriptpubkey_asm": "OP_PUSHNUM_1 OP_PUSHBYTES_32 ba665e44b715150347265b3995fe4093fe20a0a97664b3ad64c6b9483105d676",
      "scriptpubkey_type": "v1_p2tr",
      "scriptpubkey_address": "bc1phfn9u39hz52sx3extvuetljqj0lzpg9fwejt8ttyc6u5svg96emqetp6th",
      "value": 90000
    },
    {
      "scriptpubkey": "5120ba665e44b715150347265b3995fe4093fe20a0a97664b3ad64c6b9483105d676",
      "scriptpubkey_asm": "OP_PUSHNUM_1 OP_PUSHBYTES_32 ba665e44b715150347265b3995fe4093fe20a0a97664b3ad64c6b9483105d676",
      "scriptpubkey_type": "v1_p2tr",
      "scriptpubkey_address": "bc1phfn9u39hz52sx3extvuetljqj0lzpg9fwejt8ttyc6u5svg96emqetp6th",
      "value": 130336
    }
  ],
  "size": 462,
  "weight": 1248,
  "fee": 4056,
  "status": {
    "confirmed": true,
    "block_height": 834460,
    "block_hash": "00000000000000000000484a79b643b2524bbce82e5d8a442013fa5b8905ed98",
    "block_time": 1710307468
  },
  "hex": "020000000001031c6103fb397e9048157591b94a5cfe64594c45a25ab310ba76f2700bb399af420100000000ffffffffdbb06416f547a4ede91525867334b1fc5021acfef9b7a4521c3f0645cd50b68f0000000000ffffffff1c6103fb397e9048157591b94a5cfe64594c45a25ab310ba76f2700bb399af420200000000ffffffff03b0e20d000000000022512021f0bbd5a89a9e4b55249a39d8f8fafe81c6765f7b0ce2bd1ecfe6ac4ca7668c905f010000000000225120ba665e44b715150347265b3995fe4093fe20a0a97664b3ad64c6b9483105d67620fd010000000000225120ba665e44b715150347265b3995fe4093fe20a0a97664b3ad64c6b9483105d67601409899c7cad770b3d86c81b24055eb4bd8637b365c36feebea49bb5a3d438cf659d60699199f7dc568cb5c9de7c2d039c40ec7d9060728df5af90be1f186a290a001407d405717a36b7953ae8cf6575163f39a37e0b4f6442df9f130ba9fc2d0a0bc47fa0308bb126152d1e7482318a4d8f6779440cbb1efaa02d4652c07ecf50f575c01407640a371b1edb243d9dff0e5f09c8b02d2fa6ed41994da87171c946d104a8989560e0e38bf85d6d7bf5f5512dc3aefcb7baf31cbd9ac9302c0becb4b24ad3b0a00000000"
}