{
  "txid": "d384e942183a61829d0c99d84c87475eefcdf6277b72989655007493e4bf021c",
  "version": 1,
  "locktime": 0,
  "vin": [
    {
      "txid": "edab54d1039f683fda2a293f8c4479c313e32470eb998668b67a3c783fbb20cc",
      "vout": 1,
      "prevout": {
        "scriptpubkey": "76a914b5be080fa5deb3238348ac6aa0240d574b56414488ac",
        "scriptpubkey_asm": "OP_DUP OP_HASH160 OP_PUSHBYTES_20 b5be080fa5deb3238348ac6aa0240d574b564144 OP_EQUALVERIFY OP_CHECKSIG",
        "scriptpubkey_type": "p2pkh",
        "scriptpubkey_address": "1HZxxLkrATEcDBmdXqNLxxUXUhCSy97E2T",
        "value": 280757107
      },
      "scriptsig": "483045022100be06ae176c4b61386fec6e079f11c51f5375588b9a64a364d311f06d4befc1df022017f83021d1ca99354a7a1705a223c59a7e7426a2b158cbb816161817ddbfc48d012103b5fa04d793ed42510aa5e5a8583d11c54490cbba6aa7cbd3d2ade0d9244a0db8",
      "scriptsig_asm": "OP_PUSHBYTES_72 3045022100be06ae176c4b61386fec6e079f11c51f5375588b9a64a364d311f06d4befc1df022017f83021d1ca99354a7a1705a223c59a7e7426a2b158cbb816161817ddbfc48d01 OP_PUSHBYTES_33 03b5fa04d793ed42510aa5e5a8583d11c54490cbba6aa7cbd3d2ade0d9244a0db8",
      "is_coinbase": false,
      "sequence": 4294967293
    }
  ],
  "vout": [
    {
      "scriptpubkey": "001477661e33c3274102f2bebd00cc70b61163785f4c",
      "scriptpubkey_asm": "OP_0 OP_PUSHBYTES_20 77661e33c3274102f2bebd00cc70b61163785f4c",
      "scriptpubkey_type": "v0_p2wpkh",
      "scriptpubkey_address": "bc1qwanpuv7ryaqs9u47h5qvcu9kz93hsh6vy0v5qq",
      "value": 10000
    },
    {
      "scriptpubkey": "76a914b5be080fa5deb3238348ac6aa0240d574b56414488ac",
      "scriptpubkey_asm": "OP_DUP OP_HASH160 OP_PUSHBYTES_20 b5be080fa5deb3238348ac6aa0240d574b564144 OP_EQUALVERIFY OP_CHECKSIG",
      "scriptpubkey_type": "p2pkh",
      "scriptpubkey_address": "1HZxxLkrATEcDBmdXqNLxxUXUhCSy97E2T",
      "value": 280740327
    }
  ],
  "size": 223,
  "weight": 892,
  "fee": 6780,
  "status": {
    "confirmed": true,
    "block_height": 834638,
    "block_hash": "000000000000000000025f742c626208ac87e0b7d15054abb4a19ca2d735a54e",
    "block_time": 1710405325
  },
  "hex": "0100000001cc20bb3f783c7ab6688699eb7024e313c379448c3f292ada3f689f03d154abed010000006b483045022100be06ae176c4b61386fec6e079f11c51f5375588b9a64a364d311f06d4befc1df022017f83021d1ca99354a7a1705a223c59a7e7426a2b158cbb816161817ddbfc48d012103b5fa04d793ed42510aa5e5a8583d11c54490cbba6aa7cbd3d2ade0d9244a0db8fdffffff02102700000000000016001477661e33c3274102f2bebd00cc70b61163785f4ce7c1bb10000000001976a914b5be080fa5deb3238348ac6aa0240d574b56414488ac00000000"
}