{
  "txid": "d3b751777486dbda49530a0a1a8f8683b7e87279bf004ca49d6d95f3942506f3",
  "version": 2,
  "locktime": 0,
  "vin": [
    {
      "txid": "8486ecb4df0880316dd6e82b3971b4df187aff23765bc3a47f8d78bb53aa273c",
      "vout": 30,
      "prevout": {
        "scriptpubkey": "5120706003a27c9c433de48a1ab6e0422e6b88afe29e93b50628b53ca0667a64c1dc",
        "scriptpubkey_asm": "OP_PUSHNUM_1 OP_PUSHBYTES_32 706003a27c9c433de48a1ab6e0422e6b88afe29e93b50628b53ca0667a64c1dc",
        "scriptpubkey_type": "v1_p2tr",
        "scriptpubkey_address": "bc1pwpsq8gnun3pnmey2r2mwqs3wdwy2lc57jw6sv2948jsxv7nyc8wq2p9hjv",
        "value": 2575
      },
      "scriptsig": "",
      "scriptsig_asm": "",
      "witness": [
        "b81bf353a95308725cd307ced561f32b543630d945a38e3fb9e59ae570fa236470ae5a726d773214daac4528f69343fe5a368e0971bf4a52827c1fd2a160c7dd",
        "208122a48dcf9f19dfa586223dd9178305cc4450842ad0cbb83dfa5cc12028dfd8ac0063036f726401010a746578742f706c61696e00367b2270223a226272632d3230222c226f70223a226d696e74222c227469636b223a2261616161222c22616d74223a223130303030227d68",
        "c08122a48dcf9f19dfa586223dd9178305cc4450842ad0cbb83dfa5cc12028dfd8"
      ],
      "is_coinbase": false,
      "sequence": 4261412863
    }
  ],
  "vout": [
    {
      "scriptpubkey": "0014ddd7ef12ea6f78edcc1e8e7afa12c01ab59f3339",
      "scriptpubkey_asm": "OP_0 OP_PUSHBYTES_20 ddd7ef12ea6f78edcc1e8e7afa12c01ab59f3339",
      "scriptpubkey_type": "v0_p2wpkh",
      "scriptpubkey_address": "bc1qmht77yh2dauwmnq73ea05ykqr26e7veea8spz6",
      "value": 546
    }
  ],
  "size": 295,
  "weight": 541,
  "fee": 2029,
  "status": {
    "confirmed": true,
    "block_height": 834460,
    "block_hash": "00000000000000000000484a79b643b2524bbce82e5d8a442013fa5b8905ed98",
    "block_time": 1710307468
  },
  "hex": "020000000001013c27aa53bb788d7fa4c35b7623ff7a18dfb471392be8d66d318008dfb4ec86841e00000000fffffffd012202000000000000160014ddd7ef12ea6f78edcc1e8e7afa12c01ab59f33390340b81bf353a95308725cd307ced561f32b543630d945a38e3fb9e59ae570fa236470ae5a726d773214daac4528f69343fe5a368e0971bf4a52827c1fd2a160c7dd6e208122a48dcf9f19dfa586223dd9178305cc4450842ad0cbb83dfa5cc12028dfd8ac0063036f726401010a746578742f706c61696e00367b2270223a226272632d3230222c226f70223a226d696e74222c227469636b223a2261616161222c22616d74223a223130303030227d6821c08122a48dcf9f19dfa586223dd9178305cc4450842ad0cbb83dfa5cc12028dfd800000000"
}