{
  "txid": "d3d6e988886bbf08e81e25ecaa89e1e93554973cc1a5a3f72de6b6b6b9fa5aab",
  "version": 2,
  "locktime": 0,
  "vin": [
    {
      "txid": "8777513150d2bacb6224274c3b13697c0f8bb4cd15ed161ace913d0a8c320207",
      "vout": 1,
      "prevout": {
        "scriptpubkey": "76a91430ca7e2f43b0d48ed032ee062de87d011da966dd88ac",
        "scriptpubkey_asm": "OP_DUP OP_HASH160 OP_PUSHBYTES_20 30ca7e2f43b0d48ed032ee062de87d011da966dd OP_EQUALVERIFY OP_CHECKSIG",
        "scriptpubkey_type": "p2pkh",
        "scriptpubkey_address": "15Sz1fPLBZ9ZCx4SZnk7PPw9o86N3HaVzN",
        "value": 3667
      },
      "scriptsig": "483045022100860685c372c40539db4805e6d32fa353f33dd26f073fb682867dc22be04a463a0220789561a975e4f6806f102594a0f3a865d99467e2bd4c19a6e628631ec414b8710121029f79e759331db36a22c46e5c147578ec27379a4efda7465cfd15cfcff122b481",
      "scriptsig_asm": "OP_PUSHBYTES_72 3045022100860685c372c40539db4805e6d32fa353f33dd26f073fb682867dc22be04a463a0220789561a975e4f6806f102594a0f3a865d99467e2bd4c19a6e628631ec414b87101 OP_PUSHBYTES_33 029f79e759331db36a22c46e5c147578ec27379a4efda7465cfd15cfcff122b481",
      "is_coinbase": false,
      "sequence": 4294967295
    }
  ],
  "vout": [
    {
      "scriptpubkey": "00144b09342502147287242a29870b01fe74755e5ee1",
      "scriptpubkey_asm": "OP_0 OP_PUSHBYTES_20 4b09342502147287242a29870b01fe74755e5ee1",
      "scriptpubkey_type": "v0_p2wpkh",
      "scriptpubkey_address": "bc1qfvyngfgzz3egwfp29xrskq07w364uhhpygalj0",
      "value": 1627
    }
  ],
  "size": 189,
  "weight": 756,
  "fee": 2040,
  "status": {
    "confirmed": true,
    "block_height": 834464,
    "block_hash": "0000000000000000000177a0869a911a2b65c9bdcd5a8bcb02b68f305bee848e",
    "block_time": 1710308296
  },
  "hex": "02000000010702328c0a3d91ce1a16ed15cdb48b0f7c69133b4c272462cbbad25031517787010000006b483045022100860685c372c40539db4805e6d32fa353f33dd26f073fb682867dc22be04a463a0220789561a975e4f6806f102594a0f3a865d99467e2bd4c19a6e628631ec414b8710121029f79e759331db36a22c46e5c147578ec27379a4efda7465cfd15cfcff122b481ffffffff015b060000000000001600144b09342502147287242a29870b01fe74755e5ee100000000"
}