{
  "txid": "d3db1e77cd4bb36faa5f8b368e089f7d98d4b076bb8688f353ad35d42e99436c",
  "version": 2,
  "locktime": 834637,
  "vin": [
    {
      "txid": "382ccc97cb3b301af8f77c21953f2e9d3bc627cd7f3e56b661368e825f375f45",
      "vout": 1,
      "prevout": {
        "scriptpubkey": "001411ecc20c004a876b639de4aea144896db4ee427f",
        "scriptpubkey_asm": "OP_0 OP_PUSHBYTES_20 11ecc20c004a876b639de4aea144896db4ee427f",
        "scriptpubkey_type": "v0_p2wpkh",
        "scriptpubkey_address": "bc1qz8kvyrqqf2rkkcuaujh2z3yfdk6wusnlvcnq0q",
        "value": 288716214
      },
      "scriptsig": "",
      "scriptsig_asm": "",
      "witness": [
        "30440220430545b2712f9e0b03785d64513a3fb4473e740db016bed96bc5fefef829503302207f98b4ca86f25f5b993f21f30cb9896d8720741813252e2494f7e9139793016d01",
        "0328a582b410b5cef1d7c1986e2ef361013aa1e5f8fe2e637ca0fb0642e74b7ae6"
      ],
      "is_coinbase": false,
      "sequence": 4294967294
    }
  ],
  "vout": [
    {
      "scriptpubkey": "0014999209e34e54a3f4a7519f08b9bfc04c7adbf1a3",
      "scriptpubkey_asm": "OP_0 OP_PUSHBYTES_20 999209e34e54a3f4a7519f08b9bfc04c7adbf1a3",
      "scriptpubkey_type": "v0_p2wpkh",
      "scriptpubkey_address": "bc1qnxfqnc6w2j3lff63nuytn07qf3adhudrkttjd2",
      "value": 10867600
    },
    {
      "scriptpubkey": "001455574b38dfb93a4730f60dbd34ae071a071df9ea",
      "scriptpubkey_asm": "OP_0 OP_PUSHBYTES_20 55574b38dfb93a4730f60dbd34ae071a071df9ea",
      "scriptpubkey_type": "v0_p2wpkh",
      "scriptpubkey_address": "bc1q24t5kwxlhyaywv8kpk7nfts8rgr3m702wt6528",
      "value": 277845158
    }
  ],
  "size": 222,
  "weight": 561,
  "fee": 3456,
  "status": {
    "confirmed": true,
    "block_height": 834638,
    "block_hash": "000000000000000000025f742c626208ac87e0b7d15054abb4a19ca2d735a54e",
    "block_time": 1710405325
  },
  "hex": "02000000000101455f375f828e3661b6563e7fcd27c63b9d2e3f95217cf7f81a303bcb97cc2c380100000000feffffff0290d3a50000000000160014999209e34e54a3f4a7519f08b9bfc04c7adbf1a3a6948f100000000016001455574b38dfb93a4730f60dbd34ae071a071df9ea024730440220430545b2712f9e0b03785d64513a3fb4473e740db016bed96bc5fefef829503302207f98b4ca86f25f5b993f21f30cb9896d8720741813252e2494f7e9139793016d01210328a582b410b5cef1d7c1986e2ef361013aa1e5f8fe2e637ca0fb0642e74b7ae64dbc0c00"
}