{
  "txid": "d3f3bb38d56bf26d8de02f0b6d1facf7dfed129db8fe4f67f5fbb5257b3d8d8d",
  "version": 2,
  "locktime": 834459,
  "vin": [
    {
      "txid": "6944eb393353a6a3bc33fb2df138809620a596d50b5e5b11dca4c2e8ae8aa3ee",
      "vout": 1,
      "prevout": {
        "scriptpubkey": "00148aa9e5c0770c1af69812d869439aba17acf1c8ce",
        "scriptpubkey_asm": "OP_0 OP_PUSHBYTES_20 8aa9e5c0770c1af69812d869439aba17acf1c8ce",
        "scriptpubkey_type": "v0_p2wpkh",
        "scriptpubkey_address": "bc1q3257tsrhpsd0dxqjmp558x46z7k0rjxwrh2tsq",
        "value": 1285652
      },
      "scriptsig": "",
      "scriptsig_asm": "",
      "witness": [
        "304402201b7164069ce4d064a5a7caa93344643087ea5e6cb1861f89798a0ab1803f221002206ddde07b295fa44a7b4c0ae4f5a5388a6ef6ecff9ef40e0d9feeeb9df23cf21d01",
        "02c24b1ef1c99eda85d14edc02c858ba53743b5e9a01727819d740edf8f6463ffb"
      ],
      "is_coinbase": false,
      "sequence": 4294967294
    },
    {
      "txid": "d8bbcefef94f637a88b07c2deaeb214360b322c19d40c8e0db92490748131090",
      "vout": 0,
      "prevout": {
        "scriptpubkey": "001480904d130a75357810b6c86688874c7c64e8d3aa",
        "scriptpubkey_asm": "OP_0 OP_PUSHBYTES_20 80904d130a75357810b6c86688874c7c64e8d3aa",
        "scriptpubkey_type": "v0_p2wpkh",
        "scriptpubkey_address": "bc1qszgy6yc2w56hsy9kepng3p6v03jw35a2sd8na4",
        "value": 1733220
      },
      "scriptsig": "",
      "scriptsig_asm": "",
      "witness": [
        "30440220798e8dd89b6e05e793f530ccfef2b3e770409978d49537d17e75daf27e419a5302207c440b358bdb6940fda42860ed45d1a6f890d4a348e9f92e68b9748bfd714ece01",
        "0232e625715e8b27bd62e3e8e55389338bc3f32ab01b0861069184d5f8ba8e6ca2"
      ],
      "is_coinbase": false,
      "sequence": 4294967294
    },
    {
      "txid": "1b2494423e008ba3bc235af3bb050f666cb1d80390b0585f17602f93c51f712c",
      "vout": 1,
      "prevout": {
        "scriptpubkey": "0014ae74100fda718001328299bec92251347b6e206c",
        "scriptpubkey_asm": "OP_0 OP_PUSHBYTES_20 ae74100fda718001328299bec92251347b6e206c",
        "scriptpubkey_type": "v0_p2wpkh",
        "scriptpubkey_address": "bc1q4e6pqr76wxqqzv5znxlvjgj3x3akugrv0ewkcv",
        "value": 1994317
      },
      "scriptsig": "",
      "scriptsig_asm": "",
      "witness": [
        "3044022038d613909c6f934730953d5251692883041d54692c07a0dbac12a40aa582bf6c022070c090f405f2ea501482e5435114c3d4ef71c231b545c4a0e59ecb2d1f90b90b01",
        "035d11c22290b185c2ac7d72fff4fbf5f6345e3b7a2ce7d81b5bd951bf5fb86160"
      ],
      "is_coinbase": false,
      "sequence": 4294967294
    },
    {
      "txid": "919ef8cf965334fca511a96ea1c3970139c407dd0ad428120af7341add0d31db",
      "vout": 1,
      "prevout": {
        "scriptpubkey": "a914ddcb30d50859f77fc1780ebfce8ee8576fe8a26387",
        "scriptpubkey_asm": "OP_HASH160 OP_PUSHBYTES_20 ddcb30d50859f77fc1780ebfce8ee8576fe8a263 OP_EQUAL",
        "scriptpubkey_type": "p2sh",
        "scriptpubkey_address": "3MukfswfCcAynFTx3C8Zye3iYhwQ7HYU7Z",
        "value": 4000000
      },
      "scriptsig": "1600140e26d68176b8b2aa0b598df53802cff9d5f31892",
      "scriptsig_asm": "OP_PUSHBYTES_22 00140e26d68176b8b2aa0b598df53802cff9d5f31892",
      "witness": [
        "3044022018aace8563486b511a2b8b3237203274ba1eb81d5c50336be217539658bba97502200564293e28e50bbc90d71a855806a8a877359944ead5b14ef2e81e5d68b8991601",
        "02c27d0ddf011a3d881c5da8d8f86b9e4195cb85234796daa83f4bc00ba7eae8b3"
      ],
      "is_coinbase": false,
      "sequence": 4294967294,
      "inner_redeemscript_asm": "OP_0 OP_PUSHBYTES_20 0e26d68176b8b2aa0b598df53802cff9d5f31892"
    },
    {
      "txid": "a80149c1b03a664793e4645e5768f08b01f33128e5be85a9ec39485b66a3832c",
      "vout": 5,
      "prevout": {
        "scriptpubkey": "a914a82bb0dc1b2ad990844970f3171431d74a406c5387",
        "scriptpubkey_asm": "OP_HASH160 OP_PUSHBYTES_20 a82bb0dc1b2ad990844970f3171431d74a406c53 OP_EQUAL",
        "scriptpubkey_type": "p2sh",
        "scriptpubkey_address": "3H2DnTweGSVhcWWFABRhW9DVxTytZMu8YX",
        "value": 2966488
      },
      "scriptsig": "160014f0ea25de742ca363f613b57815091d55831f1cdd",
      "scriptsig_asm": "OP_PUSHBYTES_22 0014f0ea25de742ca363f613b57815091d55831f1cdd",
      "witness": [
        "304402200ed7af43072c3442d8adf08928fda952bb833772e13aabd24beca4ea0f8d891002203e35de8df9039e55007e780ee3c75243e21cc17903467ff25a693498efe7cce901",
        "03223c8013b02c4eaa2b178c7c7d4aa936a79cce28c2e6ba21f34cdb25fa2cbfd4"
      ],
      "is_coinbase": false,
      "sequence": 4294967294,
      "inner_redeemscript_asm": "OP_0 OP_PUSHBYTES_20 f0ea25de742ca363f613b57815091d55831f1cdd"
    },
    {
      "txid": "69a3a236ea7184635c934ca86f92d66a73ad0e4567caa3f7b04f7b32dd8e3226",
      "vout": 0,
      "prevout": {
        "scriptpubkey": "a914f59bb50b57ba59d9cc707f77d1c5aa6edf9aa71487",
        "scriptpubkey_asm": "OP_HASH160 OP_PUSHBYTES_20 f59bb50b57ba59d9cc707f77d1c5aa6edf9aa714 OP_EQUAL",
        "scriptpubkey_type": "p2sh",
        "scriptpubkey_address": "3Q5g1GXFDWRWCdZu54Fqiq1Chyy85Nh2W1",
        "value": 20230133
      },
      "scriptsig": "160014bafb524591c3bcf914b4de98a285aa42c0336650",
      "scriptsig_asm": "OP_PUSHBYTES_22 0014bafb524591c3bcf914b4de98a285aa42c0336650",
      "witness": [
        "3044022070d4dc8e9b545d572a12d269002cb1ab9a60d4d84b5d9253ede67ffe48e5651c022075274498e795f255d72ba465045c9ac604fdcbfabcc69f0812d026add28fad5d01",
        "03e66bc1dc17299651cfb659eb8d0f60ea9e49757ecfcc32d560983d6af7550d6b"
      ],
      "is_coinbase": false,
      "sequence": 4294967294,
      "inner_redeemscript_asm": "OP_0 OP_PUSHBYTES_20 bafb524591c3bcf914b4de98a285aa42c0336650"
    },
    {
      "txid": "1282cfe2409ffdaed03e245ab6af0f15eb760b475fe059980675b7d9da8d4371",
      "vout": 1,
      "prevout": {
        "scriptpubkey": "a91450eae83a016eb048e8aafbcf7442e08931c5958487",
        "scriptpubkey_asm": "OP_HASH160 OP_PUSHBYTES_20 50eae83a016eb048e8aafbcf7442e08931c59584 OP_EQUAL",
        "scriptpubkey_type": "p2sh",
        "scriptpubkey_address": "394sPXMEFLeRmgyWrgq8WsfuA32gmNVMZT",
        "value": 3000000
      },
      "scriptsig": "1600143f523f3f3ff0abb24f355f12343e6ffd1d6acc2e",
      "scriptsig_asm": "OP_PUSHBYTES_22 00143f523f3f3ff0abb24f355f12343e6ffd1d6acc2e",
      "witness": [
        "304402203bcb79c14f400f7fe5c0b1f9424d796c5cc98717643e495714fe147aa94fda5f022025eafe67a670faf7fb02aaa182d7793118cf4e7702eaf23cb4cd47d14d7d401001",
        "02dc27275176734f5dd8b67ac3bb9c1fd65ef2dab48ae0a229647bb402ae90610b"
      ],
      "is_coinbase": false,
      "sequence": 4294967294,
      "inner_redeemscript_asm": "OP_0 OP_PUSHBYTES_20 3f523f3f3ff0abb24f355f12343e6ffd1d6acc2e"
    }
  ],
  "vout": [
    {
      "scriptpubkey": "0014e199291b6da7802c3487f6dc06bcd3e9b021588b",
      "scriptpubkey_asm": "OP_0 OP_PUSHBYTES_20 e199291b6da7802c3487f6dc06bcd3e9b021588b",
      "scriptpubkey_type": "v0_p2wpkh",
      "scriptpubkey_address": "bc1quxvjjxmd57qzcdy87mwqd0xnaxczzkyty2vh6a",
      "value": 35194857
    }
  ],
  "size": 1171,
  "weight": 2431,
  "fee": 14953,
  "status": {
    "confirmed": true,
    "block_height": 834460,
    "block_hash": "00000000000000000000484a79b643b2524bbce82e5d8a442013fa5b8905ed98",
    "block_time": 1710307468
  },
  "hex": "02000000000107eea38aaee8c2a4dc115b5e0bd596a520968038f12dfb33bca3a6533339eb44690100000000feffffff90101348074992dbe0c8409dc122b3604321ebea2d7cb0887a634ff9fecebbd80000000000feffffff2c711fc5932f60175f58b09003d8b16c660f05bbf35a23bca38b003e4294241b0100000000feffffffdb310ddd1a34f70a1228d40add07c4390197c3a16ea911a5fc345396cff89e9101000000171600140e26d68176b8b2aa0b598df53802cff9d5f31892feffffff2c83a3665b4839eca985bee52831f3018bf068575e64e49347663ab0c14901a80500000017160014f0ea25de742ca363f613b57815091d55831f1cddfeffffff26328edd327b4fb0f7a3ca67450ead736ad6926fa84c935c638471ea36a2a3690000000017160014bafb524591c3bcf914b4de98a285aa42c0336650feffffff71438ddad9b775069859e05f470b76eb150fafb65a243ed0aefd9f40e2cf821201000000171600143f523f3f3ff0abb24f355f12343e6ffd1d6acc2efeffffff01e907190200000000160014e199291b6da7802c3487f6dc06bcd3e9b021588b0247304402201b7164069ce4d064a5a7caa93344643087ea5e6cb1861f89798a0ab1803f221002206ddde07b295fa44a7b4c0ae4f5a5388a6ef6ecff9ef40e0d9feeeb9df23cf21d012102c24b1ef1c99eda85d14edc02c858ba53743b5e9a01727819d740edf8f6463ffb024730440220798e8dd89b6e05e793f530ccfef2b3e770409978d49537d17e75daf27e419a5302207c440b358bdb6940fda42860ed45d1a6f890d4a348e9f92e68b9748bfd714ece01210232e625715e8b27bd62e3e8e55389338bc3f32ab01b0861069184d5f8ba8e6ca202473044022038d613909c6f934730953d5251692883041d54692c07a0dbac12a40aa582bf6c022070c090f405f2ea501482e5435114c3d4ef71c231b545c4a0e59ecb2d1f90b90b0121035d11c22290b185c2ac7d72fff4fbf5f6345e3b7a2ce7d81b5bd951bf5fb8616002473044022018aace8563486b511a2b8b3237203274ba1eb81d5c50336be217539658bba97502200564293e28e50bbc90d71a855806a8a877359944ead5b14ef2e81e5d68b89916012102c27d0ddf011a3d881c5da8d8f86b9e4195cb85234796daa83f4bc00ba7eae8b30247304402200ed7af43072c3442d8adf08928fda952bb833772e13aabd24beca4ea0f8d891002203e35de8df9039e55007e780ee3c75243e21cc17903467ff25a693498efe7cce9012103223c8013b02c4eaa2b178c7c7d4aa936a79cce28c2e6ba21f34cdb25fa2cbfd402473044022070d4dc8e9b545d572a12d269002cb1ab9a60d4d84b5d9253ede67ffe48e5651c022075274498e795f255d72ba465045c9ac604fdcbfabcc69f0812d026add28fad5d012103e66bc1dc17299651cfb659eb8d0f60ea9e49757ecfcc32d560983d6af7550d6b0247304402203bcb79c14f400f7fe5c0b1f9424d796c5cc98717643e495714fe147aa94fda5f022025eafe67a670faf7fb02aaa182d7793118cf4e7702eaf23cb4cd47d14d7d4010012102dc27275176734f5dd8b67ac3bb9c1fd65ef2dab48ae0a229647bb402ae90610b9bbb0c00"
}