{
  "txid": "d40e8ea57179728160e81ba8e70452dbe69650ba2aa55e2a52d4af6a3d0869eb",
  "version": 1,
  "locktime": 0,
  "vin": [
    {
      "txid": "bd275be9928fb6987351a9c1ca507e041bbb2413e5677e0421773e3aaac53a3a",
      "vout": 0,
      "prevout": {
        "scriptpubkey": "51203c7a4c5cd32f78d75e1475d3ca729e5fae1932538718649eeb8fe3659a315318",
        "scriptpubkey_asm": "OP_PUSHNUM_1 OP_PUSHBYTES_32 3c7a4c5cd32f78d75e1475d3ca729e5fae1932538718649eeb8fe3659a315318",
        "scriptpubkey_type": "v1_p2tr",
        "scriptpubkey_address": "bc1p83aychxn9audwhs5whfu5u57t7hpjvjnsuvxf8ht3l3ktx332vvqzjgs5h",
        "value": 2346
      },
      "scriptsig": "",
      "scriptsig_asm": "",
      "witness": [
        "a63ab622e80994354ca6f7ceb9056fbb97e274aa60f9f2048867464330c59f2fdb15245081c6774f19db0191ce72b96a62d229e4a7cd2c539d3eb9b1a1e17e33",
        "20d263247619472cc545bb3779d26aa013e6f891bffdd1a62ee6841d351c543b72ac0063036f726401010a746578742f706c61696e003e7b2270223a226272632d3230222c226f70223a227472616e73666572222c227469636b223a2253415453222c22616d74223a22313030303030303030227d68",
        "c1d263247619472cc545bb3779d26aa013e6f891bffdd1a62ee6841d351c543b72"
      ],
      "is_coinbase": false,
      "sequence": 4294967293
    }
  ],
  "vout": [
    {
      "scriptpubkey": "5120b1044a38f772b8bc790e0e45013c773fc58ac857b854f21707ba4c878507501a",
      "scriptpubkey_asm": "OP_PUSHNUM_1 OP_PUSHBYTES_32 b1044a38f772b8bc790e0e45013c773fc58ac857b854f21707ba4c878507501a",
      "scriptpubkey_type": "v1_p2tr",
      "scriptpubkey_address": "bc1pkyzy5w8hw2utc7gwpezsz0rh8lzc4jzhhp20y9c8hfxg0pg82qdqsc5glu",
      "value": 546
    }
  ],
  "size": 315,
  "weight": 597,
  "fee": 1800,
  "status": {
    "confirmed": true,
    "block_height": 834460,
    "block_hash": "00000000000000000000484a79b643b2524bbce82e5d8a442013fa5b8905ed98",
    "block_time": 1710307468
  },
  "hex": "010000000001013a3ac5aa3a3e7721047e67e51324bb1b047e50cac1a9517398b68f92e95b27bd0000000000fdffffff012202000000000000225120b1044a38f772b8bc790e0e45013c773fc58ac857b854f21707ba4c878507501a0340a63ab622e80994354ca6f7ceb9056fbb97e274aa60f9f2048867464330c59f2fdb15245081c6774f19db0191ce72b96a62d229e4a7cd2c539d3eb9b1a1e17e337620d263247619472cc545bb3779d26aa013e6f891bffdd1a62ee6841d351c543b72ac0063036f726401010a746578742f706c61696e003e7b2270223a226272632d3230222c226f70223a227472616e73666572222c227469636b223a2253415453222c22616d74223a22313030303030303030227d6821c1d263247619472cc545bb3779d26aa013e6f891bffdd1a62ee6841d351c543b7200000000"
}