{
  "txid": "d4135551ccf12c7a1f0a3df9d7af5e8be34dfd8f7092a14b87f7171dbdb5cb47",
  "version": 1,
  "locktime": 0,
  "vin": [
    {
      "txid": "30fb7c52fa269167c5905da66e6a0a1daae9b915d91ea06e18b9bdbc50939600",
      "vout": 1,
      "prevout": {
        "scriptpubkey": "a914dcfbeddd8daafa20221169eab5a2356500cbc91687",
        "scriptpubkey_asm": "OP_HASH160 OP_PUSHBYTES_20 dcfbeddd8daafa20221169eab5a2356500cbc916 OP_EQUAL",
        "scriptpubkey_type": "p2sh",
        "scriptpubkey_address": "3MqUP6G1daVS5YTD8fz3QgwjZortWwxXFd",
        "value": 119100446564
      },
      "scriptsig": "1600141e41581abee2c9e1de78f83c4884c3fddc54d74e",
      "scriptsig_asm": "OP_PUSHBYTES_22 00141e41581abee2c9e1de78f83c4884c3fddc54d74e",
      "witness": [
        "3045022100df5a96624c8ca9d4ff1ec225455bc5a4f515c5d4bb2051a279557841d645a02e022028a81fe259f1713649036d5bbcafa87e9c54315bd42193badd8eb87f212d5fa401",
        "0398b299b41cb7a0e412b2de7eb450e99e42621608902a91a3ac47d0d15495f625"
      ],
      "is_coinbase": false,
      "sequence": 4294967295,
      "inner_redeemscript_asm": "OP_0 OP_PUSHBYTES_20 1e41581abee2c9e1de78f83c4884c3fddc54d74e"
    }
  ],
  "vout": [
    {
      "scriptpubkey": "76a9141e188d1d085c316cff023d250ab07f3d0da0254388ac",
      "scriptpubkey_asm": "OP_DUP OP_HASH160 OP_PUSHBYTES_20 1e188d1d085c316cff023d250ab07f3d0da02543 OP_EQUALVERIFY OP_CHECKSIG",
      "scriptpubkey_type": "p2pkh",
      "scriptpubkey_address": "13k8gc2T62Jt67yY8uSFVqcXKh2awWita6",
      "value": 15933167587
    },
    {
      "scriptpubkey": "a914dcfbeddd8daafa20221169eab5a2356500cbc91687",
      "scriptpubkey_asm": "OP_HASH160 OP_PUSHBYTES_20 dcfbeddd8daafa20221169eab5a2356500cbc916 OP_EQUAL",
      "scriptpubkey_type": "p2sh",
      "scriptpubkey_address": "3MqUP6G1daVS5YTD8fz3QgwjZortWwxXFd",
      "value": 103167274414
    }
  ],
  "size": 250,
  "weight": 670,
  "fee": 4563,
  "status": {
    "confirmed": true,
    "block_height": 834638,
    "block_hash": "000000000000000000025f742c626208ac87e0b7d15054abb4a19ca2d735a54e",
    "block_time": 1710405325
  },
  "hex": "0100000000010100969350bcbdb9186ea01ed915b9e9aa1d0a6a6ea65d90c5679126fa527cfb3001000000171600141e41581abee2c9e1de78f83c4884c3fddc54d74effffffff02e3d7b0b5030000001976a9141e188d1d085c316cff023d250ab07f3d0da0254388acaead3f051800000017a914dcfbeddd8daafa20221169eab5a2356500cbc9168702483045022100df5a96624c8ca9d4ff1ec225455bc5a4f515c5d4bb2051a279557841d645a02e022028a81fe259f1713649036d5bbcafa87e9c54315bd42193badd8eb87f212d5fa401210398b299b41cb7a0e412b2de7eb450e99e42621608902a91a3ac47d0d15495f62500000000"
}