{
  "txid": "d41d8cd8e328447860e92ae464e47a58f51c8ea2d8bdaa238d91b64fc88f3946",
  "version": 2,
  "locktime": 0,
  "vin": [
    {
      "txid": "295e150459d5a2a2c7f5d59022518963995e0ecc29292ff635b0316554d5c805",
      "vout": 12,
      "prevout": {
        "scriptpubkey": "0014f230ce432bcb87a8c9ea03eebc97b4fb8494f2ea",
        "scriptpubkey_asm": "OP_0 OP_PUSHBYTES_20 f230ce432bcb87a8c9ea03eebc97b4fb8494f2ea",
        "scriptpubkey_type": "v0_p2wpkh",
        "scriptpubkey_address": "bc1q7gcvusetewr63j02q0hte9a5lwzffuh206r62h",
        "value": 259000
      },
      "scriptsig": "",
      "scriptsig_asm": "",
      "witness": [
        "3045022100b188f603e60e664ebe4648369757a0324b87a6b32a4d36fd29df3fbb7b777327022053d96ddd660ea2c47d9c0624b017310f6099a83111ab82f2672dd3c54e0c1a9601",
        "0230cfd898b80dc9cc4df0e5013eb1b08f505bcc8c18e1068340eace47d45f84c9"
      ],
      "is_coinbase": false,
      "sequence": 4294967295
    }
  ],
  "vout": [
    {
      "scriptpubkey": "00141788aac55b12ae74fe05653fcf2f264c7ad3b325",
      "scriptpubkey_asm": "OP_0 OP_PUSHBYTES_20 1788aac55b12ae74fe05653fcf2f264c7ad3b325",
      "scriptpubkey_type": "v0_p2wpkh",
      "scriptpubkey_address": "bc1qz7y2432mz2h8fls9v5lu7texf3ad8ve9x6ssr6",
      "value": 256240
    }
  ],
  "size": 192,
  "weight": 438,
  "fee": 2760,
  "status": {
    "confirmed": true,
    "block_height": 834638,
    "block_hash": "000000000000000000025f742c626208ac87e0b7d15054abb4a19ca2d735a54e",
    "block_time": 1710405325
  },
  "hex": "0200000000010105c8d5546531b035f62f2929cc0e5e996389512290d5f5c7a2a2d55904155e290c00000000ffffffff01f0e80300000000001600141788aac55b12ae74fe05653fcf2f264c7ad3b32502483045022100b188f603e60e664ebe4648369757a0324b87a6b32a4d36fd29df3fbb7b777327022053d96ddd660ea2c47d9c0624b017310f6099a83111ab82f2672dd3c54e0c1a9601210230cfd898b80dc9cc4df0e5013eb1b08f505bcc8c18e1068340eace47d45f84c900000000"
}