{
  "txid": "d444b0e123078cc470214a7459f7cec22828e55ac0ef4ffae430780ba095d2cd",
  "version": 2,
  "locktime": 0,
  "vin": [
    {
      "txid": "257da85d0fd20c0846cd3569870745ed20afef43ce6376cbc5de4f720b0bd6b0",
      "vout": 0,
      "prevout": {
        "scriptpubkey": "5120a1463f338f4de324519788e61d73c8eea9b6fcf496ff0c34e21b91a7e3ee22ea",
        "scriptpubkey_asm": "OP_PUSHNUM_1 OP_PUSHBYTES_32 a1463f338f4de324519788e61d73c8eea9b6fcf496ff0c34e21b91a7e3ee22ea",
        "scriptpubkey_type": "v1_p2tr",
        "scriptpubkey_address": "bc1p59rr7vu0fh3jg5vh3rnp6u7ga65mdl85jmlscd8zrwg60clwyt4qqtu4zr",
        "value": 34551
      },
      "scriptsig": "",
      "scriptsig_asm": "",
      "witness": [
        "1603c9d26d2346c9a880e6c6f3bc0f224c623458cc2bbec0fcadcd330c117d40794e46f2fe8d9387ed53ae153ef75d3dd8913e5266b5a5d01404dc1929a1f5c4"
      ],
      "is_coinbase": false,
      "sequence": 0
    },
    {
      "txid": "384dda25783b4af511e85a081e56d679263e8ced6e858c1bc2a1718fc2465355",
      "vout": 0,
      "prevout": {
        "scriptpubkey": "5120d4fe1391c07041aa5a3d0ad1d8acd0ee24f501616b475fb0ef71be29447a3386",
        "scriptpubkey_asm": "OP_PUSHNUM_1 OP_PUSHBYTES_32 d4fe1391c07041aa5a3d0ad1d8acd0ee24f501616b475fb0ef71be29447a3386",
        "scriptpubkey_type": "v1_p2tr",
        "scriptpubkey_address": "bc1p6nlp8ywqwpq65k3aptga3txsacj02qtpddr4lv80wxlzj3r6xwrqkwqe50",
        "value": 45195
      },
      "scriptsig": "",
      "scriptsig_asm": "",
      "witness": [
        "cd6569d4fb61c6a3d90f16ba96404b9726dac2cde97fa38ed868b2028773ab2b1ab347cb2527486cbc3cbb61fb39be14e20a4524d4e9f32f6d2736ad46260283"
      ],
      "is_coinbase": false,
      "sequence": 0
    },
    {
      "txid": "40e68e27b17b502bedb5c4e568e80cdf5718dda6eda7866d2497c70e7b1d3c07",
      "vout": 0,
      "prevout": {
        "scriptpubkey": "512098d9a0509fceb4339c3ed1eace493b6d691a2be332a0105ed7ceb59d5614ce80",
        "scriptpubkey_asm": "OP_PUSHNUM_1 OP_PUSHBYTES_32 98d9a0509fceb4339c3ed1eace493b6d691a2be332a0105ed7ceb59d5614ce80",
        "scriptpubkey_type": "v1_p2tr",
        "scriptpubkey_address": "bc1pnrv6q5yle66r88p7684vujfmd45352lrx2spqhkhe66e64s5e6qq4y3w6u",
        "value": 39333
      },
      "scriptsig": "",
      "scriptsig_asm": "",
      "witness": [
        "b84ba78d7137836d061ed4b4c993d5e1a5d696774c8a569441c9a47d2e608a947f8ecde7e9d5ceacae7ef61827d407b32d000c5a9ceaf0d1b2576574545f95aa"
      ],
      "is_coinbase": false,
      "sequence": 0
    },
    {
      "txid": "4db273e0444dc243f9477f837f160e6ee8bc1a445d50791956c60bb4ac1163d2",
      "vout": 0,
      "prevout": {
        "scriptpubkey": "5120a898fe80fc98f24d8cfadda336d2741a478ca475af7ed7419775262d29e5674b",
        "scriptpubkey_asm": "OP_PUSHNUM_1 OP_PUSHBYTES_32 a898fe80fc98f24d8cfadda336d2741a478ca475af7ed7419775262d29e5674b",
        "scriptpubkey_type": "v1_p2tr",
        "scriptpubkey_address": "bc1p4zv0aq8unreymr86mk3nd5n5rfrcefr44aldwsvhw5nz6209va9szceel0",
        "value": 122441
      },
      "scriptsig": "",
      "scriptsig_asm": "",
      "witness": [
        "36594a5da9dbf351ed8d1a055698045fad1a12bca0c22025d571ae8765501e51ac92bbcf00fd4dda13113663b35847243ee320993ad59891963677757f791356"
      ],
      "is_coinbase": false,
      "sequence": 0
    },
    {
      "txid": "6570c14da3a8459c84c19c338d6d9df5d09e0fa901f3660bbf9472ce733d81f6",
      "vout": 0,
      "prevout": {
        "scriptpubkey": "512096614044097481ae71b6c539015ba867a15f5ebe83cf74b5791aa4810b5ea10c",
        "scriptpubkey_asm": "OP_PUSHNUM_1 OP_PUSHBYTES_32 96614044097481ae71b6c539015ba867a15f5ebe83cf74b5791aa4810b5ea10c",
        "scriptpubkey_type": "v1_p2tr",
        "scriptpubkey_address": "bc1pjes5q3qfwjq6uudkc5uszkagv7s47h47s08hfdter2jgzz675yxq3vcxtn",
        "value": 70466
      },
      "scriptsig": "",
      "scriptsig_asm": "",
      "witness": [
        "df0a97e8fb757084fd5e99aafb487fd2879587ad20b88025d92d27f9bff5deb0a70bb0d2d95fdc1a98d10c9d12f0c7fafef4b47579928cfd7c44de8877078691"
      ],
      "is_coinbase": false,
      "sequence": 0
    },
    {
      "txid": "d339e6d67c4fa6699d691d4bf375b18c0e38ed091e17a5eae1d85b8040b2d4ad",
      "vout": 0,
      "prevout": {
        "scriptpubkey": "51207fac758f13df8828089f1030aa86fe97e3f01b69602c8205162cb3c687fc4f08",
        "scriptpubkey_asm": "OP_PUSHNUM_1 OP_PUSHBYTES_32 7fac758f13df8828089f1030aa86fe97e3f01b69602c8205162cb3c687fc4f08",
        "scriptpubkey_type": "v1_p2tr",
        "scriptpubkey_address": "bc1p07k8trcnm7yzszylzqc24ph7jl3lqxmfvqkgypgk9jeudplufuyqlu3txd",
        "value": 77217
      },
      "scriptsig": "",
      "scriptsig_asm": "",
      "witness": [
        "fbe5b664028d292703fd7108ee5d3665624929279e1cfc3dd6638f9c7b8bef3aa02d727bf83a55cc377efe4527e9c053ddb5d904eaddd91edccd268148852db5"
      ],
      "is_coinbase": false,
      "sequence": 0
    },
    {
      "txid": "d46b4db61fecf3111bc46c42e598463f9ff7385d4184396c8e80b32daf202a75",
      "vout": 0,
      "prevout": {
        "scriptpubkey": "512055fc200220af776497e0c378ddded67d1794a1538a9f814c7ec8c5e75179ed2c",
        "scriptpubkey_asm": "OP_PUSHNUM_1 OP_PUSHBYTES_32 55fc200220af776497e0c378ddded67d1794a1538a9f814c7ec8c5e75179ed2c",
        "scriptpubkey_type": "v1_p2tr",
        "scriptpubkey_address": "bc1p2h7zqq3q4amkf9lqcdudmhkk05tefg2n320cznr7erz7w5tea5kq0d0uwm",
        "value": 77348
      },
      "scriptsig": "",
      "scriptsig_asm": "",
      "witness": [
        "99c065fef052d76cecf0cd400580186ab831dd84f297e11c01b969d565f77d51a35d3c2e265febb05c9fe05936f10fe4b5ef3ebd583ffe41830ebc7a2ada3466"
      ],
      "is_coinbase": false,
      "sequence": 0
    },
    {
      "txid": "dd884b73b7ecd33de1af65683e88dc69dad8b8fefc3d0720be5e5213fbb08a27",
      "vout": 0,
      "prevout": {
        "scriptpubkey": "512014acb0d0326f4bb24612f56f3b4b4b3516f65350975ddbd373c0cbb4bbe15b64",
        "scriptpubkey_asm": "OP_PUSHNUM_1 OP_PUSHBYTES_32 14acb0d0326f4bb24612f56f3b4b4b3516f65350975ddbd373c0cbb4bbe15b64",
        "scriptpubkey_type": "v1_p2tr",
        "scriptpubkey_address": "bc1pzjktp5pjda9my3sj74hnkj6tx5t0v56sjawah5mncr9mfwlptdjq4cm8f2",
        "value": 48743
      },
      "scriptsig": "",
      "scriptsig_asm": "",
      "witness": [
        "67044bce903e690f5dd295f9091b8e9ff6f8164c355081ca87ee47064b5c2be23b5c7b766e232a534ba4450253e4af52709553ee0ebbaeea98be81207a36d5a2"
      ],
      "is_coinbase": false,
      "sequence": 0
    },
    {
      "txid": "deb88f5ad040a3d30b2dfccaab339befae7c61461f4a7e06e127d6e521b323bb",
      "vout": 1,
      "prevout": {
        "scriptpubkey": "5120a2aca557e076ca1d0d0593205b628a04aa06911601488d18998b214024a37099",
        "scriptpubkey_asm": "OP_PUSHNUM_1 OP_PUSHBYTES_32 a2aca557e076ca1d0d0593205b628a04aa06911601488d18998b214024a37099",
        "scriptpubkey_type": "v1_p2tr",
        "scriptpubkey_address": "bc1p52k224lqwm9p6rg9jvs9kc52qj4qdygkq9yg6xye3vs5qf9rwzvss58yxm",
        "value": 2726335
      },
      "scriptsig": "",
      "scriptsig_asm": "",
      "witness": [
        "e2efc54969165559cf6ecea73f633d8d39159526a70c063ef7709a23896e357688126cf50b0878f2876ff5bc98f3f29089e2acc72d80b849e431aeaa9ea8233c"
      ],
      "is_coinbase": false,
      "sequence": 0
    }
  ],
  "vout": [
    {
      "scriptpubkey": "5120cc7847726d50c5622d5b1790b4e0f7334de98d010b2f3e5c6aa82502bb9f2a2d",
      "scriptpubkey_asm": "OP_PUSHNUM_1 OP_PUSHBYTES_32 cc7847726d50c5622d5b1790b4e0f7334de98d010b2f3e5c6aa82502bb9f2a2d",
      "scriptpubkey_type": "v1_p2tr",
      "scriptpubkey_address": "bc1pe3uywund2rzkyt2mz7gtfc8hxdx7nrgppvhnuhr24qjs9wul9gksgxve82",
      "value": 1234875
    },
    {
      "scriptpubkey": "0020752944e271a8c6194feadf309311f5a0f1f73e6cdd18bb7f6e61869492fc8e86",
      "scriptpubkey_asm": "OP_0 OP_PUSHBYTES_32 752944e271a8c6194feadf309311f5a0f1f73e6cdd18bb7f6e61869492fc8e86",
      "scriptpubkey_type": "v0_p2wsh",
      "scriptpubkey_address": "bc1qw555fcn34rrpjnl2mucfxy045rclw0nvm5vtklmwvxrffyhu36rq0gn503",
      "value": 2000000
    }
  ],
  "size": 1061,
  "weight": 2456,
  "fee": 6754,
  "status": {
    "confirmed": true,
    "block_height": 834464,
    "block_hash": "0000000000000000000177a0869a911a2b65c9bdcd5a8bcb02b68f305bee848e",
    "block_time": 1710308296
  },
  "hex": "02000000000109b0d60b0b724fdec5cb7663ce43efaf20ed4507876935cd46080cd20f5da87d25000000000000000000555346c28f71a1c21b8c856eed8c3e2679d6561e085ae811f54a3b7825da4d38000000000000000000073c1d7b0ec797246d86a7eda6dd1857df0ce868e5c4b5ed2b507bb1278ee640000000000000000000d26311acb40bc6561979505d441abce86e0e167f837f47f943c24d44e073b24d000000000000000000f6813d73ce7294bf0b66f301a90f9ed0f59d6d8d339cc1849c45a8a34dc17065000000000000000000add4b240805bd8e1eaa5171e09ed380e8cb175f34b1d699d69a64f7cd6e639d3000000000000000000752a20af2db3808e6c3984415d38f79f3f4698e5426cc41b11f3ec1fb64d6bd4000000000000000000278ab0fb13525ebe20073dfcfeb8d8da69dc883e6865afe13dd3ecb7734b88dd000000000000000000bb23b321e5d627e1067e4a1f46617caeef9b33abcafc2d0bd3a340d05a8fb8de01000000000000000002bbd7120000000000225120cc7847726d50c5622d5b1790b4e0f7334de98d010b2f3e5c6aa82502bb9f2a2d80841e0000000000220020752944e271a8c6194feadf309311f5a0f1f73e6cdd18bb7f6e61869492fc8e8601401603c9d26d2346c9a880e6c6f3bc0f224c623458cc2bbec0fcadcd330c117d40794e46f2fe8d9387ed53ae153ef75d3dd8913e5266b5a5d01404dc1929a1f5c40140cd6569d4fb61c6a3d90f16ba96404b9726dac2cde97fa38ed868b2028773ab2b1ab347cb2527486cbc3cbb61fb39be14e20a4524d4e9f32f6d2736ad462602830140b84ba78d7137836d061ed4b4c993d5e1a5d696774c8a569441c9a47d2e608a947f8ecde7e9d5ceacae7ef61827d407b32d000c5a9ceaf0d1b2576574545f95aa014036594a5da9dbf351ed8d1a055698045fad1a12bca0c22025d571ae8765501e51ac92bbcf00fd4dda13113663b35847243ee320993ad59891963677757f7913560140df0a97e8fb757084fd5e99aafb487fd2879587ad20b88025d92d27f9bff5deb0a70bb0d2d95fdc1a98d10c9d12f0c7fafef4b47579928cfd7c44de88770786910140fbe5b664028d292703fd7108ee5d3665624929279e1cfc3dd6638f9c7b8bef3aa02d727bf83a55cc377efe4527e9c053ddb5d904eaddd91edccd268148852db5014099c065fef052d76cecf0cd400580186ab831dd84f297e11c01b969d565f77d51a35d3c2e265febb05c9fe05936f10fe4b5ef3ebd583ffe41830ebc7a2ada3466014067044bce903e690f5dd295f9091b8e9ff6f8164c355081ca87ee47064b5c2be23b5c7b766e232a534ba4450253e4af52709553ee0ebbaeea98be81207a36d5a20140e2efc54969165559cf6ecea73f633d8d39159526a70c063ef7709a23896e357688126cf50b0878f2876ff5bc98f3f29089e2acc72d80b849e431aeaa9ea8233c00000000"
}