{
  "txid": "d445ece16d21807ab1d287109a775938ea09418befc20224a918882f7c81a619",
  "version": 1,
  "locktime": 0,
  "vin": [
    {
      "txid": "10ec4cf05eae9d773f4b8f548a9cbe21b03dec9cff974014adcfe251a270924f",
      "vout": 1,
      "prevout": {
        "scriptpubkey": "76a9146d1661848c7efb3662a4d273ed581ab92f03cb4b88ac",
        "scriptpubkey_asm": "OP_DUP OP_HASH160 OP_PUSHBYTES_20 6d1661848c7efb3662a4d273ed581ab92f03cb4b OP_EQUALVERIFY OP_CHECKSIG",
        "scriptpubkey_type": "p2pkh",
        "scriptpubkey_address": "1AwoTxtvJwk2HoEHYtTRLZshAPudecXg6Y",
        "value": 2776159
      },
      "scriptsig": "473044022038b9d83ee7a7a6df9c6af578aedd39604efd67b6c70c514c3f66c644d4d50177022012d35a2b5daf0a1f941b6ccf99bdbaa5cb4052776fe0d2e53c772d7e93d01a6b01210372cdf7d9cb4e7f48a5f3fe22505b80d446bc1a851a15aff54409b4b68dde35fa",
      "scriptsig_asm": "OP_PUSHBYTES_71 3044022038b9d83ee7a7a6df9c6af578aedd39604efd67b6c70c514c3f66c644d4d50177022012d35a2b5daf0a1f941b6ccf99bdbaa5cb4052776fe0d2e53c772d7e93d01a6b01 OP_PUSHBYTES_33 0372cdf7d9cb4e7f48a5f3fe22505b80d446bc1a851a15aff54409b4b68dde35fa",
      "is_coinbase": false,
      "sequence": 4294967295
    }
  ],
  "vout": [
    {
      "scriptpubkey": "00142c4d38d567ff4c03ccbc864bcb340ebed84f25e5",
      "scriptpubkey_asm": "OP_0 OP_PUSHBYTES_20 2c4d38d567ff4c03ccbc864bcb340ebed84f25e5",
      "scriptpubkey_type": "v0_p2wpkh",
      "scriptpubkey_address": "bc1q93xn34t8laxq8n9use9ukdqwhmvy7f09l4t5g8",
      "value": 68207
    },
    {
      "scriptpubkey": "76a9146d1661848c7efb3662a4d273ed581ab92f03cb4b88ac",
      "scriptpubkey_asm": "OP_DUP OP_HASH160 OP_PUSHBYTES_20 6d1661848c7efb3662a4d273ed581ab92f03cb4b OP_EQUALVERIFY OP_CHECKSIG",
      "scriptpubkey_type": "p2pkh",
      "scriptpubkey_address": "1AwoTxtvJwk2HoEHYtTRLZshAPudecXg6Y",
      "value": 2703432
    }
  ],
  "size": 222,
  "weight": 888,
  "fee": 4520,
  "status": {
    "confirmed": true,
    "block_height": 834638,
    "block_hash": "000000000000000000025f742c626208ac87e0b7d15054abb4a19ca2d735a54e",
    "block_time": 1710405325
  },
  "hex": "01000000014f9270a251e2cfad144097ff9cec3db021be9c8a548f4b3f779dae5ef04cec10010000006a473044022038b9d83ee7a7a6df9c6af578aedd39604efd67b6c70c514c3f66c644d4d50177022012d35a2b5daf0a1f941b6ccf99bdbaa5cb4052776fe0d2e53c772d7e93d01a6b01210372cdf7d9cb4e7f48a5f3fe22505b80d446bc1a851a15aff54409b4b68dde35faffffffff026f0a0100000000001600142c4d38d567ff4c03ccbc864bcb340ebed84f25e548402900000000001976a9146d1661848c7efb3662a4d273ed581ab92f03cb4b88ac00000000"
}