{
  "txid": "d45aed4a250324eb69fac40a4f10f0c0f75853ddef7283e247f889c43f74e59a",
  "version": 2,
  "locktime": 0,
  "vin": [
    {
      "txid": "72e8db64a40ecd172e52bfdfce17e494321f82276e247748ce59591ac5e66502",
      "vout": 3,
      "prevout": {
        "scriptpubkey": "5120a9a3fc82c07bb4492c2e21defddc9eca3acea1cb7100d22904b9a2072bfea227",
        "scriptpubkey_asm": "OP_PUSHNUM_1 OP_PUSHBYTES_32 a9a3fc82c07bb4492c2e21defddc9eca3acea1cb7100d22904b9a2072bfea227",
        "scriptpubkey_type": "v1_p2tr",
        "scriptpubkey_address": "bc1p4x3leqkq0w6yjtpwy800mhy7egavagwtwyqdy2gyhx3qw2l75gnswgmgax",
        "value": 600
      },
      "scriptsig": "",
      "scriptsig_asm": "",
      "witness": [
        "e4ff1b7cbeb0926b01dd0ac12245696c80e9d929027972e9a277b333ad23b41ac6e6052d32dd54f5fb1c6216db64201e3f38028522918bb766dcfbef6f2b0338"
      ],
      "is_coinbase": false,
      "sequence": 4294967295
    },
    {
      "txid": "72e8db64a40ecd172e52bfdfce17e494321f82276e247748ce59591ac5e66502",
      "vout": 4,
      "prevout": {
        "scriptpubkey": "5120a9a3fc82c07bb4492c2e21defddc9eca3acea1cb7100d22904b9a2072bfea227",
        "scriptpubkey_asm": "OP_PUSHNUM_1 OP_PUSHBYTES_32 a9a3fc82c07bb4492c2e21defddc9eca3acea1cb7100d22904b9a2072bfea227",
        "scriptpubkey_type": "v1_p2tr",
        "scriptpubkey_address": "bc1p4x3leqkq0w6yjtpwy800mhy7egavagwtwyqdy2gyhx3qw2l75gnswgmgax",
        "value": 600
      },
      "scriptsig": "",
      "scriptsig_asm": "",
      "witness": [
        "0e9b8bcea29dbdbcadb4cf55750d7c04b9512f518b6f2d643226999174519d7ebaf689e704926c1bd53ae0b5a890ece569833a65cff05b2db8751497ceb53388"
      ],
      "is_coinbase": false,
      "sequence": 4294967295
    },
    {
      "txid": "d926b8b88570a75ba9bfa2b81c428c39d4061741388c5e6c733bc7302dd94ed7",
      "vout": 0,
      "prevout": {
        "scriptpubkey": "51208804d41de36ea34e2a7e270d7d1423a47b6f53ef91343ea26e7108eebfe57517",
        "scriptpubkey_asm": "OP_PUSHNUM_1 OP_PUSHBYTES_32 8804d41de36ea34e2a7e270d7d1423a47b6f53ef91343ea26e7108eebfe57517",
        "scriptpubkey_type": "v1_p2tr",
        "scriptpubkey_address": "bc1p3qzdg80rd635u2n7yuxh69pr53ak75l0jy6ragnwwyywa0l9w5tszysanm",
        "value": 546
      },
      "scriptsig": "",
      "scriptsig_asm": "",
      "witness": [
        "c3b0071972e12d61584c8b706308b48468e9becfb654bcbf1012e63859e4c3d17b8dfae48f354c9ed815952eb535ff3c189e847635647e998eda52c92ed5084283"
      ],
      "is_coinbase": false,
      "sequence": 4294967295
    },
    {
      "txid": "e9fd1c01c7a7b442c3a6f6d6fd36a5dae49697a045504ac6997631d454152411",
      "vout": 2,
      "prevout": {
        "scriptpubkey": "5120a9a3fc82c07bb4492c2e21defddc9eca3acea1cb7100d22904b9a2072bfea227",
        "scriptpubkey_asm": "OP_PUSHNUM_1 OP_PUSHBYTES_32 a9a3fc82c07bb4492c2e21defddc9eca3acea1cb7100d22904b9a2072bfea227",
        "scriptpubkey_type": "v1_p2tr",
        "scriptpubkey_address": "bc1p4x3leqkq0w6yjtpwy800mhy7egavagwtwyqdy2gyhx3qw2l75gnswgmgax",
        "value": 1700000
      },
      "scriptsig": "",
      "scriptsig_asm": "",
      "witness": [
        "1bd23d21ddc4754e02efa9c6c3e9ae0d28158b0962af88a47cd41adc5f9624735639fc6ac82713f9dcd8c9c960162b66f8ed306f61397404d1461f7093726912"
      ],
      "is_coinbase": false,
      "sequence": 4294967295
    }
  ],
  "vout": [
    {
      "scriptpubkey": "5120a9a3fc82c07bb4492c2e21defddc9eca3acea1cb7100d22904b9a2072bfea227",
      "scriptpubkey_asm": "OP_PUSHNUM_1 OP_PUSHBYTES_32 a9a3fc82c07bb4492c2e21defddc9eca3acea1cb7100d22904b9a2072bfea227",
      "scriptpubkey_type": "v1_p2tr",
      "scriptpubkey_address": "bc1p4x3leqkq0w6yjtpwy800mhy7egavagwtwyqdy2gyhx3qw2l75gnswgmgax",
      "value": 1200
    },
    {
      "scriptpubkey": "5120a9a3fc82c07bb4492c2e21defddc9eca3acea1cb7100d22904b9a2072bfea227",
      "scriptpubkey_asm": "OP_PUSHNUM_1 OP_PUSHBYTES_32 a9a3fc82c07bb4492c2e21defddc9eca3acea1cb7100d22904b9a2072bfea227",
      "scriptpubkey_type": "v1_p2tr",
      "scriptpubkey_address": "bc1p4x3leqkq0w6yjtpwy800mhy7egavagwtwyqdy2gyhx3qw2l75gnswgmgax",
      "value": 546
    },
    {
      "scriptpubkey": "51208804d41de36ea34e2a7e270d7d1423a47b6f53ef91343ea26e7108eebfe57517",
      "scriptpubkey_asm": "OP_PUSHNUM_1 OP_PUSHBYTES_32 8804d41de36ea34e2a7e270d7d1423a47b6f53ef91343ea26e7108eebfe57517",
      "scriptpubkey_type": "v1_p2tr",
      "scriptpubkey_address": "bc1p3qzdg80rd635u2n7yuxh69pr53ak75l0jy6ragnwwyywa0l9w5tszysanm",
      "value": 195500
    },
    {
      "scriptpubkey": "5120a9a3fc82c07bb4492c2e21defddc9eca3acea1cb7100d22904b9a2072bfea227",
      "scriptpubkey_asm": "OP_PUSHNUM_1 OP_PUSHBYTES_32 a9a3fc82c07bb4492c2e21defddc9eca3acea1cb7100d22904b9a2072bfea227",
      "scriptpubkey_type": "v1_p2tr",
      "scriptpubkey_address": "bc1p4x3leqkq0w6yjtpwy800mhy7egavagwtwyqdy2gyhx3qw2l75gnswgmgax",
      "value": 600
    },
    {
      "scriptpubkey": "5120a9a3fc82c07bb4492c2e21defddc9eca3acea1cb7100d22904b9a2072bfea227",
      "scriptpubkey_asm": "OP_PUSHNUM_1 OP_PUSHBYTES_32 a9a3fc82c07bb4492c2e21defddc9eca3acea1cb7100d22904b9a2072bfea227",
      "scriptpubkey_type": "v1_p2tr",
      "scriptpubkey_address": "bc1p4x3leqkq0w6yjtpwy800mhy7egavagwtwyqdy2gyhx3qw2l75gnswgmgax",
      "value": 600
    },
    {
      "scriptpubkey": "5120a9a3fc82c07bb4492c2e21defddc9eca3acea1cb7100d22904b9a2072bfea227",
      "scriptpubkey_asm": "OP_PUSHNUM_1 OP_PUSHBYTES_32 a9a3fc82c07bb4492c2e21defddc9eca3acea1cb7100d22904b9a2072bfea227",
      "scriptpubkey_type": "v1_p2tr",
      "scriptpubkey_address": "bc1p4x3leqkq0w6yjtpwy800mhy7egavagwtwyqdy2gyhx3qw2l75gnswgmgax",
      "value": 1495815
    }
  ],
  "size": 699,
  "weight": 1995,
  "fee": 7485,
  "status": {
    "confirmed": true,
    "block_height": 834460,
    "block_hash": "00000000000000000000484a79b643b2524bbce82e5d8a442013fa5b8905ed98",
    "block_time": 1710307468
  },
  "hex": "020000000001040265e6c51a5959ce4877246e27821f3294e417cedfbf522e17cd0ea464dbe8720300000000ffffffff0265e6c51a5959ce4877246e27821f3294e417cedfbf522e17cd0ea464dbe8720400000000ffffffffd74ed92d30c73b736c5e8c38411706d4398c421cb8a2bfa95ba77085b8b826d90000000000ffffffff11241554d4317699c64a5045a09796e4daa536fdd6f6a6c342b4a7c7011cfde90200000000ffffffff06b004000000000000225120a9a3fc82c07bb4492c2e21defddc9eca3acea1cb7100d22904b9a2072bfea2272202000000000000225120a9a3fc82c07bb4492c2e21defddc9eca3acea1cb7100d22904b9a2072bfea227acfb0200000000002251208804d41de36ea34e2a7e270d7d1423a47b6f53ef91343ea26e7108eebfe575175802000000000000225120a9a3fc82c07bb4492c2e21defddc9eca3acea1cb7100d22904b9a2072bfea2275802000000000000225120a9a3fc82c07bb4492c2e21defddc9eca3acea1cb7100d22904b9a2072bfea22707d3160000000000225120a9a3fc82c07bb4492c2e21defddc9eca3acea1cb7100d22904b9a2072bfea2270140e4ff1b7cbeb0926b01dd0ac12245696c80e9d929027972e9a277b333ad23b41ac6e6052d32dd54f5fb1c6216db64201e3f38028522918bb766dcfbef6f2b033801400e9b8bcea29dbdbcadb4cf55750d7c04b9512f518b6f2d643226999174519d7ebaf689e704926c1bd53ae0b5a890ece569833a65cff05b2db8751497ceb533880141c3b0071972e12d61584c8b706308b48468e9becfb654bcbf1012e63859e4c3d17b8dfae48f354c9ed815952eb535ff3c189e847635647e998eda52c92ed508428301401bd23d21ddc4754e02efa9c6c3e9ae0d28158b0962af88a47cd41adc5f9624735639fc6ac82713f9dcd8c9c960162b66f8ed306f61397404d1461f709372691200000000"
}