{
  "txid": "d46dcb999054ec2c83bbf25ae43df367039bd19876649758cbf71fd5b11fb231",
  "version": 2,
  "locktime": 0,
  "vin": [
    {
      "txid": "522e70d206e8cb4a5ec151b34cef22297f19b609754e9f7999483056ebd7a6c9",
      "vout": 1,
      "prevout": {
        "scriptpubkey": "5120c8ef2b6bf8b5c941a59a042c68788bdfe655af342c8b999c1d0ddfecda04651f",
        "scriptpubkey_asm": "OP_PUSHNUM_1 OP_PUSHBYTES_32 c8ef2b6bf8b5c941a59a042c68788bdfe655af342c8b999c1d0ddfecda04651f",
        "scriptpubkey_type": "v1_p2tr",
        "scriptpubkey_address": "bc1perhjk6lckhy5rfv6qskxs7ytmln9tte59j9en8qaph07eksyv50sp6v644",
        "value": 546
      },
      "scriptsig": "",
      "scriptsig_asm": "",
      "witness": [
        "33ec41bcd359148349da5fad85ee17ea497fdff6d855ed06bfa5383d26c57c9c4d26c292c89a95e8ed52bb5199a2ef5e3e23f9ca1c0f6181ce7a9558c2e0063e01"
      ],
      "is_coinbase": false,
      "sequence": 4294967295
    },
    {
      "txid": "4c3f230ed054eb3fea6f773a5a41b8b1960cc2ed2097db8aaa76aa50f4a8c3af",
      "vout": 3,
      "prevout": {
        "scriptpubkey": "a9141224fe28ce45908aadd3723f7bdd99f06a66d98687",
        "scriptpubkey_asm": "OP_HASH160 OP_PUSHBYTES_20 1224fe28ce45908aadd3723f7bdd99f06a66d986 OP_EQUAL",
        "scriptpubkey_type": "p2sh",
        "scriptpubkey_address": "33LxQJUtcXnY2NMocpunR86hg9ytKEZZSV",
        "value": 277744
      },
      "scriptsig": "1600140589f85e986c670798efe2b32b0c99a07ba4bc9e",
      "scriptsig_asm": "OP_PUSHBYTES_22 00140589f85e986c670798efe2b32b0c99a07ba4bc9e",
      "witness": [
        "3045022100b5e54e82057cd96020a0d615b1a746a60a055a64fc1cb13a0886af6e1279fb5102202d49070bc0d427b9ae01fbf32be07c5af5c534fda99fd9effd3f579792853e6901",
        "03e49d8b5d9d84b6369981c074d8cd7ddaf01a8e7af54e3a7b4da514374f3f4d36"
      ],
      "is_coinbase": false,
      "sequence": 4294967295,
      "inner_redeemscript_asm": "OP_0 OP_PUSHBYTES_20 0589f85e986c670798efe2b32b0c99a07ba4bc9e"
    }
  ],
  "vout": [
    {
      "scriptpubkey": "5120ef7e902f55e30152d4204f3269900950847443662768a3a8ccefd620f6c6837c",
      "scriptpubkey_asm": "OP_PUSHNUM_1 OP_PUSHBYTES_32 ef7e902f55e30152d4204f3269900950847443662768a3a8ccefd620f6c6837c",
      "scriptpubkey_type": "v1_p2tr",
      "scriptpubkey_address": "bc1paalfqt64uvq494pqfuexnyqf2zz8gsmxya5282xvaltzpakxsd7qjjuljk",
      "value": 546
    },
    {
      "scriptpubkey": "a9147c50a49f527653800d698ded4c752381a40d199087",
      "scriptpubkey_asm": "OP_HASH160 OP_PUSHBYTES_20 7c50a49f527653800d698ded4c752381a40d1990 OP_EQUAL",
      "scriptpubkey_type": "p2sh",
      "scriptpubkey_address": "3D2LKWSpRji4hx4Sk4K83CCPStzDuLDhgg",
      "value": 547
    },
    {
      "scriptpubkey": "a914ea6b832a05c6ca578baa3836f3f25553d41068a587",
      "scriptpubkey_asm": "OP_HASH160 OP_PUSHBYTES_20 ea6b832a05c6ca578baa3836f3f25553d41068a5 OP_EQUAL",
      "scriptpubkey_type": "p2sh",
      "scriptpubkey_address": "3P4WqXDbSLRhzo2H6MT6YFbvBKBDPLbVtQ",
      "value": 579
    },
    {
      "scriptpubkey": "a9141224fe28ce45908aadd3723f7bdd99f06a66d98687",
      "scriptpubkey_asm": "OP_HASH160 OP_PUSHBYTES_20 1224fe28ce45908aadd3723f7bdd99f06a66d986 OP_EQUAL",
      "scriptpubkey_type": "p2sh",
      "scriptpubkey_address": "33LxQJUtcXnY2NMocpunR86hg9ytKEZZSV",
      "value": 271236
    }
  ],
  "size": 431,
  "weight": 1193,
  "fee": 5382,
  "status": {
    "confirmed": true,
    "block_height": 834552,
    "block_hash": "00000000000000000001dd0468a70c94f619251d286585cff57aeb4bd9ede330",
    "block_time": 1710355598
  },
  "hex": "02000000000102c9a6d7eb56304899799f4e7509b6197f2922ef4cb351c15e4acbe806d2702e520100000000ffffffffafc3a8f450aa76aa8adb9720edc20c96b1b8415a3a776fea3feb54d00e233f4c03000000171600140589f85e986c670798efe2b32b0c99a07ba4bc9effffffff042202000000000000225120ef7e902f55e30152d4204f3269900950847443662768a3a8ccefd620f6c6837c230200000000000017a9147c50a49f527653800d698ded4c752381a40d199087430200000000000017a914ea6b832a05c6ca578baa3836f3f25553d41068a587842304000000000017a9141224fe28ce45908aadd3723f7bdd99f06a66d98687014133ec41bcd359148349da5fad85ee17ea497fdff6d855ed06bfa5383d26c57c9c4d26c292c89a95e8ed52bb5199a2ef5e3e23f9ca1c0f6181ce7a9558c2e0063e0102483045022100b5e54e82057cd96020a0d615b1a746a60a055a64fc1cb13a0886af6e1279fb5102202d49070bc0d427b9ae01fbf32be07c5af5c534fda99fd9effd3f579792853e69012103e49d8b5d9d84b6369981c074d8cd7ddaf01a8e7af54e3a7b4da514374f3f4d3600000000"
}