{
  "txid": "d46e76a0c8559b76ac00bf5a2f5df1aba3aa2fa8dcbfa9ab288027813b627f24",
  "version": 2,
  "locktime": 0,
  "vin": [
    {
      "txid": "22a5dc0e8257f0e25997eed630f8b7ac96cc7531984abe0c64cc8c46657b6ae3",
      "vout": 76,
      "prevout": {
        "scriptpubkey": "0014b8dc319668657d45fc5d979f69fd3d893d5653ac",
        "scriptpubkey_asm": "OP_0 OP_PUSHBYTES_20 b8dc319668657d45fc5d979f69fd3d893d5653ac",
        "scriptpubkey_type": "v0_p2wpkh",
        "scriptpubkey_address": "bc1qhrwrr9ngv475tlzaj70knlfa3y74v5avnlnjhe",
        "value": 62613510
      },
      "scriptsig": "",
      "scriptsig_asm": "",
      "witness": [
        "304402204310f383fad1455f9ed9aa467635b71f5a37d2130d4408e654ad95051d76522202204087115438217c3e11ec8b5fe796aa4fa50bd95f3cffb8829559d05dab0acabe01",
        "03804276913cd3e7e76780c9786f27bb56a302213ab15a4d6de1d365aef943c2da"
      ],
      "is_coinbase": false,
      "sequence": 4294967293
    }
  ],
  "vout": [
    {
      "scriptpubkey": "001447ccc188c78d5e7d9d74ac1e37a1f5e8a08c8d65",
      "scriptpubkey_asm": "OP_0 OP_PUSHBYTES_20 47ccc188c78d5e7d9d74ac1e37a1f5e8a08c8d65",
      "scriptpubkey_type": "v0_p2wpkh",
      "scriptpubkey_address": "bc1qglxvrzx83408m8t54s0r0g04azsgert9s3265s",
      "value": 62592788
    }
  ],
  "size": 191,
  "weight": 437,
  "fee": 20722,
  "status": {
    "confirmed": true,
    "block_height": 834638,
    "block_hash": "000000000000000000025f742c626208ac87e0b7d15054abb4a19ca2d735a54e",
    "block_time": 1710405325
  },
  "hex": "02000000000101e36a7b65468ccc640cbe4a983175cc96acb7f830d6ee9759e2f057820edca5224c00000000fdffffff011417bb030000000016001447ccc188c78d5e7d9d74ac1e37a1f5e8a08c8d650247304402204310f383fad1455f9ed9aa467635b71f5a37d2130d4408e654ad95051d76522202204087115438217c3e11ec8b5fe796aa4fa50bd95f3cffb8829559d05dab0acabe012103804276913cd3e7e76780c9786f27bb56a302213ab15a4d6de1d365aef943c2da00000000"
}