{
  "txid": "d47e9346df428d9b2e7c158f5b2ce59412f84b8f33751002a169a132940868a8",
  "version": 2,
  "locktime": 0,
  "vin": [
    {
      "txid": "acc3ba00869acb582a3f2904ce3a11dd3779350ce234063fc7d0959246213364",
      "vout": 282,
      "prevout": {
        "scriptpubkey": "5120d3f36ee340428411b655454cecef487d6c40545af66a5c47c7c4f6cdee389b54",
        "scriptpubkey_asm": "OP_PUSHNUM_1 OP_PUSHBYTES_32 d3f36ee340428411b655454cecef487d6c40545af66a5c47c7c4f6cdee389b54",
        "scriptpubkey_type": "v1_p2tr",
        "scriptpubkey_address": "bc1p60ekac6qg2zprdj4g4xwem6g04kyq4z67e49c378cnmvmm3cnd2qcthkd2",
        "value": 1806
      },
      "scriptsig": "",
      "scriptsig_asm": "",
      "witness": [
        "e4d73bb43a9dab98c20388d1a208a5aeace3f793f2072b288bb1d07c71ca7b753b2f9cc3407c434efcc07ea6ae30492f3537f5ba45f525159e9fd1003502af49",
        "205d1492d6b2e042807da354e72badb7bace386c42cc0114e00c871ea004e42406ac0063036f726401010a746578742f706c61696e00357b2270223a226272632d3230222c226f70223a226d696e74222c227469636b223a22646f6765222c22616d74223a2234323030227d68",
        "c15d1492d6b2e042807da354e72badb7bace386c42cc0114e00c871ea004e42406"
      ],
      "is_coinbase": false,
      "sequence": 4261412863
    }
  ],
  "vout": [
    {
      "scriptpubkey": "00147a665de7a370f4c9b372ab1fae587500a5bcbdb4",
      "scriptpubkey_asm": "OP_0 OP_PUSHBYTES_20 7a665de7a370f4c9b372ab1fae587500a5bcbdb4",
      "scriptpubkey_type": "v0_p2wpkh",
      "scriptpubkey_address": "bc1q0fn9mearwr6vnvmj4v06ukr4qzjme0d565dzcx",
      "value": 294
    }
  ],
  "size": 294,
  "weight": 540,
  "fee": 1512,
  "status": {
    "confirmed": true,
    "block_height": 834460,
    "block_hash": "00000000000000000000484a79b643b2524bbce82e5d8a442013fa5b8905ed98",
    "block_time": 1710307468
  },
  "hex": "02000000000101643321469295d0c73f0634e20c357937dd113ace04293f2a58cb9a8600bac3ac1a01000000fffffffd0126010000000000001600147a665de7a370f4c9b372ab1fae587500a5bcbdb40340e4d73bb43a9dab98c20388d1a208a5aeace3f793f2072b288bb1d07c71ca7b753b2f9cc3407c434efcc07ea6ae30492f3537f5ba45f525159e9fd1003502af496d205d1492d6b2e042807da354e72badb7bace386c42cc0114e00c871ea004e42406ac0063036f726401010a746578742f706c61696e00357b2270223a226272632d3230222c226f70223a226d696e74222c227469636b223a22646f6765222c22616d74223a2234323030227d6821c15d1492d6b2e042807da354e72badb7bace386c42cc0114e00c871ea004e4240600000000"
}