{
  "txid": "d48d63d902ffff32b0bccec3b87bfa52af12afef7ee57e8c28856e5a97c2d35b",
  "version": 2,
  "locktime": 0,
  "vin": [
    {
      "txid": "0c0fefdfcb1c1523ed453b346d8462b094e97e014dad8efa490e37d19bca4da4",
      "vout": 171,
      "prevout": {
        "scriptpubkey": "0014b6423f3be7682519db6c95f081102373fc0456f6",
        "scriptpubkey_asm": "OP_0 OP_PUSHBYTES_20 b6423f3be7682519db6c95f081102373fc0456f6",
        "scriptpubkey_type": "v0_p2wpkh",
        "scriptpubkey_address": "bc1qkepr7wl8dqj3nkmvjhcgzyprw07qg4hkq0ktke",
        "value": 31857
      },
      "scriptsig": "",
      "scriptsig_asm": "",
      "witness": [
        "304402205e7a08afb9ce4be2844043ee5cf73f81316026962dc9cfc32c105ae6d589cca7022064f03ade0882821d48b6c6f1bac88c787992b3a6b5e11cfad043f5fefdf8f4e501",
        "03a201b031726f4275d6bdde92c4203a01de050c72720d60b7973a46a7a000d122"
      ],
      "is_coinbase": false,
      "sequence": 4294967295
    }
  ],
  "vout": [
    {
      "scriptpubkey": "0014b7c4b1c67d0ac80419359daa5bc735c81a22d42e",
      "scriptpubkey_asm": "OP_0 OP_PUSHBYTES_20 b7c4b1c67d0ac80419359daa5bc735c81a22d42e",
      "scriptpubkey_type": "v0_p2wpkh",
      "scriptpubkey_address": "bc1qklztr3naptyqgxf4nk49h3e4eqdz94pwzafjr3",
      "value": 30319
    }
  ],
  "size": 191,
  "weight": 437,
  "fee": 1538,
  "status": {
    "confirmed": true,
    "block_height": 834460,
    "block_hash": "00000000000000000000484a79b643b2524bbce82e5d8a442013fa5b8905ed98",
    "block_time": 1710307468
  },
  "hex": "02000000000101a44dca9bd1370e49fa8ead4d017ee994b062846d343b45ed23151ccbdfef0f0cab00000000ffffffff016f76000000000000160014b7c4b1c67d0ac80419359daa5bc735c81a22d42e0247304402205e7a08afb9ce4be2844043ee5cf73f81316026962dc9cfc32c105ae6d589cca7022064f03ade0882821d48b6c6f1bac88c787992b3a6b5e11cfad043f5fefdf8f4e5012103a201b031726f4275d6bdde92c4203a01de050c72720d60b7973a46a7a000d12200000000"
}