{
  "txid": "d4956c0e29270ce7bfd33fa2f4cfce1ed0a29be6daaa9ef0b25815d84960b83f",
  "version": 2,
  "locktime": 834637,
  "vin": [
    {
      "txid": "fa4592ebe6bcff70d8f0bd2365af32a3713dbb06d7006993c789348ce1992ae1",
      "vout": 1,
      "prevout": {
        "scriptpubkey": "00148d15a8df3bdbefaa0fdcf4af9dcfffe6961b9f6c",
        "scriptpubkey_asm": "OP_0 OP_PUSHBYTES_20 8d15a8df3bdbefaa0fdcf4af9dcfffe6961b9f6c",
        "scriptpubkey_type": "v0_p2wpkh",
        "scriptpubkey_address": "bc1q35263hemm0h65r7u7jhemnllu6tph8mvq8equw",
        "value": 400000000
      },
      "scriptsig": "",
      "scriptsig_asm": "",
      "witness": [
        "304402207d043af8d1d6b3c522336621788648427449b649185feaa46de99046b73ec23202203ecc8d8151d4704d374bccd2e35b6e4673fd6cb6f70307578e037f32e8b0313701",
        "03bdb22a6dd7944f9368f3c2cb65ca16b21ca4fd62776f683cc8c161a817513e1a"
      ],
      "is_coinbase": false,
      "sequence": 4294967293
    }
  ],
  "vout": [
    {
      "scriptpubkey": "0014f9e934b05b4caa70599ebd99ba7b6feddf9c65ae",
      "scriptpubkey_asm": "OP_0 OP_PUSHBYTES_20 f9e934b05b4caa70599ebd99ba7b6feddf9c65ae",
      "scriptpubkey_type": "v0_p2wpkh",
      "scriptpubkey_address": "bc1ql85nfvzmfj48qkv7hkvm57m0ah0ecedwa2wcey",
      "value": 399996700
    }
  ],
  "size": 191,
  "weight": 437,
  "fee": 3300,
  "status": {
    "confirmed": true,
    "block_height": 834638,
    "block_hash": "000000000000000000025f742c626208ac87e0b7d15054abb4a19ca2d735a54e",
    "block_time": 1710405325
  },
  "hex": "02000000000101e12a99e18c3489c7936900d706bb3d71a332af6523bdf0d870ffbce6eb9245fa0100000000fdffffff011c77d71700000000160014f9e934b05b4caa70599ebd99ba7b6feddf9c65ae0247304402207d043af8d1d6b3c522336621788648427449b649185feaa46de99046b73ec23202203ecc8d8151d4704d374bccd2e35b6e4673fd6cb6f70307578e037f32e8b03137012103bdb22a6dd7944f9368f3c2cb65ca16b21ca4fd62776f683cc8c161a817513e1a4dbc0c00"
}