{
  "txid": "d49bd7700a985e30c04001a792b558609fc28b41bd6f1921869c8c45fbe7a7bb",
  "version": 2,
  "locktime": 834458,
  "vin": [
    {
      "txid": "c92e9012401e5b73a7430b32cc7041221b9c6a3c4a5ad0044c6ce6bc88bfad99",
      "vout": 0,
      "prevout": {
        "scriptpubkey": "0014030535e21188c64b36fdea02c93464a7f6be4c60",
        "scriptpubkey_asm": "OP_0 OP_PUSHBYTES_20 030535e21188c64b36fdea02c93464a7f6be4c60",
        "scriptpubkey_type": "v0_p2wpkh",
        "scriptpubkey_address": "bc1qqvzntcs33rrykdhaagpvjdry5lmtunrqjrwzr3",
        "value": 28841
      },
      "scriptsig": "",
      "scriptsig_asm": "",
      "witness": [
        "30440220431176ca7f257605aa2e0455ab836f85a9f34c4c81d4a0fa1297fb46f812e87402207b20b45702e13934b9ce5dbb8c6b813d2882fd6a63ceba56b487d213a9a068ea01",
        "032e404db1ab975823af4dd937269d794a998240fd162e9dcafc5367da9cf33762"
      ],
      "is_coinbase": false,
      "sequence": 4294967293
    },
    {
      "txid": "58d37730d1946da9e01d18ede8ec19e088342b7f8417ae4efe0a5066f0efa554",
      "vout": 0,
      "prevout": {
        "scriptpubkey": "001468d4820f6ac2ef75091ab30c76e7c638076f1879",
        "scriptpubkey_asm": "OP_0 OP_PUSHBYTES_20 68d4820f6ac2ef75091ab30c76e7c638076f1879",
        "scriptpubkey_type": "v0_p2wpkh",
        "scriptpubkey_address": "bc1qdr2gyrm2cthh2zg6kvx8de7x8qrk7xrehlgaw6",
        "value": 1148898
      },
      "scriptsig": "",
      "scriptsig_asm": "",
      "witness": [
        "304402201cff2b3b03e8b6354ee240bbe7ac48e04208e3d0b6dee29f138c21f5fce077ae02203c5a69af769622e639b0789b131b6e304dc5afd0cf13a66f774e9a8e2332dc2401",
        "02ffeb7a9556a7e3c81da9088ae9f6baa8ead51bad5cacb224b77b2f919fb446a3"
      ],
      "is_coinbase": false,
      "sequence": 4294967293
    }
  ],
  "vout": [
    {
      "scriptpubkey": "a914bd62619d3922a115179d01335afa05b6b6cd597687",
      "scriptpubkey_asm": "OP_HASH160 OP_PUSHBYTES_20 bd62619d3922a115179d01335afa05b6b6cd5976 OP_EQUAL",
      "scriptpubkey_type": "p2sh",
      "scriptpubkey_address": "3JxPVTCuUUxupUmSfbVPEPZruaShey2YW3",
      "value": 67722
    },
    {
      "scriptpubkey": "001402acd3099e819b691bde364d60c294a89bc004bc",
      "scriptpubkey_asm": "OP_0 OP_PUSHBYTES_20 02acd3099e819b691bde364d60c294a89bc004bc",
      "scriptpubkey_type": "v0_p2wpkh",
      "scriptpubkey_address": "bc1qq2kdxzv7sxdkjx77xexkps554zduqp9uhqavl3",
      "value": 325414
    },
    {
      "scriptpubkey": "0014b830e7d67eed12e70ec75968f04c251f10d7e2f8",
      "scriptpubkey_asm": "OP_0 OP_PUSHBYTES_20 b830e7d67eed12e70ec75968f04c251f10d7e2f8",
      "scriptpubkey_type": "v0_p2wpkh",
      "scriptpubkey_address": "bc1qhqcw04n7a5fwwrk8t950qnp9rugd0chcn5pyfj",
      "value": 483002
    },
    {
      "scriptpubkey": "00143947add466f1b0686853e70966c40b3603d3cba9",
      "scriptpubkey_asm": "OP_0 OP_PUSHBYTES_20 3947add466f1b0686853e70966c40b3603d3cba9",
      "scriptpubkey_type": "v0_p2wpkh",
      "scriptpubkey_address": "bc1q89r6m4rx7xcxs6znuuykd3qtxcpa8jaf2xe2kx",
      "value": 223543
    },
    {
      "scriptpubkey": "0014f1351e19445292772190e8db329b38dbc6888956",
      "scriptpubkey_asm": "OP_0 OP_PUSHBYTES_20 f1351e19445292772190e8db329b38dbc6888956",
      "scriptpubkey_type": "v0_p2wpkh",
      "scriptpubkey_address": "bc1q7y63ux2y22f8wgvsardn9xecm0rg3z2k0khvgv",
      "value": 73577
    }
  ],
  "size": 464,
  "weight": 1208,
  "fee": 4481,
  "status": {
    "confirmed": true,
    "block_height": 834460,
    "block_hash": "00000000000000000000484a79b643b2524bbce82e5d8a442013fa5b8905ed98",
    "block_time": 1710307468
  },
  "hex": "0200000000010299adbf88bce66c4c04d05a4a3c6a9c1b224170cc320b43a7735b1e4012902ec90000000000fdffffff54a5eff066500afe4eae17847f2b3488e019ece8ed181de0a96d94d13077d3580000000000fdffffff058a0801000000000017a914bd62619d3922a115179d01335afa05b6b6cd59768726f704000000000016001402acd3099e819b691bde364d60c294a89bc004bcba5e070000000000160014b830e7d67eed12e70ec75968f04c251f10d7e2f837690300000000001600143947add466f1b0686853e70966c40b3603d3cba9691f010000000000160014f1351e19445292772190e8db329b38dbc6888956024730440220431176ca7f257605aa2e0455ab836f85a9f34c4c81d4a0fa1297fb46f812e87402207b20b45702e13934b9ce5dbb8c6b813d2882fd6a63ceba56b487d213a9a068ea0121032e404db1ab975823af4dd937269d794a998240fd162e9dcafc5367da9cf337620247304402201cff2b3b03e8b6354ee240bbe7ac48e04208e3d0b6dee29f138c21f5fce077ae02203c5a69af769622e639b0789b131b6e304dc5afd0cf13a66f774e9a8e2332dc24012102ffeb7a9556a7e3c81da9088ae9f6baa8ead51bad5cacb224b77b2f919fb446a39abb0c00"
}