{
  "txid": "d4b37982bf34d067a2705c1b37c623c9a14651162330085ad3c60b62c6cdb0bc",
  "version": 1,
  "locktime": 0,
  "vin": [
    {
      "txid": "47a95b38a6ffd1aa8b6be16cd99b4746f0ab0e55058db8213501d05f78aeaf57",
      "vout": 1,
      "prevout": {
        "scriptpubkey": "0014467e91d8c0048e00e75108126d4d25d2154c2caf",
        "scriptpubkey_asm": "OP_0 OP_PUSHBYTES_20 467e91d8c0048e00e75108126d4d25d2154c2caf",
        "scriptpubkey_type": "v0_p2wpkh",
        "scriptpubkey_address": "bc1qgelfrkxqqj8qpe63pqfx6nf96g25ct90tmwxpj",
        "value": 178817
      },
      "scriptsig": "",
      "scriptsig_asm": "",
      "witness": [
        "3044022000c117f0ee1168c7f0338b91841e8b9f45f329037383d464bc614eeef3f0aa2d0220123ffc7613fd469f06b875622fa3d31eaf8514f602c4379087c5fdbd1f259f4f01",
        "03dfa5e8d49fccd95a9078779dfd0ac25f0cc97a3a8c66a1d410406d5068579367"
      ],
      "is_coinbase": false,
      "sequence": 4294960000
    }
  ],
  "vout": [
    {
      "scriptpubkey": "0014f71c676a13712f41c9bdd8a7ca9daac697bbfd33",
      "scriptpubkey_asm": "OP_0 OP_PUSHBYTES_20 f71c676a13712f41c9bdd8a7ca9daac697bbfd33",
      "scriptpubkey_type": "v0_p2wpkh",
      "scriptpubkey_address": "bc1q7uwxw6snwyh5rjdamznu48d2c6tmhlfnur96u3",
      "value": 12334
    },
    {
      "scriptpubkey": "0014467e91d8c0048e00e75108126d4d25d2154c2caf",
      "scriptpubkey_asm": "OP_0 OP_PUSHBYTES_20 467e91d8c0048e00e75108126d4d25d2154c2caf",
      "scriptpubkey_type": "v0_p2wpkh",
      "scriptpubkey_address": "bc1qgelfrkxqqj8qpe63pqfx6nf96g25ct90tmwxpj",
      "value": 164019
    }
  ],
  "size": 222,
  "weight": 561,
  "fee": 2464,
  "status": {
    "confirmed": true,
    "block_height": 834460,
    "block_hash": "00000000000000000000484a79b643b2524bbce82e5d8a442013fa5b8905ed98",
    "block_time": 1710307468
  },
  "hex": "0100000000010157afae785fd0013521b88d05550eabf046479bd96ce16b8baad1ffa6385ba947010000000080e3ffff022e30000000000000160014f71c676a13712f41c9bdd8a7ca9daac697bbfd33b380020000000000160014467e91d8c0048e00e75108126d4d25d2154c2caf02473044022000c117f0ee1168c7f0338b91841e8b9f45f329037383d464bc614eeef3f0aa2d0220123ffc7613fd469f06b875622fa3d31eaf8514f602c4379087c5fdbd1f259f4f012103dfa5e8d49fccd95a9078779dfd0ac25f0cc97a3a8c66a1d410406d506857936700000000"
}