{
  "txid": "d4bb030c8880a87764f4df89137678bd1eeb517f1ce66784ca21a1794130cc75",
  "version": 1,
  "locktime": 0,
  "vin": [
    {
      "txid": "ae124bea715f286df6fdf86103cde60a034ed5a85c961c30d63308487340b5ee",
      "vout": 1,
      "prevout": {
        "scriptpubkey": "0020f798b39a7cf9b163adf46d13778d5f541d69d4f5bedf6dbddca7bf27ed554c3e",
        "scriptpubkey_asm": "OP_0 OP_PUSHBYTES_32 f798b39a7cf9b163adf46d13778d5f541d69d4f5bedf6dbddca7bf27ed554c3e",
        "scriptpubkey_type": "v0_p2wsh",
        "scriptpubkey_address": "bc1q77vt8xnulxck8t05d5fh0r2l2swkn484hm0km0wu57lj0m24fslqed6tzu",
        "value": 1591172
      },
      "scriptsig": "",
      "scriptsig_asm": "",
      "witness": [
        "",
        "304402205d9f4d852161951d8d124ba5e68d2493282931a1bc2f10f0cc96683c19bcdc7602207ab8e2f606934cb54890888ebb96c5578ef2b54b83337fe2f144660e211c8c9a01",
        "30440220062196aed0f7aeaaa91cd569c75f6d70e2c304937a73b81e8d02f0843a67215302206852f457a7b88eab6ade55b3411c9987e751e41c95c9909eb1081178d2a9646d01",
        "522103ae61b2f6f8eab91476eae52b882c76579b26fbebc9659d308ded3d517bc6f07721030d43618a4343e68f8f01befc62889e688a4224b37b2c70e6a1a38e96c6fd57742103cfae3ee11e40f3979a05a1078fda78b26124f74472a5d461f115a515e6f25cfa53ae"
      ],
      "is_coinbase": false,
      "sequence": 4294967293,
      "inner_witnessscript_asm": "OP_PUSHNUM_2 OP_PUSHBYTES_33 03ae61b2f6f8eab91476eae52b882c76579b26fbebc9659d308ded3d517bc6f077 OP_PUSHBYTES_33 030d43618a4343e68f8f01befc62889e688a4224b37b2c70e6a1a38e96c6fd5774 OP_PUSHBYTES_33 03cfae3ee11e40f3979a05a1078fda78b26124f74472a5d461f115a515e6f25cfa OP_PUSHNUM_3 OP_CHECKMULTISIG"
    },
    {
      "txid": "c22e69a810b6dcd165d1d10a9e56ef9a9b265c127a8750ff77548373ea68528f",
      "vout": 1,
      "prevout": {
        "scriptpubkey": "0020d3f9813cd736fa2defccb15d5b41bb6320dd9d232f825248375a9444691bf2b0",
        "scriptpubkey_asm": "OP_0 OP_PUSHBYTES_32 d3f9813cd736fa2defccb15d5b41bb6320dd9d232f825248375a9444691bf2b0",
        "scriptpubkey_type": "v0_p2wsh",
        "scriptpubkey_address": "bc1q60ucz0xhxmazmm7vk9w4ksdmvvsdm8fr97p9yjpht22yg6gm72cqnhtxkh",
        "value": 1205054
      },
      "scriptsig": "",
      "scriptsig_asm": "",
      "witness": [
        "",
        "3045022100ddce7743ed9d9d0ffdbabd2045a6b7f3a4b22e2de36563089b3dc8acd17f940b022038ba25c99c1a050ea43c2b6d408f96acbf0a748f702054c264ca5ad73ede51af01",
        "304402201168b6be6cfe33bbed49b2ecee773e5ee204954f63245225ab6f4fbe7f47d22d02206abcd8864eb2cd6477d5432982e954965a73471a00e77bc93c4c40d27f8f754801",
        "522102b2066642be5b029b2b6a5fe05fba2054f873232a8d92d85c99c1d14ced66f38921039b1bfa3405fed96fce765f003b54914addbf356d3c06664352a975a06a19d24b21021b550453c81b2bff3edce072f19e711640cb8e1941815de8b1f480652b5cba9853ae"
      ],
      "is_coinbase": false,
      "sequence": 4294967293,
      "inner_witnessscript_asm": "OP_PUSHNUM_2 OP_PUSHBYTES_33 02b2066642be5b029b2b6a5fe05fba2054f873232a8d92d85c99c1d14ced66f389 OP_PUSHBYTES_33 039b1bfa3405fed96fce765f003b54914addbf356d3c06664352a975a06a19d24b OP_PUSHBYTES_33 021b550453c81b2bff3edce072f19e711640cb8e1941815de8b1f480652b5cba98 OP_PUSHNUM_3 OP_CHECKMULTISIG"
    },
    {
      "txid": "c75babe2e62ecc0109afb64367bb8517597c0ed0479f468e365e63ded20e7932",
      "vout": 2,
      "prevout": {
        "scriptpubkey": "a914e01a8b472a81eb56489efa4b5bdc63d10745601f87",
        "scriptpubkey_asm": "OP_HASH160 OP_PUSHBYTES_20 e01a8b472a81eb56489efa4b5bdc63d10745601f OP_EQUAL",
        "scriptpubkey_type": "p2sh",
        "scriptpubkey_address": "3N7y5pvLsaH6fQxxpDGgY9nVUgsYMGQ3AQ",
        "value": 3689900
      },
      "scriptsig": "22002044d2e6c198deb64684b513d8d7a5d56688ed7a3330e0d9b14bf7a8be45f1e2d6",
      "scriptsig_asm": "OP_PUSHBYTES_34 002044d2e6c198deb64684b513d8d7a5d56688ed7a3330e0d9b14bf7a8be45f1e2d6",
      "witness": [
        "",
        "3045022100a7358391e687fba9f9fe8738533dda8c0b248de7bead6085e6cb7fa42c54469802201d4be2f687c1e06f774b13f885c8c148c463be30a86a6e2a6246f962bc54a37401",
        "304402205b362bd68470e0f8ee845cc4d78195dc3029dad42a81b6fe2197d735e8e5aefc022033b2a7ae7701ca1e6fc92ff3d3bfadb7cff1f35fb25ab058a8d5445f34946c1201",
        "52210217119a4a117c024562a38baeb1d583df8279aa41e678966a4571526cddd027d5210263d884298fd91c7d68348bd77880b3f5594de976b6c4569299fec7575c01d1582103a56a567ff159e0aef918918ea0490bee41507969149bb4315149bfafaaf6177953ae"
      ],
      "is_coinbase": false,
      "sequence": 4294967293,
      "inner_redeemscript_asm": "OP_0 OP_PUSHBYTES_32 44d2e6c198deb64684b513d8d7a5d56688ed7a3330e0d9b14bf7a8be45f1e2d6",
      "inner_witnessscript_asm": "OP_PUSHNUM_2 OP_PUSHBYTES_33 0217119a4a117c024562a38baeb1d583df8279aa41e678966a4571526cddd027d5 OP_PUSHBYTES_33 0263d884298fd91c7d68348bd77880b3f5594de976b6c4569299fec7575c01d158 OP_PUSHBYTES_33 03a56a567ff159e0aef918918ea0490bee41507969149bb4315149bfafaaf61779 OP_PUSHNUM_3 OP_CHECKMULTISIG"
    }
  ],
  "vout": [
    {
      "scriptpubkey": "5120c79e622e5272232ef26268a84ea16be01b78ae6dd7fa43ef718f794ef2669619",
      "scriptpubkey_asm": "OP_PUSHNUM_1 OP_PUSHBYTES_32 c79e622e5272232ef26268a84ea16be01b78ae6dd7fa43ef718f794ef2669619",
      "scriptpubkey_type": "v1_p2tr",
      "scriptpubkey_address": "bc1pc70xytjjwg3jaunzdz5yagttuqdh3tnd6lay8mm33au5aunxjcvs0s8qkm",
      "value": 12550
    },
    {
      "scriptpubkey": "00200f792579f53d5619e0668209e56ff82f846fea777b3e530797d4704b67e76e92",
      "scriptpubkey_asm": "OP_0 OP_PUSHBYTES_32 0f792579f53d5619e0668209e56ff82f846fea777b3e530797d4704b67e76e92",
      "scriptpubkey_type": "v0_p2wsh",
      "scriptpubkey_address": "bc1qpauj270484tpncrxsgy72mlc97zxl6nh0vl9xpuh63cykel8d6fq8nyehe",
      "value": 1443777
    },
    {
      "scriptpubkey": "0014280c7cdb3062bb1fbbecc333acc5870832705365",
      "scriptpubkey_asm": "OP_0 OP_PUSHBYTES_20 280c7cdb3062bb1fbbecc333acc5870832705365",
      "scriptpubkey_type": "v0_p2wpkh",
      "scriptpubkey_address": "bc1q9qx8ekesv2a3lwlvcve6e3v8pqe8q5m9yn96fz",
      "value": 5020000
    }
  ],
  "size": 1045,
  "weight": 1900,
  "fee": 9799,
  "status": {
    "confirmed": true,
    "block_height": 834638,
    "block_hash": "000000000000000000025f742c626208ac87e0b7d15054abb4a19ca2d735a54e",
    "block_time": 1710405325
  },
  "hex": "01000000000103eeb54073480833d6301c965ca8d54e030ae6cd0361f8fdf66d285f71ea4b12ae0100000000fdffffff8f5268ea73835477ff50877a125c269b9aef569e0ad1d165d1dcb610a8692ec20100000000fdffffff32790ed2de635e368e469f47d00e7c591785bb6743b6af0901cc2ee6e2ab5bc7020000002322002044d2e6c198deb64684b513d8d7a5d56688ed7a3330e0d9b14bf7a8be45f1e2d6fdffffff030631000000000000225120c79e622e5272232ef26268a84ea16be01b78ae6dd7fa43ef718f794ef2669619c1071600000000002200200f792579f53d5619e0668209e56ff82f846fea777b3e530797d4704b67e76e9260994c0000000000160014280c7cdb3062bb1fbbecc333acc5870832705365040047304402205d9f4d852161951d8d124ba5e68d2493282931a1bc2f10f0cc96683c19bcdc7602207ab8e2f606934cb54890888ebb96c5578ef2b54b83337fe2f144660e211c8c9a014730440220062196aed0f7aeaaa91cd569c75f6d70e2c304937a73b81e8d02f0843a67215302206852f457a7b88eab6ade55b3411c9987e751e41c95c9909eb1081178d2a9646d0169522103ae61b2f6f8eab91476eae52b882c76579b26fbebc9659d308ded3d517bc6f07721030d43618a4343e68f8f01befc62889e688a4224b37b2c70e6a1a38e96c6fd57742103cfae3ee11e40f3979a05a1078fda78b26124f74472a5d461f115a515e6f25cfa53ae0400483045022100ddce7743ed9d9d0ffdbabd2045a6b7f3a4b22e2de36563089b3dc8acd17f940b022038ba25c99c1a050ea43c2b6d408f96acbf0a748f702054c264ca5ad73ede51af0147304402201168b6be6cfe33bbed49b2ecee773e5ee204954f63245225ab6f4fbe7f47d22d02206abcd8864eb2cd6477d5432982e954965a73471a00e77bc93c4c40d27f8f75480169522102b2066642be5b029b2b6a5fe05fba2054f873232a8d92d85c99c1d14ced66f38921039b1bfa3405fed96fce765f003b54914addbf356d3c06664352a975a06a19d24b21021b550453c81b2bff3edce072f19e711640cb8e1941815de8b1f480652b5cba9853ae0400483045022100a7358391e687fba9f9fe8738533dda8c0b248de7bead6085e6cb7fa42c54469802201d4be2f687c1e06f774b13f885c8c148c463be30a86a6e2a6246f962bc54a3740147304402205b362bd68470e0f8ee845cc4d78195dc3029dad42a81b6fe2197d735e8e5aefc022033b2a7ae7701ca1e6fc92ff3d3bfadb7cff1f35fb25ab058a8d5445f34946c12016952210217119a4a117c024562a38baeb1d583df8279aa41e678966a4571526cddd027d5210263d884298fd91c7d68348bd77880b3f5594de976b6c4569299fec7575c01d1582103a56a567ff159e0aef918918ea0490bee41507969149bb4315149bfafaaf6177953ae00000000"
}