{
  "txid": "d4c05e9c016e4cfbe0969b7e08fda084f3c553ee336bbcd58b117ef010089fc6",
  "version": 1,
  "locktime": 0,
  "vin": [
    {
      "txid": "88888885d4c7ccbd4ecbc573e4fc67d39f52d20035dc5b44e3f27bd18c07a2e5",
      "vout": 0,
      "prevout": {
        "scriptpubkey": "5120a32bf588cdfe9de53cd5b6440f937c64158a1e0b94a78fdea49613414eaf237d",
        "scriptpubkey_asm": "OP_PUSHNUM_1 OP_PUSHBYTES_32 a32bf588cdfe9de53cd5b6440f937c64158a1e0b94a78fdea49613414eaf237d",
        "scriptpubkey_type": "v1_p2tr",
        "scriptpubkey_address": "bc1p5v4ltzxdl6w720x4kezqlymuvs2c58stjjnclh4yjcf5zn40yd7sst7262",
        "value": 11704
      },
      "scriptsig": "",
      "scriptsig_asm": "",
      "witness": [
        "7a96604793b9002cce6219cf6ef7717f1a1e134503974af4e01243e2a23aebe35b6d18dc4e1780821e8e863c0a27cbc4b177cddc14b2cead4bea6a29039b9dfd",
        "2099cbd44037dd56e50918bef0cbae5f12fa81634779477755a3c4bd0607aae23fac00630461746f6d03646d7442a16461726773a46474696d651a65dc3267656e6f6e636519154e68626974776f726b6369383838383838382e316b6d696e745f7469636b657268696e66696e69747968",
        "c099cbd44037dd56e50918bef0cbae5f12fa81634779477755a3c4bd0607aae23f"
      ],
      "is_coinbase": false,
      "sequence": 1
    }
  ],
  "vout": [
    {
      "scriptpubkey": "5120f9492bb122c5d1e0793742d6755378a79064945f115813f48db0b7cef852ae6b",
      "scriptpubkey_asm": "OP_PUSHNUM_1 OP_PUSHBYTES_32 f9492bb122c5d1e0793742d6755378a79064945f115813f48db0b7cef852ae6b",
      "scriptpubkey_type": "v1_p2tr",
      "scriptpubkey_address": "bc1pl9yjhvfzchg7q7fhgtt825mc57gxf9zlz9vp8aydkzmua7zj4e4sfj3cjc",
      "value": 9999
    }
  ],
  "size": 310,
  "weight": 592,
  "fee": 1705,
  "status": {
    "confirmed": true,
    "block_height": 834464,
    "block_hash": "0000000000000000000177a0869a911a2b65c9bdcd5a8bcb02b68f305bee848e",
    "block_time": 1710308296
  },
  "hex": "01000000000101e5a2078cd17bf2e3445bdc3500d2529fd367fce473c5cb4ebdccc7d485888888000000000001000000010f27000000000000225120f9492bb122c5d1e0793742d6755378a79064945f115813f48db0b7cef852ae6b03407a96604793b9002cce6219cf6ef7717f1a1e134503974af4e01243e2a23aebe35b6d18dc4e1780821e8e863c0a27cbc4b177cddc14b2cead4bea6a29039b9dfd712099cbd44037dd56e50918bef0cbae5f12fa81634779477755a3c4bd0607aae23fac00630461746f6d03646d7442a16461726773a46474696d651a65dc3267656e6f6e636519154e68626974776f726b6369383838383838382e316b6d696e745f7469636b657268696e66696e6974796821c099cbd44037dd56e50918bef0cbae5f12fa81634779477755a3c4bd0607aae23f00000000"
}