{
  "txid": "d4c64b4503e737de8d7a84156a3f6811cd40bd80f1173a2691193ff333039aca",
  "version": 2,
  "locktime": 834637,
  "vin": [
    {
      "txid": "663bf4e9ca64ed17d4dcd2f0b9565b4ad4cb0c0b3934deb78306943a0fb391fd",
      "vout": 0,
      "prevout": {
        "scriptpubkey": "00141d56a15c4080a55a425b37bb4cac764006166592",
        "scriptpubkey_asm": "OP_0 OP_PUSHBYTES_20 1d56a15c4080a55a425b37bb4cac764006166592",
        "scriptpubkey_type": "v0_p2wpkh",
        "scriptpubkey_address": "bc1qr4t2zhzqszj45sjmx7a5etrkgqrpvevjngjnnm",
        "value": 1776082
      },
      "scriptsig": "",
      "scriptsig_asm": "",
      "witness": [
        "3044022051957543dff38e0ff4a089fdc7013eba72eb8875acb20b24a69f310e6b98a66802205a86d06d4fd78de70503503efdd11e9fcc7217fa14edde5d6dc8bd8341bc8c4d01",
        "025dbc5aba5709584f192d35adecc7cabc7bac511d67d79b631aecd23be07c7daa"
      ],
      "is_coinbase": false,
      "sequence": 4294967294
    }
  ],
  "vout": [
    {
      "scriptpubkey": "00205ca04b274e808f26e5ccb7f3a9f8ba13580925169e55dd39fb9c34b424d114f7",
      "scriptpubkey_asm": "OP_0 OP_PUSHBYTES_32 5ca04b274e808f26e5ccb7f3a9f8ba13580925169e55dd39fb9c34b424d114f7",
      "scriptpubkey_type": "v0_p2wsh",
      "scriptpubkey_address": "bc1qtjsykf6wsz8jdewvkle6n796zdvqjfgkne2a6w0mns6tgfx3znmszdyn06",
      "value": 312700
    },
    {
      "scriptpubkey": "0014ebc3d27798c3c8a9d63b0b9b7a8d0c7f6919e4ca",
      "scriptpubkey_asm": "OP_0 OP_PUSHBYTES_20 ebc3d27798c3c8a9d63b0b9b7a8d0c7f6919e4ca",
      "scriptpubkey_type": "v0_p2wpkh",
      "scriptpubkey_address": "bc1qa0payaucc0y2n43mpwdh4rgv0a53nex2kva52l",
      "value": 1459253
    }
  ],
  "size": 234,
  "weight": 609,
  "fee": 4129,
  "status": {
    "confirmed": true,
    "block_height": 834638,
    "block_hash": "000000000000000000025f742c626208ac87e0b7d15054abb4a19ca2d735a54e",
    "block_time": 1710405325
  },
  "hex": "02000000000101fd91b30f3a940683b7de34390b0ccbd44a5b56b9f0d2dcd417ed64cae9f43b660000000000feffffff027cc50400000000002200205ca04b274e808f26e5ccb7f3a9f8ba13580925169e55dd39fb9c34b424d114f73544160000000000160014ebc3d27798c3c8a9d63b0b9b7a8d0c7f6919e4ca02473044022051957543dff38e0ff4a089fdc7013eba72eb8875acb20b24a69f310e6b98a66802205a86d06d4fd78de70503503efdd11e9fcc7217fa14edde5d6dc8bd8341bc8c4d0121025dbc5aba5709584f192d35adecc7cabc7bac511d67d79b631aecd23be07c7daa4dbc0c00"
}