{
  "txid": "d4c6650e76d07092c99816ef4107f886cef5a6995918066ad51439503e4c0856",
  "version": 2,
  "locktime": 0,
  "vin": [
    {
      "txid": "ca49732a8789b812361e997512b66bc3787f1e3ff39f5f0d8b845e09438043f6",
      "vout": 9,
      "prevout": {
        "scriptpubkey": "51200b30c0b3c4336e24069da4bbe9dc536f6eb180a341ac2a55ba2d43ac3cd40a8b",
        "scriptpubkey_asm": "OP_PUSHNUM_1 OP_PUSHBYTES_32 0b30c0b3c4336e24069da4bbe9dc536f6eb180a341ac2a55ba2d43ac3cd40a8b",
        "scriptpubkey_type": "v1_p2tr",
        "scriptpubkey_address": "bc1ppvcvpv7yxdhzgp5a5ja7nhzndahtrq9rgxkz54d694p6c0x5p29stuk479",
        "value": 2066
      },
      "scriptsig": "",
      "scriptsig_asm": "",
      "witness": [
        "95902c1fb5e702f8417cd91ef43c81c519cf1eb987d7efb7ff4e6a38f4e98ead560d6bb850171108a2dd9c29ea4f5a182bc93b620653c183afc26c6127d765b3",
        "205420a9aba436009c62ea4f83ada7a6038d227f1e83d7e11a8c46d47f48e7491fac0063036f726401010a746578742f706c61696e00367b2270223a226272632d3230222c226f70223a226d696e74222c227469636b223a2261616161222c22616d74223a223130303030227d68",
        "c15420a9aba436009c62ea4f83ada7a6038d227f1e83d7e11a8c46d47f48e7491f"
      ],
      "is_coinbase": false,
      "sequence": 4261412863
    }
  ],
  "vout": [
    {
      "scriptpubkey": "0014b12a255b419b46c01324705abea5fd2949f55051",
      "scriptpubkey_asm": "OP_0 OP_PUSHBYTES_20 b12a255b419b46c01324705abea5fd2949f55051",
      "scriptpubkey_type": "v0_p2wpkh",
      "scriptpubkey_address": "bc1qky4z2k6pndrvqyeywpdtaf0a99yl25z3zp84r6",
      "value": 294
    }
  ],
  "size": 295,
  "weight": 541,
  "fee": 1772,
  "status": {
    "confirmed": true,
    "block_height": 834460,
    "block_hash": "00000000000000000000484a79b643b2524bbce82e5d8a442013fa5b8905ed98",
    "block_time": 1710307468
  },
  "hex": "02000000000101f6438043095e848b0d5f9ff33f1e7f78c36bb61275991e3612b889872a7349ca0900000000fffffffd012601000000000000160014b12a255b419b46c01324705abea5fd2949f55051034095902c1fb5e702f8417cd91ef43c81c519cf1eb987d7efb7ff4e6a38f4e98ead560d6bb850171108a2dd9c29ea4f5a182bc93b620653c183afc26c6127d765b36e205420a9aba436009c62ea4f83ada7a6038d227f1e83d7e11a8c46d47f48e7491fac0063036f726401010a746578742f706c61696e00367b2270223a226272632d3230222c226f70223a226d696e74222c227469636b223a2261616161222c22616d74223a223130303030227d6821c15420a9aba436009c62ea4f83ada7a6038d227f1e83d7e11a8c46d47f48e7491f00000000"
}