{
  "txid": "d4d22264ff277176440adeef08313a40ccbef0a6bd63e7e7f13e78ac21a8d21b",
  "version": 1,
  "locktime": 0,
  "vin": [
    {
      "txid": "d1b6da2c148c3911422e65169a5a357c1ea4323e16af81b903ddafc3b98d2e66",
      "vout": 0,
      "prevout": {
        "scriptpubkey": "00140e656b81d3a94df3193d215c7976cfa3e4328bc9",
        "scriptpubkey_asm": "OP_0 OP_PUSHBYTES_20 0e656b81d3a94df3193d215c7976cfa3e4328bc9",
        "scriptpubkey_type": "v0_p2wpkh",
        "scriptpubkey_address": "bc1qpejkhqwn49xlxxfay9w8jak050jr9z7f9ywpsl",
        "value": 1454496
      },
      "scriptsig": "",
      "scriptsig_asm": "",
      "witness": [
        "3045022100abf3f61cb1943b3c9380244b836eab8154e60a4fa78f08e36ad44e189fb9e481022059d5e66be3995bc88bd770ee9d267d22559684f15a3b1d8790ec2c0d8695e37701",
        "027587009e65e3494a7a9058a08f65c8b1a41b2e4319666f308c0f0c6437da79ee"
      ],
      "is_coinbase": false,
      "sequence": 4294967295
    }
  ],
  "vout": [
    {
      "scriptpubkey": "0014cb6b0dfe8752506b0d516512e669098703756a0e",
      "scriptpubkey_asm": "OP_0 OP_PUSHBYTES_20 cb6b0dfe8752506b0d516512e669098703756a0e",
      "scriptpubkey_type": "v0_p2wpkh",
      "scriptpubkey_address": "bc1qed4sml582fgxkr23v5fwv6gfsuph26swxhs4y2",
      "value": 1453308
    }
  ],
  "size": 192,
  "weight": 438,
  "fee": 1188,
  "status": {
    "confirmed": true,
    "block_height": 834464,
    "block_hash": "0000000000000000000177a0869a911a2b65c9bdcd5a8bcb02b68f305bee848e",
    "block_time": 1710308296
  },
  "hex": "01000000000101662e8db9c3afdd03b981af163e32a41e7c355a9a16652e4211398c142cdab6d10000000000ffffffff01fc2c160000000000160014cb6b0dfe8752506b0d516512e669098703756a0e02483045022100abf3f61cb1943b3c9380244b836eab8154e60a4fa78f08e36ad44e189fb9e481022059d5e66be3995bc88bd770ee9d267d22559684f15a3b1d8790ec2c0d8695e3770121027587009e65e3494a7a9058a08f65c8b1a41b2e4319666f308c0f0c6437da79ee00000000"
}