{
  "txid": "d4d2a0998deb280e16a5d3bc2da81faf848c96e50e66533c8bf3580faffd064f",
  "version": 2,
  "locktime": 0,
  "vin": [
    {
      "txid": "659b82bf51c32df260f3e3563d90fcbcb0098209af4d18020ca9e1a619ccc8c8",
      "vout": 12,
      "prevout": {
        "scriptpubkey": "5120120f3b4b8232c96f35a0e98468c8853f8477fdc3f939eb818a9f20298c450a94",
        "scriptpubkey_asm": "OP_PUSHNUM_1 OP_PUSHBYTES_32 120f3b4b8232c96f35a0e98468c8853f8477fdc3f939eb818a9f20298c450a94",
        "scriptpubkey_type": "v1_p2tr",
        "scriptpubkey_address": "bc1pzg8nkjuzxtyk7ddqaxzx3jy987z80lwrlyu7hqv2nusznrz9p22qxdxlhh",
        "value": 1931
      },
      "scriptsig": "",
      "scriptsig_asm": "",
      "witness": [
        "3666e801d27b6b737587e15e2ccf127d758ebebdf7d1e9cbea709799b55ebf85735f147cf19ceca85578131f1cad2000be10e7f73833d1dbb61dc9651a223e7d",
        "209a490f4230d4a8c23bec9f460ed7694883b370f614ff2ac066485e15b94493bdac0063036f726401010a746578742f706c61696e00367b2270223a226272632d3230222c226f70223a226d696e74222c227469636b223a2261616161222c22616d74223a223130303030227d68",
        "c19a490f4230d4a8c23bec9f460ed7694883b370f614ff2ac066485e15b94493bd"
      ],
      "is_coinbase": false,
      "sequence": 4261412863
    }
  ],
  "vout": [
    {
      "scriptpubkey": "0014be9f0c070a9b1bd40f5fcb06fba89738d936ceb6",
      "scriptpubkey_asm": "OP_0 OP_PUSHBYTES_20 be9f0c070a9b1bd40f5fcb06fba89738d936ceb6",
      "scriptpubkey_type": "v0_p2wpkh",
      "scriptpubkey_address": "bc1qh60scpc2nvdagr6levr0h2yh8rvndn4k4v5s9g",
      "value": 294
    }
  ],
  "size": 295,
  "weight": 541,
  "fee": 1637,
  "status": {
    "confirmed": true,
    "block_height": 834460,
    "block_hash": "00000000000000000000484a79b643b2524bbce82e5d8a442013fa5b8905ed98",
    "block_time": 1710307468
  },
  "hex": "02000000000101c8c8cc19a6e1a90c02184daf098209b0bcfc903d56e3f360f22dc351bf829b650c00000000fffffffd012601000000000000160014be9f0c070a9b1bd40f5fcb06fba89738d936ceb603403666e801d27b6b737587e15e2ccf127d758ebebdf7d1e9cbea709799b55ebf85735f147cf19ceca85578131f1cad2000be10e7f73833d1dbb61dc9651a223e7d6e209a490f4230d4a8c23bec9f460ed7694883b370f614ff2ac066485e15b94493bdac0063036f726401010a746578742f706c61696e00367b2270223a226272632d3230222c226f70223a226d696e74222c227469636b223a2261616161222c22616d74223a223130303030227d6821c19a490f4230d4a8c23bec9f460ed7694883b370f614ff2ac066485e15b94493bd00000000"
}