{
  "txid": "d4dd7722d73316395a5d5862f3d875f6080dd5e6f008e5a8cbef8e4bfe4371a2",
  "version": 2,
  "locktime": 0,
  "vin": [
    {
      "txid": "c0fcd6d2e796f84dcbc50ab81ca03e8cb6c4f48fd05fccf6f3ed7c698570ce97",
      "vout": 0,
      "prevout": {
        "scriptpubkey": "5120d642944a115822f70a1b2f5a491d8552e25b524504665e31bd7e5e2de65df201",
        "scriptpubkey_asm": "OP_PUSHNUM_1 OP_PUSHBYTES_32 d642944a115822f70a1b2f5a491d8552e25b524504665e31bd7e5e2de65df201",
        "scriptpubkey_type": "v1_p2tr",
        "scriptpubkey_address": "bc1p6epfgjs3tq30wzsm9adyj8v92t39k5j9q3n9uvda0e0zmeja7gqslg38yc",
        "value": 21378
      },
      "scriptsig": "",
      "scriptsig_asm": "",
      "witness": [
        "f25c460f2a700581534d72d37f419ba11fb913b4595b530e3ae8cb2acf88c9b9b2b2d34604e60ca0a5c0e00a0c4c1bc24b3d488c843a628f6598eceadee833fa",
        "20f2d00e1cce0b839d2e197679cac7a15152ec244338032c7767f72c1332d49a65ac0063036f726401010a696d6167652f6a706567004d0802ffd8ffe000104a46494600010100000100010000ffe201d84943435f50524f46494c45000101000001c800000000043000006d6e74725247422058595a2007e00001000100000000000061637370000000000000000000000000000000000000000000000000000000010000f6d6000100000000d32d0000000000000000000000000000000000000000000000000000000000000000000000000000000000000000000000000000000964657363000000f0000000247258595a00000114000000146758595a00000128000000146258595a0000013c00000014777470740000015000000014725452430000016400000028675452430000016400000028625452430000016400000028637072740000018c0000003c6d6c756300000000000000010000000c656e5553000000080000001c007300520047004258595a200000000000006fa2000038f50000039058595a2000000000000062990000b785000018da58595a2000000000000024a000000f840000b6cf58595a20000000000000f6d6000100000000d32d706172610000000000040000000266660000f2a700000d59000013d000000a5b00000000000000006d6c756300000000000000010000000c656e5553000000200000001c0047006f006f0067006c006500200049006e0063002e00200032003000310036ffdb0043000302020302020303030304030304050805050404054d08020a070706080c0a0c0c0b0a0b0b0d0e12100d0e110e0b0b1016101113141515150c0f171816141812141514ffdb00430103040405040509050509140d0b0d1414141414141414141414141414141414141414141414141414141414141414141414141414141414141414141414141414ffc00011080200020003012200021101031101ffc4001a000100020301000000000000000000000000050706090a08ffc40014100100000000000000000000000000000000ffc4001a010100020301000000000000000000000000040502030607ffc40014110100000000000000000000000000000000ffda000c03010002110311003f00d5500000000000000000000000000000000000000000000000000000000000000000000000000000000000000000000000000000000000000000000000000000000000000000000000000000000000000000000000000000000000000000000000000000000000000000000000000000000000000000000000000000000000000000000000000000000000000000000000000000000000000000000000000000000000000000000000000000000000000000000000000000000000000000000000000000000000000000000000000000000000000000000000000000000000000000000000000000000000000000000000000000000000000000000000000000000000000000000000000000000000000000004d080200000000000000000000000000000000000000000000000000000000000000000000000000000000000000000000000000000000000000000000000000000000000000000000000000000000000000000000000000000000000000000000000000000000000000000000000000000000000000000000000000000000000000000000000000000000000000000000000000000000000000000000000000000000000000000000000000000000000000000000000000000000000000000000000000000000000000000000000000000000000000000000000000000000000000f4500b5560000000000000000000000003cea02a966000000000000000000000000000000000000000000000000000000000000bc80582bc00130036b06cb804766000cd4066c0000000000000000000001a12015eb30000000000000000000000000000000000000000000005aa026a2000000274066d40009801b58365c023b300066a03360000000000000000000000d0900af598000000000000000000000000000000000000000000002d50135100000013a0336a0004c00dac1b2e011d9800335019b00000000000000000000006848057acc0000000000000000000000000000000000000000000016a809a880000009d019b500026006d60d97008ecc0019a80cd8000000000000000000000342402bd6600000000000000000000000000000000000000004d080200000b5404d440000004e80cda800130036b063a03cddd980000000000000000000000000029701d9b9f0000000000000000000000000000000000000000000005aa026a2000000274066d40009801b5831d01e6eecc00124023b680000000000000000000000028501ddb9a0000000000000000000000000000000000000000000005aa026a2000274066d40009801b5831d01e6eecc00124023b6b0d01df3970000000006640381750c34077ce5c0000000015b80c198000000000000000000000000000000000000000002d50135100013a0336a0004c00dac18e80f3776600092011db5d1700eedcd3518024223c24035243a600183373a2038474ae8b80776e69a8c012111e1201a921d3000c19b9570000000000000000000000000000000000000000000016a809a880009d019b500026006d60c74079bbb300049008eda000000000000000000000000a140776e680000000000000000000000000000000000000000000016a809a880009d019b500026006d60c74079bbb300049008eda000000000000000000000000a140776e680000000000000000000000000000000000000000000016a809a880009d019b500026006d60c74079bbb300049008eda000000000000000000000000a140776e680000000000000000000000000000000000000000000016a809a880009d019b500026006d60c74079bbb36d4007a038f6b04079bbb4d0802500000000000000000000000050a03bb734000000000000000000000000000000000000000000000000b5404d444e80cda800130036b063a03cddd9b6a003d01c7b35019b00000000000000000000000006848057acc0000000000000000000000000000000000000000000000016a809a889d019b500026006d60c74079bbb36d4007a038f66a03360000000000000000000000000d0900af598000000000000000000000000000000000000000000000002d50135113a0336a0004c00dac18e80f377660000000000000000008c01e80e513a0336a51a02bd60000000000000000000000000000000000000000000000000b5404d4400000000000000000000066a024238000000000000000000000000000000003cea02a966000000000000000000000000000000000b5404d4400000000000000000000066a024238000000000000000000000000000000003cea02a966000000000000000000000000000000000b5404d4400000000000000000000066a024238000003a1e0154b373c202d558000000000e8780552cdcf080b5560000003cea02a966000000000000000000000000000000000b5404d4400000000000000000000066a024238000003a1e0154b373c202d558000000000e8780552cdcf080b5560000003cea02a966000000000000000000000000000000000b5404d4400000000000000000000066a024238000003a1e014c6d54b373c202d558000000000e8780552cdcf080b5560000003cea02a966000000000000000000000000000000000b5404d4400000000000000000000066a024238000003a1e0154b373c202d558000000000e8780552cdcf080b5560000003cea02a966000000000000000fffd9680063036f726401011e6170706c69636174696f6e2f6a736f6e3b636861727365743d7574662d38004d49017b2270223a22766f7264222c2276223a312c227479223a22696e7363222c22636f6c223a2230323336303866343162323735633034313737386331353733383530366633633665336536313539646139333364333761343531373566643833313436666237222c22696964223a224e4f4445205341544f534849222c227075626c223a2231455337623370636a527a4667796969714c7278484b546e43686535364c4a485937222c226e6f6e6365223a312c226d696e746572223a22626331717536616a3033753365757034367975353670687a717176306b32736a79753664396d78387872222c22736967223a224737774f4b364a32524665496a6e6f30316255392b525732724e316d777a66475a736e5670666b582f706f42616a337a7243524c6849333732324465666961784f6a483265637a6c416f576c71746c7446317666474e553d227d68",
        "c0f2d00e1cce0b839d2e197679cac7a15152ec244338032c7767f72c1332d49a65675a92934efa5e4869b2432a3e00abfc6819367af43949c2edc693b32d23ac05"
      ],
      "is_coinbase": false,
      "sequence": 4294967293
    }
  ],
  "vout": [
    {
      "scriptpubkey": "0014e6bb27c791cf035d1394d06e20018fb2a122734d",
      "scriptpubkey_asm": "OP_0 OP_PUSHBYTES_20 e6bb27c791cf035d1394d06e20018fb2a122734d",
      "scriptpubkey_type": "v0_p2wpkh",
      "scriptpubkey_address": "bc1qu6aj03u3eup46yu56phzqqv0k2sjyu6d9mx8xr",
      "value": 1000
    },
    {
      "scriptpubkey": "5120690fc8b7fefd11506ba7a7176eca71153a3c0390a407d6de8bb6a33aa12dcdf0",
      "scriptpubkey_asm": "OP_PUSHNUM_1 OP_PUSHBYTES_32 690fc8b7fefd11506ba7a7176eca71153a3c0390a407d6de8bb6a33aa12dcdf0",
      "scriptpubkey_type": "v1_p2tr",
      "scriptpubkey_address": "bc1pdy8u3dl7l5g4q6a85utkajn3z5arcqus5sradh5tk63n4gfdehcqryzwum",
      "value": 6696
    },
    {
      "scriptpubkey": "51200705a5767db892e98125775049b1a13dd9ecdc8aea0df413cabbee683e871012",
      "scriptpubkey_asm": "OP_PUSHNUM_1 OP_PUSHBYTES_32 0705a5767db892e98125775049b1a13dd9ecdc8aea0df413cabbee683e871012",
      "scriptpubkey_type": "v1_p2tr",
      "scriptpubkey_address": "bc1pquz62anahzfwnqf9wagynvdp8hv7ehy2agxlgy72h0hxs058zqfqk8ksyq",
      "value": 2781
    }
  ],
  "size": 3459,
  "weight": 3963,
  "fee": 10901,
  "status": {
    "confirmed": true,
    "block_height": 834464,
    "block_hash": "0000000000000000000177a0869a911a2b65c9bdcd5a8bcb02b68f305bee848e",
    "block_time": 1710308296
  },
  "hex": "0200000000010197ce7085697cedf3f6cc5fd08ff4c4b68c3ea01cb80ac5cb4df896e7d2d6fcc00000000000fdffffff03e803000000000000160014e6bb27c791cf035d1394d06e20018fb2a122734d281a000000000000225120690fc8b7fefd11506ba7a7176eca71153a3c0390a407d6de8bb6a33aa12dcdf0dd0a0000000000002251200705a5767db892e98125775049b1a13dd9ecdc8aea0df413cabbee683e8710120340f25c460f2a700581534d72d37f419ba11fb913b4595b530e3ae8cb2acf88c9b9b2b2d34604e60ca0a5c0e00a0c4c1bc24b3d488c843a628f6598eceadee833fafd520c20f2d00e1cce0b839d2e197679cac7a15152ec244338032c7767f72c1332d49a65ac0063036f726401010a696d6167652f6a706567004d0802ffd8ffe000104a46494600010100000100010000ffe201d84943435f50524f46494c45000101000001c800000000043000006d6e74725247422058595a2007e00001000100000000000061637370000000000000000000000000000000000000000000000000000000010000f6d6000100000000d32d0000000000000000000000000000000000000000000000000000000000000000000000000000000000000000000000000000000964657363000000f0000000247258595a00000114000000146758595a00000128000000146258595a0000013c00000014777470740000015000000014725452430000016400000028675452430000016400000028625452430000016400000028637072740000018c0000003c6d6c756300000000000000010000000c656e5553000000080000001c007300520047004258595a200000000000006fa2000038f50000039058595a2000000000000062990000b785000018da58595a2000000000000024a000000f840000b6cf58595a20000000000000f6d6000100000000d32d706172610000000000040000000266660000f2a700000d59000013d000000a5b00000000000000006d6c756300000000000000010000000c656e5553000000200000001c0047006f006f0067006c006500200049006e0063002e00200032003000310036ffdb0043000302020302020303030304030304050805050404054d08020a070706080c0a0c0c0b0a0b0b0d0e12100d0e110e0b0b1016101113141515150c0f171816141812141514ffdb00430103040405040509050509140d0b0d1414141414141414141414141414141414141414141414141414141414141414141414141414141414141414141414141414ffc00011080200020003012200021101031101ffc4001a000100020301000000000000000000000000050706090a08ffc40014100100000000000000000000000000000000ffc4001a010100020301000000000000000000000000040502030607ffc40014110100000000000000000000000000000000ffda000c03010002110311003f00d5500000000000000000000000000000000000000000000000000000000000000000000000000000000000000000000000000000000000000000000000000000000000000000000000000000000000000000000000000000000000000000000000000000000000000000000000000000000000000000000000000000000000000000000000000000000000000000000000000000000000000000000000000000000000000000000000000000000000000000000000000000000000000000000000000000000000000000000000000000000000000000000000000000000000000000000000000000000000000000000000000000000000000000000000000000000000000000000000000000000000000000004d080200000000000000000000000000000000000000000000000000000000000000000000000000000000000000000000000000000000000000000000000000000000000000000000000000000000000000000000000000000000000000000000000000000000000000000000000000000000000000000000000000000000000000000000000000000000000000000000000000000000000000000000000000000000000000000000000000000000000000000000000000000000000000000000000000000000000000000000000000000000000000000000000000000000000000f4500b5560000000000000000000000003cea02a966000000000000000000000000000000000000000000000000000000000000bc80582bc00130036b06cb804766000cd4066c0000000000000000000001a12015eb30000000000000000000000000000000000000000000005aa026a2000000274066d40009801b58365c023b300066a03360000000000000000000000d0900af598000000000000000000000000000000000000000000002d50135100000013a0336a0004c00dac1b2e011d9800335019b00000000000000000000006848057acc0000000000000000000000000000000000000000000016a809a880000009d019b500026006d60d97008ecc0019a80cd8000000000000000000000342402bd6600000000000000000000000000000000000000004d080200000b5404d440000004e80cda800130036b063a03cddd980000000000000000000000000029701d9b9f0000000000000000000000000000000000000000000005aa026a2000000274066d40009801b5831d01e6eecc00124023b680000000000000000000000028501ddb9a0000000000000000000000000000000000000000000005aa026a2000274066d40009801b5831d01e6eecc00124023b6b0d01df3970000000006640381750c34077ce5c0000000015b80c198000000000000000000000000000000000000000002d50135100013a0336a0004c00dac18e80f3776600092011db5d1700eedcd3518024223c24035243a600183373a2038474ae8b80776e69a8c012111e1201a921d3000c19b9570000000000000000000000000000000000000000000016a809a880009d019b500026006d60c74079bbb300049008eda000000000000000000000000a140776e680000000000000000000000000000000000000000000016a809a880009d019b500026006d60c74079bbb300049008eda000000000000000000000000a140776e680000000000000000000000000000000000000000000016a809a880009d019b500026006d60c74079bbb300049008eda000000000000000000000000a140776e680000000000000000000000000000000000000000000016a809a880009d019b500026006d60c74079bbb36d4007a038f6b04079bbb4d0802500000000000000000000000050a03bb734000000000000000000000000000000000000000000000000b5404d444e80cda800130036b063a03cddd9b6a003d01c7b35019b00000000000000000000000006848057acc0000000000000000000000000000000000000000000000016a809a889d019b500026006d60c74079bbb36d4007a038f66a03360000000000000000000000000d0900af598000000000000000000000000000000000000000000000002d50135113a0336a0004c00dac18e80f377660000000000000000008c01e80e513a0336a51a02bd60000000000000000000000000000000000000000000000000b5404d4400000000000000000000066a024238000000000000000000000000000000003cea02a966000000000000000000000000000000000b5404d4400000000000000000000066a024238000000000000000000000000000000003cea02a966000000000000000000000000000000000b5404d4400000000000000000000066a024238000003a1e0154b373c202d558000000000e8780552cdcf080b5560000003cea02a966000000000000000000000000000000000b5404d4400000000000000000000066a024238000003a1e0154b373c202d558000000000e8780552cdcf080b5560000003cea02a966000000000000000000000000000000000b5404d4400000000000000000000066a024238000003a1e014c6d54b373c202d558000000000e8780552cdcf080b5560000003cea02a966000000000000000000000000000000000b5404d4400000000000000000000066a024238000003a1e0154b373c202d558000000000e8780552cdcf080b5560000003cea02a966000000000000000fffd9680063036f726401011e6170706c69636174696f6e2f6a736f6e3b636861727365743d7574662d38004d49017b2270223a22766f7264222c2276223a312c227479223a22696e7363222c22636f6c223a2230323336303866343162323735633034313737386331353733383530366633633665336536313539646139333364333761343531373566643833313436666237222c22696964223a224e4f4445205341544f534849222c227075626c223a2231455337623370636a527a4667796969714c7278484b546e43686535364c4a485937222c226e6f6e6365223a312c226d696e746572223a22626331717536616a3033753365757034367975353670687a717176306b32736a79753664396d78387872222c22736967223a224737774f4b364a32524665496a6e6f30316255392b525732724e316d777a66475a736e5670666b582f706f42616a337a7243524c6849333732324465666961784f6a483265637a6c416f576c71746c7446317666474e553d227d6841c0f2d00e1cce0b839d2e197679cac7a15152ec244338032c7767f72c1332d49a65675a92934efa5e4869b2432a3e00abfc6819367af43949c2edc693b32d23ac0500000000"
}