{
  "txid": "d4f0e7ab0e8643b608fe22c68747cdcdede17e1c87753db6df06227377b6aab5",
  "version": 1,
  "locktime": 0,
  "vin": [
    {
      "txid": "7a59528fe336718df10f1ed6de9b9fde729d8de27e85f0b2d8a4358e09c72722",
      "vout": 1,
      "prevout": {
        "scriptpubkey": "76a9141dcb4d4474d5c65afe256f3d48acfa326b1932c488ac",
        "scriptpubkey_asm": "OP_DUP OP_HASH160 OP_PUSHBYTES_20 1dcb4d4474d5c65afe256f3d48acfa326b1932c4 OP_EQUALVERIFY OP_CHECKSIG",
        "scriptpubkey_type": "p2pkh",
        "scriptpubkey_address": "13iY9DrPihp4CQatJr8Pfngrr4uv1J66PZ",
        "value": 1115480
      },
      "scriptsig": "473044022072370ca39652c9da2da728371b0caeb5bf7d24ba4980946b5cf10e2722d993260220163388ef55be15da12fb687a401f69ccacdd229dad87e05d02843c3845691b59012103bdbc5b945eb29d6242b2d33ce89bc55cda2b7a8919e3bc017abc45439d3d385f",
      "scriptsig_asm": "OP_PUSHBYTES_71 3044022072370ca39652c9da2da728371b0caeb5bf7d24ba4980946b5cf10e2722d993260220163388ef55be15da12fb687a401f69ccacdd229dad87e05d02843c3845691b5901 OP_PUSHBYTES_33 03bdbc5b945eb29d6242b2d33ce89bc55cda2b7a8919e3bc017abc45439d3d385f",
      "is_coinbase": false,
      "sequence": 4294967295
    }
  ],
  "vout": [
    {
      "scriptpubkey": "a914b1865d49088c91b88716dafd56d7bf199506c69787",
      "scriptpubkey_asm": "OP_HASH160 OP_PUSHBYTES_20 b1865d49088c91b88716dafd56d7bf199506c697 OP_EQUAL",
      "scriptpubkey_type": "p2sh",
      "scriptpubkey_address": "3HsgVJLAF2jqLN1sTu5XDofDjtH45dSarS",
      "value": 600000
    },
    {
      "scriptpubkey": "76a9141dcb4d4474d5c65afe256f3d48acfa326b1932c488ac",
      "scriptpubkey_asm": "OP_DUP OP_HASH160 OP_PUSHBYTES_20 1dcb4d4474d5c65afe256f3d48acfa326b1932c4 OP_EQUALVERIFY OP_CHECKSIG",
      "scriptpubkey_type": "p2pkh",
      "scriptpubkey_address": "13iY9DrPihp4CQatJr8Pfngrr4uv1J66PZ",
      "value": 510960
    }
  ],
  "size": 223,
  "weight": 892,
  "fee": 4520,
  "status": {
    "confirmed": true,
    "block_height": 834464,
    "block_hash": "0000000000000000000177a0869a911a2b65c9bdcd5a8bcb02b68f305bee848e",
    "block_time": 1710308296
  },
  "hex": "01000000012227c7098e35a4d8b2f0857ee28d9d72de9f9bded61e0ff18d7136e38f52597a010000006a473044022072370ca39652c9da2da728371b0caeb5bf7d24ba4980946b5cf10e2722d993260220163388ef55be15da12fb687a401f69ccacdd229dad87e05d02843c3845691b59012103bdbc5b945eb29d6242b2d33ce89bc55cda2b7a8919e3bc017abc45439d3d385fffffffff02c02709000000000017a914b1865d49088c91b88716dafd56d7bf199506c69787f0cb0700000000001976a9141dcb4d4474d5c65afe256f3d48acfa326b1932c488ac00000000"
}