{
  "txid": "d4f9cd9f6e308d088437cd3600e5356fa509ce298ba8f62014a11abf6328aaa0",
  "version": 2,
  "locktime": 0,
  "vin": [
    {
      "txid": "20c2f315e3b8fc495f94d604ca6f5c463c43dc8da41097ee772b147e6df19f4b",
      "vout": 22,
      "prevout": {
        "scriptpubkey": "512043c6dfa26407c94b5665566c5077cd2392a04364138c5ed62147b70096ff64d0",
        "scriptpubkey_asm": "OP_PUSHNUM_1 OP_PUSHBYTES_32 43c6dfa26407c94b5665566c5077cd2392a04364138c5ed62147b70096ff64d0",
        "scriptpubkey_type": "v1_p2tr",
        "scriptpubkey_address": "bc1pg0rdlgnyqly5k4n92ek9qa7dywf2qsmyzwx9a43pg7msp9hlvngqv8dfyh",
        "value": 558908
      },
      "scriptsig": "",
      "scriptsig_asm": "",
      "witness": [
        "f0ac85bfe50f386ab9289e66d40dcf789e1521212a5ce6495627a97058acc0a4b048e47f497cebf1d44a66cf9abfcf6882cdb59f5aa27477eb3623ea74d194ea01"
      ],
      "is_coinbase": false,
      "sequence": 4294967295
    },
    {
      "txid": "b87aa27a025a332b980da2221d9ae89a52b9577b832f915cc3e46c201a9e80ee",
      "vout": 0,
      "prevout": {
        "scriptpubkey": "5120cc6a6c79e07d493a08ed903ab7a1437d23816254c5dbaf66e5560b132e6d693c",
        "scriptpubkey_asm": "OP_PUSHNUM_1 OP_PUSHBYTES_32 cc6a6c79e07d493a08ed903ab7a1437d23816254c5dbaf66e5560b132e6d693c",
        "scriptpubkey_type": "v1_p2tr",
        "scriptpubkey_address": "bc1pe34xc70q04yn5z8djqat0g2r053czcj5chd67eh92c93xtnddy7q7p4zwn",
        "value": 9999
      },
      "scriptsig": "",
      "scriptsig_asm": "",
      "witness": [
        "a910df796bc935466321c54842dd58f042d7aea0b82796eb86ff00108cccb0d7809e896706c06235aa39468976ecac644661b4f096af0bf8a100739dc2195a0883"
      ],
      "is_coinbase": false,
      "sequence": 4294967295
    },
    {
      "txid": "e4e22f2a76ce375ddeac44ccf9736ca1c6570839baca4731eec26bbc195c32c9",
      "vout": 0,
      "prevout": {
        "scriptpubkey": "5120cc6a6c79e07d493a08ed903ab7a1437d23816254c5dbaf66e5560b132e6d693c",
        "scriptpubkey_asm": "OP_PUSHNUM_1 OP_PUSHBYTES_32 cc6a6c79e07d493a08ed903ab7a1437d23816254c5dbaf66e5560b132e6d693c",
        "scriptpubkey_type": "v1_p2tr",
        "scriptpubkey_address": "bc1pe34xc70q04yn5z8djqat0g2r053czcj5chd67eh92c93xtnddy7q7p4zwn",
        "value": 9999
      },
      "scriptsig": "",
      "scriptsig_asm": "",
      "witness": [
        "808fec207cd24502bee708db9540028c4cce2e20d5339bec1ccebaf59dd2788aacddc3de2714fd4894c35ca1b952c9e3785f6307ad07b0cbca44e04811fe34fb83"
      ],
      "is_coinbase": false,
      "sequence": 4294967295
    },
    {
      "txid": "b96a827418250a5f201eb88abfa3e8ec0d067a70fd20db13e3ec09ea4036fddd",
      "vout": 0,
      "prevout": {
        "scriptpubkey": "5120cc6a6c79e07d493a08ed903ab7a1437d23816254c5dbaf66e5560b132e6d693c",
        "scriptpubkey_asm": "OP_PUSHNUM_1 OP_PUSHBYTES_32 cc6a6c79e07d493a08ed903ab7a1437d23816254c5dbaf66e5560b132e6d693c",
        "scriptpubkey_type": "v1_p2tr",
        "scriptpubkey_address": "bc1pe34xc70q04yn5z8djqat0g2r053czcj5chd67eh92c93xtnddy7q7p4zwn",
        "value": 9999
      },
      "scriptsig": "",
      "scriptsig_asm": "",
      "witness": [
        "4e1b922e505a6ec32f30e6b7b12e75d716a417e68374cc12082f3c18d3db3ef66878ceada3e07265f3ae29fd3c88dfd552cffdbb4ca5b8339a77aded2641ec4583"
      ],
      "is_coinbase": false,
      "sequence": 4294967295
    },
    {
      "txid": "00defccb1b244a662995353c281d893b707747a051baf75fd441e6f097823db2",
      "vout": 0,
      "prevout": {
        "scriptpubkey": "5120cc6a6c79e07d493a08ed903ab7a1437d23816254c5dbaf66e5560b132e6d693c",
        "scriptpubkey_asm": "OP_PUSHNUM_1 OP_PUSHBYTES_32 cc6a6c79e07d493a08ed903ab7a1437d23816254c5dbaf66e5560b132e6d693c",
        "scriptpubkey_type": "v1_p2tr",
        "scriptpubkey_address": "bc1pe34xc70q04yn5z8djqat0g2r053czcj5chd67eh92c93xtnddy7q7p4zwn",
        "value": 9999
      },
      "scriptsig": "",
      "scriptsig_asm": "",
      "witness": [
        "a8de8e17b9c4c71eddc5ae4bd18ca20931131f1a878ee11860ecbe62279783abf58c8df6358a739a0a94614d0542fa70f72069ca37fac6e48e6dac38c56a8a8583"
      ],
      "is_coinbase": false,
      "sequence": 4294967295
    },
    {
      "txid": "857ab40701faf81d7b7c4bda1025d8c705271fbbff3b16f47eb32a510cbfe5b8",
      "vout": 0,
      "prevout": {
        "scriptpubkey": "5120cc6a6c79e07d493a08ed903ab7a1437d23816254c5dbaf66e5560b132e6d693c",
        "scriptpubkey_asm": "OP_PUSHNUM_1 OP_PUSHBYTES_32 cc6a6c79e07d493a08ed903ab7a1437d23816254c5dbaf66e5560b132e6d693c",
        "scriptpubkey_type": "v1_p2tr",
        "scriptpubkey_address": "bc1pe34xc70q04yn5z8djqat0g2r053czcj5chd67eh92c93xtnddy7q7p4zwn",
        "value": 9999
      },
      "scriptsig": "",
      "scriptsig_asm": "",
      "witness": [
        "4d3ca8d6f25030f5535226ecf8d043593d11997450959c7ad70ed87bd453eb1bda67c7ba6c67d0e3e3bb27345b70fea41788797d5e2f1029805167f71860370983"
      ],
      "is_coinbase": false,
      "sequence": 4294967295
    },
    {
      "txid": "11b51afbdba729739b5c7c894daaf1a700cf070ac450cc13e213a632139e92fa",
      "vout": 0,
      "prevout": {
        "scriptpubkey": "5120cc6a6c79e07d493a08ed903ab7a1437d23816254c5dbaf66e5560b132e6d693c",
        "scriptpubkey_asm": "OP_PUSHNUM_1 OP_PUSHBYTES_32 cc6a6c79e07d493a08ed903ab7a1437d23816254c5dbaf66e5560b132e6d693c",
        "scriptpubkey_type": "v1_p2tr",
        "scriptpubkey_address": "bc1pe34xc70q04yn5z8djqat0g2r053czcj5chd67eh92c93xtnddy7q7p4zwn",
        "value": 9999
      },
      "scriptsig": "",
      "scriptsig_asm": "",
      "witness": [
        "6619e592146db31c5af4f3275f83afc22c66bea17e5f18d99cb5ee3a9a6f4dcc85023b93f2e0685fe08ea0b9d35142185575d5c98789d3cbc922d93594be4f7683"
      ],
      "is_coinbase": false,
      "sequence": 4294967295
    },
    {
      "txid": "426bacfbe92e22bc154d8f8c91b118d60331af2f6bc3d32b2775c6b6a70892a9",
      "vout": 0,
      "prevout": {
        "scriptpubkey": "5120cc6a6c79e07d493a08ed903ab7a1437d23816254c5dbaf66e5560b132e6d693c",
        "scriptpubkey_asm": "OP_PUSHNUM_1 OP_PUSHBYTES_32 cc6a6c79e07d493a08ed903ab7a1437d23816254c5dbaf66e5560b132e6d693c",
        "scriptpubkey_type": "v1_p2tr",
        "scriptpubkey_address": "bc1pe34xc70q04yn5z8djqat0g2r053czcj5chd67eh92c93xtnddy7q7p4zwn",
        "value": 9999
      },
      "scriptsig": "",
      "scriptsig_asm": "",
      "witness": [
        "1ce8efee8fd46d46297d591204050da3ff402542e16ee6cf9751fb8a039f16c6a4b90ce3e2395087f98f262c934e5c4e8b5675b5ef3ca7257b55e5cd99c6900883"
      ],
      "is_coinbase": false,
      "sequence": 4294967295
    },
    {
      "txid": "31a87ab0be73200aeb9ae1518a4e0db72338e17f2de5da2f9ce651b0eccbc1e8",
      "vout": 0,
      "prevout": {
        "scriptpubkey": "5120cc6a6c79e07d493a08ed903ab7a1437d23816254c5dbaf66e5560b132e6d693c",
        "scriptpubkey_asm": "OP_PUSHNUM_1 OP_PUSHBYTES_32 cc6a6c79e07d493a08ed903ab7a1437d23816254c5dbaf66e5560b132e6d693c",
        "scriptpubkey_type": "v1_p2tr",
        "scriptpubkey_address": "bc1pe34xc70q04yn5z8djqat0g2r053czcj5chd67eh92c93xtnddy7q7p4zwn",
        "value": 9999
      },
      "scriptsig": "",
      "scriptsig_asm": "",
      "witness": [
        "80594781b88dd47fc06f452ced426d21198e2ea26c3a115b572b84ad212ed5d7b53a0806b635475452646aa830a600a4eac3f831145d8a271c62b062c855461b83"
      ],
      "is_coinbase": false,
      "sequence": 4294967295
    },
    {
      "txid": "dca7284de63abe800e0bc41952b2e0cf3dbc8f6bb90a0b20a2842415b90acfbb",
      "vout": 0,
      "prevout": {
        "scriptpubkey": "5120cc6a6c79e07d493a08ed903ab7a1437d23816254c5dbaf66e5560b132e6d693c",
        "scriptpubkey_asm": "OP_PUSHNUM_1 OP_PUSHBYTES_32 cc6a6c79e07d493a08ed903ab7a1437d23816254c5dbaf66e5560b132e6d693c",
        "scriptpubkey_type": "v1_p2tr",
        "scriptpubkey_address": "bc1pe34xc70q04yn5z8djqat0g2r053czcj5chd67eh92c93xtnddy7q7p4zwn",
        "value": 9999
      },
      "scriptsig": "",
      "scriptsig_asm": "",
      "witness": [
        "c1ee2e73b23891175b1776fbe25cad1846809b99eb005299c68356d2bfc98a7a9b1ee8ecdf18f686fffadf605802c88af3fc878da733b61c899de8d109c2209583"
      ],
      "is_coinbase": false,
      "sequence": 4294967295
    },
    {
      "txid": "285d494edc11b6488f2f37ead86b457c199a1e16f54aa012b448c5d620721cd0",
      "vout": 0,
      "prevout": {
        "scriptpubkey": "5120cc6a6c79e07d493a08ed903ab7a1437d23816254c5dbaf66e5560b132e6d693c",
        "scriptpubkey_asm": "OP_PUSHNUM_1 OP_PUSHBYTES_32 cc6a6c79e07d493a08ed903ab7a1437d23816254c5dbaf66e5560b132e6d693c",
        "scriptpubkey_type": "v1_p2tr",
        "scriptpubkey_address": "bc1pe34xc70q04yn5z8djqat0g2r053czcj5chd67eh92c93xtnddy7q7p4zwn",
        "value": 9999
      },
      "scriptsig": "",
      "scriptsig_asm": "",
      "witness": [
        "e361e2ae9cd23aef673235f55bb3585421878cee238012eb75918f02b704071b60bd8609ff0b4a42bcb26b5293dc55a4e1f744005535312a540d08bf48b9e17383"
      ],
      "is_coinbase": false,
      "sequence": 4294967295
    },
    {
      "txid": "57edb62f7b6c4f57be7f22a5f0022f57e3a45fc0b7eadf6cbf02ea2c1fcf58b1",
      "vout": 0,
      "prevout": {
        "scriptpubkey": "5120cc6a6c79e07d493a08ed903ab7a1437d23816254c5dbaf66e5560b132e6d693c",
        "scriptpubkey_asm": "OP_PUSHNUM_1 OP_PUSHBYTES_32 cc6a6c79e07d493a08ed903ab7a1437d23816254c5dbaf66e5560b132e6d693c",
        "scriptpubkey_type": "v1_p2tr",
        "scriptpubkey_address": "bc1pe34xc70q04yn5z8djqat0g2r053czcj5chd67eh92c93xtnddy7q7p4zwn",
        "value": 9999
      },
      "scriptsig": "",
      "scriptsig_asm": "",
      "witness": [
        "e964ea5859054bfca8a53def885a71ea59fa3e7375a265054c44be89a788820611d2d01c5c7cf31d1889bf79ab0b88a8997affbf8435896ccb62396c304a58af83"
      ],
      "is_coinbase": false,
      "sequence": 4294967295
    },
    {
      "txid": "fad74918427b5cdb865badbe514a53230656f0c60e1157ca5b1a9519fb61a1ba",
      "vout": 0,
      "prevout": {
        "scriptpubkey": "5120cc6a6c79e07d493a08ed903ab7a1437d23816254c5dbaf66e5560b132e6d693c",
        "scriptpubkey_asm": "OP_PUSHNUM_1 OP_PUSHBYTES_32 cc6a6c79e07d493a08ed903ab7a1437d23816254c5dbaf66e5560b132e6d693c",
        "scriptpubkey_type": "v1_p2tr",
        "scriptpubkey_address": "bc1pe34xc70q04yn5z8djqat0g2r053czcj5chd67eh92c93xtnddy7q7p4zwn",
        "value": 9999
      },
      "scriptsig": "",
      "scriptsig_asm": "",
      "witness": [
        "96ee07ba8ec6b5f31f7ab0c982fe3ab49f660922991ecfc460cc576285ebb810d15a9532bdda720e199ad388e40f70f1a1d97a8b451bd512f50abc835bb8696a83"
      ],
      "is_coinbase": false,
      "sequence": 4294967295
    },
    {
      "txid": "6335370d643d0f002fe28bd102a404936650671e312ad59268477368b0452413",
      "vout": 0,
      "prevout": {
        "scriptpubkey": "51205a263ceb749a9db19b79bdaab5c1862ca038177143914ee1a994d2591cdf79a7",
        "scriptpubkey_asm": "OP_PUSHNUM_1 OP_PUSHBYTES_32 5a263ceb749a9db19b79bdaab5c1862ca038177143914ee1a994d2591cdf79a7",
        "scriptpubkey_type": "v1_p2tr",
        "scriptpubkey_address": "bc1ptgnre6m5n2wmrxmehk4ttsvx9jsrs9m3gwg5acdfjnf9j8xl0xnsmagkgl",
        "value": 9999
      },
      "scriptsig": "",
      "scriptsig_asm": "",
      "witness": [
        "85212bba381250141a810dd203472afaae3c44de4dcfecac7e173851dab5a38a0bb00583cd6ea3d3d648c42bccc39e0e70211cd0ecc073aa84523d94ac8da78b83"
      ],
      "is_coinbase": false,
      "sequence": 4294967295
    },
    {
      "txid": "9500694192aa65b0038cce05fb3ae7177f1220b0c673feeb97ce3fc188b249c9",
      "vout": 0,
      "prevout": {
        "scriptpubkey": "5120cc6a6c79e07d493a08ed903ab7a1437d23816254c5dbaf66e5560b132e6d693c",
        "scriptpubkey_asm": "OP_PUSHNUM_1 OP_PUSHBYTES_32 cc6a6c79e07d493a08ed903ab7a1437d23816254c5dbaf66e5560b132e6d693c",
        "scriptpubkey_type": "v1_p2tr",
        "scriptpubkey_address": "bc1pe34xc70q04yn5z8djqat0g2r053czcj5chd67eh92c93xtnddy7q7p4zwn",
        "value": 9999
      },
      "scriptsig": "",
      "scriptsig_asm": "",
      "witness": [
        "881bda58f2a853743bb5524a10b494f92b218f82294d69c208ce067c96ecc2a795075afda82ec4de475f5c205ab9fb584d3325b1334f7ff0de139236892c90f183"
      ],
      "is_coinbase": false,
      "sequence": 4294967295
    },
    {
      "txid": "869e05b16c842b044287d0605fc33bca4ae95ef7779cc6ace9183bf4ce7040f0",
      "vout": 0,
      "prevout": {
        "scriptpubkey": "5120cc6a6c79e07d493a08ed903ab7a1437d23816254c5dbaf66e5560b132e6d693c",
        "scriptpubkey_asm": "OP_PUSHNUM_1 OP_PUSHBYTES_32 cc6a6c79e07d493a08ed903ab7a1437d23816254c5dbaf66e5560b132e6d693c",
        "scriptpubkey_type": "v1_p2tr",
        "scriptpubkey_address": "bc1pe34xc70q04yn5z8djqat0g2r053czcj5chd67eh92c93xtnddy7q7p4zwn",
        "value": 9999
      },
      "scriptsig": "",
      "scriptsig_asm": "",
      "witness": [
        "779499425c4b193c630ec415f00a19e1f2aea22317a32a02c3e5e191aea76f39e12663039382a89aa63f6415943554d8b4ccbaeaffdbdc816207cbfd0b82a82083"
      ],
      "is_coinbase": false,
      "sequence": 4294967295
    },
    {
      "txid": "8dc87da901d86e5132105f34dd35ee9456c833544a74d48de7571cfa3d00e9b4",
      "vout": 0,
      "prevout": {
        "scriptpubkey": "5120cc6a6c79e07d493a08ed903ab7a1437d23816254c5dbaf66e5560b132e6d693c",
        "scriptpubkey_asm": "OP_PUSHNUM_1 OP_PUSHBYTES_32 cc6a6c79e07d493a08ed903ab7a1437d23816254c5dbaf66e5560b132e6d693c",
        "scriptpubkey_type": "v1_p2tr",
        "scriptpubkey_address": "bc1pe34xc70q04yn5z8djqat0g2r053czcj5chd67eh92c93xtnddy7q7p4zwn",
        "value": 9999
      },
      "scriptsig": "",
      "scriptsig_asm": "",
      "witness": [
        "6a3998278a90798405711c8c3caf947497ce0478970d68510224df52f6e264dcd7f4f8fadce199e768145e05764ed9faacdb9844d87a207d6dc57c0e3ab1d35e83"
      ],
      "is_coinbase": false,
      "sequence": 4294967295
    },
    {
      "txid": "200d5d3d9a0b7d7331cd87d94a0ae70021c568314b8c72a0839ce6222fcd56ee",
      "vout": 0,
      "prevout": {
        "scriptpubkey": "5120cc6a6c79e07d493a08ed903ab7a1437d23816254c5dbaf66e5560b132e6d693c",
        "scriptpubkey_asm": "OP_PUSHNUM_1 OP_PUSHBYTES_32 cc6a6c79e07d493a08ed903ab7a1437d23816254c5dbaf66e5560b132e6d693c",
        "scriptpubkey_type": "v1_p2tr",
        "scriptpubkey_address": "bc1pe34xc70q04yn5z8djqat0g2r053czcj5chd67eh92c93xtnddy7q7p4zwn",
        "value": 9999
      },
      "scriptsig": "",
      "scriptsig_asm": "",
      "witness": [
        "dfb49e678ab47de040f46896a671554a962f09119a438acc6ffac9b6cf0528ef32356d1ce79ce929240836f15d5d0eff8dc4948b627b66a056a2e4cc19bd5b7783"
      ],
      "is_coinbase": false,
      "sequence": 4294967295
    },
    {
      "txid": "4641bd595162a2c507c44b10a6c4ce1789c5b4e7980357baf79ebdd4039e14bc",
      "vout": 0,
      "prevout": {
        "scriptpubkey": "5120cc6a6c79e07d493a08ed903ab7a1437d23816254c5dbaf66e5560b132e6d693c",
        "scriptpubkey_asm": "OP_PUSHNUM_1 OP_PUSHBYTES_32 cc6a6c79e07d493a08ed903ab7a1437d23816254c5dbaf66e5560b132e6d693c",
        "scriptpubkey_type": "v1_p2tr",
        "scriptpubkey_address": "bc1pe34xc70q04yn5z8djqat0g2r053czcj5chd67eh92c93xtnddy7q7p4zwn",
        "value": 9999
      },
      "scriptsig": "",
      "scriptsig_asm": "",
      "witness": [
        "7105d58277ff1627ca1718e53964664462b2ead8acfcb076f1bba7f5dade2a5a87bbfa77709ab87b5cb71348ccaa197e7ac62ca45b98356cfc6f1dfde6e223ae83"
      ],
      "is_coinbase": false,
      "sequence": 4294967295
    },
    {
      "txid": "a82cec59fa7ff7abd6b7a56dc1ef7c737d9d92d10e334acb653a2ab677f265fb",
      "vout": 0,
      "prevout": {
        "scriptpubkey": "5120cc6a6c79e07d493a08ed903ab7a1437d23816254c5dbaf66e5560b132e6d693c",
        "scriptpubkey_asm": "OP_PUSHNUM_1 OP_PUSHBYTES_32 cc6a6c79e07d493a08ed903ab7a1437d23816254c5dbaf66e5560b132e6d693c",
        "scriptpubkey_type": "v1_p2tr",
        "scriptpubkey_address": "bc1pe34xc70q04yn5z8djqat0g2r053czcj5chd67eh92c93xtnddy7q7p4zwn",
        "value": 9999
      },
      "scriptsig": "",
      "scriptsig_asm": "",
      "witness": [
        "137bbd098ea67abdad9abb4f24ef9f0f8ad38a022b9fc1e523dc7f7ab44f106633a1935be1258d294dba6aa59340277fe83e0b0e382af69498fcac8bc09ffb2583"
      ],
      "is_coinbase": false,
      "sequence": 4294967295
    },
    {
      "txid": "a9769ba8fbce5bad7168d5a8edaea8a28858d3593e64e751caa290e81984edc3",
      "vout": 0,
      "prevout": {
        "scriptpubkey": "5120cc6a6c79e07d493a08ed903ab7a1437d23816254c5dbaf66e5560b132e6d693c",
        "scriptpubkey_asm": "OP_PUSHNUM_1 OP_PUSHBYTES_32 cc6a6c79e07d493a08ed903ab7a1437d23816254c5dbaf66e5560b132e6d693c",
        "scriptpubkey_type": "v1_p2tr",
        "scriptpubkey_address": "bc1pe34xc70q04yn5z8djqat0g2r053czcj5chd67eh92c93xtnddy7q7p4zwn",
        "value": 9999
      },
      "scriptsig": "",
      "scriptsig_asm": "",
      "witness": [
        "e4e77e96b61b8d57e6c2675f7a6ae0ff0fa970cc49a71b9d1c6cb3cbecbfa23c04c8eb84554a0c1c5e0f3624ddd57c2313ca96f05fa0ce0d179eeb4976157dc583"
      ],
      "is_coinbase": false,
      "sequence": 4294967295
    },
    {
      "txid": "2997d3dcdf06f72df51aafa464b2cdcf6ec8430cb318e1ccb255b7126eaef5c6",
      "vout": 0,
      "prevout": {
        "scriptpubkey": "5120cc6a6c79e07d493a08ed903ab7a1437d23816254c5dbaf66e5560b132e6d693c",
        "scriptpubkey_asm": "OP_PUSHNUM_1 OP_PUSHBYTES_32 cc6a6c79e07d493a08ed903ab7a1437d23816254c5dbaf66e5560b132e6d693c",
        "scriptpubkey_type": "v1_p2tr",
        "scriptpubkey_address": "bc1pe34xc70q04yn5z8djqat0g2r053czcj5chd67eh92c93xtnddy7q7p4zwn",
        "value": 9999
      },
      "scriptsig": "",
      "scriptsig_asm": "",
      "witness": [
        "859220c4428edd38ab8e6cf431def2ca66fb0c28e40a43721167766033f641b96fc208c78baf46b9880a9ab44868dfa2e595854cfbb0691ab3982ed2d1d3d7ae83"
      ],
      "is_coinbase": false,
      "sequence": 4294967295
    },
    {
      "txid": "1771e95d89f98239c0cefab96cbf9e6748a9fa367b80a1cc3e9ff0bb2a2d24bf",
      "vout": 0,
      "prevout": {
        "scriptpubkey": "5120c324f6539571fc2c8103242d6c024f3dbac82b45e626255578737eaa0796bdf2",
        "scriptpubkey_asm": "OP_PUSHNUM_1 OP_PUSHBYTES_32 c324f6539571fc2c8103242d6c024f3dbac82b45e626255578737eaa0796bdf2",
        "scriptpubkey_type": "v1_p2tr",
        "scriptpubkey_address": "bc1pcvj0v5u4w87zeqgryskkcqj08kavs269ucnz24tcwdl25pukhheq0zaunk",
        "value": 9999
      },
      "scriptsig": "",
      "scriptsig_asm": "",
      "witness": [
        "949bd27bc8988ac7fe6cf76aa9903ba74e2a64bfc13e36387daba5d45b368ff918df7204ffeb6ec23eba5b9ea170404537a6bc78ac46420192269da230c78f1b83"
      ],
      "is_coinbase": false,
      "sequence": 4294967295
    },
    {
      "txid": "3b595cbe65cefc516e10d6ae3254ab6f2f32dd85f366b3e5d3e0c1cda18767bd",
      "vout": 0,
      "prevout": {
        "scriptpubkey": "5120cc6a6c79e07d493a08ed903ab7a1437d23816254c5dbaf66e5560b132e6d693c",
        "scriptpubkey_asm": "OP_PUSHNUM_1 OP_PUSHBYTES_32 cc6a6c79e07d493a08ed903ab7a1437d23816254c5dbaf66e5560b132e6d693c",
        "scriptpubkey_type": "v1_p2tr",
        "scriptpubkey_address": "bc1pe34xc70q04yn5z8djqat0g2r053czcj5chd67eh92c93xtnddy7q7p4zwn",
        "value": 9999
      },
      "scriptsig": "",
      "scriptsig_asm": "",
      "witness": [
        "9b6ed41d544438577111a677e3a105f10261a32ab243dc7a3c54703cb5eeea3d083af522394d365b63cf766261afefca71ded903fb227e2cf1e3891788231c1383"
      ],
      "is_coinbase": false,
      "sequence": 4294967295
    },
    {
      "txid": "f692d4b79d400494208d82cef0696489861add0f9fb862194e5efa4aab2de251",
      "vout": 0,
      "prevout": {
        "scriptpubkey": "5120c9778f0f7116a0fa90e759ca54b375f5c38d7db5875a2860af8354d65a8671e2",
        "scriptpubkey_asm": "OP_PUSHNUM_1 OP_PUSHBYTES_32 c9778f0f7116a0fa90e759ca54b375f5c38d7db5875a2860af8354d65a8671e2",
        "scriptpubkey_type": "v1_p2tr",
        "scriptpubkey_address": "bc1pe9mc7rm3z6s04y88t899fvm47hpc6ld4sadzsc90sd2dvk5xw83qeh2mmm",
        "value": 9999
      },
      "scriptsig": "",
      "scriptsig_asm": "",
      "witness": [
        "8a4933af60c2d9e08d72ab6f49a2660b97a45bd730962b1539e548fb345a6c91a01eee8e58391feb7b1c619f76159f9b6d56b5a75b71b8d0585222266e46108c83"
      ],
      "is_coinbase": false,
      "sequence": 4294967295
    },
    {
      "txid": "c6fcbff073c5f8b35a3df04422c8d8b16d904677dd62b59d4afb4d22880d4bde",
      "vout": 0,
      "prevout": {
        "scriptpubkey": "5120cc6a6c79e07d493a08ed903ab7a1437d23816254c5dbaf66e5560b132e6d693c",
        "scriptpubkey_asm": "OP_PUSHNUM_1 OP_PUSHBYTES_32 cc6a6c79e07d493a08ed903ab7a1437d23816254c5dbaf66e5560b132e6d693c",
        "scriptpubkey_type": "v1_p2tr",
        "scriptpubkey_address": "bc1pe34xc70q04yn5z8djqat0g2r053czcj5chd67eh92c93xtnddy7q7p4zwn",
        "value": 9999
      },
      "scriptsig": "",
      "scriptsig_asm": "",
      "witness": [
        "eb0996425622d3a7b99d06b02d8ea83b6907d47e9cf41cf34526e516636f559075bb86f6c56872e646794866f9141cb5d03125fe0a3fbe6b9c50aff22b06554083"
      ],
      "is_coinbase": false,
      "sequence": 4294967295
    },
    {
      "txid": "3689c0018261adc14f2a4cc007dc556d72d7fb14154d9a1bd8c8851580c84322",
      "vout": 0,
      "prevout": {
        "scriptpubkey": "5120c324f6539571fc2c8103242d6c024f3dbac82b45e626255578737eaa0796bdf2",
        "scriptpubkey_asm": "OP_PUSHNUM_1 OP_PUSHBYTES_32 c324f6539571fc2c8103242d6c024f3dbac82b45e626255578737eaa0796bdf2",
        "scriptpubkey_type": "v1_p2tr",
        "scriptpubkey_address": "bc1pcvj0v5u4w87zeqgryskkcqj08kavs269ucnz24tcwdl25pukhheq0zaunk",
        "value": 19998
      },
      "scriptsig": "",
      "scriptsig_asm": "",
      "witness": [
        "175e8df1c49517467e488db9c7a9f248b1691b9d0c2eabf29578762e2f0501b82409a791c32b1b23bedeb61b1dee74366334a23edea75299dbccb2ad2542ad2383"
      ],
      "is_coinbase": false,
      "sequence": 4294967295
    },
    {
      "txid": "a0d656ffa141f8460d1e64970e7d54bce19561f544eb97721050d1d44a9b06f3",
      "vout": 0,
      "prevout": {
        "scriptpubkey": "5120cc6a6c79e07d493a08ed903ab7a1437d23816254c5dbaf66e5560b132e6d693c",
        "scriptpubkey_asm": "OP_PUSHNUM_1 OP_PUSHBYTES_32 cc6a6c79e07d493a08ed903ab7a1437d23816254c5dbaf66e5560b132e6d693c",
        "scriptpubkey_type": "v1_p2tr",
        "scriptpubkey_address": "bc1pe34xc70q04yn5z8djqat0g2r053czcj5chd67eh92c93xtnddy7q7p4zwn",
        "value": 9999
      },
      "scriptsig": "",
      "scriptsig_asm": "",
      "witness": [
        "1d22e94fbe0f94ace6004a3aa2d5fdd7d7abed45385bc57a930fa3b42e38613ec146d84e8f865a0575d99d453fca8a76c708274f9f93499d81f45d180a71cae683"
      ],
      "is_coinbase": false,
      "sequence": 4294967295
    },
    {
      "txid": "b5b073a0ae145ca9f45cc824e079c0c5f0a0bad06d7f17ab6fef1bc9e3ffd7b1",
      "vout": 0,
      "prevout": {
        "scriptpubkey": "5120cc6a6c79e07d493a08ed903ab7a1437d23816254c5dbaf66e5560b132e6d693c",
        "scriptpubkey_asm": "OP_PUSHNUM_1 OP_PUSHBYTES_32 cc6a6c79e07d493a08ed903ab7a1437d23816254c5dbaf66e5560b132e6d693c",
        "scriptpubkey_type": "v1_p2tr",
        "scriptpubkey_address": "bc1pe34xc70q04yn5z8djqat0g2r053czcj5chd67eh92c93xtnddy7q7p4zwn",
        "value": 9999
      },
      "scriptsig": "",
      "scriptsig_asm": "",
      "witness": [
        "96da6731d597f440ee00a461dd9ad34dec5a986c56c2c0e4e564dcc41ffbc05a25cdcf9027907bd418350e8c458d53e45f3c3fd414099c753357610dae5b004083"
      ],
      "is_coinbase": false,
      "sequence": 4294967295
    }
  ],
  "vout": [
    {
      "scriptpubkey": "512043c6dfa26407c94b5665566c5077cd2392a04364138c5ed62147b70096ff64d0",
      "scriptpubkey_asm": "OP_PUSHNUM_1 OP_PUSHBYTES_32 43c6dfa26407c94b5665566c5077cd2392a04364138c5ed62147b70096ff64d0",
      "scriptpubkey_type": "v1_p2tr",
      "scriptpubkey_address": "bc1pg0rdlgnyqly5k4n92ek9qa7dywf2qsmyzwx9a43pg7msp9hlvngqv8dfyh",
      "value": 289971
    },
    {
      "scriptpubkey": "512003ddca309f0689316849d583b740eb79bd0c12eae5bb6f36c85ffd179c305150",
      "scriptpubkey_asm": "OP_PUSHNUM_1 OP_PUSHBYTES_32 03ddca309f0689316849d583b740eb79bd0c12eae5bb6f36c85ffd179c305150",
      "scriptpubkey_type": "v1_p2tr",
      "scriptpubkey_address": "bc1pq0wu5vylq6ynz6zf6kpmws8t0x7scyh2ukak7dkgtl7308ps29gqhddvs7",
      "value": 16378
    },
    {
      "scriptpubkey": "512003ddca309f0689316849d583b740eb79bd0c12eae5bb6f36c85ffd179c305150",
      "scriptpubkey_asm": "OP_PUSHNUM_1 OP_PUSHBYTES_32 03ddca309f0689316849d583b740eb79bd0c12eae5bb6f36c85ffd179c305150",
      "scriptpubkey_type": "v1_p2tr",
      "scriptpubkey_address": "bc1pq0wu5vylq6ynz6zf6kpmws8t0x7scyh2ukak7dkgtl7308ps29gqhddvs7",
      "value": 16378
    },
    {
      "scriptpubkey": "512003ddca309f0689316849d583b740eb79bd0c12eae5bb6f36c85ffd179c305150",
      "scriptpubkey_asm": "OP_PUSHNUM_1 OP_PUSHBYTES_32 03ddca309f0689316849d583b740eb79bd0c12eae5bb6f36c85ffd179c305150",
      "scriptpubkey_type": "v1_p2tr",
      "scriptpubkey_address": "bc1pq0wu5vylq6ynz6zf6kpmws8t0x7scyh2ukak7dkgtl7308ps29gqhddvs7",
      "value": 16378
    },
    {
      "scriptpubkey": "512003ddca309f0689316849d583b740eb79bd0c12eae5bb6f36c85ffd179c305150",
      "scriptpubkey_asm": "OP_PUSHNUM_1 OP_PUSHBYTES_32 03ddca309f0689316849d583b740eb79bd0c12eae5bb6f36c85ffd179c305150",
      "scriptpubkey_type": "v1_p2tr",
      "scriptpubkey_address": "bc1pq0wu5vylq6ynz6zf6kpmws8t0x7scyh2ukak7dkgtl7308ps29gqhddvs7",
      "value": 16378
    },
    {
      "scriptpubkey": "512003ddca309f0689316849d583b740eb79bd0c12eae5bb6f36c85ffd179c305150",
      "scriptpubkey_asm": "OP_PUSHNUM_1 OP_PUSHBYTES_32 03ddca309f0689316849d583b740eb79bd0c12eae5bb6f36c85ffd179c305150",
      "scriptpubkey_type": "v1_p2tr",
      "scriptpubkey_address": "bc1pq0wu5vylq6ynz6zf6kpmws8t0x7scyh2ukak7dkgtl7308ps29gqhddvs7",
      "value": 16378
    },
    {
      "scriptpubkey": "512003ddca309f0689316849d583b740eb79bd0c12eae5bb6f36c85ffd179c305150",
      "scriptpubkey_asm": "OP_PUSHNUM_1 OP_PUSHBYTES_32 03ddca309f0689316849d583b740eb79bd0c12eae5bb6f36c85ffd179c305150",
      "scriptpubkey_type": "v1_p2tr",
      "scriptpubkey_address": "bc1pq0wu5vylq6ynz6zf6kpmws8t0x7scyh2ukak7dkgtl7308ps29gqhddvs7",
      "value": 16378
    },
    {
      "scriptpubkey": "512003ddca309f0689316849d583b740eb79bd0c12eae5bb6f36c85ffd179c305150",
      "scriptpubkey_asm": "OP_PUSHNUM_1 OP_PUSHBYTES_32 03ddca309f0689316849d583b740eb79bd0c12eae5bb6f36c85ffd179c305150",
      "scriptpubkey_type": "v1_p2tr",
      "scriptpubkey_address": "bc1pq0wu5vylq6ynz6zf6kpmws8t0x7scyh2ukak7dkgtl7308ps29gqhddvs7",
      "value": 16378
    },
    {
      "scriptpubkey": "512003ddca309f0689316849d583b740eb79bd0c12eae5bb6f36c85ffd179c305150",
      "scriptpubkey_asm": "OP_PUSHNUM_1 OP_PUSHBYTES_32 03ddca309f0689316849d583b740eb79bd0c12eae5bb6f36c85ffd179c305150",
      "scriptpubkey_type": "v1_p2tr",
      "scriptpubkey_address": "bc1pq0wu5vylq6ynz6zf6kpmws8t0x7scyh2ukak7dkgtl7308ps29gqhddvs7",
      "value": 16378
    },
    {
      "scriptpubkey": "512003ddca309f0689316849d583b740eb79bd0c12eae5bb6f36c85ffd179c305150",
      "scriptpubkey_asm": "OP_PUSHNUM_1 OP_PUSHBYTES_32 03ddca309f0689316849d583b740eb79bd0c12eae5bb6f36c85ffd179c305150",
      "scriptpubkey_type": "v1_p2tr",
      "scriptpubkey_address": "bc1pq0wu5vylq6ynz6zf6kpmws8t0x7scyh2ukak7dkgtl7308ps29gqhddvs7",
      "value": 16378
    },
    {
      "scriptpubkey": "512003ddca309f0689316849d583b740eb79bd0c12eae5bb6f36c85ffd179c305150",
      "scriptpubkey_asm": "OP_PUSHNUM_1 OP_PUSHBYTES_32 03ddca309f0689316849d583b740eb79bd0c12eae5bb6f36c85ffd179c305150",
      "scriptpubkey_type": "v1_p2tr",
      "scriptpubkey_address": "bc1pq0wu5vylq6ynz6zf6kpmws8t0x7scyh2ukak7dkgtl7308ps29gqhddvs7",
      "value": 16378
    },
    {
      "scriptpubkey": "512003ddca309f0689316849d583b740eb79bd0c12eae5bb6f36c85ffd179c305150",
      "scriptpubkey_asm": "OP_PUSHNUM_1 OP_PUSHBYTES_32 03ddca309f0689316849d583b740eb79bd0c12eae5bb6f36c85ffd179c305150",
      "scriptpubkey_type": "v1_p2tr",
      "scriptpubkey_address": "bc1pq0wu5vylq6ynz6zf6kpmws8t0x7scyh2ukak7dkgtl7308ps29gqhddvs7",
      "value": 16378
    },
    {
      "scriptpubkey": "512003ddca309f0689316849d583b740eb79bd0c12eae5bb6f36c85ffd179c305150",
      "scriptpubkey_asm": "OP_PUSHNUM_1 OP_PUSHBYTES_32 03ddca309f0689316849d583b740eb79bd0c12eae5bb6f36c85ffd179c305150",
      "scriptpubkey_type": "v1_p2tr",
      "scriptpubkey_address": "bc1pq0wu5vylq6ynz6zf6kpmws8t0x7scyh2ukak7dkgtl7308ps29gqhddvs7",
      "value": 16378
    },
    {
      "scriptpubkey": "51205a263ceb749a9db19b79bdaab5c1862ca038177143914ee1a994d2591cdf79a7",
      "scriptpubkey_asm": "OP_PUSHNUM_1 OP_PUSHBYTES_32 5a263ceb749a9db19b79bdaab5c1862ca038177143914ee1a994d2591cdf79a7",
      "scriptpubkey_type": "v1_p2tr",
      "scriptpubkey_address": "bc1ptgnre6m5n2wmrxmehk4ttsvx9jsrs9m3gwg5acdfjnf9j8xl0xnsmagkgl",
      "value": 16398
    },
    {
      "scriptpubkey": "512003ddca309f0689316849d583b740eb79bd0c12eae5bb6f36c85ffd179c305150",
      "scriptpubkey_asm": "OP_PUSHNUM_1 OP_PUSHBYTES_32 03ddca309f0689316849d583b740eb79bd0c12eae5bb6f36c85ffd179c305150",
      "scriptpubkey_type": "v1_p2tr",
      "scriptpubkey_address": "bc1pq0wu5vylq6ynz6zf6kpmws8t0x7scyh2ukak7dkgtl7308ps29gqhddvs7",
      "value": 16378
    },
    {
      "scriptpubkey": "512003ddca309f0689316849d583b740eb79bd0c12eae5bb6f36c85ffd179c305150",
      "scriptpubkey_asm": "OP_PUSHNUM_1 OP_PUSHBYTES_32 03ddca309f0689316849d583b740eb79bd0c12eae5bb6f36c85ffd179c305150",
      "scriptpubkey_type": "v1_p2tr",
      "scriptpubkey_address": "bc1pq0wu5vylq6ynz6zf6kpmws8t0x7scyh2ukak7dkgtl7308ps29gqhddvs7",
      "value": 16378
    },
    {
      "scriptpubkey": "512003ddca309f0689316849d583b740eb79bd0c12eae5bb6f36c85ffd179c305150",
      "scriptpubkey_asm": "OP_PUSHNUM_1 OP_PUSHBYTES_32 03ddca309f0689316849d583b740eb79bd0c12eae5bb6f36c85ffd179c305150",
      "scriptpubkey_type": "v1_p2tr",
      "scriptpubkey_address": "bc1pq0wu5vylq6ynz6zf6kpmws8t0x7scyh2ukak7dkgtl7308ps29gqhddvs7",
      "value": 16378
    },
    {
      "scriptpubkey": "512003ddca309f0689316849d583b740eb79bd0c12eae5bb6f36c85ffd179c305150",
      "scriptpubkey_asm": "OP_PUSHNUM_1 OP_PUSHBYTES_32 03ddca309f0689316849d583b740eb79bd0c12eae5bb6f36c85ffd179c305150",
      "scriptpubkey_type": "v1_p2tr",
      "scriptpubkey_address": "bc1pq0wu5vylq6ynz6zf6kpmws8t0x7scyh2ukak7dkgtl7308ps29gqhddvs7",
      "value": 16378
    },
    {
      "scriptpubkey": "512003ddca309f0689316849d583b740eb79bd0c12eae5bb6f36c85ffd179c305150",
      "scriptpubkey_asm": "OP_PUSHNUM_1 OP_PUSHBYTES_32 03ddca309f0689316849d583b740eb79bd0c12eae5bb6f36c85ffd179c305150",
      "scriptpubkey_type": "v1_p2tr",
      "scriptpubkey_address": "bc1pq0wu5vylq6ynz6zf6kpmws8t0x7scyh2ukak7dkgtl7308ps29gqhddvs7",
      "value": 16378
    },
    {
      "scriptpubkey": "512003ddca309f0689316849d583b740eb79bd0c12eae5bb6f36c85ffd179c305150",
      "scriptpubkey_asm": "OP_PUSHNUM_1 OP_PUSHBYTES_32 03ddca309f0689316849d583b740eb79bd0c12eae5bb6f36c85ffd179c305150",
      "scriptpubkey_type": "v1_p2tr",
      "scriptpubkey_address": "bc1pq0wu5vylq6ynz6zf6kpmws8t0x7scyh2ukak7dkgtl7308ps29gqhddvs7",
      "value": 16378
    },
    {
      "scriptpubkey": "512003ddca309f0689316849d583b740eb79bd0c12eae5bb6f36c85ffd179c305150",
      "scriptpubkey_asm": "OP_PUSHNUM_1 OP_PUSHBYTES_32 03ddca309f0689316849d583b740eb79bd0c12eae5bb6f36c85ffd179c305150",
      "scriptpubkey_type": "v1_p2tr",
      "scriptpubkey_address": "bc1pq0wu5vylq6ynz6zf6kpmws8t0x7scyh2ukak7dkgtl7308ps29gqhddvs7",
      "value": 16378
    },
    {
      "scriptpubkey": "512003ddca309f0689316849d583b740eb79bd0c12eae5bb6f36c85ffd179c305150",
      "scriptpubkey_asm": "OP_PUSHNUM_1 OP_PUSHBYTES_32 03ddca309f0689316849d583b740eb79bd0c12eae5bb6f36c85ffd179c305150",
      "scriptpubkey_type": "v1_p2tr",
      "scriptpubkey_address": "bc1pq0wu5vylq6ynz6zf6kpmws8t0x7scyh2ukak7dkgtl7308ps29gqhddvs7",
      "value": 16378
    },
    {
      "scriptpubkey": "5120c324f6539571fc2c8103242d6c024f3dbac82b45e626255578737eaa0796bdf2",
      "scriptpubkey_asm": "OP_PUSHNUM_1 OP_PUSHBYTES_32 c324f6539571fc2c8103242d6c024f3dbac82b45e626255578737eaa0796bdf2",
      "scriptpubkey_type": "v1_p2tr",
      "scriptpubkey_address": "bc1pcvj0v5u4w87zeqgryskkcqj08kavs269ucnz24tcwdl25pukhheq0zaunk",
      "value": 16398
    },
    {
      "scriptpubkey": "512003ddca309f0689316849d583b740eb79bd0c12eae5bb6f36c85ffd179c305150",
      "scriptpubkey_asm": "OP_PUSHNUM_1 OP_PUSHBYTES_32 03ddca309f0689316849d583b740eb79bd0c12eae5bb6f36c85ffd179c305150",
      "scriptpubkey_type": "v1_p2tr",
      "scriptpubkey_address": "bc1pq0wu5vylq6ynz6zf6kpmws8t0x7scyh2ukak7dkgtl7308ps29gqhddvs7",
      "value": 16378
    },
    {
      "scriptpubkey": "5120c9778f0f7116a0fa90e759ca54b375f5c38d7db5875a2860af8354d65a8671e2",
      "scriptpubkey_asm": "OP_PUSHNUM_1 OP_PUSHBYTES_32 c9778f0f7116a0fa90e759ca54b375f5c38d7db5875a2860af8354d65a8671e2",
      "scriptpubkey_type": "v1_p2tr",
      "scriptpubkey_address": "bc1pe9mc7rm3z6s04y88t899fvm47hpc6ld4sadzsc90sd2dvk5xw83qeh2mmm",
      "value": 16398
    },
    {
      "scriptpubkey": "512003ddca309f0689316849d583b740eb79bd0c12eae5bb6f36c85ffd179c305150",
      "scriptpubkey_asm": "OP_PUSHNUM_1 OP_PUSHBYTES_32 03ddca309f0689316849d583b740eb79bd0c12eae5bb6f36c85ffd179c305150",
      "scriptpubkey_type": "v1_p2tr",
      "scriptpubkey_address": "bc1pq0wu5vylq6ynz6zf6kpmws8t0x7scyh2ukak7dkgtl7308ps29gqhddvs7",
      "value": 16378
    },
    {
      "scriptpubkey": "5120c324f6539571fc2c8103242d6c024f3dbac82b45e626255578737eaa0796bdf2",
      "scriptpubkey_asm": "OP_PUSHNUM_1 OP_PUSHBYTES_32 c324f6539571fc2c8103242d6c024f3dbac82b45e626255578737eaa0796bdf2",
      "scriptpubkey_type": "v1_p2tr",
      "scriptpubkey_address": "bc1pcvj0v5u4w87zeqgryskkcqj08kavs269ucnz24tcwdl25pukhheq0zaunk",
      "value": 32797
    },
    {
      "scriptpubkey": "512003ddca309f0689316849d583b740eb79bd0c12eae5bb6f36c85ffd179c305150",
      "scriptpubkey_asm": "OP_PUSHNUM_1 OP_PUSHBYTES_32 03ddca309f0689316849d583b740eb79bd0c12eae5bb6f36c85ffd179c305150",
      "scriptpubkey_type": "v1_p2tr",
      "scriptpubkey_address": "bc1pq0wu5vylq6ynz6zf6kpmws8t0x7scyh2ukak7dkgtl7308ps29gqhddvs7",
      "value": 16378
    },
    {
      "scriptpubkey": "512003ddca309f0689316849d583b740eb79bd0c12eae5bb6f36c85ffd179c305150",
      "scriptpubkey_asm": "OP_PUSHNUM_1 OP_PUSHBYTES_32 03ddca309f0689316849d583b740eb79bd0c12eae5bb6f36c85ffd179c305150",
      "scriptpubkey_type": "v1_p2tr",
      "scriptpubkey_address": "bc1pq0wu5vylq6ynz6zf6kpmws8t0x7scyh2ukak7dkgtl7308ps29gqhddvs7",
      "value": 16378
    },
    {
      "scriptpubkey": "51203e17e491f3485bc897ab3775830f9e5a055f05db456f50991d4f7fb989216bf4",
      "scriptpubkey_asm": "OP_PUSHNUM_1 OP_PUSHBYTES_32 3e17e491f3485bc897ab3775830f9e5a055f05db456f50991d4f7fb989216bf4",
      "scriptpubkey_type": "v1_p2tr",
      "scriptpubkey_address": "bc1p8ct7fy0nfpdu39atxa6cxru7tgz47pwmg4h4pxgafalmnzfpd06qxpkgah",
      "value": 28000
    },
    {
      "scriptpubkey": "512043c6dfa26407c94b5665566c5077cd2392a04364138c5ed62147b70096ff64d0",
      "scriptpubkey_asm": "OP_PUSHNUM_1 OP_PUSHBYTES_32 43c6dfa26407c94b5665566c5077cd2392a04364138c5ed62147b70096ff64d0",
      "scriptpubkey_type": "v1_p2tr",
      "scriptpubkey_address": "bc1pg0rdlgnyqly5k4n92ek9qa7dywf2qsmyzwx9a43pg7msp9hlvngqv8dfyh",
      "value": 12723
    }
  ],
  "size": 4477,
  "weight": 12073,
  "fee": 43122,
  "status": {
    "confirmed": true,
    "block_height": 834552,
    "block_hash": "00000000000000000001dd0468a70c94f619251d286585cff57aeb4bd9ede330",
    "block_time": 1710355598
  },
  "hex": "0200000000011d4b9ff16d7e142b77ee9710a48ddc433c465c6fca04d6945f49fcb8e315f3c2201600000000ffffffffee809e1a206ce4c35c912f837b57b9529ae89a1d22a20d982b335a027aa27ab80000000000ffffffffc9325c19bc6bc2ee3147caba390857c6a16c73f9cc44acde5d37ce762a2fe2e40000000000ffffffffddfd3640ea09ece313db20fd707a060dece8a3bf8ab81e205f0a251874826ab90000000000ffffffffb23d8297f0e641d45ff7ba51a04777703b891d283c359529664a241bcbfcde000000000000ffffffffb8e5bf0c512ab37ef4163bffbb1f2705c7d82510da4b7c7b1df8fa0107b47a850000000000fffffffffa929e1332a613e213cc50c40a07cf00a7f1aa4d897c5c9b7329a7dbfb1ab5110000000000ffffffffa99208a7b6c675272bd3c36b2faf3103d618b1918c8f4d15bc222ee9fbac6b420000000000ffffffffe8c1cbecb051e69c2fdae52d7fe13823b70d4e8a51e19aeb0a2073beb07aa8310000000000ffffffffbbcf0ab9152484a2200b0ab96b8fbc3dcfe0b25219c40b0e80be3ae64d28a7dc0000000000ffffffffd01c7220d6c548b412a04af5161e9a197c456bd8ea372f8f48b611dc4e495d280000000000ffffffffb158cf1f2cea02bf6cdfeab7c05fa4e3572f02f0a5227fbe574f6c7b2fb6ed570000000000ffffffffbaa161fb19951a5bca57110ec6f0560623534a51bead5b86db5c7b421849d7fa0000000000ffffffff132445b06873476892d52a311e6750669304a402d18be22f000f3d640d3735630000000000ffffffffc949b288c13fce97ebfe73c6b020127f17e73afb05ce8c03b065aa92416900950000000000fffffffff04070cef43b18e9acc69c77f75ee94aca3bc35f60d08742042b846cb1059e860000000000ffffffffb4e9003dfa1c57e78dd4744a5433c85694ee35dd345f1032516ed801a97dc88d0000000000ffffffffee56cd2f22e69c83a0728c4b3168c52100e70a4ad987cd31737d0b9a3d5d0d200000000000ffffffffbc149e03d4bd9ef7ba570398e7b4c58917cec4a6104bc407c5a2625159bd41460000000000fffffffffb65f277b62a3a65cb4a330ed1929d7d737cefc16da5b7d6abf77ffa59ec2ca80000000000ffffffffc3ed8419e890a2ca51e7643e59d35888a2a8aeeda8d56871ad5bcefba89b76a90000000000ffffffffc6f5ae6e12b755b2cce118b30c43c86ecfcdb264a4af1af52df706dfdcd397290000000000ffffffffbf242d2abbf09f3ecca1807b36faa948679ebf6cb9facec03982f9895de971170000000000ffffffffbd6787a1cdc1e0d3e5b366f385dd322f6fab5432aed6106e51fcce65be5c593b0000000000ffffffff51e22dab4afa5e4e1962b89f0fdd1a86896469f0ce828d209404409db7d492f60000000000ffffffffde4b0d88224dfb4a9db562dd7746906db1d8c82244f03d5ab3f8c573f0bffcc60000000000ffffffff2243c8801585c8d81b9a4d1514fbd7726d55dc07c04c2a4fc1ad618201c089360000000000fffffffff3069b4ad4d150107297eb44f56195e1bc547d0e97641e0d46f841a1ff56d6a00000000000ffffffffb1d7ffe3c91bef6fab177f6dd0baa0f0c5c079e024c85cf4a95c14aea073b0b50000000000ffffffff1fb36c04000000000022512043c6dfa26407c94b5665566c5077cd2392a04364138c5ed62147b70096ff64d0fa3f00000000000022512003ddca309f0689316849d583b740eb79bd0c12eae5bb6f36c85ffd179c305150fa3f00000000000022512003ddca309f0689316849d583b740eb79bd0c12eae5bb6f36c85ffd179c305150fa3f00000000000022512003ddca309f0689316849d583b740eb79bd0c12eae5bb6f36c85ffd179c305150fa3f00000000000022512003ddca309f0689316849d583b740eb79bd0c12eae5bb6f36c85ffd179c305150fa3f00000000000022512003ddca309f0689316849d583b740eb79bd0c12eae5bb6f36c85ffd179c305150fa3f00000000000022512003ddca309f0689316849d583b740eb79bd0c12eae5bb6f36c85ffd179c305150fa3f00000000000022512003ddca309f0689316849d583b740eb79bd0c12eae5bb6f36c85ffd179c305150fa3f00000000000022512003ddca309f0689316849d583b740eb79bd0c12eae5bb6f36c85ffd179c305150fa3f00000000000022512003ddca309f0689316849d583b740eb79bd0c12eae5bb6f36c85ffd179c305150fa3f00000000000022512003ddca309f0689316849d583b740eb79bd0c12eae5bb6f36c85ffd179c305150fa3f00000000000022512003ddca309f0689316849d583b740eb79bd0c12eae5bb6f36c85ffd179c305150fa3f00000000000022512003ddca309f0689316849d583b740eb79bd0c12eae5bb6f36c85ffd179c3051500e400000000000002251205a263ceb749a9db19b79bdaab5c1862ca038177143914ee1a994d2591cdf79a7fa3f00000000000022512003ddca309f0689316849d583b740eb79bd0c12eae5bb6f36c85ffd179c305150fa3f00000000000022512003ddca309f0689316849d583b740eb79bd0c12eae5bb6f36c85ffd179c305150fa3f00000000000022512003ddca309f0689316849d583b740eb79bd0c12eae5bb6f36c85ffd179c305150fa3f00000000000022512003ddca309f0689316849d583b740eb79bd0c12eae5bb6f36c85ffd179c305150fa3f00000000000022512003ddca309f0689316849d583b740eb79bd0c12eae5bb6f36c85ffd179c305150fa3f00000000000022512003ddca309f0689316849d583b740eb79bd0c12eae5bb6f36c85ffd179c305150fa3f00000000000022512003ddca309f0689316849d583b740eb79bd0c12eae5bb6f36c85ffd179c305150fa3f00000000000022512003ddca309f0689316849d583b740eb79bd0c12eae5bb6f36c85ffd179c3051500e40000000000000225120c324f6539571fc2c8103242d6c024f3dbac82b45e626255578737eaa0796bdf2fa3f00000000000022512003ddca309f0689316849d583b740eb79bd0c12eae5bb6f36c85ffd179c3051500e40000000000000225120c9778f0f7116a0fa90e759ca54b375f5c38d7db5875a2860af8354d65a8671e2fa3f00000000000022512003ddca309f0689316849d583b740eb79bd0c12eae5bb6f36c85ffd179c3051501d80000000000000225120c324f6539571fc2c8103242d6c024f3dbac82b45e626255578737eaa0796bdf2fa3f00000000000022512003ddca309f0689316849d583b740eb79bd0c12eae5bb6f36c85ffd179c305150fa3f00000000000022512003ddca309f0689316849d583b740eb79bd0c12eae5bb6f36c85ffd179c305150606d0000000000002251203e17e491f3485bc897ab3775830f9e5a055f05db456f50991d4f7fb989216bf4b33100000000000022512043c6dfa26407c94b5665566c5077cd2392a04364138c5ed62147b70096ff64d00141f0ac85bfe50f386ab9289e66d40dcf789e1521212a5ce6495627a97058acc0a4b048e47f497cebf1d44a66cf9abfcf6882cdb59f5aa27477eb3623ea74d194ea010141a910df796bc935466321c54842dd58f042d7aea0b82796eb86ff00108cccb0d7809e896706c06235aa39468976ecac644661b4f096af0bf8a100739dc2195a08830141808fec207cd24502bee708db9540028c4cce2e20d5339bec1ccebaf59dd2788aacddc3de2714fd4894c35ca1b952c9e3785f6307ad07b0cbca44e04811fe34fb8301414e1b922e505a6ec32f30e6b7b12e75d716a417e68374cc12082f3c18d3db3ef66878ceada3e07265f3ae29fd3c88dfd552cffdbb4ca5b8339a77aded2641ec45830141a8de8e17b9c4c71eddc5ae4bd18ca20931131f1a878ee11860ecbe62279783abf58c8df6358a739a0a94614d0542fa70f72069ca37fac6e48e6dac38c56a8a858301414d3ca8d6f25030f5535226ecf8d043593d11997450959c7ad70ed87bd453eb1bda67c7ba6c67d0e3e3bb27345b70fea41788797d5e2f1029805167f7186037098301416619e592146db31c5af4f3275f83afc22c66bea17e5f18d99cb5ee3a9a6f4dcc85023b93f2e0685fe08ea0b9d35142185575d5c98789d3cbc922d93594be4f768301411ce8efee8fd46d46297d591204050da3ff402542e16ee6cf9751fb8a039f16c6a4b90ce3e2395087f98f262c934e5c4e8b5675b5ef3ca7257b55e5cd99c6900883014180594781b88dd47fc06f452ced426d21198e2ea26c3a115b572b84ad212ed5d7b53a0806b635475452646aa830a600a4eac3f831145d8a271c62b062c855461b830141c1ee2e73b23891175b1776fbe25cad1846809b99eb005299c68356d2bfc98a7a9b1ee8ecdf18f686fffadf605802c88af3fc878da733b61c899de8d109c22095830141e361e2ae9cd23aef673235f55bb3585421878cee238012eb75918f02b704071b60bd8609ff0b4a42bcb26b5293dc55a4e1f744005535312a540d08bf48b9e173830141e964ea5859054bfca8a53def885a71ea59fa3e7375a265054c44be89a788820611d2d01c5c7cf31d1889bf79ab0b88a8997affbf8435896ccb62396c304a58af83014196ee07ba8ec6b5f31f7ab0c982fe3ab49f660922991ecfc460cc576285ebb810d15a9532bdda720e199ad388e40f70f1a1d97a8b451bd512f50abc835bb8696a83014185212bba381250141a810dd203472afaae3c44de4dcfecac7e173851dab5a38a0bb00583cd6ea3d3d648c42bccc39e0e70211cd0ecc073aa84523d94ac8da78b830141881bda58f2a853743bb5524a10b494f92b218f82294d69c208ce067c96ecc2a795075afda82ec4de475f5c205ab9fb584d3325b1334f7ff0de139236892c90f1830141779499425c4b193c630ec415f00a19e1f2aea22317a32a02c3e5e191aea76f39e12663039382a89aa63f6415943554d8b4ccbaeaffdbdc816207cbfd0b82a8208301416a3998278a90798405711c8c3caf947497ce0478970d68510224df52f6e264dcd7f4f8fadce199e768145e05764ed9faacdb9844d87a207d6dc57c0e3ab1d35e830141dfb49e678ab47de040f46896a671554a962f09119a438acc6ffac9b6cf0528ef32356d1ce79ce929240836f15d5d0eff8dc4948b627b66a056a2e4cc19bd5b778301417105d58277ff1627ca1718e53964664462b2ead8acfcb076f1bba7f5dade2a5a87bbfa77709ab87b5cb71348ccaa197e7ac62ca45b98356cfc6f1dfde6e223ae830141137bbd098ea67abdad9abb4f24ef9f0f8ad38a022b9fc1e523dc7f7ab44f106633a1935be1258d294dba6aa59340277fe83e0b0e382af69498fcac8bc09ffb25830141e4e77e96b61b8d57e6c2675f7a6ae0ff0fa970cc49a71b9d1c6cb3cbecbfa23c04c8eb84554a0c1c5e0f3624ddd57c2313ca96f05fa0ce0d179eeb4976157dc5830141859220c4428edd38ab8e6cf431def2ca66fb0c28e40a43721167766033f641b96fc208c78baf46b9880a9ab44868dfa2e595854cfbb0691ab3982ed2d1d3d7ae830141949bd27bc8988ac7fe6cf76aa9903ba74e2a64bfc13e36387daba5d45b368ff918df7204ffeb6ec23eba5b9ea170404537a6bc78ac46420192269da230c78f1b8301419b6ed41d544438577111a677e3a105f10261a32ab243dc7a3c54703cb5eeea3d083af522394d365b63cf766261afefca71ded903fb227e2cf1e3891788231c138301418a4933af60c2d9e08d72ab6f49a2660b97a45bd730962b1539e548fb345a6c91a01eee8e58391feb7b1c619f76159f9b6d56b5a75b71b8d0585222266e46108c830141eb0996425622d3a7b99d06b02d8ea83b6907d47e9cf41cf34526e516636f559075bb86f6c56872e646794866f9141cb5d03125fe0a3fbe6b9c50aff22b065540830141175e8df1c49517467e488db9c7a9f248b1691b9d0c2eabf29578762e2f0501b82409a791c32b1b23bedeb61b1dee74366334a23edea75299dbccb2ad2542ad238301411d22e94fbe0f94ace6004a3aa2d5fdd7d7abed45385bc57a930fa3b42e38613ec146d84e8f865a0575d99d453fca8a76c708274f9f93499d81f45d180a71cae683014196da6731d597f440ee00a461dd9ad34dec5a986c56c2c0e4e564dcc41ffbc05a25cdcf9027907bd418350e8c458d53e45f3c3fd414099c753357610dae5b00408300000000"
}