{
  "txid": "d5008f629a92dda8de8d4f6d259115c86c4569ac8f147d66f1412b49fc800357",
  "version": 1,
  "locktime": 0,
  "vin": [
    {
      "txid": "61316f27362205c3e0809c513de343008d33b3ed58b77a0cb44f45d20ffa1f66",
      "vout": 377,
      "prevout": {
        "scriptpubkey": "0014e29c32bd8afd717ae99ab68f98337b8911ede563",
        "scriptpubkey_asm": "OP_0 OP_PUSHBYTES_20 e29c32bd8afd717ae99ab68f98337b8911ede563",
        "scriptpubkey_type": "v0_p2wpkh",
        "scriptpubkey_address": "bc1qu2wr90v2l4ch46v6k68esvmm3yg7metr7cyrtq",
        "value": 149888
      },
      "scriptsig": "",
      "scriptsig_asm": "",
      "witness": [
        "3044022029feab3d3ac39185fd16cc1be8e06879c5660f2573e0e46b335685ec337282e502206c3a5a0cd456c96bb5c3c307be4eeacd08fe8ef870444bb718d4ab62df013cb001",
        "031d4d5301023ab6e623bf4e92295244605093e0ff2a23210695ca38afdf0aed23"
      ],
      "is_coinbase": false,
      "sequence": 4294967295
    },
    {
      "txid": "93859e7e0fd5bd00b33fda8788bce698d9386bbd8775d21bd156030cd3ba3134",
      "vout": 369,
      "prevout": {
        "scriptpubkey": "0014e29c32bd8afd717ae99ab68f98337b8911ede563",
        "scriptpubkey_asm": "OP_0 OP_PUSHBYTES_20 e29c32bd8afd717ae99ab68f98337b8911ede563",
        "scriptpubkey_type": "v0_p2wpkh",
        "scriptpubkey_address": "bc1qu2wr90v2l4ch46v6k68esvmm3yg7metr7cyrtq",
        "value": 154254
      },
      "scriptsig": "",
      "scriptsig_asm": "",
      "witness": [
        "3045022100f7eb5d3ceaabae1262ba960bf9b829d822876939cd8c889f2fdcdd39d2ad08fb022020b30d62cf08d8b2b7e6b6efb1954226fa1667b33bb15f704cc20fe048ecf0ac01",
        "031d4d5301023ab6e623bf4e92295244605093e0ff2a23210695ca38afdf0aed23"
      ],
      "is_coinbase": false,
      "sequence": 4294967295
    },
    {
      "txid": "02f75c7e608bc55d4f9952ee290615eb25816808c6377cc031f8db2ed139dee6",
      "vout": 243,
      "prevout": {
        "scriptpubkey": "0014e29c32bd8afd717ae99ab68f98337b8911ede563",
        "scriptpubkey_asm": "OP_0 OP_PUSHBYTES_20 e29c32bd8afd717ae99ab68f98337b8911ede563",
        "scriptpubkey_type": "v0_p2wpkh",
        "scriptpubkey_address": "bc1qu2wr90v2l4ch46v6k68esvmm3yg7metr7cyrtq",
        "value": 151372
      },
      "scriptsig": "",
      "scriptsig_asm": "",
      "witness": [
        "30440220486577115969c9b61d73755402ff3f2aac274f299b091be8c4edfb9f307db632022010242ad8c1ba0ddb753e3712a7faec32617ece9704e51d742b59c0c6f4cd869401",
        "031d4d5301023ab6e623bf4e92295244605093e0ff2a23210695ca38afdf0aed23"
      ],
      "is_coinbase": false,
      "sequence": 4294967295
    },
    {
      "txid": "1fde7aca3c3b8c39a77e3b085097c081fe618703e1b9414ea3783f332bf7e386",
      "vout": 1158,
      "prevout": {
        "scriptpubkey": "0014e29c32bd8afd717ae99ab68f98337b8911ede563",
        "scriptpubkey_asm": "OP_0 OP_PUSHBYTES_20 e29c32bd8afd717ae99ab68f98337b8911ede563",
        "scriptpubkey_type": "v0_p2wpkh",
        "scriptpubkey_address": "bc1qu2wr90v2l4ch46v6k68esvmm3yg7metr7cyrtq",
        "value": 154087
      },
      "scriptsig": "",
      "scriptsig_asm": "",
      "witness": [
        "3044022013ec0dd0a99c5c8b81c01f92905f6ae7b87bc10aa728dc1ed6ce6176bca17a79022077ef57ededb9cf167952a68af9e22abb25512122a72815494e08a67d2c30d5f901",
        "031d4d5301023ab6e623bf4e92295244605093e0ff2a23210695ca38afdf0aed23"
      ],
      "is_coinbase": false,
      "sequence": 4294967295
    },
    {
      "txid": "dae07fd632c7eb231d0da33aa49fa007bc912adf423a19f23695a5444aeaf24f",
      "vout": 625,
      "prevout": {
        "scriptpubkey": "0014e29c32bd8afd717ae99ab68f98337b8911ede563",
        "scriptpubkey_asm": "OP_0 OP_PUSHBYTES_20 e29c32bd8afd717ae99ab68f98337b8911ede563",
        "scriptpubkey_type": "v0_p2wpkh",
        "scriptpubkey_address": "bc1qu2wr90v2l4ch46v6k68esvmm3yg7metr7cyrtq",
        "value": 129355
      },
      "scriptsig": "",
      "scriptsig_asm": "",
      "witness": [
        "3045022100a5d4245128c99a7868f4bf4a6a57f64893c60f06c2a29952f0aa9bc9ab8d20bb022010d87a43fa188a2779b9a85451d4a99fe99f22798ef8d5709c157dafba0cb38901",
        "031d4d5301023ab6e623bf4e92295244605093e0ff2a23210695ca38afdf0aed23"
      ],
      "is_coinbase": false,
      "sequence": 4294967295
    },
    {
      "txid": "7e445e52ad0b7eca1cf73546aeb345f344365974ccbb7ec0286a8d6342040f76",
      "vout": 415,
      "prevout": {
        "scriptpubkey": "0014e29c32bd8afd717ae99ab68f98337b8911ede563",
        "scriptpubkey_asm": "OP_0 OP_PUSHBYTES_20 e29c32bd8afd717ae99ab68f98337b8911ede563",
        "scriptpubkey_type": "v0_p2wpkh",
        "scriptpubkey_address": "bc1qu2wr90v2l4ch46v6k68esvmm3yg7metr7cyrtq",
        "value": 154585
      },
      "scriptsig": "",
      "scriptsig_asm": "",
      "witness": [
        "3045022100a331cddfa1801a38be4af2b41d1c2a2dea7b2297507ca43bccce4fff53ad632102201f351bef2275d06779783b633fc5ed286a86c13708f80c26ef00aff371ceca1c01",
        "031d4d5301023ab6e623bf4e92295244605093e0ff2a23210695ca38afdf0aed23"
      ],
      "is_coinbase": false,
      "sequence": 4294967295
    },
    {
      "txid": "a3d17808bd0074b36d9181e6d180ea553b189dfcbf6367ece000ef220fac0944",
      "vout": 144,
      "prevout": {
        "scriptpubkey": "0014e29c32bd8afd717ae99ab68f98337b8911ede563",
        "scriptpubkey_asm": "OP_0 OP_PUSHBYTES_20 e29c32bd8afd717ae99ab68f98337b8911ede563",
        "scriptpubkey_type": "v0_p2wpkh",
        "scriptpubkey_address": "bc1qu2wr90v2l4ch46v6k68esvmm3yg7metr7cyrtq",
        "value": 148394
      },
      "scriptsig": "",
      "scriptsig_asm": "",
      "witness": [
        "30450221009043bf959f811b224e5ecffda37a61d5ce9b055c89d10727f668f4f7308b011502204a2ce80a06d55955ba6dbf834a2bcdffd66287cc1b34b00f1df46a0867f0cbfd01",
        "031d4d5301023ab6e623bf4e92295244605093e0ff2a23210695ca38afdf0aed23"
      ],
      "is_coinbase": false,
      "sequence": 4294967295
    },
    {
      "txid": "52dfa9f4916ef94d9cc506a72aa8de5479b5e275b1254719cd88b263750aa91a",
      "vout": 1017,
      "prevout": {
        "scriptpubkey": "0014e29c32bd8afd717ae99ab68f98337b8911ede563",
        "scriptpubkey_asm": "OP_0 OP_PUSHBYTES_20 e29c32bd8afd717ae99ab68f98337b8911ede563",
        "scriptpubkey_type": "v0_p2wpkh",
        "scriptpubkey_address": "bc1qu2wr90v2l4ch46v6k68esvmm3yg7metr7cyrtq",
        "value": 150050
      },
      "scriptsig": "",
      "scriptsig_asm": "",
      "witness": [
        "304402206489b41afc4f26a111c32b8d66770fde90a7db0ebff45853054e980af35d716e02202818a6e47ad987af44810bc34bd69a9c84073ca27618b072ce459e80b5b9723e01",
        "031d4d5301023ab6e623bf4e92295244605093e0ff2a23210695ca38afdf0aed23"
      ],
      "is_coinbase": false,
      "sequence": 4294967295
    },
    {
      "txid": "34560bedb97d2b7bec29770b52c222b6eeae6fea86c6c872b0de8488e016e1ea",
      "vout": 371,
      "prevout": {
        "scriptpubkey": "0014e29c32bd8afd717ae99ab68f98337b8911ede563",
        "scriptpubkey_asm": "OP_0 OP_PUSHBYTES_20 e29c32bd8afd717ae99ab68f98337b8911ede563",
        "scriptpubkey_type": "v0_p2wpkh",
        "scriptpubkey_address": "bc1qu2wr90v2l4ch46v6k68esvmm3yg7metr7cyrtq",
        "value": 152906
      },
      "scriptsig": "",
      "scriptsig_asm": "",
      "witness": [
        "304402201186005e4eb4aa205f58959761f8cdd82ed1a56907c2e916ea6946a6919b029a0220181b62cf0dbc4544585469e6e9bb3a19e15813c6f73998b6adc0b363a091739c01",
        "031d4d5301023ab6e623bf4e92295244605093e0ff2a23210695ca38afdf0aed23"
      ],
      "is_coinbase": false,
      "sequence": 4294967295
    },
    {
      "txid": "e9745c357e0843448b58a559ba4f432cdbb43de76856b3efd9332a197422a16a",
      "vout": 116,
      "prevout": {
        "scriptpubkey": "0014e29c32bd8afd717ae99ab68f98337b8911ede563",
        "scriptpubkey_asm": "OP_0 OP_PUSHBYTES_20 e29c32bd8afd717ae99ab68f98337b8911ede563",
        "scriptpubkey_type": "v0_p2wpkh",
        "scriptpubkey_address": "bc1qu2wr90v2l4ch46v6k68esvmm3yg7metr7cyrtq",
        "value": 148981
      },
      "scriptsig": "",
      "scriptsig_asm": "",
      "witness": [
        "304502210082d2787dcf65e07cf12a7cfcc65d7cfac6a4d44cf9ce428a24f39b1711bc389d022033e47a4275f2435280af5dca0e4d554b1ff056a3ef48c87c9352e64d949e3e7b01",
        "031d4d5301023ab6e623bf4e92295244605093e0ff2a23210695ca38afdf0aed23"
      ],
      "is_coinbase": false,
      "sequence": 4294967295
    },
    {
      "txid": "e62bd70361214d8f6748c08758766de3074217d3e8618fc68cdcea7f38eeca7e",
      "vout": 740,
      "prevout": {
        "scriptpubkey": "0014e29c32bd8afd717ae99ab68f98337b8911ede563",
        "scriptpubkey_asm": "OP_0 OP_PUSHBYTES_20 e29c32bd8afd717ae99ab68f98337b8911ede563",
        "scriptpubkey_type": "v0_p2wpkh",
        "scriptpubkey_address": "bc1qu2wr90v2l4ch46v6k68esvmm3yg7metr7cyrtq",
        "value": 155253
      },
      "scriptsig": "",
      "scriptsig_asm": "",
      "witness": [
        "3045022100f08c4676b139ef2744aadea0188f2edadf6adc09db803d97791fcbbad3ba0f5f02206f2f2211c401975f351bf377fcd34eb1795413f15744136f47f3e1e5a35dc2c801",
        "031d4d5301023ab6e623bf4e92295244605093e0ff2a23210695ca38afdf0aed23"
      ],
      "is_coinbase": false,
      "sequence": 4294967295
    },
    {
      "txid": "2bad7833e3de0d104a546aec5e7a442fd5071b8f6dfe6c14a734516af9821426",
      "vout": 171,
      "prevout": {
        "scriptpubkey": "0014e29c32bd8afd717ae99ab68f98337b8911ede563",
        "scriptpubkey_asm": "OP_0 OP_PUSHBYTES_20 e29c32bd8afd717ae99ab68f98337b8911ede563",
        "scriptpubkey_type": "v0_p2wpkh",
        "scriptpubkey_address": "bc1qu2wr90v2l4ch46v6k68esvmm3yg7metr7cyrtq",
        "value": 155510
      },
      "scriptsig": "",
      "scriptsig_asm": "",
      "witness": [
        "30440220089d61e9a36450e839ddb9fb0fe101bae5f255702f11756ff44c94174f02a1ac02201cabef10fe81344b8dc8e4b72fea7ddafb504b0aaa8de10a698e6d039fe29e4001",
        "031d4d5301023ab6e623bf4e92295244605093e0ff2a23210695ca38afdf0aed23"
      ],
      "is_coinbase": false,
      "sequence": 4294967295
    },
    {
      "txid": "71d291d96f61ec65d1f28f65e42f19ed8c3a9379daf9fd6926a7caa2ccaf6ba3",
      "vout": 1024,
      "prevout": {
        "scriptpubkey": "0014e29c32bd8afd717ae99ab68f98337b8911ede563",
        "scriptpubkey_asm": "OP_0 OP_PUSHBYTES_20 e29c32bd8afd717ae99ab68f98337b8911ede563",
        "scriptpubkey_type": "v0_p2wpkh",
        "scriptpubkey_address": "bc1qu2wr90v2l4ch46v6k68esvmm3yg7metr7cyrtq",
        "value": 150808
      },
      "scriptsig": "",
      "scriptsig_asm": "",
      "witness": [
        "3045022100d7fa67bc1bfe604d5d3b64a2105338f9ee7dd37fc01dc4b19cffc446de7b69ca022016f18c2fea00f9185b6e478ffb692ac666c33481a58d22da2cb83a85a0951c7501",
        "031d4d5301023ab6e623bf4e92295244605093e0ff2a23210695ca38afdf0aed23"
      ],
      "is_coinbase": false,
      "sequence": 4294967295
    },
    {
      "txid": "8a6c07830888ce4f7796e1af4c91bbbd9ac2d61d5ca0bad85fc6876c3101242a",
      "vout": 200,
      "prevout": {
        "scriptpubkey": "0014e29c32bd8afd717ae99ab68f98337b8911ede563",
        "scriptpubkey_asm": "OP_0 OP_PUSHBYTES_20 e29c32bd8afd717ae99ab68f98337b8911ede563",
        "scriptpubkey_type": "v0_p2wpkh",
        "scriptpubkey_address": "bc1qu2wr90v2l4ch46v6k68esvmm3yg7metr7cyrtq",
        "value": 130070
      },
      "scriptsig": "",
      "scriptsig_asm": "",
      "witness": [
        "3044022058410ce50b0a6f769ec8d6498b1e7736829c72190dae41908cbb4c81a0067adc0220741db2dc7d06f0a258b27ce08d48ae5dc11cfc42cff33c42db3dcb0555bdd7fe01",
        "031d4d5301023ab6e623bf4e92295244605093e0ff2a23210695ca38afdf0aed23"
      ],
      "is_coinbase": false,
      "sequence": 4294967295
    },
    {
      "txid": "8cc329b1d5d8bbdcb1571d64aa2a21ec8a47bf1c55c1b2a59aa4a2c8a65d60e6",
      "vout": 157,
      "prevout": {
        "scriptpubkey": "0014e29c32bd8afd717ae99ab68f98337b8911ede563",
        "scriptpubkey_asm": "OP_0 OP_PUSHBYTES_20 e29c32bd8afd717ae99ab68f98337b8911ede563",
        "scriptpubkey_type": "v0_p2wpkh",
        "scriptpubkey_address": "bc1qu2wr90v2l4ch46v6k68esvmm3yg7metr7cyrtq",
        "value": 154998
      },
      "scriptsig": "",
      "scriptsig_asm": "",
      "witness": [
        "304402206fdf290abc5b0fd2f55231e891306c750bb613f8d18e732508f194733f28d8e302206cef9e7ab5a70fa599efa1c7843e3265621637086eacb21ae248d860677d6cf101",
        "031d4d5301023ab6e623bf4e92295244605093e0ff2a23210695ca38afdf0aed23"
      ],
      "is_coinbase": false,
      "sequence": 4294967295
    },
    {
      "txid": "23daa6ccae946eca7c7d9bae71ebe537cfe64eb6a25a0c9513e03704e996a093",
      "vout": 465,
      "prevout": {
        "scriptpubkey": "0014e29c32bd8afd717ae99ab68f98337b8911ede563",
        "scriptpubkey_asm": "OP_0 OP_PUSHBYTES_20 e29c32bd8afd717ae99ab68f98337b8911ede563",
        "scriptpubkey_type": "v0_p2wpkh",
        "scriptpubkey_address": "bc1qu2wr90v2l4ch46v6k68esvmm3yg7metr7cyrtq",
        "value": 151442
      },
      "scriptsig": "",
      "scriptsig_asm": "",
      "witness": [
        "30440220055abfbae58817f8981e78978b4bf3a5549b466dab24feda5869b81b696689f9022040ee7fd2fe8edc125b062bc03dd2216c51705eeb58f104ad72bb094074bc9f3001",
        "031d4d5301023ab6e623bf4e92295244605093e0ff2a23210695ca38afdf0aed23"
      ],
      "is_coinbase": false,
      "sequence": 4294967295
    },
    {
      "txid": "78834e43fe60e8a42b95d51d127f887a93e94e6138370f4a2ae9a7b7da6c0697",
      "vout": 405,
      "prevout": {
        "scriptpubkey": "0014e29c32bd8afd717ae99ab68f98337b8911ede563",
        "scriptpubkey_asm": "OP_0 OP_PUSHBYTES_20 e29c32bd8afd717ae99ab68f98337b8911ede563",
        "scriptpubkey_type": "v0_p2wpkh",
        "scriptpubkey_address": "bc1qu2wr90v2l4ch46v6k68esvmm3yg7metr7cyrtq",
        "value": 151490
      },
      "scriptsig": "",
      "scriptsig_asm": "",
      "witness": [
        "30440220587857a407c5a5e54393b245d1f795e7c5e03e6e4238cb4a50a1fa0badcd055302201e34352a3d2e4ae5d6b3f698aaebb35029e07103e3d509ade2bcf6b79587719001",
        "031d4d5301023ab6e623bf4e92295244605093e0ff2a23210695ca38afdf0aed23"
      ],
      "is_coinbase": false,
      "sequence": 4294967295
    },
    {
      "txid": "1d80e418f234ce59c3f0009765433138a063f78b4998e5709ba7c64176c8a1b3",
      "vout": 397,
      "prevout": {
        "scriptpubkey": "0014e29c32bd8afd717ae99ab68f98337b8911ede563",
        "scriptpubkey_asm": "OP_0 OP_PUSHBYTES_20 e29c32bd8afd717ae99ab68f98337b8911ede563",
        "scriptpubkey_type": "v0_p2wpkh",
        "scriptpubkey_address": "bc1qu2wr90v2l4ch46v6k68esvmm3yg7metr7cyrtq",
        "value": 153960
      },
      "scriptsig": "",
      "scriptsig_asm": "",
      "witness": [
        "3044022048bd73814dcfdeb2925feb7db762176e5e5f399e5798e73359b2d1a49d1ee60d0220442924a67c6e53b09900951153f77a13daf34180a20982c3b4a92d543dedf74501",
        "031d4d5301023ab6e623bf4e92295244605093e0ff2a23210695ca38afdf0aed23"
      ],
      "is_coinbase": false,
      "sequence": 4294967295
    },
    {
      "txid": "bd7a1effb8786626395687f393f780159ff38b7f611b24ada3b6f16353aec9f5",
      "vout": 696,
      "prevout": {
        "scriptpubkey": "0014e29c32bd8afd717ae99ab68f98337b8911ede563",
        "scriptpubkey_asm": "OP_0 OP_PUSHBYTES_20 e29c32bd8afd717ae99ab68f98337b8911ede563",
        "scriptpubkey_type": "v0_p2wpkh",
        "scriptpubkey_address": "bc1qu2wr90v2l4ch46v6k68esvmm3yg7metr7cyrtq",
        "value": 153380
      },
      "scriptsig": "",
      "scriptsig_asm": "",
      "witness": [
        "304402206a3cea3d4d4c71ec4ecd88385a3732cd8e6bf1804029f13abc983d3f8fbc3717022042fb0dc2302db5071e077f3cae7e9b57ad949f0d2eb17d08629c2168a0d61bbf01",
        "031d4d5301023ab6e623bf4e92295244605093e0ff2a23210695ca38afdf0aed23"
      ],
      "is_coinbase": false,
      "sequence": 4294967295
    },
    {
      "txid": "9d6b2275bd873c3e3e340ae599ac36c40514b1d30e3e6b35803064451181ebbc",
      "vout": 907,
      "prevout": {
        "scriptpubkey": "0014e29c32bd8afd717ae99ab68f98337b8911ede563",
        "scriptpubkey_asm": "OP_0 OP_PUSHBYTES_20 e29c32bd8afd717ae99ab68f98337b8911ede563",
        "scriptpubkey_type": "v0_p2wpkh",
        "scriptpubkey_address": "bc1qu2wr90v2l4ch46v6k68esvmm3yg7metr7cyrtq",
        "value": 149222
      },
      "scriptsig": "",
      "scriptsig_asm": "",
      "witness": [
        "3045022100d493ef5f1aac438a102c6819f329c85e7e5f8de038a388229b8bad1668603f6902201662919dbf8eb4e88c29ae04ca4dec6f00fd98278866e7af7406c7b5f02b5aa801",
        "031d4d5301023ab6e623bf4e92295244605093e0ff2a23210695ca38afdf0aed23"
      ],
      "is_coinbase": false,
      "sequence": 4294967295
    },
    {
      "txid": "c9d00b71a1f9b73c7863ce0591278201d404efbe012b73cffb65246c5d125e8c",
      "vout": 1,
      "prevout": {
        "scriptpubkey": "0014b60234a652d79f83099bfed13cd98d0200e4933b",
        "scriptpubkey_asm": "OP_0 OP_PUSHBYTES_20 b60234a652d79f83099bfed13cd98d0200e4933b",
        "scriptpubkey_type": "v0_p2wpkh",
        "scriptpubkey_address": "bc1qkcprffjj670cxzvmlmgnekvdqgqwfyem5nhrrp",
        "value": 7131
      },
      "scriptsig": "",
      "scriptsig_asm": "",
      "witness": [
        "304402205372dcdd6a14be547a1d998bc74ef840552dcf7d837b217f790ad8672372ec0502204e8125a583ca1a79105dd56176cd17373249cb6f45fd84c9b718aeae6fd9f59d01",
        "03038c77c80a5c8ec40492bff6a02160d94f17d8d6c041f035c99fa60201157961"
      ],
      "is_coinbase": false,
      "sequence": 4294967295
    },
    {
      "txid": "17e291632ee42872b67b37febcc515098e2d1c8520c9b22906c0eee51fccdab9",
      "vout": 611,
      "prevout": {
        "scriptpubkey": "0014e29c32bd8afd717ae99ab68f98337b8911ede563",
        "scriptpubkey_asm": "OP_0 OP_PUSHBYTES_20 e29c32bd8afd717ae99ab68f98337b8911ede563",
        "scriptpubkey_type": "v0_p2wpkh",
        "scriptpubkey_address": "bc1qu2wr90v2l4ch46v6k68esvmm3yg7metr7cyrtq",
        "value": 156157
      },
      "scriptsig": "",
      "scriptsig_asm": "",
      "witness": [
        "304402206c1c5b41bc7a3d4930bc18a0be75fe653e2bf1af8970691f203670e00ea976b902205ed2bf81846091869011927e65e22334c044a1a5c1e1195572568594ed39bd9201",
        "031d4d5301023ab6e623bf4e92295244605093e0ff2a23210695ca38afdf0aed23"
      ],
      "is_coinbase": false,
      "sequence": 4294967295
    },
    {
      "txid": "c4eddf804beabb420d082c4f379c9eaed32b84974dd6c6871689a8603bbe3feb",
      "vout": 232,
      "prevout": {
        "scriptpubkey": "0014e29c32bd8afd717ae99ab68f98337b8911ede563",
        "scriptpubkey_asm": "OP_0 OP_PUSHBYTES_20 e29c32bd8afd717ae99ab68f98337b8911ede563",
        "scriptpubkey_type": "v0_p2wpkh",
        "scriptpubkey_address": "bc1qu2wr90v2l4ch46v6k68esvmm3yg7metr7cyrtq",
        "value": 149803
      },
      "scriptsig": "",
      "scriptsig_asm": "",
      "witness": [
        "3045022100e5d90a0389a7d040f1c2b50cac1cdd44f1d11dd0497604493a1ebff786c44889022023e6ec102198c7154a37db5c78105482d61097f677659839f74ab96b6a50616501",
        "031d4d5301023ab6e623bf4e92295244605093e0ff2a23210695ca38afdf0aed23"
      ],
      "is_coinbase": false,
      "sequence": 4294967295
    },
    {
      "txid": "70db98ccbb932483c55c43ee8aa138c591c3f18bc1e3bf81ab936f8f20cd6247",
      "vout": 347,
      "prevout": {
        "scriptpubkey": "0014e29c32bd8afd717ae99ab68f98337b8911ede563",
        "scriptpubkey_asm": "OP_0 OP_PUSHBYTES_20 e29c32bd8afd717ae99ab68f98337b8911ede563",
        "scriptpubkey_type": "v0_p2wpkh",
        "scriptpubkey_address": "bc1qu2wr90v2l4ch46v6k68esvmm3yg7metr7cyrtq",
        "value": 149859
      },
      "scriptsig": "",
      "scriptsig_asm": "",
      "witness": [
        "304402203a9a58b12f14eb4ddbbc217ef62e926e13f9da06051abf0aab6baa7cd914ea800220090ee374c364790a92b5a5bd087f130d644adf7389d0358eb13e2082942d466c01",
        "031d4d5301023ab6e623bf4e92295244605093e0ff2a23210695ca38afdf0aed23"
      ],
      "is_coinbase": false,
      "sequence": 4294967295
    },
    {
      "txid": "342780b932d0db45a48cdbd0a913efa4d6811ed2878f19fbdcbfe11769516130",
      "vout": 986,
      "prevout": {
        "scriptpubkey": "0014e29c32bd8afd717ae99ab68f98337b8911ede563",
        "scriptpubkey_asm": "OP_0 OP_PUSHBYTES_20 e29c32bd8afd717ae99ab68f98337b8911ede563",
        "scriptpubkey_type": "v0_p2wpkh",
        "scriptpubkey_address": "bc1qu2wr90v2l4ch46v6k68esvmm3yg7metr7cyrtq",
        "value": 149502
      },
      "scriptsig": "",
      "scriptsig_asm": "",
      "witness": [
        "30450221008c6c59de49e37eea3237741ce4b104cf262934a372a6d28fbbf078a403ebcb56022041fec6a9de2ddb699b09a5dca6cd8575464937b64fca27871c7e24f349d9d59101",
        "031d4d5301023ab6e623bf4e92295244605093e0ff2a23210695ca38afdf0aed23"
      ],
      "is_coinbase": false,
      "sequence": 4294967295
    },
    {
      "txid": "5e5821240d7f85f3208813fd27308398f858528d6256d4fee6c16772443aadb9",
      "vout": 792,
      "prevout": {
        "scriptpubkey": "0014e29c32bd8afd717ae99ab68f98337b8911ede563",
        "scriptpubkey_asm": "OP_0 OP_PUSHBYTES_20 e29c32bd8afd717ae99ab68f98337b8911ede563",
        "scriptpubkey_type": "v0_p2wpkh",
        "scriptpubkey_address": "bc1qu2wr90v2l4ch46v6k68esvmm3yg7metr7cyrtq",
        "value": 150444
      },
      "scriptsig": "",
      "scriptsig_asm": "",
      "witness": [
        "3045022100b8e4b8578b68217cc7ab24239874be122356b488e201ff52e44abeb1120c39b102206457e4d6a39e15aebb9a0cb649c1a3c8688e012b027e38276ef8822efb59b6bf01",
        "031d4d5301023ab6e623bf4e92295244605093e0ff2a23210695ca38afdf0aed23"
      ],
      "is_coinbase": false,
      "sequence": 4294967295
    },
    {
      "txid": "1d791ae512f6d4c367ca1f386c1253f5ef8901384c8b90eada3d1c2021c0cdc2",
      "vout": 671,
      "prevout": {
        "scriptpubkey": "0014e29c32bd8afd717ae99ab68f98337b8911ede563",
        "scriptpubkey_asm": "OP_0 OP_PUSHBYTES_20 e29c32bd8afd717ae99ab68f98337b8911ede563",
        "scriptpubkey_type": "v0_p2wpkh",
        "scriptpubkey_address": "bc1qu2wr90v2l4ch46v6k68esvmm3yg7metr7cyrtq",
        "value": 152917
      },
      "scriptsig": "",
      "scriptsig_asm": "",
      "witness": [
        "304402207ad8ccc73f210bc08b922d01aa1eb772011af2ff9075f26dcc3b6398ea5febd102206617493f8f45ac67ba9dc1e8a516a176f755b462a2eacdf59dbd4563436afdda01",
        "031d4d5301023ab6e623bf4e92295244605093e0ff2a23210695ca38afdf0aed23"
      ],
      "is_coinbase": false,
      "sequence": 4294967295
    },
    {
      "txid": "41ae91e5e425c19c81c70a105b6ddfcd582175ddcae59344b7684ed205b85217",
      "vout": 825,
      "prevout": {
        "scriptpubkey": "0014e29c32bd8afd717ae99ab68f98337b8911ede563",
        "scriptpubkey_asm": "OP_0 OP_PUSHBYTES_20 e29c32bd8afd717ae99ab68f98337b8911ede563",
        "scriptpubkey_type": "v0_p2wpkh",
        "scriptpubkey_address": "bc1qu2wr90v2l4ch46v6k68esvmm3yg7metr7cyrtq",
        "value": 148539
      },
      "scriptsig": "",
      "scriptsig_asm": "",
      "witness": [
        "3045022100a177439dcf9fd84912713cb31bd7a8e012177a8a89309cd9a8344f34b755fcbc0220677d34edf9ec6acb987d7fa8b24e5418ca1d1c920f44d2201a9e0bf74360e26a01",
        "031d4d5301023ab6e623bf4e92295244605093e0ff2a23210695ca38afdf0aed23"
      ],
      "is_coinbase": false,
      "sequence": 4294967295
    },
    {
      "txid": "c707f73269a265e6829e08eb69338c880841e0d55499ec6ecffc270040138a5f",
      "vout": 1321,
      "prevout": {
        "scriptpubkey": "0014e29c32bd8afd717ae99ab68f98337b8911ede563",
        "scriptpubkey_asm": "OP_0 OP_PUSHBYTES_20 e29c32bd8afd717ae99ab68f98337b8911ede563",
        "scriptpubkey_type": "v0_p2wpkh",
        "scriptpubkey_address": "bc1qu2wr90v2l4ch46v6k68esvmm3yg7metr7cyrtq",
        "value": 154369
      },
      "scriptsig": "",
      "scriptsig_asm": "",
      "witness": [
        "304402202561e64f815ac43567075f5763fc60c0e1e1f34551d3ce131eae8699dd12718f022039ded30fc60992625c8eee3b76ec1e5714fcddffa5db748017eb72de13ed20f701",
        "031d4d5301023ab6e623bf4e92295244605093e0ff2a23210695ca38afdf0aed23"
      ],
      "is_coinbase": false,
      "sequence": 4294967295
    },
    {
      "txid": "35fe7f365b1ffc4401baf03f73aca60c06a470e748e07a4ec8af85a325dc76c8",
      "vout": 1444,
      "prevout": {
        "scriptpubkey": "0014e29c32bd8afd717ae99ab68f98337b8911ede563",
        "scriptpubkey_asm": "OP_0 OP_PUSHBYTES_20 e29c32bd8afd717ae99ab68f98337b8911ede563",
        "scriptpubkey_type": "v0_p2wpkh",
        "scriptpubkey_address": "bc1qu2wr90v2l4ch46v6k68esvmm3yg7metr7cyrtq",
        "value": 151028
      },
      "scriptsig": "",
      "scriptsig_asm": "",
      "witness": [
        "30440220122e394ac4b87ddcf0ca85893923190fe5e39d262dced61b063bb33f00f3fb8f02207ccc24a3318ca1ca804d9d3f1c6c041b5f84f2a6ebc7a0566610f59cfe1ef89801",
        "031d4d5301023ab6e623bf4e92295244605093e0ff2a23210695ca38afdf0aed23"
      ],
      "is_coinbase": false,
      "sequence": 4294967295
    },
    {
      "txid": "c0adee22916f13e5a0495442e98ad597df6c2283ff787afee4e6360da98b839b",
      "vout": 970,
      "prevout": {
        "scriptpubkey": "0014e29c32bd8afd717ae99ab68f98337b8911ede563",
        "scriptpubkey_asm": "OP_0 OP_PUSHBYTES_20 e29c32bd8afd717ae99ab68f98337b8911ede563",
        "scriptpubkey_type": "v0_p2wpkh",
        "scriptpubkey_address": "bc1qu2wr90v2l4ch46v6k68esvmm3yg7metr7cyrtq",
        "value": 151183
      },
      "scriptsig": "",
      "scriptsig_asm": "",
      "witness": [
        "304402207ee0e51c05b70bf18df8bb2fc0ed98f936f6f763efccabee3faaaa23512fa89302202ec340687e54e54ad68f356c93805ae5f9838e3ada1f2c7cf94b39aa8073762901",
        "031d4d5301023ab6e623bf4e92295244605093e0ff2a23210695ca38afdf0aed23"
      ],
      "is_coinbase": false,
      "sequence": 4294967295
    },
    {
      "txid": "3df24ae1616720718b37257c816e1bd928accaa5c021fcfbef046f1c677e298f",
      "vout": 426,
      "prevout": {
        "scriptpubkey": "0014e29c32bd8afd717ae99ab68f98337b8911ede563",
        "scriptpubkey_asm": "OP_0 OP_PUSHBYTES_20 e29c32bd8afd717ae99ab68f98337b8911ede563",
        "scriptpubkey_type": "v0_p2wpkh",
        "scriptpubkey_address": "bc1qu2wr90v2l4ch46v6k68esvmm3yg7metr7cyrtq",
        "value": 156929
      },
      "scriptsig": "",
      "scriptsig_asm": "",
      "witness": [
        "30440220606e755d2ede857c294d9afe222a5800d1a431c7d6deb6c1b085eba15af1bbfc0220038edd1f462a58763d733438cb9aad4fc10b1432bb97e9bd5d768e5f8edf822101",
        "031d4d5301023ab6e623bf4e92295244605093e0ff2a23210695ca38afdf0aed23"
      ],
      "is_coinbase": false,
      "sequence": 4294967295
    }
  ],
  "vout": [
    {
      "scriptpubkey": "76a914271e3f12645f71dc0ffabd1ccb060b5b26e4771488ac",
      "scriptpubkey_asm": "OP_DUP OP_HASH160 OP_PUSHBYTES_20 271e3f12645f71dc0ffabd1ccb060b5b26e47714 OP_EQUALVERIFY OP_CHECKSIG",
      "scriptpubkey_type": "p2pkh",
      "scriptpubkey_address": "14Zqb37BpFdi1hwAkdiATeqbLSMvwmMqrD",
      "value": 4634821
    },
    {
      "scriptpubkey": "0014845fd0688d1ec3356ebf130c1dbed734525e87e1",
      "scriptpubkey_asm": "OP_0 OP_PUSHBYTES_20 845fd0688d1ec3356ebf130c1dbed734525e87e1",
      "scriptpubkey_type": "v0_p2wpkh",
      "scriptpubkey_address": "bc1qs30aq6ydrmpn2m4lzvxpm0khx3f9aplp5dughg",
      "value": 8905
    }
  ],
  "size": 4825,
  "weight": 8986,
  "fee": 34140,
  "status": {
    "confirmed": true,
    "block_height": 834638,
    "block_hash": "000000000000000000025f742c626208ac87e0b7d15054abb4a19ca2d735a54e",
    "block_time": 1710405325
  },
  "hex": "01000000000120661ffa0fd2454fb40c7ab758edb3338d0043e33d519c80e0c3052236276f31617901000000ffffffff3431bad30c0356d11bd27587bd6b38d998e6bc8887da3fb300bdd50f7e9e85937101000000ffffffffe6de39d12edbf831c07c37c608688125eb150629ee52994f5dc58b607e5cf702f300000000ffffffff86e3f72b333f78a34e41b9e1038761fe81c09750083b7ea7398c3b3cca7ade1f8604000000ffffffff4ff2ea4a44a59536f2193a42df2a91bc07a09fa43aa30d1d23ebc732d67fe0da7102000000ffffffff760f0442638d6a28c07ebbcc74593644f345b3ae4635f71cca7e0bad525e447e9f01000000ffffffff4409ac0f22ef00e0ec6763bffc9d183b55ea80d1e681916db37400bd0878d1a39000000000ffffffff1aa90a7563b288cd194725b175e2b57954dea82aa706c59c4df96e91f4a9df52f903000000ffffffffeae116e08884deb072c8c686ea6faeeeb622c2520b7729ec7b2b7db9ed0b56347301000000ffffffff6aa12274192a33d9efb35668e73db4db2c434fba59a5588b4443087e355c74e97400000000ffffffff7ecaee387feadc8cc68f61e8d3174207e36d765887c048678f4d216103d72be6e402000000ffffffff261482f96a5134a7146cfe6d8f1b07d52f447a5eec6a544a100ddee33378ad2bab00000000ffffffffa36bafcca2caa72669fdf9da79933a8ced192fe4658ff2d165ec616fd991d2710004000000ffffffff2a2401316c87c65fd8baa05c1dd6c29abdbb914cafe196774fce880883076c8ac800000000ffffffffe6605da6c8a2a49aa5b2c1551cbf478aec212aaa641d57b1dcbbd8d5b129c38c9d00000000ffffffff93a096e90437e013950c5aa2b64ee6cf37e5eb71ae9b7d7cca6e94aecca6da23d101000000ffffffff97066cdab7a7e92a4a0f3738614ee9937a887f121dd5952ba4e860fe434e83789501000000ffffffffb3a1c87641c6a79b70e598498bf763a0383143659700f0c359ce34f218e4801d8d01000000fffffffff5c9ae5363f1b6a3ad241b617f8bf39f1580f793f3875639266678b8ff1e7abdb802000000ffffffffbceb811145643080356b3e0ed3b11405c436ac99e50a343e3e3c87bd75226b9d8b03000000ffffffff8c5e125d6c2465fbcf732b01beef04d40182279105ce63783cb7f9a1710bd0c90100000000ffffffffb9dacc1fe5eec00629b2c920851c2d8e0915c5bcfe377bb67228e42e6391e2176302000000ffffffffeb3fbe3b60a8891687c6d64d97842bd3ae9e9c374f2c080d42bbea4b80dfedc4e800000000ffffffff4762cd208f6f93ab81bfe3c18bf1c391c538a18aee435cc5832493bbcc98db705b01000000ffffffff3061516917e1bfdcfb198f87d21e81d6a4ef13a9d0db8ca445dbd032b9802734da03000000ffffffffb9ad3a447267c1e6fed456628d5258f898833027fd138820f3857f0d2421585e1803000000ffffffffc2cdc021201c3ddaea908b4c380189eff553126c381fca67c3d4f612e51a791d9f02000000ffffffff1752b805d24e68b74493e5cadd752158cddf6d5b100ac7819cc125e4e591ae413903000000ffffffff5f8a13400027fccf6eec9954d5e04108888c3369eb089e82e665a26932f707c72905000000ffffffffc876dc25a385afc84e7ae048e770a4060ca6ac733ff0ba0144fc1f5b367ffe35a405000000ffffffff9b838ba90d36e6e4fe7a78ff83226cdf97d58ae9425449a0e5136f9122eeadc0ca03000000ffffffff8f297e671c6f04effbfc21c0a5caac28d91b6e817c25378b71206761e14af23daa01000000ffffffff02c5b84600000000001976a914271e3f12645f71dc0ffabd1ccb060b5b26e4771488acc922000000000000160014845fd0688d1ec3356ebf130c1dbed734525e87e102473044022029feab3d3ac39185fd16cc1be8e06879c5660f2573e0e46b335685ec337282e502206c3a5a0cd456c96bb5c3c307be4eeacd08fe8ef870444bb718d4ab62df013cb00121031d4d5301023ab6e623bf4e92295244605093e0ff2a23210695ca38afdf0aed2302483045022100f7eb5d3ceaabae1262ba960bf9b829d822876939cd8c889f2fdcdd39d2ad08fb022020b30d62cf08d8b2b7e6b6efb1954226fa1667b33bb15f704cc20fe048ecf0ac0121031d4d5301023ab6e623bf4e92295244605093e0ff2a23210695ca38afdf0aed23024730440220486577115969c9b61d73755402ff3f2aac274f299b091be8c4edfb9f307db632022010242ad8c1ba0ddb753e3712a7faec32617ece9704e51d742b59c0c6f4cd86940121031d4d5301023ab6e623bf4e92295244605093e0ff2a23210695ca38afdf0aed2302473044022013ec0dd0a99c5c8b81c01f92905f6ae7b87bc10aa728dc1ed6ce6176bca17a79022077ef57ededb9cf167952a68af9e22abb25512122a72815494e08a67d2c30d5f90121031d4d5301023ab6e623bf4e92295244605093e0ff2a23210695ca38afdf0aed2302483045022100a5d4245128c99a7868f4bf4a6a57f64893c60f06c2a29952f0aa9bc9ab8d20bb022010d87a43fa188a2779b9a85451d4a99fe99f22798ef8d5709c157dafba0cb3890121031d4d5301023ab6e623bf4e92295244605093e0ff2a23210695ca38afdf0aed2302483045022100a331cddfa1801a38be4af2b41d1c2a2dea7b2297507ca43bccce4fff53ad632102201f351bef2275d06779783b633fc5ed286a86c13708f80c26ef00aff371ceca1c0121031d4d5301023ab6e623bf4e92295244605093e0ff2a23210695ca38afdf0aed23024830450221009043bf959f811b224e5ecffda37a61d5ce9b055c89d10727f668f4f7308b011502204a2ce80a06d55955ba6dbf834a2bcdffd66287cc1b34b00f1df46a0867f0cbfd0121031d4d5301023ab6e623bf4e92295244605093e0ff2a23210695ca38afdf0aed230247304402206489b41afc4f26a111c32b8d66770fde90a7db0ebff45853054e980af35d716e02202818a6e47ad987af44810bc34bd69a9c84073ca27618b072ce459e80b5b9723e0121031d4d5301023ab6e623bf4e92295244605093e0ff2a23210695ca38afdf0aed230247304402201186005e4eb4aa205f58959761f8cdd82ed1a56907c2e916ea6946a6919b029a0220181b62cf0dbc4544585469e6e9bb3a19e15813c6f73998b6adc0b363a091739c0121031d4d5301023ab6e623bf4e92295244605093e0ff2a23210695ca38afdf0aed230248304502210082d2787dcf65e07cf12a7cfcc65d7cfac6a4d44cf9ce428a24f39b1711bc389d022033e47a4275f2435280af5dca0e4d554b1ff056a3ef48c87c9352e64d949e3e7b0121031d4d5301023ab6e623bf4e92295244605093e0ff2a23210695ca38afdf0aed2302483045022100f08c4676b139ef2744aadea0188f2edadf6adc09db803d97791fcbbad3ba0f5f02206f2f2211c401975f351bf377fcd34eb1795413f15744136f47f3e1e5a35dc2c80121031d4d5301023ab6e623bf4e92295244605093e0ff2a23210695ca38afdf0aed23024730440220089d61e9a36450e839ddb9fb0fe101bae5f255702f11756ff44c94174f02a1ac02201cabef10fe81344b8dc8e4b72fea7ddafb504b0aaa8de10a698e6d039fe29e400121031d4d5301023ab6e623bf4e92295244605093e0ff2a23210695ca38afdf0aed2302483045022100d7fa67bc1bfe604d5d3b64a2105338f9ee7dd37fc01dc4b19cffc446de7b69ca022016f18c2fea00f9185b6e478ffb692ac666c33481a58d22da2cb83a85a0951c750121031d4d5301023ab6e623bf4e92295244605093e0ff2a23210695ca38afdf0aed2302473044022058410ce50b0a6f769ec8d6498b1e7736829c72190dae41908cbb4c81a0067adc0220741db2dc7d06f0a258b27ce08d48ae5dc11cfc42cff33c42db3dcb0555bdd7fe0121031d4d5301023ab6e623bf4e92295244605093e0ff2a23210695ca38afdf0aed230247304402206fdf290abc5b0fd2f55231e891306c750bb613f8d18e732508f194733f28d8e302206cef9e7ab5a70fa599efa1c7843e3265621637086eacb21ae248d860677d6cf10121031d4d5301023ab6e623bf4e92295244605093e0ff2a23210695ca38afdf0aed23024730440220055abfbae58817f8981e78978b4bf3a5549b466dab24feda5869b81b696689f9022040ee7fd2fe8edc125b062bc03dd2216c51705eeb58f104ad72bb094074bc9f300121031d4d5301023ab6e623bf4e92295244605093e0ff2a23210695ca38afdf0aed23024730440220587857a407c5a5e54393b245d1f795e7c5e03e6e4238cb4a50a1fa0badcd055302201e34352a3d2e4ae5d6b3f698aaebb35029e07103e3d509ade2bcf6b7958771900121031d4d5301023ab6e623bf4e92295244605093e0ff2a23210695ca38afdf0aed2302473044022048bd73814dcfdeb2925feb7db762176e5e5f399e5798e73359b2d1a49d1ee60d0220442924a67c6e53b09900951153f77a13daf34180a20982c3b4a92d543dedf7450121031d4d5301023ab6e623bf4e92295244605093e0ff2a23210695ca38afdf0aed230247304402206a3cea3d4d4c71ec4ecd88385a3732cd8e6bf1804029f13abc983d3f8fbc3717022042fb0dc2302db5071e077f3cae7e9b57ad949f0d2eb17d08629c2168a0d61bbf0121031d4d5301023ab6e623bf4e92295244605093e0ff2a23210695ca38afdf0aed2302483045022100d493ef5f1aac438a102c6819f329c85e7e5f8de038a388229b8bad1668603f6902201662919dbf8eb4e88c29ae04ca4dec6f00fd98278866e7af7406c7b5f02b5aa80121031d4d5301023ab6e623bf4e92295244605093e0ff2a23210695ca38afdf0aed230247304402205372dcdd6a14be547a1d998bc74ef840552dcf7d837b217f790ad8672372ec0502204e8125a583ca1a79105dd56176cd17373249cb6f45fd84c9b718aeae6fd9f59d012103038c77c80a5c8ec40492bff6a02160d94f17d8d6c041f035c99fa602011579610247304402206c1c5b41bc7a3d4930bc18a0be75fe653e2bf1af8970691f203670e00ea976b902205ed2bf81846091869011927e65e22334c044a1a5c1e1195572568594ed39bd920121031d4d5301023ab6e623bf4e92295244605093e0ff2a23210695ca38afdf0aed2302483045022100e5d90a0389a7d040f1c2b50cac1cdd44f1d11dd0497604493a1ebff786c44889022023e6ec102198c7154a37db5c78105482d61097f677659839f74ab96b6a5061650121031d4d5301023ab6e623bf4e92295244605093e0ff2a23210695ca38afdf0aed230247304402203a9a58b12f14eb4ddbbc217ef62e926e13f9da06051abf0aab6baa7cd914ea800220090ee374c364790a92b5a5bd087f130d644adf7389d0358eb13e2082942d466c0121031d4d5301023ab6e623bf4e92295244605093e0ff2a23210695ca38afdf0aed23024830450221008c6c59de49e37eea3237741ce4b104cf262934a372a6d28fbbf078a403ebcb56022041fec6a9de2ddb699b09a5dca6cd8575464937b64fca27871c7e24f349d9d5910121031d4d5301023ab6e623bf4e92295244605093e0ff2a23210695ca38afdf0aed2302483045022100b8e4b8578b68217cc7ab24239874be122356b488e201ff52e44abeb1120c39b102206457e4d6a39e15aebb9a0cb649c1a3c8688e012b027e38276ef8822efb59b6bf0121031d4d5301023ab6e623bf4e92295244605093e0ff2a23210695ca38afdf0aed230247304402207ad8ccc73f210bc08b922d01aa1eb772011af2ff9075f26dcc3b6398ea5febd102206617493f8f45ac67ba9dc1e8a516a176f755b462a2eacdf59dbd4563436afdda0121031d4d5301023ab6e623bf4e92295244605093e0ff2a23210695ca38afdf0aed2302483045022100a177439dcf9fd84912713cb31bd7a8e012177a8a89309cd9a8344f34b755fcbc0220677d34edf9ec6acb987d7fa8b24e5418ca1d1c920f44d2201a9e0bf74360e26a0121031d4d5301023ab6e623bf4e92295244605093e0ff2a23210695ca38afdf0aed230247304402202561e64f815ac43567075f5763fc60c0e1e1f34551d3ce131eae8699dd12718f022039ded30fc60992625c8eee3b76ec1e5714fcddffa5db748017eb72de13ed20f70121031d4d5301023ab6e623bf4e92295244605093e0ff2a23210695ca38afdf0aed23024730440220122e394ac4b87ddcf0ca85893923190fe5e39d262dced61b063bb33f00f3fb8f02207ccc24a3318ca1ca804d9d3f1c6c041b5f84f2a6ebc7a0566610f59cfe1ef8980121031d4d5301023ab6e623bf4e92295244605093e0ff2a23210695ca38afdf0aed230247304402207ee0e51c05b70bf18df8bb2fc0ed98f936f6f763efccabee3faaaa23512fa89302202ec340687e54e54ad68f356c93805ae5f9838e3ada1f2c7cf94b39aa807376290121031d4d5301023ab6e623bf4e92295244605093e0ff2a23210695ca38afdf0aed23024730440220606e755d2ede857c294d9afe222a5800d1a431c7d6deb6c1b085eba15af1bbfc0220038edd1f462a58763d733438cb9aad4fc10b1432bb97e9bd5d768e5f8edf82210121031d4d5301023ab6e623bf4e92295244605093e0ff2a23210695ca38afdf0aed2300000000"
}