{
  "txid": "d500b19571b1726b7555b520e3ee5505816cd5f8448a4274562f4558e6089a81",
  "version": 2,
  "locktime": 834462,
  "vin": [
    {
      "txid": "b84bb778c426dfa67d3edf9103362eb33161f44ff31eb4a7baa3360c06745c2d",
      "vout": 48,
      "prevout": {
        "scriptpubkey": "0014130c8f294c0459479bbe607782810fd19e530712",
        "scriptpubkey_asm": "OP_0 OP_PUSHBYTES_20 130c8f294c0459479bbe607782810fd19e530712",
        "scriptpubkey_type": "v0_p2wpkh",
        "scriptpubkey_address": "bc1qzvxg722vq3v50xa7vpmc9qg06x09xpcj884v49",
        "value": 68000
      },
      "scriptsig": "",
      "scriptsig_asm": "",
      "witness": [
        "304402203c8c0b1e1fc54e05046d8107f86894b701fc74675bb99cbc6b93c23a1e16bd4302203d0099a28c99cc7510b4dd1659f237e08635d40b79bc4ed049d5b3482a98cdae01",
        "035588ac24d85304f072784224dfd8485d3a86caac931fc423684c885d0825aa73"
      ],
      "is_coinbase": false,
      "sequence": 4294967294
    },
    {
      "txid": "b628fa3c301a64b31b6cbf743f8f436cbb7e0d220da2163d5a72705387775364",
      "vout": 27,
      "prevout": {
        "scriptpubkey": "0014130c8f294c0459479bbe607782810fd19e530712",
        "scriptpubkey_asm": "OP_0 OP_PUSHBYTES_20 130c8f294c0459479bbe607782810fd19e530712",
        "scriptpubkey_type": "v0_p2wpkh",
        "scriptpubkey_address": "bc1qzvxg722vq3v50xa7vpmc9qg06x09xpcj884v49",
        "value": 69000
      },
      "scriptsig": "",
      "scriptsig_asm": "",
      "witness": [
        "3044022060c5f4530c3ce0326c4e9c51b992aa4947df44f8cddba79a701f4984a951e01702204c0e274a8b12a8778a942297535b4f5c9e48eb95f2a52dac16a9712a4546655e01",
        "035588ac24d85304f072784224dfd8485d3a86caac931fc423684c885d0825aa73"
      ],
      "is_coinbase": false,
      "sequence": 4294967294
    },
    {
      "txid": "b4a64cbc370a2f998455df42cb007564b8dae5ad5a0ce09d620ffed5db2f3d6b",
      "vout": 3,
      "prevout": {
        "scriptpubkey": "00147f612fb554dcb89e493d701d3e9b2b9d522ad687",
        "scriptpubkey_asm": "OP_0 OP_PUSHBYTES_20 7f612fb554dcb89e493d701d3e9b2b9d522ad687",
        "scriptpubkey_type": "v0_p2wpkh",
        "scriptpubkey_address": "bc1q0asjld25mjufujfawqwnaxetn4fz4458ttyt5y",
        "value": 69364
      },
      "scriptsig": "",
      "scriptsig_asm": "",
      "witness": [
        "304402207d28c1fd615580a2d3ff4d41e4c435520ac409224edaef32c8fcf8c281734c0f02205c59073c8bcb1ab23be8441660a5ade13b380dfc35376e83860a306e0698f22401",
        "035d55d7117bba4f41924e6117a43fd58d5b830cef158fb480147bfd9883ab2943"
      ],
      "is_coinbase": false,
      "sequence": 4294967294
    },
    {
      "txid": "6d82227a0f4278d51bdd4c503d3f6ed5497108e145681238c19fde07e8c9c0ef",
      "vout": 15,
      "prevout": {
        "scriptpubkey": "001428329afdb5c3fe1edf5b1f2168f5d9184f615fb4",
        "scriptpubkey_asm": "OP_0 OP_PUSHBYTES_20 28329afdb5c3fe1edf5b1f2168f5d9184f615fb4",
        "scriptpubkey_type": "v0_p2wpkh",
        "scriptpubkey_address": "bc1q9qef4ld4c0lpah6mrusk3awerp8kzha5a79a6q",
        "value": 63319
      },
      "scriptsig": "",
      "scriptsig_asm": "",
      "witness": [
        "3044022048c6d72252ce62219341bfa74d2fc9dfd120d9e5894f8d11fce6a783d03329b4022039a8b70838a60387fbcacfb643e5873705803255e840311719abd2e187170f5a01",
        "027de0c5a5b9a2fcac8e3f26953991d7c01ec1021ecb1364c0345684ee21e79518"
      ],
      "is_coinbase": false,
      "sequence": 4294967294
    },
    {
      "txid": "46afe7c20fc94bad83adf042f7bcf67ba08f4dad12c0012f1a20706eab28d7d9",
      "vout": 10,
      "prevout": {
        "scriptpubkey": "0014dddce54b45ee5bbe6842fab00c08fc79f9bda051",
        "scriptpubkey_asm": "OP_0 OP_PUSHBYTES_20 dddce54b45ee5bbe6842fab00c08fc79f9bda051",
        "scriptpubkey_type": "v0_p2wpkh",
        "scriptpubkey_address": "bc1qmhww2j69aedmu6zzl2cqcz8u08ummgz37dsrnk",
        "value": 70000
      },
      "scriptsig": "",
      "scriptsig_asm": "",
      "witness": [
        "304402205d4450e0f9621c2ffb9ac6b668f08bbb7308b9a95c7ca97409e4f8132ff2e721022013b8f30df38b3a11896452e76200f4d1ba9b8abc93e963c2ec610a3b796becf601",
        "03df65e759a3c7a9a362ee0ec280a350d1d7f6e6a152d347ecdb846f6e59bb4ddc"
      ],
      "is_coinbase": false,
      "sequence": 4294967294
    },
    {
      "txid": "22cb9ed92d6a3f0a7135785e861bb30563e532a4de14ba75d430dec7bb96c9f0",
      "vout": 25,
      "prevout": {
        "scriptpubkey": "0014569dca47a69705e781c7bbe09d357b3786f94ad4",
        "scriptpubkey_asm": "OP_0 OP_PUSHBYTES_20 569dca47a69705e781c7bbe09d357b3786f94ad4",
        "scriptpubkey_type": "v0_p2wpkh",
        "scriptpubkey_address": "bc1q26wu53axjuz70qw8h0sf6dtmx7r0jjk507au5e",
        "value": 69000
      },
      "scriptsig": "",
      "scriptsig_asm": "",
      "witness": [
        "3044022041fa6e8e7642810496167d038a61e15646839542ad6ce71b98e08439e6f9161a02205d5a769123c4a6cc4fab362ee09cac83a82f210034860bb365ef42a703ddb78f01",
        "035e8e151b50fb88381a06fcf249957f3725b3b242c6eb76964ba5b53228d17535"
      ],
      "is_coinbase": false,
      "sequence": 4294967294
    },
    {
      "txid": "16a2b3641b59771f6730c23339880bd07eaa18bd17e6d7c17931c36542ce09c5",
      "vout": 14,
      "prevout": {
        "scriptpubkey": "0014123ff3f198cfff52f6df5f2766af2f6bd4082512",
        "scriptpubkey_asm": "OP_0 OP_PUSHBYTES_20 123ff3f198cfff52f6df5f2766af2f6bd4082512",
        "scriptpubkey_type": "v0_p2wpkh",
        "scriptpubkey_address": "bc1qzgll8uvcell49akltunkdte0d02qsfgj3fqrv8",
        "value": 67980
      },
      "scriptsig": "",
      "scriptsig_asm": "",
      "witness": [
        "304402205c8422c6b83143672dab045df55515394ec26297cba4316073aa656fd7d8667c022036c473221dd4adb41b3aa556182bcfdbcfd8b1e1afeae8077c6cf710c617225001",
        "02d88f37a24695ac7206a8444b5fb2cf2ac9a64a801a342b4e4cdf9817244152b3"
      ],
      "is_coinbase": false,
      "sequence": 4294967294
    },
    {
      "txid": "4e28bab255fc0948cc9b487306d9e25c8f1803df5afeb854e4e0dda85e9a7390",
      "vout": 48,
      "prevout": {
        "scriptpubkey": "0014130c8f294c0459479bbe607782810fd19e530712",
        "scriptpubkey_asm": "OP_0 OP_PUSHBYTES_20 130c8f294c0459479bbe607782810fd19e530712",
        "scriptpubkey_type": "v0_p2wpkh",
        "scriptpubkey_address": "bc1qzvxg722vq3v50xa7vpmc9qg06x09xpcj884v49",
        "value": 69000
      },
      "scriptsig": "",
      "scriptsig_asm": "",
      "witness": [
        "30440220649d5a49273106b47f045f425c0976542e8781cba2dff16b54a7392a7c1fccf802206e50fc96ff269d2171ea6521314e5ad5e81935fc19362d15e47c80338153c85c01",
        "035588ac24d85304f072784224dfd8485d3a86caac931fc423684c885d0825aa73"
      ],
      "is_coinbase": false,
      "sequence": 4294967294
    },
    {
      "txid": "5bbc594c640d946628437f7fc79adf10297204f154951507e8fbe64524f47608",
      "vout": 24,
      "prevout": {
        "scriptpubkey": "00148d9ba5c7ff213a59d7126a5be13329eac35ead90",
        "scriptpubkey_asm": "OP_0 OP_PUSHBYTES_20 8d9ba5c7ff213a59d7126a5be13329eac35ead90",
        "scriptpubkey_type": "v0_p2wpkh",
        "scriptpubkey_address": "bc1q3kd6t3llyya9n4cjdfd7zvefatp4atvskzem3p",
        "value": 68468
      },
      "scriptsig": "",
      "scriptsig_asm": "",
      "witness": [
        "304402203e444a1783d757ef9d6e11be8d684a9884f97d29e905aca34a1faf18df21471f022063d4579894950c18cb1b59c00dfe2eb2cf57b6f146c27c09a1105bb11283f60a01",
        "02749f283d6fec3797c8ba282c2d6ade284f5e48d31d9ad0d6ab221cc56e99d2d4"
      ],
      "is_coinbase": false,
      "sequence": 4294967294
    },
    {
      "txid": "2b2cf160a7df6035fafdb095be85d6b39dee21fa43ea88de662dbbf750842ab6",
      "vout": 38,
      "prevout": {
        "scriptpubkey": "0014dcccc0ab9b012f9be1f34dbf32472b0e06096e37",
        "scriptpubkey_asm": "OP_0 OP_PUSHBYTES_20 dcccc0ab9b012f9be1f34dbf32472b0e06096e37",
        "scriptpubkey_type": "v0_p2wpkh",
        "scriptpubkey_address": "bc1qmnxvp2umqyhehc0nfklny3etpcrqjm3hjty9rt",
        "value": 67735
      },
      "scriptsig": "",
      "scriptsig_asm": "",
      "witness": [
        "3044022001eeb97de1d4d130b8108f813a57b5921d0965ea992dd79d24e91adbcf03c1e60220584504033f035b1a16d1b928e9eded9167fbabd79d9942af540341f87a2eeb0b01",
        "02a6cf05608e560532a76dc87915835d7d311e507e79764d224d6f976143cff18f"
      ],
      "is_coinbase": false,
      "sequence": 4294967294
    },
    {
      "txid": "d6cd41223111ca4d831ae816c408235f379bb3d7e075c989b492bc6ad59cc1ef",
      "vout": 4,
      "prevout": {
        "scriptpubkey": "00144d025e631e6cfeef1a567c152911b036cca7876c",
        "scriptpubkey_asm": "OP_0 OP_PUSHBYTES_20 4d025e631e6cfeef1a567c152911b036cca7876c",
        "scriptpubkey_type": "v0_p2wpkh",
        "scriptpubkey_address": "bc1qf5p9ucc7dnlw7xjk0s2jjydsxmx20pmvw2v0ss",
        "value": 69500
      },
      "scriptsig": "",
      "scriptsig_asm": "",
      "witness": [
        "3044022012abbb7082fe40929bfef99893879509248c43ada07b23db4f1645983adf9a11022071ec49f6c573622ab8282bba8ccfcf56222266c3ddecd431fb00908150dc947d01",
        "025b6a37f91549d651d0c4fac4597f7cf5281d913a5a837e3039f97b15f589700a"
      ],
      "is_coinbase": false,
      "sequence": 4294967294
    },
    {
      "txid": "1f417ef620320f2eb21c4787be1812cf90c466dd80455a75048faad1d03328b3",
      "vout": 0,
      "prevout": {
        "scriptpubkey": "0014816880dde9bf3242f7ae29b2cb9a60b53203ca3f",
        "scriptpubkey_asm": "OP_0 OP_PUSHBYTES_20 816880dde9bf3242f7ae29b2cb9a60b53203ca3f",
        "scriptpubkey_type": "v0_p2wpkh",
        "scriptpubkey_address": "bc1qs95gph0fhuey9aaw9xevhxnqk5eq8j3lmelx2r",
        "value": 68927
      },
      "scriptsig": "",
      "scriptsig_asm": "",
      "witness": [
        "304402203abf58e6a6008e958cdfd5e73c1de2721299056d05ec89cdeaf1503a80d8d0cf02202f0b8164a7f8c76dea3cd63b4ee94793ec252cf2d677bc298d4311bea140abcf01",
        "03e91e85ff35f2850597ff34e070e565f72aeb4e365a9cccf2990980b625a3fd90"
      ],
      "is_coinbase": false,
      "sequence": 4294967294
    },
    {
      "txid": "d9bb9bcc6653818d0589a85aae6584b4f160675ec45005aebb2312d86ae033af",
      "vout": 61,
      "prevout": {
        "scriptpubkey": "0014476b60af180352bb78e306b57a9cebb93daf28de",
        "scriptpubkey_asm": "OP_0 OP_PUSHBYTES_20 476b60af180352bb78e306b57a9cebb93daf28de",
        "scriptpubkey_type": "v0_p2wpkh",
        "scriptpubkey_address": "bc1qga4kptccqdftk78rq66h488thy7672x74at63d",
        "value": 69763
      },
      "scriptsig": "",
      "scriptsig_asm": "",
      "witness": [
        "304402203e3e78a680ec14b5b89d90f521260e42776bec2a71e550258b329994548c23b702200c4c02d3df856a5a3cbd6a2b83b23d3550df5ca412158f5fd9d1e64e2e17d4b401",
        "025702cc51689b683d468de5316e8a15e0c888fc7989dbc07aafe77c32d8c5beda"
      ],
      "is_coinbase": false,
      "sequence": 4294967294
    },
    {
      "txid": "1c06ecfd0702e58338555f6aa2737f2f10c795a396240ed385b30c9cbd26d118",
      "vout": 0,
      "prevout": {
        "scriptpubkey": "0014e3bf83547adccb590416946d2fb676b6ea19daac",
        "scriptpubkey_asm": "OP_0 OP_PUSHBYTES_20 e3bf83547adccb590416946d2fb676b6ea19daac",
        "scriptpubkey_type": "v0_p2wpkh",
        "scriptpubkey_address": "bc1quwlcx4r6mn94jpqkj3kjldnkkm4pnk4vsngk4c",
        "value": 69485
      },
      "scriptsig": "",
      "scriptsig_asm": "",
      "witness": [
        "304402207576830ec6c414829a2893884293e32f3852ce9475a5e5af5c6a27302919022b022050539545e1a32659cbbd343ee9268dc8c387eb84a588d70a70eb467bb98965c301",
        "03b26a2fde37097c9662c8dba3ef4deb23310b2f824dea46245af1c807a94899f1"
      ],
      "is_coinbase": false,
      "sequence": 4294967294
    },
    {
      "txid": "6001380a961e7ad0f814ab9a9552931d1480160fc93400d6b55c24005d26e368",
      "vout": 21,
      "prevout": {
        "scriptpubkey": "00140e679147e8c617b2ff38ea1748b6ad74a891949f",
        "scriptpubkey_asm": "OP_0 OP_PUSHBYTES_20 0e679147e8c617b2ff38ea1748b6ad74a891949f",
        "scriptpubkey_type": "v0_p2wpkh",
        "scriptpubkey_address": "bc1qpenez3lgcctm9lecagt53d4dwj5fr9ylj3n7ym",
        "value": 69463
      },
      "scriptsig": "",
      "scriptsig_asm": "",
      "witness": [
        "304402200543e026bc29ee7e36883a2eaeb4b72727e4b99eb88780436deba12231a013c802202936c1e38c76861857ab6ced4dd91e6e914eafd59f8b96825dcd750567160e4c01",
        "0267b615aab6aef6d1d1df4ccf95eee2c5aa53cf4fbb7fa94c2e130bcce325f2af"
      ],
      "is_coinbase": false,
      "sequence": 4294967294
    }
  ],
  "vout": [
    {
      "scriptpubkey": "0014a556a18fc988a9e0698bb0a4c48734ae5ac0f1ff",
      "scriptpubkey_asm": "OP_0 OP_PUSHBYTES_20 a556a18fc988a9e0698bb0a4c48734ae5ac0f1ff",
      "scriptpubkey_type": "v0_p2wpkh",
      "scriptpubkey_address": "bc1q54t2rr7f3z57q6vtkzjvfpe54edvpu0lhe7tdv",
      "value": 1000000
    }
  ],
  "size": 2263,
  "weight": 4231,
  "fee": 29004,
  "status": {
    "confirmed": true,
    "block_height": 834464,
    "block_hash": "0000000000000000000177a0869a911a2b65c9bdcd5a8bcb02b68f305bee848e",
    "block_time": 1710308296
  },
  "hex": "0200000000010f2d5c74060c36a3baa7b41ef34ff46131b32e360391df3e7da6df26c478b74bb83000000000feffffff645377875370725a3d16a20d220d7ebb6c438f3f74bf6c1bb3641a303cfa28b61b00000000feffffff6b3d2fdbd5fe0f629de00c5aade5dab8647500cb42df5584992f0a37bc4ca6b40300000000feffffffefc0c9e807de9fc138126845e1087149d56e3f3d504cdd1bd578420f7a22826d0f00000000feffffffd9d728ab6e70201a2f01c012ad4d8fa07bf6bcf742f0ad83ad4bc90fc2e7af460a00000000fefffffff0c996bbc7de30d475ba14dea432e56305b31b865e7835710a3f6a2dd99ecb221900000000feffffffc509ce4265c33179c1d7e617bd18aa7ed00b883933c230671f77591b64b3a2160e00000000feffffff90739a5ea8dde0e454b8fe5adf03188f5ce2d90673489bcc4809fc55b2ba284e3000000000feffffff0876f42445e6fbe807159554f104722910df9ac77f7f432866940d644c59bc5b1800000000feffffffb62a8450f7bb2d66de88ea43fa21ee9db3d685be95b0fdfa3560dfa760f12c2b2600000000feffffffefc19cd56abc92b489c975e0d7b39b375f2308c416e81a834dca11312241cdd60400000000feffffffb32833d0d1aa8f04755a4580dd66c490cf1218be87471cb22e0f3220f67e411f0000000000feffffffaf33e06ad81223bbae0550c45e6760f1b48465ae5aa889058d815366cc9bbbd93d00000000feffffff18d126bd9c0cb385d30e2496a395c7102f7f73a26a5f553883e50207fdec061c0000000000feffffff68e3265d00245cb5d60034c90f1680141d9352959aab14f8d07a1e960a3801601500000000feffffff0140420f0000000000160014a556a18fc988a9e0698bb0a4c48734ae5ac0f1ff0247304402203c8c0b1e1fc54e05046d8107f86894b701fc74675bb99cbc6b93c23a1e16bd4302203d0099a28c99cc7510b4dd1659f237e08635d40b79bc4ed049d5b3482a98cdae0121035588ac24d85304f072784224dfd8485d3a86caac931fc423684c885d0825aa7302473044022060c5f4530c3ce0326c4e9c51b992aa4947df44f8cddba79a701f4984a951e01702204c0e274a8b12a8778a942297535b4f5c9e48eb95f2a52dac16a9712a4546655e0121035588ac24d85304f072784224dfd8485d3a86caac931fc423684c885d0825aa730247304402207d28c1fd615580a2d3ff4d41e4c435520ac409224edaef32c8fcf8c281734c0f02205c59073c8bcb1ab23be8441660a5ade13b380dfc35376e83860a306e0698f2240121035d55d7117bba4f41924e6117a43fd58d5b830cef158fb480147bfd9883ab294302473044022048c6d72252ce62219341bfa74d2fc9dfd120d9e5894f8d11fce6a783d03329b4022039a8b70838a60387fbcacfb643e5873705803255e840311719abd2e187170f5a0121027de0c5a5b9a2fcac8e3f26953991d7c01ec1021ecb1364c0345684ee21e795180247304402205d4450e0f9621c2ffb9ac6b668f08bbb7308b9a95c7ca97409e4f8132ff2e721022013b8f30df38b3a11896452e76200f4d1ba9b8abc93e963c2ec610a3b796becf6012103df65e759a3c7a9a362ee0ec280a350d1d7f6e6a152d347ecdb846f6e59bb4ddc02473044022041fa6e8e7642810496167d038a61e15646839542ad6ce71b98e08439e6f9161a02205d5a769123c4a6cc4fab362ee09cac83a82f210034860bb365ef42a703ddb78f0121035e8e151b50fb88381a06fcf249957f3725b3b242c6eb76964ba5b53228d175350247304402205c8422c6b83143672dab045df55515394ec26297cba4316073aa656fd7d8667c022036c473221dd4adb41b3aa556182bcfdbcfd8b1e1afeae8077c6cf710c6172250012102d88f37a24695ac7206a8444b5fb2cf2ac9a64a801a342b4e4cdf9817244152b3024730440220649d5a49273106b47f045f425c0976542e8781cba2dff16b54a7392a7c1fccf802206e50fc96ff269d2171ea6521314e5ad5e81935fc19362d15e47c80338153c85c0121035588ac24d85304f072784224dfd8485d3a86caac931fc423684c885d0825aa730247304402203e444a1783d757ef9d6e11be8d684a9884f97d29e905aca34a1faf18df21471f022063d4579894950c18cb1b59c00dfe2eb2cf57b6f146c27c09a1105bb11283f60a012102749f283d6fec3797c8ba282c2d6ade284f5e48d31d9ad0d6ab221cc56e99d2d402473044022001eeb97de1d4d130b8108f813a57b5921d0965ea992dd79d24e91adbcf03c1e60220584504033f035b1a16d1b928e9eded9167fbabd79d9942af540341f87a2eeb0b012102a6cf05608e560532a76dc87915835d7d311e507e79764d224d6f976143cff18f02473044022012abbb7082fe40929bfef99893879509248c43ada07b23db4f1645983adf9a11022071ec49f6c573622ab8282bba8ccfcf56222266c3ddecd431fb00908150dc947d0121025b6a37f91549d651d0c4fac4597f7cf5281d913a5a837e3039f97b15f589700a0247304402203abf58e6a6008e958cdfd5e73c1de2721299056d05ec89cdeaf1503a80d8d0cf02202f0b8164a7f8c76dea3cd63b4ee94793ec252cf2d677bc298d4311bea140abcf012103e91e85ff35f2850597ff34e070e565f72aeb4e365a9cccf2990980b625a3fd900247304402203e3e78a680ec14b5b89d90f521260e42776bec2a71e550258b329994548c23b702200c4c02d3df856a5a3cbd6a2b83b23d3550df5ca412158f5fd9d1e64e2e17d4b40121025702cc51689b683d468de5316e8a15e0c888fc7989dbc07aafe77c32d8c5beda0247304402207576830ec6c414829a2893884293e32f3852ce9475a5e5af5c6a27302919022b022050539545e1a32659cbbd343ee9268dc8c387eb84a588d70a70eb467bb98965c3012103b26a2fde37097c9662c8dba3ef4deb23310b2f824dea46245af1c807a94899f10247304402200543e026bc29ee7e36883a2eaeb4b72727e4b99eb88780436deba12231a013c802202936c1e38c76861857ab6ced4dd91e6e914eafd59f8b96825dcd750567160e4c01210267b615aab6aef6d1d1df4ccf95eee2c5aa53cf4fbb7fa94c2e130bcce325f2af9ebb0c00"
}