{
  "txid": "d50105061d189373582a6701ff841cbe43ff92e92a8f24550929ed50312b036e",
  "version": 2,
  "locktime": 0,
  "vin": [
    {
      "txid": "f615c0412f959c0b3813cbd232bbb1c1a8ad656c37fb60b601f633a6d2d76942",
      "vout": 77,
      "prevout": {
        "scriptpubkey": "00145436542836629c0ef77201b50a746197e54895c4",
        "scriptpubkey_asm": "OP_0 OP_PUSHBYTES_20 5436542836629c0ef77201b50a746197e54895c4",
        "scriptpubkey_type": "v0_p2wpkh",
        "scriptpubkey_address": "bc1q2sm9g2pkv2wqaamjqx6s5arpjlj539wyydunp3",
        "value": 817993
      },
      "scriptsig": "",
      "scriptsig_asm": "",
      "witness": [
        "3045022100c664c74dc558300fa47ba734cb2806ee2409c9bb7ed40ed4fa303c0fed44e75b022051ac26b5174499aa30aa0cefccac59e21fbc47a911e26d094568ebaf683156d701",
        "02714f1393d32be230ba7b3ba114b387c3f2600c5ce7f70d2d4f71c6ccdfbb63ce"
      ],
      "is_coinbase": false,
      "sequence": 4294967293
    },
    {
      "txid": "d9efde5c3187e2ce1776d1ef1fb82b72c732301ea85c8e1b264efffc70700afa",
      "vout": 1,
      "prevout": {
        "scriptpubkey": "0014594a02097def670119913af2239cf87a228e97d5",
        "scriptpubkey_asm": "OP_0 OP_PUSHBYTES_20 594a02097def670119913af2239cf87a228e97d5",
        "scriptpubkey_type": "v0_p2wpkh",
        "scriptpubkey_address": "bc1qt99qyztaaanszxv38tez888c0g3ga974w5hnp3",
        "value": 17367
      },
      "scriptsig": "",
      "scriptsig_asm": "",
      "witness": [
        "30450221009f9aca5d358ad5b4575a100a61785b475a9cd7ac3fcf66455c898a9f9f5b931702202d684b474ef8326663c14f75149d17138f9b6aeb0226f3f3321eb492f8b2e06c01",
        "02e44bb84dda35d90aafebdfc4ea98512019c0d6de2b9e7578ad1934bf64101a8b"
      ],
      "is_coinbase": false,
      "sequence": 4294967293
    }
  ],
  "vout": [
    {
      "scriptpubkey": "0014b409a9465cdaf1dd99fc5dd4f2a4db861ecb5099",
      "scriptpubkey_asm": "OP_0 OP_PUSHBYTES_20 b409a9465cdaf1dd99fc5dd4f2a4db861ecb5099",
      "scriptpubkey_type": "v0_p2wpkh",
      "scriptpubkey_address": "bc1qksy6j3jumtcamx0uth209fxmsc0vk5yew44kjk",
      "value": 824703
    }
  ],
  "size": 341,
  "weight": 710,
  "fee": 10657,
  "status": {
    "confirmed": true,
    "block_height": 834638,
    "block_hash": "000000000000000000025f742c626208ac87e0b7d15054abb4a19ca2d735a54e",
    "block_time": 1710405325
  },
  "hex": "020000000001024269d7d2a633f601b660fb376c65ada8c1b1bb32d2cb13380b9c952f41c015f64d00000000fdfffffffa0a7070fcff4e261b8e5ca81e3032c7722bb81fefd17617cee287315cdeefd90100000000fdffffff017f950c0000000000160014b409a9465cdaf1dd99fc5dd4f2a4db861ecb509902483045022100c664c74dc558300fa47ba734cb2806ee2409c9bb7ed40ed4fa303c0fed44e75b022051ac26b5174499aa30aa0cefccac59e21fbc47a911e26d094568ebaf683156d7012102714f1393d32be230ba7b3ba114b387c3f2600c5ce7f70d2d4f71c6ccdfbb63ce024830450221009f9aca5d358ad5b4575a100a61785b475a9cd7ac3fcf66455c898a9f9f5b931702202d684b474ef8326663c14f75149d17138f9b6aeb0226f3f3321eb492f8b2e06c012102e44bb84dda35d90aafebdfc4ea98512019c0d6de2b9e7578ad1934bf64101a8b00000000"
}