{
  "txid": "d54763e40d7c730668e369beef8d67299eb4df9d4ff5bb3b98d7ca52539bcbc2",
  "version": 2,
  "locktime": 834637,
  "vin": [
    {
      "txid": "ed7ff179a79bef2dc871ad46c757f2de24c4d0d8e64665ef178e892a6eab822e",
      "vout": 9,
      "prevout": {
        "scriptpubkey": "0014c1ea849195658d141b1ea1822d2af232f76ee41c",
        "scriptpubkey_asm": "OP_0 OP_PUSHBYTES_20 c1ea849195658d141b1ea1822d2af232f76ee41c",
        "scriptpubkey_type": "v0_p2wpkh",
        "scriptpubkey_address": "bc1qc84gfyv4vkx3gxc75xpz62hjxtmkaequutd6qg",
        "value": 109491
      },
      "scriptsig": "",
      "scriptsig_asm": "",
      "witness": [
        "3044022073b7dee13212c1f084a6bb03b18548f529ce77b86dd2ea04883218aa069a9cf90220782d178e22a7adc3b0445a378ab1c5ddf2b6f33f7dac1e8c4240ae6e9883a63901",
        "03a330cc20ccbf0723fea63d273775562ce6da05cdaef05d6c567e3286a38f2772"
      ],
      "is_coinbase": false,
      "sequence": 4294967294
    },
    {
      "txid": "a03d0050b9de0c5746898bf4c9498a8622be23b9ea7f7888b8efb36b4075c37d",
      "vout": 1,
      "prevout": {
        "scriptpubkey": "00144238744c98bb85f7cd90ddc59b38d670d6007f42",
        "scriptpubkey_asm": "OP_0 OP_PUSHBYTES_20 4238744c98bb85f7cd90ddc59b38d670d6007f42",
        "scriptpubkey_type": "v0_p2wpkh",
        "scriptpubkey_address": "bc1qggu8gnychwzl0nvsmhzekwxkwrtqql6z3grwzm",
        "value": 1001247
      },
      "scriptsig": "",
      "scriptsig_asm": "",
      "witness": [
        "30440220070f87980a9ddba6e9df7234ea9ea4bf917cbf4a83684d1381c0af0d25ede02502206c6c6acfcb48c0161784de12f8859c590d2e306e8764cddc014975d903bd20ac01",
        "0249063d7d863fb4ed5373421fb1a4bd97ffe6e5c55ab14c057cead4ad4fa18555"
      ],
      "is_coinbase": false,
      "sequence": 4294967294
    }
  ],
  "vout": [
    {
      "scriptpubkey": "0014f48d4b6f91af14d48edae5d89014298401b9cb76",
      "scriptpubkey_asm": "OP_0 OP_PUSHBYTES_20 f48d4b6f91af14d48edae5d89014298401b9cb76",
      "scriptpubkey_type": "v0_p2wpkh",
      "scriptpubkey_address": "bc1q7jx5kmu34u2dfrk6uhvfq9pfssqmnjmk55plt6",
      "value": 104196
    },
    {
      "scriptpubkey": "001416bbdbb874c762a8e66b4b168405fc4b74a5e8a8",
      "scriptpubkey_asm": "OP_0 OP_PUSHBYTES_20 16bbdbb874c762a8e66b4b168405fc4b74a5e8a8",
      "scriptpubkey_type": "v0_p2wpkh",
      "scriptpubkey_address": "bc1qz6aahwr5ca323entfvtggp0ufd62t69gpa9a06",
      "value": 1000084
    }
  ],
  "size": 370,
  "weight": 832,
  "fee": 6458,
  "status": {
    "confirmed": true,
    "block_height": 834638,
    "block_hash": "000000000000000000025f742c626208ac87e0b7d15054abb4a19ca2d735a54e",
    "block_time": 1710405325
  },
  "hex": "020000000001022e82ab6e2a898e17ef6546e6d8d0c424def257c746ad71c82def9ba779f17fed0900000000feffffff7dc375406bb3efb888787feab923be22868a49c9f48b8946570cdeb950003da00100000000feffffff020497010000000000160014f48d4b6f91af14d48edae5d89014298401b9cb7694420f000000000016001416bbdbb874c762a8e66b4b168405fc4b74a5e8a802473044022073b7dee13212c1f084a6bb03b18548f529ce77b86dd2ea04883218aa069a9cf90220782d178e22a7adc3b0445a378ab1c5ddf2b6f33f7dac1e8c4240ae6e9883a639012103a330cc20ccbf0723fea63d273775562ce6da05cdaef05d6c567e3286a38f2772024730440220070f87980a9ddba6e9df7234ea9ea4bf917cbf4a83684d1381c0af0d25ede02502206c6c6acfcb48c0161784de12f8859c590d2e306e8764cddc014975d903bd20ac01210249063d7d863fb4ed5373421fb1a4bd97ffe6e5c55ab14c057cead4ad4fa185554dbc0c00"
}