{
  "txid": "d54f8f64da628450848655afa5bf68b874909434064a19b5e534cd4790e57ef5",
  "version": 1,
  "locktime": 0,
  "vin": [
    {
      "txid": "ab699ede04229539aa31edccb93e1a3733933674ac9f67de88fc3af2e97b1ea4",
      "vout": 153,
      "prevout": {
        "scriptpubkey": "76a91418bb77686fba1a12a4a12aea90124005a24721aa88ac",
        "scriptpubkey_asm": "OP_DUP OP_HASH160 OP_PUSHBYTES_20 18bb77686fba1a12a4a12aea90124005a24721aa OP_EQUALVERIFY OP_CHECKSIG",
        "scriptpubkey_type": "p2pkh",
        "scriptpubkey_address": "13Fmo12AUmznRDcdMJLr6D6D33J7eZWjuR",
        "value": 960061
      },
      "scriptsig": "4730440220671414da7df2d41c042868ae986cfa85db4c08b9bf4b2938463c5f7389f75be90220106900a36b2eeccedec4da93a7ca0e67291c6af8da31a48d862f150d8ffce9b9012103c711823d24fe150cee47f0982a75988f7ddb8f6f9bf805ddb27c2c4d7cb86b9c",
      "scriptsig_asm": "OP_PUSHBYTES_71 30440220671414da7df2d41c042868ae986cfa85db4c08b9bf4b2938463c5f7389f75be90220106900a36b2eeccedec4da93a7ca0e67291c6af8da31a48d862f150d8ffce9b901 OP_PUSHBYTES_33 03c711823d24fe150cee47f0982a75988f7ddb8f6f9bf805ddb27c2c4d7cb86b9c",
      "is_coinbase": false,
      "sequence": 4294967295
    }
  ],
  "vout": [
    {
      "scriptpubkey": "76a9145460a50d32b1e974cf19c728b2377341b327600388ac",
      "scriptpubkey_asm": "OP_DUP OP_HASH160 OP_PUSHBYTES_20 5460a50d32b1e974cf19c728b2377341b3276003 OP_EQUALVERIFY OP_CHECKSIG",
      "scriptpubkey_type": "p2pkh",
      "scriptpubkey_address": "18h9Y7EdeSYbeTxvxgTdrCV6L49xy7aMJT",
      "value": 680779
    },
    {
      "scriptpubkey": "76a91418bb77686fba1a12a4a12aea90124005a24721aa88ac",
      "scriptpubkey_asm": "OP_DUP OP_HASH160 OP_PUSHBYTES_20 18bb77686fba1a12a4a12aea90124005a24721aa OP_EQUALVERIFY OP_CHECKSIG",
      "scriptpubkey_type": "p2pkh",
      "scriptpubkey_address": "13Fmo12AUmznRDcdMJLr6D6D33J7eZWjuR",
      "value": 274762
    }
  ],
  "size": 225,
  "weight": 900,
  "fee": 4520,
  "status": {
    "confirmed": true,
    "block_height": 834638,
    "block_hash": "000000000000000000025f742c626208ac87e0b7d15054abb4a19ca2d735a54e",
    "block_time": 1710405325
  },
  "hex": "0100000001a41e7be9f23afc88de679fac74369333371a3eb9cced31aa39952204de9e69ab990000006a4730440220671414da7df2d41c042868ae986cfa85db4c08b9bf4b2938463c5f7389f75be90220106900a36b2eeccedec4da93a7ca0e67291c6af8da31a48d862f150d8ffce9b9012103c711823d24fe150cee47f0982a75988f7ddb8f6f9bf805ddb27c2c4d7cb86b9cffffffff024b630a00000000001976a9145460a50d32b1e974cf19c728b2377341b327600388ac4a310400000000001976a91418bb77686fba1a12a4a12aea90124005a24721aa88ac00000000"
}