{
  "txid": "d553059b2d5b758df206c298562b6f635914f0e56e023fef23036638908aae93",
  "version": 2,
  "locktime": 0,
  "vin": [
    {
      "txid": "0ad82719c5568c4acd81b83e609db57306639901211bd5a5b68a6fc3de4e1473",
      "vout": 5,
      "prevout": {
        "scriptpubkey": "5120e4fe5e1b932f23b1305a5139525ce7610df5591461834458c34f40166bff88f2",
        "scriptpubkey_asm": "OP_PUSHNUM_1 OP_PUSHBYTES_32 e4fe5e1b932f23b1305a5139525ce7610df5591461834458c34f40166bff88f2",
        "scriptpubkey_type": "v1_p2tr",
        "scriptpubkey_address": "bc1punl9uxun9u3mzvz62yu4yh88vyxl2kg5vxp5gkxrfaqpv6ll3reqe5rddr",
        "value": 2834
      },
      "scriptsig": "",
      "scriptsig_asm": "",
      "witness": [
        "f8579aef80e867c7f4620a955df79594a106e4221ecaf8a17be7ecf3b9f28b958e888b50765fc16d9f95656833a73d1f8e175552273658295f67d2a79409516b",
        "2018f957485c65a251f018149c251301237880c620a3f663c079260f83e2e93ce6ac0063036f726401011e6170706c69636174696f6e2f6a736f6e3b636861727365743d7574662d38004cbf7b2270223a22706f772d3230222c226f70223a226d696e74222c227469636b223a2250455045222c22616d74223a2231303030222c22736f6c7574696f6e223a22504550453a6263317173637064736c337671777466366a733538786832307637717775716839336e777737783763793a303030303030303030303030303030303030303139393431613561653132383937363539383134343239323533333030353762306461393666336465613163353a3232333535383335323032227d68",
        "c1962df30d9be27fcd73fd9a4053b3728334e273f9929aba028483b2e810075667"
      ],
      "is_coinbase": false,
      "sequence": 4294967295
    }
  ],
  "vout": [
    {
      "scriptpubkey": "00148602d87e2c03969d4a1439aea7b3c0770172c66e",
      "scriptpubkey_asm": "OP_0 OP_PUSHBYTES_20 8602d87e2c03969d4a1439aea7b3c0770172c66e",
      "scriptpubkey_type": "v0_p2wpkh",
      "scriptpubkey_address": "bc1qscpdsl3vqwtf6js58xh20v7qwuqh93nww7x7cy",
      "value": 546
    }
  ],
  "size": 455,
  "weight": 701,
  "fee": 2288,
  "status": {
    "confirmed": true,
    "block_height": 834460,
    "block_hash": "00000000000000000000484a79b643b2524bbce82e5d8a442013fa5b8905ed98",
    "block_time": 1710307468
  },
  "hex": "0200000000010173144edec36f8ab6a5d51b210199630673b59d603eb881cd4a8c56c51927d80a0500000000ffffffff0122020000000000001600148602d87e2c03969d4a1439aea7b3c0770172c66e0340f8579aef80e867c7f4620a955df79594a106e4221ecaf8a17be7ecf3b9f28b958e888b50765fc16d9f95656833a73d1f8e175552273658295f67d2a79409516bfd0c012018f957485c65a251f018149c251301237880c620a3f663c079260f83e2e93ce6ac0063036f726401011e6170706c69636174696f6e2f6a736f6e3b636861727365743d7574662d38004cbf7b2270223a22706f772d3230222c226f70223a226d696e74222c227469636b223a2250455045222c22616d74223a2231303030222c22736f6c7574696f6e223a22504550453a6263317173637064736c337671777466366a733538786832307637717775716839336e777737783763793a303030303030303030303030303030303030303139393431613561653132383937363539383134343239323533333030353762306461393666336465613163353a3232333535383335323032227d6821c1962df30d9be27fcd73fd9a4053b3728334e273f9929aba028483b2e81007566700000000"
}