{
  "txid": "d559674a27da94f736958c873402f4d9a08cc193e192450564064ce9448fabdb",
  "version": 2,
  "locktime": 0,
  "vin": [
    {
      "txid": "4a293f57fc894c5b2a95a68f0c48ee5ddfa52aba9a44ca5f9cf34762036895bb",
      "vout": 0,
      "prevout": {
        "scriptpubkey": "51205e5c537e79de133a87cfc5ebdca8d12d8d1fce7b47aaf14f0001ef7a364789d1",
        "scriptpubkey_asm": "OP_PUSHNUM_1 OP_PUSHBYTES_32 5e5c537e79de133a87cfc5ebdca8d12d8d1fce7b47aaf14f0001ef7a364789d1",
        "scriptpubkey_type": "v1_p2tr",
        "scriptpubkey_address": "bc1ptew9xlnemcfn4p70ch4ae2x39kx3lnnmg740zncqq8hh5dj838gs3j9vt4",
        "value": 546
      },
      "scriptsig": "",
      "scriptsig_asm": "",
      "witness": [
        "be0209e38dbacecef0d9be9bff38b15bdc76c000ac0e9e281758b6a462e9dc3e42095f2170bb057bcf7c5f202b4c4e2328531feb02677ea50c6190fc358046e6"
      ],
      "is_coinbase": false,
      "sequence": 2147483649
    },
    {
      "txid": "9f2ffeaa42a3c4fbb8bc62066d570c18339517edc514604cd8cc17f33fa1de84",
      "vout": 2,
      "prevout": {
        "scriptpubkey": "51205e5c537e79de133a87cfc5ebdca8d12d8d1fce7b47aaf14f0001ef7a364789d1",
        "scriptpubkey_asm": "OP_PUSHNUM_1 OP_PUSHBYTES_32 5e5c537e79de133a87cfc5ebdca8d12d8d1fce7b47aaf14f0001ef7a364789d1",
        "scriptpubkey_type": "v1_p2tr",
        "scriptpubkey_address": "bc1ptew9xlnemcfn4p70ch4ae2x39kx3lnnmg740zncqq8hh5dj838gs3j9vt4",
        "value": 692440
      },
      "scriptsig": "",
      "scriptsig_asm": "",
      "witness": [
        "9d1f1b06848de28538ab1ce679d088e53e75162ec72d3b81f42655a506817d47b2bdb7f79ce3fdfb088d2201783c20fe7d0f3ecd60b5839b0969a6932b1f8e5f"
      ],
      "is_coinbase": false,
      "sequence": 2147483649
    }
  ],
  "vout": [
    {
      "scriptpubkey": "51205e5c537e79de133a87cfc5ebdca8d12d8d1fce7b47aaf14f0001ef7a364789d1",
      "scriptpubkey_asm": "OP_PUSHNUM_1 OP_PUSHBYTES_32 5e5c537e79de133a87cfc5ebdca8d12d8d1fce7b47aaf14f0001ef7a364789d1",
      "scriptpubkey_type": "v1_p2tr",
      "scriptpubkey_address": "bc1ptew9xlnemcfn4p70ch4ae2x39kx3lnnmg740zncqq8hh5dj838gs3j9vt4",
      "value": 546
    },
    {
      "scriptpubkey": "51205e5c537e79de133a87cfc5ebdca8d12d8d1fce7b47aaf14f0001ef7a364789d1",
      "scriptpubkey_asm": "OP_PUSHNUM_1 OP_PUSHBYTES_32 5e5c537e79de133a87cfc5ebdca8d12d8d1fce7b47aaf14f0001ef7a364789d1",
      "scriptpubkey_type": "v1_p2tr",
      "scriptpubkey_address": "bc1ptew9xlnemcfn4p70ch4ae2x39kx3lnnmg740zncqq8hh5dj838gs3j9vt4",
      "value": 690119
    }
  ],
  "size": 312,
  "weight": 846,
  "fee": 2321,
  "status": {
    "confirmed": true,
    "block_height": 834464,
    "block_hash": "0000000000000000000177a0869a911a2b65c9bdcd5a8bcb02b68f305bee848e",
    "block_time": 1710308296
  },
  "hex": "02000000000102bb9568036247f39c5fca449aba2aa5df5dee480c8fa6952a5b4c89fc573f294a00000000000100008084dea13ff317ccd84c6014c5ed179533180c576d0662bcb8fbc4a342aafe2f9f0200000000010000800222020000000000002251205e5c537e79de133a87cfc5ebdca8d12d8d1fce7b47aaf14f0001ef7a364789d1c7870a00000000002251205e5c537e79de133a87cfc5ebdca8d12d8d1fce7b47aaf14f0001ef7a364789d10140be0209e38dbacecef0d9be9bff38b15bdc76c000ac0e9e281758b6a462e9dc3e42095f2170bb057bcf7c5f202b4c4e2328531feb02677ea50c6190fc358046e601409d1f1b06848de28538ab1ce679d088e53e75162ec72d3b81f42655a506817d47b2bdb7f79ce3fdfb088d2201783c20fe7d0f3ecd60b5839b0969a6932b1f8e5f00000000"
}