{
  "txid": "d55aca5b4557ee675e81889d1126530759a0d30820b1bf62a1eaa3fbc30ed56e",
  "version": 2,
  "locktime": 0,
  "vin": [
    {
      "txid": "518232e2d34e750e5214622517d872b5058c90762ee338a40437a27c64ac03e8",
      "vout": 1,
      "prevout": {
        "scriptpubkey": "00148c20ea06e9c3c967e33cc86f3fed03f33a052835",
        "scriptpubkey_asm": "OP_0 OP_PUSHBYTES_20 8c20ea06e9c3c967e33cc86f3fed03f33a052835",
        "scriptpubkey_type": "v0_p2wpkh",
        "scriptpubkey_address": "bc1q3ssw5phfc0yk0ceuephnlmgr7vaq22p4lr6wwj",
        "value": 781210
      },
      "scriptsig": "",
      "scriptsig_asm": "",
      "witness": [
        "3045022100d217abe395fd073a5d6cb6c587f0898a8b3208c7f87021ef7ec58fde91bc61d602204193e1cc3baf34ca499ce6115a22b0ab55e9b7db201e3e8936a4ab975698477e01",
        "024653480745cd84068d26959f738c754b3bd3134492d03954197e893d1a15dd54"
      ],
      "is_coinbase": false,
      "sequence": 4294967295
    }
  ],
  "vout": [
    {
      "scriptpubkey": "a91431863e73b4853ccb4b0545fd7d5f3c67521372e987",
      "scriptpubkey_asm": "OP_HASH160 OP_PUSHBYTES_20 31863e73b4853ccb4b0545fd7d5f3c67521372e9 OP_EQUAL",
      "scriptpubkey_type": "p2sh",
      "scriptpubkey_address": "36CsrNosyxByEXDNgJkoH7TsmWxXyDF9QV",
      "value": 205488
    },
    {
      "scriptpubkey": "00148c20ea06e9c3c967e33cc86f3fed03f33a052835",
      "scriptpubkey_asm": "OP_0 OP_PUSHBYTES_20 8c20ea06e9c3c967e33cc86f3fed03f33a052835",
      "scriptpubkey_type": "v0_p2wpkh",
      "scriptpubkey_address": "bc1q3ssw5phfc0yk0ceuephnlmgr7vaq22p4lr6wwj",
      "value": 572990
    }
  ],
  "size": 224,
  "weight": 566,
  "fee": 2732,
  "status": {
    "confirmed": true,
    "block_height": 834638,
    "block_hash": "000000000000000000025f742c626208ac87e0b7d15054abb4a19ca2d735a54e",
    "block_time": 1710405325
  },
  "hex": "02000000000101e803ac647ca23704a438e32e76908c05b572d817256214520e754ed3e23282510100000000ffffffff02b02203000000000017a91431863e73b4853ccb4b0545fd7d5f3c67521372e9873ebe0800000000001600148c20ea06e9c3c967e33cc86f3fed03f33a05283502483045022100d217abe395fd073a5d6cb6c587f0898a8b3208c7f87021ef7ec58fde91bc61d602204193e1cc3baf34ca499ce6115a22b0ab55e9b7db201e3e8936a4ab975698477e0121024653480745cd84068d26959f738c754b3bd3134492d03954197e893d1a15dd5400000000"
}