{
  "txid": "d55f5fe8070f399887c98bc27f29827bba4ec26f158ea704e555eaf50e0137e5",
  "version": 1,
  "locktime": 0,
  "vin": [
    {
      "txid": "0400d6a5f831a84c825af7856ca32c5d2b926a2fad5db97e96a3946dd5353548",
      "vout": 1,
      "prevout": {
        "scriptpubkey": "a914eb2840f30a0e9d29124747c6975563ae31f6f08287",
        "scriptpubkey_asm": "OP_HASH160 OP_PUSHBYTES_20 eb2840f30a0e9d29124747c6975563ae31f6f082 OP_EQUAL",
        "scriptpubkey_type": "p2sh",
        "scriptpubkey_address": "3P8QwVzGpqrav8ZTxKm5zqZ6MuwTwpFDEJ",
        "value": 639872
      },
      "scriptsig": "160014a679108fc1da82adbbf73eb43b3079f71c7e78e9",
      "scriptsig_asm": "OP_PUSHBYTES_22 0014a679108fc1da82adbbf73eb43b3079f71c7e78e9",
      "witness": [
        "304402204aceba4621eb214699bc5f4cd047da6800511126a3f42afc151fa5a8f33cc1b7022060fe713175893fad39805a871a6884cc43debb2b77a260c10b799932ebf3cafc01",
        "03ea1fdbc2a853183d1b419a32cd016f8cb83663bfebe2911a4bfab0076008f6b6"
      ],
      "is_coinbase": false,
      "sequence": 4294967295,
      "inner_redeemscript_asm": "OP_0 OP_PUSHBYTES_20 a679108fc1da82adbbf73eb43b3079f71c7e78e9"
    },
    {
      "txid": "18ef74a9923c3b5eeef4938340b361537779196812b76d7e7a284688a869cef5",
      "vout": 1,
      "prevout": {
        "scriptpubkey": "a914d7a8de86c05d18c357d3cbd84ea96a476657a19687",
        "scriptpubkey_asm": "OP_HASH160 OP_PUSHBYTES_20 d7a8de86c05d18c357d3cbd84ea96a476657a196 OP_EQUAL",
        "scriptpubkey_type": "p2sh",
        "scriptpubkey_address": "3MMKW2aaacgFN12J6G6mqkUNrnue2Ext9M",
        "value": 649870
      },
      "scriptsig": "1600149dab175931a072a025512f44c0c89fcc784b363d",
      "scriptsig_asm": "OP_PUSHBYTES_22 00149dab175931a072a025512f44c0c89fcc784b363d",
      "witness": [
        "3044022050725c2a8e325fa512d62d92ae127f4525de85ededfd089dd4cdd709aba412bc02206db5eb3699087502ec0951c3b5bb753321b0140a808204aad4245ea09699310401",
        "02f8df89f0f5e146febdcd49449e628f52856b1c6ba2f21d012d42769069c1a49f"
      ],
      "is_coinbase": false,
      "sequence": 4294967295,
      "inner_redeemscript_asm": "OP_0 OP_PUSHBYTES_20 9dab175931a072a025512f44c0c89fcc784b363d"
    },
    {
      "txid": "ada3bb5f622299b83250c75e17ab37d22bf6a9e61e2323769a67e2d53b3682d1",
      "vout": 1,
      "prevout": {
        "scriptpubkey": "a914951b927334828ccfd2c09691e69320d97a79d4a487",
        "scriptpubkey_asm": "OP_HASH160 OP_PUSHBYTES_20 951b927334828ccfd2c09691e69320d97a79d4a4 OP_EQUAL",
        "scriptpubkey_type": "p2sh",
        "scriptpubkey_address": "3FHRdsGbfP3mSWZ4M3ZUKUz35zwQzZuoqt",
        "value": 7435
      },
      "scriptsig": "16001438a3a5b8369ed2d16ab311a2fb6911a1b511e05f",
      "scriptsig_asm": "OP_PUSHBYTES_22 001438a3a5b8369ed2d16ab311a2fb6911a1b511e05f",
      "witness": [
        "3044022032b8083fc211c4acd923f0a81f778fde6afd269cb89b04f5d34faadba44697af02206f6341b2b64860d49ee6a1d6df1dd74826c03f133d03c7819f6583b9a9432a1c01",
        "022f2986b2036d1abc26d9ec2be4701f0baa6ccdbc59772c753a841ad5a151eb95"
      ],
      "is_coinbase": false,
      "sequence": 4294967295,
      "inner_redeemscript_asm": "OP_0 OP_PUSHBYTES_20 38a3a5b8369ed2d16ab311a2fb6911a1b511e05f"
    },
    {
      "txid": "e8cf1400a87061fd6adc5d0df1609a30e969bb47f3f1318707f81646e06d3acb",
      "vout": 1,
      "prevout": {
        "scriptpubkey": "a914d37d59d0d4d46201f3d329b0699266e00471754b87",
        "scriptpubkey_asm": "OP_HASH160 OP_PUSHBYTES_20 d37d59d0d4d46201f3d329b0699266e00471754b OP_EQUAL",
        "scriptpubkey_type": "p2sh",
        "scriptpubkey_address": "3LyGfYopGSAZPYZ7heuXckDmGd6fRzk9CA",
        "value": 542866
      },
      "scriptsig": "16001412019b021e4a2a21256c1d5266d2e3385c556c53",
      "scriptsig_asm": "OP_PUSHBYTES_22 001412019b021e4a2a21256c1d5266d2e3385c556c53",
      "witness": [
        "3045022100d6c4c1f29723ea45966aa2b32ecf0adcef80eabd44628f9794795636cfab9f350220641d1314d098500d2092a28d522a4130a8467d5a7da0c8dc54390a81754e80b601",
        "029dfc67d25171af0491d0ade4df6cc47ff711041f0741f8babd00734f9fc2d0df"
      ],
      "is_coinbase": false,
      "sequence": 4294967295,
      "inner_redeemscript_asm": "OP_0 OP_PUSHBYTES_20 12019b021e4a2a21256c1d5266d2e3385c556c53"
    },
    {
      "txid": "671da0ef123fc6616deb3c77290d5f2c264bd2baebd968dcc3b8c8f5bd52b85e",
      "vout": 1,
      "prevout": {
        "scriptpubkey": "a9145effb564eecee05f09b9952765cf3bd024fc55b587",
        "scriptpubkey_asm": "OP_HASH160 OP_PUSHBYTES_20 5effb564eecee05f09b9952765cf3bd024fc55b5 OP_EQUAL",
        "scriptpubkey_type": "p2sh",
        "scriptpubkey_address": "3AMKmX3b2e2719oSX1EhugAFtEgwyWmnfP",
        "value": 299458
      },
      "scriptsig": "160014afc66109814066ecbdbb380efececfd9f0edb236",
      "scriptsig_asm": "OP_PUSHBYTES_22 0014afc66109814066ecbdbb380efececfd9f0edb236",
      "witness": [
        "304402205d28be74e02d1f7261ab70b361ca9e28e8378f9cfd7f1c62c6363b1b14ca76d602203f036b184f8de9f725f4264a1d20c273f4255fc92bcbb368874fdd32fdc0932801",
        "03453510d651ab971f5140447bb1232de3ab1603d54ceba61c563b009ef73c2b23"
      ],
      "is_coinbase": false,
      "sequence": 4294967295,
      "inner_redeemscript_asm": "OP_0 OP_PUSHBYTES_20 afc66109814066ecbdbb380efececfd9f0edb236"
    },
    {
      "txid": "de677f17806765fdf9b85bea0ada2da4aecf1755e75a420a1338bc0175ca935b",
      "vout": 1,
      "prevout": {
        "scriptpubkey": "a914e31084c4dd15333d22c831b9592e307ecc9c805787",
        "scriptpubkey_asm": "OP_HASH160 OP_PUSHBYTES_20 e31084c4dd15333d22c831b9592e307ecc9c8057 OP_EQUAL",
        "scriptpubkey_type": "p2sh",
        "scriptpubkey_address": "3NPd6pjEa4yZ8jcKpFDp26wKtAq4YQtxMi",
        "value": 640589
      },
      "scriptsig": "160014a48a36076adce70e729312aa2bb3961bbc8c1759",
      "scriptsig_asm": "OP_PUSHBYTES_22 0014a48a36076adce70e729312aa2bb3961bbc8c1759",
      "witness": [
        "3045022100dfaa10044f26a2390befddfde455d884050c959e7e21603c599706d45697a7b602202019006ecf8849fc33197ca15a894229ba2d7b1b38418b395c43eeb47c51994a01",
        "02aa9174d6b355da9d02e148b96d657d4a9bb27892380fd3b4e11775d2ae553b11"
      ],
      "is_coinbase": false,
      "sequence": 4294967295,
      "inner_redeemscript_asm": "OP_0 OP_PUSHBYTES_20 a48a36076adce70e729312aa2bb3961bbc8c1759"
    },
    {
      "txid": "c9aa36bd942823acdc56ba49c96d89e73e45679a3048bc5b11528150298ac904",
      "vout": 1,
      "prevout": {
        "scriptpubkey": "a914677cf7d9563b27d688d87aa6805f2f710e19e66687",
        "scriptpubkey_asm": "OP_HASH160 OP_PUSHBYTES_20 677cf7d9563b27d688d87aa6805f2f710e19e666 OP_EQUAL",
        "scriptpubkey_type": "p2sh",
        "scriptpubkey_address": "3B8DEF1FJDHFt2mBS4KjJ4WqMZsksiu9wA",
        "value": 366601
      },
      "scriptsig": "16001405f70c4e80cda638001fd7e3f57b0bfc43f7e830",
      "scriptsig_asm": "OP_PUSHBYTES_22 001405f70c4e80cda638001fd7e3f57b0bfc43f7e830",
      "witness": [
        "304402205999f32a739c02176cfad01cfb663b1bf909222405d6f72cc48cc66c37749896022069dc15b1d3f06c05595a2882585cbef83f812bd33122f3c6f5c302301c57086801",
        "0233eed3c3b1e0a91de09d9ebdf13efcff8fa9cd0f83fb7fc35c08a3cbd712c0b5"
      ],
      "is_coinbase": false,
      "sequence": 4294967295,
      "inner_redeemscript_asm": "OP_0 OP_PUSHBYTES_20 05f70c4e80cda638001fd7e3f57b0bfc43f7e830"
    },
    {
      "txid": "93af7b79562cd7f5db9da99b0965fb6d73c333db4ee4d67e0b0a837949fdc2a4",
      "vout": 1,
      "prevout": {
        "scriptpubkey": "a91486a217c0bcbf4bb8932457f3bb617fb16d8d28b087",
        "scriptpubkey_asm": "OP_HASH160 OP_PUSHBYTES_20 86a217c0bcbf4bb8932457f3bb617fb16d8d28b0 OP_EQUAL",
        "scriptpubkey_type": "p2sh",
        "scriptpubkey_address": "3DxteeqTiNKMuSmJQpUCawjXTyT5ta5Ddz",
        "value": 306438
      },
      "scriptsig": "1600145d8b6c24a560396a048752bf90a3e683fad0cba2",
      "scriptsig_asm": "OP_PUSHBYTES_22 00145d8b6c24a560396a048752bf90a3e683fad0cba2",
      "witness": [
        "304402206b0d187b2147073237d9db9c87da65ef34d39443d6bea8004fa3a296ec464a3d022034299179537734fefae9d345333160ed3a033e47ea8e8d0de8819740a8b7af8801",
        "023a9dffde38f7bc3f0f6ba2b4cf5fb254cb735716fbe3db1ddcc7fda405b13ef3"
      ],
      "is_coinbase": false,
      "sequence": 4294967295,
      "inner_redeemscript_asm": "OP_0 OP_PUSHBYTES_20 5d8b6c24a560396a048752bf90a3e683fad0cba2"
    },
    {
      "txid": "59ebe2d81eb2805041d180b71e542513859ebdb009ee460eab4c3eef69e2e5a6",
      "vout": 1,
      "prevout": {
        "scriptpubkey": "a9144762e5761bec341a575ad2ad72e49b24739dd99c87",
        "scriptpubkey_asm": "OP_HASH160 OP_PUSHBYTES_20 4762e5761bec341a575ad2ad72e49b24739dd99c OP_EQUAL",
        "scriptpubkey_type": "p2sh",
        "scriptpubkey_address": "38CUNbqT8KtAi8949eJPrzK5Js8tXShFQa",
        "value": 544668
      },
      "scriptsig": "1600147492d63361cc651f1a206901f81e1116b5038bfc",
      "scriptsig_asm": "OP_PUSHBYTES_22 00147492d63361cc651f1a206901f81e1116b5038bfc",
      "witness": [
        "3044022045c0798f0091f5d5e305323da258d1179a995de9460d2512a541776b0914d657022020f4797f2e655266b29acc83ffa8aba6750c5479278a5bef0620d3baae5a971c01",
        "0319c2358c5f7c151dcfeb15c4e1b131b5fcc2acf2104ef87fa10e2d3e5a8634f0"
      ],
      "is_coinbase": false,
      "sequence": 4294967295,
      "inner_redeemscript_asm": "OP_0 OP_PUSHBYTES_20 7492d63361cc651f1a206901f81e1116b5038bfc"
    }
  ],
  "vout": [
    {
      "scriptpubkey": "0014e9863809a48e72364d1c666f053a535303ba36a5",
      "scriptpubkey_asm": "OP_0 OP_PUSHBYTES_20 e9863809a48e72364d1c666f053a535303ba36a5",
      "scriptpubkey_type": "v0_p2wpkh",
      "scriptpubkey_address": "bc1qaxrrszdy3eervnguvehs2wjn2vpm5d49fcxefj",
      "value": 3980577
    }
  ],
  "size": 1584,
  "weight": 3435,
  "fee": 17220,
  "status": {
    "confirmed": true,
    "block_height": 834638,
    "block_hash": "000000000000000000025f742c626208ac87e0b7d15054abb4a19ca2d735a54e",
    "block_time": 1710405325
  },
  "hex": "01000000000109483535d56d94a3967eb95dad2f6a922b5d2ca36c85f75a824ca831f8a5d600040100000017160014a679108fc1da82adbbf73eb43b3079f71c7e78e9fffffffff5ce69a88846287a7e6db712681979775361b3408393f4ee5e3b3c92a974ef1801000000171600149dab175931a072a025512f44c0c89fcc784b363dffffffffd182363bd5e2679a7623231ee6a9f62bd237ab175ec75032b89922625fbba3ad010000001716001438a3a5b8369ed2d16ab311a2fb6911a1b511e05fffffffffcb3a6de04616f8078731f1f347bb69e9309a60f10d5ddc6afd6170a80014cfe8010000001716001412019b021e4a2a21256c1d5266d2e3385c556c53ffffffff5eb852bdf5c8b8c3dc68d9ebbad24b262c5f0d29773ceb6d61c63f12efa01d670100000017160014afc66109814066ecbdbb380efececfd9f0edb236ffffffff5b93ca7501bc38130a425ae75517cfaea42dda0aea5bb8f9fd656780177f67de0100000017160014a48a36076adce70e729312aa2bb3961bbc8c1759ffffffff04c98a29508152115bbc48309a67453ee7896dc949ba56dcac232894bd36aac9010000001716001405f70c4e80cda638001fd7e3f57b0bfc43f7e830ffffffffa4c2fd4979830a0b7ed6e44edb33c3736dfb65099ba99ddbf5d72c56797baf9301000000171600145d8b6c24a560396a048752bf90a3e683fad0cba2ffffffffa6e5e269ef3e4cab0e46ee09b0bd9e851325541eb780d1415080b21ed8e2eb5901000000171600147492d63361cc651f1a206901f81e1116b5038bfcffffffff0121bd3c0000000000160014e9863809a48e72364d1c666f053a535303ba36a50247304402204aceba4621eb214699bc5f4cd047da6800511126a3f42afc151fa5a8f33cc1b7022060fe713175893fad39805a871a6884cc43debb2b77a260c10b799932ebf3cafc012103ea1fdbc2a853183d1b419a32cd016f8cb83663bfebe2911a4bfab0076008f6b602473044022050725c2a8e325fa512d62d92ae127f4525de85ededfd089dd4cdd709aba412bc02206db5eb3699087502ec0951c3b5bb753321b0140a808204aad4245ea096993104012102f8df89f0f5e146febdcd49449e628f52856b1c6ba2f21d012d42769069c1a49f02473044022032b8083fc211c4acd923f0a81f778fde6afd269cb89b04f5d34faadba44697af02206f6341b2b64860d49ee6a1d6df1dd74826c03f133d03c7819f6583b9a9432a1c0121022f2986b2036d1abc26d9ec2be4701f0baa6ccdbc59772c753a841ad5a151eb9502483045022100d6c4c1f29723ea45966aa2b32ecf0adcef80eabd44628f9794795636cfab9f350220641d1314d098500d2092a28d522a4130a8467d5a7da0c8dc54390a81754e80b60121029dfc67d25171af0491d0ade4df6cc47ff711041f0741f8babd00734f9fc2d0df0247304402205d28be74e02d1f7261ab70b361ca9e28e8378f9cfd7f1c62c6363b1b14ca76d602203f036b184f8de9f725f4264a1d20c273f4255fc92bcbb368874fdd32fdc09328012103453510d651ab971f5140447bb1232de3ab1603d54ceba61c563b009ef73c2b2302483045022100dfaa10044f26a2390befddfde455d884050c959e7e21603c599706d45697a7b602202019006ecf8849fc33197ca15a894229ba2d7b1b38418b395c43eeb47c51994a012102aa9174d6b355da9d02e148b96d657d4a9bb27892380fd3b4e11775d2ae553b110247304402205999f32a739c02176cfad01cfb663b1bf909222405d6f72cc48cc66c37749896022069dc15b1d3f06c05595a2882585cbef83f812bd33122f3c6f5c302301c57086801210233eed3c3b1e0a91de09d9ebdf13efcff8fa9cd0f83fb7fc35c08a3cbd712c0b50247304402206b0d187b2147073237d9db9c87da65ef34d39443d6bea8004fa3a296ec464a3d022034299179537734fefae9d345333160ed3a033e47ea8e8d0de8819740a8b7af880121023a9dffde38f7bc3f0f6ba2b4cf5fb254cb735716fbe3db1ddcc7fda405b13ef302473044022045c0798f0091f5d5e305323da258d1179a995de9460d2512a541776b0914d657022020f4797f2e655266b29acc83ffa8aba6750c5479278a5bef0620d3baae5a971c01210319c2358c5f7c151dcfeb15c4e1b131b5fcc2acf2104ef87fa10e2d3e5a8634f000000000"
}