{
  "txid": "d5794254038013648a6bb807b81d1991cf33fbb49a05bdb9a92a66b54ca088d8",
  "version": 2,
  "locktime": 0,
  "vin": [
    {
      "txid": "e054c137725b7a5d163dade8f5cd68c0927a2e8b00d920927dab9a7ba934ce5f",
      "vout": 20,
      "prevout": {
        "scriptpubkey": "5120e4b9653f8534e522db7ed1067ab13182b13363509ab497f4a31b0e99884be00d",
        "scriptpubkey_asm": "OP_PUSHNUM_1 OP_PUSHBYTES_32 e4b9653f8534e522db7ed1067ab13182b13363509ab497f4a31b0e99884be00d",
        "scriptpubkey_type": "v1_p2tr",
        "scriptpubkey_address": "bc1pujuk20u9xnjj9km76yr84vf3s2cnxc6sn26f0a9rrv8fnzztuqxsvrvfz5",
        "value": 2658
      },
      "scriptsig": "",
      "scriptsig_asm": "",
      "witness": [
        "ed111787ad52b79eccda1be1ab60f52a4b0abd9f87b8f075e0bd5bc59c73564d859505a6510342dc0e10c5b14a58c30ba5f0dd3797a3b02d770440a71dc5c41d",
        "2072567d8ae7caaaa47096291365d8ba6813f1a057250c5bf7e11f19d354ce26aaac0063036f726401011e6170706c69636174696f6e2f6a736f6e3b636861727365743d7574662d38004cbf7b2270223a22706f772d3230222c226f70223a226d696e74222c227469636b223a2250455045222c22616d74223a2231303030222c22736f6c7574696f6e223a22504550453a6263317139736a36303977756e7468646a636d7a746a796379766475616e653071716b78726e773932653a303030303030303030303030303030303030303139393431613561653132383937363539383134343239323533333030353762306461393666336465613163353a3630363335383930383731227d68",
        "c1a0e509a599b6542378e5ac7959d344a1bebc95ec9899fd4ccf1904beefe3f047"
      ],
      "is_coinbase": false,
      "sequence": 4294967295
    }
  ],
  "vout": [
    {
      "scriptpubkey": "00142c25a795dc9aeed963625c898231bcecf2f002c6",
      "scriptpubkey_asm": "OP_0 OP_PUSHBYTES_20 2c25a795dc9aeed963625c898231bcecf2f002c6",
      "scriptpubkey_type": "v0_p2wpkh",
      "scriptpubkey_address": "bc1q9sj609wunthdjcmztjycyvduane0qqkxrnw92e",
      "value": 546
    }
  ],
  "size": 455,
  "weight": 701,
  "fee": 2112,
  "status": {
    "confirmed": true,
    "block_height": 834460,
    "block_hash": "00000000000000000000484a79b643b2524bbce82e5d8a442013fa5b8905ed98",
    "block_time": 1710307468
  },
  "hex": "020000000001015fce34a97b9aab7d9220d9008b2e7a92c068cdf5e8ad3d165d7a5b7237c154e01400000000ffffffff0122020000000000001600142c25a795dc9aeed963625c898231bcecf2f002c60340ed111787ad52b79eccda1be1ab60f52a4b0abd9f87b8f075e0bd5bc59c73564d859505a6510342dc0e10c5b14a58c30ba5f0dd3797a3b02d770440a71dc5c41dfd0c012072567d8ae7caaaa47096291365d8ba6813f1a057250c5bf7e11f19d354ce26aaac0063036f726401011e6170706c69636174696f6e2f6a736f6e3b636861727365743d7574662d38004cbf7b2270223a22706f772d3230222c226f70223a226d696e74222c227469636b223a2250455045222c22616d74223a2231303030222c22736f6c7574696f6e223a22504550453a6263317139736a36303977756e7468646a636d7a746a796379766475616e653071716b78726e773932653a303030303030303030303030303030303030303139393431613561653132383937363539383134343239323533333030353762306461393666336465613163353a3630363335383930383731227d6821c1a0e509a599b6542378e5ac7959d344a1bebc95ec9899fd4ccf1904beefe3f04700000000"
}