{
  "txid": "d57b58e523930fdb7965eba7a823757ad3813e51a688a6b5d4105bfe40c870c7",
  "version": 1,
  "locktime": 0,
  "vin": [
    {
      "txid": "c362b9d7da23ff6b60ca281217b45de1d6c51b2eb3c08831600b6818796d55c1",
      "vout": 1,
      "prevout": {
        "scriptpubkey": "a914e23d451894ba484e750e9bd84a01a2fe098f136887",
        "scriptpubkey_asm": "OP_HASH160 OP_PUSHBYTES_20 e23d451894ba484e750e9bd84a01a2fe098f1368 OP_EQUAL",
        "scriptpubkey_type": "p2sh",
        "scriptpubkey_address": "3NKG31Favo5XshRofrP3bkR8XwrpTkr83K",
        "value": 33745148
      },
      "scriptsig": "22002068110339ed92ef6cfbbaa664c6680379356d7380980d53142ecede36ff86abe7",
      "scriptsig_asm": "OP_PUSHBYTES_34 002068110339ed92ef6cfbbaa664c6680379356d7380980d53142ecede36ff86abe7",
      "witness": [
        "",
        "304402206e721269f07f50f8fd888c1d13676bb1eca8e18bb2f46033ce773c838c70c7d7022024c371348c9f14d1868b13feb62d0a2306c5a9a4438e3a393b3ff1fe15fb1ba401",
        "3044022044763e7d8f8dd362543efc9a0104e52bc173b964b70d56c17c5eca91276ff969022074157c491f8c9a4b158b01c75fd3d60895ad951c69d92e494cd2a9de0186c93201",
        "52210353b18934cff63be86b2056ff76e14cc40a707e743e3740701e5db9247901e60521021c9195688fecdd9d88c74b0057c496939c34c4b6a3a18746884e0137622bf40752ae"
      ],
      "is_coinbase": false,
      "sequence": 4294967295,
      "inner_redeemscript_asm": "OP_0 OP_PUSHBYTES_32 68110339ed92ef6cfbbaa664c6680379356d7380980d53142ecede36ff86abe7",
      "inner_witnessscript_asm": "OP_PUSHNUM_2 OP_PUSHBYTES_33 0353b18934cff63be86b2056ff76e14cc40a707e743e3740701e5db9247901e605 OP_PUSHBYTES_33 021c9195688fecdd9d88c74b0057c496939c34c4b6a3a18746884e0137622bf407 OP_PUSHNUM_2 OP_CHECKMULTISIG"
    }
  ],
  "vout": [
    {
      "scriptpubkey": "a9142ebd62eb6d507e58c5ddc0d7d573a59e0563b35887",
      "scriptpubkey_asm": "OP_HASH160 OP_PUSHBYTES_20 2ebd62eb6d507e58c5ddc0d7d573a59e0563b358 OP_EQUAL",
      "scriptpubkey_type": "p2sh",
      "scriptpubkey_address": "35x9tAar1HZsvsaLqQfqBf21cdxREPS2Fb",
      "value": 75541
    },
    {
      "scriptpubkey": "a914e23d451894ba484e750e9bd84a01a2fe098f136887",
      "scriptpubkey_asm": "OP_HASH160 OP_PUSHBYTES_20 e23d451894ba484e750e9bd84a01a2fe098f1368 OP_EQUAL",
      "scriptpubkey_type": "p2sh",
      "scriptpubkey_address": "3NKG31Favo5XshRofrP3bkR8XwrpTkr83K",
      "value": 33666311
    }
  ],
  "size": 370,
  "weight": 820,
  "fee": 3296,
  "status": {
    "confirmed": true,
    "block_height": 834460,
    "block_hash": "00000000000000000000484a79b643b2524bbce82e5d8a442013fa5b8905ed98",
    "block_time": 1710307468
  },
  "hex": "01000000000101c1556d7918680b603188c0b32e1bc5d6e15db4171228ca606bff23dad7b962c3010000002322002068110339ed92ef6cfbbaa664c6680379356d7380980d53142ecede36ff86abe7ffffffff02152701000000000017a9142ebd62eb6d507e58c5ddc0d7d573a59e0563b3588707b501020000000017a914e23d451894ba484e750e9bd84a01a2fe098f136887040047304402206e721269f07f50f8fd888c1d13676bb1eca8e18bb2f46033ce773c838c70c7d7022024c371348c9f14d1868b13feb62d0a2306c5a9a4438e3a393b3ff1fe15fb1ba401473044022044763e7d8f8dd362543efc9a0104e52bc173b964b70d56c17c5eca91276ff969022074157c491f8c9a4b158b01c75fd3d60895ad951c69d92e494cd2a9de0186c932014752210353b18934cff63be86b2056ff76e14cc40a707e743e3740701e5db9247901e60521021c9195688fecdd9d88c74b0057c496939c34c4b6a3a18746884e0137622bf40752ae00000000"
}