{
  "txid": "d58093702c1437a300914e3b48fe325655ce6d7ef12d9b77ced426936fb30bd6",
  "version": 2,
  "locktime": 834458,
  "vin": [
    {
      "txid": "f304a091a47710db46d01d4a8f77191da2fe53c71d7fabd1a9c5ef2ff0745418",
      "vout": 0,
      "prevout": {
        "scriptpubkey": "00148655ffaf81b23d730db4f881e53677e4a497f6aa",
        "scriptpubkey_asm": "OP_0 OP_PUSHBYTES_20 8655ffaf81b23d730db4f881e53677e4a497f6aa",
        "scriptpubkey_type": "v0_p2wpkh",
        "scriptpubkey_address": "bc1qse2lltupkg7hxrd5lzq72dnhujjf0a42wv79cy",
        "value": 46323
      },
      "scriptsig": "",
      "scriptsig_asm": "",
      "witness": [
        "304402207682fd62fd1861926928775a788b0d3617d1b06352014b343146426dc7066ed5022034028873dfd906f20668b326eaf9257631bba7c1a60a3b93db4548a3b91c4ef301",
        "02e4b58f3df1b29cc502fda4f221119cf9dcb799ff2e259a709c48de78d5bb6c19"
      ],
      "is_coinbase": false,
      "sequence": 4294967293
    },
    {
      "txid": "af5ee29e0c0bcebf53679488291311e28f7cdb8c591c814551812ed8e6b2617c",
      "vout": 3,
      "prevout": {
        "scriptpubkey": "00140d725afaa5cbed9fd90c9629856b9edceb836f55",
        "scriptpubkey_asm": "OP_0 OP_PUSHBYTES_20 0d725afaa5cbed9fd90c9629856b9edceb836f55",
        "scriptpubkey_type": "v0_p2wpkh",
        "scriptpubkey_address": "bc1qp4e94749e0kelkgvjc5c26u7mn4cxm64qcpac5",
        "value": 91132
      },
      "scriptsig": "",
      "scriptsig_asm": "",
      "witness": [
        "30440220243084d809d1995f2cf9e3294e69903eb082a9acc8e4ce11e72e6ac2177103b20220206b974c37f3783d24312d7187c43fc1e169d7aff6abaceb62772d7767ef575601",
        "02f4446024bb26036861a47ea38051f36d7b22a8fbd0bbff67cc2c539ca4a0be87"
      ],
      "is_coinbase": false,
      "sequence": 4294967293
    },
    {
      "txid": "fbf24024e34a294e172366d851af5daa73de88d75de997e1925f829fedf26ab1",
      "vout": 4,
      "prevout": {
        "scriptpubkey": "00145e49d31e027ea6d23d98e38f05fbf3fe8f4b807b",
        "scriptpubkey_asm": "OP_0 OP_PUSHBYTES_20 5e49d31e027ea6d23d98e38f05fbf3fe8f4b807b",
        "scriptpubkey_type": "v0_p2wpkh",
        "scriptpubkey_address": "bc1qteyax8sz06ndy0vcuw8st7lnl685hqrmu7dlet",
        "value": 57339
      },
      "scriptsig": "",
      "scriptsig_asm": "",
      "witness": [
        "3044022001f5e6847e8b69dce1b215c4b936b0d07845df50ca068aaca15603f230ff4d2702201c4323c6d76710c7a2f72093612aa62c486e70d7dc1f98508f7c8f5e2a414eb501",
        "02eb2f3021f82410e6238e6d24c7029f50ecf0b6331bc205b94aee9c743b7f7c99"
      ],
      "is_coinbase": false,
      "sequence": 4294967293
    },
    {
      "txid": "6d01a33b037c96fa26df6b5c312e047c0a71d9b28c2ace33f50bf80f4f6c5017",
      "vout": 4,
      "prevout": {
        "scriptpubkey": "0014a8519b3eb46c9bb4c0565b4ff5e3d9c6ea8b0579",
        "scriptpubkey_asm": "OP_0 OP_PUSHBYTES_20 a8519b3eb46c9bb4c0565b4ff5e3d9c6ea8b0579",
        "scriptpubkey_type": "v0_p2wpkh",
        "scriptpubkey_address": "bc1q4pgek045djdmfszktd8ltc7ecm4gkpte5gzt0c",
        "value": 51462
      },
      "scriptsig": "",
      "scriptsig_asm": "",
      "witness": [
        "30440220137d43b836b9129e6aee97d4babec33a993ac7b990c3671f3c0a4fd0484383260220389104a3d3fefa5ef8ce37230fe7c1f0e21ba623ed18aea96edfed235dfe796301",
        "0295988335f96102e7caeec089dadf56622ac317afeaa6f22f48c121f24d41c47e"
      ],
      "is_coinbase": false,
      "sequence": 4294967293
    },
    {
      "txid": "6d01a33b037c96fa26df6b5c312e047c0a71d9b28c2ace33f50bf80f4f6c5017",
      "vout": 5,
      "prevout": {
        "scriptpubkey": "00140875730167acc78087ef43e819d891a0d19fa091",
        "scriptpubkey_asm": "OP_0 OP_PUSHBYTES_20 0875730167acc78087ef43e819d891a0d19fa091",
        "scriptpubkey_type": "v0_p2wpkh",
        "scriptpubkey_address": "bc1qpp6hxqt84nrcppl0g05pnky35rgelgy3uq3rt0",
        "value": 52988
      },
      "scriptsig": "",
      "scriptsig_asm": "",
      "witness": [
        "304402203d9ba937b0e9d17f899a0a4eaf68c0c51e3e01891554e3ba543a42d45839e9f3022058c6b87dd9d4ab397d9f41539b9945ce85cb3c9aa0c3825e3d8d150f5ed5696f01",
        "0293bebf97d5833427bce1d8bda0f0cfa23b61b3cc9215565ca14fc503dc27def9"
      ],
      "is_coinbase": false,
      "sequence": 4294967293
    },
    {
      "txid": "446e2e5077b11e3f3793d3a7284117e98b0e169650598749a7ac485d6835f8f3",
      "vout": 6,
      "prevout": {
        "scriptpubkey": "00144adc47e30432bcede0ff7484cd5111782eaef451",
        "scriptpubkey_asm": "OP_0 OP_PUSHBYTES_20 4adc47e30432bcede0ff7484cd5111782eaef451",
        "scriptpubkey_type": "v0_p2wpkh",
        "scriptpubkey_address": "bc1qftwy0ccyx27wmc8lwjzv65g30qh2aaz3ydnwfk",
        "value": 46774
      },
      "scriptsig": "",
      "scriptsig_asm": "",
      "witness": [
        "304402201379c42eaece15b99399dc2c55800632e6727bd9f3504c7d6509bf59f22a1d3202200db9e3f46a629ea34c8081a68fd63daf7ceba571508f69185a3eae66086ae39d01",
        "030753c109b76c35ed4c156dfaf747b1dc13c4f7c56d2aae627d9c8f5445172e8b"
      ],
      "is_coinbase": false,
      "sequence": 4294967293
    },
    {
      "txid": "e2dd734e4b7fd852a1e2b74e8af86eb63fa74f9dae5047ff995a8f154b016dc8",
      "vout": 1,
      "prevout": {
        "scriptpubkey": "0014d2185595d5dd07f143a9112c6d70122a412b815d",
        "scriptpubkey_asm": "OP_0 OP_PUSHBYTES_20 d2185595d5dd07f143a9112c6d70122a412b815d",
        "scriptpubkey_type": "v0_p2wpkh",
        "scriptpubkey_address": "bc1q6gv9t9w4m5rlzsafzykx6uqj9fqjhq2alt4rcv",
        "value": 44057
      },
      "scriptsig": "",
      "scriptsig_asm": "",
      "witness": [
        "304402200d26427109e2e78df065ad123266f6058388ca46f3e00efc07ddd3b00adce136022039980df45f735e144de251dedea48d5e7e1a1fa7d464cae7b694827b13eaa4df01",
        "03ba11c3f5715f34379da9ea83bec7de2ee762dbcae52f651f43e9bef5c1785fc7"
      ],
      "is_coinbase": false,
      "sequence": 4294967293
    },
    {
      "txid": "6d01a33b037c96fa26df6b5c312e047c0a71d9b28c2ace33f50bf80f4f6c5017",
      "vout": 2,
      "prevout": {
        "scriptpubkey": "00149d8b1cbab119e025d71ef83bee30bcdc5e4800f5",
        "scriptpubkey_asm": "OP_0 OP_PUSHBYTES_20 9d8b1cbab119e025d71ef83bee30bcdc5e4800f5",
        "scriptpubkey_type": "v0_p2wpkh",
        "scriptpubkey_address": "bc1qnk93ew43r8szt4c7lqa7uv9um30ysq84f7z6hp",
        "value": 44479
      },
      "scriptsig": "",
      "scriptsig_asm": "",
      "witness": [
        "30440220132d7375f57f2233c004552f6b949af5684476eb1e142859d9951046dd943aa902200e9e8370e3be7b63622072b5ed4d1c4e4b3e3edd0ab1c12e23a868ebd26d604b01",
        "03ee3f24ba88c91ddb88bedd290c75f7a1bccd1c2bb1e2981d9bfb09f9e38b8036"
      ],
      "is_coinbase": false,
      "sequence": 4294967293
    },
    {
      "txid": "d967ae5a523d9c7afd2118c5de86006fc8acc99dd2598960272ee2292eaccaac",
      "vout": 0,
      "prevout": {
        "scriptpubkey": "0014a3975f3987f331f9af6a490e74f53e086f98f21d",
        "scriptpubkey_asm": "OP_0 OP_PUSHBYTES_20 a3975f3987f331f9af6a490e74f53e086f98f21d",
        "scriptpubkey_type": "v0_p2wpkh",
        "scriptpubkey_address": "bc1q5wt47wv87vclntm2fy88faf7pphe3usarn0eqc",
        "value": 49093
      },
      "scriptsig": "",
      "scriptsig_asm": "",
      "witness": [
        "304402202f1986f766e505a99fa863fafc80d5ed311ffd546c751e84e566a8a2da23c719022068a2a2919b008948144735e6ea07b50e3b0577091472473e8e53a8ccc501d15b01",
        "02ba75cfaece663e762caada67b9b22b8133826e53140be955512ff4cd3d8cab01"
      ],
      "is_coinbase": false,
      "sequence": 4294967293
    },
    {
      "txid": "3eeb13826fdb9f6a5fb02b2cc916d4408f61ba993d8720dc82c63c82d3b3aa0c",
      "vout": 9,
      "prevout": {
        "scriptpubkey": "0014aa3b3e33dc2831e2313347443bb087e01834208c",
        "scriptpubkey_asm": "OP_0 OP_PUSHBYTES_20 aa3b3e33dc2831e2313347443bb087e01834208c",
        "scriptpubkey_type": "v0_p2wpkh",
        "scriptpubkey_address": "bc1q4ganuv7u9qc7yvfngazrhvy8uqvrggyvpe2xrw",
        "value": 138935
      },
      "scriptsig": "",
      "scriptsig_asm": "",
      "witness": [
        "3044022042f9fc435af982d1d25cdb7436bcd9718c2e4ddc5203a099d4e3fbf58d1cde3c02202d2ff1fc51285b8e80088c312dde3eab584ef2a04087128a8e5611702e5de76d01",
        "0211c4abe4dad3bc36e79cbacce5557f0ff350acfe83c0ca46adbf8b3a4dad077f"
      ],
      "is_coinbase": false,
      "sequence": 4294967293
    },
    {
      "txid": "b18817abd246ca946efb263d372f2cfd9576d148424ea229acf6786aa647ac4a",
      "vout": 0,
      "prevout": {
        "scriptpubkey": "0014bf7ca8c70746553a45b015e37854b061621379d0",
        "scriptpubkey_asm": "OP_0 OP_PUSHBYTES_20 bf7ca8c70746553a45b015e37854b061621379d0",
        "scriptpubkey_type": "v0_p2wpkh",
        "scriptpubkey_address": "bc1qha7233c8ge2n53dszh3hs49sv93px7ws4cpfde",
        "value": 11759
      },
      "scriptsig": "",
      "scriptsig_asm": "",
      "witness": [
        "304402203d405a2e97fdc1cc1badb21a7703e19a805131cb63d1409eaf90a156a6f48ba902204cbb731a5f11fc7c03c5e9cab8d0968d6dcc330ff3ed8ecd620865c2faa5e50b01",
        "03653f0a8a64978b03cbafcf58579fb1ad67caddf481d07e63bd56c9c0a371dd47"
      ],
      "is_coinbase": false,
      "sequence": 4294967293
    },
    {
      "txid": "918ed147b64970a4deacc82a92b714fe31875bc13f27a011c19653f44a7358a0",
      "vout": 0,
      "prevout": {
        "scriptpubkey": "0014213879b86adacb9f442497491533f500c0a0dc97",
        "scriptpubkey_asm": "OP_0 OP_PUSHBYTES_20 213879b86adacb9f442497491533f500c0a0dc97",
        "scriptpubkey_type": "v0_p2wpkh",
        "scriptpubkey_address": "bc1qyyu8nwr2mt9e73pyjay32vl4qrq2phyhnmxnfu",
        "value": 81135
      },
      "scriptsig": "",
      "scriptsig_asm": "",
      "witness": [
        "304402205d63d4492beae33090543ef18f539edaffece9869b473b3b12bd0ae0984e36e90220222b7a327e0bb9e0eca24aa8da9d4d3a5082498c8cb553bd7c2943f3f9c5a94201",
        "02aaf186a5eff8ae5b72dd8effbae346c8d9aa13382b849664014e7f63a1ec81b6"
      ],
      "is_coinbase": false,
      "sequence": 4294967293
    },
    {
      "txid": "85a2463140455a4acd396f7d6775a5a1dbcc0d8aa5ca9fb88a7628e0fa91791e",
      "vout": 0,
      "prevout": {
        "scriptpubkey": "0014d62e2d611328b043bd443853937c89a55aaab95f",
        "scriptpubkey_asm": "OP_0 OP_PUSHBYTES_20 d62e2d611328b043bd443853937c89a55aaab95f",
        "scriptpubkey_type": "v0_p2wpkh",
        "scriptpubkey_address": "bc1q6chz6cgn9zcy802y8pfexlyf54d24w2le48tls",
        "value": 65371
      },
      "scriptsig": "",
      "scriptsig_asm": "",
      "witness": [
        "304402200289472efc6ca7a27847544f043189382a8cd204041bc81cb849e78a7cea8c5b02200c2d3329f695fdeb31b6ca022d3ee23dc9ffd712306b6b1bce6205bc4b48d6dc01",
        "02c819a1c4f06e8c23bc0348970123af26ad400d5e344c7a9c3b505876d1702818"
      ],
      "is_coinbase": false,
      "sequence": 4294967293
    },
    {
      "txid": "b078dc76b4f15d6744b09f6cf5c373a7885726f500f6f8efe762c4a4f7e7c805",
      "vout": 7,
      "prevout": {
        "scriptpubkey": "00145dc0f677292632cc0578a72f04b2fb4749094d29",
        "scriptpubkey_asm": "OP_0 OP_PUSHBYTES_20 5dc0f677292632cc0578a72f04b2fb4749094d29",
        "scriptpubkey_type": "v0_p2wpkh",
        "scriptpubkey_address": "bc1qthq0vaefycevcptc5uhsfvhmgaysjnff983693",
        "value": 69856
      },
      "scriptsig": "",
      "scriptsig_asm": "",
      "witness": [
        "304402205f4857bfe107a9dca2dd0968473b40244a36e79145201c4867f4d7868fbe1ee702202f1da7280acbd6c2f401840ae4aef29540ca003cda5f9e21bdb212a003e9a44e01",
        "02ee45ae62dbd3ba7183fbf9c6ac4d8eea3bcadeb760b1be34ac268c9d765a581d"
      ],
      "is_coinbase": false,
      "sequence": 4294967293
    },
    {
      "txid": "fbf24024e34a294e172366d851af5daa73de88d75de997e1925f829fedf26ab1",
      "vout": 3,
      "prevout": {
        "scriptpubkey": "0014fe271c59cfffe3b61ec3e0ef82aa3048d385c8aa",
        "scriptpubkey_asm": "OP_0 OP_PUSHBYTES_20 fe271c59cfffe3b61ec3e0ef82aa3048d385c8aa",
        "scriptpubkey_type": "v0_p2wpkh",
        "scriptpubkey_address": "bc1qlcn3ckw0ll3mv8krurhc923sfrfctj92qry4h8",
        "value": 46402
      },
      "scriptsig": "",
      "scriptsig_asm": "",
      "witness": [
        "30440220135f1150dc5ec8770d98534182b4c948261ce31b66c99054ad58fd07deef79c8022061417de8298f2ccb2ac20434b337384db1141751d789deba8bc1c636dd4070ea01",
        "03575d69af8a5d48ac76a8bdd9c1e93ef06e4eae3ca179963d935ce432474930d5"
      ],
      "is_coinbase": false,
      "sequence": 4294967293
    },
    {
      "txid": "6d01a33b037c96fa26df6b5c312e047c0a71d9b28c2ace33f50bf80f4f6c5017",
      "vout": 7,
      "prevout": {
        "scriptpubkey": "0014baa98a41e8ce24ede499deba13bdb712c42b9701",
        "scriptpubkey_asm": "OP_0 OP_PUSHBYTES_20 baa98a41e8ce24ede499deba13bdb712c42b9701",
        "scriptpubkey_type": "v0_p2wpkh",
        "scriptpubkey_address": "bc1qh25c5s0gecjwmeyem6ap80dhztzzh9cprdt7gt",
        "value": 76352
      },
      "scriptsig": "",
      "scriptsig_asm": "",
      "witness": [
        "304402202c92955d68c10781b3625a652906d3d3e429507495dcfeff082520bb301130310220569d4ef4fdef4a010e8551b8492d3eb84c620e9903d0acd0360c1746186fb40b01",
        "03c8da74858bc01e978d0c64be10c3ffbafab402eb7808b0e69fb8242cae2268d0"
      ],
      "is_coinbase": false,
      "sequence": 4294967293
    },
    {
      "txid": "e0b20a5012cb95632efb4b48e31ab792f2ac9e03e1de7d9eacedd982bb6438ab",
      "vout": 0,
      "prevout": {
        "scriptpubkey": "0014cf319545f867df1545f9127df6dd7117b9e75e82",
        "scriptpubkey_asm": "OP_0 OP_PUSHBYTES_20 cf319545f867df1545f9127df6dd7117b9e75e82",
        "scriptpubkey_type": "v0_p2wpkh",
        "scriptpubkey_address": "bc1qeuce230cvl03230ezf7ldht3z7u7wh5z9kac2u",
        "value": 46413
      },
      "scriptsig": "",
      "scriptsig_asm": "",
      "witness": [
        "304402207c13919bfc2e9cfd254d7ebb5450add2651684cf1d7e3d85ea2f522568b63da8022010d03fef1b101b3f5fdce59ad203060b6326efed49613920d9d48e938e94f16101",
        "02dcb52499542e230995a9152e29068e96b41fd645054dfe1d7a05166a3bf7751e"
      ],
      "is_coinbase": false,
      "sequence": 4294967293
    },
    {
      "txid": "5c5472176eac0f6717fd2187a87399dd4e50c407c5a3d6407ef6997adb9f81da",
      "vout": 4,
      "prevout": {
        "scriptpubkey": "0014cb240777ad43a6bb3a220a848e9f6d20cb695145",
        "scriptpubkey_asm": "OP_0 OP_PUSHBYTES_20 cb240777ad43a6bb3a220a848e9f6d20cb695145",
        "scriptpubkey_type": "v0_p2wpkh",
        "scriptpubkey_address": "bc1qevjqwaadgwntkw3zp2zga8mdyr9kj529akeq60",
        "value": 60278
      },
      "scriptsig": "",
      "scriptsig_asm": "",
      "witness": [
        "304402204d20562cb3464503573cc776eda17d948f7825085797aaa2fb63480ff06ea2cf022067238c33ac456186cb45b4f943b615dbeb7c8fa190160a9f33fcaa162d57920401",
        "02a99060b7ba2cef867bb67cec5ddeeafea10fdf01e24b665626a51075592b9d9d"
      ],
      "is_coinbase": false,
      "sequence": 4294967293
    },
    {
      "txid": "c12001b0e20c25905d6ee18fee4033532ab547836088e499ada4119b18b0c597",
      "vout": 3,
      "prevout": {
        "scriptpubkey": "00142b66f5ca466614a2f1bf7e54fd2332c57620464d",
        "scriptpubkey_asm": "OP_0 OP_PUSHBYTES_20 2b66f5ca466614a2f1bf7e54fd2332c57620464d",
        "scriptpubkey_type": "v0_p2wpkh",
        "scriptpubkey_address": "bc1q9dn0tjjxvc229udl0e206gejc4mzq3jdsh95me",
        "value": 46318
      },
      "scriptsig": "",
      "scriptsig_asm": "",
      "witness": [
        "304402200266636f5139b6a3eb3797ebbf7f8cd784fae43464e694ecd21f33a44707bef102203cfa2e1898a6ab98507b62649357ae44efe2f7af6c095f85a5cf9877fdc7c07201",
        "03e52156eead653be04c9d3a9ce852071ceda4b6423b0d80eaa26d2a99336b4480"
      ],
      "is_coinbase": false,
      "sequence": 4294967293
    },
    {
      "txid": "cb37013d351a46465f75d69dc50fd13df5112fd4386d2f70e0e29fbe354ffd78",
      "vout": 3,
      "prevout": {
        "scriptpubkey": "001435bc550a137b014fce2d7f7aa1de820abd7ee450",
        "scriptpubkey_asm": "OP_0 OP_PUSHBYTES_20 35bc550a137b014fce2d7f7aa1de820abd7ee450",
        "scriptpubkey_type": "v0_p2wpkh",
        "scriptpubkey_address": "bc1qxk792zsn0vq5ln3d0aa2rh5zp27haezsv49pju",
        "value": 12931
      },
      "scriptsig": "",
      "scriptsig_asm": "",
      "witness": [
        "3044022071dc5237ef4222084bd446e22df08c43201471eefe29cde05fe621e97473320502205d6c271d00f084e276bc822737a8ea774a3ace3ad28e49d35c3e26389ac2f4cc01",
        "03f536dda58cef6998b6f78955deab42eb880a8ee26f88b24a8fee548a0b24c82c"
      ],
      "is_coinbase": false,
      "sequence": 4294967293
    },
    {
      "txid": "6d01a33b037c96fa26df6b5c312e047c0a71d9b28c2ace33f50bf80f4f6c5017",
      "vout": 6,
      "prevout": {
        "scriptpubkey": "00146d45eab53b15c2a8658ced4c4a4b82f102ad4a44",
        "scriptpubkey_asm": "OP_0 OP_PUSHBYTES_20 6d45eab53b15c2a8658ced4c4a4b82f102ad4a44",
        "scriptpubkey_type": "v0_p2wpkh",
        "scriptpubkey_address": "bc1qd4z74dfmzhp2sevva4xy5juz7yp26jjyc5rrua",
        "value": 74794
      },
      "scriptsig": "",
      "scriptsig_asm": "",
      "witness": [
        "30440220327eaf42d10e25943a145dfbb6a214134a63c3700e25b333281fb96048def42f0220269c12592815015f48c98fa480c0735f0e14c3565fd78af177792853e7032ee401",
        "03564f25be6dc0babfd9cea2fd480980cab2720afadd90ed561495a4da4df54c41"
      ],
      "is_coinbase": false,
      "sequence": 4294967293
    },
    {
      "txid": "f41d0c074c86ff70091b6382d289685aa8ab8f04b72dc75156d1384ff45185d1",
      "vout": 3,
      "prevout": {
        "scriptpubkey": "0014688404a07375826c0d5f48fc492207b172f46246",
        "scriptpubkey_asm": "OP_0 OP_PUSHBYTES_20 688404a07375826c0d5f48fc492207b172f46246",
        "scriptpubkey_type": "v0_p2wpkh",
        "scriptpubkey_address": "bc1qdzzqfgrnwkpxcr2lfr7yjgs8k9e0gcjxzad83g",
        "value": 50015
      },
      "scriptsig": "",
      "scriptsig_asm": "",
      "witness": [
        "304402202d745107be95a87969f2d8157de236aeb1ea4051c70d70d7442b85af5c18375d02203e0082935208aee26740fed22b301cb5ed08627f1427b1d2552bdfec324a942601",
        "02cb0d4eb5d233ac50108c36126e31b1024fc541ec1ea831ee176be556da4365fa"
      ],
      "is_coinbase": false,
      "sequence": 4294967293
    }
  ],
  "vout": [
    {
      "scriptpubkey": "001475d14ee65b33a2b395557cb92b81eccf7a35b31d",
      "scriptpubkey_asm": "OP_0 OP_PUSHBYTES_20 75d14ee65b33a2b395557cb92b81eccf7a35b31d",
      "scriptpubkey_type": "v0_p2wpkh",
      "scriptpubkey_address": "bc1qwhg5aejmxw3t89240jujhq0veaartvcaqjmx2f",
      "value": 146800
    },
    {
      "scriptpubkey": "0014e0e8c82b6909e685376b24a6d44946b2348dbfe5",
      "scriptpubkey_asm": "OP_0 OP_PUSHBYTES_20 e0e8c82b6909e685376b24a6d44946b2348dbfe5",
      "scriptpubkey_type": "v0_p2wpkh",
      "scriptpubkey_address": "bc1qur5vs2mfp8ng2dmtyjndgj2xkg6gm0l94h4gne",
      "value": 133980
    },
    {
      "scriptpubkey": "0014b1897a81992da2ce0d4dfeb87ee7d81dbe4f86d2",
      "scriptpubkey_asm": "OP_0 OP_PUSHBYTES_20 b1897a81992da2ce0d4dfeb87ee7d81dbe4f86d2",
      "scriptpubkey_type": "v0_p2wpkh",
      "scriptpubkey_address": "bc1qkxyh4qve9k3vur2dl6u8ae7crklylpkjwe46gj",
      "value": 76180
    },
    {
      "scriptpubkey": "001466e84086d57e7457036c89adfa3f25abf081dfaa",
      "scriptpubkey_asm": "OP_0 OP_PUSHBYTES_20 66e84086d57e7457036c89adfa3f25abf081dfaa",
      "scriptpubkey_type": "v0_p2wpkh",
      "scriptpubkey_address": "bc1qvm5yppk40e69wqmv3xkl50e940cgrha24t69vw",
      "value": 52380
    },
    {
      "scriptpubkey": "00146708c10fe09f0438076b94437e21dd8af06d74b5",
      "scriptpubkey_asm": "OP_0 OP_PUSHBYTES_20 6708c10fe09f0438076b94437e21dd8af06d74b5",
      "scriptpubkey_type": "v0_p2wpkh",
      "scriptpubkey_address": "bc1qvuyvzrlqnuzrspmtj3phugwa3tcx6a94dya79k",
      "value": 64980
    },
    {
      "scriptpubkey": "0014e3292951d78090eb9c30cfe518b5da12f663776a",
      "scriptpubkey_asm": "OP_0 OP_PUSHBYTES_20 e3292951d78090eb9c30cfe518b5da12f663776a",
      "scriptpubkey_type": "v0_p2wpkh",
      "scriptpubkey_address": "bc1quv5jj5whszgwh8pselj33dw6ztmxxam2xz9x7z",
      "value": 225880
    },
    {
      "scriptpubkey": "0014512b06b2f38c716afc6acaa9eb77c3d634aa941a",
      "scriptpubkey_asm": "OP_0 OP_PUSHBYTES_20 512b06b2f38c716afc6acaa9eb77c3d634aa941a",
      "scriptpubkey_type": "v0_p2wpkh",
      "scriptpubkey_address": "bc1q2y4sdvhn33ck4lr2e257ka7r6c6249q65ttyv5",
      "value": 86180
    },
    {
      "scriptpubkey": "00146e6a8da56c1e8630c982f47849a4b65b0db4aec1",
      "scriptpubkey_asm": "OP_0 OP_PUSHBYTES_20 6e6a8da56c1e8630c982f47849a4b65b0db4aec1",
      "scriptpubkey_type": "v0_p2wpkh",
      "scriptpubkey_address": "bc1qde4gmftvr6rrpjvz73uynf9ktvxmftkphcqr32",
      "value": 28060
    },
    {
      "scriptpubkey": "001401aaba19c013d09a2e12c2f0288190e4bf9b886a",
      "scriptpubkey_asm": "OP_0 OP_PUSHBYTES_20 01aaba19c013d09a2e12c2f0288190e4bf9b886a",
      "scriptpubkey_type": "v0_p2wpkh",
      "scriptpubkey_address": "bc1qqx4t5xwqz0gf5tsjctcz3qvsujlehzr24m4rey",
      "value": 165720
    },
    {
      "scriptpubkey": "001418868d3fbd6133ed5e20b54ef1b1a805af1d5f3b",
      "scriptpubkey_asm": "OP_0 OP_PUSHBYTES_20 18868d3fbd6133ed5e20b54ef1b1a805af1d5f3b",
      "scriptpubkey_type": "v0_p2wpkh",
      "scriptpubkey_address": "bc1qrzrg60aavye76h3qk480rvdgqkh36hemywgtf8",
      "value": 55380
    },
    {
      "scriptpubkey": "00148584ee439df0fbaf37bb2fdca6bc550a8e7e5b12",
      "scriptpubkey_asm": "OP_0 OP_PUSHBYTES_20 8584ee439df0fbaf37bb2fdca6bc550a8e7e5b12",
      "scriptpubkey_type": "v0_p2wpkh",
      "scriptpubkey_address": "bc1qskzwusua7ra67dam9lw2d0z4p288ukcjuppdel",
      "value": 33780
    },
    {
      "scriptpubkey": "00149e1450f8863235c58fafa8a1e1b47bef0d8e4848",
      "scriptpubkey_asm": "OP_0 OP_PUSHBYTES_20 9e1450f8863235c58fafa8a1e1b47bef0d8e4848",
      "scriptpubkey_type": "v0_p2wpkh",
      "scriptpubkey_address": "bc1qnc29p7yxxg6utra04zs7rdrmauxcujzg525d5d",
      "value": 122780
    },
    {
      "scriptpubkey": "001470335163f04ae9b7309038685e4c6e1f4d1c463a",
      "scriptpubkey_asm": "OP_0 OP_PUSHBYTES_20 70335163f04ae9b7309038685e4c6e1f4d1c463a",
      "scriptpubkey_type": "v0_p2wpkh",
      "scriptpubkey_address": "bc1qwqe4zclsft5mwvys8p59unrwrax3c336a64f83",
      "value": 49180
    }
  ],
  "size": 3671,
  "weight": 7616,
  "fee": 22926,
  "status": {
    "confirmed": true,
    "block_height": 834460,
    "block_hash": "00000000000000000000484a79b643b2524bbce82e5d8a442013fa5b8905ed98",
    "block_time": 1710307468
  },
  "hex": "02000000000116185474f02fefc5a9d1ab7f1dc753fea21d19778f4a1dd046db1077a491a004f30000000000fdffffff7c61b2e6d82e815145811c598cdb7c8fe211132988946753bfce0b0c9ee25eaf0300000000fdffffffb16af2ed9f825f92e197e95dd788de73aa5daf51d86623174e294ae32440f2fb0400000000fdffffff17506c4f0ff80bf533ce2a8cb2d9710a7c042e315c6bdf26fa967c033ba3016d0400000000fdffffff17506c4f0ff80bf533ce2a8cb2d9710a7c042e315c6bdf26fa967c033ba3016d0500000000fdfffffff3f835685d48aca74987595096160e8be9174128a7d393373f1eb177502e6e440600000000fdffffffc86d014b158f5a99ff4750ae9d4fa73fb66ef88a4eb7e2a152d87f4b4e73dde20100000000fdffffff17506c4f0ff80bf533ce2a8cb2d9710a7c042e315c6bdf26fa967c033ba3016d0200000000fdffffffaccaac2e29e22e27608959d29dc9acc86f0086dec51821fd7a9c3d525aae67d90000000000fdffffff0caab3d3823cc682dc20873d99ba618f40d416c92c2bb05f6a9fdb6f8213eb3e0900000000fdffffff4aac47a66a78f6ac29a24e4248d17695fd2c2f373d26fb6e94ca46d2ab1788b10000000000fdffffffa058734af45396c111a0273fc15b8731fe14b7922ac8acdea47049b647d18e910000000000fdffffff1e7991fae028768ab89fcaa58a0dccdba1a575677d6f39cd4a5a45403146a2850000000000fdffffff05c8e7f7a4c462e7eff8f600f5265788a773c3f56c9fb044675df1b476dc78b00700000000fdffffffb16af2ed9f825f92e197e95dd788de73aa5daf51d86623174e294ae32440f2fb0300000000fdffffff17506c4f0ff80bf533ce2a8cb2d9710a7c042e315c6bdf26fa967c033ba3016d0700000000fdffffffab3864bb82d9edac9e7ddee1039eacf292b71ae3484bfb2e6395cb12500ab2e00000000000fdffffffda819fdb7a99f67e40d6a3c507c4504edd9973a88721fd17670fac6e1772545c0400000000fdffffff97c5b0189b11a4ad99e488608347b52a533340ee8fe16e5d90250ce2b00120c10300000000fdffffff78fd4f35be9fe2e0702f6d38d42f11f53dd10fc59dd6755f46461a353d0137cb0300000000fdffffff17506c4f0ff80bf533ce2a8cb2d9710a7c042e315c6bdf26fa967c033ba3016d0600000000fdffffffd18551f44f38d15651c72db7048faba85a6889d282631b0970ff864c070c1df40300000000fdffffff0d703d02000000000016001475d14ee65b33a2b395557cb92b81eccf7a35b31d5c0b020000000000160014e0e8c82b6909e685376b24a6d44946b2348dbfe59429010000000000160014b1897a81992da2ce0d4dfeb87ee7d81dbe4f86d29ccc00000000000016001466e84086d57e7457036c89adfa3f25abf081dfaad4fd0000000000001600146708c10fe09f0438076b94437e21dd8af06d74b55872030000000000160014e3292951d78090eb9c30cfe518b5da12f663776aa450010000000000160014512b06b2f38c716afc6acaa9eb77c3d634aa941a9c6d0000000000001600146e6a8da56c1e8630c982f47849a4b65b0db4aec1588702000000000016001401aaba19c013d09a2e12c2f0288190e4bf9b886a54d800000000000016001418868d3fbd6133ed5e20b54ef1b1a805af1d5f3bf4830000000000001600148584ee439df0fbaf37bb2fdca6bc550a8e7e5b129cdf0100000000001600149e1450f8863235c58fafa8a1e1b47bef0d8e48481cc000000000000016001470335163f04ae9b7309038685e4c6e1f4d1c463a0247304402207682fd62fd1861926928775a788b0d3617d1b06352014b343146426dc7066ed5022034028873dfd906f20668b326eaf9257631bba7c1a60a3b93db4548a3b91c4ef3012102e4b58f3df1b29cc502fda4f221119cf9dcb799ff2e259a709c48de78d5bb6c19024730440220243084d809d1995f2cf9e3294e69903eb082a9acc8e4ce11e72e6ac2177103b20220206b974c37f3783d24312d7187c43fc1e169d7aff6abaceb62772d7767ef5756012102f4446024bb26036861a47ea38051f36d7b22a8fbd0bbff67cc2c539ca4a0be8702473044022001f5e6847e8b69dce1b215c4b936b0d07845df50ca068aaca15603f230ff4d2702201c4323c6d76710c7a2f72093612aa62c486e70d7dc1f98508f7c8f5e2a414eb5012102eb2f3021f82410e6238e6d24c7029f50ecf0b6331bc205b94aee9c743b7f7c99024730440220137d43b836b9129e6aee97d4babec33a993ac7b990c3671f3c0a4fd0484383260220389104a3d3fefa5ef8ce37230fe7c1f0e21ba623ed18aea96edfed235dfe796301210295988335f96102e7caeec089dadf56622ac317afeaa6f22f48c121f24d41c47e0247304402203d9ba937b0e9d17f899a0a4eaf68c0c51e3e01891554e3ba543a42d45839e9f3022058c6b87dd9d4ab397d9f41539b9945ce85cb3c9aa0c3825e3d8d150f5ed5696f01210293bebf97d5833427bce1d8bda0f0cfa23b61b3cc9215565ca14fc503dc27def90247304402201379c42eaece15b99399dc2c55800632e6727bd9f3504c7d6509bf59f22a1d3202200db9e3f46a629ea34c8081a68fd63daf7ceba571508f69185a3eae66086ae39d0121030753c109b76c35ed4c156dfaf747b1dc13c4f7c56d2aae627d9c8f5445172e8b0247304402200d26427109e2e78df065ad123266f6058388ca46f3e00efc07ddd3b00adce136022039980df45f735e144de251dedea48d5e7e1a1fa7d464cae7b694827b13eaa4df012103ba11c3f5715f34379da9ea83bec7de2ee762dbcae52f651f43e9bef5c1785fc7024730440220132d7375f57f2233c004552f6b949af5684476eb1e142859d9951046dd943aa902200e9e8370e3be7b63622072b5ed4d1c4e4b3e3edd0ab1c12e23a868ebd26d604b012103ee3f24ba88c91ddb88bedd290c75f7a1bccd1c2bb1e2981d9bfb09f9e38b80360247304402202f1986f766e505a99fa863fafc80d5ed311ffd546c751e84e566a8a2da23c719022068a2a2919b008948144735e6ea07b50e3b0577091472473e8e53a8ccc501d15b012102ba75cfaece663e762caada67b9b22b8133826e53140be955512ff4cd3d8cab0102473044022042f9fc435af982d1d25cdb7436bcd9718c2e4ddc5203a099d4e3fbf58d1cde3c02202d2ff1fc51285b8e80088c312dde3eab584ef2a04087128a8e5611702e5de76d01210211c4abe4dad3bc36e79cbacce5557f0ff350acfe83c0ca46adbf8b3a4dad077f0247304402203d405a2e97fdc1cc1badb21a7703e19a805131cb63d1409eaf90a156a6f48ba902204cbb731a5f11fc7c03c5e9cab8d0968d6dcc330ff3ed8ecd620865c2faa5e50b012103653f0a8a64978b03cbafcf58579fb1ad67caddf481d07e63bd56c9c0a371dd470247304402205d63d4492beae33090543ef18f539edaffece9869b473b3b12bd0ae0984e36e90220222b7a327e0bb9e0eca24aa8da9d4d3a5082498c8cb553bd7c2943f3f9c5a942012102aaf186a5eff8ae5b72dd8effbae346c8d9aa13382b849664014e7f63a1ec81b60247304402200289472efc6ca7a27847544f043189382a8cd204041bc81cb849e78a7cea8c5b02200c2d3329f695fdeb31b6ca022d3ee23dc9ffd712306b6b1bce6205bc4b48d6dc012102c819a1c4f06e8c23bc0348970123af26ad400d5e344c7a9c3b505876d17028180247304402205f4857bfe107a9dca2dd0968473b40244a36e79145201c4867f4d7868fbe1ee702202f1da7280acbd6c2f401840ae4aef29540ca003cda5f9e21bdb212a003e9a44e012102ee45ae62dbd3ba7183fbf9c6ac4d8eea3bcadeb760b1be34ac268c9d765a581d024730440220135f1150dc5ec8770d98534182b4c948261ce31b66c99054ad58fd07deef79c8022061417de8298f2ccb2ac20434b337384db1141751d789deba8bc1c636dd4070ea012103575d69af8a5d48ac76a8bdd9c1e93ef06e4eae3ca179963d935ce432474930d50247304402202c92955d68c10781b3625a652906d3d3e429507495dcfeff082520bb301130310220569d4ef4fdef4a010e8551b8492d3eb84c620e9903d0acd0360c1746186fb40b012103c8da74858bc01e978d0c64be10c3ffbafab402eb7808b0e69fb8242cae2268d00247304402207c13919bfc2e9cfd254d7ebb5450add2651684cf1d7e3d85ea2f522568b63da8022010d03fef1b101b3f5fdce59ad203060b6326efed49613920d9d48e938e94f161012102dcb52499542e230995a9152e29068e96b41fd645054dfe1d7a05166a3bf7751e0247304402204d20562cb3464503573cc776eda17d948f7825085797aaa2fb63480ff06ea2cf022067238c33ac456186cb45b4f943b615dbeb7c8fa190160a9f33fcaa162d579204012102a99060b7ba2cef867bb67cec5ddeeafea10fdf01e24b665626a51075592b9d9d0247304402200266636f5139b6a3eb3797ebbf7f8cd784fae43464e694ecd21f33a44707bef102203cfa2e1898a6ab98507b62649357ae44efe2f7af6c095f85a5cf9877fdc7c072012103e52156eead653be04c9d3a9ce852071ceda4b6423b0d80eaa26d2a99336b448002473044022071dc5237ef4222084bd446e22df08c43201471eefe29cde05fe621e97473320502205d6c271d00f084e276bc822737a8ea774a3ace3ad28e49d35c3e26389ac2f4cc012103f536dda58cef6998b6f78955deab42eb880a8ee26f88b24a8fee548a0b24c82c024730440220327eaf42d10e25943a145dfbb6a214134a63c3700e25b333281fb96048def42f0220269c12592815015f48c98fa480c0735f0e14c3565fd78af177792853e7032ee4012103564f25be6dc0babfd9cea2fd480980cab2720afadd90ed561495a4da4df54c410247304402202d745107be95a87969f2d8157de236aeb1ea4051c70d70d7442b85af5c18375d02203e0082935208aee26740fed22b301cb5ed08627f1427b1d2552bdfec324a9426012102cb0d4eb5d233ac50108c36126e31b1024fc541ec1ea831ee176be556da4365fa9abb0c00"
}