{
  "txid": "d59b2f5e60af3242d0ea7380c9b7941e707493efae476bcfe1e7d37707282bd0",
  "version": 2,
  "locktime": 0,
  "vin": [
    {
      "txid": "9428292470622ada1ff31a622ff2a964cab42174ee79f64d55347ad0d15f4b8c",
      "vout": 1,
      "prevout": {
        "scriptpubkey": "a91484e865e22d2c9f8fda0cc3f5778c0e9e89178c9587",
        "scriptpubkey_asm": "OP_HASH160 OP_PUSHBYTES_20 84e865e22d2c9f8fda0cc3f5778c0e9e89178c95 OP_EQUAL",
        "scriptpubkey_type": "p2sh",
        "scriptpubkey_address": "3DomXAFQ9n7cdJe2AHuj41hVGiBRA9MZCq",
        "value": 3221623
      },
      "scriptsig": "16001448c5b2d7d9b6c14298a44a90b9c571dd02b610c8",
      "scriptsig_asm": "OP_PUSHBYTES_22 001448c5b2d7d9b6c14298a44a90b9c571dd02b610c8",
      "witness": [
        "3045022100ae01f07d1c6ba3326e07f0b8bc2f60079c7037fdc2344046ada8055b663b0f28022006f724eae8ef2c588f5635f78ec717d8abfa41f257e07b36411cca117e700bb901",
        "0249b0b7344bf9701ff06db6de030403fb755e98e390a39b6370a7d332b42fc748"
      ],
      "is_coinbase": false,
      "sequence": 4294967295,
      "inner_redeemscript_asm": "OP_0 OP_PUSHBYTES_20 48c5b2d7d9b6c14298a44a90b9c571dd02b610c8"
    }
  ],
  "vout": [
    {
      "scriptpubkey": "a9143d9c24e15b3fe86d43bfd344b5155d8b693ab57387",
      "scriptpubkey_asm": "OP_HASH160 OP_PUSHBYTES_20 3d9c24e15b3fe86d43bfd344b5155d8b693ab573 OP_EQUAL",
      "scriptpubkey_type": "p2sh",
      "scriptpubkey_address": "37JnCKp4LrJ1eL1D27GproAwdKQjwtBf4B",
      "value": 550000
    },
    {
      "scriptpubkey": "a914dfe5f58a64b39e88b7d3922fb3d3dd3bd85b789987",
      "scriptpubkey_asm": "OP_HASH160 OP_PUSHBYTES_20 dfe5f58a64b39e88b7d3922fb3d3dd3bd85b7899 OP_EQUAL",
      "scriptpubkey_type": "p2sh",
      "scriptpubkey_address": "3N6t6ARbe2KdbEfuUyCVETUeFPfGCimeo1",
      "value": 2668680
    }
  ],
  "size": 248,
  "weight": 662,
  "fee": 2943,
  "status": {
    "confirmed": true,
    "block_height": 834638,
    "block_hash": "000000000000000000025f742c626208ac87e0b7d15054abb4a19ca2d735a54e",
    "block_time": 1710405325
  },
  "hex": "020000000001018c4b5fd1d07a34554df679ee7421b4ca64a9f22f621af31fda2a627024292894010000001716001448c5b2d7d9b6c14298a44a90b9c571dd02b610c8ffffffff02706408000000000017a9143d9c24e15b3fe86d43bfd344b5155d8b693ab5738788b828000000000017a914dfe5f58a64b39e88b7d3922fb3d3dd3bd85b78998702483045022100ae01f07d1c6ba3326e07f0b8bc2f60079c7037fdc2344046ada8055b663b0f28022006f724eae8ef2c588f5635f78ec717d8abfa41f257e07b36411cca117e700bb901210249b0b7344bf9701ff06db6de030403fb755e98e390a39b6370a7d332b42fc74800000000"
}