{
  "txid": "d59ffffc8fbc1fcccd315d954b945e0e0627af266b1272146383563a52e3bb67",
  "version": 1,
  "locktime": 0,
  "vin": [
    {
      "txid": "c5d65e6a2a9d8f2df1beac87ab616cbaf798032870447c8ed74d8352ec22ad80",
      "vout": 1,
      "prevout": {
        "scriptpubkey": "001433658a9626687692c946fb28c3e3ac1fee3c6658",
        "scriptpubkey_asm": "OP_0 OP_PUSHBYTES_20 33658a9626687692c946fb28c3e3ac1fee3c6658",
        "scriptpubkey_type": "v0_p2wpkh",
        "scriptpubkey_address": "bc1qxdjc493xdpmf9j2xlv5v8cavrlhrcejc6awkms",
        "value": 220091
      },
      "scriptsig": "",
      "scriptsig_asm": "",
      "witness": [
        "30440220437a859f5ced179306262f59f12806a51190f8356b921a3c6081980a75037ebd022041cab812a955d66376b39ec3aaecc250a17a1cf30a53e2029b8cebcddf51b1de01",
        "023d269b3c3c6312848a4c4dacbb44c8c587a412fad7fa0d6c00d6c81858bf350a"
      ],
      "is_coinbase": false,
      "sequence": 4294967295
    }
  ],
  "vout": [
    {
      "scriptpubkey": "0014634e58ce160af37f82ef35a8871daa11ed6938b6",
      "scriptpubkey_asm": "OP_0 OP_PUSHBYTES_20 634e58ce160af37f82ef35a8871daa11ed6938b6",
      "scriptpubkey_type": "v0_p2wpkh",
      "scriptpubkey_address": "bc1qvd893nskptehlqh0xk5gw8d2z8kkjw9k5f83hv",
      "value": 207494
    },
    {
      "scriptpubkey": "001433658a9626687692c946fb28c3e3ac1fee3c6658",
      "scriptpubkey_asm": "OP_0 OP_PUSHBYTES_20 33658a9626687692c946fb28c3e3ac1fee3c6658",
      "scriptpubkey_type": "v0_p2wpkh",
      "scriptpubkey_address": "bc1qxdjc493xdpmf9j2xlv5v8cavrlhrcejc6awkms",
      "value": 8790
    }
  ],
  "size": 222,
  "weight": 561,
  "fee": 3807,
  "status": {
    "confirmed": true,
    "block_height": 834638,
    "block_hash": "000000000000000000025f742c626208ac87e0b7d15054abb4a19ca2d735a54e",
    "block_time": 1710405325
  },
  "hex": "0100000000010180ad22ec52834dd78e7c4470280398f7ba6c61ab87acbef12d8f9d2a6a5ed6c50100000000ffffffff02862a030000000000160014634e58ce160af37f82ef35a8871daa11ed6938b6562200000000000016001433658a9626687692c946fb28c3e3ac1fee3c6658024730440220437a859f5ced179306262f59f12806a51190f8356b921a3c6081980a75037ebd022041cab812a955d66376b39ec3aaecc250a17a1cf30a53e2029b8cebcddf51b1de0121023d269b3c3c6312848a4c4dacbb44c8c587a412fad7fa0d6c00d6c81858bf350a00000000"
}