{
  "txid": "d5a17e719a5519f459d7969efeea4fcc85d372f22f353a64844601889739aea1",
  "version": 2,
  "locktime": 0,
  "vin": [
    {
      "txid": "b8f1d5d1cffb0262427bdb828e312d473818a603b905a6ce8f34af9a9c43ea38",
      "vout": 0,
      "prevout": {
        "scriptpubkey": "0014c04d9c2dc8a9bf16e49db450bdb56d245a11c0b3",
        "scriptpubkey_asm": "OP_0 OP_PUSHBYTES_20 c04d9c2dc8a9bf16e49db450bdb56d245a11c0b3",
        "scriptpubkey_type": "v0_p2wpkh",
        "scriptpubkey_address": "bc1qcpxectwg4xl3deyak3gtmdtdy3dprs9nqg2274",
        "value": 1396044
      },
      "scriptsig": "",
      "scriptsig_asm": "",
      "witness": [
        "30440220279c12d8c4b89f0a770fdea2f572eaef5214f65463406fc2ae17de16d3c7da03022057d04f4de1143c99c844a505b92d96187b0204e8aeebc7bdd6c3df6c8c167fe801",
        "023d7710fe3d10023886efeb507004303eb5dc0a1af17fe5931d1ead9487f6fb0a"
      ],
      "is_coinbase": false,
      "sequence": 4294967293
    }
  ],
  "vout": [
    {
      "scriptpubkey": "00147b9e23eb92cd1d4c4da3329962add0ee9cb8a0d0",
      "scriptpubkey_asm": "OP_0 OP_PUSHBYTES_20 7b9e23eb92cd1d4c4da3329962add0ee9cb8a0d0",
      "scriptpubkey_type": "v0_p2wpkh",
      "scriptpubkey_address": "bc1q0w0z86uje5w5cndrx2vk9twsa6wt3gxsnvdjh4",
      "value": 1339713
    },
    {
      "scriptpubkey": "0014b7c232313ee8f5028653040184159dd1ea96a18b",
      "scriptpubkey_asm": "OP_0 OP_PUSHBYTES_20 b7c232313ee8f5028653040184159dd1ea96a18b",
      "scriptpubkey_type": "v0_p2wpkh",
      "scriptpubkey_address": "bc1qklpryvf7ar6s9pjnqsqcg9va684fdgvtggzptz",
      "value": 53793
    }
  ],
  "size": 222,
  "weight": 561,
  "fee": 2538,
  "status": {
    "confirmed": true,
    "block_height": 834638,
    "block_hash": "000000000000000000025f742c626208ac87e0b7d15054abb4a19ca2d735a54e",
    "block_time": 1710405325
  },
  "hex": "0200000000010138ea439c9aaf348fcea605b903a61838472d318e82db7b426202fbcfd1d5f1b80000000000fdffffff0241711400000000001600147b9e23eb92cd1d4c4da3329962add0ee9cb8a0d021d2000000000000160014b7c232313ee8f5028653040184159dd1ea96a18b024730440220279c12d8c4b89f0a770fdea2f572eaef5214f65463406fc2ae17de16d3c7da03022057d04f4de1143c99c844a505b92d96187b0204e8aeebc7bdd6c3df6c8c167fe80121023d7710fe3d10023886efeb507004303eb5dc0a1af17fe5931d1ead9487f6fb0a00000000"
}