{
  "txid": "d5b93229f11a527bf2528a0554b95ec5dc21fd451380332b17385543cd3c7a83",
  "version": 2,
  "locktime": 834462,
  "vin": [
    {
      "txid": "0b7edce16e4ba271bd363a15540898ce5e659aee52545fe890a55a6e71a25984",
      "vout": 1,
      "prevout": {
        "scriptpubkey": "0014027f5440988d21c29b6c8de5ba739e45885670ce",
        "scriptpubkey_asm": "OP_0 OP_PUSHBYTES_20 027f5440988d21c29b6c8de5ba739e45885670ce",
        "scriptpubkey_type": "v0_p2wpkh",
        "scriptpubkey_address": "bc1qqfl4gsyc35su9xmv3hjm5uu7gky9vuxws5mqx5",
        "value": 170723015
      },
      "scriptsig": "",
      "scriptsig_asm": "",
      "witness": [
        "30440220185a53b06f055c410efbe9af3ebdf42cb9dc3ac80a6e16a4ad0b42d42a9b0d0e02204069b8627f48061a0a089aed406e104b1f09eb12943dbf69ddb02d696047712601",
        "0207a0888bf99c4268d6ebb7ce0da50ef51c9d608c3528cdceeb6b02ffdf0c3d09"
      ],
      "is_coinbase": false,
      "sequence": 4294967294
    }
  ],
  "vout": [
    {
      "scriptpubkey": "a914061c1255a80fbf45449ea25e84c55375386341a187",
      "scriptpubkey_asm": "OP_HASH160 OP_PUSHBYTES_20 061c1255a80fbf45449ea25e84c55375386341a1 OP_EQUAL",
      "scriptpubkey_type": "p2sh",
      "scriptpubkey_address": "32FKc9NDQfdQssmK8XuSCXrSvCbjJbgUxR",
      "value": 420100
    },
    {
      "scriptpubkey": "00146dd45ff8f0f20e6d42ecdc8eeab6ec86065cd4af",
      "scriptpubkey_asm": "OP_0 OP_PUSHBYTES_20 6dd45ff8f0f20e6d42ecdc8eeab6ec86065cd4af",
      "scriptpubkey_type": "v0_p2wpkh",
      "scriptpubkey_address": "bc1qdh29l78s7g8x6shvmj8w4dhvscr9e490hx60jy",
      "value": 170299784
    }
  ],
  "size": 223,
  "weight": 565,
  "fee": 3131,
  "status": {
    "confirmed": true,
    "block_height": 834464,
    "block_hash": "0000000000000000000177a0869a911a2b65c9bdcd5a8bcb02b68f305bee848e",
    "block_time": 1710308296
  },
  "hex": "020000000001018459a2716e5aa590e85f5452ee9a655ece980854153a36bd71a24b6ee1dc7e0b0100000000feffffff02046906000000000017a914061c1255a80fbf45449ea25e84c55375386341a1878891260a000000001600146dd45ff8f0f20e6d42ecdc8eeab6ec86065cd4af024730440220185a53b06f055c410efbe9af3ebdf42cb9dc3ac80a6e16a4ad0b42d42a9b0d0e02204069b8627f48061a0a089aed406e104b1f09eb12943dbf69ddb02d696047712601210207a0888bf99c4268d6ebb7ce0da50ef51c9d608c3528cdceeb6b02ffdf0c3d099ebb0c00"
}