{
  "txid": "d5bbc54bbd17c75e255a254b4c64bd855ed4193c194b27875ba36f4ea734daad",
  "version": 2,
  "locktime": 834458,
  "vin": [
    {
      "txid": "3dafd1335ac7bd273121941f4e97b377c446272c619b8f887750eef95d42ed75",
      "vout": 0,
      "prevout": {
        "scriptpubkey": "0014c2d73611434d23500f8502df4308dd7dbc27f13f",
        "scriptpubkey_asm": "OP_0 OP_PUSHBYTES_20 c2d73611434d23500f8502df4308dd7dbc27f13f",
        "scriptpubkey_type": "v0_p2wpkh",
        "scriptpubkey_address": "bc1qcttnvy2rf534qru9qt05xzxa0k7z0uflw4auwf",
        "value": 660
      },
      "scriptsig": "",
      "scriptsig_asm": "",
      "witness": [
        "3044022049d4ec1aa19be3f88dc87b26832855282b6105e13a30ffda9aeaee7306c47c5e022076ad811cd472b845a5fb3d28333117c18f33e10e44f5655036704a4258cb9c3a01",
        "02ed65620597c1000b04222115df6a61a71b5eda7170ea89063f0789f64ebe6340"
      ],
      "is_coinbase": false,
      "sequence": 4294967293
    },
    {
      "txid": "3dafd1335ac7bd273121941f4e97b377c446272c619b8f887750eef95d42ed75",
      "vout": 2,
      "prevout": {
        "scriptpubkey": "0014c2d73611434d23500f8502df4308dd7dbc27f13f",
        "scriptpubkey_asm": "OP_0 OP_PUSHBYTES_20 c2d73611434d23500f8502df4308dd7dbc27f13f",
        "scriptpubkey_type": "v0_p2wpkh",
        "scriptpubkey_address": "bc1qcttnvy2rf534qru9qt05xzxa0k7z0uflw4auwf",
        "value": 679420
      },
      "scriptsig": "",
      "scriptsig_asm": "",
      "witness": [
        "304402204483f0b39d0b8e098afbcff57723c86055d49b09ff60eedf07273621b4305b6b022063870d655cb87ca013ed654449b46fcfef05f23a205337c1869e675a77c2413701",
        "02ed65620597c1000b04222115df6a61a71b5eda7170ea89063f0789f64ebe6340"
      ],
      "is_coinbase": false,
      "sequence": 4294967293
    }
  ],
  "vout": [
    {
      "scriptpubkey": "0014c2d73611434d23500f8502df4308dd7dbc27f13f",
      "scriptpubkey_asm": "OP_0 OP_PUSHBYTES_20 c2d73611434d23500f8502df4308dd7dbc27f13f",
      "scriptpubkey_type": "v0_p2wpkh",
      "scriptpubkey_address": "bc1qcttnvy2rf534qru9qt05xzxa0k7z0uflw4auwf",
      "value": 659
    },
    {
      "scriptpubkey": "001443a3ed26835ecd2065c3499224452c026553540f",
      "scriptpubkey_asm": "OP_0 OP_PUSHBYTES_20 43a3ed26835ecd2065c3499224452c026553540f",
      "scriptpubkey_type": "v0_p2wpkh",
      "scriptpubkey_address": "bc1qgw376f5rtmxjqewrfxfzg3fvqfj4x4q0m9yw6f",
      "value": 546
    },
    {
      "scriptpubkey": "0014c2d73611434d23500f8502df4308dd7dbc27f13f",
      "scriptpubkey_asm": "OP_0 OP_PUSHBYTES_20 c2d73611434d23500f8502df4308dd7dbc27f13f",
      "scriptpubkey_type": "v0_p2wpkh",
      "scriptpubkey_address": "bc1qcttnvy2rf534qru9qt05xzxa0k7z0uflw4auwf",
      "value": 675695
    }
  ],
  "size": 401,
  "weight": 956,
  "fee": 3180,
  "status": {
    "confirmed": true,
    "block_height": 834460,
    "block_hash": "00000000000000000000484a79b643b2524bbce82e5d8a442013fa5b8905ed98",
    "block_time": 1710307468
  },
  "hex": "0200000000010275ed425df9ee5077888f9b612c2746c477b3974e1f94213127bdc75a33d1af3d0000000000fdffffff75ed425df9ee5077888f9b612c2746c477b3974e1f94213127bdc75a33d1af3d0200000000fdffffff039302000000000000160014c2d73611434d23500f8502df4308dd7dbc27f13f220200000000000016001443a3ed26835ecd2065c3499224452c026553540f6f4f0a0000000000160014c2d73611434d23500f8502df4308dd7dbc27f13f02473044022049d4ec1aa19be3f88dc87b26832855282b6105e13a30ffda9aeaee7306c47c5e022076ad811cd472b845a5fb3d28333117c18f33e10e44f5655036704a4258cb9c3a012102ed65620597c1000b04222115df6a61a71b5eda7170ea89063f0789f64ebe63400247304402204483f0b39d0b8e098afbcff57723c86055d49b09ff60eedf07273621b4305b6b022063870d655cb87ca013ed654449b46fcfef05f23a205337c1869e675a77c24137012102ed65620597c1000b04222115df6a61a71b5eda7170ea89063f0789f64ebe63409abb0c00"
}