{
  "txid": "d5c8db08359a29eae0a8832314eb860eab1ec9813264b708f228d0294eb46ce2",
  "version": 1,
  "locktime": 0,
  "vin": [
    {
      "txid": "64519df7fb7553d0aa321cf0cc3a0e455bd6f580ea395d427c0c43e1de402c06",
      "vout": 1,
      "prevout": {
        "scriptpubkey": "00140e701a948bdd82f277a7a81e6d69b4dc83317e31",
        "scriptpubkey_asm": "OP_0 OP_PUSHBYTES_20 0e701a948bdd82f277a7a81e6d69b4dc83317e31",
        "scriptpubkey_type": "v0_p2wpkh",
        "scriptpubkey_address": "bc1qpecp49ytmkp0yaa84q0x66d5mjpnzl33rtz5xp",
        "value": 106227
      },
      "scriptsig": "",
      "scriptsig_asm": "",
      "witness": [
        "30450221009b0570a8de7c3f8bbb79fc7ffcd908ab9ca0e923418fa0b71d05dc53deed12c002206601b796ce5271d4fe5d5bcc2a43ae948be05a098ac02b82e3f42841a6e85d7d01",
        "03832b42c5757c1af4331ec4c4ea8e874b184e6aa87ade9634e2f6daa2e7126cae"
      ],
      "is_coinbase": false,
      "sequence": 4294967295
    }
  ],
  "vout": [
    {
      "scriptpubkey": "00141790342a04d935bd480ac5cf76fad23ba4148314",
      "scriptpubkey_asm": "OP_0 OP_PUSHBYTES_20 1790342a04d935bd480ac5cf76fad23ba4148314",
      "scriptpubkey_type": "v0_p2wpkh",
      "scriptpubkey_address": "bc1qz7grg2symy6m6jq2ch8hd7kj8wjpfqc5s7lxep",
      "value": 16000
    },
    {
      "scriptpubkey": "00140e701a948bdd82f277a7a81e6d69b4dc83317e31",
      "scriptpubkey_asm": "OP_0 OP_PUSHBYTES_20 0e701a948bdd82f277a7a81e6d69b4dc83317e31",
      "scriptpubkey_type": "v0_p2wpkh",
      "scriptpubkey_address": "bc1qpecp49ytmkp0yaa84q0x66d5mjpnzl33rtz5xp",
      "value": 86420
    }
  ],
  "size": 223,
  "weight": 562,
  "fee": 3807,
  "status": {
    "confirmed": true,
    "block_height": 834638,
    "block_hash": "000000000000000000025f742c626208ac87e0b7d15054abb4a19ca2d735a54e",
    "block_time": 1710405325
  },
  "hex": "01000000000101062c40dee1430c7c425d39ea80f5d65b450e3accf01c32aad05375fbf79d51640100000000ffffffff02803e0000000000001600141790342a04d935bd480ac5cf76fad23ba414831494510100000000001600140e701a948bdd82f277a7a81e6d69b4dc83317e31024830450221009b0570a8de7c3f8bbb79fc7ffcd908ab9ca0e923418fa0b71d05dc53deed12c002206601b796ce5271d4fe5d5bcc2a43ae948be05a098ac02b82e3f42841a6e85d7d012103832b42c5757c1af4331ec4c4ea8e874b184e6aa87ade9634e2f6daa2e7126cae00000000"
}