{
  "txid": "d5c9816ec7b5e4d73f00b56ed54f34a0961c13e2d2f44de472b195b41e7eb8a3",
  "version": 2,
  "locktime": 0,
  "vin": [
    {
      "txid": "90e470d2c5110f20fb9c2f4dc762de341f13821f2029544926712a421598f4a8",
      "vout": 0,
      "prevout": {
        "scriptpubkey": "5120e1924f865d42a6b4d2cb34440782d9a785b33b1f179a3eb508ad941ce4422a9d",
        "scriptpubkey_asm": "OP_PUSHNUM_1 OP_PUSHBYTES_32 e1924f865d42a6b4d2cb34440782d9a785b33b1f179a3eb508ad941ce4422a9d",
        "scriptpubkey_type": "v1_p2tr",
        "scriptpubkey_address": "bc1puxfylpjag2ntf5ktx3zq0qke57zmxwclz7dradgg4k2peezz92wsvh99r9",
        "value": 5000
      },
      "scriptsig": "",
      "scriptsig_asm": "",
      "witness": [
        "193eab396ed4ff0b7e44e48c8f9ab32047626151955d5d37daf5b86aef9fb488577ecccf8d059017f52f3818d96815ff3ab4d8c8801011a6f23bb4759a7b8a02",
        "207d63edaab026456478d6c7e360c4825940502cbc3270db9454209d6fa08adbceac0063036f7264010118746578742f706c61696e3b636861727365743d7574662d3800457b0a2270223a20224252432d313030222c0a226f70223a20227472616e73666572222c0a227469636b223a2022425243313030222c0a22616d74223a202231303030220a7d68",
        "c180098f5ace486c0c5a3cc37818c5d9d38d5f0ec86fa6a98b12f00293e7c5ad12"
      ],
      "is_coinbase": false,
      "sequence": 4294967293
    }
  ],
  "vout": [
    {
      "scriptpubkey": "5120c72861b366e563f9a878a6b6f6bc081d9b61d7885410714b0d88a36e57441db4",
      "scriptpubkey_asm": "OP_PUSHNUM_1 OP_PUSHBYTES_32 c72861b366e563f9a878a6b6f6bc081d9b61d7885410714b0d88a36e57441db4",
      "scriptpubkey_type": "v1_p2tr",
      "scriptpubkey_address": "bc1pcu5xrvmxu43ln2rc56m0d0qgrkdkr4ug2sg8zjcd3z3ku46yrk6qgp526g",
      "value": 546
    },
    {
      "scriptpubkey": "00140d451838635aa980018c506d4db6c89a4aae3d4a",
      "scriptpubkey_asm": "OP_0 OP_PUSHBYTES_20 0d451838635aa980018c506d4db6c89a4aae3d4a",
      "scriptpubkey_type": "v0_p2wpkh",
      "scriptpubkey_address": "bc1qp4z3swrrt25cqqvv2pk5mdkgnf92u022ek7ela",
      "value": 1664
    }
  ],
  "size": 367,
  "weight": 742,
  "fee": 2790,
  "status": {
    "confirmed": true,
    "block_height": 834638,
    "block_hash": "000000000000000000025f742c626208ac87e0b7d15054abb4a19ca2d735a54e",
    "block_time": 1710405325
  },
  "hex": "02000000000101a8f49815422a7126495429201f82131f34de62c74d2f9cfb200f11c5d270e4900000000000fdffffff022202000000000000225120c72861b366e563f9a878a6b6f6bc081d9b61d7885410714b0d88a36e57441db480060000000000001600140d451838635aa980018c506d4db6c89a4aae3d4a0340193eab396ed4ff0b7e44e48c8f9ab32047626151955d5d37daf5b86aef9fb488577ecccf8d059017f52f3818d96815ff3ab4d8c8801011a6f23bb4759a7b8a028b207d63edaab026456478d6c7e360c4825940502cbc3270db9454209d6fa08adbceac0063036f7264010118746578742f706c61696e3b636861727365743d7574662d3800457b0a2270223a20224252432d313030222c0a226f70223a20227472616e73666572222c0a227469636b223a2022425243313030222c0a22616d74223a202231303030220a7d6821c180098f5ace486c0c5a3cc37818c5d9d38d5f0ec86fa6a98b12f00293e7c5ad1200000000"
}