{
  "txid": "d5c92eb2a4ea105a1f4331eb49899c00d37bbd498a0097db32ef077c9356a4ca",
  "version": 2,
  "locktime": 0,
  "vin": [
    {
      "txid": "c10e48caeee8756d57fbce0e4f26c1d08bb9f0d4a35c2d26269682da8df04dac",
      "vout": 36,
      "prevout": {
        "scriptpubkey": "5120eb0c3346d7cc689b258e36227c1f83564573062ae416b521346d5d8503ae6a8d",
        "scriptpubkey_asm": "OP_PUSHNUM_1 OP_PUSHBYTES_32 eb0c3346d7cc689b258e36227c1f83564573062ae416b521346d5d8503ae6a8d",
        "scriptpubkey_type": "v1_p2tr",
        "scriptpubkey_address": "bc1pavxrx3khe35fkfvwxc38c8ur2ezhxp32ustt2gf5d4wc2qawd2xsgcw3q5",
        "value": 3634
      },
      "scriptsig": "",
      "scriptsig_asm": "",
      "witness": [
        "e75e0573867d0ae7a8c64f49f20c9779d540bb17edcb36dcb4f028cece4b91fb349dc7b0b4ad40e16922d9cb66485c4f5b20a23fd22fe9b4e316823e7f2bdcef",
        "20267b783cdb998aa95e4a47a56aa922f0369e8a3d4c246f1c6b702e8c8fa6a849ac0063036f726401011e6170706c69636174696f6e2f6a736f6e3b636861727365743d7574662d38004cd37b2270223a22706f772d3230222c226f70223a226d696e74222c227469636b223a2250455045222c22616d74223a2231303030222c22736f6c7574696f6e223a22504550453a6263317071336e67663775716e73667434706d37357236397371616c6c30637068747278677773757a6d657864356c337039333566366d713666337664383a303030303030303030303030303030303030303139393431613561653132383937363539383134343239323533333030353762306461393666336465613163353a3534383831363134303030227d68",
        "c1406c0f2a67700582b42f36a71eb03478d57ba1acdc179ee1ec758acb282de3fd"
      ],
      "is_coinbase": false,
      "sequence": 4294967295
    }
  ],
  "vout": [
    {
      "scriptpubkey": "5120046684fb809c12ba877ea0f45803bffbf01bac6643a1c16f266d3f1096344eb6",
      "scriptpubkey_asm": "OP_PUSHNUM_1 OP_PUSHBYTES_32 046684fb809c12ba877ea0f45803bffbf01bac6643a1c16f266d3f1096344eb6",
      "scriptpubkey_type": "v1_p2tr",
      "scriptpubkey_address": "bc1pq3ngf7uqnsft4pm75r69sqall0cphtrxgwsuzmexd5l3p935f6mq6f3vd8",
      "value": 546
    }
  ],
  "size": 487,
  "weight": 769,
  "fee": 3088,
  "status": {
    "confirmed": true,
    "block_height": 834460,
    "block_hash": "00000000000000000000484a79b643b2524bbce82e5d8a442013fa5b8905ed98",
    "block_time": 1710307468
  },
  "hex": "02000000000101ac4df08dda829626262d5ca3d4f0b98bd0c1264f0ecefb576d75e8eeca480ec12400000000ffffffff012202000000000000225120046684fb809c12ba877ea0f45803bffbf01bac6643a1c16f266d3f1096344eb60340e75e0573867d0ae7a8c64f49f20c9779d540bb17edcb36dcb4f028cece4b91fb349dc7b0b4ad40e16922d9cb66485c4f5b20a23fd22fe9b4e316823e7f2bdceffd200120267b783cdb998aa95e4a47a56aa922f0369e8a3d4c246f1c6b702e8c8fa6a849ac0063036f726401011e6170706c69636174696f6e2f6a736f6e3b636861727365743d7574662d38004cd37b2270223a22706f772d3230222c226f70223a226d696e74222c227469636b223a2250455045222c22616d74223a2231303030222c22736f6c7574696f6e223a22504550453a6263317071336e67663775716e73667434706d37357236397371616c6c30637068747278677773757a6d657864356c337039333566366d713666337664383a303030303030303030303030303030303030303139393431613561653132383937363539383134343239323533333030353762306461393666336465613163353a3534383831363134303030227d6821c1406c0f2a67700582b42f36a71eb03478d57ba1acdc179ee1ec758acb282de3fd00000000"
}