{
  "txid": "d5cac87f4c205e89c74b3f28c0d88537a676b23bb8b32523dc58807d1446ff5f",
  "version": 2,
  "locktime": 834637,
  "vin": [
    {
      "txid": "7b0c8320a390533336aa8f34b26f183da4f3150169769e6c3718d8c6922121b7",
      "vout": 1,
      "prevout": {
        "scriptpubkey": "00142f672eac57a2c39e90c6888101c4cdf344d4a5ae",
        "scriptpubkey_asm": "OP_0 OP_PUSHBYTES_20 2f672eac57a2c39e90c6888101c4cdf344d4a5ae",
        "scriptpubkey_type": "v0_p2wpkh",
        "scriptpubkey_address": "bc1q9anjatzh5tpeayxx3zqsr3xd7dzdffdwu8vlsx",
        "value": 100000000
      },
      "scriptsig": "",
      "scriptsig_asm": "",
      "witness": [
        "304402202a1030f4833c4f1f72cc562c29679fe76100d781897a7e5403e98e5a93f9abbc02202a44de1af6667ba470a217bade809a44a5691e043112acf091387ec52d0ec4b101",
        "02454e6b39b72644ec7b4bc3ef6884d80b2d56a3925ed461816c03af0520c819c2"
      ],
      "is_coinbase": false,
      "sequence": 4294967293
    }
  ],
  "vout": [
    {
      "scriptpubkey": "00146599ef0e5d01310d82e2d2b97c9331f6ef8b5a49",
      "scriptpubkey_asm": "OP_0 OP_PUSHBYTES_20 6599ef0e5d01310d82e2d2b97c9331f6ef8b5a49",
      "scriptpubkey_type": "v0_p2wpkh",
      "scriptpubkey_address": "bc1qvkv77rjaqycsmqhz62uheye37mhckkjfs3asrj",
      "value": 5724614
    },
    {
      "scriptpubkey": "00149edcf5884eb07bd1e5eaa42a3e42785466c68363",
      "scriptpubkey_asm": "OP_0 OP_PUSHBYTES_20 9edcf5884eb07bd1e5eaa42a3e42785466c68363",
      "scriptpubkey_type": "v0_p2wpkh",
      "scriptpubkey_address": "bc1qnmw0tzzwkpaare025s4rusnc23nvdqmrlj2y6a",
      "value": 94271579
    }
  ],
  "size": 222,
  "weight": 561,
  "fee": 3807,
  "status": {
    "confirmed": true,
    "block_height": 834638,
    "block_hash": "000000000000000000025f742c626208ac87e0b7d15054abb4a19ca2d735a54e",
    "block_time": 1710405325
  },
  "hex": "02000000000101b7212192c6d818376c9e76690115f3a43d186fb2348faa36335390a320830c7b0100000000fdffffff02c6595700000000001600146599ef0e5d01310d82e2d2b97c9331f6ef8b5a495b789e05000000001600149edcf5884eb07bd1e5eaa42a3e42785466c683630247304402202a1030f4833c4f1f72cc562c29679fe76100d781897a7e5403e98e5a93f9abbc02202a44de1af6667ba470a217bade809a44a5691e043112acf091387ec52d0ec4b1012102454e6b39b72644ec7b4bc3ef6884d80b2d56a3925ed461816c03af0520c819c24dbc0c00"
}