{
  "txid": "d5d1b373000ca31029591f41ed5c09906dfaa220e1f9c3f5aafdce09f0087d71",
  "version": 2,
  "locktime": 0,
  "vin": [
    {
      "txid": "d3d07f898d721ebe1f91ffaba08fb8b3d401b46ff681429ffa86ba3bf2fa1011",
      "vout": 1,
      "prevout": {
        "scriptpubkey": "a91446509f491d245debd08409196e51c59477e67eec87",
        "scriptpubkey_asm": "OP_HASH160 OP_PUSHBYTES_20 46509f491d245debd08409196e51c59477e67eec OP_EQUAL",
        "scriptpubkey_type": "p2sh",
        "scriptpubkey_address": "386oohd5MfWshXbECUaDvH8na1Ar8BebxH",
        "value": 323242
      },
      "scriptsig": "160014e46fd7a711fbd9c1091952b4fbc0224852e5068b",
      "scriptsig_asm": "OP_PUSHBYTES_22 0014e46fd7a711fbd9c1091952b4fbc0224852e5068b",
      "witness": [
        "30450221009979247b4164907d76ed75484b79a70dc03c011563ad6df066ceb0d9de4bea3f02203378081e695c8cee561d60df5fe12f6dd755a78e4f6d842a13db26d28fe9f6f301",
        "02bb13e06c399a60f86393316eb90c22f712e65753ed6dd07f43dd62ee6b1c894a"
      ],
      "is_coinbase": false,
      "sequence": 4294967295,
      "inner_redeemscript_asm": "OP_0 OP_PUSHBYTES_20 e46fd7a711fbd9c1091952b4fbc0224852e5068b"
    }
  ],
  "vout": [
    {
      "scriptpubkey": "76a914c5df6a0f69fadd6ae9cfe868cb2f1bb2f758875d88ac",
      "scriptpubkey_asm": "OP_DUP OP_HASH160 OP_PUSHBYTES_20 c5df6a0f69fadd6ae9cfe868cb2f1bb2f758875d OP_EQUALVERIFY OP_CHECKSIG",
      "scriptpubkey_type": "p2pkh",
      "scriptpubkey_address": "1K3FktWgnghxyFpAEc1j3p1r99DBZHLVpq",
      "value": 320777
    }
  ],
  "size": 218,
  "weight": 542,
  "fee": 2465,
  "status": {
    "confirmed": true,
    "block_height": 834638,
    "block_hash": "000000000000000000025f742c626208ac87e0b7d15054abb4a19ca2d735a54e",
    "block_time": 1710405325
  },
  "hex": "020000000001011110faf23bba86fa9f4281f66fb401d4b3b88fa0abff911fbe1e728d897fd0d30100000017160014e46fd7a711fbd9c1091952b4fbc0224852e5068bffffffff0109e50400000000001976a914c5df6a0f69fadd6ae9cfe868cb2f1bb2f758875d88ac024830450221009979247b4164907d76ed75484b79a70dc03c011563ad6df066ceb0d9de4bea3f02203378081e695c8cee561d60df5fe12f6dd755a78e4f6d842a13db26d28fe9f6f3012102bb13e06c399a60f86393316eb90c22f712e65753ed6dd07f43dd62ee6b1c894a00000000"
}