{
  "txid": "d5d476b26e47c3037ea25a558d36e54cdf8740d868bc06da5befb28868c9ca52",
  "version": 2,
  "locktime": 0,
  "vin": [
    {
      "txid": "5f846d283984d01eb9829d816f88218abd33effc15a08222518615da3e5f47c5",
      "vout": 12,
      "prevout": {
        "scriptpubkey": "512096b4ef747e956c7916f6b540d2d2afd468a0326c3f738d10419767f919805e99",
        "scriptpubkey_asm": "OP_PUSHNUM_1 OP_PUSHBYTES_32 96b4ef747e956c7916f6b540d2d2afd468a0326c3f738d10419767f919805e99",
        "scriptpubkey_type": "v1_p2tr",
        "scriptpubkey_address": "bc1pj66w7ar7j4k8j9hkk4qd95406352qvnv8aec6yzpjanljxvqt6vsacx7jy",
        "value": 2862
      },
      "scriptsig": "",
      "scriptsig_asm": "",
      "witness": [
        "2f72a43c5f0036bd4b56235569d9eb39b9338c077247ebed7de46e0c1c5574d0c5bbfd58499cb75294dacf9e162903d535379cb7583cbbc3e22f8bdf9cb112b2",
        "20bb93963b3b6cf39ad85e4819de4305e0f20c32952d3ddd7dc4ead84f4542805fac0063036f726401011e6170706c69636174696f6e2f6a736f6e3b636861727365743d7574662d38004cd37b2270223a22706f772d3230222c226f70223a226d696e74222c227469636b223a2250455045222c22616d74223a2231303030222c22736f6c7574696f6e223a22504550453a626331706d6c3973653572666b6c3076393075786c7972667871717a366c34797364637172647371683735656c727133396676647164777139777276736e3a303030303030303030303030303030303030303139393431613561653132383937363539383134343239323533333030353762306461393666336465613163353a3430303035313334363836227d68",
        "c03beca27a4fc825f712a8ee0e92a93b2e9ce7496e1e1c5bfb1b103e51f3be77b5"
      ],
      "is_coinbase": false,
      "sequence": 4294967295
    }
  ],
  "vout": [
    {
      "scriptpubkey": "5120dfcb0cd069b7dec2bf86f906930002d7ea4837001b600bfa99f8c112a58d035c",
      "scriptpubkey_asm": "OP_PUSHNUM_1 OP_PUSHBYTES_32 dfcb0cd069b7dec2bf86f906930002d7ea4837001b600bfa99f8c112a58d035c",
      "scriptpubkey_type": "v1_p2tr",
      "scriptpubkey_address": "bc1pml9se5rfkl0v90uxlyrfxqqz6l4ysdcqrdsqh75elrq39fvdqdwq9wrvsn",
      "value": 546
    }
  ],
  "size": 487,
  "weight": 769,
  "fee": 2316,
  "status": {
    "confirmed": true,
    "block_height": 834460,
    "block_hash": "00000000000000000000484a79b643b2524bbce82e5d8a442013fa5b8905ed98",
    "block_time": 1710307468
  },
  "hex": "02000000000101c5475f3eda1586512282a015fcef33bd8a21886f819d82b91ed08439286d845f0c00000000ffffffff012202000000000000225120dfcb0cd069b7dec2bf86f906930002d7ea4837001b600bfa99f8c112a58d035c03402f72a43c5f0036bd4b56235569d9eb39b9338c077247ebed7de46e0c1c5574d0c5bbfd58499cb75294dacf9e162903d535379cb7583cbbc3e22f8bdf9cb112b2fd200120bb93963b3b6cf39ad85e4819de4305e0f20c32952d3ddd7dc4ead84f4542805fac0063036f726401011e6170706c69636174696f6e2f6a736f6e3b636861727365743d7574662d38004cd37b2270223a22706f772d3230222c226f70223a226d696e74222c227469636b223a2250455045222c22616d74223a2231303030222c22736f6c7574696f6e223a22504550453a626331706d6c3973653572666b6c3076393075786c7972667871717a366c34797364637172647371683735656c727133396676647164777139777276736e3a303030303030303030303030303030303030303139393431613561653132383937363539383134343239323533333030353762306461393666336465613163353a3430303035313334363836227d6821c03beca27a4fc825f712a8ee0e92a93b2e9ce7496e1e1c5bfb1b103e51f3be77b500000000"
}