{
  "txid": "d5db2b239dec570de1be8c140aa7d143139203f37030623b4d73df9f0e8e113c",
  "version": 1,
  "locktime": 0,
  "vin": [
    {
      "txid": "199e6335443ea79b4ca41a5f963bfac6d44fabb5703ee78ee2a1f932f9c20990",
      "vout": 1,
      "prevout": {
        "scriptpubkey": "0014bf023fe13c31579bede7bb8d4c5e0e2e95d8371c",
        "scriptpubkey_asm": "OP_0 OP_PUSHBYTES_20 bf023fe13c31579bede7bb8d4c5e0e2e95d8371c",
        "scriptpubkey_type": "v0_p2wpkh",
        "scriptpubkey_address": "bc1qhuprlcfux9tehm08hwx5chsw962asdcus5gkdf",
        "value": 11649
      },
      "scriptsig": "",
      "scriptsig_asm": "",
      "witness": [
        "3045022100a5973f18ccb9b3ec960aa4910a6a313814b9b335637c970c83306037b1e2553e02204b8541a02d4288cdffd9016be8804c95fbbd284c94396365c226c9e95dcfac2a01",
        "0292c0ecb21daad260e412054924a788e079caab2440b15ac2a7eb3e8a4ecfe8b0"
      ],
      "is_coinbase": false,
      "sequence": 4294967295
    }
  ],
  "vout": [
    {
      "scriptpubkey": "001497a6bd6b449b51bd9c9741ffcc92ae71e1c49a41",
      "scriptpubkey_asm": "OP_0 OP_PUSHBYTES_20 97a6bd6b449b51bd9c9741ffcc92ae71e1c49a41",
      "scriptpubkey_type": "v0_p2wpkh",
      "scriptpubkey_address": "bc1qj7nt666yndgmm8yhg8luey4ww8sufxjpg8dxtl",
      "value": 6994
    },
    {
      "scriptpubkey": "0014bf023fe13c31579bede7bb8d4c5e0e2e95d8371c",
      "scriptpubkey_asm": "OP_0 OP_PUSHBYTES_20 bf023fe13c31579bede7bb8d4c5e0e2e95d8371c",
      "scriptpubkey_type": "v0_p2wpkh",
      "scriptpubkey_address": "bc1qhuprlcfux9tehm08hwx5chsw962asdcus5gkdf",
      "value": 2963
    }
  ],
  "size": 223,
  "weight": 562,
  "fee": 1692,
  "status": {
    "confirmed": true,
    "block_height": 834460,
    "block_hash": "00000000000000000000484a79b643b2524bbce82e5d8a442013fa5b8905ed98",
    "block_time": 1710307468
  },
  "hex": "010000000001019009c2f932f9a1e28ee73e70b5ab4fd4c6fa3b965f1aa44c9ba73e4435639e190100000000ffffffff02521b00000000000016001497a6bd6b449b51bd9c9741ffcc92ae71e1c49a41930b000000000000160014bf023fe13c31579bede7bb8d4c5e0e2e95d8371c02483045022100a5973f18ccb9b3ec960aa4910a6a313814b9b335637c970c83306037b1e2553e02204b8541a02d4288cdffd9016be8804c95fbbd284c94396365c226c9e95dcfac2a01210292c0ecb21daad260e412054924a788e079caab2440b15ac2a7eb3e8a4ecfe8b000000000"
}