{
  "txid": "d5deec09f01ce38c74290dec6eb7cfbfa08ef363e9b3df98b9ab2a4009bc82a4",
  "version": 2,
  "locktime": 0,
  "vin": [
    {
      "txid": "422d2381214bacf030261fde77f51d0b5b747ceb8d55794e7a2d438521449c22",
      "vout": 0,
      "prevout": {
        "scriptpubkey": "51207c263d078f71e0be06c520f7f23f7eacaf34f60bc604e59cea6ccc0c991b516d",
        "scriptpubkey_asm": "OP_PUSHNUM_1 OP_PUSHBYTES_32 7c263d078f71e0be06c520f7f23f7eacaf34f60bc604e59cea6ccc0c991b516d",
        "scriptpubkey_type": "v1_p2tr",
        "scriptpubkey_address": "bc1p0snr6pu0w8stupk9yrmly0m74jhnfastcczwt882dnxqexgm29ks43dvgh",
        "value": 2811
      },
      "scriptsig": "",
      "scriptsig_asm": "",
      "witness": [
        "2bea133878ac13f2b1b63a5363772121be539568d68759ec778389fdab33bead665decfd6cefd18ec63b470a024c860289168ec3eb0df2a47a6dea2461d9ad95",
        "202ed8c01d59fda9d582393257c4e30f0a756b1deb9477f7b7936e3791f932fffcac0063036f7264010118746578742f706c61696e3b636861727365743d7574662d3800367b2270223a226272632d3230222c226f70223a227472616e73666572222c227469636b223a22e6b6a821222c22616d74223a2232227d68",
        "c12ed8c01d59fda9d582393257c4e30f0a756b1deb9477f7b7936e3791f932fffc"
      ],
      "is_coinbase": false,
      "sequence": 4294967293
    }
  ],
  "vout": [
    {
      "scriptpubkey": "5120194fdf17f96cd3acb981a4ce8d1990a6e6e40771ffaac02eb8970ff4afeeb8d4",
      "scriptpubkey_asm": "OP_PUSHNUM_1 OP_PUSHBYTES_32 194fdf17f96cd3acb981a4ce8d1990a6e6e40771ffaac02eb8970ff4afeeb8d4",
      "scriptpubkey_type": "v1_p2tr",
      "scriptpubkey_address": "bc1pr98a79lednf6ewvp5n8g6xvs5mnwgpm3l74vqt4cju8lftlwhr2q3ze3gq",
      "value": 546
    }
  ],
  "size": 321,
  "weight": 603,
  "fee": 2265,
  "status": {
    "confirmed": true,
    "block_height": 834460,
    "block_hash": "00000000000000000000484a79b643b2524bbce82e5d8a442013fa5b8905ed98",
    "block_time": 1710307468
  },
  "hex": "02000000000101229c442185432d7a4e79558deb7c745b0b1df577de1f2630f0ac4b2181232d420000000000fdffffff012202000000000000225120194fdf17f96cd3acb981a4ce8d1990a6e6e40771ffaac02eb8970ff4afeeb8d403402bea133878ac13f2b1b63a5363772121be539568d68759ec778389fdab33bead665decfd6cefd18ec63b470a024c860289168ec3eb0df2a47a6dea2461d9ad957c202ed8c01d59fda9d582393257c4e30f0a756b1deb9477f7b7936e3791f932fffcac0063036f7264010118746578742f706c61696e3b636861727365743d7574662d3800367b2270223a226272632d3230222c226f70223a227472616e73666572222c227469636b223a22e6b6a821222c22616d74223a2232227d6821c12ed8c01d59fda9d582393257c4e30f0a756b1deb9477f7b7936e3791f932fffc00000000"
}