{
  "txid": "d5df196a1ed41e50d0c8ec443d102d1f38ea5b39f057e9c43af6081fea8ea482",
  "version": 2,
  "locktime": 0,
  "vin": [
    {
      "txid": "6da214d61d854fcc024cb087f0806e622e7a77b924a99f562c851f3640db29f6",
      "vout": 0,
      "prevout": {
        "scriptpubkey": "0014bbf3e9e7ee4d0a4e26097375111a3745778cc936",
        "scriptpubkey_asm": "OP_0 OP_PUSHBYTES_20 bbf3e9e7ee4d0a4e26097375111a3745778cc936",
        "scriptpubkey_type": "v0_p2wpkh",
        "scriptpubkey_address": "bc1qh0e7nelwf59yufsfwd63zx3hg4mcejfkmzzt6d",
        "value": 7917
      },
      "scriptsig": "",
      "scriptsig_asm": "",
      "witness": [
        "304402202291eab72cefdb79f984649b55dddc16e4747d1e5ff23e1b4d1f40e61866165302205d2a9fdbd4043c57a770bf8053f83eab93619bb13571fe30cb13ef2862b5418701",
        "03a27d7ff80a2c17dd4565c463b1e31baa9547fa0d055d0bfd41170dce10ca22b1"
      ],
      "is_coinbase": false,
      "sequence": 4294967293
    }
  ],
  "vout": [
    {
      "scriptpubkey": "76a9144b6a472eee4a3c7715d8787cc24dc4a5460629f788ac",
      "scriptpubkey_asm": "OP_DUP OP_HASH160 OP_PUSHBYTES_20 4b6a472eee4a3c7715d8787cc24dc4a5460629f7 OP_EQUALVERIFY OP_CHECKSIG",
      "scriptpubkey_type": "p2pkh",
      "scriptpubkey_address": "17skziYkpVw6Hx5qWtNC3hnm7uhicrYMSq",
      "value": 6697
    }
  ],
  "size": 194,
  "weight": 449,
  "fee": 1220,
  "status": {
    "confirmed": true,
    "block_height": 834464,
    "block_hash": "0000000000000000000177a0869a911a2b65c9bdcd5a8bcb02b68f305bee848e",
    "block_time": 1710308296
  },
  "hex": "02000000000101f629db40361f852c569fa924b9777a2e626e80f087b04c02cc4f851dd614a26d0000000000fdffffff01291a0000000000001976a9144b6a472eee4a3c7715d8787cc24dc4a5460629f788ac0247304402202291eab72cefdb79f984649b55dddc16e4747d1e5ff23e1b4d1f40e61866165302205d2a9fdbd4043c57a770bf8053f83eab93619bb13571fe30cb13ef2862b54187012103a27d7ff80a2c17dd4565c463b1e31baa9547fa0d055d0bfd41170dce10ca22b100000000"
}