{
  "txid": "d5e4a2aa0f8a881166d20ad60e6fb4a8cd471aae9869b3991cec63c22f32e255",
  "version": 2,
  "locktime": 0,
  "vin": [
    {
      "txid": "945ba8d4ae757dce36cd5e5b9cb282a5396c6e6972016ea5d78f63b2e8fe9e52",
      "vout": 20,
      "prevout": {
        "scriptpubkey": "51207964f9693a04d9f581b68af8c97689fa843f3987e3085ac9adbaaf6acecc3161",
        "scriptpubkey_asm": "OP_PUSHNUM_1 OP_PUSHBYTES_32 7964f9693a04d9f581b68af8c97689fa843f3987e3085ac9adbaaf6acecc3161",
        "scriptpubkey_type": "v1_p2tr",
        "scriptpubkey_address": "bc1p09j0j6f6qnvltqdk3tuvja5fl2zr7wv8uvy94jddh2hk4nkvx9ssf3t3zq",
        "value": 2862
      },
      "scriptsig": "",
      "scriptsig_asm": "",
      "witness": [
        "e98b751135caa51b6f8ae568f181fed4bc7f9934e7a521e6e7cfd1209274b7f86df73a3d110b906e3a78d1b101674837d11557c4afb11e0c8f3c7e76be432cfb",
        "208bc080825af6ad9e20e543e41b6ebd569c6ecaa1e42434be34a6005457ae5deeac0063036f726401011e6170706c69636174696f6e2f6a736f6e3b636861727365743d7574662d38004cd37b2270223a22706f772d3230222c226f70223a226d696e74222c227469636b223a2250455045222c22616d74223a2231303030222c22736f6c7574696f6e223a22504550453a62633170367a67656779647861737432786571616535763930396434396a323636786e707a6178776634386336786b736871703766797a717734733761663a303030303030303030303030303030303030303139393431613561653132383937363539383134343239323533333030353762306461393666336465613163353a3532363039393734323832227d68",
        "c15067337a99a00666fd957e65b5c212a7b30f6b410af3fccba2d4635da920c85e"
      ],
      "is_coinbase": false,
      "sequence": 4294967295
    }
  ],
  "vout": [
    {
      "scriptpubkey": "5120d0919411a6ec16a3641dcd185795b52c95ad1a61174ce4d4f8d1ad0b803e4904",
      "scriptpubkey_asm": "OP_PUSHNUM_1 OP_PUSHBYTES_32 d0919411a6ec16a3641dcd185795b52c95ad1a61174ce4d4f8d1ad0b803e4904",
      "scriptpubkey_type": "v1_p2tr",
      "scriptpubkey_address": "bc1p6zgegydxast2xeqae5v909d49j266xnpzaxwf48c6xkshqp7fyzqw4s7af",
      "value": 546
    }
  ],
  "size": 487,
  "weight": 769,
  "fee": 2316,
  "status": {
    "confirmed": true,
    "block_height": 834460,
    "block_hash": "00000000000000000000484a79b643b2524bbce82e5d8a442013fa5b8905ed98",
    "block_time": 1710307468
  },
  "hex": "02000000000101529efee8b2638fd7a56e0172696e6c39a582b29c5b5ecd36ce7d75aed4a85b941400000000ffffffff012202000000000000225120d0919411a6ec16a3641dcd185795b52c95ad1a61174ce4d4f8d1ad0b803e49040340e98b751135caa51b6f8ae568f181fed4bc7f9934e7a521e6e7cfd1209274b7f86df73a3d110b906e3a78d1b101674837d11557c4afb11e0c8f3c7e76be432cfbfd2001208bc080825af6ad9e20e543e41b6ebd569c6ecaa1e42434be34a6005457ae5deeac0063036f726401011e6170706c69636174696f6e2f6a736f6e3b636861727365743d7574662d38004cd37b2270223a22706f772d3230222c226f70223a226d696e74222c227469636b223a2250455045222c22616d74223a2231303030222c22736f6c7574696f6e223a22504550453a62633170367a67656779647861737432786571616535763930396434396a323636786e707a6178776634386336786b736871703766797a717734733761663a303030303030303030303030303030303030303139393431613561653132383937363539383134343239323533333030353762306461393666336465613163353a3532363039393734323832227d6821c15067337a99a00666fd957e65b5c212a7b30f6b410af3fccba2d4635da920c85e00000000"
}