{
  "txid": "d5f107067034a696854dd2ddad3e6e67015717c15153c343c21d567f98f43acc",
  "version": 2,
  "locktime": 0,
  "vin": [
    {
      "txid": "0d531ea64ecf7f9aac1d63454cf44512780a4f7b9042f505c1c25e6a2601bb82",
      "vout": 1,
      "prevout": {
        "scriptpubkey": "00141fd41e79abc5bc4eef38703d50534cf37d9f8d78",
        "scriptpubkey_asm": "OP_0 OP_PUSHBYTES_20 1fd41e79abc5bc4eef38703d50534cf37d9f8d78",
        "scriptpubkey_type": "v0_p2wpkh",
        "scriptpubkey_address": "bc1qrl2pu7dtck7yamecwq74q56v7d7elrtcha0gut",
        "value": 67850
      },
      "scriptsig": "",
      "scriptsig_asm": "",
      "witness": [
        "3045022100e47f4675426d235419af87a3998c5050e31027255a902c4c162c009b6967d299022068c33b4bab27cd03e82bbf9d0490acb5d3669a1bd9218993521d245aaae4d80b01",
        "02fc4b6689ce325eaa9052110f92be29584e4e0828eadd2db2153541aa6e646e73"
      ],
      "is_coinbase": false,
      "sequence": 4294967295
    }
  ],
  "vout": [
    {
      "scriptpubkey": "00147d9eeae202c417c26b3787a1d4c77cf96c3beacc",
      "scriptpubkey_asm": "OP_0 OP_PUSHBYTES_20 7d9eeae202c417c26b3787a1d4c77cf96c3beacc",
      "scriptpubkey_type": "v0_p2wpkh",
      "scriptpubkey_address": "bc1q0k0w4cszcstuy6ehs7saf3mul9krh6kvgr00gq",
      "value": 66184
    }
  ],
  "size": 192,
  "weight": 438,
  "fee": 1666,
  "status": {
    "confirmed": true,
    "block_height": 834638,
    "block_hash": "000000000000000000025f742c626208ac87e0b7d15054abb4a19ca2d735a54e",
    "block_time": 1710405325
  },
  "hex": "0200000000010182bb01266a5ec2c105f542907b4f0a781245f44c45631dac9a7fcf4ea61e530d0100000000ffffffff0188020100000000001600147d9eeae202c417c26b3787a1d4c77cf96c3beacc02483045022100e47f4675426d235419af87a3998c5050e31027255a902c4c162c009b6967d299022068c33b4bab27cd03e82bbf9d0490acb5d3669a1bd9218993521d245aaae4d80b012102fc4b6689ce325eaa9052110f92be29584e4e0828eadd2db2153541aa6e646e7300000000"
}