{
  "txid": "d602b052b18af6e2d715d5ab39fbba754a02fa138f7059139caea465ab37fbad",
  "version": 1,
  "locktime": 0,
  "vin": [
    {
      "txid": "d52f882808f59486f24e591ef415d5be088463ef2c928090015f9d6c6e914e70",
      "vout": 20,
      "prevout": {
        "scriptpubkey": "76a914ef5a41c0ed1dcb62b8421fa6fdc4b637ad04272788ac",
        "scriptpubkey_asm": "OP_DUP OP_HASH160 OP_PUSHBYTES_20 ef5a41c0ed1dcb62b8421fa6fdc4b637ad042727 OP_EQUALVERIFY OP_CHECKSIG",
        "scriptpubkey_type": "p2pkh",
        "scriptpubkey_address": "1Npad1CHQ2T6ny9wHGdhx3efctJZKJ2zJN",
        "value": 1745000
      },
      "scriptsig": "473044022070c383dda72c77aeadbac5321e7ebb71506bd9742bb9772ac9a4a1b10a8de7cc022060b2103cc0279575ba8cd6d31afd6faf02510b3431680b23774a6aef148beb6b01210233362d652f247cc450a1db7bd6177189f78816b4f9373a913b6d58248a458ae7",
      "scriptsig_asm": "OP_PUSHBYTES_71 3044022070c383dda72c77aeadbac5321e7ebb71506bd9742bb9772ac9a4a1b10a8de7cc022060b2103cc0279575ba8cd6d31afd6faf02510b3431680b23774a6aef148beb6b01 OP_PUSHBYTES_33 0233362d652f247cc450a1db7bd6177189f78816b4f9373a913b6d58248a458ae7",
      "is_coinbase": false,
      "sequence": 4294967295
    },
    {
      "txid": "ffbf56db1601e5e3c018ef076423c6048be3dbb1b6952a9ee03f89b1be3077d0",
      "vout": 1,
      "prevout": {
        "scriptpubkey": "76a91419d9764296f474a54c7edd2aac278dc7733c823888ac",
        "scriptpubkey_asm": "OP_DUP OP_HASH160 OP_PUSHBYTES_20 19d9764296f474a54c7edd2aac278dc7733c8238 OP_EQUALVERIFY OP_CHECKSIG",
        "scriptpubkey_type": "p2pkh",
        "scriptpubkey_address": "13MgQKQ1AajECSScUVAsUpFCfV9fCuh1He",
        "value": 336937
      },
      "scriptsig": "483045022100ae449b9493fef04d473d3e4d5cd576fb6da35a1a481114643a6afe0aca90b09a022032db49778507ab98eec45f3c363334f2815537a0a829527475c848361d7188ce0121026e46062b64abb86f2d99a6443b490efebe9a44bdd0aabccb8a94cdb19ee31513",
      "scriptsig_asm": "OP_PUSHBYTES_72 3045022100ae449b9493fef04d473d3e4d5cd576fb6da35a1a481114643a6afe0aca90b09a022032db49778507ab98eec45f3c363334f2815537a0a829527475c848361d7188ce01 OP_PUSHBYTES_33 026e46062b64abb86f2d99a6443b490efebe9a44bdd0aabccb8a94cdb19ee31513",
      "is_coinbase": false,
      "sequence": 4294967295
    }
  ],
  "vout": [
    {
      "scriptpubkey": "76a9148b990c346acc4d6c5ea77e679cf1fb54c5a57bcd88ac",
      "scriptpubkey_asm": "OP_DUP OP_HASH160 OP_PUSHBYTES_20 8b990c346acc4d6c5ea77e679cf1fb54c5a57bcd OP_EQUALVERIFY OP_CHECKSIG",
      "scriptpubkey_type": "p2pkh",
      "scriptpubkey_address": "1Dj8GbzWAV3jrWKUViR5vmjbMiG1B79GJo",
      "value": 2075137
    }
  ],
  "size": 339,
  "weight": 1356,
  "fee": 6800,
  "status": {
    "confirmed": true,
    "block_height": 834464,
    "block_hash": "0000000000000000000177a0869a911a2b65c9bdcd5a8bcb02b68f305bee848e",
    "block_time": 1710308296
  },
  "hex": "0100000002704e916e6c9d5f019080922cef638408bed515f41e594ef28694f50828882fd5140000006a473044022070c383dda72c77aeadbac5321e7ebb71506bd9742bb9772ac9a4a1b10a8de7cc022060b2103cc0279575ba8cd6d31afd6faf02510b3431680b23774a6aef148beb6b01210233362d652f247cc450a1db7bd6177189f78816b4f9373a913b6d58248a458ae7ffffffffd07730beb1893fe09e2a95b6b1dbe38b04c6236407ef18c0e3e50116db56bfff010000006b483045022100ae449b9493fef04d473d3e4d5cd576fb6da35a1a481114643a6afe0aca90b09a022032db49778507ab98eec45f3c363334f2815537a0a829527475c848361d7188ce0121026e46062b64abb86f2d99a6443b490efebe9a44bdd0aabccb8a94cdb19ee31513ffffffff0101aa1f00000000001976a9148b990c346acc4d6c5ea77e679cf1fb54c5a57bcd88ac00000000"
}