{
  "txid": "d61ef56b2451012bf8ee777670644bcfef1c55f314e0ea97ea8fa049bec38bd0",
  "version": 2,
  "locktime": 0,
  "vin": [
    {
      "txid": "246d654c08ac53d370d501753f3ac2c90861e2c8cea715ed4b7554841cced399",
      "vout": 57,
      "prevout": {
        "scriptpubkey": "51206d2ebb773e785669e0e57bf2250f07b3eb8673ba72b574bb422f4cc52f433eb4",
        "scriptpubkey_asm": "OP_PUSHNUM_1 OP_PUSHBYTES_32 6d2ebb773e785669e0e57bf2250f07b3eb8673ba72b574bb422f4cc52f433eb4",
        "scriptpubkey_type": "v1_p2tr",
        "scriptpubkey_address": "bc1pd5htkae70ptxnc8900ez2rc8k04cvua6w26hfw6z9axv2t6r866qza6y53",
        "value": 3055
      },
      "scriptsig": "",
      "scriptsig_asm": "",
      "witness": [
        "8296b7ffa54666d300576ca629396d9179fa48618b02cbd613d2dd6e3143d1bfe8a77d57eda87590bccb51276ce496c3fefd0c20914a1186c2de433f7ac7fc70",
        "20b2923c4b5406f2c2f2cb70d62655d2f3a7aeed8d8eced7790c3619e126903538ac0063036f726401011e6170706c69636174696f6e2f6a736f6e3b636861727365743d7574662d38004cd37b2270223a22706f772d3230222c226f70223a226d696e74222c227469636b223a2250455045222c22616d74223a2231303030222c22736f6c7574696f6e223a22504550453a62633170756a666d33753333656e70786b38383339796c6b3239323239396b6e6467686c717468396e39647a6c7663647635617076366a717732776e71663a303030303030303030303030303030303030303139393431613561653132383937363539383134343239323533333030353762306461393666336465613163353a3538353438353637353633227d68",
        "c1f4929cb66946e40c5d3e5e2b126f88b9a6070d7490abd3aa8e42bf5bbcfe7b9f"
      ],
      "is_coinbase": false,
      "sequence": 4294967295
    }
  ],
  "vout": [
    {
      "scriptpubkey": "5120e493b8f231ccc26b1cf1293f65154a296d36a2ff02ee5995a2fb30d653a166a4",
      "scriptpubkey_asm": "OP_PUSHNUM_1 OP_PUSHBYTES_32 e493b8f231ccc26b1cf1293f65154a296d36a2ff02ee5995a2fb30d653a166a4",
      "scriptpubkey_type": "v1_p2tr",
      "scriptpubkey_address": "bc1pujfm3u33enpxk8839ylk292299kndghlqth9n9dzlvcdv5apv6jqw2wnqf",
      "value": 546
    }
  ],
  "size": 487,
  "weight": 769,
  "fee": 2509,
  "status": {
    "confirmed": true,
    "block_height": 834460,
    "block_hash": "00000000000000000000484a79b643b2524bbce82e5d8a442013fa5b8905ed98",
    "block_time": 1710307468
  },
  "hex": "0200000000010199d3ce1c8454754bed15a7cec8e26108c9c23a3f7501d570d353ac084c656d243900000000ffffffff012202000000000000225120e493b8f231ccc26b1cf1293f65154a296d36a2ff02ee5995a2fb30d653a166a403408296b7ffa54666d300576ca629396d9179fa48618b02cbd613d2dd6e3143d1bfe8a77d57eda87590bccb51276ce496c3fefd0c20914a1186c2de433f7ac7fc70fd200120b2923c4b5406f2c2f2cb70d62655d2f3a7aeed8d8eced7790c3619e126903538ac0063036f726401011e6170706c69636174696f6e2f6a736f6e3b636861727365743d7574662d38004cd37b2270223a22706f772d3230222c226f70223a226d696e74222c227469636b223a2250455045222c22616d74223a2231303030222c22736f6c7574696f6e223a22504550453a62633170756a666d33753333656e70786b38383339796c6b3239323239396b6e6467686c717468396e39647a6c7663647635617076366a717732776e71663a303030303030303030303030303030303030303139393431613561653132383937363539383134343239323533333030353762306461393666336465613163353a3538353438353637353633227d6821c1f4929cb66946e40c5d3e5e2b126f88b9a6070d7490abd3aa8e42bf5bbcfe7b9f00000000"
}