{
  "txid": "d6208844b3cdcb1e47972002e5017cbd98097a8739713b7f660271fb821da095",
  "version": 2,
  "locktime": 0,
  "vin": [
    {
      "txid": "0726148c594217ead9458a6d45ce9502ee0abce544b407673cd81e5c4850aa1c",
      "vout": 75,
      "prevout": {
        "scriptpubkey": "001428ed6b46147ebc5d6845e93f2477a6e815ee0aa6",
        "scriptpubkey_asm": "OP_0 OP_PUSHBYTES_20 28ed6b46147ebc5d6845e93f2477a6e815ee0aa6",
        "scriptpubkey_type": "v0_p2wpkh",
        "scriptpubkey_address": "bc1q9rkkk3s5067966z9ayljgaaxaq27uz4xt6572k",
        "value": 210000
      },
      "scriptsig": "",
      "scriptsig_asm": "",
      "witness": [
        "3045022100e5c096eb2d391bcc43e6c221ce044398cb441be2909dd9f0380ddad127aa2c0e022039a11bc025884ae85cc992cd394518ce198750a9119615d274c91febdd8c722b01",
        "02e04f483c81ff8ecac731061f8e89ab5f471a8cc1c74fa507277decc5fb24321a"
      ],
      "is_coinbase": false,
      "sequence": 4294967293
    }
  ],
  "vout": [
    {
      "scriptpubkey": "76a914f8ebbb9e64190f88062de44581029c43ccfab37c88ac",
      "scriptpubkey_asm": "OP_DUP OP_HASH160 OP_PUSHBYTES_20 f8ebbb9e64190f88062de44581029c43ccfab37c OP_EQUALVERIFY OP_CHECKSIG",
      "scriptpubkey_type": "p2pkh",
      "scriptpubkey_address": "1PhAyakn8KMYhquWyqzWUZvH7BXNbssBrU",
      "value": 208780
    }
  ],
  "size": 195,
  "weight": 450,
  "fee": 1220,
  "status": {
    "confirmed": true,
    "block_height": 834464,
    "block_hash": "0000000000000000000177a0869a911a2b65c9bdcd5a8bcb02b68f305bee848e",
    "block_time": 1710308296
  },
  "hex": "020000000001011caa50485c1ed83c6707b444e5bc0aee0295ce456d8a45d9ea1742598c1426074b00000000fdffffff018c2f0300000000001976a914f8ebbb9e64190f88062de44581029c43ccfab37c88ac02483045022100e5c096eb2d391bcc43e6c221ce044398cb441be2909dd9f0380ddad127aa2c0e022039a11bc025884ae85cc992cd394518ce198750a9119615d274c91febdd8c722b012102e04f483c81ff8ecac731061f8e89ab5f471a8cc1c74fa507277decc5fb24321a00000000"
}