{
  "txid": "d62452a654340aac6f62cd9302bc8007a370aa332153e29b4df6ceb58b2d6fee",
  "version": 1,
  "locktime": 0,
  "vin": [
    {
      "txid": "b429ab59c525cf2b3fb03de9f096d215bbcc25a4d2e10e4732103e2fee6b66c4",
      "vout": 0,
      "prevout": {
        "scriptpubkey": "001480439813d1d9ae3bd2cba77ccc740fe8b7274801",
        "scriptpubkey_asm": "OP_0 OP_PUSHBYTES_20 80439813d1d9ae3bd2cba77ccc740fe8b7274801",
        "scriptpubkey_type": "v0_p2wpkh",
        "scriptpubkey_address": "bc1qsppesy73mxhrh5kt5a7vcaq0azmjwjqp4wl6cq",
        "value": 1364854
      },
      "scriptsig": "",
      "scriptsig_asm": "",
      "witness": [
        "3045022100e0699d18ba99f61fd6d1bbdf6ebe24ba10c141fbf5c7b18dd824cd70353c6eec02205f149591a037bd3df73211efde29ee6b64c052aa64fec612d672c45197aeb33401",
        "02cb3133f4dfd313fea368e3b66660df9b603ce13f9d15cf3dd7840286bb301b15"
      ],
      "is_coinbase": false,
      "sequence": 4294967295
    },
    {
      "txid": "f6a2012a483cd808bf861604acbdd4c2ef443d01fbbba23a87e6e1856f94a388",
      "vout": 0,
      "prevout": {
        "scriptpubkey": "001480439813d1d9ae3bd2cba77ccc740fe8b7274801",
        "scriptpubkey_asm": "OP_0 OP_PUSHBYTES_20 80439813d1d9ae3bd2cba77ccc740fe8b7274801",
        "scriptpubkey_type": "v0_p2wpkh",
        "scriptpubkey_address": "bc1qsppesy73mxhrh5kt5a7vcaq0azmjwjqp4wl6cq",
        "value": 2061324
      },
      "scriptsig": "",
      "scriptsig_asm": "",
      "witness": [
        "3044022100f6ccdf29359b543d236662eb73d8c0dfa1106c5df3e3708703f52904f7edba5e021f24b5f58d2b8d41d55db1d5b39faf08540416dcd6fbc3969f115fffe33f03de01",
        "02cb3133f4dfd313fea368e3b66660df9b603ce13f9d15cf3dd7840286bb301b15"
      ],
      "is_coinbase": false,
      "sequence": 4294967295
    }
  ],
  "vout": [
    {
      "scriptpubkey": "a914ec4ff423b31884933c4eb9ff61a06a875f61cad987",
      "scriptpubkey_asm": "OP_HASH160 OP_PUSHBYTES_20 ec4ff423b31884933c4eb9ff61a06a875f61cad9 OP_EQUAL",
      "scriptpubkey_type": "p2sh",
      "scriptpubkey_address": "3PEXB6Qo11Ev88kixuJy9R9E69ktWMjJiR",
      "value": 1363000
    },
    {
      "scriptpubkey": "0014d9929df7316b0da9f3a833e7e96f96bf66456ebf",
      "scriptpubkey_asm": "OP_0 OP_PUSHBYTES_20 d9929df7316b0da9f3a833e7e96f96bf66456ebf",
      "scriptpubkey_type": "v0_p2wpkh",
      "scriptpubkey_address": "bc1qmxffmae3dvx6nuagx0n7jmukhany2m4l203fas",
      "value": 2057756
    }
  ],
  "size": 372,
  "weight": 837,
  "fee": 5422,
  "status": {
    "confirmed": true,
    "block_height": 834638,
    "block_hash": "000000000000000000025f742c626208ac87e0b7d15054abb4a19ca2d735a54e",
    "block_time": 1710405325
  },
  "hex": "01000000000102c4666bee2f3e1032470ee1d2a425ccbb15d296f0e93db03f2bcf25c559ab29b40000000000ffffffff88a3946f85e1e6873aa2bbfb013d44efc2d4bdac041686bf08d83c482a01a2f60000000000ffffffff0238cc14000000000017a914ec4ff423b31884933c4eb9ff61a06a875f61cad9871c661f0000000000160014d9929df7316b0da9f3a833e7e96f96bf66456ebf02483045022100e0699d18ba99f61fd6d1bbdf6ebe24ba10c141fbf5c7b18dd824cd70353c6eec02205f149591a037bd3df73211efde29ee6b64c052aa64fec612d672c45197aeb334012102cb3133f4dfd313fea368e3b66660df9b603ce13f9d15cf3dd7840286bb301b1502473044022100f6ccdf29359b543d236662eb73d8c0dfa1106c5df3e3708703f52904f7edba5e021f24b5f58d2b8d41d55db1d5b39faf08540416dcd6fbc3969f115fffe33f03de012102cb3133f4dfd313fea368e3b66660df9b603ce13f9d15cf3dd7840286bb301b1500000000"
}