{
  "txid": "d62de862d1945bc26b1ab03a52f824935ff56f1cbf42a576cd30a1bfc56e1dfe",
  "version": 2,
  "locktime": 834637,
  "vin": [
    {
      "txid": "7bcba2ad63e96bb7cd267625da22fd30eab5ebcc6ac74e71dedfcc1bd1864eb2",
      "vout": 20,
      "prevout": {
        "scriptpubkey": "00141d8f9e7778917346d829ab5e3b9f5952f6c2c2bd",
        "scriptpubkey_asm": "OP_0 OP_PUSHBYTES_20 1d8f9e7778917346d829ab5e3b9f5952f6c2c2bd",
        "scriptpubkey_type": "v0_p2wpkh",
        "scriptpubkey_address": "bc1qrk8euamcj9e5dkpf4d0rh86e2tmv9s4a05jpvf",
        "value": 1540000
      },
      "scriptsig": "",
      "scriptsig_asm": "",
      "witness": [
        "304402201951551b668c8d8fb65dbd53984ed37db1016a34777a9148369a0da9e69a165002200d7ef2499e33ef45e714fe44ab355884795136db8cf16065ef8d0a286b63fc8401",
        "03946be214a6ad247132442dc0c7c0ca11832cce5c1759271c5ae73b631ec35b59"
      ],
      "is_coinbase": false,
      "sequence": 4294967293
    }
  ],
  "vout": [
    {
      "scriptpubkey": "76a914c50a439949304fee63710372a156ed28fa9d0d0788ac",
      "scriptpubkey_asm": "OP_DUP OP_HASH160 OP_PUSHBYTES_20 c50a439949304fee63710372a156ed28fa9d0d07 OP_EQUALVERIFY OP_CHECKSIG",
      "scriptpubkey_type": "p2pkh",
      "scriptpubkey_address": "1JxrQx6DCBwd6aLvvVwozKm2NxxNgM33wP",
      "value": 1535424
    }
  ],
  "size": 194,
  "weight": 449,
  "fee": 4576,
  "status": {
    "confirmed": true,
    "block_height": 834638,
    "block_hash": "000000000000000000025f742c626208ac87e0b7d15054abb4a19ca2d735a54e",
    "block_time": 1710405325
  },
  "hex": "02000000000101b24e86d11bccdfde714ec76accebb5ea30fd22da257626cdb76be963ada2cb7b1400000000fdffffff01c06d1700000000001976a914c50a439949304fee63710372a156ed28fa9d0d0788ac0247304402201951551b668c8d8fb65dbd53984ed37db1016a34777a9148369a0da9e69a165002200d7ef2499e33ef45e714fe44ab355884795136db8cf16065ef8d0a286b63fc84012103946be214a6ad247132442dc0c7c0ca11832cce5c1759271c5ae73b631ec35b594dbc0c00"
}