{
  "txid": "d63644564d2efb112b806c050a5b15fb9ce1ab9ac8d9758c6f81dbcfd12defff",
  "version": 2,
  "locktime": 0,
  "vin": [
    {
      "txid": "e835c4d922fbed17c48b3bb466ba1ffc020ede84c1303bdb67ca1f883dd615bb",
      "vout": 21,
      "prevout": {
        "scriptpubkey": "5120a5d7a1cac572c02b608d629d26300655300bbb5de8e16c0b4fe6880d6c0b3563",
        "scriptpubkey_asm": "OP_PUSHNUM_1 OP_PUSHBYTES_32 a5d7a1cac572c02b608d629d26300655300bbb5de8e16c0b4fe6880d6c0b3563",
        "scriptpubkey_type": "v1_p2tr",
        "scriptpubkey_address": "bc1p5ht6rjk9wtqzkcydv2wjvvqx25cqhw6aarskcz60u6yq6mqtx43sneu5uj",
        "value": 3248
      },
      "scriptsig": "",
      "scriptsig_asm": "",
      "witness": [
        "a89075d7aba56a62561490fe274462a4c040690bc66b3e36312a2d656dc8a5fb574bf3935e07c8e5f26ecb187e02f74f83480187687696cdd008dc881f697693",
        "2045f791bc47c4fcfb8798b8bea52b795b2729c93f7f5bd4bc3538d1e8553a64b4ac0063036f726401011e6170706c69636174696f6e2f6a736f6e3b636861727365743d7574662d38004cd37b2270223a22706f772d3230222c226f70223a226d696e74222c227469636b223a2250455045222c22616d74223a2231303030222c22736f6c7574696f6e223a22504550453a626331703378336875706e76383064666366666c34333367327a3776713378706c63673364666d79716365336d6c6d6e78397767753872717265763032653a303030303030303030303030303030303030303139393431613561653132383937363539383134343239323533333030353762306461393666336465613163353a3234363636383635323635227d68",
        "c0bf69a78b1b6433fca38fda21525e43a6c565682ca08e513a8f66feb668723930"
      ],
      "is_coinbase": false,
      "sequence": 4294967295
    }
  ],
  "vout": [
    {
      "scriptpubkey": "512089a37e066c3bda9c253fac62850bcc044c1fe1116a76406331dff73315c8e1c6",
      "scriptpubkey_asm": "OP_PUSHNUM_1 OP_PUSHBYTES_32 89a37e066c3bda9c253fac62850bcc044c1fe1116a76406331dff73315c8e1c6",
      "scriptpubkey_type": "v1_p2tr",
      "scriptpubkey_address": "bc1p3x3hupnv80dfcffl433g2z7vq3xplcg3dfmyqce3mlmnx9wgu8rqrev02e",
      "value": 546
    }
  ],
  "size": 487,
  "weight": 769,
  "fee": 2702,
  "status": {
    "confirmed": true,
    "block_height": 834460,
    "block_hash": "00000000000000000000484a79b643b2524bbce82e5d8a442013fa5b8905ed98",
    "block_time": 1710307468
  },
  "hex": "02000000000101bb15d63d881fca67db3b30c184de0e02fc1fba66b43b8bc417edfb22d9c435e81500000000ffffffff01220200000000000022512089a37e066c3bda9c253fac62850bcc044c1fe1116a76406331dff73315c8e1c60340a89075d7aba56a62561490fe274462a4c040690bc66b3e36312a2d656dc8a5fb574bf3935e07c8e5f26ecb187e02f74f83480187687696cdd008dc881f697693fd20012045f791bc47c4fcfb8798b8bea52b795b2729c93f7f5bd4bc3538d1e8553a64b4ac0063036f726401011e6170706c69636174696f6e2f6a736f6e3b636861727365743d7574662d38004cd37b2270223a22706f772d3230222c226f70223a226d696e74222c227469636b223a2250455045222c22616d74223a2231303030222c22736f6c7574696f6e223a22504550453a626331703378336875706e76383064666366666c34333367327a3776713378706c63673364666d79716365336d6c6d6e78397767753872717265763032653a303030303030303030303030303030303030303139393431613561653132383937363539383134343239323533333030353762306461393666336465613163353a3234363636383635323635227d6821c0bf69a78b1b6433fca38fda21525e43a6c565682ca08e513a8f66feb66872393000000000"
}