{
  "txid": "d647901bbe0cfcd4cef8fc87b6925ae88e9f7e501441077a47c7006a93bae1a7",
  "version": 1,
  "locktime": 0,
  "vin": [
    {
      "txid": "7032c48f10f797bf9871ebbe487ffac925c34cbc49c5901db4104d65670c47b7",
      "vout": 1,
      "prevout": {
        "scriptpubkey": "76a91428b26d1a05e32130f8a0bd2289734042fd4ac48488ac",
        "scriptpubkey_asm": "OP_DUP OP_HASH160 OP_PUSHBYTES_20 28b26d1a05e32130f8a0bd2289734042fd4ac484 OP_EQUALVERIFY OP_CHECKSIG",
        "scriptpubkey_type": "p2pkh",
        "scriptpubkey_address": "14iBmwbxUah9jcduw9exjhN7fZfJgwuCWS",
        "value": 6317837
      },
      "scriptsig": "483045022100b20a7a3edbb0373bc0e0cedeb235a6113fd867ebb1c1d6e79b4fd69a2e3409030220310144c56c1dba754b63ae4135e7d69d64c4de8bec44f66727fa7045315d893801210232e908bda6a6123d96dbcb03e25e4785e6ce4ffe4e2f8f9298331533a6dfad7f",
      "scriptsig_asm": "OP_PUSHBYTES_72 3045022100b20a7a3edbb0373bc0e0cedeb235a6113fd867ebb1c1d6e79b4fd69a2e3409030220310144c56c1dba754b63ae4135e7d69d64c4de8bec44f66727fa7045315d893801 OP_PUSHBYTES_33 0232e908bda6a6123d96dbcb03e25e4785e6ce4ffe4e2f8f9298331533a6dfad7f",
      "is_coinbase": false,
      "sequence": 4294967295
    }
  ],
  "vout": [
    {
      "scriptpubkey": "76a9145c17b4a4920a05087e21f90ef607929dec897d5f88ac",
      "scriptpubkey_asm": "OP_DUP OP_HASH160 OP_PUSHBYTES_20 5c17b4a4920a05087e21f90ef607929dec897d5f OP_EQUALVERIFY OP_CHECKSIG",
      "scriptpubkey_type": "p2pkh",
      "scriptpubkey_address": "19PwZkCkmoiVwnT9oKV4iFj4EqLzmfGTcE",
      "value": 6313997
    }
  ],
  "size": 192,
  "weight": 768,
  "fee": 3840,
  "status": {
    "confirmed": true,
    "block_height": 834638,
    "block_hash": "000000000000000000025f742c626208ac87e0b7d15054abb4a19ca2d735a54e",
    "block_time": 1710405325
  },
  "hex": "0100000001b7470c67654d10b41d90c549bc4cc325c9fa7f48beeb7198bf97f7108fc43270010000006b483045022100b20a7a3edbb0373bc0e0cedeb235a6113fd867ebb1c1d6e79b4fd69a2e3409030220310144c56c1dba754b63ae4135e7d69d64c4de8bec44f66727fa7045315d893801210232e908bda6a6123d96dbcb03e25e4785e6ce4ffe4e2f8f9298331533a6dfad7fffffffff010d586000000000001976a9145c17b4a4920a05087e21f90ef607929dec897d5f88ac00000000"
}