{
  "txid": "d655cb219190305d7287dfa0e4623654b3be71523730c8548672e9b7015cf797",
  "version": 2,
  "locktime": 0,
  "vin": [
    {
      "txid": "8486ecb4df0880316dd6e82b3971b4df187aff23765bc3a47f8d78bb53aa273c",
      "vout": 84,
      "prevout": {
        "scriptpubkey": "512035b087f4033d52a7a49c746ecf653bad1d008e4cce0c41821e5ac1f5b596621e",
        "scriptpubkey_asm": "OP_PUSHNUM_1 OP_PUSHBYTES_32 35b087f4033d52a7a49c746ecf653bad1d008e4cce0c41821e5ac1f5b596621e",
        "scriptpubkey_type": "v1_p2tr",
        "scriptpubkey_address": "bc1pxkcg0aqr84f20fyuw3hv7efm45wsprjvecxyrqs7ttqltdvkvg0qqaldfz",
        "value": 2575
      },
      "scriptsig": "",
      "scriptsig_asm": "",
      "witness": [
        "b0bb2e29629ca85edf20153d677df45aec669000bce9f32144634333a5782c1a9d983a51e46bf76606b6e4f8454e3e4cc3757a76e8c0bb93f152698cb2e8b4af",
        "20b13c3b828918693d43c952b3135944474f0787c533b96e467560aad2b476f121ac0063036f726401010a746578742f706c61696e00367b2270223a226272632d3230222c226f70223a226d696e74222c227469636b223a2261616161222c22616d74223a223130303030227d68",
        "c1b13c3b828918693d43c952b3135944474f0787c533b96e467560aad2b476f121"
      ],
      "is_coinbase": false,
      "sequence": 4261412863
    }
  ],
  "vout": [
    {
      "scriptpubkey": "0014ddd7ef12ea6f78edcc1e8e7afa12c01ab59f3339",
      "scriptpubkey_asm": "OP_0 OP_PUSHBYTES_20 ddd7ef12ea6f78edcc1e8e7afa12c01ab59f3339",
      "scriptpubkey_type": "v0_p2wpkh",
      "scriptpubkey_address": "bc1qmht77yh2dauwmnq73ea05ykqr26e7veea8spz6",
      "value": 546
    }
  ],
  "size": 295,
  "weight": 541,
  "fee": 2029,
  "status": {
    "confirmed": true,
    "block_height": 834460,
    "block_hash": "00000000000000000000484a79b643b2524bbce82e5d8a442013fa5b8905ed98",
    "block_time": 1710307468
  },
  "hex": "020000000001013c27aa53bb788d7fa4c35b7623ff7a18dfb471392be8d66d318008dfb4ec86845400000000fffffffd012202000000000000160014ddd7ef12ea6f78edcc1e8e7afa12c01ab59f33390340b0bb2e29629ca85edf20153d677df45aec669000bce9f32144634333a5782c1a9d983a51e46bf76606b6e4f8454e3e4cc3757a76e8c0bb93f152698cb2e8b4af6e20b13c3b828918693d43c952b3135944474f0787c533b96e467560aad2b476f121ac0063036f726401010a746578742f706c61696e00367b2270223a226272632d3230222c226f70223a226d696e74222c227469636b223a2261616161222c22616d74223a223130303030227d6821c1b13c3b828918693d43c952b3135944474f0787c533b96e467560aad2b476f12100000000"
}