{
  "txid": "d65d1f550b9a5ce05cc9b84ca23b35896337761f47c76c9124bd58cd0c0369cf",
  "version": 1,
  "locktime": 0,
  "vin": [
    {
      "txid": "c506e912a33b58788af1652ea2884b6593881e00829823c8df3e671eff5d6a04",
      "vout": 0,
      "prevout": {
        "scriptpubkey": "00141c6977423aa4b82a0d7f8496cdf3fc2f8b4f580c",
        "scriptpubkey_asm": "OP_0 OP_PUSHBYTES_20 1c6977423aa4b82a0d7f8496cdf3fc2f8b4f580c",
        "scriptpubkey_type": "v0_p2wpkh",
        "scriptpubkey_address": "bc1qr35hws365juz5rtlsjtvmulu97957kqvr3zpw3",
        "value": 35620898
      },
      "scriptsig": "",
      "scriptsig_asm": "",
      "witness": [
        "3045022100844db147957e3fe5b08deb94a6bdb23f8889d5038cf1a6b1bdc9e80b099b4ece02204b7f46dd8deb86a04f915e713d06dc005f15cc167463eaa8127e2f69137bc82b01",
        "02084ad9ff2a070ef71f32375ff91e5f98448afc62bfb5934c3c15b4348cf11df7"
      ],
      "is_coinbase": false,
      "sequence": 4294967293
    }
  ],
  "vout": [
    {
      "scriptpubkey": "00141c6977423aa4b82a0d7f8496cdf3fc2f8b4f580c",
      "scriptpubkey_asm": "OP_0 OP_PUSHBYTES_20 1c6977423aa4b82a0d7f8496cdf3fc2f8b4f580c",
      "scriptpubkey_type": "v0_p2wpkh",
      "scriptpubkey_address": "bc1qr35hws365juz5rtlsjtvmulu97957kqvr3zpw3",
      "value": 35097671
    },
    {
      "scriptpubkey": "a914e53e41acfd3d5c2fac5931c2c256c6cf9c37a03d87",
      "scriptpubkey_asm": "OP_HASH160 OP_PUSHBYTES_20 e53e41acfd3d5c2fac5931c2c256c6cf9c37a03d OP_EQUAL",
      "scriptpubkey_type": "p2sh",
      "scriptpubkey_address": "3Nb9F8hYoDh6m8534sDBrQgqhBixorht2Z",
      "value": 135948
    },
    {
      "scriptpubkey": "0014b701f8a5b213160640064cee4a47321f819fe2f5",
      "scriptpubkey_asm": "OP_0 OP_PUSHBYTES_20 b701f8a5b213160640064cee4a47321f819fe2f5",
      "scriptpubkey_type": "v0_p2wpkh",
      "scriptpubkey_address": "bc1qkuql3fdjzvtqvsqxfnhy53ejr7qelch40fg2fc",
      "value": 133088
    },
    {
      "scriptpubkey": "0014ea8fa9ce847288ae8cf0472cdb7ae2074cac93fe",
      "scriptpubkey_asm": "OP_0 OP_PUSHBYTES_20 ea8fa9ce847288ae8cf0472cdb7ae2074cac93fe",
      "scriptpubkey_type": "v0_p2wpkh",
      "scriptpubkey_address": "bc1qa286nn5yw2y2ar8sgukdk7hzqax2eyl7vzq7x3",
      "value": 132778
    },
    {
      "scriptpubkey": "a914ea4e66fe037da88a54ba93f9393c4dcb4d2b8e8c87",
      "scriptpubkey_asm": "OP_HASH160 OP_PUSHBYTES_20 ea4e66fe037da88a54ba93f9393c4dcb4d2b8e8c OP_EQUAL",
      "scriptpubkey_type": "p2sh",
      "scriptpubkey_address": "3P3uxvLBKq3phHCZgqyibjK2TiKzPwp9MC",
      "value": 101972
    },
    {
      "scriptpubkey": "00149979ae1cd72c9755eecd7399e6f8de4418f48a41",
      "scriptpubkey_asm": "OP_0 OP_PUSHBYTES_20 9979ae1cd72c9755eecd7399e6f8de4418f48a41",
      "scriptpubkey_type": "v0_p2wpkh",
      "scriptpubkey_address": "bc1qn9u6u8xh9jt4tmkdwwv7d7x7gsv0fzjp2l2k3q",
      "value": 8941
    }
  ],
  "size": 349,
  "weight": 1066,
  "fee": 10500,
  "status": {
    "confirmed": true,
    "block_height": 834638,
    "block_hash": "000000000000000000025f742c626208ac87e0b7d15054abb4a19ca2d735a54e",
    "block_time": 1710405325
  },
  "hex": "01000000000101046a5dff1e673edfc8239882001e8893654b88a22e65f18a78583ba312e906c50000000000fdffffff06478c1702000000001600141c6977423aa4b82a0d7f8496cdf3fc2f8b4f580c0c1302000000000017a914e53e41acfd3d5c2fac5931c2c256c6cf9c37a03d87e007020000000000160014b701f8a5b213160640064cee4a47321f819fe2f5aa06020000000000160014ea8fa9ce847288ae8cf0472cdb7ae2074cac93fe548e01000000000017a914ea4e66fe037da88a54ba93f9393c4dcb4d2b8e8c87ed220000000000001600149979ae1cd72c9755eecd7399e6f8de4418f48a4102483045022100844db147957e3fe5b08deb94a6bdb23f8889d5038cf1a6b1bdc9e80b099b4ece02204b7f46dd8deb86a04f915e713d06dc005f15cc167463eaa8127e2f69137bc82b012102084ad9ff2a070ef71f32375ff91e5f98448afc62bfb5934c3c15b4348cf11df700000000"
}