{
  "txid": "d683f4a8105bdbc816b5afb478845ebcddb8af1a3b24fdebbb1ec7b3e3fe0ddd",
  "version": 2,
  "locktime": 0,
  "vin": [
    {
      "txid": "10ec3e56bd5fe8c7aaccb85dbb6d628cd1c8494cfba44190168047ebc610eb60",
      "vout": 0,
      "prevout": {
        "scriptpubkey": "0014ccbb2b370c0815af93964d4aa531a914e5d6ade2",
        "scriptpubkey_asm": "OP_0 OP_PUSHBYTES_20 ccbb2b370c0815af93964d4aa531a914e5d6ade2",
        "scriptpubkey_type": "v0_p2wpkh",
        "scriptpubkey_address": "bc1qejajkdcvpq26lyukf4922vdfznjadt0z2gmkmy",
        "value": 22234
      },
      "scriptsig": "",
      "scriptsig_asm": "",
      "witness": [
        "3044022058a3ed1b133023e820567b15a897336d5f6d6a23fd16ea85928ce0238e0b2c3d02203fa747cf80aedaf09b4586d50803f687091ae14fa6866c99dc6b85e7fab2104901",
        "035f36dc8f42d1599dc3c1d4b5c68deb6ba2f4dee059ef05c37f9190eea3d406fc"
      ],
      "is_coinbase": false,
      "sequence": 4294967295
    },
    {
      "txid": "2d6c4816cde0e41fdb637819e0e12000a807d216f07c648cf675dbd7db17a66d",
      "vout": 0,
      "prevout": {
        "scriptpubkey": "00144c477459e20cbc5a5907b5edbf9d9e4e57603780",
        "scriptpubkey_asm": "OP_0 OP_PUSHBYTES_20 4c477459e20cbc5a5907b5edbf9d9e4e57603780",
        "scriptpubkey_type": "v0_p2wpkh",
        "scriptpubkey_address": "bc1qf3rhgk0zpj795kg8khkml8v7fetkqduq7rldzu",
        "value": 28930
      },
      "scriptsig": "",
      "scriptsig_asm": "",
      "witness": [
        "3044022003e73f164879ab63df96cac6a971bdc485b565f12dad565943e2dacf400cc6fd0220315e2463b43da0e7e19e9a6d218e1bbe90eb25c424ac13d53e18f65e9f9ccced01",
        "03dac2cd15e0307b6ba8ff6bd6f515a6a1f0e09d155e81f5a0ce30aee89acbc229"
      ],
      "is_coinbase": false,
      "sequence": 4294967295
    }
  ],
  "vout": [
    {
      "scriptpubkey": "0014ffc6be3ac5c3850143d0a91e2e427a701f96d6cf",
      "scriptpubkey_asm": "OP_0 OP_PUSHBYTES_20 ffc6be3ac5c3850143d0a91e2e427a701f96d6cf",
      "scriptpubkey_type": "v0_p2wpkh",
      "scriptpubkey_address": "bc1qllrtuwk9cwzszs7s4y0zusn6wq0ed4k0sme25w",
      "value": 15749
    },
    {
      "scriptpubkey": "00148b8bb9648338c7034b9251442b858fb002ff69f6",
      "scriptpubkey_asm": "OP_0 OP_PUSHBYTES_20 8b8bb9648338c7034b9251442b858fb002ff69f6",
      "scriptpubkey_type": "v0_p2wpkh",
      "scriptpubkey_address": "bc1q3w9mjeyr8rrsxjuj29zzhpv0kqp0760k6x4g85",
      "value": 34377
    }
  ],
  "size": 370,
  "weight": 832,
  "fee": 1038,
  "status": {
    "confirmed": true,
    "block_height": 834464,
    "block_hash": "0000000000000000000177a0869a911a2b65c9bdcd5a8bcb02b68f305bee848e",
    "block_time": 1710308296
  },
  "hex": "0200000000010260eb10c6eb4780169041a4fb4c49c8d18c626dbb5db8ccaac7e85fbd563eec100000000000ffffffff6da617dbd7db75f68c647cf016d207a80020e1e0197863db1fe4e0cd16486c2d0000000000ffffffff02853d000000000000160014ffc6be3ac5c3850143d0a91e2e427a701f96d6cf49860000000000001600148b8bb9648338c7034b9251442b858fb002ff69f602473044022058a3ed1b133023e820567b15a897336d5f6d6a23fd16ea85928ce0238e0b2c3d02203fa747cf80aedaf09b4586d50803f687091ae14fa6866c99dc6b85e7fab210490121035f36dc8f42d1599dc3c1d4b5c68deb6ba2f4dee059ef05c37f9190eea3d406fc02473044022003e73f164879ab63df96cac6a971bdc485b565f12dad565943e2dacf400cc6fd0220315e2463b43da0e7e19e9a6d218e1bbe90eb25c424ac13d53e18f65e9f9ccced012103dac2cd15e0307b6ba8ff6bd6f515a6a1f0e09d155e81f5a0ce30aee89acbc22900000000"
}