{
  "txid": "d68bd08a99e269525734001e181e9e48f4f0dfec105ad341dd22111bae6b754c",
  "version": 2,
  "locktime": 0,
  "vin": [
    {
      "txid": "fa10aff62fd78dee9ae08544fe036cfff068e68be828e1561cfc31b0188e8162",
      "vout": 1,
      "prevout": {
        "scriptpubkey": "5120af38c570f28573b700a6be1d7fb14ed3f4a2e1174959c31bd883c767d98242be",
        "scriptpubkey_asm": "OP_PUSHNUM_1 OP_PUSHBYTES_32 af38c570f28573b700a6be1d7fb14ed3f4a2e1174959c31bd883c767d98242be",
        "scriptpubkey_type": "v1_p2tr",
        "scriptpubkey_address": "bc1p4uuv2u8js4emwq9xhcwhlv2w60629cghf9vuxx7cs0rk0kvzg2lqte8pqn",
        "value": 586281
      },
      "scriptsig": "",
      "scriptsig_asm": "",
      "witness": [
        "3076f09ebfc0a7a136cb879a2bc40126f8d939730a29f4557920d46867a9e1df0a0f1e049c52df3299712be0e3062f137c8abd7ff58dd038a224e4fcef682f20"
      ],
      "is_coinbase": false,
      "sequence": 4294967295
    }
  ],
  "vout": [
    {
      "scriptpubkey": "001448dfa704897f78fdfbc2b9534055dd9b219ef5a8",
      "scriptpubkey_asm": "OP_0 OP_PUSHBYTES_20 48dfa704897f78fdfbc2b9534055dd9b219ef5a8",
      "scriptpubkey_type": "v0_p2wpkh",
      "scriptpubkey_address": "bc1qfr06wpyf0au0m77zh9f5q4wanvseaadgq9qhf9",
      "value": 12480
    },
    {
      "scriptpubkey": "5120af38c570f28573b700a6be1d7fb14ed3f4a2e1174959c31bd883c767d98242be",
      "scriptpubkey_asm": "OP_PUSHNUM_1 OP_PUSHBYTES_32 af38c570f28573b700a6be1d7fb14ed3f4a2e1174959c31bd883c767d98242be",
      "scriptpubkey_type": "v1_p2tr",
      "scriptpubkey_address": "bc1p4uuv2u8js4emwq9xhcwhlv2w60629cghf9vuxx7cs0rk0kvzg2lqte8pqn",
      "value": 571671
    }
  ],
  "size": 193,
  "weight": 568,
  "fee": 2130,
  "status": {
    "confirmed": true,
    "block_height": 834460,
    "block_hash": "00000000000000000000484a79b643b2524bbce82e5d8a442013fa5b8905ed98",
    "block_time": 1710307468
  },
  "hex": "0200000000010162818e18b031fc1c56e128e88be668f0ff6c03fe4485e09aee8dd72ff6af10fa0100000000ffffffff02c03000000000000016001448dfa704897f78fdfbc2b9534055dd9b219ef5a817b9080000000000225120af38c570f28573b700a6be1d7fb14ed3f4a2e1174959c31bd883c767d98242be01403076f09ebfc0a7a136cb879a2bc40126f8d939730a29f4557920d46867a9e1df0a0f1e049c52df3299712be0e3062f137c8abd7ff58dd038a224e4fcef682f2000000000"
}