{
  "txid": "d6a3a5a8c6fb82d1bfd28c7d4f09549552aabd0c599022985e1cf6612b80c976",
  "version": 2,
  "locktime": 0,
  "vin": [
    {
      "txid": "ca8eafa9adeb20811152e6097bd2ca1e3a1d07266ab2dac335994929bd923e54",
      "vout": 1,
      "prevout": {
        "scriptpubkey": "76a9148c9c4ab966f38ea4c9c2d6ab2ad671a8aafe1f5088ac",
        "scriptpubkey_asm": "OP_DUP OP_HASH160 OP_PUSHBYTES_20 8c9c4ab966f38ea4c9c2d6ab2ad671a8aafe1f50 OP_EQUALVERIFY OP_CHECKSIG",
        "scriptpubkey_type": "p2pkh",
        "scriptpubkey_address": "1DpUqD2Da2uRNCny8MA2barZXWoKphrpST",
        "value": 2536145
      },
      "scriptsig": "47304402200341a626c2eb4b6fa7b4951cda4a70f8a7ed5caaf154579faac03960e9500654022001821082b799e78c38834e9b46f7f56e6e53817ffb579efce2507bc37362002d012102f8cbaa4c8bbe149ee2d6f39c93163ead6d745e52b850c4fa11139ae7d5adf706",
      "scriptsig_asm": "OP_PUSHBYTES_71 304402200341a626c2eb4b6fa7b4951cda4a70f8a7ed5caaf154579faac03960e9500654022001821082b799e78c38834e9b46f7f56e6e53817ffb579efce2507bc37362002d01 OP_PUSHBYTES_33 02f8cbaa4c8bbe149ee2d6f39c93163ead6d745e52b850c4fa11139ae7d5adf706",
      "is_coinbase": false,
      "sequence": 4294967293
    }
  ],
  "vout": [
    {
      "scriptpubkey": "00144c7271198131b7ba8fadf04cdb46a77e54ee15d7",
      "scriptpubkey_asm": "OP_0 OP_PUSHBYTES_20 4c7271198131b7ba8fadf04cdb46a77e54ee15d7",
      "scriptpubkey_type": "v0_p2wpkh",
      "scriptpubkey_address": "bc1qf3e8zxvpxxmm4rad7pxdk3480e2wu9wh7tp6sn",
      "value": 55325
    },
    {
      "scriptpubkey": "76a9148c9c4ab966f38ea4c9c2d6ab2ad671a8aafe1f5088ac",
      "scriptpubkey_asm": "OP_DUP OP_HASH160 OP_PUSHBYTES_20 8c9c4ab966f38ea4c9c2d6ab2ad671a8aafe1f50 OP_EQUALVERIFY OP_CHECKSIG",
      "scriptpubkey_type": "p2pkh",
      "scriptpubkey_address": "1DpUqD2Da2uRNCny8MA2barZXWoKphrpST",
      "value": 2476045
    }
  ],
  "size": 222,
  "weight": 888,
  "fee": 4775,
  "status": {
    "confirmed": true,
    "block_height": 834638,
    "block_hash": "000000000000000000025f742c626208ac87e0b7d15054abb4a19ca2d735a54e",
    "block_time": 1710405325
  },
  "hex": "0200000001543e92bd29499935c3dab26a26071d3a1ecad27b09e652118120ebada9af8eca010000006a47304402200341a626c2eb4b6fa7b4951cda4a70f8a7ed5caaf154579faac03960e9500654022001821082b799e78c38834e9b46f7f56e6e53817ffb579efce2507bc37362002d012102f8cbaa4c8bbe149ee2d6f39c93163ead6d745e52b850c4fa11139ae7d5adf706fdffffff021dd80000000000001600144c7271198131b7ba8fadf04cdb46a77e54ee15d70dc82500000000001976a9148c9c4ab966f38ea4c9c2d6ab2ad671a8aafe1f5088ac00000000"
}