{
  "txid": "d6b2a44ffab6e73eb23a1b5af65852a0d71e0ae90eb08246cb0be5e5e504a75a",
  "version": 2,
  "locktime": 0,
  "vin": [
    {
      "txid": "eed6b5dde50a2019ea1577e9a166f456cf8e74511edf22f874fe16f4cfb96732",
      "vout": 1,
      "prevout": {
        "scriptpubkey": "a914eb9816896f9bdff52cb19eaf524673538a20795087",
        "scriptpubkey_asm": "OP_HASH160 OP_PUSHBYTES_20 eb9816896f9bdff52cb19eaf524673538a207950 OP_EQUAL",
        "scriptpubkey_type": "p2sh",
        "scriptpubkey_address": "3PAiutL6Y4XWSfW1iqSaZnE8QCh9x1Pbv4",
        "value": 520769
      },
      "scriptsig": "160014c46bd80b660d487814ba7150b3bc9187cd90185f",
      "scriptsig_asm": "OP_PUSHBYTES_22 0014c46bd80b660d487814ba7150b3bc9187cd90185f",
      "witness": [
        "3045022100dc8c932437e2feaea0e806076b56a35a1ec6ffd6a7f6b550e08bc586afa1c8d402206f3f39909ae155f5da1209c2e668f4fdc2af4af06c60a3e37406dd9c5833e41a01",
        "02bd948600fc3e7850c09c654e55b04f64e25d4ff16e95afd68fd8e6b563151b25"
      ],
      "is_coinbase": false,
      "sequence": 4294967295,
      "inner_redeemscript_asm": "OP_0 OP_PUSHBYTES_20 c46bd80b660d487814ba7150b3bc9187cd90185f"
    },
    {
      "txid": "52bb509be6f4ca3a2a9d155057064f016a1b3524127a0e7e43aef513b71b372c",
      "vout": 1,
      "prevout": {
        "scriptpubkey": "a914eb9816896f9bdff52cb19eaf524673538a20795087",
        "scriptpubkey_asm": "OP_HASH160 OP_PUSHBYTES_20 eb9816896f9bdff52cb19eaf524673538a207950 OP_EQUAL",
        "scriptpubkey_type": "p2sh",
        "scriptpubkey_address": "3PAiutL6Y4XWSfW1iqSaZnE8QCh9x1Pbv4",
        "value": 136560
      },
      "scriptsig": "160014c46bd80b660d487814ba7150b3bc9187cd90185f",
      "scriptsig_asm": "OP_PUSHBYTES_22 0014c46bd80b660d487814ba7150b3bc9187cd90185f",
      "witness": [
        "3045022100d533edc646b4e1093705e7f68d5724b0cdf398aebf8d135837e65be0cceea6f302201191a218a59806e5534b86628506df0336f03d5d25296a57616f3d53eb7a0ae301",
        "02bd948600fc3e7850c09c654e55b04f64e25d4ff16e95afd68fd8e6b563151b25"
      ],
      "is_coinbase": false,
      "sequence": 4294967295,
      "inner_redeemscript_asm": "OP_0 OP_PUSHBYTES_20 c46bd80b660d487814ba7150b3bc9187cd90185f"
    },
    {
      "txid": "4d98589c585675155e75c78af04bde2fc19a7296adf10a78857b7a8918ea57aa",
      "vout": 1,
      "prevout": {
        "scriptpubkey": "a914eb9816896f9bdff52cb19eaf524673538a20795087",
        "scriptpubkey_asm": "OP_HASH160 OP_PUSHBYTES_20 eb9816896f9bdff52cb19eaf524673538a207950 OP_EQUAL",
        "scriptpubkey_type": "p2sh",
        "scriptpubkey_address": "3PAiutL6Y4XWSfW1iqSaZnE8QCh9x1Pbv4",
        "value": 115814
      },
      "scriptsig": "160014c46bd80b660d487814ba7150b3bc9187cd90185f",
      "scriptsig_asm": "OP_PUSHBYTES_22 0014c46bd80b660d487814ba7150b3bc9187cd90185f",
      "witness": [
        "304402202e28f7f783652cfb178aa49a31a08568ddaa38949af44d8941762759706a281c022078040dd73153022e402fe83efadcfa33ac566431db3920bda993e2dc7573188801",
        "02bd948600fc3e7850c09c654e55b04f64e25d4ff16e95afd68fd8e6b563151b25"
      ],
      "is_coinbase": false,
      "sequence": 4294967295,
      "inner_redeemscript_asm": "OP_0 OP_PUSHBYTES_20 c46bd80b660d487814ba7150b3bc9187cd90185f"
    },
    {
      "txid": "0a9510a33f37db07bbf09ca05ee9b5d7585745046b35be313e68af97782e0908",
      "vout": 1,
      "prevout": {
        "scriptpubkey": "a914eb9816896f9bdff52cb19eaf524673538a20795087",
        "scriptpubkey_asm": "OP_HASH160 OP_PUSHBYTES_20 eb9816896f9bdff52cb19eaf524673538a207950 OP_EQUAL",
        "scriptpubkey_type": "p2sh",
        "scriptpubkey_address": "3PAiutL6Y4XWSfW1iqSaZnE8QCh9x1Pbv4",
        "value": 92032
      },
      "scriptsig": "160014c46bd80b660d487814ba7150b3bc9187cd90185f",
      "scriptsig_asm": "OP_PUSHBYTES_22 0014c46bd80b660d487814ba7150b3bc9187cd90185f",
      "witness": [
        "3044022029745ecd97821a1edceb885ef70382e4864c3e0b1720e3ce2be34735d913286f022060256a03ff39b7669e054a5d4c1ce7fd4d09233c6972dc5f0d96c4e0ee163f9d01",
        "02bd948600fc3e7850c09c654e55b04f64e25d4ff16e95afd68fd8e6b563151b25"
      ],
      "is_coinbase": false,
      "sequence": 4294967295,
      "inner_redeemscript_asm": "OP_0 OP_PUSHBYTES_20 c46bd80b660d487814ba7150b3bc9187cd90185f"
    },
    {
      "txid": "951ecc95ebbc41dc9a44b397527aa70bac431b6fc1a7fe5544de256a6f4d64be",
      "vout": 2,
      "prevout": {
        "scriptpubkey": "a914eb9816896f9bdff52cb19eaf524673538a20795087",
        "scriptpubkey_asm": "OP_HASH160 OP_PUSHBYTES_20 eb9816896f9bdff52cb19eaf524673538a207950 OP_EQUAL",
        "scriptpubkey_type": "p2sh",
        "scriptpubkey_address": "3PAiutL6Y4XWSfW1iqSaZnE8QCh9x1Pbv4",
        "value": 79882
      },
      "scriptsig": "160014c46bd80b660d487814ba7150b3bc9187cd90185f",
      "scriptsig_asm": "OP_PUSHBYTES_22 0014c46bd80b660d487814ba7150b3bc9187cd90185f",
      "witness": [
        "3045022100c87f2deea6baba1d51d7e0ccc6656785cd5d2d5a39ec5ddb76a2ff293e12e7a602207e9c45bd47c8aa8204b3f663ccd9fae02d0390ba305b7fcef5ad3c0f3871118f01",
        "02bd948600fc3e7850c09c654e55b04f64e25d4ff16e95afd68fd8e6b563151b25"
      ],
      "is_coinbase": false,
      "sequence": 4294967295,
      "inner_redeemscript_asm": "OP_0 OP_PUSHBYTES_20 c46bd80b660d487814ba7150b3bc9187cd90185f"
    },
    {
      "txid": "103f0e2879c110da425a6a22154c691ff3f36437bf9f59bc50c30fb2543f2940",
      "vout": 1,
      "prevout": {
        "scriptpubkey": "a914eb9816896f9bdff52cb19eaf524673538a20795087",
        "scriptpubkey_asm": "OP_HASH160 OP_PUSHBYTES_20 eb9816896f9bdff52cb19eaf524673538a207950 OP_EQUAL",
        "scriptpubkey_type": "p2sh",
        "scriptpubkey_address": "3PAiutL6Y4XWSfW1iqSaZnE8QCh9x1Pbv4",
        "value": 32884
      },
      "scriptsig": "160014c46bd80b660d487814ba7150b3bc9187cd90185f",
      "scriptsig_asm": "OP_PUSHBYTES_22 0014c46bd80b660d487814ba7150b3bc9187cd90185f",
      "witness": [
        "30440220676e2f806983c4e1c7fe0e45239744ada15c857abe1ded51e442d8e3f7549e80022020042b7e3cf95515ea8532c13a32c14b2866acf05f89d2d62150def2a8f4f74901",
        "02bd948600fc3e7850c09c654e55b04f64e25d4ff16e95afd68fd8e6b563151b25"
      ],
      "is_coinbase": false,
      "sequence": 4294967295,
      "inner_redeemscript_asm": "OP_0 OP_PUSHBYTES_20 c46bd80b660d487814ba7150b3bc9187cd90185f"
    }
  ],
  "vout": [
    {
      "scriptpubkey": "512061c6667ecd54670f78e44ab12088e0716d6272d06db0b81aab8e689fac2f73c3",
      "scriptpubkey_asm": "OP_PUSHNUM_1 OP_PUSHBYTES_32 61c6667ecd54670f78e44ab12088e0716d6272d06db0b81aab8e689fac2f73c3",
      "scriptpubkey_type": "v1_p2tr",
      "scriptpubkey_address": "bc1pv8rxvlkd23ns778yf2cjpz8qw9kkyuksdkctsx4t3e5fltp0w0psu5aqcn",
      "value": 7644
    },
    {
      "scriptpubkey": "0014519a5d5a6e1142b93ee3aa7fcfa516dc031e42be",
      "scriptpubkey_asm": "OP_0 OP_PUSHBYTES_20 519a5d5a6e1142b93ee3aa7fcfa516dc031e42be",
      "scriptpubkey_type": "v0_p2wpkh",
      "scriptpubkey_address": "bc1q2xd96knwz9ptj0hr4flulfgkmsp3us47l5hj5u",
      "value": 940576
    },
    {
      "scriptpubkey": "a914eb9816896f9bdff52cb19eaf524673538a20795087",
      "scriptpubkey_asm": "OP_HASH160 OP_PUSHBYTES_20 eb9816896f9bdff52cb19eaf524673538a207950 OP_EQUAL",
      "scriptpubkey_type": "p2sh",
      "scriptpubkey_address": "3PAiutL6Y4XWSfW1iqSaZnE8QCh9x1Pbv4",
      "value": 20346
    }
  ],
  "size": 1147,
  "weight": 2647,
  "fee": 9375,
  "status": {
    "confirmed": true,
    "block_height": 834460,
    "block_hash": "00000000000000000000484a79b643b2524bbce82e5d8a442013fa5b8905ed98",
    "block_time": 1710307468
  },
  "hex": "020000000001063267b9cff416fe74f822df1e51748ecf56f466a1e97715ea19200ae5ddb5d6ee0100000017160014c46bd80b660d487814ba7150b3bc9187cd90185fffffffff2c371bb713f5ae437e0e7a1224351b6a014f065750159d2a3acaf4e69b50bb520100000017160014c46bd80b660d487814ba7150b3bc9187cd90185fffffffffaa57ea18897a7b85780af1ad96729ac12fde4bf08ac7755e157556589c58984d0100000017160014c46bd80b660d487814ba7150b3bc9187cd90185fffffffff08092e7897af683e31be356b04455758d7b5e95ea09cf0bb07db373fa310950a0100000017160014c46bd80b660d487814ba7150b3bc9187cd90185fffffffffbe644d6f6a25de4455fea7c16f1b43ac0ba77a5297b3449adc41bceb95cc1e950200000017160014c46bd80b660d487814ba7150b3bc9187cd90185fffffffff40293f54b20fc350bc599fbf3764f3f31f694c15226a5a42da10c179280e3f100100000017160014c46bd80b660d487814ba7150b3bc9187cd90185fffffffff03dc1d00000000000022512061c6667ecd54670f78e44ab12088e0716d6272d06db0b81aab8e689fac2f73c3205a0e0000000000160014519a5d5a6e1142b93ee3aa7fcfa516dc031e42be7a4f00000000000017a914eb9816896f9bdff52cb19eaf524673538a2079508702483045022100dc8c932437e2feaea0e806076b56a35a1ec6ffd6a7f6b550e08bc586afa1c8d402206f3f39909ae155f5da1209c2e668f4fdc2af4af06c60a3e37406dd9c5833e41a012102bd948600fc3e7850c09c654e55b04f64e25d4ff16e95afd68fd8e6b563151b2502483045022100d533edc646b4e1093705e7f68d5724b0cdf398aebf8d135837e65be0cceea6f302201191a218a59806e5534b86628506df0336f03d5d25296a57616f3d53eb7a0ae3012102bd948600fc3e7850c09c654e55b04f64e25d4ff16e95afd68fd8e6b563151b250247304402202e28f7f783652cfb178aa49a31a08568ddaa38949af44d8941762759706a281c022078040dd73153022e402fe83efadcfa33ac566431db3920bda993e2dc75731888012102bd948600fc3e7850c09c654e55b04f64e25d4ff16e95afd68fd8e6b563151b2502473044022029745ecd97821a1edceb885ef70382e4864c3e0b1720e3ce2be34735d913286f022060256a03ff39b7669e054a5d4c1ce7fd4d09233c6972dc5f0d96c4e0ee163f9d012102bd948600fc3e7850c09c654e55b04f64e25d4ff16e95afd68fd8e6b563151b2502483045022100c87f2deea6baba1d51d7e0ccc6656785cd5d2d5a39ec5ddb76a2ff293e12e7a602207e9c45bd47c8aa8204b3f663ccd9fae02d0390ba305b7fcef5ad3c0f3871118f012102bd948600fc3e7850c09c654e55b04f64e25d4ff16e95afd68fd8e6b563151b25024730440220676e2f806983c4e1c7fe0e45239744ada15c857abe1ded51e442d8e3f7549e80022020042b7e3cf95515ea8532c13a32c14b2866acf05f89d2d62150def2a8f4f749012102bd948600fc3e7850c09c654e55b04f64e25d4ff16e95afd68fd8e6b563151b2500000000"
}