{
  "txid": "d6bceafcdbce5963e84b4daeb34f96f130ac08af40ae3a3f4da8ea451998a4f6",
  "version": 2,
  "locktime": 0,
  "vin": [
    {
      "txid": "61920639be0322a2b7ac4edb7f51538d1afcf44e7cd2496c26ba380c0e4b0b86",
      "vout": 11,
      "prevout": {
        "scriptpubkey": "0014b89b3ba85c8bb8cba69e7debc98572ccb0dfe61e",
        "scriptpubkey_asm": "OP_0 OP_PUSHBYTES_20 b89b3ba85c8bb8cba69e7debc98572ccb0dfe61e",
        "scriptpubkey_type": "v0_p2wpkh",
        "scriptpubkey_address": "bc1qhzdnh2zu3wuvhf570h4unptjejcdles7eqjjh0",
        "value": 259000
      },
      "scriptsig": "",
      "scriptsig_asm": "",
      "witness": [
        "3045022100f508f655f7a18673416528775a8e3b52bf7cf33593656d4b37545835dbe24489022075aa861731ab2dfd287495ec0806c5a4684ef1226f4eea012340cddafde9186001",
        "0374a9ca7f97aecd39b5097c4136515a13505f9bc1226852ac353e6c3feb5c7573"
      ],
      "is_coinbase": false,
      "sequence": 4294967293
    }
  ],
  "vout": [
    {
      "scriptpubkey": "76a9140815be637d4bc7998b02b804d316214c98a0d76988ac",
      "scriptpubkey_asm": "OP_DUP OP_HASH160 OP_PUSHBYTES_20 0815be637d4bc7998b02b804d316214c98a0d769 OP_EQUALVERIFY OP_CHECKSIG",
      "scriptpubkey_type": "p2pkh",
      "scriptpubkey_address": "1jkTKCbrSw3P9rzmxcJeGttrPFexvkHfw",
      "value": 257780
    }
  ],
  "size": 195,
  "weight": 450,
  "fee": 1220,
  "status": {
    "confirmed": true,
    "block_height": 834464,
    "block_hash": "0000000000000000000177a0869a911a2b65c9bdcd5a8bcb02b68f305bee848e",
    "block_time": 1710308296
  },
  "hex": "02000000000101860b4b0e0c38ba266c49d27c4ef4fc1a8d53517fdb4eacb7a22203be390692610b00000000fdffffff01f4ee0300000000001976a9140815be637d4bc7998b02b804d316214c98a0d76988ac02483045022100f508f655f7a18673416528775a8e3b52bf7cf33593656d4b37545835dbe24489022075aa861731ab2dfd287495ec0806c5a4684ef1226f4eea012340cddafde9186001210374a9ca7f97aecd39b5097c4136515a13505f9bc1226852ac353e6c3feb5c757300000000"
}