{
  "txid": "d6d4c2b7c224e34ced602e01574ee611003cad4ca3895584d720c9f999e6d487",
  "version": 2,
  "locktime": 0,
  "vin": [
    {
      "txid": "f330b74ed8dc7885d0947817821d350291e42e36c31691db02091b11b167ad12",
      "vout": 1,
      "prevout": {
        "scriptpubkey": "51206d684e8c994a9fc00a8d62628c6ba538906f08cd77f83338f3db7c4cfee5dd35",
        "scriptpubkey_asm": "OP_PUSHNUM_1 OP_PUSHBYTES_32 6d684e8c994a9fc00a8d62628c6ba538906f08cd77f83338f3db7c4cfee5dd35",
        "scriptpubkey_type": "v1_p2tr",
        "scriptpubkey_address": "bc1pd45yaryef20uqz5dvf3gc6a98zgx7zxdwlurxw8nmd7yelh9m56sslufrl",
        "value": 148873
      },
      "scriptsig": "",
      "scriptsig_asm": "",
      "witness": [
        "81eddc5ba61d48c603292e25db57f7ba28c416318425611da798daebd196ec6c0e522afb5d7a01d44a875148507c560fe9bc51e07b713af7bcb08b55b3beffad"
      ],
      "is_coinbase": false,
      "sequence": 4294967295
    }
  ],
  "vout": [
    {
      "scriptpubkey": "5120a7581e287e1aded5da2174832b844967fc2e975bb158a4d09238c68f1dcef55f",
      "scriptpubkey_asm": "OP_PUSHNUM_1 OP_PUSHBYTES_32 a7581e287e1aded5da2174832b844967fc2e975bb158a4d09238c68f1dcef55f",
      "scriptpubkey_type": "v1_p2tr",
      "scriptpubkey_address": "bc1p5avpu2r7rt0dtk3pwjpjhpzfvl7za96mk9v2f5yj8rrg78ww740s6437ly",
      "value": 76202
    },
    {
      "scriptpubkey": "51206d684e8c994a9fc00a8d62628c6ba538906f08cd77f83338f3db7c4cfee5dd35",
      "scriptpubkey_asm": "OP_PUSHNUM_1 OP_PUSHBYTES_32 6d684e8c994a9fc00a8d62628c6ba538906f08cd77f83338f3db7c4cfee5dd35",
      "scriptpubkey_type": "v1_p2tr",
      "scriptpubkey_address": "bc1pd45yaryef20uqz5dvf3gc6a98zgx7zxdwlurxw8nmd7yelh9m56sslufrl",
      "value": 70669
    }
  ],
  "size": 205,
  "weight": 616,
  "fee": 2002,
  "status": {
    "confirmed": true,
    "block_height": 834464,
    "block_hash": "0000000000000000000177a0869a911a2b65c9bdcd5a8bcb02b68f305bee848e",
    "block_time": 1710308296
  },
  "hex": "0200000000010112ad67b1111b0902db9116c3362ee49102351d82177894d08578dcd84eb730f30100000000ffffffff02aa29010000000000225120a7581e287e1aded5da2174832b844967fc2e975bb158a4d09238c68f1dcef55f0d140100000000002251206d684e8c994a9fc00a8d62628c6ba538906f08cd77f83338f3db7c4cfee5dd35014081eddc5ba61d48c603292e25db57f7ba28c416318425611da798daebd196ec6c0e522afb5d7a01d44a875148507c560fe9bc51e07b713af7bcb08b55b3beffad00000000"
}