{
  "txid": "d6f578d9ebb87678f5414532e1d7aee5b5d790bcbb64453cd367fa21bd55d27b",
  "version": 1,
  "locktime": 0,
  "vin": [
    {
      "txid": "35f81ab26a1b759074b2bdabbee9bd13d0db35007e9b83654a39179a5b543add",
      "vout": 19,
      "prevout": {
        "scriptpubkey": "00145c26ac4cc517a3cb2610ec93c231e71b93135edd",
        "scriptpubkey_asm": "OP_0 OP_PUSHBYTES_20 5c26ac4cc517a3cb2610ec93c231e71b93135edd",
        "scriptpubkey_type": "v0_p2wpkh",
        "scriptpubkey_address": "bc1qtsn2cnx9z73ukfssajfuyv08rwf3xhka3mn7ns",
        "value": 97859
      },
      "scriptsig": "",
      "scriptsig_asm": "",
      "witness": [
        "30450221008872ee540fe24a6b3cb34f3d76e80d7e9b92ca2c8796bdc3ff06eef4844daeb602204ce973004ef37f6078ad8a93f28557e62ac4ba19babd2bc1ce3be358f807c34601",
        "02206201da93f7ca6852e0b4893315fc5e4f9627bf35a05ef3dc01ac3ac14b3026"
      ],
      "is_coinbase": false,
      "sequence": 4294967293
    },
    {
      "txid": "318aaea676811b71c8768261ccfcaf981db4f03eeeccb7e5080b1d868ac541e4",
      "vout": 58,
      "prevout": {
        "scriptpubkey": "0014a17e7cc83b1222d1e6dc8a482ee0e2181b4b863f",
        "scriptpubkey_asm": "OP_0 OP_PUSHBYTES_20 a17e7cc83b1222d1e6dc8a482ee0e2181b4b863f",
        "scriptpubkey_type": "v0_p2wpkh",
        "scriptpubkey_address": "bc1q59l8ejpmzg3dreku3fyzac8zrqd5hp3lv797jg",
        "value": 97758
      },
      "scriptsig": "",
      "scriptsig_asm": "",
      "witness": [
        "30450221009c80631d8588cd00f1f5fc2dee38d6286669a91091226121f965391c2a3222f902202a77415e416f3d2a28911fda2d6578eeca2bbf3b5593a38309b3110cc70a810301",
        "03588422a0be1ad2e53a7902e5dca3e15216bac228272b9b7e1b21f70464e0f759"
      ],
      "is_coinbase": false,
      "sequence": 4294967293
    },
    {
      "txid": "5f2922a379a149d0557f344afa989d9c00e2567883e2f0ca75823e44f887c394",
      "vout": 93,
      "prevout": {
        "scriptpubkey": "0014d7beea671ffffe5b950facf0b45278bb956adb61",
        "scriptpubkey_asm": "OP_0 OP_PUSHBYTES_20 d7beea671ffffe5b950facf0b45278bb956adb61",
        "scriptpubkey_type": "v0_p2wpkh",
        "scriptpubkey_address": "bc1q67lw5ecllll9h9g04nctg5nchw2k4kmp5ydkdj",
        "value": 97735
      },
      "scriptsig": "",
      "scriptsig_asm": "",
      "witness": [
        "3045022100bfa93bf5968bcd520338dbb90c432d163f03e9cec39666c0a2bdc0e7694000e20220553b8e63904430e3534a648dc454371180bc41497d2f9b3915d2d4b6c9f14c1e01",
        "03e5394e25a755506a2c15630131b7af60578195d893b845665bcd3ffab2514502"
      ],
      "is_coinbase": false,
      "sequence": 4294967293
    },
    {
      "txid": "5b77da6347550d1761e8b84ff890b07dedcd8934830c6c55dbf8519ff5fe0f90",
      "vout": 28,
      "prevout": {
        "scriptpubkey": "0014e34469c8b9049e4414d7fa5af6839d26e0b701e3",
        "scriptpubkey_asm": "OP_0 OP_PUSHBYTES_20 e34469c8b9049e4414d7fa5af6839d26e0b701e3",
        "scriptpubkey_type": "v0_p2wpkh",
        "scriptpubkey_address": "bc1qudzxnj9eqj0yg9xhlfd0dquaymstwq0rq5mvvk",
        "value": 97735
      },
      "scriptsig": "",
      "scriptsig_asm": "",
      "witness": [
        "3045022100bc34b804bf85582f3e0712ca830b832cac6620845f397b4b33003a696a9c1a3802205149c8e33721c5e231a8db6bc5174bba3f9f5ccdfa2a22b65dcf5973481b37ce01",
        "029f46fb8f2e0f2a463d815692e171a4f165d0d7f6f9daf06e88479327af8e2570"
      ],
      "is_coinbase": false,
      "sequence": 4294967293
    },
    {
      "txid": "bec4675ff55ffef6c0b6c212fd43db470f948fe2d19714cd6fd54d3660dc4d40",
      "vout": 56,
      "prevout": {
        "scriptpubkey": "0014c59e056031fb685ec841a7ba06811671d1ade665",
        "scriptpubkey_asm": "OP_0 OP_PUSHBYTES_20 c59e056031fb685ec841a7ba06811671d1ade665",
        "scriptpubkey_type": "v0_p2wpkh",
        "scriptpubkey_address": "bc1qck0q2cp3ld59ajzp57aqdqgkw8g6men9dx8s9c",
        "value": 97607
      },
      "scriptsig": "",
      "scriptsig_asm": "",
      "witness": [
        "3045022100a1fa126256f9fe161fdfc512e6c265012f4be65b87938364005884567cad4b56022015979a81763e3f94b16395efb8830b0f992ef1032d2f0c3700440c3bcaf4136501",
        "037e86545bfaf3b4f1ceb3a66f439c4dc34a5555d209dc5bf5a91d0a367d139188"
      ],
      "is_coinbase": false,
      "sequence": 4294967293
    }
  ],
  "vout": [
    {
      "scriptpubkey": "0014138fc4c4f4f2abf34ed6119d3fd2edf916da27a6",
      "scriptpubkey_asm": "OP_0 OP_PUSHBYTES_20 138fc4c4f4f2abf34ed6119d3fd2edf916da27a6",
      "scriptpubkey_type": "v0_p2wpkh",
      "scriptpubkey_address": "bc1qzw8uf385724lxnkkzxwnl5hdlytd5fax5rfg2s",
      "value": 477174
    }
  ],
  "size": 788,
  "weight": 1526,
  "fee": 11520,
  "status": {
    "confirmed": true,
    "block_height": 834638,
    "block_hash": "000000000000000000025f742c626208ac87e0b7d15054abb4a19ca2d735a54e",
    "block_time": 1710405325
  },
  "hex": "01000000000105dd3a545b9a17394a65839b7e0035dbd013bde9beabbdb27490751b6ab21af8351300000000fdffffffe441c58a861d0b08e5b7ccee3ef0b41d98affccc618276c8711b8176a6ae8a313a00000000fdffffff94c387f8443e8275caf0e2837856e2009c9d98fa4a347f55d049a179a322295f5d00000000fdffffff900ffef59f51f8db556c0c833489cded7db090f84fb8e861170d554763da775b1c00000000fdffffff404ddc60364dd56fcd1497d1e28f940f47db43fd12c2b6c0f6fe5ff55f67c4be3800000000fdffffff01f647070000000000160014138fc4c4f4f2abf34ed6119d3fd2edf916da27a6024830450221008872ee540fe24a6b3cb34f3d76e80d7e9b92ca2c8796bdc3ff06eef4844daeb602204ce973004ef37f6078ad8a93f28557e62ac4ba19babd2bc1ce3be358f807c346012102206201da93f7ca6852e0b4893315fc5e4f9627bf35a05ef3dc01ac3ac14b3026024830450221009c80631d8588cd00f1f5fc2dee38d6286669a91091226121f965391c2a3222f902202a77415e416f3d2a28911fda2d6578eeca2bbf3b5593a38309b3110cc70a8103012103588422a0be1ad2e53a7902e5dca3e15216bac228272b9b7e1b21f70464e0f75902483045022100bfa93bf5968bcd520338dbb90c432d163f03e9cec39666c0a2bdc0e7694000e20220553b8e63904430e3534a648dc454371180bc41497d2f9b3915d2d4b6c9f14c1e012103e5394e25a755506a2c15630131b7af60578195d893b845665bcd3ffab251450202483045022100bc34b804bf85582f3e0712ca830b832cac6620845f397b4b33003a696a9c1a3802205149c8e33721c5e231a8db6bc5174bba3f9f5ccdfa2a22b65dcf5973481b37ce0121029f46fb8f2e0f2a463d815692e171a4f165d0d7f6f9daf06e88479327af8e257002483045022100a1fa126256f9fe161fdfc512e6c265012f4be65b87938364005884567cad4b56022015979a81763e3f94b16395efb8830b0f992ef1032d2f0c3700440c3bcaf413650121037e86545bfaf3b4f1ceb3a66f439c4dc34a5555d209dc5bf5a91d0a367d13918800000000"
}