{
  "txid": "d6f6f3c416af59cfb6fc6f3bc789cde377667984e0605264f92df509fa2bc575",
  "version": 1,
  "locktime": 0,
  "vin": [
    {
      "txid": "f4f619594bc270ccba4ded3587994fc915835fd3942cdd652c4deb5c28bbc4a2",
      "vout": 1,
      "prevout": {
        "scriptpubkey": "76a91442e611b22c1263fc10156b8c92d56bb00cdd385388ac",
        "scriptpubkey_asm": "OP_DUP OP_HASH160 OP_PUSHBYTES_20 42e611b22c1263fc10156b8c92d56bb00cdd3853 OP_EQUALVERIFY OP_CHECKSIG",
        "scriptpubkey_type": "p2pkh",
        "scriptpubkey_address": "176jD9LvSUvUcmgVQ7kZTPNutbL4NxysP1",
        "value": 13729637
      },
      "scriptsig": "4730440220647909bc7a45cb5ff3cf938b4a610670b241e24c7b83ca7eed82a0cdef7db86b02204001b5a6083d2a61a0cb44b3a46d2aea8a634a958468002f6be501739c32ba6b01210333c607a57ef3d089158ae91ec84f4af3988fba0ea4ec10e836d5920654f9d6ed",
      "scriptsig_asm": "OP_PUSHBYTES_71 30440220647909bc7a45cb5ff3cf938b4a610670b241e24c7b83ca7eed82a0cdef7db86b02204001b5a6083d2a61a0cb44b3a46d2aea8a634a958468002f6be501739c32ba6b01 OP_PUSHBYTES_33 0333c607a57ef3d089158ae91ec84f4af3988fba0ea4ec10e836d5920654f9d6ed",
      "is_coinbase": false,
      "sequence": 4294967295
    }
  ],
  "vout": [
    {
      "scriptpubkey": "a9145ca75a5b8f6345948c5b5b7eeb8b4c4194c9e53887",
      "scriptpubkey_asm": "OP_HASH160 OP_PUSHBYTES_20 5ca75a5b8f6345948c5b5b7eeb8b4c4194c9e538 OP_EQUAL",
      "scriptpubkey_type": "p2sh",
      "scriptpubkey_address": "3A8va5a9YZ5Xc89xfkqPqS4nGpQfiYMfcS",
      "value": 1039658
    },
    {
      "scriptpubkey": "76a914942532afd2f9cd9ef3f714d59963e10b22e6fb5c88ac",
      "scriptpubkey_asm": "OP_DUP OP_HASH160 OP_PUSHBYTES_20 942532afd2f9cd9ef3f714d59963e10b22e6fb5c OP_EQUALVERIFY OP_CHECKSIG",
      "scriptpubkey_type": "p2pkh",
      "scriptpubkey_address": "1EWKZxGf9bUR6MsuhsF4MBTfBA3PEePuS4",
      "value": 12681691
    }
  ],
  "size": 223,
  "weight": 892,
  "fee": 8288,
  "status": {
    "confirmed": true,
    "block_height": 834460,
    "block_hash": "00000000000000000000484a79b643b2524bbce82e5d8a442013fa5b8905ed98",
    "block_time": 1710307468
  },
  "hex": "0100000001a2c4bb285ceb4d2c65dd2c94d35f8315c94f998735ed4dbacc70c24b5919f6f4010000006a4730440220647909bc7a45cb5ff3cf938b4a610670b241e24c7b83ca7eed82a0cdef7db86b02204001b5a6083d2a61a0cb44b3a46d2aea8a634a958468002f6be501739c32ba6b01210333c607a57ef3d089158ae91ec84f4af3988fba0ea4ec10e836d5920654f9d6edffffffff022add0f000000000017a9145ca75a5b8f6345948c5b5b7eeb8b4c4194c9e53887db81c100000000001976a914942532afd2f9cd9ef3f714d59963e10b22e6fb5c88ac00000000"
}