{
  "txid": "d702de002954b3ceed1ff3fd628118d74a42cf0bc887413866ac2403b642aaf4",
  "version": 2,
  "locktime": 834582,
  "vin": [
    {
      "txid": "6af928494c130d8602d7d09055f7e149fa929fa8427e6f2aef25dee2f60c797b",
      "vout": 0,
      "prevout": {
        "scriptpubkey": "001463016c4e9cd874a7e3cb66c3eedcaa76c542421d",
        "scriptpubkey_asm": "OP_0 OP_PUSHBYTES_20 63016c4e9cd874a7e3cb66c3eedcaa76c542421d",
        "scriptpubkey_type": "v0_p2wpkh",
        "scriptpubkey_address": "bc1qvvqkcn5ump620c7tvmp7ah92wmz5yssay5mnty",
        "value": 51340
      },
      "scriptsig": "",
      "scriptsig_asm": "",
      "witness": [
        "304402207939f584f6768514c4625893978c95a1d4b4dafd241fe37244ca09e714fdb9660220726cfb4d358008aaaf9e555f2efcf698e9e73a6d51f514130273d57ac8b46b3f01",
        "02555d74c3c2944495dc7c93580271e625c53c833a958b4a5d7c2315829e0d9033"
      ],
      "is_coinbase": false,
      "sequence": 4294967293
    },
    {
      "txid": "df44fdb0ba36cb0f5a08846cdde088b2521e08fa40a39ed31c4b4d3305ef91f7",
      "vout": 1,
      "prevout": {
        "scriptpubkey": "5120a53b1d589d9a63f32b6e87250739188d0b1e6a724eb3d67fcac2c119b47d55bf",
        "scriptpubkey_asm": "OP_PUSHNUM_1 OP_PUSHBYTES_32 a53b1d589d9a63f32b6e87250739188d0b1e6a724eb3d67fcac2c119b47d55bf",
        "scriptpubkey_type": "v1_p2tr",
        "scriptpubkey_address": "bc1p55a36kyanf3lx2mwsujswwgc3593u6njf6eavl72ctq3ndra2kls74xd94",
        "value": 11843095
      },
      "scriptsig": "",
      "scriptsig_asm": "",
      "witness": [
        "562c866137284bbc17388f5b56262256d8fb7a51989ed668a7ebc1c49294ef89fec1f38f89f70a0a589ffe823b93a7e3db815d9882cded8df280944c64d41ea8"
      ],
      "is_coinbase": false,
      "sequence": 4294967293
    }
  ],
  "vout": [
    {
      "scriptpubkey": "0020d0451ba542dfa8248b1a4fa663bfff541ebad43d7599d787f2bc9fcb02a1ca07",
      "scriptpubkey_asm": "OP_0 OP_PUSHBYTES_32 d0451ba542dfa8248b1a4fa663bfff541ebad43d7599d787f2bc9fcb02a1ca07",
      "scriptpubkey_type": "v0_p2wsh",
      "scriptpubkey_address": "bc1q6pz3hf2zm75zfzc6f7nx80ll2s0t44pawkva0pljhj0ukq4pegrshmqdpf",
      "value": 58000
    },
    {
      "scriptpubkey": "5120042d49e127730b5ebb170514856253d7829ee6935275469912e24064be38b84c",
      "scriptpubkey_asm": "OP_PUSHNUM_1 OP_PUSHBYTES_32 042d49e127730b5ebb170514856253d7829ee6935275469912e24064be38b84c",
      "scriptpubkey_type": "v1_p2tr",
      "scriptpubkey_address": "bc1pqsk5ncf8wv94awchq52g2cjn67pfae5n2f65dxgjufqxf03chpxq00tpyn",
      "value": 11832723
    }
  ],
  "size": 353,
  "weight": 887,
  "fee": 3712,
  "status": {
    "confirmed": true,
    "block_height": 834638,
    "block_hash": "000000000000000000025f742c626208ac87e0b7d15054abb4a19ca2d735a54e",
    "block_time": 1710405325
  },
  "hex": "020000000001027b790cf6e2de25ef2a6f7e42a89f92fa49e1f75590d0d702860d134c4928f96a0000000000fdfffffff791ef05334d4b1cd39ea340fa081e52b288e0dd6c84085a0fcb36bab0fd44df0100000000fdffffff0290e2000000000000220020d0451ba542dfa8248b1a4fa663bfff541ebad43d7599d787f2bc9fcb02a1ca07938db40000000000225120042d49e127730b5ebb170514856253d7829ee6935275469912e24064be38b84c0247304402207939f584f6768514c4625893978c95a1d4b4dafd241fe37244ca09e714fdb9660220726cfb4d358008aaaf9e555f2efcf698e9e73a6d51f514130273d57ac8b46b3f012102555d74c3c2944495dc7c93580271e625c53c833a958b4a5d7c2315829e0d90330140562c866137284bbc17388f5b56262256d8fb7a51989ed668a7ebc1c49294ef89fec1f38f89f70a0a589ffe823b93a7e3db815d9882cded8df280944c64d41ea816bc0c00"
}