{
  "txid": "d70ab4ba77730304d5d4ba1a890536f689dd31f1c92c16f5f210e4c3a1fdb036",
  "version": 1,
  "locktime": 0,
  "vin": [
    {
      "txid": "53396203f8254a99eca38933b2ef4732e7befcaf4b5cfc27410ac290a9d447c9",
      "vout": 1,
      "prevout": {
        "scriptpubkey": "00145c66948b94c5d1b6eec2e8f6b8213ad8aed07237",
        "scriptpubkey_asm": "OP_0 OP_PUSHBYTES_20 5c66948b94c5d1b6eec2e8f6b8213ad8aed07237",
        "scriptpubkey_type": "v0_p2wpkh",
        "scriptpubkey_address": "bc1qt3nffzu5chgmdmkzarmtsgf6mzhdqu3h0smqpk",
        "value": 253309479
      },
      "scriptsig": "",
      "scriptsig_asm": "",
      "witness": [
        "30440220607c0902c54c712933b0ddcfbc12335f7fbfbd4d66a8bfcf4a867bed9811952a02201f2844ca4c686a6194909ebee1f3d1eea536440cd6993ce8e8fc7276d8f4c5d801",
        "02c32763f72e62b3e41e0ef78ca4d216bb623a09e3535b115263a5e7446e17069d"
      ],
      "is_coinbase": false,
      "sequence": 4294967295
    }
  ],
  "vout": [
    {
      "scriptpubkey": "76a91421279a2a9ea249954ecc7b9f257a94b47ff6840688ac",
      "scriptpubkey_asm": "OP_DUP OP_HASH160 OP_PUSHBYTES_20 21279a2a9ea249954ecc7b9f257a94b47ff68406 OP_EQUALVERIFY OP_CHECKSIG",
      "scriptpubkey_type": "p2pkh",
      "scriptpubkey_address": "142JjwYUM2q4y17EyByojYTiVSWRqqvzmQ",
      "value": 100000000
    },
    {
      "scriptpubkey": "00142ce131c618cffd15d32ba770c62e86a2d80bbe0b",
      "scriptpubkey_asm": "OP_0 OP_PUSHBYTES_20 2ce131c618cffd15d32ba770c62e86a2d80bbe0b",
      "scriptpubkey_type": "v0_p2wpkh",
      "scriptpubkey_address": "bc1q9nsnr3scel73t5et5acvvt5x5tvqh0std7tj8c",
      "value": 153307337
    }
  ],
  "size": 225,
  "weight": 573,
  "fee": 2142,
  "status": {
    "confirmed": true,
    "block_height": 834638,
    "block_hash": "000000000000000000025f742c626208ac87e0b7d15054abb4a19ca2d735a54e",
    "block_time": 1710405325
  },
  "hex": "01000000000101c947d4a990c20a4127fc5c4baffcbee73247efb23389a3ec994a25f8036239530100000000ffffffff0200e1f505000000001976a91421279a2a9ea249954ecc7b9f257a94b47ff6840688acc9482309000000001600142ce131c618cffd15d32ba770c62e86a2d80bbe0b024730440220607c0902c54c712933b0ddcfbc12335f7fbfbd4d66a8bfcf4a867bed9811952a02201f2844ca4c686a6194909ebee1f3d1eea536440cd6993ce8e8fc7276d8f4c5d8012102c32763f72e62b3e41e0ef78ca4d216bb623a09e3535b115263a5e7446e17069d00000000"
}