{
  "txid": "d7109a6d7dc31c66645aab1f196f7f443c551ecf84e5d779bf7960013d2e001e",
  "version": 2,
  "locktime": 0,
  "vin": [
    {
      "txid": "f50bf71a5a94cdb2ab563e7fa2ffbd5366e5e0fb5c6a2b1a7402c04bcba3e016",
      "vout": 1,
      "prevout": {
        "scriptpubkey": "00149eb80c744bfad953501b17d6b07f59d381085321",
        "scriptpubkey_asm": "OP_0 OP_PUSHBYTES_20 9eb80c744bfad953501b17d6b07f59d381085321",
        "scriptpubkey_type": "v0_p2wpkh",
        "scriptpubkey_address": "bc1qn6uqcaztltv4x5qmzlttql6e6wqss5ephwmxxh",
        "value": 2245464
      },
      "scriptsig": "",
      "scriptsig_asm": "",
      "witness": [
        "3045022100fde8f1f6cf53a581885452b0cec78d01ce3b86cf82d863412bcbff752fcf4b6b022028a701a37c058a8a63da5b97dd561d8af65c552d3f8399a42e861c2ff606257901",
        "02170f4a47c6bbe86c70a3cd97b6d946ebb7fc59a485d75d04e0990531ff5f9657"
      ],
      "is_coinbase": false,
      "sequence": 4294967295
    }
  ],
  "vout": [
    {
      "scriptpubkey": "a9144dd3351257aca7e3be26c545744ee7db4738341c87",
      "scriptpubkey_asm": "OP_HASH160 OP_PUSHBYTES_20 4dd3351257aca7e3be26c545744ee7db4738341c OP_EQUAL",
      "scriptpubkey_type": "p2sh",
      "scriptpubkey_address": "38nWyFoF9nug4APoN5P4MBjqxxxfSnw4H1",
      "value": 136304
    },
    {
      "scriptpubkey": "0014e337e1f7b35c4e3970b959f1b011a6390f492343",
      "scriptpubkey_asm": "OP_0 OP_PUSHBYTES_20 e337e1f7b35c4e3970b959f1b011a6390f492343",
      "scriptpubkey_type": "v0_p2wpkh",
      "scriptpubkey_address": "bc1quvm7raant38rju9et8cmqydx8y85jg6rvnwaag",
      "value": 2107048
    }
  ],
  "size": 224,
  "weight": 566,
  "fee": 2112,
  "status": {
    "confirmed": true,
    "block_height": 834638,
    "block_hash": "000000000000000000025f742c626208ac87e0b7d15054abb4a19ca2d735a54e",
    "block_time": 1710405325
  },
  "hex": "0200000000010116e0a3cb4bc002741a2b6a5cfbe0e56653bdffa27f3e56abb2cd945a1af70bf50100000000ffffffff02701402000000000017a9144dd3351257aca7e3be26c545744ee7db4738341c87a826200000000000160014e337e1f7b35c4e3970b959f1b011a6390f49234302483045022100fde8f1f6cf53a581885452b0cec78d01ce3b86cf82d863412bcbff752fcf4b6b022028a701a37c058a8a63da5b97dd561d8af65c552d3f8399a42e861c2ff6062579012102170f4a47c6bbe86c70a3cd97b6d946ebb7fc59a485d75d04e0990531ff5f965700000000"
}