{
  "txid": "d71dcababd559b25fc06e4f9d96cf8ceee1a4da69827bf867b7a30b10963e7a9",
  "version": 2,
  "locktime": 0,
  "vin": [
    {
      "txid": "c4bb5fadf5c5348cad59c9a326c60ac938741bd613a0e3587d15a11ff110c366",
      "vout": 90,
      "prevout": {
        "scriptpubkey": "512006e10184ceff11fdb27518ea09b2193f50585dff754ae25bacef98a2cc9b920f",
        "scriptpubkey_asm": "OP_PUSHNUM_1 OP_PUSHBYTES_32 06e10184ceff11fdb27518ea09b2193f50585dff754ae25bacef98a2cc9b920f",
        "scriptpubkey_type": "v1_p2tr",
        "scriptpubkey_address": "bc1pqmssrpxwluglmvn4rr4qnvse8ag9sh0lw49wykava7v29nymjg8sqnv00g",
        "value": 10000
      },
      "scriptsig": "",
      "scriptsig_asm": "",
      "witness": [
        "2e4d16fd493e7687a1b53aa3a1071527c2b1eb02c3b677d37de8d37ca87b53c73e3700e1711987d041d85bfe544a31fdea7850ced81fb77a949b7e876af69a0c"
      ],
      "is_coinbase": false,
      "sequence": 4294967293
    },
    {
      "txid": "e8396e868c8f1b39599a5194d2e20e7f6fe7f7b61612f6ea95a924e7862b2bc3",
      "vout": 1,
      "prevout": {
        "scriptpubkey": "a91444b2c2c599dbfdb9dcccbcd155780466a17265a187",
        "scriptpubkey_asm": "OP_HASH160 OP_PUSHBYTES_20 44b2c2c599dbfdb9dcccbcd155780466a17265a1 OP_EQUAL",
        "scriptpubkey_type": "p2sh",
        "scriptpubkey_address": "37xG27EVCwe8TKsutGC2dNYPR2aMRTUtd7",
        "value": 201159
      },
      "scriptsig": "1600140f1c83b7ea9e7fefd2b10aac8c680ede85e3d50f",
      "scriptsig_asm": "OP_PUSHBYTES_22 00140f1c83b7ea9e7fefd2b10aac8c680ede85e3d50f",
      "witness": [
        "3045022100b4c183a322d44d8dc1feca5d8479d2704c0d7cb7d98350a15eba94ff7038beab02203d1b6b9f05e40b4640eb548e0708d5234e2074c2b9e325a3fd0ad5f0110980dd01",
        "032efcd4fd0e251037171e8052c58a15ae55f8f959e13948555586147ebe7aa623"
      ],
      "is_coinbase": false,
      "sequence": 4294967293,
      "inner_redeemscript_asm": "OP_0 OP_PUSHBYTES_20 0f1c83b7ea9e7fefd2b10aac8c680ede85e3d50f"
    }
  ],
  "vout": [
    {
      "scriptpubkey": "51207626d14b1403cd6fc869f694f93e680dfa7de4d596498f4446626eb853d724ac",
      "scriptpubkey_asm": "OP_PUSHNUM_1 OP_PUSHBYTES_32 7626d14b1403cd6fc869f694f93e680dfa7de4d596498f4446626eb853d724ac",
      "scriptpubkey_type": "v1_p2tr",
      "scriptpubkey_address": "bc1pwcndzjc5q0xkljrf7620j0ngpha8mex4jeyc73zxvfhts57hyjkqsmj3c0",
      "value": 10000
    },
    {
      "scriptpubkey": "a91444b2c2c599dbfdb9dcccbcd155780466a17265a187",
      "scriptpubkey_asm": "OP_HASH160 OP_PUSHBYTES_20 44b2c2c599dbfdb9dcccbcd155780466a17265a1 OP_EQUAL",
      "scriptpubkey_type": "p2sh",
      "scriptpubkey_address": "37xG27EVCwe8TKsutGC2dNYPR2aMRTUtd7",
      "value": 198479
    }
  ],
  "size": 366,
  "weight": 936,
  "fee": 2680,
  "status": {
    "confirmed": true,
    "block_height": 834464,
    "block_hash": "0000000000000000000177a0869a911a2b65c9bdcd5a8bcb02b68f305bee848e",
    "block_time": 1710308296
  },
  "hex": "0200000000010266c310f11fa1157d58e3a013d61b7438c90ac626a3c959ad8c34c5f5ad5fbbc45a00000000fdffffffc32b2b86e724a995eaf61216b6f7e76f7f0ee2d294519a59391b8f8c866e39e801000000171600140f1c83b7ea9e7fefd2b10aac8c680ede85e3d50ffdffffff0210270000000000002251207626d14b1403cd6fc869f694f93e680dfa7de4d596498f4446626eb853d724ac4f0703000000000017a91444b2c2c599dbfdb9dcccbcd155780466a17265a18701402e4d16fd493e7687a1b53aa3a1071527c2b1eb02c3b677d37de8d37ca87b53c73e3700e1711987d041d85bfe544a31fdea7850ced81fb77a949b7e876af69a0c02483045022100b4c183a322d44d8dc1feca5d8479d2704c0d7cb7d98350a15eba94ff7038beab02203d1b6b9f05e40b4640eb548e0708d5234e2074c2b9e325a3fd0ad5f0110980dd0121032efcd4fd0e251037171e8052c58a15ae55f8f959e13948555586147ebe7aa62300000000"
}