{
  "txid": "d72ac7ce1612e1e0ee0b9f9af20c2c57d0cacf5b2c6f66e3df799ee8a1d20c86",
  "version": 2,
  "locktime": 0,
  "vin": [
    {
      "txid": "edac73ec0215f22fc7e554b2bfef3dd8257057e907732cceb3972d59a66fdf7e",
      "vout": 1,
      "prevout": {
        "scriptpubkey": "00146d80bf3bc33d948e5c1ec5efb3a5857825e8d700",
        "scriptpubkey_asm": "OP_0 OP_PUSHBYTES_20 6d80bf3bc33d948e5c1ec5efb3a5857825e8d700",
        "scriptpubkey_type": "v0_p2wpkh",
        "scriptpubkey_address": "bc1qdkqt7w7r8k2guhq7chhm8fv90qj734cqexm4us",
        "value": 63015307
      },
      "scriptsig": "",
      "scriptsig_asm": "",
      "witness": [
        "3044022079f8e5d2d54e128832e64a26194b33b044fe71467e354decb91688d4448da1c6022025ad3e24bbfcf7a705122b7ef6c4a2b5271e2134ae359e852f8345862026b41501",
        "021796722ec7c6d636646c260be18be7db52343d5d594c397b1ded664a0b06f40e"
      ],
      "is_coinbase": false,
      "sequence": 4294967295
    }
  ],
  "vout": [
    {
      "scriptpubkey": "001444e0ec9132973dcd4c81916b74dbfb64de21f13b",
      "scriptpubkey_asm": "OP_0 OP_PUSHBYTES_20 44e0ec9132973dcd4c81916b74dbfb64de21f13b",
      "scriptpubkey_type": "v0_p2wpkh",
      "scriptpubkey_address": "bc1qgnsweyfjju7u6nypj94hfklmvn0zrufmznex6q",
      "value": 5600000
    },
    {
      "scriptpubkey": "0014643dd1b51ab18aa509304144c85cb91d20e39975",
      "scriptpubkey_asm": "OP_0 OP_PUSHBYTES_20 643dd1b51ab18aa509304144c85cb91d20e39975",
      "scriptpubkey_type": "v0_p2wpkh",
      "scriptpubkey_address": "bc1qvs7ardg6kx922zfsg9zvsh9er5sw8xt4fphhre",
      "value": 57412796
    }
  ],
  "size": 222,
  "weight": 561,
  "fee": 2511,
  "status": {
    "confirmed": true,
    "block_height": 834638,
    "block_hash": "000000000000000000025f742c626208ac87e0b7d15054abb4a19ca2d735a54e",
    "block_time": 1710405325
  },
  "hex": "020000000001017edf6fa6592d97b3ce2c7307e9577025d83defbfb254e5c72ff21502ec73aced0100000000ffffffff02007355000000000016001444e0ec9132973dcd4c81916b74dbfb64de21f13bbc0c6c0300000000160014643dd1b51ab18aa509304144c85cb91d20e3997502473044022079f8e5d2d54e128832e64a26194b33b044fe71467e354decb91688d4448da1c6022025ad3e24bbfcf7a705122b7ef6c4a2b5271e2134ae359e852f8345862026b4150121021796722ec7c6d636646c260be18be7db52343d5d594c397b1ded664a0b06f40e00000000"
}