{
  "txid": "d730db24faebceaedfc407e8a5a8a6217fda4123ba2d73ac48ba6387695ce65d",
  "version": 2,
  "locktime": 0,
  "vin": [
    {
      "txid": "e722a999a5953da17bd6aaedbaa5959bccfbfdfcdc6738f1bc7bb92c8e75f9bb",
      "vout": 14,
      "prevout": {
        "scriptpubkey": "a91405599d37fc1891c2c09b6aa29893a3112114552687",
        "scriptpubkey_asm": "OP_HASH160 OP_PUSHBYTES_20 05599d37fc1891c2c09b6aa29893a31121145526 OP_EQUAL",
        "scriptpubkey_type": "p2sh",
        "scriptpubkey_address": "32BJf15ehkb9t2BWD17DEe52CnTarRTHeP",
        "value": 600
      },
      "scriptsig": "1600145bb4fa703546d63a9ded1d32ae67d36b2996fd1b",
      "scriptsig_asm": "OP_PUSHBYTES_22 00145bb4fa703546d63a9ded1d32ae67d36b2996fd1b",
      "witness": [
        "304402205b660562c61a6b416329aede318ac5cd2e0ea755e6ef49d25e860bb5dd63d56f022030ad93670f9854b92199c6d751960fa4aa444d00d003d3e3afcb57244b9e0d7701",
        "022bc38fb4879407feb7e42773e291606eda1ea51a73d0256e39f427041636829d"
      ],
      "is_coinbase": false,
      "sequence": 4294967295,
      "inner_redeemscript_asm": "OP_0 OP_PUSHBYTES_20 5bb4fa703546d63a9ded1d32ae67d36b2996fd1b"
    },
    {
      "txid": "e722a999a5953da17bd6aaedbaa5959bccfbfdfcdc6738f1bc7bb92c8e75f9bb",
      "vout": 15,
      "prevout": {
        "scriptpubkey": "a91405599d37fc1891c2c09b6aa29893a3112114552687",
        "scriptpubkey_asm": "OP_HASH160 OP_PUSHBYTES_20 05599d37fc1891c2c09b6aa29893a31121145526 OP_EQUAL",
        "scriptpubkey_type": "p2sh",
        "scriptpubkey_address": "32BJf15ehkb9t2BWD17DEe52CnTarRTHeP",
        "value": 600
      },
      "scriptsig": "1600145bb4fa703546d63a9ded1d32ae67d36b2996fd1b",
      "scriptsig_asm": "OP_PUSHBYTES_22 00145bb4fa703546d63a9ded1d32ae67d36b2996fd1b",
      "witness": [
        "3045022100c01c5b3b5f4870e1b73984dfe8441b395e06f143954a2b94d196a691fa0dd7dc0220162858729d213f0caefe03d10c9369264716203b0b5d6ce881aa0993d1bcb65601",
        "022bc38fb4879407feb7e42773e291606eda1ea51a73d0256e39f427041636829d"
      ],
      "is_coinbase": false,
      "sequence": 4294967295,
      "inner_redeemscript_asm": "OP_0 OP_PUSHBYTES_20 5bb4fa703546d63a9ded1d32ae67d36b2996fd1b"
    },
    {
      "txid": "e722a999a5953da17bd6aaedbaa5959bccfbfdfcdc6738f1bc7bb92c8e75f9bb",
      "vout": 13,
      "prevout": {
        "scriptpubkey": "a91405599d37fc1891c2c09b6aa29893a3112114552687",
        "scriptpubkey_asm": "OP_HASH160 OP_PUSHBYTES_20 05599d37fc1891c2c09b6aa29893a31121145526 OP_EQUAL",
        "scriptpubkey_type": "p2sh",
        "scriptpubkey_address": "32BJf15ehkb9t2BWD17DEe52CnTarRTHeP",
        "value": 600
      },
      "scriptsig": "1600145bb4fa703546d63a9ded1d32ae67d36b2996fd1b",
      "scriptsig_asm": "OP_PUSHBYTES_22 00145bb4fa703546d63a9ded1d32ae67d36b2996fd1b",
      "witness": [
        "304402207acc3599fd18c088141cffb5e5693ad7dce52c000c5b8ac9906d2333fe0fa3a9022057e52f4e891f388ebf2283c48634ba94ba1cacbdfe589f5d4b56b6dc8f127a5001",
        "022bc38fb4879407feb7e42773e291606eda1ea51a73d0256e39f427041636829d"
      ],
      "is_coinbase": false,
      "sequence": 4294967295,
      "inner_redeemscript_asm": "OP_0 OP_PUSHBYTES_20 5bb4fa703546d63a9ded1d32ae67d36b2996fd1b"
    },
    {
      "txid": "e722a999a5953da17bd6aaedbaa5959bccfbfdfcdc6738f1bc7bb92c8e75f9bb",
      "vout": 16,
      "prevout": {
        "scriptpubkey": "a91405599d37fc1891c2c09b6aa29893a3112114552687",
        "scriptpubkey_asm": "OP_HASH160 OP_PUSHBYTES_20 05599d37fc1891c2c09b6aa29893a31121145526 OP_EQUAL",
        "scriptpubkey_type": "p2sh",
        "scriptpubkey_address": "32BJf15ehkb9t2BWD17DEe52CnTarRTHeP",
        "value": 600
      },
      "scriptsig": "1600145bb4fa703546d63a9ded1d32ae67d36b2996fd1b",
      "scriptsig_asm": "OP_PUSHBYTES_22 00145bb4fa703546d63a9ded1d32ae67d36b2996fd1b",
      "witness": [
        "3045022100db66c83891b9fab20b9e64d79c216a0a11de1675a503132d473da0ff4d0ba4c602203036a49be384974327d92a0b62ee10f6dfbf6d6432c1725c7f0f011bc12bcb5301",
        "022bc38fb4879407feb7e42773e291606eda1ea51a73d0256e39f427041636829d"
      ],
      "is_coinbase": false,
      "sequence": 4294967295,
      "inner_redeemscript_asm": "OP_0 OP_PUSHBYTES_20 5bb4fa703546d63a9ded1d32ae67d36b2996fd1b"
    },
    {
      "txid": "3865a409dc45b0ea31af9e128593bebdbf7d15193c86cab9eddac27d78d5d841",
      "vout": 1,
      "prevout": {
        "scriptpubkey": "51203bc81236456226e7dfac3fc6388356c83d61ea74b4d381a8f572d49c52cd1cef",
        "scriptpubkey_asm": "OP_PUSHNUM_1 OP_PUSHBYTES_32 3bc81236456226e7dfac3fc6388356c83d61ea74b4d381a8f572d49c52cd1cef",
        "scriptpubkey_type": "v1_p2tr",
        "scriptpubkey_address": "bc1p80ypydj9vgnw0hav8lrr3q6keq7kr6n5knfcr284wt2fc5kdrnhsxs462e",
        "value": 546
      },
      "scriptsig": "",
      "scriptsig_asm": "",
      "witness": [
        "df055dc8b8269624008a282b34970b74872c9e674ddcf7da479ab908c596e2d12402fdabe1e12e3fdf8452d20d92eae50dd2cdfe55109ef82132412a2922447983"
      ],
      "is_coinbase": false,
      "sequence": 4294967295
    },
    {
      "txid": "4d482f739d7056d829a878b67899418c024896b46422cc864985c3dc33eb3cde",
      "vout": 0,
      "prevout": {
        "scriptpubkey": "512010c05223eb8ada42720236743cb6f5d087316ba9e737c901b0184afaef2fbc5b",
        "scriptpubkey_asm": "OP_PUSHNUM_1 OP_PUSHBYTES_32 10c05223eb8ada42720236743cb6f5d087316ba9e737c901b0184afaef2fbc5b",
        "scriptpubkey_type": "v1_p2tr",
        "scriptpubkey_address": "bc1pzrq9yglt3tdyyuszxe6redh46zrnz6afuumujqdsrp904me0h3ds4gk5lu",
        "value": 546
      },
      "scriptsig": "",
      "scriptsig_asm": "",
      "witness": [
        "1d67515c6d57436ac742042f193988186c5adcbaac5391ce41302c761e1a1203714ecd7c6d2f1ccd66a1aed924ab41d0c160cdb47d97d7de3f1033ea765aa9f383"
      ],
      "is_coinbase": false,
      "sequence": 4294967295
    },
    {
      "txid": "215243b4df8f013513c3fdb82037b5d78787702b9126e3cba68ce7eaeb3bf44d",
      "vout": 1,
      "prevout": {
        "scriptpubkey": "51206bf4a3f0acb36b839ac64b7c26f04e84209e4da5b505944989a0a64b9236a5fd",
        "scriptpubkey_asm": "OP_PUSHNUM_1 OP_PUSHBYTES_32 6bf4a3f0acb36b839ac64b7c26f04e84209e4da5b505944989a0a64b9236a5fd",
        "scriptpubkey_type": "v1_p2tr",
        "scriptpubkey_address": "bc1pd0628u9vkd4c8xkxfd7zduzwsssfund9k5zegjvf5znyhy3k5h7sry2q32",
        "value": 546
      },
      "scriptsig": "",
      "scriptsig_asm": "",
      "witness": [
        "ce54f1962e763a8af06600590ce98d7097fd7f52896174663b1631268f1d1c0b49be5ba1b71a195caf079185db6d5879ff9087923f395264cb831a160a36090883"
      ],
      "is_coinbase": false,
      "sequence": 4294967295
    },
    {
      "txid": "824040ed66b9418a0ed4d5d2295fa49ef7e333e2039b8fd651509536245c6c44",
      "vout": 0,
      "prevout": {
        "scriptpubkey": "a91405599d37fc1891c2c09b6aa29893a3112114552687",
        "scriptpubkey_asm": "OP_HASH160 OP_PUSHBYTES_20 05599d37fc1891c2c09b6aa29893a31121145526 OP_EQUAL",
        "scriptpubkey_type": "p2sh",
        "scriptpubkey_address": "32BJf15ehkb9t2BWD17DEe52CnTarRTHeP",
        "value": 24000000
      },
      "scriptsig": "1600145bb4fa703546d63a9ded1d32ae67d36b2996fd1b",
      "scriptsig_asm": "OP_PUSHBYTES_22 00145bb4fa703546d63a9ded1d32ae67d36b2996fd1b",
      "witness": [
        "3045022100d4422581bc9034a7e25e5759643bcc8782bc2014de8d4182223089a95feb676f022063a3d160aaf95049eeaa25a2d49550418edb910a6d0cbe729ebc9acb76ae3cd701",
        "022bc38fb4879407feb7e42773e291606eda1ea51a73d0256e39f427041636829d"
      ],
      "is_coinbase": false,
      "sequence": 4294967295,
      "inner_redeemscript_asm": "OP_0 OP_PUSHBYTES_20 5bb4fa703546d63a9ded1d32ae67d36b2996fd1b"
    },
    {
      "txid": "75dd0da37eacb696844e801a301636b932d4fea2f6a5cb8047bba2861aa436b0",
      "vout": 1,
      "prevout": {
        "scriptpubkey": "a91405599d37fc1891c2c09b6aa29893a3112114552687",
        "scriptpubkey_asm": "OP_HASH160 OP_PUSHBYTES_20 05599d37fc1891c2c09b6aa29893a31121145526 OP_EQUAL",
        "scriptpubkey_type": "p2sh",
        "scriptpubkey_address": "32BJf15ehkb9t2BWD17DEe52CnTarRTHeP",
        "value": 10410690
      },
      "scriptsig": "1600145bb4fa703546d63a9ded1d32ae67d36b2996fd1b",
      "scriptsig_asm": "OP_PUSHBYTES_22 00145bb4fa703546d63a9ded1d32ae67d36b2996fd1b",
      "witness": [
        "3045022100f1ee188994a18458e8fd07c88fc0df7178321e32ed11ecc04d125fe44a9e5aa802207f07e38bb8598454b00aeed86b90ddfc07cdd497bef6624b8ad58c180d775efa01",
        "022bc38fb4879407feb7e42773e291606eda1ea51a73d0256e39f427041636829d"
      ],
      "is_coinbase": false,
      "sequence": 4294967295,
      "inner_redeemscript_asm": "OP_0 OP_PUSHBYTES_20 5bb4fa703546d63a9ded1d32ae67d36b2996fd1b"
    }
  ],
  "vout": [
    {
      "scriptpubkey": "a91405599d37fc1891c2c09b6aa29893a3112114552687",
      "scriptpubkey_asm": "OP_HASH160 OP_PUSHBYTES_20 05599d37fc1891c2c09b6aa29893a31121145526 OP_EQUAL",
      "scriptpubkey_type": "p2sh",
      "scriptpubkey_address": "32BJf15ehkb9t2BWD17DEe52CnTarRTHeP",
      "value": 2400
    },
    {
      "scriptpubkey": "51209f123fa447288cf4ef3bd0a0d5cf3cfec84322409aefec1a5775846b1d37d57c",
      "scriptpubkey_asm": "OP_PUSHNUM_1 OP_PUSHBYTES_32 9f123fa447288cf4ef3bd0a0d5cf3cfec84322409aefec1a5775846b1d37d57c",
      "scriptpubkey_type": "v1_p2tr",
      "scriptpubkey_address": "bc1pnufrlfz89zx0fmem6zsdtneulmyyxgjqnth7cxjhwkzxk8fh647q69v259",
      "value": 546
    },
    {
      "scriptpubkey": "51209f123fa447288cf4ef3bd0a0d5cf3cfec84322409aefec1a5775846b1d37d57c",
      "scriptpubkey_asm": "OP_PUSHNUM_1 OP_PUSHBYTES_32 9f123fa447288cf4ef3bd0a0d5cf3cfec84322409aefec1a5775846b1d37d57c",
      "scriptpubkey_type": "v1_p2tr",
      "scriptpubkey_address": "bc1pnufrlfz89zx0fmem6zsdtneulmyyxgjqnth7cxjhwkzxk8fh647q69v259",
      "value": 546
    },
    {
      "scriptpubkey": "51209f123fa447288cf4ef3bd0a0d5cf3cfec84322409aefec1a5775846b1d37d57c",
      "scriptpubkey_asm": "OP_PUSHNUM_1 OP_PUSHBYTES_32 9f123fa447288cf4ef3bd0a0d5cf3cfec84322409aefec1a5775846b1d37d57c",
      "scriptpubkey_type": "v1_p2tr",
      "scriptpubkey_address": "bc1pnufrlfz89zx0fmem6zsdtneulmyyxgjqnth7cxjhwkzxk8fh647q69v259",
      "value": 546
    },
    {
      "scriptpubkey": "a914483c4d1eb2dcb33199c599bc770399ee02c1b47487",
      "scriptpubkey_asm": "OP_HASH160 OP_PUSHBYTES_20 483c4d1eb2dcb33199c599bc770399ee02c1b474 OP_EQUAL",
      "scriptpubkey_type": "p2sh",
      "scriptpubkey_address": "38GxpADuAVFWa1qrEYToKuK53sWdDFzY7d",
      "value": 10249046
    },
    {
      "scriptpubkey": "a9145b24145cae308a3f3f2a6290a3b24462ef2fd93387",
      "scriptpubkey_asm": "OP_HASH160 OP_PUSHBYTES_20 5b24145cae308a3f3f2a6290a3b24462ef2fd933 OP_EQUAL",
      "scriptpubkey_type": "p2sh",
      "scriptpubkey_address": "39zvdrHrGjYsXqau8D9k8RPvk1GcFP9G3h",
      "value": 10298796
    },
    {
      "scriptpubkey": "a91419f46a89b353029d846ee06bf08fa6c80425d87387",
      "scriptpubkey_asm": "OP_HASH160 OP_PUSHBYTES_20 19f46a89b353029d846ee06bf08fa6c80425d873 OP_EQUAL",
      "scriptpubkey_type": "p2sh",
      "scriptpubkey_address": "344FcfwpRn1zhmEqxZZ1qAT3UAnywqY1gA",
      "value": 10448046
    },
    {
      "scriptpubkey": "a914ea6b832a05c6ca578baa3836f3f25553d41068a587",
      "scriptpubkey_asm": "OP_HASH160 OP_PUSHBYTES_20 ea6b832a05c6ca578baa3836f3f25553d41068a5 OP_EQUAL",
      "scriptpubkey_type": "p2sh",
      "scriptpubkey_address": "3P4WqXDbSLRhzo2H6MT6YFbvBKBDPLbVtQ",
      "value": 778750
    },
    {
      "scriptpubkey": "a91405599d37fc1891c2c09b6aa29893a3112114552687",
      "scriptpubkey_asm": "OP_HASH160 OP_PUSHBYTES_20 05599d37fc1891c2c09b6aa29893a31121145526 OP_EQUAL",
      "scriptpubkey_type": "p2sh",
      "scriptpubkey_address": "32BJf15ehkb9t2BWD17DEe52CnTarRTHeP",
      "value": 600
    },
    {
      "scriptpubkey": "a91405599d37fc1891c2c09b6aa29893a3112114552687",
      "scriptpubkey_asm": "OP_HASH160 OP_PUSHBYTES_20 05599d37fc1891c2c09b6aa29893a31121145526 OP_EQUAL",
      "scriptpubkey_type": "p2sh",
      "scriptpubkey_address": "32BJf15ehkb9t2BWD17DEe52CnTarRTHeP",
      "value": 600
    },
    {
      "scriptpubkey": "a91405599d37fc1891c2c09b6aa29893a3112114552687",
      "scriptpubkey_asm": "OP_HASH160 OP_PUSHBYTES_20 05599d37fc1891c2c09b6aa29893a31121145526 OP_EQUAL",
      "scriptpubkey_type": "p2sh",
      "scriptpubkey_address": "32BJf15ehkb9t2BWD17DEe52CnTarRTHeP",
      "value": 600
    },
    {
      "scriptpubkey": "a91405599d37fc1891c2c09b6aa29893a3112114552687",
      "scriptpubkey_asm": "OP_HASH160 OP_PUSHBYTES_20 05599d37fc1891c2c09b6aa29893a31121145526 OP_EQUAL",
      "scriptpubkey_type": "p2sh",
      "scriptpubkey_address": "32BJf15ehkb9t2BWD17DEe52CnTarRTHeP",
      "value": 600
    },
    {
      "scriptpubkey": "a91405599d37fc1891c2c09b6aa29893a3112114552687",
      "scriptpubkey_asm": "OP_HASH160 OP_PUSHBYTES_20 05599d37fc1891c2c09b6aa29893a31121145526 OP_EQUAL",
      "scriptpubkey_type": "p2sh",
      "scriptpubkey_address": "32BJf15ehkb9t2BWD17DEe52CnTarRTHeP",
      "value": 2611251
    }
  ],
  "size": 1815,
  "weight": 4713,
  "fee": 22401,
  "status": {
    "confirmed": true,
    "block_height": 834638,
    "block_hash": "000000000000000000025f742c626208ac87e0b7d15054abb4a19ca2d735a54e",
    "block_time": 1710405325
  },
  "hex": "02000000000109bbf9758e2cb97bbcf13867dcfcfdfbcc9b95a5baedaad67ba13d95a599a922e70e000000171600145bb4fa703546d63a9ded1d32ae67d36b2996fd1bffffffffbbf9758e2cb97bbcf13867dcfcfdfbcc9b95a5baedaad67ba13d95a599a922e70f000000171600145bb4fa703546d63a9ded1d32ae67d36b2996fd1bffffffffbbf9758e2cb97bbcf13867dcfcfdfbcc9b95a5baedaad67ba13d95a599a922e70d000000171600145bb4fa703546d63a9ded1d32ae67d36b2996fd1bffffffffbbf9758e2cb97bbcf13867dcfcfdfbcc9b95a5baedaad67ba13d95a599a922e710000000171600145bb4fa703546d63a9ded1d32ae67d36b2996fd1bffffffff41d8d5787dc2daedb9ca863c19157dbfbdbe9385129eaf31eab045dc09a465380100000000ffffffffde3ceb33dcc3854986cc2264b49648028c419978b678a829d856709d732f484d0000000000ffffffff4df43bebeae78ca6cbe326912b708787d7b53720b8fdc31335018fdfb44352210100000000ffffffff446c5c2436955051d68f9b03e233e3f79ea45f29d2d5d40e8a41b966ed40408200000000171600145bb4fa703546d63a9ded1d32ae67d36b2996fd1bffffffffb036a41a86a2bb4780cba5f6a2fed432b93616301a804e8496b6ac7ea30ddd7501000000171600145bb4fa703546d63a9ded1d32ae67d36b2996fd1bffffffff0d600900000000000017a91405599d37fc1891c2c09b6aa29893a311211455268722020000000000002251209f123fa447288cf4ef3bd0a0d5cf3cfec84322409aefec1a5775846b1d37d57c22020000000000002251209f123fa447288cf4ef3bd0a0d5cf3cfec84322409aefec1a5775846b1d37d57c22020000000000002251209f123fa447288cf4ef3bd0a0d5cf3cfec84322409aefec1a5775846b1d37d57c56639c000000000017a914483c4d1eb2dcb33199c599bc770399ee02c1b47487ac259d000000000017a9145b24145cae308a3f3f2a6290a3b24462ef2fd93387ae6c9f000000000017a91419f46a89b353029d846ee06bf08fa6c80425d87387fee10b000000000017a914ea6b832a05c6ca578baa3836f3f25553d41068a587580200000000000017a91405599d37fc1891c2c09b6aa29893a3112114552687580200000000000017a91405599d37fc1891c2c09b6aa29893a3112114552687580200000000000017a91405599d37fc1891c2c09b6aa29893a3112114552687580200000000000017a91405599d37fc1891c2c09b6aa29893a311211455268733d827000000000017a91405599d37fc1891c2c09b6aa29893a31121145526870247304402205b660562c61a6b416329aede318ac5cd2e0ea755e6ef49d25e860bb5dd63d56f022030ad93670f9854b92199c6d751960fa4aa444d00d003d3e3afcb57244b9e0d770121022bc38fb4879407feb7e42773e291606eda1ea51a73d0256e39f427041636829d02483045022100c01c5b3b5f4870e1b73984dfe8441b395e06f143954a2b94d196a691fa0dd7dc0220162858729d213f0caefe03d10c9369264716203b0b5d6ce881aa0993d1bcb6560121022bc38fb4879407feb7e42773e291606eda1ea51a73d0256e39f427041636829d0247304402207acc3599fd18c088141cffb5e5693ad7dce52c000c5b8ac9906d2333fe0fa3a9022057e52f4e891f388ebf2283c48634ba94ba1cacbdfe589f5d4b56b6dc8f127a500121022bc38fb4879407feb7e42773e291606eda1ea51a73d0256e39f427041636829d02483045022100db66c83891b9fab20b9e64d79c216a0a11de1675a503132d473da0ff4d0ba4c602203036a49be384974327d92a0b62ee10f6dfbf6d6432c1725c7f0f011bc12bcb530121022bc38fb4879407feb7e42773e291606eda1ea51a73d0256e39f427041636829d0141df055dc8b8269624008a282b34970b74872c9e674ddcf7da479ab908c596e2d12402fdabe1e12e3fdf8452d20d92eae50dd2cdfe55109ef82132412a292244798301411d67515c6d57436ac742042f193988186c5adcbaac5391ce41302c761e1a1203714ecd7c6d2f1ccd66a1aed924ab41d0c160cdb47d97d7de3f1033ea765aa9f3830141ce54f1962e763a8af06600590ce98d7097fd7f52896174663b1631268f1d1c0b49be5ba1b71a195caf079185db6d5879ff9087923f395264cb831a160a3609088302483045022100d4422581bc9034a7e25e5759643bcc8782bc2014de8d4182223089a95feb676f022063a3d160aaf95049eeaa25a2d49550418edb910a6d0cbe729ebc9acb76ae3cd70121022bc38fb4879407feb7e42773e291606eda1ea51a73d0256e39f427041636829d02483045022100f1ee188994a18458e8fd07c88fc0df7178321e32ed11ecc04d125fe44a9e5aa802207f07e38bb8598454b00aeed86b90ddfc07cdd497bef6624b8ad58c180d775efa0121022bc38fb4879407feb7e42773e291606eda1ea51a73d0256e39f427041636829d00000000"
}