{
  "txid": "d74ca0d0ec7978746d50c18364e958d7fae3c43f007f1ffbb7cf94d56036548e",
  "version": 1,
  "locktime": 0,
  "vin": [
    {
      "txid": "115bc5331e835affb47d247d431e2f5fd77a8ce79d60909a0231dba7af56cbdd",
      "vout": 1,
      "prevout": {
        "scriptpubkey": "00207250d91085a77a4568fa4cfd5bebb59f0b9cb3530f8154cd4fab6d28abd548fe",
        "scriptpubkey_asm": "OP_0 OP_PUSHBYTES_32 7250d91085a77a4568fa4cfd5bebb59f0b9cb3530f8154cd4fab6d28abd548fe",
        "scriptpubkey_type": "v0_p2wsh",
        "scriptpubkey_address": "bc1qwfgdjyy95aay2686fn74h6a4nu9eev6np7q4fn204dkj3274frlqrskvx0",
        "value": 45759861
      },
      "scriptsig": "",
      "scriptsig_asm": "",
      "witness": [
        "",
        "304402204d9a9f3555b89ca46ca82ac85c01e4ce2da5777838a655b27e101e310999947e0220652d12433c050b2e1f75b20824e177e3ddac3980963982da9f4e1cc9212c45a901",
        "304402204cd9c15d60fd93e31041d472ad0fb2686ab565442ec0839401bf189981b1bf2602201f539bbfb52f83e4ddbf012ceb365de3ed6415d2697f9e54f287bdf46a8896dd01",
        "5221030fac04165b606dea3b8f81ada5eb66ca181d5215c873fcf46623ea7cf8e98b1b2102b7836a2a9d3ff095415383cb23a5f4f1badd75e44adb17537962eafe3ded3b602102f8cb472df1ae03cfa6b65b013add7862c7d3ac3684a8a92a44192faace228aee53ae"
      ],
      "is_coinbase": false,
      "sequence": 4294967295,
      "inner_witnessscript_asm": "OP_PUSHNUM_2 OP_PUSHBYTES_33 030fac04165b606dea3b8f81ada5eb66ca181d5215c873fcf46623ea7cf8e98b1b OP_PUSHBYTES_33 02b7836a2a9d3ff095415383cb23a5f4f1badd75e44adb17537962eafe3ded3b60 OP_PUSHBYTES_33 02f8cb472df1ae03cfa6b65b013add7862c7d3ac3684a8a92a44192faace228aee OP_PUSHNUM_3 OP_CHECKMULTISIG"
    }
  ],
  "vout": [
    {
      "scriptpubkey": "00144ef5ca0af95d8ad0bfd21d6a780b428ac615471c",
      "scriptpubkey_asm": "OP_0 OP_PUSHBYTES_20 4ef5ca0af95d8ad0bfd21d6a780b428ac615471c",
      "scriptpubkey_type": "v0_p2wpkh",
      "scriptpubkey_address": "bc1qfm6u5zhetk9dp07jr448sz6z3trp23cu5fj7c6",
      "value": 30065
    },
    {
      "scriptpubkey": "0020cffcb0c22ee684012fbd9e04c5fb574a5d7f59fa934e329aea6444b0f68b251b",
      "scriptpubkey_asm": "OP_0 OP_PUSHBYTES_32 cffcb0c22ee684012fbd9e04c5fb574a5d7f59fa934e329aea6444b0f68b251b",
      "scriptpubkey_type": "v0_p2wsh",
      "scriptpubkey_address": "bc1qel7tps3wu6zqztaanczvt76hffwh7k06jd8r9xh2v3ztpa5ty5dsz358ys",
      "value": 45727164
    }
  ],
  "size": 379,
  "weight": 754,
  "fee": 2632,
  "status": {
    "confirmed": true,
    "block_height": 834552,
    "block_hash": "00000000000000000001dd0468a70c94f619251d286585cff57aeb4bd9ede330",
    "block_time": 1710355598
  },
  "hex": "01000000000101ddcb56afa7db31029a90609de78c7ad75f2f1e437d247db4ff5a831e33c55b110100000000ffffffff0271750000000000001600144ef5ca0af95d8ad0bfd21d6a780b428ac615471cbcbdb90200000000220020cffcb0c22ee684012fbd9e04c5fb574a5d7f59fa934e329aea6444b0f68b251b040047304402204d9a9f3555b89ca46ca82ac85c01e4ce2da5777838a655b27e101e310999947e0220652d12433c050b2e1f75b20824e177e3ddac3980963982da9f4e1cc9212c45a90147304402204cd9c15d60fd93e31041d472ad0fb2686ab565442ec0839401bf189981b1bf2602201f539bbfb52f83e4ddbf012ceb365de3ed6415d2697f9e54f287bdf46a8896dd01695221030fac04165b606dea3b8f81ada5eb66ca181d5215c873fcf46623ea7cf8e98b1b2102b7836a2a9d3ff095415383cb23a5f4f1badd75e44adb17537962eafe3ded3b602102f8cb472df1ae03cfa6b65b013add7862c7d3ac3684a8a92a44192faace228aee53ae00000000"
}