{
  "txid": "d75a2c401a31a78714105e87028b347c81fa8a775f131f37f491d1fa4d521bc7",
  "version": 2,
  "locktime": 0,
  "vin": [
    {
      "txid": "b13bb5512a4904c28a6b7957b88edf574e8cb23551fc1dcfe22d6b239df42cf4",
      "vout": 52,
      "prevout": {
        "scriptpubkey": "5120bc9fcf2b290186f73880e9eb3eccf9ee0eef25d3a27b0e485d1776f97d4cb5a6",
        "scriptpubkey_asm": "OP_PUSHNUM_1 OP_PUSHBYTES_32 bc9fcf2b290186f73880e9eb3eccf9ee0eef25d3a27b0e485d1776f97d4cb5a6",
        "scriptpubkey_type": "v1_p2tr",
        "scriptpubkey_address": "bc1phj0u72efqxr0wwyqa84nan8eac8w7fwn5fasujzazam0jl2vkknq6u9hzg",
        "value": 2575
      },
      "scriptsig": "",
      "scriptsig_asm": "",
      "witness": [
        "935104f816182b6de67e062290860bf05bad9ace847518f78e67580afe9fac2e7f3c4e9fb528d90677b95e49446ff09e894f50bdb63cc2375af531b12f52e41d",
        "20112a831b053315798975c7531ed587fb13d5da607328de008d4966898388c2bbac0063036f726401010a746578742f706c61696e00367b2270223a226272632d3230222c226f70223a226d696e74222c227469636b223a2261616161222c22616d74223a223130303030227d68",
        "c1112a831b053315798975c7531ed587fb13d5da607328de008d4966898388c2bb"
      ],
      "is_coinbase": false,
      "sequence": 4261412863
    }
  ],
  "vout": [
    {
      "scriptpubkey": "0014ce0b5aa0dac72397a8aa5a85d90a2cfb46f0f630",
      "scriptpubkey_asm": "OP_0 OP_PUSHBYTES_20 ce0b5aa0dac72397a8aa5a85d90a2cfb46f0f630",
      "scriptpubkey_type": "v0_p2wpkh",
      "scriptpubkey_address": "bc1qec944gx6cu3e0292t2zajz3vldr0pa3sh356d9",
      "value": 546
    }
  ],
  "size": 295,
  "weight": 541,
  "fee": 2029,
  "status": {
    "confirmed": true,
    "block_height": 834464,
    "block_hash": "0000000000000000000177a0869a911a2b65c9bdcd5a8bcb02b68f305bee848e",
    "block_time": 1710308296
  },
  "hex": "02000000000101f42cf49d236b2de2cf1dfc5135b28c4e57df8eb857796b8ac204492a51b53bb13400000000fffffffd012202000000000000160014ce0b5aa0dac72397a8aa5a85d90a2cfb46f0f6300340935104f816182b6de67e062290860bf05bad9ace847518f78e67580afe9fac2e7f3c4e9fb528d90677b95e49446ff09e894f50bdb63cc2375af531b12f52e41d6e20112a831b053315798975c7531ed587fb13d5da607328de008d4966898388c2bbac0063036f726401010a746578742f706c61696e00367b2270223a226272632d3230222c226f70223a226d696e74222c227469636b223a2261616161222c22616d74223a223130303030227d6821c1112a831b053315798975c7531ed587fb13d5da607328de008d4966898388c2bb00000000"
}