{
  "txid": "d760142cea74c9af523cf6ee95b9792aee32309888405b447e44985626adc41d",
  "version": 2,
  "locktime": 0,
  "vin": [
    {
      "txid": "53a2cb359a12111320be57240a3c479f628aac9fee18f4a49758f0a478ea0f15",
      "vout": 0,
      "prevout": {
        "scriptpubkey": "5120b117eeceeff4d28bf7ca5f7c05f5eef19205d6ab5df2ed2e946955049bf32af4",
        "scriptpubkey_asm": "OP_PUSHNUM_1 OP_PUSHBYTES_32 b117eeceeff4d28bf7ca5f7c05f5eef19205d6ab5df2ed2e946955049bf32af4",
        "scriptpubkey_type": "v1_p2tr",
        "scriptpubkey_address": "bc1pkyt7anh07nfgha72ta7qta0w7xfqt44tthew6t55d92sfxln9t6qer52ly",
        "value": 546
      },
      "scriptsig": "",
      "scriptsig_asm": "",
      "witness": [
        "5e7c84046a8ba3f0d0000e07ace3a9414b280c14e14acfc52f9e6e4087f252e0d5c144214508ee81176b450c9df326b2ff0fda4926773ab728a719c2fbd4f2b3"
      ],
      "is_coinbase": false,
      "sequence": 2147483649
    },
    {
      "txid": "384c656fea83177be790f072b6f806184f0d4cb02d31fa31dddfe28579a3fb54",
      "vout": 1,
      "prevout": {
        "scriptpubkey": "5120b117eeceeff4d28bf7ca5f7c05f5eef19205d6ab5df2ed2e946955049bf32af4",
        "scriptpubkey_asm": "OP_PUSHNUM_1 OP_PUSHBYTES_32 b117eeceeff4d28bf7ca5f7c05f5eef19205d6ab5df2ed2e946955049bf32af4",
        "scriptpubkey_type": "v1_p2tr",
        "scriptpubkey_address": "bc1pkyt7anh07nfgha72ta7qta0w7xfqt44tthew6t55d92sfxln9t6qer52ly",
        "value": 342072
      },
      "scriptsig": "",
      "scriptsig_asm": "",
      "witness": [
        "d09ac1b8e747d4fdd6c5c07823b6ddc610b69310bd845fba2b2db88d32b9f9e49276d82760cdf2e7cfe1c87ec9886fdf2cc95aa7e9db7ff7482cf4124952edc4"
      ],
      "is_coinbase": false,
      "sequence": 2147483649
    }
  ],
  "vout": [
    {
      "scriptpubkey": "512084dc2559ef99d2453125ad9e924994732c95e8eb5da7fff11c9227f1d8f1de71",
      "scriptpubkey_asm": "OP_PUSHNUM_1 OP_PUSHBYTES_32 84dc2559ef99d2453125ad9e924994732c95e8eb5da7fff11c9227f1d8f1de71",
      "scriptpubkey_type": "v1_p2tr",
      "scriptpubkey_address": "bc1psnwz2k00n8fy2vf94k0fyjv5wvkft68ttknllugujgnlrk83mecs8jh3ph",
      "value": 546
    },
    {
      "scriptpubkey": "5120b117eeceeff4d28bf7ca5f7c05f5eef19205d6ab5df2ed2e946955049bf32af4",
      "scriptpubkey_asm": "OP_PUSHNUM_1 OP_PUSHBYTES_32 b117eeceeff4d28bf7ca5f7c05f5eef19205d6ab5df2ed2e946955049bf32af4",
      "scriptpubkey_type": "v1_p2tr",
      "scriptpubkey_address": "bc1pkyt7anh07nfgha72ta7qta0w7xfqt44tthew6t55d92sfxln9t6qer52ly",
      "value": 338696
    }
  ],
  "size": 312,
  "weight": 846,
  "fee": 3376,
  "status": {
    "confirmed": true,
    "block_height": 834638,
    "block_hash": "000000000000000000025f742c626208ac87e0b7d15054abb4a19ca2d735a54e",
    "block_time": 1710405325
  },
  "hex": "02000000000102150fea78a4f05897a4f418ee9fac8a629f473c0a2457be201311129a35cba25300000000000100008054fba37985e2dfdd31fa312db04c0d4f1806f8b672f090e77b1783ea6f654c3801000000000100008002220200000000000022512084dc2559ef99d2453125ad9e924994732c95e8eb5da7fff11c9227f1d8f1de71082b050000000000225120b117eeceeff4d28bf7ca5f7c05f5eef19205d6ab5df2ed2e946955049bf32af401405e7c84046a8ba3f0d0000e07ace3a9414b280c14e14acfc52f9e6e4087f252e0d5c144214508ee81176b450c9df326b2ff0fda4926773ab728a719c2fbd4f2b30140d09ac1b8e747d4fdd6c5c07823b6ddc610b69310bd845fba2b2db88d32b9f9e49276d82760cdf2e7cfe1c87ec9886fdf2cc95aa7e9db7ff7482cf4124952edc400000000"
}