{
  "txid": "d767c637d3e3da42e13fe617d49a9f7e0085510eef3ce4a0e78eee978f677d05",
  "version": 2,
  "locktime": 0,
  "vin": [
    {
      "txid": "dad90841dabf14c12e65dcc4c0484ccf1a4e2ca6617b355bc02aea5f1ba5ff7b",
      "vout": 4,
      "prevout": {
        "scriptpubkey": "0014b7c97e794134e223320361ddbd5ff4b7f8bc888e",
        "scriptpubkey_asm": "OP_0 OP_PUSHBYTES_20 b7c97e794134e223320361ddbd5ff4b7f8bc888e",
        "scriptpubkey_type": "v0_p2wpkh",
        "scriptpubkey_address": "bc1qklyhu72pxn3zxvsrv8wm6hl5klutezywcujmma",
        "value": 1440156
      },
      "scriptsig": "",
      "scriptsig_asm": "",
      "witness": [
        "30440220024bbe18b7748e0fc463591948143f61e9e1a20df5dcc771346127f40203cbbb022050c784a276260eb20a046743dc6dd3db7dec0bd501da44365f6ca404d596ef4701",
        "02b33ab0a64462696e39065c18c6fcfc15f3c08b4b8f16d16d181846652bcaa0d2"
      ],
      "is_coinbase": false,
      "sequence": 4294967295
    }
  ],
  "vout": [
    {
      "scriptpubkey": "0014b7c97e794134e223320361ddbd5ff4b7f8bc888e",
      "scriptpubkey_asm": "OP_0 OP_PUSHBYTES_20 b7c97e794134e223320361ddbd5ff4b7f8bc888e",
      "scriptpubkey_type": "v0_p2wpkh",
      "scriptpubkey_address": "bc1qklyhu72pxn3zxvsrv8wm6hl5klutezywcujmma",
      "value": 808
    },
    {
      "scriptpubkey": "512102f02ed55e2a69a1eb22ddb09d1e529da763bf05a7c8e7be4d970cc465ca5bd84b2102526d029b962adae519bdddf424f7ebf3099f97e5e54a42f0eb41a9f156960f1a2102020202020202020202020202020202020202020202020202020202020202020253ae",
      "scriptpubkey_asm": "OP_PUSHNUM_1 OP_PUSHBYTES_33 02f02ed55e2a69a1eb22ddb09d1e529da763bf05a7c8e7be4d970cc465ca5bd84b OP_PUSHBYTES_33 02526d029b962adae519bdddf424f7ebf3099f97e5e54a42f0eb41a9f156960f1a OP_PUSHBYTES_33 020202020202020202020202020202020202020202020202020202020202020202 OP_PUSHNUM_3 OP_CHECKMULTISIG",
      "scriptpubkey_type": "unknown",
      "value": 809
    },
    {
      "scriptpubkey": "51210387f8b7af30d123e8550c9b089ca29baffa279da14d2373becea33b66af4c4b4f2102b649b749c3c065e296adf685c7d808b38dc416f2befffbe1d0f7494574c299552102020202020202020202020202020202020202020202020202020202020202020253ae",
      "scriptpubkey_asm": "OP_PUSHNUM_1 OP_PUSHBYTES_33 0387f8b7af30d123e8550c9b089ca29baffa279da14d2373becea33b66af4c4b4f OP_PUSHBYTES_33 02b649b749c3c065e296adf685c7d808b38dc416f2befffbe1d0f7494574c29955 OP_PUSHBYTES_33 020202020202020202020202020202020202020202020202020202020202020202 OP_PUSHNUM_3 OP_CHECKMULTISIG",
      "scriptpubkey_type": "unknown",
      "value": 809
    },
    {
      "scriptpubkey": "001420123e4942db45c3c5971b141304c3ff6f5c06c7",
      "scriptpubkey_asm": "OP_0 OP_PUSHBYTES_20 20123e4942db45c3c5971b141304c3ff6f5c06c7",
      "scriptpubkey_type": "v0_p2wpkh",
      "scriptpubkey_address": "bc1qyqfruj2zmdzu83vhrv2pxpxrlah4cpk88c9zvd",
      "value": 12000
    },
    {
      "scriptpubkey": "0014b7c97e794134e223320361ddbd5ff4b7f8bc888e",
      "scriptpubkey_asm": "OP_0 OP_PUSHBYTES_20 b7c97e794134e223320361ddbd5ff4b7f8bc888e",
      "scriptpubkey_type": "v0_p2wpkh",
      "scriptpubkey_address": "bc1qklyhu72pxn3zxvsrv8wm6hl5klutezywcujmma",
      "value": 1411739
    }
  ],
  "size": 481,
  "weight": 1597,
  "fee": 13991,
  "status": {
    "confirmed": true,
    "block_height": 834638,
    "block_hash": "000000000000000000025f742c626208ac87e0b7d15054abb4a19ca2d735a54e",
    "block_time": 1710405325
  },
  "hex": "020000000001017bffa51b5fea2ac05b357b61a62c4e1acf4c48c0c4dc652ec114bfda4108d9da0400000000ffffffff052803000000000000160014b7c97e794134e223320361ddbd5ff4b7f8bc888e290300000000000069512102f02ed55e2a69a1eb22ddb09d1e529da763bf05a7c8e7be4d970cc465ca5bd84b2102526d029b962adae519bdddf424f7ebf3099f97e5e54a42f0eb41a9f156960f1a2102020202020202020202020202020202020202020202020202020202020202020253ae29030000000000006951210387f8b7af30d123e8550c9b089ca29baffa279da14d2373becea33b66af4c4b4f2102b649b749c3c065e296adf685c7d808b38dc416f2befffbe1d0f7494574c299552102020202020202020202020202020202020202020202020202020202020202020253aee02e00000000000016001420123e4942db45c3c5971b141304c3ff6f5c06c79b8a150000000000160014b7c97e794134e223320361ddbd5ff4b7f8bc888e024730440220024bbe18b7748e0fc463591948143f61e9e1a20df5dcc771346127f40203cbbb022050c784a276260eb20a046743dc6dd3db7dec0bd501da44365f6ca404d596ef47012102b33ab0a64462696e39065c18c6fcfc15f3c08b4b8f16d16d181846652bcaa0d200000000"
}