{
  "txid": "d76c9094e55417d0da50477b71c6afe4f2217469a006aa6f047184847d200bee",
  "version": 1,
  "locktime": 0,
  "vin": [
    {
      "txid": "3ced3d69f9dc22b865bbef1c0b5ef3a083da02b69179dddaa14b0f4cf1157a62",
      "vout": 0,
      "prevout": {
        "scriptpubkey": "a9141230946bb31ec39736e7e2e16b2b26be91b92b8387",
        "scriptpubkey_asm": "OP_HASH160 OP_PUSHBYTES_20 1230946bb31ec39736e7e2e16b2b26be91b92b83 OP_EQUAL",
        "scriptpubkey_type": "p2sh",
        "scriptpubkey_address": "33MCHNtTV5NG8oqXudrgtK3N4uRP8We26R",
        "value": 27701710
      },
      "scriptsig": "2200205e2d14758e6cbe791f00ba1674c3cfcd278aef3c38b220afc402d45dbe518155",
      "scriptsig_asm": "OP_PUSHBYTES_34 00205e2d14758e6cbe791f00ba1674c3cfcd278aef3c38b220afc402d45dbe518155",
      "witness": [
        "",
        "30440220167ad9566f456b1d1d5621a07f9453d4c3d778f1223aa69e3dcecf05f7b4ccfa02204518566cb88d08e9f659da8ab8e01b8a9f5b433da8754ba0d31a115ccbf1e25401",
        "30440220652d1c3a5f370bffea8c9917b0b4601c1f4f84a87888503bdce28fe83c53722d02205244c8e5dd916b4caf4420145b85974676c8ee2677a7e4d59def51630ae1a5d901",
        "522102d14a658fe825f35f90debac85c21c5645025f5c656a3f4efd1a3da73230f6c492102966838ad3d7362bc62873a94fc370a3f3f6d612e4a8d7ae1ac2ca67537be805f21036c68f0c6963b9e2b44fa0a5f509fd755fb57489f096dc182e8cafd923811f5302103f4e5680c5cdd878865a1bcd45fe12b327aeda43a26eb490a18d6c430e5aee6be210273635d54649be70d5225f82d8983d5cc0c8886d4dc9b0cf5089e891d68be5f7755ae"
      ],
      "is_coinbase": false,
      "sequence": 0,
      "inner_redeemscript_asm": "OP_0 OP_PUSHBYTES_32 5e2d14758e6cbe791f00ba1674c3cfcd278aef3c38b220afc402d45dbe518155",
      "inner_witnessscript_asm": "OP_PUSHNUM_2 OP_PUSHBYTES_33 02d14a658fe825f35f90debac85c21c5645025f5c656a3f4efd1a3da73230f6c49 OP_PUSHBYTES_33 02966838ad3d7362bc62873a94fc370a3f3f6d612e4a8d7ae1ac2ca67537be805f OP_PUSHBYTES_33 036c68f0c6963b9e2b44fa0a5f509fd755fb57489f096dc182e8cafd923811f530 OP_PUSHBYTES_33 03f4e5680c5cdd878865a1bcd45fe12b327aeda43a26eb490a18d6c430e5aee6be OP_PUSHBYTES_33 0273635d54649be70d5225f82d8983d5cc0c8886d4dc9b0cf5089e891d68be5f77 OP_PUSHNUM_5 OP_CHECKMULTISIG"
    },
    {
      "txid": "70b181e511cea3eac3c64d064de9f624bcfca1b54914b6c61da38cfebfbfd2d3",
      "vout": 0,
      "prevout": {
        "scriptpubkey": "a9141230946bb31ec39736e7e2e16b2b26be91b92b8387",
        "scriptpubkey_asm": "OP_HASH160 OP_PUSHBYTES_20 1230946bb31ec39736e7e2e16b2b26be91b92b83 OP_EQUAL",
        "scriptpubkey_type": "p2sh",
        "scriptpubkey_address": "33MCHNtTV5NG8oqXudrgtK3N4uRP8We26R",
        "value": 328928354
      },
      "scriptsig": "2200205e2d14758e6cbe791f00ba1674c3cfcd278aef3c38b220afc402d45dbe518155",
      "scriptsig_asm": "OP_PUSHBYTES_34 00205e2d14758e6cbe791f00ba1674c3cfcd278aef3c38b220afc402d45dbe518155",
      "witness": [
        "",
        "3044022023b3af348fe104c04155bbd92f439908027d04adb1467c01fc8d84fce1aa1ca902201654193361f9b13f8b998b5d39d29c529146945fab1c3e4d8b5b61e7cd8ef8f601",
        "304402205ca6b7d6ed84bb9d2dac69e2331b4a3b8f5fa4f59a928dfc4510f6e984a367e102204b930d354705fb5a391d4d94597fc7db3ca8c892303f3ca3b4374a26939c6b8201",
        "522102d14a658fe825f35f90debac85c21c5645025f5c656a3f4efd1a3da73230f6c492102966838ad3d7362bc62873a94fc370a3f3f6d612e4a8d7ae1ac2ca67537be805f21036c68f0c6963b9e2b44fa0a5f509fd755fb57489f096dc182e8cafd923811f5302103f4e5680c5cdd878865a1bcd45fe12b327aeda43a26eb490a18d6c430e5aee6be210273635d54649be70d5225f82d8983d5cc0c8886d4dc9b0cf5089e891d68be5f7755ae"
      ],
      "is_coinbase": false,
      "sequence": 0,
      "inner_redeemscript_asm": "OP_0 OP_PUSHBYTES_32 5e2d14758e6cbe791f00ba1674c3cfcd278aef3c38b220afc402d45dbe518155",
      "inner_witnessscript_asm": "OP_PUSHNUM_2 OP_PUSHBYTES_33 02d14a658fe825f35f90debac85c21c5645025f5c656a3f4efd1a3da73230f6c49 OP_PUSHBYTES_33 02966838ad3d7362bc62873a94fc370a3f3f6d612e4a8d7ae1ac2ca67537be805f OP_PUSHBYTES_33 036c68f0c6963b9e2b44fa0a5f509fd755fb57489f096dc182e8cafd923811f530 OP_PUSHBYTES_33 03f4e5680c5cdd878865a1bcd45fe12b327aeda43a26eb490a18d6c430e5aee6be OP_PUSHBYTES_33 0273635d54649be70d5225f82d8983d5cc0c8886d4dc9b0cf5089e891d68be5f77 OP_PUSHNUM_5 OP_CHECKMULTISIG"
    }
  ],
  "vout": [
    {
      "scriptpubkey": "a9146f3f5d277eb2e5bd9dc9ca2da7365714aed9c00b87",
      "scriptpubkey_asm": "OP_HASH160 OP_PUSHBYTES_20 6f3f5d277eb2e5bd9dc9ca2da7365714aed9c00b OP_EQUAL",
      "scriptpubkey_type": "p2sh",
      "scriptpubkey_address": "3BqEqSHXySatpwcAkTCxqqpxu14283kz8y",
      "value": 324504492
    },
    {
      "scriptpubkey": "0020f0cf4d2be51ca723aa2764f19e5771f11c71f500089864dce19846158b9d7a22",
      "scriptpubkey_asm": "OP_0 OP_PUSHBYTES_32 f0cf4d2be51ca723aa2764f19e5771f11c71f500089864dce19846158b9d7a22",
      "scriptpubkey_type": "v0_p2wsh",
      "scriptpubkey_address": "bc1q7r8562l9rjnj8238vnceu4m37yw8ragqpzvxfh8pnprptzua0g3qf8r86y",
      "value": 32114772
    }
  ],
  "size": 879,
  "weight": 1590,
  "fee": 10800,
  "status": {
    "confirmed": true,
    "block_height": 834638,
    "block_hash": "000000000000000000025f742c626208ac87e0b7d15054abb4a19ca2d735a54e",
    "block_time": 1710405325
  },
  "hex": "01000000000102627a15f14c0f4ba1dadd7991b602da83a0f35e0b1cefbb65b822dcf9693ded3c00000000232200205e2d14758e6cbe791f00ba1674c3cfcd278aef3c38b220afc402d45dbe51815500000000d3d2bfbffe8ca31dc6b61449b5a1fcbc24f6e94d064dc6c3eaa3ce11e581b17000000000232200205e2d14758e6cbe791f00ba1674c3cfcd278aef3c38b220afc402d45dbe5181550000000002ac8b57130000000017a9146f3f5d277eb2e5bd9dc9ca2da7365714aed9c00b875408ea0100000000220020f0cf4d2be51ca723aa2764f19e5771f11c71f500089864dce19846158b9d7a2204004730440220167ad9566f456b1d1d5621a07f9453d4c3d778f1223aa69e3dcecf05f7b4ccfa02204518566cb88d08e9f659da8ab8e01b8a9f5b433da8754ba0d31a115ccbf1e254014730440220652d1c3a5f370bffea8c9917b0b4601c1f4f84a87888503bdce28fe83c53722d02205244c8e5dd916b4caf4420145b85974676c8ee2677a7e4d59def51630ae1a5d901ad522102d14a658fe825f35f90debac85c21c5645025f5c656a3f4efd1a3da73230f6c492102966838ad3d7362bc62873a94fc370a3f3f6d612e4a8d7ae1ac2ca67537be805f21036c68f0c6963b9e2b44fa0a5f509fd755fb57489f096dc182e8cafd923811f5302103f4e5680c5cdd878865a1bcd45fe12b327aeda43a26eb490a18d6c430e5aee6be210273635d54649be70d5225f82d8983d5cc0c8886d4dc9b0cf5089e891d68be5f7755ae0400473044022023b3af348fe104c04155bbd92f439908027d04adb1467c01fc8d84fce1aa1ca902201654193361f9b13f8b998b5d39d29c529146945fab1c3e4d8b5b61e7cd8ef8f60147304402205ca6b7d6ed84bb9d2dac69e2331b4a3b8f5fa4f59a928dfc4510f6e984a367e102204b930d354705fb5a391d4d94597fc7db3ca8c892303f3ca3b4374a26939c6b8201ad522102d14a658fe825f35f90debac85c21c5645025f5c656a3f4efd1a3da73230f6c492102966838ad3d7362bc62873a94fc370a3f3f6d612e4a8d7ae1ac2ca67537be805f21036c68f0c6963b9e2b44fa0a5f509fd755fb57489f096dc182e8cafd923811f5302103f4e5680c5cdd878865a1bcd45fe12b327aeda43a26eb490a18d6c430e5aee6be210273635d54649be70d5225f82d8983d5cc0c8886d4dc9b0cf5089e891d68be5f7755ae00000000"
}