{
  "txid": "d770bbf2ee6a120cdbe2c40ded56a58054f4e335d9274f64126a00ed936fe6d5",
  "version": 2,
  "locktime": 0,
  "vin": [
    {
      "txid": "d6fd40cd5531209aaca762c6caf22917caba67837ab0e57d48833d77f201c407",
      "vout": 1,
      "prevout": {
        "scriptpubkey": "5120cc0cec1234ef55d60e8ba0ab40738e63f02bf578bae17cf8557265e1751f5599",
        "scriptpubkey_asm": "OP_PUSHNUM_1 OP_PUSHBYTES_32 cc0cec1234ef55d60e8ba0ab40738e63f02bf578bae17cf8557265e1751f5599",
        "scriptpubkey_type": "v1_p2tr",
        "scriptpubkey_address": "bc1pesxwcy35aa2avr5t5z45quuwv0czhatchtshe7z4wfj7zagl2kvsphsnjf",
        "value": 764833
      },
      "scriptsig": "",
      "scriptsig_asm": "",
      "witness": [
        "5120db15c456ebec6dd915e70302167f133f398db212cd75b583410a96ff23a75bbff20ff23256d234e8451ad717fc812e222fa7e913daea6cb41f2d6d4b3e25"
      ],
      "is_coinbase": false,
      "sequence": 4294967293
    }
  ],
  "vout": [
    {
      "scriptpubkey": "51202848fbb53c5d53eee322c78b46f353310aed603c6da064aa677720c8129568dc",
      "scriptpubkey_asm": "OP_PUSHNUM_1 OP_PUSHBYTES_32 2848fbb53c5d53eee322c78b46f353310aed603c6da064aa677720c8129568dc",
      "scriptpubkey_type": "v1_p2tr",
      "scriptpubkey_address": "bc1p9py0hdfut4f7acezc795du6nxy9w6cpudksxf2n8wusvsy54drwqdwta55",
      "value": 3164
    },
    {
      "scriptpubkey": "5120cc0cec1234ef55d60e8ba0ab40738e63f02bf578bae17cf8557265e1751f5599",
      "scriptpubkey_asm": "OP_PUSHNUM_1 OP_PUSHBYTES_32 cc0cec1234ef55d60e8ba0ab40738e63f02bf578bae17cf8557265e1751f5599",
      "scriptpubkey_type": "v1_p2tr",
      "scriptpubkey_address": "bc1pesxwcy35aa2avr5t5z45quuwv0czhatchtshe7z4wfj7zagl2kvsphsnjf",
      "value": 759051
    }
  ],
  "size": 205,
  "weight": 616,
  "fee": 2618,
  "status": {
    "confirmed": true,
    "block_height": 834638,
    "block_hash": "000000000000000000025f742c626208ac87e0b7d15054abb4a19ca2d735a54e",
    "block_time": 1710405325
  },
  "hex": "0200000000010107c401f2773d83487de5b07a8367baca1729f2cac662a7ac9a203155cd40fdd60100000000fdffffff025c0c0000000000002251202848fbb53c5d53eee322c78b46f353310aed603c6da064aa677720c8129568dc0b950b0000000000225120cc0cec1234ef55d60e8ba0ab40738e63f02bf578bae17cf8557265e1751f559901405120db15c456ebec6dd915e70302167f133f398db212cd75b583410a96ff23a75bbff20ff23256d234e8451ad717fc812e222fa7e913daea6cb41f2d6d4b3e2500000000"
}