{
  "txid": "d773020f9d2824a4cce3b50d8de0699498d9363f9d60297d0ea4cd7567e1ad9a",
  "version": 2,
  "locktime": 0,
  "vin": [
    {
      "txid": "e37f8a43b3857cf898ae46ed789a1f0a2c529eb9656bd5fe591ed7589c7535eb",
      "vout": 1,
      "prevout": {
        "scriptpubkey": "a914e84a7805378d4ea7a0f543a267efa09be6dcb77987",
        "scriptpubkey_asm": "OP_HASH160 OP_PUSHBYTES_20 e84a7805378d4ea7a0f543a267efa09be6dcb779 OP_EQUAL",
        "scriptpubkey_type": "p2sh",
        "scriptpubkey_address": "3NsFuEVR8K3Bra4U9W4Zi6b3L3W44vUGnB",
        "value": 9013503
      },
      "scriptsig": "160014458f497274d69274120e54082f8c242eb7217e1e",
      "scriptsig_asm": "OP_PUSHBYTES_22 0014458f497274d69274120e54082f8c242eb7217e1e",
      "witness": [
        "304402204a7637861115a8f00cf9a3f8b6e50d9d2ba74fbfaf97e577a2ebddb298e56f38022076b0dd17fcaaaa5282d074e50bc4c5f7dfd5a134ef96826934c9eb73a0b6e32c01",
        "03a442cbc28c3759d94579ec286e529d4b5066fd52e9227e446f0f0413b77caef9"
      ],
      "is_coinbase": false,
      "sequence": 4294967295,
      "inner_redeemscript_asm": "OP_0 OP_PUSHBYTES_20 458f497274d69274120e54082f8c242eb7217e1e"
    }
  ],
  "vout": [
    {
      "scriptpubkey": "0014824179d032d5fd193b34b73250c7e7c403d4891c",
      "scriptpubkey_asm": "OP_0 OP_PUSHBYTES_20 824179d032d5fd193b34b73250c7e7c403d4891c",
      "scriptpubkey_type": "v0_p2wpkh",
      "scriptpubkey_address": "bc1qsfqhn5pj6h73jwe5kue9p3l8cspafzguzfyvh4",
      "value": 110000
    },
    {
      "scriptpubkey": "76a914dec9e241d5631f0d43b0598164ca2086a790b14588ac",
      "scriptpubkey_asm": "OP_DUP OP_HASH160 OP_PUSHBYTES_20 dec9e241d5631f0d43b0598164ca2086a790b145 OP_EQUALVERIFY OP_CHECKSIG",
      "scriptpubkey_type": "p2pkh",
      "scriptpubkey_address": "1MJzrikev5abmqWC89iLuEn3aVXhEJiAUX",
      "value": 354739
    },
    {
      "scriptpubkey": "76a914059fc20edd2d3f4862c3dba0b2f5d5638fac293388ac",
      "scriptpubkey_asm": "OP_DUP OP_HASH160 OP_PUSHBYTES_20 059fc20edd2d3f4862c3dba0b2f5d5638fac2933 OP_EQUALVERIFY OP_CHECKSIG",
      "scriptpubkey_type": "p2pkh",
      "scriptpubkey_address": "1Wjm9Fmoc3gbPa1iuiXTK27GhTypyX9CC",
      "value": 1517521
    },
    {
      "scriptpubkey": "0014eebedaa0e22417e7ff079613294eff2a96d73928",
      "scriptpubkey_asm": "OP_0 OP_PUSHBYTES_20 eebedaa0e22417e7ff079613294eff2a96d73928",
      "scriptpubkey_type": "v0_p2wpkh",
      "scriptpubkey_address": "bc1qa6ld4g8zyst70lc8jcfjjnhl92tdwwfg3kt7cm",
      "value": 2059724
    },
    {
      "scriptpubkey": "0014a5979c2858bc5515c2e4f94bf2f59d0c89b1f905",
      "scriptpubkey_asm": "OP_0 OP_PUSHBYTES_20 a5979c2858bc5515c2e4f94bf2f59d0c89b1f905",
      "scriptpubkey_type": "v0_p2wpkh",
      "scriptpubkey_address": "bc1q5ktec2zch323tshyl99l9avapjymr7g9ma7fsy",
      "value": 500000
    },
    {
      "scriptpubkey": "a914600c6ed34585d18b4b07f27156a06da5add7f46187",
      "scriptpubkey_asm": "OP_HASH160 OP_PUSHBYTES_20 600c6ed34585d18b4b07f27156a06da5add7f461 OP_EQUAL",
      "scriptpubkey_type": "p2sh",
      "scriptpubkey_address": "3ASsgp8AgppVvxYwnnHAUkFJq6cT2WymGn",
      "value": 4463485
    }
  ],
  "size": 376,
  "weight": 1177,
  "fee": 8034,
  "status": {
    "confirmed": true,
    "block_height": 834638,
    "block_hash": "000000000000000000025f742c626208ac87e0b7d15054abb4a19ca2d735a54e",
    "block_time": 1710405325
  },
  "hex": "02000000000101eb35759c58d71e59fed56b65b99e522c0a1f9a78ed46ae98f87c85b3438a7fe30100000017160014458f497274d69274120e54082f8c242eb7217e1effffffff06b0ad010000000000160014824179d032d5fd193b34b73250c7e7c403d4891cb3690500000000001976a914dec9e241d5631f0d43b0598164ca2086a790b14588acd1271700000000001976a914059fc20edd2d3f4862c3dba0b2f5d5638fac293388accc6d1f0000000000160014eebedaa0e22417e7ff079613294eff2a96d7392820a1070000000000160014a5979c2858bc5515c2e4f94bf2f59d0c89b1f9057d1b44000000000017a914600c6ed34585d18b4b07f27156a06da5add7f461870247304402204a7637861115a8f00cf9a3f8b6e50d9d2ba74fbfaf97e577a2ebddb298e56f38022076b0dd17fcaaaa5282d074e50bc4c5f7dfd5a134ef96826934c9eb73a0b6e32c012103a442cbc28c3759d94579ec286e529d4b5066fd52e9227e446f0f0413b77caef900000000"
}