{
  "txid": "d774e878ef009be9b0e4b5f48602559fddea82ad860643969158582a9c418185",
  "version": 1,
  "locktime": 0,
  "vin": [
    {
      "txid": "cff675547ae350aa6eba7656df2f33044c9a0673d8928830534ef6ba6078d18d",
      "vout": 0,
      "prevout": {
        "scriptpubkey": "76a9149f21a07a0c7c3cf65a51f586051395762267cdaf88ac",
        "scriptpubkey_asm": "OP_DUP OP_HASH160 OP_PUSHBYTES_20 9f21a07a0c7c3cf65a51f586051395762267cdaf OP_EQUALVERIFY OP_CHECKSIG",
        "scriptpubkey_type": "p2pkh",
        "scriptpubkey_address": "1FWQiwK27EnGXb6BiBMRLJvunJQZZPMcGd",
        "value": 1223547
      },
      "scriptsig": "473044022064ab5f2d6622d1a27d394345f722890d519ae86bdd02d8c472edd10de67d43ac02202c5930c90542b2f8815689985de2b18994f4d658ac6d0f347da610f401b8fb0401210369e03e2c91f0badec46c9c903d9e9edae67c167b9ef9b550356ee791c9a40896",
      "scriptsig_asm": "OP_PUSHBYTES_71 3044022064ab5f2d6622d1a27d394345f722890d519ae86bdd02d8c472edd10de67d43ac02202c5930c90542b2f8815689985de2b18994f4d658ac6d0f347da610f401b8fb0401 OP_PUSHBYTES_33 0369e03e2c91f0badec46c9c903d9e9edae67c167b9ef9b550356ee791c9a40896",
      "is_coinbase": false,
      "sequence": 4294967295
    }
  ],
  "vout": [
    {
      "scriptpubkey": "76a9149f21a07a0c7c3cf65a51f586051395762267cdaf88ac",
      "scriptpubkey_asm": "OP_DUP OP_HASH160 OP_PUSHBYTES_20 9f21a07a0c7c3cf65a51f586051395762267cdaf OP_EQUALVERIFY OP_CHECKSIG",
      "scriptpubkey_type": "p2pkh",
      "scriptpubkey_address": "1FWQiwK27EnGXb6BiBMRLJvunJQZZPMcGd",
      "value": 788146
    },
    {
      "scriptpubkey": "76a9147f18c338b0afb48d9c9d7b6dea2457db220555ac88ac",
      "scriptpubkey_asm": "OP_DUP OP_HASH160 OP_PUSHBYTES_20 7f18c338b0afb48d9c9d7b6dea2457db220555ac OP_EQUALVERIFY OP_CHECKSIG",
      "scriptpubkey_type": "p2pkh",
      "scriptpubkey_address": "1Cb2Uu2L6hkkKbdcX5jhNH5mmy6Kfie5n8",
      "value": 429401
    }
  ],
  "size": 225,
  "weight": 900,
  "fee": 6000,
  "status": {
    "confirmed": true,
    "block_height": 834638,
    "block_hash": "000000000000000000025f742c626208ac87e0b7d15054abb4a19ca2d735a54e",
    "block_time": 1710405325
  },
  "hex": "01000000018dd17860baf64e53308892d873069a4c04332fdf5676ba6eaa50e37a5475f6cf000000006a473044022064ab5f2d6622d1a27d394345f722890d519ae86bdd02d8c472edd10de67d43ac02202c5930c90542b2f8815689985de2b18994f4d658ac6d0f347da610f401b8fb0401210369e03e2c91f0badec46c9c903d9e9edae67c167b9ef9b550356ee791c9a40896ffffffff02b2060c00000000001976a9149f21a07a0c7c3cf65a51f586051395762267cdaf88ac598d0600000000001976a9147f18c338b0afb48d9c9d7b6dea2457db220555ac88ac00000000"
}