{
  "txid": "d7799b876ed4d205c7417aa89f0d54574de2e2d9fdb6e6ff7e050858e17bfb82",
  "version": 2,
  "locktime": 0,
  "vin": [
    {
      "txid": "acc3ba00869acb582a3f2904ce3a11dd3779350ce234063fc7d0959246213364",
      "vout": 129,
      "prevout": {
        "scriptpubkey": "5120a690c694bc569ed5e0c481171a0cd4f7720510205380bd5f302b26fc4da8a251",
        "scriptpubkey_asm": "OP_PUSHNUM_1 OP_PUSHBYTES_32 a690c694bc569ed5e0c481171a0cd4f7720510205380bd5f302b26fc4da8a251",
        "scriptpubkey_type": "v1_p2tr",
        "scriptpubkey_address": "bc1p56gvd99u260dtcxysyt35rx57aeq2ypq2wqt6hes9vn0cndg5fgsg3ns55",
        "value": 1806
      },
      "scriptsig": "",
      "scriptsig_asm": "",
      "witness": [
        "ff5009b10900c5ae4f7a06181a1aa15c901a57993454caba1b439550c024dcf18ab85dbf5f603149a297fd1f9f22a8b3d848f502a3948469179e3d9be292bd8e",
        "20097dea9c7c9f6194d0c8ec435bb8a012384af37ac144e9360b6e4c1b854beebbac0063036f726401010a746578742f706c61696e00357b2270223a226272632d3230222c226f70223a226d696e74222c227469636b223a22646f6765222c22616d74223a2234323030227d68",
        "c0097dea9c7c9f6194d0c8ec435bb8a012384af37ac144e9360b6e4c1b854beebb"
      ],
      "is_coinbase": false,
      "sequence": 4261412863
    }
  ],
  "vout": [
    {
      "scriptpubkey": "00147a665de7a370f4c9b372ab1fae587500a5bcbdb4",
      "scriptpubkey_asm": "OP_0 OP_PUSHBYTES_20 7a665de7a370f4c9b372ab1fae587500a5bcbdb4",
      "scriptpubkey_type": "v0_p2wpkh",
      "scriptpubkey_address": "bc1q0fn9mearwr6vnvmj4v06ukr4qzjme0d565dzcx",
      "value": 294
    }
  ],
  "size": 294,
  "weight": 540,
  "fee": 1512,
  "status": {
    "confirmed": true,
    "block_height": 834460,
    "block_hash": "00000000000000000000484a79b643b2524bbce82e5d8a442013fa5b8905ed98",
    "block_time": 1710307468
  },
  "hex": "02000000000101643321469295d0c73f0634e20c357937dd113ace04293f2a58cb9a8600bac3ac8100000000fffffffd0126010000000000001600147a665de7a370f4c9b372ab1fae587500a5bcbdb40340ff5009b10900c5ae4f7a06181a1aa15c901a57993454caba1b439550c024dcf18ab85dbf5f603149a297fd1f9f22a8b3d848f502a3948469179e3d9be292bd8e6d20097dea9c7c9f6194d0c8ec435bb8a012384af37ac144e9360b6e4c1b854beebbac0063036f726401010a746578742f706c61696e00357b2270223a226272632d3230222c226f70223a226d696e74222c227469636b223a22646f6765222c22616d74223a2234323030227d6821c0097dea9c7c9f6194d0c8ec435bb8a012384af37ac144e9360b6e4c1b854beebb00000000"
}