{
  "txid": "d77af91f7c5fd7197936600222767c29ce3a09d72882e0feff808a01095adafb",
  "version": 2,
  "locktime": 0,
  "vin": [
    {
      "txid": "e09bda8df0c8cf25ce5b49121a834df5faf217c7c189832207cd0db0149f11b7",
      "vout": 1,
      "prevout": {
        "scriptpubkey": "001407d910cb875fae15d0d2cff128a10e40bbf7a11f",
        "scriptpubkey_asm": "OP_0 OP_PUSHBYTES_20 07d910cb875fae15d0d2cff128a10e40bbf7a11f",
        "scriptpubkey_type": "v0_p2wpkh",
        "scriptpubkey_address": "bc1qqlv3pju8t7hpt5xjelcj3ggwgzal0gglrcvr2q",
        "value": 1525630
      },
      "scriptsig": "",
      "scriptsig_asm": "",
      "witness": [
        "3044022036aad88b53fcf0e5bd685c5fe48e163aa3657979c077c80782239fb112fce86702201208f24f9c89c37020899112d224ac67b97a963a60550d9fce10b8338d17e95101",
        "039db329c3370a9c390c5c54edd9f8f8539aca73294e92ba8a8c64c057f2647735"
      ],
      "is_coinbase": false,
      "sequence": 4294967295
    }
  ],
  "vout": [
    {
      "scriptpubkey": "0020a681d0c400f2385d4f52b29674c8ab7fd66451594f55b3635c85fb5f766f8c81",
      "scriptpubkey_asm": "OP_0 OP_PUSHBYTES_32 a681d0c400f2385d4f52b29674c8ab7fd66451594f55b3635c85fb5f766f8c81",
      "scriptpubkey_type": "v0_p2wsh",
      "scriptpubkey_address": "bc1q56qap3qq7gu96n6jk2t8fj9t0ltxg52efa2mxc6usha47an03jqsnzgq6f",
      "value": 6609
    },
    {
      "scriptpubkey": "0014cb35d188b68eaad23b64195b2242a5520c682061",
      "scriptpubkey_asm": "OP_0 OP_PUSHBYTES_20 cb35d188b68eaad23b64195b2242a5520c682061",
      "scriptpubkey_type": "v0_p2wpkh",
      "scriptpubkey_address": "bc1qev6arz9k364dywmyr9djys492gxxsgrpshtutt",
      "value": 1516365
    }
  ],
  "size": 234,
  "weight": 609,
  "fee": 2656,
  "status": {
    "confirmed": true,
    "block_height": 834638,
    "block_hash": "000000000000000000025f742c626208ac87e0b7d15054abb4a19ca2d735a54e",
    "block_time": 1710405325
  },
  "hex": "02000000000101b7119f14b00dcd07228389c1c717f2faf54d831a12495bce25cfc8f08dda9be00100000000ffffffff02d119000000000000220020a681d0c400f2385d4f52b29674c8ab7fd66451594f55b3635c85fb5f766f8c814d23170000000000160014cb35d188b68eaad23b64195b2242a5520c68206102473044022036aad88b53fcf0e5bd685c5fe48e163aa3657979c077c80782239fb112fce86702201208f24f9c89c37020899112d224ac67b97a963a60550d9fce10b8338d17e9510121039db329c3370a9c390c5c54edd9f8f8539aca73294e92ba8a8c64c057f264773500000000"
}