{
  "txid": "d784bc7c9953087a33a594dba9797f6bbb6edf127df4d0b7bb6bc55595d3b8c1",
  "version": 2,
  "locktime": 0,
  "vin": [
    {
      "txid": "659b82bf51c32df260f3e3563d90fcbcb0098209af4d18020ca9e1a619ccc8c8",
      "vout": 11,
      "prevout": {
        "scriptpubkey": "5120dbedbd331181a2220cf5234fe0f8c43b487bae7a4511a92e3df591b89003de44",
        "scriptpubkey_asm": "OP_PUSHNUM_1 OP_PUSHBYTES_32 dbedbd331181a2220cf5234fe0f8c43b487bae7a4511a92e3df591b89003de44",
        "scriptpubkey_type": "v1_p2tr",
        "scriptpubkey_address": "bc1pm0km6vc3sx3zyr84yd87p7xy8dy8htn6g5g6jt3a7kgm3yqrmezqp6eedn",
        "value": 1931
      },
      "scriptsig": "",
      "scriptsig_asm": "",
      "witness": [
        "631e3c4d707e00e24e582652bec7756f332bd00eecde7fa2411fb81854470a7ad5ef4ee2390795a1fc73fd570ac971f73f5dafd4454c4299111945a517f49933",
        "20bce544e63ec3c6e8982ef77409bc94123f72f2a6eeac09a4a1ce9e2f9928d3f3ac0063036f726401010a746578742f706c61696e00367b2270223a226272632d3230222c226f70223a226d696e74222c227469636b223a2261616161222c22616d74223a223130303030227d68",
        "c0bce544e63ec3c6e8982ef77409bc94123f72f2a6eeac09a4a1ce9e2f9928d3f3"
      ],
      "is_coinbase": false,
      "sequence": 4261412863
    }
  ],
  "vout": [
    {
      "scriptpubkey": "0014be9f0c070a9b1bd40f5fcb06fba89738d936ceb6",
      "scriptpubkey_asm": "OP_0 OP_PUSHBYTES_20 be9f0c070a9b1bd40f5fcb06fba89738d936ceb6",
      "scriptpubkey_type": "v0_p2wpkh",
      "scriptpubkey_address": "bc1qh60scpc2nvdagr6levr0h2yh8rvndn4k4v5s9g",
      "value": 294
    }
  ],
  "size": 295,
  "weight": 541,
  "fee": 1637,
  "status": {
    "confirmed": true,
    "block_height": 834460,
    "block_hash": "00000000000000000000484a79b643b2524bbce82e5d8a442013fa5b8905ed98",
    "block_time": 1710307468
  },
  "hex": "02000000000101c8c8cc19a6e1a90c02184daf098209b0bcfc903d56e3f360f22dc351bf829b650b00000000fffffffd012601000000000000160014be9f0c070a9b1bd40f5fcb06fba89738d936ceb60340631e3c4d707e00e24e582652bec7756f332bd00eecde7fa2411fb81854470a7ad5ef4ee2390795a1fc73fd570ac971f73f5dafd4454c4299111945a517f499336e20bce544e63ec3c6e8982ef77409bc94123f72f2a6eeac09a4a1ce9e2f9928d3f3ac0063036f726401010a746578742f706c61696e00367b2270223a226272632d3230222c226f70223a226d696e74222c227469636b223a2261616161222c22616d74223a223130303030227d6821c0bce544e63ec3c6e8982ef77409bc94123f72f2a6eeac09a4a1ce9e2f9928d3f300000000"
}