{
  "txid": "d79b8abf6c1d4262ac8b06f5b1e7d5be0075e5f5ef549319cb27ff2249abe912",
  "version": 2,
  "locktime": 0,
  "vin": [
    {
      "txid": "7da3eb28adb667ba88c08b1a95e6f3090a96a88324e9ddfd67b39373460c1b4b",
      "vout": 1,
      "prevout": {
        "scriptpubkey": "5120143cf19feb559e63991742b2f99e18680d5ee1530617369753bcb0df07f212db",
        "scriptpubkey_asm": "OP_PUSHNUM_1 OP_PUSHBYTES_32 143cf19feb559e63991742b2f99e18680d5ee1530617369753bcb0df07f212db",
        "scriptpubkey_type": "v1_p2tr",
        "scriptpubkey_address": "bc1pzs70r8lt2k0x8xghg2e0n8scdqx4ac2nqctnd96nhjcd7pljztds8hzeee",
        "value": 193666
      },
      "scriptsig": "",
      "scriptsig_asm": "",
      "witness": [
        "263c077f1e35679734dab4a71da101067aac727f6f97c5ee7cae8a5e398ffa20fdd3222336bbb19cef49dceb22a4cf951ba947e6d8b4fb3cc75e0bdfa9e5ad93",
        "0063036f7264510a746578742f706c61696e000d3833343436342e6269746d617068",
        "c0338bb5b8e8c7b6c61dc4ba07b3f685a2f4d4c08d25c5ddc79984d34ac5e6b676"
      ],
      "is_coinbase": false,
      "sequence": 4294967293
    }
  ],
  "vout": [
    {
      "scriptpubkey": "001417f5382002e1cbdd6bf47e18ee867675217baa22",
      "scriptpubkey_asm": "OP_0 OP_PUSHBYTES_20 17f5382002e1cbdd6bf47e18ee867675217baa22",
      "scriptpubkey_type": "v0_p2wpkh",
      "scriptpubkey_address": "bc1qzl6nsgqzu89a66l50cvwapnkw5shh23zarqkw9",
      "value": 294
    },
    {
      "scriptpubkey": "512018840c5ac3b07353269e3e20919237de8b702ad33078fdb1e3358f3b92ab82bb",
      "scriptpubkey_asm": "OP_PUSHNUM_1 OP_PUSHBYTES_32 18840c5ac3b07353269e3e20919237de8b702ad33078fdb1e3358f3b92ab82bb",
      "scriptpubkey_type": "v1_p2tr",
      "scriptpubkey_address": "bc1przzqckkrkpe4xf578csfry3hm69hq2knxpu0mv0rxk8nhy4ts2as6glcvj",
      "value": 190732
    }
  ],
  "size": 262,
  "weight": 637,
  "fee": 2640,
  "status": {
    "confirmed": true,
    "block_height": 834464,
    "block_hash": "0000000000000000000177a0869a911a2b65c9bdcd5a8bcb02b68f305bee848e",
    "block_time": 1710308296
  },
  "hex": "020000000001014b1b0c467393b367fddde92483a8960a09f3e6951a8bc088ba67b6ad28eba37d0100000000fdffffff02260100000000000016001417f5382002e1cbdd6bf47e18ee867675217baa220ce902000000000022512018840c5ac3b07353269e3e20919237de8b702ad33078fdb1e3358f3b92ab82bb0340263c077f1e35679734dab4a71da101067aac727f6f97c5ee7cae8a5e398ffa20fdd3222336bbb19cef49dceb22a4cf951ba947e6d8b4fb3cc75e0bdfa9e5ad93220063036f7264510a746578742f706c61696e000d3833343436342e6269746d61706821c0338bb5b8e8c7b6c61dc4ba07b3f685a2f4d4c08d25c5ddc79984d34ac5e6b67600000000"
}