{
  "txid": "d7a2791bd4b91f83b028ea464ccb71471cadeb15432ba0febec6b444b762a7d7",
  "version": 2,
  "locktime": 834637,
  "vin": [
    {
      "txid": "21d13b508f722706c02828d6ed6927494df85528eb20fba2e0d37232d8d6af8c",
      "vout": 26,
      "prevout": {
        "scriptpubkey": "76a9143f4e7e5b87f3e08af506cf56ac3d98975878ee3c88ac",
        "scriptpubkey_asm": "OP_DUP OP_HASH160 OP_PUSHBYTES_20 3f4e7e5b87f3e08af506cf56ac3d98975878ee3c OP_EQUALVERIFY OP_CHECKSIG",
        "scriptpubkey_type": "p2pkh",
        "scriptpubkey_address": "16mjbv5ap8HridFzezERU1ohFoAsFLYBSj",
        "value": 139840
      },
      "scriptsig": "47304402201d5186cc47708edadbcf1023bf6d6510ebc242cc122f0262ecb0eb533619cda6022052da0777c8e9ba8935b01867468aa64467ba20c9898696a9805d3081410568c50121038a62866a0c8cbad63b243db242ab57405efec0f879503d05e446ba7d5e25d476",
      "scriptsig_asm": "OP_PUSHBYTES_71 304402201d5186cc47708edadbcf1023bf6d6510ebc242cc122f0262ecb0eb533619cda6022052da0777c8e9ba8935b01867468aa64467ba20c9898696a9805d3081410568c501 OP_PUSHBYTES_33 038a62866a0c8cbad63b243db242ab57405efec0f879503d05e446ba7d5e25d476",
      "is_coinbase": false,
      "sequence": 4294967293
    }
  ],
  "vout": [
    {
      "scriptpubkey": "76a914a444e3a3b4356e294ac3ea343346b9e28ed80f9888ac",
      "scriptpubkey_asm": "OP_DUP OP_HASH160 OP_PUSHBYTES_20 a444e3a3b4356e294ac3ea343346b9e28ed80f98 OP_EQUALVERIFY OP_CHECKSIG",
      "scriptpubkey_type": "p2pkh",
      "scriptpubkey_address": "1FyaLy5aC9zNXg4PHZTWc7C6jWzMPDuS2S",
      "value": 40728
    },
    {
      "scriptpubkey": "76a914a175396750b27d1f91eb90ba87ba52837cdd0ca188ac",
      "scriptpubkey_asm": "OP_DUP OP_HASH160 OP_PUSHBYTES_20 a175396750b27d1f91eb90ba87ba52837cdd0ca1 OP_EQUALVERIFY OP_CHECKSIG",
      "scriptpubkey_type": "p2pkh",
      "scriptpubkey_address": "1FiiDmVnF5h5nx9jDQNB1qgicnew9imsFK",
      "value": 95737
    }
  ],
  "size": 225,
  "weight": 900,
  "fee": 3375,
  "status": {
    "confirmed": true,
    "block_height": 834638,
    "block_hash": "000000000000000000025f742c626208ac87e0b7d15054abb4a19ca2d735a54e",
    "block_time": 1710405325
  },
  "hex": "02000000018cafd6d83272d3e0a2fb20eb2855f84d492769edd62828c00627728f503bd1211a0000006a47304402201d5186cc47708edadbcf1023bf6d6510ebc242cc122f0262ecb0eb533619cda6022052da0777c8e9ba8935b01867468aa64467ba20c9898696a9805d3081410568c50121038a62866a0c8cbad63b243db242ab57405efec0f879503d05e446ba7d5e25d476fdffffff02189f0000000000001976a914a444e3a3b4356e294ac3ea343346b9e28ed80f9888acf9750100000000001976a914a175396750b27d1f91eb90ba87ba52837cdd0ca188ac4dbc0c00"
}