{
  "txid": "d7a2823d5ce0ab893b34ef1114ff55dcb7dd5cb77f634a4bbbdacd23dbbd0009",
  "version": 2,
  "locktime": 0,
  "vin": [
    {
      "txid": "831f6a46e0eda8711f8ac7a525a8816be2df6607f45f1890d315af519e70ff28",
      "vout": 0,
      "prevout": {
        "scriptpubkey": "00144a38411a8df7a58324a6dd3d1e3c9c4882a77122",
        "scriptpubkey_asm": "OP_0 OP_PUSHBYTES_20 4a38411a8df7a58324a6dd3d1e3c9c4882a77122",
        "scriptpubkey_type": "v0_p2wpkh",
        "scriptpubkey_address": "bc1qfguyzx5d77jcxf9xm573u0yufzp2wufzalnuuu",
        "value": 8224
      },
      "scriptsig": "",
      "scriptsig_asm": "",
      "witness": [
        "3045022100f031f256e24461a1fa81c934b6f34c1d46c4f4a095582d80fe9a02711a6da322022037eb121aa9753e075f45ca8407b95a1a41cd91f9acfed2047e171534edd8a6ed01",
        "03a6dbe62da367221dea8dbddfa0edaaa452837a15fbe880a2146e8a713002563a"
      ],
      "is_coinbase": false,
      "sequence": 4294967293
    }
  ],
  "vout": [
    {
      "scriptpubkey": "a914037e286b42494b4cc52e30539d7992c40403517487",
      "scriptpubkey_asm": "OP_HASH160 OP_PUSHBYTES_20 037e286b42494b4cc52e30539d7992c404035174 OP_EQUAL",
      "scriptpubkey_type": "p2sh",
      "scriptpubkey_address": "321V5it2GkHUZx659Bad158Q6VNKBvUWbW",
      "value": 7004
    }
  ],
  "size": 193,
  "weight": 442,
  "fee": 1220,
  "status": {
    "confirmed": true,
    "block_height": 834464,
    "block_hash": "0000000000000000000177a0869a911a2b65c9bdcd5a8bcb02b68f305bee848e",
    "block_time": 1710308296
  },
  "hex": "0200000000010128ff709e51af15d390185ff40766dfe26b81a825a5c78a1f71a8ede0466a1f830000000000fdffffff015c1b00000000000017a914037e286b42494b4cc52e30539d7992c4040351748702483045022100f031f256e24461a1fa81c934b6f34c1d46c4f4a095582d80fe9a02711a6da322022037eb121aa9753e075f45ca8407b95a1a41cd91f9acfed2047e171534edd8a6ed012103a6dbe62da367221dea8dbddfa0edaaa452837a15fbe880a2146e8a713002563a00000000"
}