{
  "txid": "d7a432c7637caf43d37e26728ce0fa5ebd98e9d976d9b9fc59f78bceb6708809",
  "version": 2,
  "locktime": 0,
  "vin": [
    {
      "txid": "acc3ba00869acb582a3f2904ce3a11dd3779350ce234063fc7d0959246213364",
      "vout": 251,
      "prevout": {
        "scriptpubkey": "51209ad0fbffd03ff7819b1241bf37d1f460fc92d1d6aa367615a1d793807bf47a23",
        "scriptpubkey_asm": "OP_PUSHNUM_1 OP_PUSHBYTES_32 9ad0fbffd03ff7819b1241bf37d1f460fc92d1d6aa367615a1d793807bf47a23",
        "scriptpubkey_type": "v1_p2tr",
        "scriptpubkey_address": "bc1pntg0hl7s8lmcrxcjgxln0505vr7f95wk4gm8v9dp67fcq7l50g3s9ed8j5",
        "value": 1806
      },
      "scriptsig": "",
      "scriptsig_asm": "",
      "witness": [
        "80799f85277539ec33f0230ca68178e3a888ca07e4997b480b223c4bc2428d4f454071029e2819b16399ce1a1a36455c2dd5288df4bbcbbc54873794333a198c",
        "2054ecdf614a206b7a58ebaf66a5e24aa8326ac82e4e1606009d04a3ba10ff9cecac0063036f726401010a746578742f706c61696e00357b2270223a226272632d3230222c226f70223a226d696e74222c227469636b223a22646f6765222c22616d74223a2234323030227d68",
        "c154ecdf614a206b7a58ebaf66a5e24aa8326ac82e4e1606009d04a3ba10ff9cec"
      ],
      "is_coinbase": false,
      "sequence": 4261412863
    }
  ],
  "vout": [
    {
      "scriptpubkey": "00147a665de7a370f4c9b372ab1fae587500a5bcbdb4",
      "scriptpubkey_asm": "OP_0 OP_PUSHBYTES_20 7a665de7a370f4c9b372ab1fae587500a5bcbdb4",
      "scriptpubkey_type": "v0_p2wpkh",
      "scriptpubkey_address": "bc1q0fn9mearwr6vnvmj4v06ukr4qzjme0d565dzcx",
      "value": 294
    }
  ],
  "size": 294,
  "weight": 540,
  "fee": 1512,
  "status": {
    "confirmed": true,
    "block_height": 834460,
    "block_hash": "00000000000000000000484a79b643b2524bbce82e5d8a442013fa5b8905ed98",
    "block_time": 1710307468
  },
  "hex": "02000000000101643321469295d0c73f0634e20c357937dd113ace04293f2a58cb9a8600bac3acfb00000000fffffffd0126010000000000001600147a665de7a370f4c9b372ab1fae587500a5bcbdb4034080799f85277539ec33f0230ca68178e3a888ca07e4997b480b223c4bc2428d4f454071029e2819b16399ce1a1a36455c2dd5288df4bbcbbc54873794333a198c6d2054ecdf614a206b7a58ebaf66a5e24aa8326ac82e4e1606009d04a3ba10ff9cecac0063036f726401010a746578742f706c61696e00357b2270223a226272632d3230222c226f70223a226d696e74222c227469636b223a22646f6765222c22616d74223a2234323030227d6821c154ecdf614a206b7a58ebaf66a5e24aa8326ac82e4e1606009d04a3ba10ff9cec00000000"
}