{
  "txid": "d7a8297ba332ac9a518fadbe70bff80ff76686f1ccd459e92e0a2925730f0690",
  "version": 1,
  "locktime": 0,
  "vin": [
    {
      "txid": "1ceb349188ee33d495c166a9b5fc19fc4968f2b04be36683db10293b106bed8e",
      "vout": 4,
      "prevout": {
        "scriptpubkey": "51201ac51113241f7cbb4b6e75906d1274ee0fd78f89fd12bc996ed130a7a6dc6d75",
        "scriptpubkey_asm": "OP_PUSHNUM_1 OP_PUSHBYTES_32 1ac51113241f7cbb4b6e75906d1274ee0fd78f89fd12bc996ed130a7a6dc6d75",
        "scriptpubkey_type": "v1_p2tr",
        "scriptpubkey_address": "bc1prtz3zyeyra7tkjmwwkgx6yn5ac8a0rufl5ftextw6yc20fkud46sfx3uns",
        "value": 2085528
      },
      "scriptsig": "",
      "scriptsig_asm": "",
      "witness": [
        "1c98b7536f0993fa7d06b2a3f7b01cb5af5ac7f6034c1324ed9a7b8a37bac33743e92ac124cfc1ac971b696f572d753e21262e761975c8a4871edcaedd410dfa"
      ],
      "is_coinbase": false,
      "sequence": 4294967293
    },
    {
      "txid": "ebc3ac31f29194d15e81fb5b9166f10e02667ccd30131c5b00a64e978f486949",
      "vout": 2,
      "prevout": {
        "scriptpubkey": "51201ac51113241f7cbb4b6e75906d1274ee0fd78f89fd12bc996ed130a7a6dc6d75",
        "scriptpubkey_asm": "OP_PUSHNUM_1 OP_PUSHBYTES_32 1ac51113241f7cbb4b6e75906d1274ee0fd78f89fd12bc996ed130a7a6dc6d75",
        "scriptpubkey_type": "v1_p2tr",
        "scriptpubkey_address": "bc1prtz3zyeyra7tkjmwwkgx6yn5ac8a0rufl5ftextw6yc20fkud46sfx3uns",
        "value": 218719
      },
      "scriptsig": "",
      "scriptsig_asm": "",
      "witness": [
        "00cedabdb86cb80c5fea8fa31d5376716cad4094b100a0e8cbbca92e1f329eeae47ce4e827048903e57a62d1f87b7334fbaec3fb45b5109ebc60b3cca4f11955"
      ],
      "is_coinbase": false,
      "sequence": 4294967293
    }
  ],
  "vout": [
    {
      "scriptpubkey": "a91424cdba11df885d02ca287d140ef1767ed4f4f67287",
      "scriptpubkey_asm": "OP_HASH160 OP_PUSHBYTES_20 24cdba11df885d02ca287d140ef1767ed4f4f672 OP_EQUAL",
      "scriptpubkey_type": "p2sh",
      "scriptpubkey_address": "353chboBspCRu1FPWv6GESj27ddEUxCM9A",
      "value": 2301800
    }
  ],
  "size": 258,
  "weight": 630,
  "fee": 2447,
  "status": {
    "confirmed": true,
    "block_height": 834638,
    "block_hash": "000000000000000000025f742c626208ac87e0b7d15054abb4a19ca2d735a54e",
    "block_time": 1710405325
  },
  "hex": "010000000001028eed6b103b2910db8366e34bb0f26849fc19fcb5a966c195d433ee889134eb1c0400000000fdffffff4969488f974ea6005b1c1330cd7c66020ef166915bfb815ed19491f231acc3eb0200000000fdffffff01681f23000000000017a91424cdba11df885d02ca287d140ef1767ed4f4f6728701401c98b7536f0993fa7d06b2a3f7b01cb5af5ac7f6034c1324ed9a7b8a37bac33743e92ac124cfc1ac971b696f572d753e21262e761975c8a4871edcaedd410dfa014000cedabdb86cb80c5fea8fa31d5376716cad4094b100a0e8cbbca92e1f329eeae47ce4e827048903e57a62d1f87b7334fbaec3fb45b5109ebc60b3cca4f1195500000000"
}