{
  "txid": "d7b276536221b4358135ce5e3f7122f299e3e41db28550bec51800ca701252a8",
  "version": 2,
  "locktime": 0,
  "vin": [
    {
      "txid": "319994c0c0d99da9b6ddcc471514327ed0569407fb952ed24a277f1d331a9810",
      "vout": 0,
      "prevout": {
        "scriptpubkey": "51200b222b56161edd5161b5d90fb5a1258bd1e20b9e47de475aee8f0ce155874df1",
        "scriptpubkey_asm": "OP_PUSHNUM_1 OP_PUSHBYTES_32 0b222b56161edd5161b5d90fb5a1258bd1e20b9e47de475aee8f0ce155874df1",
        "scriptpubkey_type": "v1_p2tr",
        "scriptpubkey_address": "bc1ppv3zk4skrmw4zcd4my8mtgf930g7yzu7gl0ywkhw3uxwz4v8fhcsd22aw4",
        "value": 600
      },
      "scriptsig": "",
      "scriptsig_asm": "",
      "witness": [
        "74f56e297c1958d1a4e71c8e9a387b3e44a843bf3bb6dc1aa44d9df7158b957941e6044793987fce98657e24a640bc0983d5419579db6aacdc85e1fcc964c11a"
      ],
      "is_coinbase": false,
      "sequence": 4294967295
    },
    {
      "txid": "319994c0c0d99da9b6ddcc471514327ed0569407fb952ed24a277f1d331a9810",
      "vout": 1,
      "prevout": {
        "scriptpubkey": "51200b222b56161edd5161b5d90fb5a1258bd1e20b9e47de475aee8f0ce155874df1",
        "scriptpubkey_asm": "OP_PUSHNUM_1 OP_PUSHBYTES_32 0b222b56161edd5161b5d90fb5a1258bd1e20b9e47de475aee8f0ce155874df1",
        "scriptpubkey_type": "v1_p2tr",
        "scriptpubkey_address": "bc1ppv3zk4skrmw4zcd4my8mtgf930g7yzu7gl0ywkhw3uxwz4v8fhcsd22aw4",
        "value": 600
      },
      "scriptsig": "",
      "scriptsig_asm": "",
      "witness": [
        "f91cd8033ed011ea48c0fc2ce95f13d31fc5d562bb7fc6037de2f8b6988ea0f1791ef849a8952f47869770bf1ede13058a6c10a84e7b13918748f420c92ad21d"
      ],
      "is_coinbase": false,
      "sequence": 4294967295
    },
    {
      "txid": "003ea3431f4699d8e04b1477853ddb8b152ea5a9a56700fe4f5320e32e284b06",
      "vout": 0,
      "prevout": {
        "scriptpubkey": "512010e66caf4a75cc93b4bc218d8a94e348ab771757149c92e410cd01e4a4279ee7",
        "scriptpubkey_asm": "OP_PUSHNUM_1 OP_PUSHBYTES_32 10e66caf4a75cc93b4bc218d8a94e348ab771757149c92e410cd01e4a4279ee7",
        "scriptpubkey_type": "v1_p2tr",
        "scriptpubkey_address": "bc1pzrnxet62whxf8d9uyxxc498rfz4hw96hzjwf9eqse5q7ffp8nmns0vlff2",
        "value": 546
      },
      "scriptsig": "",
      "scriptsig_asm": "",
      "witness": [
        "008ae77b2194e8fc92e6a113c44d51655dde30cd409694d1bda33f79becfcb568dc73ee3a58f4cacefcb3e302005bab894377061cec2268291842d5e9539fa5583"
      ],
      "is_coinbase": false,
      "sequence": 4294967295
    },
    {
      "txid": "319994c0c0d99da9b6ddcc471514327ed0569407fb952ed24a277f1d331a9810",
      "vout": 2,
      "prevout": {
        "scriptpubkey": "51200b222b56161edd5161b5d90fb5a1258bd1e20b9e47de475aee8f0ce155874df1",
        "scriptpubkey_asm": "OP_PUSHNUM_1 OP_PUSHBYTES_32 0b222b56161edd5161b5d90fb5a1258bd1e20b9e47de475aee8f0ce155874df1",
        "scriptpubkey_type": "v1_p2tr",
        "scriptpubkey_address": "bc1ppv3zk4skrmw4zcd4my8mtgf930g7yzu7gl0ywkhw3uxwz4v8fhcsd22aw4",
        "value": 3116239
      },
      "scriptsig": "",
      "scriptsig_asm": "",
      "witness": [
        "72b51bd36c4cd846a6d3b5a7586d8cea898d9aac2b2df3315cfa3746a42295c4dc2a2fa166f128bbda339c912895b51af5b0924afb7341cb298f628f85641274"
      ],
      "is_coinbase": false,
      "sequence": 4294967295
    }
  ],
  "vout": [
    {
      "scriptpubkey": "51200b222b56161edd5161b5d90fb5a1258bd1e20b9e47de475aee8f0ce155874df1",
      "scriptpubkey_asm": "OP_PUSHNUM_1 OP_PUSHBYTES_32 0b222b56161edd5161b5d90fb5a1258bd1e20b9e47de475aee8f0ce155874df1",
      "scriptpubkey_type": "v1_p2tr",
      "scriptpubkey_address": "bc1ppv3zk4skrmw4zcd4my8mtgf930g7yzu7gl0ywkhw3uxwz4v8fhcsd22aw4",
      "value": 1200
    },
    {
      "scriptpubkey": "51200b222b56161edd5161b5d90fb5a1258bd1e20b9e47de475aee8f0ce155874df1",
      "scriptpubkey_asm": "OP_PUSHNUM_1 OP_PUSHBYTES_32 0b222b56161edd5161b5d90fb5a1258bd1e20b9e47de475aee8f0ce155874df1",
      "scriptpubkey_type": "v1_p2tr",
      "scriptpubkey_address": "bc1ppv3zk4skrmw4zcd4my8mtgf930g7yzu7gl0ywkhw3uxwz4v8fhcsd22aw4",
      "value": 546
    },
    {
      "scriptpubkey": "512010e66caf4a75cc93b4bc218d8a94e348ab771757149c92e410cd01e4a4279ee7",
      "scriptpubkey_asm": "OP_PUSHNUM_1 OP_PUSHBYTES_32 10e66caf4a75cc93b4bc218d8a94e348ab771757149c92e410cd01e4a4279ee7",
      "scriptpubkey_type": "v1_p2tr",
      "scriptpubkey_address": "bc1pzrnxet62whxf8d9uyxxc498rfz4hw96hzjwf9eqse5q7ffp8nmns0vlff2",
      "value": 3000444
    },
    {
      "scriptpubkey": "51200b222b56161edd5161b5d90fb5a1258bd1e20b9e47de475aee8f0ce155874df1",
      "scriptpubkey_asm": "OP_PUSHNUM_1 OP_PUSHBYTES_32 0b222b56161edd5161b5d90fb5a1258bd1e20b9e47de475aee8f0ce155874df1",
      "scriptpubkey_type": "v1_p2tr",
      "scriptpubkey_address": "bc1ppv3zk4skrmw4zcd4my8mtgf930g7yzu7gl0ywkhw3uxwz4v8fhcsd22aw4",
      "value": 600
    },
    {
      "scriptpubkey": "51200b222b56161edd5161b5d90fb5a1258bd1e20b9e47de475aee8f0ce155874df1",
      "scriptpubkey_asm": "OP_PUSHNUM_1 OP_PUSHBYTES_32 0b222b56161edd5161b5d90fb5a1258bd1e20b9e47de475aee8f0ce155874df1",
      "scriptpubkey_type": "v1_p2tr",
      "scriptpubkey_address": "bc1ppv3zk4skrmw4zcd4my8mtgf930g7yzu7gl0ywkhw3uxwz4v8fhcsd22aw4",
      "value": 600
    },
    {
      "scriptpubkey": "51200b222b56161edd5161b5d90fb5a1258bd1e20b9e47de475aee8f0ce155874df1",
      "scriptpubkey_asm": "OP_PUSHNUM_1 OP_PUSHBYTES_32 0b222b56161edd5161b5d90fb5a1258bd1e20b9e47de475aee8f0ce155874df1",
      "scriptpubkey_type": "v1_p2tr",
      "scriptpubkey_address": "bc1ppv3zk4skrmw4zcd4my8mtgf930g7yzu7gl0ywkhw3uxwz4v8fhcsd22aw4",
      "value": 108108
    }
  ],
  "size": 699,
  "weight": 1995,
  "fee": 6487,
  "status": {
    "confirmed": true,
    "block_height": 834464,
    "block_hash": "0000000000000000000177a0869a911a2b65c9bdcd5a8bcb02b68f305bee848e",
    "block_time": 1710308296
  },
  "hex": "0200000000010410981a331d7f274ad22e95fb079456d07e32141547ccddb6a99dd9c0c09499310000000000ffffffff10981a331d7f274ad22e95fb079456d07e32141547ccddb6a99dd9c0c09499310100000000ffffffff064b282ee320534ffe0067a5a9a52e158bdb3d8577144be0d899461f43a33e000000000000ffffffff10981a331d7f274ad22e95fb079456d07e32141547ccddb6a99dd9c0c09499310200000000ffffffff06b0040000000000002251200b222b56161edd5161b5d90fb5a1258bd1e20b9e47de475aee8f0ce155874df122020000000000002251200b222b56161edd5161b5d90fb5a1258bd1e20b9e47de475aee8f0ce155874df17cc82d000000000022512010e66caf4a75cc93b4bc218d8a94e348ab771757149c92e410cd01e4a4279ee758020000000000002251200b222b56161edd5161b5d90fb5a1258bd1e20b9e47de475aee8f0ce155874df158020000000000002251200b222b56161edd5161b5d90fb5a1258bd1e20b9e47de475aee8f0ce155874df14ca60100000000002251200b222b56161edd5161b5d90fb5a1258bd1e20b9e47de475aee8f0ce155874df1014074f56e297c1958d1a4e71c8e9a387b3e44a843bf3bb6dc1aa44d9df7158b957941e6044793987fce98657e24a640bc0983d5419579db6aacdc85e1fcc964c11a0140f91cd8033ed011ea48c0fc2ce95f13d31fc5d562bb7fc6037de2f8b6988ea0f1791ef849a8952f47869770bf1ede13058a6c10a84e7b13918748f420c92ad21d0141008ae77b2194e8fc92e6a113c44d51655dde30cd409694d1bda33f79becfcb568dc73ee3a58f4cacefcb3e302005bab894377061cec2268291842d5e9539fa5583014072b51bd36c4cd846a6d3b5a7586d8cea898d9aac2b2df3315cfa3746a42295c4dc2a2fa166f128bbda339c912895b51af5b0924afb7341cb298f628f8564127400000000"
}