{
  "txid": "d7b5298b43134000fc6a3af59080f9f929a35020c3c9251ae02094a9145f7af2",
  "version": 2,
  "locktime": 0,
  "vin": [
    {
      "txid": "663bf4e9ca64ed17d4dcd2f0b9565b4ad4cb0c0b3934deb78306943a0fb391fd",
      "vout": 1,
      "prevout": {
        "scriptpubkey": "a91476ed074bd093e07efe0cff187ecc87fca1057c8b87",
        "scriptpubkey_asm": "OP_HASH160 OP_PUSHBYTES_20 76ed074bd093e07efe0cff187ecc87fca1057c8b OP_EQUAL",
        "scriptpubkey_type": "p2sh",
        "scriptpubkey_address": "3CXqcD4Gn6nk9e9rGyEH1aAhJGzcj6Ur3B",
        "value": 1303800
      },
      "scriptsig": "160014332ee0a0dc546fc319a59e7fa37813a65feda70f",
      "scriptsig_asm": "OP_PUSHBYTES_22 0014332ee0a0dc546fc319a59e7fa37813a65feda70f",
      "witness": [
        "30440220190367a46978c18b4221869137e9385b73a4d1101a812aadb2fcbb0a77640a1002202983040978a3b591026e651dbcf607a300bb0af88299dac14fcbad83cf9c3ab401",
        "0366dd3c1eb9e6bc34f1f7c66b5841acf7b9d1e21c90009bee7125c18ec9996336"
      ],
      "is_coinbase": false,
      "sequence": 4294967293,
      "inner_redeemscript_asm": "OP_0 OP_PUSHBYTES_20 332ee0a0dc546fc319a59e7fa37813a65feda70f"
    }
  ],
  "vout": [
    {
      "scriptpubkey": "a914b67b62e3dfdea69f5307b94a87ca7502a9ce125b87",
      "scriptpubkey_asm": "OP_HASH160 OP_PUSHBYTES_20 b67b62e3dfdea69f5307b94a87ca7502a9ce125b OP_EQUAL",
      "scriptpubkey_type": "p2sh",
      "scriptpubkey_address": "3JKtiVB8SxkuvMYSchhaT6fjdSD6F3bUo7",
      "value": 247839
    },
    {
      "scriptpubkey": "a91476ed074bd093e07efe0cff187ecc87fca1057c8b87",
      "scriptpubkey_asm": "OP_HASH160 OP_PUSHBYTES_20 76ed074bd093e07efe0cff187ecc87fca1057c8b OP_EQUAL",
      "scriptpubkey_type": "p2sh",
      "scriptpubkey_address": "3CXqcD4Gn6nk9e9rGyEH1aAhJGzcj6Ur3B",
      "value": 1053637
    }
  ],
  "size": 247,
  "weight": 661,
  "fee": 2324,
  "status": {
    "confirmed": true,
    "block_height": 834638,
    "block_hash": "000000000000000000025f742c626208ac87e0b7d15054abb4a19ca2d735a54e",
    "block_time": 1710405325
  },
  "hex": "02000000000101fd91b30f3a940683b7de34390b0ccbd44a5b56b9f0d2dcd417ed64cae9f43b660100000017160014332ee0a0dc546fc319a59e7fa37813a65feda70ffdffffff021fc803000000000017a914b67b62e3dfdea69f5307b94a87ca7502a9ce125b87c51310000000000017a91476ed074bd093e07efe0cff187ecc87fca1057c8b87024730440220190367a46978c18b4221869137e9385b73a4d1101a812aadb2fcbb0a77640a1002202983040978a3b591026e651dbcf607a300bb0af88299dac14fcbad83cf9c3ab401210366dd3c1eb9e6bc34f1f7c66b5841acf7b9d1e21c90009bee7125c18ec999633600000000"
}