{
  "txid": "d7bb952d73cce047178953c242bf0445362188901f2c855ea47cb9736589c848",
  "version": 1,
  "locktime": 0,
  "vin": [
    {
      "txid": "008d220beba4c458a560083014a9eb1ecec0b4bda090994984f78c1e1b45c309",
      "vout": 1,
      "prevout": {
        "scriptpubkey": "76a914bc8250c4a96d78a172360b32fed8bf22475e182d88ac",
        "scriptpubkey_asm": "OP_DUP OP_HASH160 OP_PUSHBYTES_20 bc8250c4a96d78a172360b32fed8bf22475e182d OP_EQUALVERIFY OP_CHECKSIG",
        "scriptpubkey_type": "p2pkh",
        "scriptpubkey_address": "1JBk9YYWz2Kntmq3HMwLRVfd8qqf5QC76h",
        "value": 2456
      },
      "scriptsig": "483045022100e9a092ffc1c805b5261e4913ea1ea9c44ae5e49248e92627f82e4e286b41b93f022009bc6d6ed9898cf7f7cfa8e153e0014c9f276b3d06ce90537024b526070a9d1b012103b66c2dc49fede6cd394075916b6ec2a6cdf3bc3a64fd216d908bb2e13161c583",
      "scriptsig_asm": "OP_PUSHBYTES_72 3045022100e9a092ffc1c805b5261e4913ea1ea9c44ae5e49248e92627f82e4e286b41b93f022009bc6d6ed9898cf7f7cfa8e153e0014c9f276b3d06ce90537024b526070a9d1b01 OP_PUSHBYTES_33 03b66c2dc49fede6cd394075916b6ec2a6cdf3bc3a64fd216d908bb2e13161c583",
      "is_coinbase": false,
      "sequence": 4294967295
    },
    {
      "txid": "5489f1d0ab8a12dea0b3da387769491df579497806b8f213a33fd1dbc55d1206",
      "vout": 1,
      "prevout": {
        "scriptpubkey": "76a914d64547cedbe9dfd7234acdff2a5b9b78e015bf6c88ac",
        "scriptpubkey_asm": "OP_DUP OP_HASH160 OP_PUSHBYTES_20 d64547cedbe9dfd7234acdff2a5b9b78e015bf6c OP_EQUALVERIFY OP_CHECKSIG",
        "scriptpubkey_type": "p2pkh",
        "scriptpubkey_address": "1LXxbkE2TTG8x2TmJ8QPCmZYFdXnHKkVyS",
        "value": 2690
      },
      "scriptsig": "483045022100d7b4caf66edf4e8dde9dc07abc3868b7f07e5a2cf2acda82bb308cfbe6c6cd840220019ce9226ec5dd7e3fc687d008014e34d5f69acf8e9cc96f8254b6e81fa4cd3301210326957fd6eeeebf7b3d24051346aedb525531c5a00cb45899533baf430771bcc3",
      "scriptsig_asm": "OP_PUSHBYTES_72 3045022100d7b4caf66edf4e8dde9dc07abc3868b7f07e5a2cf2acda82bb308cfbe6c6cd840220019ce9226ec5dd7e3fc687d008014e34d5f69acf8e9cc96f8254b6e81fa4cd3301 OP_PUSHBYTES_33 0326957fd6eeeebf7b3d24051346aedb525531c5a00cb45899533baf430771bcc3",
      "is_coinbase": false,
      "sequence": 4294967295
    }
  ],
  "vout": [
    {
      "scriptpubkey": "0014c2c226a4540458141d93ca326578af6fad580267",
      "scriptpubkey_asm": "OP_0 OP_PUSHBYTES_20 c2c226a4540458141d93ca326578af6fad580267",
      "scriptpubkey_type": "v0_p2wpkh",
      "scriptpubkey_address": "bc1qctpzdfz5q3vpg8vnegex2790d7k4sqn8zc9d05",
      "value": 1500
    }
  ],
  "size": 337,
  "weight": 1348,
  "fee": 3646,
  "status": {
    "confirmed": true,
    "block_height": 834464,
    "block_hash": "0000000000000000000177a0869a911a2b65c9bdcd5a8bcb02b68f305bee848e",
    "block_time": 1710308296
  },
  "hex": "010000000209c3451b1e8cf784499990a0bdb4c0ce1eeba914300860a558c4a4eb0b228d00010000006b483045022100e9a092ffc1c805b5261e4913ea1ea9c44ae5e49248e92627f82e4e286b41b93f022009bc6d6ed9898cf7f7cfa8e153e0014c9f276b3d06ce90537024b526070a9d1b012103b66c2dc49fede6cd394075916b6ec2a6cdf3bc3a64fd216d908bb2e13161c583ffffffff06125dc5dbd13fa313f2b806784979f51d49697738dab3a0de128aabd0f18954010000006b483045022100d7b4caf66edf4e8dde9dc07abc3868b7f07e5a2cf2acda82bb308cfbe6c6cd840220019ce9226ec5dd7e3fc687d008014e34d5f69acf8e9cc96f8254b6e81fa4cd3301210326957fd6eeeebf7b3d24051346aedb525531c5a00cb45899533baf430771bcc3ffffffff01dc05000000000000160014c2c226a4540458141d93ca326578af6fad58026700000000"
}