{
  "txid": "d7bf714c8bc5dc285e4c5555c9563c5ee1c857863ad8810773392a05e249364e",
  "version": 2,
  "locktime": 0,
  "vin": [
    {
      "txid": "95cf94cc580e0fe8fb3bf035421c29d6238ac466eea8c0211872e198aec3e5cd",
      "vout": 9,
      "prevout": {
        "scriptpubkey": "512097eefd1ae4bc83926fcf10fba0c37edb9783abfab70e28de5f63d1ec862cfefd",
        "scriptpubkey_asm": "OP_PUSHNUM_1 OP_PUSHBYTES_32 97eefd1ae4bc83926fcf10fba0c37edb9783abfab70e28de5f63d1ec862cfefd",
        "scriptpubkey_type": "v1_p2tr",
        "scriptpubkey_address": "bc1pjlh06xhyhjpeym70zra6psm7mwtc82l6ku8z3hjlv0g7ep3vlm7sx4udz7",
        "value": 546
      },
      "scriptsig": "",
      "scriptsig_asm": "",
      "witness": [
        "8dbac42f8131c53d3eb7ebedc6ff5c1bbfb1f712f2812447e355c39249eccbcc6bb69bbe00e280d9556618eb3190f4161c18414bff1148005cc152cfdda96bc8"
      ],
      "is_coinbase": false,
      "sequence": 4294967293
    },
    {
      "txid": "be81476b07ac2d717786b3adecda3878effd0f7b5c3379ddaa0fcb4ca5f0b715",
      "vout": 1,
      "prevout": {
        "scriptpubkey": "512097eefd1ae4bc83926fcf10fba0c37edb9783abfab70e28de5f63d1ec862cfefd",
        "scriptpubkey_asm": "OP_PUSHNUM_1 OP_PUSHBYTES_32 97eefd1ae4bc83926fcf10fba0c37edb9783abfab70e28de5f63d1ec862cfefd",
        "scriptpubkey_type": "v1_p2tr",
        "scriptpubkey_address": "bc1pjlh06xhyhjpeym70zra6psm7mwtc82l6ku8z3hjlv0g7ep3vlm7sx4udz7",
        "value": 388336
      },
      "scriptsig": "",
      "scriptsig_asm": "",
      "witness": [
        "0ada67978f99a9b524e4e6dd9afdad0188ca446b1c1f23ce31b18d39f07042afdf219e33e81f320f2c9dd76ac168af9e04c5eefda74675f4b3ad302a8c14ae98"
      ],
      "is_coinbase": false,
      "sequence": 4294967293
    }
  ],
  "vout": [
    {
      "scriptpubkey": "0014aa130be402f7fea7350974aeafd2f71d6845e2b9",
      "scriptpubkey_asm": "OP_0 OP_PUSHBYTES_20 aa130be402f7fea7350974aeafd2f71d6845e2b9",
      "scriptpubkey_type": "v0_p2wpkh",
      "scriptpubkey_address": "bc1q4gfsheqz7ll2wdgfwjh2l5hhr45ytc4ekgxaex",
      "value": 546
    },
    {
      "scriptpubkey": "0014fb7a185fc47428a9992c09f70c6add47a5c19223",
      "scriptpubkey_asm": "OP_0 OP_PUSHBYTES_20 fb7a185fc47428a9992c09f70c6add47a5c19223",
      "scriptpubkey_type": "v0_p2wpkh",
      "scriptpubkey_address": "bc1qldapsh7yws52nxfvp8msc6kag7jury3rxrw4dm",
      "value": 30000
    },
    {
      "scriptpubkey": "512097eefd1ae4bc83926fcf10fba0c37edb9783abfab70e28de5f63d1ec862cfefd",
      "scriptpubkey_asm": "OP_PUSHNUM_1 OP_PUSHBYTES_32 97eefd1ae4bc83926fcf10fba0c37edb9783abfab70e28de5f63d1ec862cfefd",
      "scriptpubkey_type": "v1_p2tr",
      "scriptpubkey_address": "bc1pjlh06xhyhjpeym70zra6psm7mwtc82l6ku8z3hjlv0g7ep3vlm7sx4udz7",
      "value": 353890
    }
  ],
  "size": 331,
  "weight": 922,
  "fee": 4446,
  "status": {
    "confirmed": true,
    "block_height": 834552,
    "block_hash": "00000000000000000001dd0468a70c94f619251d286585cff57aeb4bd9ede330",
    "block_time": 1710355598
  },
  "hex": "02000000000102cde5c3ae98e1721821c0a8ee66c48a23d6291c4235f03bfbe80f0e58cc94cf950900000000fdffffff15b7f0a54ccb0faadd79335c7b0ffdef7838daecadb38677712dac076b4781be0100000000fdffffff032202000000000000160014aa130be402f7fea7350974aeafd2f71d6845e2b93075000000000000160014fb7a185fc47428a9992c09f70c6add47a5c19223626605000000000022512097eefd1ae4bc83926fcf10fba0c37edb9783abfab70e28de5f63d1ec862cfefd01408dbac42f8131c53d3eb7ebedc6ff5c1bbfb1f712f2812447e355c39249eccbcc6bb69bbe00e280d9556618eb3190f4161c18414bff1148005cc152cfdda96bc801400ada67978f99a9b524e4e6dd9afdad0188ca446b1c1f23ce31b18d39f07042afdf219e33e81f320f2c9dd76ac168af9e04c5eefda74675f4b3ad302a8c14ae9800000000"
}