{
  "txid": "d7c45fba692bf57f0a9c5f7241d6a71fb55789caadd9bd024625f2bd480f9f43",
  "version": 2,
  "locktime": 0,
  "vin": [
    {
      "txid": "f5c01e6c59447386f4c5c3bdfb1cd97010d2261c0ed02e941a7b52f10fa2d8ed",
      "vout": 5,
      "prevout": {
        "scriptpubkey": "5120ee5da5a9ef8f5dcc038701ffcbb83309f20b24843d3d305a6f4772c37e35915d",
        "scriptpubkey_asm": "OP_PUSHNUM_1 OP_PUSHBYTES_32 ee5da5a9ef8f5dcc038701ffcbb83309f20b24843d3d305a6f4772c37e35915d",
        "scriptpubkey_type": "v1_p2tr",
        "scriptpubkey_address": "bc1paew6t2003awucqu8q8luhwpnp8eqkfyy857nqkn0gaevxl34j9wsg88prv",
        "value": 600
      },
      "scriptsig": "",
      "scriptsig_asm": "",
      "witness": [
        "b1935f47539469fb3b239c6daa2da347fb14b4c7c0191a1c3b04dde33e590f0e73fc2f5a10c0140fcb1ba1ebf3ede4b91ae66725a368ca624b44e39838af3a96"
      ],
      "is_coinbase": false,
      "sequence": 4294967295
    },
    {
      "txid": "f5c01e6c59447386f4c5c3bdfb1cd97010d2261c0ed02e941a7b52f10fa2d8ed",
      "vout": 4,
      "prevout": {
        "scriptpubkey": "5120ee5da5a9ef8f5dcc038701ffcbb83309f20b24843d3d305a6f4772c37e35915d",
        "scriptpubkey_asm": "OP_PUSHNUM_1 OP_PUSHBYTES_32 ee5da5a9ef8f5dcc038701ffcbb83309f20b24843d3d305a6f4772c37e35915d",
        "scriptpubkey_type": "v1_p2tr",
        "scriptpubkey_address": "bc1paew6t2003awucqu8q8luhwpnp8eqkfyy857nqkn0gaevxl34j9wsg88prv",
        "value": 600
      },
      "scriptsig": "",
      "scriptsig_asm": "",
      "witness": [
        "f47ecbc7037cc116925f3bcc38934acc3ee84adc1548e9268d569af66f09eb4cba913eca68626bced92d5b1643b159217c395c881972a3ce096b2449f9810be6"
      ],
      "is_coinbase": false,
      "sequence": 4294967295
    },
    {
      "txid": "3d6e5b837deb5d5945a60309b04d0e70c25aa802890e447bc0ee5f4f631549d1",
      "vout": 0,
      "prevout": {
        "scriptpubkey": "51205edf08475a0bd16cc9d1fb1d235d86e2942e8eb47d80e09ac06d6b026c1f86a3",
        "scriptpubkey_asm": "OP_PUSHNUM_1 OP_PUSHBYTES_32 5edf08475a0bd16cc9d1fb1d235d86e2942e8eb47d80e09ac06d6b026c1f86a3",
        "scriptpubkey_type": "v1_p2tr",
        "scriptpubkey_address": "bc1ptm0ss366p0gkejw3lvwjxhvxu22zar450kqwpxkqd44symqls63s99lmhg",
        "value": 546
      },
      "scriptsig": "",
      "scriptsig_asm": "",
      "witness": [
        "6cbd3de80546f419d4ee3344c07724879f759092b6aeea6a81700e0cb9c92c662133f20199cff9fba0cffa05194ded69ea6056527476e01d20fc6ff1cbcdb8aa83"
      ],
      "is_coinbase": false,
      "sequence": 4294967295
    },
    {
      "txid": "4768897b3686460246d6eaecb919b9c1bab3aba72a34de08840e0b1a7bba059c",
      "vout": 4,
      "prevout": {
        "scriptpubkey": "5120ee5da5a9ef8f5dcc038701ffcbb83309f20b24843d3d305a6f4772c37e35915d",
        "scriptpubkey_asm": "OP_PUSHNUM_1 OP_PUSHBYTES_32 ee5da5a9ef8f5dcc038701ffcbb83309f20b24843d3d305a6f4772c37e35915d",
        "scriptpubkey_type": "v1_p2tr",
        "scriptpubkey_address": "bc1paew6t2003awucqu8q8luhwpnp8eqkfyy857nqkn0gaevxl34j9wsg88prv",
        "value": 1239000
      },
      "scriptsig": "",
      "scriptsig_asm": "",
      "witness": [
        "58d45d02567509e8880d97dba380a40b2fcc9304e2596397e122825aaa46809c5ddd8f330f7aa21a816d8d283b64f035d2ec16bc7b85c10a6419be901148353e"
      ],
      "is_coinbase": false,
      "sequence": 4294967295
    }
  ],
  "vout": [
    {
      "scriptpubkey": "5120ee5da5a9ef8f5dcc038701ffcbb83309f20b24843d3d305a6f4772c37e35915d",
      "scriptpubkey_asm": "OP_PUSHNUM_1 OP_PUSHBYTES_32 ee5da5a9ef8f5dcc038701ffcbb83309f20b24843d3d305a6f4772c37e35915d",
      "scriptpubkey_type": "v1_p2tr",
      "scriptpubkey_address": "bc1paew6t2003awucqu8q8luhwpnp8eqkfyy857nqkn0gaevxl34j9wsg88prv",
      "value": 1200
    },
    {
      "scriptpubkey": "5120ee5da5a9ef8f5dcc038701ffcbb83309f20b24843d3d305a6f4772c37e35915d",
      "scriptpubkey_asm": "OP_PUSHNUM_1 OP_PUSHBYTES_32 ee5da5a9ef8f5dcc038701ffcbb83309f20b24843d3d305a6f4772c37e35915d",
      "scriptpubkey_type": "v1_p2tr",
      "scriptpubkey_address": "bc1paew6t2003awucqu8q8luhwpnp8eqkfyy857nqkn0gaevxl34j9wsg88prv",
      "value": 546
    },
    {
      "scriptpubkey": "a9140008b4a09d759cbd4ef40951518df2a0f9b9b00c87",
      "scriptpubkey_asm": "OP_HASH160 OP_PUSHBYTES_20 0008b4a09d759cbd4ef40951518df2a0f9b9b00c OP_EQUAL",
      "scriptpubkey_type": "p2sh",
      "scriptpubkey_address": "31hCMRBcRHZjX11tJRchw65ZhrDDbZYEhx",
      "value": 697046
    },
    {
      "scriptpubkey": "a914ea6b832a05c6ca578baa3836f3f25553d41068a587",
      "scriptpubkey_asm": "OP_HASH160 OP_PUSHBYTES_20 ea6b832a05c6ca578baa3836f3f25553d41068a5 OP_EQUAL",
      "scriptpubkey_type": "p2sh",
      "scriptpubkey_address": "3P4WqXDbSLRhzo2H6MT6YFbvBKBDPLbVtQ",
      "value": 17500
    },
    {
      "scriptpubkey": "5120ee5da5a9ef8f5dcc038701ffcbb83309f20b24843d3d305a6f4772c37e35915d",
      "scriptpubkey_asm": "OP_PUSHNUM_1 OP_PUSHBYTES_32 ee5da5a9ef8f5dcc038701ffcbb83309f20b24843d3d305a6f4772c37e35915d",
      "scriptpubkey_type": "v1_p2tr",
      "scriptpubkey_address": "bc1paew6t2003awucqu8q8luhwpnp8eqkfyy857nqkn0gaevxl34j9wsg88prv",
      "value": 600
    },
    {
      "scriptpubkey": "5120ee5da5a9ef8f5dcc038701ffcbb83309f20b24843d3d305a6f4772c37e35915d",
      "scriptpubkey_asm": "OP_PUSHNUM_1 OP_PUSHBYTES_32 ee5da5a9ef8f5dcc038701ffcbb83309f20b24843d3d305a6f4772c37e35915d",
      "scriptpubkey_type": "v1_p2tr",
      "scriptpubkey_address": "bc1paew6t2003awucqu8q8luhwpnp8eqkfyy857nqkn0gaevxl34j9wsg88prv",
      "value": 600
    },
    {
      "scriptpubkey": "5120ee5da5a9ef8f5dcc038701ffcbb83309f20b24843d3d305a6f4772c37e35915d",
      "scriptpubkey_asm": "OP_PUSHNUM_1 OP_PUSHBYTES_32 ee5da5a9ef8f5dcc038701ffcbb83309f20b24843d3d305a6f4772c37e35915d",
      "scriptpubkey_type": "v1_p2tr",
      "scriptpubkey_address": "bc1paew6t2003awucqu8q8luhwpnp8eqkfyy857nqkn0gaevxl34j9wsg88prv",
      "value": 514397
    }
  ],
  "size": 720,
  "weight": 2079,
  "fee": 8857,
  "status": {
    "confirmed": true,
    "block_height": 834638,
    "block_hash": "000000000000000000025f742c626208ac87e0b7d15054abb4a19ca2d735a54e",
    "block_time": 1710405325
  },
  "hex": "02000000000104edd8a20ff1527b1a942ed00e1c26d21070d91cfbbdc3c5f4867344596c1ec0f50500000000ffffffffedd8a20ff1527b1a942ed00e1c26d21070d91cfbbdc3c5f4867344596c1ec0f50400000000ffffffffd14915634f5feec07b440e8902a85ac2700e4db00903a645595deb7d835b6e3d0000000000ffffffff9c05ba7b1a0b0e8408de342aa7abb3bac1b919b9ecead646024686367b8968470400000000ffffffff07b004000000000000225120ee5da5a9ef8f5dcc038701ffcbb83309f20b24843d3d305a6f4772c37e35915d2202000000000000225120ee5da5a9ef8f5dcc038701ffcbb83309f20b24843d3d305a6f4772c37e35915dd6a20a000000000017a9140008b4a09d759cbd4ef40951518df2a0f9b9b00c875c4400000000000017a914ea6b832a05c6ca578baa3836f3f25553d41068a5875802000000000000225120ee5da5a9ef8f5dcc038701ffcbb83309f20b24843d3d305a6f4772c37e35915d5802000000000000225120ee5da5a9ef8f5dcc038701ffcbb83309f20b24843d3d305a6f4772c37e35915d5dd9070000000000225120ee5da5a9ef8f5dcc038701ffcbb83309f20b24843d3d305a6f4772c37e35915d0140b1935f47539469fb3b239c6daa2da347fb14b4c7c0191a1c3b04dde33e590f0e73fc2f5a10c0140fcb1ba1ebf3ede4b91ae66725a368ca624b44e39838af3a960140f47ecbc7037cc116925f3bcc38934acc3ee84adc1548e9268d569af66f09eb4cba913eca68626bced92d5b1643b159217c395c881972a3ce096b2449f9810be601416cbd3de80546f419d4ee3344c07724879f759092b6aeea6a81700e0cb9c92c662133f20199cff9fba0cffa05194ded69ea6056527476e01d20fc6ff1cbcdb8aa83014058d45d02567509e8880d97dba380a40b2fcc9304e2596397e122825aaa46809c5ddd8f330f7aa21a816d8d283b64f035d2ec16bc7b85c10a6419be901148353e00000000"
}