{
  "txid": "d7c6f9fb13f626b2bcf626537cbd0087d52bff5f299bebc525773c6ca3f23b0b",
  "version": 2,
  "locktime": 0,
  "vin": [
    {
      "txid": "b9f357d83cb3c7e1a11f861540f2ef8f0eb87871f723f91f9a708db0db1bcabf",
      "vout": 10,
      "prevout": {
        "scriptpubkey": "512072d912b452bc113f61b76005ff5811b1825bd349c5a0f4634f64917b4bc8548a",
        "scriptpubkey_asm": "OP_PUSHNUM_1 OP_PUSHBYTES_32 72d912b452bc113f61b76005ff5811b1825bd349c5a0f4634f64917b4bc8548a",
        "scriptpubkey_type": "v1_p2tr",
        "scriptpubkey_address": "bc1pwtv39dzjhsgn7cdhvqzl7kq3kxp9h56fcks0gc60vjghkj7g2j9qrursvf",
        "value": 2850
      },
      "scriptsig": "",
      "scriptsig_asm": "",
      "witness": [
        "da09075bdc72576c63b3cde5d39adccc923e5a458900316140cb77f1730b0b22f2ee10fe7bcdac14ad7ef1c71c30cfb3c0f680ac1cec1e235b3b47e96a8d23c0",
        "207be86921ea441ff32491938a354e25489bc32209ede093b84dac529ce388bacaac0063036f726401011e6170706c69636174696f6e2f6a736f6e3b636861727365743d7574662d38004cd27b2270223a22706f772d3230222c226f70223a226d696e74222c227469636b223a2250455045222c22616d74223a2231303030222c22736f6c7574696f6e223a22504550453a62633170646c6a6d747a783365646e716e7572366332786c6c3277726472787a636e72373270333874636a6b736476306b726c67643268737a3279767a6c3a303030303030303030303030303030303030303139393431613561653132383937363539383134343239323533333030353762306461393666336465613163353a38373338323332353433227d68",
        "c096123be632ec23e42a1daadb49c59b3ad8ca39108d2d31b6eff3b52b525d1622"
      ],
      "is_coinbase": false,
      "sequence": 4294967295
    }
  ],
  "vout": [
    {
      "scriptpubkey": "51206fe5b588d1cb6609f07ac28dffa9c368cc2c4c7e506275e2568358fb0fe86aaf",
      "scriptpubkey_asm": "OP_PUSHNUM_1 OP_PUSHBYTES_32 6fe5b588d1cb6609f07ac28dffa9c368cc2c4c7e506275e2568358fb0fe86aaf",
      "scriptpubkey_type": "v1_p2tr",
      "scriptpubkey_address": "bc1pdljmtzx3ednqnur6c2xll2wrdrxzcnr72p38tcjksdv0krlgd2hsz2yvzl",
      "value": 546
    }
  ],
  "size": 486,
  "weight": 768,
  "fee": 2304,
  "status": {
    "confirmed": true,
    "block_height": 834460,
    "block_hash": "00000000000000000000484a79b643b2524bbce82e5d8a442013fa5b8905ed98",
    "block_time": 1710307468
  },
  "hex": "02000000000101bfca1bdbb08d709a1ff923f77178b80e8feff24015861fa1e1c7b33cd857f3b90a00000000ffffffff0122020000000000002251206fe5b588d1cb6609f07ac28dffa9c368cc2c4c7e506275e2568358fb0fe86aaf0340da09075bdc72576c63b3cde5d39adccc923e5a458900316140cb77f1730b0b22f2ee10fe7bcdac14ad7ef1c71c30cfb3c0f680ac1cec1e235b3b47e96a8d23c0fd1f01207be86921ea441ff32491938a354e25489bc32209ede093b84dac529ce388bacaac0063036f726401011e6170706c69636174696f6e2f6a736f6e3b636861727365743d7574662d38004cd27b2270223a22706f772d3230222c226f70223a226d696e74222c227469636b223a2250455045222c22616d74223a2231303030222c22736f6c7574696f6e223a22504550453a62633170646c6a6d747a783365646e716e7572366332786c6c3277726472787a636e72373270333874636a6b736476306b726c67643268737a3279767a6c3a303030303030303030303030303030303030303139393431613561653132383937363539383134343239323533333030353762306461393666336465613163353a38373338323332353433227d6821c096123be632ec23e42a1daadb49c59b3ad8ca39108d2d31b6eff3b52b525d162200000000"
}