{
  "txid": "d7c7fa415d51ce81c1259cd7f6582fa89a2c16619c92ba6797e70ce07077b877",
  "version": 2,
  "locktime": 0,
  "vin": [
    {
      "txid": "64772f222a5d7b59498d59dd64de835527cb42fe48c5e3820785a39bdf9ded86",
      "vout": 0,
      "prevout": {
        "scriptpubkey": "001471f34cf0fc45d9ffe8ff05d3ad319809d9b1d8bc",
        "scriptpubkey_asm": "OP_0 OP_PUSHBYTES_20 71f34cf0fc45d9ffe8ff05d3ad319809d9b1d8bc",
        "scriptpubkey_type": "v0_p2wpkh",
        "scriptpubkey_address": "bc1qw8e5eu8ughvll68lqhf66vvcp8vmrk9u6xcg6f",
        "value": 22490
      },
      "scriptsig": "",
      "scriptsig_asm": "",
      "witness": [
        "30440220311bef1b9e4e19da4bde5f08570686a2d31db9ddb4158de5c5d05431536cdfda02206b2382f71acaa8d761866b9e67a71078da6363e12669a74c6d7a8232ab45772901",
        "0343ace2b8d874b78bcf8fb848832b5da0a42a24a816cfa5a654af834448255b0c"
      ],
      "is_coinbase": false,
      "sequence": 4294967293
    }
  ],
  "vout": [
    {
      "scriptpubkey": "00145c0ab19a50e246860c06d16f03610b058ee258bb",
      "scriptpubkey_asm": "OP_0 OP_PUSHBYTES_20 5c0ab19a50e246860c06d16f03610b058ee258bb",
      "scriptpubkey_type": "v0_p2wpkh",
      "scriptpubkey_address": "bc1qts9trxjsufrgvrqx69hsxcgtqk8wyk9m2gu0h3",
      "value": 9921
    },
    {
      "scriptpubkey": "00140a5ac5c1792cbbcbbdc5a5389f4655e2150b5908",
      "scriptpubkey_asm": "OP_0 OP_PUSHBYTES_20 0a5ac5c1792cbbcbbdc5a5389f4655e2150b5908",
      "scriptpubkey_type": "v0_p2wpkh",
      "scriptpubkey_address": "bc1qpfdvtste9jauh0w955uf73j4ug2skkggspp42l",
      "value": 10496
    }
  ],
  "size": 222,
  "weight": 561,
  "fee": 2073,
  "status": {
    "confirmed": true,
    "block_height": 834552,
    "block_hash": "00000000000000000001dd0468a70c94f619251d286585cff57aeb4bd9ede330",
    "block_time": 1710355598
  },
  "hex": "0200000000010186ed9ddf9ba3850782e3c548fe42cb275583de64dd598d49597b5d2a222f77640000000000fdffffff02c1260000000000001600145c0ab19a50e246860c06d16f03610b058ee258bb00290000000000001600140a5ac5c1792cbbcbbdc5a5389f4655e2150b5908024730440220311bef1b9e4e19da4bde5f08570686a2d31db9ddb4158de5c5d05431536cdfda02206b2382f71acaa8d761866b9e67a71078da6363e12669a74c6d7a8232ab45772901210343ace2b8d874b78bcf8fb848832b5da0a42a24a816cfa5a654af834448255b0c00000000"
}