{
  "txid": "d7cf2ae00ef1c3423b79f417706f6478e1cdca38724e853bc57a63a266ebdc61",
  "version": 2,
  "locktime": 0,
  "vin": [
    {
      "txid": "7d073615a2c1def21733d2e0ae9b5b6b4b149c6e71e5568028dbc0ed1306ecf7",
      "vout": 0,
      "prevout": {
        "scriptpubkey": "76a914cfb32928ec123b64422f3ec54ac76b77a40a496088ac",
        "scriptpubkey_asm": "OP_DUP OP_HASH160 OP_PUSHBYTES_20 cfb32928ec123b64422f3ec54ac76b77a40a4960 OP_EQUALVERIFY OP_CHECKSIG",
        "scriptpubkey_type": "p2pkh",
        "scriptpubkey_address": "1KwDW248UqSMN3FDYXvYWm2TLkh5pACZSx",
        "value": 194700
      },
      "scriptsig": "4730440220765993be0fbebc1c18143a664d66942f3138dea61cec094b5d2334e87a49d0680220143ba08f73984eec93527d3ca56fe1890cb6cd34a5ab41c81e2fa78a1cfd159e01210286203c7f05946ccbf6205fa445ea5e4730095c94c590788befdf5f1672fde903",
      "scriptsig_asm": "OP_PUSHBYTES_71 30440220765993be0fbebc1c18143a664d66942f3138dea61cec094b5d2334e87a49d0680220143ba08f73984eec93527d3ca56fe1890cb6cd34a5ab41c81e2fa78a1cfd159e01 OP_PUSHBYTES_33 0286203c7f05946ccbf6205fa445ea5e4730095c94c590788befdf5f1672fde903",
      "is_coinbase": false,
      "sequence": 4294967295
    },
    {
      "txid": "292d84e0bda091816f0552bf8c35cb5999587a6889481b37099837abbdaa0f3d",
      "vout": 0,
      "prevout": {
        "scriptpubkey": "76a91486b6bc22c6dac1928a954775009c9dabe61919db88ac",
        "scriptpubkey_asm": "OP_DUP OP_HASH160 OP_PUSHBYTES_20 86b6bc22c6dac1928a954775009c9dabe61919db OP_EQUALVERIFY OP_CHECKSIG",
        "scriptpubkey_type": "p2pkh",
        "scriptpubkey_address": "1DHJTMFQAT55PVaP8mEUaCVvrmDgQKp54y",
        "value": 880697
      },
      "scriptsig": "47304402201bde6134e0f9d48543fdbd769c92ae38532040ef15b6c36516cf86ee977c3bfc0220215c7eb45cf53c526909dd1e097a64710d464cab7355f7c22e8266bbf1f8b60b0121039cbd642d4f72a1fe7b90af367ab77681b02f810a13f246e48bd4880108a03482",
      "scriptsig_asm": "OP_PUSHBYTES_71 304402201bde6134e0f9d48543fdbd769c92ae38532040ef15b6c36516cf86ee977c3bfc0220215c7eb45cf53c526909dd1e097a64710d464cab7355f7c22e8266bbf1f8b60b01 OP_PUSHBYTES_33 039cbd642d4f72a1fe7b90af367ab77681b02f810a13f246e48bd4880108a03482",
      "is_coinbase": false,
      "sequence": 4294967295
    },
    {
      "txid": "bfaf4adcadcdcbef953b97cfcb22616e04b7407bea4fe9b8701c5785f40eafdd",
      "vout": 0,
      "prevout": {
        "scriptpubkey": "76a914e692fdd28e9209cffbecb8e7e9003854cb0ee90388ac",
        "scriptpubkey_asm": "OP_DUP OP_HASH160 OP_PUSHBYTES_20 e692fdd28e9209cffbecb8e7e9003854cb0ee903 OP_EQUALVERIFY OP_CHECKSIG",
        "scriptpubkey_type": "p2pkh",
        "scriptpubkey_address": "1N2AWGc6nsT6TwXzJYnEds3Bhr9WWwVDL7",
        "value": 1271500
      },
      "scriptsig": "483045022100f2d1d22e44d22b44eb276bc18301b5bfbc218c8e8062778f662b164a88e7a9b202207c0e1aec61df25203af34e10fb1abde2daa7d6a019ce1944f205c22b7e9b63fc012102614301c30c7371b4dd69c274e75b888da14ba7def5dfaa881852dbeb9abe1cf3",
      "scriptsig_asm": "OP_PUSHBYTES_72 3045022100f2d1d22e44d22b44eb276bc18301b5bfbc218c8e8062778f662b164a88e7a9b202207c0e1aec61df25203af34e10fb1abde2daa7d6a019ce1944f205c22b7e9b63fc01 OP_PUSHBYTES_33 02614301c30c7371b4dd69c274e75b888da14ba7def5dfaa881852dbeb9abe1cf3",
      "is_coinbase": false,
      "sequence": 4294967295
    },
    {
      "txid": "bdc23f8c71ff17e7e225973c32a8001ac5b1f57d862e2fdf3a3585252e4c15d8",
      "vout": 0,
      "prevout": {
        "scriptpubkey": "76a914f3da517fb6bd508cb4233858e24e06b825217cb188ac",
        "scriptpubkey_asm": "OP_DUP OP_HASH160 OP_PUSHBYTES_20 f3da517fb6bd508cb4233858e24e06b825217cb1 OP_EQUALVERIFY OP_CHECKSIG",
        "scriptpubkey_type": "p2pkh",
        "scriptpubkey_address": "1PENje84Jf2pFDp3WK6XpmbL8jPibJcdLu",
        "value": 2178500
      },
      "scriptsig": "47304402207fe8e2613f955805400878c9dff0c3a589183de6ed173a04f57f9c75d34aa4dc02205e3bc1f4b775ad7e28175279ffa3efbf8921e1f85ea742bfcbf512be6dd2e1e00121024c2ce5781ba9b00743fad25d979d5d5f2a0d37050ba48cac49ff2eef986769ef",
      "scriptsig_asm": "OP_PUSHBYTES_71 304402207fe8e2613f955805400878c9dff0c3a589183de6ed173a04f57f9c75d34aa4dc02205e3bc1f4b775ad7e28175279ffa3efbf8921e1f85ea742bfcbf512be6dd2e1e001 OP_PUSHBYTES_33 024c2ce5781ba9b00743fad25d979d5d5f2a0d37050ba48cac49ff2eef986769ef",
      "is_coinbase": false,
      "sequence": 4294967295
    },
    {
      "txid": "727384701135127d18c7af1161d9b3b8f9dad2e41092483d8de2c5b6aa6ada4b",
      "vout": 0,
      "prevout": {
        "scriptpubkey": "76a914e6647d3dfe04605415f5e53de6dcaed66ff5151788ac",
        "scriptpubkey_asm": "OP_DUP OP_HASH160 OP_PUSHBYTES_20 e6647d3dfe04605415f5e53de6dcaed66ff51517 OP_EQUALVERIFY OP_CHECKSIG",
        "scriptpubkey_type": "p2pkh",
        "scriptpubkey_address": "1N1CoEdDsQvxEMYdnTMyFyRLQAYbPRgeso",
        "value": 4024107
      },
      "scriptsig": "47304402205e46a8e2430118b6c4e7cd9831d87e85486264a69add6218ee33d68bf7c6058f022022c57b8d672f3ccc51b4328ee7fc5ce1046c1f085ec0798220905cfece0978be012102cd4f065539e5a0aa8a3834e88ba99e6372ba4e4638301ad4782e7b790e77599f",
      "scriptsig_asm": "OP_PUSHBYTES_71 304402205e46a8e2430118b6c4e7cd9831d87e85486264a69add6218ee33d68bf7c6058f022022c57b8d672f3ccc51b4328ee7fc5ce1046c1f085ec0798220905cfece0978be01 OP_PUSHBYTES_33 02cd4f065539e5a0aa8a3834e88ba99e6372ba4e4638301ad4782e7b790e77599f",
      "is_coinbase": false,
      "sequence": 4294967295
    },
    {
      "txid": "b5e1660071cd007be7f6d4608f27112cc6d1484e82794f0c7b67c2ab0cf9bc43",
      "vout": 0,
      "prevout": {
        "scriptpubkey": "76a9148a1973556b19cbb8506b00d7684024f191b2e7b088ac",
        "scriptpubkey_asm": "OP_DUP OP_HASH160 OP_PUSHBYTES_20 8a1973556b19cbb8506b00d7684024f191b2e7b0 OP_EQUALVERIFY OP_CHECKSIG",
        "scriptpubkey_type": "p2pkh",
        "scriptpubkey_address": "1DbCjojyBRXaJyZPdYRBmBZEpB3NekWhZW",
        "value": 4200125
      },
      "scriptsig": "473044022000fbda6db2f760fb73f6b582ac0a5e42816c5ea987882c8fe5977b2777e04171022058346255d0921393a675a72e9ec39d0f6b7c58e9880c5acf5553c998940c16ca012102bbc2baea24bc51cb305afda33dc934abe25041cc36fd1f4d52d63ae7a80d844b",
      "scriptsig_asm": "OP_PUSHBYTES_71 3044022000fbda6db2f760fb73f6b582ac0a5e42816c5ea987882c8fe5977b2777e04171022058346255d0921393a675a72e9ec39d0f6b7c58e9880c5acf5553c998940c16ca01 OP_PUSHBYTES_33 02bbc2baea24bc51cb305afda33dc934abe25041cc36fd1f4d52d63ae7a80d844b",
      "is_coinbase": false,
      "sequence": 4294967295
    },
    {
      "txid": "967cc4c8d74d917f47e5b02c6e7fb0b005084b5fd70c8c6d9bd2241f914dabb9",
      "vout": 0,
      "prevout": {
        "scriptpubkey": "76a914fece59deb484d215dfb346d2d914aad97d0dd54388ac",
        "scriptpubkey_asm": "OP_DUP OP_HASH160 OP_PUSHBYTES_20 fece59deb484d215dfb346d2d914aad97d0dd543 OP_EQUALVERIFY OP_CHECKSIG",
        "scriptpubkey_type": "p2pkh",
        "scriptpubkey_address": "1QEHqFMjqpoG1uVW4CPysEDUVw3aGoXHbQ",
        "value": 4674700
      },
      "scriptsig": "473044022053cc69da35142a015c41f8c34c34d6c5b4be4b88f3c79c65910ef8181f4d1bfa02206c611318d3ac96b6fec06eaf6b8c673cb8941230625bc3d319e1e7243d524f750121031d7444d506531ac79968d22ad013f0e6d29c8262e096ac98579b1abf7134b989",
      "scriptsig_asm": "OP_PUSHBYTES_71 3044022053cc69da35142a015c41f8c34c34d6c5b4be4b88f3c79c65910ef8181f4d1bfa02206c611318d3ac96b6fec06eaf6b8c673cb8941230625bc3d319e1e7243d524f7501 OP_PUSHBYTES_33 031d7444d506531ac79968d22ad013f0e6d29c8262e096ac98579b1abf7134b989",
      "is_coinbase": false,
      "sequence": 4294967295
    },
    {
      "txid": "62a8fc313db7b87a8152fd09c8db28f142b6e32be5abf97aec0acbf1d9c10f39",
      "vout": 0,
      "prevout": {
        "scriptpubkey": "76a9146f7e14910149170f1399a1abf75704be58b8983188ac",
        "scriptpubkey_asm": "OP_DUP OP_HASH160 OP_PUSHBYTES_20 6f7e14910149170f1399a1abf75704be58b89831 OP_EQUALVERIFY OP_CHECKSIG",
        "scriptpubkey_type": "p2pkh",
        "scriptpubkey_address": "1BAX3WVxuwq1bXGQVRvA5PuGwgUT4S1GCx",
        "value": 4774698
      },
      "scriptsig": "483045022100ef46f3e1748c5a82457e11c26748671d6d1ba93f61783437a176838fa73a1c410220099d55bd42ed391c7c2d24749df2b0c2e8edeec774c70534e42d435d4b8bddaf012103d419dd7c980cfe881b033240cac6d53ffab94ce33a60220bd5bdba09997e12f6",
      "scriptsig_asm": "OP_PUSHBYTES_72 3045022100ef46f3e1748c5a82457e11c26748671d6d1ba93f61783437a176838fa73a1c410220099d55bd42ed391c7c2d24749df2b0c2e8edeec774c70534e42d435d4b8bddaf01 OP_PUSHBYTES_33 03d419dd7c980cfe881b033240cac6d53ffab94ce33a60220bd5bdba09997e12f6",
      "is_coinbase": false,
      "sequence": 4294967295
    },
    {
      "txid": "fa4246b7c46894f0b448d9a78b81b8456615bc679fea503604f917494b2521e2",
      "vout": 0,
      "prevout": {
        "scriptpubkey": "76a9144c971bfa834d001c9c4779d56d9458212a58aa5f88ac",
        "scriptpubkey_asm": "OP_DUP OP_HASH160 OP_PUSHBYTES_20 4c971bfa834d001c9c4779d56d9458212a58aa5f OP_EQUALVERIFY OP_CHECKSIG",
        "scriptpubkey_type": "p2pkh",
        "scriptpubkey_address": "17yyNqXmq3ZutE3r4mGGFVBLDH6MDYq237",
        "value": 4942128
      },
      "scriptsig": "47304402204e291369245b414fbbbd69fe752cdb5b67c34a1521b4295faf113313c5d980a402206a19df0e91c1045f97aa2c6755176bd4966e06139e596e1b74f022d48d66cd700121029954995cff3addf4f284e5a5058ca321e4521d3b4d70a3e24ee970859fef5fbc",
      "scriptsig_asm": "OP_PUSHBYTES_71 304402204e291369245b414fbbbd69fe752cdb5b67c34a1521b4295faf113313c5d980a402206a19df0e91c1045f97aa2c6755176bd4966e06139e596e1b74f022d48d66cd7001 OP_PUSHBYTES_33 029954995cff3addf4f284e5a5058ca321e4521d3b4d70a3e24ee970859fef5fbc",
      "is_coinbase": false,
      "sequence": 4294967295
    },
    {
      "txid": "2f9dd6853c5f87e8aa892d4c956c8c04b90fc1d9b896ca9d1dc97a8c95ee90ed",
      "vout": 1,
      "prevout": {
        "scriptpubkey": "76a914c4357f443b973645db413b1e09e81e16c1a785c188ac",
        "scriptpubkey_asm": "OP_DUP OP_HASH160 OP_PUSHBYTES_20 c4357f443b973645db413b1e09e81e16c1a785c1 OP_EQUALVERIFY OP_CHECKSIG",
        "scriptpubkey_type": "p2pkh",
        "scriptpubkey_address": "1JtTXeQJnHEa5tNeTg52EcQDPduG8v8ePH",
        "value": 5027200
      },
      "scriptsig": "473044022073e68445f757b408b32942b9ac309c1cd3a941b5e0058a77cd19f67fba2865fb02200f7f2fb2179c040e4733157b8e91f0d8cbd63ca2545b55144576cd7d4ceeb23c012102baff3be2396c73e946de8b3a3d164fa38a43c3188ef8fa024e6d31377891c9ce",
      "scriptsig_asm": "OP_PUSHBYTES_71 3044022073e68445f757b408b32942b9ac309c1cd3a941b5e0058a77cd19f67fba2865fb02200f7f2fb2179c040e4733157b8e91f0d8cbd63ca2545b55144576cd7d4ceeb23c01 OP_PUSHBYTES_33 02baff3be2396c73e946de8b3a3d164fa38a43c3188ef8fa024e6d31377891c9ce",
      "is_coinbase": false,
      "sequence": 4294967295
    },
    {
      "txid": "63c7975049f5de1f81964f434f4363de03d110c0fafd62048a5a63b3e8792ef2",
      "vout": 0,
      "prevout": {
        "scriptpubkey": "76a914b2fcb0a6d6e769b5b0f2d85a5e4109ef15d4f69788ac",
        "scriptpubkey_asm": "OP_DUP OP_HASH160 OP_PUSHBYTES_20 b2fcb0a6d6e769b5b0f2d85a5e4109ef15d4f697 OP_EQUALVERIFY OP_CHECKSIG",
        "scriptpubkey_type": "p2pkh",
        "scriptpubkey_address": "1HKPzMmHnWjrFYH9z9of9nGLeFVtf9r9Jw",
        "value": 5718929
      },
      "scriptsig": "47304402203722c573701948921cd8b1c190bfcc131e23ffa1c31b0d576c28e5740621be0c02200405623af397fd71c59525e7d609cc7db553d21361cdee04c9d9d977def98a310121029e98f3395f4f60641aec3da0aead1b600f6e5e697477e84ed9084bb77a82c7cd",
      "scriptsig_asm": "OP_PUSHBYTES_71 304402203722c573701948921cd8b1c190bfcc131e23ffa1c31b0d576c28e5740621be0c02200405623af397fd71c59525e7d609cc7db553d21361cdee04c9d9d977def98a3101 OP_PUSHBYTES_33 029e98f3395f4f60641aec3da0aead1b600f6e5e697477e84ed9084bb77a82c7cd",
      "is_coinbase": false,
      "sequence": 4294967295
    },
    {
      "txid": "c1c13999798329a45afb42267457ea9f778663a71fbcec79b37368806333a3fc",
      "vout": 1,
      "prevout": {
        "scriptpubkey": "76a914ea036cbe7093aa42cd1ae33fb4f9e31a1cf6203b88ac",
        "scriptpubkey_asm": "OP_DUP OP_HASH160 OP_PUSHBYTES_20 ea036cbe7093aa42cd1ae33fb4f9e31a1cf6203b OP_EQUALVERIFY OP_CHECKSIG",
        "scriptpubkey_type": "p2pkh",
        "scriptpubkey_address": "1NLMDr5qYG8DyFKrMaWMaVxsVLiP9RAEv8",
        "value": 6117900
      },
      "scriptsig": "483045022100e47d5819a786df3fb8bbedd4bbb03a0fac40545b3de693146046190242ffc9a202204204c9098c833590fefc6922e0debbaccdfe9fe99d0f72720b1316559181175201210226849fdaf1f13f1942c91591aac0db253df50609983b45b49567fe2bf793c473",
      "scriptsig_asm": "OP_PUSHBYTES_72 3045022100e47d5819a786df3fb8bbedd4bbb03a0fac40545b3de693146046190242ffc9a202204204c9098c833590fefc6922e0debbaccdfe9fe99d0f72720b1316559181175201 OP_PUSHBYTES_33 0226849fdaf1f13f1942c91591aac0db253df50609983b45b49567fe2bf793c473",
      "is_coinbase": false,
      "sequence": 4294967295
    },
    {
      "txid": "ba9af8056c9192760af1a1013ff2492a841302c7e50f5d5b293bf5093a2f832a",
      "vout": 0,
      "prevout": {
        "scriptpubkey": "76a9142d41291d0764a1be819b5e17c9ddd2085a8ecef488ac",
        "scriptpubkey_asm": "OP_DUP OP_HASH160 OP_PUSHBYTES_20 2d41291d0764a1be819b5e17c9ddd2085a8ecef4 OP_EQUALVERIFY OP_CHECKSIG",
        "scriptpubkey_type": "p2pkh",
        "scriptpubkey_address": "158HU554TdHTGG9rt2QcWBKuR6wtCEujQ5",
        "value": 10000000
      },
      "scriptsig": "473044022049fc5d1c176a7907f947782ae5a77281c54a9c757fd79fd0ae495f2d17a4e76602206a6416d6fad830191d0f2a098c8823e110816734462b8bffea8fec34a015087b01210220b8370e3fa49b2845f8d7760f5ebf06d3c72bf98c50dd083d06c3048fb0c4c1",
      "scriptsig_asm": "OP_PUSHBYTES_71 3044022049fc5d1c176a7907f947782ae5a77281c54a9c757fd79fd0ae495f2d17a4e76602206a6416d6fad830191d0f2a098c8823e110816734462b8bffea8fec34a015087b01 OP_PUSHBYTES_33 0220b8370e3fa49b2845f8d7760f5ebf06d3c72bf98c50dd083d06c3048fb0c4c1",
      "is_coinbase": false,
      "sequence": 4294967295
    },
    {
      "txid": "c60e6655bd815e7b875b38ab6f3184229a20fc329dc1d8bfcede8bd2e54f92a8",
      "vout": 1,
      "prevout": {
        "scriptpubkey": "76a914d6dbfd41c8a1902056beb5a9fb777e0d3525b8b488ac",
        "scriptpubkey_asm": "OP_DUP OP_HASH160 OP_PUSHBYTES_20 d6dbfd41c8a1902056beb5a9fb777e0d3525b8b4 OP_EQUALVERIFY OP_CHECKSIG",
        "scriptpubkey_type": "p2pkh",
        "scriptpubkey_address": "1Lb59BANbrbr68HbFhhDY5VPqbuBmJpEbQ",
        "value": 15366800
      },
      "scriptsig": "47304402206f40e874cadefd287316de293da0a3361703c390e6b44ddcb18d05bc3205bf6d02200ca520bfa8c1e62d84e2d7344d3652df3651a5271ec77b7b0ec6c5de13108832012103e47e73c2472dde6e674dd0459cfe1c8b97ba4866cc0ecd629bf989261594adac",
      "scriptsig_asm": "OP_PUSHBYTES_71 304402206f40e874cadefd287316de293da0a3361703c390e6b44ddcb18d05bc3205bf6d02200ca520bfa8c1e62d84e2d7344d3652df3651a5271ec77b7b0ec6c5de1310883201 OP_PUSHBYTES_33 03e47e73c2472dde6e674dd0459cfe1c8b97ba4866cc0ecd629bf989261594adac",
      "is_coinbase": false,
      "sequence": 4294967295
    },
    {
      "txid": "7d4c4ae05507079ef7e9223fa2d6517e5fd4758ab3915c24b03c05ecd4a5cf39",
      "vout": 1,
      "prevout": {
        "scriptpubkey": "76a9140a81faae32e239f65bd0179506536f851edf422688ac",
        "scriptpubkey_asm": "OP_DUP OP_HASH160 OP_PUSHBYTES_20 0a81faae32e239f65bd0179506536f851edf4226 OP_EQUALVERIFY OP_CHECKSIG",
        "scriptpubkey_type": "p2pkh",
        "scriptpubkey_address": "1xZU2ubJ34aEpvGgBZRZoerAn3BKkDqvk",
        "value": 30677200
      },
      "scriptsig": "473044022079b335ea7606be8aaa088a2646789dae0630978a9e41e6382e88ec4f38e7cc6002201f9a3e8d7ecb358019709ba1f7e0819df4684696df41a825a30db97c5448862f01210317bb400b380159e828d1bd59f19ab41bf264ee3b9a01666d404fd7958d0d765e",
      "scriptsig_asm": "OP_PUSHBYTES_71 3044022079b335ea7606be8aaa088a2646789dae0630978a9e41e6382e88ec4f38e7cc6002201f9a3e8d7ecb358019709ba1f7e0819df4684696df41a825a30db97c5448862f01 OP_PUSHBYTES_33 0317bb400b380159e828d1bd59f19ab41bf264ee3b9a01666d404fd7958d0d765e",
      "is_coinbase": false,
      "sequence": 4294967295
    }
  ],
  "vout": [
    {
      "scriptpubkey": "00142826e60fb11fb5a7d3237441ebcb217d8be4c5a8",
      "scriptpubkey_asm": "OP_0 OP_PUSHBYTES_20 2826e60fb11fb5a7d3237441ebcb217d8be4c5a8",
      "scriptpubkey_type": "v0_p2wpkh",
      "scriptpubkey_address": "bc1q9qnwvra3r76605erw3q7hjep0k97f3dgrxwumc",
      "value": 100042392
    }
  ],
  "size": 2249,
  "weight": 8996,
  "fee": 6792,
  "status": {
    "confirmed": true,
    "block_height": 834464,
    "block_hash": "0000000000000000000177a0869a911a2b65c9bdcd5a8bcb02b68f305bee848e",
    "block_time": 1710308296
  },
  "hex": "020000000ff7ec0613edc0db288056e5716e9c144b6b5b9baee0d23317f2dec1a21536077d000000006a4730440220765993be0fbebc1c18143a664d66942f3138dea61cec094b5d2334e87a49d0680220143ba08f73984eec93527d3ca56fe1890cb6cd34a5ab41c81e2fa78a1cfd159e01210286203c7f05946ccbf6205fa445ea5e4730095c94c590788befdf5f1672fde903ffffffff3d0faabdab379809371b4889687a589959cb358cbf52056f8191a0bde0842d29000000006a47304402201bde6134e0f9d48543fdbd769c92ae38532040ef15b6c36516cf86ee977c3bfc0220215c7eb45cf53c526909dd1e097a64710d464cab7355f7c22e8266bbf1f8b60b0121039cbd642d4f72a1fe7b90af367ab77681b02f810a13f246e48bd4880108a03482ffffffffddaf0ef485571c70b8e94fea7b40b7046e6122cbcf973b95efcbcdaddc4aafbf000000006b483045022100f2d1d22e44d22b44eb276bc18301b5bfbc218c8e8062778f662b164a88e7a9b202207c0e1aec61df25203af34e10fb1abde2daa7d6a019ce1944f205c22b7e9b63fc012102614301c30c7371b4dd69c274e75b888da14ba7def5dfaa881852dbeb9abe1cf3ffffffffd8154c2e2585353adf2f2e867df5b1c51a00a8323c9725e2e717ff718c3fc2bd000000006a47304402207fe8e2613f955805400878c9dff0c3a589183de6ed173a04f57f9c75d34aa4dc02205e3bc1f4b775ad7e28175279ffa3efbf8921e1f85ea742bfcbf512be6dd2e1e00121024c2ce5781ba9b00743fad25d979d5d5f2a0d37050ba48cac49ff2eef986769efffffffff4bda6aaab6c5e28d3d489210e4d2daf9b8b3d96111afc7187d12351170847372000000006a47304402205e46a8e2430118b6c4e7cd9831d87e85486264a69add6218ee33d68bf7c6058f022022c57b8d672f3ccc51b4328ee7fc5ce1046c1f085ec0798220905cfece0978be012102cd4f065539e5a0aa8a3834e88ba99e6372ba4e4638301ad4782e7b790e77599fffffffff43bcf90cabc2677b0c4f79824e48d1c62c11278f60d4f6e77b00cd710066e1b5000000006a473044022000fbda6db2f760fb73f6b582ac0a5e42816c5ea987882c8fe5977b2777e04171022058346255d0921393a675a72e9ec39d0f6b7c58e9880c5acf5553c998940c16ca012102bbc2baea24bc51cb305afda33dc934abe25041cc36fd1f4d52d63ae7a80d844bffffffffb9ab4d911f24d29b6d8c0cd75f4b0805b0b07f6e2cb0e5477f914dd7c8c47c96000000006a473044022053cc69da35142a015c41f8c34c34d6c5b4be4b88f3c79c65910ef8181f4d1bfa02206c611318d3ac96b6fec06eaf6b8c673cb8941230625bc3d319e1e7243d524f750121031d7444d506531ac79968d22ad013f0e6d29c8262e096ac98579b1abf7134b989ffffffff390fc1d9f1cb0aec7af9abe52be3b642f128dbc809fd52817ab8b73d31fca862000000006b483045022100ef46f3e1748c5a82457e11c26748671d6d1ba93f61783437a176838fa73a1c410220099d55bd42ed391c7c2d24749df2b0c2e8edeec774c70534e42d435d4b8bddaf012103d419dd7c980cfe881b033240cac6d53ffab94ce33a60220bd5bdba09997e12f6ffffffffe221254b4917f9043650ea9f67bc156645b8818ba7d948b4f09468c4b74642fa000000006a47304402204e291369245b414fbbbd69fe752cdb5b67c34a1521b4295faf113313c5d980a402206a19df0e91c1045f97aa2c6755176bd4966e06139e596e1b74f022d48d66cd700121029954995cff3addf4f284e5a5058ca321e4521d3b4d70a3e24ee970859fef5fbcffffffffed90ee958c7ac91d9dca96b8d9c10fb9048c6c954c2d89aae8875f3c85d69d2f010000006a473044022073e68445f757b408b32942b9ac309c1cd3a941b5e0058a77cd19f67fba2865fb02200f7f2fb2179c040e4733157b8e91f0d8cbd63ca2545b55144576cd7d4ceeb23c012102baff3be2396c73e946de8b3a3d164fa38a43c3188ef8fa024e6d31377891c9cefffffffff22e79e8b3635a8a0462fdfac010d103de63434f434f96811fdef5495097c763000000006a47304402203722c573701948921cd8b1c190bfcc131e23ffa1c31b0d576c28e5740621be0c02200405623af397fd71c59525e7d609cc7db553d21361cdee04c9d9d977def98a310121029e98f3395f4f60641aec3da0aead1b600f6e5e697477e84ed9084bb77a82c7cdfffffffffca33363806873b379ecbc1fa76386779fea57742642fb5aa42983799939c1c1010000006b483045022100e47d5819a786df3fb8bbedd4bbb03a0fac40545b3de693146046190242ffc9a202204204c9098c833590fefc6922e0debbaccdfe9fe99d0f72720b1316559181175201210226849fdaf1f13f1942c91591aac0db253df50609983b45b49567fe2bf793c473ffffffff2a832f3a09f53b295b5d0fe5c70213842a49f23f01a1f10a7692916c05f89aba000000006a473044022049fc5d1c176a7907f947782ae5a77281c54a9c757fd79fd0ae495f2d17a4e76602206a6416d6fad830191d0f2a098c8823e110816734462b8bffea8fec34a015087b01210220b8370e3fa49b2845f8d7760f5ebf06d3c72bf98c50dd083d06c3048fb0c4c1ffffffffa8924fe5d28bdecebfd8c19d32fc209a2284316fab385b877b5e81bd55660ec6010000006a47304402206f40e874cadefd287316de293da0a3361703c390e6b44ddcb18d05bc3205bf6d02200ca520bfa8c1e62d84e2d7344d3652df3651a5271ec77b7b0ec6c5de13108832012103e47e73c2472dde6e674dd0459cfe1c8b97ba4866cc0ecd629bf989261594adacffffffff39cfa5d4ec053cb0245c91b38a75d45f7e51d6a23f22e9f79e070755e04a4c7d010000006a473044022079b335ea7606be8aaa088a2646789dae0630978a9e41e6382e88ec4f38e7cc6002201f9a3e8d7ecb358019709ba1f7e0819df4684696df41a825a30db97c5448862f01210317bb400b380159e828d1bd59f19ab41bf264ee3b9a01666d404fd7958d0d765effffffff019886f605000000001600142826e60fb11fb5a7d3237441ebcb217d8be4c5a800000000"
}