{
  "txid": "d7d0f5173c2d2cd92f96978b6e462baf37b55e24bc46cf485497e3b5b8c59811",
  "version": 1,
  "locktime": 0,
  "vin": [
    {
      "txid": "346adb9f39abf094b6edc4a1461d63a9fac470c24afc310ee2d5de8b979e9fbe",
      "vout": 1,
      "prevout": {
        "scriptpubkey": "76a914f3533fa2f28f768026d2b57c4451bcc7d47a74eb88ac",
        "scriptpubkey_asm": "OP_DUP OP_HASH160 OP_PUSHBYTES_20 f3533fa2f28f768026d2b57c4451bcc7d47a74eb OP_EQUALVERIFY OP_CHECKSIG",
        "scriptpubkey_type": "p2pkh",
        "scriptpubkey_address": "1PBavpzrgY3ZXFG7DbcYtEtAH4hyA9gKXa",
        "value": 310209
      },
      "scriptsig": "47304402203454cb41764fec0afc52dc41db985ef64422fe5bbcb47f764491934373df6c14022004092b4d957c90e0e284c3b2961a9abbef3cb78d7468f96256915cc6f7f53bb3012103c6cf87f8310b04a7122d1a38cbe1851141d722919089a2c9d4ad5c79df9a398a",
      "scriptsig_asm": "OP_PUSHBYTES_71 304402203454cb41764fec0afc52dc41db985ef64422fe5bbcb47f764491934373df6c14022004092b4d957c90e0e284c3b2961a9abbef3cb78d7468f96256915cc6f7f53bb301 OP_PUSHBYTES_33 03c6cf87f8310b04a7122d1a38cbe1851141d722919089a2c9d4ad5c79df9a398a",
      "is_coinbase": false,
      "sequence": 4294967295
    }
  ],
  "vout": [
    {
      "scriptpubkey": "76a914c224901e8858137336989f68f7c0db4e8857522f88ac",
      "scriptpubkey_asm": "OP_DUP OP_HASH160 OP_PUSHBYTES_20 c224901e8858137336989f68f7c0db4e8857522f OP_EQUALVERIFY OP_CHECKSIG",
      "scriptpubkey_type": "p2pkh",
      "scriptpubkey_address": "1JhXtexmSM5ER5H4Th38JTNZ4Lyt98xoyc",
      "value": 306369
    }
  ],
  "size": 191,
  "weight": 764,
  "fee": 3840,
  "status": {
    "confirmed": true,
    "block_height": 834638,
    "block_hash": "000000000000000000025f742c626208ac87e0b7d15054abb4a19ca2d735a54e",
    "block_time": 1710405325
  },
  "hex": "0100000001be9f9e978bded5e20e31fc4ac270c4faa9631d46a1c4edb694f0ab399fdb6a34010000006a47304402203454cb41764fec0afc52dc41db985ef64422fe5bbcb47f764491934373df6c14022004092b4d957c90e0e284c3b2961a9abbef3cb78d7468f96256915cc6f7f53bb3012103c6cf87f8310b04a7122d1a38cbe1851141d722919089a2c9d4ad5c79df9a398affffffff01c1ac0400000000001976a914c224901e8858137336989f68f7c0db4e8857522f88ac00000000"
}