{
  "txid": "d7f339211274ba5f8cdf6df38210a916a3b30e934f23df643aff79a634f56379",
  "version": 2,
  "locktime": 834458,
  "vin": [
    {
      "txid": "20feb8278a0b5a3ea56c926ca4de187f371c9fc43bcdf999ca0e8e99426e848d",
      "vout": 0,
      "prevout": {
        "scriptpubkey": "00148c8432652b959343527805e661eff2403b3e2a5a",
        "scriptpubkey_asm": "OP_0 OP_PUSHBYTES_20 8c8432652b959343527805e661eff2403b3e2a5a",
        "scriptpubkey_type": "v0_p2wpkh",
        "scriptpubkey_address": "bc1q3jzryeftjkf5x5ncqhnxrmljgqanu2j62jwtjl",
        "value": 153000
      },
      "scriptsig": "",
      "scriptsig_asm": "",
      "witness": [
        "3044022039a0761836c2bcaca7a3c7a057104d78e47af5d373d13716306b77d9aaa637e1022021bc8eef6a193b2ddf3b9bdf6c7e42e5934f260c3746b4033dfcfe997060469001",
        "023a2b0c9db1dd4155eac2892549c52efde7bd72c0b97040f8e2cfac7b8da8af34"
      ],
      "is_coinbase": false,
      "sequence": 4294967293
    },
    {
      "txid": "6c442da39909eb29dfe095ea95befb3784e2e7a841e694fd819e9b6e24c97e40",
      "vout": 3,
      "prevout": {
        "scriptpubkey": "00142b55396663153615208fc9b5b6de36876987b90e",
        "scriptpubkey_asm": "OP_0 OP_PUSHBYTES_20 2b55396663153615208fc9b5b6de36876987b90e",
        "scriptpubkey_type": "v0_p2wpkh",
        "scriptpubkey_address": "bc1q9d2njenrz5mp2gy0ex6mdh3ksa5c0wgwy9d7df",
        "value": 648288
      },
      "scriptsig": "",
      "scriptsig_asm": "",
      "witness": [
        "304402205c3a6a3e1431afa8df6ec8468f15de949a3f25f9eb02bd60dd79f81085d596ca02203b58e5c17f46ae85a83bc17e720506c452f3613bd17d7a91a5534a1f0f303bcf01",
        "028e0f9bd3e4ee88461e07a1451e67ab82803c22478e51bf2da26e9eaf5e49d425"
      ],
      "is_coinbase": false,
      "sequence": 4294967293
    },
    {
      "txid": "7c57ed8f6d2b89085db425270dbda518465a6225c7cb367fca7b1c529f036552",
      "vout": 0,
      "prevout": {
        "scriptpubkey": "0014360e51ad7164cdab56515bad8dc698998a8220a0",
        "scriptpubkey_asm": "OP_0 OP_PUSHBYTES_20 360e51ad7164cdab56515bad8dc698998a8220a0",
        "scriptpubkey_type": "v0_p2wpkh",
        "scriptpubkey_address": "bc1qxc89rtt3vnx6k4j3twkcm35cnx9gyg9qsc6u8s",
        "value": 6778731
      },
      "scriptsig": "",
      "scriptsig_asm": "",
      "witness": [
        "3044022015afa6ab5fa06c1fe64adc3f1b21290e56a2a708e0c8d88f36cfc1b1e6e705cd022008c742211c01897a8387ed253bdd7f4eec0cccd3c5d3eb012f5b53cd57ee5ba401",
        "03208df2fd58fc24f0ef649010a4baf2dbbfe977557301fb5e53137c1cba54a0a3"
      ],
      "is_coinbase": false,
      "sequence": 4294967293
    },
    {
      "txid": "8f9c46f7b7aba0fe58bcac11fb68cbffa88dadc4f411d60625353782666e15cf",
      "vout": 0,
      "prevout": {
        "scriptpubkey": "0014c1b16370cc46ff1cd2669ba83eebe0d00eb20d82",
        "scriptpubkey_asm": "OP_0 OP_PUSHBYTES_20 c1b16370cc46ff1cd2669ba83eebe0d00eb20d82",
        "scriptpubkey_type": "v0_p2wpkh",
        "scriptpubkey_address": "bc1qcxckxuxvgml3e5nxnw5ra6lq6q8tyrvzg5sjf6",
        "value": 1402200
      },
      "scriptsig": "",
      "scriptsig_asm": "",
      "witness": [
        "304402200e1531a9390e8e81f555a2efbe8ce03189813e0ec58b5836430076ce90bb229b0220707551de16599daee9dbbd21a67baaa236762201f026817abed0667f2aacd3b301",
        "02c6dc378a7a7c6c5806f64a34f9f761674d3b32a4b6473c5d6b0464c0a7a037ac"
      ],
      "is_coinbase": false,
      "sequence": 4294967293
    },
    {
      "txid": "acd0bd1ce838e3df5084abf56bb9addd55c648e3dcdbeb79bd8d7387eb18d698",
      "vout": 45,
      "prevout": {
        "scriptpubkey": "00148562f349c8d58803cd6d3d3154aec858a63228f1",
        "scriptpubkey_asm": "OP_0 OP_PUSHBYTES_20 8562f349c8d58803cd6d3d3154aec858a63228f1",
        "scriptpubkey_type": "v0_p2wpkh",
        "scriptpubkey_address": "bc1qs430xjwg6kyq8ntd85c4ftkgtznry283qajmpc",
        "value": 3610000
      },
      "scriptsig": "",
      "scriptsig_asm": "",
      "witness": [
        "304402202319e8e408a8276b8167ca453f7548a07869f0a3c20a8b6c5a9212165aed641802205d433400e41c8920128972e9de361bb95dfccf1af8dea262ca9a3bde53688adf01",
        "036ef6af0050873186ad641e618fb69020c159ef5862bcc241cf4ae3053a496b5a"
      ],
      "is_coinbase": false,
      "sequence": 4294967293
    },
    {
      "txid": "d0ae43f47f00a3621c15af5780531631a043e4e423d142b3450eac524efdee82",
      "vout": 58,
      "prevout": {
        "scriptpubkey": "001402aa54b21278d1a8ad7c54b1a384d345292b52bc",
        "scriptpubkey_asm": "OP_0 OP_PUSHBYTES_20 02aa54b21278d1a8ad7c54b1a384d345292b52bc",
        "scriptpubkey_type": "v0_p2wpkh",
        "scriptpubkey_address": "bc1qq249fvsj0rg63ttu2jc68pxng55jk54uvn27l9",
        "value": 4000000
      },
      "scriptsig": "",
      "scriptsig_asm": "",
      "witness": [
        "304402202d33994d2d44fc8e10fc4cdeea47b75028f8011d4ab4e322d512df663a41feb402203e3cd23ca25a6b5781ed17b30a0ffc39fb636a68c60ecae06d5e44e2b4a69eea01",
        "03123bf24b5585a42d40608f3cab483d5905749ea0df80db088700f8282922111f"
      ],
      "is_coinbase": false,
      "sequence": 4294967293
    },
    {
      "txid": "d30d7991e9b9becb784888ca3fb28d8d6eea9b8880cc7b3e680c56277ff58522",
      "vout": 45,
      "prevout": {
        "scriptpubkey": "0014b92f6315294df23288f0b971bdbc62fe03cca21c",
        "scriptpubkey_asm": "OP_0 OP_PUSHBYTES_20 b92f6315294df23288f0b971bdbc62fe03cca21c",
        "scriptpubkey_type": "v0_p2wpkh",
        "scriptpubkey_address": "bc1qhyhkx9fffher9z8sh9cmm0rzlcpuegsurg4qwd",
        "value": 3500000
      },
      "scriptsig": "",
      "scriptsig_asm": "",
      "witness": [
        "3044022022e5c07be1b58c81ded4400b23453ca86e0d8f1f4d1580475adfc48a54b1452402202842129fad2a7bcd4c15a2bbddd1aee07fad1301561fd33d4f0b7235c044e16301",
        "039e5f3434b5fd3e485d922d3694804df4bfbcb9d2538ecdcaa933c5d535a9f950"
      ],
      "is_coinbase": false,
      "sequence": 4294967293
    },
    {
      "txid": "d67b355b7ffa0d7f6d659415f9dcff5d49be3378483d4008e29c60de77bb6532",
      "vout": 16,
      "prevout": {
        "scriptpubkey": "001408c8f422af365b89522a225866809a7775ef2b2d",
        "scriptpubkey_asm": "OP_0 OP_PUSHBYTES_20 08c8f422af365b89522a225866809a7775ef2b2d",
        "scriptpubkey_type": "v0_p2wpkh",
        "scriptpubkey_address": "bc1qpry0gg40xedcj532yfvxdqy6wa6772eda3qgwg",
        "value": 4925000
      },
      "scriptsig": "",
      "scriptsig_asm": "",
      "witness": [
        "3044022050b808605ee1beb91af0aac769218e6841c3baa9e1548857c1544f04d113a3ba02205123b4faf7ede51d1402c78c1da1e15020b4e157c8c4177cb9dbbbf66cdcef8501",
        "0232ed4b515600f93017623b85319956e3fce26df56d32e203248ac40e23dd4e8b"
      ],
      "is_coinbase": false,
      "sequence": 4294967293
    }
  ],
  "vout": [
    {
      "scriptpubkey": "001427228505f28b478abc2b41699eae0d22fec953ed",
      "scriptpubkey_asm": "OP_0 OP_PUSHBYTES_20 27228505f28b478abc2b41699eae0d22fec953ed",
      "scriptpubkey_type": "v0_p2wpkh",
      "scriptpubkey_address": "bc1qyu3g2p0j3drc40ptg95eatsdytlvj5ldrysv4q",
      "value": 34800
    },
    {
      "scriptpubkey": "a914018a54871ea96cc67af050e8594e6c3703ca101887",
      "scriptpubkey_asm": "OP_HASH160 OP_PUSHBYTES_20 018a54871ea96cc67af050e8594e6c3703ca1018 OP_EQUAL",
      "scriptpubkey_type": "p2sh",
      "scriptpubkey_address": "31qAK5ujiBaJcx9XyNpZbGiLewRz1puoxE",
      "value": 24975000
    }
  ],
  "size": 1259,
  "weight": 2462,
  "fee": 7419,
  "status": {
    "confirmed": true,
    "block_height": 834460,
    "block_hash": "00000000000000000000484a79b643b2524bbce82e5d8a442013fa5b8905ed98",
    "block_time": 1710307468
  },
  "hex": "020000000001088d846e42998e0eca99f9cd3bc49f1c377f18dea46c926ca53e5a0b8a27b8fe200000000000fdffffff407ec9246e9b9e81fd94e641a8e7e28437fbbe95ea95e0df29eb0999a32d446c0300000000fdffffff5265039f521c7bca7f36cbc725625a4618a5bd0d2725b45d08892b6d8fed577c0000000000fdffffffcf156e668237352506d611f4c4ad8da8ffcb68fb11acbc58fea0abb7f7469c8f0000000000fdffffff98d618eb87738dbd79ebdbdce348c655ddadb96bf5ab8450dfe338e81cbdd0ac2d00000000fdffffff82eefd4e52ac0e45b342d123e4e443a03116538057af151c62a3007ff443aed03a00000000fdffffff2285f57f27560c683e7bcc80889bea6e8d8db23fca884878cbbeb9e991790dd32d00000000fdffffff3265bb77de609ce208403d487833be495dffdcf91594656d7f0dfa7f5b357bd61000000000fdffffff02f08700000000000016001427228505f28b478abc2b41699eae0d22fec953ed98167d010000000017a914018a54871ea96cc67af050e8594e6c3703ca10188702473044022039a0761836c2bcaca7a3c7a057104d78e47af5d373d13716306b77d9aaa637e1022021bc8eef6a193b2ddf3b9bdf6c7e42e5934f260c3746b4033dfcfe99706046900121023a2b0c9db1dd4155eac2892549c52efde7bd72c0b97040f8e2cfac7b8da8af340247304402205c3a6a3e1431afa8df6ec8468f15de949a3f25f9eb02bd60dd79f81085d596ca02203b58e5c17f46ae85a83bc17e720506c452f3613bd17d7a91a5534a1f0f303bcf0121028e0f9bd3e4ee88461e07a1451e67ab82803c22478e51bf2da26e9eaf5e49d42502473044022015afa6ab5fa06c1fe64adc3f1b21290e56a2a708e0c8d88f36cfc1b1e6e705cd022008c742211c01897a8387ed253bdd7f4eec0cccd3c5d3eb012f5b53cd57ee5ba4012103208df2fd58fc24f0ef649010a4baf2dbbfe977557301fb5e53137c1cba54a0a30247304402200e1531a9390e8e81f555a2efbe8ce03189813e0ec58b5836430076ce90bb229b0220707551de16599daee9dbbd21a67baaa236762201f026817abed0667f2aacd3b3012102c6dc378a7a7c6c5806f64a34f9f761674d3b32a4b6473c5d6b0464c0a7a037ac0247304402202319e8e408a8276b8167ca453f7548a07869f0a3c20a8b6c5a9212165aed641802205d433400e41c8920128972e9de361bb95dfccf1af8dea262ca9a3bde53688adf0121036ef6af0050873186ad641e618fb69020c159ef5862bcc241cf4ae3053a496b5a0247304402202d33994d2d44fc8e10fc4cdeea47b75028f8011d4ab4e322d512df663a41feb402203e3cd23ca25a6b5781ed17b30a0ffc39fb636a68c60ecae06d5e44e2b4a69eea012103123bf24b5585a42d40608f3cab483d5905749ea0df80db088700f8282922111f02473044022022e5c07be1b58c81ded4400b23453ca86e0d8f1f4d1580475adfc48a54b1452402202842129fad2a7bcd4c15a2bbddd1aee07fad1301561fd33d4f0b7235c044e1630121039e5f3434b5fd3e485d922d3694804df4bfbcb9d2538ecdcaa933c5d535a9f95002473044022050b808605ee1beb91af0aac769218e6841c3baa9e1548857c1544f04d113a3ba02205123b4faf7ede51d1402c78c1da1e15020b4e157c8c4177cb9dbbbf66cdcef8501210232ed4b515600f93017623b85319956e3fce26df56d32e203248ac40e23dd4e8b9abb0c00"
}