{
  "txid": "d7f53da808083724990ba8a9c8cd757275af9c31d60fb7afa399f7c8d05ac3cd",
  "version": 1,
  "locktime": 0,
  "vin": [
    {
      "txid": "f9a5269185099aab85d4ef1832c0f0ecd82ad7d96ce15e92b1d95f9797268dd8",
      "vout": 1,
      "prevout": {
        "scriptpubkey": "00148c473c7fabe7c789d350978937da01b797cddc7f",
        "scriptpubkey_asm": "OP_0 OP_PUSHBYTES_20 8c473c7fabe7c789d350978937da01b797cddc7f",
        "scriptpubkey_type": "v0_p2wpkh",
        "scriptpubkey_address": "bc1q33rnclatulrcn56sj7yn0kspk7tumhrl2l5ydz",
        "value": 88645807
      },
      "scriptsig": "",
      "scriptsig_asm": "",
      "witness": [
        "304402205b823fca855f13f4473a85acc0e5a3e6c3626ead8b9633a9669616b765cba662022030f94721fc933785cbca83923d10e2d02719543a0b1939e8f0acfa21ac9db78b01",
        "02fdbbd276f6b873b788136848a9a916b333cfc671cec4253e7459b98ad7369c6b"
      ],
      "is_coinbase": false,
      "sequence": 4294967295
    }
  ],
  "vout": [
    {
      "scriptpubkey": "76a91427dd244c7af64f2862959235e906504bab807d6288ac",
      "scriptpubkey_asm": "OP_DUP OP_HASH160 OP_PUSHBYTES_20 27dd244c7af64f2862959235e906504bab807d62 OP_EQUALVERIFY OP_CHECKSIG",
      "scriptpubkey_type": "p2pkh",
      "scriptpubkey_address": "14dnGgaoza4eytFNvErixHTSktrCLuoirb",
      "value": 1200000
    },
    {
      "scriptpubkey": "00148c473c7fabe7c789d350978937da01b797cddc7f",
      "scriptpubkey_asm": "OP_0 OP_PUSHBYTES_20 8c473c7fabe7c789d350978937da01b797cddc7f",
      "scriptpubkey_type": "v0_p2wpkh",
      "scriptpubkey_address": "bc1q33rnclatulrcn56sj7yn0kspk7tumhrl2l5ydz",
      "value": 87438575
    }
  ],
  "size": 225,
  "weight": 573,
  "fee": 7232,
  "status": {
    "confirmed": true,
    "block_height": 834460,
    "block_hash": "00000000000000000000484a79b643b2524bbce82e5d8a442013fa5b8905ed98",
    "block_time": 1710307468
  },
  "hex": "01000000000101d88d2697975fd9b1925ee16cd9d72ad8ecf0c03218efd485ab9a09859126a5f90100000000ffffffff02804f1200000000001976a91427dd244c7af64f2862959235e906504bab807d6288acef343605000000001600148c473c7fabe7c789d350978937da01b797cddc7f0247304402205b823fca855f13f4473a85acc0e5a3e6c3626ead8b9633a9669616b765cba662022030f94721fc933785cbca83923d10e2d02719543a0b1939e8f0acfa21ac9db78b012102fdbbd276f6b873b788136848a9a916b333cfc671cec4253e7459b98ad7369c6b00000000"
}