{
  "txid": "d81ff50ebaff0e05977eb39b0620edd84a66488298d9ce37c7c916a3bdeb18d2",
  "version": 2,
  "locktime": 0,
  "vin": [
    {
      "txid": "94dbd20b0a6ce7299f2e2bbfaf47a49ba81b7f690bfb8204042fa85009acde34",
      "vout": 0,
      "prevout": {
        "scriptpubkey": "51204d686050833c54f5499882938a9b3aed5834fb9a6f064b7f3a93a7215ab171fa",
        "scriptpubkey_asm": "OP_PUSHNUM_1 OP_PUSHBYTES_32 4d686050833c54f5499882938a9b3aed5834fb9a6f064b7f3a93a7215ab171fa",
        "scriptpubkey_type": "v1_p2tr",
        "scriptpubkey_address": "bc1pf45xq5yr83202jvcs2fc4xe6a4vrf7u6durykle6jwnjzk43w8aqzmmvh0",
        "value": 46921
      },
      "scriptsig": "",
      "scriptsig_asm": "",
      "witness": [
        "f1aa4ec20649f3e50bc547f1f3cfd32a64da6bae88ce88243ba426220fbc95bf0a8389e151b27775bfa78cd06d4b6800ee56dbb121f5eb93b7380eafc5958161",
        "20f2d00e1cce0b839d2e197679cac7a15152ec244338032c7767f72c1332d49a65ac0063036f7264010109696d6167652f706e67004d080289504e470d0a1a0a0000000d4948445200000020000000200806000000737a7af4000002664944415458c363601805a36014e000efdebdfb0fc2d434f33f14208bb1e0b25c48488811c606d1303e32886192fdffe9df2f38ffb22c0f4357772b03bf9010c3c777ef18ca4aab19ac9ffe6280a96104029843606c2642a100b31c3d448c19f8512c07014e4e4e0c3390d5f831886384285607c02cc4c506590e53cbc7c406d7f7fdfb77ac1e4156037204ccf7381da028abfcdf58df94e1c4f163186c572145ac3e44b6043d44d0430a1475781d800ff032b210ad163d44608e4476100ba90ef8fcff0f9ccd1e6a0767b3727333987cfdcab06aed5ab89889851103830542ef4f201606aafb0254c7b07a35790e80011e3b7d30bd6af60c06255d3330fbdee55318ead0e5c252338076af66243b0460d1008ac4bea8270c4ff6fb301c9a2486532d4c0ea40e026418f0960342824244173e7e3590e8383793936c352889908b8beb3fb1e9005b9e2707a084c0b76fdf1839d839fe939ac28dd221ec734771ab87a951d1225010bd7bff8e116fe9282b425256c448bcc05c40b02424252b920ac0599050654408346f5dcad0d9d9050c4e05b08f608682b2183a3030d5c6b094e2108001501900321c44c3f8200c72148c8d2e4f95284007209f830c4f2a2846096698388886598c1e1a78131ca84ce0e71104b3ef3fbecb08aba860fcd0d0d0ffc8514c97404c029cbf600123d90e68f596ff3fe7120b8a8340e0f5e274b0a32e6cdd8e61c68547ef50d3849c10580c44bbae78843f3f81b22410a33aeaf11b080d6c136832f13154f4db30bc7cf78961fbcacd38cd81598aec20184d521a3871f72bc359868f8c30bce4df63469dfce58ce2427c0c9ee1be281682303e07e1931f05a380ae00001b8a28bf8c65749b0000000049454e44ae426082680063036f726401011e6170706c69636174696f6e2f6a736f6e3b636861727365743d7574662d38004d5d017b2270223a22766f7264222c2276223a312c227479223a22696e7363222c22636f6c223a2239376335383839396131316637303165373539656134666463643735623131343330343031313434653965623835336461623063646163346361336466353537222c22696964223a22426c6f636b42656573222c227075626c223a2231455337623370636a527a4667796969714c7278484b546e43686535364c4a485937222c226e6f6e6365223a313730302c226d696e746572223a22626331707a353564397036796d30646b6a75726c766b736d36617330646636376a616b636333787579643278647475376b7a71396168377130793279326e222c22736967223a22484e495755324f466f4552784e623172363876766a6d76477a6d6a704a4c6233323041746c4e6f6a5a6f4f515176732b6758646b2f2f78676d3130614257543842434e3265394e6b4875777a476f357348423437616e513d227d68",
        "c0f2d00e1cce0b839d2e197679cac7a15152ec244338032c7767f72c1332d49a65675a92934efa5e4869b2432a3e00abfc6819367af43949c2edc693b32d23ac05"
      ],
      "is_coinbase": false,
      "sequence": 4294967293
    }
  ],
  "vout": [
    {
      "scriptpubkey": "51201528d28744dbdb69707f65a1bd760f6a75e976d8c44dc235466af9eb0805edfc",
      "scriptpubkey_asm": "OP_PUSHNUM_1 OP_PUSHBYTES_32 1528d28744dbdb69707f65a1bd760f6a75e976d8c44dc235466af9eb0805edfc",
      "scriptpubkey_type": "v1_p2tr",
      "scriptpubkey_address": "bc1pz55d9p6ym0dkjurlvksm6as0df67jakcc3xuyd2xdtu7kzq9ah7q0y2y2n",
      "value": 1000
    },
    {
      "scriptpubkey": "a91436ef2050189c78f7cf99dea805ed1afc0b49d24787",
      "scriptpubkey_asm": "OP_HASH160 OP_PUSHBYTES_20 36ef2050189c78f7cf99dea805ed1afc0b49d247 OP_EQUAL",
      "scriptpubkey_type": "p2sh",
      "scriptpubkey_address": "36hUsgcXCY2fBJSGrRjUHxgPbg3yaDoFJd",
      "value": 37720
    },
    {
      "scriptpubkey": "51200705a5767db892e98125775049b1a13dd9ecdc8aea0df413cabbee683e871012",
      "scriptpubkey_asm": "OP_PUSHNUM_1 OP_PUSHBYTES_32 0705a5767db892e98125775049b1a13dd9ecdc8aea0df413cabbee683e871012",
      "scriptpubkey_type": "v1_p2tr",
      "scriptpubkey_address": "bc1pquz62anahzfwnqf9wagynvdp8hv7ehy2agxlgy72h0hxs058zqfqk8ksyq",
      "value": 2877
    }
  ],
  "size": 1429,
  "weight": 1936,
  "fee": 5324,
  "status": {
    "confirmed": true,
    "block_height": 834464,
    "block_hash": "0000000000000000000177a0869a911a2b65c9bdcd5a8bcb02b68f305bee848e",
    "block_time": 1710308296
  },
  "hex": "0200000000010134deac0950a82f040482fb0b697f1ba89ba447afbf2b2e9f29e76c0a0bd2db940000000000fdffffff03e8030000000000002251201528d28744dbdb69707f65a1bd760f6a75e976d8c44dc235466af9eb0805edfc589300000000000017a91436ef2050189c78f7cf99dea805ed1afc0b49d247873d0b0000000000002251200705a5767db892e98125775049b1a13dd9ecdc8aea0df413cabbee683e8710120340f1aa4ec20649f3e50bc547f1f3cfd32a64da6bae88ce88243ba426220fbc95bf0a8389e151b27775bfa78cd06d4b6800ee56dbb121f5eb93b7380eafc5958161fd630420f2d00e1cce0b839d2e197679cac7a15152ec244338032c7767f72c1332d49a65ac0063036f7264010109696d6167652f706e67004d080289504e470d0a1a0a0000000d4948445200000020000000200806000000737a7af4000002664944415458c363601805a36014e000efdebdfb0fc2d434f33f14208bb1e0b25c48488811c606d1303e32886192fdffe9df2f38ffb22c0f4357772b03bf9010c3c777ef18ca4aab19ac9ffe6280a96104029843606c2642a100b31c3d448c19f8512c07014e4e4e0c3390d5f831886384285607c02cc4c506590e53cbc7c406d7f7fdfb77ac1e4156037204ccf7381da028abfcdf58df94e1c4f163186c572145ac3e44b6043d44d0430a1475781d800ff032b210ad163d44608e4476100ba90ef8fcff0f9ccd1e6a0767b3727333987cfdcab06aed5ab89889851103830542ef4f201606aafb0254c7b07a35790e80011e3b7d30bd6af60c06255d3330fbdee55318ead0e5c252338076af66243b0460d1008ac4bea8270c4ff6fb301c9a2486532d4c0ea40e026418f0960342824244173e7e3590e8383793936c352889908b8beb3fb1e9005b9e2707a084c0b76fdf1839d839fe939ac28dd221ec734771ab87a951d1225010bd7bff8e116fe9282b425256c448bcc05c40b02424252b920ac0599050654408346f5dcad0d9d9050c4e05b08f608682b2183a3030d5c6b094e2108001501900321c44c3f8200c72148c8d2e4f95284007209f830c4f2a2846096698388886598c1e1a78131ca84ce0e71104b3ef3fbecb08aba860fcd0d0d0ffc8514c97404c029cbf600123d90e68f596ff3fe7120b8a8340e0f5e274b0a32e6cdd8e61c68547ef50d3849c10580c44bbae78843f3f81b22410a33aeaf11b080d6c136832f13154f4db30bc7cf78961fbcacd38cd81598aec20184d521a3871f72bc359868f8c30bce4df63469dfce58ce2427c0c9ee1be281682303e07e1931f05a380ae00001b8a28bf8c65749b0000000049454e44ae426082680063036f726401011e6170706c69636174696f6e2f6a736f6e3b636861727365743d7574662d38004d5d017b2270223a22766f7264222c2276223a312c227479223a22696e7363222c22636f6c223a2239376335383839396131316637303165373539656134666463643735623131343330343031313434653965623835336461623063646163346361336466353537222c22696964223a22426c6f636b42656573222c227075626c223a2231455337623370636a527a4667796969714c7278484b546e43686535364c4a485937222c226e6f6e6365223a313730302c226d696e746572223a22626331707a353564397036796d30646b6a75726c766b736d36617330646636376a616b636333787579643278647475376b7a71396168377130793279326e222c22736967223a22484e495755324f466f4552784e623172363876766a6d76477a6d6a704a4c6233323041746c4e6f6a5a6f4f515176732b6758646b2f2f78676d3130614257543842434e3265394e6b4875777a476f357348423437616e513d227d6841c0f2d00e1cce0b839d2e197679cac7a15152ec244338032c7767f72c1332d49a65675a92934efa5e4869b2432a3e00abfc6819367af43949c2edc693b32d23ac0500000000"
}