{
  "txid": "d8268bf2403e94ac9c58b0279c280d188a0fa17e72b733dbba67f3d034c7a7c7",
  "version": 1,
  "locktime": 0,
  "vin": [
    {
      "txid": "e70f96bdc2c935280cc5f3207c1499b19570af8c1221902e5ae2af7c0b9873ab",
      "vout": 0,
      "prevout": {
        "scriptpubkey": "00141c6977423aa4b82a0d7f8496cdf3fc2f8b4f580c",
        "scriptpubkey_asm": "OP_0 OP_PUSHBYTES_20 1c6977423aa4b82a0d7f8496cdf3fc2f8b4f580c",
        "scriptpubkey_type": "v0_p2wpkh",
        "scriptpubkey_address": "bc1qr35hws365juz5rtlsjtvmulu97957kqvr3zpw3",
        "value": 178538764
      },
      "scriptsig": "",
      "scriptsig_asm": "",
      "witness": [
        "3044022053d9b01c1ff97d830db02418c217f0abed95ac79d007cb13f7dd4c8ebbbb5a3702205e822807344ee02fc3d47d2d5528406547a6afa596fcdcbcd8aec02abf5e475201",
        "02084ad9ff2a070ef71f32375ff91e5f98448afc62bfb5934c3c15b4348cf11df7"
      ],
      "is_coinbase": false,
      "sequence": 4294967293
    }
  ],
  "vout": [
    {
      "scriptpubkey": "00141c6977423aa4b82a0d7f8496cdf3fc2f8b4f580c",
      "scriptpubkey_asm": "OP_0 OP_PUSHBYTES_20 1c6977423aa4b82a0d7f8496cdf3fc2f8b4f580c",
      "scriptpubkey_type": "v0_p2wpkh",
      "scriptpubkey_address": "bc1qr35hws365juz5rtlsjtvmulu97957kqvr3zpw3",
      "value": 173081179
    },
    {
      "scriptpubkey": "0014cd07d667364f1232e23abdbaf7ca70215b801efa",
      "scriptpubkey_asm": "OP_0 OP_PUSHBYTES_20 cd07d667364f1232e23abdbaf7ca70215b801efa",
      "scriptpubkey_type": "v0_p2wpkh",
      "scriptpubkey_address": "bc1qe5raveekfufr9c36hka00jnsy9dcq8h63sluy9",
      "value": 5451512
    }
  ],
  "size": 222,
  "weight": 561,
  "fee": 6073,
  "status": {
    "confirmed": true,
    "block_height": 834638,
    "block_hash": "000000000000000000025f742c626208ac87e0b7d15054abb4a19ca2d735a54e",
    "block_time": 1710405325
  },
  "hex": "01000000000101ab73980b7cafe25a2e9021128caf7095b199147c20f3c50c2835c9c2bd960fe70000000000fdffffff025b02510a000000001600141c6977423aa4b82a0d7f8496cdf3fc2f8b4f580cf82e530000000000160014cd07d667364f1232e23abdbaf7ca70215b801efa02473044022053d9b01c1ff97d830db02418c217f0abed95ac79d007cb13f7dd4c8ebbbb5a3702205e822807344ee02fc3d47d2d5528406547a6afa596fcdcbcd8aec02abf5e4752012102084ad9ff2a070ef71f32375ff91e5f98448afc62bfb5934c3c15b4348cf11df700000000"
}