{
  "txid": "d83885af7a465c6337e5e0ee014b2225ada2d47be3b4297b574000d94a551c13",
  "version": 2,
  "locktime": 0,
  "vin": [
    {
      "txid": "9f9da35c023fee745d28996ce551f93251c652c2059d6e7f9e9dc1c12ae71a0a",
      "vout": 3,
      "prevout": {
        "scriptpubkey": "a91401ca69a6e8f46df1428f9ab5c076aa2039a98c7c87",
        "scriptpubkey_asm": "OP_HASH160 OP_PUSHBYTES_20 01ca69a6e8f46df1428f9ab5c076aa2039a98c7c OP_EQUAL",
        "scriptpubkey_type": "p2sh",
        "scriptpubkey_address": "31rV5cj1JEYpAw1Uq41ZGpXTcZ9PpdQEQv",
        "value": 1362281
      },
      "scriptsig": "160014276fde970ed0f6414c0648fae98a00c8ba7574f5",
      "scriptsig_asm": "OP_PUSHBYTES_22 0014276fde970ed0f6414c0648fae98a00c8ba7574f5",
      "witness": [
        "304402205c6645a6155c1d8d657582d71134f80473c951a6a751b948b9a8d870fc531fe302205e65e551450cf3e649485476bd7fe86839ce7133de71438fe24dc440c310a6d401",
        "03c7cd0e42c9d96a0c944aa29c3ee2681d0659afe5b94a2e843dbcd80b10f5b652"
      ],
      "is_coinbase": false,
      "sequence": 4294967295,
      "inner_redeemscript_asm": "OP_0 OP_PUSHBYTES_20 276fde970ed0f6414c0648fae98a00c8ba7574f5"
    }
  ],
  "vout": [
    {
      "scriptpubkey": "76a914db20d93b803aac888e946bc9076fde6f46ad5d2488ac",
      "scriptpubkey_asm": "OP_DUP OP_HASH160 OP_PUSHBYTES_20 db20d93b803aac888e946bc9076fde6f46ad5d24 OP_EQUALVERIFY OP_CHECKSIG",
      "scriptpubkey_type": "p2pkh",
      "scriptpubkey_address": "1LyeLNQhEc3fxva8jKud51fwmojYSpkP5P",
      "value": 550000
    },
    {
      "scriptpubkey": "a9143a559c3101a69408147a56ad57504ccc6f023fba87",
      "scriptpubkey_asm": "OP_HASH160 OP_PUSHBYTES_20 3a559c3101a69408147a56ad57504ccc6f023fba OP_EQUAL",
      "scriptpubkey_type": "p2sh",
      "scriptpubkey_address": "371TfxxJ3Qibd1aViWUVPSndLG9QVdQj1T",
      "value": 680035
    },
    {
      "scriptpubkey": "a914387d787b1b77de6718f5fd31e450404abc0bef0587",
      "scriptpubkey_asm": "OP_HASH160 OP_PUSHBYTES_20 387d787b1b77de6718f5fd31e450404abc0bef05 OP_EQUAL",
      "scriptpubkey_type": "p2sh",
      "scriptpubkey_address": "36qi58ygsBbqPGkmSUryR47YF6UhSwhYfw",
      "value": 126864
    }
  ],
  "size": 281,
  "weight": 797,
  "fee": 5382,
  "status": {
    "confirmed": true,
    "block_height": 834638,
    "block_hash": "000000000000000000025f742c626208ac87e0b7d15054abb4a19ca2d735a54e",
    "block_time": 1710405325
  },
  "hex": "020000000001010a1ae72ac1c19d9e7f6e9d05c252c65132f951e56c99285d74ee3f025ca39d9f0300000017160014276fde970ed0f6414c0648fae98a00c8ba7574f5ffffffff0370640800000000001976a914db20d93b803aac888e946bc9076fde6f46ad5d2488ac63600a000000000017a9143a559c3101a69408147a56ad57504ccc6f023fba8790ef01000000000017a914387d787b1b77de6718f5fd31e450404abc0bef05870247304402205c6645a6155c1d8d657582d71134f80473c951a6a751b948b9a8d870fc531fe302205e65e551450cf3e649485476bd7fe86839ce7133de71438fe24dc440c310a6d4012103c7cd0e42c9d96a0c944aa29c3ee2681d0659afe5b94a2e843dbcd80b10f5b65200000000"
}