{
  "txid": "d856eab2c8d9e123b115fca70d78facc68c789e9f5acbaff251459b967f051d9",
  "version": 1,
  "locktime": 0,
  "vin": [
    {
      "txid": "fac9c643b0425ab8816e2c8a31ead22462daa3d70f4588fc96792c8830cfc303",
      "vout": 1,
      "prevout": {
        "scriptpubkey": "51209d6dbbf9bad17d0135e06ea56ec304df985f9f9bc809fa52ae6789a0947e0300",
        "scriptpubkey_asm": "OP_PUSHNUM_1 OP_PUSHBYTES_32 9d6dbbf9bad17d0135e06ea56ec304df985f9f9bc809fa52ae6789a0947e0300",
        "scriptpubkey_type": "v1_p2tr",
        "scriptpubkey_address": "bc1pn4kmh7d6697szd0qd6jkascym7v9l8umeqyl554wv7y6p9r7qvqquzkndh",
        "value": 389825
      },
      "scriptsig": "",
      "scriptsig_asm": "",
      "witness": [
        "ce2ac69554bec40d4de845938142663a59b9dc401217eebed4cd4615b6eefcfd46bf94288d9adad0b7809e26c1db7c66346c0ebbd0a1df634ed18464c2eab11f"
      ],
      "is_coinbase": false,
      "sequence": 0
    }
  ],
  "vout": [
    {
      "scriptpubkey": "5120d70d1d8fe74e150f866c6f8a57af00527550121eef0d26efdeb1f8ab63dce51c",
      "scriptpubkey_asm": "OP_PUSHNUM_1 OP_PUSHBYTES_32 d70d1d8fe74e150f866c6f8a57af00527550121eef0d26efdeb1f8ab63dce51c",
      "scriptpubkey_type": "v1_p2tr",
      "scriptpubkey_address": "bc1p6ux3mrl8fc2slpnvd7990tcq2f64qys7auxjdm77k8u2kc7uu5wqg8tzan",
      "value": 2710
    },
    {
      "scriptpubkey": "51209d6dbbf9bad17d0135e06ea56ec304df985f9f9bc809fa52ae6789a0947e0300",
      "scriptpubkey_asm": "OP_PUSHNUM_1 OP_PUSHBYTES_32 9d6dbbf9bad17d0135e06ea56ec304df985f9f9bc809fa52ae6789a0947e0300",
      "scriptpubkey_type": "v1_p2tr",
      "scriptpubkey_address": "bc1pn4kmh7d6697szd0qd6jkascym7v9l8umeqyl554wv7y6p9r7qvqquzkndh",
      "value": 385267
    }
  ],
  "size": 205,
  "weight": 616,
  "fee": 1848,
  "status": {
    "confirmed": true,
    "block_height": 834460,
    "block_hash": "00000000000000000000484a79b643b2524bbce82e5d8a442013fa5b8905ed98",
    "block_time": 1710307468
  },
  "hex": "0100000000010103c3cf30882c7996fc88450fd7a3da6224d2ea318a2c6e81b85a42b043c6c9fa01000000000000000002960a000000000000225120d70d1d8fe74e150f866c6f8a57af00527550121eef0d26efdeb1f8ab63dce51cf3e00500000000002251209d6dbbf9bad17d0135e06ea56ec304df985f9f9bc809fa52ae6789a0947e03000140ce2ac69554bec40d4de845938142663a59b9dc401217eebed4cd4615b6eefcfd46bf94288d9adad0b7809e26c1db7c66346c0ebbd0a1df634ed18464c2eab11f00000000"
}