{
  "txid": "d876e87acc413203c999db930024566b868fea8d543410edfbfcdaf0a4752ec2",
  "version": 2,
  "locktime": 0,
  "vin": [
    {
      "txid": "b7890ca0aa918315adce07d3f1d63295640b6f6c07396f42ad93cde224fbba7b",
      "vout": 1,
      "prevout": {
        "scriptpubkey": "51203ed9068d59f07b52ecbb9989a1d99580b17bb15d22059a3afd078ff6d50f2535",
        "scriptpubkey_asm": "OP_PUSHNUM_1 OP_PUSHBYTES_32 3ed9068d59f07b52ecbb9989a1d99580b17bb15d22059a3afd078ff6d50f2535",
        "scriptpubkey_type": "v1_p2tr",
        "scriptpubkey_address": "bc1p8mvsdr2e7pa49m9mnxy6rkv4szchhv2aygze5whaq78ld4g0y56svhzyk3",
        "value": 13222
      },
      "scriptsig": "",
      "scriptsig_asm": "",
      "witness": [
        "cd4deef63000bfbf5df8c757ce0d2b219cab4de3d54ceb9527d9c21156676eb481e467598e29b3d2dfd1f7916f070d608a8ef542175f975cab974ed4c499cbe6"
      ],
      "is_coinbase": false,
      "sequence": 4294967293
    }
  ],
  "vout": [
    {
      "scriptpubkey": "5120ad922af8d513b4814656bf9d30f391082890dd4c795ff28c66efb8a8030e174b",
      "scriptpubkey_asm": "OP_PUSHNUM_1 OP_PUSHBYTES_32 ad922af8d513b4814656bf9d30f391082890dd4c795ff28c66efb8a8030e174b",
      "scriptpubkey_type": "v1_p2tr",
      "scriptpubkey_address": "bc1p4kfz47x4zw6gz3jkh7wnpuu3pq5fph2v090l9rrxa7u2sqcwza9sa4xrtn",
      "value": 2826
    },
    {
      "scriptpubkey": "51203ed9068d59f07b52ecbb9989a1d99580b17bb15d22059a3afd078ff6d50f2535",
      "scriptpubkey_asm": "OP_PUSHNUM_1 OP_PUSHBYTES_32 3ed9068d59f07b52ecbb9989a1d99580b17bb15d22059a3afd078ff6d50f2535",
      "scriptpubkey_type": "v1_p2tr",
      "scriptpubkey_address": "bc1p8mvsdr2e7pa49m9mnxy6rkv4szchhv2aygze5whaq78ld4g0y56svhzyk3",
      "value": 8086
    }
  ],
  "size": 205,
  "weight": 616,
  "fee": 2310,
  "status": {
    "confirmed": true,
    "block_height": 834638,
    "block_hash": "000000000000000000025f742c626208ac87e0b7d15054abb4a19ca2d735a54e",
    "block_time": 1710405325
  },
  "hex": "020000000001017bbafb24e2cd93ad426f39076c6f0b649532d6f1d307cead158391aaa00c89b70100000000fdffffff020a0b000000000000225120ad922af8d513b4814656bf9d30f391082890dd4c795ff28c66efb8a8030e174b961f0000000000002251203ed9068d59f07b52ecbb9989a1d99580b17bb15d22059a3afd078ff6d50f25350140cd4deef63000bfbf5df8c757ce0d2b219cab4de3d54ceb9527d9c21156676eb481e467598e29b3d2dfd1f7916f070d608a8ef542175f975cab974ed4c499cbe600000000"
}