{
  "txid": "d882ea28435f2e33900640088c913bf8ae7bcfda19a05252507945bd9db4b6e4",
  "version": 2,
  "locktime": 0,
  "vin": [
    {
      "txid": "8486ecb4df0880316dd6e82b3971b4df187aff23765bc3a47f8d78bb53aa273c",
      "vout": 72,
      "prevout": {
        "scriptpubkey": "5120c634bc24b98ec0452fce624d7b2ca6e8a972f4eb1845b9d69884c9b969574975",
        "scriptpubkey_asm": "OP_PUSHNUM_1 OP_PUSHBYTES_32 c634bc24b98ec0452fce624d7b2ca6e8a972f4eb1845b9d69884c9b969574975",
        "scriptpubkey_type": "v1_p2tr",
        "scriptpubkey_address": "bc1pcc6tcf9e3mqy2t7wvfxhkt9xaz5h9a8trpzmn45csnymj62hf96sdj8uz2",
        "value": 2575
      },
      "scriptsig": "",
      "scriptsig_asm": "",
      "witness": [
        "d88110fee7400ed5ef64bbcd1d02db710dcd29cb2a57c946baad95ce9ccfa0bfac086c9b0f89404be85d3cb4cd4d04a441ea28b29a87a58480130a25b0d3e2f5",
        "20d56f36f0a996f183509322daf5fb58f8f4d5561f89d3b3906759b08ea3a98636ac0063036f726401010a746578742f706c61696e00367b2270223a226272632d3230222c226f70223a226d696e74222c227469636b223a2261616161222c22616d74223a223130303030227d68",
        "c0d56f36f0a996f183509322daf5fb58f8f4d5561f89d3b3906759b08ea3a98636"
      ],
      "is_coinbase": false,
      "sequence": 4261412863
    }
  ],
  "vout": [
    {
      "scriptpubkey": "0014ddd7ef12ea6f78edcc1e8e7afa12c01ab59f3339",
      "scriptpubkey_asm": "OP_0 OP_PUSHBYTES_20 ddd7ef12ea6f78edcc1e8e7afa12c01ab59f3339",
      "scriptpubkey_type": "v0_p2wpkh",
      "scriptpubkey_address": "bc1qmht77yh2dauwmnq73ea05ykqr26e7veea8spz6",
      "value": 546
    }
  ],
  "size": 295,
  "weight": 541,
  "fee": 2029,
  "status": {
    "confirmed": true,
    "block_height": 834460,
    "block_hash": "00000000000000000000484a79b643b2524bbce82e5d8a442013fa5b8905ed98",
    "block_time": 1710307468
  },
  "hex": "020000000001013c27aa53bb788d7fa4c35b7623ff7a18dfb471392be8d66d318008dfb4ec86844800000000fffffffd012202000000000000160014ddd7ef12ea6f78edcc1e8e7afa12c01ab59f33390340d88110fee7400ed5ef64bbcd1d02db710dcd29cb2a57c946baad95ce9ccfa0bfac086c9b0f89404be85d3cb4cd4d04a441ea28b29a87a58480130a25b0d3e2f56e20d56f36f0a996f183509322daf5fb58f8f4d5561f89d3b3906759b08ea3a98636ac0063036f726401010a746578742f706c61696e00367b2270223a226272632d3230222c226f70223a226d696e74222c227469636b223a2261616161222c22616d74223a223130303030227d6821c0d56f36f0a996f183509322daf5fb58f8f4d5561f89d3b3906759b08ea3a9863600000000"
}