{
  "txid": "d884a04e05aa9d2c80274e32876234b7a512b9aa19d8cc38d31d5b8914b4294c",
  "version": 1,
  "locktime": 0,
  "vin": [
    {
      "txid": "2e2271af3853865bad54e5bf022bd71c34f25d81c325513f7d5a2a770331f338",
      "vout": 0,
      "prevout": {
        "scriptpubkey": "0014aa05d5814aa07de4ad18e016255930c3b0c2335b",
        "scriptpubkey_asm": "OP_0 OP_PUSHBYTES_20 aa05d5814aa07de4ad18e016255930c3b0c2335b",
        "scriptpubkey_type": "v0_p2wpkh",
        "scriptpubkey_address": "bc1q4gzatq225p77ftgcuqtz2kfscwcvyv6mhsj9an",
        "value": 278037
      },
      "scriptsig": "",
      "scriptsig_asm": "",
      "witness": [
        "30440220013be79e4b0e07f35425f3c0d3d3aea91a87f401ca0aaca624f6ec5ebb53c547022017b74e55648db1f7d6e7fddc782628a48214ec16310e3899b57feb1c716c250d01",
        "029fcbdad30030a1d108bd259f3243e0dd8eaeaf38851d8537a2c844b33c39a83c"
      ],
      "is_coinbase": false,
      "sequence": 4294967295
    },
    {
      "txid": "5413137088037951d1d4b7c4f7813538b8cd5459e30aba626ec809a2824ce99c",
      "vout": 0,
      "prevout": {
        "scriptpubkey": "0014dc0e066068da589256f890c29c72aa5f8157d1e7",
        "scriptpubkey_asm": "OP_0 OP_PUSHBYTES_20 dc0e066068da589256f890c29c72aa5f8157d1e7",
        "scriptpubkey_type": "v0_p2wpkh",
        "scriptpubkey_address": "bc1qms8qvcrgmfvfy4hcjrpfcu42t7q40508t8wyqq",
        "value": 5412
      },
      "scriptsig": "",
      "scriptsig_asm": "",
      "witness": [
        "3044022007aff3be0f43157ab3423f3c69472261e7efc324bbc1e7f1ca69e57d4f6a8e1502204851520956dec6e0c69b91f550bfea7851ecac2fbc658d7b9f38776e6d2b340901",
        "03ddb2b903ce2c6262a4be8466f5b97997d31827e03356a7f976f592ccb610cdb5"
      ],
      "is_coinbase": false,
      "sequence": 4294967295
    }
  ],
  "vout": [
    {
      "scriptpubkey": "0014bd6e791cfc1bd8a030188f5e327212de648a4a3a",
      "scriptpubkey_asm": "OP_0 OP_PUSHBYTES_20 bd6e791cfc1bd8a030188f5e327212de648a4a3a",
      "scriptpubkey_type": "v0_p2wpkh",
      "scriptpubkey_address": "bc1qh4h8j88ur0v2qvqc3a0ryusjmejg5j36qyj3a7",
      "value": 766
    },
    {
      "scriptpubkey": "a91418aa73fb385458b385aaa597b2f9c0c0f67497f687",
      "scriptpubkey_asm": "OP_HASH160 OP_PUSHBYTES_20 18aa73fb385458b385aaa597b2f9c0c0f67497f6 OP_EQUAL",
      "scriptpubkey_type": "p2sh",
      "scriptpubkey_address": "33wSLS66xMBvecP4mKtgLqgJRkkiUjYBWR",
      "value": 280395
    }
  ],
  "size": 371,
  "weight": 836,
  "fee": 2288,
  "status": {
    "confirmed": true,
    "block_height": 834464,
    "block_hash": "0000000000000000000177a0869a911a2b65c9bdcd5a8bcb02b68f305bee848e",
    "block_time": 1710308296
  },
  "hex": "0100000000010238f33103772a5a7d3f5125c3815df2341cd72b02bfe554ad5b865338af71222e0000000000ffffffff9ce94c82a209c86e62ba0ae35954cdb8383581f7c4b7d4d151790388701313540000000000ffffffff02fe02000000000000160014bd6e791cfc1bd8a030188f5e327212de648a4a3a4b4704000000000017a91418aa73fb385458b385aaa597b2f9c0c0f67497f687024730440220013be79e4b0e07f35425f3c0d3d3aea91a87f401ca0aaca624f6ec5ebb53c547022017b74e55648db1f7d6e7fddc782628a48214ec16310e3899b57feb1c716c250d0121029fcbdad30030a1d108bd259f3243e0dd8eaeaf38851d8537a2c844b33c39a83c02473044022007aff3be0f43157ab3423f3c69472261e7efc324bbc1e7f1ca69e57d4f6a8e1502204851520956dec6e0c69b91f550bfea7851ecac2fbc658d7b9f38776e6d2b3409012103ddb2b903ce2c6262a4be8466f5b97997d31827e03356a7f976f592ccb610cdb500000000"
}