{
  "txid": "d88c1ed915ddef523210e81f065e497c043d032dbc137cb64db8b69cd6ac73c8",
  "version": 2,
  "locktime": 0,
  "vin": [
    {
      "txid": "27403218d21e6b69c358a2918d8a11a5bac7ee8fa68e42fd7e8ae93e0ec86892",
      "vout": 1,
      "prevout": {
        "scriptpubkey": "0014f109ab4a2006d33f7525d32c4ffb835b6f31cbac",
        "scriptpubkey_asm": "OP_0 OP_PUSHBYTES_20 f109ab4a2006d33f7525d32c4ffb835b6f31cbac",
        "scriptpubkey_type": "v0_p2wpkh",
        "scriptpubkey_address": "bc1q7yy6kj3qqmfn7af96vkyl7urtdhnrjavsppz63",
        "value": 23448
      },
      "scriptsig": "",
      "scriptsig_asm": "",
      "witness": [
        "304402206e82167261679a5d9337e0399000ceb23ab3d8e2a11ab3127c1b08bc9a2538050220133015160c1eb017dfd5dbedb651e8b246ee4849bec4a2471aa88d97781c6a8e01",
        "024d7fb47dd80ad31c0b86f4bfb3d336866e96d6cc228a94e4f967dc813b5da6b6"
      ],
      "is_coinbase": false,
      "sequence": 4294967295
    }
  ],
  "vout": [
    {
      "scriptpubkey": "0014bcaed750ceaae1aa0a24e608aca342997f798256",
      "scriptpubkey_asm": "OP_0 OP_PUSHBYTES_20 bcaed750ceaae1aa0a24e608aca342997f798256",
      "scriptpubkey_type": "v0_p2wpkh",
      "scriptpubkey_address": "bc1qhjhdw5xw4ts65z3yucy2eg6zn9lhnqjk3ttufd",
      "value": 4145
    },
    {
      "scriptpubkey": "0014a6580378a6ec59f331a6fa914e56e4a1a73f663d",
      "scriptpubkey_asm": "OP_0 OP_PUSHBYTES_20 a6580378a6ec59f331a6fa914e56e4a1a73f663d",
      "scriptpubkey_type": "v0_p2wpkh",
      "scriptpubkey_address": "bc1q5evqx79xa3vlxvdxl2g5u4hy5xnn7e3anmp5pt",
      "value": 17780
    }
  ],
  "size": 222,
  "weight": 561,
  "fee": 1523,
  "status": {
    "confirmed": true,
    "block_height": 834464,
    "block_hash": "0000000000000000000177a0869a911a2b65c9bdcd5a8bcb02b68f305bee848e",
    "block_time": 1710308296
  },
  "hex": "020000000001019268c80e3ee98a7efd428ea68feec7baa5118a8d91a258c3696b1ed2183240270100000000ffffffff023110000000000000160014bcaed750ceaae1aa0a24e608aca342997f7982567445000000000000160014a6580378a6ec59f331a6fa914e56e4a1a73f663d0247304402206e82167261679a5d9337e0399000ceb23ab3d8e2a11ab3127c1b08bc9a2538050220133015160c1eb017dfd5dbedb651e8b246ee4849bec4a2471aa88d97781c6a8e0121024d7fb47dd80ad31c0b86f4bfb3d336866e96d6cc228a94e4f967dc813b5da6b600000000"
}