{
  "txid": "d88f50ef0357e84ef769a7e5dee65b43b6ed2576d99a9576091d6bece77b3ce3",
  "version": 1,
  "locktime": 0,
  "vin": [
    {
      "txid": "7cc54c197531000903da648c1d2b5de0ea35efb91431e35c29518538771178e4",
      "vout": 0,
      "prevout": {
        "scriptpubkey": "001429fa3631d1ba811a843ee4cd2ec3e2f0b8e7584c",
        "scriptpubkey_asm": "OP_0 OP_PUSHBYTES_20 29fa3631d1ba811a843ee4cd2ec3e2f0b8e7584c",
        "scriptpubkey_type": "v0_p2wpkh",
        "scriptpubkey_address": "bc1q98arvvw3h2q34pp7unxjaslz7zuwwkzvdk6hyj",
        "value": 57178
      },
      "scriptsig": "",
      "scriptsig_asm": "",
      "witness": [
        "3045022100e9f8461c6f44be2344d2a3325feab547a152f3d35f846974430b92c35fdec9ea02207f12f16a50e4881289ce0ab5a242d76711da4615d7f8cfa048320e418523df0801",
        "029dd01d3d2b5bae3aa063b29b8eef9af85e3fe4790ba5c97a0be9567f1c39d644"
      ],
      "is_coinbase": false,
      "sequence": 4294967295
    }
  ],
  "vout": [
    {
      "scriptpubkey": "a914d14e4b6739978ef46f444a4c2063fda3933c0ed587",
      "scriptpubkey_asm": "OP_HASH160 OP_PUSHBYTES_20 d14e4b6739978ef46f444a4c2063fda3933c0ed5 OP_EQUAL",
      "scriptpubkey_type": "p2sh",
      "scriptpubkey_address": "3LmiwdsjRE11JShQZBhnpxuct9BA2jPqEs",
      "value": 54181
    }
  ],
  "size": 193,
  "weight": 442,
  "fee": 2997,
  "status": {
    "confirmed": true,
    "block_height": 834638,
    "block_hash": "000000000000000000025f742c626208ac87e0b7d15054abb4a19ca2d735a54e",
    "block_time": 1710405325
  },
  "hex": "01000000000101e4781177388551295ce33114b9ef35eae05d2b1d8c64da0309003175194cc57c0000000000ffffffff01a5d300000000000017a914d14e4b6739978ef46f444a4c2063fda3933c0ed58702483045022100e9f8461c6f44be2344d2a3325feab547a152f3d35f846974430b92c35fdec9ea02207f12f16a50e4881289ce0ab5a242d76711da4615d7f8cfa048320e418523df080121029dd01d3d2b5bae3aa063b29b8eef9af85e3fe4790ba5c97a0be9567f1c39d64400000000"
}