{
  "txid": "d8accf0140a68afbfd9a31988798775b83219728c085c5971015b82e3cc2d83f",
  "version": 2,
  "locktime": 0,
  "vin": [
    {
      "txid": "32dfd22f158aeff104961d8f929fc37b6c253db012ac11397729bfdc61e1f03b",
      "vout": 0,
      "prevout": {
        "scriptpubkey": "001488634cb0dd4969efb6d6387afc0e660c5a74609f",
        "scriptpubkey_asm": "OP_0 OP_PUSHBYTES_20 88634cb0dd4969efb6d6387afc0e660c5a74609f",
        "scriptpubkey_type": "v0_p2wpkh",
        "scriptpubkey_address": "bc1q3p35evxaf957ldkk8pa0crnxp3d8gcylwc37v6",
        "value": 16597
      },
      "scriptsig": "",
      "scriptsig_asm": "",
      "witness": [
        "30450221009d56c5a47805790d7c503181a0c7a6d5b723ad2232a49b537eca87a7a24a27ed022033dd35ec8608bc12c388bbded3acbde695bc6ba76c632750b29c452916cc2f3d01",
        "02c71270685579f450acd693d474945bfb3ecd1dc7ee77d47cbef2ce40f78d450e"
      ],
      "is_coinbase": false,
      "sequence": 4294967295
    }
  ],
  "vout": [
    {
      "scriptpubkey": "a914d4ce23e3782b80a38ea0b93fb491f34009f8394287",
      "scriptpubkey_asm": "OP_HASH160 OP_PUSHBYTES_20 d4ce23e3782b80a38ea0b93fb491f34009f83942 OP_EQUAL",
      "scriptpubkey_type": "p2sh",
      "scriptpubkey_address": "3M6E85nPzwEtGyaysq8NCjMrrfHmhv7LLc",
      "value": 14909
    }
  ],
  "size": 193,
  "weight": 442,
  "fee": 1688,
  "status": {
    "confirmed": true,
    "block_height": 834638,
    "block_hash": "000000000000000000025f742c626208ac87e0b7d15054abb4a19ca2d735a54e",
    "block_time": 1710405325
  },
  "hex": "020000000001013bf0e161dcbf29773911ac12b03d256c7bc39f928f1d9604f1ef8a152fd2df320000000000ffffffff013d3a00000000000017a914d4ce23e3782b80a38ea0b93fb491f34009f8394287024830450221009d56c5a47805790d7c503181a0c7a6d5b723ad2232a49b537eca87a7a24a27ed022033dd35ec8608bc12c388bbded3acbde695bc6ba76c632750b29c452916cc2f3d012102c71270685579f450acd693d474945bfb3ecd1dc7ee77d47cbef2ce40f78d450e00000000"
}