{
  "txid": "d8bfcc19f0adb907cbe6cf7a50b5f593a8a26f046742336389849bd8677ce4e0",
  "version": 2,
  "locktime": 0,
  "vin": [
    {
      "txid": "21a8306d891897a50269d4c46bba18cb836cc8108bc561fa623166cca891f159",
      "vout": 1,
      "prevout": {
        "scriptpubkey": "0014f60834ef165253c571b11ce9fa74e46692fc5ec1",
        "scriptpubkey_asm": "OP_0 OP_PUSHBYTES_20 f60834ef165253c571b11ce9fa74e46692fc5ec1",
        "scriptpubkey_type": "v0_p2wpkh",
        "scriptpubkey_address": "bc1q7cyrfmck2ffu2ud3rn5l5a8yv6f0chkp0zpemf",
        "value": 1249407405
      },
      "scriptsig": "",
      "scriptsig_asm": "",
      "witness": [
        "304402206b338bd7bfb37b8c93f1b772e4fc3db47f914174a12ab919ee867df4ebfb2a130220119aa1411a213cbcfa5cccd4be19f1055f842cc486999e9bd8adf5e00ff973d301",
        "026e5628506ecd33242e5ceb5fdafe4d3066b5c0f159b3c05a621ef65f177ea286"
      ],
      "is_coinbase": false,
      "sequence": 4294967293
    }
  ],
  "vout": [
    {
      "scriptpubkey": "001462b4c20eaeea199d0f55280f5bac09ef17b16fce",
      "scriptpubkey_asm": "OP_0 OP_PUSHBYTES_20 62b4c20eaeea199d0f55280f5bac09ef17b16fce",
      "scriptpubkey_type": "v0_p2wpkh",
      "scriptpubkey_address": "bc1qv26vyr4wagve6r649q84htqfautmzm7wnmsh3y",
      "value": 108140
    },
    {
      "scriptpubkey": "0014f60834ef165253c571b11ce9fa74e46692fc5ec1",
      "scriptpubkey_asm": "OP_0 OP_PUSHBYTES_20 f60834ef165253c571b11ce9fa74e46692fc5ec1",
      "scriptpubkey_type": "v0_p2wpkh",
      "scriptpubkey_address": "bc1q7cyrfmck2ffu2ud3rn5l5a8yv6f0chkp0zpemf",
      "value": 1249294945
    }
  ],
  "size": 222,
  "weight": 561,
  "fee": 4320,
  "status": {
    "confirmed": true,
    "block_height": 834638,
    "block_hash": "000000000000000000025f742c626208ac87e0b7d15054abb4a19ca2d735a54e",
    "block_time": 1710405325
  },
  "hex": "0200000000010159f191a8cc663162fa61c58b10c86c83cb18ba6bc4d46902a59718896d30a8210100000000fdffffff026ca601000000000016001462b4c20eaeea199d0f55280f5bac09ef17b16fce61ba764a00000000160014f60834ef165253c571b11ce9fa74e46692fc5ec10247304402206b338bd7bfb37b8c93f1b772e4fc3db47f914174a12ab919ee867df4ebfb2a130220119aa1411a213cbcfa5cccd4be19f1055f842cc486999e9bd8adf5e00ff973d30121026e5628506ecd33242e5ceb5fdafe4d3066b5c0f159b3c05a621ef65f177ea28600000000"
}