{
  "txid": "d8d129d6e734c1fb8483c7745677b1d4504137c1318785955054f432d1b44f57",
  "version": 2,
  "locktime": 0,
  "vin": [
    {
      "txid": "b7a717a08d7bb771d800c19fda05a4e7ac9bc9acd6c3ebae94156b8bd6166344",
      "vout": 0,
      "prevout": {
        "scriptpubkey": "51201228b7c72436032efaf15f4ed2f1cda01394c6116a1efb165c04ccdd3d1e3133",
        "scriptpubkey_asm": "OP_PUSHNUM_1 OP_PUSHBYTES_32 1228b7c72436032efaf15f4ed2f1cda01394c6116a1efb165c04ccdd3d1e3133",
        "scriptpubkey_type": "v1_p2tr",
        "scriptpubkey_address": "bc1pzg5t03eyxcpja7h3ta8d9uwd5qfef3s3dg00k9juqnxd60g7xyesr4vyur",
        "value": 3738
      },
      "scriptsig": "",
      "scriptsig_asm": "",
      "witness": [
        "ceccc8f4111ad60aa0d5c9bae7ed5fefa628076768cc881d8b6e7135567d8a7693fe0d8e16203d1d75b893450e277473f9b453528685bd5aac79b56f5302dd7e",
        "20a9bf1d170b0da6054c52e7eb0d7bb2ae33ff12c02de5983abb201a8549569373ac0063036f7264010118746578742f706c61696e3b636861727365743d7574662d3800397b2270223a226272632d3230222c226f70223a227472616e73666572222c227469636b223a2244654149222c22616d74223a2236303030227d68",
        "c0a9bf1d170b0da6054c52e7eb0d7bb2ae33ff12c02de5983abb201a8549569373"
      ],
      "is_coinbase": false,
      "sequence": 4294967293
    }
  ],
  "vout": [
    {
      "scriptpubkey": "5120c5625f5606a8688f57f1efd79e1e9baaa4d5e68530635d6762c5de11fa995360",
      "scriptpubkey_asm": "OP_PUSHNUM_1 OP_PUSHBYTES_32 c5625f5606a8688f57f1efd79e1e9baaa4d5e68530635d6762c5de11fa995360",
      "scriptpubkey_type": "v1_p2tr",
      "scriptpubkey_address": "bc1pc43974sx4p5g74l3alteu85m42jdte59xp346emzch0pr75e2dsq7wsvzu",
      "value": 546
    }
  ],
  "size": 324,
  "weight": 606,
  "fee": 3192,
  "status": {
    "confirmed": true,
    "block_height": 834460,
    "block_hash": "00000000000000000000484a79b643b2524bbce82e5d8a442013fa5b8905ed98",
    "block_time": 1710307468
  },
  "hex": "02000000000101446316d68b6b1594aeebc3d6acc99bace7a405da9fc100d871b77b8da017a7b70000000000fdffffff012202000000000000225120c5625f5606a8688f57f1efd79e1e9baaa4d5e68530635d6762c5de11fa9953600340ceccc8f4111ad60aa0d5c9bae7ed5fefa628076768cc881d8b6e7135567d8a7693fe0d8e16203d1d75b893450e277473f9b453528685bd5aac79b56f5302dd7e7f20a9bf1d170b0da6054c52e7eb0d7bb2ae33ff12c02de5983abb201a8549569373ac0063036f7264010118746578742f706c61696e3b636861727365743d7574662d3800397b2270223a226272632d3230222c226f70223a227472616e73666572222c227469636b223a2244654149222c22616d74223a2236303030227d6821c0a9bf1d170b0da6054c52e7eb0d7bb2ae33ff12c02de5983abb201a854956937300000000"
}