{
  "txid": "d90ebf4ddbe21e8865117fcc940ec652e771c6fda2d74b6193a128429ee5f8e3",
  "version": 2,
  "locktime": 0,
  "vin": [
    {
      "txid": "057bfb3b104bacbe19fb9467e3eb7c2a3947a7c9b2467d758f2cdd82947180a8",
      "vout": 1,
      "prevout": {
        "scriptpubkey": "0014b8051c207e4a8378cb92ae0255902d11f611a63b",
        "scriptpubkey_asm": "OP_0 OP_PUSHBYTES_20 b8051c207e4a8378cb92ae0255902d11f611a63b",
        "scriptpubkey_type": "v0_p2wpkh",
        "scriptpubkey_address": "bc1qhqz3cgr7f2ph3juj4cp9typdz8mprf3mfff9r6",
        "value": 5915425
      },
      "scriptsig": "",
      "scriptsig_asm": "",
      "witness": [
        "30440220309a4478fa75e02bbd46185977230aca27f57c2cb79bfbdeb955635034cd89ed02206df778f50a9b14a92a1791b8fad206b0a00e3f3b045abdf4598aad5fdb3fdc0f01",
        "033524b9676ea2b28890e87320a1999091286bb01a17c5bae0932a3f06e37c9880"
      ],
      "is_coinbase": false,
      "sequence": 4294967295
    }
  ],
  "vout": [
    {
      "scriptpubkey": "001431df3c2150a02eac7de5532d7e3323d5ddf395f7",
      "scriptpubkey_asm": "OP_0 OP_PUSHBYTES_20 31df3c2150a02eac7de5532d7e3323d5ddf395f7",
      "scriptpubkey_type": "v0_p2wpkh",
      "scriptpubkey_address": "bc1qx80ncg2s5qh2cl092vkhuver6hwl890hr89u0h",
      "value": 4084318
    },
    {
      "scriptpubkey": "0014b8051c207e4a8378cb92ae0255902d11f611a63b",
      "scriptpubkey_asm": "OP_0 OP_PUSHBYTES_20 b8051c207e4a8378cb92ae0255902d11f611a63b",
      "scriptpubkey_type": "v0_p2wpkh",
      "scriptpubkey_address": "bc1qhqz3cgr7f2ph3juj4cp9typdz8mprf3mfff9r6",
      "value": 1827383
    }
  ],
  "size": 222,
  "weight": 561,
  "fee": 3724,
  "status": {
    "confirmed": true,
    "block_height": 834638,
    "block_hash": "000000000000000000025f742c626208ac87e0b7d15054abb4a19ca2d735a54e",
    "block_time": 1710405325
  },
  "hex": "02000000000101a880719482dd2c8f757d46b2c9a747392a7cebe36794fb19beac4b103bfb7b050100000000ffffffff025e523e000000000016001431df3c2150a02eac7de5532d7e3323d5ddf395f737e21b0000000000160014b8051c207e4a8378cb92ae0255902d11f611a63b024730440220309a4478fa75e02bbd46185977230aca27f57c2cb79bfbdeb955635034cd89ed02206df778f50a9b14a92a1791b8fad206b0a00e3f3b045abdf4598aad5fdb3fdc0f0121033524b9676ea2b28890e87320a1999091286bb01a17c5bae0932a3f06e37c988000000000"
}