{
  "txid": "d919d66c2fc1f1710d858d0a46f3e9536722aa85b8247cab9ed5fef3545c8646",
  "version": 2,
  "locktime": 834637,
  "vin": [
    {
      "txid": "d3463ec9fb16032c62bed673c9bfef7c10d65d1ef46d87a3277e0ee405e3375d",
      "vout": 3,
      "prevout": {
        "scriptpubkey": "00143df8514e326e92044e5221cf914c68b96dd51bf0",
        "scriptpubkey_asm": "OP_0 OP_PUSHBYTES_20 3df8514e326e92044e5221cf914c68b96dd51bf0",
        "scriptpubkey_type": "v0_p2wpkh",
        "scriptpubkey_address": "bc1q8hu9zn3jd6fqgnjjy88eznrgh9ka2xls3w8y7x",
        "value": 55990800
      },
      "scriptsig": "",
      "scriptsig_asm": "",
      "witness": [
        "30440220490b94a8f1aa5a1a358fa8a6c3ab15062da1abf4bef645d7d8b37fa4b8ac55ed02202077f6a968dc3836699c96e19cd835fa7cae667f6dacc1aa0487d25510d27c3a01",
        "03be8e93e4665fb126ecdbc82170be00d5ddf457572f8993856202d0ff6aa395f7"
      ],
      "is_coinbase": false,
      "sequence": 4294967293
    }
  ],
  "vout": [
    {
      "scriptpubkey": "001470df86e39a4f4da89a3d437afb2e5323981e472e",
      "scriptpubkey_asm": "OP_0 OP_PUSHBYTES_20 70df86e39a4f4da89a3d437afb2e5323981e472e",
      "scriptpubkey_type": "v0_p2wpkh",
      "scriptpubkey_address": "bc1qwr0cdcu6fax63x3agda0ktjnywvpu3ewtx38zs",
      "value": 15986100
    },
    {
      "scriptpubkey": "001433c30e1361f51166c4d5e8f4c8626ba1e0ee309e",
      "scriptpubkey_asm": "OP_0 OP_PUSHBYTES_20 33c30e1361f51166c4d5e8f4c8626ba1e0ee309e",
      "scriptpubkey_type": "v0_p2wpkh",
      "scriptpubkey_address": "bc1qx0psuymp75gkd3x4ar6vscnt58swuvy70lr24x",
      "value": 20000000
    },
    {
      "scriptpubkey": "00146ee3c5545904ef9801849841070886d4b98a5195",
      "scriptpubkey_asm": "OP_0 OP_PUSHBYTES_20 6ee3c5545904ef9801849841070886d4b98a5195",
      "scriptpubkey_type": "v0_p2wpkh",
      "scriptpubkey_address": "bc1qdm3u24zeqnhesqvynpqswzyx6juc55v4ftgduz",
      "value": 20000000
    }
  ],
  "size": 253,
  "weight": 685,
  "fee": 4700,
  "status": {
    "confirmed": true,
    "block_height": 834638,
    "block_hash": "000000000000000000025f742c626208ac87e0b7d15054abb4a19ca2d735a54e",
    "block_time": 1710405325
  },
  "hex": "020000000001015d37e305e40e7e27a3876df41e5dd6107cefbfc973d6be622c0316fbc93e46d30300000000fdffffff03b4edf3000000000016001470df86e39a4f4da89a3d437afb2e5323981e472e002d31010000000016001433c30e1361f51166c4d5e8f4c8626ba1e0ee309e002d3101000000001600146ee3c5545904ef9801849841070886d4b98a5195024730440220490b94a8f1aa5a1a358fa8a6c3ab15062da1abf4bef645d7d8b37fa4b8ac55ed02202077f6a968dc3836699c96e19cd835fa7cae667f6dacc1aa0487d25510d27c3a012103be8e93e4665fb126ecdbc82170be00d5ddf457572f8993856202d0ff6aa395f74dbc0c00"
}