{
  "txid": "d91fcd5be049bbbca831c9ada8515ac1cefeed7972a8d0a919f561c3f13d5d6e",
  "version": 2,
  "locktime": 0,
  "vin": [
    {
      "txid": "28b33b348b307d6b06d6ad50e901a84fb49d8209ac0e88868a9424adab36a271",
      "vout": 1,
      "prevout": {
        "scriptpubkey": "00145aa21bb67176dce53e21d6c0fbce4ff7dd5c877a",
        "scriptpubkey_asm": "OP_0 OP_PUSHBYTES_20 5aa21bb67176dce53e21d6c0fbce4ff7dd5c877a",
        "scriptpubkey_type": "v0_p2wpkh",
        "scriptpubkey_address": "bc1qt23phdn3wmww203p6mq0hnj07lw4epm6jxheqa",
        "value": 318394
      },
      "scriptsig": "",
      "scriptsig_asm": "",
      "witness": [
        "3045022100f5340ee0ac8e8114502c00a1612f6853fee388d1a70e9c9e8d1365eb4ac47d1a0220108f119ce13fded288bea649dacdf435685ac0358fdeffaba9ecbf77517d3c5001",
        "023f713ac28a6c5f0895ed7898603d894a9b41210dbb3d148b8bd193fce7156b70"
      ],
      "is_coinbase": false,
      "sequence": 4294967293
    }
  ],
  "vout": [
    {
      "scriptpubkey": "76a91450b636c787e07575f750c80defb029f2975469df88ac",
      "scriptpubkey_asm": "OP_DUP OP_HASH160 OP_PUSHBYTES_20 50b636c787e07575f750c80defb029f2975469df OP_EQUALVERIFY OP_CHECKSIG",
      "scriptpubkey_type": "p2pkh",
      "scriptpubkey_address": "18MmLoAHHnCg5pANiYWTcBHqZeo4fsD96T",
      "value": 317174
    }
  ],
  "size": 195,
  "weight": 450,
  "fee": 1220,
  "status": {
    "confirmed": true,
    "block_height": 834464,
    "block_hash": "0000000000000000000177a0869a911a2b65c9bdcd5a8bcb02b68f305bee848e",
    "block_time": 1710308296
  },
  "hex": "0200000000010171a236abad24948a86880eac09829db44fa801e950add6066b7d308b343bb3280100000000fdffffff01f6d60400000000001976a91450b636c787e07575f750c80defb029f2975469df88ac02483045022100f5340ee0ac8e8114502c00a1612f6853fee388d1a70e9c9e8d1365eb4ac47d1a0220108f119ce13fded288bea649dacdf435685ac0358fdeffaba9ecbf77517d3c500121023f713ac28a6c5f0895ed7898603d894a9b41210dbb3d148b8bd193fce7156b7000000000"
}