{
  "txid": "d9250d0bcc3fce4ef9c35b033c1bef6943fde3fd80eab7e20dfe24c523e88ac3",
  "version": 2,
  "locktime": 0,
  "vin": [
    {
      "txid": "fc30780dd1209d6891574cdc4bada5e16a3704bac9f51cb658fabf7847e861e5",
      "vout": 5,
      "prevout": {
        "scriptpubkey": "0014abd3b58da69a2523859e3d9ecbf463ee3c66dc67",
        "scriptpubkey_asm": "OP_0 OP_PUSHBYTES_20 abd3b58da69a2523859e3d9ecbf463ee3c66dc67",
        "scriptpubkey_type": "v0_p2wpkh",
        "scriptpubkey_address": "bc1q40fmtrdxngjj8pv78k0vharrac7xdhr898c376",
        "value": 300
      },
      "scriptsig": "",
      "scriptsig_asm": "",
      "witness": [
        "30440220378aa3243858857d35d6904182922669dea51888a115094be6a45d3582ce137002205255801e1ba9bfe6362126e1197f5a1d582206678c9b850603e240a15624a47701",
        "032b983445f7f8bf59a6e5ef8622020de0469b9b278e787336ba525920960574be"
      ],
      "is_coinbase": false,
      "sequence": 4294967295
    },
    {
      "txid": "fc30780dd1209d6891574cdc4bada5e16a3704bac9f51cb658fabf7847e861e5",
      "vout": 6,
      "prevout": {
        "scriptpubkey": "0014abd3b58da69a2523859e3d9ecbf463ee3c66dc67",
        "scriptpubkey_asm": "OP_0 OP_PUSHBYTES_20 abd3b58da69a2523859e3d9ecbf463ee3c66dc67",
        "scriptpubkey_type": "v0_p2wpkh",
        "scriptpubkey_address": "bc1q40fmtrdxngjj8pv78k0vharrac7xdhr898c376",
        "value": 300
      },
      "scriptsig": "",
      "scriptsig_asm": "",
      "witness": [
        "3044022013fdb20816bb864b7f22b1f3c31d7d8e0512b98eb38ee72088881b844057f70c0220601d16fdbcbf187aad51962b1197c705238573f89acc1e2cd4caee2a712d1ac201",
        "032b983445f7f8bf59a6e5ef8622020de0469b9b278e787336ba525920960574be"
      ],
      "is_coinbase": false,
      "sequence": 4294967295
    },
    {
      "txid": "3991a5220e2bb3ecdff924ebe02aed1f9f066d2d4d4fa2fc6e92f550ce096adb",
      "vout": 0,
      "prevout": {
        "scriptpubkey": "0014d182bab8e24cfec9c0282ecce17550c16c9920c6",
        "scriptpubkey_asm": "OP_0 OP_PUSHBYTES_20 d182bab8e24cfec9c0282ecce17550c16c9920c6",
        "scriptpubkey_type": "v0_p2wpkh",
        "scriptpubkey_address": "bc1q6xpt4w8zfnlvnspg9mxwza2sc9kfjgxxq32pa3",
        "value": 546
      },
      "scriptsig": "",
      "scriptsig_asm": "",
      "witness": [
        "30440220603934cdf896871314e536a3c5095583b9464bc9850a842721dc9cce2d6695b202204b0544468228da18a98625b1b7872c9a5f1c768d9ca1dbf890d64b347095d4d683",
        "02f1896a6f9d4421ec0d13252266cec26177a9639f36200eefcc8368740d05dc57"
      ],
      "is_coinbase": false,
      "sequence": 4294967295
    },
    {
      "txid": "765cf1d77df163fb5f67b11d6e1de6f6671ba6171f1cf553bf34eac462ddbf22",
      "vout": 0,
      "prevout": {
        "scriptpubkey": "001472993f9d67fc9e1ca250e1e3f799232b4546f556",
        "scriptpubkey_asm": "OP_0 OP_PUSHBYTES_20 72993f9d67fc9e1ca250e1e3f799232b4546f556",
        "scriptpubkey_type": "v0_p2wpkh",
        "scriptpubkey_address": "bc1qw2vnl8t8lj0pegjsu83l0xfr9dz5da2ky2zd9a",
        "value": 15749820
      },
      "scriptsig": "",
      "scriptsig_asm": "",
      "witness": [
        "3045022100daa50a8aa4edb9f1c1d79f0710141bea03242db980ecafadcfde4fdae987d2a2022049f293f7c5985f5c74bc285484a4a669595233c5cd5fef2aacf8e503c2491da301",
        "02734888f6f5b6f02f148fd41e9fd978e5370725e172a9172e5cab1d64d23a3203"
      ],
      "is_coinbase": false,
      "sequence": 4294967295
    },
    {
      "txid": "fc30780dd1209d6891574cdc4bada5e16a3704bac9f51cb658fabf7847e861e5",
      "vout": 0,
      "prevout": {
        "scriptpubkey": "0014abd3b58da69a2523859e3d9ecbf463ee3c66dc67",
        "scriptpubkey_asm": "OP_0 OP_PUSHBYTES_20 abd3b58da69a2523859e3d9ecbf463ee3c66dc67",
        "scriptpubkey_type": "v0_p2wpkh",
        "scriptpubkey_address": "bc1q40fmtrdxngjj8pv78k0vharrac7xdhr898c376",
        "value": 600
      },
      "scriptsig": "",
      "scriptsig_asm": "",
      "witness": [
        "3044022037751a4184cb31eea88b188685d62fa0d18c028798a16a1e71cb567593755a0602201be28b4b6bd7329add92bd10a462fbed12ddfceb86dacde00f538b2ed74c666001",
        "032b983445f7f8bf59a6e5ef8622020de0469b9b278e787336ba525920960574be"
      ],
      "is_coinbase": false,
      "sequence": 4294967295
    }
  ],
  "vout": [
    {
      "scriptpubkey": "0014abd3b58da69a2523859e3d9ecbf463ee3c66dc67",
      "scriptpubkey_asm": "OP_0 OP_PUSHBYTES_20 abd3b58da69a2523859e3d9ecbf463ee3c66dc67",
      "scriptpubkey_type": "v0_p2wpkh",
      "scriptpubkey_address": "bc1q40fmtrdxngjj8pv78k0vharrac7xdhr898c376",
      "value": 600
    },
    {
      "scriptpubkey": "001472993f9d67fc9e1ca250e1e3f799232b4546f556",
      "scriptpubkey_asm": "OP_0 OP_PUSHBYTES_20 72993f9d67fc9e1ca250e1e3f799232b4546f556",
      "scriptpubkey_type": "v0_p2wpkh",
      "scriptpubkey_address": "bc1qw2vnl8t8lj0pegjsu83l0xfr9dz5da2ky2zd9a",
      "value": 546
    },
    {
      "scriptpubkey": "0014d182bab8e24cfec9c0282ecce17550c16c9920c6",
      "scriptpubkey_asm": "OP_0 OP_PUSHBYTES_20 d182bab8e24cfec9c0282ecce17550c16c9920c6",
      "scriptpubkey_type": "v0_p2wpkh",
      "scriptpubkey_address": "bc1q6xpt4w8zfnlvnspg9mxwza2sc9kfjgxxq32pa3",
      "value": 12000000
    },
    {
      "scriptpubkey": "001472993f9d67fc9e1ca250e1e3f799232b4546f556",
      "scriptpubkey_asm": "OP_0 OP_PUSHBYTES_20 72993f9d67fc9e1ca250e1e3f799232b4546f556",
      "scriptpubkey_type": "v0_p2wpkh",
      "scriptpubkey_address": "bc1qw2vnl8t8lj0pegjsu83l0xfr9dz5da2ky2zd9a",
      "value": 3742587
    },
    {
      "scriptpubkey": "0014abd3b58da69a2523859e3d9ecbf463ee3c66dc67",
      "scriptpubkey_asm": "OP_0 OP_PUSHBYTES_20 abd3b58da69a2523859e3d9ecbf463ee3c66dc67",
      "scriptpubkey_type": "v0_p2wpkh",
      "scriptpubkey_address": "bc1q40fmtrdxngjj8pv78k0vharrac7xdhr898c376",
      "value": 300
    },
    {
      "scriptpubkey": "0014abd3b58da69a2523859e3d9ecbf463ee3c66dc67",
      "scriptpubkey_asm": "OP_0 OP_PUSHBYTES_20 abd3b58da69a2523859e3d9ecbf463ee3c66dc67",
      "scriptpubkey_type": "v0_p2wpkh",
      "scriptpubkey_address": "bc1q40fmtrdxngjj8pv78k0vharrac7xdhr898c376",
      "value": 300
    }
  ],
  "size": 939,
  "weight": 2142,
  "fee": 7233,
  "status": {
    "confirmed": true,
    "block_height": 834460,
    "block_hash": "00000000000000000000484a79b643b2524bbce82e5d8a442013fa5b8905ed98",
    "block_time": 1710307468
  },
  "hex": "02000000000105e561e84778bffa58b61cf5c9ba04376ae1a5ad4bdc4c5791689d20d10d7830fc0500000000ffffffffe561e84778bffa58b61cf5c9ba04376ae1a5ad4bdc4c5791689d20d10d7830fc0600000000ffffffffdb6a09ce50f5926efca24f4d2d6d069f1fed2ae0eb24f9dfecb32b0e22a591390000000000ffffffff22bfdd62c4ea34bf53f51c1f17a61b67f6e61d6e1db1675ffb63f17dd7f15c760000000000ffffffffe561e84778bffa58b61cf5c9ba04376ae1a5ad4bdc4c5791689d20d10d7830fc0000000000ffffffff065802000000000000160014abd3b58da69a2523859e3d9ecbf463ee3c66dc67220200000000000016001472993f9d67fc9e1ca250e1e3f799232b4546f556001bb70000000000160014d182bab8e24cfec9c0282ecce17550c16c9920c67b1b39000000000016001472993f9d67fc9e1ca250e1e3f799232b4546f5562c01000000000000160014abd3b58da69a2523859e3d9ecbf463ee3c66dc672c01000000000000160014abd3b58da69a2523859e3d9ecbf463ee3c66dc67024730440220378aa3243858857d35d6904182922669dea51888a115094be6a45d3582ce137002205255801e1ba9bfe6362126e1197f5a1d582206678c9b850603e240a15624a4770121032b983445f7f8bf59a6e5ef8622020de0469b9b278e787336ba525920960574be02473044022013fdb20816bb864b7f22b1f3c31d7d8e0512b98eb38ee72088881b844057f70c0220601d16fdbcbf187aad51962b1197c705238573f89acc1e2cd4caee2a712d1ac20121032b983445f7f8bf59a6e5ef8622020de0469b9b278e787336ba525920960574be024730440220603934cdf896871314e536a3c5095583b9464bc9850a842721dc9cce2d6695b202204b0544468228da18a98625b1b7872c9a5f1c768d9ca1dbf890d64b347095d4d6832102f1896a6f9d4421ec0d13252266cec26177a9639f36200eefcc8368740d05dc5702483045022100daa50a8aa4edb9f1c1d79f0710141bea03242db980ecafadcfde4fdae987d2a2022049f293f7c5985f5c74bc285484a4a669595233c5cd5fef2aacf8e503c2491da3012102734888f6f5b6f02f148fd41e9fd978e5370725e172a9172e5cab1d64d23a320302473044022037751a4184cb31eea88b188685d62fa0d18c028798a16a1e71cb567593755a0602201be28b4b6bd7329add92bd10a462fbed12ddfceb86dacde00f538b2ed74c66600121032b983445f7f8bf59a6e5ef8622020de0469b9b278e787336ba525920960574be00000000"
}