{
  "txid": "d94b1aacdf2f0bc86380f734ca2f3041d37908da429b86efb276a848ce0de6c6",
  "version": 2,
  "locktime": 0,
  "vin": [
    {
      "txid": "b13bb5512a4904c28a6b7957b88edf574e8cb23551fc1dcfe22d6b239df42cf4",
      "vout": 82,
      "prevout": {
        "scriptpubkey": "51202c50f1f5d9fb76fd7e912f914dc29d76af5e11471531fd63ba7f1b0e2287148f",
        "scriptpubkey_asm": "OP_PUSHNUM_1 OP_PUSHBYTES_32 2c50f1f5d9fb76fd7e912f914dc29d76af5e11471531fd63ba7f1b0e2287148f",
        "scriptpubkey_type": "v1_p2tr",
        "scriptpubkey_address": "bc1p93g0raweldm06l5397g5ms5aw6h4uy28z5cl6ca60udsug58zj8szgcn6k",
        "value": 2575
      },
      "scriptsig": "",
      "scriptsig_asm": "",
      "witness": [
        "c72a32f44a8ee7ba1ae8d6a6b445ef93212b4f0b72530ec3122b8d49bfa0a4202a1bb581711238ef610a139029f12947b36dea710f9ee0f4dce0e73d8ac15482",
        "2030d47bf0b3ac3cdefb40b18079c2d4b27e6d2515233e5f96f9b70f2e2bc0f57eac0063036f726401010a746578742f706c61696e00367b2270223a226272632d3230222c226f70223a226d696e74222c227469636b223a2261616161222c22616d74223a223130303030227d68",
        "c130d47bf0b3ac3cdefb40b18079c2d4b27e6d2515233e5f96f9b70f2e2bc0f57e"
      ],
      "is_coinbase": false,
      "sequence": 4261412863
    }
  ],
  "vout": [
    {
      "scriptpubkey": "0014ce0b5aa0dac72397a8aa5a85d90a2cfb46f0f630",
      "scriptpubkey_asm": "OP_0 OP_PUSHBYTES_20 ce0b5aa0dac72397a8aa5a85d90a2cfb46f0f630",
      "scriptpubkey_type": "v0_p2wpkh",
      "scriptpubkey_address": "bc1qec944gx6cu3e0292t2zajz3vldr0pa3sh356d9",
      "value": 546
    }
  ],
  "size": 295,
  "weight": 541,
  "fee": 2029,
  "status": {
    "confirmed": true,
    "block_height": 834464,
    "block_hash": "0000000000000000000177a0869a911a2b65c9bdcd5a8bcb02b68f305bee848e",
    "block_time": 1710308296
  },
  "hex": "02000000000101f42cf49d236b2de2cf1dfc5135b28c4e57df8eb857796b8ac204492a51b53bb15200000000fffffffd012202000000000000160014ce0b5aa0dac72397a8aa5a85d90a2cfb46f0f6300340c72a32f44a8ee7ba1ae8d6a6b445ef93212b4f0b72530ec3122b8d49bfa0a4202a1bb581711238ef610a139029f12947b36dea710f9ee0f4dce0e73d8ac154826e2030d47bf0b3ac3cdefb40b18079c2d4b27e6d2515233e5f96f9b70f2e2bc0f57eac0063036f726401010a746578742f706c61696e00367b2270223a226272632d3230222c226f70223a226d696e74222c227469636b223a2261616161222c22616d74223a223130303030227d6821c130d47bf0b3ac3cdefb40b18079c2d4b27e6d2515233e5f96f9b70f2e2bc0f57e00000000"
}