{
  "txid": "d94debb273dcbbfb93d9424a553508254538038983c7d4082da35c6205913494",
  "version": 1,
  "locktime": 0,
  "vin": [
    {
      "txid": "682bae293ba9e865e42186455b07c1f9000480cf4f83e9a0639c4327bd557446",
      "vout": 0,
      "prevout": {
        "scriptpubkey": "512065aade5b77c67f7b63076da62d9250ad1b7b066b7f002d0bcf1c46e48d377c46",
        "scriptpubkey_asm": "OP_PUSHNUM_1 OP_PUSHBYTES_32 65aade5b77c67f7b63076da62d9250ad1b7b066b7f002d0bcf1c46e48d377c46",
        "scriptpubkey_type": "v1_p2tr",
        "scriptpubkey_address": "bc1pvk4dukmhcelhkcc8dknzmyjs45dhkpnt0uqz6z70r3rwfrfh03rq5n9wdw",
        "value": 2866
      },
      "scriptsig": "",
      "scriptsig_asm": "",
      "witness": [
        "5a56227bff6edaa620d2af48d177ad62d033d9d6a9bcd770e72f4bf013feeb97ffa314aaa395ffc2d2b6011e59ae2b4cf2131e7093404de67a9308f879d688ee",
        "2037452828ed4a08abc4f9b21695bb232e7e056d5c0924c33e1d44dfdd8fdd06aeac0063036f7264010118746578742f706c61696e3b636861727365743d7574662d38003b7b2270223a226272632d3230222c226f70223a227472616e73666572222c227469636b223a22696e6473222c22616d74223a22343331303130227d68",
        "c137452828ed4a08abc4f9b21695bb232e7e056d5c0924c33e1d44dfdd8fdd06ae"
      ],
      "is_coinbase": false,
      "sequence": 4294967293
    }
  ],
  "vout": [
    {
      "scriptpubkey": "0014176bbe7ad1f02aa813f5627af8c3a52339c80cb2",
      "scriptpubkey_asm": "OP_0 OP_PUSHBYTES_20 176bbe7ad1f02aa813f5627af8c3a52339c80cb2",
      "scriptpubkey_type": "v0_p2wpkh",
      "scriptpubkey_address": "bc1qza4mu7k37q42syl4vfa03sa9yvuusr9jqjtag2",
      "value": 546
    }
  ],
  "size": 314,
  "weight": 560,
  "fee": 2320,
  "status": {
    "confirmed": true,
    "block_height": 834638,
    "block_hash": "000000000000000000025f742c626208ac87e0b7d15054abb4a19ca2d735a54e",
    "block_time": 1710405325
  },
  "hex": "01000000000101467455bd27439c63a0e9834fcf800400f9c1075b458621e465e8a93b29ae2b680000000000fdffffff012202000000000000160014176bbe7ad1f02aa813f5627af8c3a52339c80cb203405a56227bff6edaa620d2af48d177ad62d033d9d6a9bcd770e72f4bf013feeb97ffa314aaa395ffc2d2b6011e59ae2b4cf2131e7093404de67a9308f879d688ee812037452828ed4a08abc4f9b21695bb232e7e056d5c0924c33e1d44dfdd8fdd06aeac0063036f7264010118746578742f706c61696e3b636861727365743d7574662d38003b7b2270223a226272632d3230222c226f70223a227472616e73666572222c227469636b223a22696e6473222c22616d74223a22343331303130227d6821c137452828ed4a08abc4f9b21695bb232e7e056d5c0924c33e1d44dfdd8fdd06ae00000000"
}