{
  "txid": "d95b981e14430e50c2b0171d4359ca768d13cca75278b5d997ad1a3679999038",
  "version": 2,
  "locktime": 0,
  "vin": [
    {
      "txid": "8486ecb4df0880316dd6e82b3971b4df187aff23765bc3a47f8d78bb53aa273c",
      "vout": 108,
      "prevout": {
        "scriptpubkey": "5120e1deeccc7e4249f1f8ad394e38e5cb1e1aac01031a9cbcee1d399b6cedc59e7a",
        "scriptpubkey_asm": "OP_PUSHNUM_1 OP_PUSHBYTES_32 e1deeccc7e4249f1f8ad394e38e5cb1e1aac01031a9cbcee1d399b6cedc59e7a",
        "scriptpubkey_type": "v1_p2tr",
        "scriptpubkey_address": "bc1pu80wenr7gfylr79d898r3ewtrcd2cqgrr2wtemsa8xdkemw9neaqnqmpud",
        "value": 2575
      },
      "scriptsig": "",
      "scriptsig_asm": "",
      "witness": [
        "1c1521b7958ede4915948be2ff7fe7fd9a707e55602ad7f8780946ac00c54f197d5726d0a7aa485a4d56a506768ed7e8a601d2a83701cee2f3335fa8b5a94fd9",
        "2047a12d73e9ba47f445586c62b394f6dd989d35aee0255609e3c7a06921ce1671ac0063036f726401010a746578742f706c61696e00367b2270223a226272632d3230222c226f70223a226d696e74222c227469636b223a2261616161222c22616d74223a223130303030227d68",
        "c047a12d73e9ba47f445586c62b394f6dd989d35aee0255609e3c7a06921ce1671"
      ],
      "is_coinbase": false,
      "sequence": 4261412863
    }
  ],
  "vout": [
    {
      "scriptpubkey": "0014ddd7ef12ea6f78edcc1e8e7afa12c01ab59f3339",
      "scriptpubkey_asm": "OP_0 OP_PUSHBYTES_20 ddd7ef12ea6f78edcc1e8e7afa12c01ab59f3339",
      "scriptpubkey_type": "v0_p2wpkh",
      "scriptpubkey_address": "bc1qmht77yh2dauwmnq73ea05ykqr26e7veea8spz6",
      "value": 546
    }
  ],
  "size": 295,
  "weight": 541,
  "fee": 2029,
  "status": {
    "confirmed": true,
    "block_height": 834460,
    "block_hash": "00000000000000000000484a79b643b2524bbce82e5d8a442013fa5b8905ed98",
    "block_time": 1710307468
  },
  "hex": "020000000001013c27aa53bb788d7fa4c35b7623ff7a18dfb471392be8d66d318008dfb4ec86846c00000000fffffffd012202000000000000160014ddd7ef12ea6f78edcc1e8e7afa12c01ab59f333903401c1521b7958ede4915948be2ff7fe7fd9a707e55602ad7f8780946ac00c54f197d5726d0a7aa485a4d56a506768ed7e8a601d2a83701cee2f3335fa8b5a94fd96e2047a12d73e9ba47f445586c62b394f6dd989d35aee0255609e3c7a06921ce1671ac0063036f726401010a746578742f706c61696e00367b2270223a226272632d3230222c226f70223a226d696e74222c227469636b223a2261616161222c22616d74223a223130303030227d6821c047a12d73e9ba47f445586c62b394f6dd989d35aee0255609e3c7a06921ce167100000000"
}