{
  "txid": "d96b8abbea5a9829f8307009ab8be44690592fed4b6a8a36f095faba5994a908",
  "version": 1,
  "locktime": 0,
  "vin": [
    {
      "txid": "f05d9f147a0aee88b8413d63d1325aeb0c3022277ace311433b9c437ea740bc4",
      "vout": 1,
      "prevout": {
        "scriptpubkey": "0014dc6bf86354105de2fcd9868a2b0376d6731cb92f",
        "scriptpubkey_asm": "OP_0 OP_PUSHBYTES_20 dc6bf86354105de2fcd9868a2b0376d6731cb92f",
        "scriptpubkey_type": "v0_p2wpkh",
        "scriptpubkey_address": "bc1qm34lsc65zpw79lxes69zkqmk6ee3ewf0j77s3h",
        "value": 766340632
      },
      "scriptsig": "",
      "scriptsig_asm": "",
      "witness": [
        "3045022100ddac13bf4d354a2d207e893620fa0b60ffb5503d252b648d22c2a3832103f4ca02201dedfeb52b54f1fc04d12f246f7f48196bcc81798f6fb97deecf2e8e8e6a5ea301",
        "02174ee672429ff94304321cdae1fc1e487edf658b34bd1d36da03761658a2bb09"
      ],
      "is_coinbase": false,
      "sequence": 4294967295
    }
  ],
  "vout": [
    {
      "scriptpubkey": "0014549f064391f57b13ac1aa5968c13625a22bb0889",
      "scriptpubkey_asm": "OP_0 OP_PUSHBYTES_20 549f064391f57b13ac1aa5968c13625a22bb0889",
      "scriptpubkey_type": "v0_p2wpkh",
      "scriptpubkey_address": "bc1q2j0svsu374a38tq65ktgcymztg3tkzyfcjtpev",
      "value": 88850000
    },
    {
      "scriptpubkey": "0014dc6bf86354105de2fcd9868a2b0376d6731cb92f",
      "scriptpubkey_asm": "OP_0 OP_PUSHBYTES_20 dc6bf86354105de2fcd9868a2b0376d6731cb92f",
      "scriptpubkey_type": "v0_p2wpkh",
      "scriptpubkey_address": "bc1qm34lsc65zpw79lxes69zkqmk6ee3ewf0j77s3h",
      "value": 79565875
    },
    {
      "scriptpubkey": "00145b67e5577ecd2db0a7f0c6c7c213102fc9a7d4f6",
      "scriptpubkey_asm": "OP_0 OP_PUSHBYTES_20 5b67e5577ecd2db0a7f0c6c7c213102fc9a7d4f6",
      "scriptpubkey_type": "v0_p2wpkh",
      "scriptpubkey_address": "bc1qtdn724m7e5kmpflscmruyycs9ly6048krg34zr",
      "value": 27200000
    },
    {
      "scriptpubkey": "001491e2af158e5dbf2189e9a0a64b48cec6bbc837bf",
      "scriptpubkey_asm": "OP_0 OP_PUSHBYTES_20 91e2af158e5dbf2189e9a0a64b48cec6bbc837bf",
      "scriptpubkey_type": "v0_p2wpkh",
      "scriptpubkey_address": "bc1qj83279vwtkljrz0f5znykjxwc6ausdalkr0g57",
      "value": 80000
    },
    {
      "scriptpubkey": "00147526f75e877a32f02687d456aecb965076610098",
      "scriptpubkey_asm": "OP_0 OP_PUSHBYTES_20 7526f75e877a32f02687d456aecb965076610098",
      "scriptpubkey_type": "v0_p2wpkh",
      "scriptpubkey_address": "bc1qw5n0wh580ge0qf5863t2ajuk2pmxzqycrjr69h",
      "value": 10972455
    },
    {
      "scriptpubkey": "a9149bbc4707de0be6478c27242fbdfdf044b328519987",
      "scriptpubkey_asm": "OP_HASH160 OP_PUSHBYTES_20 9bbc4707de0be6478c27242fbdfdf044b3285199 OP_EQUAL",
      "scriptpubkey_type": "p2sh",
      "scriptpubkey_address": "3FtUD2QKsYn3Lc8bCAWuqJNMV1pG7wzK3y",
      "value": 875100
    },
    {
      "scriptpubkey": "00146e57b7c82d4874895e5bc07c8be58ce834564943",
      "scriptpubkey_asm": "OP_0 OP_PUSHBYTES_20 6e57b7c82d4874895e5bc07c8be58ce834564943",
      "scriptpubkey_type": "v0_p2wpkh",
      "scriptpubkey_address": "bc1qdetm0jpdfp6gjhjmcp7ghevvaq69vj2rc7prmd",
      "value": 670596
    },
    {
      "scriptpubkey": "76a914405cf7442379a74db9d4d293ebdab8e0d2b752ee88ac",
      "scriptpubkey_asm": "OP_DUP OP_HASH160 OP_PUSHBYTES_20 405cf7442379a74db9d4d293ebdab8e0d2b752ee OP_EQUALVERIFY OP_CHECKSIG",
      "scriptpubkey_type": "p2pkh",
      "scriptpubkey_address": "16sKcfH99KrpRsS262aVpYe1LnQ7d8nKDS",
      "value": 390000
    },
    {
      "scriptpubkey": "76a914e4edab40a1d4e740379abf75e37fe83b7a51fc9288ac",
      "scriptpubkey_asm": "OP_DUP OP_HASH160 OP_PUSHBYTES_20 e4edab40a1d4e740379abf75e37fe83b7a51fc92 OP_EQUALVERIFY OP_CHECKSIG",
      "scriptpubkey_type": "p2pkh",
      "scriptpubkey_address": "1MsTnGRFC7bRnYncQKXdo5XLquNXRWKZ21",
      "value": 358000
    },
    {
      "scriptpubkey": "a91460b090904df9cf44d11c188df5d2a5649c0e789887",
      "scriptpubkey_asm": "OP_HASH160 OP_PUSHBYTES_20 60b090904df9cf44d11c188df5d2a5649c0e7898 OP_EQUAL",
      "scriptpubkey_type": "p2sh",
      "scriptpubkey_address": "3AWGJtaL2jJobS3M5PekVQYjdtoK4KK68B",
      "value": 30080000
    },
    {
      "scriptpubkey": "0020afc0c2e4b45bb78cf9ecd2569ebc32ce2b42cd5187217b38f2055c58fc174e77",
      "scriptpubkey_asm": "OP_0 OP_PUSHBYTES_32 afc0c2e4b45bb78cf9ecd2569ebc32ce2b42cd5187217b38f2055c58fc174e77",
      "scriptpubkey_type": "v0_p2wsh",
      "scriptpubkey_address": "bc1q4lqv9e95twmce70v6ftfa0pjec459n23sushkw8jq4w93lqhfemsh5vmtr",
      "value": 188850000
    },
    {
      "scriptpubkey": "001459d235a12b25af475ceeb355f0a1c0d4bf5a6a9b",
      "scriptpubkey_asm": "OP_0 OP_PUSHBYTES_20 59d235a12b25af475ceeb355f0a1c0d4bf5a6a9b",
      "scriptpubkey_type": "v0_p2wpkh",
      "scriptpubkey_address": "bc1qt8frtgftykh5wh8wkd2lpgwq6jl4565mfc9xwk",
      "value": 916063
    },
    {
      "scriptpubkey": "00147843798a03a9b6b8fb3e9b1e90d476f78be09dde",
      "scriptpubkey_asm": "OP_0 OP_PUSHBYTES_20 7843798a03a9b6b8fb3e9b1e90d476f78be09dde",
      "scriptpubkey_type": "v0_p2wpkh",
      "scriptpubkey_address": "bc1q0pphnzsr4xmt37e7nv0fp4rk7797p8w7w9x57r",
      "value": 210769
    },
    {
      "scriptpubkey": "0014d5f706d2a8a0326a883559dd2ce9c26a77b2e2a2",
      "scriptpubkey_asm": "OP_0 OP_PUSHBYTES_20 d5f706d2a8a0326a883559dd2ce9c26a77b2e2a2",
      "scriptpubkey_type": "v0_p2wpkh",
      "scriptpubkey_address": "bc1q6hmsd54g5qex4zp4t8wje6wzdfmm9c4z6jeqad",
      "value": 1279422
    },
    {
      "scriptpubkey": "002054f5701f95fb88f328704256c83b4317417606006a335527e0bd10678813c8df",
      "scriptpubkey_asm": "OP_0 OP_PUSHBYTES_32 54f5701f95fb88f328704256c83b4317417606006a335527e0bd10678813c8df",
      "scriptpubkey_type": "v0_p2wsh",
      "scriptpubkey_address": "bc1q2n6hq8u4lwy0x2rsgftvsw6rzaqhvpsqdge42flqh5gx0zqner0s9jtq0w",
      "value": 86599
    },
    {
      "scriptpubkey": "00146a4d4925b93713382869dd5f7a5b32bc2f3b6bbe",
      "scriptpubkey_asm": "OP_0 OP_PUSHBYTES_20 6a4d4925b93713382869dd5f7a5b32bc2f3b6bbe",
      "scriptpubkey_type": "v0_p2wpkh",
      "scriptpubkey_address": "bc1qdfx5jfdexufns2rfm40h5kejhshnk6a7e04nf2",
      "value": 188400000
    },
    {
      "scriptpubkey": "a9142646130ed6d7a6d6414c707674f9d98c1ed785c387",
      "scriptpubkey_asm": "OP_HASH160 OP_PUSHBYTES_20 2646130ed6d7a6d6414c707674f9d98c1ed785c3 OP_EQUAL",
      "scriptpubkey_type": "p2sh",
      "scriptpubkey_address": "35BPYh3AzR62zvghjHitZRaimyq6qTbEzA",
      "value": 11797265
    },
    {
      "scriptpubkey": "0014fc3b9c024bb60a66a6119efd226595b8c5c429ce",
      "scriptpubkey_asm": "OP_0 OP_PUSHBYTES_20 fc3b9c024bb60a66a6119efd226595b8c5c429ce",
      "scriptpubkey_type": "v0_p2wpkh",
      "scriptpubkey_address": "bc1qlsaecqjtkc9xdfs3nm7jyev4hrzug2ww49twrc",
      "value": 780000
    },
    {
      "scriptpubkey": "a9142252b005e09fd7ec84ef353abf88816c0a2e3b7c87",
      "scriptpubkey_asm": "OP_HASH160 OP_PUSHBYTES_20 2252b005e09fd7ec84ef353abf88816c0a2e3b7c OP_EQUAL",
      "scriptpubkey_type": "p2sh",
      "scriptpubkey_address": "34pVxJNw6avUKRxWC2Yy8vfbd46gqgVZwD",
      "value": 2120544
    },
    {
      "scriptpubkey": "a9149f3e149c5c9d241e2527690d3ed8a46c3c020ca787",
      "scriptpubkey_asm": "OP_HASH160 OP_PUSHBYTES_20 9f3e149c5c9d241e2527690d3ed8a46c3c020ca7 OP_EQUAL",
      "scriptpubkey_type": "p2sh",
      "scriptpubkey_address": "3GD1jUTpbdYTK5rfQcmHe8oghdLvKEam4U",
      "value": 380000
    },
    {
      "scriptpubkey": "0014bf7fa84f031065254bd7f5db6b4fc875bb495789",
      "scriptpubkey_asm": "OP_0 OP_PUSHBYTES_20 bf7fa84f031065254bd7f5db6b4fc875bb495789",
      "scriptpubkey_type": "v0_p2wpkh",
      "scriptpubkey_address": "bc1qhal6sncrzpjj2j7h7hdkkn7gwka5j4uf34t99f",
      "value": 669447
    },
    {
      "scriptpubkey": "0014709d71065aae76fe446aa0df18c154f068dc1f07",
      "scriptpubkey_asm": "OP_0 OP_PUSHBYTES_20 709d71065aae76fe446aa0df18c154f068dc1f07",
      "scriptpubkey_type": "v0_p2wpkh",
      "scriptpubkey_address": "bc1qwzwhzpj64em0u3r25r033s257p5dc8c8h7sxql",
      "value": 1820167
    },
    {
      "scriptpubkey": "0014dd64358f15693d1abc5f59881c4f1731f19d8e8c",
      "scriptpubkey_asm": "OP_0 OP_PUSHBYTES_20 dd64358f15693d1abc5f59881c4f1731f19d8e8c",
      "scriptpubkey_type": "v0_p2wpkh",
      "scriptpubkey_address": "bc1qm4jrtrc4dy7340zltxypcnchx8cemr5vjzwk0k",
      "value": 123440282
    },
    {
      "scriptpubkey": "a9149b2149a42555aeedf12c50974773b7aaab83700887",
      "scriptpubkey_asm": "OP_HASH160 OP_PUSHBYTES_20 9b2149a42555aeedf12c50974773b7aaab837008 OP_EQUAL",
      "scriptpubkey_type": "p2sh",
      "scriptpubkey_address": "3FqGY9M1hy2wyBrdE6d1yc2d4cjLZ6VMGS",
      "value": 150000
    },
    {
      "scriptpubkey": "a914ec70989e12e4acda092e6498200b5ce13cd5c7e987",
      "scriptpubkey_asm": "OP_HASH160 OP_PUSHBYTES_20 ec70989e12e4acda092e6498200b5ce13cd5c7e9 OP_EQUAL",
      "scriptpubkey_type": "p2sh",
      "scriptpubkey_address": "3PFCH8jmuVc1VXSxuzRLsyrYJeZqCWBU6s",
      "value": 244872
    },
    {
      "scriptpubkey": "76a9143254689eaad0673045be196e6269ea6a2700880f88ac",
      "scriptpubkey_asm": "OP_DUP OP_HASH160 OP_PUSHBYTES_20 3254689eaad0673045be196e6269ea6a2700880f OP_EQUALVERIFY OP_CHECKSIG",
      "scriptpubkey_type": "p2pkh",
      "scriptpubkey_address": "15b7uQiDaiJUu3UANttYGjZcFQmZahsJPg",
      "value": 2025326
    },
    {
      "scriptpubkey": "a914fb26677344074eb8ed2e43ee159081bc4725438387",
      "scriptpubkey_asm": "OP_HASH160 OP_PUSHBYTES_20 fb26677344074eb8ed2e43ee159081bc47254383 OP_EQUAL",
      "scriptpubkey_type": "p2sh",
      "scriptpubkey_address": "3QayY4G3xaqygn4SWwqnefXQCvH62t8k6h",
      "value": 4080000
    }
  ],
  "size": 1039,
  "weight": 3826,
  "fee": 47850,
  "status": {
    "confirmed": true,
    "block_height": 834638,
    "block_hash": "000000000000000000025f742c626208ac87e0b7d15054abb4a19ca2d735a54e",
    "block_time": 1710405325
  },
  "hex": "01000000000101c40b74ea37c4b9331431ce7a2722300ceb5a32d1633d41b888ee0a7a149f5df00100000000ffffffff1b50be4b0500000000160014549f064391f57b13ac1aa5968c13625a22bb08893314be0400000000160014dc6bf86354105de2fcd9868a2b0376d6731cb92f000a9f01000000001600145b67e5577ecd2db0a7f0c6c7c213102fc9a7d4f6803801000000000016001491e2af158e5dbf2189e9a0a64b48cec6bbc837bf276da700000000001600147526f75e877a32f02687d456aecb9650766100985c5a0d000000000017a9149bbc4707de0be6478c27242fbdfdf044b328519987843b0a00000000001600146e57b7c82d4874895e5bc07c8be58ce83456494370f30500000000001976a914405cf7442379a74db9d4d293ebdab8e0d2b752ee88ac70760500000000001976a914e4edab40a1d4e740379abf75e37fe83b7a51fc9288ac00fcca010000000017a91460b090904df9cf44d11c188df5d2a5649c0e789887509f410b00000000220020afc0c2e4b45bb78cf9ecd2569ebc32ce2b42cd5187217b38f2055c58fc174e775ffa0d000000000016001459d235a12b25af475ceeb355f0a1c0d4bf5a6a9b51370300000000001600147843798a03a9b6b8fb3e9b1e90d476f78be09ddebe85130000000000160014d5f706d2a8a0326a883559dd2ce9c26a77b2e2a2475201000000000022002054f5701f95fb88f328704256c83b4317417606006a335527e0bd10678813c8df80c13a0b000000001600146a4d4925b93713382869dd5f7a5b32bc2f3b6bbe1103b4000000000017a9142646130ed6d7a6d6414c707674f9d98c1ed785c387e0e60b0000000000160014fc3b9c024bb60a66a6119efd226595b8c5c429ce605b20000000000017a9142252b005e09fd7ec84ef353abf88816c0a2e3b7c8760cc05000000000017a9149f3e149c5c9d241e2527690d3ed8a46c3c020ca78707370a0000000000160014bf7fa84f031065254bd7f5db6b4fc875bb49578907c61b0000000000160014709d71065aae76fe446aa0df18c154f068dc1f079a8c5b0700000000160014dd64358f15693d1abc5f59881c4f1731f19d8e8cf04902000000000017a9149b2149a42555aeedf12c50974773b7aaab8370088788bc03000000000017a914ec70989e12e4acda092e6498200b5ce13cd5c7e9876ee71e00000000001976a9143254689eaad0673045be196e6269ea6a2700880f88ac80413e000000000017a914fb26677344074eb8ed2e43ee159081bc472543838702483045022100ddac13bf4d354a2d207e893620fa0b60ffb5503d252b648d22c2a3832103f4ca02201dedfeb52b54f1fc04d12f246f7f48196bcc81798f6fb97deecf2e8e8e6a5ea3012102174ee672429ff94304321cdae1fc1e487edf658b34bd1d36da03761658a2bb0900000000"
}