{
  "txid": "d97dd52b18670c246b5b389106b35b96b05bf678f2ff17dc6b0e97023d3950d3",
  "version": 2,
  "locktime": 0,
  "vin": [
    {
      "txid": "426f08fbaaacdc4b13cb6f428c89487358ea4dac9ed7948a96cfaa3f67ad9d67",
      "vout": 30,
      "prevout": {
        "scriptpubkey": "51203a051898816437ca127d5f2131f28dd9c117931e6141167c98ebf4e43851115d",
        "scriptpubkey_asm": "OP_PUSHNUM_1 OP_PUSHBYTES_32 3a051898816437ca127d5f2131f28dd9c117931e6141167c98ebf4e43851115d",
        "scriptpubkey_type": "v1_p2tr",
        "scriptpubkey_address": "bc1p8gz33xypvsmu5ynatusnru5dm8q30yc7v9q3vlyca06wgwz3z9ws8aqpvk",
        "value": 4578
      },
      "scriptsig": "",
      "scriptsig_asm": "",
      "witness": [
        "70d84ed328c64c64a293ca8ebc5c8ba24564228c22b2b67508eb9fcf5cb9be998b372ae26b21fc16f51df3b8078a4c31a84896d09e0628b597ca5a52abbc17a6",
        "20315dcadeab43a9bb0134990cc4618c28f47ff89f368ad8a81e259ae74cb6e17bac0063036f726401011e6170706c69636174696f6e2f6a736f6e3b636861727365743d7574662d38004cd27b2270223a22706f772d3230222c226f70223a226d696e74222c227469636b223a2250455045222c22616d74223a2231303030222c22736f6c7574696f6e223a22504550453a62633170636a65387233733875656e746d64767a6e34777337786d3836367879707535756139357371796877756835616d61677565367a73707a733637713a303030303030303030303030303030303030303139393431613561653132383937363539383134343239323533333030353762306461393666336465613163353a35333938343738323138227d68",
        "c1039ed2fd528e891a28907036b81ec900320c2b9f26f0b27e7e5cfd0fc9102a4d"
      ],
      "is_coinbase": false,
      "sequence": 4294967295
    }
  ],
  "vout": [
    {
      "scriptpubkey": "5120c4b271c607e666bdb5829d5d0f1b67d68c40f29ce9690012eee5e9ddf51cce85",
      "scriptpubkey_asm": "OP_PUSHNUM_1 OP_PUSHBYTES_32 c4b271c607e666bdb5829d5d0f1b67d68c40f29ce9690012eee5e9ddf51cce85",
      "scriptpubkey_type": "v1_p2tr",
      "scriptpubkey_address": "bc1pcje8r3s8uentmdvzn4ws7xm866xypu5ua95sqyhwuh5amague6zspzs67q",
      "value": 546
    }
  ],
  "size": 486,
  "weight": 768,
  "fee": 4032,
  "status": {
    "confirmed": true,
    "block_height": 834460,
    "block_hash": "00000000000000000000484a79b643b2524bbce82e5d8a442013fa5b8905ed98",
    "block_time": 1710307468
  },
  "hex": "02000000000101679dad673faacf968a94d79eac4dea587348898c426fcb134bdcacaafb086f421e00000000ffffffff012202000000000000225120c4b271c607e666bdb5829d5d0f1b67d68c40f29ce9690012eee5e9ddf51cce85034070d84ed328c64c64a293ca8ebc5c8ba24564228c22b2b67508eb9fcf5cb9be998b372ae26b21fc16f51df3b8078a4c31a84896d09e0628b597ca5a52abbc17a6fd1f0120315dcadeab43a9bb0134990cc4618c28f47ff89f368ad8a81e259ae74cb6e17bac0063036f726401011e6170706c69636174696f6e2f6a736f6e3b636861727365743d7574662d38004cd27b2270223a22706f772d3230222c226f70223a226d696e74222c227469636b223a2250455045222c22616d74223a2231303030222c22736f6c7574696f6e223a22504550453a62633170636a65387233733875656e746d64767a6e34777337786d3836367879707535756139357371796877756835616d61677565367a73707a733637713a303030303030303030303030303030303030303139393431613561653132383937363539383134343239323533333030353762306461393666336465613163353a35333938343738323138227d6821c1039ed2fd528e891a28907036b81ec900320c2b9f26f0b27e7e5cfd0fc9102a4d00000000"
}