{
  "txid": "d98a7db3ed34c2fa7b0d72a17da9da49e4623e7928769ed659fd0cf68822fa13",
  "version": 2,
  "locktime": 0,
  "vin": [
    {
      "txid": "e27cb2ace07aa2f103c32de9a3402d13fe176e9a55c2b0201de4b8bf80ec704f",
      "vout": 1,
      "prevout": {
        "scriptpubkey": "5120214946ba3f23b28be73fc0ae7151a569e066fcc1b3afa407ae09bb5bb4cc079a",
        "scriptpubkey_asm": "OP_PUSHNUM_1 OP_PUSHBYTES_32 214946ba3f23b28be73fc0ae7151a569e066fcc1b3afa407ae09bb5bb4cc079a",
        "scriptpubkey_type": "v1_p2tr",
        "scriptpubkey_address": "bc1py9y5dw3lywegheelczh8z5d9d8sxdlxpkwh6gpawpxa4hdxvq7dqpklaxs",
        "value": 13344
      },
      "scriptsig": "",
      "scriptsig_asm": "",
      "witness": [
        "d55c79c59b57b81e15664de688034466dde0b52c7de65f047c4caee28be3856cac1c80be67bc58f249e31bb8136412de6a30e1b1e5adc6dcccec976c2f7183c9"
      ],
      "is_coinbase": false,
      "sequence": 4294967293
    }
  ],
  "vout": [
    {
      "scriptpubkey": "512069b09322c025b9f0d82ff5c5122bd80aa53d2e48667c51800fa5bfff897bb306",
      "scriptpubkey_asm": "OP_PUSHNUM_1 OP_PUSHBYTES_32 69b09322c025b9f0d82ff5c5122bd80aa53d2e48667c51800fa5bfff897bb306",
      "scriptpubkey_type": "v1_p2tr",
      "scriptpubkey_address": "bc1pdxcfxgkqykulpkp07hz3y27cp2jn6tjgve79rqq05klllztmkvrqmvpy5d",
      "value": 2946
    },
    {
      "scriptpubkey": "512093718b220e7693b6745c6edc93c53a8ea536d5d1e58fa9270d626e7e191bfb4e",
      "scriptpubkey_asm": "OP_PUSHNUM_1 OP_PUSHBYTES_32 93718b220e7693b6745c6edc93c53a8ea536d5d1e58fa9270d626e7e191bfb4e",
      "scriptpubkey_type": "v1_p2tr",
      "scriptpubkey_address": "bc1pjdcckgsww6fmvazudmwf83f636jnd4w3uk86jfcdvfh8uxgmld8qa8uew0",
      "value": 7934
    }
  ],
  "size": 205,
  "weight": 616,
  "fee": 2464,
  "status": {
    "confirmed": true,
    "block_height": 834552,
    "block_hash": "00000000000000000001dd0468a70c94f619251d286585cff57aeb4bd9ede330",
    "block_time": 1710355598
  },
  "hex": "020000000001014f70ec80bfb8e41d20b0c2559a6e17fe132d40a3e92dc303f1a27ae0acb27ce20100000000fdffffff02820b00000000000022512069b09322c025b9f0d82ff5c5122bd80aa53d2e48667c51800fa5bfff897bb306fe1e00000000000022512093718b220e7693b6745c6edc93c53a8ea536d5d1e58fa9270d626e7e191bfb4e0140d55c79c59b57b81e15664de688034466dde0b52c7de65f047c4caee28be3856cac1c80be67bc58f249e31bb8136412de6a30e1b1e5adc6dcccec976c2f7183c900000000"
}