{
  "txid": "d9920d28aa499f164621b167ffbe20687fed0f29e36ea1fbe254067913dc1ca9",
  "version": 1,
  "locktime": 0,
  "vin": [
    {
      "txid": "d03c0d4d5455fa517edf1f31f81c1355273b0dfc834e000179404411034b6656",
      "vout": 16,
      "prevout": {
        "scriptpubkey": "00146a617d13daa7386de516fb089adb18565acb4ae7",
        "scriptpubkey_asm": "OP_0 OP_PUSHBYTES_20 6a617d13daa7386de516fb089adb18565acb4ae7",
        "scriptpubkey_type": "v0_p2wpkh",
        "scriptpubkey_address": "bc1qdfsh6y765uuxmegklvyf4kcc2edvkjh8mt32r6",
        "value": 382000
      },
      "scriptsig": "",
      "scriptsig_asm": "",
      "witness": [
        "304402201d13b8276bbdc04c240ee4cd6028ad1acc1a67ef6361f289aa8c764cb200c62302207d6501861015ea617f769c7641a976d25b58b9cac094fae868abd5ffa9aca2f201",
        "0288a8414d2b085a35d8a7c39e5aa562437f84197029d6d606eee3273a26a1ec66"
      ],
      "is_coinbase": false,
      "sequence": 4294967295
    },
    {
      "txid": "82165ea00ccc3372b5f3baeb7fbc67f4a4f39fd6b836ad7d80315ae146cd7122",
      "vout": 1,
      "prevout": {
        "scriptpubkey": "00146a617d13daa7386de516fb089adb18565acb4ae7",
        "scriptpubkey_asm": "OP_0 OP_PUSHBYTES_20 6a617d13daa7386de516fb089adb18565acb4ae7",
        "scriptpubkey_type": "v0_p2wpkh",
        "scriptpubkey_address": "bc1qdfsh6y765uuxmegklvyf4kcc2edvkjh8mt32r6",
        "value": 382000
      },
      "scriptsig": "",
      "scriptsig_asm": "",
      "witness": [
        "3045022100a33c8dc6052a49ca3d8c8e76e65fb9bfbfa9e4bdaf6131b3929a659413fd7c7402203d5016f0aeefb2bf8fd1a905bf72dca0bf83148e40f2f7b722e007c61c2e38d101",
        "0288a8414d2b085a35d8a7c39e5aa562437f84197029d6d606eee3273a26a1ec66"
      ],
      "is_coinbase": false,
      "sequence": 4294967295
    }
  ],
  "vout": [
    {
      "scriptpubkey": "001496f2fbb1e3b33d1bfa93e03d6ac154b5881841e6",
      "scriptpubkey_asm": "OP_0 OP_PUSHBYTES_20 96f2fbb1e3b33d1bfa93e03d6ac154b5881841e6",
      "scriptpubkey_type": "v0_p2wpkh",
      "scriptpubkey_address": "bc1qjme0hv0rkv73h75nuq7k4s25kkypss0xvsg3la",
      "value": 390000
    },
    {
      "scriptpubkey": "00146a617d13daa7386de516fb089adb18565acb4ae7",
      "scriptpubkey_asm": "OP_0 OP_PUSHBYTES_20 6a617d13daa7386de516fb089adb18565acb4ae7",
      "scriptpubkey_type": "v0_p2wpkh",
      "scriptpubkey_address": "bc1qdfsh6y765uuxmegklvyf4kcc2edvkjh8mt32r6",
      "value": 368357
    }
  ],
  "size": 371,
  "weight": 833,
  "fee": 5643,
  "status": {
    "confirmed": true,
    "block_height": 834638,
    "block_hash": "000000000000000000025f742c626208ac87e0b7d15054abb4a19ca2d735a54e",
    "block_time": 1710405325
  },
  "hex": "0100000000010256664b031144407901004e83fc0d3b2755131cf8311fdf7e51fa55544d0d3cd01000000000ffffffff2271cd46e15a31807dad36b8d69ff3a4f467bc7febbaf3b57233cc0ca05e16820100000000ffffffff0270f305000000000016001496f2fbb1e3b33d1bfa93e03d6ac154b5881841e6e59e0500000000001600146a617d13daa7386de516fb089adb18565acb4ae70247304402201d13b8276bbdc04c240ee4cd6028ad1acc1a67ef6361f289aa8c764cb200c62302207d6501861015ea617f769c7641a976d25b58b9cac094fae868abd5ffa9aca2f201210288a8414d2b085a35d8a7c39e5aa562437f84197029d6d606eee3273a26a1ec6602483045022100a33c8dc6052a49ca3d8c8e76e65fb9bfbfa9e4bdaf6131b3929a659413fd7c7402203d5016f0aeefb2bf8fd1a905bf72dca0bf83148e40f2f7b722e007c61c2e38d101210288a8414d2b085a35d8a7c39e5aa562437f84197029d6d606eee3273a26a1ec6600000000"
}