{
  "txid": "d9a514de486ddc2e049224b8a121aa8d54009c6468b45ccebb94846aec6c6b40",
  "version": 2,
  "locktime": 834637,
  "vin": [
    {
      "txid": "90e6c580b8f889a3aef3aae7e86a6f542b12af04587104521bbfc4c70e2bc81b",
      "vout": 1,
      "prevout": {
        "scriptpubkey": "76a9148d3daab1fafb50c790937cc276848286f00c375e88ac",
        "scriptpubkey_asm": "OP_DUP OP_HASH160 OP_PUSHBYTES_20 8d3daab1fafb50c790937cc276848286f00c375e OP_EQUALVERIFY OP_CHECKSIG",
        "scriptpubkey_type": "p2pkh",
        "scriptpubkey_address": "1Dsp9jPwnrhtmWfisjyNybSdYDLhrEaMNh",
        "value": 107716700
      },
      "scriptsig": "473044022057f940758efffcf2cad41c3e1da2f31fc0511525ee2cf98e0ace8adce7dfbc3b02206060a8ad94a27d3cba1b4a3a26afc18a9a6032aec5d9be2718c839688ee1396d012102d26e17b8760adc851dd4cc251ed88ba613faffc52b1c574e788615605d95dc49",
      "scriptsig_asm": "OP_PUSHBYTES_71 3044022057f940758efffcf2cad41c3e1da2f31fc0511525ee2cf98e0ace8adce7dfbc3b02206060a8ad94a27d3cba1b4a3a26afc18a9a6032aec5d9be2718c839688ee1396d01 OP_PUSHBYTES_33 02d26e17b8760adc851dd4cc251ed88ba613faffc52b1c574e788615605d95dc49",
      "is_coinbase": false,
      "sequence": 4294967293
    }
  ],
  "vout": [
    {
      "scriptpubkey": "a914a5d53e4c22a16f29ad8648373e89df00f9411e8f87",
      "scriptpubkey_asm": "OP_HASH160 OP_PUSHBYTES_20 a5d53e4c22a16f29ad8648373e89df00f9411e8f OP_EQUAL",
      "scriptpubkey_type": "p2sh",
      "scriptpubkey_address": "3GorsbxBTjZnprQi8LP9qqMTPAB1A44zzH",
      "value": 2000000
    },
    {
      "scriptpubkey": "76a914b72b6074db942b94bd03c4a26aa0f00dce70605688ac",
      "scriptpubkey_asm": "OP_DUP OP_HASH160 OP_PUSHBYTES_20 b72b6074db942b94bd03c4a26aa0f00dce706056 OP_EQUALVERIFY OP_CHECKSIG",
      "scriptpubkey_type": "p2pkh",
      "scriptpubkey_address": "1HhWcyebghcUpJX6WdTwWiaEW9wLiKHUsL",
      "value": 105713100
    }
  ],
  "size": 223,
  "weight": 892,
  "fee": 3600,
  "status": {
    "confirmed": true,
    "block_height": 834638,
    "block_hash": "000000000000000000025f742c626208ac87e0b7d15054abb4a19ca2d735a54e",
    "block_time": 1710405325
  },
  "hex": "02000000011bc82b0ec7c4bf1b5204715804af122b546f6ae8e7aaf3aea389f8b880c5e690010000006a473044022057f940758efffcf2cad41c3e1da2f31fc0511525ee2cf98e0ace8adce7dfbc3b02206060a8ad94a27d3cba1b4a3a26afc18a9a6032aec5d9be2718c839688ee1396d012102d26e17b8760adc851dd4cc251ed88ba613faffc52b1c574e788615605d95dc49fdffffff0280841e000000000017a914a5d53e4c22a16f29ad8648373e89df00f9411e8f87cc0d4d06000000001976a914b72b6074db942b94bd03c4a26aa0f00dce70605688ac4dbc0c00"
}