{
  "txid": "d9adebcf8f0ca1350198b597ba38fc4fe565918ea1ad1b9dc71e66396011fe5b",
  "version": 1,
  "locktime": 0,
  "vin": [
    {
      "txid": "70fd703fee17d9916f6fc7c8f9bb8226a9627ab49ad0e238889da82fc60198ab",
      "vout": 0,
      "prevout": {
        "scriptpubkey": "001497e60e16d76168a964e3710acd7b96f8983092b6",
        "scriptpubkey_asm": "OP_0 OP_PUSHBYTES_20 97e60e16d76168a964e3710acd7b96f8983092b6",
        "scriptpubkey_type": "v0_p2wpkh",
        "scriptpubkey_address": "bc1qjlnqu9khv952je8rwy9v67uklzvrpy4kw5q7dt",
        "value": 2733379
      },
      "scriptsig": "",
      "scriptsig_asm": "",
      "witness": [
        "304402204072b62e00853507cf9335c6821f7b5c0776f7992a24797e1d2aa0a5045c3e7302204bb062e897505fe6e0e80fade6d641164013ddbcffc3272d25ada0a2cbe3935401",
        "030cdc9c9ebaaaf9f83ed8f6d42bdef265978aa0cdc4f27f402d3f43e7ca2f03a8"
      ],
      "is_coinbase": false,
      "sequence": 4294967293
    },
    {
      "txid": "847a1eb808ad325ce6be818862ad851e1407fe9e6f60e8e42349a58f2fddeff8",
      "vout": 0,
      "prevout": {
        "scriptpubkey": "0014f19d89e24f0b5e63541d4bdc069a7e4d2b04ec98",
        "scriptpubkey_asm": "OP_0 OP_PUSHBYTES_20 f19d89e24f0b5e63541d4bdc069a7e4d2b04ec98",
        "scriptpubkey_type": "v0_p2wpkh",
        "scriptpubkey_address": "bc1q7xwcncj0pd0xx4qaf0wqdxn7f54sfmycy5k62z",
        "value": 68283
      },
      "scriptsig": "",
      "scriptsig_asm": "",
      "witness": [
        "304402206d27a0572d9b29e86471aafd1089aa0672d08af180d5bc8da095987ac0b1352a022006afa53a2113e65b0349e41deaae543b38f72419bfcf45ac68315d0ed5d642c401",
        "02c9295a7775e47c51051d0688cea21a66c55522b3edd0e2f0db044e4ecd9f9d83"
      ],
      "is_coinbase": false,
      "sequence": 4294967293
    },
    {
      "txid": "cbf1d150a82a304fb5c76ab359de23d9eac6ae65cffe3a66e1ea1f85f4951c74",
      "vout": 0,
      "prevout": {
        "scriptpubkey": "0014aa6e9f3db1feb6adb1e8cc467ecc88c029849981",
        "scriptpubkey_asm": "OP_0 OP_PUSHBYTES_20 aa6e9f3db1feb6adb1e8cc467ecc88c029849981",
        "scriptpubkey_type": "v0_p2wpkh",
        "scriptpubkey_address": "bc1q4fhf70d3l6m2mv0ge3r8anygcq5cfxvp6wxlev",
        "value": 31775542
      },
      "scriptsig": "",
      "scriptsig_asm": "",
      "witness": [
        "304402201730c53b28b5c1090520b2f4e43a0e73b3a9ed34e82d50a1d94302b952128e050220208a79042e976beaca605e243a33b245d0d358f73fe2bdde3689e67dba7b277801",
        "031861269d335e1481127daea50ea99336c94a3f7fd89f2ce5a127a8288bcc81fb"
      ],
      "is_coinbase": false,
      "sequence": 4294967293
    }
  ],
  "vout": [
    {
      "scriptpubkey": "76a914e3fa02d3ea915a24520dcddc51648e2cea72cf5e88ac",
      "scriptpubkey_asm": "OP_DUP OP_HASH160 OP_PUSHBYTES_20 e3fa02d3ea915a24520dcddc51648e2cea72cf5e OP_EQUALVERIFY OP_CHECKSIG",
      "scriptpubkey_type": "p2pkh",
      "scriptpubkey_address": "1MnRtcpM5bNJ2XSThFaQbcNx2yJjPzyGoA",
      "value": 34572473
    }
  ],
  "size": 490,
  "weight": 991,
  "fee": 4731,
  "status": {
    "confirmed": true,
    "block_height": 834638,
    "block_hash": "000000000000000000025f742c626208ac87e0b7d15054abb4a19ca2d735a54e",
    "block_time": 1710405325
  },
  "hex": "01000000000103ab9801c62fa89d8838e2d09ab47a62a92682bbf9c8c76f6f91d917ee3f70fd700000000000fdfffffff8efdd2f8fa54923e4e8606f9efe07141e85ad628881bee65c32ad08b81e7a840000000000fdffffff741c95f4851feae1663afecf65aec6ead923de59b36ac7b54f302aa850d1f1cb0000000000fdffffff01b9880f02000000001976a914e3fa02d3ea915a24520dcddc51648e2cea72cf5e88ac0247304402204072b62e00853507cf9335c6821f7b5c0776f7992a24797e1d2aa0a5045c3e7302204bb062e897505fe6e0e80fade6d641164013ddbcffc3272d25ada0a2cbe393540121030cdc9c9ebaaaf9f83ed8f6d42bdef265978aa0cdc4f27f402d3f43e7ca2f03a80247304402206d27a0572d9b29e86471aafd1089aa0672d08af180d5bc8da095987ac0b1352a022006afa53a2113e65b0349e41deaae543b38f72419bfcf45ac68315d0ed5d642c4012102c9295a7775e47c51051d0688cea21a66c55522b3edd0e2f0db044e4ecd9f9d830247304402201730c53b28b5c1090520b2f4e43a0e73b3a9ed34e82d50a1d94302b952128e050220208a79042e976beaca605e243a33b245d0d358f73fe2bdde3689e67dba7b27780121031861269d335e1481127daea50ea99336c94a3f7fd89f2ce5a127a8288bcc81fb00000000"
}