{
  "txid": "d9b28950af2c4127a079a6f24fb4711325c672611329b2154f9b608d6ce14884",
  "version": 1,
  "locktime": 0,
  "vin": [
    {
      "txid": "f1be0a32132d9c0048d3c63f297ca7736403cc4def7d5661ae4b512f3321be3c",
      "vout": 206,
      "prevout": {
        "scriptpubkey": "00143e63e9e1d3a3a9d62a90ab1080f5fbda5a2020f4",
        "scriptpubkey_asm": "OP_0 OP_PUSHBYTES_20 3e63e9e1d3a3a9d62a90ab1080f5fbda5a2020f4",
        "scriptpubkey_type": "v0_p2wpkh",
        "scriptpubkey_address": "bc1q8e37ncwn5w5av25s4vggpa0mmfdzqg85r2a78g",
        "value": 262936
      },
      "scriptsig": "",
      "scriptsig_asm": "",
      "witness": [
        "30440220393bff99f4ec016733c9e33e84cbb9cda456303cd6ad71cbd9c5baa764722697022066ff9f367afb7d2dcd7bbd1e0aa2c97c3c377cc0b140a7c9c8cf7023abd08aff01",
        "0351afd189e64cf370f089e16fce0394dc881375958a33ac6a4cf4b8b8ff6feaee"
      ],
      "is_coinbase": false,
      "sequence": 4294967295
    }
  ],
  "vout": [
    {
      "scriptpubkey": "0014dd651ef320510327233cb0b33ab54a155d700f2f",
      "scriptpubkey_asm": "OP_0 OP_PUSHBYTES_20 dd651ef320510327233cb0b33ab54a155d700f2f",
      "scriptpubkey_type": "v0_p2wpkh",
      "scriptpubkey_address": "bc1qm4j3aueq2ypjwgeukzen4d22z4whqre07trqud",
      "value": 259966
    }
  ],
  "size": 191,
  "weight": 437,
  "fee": 2970,
  "status": {
    "confirmed": true,
    "block_height": 834638,
    "block_hash": "000000000000000000025f742c626208ac87e0b7d15054abb4a19ca2d735a54e",
    "block_time": 1710405325
  },
  "hex": "010000000001013cbe21332f514bae61567def4dcc036473a77c293fc6d348009c2d13320abef1ce00000000ffffffff017ef7030000000000160014dd651ef320510327233cb0b33ab54a155d700f2f024730440220393bff99f4ec016733c9e33e84cbb9cda456303cd6ad71cbd9c5baa764722697022066ff9f367afb7d2dcd7bbd1e0aa2c97c3c377cc0b140a7c9c8cf7023abd08aff01210351afd189e64cf370f089e16fce0394dc881375958a33ac6a4cf4b8b8ff6feaee00000000"
}