{
  "txid": "d9bd905c8dd80fa063f579e0b8665c85353ad28d199052eacd4b79cfe233d032",
  "version": 2,
  "locktime": 0,
  "vin": [
    {
      "txid": "432dc515a7fe5037fbb639e84843eeb38e210717a017e8f2b46e9a82a2682e05",
      "vout": 1,
      "prevout": {
        "scriptpubkey": "001468b9f12f8b26abccc00089d1b6d38a8436c2bea2",
        "scriptpubkey_asm": "OP_0 OP_PUSHBYTES_20 68b9f12f8b26abccc00089d1b6d38a8436c2bea2",
        "scriptpubkey_type": "v0_p2wpkh",
        "scriptpubkey_address": "bc1qdzulztuty64uesqq38gmd5u2ssmv904zvc3eck",
        "value": 7804254
      },
      "scriptsig": "",
      "scriptsig_asm": "",
      "witness": [
        "304402200c08c1b518903ea1c3fce61e04884bfe99de78ceeddb34fb689824a6d6c86df302205295f29ea841cffdcd7e35b00e95f1a0869e4a4196a63386e1631d0b230c661401",
        "02cc0b6a6c72d7ee516266e82c69c4a296f9220bfb068d223102636003a51306dc"
      ],
      "is_coinbase": false,
      "sequence": 4294967295
    }
  ],
  "vout": [
    {
      "scriptpubkey": "0014c074b7294e69587a6c7aee9ac02fd6be41cf8529",
      "scriptpubkey_asm": "OP_0 OP_PUSHBYTES_20 c074b7294e69587a6c7aee9ac02fd6be41cf8529",
      "scriptpubkey_type": "v0_p2wpkh",
      "scriptpubkey_address": "bc1qcp6tw22wd9v85mr6a6dvqt7khequlpff62355w",
      "value": 599000
    },
    {
      "scriptpubkey": "0014363315521d13de7689419ccc83768c4b03906e08",
      "scriptpubkey_asm": "OP_0 OP_PUSHBYTES_20 363315521d13de7689419ccc83768c4b03906e08",
      "scriptpubkey_type": "v0_p2wpkh",
      "scriptpubkey_address": "bc1qxce325saz008dz2pnnxgxa5vfvpeqmsgqa80rq",
      "value": 7202464
    }
  ],
  "size": 222,
  "weight": 561,
  "fee": 2790,
  "status": {
    "confirmed": true,
    "block_height": 834552,
    "block_hash": "00000000000000000001dd0468a70c94f619251d286585cff57aeb4bd9ede330",
    "block_time": 1710355598
  },
  "hex": "02000000000101052e68a2829a6eb4f2e817a01707218eb3ee4348e839b6fb3750fea715c52d430100000000ffffffff02d823090000000000160014c074b7294e69587a6c7aee9ac02fd6be41cf8529a0e66d0000000000160014363315521d13de7689419ccc83768c4b03906e080247304402200c08c1b518903ea1c3fce61e04884bfe99de78ceeddb34fb689824a6d6c86df302205295f29ea841cffdcd7e35b00e95f1a0869e4a4196a63386e1631d0b230c6614012102cc0b6a6c72d7ee516266e82c69c4a296f9220bfb068d223102636003a51306dc00000000"
}