{
  "txid": "d9c35922a4c7f0f6e0c7ae397232009375505686d13fabf211f72730977ebcd8",
  "version": 1,
  "locktime": 0,
  "vin": [
    {
      "txid": "32f31ca9ab480b97dcc5b0e2b9bd97732ffaa0951fc23dfd398f8452d888d787",
      "vout": 22,
      "prevout": {
        "scriptpubkey": "00142a2b68d30071686b4c8ba635cf297f01fbdbee32",
        "scriptpubkey_asm": "OP_0 OP_PUSHBYTES_20 2a2b68d30071686b4c8ba635cf297f01fbdbee32",
        "scriptpubkey_type": "v0_p2wpkh",
        "scriptpubkey_address": "bc1q9g4k35cqw95xknyt5c6u72tlq8aahm3j68pjfj",
        "value": 1558586
      },
      "scriptsig": "",
      "scriptsig_asm": "",
      "witness": [
        "3045022100c7800b746dffbdc756240309fa5b6c976dfbf8cfd47efcb376e6938c1bdc0327022024289042455c34835fe52f86b603902a50c3f9202941d54e5be7949ca6cd10f001",
        "0399e97790929509f10fce0686413eb1f1bb938b9f30ea4f8924cfbfe5c8fac07f"
      ],
      "is_coinbase": false,
      "sequence": 4294967295
    }
  ],
  "vout": [
    {
      "scriptpubkey": "76a914e6949b49e93dda1709d384b90aac1bbab1cb86e888ac",
      "scriptpubkey_asm": "OP_DUP OP_HASH160 OP_PUSHBYTES_20 e6949b49e93dda1709d384b90aac1bbab1cb86e8 OP_EQUALVERIFY OP_CHECKSIG",
      "scriptpubkey_type": "p2pkh",
      "scriptpubkey_address": "1N2CSVKn3JwC6dp9KcsE8NMSFMcZEF442S",
      "value": 41000
    },
    {
      "scriptpubkey": "00142a2b68d30071686b4c8ba635cf297f01fbdbee32",
      "scriptpubkey_asm": "OP_0 OP_PUSHBYTES_20 2a2b68d30071686b4c8ba635cf297f01fbdbee32",
      "scriptpubkey_type": "v0_p2wpkh",
      "scriptpubkey_address": "bc1q9g4k35cqw95xknyt5c6u72tlq8aahm3j68pjfj",
      "value": 1513698
    }
  ],
  "size": 226,
  "weight": 574,
  "fee": 3888,
  "status": {
    "confirmed": true,
    "block_height": 834638,
    "block_hash": "000000000000000000025f742c626208ac87e0b7d15054abb4a19ca2d735a54e",
    "block_time": 1710405325
  },
  "hex": "0100000000010187d788d852848f39fd3dc21f95a0fa2f7397bdb9e2b0c5dc970b48aba91cf3321600000000ffffffff0228a00000000000001976a914e6949b49e93dda1709d384b90aac1bbab1cb86e888ace2181700000000001600142a2b68d30071686b4c8ba635cf297f01fbdbee3202483045022100c7800b746dffbdc756240309fa5b6c976dfbf8cfd47efcb376e6938c1bdc0327022024289042455c34835fe52f86b603902a50c3f9202941d54e5be7949ca6cd10f001210399e97790929509f10fce0686413eb1f1bb938b9f30ea4f8924cfbfe5c8fac07f00000000"
}