{
  "txid": "d9ce2462e1084615471bd6c5bf6b0e1b384e35780f8b3276695796bc9f1b41c4",
  "version": 2,
  "locktime": 0,
  "vin": [
    {
      "txid": "d9b9f27c561942de684a29325e510754bd6f88e15f5fb91a1428a16c77e648eb",
      "vout": 84,
      "prevout": {
        "scriptpubkey": "512086022849d6b5c22efd5f6b26755f1b68d6e994696e51f7d60b2bf473c109cdc3",
        "scriptpubkey_asm": "OP_PUSHNUM_1 OP_PUSHBYTES_32 86022849d6b5c22efd5f6b26755f1b68d6e994696e51f7d60b2bf473c109cdc3",
        "scriptpubkey_type": "v1_p2tr",
        "scriptpubkey_address": "bc1pscpzsjwkkhpzal2ldvn82hcmdrtwn9rfdegl04st90688sgfehpsf4qfrw",
        "value": 546
      },
      "scriptsig": "",
      "scriptsig_asm": "",
      "witness": [
        "c8afa5051e8c7c61b55b6d11b501ee353334c3cf8978e912aa5322e8bfbb103288fe6d2453842aadda4d8346c1d6d5b304579d4c8c0b55f8b8e979d75d6af890"
      ],
      "is_coinbase": false,
      "sequence": 4294967293
    },
    {
      "txid": "84f13cccad2466aa1732fb82a788d40ab50d901e7694c299336efa35cfa6c2c7",
      "vout": 1,
      "prevout": {
        "scriptpubkey": "a91474d9328904a017dd0db708c7a9b86dd8e887bd0c87",
        "scriptpubkey_asm": "OP_HASH160 OP_PUSHBYTES_20 74d9328904a017dd0db708c7a9b86dd8e887bd0c OP_EQUAL",
        "scriptpubkey_type": "p2sh",
        "scriptpubkey_address": "3CLrVwFiGE6Sd6uDsgHsHh6jj7eDCVniV4",
        "value": 207438
      },
      "scriptsig": "16001466d715bcbcd2cf03c5b413edc1a7364428b0d428",
      "scriptsig_asm": "OP_PUSHBYTES_22 001466d715bcbcd2cf03c5b413edc1a7364428b0d428",
      "witness": [
        "304402200b1c96aa4ea2e062344388b2f9cf5642b3ba1ff4a7b6cd22825113ce690f338c0220434a0e19eee1fc6bafe62c092938be5f4c1edd3fd7b2ad8b8cb96f2dc9d6619401",
        "02d87a1dfd7e6008eb81e00152a472df8256af17d650fcb8dfed3bc574efa40dd2"
      ],
      "is_coinbase": false,
      "sequence": 4294967293,
      "inner_redeemscript_asm": "OP_0 OP_PUSHBYTES_20 66d715bcbcd2cf03c5b413edc1a7364428b0d428"
    }
  ],
  "vout": [
    {
      "scriptpubkey": "512084bd35223b6ea3f8599ac88a1b8adfbcc4c4c91aec2f2b96bdb3b9e57661416f",
      "scriptpubkey_asm": "OP_PUSHNUM_1 OP_PUSHBYTES_32 84bd35223b6ea3f8599ac88a1b8adfbcc4c4c91aec2f2b96bdb3b9e57661416f",
      "scriptpubkey_type": "v1_p2tr",
      "scriptpubkey_address": "bc1psj7n2g3md63lskv6ez9phzklhnzvfjg6ashjh94akwu72anpg9hs4kmdpg",
      "value": 546
    },
    {
      "scriptpubkey": "a91474d9328904a017dd0db708c7a9b86dd8e887bd0c87",
      "scriptpubkey_asm": "OP_HASH160 OP_PUSHBYTES_20 74d9328904a017dd0db708c7a9b86dd8e887bd0c OP_EQUAL",
      "scriptpubkey_type": "p2sh",
      "scriptpubkey_address": "3CLrVwFiGE6Sd6uDsgHsHh6jj7eDCVniV4",
      "value": 202346
    }
  ],
  "size": 365,
  "weight": 935,
  "fee": 5092,
  "status": {
    "confirmed": true,
    "block_height": 834638,
    "block_hash": "000000000000000000025f742c626208ac87e0b7d15054abb4a19ca2d735a54e",
    "block_time": 1710405325
  },
  "hex": "02000000000102eb48e6776ca128141ab95f5fe1886fbd5407515e32294a68de4219567cf2b9d95400000000fdffffffc7c2a6cf35fa6e3399c294761e900db50ad488a782fb3217aa6624adcc3cf184010000001716001466d715bcbcd2cf03c5b413edc1a7364428b0d428fdffffff02220200000000000022512084bd35223b6ea3f8599ac88a1b8adfbcc4c4c91aec2f2b96bdb3b9e57661416f6a1603000000000017a91474d9328904a017dd0db708c7a9b86dd8e887bd0c870140c8afa5051e8c7c61b55b6d11b501ee353334c3cf8978e912aa5322e8bfbb103288fe6d2453842aadda4d8346c1d6d5b304579d4c8c0b55f8b8e979d75d6af8900247304402200b1c96aa4ea2e062344388b2f9cf5642b3ba1ff4a7b6cd22825113ce690f338c0220434a0e19eee1fc6bafe62c092938be5f4c1edd3fd7b2ad8b8cb96f2dc9d66194012102d87a1dfd7e6008eb81e00152a472df8256af17d650fcb8dfed3bc574efa40dd200000000"
}