{
  "txid": "d9d3b508ad5c2bd3aaad9a141b7d3c7512b01b9f97a67109e8eae5e406535d9b",
  "version": 1,
  "locktime": 0,
  "vin": [
    {
      "txid": "fe157e42ea26b11ec799a446809f28617f50457337b6954d0c0e3fbff0b0f1e0",
      "vout": 0,
      "prevout": {
        "scriptpubkey": "0014b89c092bcd25f758a4fe6170b1505670d2a5ec4b",
        "scriptpubkey_asm": "OP_0 OP_PUSHBYTES_20 b89c092bcd25f758a4fe6170b1505670d2a5ec4b",
        "scriptpubkey_type": "v0_p2wpkh",
        "scriptpubkey_address": "bc1qhzwqj27dyhm43f87v9ctz5zkwrf2tmztej29nj",
        "value": 297213
      },
      "scriptsig": "",
      "scriptsig_asm": "",
      "witness": [
        "30440220202fa709d6caf5848d76abc8476c950304fed2b49e76108782e14488699d931c02207042001111a04934a1143aa9dfc833e6ac959e01acb573bcd568d72fd326350201",
        "02b19b13f4c9c84d3be0ed1f0e1778d16407070f0b677cc56b9a2ff950dc66cfd5"
      ],
      "is_coinbase": false,
      "sequence": 4294967295
    }
  ],
  "vout": [
    {
      "scriptpubkey": "a914ff6f792c81a7d67420311752321531b90c899a6d87",
      "scriptpubkey_asm": "OP_HASH160 OP_PUSHBYTES_20 ff6f792c81a7d67420311752321531b90c899a6d OP_EQUAL",
      "scriptpubkey_type": "p2sh",
      "scriptpubkey_address": "3QydmmF8FdhW5FL4Ub6XMWP5MbPaNhe9Ns",
      "value": 49032
    },
    {
      "scriptpubkey": "0014fea9fa27356afa616a1c1592c7dc7d8cdd9fc8fd",
      "scriptpubkey_asm": "OP_0 OP_PUSHBYTES_20 fea9fa27356afa616a1c1592c7dc7d8cdd9fc8fd",
      "scriptpubkey_type": "v0_p2wpkh",
      "scriptpubkey_address": "bc1ql65l5fe4dtaxz6suzkfv0hra3nwelj8af92s7l",
      "value": 245381
    }
  ],
  "size": 223,
  "weight": 565,
  "fee": 2800,
  "status": {
    "confirmed": true,
    "block_height": 834638,
    "block_hash": "000000000000000000025f742c626208ac87e0b7d15054abb4a19ca2d735a54e",
    "block_time": 1710405325
  },
  "hex": "01000000000101e0f1b0f0bf3f0e0c4d95b6377345507f61289f8046a499c71eb126ea427e15fe0000000000ffffffff0288bf00000000000017a914ff6f792c81a7d67420311752321531b90c899a6d8785be030000000000160014fea9fa27356afa616a1c1592c7dc7d8cdd9fc8fd024730440220202fa709d6caf5848d76abc8476c950304fed2b49e76108782e14488699d931c02207042001111a04934a1143aa9dfc833e6ac959e01acb573bcd568d72fd3263502012102b19b13f4c9c84d3be0ed1f0e1778d16407070f0b677cc56b9a2ff950dc66cfd500000000"
}