{
  "txid": "d9da15f260de0a73a3abe1ea584eaf1f9b4853374d3fe952bd7f1d43709acf56",
  "version": 2,
  "locktime": 0,
  "vin": [
    {
      "txid": "e147baf6da414f257ae2e431845d7b595b1234bb1f26152e91f55cbf4944e232",
      "vout": 4,
      "prevout": {
        "scriptpubkey": "51205032bfb9a7693e210fe5b0eb2682b7e46fc88b8ffe8bc608a92c301b092b679f",
        "scriptpubkey_asm": "OP_PUSHNUM_1 OP_PUSHBYTES_32 5032bfb9a7693e210fe5b0eb2682b7e46fc88b8ffe8bc608a92c301b092b679f",
        "scriptpubkey_type": "v1_p2tr",
        "scriptpubkey_address": "bc1p2qetlwd8dylzzrl9kr4jdq4hu3hu3zu0l69uvz9f9scpkzftv70szufmtp",
        "value": 600
      },
      "scriptsig": "",
      "scriptsig_asm": "",
      "witness": [
        "438d86527b0834286a2f940d0299c64e6601e50e6d58ed1cc260882afa282f0c691d2c23479eb11d07dbf6c70ebb9cfbb9a32d07a44ebc527884f1025951772f"
      ],
      "is_coinbase": false,
      "sequence": 2147483649
    },
    {
      "txid": "e147baf6da414f257ae2e431845d7b595b1234bb1f26152e91f55cbf4944e232",
      "vout": 3,
      "prevout": {
        "scriptpubkey": "51205032bfb9a7693e210fe5b0eb2682b7e46fc88b8ffe8bc608a92c301b092b679f",
        "scriptpubkey_asm": "OP_PUSHNUM_1 OP_PUSHBYTES_32 5032bfb9a7693e210fe5b0eb2682b7e46fc88b8ffe8bc608a92c301b092b679f",
        "scriptpubkey_type": "v1_p2tr",
        "scriptpubkey_address": "bc1p2qetlwd8dylzzrl9kr4jdq4hu3hu3zu0l69uvz9f9scpkzftv70szufmtp",
        "value": 600
      },
      "scriptsig": "",
      "scriptsig_asm": "",
      "witness": [
        "ff5c88ccd8d3c07f06316105542625280accea66dcb37f596d3d775da58bdca70f7e048160200c7814ae3ff4a01a93dd6522a61c134872969edef2442e0e5fe3"
      ],
      "is_coinbase": false,
      "sequence": 2147483649
    },
    {
      "txid": "56732ae575030113e06588035a326d881873e24579ab74a4fbebdeaf973dd1ec",
      "vout": 0,
      "prevout": {
        "scriptpubkey": "51205233fa67d3255590f7e18458d6806ecb4173e3b56692d967710f6258bfebf95f",
        "scriptpubkey_asm": "OP_PUSHNUM_1 OP_PUSHBYTES_32 5233fa67d3255590f7e18458d6806ecb4173e3b56692d967710f6258bfebf95f",
        "scriptpubkey_type": "v1_p2tr",
        "scriptpubkey_address": "bc1p2gel5e7ny42epalps3vddqrwedqh8ca4v6fdjem3pa3930ltl90s2cfg6e",
        "value": 546
      },
      "scriptsig": "",
      "scriptsig_asm": "",
      "witness": [
        "38aec4ab6b8aaf4ad26420ede6a693aab25646e7d8996ad94fa95b37fef230987cb6d7fd4927c38979b098187da45c8dcc8a2cc80e6bcb78804863ac6dbe6d3483"
      ],
      "is_coinbase": false,
      "sequence": 4294967295
    },
    {
      "txid": "e147baf6da414f257ae2e431845d7b595b1234bb1f26152e91f55cbf4944e232",
      "vout": 5,
      "prevout": {
        "scriptpubkey": "51205032bfb9a7693e210fe5b0eb2682b7e46fc88b8ffe8bc608a92c301b092b679f",
        "scriptpubkey_asm": "OP_PUSHNUM_1 OP_PUSHBYTES_32 5032bfb9a7693e210fe5b0eb2682b7e46fc88b8ffe8bc608a92c301b092b679f",
        "scriptpubkey_type": "v1_p2tr",
        "scriptpubkey_address": "bc1p2qetlwd8dylzzrl9kr4jdq4hu3hu3zu0l69uvz9f9scpkzftv70szufmtp",
        "value": 489087
      },
      "scriptsig": "",
      "scriptsig_asm": "",
      "witness": [
        "db5c2f02542100096a2e8324d718835b37e19f9056e05a7d5ed48e56d64397b0f675758b8bdf173e8d518d3e14d524bfb40d25ed3e88a364653fc23c2c23d2a6"
      ],
      "is_coinbase": false,
      "sequence": 2147483649
    }
  ],
  "vout": [
    {
      "scriptpubkey": "51205032bfb9a7693e210fe5b0eb2682b7e46fc88b8ffe8bc608a92c301b092b679f",
      "scriptpubkey_asm": "OP_PUSHNUM_1 OP_PUSHBYTES_32 5032bfb9a7693e210fe5b0eb2682b7e46fc88b8ffe8bc608a92c301b092b679f",
      "scriptpubkey_type": "v1_p2tr",
      "scriptpubkey_address": "bc1p2qetlwd8dylzzrl9kr4jdq4hu3hu3zu0l69uvz9f9scpkzftv70szufmtp",
      "value": 1200
    },
    {
      "scriptpubkey": "51205032bfb9a7693e210fe5b0eb2682b7e46fc88b8ffe8bc608a92c301b092b679f",
      "scriptpubkey_asm": "OP_PUSHNUM_1 OP_PUSHBYTES_32 5032bfb9a7693e210fe5b0eb2682b7e46fc88b8ffe8bc608a92c301b092b679f",
      "scriptpubkey_type": "v1_p2tr",
      "scriptpubkey_address": "bc1p2qetlwd8dylzzrl9kr4jdq4hu3hu3zu0l69uvz9f9scpkzftv70szufmtp",
      "value": 546
    },
    {
      "scriptpubkey": "51205233fa67d3255590f7e18458d6806ecb4173e3b56692d967710f6258bfebf95f",
      "scriptpubkey_asm": "OP_PUSHNUM_1 OP_PUSHBYTES_32 5233fa67d3255590f7e18458d6806ecb4173e3b56692d967710f6258bfebf95f",
      "scriptpubkey_type": "v1_p2tr",
      "scriptpubkey_address": "bc1p2gel5e7ny42epalps3vddqrwedqh8ca4v6fdjem3pa3930ltl90s2cfg6e",
      "value": 149222
    },
    {
      "scriptpubkey": "51205032bfb9a7693e210fe5b0eb2682b7e46fc88b8ffe8bc608a92c301b092b679f",
      "scriptpubkey_asm": "OP_PUSHNUM_1 OP_PUSHBYTES_32 5032bfb9a7693e210fe5b0eb2682b7e46fc88b8ffe8bc608a92c301b092b679f",
      "scriptpubkey_type": "v1_p2tr",
      "scriptpubkey_address": "bc1p2qetlwd8dylzzrl9kr4jdq4hu3hu3zu0l69uvz9f9scpkzftv70szufmtp",
      "value": 600
    },
    {
      "scriptpubkey": "51205032bfb9a7693e210fe5b0eb2682b7e46fc88b8ffe8bc608a92c301b092b679f",
      "scriptpubkey_asm": "OP_PUSHNUM_1 OP_PUSHBYTES_32 5032bfb9a7693e210fe5b0eb2682b7e46fc88b8ffe8bc608a92c301b092b679f",
      "scriptpubkey_type": "v1_p2tr",
      "scriptpubkey_address": "bc1p2qetlwd8dylzzrl9kr4jdq4hu3hu3zu0l69uvz9f9scpkzftv70szufmtp",
      "value": 600
    },
    {
      "scriptpubkey": "51205032bfb9a7693e210fe5b0eb2682b7e46fc88b8ffe8bc608a92c301b092b679f",
      "scriptpubkey_asm": "OP_PUSHNUM_1 OP_PUSHBYTES_32 5032bfb9a7693e210fe5b0eb2682b7e46fc88b8ffe8bc608a92c301b092b679f",
      "scriptpubkey_type": "v1_p2tr",
      "scriptpubkey_address": "bc1p2qetlwd8dylzzrl9kr4jdq4hu3hu3zu0l69uvz9f9scpkzftv70szufmtp",
      "value": 330182
    }
  ],
  "size": 699,
  "weight": 1995,
  "fee": 8483,
  "status": {
    "confirmed": true,
    "block_height": 834638,
    "block_hash": "000000000000000000025f742c626208ac87e0b7d15054abb4a19ca2d735a54e",
    "block_time": 1710405325
  },
  "hex": "0200000000010432e24449bf5cf5912e15261fbb34125b597b5d8431e4e27a254f41daf6ba47e104000000000100008032e24449bf5cf5912e15261fbb34125b597b5d8431e4e27a254f41daf6ba47e1030000000001000080ecd13d97afdeebfba474ab7945e27318886d325a038865e013010375e52a73560000000000ffffffff32e24449bf5cf5912e15261fbb34125b597b5d8431e4e27a254f41daf6ba47e105000000000100008006b0040000000000002251205032bfb9a7693e210fe5b0eb2682b7e46fc88b8ffe8bc608a92c301b092b679f22020000000000002251205032bfb9a7693e210fe5b0eb2682b7e46fc88b8ffe8bc608a92c301b092b679fe6460200000000002251205233fa67d3255590f7e18458d6806ecb4173e3b56692d967710f6258bfebf95f58020000000000002251205032bfb9a7693e210fe5b0eb2682b7e46fc88b8ffe8bc608a92c301b092b679f58020000000000002251205032bfb9a7693e210fe5b0eb2682b7e46fc88b8ffe8bc608a92c301b092b679fc6090500000000002251205032bfb9a7693e210fe5b0eb2682b7e46fc88b8ffe8bc608a92c301b092b679f0140438d86527b0834286a2f940d0299c64e6601e50e6d58ed1cc260882afa282f0c691d2c23479eb11d07dbf6c70ebb9cfbb9a32d07a44ebc527884f1025951772f0140ff5c88ccd8d3c07f06316105542625280accea66dcb37f596d3d775da58bdca70f7e048160200c7814ae3ff4a01a93dd6522a61c134872969edef2442e0e5fe3014138aec4ab6b8aaf4ad26420ede6a693aab25646e7d8996ad94fa95b37fef230987cb6d7fd4927c38979b098187da45c8dcc8a2cc80e6bcb78804863ac6dbe6d34830140db5c2f02542100096a2e8324d718835b37e19f9056e05a7d5ed48e56d64397b0f675758b8bdf173e8d518d3e14d524bfb40d25ed3e88a364653fc23c2c23d2a600000000"
}