{
  "txid": "d9e1b22e2f74c296b6a96c876bbd159f6a1aa1292ed84a35ce835f6657ec7669",
  "version": 2,
  "locktime": 0,
  "vin": [
    {
      "txid": "e859fc0e72679d00d865446a03d06145463d83e89f2daea49cbd1d2b8adc9be0",
      "vout": 1,
      "prevout": {
        "scriptpubkey": "51200e072569c9d6528b02cb541df4f241fa26dfbc5d7de019776b274fd8d5ee4958",
        "scriptpubkey_asm": "OP_PUSHNUM_1 OP_PUSHBYTES_32 0e072569c9d6528b02cb541df4f241fa26dfbc5d7de019776b274fd8d5ee4958",
        "scriptpubkey_type": "v1_p2tr",
        "scriptpubkey_address": "bc1ppcrj26wf6efgkqkt2swlfujplgndl0za0hspjamtya8a340wf9vq38f2zq",
        "value": 137690
      },
      "scriptsig": "",
      "scriptsig_asm": "",
      "witness": [
        "6e55a4ae957a30247588c9b1b89477134ac17eaf6d62f9b5359fc1a5c85fd3a151905ea4add7cf3327523395562299576f1aa0a182990f87ad1f8058e1c5ebe0"
      ],
      "is_coinbase": false,
      "sequence": 4294967295
    },
    {
      "txid": "98487e81a8e048e41dcaa960db1112e95d1a1d14fbff7c9778357c759ace121a",
      "vout": 2,
      "prevout": {
        "scriptpubkey": "51200e072569c9d6528b02cb541df4f241fa26dfbc5d7de019776b274fd8d5ee4958",
        "scriptpubkey_asm": "OP_PUSHNUM_1 OP_PUSHBYTES_32 0e072569c9d6528b02cb541df4f241fa26dfbc5d7de019776b274fd8d5ee4958",
        "scriptpubkey_type": "v1_p2tr",
        "scriptpubkey_address": "bc1ppcrj26wf6efgkqkt2swlfujplgndl0za0hspjamtya8a340wf9vq38f2zq",
        "value": 50000
      },
      "scriptsig": "",
      "scriptsig_asm": "",
      "witness": [
        "f0646f342b0a80d56487ec06db1caa227bd30c0d27da87f2eba7f36c7b9b2419b34f226393c6f1af18f2784a46d4723aaa9623670eb30453d046d42ab20672af"
      ],
      "is_coinbase": false,
      "sequence": 4294967295
    },
    {
      "txid": "b6f9e21ca7387d0be3a7d3e0b352d5228faad79a4a74350cbf45defb09614904",
      "vout": 1,
      "prevout": {
        "scriptpubkey": "51200e072569c9d6528b02cb541df4f241fa26dfbc5d7de019776b274fd8d5ee4958",
        "scriptpubkey_asm": "OP_PUSHNUM_1 OP_PUSHBYTES_32 0e072569c9d6528b02cb541df4f241fa26dfbc5d7de019776b274fd8d5ee4958",
        "scriptpubkey_type": "v1_p2tr",
        "scriptpubkey_address": "bc1ppcrj26wf6efgkqkt2swlfujplgndl0za0hspjamtya8a340wf9vq38f2zq",
        "value": 20546
      },
      "scriptsig": "",
      "scriptsig_asm": "",
      "witness": [
        "e025ddb0fc72e96c9046076ed4a7b2ec669d8464e7bd5826a1b72008767886395d1346b8afae95e08ee1eda8aa5fb4669162992fba92c1a309b08ae26f2d7915"
      ],
      "is_coinbase": false,
      "sequence": 4294967295
    }
  ],
  "vout": [
    {
      "scriptpubkey": "76a914d334967b3e4d0cc2545f7d0fb71000b5ca61a4fc88ac",
      "scriptpubkey_asm": "OP_DUP OP_HASH160 OP_PUSHBYTES_20 d334967b3e4d0cc2545f7d0fb71000b5ca61a4fc OP_EQUALVERIFY OP_CHECKSIG",
      "scriptpubkey_type": "p2pkh",
      "scriptpubkey_address": "1LFkaLq4VePKTNdySsgqgitaT1CNaHUgKC",
      "value": 204764
    }
  ],
  "size": 367,
  "weight": 868,
  "fee": 3472,
  "status": {
    "confirmed": true,
    "block_height": 834638,
    "block_hash": "000000000000000000025f742c626208ac87e0b7d15054abb4a19ca2d735a54e",
    "block_time": 1710405325
  },
  "hex": "02000000000103e09bdc8a2b1dbd9ca4ae2d9fe8833d464561d0036a4465d8009d67720efc59e80100000000ffffffff1a12ce9a757c3578977cfffb141d1a5de91211db60a9ca1de448e0a8817e48980200000000ffffffff04496109fbde45bf0c35744a9ad7aa8f22d552b3e0d3a7e30b7d38a71ce2f9b60100000000ffffffff01dc1f0300000000001976a914d334967b3e4d0cc2545f7d0fb71000b5ca61a4fc88ac01406e55a4ae957a30247588c9b1b89477134ac17eaf6d62f9b5359fc1a5c85fd3a151905ea4add7cf3327523395562299576f1aa0a182990f87ad1f8058e1c5ebe00140f0646f342b0a80d56487ec06db1caa227bd30c0d27da87f2eba7f36c7b9b2419b34f226393c6f1af18f2784a46d4723aaa9623670eb30453d046d42ab20672af0140e025ddb0fc72e96c9046076ed4a7b2ec669d8464e7bd5826a1b72008767886395d1346b8afae95e08ee1eda8aa5fb4669162992fba92c1a309b08ae26f2d791500000000"
}