{
  "txid": "d9f008498a29759d86d0fff5f563102c29ce6374e2936cf6629ec9339b5dd4a4",
  "version": 2,
  "locktime": 0,
  "vin": [
    {
      "txid": "9e50e55a77ed53418b26120ac77b3b979f05ea16d21c8d9bf9d5ea6ddc24c946",
      "vout": 0,
      "prevout": {
        "scriptpubkey": "51205abf6bd8efb8028a63f615ceb58f2371de65343c4d9f9850fdfd0f78414638e5",
        "scriptpubkey_asm": "OP_PUSHNUM_1 OP_PUSHBYTES_32 5abf6bd8efb8028a63f615ceb58f2371de65343c4d9f9850fdfd0f78414638e5",
        "scriptpubkey_type": "v1_p2tr",
        "scriptpubkey_address": "bc1pt2lkhk80hqpg5clkzh8ttrerw80x2dpufk0es58al58hss2x8rjsgqcy25",
        "value": 12000
      },
      "scriptsig": "",
      "scriptsig_asm": "",
      "witness": [
        "7e09fe7b0234c1e114aeb2debd6e999bcb001b8583b6f0fcbb04a9fc98200f5eaacf7186db3d6482195b3198c45548609eaa4fdeef4c174f3b9c26e2f44ff1dd",
        "2023e7480b2aceafaee698dae52070dee19e63e61e03934acf9533f2a8995e10ecac",
        "c023e7480b2aceafaee698dae52070dee19e63e61e03934acf9533f2a8995e10ec"
      ],
      "is_coinbase": false,
      "sequence": 4294967293
    }
  ],
  "vout": [
    {
      "scriptpubkey": "512009a5c4b3cb3336a444d17dca5240e64e36148e3cffac691f629238550e7cb614",
      "scriptpubkey_asm": "OP_PUSHNUM_1 OP_PUSHBYTES_32 09a5c4b3cb3336a444d17dca5240e64e36148e3cffac691f629238550e7cb614",
      "scriptpubkey_type": "v1_p2tr",
      "scriptpubkey_address": "bc1ppxjufv7txvm2g3x30h99ys8xfcmpfr3ul7kxj8mzjgu92rnukc2q7mm4nt",
      "value": 2795
    },
    {
      "scriptpubkey": "5120700b3dc82b8d29ef5444482e2715b9518414901f1410496dc8a2f49ea2f71d37",
      "scriptpubkey_asm": "OP_PUSHNUM_1 OP_PUSHBYTES_32 700b3dc82b8d29ef5444482e2715b9518414901f1410496dc8a2f49ea2f71d37",
      "scriptpubkey_type": "v1_p2tr",
      "scriptpubkey_address": "bc1pwq9nmjpt355774zyfqhzw9de2xzpfyqlzsgyjmwg5t6faghhr5mseknmsh",
      "value": 2795
    },
    {
      "scriptpubkey": "0014d9d200ae31c054a355cfc8fd0cceae82dd3dff78",
      "scriptpubkey_asm": "OP_0 OP_PUSHBYTES_20 d9d200ae31c054a355cfc8fd0cceae82dd3dff78",
      "scriptpubkey_type": "v0_p2wpkh",
      "scriptpubkey_address": "bc1qm8fqpt33cp22x4w0er7sen4wstwnmlmc6y0ccz",
      "value": 4235
    }
  ],
  "size": 305,
  "weight": 809,
  "fee": 2175,
  "status": {
    "confirmed": true,
    "block_height": 834460,
    "block_hash": "00000000000000000000484a79b643b2524bbce82e5d8a442013fa5b8905ed98",
    "block_time": 1710307468
  },
  "hex": "0200000000010146c924dc6dead5f99b8d1cd216ea059f973b7bc70a12268b4153ed775ae5509e0000000000fdffffff03eb0a00000000000022512009a5c4b3cb3336a444d17dca5240e64e36148e3cffac691f629238550e7cb614eb0a000000000000225120700b3dc82b8d29ef5444482e2715b9518414901f1410496dc8a2f49ea2f71d378b10000000000000160014d9d200ae31c054a355cfc8fd0cceae82dd3dff7803407e09fe7b0234c1e114aeb2debd6e999bcb001b8583b6f0fcbb04a9fc98200f5eaacf7186db3d6482195b3198c45548609eaa4fdeef4c174f3b9c26e2f44ff1dd222023e7480b2aceafaee698dae52070dee19e63e61e03934acf9533f2a8995e10ecac21c023e7480b2aceafaee698dae52070dee19e63e61e03934acf9533f2a8995e10ec00000000"
}