{
  "txid": "da0d7b63bea7141f6bda10bf9392df5656633c422868db496f26edf35d3af889",
  "version": 1,
  "locktime": 0,
  "vin": [
    {
      "txid": "3db0da0db22e26db4b8e33a33d768fe61af7523ac3c299f0bad8784c785be95a",
      "vout": 1,
      "prevout": {
        "scriptpubkey": "0014ed30f98f73fdeb220b119bbc280453539a9eaee5",
        "scriptpubkey_asm": "OP_0 OP_PUSHBYTES_20 ed30f98f73fdeb220b119bbc280453539a9eaee5",
        "scriptpubkey_type": "v0_p2wpkh",
        "scriptpubkey_address": "bc1qa5c0nrmnlh4jyzc3nw7zspzn2wdfath940t3jf",
        "value": 1235979
      },
      "scriptsig": "",
      "scriptsig_asm": "",
      "witness": [
        "3045022100ae8aead417caedec490a5a9c4e4de9a77a797b6d7a9e17b4dd91bd9bb81d345a022019bfe7005f627758f8d0859d42c08bd54c423fe79804f073f64d65af7dc2d40b01",
        "030c8e868f62b1a2b5ef2a25733a3da19186f7c9a41cbaaaf1881451f13175b042"
      ],
      "is_coinbase": false,
      "sequence": 4294967295
    }
  ],
  "vout": [
    {
      "scriptpubkey": "00204d315f75b45eacd9e288f665793d58ef8ed2df12f7be69c504b0e47680bca8ca",
      "scriptpubkey_asm": "OP_0 OP_PUSHBYTES_32 4d315f75b45eacd9e288f665793d58ef8ed2df12f7be69c504b0e47680bca8ca",
      "scriptpubkey_type": "v0_p2wsh",
      "scriptpubkey_address": "bc1qf5c47ad5t6kdnc5g7ejhj02ca78d9hcj77lxn3gykrj8dq9u4r9qmwhd9v",
      "value": 500000
    },
    {
      "scriptpubkey": "0014ed30f98f73fdeb220b119bbc280453539a9eaee5",
      "scriptpubkey_asm": "OP_0 OP_PUSHBYTES_20 ed30f98f73fdeb220b119bbc280453539a9eaee5",
      "scriptpubkey_type": "v0_p2wpkh",
      "scriptpubkey_address": "bc1qa5c0nrmnlh4jyzc3nw7zspzn2wdfath940t3jf",
      "value": 731848
    }
  ],
  "size": 235,
  "weight": 610,
  "fee": 4131,
  "status": {
    "confirmed": true,
    "block_height": 834638,
    "block_hash": "000000000000000000025f742c626208ac87e0b7d15054abb4a19ca2d735a54e",
    "block_time": 1710405325
  },
  "hex": "010000000001015ae95b784c78d8baf099c2c33a52f71ae68f763da3338e4bdb262eb20ddab03d0100000000ffffffff0220a10700000000002200204d315f75b45eacd9e288f665793d58ef8ed2df12f7be69c504b0e47680bca8cac82a0b0000000000160014ed30f98f73fdeb220b119bbc280453539a9eaee502483045022100ae8aead417caedec490a5a9c4e4de9a77a797b6d7a9e17b4dd91bd9bb81d345a022019bfe7005f627758f8d0859d42c08bd54c423fe79804f073f64d65af7dc2d40b0121030c8e868f62b1a2b5ef2a25733a3da19186f7c9a41cbaaaf1881451f13175b04200000000"
}