{
  "txid": "da0f1bec9ff9ca09a6187b2480a1d6448d4d7b97804c6db05ce952b794174cdb",
  "version": 1,
  "locktime": 0,
  "vin": [
    {
      "txid": "3a6f70b2ca60fb234c0cf70a4dc36c673edc0bcbef040408a0a7cf5cad1d7ac9",
      "vout": 1,
      "prevout": {
        "scriptpubkey": "0014d599745a6c5b4167e1903d34af99c85c8f8cd1d4",
        "scriptpubkey_asm": "OP_0 OP_PUSHBYTES_20 d599745a6c5b4167e1903d34af99c85c8f8cd1d4",
        "scriptpubkey_type": "v0_p2wpkh",
        "scriptpubkey_address": "bc1q6kvhgknvtdqk0cvs8562lxwgtj8ce5w5lxxnw0",
        "value": 7683
      },
      "scriptsig": "",
      "scriptsig_asm": "",
      "witness": [
        "3045022100842f350d3e06b912e7a73519ecb29af1fe146a08e1100ada9b39ad52019ae5660220166947c0e2ee8783971d428f29aa49642714467cfd4bafd6c1831284ca1e24a901",
        "0386d401170aad73234ab7dea1baf978ec97feb61de9ffa0a481e79899690ebf04"
      ],
      "is_coinbase": false,
      "sequence": 4294967295
    },
    {
      "txid": "87fdffece6d84a582d342472102fa3a26c9fbdfac261dcd83ccb8092334cf3cd",
      "vout": 1,
      "prevout": {
        "scriptpubkey": "0014d599745a6c5b4167e1903d34af99c85c8f8cd1d4",
        "scriptpubkey_asm": "OP_0 OP_PUSHBYTES_20 d599745a6c5b4167e1903d34af99c85c8f8cd1d4",
        "scriptpubkey_type": "v0_p2wpkh",
        "scriptpubkey_address": "bc1q6kvhgknvtdqk0cvs8562lxwgtj8ce5w5lxxnw0",
        "value": 10704262
      },
      "scriptsig": "",
      "scriptsig_asm": "",
      "witness": [
        "3045022100a7557fcefe558cc23df66fbdce6b8a0cbd76319220a1f1a6eb3838932bd7953302207ec1f3344d61edfd91a99748ccd81aa450e46e05478a0b3a9d85525fef981e1301",
        "0386d401170aad73234ab7dea1baf978ec97feb61de9ffa0a481e79899690ebf04"
      ],
      "is_coinbase": false,
      "sequence": 4294967295
    },
    {
      "txid": "9526f86f7ce3c5a9654c1a12a6cd8931e5ec8a64d276d7c6cf95f4a183401872",
      "vout": 0,
      "prevout": {
        "scriptpubkey": "0014d599745a6c5b4167e1903d34af99c85c8f8cd1d4",
        "scriptpubkey_asm": "OP_0 OP_PUSHBYTES_20 d599745a6c5b4167e1903d34af99c85c8f8cd1d4",
        "scriptpubkey_type": "v0_p2wpkh",
        "scriptpubkey_address": "bc1q6kvhgknvtdqk0cvs8562lxwgtj8ce5w5lxxnw0",
        "value": 324270
      },
      "scriptsig": "",
      "scriptsig_asm": "",
      "witness": [
        "304402203a40cf6d3143b4aa383c72b8b15795222952620425bd3937f0ec4864fdf1c79702206e0ee983610c97e5d43c75e0ad3d9ab03f0b2db22988390e8ce64bf94e15fba001",
        "0386d401170aad73234ab7dea1baf978ec97feb61de9ffa0a481e79899690ebf04"
      ],
      "is_coinbase": false,
      "sequence": 4294967295
    }
  ],
  "vout": [
    {
      "scriptpubkey": "76a9140248a64f84275cf24d578529f5fd47b01083507388ac",
      "scriptpubkey_asm": "OP_DUP OP_HASH160 OP_PUSHBYTES_20 0248a64f84275cf24d578529f5fd47b010835073 OP_EQUALVERIFY OP_CHECKSIG",
      "scriptpubkey_type": "p2pkh",
      "scriptpubkey_address": "1D5PArXGafLu5i7D8pYdkYCxKGTJCsYoR",
      "value": 11031733
    }
  ],
  "size": 492,
  "weight": 993,
  "fee": 4482,
  "status": {
    "confirmed": true,
    "block_height": 834638,
    "block_hash": "000000000000000000025f742c626208ac87e0b7d15054abb4a19ca2d735a54e",
    "block_time": 1710405325
  },
  "hex": "01000000000103c97a1dad5ccfa7a0080404efcb0bdc3e676cc34d0af70c4c23fb60cab2706f3a0100000000ffffffffcdf34c339280cb3cd8dc61c2fabd9f6ca2a32f107224342d584ad8e6ecfffd870100000000ffffffff72184083a1f495cfc6d776d2648aece53189cda6121a4c65a9c5e37c6ff826950000000000ffffffff01b554a800000000001976a9140248a64f84275cf24d578529f5fd47b01083507388ac02483045022100842f350d3e06b912e7a73519ecb29af1fe146a08e1100ada9b39ad52019ae5660220166947c0e2ee8783971d428f29aa49642714467cfd4bafd6c1831284ca1e24a901210386d401170aad73234ab7dea1baf978ec97feb61de9ffa0a481e79899690ebf0402483045022100a7557fcefe558cc23df66fbdce6b8a0cbd76319220a1f1a6eb3838932bd7953302207ec1f3344d61edfd91a99748ccd81aa450e46e05478a0b3a9d85525fef981e1301210386d401170aad73234ab7dea1baf978ec97feb61de9ffa0a481e79899690ebf040247304402203a40cf6d3143b4aa383c72b8b15795222952620425bd3937f0ec4864fdf1c79702206e0ee983610c97e5d43c75e0ad3d9ab03f0b2db22988390e8ce64bf94e15fba001210386d401170aad73234ab7dea1baf978ec97feb61de9ffa0a481e79899690ebf0400000000"
}