{
  "txid": "da1489c42411d7e46e813c6498f082279c6d76eee66684e2f3e47d2af5ca2f73",
  "version": 2,
  "locktime": 0,
  "vin": [
    {
      "txid": "9850e6d7b6432f7b0726585bbf0eee563e896575495328ca019678ecec52a440",
      "vout": 1,
      "prevout": {
        "scriptpubkey": "0014192e80ed2c7c412bdc2a6c8f371d15cb90f3c85b",
        "scriptpubkey_asm": "OP_0 OP_PUSHBYTES_20 192e80ed2c7c412bdc2a6c8f371d15cb90f3c85b",
        "scriptpubkey_type": "v0_p2wpkh",
        "scriptpubkey_address": "bc1qryhgpmfv03qjhhp2dj8nw8g4ewg08jzmgy3cyx",
        "value": 2820474542
      },
      "scriptsig": "",
      "scriptsig_asm": "",
      "witness": [
        "3044022040c98c088537dad283d9357a2feecf92bcafaa9c7d0a341fafbef2ab65fc8d6602207cca6dfe7420a20948f96c65f3f2c311a1df31ebc974a3e19fdd39b8ed35912501",
        "03b01bd095f648ea829f000207087f16622431077bb5cc0875225ada601375c885"
      ],
      "is_coinbase": false,
      "sequence": 4294967293
    }
  ],
  "vout": [
    {
      "scriptpubkey": "0014af487936a791446c0782f48a1bb3bb3fd94d8c05",
      "scriptpubkey_asm": "OP_0 OP_PUSHBYTES_20 af487936a791446c0782f48a1bb3bb3fd94d8c05",
      "scriptpubkey_type": "v0_p2wpkh",
      "scriptpubkey_address": "bc1q4ay8jd48j9zxcpuz7j9phvam8lv5mrq989gelh",
      "value": 12874384
    },
    {
      "scriptpubkey": "0014192e80ed2c7c412bdc2a6c8f371d15cb90f3c85b",
      "scriptpubkey_asm": "OP_0 OP_PUSHBYTES_20 192e80ed2c7c412bdc2a6c8f371d15cb90f3c85b",
      "scriptpubkey_type": "v0_p2wpkh",
      "scriptpubkey_address": "bc1qryhgpmfv03qjhhp2dj8nw8g4ewg08jzmgy3cyx",
      "value": 2807593531
    }
  ],
  "size": 222,
  "weight": 561,
  "fee": 6627,
  "status": {
    "confirmed": true,
    "block_height": 834460,
    "block_hash": "00000000000000000000484a79b643b2524bbce82e5d8a442013fa5b8905ed98",
    "block_time": 1710307468
  },
  "hex": "0200000000010140a452ecec789601ca2853497565893e56ee0ebf5b5826077b2f43b6d7e650980100000000fdffffff029072c40000000000160014af487936a791446c0782f48a1bb3bb3fd94d8c053b7a58a700000000160014192e80ed2c7c412bdc2a6c8f371d15cb90f3c85b02473044022040c98c088537dad283d9357a2feecf92bcafaa9c7d0a341fafbef2ab65fc8d6602207cca6dfe7420a20948f96c65f3f2c311a1df31ebc974a3e19fdd39b8ed359125012103b01bd095f648ea829f000207087f16622431077bb5cc0875225ada601375c88500000000"
}