{
  "txid": "da34d3d8cc0268ab89016204d52f4d556510de4f136f27e67b01cd9f782adb47",
  "version": 1,
  "locktime": 0,
  "vin": [
    {
      "txid": "16bd86a7018b3d6badc5f6173c008bd131bc965e3ae16d89ae58e1ee8b6b103a",
      "vout": 1,
      "prevout": {
        "scriptpubkey": "76a91448a68e8b8a263637fda5749f46761b9caa532dd388ac",
        "scriptpubkey_asm": "OP_DUP OP_HASH160 OP_PUSHBYTES_20 48a68e8b8a263637fda5749f46761b9caa532dd3 OP_EQUALVERIFY OP_CHECKSIG",
        "scriptpubkey_type": "p2pkh",
        "scriptpubkey_address": "17d9BPB3VBS8KxmqERdVXna5VSUvACHmEJ",
        "value": 39345164
      },
      "scriptsig": "483045022100e79f2b2e474d6e73dbe089f02352f40020266a9f5f03894c2f515510cfea524b0220259226d9dfab88918a2c26a135e7352be04b044c63b4a236d5a919b875d0cd590121022d0627f05aa6f65c21c4d6adfde67bf507455fe42d43f3186f366c0c344d6e79",
      "scriptsig_asm": "OP_PUSHBYTES_72 3045022100e79f2b2e474d6e73dbe089f02352f40020266a9f5f03894c2f515510cfea524b0220259226d9dfab88918a2c26a135e7352be04b044c63b4a236d5a919b875d0cd5901 OP_PUSHBYTES_33 022d0627f05aa6f65c21c4d6adfde67bf507455fe42d43f3186f366c0c344d6e79",
      "is_coinbase": false,
      "sequence": 4294967295
    },
    {
      "txid": "797ec7de99e0a4711051ef8e57b52062dfc7af1210070ebb2b1e28c40b001275",
      "vout": 1,
      "prevout": {
        "scriptpubkey": "76a91448a68e8b8a263637fda5749f46761b9caa532dd388ac",
        "scriptpubkey_asm": "OP_DUP OP_HASH160 OP_PUSHBYTES_20 48a68e8b8a263637fda5749f46761b9caa532dd3 OP_EQUALVERIFY OP_CHECKSIG",
        "scriptpubkey_type": "p2pkh",
        "scriptpubkey_address": "17d9BPB3VBS8KxmqERdVXna5VSUvACHmEJ",
        "value": 1184052391
      },
      "scriptsig": "483045022100c92afbca9cee9ba140dc2d3d04c7dc421a9798fb615cdfa08822233c8801e7e50220531ee35b4c28eaf698d8b1d47dc31d4aa4242c83e1c1bc3b14b20ebd5e1574b30121022d0627f05aa6f65c21c4d6adfde67bf507455fe42d43f3186f366c0c344d6e79",
      "scriptsig_asm": "OP_PUSHBYTES_72 3045022100c92afbca9cee9ba140dc2d3d04c7dc421a9798fb615cdfa08822233c8801e7e50220531ee35b4c28eaf698d8b1d47dc31d4aa4242c83e1c1bc3b14b20ebd5e1574b301 OP_PUSHBYTES_33 022d0627f05aa6f65c21c4d6adfde67bf507455fe42d43f3186f366c0c344d6e79",
      "is_coinbase": false,
      "sequence": 4294967295
    }
  ],
  "vout": [
    {
      "scriptpubkey": "00149a34030cceae4fe50080d6f090b3c6db10e07d69",
      "scriptpubkey_asm": "OP_0 OP_PUSHBYTES_20 9a34030cceae4fe50080d6f090b3c6db10e07d69",
      "scriptpubkey_type": "v0_p2wpkh",
      "scriptpubkey_address": "bc1qng6qxrxw4e872qyq6mcfpv7xmvgwqltfx0xcvt",
      "value": 40260000
    },
    {
      "scriptpubkey": "76a91448a68e8b8a263637fda5749f46761b9caa532dd388ac",
      "scriptpubkey_asm": "OP_DUP OP_HASH160 OP_PUSHBYTES_20 48a68e8b8a263637fda5749f46761b9caa532dd3 OP_EQUALVERIFY OP_CHECKSIG",
      "scriptpubkey_type": "p2pkh",
      "scriptpubkey_address": "17d9BPB3VBS8KxmqERdVXna5VSUvACHmEJ",
      "value": 1183130235
    }
  ],
  "size": 371,
  "weight": 1484,
  "fee": 7320,
  "status": {
    "confirmed": true,
    "block_height": 834638,
    "block_hash": "000000000000000000025f742c626208ac87e0b7d15054abb4a19ca2d735a54e",
    "block_time": 1710405325
  },
  "hex": "01000000023a106b8beee158ae896de13a5e96bc31d18b003c17f6c5ad6b3d8b01a786bd16010000006b483045022100e79f2b2e474d6e73dbe089f02352f40020266a9f5f03894c2f515510cfea524b0220259226d9dfab88918a2c26a135e7352be04b044c63b4a236d5a919b875d0cd590121022d0627f05aa6f65c21c4d6adfde67bf507455fe42d43f3186f366c0c344d6e79ffffffff7512000bc4281e2bbb0e071012afc7df6220b5578eef511071a4e099dec77e79010000006b483045022100c92afbca9cee9ba140dc2d3d04c7dc421a9798fb615cdfa08822233c8801e7e50220531ee35b4c28eaf698d8b1d47dc31d4aa4242c83e1c1bc3b14b20ebd5e1574b30121022d0627f05aa6f65c21c4d6adfde67bf507455fe42d43f3186f366c0c344d6e79ffffffff02a0516602000000001600149a34030cceae4fe50080d6f090b3c6db10e07d697b228546000000001976a91448a68e8b8a263637fda5749f46761b9caa532dd388ac00000000"
}