{
  "txid": "da419f20fbca14290ec1354efe22493fac7be8b804e73f66ac8eada3dcccfa73",
  "version": 2,
  "locktime": 0,
  "vin": [
    {
      "txid": "feac72b0a25f1958fc42352e80461efe23d603e30e11623e736b57beeafe0207",
      "vout": 0,
      "prevout": {
        "scriptpubkey": "001493a8f853b377f1912af0f6bec3090374807fbfa4",
        "scriptpubkey_asm": "OP_0 OP_PUSHBYTES_20 93a8f853b377f1912af0f6bec3090374807fbfa4",
        "scriptpubkey_type": "v0_p2wpkh",
        "scriptpubkey_address": "bc1qjw50s5anwlcez2hs76lvxzgrwjq8l0ayalnnc5",
        "value": 97100
      },
      "scriptsig": "",
      "scriptsig_asm": "",
      "witness": [
        "30440220712908b642cb0d7da4e3b16ff767d252ec3f60e6498de5c2580ed04806e1bf78022060b1a47057c8ce47fa3fd8bc72a66fe436f14a4b3249956d96315b01289f346301",
        "020ff8187161fe3b9d484e715ac228f2b3b2fc9645b46ba86e0c2efef4866ccc67"
      ],
      "is_coinbase": false,
      "sequence": 4294967293
    }
  ],
  "vout": [
    {
      "scriptpubkey": "0014c521babc6b8b20b7c2c8b1557c10b0050006e4a6",
      "scriptpubkey_asm": "OP_0 OP_PUSHBYTES_20 c521babc6b8b20b7c2c8b1557c10b0050006e4a6",
      "scriptpubkey_type": "v0_p2wpkh",
      "scriptpubkey_address": "bc1qc5sm40rt3vst0skgk92hcy9sq5qqde9xr5g65f",
      "value": 44641
    },
    {
      "scriptpubkey": "0014d18299c03d13987271d01147a518245cf4f39594",
      "scriptpubkey_asm": "OP_0 OP_PUSHBYTES_20 d18299c03d13987271d01147a518245cf4f39594",
      "scriptpubkey_type": "v0_p2wpkh",
      "scriptpubkey_address": "bc1q6xpfnspazwv8yuwsz9r62xpytn6089v563k4df",
      "value": 50370
    }
  ],
  "size": 222,
  "weight": 561,
  "fee": 2089,
  "status": {
    "confirmed": true,
    "block_height": 834638,
    "block_hash": "000000000000000000025f742c626208ac87e0b7d15054abb4a19ca2d735a54e",
    "block_time": 1710405325
  },
  "hex": "020000000001010702feeabe576b733e62110ee303d623fe1e46802e3542fc58195fa2b072acfe0000000000fdffffff0261ae000000000000160014c521babc6b8b20b7c2c8b1557c10b0050006e4a6c2c4000000000000160014d18299c03d13987271d01147a518245cf4f39594024730440220712908b642cb0d7da4e3b16ff767d252ec3f60e6498de5c2580ed04806e1bf78022060b1a47057c8ce47fa3fd8bc72a66fe436f14a4b3249956d96315b01289f34630121020ff8187161fe3b9d484e715ac228f2b3b2fc9645b46ba86e0c2efef4866ccc6700000000"
}