{
  "txid": "da4de266cb78083af982e454488e4defb19d79f28916301e86f05e1dc10b89b5",
  "version": 2,
  "locktime": 0,
  "vin": [
    {
      "txid": "5542a6f2f8f87b5957fbb050fdcb1e68ce827cab703181d6ae56e79554151f8f",
      "vout": 0,
      "prevout": {
        "scriptpubkey": "5120127fd98e3f18fca216f0b7e02d0da16a74bddf643a05ef0d56a826dc9c0a1216",
        "scriptpubkey_asm": "OP_PUSHNUM_1 OP_PUSHBYTES_32 127fd98e3f18fca216f0b7e02d0da16a74bddf643a05ef0d56a826dc9c0a1216",
        "scriptpubkey_type": "v1_p2tr",
        "scriptpubkey_address": "bc1pzflanr3lrr72y9hsklsz6rdpdf6tmhmy8gz77r2k4qnde8q2zgtqsq58qn",
        "value": 3246
      },
      "scriptsig": "",
      "scriptsig_asm": "",
      "witness": [
        "8935f9ef790e36ec354039c080e953944953db2a810d94ff6d98a7e4e28af1e7918315ebc09949630a293ef33da725c4f4fe472e9688e103a6e49ced0c3bbf7f",
        "20abca740f8a04023446a7c0a72f1807649d7a85e215031942a0f189ae1ec05cf4ac0063036f72640101106170706c69636174696f6e2f6a736f6e00387b2270223a226272632d3230222c226f70223a227472616e73666572222c227469636b223a22314f6e38222c22616d74223a22313830227d68",
        "c0abca740f8a04023446a7c0a72f1807649d7a85e215031942a0f189ae1ec05cf4"
      ],
      "is_coinbase": false,
      "sequence": 4294967293
    }
  ],
  "vout": [
    {
      "scriptpubkey": "51204b3def6b7bdf9758a317f5eafc03b3a744cc6bb7dad731af7edbfbb555c2be75",
      "scriptpubkey_asm": "OP_PUSHNUM_1 OP_PUSHBYTES_32 4b3def6b7bdf9758a317f5eafc03b3a744cc6bb7dad731af7edbfbb555c2be75",
      "scriptpubkey_type": "v1_p2tr",
      "scriptpubkey_address": "bc1pfv7776mmm7t43gch7h40cqan5azvc6ahmttnrtm7m0am24wzhe6smdt3m6",
      "value": 546
    }
  ],
  "size": 315,
  "weight": 597,
  "fee": 2700,
  "status": {
    "confirmed": true,
    "block_height": 834460,
    "block_hash": "00000000000000000000484a79b643b2524bbce82e5d8a442013fa5b8905ed98",
    "block_time": 1710307468
  },
  "hex": "020000000001018f1f155495e756aed6813170ab7c82ce681ecbfd50b0fb57597bf8f8f2a642550000000000fdffffff0122020000000000002251204b3def6b7bdf9758a317f5eafc03b3a744cc6bb7dad731af7edbfbb555c2be7503408935f9ef790e36ec354039c080e953944953db2a810d94ff6d98a7e4e28af1e7918315ebc09949630a293ef33da725c4f4fe472e9688e103a6e49ced0c3bbf7f7620abca740f8a04023446a7c0a72f1807649d7a85e215031942a0f189ae1ec05cf4ac0063036f72640101106170706c69636174696f6e2f6a736f6e00387b2270223a226272632d3230222c226f70223a227472616e73666572222c227469636b223a22314f6e38222c22616d74223a22313830227d6821c0abca740f8a04023446a7c0a72f1807649d7a85e215031942a0f189ae1ec05cf400000000"
}