{
  "txid": "da572147f3366db837976b49d7e0bd57570c2f9c2f68a84923154ab786f9bd1a",
  "version": 2,
  "locktime": 0,
  "vin": [
    {
      "txid": "b13bb5512a4904c28a6b7957b88edf574e8cb23551fc1dcfe22d6b239df42cf4",
      "vout": 78,
      "prevout": {
        "scriptpubkey": "5120062c0159f04ccbe7c8eab8450578948cd77ed9ddd2d958f0e55be4ae15231b5e",
        "scriptpubkey_asm": "OP_PUSHNUM_1 OP_PUSHBYTES_32 062c0159f04ccbe7c8eab8450578948cd77ed9ddd2d958f0e55be4ae15231b5e",
        "scriptpubkey_type": "v1_p2tr",
        "scriptpubkey_address": "bc1pqckqzk0sfn970j82hpzs27y53nthakwa6tv43u89t0j2u9frrd0q5peenn",
        "value": 2575
      },
      "scriptsig": "",
      "scriptsig_asm": "",
      "witness": [
        "ea59fec92923b4534fd8a62eb38f137d7a0b5e66a59c980f83746a51ee223ee9cfa624f75058a731e12fbc7c6e3b532913811d2714a3cc50383e5b528952430d",
        "209ffb083a808f7f4849ccc630f700058a1298886b0601654fd38321110395a971ac0063036f726401010a746578742f706c61696e00367b2270223a226272632d3230222c226f70223a226d696e74222c227469636b223a2261616161222c22616d74223a223130303030227d68",
        "c19ffb083a808f7f4849ccc630f700058a1298886b0601654fd38321110395a971"
      ],
      "is_coinbase": false,
      "sequence": 4261412863
    }
  ],
  "vout": [
    {
      "scriptpubkey": "0014ce0b5aa0dac72397a8aa5a85d90a2cfb46f0f630",
      "scriptpubkey_asm": "OP_0 OP_PUSHBYTES_20 ce0b5aa0dac72397a8aa5a85d90a2cfb46f0f630",
      "scriptpubkey_type": "v0_p2wpkh",
      "scriptpubkey_address": "bc1qec944gx6cu3e0292t2zajz3vldr0pa3sh356d9",
      "value": 546
    }
  ],
  "size": 295,
  "weight": 541,
  "fee": 2029,
  "status": {
    "confirmed": true,
    "block_height": 834464,
    "block_hash": "0000000000000000000177a0869a911a2b65c9bdcd5a8bcb02b68f305bee848e",
    "block_time": 1710308296
  },
  "hex": "02000000000101f42cf49d236b2de2cf1dfc5135b28c4e57df8eb857796b8ac204492a51b53bb14e00000000fffffffd012202000000000000160014ce0b5aa0dac72397a8aa5a85d90a2cfb46f0f6300340ea59fec92923b4534fd8a62eb38f137d7a0b5e66a59c980f83746a51ee223ee9cfa624f75058a731e12fbc7c6e3b532913811d2714a3cc50383e5b528952430d6e209ffb083a808f7f4849ccc630f700058a1298886b0601654fd38321110395a971ac0063036f726401010a746578742f706c61696e00367b2270223a226272632d3230222c226f70223a226d696e74222c227469636b223a2261616161222c22616d74223a223130303030227d6821c19ffb083a808f7f4849ccc630f700058a1298886b0601654fd38321110395a97100000000"
}