{
  "txid": "da6f5c278fadb87b03532ecc242b39899b1fb1b5625f457a7b43f972c614d124",
  "version": 2,
  "locktime": 0,
  "vin": [
    {
      "txid": "d9ff5acc9839a824e21dccd92061abce3c10bbfb5601a4e0948e0448f03f5d82",
      "vout": 0,
      "prevout": {
        "scriptpubkey": "5120d549bc72ddb6d771e5472e758d0ee6ef9658841f5fa1ba23e86f5f340f095943",
        "scriptpubkey_asm": "OP_PUSHNUM_1 OP_PUSHBYTES_32 d549bc72ddb6d771e5472e758d0ee6ef9658841f5fa1ba23e86f5f340f095943",
        "scriptpubkey_type": "v1_p2tr",
        "scriptpubkey_address": "bc1p64ymcukakmthre289e6c6rhxa7t93pqlt7sm5glgda0ngrcft9psrx49vm",
        "value": 7423348
      },
      "scriptsig": "",
      "scriptsig_asm": "",
      "witness": [
        "d45a3eb65fc8a9be3d9701c40bbf31e24241b75a5cbbcaf80a7ab62194f1834ff23484eb21e23404fa39337e6bd33d4bd1f922552b5d4039b1190e309ca63d7b"
      ],
      "is_coinbase": false,
      "sequence": 2147483649
    }
  ],
  "vout": [
    {
      "scriptpubkey": "a91488b45cfaf3fc202f120e194d469d699158b3b8c387",
      "scriptpubkey_asm": "OP_HASH160 OP_PUSHBYTES_20 88b45cfaf3fc202f120e194d469d699158b3b8c3 OP_EQUAL",
      "scriptpubkey_type": "p2sh",
      "scriptpubkey_address": "3E9qtVFH8AnbzJCVXRhsXP4rzuwsmzpmpL",
      "value": 7421748
    }
  ],
  "size": 151,
  "weight": 400,
  "fee": 1600,
  "status": {
    "confirmed": true,
    "block_height": 834638,
    "block_hash": "000000000000000000025f742c626208ac87e0b7d15054abb4a19ca2d735a54e",
    "block_time": 1710405325
  },
  "hex": "02000000000101825d3ff048048e94e0a40156fbbb103cceab6120d9cc1de224a83998cc5affd900000000000100008001343f71000000000017a91488b45cfaf3fc202f120e194d469d699158b3b8c3870140d45a3eb65fc8a9be3d9701c40bbf31e24241b75a5cbbcaf80a7ab62194f1834ff23484eb21e23404fa39337e6bd33d4bd1f922552b5d4039b1190e309ca63d7b00000000"
}