{
  "txid": "da8410e2f20f147509140f96737252dd0b9a6edf04b1b52707222c75c1c0b69f",
  "version": 2,
  "locktime": 0,
  "vin": [
    {
      "txid": "97d1b69d879a0e150649e823ddb65b643dba602061f5a3e3c4d11bbb857b4506",
      "vout": 0,
      "prevout": {
        "scriptpubkey": "51200b9152d024c0a437cf76f176efb4c86fd721c6330f49e3db48375892f730c199",
        "scriptpubkey_asm": "OP_PUSHNUM_1 OP_PUSHBYTES_32 0b9152d024c0a437cf76f176efb4c86fd721c6330f49e3db48375892f730c199",
        "scriptpubkey_type": "v1_p2tr",
        "scriptpubkey_address": "bc1ppwg495pyczjr0nmk79mwldxgdltjr33npay78k6gxavf9aescxvsuwpvq5",
        "value": 11000
      },
      "scriptsig": "",
      "scriptsig_asm": "",
      "witness": [
        "1012378012db117f821e0a4ab722a8e94b8e1aebffffdd1fab49096875f55f911d5578bbf6b0f2c3b4848837ff66a76fc2581140d497cf0344fa2902c202e8ea",
        "205f458dad06ed4f51d2a428d287f4cd258e13833653b7c9481bc1749b00684f29ac0063036f726401011e6170706c69636174696f6e2f6a736f6e3b636861727365743d7574662d38004cd37b2270223a22706f772d3230222c226f70223a226d696e74222c227469636b223a2250455045222c22616d74223a2231303030222c22736f6c7574696f6e223a22504550453a62633170397276616c3230386c75767a3230766e647872617065687975666d663067397a6d6b78687a33336d327836613467356b73337471686b7763366c3a303030303030303030303030303030303030303139393431613561653132383937363539383134343239323533333030353762306461393666336465613163353a3336383032363035353236227d68",
        "c00e95d2cb83f01efec0e30ec5989dc6709fea2c93a44b65152e9b5459c47f4202"
      ],
      "is_coinbase": false,
      "sequence": 4294967293
    }
  ],
  "vout": [
    {
      "scriptpubkey": "512028d9dfa9e7ff18253d936987d0e6e4e27697a0a2dd8d71463b51b5daa2968456",
      "scriptpubkey_asm": "OP_PUSHNUM_1 OP_PUSHBYTES_32 28d9dfa9e7ff18253d936987d0e6e4e27697a0a2dd8d71463b51b5daa2968456",
      "scriptpubkey_type": "v1_p2tr",
      "scriptpubkey_address": "bc1p9rval208luvz20vndxrapehyufmf0g9zmkxhz33m2x6a4g5ks3tqhkwc6l",
      "value": 546
    },
    {
      "scriptpubkey": "5120c1acaf2bbd9ff41fae3f0d18cbbe265552db7e0fbc6770624cbd1e0b2b190737",
      "scriptpubkey_asm": "OP_PUSHNUM_1 OP_PUSHBYTES_32 c1acaf2bbd9ff41fae3f0d18cbbe265552db7e0fbc6770624cbd1e0b2b190737",
      "scriptpubkey_type": "v1_p2tr",
      "scriptpubkey_address": "bc1pcxk272aanl6plt3lp5vvh03x24fdkls0h3nhqcjvh50qk2cequmsu8v0f5",
      "value": 3248
    },
    {
      "scriptpubkey": "001471f5a6b369ee1213c39a4f68ad367de92603e53f",
      "scriptpubkey_asm": "OP_0 OP_PUSHBYTES_20 71f5a6b369ee1213c39a4f68ad367de92603e53f",
      "scriptpubkey_type": "v0_p2wpkh",
      "scriptpubkey_address": "bc1qw866dvmfacfp8su6fa526dnaaynq8eflr5wpcx",
      "value": 3468
    }
  ],
  "size": 561,
  "weight": 1065,
  "fee": 3738,
  "status": {
    "confirmed": true,
    "block_height": 834460,
    "block_hash": "00000000000000000000484a79b643b2524bbce82e5d8a442013fa5b8905ed98",
    "block_time": 1710307468
  },
  "hex": "0200000000010106457b85bb1bd1c4e3a3f5612060ba3d645bb6dd23e84906150e9a879db6d1970000000000fdffffff03220200000000000022512028d9dfa9e7ff18253d936987d0e6e4e27697a0a2dd8d71463b51b5daa2968456b00c000000000000225120c1acaf2bbd9ff41fae3f0d18cbbe265552db7e0fbc6770624cbd1e0b2b1907378c0d00000000000016001471f5a6b369ee1213c39a4f68ad367de92603e53f03401012378012db117f821e0a4ab722a8e94b8e1aebffffdd1fab49096875f55f911d5578bbf6b0f2c3b4848837ff66a76fc2581140d497cf0344fa2902c202e8eafd2001205f458dad06ed4f51d2a428d287f4cd258e13833653b7c9481bc1749b00684f29ac0063036f726401011e6170706c69636174696f6e2f6a736f6e3b636861727365743d7574662d38004cd37b2270223a22706f772d3230222c226f70223a226d696e74222c227469636b223a2250455045222c22616d74223a2231303030222c22736f6c7574696f6e223a22504550453a62633170397276616c3230386c75767a3230766e647872617065687975666d663067397a6d6b78687a33336d327836613467356b73337471686b7763366c3a303030303030303030303030303030303030303139393431613561653132383937363539383134343239323533333030353762306461393666336465613163353a3336383032363035353236227d6821c00e95d2cb83f01efec0e30ec5989dc6709fea2c93a44b65152e9b5459c47f420200000000"
}