{
  "txid": "da8966bc61cdadb5845c8dc43b288e92c0bc742755969b349fd721d6a38af544",
  "version": 1,
  "locktime": 0,
  "vin": [
    {
      "txid": "6b954784b477b7afcae6ed062498aaa1727b5be1e2593088f9a35aaedb02fcc0",
      "vout": 7,
      "prevout": {
        "scriptpubkey": "001412b34b415793cc8ca2793766e3b4060778073349",
        "scriptpubkey_asm": "OP_0 OP_PUSHBYTES_20 12b34b415793cc8ca2793766e3b4060778073349",
        "scriptpubkey_type": "v0_p2wpkh",
        "scriptpubkey_address": "bc1qz2e5ks2hj0xgegnexanw8dqxqauqwv6ft8nm2m",
        "value": 1575669
      },
      "scriptsig": "",
      "scriptsig_asm": "",
      "witness": [
        "3045022100fc7bde4b9cd7e54785ac12fbbd9dd672c160d417a6262614914cc32d03aa0e0f02206e56703681e27d55d9d221b11d89dc5bff9d113431b8a529b3f63088595fe19701",
        "037e5e7a99b360cfde6ed771eb519e383d5f4362d5225ce79b0117ec2fdb611ae5"
      ],
      "is_coinbase": false,
      "sequence": 4294967295
    }
  ],
  "vout": [
    {
      "scriptpubkey": "76a9148c0fc97b92815c503714074eaa9fb2bfec7b9aa888ac",
      "scriptpubkey_asm": "OP_DUP OP_HASH160 OP_PUSHBYTES_20 8c0fc97b92815c503714074eaa9fb2bfec7b9aa8 OP_EQUALVERIFY OP_CHECKSIG",
      "scriptpubkey_type": "p2pkh",
      "scriptpubkey_address": "1DmaWm2o3cAWeBNjYacYKw46qH3SgWAwEx",
      "value": 1572618
    }
  ],
  "size": 195,
  "weight": 450,
  "fee": 3051,
  "status": {
    "confirmed": true,
    "block_height": 834638,
    "block_hash": "000000000000000000025f742c626208ac87e0b7d15054abb4a19ca2d735a54e",
    "block_time": 1710405325
  },
  "hex": "01000000000101c0fc02dbae5aa3f9883059e2e15b7b72a1aa982406ede6caafb777b48447956b0700000000ffffffff010aff1700000000001976a9148c0fc97b92815c503714074eaa9fb2bfec7b9aa888ac02483045022100fc7bde4b9cd7e54785ac12fbbd9dd672c160d417a6262614914cc32d03aa0e0f02206e56703681e27d55d9d221b11d89dc5bff9d113431b8a529b3f63088595fe1970121037e5e7a99b360cfde6ed771eb519e383d5f4362d5225ce79b0117ec2fdb611ae500000000"
}