{
  "txid": "da92a57ccec105a5371db14422ca22646396c428f4548c4676c2934bf8ce6bf7",
  "version": 2,
  "locktime": 0,
  "vin": [
    {
      "txid": "5a3fc4ed0e764bb67416127d88abb3565a84071f2dcf3a3688f18e92624e7758",
      "vout": 0,
      "prevout": {
        "scriptpubkey": "001455881f937f0c18b413510f5a9d887525b2c5ff09",
        "scriptpubkey_asm": "OP_0 OP_PUSHBYTES_20 55881f937f0c18b413510f5a9d887525b2c5ff09",
        "scriptpubkey_type": "v0_p2wpkh",
        "scriptpubkey_address": "bc1q2kyplymlpsvtgy63padfmzr4ykevtlcfm3lhqf",
        "value": 835119
      },
      "scriptsig": "",
      "scriptsig_asm": "",
      "witness": [
        "3045022100e2a201e826250caeb0d7d87f7d58a60aaac83acd5caea8098ee2bb4b0bf47eac02201bbeb5b43203b977cce9b626e87a63deebf45bc87ae5fc6387d8290364f9580201",
        "03a3440c02e6a4b4241063d473334e5e0a8c628793fe85ec80e11c9847da8a6e5d"
      ],
      "is_coinbase": false,
      "sequence": 4294967295
    }
  ],
  "vout": [
    {
      "scriptpubkey": "76a91446b660c453db24e6ebed8bb179299619f758dd7188ac",
      "scriptpubkey_asm": "OP_DUP OP_HASH160 OP_PUSHBYTES_20 46b660c453db24e6ebed8bb179299619f758dd71 OP_EQUALVERIFY OP_CHECKSIG",
      "scriptpubkey_type": "p2pkh",
      "scriptpubkey_address": "17StnGroPUsNXBq4AVJQ1fqGftoFZh3zva",
      "value": 831008
    }
  ],
  "size": 195,
  "weight": 450,
  "fee": 4111,
  "status": {
    "confirmed": true,
    "block_height": 834460,
    "block_hash": "00000000000000000000484a79b643b2524bbce82e5d8a442013fa5b8905ed98",
    "block_time": 1710307468
  },
  "hex": "0200000000010158774e62928ef188363acf2d1f07845a56b3ab887d121674b64b760eedc43f5a0000000000ffffffff0120ae0c00000000001976a91446b660c453db24e6ebed8bb179299619f758dd7188ac02483045022100e2a201e826250caeb0d7d87f7d58a60aaac83acd5caea8098ee2bb4b0bf47eac02201bbeb5b43203b977cce9b626e87a63deebf45bc87ae5fc6387d8290364f95802012103a3440c02e6a4b4241063d473334e5e0a8c628793fe85ec80e11c9847da8a6e5d00000000"
}