{
  "txid": "da9409a087ae100441a578b4354b74a8dc4be3acb8757534206ab8f0da8152c4",
  "version": 2,
  "locktime": 0,
  "vin": [
    {
      "txid": "f36f629b64bf4eb16273f9b8ad70c00f49baa8d0e78a6be3ba6154ff0e7dcee7",
      "vout": 30,
      "prevout": {
        "scriptpubkey": "a9144b3273cdcbff94214f1fd9888c8bcbbf92625aed87",
        "scriptpubkey_asm": "OP_HASH160 OP_PUSHBYTES_20 4b3273cdcbff94214f1fd9888c8bcbbf92625aed OP_EQUAL",
        "scriptpubkey_type": "p2sh",
        "scriptpubkey_address": "38Yd3RTBGNjf1FXn3Dy8tQmcPKsrU3yGHw",
        "value": 37626
      },
      "scriptsig": "160014ce6f93c2a8df39b5422b88685e101ff8c0e008fe",
      "scriptsig_asm": "OP_PUSHBYTES_22 0014ce6f93c2a8df39b5422b88685e101ff8c0e008fe",
      "witness": [
        "3044022012f14d3ffd590ba8357d6aab17187bce2fd2b4508c4460a9990d414ee35dd690022017fab095d51b8c13084f12c8ef9e37a4db59006a7d54a23839b61188ae2c93fc01",
        "03e6168769a483a268bdcb11d7984637a3b18be3d076c295ad80ecf1aef68ef560"
      ],
      "is_coinbase": false,
      "sequence": 4294967295,
      "inner_redeemscript_asm": "OP_0 OP_PUSHBYTES_20 ce6f93c2a8df39b5422b88685e101ff8c0e008fe"
    },
    {
      "txid": "8d9266fca45a77200fb9dcd1aba59bafbc4a4beaab35ddbb6db584358427608d",
      "vout": 16,
      "prevout": {
        "scriptpubkey": "a9144b3273cdcbff94214f1fd9888c8bcbbf92625aed87",
        "scriptpubkey_asm": "OP_HASH160 OP_PUSHBYTES_20 4b3273cdcbff94214f1fd9888c8bcbbf92625aed OP_EQUAL",
        "scriptpubkey_type": "p2sh",
        "scriptpubkey_address": "38Yd3RTBGNjf1FXn3Dy8tQmcPKsrU3yGHw",
        "value": 41966
      },
      "scriptsig": "160014ce6f93c2a8df39b5422b88685e101ff8c0e008fe",
      "scriptsig_asm": "OP_PUSHBYTES_22 0014ce6f93c2a8df39b5422b88685e101ff8c0e008fe",
      "witness": [
        "30440220268a6e252ed5e9e8a7ecc024fcb78c177794f2b2eb2f394de19da9282d2ecaba022042b9332281f0d55a5fb5ffca4e9622e86420898005b1857953e06f86a343734e01",
        "03e6168769a483a268bdcb11d7984637a3b18be3d076c295ad80ecf1aef68ef560"
      ],
      "is_coinbase": false,
      "sequence": 4294967295,
      "inner_redeemscript_asm": "OP_0 OP_PUSHBYTES_20 ce6f93c2a8df39b5422b88685e101ff8c0e008fe"
    },
    {
      "txid": "c84184d24081ed23ebadbaed15178de0aa97b8b80bb1756144720c94a3932e8a",
      "vout": 2,
      "prevout": {
        "scriptpubkey": "a9144b3273cdcbff94214f1fd9888c8bcbbf92625aed87",
        "scriptpubkey_asm": "OP_HASH160 OP_PUSHBYTES_20 4b3273cdcbff94214f1fd9888c8bcbbf92625aed OP_EQUAL",
        "scriptpubkey_type": "p2sh",
        "scriptpubkey_address": "38Yd3RTBGNjf1FXn3Dy8tQmcPKsrU3yGHw",
        "value": 45767
      },
      "scriptsig": "160014ce6f93c2a8df39b5422b88685e101ff8c0e008fe",
      "scriptsig_asm": "OP_PUSHBYTES_22 0014ce6f93c2a8df39b5422b88685e101ff8c0e008fe",
      "witness": [
        "3045022100ee95c8b8383d9edd466918770589dba812f8d53abd4a8c3ee3b3c52d7a632a1002204b7703b31f30b437c9b4913d16a51ee1a1a8b8e2c89e78e851459c85fcb6a1cf01",
        "03e6168769a483a268bdcb11d7984637a3b18be3d076c295ad80ecf1aef68ef560"
      ],
      "is_coinbase": false,
      "sequence": 4294967295,
      "inner_redeemscript_asm": "OP_0 OP_PUSHBYTES_20 ce6f93c2a8df39b5422b88685e101ff8c0e008fe"
    },
    {
      "txid": "71a01cc678df213aeab7e4a71af20b1fb6f409a2af1b803ee9ece03b75636505",
      "vout": 1,
      "prevout": {
        "scriptpubkey": "a9144b3273cdcbff94214f1fd9888c8bcbbf92625aed87",
        "scriptpubkey_asm": "OP_HASH160 OP_PUSHBYTES_20 4b3273cdcbff94214f1fd9888c8bcbbf92625aed OP_EQUAL",
        "scriptpubkey_type": "p2sh",
        "scriptpubkey_address": "38Yd3RTBGNjf1FXn3Dy8tQmcPKsrU3yGHw",
        "value": 50501
      },
      "scriptsig": "160014ce6f93c2a8df39b5422b88685e101ff8c0e008fe",
      "scriptsig_asm": "OP_PUSHBYTES_22 0014ce6f93c2a8df39b5422b88685e101ff8c0e008fe",
      "witness": [
        "3045022100e970c68c895e3dd81d972e441f218567851a6e33488ce718dc9426be3aca4a3802205a7fe469845d6adc49013a50b46d2c8b3c15fa02d48befc7a281d3f73dd2f8f701",
        "03e6168769a483a268bdcb11d7984637a3b18be3d076c295ad80ecf1aef68ef560"
      ],
      "is_coinbase": false,
      "sequence": 4294967295,
      "inner_redeemscript_asm": "OP_0 OP_PUSHBYTES_20 ce6f93c2a8df39b5422b88685e101ff8c0e008fe"
    },
    {
      "txid": "df55389aee85564935cef51386648a37bf67812412508f651fbbe614117162c3",
      "vout": 25,
      "prevout": {
        "scriptpubkey": "a9144b3273cdcbff94214f1fd9888c8bcbbf92625aed87",
        "scriptpubkey_asm": "OP_HASH160 OP_PUSHBYTES_20 4b3273cdcbff94214f1fd9888c8bcbbf92625aed OP_EQUAL",
        "scriptpubkey_type": "p2sh",
        "scriptpubkey_address": "38Yd3RTBGNjf1FXn3Dy8tQmcPKsrU3yGHw",
        "value": 52471
      },
      "scriptsig": "160014ce6f93c2a8df39b5422b88685e101ff8c0e008fe",
      "scriptsig_asm": "OP_PUSHBYTES_22 0014ce6f93c2a8df39b5422b88685e101ff8c0e008fe",
      "witness": [
        "3045022100b0879cb9b3076ad5a2d86df03bc0d6538dc515a061ddafa28f5b8a2b0bd757d602204b56704160e5a3a7fa9e0fcd4cbd7c7f0b21434ef70a0cae567201bfaa3cbe5801",
        "03e6168769a483a268bdcb11d7984637a3b18be3d076c295ad80ecf1aef68ef560"
      ],
      "is_coinbase": false,
      "sequence": 4294967295,
      "inner_redeemscript_asm": "OP_0 OP_PUSHBYTES_20 ce6f93c2a8df39b5422b88685e101ff8c0e008fe"
    },
    {
      "txid": "40875a7c6fe726fabc550b9b58b801f0078889944d2cb45c7ef0b6fddcb0bb36",
      "vout": 6,
      "prevout": {
        "scriptpubkey": "a9144b3273cdcbff94214f1fd9888c8bcbbf92625aed87",
        "scriptpubkey_asm": "OP_HASH160 OP_PUSHBYTES_20 4b3273cdcbff94214f1fd9888c8bcbbf92625aed OP_EQUAL",
        "scriptpubkey_type": "p2sh",
        "scriptpubkey_address": "38Yd3RTBGNjf1FXn3Dy8tQmcPKsrU3yGHw",
        "value": 56139
      },
      "scriptsig": "160014ce6f93c2a8df39b5422b88685e101ff8c0e008fe",
      "scriptsig_asm": "OP_PUSHBYTES_22 0014ce6f93c2a8df39b5422b88685e101ff8c0e008fe",
      "witness": [
        "304402207e2cc4251acba1cfa3f128129778e2310765d7d68bba604d41248349b0c181300220239d462843472597927351c1bea6d8ce31cf15bc58d2870ce2c44606ae3792af01",
        "03e6168769a483a268bdcb11d7984637a3b18be3d076c295ad80ecf1aef68ef560"
      ],
      "is_coinbase": false,
      "sequence": 4294967295,
      "inner_redeemscript_asm": "OP_0 OP_PUSHBYTES_20 ce6f93c2a8df39b5422b88685e101ff8c0e008fe"
    },
    {
      "txid": "f1640af9c28d0670bab4de8bbe5352c392d9b1882fd4d21c43b6a4c5b5c298be",
      "vout": 76,
      "prevout": {
        "scriptpubkey": "a9144b3273cdcbff94214f1fd9888c8bcbbf92625aed87",
        "scriptpubkey_asm": "OP_HASH160 OP_PUSHBYTES_20 4b3273cdcbff94214f1fd9888c8bcbbf92625aed OP_EQUAL",
        "scriptpubkey_type": "p2sh",
        "scriptpubkey_address": "38Yd3RTBGNjf1FXn3Dy8tQmcPKsrU3yGHw",
        "value": 51855
      },
      "scriptsig": "160014ce6f93c2a8df39b5422b88685e101ff8c0e008fe",
      "scriptsig_asm": "OP_PUSHBYTES_22 0014ce6f93c2a8df39b5422b88685e101ff8c0e008fe",
      "witness": [
        "3044022028fbbce9b08aab86309fb47713474dde9be171d0fd91803336ed213882afd2bb022026916b35569dd231d36e8f6d78326d1e6d006dfac4b0a9b8229bd7581ce3d55301",
        "03e6168769a483a268bdcb11d7984637a3b18be3d076c295ad80ecf1aef68ef560"
      ],
      "is_coinbase": false,
      "sequence": 4294967295,
      "inner_redeemscript_asm": "OP_0 OP_PUSHBYTES_20 ce6f93c2a8df39b5422b88685e101ff8c0e008fe"
    },
    {
      "txid": "07fd0bf060041b22a2e9c0dac411a4942f25e01dc4b155afc0c39cc05dc5a108",
      "vout": 78,
      "prevout": {
        "scriptpubkey": "a9144b3273cdcbff94214f1fd9888c8bcbbf92625aed87",
        "scriptpubkey_asm": "OP_HASH160 OP_PUSHBYTES_20 4b3273cdcbff94214f1fd9888c8bcbbf92625aed OP_EQUAL",
        "scriptpubkey_type": "p2sh",
        "scriptpubkey_address": "38Yd3RTBGNjf1FXn3Dy8tQmcPKsrU3yGHw",
        "value": 47800
      },
      "scriptsig": "160014ce6f93c2a8df39b5422b88685e101ff8c0e008fe",
      "scriptsig_asm": "OP_PUSHBYTES_22 0014ce6f93c2a8df39b5422b88685e101ff8c0e008fe",
      "witness": [
        "30440220606e110c70daf7971cb4bca258ab8d26d7f5a356da1ad2977d17bd637c949f7a022008bdab754bbf9df062b59dc973e8ee0e1b0845baa72bf70b2016bde89a15e9d901",
        "03e6168769a483a268bdcb11d7984637a3b18be3d076c295ad80ecf1aef68ef560"
      ],
      "is_coinbase": false,
      "sequence": 4294967295,
      "inner_redeemscript_asm": "OP_0 OP_PUSHBYTES_20 ce6f93c2a8df39b5422b88685e101ff8c0e008fe"
    },
    {
      "txid": "cb376d0bb5dfe31fc7ddeb769513503c457a3a2abf0722ca18d6569f0d5a4533",
      "vout": 37,
      "prevout": {
        "scriptpubkey": "a9144b3273cdcbff94214f1fd9888c8bcbbf92625aed87",
        "scriptpubkey_asm": "OP_HASH160 OP_PUSHBYTES_20 4b3273cdcbff94214f1fd9888c8bcbbf92625aed OP_EQUAL",
        "scriptpubkey_type": "p2sh",
        "scriptpubkey_address": "38Yd3RTBGNjf1FXn3Dy8tQmcPKsrU3yGHw",
        "value": 49517
      },
      "scriptsig": "160014ce6f93c2a8df39b5422b88685e101ff8c0e008fe",
      "scriptsig_asm": "OP_PUSHBYTES_22 0014ce6f93c2a8df39b5422b88685e101ff8c0e008fe",
      "witness": [
        "3045022100a89fc2db09b6c9976e4d7bd242289597e4534700cbadb09152dca068ca4d07b902204f46809a09c07a4f83b2b087296b0eb494c6d44946ed4573b6ff3c9a5a39096101",
        "03e6168769a483a268bdcb11d7984637a3b18be3d076c295ad80ecf1aef68ef560"
      ],
      "is_coinbase": false,
      "sequence": 4294967295,
      "inner_redeemscript_asm": "OP_0 OP_PUSHBYTES_20 ce6f93c2a8df39b5422b88685e101ff8c0e008fe"
    },
    {
      "txid": "fe6d8f7388b5085e3cf4f0be4b5982a1c5ffb065b74a6ea43458b6825c10d602",
      "vout": 15,
      "prevout": {
        "scriptpubkey": "a9144b3273cdcbff94214f1fd9888c8bcbbf92625aed87",
        "scriptpubkey_asm": "OP_HASH160 OP_PUSHBYTES_20 4b3273cdcbff94214f1fd9888c8bcbbf92625aed OP_EQUAL",
        "scriptpubkey_type": "p2sh",
        "scriptpubkey_address": "38Yd3RTBGNjf1FXn3Dy8tQmcPKsrU3yGHw",
        "value": 52967
      },
      "scriptsig": "160014ce6f93c2a8df39b5422b88685e101ff8c0e008fe",
      "scriptsig_asm": "OP_PUSHBYTES_22 0014ce6f93c2a8df39b5422b88685e101ff8c0e008fe",
      "witness": [
        "3045022100efaed0cde9ec07eb4f26cc5d0c3410f10f7cf9d12607cd568a74e6a7a0f1f22c02204c5136652cef50c470a89665b28fbf35e8c913a8ee41910776c55b8d1a81abe001",
        "03e6168769a483a268bdcb11d7984637a3b18be3d076c295ad80ecf1aef68ef560"
      ],
      "is_coinbase": false,
      "sequence": 4294967295,
      "inner_redeemscript_asm": "OP_0 OP_PUSHBYTES_20 ce6f93c2a8df39b5422b88685e101ff8c0e008fe"
    },
    {
      "txid": "6c3c16a0792d1e68cd48985c4d32766356b6c5bf3ff2e77ea0eef64492edca12",
      "vout": 53,
      "prevout": {
        "scriptpubkey": "a9144b3273cdcbff94214f1fd9888c8bcbbf92625aed87",
        "scriptpubkey_asm": "OP_HASH160 OP_PUSHBYTES_20 4b3273cdcbff94214f1fd9888c8bcbbf92625aed OP_EQUAL",
        "scriptpubkey_type": "p2sh",
        "scriptpubkey_address": "38Yd3RTBGNjf1FXn3Dy8tQmcPKsrU3yGHw",
        "value": 51794
      },
      "scriptsig": "160014ce6f93c2a8df39b5422b88685e101ff8c0e008fe",
      "scriptsig_asm": "OP_PUSHBYTES_22 0014ce6f93c2a8df39b5422b88685e101ff8c0e008fe",
      "witness": [
        "304502210088720e6d9dca864a1f945f477939dfd2ce666ac1171dd7a7991ce08164ce6571022018df14db42b919268654dc37d9e36941740e36acc66af6bf7bedddd62231645901",
        "03e6168769a483a268bdcb11d7984637a3b18be3d076c295ad80ecf1aef68ef560"
      ],
      "is_coinbase": false,
      "sequence": 4294967295,
      "inner_redeemscript_asm": "OP_0 OP_PUSHBYTES_20 ce6f93c2a8df39b5422b88685e101ff8c0e008fe"
    },
    {
      "txid": "5bd901a66b3354390e47c755c8d610254738ac91ce6a54610cca5d6c675a5f44",
      "vout": 5,
      "prevout": {
        "scriptpubkey": "a9144b3273cdcbff94214f1fd9888c8bcbbf92625aed87",
        "scriptpubkey_asm": "OP_HASH160 OP_PUSHBYTES_20 4b3273cdcbff94214f1fd9888c8bcbbf92625aed OP_EQUAL",
        "scriptpubkey_type": "p2sh",
        "scriptpubkey_address": "38Yd3RTBGNjf1FXn3Dy8tQmcPKsrU3yGHw",
        "value": 64475
      },
      "scriptsig": "160014ce6f93c2a8df39b5422b88685e101ff8c0e008fe",
      "scriptsig_asm": "OP_PUSHBYTES_22 0014ce6f93c2a8df39b5422b88685e101ff8c0e008fe",
      "witness": [
        "3045022100cae2dbd3db3ee092b15b4ec4854ad776cc491f9937c79f780605405b5f8561a102203fe8ed8c73c304f0ee41976e59921fd817ea56ae283e4ef0bf0574695e49087d01",
        "03e6168769a483a268bdcb11d7984637a3b18be3d076c295ad80ecf1aef68ef560"
      ],
      "is_coinbase": false,
      "sequence": 4294967295,
      "inner_redeemscript_asm": "OP_0 OP_PUSHBYTES_20 ce6f93c2a8df39b5422b88685e101ff8c0e008fe"
    },
    {
      "txid": "55a287548d11d42bdcec9b1305492a7a3cc4439e2157b3faf06bdecff0349d23",
      "vout": 15,
      "prevout": {
        "scriptpubkey": "a9144b3273cdcbff94214f1fd9888c8bcbbf92625aed87",
        "scriptpubkey_asm": "OP_HASH160 OP_PUSHBYTES_20 4b3273cdcbff94214f1fd9888c8bcbbf92625aed OP_EQUAL",
        "scriptpubkey_type": "p2sh",
        "scriptpubkey_address": "38Yd3RTBGNjf1FXn3Dy8tQmcPKsrU3yGHw",
        "value": 65096
      },
      "scriptsig": "160014ce6f93c2a8df39b5422b88685e101ff8c0e008fe",
      "scriptsig_asm": "OP_PUSHBYTES_22 0014ce6f93c2a8df39b5422b88685e101ff8c0e008fe",
      "witness": [
        "3044022061439c882fd82172e6e3ec326bfbbff28c70b2a734d4e3b536fe6e819793892b02202b8cfe3f44c417ba9b7d6c1ad3e1cd1951d7aacaaf290f4da3702200a5000c3901",
        "03e6168769a483a268bdcb11d7984637a3b18be3d076c295ad80ecf1aef68ef560"
      ],
      "is_coinbase": false,
      "sequence": 4294967295,
      "inner_redeemscript_asm": "OP_0 OP_PUSHBYTES_20 ce6f93c2a8df39b5422b88685e101ff8c0e008fe"
    },
    {
      "txid": "7c7393ff9799f40092d155b4ac29c86af4a29bcfe75b4e73c1ec87860228b18f",
      "vout": 91,
      "prevout": {
        "scriptpubkey": "a9144b3273cdcbff94214f1fd9888c8bcbbf92625aed87",
        "scriptpubkey_asm": "OP_HASH160 OP_PUSHBYTES_20 4b3273cdcbff94214f1fd9888c8bcbbf92625aed OP_EQUAL",
        "scriptpubkey_type": "p2sh",
        "scriptpubkey_address": "38Yd3RTBGNjf1FXn3Dy8tQmcPKsrU3yGHw",
        "value": 73895
      },
      "scriptsig": "160014ce6f93c2a8df39b5422b88685e101ff8c0e008fe",
      "scriptsig_asm": "OP_PUSHBYTES_22 0014ce6f93c2a8df39b5422b88685e101ff8c0e008fe",
      "witness": [
        "3044022063b174feb6b18b361b3d08a8793f5cb8dcb599cc14b96de82f2f53fef30874a6022043c081910b44b4d87e447d79cbf48920e975e02a598cc53591061ccf0a4c583001",
        "03e6168769a483a268bdcb11d7984637a3b18be3d076c295ad80ecf1aef68ef560"
      ],
      "is_coinbase": false,
      "sequence": 4294967295,
      "inner_redeemscript_asm": "OP_0 OP_PUSHBYTES_20 ce6f93c2a8df39b5422b88685e101ff8c0e008fe"
    },
    {
      "txid": "bbbe01d443cde8258957b2157cee51ddc9b82ae21d13ac1cecf2499fd4197d44",
      "vout": 52,
      "prevout": {
        "scriptpubkey": "a9144b3273cdcbff94214f1fd9888c8bcbbf92625aed87",
        "scriptpubkey_asm": "OP_HASH160 OP_PUSHBYTES_20 4b3273cdcbff94214f1fd9888c8bcbbf92625aed OP_EQUAL",
        "scriptpubkey_type": "p2sh",
        "scriptpubkey_address": "38Yd3RTBGNjf1FXn3Dy8tQmcPKsrU3yGHw",
        "value": 73361
      },
      "scriptsig": "160014ce6f93c2a8df39b5422b88685e101ff8c0e008fe",
      "scriptsig_asm": "OP_PUSHBYTES_22 0014ce6f93c2a8df39b5422b88685e101ff8c0e008fe",
      "witness": [
        "3045022100a39052d84556debb3506745b1a8a73899caddef54c1af34ec644d01b0bbf144402205818f6fe1224b4b20da2cbd376be78bbc7f25052a8bca77f8c0b6ab34ee9508b01",
        "03e6168769a483a268bdcb11d7984637a3b18be3d076c295ad80ecf1aef68ef560"
      ],
      "is_coinbase": false,
      "sequence": 4294967295,
      "inner_redeemscript_asm": "OP_0 OP_PUSHBYTES_20 ce6f93c2a8df39b5422b88685e101ff8c0e008fe"
    },
    {
      "txid": "03d6066c56a9944ed34f9327296e044931097e881683feb5b377673b7f3a3420",
      "vout": 35,
      "prevout": {
        "scriptpubkey": "a9144b3273cdcbff94214f1fd9888c8bcbbf92625aed87",
        "scriptpubkey_asm": "OP_HASH160 OP_PUSHBYTES_20 4b3273cdcbff94214f1fd9888c8bcbbf92625aed OP_EQUAL",
        "scriptpubkey_type": "p2sh",
        "scriptpubkey_address": "38Yd3RTBGNjf1FXn3Dy8tQmcPKsrU3yGHw",
        "value": 72812
      },
      "scriptsig": "160014ce6f93c2a8df39b5422b88685e101ff8c0e008fe",
      "scriptsig_asm": "OP_PUSHBYTES_22 0014ce6f93c2a8df39b5422b88685e101ff8c0e008fe",
      "witness": [
        "3045022100b7a6c338f835553035d6c98d1af31194c5ad85ee458d6c861727305712786116022011127b2418042678c74677d7fb606967ad6335edef88818aefd5bf6c9e5930bb01",
        "03e6168769a483a268bdcb11d7984637a3b18be3d076c295ad80ecf1aef68ef560"
      ],
      "is_coinbase": false,
      "sequence": 4294967295,
      "inner_redeemscript_asm": "OP_0 OP_PUSHBYTES_20 ce6f93c2a8df39b5422b88685e101ff8c0e008fe"
    },
    {
      "txid": "9bba74f4370ba470ae3021b22997dc0dba7a9c080f482b87d71906109e7009d5",
      "vout": 38,
      "prevout": {
        "scriptpubkey": "a9144b3273cdcbff94214f1fd9888c8bcbbf92625aed87",
        "scriptpubkey_asm": "OP_HASH160 OP_PUSHBYTES_20 4b3273cdcbff94214f1fd9888c8bcbbf92625aed OP_EQUAL",
        "scriptpubkey_type": "p2sh",
        "scriptpubkey_address": "38Yd3RTBGNjf1FXn3Dy8tQmcPKsrU3yGHw",
        "value": 76671
      },
      "scriptsig": "160014ce6f93c2a8df39b5422b88685e101ff8c0e008fe",
      "scriptsig_asm": "OP_PUSHBYTES_22 0014ce6f93c2a8df39b5422b88685e101ff8c0e008fe",
      "witness": [
        "3044022032f0e3f56f46e8a9c294832ae7e381448e09afa01195c0e9f60cce774f79c92402204cddfc35bd971135aab544b74e4cdbb452e96a05f3becde55f1345c226ea8d3d01",
        "03e6168769a483a268bdcb11d7984637a3b18be3d076c295ad80ecf1aef68ef560"
      ],
      "is_coinbase": false,
      "sequence": 4294967295,
      "inner_redeemscript_asm": "OP_0 OP_PUSHBYTES_20 ce6f93c2a8df39b5422b88685e101ff8c0e008fe"
    }
  ],
  "vout": [
    {
      "scriptpubkey": "001420ca6f0a05d448ef29738b43e8544d91f9f4b009",
      "scriptpubkey_asm": "OP_0 OP_PUSHBYTES_20 20ca6f0a05d448ef29738b43e8544d91f9f4b009",
      "scriptpubkey_type": "v0_p2wpkh",
      "scriptpubkey_address": "bc1qyr9x7zs963yw72tn3dp7s4zdj8ulfvqf0ek6eh",
      "value": 926853
    }
  ],
  "size": 2959,
  "weight": 6346,
  "fee": 37860,
  "status": {
    "confirmed": true,
    "block_height": 834638,
    "block_hash": "000000000000000000025f742c626208ac87e0b7d15054abb4a19ca2d735a54e",
    "block_time": 1710405325
  },
  "hex": "02000000000111e7ce7d0eff5461bae36b8ae7d0a8ba490fc070adb8f97362b14ebf649b626ff31e00000017160014ce6f93c2a8df39b5422b88685e101ff8c0e008feffffffff8d6027843584b56dbbdd35abea4b4abcaf9ba5abd1dcb90f20775aa4fc66928d1000000017160014ce6f93c2a8df39b5422b88685e101ff8c0e008feffffffff8a2e93a3940c72446175b10bb8b897aae08d1715edbaadeb23ed8140d28441c80200000017160014ce6f93c2a8df39b5422b88685e101ff8c0e008feffffffff056563753be0ece93e801bafa209f4b61f0bf21aa7e4b7ea3a21df78c61ca0710100000017160014ce6f93c2a8df39b5422b88685e101ff8c0e008feffffffffc362711114e6bb1f658f5012248167bf378a648613f5ce35495685ee9a3855df1900000017160014ce6f93c2a8df39b5422b88685e101ff8c0e008feffffffff36bbb0dcfdb6f07e5cb42c4d94898807f001b8589b0b55bcfa26e76f7c5a87400600000017160014ce6f93c2a8df39b5422b88685e101ff8c0e008feffffffffbe98c2b5c5a4b6431cd2d42f88b1d992c35253be8bdeb4ba70068dc2f90a64f14c00000017160014ce6f93c2a8df39b5422b88685e101ff8c0e008feffffffff08a1c55dc09cc3c0af55b1c41de0252f94a411c4dac0e9a2221b0460f00bfd074e00000017160014ce6f93c2a8df39b5422b88685e101ff8c0e008feffffffff33455a0d9f56d618ca2207bf2a3a7a453c50139576ebddc71fe3dfb50b6d37cb2500000017160014ce6f93c2a8df39b5422b88685e101ff8c0e008feffffffff02d6105c82b65834a46e4ab765b0ffc5a182594bbef0f43c5e08b588738f6dfe0f00000017160014ce6f93c2a8df39b5422b88685e101ff8c0e008feffffffff12caed9244f6eea07ee7f23fbfc5b6566376324d5c9848cd681e2d79a0163c6c3500000017160014ce6f93c2a8df39b5422b88685e101ff8c0e008feffffffff445f5a676c5dca0c61546ace91ac38472510d6c855c7470e3954336ba601d95b0500000017160014ce6f93c2a8df39b5422b88685e101ff8c0e008feffffffff239d34f0cfde6bf0fab357219e43c43c7a2a4905139becdc2bd4118d5487a2550f00000017160014ce6f93c2a8df39b5422b88685e101ff8c0e008feffffffff8fb128028687ecc1734e5be7cf9ba2f46ac829acb455d19200f49997ff93737c5b00000017160014ce6f93c2a8df39b5422b88685e101ff8c0e008feffffffff447d19d49f49f2ec1cac131de22ab8c9dd51ee7c15b2578925e8cd43d401bebb3400000017160014ce6f93c2a8df39b5422b88685e101ff8c0e008feffffffff20343a7f3b6777b3b5fe8316887e093149046e2927934fd34e94a9566c06d6032300000017160014ce6f93c2a8df39b5422b88685e101ff8c0e008feffffffffd509709e100619d7872b480f089c7aba0ddc9729b22130ae70a40b37f474ba9b2600000017160014ce6f93c2a8df39b5422b88685e101ff8c0e008feffffffff0185240e000000000016001420ca6f0a05d448ef29738b43e8544d91f9f4b00902473044022012f14d3ffd590ba8357d6aab17187bce2fd2b4508c4460a9990d414ee35dd690022017fab095d51b8c13084f12c8ef9e37a4db59006a7d54a23839b61188ae2c93fc012103e6168769a483a268bdcb11d7984637a3b18be3d076c295ad80ecf1aef68ef560024730440220268a6e252ed5e9e8a7ecc024fcb78c177794f2b2eb2f394de19da9282d2ecaba022042b9332281f0d55a5fb5ffca4e9622e86420898005b1857953e06f86a343734e012103e6168769a483a268bdcb11d7984637a3b18be3d076c295ad80ecf1aef68ef56002483045022100ee95c8b8383d9edd466918770589dba812f8d53abd4a8c3ee3b3c52d7a632a1002204b7703b31f30b437c9b4913d16a51ee1a1a8b8e2c89e78e851459c85fcb6a1cf012103e6168769a483a268bdcb11d7984637a3b18be3d076c295ad80ecf1aef68ef56002483045022100e970c68c895e3dd81d972e441f218567851a6e33488ce718dc9426be3aca4a3802205a7fe469845d6adc49013a50b46d2c8b3c15fa02d48befc7a281d3f73dd2f8f7012103e6168769a483a268bdcb11d7984637a3b18be3d076c295ad80ecf1aef68ef56002483045022100b0879cb9b3076ad5a2d86df03bc0d6538dc515a061ddafa28f5b8a2b0bd757d602204b56704160e5a3a7fa9e0fcd4cbd7c7f0b21434ef70a0cae567201bfaa3cbe58012103e6168769a483a268bdcb11d7984637a3b18be3d076c295ad80ecf1aef68ef5600247304402207e2cc4251acba1cfa3f128129778e2310765d7d68bba604d41248349b0c181300220239d462843472597927351c1bea6d8ce31cf15bc58d2870ce2c44606ae3792af012103e6168769a483a268bdcb11d7984637a3b18be3d076c295ad80ecf1aef68ef56002473044022028fbbce9b08aab86309fb47713474dde9be171d0fd91803336ed213882afd2bb022026916b35569dd231d36e8f6d78326d1e6d006dfac4b0a9b8229bd7581ce3d553012103e6168769a483a268bdcb11d7984637a3b18be3d076c295ad80ecf1aef68ef560024730440220606e110c70daf7971cb4bca258ab8d26d7f5a356da1ad2977d17bd637c949f7a022008bdab754bbf9df062b59dc973e8ee0e1b0845baa72bf70b2016bde89a15e9d9012103e6168769a483a268bdcb11d7984637a3b18be3d076c295ad80ecf1aef68ef56002483045022100a89fc2db09b6c9976e4d7bd242289597e4534700cbadb09152dca068ca4d07b902204f46809a09c07a4f83b2b087296b0eb494c6d44946ed4573b6ff3c9a5a390961012103e6168769a483a268bdcb11d7984637a3b18be3d076c295ad80ecf1aef68ef56002483045022100efaed0cde9ec07eb4f26cc5d0c3410f10f7cf9d12607cd568a74e6a7a0f1f22c02204c5136652cef50c470a89665b28fbf35e8c913a8ee41910776c55b8d1a81abe0012103e6168769a483a268bdcb11d7984637a3b18be3d076c295ad80ecf1aef68ef5600248304502210088720e6d9dca864a1f945f477939dfd2ce666ac1171dd7a7991ce08164ce6571022018df14db42b919268654dc37d9e36941740e36acc66af6bf7bedddd622316459012103e6168769a483a268bdcb11d7984637a3b18be3d076c295ad80ecf1aef68ef56002483045022100cae2dbd3db3ee092b15b4ec4854ad776cc491f9937c79f780605405b5f8561a102203fe8ed8c73c304f0ee41976e59921fd817ea56ae283e4ef0bf0574695e49087d012103e6168769a483a268bdcb11d7984637a3b18be3d076c295ad80ecf1aef68ef56002473044022061439c882fd82172e6e3ec326bfbbff28c70b2a734d4e3b536fe6e819793892b02202b8cfe3f44c417ba9b7d6c1ad3e1cd1951d7aacaaf290f4da3702200a5000c39012103e6168769a483a268bdcb11d7984637a3b18be3d076c295ad80ecf1aef68ef56002473044022063b174feb6b18b361b3d08a8793f5cb8dcb599cc14b96de82f2f53fef30874a6022043c081910b44b4d87e447d79cbf48920e975e02a598cc53591061ccf0a4c5830012103e6168769a483a268bdcb11d7984637a3b18be3d076c295ad80ecf1aef68ef56002483045022100a39052d84556debb3506745b1a8a73899caddef54c1af34ec644d01b0bbf144402205818f6fe1224b4b20da2cbd376be78bbc7f25052a8bca77f8c0b6ab34ee9508b012103e6168769a483a268bdcb11d7984637a3b18be3d076c295ad80ecf1aef68ef56002483045022100b7a6c338f835553035d6c98d1af31194c5ad85ee458d6c861727305712786116022011127b2418042678c74677d7fb606967ad6335edef88818aefd5bf6c9e5930bb012103e6168769a483a268bdcb11d7984637a3b18be3d076c295ad80ecf1aef68ef56002473044022032f0e3f56f46e8a9c294832ae7e381448e09afa01195c0e9f60cce774f79c92402204cddfc35bd971135aab544b74e4cdbb452e96a05f3becde55f1345c226ea8d3d012103e6168769a483a268bdcb11d7984637a3b18be3d076c295ad80ecf1aef68ef56000000000"
}