{
  "txid": "da96d57d312c4a7d915308109c0a717edab08bb3175d6de8107141d8ad414ef1",
  "version": 1,
  "locktime": 0,
  "vin": [
    {
      "txid": "6afc1518bf755b6730bf43b20764397a5b8e771f96548af197cf1c3034ac4f50",
      "vout": 10,
      "prevout": {
        "scriptpubkey": "002026f12d053ec4fa65ce95b6940f386fb178eaec449dc24bed4b1a02c1f7af26b6",
        "scriptpubkey_asm": "OP_0 OP_PUSHBYTES_32 26f12d053ec4fa65ce95b6940f386fb178eaec449dc24bed4b1a02c1f7af26b6",
        "scriptpubkey_type": "v0_p2wsh",
        "scriptpubkey_address": "bc1qymcj6pf7cnaxtn54k62q7wr0k9uw4mzynhpyhm2trgpvraa0y6mq22k9yv",
        "value": 4938655
      },
      "scriptsig": "",
      "scriptsig_asm": "",
      "witness": [
        "",
        "304402201d0b191c3f37e77bd6e16e12de8c48967691aa4966e7ed317626d858ef9f05a80220269635c0760e91420e79ab197b1844d4be1d468ac27f5154b983e244f8e3e3f901",
        "3045022100c89212bb38cde2d92e632e95638815c2365213ac88b451084e5ff4df59a2d0630220662ee57444630bf2a1f89adbcd20816fce50dcec0efa231329996635b8a3a0a101",
        "5221027faae9dd40352c90d122d4eb68773a02dd7746345d30c5cf02f0c74d5a0229122103de897bfcc1b52d74d2f133c2db68b3ac06ed32a68fa3f5e491a4ae820efe95c752ae"
      ],
      "is_coinbase": false,
      "sequence": 4294967295,
      "inner_witnessscript_asm": "OP_PUSHNUM_2 OP_PUSHBYTES_33 027faae9dd40352c90d122d4eb68773a02dd7746345d30c5cf02f0c74d5a022912 OP_PUSHBYTES_33 03de897bfcc1b52d74d2f133c2db68b3ac06ed32a68fa3f5e491a4ae820efe95c7 OP_PUSHNUM_2 OP_CHECKMULTISIG"
    },
    {
      "txid": "dd93dc82e11bf08fdd0460530c1270a7a92f11cbcb6beef71917977cba74180d",
      "vout": 9,
      "prevout": {
        "scriptpubkey": "00206352130e9a465040ffa727466914d78c6d58c7f3502a625af8ee42a7e90c2c70",
        "scriptpubkey_asm": "OP_0 OP_PUSHBYTES_32 6352130e9a465040ffa727466914d78c6d58c7f3502a625af8ee42a7e90c2c70",
        "scriptpubkey_type": "v0_p2wsh",
        "scriptpubkey_address": "bc1qvdfpxr56gegypla8yarxj9xh33k433ln2q4xykhcaep206gv93cqkxq964",
        "value": 4831619
      },
      "scriptsig": "",
      "scriptsig_asm": "",
      "witness": [
        "",
        "304402200d45ab71ca890f4f8494e593319464659579d35a389a8718161f9a81a30ffce60220653d37716b055c2685f092fd91bf583a7843c89fbfcf8cb4082838132fea3c2201",
        "3044022025e8cd8719bc120c385b7a7b530b551d668c275c680cc7b7843d20e16ba21f29022017b143f908df14a43d3ef4ff3c4684117cc0f3f44d5c84a2cf02470b695da68401",
        "522102a3c4cb0cb51a09ea8df099f8f0952e800ab9b540026a659cd32f2674c44d46f421022173542702ef5a8362bfabb3c7eb1e520fe547c0ec261c6266ebed712250401452ae"
      ],
      "is_coinbase": false,
      "sequence": 4294967295,
      "inner_witnessscript_asm": "OP_PUSHNUM_2 OP_PUSHBYTES_33 02a3c4cb0cb51a09ea8df099f8f0952e800ab9b540026a659cd32f2674c44d46f4 OP_PUSHBYTES_33 022173542702ef5a8362bfabb3c7eb1e520fe547c0ec261c6266ebed7122504014 OP_PUSHNUM_2 OP_CHECKMULTISIG"
    },
    {
      "txid": "8376cc4bdea3eaa68ab61ff03eb59399d2c345341bd2edd70df9590fdfcae6fa",
      "vout": 0,
      "prevout": {
        "scriptpubkey": "5120e02b2e72dc07b108b54fcc51c75ff9db6e27c13a7381f918adbfdff952d01172",
        "scriptpubkey_asm": "OP_PUSHNUM_1 OP_PUSHBYTES_32 e02b2e72dc07b108b54fcc51c75ff9db6e27c13a7381f918adbfdff952d01172",
        "scriptpubkey_type": "v1_p2tr",
        "scriptpubkey_address": "bc1puq4juukuq7cs3d20e3guwhlemdhz0sf6wwqljx9dhl0lj5ksz9eqt4pfma",
        "value": 5000
      },
      "scriptsig": "",
      "scriptsig_asm": "",
      "witness": [
        "64302bdbfac75be53c4c59903c747cdc9f7f1226bb1d69030fcc70d05ef4de2e729413ecd6606d394b119c8ffa5ae6218c497a9f399a9dc942cd365138f4427701"
      ],
      "is_coinbase": false,
      "sequence": 4294967295
    }
  ],
  "vout": [
    {
      "scriptpubkey": "5120b0300eb599f38ac952a82db35f2af938bf2e2021ee92975df35447a4b2e94a08",
      "scriptpubkey_asm": "OP_PUSHNUM_1 OP_PUSHBYTES_32 b0300eb599f38ac952a82db35f2af938bf2e2021ee92975df35447a4b2e94a08",
      "scriptpubkey_type": "v1_p2tr",
      "scriptpubkey_address": "bc1pkqcqadve7w9vj54g9ke472he8zljugppa6ffwh0n23r6fvhffgyqaes6ge",
      "value": 2900
    },
    {
      "scriptpubkey": "0014abf31179d62500d042d5c7311757df5e1f11fdc8",
      "scriptpubkey_asm": "OP_0 OP_PUSHBYTES_20 abf31179d62500d042d5c7311757df5e1f11fdc8",
      "scriptpubkey_type": "v0_p2wpkh",
      "scriptpubkey_address": "bc1q40e3z7wky5qdqsk4cuc3w47ltc03rlwgy95rvw",
      "value": 9768718
    }
  ],
  "size": 713,
  "weight": 1334,
  "fee": 3656,
  "status": {
    "confirmed": true,
    "block_height": 834464,
    "block_hash": "0000000000000000000177a0869a911a2b65c9bdcd5a8bcb02b68f305bee848e",
    "block_time": 1710308296
  },
  "hex": "01000000000103504fac34301ccf97f18a54961f778e5b7a396407b243bf30675b75bf1815fc6a0a00000000ffffffff0d1874ba7c971719f7ee6bcbcb112fa9a770120c536004dd8ff01be182dc93dd0900000000fffffffffae6cadf0f59f90dd7edd21b3445c3d29993b53ef01fb68aa6eaa3de4bcc76830000000000ffffffff02540b000000000000225120b0300eb599f38ac952a82db35f2af938bf2e2021ee92975df35447a4b2e94a080e0f950000000000160014abf31179d62500d042d5c7311757df5e1f11fdc8040047304402201d0b191c3f37e77bd6e16e12de8c48967691aa4966e7ed317626d858ef9f05a80220269635c0760e91420e79ab197b1844d4be1d468ac27f5154b983e244f8e3e3f901483045022100c89212bb38cde2d92e632e95638815c2365213ac88b451084e5ff4df59a2d0630220662ee57444630bf2a1f89adbcd20816fce50dcec0efa231329996635b8a3a0a101475221027faae9dd40352c90d122d4eb68773a02dd7746345d30c5cf02f0c74d5a0229122103de897bfcc1b52d74d2f133c2db68b3ac06ed32a68fa3f5e491a4ae820efe95c752ae040047304402200d45ab71ca890f4f8494e593319464659579d35a389a8718161f9a81a30ffce60220653d37716b055c2685f092fd91bf583a7843c89fbfcf8cb4082838132fea3c2201473044022025e8cd8719bc120c385b7a7b530b551d668c275c680cc7b7843d20e16ba21f29022017b143f908df14a43d3ef4ff3c4684117cc0f3f44d5c84a2cf02470b695da6840147522102a3c4cb0cb51a09ea8df099f8f0952e800ab9b540026a659cd32f2674c44d46f421022173542702ef5a8362bfabb3c7eb1e520fe547c0ec261c6266ebed712250401452ae014164302bdbfac75be53c4c59903c747cdc9f7f1226bb1d69030fcc70d05ef4de2e729413ecd6606d394b119c8ffa5ae6218c497a9f399a9dc942cd365138f442770100000000"
}