{
  "txid": "da9b42321867933ea4d5d3829dc6d26e577a11d1c3bb08972b1f036129ce0962",
  "version": 2,
  "locktime": 0,
  "vin": [
    {
      "txid": "84fa8de30715b03797bcea2ffa3029501f051da173362bf907684eddebe40700",
      "vout": 54,
      "prevout": {
        "scriptpubkey": "00141318037d9dd634a1c2c6c92d58ea62b4f1cbe280",
        "scriptpubkey_asm": "OP_0 OP_PUSHBYTES_20 1318037d9dd634a1c2c6c92d58ea62b4f1cbe280",
        "scriptpubkey_type": "v0_p2wpkh",
        "scriptpubkey_address": "bc1qzvvqxlva6c62rskxeyk436nzkncuhc5q39fmu4",
        "value": 657612
      },
      "scriptsig": "",
      "scriptsig_asm": "",
      "witness": [
        "3045022100a7f0956721fa13c2b04e4502c03396fd9b31e29069c02b25c53607a47c2f2ce2022019e9ec56c8c73632f1df8172261505df3afac0b92f6e8299e3d0b0efb3956ba001",
        "023206b43e7bc7ca0e3df9875f3045e86975a3e167585d5769bd5898e78ce2cae9"
      ],
      "is_coinbase": false,
      "sequence": 4294967295
    }
  ],
  "vout": [
    {
      "scriptpubkey": "0014c43d395bc2237cd9e175d44e09699d13271916ed",
      "scriptpubkey_asm": "OP_0 OP_PUSHBYTES_20 c43d395bc2237cd9e175d44e09699d13271916ed",
      "scriptpubkey_type": "v0_p2wpkh",
      "scriptpubkey_address": "bc1qcs7njk7zyd7dnct4638qj6vazvn3j9hd2t7rgh",
      "value": 540129
    },
    {
      "scriptpubkey": "00141318037d9dd634a1c2c6c92d58ea62b4f1cbe280",
      "scriptpubkey_asm": "OP_0 OP_PUSHBYTES_20 1318037d9dd634a1c2c6c92d58ea62b4f1cbe280",
      "scriptpubkey_type": "v0_p2wpkh",
      "scriptpubkey_address": "bc1qzvvqxlva6c62rskxeyk436nzkncuhc5q39fmu4",
      "value": 114751
    }
  ],
  "size": 223,
  "weight": 562,
  "fee": 2732,
  "status": {
    "confirmed": true,
    "block_height": 834638,
    "block_hash": "000000000000000000025f742c626208ac87e0b7d15054abb4a19ca2d735a54e",
    "block_time": 1710405325
  },
  "hex": "020000000001010007e4ebdd4e6807f92b3673a11d051f502930fa2feabc9737b01507e38dfa843600000000ffffffff02e13d080000000000160014c43d395bc2237cd9e175d44e09699d13271916ed3fc00100000000001600141318037d9dd634a1c2c6c92d58ea62b4f1cbe28002483045022100a7f0956721fa13c2b04e4502c03396fd9b31e29069c02b25c53607a47c2f2ce2022019e9ec56c8c73632f1df8172261505df3afac0b92f6e8299e3d0b0efb3956ba00121023206b43e7bc7ca0e3df9875f3045e86975a3e167585d5769bd5898e78ce2cae900000000"
}