{
  "txid": "daa8f79d97225a9f72061c905ba42147b2ddb856d163ba1eb258db47eb911478",
  "version": 2,
  "locktime": 0,
  "vin": [
    {
      "txid": "99a7ad980d68a76a3cd2a84aacdd57601ba6f710b4acea68753a5cb11866efe8",
      "vout": 1,
      "prevout": {
        "scriptpubkey": "a914b8d8b09d5b3ed0fb18100e8294acd9670daf19ad87",
        "scriptpubkey_asm": "OP_HASH160 OP_PUSHBYTES_20 b8d8b09d5b3ed0fb18100e8294acd9670daf19ad OP_EQUAL",
        "scriptpubkey_type": "p2sh",
        "scriptpubkey_address": "3JYPqieNx8VDb4Qf73UBp89nGPGGc3Fg6z",
        "value": 63627
      },
      "scriptsig": "160014ed874c234157c46da8bcde2162e710fbf3fc9f8c",
      "scriptsig_asm": "OP_PUSHBYTES_22 0014ed874c234157c46da8bcde2162e710fbf3fc9f8c",
      "witness": [
        "304402201c28cefcb35c8bf478d42470e3903646acfba8527ec222c314a51a962531c8dd02206b5afb3e0e052bc0cf3e8f7b794cd4e2b83266e7075aa78b62d7a193638bbbd401",
        "0332b3afb3cf7fd270c532750d089f1b93e6decc8bdab09584fafe5508e7a5eb57"
      ],
      "is_coinbase": false,
      "sequence": 4294967295,
      "inner_redeemscript_asm": "OP_0 OP_PUSHBYTES_20 ed874c234157c46da8bcde2162e710fbf3fc9f8c"
    }
  ],
  "vout": [
    {
      "scriptpubkey": "a914a0f5d6c80f53cbf8d2a14cfc73d895e8731fb2fd87",
      "scriptpubkey_asm": "OP_HASH160 OP_PUSHBYTES_20 a0f5d6c80f53cbf8d2a14cfc73d895e8731fb2fd OP_EQUAL",
      "scriptpubkey_type": "p2sh",
      "scriptpubkey_address": "3GN6YRqnTS3CUkzkmg1QAuhbMz7kd9S9T1",
      "value": 62177
    }
  ],
  "size": 215,
  "weight": 533,
  "fee": 1450,
  "status": {
    "confirmed": true,
    "block_height": 834464,
    "block_hash": "0000000000000000000177a0869a911a2b65c9bdcd5a8bcb02b68f305bee848e",
    "block_time": 1710308296
  },
  "hex": "02000000000101e8ef6618b15c3a7568eaacb410f7a61b6057ddac4aa8d23c6aa7680d98ada7990100000017160014ed874c234157c46da8bcde2162e710fbf3fc9f8cffffffff01e1f200000000000017a914a0f5d6c80f53cbf8d2a14cfc73d895e8731fb2fd870247304402201c28cefcb35c8bf478d42470e3903646acfba8527ec222c314a51a962531c8dd02206b5afb3e0e052bc0cf3e8f7b794cd4e2b83266e7075aa78b62d7a193638bbbd401210332b3afb3cf7fd270c532750d089f1b93e6decc8bdab09584fafe5508e7a5eb5700000000"
}