{
  "txid": "dab2352f68395c0974aa2470beca4a662b3b1081285133ce6904f398d6fb1ae8",
  "version": 1,
  "locktime": 0,
  "vin": [
    {
      "txid": "b958f4f1428753eb78a225239ada5081ecf926a0ecc90ea1266dbe775070eb1b",
      "vout": 4,
      "prevout": {
        "scriptpubkey": "76a91489649d3ba7359e35b71b1698f6a3a4092afd761188ac",
        "scriptpubkey_asm": "OP_DUP OP_HASH160 OP_PUSHBYTES_20 89649d3ba7359e35b71b1698f6a3a4092afd7611 OP_EQUALVERIFY OP_CHECKSIG",
        "scriptpubkey_type": "p2pkh",
        "scriptpubkey_address": "1DXU75VCfznHMroUTcVNo7JK5BhjihZ4dA",
        "value": 142668
      },
      "scriptsig": "47304402203ab654e911730ce25125c8a2585813946ff89c9e96bee7412afc8008666817b502200b79887d3e138f9da5cb8c32dcc9a1335d4642a3368ed80b102fb518ef7c3a3d012102b9b18b1cb5cfca9d44b3e5b1bb24eb961b1a4ae145b508bb5dcbabb08c94c9e5",
      "scriptsig_asm": "OP_PUSHBYTES_71 304402203ab654e911730ce25125c8a2585813946ff89c9e96bee7412afc8008666817b502200b79887d3e138f9da5cb8c32dcc9a1335d4642a3368ed80b102fb518ef7c3a3d01 OP_PUSHBYTES_33 02b9b18b1cb5cfca9d44b3e5b1bb24eb961b1a4ae145b508bb5dcbabb08c94c9e5",
      "is_coinbase": false,
      "sequence": 4294967295
    }
  ],
  "vout": [
    {
      "scriptpubkey": "00142d7e8f356a70f598aeceeaf8d58e57773ff828af",
      "scriptpubkey_asm": "OP_0 OP_PUSHBYTES_20 2d7e8f356a70f598aeceeaf8d58e57773ff828af",
      "scriptpubkey_type": "v0_p2wpkh",
      "scriptpubkey_address": "bc1q94lg7dt2wr6e3tkwatudtrjhwulls290rcf623",
      "value": 134875
    },
    {
      "scriptpubkey": "76a91419c0db1ec6f030ee93752f9c5f2ae498fd83a91d88ac",
      "scriptpubkey_asm": "OP_DUP OP_HASH160 OP_PUSHBYTES_20 19c0db1ec6f030ee93752f9c5f2ae498fd83a91d OP_EQUALVERIFY OP_CHECKSIG",
      "scriptpubkey_type": "p2pkh",
      "scriptpubkey_address": "13MAvfMXV3EU3abeWLLaSJTSjMrRpeJYLq",
      "value": 657
    }
  ],
  "size": 222,
  "weight": 888,
  "fee": 7136,
  "status": {
    "confirmed": true,
    "block_height": 834638,
    "block_hash": "000000000000000000025f742c626208ac87e0b7d15054abb4a19ca2d735a54e",
    "block_time": 1710405325
  },
  "hex": "01000000011beb705077be6d26a10ec9eca026f9ec8150da9a2325a278eb538742f1f458b9040000006a47304402203ab654e911730ce25125c8a2585813946ff89c9e96bee7412afc8008666817b502200b79887d3e138f9da5cb8c32dcc9a1335d4642a3368ed80b102fb518ef7c3a3d012102b9b18b1cb5cfca9d44b3e5b1bb24eb961b1a4ae145b508bb5dcbabb08c94c9e5ffffffff02db0e0200000000001600142d7e8f356a70f598aeceeaf8d58e57773ff828af91020000000000001976a91419c0db1ec6f030ee93752f9c5f2ae498fd83a91d88ac00000000"
}