{
  "txid": "dac915b37f8c9333398938473ffdaa1e05ff6d03d3be7bea384d503eb62310f4",
  "version": 2,
  "locktime": 0,
  "vin": [
    {
      "txid": "246d654c08ac53d370d501753f3ac2c90861e2c8cea715ed4b7554841cced399",
      "vout": 44,
      "prevout": {
        "scriptpubkey": "51200d2a10b33161e5743ae819803f1992992b6b4570f565e81e02cb62e980aa1998",
        "scriptpubkey_asm": "OP_PUSHNUM_1 OP_PUSHBYTES_32 0d2a10b33161e5743ae819803f1992992b6b4570f565e81e02cb62e980aa1998",
        "scriptpubkey_type": "v1_p2tr",
        "scriptpubkey_address": "bc1pp54ppve3v8jhgwhgrxqr7xvjny4kk3ts74j7s8szed3wnq92rxvq8yclvj",
        "value": 3055
      },
      "scriptsig": "",
      "scriptsig_asm": "",
      "witness": [
        "adc69187bf37c65b3920ba95e5596e10d3c5211f9b5a27019dd2e32a2414f704b6895fe2b492bc1ac3440f446d405c87ff5c5ee0eed0a705c7b8c71588c1d9b3",
        "20a2e1bf6c321f7a99ff43b849579c4598dd936dd28613dcb5c3a388062551624bac0063036f726401011e6170706c69636174696f6e2f6a736f6e3b636861727365743d7574662d38004cd37b2270223a22706f772d3230222c226f70223a226d696e74222c227469636b223a2250455045222c22616d74223a2231303030222c22736f6c7574696f6e223a22504550453a62633170756a666d33753333656e70786b38383339796c6b3239323239396b6e6467686c717468396e39647a6c7663647635617076366a717732776e71663a303030303030303030303030303030303030303139393431613561653132383937363539383134343239323533333030353762306461393666336465613163353a3536383437383031353537227d68",
        "c0f4929cb66946e40c5d3e5e2b126f88b9a6070d7490abd3aa8e42bf5bbcfe7b9f"
      ],
      "is_coinbase": false,
      "sequence": 4294967295
    }
  ],
  "vout": [
    {
      "scriptpubkey": "5120e493b8f231ccc26b1cf1293f65154a296d36a2ff02ee5995a2fb30d653a166a4",
      "scriptpubkey_asm": "OP_PUSHNUM_1 OP_PUSHBYTES_32 e493b8f231ccc26b1cf1293f65154a296d36a2ff02ee5995a2fb30d653a166a4",
      "scriptpubkey_type": "v1_p2tr",
      "scriptpubkey_address": "bc1pujfm3u33enpxk8839ylk292299kndghlqth9n9dzlvcdv5apv6jqw2wnqf",
      "value": 546
    }
  ],
  "size": 487,
  "weight": 769,
  "fee": 2509,
  "status": {
    "confirmed": true,
    "block_height": 834460,
    "block_hash": "00000000000000000000484a79b643b2524bbce82e5d8a442013fa5b8905ed98",
    "block_time": 1710307468
  },
  "hex": "0200000000010199d3ce1c8454754bed15a7cec8e26108c9c23a3f7501d570d353ac084c656d242c00000000ffffffff012202000000000000225120e493b8f231ccc26b1cf1293f65154a296d36a2ff02ee5995a2fb30d653a166a40340adc69187bf37c65b3920ba95e5596e10d3c5211f9b5a27019dd2e32a2414f704b6895fe2b492bc1ac3440f446d405c87ff5c5ee0eed0a705c7b8c71588c1d9b3fd200120a2e1bf6c321f7a99ff43b849579c4598dd936dd28613dcb5c3a388062551624bac0063036f726401011e6170706c69636174696f6e2f6a736f6e3b636861727365743d7574662d38004cd37b2270223a22706f772d3230222c226f70223a226d696e74222c227469636b223a2250455045222c22616d74223a2231303030222c22736f6c7574696f6e223a22504550453a62633170756a666d33753333656e70786b38383339796c6b3239323239396b6e6467686c717468396e39647a6c7663647635617076366a717732776e71663a303030303030303030303030303030303030303139393431613561653132383937363539383134343239323533333030353762306461393666336465613163353a3536383437383031353537227d6821c0f4929cb66946e40c5d3e5e2b126f88b9a6070d7490abd3aa8e42bf5bbcfe7b9f00000000"
}