{
  "txid": "dad2482d1eff055400ccf2a3bb96ac73c925a7982c958510ea5b4bb71c6dbd3b",
  "version": 2,
  "locktime": 0,
  "vin": [
    {
      "txid": "8486ecb4df0880316dd6e82b3971b4df187aff23765bc3a47f8d78bb53aa273c",
      "vout": 93,
      "prevout": {
        "scriptpubkey": "512061d43de15e73c5cf06d80ed89898482bf3c077530b31e3a82dd6afd0c01771e5",
        "scriptpubkey_asm": "OP_PUSHNUM_1 OP_PUSHBYTES_32 61d43de15e73c5cf06d80ed89898482bf3c077530b31e3a82dd6afd0c01771e5",
        "scriptpubkey_type": "v1_p2tr",
        "scriptpubkey_address": "bc1pv82rmc27w0zu7pkcpmvf3xzg90euqa6npvc782pd66hapsqhw8js86af3a",
        "value": 2575
      },
      "scriptsig": "",
      "scriptsig_asm": "",
      "witness": [
        "3d782097285f257f902be85e1a22b6ed2d33cd6ccc54ccfb9fb15a048c04ffcb9253eac434b71fcb4c0d8f95924e21c31f4263bdcc7af2e69950c20a228ec45f",
        "2073a2abf746b146500d310f27a3d3e2e891f2679e1bdf1ed3ef0f19328cea87cbac0063036f726401010a746578742f706c61696e00367b2270223a226272632d3230222c226f70223a226d696e74222c227469636b223a2261616161222c22616d74223a223130303030227d68",
        "c073a2abf746b146500d310f27a3d3e2e891f2679e1bdf1ed3ef0f19328cea87cb"
      ],
      "is_coinbase": false,
      "sequence": 4261412863
    }
  ],
  "vout": [
    {
      "scriptpubkey": "0014ddd7ef12ea6f78edcc1e8e7afa12c01ab59f3339",
      "scriptpubkey_asm": "OP_0 OP_PUSHBYTES_20 ddd7ef12ea6f78edcc1e8e7afa12c01ab59f3339",
      "scriptpubkey_type": "v0_p2wpkh",
      "scriptpubkey_address": "bc1qmht77yh2dauwmnq73ea05ykqr26e7veea8spz6",
      "value": 546
    }
  ],
  "size": 295,
  "weight": 541,
  "fee": 2029,
  "status": {
    "confirmed": true,
    "block_height": 834460,
    "block_hash": "00000000000000000000484a79b643b2524bbce82e5d8a442013fa5b8905ed98",
    "block_time": 1710307468
  },
  "hex": "020000000001013c27aa53bb788d7fa4c35b7623ff7a18dfb471392be8d66d318008dfb4ec86845d00000000fffffffd012202000000000000160014ddd7ef12ea6f78edcc1e8e7afa12c01ab59f333903403d782097285f257f902be85e1a22b6ed2d33cd6ccc54ccfb9fb15a048c04ffcb9253eac434b71fcb4c0d8f95924e21c31f4263bdcc7af2e69950c20a228ec45f6e2073a2abf746b146500d310f27a3d3e2e891f2679e1bdf1ed3ef0f19328cea87cbac0063036f726401010a746578742f706c61696e00367b2270223a226272632d3230222c226f70223a226d696e74222c227469636b223a2261616161222c22616d74223a223130303030227d6821c073a2abf746b146500d310f27a3d3e2e891f2679e1bdf1ed3ef0f19328cea87cb00000000"
}