{
  "txid": "dad90841dabf14c12e65dcc4c0484ccf1a4e2ca6617b355bc02aea5f1ba5ff7b",
  "version": 2,
  "locktime": 0,
  "vin": [
    {
      "txid": "7151e75250239fdfd37246f6eb9f20399aa6869430309b1bfc622256420840e2",
      "vout": 4,
      "prevout": {
        "scriptpubkey": "0014b7c97e794134e223320361ddbd5ff4b7f8bc888e",
        "scriptpubkey_asm": "OP_0 OP_PUSHBYTES_20 b7c97e794134e223320361ddbd5ff4b7f8bc888e",
        "scriptpubkey_type": "v0_p2wpkh",
        "scriptpubkey_address": "bc1qklyhu72pxn3zxvsrv8wm6hl5klutezywcujmma",
        "value": 1468573
      },
      "scriptsig": "",
      "scriptsig_asm": "",
      "witness": [
        "30440220604a3bafd058626466b247b9477f9b37ae6569749a9210471341a5ecb4cb528b0220423462b105a676bc713310877236de47684a2ec8f6a1725702d680e78dfbb1a001",
        "02b33ab0a64462696e39065c18c6fcfc15f3c08b4b8f16d16d181846652bcaa0d2"
      ],
      "is_coinbase": false,
      "sequence": 4294967295
    }
  ],
  "vout": [
    {
      "scriptpubkey": "0014b7c97e794134e223320361ddbd5ff4b7f8bc888e",
      "scriptpubkey_asm": "OP_0 OP_PUSHBYTES_20 b7c97e794134e223320361ddbd5ff4b7f8bc888e",
      "scriptpubkey_type": "v0_p2wpkh",
      "scriptpubkey_address": "bc1qklyhu72pxn3zxvsrv8wm6hl5klutezywcujmma",
      "value": 808
    },
    {
      "scriptpubkey": "512103d630b556c061acbd3b9f8f8c22003edc20ac4458ba42e0e75eba8ba5adafada121029a5a6c3ed8861962ad4216213e1cf5e094bea0d9e00584982b38f3d3adbc60782102020202020202020202020202020202020202020202020202020202020202020253ae",
      "scriptpubkey_asm": "OP_PUSHNUM_1 OP_PUSHBYTES_33 03d630b556c061acbd3b9f8f8c22003edc20ac4458ba42e0e75eba8ba5adafada1 OP_PUSHBYTES_33 029a5a6c3ed8861962ad4216213e1cf5e094bea0d9e00584982b38f3d3adbc6078 OP_PUSHBYTES_33 020202020202020202020202020202020202020202020202020202020202020202 OP_PUSHNUM_3 OP_CHECKMULTISIG",
      "scriptpubkey_type": "unknown",
      "value": 809
    },
    {
      "scriptpubkey": "512102ac856f3d00393fa1ca18006f7730b0d08161844192f1b594c4fdcabb9737746b21032df5f0ef1d3a41858e1821ac3203dc0cb351cd67e43bfec0c2dacf4aecee8afb2102020202020202020202020202020202020202020202020202020202020202020253ae",
      "scriptpubkey_asm": "OP_PUSHNUM_1 OP_PUSHBYTES_33 02ac856f3d00393fa1ca18006f7730b0d08161844192f1b594c4fdcabb9737746b OP_PUSHBYTES_33 032df5f0ef1d3a41858e1821ac3203dc0cb351cd67e43bfec0c2dacf4aecee8afb OP_PUSHBYTES_33 020202020202020202020202020202020202020202020202020202020202020202 OP_PUSHNUM_3 OP_CHECKMULTISIG",
      "scriptpubkey_type": "unknown",
      "value": 809
    },
    {
      "scriptpubkey": "001420123e4942db45c3c5971b141304c3ff6f5c06c7",
      "scriptpubkey_asm": "OP_0 OP_PUSHBYTES_20 20123e4942db45c3c5971b141304c3ff6f5c06c7",
      "scriptpubkey_type": "v0_p2wpkh",
      "scriptpubkey_address": "bc1qyqfruj2zmdzu83vhrv2pxpxrlah4cpk88c9zvd",
      "value": 12000
    },
    {
      "scriptpubkey": "0014b7c97e794134e223320361ddbd5ff4b7f8bc888e",
      "scriptpubkey_asm": "OP_0 OP_PUSHBYTES_20 b7c97e794134e223320361ddbd5ff4b7f8bc888e",
      "scriptpubkey_type": "v0_p2wpkh",
      "scriptpubkey_address": "bc1qklyhu72pxn3zxvsrv8wm6hl5klutezywcujmma",
      "value": 1440156
    }
  ],
  "size": 481,
  "weight": 1597,
  "fee": 13991,
  "status": {
    "confirmed": true,
    "block_height": 834638,
    "block_hash": "000000000000000000025f742c626208ac87e0b7d15054abb4a19ca2d735a54e",
    "block_time": 1710405325
  },
  "hex": "02000000000101e2400842562262fc1b9b30309486a69a39209febf64672d3df9f235052e751710400000000ffffffff052803000000000000160014b7c97e794134e223320361ddbd5ff4b7f8bc888e290300000000000069512103d630b556c061acbd3b9f8f8c22003edc20ac4458ba42e0e75eba8ba5adafada121029a5a6c3ed8861962ad4216213e1cf5e094bea0d9e00584982b38f3d3adbc60782102020202020202020202020202020202020202020202020202020202020202020253ae290300000000000069512102ac856f3d00393fa1ca18006f7730b0d08161844192f1b594c4fdcabb9737746b21032df5f0ef1d3a41858e1821ac3203dc0cb351cd67e43bfec0c2dacf4aecee8afb2102020202020202020202020202020202020202020202020202020202020202020253aee02e00000000000016001420123e4942db45c3c5971b141304c3ff6f5c06c79cf9150000000000160014b7c97e794134e223320361ddbd5ff4b7f8bc888e024730440220604a3bafd058626466b247b9477f9b37ae6569749a9210471341a5ecb4cb528b0220423462b105a676bc713310877236de47684a2ec8f6a1725702d680e78dfbb1a0012102b33ab0a64462696e39065c18c6fcfc15f3c08b4b8f16d16d181846652bcaa0d200000000"
}