{
  "txid": "dadb3fb84d55bf356b6f2dc78ea67189e92792a52c7079c1ca9878d2a9d1869f",
  "version": 2,
  "locktime": 0,
  "vin": [
    {
      "txid": "b8525758d2ce8c566b6b4ef6561da46ad95e1765fd6095454f12e3441e71b311",
      "vout": 0,
      "prevout": {
        "scriptpubkey": "51203588efc18c5d584f43a57cd8f65c16ab1f7e691af6ce01504e7bf73094b750a4",
        "scriptpubkey_asm": "OP_PUSHNUM_1 OP_PUSHBYTES_32 3588efc18c5d584f43a57cd8f65c16ab1f7e691af6ce01504e7bf73094b750a4",
        "scriptpubkey_type": "v1_p2tr",
        "scriptpubkey_address": "bc1pxkywlsvvt4vy7sa90nv0vhqk4v0hu6g67m8qz5zw00mnp99h2zjq4nnlf4",
        "value": 51357
      },
      "scriptsig": "",
      "scriptsig_asm": "",
      "witness": [
        "fabd8ae39915a78dc4e88651aba5301bb65bd7d85a0763a4c40ca47ac0864a0953e7e7d1f9d31965e6eaa0541c175e2a25e4eab884f1a568193347bb756c8b2c",
        "20f2d00e1cce0b839d2e197679cac7a15152ec244338032c7767f72c1332d49a65ac0063036f7264010109696d6167652f706e67004dc80189504e470d0a1a0a0000000d4948445200000020000000200806000000737a7af400000006624b474400ff00ff00ffa0bda7930000017d494441545885ed57c18a8330107db32cb8147ac861297be9427b133fc3cff6338a3717ba3729388742e99eb2879a18b5ea8cd0750f7d206a3299f7f232094a45028b05f1b224f953c0538048c0ee94ce4a2c1d372a602eb966fca4037999a985ec4e29f23213c5be4a82f232438c1424486a37727240e040bc49bd88aaaa60ad1dbd34e49302bede9b641f55351cf8f30d0060661f176fd2d6f859020080cacc2735c6dcc86a42ff1c6d9bfe5aac64b944021c3c39e00907e314501f447c59839927854821da051ed11626eab775a17141e480310644d4ba1c9879b04f825107f607c0dafef78a6b2322bffdbac4aead48c605886b20dcebbe066a30f3adef7a84bd1ea529014c385024cd2c0134bb006b3f632242e5ce88a01e24b307040e38115d848e98d539102727170968897007ceeadc0faafb34e480761b02a0b74f5f60f7ee5a888b305c8ab1bb66f680d2016d7209feff37e1a3a12e420df687e6b948faefc01f38d0ad9b2269b72db204a1130f171092dd7ba7a57fcf7f014a01bd44c42c147e0000000049454e44ae426082680063036f726401011e6170706c69636174696f6e2f6a736f6e3b636861727365743d7574662d38004d67017b2270223a22766f7264222c2276223a312c227479223a22696e7363222c22636f6c223a2233346530363736386230636362346536643861326337343162663031666463396637373235643761366430343436326663323530656661313737376361376337222c22696964223a2253696c6b20536b756c6c205363686f6f6c204f47222c227075626c223a2231455337623370636a527a4667796969714c7278484b546e43686535364c4a485937222c226e6f6e6365223a3236342c226d696e746572223a2262633170376167686c3677397077383530617475776c356b6b77767363737935777967776a6768387668737375307a367934773767786173777366376c6b222c22736967223a22484741596465376569443171717169734e69484a336f424b6f62444e57694244494a62524766543533677051566676723164714c75792f496b5a305579324b582b453274653953713547306a445a68574f4964693452343d227d68",
        "c1f2d00e1cce0b839d2e197679cac7a15152ec244338032c7767f72c1332d49a65675a92934efa5e4869b2432a3e00abfc6819367af43949c2edc693b32d23ac05"
      ],
      "is_coinbase": false,
      "sequence": 4294967293
    }
  ],
  "vout": [
    {
      "scriptpubkey": "5120f7517fe9c50b8f47f57c77e96b3990c40947110e922e765e10e3c5a255de41bb",
      "scriptpubkey_asm": "OP_PUSHNUM_1 OP_PUSHBYTES_32 f7517fe9c50b8f47f57c77e96b3990c40947110e922e765e10e3c5a255de41bb",
      "scriptpubkey_type": "v1_p2tr",
      "scriptpubkey_address": "bc1p7aghl6w9pw850atuwl5kkwvscsy5wygwjgh8vhssu0z6y4w7gxaswsf7lk",
      "value": 1000
    },
    {
      "scriptpubkey": "a91436731fe2e21ec7dc84af3e3989e0a269b4df613f87",
      "scriptpubkey_asm": "OP_HASH160 OP_PUSHBYTES_20 36731fe2e21ec7dc84af3e3989e0a269b4df613f OP_EQUAL",
      "scriptpubkey_type": "p2sh",
      "scriptpubkey_address": "36evKtydBCAXM4jRSKSnXSxAuMrBU2sxRB",
      "value": 42774
    },
    {
      "scriptpubkey": "51200705a5767db892e98125775049b1a13dd9ecdc8aea0df413cabbee683e871012",
      "scriptpubkey_asm": "OP_PUSHNUM_1 OP_PUSHBYTES_32 0705a5767db892e98125775049b1a13dd9ecdc8aea0df413cabbee683e871012",
      "scriptpubkey_type": "v1_p2tr",
      "scriptpubkey_address": "bc1pquz62anahzfwnqf9wagynvdp8hv7ehy2agxlgy72h0hxs058zqfqk8ksyq",
      "value": 2820
    }
  ],
  "size": 1222,
  "weight": 1729,
  "fee": 4763,
  "status": {
    "confirmed": true,
    "block_height": 834464,
    "block_hash": "0000000000000000000177a0869a911a2b65c9bdcd5a8bcb02b68f305bee848e",
    "block_time": 1710308296
  },
  "hex": "0200000000010111b3711e44e3124f459560fd65175ed96aa41d56f64e6b6b568cced2585752b80000000000fdffffff03e803000000000000225120f7517fe9c50b8f47f57c77e96b3990c40947110e922e765e10e3c5a255de41bb16a700000000000017a91436731fe2e21ec7dc84af3e3989e0a269b4df613f87040b0000000000002251200705a5767db892e98125775049b1a13dd9ecdc8aea0df413cabbee683e8710120340fabd8ae39915a78dc4e88651aba5301bb65bd7d85a0763a4c40ca47ac0864a0953e7e7d1f9d31965e6eaa0541c175e2a25e4eab884f1a568193347bb756c8b2cfd940320f2d00e1cce0b839d2e197679cac7a15152ec244338032c7767f72c1332d49a65ac0063036f7264010109696d6167652f706e67004dc80189504e470d0a1a0a0000000d4948445200000020000000200806000000737a7af400000006624b474400ff00ff00ffa0bda7930000017d494441545885ed57c18a8330107db32cb8147ac861297be9427b133fc3cff6338a3717ba3729388742e99eb2879a18b5ea8cd0750f7d206a3299f7f232094a45028b05f1b224f953c0538048c0ee94ce4a2c1d372a602eb966fca4037999a985ec4e29f23213c5be4a82f232438c1424486a37727240e040bc49bd88aaaa60ad1dbd34e49302bede9b641f55351cf8f30d0060661f176fd2d6f859020080cacc2735c6dcc86a42ff1c6d9bfe5aac64b944021c3c39e00907e314501f447c59839927854821da051ed11626eab775a17141e480310644d4ba1c9879b04f825107f607c0dafef78a6b2322bffdbac4aead48c605886b20dcebbe066a30f3adef7a84bd1ea529014c385024cd2c0134bb006b3f632242e5ce88a01e24b307040e38115d848e98d539102727170968897007ceeadc0faafb34e480761b02a0b74f5f60f7ee5a888b305c8ab1bb66f680d2016d7209feff37e1a3a12e420df687e6b948faefc01f38d0ad9b2269b72db204a1130f171092dd7ba7a57fcf7f014a01bd44c42c147e0000000049454e44ae426082680063036f726401011e6170706c69636174696f6e2f6a736f6e3b636861727365743d7574662d38004d67017b2270223a22766f7264222c2276223a312c227479223a22696e7363222c22636f6c223a2233346530363736386230636362346536643861326337343162663031666463396637373235643761366430343436326663323530656661313737376361376337222c22696964223a2253696c6b20536b756c6c205363686f6f6c204f47222c227075626c223a2231455337623370636a527a4667796969714c7278484b546e43686535364c4a485937222c226e6f6e6365223a3236342c226d696e746572223a2262633170376167686c3677397077383530617475776c356b6b77767363737935777967776a6768387668737375307a367934773767786173777366376c6b222c22736967223a22484741596465376569443171717169734e69484a336f424b6f62444e57694244494a62524766543533677051566676723164714c75792f496b5a305579324b582b453274653953713547306a445a68574f4964693452343d227d6841c1f2d00e1cce0b839d2e197679cac7a15152ec244338032c7767f72c1332d49a65675a92934efa5e4869b2432a3e00abfc6819367af43949c2edc693b32d23ac0500000000"
}