{
  "txid": "dae350e7430284fafa0fa3ecd3e27972bf238135be14bc53133150d98b7ebe05",
  "version": 2,
  "locktime": 834458,
  "vin": [
    {
      "txid": "2b1c8b5d28542eecaf3c8171cc019765d755b17e0a3ae9346ec04e09138b69f7",
      "vout": 29,
      "prevout": {
        "scriptpubkey": "00141e58806273cb090258dd0c81f0b63a0978ff8b21",
        "scriptpubkey_asm": "OP_0 OP_PUSHBYTES_20 1e58806273cb090258dd0c81f0b63a0978ff8b21",
        "scriptpubkey_type": "v0_p2wpkh",
        "scriptpubkey_address": "bc1qrevgqcnnevysykxapjqlpd36p9u0lzepry0hyv",
        "value": 6897309
      },
      "scriptsig": "",
      "scriptsig_asm": "",
      "witness": [
        "304402206b86e159ebb401f657566e83eceb32eb5bb50e5658243e3f6106e77ec410426e02207680a402822eeb5e14e60eab9814efada212298445807c67d0d3c282666fbd9101",
        "02bc7cd235b9c6cfd9c1eb080d535d060e307ef06f34260103f6a19d9e0bd46155"
      ],
      "is_coinbase": false,
      "sequence": 4294967293
    },
    {
      "txid": "bed011d9c6223870309a2cae5b6a46cf765bd97809ac634d7d9d45cd39c02bbf",
      "vout": 11,
      "prevout": {
        "scriptpubkey": "001438ae111557786af31f2bae91008f931b5dbb7824",
        "scriptpubkey_asm": "OP_0 OP_PUSHBYTES_20 38ae111557786af31f2bae91008f931b5dbb7824",
        "scriptpubkey_type": "v0_p2wpkh",
        "scriptpubkey_address": "bc1q8zhpz92h0p40x8et46gsprunrdwmk7py5ja3rg",
        "value": 11269490
      },
      "scriptsig": "",
      "scriptsig_asm": "",
      "witness": [
        "304402201f577ca8528ea5dcc6a739b0f464acd08e090dfc86f0498355daf04408d013e0022075e07d4ca310633af3ba31045109cb942b5fc4239bd8556d3f83ee7bcf2df39f01",
        "02d5cca8724935c35a634bd38da93093e9dbbded3ff5c4c85b2279fe7e72ca4316"
      ],
      "is_coinbase": false,
      "sequence": 4294967293
    }
  ],
  "vout": [
    {
      "scriptpubkey": "a914bdb495cb225c5d593df4d1d7c4f6711b4443957587",
      "scriptpubkey_asm": "OP_HASH160 OP_PUSHBYTES_20 bdb495cb225c5d593df4d1d7c4f6711b44439575 OP_EQUAL",
      "scriptpubkey_type": "p2sh",
      "scriptpubkey_address": "3Jz5y5H5ZxkAvAkTsEji2WbbDm8JRVM9sZ",
      "value": 50013
    },
    {
      "scriptpubkey": "0014d687668f112c53a6c6ef2413118119313628c06b",
      "scriptpubkey_asm": "OP_0 OP_PUSHBYTES_20 d687668f112c53a6c6ef2413118119313628c06b",
      "scriptpubkey_type": "v0_p2wpkh",
      "scriptpubkey_address": "bc1q66rkdrc393f6d3h0ysf3rqgexymz3srttd8ruq",
      "value": 102239
    },
    {
      "scriptpubkey": "a9144041f78d8ed62fea9f3c9c7c7c4dd3c6637be78487",
      "scriptpubkey_asm": "OP_HASH160 OP_PUSHBYTES_20 4041f78d8ed62fea9f3c9c7c7c4dd3c6637be784 OP_EQUAL",
      "scriptpubkey_type": "p2sh",
      "scriptpubkey_address": "37YnCHhMchqnS1bnFZBgaYHpCVSpT4FGz1",
      "value": 380061
    },
    {
      "scriptpubkey": "a914e135ff27d73f885b4a914ed7c57b7995a019f8e087",
      "scriptpubkey_asm": "OP_HASH160 OP_PUSHBYTES_20 e135ff27d73f885b4a914ed7c57b7995a019f8e0 OP_EQUAL",
      "scriptpubkey_type": "p2sh",
      "scriptpubkey_address": "3NDpeTm73BEXfYfJ42eMxDfcBCtJEk9Cmj",
      "value": 101352
    },
    {
      "scriptpubkey": "76a914f8de74978c9a7ae77c6c2c65b623721d15dc343b88ac",
      "scriptpubkey_asm": "OP_DUP OP_HASH160 OP_PUSHBYTES_20 f8de74978c9a7ae77c6c2c65b623721d15dc343b OP_EQUALVERIFY OP_CHECKSIG",
      "scriptpubkey_type": "p2pkh",
      "scriptpubkey_address": "1Pgu53prgPoMFk4fdQ8epePxAyssCxKHPE",
      "value": 524276
    },
    {
      "scriptpubkey": "0014110566ce15d5d74504530a071adbc422eb5e44cc",
      "scriptpubkey_asm": "OP_0 OP_PUSHBYTES_20 110566ce15d5d74504530a071adbc422eb5e44cc",
      "scriptpubkey_type": "v0_p2wpkh",
      "scriptpubkey_address": "bc1qzyzkdns46ht52pznpgr34k7yyt44u3xvhl36wv",
      "value": 103844
    },
    {
      "scriptpubkey": "a914ec89932e8e5ab0985e8e63f9d29b1b6529b5a35b87",
      "scriptpubkey_asm": "OP_HASH160 OP_PUSHBYTES_20 ec89932e8e5ab0985e8e63f9d29b1b6529b5a35b OP_EQUAL",
      "scriptpubkey_type": "p2sh",
      "scriptpubkey_address": "3PFiCgwMUqFRx41LaH3LGrTe7GJU5kamhd",
      "value": 20003
    },
    {
      "scriptpubkey": "0014053e39b743ac7dc1574d8f32030ce2ca69d94ed3",
      "scriptpubkey_asm": "OP_0 OP_PUSHBYTES_20 053e39b743ac7dc1574d8f32030ce2ca69d94ed3",
      "scriptpubkey_type": "v0_p2wpkh",
      "scriptpubkey_address": "bc1qq5lrnd6r437uz46d3ueqxr8zef5ajnkn58qx0f",
      "value": 106639
    },
    {
      "scriptpubkey": "0014570a13caf2516f1b68c4f352c1f4da2e5e060351",
      "scriptpubkey_asm": "OP_0 OP_PUSHBYTES_20 570a13caf2516f1b68c4f352c1f4da2e5e060351",
      "scriptpubkey_type": "v0_p2wpkh",
      "scriptpubkey_address": "bc1q2u9p8jhj29h3k6xy7dfvrax69e0qvq63gec3lj",
      "value": 241132
    },
    {
      "scriptpubkey": "0014536b6d41350ff8fcda79db9da33d252965fdd28f",
      "scriptpubkey_asm": "OP_0 OP_PUSHBYTES_20 536b6d41350ff8fcda79db9da33d252965fdd28f",
      "scriptpubkey_type": "v0_p2wpkh",
      "scriptpubkey_address": "bc1q2d4k6sf4plu0eknemww6x0f999jlm550j20pm7",
      "value": 405496
    },
    {
      "scriptpubkey": "76a91461ecaf30f1fad666b8b75b0321b53c177d1f493b88ac",
      "scriptpubkey_asm": "OP_DUP OP_HASH160 OP_PUSHBYTES_20 61ecaf30f1fad666b8b75b0321b53c177d1f493b OP_EQUALVERIFY OP_CHECKSIG",
      "scriptpubkey_type": "p2pkh",
      "scriptpubkey_address": "19vn5iyzPB1yauVVKCB869isRaMXGfrKnU",
      "value": 27593
    },
    {
      "scriptpubkey": "a91438e96add77b81f411eff8ab050827e5c2baf54cf87",
      "scriptpubkey_asm": "OP_HASH160 OP_PUSHBYTES_20 38e96add77b81f411eff8ab050827e5c2baf54cf OP_EQUAL",
      "scriptpubkey_type": "p2sh",
      "scriptpubkey_address": "36swPQzRZoTPmSCApvnkdmMbJPsc7JhCHr",
      "value": 102357
    },
    {
      "scriptpubkey": "a9148998b409efc193d4a2764f204f71fc819cc1e45387",
      "scriptpubkey_asm": "OP_HASH160 OP_PUSHBYTES_20 8998b409efc193d4a2764f204f71fc819cc1e453 OP_EQUAL",
      "scriptpubkey_type": "p2sh",
      "scriptpubkey_address": "3EEZRqLTWfpkTRay1D2WM7MEZit1VmxBLX",
      "value": 102423
    },
    {
      "scriptpubkey": "a914e0e389da9e4a98f2c0ca5039f51e174582f2577e87",
      "scriptpubkey_asm": "OP_HASH160 OP_PUSHBYTES_20 e0e389da9e4a98f2c0ca5039f51e174582f2577e OP_EQUAL",
      "scriptpubkey_type": "p2sh",
      "scriptpubkey_address": "3NC7sAYXXp6X67Lyhscih4fTgZoKjnTFYC",
      "value": 100296
    },
    {
      "scriptpubkey": "76a914c6a40592eea950758f46ec871dcd6f8e214e667488ac",
      "scriptpubkey_asm": "OP_DUP OP_HASH160 OP_PUSHBYTES_20 c6a40592eea950758f46ec871dcd6f8e214e6674 OP_EQUALVERIFY OP_CHECKSIG",
      "scriptpubkey_type": "p2pkh",
      "scriptpubkey_address": "1K7KHR58mX51BdQAMJsM4hq8A2ruGCaqxS",
      "value": 100012
    },
    {
      "scriptpubkey": "a914150f7f1e32e7b1a8133c8e7b5e1a8386724938ff87",
      "scriptpubkey_asm": "OP_HASH160 OP_PUSHBYTES_20 150f7f1e32e7b1a8133c8e7b5e1a8386724938ff OP_EQUAL",
      "scriptpubkey_type": "p2sh",
      "scriptpubkey_address": "33cNgHsTgh8zWEFo6oGS2BCKPcxyAoeimn",
      "value": 50013
    },
    {
      "scriptpubkey": "00145b01fa490e7f5db6b42760013b466e5e50c96af1",
      "scriptpubkey_asm": "OP_0 OP_PUSHBYTES_20 5b01fa490e7f5db6b42760013b466e5e50c96af1",
      "scriptpubkey_type": "v0_p2wpkh",
      "scriptpubkey_address": "bc1qtvql5jgw0awmddp8vqqnk3nwtegvj6h37zchkk",
      "value": 101752
    },
    {
      "scriptpubkey": "001431da202f0060b904b272498cd8f2548c4716a85e",
      "scriptpubkey_asm": "OP_0 OP_PUSHBYTES_20 31da202f0060b904b272498cd8f2548c4716a85e",
      "scriptpubkey_type": "v0_p2wpkh",
      "scriptpubkey_address": "bc1qx8dzqtcqvzusfvnjfxxd3uj533r3d2z7yy4j7k",
      "value": 100265
    },
    {
      "scriptpubkey": "0014e32210d470f694a9d8dd36083fbea276ea7b326a",
      "scriptpubkey_asm": "OP_0 OP_PUSHBYTES_20 e32210d470f694a9d8dd36083fbea276ea7b326a",
      "scriptpubkey_type": "v0_p2wpkh",
      "scriptpubkey_address": "bc1quv3pp4rs7622nkxaxcyrl04zwm48kvn2zsga9v",
      "value": 103804
    },
    {
      "scriptpubkey": "00147007ebfa5d8a56aafc33f93339a9fe5d27f7fb68",
      "scriptpubkey_asm": "OP_0 OP_PUSHBYTES_20 7007ebfa5d8a56aafc33f93339a9fe5d27f7fb68",
      "scriptpubkey_type": "v0_p2wpkh",
      "scriptpubkey_address": "bc1qwqr7h7ja3ft24lpnlyenn207t5nl07mgzlu540",
      "value": 100253
    },
    {
      "scriptpubkey": "0014cc2ce80604ff0848751e989c3d500eed3cbc5963",
      "scriptpubkey_asm": "OP_0 OP_PUSHBYTES_20 cc2ce80604ff0848751e989c3d500eed3cbc5963",
      "scriptpubkey_type": "v0_p2wpkh",
      "scriptpubkey_address": "bc1qeskwspsyluyysag7nzwr65qwa57tcktrperamz",
      "value": 1143738
    },
    {
      "scriptpubkey": "a9149c86f0201868aaa3cb451cf2f83ba418601baacb87",
      "scriptpubkey_asm": "OP_HASH160 OP_PUSHBYTES_20 9c86f0201868aaa3cb451cf2f83ba418601baacb OP_EQUAL",
      "scriptpubkey_type": "p2sh",
      "scriptpubkey_address": "3Fxez8DQChjYNdabVikkWYhYJFy1mg4t1Q",
      "value": 266670
    },
    {
      "scriptpubkey": "0014001ecc8c9aeb9bea595d87fa10d8ef4e3c451d78",
      "scriptpubkey_asm": "OP_0 OP_PUSHBYTES_20 001ecc8c9aeb9bea595d87fa10d8ef4e3c451d78",
      "scriptpubkey_type": "v0_p2wpkh",
      "scriptpubkey_address": "bc1qqq0very6awd75k2aslappk80fc7y28tcu593fj",
      "value": 104249
    },
    {
      "scriptpubkey": "00142a9a502c72f507b91e2a40018f9bae50e61774ef",
      "scriptpubkey_asm": "OP_0 OP_PUSHBYTES_20 2a9a502c72f507b91e2a40018f9bae50e61774ef",
      "scriptpubkey_type": "v0_p2wpkh",
      "scriptpubkey_address": "bc1q92d9qtrj75rmj832gqqclxaw2rnpwa80wsux7f",
      "value": 100781
    },
    {
      "scriptpubkey": "001466324dc6cbe0de329d8ac90ad01a642da641d387",
      "scriptpubkey_asm": "OP_0 OP_PUSHBYTES_20 66324dc6cbe0de329d8ac90ad01a642da641d387",
      "scriptpubkey_type": "v0_p2wpkh",
      "scriptpubkey_address": "bc1qvceym3ktur0r98v2ey9dqxny9knyr5u8utu7pv",
      "value": 658532
    },
    {
      "scriptpubkey": "a91460d7c9ef3697839b850a82bd9e96ba90d8afa34887",
      "scriptpubkey_asm": "OP_HASH160 OP_PUSHBYTES_20 60d7c9ef3697839b850a82bd9e96ba90d8afa348 OP_EQUAL",
      "scriptpubkey_type": "p2sh",
      "scriptpubkey_address": "3AX5JEDEAf2Hj2qW8zPUNfj2ztaqxdDhwj",
      "value": 100129
    },
    {
      "scriptpubkey": "a914a36492fdc5d08e6f25c53e6ca724dd97343ec23987",
      "scriptpubkey_asm": "OP_HASH160 OP_PUSHBYTES_20 a36492fdc5d08e6f25c53e6ca724dd97343ec239 OP_EQUAL",
      "scriptpubkey_type": "p2sh",
      "scriptpubkey_address": "3GaxYq2wB3J6XiUWDfrRZPr42BLFtvRdut",
      "value": 102026
    },
    {
      "scriptpubkey": "0014e8ec906eacdb6f023317da43e18606f197e7f66f",
      "scriptpubkey_asm": "OP_0 OP_PUSHBYTES_20 e8ec906eacdb6f023317da43e18606f197e7f66f",
      "scriptpubkey_type": "v0_p2wpkh",
      "scriptpubkey_address": "bc1qarkfqm4vmdhsyvchmfp7rpsx7xt70an0uf9gyl",
      "value": 106549
    },
    {
      "scriptpubkey": "00145ff4e9416d92206cb1b48435e45ace945826e9f7",
      "scriptpubkey_asm": "OP_0 OP_PUSHBYTES_20 5ff4e9416d92206cb1b48435e45ace945826e9f7",
      "scriptpubkey_type": "v0_p2wpkh",
      "scriptpubkey_address": "bc1qtl6wjstdjgsxevd5ss67gkkwj3vzd60hh8flk6",
      "value": 21786
    },
    {
      "scriptpubkey": "001403bb3e5d27103d6c6fd035e80fe9fa68bc8d5da8",
      "scriptpubkey_asm": "OP_0 OP_PUSHBYTES_20 03bb3e5d27103d6c6fd035e80fe9fa68bc8d5da8",
      "scriptpubkey_type": "v0_p2wpkh",
      "scriptpubkey_address": "bc1qqwanuhf8zq7kcm7sxh5ql606dz7g6hdgmhcctx",
      "value": 102812
    },
    {
      "scriptpubkey": "76a9146f3bfbe1e448b89e601ab361393ceb26efa74c3d88ac",
      "scriptpubkey_asm": "OP_DUP OP_HASH160 OP_PUSHBYTES_20 6f3bfbe1e448b89e601ab361393ceb26efa74c3d OP_EQUALVERIFY OP_CHECKSIG",
      "scriptpubkey_type": "p2pkh",
      "scriptpubkey_address": "1B99s3ppNsZFMKDs6w56AVFaVySgLU8pxb",
      "value": 9154153
    },
    {
      "scriptpubkey": "76a9149ff9fa5606f7167cc9c9d6395745a922551276c188ac",
      "scriptpubkey_asm": "OP_DUP OP_HASH160 OP_PUSHBYTES_20 9ff9fa5606f7167cc9c9d6395745a922551276c1 OP_EQUALVERIFY OP_CHECKSIG",
      "scriptpubkey_type": "p2pkh",
      "scriptpubkey_address": "1FasuGZZGTAtrZ3idGchhVuAWGxYZGAL1K",
      "value": 352564
    },
    {
      "scriptpubkey": "00144ee1abb9efed10dd620702734a2dc409595c7a02",
      "scriptpubkey_asm": "OP_0 OP_PUSHBYTES_20 4ee1abb9efed10dd620702734a2dc409595c7a02",
      "scriptpubkey_type": "v0_p2wpkh",
      "scriptpubkey_address": "bc1qfms6hw00a5gd6cs8qfe55twyp9v4c7sz5294fe",
      "value": 20209
    },
    {
      "scriptpubkey": "a914ce8f81b0af741658ba255bbc6bb7ec27bfdf071187",
      "scriptpubkey_asm": "OP_HASH160 OP_PUSHBYTES_20 ce8f81b0af741658ba255bbc6bb7ec27bfdf0711 OP_EQUAL",
      "scriptpubkey_type": "p2sh",
      "scriptpubkey_address": "3LXD35GMwqdcpZ4hhEMSWMVQRhaAhWvD1C",
      "value": 200858
    },
    {
      "scriptpubkey": "76a91489cc94abfe2e6f966fddb2bdf98c2e03d4fc001e88ac",
      "scriptpubkey_asm": "OP_DUP OP_HASH160 OP_PUSHBYTES_20 89cc94abfe2e6f966fddb2bdf98c2e03d4fc001e OP_EQUALVERIFY OP_CHECKSIG",
      "scriptpubkey_type": "p2pkh",
      "scriptpubkey_address": "1DZceoRf9GBhk3W7dyqPuLUHt5sBmterQF",
      "value": 158719
    },
    {
      "scriptpubkey": "0014b8dcdf2b52248239f640392f8518ae912a4310d6",
      "scriptpubkey_asm": "OP_0 OP_PUSHBYTES_20 b8dcdf2b52248239f640392f8518ae912a4310d6",
      "scriptpubkey_type": "v0_p2wpkh",
      "scriptpubkey_address": "bc1qhrwd726jyjprnajq8yhc2x9wjy4yxyxks9jlx0",
      "value": 103212
    },
    {
      "scriptpubkey": "a9144d5bd1474f498e6046d5e56b25d44c2380c9c96787",
      "scriptpubkey_asm": "OP_HASH160 OP_PUSHBYTES_20 4d5bd1474f498e6046d5e56b25d44c2380c9c967 OP_EQUAL",
      "scriptpubkey_type": "p2sh",
      "scriptpubkey_address": "38k3wuWBy8xfppGVEU2uJP1iqjdxsCnESr",
      "value": 361095
    },
    {
      "scriptpubkey": "a9145ee4a0ce9e05f383b16ba687eb4f599220f5f1b287",
      "scriptpubkey_asm": "OP_HASH160 OP_PUSHBYTES_20 5ee4a0ce9e05f383b16ba687eb4f599220f5f1b2 OP_EQUAL",
      "scriptpubkey_type": "p2sh",
      "scriptpubkey_address": "3ALmKwNsnWJ7NfywZ4eyZ4b5UXvDYJRk7e",
      "value": 102868
    },
    {
      "scriptpubkey": "00147441d2940f451956b6b7002d1e10669f2cc9f04a",
      "scriptpubkey_asm": "OP_0 OP_PUSHBYTES_20 7441d2940f451956b6b7002d1e10669f2cc9f04a",
      "scriptpubkey_type": "v0_p2wpkh",
      "scriptpubkey_address": "bc1qw3qa99q0g5v4dd4hqqk3uyrxnukvnuz273jkfp",
      "value": 1013513
    },
    {
      "scriptpubkey": "0014fef61b124eff0300cdf93c2fa826959cf3ee986e",
      "scriptpubkey_asm": "OP_0 OP_PUSHBYTES_20 fef61b124eff0300cdf93c2fa826959cf3ee986e",
      "scriptpubkey_type": "v0_p2wpkh",
      "scriptpubkey_address": "bc1qlmmpkyjwlupspn0e8sh6sf54nne7axrwaajvv8",
      "value": 103246
    },
    {
      "scriptpubkey": "0014966f6db267348826558765131692af5de59ddadc",
      "scriptpubkey_asm": "OP_0 OP_PUSHBYTES_20 966f6db267348826558765131692af5de59ddadc",
      "scriptpubkey_type": "v0_p2wpkh",
      "scriptpubkey_address": "bc1qjehkmvn8xjyzv4v8v5f3dy40thjemkkur34scf",
      "value": 123456
    },
    {
      "scriptpubkey": "a914fb6fae05ee2b7b046116604a09e945b9a3b3d26a87",
      "scriptpubkey_asm": "OP_HASH160 OP_PUSHBYTES_20 fb6fae05ee2b7b046116604a09e945b9a3b3d26a OP_EQUAL",
      "scriptpubkey_type": "p2sh",
      "scriptpubkey_address": "3QcVKLgggs1kc2UEDaMMt9sSN1VJEwCQv1",
      "value": 103777
    },
    {
      "scriptpubkey": "00149a4f52fc405c502e6806bb385855645e5e9d93f8",
      "scriptpubkey_asm": "OP_0 OP_PUSHBYTES_20 9a4f52fc405c502e6806bb385855645e5e9d93f8",
      "scriptpubkey_type": "v0_p2wpkh",
      "scriptpubkey_address": "bc1qnf849lzqt3gzu6qxhvu9s4tyte0fmylc383hcf",
      "value": 200139
    },
    {
      "scriptpubkey": "0014d35df57631c9e625aea43fa28156868149405569",
      "scriptpubkey_asm": "OP_0 OP_PUSHBYTES_20 d35df57631c9e625aea43fa28156868149405569",
      "scriptpubkey_type": "v0_p2wpkh",
      "scriptpubkey_address": "bc1q6dwl2a33e8nztt4y873gz45xs9y5q4tfzr9m37",
      "value": 113529
    },
    {
      "scriptpubkey": "001436c51334a743ff166da0f04794b3f95632574a9e",
      "scriptpubkey_asm": "OP_0 OP_PUSHBYTES_20 36c51334a743ff166da0f04794b3f95632574a9e",
      "scriptpubkey_type": "v0_p2wpkh",
      "scriptpubkey_address": "bc1qxmz3xd98g0l3vmdq7prefvle2ce9wj57ge9cu5",
      "value": 402182
    }
  ],
  "size": 1736,
  "weight": 6296,
  "fee": 22184,
  "status": {
    "confirmed": true,
    "block_height": 834460,
    "block_hash": "00000000000000000000484a79b643b2524bbce82e5d8a442013fa5b8905ed98",
    "block_time": 1710307468
  },
  "hex": "02000000000102f7698b13094ec06e34e93a0a7eb155d7659701cc71813cafec2e54285d8b1c2b1d00000000fdffffffbf2bc039cd459d7d4d63ac0978d95b76cf466a5bae2c9a30703822c6d911d0be0b00000000fdffffff2d5dc300000000000017a914bdb495cb225c5d593df4d1d7c4f6711b44439575875f8f010000000000160014d687668f112c53a6c6ef2413118119313628c06b9dcc05000000000017a9144041f78d8ed62fea9f3c9c7c7c4dd3c6637be78487e88b01000000000017a914e135ff27d73f885b4a914ed7c57b7995a019f8e087f4ff0700000000001976a914f8de74978c9a7ae77c6c2c65b623721d15dc343b88aca495010000000000160014110566ce15d5d74504530a071adbc422eb5e44cc234e00000000000017a914ec89932e8e5ab0985e8e63f9d29b1b6529b5a35b878fa0010000000000160014053e39b743ac7dc1574d8f32030ce2ca69d94ed3ecad030000000000160014570a13caf2516f1b68c4f352c1f4da2e5e060351f82f060000000000160014536b6d41350ff8fcda79db9da33d252965fdd28fc96b0000000000001976a91461ecaf30f1fad666b8b75b0321b53c177d1f493b88acd58f01000000000017a91438e96add77b81f411eff8ab050827e5c2baf54cf87179001000000000017a9148998b409efc193d4a2764f204f71fc819cc1e45387c88701000000000017a914e0e389da9e4a98f2c0ca5039f51e174582f2577e87ac860100000000001976a914c6a40592eea950758f46ec871dcd6f8e214e667488ac5dc300000000000017a914150f7f1e32e7b1a8133c8e7b5e1a8386724938ff87788d0100000000001600145b01fa490e7f5db6b42760013b466e5e50c96af1a98701000000000016001431da202f0060b904b272498cd8f2548c4716a85e7c95010000000000160014e32210d470f694a9d8dd36083fbea276ea7b326a9d870100000000001600147007ebfa5d8a56aafc33f93339a9fe5d27f7fb68ba73110000000000160014cc2ce80604ff0848751e989c3d500eed3cbc5963ae1104000000000017a9149c86f0201868aaa3cb451cf2f83ba418601baacb873997010000000000160014001ecc8c9aeb9bea595d87fa10d8ef4e3c451d78ad890100000000001600142a9a502c72f507b91e2a40018f9bae50e61774ef640c0a000000000016001466324dc6cbe0de329d8ac90ad01a642da641d387218701000000000017a91460d7c9ef3697839b850a82bd9e96ba90d8afa348878a8e01000000000017a914a36492fdc5d08e6f25c53e6ca724dd97343ec2398735a0010000000000160014e8ec906eacdb6f023317da43e18606f197e7f66f1a550000000000001600145ff4e9416d92206cb1b48435e45ace945826e9f79c9101000000000016001403bb3e5d27103d6c6fd035e80fe9fa68bc8d5da869ae8b00000000001976a9146f3bfbe1e448b89e601ab361393ceb26efa74c3d88ac34610500000000001976a9149ff9fa5606f7167cc9c9d6395745a922551276c188acf14e0000000000001600144ee1abb9efed10dd620702734a2dc409595c7a029a1003000000000017a914ce8f81b0af741658ba255bbc6bb7ec27bfdf071187ff6b0200000000001976a91489cc94abfe2e6f966fddb2bdf98c2e03d4fc001e88ac2c93010000000000160014b8dcdf2b52248239f640392f8518ae912a4310d6878205000000000017a9144d5bd1474f498e6046d5e56b25d44c2380c9c96787d49101000000000017a9145ee4a0ce9e05f383b16ba687eb4f599220f5f1b28709770f00000000001600147441d2940f451956b6b7002d1e10669f2cc9f04a4e93010000000000160014fef61b124eff0300cdf93c2fa826959cf3ee986e40e2010000000000160014966f6db267348826558765131692af5de59ddadc619501000000000017a914fb6fae05ee2b7b046116604a09e945b9a3b3d26a87cb0d0300000000001600149a4f52fc405c502e6806bb385855645e5e9d93f879bb010000000000160014d35df57631c9e625aea43fa28156868149405569062306000000000016001436c51334a743ff166da0f04794b3f95632574a9e0247304402206b86e159ebb401f657566e83eceb32eb5bb50e5658243e3f6106e77ec410426e02207680a402822eeb5e14e60eab9814efada212298445807c67d0d3c282666fbd91012102bc7cd235b9c6cfd9c1eb080d535d060e307ef06f34260103f6a19d9e0bd461550247304402201f577ca8528ea5dcc6a739b0f464acd08e090dfc86f0498355daf04408d013e0022075e07d4ca310633af3ba31045109cb942b5fc4239bd8556d3f83ee7bcf2df39f012102d5cca8724935c35a634bd38da93093e9dbbded3ff5c4c85b2279fe7e72ca43169abb0c00"
}