{
  "txid": "daf4112917442679e670fb713dd7ce4447ce3a68d5b9494e40d274e03486e3ab",
  "version": 2,
  "locktime": 0,
  "vin": [
    {
      "txid": "21a692f26c3b6206d8d8d74e4f228e6803a51f4c7691f27681efda3421a61648",
      "vout": 80,
      "prevout": {
        "scriptpubkey": "001418e0e3f890c0015f815dd9891d15150c3ab96d34",
        "scriptpubkey_asm": "OP_0 OP_PUSHBYTES_20 18e0e3f890c0015f815dd9891d15150c3ab96d34",
        "scriptpubkey_type": "v0_p2wpkh",
        "scriptpubkey_address": "bc1qrrsw87yscqq4lq2amxy369g4psatjmf57wj5ak",
        "value": 163388
      },
      "scriptsig": "",
      "scriptsig_asm": "",
      "witness": [
        "3045022100ac49137396ed015e3866a9e932380947a4f9c7b8dedc6194b61e4fd3a0c4f64b0220347112c7163ad2acb98fa279b241536db4267d0995264c9199db9c2e5f4d65ef01",
        "02139535b26bdc8882d9fb4f4e9221879e4ec5cfa93be50e5117f741139d1bb9cb"
      ],
      "is_coinbase": false,
      "sequence": 4294967295
    }
  ],
  "vout": [
    {
      "scriptpubkey": "76a9142ff7e87b56b5a6a557bb9d8cd664b20749f74eb988ac",
      "scriptpubkey_asm": "OP_DUP OP_HASH160 OP_PUSHBYTES_20 2ff7e87b56b5a6a557bb9d8cd664b20749f74eb9 OP_EQUALVERIFY OP_CHECKSIG",
      "scriptpubkey_type": "p2pkh",
      "scriptpubkey_address": "15NdjyYx6gtNRXsCL78S43zoCyjhx66JUF",
      "value": 46706
    },
    {
      "scriptpubkey": "0014aa68ce645b9af88494d3fd62d8cbc4002d0a003d",
      "scriptpubkey_asm": "OP_0 OP_PUSHBYTES_20 aa68ce645b9af88494d3fd62d8cbc4002d0a003d",
      "scriptpubkey_type": "v0_p2wpkh",
      "scriptpubkey_address": "bc1q4f5vuezmntugf9xnl43d3j7yqqks5qpax5xygs",
      "value": 115679
    }
  ],
  "size": 226,
  "weight": 574,
  "fee": 1003,
  "status": {
    "confirmed": true,
    "block_height": 834464,
    "block_hash": "0000000000000000000177a0869a911a2b65c9bdcd5a8bcb02b68f305bee848e",
    "block_time": 1710308296
  },
  "hex": "020000000001014816a62134daef8176f291764c1fa503688e224f4ed7d8d806623b6cf292a6215000000000ffffffff0272b60000000000001976a9142ff7e87b56b5a6a557bb9d8cd664b20749f74eb988acdfc3010000000000160014aa68ce645b9af88494d3fd62d8cbc4002d0a003d02483045022100ac49137396ed015e3866a9e932380947a4f9c7b8dedc6194b61e4fd3a0c4f64b0220347112c7163ad2acb98fa279b241536db4267d0995264c9199db9c2e5f4d65ef012102139535b26bdc8882d9fb4f4e9221879e4ec5cfa93be50e5117f741139d1bb9cb00000000"
}