{
  "txid": "db06f788502f47e9436eac7036cc3ef4e53d9c72b93afcf21e7c485619ad104d",
  "version": 2,
  "locktime": 0,
  "vin": [
    {
      "txid": "fb0f20231c44d8b32a4c47814208a53ca69dca619ed06c14c5e59945001e4d31",
      "vout": 3,
      "prevout": {
        "scriptpubkey": "51205677048a969351692aeee17b609cae8734feff83d0e7384d1afde3ebcf656c60",
        "scriptpubkey_asm": "OP_PUSHNUM_1 OP_PUSHBYTES_32 5677048a969351692aeee17b609cae8734feff83d0e7384d1afde3ebcf656c60",
        "scriptpubkey_type": "v1_p2tr",
        "scriptpubkey_address": "bc1p2emsfz5kjdgkj2hwu9akp89wsu60alur6rnnsng6lh37hnm9d3sqgrptd6",
        "value": 600
      },
      "scriptsig": "",
      "scriptsig_asm": "",
      "witness": [
        "2d6ac13db8347ac1c5fd293b1b37856e9378cb47f59ce99a46dd86975dc1dd45034afe3d98e319e3499232762fa66f4c75131de7e6e2392edd9a39d57021f9dc"
      ],
      "is_coinbase": false,
      "sequence": 4294967295
    },
    {
      "txid": "fb0f20231c44d8b32a4c47814208a53ca69dca619ed06c14c5e59945001e4d31",
      "vout": 4,
      "prevout": {
        "scriptpubkey": "51205677048a969351692aeee17b609cae8734feff83d0e7384d1afde3ebcf656c60",
        "scriptpubkey_asm": "OP_PUSHNUM_1 OP_PUSHBYTES_32 5677048a969351692aeee17b609cae8734feff83d0e7384d1afde3ebcf656c60",
        "scriptpubkey_type": "v1_p2tr",
        "scriptpubkey_address": "bc1p2emsfz5kjdgkj2hwu9akp89wsu60alur6rnnsng6lh37hnm9d3sqgrptd6",
        "value": 600
      },
      "scriptsig": "",
      "scriptsig_asm": "",
      "witness": [
        "fb52c90741b7cd2a3a17e764fe545a79b22a542de7a3878f2996b1287d12921a996e3be407fd7149900371c7f0dba198e5d2df4426876124477cafc93b2921fe"
      ],
      "is_coinbase": false,
      "sequence": 4294967295
    },
    {
      "txid": "0eb16892aeb8eed129ca44522c627d6d9bb00e14b492fd8c92e0784169d4dae5",
      "vout": 0,
      "prevout": {
        "scriptpubkey": "51208fa83fc2fcd6d4bb98547344f0b7f50cc20d672150effbca484c1724708c376a",
        "scriptpubkey_asm": "OP_PUSHNUM_1 OP_PUSHBYTES_32 8fa83fc2fcd6d4bb98547344f0b7f50cc20d672150effbca484c1724708c376a",
        "scriptpubkey_type": "v1_p2tr",
        "scriptpubkey_address": "bc1p375rlshu6m2thxz5wdz0pdl4pnpq6eep2rhlhjjgfstjguyvxa4qulqgda",
        "value": 546
      },
      "scriptsig": "",
      "scriptsig_asm": "",
      "witness": [
        "adb512f1c860e54fbe87cf3f056ae94c9fe291875b01ae6905cc0375027604d92786e48e8b294682a289967449947dc9ca287687623948fe5fde9a250257f4bb83"
      ],
      "is_coinbase": false,
      "sequence": 4294967295
    },
    {
      "txid": "fb0f20231c44d8b32a4c47814208a53ca69dca619ed06c14c5e59945001e4d31",
      "vout": 5,
      "prevout": {
        "scriptpubkey": "51205677048a969351692aeee17b609cae8734feff83d0e7384d1afde3ebcf656c60",
        "scriptpubkey_asm": "OP_PUSHNUM_1 OP_PUSHBYTES_32 5677048a969351692aeee17b609cae8734feff83d0e7384d1afde3ebcf656c60",
        "scriptpubkey_type": "v1_p2tr",
        "scriptpubkey_address": "bc1p2emsfz5kjdgkj2hwu9akp89wsu60alur6rnnsng6lh37hnm9d3sqgrptd6",
        "value": 26189319
      },
      "scriptsig": "",
      "scriptsig_asm": "",
      "witness": [
        "58e240bc2935eb1759e2e8e9afb2697dbc4655bf2bd96849a159856cc57189053637e4fe5fc8953d999edea5e50858bfb2de5ccb4ec3f8cc519798ea4693cbbc"
      ],
      "is_coinbase": false,
      "sequence": 4294967295
    }
  ],
  "vout": [
    {
      "scriptpubkey": "51205677048a969351692aeee17b609cae8734feff83d0e7384d1afde3ebcf656c60",
      "scriptpubkey_asm": "OP_PUSHNUM_1 OP_PUSHBYTES_32 5677048a969351692aeee17b609cae8734feff83d0e7384d1afde3ebcf656c60",
      "scriptpubkey_type": "v1_p2tr",
      "scriptpubkey_address": "bc1p2emsfz5kjdgkj2hwu9akp89wsu60alur6rnnsng6lh37hnm9d3sqgrptd6",
      "value": 1200
    },
    {
      "scriptpubkey": "51205677048a969351692aeee17b609cae8734feff83d0e7384d1afde3ebcf656c60",
      "scriptpubkey_asm": "OP_PUSHNUM_1 OP_PUSHBYTES_32 5677048a969351692aeee17b609cae8734feff83d0e7384d1afde3ebcf656c60",
      "scriptpubkey_type": "v1_p2tr",
      "scriptpubkey_address": "bc1p2emsfz5kjdgkj2hwu9akp89wsu60alur6rnnsng6lh37hnm9d3sqgrptd6",
      "value": 546
    },
    {
      "scriptpubkey": "51208fa83fc2fcd6d4bb98547344f0b7f50cc20d672150effbca484c1724708c376a",
      "scriptpubkey_asm": "OP_PUSHNUM_1 OP_PUSHBYTES_32 8fa83fc2fcd6d4bb98547344f0b7f50cc20d672150effbca484c1724708c376a",
      "scriptpubkey_type": "v1_p2tr",
      "scriptpubkey_address": "bc1p375rlshu6m2thxz5wdz0pdl4pnpq6eep2rhlhjjgfstjguyvxa4qulqgda",
      "value": 5466666
    },
    {
      "scriptpubkey": "51205677048a969351692aeee17b609cae8734feff83d0e7384d1afde3ebcf656c60",
      "scriptpubkey_asm": "OP_PUSHNUM_1 OP_PUSHBYTES_32 5677048a969351692aeee17b609cae8734feff83d0e7384d1afde3ebcf656c60",
      "scriptpubkey_type": "v1_p2tr",
      "scriptpubkey_address": "bc1p2emsfz5kjdgkj2hwu9akp89wsu60alur6rnnsng6lh37hnm9d3sqgrptd6",
      "value": 600
    },
    {
      "scriptpubkey": "51205677048a969351692aeee17b609cae8734feff83d0e7384d1afde3ebcf656c60",
      "scriptpubkey_asm": "OP_PUSHNUM_1 OP_PUSHBYTES_32 5677048a969351692aeee17b609cae8734feff83d0e7384d1afde3ebcf656c60",
      "scriptpubkey_type": "v1_p2tr",
      "scriptpubkey_address": "bc1p2emsfz5kjdgkj2hwu9akp89wsu60alur6rnnsng6lh37hnm9d3sqgrptd6",
      "value": 600
    },
    {
      "scriptpubkey": "51205677048a969351692aeee17b609cae8734feff83d0e7384d1afde3ebcf656c60",
      "scriptpubkey_asm": "OP_PUSHNUM_1 OP_PUSHBYTES_32 5677048a969351692aeee17b609cae8734feff83d0e7384d1afde3ebcf656c60",
      "scriptpubkey_type": "v1_p2tr",
      "scriptpubkey_address": "bc1p2emsfz5kjdgkj2hwu9akp89wsu60alur6rnnsng6lh37hnm9d3sqgrptd6",
      "value": 20713968
    }
  ],
  "size": 699,
  "weight": 1995,
  "fee": 7485,
  "status": {
    "confirmed": true,
    "block_height": 834460,
    "block_hash": "00000000000000000000484a79b643b2524bbce82e5d8a442013fa5b8905ed98",
    "block_time": 1710307468
  },
  "hex": "02000000000104314d1e004599e5c5146cd09e61ca9da63ca5084281474c2ab3d8441c23200ffb0300000000ffffffff314d1e004599e5c5146cd09e61ca9da63ca5084281474c2ab3d8441c23200ffb0400000000ffffffffe5dad4694178e0928cfd92b4140eb09b6d7d622c5244ca29d1eeb8ae9268b10e0000000000ffffffff314d1e004599e5c5146cd09e61ca9da63ca5084281474c2ab3d8441c23200ffb0500000000ffffffff06b0040000000000002251205677048a969351692aeee17b609cae8734feff83d0e7384d1afde3ebcf656c6022020000000000002251205677048a969351692aeee17b609cae8734feff83d0e7384d1afde3ebcf656c602a6a5300000000002251208fa83fc2fcd6d4bb98547344f0b7f50cc20d672150effbca484c1724708c376a58020000000000002251205677048a969351692aeee17b609cae8734feff83d0e7384d1afde3ebcf656c6058020000000000002251205677048a969351692aeee17b609cae8734feff83d0e7384d1afde3ebcf656c60f0113c01000000002251205677048a969351692aeee17b609cae8734feff83d0e7384d1afde3ebcf656c6001402d6ac13db8347ac1c5fd293b1b37856e9378cb47f59ce99a46dd86975dc1dd45034afe3d98e319e3499232762fa66f4c75131de7e6e2392edd9a39d57021f9dc0140fb52c90741b7cd2a3a17e764fe545a79b22a542de7a3878f2996b1287d12921a996e3be407fd7149900371c7f0dba198e5d2df4426876124477cafc93b2921fe0141adb512f1c860e54fbe87cf3f056ae94c9fe291875b01ae6905cc0375027604d92786e48e8b294682a289967449947dc9ca287687623948fe5fde9a250257f4bb83014058e240bc2935eb1759e2e8e9afb2697dbc4655bf2bd96849a159856cc57189053637e4fe5fc8953d999edea5e50858bfb2de5ccb4ec3f8cc519798ea4693cbbc00000000"
}