{
  "txid": "db294a844a56a26cc99e66bc257c08d9d5067ed6370d9b42c2939a05e4d55c9f",
  "version": 1,
  "locktime": 0,
  "vin": [
    {
      "txid": "405ac6a74c386d65621dd3d952177e4b85442b4eeec5850dd31a51eea96cf9ba",
      "vout": 1,
      "prevout": {
        "scriptpubkey": "001403381274804289114a2a7a28104f5143314f0aae",
        "scriptpubkey_asm": "OP_0 OP_PUSHBYTES_20 03381274804289114a2a7a28104f5143314f0aae",
        "scriptpubkey_type": "v0_p2wpkh",
        "scriptpubkey_address": "bc1qqvupyayqg2y3zj320g5pqn63gvc57z4we8n5ld",
        "value": 491632
      },
      "scriptsig": "",
      "scriptsig_asm": "",
      "witness": [
        "3045022100c2f256c0b7fdc246ab2e95ca8b1434b14850c3addd9874615ebae43d511038d302202f19ff987028cec4f1f581154f93d04c829ce1211ce29017fb2917875be8ce5101",
        "03a34da428864b58fef1e850ad712e168e516ac60dd5373aa69266b9fab84d5c10"
      ],
      "is_coinbase": false,
      "sequence": 4294967295
    }
  ],
  "vout": [
    {
      "scriptpubkey": "00144cca2268fe8f9a9aa86e5e33f9e8627c8e21c28f",
      "scriptpubkey_asm": "OP_0 OP_PUSHBYTES_20 4cca2268fe8f9a9aa86e5e33f9e8627c8e21c28f",
      "scriptpubkey_type": "v0_p2wpkh",
      "scriptpubkey_address": "bc1qfn9zy68737df42rwtceln6rz0j8zrs50u7r0tp",
      "value": 27000
    },
    {
      "scriptpubkey": "00147355a7b9195d91844a5e4fc1331054f2805c5c31",
      "scriptpubkey_asm": "OP_0 OP_PUSHBYTES_20 7355a7b9195d91844a5e4fc1331054f2805c5c31",
      "scriptpubkey_type": "v0_p2wpkh",
      "scriptpubkey_address": "bc1qwd260wgetkgcgjj7flqnxyz572q9chp3720ckd",
      "value": 462535
    }
  ],
  "size": 223,
  "weight": 562,
  "fee": 2097,
  "status": {
    "confirmed": true,
    "block_height": 834638,
    "block_hash": "000000000000000000025f742c626208ac87e0b7d15054abb4a19ca2d735a54e",
    "block_time": 1710405325
  },
  "hex": "01000000000101baf96ca9ee511ad30d85c5ee4e2b44854b7e1752d9d31d62656d384ca7c65a400100000000ffffffff0278690000000000001600144cca2268fe8f9a9aa86e5e33f9e8627c8e21c28fc70e0700000000001600147355a7b9195d91844a5e4fc1331054f2805c5c3102483045022100c2f256c0b7fdc246ab2e95ca8b1434b14850c3addd9874615ebae43d511038d302202f19ff987028cec4f1f581154f93d04c829ce1211ce29017fb2917875be8ce51012103a34da428864b58fef1e850ad712e168e516ac60dd5373aa69266b9fab84d5c1000000000"
}