{
  "txid": "db2dafd6ba4e1fe84d1b47361c4671dae4c52902a276e30f16e6c6baddf57662",
  "version": 1,
  "locktime": 0,
  "vin": [
    {
      "txid": "2763d6a249ce97c1c1c7198256cdee387f7879226b0496d96bfe74e44b3cf078",
      "vout": 1,
      "prevout": {
        "scriptpubkey": "00144479b62120dc86d9a2d6aca89706454f64c09afb",
        "scriptpubkey_asm": "OP_0 OP_PUSHBYTES_20 4479b62120dc86d9a2d6aca89706454f64c09afb",
        "scriptpubkey_type": "v0_p2wpkh",
        "scriptpubkey_address": "bc1qg3umvgfqmjrdngkk4j5fwpj9fajvpxhmwuz7d0",
        "value": 9155825
      },
      "scriptsig": "",
      "scriptsig_asm": "",
      "witness": [
        "304502210098b733cc7af93f1aa8ec09a487819e27405f340d66452e11b6f016b83615a90d022022a4f6d37d2b640082830b0af6107295486a1944b3ea14630624b24ea7b4aee801",
        "0308fd5fe7ee9875b082ca172faf0741b57a727305febb0e548f5ea4c7e67758db"
      ],
      "is_coinbase": false,
      "sequence": 4294967295
    }
  ],
  "vout": [
    {
      "scriptpubkey": "00149a4a35271b7ed3947a8a99cf665f48d9c86714a4",
      "scriptpubkey_asm": "OP_0 OP_PUSHBYTES_20 9a4a35271b7ed3947a8a99cf665f48d9c86714a4",
      "scriptpubkey_type": "v0_p2wpkh",
      "scriptpubkey_address": "bc1qnf9r2fcm0mfeg752n88kvh6gm8yxw99yq8g7ty",
      "value": 1999188
    },
    {
      "scriptpubkey": "00144479b62120dc86d9a2d6aca89706454f64c09afb",
      "scriptpubkey_asm": "OP_0 OP_PUSHBYTES_20 4479b62120dc86d9a2d6aca89706454f64c09afb",
      "scriptpubkey_type": "v0_p2wpkh",
      "scriptpubkey_address": "bc1qg3umvgfqmjrdngkk4j5fwpj9fajvpxhmwuz7d0",
      "value": 7152830
    }
  ],
  "size": 223,
  "weight": 562,
  "fee": 3807,
  "status": {
    "confirmed": true,
    "block_height": 834638,
    "block_hash": "000000000000000000025f742c626208ac87e0b7d15054abb4a19ca2d735a54e",
    "block_time": 1710405325
  },
  "hex": "0100000000010178f03c4be474fe6bd996046b2279787f38eecd568219c7c1c197ce49a2d663270100000000ffffffff0254811e00000000001600149a4a35271b7ed3947a8a99cf665f48d9c86714a4be246d00000000001600144479b62120dc86d9a2d6aca89706454f64c09afb0248304502210098b733cc7af93f1aa8ec09a487819e27405f340d66452e11b6f016b83615a90d022022a4f6d37d2b640082830b0af6107295486a1944b3ea14630624b24ea7b4aee801210308fd5fe7ee9875b082ca172faf0741b57a727305febb0e548f5ea4c7e67758db00000000"
}