{
  "txid": "db3618ad90eed4b5af7fd9e556f779efb55a2b5de0f96bf6fcec902aa5c1d1b2",
  "version": 2,
  "locktime": 0,
  "vin": [
    {
      "txid": "58c877781de399d0dbcae9f81702fbf754ea22c040a488218bcc47eadb55ce4a",
      "vout": 0,
      "prevout": {
        "scriptpubkey": "00142dc9ba22e3f0953d96cc842631f0932faa6a8c8c",
        "scriptpubkey_asm": "OP_0 OP_PUSHBYTES_20 2dc9ba22e3f0953d96cc842631f0932faa6a8c8c",
        "scriptpubkey_type": "v0_p2wpkh",
        "scriptpubkey_address": "bc1q9hym5ghr7z2nm9kvssnrruyn974x4ryv8qh2p0",
        "value": 136562692
      },
      "scriptsig": "",
      "scriptsig_asm": "",
      "witness": [
        "30450221008afa043d95b05e776d10ed3b404360681414c8818884355d5fd21a37984ead0102202a2127976993d28df939ba4c37dffc5ffb341767469b596bb5e1a65ee12e707001",
        "031420ce06b3c294242287c0c76478300359d48f476d01ea710676e97736a61601"
      ],
      "is_coinbase": false,
      "sequence": 0
    }
  ],
  "vout": [
    {
      "scriptpubkey": "0014b21b0b8a34fd276ca3b16ecbc9d21f3d15be55cd",
      "scriptpubkey_asm": "OP_0 OP_PUSHBYTES_20 b21b0b8a34fd276ca3b16ecbc9d21f3d15be55cd",
      "scriptpubkey_type": "v0_p2wpkh",
      "scriptpubkey_address": "bc1qkgdshz35l5nkega3dm9un5sl852mu4wdf52yku",
      "value": 26800000
    },
    {
      "scriptpubkey": "001466e4eb10fd5733ceb3f3c20d3c47f0a56675a42e",
      "scriptpubkey_asm": "OP_0 OP_PUSHBYTES_20 66e4eb10fd5733ceb3f3c20d3c47f0a56675a42e",
      "scriptpubkey_type": "v0_p2wpkh",
      "scriptpubkey_address": "bc1qvmjwky8a2ueuavlncgxnc3ls54n8tfpwqgdvrs",
      "value": 109760181
    }
  ],
  "size": 223,
  "weight": 562,
  "fee": 2511,
  "status": {
    "confirmed": true,
    "block_height": 834638,
    "block_hash": "000000000000000000025f742c626208ac87e0b7d15054abb4a19ca2d735a54e",
    "block_time": 1710405325
  },
  "hex": "020000000001014ace55dbea47cc8b2188a440c022ea54f7fb0217f8e9cadbd099e31d7877c8580000000000000000000280ef980100000000160014b21b0b8a34fd276ca3b16ecbc9d21f3d15be55cdb5ce8a060000000016001466e4eb10fd5733ceb3f3c20d3c47f0a56675a42e024830450221008afa043d95b05e776d10ed3b404360681414c8818884355d5fd21a37984ead0102202a2127976993d28df939ba4c37dffc5ffb341767469b596bb5e1a65ee12e70700121031420ce06b3c294242287c0c76478300359d48f476d01ea710676e97736a6160100000000"
}