{
  "txid": "db40e013c249571a1c29c19f1076986838edb1e9314911d0742fb666d732d47e",
  "version": 1,
  "locktime": 0,
  "vin": [
    {
      "txid": "8ee051ba54cf874faf3f822b828c3af2bfba88af93928340bc7633af55547310",
      "vout": 174,
      "prevout": {
        "scriptpubkey": "0014b3eb71f17c52ac77c6e3504c3ec6262d0e65a3ce",
        "scriptpubkey_asm": "OP_0 OP_PUSHBYTES_20 b3eb71f17c52ac77c6e3504c3ec6262d0e65a3ce",
        "scriptpubkey_type": "v0_p2wpkh",
        "scriptpubkey_address": "bc1qk04hrutu22k803hr2pxra33x958xtg7www2ej7",
        "value": 265500
      },
      "scriptsig": "",
      "scriptsig_asm": "",
      "witness": [
        "3044022071cafc5a4b7f81443043cc1e89a3cf279466d17b5c4b626922ae32d0b8e56c4702203452d627b7cdc8c88ab142ede452a34d0364d4041648f2eae00ad92c946f6e5d01",
        "038e4d5cf3824277bd8f5e5a8a4e364a4628bf69aa49d3c691e60dea8d6f59309b"
      ],
      "is_coinbase": false,
      "sequence": 4294967295
    }
  ],
  "vout": [
    {
      "scriptpubkey": "76a9144a24a0a2913cbad6819c9b62216cb1628144a90888ac",
      "scriptpubkey_asm": "OP_DUP OP_HASH160 OP_PUSHBYTES_20 4a24a0a2913cbad6819c9b62216cb1628144a908 OP_EQUALVERIFY OP_CHECKSIG",
      "scriptpubkey_type": "p2pkh",
      "scriptpubkey_address": "17m2t7ozX8Auu3SmUthh1xwk8Zakaywzdg",
      "value": 262449
    }
  ],
  "size": 194,
  "weight": 449,
  "fee": 3051,
  "status": {
    "confirmed": true,
    "block_height": 834638,
    "block_hash": "000000000000000000025f742c626208ac87e0b7d15054abb4a19ca2d735a54e",
    "block_time": 1710405325
  },
  "hex": "0100000000010110735455af3376bc40839293af88babff23a8c822b823faf4f87cf54ba51e08eae00000000ffffffff0131010400000000001976a9144a24a0a2913cbad6819c9b62216cb1628144a90888ac02473044022071cafc5a4b7f81443043cc1e89a3cf279466d17b5c4b626922ae32d0b8e56c4702203452d627b7cdc8c88ab142ede452a34d0364d4041648f2eae00ad92c946f6e5d0121038e4d5cf3824277bd8f5e5a8a4e364a4628bf69aa49d3c691e60dea8d6f59309b00000000"
}