{
  "txid": "db63d9e2e47a293ad7c0cbcccf38db5efd651c29573ad26c39e863b71bb228c9",
  "version": 1,
  "locktime": 0,
  "vin": [
    {
      "txid": "f396c12665d1a599702593de6a4473da72e2e433d6f2e2da9472eb2a5c0a7973",
      "vout": 1,
      "prevout": {
        "scriptpubkey": "00149d5348c0708ef3e1751f684faf76cf58af958020",
        "scriptpubkey_asm": "OP_0 OP_PUSHBYTES_20 9d5348c0708ef3e1751f684faf76cf58af958020",
        "scriptpubkey_type": "v0_p2wpkh",
        "scriptpubkey_address": "bc1qn4f53srs3me7zagldp867ak0tzhetqpqqgcx0u",
        "value": 11429
      },
      "scriptsig": "",
      "scriptsig_asm": "",
      "witness": [
        "3045022100953e52e386a555f5ec245b3307c18fe8f388e3c564e74daeb3ed42babc3caa20022043bb9aa0e6c7fed5973f237f860b8f4d43db06585e6684e7cea8fc33621ced8001",
        "022bc95ab92b876399e1c15843e80ab8af2de63f1def3210a9fc802d1562d8f2e0"
      ],
      "is_coinbase": false,
      "sequence": 4294967295
    },
    {
      "txid": "fed288142fd0b218ba10ea6e49889a1fcbc6e0dc61b64d3e6c4d58fa6b55af95",
      "vout": 1,
      "prevout": {
        "scriptpubkey": "001412a9c238a7ba22decd53c4978930fff872dba027",
        "scriptpubkey_asm": "OP_0 OP_PUSHBYTES_20 12a9c238a7ba22decd53c4978930fff872dba027",
        "scriptpubkey_type": "v0_p2wpkh",
        "scriptpubkey_address": "bc1qz25uyw98hg3dan2ncjtcjv8llpedhgp8l54k85",
        "value": 15044
      },
      "scriptsig": "",
      "scriptsig_asm": "",
      "witness": [
        "30440220279c034bedc6f3a4c0a9f94525166df6351f486c73e2d9232aee86ba77654513022007afc387bd7a03e57c9d2990765f8d7a03ea3b03ad1a07c1d25a9aef362cefed01",
        "0202ac44827a8761921c2ddbd6ab53bcab0e8ba8b067261e1d94ff7c720780e419"
      ],
      "is_coinbase": false,
      "sequence": 4294967295
    },
    {
      "txid": "2786c1169c8885c96e474343534ead2bea5b05408e48837d0a200f897bb2a5ce",
      "vout": 55,
      "prevout": {
        "scriptpubkey": "0014d72fe40bc7d549f3ba3346fd7e55c510b391c299",
        "scriptpubkey_asm": "OP_0 OP_PUSHBYTES_20 d72fe40bc7d549f3ba3346fd7e55c510b391c299",
        "scriptpubkey_type": "v0_p2wpkh",
        "scriptpubkey_address": "bc1q6uh7gz7864yl8w3ngm7hu4w9zzeers5enfv2u4",
        "value": 60001
      },
      "scriptsig": "",
      "scriptsig_asm": "",
      "witness": [
        "3045022100ea2333413486a05753de5c1e594b36d6edb5e38c30f21f4096f7728d70bc3ef1022079f2c9c171ee6e202e9a84e1f8725266be504fb004fda665f5fd7ba4036dfa7601",
        "032d557a029367f1df275afdc8a317b20b4bb792350582fee1fbb29701811273b6"
      ],
      "is_coinbase": false,
      "sequence": 4294967295
    }
  ],
  "vout": [
    {
      "scriptpubkey": "0014ff01c689ec99a1cb8c7d1f584fb1ff4bfae4074a",
      "scriptpubkey_asm": "OP_0 OP_PUSHBYTES_20 ff01c689ec99a1cb8c7d1f584fb1ff4bfae4074a",
      "scriptpubkey_type": "v0_p2wpkh",
      "scriptpubkey_address": "bc1qluqudz0vnxsuhrraravylv0lf0awgp62ymgcjm",
      "value": 75185
    },
    {
      "scriptpubkey": "00145c0fd49de912dcfabc165cadcdef2a298613ab24",
      "scriptpubkey_asm": "OP_0 OP_PUSHBYTES_20 5c0fd49de912dcfabc165cadcdef2a298613ab24",
      "scriptpubkey_type": "v0_p2wpkh",
      "scriptpubkey_address": "bc1qts8af80fztw040qktjkumme29xrp82eygv3uyf",
      "value": 4131
    }
  ],
  "size": 520,
  "weight": 1105,
  "fee": 7158,
  "status": {
    "confirmed": true,
    "block_height": 834552,
    "block_hash": "00000000000000000001dd0468a70c94f619251d286585cff57aeb4bd9ede330",
    "block_time": 1710355598
  },
  "hex": "0100000000010373790a5c2aeb7294dae2f2d633e4e272da73446ade93257099a5d16526c196f30100000000ffffffff95af556bfa584d6c3e4db661dce0c6cb1f9a88496eea10ba18b2d02f1488d2fe0100000000ffffffffcea5b27b890f200a7d83488e40055bea2bad4e534343476ec985889c16c186273700000000ffffffff02b125010000000000160014ff01c689ec99a1cb8c7d1f584fb1ff4bfae4074a23100000000000001600145c0fd49de912dcfabc165cadcdef2a298613ab2402483045022100953e52e386a555f5ec245b3307c18fe8f388e3c564e74daeb3ed42babc3caa20022043bb9aa0e6c7fed5973f237f860b8f4d43db06585e6684e7cea8fc33621ced800121022bc95ab92b876399e1c15843e80ab8af2de63f1def3210a9fc802d1562d8f2e0024730440220279c034bedc6f3a4c0a9f94525166df6351f486c73e2d9232aee86ba77654513022007afc387bd7a03e57c9d2990765f8d7a03ea3b03ad1a07c1d25a9aef362cefed01210202ac44827a8761921c2ddbd6ab53bcab0e8ba8b067261e1d94ff7c720780e41902483045022100ea2333413486a05753de5c1e594b36d6edb5e38c30f21f4096f7728d70bc3ef1022079f2c9c171ee6e202e9a84e1f8725266be504fb004fda665f5fd7ba4036dfa760121032d557a029367f1df275afdc8a317b20b4bb792350582fee1fbb29701811273b600000000"
}