{
  "txid": "db6fbfaee3dd87a4e8b7e363c3a9f8d0f96e956af9f26178168da19577f246f2",
  "version": 2,
  "locktime": 0,
  "vin": [
    {
      "txid": "d9ed3313f1aefef6a1ad649cfb2ba688763138c9df66b422bb301df0f673f659",
      "vout": 1,
      "prevout": {
        "scriptpubkey": "00149a921bc55134b6b222b4e5819f4dd44665db7f09",
        "scriptpubkey_asm": "OP_0 OP_PUSHBYTES_20 9a921bc55134b6b222b4e5819f4dd44665db7f09",
        "scriptpubkey_type": "v0_p2wpkh",
        "scriptpubkey_address": "bc1qn2fph323xjmtyg45ukqe7nw5gejaklcfhq2djl",
        "value": 7850
      },
      "scriptsig": "",
      "scriptsig_asm": "",
      "witness": [
        "3044022058b4ac099e799ef923d9d3a3dc9e6b4fd05c969d1b99637762b3906f356a4ea10220012398b950c5e92ce51341c1c5a00e12c3213dd777cbc13861382d431c6218c301",
        "02f7a1e847a6d8e4781c39787beff69d82e0fd965de1cc1e6961b401a2ef78cd6c"
      ],
      "is_coinbase": false,
      "sequence": 4294967293
    }
  ],
  "vout": [
    {
      "scriptpubkey": "5120a03c4400bbf0c6fdc934fd6227159a4eed9cf99e91083fd6cddfb7293c382869",
      "scriptpubkey_asm": "OP_PUSHNUM_1 OP_PUSHBYTES_32 a03c4400bbf0c6fdc934fd6227159a4eed9cf99e91083fd6cddfb7293c382869",
      "scriptpubkey_type": "v1_p2tr",
      "scriptpubkey_address": "bc1p5q7ygq9m7rr0mjf5l43zw9v6fmkee7v7jyyrl4kdm7mjj0pc9p5s7ymkqk",
      "value": 6536
    }
  ],
  "size": 203,
  "weight": 485,
  "fee": 1314,
  "status": {
    "confirmed": true,
    "block_height": 834464,
    "block_hash": "0000000000000000000177a0869a911a2b65c9bdcd5a8bcb02b68f305bee848e",
    "block_time": 1710308296
  },
  "hex": "0200000000010159f673f6f01d30bb22b466dfc938317688a62bfb9c64ada1f6feaef11333edd90100000000fdffffff018819000000000000225120a03c4400bbf0c6fdc934fd6227159a4eed9cf99e91083fd6cddfb7293c38286902473044022058b4ac099e799ef923d9d3a3dc9e6b4fd05c969d1b99637762b3906f356a4ea10220012398b950c5e92ce51341c1c5a00e12c3213dd777cbc13861382d431c6218c3012102f7a1e847a6d8e4781c39787beff69d82e0fd965de1cc1e6961b401a2ef78cd6c00000000"
}