{
  "txid": "db7fe099ade891eb1eca805c745ef3816d77814c8250309f7e7c5670444718de",
  "version": 1,
  "locktime": 0,
  "vin": [
    {
      "txid": "fb09b36dc54a6e5e80001af88e9fd91c3d691d5df5cfdfc215629a58f1f3fb30",
      "vout": 1,
      "prevout": {
        "scriptpubkey": "00147ee3da00f84524852f321a4c1e1542c0bdcbcf23",
        "scriptpubkey_asm": "OP_0 OP_PUSHBYTES_20 7ee3da00f84524852f321a4c1e1542c0bdcbcf23",
        "scriptpubkey_type": "v0_p2wpkh",
        "scriptpubkey_address": "bc1q0m3a5q8cg5jg2tejrfxpu92zcz7uhner509w9n",
        "value": 897289
      },
      "scriptsig": "",
      "scriptsig_asm": "",
      "witness": [
        "3044022057e0ba6769b80a15739536baeb1b0ab01b10ee1fd8e2be305fc59ed4280e622502200415760e0ea5c182f9154e8e8926f0328a6634eb289157ac209ce387170551c201",
        "02f99ffc7af23ba032e1266dc2c5fc1ef9736a34c05476877536213e89c6671d26"
      ],
      "is_coinbase": false,
      "sequence": 4294967295
    },
    {
      "txid": "7dd654b05bca735309fa9ab839ceb658f8929aeb9f9a36cd9f19fe384f66d837",
      "vout": 1,
      "prevout": {
        "scriptpubkey": "00147ee3da00f84524852f321a4c1e1542c0bdcbcf23",
        "scriptpubkey_asm": "OP_0 OP_PUSHBYTES_20 7ee3da00f84524852f321a4c1e1542c0bdcbcf23",
        "scriptpubkey_type": "v0_p2wpkh",
        "scriptpubkey_address": "bc1q0m3a5q8cg5jg2tejrfxpu92zcz7uhner509w9n",
        "value": 6238320
      },
      "scriptsig": "",
      "scriptsig_asm": "",
      "witness": [
        "30440220444f518430a92749e37b117d27d3d9b53b4e9bc3302a4473a284e78eaca9e785022061ddc33327d558103a4315928bbd18451a38c49fd92ab152eb772c16cd2a991501",
        "02f99ffc7af23ba032e1266dc2c5fc1ef9736a34c05476877536213e89c6671d26"
      ],
      "is_coinbase": false,
      "sequence": 4294967295
    }
  ],
  "vout": [
    {
      "scriptpubkey": "0014ace48c1d49829378fe0744e329341517179803db",
      "scriptpubkey_asm": "OP_0 OP_PUSHBYTES_20 ace48c1d49829378fe0744e329341517179803db",
      "scriptpubkey_type": "v0_p2wpkh",
      "scriptpubkey_address": "bc1q4njgc82fs2fh3ls8gn3jjdq4zutesq7mqgnwfp",
      "value": 6596193
    },
    {
      "scriptpubkey": "00147ee3da00f84524852f321a4c1e1542c0bdcbcf23",
      "scriptpubkey_asm": "OP_0 OP_PUSHBYTES_20 7ee3da00f84524852f321a4c1e1542c0bdcbcf23",
      "scriptpubkey_type": "v0_p2wpkh",
      "scriptpubkey_address": "bc1q0m3a5q8cg5jg2tejrfxpu92zcz7uhner509w9n",
      "value": 533773
    }
  ],
  "size": 370,
  "weight": 832,
  "fee": 5643,
  "status": {
    "confirmed": true,
    "block_height": 834638,
    "block_hash": "000000000000000000025f742c626208ac87e0b7d15054abb4a19ca2d735a54e",
    "block_time": 1710405325
  },
  "hex": "0100000000010230fbf3f1589a6215c2dfcff55d1d693d1cd99f8ef81a00805e6e4ac56db309fb0100000000ffffffff37d8664f38fe199fcd369a9feb9a92f858b6ce39b89afa095373ca5bb054d67d0100000000ffffffff0261a6640000000000160014ace48c1d49829378fe0744e329341517179803db0d250800000000001600147ee3da00f84524852f321a4c1e1542c0bdcbcf2302473044022057e0ba6769b80a15739536baeb1b0ab01b10ee1fd8e2be305fc59ed4280e622502200415760e0ea5c182f9154e8e8926f0328a6634eb289157ac209ce387170551c2012102f99ffc7af23ba032e1266dc2c5fc1ef9736a34c05476877536213e89c6671d26024730440220444f518430a92749e37b117d27d3d9b53b4e9bc3302a4473a284e78eaca9e785022061ddc33327d558103a4315928bbd18451a38c49fd92ab152eb772c16cd2a9915012102f99ffc7af23ba032e1266dc2c5fc1ef9736a34c05476877536213e89c6671d2600000000"
}