{
  "txid": "db8fdfef803ab67034b3208302d19e1a4afbf38ba4a7c3e270a8bb6de37265de",
  "version": 2,
  "locktime": 0,
  "vin": [
    {
      "txid": "a2c606ff7b64a31c7a3670ac66dddba2a80e65d48fa9ec9d40099f71c77be716",
      "vout": 0,
      "prevout": {
        "scriptpubkey": "5120676eec614467098f2b45f39626a8ca0cf416008c8572b164f9dee434a11c3e75",
        "scriptpubkey_asm": "OP_PUSHNUM_1 OP_PUSHBYTES_32 676eec614467098f2b45f39626a8ca0cf416008c8572b164f9dee434a11c3e75",
        "scriptpubkey_type": "v1_p2tr",
        "scriptpubkey_address": "bc1pvahwcc2yvuyc72697wtzd2x2pn6pvqyvs4etze8emmjrfggu8e6sekeyxh",
        "value": 27365
      },
      "scriptsig": "",
      "scriptsig_asm": "",
      "witness": [
        "60b44e028066cdf7857ef3831560bafe6ad8a5175d2337e22f5606098fa8f4cc1017b23aeb655d4974c8a30ae36fe0df23b4a6d5a635417556d6d9df63621503",
        "20f2d00e1cce0b839d2e197679cac7a15152ec244338032c7767f72c1332d49a65ac0063036f7264010109696d6167652f706e67004d080289504e470d0a1a0a0000000d4948445200000118000001180803000000b05019be00000042504c544513b2f2ff0a731904ffb900ff00ff2a0300ff00ffe4ff7b0041f3fc0300af009dffff132a5706ffffed25ff00fffffbffef0f22ff5c00c42c36000000bafcff0200ff9753f260000002014944415478daedddc96ec2301440d194a1504acb54feff57d9c52c2cf759b132c0b95be72d7c56b11529dd4ed93a0460c0800103060c183060c08011183060c0800103060c18306004060c183060c0800103060c18810103060c183060c08001034660c0800103060c183060c08001233060de14e62b13183060c0800103060c183060c0800103060c183060c080690fb3cd9456ef7d69f59ea98c100d0c183060c0800103060c987161ae7ddb6069020c183060c0800103060c98b9c3a417fcb4cddc91a00dcc822ec3c1800103060c183060c0bc184cfd91e09a296dfdd007060c183060c080010306ccf430ebea56c50ec1c0800103060c183060c080191766dfb8cf6060c0800103060c183060c0b4813915fbebbb651a320b060c183060c080010306cc3c6172db1c321b85891e31c0800103060c183060c08019f792bbf56538183060c0800103060c1830cb86d904eb82810103060c183060c08001f3cf831305060c183060c0800103060c98e726fb001a0c183060c0800103060c183060c0800103060c183060c0800103060c183060c04c80800133539868dfd55d8afd040303060c183060c0800103a60dccb9ba71615aff040f0c183060c0800103060c183060c0800103060c1830605e19e6a3badf60eb62c760ab6060c0800103060c183060c0800103060c183060c0800103060c183060c0800103060c9885c33c004de5be5ddb2062330000000049454e44ae426082680063036f726401011e6170706c69636174696f6e2f6a736f6e3b636861727365743d7574662d38004d62017b2270223a22766f7264222c2276223a312c227479223a22696e7363222c22636f6c223a2232343930616533353961306139323966616465616339303633646434366361613433653231363339333763363539646262616366333565343431656238643863222c22696964223a224d7574616e7420784d6f6e6b6573222c227075626c223a2231455337623370636a527a4667796969714c7278484b546e43686535364c4a485937222c226e6f6e6365223a393133372c226d696e746572223a226263317030746575703972616d717172676c66347a68746667767033676477736c667572766e326777786532336c7863786b6475666e70736179337a6d6b222c22736967223a224737436b4562415656566a5373465a6f5137616166327649764c676f742f6651794a5a6c374f697375457336444c6a493442745577523077314b3946654d6a356549685941394d4c51706f39566c76364e644c2f3654413d227d68",
        "c1f2d00e1cce0b839d2e197679cac7a15152ec244338032c7767f72c1332d49a65675a92934efa5e4869b2432a3e00abfc6819367af43949c2edc693b32d23ac05"
      ],
      "is_coinbase": false,
      "sequence": 4294967293
    }
  ],
  "vout": [
    {
      "scriptpubkey": "51207af3c0947dd800347d3515d6943031435d0fa78364d4871b2a8fcd8359bc4cc3",
      "scriptpubkey_asm": "OP_PUSHNUM_1 OP_PUSHBYTES_32 7af3c0947dd800347d3515d6943031435d0fa78364d4871b2a8fcd8359bc4cc3",
      "scriptpubkey_type": "v1_p2tr",
      "scriptpubkey_address": "bc1p0teup9ramqqrglf4zhtfgvp3gdwslfurvn2gwxe23lxcxkdufnpsay3zmk",
      "value": 1000
    },
    {
      "scriptpubkey": "5120f4d3a74cb882d6df5a942aae15d724bad39222e79b62335fa7cdf54bc030f415",
      "scriptpubkey_asm": "OP_PUSHNUM_1 OP_PUSHBYTES_32 f4d3a74cb882d6df5a942aae15d724bad39222e79b62335fa7cdf54bc030f415",
      "scriptpubkey_type": "v1_p2tr",
      "scriptpubkey_address": "bc1p7nf6wn9csttd7k5592hpt4eyhtfeygh8nd3rxha8eh65hsps7s2s00yhus",
      "value": 17713
    },
    {
      "scriptpubkey": "51200705a5767db892e98125775049b1a13dd9ecdc8aea0df413cabbee683e871012",
      "scriptpubkey_asm": "OP_PUSHNUM_1 OP_PUSHBYTES_32 0705a5767db892e98125775049b1a13dd9ecdc8aea0df413cabbee683e871012",
      "scriptpubkey_type": "v1_p2tr",
      "scriptpubkey_address": "bc1pquz62anahzfwnqf9wagynvdp8hv7ehy2agxlgy72h0hxs058zqfqk8ksyq",
      "value": 3251
    }
  ],
  "size": 1422,
  "weight": 1962,
  "fee": 5401,
  "status": {
    "confirmed": true,
    "block_height": 834464,
    "block_hash": "0000000000000000000177a0869a911a2b65c9bdcd5a8bcb02b68f305bee848e",
    "block_time": 1710308296
  },
  "hex": "0200000000010116e77bc7719f09409deca98fd4650ea8a2dbdd66ac70367a1ca3647bff06c6a20000000000fdffffff03e8030000000000002251207af3c0947dd800347d3515d6943031435d0fa78364d4871b2a8fcd8359bc4cc33145000000000000225120f4d3a74cb882d6df5a942aae15d724bad39222e79b62335fa7cdf54bc030f415b30c0000000000002251200705a5767db892e98125775049b1a13dd9ecdc8aea0df413cabbee683e871012034060b44e028066cdf7857ef3831560bafe6ad8a5175d2337e22f5606098fa8f4cc1017b23aeb655d4974c8a30ae36fe0df23b4a6d5a635417556d6d9df63621503fd510420f2d00e1cce0b839d2e197679cac7a15152ec244338032c7767f72c1332d49a65ac0063036f7264010109696d6167652f706e67004d080289504e470d0a1a0a0000000d4948445200000118000001180803000000b05019be00000042504c544513b2f2ff0a731904ffb900ff00ff2a0300ff00ffe4ff7b0041f3fc0300af009dffff132a5706ffffed25ff00fffffbffef0f22ff5c00c42c36000000bafcff0200ff9753f260000002014944415478daedddc96ec2301440d194a1504acb54feff57d9c52c2cf759b132c0b95be72d7c56b11529dd4ed93a0460c0800103060c183060c08011183060c0800103060c18306004060c183060c0800103060c18810103060c183060c08001034660c0800103060c183060c08001233060de14e62b13183060c0800103060c183060c0800103060c183060c080690fb3cd9456ef7d69f59ea98c100d0c183060c0800103060c987161ae7ddb6069020c183060c0800103060c98b9c3a417fcb4cddc91a00dcc822ec3c1800103060c183060c0bc184cfd91e09a296dfdd007060c183060c080010306ccf430ebea56c50ec1c0800103060c183060c080191766dfb8cf6060c0800103060c183060c0b4813915fbebbb651a320b060c183060c080010306cc3c6172db1c321b85891e31c0800103060c183060c08019f792bbf56538183060c0800103060c1830cb86d904eb82810103060c183060c08001f3cf831305060c183060c0800103060c98e726fb001a0c183060c0800103060c183060c0800103060c183060c0800103060c183060c04c80800133539868dfd55d8afd040303060c183060c0800103a60dccb9ba71615aff040f0c183060c0800103060c183060c0800103060c1830605e19e6a3badf60eb62c760ab6060c0800103060c183060c0800103060c183060c0800103060c183060c0800103060c9885c33c004de5be5ddb2062330000000049454e44ae426082680063036f726401011e6170706c69636174696f6e2f6a736f6e3b636861727365743d7574662d38004d62017b2270223a22766f7264222c2276223a312c227479223a22696e7363222c22636f6c223a2232343930616533353961306139323966616465616339303633646434366361613433653231363339333763363539646262616366333565343431656238643863222c22696964223a224d7574616e7420784d6f6e6b6573222c227075626c223a2231455337623370636a527a4667796969714c7278484b546e43686535364c4a485937222c226e6f6e6365223a393133372c226d696e746572223a226263317030746575703972616d717172676c66347a68746667767033676477736c667572766e326777786532336c7863786b6475666e70736179337a6d6b222c22736967223a224737436b4562415656566a5373465a6f5137616166327649764c676f742f6651794a5a6c374f697375457336444c6a493442745577523077314b3946654d6a356549685941394d4c51706f39566c76364e644c2f3654413d227d6841c1f2d00e1cce0b839d2e197679cac7a15152ec244338032c7767f72c1332d49a65675a92934efa5e4869b2432a3e00abfc6819367af43949c2edc693b32d23ac0500000000"
}