{
  "txid": "db956d6f8d75e426cc1448cacdd556af8d1e1a490e5abdf326dcacdbc3c47755",
  "version": 2,
  "locktime": 0,
  "vin": [
    {
      "txid": "8ff7bd41d5bcec3ee55e2e7a081e42c28b3993b9faed97ff326035b68df2d7c7",
      "vout": 18,
      "prevout": {
        "scriptpubkey": "001450587279399aa15191e7b53258768adc7c44dc43",
        "scriptpubkey_asm": "OP_0 OP_PUSHBYTES_20 50587279399aa15191e7b53258768adc7c44dc43",
        "scriptpubkey_type": "v0_p2wpkh",
        "scriptpubkey_address": "bc1q2pv8y7fen2s4ry08k5e9sa52m37yfhzry8cf89",
        "value": 20368591
      },
      "scriptsig": "",
      "scriptsig_asm": "",
      "witness": [
        "304402201b864105c09f941b6bfcb8ac4c586f558cb87e5e5b6a5befcfa7a448fe3432d40220269b58e492a4586c85975aa85eb236fb44c662c18930cf18b70de21775e1e96201",
        "021c0e8ed01b0df036a1f692be10928faab405f25035f38efe2eb0ee7dc30c6801"
      ],
      "is_coinbase": false,
      "sequence": 4294967295
    }
  ],
  "vout": [
    {
      "scriptpubkey": "001450587279399aa15191e7b53258768adc7c44dc43",
      "scriptpubkey_asm": "OP_0 OP_PUSHBYTES_20 50587279399aa15191e7b53258768adc7c44dc43",
      "scriptpubkey_type": "v0_p2wpkh",
      "scriptpubkey_address": "bc1q2pv8y7fen2s4ry08k5e9sa52m37yfhzry8cf89",
      "value": 19275397
    },
    {
      "scriptpubkey": "0014a79c347f7272d3aaefff49bfc7d43331c2caba98",
      "scriptpubkey_asm": "OP_0 OP_PUSHBYTES_20 a79c347f7272d3aaefff49bfc7d43331c2caba98",
      "scriptpubkey_type": "v0_p2wpkh",
      "scriptpubkey_address": "bc1q57wrglmjwtf64mllfxlu04pnx8pv4w5c64t6nq",
      "value": 1090044
    }
  ],
  "size": 222,
  "weight": 561,
  "fee": 3150,
  "status": {
    "confirmed": true,
    "block_height": 834638,
    "block_hash": "000000000000000000025f742c626208ac87e0b7d15054abb4a19ca2d735a54e",
    "block_time": 1710405325
  },
  "hex": "02000000000101c7d7f28db6356032ff97edfab993398bc2421e087a2e5ee53eecbcd541bdf78f1200000000ffffffff02851e26010000000016001450587279399aa15191e7b53258768adc7c44dc43fca1100000000000160014a79c347f7272d3aaefff49bfc7d43331c2caba980247304402201b864105c09f941b6bfcb8ac4c586f558cb87e5e5b6a5befcfa7a448fe3432d40220269b58e492a4586c85975aa85eb236fb44c662c18930cf18b70de21775e1e9620121021c0e8ed01b0df036a1f692be10928faab405f25035f38efe2eb0ee7dc30c680100000000"
}