{
  "txid": "dba7615c48105027257f243d3dbacae3ab54c904207f9a7eee7b479d64fa5dc1",
  "version": 2,
  "locktime": 0,
  "vin": [
    {
      "txid": "015323cd5a5723f718bf709e2cc26b20d11c022da91dd17f293310d96b572f16",
      "vout": 0,
      "prevout": {
        "scriptpubkey": "a91406f19824aff9b90bb52b859f64f27c9837ee3fa987",
        "scriptpubkey_asm": "OP_HASH160 OP_PUSHBYTES_20 06f19824aff9b90bb52b859f64f27c9837ee3fa9 OP_EQUAL",
        "scriptpubkey_type": "p2sh",
        "scriptpubkey_address": "32KjPxjHy3begY6E8mW8xmDUK7WmoWxpLC",
        "value": 1000000000
      },
      "scriptsig": "160014a275e7990a2a2d7ffda637613b29e680b2cc7048",
      "scriptsig_asm": "OP_PUSHBYTES_22 0014a275e7990a2a2d7ffda637613b29e680b2cc7048",
      "witness": [
        "3044022060027f3dee00db448b41aa2f3a0ce37aafc3e8b1ddf5bac1cd24cada80531cb002204ad021c2544710199737266c660f1a146854115cdc659e9812c1eb8a9734e8af01",
        "03cf303d741b4abfcc977a868961e5f3c790c8830bf4a018fd480cbe2077d0d4ec"
      ],
      "is_coinbase": false,
      "sequence": 4294967295,
      "inner_redeemscript_asm": "OP_0 OP_PUSHBYTES_20 a275e7990a2a2d7ffda637613b29e680b2cc7048"
    }
  ],
  "vout": [
    {
      "scriptpubkey": "76a914df2bb0df3bbeab9d8f5d856812a91f90d454458a88ac",
      "scriptpubkey_asm": "OP_DUP OP_HASH160 OP_PUSHBYTES_20 df2bb0df3bbeab9d8f5d856812a91f90d454458a OP_EQUALVERIFY OP_CHECKSIG",
      "scriptpubkey_type": "p2pkh",
      "scriptpubkey_address": "1MM22UapYFDy35jdJpD7ZAowBEwVMo7yjo",
      "value": 164991000
    },
    {
      "scriptpubkey": "a9147e3d3765c180701a01f10ff316776ceecdc57d2187",
      "scriptpubkey_asm": "OP_HASH160 OP_PUSHBYTES_20 7e3d3765c180701a01f10ff316776ceecdc57d21 OP_EQUAL",
      "scriptpubkey_type": "p2sh",
      "scriptpubkey_address": "3DCWQ6zhqKqB51Rt6EoempwXzDV3wpTqU8",
      "value": 835003176
    }
  ],
  "size": 249,
  "weight": 669,
  "fee": 5824,
  "status": {
    "confirmed": true,
    "block_height": 834638,
    "block_hash": "000000000000000000025f742c626208ac87e0b7d15054abb4a19ca2d735a54e",
    "block_time": 1710405325
  },
  "hex": "02000000000101162f576bd91033297fd11da92d021cd1206bc22c9e70bf18f723575acd2353010000000017160014a275e7990a2a2d7ffda637613b29e680b2cc7048ffffffff021890d509000000001976a914df2bb0df3bbeab9d8f5d856812a91f90d454458a88ac2823c5310000000017a9147e3d3765c180701a01f10ff316776ceecdc57d218702473044022060027f3dee00db448b41aa2f3a0ce37aafc3e8b1ddf5bac1cd24cada80531cb002204ad021c2544710199737266c660f1a146854115cdc659e9812c1eb8a9734e8af012103cf303d741b4abfcc977a868961e5f3c790c8830bf4a018fd480cbe2077d0d4ec00000000"
}