{
  "txid": "dbab66de5cf29eb9ca549dc0db0513087060257c98fc5aa5cd27210e89076b68",
  "version": 2,
  "locktime": 0,
  "vin": [
    {
      "txid": "c84a112d3c799c13a8df3dc1cc593a4ed4ac439506ee4579595c84576eebcbae",
      "vout": 0,
      "prevout": {
        "scriptpubkey": "00146d244d6136739177827d9e63a8d91ad068b7c172",
        "scriptpubkey_asm": "OP_0 OP_PUSHBYTES_20 6d244d6136739177827d9e63a8d91ad068b7c172",
        "scriptpubkey_type": "v0_p2wpkh",
        "scriptpubkey_address": "bc1qd5jy6cfkwwgh0qnane363kg66p5t0stj8wq5sq",
        "value": 498240
      },
      "scriptsig": "",
      "scriptsig_asm": "",
      "witness": [
        "304402202e087d4bfb7bd54cdb59121b858b511a6802f4b313b4312bf33c81795af1a46702203895048fe5142d3e556a9f86464f6602db73b698c0419655ec55de1d265ff9c801",
        "036440a7f732934f306ad2f18169e8e74b2aa462f3dd78b5de35571277f18defbd"
      ],
      "is_coinbase": false,
      "sequence": 0
    }
  ],
  "vout": [
    {
      "scriptpubkey": "a91483fcd3a831a9d86df011a6040ece5891f9f89b4c87",
      "scriptpubkey_asm": "OP_HASH160 OP_PUSHBYTES_20 83fcd3a831a9d86df011a6040ece5891f9f89b4c OP_EQUAL",
      "scriptpubkey_type": "p2sh",
      "scriptpubkey_address": "3DiuKPNZzzmJ8tJ7w8gJjWiWwgQUCZGV9E",
      "value": 100000
    },
    {
      "scriptpubkey": "00146b18cfb092d3499630636f90e9bb83ee671e0321",
      "scriptpubkey_asm": "OP_0 OP_PUSHBYTES_20 6b18cfb092d3499630636f90e9bb83ee671e0321",
      "scriptpubkey_type": "v0_p2wpkh",
      "scriptpubkey_address": "bc1qdvvvlvyj6dyevvrrd7gwnwuraen3uqepc2x4cf",
      "value": 395693
    }
  ],
  "size": 223,
  "weight": 565,
  "fee": 2547,
  "status": {
    "confirmed": true,
    "block_height": 834638,
    "block_hash": "000000000000000000025f742c626208ac87e0b7d15054abb4a19ca2d735a54e",
    "block_time": 1710405325
  },
  "hex": "02000000000101aecbeb6e57845c597945ee069543acd44e3a59ccc13ddfa8139c793c2d114ac800000000000000000002a08601000000000017a91483fcd3a831a9d86df011a6040ece5891f9f89b4c87ad090600000000001600146b18cfb092d3499630636f90e9bb83ee671e03210247304402202e087d4bfb7bd54cdb59121b858b511a6802f4b313b4312bf33c81795af1a46702203895048fe5142d3e556a9f86464f6602db73b698c0419655ec55de1d265ff9c80121036440a7f732934f306ad2f18169e8e74b2aa462f3dd78b5de35571277f18defbd00000000"
}