{
  "txid": "dbae38b074978923eb63cb4f1cb234c5b4d32562d4ddf1c6b54d74609d51a9c0",
  "version": 2,
  "locktime": 0,
  "vin": [
    {
      "txid": "ef4fa640775fbd86fe21d20987c59ad29690ff46053ca6e3a8a080f9bf6f9d24",
      "vout": 67,
      "prevout": {
        "scriptpubkey": "0014a5d2be3aa7f5b933a16f354496a4bff6ad646e89",
        "scriptpubkey_asm": "OP_0 OP_PUSHBYTES_20 a5d2be3aa7f5b933a16f354496a4bff6ad646e89",
        "scriptpubkey_type": "v0_p2wpkh",
        "scriptpubkey_address": "bc1q5hftuw487kun8gt0x4zfdf9l76kkgm5fs37vlf",
        "value": 733937
      },
      "scriptsig": "",
      "scriptsig_asm": "",
      "witness": [
        "3045022100b21fed8e5695a5835b964ed40c8ce08792cf81f05049e2c424224d66f69a10ee02203ce1081e3ed62713720c551af28d40f4e01f552df848cb148da3437938d475ee01",
        "03dff4c9206e3b20f59731e0c0121cde19dcf696d082adff2c6b55197310e5cd50"
      ],
      "is_coinbase": false,
      "sequence": 4294967295
    }
  ],
  "vout": [
    {
      "scriptpubkey": "76a914c1eb21bf08b40ce6f34f217fdb1133dcd0fff25088ac",
      "scriptpubkey_asm": "OP_DUP OP_HASH160 OP_PUSHBYTES_20 c1eb21bf08b40ce6f34f217fdb1133dcd0fff250 OP_EQUALVERIFY OP_CHECKSIG",
      "scriptpubkey_type": "p2pkh",
      "scriptpubkey_address": "1JgM6GadnAP9WCbQnawc36ALuK5DXGK8A4",
      "value": 732399
    }
  ],
  "size": 195,
  "weight": 450,
  "fee": 1538,
  "status": {
    "confirmed": true,
    "block_height": 834460,
    "block_hash": "00000000000000000000484a79b643b2524bbce82e5d8a442013fa5b8905ed98",
    "block_time": 1710307468
  },
  "hex": "02000000000101249d6fbff980a0a8e3a63c0546ff9096d29ac58709d221fe86bd5f7740a64fef4300000000ffffffff01ef2c0b00000000001976a914c1eb21bf08b40ce6f34f217fdb1133dcd0fff25088ac02483045022100b21fed8e5695a5835b964ed40c8ce08792cf81f05049e2c424224d66f69a10ee02203ce1081e3ed62713720c551af28d40f4e01f552df848cb148da3437938d475ee012103dff4c9206e3b20f59731e0c0121cde19dcf696d082adff2c6b55197310e5cd5000000000"
}