{
  "txid": "dbb5c004fe3f8eb7f720e61cc82caa08a4821cb8049393b893bcc1208223f29c",
  "version": 2,
  "locktime": 0,
  "vin": [
    {
      "txid": "d5a2dd223629d1a5182146d42e22220c7274cb6afe9513476d28fc66f9610700",
      "vout": 0,
      "prevout": {
        "scriptpubkey": "5120ce1039e86ac13577cd4326765ba3200b544396098351b2e80f43249242f1df4b",
        "scriptpubkey_asm": "OP_PUSHNUM_1 OP_PUSHBYTES_32 ce1039e86ac13577cd4326765ba3200b544396098351b2e80f43249242f1df4b",
        "scriptpubkey_type": "v1_p2tr",
        "scriptpubkey_address": "bc1pecgrn6r2cy6h0n2ryem9hgeqpd2y89sfsdgm96q0gvjfysh3ma9s5qk0xg",
        "value": 546
      },
      "scriptsig": "",
      "scriptsig_asm": "",
      "witness": [
        "779dd48e91567e84da2ae2da18b4ce2d3bc1c8feca3307f9b6650b72b4cfa6c85900ba30a45d35241c33f5cac7753bea36ed363767c1773b307a3f932df79c02"
      ],
      "is_coinbase": false,
      "sequence": 4294967295
    },
    {
      "txid": "1a97f0177725681077c7e48145c0864c276e44d23abb79fd289f5ba6d489ff52",
      "vout": 1,
      "prevout": {
        "scriptpubkey": "5120ce1039e86ac13577cd4326765ba3200b544396098351b2e80f43249242f1df4b",
        "scriptpubkey_asm": "OP_PUSHNUM_1 OP_PUSHBYTES_32 ce1039e86ac13577cd4326765ba3200b544396098351b2e80f43249242f1df4b",
        "scriptpubkey_type": "v1_p2tr",
        "scriptpubkey_address": "bc1pecgrn6r2cy6h0n2ryem9hgeqpd2y89sfsdgm96q0gvjfysh3ma9s5qk0xg",
        "value": 23481
      },
      "scriptsig": "",
      "scriptsig_asm": "",
      "witness": [
        "90602d784d00d4c97aa51cfdcc2b520a79e710048f40b4278bb252d8beb972323b68a8df66f1448936189f75bdc4d3d1d970b836a059080378f2977ef30fe55d"
      ],
      "is_coinbase": false,
      "sequence": 4294967295
    }
  ],
  "vout": [
    {
      "scriptpubkey": "5120c6f5906d6cbcfae4ac26842ca026ea355964a79071dce5d9f0872b402cdf4904",
      "scriptpubkey_asm": "OP_PUSHNUM_1 OP_PUSHBYTES_32 c6f5906d6cbcfae4ac26842ca026ea355964a79071dce5d9f0872b402cdf4904",
      "scriptpubkey_type": "v1_p2tr",
      "scriptpubkey_address": "bc1pcm6eqmtvhnawftpxssk2qfh2x4vkffusw8wwtk0ssu45qtxlfyzq9n34r6",
      "value": 546
    },
    {
      "scriptpubkey": "5120ce1039e86ac13577cd4326765ba3200b544396098351b2e80f43249242f1df4b",
      "scriptpubkey_asm": "OP_PUSHNUM_1 OP_PUSHBYTES_32 ce1039e86ac13577cd4326765ba3200b544396098351b2e80f43249242f1df4b",
      "scriptpubkey_type": "v1_p2tr",
      "scriptpubkey_address": "bc1pecgrn6r2cy6h0n2ryem9hgeqpd2y89sfsdgm96q0gvjfysh3ma9s5qk0xg",
      "value": 20725
    }
  ],
  "size": 312,
  "weight": 846,
  "fee": 2756,
  "status": {
    "confirmed": true,
    "block_height": 834464,
    "block_hash": "0000000000000000000177a0869a911a2b65c9bdcd5a8bcb02b68f305bee848e",
    "block_time": 1710308296
  },
  "hex": "02000000000102000761f966fc286d471395fe6acb74720c22222ed4462118a5d1293622dda2d50000000000ffffffff52ff89d4a65b9f28fd79bb3ad2446e274c86c04581e4c7771068257717f0971a0100000000ffffffff022202000000000000225120c6f5906d6cbcfae4ac26842ca026ea355964a79071dce5d9f0872b402cdf4904f550000000000000225120ce1039e86ac13577cd4326765ba3200b544396098351b2e80f43249242f1df4b0140779dd48e91567e84da2ae2da18b4ce2d3bc1c8feca3307f9b6650b72b4cfa6c85900ba30a45d35241c33f5cac7753bea36ed363767c1773b307a3f932df79c02014090602d784d00d4c97aa51cfdcc2b520a79e710048f40b4278bb252d8beb972323b68a8df66f1448936189f75bdc4d3d1d970b836a059080378f2977ef30fe55d00000000"
}