{
  "txid": "dbb9134b15077990e3b4fcee8555428bfc2f078883e6ddb501efcca6a7af9dfe",
  "version": 1,
  "locktime": 0,
  "vin": [
    {
      "txid": "341cf1e5ecab1d83b09b15d0cf26b102690228a4a1603b8dd1bf0d9cac38acec",
      "vout": 22,
      "prevout": {
        "scriptpubkey": "76a914443cd28c934f76be190375028db6e6a458cbd73088ac",
        "scriptpubkey_asm": "OP_DUP OP_HASH160 OP_PUSHBYTES_20 443cd28c934f76be190375028db6e6a458cbd730 OP_EQUALVERIFY OP_CHECKSIG",
        "scriptpubkey_type": "p2pkh",
        "scriptpubkey_address": "17Dop4ecDrjKobsiXyehprE5Viq5S1NAcR",
        "value": 560518
      },
      "scriptsig": "473044022100cd8dd65b705d4f1e661368cb9ebcf29a4a1b6570317e36b3df1410546157e47a021f1259e48ec9e428a4c42855f65c08ef616af46d24d092a2b3bf619491749f64012103d1e0cf8fbda6a89165c3335df09af19f004957a4ef9966fb4c7bc86e3c8dba02",
      "scriptsig_asm": "OP_PUSHBYTES_71 3044022100cd8dd65b705d4f1e661368cb9ebcf29a4a1b6570317e36b3df1410546157e47a021f1259e48ec9e428a4c42855f65c08ef616af46d24d092a2b3bf619491749f6401 OP_PUSHBYTES_33 03d1e0cf8fbda6a89165c3335df09af19f004957a4ef9966fb4c7bc86e3c8dba02",
      "is_coinbase": false,
      "sequence": 4294967295
    }
  ],
  "vout": [
    {
      "scriptpubkey": "76a9149ab779dd445086b68adb287b87861edf65cb26a788ac",
      "scriptpubkey_asm": "OP_DUP OP_HASH160 OP_PUSHBYTES_20 9ab779dd445086b68adb287b87861edf65cb26a7 OP_EQUALVERIFY OP_CHECKSIG",
      "scriptpubkey_type": "p2pkh",
      "scriptpubkey_address": "1F74rgSuKiaYszgRfYECP7SbS6RnhpU3kE",
      "value": 517636
    },
    {
      "scriptpubkey": "76a914cd7d1a9ca7c16480f1a3b4abe1ca99ad236f7d6d88ac",
      "scriptpubkey_asm": "OP_DUP OP_HASH160 OP_PUSHBYTES_20 cd7d1a9ca7c16480f1a3b4abe1ca99ad236f7d6d OP_EQUALVERIFY OP_CHECKSIG",
      "scriptpubkey_type": "p2pkh",
      "scriptpubkey_address": "1KjXPhchtTSHv23LhkZY2pAMZZqmVbJ4JB",
      "value": 34520
    }
  ],
  "size": 225,
  "weight": 900,
  "fee": 8362,
  "status": {
    "confirmed": true,
    "block_height": 834638,
    "block_hash": "000000000000000000025f742c626208ac87e0b7d15054abb4a19ca2d735a54e",
    "block_time": 1710405325
  },
  "hex": "0100000001ecac38ac9c0dbfd18d3b60a1a428026902b126cfd0159bb0831dabece5f11c34160000006a473044022100cd8dd65b705d4f1e661368cb9ebcf29a4a1b6570317e36b3df1410546157e47a021f1259e48ec9e428a4c42855f65c08ef616af46d24d092a2b3bf619491749f64012103d1e0cf8fbda6a89165c3335df09af19f004957a4ef9966fb4c7bc86e3c8dba02ffffffff0204e60700000000001976a9149ab779dd445086b68adb287b87861edf65cb26a788acd8860000000000001976a914cd7d1a9ca7c16480f1a3b4abe1ca99ad236f7d6d88ac00000000"
}