{
  "txid": "dbc6a1267a0b9c54b1aa36eae5a2d13f965b7a948d1d61fc2c40803b862bc1d6",
  "version": 2,
  "locktime": 0,
  "vin": [
    {
      "txid": "4ba95d6d9e1fc0f15a001d9d6f86984c83f8699ab476188072f55313aad75218",
      "vout": 0,
      "prevout": {
        "scriptpubkey": "5120ad2f454063c07edc0f20890ac09e93c284f3adf33ab068d2de3fb64d82478d37",
        "scriptpubkey_asm": "OP_PUSHNUM_1 OP_PUSHBYTES_32 ad2f454063c07edc0f20890ac09e93c284f3adf33ab068d2de3fb64d82478d37",
        "scriptpubkey_type": "v1_p2tr",
        "scriptpubkey_address": "bc1p45h52srrcpldcreq3y9vp85nc2z08t0n82cx35k787mymqj835mskywupp",
        "value": 546
      },
      "scriptsig": "",
      "scriptsig_asm": "",
      "witness": [
        "83e8d927eedc205023484da24f850648f05edbf6001f4364a18cebab69a2e43f883eb41b5ae1ac2b7cd3e28c381a490a5fe21e2c78968e16c6a1a6619afdd439"
      ],
      "is_coinbase": false,
      "sequence": 2147483649
    },
    {
      "txid": "3954f16558412d0f1b3af758a05a9f7833d015fa2f1de840ce6ac687be5879a1",
      "vout": 1,
      "prevout": {
        "scriptpubkey": "5120ad2f454063c07edc0f20890ac09e93c284f3adf33ab068d2de3fb64d82478d37",
        "scriptpubkey_asm": "OP_PUSHNUM_1 OP_PUSHBYTES_32 ad2f454063c07edc0f20890ac09e93c284f3adf33ab068d2de3fb64d82478d37",
        "scriptpubkey_type": "v1_p2tr",
        "scriptpubkey_address": "bc1p45h52srrcpldcreq3y9vp85nc2z08t0n82cx35k787mymqj835mskywupp",
        "value": 265462
      },
      "scriptsig": "",
      "scriptsig_asm": "",
      "witness": [
        "d7ca550e6f38ad63f87b59fbd61f65e900f6edf42a405bbd028e69b8a9de638a1f47c44240480bbcb7cf8042a24fb178fd49381545cdee86304f6935aaef91c8"
      ],
      "is_coinbase": false,
      "sequence": 2147483649
    }
  ],
  "vout": [
    {
      "scriptpubkey": "00143eb5068901e5b6fbbca79416d3968f38962f87f9",
      "scriptpubkey_asm": "OP_0 OP_PUSHBYTES_20 3eb5068901e5b6fbbca79416d3968f38962f87f9",
      "scriptpubkey_type": "v0_p2wpkh",
      "scriptpubkey_address": "bc1q866sdzgpukm0h098jstd89508ztzlple0lh0w4",
      "value": 546
    },
    {
      "scriptpubkey": "5120ad2f454063c07edc0f20890ac09e93c284f3adf33ab068d2de3fb64d82478d37",
      "scriptpubkey_asm": "OP_PUSHNUM_1 OP_PUSHBYTES_32 ad2f454063c07edc0f20890ac09e93c284f3adf33ab068d2de3fb64d82478d37",
      "scriptpubkey_type": "v1_p2tr",
      "scriptpubkey_address": "bc1p45h52srrcpldcreq3y9vp85nc2z08t0n82cx35k787mymqj835mskywupp",
      "value": 262278
    }
  ],
  "size": 300,
  "weight": 798,
  "fee": 3184,
  "status": {
    "confirmed": true,
    "block_height": 834638,
    "block_hash": "000000000000000000025f742c626208ac87e0b7d15054abb4a19ca2d735a54e",
    "block_time": 1710405325
  },
  "hex": "020000000001021852d7aa1353f572801876b49a69f8834c98866f9d1d005af1c01f9e6d5da94b000000000001000080a17958be87c66ace40e81d2ffa15d033789f5aa058f73a1b0f2d415865f154390100000000010000800222020000000000001600143eb5068901e5b6fbbca79416d3968f38962f87f98600040000000000225120ad2f454063c07edc0f20890ac09e93c284f3adf33ab068d2de3fb64d82478d37014083e8d927eedc205023484da24f850648f05edbf6001f4364a18cebab69a2e43f883eb41b5ae1ac2b7cd3e28c381a490a5fe21e2c78968e16c6a1a6619afdd4390140d7ca550e6f38ad63f87b59fbd61f65e900f6edf42a405bbd028e69b8a9de638a1f47c44240480bbcb7cf8042a24fb178fd49381545cdee86304f6935aaef91c800000000"
}