{
  "txid": "dbc8a49e7c149d4993d5dd89b58723a69c6fa9ac8a7e53133cc43ffb999edfce",
  "version": 2,
  "locktime": 0,
  "vin": [
    {
      "txid": "47b0996ee430e3208b6c12afbcbcca5dbbe497c2792f3e2dd0d0ab2e4ec653ae",
      "vout": 1,
      "prevout": {
        "scriptpubkey": "001493d5a75d94911ee96a17c930b604a9af41c3ebb5",
        "scriptpubkey_asm": "OP_0 OP_PUSHBYTES_20 93d5a75d94911ee96a17c930b604a9af41c3ebb5",
        "scriptpubkey_type": "v0_p2wpkh",
        "scriptpubkey_address": "bc1qj026whv5jy0wj6sheyctvp9f4aqu86a43uzkds",
        "value": 36535
      },
      "scriptsig": "",
      "scriptsig_asm": "",
      "witness": [
        "304402203d70ca126c7b924ebd48802f38e1b71d05daba636f3fe74526b7642382cb5f360220684c210405687dc2fd5991b2ab22ef58a7e148b7a3e75f08a9dea152f15c01bc01",
        "02fc9362de056edcd6301640075dee9a1abb0d9bb2226fb11c3e93483e55fb4adb"
      ],
      "is_coinbase": false,
      "sequence": 4294967295
    }
  ],
  "vout": [
    {
      "scriptpubkey": "00145af9ef83e0470739f94eff9b383c9ff94484f396",
      "scriptpubkey_asm": "OP_0 OP_PUSHBYTES_20 5af9ef83e0470739f94eff9b383c9ff94484f396",
      "scriptpubkey_type": "v0_p2wpkh",
      "scriptpubkey_address": "bc1qttu7lqlqgurnn72wl7dns0yll9zgfuuku0xh0v",
      "value": 30734
    },
    {
      "scriptpubkey": "0014018b226edc1292c4abb885864eeb70fe34c5da4c",
      "scriptpubkey_asm": "OP_0 OP_PUSHBYTES_20 018b226edc1292c4abb885864eeb70fe34c5da4c",
      "scriptpubkey_type": "v0_p2wpkh",
      "scriptpubkey_address": "bc1qqx9jymkuz2fvf2acskrya6mslc6vtkjvyx7zge",
      "value": 4278
    }
  ],
  "size": 222,
  "weight": 561,
  "fee": 1523,
  "status": {
    "confirmed": true,
    "block_height": 834464,
    "block_hash": "0000000000000000000177a0869a911a2b65c9bdcd5a8bcb02b68f305bee848e",
    "block_time": 1710308296
  },
  "hex": "02000000000101ae53c64e2eabd0d02d3e2f79c297e4bb5dcabcbcaf126c8b20e330e46e99b0470100000000ffffffff020e780000000000001600145af9ef83e0470739f94eff9b383c9ff94484f396b610000000000000160014018b226edc1292c4abb885864eeb70fe34c5da4c0247304402203d70ca126c7b924ebd48802f38e1b71d05daba636f3fe74526b7642382cb5f360220684c210405687dc2fd5991b2ab22ef58a7e148b7a3e75f08a9dea152f15c01bc012102fc9362de056edcd6301640075dee9a1abb0d9bb2226fb11c3e93483e55fb4adb00000000"
}