{
  "txid": "dbd6b45b36e558be4df6b7d676d6ec0fab51bcba0aa85a6eb8743575888c0f71",
  "version": 2,
  "locktime": 0,
  "vin": [
    {
      "txid": "acc3ba00869acb582a3f2904ce3a11dd3779350ce234063fc7d0959246213364",
      "vout": 164,
      "prevout": {
        "scriptpubkey": "5120cd3bd2d3bc3fdf266721e16b528cb65615c30a27ce6553bb83a5f165a8b8261d",
        "scriptpubkey_asm": "OP_PUSHNUM_1 OP_PUSHBYTES_32 cd3bd2d3bc3fdf266721e16b528cb65615c30a27ce6553bb83a5f165a8b8261d",
        "scriptpubkey_type": "v1_p2tr",
        "scriptpubkey_address": "bc1pe5aa95au8l0jveepu9449r9k2c2uxz38eej48wur5hckt29cycws475xgf",
        "value": 1806
      },
      "scriptsig": "",
      "scriptsig_asm": "",
      "witness": [
        "ee7fb252031823fef031e0488a8a1ea8b73969cd427e95f7fe3abed2682183e41bcf096ba5a981fa1eec6a6777c60096c689bf55a2cf75b2d4ebde4ce1551682",
        "202549a20101d3cfcce29fa897bc967e61c4df7f668c2be8aa9958ca4fd4174e96ac0063036f726401010a746578742f706c61696e00357b2270223a226272632d3230222c226f70223a226d696e74222c227469636b223a22646f6765222c22616d74223a2234323030227d68",
        "c02549a20101d3cfcce29fa897bc967e61c4df7f668c2be8aa9958ca4fd4174e96"
      ],
      "is_coinbase": false,
      "sequence": 4261412863
    }
  ],
  "vout": [
    {
      "scriptpubkey": "00147a665de7a370f4c9b372ab1fae587500a5bcbdb4",
      "scriptpubkey_asm": "OP_0 OP_PUSHBYTES_20 7a665de7a370f4c9b372ab1fae587500a5bcbdb4",
      "scriptpubkey_type": "v0_p2wpkh",
      "scriptpubkey_address": "bc1q0fn9mearwr6vnvmj4v06ukr4qzjme0d565dzcx",
      "value": 294
    }
  ],
  "size": 294,
  "weight": 540,
  "fee": 1512,
  "status": {
    "confirmed": true,
    "block_height": 834460,
    "block_hash": "00000000000000000000484a79b643b2524bbce82e5d8a442013fa5b8905ed98",
    "block_time": 1710307468
  },
  "hex": "02000000000101643321469295d0c73f0634e20c357937dd113ace04293f2a58cb9a8600bac3aca400000000fffffffd0126010000000000001600147a665de7a370f4c9b372ab1fae587500a5bcbdb40340ee7fb252031823fef031e0488a8a1ea8b73969cd427e95f7fe3abed2682183e41bcf096ba5a981fa1eec6a6777c60096c689bf55a2cf75b2d4ebde4ce15516826d202549a20101d3cfcce29fa897bc967e61c4df7f668c2be8aa9958ca4fd4174e96ac0063036f726401010a746578742f706c61696e00357b2270223a226272632d3230222c226f70223a226d696e74222c227469636b223a22646f6765222c22616d74223a2234323030227d6821c02549a20101d3cfcce29fa897bc967e61c4df7f668c2be8aa9958ca4fd4174e9600000000"
}