{
  "txid": "dbfc078e49a3d0fffb8f5c0154d67e61df267083df69800aeef10c7ffa470959",
  "version": 1,
  "locktime": 0,
  "vin": [
    {
      "txid": "b568afacd37385d1677e72dd544773b4066848fa067c3b4c435f143f4b8b5e35",
      "vout": 0,
      "prevout": {
        "scriptpubkey": "51207a76b0f5796d4de61f521225778ab928d84f0caf07fe7bd7c9a55ca31530d194",
        "scriptpubkey_asm": "OP_PUSHNUM_1 OP_PUSHBYTES_32 7a76b0f5796d4de61f521225778ab928d84f0caf07fe7bd7c9a55ca31530d194",
        "scriptpubkey_type": "v1_p2tr",
        "scriptpubkey_address": "bc1p0fmtpated4x7v86jzgjh0z4e9rvy7r90qll8h47f54w2x9fs6x2q5yj3uq",
        "value": 643318
      },
      "scriptsig": "",
      "scriptsig_asm": "",
      "witness": [
        "63652247a3b157044fae01412140cf11c2561ee6775ce6f1cd3fc85b2f299c4944520f7755744aa7d8bd511c8fb72dadac01a579e0f39656692bf38120394b7201"
      ],
      "is_coinbase": false,
      "sequence": 4294967295
    }
  ],
  "vout": [
    {
      "scriptpubkey": "512019505b6c394fc276bdefddccdfa9d2e95e32825fe4c19f9325b284e5ce593ed8",
      "scriptpubkey_asm": "OP_PUSHNUM_1 OP_PUSHBYTES_32 19505b6c394fc276bdefddccdfa9d2e95e32825fe4c19f9325b284e5ce593ed8",
      "scriptpubkey_type": "v1_p2tr",
      "scriptpubkey_address": "bc1pr9g9kmpeflp8d000mhxdl2wja90r9qjlunqelye9k2zwtnje8mvq9enejw",
      "value": 472837
    },
    {
      "scriptpubkey": "0014e7ddc33eb7c1d004c6e9c2c92d978f693422af6e",
      "scriptpubkey_asm": "OP_0 OP_PUSHBYTES_20 e7ddc33eb7c1d004c6e9c2c92d978f693422af6e",
      "scriptpubkey_type": "v0_p2wpkh",
      "scriptpubkey_address": "bc1qulwux04hc8gqf3hfctyjm9u0dy6z9tmwmkvals",
      "value": 166444
    }
  ],
  "size": 194,
  "weight": 569,
  "fee": 4037,
  "status": {
    "confirmed": true,
    "block_height": 834460,
    "block_hash": "00000000000000000000484a79b643b2524bbce82e5d8a442013fa5b8905ed98",
    "block_time": 1710307468
  },
  "hex": "01000000000101355e8b4b3f145f434c3b7c06fa486806b4734754dd727e67d18573d3acaf68b50000000000ffffffff02053707000000000022512019505b6c394fc276bdefddccdfa9d2e95e32825fe4c19f9325b284e5ce593ed82c8a020000000000160014e7ddc33eb7c1d004c6e9c2c92d978f693422af6e014163652247a3b157044fae01412140cf11c2561ee6775ce6f1cd3fc85b2f299c4944520f7755744aa7d8bd511c8fb72dadac01a579e0f39656692bf38120394b720100000000"
}