{
  "txid": "dc1dfc01351ddad66b748a5d14273830045dd98f5da8ea31519bde3cd64a9e58",
  "version": 1,
  "locktime": 0,
  "vin": [
    {
      "txid": "d3561b4d6c8c3a1f379cd9d49e41a6ba2375732efb87b85279e0cbca74ab18ba",
      "vout": 1,
      "prevout": {
        "scriptpubkey": "51206df39d2d283f2a2cfc4d69ebe645abaa0acf4483965814faefd09205fb8ae05f",
        "scriptpubkey_asm": "OP_PUSHNUM_1 OP_PUSHBYTES_32 6df39d2d283f2a2cfc4d69ebe645abaa0acf4483965814faefd09205fb8ae05f",
        "scriptpubkey_type": "v1_p2tr",
        "scriptpubkey_address": "bc1pdhee6tfg8u4zelzdd847v3dt4g9v73yrjevpf7h06zfqt7u2up0svkchf8",
        "value": 1550875
      },
      "scriptsig": "",
      "scriptsig_asm": "",
      "witness": [
        "878df2aaa72c2100751cf0e607ba52428eff42e0b8d5cc1072c14507267c78ac402a4399fb503935e3734353a486abef864de1505a3ee2cecb1a4a859db60997"
      ],
      "is_coinbase": false,
      "sequence": 4294967293
    }
  ],
  "vout": [
    {
      "scriptpubkey": "51206f872a5d9afc2029f6f15b9a12158318715bddfff741f9bd00389169d53f962d",
      "scriptpubkey_asm": "OP_PUSHNUM_1 OP_PUSHBYTES_32 6f872a5d9afc2029f6f15b9a12158318715bddfff741f9bd00389169d53f962d",
      "scriptpubkey_type": "v1_p2tr",
      "scriptpubkey_address": "bc1pd7rj5hv6lssznah3twdpy9vrrpc4hh0l7aqln0gq8zgkn4fljcksfxqxpz",
      "value": 12703
    },
    {
      "scriptpubkey": "5120b2d9db4cd72ced11f9c8d49f93e2c14577d1532899feed74e2aa835c72e5d15d",
      "scriptpubkey_asm": "OP_PUSHNUM_1 OP_PUSHBYTES_32 b2d9db4cd72ced11f9c8d49f93e2c14577d1532899feed74e2aa835c72e5d15d",
      "scriptpubkey_type": "v1_p2tr",
      "scriptpubkey_address": "bc1pktvaknxh9nk3r7wg6j0e8ckpg4maz5egn8lw6a8z42p4cuh969ws6w8ja4",
      "value": 1535554
    }
  ],
  "size": 205,
  "weight": 616,
  "fee": 2618,
  "status": {
    "confirmed": true,
    "block_height": 834638,
    "block_hash": "000000000000000000025f742c626208ac87e0b7d15054abb4a19ca2d735a54e",
    "block_time": 1710405325
  },
  "hex": "01000000000101ba18ab74cacbe07952b887fb2e737523baa6419ed4d99c371f3a8c6c4d1b56d30100000000fdffffff029f310000000000002251206f872a5d9afc2029f6f15b9a12158318715bddfff741f9bd00389169d53f962d426e170000000000225120b2d9db4cd72ced11f9c8d49f93e2c14577d1532899feed74e2aa835c72e5d15d0140878df2aaa72c2100751cf0e607ba52428eff42e0b8d5cc1072c14507267c78ac402a4399fb503935e3734353a486abef864de1505a3ee2cecb1a4a859db6099700000000"
}