{
  "txid": "dc5ab4ea3cf0dc8b9d4f0e5a9d72eea4c94e4296162141cd74d1e4f38673624a",
  "version": 1,
  "locktime": 0,
  "vin": [
    {
      "txid": "cc5010af93f3328375d2a367a8f184e08255a333aaf3e85a6df3055c48f24704",
      "vout": 1,
      "prevout": {
        "scriptpubkey": "0014dfbba7212cee7a2ee354db569be6820c3fae04e6",
        "scriptpubkey_asm": "OP_0 OP_PUSHBYTES_20 dfbba7212cee7a2ee354db569be6820c3fae04e6",
        "scriptpubkey_type": "v0_p2wpkh",
        "scriptpubkey_address": "bc1qm7a6wgfvaeazac65mdtfhe5zpsl6up8xwftljr",
        "value": 270372
      },
      "scriptsig": "",
      "scriptsig_asm": "",
      "witness": [
        "30440220317bbdb1f1ae49e42bd7679b7f1ff86aa19ab53149068c08a9f0098ea8ca31ed022000a6fb8a294c6235e14a931fc2789520f130789f381e1d6ce35f9db13b0134d601",
        "025e593d1c7f6fe869d2d83167c1707147665a9bb27524ffe57dc122cf314b7460"
      ],
      "is_coinbase": false,
      "sequence": 4294967295
    },
    {
      "txid": "8702abf25ccd0029b89f27bc2f3335fc2e5e428df47e4415afb30cd3d6ab1156",
      "vout": 71,
      "prevout": {
        "scriptpubkey": "0014dfbba7212cee7a2ee354db569be6820c3fae04e6",
        "scriptpubkey_asm": "OP_0 OP_PUSHBYTES_20 dfbba7212cee7a2ee354db569be6820c3fae04e6",
        "scriptpubkey_type": "v0_p2wpkh",
        "scriptpubkey_address": "bc1qm7a6wgfvaeazac65mdtfhe5zpsl6up8xwftljr",
        "value": 733000
      },
      "scriptsig": "",
      "scriptsig_asm": "",
      "witness": [
        "3045022100861aebfd616baf64376a908789418e5970d8911ae6931eec221a1aca9d531af802203c836d7b898ccd9bcd371e50c0e6060d49bdfa2e9c8f8bfe3eaf1ee92136471101",
        "025e593d1c7f6fe869d2d83167c1707147665a9bb27524ffe57dc122cf314b7460"
      ],
      "is_coinbase": false,
      "sequence": 4294967295
    }
  ],
  "vout": [
    {
      "scriptpubkey": "001450734dcd8f82c8076fa8c21db98bd6a8b62ce484",
      "scriptpubkey_asm": "OP_0 OP_PUSHBYTES_20 50734dcd8f82c8076fa8c21db98bd6a8b62ce484",
      "scriptpubkey_type": "v0_p2wpkh",
      "scriptpubkey_address": "bc1q2pe5mnv0styqwmagcgwmnz7k4zmzeeyy3twev3",
      "value": 998566
    }
  ],
  "size": 340,
  "weight": 709,
  "fee": 4806,
  "status": {
    "confirmed": true,
    "block_height": 834638,
    "block_hash": "000000000000000000025f742c626208ac87e0b7d15054abb4a19ca2d735a54e",
    "block_time": 1710405325
  },
  "hex": "010000000001020447f2485c05f36d5ae8f3aa33a35582e084f1a867a3d2758332f393af1050cc0100000000ffffffff5611abd6d30cb3af15447ef48d425e2efc35332fbc279fb82900cd5cf2ab02874700000000ffffffff01a63c0f000000000016001450734dcd8f82c8076fa8c21db98bd6a8b62ce484024730440220317bbdb1f1ae49e42bd7679b7f1ff86aa19ab53149068c08a9f0098ea8ca31ed022000a6fb8a294c6235e14a931fc2789520f130789f381e1d6ce35f9db13b0134d60121025e593d1c7f6fe869d2d83167c1707147665a9bb27524ffe57dc122cf314b746002483045022100861aebfd616baf64376a908789418e5970d8911ae6931eec221a1aca9d531af802203c836d7b898ccd9bcd371e50c0e6060d49bdfa2e9c8f8bfe3eaf1ee9213647110121025e593d1c7f6fe869d2d83167c1707147665a9bb27524ffe57dc122cf314b746000000000"
}