{
  "txid": "dc5a626c9414c1d79c0071ee763f621e3a9fac9351bb34ac3cec3241fd5c4cc0",
  "version": 1,
  "locktime": 0,
  "vin": [
    {
      "txid": "b2c28382f86d7cbc7a0b31496a8a49343349f238fdda9619d1fd2a26f80b3bfd",
      "vout": 0,
      "prevout": {
        "scriptpubkey": "76a9148b1420cf2eb48662df72ffed5bb1def615ff0c7188ac",
        "scriptpubkey_asm": "OP_DUP OP_HASH160 OP_PUSHBYTES_20 8b1420cf2eb48662df72ffed5bb1def615ff0c71 OP_EQUALVERIFY OP_CHECKSIG",
        "scriptpubkey_type": "p2pkh",
        "scriptpubkey_address": "1DgP3CEG6otV766zp5F7UmPSmTk5MYgUZt",
        "value": 806843
      },
      "scriptsig": "483045022100f234c82fb82725e2d045e79bafebb3997a19cbc3206d64feafee3ae7f45bdf73022078f67b17ea0e2c8e6b3ec868dbef9e3c379450be711b22f54288603ac434cd81012103fd49b8721b80563f6d9aedba1e1326f714684646d85d318cc4cb89395e01c5c2",
      "scriptsig_asm": "OP_PUSHBYTES_72 3045022100f234c82fb82725e2d045e79bafebb3997a19cbc3206d64feafee3ae7f45bdf73022078f67b17ea0e2c8e6b3ec868dbef9e3c379450be711b22f54288603ac434cd8101 OP_PUSHBYTES_33 03fd49b8721b80563f6d9aedba1e1326f714684646d85d318cc4cb89395e01c5c2",
      "is_coinbase": false,
      "sequence": 4294967295
    }
  ],
  "vout": [
    {
      "scriptpubkey": "a914a403f8f920e46dc6b5cc3e795eb872331888cc1f87",
      "scriptpubkey_asm": "OP_HASH160 OP_PUSHBYTES_20 a403f8f920e46dc6b5cc3e795eb872331888cc1f OP_EQUAL",
      "scriptpubkey_type": "p2sh",
      "scriptpubkey_address": "3GeFW2D6NLMdRPd1RNd1UJyA9nHvsMkHCK",
      "value": 541100
    },
    {
      "scriptpubkey": "76a91434d70451ffef3a00e7044df26b196bc6f452286288ac",
      "scriptpubkey_asm": "OP_DUP OP_HASH160 OP_PUSHBYTES_20 34d70451ffef3a00e7044df26b196bc6f4522862 OP_EQUALVERIFY OP_CHECKSIG",
      "scriptpubkey_type": "p2pkh",
      "scriptpubkey_address": "15pPicMsBGntjnG3Y89CM76QnB14Tcypft",
      "value": 261223
    }
  ],
  "size": 224,
  "weight": 896,
  "fee": 4520,
  "status": {
    "confirmed": true,
    "block_height": 834638,
    "block_hash": "000000000000000000025f742c626208ac87e0b7d15054abb4a19ca2d735a54e",
    "block_time": 1710405325
  },
  "hex": "0100000001fd3b0bf8262afdd11996dafd38f2493334498a6a49310b7abc7c6df88283c2b2000000006b483045022100f234c82fb82725e2d045e79bafebb3997a19cbc3206d64feafee3ae7f45bdf73022078f67b17ea0e2c8e6b3ec868dbef9e3c379450be711b22f54288603ac434cd81012103fd49b8721b80563f6d9aedba1e1326f714684646d85d318cc4cb89395e01c5c2ffffffff02ac4108000000000017a914a403f8f920e46dc6b5cc3e795eb872331888cc1f8767fc0300000000001976a91434d70451ffef3a00e7044df26b196bc6f452286288ac00000000"
}