{
  "txid": "dc630a523ddd69bba1395e8ae1e5c5e09b3bb840b732ec77cb58e0a409f723ba",
  "version": 2,
  "locktime": 0,
  "vin": [
    {
      "txid": "c0d75845b1b21b6d6392f8fe8b7c386aa79d78f732df7d5d42dfcafec965d7c1",
      "vout": 3,
      "prevout": {
        "scriptpubkey": "51203be1fb3634add4dc363d58aa5b2cd9af808cdbafa419e252c9bca75580c00e26",
        "scriptpubkey_asm": "OP_PUSHNUM_1 OP_PUSHBYTES_32 3be1fb3634add4dc363d58aa5b2cd9af808cdbafa419e252c9bca75580c00e26",
        "scriptpubkey_type": "v1_p2tr",
        "scriptpubkey_address": "bc1p80slkd354h2dcd3atz49ktxe47qgeka05sv7y5kfhjn4tqxqpcnq9fce3z",
        "value": 4992
      },
      "scriptsig": "",
      "scriptsig_asm": "",
      "witness": [
        "c0cf3194cf07621e28fb8810504276d9cfda2926f2b88fde70875e7fb76bfdb84d1839601196dd821d075eadd52dc1292c511767f3f538bd2540b64fd948c3df",
        "204a461271a8e2b8f4c1a859d200adc30a89fffdf9263aca63040ad373dcf42c33ac0063036f7264010117746578742f68746d6c3b636861727365743d7574662d38004d7f013c21444f43545950452068746d6c3e0a3c68746d6c206c616e673d22656e223e0a20203c686561643e0a202020203c6d65746120636861727365743d225554462d3822202f3e0a202020203c6d657461206e616d653d2276696577706f72742220636f6e74656e743d2277696474683d6465766963652d77696474682c20696e697469616c2d7363616c653d312e3022202f3e0a202020203c7469746c653e6469616465706978616c65733c2f7469746c653e0a20203c2f686561643e0a20203c626f6479207374796c653d226d617267696e3a20307078223e0a202020203c6469763e0a2020202020203c696d67207374796c653d2277696474683a313030253b6d617267696e3a30707822207372633d222f636f6e74656e742f36383162353337336330336533663831393233316166643932323766353431303133393532393963396535383335366264613237386532663332626566326364693022202f3e0a202020203c2f6469763e0a20203c2f626f64793e0a3c2f68746d6c3e68",
        "c14a461271a8e2b8f4c1a859d200adc30a89fffdf9263aca63040ad373dcf42c33"
      ],
      "is_coinbase": false,
      "sequence": 4294967295
    }
  ],
  "vout": [
    {
      "scriptpubkey": "512047e2a5743d404aa89ad423717f01da179416aefe31dafac67cbfd748638f1de0",
      "scriptpubkey_asm": "OP_PUSHNUM_1 OP_PUSHBYTES_32 47e2a5743d404aa89ad423717f01da179416aefe31dafac67cbfd748638f1de0",
      "scriptpubkey_type": "v1_p2tr",
      "scriptpubkey_address": "bc1pgl322apagp923xk5ydch7qw6z72pdth7x8d043nuhlt5scu0rhsq7ql5cq",
      "value": 546
    }
  ],
  "size": 653,
  "weight": 935,
  "fee": 4446,
  "status": {
    "confirmed": true,
    "block_height": 834638,
    "block_hash": "000000000000000000025f742c626208ac87e0b7d15054abb4a19ca2d735a54e",
    "block_time": 1710405325
  },
  "hex": "02000000000101c1d765c9fecadf425d7ddf32f7789da76a387c8bfef892636d1bb2b14558d7c00300000000ffffffff01220200000000000022512047e2a5743d404aa89ad423717f01da179416aefe31dafac67cbfd748638f1de00340c0cf3194cf07621e28fb8810504276d9cfda2926f2b88fde70875e7fb76bfdb84d1839601196dd821d075eadd52dc1292c511767f3f538bd2540b64fd948c3dffdc601204a461271a8e2b8f4c1a859d200adc30a89fffdf9263aca63040ad373dcf42c33ac0063036f7264010117746578742f68746d6c3b636861727365743d7574662d38004d7f013c21444f43545950452068746d6c3e0a3c68746d6c206c616e673d22656e223e0a20203c686561643e0a202020203c6d65746120636861727365743d225554462d3822202f3e0a202020203c6d657461206e616d653d2276696577706f72742220636f6e74656e743d2277696474683d6465766963652d77696474682c20696e697469616c2d7363616c653d312e3022202f3e0a202020203c7469746c653e6469616465706978616c65733c2f7469746c653e0a20203c2f686561643e0a20203c626f6479207374796c653d226d617267696e3a20307078223e0a202020203c6469763e0a2020202020203c696d67207374796c653d2277696474683a313030253b6d617267696e3a30707822207372633d222f636f6e74656e742f36383162353337336330336533663831393233316166643932323766353431303133393532393963396535383335366264613237386532663332626566326364693022202f3e0a202020203c2f6469763e0a20203c2f626f64793e0a3c2f68746d6c3e6821c14a461271a8e2b8f4c1a859d200adc30a89fffdf9263aca63040ad373dcf42c3300000000"
}