{
  "txid": "dc88c021ff75fb9fa6d6bf783262a6f9e48d8701a64958e0ea5c86f5be805731",
  "version": 2,
  "locktime": 834545,
  "vin": [
    {
      "txid": "c08470b4ea2768c431bd00a5e3b9d0a52a8e4c315f1681d698ccf7087e1485d8",
      "vout": 1,
      "prevout": {
        "scriptpubkey": "0014d16241ae2419055c422e4c6496cefaa789dd1e69",
        "scriptpubkey_asm": "OP_0 OP_PUSHBYTES_20 d16241ae2419055c422e4c6496cefaa789dd1e69",
        "scriptpubkey_type": "v0_p2wpkh",
        "scriptpubkey_address": "bc1q693yrt3yryz4cs3wf3jfdnh657ya68nfmsqanc",
        "value": 3999757845
      },
      "scriptsig": "",
      "scriptsig_asm": "",
      "witness": [
        "304402202e9b36679aacd921e01ccd041b8c20aaa0dd43b263e86d331f54216ce50703ad022051dbd0f3e7eb52e8c3eca1aa6ad1472ea1c973d48e0da9aa0f6b4254a3162c1801",
        "037c5ecfce51e64fdf91d4606f86639ef66cc1f914b14e4dfc5c9ee77d30048691"
      ],
      "is_coinbase": false,
      "sequence": 4294967294
    }
  ],
  "vout": [
    {
      "scriptpubkey": "0014af0444e0da702c3c1b823241d626d195ad1db51a",
      "scriptpubkey_asm": "OP_0 OP_PUSHBYTES_20 af0444e0da702c3c1b823241d626d195ad1db51a",
      "scriptpubkey_type": "v0_p2wpkh",
      "scriptpubkey_address": "bc1q4uzyfcx6wqkrcxuzxfqavfk3jkk3mdg6l7udyd",
      "value": 34942353
    },
    {
      "scriptpubkey": "001419d5b39b934902ce6478cdfaf4412d0770ec7c53",
      "scriptpubkey_asm": "OP_0 OP_PUSHBYTES_20 19d5b39b934902ce6478cdfaf4412d0770ec7c53",
      "scriptpubkey_type": "v0_p2wpkh",
      "scriptpubkey_address": "bc1qr82m8xunfypvuerceha0gsfdqacwclznp8vydu",
      "value": 3964811686
    }
  ],
  "size": 222,
  "weight": 561,
  "fee": 3806,
  "status": {
    "confirmed": true,
    "block_height": 834638,
    "block_hash": "000000000000000000025f742c626208ac87e0b7d15054abb4a19ca2d735a54e",
    "block_time": 1710405325
  },
  "hex": "02000000000101d885147e08f7cc98d681165f314c8e2aa5d0b9e3a500bd31c46827eab47084c00100000000feffffff02912d150200000000160014af0444e0da702c3c1b823241d626d195ad1db51aa63952ec0000000016001419d5b39b934902ce6478cdfaf4412d0770ec7c530247304402202e9b36679aacd921e01ccd041b8c20aaa0dd43b263e86d331f54216ce50703ad022051dbd0f3e7eb52e8c3eca1aa6ad1472ea1c973d48e0da9aa0f6b4254a3162c180121037c5ecfce51e64fdf91d4606f86639ef66cc1f914b14e4dfc5c9ee77d30048691f1bb0c00"
}