{
  "txid": "dc9cecaac87ac628023484b4b73f96d8e54e41673f29329c36dee7b5097f2377",
  "version": 2,
  "locktime": 0,
  "vin": [
    {
      "txid": "60a68f2b83632dcc4117fb186a2186cda35b5121fb2ca110a7474369528ba8da",
      "vout": 0,
      "prevout": {
        "scriptpubkey": "5120d26f8f09d1432263d841e21690a712d3dde0cf00d3922f22146fa7e19d8b1621",
        "scriptpubkey_asm": "OP_PUSHNUM_1 OP_PUSHBYTES_32 d26f8f09d1432263d841e21690a712d3dde0cf00d3922f22146fa7e19d8b1621",
        "scriptpubkey_type": "v1_p2tr",
        "scriptpubkey_address": "bc1p6fhc7zw3gv3x8kzpugtfpfcj60w7pncq6wfz7gs5d7n7r8vtzcss9l3lq7",
        "value": 2826
      },
      "scriptsig": "",
      "scriptsig_asm": "",
      "witness": [
        "82c7bb137fc14bd6394636b1bf44c3c2deff8f2007e81169d6f4fd683903bca77749ffb3e65740fd84f4726025071ddb4f9577285706221923d1ff13156be039",
        "20029c99c9f5a0352861c9b5df8c64432433144d2f7dc8a35dae7026a8c8269813ac0063036f7264010118746578742f706c61696e3b636861727365743d7574662d3800397b2270223a226272632d3230222c226f70223a227472616e73666572222c227469636b223a2253484e54222c22616d74223a2232303030227d68",
        "c0029c99c9f5a0352861c9b5df8c64432433144d2f7dc8a35dae7026a8c8269813"
      ],
      "is_coinbase": false,
      "sequence": 4294967293
    }
  ],
  "vout": [
    {
      "scriptpubkey": "5120956aa6041a70bf8fa9bc14cda4590b422408f09ae06d46e915d3dda63895ffb7",
      "scriptpubkey_asm": "OP_PUSHNUM_1 OP_PUSHBYTES_32 956aa6041a70bf8fa9bc14cda4590b422408f09ae06d46e915d3dda63895ffb7",
      "scriptpubkey_type": "v1_p2tr",
      "scriptpubkey_address": "bc1pj442vpq6wzlcl2duznx6gkgtggjq3uy6upk5d6g460w6vwy4l7mssdpqtf",
      "value": 546
    }
  ],
  "size": 324,
  "weight": 606,
  "fee": 2280,
  "status": {
    "confirmed": true,
    "block_height": 834638,
    "block_hash": "000000000000000000025f742c626208ac87e0b7d15054abb4a19ca2d735a54e",
    "block_time": 1710405325
  },
  "hex": "02000000000101daa88b52694347a710a12cfb21515ba3cd86216a18fb1741cc2d63832b8fa6600000000000fdffffff012202000000000000225120956aa6041a70bf8fa9bc14cda4590b422408f09ae06d46e915d3dda63895ffb7034082c7bb137fc14bd6394636b1bf44c3c2deff8f2007e81169d6f4fd683903bca77749ffb3e65740fd84f4726025071ddb4f9577285706221923d1ff13156be0397f20029c99c9f5a0352861c9b5df8c64432433144d2f7dc8a35dae7026a8c8269813ac0063036f7264010118746578742f706c61696e3b636861727365743d7574662d3800397b2270223a226272632d3230222c226f70223a227472616e73666572222c227469636b223a2253484e54222c22616d74223a2232303030227d6821c0029c99c9f5a0352861c9b5df8c64432433144d2f7dc8a35dae7026a8c826981300000000"
}