{
  "txid": "dca16444e7da02aacf3931ebf9a4ebc11a3ba8949cb89f8649db794863a18053",
  "version": 1,
  "locktime": 0,
  "vin": [
    {
      "txid": "124010631ee140a18ee696cc60b52858757689b37c282338c9df8ac97c7c52bd",
      "vout": 0,
      "prevout": {
        "scriptpubkey": "51203a7b7153bc94e2f87b21ccfcd063c9d3e53c99429b59b3793c3a4d03475419a3",
        "scriptpubkey_asm": "OP_PUSHNUM_1 OP_PUSHBYTES_32 3a7b7153bc94e2f87b21ccfcd063c9d3e53c99429b59b3793c3a4d03475419a3",
        "scriptpubkey_type": "v1_p2tr",
        "scriptpubkey_address": "bc1p8fahz5aujn30s7epen7dqc7f60jnex2zndvmx7fu8fxsx365rx3sut0yge",
        "value": 2889
      },
      "scriptsig": "",
      "scriptsig_asm": "",
      "witness": [
        "c79fd5244e47dc6a8c342db1aec730dae594e4f3d9c6a652acb3280f70e1a48a934f5d0ad9ee517269308f7ba9143de7004a7f7859bf3f3bceb639363b5f92f0",
        "20dfa7325ed77fab28d796d113dcead29a7490c58aaa244f71cf02d52f6b761081ac00630461746f6d03646d7437a16461726773a46474696d651a65ee4d1c656e6f6e63650068626974776f726b6364313234306b6d696e745f7469636b657264766d707868",
        "c0dfa7325ed77fab28d796d113dcead29a7490c58aaa244f71cf02d52f6b761081"
      ],
      "is_coinbase": false,
      "sequence": 0
    }
  ],
  "vout": [
    {
      "scriptpubkey": "5120a1e3352d215c371d7181ba45cba88085be161f72f0fb432c6eb5c59fa438eb97",
      "scriptpubkey_asm": "OP_PUSHNUM_1 OP_PUSHBYTES_32 a1e3352d215c371d7181ba45cba88085be161f72f0fb432c6eb5c59fa438eb97",
      "scriptpubkey_type": "v1_p2tr",
      "scriptpubkey_address": "bc1p583n2tfptsm36uvphfzuh2yqsklpv8mj7ra5xtrwkhzelfpcawtswnzule",
      "value": 1000
    }
  ],
  "size": 299,
  "weight": 581,
  "fee": 1889,
  "status": {
    "confirmed": true,
    "block_height": 834464,
    "block_hash": "0000000000000000000177a0869a911a2b65c9bdcd5a8bcb02b68f305bee848e",
    "block_time": 1710308296
  },
  "hex": "01000000000101bd527c7cc98adfc93823287cb38976755828b560cc96e68ea140e11e6310401200000000000000000001e803000000000000225120a1e3352d215c371d7181ba45cba88085be161f72f0fb432c6eb5c59fa438eb970340c79fd5244e47dc6a8c342db1aec730dae594e4f3d9c6a652acb3280f70e1a48a934f5d0ad9ee517269308f7ba9143de7004a7f7859bf3f3bceb639363b5f92f06620dfa7325ed77fab28d796d113dcead29a7490c58aaa244f71cf02d52f6b761081ac00630461746f6d03646d7437a16461726773a46474696d651a65ee4d1c656e6f6e63650068626974776f726b6364313234306b6d696e745f7469636b657264766d70786821c0dfa7325ed77fab28d796d113dcead29a7490c58aaa244f71cf02d52f6b76108100000000"
}