{
  "txid": "dca86c04be7be584f77c1943fdaabeb2b354b1a3108d4a0a58f9b8c0572682ac",
  "version": 2,
  "locktime": 0,
  "vin": [
    {
      "txid": "3a8106f7e4d9a3d49a07a8263766db69393f8041e380c584fae19aae653b3e5c",
      "vout": 0,
      "prevout": {
        "scriptpubkey": "5120c1aeac3f0c73de8d31d2714b248037ad9e5e1ee892368cbee27a1bee8d25aa77",
        "scriptpubkey_asm": "OP_PUSHNUM_1 OP_PUSHBYTES_32 c1aeac3f0c73de8d31d2714b248037ad9e5e1ee892368cbee27a1bee8d25aa77",
        "scriptpubkey_type": "v1_p2tr",
        "scriptpubkey_address": "bc1pcxh2c0cvw00g6vwjw99jfqph4k09u8hgjgmge0hz0gd7arf94fmsyum938",
        "value": 2826
      },
      "scriptsig": "",
      "scriptsig_asm": "",
      "witness": [
        "b84f0e4cb101aedbb0cb060d23b2c25f26099ba9631283be0a44567a6c86817ae7bd070fdee0248bd4c2b7a95f781079c0d0351784998676eb3d249f1991dc76",
        "20c8e741b5244ee015954b042d604d94d378f602bc434c6574f1959d4afe8c5a09ac0063036f7264010118746578742f706c61696e3b636861727365743d7574662d3800397b2270223a226272632d3230222c226f70223a227472616e73666572222c227469636b223a22736c6f72222c22616d74223a2231353030227d68",
        "c0c8e741b5244ee015954b042d604d94d378f602bc434c6574f1959d4afe8c5a09"
      ],
      "is_coinbase": false,
      "sequence": 4294967293
    }
  ],
  "vout": [
    {
      "scriptpubkey": "5120904a09e22f60fbda58244c2bc462a2ffcab915058891b12945df8b757eb63410",
      "scriptpubkey_asm": "OP_PUSHNUM_1 OP_PUSHBYTES_32 904a09e22f60fbda58244c2bc462a2ffcab915058891b12945df8b757eb63410",
      "scriptpubkey_type": "v1_p2tr",
      "scriptpubkey_address": "bc1pjp9qnc30vraa5kpyfs4ugc4zll9tj9g93zgmz229m79h2l4kxsgqpp36qp",
      "value": 546
    }
  ],
  "size": 324,
  "weight": 606,
  "fee": 2280,
  "status": {
    "confirmed": true,
    "block_height": 834638,
    "block_hash": "000000000000000000025f742c626208ac87e0b7d15054abb4a19ca2d735a54e",
    "block_time": 1710405325
  },
  "hex": "020000000001015c3e3b65ae9ae1fa84c580e341803f3969db663726a8079ad4a3d9e4f706813a0000000000fdffffff012202000000000000225120904a09e22f60fbda58244c2bc462a2ffcab915058891b12945df8b757eb634100340b84f0e4cb101aedbb0cb060d23b2c25f26099ba9631283be0a44567a6c86817ae7bd070fdee0248bd4c2b7a95f781079c0d0351784998676eb3d249f1991dc767f20c8e741b5244ee015954b042d604d94d378f602bc434c6574f1959d4afe8c5a09ac0063036f7264010118746578742f706c61696e3b636861727365743d7574662d3800397b2270223a226272632d3230222c226f70223a227472616e73666572222c227469636b223a22736c6f72222c22616d74223a2231353030227d6821c0c8e741b5244ee015954b042d604d94d378f602bc434c6574f1959d4afe8c5a0900000000"
}