{
  "txid": "dcaf25c1d6a99fdecb771a6751a53177a89b37a09a7ca2c8fc5362eda3150381",
  "version": 2,
  "locktime": 834458,
  "vin": [
    {
      "txid": "19266c77718d86cd45872a374537a63c047d323f8cc28e7b0c492e4e7499af7e",
      "vout": 1,
      "prevout": {
        "scriptpubkey": "5120c17b3e1e752482fbbf1d76236d610be036a2673a370acf82112f27a2090cf209",
        "scriptpubkey_asm": "OP_PUSHNUM_1 OP_PUSHBYTES_32 c17b3e1e752482fbbf1d76236d610be036a2673a370acf82112f27a2090cf209",
        "scriptpubkey_type": "v1_p2tr",
        "scriptpubkey_address": "bc1pc9anu8n4yjp0h0cawc3k6cgtuqm2yee6xu9vlqs39un6yzgv7gys9dfgz3",
        "value": 3626357
      },
      "scriptsig": "",
      "scriptsig_asm": "",
      "witness": [
        "af1f27f0c8d126a56e25f6d920faaaf43eadaa8b45fd4d42b5bbb1bd6302286060561bdb04f5f3cc1087ff05344f654c0b1cd1440b9adad58c015ef8c31ead9f"
      ],
      "is_coinbase": false,
      "sequence": 4294967293
    }
  ],
  "vout": [
    {
      "scriptpubkey": "0020fe956dca31c6484a4a5777b303fedbbea4240336e633cc0e4c94b266d3efa705",
      "scriptpubkey_asm": "OP_0 OP_PUSHBYTES_32 fe956dca31c6484a4a5777b303fedbbea4240336e633cc0e4c94b266d3efa705",
      "scriptpubkey_type": "v0_p2wsh",
      "scriptpubkey_address": "bc1ql62kmj33ceyy5jjhw7es8lkmh6jzgqekuceucrjvjjexd5l05uzsz3mjuq",
      "value": 198188
    },
    {
      "scriptpubkey": "5120f0cf8387048b8709b704527bd915d1b5f3e3d858b2e62b0faae52b9f5e777c62",
      "scriptpubkey_asm": "OP_PUSHNUM_1 OP_PUSHBYTES_32 f0cf8387048b8709b704527bd915d1b5f3e3d858b2e62b0faae52b9f5e777c62",
      "scriptpubkey_type": "v1_p2tr",
      "scriptpubkey_address": "bc1p7r8c8pcy3wrsndcy2faaj9w3khe78kzcktnzkra2u54e7hnh033qmh29zv",
      "value": 3425870
    }
  ],
  "size": 205,
  "weight": 616,
  "fee": 2299,
  "status": {
    "confirmed": true,
    "block_height": 834460,
    "block_hash": "00000000000000000000484a79b643b2524bbce82e5d8a442013fa5b8905ed98",
    "block_time": 1710307468
  },
  "hex": "020000000001017eaf99744e2e490c7b8ec28c3f327d043ca63745372a8745cd868d71776c26190100000000fdffffff022c06030000000000220020fe956dca31c6484a4a5777b303fedbbea4240336e633cc0e4c94b266d3efa7054e46340000000000225120f0cf8387048b8709b704527bd915d1b5f3e3d858b2e62b0faae52b9f5e777c620140af1f27f0c8d126a56e25f6d920faaaf43eadaa8b45fd4d42b5bbb1bd6302286060561bdb04f5f3cc1087ff05344f654c0b1cd1440b9adad58c015ef8c31ead9f9abb0c00"
}