{
  "txid": "dcc34853771f1edc6c43fdf08fc89266735f9dfb19ec871eeae7367778ba2cae",
  "version": 1,
  "locktime": 0,
  "vin": [
    {
      "txid": "adf2561536285e97cff0f5cda652a39516c3b1645c25919672a1d2a2d2250771",
      "vout": 1,
      "prevout": {
        "scriptpubkey": "0014a80a4c382ad91ad134fb9380126c0d8f26d71cfc",
        "scriptpubkey_asm": "OP_0 OP_PUSHBYTES_20 a80a4c382ad91ad134fb9380126c0d8f26d71cfc",
        "scriptpubkey_type": "v0_p2wpkh",
        "scriptpubkey_address": "bc1q4q9ycwp2myddzd8mjwqpymqd3undw88uswmrjz",
        "value": 34261466
      },
      "scriptsig": "",
      "scriptsig_asm": "",
      "witness": [
        "3044022033c906169c7580cd6afff5300f807907b4aedbcf354e799d142df56a4af4b0060220180aa305acee78d798f587054e9ef063a70f4a9a0426d674f809cb0a384585ee01",
        "021499165afe5e339176c27d00fb968b6990c773375708c3a8c82f14f2b805f2dd"
      ],
      "is_coinbase": false,
      "sequence": 4294967293
    }
  ],
  "vout": [
    {
      "scriptpubkey": "a914299a1b193360f0f92804fda6e94a8cb0c1c6e09387",
      "scriptpubkey_asm": "OP_HASH160 OP_PUSHBYTES_20 299a1b193360f0f92804fda6e94a8cb0c1c6e093 OP_EQUAL",
      "scriptpubkey_type": "p2sh",
      "scriptpubkey_address": "35UzEsUyXBkNTbEoog5nii2ySE96EvRFjB",
      "value": 2986367
    },
    {
      "scriptpubkey": "00146109e906d35fc137843debaa70163a9d959a5a01",
      "scriptpubkey_asm": "OP_0 OP_PUSHBYTES_20 6109e906d35fc137843debaa70163a9d959a5a01",
      "scriptpubkey_type": "v0_p2wpkh",
      "scriptpubkey_address": "bc1qvyy7jpkntlqn0ppaaw48q936nk2e5kspx47mfw",
      "value": 31272401
    }
  ],
  "size": 223,
  "weight": 565,
  "fee": 2698,
  "status": {
    "confirmed": true,
    "block_height": 834638,
    "block_hash": "000000000000000000025f742c626208ac87e0b7d15054abb4a19ca2d735a54e",
    "block_time": 1710405325
  },
  "hex": "01000000000101710725d2a2d2a1729691255c64b1c31695a352a6cdf5f0cf975e28361556f2ad0100000000fdffffff027f912d000000000017a914299a1b193360f0f92804fda6e94a8cb0c1c6e09387d12ddd01000000001600146109e906d35fc137843debaa70163a9d959a5a0102473044022033c906169c7580cd6afff5300f807907b4aedbcf354e799d142df56a4af4b0060220180aa305acee78d798f587054e9ef063a70f4a9a0426d674f809cb0a384585ee0121021499165afe5e339176c27d00fb968b6990c773375708c3a8c82f14f2b805f2dd00000000"
}