{
  "txid": "dcc38fad28369f8cc7f0dd965d8af1e254f58adf1aca79ac7ec3c752d35095bb",
  "version": 2,
  "locktime": 0,
  "vin": [
    {
      "txid": "14e2167695fd53b97ae50c0a70e65ac4ef7ad1480621c0c13d9d798945a5d5dc",
      "vout": 18,
      "prevout": {
        "scriptpubkey": "5120b2e393edd920638e409864febdf1f6b5dfe417345d9a960c0c2695a9ff31490c",
        "scriptpubkey_asm": "OP_PUSHNUM_1 OP_PUSHBYTES_32 b2e393edd920638e409864febdf1f6b5dfe417345d9a960c0c2695a9ff31490c",
        "scriptpubkey_type": "v1_p2tr",
        "scriptpubkey_address": "bc1pkt3e8mweyp3cusycvnltmu0kkh07g9e5tkdfvrqvy626nle3fyxqf9n0hv",
        "value": 2862
      },
      "scriptsig": "",
      "scriptsig_asm": "",
      "witness": [
        "4c16d09c85f8e70b333f37e005097ff9d04f4716528e19678006dea079fece7b7e614b318653591082a899c10294a941c6e84672a245fed2c4068092e1a27414",
        "200040e46b7f350b9b32d3b7c7404b5456f7a09eb8966b2e4f795781b31ad095e1ac0063036f726401011e6170706c69636174696f6e2f6a736f6e3b636861727365743d7574662d38004cd37b2270223a22706f772d3230222c226f70223a226d696e74222c227469636b223a2250455045222c22616d74223a2231303030222c22736f6c7574696f6e223a22504550453a62633170673935386e6b7a747678347271756e78676d747a6c35666e70666b633330776a323770777367396e6c706a786b796e64793671737376386c6b303a303030303030303030303030303030303030303139393431613561653132383937363539383134343239323533333030353762306461393666336465613163353a3435383930343039363737227d68",
        "c1631b34e489e80d4fba35164e5ad52a60d66865df7d7db84d2adbf53ec13ca2a1"
      ],
      "is_coinbase": false,
      "sequence": 4294967295
    }
  ],
  "vout": [
    {
      "scriptpubkey": "5120416879d84b61aa30726646d62fd1330a6d88bdd25782e820b3f8646b126d2681",
      "scriptpubkey_asm": "OP_PUSHNUM_1 OP_PUSHBYTES_32 416879d84b61aa30726646d62fd1330a6d88bdd25782e820b3f8646b126d2681",
      "scriptpubkey_type": "v1_p2tr",
      "scriptpubkey_address": "bc1pg958nkztvx4rqunxgmtzl5fnpfkc30wj27pwsg9nlpjxkyndy6qssv8lk0",
      "value": 546
    }
  ],
  "size": 487,
  "weight": 769,
  "fee": 2316,
  "status": {
    "confirmed": true,
    "block_height": 834460,
    "block_hash": "00000000000000000000484a79b643b2524bbce82e5d8a442013fa5b8905ed98",
    "block_time": 1710307468
  },
  "hex": "02000000000101dcd5a54589799d3dc1c0210648d17aefc45ae6700a0ce57ab953fd957616e2141200000000ffffffff012202000000000000225120416879d84b61aa30726646d62fd1330a6d88bdd25782e820b3f8646b126d268103404c16d09c85f8e70b333f37e005097ff9d04f4716528e19678006dea079fece7b7e614b318653591082a899c10294a941c6e84672a245fed2c4068092e1a27414fd2001200040e46b7f350b9b32d3b7c7404b5456f7a09eb8966b2e4f795781b31ad095e1ac0063036f726401011e6170706c69636174696f6e2f6a736f6e3b636861727365743d7574662d38004cd37b2270223a22706f772d3230222c226f70223a226d696e74222c227469636b223a2250455045222c22616d74223a2231303030222c22736f6c7574696f6e223a22504550453a62633170673935386e6b7a747678347271756e78676d747a6c35666e70666b633330776a323770777367396e6c706a786b796e64793671737376386c6b303a303030303030303030303030303030303030303139393431613561653132383937363539383134343239323533333030353762306461393666336465613163353a3435383930343039363737227d6821c1631b34e489e80d4fba35164e5ad52a60d66865df7d7db84d2adbf53ec13ca2a100000000"
}