{
  "txid": "dcd522b3588c7adb0418454539e1a929fff936f211e5a20383fdcbc3ad8751b9",
  "version": 1,
  "locktime": 0,
  "vin": [
    {
      "txid": "f887bb99453774ccec2c74633274c0ccfad531e69f5407ee83d264be50d06bf0",
      "vout": 1,
      "prevout": {
        "scriptpubkey": "0014b434a011c0151f4ec3d9153a46dc875a7317179b",
        "scriptpubkey_asm": "OP_0 OP_PUSHBYTES_20 b434a011c0151f4ec3d9153a46dc875a7317179b",
        "scriptpubkey_type": "v0_p2wpkh",
        "scriptpubkey_address": "bc1qks62qywqz505as7ez5aydhy8tfe3w9umfzprcs",
        "value": 1625984
      },
      "scriptsig": "",
      "scriptsig_asm": "",
      "witness": [
        "304402205a9930b3dc996df6e03d038a3b2039813cf5cf07f8734fd06d57a1be1bc6f58e0220301b849f3bb28915a74adddbbe577d82a498afc2c0cb369f6aa6b7717c9367b201",
        "022971d5b1441cbdd4a7d03088f11784079771e2bc1e58b5ae63c32597f7ecfb38"
      ],
      "is_coinbase": false,
      "sequence": 4294967295
    }
  ],
  "vout": [
    {
      "scriptpubkey": "001413091581ce9b9bd7d1f3a89e75de1028f57872e8",
      "scriptpubkey_asm": "OP_0 OP_PUSHBYTES_20 13091581ce9b9bd7d1f3a89e75de1028f57872e8",
      "scriptpubkey_type": "v0_p2wpkh",
      "scriptpubkey_address": "bc1qzvy3tqwwnwda050n4z08thss9r6hsuhgjlm2ca",
      "value": 1592984
    }
  ],
  "size": 191,
  "weight": 437,
  "fee": 33000,
  "status": {
    "confirmed": true,
    "block_height": 834638,
    "block_hash": "000000000000000000025f742c626208ac87e0b7d15054abb4a19ca2d735a54e",
    "block_time": 1710405325
  },
  "hex": "01000000000101f06bd050be64d283ee07549fe631d5faccc0743263742ceccc74374599bb87f80100000000ffffffff01984e18000000000016001413091581ce9b9bd7d1f3a89e75de1028f57872e80247304402205a9930b3dc996df6e03d038a3b2039813cf5cf07f8734fd06d57a1be1bc6f58e0220301b849f3bb28915a74adddbbe577d82a498afc2c0cb369f6aa6b7717c9367b20121022971d5b1441cbdd4a7d03088f11784079771e2bc1e58b5ae63c32597f7ecfb3800000000"
}