{
  "txid": "dcfc52a77a2fbdd0d2d78cf965592ecdc3a7fd3a438b5672891f6bc19d77d8ca",
  "version": 2,
  "locktime": 0,
  "vin": [
    {
      "txid": "acc3ba00869acb582a3f2904ce3a11dd3779350ce234063fc7d0959246213364",
      "vout": 237,
      "prevout": {
        "scriptpubkey": "51201c2addb0aa5423c1bfc7114abc415c1b3fee49a4336519ecaffd6609d7ae508e",
        "scriptpubkey_asm": "OP_PUSHNUM_1 OP_PUSHBYTES_32 1c2addb0aa5423c1bfc7114abc415c1b3fee49a4336519ecaffd6609d7ae508e",
        "scriptpubkey_type": "v1_p2tr",
        "scriptpubkey_address": "bc1prs4dmv922s3ur078z99tcs2urvl7ujdyxdj3nm90l4nqn4aw2z8qm5khuc",
        "value": 1806
      },
      "scriptsig": "",
      "scriptsig_asm": "",
      "witness": [
        "5de638ac643a14e5c5d3b0eede7bbb3c421233d48e652c41ac6238f9646e53336ffdb87acfc2e3f9b555f5c83750295f111f07e87c63ad273a7ac67fcf24be88",
        "20c8523aaab11d80970847b3d345bf2a1f6438c2b946a295e189a013a7985a56a4ac0063036f726401010a746578742f706c61696e00357b2270223a226272632d3230222c226f70223a226d696e74222c227469636b223a22646f6765222c22616d74223a2234323030227d68",
        "c1c8523aaab11d80970847b3d345bf2a1f6438c2b946a295e189a013a7985a56a4"
      ],
      "is_coinbase": false,
      "sequence": 4261412863
    }
  ],
  "vout": [
    {
      "scriptpubkey": "00147a665de7a370f4c9b372ab1fae587500a5bcbdb4",
      "scriptpubkey_asm": "OP_0 OP_PUSHBYTES_20 7a665de7a370f4c9b372ab1fae587500a5bcbdb4",
      "scriptpubkey_type": "v0_p2wpkh",
      "scriptpubkey_address": "bc1q0fn9mearwr6vnvmj4v06ukr4qzjme0d565dzcx",
      "value": 294
    }
  ],
  "size": 294,
  "weight": 540,
  "fee": 1512,
  "status": {
    "confirmed": true,
    "block_height": 834460,
    "block_hash": "00000000000000000000484a79b643b2524bbce82e5d8a442013fa5b8905ed98",
    "block_time": 1710307468
  },
  "hex": "02000000000101643321469295d0c73f0634e20c357937dd113ace04293f2a58cb9a8600bac3aced00000000fffffffd0126010000000000001600147a665de7a370f4c9b372ab1fae587500a5bcbdb403405de638ac643a14e5c5d3b0eede7bbb3c421233d48e652c41ac6238f9646e53336ffdb87acfc2e3f9b555f5c83750295f111f07e87c63ad273a7ac67fcf24be886d20c8523aaab11d80970847b3d345bf2a1f6438c2b946a295e189a013a7985a56a4ac0063036f726401010a746578742f706c61696e00357b2270223a226272632d3230222c226f70223a226d696e74222c227469636b223a22646f6765222c22616d74223a2234323030227d6821c1c8523aaab11d80970847b3d345bf2a1f6438c2b946a295e189a013a7985a56a400000000"
}