{
  "txid": "dcfdc1e270942a9e5662883124afe0b531f724d3b2c4381e35d7e1c3d5c739fa",
  "version": 2,
  "locktime": 0,
  "vin": [
    {
      "txid": "12848a1f84ad552475e874cce291926f292412de23b7537898e98c7370f2e86c",
      "vout": 7,
      "prevout": {
        "scriptpubkey": "5120fbeae6dd88dd837e6641dc3c431a3a3480498fa76a9fec4202ac6c8272aecf0e",
        "scriptpubkey_asm": "OP_PUSHNUM_1 OP_PUSHBYTES_32 fbeae6dd88dd837e6641dc3c431a3a3480498fa76a9fec4202ac6c8272aecf0e",
        "scriptpubkey_type": "v1_p2tr",
        "scriptpubkey_address": "bc1pl04wdhvgmkphuejpms7yxx36xjqynra8d207cssz43kgyu4weu8qwh2fdz",
        "value": 2358
      },
      "scriptsig": "",
      "scriptsig_asm": "",
      "witness": [
        "f1b1069118dd872c09663f231a1508cc5a34d830b2082e4e7ac5ed8d64ddba9ab87777b121dcd6f9af27930df19a4ad2a2d26a3570b431720389313e34a708a7",
        "20716c062feae8a8515f8e190c2fdc68ec29c27df5a7c348da6af1a603b1f5d60fac0063036f7264010118746578742f706c61696e3b636861727365743d7574662d3800377b2270223a226272632d3230222c226f70223a226d696e74222c227469636b223a22424f424f222c22616d74223a22313030303030227d68",
        "c0507504f881a2548efcb0bd8b5287fd78c473d5bd35b181abdd5c5cd6d10de204"
      ],
      "is_coinbase": false,
      "sequence": 4294967295
    }
  ],
  "vout": [
    {
      "scriptpubkey": "512048d62e6aa4ce9b4b4d760b1dc0c3e46b46d84be76ae456792a664139e7aaa19c",
      "scriptpubkey_asm": "OP_PUSHNUM_1 OP_PUSHBYTES_32 48d62e6aa4ce9b4b4d760b1dc0c3e46b46d84be76ae456792a664139e7aaa19c",
      "scriptpubkey_type": "v1_p2tr",
      "scriptpubkey_address": "bc1pfrtzu64ye6d5kntkpvwupslyddrdsjl8dtj9v7f2veqnnea25xwqu8ycu4",
      "value": 546
    }
  ],
  "size": 322,
  "weight": 604,
  "fee": 1812,
  "status": {
    "confirmed": true,
    "block_height": 834460,
    "block_hash": "00000000000000000000484a79b643b2524bbce82e5d8a442013fa5b8905ed98",
    "block_time": 1710307468
  },
  "hex": "020000000001016ce8f270738ce9987853b723de1224296f9291e2cc74e8752455ad841f8a84120700000000ffffffff01220200000000000022512048d62e6aa4ce9b4b4d760b1dc0c3e46b46d84be76ae456792a664139e7aaa19c0340f1b1069118dd872c09663f231a1508cc5a34d830b2082e4e7ac5ed8d64ddba9ab87777b121dcd6f9af27930df19a4ad2a2d26a3570b431720389313e34a708a77d20716c062feae8a8515f8e190c2fdc68ec29c27df5a7c348da6af1a603b1f5d60fac0063036f7264010118746578742f706c61696e3b636861727365743d7574662d3800377b2270223a226272632d3230222c226f70223a226d696e74222c227469636b223a22424f424f222c22616d74223a22313030303030227d6821c0507504f881a2548efcb0bd8b5287fd78c473d5bd35b181abdd5c5cd6d10de20400000000"
}