{
  "txid": "dd3f8bb7db33ad0d835f5755cc74c9b1b2aa2c12ceec44e45a2ad49e8bc340a7",
  "version": 2,
  "locktime": 0,
  "vin": [
    {
      "txid": "d7d8aa64883e2da11b404f1cfcfe96cc67d8031770fd073d9f3acbeac0ba9dc0",
      "vout": 0,
      "prevout": {
        "scriptpubkey": "00145eb911f922452217e8ff4ebf745d23f17ae96709",
        "scriptpubkey_asm": "OP_0 OP_PUSHBYTES_20 5eb911f922452217e8ff4ebf745d23f17ae96709",
        "scriptpubkey_type": "v0_p2wpkh",
        "scriptpubkey_address": "bc1qt6u3r7fzg53p068lf6lhghfr79awjecfg5klcm",
        "value": 547
      },
      "scriptsig": "",
      "scriptsig_asm": "",
      "witness": [
        "304402207372ca7aa0fd3ad28a45c6f548ca3dd5ae74ea98e8476118080933aacbf2836202200c5b049ba6eff9a2b0fab1b1df31ec24c577011aa05a5f084e505b3e5c37698081",
        "032fa866c19c25ea00e5761df0e0affdd769559400eb1eb6a91c9eed7b344833fd"
      ],
      "is_coinbase": false,
      "sequence": 4294967293
    },
    {
      "txid": "7c984fbf2f922cd11ddaebd62e14206306993bf5d89fa28ac073645d0d6b5bd0",
      "vout": 1,
      "prevout": {
        "scriptpubkey": "0014a241a97761142971185a6b9a2c653b7651fec377",
        "scriptpubkey_asm": "OP_0 OP_PUSHBYTES_20 a241a97761142971185a6b9a2c653b7651fec377",
        "scriptpubkey_type": "v0_p2wpkh",
        "scriptpubkey_address": "bc1q5fq6jampzs5hzxz6dwdzcefmweglasmhypcyd9",
        "value": 1159029
      },
      "scriptsig": "",
      "scriptsig_asm": "",
      "witness": [
        "30440220183e355679f8a1b3b4485c97a710b7851033387125f801041093eaf07b930a7602207cea33c730552f8a5615954be51e19988fc5373cb4660b859dad30dc492dd99e01",
        "0385e42a74023d905c79e38a7dce22999721ffe56b2e07dc33b2a50857a4c38924"
      ],
      "is_coinbase": false,
      "sequence": 4294967293
    }
  ],
  "vout": [
    {
      "scriptpubkey": "00149654403d9434f769657e31f00a9d16dd6ad3f93f",
      "scriptpubkey_asm": "OP_0 OP_PUSHBYTES_20 9654403d9434f769657e31f00a9d16dd6ad3f93f",
      "scriptpubkey_type": "v0_p2wpkh",
      "scriptpubkey_address": "bc1qje2yq0v5xnmkjet7x8cq48gkm44d87flu9mg23",
      "value": 1142400
    },
    {
      "scriptpubkey": "51210254de7a5999477d61249bf62e5e628b868508a32a83f5c2a6d6bc4fe55f79bccd210205bc4a558880b31291e37c52bbc6f99499b6d5bd2bc027a150ec1a9134f0371a2102222222222222222222222222222222222222222222222222222222222222222253ae",
      "scriptpubkey_asm": "OP_PUSHNUM_1 OP_PUSHBYTES_33 0254de7a5999477d61249bf62e5e628b868508a32a83f5c2a6d6bc4fe55f79bccd OP_PUSHBYTES_33 0205bc4a558880b31291e37c52bbc6f99499b6d5bd2bc027a150ec1a9134f0371a OP_PUSHBYTES_33 022222222222222222222222222222222222222222222222222222222222222222 OP_PUSHNUM_3 OP_CHECKMULTISIG",
      "scriptpubkey_type": "unknown",
      "value": 796
    },
    {
      "scriptpubkey": "51210271cf3589a4ff65dd3daa10e1c16bb573eafa46874575bd9ed215bf0fc215824d2102214adba0ff718eb695b55694ba4fbf921cd587f62fdba757f5b93f646af9586a2102222222222222222222222222222222222222222222222222222222222222222253ae",
      "scriptpubkey_asm": "OP_PUSHNUM_1 OP_PUSHBYTES_33 0271cf3589a4ff65dd3daa10e1c16bb573eafa46874575bd9ed215bf0fc215824d OP_PUSHBYTES_33 02214adba0ff718eb695b55694ba4fbf921cd587f62fdba757f5b93f646af9586a OP_PUSHBYTES_33 022222222222222222222222222222222222222222222222222222222222222222 OP_PUSHNUM_3 OP_CHECKMULTISIG",
      "scriptpubkey_type": "unknown",
      "value": 796
    },
    {
      "scriptpubkey": "00145eb911f922452217e8ff4ebf745d23f17ae96709",
      "scriptpubkey_asm": "OP_0 OP_PUSHBYTES_20 5eb911f922452217e8ff4ebf745d23f17ae96709",
      "scriptpubkey_type": "v0_p2wpkh",
      "scriptpubkey_address": "bc1qt6u3r7fzg53p068lf6lhghfr79awjecfg5klcm",
      "value": 547
    }
  ],
  "size": 598,
  "weight": 1744,
  "fee": 15037,
  "status": {
    "confirmed": true,
    "block_height": 834638,
    "block_hash": "000000000000000000025f742c626208ac87e0b7d15054abb4a19ca2d735a54e",
    "block_time": 1710405325
  },
  "hex": "02000000000102c09dbac0eacb3a9f3d07fd701703d867cc96fefc1c4f401ba12d3e8864aad8d70000000000fdffffffd05b6b0d5d6473c08aa29fd8f53b99066320142ed6ebda1dd12c922fbf4f987c0100000000fdffffff04806e1100000000001600149654403d9434f769657e31f00a9d16dd6ad3f93f1c030000000000006951210254de7a5999477d61249bf62e5e628b868508a32a83f5c2a6d6bc4fe55f79bccd210205bc4a558880b31291e37c52bbc6f99499b6d5bd2bc027a150ec1a9134f0371a2102222222222222222222222222222222222222222222222222222222222222222253ae1c030000000000006951210271cf3589a4ff65dd3daa10e1c16bb573eafa46874575bd9ed215bf0fc215824d2102214adba0ff718eb695b55694ba4fbf921cd587f62fdba757f5b93f646af9586a2102222222222222222222222222222222222222222222222222222222222222222253ae23020000000000001600145eb911f922452217e8ff4ebf745d23f17ae967090247304402207372ca7aa0fd3ad28a45c6f548ca3dd5ae74ea98e8476118080933aacbf2836202200c5b049ba6eff9a2b0fab1b1df31ec24c577011aa05a5f084e505b3e5c3769808121032fa866c19c25ea00e5761df0e0affdd769559400eb1eb6a91c9eed7b344833fd024730440220183e355679f8a1b3b4485c97a710b7851033387125f801041093eaf07b930a7602207cea33c730552f8a5615954be51e19988fc5373cb4660b859dad30dc492dd99e01210385e42a74023d905c79e38a7dce22999721ffe56b2e07dc33b2a50857a4c3892400000000"
}