{
  "txid": "dd54ab1ac66e9559f1a0bac4e763d37586f4f8d7c14aa0cb22486b6a76a1ad79",
  "version": 1,
  "locktime": 0,
  "vin": [
    {
      "txid": "888888888ea1bd842543db96ea8b4ef7612e89f2a17296553ffae8b90bc5cd94",
      "vout": 0,
      "prevout": {
        "scriptpubkey": "5120753ef6f984fdce3c44c9c698d2254bd5636a73a62176ed7b49d666de04df4d0d",
        "scriptpubkey_asm": "OP_PUSHNUM_1 OP_PUSHBYTES_32 753ef6f984fdce3c44c9c698d2254bd5636a73a62176ed7b49d666de04df4d0d",
        "scriptpubkey_type": "v1_p2tr",
        "scriptpubkey_address": "bc1pw5l0d7vylh8rc3xfc6vdyf2t643k5uaxy9mw676f6endupxlf5xstkjzcf",
        "value": 12071
      },
      "scriptsig": "",
      "scriptsig_asm": "",
      "witness": [
        "41f786709fb98357e2f81a099ac8aaa8a1b3c4c6fde0b48338add2b4c8b6ad446a4eb3f91098ec35e1e2df04404733844de9fe424d3420b7535d6c49a18b1730",
        "20469b0976e6dfb4aa85741069171d443249beab5e42def6639b54fb614787ad1fac00630461746f6d03646d7446a16461726773a46474696d651a65f1347b656e6f6e63651a0001000a68626974776f726b636b3838383838383838382e386b6d696e745f7469636b657268696e66696e69747968",
        "c0469b0976e6dfb4aa85741069171d443249beab5e42def6639b54fb614787ad1f"
      ],
      "is_coinbase": false,
      "sequence": 4294967295
    }
  ],
  "vout": [
    {
      "scriptpubkey": "5120bd20606e7cbe51b4b2f50225f8d7bab93d73d2d0a9fb14d955dee05ec9f0b2f8",
      "scriptpubkey_asm": "OP_PUSHNUM_1 OP_PUSHBYTES_32 bd20606e7cbe51b4b2f50225f8d7bab93d73d2d0a9fb14d955dee05ec9f0b2f8",
      "scriptpubkey_type": "v1_p2tr",
      "scriptpubkey_address": "bc1ph5sxqmnuhegmfvh4qgjl34a6hy7h85ks48a3fk24mms9aj0sktuqd0m35p",
      "value": 9999
    }
  ],
  "size": 314,
  "weight": 596,
  "fee": 2072,
  "status": {
    "confirmed": true,
    "block_height": 834460,
    "block_hash": "00000000000000000000484a79b643b2524bbce82e5d8a442013fa5b8905ed98",
    "block_time": 1710307468
  },
  "hex": "0100000000010194cdc50bb9e8fa3f559672a1f2892e61f74e8bea96db432584bda18e888888880000000000ffffffff010f27000000000000225120bd20606e7cbe51b4b2f50225f8d7bab93d73d2d0a9fb14d955dee05ec9f0b2f8034041f786709fb98357e2f81a099ac8aaa8a1b3c4c6fde0b48338add2b4c8b6ad446a4eb3f91098ec35e1e2df04404733844de9fe424d3420b7535d6c49a18b17307520469b0976e6dfb4aa85741069171d443249beab5e42def6639b54fb614787ad1fac00630461746f6d03646d7446a16461726773a46474696d651a65f1347b656e6f6e63651a0001000a68626974776f726b636b3838383838383838382e386b6d696e745f7469636b657268696e66696e6974796821c0469b0976e6dfb4aa85741069171d443249beab5e42def6639b54fb614787ad1f00000000"
}