{
  "txid": "dd6063ba6e79383f900b7300ecf53e4535173e76b0ed1e46eb80aaed8633156c",
  "version": 2,
  "locktime": 0,
  "vin": [
    {
      "txid": "1ffef8d3834dd4af2db7f378940e96d850a50dc857b8456515da08ea59b42f76",
      "vout": 1,
      "prevout": {
        "scriptpubkey": "51207002d0595202b57b067acab1076b11f8a368baa5eb065f36ade18f2fec91d72f",
        "scriptpubkey_asm": "OP_PUSHNUM_1 OP_PUSHBYTES_32 7002d0595202b57b067acab1076b11f8a368baa5eb065f36ade18f2fec91d72f",
        "scriptpubkey_type": "v1_p2tr",
        "scriptpubkey_address": "bc1pwqpdqk2jq26hkpn6e2csw6c3lz3k3w49avr97d4dux8jlmy36uhs8f5qvf",
        "value": 2862
      },
      "scriptsig": "",
      "scriptsig_asm": "",
      "witness": [
        "b463bc8da6c688ebbf7037311f34e1ae2f2d7766b7129fa2651c1cf583a10053e021b5b8b18f5edd1328b69aef281595aa69371e862eff096018fcb6bb96aa34",
        "2043b9fed94af0d10563925832ff4a8eaab8953efaaabd6ea7ec8ba626f670401dac0063036f726401011e6170706c69636174696f6e2f6a736f6e3b636861727365743d7574662d38004cd37b2270223a22706f772d3230222c226f70223a226d696e74222c227469636b223a2250455045222c22616d74223a2231303030222c22736f6c7574696f6e223a22504550453a6263317067666d706d6439376b6c3534636379746c637636653433656a6365347934766a6435743239656e75376a68726d7775746630337374646e7975303a303030303030303030303030303030303030303139393431613561653132383937363539383134343239323533333030353762306461393666336465613163353a3138323930393335393433227d68",
        "c04cc878e83178ea601961baabfa2fc78f27a3c8cae2f1d8f4d8ea0175eee56210"
      ],
      "is_coinbase": false,
      "sequence": 4294967295
    }
  ],
  "vout": [
    {
      "scriptpubkey": "512042761db4beb7e95c608bfe19acd63996335255926d16a2e67cf4ae3dbb8b4be3",
      "scriptpubkey_asm": "OP_PUSHNUM_1 OP_PUSHBYTES_32 42761db4beb7e95c608bfe19acd63996335255926d16a2e67cf4ae3dbb8b4be3",
      "scriptpubkey_type": "v1_p2tr",
      "scriptpubkey_address": "bc1pgfmpmd97kl54ccytlcv6e43ejce4y4vjd5t29enu7jhrmwutf03stdnyu0",
      "value": 546
    }
  ],
  "size": 487,
  "weight": 769,
  "fee": 2316,
  "status": {
    "confirmed": true,
    "block_height": 834460,
    "block_hash": "00000000000000000000484a79b643b2524bbce82e5d8a442013fa5b8905ed98",
    "block_time": 1710307468
  },
  "hex": "02000000000101762fb459ea08da156545b857c80da550d8960e9478f3b72dafd44d83d3f8fe1f0100000000ffffffff01220200000000000022512042761db4beb7e95c608bfe19acd63996335255926d16a2e67cf4ae3dbb8b4be30340b463bc8da6c688ebbf7037311f34e1ae2f2d7766b7129fa2651c1cf583a10053e021b5b8b18f5edd1328b69aef281595aa69371e862eff096018fcb6bb96aa34fd20012043b9fed94af0d10563925832ff4a8eaab8953efaaabd6ea7ec8ba626f670401dac0063036f726401011e6170706c69636174696f6e2f6a736f6e3b636861727365743d7574662d38004cd37b2270223a22706f772d3230222c226f70223a226d696e74222c227469636b223a2250455045222c22616d74223a2231303030222c22736f6c7574696f6e223a22504550453a6263317067666d706d6439376b6c3534636379746c637636653433656a6365347934766a6435743239656e75376a68726d7775746630337374646e7975303a303030303030303030303030303030303030303139393431613561653132383937363539383134343239323533333030353762306461393666336465613163353a3138323930393335393433227d6821c04cc878e83178ea601961baabfa2fc78f27a3c8cae2f1d8f4d8ea0175eee5621000000000"
}