{
  "txid": "dd68f82054de2f7de9ce8e6c1e6b125b4e1ffd4c7d801c8923439025a5d6d3a4",
  "version": 1,
  "locktime": 0,
  "vin": [
    {
      "txid": "8888888d843cfad3b04bcee3db6f80b5d133fbc519afa5bfc3ccbd18ff146c15",
      "vout": 0,
      "prevout": {
        "scriptpubkey": "5120e3607ea52f8d9ac69ed9b5fcc02e9fd89fd3e9aa6eef97e85955808247868309",
        "scriptpubkey_asm": "OP_PUSHNUM_1 OP_PUSHBYTES_32 e3607ea52f8d9ac69ed9b5fcc02e9fd89fd3e9aa6eef97e85955808247868309",
        "scriptpubkey_type": "v1_p2tr",
        "scriptpubkey_address": "bc1puds8aff03kdvd8kekh7vqt5lmz0a86d2dmhe06ze2kqgy3uxsvysymt3g2",
        "value": 11627
      },
      "scriptsig": "",
      "scriptsig_asm": "",
      "witness": [
        "bec54d2c7399793039173b008eabbecb909a2cf29c4a544044a4e4e61adb74fe4de421503c2bcfb85c5e1de2c9886cdb9483dc34fc110dc2054935607047996683",
        "20930d4ffacedaeeda983fbe6875a3f39bad4c323e8346d8dda5652f8cfd9db2eaac00630461746f6d03646d7442a16461726773a468626974776f726b6367383838383838386b6d696e745f7469636b657268696e66696e697479656e6f6e63651a002608046474696d651a65dc754468",
        "c1930d4ffacedaeeda983fbe6875a3f39bad4c323e8346d8dda5652f8cfd9db2ea"
      ],
      "is_coinbase": false,
      "sequence": 4294967293
    }
  ],
  "vout": [
    {
      "scriptpubkey": "5120bf94882e5d0c036449dc3f1782adc8fe707e6d03ea0ecdd97e048b8da94a44b1",
      "scriptpubkey_asm": "OP_PUSHNUM_1 OP_PUSHBYTES_32 bf94882e5d0c036449dc3f1782adc8fe707e6d03ea0ecdd97e048b8da94a44b1",
      "scriptpubkey_type": "v1_p2tr",
      "scriptpubkey_address": "bc1ph72gstjapspkgjwu8utc9twglec8umgrag8vmkt7qj9cm222gjcsurlt3p",
      "value": 9999
    }
  ],
  "size": 311,
  "weight": 593,
  "fee": 1628,
  "status": {
    "confirmed": true,
    "block_height": 834464,
    "block_hash": "0000000000000000000177a0869a911a2b65c9bdcd5a8bcb02b68f305bee848e",
    "block_time": 1710308296
  },
  "hex": "01000000000101156c14ff18bdccc3bfa5af19c5fb33d1b5806fdbe3ce4bb0d3fa3c848d8888880000000000fdffffff010f27000000000000225120bf94882e5d0c036449dc3f1782adc8fe707e6d03ea0ecdd97e048b8da94a44b10341bec54d2c7399793039173b008eabbecb909a2cf29c4a544044a4e4e61adb74fe4de421503c2bcfb85c5e1de2c9886cdb9483dc34fc110dc20549356070479966837120930d4ffacedaeeda983fbe6875a3f39bad4c323e8346d8dda5652f8cfd9db2eaac00630461746f6d03646d7442a16461726773a468626974776f726b6367383838383838386b6d696e745f7469636b657268696e66696e697479656e6f6e63651a002608046474696d651a65dc75446821c1930d4ffacedaeeda983fbe6875a3f39bad4c323e8346d8dda5652f8cfd9db2ea00000000"
}