{
  "txid": "dd6bf5c6dd325941405718734adc3bb5a2563233a6dba612f56d9146691f73ff",
  "version": 1,
  "locktime": 0,
  "vin": [
    {
      "txid": "292c4d4b5fb57ea24a1194c29e89d3fcf4bcfbf8b8be57289d1aea1250086328",
      "vout": 1,
      "prevout": {
        "scriptpubkey": "00144aee43820042e5868076977a6d16298757916615",
        "scriptpubkey_asm": "OP_0 OP_PUSHBYTES_20 4aee43820042e5868076977a6d16298757916615",
        "scriptpubkey_type": "v0_p2wpkh",
        "scriptpubkey_address": "bc1qfthy8qsqgtjcdqrkjaax693fsatezes4r6whdd",
        "value": 493008
      },
      "scriptsig": "",
      "scriptsig_asm": "",
      "witness": [
        "304402201bd3997bbb33e86c56be0c1bf5c716480906c3d6ad07fb9d4d6379334deb192b0220760f4bb17bd8a6052b0dcc0c40bdc1e2be1960f468d76a64bed9738a071a580a01",
        "027c83092eefb84790aeac59790a780f2bda1a0b9f630978a626ae5398d26d362d"
      ],
      "is_coinbase": false,
      "sequence": 4294967295
    }
  ],
  "vout": [
    {
      "scriptpubkey": "0014285c2f84894d8df0b468b62dd8eceb2dee370093",
      "scriptpubkey_asm": "OP_0 OP_PUSHBYTES_20 285c2f84894d8df0b468b62dd8eceb2dee370093",
      "scriptpubkey_type": "v0_p2wpkh",
      "scriptpubkey_address": "bc1q9pwzlpyffkxlpdrgkcka3m8t9hhrwqyn9d2tx5",
      "value": 135926
    },
    {
      "scriptpubkey": "00144aee43820042e5868076977a6d16298757916615",
      "scriptpubkey_asm": "OP_0 OP_PUSHBYTES_20 4aee43820042e5868076977a6d16298757916615",
      "scriptpubkey_type": "v0_p2wpkh",
      "scriptpubkey_address": "bc1qfthy8qsqgtjcdqrkjaax693fsatezes4r6whdd",
      "value": 353275
    }
  ],
  "size": 222,
  "weight": 561,
  "fee": 3807,
  "status": {
    "confirmed": true,
    "block_height": 834638,
    "block_hash": "000000000000000000025f742c626208ac87e0b7d15054abb4a19ca2d735a54e",
    "block_time": 1710405325
  },
  "hex": "010000000001012863085012ea1a9d2857beb8f8fbbcf4fcd3899ec294114aa27eb55f4b4d2c290100000000ffffffff02f612020000000000160014285c2f84894d8df0b468b62dd8eceb2dee370093fb630500000000001600144aee43820042e5868076977a6d162987579166150247304402201bd3997bbb33e86c56be0c1bf5c716480906c3d6ad07fb9d4d6379334deb192b0220760f4bb17bd8a6052b0dcc0c40bdc1e2be1960f468d76a64bed9738a071a580a0121027c83092eefb84790aeac59790a780f2bda1a0b9f630978a626ae5398d26d362d00000000"
}