{
  "txid": "dd745c0a05a7c832fb395606a1468364a5a36911ca23de538728b6fb6de97b4d",
  "version": 1,
  "locktime": 0,
  "vin": [
    {
      "txid": "3ea944bce4b061d98e96139008905b6af33e02a476bcda91f3975ff806e4024a",
      "vout": 3,
      "prevout": {
        "scriptpubkey": "0020da396444a934e905d5a8ce71067d88ca062deb38e38e6953eccae5dc156f4d9c",
        "scriptpubkey_asm": "OP_0 OP_PUSHBYTES_32 da396444a934e905d5a8ce71067d88ca062deb38e38e6953eccae5dc156f4d9c",
        "scriptpubkey_type": "v0_p2wsh",
        "scriptpubkey_address": "bc1qmgukg39fxn5st4dgeecsvlvgegrzm6ecuw8xj5lvetjac9t0fkwq0hlal9",
        "value": 219653214
      },
      "scriptsig": "",
      "scriptsig_asm": "",
      "witness": [
        "",
        "304502210083b5af2425e0f692225ab1135528123e6e20172f008a3ad9b7e5ccff31d04f2902204784d21e102936dc0972680c493c36eff342a75864cb6f45161aa7fd45a8343801",
        "30440220477c4d3d099db480f16b3347bb0f588c146285206ae30d44fc44f5c91875a3e9022028537fd91b59761d6b19f031e5d7eeffc8e2f88e4d7024257e27f65b29c6ea2901",
        "5221023184ffc067f9ba5ab77ee5470bc4095d38e3d2227ed3b0987eaf21452bed337a210264fc735d3562a73417f8d15c4fc54aaaf46beedfd428da31e773a9110a4771162102a40606c6b720c324717336f47774a6335455b31b7ad7fa159b4b15a9f4f58120210379b9e2983f1480070e3e6a2b722d76b8cb735c08f64df7bb9b3c29d1fcf3efaf54ae"
      ],
      "is_coinbase": false,
      "sequence": 4294967295,
      "inner_witnessscript_asm": "OP_PUSHNUM_2 OP_PUSHBYTES_33 023184ffc067f9ba5ab77ee5470bc4095d38e3d2227ed3b0987eaf21452bed337a OP_PUSHBYTES_33 0264fc735d3562a73417f8d15c4fc54aaaf46beedfd428da31e773a9110a477116 OP_PUSHBYTES_33 02a40606c6b720c324717336f47774a6335455b31b7ad7fa159b4b15a9f4f58120 OP_PUSHBYTES_33 0379b9e2983f1480070e3e6a2b722d76b8cb735c08f64df7bb9b3c29d1fcf3efaf OP_PUSHNUM_4 OP_CHECKMULTISIG"
    }
  ],
  "vout": [
    {
      "scriptpubkey": "a9142f40e9085f5a3d3beeb026ad8d217f252c710daa87",
      "scriptpubkey_asm": "OP_HASH160 OP_PUSHBYTES_20 2f40e9085f5a3d3beeb026ad8d217f252c710daa OP_EQUAL",
      "scriptpubkey_type": "p2sh",
      "scriptpubkey_address": "35zsSc4m41V7MZ9JPXKogvCh6VFdYM634N",
      "value": 449348
    },
    {
      "scriptpubkey": "001455847a593395e9ca2a80824cd3913d03c79b8825",
      "scriptpubkey_asm": "OP_0 OP_PUSHBYTES_20 55847a593395e9ca2a80824cd3913d03c79b8825",
      "scriptpubkey_type": "v0_p2wpkh",
      "scriptpubkey_address": "bc1q2kz85kfnjh5u525qsfxd8yfaq0rehzp9e3m2uz",
      "value": 4990296
    },
    {
      "scriptpubkey": "001473adbbf5e8888f7189e5c23de56fc833017be361",
      "scriptpubkey_asm": "OP_0 OP_PUSHBYTES_20 73adbbf5e8888f7189e5c23de56fc833017be361",
      "scriptpubkey_type": "v0_p2wpkh",
      "scriptpubkey_address": "bc1qwwkmha0g3z8hrz09cg772m7gxvqhhcmpknew3d",
      "value": 52560
    },
    {
      "scriptpubkey": "a914f58bb2a86fd26346e0877e617ea94e295433951187",
      "scriptpubkey_asm": "OP_HASH160 OP_PUSHBYTES_20 f58bb2a86fd26346e0877e617ea94e2954339511 OP_EQUAL",
      "scriptpubkey_type": "p2sh",
      "scriptpubkey_address": "3Q5LpvPMvC6asEgzXqA5MKgWw2W1wjvsvL",
      "value": 731722
    },
    {
      "scriptpubkey": "a9146b585f5526dd570a6d2aba003f26c78435de4f7087",
      "scriptpubkey_asm": "OP_HASH160 OP_PUSHBYTES_20 6b585f5526dd570a6d2aba003f26c78435de4f70 OP_EQUAL",
      "scriptpubkey_type": "p2sh",
      "scriptpubkey_address": "3BUc6HqbTc4TQWRTfrnVtyihUuQ7Wsfs2W",
      "value": 272987
    },
    {
      "scriptpubkey": "0020ca9e941a1cd9f350fe9177490abfcbc957cf837295871ce770a85abcfe77febf",
      "scriptpubkey_asm": "OP_0 OP_PUSHBYTES_32 ca9e941a1cd9f350fe9177490abfcbc957cf837295871ce770a85abcfe77febf",
      "scriptpubkey_type": "v0_p2wsh",
      "scriptpubkey_address": "bc1qe20fgxsum8e4pl53ways407te9tulqmjjkr3eems4pdtelnhl6lsfvkrk4",
      "value": 213146086
    }
  ],
  "size": 541,
  "weight": 1297,
  "fee": 10215,
  "status": {
    "confirmed": true,
    "block_height": 834638,
    "block_hash": "000000000000000000025f742c626208ac87e0b7d15054abb4a19ca2d735a54e",
    "block_time": 1710405325
  },
  "hex": "010000000001014a02e406f85f97f391dabc76a4023ef36a5b90089013968ed961b0e4bc44a93e0300000000ffffffff0644db06000000000017a9142f40e9085f5a3d3beeb026ad8d217f252c710daa8758254c000000000016001455847a593395e9ca2a80824cd3913d03c79b882550cd00000000000016001473adbbf5e8888f7189e5c23de56fc833017be3614a2a0b000000000017a914f58bb2a86fd26346e0877e617ea94e2954339511875b2a04000000000017a9146b585f5526dd570a6d2aba003f26c78435de4f7087e659b40c00000000220020ca9e941a1cd9f350fe9177490abfcbc957cf837295871ce770a85abcfe77febf040048304502210083b5af2425e0f692225ab1135528123e6e20172f008a3ad9b7e5ccff31d04f2902204784d21e102936dc0972680c493c36eff342a75864cb6f45161aa7fd45a83438014730440220477c4d3d099db480f16b3347bb0f588c146285206ae30d44fc44f5c91875a3e9022028537fd91b59761d6b19f031e5d7eeffc8e2f88e4d7024257e27f65b29c6ea29018b5221023184ffc067f9ba5ab77ee5470bc4095d38e3d2227ed3b0987eaf21452bed337a210264fc735d3562a73417f8d15c4fc54aaaf46beedfd428da31e773a9110a4771162102a40606c6b720c324717336f47774a6335455b31b7ad7fa159b4b15a9f4f58120210379b9e2983f1480070e3e6a2b722d76b8cb735c08f64df7bb9b3c29d1fcf3efaf54ae00000000"
}