{
  "txid": "dd8e612c3d6cf898deb0333d0d3ee5739e4624574a7cb54baa3177244a0c858a",
  "version": 2,
  "locktime": 0,
  "vin": [
    {
      "txid": "4ee15a69f51e6dd708da636fa2ddb614252c9b808953c1fdf8e924f2adb1dedd",
      "vout": 7,
      "prevout": {
        "scriptpubkey": "a91491e08ba87ba1e0015a1d8dda90995f013c35e68787",
        "scriptpubkey_asm": "OP_HASH160 OP_PUSHBYTES_20 91e08ba87ba1e0015a1d8dda90995f013c35e687 OP_EQUAL",
        "scriptpubkey_type": "p2sh",
        "scriptpubkey_address": "3EzLu4FEXzNtTxr9yFrZXC8wqwfu2vDNmy",
        "value": 600
      },
      "scriptsig": "160014a21e55cba03154d731e0ee4a2cb0dced39408d59",
      "scriptsig_asm": "OP_PUSHBYTES_22 0014a21e55cba03154d731e0ee4a2cb0dced39408d59",
      "witness": [
        "304402205b2076131fb7dfe20ca516f02dc1f135b6c1bf0979a6138585f8765eb01ecc990220784b72adf52a029ba2af1517c97d3757ce292ec922f6a1c3ac0dca0f89b5288801",
        "030494b4d96ad12fe8c28d7f0af3b1562e7e9dd59a1b0c7b64e7374fe2975a1747"
      ],
      "is_coinbase": false,
      "sequence": 4294967295,
      "inner_redeemscript_asm": "OP_0 OP_PUSHBYTES_20 a21e55cba03154d731e0ee4a2cb0dced39408d59"
    },
    {
      "txid": "4ee15a69f51e6dd708da636fa2ddb614252c9b808953c1fdf8e924f2adb1dedd",
      "vout": 6,
      "prevout": {
        "scriptpubkey": "a91491e08ba87ba1e0015a1d8dda90995f013c35e68787",
        "scriptpubkey_asm": "OP_HASH160 OP_PUSHBYTES_20 91e08ba87ba1e0015a1d8dda90995f013c35e687 OP_EQUAL",
        "scriptpubkey_type": "p2sh",
        "scriptpubkey_address": "3EzLu4FEXzNtTxr9yFrZXC8wqwfu2vDNmy",
        "value": 600
      },
      "scriptsig": "160014a21e55cba03154d731e0ee4a2cb0dced39408d59",
      "scriptsig_asm": "OP_PUSHBYTES_22 0014a21e55cba03154d731e0ee4a2cb0dced39408d59",
      "witness": [
        "3045022100ebcb25ec78655adeb44ece2d40a51ba9e408684a7613fa90c51ec45555259ec4022039dff2af06ecf07e480a363e0f78dac814f492bb19fb0c70535257693d41919a01",
        "030494b4d96ad12fe8c28d7f0af3b1562e7e9dd59a1b0c7b64e7374fe2975a1747"
      ],
      "is_coinbase": false,
      "sequence": 4294967295,
      "inner_redeemscript_asm": "OP_0 OP_PUSHBYTES_20 a21e55cba03154d731e0ee4a2cb0dced39408d59"
    },
    {
      "txid": "dd56bca80e045cf6b622c9ca7301733645643bb92d3c91b57803c1a4427fe0ed",
      "vout": 0,
      "prevout": {
        "scriptpubkey": "5120a04796a889a3c8a76ea5d8fc6838a062fde8bef36797a7eaf167feb8ed58db8a",
        "scriptpubkey_asm": "OP_PUSHNUM_1 OP_PUSHBYTES_32 a04796a889a3c8a76ea5d8fc6838a062fde8bef36797a7eaf167feb8ed58db8a",
        "scriptpubkey_type": "v1_p2tr",
        "scriptpubkey_address": "bc1p5pred2yf50y2wm49mr7xsw9qvt7730hnv7t606h3vllt3m2cmw9qtvzytu",
        "value": 1000
      },
      "scriptsig": "",
      "scriptsig_asm": "",
      "witness": [
        "42d23fa6f67049e208448c754e2fdec907ab40af1024e7564cf8beaf0dce86f41f3bd36956c820a73d904e737343915a5147feb4437398b4b9c24df3013e884883"
      ],
      "is_coinbase": false,
      "sequence": 4294967295
    },
    {
      "txid": "4ee15a69f51e6dd708da636fa2ddb614252c9b808953c1fdf8e924f2adb1dedd",
      "vout": 10,
      "prevout": {
        "scriptpubkey": "a91491e08ba87ba1e0015a1d8dda90995f013c35e68787",
        "scriptpubkey_asm": "OP_HASH160 OP_PUSHBYTES_20 91e08ba87ba1e0015a1d8dda90995f013c35e687 OP_EQUAL",
        "scriptpubkey_type": "p2sh",
        "scriptpubkey_address": "3EzLu4FEXzNtTxr9yFrZXC8wqwfu2vDNmy",
        "value": 75169
      },
      "scriptsig": "160014a21e55cba03154d731e0ee4a2cb0dced39408d59",
      "scriptsig_asm": "OP_PUSHBYTES_22 0014a21e55cba03154d731e0ee4a2cb0dced39408d59",
      "witness": [
        "3045022100cbd981ca1b4bf7200979486e32fe3bf602d0ec3e9b184108aa8c97934358e7aa02204b24deaa87244a3b74da83e3000273522c112a235affa921c55f11f946c1558e01",
        "030494b4d96ad12fe8c28d7f0af3b1562e7e9dd59a1b0c7b64e7374fe2975a1747"
      ],
      "is_coinbase": false,
      "sequence": 4294967295,
      "inner_redeemscript_asm": "OP_0 OP_PUSHBYTES_20 a21e55cba03154d731e0ee4a2cb0dced39408d59"
    },
    {
      "txid": "293242a8a0732cfe4df4cabaebe63e65632d445870c5dcbac96085c06a2ff6ec",
      "vout": 9,
      "prevout": {
        "scriptpubkey": "a91491e08ba87ba1e0015a1d8dda90995f013c35e68787",
        "scriptpubkey_asm": "OP_HASH160 OP_PUSHBYTES_20 91e08ba87ba1e0015a1d8dda90995f013c35e687 OP_EQUAL",
        "scriptpubkey_type": "p2sh",
        "scriptpubkey_address": "3EzLu4FEXzNtTxr9yFrZXC8wqwfu2vDNmy",
        "value": 48276
      },
      "scriptsig": "160014a21e55cba03154d731e0ee4a2cb0dced39408d59",
      "scriptsig_asm": "OP_PUSHBYTES_22 0014a21e55cba03154d731e0ee4a2cb0dced39408d59",
      "witness": [
        "304402207f0d931af5fd2bb46612e11162661c7d83e23238deb1df29c83d40079a4ec46202200f57696e7856446b72e6833b5df26a6e1f37cd177b571bb8c5abff7dd8c3747e01",
        "030494b4d96ad12fe8c28d7f0af3b1562e7e9dd59a1b0c7b64e7374fe2975a1747"
      ],
      "is_coinbase": false,
      "sequence": 4294967295,
      "inner_redeemscript_asm": "OP_0 OP_PUSHBYTES_20 a21e55cba03154d731e0ee4a2cb0dced39408d59"
    }
  ],
  "vout": [
    {
      "scriptpubkey": "a91491e08ba87ba1e0015a1d8dda90995f013c35e68787",
      "scriptpubkey_asm": "OP_HASH160 OP_PUSHBYTES_20 91e08ba87ba1e0015a1d8dda90995f013c35e687 OP_EQUAL",
      "scriptpubkey_type": "p2sh",
      "scriptpubkey_address": "3EzLu4FEXzNtTxr9yFrZXC8wqwfu2vDNmy",
      "value": 1200
    },
    {
      "scriptpubkey": "5120668d68f11ad1820fe45ac5931b31ac5e8a2798c98cf66edd1a7787d9546981a2",
      "scriptpubkey_asm": "OP_PUSHNUM_1 OP_PUSHBYTES_32 668d68f11ad1820fe45ac5931b31ac5e8a2798c98cf66edd1a7787d9546981a2",
      "scriptpubkey_type": "v1_p2tr",
      "scriptpubkey_address": "bc1pv6xk3ug66xpqlez6ckf3kvdvt69z0xxf3nmxahg6w7raj4rfsx3qne347u",
      "value": 1000
    },
    {
      "scriptpubkey": "5120a04796a889a3c8a76ea5d8fc6838a062fde8bef36797a7eaf167feb8ed58db8a",
      "scriptpubkey_asm": "OP_PUSHNUM_1 OP_PUSHBYTES_32 a04796a889a3c8a76ea5d8fc6838a062fde8bef36797a7eaf167feb8ed58db8a",
      "scriptpubkey_type": "v1_p2tr",
      "scriptpubkey_address": "bc1p5pred2yf50y2wm49mr7xsw9qvt7730hnv7t606h3vllt3m2cmw9qtvzytu",
      "value": 63685
    },
    {
      "scriptpubkey": "a914ea6b832a05c6ca578baa3836f3f25553d41068a587",
      "scriptpubkey_asm": "OP_HASH160 OP_PUSHBYTES_20 ea6b832a05c6ca578baa3836f3f25553d41068a5 OP_EQUAL",
      "scriptpubkey_type": "p2sh",
      "scriptpubkey_address": "3P4WqXDbSLRhzo2H6MT6YFbvBKBDPLbVtQ",
      "value": 1575
    },
    {
      "scriptpubkey": "a91491e08ba87ba1e0015a1d8dda90995f013c35e68787",
      "scriptpubkey_asm": "OP_HASH160 OP_PUSHBYTES_20 91e08ba87ba1e0015a1d8dda90995f013c35e687 OP_EQUAL",
      "scriptpubkey_type": "p2sh",
      "scriptpubkey_address": "3EzLu4FEXzNtTxr9yFrZXC8wqwfu2vDNmy",
      "value": 600
    },
    {
      "scriptpubkey": "a91491e08ba87ba1e0015a1d8dda90995f013c35e68787",
      "scriptpubkey_asm": "OP_HASH160 OP_PUSHBYTES_20 91e08ba87ba1e0015a1d8dda90995f013c35e687 OP_EQUAL",
      "scriptpubkey_type": "p2sh",
      "scriptpubkey_address": "3EzLu4FEXzNtTxr9yFrZXC8wqwfu2vDNmy",
      "value": 600
    },
    {
      "scriptpubkey": "a91491e08ba87ba1e0015a1d8dda90995f013c35e68787",
      "scriptpubkey_asm": "OP_HASH160 OP_PUSHBYTES_20 91e08ba87ba1e0015a1d8dda90995f013c35e687 OP_EQUAL",
      "scriptpubkey_type": "p2sh",
      "scriptpubkey_address": "3EzLu4FEXzNtTxr9yFrZXC8wqwfu2vDNmy",
      "value": 45442
    }
  ],
  "size": 1052,
  "weight": 2711,
  "fee": 11543,
  "status": {
    "confirmed": true,
    "block_height": 834552,
    "block_hash": "00000000000000000001dd0468a70c94f619251d286585cff57aeb4bd9ede330",
    "block_time": 1710355598
  },
  "hex": "02000000000105dddeb1adf224e9f8fdc15389809b2c2514b6dda26f63da08d76d1ef5695ae14e0700000017160014a21e55cba03154d731e0ee4a2cb0dced39408d59ffffffffdddeb1adf224e9f8fdc15389809b2c2514b6dda26f63da08d76d1ef5695ae14e0600000017160014a21e55cba03154d731e0ee4a2cb0dced39408d59ffffffffede07f42a4c10378b5913c2db93b644536730173cac922b6f65c040ea8bc56dd0000000000ffffffffdddeb1adf224e9f8fdc15389809b2c2514b6dda26f63da08d76d1ef5695ae14e0a00000017160014a21e55cba03154d731e0ee4a2cb0dced39408d59ffffffffecf62f6ac08560c9badcc57058442d63653ee6ebbacaf44dfe2c73a0a84232290900000017160014a21e55cba03154d731e0ee4a2cb0dced39408d59ffffffff07b00400000000000017a91491e08ba87ba1e0015a1d8dda90995f013c35e68787e803000000000000225120668d68f11ad1820fe45ac5931b31ac5e8a2798c98cf66edd1a7787d9546981a2c5f8000000000000225120a04796a889a3c8a76ea5d8fc6838a062fde8bef36797a7eaf167feb8ed58db8a270600000000000017a914ea6b832a05c6ca578baa3836f3f25553d41068a587580200000000000017a91491e08ba87ba1e0015a1d8dda90995f013c35e68787580200000000000017a91491e08ba87ba1e0015a1d8dda90995f013c35e6878782b100000000000017a91491e08ba87ba1e0015a1d8dda90995f013c35e687870247304402205b2076131fb7dfe20ca516f02dc1f135b6c1bf0979a6138585f8765eb01ecc990220784b72adf52a029ba2af1517c97d3757ce292ec922f6a1c3ac0dca0f89b528880121030494b4d96ad12fe8c28d7f0af3b1562e7e9dd59a1b0c7b64e7374fe2975a174702483045022100ebcb25ec78655adeb44ece2d40a51ba9e408684a7613fa90c51ec45555259ec4022039dff2af06ecf07e480a363e0f78dac814f492bb19fb0c70535257693d41919a0121030494b4d96ad12fe8c28d7f0af3b1562e7e9dd59a1b0c7b64e7374fe2975a1747014142d23fa6f67049e208448c754e2fdec907ab40af1024e7564cf8beaf0dce86f41f3bd36956c820a73d904e737343915a5147feb4437398b4b9c24df3013e88488302483045022100cbd981ca1b4bf7200979486e32fe3bf602d0ec3e9b184108aa8c97934358e7aa02204b24deaa87244a3b74da83e3000273522c112a235affa921c55f11f946c1558e0121030494b4d96ad12fe8c28d7f0af3b1562e7e9dd59a1b0c7b64e7374fe2975a17470247304402207f0d931af5fd2bb46612e11162661c7d83e23238deb1df29c83d40079a4ec46202200f57696e7856446b72e6833b5df26a6e1f37cd177b571bb8c5abff7dd8c3747e0121030494b4d96ad12fe8c28d7f0af3b1562e7e9dd59a1b0c7b64e7374fe2975a174700000000"
}