{
  "txid": "dd909ca02273d411a7eee842a79a0c9beda9f979d3a813ce4ae5a0484207545f",
  "version": 1,
  "locktime": 0,
  "vin": [
    {
      "txid": "27642449542c3943a1dc04f8deb70b8a6e3d6b7629c70a72c044873afb4beb4b",
      "vout": 0,
      "prevout": {
        "scriptpubkey": "00143ea7518a2935e93666d2e0b6b35bce34a121f272",
        "scriptpubkey_asm": "OP_0 OP_PUSHBYTES_20 3ea7518a2935e93666d2e0b6b35bce34a121f272",
        "scriptpubkey_type": "v0_p2wpkh",
        "scriptpubkey_address": "bc1q86n4rz3fxh5nvekjuzmtxk7wxjsjrunjmg9he4",
        "value": 6335079
      },
      "scriptsig": "",
      "scriptsig_asm": "",
      "witness": [
        "304402207a4fbc7a4fdd7323bcf8fa6883ffc4f8f81d1cf660aaaed1091289b3cbcfe9e902207b3f1cb6175af54cba5f11ecdfeae4664c2791a16174025676e23ae782628fbb01",
        "02e5216021e08d91346aa289cb16ca97e34959a7c65273df2613cb875d054c4e01"
      ],
      "is_coinbase": false,
      "sequence": 4294967293
    }
  ],
  "vout": [
    {
      "scriptpubkey": "001429cf637591633db8d8fde6164d520c583092bb3c",
      "scriptpubkey_asm": "OP_0 OP_PUSHBYTES_20 29cf637591633db8d8fde6164d520c583092bb3c",
      "scriptpubkey_type": "v0_p2wpkh",
      "scriptpubkey_address": "bc1q988kxav3vv7m3k8aucty65svtqcf9weuhtzrdw",
      "value": 1833105
    },
    {
      "scriptpubkey": "0014be9cbc5d1811c071fbc7268f0a617a40b7ccf49e",
      "scriptpubkey_asm": "OP_0 OP_PUSHBYTES_20 be9cbc5d1811c071fbc7268f0a617a40b7ccf49e",
      "scriptpubkey_type": "v0_p2wpkh",
      "scriptpubkey_address": "bc1qh6wtchgcz8q8r778y68s5ct6gzmueay7w56xj4",
      "value": 4500000
    }
  ],
  "size": 222,
  "weight": 561,
  "fee": 1974,
  "status": {
    "confirmed": true,
    "block_height": 834460,
    "block_hash": "00000000000000000000484a79b643b2524bbce82e5d8a442013fa5b8905ed98",
    "block_time": 1710307468
  },
  "hex": "010000000001014beb4bfb3a8744c0720ac729766b3d6e8a0bb7def804dca143392c54492464270000000000fdffffff0291f81b000000000016001429cf637591633db8d8fde6164d520c583092bb3c20aa440000000000160014be9cbc5d1811c071fbc7268f0a617a40b7ccf49e0247304402207a4fbc7a4fdd7323bcf8fa6883ffc4f8f81d1cf660aaaed1091289b3cbcfe9e902207b3f1cb6175af54cba5f11ecdfeae4664c2791a16174025676e23ae782628fbb012102e5216021e08d91346aa289cb16ca97e34959a7c65273df2613cb875d054c4e0100000000"
}