{
  "txid": "dd91ab9fbbbb83360962973c19e8bcf388790836d4a20e6e3c66724e0e917628",
  "version": 2,
  "locktime": 834457,
  "vin": [
    {
      "txid": "bd824a0cc819dc72162f347170b3813d70d7efc0985ba71487de13b1d6b8a5e8",
      "vout": 15,
      "prevout": {
        "scriptpubkey": "a9143986a471b37251110d121716db915fc5053f9d7a87",
        "scriptpubkey_asm": "OP_HASH160 OP_PUSHBYTES_20 3986a471b37251110d121716db915fc5053f9d7a OP_EQUAL",
        "scriptpubkey_type": "p2sh",
        "scriptpubkey_address": "36wBjbMzHYTAqTjtXV45crEpDMG6kvYR7h",
        "value": 55029
      },
      "scriptsig": "160014d4442a9b2e3c788d522d7726ec1ed0a3e3d8741d",
      "scriptsig_asm": "OP_PUSHBYTES_22 0014d4442a9b2e3c788d522d7726ec1ed0a3e3d8741d",
      "witness": [
        "30440220077b5fdc246dbeddec384233b02c92589874668d320ce0a9356599e43228893802207e336c00690fc1160db299c38ae37ff6b3e4fa1e2f072799f67ba050a9051f5701",
        "02b5d5a91496cbfe67d3d92af07c98a51d1fdd17b9185068a2356bc169ccd57e02"
      ],
      "is_coinbase": false,
      "sequence": 4294967293,
      "inner_redeemscript_asm": "OP_0 OP_PUSHBYTES_20 d4442a9b2e3c788d522d7726ec1ed0a3e3d8741d"
    },
    {
      "txid": "dae07fd632c7eb231d0da33aa49fa007bc912adf423a19f23695a5444aeaf24f",
      "vout": 344,
      "prevout": {
        "scriptpubkey": "a914ca96536eb94f5364e40cc2a3c89cd7bf4380ab6a87",
        "scriptpubkey_asm": "OP_HASH160 OP_PUSHBYTES_20 ca96536eb94f5364e40cc2a3c89cd7bf4380ab6a OP_EQUAL",
        "scriptpubkey_type": "p2sh",
        "scriptpubkey_address": "3LACW7xLZ5JJfDEAdfD61hLA3Gxxg7LWaK",
        "value": 134707
      },
      "scriptsig": "1600149c317b6a25dfe23bfb7c8e2a7fd149ce0c10a612",
      "scriptsig_asm": "OP_PUSHBYTES_22 00149c317b6a25dfe23bfb7c8e2a7fd149ce0c10a612",
      "witness": [
        "3044022021d5dd3128619be4dc9bcd3235780dfab1013ecef3fbcf38b1f71bf70ad4b9d302206f254242c07821f81628c66cacafe5e028ae05cd312505096f3ba017fe88011201",
        "02df138cd0cc8f36eda87daa2686db2ad34ad11e5f960e24425d1f4ec04adc3072"
      ],
      "is_coinbase": false,
      "sequence": 4294967293,
      "inner_redeemscript_asm": "OP_0 OP_PUSHBYTES_20 9c317b6a25dfe23bfb7c8e2a7fd149ce0c10a612"
    },
    {
      "txid": "677f0cd3db24bff4fc5297de16608dd8991461c521ab3dafd08015aa049613ca",
      "vout": 2,
      "prevout": {
        "scriptpubkey": "a91491b5f878ad470772cc67a899e35fbad73bf5cb6787",
        "scriptpubkey_asm": "OP_HASH160 OP_PUSHBYTES_20 91b5f878ad470772cc67a899e35fbad73bf5cb67 OP_EQUAL",
        "scriptpubkey_type": "p2sh",
        "scriptpubkey_address": "3EyTtu1Ue1WYJNw5ULortNsNs8F1MqDeoj",
        "value": 15885
      },
      "scriptsig": "1600141cb66d1d4c47d214d817083cc65f46e1761e6234",
      "scriptsig_asm": "OP_PUSHBYTES_22 00141cb66d1d4c47d214d817083cc65f46e1761e6234",
      "witness": [
        "30440220589a501aa91a40561ce9b1fa6cd0deb64e9817f1973ba7c500fe1f3c37edc3f702205acf42d016604da6b0e2665751a4c1e35f0389934ecd5e641b8ec72d1d20ddba01",
        "02e554fd6dcb6126c94c54e449d7713935c2f371bd58149a2f555cd10bf77a5398"
      ],
      "is_coinbase": false,
      "sequence": 4294967293,
      "inner_redeemscript_asm": "OP_0 OP_PUSHBYTES_20 1cb66d1d4c47d214d817083cc65f46e1761e6234"
    },
    {
      "txid": "5997c0e73c406ce7daa95a0f9ef0b3d1b9e796f87da6fb53fd5ada694b486b00",
      "vout": 526,
      "prevout": {
        "scriptpubkey": "a9146a31e983aa31d16d3239b3438055fb6ba065714687",
        "scriptpubkey_asm": "OP_HASH160 OP_PUSHBYTES_20 6a31e983aa31d16d3239b3438055fb6ba0657146 OP_EQUAL",
        "scriptpubkey_type": "p2sh",
        "scriptpubkey_address": "3BNXLqRxFdPs92whxbv4pZ7fqW65Mf4PKg",
        "value": 129539
      },
      "scriptsig": "160014bada70745cbe5c8a3bea98385fb151ff175dba01",
      "scriptsig_asm": "OP_PUSHBYTES_22 0014bada70745cbe5c8a3bea98385fb151ff175dba01",
      "witness": [
        "3044022057aa9d237ebe8acbb642a9bfef83007ab91b37269079002153f6e40a69eddb9202206bd588fe3a569688d35d2b2ad79dc3c99b9da9f9c3708887efa2a34f94029bbe01",
        "02a1cf5429b1da515d0dcc93a5ccc9c41de6e4838a988e99312f6516f84b5f94ae"
      ],
      "is_coinbase": false,
      "sequence": 4294967293,
      "inner_redeemscript_asm": "OP_0 OP_PUSHBYTES_20 bada70745cbe5c8a3bea98385fb151ff175dba01"
    },
    {
      "txid": "8ad12c5a4089764da265a3371ebe9462e95079a10b5b2394ed522ad94dc69f40",
      "vout": 1085,
      "prevout": {
        "scriptpubkey": "a9147c8018807fda79a8041f6efc7d25bb7146245b8187",
        "scriptpubkey_asm": "OP_HASH160 OP_PUSHBYTES_20 7c8018807fda79a8041f6efc7d25bb7146245b81 OP_EQUAL",
        "scriptpubkey_type": "p2sh",
        "scriptpubkey_address": "3D3KAaQQbnVySqcr15GL13Wz9zmEE5tPiE",
        "value": 104025
      },
      "scriptsig": "160014143bdc72601d41ae622935a6cf318e7b42935e5b",
      "scriptsig_asm": "OP_PUSHBYTES_22 0014143bdc72601d41ae622935a6cf318e7b42935e5b",
      "witness": [
        "3044022051703798ba1a117660c84d1776aa2b5564e6f73060269587a4e4f93d030b532a02206299ef7d88b85c076212797564d82934074b468cdce0445b4d51c06e7e95afb201",
        "035e035faad26388c954dafa041c7ff8b61713ec4d23e00f0b89a4fce4ce471c6d"
      ],
      "is_coinbase": false,
      "sequence": 4294967293,
      "inner_redeemscript_asm": "OP_0 OP_PUSHBYTES_20 143bdc72601d41ae622935a6cf318e7b42935e5b"
    },
    {
      "txid": "dae07fd632c7eb231d0da33aa49fa007bc912adf423a19f23695a5444aeaf24f",
      "vout": 403,
      "prevout": {
        "scriptpubkey": "a91439520a8dbf20c595fde57038ed62350e9890335c87",
        "scriptpubkey_asm": "OP_HASH160 OP_PUSHBYTES_20 39520a8dbf20c595fde57038ed62350e9890335c OP_EQUAL",
        "scriptpubkey_type": "p2sh",
        "scriptpubkey_address": "36v6ioVPqtLH6je46nawwWYqZwq6Kq7hUz",
        "value": 1017701
      },
      "scriptsig": "160014107518daecdf5751a4275f7f44e9d56dbc3210d4",
      "scriptsig_asm": "OP_PUSHBYTES_22 0014107518daecdf5751a4275f7f44e9d56dbc3210d4",
      "witness": [
        "30440220397aeb59ef8fb69466075c232a9d4dfdfabc715e36d4cb59aa0652e0862256dc02205287fbde040a84b3029232f727f9b5515d8a876e85b910abbc5342d8bbe7082301",
        "032877426dafa4becae60e8566b9c68dcd182c358f3fd04435108bca8ebfb3cdb3"
      ],
      "is_coinbase": false,
      "sequence": 4294967293,
      "inner_redeemscript_asm": "OP_0 OP_PUSHBYTES_20 107518daecdf5751a4275f7f44e9d56dbc3210d4"
    },
    {
      "txid": "5997c0e73c406ce7daa95a0f9ef0b3d1b9e796f87da6fb53fd5ada694b486b00",
      "vout": 1226,
      "prevout": {
        "scriptpubkey": "a91407ab18e03fb75f19b48efee0e1bca32840337b8a87",
        "scriptpubkey_asm": "OP_HASH160 OP_PUSHBYTES_20 07ab18e03fb75f19b48efee0e1bca32840337b8a OP_EQUAL",
        "scriptpubkey_type": "p2sh",
        "scriptpubkey_address": "32PZcvguYb2e64r2igsC5NN3SYWbJrWtxA",
        "value": 118300
      },
      "scriptsig": "16001445ee2e39c8e5bee5186ba547437a529003fc1a6a",
      "scriptsig_asm": "OP_PUSHBYTES_22 001445ee2e39c8e5bee5186ba547437a529003fc1a6a",
      "witness": [
        "304402202c1c0982b19c875634f5fd4f2f952e011b2915019b50e255b0c818237e3de74902202991f5e9976817bcdfec5be768fe758edcf003a7e303591b2dab74f52722797c01",
        "03345cc961f9373242d6a07507e421aceb459aa6ed8feaf9f483046c9357ccd3c1"
      ],
      "is_coinbase": false,
      "sequence": 4294967293,
      "inner_redeemscript_asm": "OP_0 OP_PUSHBYTES_20 45ee2e39c8e5bee5186ba547437a529003fc1a6a"
    },
    {
      "txid": "5997c0e73c406ce7daa95a0f9ef0b3d1b9e796f87da6fb53fd5ada694b486b00",
      "vout": 1236,
      "prevout": {
        "scriptpubkey": "a914e08791246366e71f350ea500dd9da96d027759dd87",
        "scriptpubkey_asm": "OP_HASH160 OP_PUSHBYTES_20 e08791246366e71f350ea500dd9da96d027759dd OP_EQUAL",
        "scriptpubkey_type": "p2sh",
        "scriptpubkey_address": "3NADgsVbFzmR1dSQCvToWooiNUnrrBnvov",
        "value": 109064
      },
      "scriptsig": "160014cbe56b92756a466f17ba9d39f083a39f1895a43b",
      "scriptsig_asm": "OP_PUSHBYTES_22 0014cbe56b92756a466f17ba9d39f083a39f1895a43b",
      "witness": [
        "30440220317836575be9ec52bb54ae95ade05b47afa9f8f6db2765a08c06a16ffb0a29c00220183d98edc7203d8ac4c5850502ef659b73e82d3acf647287cd76edaf8561a76e01",
        "02d2b25fbc333b0a5c1d4fc0e0380dc74f7ce7b3912506cfee0113f79445808521"
      ],
      "is_coinbase": false,
      "sequence": 4294967293,
      "inner_redeemscript_asm": "OP_0 OP_PUSHBYTES_20 cbe56b92756a466f17ba9d39f083a39f1895a43b"
    },
    {
      "txid": "f62cc02807d2f4e01c70b97bb29f954dc2b461feff4f98280393b4d11146ff4d",
      "vout": 8,
      "prevout": {
        "scriptpubkey": "a914db90a9b9255a62d00c80a52363c9ef02123e29d487",
        "scriptpubkey_asm": "OP_HASH160 OP_PUSHBYTES_20 db90a9b9255a62d00c80a52363c9ef02123e29d4 OP_EQUAL",
        "scriptpubkey_type": "p2sh",
        "scriptpubkey_address": "3MhyCv1YheftNcZv7fQdrTHYqpv8gHD1Ek",
        "value": 48202
      },
      "scriptsig": "16001430e2d1ae107c7c816f8ac97e2038cbd2b6e8ea49",
      "scriptsig_asm": "OP_PUSHBYTES_22 001430e2d1ae107c7c816f8ac97e2038cbd2b6e8ea49",
      "witness": [
        "304402207ac69ba82badac5ffb9a62adc04c0567e88995104fd2f0aa2d89906b5479d371022042c2de6a376e4f64c887ede46bd9cbef7572b58d9e4c7a6bc7da7c05cf52d8fd01",
        "025d5df49c728a522800824f867b0d03f88aae21a137642752dd5d08e10dd3736e"
      ],
      "is_coinbase": false,
      "sequence": 4294967293,
      "inner_redeemscript_asm": "OP_0 OP_PUSHBYTES_20 30e2d1ae107c7c816f8ac97e2038cbd2b6e8ea49"
    },
    {
      "txid": "02784bf1e4a8eef74279a8f2971f31d46bfdc93db5994fde53e33284998dff1a",
      "vout": 866,
      "prevout": {
        "scriptpubkey": "a914a9594466ea22021ff5745bf28c8ffa81d33c685d87",
        "scriptpubkey_asm": "OP_HASH160 OP_PUSHBYTES_20 a9594466ea22021ff5745bf28c8ffa81d33c685d OP_EQUAL",
        "scriptpubkey_type": "p2sh",
        "scriptpubkey_address": "3H8T4MdjPJ7YfSwSC9Bxn7zfTgJrjG5L2g",
        "value": 12466
      },
      "scriptsig": "16001440f2c25d44a221599e39d1e9e401c4840d3e8bd7",
      "scriptsig_asm": "OP_PUSHBYTES_22 001440f2c25d44a221599e39d1e9e401c4840d3e8bd7",
      "witness": [
        "304402200b13308cb5839f337bdc12d7b56203d84988522c914e5376d5b87a59c4515a6902205a137ff23d7d1608219c69ee6dfca638ef37d82d25e1ee64cb4c75246a5f1a5b01",
        "038dbd14ff0e1a86531c46ab5031a588cb6cc86d60882b1903a359c506a616dd7e"
      ],
      "is_coinbase": false,
      "sequence": 4294967293,
      "inner_redeemscript_asm": "OP_0 OP_PUSHBYTES_20 40f2c25d44a221599e39d1e9e401c4840d3e8bd7"
    },
    {
      "txid": "9e119bf92da5d1e7065fe2a648a3676d48f5f501040c86b58ed91f40f730ce5a",
      "vout": 2,
      "prevout": {
        "scriptpubkey": "a914eedff6b90ea76aabf72e46b791b5dc4a9d9e5fac87",
        "scriptpubkey_asm": "OP_HASH160 OP_PUSHBYTES_20 eedff6b90ea76aabf72e46b791b5dc4a9d9e5fac OP_EQUAL",
        "scriptpubkey_type": "p2sh",
        "scriptpubkey_address": "3PU53UTufxkzFwHNbcrJxEtLYT2QGSShno",
        "value": 54634
      },
      "scriptsig": "1600145c8cbc0d9ec6e1895ba01160f976e981b68f2a24",
      "scriptsig_asm": "OP_PUSHBYTES_22 00145c8cbc0d9ec6e1895ba01160f976e981b68f2a24",
      "witness": [
        "304402207eebcccff1ac546510d40fa1a7206d048bfd3642527306ce59a8e900c65321d102207c84a6969640080a949aa2f345706b6b732d56cc1a7475bd86737f97d6fe741601",
        "026163eaefbaca368e95f42079309b52f6e9d7b003f9312176b0ee66a3e865a4c2"
      ],
      "is_coinbase": false,
      "sequence": 4294967293,
      "inner_redeemscript_asm": "OP_0 OP_PUSHBYTES_20 5c8cbc0d9ec6e1895ba01160f976e981b68f2a24"
    },
    {
      "txid": "8ad12c5a4089764da265a3371ebe9462e95079a10b5b2394ed522ad94dc69f40",
      "vout": 246,
      "prevout": {
        "scriptpubkey": "a914395e12b50e1d1b429a1b073de6ae5f4a7636fbf187",
        "scriptpubkey_asm": "OP_HASH160 OP_PUSHBYTES_20 395e12b50e1d1b429a1b073de6ae5f4a7636fbf1 OP_EQUAL",
        "scriptpubkey_type": "p2sh",
        "scriptpubkey_address": "36vM8nmcYzHhHi1FgyZwgMEfTM939WAMto",
        "value": 147473
      },
      "scriptsig": "16001445252beb0a8c3d64d9fc3553bc8885893417be71",
      "scriptsig_asm": "OP_PUSHBYTES_22 001445252beb0a8c3d64d9fc3553bc8885893417be71",
      "witness": [
        "30440220400779c01c02d05cebf24886a9ec60cadbc7788a5a70b484d19d58c99eaa14fc022008ff773ef0dbd4e01c20e9f15e452fd3427bf7814a43f6248af78747de814db501",
        "03fd1686d65efae66128b806a20b886c090bc2e4797922dc9fd35ff5fce90f4564"
      ],
      "is_coinbase": false,
      "sequence": 4294967293,
      "inner_redeemscript_asm": "OP_0 OP_PUSHBYTES_20 45252beb0a8c3d64d9fc3553bc8885893417be71"
    },
    {
      "txid": "3109cb58eae4fd63dd10f31782f022fe04dc24559f25c5685a5689927e043167",
      "vout": 1,
      "prevout": {
        "scriptpubkey": "a91447d264b86d0530127f5f115ce277e6fc3438dcbd87",
        "scriptpubkey_asm": "OP_HASH160 OP_PUSHBYTES_20 47d264b86d0530127f5f115ce277e6fc3438dcbd OP_EQUAL",
        "scriptpubkey_type": "p2sh",
        "scriptpubkey_address": "38EmwZD7S9RY51ff7WoncTufE8CY4Fw5yy",
        "value": 36495
      },
      "scriptsig": "160014d3c54a626dcee1ac30449861da4697e05b3ef71e",
      "scriptsig_asm": "OP_PUSHBYTES_22 0014d3c54a626dcee1ac30449861da4697e05b3ef71e",
      "witness": [
        "3044022066195fb8f2ccbd70a6bb668e2d625ea10969bd5884449f794184cb82701e4f860220378d40dd42c2f9dd891f87e72dedda4dff5ce74022bc99f8d1b05c8ec82885e801",
        "0381326e58e168ef00641806dad808b3d8596f91277e7bb7800cb38005d18e87e1"
      ],
      "is_coinbase": false,
      "sequence": 4294967293,
      "inner_redeemscript_asm": "OP_0 OP_PUSHBYTES_20 d3c54a626dcee1ac30449861da4697e05b3ef71e"
    },
    {
      "txid": "dae07fd632c7eb231d0da33aa49fa007bc912adf423a19f23695a5444aeaf24f",
      "vout": 905,
      "prevout": {
        "scriptpubkey": "a9146d7edc7d6fa3c9964e66f4d8f84033d6b0d6f76987",
        "scriptpubkey_asm": "OP_HASH160 OP_PUSHBYTES_20 6d7edc7d6fa3c9964e66f4d8f84033d6b0d6f769 OP_EQUAL",
        "scriptpubkey_type": "p2sh",
        "scriptpubkey_address": "3BfyYvuJaCDsgLY9MvypnmnhrtWEDEiyd6",
        "value": 112125
      },
      "scriptsig": "16001414c3c7ca67283c64d4b5c7bfdede3a6237d91921",
      "scriptsig_asm": "OP_PUSHBYTES_22 001414c3c7ca67283c64d4b5c7bfdede3a6237d91921",
      "witness": [
        "304402201bb82abd7ab4a419c11a8a24757ba949bb83c6de67ddb07e0d3e9dd35d99632f02200404ecb2bc3cdc2aa0a0cfff467b5d8c34f8408e87f06d1081744f61d0ab79b901",
        "02cef53e4e23641f196fdd814a8177fa373431d628304d6227f259fe3248ec324e"
      ],
      "is_coinbase": false,
      "sequence": 4294967293,
      "inner_redeemscript_asm": "OP_0 OP_PUSHBYTES_20 14c3c7ca67283c64d4b5c7bfdede3a6237d91921"
    },
    {
      "txid": "5b4725c957d2d8483017b7b61d65428c6351e703e6f6cdfbaf4b5f2d6b9b7fbe",
      "vout": 3,
      "prevout": {
        "scriptpubkey": "a914bedbedbae079359036f196441f73af4420d9a91687",
        "scriptpubkey_asm": "OP_HASH160 OP_PUSHBYTES_20 bedbedbae079359036f196441f73af4420d9a916 OP_EQUAL",
        "scriptpubkey_type": "p2sh",
        "scriptpubkey_address": "3K6BmuCeU85BmaiTjUa9eygcJCPoSGBs72",
        "value": 40000
      },
      "scriptsig": "16001405954f911ff093777b94b1e152021b898b98f04a",
      "scriptsig_asm": "OP_PUSHBYTES_22 001405954f911ff093777b94b1e152021b898b98f04a",
      "witness": [
        "304402205f2380268981b4a47df066959ec2a3c2a4f07d180921c4714d910c9ebbfc9b3102203238ebbe2f5a54aba7deb7731567e496dd610e981461d20fec68f91dd50ae07101",
        "02ee07b0b41c8c08a423e1fa867da9251c02b2def922795273a8058327fb277442"
      ],
      "is_coinbase": false,
      "sequence": 4294967293,
      "inner_redeemscript_asm": "OP_0 OP_PUSHBYTES_20 05954f911ff093777b94b1e152021b898b98f04a"
    },
    {
      "txid": "bf0d5513d6aa0e29f2f8b24ce83e3143bcb8ce08246acec203b63e61bf6f63df",
      "vout": 1871,
      "prevout": {
        "scriptpubkey": "a914d5a8f8ffb0dca0cfeda54d565808ef53ca03655387",
        "scriptpubkey_asm": "OP_HASH160 OP_PUSHBYTES_20 d5a8f8ffb0dca0cfeda54d565808ef53ca036553 OP_EQUAL",
        "scriptpubkey_type": "p2sh",
        "scriptpubkey_address": "3MAkGq3y9eqC9KhKr9L1DvYSEbHo48hmrA",
        "value": 58511
      },
      "scriptsig": "1600144ecb0affacfbd1c38d8990cd77dd21da2ba7dcb3",
      "scriptsig_asm": "OP_PUSHBYTES_22 00144ecb0affacfbd1c38d8990cd77dd21da2ba7dcb3",
      "witness": [
        "304402204f46958b833641848f22108062d9045ca88322984117cffb1bf5b36fae3f80d60220716db333311e87e15853b052d90ee974b9de9328a6fc66d9c515eb7f0a173ed001",
        "036d39821a0b7d512a0ed997c3870dac708d5cce88c822d8750a41bd3ed846a0cf"
      ],
      "is_coinbase": false,
      "sequence": 4294967293,
      "inner_redeemscript_asm": "OP_0 OP_PUSHBYTES_20 4ecb0affacfbd1c38d8990cd77dd21da2ba7dcb3"
    },
    {
      "txid": "f68bd4905bc952cfde9a1a3bac9a674190f4365a61f42e5bce70dd11a1dc0844",
      "vout": 0,
      "prevout": {
        "scriptpubkey": "a914f6d09eee842380fe8f2f7ff66a242e42f2a1ddcb87",
        "scriptpubkey_asm": "OP_HASH160 OP_PUSHBYTES_20 f6d09eee842380fe8f2f7ff66a242e42f2a1ddcb OP_EQUAL",
        "scriptpubkey_type": "p2sh",
        "scriptpubkey_address": "3QC44xpW7UnjPE63KUZK1BMcCU9XUA9p4S",
        "value": 7962
      },
      "scriptsig": "160014cddf03280e1617f71e7b4bc2dec049611dbdaa18",
      "scriptsig_asm": "OP_PUSHBYTES_22 0014cddf03280e1617f71e7b4bc2dec049611dbdaa18",
      "witness": [
        "304402205c14fb55f6bcc5de9717b920c8061330cb0128dc0f426d5942a98e148ac134c202203d688777dad10c3aee2cd7eba80609e782dd6beb8ebef422e80912258796ba4a01",
        "03d9b70ea9472b15596ba630f7534917442872818ca7891779c6e76e7408263927"
      ],
      "is_coinbase": false,
      "sequence": 4294967293,
      "inner_redeemscript_asm": "OP_0 OP_PUSHBYTES_20 cddf03280e1617f71e7b4bc2dec049611dbdaa18"
    },
    {
      "txid": "f32c0e0cca57a1f93f208df811c4819e3efb0a51c7f0b9191472ed660be47a30",
      "vout": 710,
      "prevout": {
        "scriptpubkey": "a91412e12e4f7d4364c608b326118b18b974e77b0e1387",
        "scriptpubkey_asm": "OP_HASH160 OP_PUSHBYTES_20 12e12e4f7d4364c608b326118b18b974e77b0e13 OP_EQUAL",
        "scriptpubkey_type": "p2sh",
        "scriptpubkey_address": "33QqqqfrMy2dtBAiJ2vQEizu3mZK1bSTXN",
        "value": 104889
      },
      "scriptsig": "1600147f433f56d5ec6be88d540ee5f62c672e6638f755",
      "scriptsig_asm": "OP_PUSHBYTES_22 00147f433f56d5ec6be88d540ee5f62c672e6638f755",
      "witness": [
        "304402200704258aa9a36d62b15c84a2fa73a5d5c93b954d2642b4e521514c7f0d89e800022078866df45ef22e31fb0389f9e3f107dd98c68c113f5571868a9fe682f089240b01",
        "03b5ebf815bb55580066c0e6a930eb00c6b178802f4a90c949f6e3370ccd2aa01a"
      ],
      "is_coinbase": false,
      "sequence": 4294967293,
      "inner_redeemscript_asm": "OP_0 OP_PUSHBYTES_20 7f433f56d5ec6be88d540ee5f62c672e6638f755"
    },
    {
      "txid": "5997c0e73c406ce7daa95a0f9ef0b3d1b9e796f87da6fb53fd5ada694b486b00",
      "vout": 793,
      "prevout": {
        "scriptpubkey": "a9142b3a738853370ea0dfbb5cd7b60532a0eae95f6387",
        "scriptpubkey_asm": "OP_HASH160 OP_PUSHBYTES_20 2b3a738853370ea0dfbb5cd7b60532a0eae95f63 OP_EQUAL",
        "scriptpubkey_type": "p2sh",
        "scriptpubkey_address": "35db14RnYUyCAoUgfq1apVx687RcS62rB4",
        "value": 122900
      },
      "scriptsig": "16001435cbf7eca8282e752ee27cea1c4cb3eba3dab887",
      "scriptsig_asm": "OP_PUSHBYTES_22 001435cbf7eca8282e752ee27cea1c4cb3eba3dab887",
      "witness": [
        "304402204ce2290efb1a4b8cf89e486ee481a888b0fcbc64bb822e37ec8e58a6e62ec7320220031f43e91f04b843ee3c327815313fdf51e42f32a838e69f12a3a5a1110b5faa01",
        "0281082e3663fde38516a863341ef88e6beafb8e1b5643d76319967614d801b923"
      ],
      "is_coinbase": false,
      "sequence": 4294967293,
      "inner_redeemscript_asm": "OP_0 OP_PUSHBYTES_20 35cbf7eca8282e752ee27cea1c4cb3eba3dab887"
    },
    {
      "txid": "b8a475b04c958783ffdb2bc4f2f259e16909ec67f163bf32b197952c5c240ed8",
      "vout": 0,
      "prevout": {
        "scriptpubkey": "a91447d264b86d0530127f5f115ce277e6fc3438dcbd87",
        "scriptpubkey_asm": "OP_HASH160 OP_PUSHBYTES_20 47d264b86d0530127f5f115ce277e6fc3438dcbd OP_EQUAL",
        "scriptpubkey_type": "p2sh",
        "scriptpubkey_address": "38EmwZD7S9RY51ff7WoncTufE8CY4Fw5yy",
        "value": 34267
      },
      "scriptsig": "160014d3c54a626dcee1ac30449861da4697e05b3ef71e",
      "scriptsig_asm": "OP_PUSHBYTES_22 0014d3c54a626dcee1ac30449861da4697e05b3ef71e",
      "witness": [
        "3044022033e296bfbe82efb1c87490cde9a58be87688c15aef150275e5988a9c173d3fb002205f578785a1658464ad042b47980af5250209419659e0bd82245dc80eb3c878b401",
        "0381326e58e168ef00641806dad808b3d8596f91277e7bb7800cb38005d18e87e1"
      ],
      "is_coinbase": false,
      "sequence": 4294967293,
      "inner_redeemscript_asm": "OP_0 OP_PUSHBYTES_20 d3c54a626dcee1ac30449861da4697e05b3ef71e"
    },
    {
      "txid": "5468c8119a8b5d9782a9c047d227dd615edc636b1c4131ca0590b990843ae837",
      "vout": 14,
      "prevout": {
        "scriptpubkey": "a914c5907958347271a02000799ed00dc13b5b3ba79987",
        "scriptpubkey_asm": "OP_HASH160 OP_PUSHBYTES_20 c5907958347271a02000799ed00dc13b5b3ba799 OP_EQUAL",
        "scriptpubkey_type": "p2sh",
        "scriptpubkey_address": "3Khe7ZfYQ6dEyq2aC1g13HHrhiT77qinzV",
        "value": 59682
      },
      "scriptsig": "160014808a83711919e70d26adb8a33e2799d145bc5dba",
      "scriptsig_asm": "OP_PUSHBYTES_22 0014808a83711919e70d26adb8a33e2799d145bc5dba",
      "witness": [
        "304402203250ea94d4b5b85c9f4b78fb8d058d2431ed1dc5385de13d7facbaba6935ecb602203b91c6a5563b42997e174aedc5ac32ba06574c94cc8619001ce2b02e2102106101",
        "028d832e6a5739d694717ae2a6ec7845a4f3241cf0512dad997ea5666c09b682c4"
      ],
      "is_coinbase": false,
      "sequence": 4294967293,
      "inner_redeemscript_asm": "OP_0 OP_PUSHBYTES_20 808a83711919e70d26adb8a33e2799d145bc5dba"
    }
  ],
  "vout": [
    {
      "scriptpubkey": "001447bcdaae1a735c4218bc4339546fef5a7f5a2e6e",
      "scriptpubkey_asm": "OP_0 OP_PUSHBYTES_20 47bcdaae1a735c4218bc4339546fef5a7f5a2e6e",
      "scriptpubkey_type": "v0_p2wpkh",
      "scriptpubkey_address": "bc1qg77d4ts6wdwyyx9ugvu4gml0tfl45tnw2crhfz",
      "value": 2500480
    }
  ],
  "size": 3634,
  "weight": 7789,
  "fee": 23376,
  "status": {
    "confirmed": true,
    "block_height": 834460,
    "block_hash": "00000000000000000000484a79b643b2524bbce82e5d8a442013fa5b8905ed98",
    "block_time": 1710307468
  },
  "hex": "02000000000115e8a5b8d6b113de8714a75b98c0efd7703d81b37071342f1672dc19c80c4a82bd0f00000017160014d4442a9b2e3c788d522d7726ec1ed0a3e3d8741dfdffffff4ff2ea4a44a59536f2193a42df2a91bc07a09fa43aa30d1d23ebc732d67fe0da58010000171600149c317b6a25dfe23bfb7c8e2a7fd149ce0c10a612fdffffffca139604aa1580d0af3dab21c5611499d88d6016de9752fcf4bf24dbd30c7f6702000000171600141cb66d1d4c47d214d817083cc65f46e1761e6234fdffffff006b484b69da5afd53fba67df896e7b9d1b3f09e0f5aa9dae76c403ce7c097590e02000017160014bada70745cbe5c8a3bea98385fb151ff175dba01fdffffff409fc64dd92a52ed94235b0ba17950e96294be1e37a365a24d7689405a2cd18a3d04000017160014143bdc72601d41ae622935a6cf318e7b42935e5bfdffffff4ff2ea4a44a59536f2193a42df2a91bc07a09fa43aa30d1d23ebc732d67fe0da9301000017160014107518daecdf5751a4275f7f44e9d56dbc3210d4fdffffff006b484b69da5afd53fba67df896e7b9d1b3f09e0f5aa9dae76c403ce7c09759ca0400001716001445ee2e39c8e5bee5186ba547437a529003fc1a6afdffffff006b484b69da5afd53fba67df896e7b9d1b3f09e0f5aa9dae76c403ce7c09759d404000017160014cbe56b92756a466f17ba9d39f083a39f1895a43bfdffffff4dff4611d1b4930328984ffffe61b4c24d959fb27bb9701ce0f4d20728c02cf6080000001716001430e2d1ae107c7c816f8ac97e2038cbd2b6e8ea49fdffffff1aff8d998432e353de4f99b53dc9fd6bd4311f97f2a87942f7eea8e4f14b7802620300001716001440f2c25d44a221599e39d1e9e401c4840d3e8bd7fdffffff5ace30f7401fd98eb5860c0401f5f5486d67a348a6e25f06e7d1a52df99b119e02000000171600145c8cbc0d9ec6e1895ba01160f976e981b68f2a24fdffffff409fc64dd92a52ed94235b0ba17950e96294be1e37a365a24d7689405a2cd18af60000001716001445252beb0a8c3d64d9fc3553bc8885893417be71fdffffff6731047e9289565a68c5259f5524dc04fe22f08217f310dd63fde4ea58cb09310100000017160014d3c54a626dcee1ac30449861da4697e05b3ef71efdffffff4ff2ea4a44a59536f2193a42df2a91bc07a09fa43aa30d1d23ebc732d67fe0da890300001716001414c3c7ca67283c64d4b5c7bfdede3a6237d91921fdffffffbe7f9b6b2d5f4baffbcdf6e603e751638c42651db6b7173048d8d257c925475b030000001716001405954f911ff093777b94b1e152021b898b98f04afdffffffdf636fbf613eb603c2ce6a2408ceb8bc43313ee84cb2f8f2290eaad613550dbf4f070000171600144ecb0affacfbd1c38d8990cd77dd21da2ba7dcb3fdffffff4408dca111dd70ce5b2ef4615a36f49041679aac3b1a9adecf52c95b90d48bf60000000017160014cddf03280e1617f71e7b4bc2dec049611dbdaa18fdffffff307ae40b66ed721419b9f0c7510afb3e9e81c411f88d203ff9a157ca0c0e2cf3c6020000171600147f433f56d5ec6be88d540ee5f62c672e6638f755fdffffff006b484b69da5afd53fba67df896e7b9d1b3f09e0f5aa9dae76c403ce7c09759190300001716001435cbf7eca8282e752ee27cea1c4cb3eba3dab887fdffffffd80e245c2c9597b132bf63f167ec0969e159f2f2c42bdbff8387954cb075a4b80000000017160014d3c54a626dcee1ac30449861da4697e05b3ef71efdffffff37e83a8490b99005ca31411c6b63dc5e61dd27d247c0a982975d8b9a11c868540e00000017160014808a83711919e70d26adb8a33e2799d145bc5dbafdffffff01802726000000000016001447bcdaae1a735c4218bc4339546fef5a7f5a2e6e024730440220077b5fdc246dbeddec384233b02c92589874668d320ce0a9356599e43228893802207e336c00690fc1160db299c38ae37ff6b3e4fa1e2f072799f67ba050a9051f57012102b5d5a91496cbfe67d3d92af07c98a51d1fdd17b9185068a2356bc169ccd57e0202473044022021d5dd3128619be4dc9bcd3235780dfab1013ecef3fbcf38b1f71bf70ad4b9d302206f254242c07821f81628c66cacafe5e028ae05cd312505096f3ba017fe880112012102df138cd0cc8f36eda87daa2686db2ad34ad11e5f960e24425d1f4ec04adc3072024730440220589a501aa91a40561ce9b1fa6cd0deb64e9817f1973ba7c500fe1f3c37edc3f702205acf42d016604da6b0e2665751a4c1e35f0389934ecd5e641b8ec72d1d20ddba012102e554fd6dcb6126c94c54e449d7713935c2f371bd58149a2f555cd10bf77a539802473044022057aa9d237ebe8acbb642a9bfef83007ab91b37269079002153f6e40a69eddb9202206bd588fe3a569688d35d2b2ad79dc3c99b9da9f9c3708887efa2a34f94029bbe012102a1cf5429b1da515d0dcc93a5ccc9c41de6e4838a988e99312f6516f84b5f94ae02473044022051703798ba1a117660c84d1776aa2b5564e6f73060269587a4e4f93d030b532a02206299ef7d88b85c076212797564d82934074b468cdce0445b4d51c06e7e95afb20121035e035faad26388c954dafa041c7ff8b61713ec4d23e00f0b89a4fce4ce471c6d024730440220397aeb59ef8fb69466075c232a9d4dfdfabc715e36d4cb59aa0652e0862256dc02205287fbde040a84b3029232f727f9b5515d8a876e85b910abbc5342d8bbe708230121032877426dafa4becae60e8566b9c68dcd182c358f3fd04435108bca8ebfb3cdb30247304402202c1c0982b19c875634f5fd4f2f952e011b2915019b50e255b0c818237e3de74902202991f5e9976817bcdfec5be768fe758edcf003a7e303591b2dab74f52722797c012103345cc961f9373242d6a07507e421aceb459aa6ed8feaf9f483046c9357ccd3c1024730440220317836575be9ec52bb54ae95ade05b47afa9f8f6db2765a08c06a16ffb0a29c00220183d98edc7203d8ac4c5850502ef659b73e82d3acf647287cd76edaf8561a76e012102d2b25fbc333b0a5c1d4fc0e0380dc74f7ce7b3912506cfee0113f794458085210247304402207ac69ba82badac5ffb9a62adc04c0567e88995104fd2f0aa2d89906b5479d371022042c2de6a376e4f64c887ede46bd9cbef7572b58d9e4c7a6bc7da7c05cf52d8fd0121025d5df49c728a522800824f867b0d03f88aae21a137642752dd5d08e10dd3736e0247304402200b13308cb5839f337bdc12d7b56203d84988522c914e5376d5b87a59c4515a6902205a137ff23d7d1608219c69ee6dfca638ef37d82d25e1ee64cb4c75246a5f1a5b0121038dbd14ff0e1a86531c46ab5031a588cb6cc86d60882b1903a359c506a616dd7e0247304402207eebcccff1ac546510d40fa1a7206d048bfd3642527306ce59a8e900c65321d102207c84a6969640080a949aa2f345706b6b732d56cc1a7475bd86737f97d6fe74160121026163eaefbaca368e95f42079309b52f6e9d7b003f9312176b0ee66a3e865a4c2024730440220400779c01c02d05cebf24886a9ec60cadbc7788a5a70b484d19d58c99eaa14fc022008ff773ef0dbd4e01c20e9f15e452fd3427bf7814a43f6248af78747de814db5012103fd1686d65efae66128b806a20b886c090bc2e4797922dc9fd35ff5fce90f456402473044022066195fb8f2ccbd70a6bb668e2d625ea10969bd5884449f794184cb82701e4f860220378d40dd42c2f9dd891f87e72dedda4dff5ce74022bc99f8d1b05c8ec82885e801210381326e58e168ef00641806dad808b3d8596f91277e7bb7800cb38005d18e87e10247304402201bb82abd7ab4a419c11a8a24757ba949bb83c6de67ddb07e0d3e9dd35d99632f02200404ecb2bc3cdc2aa0a0cfff467b5d8c34f8408e87f06d1081744f61d0ab79b9012102cef53e4e23641f196fdd814a8177fa373431d628304d6227f259fe3248ec324e0247304402205f2380268981b4a47df066959ec2a3c2a4f07d180921c4714d910c9ebbfc9b3102203238ebbe2f5a54aba7deb7731567e496dd610e981461d20fec68f91dd50ae071012102ee07b0b41c8c08a423e1fa867da9251c02b2def922795273a8058327fb2774420247304402204f46958b833641848f22108062d9045ca88322984117cffb1bf5b36fae3f80d60220716db333311e87e15853b052d90ee974b9de9328a6fc66d9c515eb7f0a173ed00121036d39821a0b7d512a0ed997c3870dac708d5cce88c822d8750a41bd3ed846a0cf0247304402205c14fb55f6bcc5de9717b920c8061330cb0128dc0f426d5942a98e148ac134c202203d688777dad10c3aee2cd7eba80609e782dd6beb8ebef422e80912258796ba4a012103d9b70ea9472b15596ba630f7534917442872818ca7891779c6e76e74082639270247304402200704258aa9a36d62b15c84a2fa73a5d5c93b954d2642b4e521514c7f0d89e800022078866df45ef22e31fb0389f9e3f107dd98c68c113f5571868a9fe682f089240b012103b5ebf815bb55580066c0e6a930eb00c6b178802f4a90c949f6e3370ccd2aa01a0247304402204ce2290efb1a4b8cf89e486ee481a888b0fcbc64bb822e37ec8e58a6e62ec7320220031f43e91f04b843ee3c327815313fdf51e42f32a838e69f12a3a5a1110b5faa01210281082e3663fde38516a863341ef88e6beafb8e1b5643d76319967614d801b92302473044022033e296bfbe82efb1c87490cde9a58be87688c15aef150275e5988a9c173d3fb002205f578785a1658464ad042b47980af5250209419659e0bd82245dc80eb3c878b401210381326e58e168ef00641806dad808b3d8596f91277e7bb7800cb38005d18e87e10247304402203250ea94d4b5b85c9f4b78fb8d058d2431ed1dc5385de13d7facbaba6935ecb602203b91c6a5563b42997e174aedc5ac32ba06574c94cc8619001ce2b02e210210610121028d832e6a5739d694717ae2a6ec7845a4f3241cf0512dad997ea5666c09b682c499bb0c00"
}