{
  "txid": "dda05acd2c6261bec3a864570b65b485283c16ca76e81ea309c445d64dee529f",
  "version": 2,
  "locktime": 0,
  "vin": [
    {
      "txid": "f5343dc716bef72ab2519168055fc6eeaf52f6c95980c0e6057343cc6b566ca5",
      "vout": 11,
      "prevout": {
        "scriptpubkey": "00145c9076462a3506a34d3e03c1b75044f4f218225e",
        "scriptpubkey_asm": "OP_0 OP_PUSHBYTES_20 5c9076462a3506a34d3e03c1b75044f4f218225e",
        "scriptpubkey_type": "v0_p2wpkh",
        "scriptpubkey_address": "bc1qtjg8v332x5r2xnf7q0qmw5zy7nepsgj77ud8he",
        "value": 126750
      },
      "scriptsig": "",
      "scriptsig_asm": "",
      "witness": [
        "304402205a7b0ae262e239d8cc3b6e014265ed9e217993b24eb6b4102a70d2052d10034e0220592b827e6355af062cf097be9b4b0515b0bdd42a390810246f3d9506eaf2f8f201",
        "029bee57bd778fecd5e4d99ad94f09ae80039b4355c91d0bd3826a942d519aed43"
      ],
      "is_coinbase": false,
      "sequence": 4294967293
    },
    {
      "txid": "6d030680bfa3300ff38ee224a9321ce89b69c636ab21636268acf8cf0e5f4910",
      "vout": 14,
      "prevout": {
        "scriptpubkey": "00145c9076462a3506a34d3e03c1b75044f4f218225e",
        "scriptpubkey_asm": "OP_0 OP_PUSHBYTES_20 5c9076462a3506a34d3e03c1b75044f4f218225e",
        "scriptpubkey_type": "v0_p2wpkh",
        "scriptpubkey_address": "bc1qtjg8v332x5r2xnf7q0qmw5zy7nepsgj77ud8he",
        "value": 127244
      },
      "scriptsig": "",
      "scriptsig_asm": "",
      "witness": [
        "304402207f7418824467e9290e9255693371dca3dab250a1de7c1cd8f954b425da2dfd5a022017d37d1eea76b305583fa6e6f752c83bfab64ef51fbe61f832449b13653c5abd01",
        "029bee57bd778fecd5e4d99ad94f09ae80039b4355c91d0bd3826a942d519aed43"
      ],
      "is_coinbase": false,
      "sequence": 4294967293
    }
  ],
  "vout": [
    {
      "scriptpubkey": "001433fcb9e9e6fb4f74f8a7f6536e11b43bd0834ba9",
      "scriptpubkey_asm": "OP_0 OP_PUSHBYTES_20 33fcb9e9e6fb4f74f8a7f6536e11b43bd0834ba9",
      "scriptpubkey_type": "v0_p2wpkh",
      "scriptpubkey_address": "bc1qx07tn60xld8hf7987efkuyd580ggxjafn3upe5",
      "value": 252094
    }
  ],
  "size": 339,
  "weight": 708,
  "fee": 1900,
  "status": {
    "confirmed": true,
    "block_height": 834464,
    "block_hash": "0000000000000000000177a0869a911a2b65c9bdcd5a8bcb02b68f305bee848e",
    "block_time": 1710308296
  },
  "hex": "02000000000102a56c566bcc437305e6c08059c9f652afeec65f05689151b22af7be16c73d34f50b00000000fdffffff10495f0ecff8ac68626321ab36c6699be81c32a924e28ef30f30a3bf8006036d0e00000000fdffffff01bed803000000000016001433fcb9e9e6fb4f74f8a7f6536e11b43bd0834ba90247304402205a7b0ae262e239d8cc3b6e014265ed9e217993b24eb6b4102a70d2052d10034e0220592b827e6355af062cf097be9b4b0515b0bdd42a390810246f3d9506eaf2f8f20121029bee57bd778fecd5e4d99ad94f09ae80039b4355c91d0bd3826a942d519aed430247304402207f7418824467e9290e9255693371dca3dab250a1de7c1cd8f954b425da2dfd5a022017d37d1eea76b305583fa6e6f752c83bfab64ef51fbe61f832449b13653c5abd0121029bee57bd778fecd5e4d99ad94f09ae80039b4355c91d0bd3826a942d519aed4300000000"
}