{
  "txid": "ddecee350124961e1f9711d9a5adbc16b2b36bd700855cab566a12f7ffb97592",
  "version": 2,
  "locktime": 832186,
  "vin": [
    {
      "txid": "01ad7dc7dc1ca50cd21809e59e527dc03c06d77585d99d8f71d0e270859c268d",
      "vout": 0,
      "prevout": {
        "scriptpubkey": "001454ce9c71b73bf3adc8e4b40ad5b56ede99c2cde3",
        "scriptpubkey_asm": "OP_0 OP_PUSHBYTES_20 54ce9c71b73bf3adc8e4b40ad5b56ede99c2cde3",
        "scriptpubkey_type": "v0_p2wpkh",
        "scriptpubkey_address": "bc1q2n8fcudh80e6mj8yks9dtdtwm6vu9n0r7qvzgj",
        "value": 25349
      },
      "scriptsig": "",
      "scriptsig_asm": "",
      "witness": [
        "304402202bccc6c5c4efc63318dced2a83bef021a5cbd25073e5706cca7aa9917ec40416022021cb4a80a354982ae6e958b7aa502e0db2fcda46e70cc8f75105d617fa44487101",
        "03a082037874fd88315a66e3e9136fd8b18fdb4116145f4a362ffc6d5e2b43f6c9"
      ],
      "is_coinbase": false,
      "sequence": 4294967294
    }
  ],
  "vout": [
    {
      "scriptpubkey": "00144b72f6a0f59aaa2d5f66179dee382ff32e93c37e",
      "scriptpubkey_asm": "OP_0 OP_PUSHBYTES_20 4b72f6a0f59aaa2d5f66179dee382ff32e93c37e",
      "scriptpubkey_type": "v0_p2wpkh",
      "scriptpubkey_address": "bc1qfde0dg84n24z6hmxz7w7uwp07vhf8sm7jlxvpz",
      "value": 22327
    },
    {
      "scriptpubkey": "001454127e14d76a83cbeb1f0baaa30ca6b9228f8665",
      "scriptpubkey_asm": "OP_0 OP_PUSHBYTES_20 54127e14d76a83cbeb1f0baaa30ca6b9228f8665",
      "scriptpubkey_type": "v0_p2wpkh",
      "scriptpubkey_address": "bc1q2sf8u9xhd2puh6clpw42xr9xhy3glpn99c8e4x",
      "value": 546
    },
    {
      "scriptpubkey": "76a914d96d113df5da546885e14667eaaf29902ca01e4588ac",
      "scriptpubkey_asm": "OP_DUP OP_HASH160 OP_PUSHBYTES_20 d96d113df5da546885e14667eaaf29902ca01e45 OP_EQUALVERIFY OP_CHECKSIG",
      "scriptpubkey_type": "p2pkh",
      "scriptpubkey_address": "1LpeHm4Tr3PhwUsAZMXQsdhtHXc7nxrHHy",
      "value": 546
    }
  ],
  "size": 256,
  "weight": 697,
  "fee": 1930,
  "status": {
    "confirmed": true,
    "block_height": 834464,
    "block_hash": "0000000000000000000177a0869a911a2b65c9bdcd5a8bcb02b68f305bee848e",
    "block_time": 1710308296
  },
  "hex": "020000000001018d269c8570e2d0718f9dd98575d7063cc07d529ee50918d20ca51cdcc77dad010000000000feffffff0337570000000000001600144b72f6a0f59aaa2d5f66179dee382ff32e93c37e220200000000000016001454127e14d76a83cbeb1f0baaa30ca6b9228f866522020000000000001976a914d96d113df5da546885e14667eaaf29902ca01e4588ac0247304402202bccc6c5c4efc63318dced2a83bef021a5cbd25073e5706cca7aa9917ec40416022021cb4a80a354982ae6e958b7aa502e0db2fcda46e70cc8f75105d617fa444871012103a082037874fd88315a66e3e9136fd8b18fdb4116145f4a362ffc6d5e2b43f6c9bab20c00"
}