{
  "txid": "ddf4ff476152f4b042dd5a900e84719e6d5ec19b6139f214a74a2a66524cca5d",
  "version": 2,
  "locktime": 834458,
  "vin": [
    {
      "txid": "20b5bbd19f96c596d0d1e0f4b5a830595cb8756d3a107779e5b93b6204f94a2b",
      "vout": 1,
      "prevout": {
        "scriptpubkey": "0014b2f5537ebbf107b5d7e3f304ea7969090eb9f86d",
        "scriptpubkey_asm": "OP_0 OP_PUSHBYTES_20 b2f5537ebbf107b5d7e3f304ea7969090eb9f86d",
        "scriptpubkey_type": "v0_p2wpkh",
        "scriptpubkey_address": "bc1qkt64xl4m7yrmt4lr7vzw57tfpy8tn7rdl7wnzn",
        "value": 6830188
      },
      "scriptsig": "",
      "scriptsig_asm": "",
      "witness": [
        "304402205dfbe44b50ae52caaf9a08f779a39ff9216518717d720a8fccedf8543fe50bf502201997c9f556df4bfd625cd6213c6b08ee1c03b4d5fdf5914b01667e6de712ae8c01",
        "029ae2b63dea3e30b2da0c28468b21e98cdcb8049db25cae9244c143b37294b264"
      ],
      "is_coinbase": false,
      "sequence": 0
    }
  ],
  "vout": [
    {
      "scriptpubkey": "5120b408d4a8d865220ac7c4d84b190a873d6f57ebbd72a93fe0eed9962c40a35011",
      "scriptpubkey_asm": "OP_PUSHNUM_1 OP_PUSHBYTES_32 b408d4a8d865220ac7c4d84b190a873d6f57ebbd72a93fe0eed9962c40a35011",
      "scriptpubkey_type": "v1_p2tr",
      "scriptpubkey_address": "bc1pksydf2xcv53q437ymp93jz5884h406aaw25nlc8wmxtzcs9r2qgsvq2d4l",
      "value": 6828472
    }
  ],
  "size": 203,
  "weight": 485,
  "fee": 1716,
  "status": {
    "confirmed": true,
    "block_height": 834460,
    "block_hash": "00000000000000000000484a79b643b2524bbce82e5d8a442013fa5b8905ed98",
    "block_time": 1710307468
  },
  "hex": "020000000001012b4af904623bb9e57977103a6d75b85c5930a8b5f4e0d1d096c5969fd1bbb52001000000000000000001b831680000000000225120b408d4a8d865220ac7c4d84b190a873d6f57ebbd72a93fe0eed9962c40a350110247304402205dfbe44b50ae52caaf9a08f779a39ff9216518717d720a8fccedf8543fe50bf502201997c9f556df4bfd625cd6213c6b08ee1c03b4d5fdf5914b01667e6de712ae8c0121029ae2b63dea3e30b2da0c28468b21e98cdcb8049db25cae9244c143b37294b2649abb0c00"
}