{
  "txid": "de0325b0646d17c7aee7c1ede8ddb5ec16970ddb4ced1ff8e16fb098bab3779c",
  "version": 2,
  "locktime": 0,
  "vin": [
    {
      "txid": "acc3ba00869acb582a3f2904ce3a11dd3779350ce234063fc7d0959246213364",
      "vout": 66,
      "prevout": {
        "scriptpubkey": "5120fe569e6a714fdd8433336188287aaeb689dd7a9b377ba23d0d3ce3e86a79deb7",
        "scriptpubkey_asm": "OP_PUSHNUM_1 OP_PUSHBYTES_32 fe569e6a714fdd8433336188287aaeb689dd7a9b377ba23d0d3ce3e86a79deb7",
        "scriptpubkey_type": "v1_p2tr",
        "scriptpubkey_address": "bc1pletfu6n3flwcgvenvxyzs74wk6ya675mxaa6y0gd8n37s6nem6mslta0cv",
        "value": 1806
      },
      "scriptsig": "",
      "scriptsig_asm": "",
      "witness": [
        "508dbbdc77afcae210c28a62a70b4fbe7b5b7c3ab2f5a3f9d45a0f2cde1321b9190b9c5d55c1a61f57439ba771d31e49ace97085ab735ffe19e70388ab0c9eeb",
        "2003629303222e3b92f058ba5df07d5d15e4606bc96a0702277e30cfd8b14229cdac0063036f726401010a746578742f706c61696e00357b2270223a226272632d3230222c226f70223a226d696e74222c227469636b223a22646f6765222c22616d74223a2234323030227d68",
        "c003629303222e3b92f058ba5df07d5d15e4606bc96a0702277e30cfd8b14229cd"
      ],
      "is_coinbase": false,
      "sequence": 4261412863
    }
  ],
  "vout": [
    {
      "scriptpubkey": "00147a665de7a370f4c9b372ab1fae587500a5bcbdb4",
      "scriptpubkey_asm": "OP_0 OP_PUSHBYTES_20 7a665de7a370f4c9b372ab1fae587500a5bcbdb4",
      "scriptpubkey_type": "v0_p2wpkh",
      "scriptpubkey_address": "bc1q0fn9mearwr6vnvmj4v06ukr4qzjme0d565dzcx",
      "value": 294
    }
  ],
  "size": 294,
  "weight": 540,
  "fee": 1512,
  "status": {
    "confirmed": true,
    "block_height": 834460,
    "block_hash": "00000000000000000000484a79b643b2524bbce82e5d8a442013fa5b8905ed98",
    "block_time": 1710307468
  },
  "hex": "02000000000101643321469295d0c73f0634e20c357937dd113ace04293f2a58cb9a8600bac3ac4200000000fffffffd0126010000000000001600147a665de7a370f4c9b372ab1fae587500a5bcbdb40340508dbbdc77afcae210c28a62a70b4fbe7b5b7c3ab2f5a3f9d45a0f2cde1321b9190b9c5d55c1a61f57439ba771d31e49ace97085ab735ffe19e70388ab0c9eeb6d2003629303222e3b92f058ba5df07d5d15e4606bc96a0702277e30cfd8b14229cdac0063036f726401010a746578742f706c61696e00357b2270223a226272632d3230222c226f70223a226d696e74222c227469636b223a22646f6765222c22616d74223a2234323030227d6821c003629303222e3b92f058ba5df07d5d15e4606bc96a0702277e30cfd8b14229cd00000000"
}