{
  "txid": "de09cd414ff025d84a90f0d7e901b04d391c15acdf725934caf3f8d7ea15c8d3",
  "version": 2,
  "locktime": 0,
  "vin": [
    {
      "txid": "ecc396739a83d4f702feea72c2aeb2d42e3cbf88715e6164a2573abb5a1aec82",
      "vout": 0,
      "prevout": {
        "scriptpubkey": "51203e098240b6b72ca027858acaff6b9f973551993fb87fc52da54c3f8c4aa6b9b1",
        "scriptpubkey_asm": "OP_PUSHNUM_1 OP_PUSHBYTES_32 3e098240b6b72ca027858acaff6b9f973551993fb87fc52da54c3f8c4aa6b9b1",
        "scriptpubkey_type": "v1_p2tr",
        "scriptpubkey_address": "bc1p8cycys9kkuk2qfu93t9076ulju64rxflhplu2td9fslccj4xhxcs5qh8sp",
        "value": 51543
      },
      "scriptsig": "",
      "scriptsig_asm": "",
      "witness": [
        "8f0426a3add76e5799ab6ff08c90865bea3d4e87724a0fe723881169b99daa0e9d6c38729fa0b71e245ab3b607de37b8c1bdd703d048dbbdfdae9754adfdbf07",
        "20f2d00e1cce0b839d2e197679cac7a15152ec244338032c7767f72c1332d49a65ac0063036f7264010109696d6167652f706e67004de00189504e470d0a1a0a0000000d4948445200000020000000200806000000737a7af400000006624b474400ff00ff00ffa0bda79300000195494441545885ed97b16ac33010863f9594944006e901da3d6b33372fa0c1799a3e439fc6811832774fc766af976ef21008352da8436347b6534722494d213f98e3a443ffafbb936c0b1d47960e71d525f945c04580b780b95a1ce51f2dc05d74ae16301ab7fb01f02f4141321afbf92717003c3e7c55fccd24aaf8e2f325881ca0e71db95af2440f58964383e725ac7621f6fabee29f4c8098e418630090523603f214fab764590680520a1dfb09385882643aab92e7e9cf53106fc95d71c61892e9ec34020a94e45012fe1a1780e08b28db0ccb54b709f1857f136e0965bf39564748165a051475544a792f188a8325b0d662ad254992c67861f7cd596bbd1ad1bb07b4d615a29510bc6e6d7d2e04ad25d0718410a2dc11798afd7823db0c7977ca628c414a5966054008818ea37dcb56703003858836c8c17a774403c8c1f314b899204f918335d2d9ad7b1985907b0b70216eeeb0d69682ea3614fe4de894a2cd86ec1e023310bab80ffec737e13911dc8421706f421d470d1ffe2003f5bed1715419eba4046e26ce2ea0fe42aafba2ebdff36f582eb453fa83a3b10000000049454e44ae426082680063036f726401011e6170706c69636174696f6e2f6a736f6e3b636861727365743d7574662d38004d67017b2270223a22766f7264222c2276223a312c227479223a22696e7363222c22636f6c223a2233346530363736386230636362346536643861326337343162663031666463396637373235643761366430343436326663323530656661313737376361376337222c22696964223a2253696c6b20536b756c6c205363686f6f6c204f47222c227075626c223a2231455337623370636a527a4667796969714c7278484b546e43686535364c4a485937222c226e6f6e6365223a3331342c226d696e746572223a22626331706176376768797768393468736b7a66766a6c3634306a65353770346e6d666c7868396e7678666c39356a66616e6c3465636671736e7670796a64222c22736967223a22477a613764622f6f417633446c71576a625a52614a312f393770596978557a2f6a6e4a50414a365674536f5855537564744f6f6a67335832687a30536f7154745964567157545772786b61456d5a3176315746733043383d227d68",
        "c0f2d00e1cce0b839d2e197679cac7a15152ec244338032c7767f72c1332d49a65675a92934efa5e4869b2432a3e00abfc6819367af43949c2edc693b32d23ac05"
      ],
      "is_coinbase": false,
      "sequence": 4294967293
    }
  ],
  "vout": [
    {
      "scriptpubkey": "5120eb3c8b91d72d6f0b092c97f557cb34f06b3da7e6b966c327e5a493d9feb9c241",
      "scriptpubkey_asm": "OP_PUSHNUM_1 OP_PUSHBYTES_32 eb3c8b91d72d6f0b092c97f557cb34f06b3da7e6b966c327e5a493d9feb9c241",
      "scriptpubkey_type": "v1_p2tr",
      "scriptpubkey_address": "bc1pav7ghywh94hskzfvjl640je57p4nmflxh9nvxfl95jfanl4ecfqsnvpyjd",
      "value": 1000
    },
    {
      "scriptpubkey": "a91436731fe2e21ec7dc84af3e3989e0a269b4df613f87",
      "scriptpubkey_asm": "OP_HASH160 OP_PUSHBYTES_20 36731fe2e21ec7dc84af3e3989e0a269b4df613f OP_EQUAL",
      "scriptpubkey_type": "p2sh",
      "scriptpubkey_address": "36evKtydBCAXM4jRSKSnXSxAuMrBU2sxRB",
      "value": 42798
    },
    {
      "scriptpubkey": "51200705a5767db892e98125775049b1a13dd9ecdc8aea0df413cabbee683e871012",
      "scriptpubkey_asm": "OP_PUSHNUM_1 OP_PUSHBYTES_32 0705a5767db892e98125775049b1a13dd9ecdc8aea0df413cabbee683e871012",
      "scriptpubkey_type": "v1_p2tr",
      "scriptpubkey_address": "bc1pquz62anahzfwnqf9wagynvdp8hv7ehy2agxlgy72h0hxs058zqfqk8ksyq",
      "value": 2916
    }
  ],
  "size": 1246,
  "weight": 1753,
  "fee": 4829,
  "status": {
    "confirmed": true,
    "block_height": 834464,
    "block_hash": "0000000000000000000177a0869a911a2b65c9bdcd5a8bcb02b68f305bee848e",
    "block_time": 1710308296
  },
  "hex": "0200000000010182ec1a5abb3a57a264615e7188bf3c2ed4b2aec272eafe02f7d4839a7396c3ec0000000000fdffffff03e803000000000000225120eb3c8b91d72d6f0b092c97f557cb34f06b3da7e6b966c327e5a493d9feb9c2412ea700000000000017a91436731fe2e21ec7dc84af3e3989e0a269b4df613f87640b0000000000002251200705a5767db892e98125775049b1a13dd9ecdc8aea0df413cabbee683e87101203408f0426a3add76e5799ab6ff08c90865bea3d4e87724a0fe723881169b99daa0e9d6c38729fa0b71e245ab3b607de37b8c1bdd703d048dbbdfdae9754adfdbf07fdac0320f2d00e1cce0b839d2e197679cac7a15152ec244338032c7767f72c1332d49a65ac0063036f7264010109696d6167652f706e67004de00189504e470d0a1a0a0000000d4948445200000020000000200806000000737a7af400000006624b474400ff00ff00ffa0bda79300000195494441545885ed97b16ac33010863f9594944006e901da3d6b33372fa0c1799a3e439fc6811832774fc766af976ef21008352da8436347b6534722494d213f98e3a443ffafbb936c0b1d47960e71d525f945c04580b780b95a1ce51f2dc05d74ae16301ab7fb01f02f4141321afbf92717003c3e7c55fccd24aaf8e2f325881ca0e71db95af2440f58964383e725ac7621f6fabee29f4c8098e418630090523603f214fab764590680520a1dfb09385882643aab92e7e9cf53106fc95d71c61892e9ec34020a94e45012fe1a1780e08b28db0ccb54b709f1857f136e0965bf39564748165a051475544a792f188a8325b0d662ad254992c67861f7cd596bbd1ad1bb07b4d615a29510bc6e6d7d2e04ad25d0718410a2dc11798afd7823db0c7977ca628c414a5966054008818ea37dcb56703003858836c8c17a774403c8c1f314b899204f918335d2d9ad7b1985907b0b70216eeeb0d69682ea3614fe4de894a2cd86ec1e023310bab80ffec737e13911dc8421706f421d470d1ffe2003f5bed1715419eba4046e26ce2ea0fe42aafba2ebdff36f582eb453fa83a3b10000000049454e44ae426082680063036f726401011e6170706c69636174696f6e2f6a736f6e3b636861727365743d7574662d38004d67017b2270223a22766f7264222c2276223a312c227479223a22696e7363222c22636f6c223a2233346530363736386230636362346536643861326337343162663031666463396637373235643761366430343436326663323530656661313737376361376337222c22696964223a2253696c6b20536b756c6c205363686f6f6c204f47222c227075626c223a2231455337623370636a527a4667796969714c7278484b546e43686535364c4a485937222c226e6f6e6365223a3331342c226d696e746572223a22626331706176376768797768393468736b7a66766a6c3634306a65353770346e6d666c7868396e7678666c39356a66616e6c3465636671736e7670796a64222c22736967223a22477a613764622f6f417633446c71576a625a52614a312f393770596978557a2f6a6e4a50414a365674536f5855537564744f6f6a67335832687a30536f7154745964567157545772786b61456d5a3176315746733043383d227d6841c0f2d00e1cce0b839d2e197679cac7a15152ec244338032c7767f72c1332d49a65675a92934efa5e4869b2432a3e00abfc6819367af43949c2edc693b32d23ac0500000000"
}