{
  "txid": "de0ea5004bacb86063e4a7cb57f58640142cdc001a2a11a64aa73fb3e804b3e1",
  "version": 2,
  "locktime": 0,
  "vin": [
    {
      "txid": "4ee77778659dcfe8d7a4e15882fc6193f4f3d5f6607624e256337b44c2280af5",
      "vout": 54,
      "prevout": {
        "scriptpubkey": "51207637e2cbc7d7e313348e58b3e3d531323ce104ed62b49b7305c3e5629133a7cb",
        "scriptpubkey_asm": "OP_PUSHNUM_1 OP_PUSHBYTES_32 7637e2cbc7d7e313348e58b3e3d531323ce104ed62b49b7305c3e5629133a7cb",
        "scriptpubkey_type": "v1_p2tr",
        "scriptpubkey_address": "bc1pwcm79j786l33xdywtze784f3xg7wzp8dv26fkuc9c0jk9yfn5l9s3umkw4",
        "value": 2075
      },
      "scriptsig": "",
      "scriptsig_asm": "",
      "witness": [
        "347e454ab7a59956001239dade328e2318d2e01cc6b3e81c5959a9b79b355677928061bd5e10833dbade825c97605a8f7f11858eb293cc268b74ea6e805eb504",
        "207cdb205e04b096e417c928ee6a31118a830738459d63804cbc080758078be647ac0063036f7264010118746578742f706c61696e3b636861727365743d7574662d3800357b2270223a224252432d313030222c226f70223a226d696e74222c227469636b223a22696e73222c22616d74223a2231303030227d68",
        "c1c50eac15d7d7889f5ad84f80015e8a209129aeea937c37fa4b8bc0f9be289730"
      ],
      "is_coinbase": false,
      "sequence": 4294967295
    }
  ],
  "vout": [
    {
      "scriptpubkey": "00143e2325412b554cacdd163a93a42204c4707f8851",
      "scriptpubkey_asm": "OP_0 OP_PUSHBYTES_20 3e2325412b554cacdd163a93a42204c4707f8851",
      "scriptpubkey_type": "v0_p2wpkh",
      "scriptpubkey_address": "bc1q8c3j2sft24x2ehgk82f6ggsyc3c8lzz3yw9wsu",
      "value": 546
    }
  ],
  "size": 308,
  "weight": 554,
  "fee": 1529,
  "status": {
    "confirmed": true,
    "block_height": 834464,
    "block_hash": "0000000000000000000177a0869a911a2b65c9bdcd5a8bcb02b68f305bee848e",
    "block_time": 1710308296
  },
  "hex": "02000000000101f50a28c2447b3356e2247660f6d5f3f49361fc8258e1a4d7e8cf9d657877e74e3600000000ffffffff0122020000000000001600143e2325412b554cacdd163a93a42204c4707f88510340347e454ab7a59956001239dade328e2318d2e01cc6b3e81c5959a9b79b355677928061bd5e10833dbade825c97605a8f7f11858eb293cc268b74ea6e805eb5047b207cdb205e04b096e417c928ee6a31118a830738459d63804cbc080758078be647ac0063036f7264010118746578742f706c61696e3b636861727365743d7574662d3800357b2270223a224252432d313030222c226f70223a226d696e74222c227469636b223a22696e73222c22616d74223a2231303030227d6821c1c50eac15d7d7889f5ad84f80015e8a209129aeea937c37fa4b8bc0f9be28973000000000"
}