{
  "txid": "de275dc5a9ad045a295ae98b8b7b5f113e79e778590a8a1925b597bf0407409e",
  "version": 2,
  "locktime": 0,
  "vin": [
    {
      "txid": "e6d2a99f5a493ee6ffff83763628685bfe5a379d7887076d1885ba2c4f63c35c",
      "vout": 0,
      "prevout": {
        "scriptpubkey": "512086f1295be330ffcc3da2cd6beb4d4b1bb47b4f657ab8b7da0744ccf9ec989fd6",
        "scriptpubkey_asm": "OP_PUSHNUM_1 OP_PUSHBYTES_32 86f1295be330ffcc3da2cd6beb4d4b1bb47b4f657ab8b7da0744ccf9ec989fd6",
        "scriptpubkey_type": "v1_p2tr",
        "scriptpubkey_address": "bc1psmcjjklrxrluc0dze447kn2trw68knm902ut0ks8gnx0nmycnltqzu8k0f",
        "value": 3130
      },
      "scriptsig": "",
      "scriptsig_asm": "",
      "witness": [
        "ee01dc00f875a4cfa026fbe92c794efc205626b452317b147e735d60a8ab8bf21e10df2848bea5bec35e2592014765ee2681eda45281e130369fc7e4c6ca64c0",
        "20cf92e12b6c1a989089b9eb8dbc576e60b02c6fcfee27a26b1b3b236c4a97ad45ac0063036f7264010118746578742f706c61696e3b636861727365743d7574662d3800397b2270223a226272632d3230222c226f70223a227472616e73666572222c227469636b223a22736c6f72222c22616d74223a2231353030227d68",
        "c0cf92e12b6c1a989089b9eb8dbc576e60b02c6fcfee27a26b1b3b236c4a97ad45"
      ],
      "is_coinbase": false,
      "sequence": 4294967293
    }
  ],
  "vout": [
    {
      "scriptpubkey": "51209faa5843b315c1c455535f95d394aa8d1861256e42de7dce2b6f288a8769383f",
      "scriptpubkey_asm": "OP_PUSHNUM_1 OP_PUSHBYTES_32 9faa5843b315c1c455535f95d394aa8d1861256e42de7dce2b6f288a8769383f",
      "scriptpubkey_type": "v1_p2tr",
      "scriptpubkey_address": "bc1pn749ssanzhqug42nt72a899235vxzftwgt08mn3tdu5g4pmf8qlsh7r5qg",
      "value": 546
    }
  ],
  "size": 324,
  "weight": 606,
  "fee": 2584,
  "status": {
    "confirmed": true,
    "block_height": 834638,
    "block_hash": "000000000000000000025f742c626208ac87e0b7d15054abb4a19ca2d735a54e",
    "block_time": 1710405325
  },
  "hex": "020000000001015cc3634f2cba85186d0787789d375afe5b6828367683ffffe63e495a9fa9d2e60000000000fdffffff0122020000000000002251209faa5843b315c1c455535f95d394aa8d1861256e42de7dce2b6f288a8769383f0340ee01dc00f875a4cfa026fbe92c794efc205626b452317b147e735d60a8ab8bf21e10df2848bea5bec35e2592014765ee2681eda45281e130369fc7e4c6ca64c07f20cf92e12b6c1a989089b9eb8dbc576e60b02c6fcfee27a26b1b3b236c4a97ad45ac0063036f7264010118746578742f706c61696e3b636861727365743d7574662d3800397b2270223a226272632d3230222c226f70223a227472616e73666572222c227469636b223a22736c6f72222c22616d74223a2231353030227d6821c0cf92e12b6c1a989089b9eb8dbc576e60b02c6fcfee27a26b1b3b236c4a97ad4500000000"
}