{
  "txid": "de2e69890984836a8f32a764e3023ce648fcd1a1c5fc0d6a1d2ea8446b771474",
  "version": 2,
  "locktime": 0,
  "vin": [
    {
      "txid": "c7f7a9e769bf821fcdf94a02f74bbc446f9f6414b723e47680924d65305266dc",
      "vout": 1,
      "prevout": {
        "scriptpubkey": "0014833b4a09bc388e5706917b8e74d6b1aefb039441",
        "scriptpubkey_asm": "OP_0 OP_PUSHBYTES_20 833b4a09bc388e5706917b8e74d6b1aefb039441",
        "scriptpubkey_type": "v0_p2wpkh",
        "scriptpubkey_address": "bc1qsva55zdu8z89wp530w88f4434mas89zpwhypk3",
        "value": 1806338
      },
      "scriptsig": "",
      "scriptsig_asm": "",
      "witness": [
        "3045022100a46c925adad2aae589edda068d87f0ae8ebaa3b5565e6bde5e3cc8c25a432282022062c5a087cf2f2be95a35bd5bcf265d9707f632d8519fc6d1b0cde61fd4c4e6fa01",
        "02bc8a65d24b865c45a8ff5fcc2aaafebc7a7cf347eba2fd5536cbd22d24817e3b"
      ],
      "is_coinbase": false,
      "sequence": 0
    },
    {
      "txid": "f76a94b8dcc64db9a89ae95d3790b47c489c54515aac7fed58f5f72ca28d6f6d",
      "vout": 1,
      "prevout": {
        "scriptpubkey": "0014acaa536655d82d33de665f747e7f20e37c79078d",
        "scriptpubkey_asm": "OP_0 OP_PUSHBYTES_20 acaa536655d82d33de665f747e7f20e37c79078d",
        "scriptpubkey_type": "v0_p2wpkh",
        "scriptpubkey_address": "bc1q4j49xej4mqkn8hnxta68ulequd78jpudraytrq",
        "value": 3210923
      },
      "scriptsig": "",
      "scriptsig_asm": "",
      "witness": [
        "304402206e84809779c4be8d0f4171b83bef8cd06567d8b4bc6a68d14342a158765b430c022009b10bacafb5264e877e336ab8305b238e95c9e95c576cadb53643c791702b0401",
        "03e532ef94e7054efe1461652afc6b926926d3c0605b822608d2f66fc6eabd700f"
      ],
      "is_coinbase": false,
      "sequence": 0
    }
  ],
  "vout": [
    {
      "scriptpubkey": "0014a56ad7f4d1dfb6b14f9c4ca745b9334ce374621d",
      "scriptpubkey_asm": "OP_0 OP_PUSHBYTES_20 a56ad7f4d1dfb6b14f9c4ca745b9334ce374621d",
      "scriptpubkey_type": "v0_p2wpkh",
      "scriptpubkey_address": "bc1q544d0ax3m7mtznuufjn5twfnfn3hgcsa3kcad9",
      "value": 2993973
    },
    {
      "scriptpubkey": "00143a6b4484c83eefa71612d723ca62a84217f23405",
      "scriptpubkey_asm": "OP_0 OP_PUSHBYTES_20 3a6b4484c83eefa71612d723ca62a84217f23405",
      "scriptpubkey_type": "v0_p2wpkh",
      "scriptpubkey_address": "bc1q8f45fpxg8mh6w9sj6u3u5c4gggtlydq9luaqft",
      "value": 2019562
    }
  ],
  "size": 371,
  "weight": 833,
  "fee": 3726,
  "status": {
    "confirmed": true,
    "block_height": 834638,
    "block_hash": "000000000000000000025f742c626208ac87e0b7d15054abb4a19ca2d735a54e",
    "block_time": 1710405325
  },
  "hex": "02000000000102dc665230654d928076e423b714649f6f44bc4bf7024af9cd1f82bf69e7a9f7c70100000000000000006d6f8da22cf7f558ed7fac5a51549c487cb490375de99aa8b94dc6dcb8946af70100000000000000000235af2d0000000000160014a56ad7f4d1dfb6b14f9c4ca745b9334ce374621dead01e00000000001600143a6b4484c83eefa71612d723ca62a84217f2340502483045022100a46c925adad2aae589edda068d87f0ae8ebaa3b5565e6bde5e3cc8c25a432282022062c5a087cf2f2be95a35bd5bcf265d9707f632d8519fc6d1b0cde61fd4c4e6fa012102bc8a65d24b865c45a8ff5fcc2aaafebc7a7cf347eba2fd5536cbd22d24817e3b0247304402206e84809779c4be8d0f4171b83bef8cd06567d8b4bc6a68d14342a158765b430c022009b10bacafb5264e877e336ab8305b238e95c9e95c576cadb53643c791702b04012103e532ef94e7054efe1461652afc6b926926d3c0605b822608d2f66fc6eabd700f00000000"
}