{
  "txid": "de339fd5b37d5dad46fd9270a7e7a9e99d0c75bb1b0525dd9d266d2fc6c19cd7",
  "version": 2,
  "locktime": 0,
  "vin": [
    {
      "txid": "632c458c17272a5f92544275dec67d3e31d5024f57e8d10a56112cdcf69e1957",
      "vout": 0,
      "prevout": {
        "scriptpubkey": "51204b3def6b7bdf9758a317f5eafc03b3a744cc6bb7dad731af7edbfbb555c2be75",
        "scriptpubkey_asm": "OP_PUSHNUM_1 OP_PUSHBYTES_32 4b3def6b7bdf9758a317f5eafc03b3a744cc6bb7dad731af7edbfbb555c2be75",
        "scriptpubkey_type": "v1_p2tr",
        "scriptpubkey_address": "bc1pfv7776mmm7t43gch7h40cqan5azvc6ahmttnrtm7m0am24wzhe6smdt3m6",
        "value": 546
      },
      "scriptsig": "",
      "scriptsig_asm": "",
      "witness": [
        "5997d06a9f508357c7d51655563752ed8195a3d4b7063eefa587e6cf564cbcd0ca874e5c6fee993469cefd892696c9805b64dc7c6f5389af42764b19dc9b4092"
      ],
      "is_coinbase": false,
      "sequence": 4294967293
    },
    {
      "txid": "e597982f2c97d27f91a57c0ff6c5ebb1eb2c10b9bdeaddccadea20f9624ab94f",
      "vout": 1,
      "prevout": {
        "scriptpubkey": "5120e5df839e4148eab0d0d9ebb579f0fbf519115df7ccc390574bf3f40a3874f1fe",
        "scriptpubkey_asm": "OP_PUSHNUM_1 OP_PUSHBYTES_32 e5df839e4148eab0d0d9ebb579f0fbf519115df7ccc390574bf3f40a3874f1fe",
        "scriptpubkey_type": "v1_p2tr",
        "scriptpubkey_address": "bc1puh0c88jpfr4tp5xeaw6hnu8m75v3zh0henpeq46t706q5wr578lqmvxfd7",
        "value": 13290
      },
      "scriptsig": "",
      "scriptsig_asm": "",
      "witness": [
        "839d2f5921820c97879b2f2eb8a120001677b29b296729f851ddde2c1397a2042d16c84354749c43496339885f42d05ee35452c757bed811aa102c53064b3327"
      ],
      "is_coinbase": false,
      "sequence": 4294967293
    }
  ],
  "vout": [
    {
      "scriptpubkey": "0014581c48f74d1a3e9a6359eb8148253ef60e11bc40",
      "scriptpubkey_asm": "OP_0 OP_PUSHBYTES_20 581c48f74d1a3e9a6359eb8148253ef60e11bc40",
      "scriptpubkey_type": "v0_p2wpkh",
      "scriptpubkey_address": "bc1qtqwy3a6drglf5c6eawq5sff77c8pr0zqdnm7na",
      "value": 546
    },
    {
      "scriptpubkey": "5120c9213323408d4f126ce299346fb032b60631606d31aaf9139bd18b338cd79eee",
      "scriptpubkey_asm": "OP_PUSHNUM_1 OP_PUSHBYTES_32 c9213323408d4f126ce299346fb032b60631606d31aaf9139bd18b338cd79eee",
      "scriptpubkey_type": "v1_p2tr",
      "scriptpubkey_address": "bc1peysnxg6q3483ym8zny6xlvpjkcrrzcrdxx40jyum6x9n8rxhnmhqsqhpeg",
      "value": 10090
    }
  ],
  "size": 300,
  "weight": 798,
  "fee": 3200,
  "status": {
    "confirmed": true,
    "block_height": 834552,
    "block_hash": "00000000000000000001dd0468a70c94f619251d286585cff57aeb4bd9ede330",
    "block_time": 1710355598
  },
  "hex": "0200000000010257199ef6dc2c11560ad1e8574f02d5313e7dc6de754254925f2a27178c452c630000000000fdffffff4fb94a62f920eaadccddeabdb9102cebb1ebc5f60f7ca5917fd2972c2f9897e50100000000fdffffff022202000000000000160014581c48f74d1a3e9a6359eb8148253ef60e11bc406a27000000000000225120c9213323408d4f126ce299346fb032b60631606d31aaf9139bd18b338cd79eee01405997d06a9f508357c7d51655563752ed8195a3d4b7063eefa587e6cf564cbcd0ca874e5c6fee993469cefd892696c9805b64dc7c6f5389af42764b19dc9b40920140839d2f5921820c97879b2f2eb8a120001677b29b296729f851ddde2c1397a2042d16c84354749c43496339885f42d05ee35452c757bed811aa102c53064b332700000000"
}