{
  "txid": "de43c9bb210eaaa271e6ab2082beb64b911aa3548171ba8a9ca18b6f4a6776f3",
  "version": 2,
  "locktime": 0,
  "vin": [
    {
      "txid": "2ee7e9bc2f0f43192f5d2dcb9ba2f7bf417e46f7a86aea7e61bf494a2116911f",
      "vout": 7,
      "prevout": {
        "scriptpubkey": "512015c5d82db0860bc756397b41e2775aceb20a289de2204ab0c2ae7a02dcb23d64",
        "scriptpubkey_asm": "OP_PUSHNUM_1 OP_PUSHBYTES_32 15c5d82db0860bc756397b41e2775aceb20a289de2204ab0c2ae7a02dcb23d64",
        "scriptpubkey_type": "v1_p2tr",
        "scriptpubkey_address": "bc1pzhzastdssc9uw43e0dq7ya66e6eq52yaugsy4vxz4eaq9h9j84jqv46trm",
        "value": 2862
      },
      "scriptsig": "",
      "scriptsig_asm": "",
      "witness": [
        "e158b1839b6e6b836134573c8e7c771f07fb3c1246c9a7156ce697d023070bcd67903a85c52b4541deb8f92632c96f6fa11b5f8f16ea726f9829ca0598dcf1a2",
        "206a2e0217143be7a025a881d46fb0bd0a9b715c6b633dc5ef6689ef2f30f16973ac0063036f726401011e6170706c69636174696f6e2f6a736f6e3b636861727365743d7574662d38004cd37b2270223a22706f772d3230222c226f70223a226d696e74222c227469636b223a2250455045222c22616d74223a2231303030222c22736f6c7574696f6e223a22504550453a6263317032643677617a36736d6332646c33337861686b7364747a70793379397164713670677072776d3535376d303063646135303976733972333779633a303030303030303030303030303030303030303139393431613561653132383937363539383134343239323533333030353762306461393666336465613163353a3331313831343735363635227d68",
        "c0c302becc0a7fa5f96ff01f380e695b2faa1e460e5e66e108f6410cf3df3f4a28"
      ],
      "is_coinbase": false,
      "sequence": 4294967295
    }
  ],
  "vout": [
    {
      "scriptpubkey": "51205374ee8b50de14dfc626eded06ac41244850341a0a02376e94f6defc37b47959",
      "scriptpubkey_asm": "OP_PUSHNUM_1 OP_PUSHBYTES_32 5374ee8b50de14dfc626eded06ac41244850341a0a02376e94f6defc37b47959",
      "scriptpubkey_type": "v1_p2tr",
      "scriptpubkey_address": "bc1p2d6waz6smc2dl33xahksdtzpy3y9qdq6pgprwm557m00cda509vs9r37yc",
      "value": 546
    }
  ],
  "size": 487,
  "weight": 769,
  "fee": 2316,
  "status": {
    "confirmed": true,
    "block_height": 834460,
    "block_hash": "00000000000000000000484a79b643b2524bbce82e5d8a442013fa5b8905ed98",
    "block_time": 1710307468
  },
  "hex": "020000000001011f9116214a49bf617eea6aa8f7467e41bff7a29bcb2d5d2f19430f2fbce9e72e0700000000ffffffff0122020000000000002251205374ee8b50de14dfc626eded06ac41244850341a0a02376e94f6defc37b479590340e158b1839b6e6b836134573c8e7c771f07fb3c1246c9a7156ce697d023070bcd67903a85c52b4541deb8f92632c96f6fa11b5f8f16ea726f9829ca0598dcf1a2fd2001206a2e0217143be7a025a881d46fb0bd0a9b715c6b633dc5ef6689ef2f30f16973ac0063036f726401011e6170706c69636174696f6e2f6a736f6e3b636861727365743d7574662d38004cd37b2270223a22706f772d3230222c226f70223a226d696e74222c227469636b223a2250455045222c22616d74223a2231303030222c22736f6c7574696f6e223a22504550453a6263317032643677617a36736d6332646c33337861686b7364747a70793379397164713670677072776d3535376d303063646135303976733972333779633a303030303030303030303030303030303030303139393431613561653132383937363539383134343239323533333030353762306461393666336465613163353a3331313831343735363635227d6821c0c302becc0a7fa5f96ff01f380e695b2faa1e460e5e66e108f6410cf3df3f4a2800000000"
}