{
  "txid": "de4555c325f275bb854a37a957373ccd78bfa5f643b606f8007e921dfdfb0c72",
  "version": 2,
  "locktime": 0,
  "vin": [
    {
      "txid": "908e93fc578d11dbd635492ce4bf1b6ad5d0fef0cb4b1ebabcdc77fb0c3b05a1",
      "vout": 0,
      "prevout": {
        "scriptpubkey": "512025dcdbe8eb459a81fcdaf1b5b0141a4f64b2c33b8a1c46a6ff9f00def6993e3a",
        "scriptpubkey_asm": "OP_PUSHNUM_1 OP_PUSHBYTES_32 25dcdbe8eb459a81fcdaf1b5b0141a4f64b2c33b8a1c46a6ff9f00def6993e3a",
        "scriptpubkey_type": "v1_p2tr",
        "scriptpubkey_address": "bc1pyhwdh68tgkdgrlx67x6mq9q6fajt9sem3gwydfhlnuqdaa5e8caqyr6f37",
        "value": 500000
      },
      "scriptsig": "",
      "scriptsig_asm": "",
      "witness": [
        "14405a470c6cff3031e16f0570b903584d3c6e1ac790adb2ec1bf8724e148187062b6f94800e3b32af61d2ffc720c9ff94610c2ff084322ec4265d72004c9fe0"
      ],
      "is_coinbase": false,
      "sequence": 4294967295
    }
  ],
  "vout": [
    {
      "scriptpubkey": "001448dfa704897f78fdfbc2b9534055dd9b219ef5a8",
      "scriptpubkey_asm": "OP_0 OP_PUSHBYTES_20 48dfa704897f78fdfbc2b9534055dd9b219ef5a8",
      "scriptpubkey_type": "v0_p2wpkh",
      "scriptpubkey_address": "bc1qfr06wpyf0au0m77zh9f5q4wanvseaadgq9qhf9",
      "value": 109710
    },
    {
      "scriptpubkey": "512025dcdbe8eb459a81fcdaf1b5b0141a4f64b2c33b8a1c46a6ff9f00def6993e3a",
      "scriptpubkey_asm": "OP_PUSHNUM_1 OP_PUSHBYTES_32 25dcdbe8eb459a81fcdaf1b5b0141a4f64b2c33b8a1c46a6ff9f00def6993e3a",
      "scriptpubkey_type": "v1_p2tr",
      "scriptpubkey_address": "bc1pyhwdh68tgkdgrlx67x6mq9q6fajt9sem3gwydfhlnuqdaa5e8caqyr6f37",
      "value": 388586
    }
  ],
  "size": 193,
  "weight": 568,
  "fee": 1704,
  "status": {
    "confirmed": true,
    "block_height": 834460,
    "block_hash": "00000000000000000000484a79b643b2524bbce82e5d8a442013fa5b8905ed98",
    "block_time": 1710307468
  },
  "hex": "02000000000101a1053b0cfb77dcbcba1e4bcbf0fed0d56a1bbfe42c4935d6db118d57fc938e900000000000ffffffff028eac01000000000016001448dfa704897f78fdfbc2b9534055dd9b219ef5a8eaed05000000000022512025dcdbe8eb459a81fcdaf1b5b0141a4f64b2c33b8a1c46a6ff9f00def6993e3a014014405a470c6cff3031e16f0570b903584d3c6e1ac790adb2ec1bf8724e148187062b6f94800e3b32af61d2ffc720c9ff94610c2ff084322ec4265d72004c9fe000000000"
}