{
  "txid": "de4b8ca529bbc4174315df77d5c5b7c4aed351cba404b04ac4f48145ffbd0e74",
  "version": 2,
  "locktime": 0,
  "vin": [
    {
      "txid": "71abc50bf13a1894b79196ebad6b0d5aee8c75420a2431bf921662ba3b704377",
      "vout": 0,
      "prevout": {
        "scriptpubkey": "001409233407cd433e2ea2713365017619525b9f5616",
        "scriptpubkey_asm": "OP_0 OP_PUSHBYTES_20 09233407cd433e2ea2713365017619525b9f5616",
        "scriptpubkey_type": "v0_p2wpkh",
        "scriptpubkey_address": "bc1qpy3ngp7dgvlzagn3xdjszase2fde74skg04px0",
        "value": 13890675
      },
      "scriptsig": "",
      "scriptsig_asm": "",
      "witness": [
        "304402201c58e56d0b194bd13362b4447fc6b330745b91f08c7b89c0d40d51551aa7b12e022014161fc4889d47d37078c8a5156229c9904ab86c127eeb521f4002a42f794f4f01",
        "02e5da5ae41b8fbd3798501133d5c8dd21f2500a19aefb6d568c68f8e067eeb5b0"
      ],
      "is_coinbase": false,
      "sequence": 4294967293
    },
    {
      "txid": "2b0006276bc1639af22302bb10cca31f6c33c6afa2f11101fd925655b17cf77c",
      "vout": 0,
      "prevout": {
        "scriptpubkey": "00143074eb7b203aa9ce59b6a22384830be624a28b96",
        "scriptpubkey_asm": "OP_0 OP_PUSHBYTES_20 3074eb7b203aa9ce59b6a22384830be624a28b96",
        "scriptpubkey_type": "v0_p2wpkh",
        "scriptpubkey_address": "bc1qxp6wk7eq825uukdk5g3cfqctucj29zuk3ayrr3",
        "value": 11884691
      },
      "scriptsig": "",
      "scriptsig_asm": "",
      "witness": [
        "304402207f94e9a2920e79f321707ca5e70f8cdd748045307f0628c187aaca271444b2cb02206598d9a4bdf7547c83fb3fd1dd1443f722ee35cd74c7bca2549aa241361347f301",
        "02d174a230ba9a99990dfac98b685d39eb5f17565f082b0ef614921b1accf3f7c1"
      ],
      "is_coinbase": false,
      "sequence": 4294967293
    },
    {
      "txid": "410c351274a0f96ca5c79cf2b10b0331ef360cf0884fea70de1297a2e0fee891",
      "vout": 0,
      "prevout": {
        "scriptpubkey": "001409233407cd433e2ea2713365017619525b9f5616",
        "scriptpubkey_asm": "OP_0 OP_PUSHBYTES_20 09233407cd433e2ea2713365017619525b9f5616",
        "scriptpubkey_type": "v0_p2wpkh",
        "scriptpubkey_address": "bc1qpy3ngp7dgvlzagn3xdjszase2fde74skg04px0",
        "value": 13692005
      },
      "scriptsig": "",
      "scriptsig_asm": "",
      "witness": [
        "304402203768525d111617d76af397af1df11007e0aa0678f3cccb997eb0d62c3409d70002200aaaa7c3aa4cbad26278c4715f604bd3fb15e970f00a0a8b89afd5fe8e86d26801",
        "02e5da5ae41b8fbd3798501133d5c8dd21f2500a19aefb6d568c68f8e067eeb5b0"
      ],
      "is_coinbase": false,
      "sequence": 4294967293
    }
  ],
  "vout": [
    {
      "scriptpubkey": "a91499c8c53439437c33c48a6094ff0ada3e0b458b2c87",
      "scriptpubkey_asm": "OP_HASH160 OP_PUSHBYTES_20 99c8c53439437c33c48a6094ff0ada3e0b458b2c OP_EQUAL",
      "scriptpubkey_type": "p2sh",
      "scriptpubkey_address": "3Fi9pfH4BeEQmRJr8RuDFiX5WKnJ4AJHsB",
      "value": 32690000
    },
    {
      "scriptpubkey": "0014fd1b6c61fe998a0f62297812df4bb54113a0c391",
      "scriptpubkey_asm": "OP_0 OP_PUSHBYTES_20 fd1b6c61fe998a0f62297812df4bb54113a0c391",
      "scriptpubkey_type": "v0_p2wpkh",
      "scriptpubkey_address": "bc1ql5dkcc07nx9q7c3f0qfd7ja4gyf6psu3txm3pq",
      "value": 4765623
    },
    {
      "scriptpubkey": "0014c5fdbee85910ae3eb473291112fbe2a16be37e45",
      "scriptpubkey_asm": "OP_0 OP_PUSHBYTES_20 c5fdbee85910ae3eb473291112fbe2a16be37e45",
      "scriptpubkey_type": "v0_p2wpkh",
      "scriptpubkey_address": "bc1qch7ma6zezzhradrn9yg397lz5947xlj997t3vn",
      "value": 2006470
    }
  ],
  "size": 550,
  "weight": 1231,
  "fee": 5278,
  "status": {
    "confirmed": true,
    "block_height": 834638,
    "block_hash": "000000000000000000025f742c626208ac87e0b7d15054abb4a19ca2d735a54e",
    "block_time": 1710405325
  },
  "hex": "020000000001037743703bba621692bf31240a42758cee5a0d6badeb9691b794183af10bc5ab710000000000fdffffff7cf77cb1555692fd0111f1a2afc6336c1fa3cc10bb0223f29a63c16b2706002b0000000000fdffffff91e8fee0a29712de70ea4f88f00c36ef31030bb1f29cc7a56cf9a07412350c410000000000fdffffff0350cff2010000000017a91499c8c53439437c33c48a6094ff0ada3e0b458b2c87b7b7480000000000160014fd1b6c61fe998a0f62297812df4bb54113a0c391c69d1e0000000000160014c5fdbee85910ae3eb473291112fbe2a16be37e450247304402201c58e56d0b194bd13362b4447fc6b330745b91f08c7b89c0d40d51551aa7b12e022014161fc4889d47d37078c8a5156229c9904ab86c127eeb521f4002a42f794f4f012102e5da5ae41b8fbd3798501133d5c8dd21f2500a19aefb6d568c68f8e067eeb5b00247304402207f94e9a2920e79f321707ca5e70f8cdd748045307f0628c187aaca271444b2cb02206598d9a4bdf7547c83fb3fd1dd1443f722ee35cd74c7bca2549aa241361347f3012102d174a230ba9a99990dfac98b685d39eb5f17565f082b0ef614921b1accf3f7c10247304402203768525d111617d76af397af1df11007e0aa0678f3cccb997eb0d62c3409d70002200aaaa7c3aa4cbad26278c4715f604bd3fb15e970f00a0a8b89afd5fe8e86d268012102e5da5ae41b8fbd3798501133d5c8dd21f2500a19aefb6d568c68f8e067eeb5b000000000"
}