{
  "txid": "de59f372a007f5c83e40e5ce731bf7bdca3bbe60cfae906a1f55321e3e617a42",
  "version": 1,
  "locktime": 0,
  "vin": [
    {
      "txid": "7fd593bdfcb8c8aba419645040ed95bda3bf4092b8aca7df9c4468e3a65d1a3e",
      "vout": 1,
      "prevout": {
        "scriptpubkey": "0014396d6a96f4c0067c176113449290c86bbc09a92c",
        "scriptpubkey_asm": "OP_0 OP_PUSHBYTES_20 396d6a96f4c0067c176113449290c86bbc09a92c",
        "scriptpubkey_type": "v0_p2wpkh",
        "scriptpubkey_address": "bc1q89kk49h5cqr8c9mpzdzf9yxgdw7qn2fvp48jj5",
        "value": 157680
      },
      "scriptsig": "",
      "scriptsig_asm": "",
      "witness": [
        "30440220703f97d935c3ca6c1150584ac9737b9e3ff383f84d7eb02c1a0ee85a7f7a49a1022073153972181c1c68ee383590a6af0c474cf0e8898c79bc9fa93f15ef1d57e5e201",
        "037139f22c2845a203365f16ca5037850e9306cd820079e7794cc5106b7887262b"
      ],
      "is_coinbase": false,
      "sequence": 4294967295
    }
  ],
  "vout": [
    {
      "scriptpubkey": "00144a67ccc8735b4509b44a5f4d3e1a6d7c32bfec6e",
      "scriptpubkey_asm": "OP_0 OP_PUSHBYTES_20 4a67ccc8735b4509b44a5f4d3e1a6d7c32bfec6e",
      "scriptpubkey_type": "v0_p2wpkh",
      "scriptpubkey_address": "bc1qffnuejrntdzsndz2taxnuxnd0setlmrwe46cqh",
      "value": 87100
    },
    {
      "scriptpubkey": "0014396d6a96f4c0067c176113449290c86bbc09a92c",
      "scriptpubkey_asm": "OP_0 OP_PUSHBYTES_20 396d6a96f4c0067c176113449290c86bbc09a92c",
      "scriptpubkey_type": "v0_p2wpkh",
      "scriptpubkey_address": "bc1q89kk49h5cqr8c9mpzdzf9yxgdw7qn2fvp48jj5",
      "value": 66773
    }
  ],
  "size": 222,
  "weight": 561,
  "fee": 3807,
  "status": {
    "confirmed": true,
    "block_height": 834638,
    "block_hash": "000000000000000000025f742c626208ac87e0b7d15054abb4a19ca2d735a54e",
    "block_time": 1710405325
  },
  "hex": "010000000001013e1a5da6e368449cdfa7acb89240bfa3bd95ed40506419a4abc8b8fcbd93d57f0100000000ffffffff023c540100000000001600144a67ccc8735b4509b44a5f4d3e1a6d7c32bfec6ed504010000000000160014396d6a96f4c0067c176113449290c86bbc09a92c024730440220703f97d935c3ca6c1150584ac9737b9e3ff383f84d7eb02c1a0ee85a7f7a49a1022073153972181c1c68ee383590a6af0c474cf0e8898c79bc9fa93f15ef1d57e5e20121037139f22c2845a203365f16ca5037850e9306cd820079e7794cc5106b7887262b00000000"
}