{
  "txid": "de7a0328bcb32ffadfeda9edbe576ec37cd2b8ba64d88f7190f061475f360901",
  "version": 1,
  "locktime": 0,
  "vin": [
    {
      "txid": "8f341d249d37fbe9ce984fe47cf8b256a387ba8a063442c45ba572c96b05b1a9",
      "vout": 1,
      "prevout": {
        "scriptpubkey": "76a9148c7963ee0ade61c92e87a8e17104e7fe032efe0788ac",
        "scriptpubkey_asm": "OP_DUP OP_HASH160 OP_PUSHBYTES_20 8c7963ee0ade61c92e87a8e17104e7fe032efe07 OP_EQUALVERIFY OP_CHECKSIG",
        "scriptpubkey_type": "p2pkh",
        "scriptpubkey_address": "1Dom2Cw1QiDqAJzKAkiKoB3H12g3QEazh9",
        "value": 1287465
      },
      "scriptsig": "4830450221009c09a5d1a2fe21a2fc31dccf0aa07fbdda4e6478835cc0cae0317f71ec71dfdc02204a93b8510b5730ae05624384806efc447061f3ca9d14c19cc869ccf9aebdcf06012103a4f69ba1f895a5d419572ec31960e4457d5ce905be92feacb97bc86e60b6064e",
      "scriptsig_asm": "OP_PUSHBYTES_72 30450221009c09a5d1a2fe21a2fc31dccf0aa07fbdda4e6478835cc0cae0317f71ec71dfdc02204a93b8510b5730ae05624384806efc447061f3ca9d14c19cc869ccf9aebdcf0601 OP_PUSHBYTES_33 03a4f69ba1f895a5d419572ec31960e4457d5ce905be92feacb97bc86e60b6064e",
      "is_coinbase": false,
      "sequence": 4294967295
    }
  ],
  "vout": [
    {
      "scriptpubkey": "a91408b3b0501de09f89261b27a5a4905316e13acc3187",
      "scriptpubkey_asm": "OP_HASH160 OP_PUSHBYTES_20 08b3b0501de09f89261b27a5a4905316e13acc31 OP_EQUAL",
      "scriptpubkey_type": "p2sh",
      "scriptpubkey_address": "32V2b4zmJ8DFTNrR1ocvwz2CoY2kBaLB3c",
      "value": 683600
    },
    {
      "scriptpubkey": "76a9149b59dbf3d5a7d4b5c156bfa1c4dd8fbde602e34d88ac",
      "scriptpubkey_asm": "OP_DUP OP_HASH160 OP_PUSHBYTES_20 9b59dbf3d5a7d4b5c156bfa1c4dd8fbde602e34d OP_EQUALVERIFY OP_CHECKSIG",
      "scriptpubkey_type": "p2pkh",
      "scriptpubkey_address": "1FARPG4TcTo2M2HzWjBG2CMwttFoBETrND",
      "value": 599345
    }
  ],
  "size": 224,
  "weight": 896,
  "fee": 4520,
  "status": {
    "confirmed": true,
    "block_height": 834638,
    "block_hash": "000000000000000000025f742c626208ac87e0b7d15054abb4a19ca2d735a54e",
    "block_time": 1710405325
  },
  "hex": "0100000001a9b1056bc972a55bc44234068aba87a356b2f87ce44f98cee9fb379d241d348f010000006b4830450221009c09a5d1a2fe21a2fc31dccf0aa07fbdda4e6478835cc0cae0317f71ec71dfdc02204a93b8510b5730ae05624384806efc447061f3ca9d14c19cc869ccf9aebdcf06012103a4f69ba1f895a5d419572ec31960e4457d5ce905be92feacb97bc86e60b6064effffffff02506e0a000000000017a91408b3b0501de09f89261b27a5a4905316e13acc318731250900000000001976a9149b59dbf3d5a7d4b5c156bfa1c4dd8fbde602e34d88ac00000000"
}