{
  "txid": "de86c733a263624132acc1d49d8401418dde8131340f7c705fc372e4b104432c",
  "version": 2,
  "locktime": 0,
  "vin": [
    {
      "txid": "0d25833f6078a3c1f3fa65002f82ebab6514e7112141119c1995c9252487f335",
      "vout": 8,
      "prevout": {
        "scriptpubkey": "a914aad8d480b6708bb8ce5428c6c9871827383825ec87",
        "scriptpubkey_asm": "OP_HASH160 OP_PUSHBYTES_20 aad8d480b6708bb8ce5428c6c9871827383825ec OP_EQUAL",
        "scriptpubkey_type": "p2sh",
        "scriptpubkey_address": "3HGNYmpjYHFxf8cMVKYxtqwmFbZvEBvHGH",
        "value": 1642336
      },
      "scriptsig": "160014a7f9b90276251d22c9cdb846af7eebca7c8e53f7",
      "scriptsig_asm": "OP_PUSHBYTES_22 0014a7f9b90276251d22c9cdb846af7eebca7c8e53f7",
      "witness": [
        "30440220430442d86b69f3aed4807e741f5f36cb9466ca9a6e4d2171e068ec87621e878b02202cb930ab69a7c423048ef39766b6f8dccdff65a4326012bc567de76a7b8e590c01",
        "0294048d0bae9890b4a59ba2c5a2aa445bfd2b3e52025095cf8368362a2b3c25e9"
      ],
      "is_coinbase": false,
      "sequence": 4294967295,
      "inner_redeemscript_asm": "OP_0 OP_PUSHBYTES_20 a7f9b90276251d22c9cdb846af7eebca7c8e53f7"
    }
  ],
  "vout": [
    {
      "scriptpubkey": "0014c90f6c616da1fcd3d0a16ddaac595316614c00f6",
      "scriptpubkey_asm": "OP_0 OP_PUSHBYTES_20 c90f6c616da1fcd3d0a16ddaac595316614c00f6",
      "scriptpubkey_type": "v0_p2wpkh",
      "scriptpubkey_address": "bc1qey8kcctd587d859pdhd2ck2nzes5cq8kvkwmgf",
      "value": 1522920
    },
    {
      "scriptpubkey": "00149173868aa6f165aec04b84fff3ac64e3679ffadf",
      "scriptpubkey_asm": "OP_0 OP_PUSHBYTES_20 9173868aa6f165aec04b84fff3ac64e3679ffadf",
      "scriptpubkey_type": "v0_p2wpkh",
      "scriptpubkey_address": "bc1qj9ecdz4x79j6asztsnll8tryudnel7klhywutz",
      "value": 15540
    },
    {
      "scriptpubkey": "a91418ff9cf193b9d3a010b50ccf87a09d34b7a2153987",
      "scriptpubkey_asm": "OP_HASH160 OP_PUSHBYTES_20 18ff9cf193b9d3a010b50ccf87a09d34b7a21539 OP_EQUAL",
      "scriptpubkey_type": "p2sh",
      "scriptpubkey_address": "33yCMTKJZKxqxqdimw1wTWmLUvehxb3xnT",
      "value": 15540
    },
    {
      "scriptpubkey": "a914aad8d480b6708bb8ce5428c6c9871827383825ec87",
      "scriptpubkey_asm": "OP_HASH160 OP_PUSHBYTES_20 aad8d480b6708bb8ce5428c6c9871827383825ec OP_EQUAL",
      "scriptpubkey_type": "p2sh",
      "scriptpubkey_address": "3HGNYmpjYHFxf8cMVKYxtqwmFbZvEBvHGH",
      "value": 83472
    }
  ],
  "size": 309,
  "weight": 909,
  "fee": 4864,
  "status": {
    "confirmed": true,
    "block_height": 834460,
    "block_hash": "00000000000000000000484a79b643b2524bbce82e5d8a442013fa5b8905ed98",
    "block_time": 1710307468
  },
  "hex": "0200000000010135f3872425c995199c11412111e71465abeb822f0065faf3c1a378603f83250d0800000017160014a7f9b90276251d22c9cdb846af7eebca7c8e53f7ffffffff04e83c170000000000160014c90f6c616da1fcd3d0a16ddaac595316614c00f6b43c0000000000001600149173868aa6f165aec04b84fff3ac64e3679ffadfb43c00000000000017a91418ff9cf193b9d3a010b50ccf87a09d34b7a2153987104601000000000017a914aad8d480b6708bb8ce5428c6c9871827383825ec87024730440220430442d86b69f3aed4807e741f5f36cb9466ca9a6e4d2171e068ec87621e878b02202cb930ab69a7c423048ef39766b6f8dccdff65a4326012bc567de76a7b8e590c01210294048d0bae9890b4a59ba2c5a2aa445bfd2b3e52025095cf8368362a2b3c25e900000000"
}