{
  "txid": "de99b15fc5028708648b7f1b9b8d307b25de2b141744c709d52b3ce08f32cf19",
  "version": 2,
  "locktime": 834637,
  "vin": [
    {
      "txid": "243ee81c0f1298767cdd52578aee6228d74d460677edd9e40428e259541392da",
      "vout": 41,
      "prevout": {
        "scriptpubkey": "001484cf645666dd0dd18a8c2701d900fd17b74c66c2",
        "scriptpubkey_asm": "OP_0 OP_PUSHBYTES_20 84cf645666dd0dd18a8c2701d900fd17b74c66c2",
        "scriptpubkey_type": "v0_p2wpkh",
        "scriptpubkey_address": "bc1qsn8kg4nxm5xarz5vyuqajq8az7m5cekzdkvrfy",
        "value": 124354
      },
      "scriptsig": "",
      "scriptsig_asm": "",
      "witness": [
        "304402201216bccf0516e9434b1c62483ded7d0c3c951fc4cb8931cd9f1a2037b277845502203cdf329bdbb1a6b6cf1cd2380abc72b0235be5680f0eb707a906123e554e876701",
        "03d351799f01cba00593bf881bd72a7b86020feba0b1c82c7219d784f9edbfcc7c"
      ],
      "is_coinbase": false,
      "sequence": 4294967293
    },
    {
      "txid": "553533aa9551583f412e5364df0487052cc7b6fb30d194aa24d969fd39fed86d",
      "vout": 0,
      "prevout": {
        "scriptpubkey": "001459e234132217e05fc171790fb86ef33a20911907",
        "scriptpubkey_asm": "OP_0 OP_PUSHBYTES_20 59e234132217e05fc171790fb86ef33a20911907",
        "scriptpubkey_type": "v0_p2wpkh",
        "scriptpubkey_address": "bc1qt83rgyezzls9lst30y8msmhn8gsfzxg8nyj6z9",
        "value": 42818
      },
      "scriptsig": "",
      "scriptsig_asm": "",
      "witness": [
        "3044022012fe21f4c4c250183efd3666187e0d0098540f2c38f2a70430819f459925e179022014cfd0932b5f4bbe23e387ac0d4287c717cc8e066f783904a4dce0038c8b5d4901",
        "036f1d83f55c63c93953c3610e98e2da5a5b4ad9c6c05a9548f8ba385bff82d421"
      ],
      "is_coinbase": false,
      "sequence": 4294967293
    },
    {
      "txid": "924c53a8e254c1060c7343501e7769a298801c3d5aad198ed46fb5f0d645ab61",
      "vout": 0,
      "prevout": {
        "scriptpubkey": "001459e234132217e05fc171790fb86ef33a20911907",
        "scriptpubkey_asm": "OP_0 OP_PUSHBYTES_20 59e234132217e05fc171790fb86ef33a20911907",
        "scriptpubkey_type": "v0_p2wpkh",
        "scriptpubkey_address": "bc1qt83rgyezzls9lst30y8msmhn8gsfzxg8nyj6z9",
        "value": 78988
      },
      "scriptsig": "",
      "scriptsig_asm": "",
      "witness": [
        "30440220624677fc0d5588385df5e0327a2661a5896e37eccd852d59c9b90f43425e6b150220207f7362561d55be4404b2c36927c2b53832539623dcd83cdb254615372a350701",
        "036f1d83f55c63c93953c3610e98e2da5a5b4ad9c6c05a9548f8ba385bff82d421"
      ],
      "is_coinbase": false,
      "sequence": 4294967293
    }
  ],
  "vout": [
    {
      "scriptpubkey": "0014f0a5bb9d9cbb04271635802653482655a53429ef",
      "scriptpubkey_asm": "OP_0 OP_PUSHBYTES_20 f0a5bb9d9cbb04271635802653482655a53429ef",
      "scriptpubkey_type": "v0_p2wpkh",
      "scriptpubkey_address": "bc1q7zjmh8vuhvzzw934sqn9xjpx2kjng200ac9qkj",
      "value": 242249
    }
  ],
  "size": 487,
  "weight": 979,
  "fee": 3911,
  "status": {
    "confirmed": true,
    "block_height": 834638,
    "block_hash": "000000000000000000025f742c626208ac87e0b7d15054abb4a19ca2d735a54e",
    "block_time": 1710405325
  },
  "hex": "02000000000103da92135459e22804e4d9ed7706464dd72862ee8a5752dd7c7698120f1ce83e242900000000fdffffff6dd8fe39fd69d924aa94d130fbb6c72c058704df64532e413f585195aa3335550000000000fdffffff61ab45d6f0b56fd48e19ad5a3d1c8098a269771e5043730c06c154e2a8534c920000000000fdffffff0149b2030000000000160014f0a5bb9d9cbb04271635802653482655a53429ef0247304402201216bccf0516e9434b1c62483ded7d0c3c951fc4cb8931cd9f1a2037b277845502203cdf329bdbb1a6b6cf1cd2380abc72b0235be5680f0eb707a906123e554e8767012103d351799f01cba00593bf881bd72a7b86020feba0b1c82c7219d784f9edbfcc7c02473044022012fe21f4c4c250183efd3666187e0d0098540f2c38f2a70430819f459925e179022014cfd0932b5f4bbe23e387ac0d4287c717cc8e066f783904a4dce0038c8b5d490121036f1d83f55c63c93953c3610e98e2da5a5b4ad9c6c05a9548f8ba385bff82d421024730440220624677fc0d5588385df5e0327a2661a5896e37eccd852d59c9b90f43425e6b150220207f7362561d55be4404b2c36927c2b53832539623dcd83cdb254615372a35070121036f1d83f55c63c93953c3610e98e2da5a5b4ad9c6c05a9548f8ba385bff82d4214dbc0c00"
}