{
  "txid": "dea40c479978c6409e106b68d65638545fe056666370c8834a5d5e9ae276743a",
  "version": 2,
  "locktime": 0,
  "vin": [
    {
      "txid": "acc3ba00869acb582a3f2904ce3a11dd3779350ce234063fc7d0959246213364",
      "vout": 110,
      "prevout": {
        "scriptpubkey": "5120f6be737baaa621a4faa59777304f627bd648e861896adc5629875931e890a180",
        "scriptpubkey_asm": "OP_PUSHNUM_1 OP_PUSHBYTES_32 f6be737baaa621a4faa59777304f627bd648e861896adc5629875931e890a180",
        "scriptpubkey_type": "v1_p2tr",
        "scriptpubkey_address": "bc1p76l8x7a25cs6f749jamnqnmz00ty36rp394dc43fsavnr6ys5xqqj85w4v",
        "value": 1806
      },
      "scriptsig": "",
      "scriptsig_asm": "",
      "witness": [
        "fb7c5a1538e3968023b1790231db0ef6517a3ff9bc86b095780bba9a9066b389cc073ade381e0963785c2736f005069b741a3371e089b19038bf00a307ef002d",
        "203b8aef61dcb4e7746788d60630c8437a66e9d3019ff497fd469b22d4ddf41ca8ac0063036f726401010a746578742f706c61696e00357b2270223a226272632d3230222c226f70223a226d696e74222c227469636b223a22646f6765222c22616d74223a2234323030227d68",
        "c03b8aef61dcb4e7746788d60630c8437a66e9d3019ff497fd469b22d4ddf41ca8"
      ],
      "is_coinbase": false,
      "sequence": 4261412863
    }
  ],
  "vout": [
    {
      "scriptpubkey": "00147a665de7a370f4c9b372ab1fae587500a5bcbdb4",
      "scriptpubkey_asm": "OP_0 OP_PUSHBYTES_20 7a665de7a370f4c9b372ab1fae587500a5bcbdb4",
      "scriptpubkey_type": "v0_p2wpkh",
      "scriptpubkey_address": "bc1q0fn9mearwr6vnvmj4v06ukr4qzjme0d565dzcx",
      "value": 294
    }
  ],
  "size": 294,
  "weight": 540,
  "fee": 1512,
  "status": {
    "confirmed": true,
    "block_height": 834460,
    "block_hash": "00000000000000000000484a79b643b2524bbce82e5d8a442013fa5b8905ed98",
    "block_time": 1710307468
  },
  "hex": "02000000000101643321469295d0c73f0634e20c357937dd113ace04293f2a58cb9a8600bac3ac6e00000000fffffffd0126010000000000001600147a665de7a370f4c9b372ab1fae587500a5bcbdb40340fb7c5a1538e3968023b1790231db0ef6517a3ff9bc86b095780bba9a9066b389cc073ade381e0963785c2736f005069b741a3371e089b19038bf00a307ef002d6d203b8aef61dcb4e7746788d60630c8437a66e9d3019ff497fd469b22d4ddf41ca8ac0063036f726401010a746578742f706c61696e00357b2270223a226272632d3230222c226f70223a226d696e74222c227469636b223a22646f6765222c22616d74223a2234323030227d6821c03b8aef61dcb4e7746788d60630c8437a66e9d3019ff497fd469b22d4ddf41ca800000000"
}