{
  "txid": "deacd7168c603fc222cf4f31b6e843ee0df24fc79fc7728bc74e5f114e4078bd",
  "version": 2,
  "locktime": 0,
  "vin": [
    {
      "txid": "583f89a6ebd17089efe8ca08c5c32e4b449fbaaecddda896b546d12794d9288c",
      "vout": 0,
      "prevout": {
        "scriptpubkey": "5120393642cdfe705f5c1c6b9f0be9a4b5c4d3ebd3e7e6f164f3c028bca7a6ad9242",
        "scriptpubkey_asm": "OP_PUSHNUM_1 OP_PUSHBYTES_32 393642cdfe705f5c1c6b9f0be9a4b5c4d3ebd3e7e6f164f3c028bca7a6ad9242",
        "scriptpubkey_type": "v1_p2tr",
        "scriptpubkey_address": "bc1p8ymy9n07wp04c8rtnu97nf94cnf7h5l8umckfu7q9z720f4djfpqh2u5ry",
        "value": 33186
      },
      "scriptsig": "",
      "scriptsig_asm": "",
      "witness": [
        "a6c3529fa0500723583002ded74ededeb59afecb747522a51cdabb1c3c0209981530487503c8318b762297bfbf3e4617c7579a36c1a75d9a74abeaf880a31366",
        "20f2d00e1cce0b839d2e197679cac7a15152ec244338032c7767f72c1332d49a65ac0063036f7264010109696d6167652f706e67004d080289504e470d0a1a0a0000000d49484452000000c8000000c80806000000ad58ae9e000000097048597300002e2300002e230178a53f7600000de349444154789ced9d5d6f1db71186cfafca2fed7f59f4be77bd4aee52a068ebb8090a59366d59b1e2d4b305556fc250fc1a7e0ec9778001a4a3dd3d7bc879f8ce90d49edb71d209471b2006c8d90637340ce0400c90b70d00080001202700411060203873da000a82c0c1e0710290ee41a0fef4cd6f0e0869da3680827400441228b7dbed858fbea743b003908d00b980300d9010009102c848505c7098908c86f710ea5090ce708c802404870b10571a76db142200b2382031386c404c202edb19120002405e2885cf6e1b42024006a8474f15495510004200a44740ba40d0f6e1ee7108285c40528e3b048cecbd1c0ad2188e0b9037af3e3cbbb6de4a929a3a716a95631307200300e90d492a2031bb0190f1c4ceec2e302e8b01321212a457e46fb7d141b5031c2e407c90b404c59eba051c146fb3d181b51320ba5077592b487c0b7e3e405c0a73dbb030ff431b8ebe819d00f1590b4042fbae6c384245fa6d63389edb71f40dec00470c90da90a4d41b2e507cd01c02da789403102180b8202901c407870d840f1cfbd84340b0029045e1787afc9c04880b921c5852a76c7dbf23d52228484f405c33585c486a01929262c5ce3d040c4cbd1c295645386a01520a49ca7a47a840e76c8d3f164d080277005211109f6938749ac5b5dc742b14f8b15a2366b7cd540480740224d76a411282c30c7e004200a4677a550a4809241c75b900c1864502202de0f001a257cf4b01a909496ce72e8a740220bdd5a30620b5204901045b4e0835484f40720a742e2ca5e9950d0856d4e9ff6d56231fdfc939705c80b4b09ab35b31400e01ed3eca01484340382be83d20e100323a300f210e4026a93f42960a89ad0aa83508808c4caff40c568bfa2317121720bea9ded123f721c4a1200d01c9550fee029f0b921440ecd700070190d90049fd5b8e82b046d2db9e335b509002404256b24018530adf7131487202fbb679410f401a015252a0a702621f7bb90f92544052d2b9cb0088008a6705a4a44077edb44dd906e2028503488e7a1d02faa695434132018959e9f4ae19a09c423d0449a87ec84deb6e00643cc5b3a9476d405cc1c90d667dcf3e4052156a37f5786e9bd137b022203556d07d2956e8b5d0757c33501cd02e0320020252da08d5ab4037cd05842b4863b0848ee5c071db28b5fa2d0e25c32105929cf4caf714458eb9a0c80d7c2e1ca1e36f42fa654b407ca9c068ef597f8402d57eddfed93ec77ccdf7b7d07b6a93da27db0112ca956781633420b1c036cf8fbddf65f6cfa3fb634b40421d3b13202db6b887d226577b715231d771bed76e42fa633b4062923e0b1c2db7b8a7aa4828dd4af1eb1cdff9878078d90a90d44e9d09901a05bacf4d08027cf5438a2aa4c0619ea74d421f0010a1807067afb4f5f807a9d8a0e23ade3e2655456e1bc32152417c9d0640c2a070829f7bee212050b704c4377249e924ae7af45290140ba54fa1e346b7f921ccc501e2ebb89170a402d2fa210dad2ce70929c7262e06106905620e20afbebb5b0610404200a4261cdabeffcbebf35fdffea7d9c3e25a1a20a1391424548f8c500e0e201a0ef3df6d5b4ff9b63028090190968098ca71d5242361f17d86d0e7022404054985237dfde3fdf9ed9ffff10c82eb3c53557ac2e2ba97d8e70220340720e6ef3d52ac5c38b452e8fa43bb0988ef7c7dbc0d4c2b68428000128ac72800294fad7470fff4b7b7e7dffffa53d1f470c8738b7efb3eb8f7a7369fdd120788b6110a929f5afd1ec4b1f339d0a58213521dd7bde4a4916a634800480120fa986bdd2325f0b8cac48527452d7cf789748be602a4f7546feea87a8de0a923754e0a976ae6b56d60526049b9ae828200104ec0b87ef705952f486bc31183c1778e2f5d530044ae8298bf4b51104e3a95eaa59693e2d9c7fa6a1c054000486d405cc771cead01470c10df3dda358e022000243568392ae0fb7b6b407c305cafa7dc63ea673e06d6b05db29ca16f9ef05f70d252ac94200c9d130ab81c0b4158727ee8180540e402d20a12ae227082d075ac2be5cab1503ac5b92f8e122a00220b90ebf79180d408646e60a65cb3569a665e2fe5bd1452acf180f44c4d0802b342a3a43d9353c35c2997144038901c9d06d3512eba06910248ca06c496812901100505190b89cb2414eab58ae9dcc04c3d0f80d07a0a0240ca02bd26209c090a85144b0e203d1fe020414100080d1db0a753909e9b162500927b1e1484d606447aa10e40be418a0540e602a4f45cdf755083901c053155c4651215a42624a5d7ad714f299f4f4141000807905a90945eafc63da55e4361160b0ae203a10520b5ae57721dcee75200443620add3ac9052d456919e3350a9e7c5ce550004808482a646bad52a5d2b0d740042eec15b92828cded51b0b9a929aa4753d937addd03da43c995e59e78c8e9de6b1390320bd66b26a041907a85a7070ee2d04470e206a714844006242629bbd822e019092406c0947eebd690320341f20213846035203921e96fadea9df8ea5a020630171b9af936b439213c8d28028b1d46fc75248b1c602c21d894702e20bb419bf8a0d80d0cbb89406086704ae0d090081821cb30212b25a9070d323dfc402148486c753b5b8940448496ad35a497c80b82c1590d00e8294f7a9716dfbf89473146a90fe8070e1685993c4008905530a209c802c0124f55c0042b215a4f6acd12840aed75301490dde1ccb0524768e8282c80424562300107fd07321012024474172ea0ed7f1b546b6d60ac24daf4a53acda2aa2a020f20169d9711c4046794eb0c7ce0720b48e828c062425c0b823b82f484b202a39c767509009014d0802a959a873d7615cd663259dab32b1e3b1924eeb29488b99ac5900a96d0084d601a4e5542f00e1b5fd2120869606a4c53a0800e11b1484e600c407896bdd23064d8d7b418af54783820886c465b5950480f0dafb1030c02eaf20bec00c81d22ad50220fc01e910103fcb031282a4d40148bb1a442d0c8938404a21a931ca4141f200510b422212901c48523a1280b45510b520246201c901a5162450101e24da5605453c20d79609b3e1afad113980a4765e29242bafa46bab9dd64af56900d166ef1dca5591948eac01887ed6d44e805cb612245300e2db845743494a53389fcdf8e0865a80aca426e201b920b92c1790cb00481f405681644a406cd7c7e48ef45090768094d480527c19406c48b8a0d8567aaddd532cdb004863407a430240d2db27b74d470fbccb28884f45cc9f01c8b885428ecd966e2d0788f6d219285747726da7144b152a896448a606c49562f9004999baad35c5bb2b206ac1946b2a407cee3abe643a1780f082fb68f0bf3ca3e36d094042c78f06e4c3dde3360a7278da9c6352219906905ade0b106dab02a202815cbb36190dca7680e442d432e0567b6883aa5c9b8c0405802482d232e0567caa895a04120002409a00725450e350ca0b4004a65a5cdb59418e4a6d094004800040da037234d8508a140b8088034415046a493d07400428462c2de076ee8a29960220e303539ae7420240285b41ecf6868208000180c84d08025110e5189450830880010a2203106d2ed546912e00881d53ac94bd63aa7036c917eca9ef67bfdea3efb150d810101d74b358caf67cd508100e245010018a01405edad3e3e76a80f86a8a16504241004815d3eae153bca7c7cfe78fdfdf3fffbd34586333530044802240415e5a0c8ea7af4f89ac0548cc4d1ba51eda518320c57202a28178f3b52e311fa1da0a9054787a0f8e0024a363572cd2cd7bbd54e38da368af15b4be6b488203806476684ed0cd3283e5520dd3a4042e0011d038bb00a26178ff751d24673fd621a07f5a39522c00f20cb25988031002205090df57cfb94aa7a020e3a54d9aaf946299335439a600c8f88094e629abbe3300122bc2534c0190f10129cd6707e44aa76a6ca05400647c404af3590131d7346a7c67a2c234eff86094e87660a404dc4840cc3aa3e67d2800323e1825ba1d18bead1876808e9cb6ad0da812b4c2ddcbb10e92098809c2fd0f0fe7fdeb87f3e1fee7a15f7f60d6192dbe825a0190f1c44af5d88ed3fffefae5fcfce9d7e7c0fcf8f6d379f7cff7e7fd0f7d00b9d48ab3d8c735b5211cdaa1209500b1edcb173a1fdefc7c7e7cf7e96c692dea0cdb94b00d84006401404cfbf4f0cbf9eec78f5583b8e6b46dc894b0ede700644140b4119de7c7774fe7db7f3f3c2b0bc7ccb4293639d0130c0540c607a624f7050bd7debe7e484e8df4df2fef0186b6dd55e3301c35c80040387ba25e7d77f7ec4d01023dc0b86c77280e00220390cb2e75b80030c1d170f45e70041c04052919555a40626e093153af2bbdea658083a0205295444362a7513d57e4915a11522cc980f80c80106a90d1c59884346b2420500f4291de039216a0b45e29d706400880ccaa26294f5e2f31ac7790b76fb10e320120da00080d49a501c824e956ab34cb37adbbf3e2e00140da34664b405a4df762b59c0048ef51a7a58ad4dc6e8245418282aca424b58b750042006435486a0102380835c88a90d428d6010725f72166b12683a446b10e400880ac0c4949b10e3888d57750904180944092fbbfe88083d87d074006aa482e28396916f65a5156bf01904921e114eb8083b2fb0c804c0a08674d04a91501901540e11abe4f909af715144418241c5062b35948ad0880ec0c496c360ba91501905521299dcd021c54a57f90624d0e890b10c041d5fa0680088724068a6bba17801000191dd052d4c4ae43000755ed0f28c8e48098eb2198b5a2eafd0140165111a80735e90b003219242e503420500f0220a383560a20362880839af50314646258509853f3b60720934302f52000323a382539e0a0aeed0d05590c92d1f7762ce6006452071c04404607e10c0ef5a0a6ed0b05590490d1f7712cea00444027c0496c1b0010019d0027b16d00400474029cc4b6010011d0097012db0600444027c0496c1bfc0f0438d3e03a43ae940000000049454e44ae426082680063036f726401011e6170706c69636174696f6e2f6a736f6e3b636861727365743d7574662d38004d5e017b2270223a22766f7264222c2276223a312c227479223a22696e7363222c22636f6c223a2262383533613639326462393765393436363865303137323138346466393431326161306136336331616334626138656531333634646138663834366637306232222c22696964223a2252756e65746172647373222c227075626c223a2231455337623370636a527a4667796969714c7278484b546e43686535364c4a485937222c226e6f6e6365223a333236382c226d696e746572223a226263317074366571617936353871676a6c6d6d757677366d786e357a34396334746439636b6c687a743373796c7a6b7275353637673673717470766d6e36222c22736967223a224843735972587a786f5871494f2b315965304b5670685463617a416257654a58754d464b6f6c64587635706e52554f2f774e4135364e77712b633871334a4d516b6348766b4f75635950754e4576644b4a5a56492f31593d227d68",
        "c1f2d00e1cce0b839d2e197679cac7a15152ec244338032c7767f72c1332d49a65675a92934efa5e4869b2432a3e00abfc6819367af43949c2edc693b32d23ac05"
      ],
      "is_coinbase": false,
      "sequence": 4294967293
    }
  ],
  "vout": [
    {
      "scriptpubkey": "51205eb20e935438112fef7c63b5b34e82a97155b4b8b7ee25c604f8ac3e535e46a0",
      "scriptpubkey_asm": "OP_PUSHNUM_1 OP_PUSHBYTES_32 5eb20e935438112fef7c63b5b34e82a97155b4b8b7ee25c604f8ac3e535e46a0",
      "scriptpubkey_type": "v1_p2tr",
      "scriptpubkey_address": "bc1pt6eqay658qgjlmmuvw6mxn5z49c4td9cklhzt3sylzkru567g6sqtpvmn6",
      "value": 1000
    },
    {
      "scriptpubkey": "a914d88afa5bba84515ecba75b9367582017e50045ea87",
      "scriptpubkey_asm": "OP_HASH160 OP_PUSHBYTES_20 d88afa5bba84515ecba75b9367582017e50045ea OP_EQUAL",
      "scriptpubkey_type": "p2sh",
      "scriptpubkey_address": "3MRzNLWfwW82tYdyTRBeu7xzBNSV8cZ6Lb",
      "value": 15734
    },
    {
      "scriptpubkey": "51200705a5767db892e98125775049b1a13dd9ecdc8aea0df413cabbee683e871012",
      "scriptpubkey_asm": "OP_PUSHNUM_1 OP_PUSHBYTES_32 0705a5767db892e98125775049b1a13dd9ecdc8aea0df413cabbee683e871012",
      "scriptpubkey_type": "v1_p2tr",
      "scriptpubkey_address": "bc1pquz62anahzfwnqf9wagynvdp8hv7ehy2agxlgy72h0hxs058zqfqk8ksyq",
      "value": 2933
    }
  ],
  "size": 4408,
  "weight": 4915,
  "fee": 13519,
  "status": {
    "confirmed": true,
    "block_height": 834464,
    "block_hash": "0000000000000000000177a0869a911a2b65c9bdcd5a8bcb02b68f305bee848e",
    "block_time": 1710308296
  },
  "hex": "020000000001018c28d99427d146b596a8ddcdaeba9f444b2ec3c508cae8ef8970d1eba6893f580000000000fdffffff03e8030000000000002251205eb20e935438112fef7c63b5b34e82a97155b4b8b7ee25c604f8ac3e535e46a0763d00000000000017a914d88afa5bba84515ecba75b9367582017e50045ea87750b0000000000002251200705a5767db892e98125775049b1a13dd9ecdc8aea0df413cabbee683e8710120340a6c3529fa0500723583002ded74ededeb59afecb747522a51cdabb1c3c0209981530487503c8318b762297bfbf3e4617c7579a36c1a75d9a74abeaf880a31366fd061020f2d00e1cce0b839d2e197679cac7a15152ec244338032c7767f72c1332d49a65ac0063036f7264010109696d6167652f706e67004d080289504e470d0a1a0a0000000d49484452000000c8000000c80806000000ad58ae9e000000097048597300002e2300002e230178a53f7600000de349444154789ced9d5d6f1db71186cfafca2fed7f59f4be77bd4aee52a068ebb8090a59366d59b1e2d4b305556fc250fc1a7e0ec9778001a4a3dd3d7bc879f8ce90d49edb71d209471b2006c8d90637340ce0400c90b70d00080001202700411060203873da000a82c0c1e0710290ee41a0fef4cd6f0e0869da3680827400441228b7dbed858fbea743b003908d00b980300d9010009102c848505c7098908c86f710ea5090ce708c802404870b10571a76db142200b2382031386c404c202edb19120002405e2885cf6e1b42024006a8474f15495510004200a44740ba40d0f6e1ee7108285c40528e3b048cecbd1c0ad2188e0b9037af3e3cbbb6de4a929a3a716a95631307200300e90d492a2031bb0190f1c4ceec2e302e8b01321212a457e46fb7d141b5031c2e407c90b404c59eba051c146fb3d181b51320ba5077592b487c0b7e3e405c0a73dbb030ff431b8ebe819d00f1590b4042fbae6c384245fa6d63389edb71f40dec00470c90da90a4d41b2e507cd01c02da789403102180b8202901c407870d840f1cfbd84340b0029045e1787afc9c04880b921c5852a76c7dbf23d52228484f405c33585c486a01929262c5ce3d040c4cbd1c295645386a01520a49ca7a47a840e76c8d3f164d080277005211109f6938749ac5b5dc742b14f8b15a2366b7cd540480740224d76a411282c30c7e004200a4677a550a4809241c75b900c1864502202de0f001a257cf4b01a909496ce72e8a740220bdd5a30620b5204901045b4e0835484f40720a742e2ca5e9950d0856d4e9ff6d56231fdfc939705c80b4b09ab35b31400e01ed3eca01484340382be83d20e100323a300f210e4026a93f42960a89ad0aa83508808c4caff40c568bfa2317121720bea9ded123f721c4a1200d01c9550fee029f0b921440ecd700070190d90049fd5b8e82b046d2db9e335b509002404256b24018530adf7131487202fbb679410f401a015252a0a702621f7bb90f92544052d2b9cb0088008a6705a4a44077edb44dd906e2028503488e7a1d02faa695434132018959e9f4ae19a09c423d0449a87ec84deb6e00643cc5b3a9476d405cc1c90d667dcf3e4052156a37f5786e9bd137b022203556d07d2956e8b5d0757c33501cd02e0320020252da08d5ab4037cd05842b4863b0848ee5c071db28b5fa2d0e25c32105929cf4caf714458eb9a0c80d7c2e1ca1e36f42fa654b407ca9c068ef597f8402d57eddfed93ec77ccdf7b7d07b6a93da27db0112ca956781633420b1c036cf8fbddf65f6cfa3fb634b40421d3b13202db6b887d226577b715231d771bed76e42fa633b4062923e0b1c2db7b8a7aa4828dd4af1eb1cdff9878078d90a90d44e9d09901a05bacf4d08027cf5438a2aa4c0619ea74d421f0010a1807067afb4f5f807a9d8a0e23ade3e2655456e1bc32152417c9d0640c2a070829f7bee212050b704c4377249e924ae7af45290140ba54fa1e346b7f921ccc501e2ebb89170a402d2fa210dad2ce70929c7262e06106905620e20afbebb5b0610404200a4261cdabeffcbebf35fdffea7d9c3e25a1a20a1391424548f8c500e0e201a0ef3df6d5b4ff9b63028090190968098ca71d5242361f17d86d0e7022404054985237dfde3fdf9ed9ffff10c82eb3c53557ac2e2ba97d8e70220340720e6ef3d52ac5c38b452e8fa43bb0988ef7c7dbc0d4c2b68428000128ac72800294fad7470fff4b7b7e7dffffa53d1f470c8738b7efb3eb8f7a7369fdd120788b6110a929f5afd1ec4b1f339d0a58213521dd7bde4a4916a634800480120fa986bdd2325f0b8cac48527452d7cf789748be602a4f7546feea87a8de0a923754e0a976ae6b56d60526049b9ae828200104ec0b87ef705952f486bc31183c1778e2f5d530044ae8298bf4b51104e3a95eaa59693e2d9c7fa6a1c054000486d405cc771cead01470c10df3dda358e022000243568392ae0fb7b6b407c305cafa7dc63ea673e06d6b05db29ca16f9ef05f70d252ac94200c9d130ab81c0b4158727ee8180540e402d20a12ae227082d075ac2be5cab1503ac5b92f8e122a00220b90ebf79180d408646e60a65cb3569a665e2fe5bd1452acf180f44c4d0802b342a3a43d9353c35c2997144038901c9d06d3512eba06910248ca06c496812901100505190b89cb2414eab58ae9dcc04c3d0f80d07a0a0240ca02bd26209c090a85144b0e203d1fe020414100080d1db0a753909e9b162500927b1e1484d606447aa10e40be418a0540e602a4f45cdf755083901c053155c4651215a42624a5d7ad714f299f4f4141000807905a90945eafc63da55e4361160b0ae203a10520b5ae57721dcee75200443620add3ac9052d456919e3350a9e7c5ce550004808482a646bad52a5d2b0d740042eec15b92828cded51b0b9a929aa4753d937addd03da43c995e59e78c8e9de6b1390320bd66b26a041907a85a7070ee2d04470e206a714844006242629bbd822e019092406c0947eebd690320341f20213846035203921e96fadea9df8ea5a020630171b9af936b439213c8d28028b1d46fc75248b1c602c21d894702e20bb419bf8a0d80d0cbb89406086704ae0d090081821cb30212b25a9070d323dfc402148486c753b5b8940448496ad35a497c80b82c1590d00e8294f7a9716dfbf89473146a90fe8070e1685993c4008905530a209c802c0124f55c0042b215a4f6acd12840aed75301490dde1ccb0524768e8282c80424562300107fd07321012024474172ea0ed7f1b546b6d60ac24daf4a53acda2aa2a020f20169d9711c4046794eb0c7ce0720b48e828c062425c0b823b82f484b202a39c767509009014d0802a959a873d7615cd663259dab32b1e3b1924eeb29488b99ac5900a96d0084d601a4e5542f00e1b5fd2120869606a4c53a0800e11b1484e600c407896bdd23064d8d7b418af54783820886c465b5950480f0dafb1030c02eaf20bec00c81d22ad50220fc01e910103fcb031282a4d40148bb1a442d0c8938404a21a931ca4141f200510b422212901c48523a1280b45510b520246201c901a5162450101e24da5605453c20d79609b3e1afad113980a4765e29242bafa46bab9dd64af56900d166ef1dca5591948eac01887ed6d44e805cb612245300e2db845743494a53389fcdf8e0865a80aca426e201b920b92c1790cb00481f405681644a406cd7c7e48ef45090768094d480527c19406c48b8a0d8567aaddd532cdb004863407a430240d2db27b74d470fbccb28884f45cc9f01c8b885428ecd966e2d0788f6d219285747726da7144b152a896448a606c49562f9004999baad35c5bb2b206ac1946b2a407cee3abe643a1780f082fb68f0bf3ca3e36d094042c78f06e4c3dde3360a7278da9c6352219906905ade0b106dab02a202815cbb36190dca7680e442d432e0567b6883aa5c9b8c0405802482d232e0567caa895a04120002409a00725450e350ca0b4004a65a5cdb59418e4a6d094004800040da037234d8508a140b8088034415046a493d07400428462c2de076ee8a29960220e303539ae7420240285b41ecf6868208000180c84d08025110e5189450830880010a2203106d2ed546912e00881d53ac94bd63aa7036c917eca9ef67bfdea3efb150d810101d74b358caf67cd508100e245010018a01405edad3e3e76a80f86a8a16504241004815d3eae153bca7c7cfe78fdfdf3fffbd34586333530044802240415e5a0c8ea7af4f89ac0548cc4d1ba51eda518320c57202a28178f3b52e311fa1da0a9054787a0f8e0024a363572cd2cd7bbd54e38da368af15b4be6b488203806476684ed0cd3283e5520dd3a4042e0011d038bb00a26178ff751d24673fd621a07f5a39522c00f20cb25988031002205090df57cfb94aa7a020e3a54d9aaf946299335439a600c8f88094e629abbe3300122bc2534c0190f10129cd6707e44aa76a6ca05400647c404af3590131d7346a7c67a2c234eff86094e87660a404dc4840cc3aa3e67d2800323e1825ba1d18bead1876808e9cb6ad0da812b4c2ddcbb10e92098809c2fd0f0fe7fdeb87f3e1fee7a15f7f60d6192dbe825a0190f1c44af5d88ed3fffefae5fcfce9d7e7c0fcf8f6d379f7cff7e7fd0f7d00b9d48ab3d8c735b5211cdaa1209500b1edcb173a1fdefc7c7e7cf7e96c692dea0cdb94b00d84006401404cfbf4f0cbf9eec78f5583b8e6b46dc894b0ede700644140b4119de7c7774fe7db7f3f3c2b0bc7ccb4293639d0130c0540c607a624f7050bd7debe7e484e8df4df2fef0186b6dd55e3301c35c80040387ba25e7d77f7ec4d01023dc0b86c77280e00220390cb2e75b80030c1d170f45e70041c04052919555a40626e093153af2bbdea658083a0205295444362a7513d57e4915a11522cc980f80c80106a90d1c59884346b2420500f4291de039216a0b45e29d706400880ccaa26294f5e2f31ac7790b76fb10e320120da00080d49a501c824e956ab34cb37adbbf3e2e00140da34664b405a4df762b59c0048ef51a7a58ad4dc6e8245418282aca424b58b750042006435486a0102380835c88a90d428d6010725f72166b12683a446b10e400880ac0c4949b10e3888d57750904180944092fbbfe88083d87d074006aa482e28396916f65a5156bf01904921e114eb8083b2fb0c804c0a08674d04a91501901540e11abe4f909af715144418241c5062b35948ad0880ec0c496c360ba91501905521299dcd021c54a57f90624d0e890b10c041d5fa0680088724068a6bba17801000191dd052d4c4ae43000755ed0f28c8e48098eb2198b5a2eafd0140165111a80735e90b003219242e503420500f0220a383560a20362880839af50314646258509853f3b60720934302f52000323a382539e0a0aeed0d05590c92d1f7762ce6006452071c04404607e10c0ef5a0a6ed0b05590490d1f7712cea00444027c0496c1b0010019d0027b16d00400474029cc4b6010011d0097012db0600444027c0496c1bfc0f0438d3e03a43ae940000000049454e44ae426082680063036f726401011e6170706c69636174696f6e2f6a736f6e3b636861727365743d7574662d38004d5e017b2270223a22766f7264222c2276223a312c227479223a22696e7363222c22636f6c223a2262383533613639326462393765393436363865303137323138346466393431326161306136336331616334626138656531333634646138663834366637306232222c22696964223a2252756e65746172647373222c227075626c223a2231455337623370636a527a4667796969714c7278484b546e43686535364c4a485937222c226e6f6e6365223a333236382c226d696e746572223a226263317074366571617936353871676a6c6d6d757677366d786e357a34396334746439636b6c687a743373796c7a6b7275353637673673717470766d6e36222c22736967223a224843735972587a786f5871494f2b315965304b5670685463617a416257654a58754d464b6f6c64587635706e52554f2f774e4135364e77712b633871334a4d516b6348766b4f75635950754e4576644b4a5a56492f31593d227d6841c1f2d00e1cce0b839d2e197679cac7a15152ec244338032c7767f72c1332d49a65675a92934efa5e4869b2432a3e00abfc6819367af43949c2edc693b32d23ac0500000000"
}