{
  "txid": "ded2e8a42e0043841b46b598628ee65a04121860fa485c0f64b915d5fa128073",
  "version": 2,
  "locktime": 834637,
  "vin": [
    {
      "txid": "74c8060014daa6a8fe0ac7161cc5dc798537a80880e87feb91db18c6b737351f",
      "vout": 0,
      "prevout": {
        "scriptpubkey": "0014471f11d3d4450a02fbb7e7100c66c8e4df84dc4c",
        "scriptpubkey_asm": "OP_0 OP_PUSHBYTES_20 471f11d3d4450a02fbb7e7100c66c8e4df84dc4c",
        "scriptpubkey_type": "v0_p2wpkh",
        "scriptpubkey_address": "bc1qgu03r575g59q97ahuugqcekgun0cfhzvh3z3xk",
        "value": 4851932
      },
      "scriptsig": "",
      "scriptsig_asm": "",
      "witness": [
        "304402201d1a482d1c526cfde7cc5a79c5901e9f0fb2c65c1c55478f5b9ebc559cc94ea0022071d8f4295c6e9157596df73bf84af034c41db8d0c5c2d67f44d60e369614570401",
        "03390e0d5d2251a942cc0ead305eb9547415b9690fa58fabe6fe1caea49ffb1570"
      ],
      "is_coinbase": false,
      "sequence": 4294967294
    }
  ],
  "vout": [
    {
      "scriptpubkey": "0014849dae46ba5bed4544af85f6205045faca526d9a",
      "scriptpubkey_asm": "OP_0 OP_PUSHBYTES_20 849dae46ba5bed4544af85f6205045faca526d9a",
      "scriptpubkey_type": "v0_p2wpkh",
      "scriptpubkey_address": "bc1qsjw6u346t0k52390shmzq5z9lt99ymv6cfrhqk",
      "value": 3844500
    },
    {
      "scriptpubkey": "0014fdc04f0de8c822b4ac7920163a4e26a88e8cf633",
      "scriptpubkey_asm": "OP_0 OP_PUSHBYTES_20 fdc04f0de8c822b4ac7920163a4e26a88e8cf633",
      "scriptpubkey_type": "v0_p2wpkh",
      "scriptpubkey_address": "bc1qlhqy7r0geq3tftreyqtr5n3x4z8gea3nd03yzm",
      "value": 1003626
    }
  ],
  "size": 222,
  "weight": 561,
  "fee": 3806,
  "status": {
    "confirmed": true,
    "block_height": 834638,
    "block_hash": "000000000000000000025f742c626208ac87e0b7d15054abb4a19ca2d735a54e",
    "block_time": 1710405325
  },
  "hex": "020000000001011f3537b7c618db91eb7fe88008a8378579dcc51c16c70afea8a6da140006c8740000000000feffffff0294a93a0000000000160014849dae46ba5bed4544af85f6205045faca526d9a6a500f0000000000160014fdc04f0de8c822b4ac7920163a4e26a88e8cf6330247304402201d1a482d1c526cfde7cc5a79c5901e9f0fb2c65c1c55478f5b9ebc559cc94ea0022071d8f4295c6e9157596df73bf84af034c41db8d0c5c2d67f44d60e3696145704012103390e0d5d2251a942cc0ead305eb9547415b9690fa58fabe6fe1caea49ffb15704dbc0c00"
}