{
  "txid": "ded4aae22b045bfa6deeb82da843efe78b28ffa06d936e174acd3980c9722ae7",
  "version": 2,
  "locktime": 0,
  "vin": [
    {
      "txid": "573166c074d1f9d97e74b7e445ae9eee4071bb54005e0e28be99fe4fa5597b23",
      "vout": 48,
      "prevout": {
        "scriptpubkey": "512095ba2e2a062a5688c70384fb5ca3b610141e17ed71f9ecb878c7d66a44b76fd3",
        "scriptpubkey_asm": "OP_PUSHNUM_1 OP_PUSHBYTES_32 95ba2e2a062a5688c70384fb5ca3b610141e17ed71f9ecb878c7d66a44b76fd3",
        "scriptpubkey_type": "v1_p2tr",
        "scriptpubkey_address": "bc1pjkazu2sx9ftg33crsna4egakzq2pu9ldw8u7ewrccltx539hdlfsd4am2l",
        "value": 3042
      },
      "scriptsig": "",
      "scriptsig_asm": "",
      "witness": [
        "00578aba162692474d3487671c3650cdd73bc5926fcdcbf8810c2633a51046daeb334303c043fd61bed1a3d3b318e8f4d7d3f403442ec0489096c3ef667eda33",
        "20c28f9a5d798be3781dd18877e5f6b86cb5cb5a3dc103eac38fcbcb38cb843143ac0063036f726401011e6170706c69636174696f6e2f6a736f6e3b636861727365743d7574662d38004cd27b2270223a22706f772d3230222c226f70223a226d696e74222c227469636b223a2250455045222c22616d74223a2231303030222c22736f6c7574696f6e223a22504550453a6263317070376e727a37746333726c6d6d72373773676a6b6b7561677073323971776830617261393430777a616878666b6d6e61687770717877667139703a303030303030303030303030303030303030303139393431613561653132383937363539383134343239323533333030353762306461393666336465613163353a31323532343333353135227d68",
        "c0f1b4027b27384657c547a9d6289f3be45ec463ffc50ccbf57ef9c2d60d2b0f32"
      ],
      "is_coinbase": false,
      "sequence": 4294967295
    }
  ],
  "vout": [
    {
      "scriptpubkey": "51200fa631797888ffbd8fde82256b73a80c14503aefe8fa5abdc2edcc9b6e7dbb82",
      "scriptpubkey_asm": "OP_PUSHNUM_1 OP_PUSHBYTES_32 0fa631797888ffbd8fde82256b73a80c14503aefe8fa5abdc2edcc9b6e7dbb82",
      "scriptpubkey_type": "v1_p2tr",
      "scriptpubkey_address": "bc1pp7nrz7tc3rlmmr77sgjkkuagps29qwh0ara940wzahxfkmnahwpqxwfq9p",
      "value": 546
    }
  ],
  "size": 486,
  "weight": 768,
  "fee": 2496,
  "status": {
    "confirmed": true,
    "block_height": 834460,
    "block_hash": "00000000000000000000484a79b643b2524bbce82e5d8a442013fa5b8905ed98",
    "block_time": 1710307468
  },
  "hex": "02000000000101237b59a54ffe99be280e5e0054bb7140ee9eae45e4b7747ed9f9d174c06631573000000000ffffffff0122020000000000002251200fa631797888ffbd8fde82256b73a80c14503aefe8fa5abdc2edcc9b6e7dbb82034000578aba162692474d3487671c3650cdd73bc5926fcdcbf8810c2633a51046daeb334303c043fd61bed1a3d3b318e8f4d7d3f403442ec0489096c3ef667eda33fd1f0120c28f9a5d798be3781dd18877e5f6b86cb5cb5a3dc103eac38fcbcb38cb843143ac0063036f726401011e6170706c69636174696f6e2f6a736f6e3b636861727365743d7574662d38004cd27b2270223a22706f772d3230222c226f70223a226d696e74222c227469636b223a2250455045222c22616d74223a2231303030222c22736f6c7574696f6e223a22504550453a6263317070376e727a37746333726c6d6d72373773676a6b6b7561677073323971776830617261393430777a616878666b6d6e61687770717877667139703a303030303030303030303030303030303030303139393431613561653132383937363539383134343239323533333030353762306461393666336465613163353a31323532343333353135227d6821c0f1b4027b27384657c547a9d6289f3be45ec463ffc50ccbf57ef9c2d60d2b0f3200000000"
}