{
  "txid": "df0291d524420253464051254e3961669a2d9aa35a678b8574416de67064f103",
  "version": 1,
  "locktime": 834637,
  "vin": [
    {
      "txid": "13359b7d519a90a0bb5af2e2dcae25e8f21c7fb0d14d68339fb68692b71ee6f5",
      "vout": 1,
      "prevout": {
        "scriptpubkey": "002074fa06080bd3f520ca037f46dec5deeaafeeb5b15fab5bda9734ec0257cc2ca4",
        "scriptpubkey_asm": "OP_0 OP_PUSHBYTES_32 74fa06080bd3f520ca037f46dec5deeaafeeb5b15fab5bda9734ec0257cc2ca4",
        "scriptpubkey_type": "v0_p2wsh",
        "scriptpubkey_address": "bc1qwnaqvzqt606jpjsr0arda3w7a2h7add3t744hk5hxnkqy47v9jjq25rwdt",
        "value": 2077388
      },
      "scriptsig": "",
      "scriptsig_asm": "",
      "witness": [
        "",
        "3044022058cad78a3fc6bc367400a89279fc2de4ae8849ad1478cc37fbe3c448804a41f102202ca81006135b4f7a9783f96ced2bcd514bd256a1104679e18924804ec712545501",
        "304402203e0448b607989a53bb817fac3fdc2f2b9f827deffa1be1377290cb9bf9657f6a0220538b590bd07411a0f66cf6c254f671c934279e8d5de288509624423ed43ff13b01",
        "5221032b16f5f6b4a23eda7f9b280ae8407897575886a420eb42b3eeb785b1b4e3a2ed2103cdfab269fc2a9486bda83ee6948ceb53ae947974af82fcf20eb77480df0ef8a12102c0941d8b349436dece2bb3204007b16f0ae5d6f46f907698500227aae72c9d8653ae"
      ],
      "is_coinbase": false,
      "sequence": 4294967293,
      "inner_witnessscript_asm": "OP_PUSHNUM_2 OP_PUSHBYTES_33 032b16f5f6b4a23eda7f9b280ae8407897575886a420eb42b3eeb785b1b4e3a2ed OP_PUSHBYTES_33 03cdfab269fc2a9486bda83ee6948ceb53ae947974af82fcf20eb77480df0ef8a1 OP_PUSHBYTES_33 02c0941d8b349436dece2bb3204007b16f0ae5d6f46f907698500227aae72c9d86 OP_PUSHNUM_3 OP_CHECKMULTISIG"
    },
    {
      "txid": "1cc3f288766c336d57e0bb173669072624e115c41d90b6546463bb3971d4aa38",
      "vout": 0,
      "prevout": {
        "scriptpubkey": "0020075e1540b361ea70d510035c8afa7a76e8fc9367a5389687565816faa9fa7403",
        "scriptpubkey_asm": "OP_0 OP_PUSHBYTES_32 075e1540b361ea70d510035c8afa7a76e8fc9367a5389687565816faa9fa7403",
        "scriptpubkey_type": "v0_p2wsh",
        "scriptpubkey_address": "bc1qqa0p2s9nv848p4gsqdwg47n6wm50eym855ufdp6ktqt04206wspsye9al6",
        "value": 1491515
      },
      "scriptsig": "",
      "scriptsig_asm": "",
      "witness": [
        "",
        "304402205a67927b33d2f5e7b4a7723e4d9227157a0610fba708462105d5ecc70469585d022021629e7fda521ddabd337bb7c8b38fc1532f0deb20a67e8bb0f4f3368e1df40701",
        "30440220631b279693eda848db1f23f4075a33da4c478f97c7e2c95d2584c148067bd1020220736bf3bfad764e22c319d2604a6c2981882ff4da0817c2bf415ea44da06c02aa01",
        "5221023e4dd7cd80385c521158282becde8c13dd4fb083d4f8bb891440ca200098dadb21037cc4a97dcc8c112ec59f12e335814b1a5a608b0085afa5808799a80afe7610ac2103041caaf1a677003af123212e1c13de38247fbc134da97780a6705cec4b47591053ae"
      ],
      "is_coinbase": false,
      "sequence": 4294967293,
      "inner_witnessscript_asm": "OP_PUSHNUM_2 OP_PUSHBYTES_33 023e4dd7cd80385c521158282becde8c13dd4fb083d4f8bb891440ca200098dadb OP_PUSHBYTES_33 037cc4a97dcc8c112ec59f12e335814b1a5a608b0085afa5808799a80afe7610ac OP_PUSHBYTES_33 03041caaf1a677003af123212e1c13de38247fbc134da97780a6705cec4b475910 OP_PUSHNUM_3 OP_CHECKMULTISIG"
    },
    {
      "txid": "253a3e63c15f1bbdeb2040a2b70b59b59c20ca474c04e981f7d0c101dfcafd71",
      "vout": 1,
      "prevout": {
        "scriptpubkey": "00200bb4b4e4020783768a9628b929f6acd0bbed6334a02f28ce4b09a4bf182b7ec1",
        "scriptpubkey_asm": "OP_0 OP_PUSHBYTES_32 0bb4b4e4020783768a9628b929f6acd0bbed6334a02f28ce4b09a4bf182b7ec1",
        "scriptpubkey_type": "v0_p2wsh",
        "scriptpubkey_address": "bc1qpw6tfeqzq7phdz5k9zujna4v6za76ce55qhj3njtpxjt7xpt0mqs0glg3c",
        "value": 1279787
      },
      "scriptsig": "",
      "scriptsig_asm": "",
      "witness": [
        "",
        "3045022100c28e4ad57c399ef7c6e47c0c6686f0ac6542e712de9bac5b23d054fb08a61dc802205be8ba7c580b3325986d9cc7099f9c4c99a7561c713c65375fb1d2947bdf12f701",
        "3044022055977bcc47bcca51cdc13ceaff8092bb3c8adff5cb37117f0997729579eed12b022008a04366b51922a343b2787d856ba030de9c13110608da9d91afdb0d095807ca01",
        "522103c055262a247337abacaba1feb2b259c24e64100119fdf02a263238588e13e4e62102c28f4fedd9b81f507bc3a5c449c80fe796624bbf5cd34bd2ec539b3011f96a34210352b63f1c1a08a4a16bfc4184cee9d695e6f82b06a08f87434bf95bcd11c52d0f53ae"
      ],
      "is_coinbase": false,
      "sequence": 4294967293,
      "inner_witnessscript_asm": "OP_PUSHNUM_2 OP_PUSHBYTES_33 03c055262a247337abacaba1feb2b259c24e64100119fdf02a263238588e13e4e6 OP_PUSHBYTES_33 02c28f4fedd9b81f507bc3a5c449c80fe796624bbf5cd34bd2ec539b3011f96a34 OP_PUSHBYTES_33 0352b63f1c1a08a4a16bfc4184cee9d695e6f82b06a08f87434bf95bcd11c52d0f OP_PUSHNUM_3 OP_CHECKMULTISIG"
    },
    {
      "txid": "2f615da16d58f0aeef14d17eb3d74b0bbda19e85ef4ae88d44fd4498e9bcacf4",
      "vout": 0,
      "prevout": {
        "scriptpubkey": "0020de13a8cff092a2a79a015054d15a82d548d24b738bd945730c4b41bbcee6cd47",
        "scriptpubkey_asm": "OP_0 OP_PUSHBYTES_32 de13a8cff092a2a79a015054d15a82d548d24b738bd945730c4b41bbcee6cd47",
        "scriptpubkey_type": "v0_p2wsh",
        "scriptpubkey_address": "bc1qmcf63nlsj2320xsp2p2dzk5z64ydyjmn30v52ucvfdqmhnhxe4rsucm8zf",
        "value": 1280602
      },
      "scriptsig": "",
      "scriptsig_asm": "",
      "witness": [
        "",
        "3045022100db2a39e4da91fab5030743a2766822934ca8ce34a2da7b79a4abe8364d28c1c902203ca20e53c7a2b445a4313c1b98c5aed90200c35b78c4621e1a93bfaefa190e2901",
        "30440220025ac8de306d6bf69c5d68649aaf593d3be5281752ee6e2530eb11eab43a54970220068767e5e2b67cb1e6935f504b28d92b7954c049ec49157cc775908331818c1d01",
        "52210343dcc7499df73ab5179a6ada3e0f7923cd3e82957b5363087bb9f830f17fee692103016979ac76c55e03b33880e719095228f10d58b7f7a09ccfcc32623f45bd529e21024af7f1634647f5bd5572f24ef3c3d4090b21c2f8d05bc5d9922d04c2930bc39d53ae"
      ],
      "is_coinbase": false,
      "sequence": 4294967293,
      "inner_witnessscript_asm": "OP_PUSHNUM_2 OP_PUSHBYTES_33 0343dcc7499df73ab5179a6ada3e0f7923cd3e82957b5363087bb9f830f17fee69 OP_PUSHBYTES_33 03016979ac76c55e03b33880e719095228f10d58b7f7a09ccfcc32623f45bd529e OP_PUSHBYTES_33 024af7f1634647f5bd5572f24ef3c3d4090b21c2f8d05bc5d9922d04c2930bc39d OP_PUSHNUM_3 OP_CHECKMULTISIG"
    },
    {
      "txid": "31a39c7792ec5b5fae781c864455c88f5c9d64a1c4b704de61558c08acb320df",
      "vout": 1,
      "prevout": {
        "scriptpubkey": "0020fb6276aa13017d454a6bed5d5ef4ccf2686d4aa621cec8310d291da522db90ef",
        "scriptpubkey_asm": "OP_0 OP_PUSHBYTES_32 fb6276aa13017d454a6bed5d5ef4ccf2686d4aa621cec8310d291da522db90ef",
        "scriptpubkey_type": "v0_p2wsh",
        "scriptpubkey_address": "bc1qld38d2snq9752jnta4w4aaxv7f5x6j4xy88vsvgd9yw62gkmjrhsv0z2jx",
        "value": 2002020
      },
      "scriptsig": "",
      "scriptsig_asm": "",
      "witness": [
        "",
        "30440220345ed1bfca7882828e1bd39aa3934cdb6190580225b8a11c46c65ed62654ab5502202e0be9dd506903fa1d703c548dbc4e6d75ee98b91cb76ec5e5c81c70c374184701",
        "3044022062ca4754971c2281ec093a828bd8b323a76a07d2af2368ca4529b44e591aa9fa02203b9819cacb972d550852d7027af277e1bfb35fa234062730c63455969afeb30501",
        "5221024a1d274e9e7e1ad001ed33c08f4ecd133b0146a57c8ddcc656dd02a9674768a62103de404ed11051a140147a296cd982b209b2df1d3ee40e88405b9565b392e0f1782102ca1f3bc672d878dc8e0e87339e5fd0352a12613592b622d959d88c183912362753ae"
      ],
      "is_coinbase": false,
      "sequence": 4294967293,
      "inner_witnessscript_asm": "OP_PUSHNUM_2 OP_PUSHBYTES_33 024a1d274e9e7e1ad001ed33c08f4ecd133b0146a57c8ddcc656dd02a9674768a6 OP_PUSHBYTES_33 03de404ed11051a140147a296cd982b209b2df1d3ee40e88405b9565b392e0f178 OP_PUSHBYTES_33 02ca1f3bc672d878dc8e0e87339e5fd0352a12613592b622d959d88c1839123627 OP_PUSHNUM_3 OP_CHECKMULTISIG"
    },
    {
      "txid": "3a0423fedb47a17855af4a3be2e4d1f4c9ec3bfc078361f0406f8da33e5540f9",
      "vout": 1,
      "prevout": {
        "scriptpubkey": "a914124afc0e9a40b3584902e5456f300abf86e07c8887",
        "scriptpubkey_asm": "OP_HASH160 OP_PUSHBYTES_20 124afc0e9a40b3584902e5456f300abf86e07c88 OP_EQUAL",
        "scriptpubkey_type": "p2sh",
        "scriptpubkey_address": "33Mjv1zTHa1ZdrBg8wsrMUcF2fXc4gtHrZ",
        "value": 1931100
      },
      "scriptsig": "220020d2564e27ca2dae4cf0a0e5309047b38ba9f57ffd6fa5fb9187de3bcf23032f4f",
      "scriptsig_asm": "OP_PUSHBYTES_34 0020d2564e27ca2dae4cf0a0e5309047b38ba9f57ffd6fa5fb9187de3bcf23032f4f",
      "witness": [
        "",
        "3045022100d56b845505b180eabf029f7a96d3e2f0587ed334ef38c140bf3477acceee5df50220284bd2ef82ac82eccb81225eb8a9f12c3a988cb8f6de0856e4d86b8e2953295901",
        "304402205df48d3b91b065102cd0564f01d11ac6253bb392e8184b034372778d00911be4022052bdd29b06a4504ece09d0366ea3a7402c4d3dfdfb534d16521f475123e2939801",
        "522102567d783c76275a1638cbb764d4beac92f8f224f9f111f38d7ef49b64040d820321034e06b9b08f28fbd135b8dbd3b4f1c5dc5a72b2d3304db0492dbd275efb6fe81c21023dea3732b1409bf1cc348ea9f7799c66d3c6c8c11f5ad897df0ebee857968cd253ae"
      ],
      "is_coinbase": false,
      "sequence": 4294967293,
      "inner_redeemscript_asm": "OP_0 OP_PUSHBYTES_32 d2564e27ca2dae4cf0a0e5309047b38ba9f57ffd6fa5fb9187de3bcf23032f4f",
      "inner_witnessscript_asm": "OP_PUSHNUM_2 OP_PUSHBYTES_33 02567d783c76275a1638cbb764d4beac92f8f224f9f111f38d7ef49b64040d8203 OP_PUSHBYTES_33 034e06b9b08f28fbd135b8dbd3b4f1c5dc5a72b2d3304db0492dbd275efb6fe81c OP_PUSHBYTES_33 023dea3732b1409bf1cc348ea9f7799c66d3c6c8c11f5ad897df0ebee857968cd2 OP_PUSHNUM_3 OP_CHECKMULTISIG"
    },
    {
      "txid": "5a87a761826ef013663d716fbcc16bdc822b6c349f616d81f18f3bbf942d0852",
      "vout": 2,
      "prevout": {
        "scriptpubkey": "0020ca7de42e5c46e9a56a6e166468b94a77acb681b9a6bad3c6e345102afb01a08a",
        "scriptpubkey_asm": "OP_0 OP_PUSHBYTES_32 ca7de42e5c46e9a56a6e166468b94a77acb681b9a6bad3c6e345102afb01a08a",
        "scriptpubkey_type": "v0_p2wsh",
        "scriptpubkey_address": "bc1qef77gtjugm5626nwzejx3w22w7ktdqde56ad83hrg5gz47cp5z9qf0nf5z",
        "value": 1287919
      },
      "scriptsig": "",
      "scriptsig_asm": "",
      "witness": [
        "",
        "3045022100cce6319b10781be433054bdbab0a191cdeec4237403eb8021663a79d61928c0e02204c426d249105efea71ebe3e1f48117d67f994969f5eb5035097e97ee8681854601",
        "304402203a964d73c58907248dab95126133c5a0960a8988556b67bdf278ea2ef07d88b902206cab189783042e196da0717ccb00094220b53b67eb369797ba00af00ab6dd74901",
        "522103c36c83b1c16ed86d61d4650afbb501cff86ba55fee3829dc8654e97a64ff3a6621028c145fff301ddc832ad99e4eafa1c4f36d2b3306be28513f2ea0e4a3504c4feb21028aa4749d781b4e41c4d8849c0c742dd90ddedd45873e5a88e18f1af5f831ce7753ae"
      ],
      "is_coinbase": false,
      "sequence": 4294967293,
      "inner_witnessscript_asm": "OP_PUSHNUM_2 OP_PUSHBYTES_33 03c36c83b1c16ed86d61d4650afbb501cff86ba55fee3829dc8654e97a64ff3a66 OP_PUSHBYTES_33 028c145fff301ddc832ad99e4eafa1c4f36d2b3306be28513f2ea0e4a3504c4feb OP_PUSHBYTES_33 028aa4749d781b4e41c4d8849c0c742dd90ddedd45873e5a88e18f1af5f831ce77 OP_PUSHNUM_3 OP_CHECKMULTISIG"
    },
    {
      "txid": "69624995744815aa70dcf7567eaf045682bac70907edcf087ccb759a5ad7b4e4",
      "vout": 0,
      "prevout": {
        "scriptpubkey": "00203c9e6e18af78195ff62bb183a6d639667f8b354b53e933ded1af1f0178fddb9e",
        "scriptpubkey_asm": "OP_0 OP_PUSHBYTES_32 3c9e6e18af78195ff62bb183a6d639667f8b354b53e933ded1af1f0178fddb9e",
        "scriptpubkey_type": "v0_p2wsh",
        "scriptpubkey_address": "bc1q8j0xux900qv4la3tkxp6d43evelckd2t205n8hk34u0sz78amw0qxsct99",
        "value": 1287320
      },
      "scriptsig": "",
      "scriptsig_asm": "",
      "witness": [
        "",
        "3045022100bfacebfb621bdf49522fdd04b977e062339dad3d0b04f9758fbe75c89772d18002206ae40d30a27ebd3fa44338c72b1274a23518dbbe9281eaded355ab4bdd56fee101",
        "30440220157c489faf0741617b78ac70dbefd5762bc66eda507092d8a9731f624d0b853602202c712a3062f3c9409e80cf38aa9f3398155861285db121e4f14ea11d4d50efb401",
        "52210302b3eb2dcde057a62301cae29f11f6d05a8eecd4e3aa21da90528bfc0259db5521027eac611af5d9b6031b75ae9471c5e8e9e8e95df7d63476232071408686c68aa221030bfad43b8dbfb95f33fa9380354e9ab96c1d1db2166ea1e74f2c5e9e471af9c553ae"
      ],
      "is_coinbase": false,
      "sequence": 4294967293,
      "inner_witnessscript_asm": "OP_PUSHNUM_2 OP_PUSHBYTES_33 0302b3eb2dcde057a62301cae29f11f6d05a8eecd4e3aa21da90528bfc0259db55 OP_PUSHBYTES_33 027eac611af5d9b6031b75ae9471c5e8e9e8e95df7d63476232071408686c68aa2 OP_PUSHBYTES_33 030bfad43b8dbfb95f33fa9380354e9ab96c1d1db2166ea1e74f2c5e9e471af9c5 OP_PUSHNUM_3 OP_CHECKMULTISIG"
    },
    {
      "txid": "cbdb4df1fe87c730b0fe59334bde380417a90d8702982e0b84fe88edb8698718",
      "vout": 0,
      "prevout": {
        "scriptpubkey": "a91421e0ce8824453605d3e8b448fd75390c8a418fa687",
        "scriptpubkey_asm": "OP_HASH160 OP_PUSHBYTES_20 21e0ce8824453605d3e8b448fd75390c8a418fa6 OP_EQUAL",
        "scriptpubkey_type": "p2sh",
        "scriptpubkey_address": "34n9Xiq7JcHJ4K6YxVXJhPB5Gu2RZPQwV2",
        "value": 1395354
      },
      "scriptsig": "22002041d79b799298f0a96b92b8067a27544e6c7da52e7327b4bfc0d90f3e916ecace",
      "scriptsig_asm": "OP_PUSHBYTES_34 002041d79b799298f0a96b92b8067a27544e6c7da52e7327b4bfc0d90f3e916ecace",
      "witness": [
        "",
        "3044022002ff6f91306a18fc4abc3e1364dca817d39dd1c41ca135817bb89e67125e90ca022053e44cd06b0ed0fc8657f59d340a28469258ca5a742bdd41d5246c5f7299a95201",
        "3044022043c194dbf885528759cf126942b742d08f221b60c07fdb6fdac51e6caf5b2cb5022073b1433e0725928d33df0c07b30e80146f6bbb8bba43f1b5181ed8143485b35801",
        "5221037ae739c3694a4c65374205e58dc040ed82cf2721c3ebb06566998eef325a280a2103fccfefdd795b3300a968d52925c501284ab4dddf149777d6d3f703651792128421020d1ec8d544fc92c6c059ab7cb7ac8e67bdee40207a65e4f4199b13ecc0b7ff2253ae"
      ],
      "is_coinbase": false,
      "sequence": 4294967293,
      "inner_redeemscript_asm": "OP_0 OP_PUSHBYTES_32 41d79b799298f0a96b92b8067a27544e6c7da52e7327b4bfc0d90f3e916ecace",
      "inner_witnessscript_asm": "OP_PUSHNUM_2 OP_PUSHBYTES_33 037ae739c3694a4c65374205e58dc040ed82cf2721c3ebb06566998eef325a280a OP_PUSHBYTES_33 03fccfefdd795b3300a968d52925c501284ab4dddf149777d6d3f7036517921284 OP_PUSHBYTES_33 020d1ec8d544fc92c6c059ab7cb7ac8e67bdee40207a65e4f4199b13ecc0b7ff22 OP_PUSHNUM_3 OP_CHECKMULTISIG"
    },
    {
      "txid": "cbdb4df1fe87c730b0fe59334bde380417a90d8702982e0b84fe88edb8698718",
      "vout": 1,
      "prevout": {
        "scriptpubkey": "002096001734ad3327ed6aff6a70862b159c89b447cf6787e7770a3a17621579d920",
        "scriptpubkey_asm": "OP_0 OP_PUSHBYTES_32 96001734ad3327ed6aff6a70862b159c89b447cf6787e7770a3a17621579d920",
        "scriptpubkey_type": "v0_p2wsh",
        "scriptpubkey_address": "bc1qjcqpwd9dxvn766hldfcgv2c4njymg370v7r7wac28gtky9temysqeagpmw",
        "value": 1954108
      },
      "scriptsig": "",
      "scriptsig_asm": "",
      "witness": [
        "",
        "3044022048ce801ba2adc9ecef14907be51c1e6912b8e522f4dd2f38d149ed34aabbb25802202e3d48cf3b732a1323f38d43b4eea6561924cbdf3300f5937aaddd8043b8ba9d01",
        "304402204b960073b678719a7bce2c2698f374ebcd406f5aa13ab31c915e5bceb8f4f46f02205c12af09c3ed4300d1ac0a42c8629e0a6cbe24fb5a0fafe956c15dddd29c671501",
        "522103478de3bd6e3ccae4ed3175acbe5f6c985113b111d8f48b58b14e35850bd6f88b21030180605f0bedd0b350c68955f0b80e45c6c1ba0dec7dc6db31cfa7e10b819dce210239cd881a8dcc3c8be45566227531a42c48b748cac5efc4bd938fc3d8191f271753ae"
      ],
      "is_coinbase": false,
      "sequence": 4294967293,
      "inner_witnessscript_asm": "OP_PUSHNUM_2 OP_PUSHBYTES_33 03478de3bd6e3ccae4ed3175acbe5f6c985113b111d8f48b58b14e35850bd6f88b OP_PUSHBYTES_33 030180605f0bedd0b350c68955f0b80e45c6c1ba0dec7dc6db31cfa7e10b819dce OP_PUSHBYTES_33 0239cd881a8dcc3c8be45566227531a42c48b748cac5efc4bd938fc3d8191f2717 OP_PUSHNUM_3 OP_CHECKMULTISIG"
    }
  ],
  "vout": [
    {
      "scriptpubkey": "00202b1ca13a7df2afe52c9c888d0823bb05475b3c629255688dcf4fc578ba93890d",
      "scriptpubkey_asm": "OP_0 OP_PUSHBYTES_32 2b1ca13a7df2afe52c9c888d0823bb05475b3c629255688dcf4fc578ba93890d",
      "scriptpubkey_type": "v0_p2wsh",
      "scriptpubkey_address": "bc1q9vw2zwna72h72tyu3zxssgamq4r4k0rzjf2k3rw0flzh3w5n3yxsxyp7rj",
      "value": 1594011
    },
    {
      "scriptpubkey": "00145db038361487bb73826922a443f1bb97b10e47a2",
      "scriptpubkey_asm": "OP_0 OP_PUSHBYTES_20 5db038361487bb73826922a443f1bb97b10e47a2",
      "scriptpubkey_type": "v0_p2wpkh",
      "scriptpubkey_address": "bc1qtkcrsds5s7ah8qnfy2jy8udmj7csu3az02pdkj",
      "value": 14367800
    }
  ],
  "size": 3091,
  "weight": 4783,
  "fee": 25302,
  "status": {
    "confirmed": true,
    "block_height": 834638,
    "block_hash": "000000000000000000025f742c626208ac87e0b7d15054abb4a19ca2d735a54e",
    "block_time": 1710405325
  },
  "hex": "0100000000010af5e61eb79286b69f33684dd1b07f1cf2e825aedce2f25abba0909a517d9b35130100000000fdffffff38aad47139bb636454b6901dc415e1242607693617bbe0576d336c7688f2c31c0000000000fdffffff71fdcadf01c1d0f781e9044c47ca209cb5590bb7a24020ebbd1b5fc1633e3a250100000000fdfffffff4acbce99844fd448de84aef859ea1bd0b4bd7b37ed114efaef0586da15d612f0000000000fdffffffdf20b3ac088c5561de04b7c4a1649d5c8fc85544861c78ae5f5bec92779ca3310100000000fdfffffff940553ea38d6f40f0618307fc3becc9f4d1e4e23b4aaf5578a147dbfe23043a0100000023220020d2564e27ca2dae4cf0a0e5309047b38ba9f57ffd6fa5fb9187de3bcf23032f4ffdffffff52082d94bf3b8ff1816d619f346c2b82dc6bc1bc6f713d6613f06e8261a7875a0200000000fdffffffe4b4d75a9a75cb7c08cfed0709c7ba825604af7e56f7dc70aa154874954962690000000000fdffffff188769b8ed88fe840b2e9802870da9170438de4b3359feb030c787fef14ddbcb000000002322002041d79b799298f0a96b92b8067a27544e6c7da52e7327b4bfc0d90f3e916ecacefdffffff188769b8ed88fe840b2e9802870da9170438de4b3359feb030c787fef14ddbcb0100000000fdffffff029b521800000000002200202b1ca13a7df2afe52c9c888d0823bb05475b3c629255688dcf4fc578ba93890d383cdb00000000001600145db038361487bb73826922a443f1bb97b10e47a20400473044022058cad78a3fc6bc367400a89279fc2de4ae8849ad1478cc37fbe3c448804a41f102202ca81006135b4f7a9783f96ced2bcd514bd256a1104679e18924804ec71254550147304402203e0448b607989a53bb817fac3fdc2f2b9f827deffa1be1377290cb9bf9657f6a0220538b590bd07411a0f66cf6c254f671c934279e8d5de288509624423ed43ff13b01695221032b16f5f6b4a23eda7f9b280ae8407897575886a420eb42b3eeb785b1b4e3a2ed2103cdfab269fc2a9486bda83ee6948ceb53ae947974af82fcf20eb77480df0ef8a12102c0941d8b349436dece2bb3204007b16f0ae5d6f46f907698500227aae72c9d8653ae040047304402205a67927b33d2f5e7b4a7723e4d9227157a0610fba708462105d5ecc70469585d022021629e7fda521ddabd337bb7c8b38fc1532f0deb20a67e8bb0f4f3368e1df407014730440220631b279693eda848db1f23f4075a33da4c478f97c7e2c95d2584c148067bd1020220736bf3bfad764e22c319d2604a6c2981882ff4da0817c2bf415ea44da06c02aa01695221023e4dd7cd80385c521158282becde8c13dd4fb083d4f8bb891440ca200098dadb21037cc4a97dcc8c112ec59f12e335814b1a5a608b0085afa5808799a80afe7610ac2103041caaf1a677003af123212e1c13de38247fbc134da97780a6705cec4b47591053ae0400483045022100c28e4ad57c399ef7c6e47c0c6686f0ac6542e712de9bac5b23d054fb08a61dc802205be8ba7c580b3325986d9cc7099f9c4c99a7561c713c65375fb1d2947bdf12f701473044022055977bcc47bcca51cdc13ceaff8092bb3c8adff5cb37117f0997729579eed12b022008a04366b51922a343b2787d856ba030de9c13110608da9d91afdb0d095807ca0169522103c055262a247337abacaba1feb2b259c24e64100119fdf02a263238588e13e4e62102c28f4fedd9b81f507bc3a5c449c80fe796624bbf5cd34bd2ec539b3011f96a34210352b63f1c1a08a4a16bfc4184cee9d695e6f82b06a08f87434bf95bcd11c52d0f53ae0400483045022100db2a39e4da91fab5030743a2766822934ca8ce34a2da7b79a4abe8364d28c1c902203ca20e53c7a2b445a4313c1b98c5aed90200c35b78c4621e1a93bfaefa190e29014730440220025ac8de306d6bf69c5d68649aaf593d3be5281752ee6e2530eb11eab43a54970220068767e5e2b67cb1e6935f504b28d92b7954c049ec49157cc775908331818c1d016952210343dcc7499df73ab5179a6ada3e0f7923cd3e82957b5363087bb9f830f17fee692103016979ac76c55e03b33880e719095228f10d58b7f7a09ccfcc32623f45bd529e21024af7f1634647f5bd5572f24ef3c3d4090b21c2f8d05bc5d9922d04c2930bc39d53ae04004730440220345ed1bfca7882828e1bd39aa3934cdb6190580225b8a11c46c65ed62654ab5502202e0be9dd506903fa1d703c548dbc4e6d75ee98b91cb76ec5e5c81c70c374184701473044022062ca4754971c2281ec093a828bd8b323a76a07d2af2368ca4529b44e591aa9fa02203b9819cacb972d550852d7027af277e1bfb35fa234062730c63455969afeb30501695221024a1d274e9e7e1ad001ed33c08f4ecd133b0146a57c8ddcc656dd02a9674768a62103de404ed11051a140147a296cd982b209b2df1d3ee40e88405b9565b392e0f1782102ca1f3bc672d878dc8e0e87339e5fd0352a12613592b622d959d88c183912362753ae0400483045022100d56b845505b180eabf029f7a96d3e2f0587ed334ef38c140bf3477acceee5df50220284bd2ef82ac82eccb81225eb8a9f12c3a988cb8f6de0856e4d86b8e295329590147304402205df48d3b91b065102cd0564f01d11ac6253bb392e8184b034372778d00911be4022052bdd29b06a4504ece09d0366ea3a7402c4d3dfdfb534d16521f475123e293980169522102567d783c76275a1638cbb764d4beac92f8f224f9f111f38d7ef49b64040d820321034e06b9b08f28fbd135b8dbd3b4f1c5dc5a72b2d3304db0492dbd275efb6fe81c21023dea3732b1409bf1cc348ea9f7799c66d3c6c8c11f5ad897df0ebee857968cd253ae0400483045022100cce6319b10781be433054bdbab0a191cdeec4237403eb8021663a79d61928c0e02204c426d249105efea71ebe3e1f48117d67f994969f5eb5035097e97ee868185460147304402203a964d73c58907248dab95126133c5a0960a8988556b67bdf278ea2ef07d88b902206cab189783042e196da0717ccb00094220b53b67eb369797ba00af00ab6dd7490169522103c36c83b1c16ed86d61d4650afbb501cff86ba55fee3829dc8654e97a64ff3a6621028c145fff301ddc832ad99e4eafa1c4f36d2b3306be28513f2ea0e4a3504c4feb21028aa4749d781b4e41c4d8849c0c742dd90ddedd45873e5a88e18f1af5f831ce7753ae0400483045022100bfacebfb621bdf49522fdd04b977e062339dad3d0b04f9758fbe75c89772d18002206ae40d30a27ebd3fa44338c72b1274a23518dbbe9281eaded355ab4bdd56fee1014730440220157c489faf0741617b78ac70dbefd5762bc66eda507092d8a9731f624d0b853602202c712a3062f3c9409e80cf38aa9f3398155861285db121e4f14ea11d4d50efb4016952210302b3eb2dcde057a62301cae29f11f6d05a8eecd4e3aa21da90528bfc0259db5521027eac611af5d9b6031b75ae9471c5e8e9e8e95df7d63476232071408686c68aa221030bfad43b8dbfb95f33fa9380354e9ab96c1d1db2166ea1e74f2c5e9e471af9c553ae0400473044022002ff6f91306a18fc4abc3e1364dca817d39dd1c41ca135817bb89e67125e90ca022053e44cd06b0ed0fc8657f59d340a28469258ca5a742bdd41d5246c5f7299a95201473044022043c194dbf885528759cf126942b742d08f221b60c07fdb6fdac51e6caf5b2cb5022073b1433e0725928d33df0c07b30e80146f6bbb8bba43f1b5181ed8143485b35801695221037ae739c3694a4c65374205e58dc040ed82cf2721c3ebb06566998eef325a280a2103fccfefdd795b3300a968d52925c501284ab4dddf149777d6d3f703651792128421020d1ec8d544fc92c6c059ab7cb7ac8e67bdee40207a65e4f4199b13ecc0b7ff2253ae0400473044022048ce801ba2adc9ecef14907be51c1e6912b8e522f4dd2f38d149ed34aabbb25802202e3d48cf3b732a1323f38d43b4eea6561924cbdf3300f5937aaddd8043b8ba9d0147304402204b960073b678719a7bce2c2698f374ebcd406f5aa13ab31c915e5bceb8f4f46f02205c12af09c3ed4300d1ac0a42c8629e0a6cbe24fb5a0fafe956c15dddd29c67150169522103478de3bd6e3ccae4ed3175acbe5f6c985113b111d8f48b58b14e35850bd6f88b21030180605f0bedd0b350c68955f0b80e45c6c1ba0dec7dc6db31cfa7e10b819dce210239cd881a8dcc3c8be45566227531a42c48b748cac5efc4bd938fc3d8191f271753ae4dbc0c00"
}