{
  "txid": "df0246dca43cfe7a60c113e160d75cd93cb17a4abca3ce0eeb9f40048ec1d536",
  "version": 2,
  "locktime": 0,
  "vin": [
    {
      "txid": "a05ba1e2085e120947ee64c0e0fef7395fb112ea631d4a61713eca58fc43c2fb",
      "vout": 1,
      "prevout": {
        "scriptpubkey": "5120c2ed9bc1edd290c28d00b8be0047588b3ea974e7647e3dba5aa58fc8fd87d1ff",
        "scriptpubkey_asm": "OP_PUSHNUM_1 OP_PUSHBYTES_32 c2ed9bc1edd290c28d00b8be0047588b3ea974e7647e3dba5aa58fc8fd87d1ff",
        "scriptpubkey_type": "v1_p2tr",
        "scriptpubkey_address": "bc1pctkehs0d62gv9rgqhzlqq36c3vl2ja88v3lrmwj65k8u3lv868lsjxsp5x",
        "value": 675323
      },
      "scriptsig": "",
      "scriptsig_asm": "",
      "witness": [
        "3062240341ca684df0e5406424b1f131ed29d994e501948c24da2f95b2f6c2a863a2c51fbe78269426cade739117d6f6f49977ffc487ca5ba9baaaa0ab59e96b"
      ],
      "is_coinbase": false,
      "sequence": 4294967293
    }
  ],
  "vout": [
    {
      "scriptpubkey": "5120e55642f7ff92082c8aabcee6c0db26ad0423ed5574a169d5fea30f8fd67f02bc",
      "scriptpubkey_asm": "OP_PUSHNUM_1 OP_PUSHBYTES_32 e55642f7ff92082c8aabcee6c0db26ad0423ed5574a169d5fea30f8fd67f02bc",
      "scriptpubkey_type": "v1_p2tr",
      "scriptpubkey_address": "bc1pu4ty9alljgyzez4temnvpkex45zz8m24wjskn4075v8cl4nlq27qjz5euy",
      "value": 2166
    },
    {
      "scriptpubkey": "5120c2ed9bc1edd290c28d00b8be0047588b3ea974e7647e3dba5aa58fc8fd87d1ff",
      "scriptpubkey_asm": "OP_PUSHNUM_1 OP_PUSHBYTES_32 c2ed9bc1edd290c28d00b8be0047588b3ea974e7647e3dba5aa58fc8fd87d1ff",
      "scriptpubkey_type": "v1_p2tr",
      "scriptpubkey_address": "bc1pctkehs0d62gv9rgqhzlqq36c3vl2ja88v3lrmwj65k8u3lv868lsjxsp5x",
      "value": 671309
    }
  ],
  "size": 205,
  "weight": 616,
  "fee": 1848,
  "status": {
    "confirmed": true,
    "block_height": 834460,
    "block_hash": "00000000000000000000484a79b643b2524bbce82e5d8a442013fa5b8905ed98",
    "block_time": 1710307468
  },
  "hex": "02000000000101fbc243fc58ca3e71614a1d63ea12b15f39f7fee0c064ee4709125e08e2a15ba00100000000fdffffff027608000000000000225120e55642f7ff92082c8aabcee6c0db26ad0423ed5574a169d5fea30f8fd67f02bc4d3e0a0000000000225120c2ed9bc1edd290c28d00b8be0047588b3ea974e7647e3dba5aa58fc8fd87d1ff01403062240341ca684df0e5406424b1f131ed29d994e501948c24da2f95b2f6c2a863a2c51fbe78269426cade739117d6f6f49977ffc487ca5ba9baaaa0ab59e96b00000000"
}