{
  "txid": "df13e2ae15dd7e9c3d34973724990022c2a8711ddf0dc6654685f91ee5fec87b",
  "version": 2,
  "locktime": 0,
  "vin": [
    {
      "txid": "5b2c7c941d5b2e005f07f6ce0d36f6c45990ad0d269388369bb665a318d22c45",
      "vout": 3,
      "prevout": {
        "scriptpubkey": "00149d6f5b86d01f6ec1caa52f6c984576b84148a54f",
        "scriptpubkey_asm": "OP_0 OP_PUSHBYTES_20 9d6f5b86d01f6ec1caa52f6c984576b84148a54f",
        "scriptpubkey_type": "v0_p2wpkh",
        "scriptpubkey_address": "bc1qn4h4hpksrahvrj499akfs3tkhpq53f20tatr0c",
        "value": 39789
      },
      "scriptsig": "",
      "scriptsig_asm": "",
      "witness": [
        "304402207b0496308820bf1f853919ae4172475d596115b98b12b6d83b82f75b4958d12102206b23ee2805e1cd0204ee140a80865154f520dec3e9862c2cfe229226cf5bf97701",
        "021371777e282dd0fcccd34aa08839c05320ffd8b132cb8e076a38cf182cfa68ee"
      ],
      "is_coinbase": false,
      "sequence": 4294967293
    }
  ],
  "vout": [
    {
      "scriptpubkey": "0014d90c42e49c4fb3693b92a6daf5c058ae52523a9d",
      "scriptpubkey_asm": "OP_0 OP_PUSHBYTES_20 d90c42e49c4fb3693b92a6daf5c058ae52523a9d",
      "scriptpubkey_type": "v0_p2wpkh",
      "scriptpubkey_address": "bc1qmyxy9eyuf7ekjwuj5md0tszc4ef9yw5a7klq83",
      "value": 6568
    },
    {
      "scriptpubkey": "00149d6f5b86d01f6ec1caa52f6c984576b84148a54f",
      "scriptpubkey_asm": "OP_0 OP_PUSHBYTES_20 9d6f5b86d01f6ec1caa52f6c984576b84148a54f",
      "scriptpubkey_type": "v0_p2wpkh",
      "scriptpubkey_address": "bc1qn4h4hpksrahvrj499akfs3tkhpq53f20tatr0c",
      "value": 31691
    }
  ],
  "size": 222,
  "weight": 561,
  "fee": 1530,
  "status": {
    "confirmed": true,
    "block_height": 834464,
    "block_hash": "0000000000000000000177a0869a911a2b65c9bdcd5a8bcb02b68f305bee848e",
    "block_time": 1710308296
  },
  "hex": "02000000000101452cd218a365b69b368893260dad9059c4f6360dcef6075f002e5b1d947c2c5b0300000000fdffffff02a819000000000000160014d90c42e49c4fb3693b92a6daf5c058ae52523a9dcb7b0000000000001600149d6f5b86d01f6ec1caa52f6c984576b84148a54f0247304402207b0496308820bf1f853919ae4172475d596115b98b12b6d83b82f75b4958d12102206b23ee2805e1cd0204ee140a80865154f520dec3e9862c2cfe229226cf5bf9770121021371777e282dd0fcccd34aa08839c05320ffd8b132cb8e076a38cf182cfa68ee00000000"
}