{
  "txid": "df189bace51935d6b17035b1dc15ced2354cee565fdcdb115c6acfe479b491de",
  "version": 2,
  "locktime": 834637,
  "vin": [
    {
      "txid": "f340c00cf817ed6928c2b1f5feb1d9fd2cfaf1d43b6f6833dc18bb1070b66a58",
      "vout": 1,
      "prevout": {
        "scriptpubkey": "00143584ab3073c6d769632e9a27286c5ab7f8746888",
        "scriptpubkey_asm": "OP_0 OP_PUSHBYTES_20 3584ab3073c6d769632e9a27286c5ab7f8746888",
        "scriptpubkey_type": "v0_p2wpkh",
        "scriptpubkey_address": "bc1qxkz2kvrncmtkjcewngnjsmz6klu8g6ygkhfhyr",
        "value": 4504315
      },
      "scriptsig": "",
      "scriptsig_asm": "",
      "witness": [
        "304402200a56837e8685f61b3c05b27e0ea5652e6560c1b27a6ebe4e8c2c7bc8084439f5022034c5086024a61583182af38158d59481a6b5191e58386b14a9fa4d081e342c5501",
        "032b538b6a34f7aeec5562f7b219c876939ddc1a0123fafd018c151fafff2852c7"
      ],
      "is_coinbase": false,
      "sequence": 4294967293
    }
  ],
  "vout": [
    {
      "scriptpubkey": "00147e3d8629a87f6049706e308be74c210ce0f403d0",
      "scriptpubkey_asm": "OP_0 OP_PUSHBYTES_20 7e3d8629a87f6049706e308be74c210ce0f403d0",
      "scriptpubkey_type": "v0_p2wpkh",
      "scriptpubkey_address": "bc1q0c7cv2dg0asyjurwxz97wnpppns0gq7sa3vjzm",
      "value": 76600
    },
    {
      "scriptpubkey": "0014e3888be9bd7d10fcd3c1ca5c0facb76580447b05",
      "scriptpubkey_asm": "OP_0 OP_PUSHBYTES_20 e3888be9bd7d10fcd3c1ca5c0facb76580447b05",
      "scriptpubkey_type": "v0_p2wpkh",
      "scriptpubkey_address": "bc1quwygh6da05g0e57pefwqlt9hvkqyg7c9pspgmw",
      "value": 4423908
    }
  ],
  "size": 222,
  "weight": 561,
  "fee": 3807,
  "status": {
    "confirmed": true,
    "block_height": 834638,
    "block_hash": "000000000000000000025f742c626208ac87e0b7d15054abb4a19ca2d735a54e",
    "block_time": 1710405325
  },
  "hex": "02000000000101586ab67010bb18dc33686f3bd4f1fa2cfdd9b1fef5b1c22869ed17f80cc040f30100000000fdffffff02382b0100000000001600147e3d8629a87f6049706e308be74c210ce0f403d0e480430000000000160014e3888be9bd7d10fcd3c1ca5c0facb76580447b050247304402200a56837e8685f61b3c05b27e0ea5652e6560c1b27a6ebe4e8c2c7bc8084439f5022034c5086024a61583182af38158d59481a6b5191e58386b14a9fa4d081e342c550121032b538b6a34f7aeec5562f7b219c876939ddc1a0123fafd018c151fafff2852c74dbc0c00"
}