{
  "txid": "df1bb89e84a1c981d67b3b174d38120c790e8429150a9f9f536d0a12b9bf2637",
  "version": 2,
  "locktime": 0,
  "vin": [
    {
      "txid": "05a2cb58b937eaa0ca40a187847b7054414c1de98d86f4d79fcffc27b4ed0509",
      "vout": 1,
      "prevout": {
        "scriptpubkey": "00143f97da08458526579907ac2c59b9790b35cf1799",
        "scriptpubkey_asm": "OP_0 OP_PUSHBYTES_20 3f97da08458526579907ac2c59b9790b35cf1799",
        "scriptpubkey_type": "v0_p2wpkh",
        "scriptpubkey_address": "bc1q87ta5zz9s5n90xg84sk9nwtepv6u79uer6re8n",
        "value": 84421
      },
      "scriptsig": "",
      "scriptsig_asm": "",
      "witness": [
        "3044022074f2d1317f7f7849af7d33debe6f4aeb69e66a15ec5507246d7a0b888a23e9e80220606f39715a4b2699db8acf2989a105fd6299b6fb5bf5216324a836019fa5570b01",
        "03b4f66be5c7decd553b157d11219f11dcdc537d3583e1c9a96a65d8a8519cbe79"
      ],
      "is_coinbase": false,
      "sequence": 4294967295
    }
  ],
  "vout": [
    {
      "scriptpubkey": "00143f97da08458526579907ac2c59b9790b35cf1799",
      "scriptpubkey_asm": "OP_0 OP_PUSHBYTES_20 3f97da08458526579907ac2c59b9790b35cf1799",
      "scriptpubkey_type": "v0_p2wpkh",
      "scriptpubkey_address": "bc1q87ta5zz9s5n90xg84sk9nwtepv6u79uer6re8n",
      "value": 27577
    },
    {
      "scriptpubkey": "a914b12414e50587282dcfb89007654bea58ed72c7dd87",
      "scriptpubkey_asm": "OP_HASH160 OP_PUSHBYTES_20 b12414e50587282dcfb89007654bea58ed72c7dd OP_EQUAL",
      "scriptpubkey_type": "p2sh",
      "scriptpubkey_address": "3HqekVXRKqyDZPmarecY7Myqmh4Ck2Zsz5",
      "value": 54458
    }
  ],
  "size": 223,
  "weight": 565,
  "fee": 2386,
  "status": {
    "confirmed": true,
    "block_height": 834638,
    "block_hash": "000000000000000000025f742c626208ac87e0b7d15054abb4a19ca2d735a54e",
    "block_time": 1710405325
  },
  "hex": "020000000001010905edb427fccf9fd7f4868de91d4c4154707b8487a140caa0ea37b958cba2050100000000ffffffff02b96b0000000000001600143f97da08458526579907ac2c59b9790b35cf1799bad400000000000017a914b12414e50587282dcfb89007654bea58ed72c7dd8702473044022074f2d1317f7f7849af7d33debe6f4aeb69e66a15ec5507246d7a0b888a23e9e80220606f39715a4b2699db8acf2989a105fd6299b6fb5bf5216324a836019fa5570b012103b4f66be5c7decd553b157d11219f11dcdc537d3583e1c9a96a65d8a8519cbe7900000000"
}