{
  "txid": "df1f285382850e97b092101ed8ee5738420466171beb292f5c9cf728d37b8a3c",
  "version": 2,
  "locktime": 0,
  "vin": [
    {
      "txid": "14e2167695fd53b97ae50c0a70e65ac4ef7ad1480621c0c13d9d798945a5d5dc",
      "vout": 1,
      "prevout": {
        "scriptpubkey": "5120c7d898741247b89357876561773a71b236958e13113ecc940bb8585a513184c3",
        "scriptpubkey_asm": "OP_PUSHNUM_1 OP_PUSHBYTES_32 c7d898741247b89357876561773a71b236958e13113ecc940bb8585a513184c3",
        "scriptpubkey_type": "v1_p2tr",
        "scriptpubkey_address": "bc1pclvfsaqjg7ufx4u8v4shwwn3kgmftrsnzylve9qthpv955f3snpsgsh6lj",
        "value": 2862
      },
      "scriptsig": "",
      "scriptsig_asm": "",
      "witness": [
        "136f33bf887ac46a9fe60ac8325ce4d742fa243a94c0d68bde5cebe6937f01cab7eb83b343a1485faaa996e3c0fd585663508066f5914e3493d347d357d68f84",
        "20af9b1409a9ab80e3ee6841144259a1ffa2d46f7b5d6eee79007f814a59e71af1ac0063036f726401011e6170706c69636174696f6e2f6a736f6e3b636861727365743d7574662d38004cd37b2270223a22706f772d3230222c226f70223a226d696e74222c227469636b223a2250455045222c22616d74223a2231303030222c22736f6c7574696f6e223a22504550453a62633170673935386e6b7a747678347271756e78676d747a6c35666e70666b633330776a323770777367396e6c706a786b796e64793671737376386c6b303a303030303030303030303030303030303030303139393431613561653132383937363539383134343239323533333030353762306461393666336465613163353a3534303734383136393434227d68",
        "c0631b34e489e80d4fba35164e5ad52a60d66865df7d7db84d2adbf53ec13ca2a1"
      ],
      "is_coinbase": false,
      "sequence": 4294967295
    }
  ],
  "vout": [
    {
      "scriptpubkey": "5120416879d84b61aa30726646d62fd1330a6d88bdd25782e820b3f8646b126d2681",
      "scriptpubkey_asm": "OP_PUSHNUM_1 OP_PUSHBYTES_32 416879d84b61aa30726646d62fd1330a6d88bdd25782e820b3f8646b126d2681",
      "scriptpubkey_type": "v1_p2tr",
      "scriptpubkey_address": "bc1pg958nkztvx4rqunxgmtzl5fnpfkc30wj27pwsg9nlpjxkyndy6qssv8lk0",
      "value": 546
    }
  ],
  "size": 487,
  "weight": 769,
  "fee": 2316,
  "status": {
    "confirmed": true,
    "block_height": 834460,
    "block_hash": "00000000000000000000484a79b643b2524bbce82e5d8a442013fa5b8905ed98",
    "block_time": 1710307468
  },
  "hex": "02000000000101dcd5a54589799d3dc1c0210648d17aefc45ae6700a0ce57ab953fd957616e2140100000000ffffffff012202000000000000225120416879d84b61aa30726646d62fd1330a6d88bdd25782e820b3f8646b126d26810340136f33bf887ac46a9fe60ac8325ce4d742fa243a94c0d68bde5cebe6937f01cab7eb83b343a1485faaa996e3c0fd585663508066f5914e3493d347d357d68f84fd200120af9b1409a9ab80e3ee6841144259a1ffa2d46f7b5d6eee79007f814a59e71af1ac0063036f726401011e6170706c69636174696f6e2f6a736f6e3b636861727365743d7574662d38004cd37b2270223a22706f772d3230222c226f70223a226d696e74222c227469636b223a2250455045222c22616d74223a2231303030222c22736f6c7574696f6e223a22504550453a62633170673935386e6b7a747678347271756e78676d747a6c35666e70666b633330776a323770777367396e6c706a786b796e64793671737376386c6b303a303030303030303030303030303030303030303139393431613561653132383937363539383134343239323533333030353762306461393666336465613163353a3534303734383136393434227d6821c0631b34e489e80d4fba35164e5ad52a60d66865df7d7db84d2adbf53ec13ca2a100000000"
}