{
  "txid": "df2a2982263273c225ee5ad2ca8f788293509bc8f1d52594d7d811959152d627",
  "version": 2,
  "locktime": 0,
  "vin": [
    {
      "txid": "53b9298843048ed0c8334954e03deec35af6f48fe54f77942b5c39de4e8dc389",
      "vout": 41,
      "prevout": {
        "scriptpubkey": "00145ec04c2e4671a2392e89d650cc66aed7d0ff9ece",
        "scriptpubkey_asm": "OP_0 OP_PUSHBYTES_20 5ec04c2e4671a2392e89d650cc66aed7d0ff9ece",
        "scriptpubkey_type": "v0_p2wpkh",
        "scriptpubkey_address": "bc1qtmqyctjxwx3rjt5f6egvce4w6lg0l8kw6df3ad",
        "value": 86951
      },
      "scriptsig": "",
      "scriptsig_asm": "",
      "witness": [
        "304402207aaa380e68864e1d9245efc73cbbe090ad182dba8fb00224bafe182adfa1783c02205f7f7447881cd207878bf5624fc4cbb84774bb33138e1c369310dc09a1d1e34701",
        "0372d24cc63305db57e23b43c5268b39fc7fe2bc654868b3fe5fa3ed87172123e0"
      ],
      "is_coinbase": false,
      "sequence": 4294967295
    }
  ],
  "vout": [
    {
      "scriptpubkey": "00145c98664a4ac0b8bdba47964cae6433d3b0ac28d8",
      "scriptpubkey_asm": "OP_0 OP_PUSHBYTES_20 5c98664a4ac0b8bdba47964cae6433d3b0ac28d8",
      "scriptpubkey_type": "v0_p2wpkh",
      "scriptpubkey_address": "bc1qtjvxvjj2czutmwj8jex2uepn6wc2c2xcal8vpd",
      "value": 83981
    }
  ],
  "size": 191,
  "weight": 437,
  "fee": 2970,
  "status": {
    "confirmed": true,
    "block_height": 834638,
    "block_hash": "000000000000000000025f742c626208ac87e0b7d15054abb4a19ca2d735a54e",
    "block_time": 1710405325
  },
  "hex": "0200000000010189c38d4ede395c2b94774fe58ff4f65ac3ee3de0544933c8d08e04438829b9532900000000ffffffff010d480100000000001600145c98664a4ac0b8bdba47964cae6433d3b0ac28d80247304402207aaa380e68864e1d9245efc73cbbe090ad182dba8fb00224bafe182adfa1783c02205f7f7447881cd207878bf5624fc4cbb84774bb33138e1c369310dc09a1d1e34701210372d24cc63305db57e23b43c5268b39fc7fe2bc654868b3fe5fa3ed87172123e000000000"
}