{
  "txid": "df335381e8b04effac9f6dcc57a09a66c4c9e09b8264d022630634f465b5c35d",
  "version": 2,
  "locktime": 0,
  "vin": [
    {
      "txid": "620374cb149261fe1991cd76ff43342aeaa20773bf663e7d17ae6837e7f3caf7",
      "vout": 41,
      "prevout": {
        "scriptpubkey": "0014b6423f3be7682519db6c95f081102373fc0456f6",
        "scriptpubkey_asm": "OP_0 OP_PUSHBYTES_20 b6423f3be7682519db6c95f081102373fc0456f6",
        "scriptpubkey_type": "v0_p2wpkh",
        "scriptpubkey_address": "bc1qkepr7wl8dqj3nkmvjhcgzyprw07qg4hkq0ktke",
        "value": 27878
      },
      "scriptsig": "",
      "scriptsig_asm": "",
      "witness": [
        "3045022100df275badca585db6b78d4eed3220bcb9e8782131f81fa2863bd2bfa805dde068022044802f180c862a42d3f5945c67c6a76c51d8467775ffa649d2428899c17fff0901",
        "03a201b031726f4275d6bdde92c4203a01de050c72720d60b7973a46a7a000d122"
      ],
      "is_coinbase": false,
      "sequence": 4294967295
    }
  ],
  "vout": [
    {
      "scriptpubkey": "0014b7c4b1c67d0ac80419359daa5bc735c81a22d42e",
      "scriptpubkey_asm": "OP_0 OP_PUSHBYTES_20 b7c4b1c67d0ac80419359daa5bc735c81a22d42e",
      "scriptpubkey_type": "v0_p2wpkh",
      "scriptpubkey_address": "bc1qklztr3naptyqgxf4nk49h3e4eqdz94pwzafjr3",
      "value": 25572
    }
  ],
  "size": 192,
  "weight": 438,
  "fee": 2306,
  "status": {
    "confirmed": true,
    "block_height": 834638,
    "block_hash": "000000000000000000025f742c626208ac87e0b7d15054abb4a19ca2d735a54e",
    "block_time": 1710405325
  },
  "hex": "02000000000101f7caf3e73768ae177d3e66bf7307a2ea2a3443ff76cd9119fe619214cb7403622900000000ffffffff01e463000000000000160014b7c4b1c67d0ac80419359daa5bc735c81a22d42e02483045022100df275badca585db6b78d4eed3220bcb9e8782131f81fa2863bd2bfa805dde068022044802f180c862a42d3f5945c67c6a76c51d8467775ffa649d2428899c17fff09012103a201b031726f4275d6bdde92c4203a01de050c72720d60b7973a46a7a000d12200000000"
}