{
  "txid": "df473259f8f64c555fd042758c28301c96c05b5e076c155d76a114256b88e8fa",
  "version": 2,
  "locktime": 0,
  "vin": [
    {
      "txid": "0db680412a76e9164af53b4d152b8408ec926e33f4d8c07998ce837ffb9c99e5",
      "vout": 1,
      "prevout": {
        "scriptpubkey": "00144411202ffdf714025241dc76a8b81ea518e14dc4",
        "scriptpubkey_asm": "OP_0 OP_PUSHBYTES_20 4411202ffdf714025241dc76a8b81ea518e14dc4",
        "scriptpubkey_type": "v0_p2wpkh",
        "scriptpubkey_address": "bc1qgsgjqtla7u2qy5jpm3m23wq755vwznwy0wtw4d",
        "value": 23932
      },
      "scriptsig": "",
      "scriptsig_asm": "",
      "witness": [
        "30440220105ccb58fd3a208de13939e7299b6fbfa5b0d8ff3524e014e0fc8e60affcd142022041d1e3afe97ab2938c05987f6994fe0043fd982c5c91382705c4ce4ac953969801",
        "02c594c5131af017c9903f4bbff4484856f9303e9658eec77d78a19379b84b5e26"
      ],
      "is_coinbase": false,
      "sequence": 4294967295
    },
    {
      "txid": "403b32b04df51e8a2b0305267ab71423afc60549b1ab3538380b694fe204651d",
      "vout": 86,
      "prevout": {
        "scriptpubkey": "001434e73be03b4c60afa18a613389ac9577cc58e216",
        "scriptpubkey_asm": "OP_0 OP_PUSHBYTES_20 34e73be03b4c60afa18a613389ac9577cc58e216",
        "scriptpubkey_type": "v0_p2wpkh",
        "scriptpubkey_address": "bc1qxnnnhcpmf3s2lgv2vyecnty4wlx93csk4yeu3l",
        "value": 55982
      },
      "scriptsig": "",
      "scriptsig_asm": "",
      "witness": [
        "30450221009f25c884ccd3882aae7980ec29c3667100e8ef9e73b839cf747c7f7eb5d882870220133becdb995638f8c7f065afa7f54a1216626cb1eb3f45dab2880321590a262701",
        "02a42264b20236d8860abc1b1631c1b375058dca0cdc2ceedb5d5e70430a8ab0b1"
      ],
      "is_coinbase": false,
      "sequence": 4294967295
    }
  ],
  "vout": [
    {
      "scriptpubkey": "0014942b3974c11d5c20bf4ca70d476e8880f672d5df",
      "scriptpubkey_asm": "OP_0 OP_PUSHBYTES_20 942b3974c11d5c20bf4ca70d476e8880f672d5df",
      "scriptpubkey_type": "v0_p2wpkh",
      "scriptpubkey_address": "bc1qjs4njaxpr4wzp06v5ux5wm5gsrm894wlgzphnk",
      "value": 48973
    },
    {
      "scriptpubkey": "0014d7f1fc27040b12e754d84abbb1c38420af3739eb",
      "scriptpubkey_asm": "OP_0 OP_PUSHBYTES_20 d7f1fc27040b12e754d84abbb1c38420af3739eb",
      "scriptpubkey_type": "v0_p2wpkh",
      "scriptpubkey_address": "bc1q6lclcfcypvfww4xcf2amrsuyyzhnww0tc3mv5z",
      "value": 27228
    }
  ],
  "size": 371,
  "weight": 833,
  "fee": 3713,
  "status": {
    "confirmed": true,
    "block_height": 834638,
    "block_hash": "000000000000000000025f742c626208ac87e0b7d15054abb4a19ca2d735a54e",
    "block_time": 1710405325
  },
  "hex": "02000000000102e5999cfb7f83ce9879c0d8f4336e92ec08842b154d3bf54a16e9762a4180b60d0100000000ffffffff1d6504e24f690b383835abb14905c6af2314b77a2605032b8a1ef54db0323b405600000000ffffffff024dbf000000000000160014942b3974c11d5c20bf4ca70d476e8880f672d5df5c6a000000000000160014d7f1fc27040b12e754d84abbb1c38420af3739eb024730440220105ccb58fd3a208de13939e7299b6fbfa5b0d8ff3524e014e0fc8e60affcd142022041d1e3afe97ab2938c05987f6994fe0043fd982c5c91382705c4ce4ac9539698012102c594c5131af017c9903f4bbff4484856f9303e9658eec77d78a19379b84b5e26024830450221009f25c884ccd3882aae7980ec29c3667100e8ef9e73b839cf747c7f7eb5d882870220133becdb995638f8c7f065afa7f54a1216626cb1eb3f45dab2880321590a2627012102a42264b20236d8860abc1b1631c1b375058dca0cdc2ceedb5d5e70430a8ab0b100000000"
}