{
  "txid": "df4fdcfb0b552a9d82a5f06dcd765e3e9fcf928468d642410543728b3c5cb75b",
  "version": 2,
  "locktime": 0,
  "vin": [
    {
      "txid": "abdcbb8bcefa0f088373ceda41a70fe1aeaa3823b969e1169e2a29269068d8dc",
      "vout": 15,
      "prevout": {
        "scriptpubkey": "512041bc9ad623cfb8246caaa900d87ad964fdf46c35d4fdb96c2818aafdc583720a",
        "scriptpubkey_asm": "OP_PUSHNUM_1 OP_PUSHBYTES_32 41bc9ad623cfb8246caaa900d87ad964fdf46c35d4fdb96c2818aafdc583720a",
        "scriptpubkey_type": "v1_p2tr",
        "scriptpubkey_address": "bc1pgx7f443re7uzgm924yqds7kevn7lgmp46n7mjmpgrz40m3vrwg9q55wxpk",
        "value": 2522
      },
      "scriptsig": "",
      "scriptsig_asm": "",
      "witness": [
        "736eb2f77d8e4931372aec8b4ebdf553db2327903f8db9f8b801e9d76c998fcc4647c032eed6e0638a1c6aac6da392b8982b52b91278bfb0771e8148cff27b8b",
        "206cd70e0468973556767d28c0d4d4c9f535b8f69436cd8d6720ce3ec46c216787ac0063036f7264010118746578742f706c61696e3b636861727365743d7574662d3800387b2270223a226272632d3230222c226f70223a227472616e73666572222c227469636b223a226f726e6a222c22616d74223a22313030227d68",
        "c125dced391475af84759664675c16f5ed581b243a944241d7ee258c8cfb80c9db"
      ],
      "is_coinbase": false,
      "sequence": 4294967295
    }
  ],
  "vout": [
    {
      "scriptpubkey": "512060e7b9d91ee3091b65165528563dba11a47299520ea2fc67070ec6ac303fc05d",
      "scriptpubkey_asm": "OP_PUSHNUM_1 OP_PUSHBYTES_32 60e7b9d91ee3091b65165528563dba11a47299520ea2fc67070ec6ac303fc05d",
      "scriptpubkey_type": "v1_p2tr",
      "scriptpubkey_address": "bc1pvrnmnkg7uvy3kegk2559v0d6zxj89x2jp630cec8pmr2cvplcpwsn3pn79",
      "value": 546
    }
  ],
  "size": 323,
  "weight": 605,
  "fee": 1976,
  "status": {
    "confirmed": true,
    "block_height": 834460,
    "block_hash": "00000000000000000000484a79b643b2524bbce82e5d8a442013fa5b8905ed98",
    "block_time": 1710307468
  },
  "hex": "02000000000101dcd8689026292a9e16e169b92338aaaee10fa741dace7383080fface8bbbdcab0f00000000ffffffff01220200000000000022512060e7b9d91ee3091b65165528563dba11a47299520ea2fc67070ec6ac303fc05d0340736eb2f77d8e4931372aec8b4ebdf553db2327903f8db9f8b801e9d76c998fcc4647c032eed6e0638a1c6aac6da392b8982b52b91278bfb0771e8148cff27b8b7e206cd70e0468973556767d28c0d4d4c9f535b8f69436cd8d6720ce3ec46c216787ac0063036f7264010118746578742f706c61696e3b636861727365743d7574662d3800387b2270223a226272632d3230222c226f70223a227472616e73666572222c227469636b223a226f726e6a222c22616d74223a22313030227d6821c125dced391475af84759664675c16f5ed581b243a944241d7ee258c8cfb80c9db00000000"
}