{
  "txid": "df5a0a51a3c6a83e7a497da2ba7bb15ac6cc285973cc2f0f1d0fab091c14944a",
  "version": 2,
  "locktime": 834371,
  "vin": [
    {
      "txid": "4212cd4a803efedc733d642dc47e054d7ef632f2db25d9c46d2bed9ead31fe46",
      "vout": 0,
      "prevout": {
        "scriptpubkey": "0014ae21907a124eee0687e29190788a1a726b283e7f",
        "scriptpubkey_asm": "OP_0 OP_PUSHBYTES_20 ae21907a124eee0687e29190788a1a726b283e7f",
        "scriptpubkey_type": "v0_p2wpkh",
        "scriptpubkey_address": "bc1q4cseq7sjfmhqdplzjxg83zs6wf4js0nlfkeq4f",
        "value": 132337894
      },
      "scriptsig": "",
      "scriptsig_asm": "",
      "witness": [
        "304402207565ab870d2cb5ce93c23c218ed13968949eebd7f9dbcba1c2e5f668b49170a802207b48edfa083167b7d43fd35c185b72a4f3c93fc6e89304e016cf9ab616e75fd201",
        "02e53e13a927d298b094cbc7d174480ef7e7268067f08102b6bc06e5fde0790479"
      ],
      "is_coinbase": false,
      "sequence": 4294967293
    }
  ],
  "vout": [
    {
      "scriptpubkey": "0014043bbb2cc582dcf055cc16fbfe01da6caf270a50",
      "scriptpubkey_asm": "OP_0 OP_PUSHBYTES_20 043bbb2cc582dcf055cc16fbfe01da6caf270a50",
      "scriptpubkey_type": "v0_p2wpkh",
      "scriptpubkey_address": "bc1qqsamktx9stw0q4wvzmaluqw6djhjwzjssj6hl7",
      "value": 2116082
    },
    {
      "scriptpubkey": "0014ce2c4e8007bb129c992d69196ad5b6fc2dd85ecf",
      "scriptpubkey_asm": "OP_0 OP_PUSHBYTES_20 ce2c4e8007bb129c992d69196ad5b6fc2dd85ecf",
      "scriptpubkey_type": "v0_p2wpkh",
      "scriptpubkey_address": "bc1qeckyaqq8hvffexfddyvk44dklskashk0pa3kc5",
      "value": 506244
    },
    {
      "scriptpubkey": "0014d1710542a7540f31d83cf25f05327e8a05f0171e",
      "scriptpubkey_asm": "OP_0 OP_PUSHBYTES_20 d1710542a7540f31d83cf25f05327e8a05f0171e",
      "scriptpubkey_type": "v0_p2wpkh",
      "scriptpubkey_address": "bc1q69cs2s482s8nrkpu7f0s2vn73gzlq9c7grvl65",
      "value": 475000
    },
    {
      "scriptpubkey": "00149fe7cc4c40017f230e1923c11a31b1865ff0ada3",
      "scriptpubkey_asm": "OP_0 OP_PUSHBYTES_20 9fe7cc4c40017f230e1923c11a31b1865ff0ada3",
      "scriptpubkey_type": "v0_p2wpkh",
      "scriptpubkey_address": "bc1qnlnucnzqq9ljxrsey0q35vd3se0lptdrkpq0tq",
      "value": 570000
    },
    {
      "scriptpubkey": "001401edc0bb6d2037b4a46f3d44855783ac903e6777",
      "scriptpubkey_asm": "OP_0 OP_PUSHBYTES_20 01edc0bb6d2037b4a46f3d44855783ac903e6777",
      "scriptpubkey_type": "v0_p2wpkh",
      "scriptpubkey_address": "bc1qq8kupwmdyqmmffr084zg24ur4jgruemh94z5cu",
      "value": 1090649
    },
    {
      "scriptpubkey": "0014f564087b460e3a43fce759d1f3ba9b5e2931e4ad",
      "scriptpubkey_asm": "OP_0 OP_PUSHBYTES_20 f564087b460e3a43fce759d1f3ba9b5e2931e4ad",
      "scriptpubkey_type": "v0_p2wpkh",
      "scriptpubkey_address": "bc1q74jqs76xpcay8l88t8gl8w5mtc5nre9dmalynj",
      "value": 2282427
    },
    {
      "scriptpubkey": "0014c1bb75827e20768d668cff9577f93a796791f835",
      "scriptpubkey_asm": "OP_0 OP_PUSHBYTES_20 c1bb75827e20768d668cff9577f93a796791f835",
      "scriptpubkey_type": "v0_p2wpkh",
      "scriptpubkey_address": "bc1qcxahtqn7ypmg6e5vl72h07f609ner7p4xpgkqx",
      "value": 125293319
    }
  ],
  "size": 377,
  "weight": 1181,
  "fee": 4173,
  "status": {
    "confirmed": true,
    "block_height": 834460,
    "block_hash": "00000000000000000000484a79b643b2524bbce82e5d8a442013fa5b8905ed98",
    "block_time": 1710307468
  },
  "hex": "0200000000010146fe31ad9eed2b6dc4d925dbf232f67e4d057ec42d643d73dcfe3e804acd12420000000000fdffffff07f249200000000000160014043bbb2cc582dcf055cc16fbfe01da6caf270a5084b9070000000000160014ce2c4e8007bb129c992d69196ad5b6fc2dd85ecf783f070000000000160014d1710542a7540f31d83cf25f05327e8a05f0171e90b20800000000001600149fe7cc4c40017f230e1923c11a31b1865ff0ada359a410000000000016001401edc0bb6d2037b4a46f3d44855783ac903e6777bbd3220000000000160014f564087b460e3a43fce759d1f3ba9b5e2931e4ad07d3770700000000160014c1bb75827e20768d668cff9577f93a796791f8350247304402207565ab870d2cb5ce93c23c218ed13968949eebd7f9dbcba1c2e5f668b49170a802207b48edfa083167b7d43fd35c185b72a4f3c93fc6e89304e016cf9ab616e75fd2012102e53e13a927d298b094cbc7d174480ef7e7268067f08102b6bc06e5fde079047943bb0c00"
}