{
  "txid": "df5f9567c8aae04c70db6c19ea26638a0121e362e6dfc3921d5f5d9c458d9691",
  "version": 2,
  "locktime": 0,
  "vin": [
    {
      "txid": "acc3ba00869acb582a3f2904ce3a11dd3779350ce234063fc7d0959246213364",
      "vout": 114,
      "prevout": {
        "scriptpubkey": "5120f9615e16eff71c7a58488aab0ed6a4792ea798b0a19dc46b33c54cdb0675520a",
        "scriptpubkey_asm": "OP_PUSHNUM_1 OP_PUSHBYTES_32 f9615e16eff71c7a58488aab0ed6a4792ea798b0a19dc46b33c54cdb0675520a",
        "scriptpubkey_type": "v1_p2tr",
        "scriptpubkey_address": "bc1pl9s4u9h07uw85kzg324sa44y0yh20x9s5xwug6enc4xdkpn42g9q6kg7fd",
        "value": 1806
      },
      "scriptsig": "",
      "scriptsig_asm": "",
      "witness": [
        "fbc819ef4e66fe256038dc68f08613d9b17fe32195d2dbd09d9f43e549abb93539a084a999b4b1b3d2b3da9bf2ec9cea3f4a10839fa623712dce8a73ab097279",
        "20604c6fa066f76b6cea8685c02ce351510aaaacc095afdb8022fb3f3294da11d2ac0063036f726401010a746578742f706c61696e00357b2270223a226272632d3230222c226f70223a226d696e74222c227469636b223a22646f6765222c22616d74223a2234323030227d68",
        "c0604c6fa066f76b6cea8685c02ce351510aaaacc095afdb8022fb3f3294da11d2"
      ],
      "is_coinbase": false,
      "sequence": 4261412863
    }
  ],
  "vout": [
    {
      "scriptpubkey": "00147a665de7a370f4c9b372ab1fae587500a5bcbdb4",
      "scriptpubkey_asm": "OP_0 OP_PUSHBYTES_20 7a665de7a370f4c9b372ab1fae587500a5bcbdb4",
      "scriptpubkey_type": "v0_p2wpkh",
      "scriptpubkey_address": "bc1q0fn9mearwr6vnvmj4v06ukr4qzjme0d565dzcx",
      "value": 294
    }
  ],
  "size": 294,
  "weight": 540,
  "fee": 1512,
  "status": {
    "confirmed": true,
    "block_height": 834460,
    "block_hash": "00000000000000000000484a79b643b2524bbce82e5d8a442013fa5b8905ed98",
    "block_time": 1710307468
  },
  "hex": "02000000000101643321469295d0c73f0634e20c357937dd113ace04293f2a58cb9a8600bac3ac7200000000fffffffd0126010000000000001600147a665de7a370f4c9b372ab1fae587500a5bcbdb40340fbc819ef4e66fe256038dc68f08613d9b17fe32195d2dbd09d9f43e549abb93539a084a999b4b1b3d2b3da9bf2ec9cea3f4a10839fa623712dce8a73ab0972796d20604c6fa066f76b6cea8685c02ce351510aaaacc095afdb8022fb3f3294da11d2ac0063036f726401010a746578742f706c61696e00357b2270223a226272632d3230222c226f70223a226d696e74222c227469636b223a22646f6765222c22616d74223a2234323030227d6821c0604c6fa066f76b6cea8685c02ce351510aaaacc095afdb8022fb3f3294da11d200000000"
}