{
  "txid": "df64016f1686c2d2ca0db01cc59e9d2d70c449633199f0c9a9ded4603a22a2f8",
  "version": 1,
  "locktime": 0,
  "vin": [
    {
      "txid": "c9b07fe203f64374a426669946cfdd452f4403f4681f2199808d9f033f80865c",
      "vout": 1,
      "prevout": {
        "scriptpubkey": "76a914ca99bb472af8f84ace27d6f40db1e69bce55cdf688ac",
        "scriptpubkey_asm": "OP_DUP OP_HASH160 OP_PUSHBYTES_20 ca99bb472af8f84ace27d6f40db1e69bce55cdf6 OP_EQUALVERIFY OP_CHECKSIG",
        "scriptpubkey_type": "p2pkh",
        "scriptpubkey_address": "1KUFfCv3TLgmete8Z8jb28Zj2ZvgCfvZKy",
        "value": 1160081
      },
      "scriptsig": "473044022050cd204a3c2322514b3b9d112bac1eba42a71fc5dae090697c59afa3bd6a662d022049e23ca3ad2a76644ba0172a66f3436943ca25cb76ec0be17ed49c32bb840a48012102c0705e84e7a39c5fd02fee5f17328f16cac78431934232bb0e5331b443b8c387",
      "scriptsig_asm": "OP_PUSHBYTES_71 3044022050cd204a3c2322514b3b9d112bac1eba42a71fc5dae090697c59afa3bd6a662d022049e23ca3ad2a76644ba0172a66f3436943ca25cb76ec0be17ed49c32bb840a4801 OP_PUSHBYTES_33 02c0705e84e7a39c5fd02fee5f17328f16cac78431934232bb0e5331b443b8c387",
      "is_coinbase": false,
      "sequence": 4294967295
    }
  ],
  "vout": [
    {
      "scriptpubkey": "76a914745d83affb76096abeb668376a8a62b6cb00264c88ac",
      "scriptpubkey_asm": "OP_DUP OP_HASH160 OP_PUSHBYTES_20 745d83affb76096abeb668376a8a62b6cb00264c OP_EQUALVERIFY OP_CHECKSIG",
      "scriptpubkey_type": "p2pkh",
      "scriptpubkey_address": "1BcHQkL1MWsicTNFPaRVGPi6hzLKogjmu9",
      "value": 487378
    },
    {
      "scriptpubkey": "76a914ca99bb472af8f84ace27d6f40db1e69bce55cdf688ac",
      "scriptpubkey_asm": "OP_DUP OP_HASH160 OP_PUSHBYTES_20 ca99bb472af8f84ace27d6f40db1e69bce55cdf6 OP_EQUALVERIFY OP_CHECKSIG",
      "scriptpubkey_type": "p2pkh",
      "scriptpubkey_address": "1KUFfCv3TLgmete8Z8jb28Zj2ZvgCfvZKy",
      "value": 668183
    }
  ],
  "size": 225,
  "weight": 900,
  "fee": 4520,
  "status": {
    "confirmed": true,
    "block_height": 834638,
    "block_hash": "000000000000000000025f742c626208ac87e0b7d15054abb4a19ca2d735a54e",
    "block_time": 1710405325
  },
  "hex": "01000000015c86803f039f8d8099211f68f403442f45ddcf46996626a47443f603e27fb0c9010000006a473044022050cd204a3c2322514b3b9d112bac1eba42a71fc5dae090697c59afa3bd6a662d022049e23ca3ad2a76644ba0172a66f3436943ca25cb76ec0be17ed49c32bb840a48012102c0705e84e7a39c5fd02fee5f17328f16cac78431934232bb0e5331b443b8c387ffffffff02d26f0700000000001976a914745d83affb76096abeb668376a8a62b6cb00264c88ac17320a00000000001976a914ca99bb472af8f84ace27d6f40db1e69bce55cdf688ac00000000"
}