{
  "txid": "df6d53824b8dc4203c168b0b47ebe74424cbc4bcad977f6971dea12999578efc",
  "version": 2,
  "locktime": 832492,
  "vin": [
    {
      "txid": "64763b500f1dc8fc85089a0bfed05297144ebe6f5a097596b58925e5e21e62e5",
      "vout": 64,
      "prevout": {
        "scriptpubkey": "a914daa168aaab920300d2421850c83ebb07d1aad93d87",
        "scriptpubkey_asm": "OP_HASH160 OP_PUSHBYTES_20 daa168aaab920300d2421850c83ebb07d1aad93d OP_EQUAL",
        "scriptpubkey_type": "p2sh",
        "scriptpubkey_address": "3Md2bFFmfxhoKJhAZbRXHhtoTcW2r2Wa9H",
        "value": 102563
      },
      "scriptsig": "16001419b5ea58f0ae12ba7222f98b76ff83b9b5e720cd",
      "scriptsig_asm": "OP_PUSHBYTES_22 001419b5ea58f0ae12ba7222f98b76ff83b9b5e720cd",
      "witness": [
        "3045022100c018e42f5f5e79f95da6a1baf8d3465e7f565cc6952a8f0a65dac6051d9b439b0220581ce0a651e520bfe545df9373586ddbb8568e0037bdb0a1603fb7e3026a027501",
        "031eed13b9459dd93ac16dbca7a346dff2e8d48ebd4e1a4f6b817ce654ee9318b7"
      ],
      "is_coinbase": false,
      "sequence": 4294967293,
      "inner_redeemscript_asm": "OP_0 OP_PUSHBYTES_20 19b5ea58f0ae12ba7222f98b76ff83b9b5e720cd"
    }
  ],
  "vout": [
    {
      "scriptpubkey": "a9146c02ce82790a1d99b65d01be51e19aac6047bf7587",
      "scriptpubkey_asm": "OP_HASH160 OP_PUSHBYTES_20 6c02ce82790a1d99b65d01be51e19aac6047bf75 OP_EQUAL",
      "scriptpubkey_type": "p2sh",
      "scriptpubkey_address": "3BY8GGnBuBQPp7q1hAgBTi1ZFS3j3cgV48",
      "value": 100000
    },
    {
      "scriptpubkey": "a9148539dd19bb9d643c90324595ca6056b4832065df87",
      "scriptpubkey_asm": "OP_HASH160 OP_PUSHBYTES_20 8539dd19bb9d643c90324595ca6056b4832065df OP_EQUAL",
      "scriptpubkey_type": "p2sh",
      "scriptpubkey_address": "3DqT7VhwXkwq63sHDFFa6eBptGxEUpoVQc",
      "value": 737
    }
  ],
  "size": 248,
  "weight": 662,
  "fee": 1826,
  "status": {
    "confirmed": true,
    "block_height": 834464,
    "block_hash": "0000000000000000000177a0869a911a2b65c9bdcd5a8bcb02b68f305bee848e",
    "block_time": 1710308296
  },
  "hex": "02000000000101e5621ee2e52589b59675095a6fbe4e149752d0fe0b9a0885fcc81d0f503b7664400000001716001419b5ea58f0ae12ba7222f98b76ff83b9b5e720cdfdffffff02a08601000000000017a9146c02ce82790a1d99b65d01be51e19aac6047bf7587e10200000000000017a9148539dd19bb9d643c90324595ca6056b4832065df8702483045022100c018e42f5f5e79f95da6a1baf8d3465e7f565cc6952a8f0a65dac6051d9b439b0220581ce0a651e520bfe545df9373586ddbb8568e0037bdb0a1603fb7e3026a02750121031eed13b9459dd93ac16dbca7a346dff2e8d48ebd4e1a4f6b817ce654ee9318b7ecb30c00"
}