{
  "txid": "df73b5a24f178df4dc47c3f8c36b8f219b519e73e88cd883ac1a2e1c05cd0fd4",
  "version": 2,
  "locktime": 0,
  "vin": [
    {
      "txid": "f829343a2f496a704a3a37f8c3d7351a58e2673eca098fd509eaf1fed3023a4f",
      "vout": 0,
      "prevout": {
        "scriptpubkey": "51200689d50dd48aada395d7b87772fe1cfc4f697458b26c7d64e257910d844d93a0",
        "scriptpubkey_asm": "OP_PUSHNUM_1 OP_PUSHBYTES_32 0689d50dd48aada395d7b87772fe1cfc4f697458b26c7d64e257910d844d93a0",
        "scriptpubkey_type": "v1_p2tr",
        "scriptpubkey_address": "bc1pq6ya2rw532k689whhpmh9lsul38kjazckfk86e8z27gsmpzdjwsq5eenp6",
        "value": 4459
      },
      "scriptsig": "",
      "scriptsig_asm": "",
      "witness": [
        "2bb88a67ae77012da44b584a3caa67dc0ffec54a83704ba5073e46bfcb184a6f13675ec0c1dcd42322fefa06873ddd37b70813ea4b69b4e802df9e61361d8687",
        "20322f1acefeb8b288de49dd0df6adfd3ab1f9618ba58afc13678014a77055e052ac0063036f7264010118746578742f706c61696e3b636861727365743d7574662d38004c867b2270223a22746170222c226f70223a22646d742d6d696e74222c22646570223a22333962373532343338626533613435326464623731376230613635346233313662316164343661383139656234343831383933626337313331663738396539616930222c227469636b223a226e61746f776c73222c22626c6b223a22343937383334227d680063036f72640102022202010118746578742f706c61696e3b636861727365743d7574662d38004c867b2270223a22746170222c226f70223a22646d742d6d696e74222c22646570223a22333962373532343338626533613435326464623731376230613635346233313662316164343661383139656234343831383933626337313331663738396539616930222c227469636b223a226e61746f776c73222c22626c6b223a22343937393837227d68",
        "c0322f1acefeb8b288de49dd0df6adfd3ab1f9618ba58afc13678014a77055e052"
      ],
      "is_coinbase": false,
      "sequence": 4294967295
    }
  ],
  "vout": [
    {
      "scriptpubkey": "51207f73d17fa1b1c355a2784e2541b134926c5d752653470250262e098a6b1bbe0a",
      "scriptpubkey_asm": "OP_PUSHNUM_1 OP_PUSHBYTES_32 7f73d17fa1b1c355a2784e2541b134926c5d752653470250262e098a6b1bbe0a",
      "scriptpubkey_type": "v1_p2tr",
      "scriptpubkey_address": "bc1p0aeazlapk8p4tgncfcj5rvf5jfk96afx2drsy5px9cyc56cmhc9qeq0y49",
      "value": 546
    },
    {
      "scriptpubkey": "51207f73d17fa1b1c355a2784e2541b134926c5d752653470250262e098a6b1bbe0a",
      "scriptpubkey_asm": "OP_PUSHNUM_1 OP_PUSHBYTES_32 7f73d17fa1b1c355a2784e2541b134926c5d752653470250262e098a6b1bbe0a",
      "scriptpubkey_type": "v1_p2tr",
      "scriptpubkey_address": "bc1p0aeazlapk8p4tgncfcj5rvf5jfk96afx2drsy5px9cyc56cmhc9qeq0y49",
      "value": 546
    }
  ],
  "size": 623,
  "weight": 1034,
  "fee": 3367,
  "status": {
    "confirmed": true,
    "block_height": 834460,
    "block_hash": "00000000000000000000484a79b643b2524bbce82e5d8a442013fa5b8905ed98",
    "block_time": 1710307468
  },
  "hex": "020000000001014f3a02d3fef1ea09d58f09ca3e67e2581a35d7c3f8373a4a706a492f3a3429f80000000000ffffffff0222020000000000002251207f73d17fa1b1c355a2784e2541b134926c5d752653470250262e098a6b1bbe0a22020000000000002251207f73d17fa1b1c355a2784e2541b134926c5d752653470250262e098a6b1bbe0a03402bb88a67ae77012da44b584a3caa67dc0ffec54a83704ba5073e46bfcb184a6f13675ec0c1dcd42322fefa06873ddd37b70813ea4b69b4e802df9e61361d8687fd7d0120322f1acefeb8b288de49dd0df6adfd3ab1f9618ba58afc13678014a77055e052ac0063036f7264010118746578742f706c61696e3b636861727365743d7574662d38004c867b2270223a22746170222c226f70223a22646d742d6d696e74222c22646570223a22333962373532343338626533613435326464623731376230613635346233313662316164343661383139656234343831383933626337313331663738396539616930222c227469636b223a226e61746f776c73222c22626c6b223a22343937383334227d680063036f72640102022202010118746578742f706c61696e3b636861727365743d7574662d38004c867b2270223a22746170222c226f70223a22646d742d6d696e74222c22646570223a22333962373532343338626533613435326464623731376230613635346233313662316164343661383139656234343831383933626337313331663738396539616930222c227469636b223a226e61746f776c73222c22626c6b223a22343937393837227d6821c0322f1acefeb8b288de49dd0df6adfd3ab1f9618ba58afc13678014a77055e05200000000"
}