{
  "txid": "df75bf99e20bee86031c23079cb784a4864eda6111f3f451ed992a78a91c7531",
  "version": 2,
  "locktime": 0,
  "vin": [
    {
      "txid": "388cdfcbe07276632cae2631efa96a0113b42f80f53a6c6b043829f7e3836a01",
      "vout": 0,
      "prevout": {
        "scriptpubkey": "51209a5b4a7c02c02e506880fd8d1a87bdc4ea0fbc5b4cd1cfb6823495db5ba7ac5d",
        "scriptpubkey_asm": "OP_PUSHNUM_1 OP_PUSHBYTES_32 9a5b4a7c02c02e506880fd8d1a87bdc4ea0fbc5b4cd1cfb6823495db5ba7ac5d",
        "scriptpubkey_type": "v1_p2tr",
        "scriptpubkey_address": "bc1pnfd55lqzcqh9q6yqlkx34paacn4ql0zmfnguld5zxj2akka843wszssr59",
        "value": 105153
      },
      "scriptsig": "",
      "scriptsig_asm": "",
      "witness": [
        "463dc0c1a6309b3861e441455dc57df1890ac385f9b6d8d2e1c0dfc243f5ad724ee1e2445db00af34a76b2e6cafd3782cfd41efcd98353069301321d97b94042"
      ],
      "is_coinbase": false,
      "sequence": 0
    },
    {
      "txid": "99fdd130a7cc9d7fa026a4c7fc30d5bf71314e0447c9edc04181713c5d26b75f",
      "vout": 0,
      "prevout": {
        "scriptpubkey": "512022fa086fd08a4241afee24e0b52fa2cf0bb106ba95da32e3639ce1d9acc1bfcb",
        "scriptpubkey_asm": "OP_PUSHNUM_1 OP_PUSHBYTES_32 22fa086fd08a4241afee24e0b52fa2cf0bb106ba95da32e3639ce1d9acc1bfcb",
        "scriptpubkey_type": "v1_p2tr",
        "scriptpubkey_address": "bc1pytaqsm7s3fpyrtlwynst2tazeu9mzp46jhdr9cmrnnsantxphl9stz25vd",
        "value": 105504
      },
      "scriptsig": "",
      "scriptsig_asm": "",
      "witness": [
        "e90344642118852577ef7ab6e96a3a2f8102771bdfa8888666b287acb590b6758873b6f6100314d6ce4a2cdf86e633552c79e74f2ea0dd6e9dc797cbd113ffd3"
      ],
      "is_coinbase": false,
      "sequence": 0
    },
    {
      "txid": "b9d8a94e3e27bccf336d2ee004dcb906a8e41bbf988861378a155ea8be2af825",
      "vout": 0,
      "prevout": {
        "scriptpubkey": "5120d66e7d4a0b86382113dabc96cf045b772430105d0a50cca6a5401b595ec127e4",
        "scriptpubkey_asm": "OP_PUSHNUM_1 OP_PUSHBYTES_32 d66e7d4a0b86382113dabc96cf045b772430105d0a50cca6a5401b595ec127e4",
        "scriptpubkey_type": "v1_p2tr",
        "scriptpubkey_address": "bc1p6eh86jstscuzzy76hjtv7pzmwujrqyzapfgvef49gqd4jhkpyljqxhyndz",
        "value": 198468
      },
      "scriptsig": "",
      "scriptsig_asm": "",
      "witness": [
        "79bedf86e16e2e294caf6d656f1058e73ceae2b711c64ea1813acb34cb2cf8ecfc3b6c4db75fba730ea6d04564c6916b2ad79044e45a7ba4c03faf8646d37628"
      ],
      "is_coinbase": false,
      "sequence": 0
    },
    {
      "txid": "feb42e5a5994690d7930e1e8d0ea6a25b6583b9ab3563ea41044ff056c29e668",
      "vout": 0,
      "prevout": {
        "scriptpubkey": "0014af913f9deaf6ad7d7721591fdcc5eee76ec2d348",
        "scriptpubkey_asm": "OP_0 OP_PUSHBYTES_20 af913f9deaf6ad7d7721591fdcc5eee76ec2d348",
        "scriptpubkey_type": "v0_p2wpkh",
        "scriptpubkey_address": "bc1q47gnl80276kh6aepty0ae30wuahv956gyl3j9l",
        "value": 101122642
      },
      "scriptsig": "",
      "scriptsig_asm": "",
      "witness": [
        "304402205268cea11cd33c34bbb1135e5638ecdf0a065f58b1cfd0f99de7d1969a17d749022038c40eb78ffcb9be5a11ab42aae3864793324b4801fcf014628386603f96f16901",
        "025e515013f326e7fde0fd968f0ee246c97834d56acd5db5c9b0c3e3fe2d2fca11"
      ],
      "is_coinbase": false,
      "sequence": 0
    }
  ],
  "vout": [
    {
      "scriptpubkey": "5120a83a3ea6668e258d23de8799fe9fc6b8cdf4a743ca0505a38083e8e4d7d4b4c9",
      "scriptpubkey_asm": "OP_PUSHNUM_1 OP_PUSHBYTES_32 a83a3ea6668e258d23de8799fe9fc6b8cdf4a743ca0505a38083e8e4d7d4b4c9",
      "scriptpubkey_type": "v1_p2tr",
      "scriptpubkey_address": "bc1p4qarafnx3cjc6g77s7vla87xhrxlff6regzstguqs05wf475knyszmhzda",
      "value": 26034
    },
    {
      "scriptpubkey": "00203f123694a0e009bb117a04ac8c0e34b8d4146962cc2a1552eb043eebcfc4abe2",
      "scriptpubkey_asm": "OP_0 OP_PUSHBYTES_32 3f123694a0e009bb117a04ac8c0e34b8d4146962cc2a1552eb043eebcfc4abe2",
      "scriptpubkey_type": "v0_p2wsh",
      "scriptpubkey_address": "bc1q8ufrd99quqymkyt6qjkgcr35hr2pg6tzes4p25htqslwhn7y403qj8lpg2",
      "value": 101500000
    }
  ],
  "size": 567,
  "weight": 1347,
  "fee": 5733,
  "status": {
    "confirmed": true,
    "block_height": 834638,
    "block_hash": "000000000000000000025f742c626208ac87e0b7d15054abb4a19ca2d735a54e",
    "block_time": 1710405325
  },
  "hex": "02000000000104016a83e3f72938046b6c3af5802fb413016aa9ef3126ae2c637672e0cbdf8c380000000000000000005fb7265d3c718141c0edc947044e3171bfd530fcc7a426a07f9dcca730d1fd9900000000000000000025f82abea85e158a37618898bf1be4a806b9dc04e02e6d33cfbc273e4ea9d8b900000000000000000068e6296c05ff4410a43e56b39a3b58b6256aead0e8e130790d6994595a2eb4fe00000000000000000002b265000000000000225120a83a3ea6668e258d23de8799fe9fc6b8cdf4a743ca0505a38083e8e4d7d4b4c960c40c06000000002200203f123694a0e009bb117a04ac8c0e34b8d4146962cc2a1552eb043eebcfc4abe20140463dc0c1a6309b3861e441455dc57df1890ac385f9b6d8d2e1c0dfc243f5ad724ee1e2445db00af34a76b2e6cafd3782cfd41efcd98353069301321d97b940420140e90344642118852577ef7ab6e96a3a2f8102771bdfa8888666b287acb590b6758873b6f6100314d6ce4a2cdf86e633552c79e74f2ea0dd6e9dc797cbd113ffd3014079bedf86e16e2e294caf6d656f1058e73ceae2b711c64ea1813acb34cb2cf8ecfc3b6c4db75fba730ea6d04564c6916b2ad79044e45a7ba4c03faf8646d376280247304402205268cea11cd33c34bbb1135e5638ecdf0a065f58b1cfd0f99de7d1969a17d749022038c40eb78ffcb9be5a11ab42aae3864793324b4801fcf014628386603f96f1690121025e515013f326e7fde0fd968f0ee246c97834d56acd5db5c9b0c3e3fe2d2fca1100000000"
}