{
  "txid": "df759138c91ff859b0fae8b14f97610ece818a13bb879fa730476a9a656b9206",
  "version": 2,
  "locktime": 834443,
  "vin": [
    {
      "txid": "0d5d5e028e55346593c368cbf44e6cacefba97d3555a888cbc5b789011a6d2a3",
      "vout": 5,
      "prevout": {
        "scriptpubkey": "0014686ad1b0ae3586f9564fbe0f7cca3411c5654d59",
        "scriptpubkey_asm": "OP_0 OP_PUSHBYTES_20 686ad1b0ae3586f9564fbe0f7cca3411c5654d59",
        "scriptpubkey_type": "v0_p2wpkh",
        "scriptpubkey_address": "bc1qdp4drv9wxkr0j4j0hc8hej35z8zk2n2ermctt8",
        "value": 565500
      },
      "scriptsig": "",
      "scriptsig_asm": "",
      "witness": [
        "30440220735773e086954c87b8286116be63d881bc62245b13d805544df725ef2ec62db402202ab7ac351662b065ad56a29345dd0ee493e8f52e85283662c9eec8327781892201",
        "02de709d9a401018f6316a960ce6aaa4fa5f11ae1dada8e02b50bb6f755f5ecde2"
      ],
      "is_coinbase": false,
      "sequence": 4294967293
    },
    {
      "txid": "9ba98bfadca7d5d48bb838e056d8d8b741d9e1022b4488f539240800663f136d",
      "vout": 37,
      "prevout": {
        "scriptpubkey": "00143be404979994f046d5e0291b0516e17eb89acad6",
        "scriptpubkey_asm": "OP_0 OP_PUSHBYTES_20 3be404979994f046d5e0291b0516e17eb89acad6",
        "scriptpubkey_type": "v0_p2wpkh",
        "scriptpubkey_address": "bc1q80jqf9uejncyd40q9yds29hp06uf4jkkgdnsmc",
        "value": 379500
      },
      "scriptsig": "",
      "scriptsig_asm": "",
      "witness": [
        "304402201f7cbb3b1d4b053dec8d39579f9a61829d9c98bdf7e115912026f38931bd0ea0022043f71c5936d2c7ae33ae132cdd9bed203c24de456dbbb4a176cbd6e8d5e1c3a701",
        "023c7596ee1b4082af8045c10db80357a27698a1ff7362227f0706949c09f899e7"
      ],
      "is_coinbase": false,
      "sequence": 4294967293
    },
    {
      "txid": "eea330b0844ccf6d9d7975197d67580bb9a51dec78f8c24b30625961b92d135b",
      "vout": 2,
      "prevout": {
        "scriptpubkey": "00142131377fe1a90fe9e862ce71564b02bd6e0ca1f0",
        "scriptpubkey_asm": "OP_0 OP_PUSHBYTES_20 2131377fe1a90fe9e862ce71564b02bd6e0ca1f0",
        "scriptpubkey_type": "v0_p2wpkh",
        "scriptpubkey_address": "bc1qyycnwllp4y87n6rzeec4vjczh4hqeg0smjszyl",
        "value": 518100
      },
      "scriptsig": "",
      "scriptsig_asm": "",
      "witness": [
        "304402200f6845d27a024681e7334ae01859593973de0851ac592ddf93b3631b22f87cdf02202d9fb0d3466dbeb1038c5ebd19b076a0d265f588f75f21a6bc7526f4fd5f0f1201",
        "024211725b1be6af744cd2e8bc5de4f1bb15d5526ede5afd607e98ec4a4b2f6f71"
      ],
      "is_coinbase": false,
      "sequence": 4294967293
    }
  ],
  "vout": [
    {
      "scriptpubkey": "0014d61dda808fa639678d8ee783466d3c378bc59e46",
      "scriptpubkey_asm": "OP_0 OP_PUSHBYTES_20 d61dda808fa639678d8ee783466d3c378bc59e46",
      "scriptpubkey_type": "v0_p2wpkh",
      "scriptpubkey_address": "bc1q6cwa4qy05cuk0rvwu7p5vmfux79ut8jx86akh6",
      "value": 1460163
    }
  ],
  "size": 487,
  "weight": 979,
  "fee": 2937,
  "status": {
    "confirmed": true,
    "block_height": 834460,
    "block_hash": "00000000000000000000484a79b643b2524bbce82e5d8a442013fa5b8905ed98",
    "block_time": 1710307468
  },
  "hex": "02000000000103a3d2a61190785bbc8c885a55d397baefac6c4ef4cb68c3936534558e025e5d0d0500000000fdffffff6d133f6600082439f588442b02e1d941b7d8d856e038b88bd4d5a7dcfa8ba99b2500000000fdffffff5b132db9615962304bc2f878ec1da5b90b58677d1975799d6dcf4c84b030a3ee0200000000fdffffff01c347160000000000160014d61dda808fa639678d8ee783466d3c378bc59e46024730440220735773e086954c87b8286116be63d881bc62245b13d805544df725ef2ec62db402202ab7ac351662b065ad56a29345dd0ee493e8f52e85283662c9eec83277818922012102de709d9a401018f6316a960ce6aaa4fa5f11ae1dada8e02b50bb6f755f5ecde20247304402201f7cbb3b1d4b053dec8d39579f9a61829d9c98bdf7e115912026f38931bd0ea0022043f71c5936d2c7ae33ae132cdd9bed203c24de456dbbb4a176cbd6e8d5e1c3a70121023c7596ee1b4082af8045c10db80357a27698a1ff7362227f0706949c09f899e70247304402200f6845d27a024681e7334ae01859593973de0851ac592ddf93b3631b22f87cdf02202d9fb0d3466dbeb1038c5ebd19b076a0d265f588f75f21a6bc7526f4fd5f0f120121024211725b1be6af744cd2e8bc5de4f1bb15d5526ede5afd607e98ec4a4b2f6f718bbb0c00"
}