{
  "txid": "df9ac28fd4ffceb40305617dacb13a58e45a20d4cce72ae242873efcf4fb3922",
  "version": 2,
  "locktime": 834458,
  "vin": [
    {
      "txid": "0daa8e00ba7eb21862e14c308931b052dec615ed626995b9ca1b6e272af6a910",
      "vout": 1,
      "prevout": {
        "scriptpubkey": "001477bb33951337888af49fbc3fb0cdc3ca647e22f6",
        "scriptpubkey_asm": "OP_0 OP_PUSHBYTES_20 77bb33951337888af49fbc3fb0cdc3ca647e22f6",
        "scriptpubkey_type": "v0_p2wpkh",
        "scriptpubkey_address": "bc1qw7an89gnx7yg4aylhslmpnwrefj8ughkn2ntrv",
        "value": 465245
      },
      "scriptsig": "",
      "scriptsig_asm": "",
      "witness": [
        "304402206cbdf766560c328f652864e46120e52e697005c8276e7dad67b11e95e23c3ef202202d00a950c6e1f652864aa1aef1a77caa7b7b0ff89ffd657c94270e70642563d201",
        "03462be754c01183370759ec1d927817f6fe87500d5ec69905ea501d97d8eaee46"
      ],
      "is_coinbase": false,
      "sequence": 4294967293
    }
  ],
  "vout": [
    {
      "scriptpubkey": "a9141771d297fe85e0ad11f892d3dcfc8dde87dd7e5587",
      "scriptpubkey_asm": "OP_HASH160 OP_PUSHBYTES_20 1771d297fe85e0ad11f892d3dcfc8dde87dd7e55 OP_EQUAL",
      "scriptpubkey_type": "p2sh",
      "scriptpubkey_address": "33pypVRpXTQESCAJQar5rWvcfxSkZXJKHU",
      "value": 60090
    },
    {
      "scriptpubkey": "00149eadd6d98bd6e05956052f4bca38f43ca73f109a",
      "scriptpubkey_asm": "OP_0 OP_PUSHBYTES_20 9eadd6d98bd6e05956052f4bca38f43ca73f109a",
      "scriptpubkey_type": "v0_p2wpkh",
      "scriptpubkey_address": "bc1qn6kadkvt6ms9j4s99a9u5w858jnn7yy6j5ajjr",
      "value": 403025
    }
  ],
  "size": 223,
  "weight": 565,
  "fee": 2130,
  "status": {
    "confirmed": true,
    "block_height": 834460,
    "block_hash": "00000000000000000000484a79b643b2524bbce82e5d8a442013fa5b8905ed98",
    "block_time": 1710307468
  },
  "hex": "0200000000010110a9f62a276e1bcab9956962ed15c6de52b03189304ce16218b27eba008eaa0d0100000000fdffffff02baea00000000000017a9141771d297fe85e0ad11f892d3dcfc8dde87dd7e558751260600000000001600149eadd6d98bd6e05956052f4bca38f43ca73f109a0247304402206cbdf766560c328f652864e46120e52e697005c8276e7dad67b11e95e23c3ef202202d00a950c6e1f652864aa1aef1a77caa7b7b0ff89ffd657c94270e70642563d2012103462be754c01183370759ec1d927817f6fe87500d5ec69905ea501d97d8eaee469abb0c00"
}