{
  "txid": "dfa7c5036f4e1ae08af93144585ec6b2923e8fcd01b070e516c57bb771b92798",
  "version": 2,
  "locktime": 0,
  "vin": [
    {
      "txid": "94c944269a007a2569204651d5623f975381450c2e2a2f5dc544d1f842d5ab84",
      "vout": 1,
      "prevout": {
        "scriptpubkey": "00141b385932ead87f27be14bb944cd7bde7fed05ddc",
        "scriptpubkey_asm": "OP_0 OP_PUSHBYTES_20 1b385932ead87f27be14bb944cd7bde7fed05ddc",
        "scriptpubkey_type": "v0_p2wpkh",
        "scriptpubkey_address": "bc1qrvu9jvh2mplj00s5hw2ye4aaulldqhwu7tkrk5",
        "value": 67188
      },
      "scriptsig": "",
      "scriptsig_asm": "",
      "witness": [
        "3045022100b96adc7aef14e70a6b728ff5c3971585f8e0451618e197c0195d768f308a08a802207e9cacc68262a94f777ef001e080f1dd60d3c595781266328ae26a05a9d2f52001",
        "02c5caee5b03064eff50b0441ee16dc04b0c81cb908b8f1164a6f814c47b70595c"
      ],
      "is_coinbase": false,
      "sequence": 4294967295
    }
  ],
  "vout": [
    {
      "scriptpubkey": "00142648ba2aadc6c9b538d14336497faf340ba2dd80",
      "scriptpubkey_asm": "OP_0 OP_PUSHBYTES_20 2648ba2aadc6c9b538d14336497faf340ba2dd80",
      "scriptpubkey_type": "v0_p2wpkh",
      "scriptpubkey_address": "bc1qyeyt524dcmym2wx3gvmyjla0xs969hvqymfmdm",
      "value": 15600
    },
    {
      "scriptpubkey": "0014848d6abefea64f34e4b4d977db8cb51168402db9",
      "scriptpubkey_asm": "OP_0 OP_PUSHBYTES_20 848d6abefea64f34e4b4d977db8cb51168402db9",
      "scriptpubkey_type": "v0_p2wpkh",
      "scriptpubkey_address": "bc1qsjxk40h75e8nfe95m9mahr94z95yqtdexr736w",
      "value": 50065
    }
  ],
  "size": 223,
  "weight": 562,
  "fee": 1523,
  "status": {
    "confirmed": true,
    "block_height": 834464,
    "block_hash": "0000000000000000000177a0869a911a2b65c9bdcd5a8bcb02b68f305bee848e",
    "block_time": 1710308296
  },
  "hex": "0200000000010184abd542f8d144c55d2f2a2e0c458153973f62d551462069257a009a2644c9940100000000ffffffff02f03c0000000000001600142648ba2aadc6c9b538d14336497faf340ba2dd8091c3000000000000160014848d6abefea64f34e4b4d977db8cb51168402db902483045022100b96adc7aef14e70a6b728ff5c3971585f8e0451618e197c0195d768f308a08a802207e9cacc68262a94f777ef001e080f1dd60d3c595781266328ae26a05a9d2f520012102c5caee5b03064eff50b0441ee16dc04b0c81cb908b8f1164a6f814c47b70595c00000000"
}