{
  "txid": "dfbe33121c223233c241bc67a7325c1c2cf62fa78a19c7a9e4d453aedb7ea34e",
  "version": 2,
  "locktime": 834637,
  "vin": [
    {
      "txid": "03f352ef8d6eef97fd6c8310d69cdc11014a40b014bb9f4b6d8acf2369c2cd0d",
      "vout": 1,
      "prevout": {
        "scriptpubkey": "0014f602cf9bb747e84025b6700402f5b738a255ca92",
        "scriptpubkey_asm": "OP_0 OP_PUSHBYTES_20 f602cf9bb747e84025b6700402f5b738a255ca92",
        "scriptpubkey_type": "v0_p2wpkh",
        "scriptpubkey_address": "bc1q7cpvlxahgl5yqfdkwqzq9adh8z39tj5j0rmdgw",
        "value": 161241129
      },
      "scriptsig": "",
      "scriptsig_asm": "",
      "witness": [
        "3044022031bb7b1734bf3fdbadc33512b9cb32353b5b3a669f93beb9468f3e2d00c71c52022065529fb68fd201d29e591afa9af4a8ea3f792e110d4d5b1ae1d6396d331d585201",
        "0244c1188441405650d2dfd2d7a80e6fe9db50f5f2a6cb4eee0d0259881dd7bfd8"
      ],
      "is_coinbase": false,
      "sequence": 4294967293
    }
  ],
  "vout": [
    {
      "scriptpubkey": "a9147359f71d79144aa7f7397b0afdf2f218b44b534287",
      "scriptpubkey_asm": "OP_HASH160 OP_PUSHBYTES_20 7359f71d79144aa7f7397b0afdf2f218b44b5342 OP_EQUAL",
      "scriptpubkey_type": "p2sh",
      "scriptpubkey_address": "3CCwQW6RQbEzvrtiVMnzQ1r3Vo6MCY1LCU",
      "value": 2147786
    },
    {
      "scriptpubkey": "0014a522de1eee4c26f513df7faf0c605b7808077846",
      "scriptpubkey_asm": "OP_0 OP_PUSHBYTES_20 a522de1eee4c26f513df7faf0c605b7808077846",
      "scriptpubkey_type": "v0_p2wpkh",
      "scriptpubkey_address": "bc1q553du8hwfsn02y7l07hscczm0qyqw7zxhqt93u",
      "value": 159089509
    }
  ],
  "size": 223,
  "weight": 565,
  "fee": 3834,
  "status": {
    "confirmed": true,
    "block_height": 834638,
    "block_hash": "000000000000000000025f742c626208ac87e0b7d15054abb4a19ca2d735a54e",
    "block_time": 1710405325
  },
  "hex": "020000000001010dcdc26923cf8a6d4b9fbb14b0404a0111dc9cd610836cfd97ef6e8def52f3030100000000fdffffff02cac520000000000017a9147359f71d79144aa7f7397b0afdf2f218b44b53428765837b0900000000160014a522de1eee4c26f513df7faf0c605b780807784602473044022031bb7b1734bf3fdbadc33512b9cb32353b5b3a669f93beb9468f3e2d00c71c52022065529fb68fd201d29e591afa9af4a8ea3f792e110d4d5b1ae1d6396d331d585201210244c1188441405650d2dfd2d7a80e6fe9db50f5f2a6cb4eee0d0259881dd7bfd84dbc0c00"
}