{
  "txid": "dfc4c728a6708d3e19ba894b79271ba453b7eb48fdd21d8f33ee224970b7e647",
  "version": 2,
  "locktime": 0,
  "vin": [
    {
      "txid": "9596b4bf5a36dd2b4d2728c580d61b36a2d7c3dfce14f825860c8c3b85753eeb",
      "vout": 14,
      "prevout": {
        "scriptpubkey": "5120226abfc7948262f99b78586a5cd82c92c31c2b6c07fda6bb9b4e4cccdef78c76",
        "scriptpubkey_asm": "OP_PUSHNUM_1 OP_PUSHBYTES_32 226abfc7948262f99b78586a5cd82c92c31c2b6c07fda6bb9b4e4cccdef78c76",
        "scriptpubkey_type": "v1_p2tr",
        "scriptpubkey_address": "bc1pyf4tl3u5sf30nxmctp49ekpvjtp3c2mvql76dwumfexvehhh33mqny5t8q",
        "value": 2782
      },
      "scriptsig": "",
      "scriptsig_asm": "",
      "witness": [
        "b2b75648df416a174d502b7da4193a1ed766ca62134c8a16578b5665fad2eaba2a3f99ec5829ea642707ffd39cc5d8751afd85d5df7599995160b9c3661ea721",
        "200e219d99985877b6aaf3762f8b75f5e9775588303d25ebab0e92c57d0e3ada7eac0063036f7264010118746578742f706c61696e3b636861727365743d7574662d38004c827b2270223a22746170222c226f70223a22646d742d6d696e74222c22646570223a22393432343830326533386663383839393639343137636439306466346334313437323039643261383365643833373938633063346161343339316164333665356930222c227469636b223a22626974222c22626c6b223a22313638383631227d68",
        "c10e219d99985877b6aaf3762f8b75f5e9775588303d25ebab0e92c57d0e3ada7e905cf7235259c0a06a834d89580f25d6b12859409a03216e5845b89933f51aa6"
      ],
      "is_coinbase": false,
      "sequence": 4294967293
    }
  ],
  "vout": [
    {
      "scriptpubkey": "51209e8495464291b165b691de72df24128f0b71ef8272f8e759edd9215859956d85",
      "scriptpubkey_asm": "OP_PUSHNUM_1 OP_PUSHBYTES_32 9e8495464291b165b691de72df24128f0b71ef8272f8e759edd9215859956d85",
      "scriptpubkey_type": "v1_p2tr",
      "scriptpubkey_address": "bc1pn6zf23jzjxcktd53meed7fqj3u9hrmuzwtuwwk0dmys4skv4dkzsf4ex2c",
      "value": 546
    }
  ],
  "size": 430,
  "weight": 712,
  "fee": 2236,
  "status": {
    "confirmed": true,
    "block_height": 834460,
    "block_hash": "00000000000000000000484a79b643b2524bbce82e5d8a442013fa5b8905ed98",
    "block_time": 1710307468
  },
  "hex": "02000000000101eb3e75853b8c0c8625f814cedfc3d7a2361bd680c528274d2bdd365abfb496950e00000000fdffffff0122020000000000002251209e8495464291b165b691de72df24128f0b71ef8272f8e759edd9215859956d850340b2b75648df416a174d502b7da4193a1ed766ca62134c8a16578b5665fad2eaba2a3f99ec5829ea642707ffd39cc5d8751afd85d5df7599995160b9c3661ea721c9200e219d99985877b6aaf3762f8b75f5e9775588303d25ebab0e92c57d0e3ada7eac0063036f7264010118746578742f706c61696e3b636861727365743d7574662d38004c827b2270223a22746170222c226f70223a22646d742d6d696e74222c22646570223a22393432343830326533386663383839393639343137636439306466346334313437323039643261383365643833373938633063346161343339316164333665356930222c227469636b223a22626974222c22626c6b223a22313638383631227d6841c10e219d99985877b6aaf3762f8b75f5e9775588303d25ebab0e92c57d0e3ada7e905cf7235259c0a06a834d89580f25d6b12859409a03216e5845b89933f51aa600000000"
}