{
  "txid": "dfcc686e007da302916416f5a5b9a7b6d15cfc8f28c23e8960930afcd249a739",
  "version": 1,
  "locktime": 0,
  "vin": [
    {
      "txid": "bc6a733dba79cab35d1e2027de4a98d8f5d793469ff9548dcf3a608507034525",
      "vout": 1,
      "prevout": {
        "scriptpubkey": "00143ab51b01a4a94b875e917fcb9c9f4482d3e45d02",
        "scriptpubkey_asm": "OP_0 OP_PUSHBYTES_20 3ab51b01a4a94b875e917fcb9c9f4482d3e45d02",
        "scriptpubkey_type": "v0_p2wpkh",
        "scriptpubkey_address": "bc1q8263kqdy499cwh530l9ee86ystf7ghgzgw7ggg",
        "value": 20786
      },
      "scriptsig": "",
      "scriptsig_asm": "",
      "witness": [
        "3045022100e7e03cef480977b0cac9236f75e8c428b41ef66d2d5c02e6be6d6128cb184485022017106ef90d1f16fc14ccfbc84fa47e724597557a070445a8f74635020c0ce64401",
        "027940d8f8f2502174f1347a6bbc6970abf78b627067d5f620500de909bee41682"
      ],
      "is_coinbase": false,
      "sequence": 4294967295
    },
    {
      "txid": "b99daccced8897c9ed9f5de70e7e57e59e347b3c325dd00be3cf7f28e8ad479c",
      "vout": 0,
      "prevout": {
        "scriptpubkey": "0014fed19d1c9d10640a818cd961044e9f8193b4946a",
        "scriptpubkey_asm": "OP_0 OP_PUSHBYTES_20 fed19d1c9d10640a818cd961044e9f8193b4946a",
        "scriptpubkey_type": "v0_p2wpkh",
        "scriptpubkey_address": "bc1qlmge68yazpjq4qvvm9ssgn5lsxfmf9r2j59fvy",
        "value": 5123285
      },
      "scriptsig": "",
      "scriptsig_asm": "",
      "witness": [
        "304402203dd110494293ebf6635323a1b64348ef3378f96db8fab4d7b52dbb82e565be46022019d4c7a5e246f6372779b8f798c69016ca1d7fddf29b855ff8dfddcd16fc3b7401",
        "037328a6cc8ea79afc4037c3812384d4dfa064fcd833b55da58541bf0e78391c3d"
      ],
      "is_coinbase": false,
      "sequence": 4294967295
    }
  ],
  "vout": [
    {
      "scriptpubkey": "a914dd219b103295cd2e4c47b52b085bd9e5136e87db87",
      "scriptpubkey_asm": "OP_HASH160 OP_PUSHBYTES_20 dd219b103295cd2e4c47b52b085bd9e5136e87db OP_EQUAL",
      "scriptpubkey_type": "p2sh",
      "scriptpubkey_address": "3MrFWuQVfEaytcg6z4ionjTnz7LBijqncw",
      "value": 407700
    },
    {
      "scriptpubkey": "0014276a116c2c291a0067c2e3676b84bbee8cf10431",
      "scriptpubkey_asm": "OP_0 OP_PUSHBYTES_20 276a116c2c291a0067c2e3676b84bbee8cf10431",
      "scriptpubkey_type": "v0_p2wpkh",
      "scriptpubkey_address": "bc1qya4pzmpv9ydqqe7zudnkhp9ma6x0zpp3veprz5",
      "value": 4733242
    }
  ],
  "size": 372,
  "weight": 837,
  "fee": 3129,
  "status": {
    "confirmed": true,
    "block_height": 834638,
    "block_hash": "000000000000000000025f742c626208ac87e0b7d15054abb4a19ca2d735a54e",
    "block_time": 1710405325
  },
  "hex": "010000000001022545030785603acf8d54f99f4693d7f5d8984ade27201e5db3ca79ba3d736abc0100000000ffffffff9c47ade8287fcfe30bd05d323c7b349ee5577e0ee75d9fedc99788edccac9db90000000000ffffffff02943806000000000017a914dd219b103295cd2e4c47b52b085bd9e5136e87db873a39480000000000160014276a116c2c291a0067c2e3676b84bbee8cf1043102483045022100e7e03cef480977b0cac9236f75e8c428b41ef66d2d5c02e6be6d6128cb184485022017106ef90d1f16fc14ccfbc84fa47e724597557a070445a8f74635020c0ce6440121027940d8f8f2502174f1347a6bbc6970abf78b627067d5f620500de909bee416820247304402203dd110494293ebf6635323a1b64348ef3378f96db8fab4d7b52dbb82e565be46022019d4c7a5e246f6372779b8f798c69016ca1d7fddf29b855ff8dfddcd16fc3b740121037328a6cc8ea79afc4037c3812384d4dfa064fcd833b55da58541bf0e78391c3d00000000"
}