{
  "txid": "dfe2e943a84d5464481343783a02923e7d6da31ac7a4d6fb26ca5c3fafa55e57",
  "version": 2,
  "locktime": 0,
  "vin": [
    {
      "txid": "6fdd1ebe2fde94875747641fd73e5d120675f45f8656a4768d76d8071108b799",
      "vout": 0,
      "prevout": {
        "scriptpubkey": "51206d96cc79e9332d0363331ac1ae5fb5340cac8fd53cd7e833b3a236ac524c40f9",
        "scriptpubkey_asm": "OP_PUSHNUM_1 OP_PUSHBYTES_32 6d96cc79e9332d0363331ac1ae5fb5340cac8fd53cd7e833b3a236ac524c40f9",
        "scriptpubkey_type": "v1_p2tr",
        "scriptpubkey_address": "bc1pdktvc70fxvksxcenrtq6uha4xsx2er748nt7svan5gm2c5jvgrus78kcaq",
        "value": 4000
      },
      "scriptsig": "",
      "scriptsig_asm": "",
      "witness": [
        "85cb0dd8f978692a06a5151c986dacc2522f6b0bbcd6a388fae49e35ed7e149605c1ae0da07c11d8161d3e6e1355ae2af137cce15ead476fce3dc47a4001e2e8",
        "209e406b3449e0080f1d3eae1c0910e3ece51e94c59f5557926ab61128b776d8eaac0063036f7264010118746578742f706c61696e3b636861727365743d7574662d3800367b2270223a226272632d3230222c226f70223a227472616e73666572222c227469636b223a2232383330222c22616d74223a2231227d68",
        "c0a9f80afec26108fb5189cf0d5a1c7d995522e586633c73a27ac4cf6cce1cdc29"
      ],
      "is_coinbase": false,
      "sequence": 4294967293
    }
  ],
  "vout": [
    {
      "scriptpubkey": "5120a1b67b0df1be190cc9dfe5fcc3a0c790ff042fb81cc849f2a80b311b0673b001",
      "scriptpubkey_asm": "OP_PUSHNUM_1 OP_PUSHBYTES_32 a1b67b0df1be190cc9dfe5fcc3a0c790ff042fb81cc849f2a80b311b0673b001",
      "scriptpubkey_type": "v1_p2tr",
      "scriptpubkey_address": "bc1p5xm8kr03hcvsejwluh7v8gx8jrlsgtacrnyynu4gpvc3kpnnkqqsml4cdf",
      "value": 330
    },
    {
      "scriptpubkey": "00141ebbf95360170d82de7945332917adce31542702",
      "scriptpubkey_asm": "OP_0 OP_PUSHBYTES_20 1ebbf95360170d82de7945332917adce31542702",
      "scriptpubkey_type": "v0_p2wpkh",
      "scriptpubkey_address": "bc1qr6alj5mqzuxc9hneg5ejj9adecc4gfczz48a4x",
      "value": 1122
    }
  ],
  "size": 352,
  "weight": 727,
  "fee": 2548,
  "status": {
    "confirmed": true,
    "block_height": 834464,
    "block_hash": "0000000000000000000177a0869a911a2b65c9bdcd5a8bcb02b68f305bee848e",
    "block_time": 1710308296
  },
  "hex": "0200000000010199b7081107d8768d76a456865ff47506125d3ed71f6447578794de2fbe1edd6f0000000000fdffffff024a01000000000000225120a1b67b0df1be190cc9dfe5fcc3a0c790ff042fb81cc849f2a80b311b0673b00162040000000000001600141ebbf95360170d82de7945332917adce31542702034085cb0dd8f978692a06a5151c986dacc2522f6b0bbcd6a388fae49e35ed7e149605c1ae0da07c11d8161d3e6e1355ae2af137cce15ead476fce3dc47a4001e2e87c209e406b3449e0080f1d3eae1c0910e3ece51e94c59f5557926ab61128b776d8eaac0063036f7264010118746578742f706c61696e3b636861727365743d7574662d3800367b2270223a226272632d3230222c226f70223a227472616e73666572222c227469636b223a2232383330222c22616d74223a2231227d6821c0a9f80afec26108fb5189cf0d5a1c7d995522e586633c73a27ac4cf6cce1cdc2900000000"
}