{
  "txid": "dfe5555c9add7575ba13a87d7a4e759c9f7488011ef2ae47ffdd82c0933c0bfe",
  "version": 2,
  "locktime": 0,
  "vin": [
    {
      "txid": "acc3ba00869acb582a3f2904ce3a11dd3779350ce234063fc7d0959246213364",
      "vout": 195,
      "prevout": {
        "scriptpubkey": "5120461cfac4d84d7330f2ee3fd5dcb7b3af8288eeef0cbdc2e22e5052e546c170dd",
        "scriptpubkey_asm": "OP_PUSHNUM_1 OP_PUSHBYTES_32 461cfac4d84d7330f2ee3fd5dcb7b3af8288eeef0cbdc2e22e5052e546c170dd",
        "scriptpubkey_type": "v1_p2tr",
        "scriptpubkey_address": "bc1pgcw043xcf4enpuhw8l2aedan47pg3mh0pj7u9c3w2pfw23kpwrwsdlyh72",
        "value": 1806
      },
      "scriptsig": "",
      "scriptsig_asm": "",
      "witness": [
        "fe76850bcbfacbbf5c15be4807bb1521976b7be22318cc181fb1d3c3291e7c3a4aa29fe614f5d36f25316a9a8d65fa81e570d908c055289f21b773664737a9e3",
        "20ba8fdedfa1150f9c34f09d56b9db08d6ccf01b4fecfd33355ff59747e5eeb5d2ac0063036f726401010a746578742f706c61696e00357b2270223a226272632d3230222c226f70223a226d696e74222c227469636b223a22646f6765222c22616d74223a2234323030227d68",
        "c0ba8fdedfa1150f9c34f09d56b9db08d6ccf01b4fecfd33355ff59747e5eeb5d2"
      ],
      "is_coinbase": false,
      "sequence": 4261412863
    }
  ],
  "vout": [
    {
      "scriptpubkey": "00147a665de7a370f4c9b372ab1fae587500a5bcbdb4",
      "scriptpubkey_asm": "OP_0 OP_PUSHBYTES_20 7a665de7a370f4c9b372ab1fae587500a5bcbdb4",
      "scriptpubkey_type": "v0_p2wpkh",
      "scriptpubkey_address": "bc1q0fn9mearwr6vnvmj4v06ukr4qzjme0d565dzcx",
      "value": 294
    }
  ],
  "size": 294,
  "weight": 540,
  "fee": 1512,
  "status": {
    "confirmed": true,
    "block_height": 834460,
    "block_hash": "00000000000000000000484a79b643b2524bbce82e5d8a442013fa5b8905ed98",
    "block_time": 1710307468
  },
  "hex": "02000000000101643321469295d0c73f0634e20c357937dd113ace04293f2a58cb9a8600bac3acc300000000fffffffd0126010000000000001600147a665de7a370f4c9b372ab1fae587500a5bcbdb40340fe76850bcbfacbbf5c15be4807bb1521976b7be22318cc181fb1d3c3291e7c3a4aa29fe614f5d36f25316a9a8d65fa81e570d908c055289f21b773664737a9e36d20ba8fdedfa1150f9c34f09d56b9db08d6ccf01b4fecfd33355ff59747e5eeb5d2ac0063036f726401010a746578742f706c61696e00357b2270223a226272632d3230222c226f70223a226d696e74222c227469636b223a22646f6765222c22616d74223a2234323030227d6821c0ba8fdedfa1150f9c34f09d56b9db08d6ccf01b4fecfd33355ff59747e5eeb5d200000000"
}