{
  "txid": "dff75bcf43b8b0962e1e21838cc6e2d00a6ef02d95a9c6ea785c37a40bd56413",
  "version": 1,
  "locktime": 0,
  "vin": [
    {
      "txid": "3b239ad258a308129049df85c03f97bd4f57b99825174ad2a50509a08ec2a2b9",
      "vout": 0,
      "prevout": {
        "scriptpubkey": "a914423877331b30a905240c7e1f2adee4ebaa47c5f687",
        "scriptpubkey_asm": "OP_HASH160 OP_PUSHBYTES_20 423877331b30a905240c7e1f2adee4ebaa47c5f6 OP_EQUAL",
        "scriptpubkey_type": "p2sh",
        "scriptpubkey_address": "37jAAWEdJ9D9mXybRobcveioxSkt7Lkwog",
        "value": 2504928
      },
      "scriptsig": "16001415ff0337937ecadd10ce56ffdfd4674817613223",
      "scriptsig_asm": "OP_PUSHBYTES_22 001415ff0337937ecadd10ce56ffdfd4674817613223",
      "witness": [
        "3044022037656a38eff538cb3ccdcd4f47ca80118bcfd60414363b7bc08b1469adedece902206f182c48452cf2b6e6897b03354ed32d0357fc3607f5089b509fef17c498a5cd01",
        "035658f6dd92339165f76caff02f63316433c4b68a247d40b1b323fb1690279e42"
      ],
      "is_coinbase": false,
      "sequence": 4294967280,
      "inner_redeemscript_asm": "OP_0 OP_PUSHBYTES_20 15ff0337937ecadd10ce56ffdfd4674817613223"
    },
    {
      "txid": "4f382663a4491570c2e01a4a5ae4cfcd3b11b52ed2124947816dba9f09e71584",
      "vout": 1,
      "prevout": {
        "scriptpubkey": "a914423877331b30a905240c7e1f2adee4ebaa47c5f687",
        "scriptpubkey_asm": "OP_HASH160 OP_PUSHBYTES_20 423877331b30a905240c7e1f2adee4ebaa47c5f6 OP_EQUAL",
        "scriptpubkey_type": "p2sh",
        "scriptpubkey_address": "37jAAWEdJ9D9mXybRobcveioxSkt7Lkwog",
        "value": 58711992
      },
      "scriptsig": "16001415ff0337937ecadd10ce56ffdfd4674817613223",
      "scriptsig_asm": "OP_PUSHBYTES_22 001415ff0337937ecadd10ce56ffdfd4674817613223",
      "witness": [
        "3044022040a303cd51c50bdf296e89661f8bb3ea411d639c5149cab461a63855d5bf97c502207ac0ce4133e22daba97abc5d65f219c49cea1959247ec398c9c6eaceb4fcd9d801",
        "035658f6dd92339165f76caff02f63316433c4b68a247d40b1b323fb1690279e42"
      ],
      "is_coinbase": false,
      "sequence": 4294967280,
      "inner_redeemscript_asm": "OP_0 OP_PUSHBYTES_20 15ff0337937ecadd10ce56ffdfd4674817613223"
    }
  ],
  "vout": [
    {
      "scriptpubkey": "76a91471a3d2f54b0917dc9d2c877b2861ac52967dec7f88ac",
      "scriptpubkey_asm": "OP_DUP OP_HASH160 OP_PUSHBYTES_20 71a3d2f54b0917dc9d2c877b2861ac52967dec7f OP_EQUALVERIFY OP_CHECKSIG",
      "scriptpubkey_type": "p2pkh",
      "scriptpubkey_address": "1BMscNZbFKdUDYi3bnF5XEmkWT3WPmRBDJ",
      "value": 28278016
    },
    {
      "scriptpubkey": "a914423877331b30a905240c7e1f2adee4ebaa47c5f687",
      "scriptpubkey_asm": "OP_HASH160 OP_PUSHBYTES_20 423877331b30a905240c7e1f2adee4ebaa47c5f6 OP_EQUAL",
      "scriptpubkey_type": "p2sh",
      "scriptpubkey_address": "37jAAWEdJ9D9mXybRobcveioxSkt7Lkwog",
      "value": 32928544
    }
  ],
  "size": 420,
  "weight": 1032,
  "fee": 10360,
  "status": {
    "confirmed": true,
    "block_height": 834638,
    "block_hash": "000000000000000000025f742c626208ac87e0b7d15054abb4a19ca2d735a54e",
    "block_time": 1710405325
  },
  "hex": "01000000000102b9a2c28ea00905a5d24a172598b9574fbd973fc085df49901208a358d29a233b000000001716001415ff0337937ecadd10ce56ffdfd4674817613223f0ffffff8415e7099fba6d81474912d22eb5113bcdcfe45a4a1ae0c2701549a46326384f010000001716001415ff0337937ecadd10ce56ffdfd4674817613223f0ffffff02007daf01000000001976a91471a3d2f54b0917dc9d2c877b2861ac52967dec7f88ac2073f6010000000017a914423877331b30a905240c7e1f2adee4ebaa47c5f68702473044022037656a38eff538cb3ccdcd4f47ca80118bcfd60414363b7bc08b1469adedece902206f182c48452cf2b6e6897b03354ed32d0357fc3607f5089b509fef17c498a5cd0121035658f6dd92339165f76caff02f63316433c4b68a247d40b1b323fb1690279e4202473044022040a303cd51c50bdf296e89661f8bb3ea411d639c5149cab461a63855d5bf97c502207ac0ce4133e22daba97abc5d65f219c49cea1959247ec398c9c6eaceb4fcd9d80121035658f6dd92339165f76caff02f63316433c4b68a247d40b1b323fb1690279e4200000000"
}