{
  "txid": "dff82e49447d9abba6ec0828a5845f3dd9ae7c6da1417f81bd7727849cba10fa",
  "version": 2,
  "locktime": 0,
  "vin": [
    {
      "txid": "17a2ec6ff1dbc5b2939086232dda35c9ab62570c4bd2c9e1a5fb3f551c28d088",
      "vout": 0,
      "prevout": {
        "scriptpubkey": "5120b34252ab1e523819c7760e8b2399f01eace20a5eb370d47b64b071be23895b1f",
        "scriptpubkey_asm": "OP_PUSHNUM_1 OP_PUSHBYTES_32 b34252ab1e523819c7760e8b2399f01eace20a5eb370d47b64b071be23895b1f",
        "scriptpubkey_type": "v1_p2tr",
        "scriptpubkey_address": "bc1pkdp992c72gupn3mkp69j8x0sr6kwyzj7kdcdg7mykpcmuguftv0sf72dz0",
        "value": 22203
      },
      "scriptsig": "",
      "scriptsig_asm": "",
      "witness": [
        "4170d90cc59353a5998a63b5d15d193ef537a062f64981ea2f1af8332724640f4ebde23eb2f55956ecf90f8d750323d134ab86c5f43f13baefd4087286da6174",
        "20f2d00e1cce0b839d2e197679cac7a15152ec244338032c7767f72c1332d49a65ac0063036f726401010a696d6167652f6a706567004d0802ffd8ffe000104a46494600010100000100010000ffe201d84943435f50524f46494c45000101000001c800000000043000006d6e74725247422058595a2007e00001000100000000000061637370000000000000000000000000000000000000000000000000000000010000f6d6000100000000d32d0000000000000000000000000000000000000000000000000000000000000000000000000000000000000000000000000000000964657363000000f0000000247258595a00000114000000146758595a00000128000000146258595a0000013c00000014777470740000015000000014725452430000016400000028675452430000016400000028625452430000016400000028637072740000018c0000003c6d6c756300000000000000010000000c656e5553000000080000001c007300520047004258595a200000000000006fa2000038f50000039058595a2000000000000062990000b785000018da58595a2000000000000024a000000f840000b6cf58595a20000000000000f6d6000100000000d32d706172610000000000040000000266660000f2a700000d59000013d000000a5b00000000000000006d6c756300000000000000010000000c656e5553000000200000001c0047006f006f0067006c006500200049006e0063002e00200032003000310036ffdb0043000302020302020303030304030304050805050404054d08020a070706080c0a0c0c0b0a0b0b0d0e12100d0e110e0b0b1016101113141515150c0f171816141812141514ffdb00430103040405040509050509140d0b0d1414141414141414141414141414141414141414141414141414141414141414141414141414141414141414141414141414ffc00011080200020003012200021101031101ffc4001a00010003010101000000000000000000000007080906050affc40014100100000000000000000000000000000000ffc4001b01010003010101010000000000000000000006070805090204ffc40014110100000000000000000000000000000000ffda000c03010002110311003f00caa000000000000000000000000000000000000000000000000000000000000000000000000000000000000000000000000000000000000000000000000000000000000000000000000000000000000000000000000000000000000000000000000000000000000000000000000000000000000000000000000000000000000000000000000000000000000000000000000000000000000000000000000000000000000000000000000000000000000000000000000000000000000000000000000000000000000000000000000000000000000000000000000000000000000000000000000000000000000000000000000000000000000000000000000000000000000000000000000000000000000000004d080200000000000000000000000000000000000000000000000000000000000000000000000000000000000000000000000000000000000000000000000000000000000000000000000000000000000000000000000000000000000000000000000000000000000000000000000000000000000000000000000000000000000000000000000000000000000000000000000000000000000000000000000000000000000000000000000000000000000000000000000000000000000000000000000000000000000000000000000000000000000000000000000000000000000000013d00d6aa9d738047d4f80000025d010743c0000012d808fac80007cff80813500000000000000000000000000000000000000000000000000000000000002f900d4ad26000e980564ba10200cb8c62000ea0073dfb80000000000000000000014e805b6820000000000000000000000000000000000000000000002c900d06b2c0000013000912c800074c02b25d0810065c631000750039efdc000000000000000000000000a7402db41000000000000000000000000000000000000000000164806835960000009800489640003a601592e8408032e3188003a801cf7ee00000000000000000000000053a016da0800000000000000000000000000000000000000000098007116e80000024201cd586000918073162a3401f9191c001d400e7bf7000000000004d0802000000000000029d00b6d040000000000000000000000000000000000000000004c00388b740000012100e6ac300048c0398b1560806f3782e000000000000000000000000000c9501931e8180000000000000000000000000000000000000000000026001c45ba00000090807356180024601cc58ab040379bc1766e80c9ef4000000000000000000000000000000000011b80f87d8000000000000000000000000000000000000003714063a68300048603888b8003b80161a3ea5203d507982cdd0193de8000000000000000000000000000000000023701f0fb0000000000000000000000000000000000000006e280c74d0600090c07111700077002c347d4a407aa0f304001a7c03263d03000521016ea8263e80a957d0003e98007c3ec00148405baa098fa02a55f40008dc07c3ec000000000000000000000000000000000000000001b8a031d34180024301c445c001dc00b0d1f52901ea83cc1000490022e86800000000000000000000000313406747a6a000000000000000000000000000000000000000000000da5016eb0b80025b011f59000091407156029200d20cb8000920045d0d00000000000000000000000062680ce8f4d4000000000000000000000000000000000000000000001b4a02dd6170004b6023eb200012280e2ac052401a4197000124008ba1aa24030cbd7000000000000000000000000053a016da0800004d080200000000000000000000000000000000000000da5016eb0b80025b011f59000091407156029200d20cb8000920045d0d00000000000000000000000062680ce8f4d4000000000000000000000000000000000000000000000001ab0023ec84b30032e3428002450161bb0a6803d3361c000490022e8680000000000028900c32f5c17b406e6791e000000c4d019d1e9a8000000000000000000000000000000000000000000000003560047d909660065c68500048a02c37614d007a66c38000920045d0d00000000051201865eb80000002f680dccf23c00189a033a3d350000000000000000000000000000000000000000000000006ac008fb212cc00cb8d0a0009140586ec29a00f4cd870000000000000000001e680c58b19660065c68560780d869c000000000000000000000000000000000000000000000000352006956470005c001e453d1300000047803b69400000023c01dd4c0000001d700be1cf00000056101c25d4000000e5407ed45c00000145c0580c34000000000000000000000000000000000d4801a5591c00170007914f44c0000011e00eda500000008f007753000000075c02f873c00000158407097500000039501fb517000000517016030d000000000000000000000000000000000352006956470005c001e453d1300000047803b69400000023c01dd4c000000198a0355b24b5a00431a98001584070975000294d1601a80b41e77ad000af1ba000000145c0580c340000000000000000000000000000000009e806b554e000f600435a8c0000013000912c800000074c02b25d0000000a5e02aa6016ae809d3530002ad00d2c8a0002a380c5ea11ab403402fb00000062e80cf8a1c0000000000000000000000000000000013d00d6aa9c001ec0086b518000002600122590000000e980564ba00000014bc0554c02d5d013a6a600055a01a5914000547018bd42356806805f6000000c5d019f14380000000000000000000000000000000027a01ad5538003d8010d6a30000004c00244b20000001d300ac97400000029780aa9805aba0274d4c000ab4034b228000a8e0317a846ad00d00bec0000018ba033e2870000000000000007ffd9680063036f726401011e6170706c69636174696f6e2f6a736f6e3b636861727365743d7574662d38004d60017b2270223a22766f7264222c2276223a312c227479223a22696e7363222c22636f6c223a2230323336303866343162323735633034313737386331353733383530366633633665336536313539646139333364333761343531373566643833313436666237222c22696964223a224e4f4445205341544f534849222c227075626c223a2231455337623370636a527a4667796969714c7278484b546e43686535364c4a485937222c226e6f6e6365223a333139362c226d696e746572223a22626331706a6c3435356c676e66796c6a6b326e76746337787970647a376b383566337270347a657937686830346e65686137326a6c6c3071646b6e796d65222c22736967223a22484e776165344e4945673275444d526d7a4d4f6442377144654e70654f35356d6c66596b474b732b6c6e594b46697337554659734844502f743256764a797a453435674a53504171387234344e594d7276696441714d413d227d68",
        "c0f2d00e1cce0b839d2e197679cac7a15152ec244338032c7767f72c1332d49a65675a92934efa5e4869b2432a3e00abfc6819367af43949c2edc693b32d23ac05"
      ],
      "is_coinbase": false,
      "sequence": 4294967293
    }
  ],
  "vout": [
    {
      "scriptpubkey": "512097eb4a7d13493f2b2a6c5e3c6205a2f58f44c461a8b24f5eefacf37ef952ffde",
      "scriptpubkey_asm": "OP_PUSHNUM_1 OP_PUSHBYTES_32 97eb4a7d13493f2b2a6c5e3c6205a2f58f44c461a8b24f5eefacf37ef952ffde",
      "scriptpubkey_type": "v1_p2tr",
      "scriptpubkey_address": "bc1pjl455lgnfyljk2nvtc7xypdz7k85f3rp4zey7hh04neha72jll0qdknyme",
      "value": 1000
    },
    {
      "scriptpubkey": "5120690fc8b7fefd11506ba7a7176eca71153a3c0390a407d6de8bb6a33aa12dcdf0",
      "scriptpubkey_asm": "OP_PUSHNUM_1 OP_PUSHBYTES_32 690fc8b7fefd11506ba7a7176eca71153a3c0390a407d6de8bb6a33aa12dcdf0",
      "scriptpubkey_type": "v1_p2tr",
      "scriptpubkey_address": "bc1pdy8u3dl7l5g4q6a85utkajn3z5arcqus5sradh5tk63n4gfdehcqryzwum",
      "value": 6729
    },
    {
      "scriptpubkey": "51200705a5767db892e98125775049b1a13dd9ecdc8aea0df413cabbee683e871012",
      "scriptpubkey_asm": "OP_PUSHNUM_1 OP_PUSHBYTES_32 0705a5767db892e98125775049b1a13dd9ecdc8aea0df413cabbee683e871012",
      "scriptpubkey_type": "v1_p2tr",
      "scriptpubkey_address": "bc1pquz62anahzfwnqf9wagynvdp8hv7ehy2agxlgy72h0hxs058zqfqk8ksyq",
      "value": 2913
    }
  ],
  "size": 3664,
  "weight": 4204,
  "fee": 11561,
  "status": {
    "confirmed": true,
    "block_height": 834464,
    "block_hash": "0000000000000000000177a0869a911a2b65c9bdcd5a8bcb02b68f305bee848e",
    "block_time": 1710308296
  },
  "hex": "0200000000010188d0281c553ffba5e1c9d24b0c5762abc935da2d23869093b2c5dbf16feca2170000000000fdffffff03e80300000000000022512097eb4a7d13493f2b2a6c5e3c6205a2f58f44c461a8b24f5eefacf37ef952ffde491a000000000000225120690fc8b7fefd11506ba7a7176eca71153a3c0390a407d6de8bb6a33aa12dcdf0610b0000000000002251200705a5767db892e98125775049b1a13dd9ecdc8aea0df413cabbee683e87101203404170d90cc59353a5998a63b5d15d193ef537a062f64981ea2f1af8332724640f4ebde23eb2f55956ecf90f8d750323d134ab86c5f43f13baefd4087286da6174fd130d20f2d00e1cce0b839d2e197679cac7a15152ec244338032c7767f72c1332d49a65ac0063036f726401010a696d6167652f6a706567004d0802ffd8ffe000104a46494600010100000100010000ffe201d84943435f50524f46494c45000101000001c800000000043000006d6e74725247422058595a2007e00001000100000000000061637370000000000000000000000000000000000000000000000000000000010000f6d6000100000000d32d0000000000000000000000000000000000000000000000000000000000000000000000000000000000000000000000000000000964657363000000f0000000247258595a00000114000000146758595a00000128000000146258595a0000013c00000014777470740000015000000014725452430000016400000028675452430000016400000028625452430000016400000028637072740000018c0000003c6d6c756300000000000000010000000c656e5553000000080000001c007300520047004258595a200000000000006fa2000038f50000039058595a2000000000000062990000b785000018da58595a2000000000000024a000000f840000b6cf58595a20000000000000f6d6000100000000d32d706172610000000000040000000266660000f2a700000d59000013d000000a5b00000000000000006d6c756300000000000000010000000c656e5553000000200000001c0047006f006f0067006c006500200049006e0063002e00200032003000310036ffdb0043000302020302020303030304030304050805050404054d08020a070706080c0a0c0c0b0a0b0b0d0e12100d0e110e0b0b1016101113141515150c0f171816141812141514ffdb00430103040405040509050509140d0b0d1414141414141414141414141414141414141414141414141414141414141414141414141414141414141414141414141414ffc00011080200020003012200021101031101ffc4001a00010003010101000000000000000000000007080906050affc40014100100000000000000000000000000000000ffc4001b01010003010101010000000000000000000006070805090204ffc40014110100000000000000000000000000000000ffda000c03010002110311003f00caa000000000000000000000000000000000000000000000000000000000000000000000000000000000000000000000000000000000000000000000000000000000000000000000000000000000000000000000000000000000000000000000000000000000000000000000000000000000000000000000000000000000000000000000000000000000000000000000000000000000000000000000000000000000000000000000000000000000000000000000000000000000000000000000000000000000000000000000000000000000000000000000000000000000000000000000000000000000000000000000000000000000000000000000000000000000000000000000000000000000000000004d080200000000000000000000000000000000000000000000000000000000000000000000000000000000000000000000000000000000000000000000000000000000000000000000000000000000000000000000000000000000000000000000000000000000000000000000000000000000000000000000000000000000000000000000000000000000000000000000000000000000000000000000000000000000000000000000000000000000000000000000000000000000000000000000000000000000000000000000000000000000000000000000000000000000000000013d00d6aa9d738047d4f80000025d010743c0000012d808fac80007cff80813500000000000000000000000000000000000000000000000000000000000002f900d4ad26000e980564ba10200cb8c62000ea0073dfb80000000000000000000014e805b6820000000000000000000000000000000000000000000002c900d06b2c0000013000912c800074c02b25d0810065c631000750039efdc000000000000000000000000a7402db41000000000000000000000000000000000000000000164806835960000009800489640003a601592e8408032e3188003a801cf7ee00000000000000000000000053a016da0800000000000000000000000000000000000000000098007116e80000024201cd586000918073162a3401f9191c001d400e7bf7000000000004d0802000000000000029d00b6d040000000000000000000000000000000000000000004c00388b740000012100e6ac300048c0398b1560806f3782e000000000000000000000000000c9501931e8180000000000000000000000000000000000000000000026001c45ba00000090807356180024601cc58ab040379bc1766e80c9ef4000000000000000000000000000000000011b80f87d8000000000000000000000000000000000000003714063a68300048603888b8003b80161a3ea5203d507982cdd0193de8000000000000000000000000000000000023701f0fb0000000000000000000000000000000000000006e280c74d0600090c07111700077002c347d4a407aa0f304001a7c03263d03000521016ea8263e80a957d0003e98007c3ec00148405baa098fa02a55f40008dc07c3ec000000000000000000000000000000000000000001b8a031d34180024301c445c001dc00b0d1f52901ea83cc1000490022e86800000000000000000000000313406747a6a000000000000000000000000000000000000000000000da5016eb0b80025b011f59000091407156029200d20cb8000920045d0d00000000000000000000000062680ce8f4d4000000000000000000000000000000000000000000001b4a02dd6170004b6023eb200012280e2ac052401a4197000124008ba1aa24030cbd7000000000000000000000000053a016da0800004d080200000000000000000000000000000000000000da5016eb0b80025b011f59000091407156029200d20cb8000920045d0d00000000000000000000000062680ce8f4d4000000000000000000000000000000000000000000000001ab0023ec84b30032e3428002450161bb0a6803d3361c000490022e8680000000000028900c32f5c17b406e6791e000000c4d019d1e9a8000000000000000000000000000000000000000000000003560047d909660065c68500048a02c37614d007a66c38000920045d0d00000000051201865eb80000002f680dccf23c00189a033a3d350000000000000000000000000000000000000000000000006ac008fb212cc00cb8d0a0009140586ec29a00f4cd870000000000000000001e680c58b19660065c68560780d869c000000000000000000000000000000000000000000000000352006956470005c001e453d1300000047803b69400000023c01dd4c0000001d700be1cf00000056101c25d4000000e5407ed45c00000145c0580c34000000000000000000000000000000000d4801a5591c00170007914f44c0000011e00eda500000008f007753000000075c02f873c00000158407097500000039501fb517000000517016030d000000000000000000000000000000000352006956470005c001e453d1300000047803b69400000023c01dd4c000000198a0355b24b5a00431a98001584070975000294d1601a80b41e77ad000af1ba000000145c0580c340000000000000000000000000000000009e806b554e000f600435a8c0000013000912c800000074c02b25d0000000a5e02aa6016ae809d3530002ad00d2c8a0002a380c5ea11ab403402fb00000062e80cf8a1c0000000000000000000000000000000013d00d6aa9c001ec0086b518000002600122590000000e980564ba00000014bc0554c02d5d013a6a600055a01a5914000547018bd42356806805f6000000c5d019f14380000000000000000000000000000000027a01ad5538003d8010d6a30000004c00244b20000001d300ac97400000029780aa9805aba0274d4c000ab4034b228000a8e0317a846ad00d00bec0000018ba033e2870000000000000007ffd9680063036f726401011e6170706c69636174696f6e2f6a736f6e3b636861727365743d7574662d38004d60017b2270223a22766f7264222c2276223a312c227479223a22696e7363222c22636f6c223a2230323336303866343162323735633034313737386331353733383530366633633665336536313539646139333364333761343531373566643833313436666237222c22696964223a224e4f4445205341544f534849222c227075626c223a2231455337623370636a527a4667796969714c7278484b546e43686535364c4a485937222c226e6f6e6365223a333139362c226d696e746572223a22626331706a6c3435356c676e66796c6a6b326e76746337787970647a376b383566337270347a657937686830346e65686137326a6c6c3071646b6e796d65222c22736967223a22484e776165344e4945673275444d526d7a4d4f6442377144654e70654f35356d6c66596b474b732b6c6e594b46697337554659734844502f743256764a797a453435674a53504171387234344e594d7276696441714d413d227d6841c0f2d00e1cce0b839d2e197679cac7a15152ec244338032c7767f72c1332d49a65675a92934efa5e4869b2432a3e00abfc6819367af43949c2edc693b32d23ac0500000000"
}