{
  "txid": "e00e93dbb808e4912e4fd9c9227f41fcc7ec70e684f30f8fe9a9a1d36c8b0733",
  "version": 1,
  "locktime": 0,
  "vin": [
    {
      "txid": "2e399c03885e0a1e614d6426b1605c19e996ee613211d5a50442e92630af6484",
      "vout": 1,
      "prevout": {
        "scriptpubkey": "76a9146fa01464cdbc0cbd2dfdf533017930bc2401349188ac",
        "scriptpubkey_asm": "OP_DUP OP_HASH160 OP_PUSHBYTES_20 6fa01464cdbc0cbd2dfdf533017930bc24013491 OP_EQUALVERIFY OP_CHECKSIG",
        "scriptpubkey_type": "p2pkh",
        "scriptpubkey_address": "1BBDmpk7vWkn9kotJUWK48B3tgrc7Dtbxw",
        "value": 253079
      },
      "scriptsig": "4830450221008c5e0322a130bab38a5e92714867a7d2e847e6a92208ace825426e3b306bdd050220787504d10a9413ee9dd991af8bda5525785d2c94828f72a024da384f0dab2fba0121037b34495b4bc0928b025acb194340d10fc81401dfe81f9b327dbe1507e74644b0",
      "scriptsig_asm": "OP_PUSHBYTES_72 30450221008c5e0322a130bab38a5e92714867a7d2e847e6a92208ace825426e3b306bdd050220787504d10a9413ee9dd991af8bda5525785d2c94828f72a024da384f0dab2fba01 OP_PUSHBYTES_33 037b34495b4bc0928b025acb194340d10fc81401dfe81f9b327dbe1507e74644b0",
      "is_coinbase": false,
      "sequence": 4294967295
    }
  ],
  "vout": [
    {
      "scriptpubkey": "76a914c224901e8858137336989f68f7c0db4e8857522f88ac",
      "scriptpubkey_asm": "OP_DUP OP_HASH160 OP_PUSHBYTES_20 c224901e8858137336989f68f7c0db4e8857522f OP_EQUALVERIFY OP_CHECKSIG",
      "scriptpubkey_type": "p2pkh",
      "scriptpubkey_address": "1JhXtexmSM5ER5H4Th38JTNZ4Lyt98xoyc",
      "value": 249239
    }
  ],
  "size": 192,
  "weight": 768,
  "fee": 3840,
  "status": {
    "confirmed": true,
    "block_height": 834638,
    "block_hash": "000000000000000000025f742c626208ac87e0b7d15054abb4a19ca2d735a54e",
    "block_time": 1710405325
  },
  "hex": "01000000018464af3026e94204a5d5113261ee96e9195c60b126644d611e0a5e88039c392e010000006b4830450221008c5e0322a130bab38a5e92714867a7d2e847e6a92208ace825426e3b306bdd050220787504d10a9413ee9dd991af8bda5525785d2c94828f72a024da384f0dab2fba0121037b34495b4bc0928b025acb194340d10fc81401dfe81f9b327dbe1507e74644b0ffffffff0197cd0300000000001976a914c224901e8858137336989f68f7c0db4e8857522f88ac00000000"
}