{
  "txid": "e00e397f1f27d1cf78a68252e1c4c8e491cfcb9c6d31dc40ab15a0aacaa7b12b",
  "version": 2,
  "locktime": 0,
  "vin": [
    {
      "txid": "4af214321b0237fdf4eccdcf17e33e316bdc199961794d6d7e531769021b56ee",
      "vout": 0,
      "prevout": {
        "scriptpubkey": "5120777145dbbbe2f1db3930880de6b44c00cccdd156b5b118e227b7942f657d0f16",
        "scriptpubkey_asm": "OP_PUSHNUM_1 OP_PUSHBYTES_32 777145dbbbe2f1db3930880de6b44c00cccdd156b5b118e227b7942f657d0f16",
        "scriptpubkey_type": "v1_p2tr",
        "scriptpubkey_address": "bc1pwac5tkamutcakwfs3qx7ddzvqrxvm52kkkc33c38k72z7etaputqa78d0m",
        "value": 3696
      },
      "scriptsig": "",
      "scriptsig_asm": "",
      "witness": [
        "b5b66aadaa61f62ccf5846cdf11846e9d82e5aa522aeda8e6d7cd006eadebfd363c543a145432c4a7d7d1478ff372a721b2d6f585466f1b47e501cfbb3eaa7e9",
        "2026ef6377f066f83f95c8782e224448c1f28adaed7f95af92a9ee9d2aa467e68eac0063036f72640101106170706c69636174696f6e2f6a736f6e00387b2270223a226272632d3230222c226f70223a227472616e73666572222c227469636b223a22314f6e38222c22616d74223a22313830227d68",
        "c126ef6377f066f83f95c8782e224448c1f28adaed7f95af92a9ee9d2aa467e68e"
      ],
      "is_coinbase": false,
      "sequence": 4294967293
    }
  ],
  "vout": [
    {
      "scriptpubkey": "51204b3def6b7bdf9758a317f5eafc03b3a744cc6bb7dad731af7edbfbb555c2be75",
      "scriptpubkey_asm": "OP_PUSHNUM_1 OP_PUSHBYTES_32 4b3def6b7bdf9758a317f5eafc03b3a744cc6bb7dad731af7edbfbb555c2be75",
      "scriptpubkey_type": "v1_p2tr",
      "scriptpubkey_address": "bc1pfv7776mmm7t43gch7h40cqan5azvc6ahmttnrtm7m0am24wzhe6smdt3m6",
      "value": 546
    }
  ],
  "size": 315,
  "weight": 597,
  "fee": 3150,
  "status": {
    "confirmed": true,
    "block_height": 834460,
    "block_hash": "00000000000000000000484a79b643b2524bbce82e5d8a442013fa5b8905ed98",
    "block_time": 1710307468
  },
  "hex": "02000000000101ee561b026917537e6d4d79619919dc6b313ee317cfcdecf4fd37021b3214f24a0000000000fdffffff0122020000000000002251204b3def6b7bdf9758a317f5eafc03b3a744cc6bb7dad731af7edbfbb555c2be750340b5b66aadaa61f62ccf5846cdf11846e9d82e5aa522aeda8e6d7cd006eadebfd363c543a145432c4a7d7d1478ff372a721b2d6f585466f1b47e501cfbb3eaa7e9762026ef6377f066f83f95c8782e224448c1f28adaed7f95af92a9ee9d2aa467e68eac0063036f72640101106170706c69636174696f6e2f6a736f6e00387b2270223a226272632d3230222c226f70223a227472616e73666572222c227469636b223a22314f6e38222c22616d74223a22313830227d6821c126ef6377f066f83f95c8782e224448c1f28adaed7f95af92a9ee9d2aa467e68e00000000"
}