{
  "txid": "e01bbd0b324d1bc364e3061a4d5c292cd5dbf73cd2f39907ad8e000706186d10",
  "version": 2,
  "locktime": 0,
  "vin": [
    {
      "txid": "4f9eff31d297cff89346803266dd264351d3104c1c7aa3b34803228445baa63e",
      "vout": 2,
      "prevout": {
        "scriptpubkey": "0014a02ef9491b8cdd4154fc8639035f6c7e318339c6",
        "scriptpubkey_asm": "OP_0 OP_PUSHBYTES_20 a02ef9491b8cdd4154fc8639035f6c7e318339c6",
        "scriptpubkey_type": "v0_p2wpkh",
        "scriptpubkey_address": "bc1q5qh0jjgm3nw5z48uscusxhmv0cccxwwxfqun6p",
        "value": 311470
      },
      "scriptsig": "",
      "scriptsig_asm": "",
      "witness": [
        "30440220433f88fb10bce5608e7bbf3bcc3d4c917dbbd62096646b9adfcd34602d777b1302203ca8b1c0ad443358c6480e61036bf2568b7012cd259825ad51d4a2c0558c42ce01",
        "027d30d8410b1aa7583d5c898dbd12fd2c41d8147ae41eb78989d72e98a80340e4"
      ],
      "is_coinbase": false,
      "sequence": 4294967293
    }
  ],
  "vout": [
    {
      "scriptpubkey": "0014a02ef9491b8cdd4154fc8639035f6c7e318339c6",
      "scriptpubkey_asm": "OP_0 OP_PUSHBYTES_20 a02ef9491b8cdd4154fc8639035f6c7e318339c6",
      "scriptpubkey_type": "v0_p2wpkh",
      "scriptpubkey_address": "bc1q5qh0jjgm3nw5z48uscusxhmv0cccxwwxfqun6p",
      "value": 256878
    },
    {
      "scriptpubkey": "001473961c487e02323f588360e7411252008d050b48",
      "scriptpubkey_asm": "OP_0 OP_PUSHBYTES_20 73961c487e02323f588360e7411252008d050b48",
      "scriptpubkey_type": "v0_p2wpkh",
      "scriptpubkey_address": "bc1qwwtpcjr7qger7kyrvrn5zyjjqzxs2z6grx0whr",
      "value": 52503
    }
  ],
  "size": 222,
  "weight": 561,
  "fee": 2089,
  "status": {
    "confirmed": true,
    "block_height": 834460,
    "block_hash": "00000000000000000000484a79b643b2524bbce82e5d8a442013fa5b8905ed98",
    "block_time": 1710307468
  },
  "hex": "020000000001013ea6ba4584220348b3a37a1c4c10d3514326dd6632804693f8cf97d231ff9e4f0200000000fdffffff026eeb030000000000160014a02ef9491b8cdd4154fc8639035f6c7e318339c617cd00000000000016001473961c487e02323f588360e7411252008d050b48024730440220433f88fb10bce5608e7bbf3bcc3d4c917dbbd62096646b9adfcd34602d777b1302203ca8b1c0ad443358c6480e61036bf2568b7012cd259825ad51d4a2c0558c42ce0121027d30d8410b1aa7583d5c898dbd12fd2c41d8147ae41eb78989d72e98a80340e400000000"
}