{
  "txid": "e041111696696d07e5fb4b6a439f43c33601426ac65700515f29344299f18fca",
  "version": 2,
  "locktime": 0,
  "vin": [
    {
      "txid": "32df74ea51f07f46cadda79cbfe8f332165c7ec4fc3e91afc2c50fcd777dc7b8",
      "vout": 2,
      "prevout": {
        "scriptpubkey": "0014f60834ef165253c571b11ce9fa74e46692fc5ec1",
        "scriptpubkey_asm": "OP_0 OP_PUSHBYTES_20 f60834ef165253c571b11ce9fa74e46692fc5ec1",
        "scriptpubkey_type": "v0_p2wpkh",
        "scriptpubkey_address": "bc1q7cyrfmck2ffu2ud3rn5l5a8yv6f0chkp0zpemf",
        "value": 336965063
      },
      "scriptsig": "",
      "scriptsig_asm": "",
      "witness": [
        "304402204f3ac25a10be9f99c0686d2a051696e62646ba0f9b5af60e54312c9be25228ab02204ad27fcc972e47b5c791c86b5efee6a584671ac5ae52a9eb239865b447a8a22201",
        "026e5628506ecd33242e5ceb5fdafe4d3066b5c0f159b3c05a621ef65f177ea286"
      ],
      "is_coinbase": false,
      "sequence": 4294967293
    }
  ],
  "vout": [
    {
      "scriptpubkey": "a91447009785967ff81d1f6c17f5e03857fc12fd408887",
      "scriptpubkey_asm": "OP_HASH160 OP_PUSHBYTES_20 47009785967ff81d1f6c17f5e03857fc12fd4088 OP_EQUAL",
      "scriptpubkey_type": "p2sh",
      "scriptpubkey_address": "38AScHgT46Kq6kmorSFF2aGiixv1YriL9j",
      "value": 1485860
    },
    {
      "scriptpubkey": "0014572b948c002713ba59b0b86e8ae0b55cb1c472f5",
      "scriptpubkey_asm": "OP_0 OP_PUSHBYTES_20 572b948c002713ba59b0b86e8ae0b55cb1c472f5",
      "scriptpubkey_type": "v0_p2wpkh",
      "scriptpubkey_address": "bc1q2u4efrqqyufm5kdshphg4c94tjcuguh4xm344v",
      "value": 531830
    },
    {
      "scriptpubkey": "0014ef59e78e8894bc34867ab4073c481720e6cf0ee9",
      "scriptpubkey_asm": "OP_0 OP_PUSHBYTES_20 ef59e78e8894bc34867ab4073c481720e6cf0ee9",
      "scriptpubkey_type": "v0_p2wpkh",
      "scriptpubkey_address": "bc1qaav70r5gjj7rfpn6ksrncjqhyrnv7rhfwa8d6a",
      "value": 75540
    },
    {
      "scriptpubkey": "0014110d793f02f60b2c9992fb83222c8b89279315bc",
      "scriptpubkey_asm": "OP_0 OP_PUSHBYTES_20 110d793f02f60b2c9992fb83222c8b89279315bc",
      "scriptpubkey_type": "v0_p2wpkh",
      "scriptpubkey_address": "bc1qzyxhj0cz7c9jexvjlwpjytyt3ynex9duv8fkx7",
      "value": 161340
    },
    {
      "scriptpubkey": "0014f60834ef165253c571b11ce9fa74e46692fc5ec1",
      "scriptpubkey_asm": "OP_0 OP_PUSHBYTES_20 f60834ef165253c571b11ce9fa74e46692fc5ec1",
      "scriptpubkey_type": "v0_p2wpkh",
      "scriptpubkey_address": "bc1q7cyrfmck2ffu2ud3rn5l5a8yv6f0chkp0zpemf",
      "value": 334704781
    }
  ],
  "size": 316,
  "weight": 937,
  "fee": 5712,
  "status": {
    "confirmed": true,
    "block_height": 834552,
    "block_hash": "00000000000000000001dd0468a70c94f619251d286585cff57aeb4bd9ede330",
    "block_time": 1710355598
  },
  "hex": "02000000000101b8c77d77cd0fc5c2af913efcc47e5c1632f3e8bf9ca7ddca467ff051ea74df320200000000fdffffff0524ac16000000000017a91447009785967ff81d1f6c17f5e03857fc12fd408887761d080000000000160014572b948c002713ba59b0b86e8ae0b55cb1c472f51427010000000000160014ef59e78e8894bc34867ab4073c481720e6cf0ee93c76020000000000160014110d793f02f60b2c9992fb83222c8b89279315bc8d30f31300000000160014f60834ef165253c571b11ce9fa74e46692fc5ec10247304402204f3ac25a10be9f99c0686d2a051696e62646ba0f9b5af60e54312c9be25228ab02204ad27fcc972e47b5c791c86b5efee6a584671ac5ae52a9eb239865b447a8a2220121026e5628506ecd33242e5ceb5fdafe4d3066b5c0f159b3c05a621ef65f177ea28600000000"
}