{
  "txid": "e042f94c7e39181965d64d12f45c978e190d27f715e241e66a639b3e841d82a2",
  "version": 2,
  "locktime": 0,
  "vin": [
    {
      "txid": "33198a5cbe2a53fc30099ab53009144888cef479020e7acbc065183b03c26d7b",
      "vout": 4,
      "prevout": {
        "scriptpubkey": "512046ca3a59524084bd283bb0fa722029a6d3ed4dd3330cdf1e9a916c848ba47d26",
        "scriptpubkey_asm": "OP_PUSHNUM_1 OP_PUSHBYTES_32 46ca3a59524084bd283bb0fa722029a6d3ed4dd3330cdf1e9a916c848ba47d26",
        "scriptpubkey_type": "v1_p2tr",
        "scriptpubkey_address": "bc1pgm9r5k2jgzzt62pmkra8ygpf5mf76nwnxvxd7856j9kgfzay05nqk2lm0n",
        "value": 2658
      },
      "scriptsig": "",
      "scriptsig_asm": "",
      "witness": [
        "637502dbfd47403190d41912f020591925ca4db200c1cecbb8eb795504386a3dc27c4235a4a59f471b940f33fc4e2db0e59b24d34f870385a74cf1898e4983da",
        "20ade1f60c122bfe069a44115017b4f3f8ff22af98f093e65c4dfef16053aeb330ac0063036f726401011e6170706c69636174696f6e2f6a736f6e3b636861727365743d7574662d38004cbf7b2270223a22706f772d3230222c226f70223a226d696e74222c227469636b223a2250455045222c22616d74223a2231303030222c22736f6c7574696f6e223a22504550453a626331717832636c7935673578376b356a6b7376396d61346332753661646c7a78657470616e387071733a303030303030303030303030303030303030303139393431613561653132383937363539383134343239323533333030353762306461393666336465613163353a3339333334373037343534227d68",
        "c1da2c9a1920efdfbecd176e4adbb0ca1150e62509fd8a3a19d8331b0c89a8a97b"
      ],
      "is_coinbase": false,
      "sequence": 4294967295
    }
  ],
  "vout": [
    {
      "scriptpubkey": "001432b1f2511437ad495a0c2efb5c2b9aeb7e236561",
      "scriptpubkey_asm": "OP_0 OP_PUSHBYTES_20 32b1f2511437ad495a0c2efb5c2b9aeb7e236561",
      "scriptpubkey_type": "v0_p2wpkh",
      "scriptpubkey_address": "bc1qx2cly5g5x7k5jksv9ma4c2u6adlzxetpan8pqs",
      "value": 546
    }
  ],
  "size": 455,
  "weight": 701,
  "fee": 2112,
  "status": {
    "confirmed": true,
    "block_height": 834460,
    "block_hash": "00000000000000000000484a79b643b2524bbce82e5d8a442013fa5b8905ed98",
    "block_time": 1710307468
  },
  "hex": "020000000001017b6dc2033b1865c0cb7a0e0279f4ce8848140930b59a0930fc532abe5c8a19330400000000ffffffff01220200000000000016001432b1f2511437ad495a0c2efb5c2b9aeb7e2365610340637502dbfd47403190d41912f020591925ca4db200c1cecbb8eb795504386a3dc27c4235a4a59f471b940f33fc4e2db0e59b24d34f870385a74cf1898e4983dafd0c0120ade1f60c122bfe069a44115017b4f3f8ff22af98f093e65c4dfef16053aeb330ac0063036f726401011e6170706c69636174696f6e2f6a736f6e3b636861727365743d7574662d38004cbf7b2270223a22706f772d3230222c226f70223a226d696e74222c227469636b223a2250455045222c22616d74223a2231303030222c22736f6c7574696f6e223a22504550453a626331717832636c7935673578376b356a6b7376396d61346332753661646c7a78657470616e387071733a303030303030303030303030303030303030303139393431613561653132383937363539383134343239323533333030353762306461393666336465613163353a3339333334373037343534227d6821c1da2c9a1920efdfbecd176e4adbb0ca1150e62509fd8a3a19d8331b0c89a8a97b00000000"
}