{
  "txid": "e054880c270db5c535f00dbe8c19a7a3303e1a5e4f2e16a00f90bb46b6d5c80a",
  "version": 1,
  "locktime": 0,
  "vin": [
    {
      "txid": "3251766b9047a04a1a101a40a9f3a55a044e41ba444cde37ac797b9f1b4821f9",
      "vout": 165,
      "prevout": {
        "scriptpubkey": "76a914df3cb071fe377a997f38eea407489399e300598a88ac",
        "scriptpubkey_asm": "OP_DUP OP_HASH160 OP_PUSHBYTES_20 df3cb071fe377a997f38eea407489399e300598a OP_EQUALVERIFY OP_CHECKSIG",
        "scriptpubkey_type": "p2pkh",
        "scriptpubkey_address": "1MMNPYM7YWb3gS7te8vZnhYhV4zMMiX4Y6",
        "value": 151828
      },
      "scriptsig": "47304402200b9983a96a98e93da9f95f0afb333fa30396d417bc7cb671d3e3f949e0f1baa3022004b8afe8906b7f9c80587e7feaf9aa59cee6bacb0b9cd58d2fb99d82a8d57c0a0121037b08451b81624cc2cab18cbb4a71b795e8ef0f987076aaa5d3850af289da5397",
      "scriptsig_asm": "OP_PUSHBYTES_71 304402200b9983a96a98e93da9f95f0afb333fa30396d417bc7cb671d3e3f949e0f1baa3022004b8afe8906b7f9c80587e7feaf9aa59cee6bacb0b9cd58d2fb99d82a8d57c0a01 OP_PUSHBYTES_33 037b08451b81624cc2cab18cbb4a71b795e8ef0f987076aaa5d3850af289da5397",
      "is_coinbase": false,
      "sequence": 4294967295
    }
  ],
  "vout": [
    {
      "scriptpubkey": "76a9146ed3969d1eb6ff5111554ab600c5c6315366e7fb88ac",
      "scriptpubkey_asm": "OP_DUP OP_HASH160 OP_PUSHBYTES_20 6ed3969d1eb6ff5111554ab600c5c6315366e7fb OP_EQUALVERIFY OP_CHECKSIG",
      "scriptpubkey_type": "p2pkh",
      "scriptpubkey_address": "1B6zoWxpNE2bkKuDBFSq9j1JbydagQ3cpL",
      "value": 148564
    }
  ],
  "size": 191,
  "weight": 764,
  "fee": 3264,
  "status": {
    "confirmed": true,
    "block_height": 834638,
    "block_hash": "000000000000000000025f742c626208ac87e0b7d15054abb4a19ca2d735a54e",
    "block_time": 1710405325
  },
  "hex": "0100000001f921481b9f7b79ac37de4c44ba414e045aa5f3a9401a101a4aa047906b765132a50000006a47304402200b9983a96a98e93da9f95f0afb333fa30396d417bc7cb671d3e3f949e0f1baa3022004b8afe8906b7f9c80587e7feaf9aa59cee6bacb0b9cd58d2fb99d82a8d57c0a0121037b08451b81624cc2cab18cbb4a71b795e8ef0f987076aaa5d3850af289da5397ffffffff0154440200000000001976a9146ed3969d1eb6ff5111554ab600c5c6315366e7fb88ac00000000"
}