{
  "txid": "e059c27527258a5dd393f7b6f90202a87ed5e425dcb6f2e3281c9230497602c5",
  "version": 2,
  "locktime": 0,
  "vin": [
    {
      "txid": "b13bb5512a4904c28a6b7957b88edf574e8cb23551fc1dcfe22d6b239df42cf4",
      "vout": 46,
      "prevout": {
        "scriptpubkey": "5120ca41a5f0a5a286935f54fc9ba1fe87c4b2a3ac488ba0952dcb11ebbb45560f6a",
        "scriptpubkey_asm": "OP_PUSHNUM_1 OP_PUSHBYTES_32 ca41a5f0a5a286935f54fc9ba1fe87c4b2a3ac488ba0952dcb11ebbb45560f6a",
        "scriptpubkey_type": "v1_p2tr",
        "scriptpubkey_address": "bc1pefq6tu9952rfxh65ljd6rl58cje28tzg3wsf2twtz84mk32kpa4qlc386z",
        "value": 2575
      },
      "scriptsig": "",
      "scriptsig_asm": "",
      "witness": [
        "4622b013ad89802503cf9c2c4a67928a5df4a49594828d04f546e3d0c7c197589320ff431e8d995d0f2fd470afa5d824570c4525bb2fc89bdffdec362b4b705d",
        "20d2d5141e5f47f04936ab46ed57a332a620dda58a41fe94603fb55a3ccaead8b9ac0063036f726401010a746578742f706c61696e00367b2270223a226272632d3230222c226f70223a226d696e74222c227469636b223a2261616161222c22616d74223a223130303030227d68",
        "c0d2d5141e5f47f04936ab46ed57a332a620dda58a41fe94603fb55a3ccaead8b9"
      ],
      "is_coinbase": false,
      "sequence": 4261412863
    }
  ],
  "vout": [
    {
      "scriptpubkey": "0014ce0b5aa0dac72397a8aa5a85d90a2cfb46f0f630",
      "scriptpubkey_asm": "OP_0 OP_PUSHBYTES_20 ce0b5aa0dac72397a8aa5a85d90a2cfb46f0f630",
      "scriptpubkey_type": "v0_p2wpkh",
      "scriptpubkey_address": "bc1qec944gx6cu3e0292t2zajz3vldr0pa3sh356d9",
      "value": 546
    }
  ],
  "size": 295,
  "weight": 541,
  "fee": 2029,
  "status": {
    "confirmed": true,
    "block_height": 834464,
    "block_hash": "0000000000000000000177a0869a911a2b65c9bdcd5a8bcb02b68f305bee848e",
    "block_time": 1710308296
  },
  "hex": "02000000000101f42cf49d236b2de2cf1dfc5135b28c4e57df8eb857796b8ac204492a51b53bb12e00000000fffffffd012202000000000000160014ce0b5aa0dac72397a8aa5a85d90a2cfb46f0f63003404622b013ad89802503cf9c2c4a67928a5df4a49594828d04f546e3d0c7c197589320ff431e8d995d0f2fd470afa5d824570c4525bb2fc89bdffdec362b4b705d6e20d2d5141e5f47f04936ab46ed57a332a620dda58a41fe94603fb55a3ccaead8b9ac0063036f726401010a746578742f706c61696e00367b2270223a226272632d3230222c226f70223a226d696e74222c227469636b223a2261616161222c22616d74223a223130303030227d6821c0d2d5141e5f47f04936ab46ed57a332a620dda58a41fe94603fb55a3ccaead8b900000000"
}