{
  "txid": "e061b6323b310936e8406df50677edffc087f3252504ade98e299bc42d55db8d",
  "version": 2,
  "locktime": 0,
  "vin": [
    {
      "txid": "38fcacdd4490aca6698b602f6212ebf7f4a2a68ce3c4684c041192ed5a9d24da",
      "vout": 0,
      "prevout": {
        "scriptpubkey": "0014444eaa179efdda494205f47e6048309e6fcc2266",
        "scriptpubkey_asm": "OP_0 OP_PUSHBYTES_20 444eaa179efdda494205f47e6048309e6fcc2266",
        "scriptpubkey_type": "v0_p2wpkh",
        "scriptpubkey_address": "bc1qg38259u7lhdyjss973lxqjpsnehucgnx5lcde0",
        "value": 57281
      },
      "scriptsig": "",
      "scriptsig_asm": "",
      "witness": [
        "3044022008d430e1e6fa7607ee7549881d55a5f56dd13d619ed74a32ce94c0559de4d44b02206461f03e63c0958f9648914fcbfe84478f6a8aa6b6d275d08e967331c779403a01",
        "03b5461364c03e35bf9897992585d57c5956107a424524bce4c09cd452bac766e0"
      ],
      "is_coinbase": false,
      "sequence": 4294967293
    }
  ],
  "vout": [
    {
      "scriptpubkey": "0014444eaa179efdda494205f47e6048309e6fcc2266",
      "scriptpubkey_asm": "OP_0 OP_PUSHBYTES_20 444eaa179efdda494205f47e6048309e6fcc2266",
      "scriptpubkey_type": "v0_p2wpkh",
      "scriptpubkey_address": "bc1qg38259u7lhdyjss973lxqjpsnehucgnx5lcde0",
      "value": 31484
    },
    {
      "scriptpubkey": "00147629e58339291d3fa01a7cae8b72feb30f3b653e",
      "scriptpubkey_asm": "OP_0 OP_PUSHBYTES_20 7629e58339291d3fa01a7cae8b72feb30f3b653e",
      "scriptpubkey_type": "v0_p2wpkh",
      "scriptpubkey_address": "bc1qwc57tqee9ywnlgq60jhgkuh7kv8nkef7gj9sfz",
      "value": 24267
    }
  ],
  "size": 222,
  "weight": 561,
  "fee": 1530,
  "status": {
    "confirmed": true,
    "block_height": 834464,
    "block_hash": "0000000000000000000177a0869a911a2b65c9bdcd5a8bcb02b68f305bee848e",
    "block_time": 1710308296
  },
  "hex": "02000000000101da249d5aed9211044c68c4e38ca6a2f4f7eb12622f608b69a6ac9044ddacfc380000000000fdffffff02fc7a000000000000160014444eaa179efdda494205f47e6048309e6fcc2266cb5e0000000000001600147629e58339291d3fa01a7cae8b72feb30f3b653e02473044022008d430e1e6fa7607ee7549881d55a5f56dd13d619ed74a32ce94c0559de4d44b02206461f03e63c0958f9648914fcbfe84478f6a8aa6b6d275d08e967331c779403a012103b5461364c03e35bf9897992585d57c5956107a424524bce4c09cd452bac766e000000000"
}