{
  "txid": "e0715c04f235f7a349ac4dbd0c95ede273d3300994c2f6ba7a390bf6605f32fd",
  "version": 1,
  "locktime": 0,
  "vin": [
    {
      "txid": "888888888ebea6a428f0bfc186b2a851d20d21ac62c0ea01375eb3d760d25669",
      "vout": 0,
      "prevout": {
        "scriptpubkey": "5120635415d5f9adb5f05a34ee6c4db4eeb33939de5505a627e9d480bdd2f554ff9b",
        "scriptpubkey_asm": "OP_PUSHNUM_1 OP_PUSHBYTES_32 635415d5f9adb5f05a34ee6c4db4eeb33939de5505a627e9d480bdd2f554ff9b",
        "scriptpubkey_type": "v1_p2tr",
        "scriptpubkey_address": "bc1pvd2pt40e4k6lqk35aekymd8wkvunnhj4qknz06w5sz7a9a25l7ds6vdxr6",
        "value": 11627
      },
      "scriptsig": "",
      "scriptsig_asm": "",
      "witness": [
        "b8b9c3841608ea9da86cdf04faa4ed9b3de51cbb43f89c8069bbf459593f9880bd0c2a51837c5ad17b2c16b9307de9dca2539d574f813637648dab10a6269653",
        "2013a939ea1940d8c5201bfe1926963ae16aa1fbaefc90a6b00388399ce0b4657cac00630461746f6d03646d7446a16461726773a46474696d651a65ef0f3c656e6f6e63651a0001001268626974776f726b636b3838383838383838382e376b6d696e745f7469636b657268696e66696e69747968",
        "c113a939ea1940d8c5201bfe1926963ae16aa1fbaefc90a6b00388399ce0b4657c"
      ],
      "is_coinbase": false,
      "sequence": 4294967295
    }
  ],
  "vout": [
    {
      "scriptpubkey": "51205a263ceb749a9db19b79bdaab5c1862ca038177143914ee1a994d2591cdf79a7",
      "scriptpubkey_asm": "OP_PUSHNUM_1 OP_PUSHBYTES_32 5a263ceb749a9db19b79bdaab5c1862ca038177143914ee1a994d2591cdf79a7",
      "scriptpubkey_type": "v1_p2tr",
      "scriptpubkey_address": "bc1ptgnre6m5n2wmrxmehk4ttsvx9jsrs9m3gwg5acdfjnf9j8xl0xnsmagkgl",
      "value": 9999
    }
  ],
  "size": 314,
  "weight": 596,
  "fee": 1628,
  "status": {
    "confirmed": true,
    "block_height": 834464,
    "block_hash": "0000000000000000000177a0869a911a2b65c9bdcd5a8bcb02b68f305bee848e",
    "block_time": 1710308296
  },
  "hex": "010000000001016956d260d7b35e3701eac062ac210dd251a8b286c1bff028a4a6be8e888888880000000000ffffffff010f270000000000002251205a263ceb749a9db19b79bdaab5c1862ca038177143914ee1a994d2591cdf79a70340b8b9c3841608ea9da86cdf04faa4ed9b3de51cbb43f89c8069bbf459593f9880bd0c2a51837c5ad17b2c16b9307de9dca2539d574f813637648dab10a6269653752013a939ea1940d8c5201bfe1926963ae16aa1fbaefc90a6b00388399ce0b4657cac00630461746f6d03646d7446a16461726773a46474696d651a65ef0f3c656e6f6e63651a0001001268626974776f726b636b3838383838383838382e376b6d696e745f7469636b657268696e66696e6974796821c113a939ea1940d8c5201bfe1926963ae16aa1fbaefc90a6b00388399ce0b4657c00000000"
}