{
  "txid": "e072d1dc0f1806d2149fd9e567e4ba6e0408b76e62e46b38b3543bdc3880c438",
  "version": 2,
  "locktime": 0,
  "vin": [
    {
      "txid": "987fa49fa80a1c9c971bd1eddc5fd425e0fcbce83adb9185ea3f610811b7d947",
      "vout": 0,
      "prevout": {
        "scriptpubkey": "512030f3bba72b10b9fbc5cd94cd12e6ca5d889471534e14e4b0c1b6257163791735",
        "scriptpubkey_asm": "OP_PUSHNUM_1 OP_PUSHBYTES_32 30f3bba72b10b9fbc5cd94cd12e6ca5d889471534e14e4b0c1b6257163791735",
        "scriptpubkey_type": "v1_p2tr",
        "scriptpubkey_address": "bc1pxremhfetzzulh3wdjnx39ek2tkyfgu2nfc2wfvxpkcjhzcmezu6sewkj63",
        "value": 4000
      },
      "scriptsig": "",
      "scriptsig_asm": "",
      "witness": [
        "4088b67d31aa88c942e17dd5121fd7c728c4e386fa481f277b1941cc6e10f7dd7ebe460b08383a6cf581d5d39fbca39ddc779a94ebadfd04dbc18ece77c510cf",
        "201ca6539a5fafe1b3d21d2dd2d2aecd1f963dc93796e6314c8615ae9fb4c681adac0063036f7264010118746578742f706c61696e3b636861727365743d7574662d3800367b2270223a226272632d3230222c226f70223a227472616e73666572222c227469636b223a22636f7773222c22616d74223a2231227d68",
        "c04928abf6d62c4a6705bccb21b9885cb0f84c4d2bfd676c8ac7265fd3ceb41677"
      ],
      "is_coinbase": false,
      "sequence": 4294967293
    }
  ],
  "vout": [
    {
      "scriptpubkey": "512047890c43e02ec01fe874fa5d8967bbfc8d893c5990d0e0774bca1dac982b8b80",
      "scriptpubkey_asm": "OP_PUSHNUM_1 OP_PUSHBYTES_32 47890c43e02ec01fe874fa5d8967bbfc8d893c5990d0e0774bca1dac982b8b80",
      "scriptpubkey_type": "v1_p2tr",
      "scriptpubkey_address": "bc1pg7yscslq9mqpl6r5lfwcjeamljxcj0zejrgwqa6tegw6expt3wqqjvw989",
      "value": 330
    },
    {
      "scriptpubkey": "00146752634c395ce7f8ffa1929d24db68d6bc21ee89",
      "scriptpubkey_asm": "OP_0 OP_PUSHBYTES_20 6752634c395ce7f8ffa1929d24db68d6bc21ee89",
      "scriptpubkey_type": "v0_p2wpkh",
      "scriptpubkey_address": "bc1qvafxxnpetnnl3lapj2wjfkmg667zrm5fp74maa",
      "value": 1486
    }
  ],
  "size": 352,
  "weight": 727,
  "fee": 2184,
  "status": {
    "confirmed": true,
    "block_height": 834460,
    "block_hash": "00000000000000000000484a79b643b2524bbce82e5d8a442013fa5b8905ed98",
    "block_time": 1710307468
  },
  "hex": "0200000000010147d9b71108613fea8591db3ae8bcfce025d45fdcedd11b979c1c0aa89fa47f980000000000fdffffff024a0100000000000022512047890c43e02ec01fe874fa5d8967bbfc8d893c5990d0e0774bca1dac982b8b80ce050000000000001600146752634c395ce7f8ffa1929d24db68d6bc21ee8903404088b67d31aa88c942e17dd5121fd7c728c4e386fa481f277b1941cc6e10f7dd7ebe460b08383a6cf581d5d39fbca39ddc779a94ebadfd04dbc18ece77c510cf7c201ca6539a5fafe1b3d21d2dd2d2aecd1f963dc93796e6314c8615ae9fb4c681adac0063036f7264010118746578742f706c61696e3b636861727365743d7574662d3800367b2270223a226272632d3230222c226f70223a227472616e73666572222c227469636b223a22636f7773222c22616d74223a2231227d6821c04928abf6d62c4a6705bccb21b9885cb0f84c4d2bfd676c8ac7265fd3ceb4167700000000"
}