{
  "txid": "e0826a868c5d4bd27d7f408748f41a0a3418866b71a3d1b7b2fb01093a1934f4",
  "version": 2,
  "locktime": 0,
  "vin": [
    {
      "txid": "f08f4b88c096083cd96a75498d4bb91236e4e84fe0965508c8b8a2432c2ad5eb",
      "vout": 4,
      "prevout": {
        "scriptpubkey": "5120f65928df99f70fc9e24ec1a3f9cd39316b95e2d861620fb9378c995c3bc54809",
        "scriptpubkey_asm": "OP_PUSHNUM_1 OP_PUSHBYTES_32 f65928df99f70fc9e24ec1a3f9cd39316b95e2d861620fb9378c995c3bc54809",
        "scriptpubkey_type": "v1_p2tr",
        "scriptpubkey_address": "bc1p7evj3hue7u8uncjwcx3lnnfex94etckcv93qlwfh3jv4cw79fqysnj3uwv",
        "value": 1859
      },
      "scriptsig": "",
      "scriptsig_asm": "",
      "witness": [
        "b32be2015b7c55c284934ad580ca15245f9ee6a890b946917a8e081828afbd8c67446f4089fd3ec9666e7c43947f226524b65272666ed7b2d94c81882dd45771",
        "203526f88e79c9e1f52a88ec6659ccccf6290b98690d36a125e1dec95e11619690ac0063036f7264010118746578742f706c61696e3b636861727365743d7574662d3800357b2270223a226272632d3230222c226f70223a226d696e74222c227469636b223a22646f6765222c22616d74223a2234323030227d68",
        "c1a1b8f27720bdb58312407ff108aa0a8a79eb6ade7272753df37ca3add73a736a"
      ],
      "is_coinbase": false,
      "sequence": 4294967295
    }
  ],
  "vout": [
    {
      "scriptpubkey": "00149e8548cc69df89adefb3c19ee6963818466a179d",
      "scriptpubkey_asm": "OP_0 OP_PUSHBYTES_20 9e8548cc69df89adefb3c19ee6963818466a179d",
      "scriptpubkey_type": "v0_p2wpkh",
      "scriptpubkey_address": "bc1qn6z53nrfm7y6mmancx0wd93crprx59uau9ymz7",
      "value": 330
    }
  ],
  "size": 308,
  "weight": 554,
  "fee": 1529,
  "status": {
    "confirmed": true,
    "block_height": 834464,
    "block_hash": "0000000000000000000177a0869a911a2b65c9bdcd5a8bcb02b68f305bee848e",
    "block_time": 1710308296
  },
  "hex": "02000000000101ebd52a2c43a2b8c8085596e04fe8e43612b94b8d49756ad93c0896c0884b8ff00400000000ffffffff014a010000000000001600149e8548cc69df89adefb3c19ee6963818466a179d0340b32be2015b7c55c284934ad580ca15245f9ee6a890b946917a8e081828afbd8c67446f4089fd3ec9666e7c43947f226524b65272666ed7b2d94c81882dd457717b203526f88e79c9e1f52a88ec6659ccccf6290b98690d36a125e1dec95e11619690ac0063036f7264010118746578742f706c61696e3b636861727365743d7574662d3800357b2270223a226272632d3230222c226f70223a226d696e74222c227469636b223a22646f6765222c22616d74223a2234323030227d6821c1a1b8f27720bdb58312407ff108aa0a8a79eb6ade7272753df37ca3add73a736a00000000"
}