{
  "txid": "e09e03d2f8c380440752d1241742ceb50d1987b8fd07722787307c5087f59ee8",
  "version": 1,
  "locktime": 0,
  "vin": [
    {
      "txid": "3ee3271720cabb318cc8b2eebcee9baa5863854bdca5aefa3d0f9b0f90b702ab",
      "vout": 1,
      "prevout": {
        "scriptpubkey": "51208fe1767885d17c27b305545e70dcb21ed67996322ce6c15c4380a9ea247b0039",
        "scriptpubkey_asm": "OP_PUSHNUM_1 OP_PUSHBYTES_32 8fe1767885d17c27b305545e70dcb21ed67996322ce6c15c4380a9ea247b0039",
        "scriptpubkey_type": "v1_p2tr",
        "scriptpubkey_address": "bc1p3lshv7y9697z0vc92308ph9jrmt8n93j9nnvzhzrsz575frmqqus9g2c7p",
        "value": 142916
      },
      "scriptsig": "",
      "scriptsig_asm": "",
      "witness": [
        "06655e0d1617fd14a5676a7231c2d4a0fdb29d1afd7acfa9ce10826554558056731defe90566c49da44db782f0bdb3d4787f9648220bb04ae86297ed3a2c0173"
      ],
      "is_coinbase": false,
      "sequence": 0
    }
  ],
  "vout": [
    {
      "scriptpubkey": "512073e52fea74dcf1057c4280a69c3a584b6bf7290c6b33aa3e18d11e275d166c84",
      "scriptpubkey_asm": "OP_PUSHNUM_1 OP_PUSHBYTES_32 73e52fea74dcf1057c4280a69c3a584b6bf7290c6b33aa3e18d11e275d166c84",
      "scriptpubkey_type": "v1_p2tr",
      "scriptpubkey_address": "bc1pw0jjl6n5mncs2lzzsznfcwjcfd4lw2gvdve650sc6y0zwhgkdjzqq7xwm7",
      "value": 2856
    },
    {
      "scriptpubkey": "51208fe1767885d17c27b305545e70dcb21ed67996322ce6c15c4380a9ea247b0039",
      "scriptpubkey_asm": "OP_PUSHNUM_1 OP_PUSHBYTES_32 8fe1767885d17c27b305545e70dcb21ed67996322ce6c15c4380a9ea247b0039",
      "scriptpubkey_type": "v1_p2tr",
      "scriptpubkey_address": "bc1p3lshv7y9697z0vc92308ph9jrmt8n93j9nnvzhzrsz575frmqqus9g2c7p",
      "value": 138058
    }
  ],
  "size": 205,
  "weight": 616,
  "fee": 2002,
  "status": {
    "confirmed": true,
    "block_height": 834460,
    "block_hash": "00000000000000000000484a79b643b2524bbce82e5d8a442013fa5b8905ed98",
    "block_time": 1710307468
  },
  "hex": "01000000000101ab02b7900f9b0f3dfaaea5dc4b856358aa9beebceeb2c88c31bbca201727e33e01000000000000000002280b00000000000022512073e52fea74dcf1057c4280a69c3a584b6bf7290c6b33aa3e18d11e275d166c844a1b0200000000002251208fe1767885d17c27b305545e70dcb21ed67996322ce6c15c4380a9ea247b0039014006655e0d1617fd14a5676a7231c2d4a0fdb29d1afd7acfa9ce10826554558056731defe90566c49da44db782f0bdb3d4787f9648220bb04ae86297ed3a2c017300000000"
}