{
  "txid": "e0acd2919b908bd86c61486c08406a5d40400a43333d23db60b0595007c4753f",
  "version": 2,
  "locktime": 0,
  "vin": [
    {
      "txid": "33a226383598b66f0112baec45d5ee3d3a7b01bc61a9a9b45fc92a71a9b94022",
      "vout": 29,
      "prevout": {
        "scriptpubkey": "00144217fb7f87689c210eca9d0019ac2514d1428f31",
        "scriptpubkey_asm": "OP_0 OP_PUSHBYTES_20 4217fb7f87689c210eca9d0019ac2514d1428f31",
        "scriptpubkey_type": "v0_p2wpkh",
        "scriptpubkey_address": "bc1qggtlklu8dzwzzrk2n5qpntp9zng59re3rf84px",
        "value": 10000
      },
      "scriptsig": "",
      "scriptsig_asm": "",
      "witness": [
        "3045022100cf8e57679e87cf5844f7c12e4b99daf4e2c6f64c939352307fabb1d19c01176c02200b758dadd4092bdd581d09164bb10edcc6679f5ad49d6cc9cd8853ea4098c29701",
        "035f474a7a4726f15867cef19cef21c5fcfa15a3c877b4bd6fa5cc168763a15667"
      ],
      "is_coinbase": false,
      "sequence": 4294967295
    },
    {
      "txid": "4ba823b32091ed78c610f9eed2006431b4d2a1de85b780a39ff0c22e848c893c",
      "vout": 19,
      "prevout": {
        "scriptpubkey": "0014dd88b7b110bf583006a09a2ced00efb474e54850",
        "scriptpubkey_asm": "OP_0 OP_PUSHBYTES_20 dd88b7b110bf583006a09a2ced00efb474e54850",
        "scriptpubkey_type": "v0_p2wpkh",
        "scriptpubkey_address": "bc1qmkyt0vgshavrqp4qngkw6q80k36w2jzsflclth",
        "value": 507175
      },
      "scriptsig": "",
      "scriptsig_asm": "",
      "witness": [
        "304402206ed8df9c43df0cb55da0ac5afee53a31dcd9128ea173f7f594f8b7ac4482c08c02206ca2f47faab9f60b01ee886e5190ec4cf88556edc1bc76776d31e60b27335a3b01",
        "02bb17e01d1a73fe1f8fb1e8b15608ba720d6bba37eb507a6223ac764f2a3d592a"
      ],
      "is_coinbase": false,
      "sequence": 4294967295
    },
    {
      "txid": "477ccd7c731633e74df2f234c0a5611e19eadf4e157dfae3758ee3219b0dca5b",
      "vout": 42,
      "prevout": {
        "scriptpubkey": "0014fe72c903502b06cfc3a16fc69eaf85e3591c067f",
        "scriptpubkey_asm": "OP_0 OP_PUSHBYTES_20 fe72c903502b06cfc3a16fc69eaf85e3591c067f",
        "scriptpubkey_type": "v0_p2wpkh",
        "scriptpubkey_address": "bc1qleevjq6s9vrvlsapdlrfatu9udv3cpnlmjhwv7",
        "value": 128046
      },
      "scriptsig": "",
      "scriptsig_asm": "",
      "witness": [
        "30440220735e23d3aee46704e329b9a1f9be576f8a49b32a0ea69906a9684c5f47533f1f02207060e75f82529b494c76b7e5fd59d510f2918c3885706278a4d5713a6d695bfb01",
        "032fa2f298e8d6b66a2228e81419e2ae3e4e4b726fe9343ebdde8fff7da363ca67"
      ],
      "is_coinbase": false,
      "sequence": 4294967295
    },
    {
      "txid": "9a77fc97628ccce6d5338130a50beb66fb59d99f5cb19a465e4730c20e7a97e1",
      "vout": 0,
      "prevout": {
        "scriptpubkey": "0014f0703eb5c83517295937b0bc64b3569fb2c086f7",
        "scriptpubkey_asm": "OP_0 OP_PUSHBYTES_20 f0703eb5c83517295937b0bc64b3569fb2c086f7",
        "scriptpubkey_type": "v0_p2wpkh",
        "scriptpubkey_address": "bc1q7pcradwgx5tjjkfhkz7xfv6kn7evpphhsg3lgf",
        "value": 39350
      },
      "scriptsig": "",
      "scriptsig_asm": "",
      "witness": [
        "30450221008986add36cca440415f32228902afb885c3746cf7ba22beac764ebf9fe909b1d022070ba24f50b11de46b4229ee1d4d861ba62873c6f234ae4473b80660bc7be894701",
        "027f66037daec2b729b2ee99c1f5927fcfe1245b5a3bfef1e37b058a511cda50d2"
      ],
      "is_coinbase": false,
      "sequence": 4294967295
    },
    {
      "txid": "7b4e2847837700b6fb92b0e57f98e097d6c5b3b67c907c4f9ec815a8a9070484",
      "vout": 7,
      "prevout": {
        "scriptpubkey": "0014f0703eb5c83517295937b0bc64b3569fb2c086f7",
        "scriptpubkey_asm": "OP_0 OP_PUSHBYTES_20 f0703eb5c83517295937b0bc64b3569fb2c086f7",
        "scriptpubkey_type": "v0_p2wpkh",
        "scriptpubkey_address": "bc1q7pcradwgx5tjjkfhkz7xfv6kn7evpphhsg3lgf",
        "value": 36637
      },
      "scriptsig": "",
      "scriptsig_asm": "",
      "witness": [
        "304402201f2ecc16fd10378184259849d3e9602e659ebbfee52950a1662f2984b2839c8e0220260768eb5b6dda12d653f22d8aaadc76ec44059a990db2eb6484e47c30e0399201",
        "027f66037daec2b729b2ee99c1f5927fcfe1245b5a3bfef1e37b058a511cda50d2"
      ],
      "is_coinbase": false,
      "sequence": 4294967295
    },
    {
      "txid": "decc83622ce4efef5fa9c26696aa3f22562c2474dfc8a4e3f31837ee09de958d",
      "vout": 27,
      "prevout": {
        "scriptpubkey": "0014f0703eb5c83517295937b0bc64b3569fb2c086f7",
        "scriptpubkey_asm": "OP_0 OP_PUSHBYTES_20 f0703eb5c83517295937b0bc64b3569fb2c086f7",
        "scriptpubkey_type": "v0_p2wpkh",
        "scriptpubkey_address": "bc1q7pcradwgx5tjjkfhkz7xfv6kn7evpphhsg3lgf",
        "value": 938000
      },
      "scriptsig": "",
      "scriptsig_asm": "",
      "witness": [
        "304402202fdc8e393ad2ba22c2526b2c9c33609da153322e3aa314947ff4931488e09105022079bab1e74a408180060dc56e634d6387310b25b5ea7d752f1644628429c206ef01",
        "027f66037daec2b729b2ee99c1f5927fcfe1245b5a3bfef1e37b058a511cda50d2"
      ],
      "is_coinbase": false,
      "sequence": 4294967295
    }
  ],
  "vout": [
    {
      "scriptpubkey": "76a914efb453ecb83b61b4836f284fa07554fc550a830688ac",
      "scriptpubkey_asm": "OP_DUP OP_HASH160 OP_PUSHBYTES_20 efb453ecb83b61b4836f284fa07554fc550a8306 OP_EQUALVERIFY OP_CHECKSIG",
      "scriptpubkey_type": "p2pkh",
      "scriptpubkey_address": "1NrSXFCYKPp616X4VK6ymYZ5EDY1sPF1FZ",
      "value": 1636200
    },
    {
      "scriptpubkey": "00149083269c83d4a504aa493169cef6c117af96ddb8",
      "scriptpubkey_asm": "OP_0 OP_PUSHBYTES_20 9083269c83d4a504aa493169cef6c117af96ddb8",
      "scriptpubkey_type": "v0_p2wpkh",
      "scriptpubkey_address": "bc1qjzpjd8yr6jjsf2jfx95uaakpz7hedhdcd4ymu3",
      "value": 15280
    }
  ],
  "size": 967,
  "weight": 1930,
  "fee": 7728,
  "status": {
    "confirmed": true,
    "block_height": 834638,
    "block_hash": "000000000000000000025f742c626208ac87e0b7d15054abb4a19ca2d735a54e",
    "block_time": 1710405325
  },
  "hex": "020000000001062240b9a9712ac95fb4a9a961bc017b3a3deed545ecba12016fb698353826a2331d00000000ffffffff3c898c842ec2f09fa380b785dea1d2b4316400d2eef910c678ed9120b323a84b1300000000ffffffff5bca0d9b21e38e75e3fa7d154edfea191e61a5c034f2f24de73316737ccd7c472a00000000ffffffffe1977a0ec230475e469ab15c9fd959fb66eb0ba5308133d5e6cc8c6297fc779a0000000000ffffffff840407a9a815c89e4f7c907cb6b3c5d697e0987fe5b092fbb600778347284e7b0700000000ffffffff8d95de09ee3718f3e3a4c8df74242c56223faa9666c2a95fefefe42c6283ccde1b00000000ffffffff0268f71800000000001976a914efb453ecb83b61b4836f284fa07554fc550a830688acb03b0000000000001600149083269c83d4a504aa493169cef6c117af96ddb802483045022100cf8e57679e87cf5844f7c12e4b99daf4e2c6f64c939352307fabb1d19c01176c02200b758dadd4092bdd581d09164bb10edcc6679f5ad49d6cc9cd8853ea4098c2970121035f474a7a4726f15867cef19cef21c5fcfa15a3c877b4bd6fa5cc168763a156670247304402206ed8df9c43df0cb55da0ac5afee53a31dcd9128ea173f7f594f8b7ac4482c08c02206ca2f47faab9f60b01ee886e5190ec4cf88556edc1bc76776d31e60b27335a3b012102bb17e01d1a73fe1f8fb1e8b15608ba720d6bba37eb507a6223ac764f2a3d592a024730440220735e23d3aee46704e329b9a1f9be576f8a49b32a0ea69906a9684c5f47533f1f02207060e75f82529b494c76b7e5fd59d510f2918c3885706278a4d5713a6d695bfb0121032fa2f298e8d6b66a2228e81419e2ae3e4e4b726fe9343ebdde8fff7da363ca67024830450221008986add36cca440415f32228902afb885c3746cf7ba22beac764ebf9fe909b1d022070ba24f50b11de46b4229ee1d4d861ba62873c6f234ae4473b80660bc7be89470121027f66037daec2b729b2ee99c1f5927fcfe1245b5a3bfef1e37b058a511cda50d20247304402201f2ecc16fd10378184259849d3e9602e659ebbfee52950a1662f2984b2839c8e0220260768eb5b6dda12d653f22d8aaadc76ec44059a990db2eb6484e47c30e039920121027f66037daec2b729b2ee99c1f5927fcfe1245b5a3bfef1e37b058a511cda50d20247304402202fdc8e393ad2ba22c2526b2c9c33609da153322e3aa314947ff4931488e09105022079bab1e74a408180060dc56e634d6387310b25b5ea7d752f1644628429c206ef0121027f66037daec2b729b2ee99c1f5927fcfe1245b5a3bfef1e37b058a511cda50d200000000"
}