{
  "txid": "e0cdef7bf9e2f2903dd780aa53e54ca3004cdcee04dabe063be898ce8f541fea",
  "version": 2,
  "locktime": 0,
  "vin": [
    {
      "txid": "1ffef8d3834dd4af2db7f378940e96d850a50dc857b8456515da08ea59b42f76",
      "vout": 2,
      "prevout": {
        "scriptpubkey": "5120d23651e816b8b0277788b5d16710aaaa59db5a80b6cccee87ba298ab250aa605",
        "scriptpubkey_asm": "OP_PUSHNUM_1 OP_PUSHBYTES_32 d23651e816b8b0277788b5d16710aaaa59db5a80b6cccee87ba298ab250aa605",
        "scriptpubkey_type": "v1_p2tr",
        "scriptpubkey_address": "bc1p6gm9r6qkhzczwaugkhgkwy924fvakk5qkmxva6rm52v2kfg25czstlmxym",
        "value": 2862
      },
      "scriptsig": "",
      "scriptsig_asm": "",
      "witness": [
        "e673417afd6366561b97db44e0db54934821767817607b18962390fc8cea0b8374edfd110dd541870a09c393613832e6bb9ef5ddee08d6b56e0c2e83adc2bc28",
        "2046809f8c24d00ae8b8f53ff54289aee41b65c99566a4d6ce4b284aaa3fb3761aac0063036f726401011e6170706c69636174696f6e2f6a736f6e3b636861727365743d7574662d38004cd37b2270223a22706f772d3230222c226f70223a226d696e74222c227469636b223a2250455045222c22616d74223a2231303030222c22736f6c7574696f6e223a22504550453a6263317067666d706d6439376b6c3534636379746c637636653433656a6365347934766a6435743239656e75376a68726d7775746630337374646e7975303a303030303030303030303030303030303030303139393431613561653132383937363539383134343239323533333030353762306461393666336465613163353a3138373634383832323238227d68",
        "c14cc878e83178ea601961baabfa2fc78f27a3c8cae2f1d8f4d8ea0175eee56210"
      ],
      "is_coinbase": false,
      "sequence": 4294967295
    }
  ],
  "vout": [
    {
      "scriptpubkey": "512042761db4beb7e95c608bfe19acd63996335255926d16a2e67cf4ae3dbb8b4be3",
      "scriptpubkey_asm": "OP_PUSHNUM_1 OP_PUSHBYTES_32 42761db4beb7e95c608bfe19acd63996335255926d16a2e67cf4ae3dbb8b4be3",
      "scriptpubkey_type": "v1_p2tr",
      "scriptpubkey_address": "bc1pgfmpmd97kl54ccytlcv6e43ejce4y4vjd5t29enu7jhrmwutf03stdnyu0",
      "value": 546
    }
  ],
  "size": 487,
  "weight": 769,
  "fee": 2316,
  "status": {
    "confirmed": true,
    "block_height": 834460,
    "block_hash": "00000000000000000000484a79b643b2524bbce82e5d8a442013fa5b8905ed98",
    "block_time": 1710307468
  },
  "hex": "02000000000101762fb459ea08da156545b857c80da550d8960e9478f3b72dafd44d83d3f8fe1f0200000000ffffffff01220200000000000022512042761db4beb7e95c608bfe19acd63996335255926d16a2e67cf4ae3dbb8b4be30340e673417afd6366561b97db44e0db54934821767817607b18962390fc8cea0b8374edfd110dd541870a09c393613832e6bb9ef5ddee08d6b56e0c2e83adc2bc28fd20012046809f8c24d00ae8b8f53ff54289aee41b65c99566a4d6ce4b284aaa3fb3761aac0063036f726401011e6170706c69636174696f6e2f6a736f6e3b636861727365743d7574662d38004cd37b2270223a22706f772d3230222c226f70223a226d696e74222c227469636b223a2250455045222c22616d74223a2231303030222c22736f6c7574696f6e223a22504550453a6263317067666d706d6439376b6c3534636379746c637636653433656a6365347934766a6435743239656e75376a68726d7775746630337374646e7975303a303030303030303030303030303030303030303139393431613561653132383937363539383134343239323533333030353762306461393666336465613163353a3138373634383832323238227d6821c14cc878e83178ea601961baabfa2fc78f27a3c8cae2f1d8f4d8ea0175eee5621000000000"
}