{
  "txid": "e0d3385b591316f3c6e23ed81d8dbe025386e236d1a1aaa5caa6ea216460c8b1",
  "version": 1,
  "locktime": 0,
  "vin": [
    {
      "txid": "b206961c37224efa57b4b03a8478c3a01e654b51c53ba253933ce834ddbed7f1",
      "vout": 145,
      "prevout": {
        "scriptpubkey": "0014fcec0cc292d7f0e8e43fc7abf79d48f3c5e91312",
        "scriptpubkey_asm": "OP_0 OP_PUSHBYTES_20 fcec0cc292d7f0e8e43fc7abf79d48f3c5e91312",
        "scriptpubkey_type": "v0_p2wpkh",
        "scriptpubkey_address": "bc1qlnkqes5j6lcw3eplc74l082g70z7jycj05c0qf",
        "value": 988895
      },
      "scriptsig": "",
      "scriptsig_asm": "",
      "witness": [
        "3044022045eb29b9a4a7675727a4f4cefeb07951bcf75dd8939a18d9864f3533eee782f902202a4cc19d9585e1dab4b77f5d286dae4f336f1c2d3472e080b74a9e53ed78bec101",
        "03b94b3b92ee26df75616891dba09e72aca4f0c5efdd3baba5ef6b554a5a3fb91f"
      ],
      "is_coinbase": false,
      "sequence": 4294967295
    }
  ],
  "vout": [
    {
      "scriptpubkey": "0014105440648a68489c150262d9a7ca78b96510567d",
      "scriptpubkey_asm": "OP_0 OP_PUSHBYTES_20 105440648a68489c150262d9a7ca78b96510567d",
      "scriptpubkey_type": "v0_p2wpkh",
      "scriptpubkey_address": "bc1qzp2yqey2dpyfc9gzvtv60jnch9j3q4na6tal69",
      "value": 237223
    },
    {
      "scriptpubkey": "76a914abb0dce61f21e6fc33210e06eb916f0d4f32851c88ac",
      "scriptpubkey_asm": "OP_DUP OP_HASH160 OP_PUSHBYTES_20 abb0dce61f21e6fc33210e06eb916f0d4f32851c OP_EQUALVERIFY OP_CHECKSIG",
      "scriptpubkey_type": "p2pkh",
      "scriptpubkey_address": "1GepRTCo35joJKB1FgpBRH2EryQZE7zwN5",
      "value": 750132
    }
  ],
  "size": 225,
  "weight": 573,
  "fee": 1540,
  "status": {
    "confirmed": true,
    "block_height": 834464,
    "block_hash": "0000000000000000000177a0869a911a2b65c9bdcd5a8bcb02b68f305bee848e",
    "block_time": 1710308296
  },
  "hex": "01000000000101f1d7bedd34e83c9353a23bc5514b651ea0c378843ab0b457fa4e22371c9606b29100000000ffffffff02a79e030000000000160014105440648a68489c150262d9a7ca78b96510567d34720b00000000001976a914abb0dce61f21e6fc33210e06eb916f0d4f32851c88ac02473044022045eb29b9a4a7675727a4f4cefeb07951bcf75dd8939a18d9864f3533eee782f902202a4cc19d9585e1dab4b77f5d286dae4f336f1c2d3472e080b74a9e53ed78bec1012103b94b3b92ee26df75616891dba09e72aca4f0c5efdd3baba5ef6b554a5a3fb91f00000000"
}