{
  "txid": "e0d9757d4d88ae3770d9670b0122aabf58dfbbeb2efee48f4e952056a8281604",
  "version": 2,
  "locktime": 0,
  "vin": [
    {
      "txid": "6790e3485f458076fc6ddf88371804f3a929654b0f86d8e9ad955470a5971145",
      "vout": 0,
      "prevout": {
        "scriptpubkey": "00141ff4ce46b1d37d25831174989f39ca9049317d12",
        "scriptpubkey_asm": "OP_0 OP_PUSHBYTES_20 1ff4ce46b1d37d25831174989f39ca9049317d12",
        "scriptpubkey_type": "v0_p2wpkh",
        "scriptpubkey_address": "bc1qrl6vu3436d7jtqc3wjvf7ww2jpynzlgjf0tm7h",
        "value": 8897
      },
      "scriptsig": "",
      "scriptsig_asm": "",
      "witness": [
        "30440220271ec993c2b72ba222fbb599ef4125d2ce9fc9c9eb016809a295605c40c0bb7d02206570ab991d0a91df4292d7513e5a2358bff04c7fc2faaf9fe6da7094460b6aa001",
        "026a9dcd4c5ff201a8b4bc032fa68231c1ef26d904c8d99301e4c119724a36f8ec"
      ],
      "is_coinbase": false,
      "sequence": 4294967293
    }
  ],
  "vout": [
    {
      "scriptpubkey": "a914ce9737c805557f949c5dc05baab93680b72c4acc87",
      "scriptpubkey_asm": "OP_HASH160 OP_PUSHBYTES_20 ce9737c805557f949c5dc05baab93680b72c4acc OP_EQUAL",
      "scriptpubkey_type": "p2sh",
      "scriptpubkey_address": "3LXNGs6A9kH4Y7HnH5ERqY2wMGewh4mUrb",
      "value": 7677
    }
  ],
  "size": 192,
  "weight": 441,
  "fee": 1220,
  "status": {
    "confirmed": true,
    "block_height": 834464,
    "block_hash": "0000000000000000000177a0869a911a2b65c9bdcd5a8bcb02b68f305bee848e",
    "block_time": 1710308296
  },
  "hex": "02000000000101451197a5705495ade9d8860f4b6529a9f304183788df6dfc7680455f48e390670000000000fdffffff01fd1d00000000000017a914ce9737c805557f949c5dc05baab93680b72c4acc87024730440220271ec993c2b72ba222fbb599ef4125d2ce9fc9c9eb016809a295605c40c0bb7d02206570ab991d0a91df4292d7513e5a2358bff04c7fc2faaf9fe6da7094460b6aa00121026a9dcd4c5ff201a8b4bc032fa68231c1ef26d904c8d99301e4c119724a36f8ec00000000"
}