{
  "txid": "e0e75863a67a6621376fa95bf7518d2df07c03f85226ec80c9d2e751c5af9dcf",
  "version": 2,
  "locktime": 834637,
  "vin": [
    {
      "txid": "e6ec7904715b7d03ce1051a54f196373a169038d0fd205eef6d700b941e8a7c7",
      "vout": 0,
      "prevout": {
        "scriptpubkey": "76a914344d4f35719b12a79b32fc27e6f737e1a055bf0b88ac",
        "scriptpubkey_asm": "OP_DUP OP_HASH160 OP_PUSHBYTES_20 344d4f35719b12a79b32fc27e6f737e1a055bf0b OP_EQUALVERIFY OP_CHECKSIG",
        "scriptpubkey_type": "p2pkh",
        "scriptpubkey_address": "15mYkXaBZXMjByEwCvfwEfiouaqeeLDdsk",
        "value": 330104240
      },
      "scriptsig": "47304402201c59370d94be92b95fa9031a506bce8d1e3f3e25e0356cf60c28da3d296124a302207cf5b6670f59896ad581005c6dc2c900a9db45feb245ac297feb20e29e3a3ca401210227343232e106689cf27737f1d6e21454527debd1b53fe050cb2aa12869b40ddb",
      "scriptsig_asm": "OP_PUSHBYTES_71 304402201c59370d94be92b95fa9031a506bce8d1e3f3e25e0356cf60c28da3d296124a302207cf5b6670f59896ad581005c6dc2c900a9db45feb245ac297feb20e29e3a3ca401 OP_PUSHBYTES_33 0227343232e106689cf27737f1d6e21454527debd1b53fe050cb2aa12869b40ddb",
      "is_coinbase": false,
      "sequence": 4294967293
    }
  ],
  "vout": [
    {
      "scriptpubkey": "a914ecd17697d2f27bd3c548bf8598f368513a35e1b887",
      "scriptpubkey_asm": "OP_HASH160 OP_PUSHBYTES_20 ecd17697d2f27bd3c548bf8598f368513a35e1b8 OP_EQUAL",
      "scriptpubkey_type": "p2sh",
      "scriptpubkey_address": "3PHCKaTtemxiNFChUyghnV7WgP7CBHmZbQ",
      "value": 1000000
    },
    {
      "scriptpubkey": "76a914fe199e2a7e8c8e52d43c59fa190916b26389860988ac",
      "scriptpubkey_asm": "OP_DUP OP_HASH160 OP_PUSHBYTES_20 fe199e2a7e8c8e52d43c59fa190916b263898609 OP_EQUALVERIFY OP_CHECKSIG",
      "scriptpubkey_type": "p2pkh",
      "scriptpubkey_address": "1QAZKgdrnooEYbzsq2yYG4LQccQ9Nzwrne",
      "value": 329100600
    }
  ],
  "size": 223,
  "weight": 892,
  "fee": 3640,
  "status": {
    "confirmed": true,
    "block_height": 834638,
    "block_hash": "000000000000000000025f742c626208ac87e0b7d15054abb4a19ca2d735a54e",
    "block_time": 1710405325
  },
  "hex": "0200000001c7a7e841b900d7f6ee05d20f8d0369a17363194fa55110ce037d5b710479ece6000000006a47304402201c59370d94be92b95fa9031a506bce8d1e3f3e25e0356cf60c28da3d296124a302207cf5b6670f59896ad581005c6dc2c900a9db45feb245ac297feb20e29e3a3ca401210227343232e106689cf27737f1d6e21454527debd1b53fe050cb2aa12869b40ddbfdffffff0240420f000000000017a914ecd17697d2f27bd3c548bf8598f368513a35e1b88738ad9d13000000001976a914fe199e2a7e8c8e52d43c59fa190916b26389860988ac4dbc0c00"
}