{
  "txid": "e1097653c71e000b75ef33457432c62c77f7b362ea903b6a6278b357029bb008",
  "version": 2,
  "locktime": 0,
  "vin": [
    {
      "txid": "26dcef0933fc0129904955dd9604cbc0b086635ebb9b1203ad743f6fd4ec06ee",
      "vout": 3,
      "prevout": {
        "scriptpubkey": "0014e27725ff317aa4f2011157028b93d04ae48fe2fe",
        "scriptpubkey_asm": "OP_0 OP_PUSHBYTES_20 e27725ff317aa4f2011157028b93d04ae48fe2fe",
        "scriptpubkey_type": "v0_p2wpkh",
        "scriptpubkey_address": "bc1qufmjtle302j0yqg32upghy7sftjglch7umur40",
        "value": 272376
      },
      "scriptsig": "",
      "scriptsig_asm": "",
      "witness": [
        "304402204d73ad49b881e1be0df3589607e3f66c352c757339ec0f120cc4aeb43bd09e30022008f6f99ba45c6d9ec020bfaef8f542f79bd5281e24e7d41345a2fc47d0726f1701",
        "02fb4fee8b08d2fb0fdc68e7452dbf082aa64adb92275eb73782bfdbec4f128d68"
      ],
      "is_coinbase": false,
      "sequence": 4294967295
    }
  ],
  "vout": [
    {
      "scriptpubkey": "00145efd30dc1221e98c5d1d30aa74f88debb6a82e8e",
      "scriptpubkey_asm": "OP_0 OP_PUSHBYTES_20 5efd30dc1221e98c5d1d30aa74f88debb6a82e8e",
      "scriptpubkey_type": "v0_p2wpkh",
      "scriptpubkey_address": "bc1qtm7nphqjy85cchgaxz48f7ydawm2st5wzd95ec",
      "value": 333
    },
    {
      "scriptpubkey": "512102e862fd3d2c13c952a073305043348b7d3f2fa7592838c9d44e3ac5c099a1f2302103a38e3f130610d6a837f3a89c6399b694c29294a8c97fa459861c1631fa5db7632102020202020202020202020202020202020202020202020202020202020202020253ae",
      "scriptpubkey_asm": "OP_PUSHNUM_1 OP_PUSHBYTES_33 02e862fd3d2c13c952a073305043348b7d3f2fa7592838c9d44e3ac5c099a1f230 OP_PUSHBYTES_33 03a38e3f130610d6a837f3a89c6399b694c29294a8c97fa459861c1631fa5db763 OP_PUSHBYTES_33 020202020202020202020202020202020202020202020202020202020202020202 OP_PUSHNUM_3 OP_CHECKMULTISIG",
      "scriptpubkey_type": "unknown",
      "value": 801
    },
    {
      "scriptpubkey": "51210259e7761d9c198f54c5a79e6b663ae3b3385b21da80a0051dde5a65227a6225a521030e6939803a3863f08f10cf4f456c707dae7492023daa93a4f09e321c6d35ba7f2102020202020202020202020202020202020202020202020202020202020202020253ae",
      "scriptpubkey_asm": "OP_PUSHNUM_1 OP_PUSHBYTES_33 0259e7761d9c198f54c5a79e6b663ae3b3385b21da80a0051dde5a65227a6225a5 OP_PUSHBYTES_33 030e6939803a3863f08f10cf4f456c707dae7492023daa93a4f09e321c6d35ba7f OP_PUSHBYTES_33 020202020202020202020202020202020202020202020202020202020202020202 OP_PUSHNUM_3 OP_CHECKMULTISIG",
      "scriptpubkey_type": "unknown",
      "value": 801
    },
    {
      "scriptpubkey": "0014e27725ff317aa4f2011157028b93d04ae48fe2fe",
      "scriptpubkey_asm": "OP_0 OP_PUSHBYTES_20 e27725ff317aa4f2011157028b93d04ae48fe2fe",
      "scriptpubkey_type": "v0_p2wpkh",
      "scriptpubkey_address": "bc1qufmjtle302j0yqg32upghy7sftjglch7umur40",
      "value": 254227
    }
  ],
  "size": 450,
  "weight": 1473,
  "fee": 16214,
  "status": {
    "confirmed": true,
    "block_height": 834638,
    "block_hash": "000000000000000000025f742c626208ac87e0b7d15054abb4a19ca2d735a54e",
    "block_time": 1710405325
  },
  "hex": "02000000000101ee06ecd46f3f74ad03129bbb5e6386b0c0cb0496dd5549902901fc3309efdc260300000000ffffffff044d010000000000001600145efd30dc1221e98c5d1d30aa74f88debb6a82e8e210300000000000069512102e862fd3d2c13c952a073305043348b7d3f2fa7592838c9d44e3ac5c099a1f2302103a38e3f130610d6a837f3a89c6399b694c29294a8c97fa459861c1631fa5db7632102020202020202020202020202020202020202020202020202020202020202020253ae21030000000000006951210259e7761d9c198f54c5a79e6b663ae3b3385b21da80a0051dde5a65227a6225a521030e6939803a3863f08f10cf4f456c707dae7492023daa93a4f09e321c6d35ba7f2102020202020202020202020202020202020202020202020202020202020202020253ae13e1030000000000160014e27725ff317aa4f2011157028b93d04ae48fe2fe0247304402204d73ad49b881e1be0df3589607e3f66c352c757339ec0f120cc4aeb43bd09e30022008f6f99ba45c6d9ec020bfaef8f542f79bd5281e24e7d41345a2fc47d0726f17012102fb4fee8b08d2fb0fdc68e7452dbf082aa64adb92275eb73782bfdbec4f128d6800000000"
}