{
  "txid": "e125398fafabe2e5da03048b910ce12de3671f532055a59e2ac45bc1481b1153",
  "version": 1,
  "locktime": 0,
  "vin": [
    {
      "txid": "124020591caea5675263d1a3a615222b39377bb1503138e5629001e35e2b283a",
      "vout": 0,
      "prevout": {
        "scriptpubkey": "512088c6e59916d135cafe4fc46c308f2ffd3e3291263de1fdd078b6ce113498891c",
        "scriptpubkey_asm": "OP_PUSHNUM_1 OP_PUSHBYTES_32 88c6e59916d135cafe4fc46c308f2ffd3e3291263de1fdd078b6ce113498891c",
        "scriptpubkey_type": "v1_p2tr",
        "scriptpubkey_address": "bc1p3rrwtxgk6y6u4lj0c3krpre0l5lr9yfx8hslm5rckm8pzdyc3ywqy2txuv",
        "value": 2889
      },
      "scriptsig": "",
      "scriptsig_asm": "",
      "witness": [
        "19a6984a08df0527c7e94e8ff3876ad50f37f178ffba2675f10812b4363685a291cbbe56bf39fff7dafeeee69629afb3ed4050682544595b956d928e7a64e66b",
        "20dfa7325ed77fab28d796d113dcead29a7490c58aaa244f71cf02d52f6b761081ac00630461746f6d03646d7437a16461726773a46474696d651a65ee50fa656e6f6e63650068626974776f726b6364313234306b6d696e745f7469636b657264766d707868",
        "c1dfa7325ed77fab28d796d113dcead29a7490c58aaa244f71cf02d52f6b761081"
      ],
      "is_coinbase": false,
      "sequence": 0
    }
  ],
  "vout": [
    {
      "scriptpubkey": "5120a1e3352d215c371d7181ba45cba88085be161f72f0fb432c6eb5c59fa438eb97",
      "scriptpubkey_asm": "OP_PUSHNUM_1 OP_PUSHBYTES_32 a1e3352d215c371d7181ba45cba88085be161f72f0fb432c6eb5c59fa438eb97",
      "scriptpubkey_type": "v1_p2tr",
      "scriptpubkey_address": "bc1p583n2tfptsm36uvphfzuh2yqsklpv8mj7ra5xtrwkhzelfpcawtswnzule",
      "value": 1000
    }
  ],
  "size": 299,
  "weight": 581,
  "fee": 1889,
  "status": {
    "confirmed": true,
    "block_height": 834464,
    "block_hash": "0000000000000000000177a0869a911a2b65c9bdcd5a8bcb02b68f305bee848e",
    "block_time": 1710308296
  },
  "hex": "010000000001013a282b5ee3019062e5383150b17b37392b2215a6a3d1635267a5ae1c5920401200000000000000000001e803000000000000225120a1e3352d215c371d7181ba45cba88085be161f72f0fb432c6eb5c59fa438eb97034019a6984a08df0527c7e94e8ff3876ad50f37f178ffba2675f10812b4363685a291cbbe56bf39fff7dafeeee69629afb3ed4050682544595b956d928e7a64e66b6620dfa7325ed77fab28d796d113dcead29a7490c58aaa244f71cf02d52f6b761081ac00630461746f6d03646d7437a16461726773a46474696d651a65ee50fa656e6f6e63650068626974776f726b6364313234306b6d696e745f7469636b657264766d70786821c1dfa7325ed77fab28d796d113dcead29a7490c58aaa244f71cf02d52f6b76108100000000"
}