{
  "txid": "e13041cf2cfda2f55ca6e5750f919a08e173284ac98a5f7c81897ff8796df8a8",
  "version": 2,
  "locktime": 0,
  "vin": [
    {
      "txid": "8486ecb4df0880316dd6e82b3971b4df187aff23765bc3a47f8d78bb53aa273c",
      "vout": 122,
      "prevout": {
        "scriptpubkey": "51205f4480a6382819ad08a57afdb6660d90b90df14d3b7262224daf194924d11ade",
        "scriptpubkey_asm": "OP_PUSHNUM_1 OP_PUSHBYTES_32 5f4480a6382819ad08a57afdb6660d90b90df14d3b7262224daf194924d11ade",
        "scriptpubkey_type": "v1_p2tr",
        "scriptpubkey_address": "bc1ptazgpf3c9qv66z990t7mvesdjzusmu2d8dexygjd4uv5jfx3rt0qln52lv",
        "value": 2575
      },
      "scriptsig": "",
      "scriptsig_asm": "",
      "witness": [
        "6b703e42c6d0231660b22f5825478fdea8d795d0e17b23aa310c231bdd51ca48e43ecd36e0dfd913aa650614e8ef917648ddd0558f63350ae5be64626b4e0944",
        "20c0ecbbe5ca01ae06fea8c3f12a4d4f85770c737a29157e9765f9eb5d2c235d0dac0063036f726401010a746578742f706c61696e00367b2270223a226272632d3230222c226f70223a226d696e74222c227469636b223a2261616161222c22616d74223a223130303030227d68",
        "c1c0ecbbe5ca01ae06fea8c3f12a4d4f85770c737a29157e9765f9eb5d2c235d0d"
      ],
      "is_coinbase": false,
      "sequence": 4261412863
    }
  ],
  "vout": [
    {
      "scriptpubkey": "0014ddd7ef12ea6f78edcc1e8e7afa12c01ab59f3339",
      "scriptpubkey_asm": "OP_0 OP_PUSHBYTES_20 ddd7ef12ea6f78edcc1e8e7afa12c01ab59f3339",
      "scriptpubkey_type": "v0_p2wpkh",
      "scriptpubkey_address": "bc1qmht77yh2dauwmnq73ea05ykqr26e7veea8spz6",
      "value": 546
    }
  ],
  "size": 295,
  "weight": 541,
  "fee": 2029,
  "status": {
    "confirmed": true,
    "block_height": 834460,
    "block_hash": "00000000000000000000484a79b643b2524bbce82e5d8a442013fa5b8905ed98",
    "block_time": 1710307468
  },
  "hex": "020000000001013c27aa53bb788d7fa4c35b7623ff7a18dfb471392be8d66d318008dfb4ec86847a00000000fffffffd012202000000000000160014ddd7ef12ea6f78edcc1e8e7afa12c01ab59f333903406b703e42c6d0231660b22f5825478fdea8d795d0e17b23aa310c231bdd51ca48e43ecd36e0dfd913aa650614e8ef917648ddd0558f63350ae5be64626b4e09446e20c0ecbbe5ca01ae06fea8c3f12a4d4f85770c737a29157e9765f9eb5d2c235d0dac0063036f726401010a746578742f706c61696e00367b2270223a226272632d3230222c226f70223a226d696e74222c227469636b223a2261616161222c22616d74223a223130303030227d6821c1c0ecbbe5ca01ae06fea8c3f12a4d4f85770c737a29157e9765f9eb5d2c235d0d00000000"
}