{
  "txid": "e135d13dd7e9e195c0d1a9d396e49576a6f832a1a93c176ee4c0d1572258a828",
  "version": 2,
  "locktime": 0,
  "vin": [
    {
      "txid": "984842b669decd20b95879d64933e1c7ad54d698eba4c0fc864aac31068d6964",
      "vout": 13,
      "prevout": {
        "scriptpubkey": "0014d5fab990a7e7ca6082efe9be814ed139d6ec11f5",
        "scriptpubkey_asm": "OP_0 OP_PUSHBYTES_20 d5fab990a7e7ca6082efe9be814ed139d6ec11f5",
        "scriptpubkey_type": "v0_p2wpkh",
        "scriptpubkey_address": "bc1q6hatny98ul9xpqh0axlgznk388twcy04zklrx5",
        "value": 6460624
      },
      "scriptsig": "",
      "scriptsig_asm": "",
      "witness": [
        "3044022049844916bd5d8b2d33e09a8b3a2c161b82145370cbbfaaac72316ab69025916902200230b73c7527e478f68d5d048711c277726c46cc6da951acbf0fdb5d5ef78dd601",
        "03681eec43cbfdcffcf96d4d9bf6fe53c4f6c411602c5e5e9e9438fd0ea91413ae"
      ],
      "is_coinbase": false,
      "sequence": 4294967295
    }
  ],
  "vout": [
    {
      "scriptpubkey": "00140ab0e8049c5aa7b0b5a487fb67d270245e9cf060",
      "scriptpubkey_asm": "OP_0 OP_PUSHBYTES_20 0ab0e8049c5aa7b0b5a487fb67d270245e9cf060",
      "scriptpubkey_type": "v0_p2wpkh",
      "scriptpubkey_address": "bc1qp2cwspyut2nmpddyslak05nsy30feurqnkxp0d",
      "value": 200748
    },
    {
      "scriptpubkey": "0014953000f27cedfa70b348a106bec757dbf1b38fbf",
      "scriptpubkey_asm": "OP_0 OP_PUSHBYTES_20 953000f27cedfa70b348a106bec757dbf1b38fbf",
      "scriptpubkey_type": "v0_p2wpkh",
      "scriptpubkey_address": "bc1qj5cqpunuaha8pv6g5yrta36hm0cm8ral7rgkrf",
      "value": 6256242
    }
  ],
  "size": 222,
  "weight": 561,
  "fee": 3634,
  "status": {
    "confirmed": true,
    "block_height": 834638,
    "block_hash": "000000000000000000025f742c626208ac87e0b7d15054abb4a19ca2d735a54e",
    "block_time": 1710405325
  },
  "hex": "0200000000010164698d0631ac4a86fcc0a4eb98d654adc7e13349d67958b920cdde69b64248980d00000000ffffffff022c100300000000001600140ab0e8049c5aa7b0b5a487fb67d270245e9cf06072765f0000000000160014953000f27cedfa70b348a106bec757dbf1b38fbf02473044022049844916bd5d8b2d33e09a8b3a2c161b82145370cbbfaaac72316ab69025916902200230b73c7527e478f68d5d048711c277726c46cc6da951acbf0fdb5d5ef78dd6012103681eec43cbfdcffcf96d4d9bf6fe53c4f6c411602c5e5e9e9438fd0ea91413ae00000000"
}