{
  "txid": "e139a677f3c1df1d6804d5966f259b44bebefebb2f39f024d969b6388983acd0",
  "version": 2,
  "locktime": 0,
  "vin": [
    {
      "txid": "12fe58804e9d061a699c82bf621db2a7ea6639dcfa94d259c4b01bfcf95b061a",
      "vout": 20,
      "prevout": {
        "scriptpubkey": "5120ec3844ad42f679a00ab3589a45a8f930a938652074a52a3a259a1a40842c650d",
        "scriptpubkey_asm": "OP_PUSHNUM_1 OP_PUSHBYTES_32 ec3844ad42f679a00ab3589a45a8f930a938652074a52a3a259a1a40842c650d",
        "scriptpubkey_type": "v1_p2tr",
        "scriptpubkey_address": "bc1pasuyft2z7eu6qz4ntzdyt28exz5nsefqwjjj5w39ngdypppvv5xszk376p",
        "value": 2471
      },
      "scriptsig": "",
      "scriptsig_asm": "",
      "witness": [
        "0a5447c3f5022df0fbc8aa8bc84a290c3420d8539354235fd05b3dd4a00a124a0421a46c65c852f2a49bce1aa5ed5f942f56f294e7133b481de453911588c06e",
        "20f3331ce9d387f586d9e2328625e12d389eddb26c4481c1427503a18df144a5a4ac0063036f7264010118746578742f706c61696e3b636861727365743d7574662d38004c947b2270223a2022746170222c20226f70223a2022646d742d6d696e74222c2022646570223a2022366134396139343839376531373435326133633236363131363036323132346331346137333566623335353737303866313533623139666364376238376538336930222c20227469636b223a2022f09f92b0f09f90b8f09f92b0222c2022626c6b223a2022313330383633227d68",
        "c1f3c76533aefc774b0707ddcd1b4941606fa49e3564f0a84ef66fd28168e942d9"
      ],
      "is_coinbase": false,
      "sequence": 4294967295
    }
  ],
  "vout": [
    {
      "scriptpubkey": "51206995824a071ac4f752d81f89304c314d5fe918d3c4d9b534d336bc01090fa188",
      "scriptpubkey_asm": "OP_PUSHNUM_1 OP_PUSHBYTES_32 6995824a071ac4f752d81f89304c314d5fe918d3c4d9b534d336bc01090fa188",
      "scriptpubkey_type": "v1_p2tr",
      "scriptpubkey_address": "bc1pdx2cyjs8rtz0w5kcr7ynqnp3f407jxxncnvm2dxnx67qzzg05xyqy837q4",
      "value": 546
    }
  ],
  "size": 416,
  "weight": 698,
  "fee": 1925,
  "status": {
    "confirmed": true,
    "block_height": 834464,
    "block_hash": "0000000000000000000177a0869a911a2b65c9bdcd5a8bcb02b68f305bee848e",
    "block_time": 1710308296
  },
  "hex": "020000000001011a065bf9fc1bb0c459d294fadc3966eaa7b21d62bf829c691a069d4e8058fe121400000000ffffffff0122020000000000002251206995824a071ac4f752d81f89304c314d5fe918d3c4d9b534d336bc01090fa18803400a5447c3f5022df0fbc8aa8bc84a290c3420d8539354235fd05b3dd4a00a124a0421a46c65c852f2a49bce1aa5ed5f942f56f294e7133b481de453911588c06edb20f3331ce9d387f586d9e2328625e12d389eddb26c4481c1427503a18df144a5a4ac0063036f7264010118746578742f706c61696e3b636861727365743d7574662d38004c947b2270223a2022746170222c20226f70223a2022646d742d6d696e74222c2022646570223a2022366134396139343839376531373435326133633236363131363036323132346331346137333566623335353737303866313533623139666364376238376538336930222c20227469636b223a2022f09f92b0f09f90b8f09f92b0222c2022626c6b223a2022313330383633227d6821c1f3c76533aefc774b0707ddcd1b4941606fa49e3564f0a84ef66fd28168e942d900000000"
}