{
  "txid": "e141d8355689f92037da304b20386368bd04f707bbabc072ff9c61c19b186dff",
  "version": 2,
  "locktime": 0,
  "vin": [
    {
      "txid": "252f99d74fa0f57074c913eef11988f7f846c5f6433171a12fc05c88d845b870",
      "vout": 0,
      "prevout": {
        "scriptpubkey": "0014b7d587c3cbb2b1e2f2e5eead8bb41bd680b5a894",
        "scriptpubkey_asm": "OP_0 OP_PUSHBYTES_20 b7d587c3cbb2b1e2f2e5eead8bb41bd680b5a894",
        "scriptpubkey_type": "v0_p2wpkh",
        "scriptpubkey_address": "bc1qkl2c0s7tk2c79uh9a6kchdqm66qtt2y5jdz7t0",
        "value": 1674095
      },
      "scriptsig": "",
      "scriptsig_asm": "",
      "witness": [
        "304402202d8c614edcfe2d2c42111eac7170d2d44a3e1c11368a7304b3e10c220ac786180220078615aa088ceedb909d8228e425d99dc2cb924d826b79810991b05417afd98001",
        "03f2932f3dbb28bda91fca944d01619575b2ebfef872c2a43adf07fccc65207c0d"
      ],
      "is_coinbase": false,
      "sequence": 4294967293
    }
  ],
  "vout": [
    {
      "scriptpubkey": "00143c55b08d8781cc6d1aa999e8a50cd607e7148640",
      "scriptpubkey_asm": "OP_0 OP_PUSHBYTES_20 3c55b08d8781cc6d1aa999e8a50cd607e7148640",
      "scriptpubkey_type": "v0_p2wpkh",
      "scriptpubkey_address": "bc1q832mprv8s8xx6x4fn8522rxkqln3fpjqqsmmng",
      "value": 74503
    },
    {
      "scriptpubkey": "0014b7d587c3cbb2b1e2f2e5eead8bb41bd680b5a894",
      "scriptpubkey_asm": "OP_0 OP_PUSHBYTES_20 b7d587c3cbb2b1e2f2e5eead8bb41bd680b5a894",
      "scriptpubkey_type": "v0_p2wpkh",
      "scriptpubkey_address": "bc1qkl2c0s7tk2c79uh9a6kchdqm66qtt2y5jdz7t0",
      "value": 1597075
    }
  ],
  "size": 222,
  "weight": 561,
  "fee": 2517,
  "status": {
    "confirmed": true,
    "block_height": 834638,
    "block_hash": "000000000000000000025f742c626208ac87e0b7d15054abb4a19ca2d735a54e",
    "block_time": 1710405325
  },
  "hex": "0200000000010170b845d8885cc02fa1713143f6c546f8f78819f1ee13c97470f5a04fd7992f250000000000fdffffff0207230100000000001600143c55b08d8781cc6d1aa999e8a50cd607e7148640935e180000000000160014b7d587c3cbb2b1e2f2e5eead8bb41bd680b5a8940247304402202d8c614edcfe2d2c42111eac7170d2d44a3e1c11368a7304b3e10c220ac786180220078615aa088ceedb909d8228e425d99dc2cb924d826b79810991b05417afd980012103f2932f3dbb28bda91fca944d01619575b2ebfef872c2a43adf07fccc65207c0d00000000"
}