{
  "txid": "e1506ecb9fc0c2dca76fdefb921a51bb1bd465e95eb6d5a2c4b1f2957f0eb101",
  "version": 2,
  "locktime": 0,
  "vin": [
    {
      "txid": "e4e4eef1ae9f37a4b5edea8f05d8e1dcab4acbd500af542ebd266571c112ed93",
      "vout": 1,
      "prevout": {
        "scriptpubkey": "a914e06a095e31bcd0c470d540a651eee6a9049e136687",
        "scriptpubkey_asm": "OP_HASH160 OP_PUSHBYTES_20 e06a095e31bcd0c470d540a651eee6a9049e1366 OP_EQUAL",
        "scriptpubkey_type": "p2sh",
        "scriptpubkey_address": "3N9cK4kRX3tMfnz9zDTfZyFSne7hUMShJ7",
        "value": 78931
      },
      "scriptsig": "16001428f0ab05b10af94c2a7c22e6af4f9f37821b4d51",
      "scriptsig_asm": "OP_PUSHBYTES_22 001428f0ab05b10af94c2a7c22e6af4f9f37821b4d51",
      "witness": [
        "3044022053bf11053848079b15fa573979390ab77dad1e6b833e07fcb938588d7dc149f40220661d58f0037532171b6d14145761df2e36e73bc01e00ac95f97652ea49cbf4ff01",
        "03914d2604ae8ee74bb6b5fff7c014a40a8dd2888b91a7f50e92c6e1661e22ddfd"
      ],
      "is_coinbase": false,
      "sequence": 2147483649,
      "inner_redeemscript_asm": "OP_0 OP_PUSHBYTES_20 28f0ab05b10af94c2a7c22e6af4f9f37821b4d51"
    },
    {
      "txid": "31b33f4a7224926e423da31f48c37560dd7a9b88eef341c44f7a895f45828aef",
      "vout": 5,
      "prevout": {
        "scriptpubkey": "a914e06a095e31bcd0c470d540a651eee6a9049e136687",
        "scriptpubkey_asm": "OP_HASH160 OP_PUSHBYTES_20 e06a095e31bcd0c470d540a651eee6a9049e1366 OP_EQUAL",
        "scriptpubkey_type": "p2sh",
        "scriptpubkey_address": "3N9cK4kRX3tMfnz9zDTfZyFSne7hUMShJ7",
        "value": 55965
      },
      "scriptsig": "16001428f0ab05b10af94c2a7c22e6af4f9f37821b4d51",
      "scriptsig_asm": "OP_PUSHBYTES_22 001428f0ab05b10af94c2a7c22e6af4f9f37821b4d51",
      "witness": [
        "304402203c25c8467277a638f09dae991d7313df1842d1505f6d1fc39942e2189a4b8c23022078573f87f5f6912ad8ff17468181d3917de2e5efb62cbc1eacc0fae19768930001",
        "03914d2604ae8ee74bb6b5fff7c014a40a8dd2888b91a7f50e92c6e1661e22ddfd"
      ],
      "is_coinbase": false,
      "sequence": 2147483649,
      "inner_redeemscript_asm": "OP_0 OP_PUSHBYTES_20 28f0ab05b10af94c2a7c22e6af4f9f37821b4d51"
    },
    {
      "txid": "4d8f9320b7a28a44a6652b1c2a36021b5d48ad5c06fbf7618970e7d10c34ef01",
      "vout": 1,
      "prevout": {
        "scriptpubkey": "a914e06a095e31bcd0c470d540a651eee6a9049e136687",
        "scriptpubkey_asm": "OP_HASH160 OP_PUSHBYTES_20 e06a095e31bcd0c470d540a651eee6a9049e1366 OP_EQUAL",
        "scriptpubkey_type": "p2sh",
        "scriptpubkey_address": "3N9cK4kRX3tMfnz9zDTfZyFSne7hUMShJ7",
        "value": 4293
      },
      "scriptsig": "16001428f0ab05b10af94c2a7c22e6af4f9f37821b4d51",
      "scriptsig_asm": "OP_PUSHBYTES_22 001428f0ab05b10af94c2a7c22e6af4f9f37821b4d51",
      "witness": [
        "3044022030c32cb864d4f07c7a788689a4bfeed1fdd447db276330ab38b451f6e72a1627022071a9a944ad612f9c8cdb972c356a7480014616b3aec34e3fcdd1e584e6e5ba3201",
        "03914d2604ae8ee74bb6b5fff7c014a40a8dd2888b91a7f50e92c6e1661e22ddfd"
      ],
      "is_coinbase": false,
      "sequence": 2147483649,
      "inner_redeemscript_asm": "OP_0 OP_PUSHBYTES_20 28f0ab05b10af94c2a7c22e6af4f9f37821b4d51"
    },
    {
      "txid": "31b33f4a7224926e423da31f48c37560dd7a9b88eef341c44f7a895f45828aef",
      "vout": 0,
      "prevout": {
        "scriptpubkey": "a914e06a095e31bcd0c470d540a651eee6a9049e136687",
        "scriptpubkey_asm": "OP_HASH160 OP_PUSHBYTES_20 e06a095e31bcd0c470d540a651eee6a9049e1366 OP_EQUAL",
        "scriptpubkey_type": "p2sh",
        "scriptpubkey_address": "3N9cK4kRX3tMfnz9zDTfZyFSne7hUMShJ7",
        "value": 1200
      },
      "scriptsig": "16001428f0ab05b10af94c2a7c22e6af4f9f37821b4d51",
      "scriptsig_asm": "OP_PUSHBYTES_22 001428f0ab05b10af94c2a7c22e6af4f9f37821b4d51",
      "witness": [
        "304402202ab616b038814f5b3498053be22bed330d573796aed868ca2914502b68e1814d02201505acd82f5c5472cfeeee766dea7ada3c3d89d4e1c4b2303771380f1b9b3d9c01",
        "03914d2604ae8ee74bb6b5fff7c014a40a8dd2888b91a7f50e92c6e1661e22ddfd"
      ],
      "is_coinbase": false,
      "sequence": 2147483649,
      "inner_redeemscript_asm": "OP_0 OP_PUSHBYTES_20 28f0ab05b10af94c2a7c22e6af4f9f37821b4d51"
    }
  ],
  "vout": [
    {
      "scriptpubkey": "a9141205c5135d1cb30c480da15a8f2bee248d61e4dd87",
      "scriptpubkey_asm": "OP_HASH160 OP_PUSHBYTES_20 1205c5135d1cb30c480da15a8f2bee248d61e4dd OP_EQUAL",
      "scriptpubkey_type": "p2sh",
      "scriptpubkey_address": "33LJzteYzdwtj6ArFZ9cjPS1cduut6uEuo",
      "value": 133487
    }
  ],
  "size": 728,
  "weight": 1622,
  "fee": 6902,
  "status": {
    "confirmed": true,
    "block_height": 834638,
    "block_hash": "000000000000000000025f742c626208ac87e0b7d15054abb4a19ca2d735a54e",
    "block_time": 1710405325
  },
  "hex": "0200000000010493ed12c1716526bd2e54af00d5cb4aabdce1d8058feaedb5a4379faef1eee4e4010000001716001428f0ab05b10af94c2a7c22e6af4f9f37821b4d5101000080ef8a82455f897a4fc441f3ee889b7add6075c3481fa33d426e9224724a3fb331050000001716001428f0ab05b10af94c2a7c22e6af4f9f37821b4d510100008001ef340cd1e7708961f7fb065cad485d1b02362a1c2b65a6448aa2b720938f4d010000001716001428f0ab05b10af94c2a7c22e6af4f9f37821b4d5101000080ef8a82455f897a4fc441f3ee889b7add6075c3481fa33d426e9224724a3fb331000000001716001428f0ab05b10af94c2a7c22e6af4f9f37821b4d5101000080016f0902000000000017a9141205c5135d1cb30c480da15a8f2bee248d61e4dd8702473044022053bf11053848079b15fa573979390ab77dad1e6b833e07fcb938588d7dc149f40220661d58f0037532171b6d14145761df2e36e73bc01e00ac95f97652ea49cbf4ff012103914d2604ae8ee74bb6b5fff7c014a40a8dd2888b91a7f50e92c6e1661e22ddfd0247304402203c25c8467277a638f09dae991d7313df1842d1505f6d1fc39942e2189a4b8c23022078573f87f5f6912ad8ff17468181d3917de2e5efb62cbc1eacc0fae197689300012103914d2604ae8ee74bb6b5fff7c014a40a8dd2888b91a7f50e92c6e1661e22ddfd02473044022030c32cb864d4f07c7a788689a4bfeed1fdd447db276330ab38b451f6e72a1627022071a9a944ad612f9c8cdb972c356a7480014616b3aec34e3fcdd1e584e6e5ba32012103914d2604ae8ee74bb6b5fff7c014a40a8dd2888b91a7f50e92c6e1661e22ddfd0247304402202ab616b038814f5b3498053be22bed330d573796aed868ca2914502b68e1814d02201505acd82f5c5472cfeeee766dea7ada3c3d89d4e1c4b2303771380f1b9b3d9c012103914d2604ae8ee74bb6b5fff7c014a40a8dd2888b91a7f50e92c6e1661e22ddfd00000000"
}