{
  "txid": "e1567e80b846ec7b28f3c5fa09a0c05b7799b5b70eea2db7f5ee1dfa65f8b7a9",
  "version": 2,
  "locktime": 0,
  "vin": [
    {
      "txid": "945ba8d4ae757dce36cd5e5b9cb282a5396c6e6972016ea5d78f63b2e8fe9e52",
      "vout": 14,
      "prevout": {
        "scriptpubkey": "5120034a95ed398673fc08b17600455b8aa808013891faddd12fd259760733319978",
        "scriptpubkey_asm": "OP_PUSHNUM_1 OP_PUSHBYTES_32 034a95ed398673fc08b17600455b8aa808013891faddd12fd259760733319978",
        "scriptpubkey_type": "v1_p2tr",
        "scriptpubkey_address": "bc1pqd9ftmfeseelcz93wcqy2ku24qyqzwy3ltwazt7jt9mqwve3n9uq0scx9h",
        "value": 2850
      },
      "scriptsig": "",
      "scriptsig_asm": "",
      "witness": [
        "e6fba9807c98bc67680660141771f51dc5529dcbc42a309ef86296fc023288d80c2f9a1f015a709db981810a3efc083790791a35c8e772d6a229311330ad189a",
        "20234a29290c5b4a8064c96ce0f8157ec0eecc94fa543579f39c99e21e5be8f8f2ac0063036f726401011e6170706c69636174696f6e2f6a736f6e3b636861727365743d7574662d38004cd27b2270223a22706f772d3230222c226f70223a226d696e74222c227469636b223a2250455045222c22616d74223a2231303030222c22736f6c7574696f6e223a22504550453a62633170367a67656779647861737432786571616535763930396434396a323636786e707a6178776634386336786b736871703766797a717734733761663a303030303030303030303030303030303030303139393431613561653132383937363539383134343239323533333030353762306461393666336465613163353a36323235393435373130227d68",
        "c15067337a99a00666fd957e65b5c212a7b30f6b410af3fccba2d4635da920c85e"
      ],
      "is_coinbase": false,
      "sequence": 4294967295
    }
  ],
  "vout": [
    {
      "scriptpubkey": "5120d0919411a6ec16a3641dcd185795b52c95ad1a61174ce4d4f8d1ad0b803e4904",
      "scriptpubkey_asm": "OP_PUSHNUM_1 OP_PUSHBYTES_32 d0919411a6ec16a3641dcd185795b52c95ad1a61174ce4d4f8d1ad0b803e4904",
      "scriptpubkey_type": "v1_p2tr",
      "scriptpubkey_address": "bc1p6zgegydxast2xeqae5v909d49j266xnpzaxwf48c6xkshqp7fyzqw4s7af",
      "value": 546
    }
  ],
  "size": 486,
  "weight": 768,
  "fee": 2304,
  "status": {
    "confirmed": true,
    "block_height": 834460,
    "block_hash": "00000000000000000000484a79b643b2524bbce82e5d8a442013fa5b8905ed98",
    "block_time": 1710307468
  },
  "hex": "02000000000101529efee8b2638fd7a56e0172696e6c39a582b29c5b5ecd36ce7d75aed4a85b940e00000000ffffffff012202000000000000225120d0919411a6ec16a3641dcd185795b52c95ad1a61174ce4d4f8d1ad0b803e49040340e6fba9807c98bc67680660141771f51dc5529dcbc42a309ef86296fc023288d80c2f9a1f015a709db981810a3efc083790791a35c8e772d6a229311330ad189afd1f0120234a29290c5b4a8064c96ce0f8157ec0eecc94fa543579f39c99e21e5be8f8f2ac0063036f726401011e6170706c69636174696f6e2f6a736f6e3b636861727365743d7574662d38004cd27b2270223a22706f772d3230222c226f70223a226d696e74222c227469636b223a2250455045222c22616d74223a2231303030222c22736f6c7574696f6e223a22504550453a62633170367a67656779647861737432786571616535763930396434396a323636786e707a6178776634386336786b736871703766797a717734733761663a303030303030303030303030303030303030303139393431613561653132383937363539383134343239323533333030353762306461393666336465613163353a36323235393435373130227d6821c15067337a99a00666fd957e65b5c212a7b30f6b410af3fccba2d4635da920c85e00000000"
}