{
  "txid": "e1717cdc0a92bf120df74c1c5c15188415e650cd967bbcf433ec66ae8cfb00cf",
  "version": 2,
  "locktime": 0,
  "vin": [
    {
      "txid": "51f3cc652771f944e6d9f9d8838cc137baa0daae833acd6a6c2e730f7fae764d",
      "vout": 1,
      "prevout": {
        "scriptpubkey": "a91442057aafdea7bc4d9e83e813de029a386f262ff687",
        "scriptpubkey_asm": "OP_HASH160 OP_PUSHBYTES_20 42057aafdea7bc4d9e83e813de029a386f262ff6 OP_EQUAL",
        "scriptpubkey_type": "p2sh",
        "scriptpubkey_address": "37i75ugycifB99zQbiGhoQ4mcXpuGaSFWf",
        "value": 347190
      },
      "scriptsig": "1600147c3f01a5be6800429bbf527b5dfacb480e71fa4c",
      "scriptsig_asm": "OP_PUSHBYTES_22 00147c3f01a5be6800429bbf527b5dfacb480e71fa4c",
      "witness": [
        "3044022039811545162e17eb61dc35edede4b97b34d829d3af6da3efacca6996b499f7f002200b07596fbdb4d7b8e435bf6ecfbbe17bb8e40976d99aded8a0651f4f440f2da501",
        "022fec59993449f07f2a5004d5e54c332f9972a04c049833f25447252e5e3ca104"
      ],
      "is_coinbase": false,
      "sequence": 4294967293,
      "inner_redeemscript_asm": "OP_0 OP_PUSHBYTES_20 7c3f01a5be6800429bbf527b5dfacb480e71fa4c"
    }
  ],
  "vout": [
    {
      "scriptpubkey": "a91486bb8a68fa3f1a361ccaf25f607ac9119097a2cd87",
      "scriptpubkey_asm": "OP_HASH160 OP_PUSHBYTES_20 86bb8a68fa3f1a361ccaf25f607ac9119097a2cd OP_EQUAL",
      "scriptpubkey_type": "p2sh",
      "scriptpubkey_address": "3DyR8oWyA9VfQHDW6TkGxVJspyJ3h5YPY4",
      "value": 110371
    },
    {
      "scriptpubkey": "a91482d3309d96a33fd199eade4f597c8c0097f8af9587",
      "scriptpubkey_asm": "OP_HASH160 OP_PUSHBYTES_20 82d3309d96a33fd199eade4f597c8c0097f8af95 OP_EQUAL",
      "scriptpubkey_type": "p2sh",
      "scriptpubkey_address": "3DckmDLZbzXrXTq5GJq6eNwTt4E2LUEob1",
      "value": 5000
    },
    {
      "scriptpubkey": "a91442057aafdea7bc4d9e83e813de029a386f262ff687",
      "scriptpubkey_asm": "OP_HASH160 OP_PUSHBYTES_20 42057aafdea7bc4d9e83e813de029a386f262ff6 OP_EQUAL",
      "scriptpubkey_type": "p2sh",
      "scriptpubkey_address": "37i75ugycifB99zQbiGhoQ4mcXpuGaSFWf",
      "value": 227079
    }
  ],
  "size": 279,
  "weight": 789,
  "fee": 4740,
  "status": {
    "confirmed": true,
    "block_height": 834638,
    "block_hash": "000000000000000000025f742c626208ac87e0b7d15054abb4a19ca2d735a54e",
    "block_time": 1710405325
  },
  "hex": "020000000001014d76ae7f0f732e6c6acd3a83aedaa0ba37c18c83d8f9d9e644f9712765ccf35101000000171600147c3f01a5be6800429bbf527b5dfacb480e71fa4cfdffffff0323af01000000000017a91486bb8a68fa3f1a361ccaf25f607ac9119097a2cd87881300000000000017a91482d3309d96a33fd199eade4f597c8c0097f8af9587077703000000000017a91442057aafdea7bc4d9e83e813de029a386f262ff68702473044022039811545162e17eb61dc35edede4b97b34d829d3af6da3efacca6996b499f7f002200b07596fbdb4d7b8e435bf6ecfbbe17bb8e40976d99aded8a0651f4f440f2da50121022fec59993449f07f2a5004d5e54c332f9972a04c049833f25447252e5e3ca10400000000"
}