{
  "txid": "e18765de896abbaf0e08a941c7575c88b194c5bdd7e814e0ab40c15a33e78267",
  "version": 2,
  "locktime": 0,
  "vin": [
    {
      "txid": "ed47d52b140e51ff466a4a193d4d4d27946479b48f9db2802c3840709108d0dc",
      "vout": 0,
      "prevout": {
        "scriptpubkey": "5120900ca425cb23f8f32e6da65340731dd4a9d0e96f893097f26b470a5d19c58596",
        "scriptpubkey_asm": "OP_PUSHNUM_1 OP_PUSHBYTES_32 900ca425cb23f8f32e6da65340731dd4a9d0e96f893097f26b470a5d19c58596",
        "scriptpubkey_type": "v1_p2tr",
        "scriptpubkey_address": "bc1pjqx2gfwty0u0xtnd5ef5quca6j5ap6t03ycf0untgu996xw9sktqu4ysf3",
        "value": 55760
      },
      "scriptsig": "",
      "scriptsig_asm": "",
      "witness": [
        "8079f2bb84afb25774eeaf698d75ae216a851f5987130f8eb0a507ed2ac08f3a96303872bcc4be3f36c4e153017c421a2a07659088930a5404917901dcd7fb42",
        "20adf97e57d7687f3d81c12e2072a6120fd713ab8d1e4f3c5022f7040900dc9700ac0063036f726401010a746578742f706c61696e00367b2270223a226272632d3230222c227469636b223a2261616161222c226f70223a226d696e74222c22616d74223a223130303030227d68",
        "c0adf97e57d7687f3d81c12e2072a6120fd713ab8d1e4f3c5022f7040900dc9700"
      ],
      "is_coinbase": false,
      "sequence": 4294967293
    }
  ],
  "vout": [
    {
      "scriptpubkey": "5120a8a52c81dec73e0cbd794dc04f23d32215f3518b50f71ba9410b1100e5f31991",
      "scriptpubkey_asm": "OP_PUSHNUM_1 OP_PUSHBYTES_32 a8a52c81dec73e0cbd794dc04f23d32215f3518b50f71ba9410b1100e5f31991",
      "scriptpubkey_type": "v1_p2tr",
      "scriptpubkey_address": "bc1p4zjjeqw7culqe0tefhqy7g7nyg2lx5vt2rm3h22ppvgspe0nrxgsyqu2tu",
      "value": 546
    },
    {
      "scriptpubkey": "5120900ca425cb23f8f32e6da65340731dd4a9d0e96f893097f26b470a5d19c58596",
      "scriptpubkey_asm": "OP_PUSHNUM_1 OP_PUSHBYTES_32 900ca425cb23f8f32e6da65340731dd4a9d0e96f893097f26b470a5d19c58596",
      "scriptpubkey_type": "v1_p2tr",
      "scriptpubkey_address": "bc1pjqx2gfwty0u0xtnd5ef5quca6j5ap6t03ycf0untgu996xw9sktqu4ysf3",
      "value": 2755
    },
    {
      "scriptpubkey": "5120900ca425cb23f8f32e6da65340731dd4a9d0e96f893097f26b470a5d19c58596",
      "scriptpubkey_asm": "OP_PUSHNUM_1 OP_PUSHBYTES_32 900ca425cb23f8f32e6da65340731dd4a9d0e96f893097f26b470a5d19c58596",
      "scriptpubkey_type": "v1_p2tr",
      "scriptpubkey_address": "bc1pjqx2gfwty0u0xtnd5ef5quca6j5ap6t03ycf0untgu996xw9sktqu4ysf3",
      "value": 2755
    },
    {
      "scriptpubkey": "5120900ca425cb23f8f32e6da65340731dd4a9d0e96f893097f26b470a5d19c58596",
      "scriptpubkey_asm": "OP_PUSHNUM_1 OP_PUSHBYTES_32 900ca425cb23f8f32e6da65340731dd4a9d0e96f893097f26b470a5d19c58596",
      "scriptpubkey_type": "v1_p2tr",
      "scriptpubkey_address": "bc1pjqx2gfwty0u0xtnd5ef5quca6j5ap6t03ycf0untgu996xw9sktqu4ysf3",
      "value": 2755
    },
    {
      "scriptpubkey": "5120900ca425cb23f8f32e6da65340731dd4a9d0e96f893097f26b470a5d19c58596",
      "scriptpubkey_asm": "OP_PUSHNUM_1 OP_PUSHBYTES_32 900ca425cb23f8f32e6da65340731dd4a9d0e96f893097f26b470a5d19c58596",
      "scriptpubkey_type": "v1_p2tr",
      "scriptpubkey_address": "bc1pjqx2gfwty0u0xtnd5ef5quca6j5ap6t03ycf0untgu996xw9sktqu4ysf3",
      "value": 2755
    },
    {
      "scriptpubkey": "5120900ca425cb23f8f32e6da65340731dd4a9d0e96f893097f26b470a5d19c58596",
      "scriptpubkey_asm": "OP_PUSHNUM_1 OP_PUSHBYTES_32 900ca425cb23f8f32e6da65340731dd4a9d0e96f893097f26b470a5d19c58596",
      "scriptpubkey_type": "v1_p2tr",
      "scriptpubkey_address": "bc1pjqx2gfwty0u0xtnd5ef5quca6j5ap6t03ycf0untgu996xw9sktqu4ysf3",
      "value": 2755
    },
    {
      "scriptpubkey": "5120900ca425cb23f8f32e6da65340731dd4a9d0e96f893097f26b470a5d19c58596",
      "scriptpubkey_asm": "OP_PUSHNUM_1 OP_PUSHBYTES_32 900ca425cb23f8f32e6da65340731dd4a9d0e96f893097f26b470a5d19c58596",
      "scriptpubkey_type": "v1_p2tr",
      "scriptpubkey_address": "bc1pjqx2gfwty0u0xtnd5ef5quca6j5ap6t03ycf0untgu996xw9sktqu4ysf3",
      "value": 2755
    },
    {
      "scriptpubkey": "5120900ca425cb23f8f32e6da65340731dd4a9d0e96f893097f26b470a5d19c58596",
      "scriptpubkey_asm": "OP_PUSHNUM_1 OP_PUSHBYTES_32 900ca425cb23f8f32e6da65340731dd4a9d0e96f893097f26b470a5d19c58596",
      "scriptpubkey_type": "v1_p2tr",
      "scriptpubkey_address": "bc1pjqx2gfwty0u0xtnd5ef5quca6j5ap6t03ycf0untgu996xw9sktqu4ysf3",
      "value": 2755
    },
    {
      "scriptpubkey": "5120900ca425cb23f8f32e6da65340731dd4a9d0e96f893097f26b470a5d19c58596",
      "scriptpubkey_asm": "OP_PUSHNUM_1 OP_PUSHBYTES_32 900ca425cb23f8f32e6da65340731dd4a9d0e96f893097f26b470a5d19c58596",
      "scriptpubkey_type": "v1_p2tr",
      "scriptpubkey_address": "bc1pjqx2gfwty0u0xtnd5ef5quca6j5ap6t03ycf0untgu996xw9sktqu4ysf3",
      "value": 2755
    },
    {
      "scriptpubkey": "5120900ca425cb23f8f32e6da65340731dd4a9d0e96f893097f26b470a5d19c58596",
      "scriptpubkey_asm": "OP_PUSHNUM_1 OP_PUSHBYTES_32 900ca425cb23f8f32e6da65340731dd4a9d0e96f893097f26b470a5d19c58596",
      "scriptpubkey_type": "v1_p2tr",
      "scriptpubkey_address": "bc1pjqx2gfwty0u0xtnd5ef5quca6j5ap6t03ycf0untgu996xw9sktqu4ysf3",
      "value": 2755
    },
    {
      "scriptpubkey": "5120900ca425cb23f8f32e6da65340731dd4a9d0e96f893097f26b470a5d19c58596",
      "scriptpubkey_asm": "OP_PUSHNUM_1 OP_PUSHBYTES_32 900ca425cb23f8f32e6da65340731dd4a9d0e96f893097f26b470a5d19c58596",
      "scriptpubkey_type": "v1_p2tr",
      "scriptpubkey_address": "bc1pjqx2gfwty0u0xtnd5ef5quca6j5ap6t03ycf0untgu996xw9sktqu4ysf3",
      "value": 2755
    },
    {
      "scriptpubkey": "5120900ca425cb23f8f32e6da65340731dd4a9d0e96f893097f26b470a5d19c58596",
      "scriptpubkey_asm": "OP_PUSHNUM_1 OP_PUSHBYTES_32 900ca425cb23f8f32e6da65340731dd4a9d0e96f893097f26b470a5d19c58596",
      "scriptpubkey_type": "v1_p2tr",
      "scriptpubkey_address": "bc1pjqx2gfwty0u0xtnd5ef5quca6j5ap6t03ycf0untgu996xw9sktqu4ysf3",
      "value": 2755
    },
    {
      "scriptpubkey": "5120900ca425cb23f8f32e6da65340731dd4a9d0e96f893097f26b470a5d19c58596",
      "scriptpubkey_asm": "OP_PUSHNUM_1 OP_PUSHBYTES_32 900ca425cb23f8f32e6da65340731dd4a9d0e96f893097f26b470a5d19c58596",
      "scriptpubkey_type": "v1_p2tr",
      "scriptpubkey_address": "bc1pjqx2gfwty0u0xtnd5ef5quca6j5ap6t03ycf0untgu996xw9sktqu4ysf3",
      "value": 2755
    },
    {
      "scriptpubkey": "5120900ca425cb23f8f32e6da65340731dd4a9d0e96f893097f26b470a5d19c58596",
      "scriptpubkey_asm": "OP_PUSHNUM_1 OP_PUSHBYTES_32 900ca425cb23f8f32e6da65340731dd4a9d0e96f893097f26b470a5d19c58596",
      "scriptpubkey_type": "v1_p2tr",
      "scriptpubkey_address": "bc1pjqx2gfwty0u0xtnd5ef5quca6j5ap6t03ycf0untgu996xw9sktqu4ysf3",
      "value": 2755
    },
    {
      "scriptpubkey": "5120900ca425cb23f8f32e6da65340731dd4a9d0e96f893097f26b470a5d19c58596",
      "scriptpubkey_asm": "OP_PUSHNUM_1 OP_PUSHBYTES_32 900ca425cb23f8f32e6da65340731dd4a9d0e96f893097f26b470a5d19c58596",
      "scriptpubkey_type": "v1_p2tr",
      "scriptpubkey_address": "bc1pjqx2gfwty0u0xtnd5ef5quca6j5ap6t03ycf0untgu996xw9sktqu4ysf3",
      "value": 2755
    },
    {
      "scriptpubkey": "0014641575c29c7eecfd7499c363b3d030a3a99df0cb",
      "scriptpubkey_asm": "OP_0 OP_PUSHBYTES_20 641575c29c7eecfd7499c363b3d030a3a99df0cb",
      "scriptpubkey_type": "v0_p2wpkh",
      "scriptpubkey_address": "bc1qvs2hts5u0mk06ayecd3m85ps5w5emuxtlxeg9x",
      "value": 4929
    }
  ],
  "size": 940,
  "weight": 3121,
  "fee": 11715,
  "status": {
    "confirmed": true,
    "block_height": 834460,
    "block_hash": "00000000000000000000484a79b643b2524bbce82e5d8a442013fa5b8905ed98",
    "block_time": 1710307468
  },
  "hex": "02000000000101dcd008917040382c80b29d8fb4796494274d4d3d194a6a46ff510e142bd547ed0000000000fdffffff102202000000000000225120a8a52c81dec73e0cbd794dc04f23d32215f3518b50f71ba9410b1100e5f31991c30a000000000000225120900ca425cb23f8f32e6da65340731dd4a9d0e96f893097f26b470a5d19c58596c30a000000000000225120900ca425cb23f8f32e6da65340731dd4a9d0e96f893097f26b470a5d19c58596c30a000000000000225120900ca425cb23f8f32e6da65340731dd4a9d0e96f893097f26b470a5d19c58596c30a000000000000225120900ca425cb23f8f32e6da65340731dd4a9d0e96f893097f26b470a5d19c58596c30a000000000000225120900ca425cb23f8f32e6da65340731dd4a9d0e96f893097f26b470a5d19c58596c30a000000000000225120900ca425cb23f8f32e6da65340731dd4a9d0e96f893097f26b470a5d19c58596c30a000000000000225120900ca425cb23f8f32e6da65340731dd4a9d0e96f893097f26b470a5d19c58596c30a000000000000225120900ca425cb23f8f32e6da65340731dd4a9d0e96f893097f26b470a5d19c58596c30a000000000000225120900ca425cb23f8f32e6da65340731dd4a9d0e96f893097f26b470a5d19c58596c30a000000000000225120900ca425cb23f8f32e6da65340731dd4a9d0e96f893097f26b470a5d19c58596c30a000000000000225120900ca425cb23f8f32e6da65340731dd4a9d0e96f893097f26b470a5d19c58596c30a000000000000225120900ca425cb23f8f32e6da65340731dd4a9d0e96f893097f26b470a5d19c58596c30a000000000000225120900ca425cb23f8f32e6da65340731dd4a9d0e96f893097f26b470a5d19c58596c30a000000000000225120900ca425cb23f8f32e6da65340731dd4a9d0e96f893097f26b470a5d19c585964113000000000000160014641575c29c7eecfd7499c363b3d030a3a99df0cb03408079f2bb84afb25774eeaf698d75ae216a851f5987130f8eb0a507ed2ac08f3a96303872bcc4be3f36c4e153017c421a2a07659088930a5404917901dcd7fb426e20adf97e57d7687f3d81c12e2072a6120fd713ab8d1e4f3c5022f7040900dc9700ac0063036f726401010a746578742f706c61696e00367b2270223a226272632d3230222c227469636b223a2261616161222c226f70223a226d696e74222c22616d74223a223130303030227d6821c0adf97e57d7687f3d81c12e2072a6120fd713ab8d1e4f3c5022f7040900dc970000000000"
}