{
  "txid": "e19105cb5169fef6aa83b852317286f073808f418c69311b0ebe406ef87bbe19",
  "version": 1,
  "locktime": 0,
  "vin": [
    {
      "txid": "1ea9aae3c7e9df0c899819e928aa6a1d740d102776c637d9d52633256c0777ab",
      "vout": 0,
      "prevout": {
        "scriptpubkey": "51200ff71da4716e7ce7b371d0370b2c2fa99342e543667b245a84d1f20ada079611",
        "scriptpubkey_asm": "OP_PUSHNUM_1 OP_PUSHBYTES_32 0ff71da4716e7ce7b371d0370b2c2fa99342e543667b245a84d1f20ada079611",
        "scriptpubkey_type": "v1_p2tr",
        "scriptpubkey_address": "bc1pplm3mfr3de7w0vm36qmsktp04xf59e2rveajgk5y68eq4ks8jcgsjlxeeg",
        "value": 4893418
      },
      "scriptsig": "",
      "scriptsig_asm": "",
      "witness": [
        "e2c483c991793ae73e12e4ec4b43bcb3bb0f7a43b94cdb46a9316d2c993c4b20d62fbf043bbc3a73ee936ad96c0f0ee0877bb41dc86a9e41f40ed071acbe44f301"
      ],
      "is_coinbase": false,
      "sequence": 4294967295
    }
  ],
  "vout": [
    {
      "scriptpubkey": "51204f56a417f6fb06d4633056ce392ecd1ec0de5b32dcf2ee1a2ea187294c3f0522",
      "scriptpubkey_asm": "OP_PUSHNUM_1 OP_PUSHBYTES_32 4f56a417f6fb06d4633056ce392ecd1ec0de5b32dcf2ee1a2ea187294c3f0522",
      "scriptpubkey_type": "v1_p2tr",
      "scriptpubkey_address": "bc1pfat2g9lklvrdgces2m8rjtkdrmqdukejmnewux3w5xrjjnplq53qftrgac",
      "value": 3449146
    },
    {
      "scriptpubkey": "001433a919ba350f56d4db07b6d44c4bd18232c3f5bc",
      "scriptpubkey_asm": "OP_0 OP_PUSHBYTES_20 33a919ba350f56d4db07b6d44c4bd18232c3f5bc",
      "scriptpubkey_type": "v0_p2wpkh",
      "scriptpubkey_address": "bc1qxw53nw34patdfkc8km2ycj73sgev8adu52yyry",
      "value": 1442208
    }
  ],
  "size": 194,
  "weight": 569,
  "fee": 2064,
  "status": {
    "confirmed": true,
    "block_height": 834638,
    "block_hash": "000000000000000000025f742c626208ac87e0b7d15054abb4a19ca2d735a54e",
    "block_time": 1710405325
  },
  "hex": "01000000000101ab77076c253326d5d937c67627100d741d6aaa28e91998890cdfe9c7e3aaa91e0000000000ffffffff023aa13400000000002251204f56a417f6fb06d4633056ce392ecd1ec0de5b32dcf2ee1a2ea187294c3f0522a00116000000000016001433a919ba350f56d4db07b6d44c4bd18232c3f5bc0141e2c483c991793ae73e12e4ec4b43bcb3bb0f7a43b94cdb46a9316d2c993c4b20d62fbf043bbc3a73ee936ad96c0f0ee0877bb41dc86a9e41f40ed071acbe44f30100000000"
}