{
  "txid": "e19b7b9958d675ad8c6cc33d0f5c2705f6817486c17896637fa499d413ce0233",
  "version": 2,
  "locktime": 834458,
  "vin": [
    {
      "txid": "f63f318215f7389b9d6fa5e6a5dafb802bbed43a84ad6c85f2734ef6f8480a2b",
      "vout": 1,
      "prevout": {
        "scriptpubkey": "512046146b2802589cfeb186ba36ce6243546e787663ae9e9e121e3d443384fe07c2",
        "scriptpubkey_asm": "OP_PUSHNUM_1 OP_PUSHBYTES_32 46146b2802589cfeb186ba36ce6243546e787663ae9e9e121e3d443384fe07c2",
        "scriptpubkey_type": "v1_p2tr",
        "scriptpubkey_address": "bc1pgc2xk2qztzw0avvxhgmvucjr23h8sanr460fuys784zr8p87qlpq0x9ee5",
        "value": 47396999
      },
      "scriptsig": "",
      "scriptsig_asm": "",
      "witness": [
        "29cdf1d1c01f7f0662f71f67178b24ff2dea0de7d454a983de6d8edbc1b26c2fb1838ac5142043673d64c841c6bc98c4dbddac30c38d33887a2d0102b0ec90d0"
      ],
      "is_coinbase": false,
      "sequence": 4294967293
    }
  ],
  "vout": [
    {
      "scriptpubkey": "00205ff5925953826405382a8b446ab77956b99ccabb2f37ec8685d9510e860e61f8",
      "scriptpubkey_asm": "OP_0 OP_PUSHBYTES_32 5ff5925953826405382a8b446ab77956b99ccabb2f37ec8685d9510e860e61f8",
      "scriptpubkey_type": "v0_p2wsh",
      "scriptpubkey_address": "bc1qtl6eyk2nsfjq2wp23dzx4dme26ueej4m9um7ep59m9gsapswv8uqzp3u05",
      "value": 133875
    },
    {
      "scriptpubkey": "51201f1ad83fe335f6465e989d36f0758c5170ca211922b9e23f62cc5a3f3d1abcab",
      "scriptpubkey_asm": "OP_PUSHNUM_1 OP_PUSHBYTES_32 1f1ad83fe335f6465e989d36f0758c5170ca211922b9e23f62cc5a3f3d1abcab",
      "scriptpubkey_type": "v1_p2tr",
      "scriptpubkey_address": "bc1prudds0lrxhmyvh5cn5m0qavv29cv5ggey2u7y0mze3dr70g6hj4srdvdc8",
      "value": 47260825
    }
  ],
  "size": 205,
  "weight": 616,
  "fee": 2299,
  "status": {
    "confirmed": true,
    "block_height": 834460,
    "block_hash": "00000000000000000000484a79b643b2524bbce82e5d8a442013fa5b8905ed98",
    "block_time": 1710307468
  },
  "hex": "020000000001012b0a48f8f64e73f2856cad843ad4be2b80fbdaa5e6a56f9d9b38f71582313ff60100000000fdffffff02f30a0200000000002200205ff5925953826405382a8b446ab77956b99ccabb2f37ec8685d9510e860e61f89924d102000000002251201f1ad83fe335f6465e989d36f0758c5170ca211922b9e23f62cc5a3f3d1abcab014029cdf1d1c01f7f0662f71f67178b24ff2dea0de7d454a983de6d8edbc1b26c2fb1838ac5142043673d64c841c6bc98c4dbddac30c38d33887a2d0102b0ec90d09abb0c00"
}