{
  "txid": "e19ec8ef252fb24a7f74466d93d7544cc5bd017ba084a7c6671a14f174f8ce66",
  "version": 2,
  "locktime": 0,
  "vin": [
    {
      "txid": "754123cf02601405c7c0d6529abbbe2d55a6339374dac045dcf3239e44ae4b1b",
      "vout": 1,
      "prevout": {
        "scriptpubkey": "0014e7e0a86b00a4869ffa2587d11777b3a133f51ff1",
        "scriptpubkey_asm": "OP_0 OP_PUSHBYTES_20 e7e0a86b00a4869ffa2587d11777b3a133f51ff1",
        "scriptpubkey_type": "v0_p2wpkh",
        "scriptpubkey_address": "bc1quls2s6cq5jrfl739slg3waan5yel28l3ncphqr",
        "value": 679875
      },
      "scriptsig": "",
      "scriptsig_asm": "",
      "witness": [
        "304402207fb83c790091ca6d927cfecf62def9c0ef5a1e765627e2d1088834062b8585bd02200f1074c6cb7d610555773b9d3044737c350a18f72835cb8f56073811dfb448ea01",
        "0249ea2b59807ca9e4c2fe160653073c335c6ce25a84d29f192f8d95952e80975f"
      ],
      "is_coinbase": false,
      "sequence": 4294967295
    }
  ],
  "vout": [
    {
      "scriptpubkey": "a914268edb112de53864a2048fe4271f43af8f2e3aa287",
      "scriptpubkey_asm": "OP_HASH160 OP_PUSHBYTES_20 268edb112de53864a2048fe4271f43af8f2e3aa2 OP_EQUAL",
      "scriptpubkey_type": "p2sh",
      "scriptpubkey_address": "35Ctjd7iTv4BRtsjv3qzX4evv7353Lqvo9",
      "value": 203932
    },
    {
      "scriptpubkey": "0014e7e0a86b00a4869ffa2587d11777b3a133f51ff1",
      "scriptpubkey_asm": "OP_0 OP_PUSHBYTES_20 e7e0a86b00a4869ffa2587d11777b3a133f51ff1",
      "scriptpubkey_type": "v0_p2wpkh",
      "scriptpubkey_address": "bc1quls2s6cq5jrfl739slg3waan5yel28l3ncphqr",
      "value": 473211
    }
  ],
  "size": 223,
  "weight": 565,
  "fee": 2732,
  "status": {
    "confirmed": true,
    "block_height": 834638,
    "block_hash": "000000000000000000025f742c626208ac87e0b7d15054abb4a19ca2d735a54e",
    "block_time": 1710405325
  },
  "hex": "020000000001011b4bae449e23f3dc45c0da749333a6552dbebb9a52d6c0c705146002cf2341750100000000ffffffff029c1c03000000000017a914268edb112de53864a2048fe4271f43af8f2e3aa2877b38070000000000160014e7e0a86b00a4869ffa2587d11777b3a133f51ff10247304402207fb83c790091ca6d927cfecf62def9c0ef5a1e765627e2d1088834062b8585bd02200f1074c6cb7d610555773b9d3044737c350a18f72835cb8f56073811dfb448ea01210249ea2b59807ca9e4c2fe160653073c335c6ce25a84d29f192f8d95952e80975f00000000"
}