{
  "txid": "e1b912f72b5ea807cd51479f803c46658f78110f6a7cca7f476db7df0e2c3bbc",
  "version": 1,
  "locktime": 0,
  "vin": [
    {
      "txid": "441aa561c1d3235d7fbbe442762c646debe741fdabd5f51108353d1e9c2b129b",
      "vout": 59,
      "prevout": {
        "scriptpubkey": "00141b6e5603d36a596327fb53851b6a81c8f34231b9",
        "scriptpubkey_asm": "OP_0 OP_PUSHBYTES_20 1b6e5603d36a596327fb53851b6a81c8f34231b9",
        "scriptpubkey_type": "v0_p2wpkh",
        "scriptpubkey_address": "bc1qrdh9vq7ndfvkxflm2wz3k65pere5yvdeqzeqt5",
        "value": 24000
      },
      "scriptsig": "",
      "scriptsig_asm": "",
      "witness": [
        "304402206b8534bb023cc310f312d8343bb7267214c43d4fa0a827118eccd199e1c908300220441dedfa47f98c4a551464c2ede8dd033990dfc8bd3834a86ee7d9ba6cf83eca01",
        "0390c02bc66feee6857b0ed000a9ac1a88a013c2883506ec6d706de3d77bd1f00a"
      ],
      "is_coinbase": false,
      "sequence": 0
    },
    {
      "txid": "df4aa32e8f2babf789331765183d491ac0257912acaea2120a8f42fa128a8d13",
      "vout": 42,
      "prevout": {
        "scriptpubkey": "0014d0792f43598abba1476c414c928ec573b4f2c893",
        "scriptpubkey_asm": "OP_0 OP_PUSHBYTES_20 d0792f43598abba1476c414c928ec573b4f2c893",
        "scriptpubkey_type": "v0_p2wpkh",
        "scriptpubkey_address": "bc1q6puj7s6e32a6z3mvg9xf9rk9ww609jyndc8t0t",
        "value": 10439963
      },
      "scriptsig": "",
      "scriptsig_asm": "",
      "witness": [
        "3045022100cb0d46d1c409a31fd936fea10c8507646e8f23334bbb73fa03a8085986bb5d880220448f7c2cb771a58b4ad48386bf7e82d8793ffaf26952d61a2f9c97247b1a70b401",
        "02477379382abe3ddf19bad5cd28534360dbbbb07d45363ba130c213b8443a0228"
      ],
      "is_coinbase": false,
      "sequence": 0
    }
  ],
  "vout": [
    {
      "scriptpubkey": "76a914e44069ebe247b446deb4d3d9d59408323447687c88ac",
      "scriptpubkey_asm": "OP_DUP OP_HASH160 OP_PUSHBYTES_20 e44069ebe247b446deb4d3d9d59408323447687c OP_EQUALVERIFY OP_CHECKSIG",
      "scriptpubkey_type": "p2pkh",
      "scriptpubkey_address": "1MotEHSohxRp6QPJTdqNo9tfyWnufSpqu7",
      "value": 10459076
    }
  ],
  "size": 343,
  "weight": 721,
  "fee": 4887,
  "status": {
    "confirmed": true,
    "block_height": 834638,
    "block_hash": "000000000000000000025f742c626208ac87e0b7d15054abb4a19ca2d735a54e",
    "block_time": 1710405325
  },
  "hex": "010000000001029b122b9c1e3d350811f5d5abfd41e7eb6d642c7642e4bb7f5d23d3c161a51a443b0000000000000000138d8a12fa428f0a12a2aeac127925c01a493d1865173389f7ab2b8f2ea34adf2a000000000000000001c4979f00000000001976a914e44069ebe247b446deb4d3d9d59408323447687c88ac0247304402206b8534bb023cc310f312d8343bb7267214c43d4fa0a827118eccd199e1c908300220441dedfa47f98c4a551464c2ede8dd033990dfc8bd3834a86ee7d9ba6cf83eca01210390c02bc66feee6857b0ed000a9ac1a88a013c2883506ec6d706de3d77bd1f00a02483045022100cb0d46d1c409a31fd936fea10c8507646e8f23334bbb73fa03a8085986bb5d880220448f7c2cb771a58b4ad48386bf7e82d8793ffaf26952d61a2f9c97247b1a70b4012102477379382abe3ddf19bad5cd28534360dbbbb07d45363ba130c213b8443a022800000000"
}