{
  "txid": "e1b968d03fc7bfb177094d14770e1d76cbe19ed2569e9bc169455cb83e37c90d",
  "version": 2,
  "locktime": 832833,
  "vin": [
    {
      "txid": "4187f49b0c11730fa866349fe81ff468460f786f4493c43b42a64e02799f45a5",
      "vout": 0,
      "prevout": {
        "scriptpubkey": "001482de54f8dee73234dc297c4f7a3334981b69f436",
        "scriptpubkey_asm": "OP_0 OP_PUSHBYTES_20 82de54f8dee73234dc297c4f7a3334981b69f436",
        "scriptpubkey_type": "v0_p2wpkh",
        "scriptpubkey_address": "bc1qst09f7x7uuerfhpf038h5ve5nqdknapk5f7fwg",
        "value": 19015
      },
      "scriptsig": "",
      "scriptsig_asm": "",
      "witness": [
        "304402201537210e1a42bb6c2cecb28cbe472cfa067d18c4c353b88af17b2b1f7843412002203e026d4cda72ca9d903cc2f90c0a6068755266c4373bcec84b8520cc836f4adb01",
        "03933cde44ea23ac6e50f5938ca898034c2c1bba11139f8eb760a3e719964d2f81"
      ],
      "is_coinbase": false,
      "sequence": 4294967293
    }
  ],
  "vout": [
    {
      "scriptpubkey": "0014673c338da2de38c9fd3e946b0c9699004e66151b",
      "scriptpubkey_asm": "OP_0 OP_PUSHBYTES_20 673c338da2de38c9fd3e946b0c9699004e66151b",
      "scriptpubkey_type": "v0_p2wpkh",
      "scriptpubkey_address": "bc1qvu7r8rdzmcuvnlf7j34se95eqp8xv9gmsz5g2l",
      "value": 17990
    }
  ],
  "size": 191,
  "weight": 437,
  "fee": 1025,
  "status": {
    "confirmed": true,
    "block_height": 834464,
    "block_hash": "0000000000000000000177a0869a911a2b65c9bdcd5a8bcb02b68f305bee848e",
    "block_time": 1710308296
  },
  "hex": "02000000000101a5459f79024ea6423bc493446f780f4668f41fe89f3466a80f73110c9bf487410000000000fdffffff014646000000000000160014673c338da2de38c9fd3e946b0c9699004e66151b0247304402201537210e1a42bb6c2cecb28cbe472cfa067d18c4c353b88af17b2b1f7843412002203e026d4cda72ca9d903cc2f90c0a6068755266c4373bcec84b8520cc836f4adb012103933cde44ea23ac6e50f5938ca898034c2c1bba11139f8eb760a3e719964d2f8141b50c00"
}