{
  "txid": "e1c6c8650c2e262f08e1f37f1bcb80f9bb1ccd466274360559c345288cb602d5",
  "version": 2,
  "locktime": 0,
  "vin": [
    {
      "txid": "0b6cc8e7eb05ed487f0a4044f534f69006a7d65a4389a3599a168c78ba4e45ac",
      "vout": 12,
      "prevout": {
        "scriptpubkey": "76a914b847024a0e0f8c9b3d2d209cd413a521be67e9d188ac",
        "scriptpubkey_asm": "OP_DUP OP_HASH160 OP_PUSHBYTES_20 b847024a0e0f8c9b3d2d209cd413a521be67e9d1 OP_EQUALVERIFY OP_CHECKSIG",
        "scriptpubkey_type": "p2pkh",
        "scriptpubkey_address": "1HoNQ5uegQu1MU7S7fN2ZDrN6V8vPzsYou",
        "value": 55000
      },
      "scriptsig": "4730440220014a0cece42f017211951be017f129806b337d1fca1d9876f2699966edc0095d0220575d229139038ff540d6d6cb8dc871f4faf1dbd091eb6ae68314569f3cfaf95f0121026001efbfb7f31cebb694aca3f44c02f1619d0e0bac18b798271702508762751b",
      "scriptsig_asm": "OP_PUSHBYTES_71 30440220014a0cece42f017211951be017f129806b337d1fca1d9876f2699966edc0095d0220575d229139038ff540d6d6cb8dc871f4faf1dbd091eb6ae68314569f3cfaf95f01 OP_PUSHBYTES_33 026001efbfb7f31cebb694aca3f44c02f1619d0e0bac18b798271702508762751b",
      "is_coinbase": false,
      "sequence": 4294967295
    }
  ],
  "vout": [
    {
      "scriptpubkey": "76a9140f3ebaef4f7215f73562ff7886529566f51eb5d788ac",
      "scriptpubkey_asm": "OP_DUP OP_HASH160 OP_PUSHBYTES_20 0f3ebaef4f7215f73562ff7886529566f51eb5d7 OP_EQUALVERIFY OP_CHECKSIG",
      "scriptpubkey_type": "p2pkh",
      "scriptpubkey_address": "12PcHT3uyGgpVDPHyMk17DVzAG1gasmUGi",
      "value": 47724
    }
  ],
  "size": 191,
  "weight": 764,
  "fee": 7276,
  "status": {
    "confirmed": true,
    "block_height": 834638,
    "block_hash": "000000000000000000025f742c626208ac87e0b7d15054abb4a19ca2d735a54e",
    "block_time": 1710405325
  },
  "hex": "0200000001ac454eba788c169a59a389435ad6a70690f634f544400a7f48ed05ebe7c86c0b0c0000006a4730440220014a0cece42f017211951be017f129806b337d1fca1d9876f2699966edc0095d0220575d229139038ff540d6d6cb8dc871f4faf1dbd091eb6ae68314569f3cfaf95f0121026001efbfb7f31cebb694aca3f44c02f1619d0e0bac18b798271702508762751bffffffff016cba0000000000001976a9140f3ebaef4f7215f73562ff7886529566f51eb5d788ac00000000"
}