{
  "txid": "e1eeacf84f757e26d9a7a5074d4d7719448527f8b46ac88c081a52c98338e9cc",
  "version": 2,
  "locktime": 0,
  "vin": [
    {
      "txid": "c58a9ce8c2c9ae180d83a76d06cd9b673d07156672d80e3508da9b90a116ff27",
      "vout": 0,
      "prevout": {
        "scriptpubkey": "00141800d49b7f00c20ce89db84c645abeb5bae3da50",
        "scriptpubkey_asm": "OP_0 OP_PUSHBYTES_20 1800d49b7f00c20ce89db84c645abeb5bae3da50",
        "scriptpubkey_type": "v0_p2wpkh",
        "scriptpubkey_address": "bc1qrqqdfxmlqrpqe6yahpxxgk47kkaw8kjsm85jgr",
        "value": 638527
      },
      "scriptsig": "",
      "scriptsig_asm": "",
      "witness": [
        "3045022100c08436282487a3ec3f2dc95f7c6e1057bd9ae9ddc323cdda9cc85082c52e73de02203fec59d4985572513c952d828131c9e054f2b4de3930b8f353f9b1c2470553cc01",
        "02d0df41d62e2541332b588ac0395ebc06bea8c65d8e295c1687e7ce1e71978c98"
      ],
      "is_coinbase": false,
      "sequence": 4294967295
    }
  ],
  "vout": [
    {
      "scriptpubkey": "76a91498dd85ebfeaa14b4b4c8425bf1ef044a8569d7e388ac",
      "scriptpubkey_asm": "OP_DUP OP_HASH160 OP_PUSHBYTES_20 98dd85ebfeaa14b4b4c8425bf1ef044a8569d7e3 OP_EQUALVERIFY OP_CHECKSIG",
      "scriptpubkey_type": "p2pkh",
      "scriptpubkey_address": "1EwH5rcBhhFwKcBcJvhf5J6rwu6g2i2gGW",
      "value": 636861
    }
  ],
  "size": 195,
  "weight": 450,
  "fee": 1666,
  "status": {
    "confirmed": true,
    "block_height": 834638,
    "block_hash": "000000000000000000025f742c626208ac87e0b7d15054abb4a19ca2d735a54e",
    "block_time": 1710405325
  },
  "hex": "0200000000010127ff16a1909bda08350ed8726615073d679bcd066da7830d18aec9c2e89c8ac50000000000ffffffff01bdb70900000000001976a91498dd85ebfeaa14b4b4c8425bf1ef044a8569d7e388ac02483045022100c08436282487a3ec3f2dc95f7c6e1057bd9ae9ddc323cdda9cc85082c52e73de02203fec59d4985572513c952d828131c9e054f2b4de3930b8f353f9b1c2470553cc012102d0df41d62e2541332b588ac0395ebc06bea8c65d8e295c1687e7ce1e71978c9800000000"
}