{
  "txid": "e1fd4d87ebf9be9b0ee16445495b6454688d621fd55cd0a48e51dac94a5b6328",
  "version": 2,
  "locktime": 0,
  "vin": [
    {
      "txid": "ea0aa92f87642d2854f9cee8bc7fd575284556c7a35889e55537c54ef06f6097",
      "vout": 0,
      "prevout": {
        "scriptpubkey": "5120666143d0840ec629fa311f88aa56681309e33c0415ad683f89c785c61f9fd25e",
        "scriptpubkey_asm": "OP_PUSHNUM_1 OP_PUSHBYTES_32 666143d0840ec629fa311f88aa56681309e33c0415ad683f89c785c61f9fd25e",
        "scriptpubkey_type": "v1_p2tr",
        "scriptpubkey_address": "bc1pves585yypmrzn733r7y254ngzvy7x0qyzkkks0ufc7zuv8ul6f0qqdafk9",
        "value": 2500
      },
      "scriptsig": "",
      "scriptsig_asm": "",
      "witness": [
        "16f65267f840b28092ce35abf2418ebed11162a85844074fdf5a28ffb11788fe2cfe0009c1b3b0ceded7e475922aafa22e0a75187d20dfc94a9604700be6de5801"
      ],
      "is_coinbase": false,
      "sequence": 4294967295
    }
  ],
  "vout": [
    {
      "scriptpubkey": "76a914afbc586159ab1a7ae76a345ba9225a5dd5b18c0e88ac",
      "scriptpubkey_asm": "OP_DUP OP_HASH160 OP_PUSHBYTES_20 afbc586159ab1a7ae76a345ba9225a5dd5b18c0e OP_EQUALVERIFY OP_CHECKSIG",
      "scriptpubkey_type": "p2pkh",
      "scriptpubkey_address": "1H2Ct2Yq8mgnq9HSi5gFzPNhEo1FgDLRyy",
      "value": 1268
    }
  ],
  "size": 154,
  "weight": 409,
  "fee": 1232,
  "status": {
    "confirmed": true,
    "block_height": 834460,
    "block_hash": "00000000000000000000484a79b643b2524bbce82e5d8a442013fa5b8905ed98",
    "block_time": 1710307468
  },
  "hex": "0200000000010197606ff04ec53755e58958a3c756452875d57fbce8cef954282d64872fa90aea0000000000ffffffff01f4040000000000001976a914afbc586159ab1a7ae76a345ba9225a5dd5b18c0e88ac014116f65267f840b28092ce35abf2418ebed11162a85844074fdf5a28ffb11788fe2cfe0009c1b3b0ceded7e475922aafa22e0a75187d20dfc94a9604700be6de580100000000"
}