{
  "txid": "e1fff3b2570f2c7f9e25723505859e89539192054bafaeddb5bd0eea558f956e",
  "version": 2,
  "locktime": 0,
  "vin": [
    {
      "txid": "76c5ec48c7bd6230a07c19af3a2b9eba523115e6080052da1600dfc949c5d5e0",
      "vout": 2,
      "prevout": {
        "scriptpubkey": "5120d31d1fc7947ab41f9378fa28b47aee4695153ab48dd68b2dc8b8d9fbc95bdde0",
        "scriptpubkey_asm": "OP_PUSHNUM_1 OP_PUSHBYTES_32 d31d1fc7947ab41f9378fa28b47aee4695153ab48dd68b2dc8b8d9fbc95bdde0",
        "scriptpubkey_type": "v1_p2tr",
        "scriptpubkey_address": "bc1p6vw3l3u5026plymclg5tg7hwg6232w453htgktwghrvlhj2mmhsq5u3ml9",
        "value": 300000
      },
      "scriptsig": "",
      "scriptsig_asm": "",
      "witness": [
        "465a691aec3fbee35ec2c2f40e876ef51d9913288954fa377823d6f8a62df1cd4f23d4d208f24b7c2f9c8cc76c07278518d24e315aefc629a8b034aea7119398"
      ],
      "is_coinbase": false,
      "sequence": 2147483649
    },
    {
      "txid": "9f22f669bfa439382ce0bc49904565144841737dc896febdcd52bbf9c97364e5",
      "vout": 1,
      "prevout": {
        "scriptpubkey": "5120d31d1fc7947ab41f9378fa28b47aee4695153ab48dd68b2dc8b8d9fbc95bdde0",
        "scriptpubkey_asm": "OP_PUSHNUM_1 OP_PUSHBYTES_32 d31d1fc7947ab41f9378fa28b47aee4695153ab48dd68b2dc8b8d9fbc95bdde0",
        "scriptpubkey_type": "v1_p2tr",
        "scriptpubkey_address": "bc1p6vw3l3u5026plymclg5tg7hwg6232w453htgktwghrvlhj2mmhsq5u3ml9",
        "value": 207040
      },
      "scriptsig": "",
      "scriptsig_asm": "",
      "witness": [
        "979210330e5f9ee6f30276499da32207978be319e2a1fff6cc122846d9c2754f12931da59f5fb1d1359d8b767021008e6cc2041c49b938f7e00670dbdf4e4648"
      ],
      "is_coinbase": false,
      "sequence": 2147483649
    }
  ],
  "vout": [
    {
      "scriptpubkey": "a914d5e0942480a907dfb0d766456f67ba09ff2cbf4687",
      "scriptpubkey_asm": "OP_HASH160 OP_PUSHBYTES_20 d5e0942480a907dfb0d766456f67ba09ff2cbf46 OP_EQUAL",
      "scriptpubkey_type": "p2sh",
      "scriptpubkey_address": "3MBttQPMeAkHxbaEHfVjV2bcvLtxUDL7hc",
      "value": 480000
    },
    {
      "scriptpubkey": "5120d31d1fc7947ab41f9378fa28b47aee4695153ab48dd68b2dc8b8d9fbc95bdde0",
      "scriptpubkey_asm": "OP_PUSHNUM_1 OP_PUSHBYTES_32 d31d1fc7947ab41f9378fa28b47aee4695153ab48dd68b2dc8b8d9fbc95bdde0",
      "scriptpubkey_type": "v1_p2tr",
      "scriptpubkey_address": "bc1p6vw3l3u5026plymclg5tg7hwg6232w453htgktwghrvlhj2mmhsq5u3ml9",
      "value": 23840
    }
  ],
  "size": 301,
  "weight": 802,
  "fee": 3200,
  "status": {
    "confirmed": true,
    "block_height": 834638,
    "block_hash": "000000000000000000025f742c626208ac87e0b7d15054abb4a19ca2d735a54e",
    "block_time": 1710405325
  },
  "hex": "02000000000102e0d5c549c9df0016da520008e6153152ba9e2b3aaf197ca03062bdc748ecc576020000000001000080e56473c9f9bb52cdbdfe96c87d7341481465459049bce02c3839a4bf69f6229f01000000000100008002005307000000000017a914d5e0942480a907dfb0d766456f67ba09ff2cbf4687205d000000000000225120d31d1fc7947ab41f9378fa28b47aee4695153ab48dd68b2dc8b8d9fbc95bdde00140465a691aec3fbee35ec2c2f40e876ef51d9913288954fa377823d6f8a62df1cd4f23d4d208f24b7c2f9c8cc76c07278518d24e315aefc629a8b034aea71193980140979210330e5f9ee6f30276499da32207978be319e2a1fff6cc122846d9c2754f12931da59f5fb1d1359d8b767021008e6cc2041c49b938f7e00670dbdf4e464800000000"
}