{
  "txid": "e2042fa7d7cb4da795c38bb17b76bfb94965e0164c0930362db0c28bc06e1fb2",
  "version": 1,
  "locktime": 0,
  "vin": [
    {
      "txid": "f2cced87d8f89e172229c1bab7650b87124a8f7493eb9d76c7ea49d056a07b2d",
      "vout": 1,
      "prevout": {
        "scriptpubkey": "001448721845d8d8ad552aecdd259053f9fcc1f10a72",
        "scriptpubkey_asm": "OP_0 OP_PUSHBYTES_20 48721845d8d8ad552aecdd259053f9fcc1f10a72",
        "scriptpubkey_type": "v0_p2wpkh",
        "scriptpubkey_address": "bc1qfpeps3wcmzk422hvm5jeq5lelnqlzznjwyfy69",
        "value": 5102735364
      },
      "scriptsig": "",
      "scriptsig_asm": "",
      "witness": [
        "3045022100a7c72bf61bc13d3836e1d32c9e9af67e80964a3a8e63b437076a837b84ade2b9022040482e33a3993de06bd1d8eeccc495276b5db151723964bb4fcd0202cc10385601",
        "02dc8683704adb6dbea6d1e0bb392ab45b57dcc9c5f919b7d59389fdd9fb096f25"
      ],
      "is_coinbase": false,
      "sequence": 4294967295
    }
  ],
  "vout": [
    {
      "scriptpubkey": "00144df10ec949caa5cb994b66fa02a1d247fb1afe51",
      "scriptpubkey_asm": "OP_0 OP_PUSHBYTES_20 4df10ec949caa5cb994b66fa02a1d247fb1afe51",
      "scriptpubkey_type": "v0_p2wpkh",
      "scriptpubkey_address": "bc1qfhcsaj2fe2juhx2tvmaq9gwjgla34lj3qq9hk9",
      "value": 218338
    },
    {
      "scriptpubkey": "001448721845d8d8ad552aecdd259053f9fcc1f10a72",
      "scriptpubkey_asm": "OP_0 OP_PUSHBYTES_20 48721845d8d8ad552aecdd259053f9fcc1f10a72",
      "scriptpubkey_type": "v0_p2wpkh",
      "scriptpubkey_address": "bc1qfpeps3wcmzk422hvm5jeq5lelnqlzznjwyfy69",
      "value": 5102514319
    }
  ],
  "size": 223,
  "weight": 562,
  "fee": 2707,
  "status": {
    "confirmed": true,
    "block_height": 834638,
    "block_hash": "000000000000000000025f742c626208ac87e0b7d15054abb4a19ca2d735a54e",
    "block_time": 1710405325
  },
  "hex": "010000000001012d7ba056d049eac7769deb93748f4a12870b65b7bac12922179ef8d887edccf20100000000ffffffff02e2540300000000001600144df10ec949caa5cb994b66fa02a1d247fb1afe518f3022300100000016001448721845d8d8ad552aecdd259053f9fcc1f10a7202483045022100a7c72bf61bc13d3836e1d32c9e9af67e80964a3a8e63b437076a837b84ade2b9022040482e33a3993de06bd1d8eeccc495276b5db151723964bb4fcd0202cc103856012102dc8683704adb6dbea6d1e0bb392ab45b57dcc9c5f919b7d59389fdd9fb096f2500000000"
}