{
  "txid": "e20b79694ae88509bfa5f7a20bfee10e79ec126b3ab103df4656e6ff6ee07232",
  "version": 2,
  "locktime": 834637,
  "vin": [
    {
      "txid": "89fac5f2f070c36917330acd4d30839c04b62fc845cfe492a09ebe5cc12633c9",
      "vout": 3,
      "prevout": {
        "scriptpubkey": "001426510a1dbef4011acf4444488c1ba8151ff19544",
        "scriptpubkey_asm": "OP_0 OP_PUSHBYTES_20 26510a1dbef4011acf4444488c1ba8151ff19544",
        "scriptpubkey_type": "v0_p2wpkh",
        "scriptpubkey_address": "bc1qyegs58d77sq34n6yg3ygcxagz50lr92yl320wa",
        "value": 2730665
      },
      "scriptsig": "",
      "scriptsig_asm": "",
      "witness": [
        "30440220013bd064af5980c164e6833c11c32722b810d04b0033994ff4701db7909d9621022078a3a99e97cc29ce7be906696112a08a292623ac559bad3c37a7c257cb94e84001",
        "029b6bb01591c08905b79728526ff86263f2b87361798a316ef60d107c238457af"
      ],
      "is_coinbase": false,
      "sequence": 4294967293
    }
  ],
  "vout": [
    {
      "scriptpubkey": "0014c85739501ef94ca4e8f4e7d3868da9af9e67acf0",
      "scriptpubkey_asm": "OP_0 OP_PUSHBYTES_20 c85739501ef94ca4e8f4e7d3868da9af9e67acf0",
      "scriptpubkey_type": "v0_p2wpkh",
      "scriptpubkey_address": "bc1qeptnj5q7l9x2f685ulfcdrdf470x0t8sdwgkex",
      "value": 30004
    },
    {
      "scriptpubkey": "00140d9f47ead0835fe8d731c9765bf2bded5c8f4e0c",
      "scriptpubkey_asm": "OP_0 OP_PUSHBYTES_20 0d9f47ead0835fe8d731c9765bf2bded5c8f4e0c",
      "scriptpubkey_type": "v0_p2wpkh",
      "scriptpubkey_address": "bc1qpk0506kssd0734e3e9m9hu4aa4wg7nsv6ldu38",
      "value": 34944
    },
    {
      "scriptpubkey": "00143846906d0db8691776ddfc33c57bb63cc289f870",
      "scriptpubkey_asm": "OP_0 OP_PUSHBYTES_20 3846906d0db8691776ddfc33c57bb63cc289f870",
      "scriptpubkey_type": "v0_p2wpkh",
      "scriptpubkey_address": "bc1q8prfqmgdhp53wakalseu27ak8npgn7rshmpv5l",
      "value": 55540
    },
    {
      "scriptpubkey": "001495ff90f34b6d718ff6689f6d02efc340550a4570",
      "scriptpubkey_asm": "OP_0 OP_PUSHBYTES_20 95ff90f34b6d718ff6689f6d02efc340550a4570",
      "scriptpubkey_type": "v0_p2wpkh",
      "scriptpubkey_address": "bc1qjhlepu6td4cclangnaks9m7rgp2s53ts8l2cah",
      "value": 62359
    },
    {
      "scriptpubkey": "00146b85b2d65464d552da5dda0d1f06913f458d4afb",
      "scriptpubkey_asm": "OP_0 OP_PUSHBYTES_20 6b85b2d65464d552da5dda0d1f06913f458d4afb",
      "scriptpubkey_type": "v0_p2wpkh",
      "scriptpubkey_address": "bc1qdwzm94j5vn249kjamgx37p538azc6jhm0stc9p",
      "value": 69467
    },
    {
      "scriptpubkey": "00141d7a0bb95491df97ac4680821e282baabfc237f2",
      "scriptpubkey_asm": "OP_0 OP_PUSHBYTES_20 1d7a0bb95491df97ac4680821e282baabfc237f2",
      "scriptpubkey_type": "v0_p2wpkh",
      "scriptpubkey_address": "bc1qr4aqhw25j80e0tzxszppu2pt42luydljrrj332",
      "value": 78751
    },
    {
      "scriptpubkey": "76a9141beff67c96ce2f753bf1e4fa4d1cbd45bc9947b088ac",
      "scriptpubkey_asm": "OP_DUP OP_HASH160 OP_PUSHBYTES_20 1beff67c96ce2f753bf1e4fa4d1cbd45bc9947b0 OP_EQUALVERIFY OP_CHECKSIG",
      "scriptpubkey_type": "p2pkh",
      "scriptpubkey_address": "13Yii6CteZ7SZB8DTwovUgEQqgzv8KYcFP",
      "value": 91641
    },
    {
      "scriptpubkey": "001480dd97d2c89ae2f45c3fe1e2c78fb6bbe8908f0d",
      "scriptpubkey_asm": "OP_0 OP_PUSHBYTES_20 80dd97d2c89ae2f45c3fe1e2c78fb6bbe8908f0d",
      "scriptpubkey_type": "v0_p2wpkh",
      "scriptpubkey_address": "bc1qsrwe05kgnt30ghplu83v0rakh05fprcd8pz7a4",
      "value": 139490
    },
    {
      "scriptpubkey": "a9145073c721e99f1b613ad5185fd243acb82677f47a87",
      "scriptpubkey_asm": "OP_HASH160 OP_PUSHBYTES_20 5073c721e99f1b613ad5185fd243acb82677f47a OP_EQUAL",
      "scriptpubkey_type": "p2sh",
      "scriptpubkey_address": "392QgH284DL4m2iaYimTMpJ39JFgigYbyJ",
      "value": 153105
    },
    {
      "scriptpubkey": "0014d73736fb9c1a01c6f3bd39e1cfb2bf2e3cc3d453",
      "scriptpubkey_asm": "OP_0 OP_PUSHBYTES_20 d73736fb9c1a01c6f3bd39e1cfb2bf2e3cc3d453",
      "scriptpubkey_type": "v0_p2wpkh",
      "scriptpubkey_address": "bc1q6umnd7uurgquduaa88sulv4l9c7v84znveg397",
      "value": 821494
    },
    {
      "scriptpubkey": "0014953a9febba90c8ec5bf8ba66dab09afe0bac29aa",
      "scriptpubkey_asm": "OP_0 OP_PUSHBYTES_20 953a9febba90c8ec5bf8ba66dab09afe0bac29aa",
      "scriptpubkey_type": "v0_p2wpkh",
      "scriptpubkey_address": "bc1qj5afl6a6jrywcklchfnd4vy6lc96c2d2zcx3dh",
      "value": 1185390
    }
  ],
  "size": 505,
  "weight": 1693,
  "fee": 8480,
  "status": {
    "confirmed": true,
    "block_height": 834638,
    "block_hash": "000000000000000000025f742c626208ac87e0b7d15054abb4a19ca2d735a54e",
    "block_time": 1710405325
  },
  "hex": "02000000000101c93326c15cbe9ea092e4cf45c82fb6049c83304dcd0a331769c370f0f2c5fa890300000000fdffffff0b3475000000000000160014c85739501ef94ca4e8f4e7d3868da9af9e67acf080880000000000001600140d9f47ead0835fe8d731c9765bf2bded5c8f4e0cf4d80000000000001600143846906d0db8691776ddfc33c57bb63cc289f87097f300000000000016001495ff90f34b6d718ff6689f6d02efc340550a45705b0f0100000000001600146b85b2d65464d552da5dda0d1f06913f458d4afb9f330100000000001600141d7a0bb95491df97ac4680821e282baabfc237f2f9650100000000001976a9141beff67c96ce2f753bf1e4fa4d1cbd45bc9947b088ace22002000000000016001480dd97d2c89ae2f45c3fe1e2c78fb6bbe8908f0d115602000000000017a9145073c721e99f1b613ad5185fd243acb82677f47a87f6880c0000000000160014d73736fb9c1a01c6f3bd39e1cfb2bf2e3cc3d4536e16120000000000160014953a9febba90c8ec5bf8ba66dab09afe0bac29aa024730440220013bd064af5980c164e6833c11c32722b810d04b0033994ff4701db7909d9621022078a3a99e97cc29ce7be906696112a08a292623ac559bad3c37a7c257cb94e8400121029b6bb01591c08905b79728526ff86263f2b87361798a316ef60d107c238457af4dbc0c00"
}