{
  "txid": "e211d8b51ea9de542cb343ff475cc3a2cff4f61c8453b3b3ff38b5ac78fd0230",
  "version": 1,
  "locktime": 0,
  "vin": [
    {
      "txid": "fcca9053b3a2e0e77f4e94acfc5d71437178f2d8c00b7d20f8ad9ed44a23aebe",
      "vout": 0,
      "prevout": {
        "scriptpubkey": "0014e8ea66e302e1c0c5363a43906a3f48f5278ea6f9",
        "scriptpubkey_asm": "OP_0 OP_PUSHBYTES_20 e8ea66e302e1c0c5363a43906a3f48f5278ea6f9",
        "scriptpubkey_type": "v0_p2wpkh",
        "scriptpubkey_address": "bc1qar4xdcczu8qv2d36gwgx506g75ncafhegqv6rr",
        "value": 11890593
      },
      "scriptsig": "",
      "scriptsig_asm": "",
      "witness": [
        "30440220395055adb44fd1fb23071c138ba9828e4aa74ac08f6dabec634357ad7ec1868a02201db059f20a17cb7a00448585a0af1c459bfc0af50a592a88ca878b48da5824fb01",
        "0266682210552cb759657d05b70df9a861409cad519935aa89b128b0910a3033b4"
      ],
      "is_coinbase": false,
      "sequence": 4294967293
    }
  ],
  "vout": [
    {
      "scriptpubkey": "0014f927bb2e069313b9ccb684243a0a1e3e334f2724",
      "scriptpubkey_asm": "OP_0 OP_PUSHBYTES_20 f927bb2e069313b9ccb684243a0a1e3e334f2724",
      "scriptpubkey_type": "v0_p2wpkh",
      "scriptpubkey_address": "bc1qlynmktsxjvfmnn9kssjr5zs78ce57fey84renu",
      "value": 4000000
    },
    {
      "scriptpubkey": "0014cde49280d2155afe95b14e60fb1874d36f0041d0",
      "scriptpubkey_asm": "OP_0 OP_PUSHBYTES_20 cde49280d2155afe95b14e60fb1874d36f0041d0",
      "scriptpubkey_type": "v0_p2wpkh",
      "scriptpubkey_address": "bc1qehjf9qxjz4d0a9d3fes0kxr56dhsqswszcjn0u",
      "value": 7888901
    }
  ],
  "size": 222,
  "weight": 561,
  "fee": 1692,
  "status": {
    "confirmed": true,
    "block_height": 834460,
    "block_hash": "00000000000000000000484a79b643b2524bbce82e5d8a442013fa5b8905ed98",
    "block_time": 1710307468
  },
  "hex": "01000000000101beae234ad49eadf8207d0bc0d8f2787143715dfcac944e7fe7e0a2b35390cafc0000000000fdffffff0200093d0000000000160014f927bb2e069313b9ccb684243a0a1e3e334f27240560780000000000160014cde49280d2155afe95b14e60fb1874d36f0041d0024730440220395055adb44fd1fb23071c138ba9828e4aa74ac08f6dabec634357ad7ec1868a02201db059f20a17cb7a00448585a0af1c459bfc0af50a592a88ca878b48da5824fb01210266682210552cb759657d05b70df9a861409cad519935aa89b128b0910a3033b400000000"
}