{
  "txid": "e22b0b6b09b53e1180a3a65cfc910ac05bea47370337ffb40547e191be4b7eae",
  "version": 2,
  "locktime": 0,
  "vin": [
    {
      "txid": "7e19068e078fe06b8157e85f182c11b1ce0214ce47cb6091957986fdca3d59a6",
      "vout": 1,
      "prevout": {
        "scriptpubkey": "00147db6a72a18d21d5e5a86ff08954d1a081e312c61",
        "scriptpubkey_asm": "OP_0 OP_PUSHBYTES_20 7db6a72a18d21d5e5a86ff08954d1a081e312c61",
        "scriptpubkey_type": "v0_p2wpkh",
        "scriptpubkey_address": "bc1q0km2w2sc6gw4uk5xluyf2ng6pq0rztrpzwggny",
        "value": 3010171
      },
      "scriptsig": "",
      "scriptsig_asm": "",
      "witness": [
        "30440220637f09b0dfcea893e624cd62877ea11c2615dce5328c803850b464ba63c3fe77022011e167d6f8a24fee6f0077cebf9024ddef4c8760b5bb1e239e21a205f05acd5701",
        "02f97d3b991c7ba516e47f04e54d71207e51abd1c0e680d47fa2e3d483455b57d7"
      ],
      "is_coinbase": false,
      "sequence": 4294967295
    }
  ],
  "vout": [
    {
      "scriptpubkey": "00205c3f8f99d69bdab528eff573c3b5ce559a411fb098a7f53a1dd25f89ba07c579",
      "scriptpubkey_asm": "OP_0 OP_PUSHBYTES_32 5c3f8f99d69bdab528eff573c3b5ce559a411fb098a7f53a1dd25f89ba07c579",
      "scriptpubkey_type": "v0_p2wsh",
      "scriptpubkey_address": "bc1qtslclxwkn0dt228074eu8dww2kdyz8asnznl2wsa6f0cnws8c4uskp9eu0",
      "value": 7283
    },
    {
      "scriptpubkey": "00142712aede4d601465c417ec56f7ff49e31398c8d5",
      "scriptpubkey_asm": "OP_0 OP_PUSHBYTES_20 2712aede4d601465c417ec56f7ff49e31398c8d5",
      "scriptpubkey_type": "v0_p2wpkh",
      "scriptpubkey_address": "bc1qyuf2ahjdvq2xt3qha3t00l6fuvfe3jx4l542ek",
      "value": 3000643
    }
  ],
  "size": 234,
  "weight": 609,
  "fee": 2245,
  "status": {
    "confirmed": true,
    "block_height": 834460,
    "block_hash": "00000000000000000000484a79b643b2524bbce82e5d8a442013fa5b8905ed98",
    "block_time": 1710307468
  },
  "hex": "02000000000101a6593dcafd8679959160cb47ce1402ceb1112c185fe857816be08f078e06197e0100000000ffffffff02731c0000000000002200205c3f8f99d69bdab528eff573c3b5ce559a411fb098a7f53a1dd25f89ba07c57943c92d00000000001600142712aede4d601465c417ec56f7ff49e31398c8d5024730440220637f09b0dfcea893e624cd62877ea11c2615dce5328c803850b464ba63c3fe77022011e167d6f8a24fee6f0077cebf9024ddef4c8760b5bb1e239e21a205f05acd57012102f97d3b991c7ba516e47f04e54d71207e51abd1c0e680d47fa2e3d483455b57d700000000"
}