{
  "txid": "e2320ca55d9b49bc7218ef0eecf41829297453883a09f97761105825bfef93b2",
  "version": 2,
  "locktime": 0,
  "vin": [
    {
      "txid": "1ffd8efe33955f62680b5f799257e689f2b89cd5ab515c32bf7d2d245690d040",
      "vout": 0,
      "prevout": {
        "scriptpubkey": "5120217cee6b59b4546357eefa5fe85b934e94894f3d7b1ac9e64d106084c59d6587",
        "scriptpubkey_asm": "OP_PUSHNUM_1 OP_PUSHBYTES_32 217cee6b59b4546357eefa5fe85b934e94894f3d7b1ac9e64d106084c59d6587",
        "scriptpubkey_type": "v1_p2tr",
        "scriptpubkey_address": "bc1py97wu66ek32xx4lwlf07skunf62gjnea0vdvnejdzpsgf3vavkrstvx07x",
        "value": 18638
      },
      "scriptsig": "",
      "scriptsig_asm": "",
      "witness": [
        "dacc9faa463f48ba46d897f5e871b9a90f85c1d4428160b6e5c847eb1b5bad4760381eca32b71c72bfb28b2bb4a5ac082a2aed89d0d88be6cb7d1621aa93cb08",
        "20f2d00e1cce0b839d2e197679cac7a15152ec244338032c7767f72c1332d49a65ac0063036f7264010109696d6167652f706e67004d080289504e470d0a1a0a0000000d4948445200000118000001180803000000b05019be000000017352474200aece1ce90000000467414d410000b18f0bfc610500000138504c5445ff7b00f67906cf6b0fee7305da6f0b584533433e3aaf61193c3c3cf07503363a3e3a3942a16329f47a089452151b144e170f5018105023166f2a1b854d267b8742527a50290f05541c0e772614956d3664100654b9600d292929262829363636c6650b1a0db8170cb9492497ac5353bb5a444f38220703b90000ff2e16d1ed72126c67b9acacff4940810201559292e6010158271e509c97b6ffffff565656030202121212d2d2d1e1e1e1242223311a06f9e9cbf7e6c9a1917479684b857457e4d4b7937c7af2d196efce94f2d298f5c17bfe810bf2bf797c6563c8a86dc7a86ed2a059755e5bbb9a5fbb9b60c7954fc8954e4837584736587c5045e88520e9851f5b2f34b75f0ea75911352f5c190c6f472550c3752c4e37225959596d6d6d6462722a1a93271b72866f5a8770594c45774b4b4b62626228d9ae6b000000097048597300000ec300000ec301c76fa8640000034549444154785eeddd57531441144061565c4154040c6b02730e886244453127cc3907f4ffff03a9f20a287d96716dd819eb7ccfb7a6bb4fedc34cd5567547416bbe7e688bf7ddc56c1f2c6468dfca38502e860186018601860186018601860186018601860186018601860186014d080286018601860186018601a930dfbf254c1d6dd9543c77ae4a86198dd57ef37973cb3e7d8c07cf61986986018601860186018601860186018601860186018601860186018601860186018601860186018601860186018601860186018601d50cf325763ac7e8e050ac376ba8e461dee50e537b9bf032e1cdebd6bd4a18991109d2eab1fc425ed4e2404bee79636bab1a4df5f54483949e8db17c79fd4398a61afd8649320c300c300c300cf80fc2e4155dca1be659314f9f3c7e94d3487459204c777d5b313be238d9d41e4ede2f6432af7bbf7e320b8429f8493098fd5ba9f62076bac43287c9ff116918601860186018601860186018601860186018601860186018601860186018601860186018601860186018601860186018601860186018601860186018601860186018601860186018301d26feafbab4ca1fe6ee9ddbed70abec616edcbcda0e13570c93641860186018601860186018601860186018601860186018601860186018508130d7af4d3411e70031046228a9fc616aab2f35317e79ec021abb3c1e634917632c69ec44d9c3749e3fd5c4b9b3279b38733ac69246632acd30c030c030c030c030c030c030c030c030a0fc61468e1f6303c3479a18de1a634947632aed70d9c31c3a78a02df64717c3fcc130c030c030c030c030c030c030c030c030c030c030c030c030c030c030c03020739845b89760ef9e6276efda99d3e6e84ce4d25298deb8be628eec375914b6256eaacb6453746929ccb6d8532918061806180618061806180618061806b42bccd07c869956ef4d581e7b2a85f684a9c03d91860186018601860186018601b9c3c425c68d465fc5c36c58ffcbba1c06fa43dfdad930f5f97a63f9f2aa75feb466f5aa2c7a664495e92ecb56ce538be52ba02b8e915fbd54affa7fcd30c030c030c030c030c030a06bc562a97898ce658ba6426f739224499224499224499224499224499224499224499224499224499224499224499224499224499254011d1d3f002694127f052985f40000000049454e44ae426082680063036f726401011e6170706c69636174696f6e2f6a736f6e3b636861727365743d7574662d38004d69017b2270223a22766f7264222c2276223a312c227479223a22696e7363222c22636f6c223a2261643262353365623665333264663466633139386133626262306662663638666637336432666432323832323163313136373630306533316337613163343836222c22696964223a22557073696465646f776e204e6f64654d6f6e6b6573222c227075626c223a2231455337623370636a527a4667796969714c7278484b546e43686535364c4a485937222c226e6f6e6365223a313136332c226d696e746572223a2262633170747565386c7134753232767776377668676a6e7036613763363664746663737a7a7a68377475393735726e63346338356b3678736b616a72676a222c22736967223a224777596469737931356d514f51446d36306243796b456446566e72306e34336a49366943573975587574633055704c73797376535852377579695565385154462b7966546a38474e38734e3230503845367337796248673d227d68",
        "c0f2d00e1cce0b839d2e197679cac7a15152ec244338032c7767f72c1332d49a65675a92934efa5e4869b2432a3e00abfc6819367af43949c2edc693b32d23ac05"
      ],
      "is_coinbase": false,
      "sequence": 4294967293
    }
  ],
  "vout": [
    {
      "scriptpubkey": "51205f327f82bc5298e6799744a61d77d8d69ab4e20210afe5f0bea0e78ae0f4b68d",
      "scriptpubkey_asm": "OP_PUSHNUM_1 OP_PUSHBYTES_32 5f327f82bc5298e6799744a61d77d8d69ab4e20210afe5f0bea0e78ae0f4b68d",
      "scriptpubkey_type": "v1_p2tr",
      "scriptpubkey_address": "bc1ptue8lq4u22vwv7vhgjnp6a7c66dtfcszzzh7tu975rnc4c85k6xskajrgj",
      "value": 1000
    },
    {
      "scriptpubkey": "5120f62171bf126320eed697da59179bb0a31c00c0460a1a69c591c3c0d0f8f5038f",
      "scriptpubkey_asm": "OP_PUSHNUM_1 OP_PUSHBYTES_32 f62171bf126320eed697da59179bb0a31c00c0460a1a69c591c3c0d0f8f5038f",
      "scriptpubkey_type": "v1_p2tr",
      "scriptpubkey_address": "bc1p7cshr0cjvvswa45hmfv30xas5vwqpszxpgdxn3v3c0qdp784qw8szjtge2",
      "value": 7622
    },
    {
      "scriptpubkey": "51200705a5767db892e98125775049b1a13dd9ecdc8aea0df413cabbee683e871012",
      "scriptpubkey_asm": "OP_PUSHNUM_1 OP_PUSHBYTES_32 0705a5767db892e98125775049b1a13dd9ecdc8aea0df413cabbee683e871012",
      "scriptpubkey_type": "v1_p2tr",
      "scriptpubkey_address": "bc1pquz62anahzfwnqf9wagynvdp8hv7ehy2agxlgy72h0hxs058zqfqk8ksyq",
      "value": 2888
    }
  ],
  "size": 2052,
  "weight": 2592,
  "fee": 7128,
  "status": {
    "confirmed": true,
    "block_height": 834464,
    "block_hash": "0000000000000000000177a0869a911a2b65c9bdcd5a8bcb02b68f305bee848e",
    "block_time": 1710308296
  },
  "hex": "0200000000010140d09056242d7dbf325c51abd59cb8f289e65792795f0b68625f9533fe8efd1f0000000000fdffffff03e8030000000000002251205f327f82bc5298e6799744a61d77d8d69ab4e20210afe5f0bea0e78ae0f4b68dc61d000000000000225120f62171bf126320eed697da59179bb0a31c00c0460a1a69c591c3c0d0f8f5038f480b0000000000002251200705a5767db892e98125775049b1a13dd9ecdc8aea0df413cabbee683e8710120340dacc9faa463f48ba46d897f5e871b9a90f85c1d4428160b6e5c847eb1b5bad4760381eca32b71c72bfb28b2bb4a5ac082a2aed89d0d88be6cb7d1621aa93cb08fdc70620f2d00e1cce0b839d2e197679cac7a15152ec244338032c7767f72c1332d49a65ac0063036f7264010109696d6167652f706e67004d080289504e470d0a1a0a0000000d4948445200000118000001180803000000b05019be000000017352474200aece1ce90000000467414d410000b18f0bfc610500000138504c5445ff7b00f67906cf6b0fee7305da6f0b584533433e3aaf61193c3c3cf07503363a3e3a3942a16329f47a089452151b144e170f5018105023166f2a1b854d267b8742527a50290f05541c0e772614956d3664100654b9600d292929262829363636c6650b1a0db8170cb9492497ac5353bb5a444f38220703b90000ff2e16d1ed72126c67b9acacff4940810201559292e6010158271e509c97b6ffffff565656030202121212d2d2d1e1e1e1242223311a06f9e9cbf7e6c9a1917479684b857457e4d4b7937c7af2d196efce94f2d298f5c17bfe810bf2bf797c6563c8a86dc7a86ed2a059755e5bbb9a5fbb9b60c7954fc8954e4837584736587c5045e88520e9851f5b2f34b75f0ea75911352f5c190c6f472550c3752c4e37225959596d6d6d6462722a1a93271b72866f5a8770594c45774b4b4b62626228d9ae6b000000097048597300000ec300000ec301c76fa8640000034549444154785eeddd57531441144061565c4154040c6b02730e886244453127cc3907f4ffff03a9f20a287d96716dd819eb7ccfb7a6bb4fedc34cd5567547416bbe7e688bf7ddc56c1f2c6468dfca38502e860186018601860186018601860186018601860186018601860186014d080286018601860186018601a930dfbf254c1d6dd9543c77ae4a86198dd57ef37973cb3e7d8c07cf61986986018601860186018601860186018601860186018601860186018601860186018601860186018601860186018601860186018601d50cf325763ac7e8e050ac376ba8e461dee50e537b9bf032e1cdebd6bd4a18991109d2eab1fc425ed4e2404bee79636bab1a4df5f54483949e8db17c79fd4398a61afd8649320c300c300c300cf80fc2e4155dca1be659314f9f3c7e94d3487459204c777d5b313be238d9d41e4ede2f6432af7bbf7e320b8429f8493098fd5ba9f62076bac43287c9ff116918601860186018601860186018601860186018601860186018601860186018601860186018601860186018601860186018601860186018601860186018601860186018601860186018301d26feafbab4ca1fe6ee9ddbed70abec616edcbcda0e13570c93641860186018601860186018601860186018601860186018601860186018508130d7af4d3411e70031046228a9fc616aab2f35317e79ec021abb3c1e634917632c69ec44d9c3749e3fd5c4b9b3279b38733ac69246632acd30c030c030c030c030c030c030c030c030a0fc61468e1f6303c3479a18de1a634947632aed70d9c31c3a78a02df64717c3fcc130c030c030c030c030c030c030c030c030c030c030c030c030c030c030c03020739845b89760ef9e6276efda99d3e6e84ce4d25298deb8be628eec375914b6256eaacb6453746929ccb6d8532918061806180618061806180618061806b42bccd07c869956ef4d581e7b2a85f684a9c03d91860186018601860186018601b9c3c425c68d465fc5c36c58ffcbba1c06fa43dfdad930f5f97a63f9f2aa75feb466f5aa2c7a664495e92ecb56ce538be52ba02b8e915fbd54affa7fcd30c030c030c030c030c030a06bc562a97898ce658ba6426f739224499224499224499224499224499224499224499224499224499224499224499224499224499254011d1d3f002694127f052985f40000000049454e44ae426082680063036f726401011e6170706c69636174696f6e2f6a736f6e3b636861727365743d7574662d38004d69017b2270223a22766f7264222c2276223a312c227479223a22696e7363222c22636f6c223a2261643262353365623665333264663466633139386133626262306662663638666637336432666432323832323163313136373630306533316337613163343836222c22696964223a22557073696465646f776e204e6f64654d6f6e6b6573222c227075626c223a2231455337623370636a527a4667796969714c7278484b546e43686535364c4a485937222c226e6f6e6365223a313136332c226d696e746572223a2262633170747565386c7134753232767776377668676a6e7036613763363664746663737a7a7a68377475393735726e63346338356b3678736b616a72676a222c22736967223a224777596469737931356d514f51446d36306243796b456446566e72306e34336a49366943573975587574633055704c73797376535852377579695565385154462b7966546a38474e38734e3230503845367337796248673d227d6841c0f2d00e1cce0b839d2e197679cac7a15152ec244338032c7767f72c1332d49a65675a92934efa5e4869b2432a3e00abfc6819367af43949c2edc693b32d23ac0500000000"
}