{
  "txid": "e23c724e9dc9eb215bb603f5ec69f33a7a863d01e0c33cabfd52be253c826a75",
  "version": 1,
  "locktime": 0,
  "vin": [
    {
      "txid": "26d738c8f53177ae70f9999c0fb245894ab3f38929e20d0e235110dae4b1f019",
      "vout": 1,
      "prevout": {
        "scriptpubkey": "00148aeb8c2b10c75bc7316ca6b7480b972d86bf1b6d",
        "scriptpubkey_asm": "OP_0 OP_PUSHBYTES_20 8aeb8c2b10c75bc7316ca6b7480b972d86bf1b6d",
        "scriptpubkey_type": "v0_p2wpkh",
        "scriptpubkey_address": "bc1q3t4cc2cscaduwvtv56m5szuh9krt7xmd5vv6j6",
        "value": 45067
      },
      "scriptsig": "",
      "scriptsig_asm": "",
      "witness": [
        "3045022100bed52e58184d628bde11d88c8a9d94f1cef24b8d5de0c2e0124acd5fc9f742e2022019f5d679b61ade9ea3ef372035aac9135fd7387cbf0cc4c1e08f24f394c44d3b01",
        "034c665c02c77e8c163604656c1a14bf75db1d7a4a286e54bc59d636fee9959137"
      ],
      "is_coinbase": false,
      "sequence": 4294967295
    }
  ],
  "vout": [
    {
      "scriptpubkey": "00145c94fe5c27de63e0e402e4f7eeb152d91d89af31",
      "scriptpubkey_asm": "OP_0 OP_PUSHBYTES_20 5c94fe5c27de63e0e402e4f7eeb152d91d89af31",
      "scriptpubkey_type": "v0_p2wpkh",
      "scriptpubkey_address": "bc1qtj20uhp8me37peqzunm7av2jmywcnte3e35pyd",
      "value": 20386
    },
    {
      "scriptpubkey": "001497304376a4d35fa0e9f62fb6be97a8ce5ea19ac3",
      "scriptpubkey_asm": "OP_0 OP_PUSHBYTES_20 97304376a4d35fa0e9f62fb6be97a8ce5ea19ac3",
      "scriptpubkey_type": "v0_p2wpkh",
      "scriptpubkey_address": "bc1qjucyxa4y6d06p60k97mta9agee02rxkrwzl9r2",
      "value": 21047
    }
  ],
  "size": 223,
  "weight": 562,
  "fee": 3634,
  "status": {
    "confirmed": true,
    "block_height": 834638,
    "block_hash": "000000000000000000025f742c626208ac87e0b7d15054abb4a19ca2d735a54e",
    "block_time": 1710405325
  },
  "hex": "0100000000010119f0b1e4da1051230e0de22989f3b34a8945b20f9c99f970ae7731f5c838d7260100000000ffffffff02a24f0000000000001600145c94fe5c27de63e0e402e4f7eeb152d91d89af31375200000000000016001497304376a4d35fa0e9f62fb6be97a8ce5ea19ac302483045022100bed52e58184d628bde11d88c8a9d94f1cef24b8d5de0c2e0124acd5fc9f742e2022019f5d679b61ade9ea3ef372035aac9135fd7387cbf0cc4c1e08f24f394c44d3b0121034c665c02c77e8c163604656c1a14bf75db1d7a4a286e54bc59d636fee995913700000000"
}