{
  "txid": "e24360a549a9859b0d8fbd98f25dff341962d74891f5e68130989c5903343d88",
  "version": 2,
  "locktime": 0,
  "vin": [
    {
      "txid": "b17adbd88741ae3f5b80527980494fbf2e5db78943c819558adaf4cb4e787066",
      "vout": 0,
      "prevout": {
        "scriptpubkey": "0014974dbca6a58e118b879e823c79c16d6bf9ee587e",
        "scriptpubkey_asm": "OP_0 OP_PUSHBYTES_20 974dbca6a58e118b879e823c79c16d6bf9ee587e",
        "scriptpubkey_type": "v0_p2wpkh",
        "scriptpubkey_address": "bc1qjaxmef493cgchpu7sg78nstdd0u7ukr79cnkgj",
        "value": 121000
      },
      "scriptsig": "",
      "scriptsig_asm": "",
      "witness": [
        "304402205b66624758b59f9b42fb680b078a9eedde9d44b202da793eaa6669b5b860073f022050d4121461e4c72004169b0875284b0acfbfebe413efcff37a45977938aa712601",
        "03ce78bba186be8363d58c3370df8c334dc2a460d28d2adeed6325799fd92ef271"
      ],
      "is_coinbase": false,
      "sequence": 4294967295
    }
  ],
  "vout": [
    {
      "scriptpubkey": "a91409aa368b6c5ff01a1c8447dee2b5a948248063ee87",
      "scriptpubkey_asm": "OP_HASH160 OP_PUSHBYTES_20 09aa368b6c5ff01a1c8447dee2b5a948248063ee OP_EQUAL",
      "scriptpubkey_type": "p2sh",
      "scriptpubkey_address": "32a7ut4zV3UddasT39JCbzVNQn41yZnAox",
      "value": 111423
    },
    {
      "scriptpubkey": "76a91446b660c453db24e6ebed8bb179299619f758dd7188ac",
      "scriptpubkey_asm": "OP_DUP OP_HASH160 OP_PUSHBYTES_20 46b660c453db24e6ebed8bb179299619f758dd71 OP_EQUALVERIFY OP_CHECKSIG",
      "scriptpubkey_type": "p2pkh",
      "scriptpubkey_address": "17StnGroPUsNXBq4AVJQ1fqGftoFZh3zva",
      "value": 5735
    }
  ],
  "size": 226,
  "weight": 577,
  "fee": 3842,
  "status": {
    "confirmed": true,
    "block_height": 834638,
    "block_hash": "000000000000000000025f742c626208ac87e0b7d15054abb4a19ca2d735a54e",
    "block_time": 1710405325
  },
  "hex": "020000000001016670784ecbf4da8a5519c84389b75d2ebf4f49807952805b3fae4187d8db7ab10000000000ffffffff023fb301000000000017a91409aa368b6c5ff01a1c8447dee2b5a948248063ee8767160000000000001976a91446b660c453db24e6ebed8bb179299619f758dd7188ac0247304402205b66624758b59f9b42fb680b078a9eedde9d44b202da793eaa6669b5b860073f022050d4121461e4c72004169b0875284b0acfbfebe413efcff37a45977938aa7126012103ce78bba186be8363d58c3370df8c334dc2a460d28d2adeed6325799fd92ef27100000000"
}