{
  "txid": "e2473e5951d5dc023b90b4662e8e906746e73e268226c5ef70621117f69eaa38",
  "version": 2,
  "locktime": 833258,
  "vin": [
    {
      "txid": "4ea0b5fca7a36e4ed43aca9028da1e83b5cfa2fefee99590134972f51891e6db",
      "vout": 0,
      "prevout": {
        "scriptpubkey": "00142abe9938cd5c5faf9978640534177167084ed5e3",
        "scriptpubkey_asm": "OP_0 OP_PUSHBYTES_20 2abe9938cd5c5faf9978640534177167084ed5e3",
        "scriptpubkey_type": "v0_p2wpkh",
        "scriptpubkey_address": "bc1q92lfjwxdt306lxtcvszng9m3vuyya40r4jj696",
        "value": 10166811
      },
      "scriptsig": "",
      "scriptsig_asm": "",
      "witness": [
        "3044022048833b180b02e52ef23e2c353af50270aeb2cf6d71798cd4b9318ff2d1a9ee0b022043ef95759306bcaf0af9a06c3f21e731ded16cdebfc1982f79a3d321abf8c8a301",
        "0275a9eb84b1a95abdf4bded57dc198ba48264ea9b6217f797b4910d7e06bb1f63"
      ],
      "is_coinbase": false,
      "sequence": 4294967294
    },
    {
      "txid": "31b68ca3cdaf4127c8a3f5a0d208c0efe836a567126188432df904f3d6d796e4",
      "vout": 0,
      "prevout": {
        "scriptpubkey": "a9148f55d289a8a8da3bd9ad63612286a66e3b45ac0f87",
        "scriptpubkey_asm": "OP_HASH160 OP_PUSHBYTES_20 8f55d289a8a8da3bd9ad63612286a66e3b45ac0f OP_EQUAL",
        "scriptpubkey_type": "p2sh",
        "scriptpubkey_address": "3EkuN2BuJQfVRVCTXra6SFSnS2T4bFsKpB",
        "value": 3000000
      },
      "scriptsig": "160014d49f83bd9203fbf851e465b05940e271cdc2d853",
      "scriptsig_asm": "OP_PUSHBYTES_22 0014d49f83bd9203fbf851e465b05940e271cdc2d853",
      "witness": [
        "3044022012097e0f97440666a90d54a5bddb987c77cae74dd5d5d5ebd7c4b798fc85e5cc0220245b9172dd69a9c9becd700ea1a89783c481bf632aaf70d3c7a517fe9dc60bcc01",
        "035538167c395e3f4f9907c6d1d4e830cfa1bbf57e04b600e356820bb38450482b"
      ],
      "is_coinbase": false,
      "sequence": 4294967294,
      "inner_redeemscript_asm": "OP_0 OP_PUSHBYTES_20 d49f83bd9203fbf851e465b05940e271cdc2d853"
    },
    {
      "txid": "2bf4e9e6be5d7a1c85bbfff918142e0db2e7f4f5ba6fec7d17f97f36413b5488",
      "vout": 0,
      "prevout": {
        "scriptpubkey": "00141b778756e61a4f31f2081707956a2375a2b7eb57",
        "scriptpubkey_asm": "OP_0 OP_PUSHBYTES_20 1b778756e61a4f31f2081707956a2375a2b7eb57",
        "scriptpubkey_type": "v0_p2wpkh",
        "scriptpubkey_address": "bc1qrdmcw4hxrf8nrusgzure263rwk3t066h0tyq6p",
        "value": 779368
      },
      "scriptsig": "",
      "scriptsig_asm": "",
      "witness": [
        "3044022014fd298469199bf76f9199a6f96514f59a1987d0a925a9f508228825c746eccb02200677c19a293944da31441ca8d0aaf98e10dfe5cad16526d242155e715742a12201",
        "02f89114187a88c813ef647ca79c2e97d30e10a6ac30ca678d6a5e2d91bca92f27"
      ],
      "is_coinbase": false,
      "sequence": 4294967294
    },
    {
      "txid": "2eeca5ed0a79e8ac41acaaeb220f5dca0435eda8b6200e3f4fda7856748dac2f",
      "vout": 0,
      "prevout": {
        "scriptpubkey": "a914ed4ca4f4b9fa843d107dfb8f012f3c29bb7730bf87",
        "scriptpubkey_asm": "OP_HASH160 OP_PUSHBYTES_20 ed4ca4f4b9fa843d107dfb8f012f3c29bb7730bf OP_EQUAL",
        "scriptpubkey_type": "p2sh",
        "scriptpubkey_address": "3PKjtMK2NnvmmhQqSrmyTesuUJFRJkc58h",
        "value": 19737
      },
      "scriptsig": "16001405c5b7914b245f2113a2618717633876a8180853",
      "scriptsig_asm": "OP_PUSHBYTES_22 001405c5b7914b245f2113a2618717633876a8180853",
      "witness": [
        "304402206ce6942e439ccd10d937de6a2bd79232765d68383ea96bfea9438e1bcbcf6fbb0220569e730b5426c58170ee9449fb387714feb0c57fb5dbd891f6aff8a46555852601",
        "020e448b120c13297e5d5d11420cd87548cafa4912fd090a3821b2f7ebdd179dbb"
      ],
      "is_coinbase": false,
      "sequence": 4294967294,
      "inner_redeemscript_asm": "OP_0 OP_PUSHBYTES_20 05c5b7914b245f2113a2618717633876a8180853"
    },
    {
      "txid": "d1594b6deb6dc91e20018d59c18e3d43be3e8f7c06694eaf42a4d0d802a84b00",
      "vout": 1,
      "prevout": {
        "scriptpubkey": "76a9141129adc4ad7edfdf8b0b88f9ff2b4d8d9d35533a88ac",
        "scriptpubkey_asm": "OP_DUP OP_HASH160 OP_PUSHBYTES_20 1129adc4ad7edfdf8b0b88f9ff2b4d8d9d35533a OP_EQUALVERIFY OP_CHECKSIG",
        "scriptpubkey_type": "p2pkh",
        "scriptpubkey_address": "12ZkR9uyx4uhtkXkzPhJTuMPSW4GegUBbL",
        "value": 17309247
      },
      "scriptsig": "4730440220187df1ad38f09bbe18b4906a95fc19377fdf601bdaa6dc7251da432a0f6458c302203b5575b4018654dcfeb62ce4d30f827943bd60e128135378b17de86c85c8af9c0121038cec9225647b3db3c51f3318d3e1a9bd9beb43c015af65153280d25f6923fd5b",
      "scriptsig_asm": "OP_PUSHBYTES_71 30440220187df1ad38f09bbe18b4906a95fc19377fdf601bdaa6dc7251da432a0f6458c302203b5575b4018654dcfeb62ce4d30f827943bd60e128135378b17de86c85c8af9c01 OP_PUSHBYTES_33 038cec9225647b3db3c51f3318d3e1a9bd9beb43c015af65153280d25f6923fd5b",
      "is_coinbase": false,
      "sequence": 4294967294
    },
    {
      "txid": "908d758db520926623f9eb6548fafd08fe07f61da958b0dd3a3289324195993e",
      "vout": 1,
      "prevout": {
        "scriptpubkey": "76a914b2691974701d89e988a93ee5af666190c17d887188ac",
        "scriptpubkey_asm": "OP_DUP OP_HASH160 OP_PUSHBYTES_20 b2691974701d89e988a93ee5af666190c17d8871 OP_EQUALVERIFY OP_CHECKSIG",
        "scriptpubkey_type": "p2pkh",
        "scriptpubkey_address": "1HGMBanKMabCobVA3LhnstePXCW7bbJgDL",
        "value": 61006
      },
      "scriptsig": "47304402201dc6eb6edd9107dae0c57b11611433ea5c1ec78a79edc8eedc97f947eae306f402202749df7a595fc8d92c366c28c123d9fc93be45406ff663ddfee3117681485b3c012103e3208317600ae420808bd108695dd2f1356159269e5428783c886c3ef8b53962",
      "scriptsig_asm": "OP_PUSHBYTES_71 304402201dc6eb6edd9107dae0c57b11611433ea5c1ec78a79edc8eedc97f947eae306f402202749df7a595fc8d92c366c28c123d9fc93be45406ff663ddfee3117681485b3c01 OP_PUSHBYTES_33 03e3208317600ae420808bd108695dd2f1356159269e5428783c886c3ef8b53962",
      "is_coinbase": false,
      "sequence": 4294967294
    },
    {
      "txid": "6e2f74abf3b391679171b7cb7e93ac5dee4df9a505648ee7b6e372ef7c811720",
      "vout": 1,
      "prevout": {
        "scriptpubkey": "001494885a47a222a8b6c0c9e538563dd39867383401",
        "scriptpubkey_asm": "OP_0 OP_PUSHBYTES_20 94885a47a222a8b6c0c9e538563dd39867383401",
        "scriptpubkey_type": "v0_p2wpkh",
        "scriptpubkey_address": "bc1qjjy953azy25tdsxfu5u9v0wnnpnnsdqpg3t5k4",
        "value": 1754504
      },
      "scriptsig": "",
      "scriptsig_asm": "",
      "witness": [
        "3044022037d44ed283cf5ef20314790fbdddd2a7140b93d1a3f8c5de6c829cb2ce6ca62902201846ebb3990a85b35a5e985cd614a511e7a07513d5450aafc7be1032e717c43001",
        "0300b6b894db0ceb9fb7c25b2d6b37e8c7c102c6b87fc10af0450a2e9bbaef8e19"
      ],
      "is_coinbase": false,
      "sequence": 4294967294
    },
    {
      "txid": "fd3fb3e95c4da83aa221ebb91845b5c5f2463b986be868f90ebca03ff0fa8e95",
      "vout": 1,
      "prevout": {
        "scriptpubkey": "001411118c9c5a7721aab72bdda1f28ce2d1c1f90d91",
        "scriptpubkey_asm": "OP_0 OP_PUSHBYTES_20 11118c9c5a7721aab72bdda1f28ce2d1c1f90d91",
        "scriptpubkey_type": "v0_p2wpkh",
        "scriptpubkey_address": "bc1qzygce8z6wus64detmksl9r8z68qljrv3lx237r",
        "value": 1211016
      },
      "scriptsig": "",
      "scriptsig_asm": "",
      "witness": [
        "304402203fb6f09fb047db5cd9358d872138b916f21acf1ff1776b6f86f3ec2b69b0c79102203458a88ade154a8e73dca6cf554c6344808077e1769f28e02eb2d7f5713adf2d01",
        "0387b93fcf85b35d0ba910606c515ab335243758fb8d305163d1cd12fa9947561a"
      ],
      "is_coinbase": false,
      "sequence": 4294967294
    }
  ],
  "vout": [
    {
      "scriptpubkey": "76a914312cb878f6267102a8d9c9cee69e2c882018867788ac",
      "scriptpubkey_asm": "OP_DUP OP_HASH160 OP_PUSHBYTES_20 312cb878f6267102a8d9c9cee69e2c8820188677 OP_EQUALVERIFY OP_CHECKSIG",
      "scriptpubkey_type": "p2pkh",
      "scriptpubkey_address": "15V1geBr5dcTAKXr2nUQbcBcXuzVUCnU5d",
      "value": 34292974
    }
  ],
  "size": 1276,
  "weight": 3166,
  "fee": 8715,
  "status": {
    "confirmed": true,
    "block_height": 834464,
    "block_hash": "0000000000000000000177a0869a911a2b65c9bdcd5a8bcb02b68f305bee848e",
    "block_time": 1710308296
  },
  "hex": "02000000000108dbe69118f57249139095e9fefea2cfb5831eda2890ca3ad44e6ea3a7fcb5a04e0000000000feffffffe496d7d6f304f92d4388611267a536e8efc008d2a0f5a3c82741afcda38cb6310000000017160014d49f83bd9203fbf851e465b05940e271cdc2d853feffffff88543b41367ff9177dec6fbaf5f4e7b20d2e1418f9ffbb851c7a5dbee6e9f42b0000000000feffffff2fac8d745678da4f3f0e20b6a8ed3504ca5d0f22ebaaac41ace8790aeda5ec2e000000001716001405c5b7914b245f2113a2618717633876a8180853feffffff004ba802d8d0a442af4e69067c8f3ebe433d8ec1598d01201ec96deb6d4b59d1010000006a4730440220187df1ad38f09bbe18b4906a95fc19377fdf601bdaa6dc7251da432a0f6458c302203b5575b4018654dcfeb62ce4d30f827943bd60e128135378b17de86c85c8af9c0121038cec9225647b3db3c51f3318d3e1a9bd9beb43c015af65153280d25f6923fd5bfeffffff3e9995413289323addb058a91df607fe08fdfa4865ebf923669220b58d758d90010000006a47304402201dc6eb6edd9107dae0c57b11611433ea5c1ec78a79edc8eedc97f947eae306f402202749df7a595fc8d92c366c28c123d9fc93be45406ff663ddfee3117681485b3c012103e3208317600ae420808bd108695dd2f1356159269e5428783c886c3ef8b53962feffffff2017817cef72e3b6e78e6405a5f94dee5dac937ecbb771916791b3f3ab742f6e0100000000feffffff958efaf03fa0bc0ef968e86b983b46f2c5b54518b9eb21a23aa84d5ce9b33ffd0100000000feffffff01ee440b02000000001976a914312cb878f6267102a8d9c9cee69e2c882018867788ac02473044022048833b180b02e52ef23e2c353af50270aeb2cf6d71798cd4b9318ff2d1a9ee0b022043ef95759306bcaf0af9a06c3f21e731ded16cdebfc1982f79a3d321abf8c8a301210275a9eb84b1a95abdf4bded57dc198ba48264ea9b6217f797b4910d7e06bb1f6302473044022012097e0f97440666a90d54a5bddb987c77cae74dd5d5d5ebd7c4b798fc85e5cc0220245b9172dd69a9c9becd700ea1a89783c481bf632aaf70d3c7a517fe9dc60bcc0121035538167c395e3f4f9907c6d1d4e830cfa1bbf57e04b600e356820bb38450482b02473044022014fd298469199bf76f9199a6f96514f59a1987d0a925a9f508228825c746eccb02200677c19a293944da31441ca8d0aaf98e10dfe5cad16526d242155e715742a122012102f89114187a88c813ef647ca79c2e97d30e10a6ac30ca678d6a5e2d91bca92f270247304402206ce6942e439ccd10d937de6a2bd79232765d68383ea96bfea9438e1bcbcf6fbb0220569e730b5426c58170ee9449fb387714feb0c57fb5dbd891f6aff8a4655585260121020e448b120c13297e5d5d11420cd87548cafa4912fd090a3821b2f7ebdd179dbb000002473044022037d44ed283cf5ef20314790fbdddd2a7140b93d1a3f8c5de6c829cb2ce6ca62902201846ebb3990a85b35a5e985cd614a511e7a07513d5450aafc7be1032e717c43001210300b6b894db0ceb9fb7c25b2d6b37e8c7c102c6b87fc10af0450a2e9bbaef8e190247304402203fb6f09fb047db5cd9358d872138b916f21acf1ff1776b6f86f3ec2b69b0c79102203458a88ade154a8e73dca6cf554c6344808077e1769f28e02eb2d7f5713adf2d01210387b93fcf85b35d0ba910606c515ab335243758fb8d305163d1cd12fa9947561aeab60c00"
}