{
  "txid": "e24f4c83a83ae873e010947e53c25e2435c5543db85c444150df4d6e81d561da",
  "version": 2,
  "locktime": 0,
  "vin": [
    {
      "txid": "f05b1efffc469c6fa7630497891278bebb1ec0e637cf3cdf90515c9fe9d16f67",
      "vout": 0,
      "prevout": {
        "scriptpubkey": "51204ef889b43b4b610101c954e731210f0f73091219ce9a23af5c7961b26ac5b1c9",
        "scriptpubkey_asm": "OP_PUSHNUM_1 OP_PUSHBYTES_32 4ef889b43b4b610101c954e731210f0f73091219ce9a23af5c7961b26ac5b1c9",
        "scriptpubkey_type": "v1_p2tr",
        "scriptpubkey_address": "bc1pfmugndpmfdsszqwf2nnnzgg0paesjysee6dz8t6u09smy6k9k8ys7ph6c4",
        "value": 4000
      },
      "scriptsig": "",
      "scriptsig_asm": "",
      "witness": [
        "e4ad5d897e5163b430e3dcc349d3bf9703ca64a5807e3ac3eefdd272e197e508eabab9ff73546bf96d7c863e24874e510b0a33a7a134df66f43518948bcf0527",
        "2022ba8bfe5df16113094c07479abfdfe918082820196a585b5d11277c6e62f608ac0063036f7264010118746578742f706c61696e3b636861727365743d7574662d3800397b2270223a226272632d3230222c226f70223a227472616e73666572222c227469636b223a2262696c69222c22616d74223a2232333030227d68",
        "c0c22a00100944e3d808975826f964e26a40a178962d3b91fac3c418352499ca81"
      ],
      "is_coinbase": false,
      "sequence": 4294967293
    }
  ],
  "vout": [
    {
      "scriptpubkey": "5120d05af42388c33c83ba5ecf2307bfb582da6c50c429457559931802234a0bea66",
      "scriptpubkey_asm": "OP_PUSHNUM_1 OP_PUSHBYTES_32 d05af42388c33c83ba5ecf2307bfb582da6c50c429457559931802234a0bea66",
      "scriptpubkey_type": "v1_p2tr",
      "scriptpubkey_address": "bc1p6pd0ggugcv7g8wj7eu3s00a4stdxc5xy99zh2kvnrqpzxjstafnqg52nwd",
      "value": 330
    },
    {
      "scriptpubkey": "0014fb55d77e6086245d0df1c0ad855e02178792b2c9",
      "scriptpubkey_asm": "OP_0 OP_PUSHBYTES_20 fb55d77e6086245d0df1c0ad855e02178792b2c9",
      "scriptpubkey_type": "v0_p2wpkh",
      "scriptpubkey_address": "bc1qld2awlnqscj96r03czkc2hszz7re9vkfnp7jcd",
      "value": 1657
    }
  ],
  "size": 355,
  "weight": 730,
  "fee": 2013,
  "status": {
    "confirmed": true,
    "block_height": 834464,
    "block_hash": "0000000000000000000177a0869a911a2b65c9bdcd5a8bcb02b68f305bee848e",
    "block_time": 1710308296
  },
  "hex": "02000000000101676fd1e99f5c5190df3ccf37e6c01ebbbe781289970463a76f9c46fcff1e5bf00000000000fdffffff024a01000000000000225120d05af42388c33c83ba5ecf2307bfb582da6c50c429457559931802234a0bea667906000000000000160014fb55d77e6086245d0df1c0ad855e02178792b2c90340e4ad5d897e5163b430e3dcc349d3bf9703ca64a5807e3ac3eefdd272e197e508eabab9ff73546bf96d7c863e24874e510b0a33a7a134df66f43518948bcf05277f2022ba8bfe5df16113094c07479abfdfe918082820196a585b5d11277c6e62f608ac0063036f7264010118746578742f706c61696e3b636861727365743d7574662d3800397b2270223a226272632d3230222c226f70223a227472616e73666572222c227469636b223a2262696c69222c22616d74223a2232333030227d6821c0c22a00100944e3d808975826f964e26a40a178962d3b91fac3c418352499ca8100000000"
}