{
  "txid": "e25d782e8f22bc8c23d81540e65c9eb5b687daa5daf2085a3705886ec2c3c5bd",
  "version": 2,
  "locktime": 0,
  "vin": [
    {
      "txid": "8486ecb4df0880316dd6e82b3971b4df187aff23765bc3a47f8d78bb53aa273c",
      "vout": 36,
      "prevout": {
        "scriptpubkey": "512007ff689949ab19a66965bc19617be42119b424be13d3184ceff146351330d409",
        "scriptpubkey_asm": "OP_PUSHNUM_1 OP_PUSHBYTES_32 07ff689949ab19a66965bc19617be42119b424be13d3184ceff146351330d409",
        "scriptpubkey_type": "v1_p2tr",
        "scriptpubkey_address": "bc1pqllk3x2f4vv6v6t9hsvkz7lyyyvmgf97z0f3sn8079rr2yes6sysnn7h35",
        "value": 2575
      },
      "scriptsig": "",
      "scriptsig_asm": "",
      "witness": [
        "8683f88fb030de33d39836af3bde79be7649a5d10042683184d4ce50609adc0457376efcf5899d400081324009f24015ccf0c32c66906cbb7f48718215dc9094",
        "2011e7d3d0a5afc7dcc9d0d0d6a5482ff59af42bf4f29e9580585a5aaae8f9c701ac0063036f726401010a746578742f706c61696e00367b2270223a226272632d3230222c226f70223a226d696e74222c227469636b223a2261616161222c22616d74223a223130303030227d68",
        "c011e7d3d0a5afc7dcc9d0d0d6a5482ff59af42bf4f29e9580585a5aaae8f9c701"
      ],
      "is_coinbase": false,
      "sequence": 4261412863
    }
  ],
  "vout": [
    {
      "scriptpubkey": "0014ddd7ef12ea6f78edcc1e8e7afa12c01ab59f3339",
      "scriptpubkey_asm": "OP_0 OP_PUSHBYTES_20 ddd7ef12ea6f78edcc1e8e7afa12c01ab59f3339",
      "scriptpubkey_type": "v0_p2wpkh",
      "scriptpubkey_address": "bc1qmht77yh2dauwmnq73ea05ykqr26e7veea8spz6",
      "value": 546
    }
  ],
  "size": 295,
  "weight": 541,
  "fee": 2029,
  "status": {
    "confirmed": true,
    "block_height": 834460,
    "block_hash": "00000000000000000000484a79b643b2524bbce82e5d8a442013fa5b8905ed98",
    "block_time": 1710307468
  },
  "hex": "020000000001013c27aa53bb788d7fa4c35b7623ff7a18dfb471392be8d66d318008dfb4ec86842400000000fffffffd012202000000000000160014ddd7ef12ea6f78edcc1e8e7afa12c01ab59f333903408683f88fb030de33d39836af3bde79be7649a5d10042683184d4ce50609adc0457376efcf5899d400081324009f24015ccf0c32c66906cbb7f48718215dc90946e2011e7d3d0a5afc7dcc9d0d0d6a5482ff59af42bf4f29e9580585a5aaae8f9c701ac0063036f726401010a746578742f706c61696e00367b2270223a226272632d3230222c226f70223a226d696e74222c227469636b223a2261616161222c22616d74223a223130303030227d6821c011e7d3d0a5afc7dcc9d0d0d6a5482ff59af42bf4f29e9580585a5aaae8f9c70100000000"
}