{
  "txid": "e26b8d1382d9e04fcce9bf4b43072c00aae4f029c1b6be2a842885a2ae94160f",
  "version": 2,
  "locktime": 0,
  "vin": [
    {
      "txid": "5ee96d339fe59ec93bdc00d9b68ee738c9f8bba13331530b48412b1c5def3e78",
      "vout": 0,
      "prevout": {
        "scriptpubkey": "00141299c2d498617cead81cd318bb71f6b2efad8d92",
        "scriptpubkey_asm": "OP_0 OP_PUSHBYTES_20 1299c2d498617cead81cd318bb71f6b2efad8d92",
        "scriptpubkey_type": "v0_p2wpkh",
        "scriptpubkey_address": "bc1qz2vu94ycv97w4kqu6vvtku0kkth6mrvj7cykdx",
        "value": 294
      },
      "scriptsig": "",
      "scriptsig_asm": "",
      "witness": [
        "304402204f1d7b0193094b17c351ddae922a9d2615a6d8f1a99a2483b94f0c77c9122fcf02206a75d77c8df14f261240e2d7bb7faab02f1867f4cd8aa322e562e727dcbb906701",
        "021a11ca0c34895c8b6fe48cc98580a39f1b7423930ea42401cdb00f202fbd1428"
      ],
      "is_coinbase": false,
      "sequence": 4294967293
    },
    {
      "txid": "c467677bf4821b1288b6c5458087d08243f912bef4bcd51beee30aa98bec8d5a",
      "vout": 2,
      "prevout": {
        "scriptpubkey": "00141299c2d498617cead81cd318bb71f6b2efad8d92",
        "scriptpubkey_asm": "OP_0 OP_PUSHBYTES_20 1299c2d498617cead81cd318bb71f6b2efad8d92",
        "scriptpubkey_type": "v0_p2wpkh",
        "scriptpubkey_address": "bc1qz2vu94ycv97w4kqu6vvtku0kkth6mrvj7cykdx",
        "value": 2814430
      },
      "scriptsig": "",
      "scriptsig_asm": "",
      "witness": [
        "30440220335aeb4b61090aae9ea5bc482a0cca7e6ea9e967bd7b904503469a5c1198b89802205a3dd5abc23639f928a911080c38b78025fc3dc463dba90f43f241bc4c73814801",
        "021a11ca0c34895c8b6fe48cc98580a39f1b7423930ea42401cdb00f202fbd1428"
      ],
      "is_coinbase": false,
      "sequence": 4294967293
    }
  ],
  "vout": [
    {
      "scriptpubkey": "0014705bfdb4e8b179fb0ea18f025602f7aa57f93118",
      "scriptpubkey_asm": "OP_0 OP_PUSHBYTES_20 705bfdb4e8b179fb0ea18f025602f7aa57f93118",
      "scriptpubkey_type": "v0_p2wpkh",
      "scriptpubkey_address": "bc1qwpdlmd8gk9ulkr4p3up9vqhh4ftljvgctw3ttr",
      "value": 294
    },
    {
      "scriptpubkey": "0014fb7a185fc47428a9992c09f70c6add47a5c19223",
      "scriptpubkey_asm": "OP_0 OP_PUSHBYTES_20 fb7a185fc47428a9992c09f70c6add47a5c19223",
      "scriptpubkey_type": "v0_p2wpkh",
      "scriptpubkey_address": "bc1qldapsh7yws52nxfvp8msc6kag7jury3rxrw4dm",
      "value": 30000
    },
    {
      "scriptpubkey": "00141299c2d498617cead81cd318bb71f6b2efad8d92",
      "scriptpubkey_asm": "OP_0 OP_PUSHBYTES_20 1299c2d498617cead81cd318bb71f6b2efad8d92",
      "scriptpubkey_type": "v0_p2wpkh",
      "scriptpubkey_address": "bc1qz2vu94ycv97w4kqu6vvtku0kkth6mrvj7cykdx",
      "value": 2779150
    }
  ],
  "size": 401,
  "weight": 956,
  "fee": 5280,
  "status": {
    "confirmed": true,
    "block_height": 834638,
    "block_hash": "000000000000000000025f742c626208ac87e0b7d15054abb4a19ca2d735a54e",
    "block_time": 1710405325
  },
  "hex": "02000000000102783eef5d1c2b41480b533133a1bbf8c938e78eb6d900dc3bc99ee59f336de95e0000000000fdffffff5a8dec8ba90ae3ee1bd5bcf4be12f94382d0878045c5b688121b82f47b6767c40200000000fdffffff032601000000000000160014705bfdb4e8b179fb0ea18f025602f7aa57f931183075000000000000160014fb7a185fc47428a9992c09f70c6add47a5c192230e682a00000000001600141299c2d498617cead81cd318bb71f6b2efad8d920247304402204f1d7b0193094b17c351ddae922a9d2615a6d8f1a99a2483b94f0c77c9122fcf02206a75d77c8df14f261240e2d7bb7faab02f1867f4cd8aa322e562e727dcbb90670121021a11ca0c34895c8b6fe48cc98580a39f1b7423930ea42401cdb00f202fbd1428024730440220335aeb4b61090aae9ea5bc482a0cca7e6ea9e967bd7b904503469a5c1198b89802205a3dd5abc23639f928a911080c38b78025fc3dc463dba90f43f241bc4c7381480121021a11ca0c34895c8b6fe48cc98580a39f1b7423930ea42401cdb00f202fbd142800000000"
}