{
  "txid": "e27d1189d0d90cc8cfb3720f1465695df6d7a5ce9b79502ce0778c1fb98c7e02",
  "version": 2,
  "locktime": 834637,
  "vin": [
    {
      "txid": "178e2d42ee98128abdb6e6b9a6590167076dfd05d333aa354e612f06170664d5",
      "vout": 1,
      "prevout": {
        "scriptpubkey": "0014d1245b1e0b91603652006c2cc60a52d10460332b",
        "scriptpubkey_asm": "OP_0 OP_PUSHBYTES_20 d1245b1e0b91603652006c2cc60a52d10460332b",
        "scriptpubkey_type": "v0_p2wpkh",
        "scriptpubkey_address": "bc1q6yj9k8stj9srv5sqdskvvzjj6yzxqvet53wvyy",
        "value": 154912167
      },
      "scriptsig": "",
      "scriptsig_asm": "",
      "witness": [
        "30440220627988f313b2e09ec30471781f1891a7220f9c4ed8de3c699b3fd9894f0dc568022012293a56b3b482bfb4d30ec47071473360684ace66c22aa0fd94ae039d59fc6b01",
        "020ebb40e39a751a88b54c28b06e9006a3ee07fd9fc9b3667fb90666642eec9469"
      ],
      "is_coinbase": false,
      "sequence": 4294967293
    }
  ],
  "vout": [
    {
      "scriptpubkey": "a9148cd2a8e200c0d89495be045b2ab0791189abbdb087",
      "scriptpubkey_asm": "OP_HASH160 OP_PUSHBYTES_20 8cd2a8e200c0d89495be045b2ab0791189abbdb0 OP_EQUAL",
      "scriptpubkey_type": "p2sh",
      "scriptpubkey_address": "3EXctHv7mN1TVnaQohJmLxQZ75ZMT46wfX",
      "value": 617897
    },
    {
      "scriptpubkey": "001448088e7bc7ae3d6c54a7f17bf2dbbb3606b0d930",
      "scriptpubkey_asm": "OP_0 OP_PUSHBYTES_20 48088e7bc7ae3d6c54a7f17bf2dbbb3606b0d930",
      "scriptpubkey_type": "v0_p2wpkh",
      "scriptpubkey_address": "bc1qfqygu7784c7kc49879al9kamxcrtpkfs6uzwrc",
      "value": 154290436
    }
  ],
  "size": 223,
  "weight": 565,
  "fee": 3834,
  "status": {
    "confirmed": true,
    "block_height": 834638,
    "block_hash": "000000000000000000025f742c626208ac87e0b7d15054abb4a19ca2d735a54e",
    "block_time": 1710405325
  },
  "hex": "02000000000101d5640617062f614e35aa33d305fd6d07670159a6b9e6b6bd8a1298ee422d8e170100000000fdffffff02a96d09000000000017a9148cd2a8e200c0d89495be045b2ab0791189abbdb087044932090000000016001448088e7bc7ae3d6c54a7f17bf2dbbb3606b0d930024730440220627988f313b2e09ec30471781f1891a7220f9c4ed8de3c699b3fd9894f0dc568022012293a56b3b482bfb4d30ec47071473360684ace66c22aa0fd94ae039d59fc6b0121020ebb40e39a751a88b54c28b06e9006a3ee07fd9fc9b3667fb90666642eec94694dbc0c00"
}