{
  "txid": "e2864c178680e26ff4467cf616436942b070fca737d344a6b2adf017319582e4",
  "version": 2,
  "locktime": 0,
  "vin": [
    {
      "txid": "b1c4bee8aecacf883235fb489f3e9f598669e27d552a4c644be7c7a46ffbba88",
      "vout": 1,
      "prevout": {
        "scriptpubkey": "76a914f7f5b998ffd3b94640aac6353924f8d26ba10c4b88ac",
        "scriptpubkey_asm": "OP_DUP OP_HASH160 OP_PUSHBYTES_20 f7f5b998ffd3b94640aac6353924f8d26ba10c4b OP_EQUALVERIFY OP_CHECKSIG",
        "scriptpubkey_type": "p2pkh",
        "scriptpubkey_address": "1Pc6GevMYajpvJG54PbMxJ5rmQaFXgxqgm",
        "value": 65979356
      },
      "scriptsig": "4830450221008ee3dc877d73f589ac913993f18abe4dceddab47ebf9f754cd66b5e55dddc61402201d28ba3c57a78fbf42c24fa03c748088015fa964e96767bc10c85988ee5e86f80121021ca74d8cd7da2941103c068e5c80c4a0b22713d6f12062111976981706727bbd",
      "scriptsig_asm": "OP_PUSHBYTES_72 30450221008ee3dc877d73f589ac913993f18abe4dceddab47ebf9f754cd66b5e55dddc61402201d28ba3c57a78fbf42c24fa03c748088015fa964e96767bc10c85988ee5e86f801 OP_PUSHBYTES_33 021ca74d8cd7da2941103c068e5c80c4a0b22713d6f12062111976981706727bbd",
      "is_coinbase": false,
      "sequence": 0
    }
  ],
  "vout": [
    {
      "scriptpubkey": "a914b458db5c2c9c92012d2eaa884eedecc7d538599487",
      "scriptpubkey_asm": "OP_HASH160 OP_PUSHBYTES_20 b458db5c2c9c92012d2eaa884eedecc7d5385994 OP_EQUAL",
      "scriptpubkey_type": "p2sh",
      "scriptpubkey_address": "3J8bzxU84wZKWUF6qByKSmwxGfZhZLhW6k",
      "value": 10000000
    },
    {
      "scriptpubkey": "76a914fc44757f05d996eba4b4fc529b50a1e53950d31d88ac",
      "scriptpubkey_asm": "OP_DUP OP_HASH160 OP_PUSHBYTES_20 fc44757f05d996eba4b4fc529b50a1e53950d31d OP_EQUALVERIFY OP_CHECKSIG",
      "scriptpubkey_type": "p2pkh",
      "scriptpubkey_address": "1PzsHxKmCoXJzzooX9BZxf2UjJuqJANM5X",
      "value": 55975360
    }
  ],
  "size": 224,
  "weight": 896,
  "fee": 3996,
  "status": {
    "confirmed": true,
    "block_height": 834638,
    "block_hash": "000000000000000000025f742c626208ac87e0b7d15054abb4a19ca2d735a54e",
    "block_time": 1710405325
  },
  "hex": "020000000188bafb6fa4c7e74b644c2a557de26986599f3e9f48fb353288cfcaaee8bec4b1010000006b4830450221008ee3dc877d73f589ac913993f18abe4dceddab47ebf9f754cd66b5e55dddc61402201d28ba3c57a78fbf42c24fa03c748088015fa964e96767bc10c85988ee5e86f80121021ca74d8cd7da2941103c068e5c80c4a0b22713d6f12062111976981706727bbd0000000002809698000000000017a914b458db5c2c9c92012d2eaa884eedecc7d538599487c01d5603000000001976a914fc44757f05d996eba4b4fc529b50a1e53950d31d88ac00000000"
}