{
  "txid": "e2876912d7c4f91b1286661b46926e048435a379a17b3813c86a992a8d81f489",
  "version": 2,
  "locktime": 0,
  "vin": [
    {
      "txid": "af596a00f9882efcbc2299796db98c26209901d10922ad9cdb4eb6ca495b990c",
      "vout": 1,
      "prevout": {
        "scriptpubkey": "5120a7aab72de1019a27eeec674fdbfea94d7b7e6f6787da121f59da8dad8b0bcbbb",
        "scriptpubkey_asm": "OP_PUSHNUM_1 OP_PUSHBYTES_32 a7aab72de1019a27eeec674fdbfea94d7b7e6f6787da121f59da8dad8b0bcbbb",
        "scriptpubkey_type": "v1_p2tr",
        "scriptpubkey_address": "bc1p574twt0pqxdz0mhvva8ahl4ff4ahumm8sldpy86em2x6mzctewas2v3nhu",
        "value": 53913358
      },
      "scriptsig": "",
      "scriptsig_asm": "",
      "witness": [
        "868b22bb77cb9f8ce2d6733363b30e0e75c2e9df070af148d60124d443f19fe7e68c7abe07a1878236bb6eee7869964e98e619f5bd3541e675bb2fd418c04ae0"
      ],
      "is_coinbase": false,
      "sequence": 4294967293
    }
  ],
  "vout": [
    {
      "scriptpubkey": "5120c644f9224fca4f79f606803220fc73b96897a0350fbbbcfb9a0ed8ba1f87a505",
      "scriptpubkey_asm": "OP_PUSHNUM_1 OP_PUSHBYTES_32 c644f9224fca4f79f606803220fc73b96897a0350fbbbcfb9a0ed8ba1f87a505",
      "scriptpubkey_type": "v1_p2tr",
      "scriptpubkey_address": "bc1pcez0jgj0ef8hnasxsqezplrnh95f0gp4p7ame7u6pmvt58u855zs8m3rlr",
      "value": 2841
    },
    {
      "scriptpubkey": "5120a7aab72de1019a27eeec674fdbfea94d7b7e6f6787da121f59da8dad8b0bcbbb",
      "scriptpubkey_asm": "OP_PUSHNUM_1 OP_PUSHBYTES_32 a7aab72de1019a27eeec674fdbfea94d7b7e6f6787da121f59da8dad8b0bcbbb",
      "scriptpubkey_type": "v1_p2tr",
      "scriptpubkey_address": "bc1p574twt0pqxdz0mhvva8ahl4ff4ahumm8sldpy86em2x6mzctewas2v3nhu",
      "value": 53908207
    }
  ],
  "size": 205,
  "weight": 616,
  "fee": 2310,
  "status": {
    "confirmed": true,
    "block_height": 834638,
    "block_hash": "000000000000000000025f742c626208ac87e0b7d15054abb4a19ca2d735a54e",
    "block_time": 1710405325
  },
  "hex": "020000000001010c995b49cab64edb9cad2209d1019920268cb96d799922bcfc2e88f9006a59af0100000000fdffffff02190b000000000000225120c644f9224fca4f79f606803220fc73b96897a0350fbbbcfb9a0ed8ba1f87a505ef92360300000000225120a7aab72de1019a27eeec674fdbfea94d7b7e6f6787da121f59da8dad8b0bcbbb0140868b22bb77cb9f8ce2d6733363b30e0e75c2e9df070af148d60124d443f19fe7e68c7abe07a1878236bb6eee7869964e98e619f5bd3541e675bb2fd418c04ae000000000"
}