{
  "txid": "e28f6b4426d7fbfd2ea1911c17e5873bebbac8060a49985bd87d4fca5cefb8fd",
  "version": 2,
  "locktime": 0,
  "vin": [
    {
      "txid": "a7e4f1721a64ca7ea335fade98e802a3991def85f69eaa25f906a0e29a3e32eb",
      "vout": 0,
      "prevout": {
        "scriptpubkey": "5120f4caabd0a4cacaf56d5895efeb2dee69f3fd6e0303133167aa4a0831006c82c6",
        "scriptpubkey_asm": "OP_PUSHNUM_1 OP_PUSHBYTES_32 f4caabd0a4cacaf56d5895efeb2dee69f3fd6e0303133167aa4a0831006c82c6",
        "scriptpubkey_type": "v1_p2tr",
        "scriptpubkey_address": "bc1p7n92h59yet902m2cjhh7kt0wd8el6msrqvfnzea2fgyrzqrvstrqcs46ce",
        "value": 33123
      },
      "scriptsig": "",
      "scriptsig_asm": "",
      "witness": [
        "ca5955ab6cfa96885d871e769ff1d3b6d37d1cbbee6e9220d4b6b6c17f6919952a6d976fd6465c237973c8c62af423095395a6b9aba1e2eeecb9357a32c40fb2",
        "20f2d00e1cce0b839d2e197679cac7a15152ec244338032c7767f72c1332d49a65ac0063036f7264010109696d6167652f706e67004d080289504e470d0a1a0a0000000d49484452000000c8000000c80806000000ad58ae9e000000097048597300002e2300002e230178a53f7600000ddd49444154789ced9dd18e1cb71145f9ff7fb09f9277bfe5c9792938409044566c04da5d415ac95acb9168f4442db45a6cb248165945f21640d8bb33d35dc3ba87b7d83d9a75fe8e3c06e6001aa0e01c384c0ce08006e8720e004867409c7345032226953900204681002c6462510020834001672100a2bd5a8c02055a308283680b7e1430b057a1b6f5d516d8a8e33b617aaf0ec7d75c0ccc8f9f6400904a3076388ea10d0840210062c5354291146e46001282838c064769d4bebe141eedb9f3030fb458c270d4b8454b48000a01106de76089541914ed15d90f36e0201de1680d0b202100d275f5c81072d5d526e6f10109c141468023f4fbeaab4d82012721b45823b75668b7681c2d6827607170e09002a3254470120220ade068d1464941910b0feb3c0616266f70c04118ee61018cd47353a0001202202ddda3879ba4ce511300840088141c252d4e8b564a3a0009a1c59204a407183d01012404405ac0313a14b990686f8cbda1814d7a64efd11384def00012022025eec115502920569c05801000a9d99c5b69a54a9c28f47a404268b1a4ae5c591bdcd53f064b0924dec01e407b2cbd07d1167e89eba49e9beb58008400c8cc8048041c84e02023c111127e0944b58038b459ebb658a34d080281912372ce73b9907803b552d5897602abc35113b9c7899d3b99e79d7edd004807204601440a24eef9b3f3be5b64319dfe0d1a8040c36d6a810428341e20b92b9ab6a07b83d20228c7c9c780369a694e3d0149e14c00476e481c03a0902c2016c4d2021031a1341470ab638bd4eb4e7fc537e1201a2be555318f3f4b025223a496d1ea9c80836c015253e4d40ad62b97deefaf359455f375a7bfda4fe5204d004be4d75a7cdddfaf7000105a1b905a504a44690d8216393a38080f102b452a119f6501b708c939f2065a21f32d9674e1728ac80124259052018d028cc47b7100441f90bd1025c56d915f29289ad0b4c8d52d08874907d98b51526c4e9e35394bc0d27ba472af7dbfde808897022454586ec1b8b9ce0c4b2cdf16efcd1b10f172805c15f5eabc9c6249888c93bb05185ae4ee2fe6515bc04b011202e2aa80c7c7738aa525c09268056ee8775c77708bb988082092823817f5aa98c7e797146a24506a83fd3e4b17c73b7d212f01c8b9a0b19f43852fc97f465872de0f00a131010915fbf8b32420a33a4b4daea5903838882e2057ee116bb72401918445628e8a9ca0e2f8450be41d4d3bcc39c8151cbd01c93db7e69098f39cb9740bb988294062ee91144961fea5ef716420b8efc503107b809c8b962a622e209cd795bebf5180c8c9ddc341ec02922ae0f1f75280d408f4df3ffef7f6dfb7afdefbfb176f6fc32a1057c181c4554d08023af8125fdad0c3f24704e4f9fdc7af3f6fffbf83b28d0d9cdee11edd6d847e7ff99a04000e80e80372feff1e80d4ace8f72fdef81ffff2cfffbb4640944757e9094b28972b68be3e0e17f1661de40c8736209cd89ce2a71f5edec611902b116ecf3f03d30a9a182070111ab3c50a16ba312035add526ee5ffffee8fff1d75fbf115f4c80c738b762a1716cddb2e6ed94476e7eeec24d5669b3860084b5b15502e428e294f8b8c0e48013739d502ee71c39a038eec50503825e0210ee1e441b904d589b48b9c2cb71951278386e71956749bbe51680c414205c182c00b28b6a5fc1b92b756efb95357f87639f81e1c072795c0740d4012981420b9098d07201910285739e548e57ed9a03203a8070c52ed9fb4a03926aa7b8a3364a5abcf373aff6380e80f4034462f53f1fc72220a1e7e5bc366b4e99e071400eed715c0620b3ed43baec41a426d20220392e70f5786b408ebf0b3d9793e337cf716ddadde9ff3e4872a5159e3c4b80c444187b4d48943590c420ac79fd37cf7100441c9016ab8a3620351becd0ca1d3a666ec4daa99cbca24ee80048956043a26d61b79a8048083957989c63b6d8e8071f736b4222d262f59aa0de80ece37625475088bb1839c2d4004402126f40dc66016996ac12209c0f20b614a605405ca4d60024536c2302128544588839c2e4be0e80906d07690dc7152035395b042477e3dff252f131e0203582ed00c77e4d0802be73b124a106207280b849f621d50ed235d90500297d9da683f889f7216ea864010800b9032000a470e58783101cc4428b25d966d51e572227cefb7368b1f45ba8515a2ce91b86521f35697d0c97d867ccb80fc11e8401484844d2f71d241da0e6b500840048ae835c09494bd452c7ca7d3f0e0ea26f69165bac98a02444d9db8d4adf870320fa108c0a488d285b0072b9d98ee4b07f434bf43c8ebf07d1d68b88e6b4131809905cb1a79e27b9d9cf3d67088e1240dce4900c07486d012400a911624b384a73db0280100091044402921ec13df7fe250dc9e3393888ba537085abe92029016a0151131c40b6408b6518885a48a4010905b75d9911103fd93ec4dc1e240a42a450b9c7cf397789d0008803203d01e1ac68b9c7af811380383888b67be40417128eeb0010de5c3bb45876e128dd938c0048ee1eaca61d3ce75d929fe7d4b3f3622ba64bed0482c215108f26203502b7364201408c02922aa41620da22062034b78394acd4a1e7e7ae6c00a4cc455ce63ca7e6dbf2181610ce4a3e0a2031e8cfc74f3d57221f0940fc24fb1000620090fdf81cc1a7e09006241400644007e15a7a0b07917691d8f14be7420a8e2d00c84080440b3c18203187c89d1f8b80b801dbac615b2c56813b02c2cee9caed98c7969c9f1238b6c8113d00e90c4956913b03c2c9f3ea31ee3173cead79a3d00390762e7255dc90d04205bb2a5e09449262ab05844d08021b0084e474a9d55695421213440a126d405239cf088857f82b00a29ad44e2025cc58a1735b2d4b8084dec7a8803881cfbf591da6008941523b72201919901e393b463b1b9a4f6d6d4d01482d24b1225e1d5f1390fdd852ed56cdeb6b01710947d6d6d534809440c22964cdb95b89ed98eb39e7dcd7d7022601889b0c12b3809480c2128e514038c2ab9907e99cdde97c2950008801507244d71a925a4062b94b835192b32b6c6bb517dc6cdd6927200d4aaa985c602400d9be6b4a325ac22101c81e3148b4f5b33c20359048aed0237eb389142035ce6d6d4ce720292103903e806c01400c0012fa7d4ec041da013283930ceb20fbe447e1a988da63adde629d0380180044121200c29f9fe23935b0e02ee52000a42e8a3fac9811a3b55bd3011282a4c449e02005429f10926500e15cf192bac4bbda1ec40981a2adad6500c985241724aed85601c437f8b73cda3a1b1e90d4446a03f2f6d5fba500f1425f3e6e0d9269019106a7246605c4456a20d972590065384034200420df464ac0d27b134d50000813949258d141fc6490001000d204102fe0c6d1961780d86bb572636507f1427309400c800040da03e21b7ca0142d1600310788ab106acd7e0e8018708c545b905bdc195b2c0740f485696d94420240a8d841cef30d0731000200b1e3202eb028610f62000638880d40b608b93636e9068058b1c5e27c76cc555e4dba123bf77cdfbdae4d080247edb5c53733209be84609cea78f5d234072208183180002807c1fcfef3f8a0172b9a768006575edb5c537c258c541aef27d7effd1fff2d3c3edf15ab126af4c9d028018000080f8241ccf5fbe25520a90d48841d2b5f6dae21b61ace020e75c3720eebfec4b8e5fa1da0a102e3cdd6baf2dbe51c64a80ecae717ff1771625447b750c4b70001000f2dd15ac906b1cc38a70018881c959c5413618de7cb90f52f2792c6fa03e7010ed899a18902dcfe3463c150e80e8936b6dcc08c87ef73c374f0740f405696dcc04c8f10a55493800a22fc8192ef55a0424b509e7840320fa82b4364607646fa7243e40e90088be20ad8d510139ded390f89b890e9779f5c568719c85c1119c2620c77d86641e0e80e88bd1e2380be3eaa31867816a5eb69506d419bac3ddadeeda098cde626d203cfcfce41f5e3ef9a787df54bfddfdb8cf90fe13d45b00100342b43a529f38fddf1f9ffcc70f7fdc84f9eef1837ff5af37fee1e73e80ec6e9573b32f37dc82ee71abbb7602b300728e4f9f3efba7fbdffcbbd71f7ccb68b1cf388733f601c2ae75d74e6056408ef1e1e977fffa9777a22296bc6c1b0b67ece3e7ddebae9dc00a806cf1f9b3f7ef5e3ffbc7ff3cdd9c25278e6d53eae2404f301c00d117a6a5712996cc787cf9c46e8db6c7f7d1038c2d56770d7facb976022b0292f399a8177f7b751b3dc0d8637528fcb1e6da09ac0cc81ebb3bec001cc1d94dfb01e0e87dc311701000910645f22321c7d66b6faf7a05e02038885527d92039b7513defc8a3b522b458965badab0020a4d7566bf7f5a38ed900817b1000e901490b505adf29df0280100019d54d38dfbc5e13b8df4168b1466fb70008e9b4d2dabdfc2ca375bbd5aacdbabaacbbf2cd417facab7602338d9680b4badc8bbbe50440b441910ae98f9be0a620c141667212e9cd3a002100325bbb250508e0205e1db5fbf699470b482436eb8083f835d416d1ec431a1289cd3a002100323324359b75c04179b5d316cf0a43fa1e49e9bf45071c945f3b6df1ac32a2ff84b5439b85cf5a5159ddb485b3d290842467b30e38a8bc66daa25969480292734f04ad1501901940c90dfc3d416a5f2b6db1ac3a24dc2475350bad1501909521495dcd426b45006456486aaf66010e92a98fb64030ea2009010238486e018340c76eb742977b01080190d5408901727411c041b2f5d01604461d20c7fb21b86a45f20b16043a878bc03da84d2db4c58091074908940d10b807019095608a017206057050bb3a680b01a31c166ccca9fd420581cee3285fc13190af9f640090c940d1cecf4f3600c8884503201e801810a2e501f7a03ef3ac5d680c39503097044020823020981782834004705cdfbb9585e8203a68800008448085c0c34120022c0484160b22c042e03bcdc19fdb71038810c87b640000000049454e44ae426082680063036f726401011e6170706c69636174696f6e2f6a736f6e3b636861727365743d7574662d38004d5e017b2270223a22766f7264222c2276223a312c227479223a22696e7363222c22636f6c223a2262383533613639326462393765393436363865303137323138346466393431326161306136336331616334626138656531333634646138663834366637306232222c22696964223a2252756e65746172647373222c227075626c223a2231455337623370636a527a4667796969714c7278484b546e43686535364c4a485937222c226e6f6e6365223a323036392c226d696e746572223a2262633170637961716c65356e6876357476636873617239736e7766736d7a7570716b75766134337074337a767639383766616b6135673273736438763030222c22736967223a2247306545527a44306e69434761415177534d6f532f39524f6d33425a4e497478415654754b5050336d314c61493876696e7834496e7038346e525364415838643655644a724437535255637566377474532f74787a69453d227d68",
        "c1f2d00e1cce0b839d2e197679cac7a15152ec244338032c7767f72c1332d49a65675a92934efa5e4869b2432a3e00abfc6819367af43949c2edc693b32d23ac05"
      ],
      "is_coinbase": false,
      "sequence": 4294967293
    }
  ],
  "vout": [
    {
      "scriptpubkey": "5120c13a0fe693bb28b662f0e8cb09b930d8b8105b8ced6215c44c614fe4f6dda215",
      "scriptpubkey_asm": "OP_PUSHNUM_1 OP_PUSHBYTES_32 c13a0fe693bb28b662f0e8cb09b930d8b8105b8ced6215c44c614fe4f6dda215",
      "scriptpubkey_type": "v1_p2tr",
      "scriptpubkey_address": "bc1pcyaqle5nhv5tvchsar9snwfsmzupqkuva43pt3zvv987faka5g2ssd8v00",
      "value": 1000
    },
    {
      "scriptpubkey": "a914d88afa5bba84515ecba75b9367582017e50045ea87",
      "scriptpubkey_asm": "OP_HASH160 OP_PUSHBYTES_20 d88afa5bba84515ecba75b9367582017e50045ea OP_EQUAL",
      "scriptpubkey_type": "p2sh",
      "scriptpubkey_address": "3MRzNLWfwW82tYdyTRBeu7xzBNSV8cZ6Lb",
      "value": 15723
    },
    {
      "scriptpubkey": "51200705a5767db892e98125775049b1a13dd9ecdc8aea0df413cabbee683e871012",
      "scriptpubkey_asm": "OP_PUSHNUM_1 OP_PUSHBYTES_32 0705a5767db892e98125775049b1a13dd9ecdc8aea0df413cabbee683e871012",
      "scriptpubkey_type": "v1_p2tr",
      "scriptpubkey_address": "bc1pquz62anahzfwnqf9wagynvdp8hv7ehy2agxlgy72h0hxs058zqfqk8ksyq",
      "value": 2892
    }
  ],
  "size": 4402,
  "weight": 4909,
  "fee": 13508,
  "status": {
    "confirmed": true,
    "block_height": 834464,
    "block_hash": "0000000000000000000177a0869a911a2b65c9bdcd5a8bcb02b68f305bee848e",
    "block_time": 1710308296
  },
  "hex": "02000000000101eb323e9ae2a006f925aa9ef685ef1d99a302e898defa35a37eca641a72f1e4a70000000000fdffffff03e803000000000000225120c13a0fe693bb28b662f0e8cb09b930d8b8105b8ced6215c44c614fe4f6dda2156b3d00000000000017a914d88afa5bba84515ecba75b9367582017e50045ea874c0b0000000000002251200705a5767db892e98125775049b1a13dd9ecdc8aea0df413cabbee683e8710120340ca5955ab6cfa96885d871e769ff1d3b6d37d1cbbee6e9220d4b6b6c17f6919952a6d976fd6465c237973c8c62af423095395a6b9aba1e2eeecb9357a32c40fb2fd001020f2d00e1cce0b839d2e197679cac7a15152ec244338032c7767f72c1332d49a65ac0063036f7264010109696d6167652f706e67004d080289504e470d0a1a0a0000000d49484452000000c8000000c80806000000ad58ae9e000000097048597300002e2300002e230178a53f7600000ddd49444154789ced9dd18e1cb71145f9ff7fb09f9277bfe5c9792938409044566c04da5d415ac95acb9168f4442db45a6cb248165945f21640d8bb33d35dc3ba87b7d83d9a75fe8e3c06e6001aa0e01c384c0ce08006e8720e004867409c7345032226953900204681002c6462510020834001672100a2bd5a8c02055a308283680b7e1430b057a1b6f5d516d8a8e33b617aaf0ec7d75c0ccc8f9f6400904a3076388ea10d0840210062c5354291146e46001282838c064769d4bebe141eedb9f3030fb458c270d4b8454b48000a01106de76089541914ed15d90f36e0201de1680d0b202100d275f5c81072d5d526e6f10109c141468023f4fbeaab4d82012721b45823b75668b7681c2d6827607170e09002a3254470120220ade068d1464941910b0feb3c0616266f70c04118ee61018cd47353a0001202202ddda3879ba4ce511300840088141c252d4e8b564a3a0009a1c59204a407183d01012404405ac0313a14b990686f8cbda1814d7a64efd11384def00012022025eec115502920569c05801000a9d99c5b69a54a9c28f47a404268b1a4ae5c591bdcd53f064b0924dec01e407b2cbd07d1167e89eba49e9beb58008400c8cc8048041c84e02023c111127e0944b58038b459ebb658a34d080281912372ce73b9907803b552d5897602abc35113b9c7899d3b99e79d7edd004807204601440a24eef9b3f3be5b64319dfe0d1a8040c36d6a810428341e20b92b9ab6a07b83d20228c7c9c780369a694e3d0149e14c00476e481c03a0902c2016c4d2021031a1341470ab638bd4eb4e7fc537e1201a2be555318f3f4b025223a496d1ea9c80836c015253e4d40ad62b97deefaf359455f375a7bfda4fe5204d004be4d75a7cdddfaf7000105a1b905a504a44690d8216393a38080f102b452a119f6501b708c939f2065a21f32d9674e1728ac80124259052018d028cc47b7100441f90bd1025c56d915f29289ad0b4c8d52d08874907d98b51526c4e9e35394bc0d27ba472af7dbfde808897022454586ec1b8b9ce0c4b2cdf16efcd1b10f172805c15f5eabc9c6249888c93bb05185ae4ee2fe6515bc04b011202e2aa80c7c7738aa525c09268056ee8775c77708bb988082092823817f5aa98c7e797146a24506a83fd3e4b17c73b7d212f01c8b9a0b19f43852fc97f465872de0f00a131010915fbf8b32420a33a4b4daea5903838882e2057ee116bb72401918445628e8a9ca0e2f8450be41d4d3bcc39c8151cbd01c93db7e69098f39cb9740bb988294062ee91144961fea5ef716420b8efc503107b809c8b962a622e209cd795bebf5180c8c9ddc341ec02922ae0f1f75280d408f4df3ffef7f6dfb7afdefbfb176f6fc32a1057c181c4554d08023af8125fdad0c3f24704e4f9fdc7af3f6fffbf83b28d0d9cdee11edd6d847e7ff99a04000e80e80372feff1e80d4ace8f72fdef81ffff2cfffbb4640944757e9094b28972b68be3e0e17f1661de40c8736209cd89ce2a71f5edec611902b116ecf3f03d30a9a182070111ab3c50a16ba312035add526ee5ffffee8fff1d75fbf115f4c80c738b762a1716cddb2e6ed94476e7eeec24d5669b3860084b5b15502e428e294f8b8c0e48013739d502ee71c39a038eec50503825e0210ee1e441b904d589b48b9c2cb71951278386e71956749bbe51680c414205c182c00b28b6a5fc1b92b756efb95357f87639f81e1c072795c0740d4012981420b9098d07201910285739e548e57ed9a03203a8070c52ed9fb4a03926aa7b8a3364a5abcf373aff6380e80f4034462f53f1fc72220a1e7e5bc366b4e99e071400eed715c0620b3ed43baec41a426d20220392e70f5786b408ebf0b3d9793e337cf716ddadde9ff3e4872a5159e3c4b80c444187b4d48943590c420ac79fd37cf7100441c9016ab8a3620351becd0ca1d3a666ec4daa99cbca24ee80048956043a26d61b79a8048083957989c63b6d8e8071f736b4222d262f59aa0de80ece37625475088bb1839c2d4004402126f40dc66016996ac12209c0f20b614a605405ca4d60024536c2302128544588839c2e4be0e80906d07690dc7152035395b042477e3dff252f131e0203582ed00c77e4d0802be73b124a106207280b849f621d50ed235d90500297d9da683f889f7216ea864010800b9032000a470e58783101cc4428b25d966d51e572227cefb7368b1f45ba8515a2ce91b86521f35697d0c97d867ccb80fc11e8401484844d2f71d241da0e6b500840048ae835c09494bd452c7ca7d3f0e0ea26f69165bac98a02444d9db8d4adf870320fa108c0a488d285b0072b9d98ee4b07f434bf43c8ebf07d1d68b88e6b4131809905cb1a79e27b9d9cf3d67088e1240dce4900c07486d012400a911624b384a73db0280100091044402921ec13df7fe250dc9e3393888ba537085abe92029016a0151131c40b6408b6518885a48a4010905b75d9911103fd93ec4dc1e240a42a450b9c7cf397789d0008803203d01e1ac68b9c7af811380383888b67be40417128eeb0010de5c3bb45876e128dd938c0048ee1eaca61d3ce75d929fe7d4b3f3622ba64bed0482c215108f26203502b7364201408c02922aa41620da22062034b78394acd4a1e7e7ae6c00a4cc455ce63ca7e6dbf2181610ce4a3e0a2031e8cfc74f3d57221f0940fc24fb1000620090fdf81cc1a7e09006241400644007e15a7a0b07917691d8f14be7420a8e2d00c84080440b3c18203187c89d1f8b80b801dbac615b2c56813b02c2cee9caed98c7969c9f1238b6c8113d00e90c4956913b03c2c9f3ea31ee3173cead79a3d00390762e7255dc90d04205bb2a5e09449262ab05844d08021b0084e474a9d55695421213440a126d405239cf088857f82b00a29ad44e2025cc58a1735b2d4b8084dec7a8803881cfbf591da6008941523b72201919901e393b463b1b9a4f6d6d4d01482d24b1225e1d5f1390fdd852ed56cdeb6b01710947d6d6d534809440c22964cdb95b89ed98eb39e7dcd7d7022601889b0c12b3809480c2128e514038c2ab9907e99cdde97c2950008801507244d71a925a4062b94b835192b32b6c6bb517dc6cdd6927200d4aaa985c602400d9be6b4a325ac22101c81e3148b4f5b33c20359048aed0237eb389142035ce6d6d4ce720292103903e806c01400c0012fa7d4ec041da013283930ceb20fbe447e1a988da63adde629d0380180044121200c29f9fe23935b0e02ee52000a42e8a3fac9811a3b55bd3011282a4c449e02005429f10926500e15cf192bac4bbda1ec40981a2adad6500c985241724aed85601c437f8b73cda3a1b1e90d4446a03f2f6d5fba500f1425f3e6e0d9269019106a7246605c4456a20d972590065384034200420df464ac0d27b134d50000813949258d141fc6490001000d204102fe0c6d1961780d86bb572636507f1427309400c800040da03e21b7ca0142d1600310788ab106acd7e0e8018708c545b905bdc195b2c0740f485696d94420240a8d841cef30d0731000200b1e3202eb028610f62000638880d40b608b93636e9068058b1c5e27c76cc555e4dba123bf77cdfbdae4d080247edb5c53733209be84609cea78f5d234072208183180002807c1fcfef3f8a0172b9a768006575edb5c537c258c541aef27d7effd1fff2d3c3edf15ab126af4c9d028018000080f8241ccf5fbe25520a90d48841d2b5f6dae21b61ace020e75c3720eebfec4b8e5fa1da0a102e3cdd6baf2dbe51c64a80ecae717ff1771625447b750c4b70001000f2dd15ac906b1cc38a70018881c959c5413618de7cb90f52f2792c6fa03e7010ed899a18902dcfe3463c150e80e8936b6dcc08c87ef73c374f0740f405696dcc04c8f10a55493800a22fc8192ef55a0424b509e7840320fa82b4364607646fa7243e40e90088be20ad8d510139ded390f89b890e9779f5c568719c85c1119c2620c77d86641e0e80e88bd1e2380be3eaa31867816a5eb69506d419bac3ddadeeda098cde626d203cfcfce41f5e3ef9a787df54bfddfdb8cf90fe13d45b00100342b43a529f38fddf1f9ffcc70f7fdc84f9eef1837ff5af37fee1e73e80ec6e9573b32f37dc82ee71abbb7602b300728e4f9f3efba7fbdffcbbd71f7ccb68b1cf388733f601c2ae75d74e6056408ef1e1e977fffa9777a22296bc6c1b0b67ece3e7ddebae9dc00a806cf1f9b3f7ef5e3ffbc7ff3cdd9c25278e6d53eae2404f301c00d117a6a5712996cc787cf9c46e8db6c7f7d1038c2d56770d7facb976022b0292f399a8177f7b751b3dc0d8637528fcb1e6da09ac0cc81ebb3bec001cc1d94dfb01e0e87dc311701000910645f22321c7d66b6faf7a05e02038885527d92039b7513defc8a3b522b458965badab0020a4d7566bf7f5a38ed900817b1000e901490b505adf29df0280100019d54d38dfbc5e13b8df4168b1466fb70008e9b4d2dabdfc2ca375bbd5aacdbabaacbbf2cd417facab7602338d9680b4badc8bbbe50440b441910ae98f9be0a620c141667212e9cd3a002100325bbb250508e0205e1db5fbf699470b482436eb8083f835d416d1ec431a1289cd3a002100323324359b75c04179b5d316cf0a43fa1e49e9bf45071c945f3b6df1ac32a2ff84b5439b85cf5a5159ddb485b3d290842467b30e38a8bc66daa25969480292734f04ad1501901940c90dfc3d416a5f2b6db1ac3a24dc2475350bad1501909521495dcd426b45006456486aaf66010e92a98fb64030ea2009010238486e018340c76eb742977b01080190d5408901727411c041b2f5d01604461d20c7fb21b86a45f20b16043a878bc03da84d2db4c58091074908940d10b807019095608a017206057050bb3a680b01a31c166ccca9fd420581cee3285fc13190af9f640090c940d1cecf4f3600c8884503201e801810a2e501f7a03ef3ac5d680c39503097044020823020981782834004705cdfbb9585e8203a68800008448085c0c34120022c0484160b22c042e03bcdc19fdb71038810c87b640000000049454e44ae426082680063036f726401011e6170706c69636174696f6e2f6a736f6e3b636861727365743d7574662d38004d5e017b2270223a22766f7264222c2276223a312c227479223a22696e7363222c22636f6c223a2262383533613639326462393765393436363865303137323138346466393431326161306136336331616334626138656531333634646138663834366637306232222c22696964223a2252756e65746172647373222c227075626c223a2231455337623370636a527a4667796969714c7278484b546e43686535364c4a485937222c226e6f6e6365223a323036392c226d696e746572223a2262633170637961716c65356e6876357476636873617239736e7766736d7a7570716b75766134337074337a767639383766616b6135673273736438763030222c22736967223a2247306545527a44306e69434761415177534d6f532f39524f6d33425a4e497478415654754b5050336d314c61493876696e7834496e7038346e525364415838643655644a724437535255637566377474532f74787a69453d227d6841c1f2d00e1cce0b839d2e197679cac7a15152ec244338032c7767f72c1332d49a65675a92934efa5e4869b2432a3e00abfc6819367af43949c2edc693b32d23ac0500000000"
}