{
  "txid": "e295121aa3a1f036c197a456a8de1aa3581aa1dd3521ed03c0d0b10e4d19a30c",
  "version": 2,
  "locktime": 0,
  "vin": [
    {
      "txid": "9596b4bf5a36dd2b4d2728c580d61b36a2d7c3dfce14f825860c8c3b85753eeb",
      "vout": 2,
      "prevout": {
        "scriptpubkey": "512076222131fba1be23eafa676e3fcbc9aefa4c0765d5b8b26b8388156ab7d8fe8f",
        "scriptpubkey_asm": "OP_PUSHNUM_1 OP_PUSHBYTES_32 76222131fba1be23eafa676e3fcbc9aefa4c0765d5b8b26b8388156ab7d8fe8f",
        "scriptpubkey_type": "v1_p2tr",
        "scriptpubkey_address": "bc1pwc3zzv0m5xlz86h6vahrlj7f4maycpm96kuty6ur3q2k4d7cl68swxs8x2",
        "value": 2782
      },
      "scriptsig": "",
      "scriptsig_asm": "",
      "witness": [
        "a80c80846f2a5103b746540e0b7a2d52fd1192cfdece379e5c59d52d7e15be6b07c9502fb5eefe1c85d505cf1d27b21d950dcb189eed37898df1e5fef50e7997",
        "200e219d99985877b6aaf3762f8b75f5e9775588303d25ebab0e92c57d0e3ada7eac0063036f7264010118746578742f706c61696e3b636861727365743d7574662d38004c827b2270223a22746170222c226f70223a22646d742d6d696e74222c22646570223a22393432343830326533386663383839393639343137636439306466346334313437323039643261383365643833373938633063346161343339316164333665356930222c227469636b223a22626974222c22626c6b223a22313532323531227d68",
        "c10e219d99985877b6aaf3762f8b75f5e9775588303d25ebab0e92c57d0e3ada7e905cf7235259c0a06a834d89580f25d6b12859409a03216e5845b89933f51aa6"
      ],
      "is_coinbase": false,
      "sequence": 4294967293
    }
  ],
  "vout": [
    {
      "scriptpubkey": "51209e8495464291b165b691de72df24128f0b71ef8272f8e759edd9215859956d85",
      "scriptpubkey_asm": "OP_PUSHNUM_1 OP_PUSHBYTES_32 9e8495464291b165b691de72df24128f0b71ef8272f8e759edd9215859956d85",
      "scriptpubkey_type": "v1_p2tr",
      "scriptpubkey_address": "bc1pn6zf23jzjxcktd53meed7fqj3u9hrmuzwtuwwk0dmys4skv4dkzsf4ex2c",
      "value": 546
    }
  ],
  "size": 430,
  "weight": 712,
  "fee": 2236,
  "status": {
    "confirmed": true,
    "block_height": 834460,
    "block_hash": "00000000000000000000484a79b643b2524bbce82e5d8a442013fa5b8905ed98",
    "block_time": 1710307468
  },
  "hex": "02000000000101eb3e75853b8c0c8625f814cedfc3d7a2361bd680c528274d2bdd365abfb496950200000000fdffffff0122020000000000002251209e8495464291b165b691de72df24128f0b71ef8272f8e759edd9215859956d850340a80c80846f2a5103b746540e0b7a2d52fd1192cfdece379e5c59d52d7e15be6b07c9502fb5eefe1c85d505cf1d27b21d950dcb189eed37898df1e5fef50e7997c9200e219d99985877b6aaf3762f8b75f5e9775588303d25ebab0e92c57d0e3ada7eac0063036f7264010118746578742f706c61696e3b636861727365743d7574662d38004c827b2270223a22746170222c226f70223a22646d742d6d696e74222c22646570223a22393432343830326533386663383839393639343137636439306466346334313437323039643261383365643833373938633063346161343339316164333665356930222c227469636b223a22626974222c22626c6b223a22313532323531227d6841c10e219d99985877b6aaf3762f8b75f5e9775588303d25ebab0e92c57d0e3ada7e905cf7235259c0a06a834d89580f25d6b12859409a03216e5845b89933f51aa600000000"
}