{
  "txid": "e2c3381e65d51a2bf34738abdab15a8e9dc774123b2c5c3730775c6df6abb8fd",
  "version": 2,
  "locktime": 0,
  "vin": [
    {
      "txid": "ff5e0b9d91d323cd52385e821996268bbb03f0f2c58b7cfa689c63982d50c603",
      "vout": 3,
      "prevout": {
        "scriptpubkey": "0014e27725ff317aa4f2011157028b93d04ae48fe2fe",
        "scriptpubkey_asm": "OP_0 OP_PUSHBYTES_20 e27725ff317aa4f2011157028b93d04ae48fe2fe",
        "scriptpubkey_type": "v0_p2wpkh",
        "scriptpubkey_address": "bc1qufmjtle302j0yqg32upghy7sftjglch7umur40",
        "value": 127184
      },
      "scriptsig": "",
      "scriptsig_asm": "",
      "witness": [
        "304402205317abb4cc0db744f50037702c21538cf2d299f9cb1522910e002123bee9cf13022030e0e0681160470043d742f612134aa20560fe5dc1df63e06cd2b5bbc471e99f01",
        "02fb4fee8b08d2fb0fdc68e7452dbf082aa64adb92275eb73782bfdbec4f128d68"
      ],
      "is_coinbase": false,
      "sequence": 4294967295
    }
  ],
  "vout": [
    {
      "scriptpubkey": "00145efd30dc1221e98c5d1d30aa74f88debb6a82e8e",
      "scriptpubkey_asm": "OP_0 OP_PUSHBYTES_20 5efd30dc1221e98c5d1d30aa74f88debb6a82e8e",
      "scriptpubkey_type": "v0_p2wpkh",
      "scriptpubkey_address": "bc1qtm7nphqjy85cchgaxz48f7ydawm2st5wzd95ec",
      "value": 333
    },
    {
      "scriptpubkey": "512103086897836e70f485f4d44f20876930e371bf29a5e0611a6175eec29c4d999db121028b8cb2af99b9811071eb988bda128de70a1542c3717a796dc9bd51b10a614d932102020202020202020202020202020202020202020202020202020202020202020253ae",
      "scriptpubkey_asm": "OP_PUSHNUM_1 OP_PUSHBYTES_33 03086897836e70f485f4d44f20876930e371bf29a5e0611a6175eec29c4d999db1 OP_PUSHBYTES_33 028b8cb2af99b9811071eb988bda128de70a1542c3717a796dc9bd51b10a614d93 OP_PUSHBYTES_33 020202020202020202020202020202020202020202020202020202020202020202 OP_PUSHNUM_3 OP_CHECKMULTISIG",
      "scriptpubkey_type": "unknown",
      "value": 801
    },
    {
      "scriptpubkey": "5121020f09fc0ab9dabe815404b2e5288ac9dfb5b33dd3c43370c62bafb149ee5fca70210310d6698dd5dc1cae30d4c6266d417dec7aa210ced49be70b5aaf42733ddbde332102020202020202020202020202020202020202020202020202020202020202020253ae",
      "scriptpubkey_asm": "OP_PUSHNUM_1 OP_PUSHBYTES_33 020f09fc0ab9dabe815404b2e5288ac9dfb5b33dd3c43370c62bafb149ee5fca70 OP_PUSHBYTES_33 0310d6698dd5dc1cae30d4c6266d417dec7aa210ced49be70b5aaf42733ddbde33 OP_PUSHBYTES_33 020202020202020202020202020202020202020202020202020202020202020202 OP_PUSHNUM_3 OP_CHECKMULTISIG",
      "scriptpubkey_type": "unknown",
      "value": 801
    },
    {
      "scriptpubkey": "0014e27725ff317aa4f2011157028b93d04ae48fe2fe",
      "scriptpubkey_asm": "OP_0 OP_PUSHBYTES_20 e27725ff317aa4f2011157028b93d04ae48fe2fe",
      "scriptpubkey_type": "v0_p2wpkh",
      "scriptpubkey_address": "bc1qufmjtle302j0yqg32upghy7sftjglch7umur40",
      "value": 109035
    }
  ],
  "size": 450,
  "weight": 1473,
  "fee": 16214,
  "status": {
    "confirmed": true,
    "block_height": 834638,
    "block_hash": "000000000000000000025f742c626208ac87e0b7d15054abb4a19ca2d735a54e",
    "block_time": 1710405325
  },
  "hex": "0200000000010103c6502d98639c68fa7c8bc5f2f003bb8b269619825e3852cd23d3919d0b5eff0300000000ffffffff044d010000000000001600145efd30dc1221e98c5d1d30aa74f88debb6a82e8e210300000000000069512103086897836e70f485f4d44f20876930e371bf29a5e0611a6175eec29c4d999db121028b8cb2af99b9811071eb988bda128de70a1542c3717a796dc9bd51b10a614d932102020202020202020202020202020202020202020202020202020202020202020253ae2103000000000000695121020f09fc0ab9dabe815404b2e5288ac9dfb5b33dd3c43370c62bafb149ee5fca70210310d6698dd5dc1cae30d4c6266d417dec7aa210ced49be70b5aaf42733ddbde332102020202020202020202020202020202020202020202020202020202020202020253aeeba9010000000000160014e27725ff317aa4f2011157028b93d04ae48fe2fe0247304402205317abb4cc0db744f50037702c21538cf2d299f9cb1522910e002123bee9cf13022030e0e0681160470043d742f612134aa20560fe5dc1df63e06cd2b5bbc471e99f012102fb4fee8b08d2fb0fdc68e7452dbf082aa64adb92275eb73782bfdbec4f128d6800000000"
}