{
  "txid": "e2ca6f1b2cb0217a97918cadc778464843df5bc64ce53d5c316b51a88caba2ec",
  "version": 2,
  "locktime": 0,
  "vin": [
    {
      "txid": "ce42b61dfe905076252c638a782be5a1860974df88fe7383398e4dc44ebc2de5",
      "vout": 1,
      "prevout": {
        "scriptpubkey": "0014102c2ca0d689d3ebc62849da6108466236df0db3",
        "scriptpubkey_asm": "OP_0 OP_PUSHBYTES_20 102c2ca0d689d3ebc62849da6108466236df0db3",
        "scriptpubkey_type": "v0_p2wpkh",
        "scriptpubkey_address": "bc1qzqkzegxk38f7h33gf8dxzzzxvgmd7rdneavrl0",
        "value": 199858529
      },
      "scriptsig": "",
      "scriptsig_asm": "",
      "witness": [
        "304402206b6c59c2061af693f816dce1b442972757541cf6ae6b39318d2e8b30c53499fd022001383821502cbb8aebcae9cf7e9e9bd5dd3031804c6088b539180b0d029c313401",
        "02ec711616e868fb6c7610568c146fd7e4f2692bc0ed0800ab4c4eadf9bd234b3c"
      ],
      "is_coinbase": false,
      "sequence": 4294967293
    }
  ],
  "vout": [
    {
      "scriptpubkey": "a9142d4988e7c4286b481456dcce590c3cf8f27ca1b687",
      "scriptpubkey_asm": "OP_HASH160 OP_PUSHBYTES_20 2d4988e7c4286b481456dcce590c3cf8f27ca1b6 OP_EQUAL",
      "scriptpubkey_type": "p2sh",
      "scriptpubkey_address": "35pURTnduBqGy1SfF6uQJFrPSXR1KHJCN2",
      "value": 100000000
    },
    {
      "scriptpubkey": "0014512c4a3d740987c5f3255d76e7f38c8d3c6a2f1b",
      "scriptpubkey_asm": "OP_0 OP_PUSHBYTES_20 512c4a3d740987c5f3255d76e7f38c8d3c6a2f1b",
      "scriptpubkey_type": "v0_p2wpkh",
      "scriptpubkey_address": "bc1q2yky50t5pxrutue9t4mw0uuv357x5tcmv0cnm0",
      "value": 99854034
    }
  ],
  "size": 223,
  "weight": 565,
  "fee": 4495,
  "status": {
    "confirmed": true,
    "block_height": 834638,
    "block_hash": "000000000000000000025f742c626208ac87e0b7d15054abb4a19ca2d735a54e",
    "block_time": 1710405325
  },
  "hex": "02000000000101e52dbc4ec44d8e398373fe88df740986a1e52b788a632c25765090fe1db642ce0100000000fdffffff0200e1f5050000000017a9142d4988e7c4286b481456dcce590c3cf8f27ca1b687d2a6f30500000000160014512c4a3d740987c5f3255d76e7f38c8d3c6a2f1b0247304402206b6c59c2061af693f816dce1b442972757541cf6ae6b39318d2e8b30c53499fd022001383821502cbb8aebcae9cf7e9e9bd5dd3031804c6088b539180b0d029c3134012102ec711616e868fb6c7610568c146fd7e4f2692bc0ed0800ab4c4eadf9bd234b3c00000000"
}