{
  "txid": "e2cd5463424e7c2ffd6cec1c81621d20bfe1b7741ff1548574ac299b2e65eba1",
  "version": 1,
  "locktime": 834637,
  "vin": [
    {
      "txid": "0409a6537a14fd968194b21c72b07dda1e731dc824fe029d59d8ec9c9f088681",
      "vout": 1,
      "prevout": {
        "scriptpubkey": "76a9149835a7ccc63b94a683e7bc4338690c07731b86f088ac",
        "scriptpubkey_asm": "OP_DUP OP_HASH160 OP_PUSHBYTES_20 9835a7ccc63b94a683e7bc4338690c07731b86f0 OP_EQUALVERIFY OP_CHECKSIG",
        "scriptpubkey_type": "p2pkh",
        "scriptpubkey_address": "1EsozCvNtP9dW2tZfkW5NxWsxHCihxmq3X",
        "value": 39999804674
      },
      "scriptsig": "473044022073778caf6b69789ec32e47952dd5999ec9fa40e466c9e561f1aae1bdd3c1904102203f9093eb619dc7d0e46d2f1a33299a12eb5d617c9613971c48e5cb031671a08a01210341f8fed7fc06533e3df45bd3e6ff7f6f6872d5b6df828b5c29ac7b286345f085",
      "scriptsig_asm": "OP_PUSHBYTES_71 3044022073778caf6b69789ec32e47952dd5999ec9fa40e466c9e561f1aae1bdd3c1904102203f9093eb619dc7d0e46d2f1a33299a12eb5d617c9613971c48e5cb031671a08a01 OP_PUSHBYTES_33 0341f8fed7fc06533e3df45bd3e6ff7f6f6872d5b6df828b5c29ac7b286345f085",
      "is_coinbase": false,
      "sequence": 4294967295
    }
  ],
  "vout": [
    {
      "scriptpubkey": "76a914a58dba9e15cac7972c27900a37f1181ba86715b188ac",
      "scriptpubkey_asm": "OP_DUP OP_HASH160 OP_PUSHBYTES_20 a58dba9e15cac7972c27900a37f1181ba86715b1 OP_EQUALVERIFY OP_CHECKSIG",
      "scriptpubkey_type": "p2pkh",
      "scriptpubkey_address": "1G6NH9vSuFMxyc9gLHVtB6Shn9iemveMDH",
      "value": 30000000000
    },
    {
      "scriptpubkey": "76a9144af0d796fe39e820b33721ceb1e4165fa75fb9ee88ac",
      "scriptpubkey_asm": "OP_DUP OP_HASH160 OP_PUSHBYTES_20 4af0d796fe39e820b33721ceb1e4165fa75fb9ee OP_EQUALVERIFY OP_CHECKSIG",
      "scriptpubkey_type": "p2pkh",
      "scriptpubkey_address": "17qFXCfyeNXCN3sMEFzp4NqRAJzWrMqPCM",
      "value": 9999798798
    }
  ],
  "size": 225,
  "weight": 900,
  "fee": 5876,
  "status": {
    "confirmed": true,
    "block_height": 834638,
    "block_hash": "000000000000000000025f742c626208ac87e0b7d15054abb4a19ca2d735a54e",
    "block_time": 1710405325
  },
  "hex": "01000000018186089f9cecd8599d02fe24c81d731eda7db0721cb2948196fd147a53a60904010000006a473044022073778caf6b69789ec32e47952dd5999ec9fa40e466c9e561f1aae1bdd3c1904102203f9093eb619dc7d0e46d2f1a33299a12eb5d617c9613971c48e5cb031671a08a01210341f8fed7fc06533e3df45bd3e6ff7f6f6872d5b6df828b5c29ac7b286345f085ffffffff0200ac23fc060000001976a914a58dba9e15cac7972c27900a37f1181ba86715b188ac0ed20854020000001976a9144af0d796fe39e820b33721ceb1e4165fa75fb9ee88ac4dbc0c00"
}