{
  "txid": "e2d41b1417544f35d823bdaceac0674dae5111d9fc45f13cf495cbdd2e8c0d13",
  "version": 2,
  "locktime": 0,
  "vin": [
    {
      "txid": "945ba8d4ae757dce36cd5e5b9cb282a5396c6e6972016ea5d78f63b2e8fe9e52",
      "vout": 5,
      "prevout": {
        "scriptpubkey": "512050603e67246b16e7f52425f84c6037a00e0f060a504e6d5433f0e4d5e563a03e",
        "scriptpubkey_asm": "OP_PUSHNUM_1 OP_PUSHBYTES_32 50603e67246b16e7f52425f84c6037a00e0f060a504e6d5433f0e4d5e563a03e",
        "scriptpubkey_type": "v1_p2tr",
        "scriptpubkey_address": "bc1p2psrueeydvtw0afyyhuyccph5q8q7ps22p8x64pn7rjdtetr5qlqwvvjqs",
        "value": 2862
      },
      "scriptsig": "",
      "scriptsig_asm": "",
      "witness": [
        "0666630e50d6a19d90bf9882c774edc7d61ec2c4e73128784ef00e5830669d060ff2a9010715c08ee1f96abc6b6df3d847c4e6805d3843b722a7012c071aabcf",
        "208419bedbaedb5d10ad9c8238a9a8e31896d0a298eb668d64560a35edf234ab11ac0063036f726401011e6170706c69636174696f6e2f6a736f6e3b636861727365743d7574662d38004cd37b2270223a22706f772d3230222c226f70223a226d696e74222c227469636b223a2250455045222c22616d74223a2231303030222c22736f6c7574696f6e223a22504550453a62633170367a67656779647861737432786571616535763930396434396a323636786e707a6178776634386336786b736871703766797a717734733761663a303030303030303030303030303030303030303139393431613561653132383937363539383134343239323533333030353762306461393666336465613163353a3332313638303238383238227d68",
        "c15067337a99a00666fd957e65b5c212a7b30f6b410af3fccba2d4635da920c85e"
      ],
      "is_coinbase": false,
      "sequence": 4294967295
    }
  ],
  "vout": [
    {
      "scriptpubkey": "5120d0919411a6ec16a3641dcd185795b52c95ad1a61174ce4d4f8d1ad0b803e4904",
      "scriptpubkey_asm": "OP_PUSHNUM_1 OP_PUSHBYTES_32 d0919411a6ec16a3641dcd185795b52c95ad1a61174ce4d4f8d1ad0b803e4904",
      "scriptpubkey_type": "v1_p2tr",
      "scriptpubkey_address": "bc1p6zgegydxast2xeqae5v909d49j266xnpzaxwf48c6xkshqp7fyzqw4s7af",
      "value": 546
    }
  ],
  "size": 487,
  "weight": 769,
  "fee": 2316,
  "status": {
    "confirmed": true,
    "block_height": 834460,
    "block_hash": "00000000000000000000484a79b643b2524bbce82e5d8a442013fa5b8905ed98",
    "block_time": 1710307468
  },
  "hex": "02000000000101529efee8b2638fd7a56e0172696e6c39a582b29c5b5ecd36ce7d75aed4a85b940500000000ffffffff012202000000000000225120d0919411a6ec16a3641dcd185795b52c95ad1a61174ce4d4f8d1ad0b803e490403400666630e50d6a19d90bf9882c774edc7d61ec2c4e73128784ef00e5830669d060ff2a9010715c08ee1f96abc6b6df3d847c4e6805d3843b722a7012c071aabcffd2001208419bedbaedb5d10ad9c8238a9a8e31896d0a298eb668d64560a35edf234ab11ac0063036f726401011e6170706c69636174696f6e2f6a736f6e3b636861727365743d7574662d38004cd37b2270223a22706f772d3230222c226f70223a226d696e74222c227469636b223a2250455045222c22616d74223a2231303030222c22736f6c7574696f6e223a22504550453a62633170367a67656779647861737432786571616535763930396434396a323636786e707a6178776634386336786b736871703766797a717734733761663a303030303030303030303030303030303030303139393431613561653132383937363539383134343239323533333030353762306461393666336465613163353a3332313638303238383238227d6821c15067337a99a00666fd957e65b5c212a7b30f6b410af3fccba2d4635da920c85e00000000"
}