{
  "txid": "e2d646315b23795671ba4d8fe5e11ba2d87403907390adcd73a5a95992fc36ef",
  "version": 2,
  "locktime": 0,
  "vin": [
    {
      "txid": "5acdb5e8beb183d53d3722b60b4f732c7f3fe427e58225bdc881c46e523f704d",
      "vout": 1,
      "prevout": {
        "scriptpubkey": "76a914f9736ab3fdf927c2b6ea989217e0fec20f79196388ac",
        "scriptpubkey_asm": "OP_DUP OP_HASH160 OP_PUSHBYTES_20 f9736ab3fdf927c2b6ea989217e0fec20f791963 OP_EQUALVERIFY OP_CHECKSIG",
        "scriptpubkey_type": "p2pkh",
        "scriptpubkey_address": "1PjyX4qrxNe7P4UADdLsJFraythVnR5kSw",
        "value": 9170206
      },
      "scriptsig": "483045022100d2e2b95c4d2080fe88a569a22235f93657991c05359376de891fdd0a5b24540302204e08e67f63f71364805841e5ec5d53af3f9ece81965d923567e80cd37d35a23c01210224685b23c7e9bd6fbe36b8b831c2c3c5c7c1ecc8ace0d788bcd224455b97f373",
      "scriptsig_asm": "OP_PUSHBYTES_72 3045022100d2e2b95c4d2080fe88a569a22235f93657991c05359376de891fdd0a5b24540302204e08e67f63f71364805841e5ec5d53af3f9ece81965d923567e80cd37d35a23c01 OP_PUSHBYTES_33 0224685b23c7e9bd6fbe36b8b831c2c3c5c7c1ecc8ace0d788bcd224455b97f373",
      "is_coinbase": false,
      "sequence": 4294967295
    },
    {
      "txid": "955a85b6fbbc773ba7f4d1d0591037d40a5c2a0f851a47ea6037c067e64b04e7",
      "vout": 1,
      "prevout": {
        "scriptpubkey": "76a914b43f8f74378da227840508d20ff7b2ea648a9d4e88ac",
        "scriptpubkey_asm": "OP_DUP OP_HASH160 OP_PUSHBYTES_20 b43f8f74378da227840508d20ff7b2ea648a9d4e OP_EQUALVERIFY OP_CHECKSIG",
        "scriptpubkey_type": "p2pkh",
        "scriptpubkey_address": "1HS4mnJxxq1VQwNQqnT6cL5P4e52RyxpCr",
        "value": 5316341
      },
      "scriptsig": "483045022100f65bd6c00e21d236434bbb8e684bcd585dbb118b8baedb35e8f2840f69bbbef7022021f1dc3916d96faa0e42cbadc6de8af53a65fbafa9403b64241222aea0ce3fcb01210237e0c5608d2dc4e9f40c1d5986d32b20dc6c5c57808d147f56bb057fa9668d95",
      "scriptsig_asm": "OP_PUSHBYTES_72 3045022100f65bd6c00e21d236434bbb8e684bcd585dbb118b8baedb35e8f2840f69bbbef7022021f1dc3916d96faa0e42cbadc6de8af53a65fbafa9403b64241222aea0ce3fcb01 OP_PUSHBYTES_33 0237e0c5608d2dc4e9f40c1d5986d32b20dc6c5c57808d147f56bb057fa9668d95",
      "is_coinbase": false,
      "sequence": 4294967295
    }
  ],
  "vout": [
    {
      "scriptpubkey": "76a9149aad5885af8b80ec37858b6f0ff7b38085ec145d88ac",
      "scriptpubkey_asm": "OP_DUP OP_HASH160 OP_PUSHBYTES_20 9aad5885af8b80ec37858b6f0ff7b38085ec145d OP_EQUALVERIFY OP_CHECKSIG",
      "scriptpubkey_type": "p2pkh",
      "scriptpubkey_address": "1F6ripUVHz2Uecu5SFe8czjmbWJg5T9SHz",
      "value": 14481447
    }
  ],
  "size": 340,
  "weight": 1360,
  "fee": 5100,
  "status": {
    "confirmed": true,
    "block_height": 834638,
    "block_hash": "000000000000000000025f742c626208ac87e0b7d15054abb4a19ca2d735a54e",
    "block_time": 1710405325
  },
  "hex": "02000000024d703f526ec481c8bd2582e527e43f7f2c734f0bb622373dd583b1bee8b5cd5a010000006b483045022100d2e2b95c4d2080fe88a569a22235f93657991c05359376de891fdd0a5b24540302204e08e67f63f71364805841e5ec5d53af3f9ece81965d923567e80cd37d35a23c01210224685b23c7e9bd6fbe36b8b831c2c3c5c7c1ecc8ace0d788bcd224455b97f373ffffffffe7044be667c03760ea471a850f2a5c0ad4371059d0d1f4a73b77bcfbb6855a95010000006b483045022100f65bd6c00e21d236434bbb8e684bcd585dbb118b8baedb35e8f2840f69bbbef7022021f1dc3916d96faa0e42cbadc6de8af53a65fbafa9403b64241222aea0ce3fcb01210237e0c5608d2dc4e9f40c1d5986d32b20dc6c5c57808d147f56bb057fa9668d95ffffffff0127f8dc00000000001976a9149aad5885af8b80ec37858b6f0ff7b38085ec145d88ac00000000"
}