{
  "txid": "e2dbcac985d31594ffa1193638e6fa07c948ba8199158b9bcdc4ea2a39dadc50",
  "version": 1,
  "locktime": 0,
  "vin": [
    {
      "txid": "318d7bbcfd09c92add4605005314bb2441773c4922afdc79534f7c7e12285253",
      "vout": 4,
      "prevout": {
        "scriptpubkey": "76a91466b459948240e96ecb2e5c1a6199266f8cf5302488ac",
        "scriptpubkey_asm": "OP_DUP OP_HASH160 OP_PUSHBYTES_20 66b459948240e96ecb2e5c1a6199266f8cf53024 OP_EQUALVERIFY OP_CHECKSIG",
        "scriptpubkey_type": "p2pkh",
        "scriptpubkey_address": "1AN3yVwbPp5PJQfJaSxLFtX33sPmafyXnh",
        "value": 134653
      },
      "scriptsig": "4830450221008d3dd2439fcc135de6ef1a8a584e0a1cf51b515317fac2327358c94fff8091c902202a271c530882f21d22401548aa432fde7fdc5aec692444a0c00fc14c26e795bf012103ef7df8278adea4927903f2e4f6ae83b9602b7c162b768c52ff1e3165396d70d1",
      "scriptsig_asm": "OP_PUSHBYTES_72 30450221008d3dd2439fcc135de6ef1a8a584e0a1cf51b515317fac2327358c94fff8091c902202a271c530882f21d22401548aa432fde7fdc5aec692444a0c00fc14c26e795bf01 OP_PUSHBYTES_33 03ef7df8278adea4927903f2e4f6ae83b9602b7c162b768c52ff1e3165396d70d1",
      "is_coinbase": false,
      "sequence": 4294967295
    },
    {
      "txid": "dc7734008006d7e7f34e72d6cb78bd2cfb6b33f30677d6941fc6e60703641dd6",
      "vout": 0,
      "prevout": {
        "scriptpubkey": "76a9144eb8b9b279e061c805292d0a9b35531c252fdb8988ac",
        "scriptpubkey_asm": "OP_DUP OP_HASH160 OP_PUSHBYTES_20 4eb8b9b279e061c805292d0a9b35531c252fdb89 OP_EQUALVERIFY OP_CHECKSIG",
        "scriptpubkey_type": "p2pkh",
        "scriptpubkey_address": "18BEzucgKuZ4idRNTBxCKoNHnykoEmexXq",
        "value": 74480
      },
      "scriptsig": "483045022100b237c0b3c34948ee37754d3b227024ea08f388be8055e4a9f62a1f81ada4e14302200a36ec51f0a16fb38c56a0a98e3955eeefe01e3ec51e05cf0aadf02385ef9d0201210292ff929ce7ee80d7971896a5be29f7eb2ae95b9dd74336b17dc656d6c604254d",
      "scriptsig_asm": "OP_PUSHBYTES_72 3045022100b237c0b3c34948ee37754d3b227024ea08f388be8055e4a9f62a1f81ada4e14302200a36ec51f0a16fb38c56a0a98e3955eeefe01e3ec51e05cf0aadf02385ef9d0201 OP_PUSHBYTES_33 0292ff929ce7ee80d7971896a5be29f7eb2ae95b9dd74336b17dc656d6c604254d",
      "is_coinbase": false,
      "sequence": 4294967295
    }
  ],
  "vout": [
    {
      "scriptpubkey": "76a914db9b94a4f6fb876362c9a5ea34b0743baf33940888ac",
      "scriptpubkey_asm": "OP_DUP OP_HASH160 OP_PUSHBYTES_20 db9b94a4f6fb876362c9a5ea34b0743baf339408 OP_EQUALVERIFY OP_CHECKSIG",
      "scriptpubkey_type": "p2pkh",
      "scriptpubkey_address": "1M2BMwiZka6AKZK9QWrFTnKHAXtdKTXwXL",
      "value": 48275
    },
    {
      "scriptpubkey": "76a914d7c27ca3ea6ac1b2c6d0409f9524579c96e46fa288ac",
      "scriptpubkey_asm": "OP_DUP OP_HASH160 OP_PUSHBYTES_20 d7c27ca3ea6ac1b2c6d0409f9524579c96e46fa2 OP_EQUALVERIFY OP_CHECKSIG",
      "scriptpubkey_type": "p2pkh",
      "scriptpubkey_address": "1LfqGRroX5NaXMCHa62VR96HAQtJX9cwF1",
      "value": 155248
    }
  ],
  "size": 374,
  "weight": 1496,
  "fee": 5610,
  "status": {
    "confirmed": true,
    "block_height": 834638,
    "block_hash": "000000000000000000025f742c626208ac87e0b7d15054abb4a19ca2d735a54e",
    "block_time": 1710405325
  },
  "hex": "0100000002535228127e7c4f5379dcaf22493c774124bb1453000546dd2ac909fdbc7b8d31040000006b4830450221008d3dd2439fcc135de6ef1a8a584e0a1cf51b515317fac2327358c94fff8091c902202a271c530882f21d22401548aa432fde7fdc5aec692444a0c00fc14c26e795bf012103ef7df8278adea4927903f2e4f6ae83b9602b7c162b768c52ff1e3165396d70d1ffffffffd61d640307e6c61f94d67706f3336bfb2cbd78cbd6724ef3e7d70680003477dc000000006b483045022100b237c0b3c34948ee37754d3b227024ea08f388be8055e4a9f62a1f81ada4e14302200a36ec51f0a16fb38c56a0a98e3955eeefe01e3ec51e05cf0aadf02385ef9d0201210292ff929ce7ee80d7971896a5be29f7eb2ae95b9dd74336b17dc656d6c604254dffffffff0293bc0000000000001976a914db9b94a4f6fb876362c9a5ea34b0743baf33940888ac705e0200000000001976a914d7c27ca3ea6ac1b2c6d0409f9524579c96e46fa288ac00000000"
}