{
  "txid": "e2fa1b00d2d2b79016bd0c6e0c2c5065c00997fc2ca66367c7d41dee9cbcc6ac",
  "version": 2,
  "locktime": 0,
  "vin": [
    {
      "txid": "4d5234aa89ecdc39cf34e7c4e1795673c1801a8e0d93e8bba1efaabdcc899ff0",
      "vout": 0,
      "prevout": {
        "scriptpubkey": "5120af13485128091348af2a82f7305d30a6825ac171b43c9419a71dcaab666d73a4",
        "scriptpubkey_asm": "OP_PUSHNUM_1 OP_PUSHBYTES_32 af13485128091348af2a82f7305d30a6825ac171b43c9419a71dcaab666d73a4",
        "scriptpubkey_type": "v1_p2tr",
        "scriptpubkey_address": "bc1p4uf5s5fgpyf53te2stmnqhfs56p94st3ks7fgxd8rh92kendwwjq8uj5e9",
        "value": 26788
      },
      "scriptsig": "",
      "scriptsig_asm": "",
      "witness": [
        "afe6cce29985d9dd0e22c990f58f08c7ed13f212321cc121d19866b430ccc1a8656c4f7346abe3382de86654e5365bf81aad9c13b1153b7b38c46a749757d447",
        "20f2d00e1cce0b839d2e197679cac7a15152ec244338032c7767f72c1332d49a65ac0063036f7264010109696d6167652f706e67004dba0189504e470d0a1a0a0000000d494844520000011800000118040300000075a0f4bf00000027504c5445f76900630001ff7b00bb9b609c03031904ffcb4f00efcf943514280000000f2738ed52591a453b7f0b3fde0000014e4944415478daeddcdd0d823014805156600557600556700557600557600557700587326a0221b9909aa2543cdf13e127396f6d6e52aa43415530303030303030303030303030303030303030303005602e8f5e1f079d826060606060b2314fc7edd1f36a24f44330303030306b63121cdf5b0e60606060fe0a93e08081818181f908a69a6b8be500060606e6ff30fdb4cd462230303030bbc55419c1c0c0c0c0c0c0c0c0c0fc2226aa1d3a0fb54175100c0c0c0c4c2ae6b87230303030306f61c639f3755ac25318181818984296832e080606060626bad965148d446060606060b6c234413030303030d1cd2623181818189892305943691818181818181818181818181818981d63a2ea8c606060606052316d46cbacf1701f0c0c0c0c4c02263a133d7b4e1a06060606a624ccf8f2f2261d060606066676b7bdfc87201818181898423011010606060666e80ece94b4f1fb26e9e70000000049454e44ae426082680063036f726401011e6170706c69636174696f6e2f6a736f6e3b636861727365743d7574662d38004d61017b2270223a22766f7264222c2276223a312c227479223a22696e7363222c22636f6c223a2232343930616533353961306139323966616465616339303633646434366361613433653231363339333763363539646262616366333565343431656238643863222c22696964223a224d7574616e7420784d6f6e6b6573222c227075626c223a2231455337623370636a527a4667796969714c7278484b546e43686535364c4a485937222c226e6f6e6365223a3932372c226d696e746572223a2262633170357a7a3768346b306336797066746d73377368386a687561656c6576727a66736c3578657735733073796d67326579686c6a3973657830337636222c22736967223a2247372b737a4149394c4436366e4867386d36724c513858416475734d2b505039413346764a572f37593669315638766233524e714c466442302b76613868434b52715a765058764c7773466e5857474a4872304a562b6b3d227d68",
        "c0f2d00e1cce0b839d2e197679cac7a15152ec244338032c7767f72c1332d49a65675a92934efa5e4869b2432a3e00abfc6819367af43949c2edc693b32d23ac05"
      ],
      "is_coinbase": false,
      "sequence": 4294967293
    }
  ],
  "vout": [
    {
      "scriptpubkey": "5120a085ebd6cfc68814af70f42e795f9dcff2c18930fd0d97520f8136856497fc8b",
      "scriptpubkey_asm": "OP_PUSHNUM_1 OP_PUSHBYTES_32 a085ebd6cfc68814af70f42e795f9dcff2c18930fd0d97520f8136856497fc8b",
      "scriptpubkey_type": "v1_p2tr",
      "scriptpubkey_address": "bc1p5zz7h4k0c6ypftms7sh8jhuaelevrzfsl5xew5s0symg2eyhlj9sex03v6",
      "value": 1000
    },
    {
      "scriptpubkey": "5120f4d3a74cb882d6df5a942aae15d724bad39222e79b62335fa7cdf54bc030f415",
      "scriptpubkey_asm": "OP_PUSHNUM_1 OP_PUSHBYTES_32 f4d3a74cb882d6df5a942aae15d724bad39222e79b62335fa7cdf54bc030f415",
      "scriptpubkey_type": "v1_p2tr",
      "scriptpubkey_address": "bc1p7nf6wn9csttd7k5592hpt4eyhtfeygh8nd3rxha8eh65hsps7s2s00yhus",
      "value": 17712
    },
    {
      "scriptpubkey": "51200705a5767db892e98125775049b1a13dd9ecdc8aea0df413cabbee683e871012",
      "scriptpubkey_asm": "OP_PUSHNUM_1 OP_PUSHBYTES_32 0705a5767db892e98125775049b1a13dd9ecdc8aea0df413cabbee683e871012",
      "scriptpubkey_type": "v1_p2tr",
      "scriptpubkey_address": "bc1pquz62anahzfwnqf9wagynvdp8hv7ehy2agxlgy72h0hxs058zqfqk8ksyq",
      "value": 3247
    }
  ],
  "size": 1213,
  "weight": 1753,
  "fee": 4829,
  "status": {
    "confirmed": true,
    "block_height": 834464,
    "block_hash": "0000000000000000000177a0869a911a2b65c9bdcd5a8bcb02b68f305bee848e",
    "block_time": 1710308296
  },
  "hex": "02000000000101f09f89ccbdaaefa1bbe8930d8e1a80c1735679e1c4e734cf39dcec89aa34524d0000000000fdffffff03e803000000000000225120a085ebd6cfc68814af70f42e795f9dcff2c18930fd0d97520f8136856497fc8b3045000000000000225120f4d3a74cb882d6df5a942aae15d724bad39222e79b62335fa7cdf54bc030f415af0c0000000000002251200705a5767db892e98125775049b1a13dd9ecdc8aea0df413cabbee683e8710120340afe6cce29985d9dd0e22c990f58f08c7ed13f212321cc121d19866b430ccc1a8656c4f7346abe3382de86654e5365bf81aad9c13b1153b7b38c46a749757d447fd800320f2d00e1cce0b839d2e197679cac7a15152ec244338032c7767f72c1332d49a65ac0063036f7264010109696d6167652f706e67004dba0189504e470d0a1a0a0000000d494844520000011800000118040300000075a0f4bf00000027504c5445f76900630001ff7b00bb9b609c03031904ffcb4f00efcf943514280000000f2738ed52591a453b7f0b3fde0000014e4944415478daeddcdd0d823014805156600557600556700557600557600557700587326a0221b9909aa2543cdf13e127396f6d6e52aa43415530303030303030303030303030303030303030303005602e8f5e1f079d826060606060b2314fc7edd1f36a24f44330303030306b63121cdf5b0e60606060fe0a93e08081818181f908a69a6b8be500060606e6ff30fdb4cd462230303030bbc55419c1c0c0c0c0c0c0c0c0c0fc2226aa1d3a0fb54175100c0c0c0c4c2ae6b87230303030306f61c639f3755ac25318181818984296832e080606060626bad965148d446060606060b6c234413030303030d1cd2623181818189892305943691818181818181818181818181818981d63a2ea8c606060606052316d46cbacf1701f0c0c0c0c4c02263a133d7b4e1a06060606a624ccf8f2f2261d060606066676b7bdfc87201818181898423011010606060666e80ece94b4f1fb26e9e70000000049454e44ae426082680063036f726401011e6170706c69636174696f6e2f6a736f6e3b636861727365743d7574662d38004d61017b2270223a22766f7264222c2276223a312c227479223a22696e7363222c22636f6c223a2232343930616533353961306139323966616465616339303633646434366361613433653231363339333763363539646262616366333565343431656238643863222c22696964223a224d7574616e7420784d6f6e6b6573222c227075626c223a2231455337623370636a527a4667796969714c7278484b546e43686535364c4a485937222c226e6f6e6365223a3932372c226d696e746572223a2262633170357a7a3768346b306336797066746d73377368386a687561656c6576727a66736c3578657735733073796d67326579686c6a3973657830337636222c22736967223a2247372b737a4149394c4436366e4867386d36724c513858416475734d2b505039413346764a572f37593669315638766233524e714c466442302b76613868434b52715a765058764c7773466e5857474a4872304a562b6b3d227d6841c0f2d00e1cce0b839d2e197679cac7a15152ec244338032c7767f72c1332d49a65675a92934efa5e4869b2432a3e00abfc6819367af43949c2edc693b32d23ac0500000000"
}