{
  "txid": "e321fdebd3bdaf82765582fc1e37f150d86a01c9c2b54ef4dd82975a528b5761",
  "version": 2,
  "locktime": 0,
  "vin": [
    {
      "txid": "6367b1c718a780a3d786b9b63f0244bc3c2d519b42dab7c31b1b138c9146d668",
      "vout": 15,
      "prevout": {
        "scriptpubkey": "51201cab32588760bb98be7c6c23d20047032b8baa3e74e36fcd291f78db9813d53d",
        "scriptpubkey_asm": "OP_PUSHNUM_1 OP_PUSHBYTES_32 1cab32588760bb98be7c6c23d20047032b8baa3e74e36fcd291f78db9813d53d",
        "scriptpubkey_type": "v1_p2tr",
        "scriptpubkey_address": "bc1prj4nyky8vzae30nuds3ayqz8qv4ch237wn3klnffraudhxqn657sq6c20j",
        "value": 1075000
      },
      "scriptsig": "",
      "scriptsig_asm": "",
      "witness": [
        "657705eda8d152118504a95b49b410dfcfffefb07a2a1271b1ffa2103687a59ceb76c9fd638620befc7571a946c35d3df853f27dc5c2b7c8181936ecca05ac00"
      ],
      "is_coinbase": false,
      "sequence": 4294967293
    }
  ],
  "vout": [
    {
      "scriptpubkey": "00145f35a124069683ddeb2f1726e9a1173f9340c87e",
      "scriptpubkey_asm": "OP_0 OP_PUSHBYTES_20 5f35a124069683ddeb2f1726e9a1173f9340c87e",
      "scriptpubkey_type": "v0_p2wpkh",
      "scriptpubkey_address": "bc1qtu66zfqxj6pam6e0zunwnggh87f5pjr7vdr5cd",
      "value": 1000000
    },
    {
      "scriptpubkey": "0014fb7a185fc47428a9992c09f70c6add47a5c19223",
      "scriptpubkey_asm": "OP_0 OP_PUSHBYTES_20 fb7a185fc47428a9992c09f70c6add47a5c19223",
      "scriptpubkey_type": "v0_p2wpkh",
      "scriptpubkey_address": "bc1qldapsh7yws52nxfvp8msc6kag7jury3rxrw4dm",
      "value": 30000
    },
    {
      "scriptpubkey": "51201cab32588760bb98be7c6c23d20047032b8baa3e74e36fcd291f78db9813d53d",
      "scriptpubkey_asm": "OP_PUSHNUM_1 OP_PUSHBYTES_32 1cab32588760bb98be7c6c23d20047032b8baa3e74e36fcd291f78db9813d53d",
      "scriptpubkey_type": "v1_p2tr",
      "scriptpubkey_address": "bc1prj4nyky8vzae30nuds3ayqz8qv4ch237wn3klnffraudhxqn657sq6c20j",
      "value": 41031
    }
  ],
  "size": 224,
  "weight": 692,
  "fee": 3969,
  "status": {
    "confirmed": true,
    "block_height": 834638,
    "block_hash": "000000000000000000025f742c626208ac87e0b7d15054abb4a19ca2d735a54e",
    "block_time": 1710405325
  },
  "hex": "0200000000010168d646918c131b1bc3b7da429b512d3cbc44023fb6b986d7a380a718c7b167630f00000000fdffffff0340420f00000000001600145f35a124069683ddeb2f1726e9a1173f9340c87e3075000000000000160014fb7a185fc47428a9992c09f70c6add47a5c1922347a00000000000002251201cab32588760bb98be7c6c23d20047032b8baa3e74e36fcd291f78db9813d53d0140657705eda8d152118504a95b49b410dfcfffefb07a2a1271b1ffa2103687a59ceb76c9fd638620befc7571a946c35d3df853f27dc5c2b7c8181936ecca05ac0000000000"
}