{
  "txid": "e32529bef02a6380aff567bbbcb923f8bb39a351b541987695b03b04a3f20149",
  "version": 2,
  "locktime": 0,
  "vin": [
    {
      "txid": "67da0901fd922529922e711ac8572488e7a9a66a11a9b933e13ec75fd4abbc30",
      "vout": 9,
      "prevout": {
        "scriptpubkey": "5120d5e04d46064d81bae68437bd4e570b15b7c3e9fe683966f429ab7e30d2f83785",
        "scriptpubkey_asm": "OP_PUSHNUM_1 OP_PUSHBYTES_32 d5e04d46064d81bae68437bd4e570b15b7c3e9fe683966f429ab7e30d2f83785",
        "scriptpubkey_type": "v1_p2tr",
        "scriptpubkey_address": "bc1p6hsy63sxfkqm4e5yx775u4ctzkmu8607dqukdapf4dlrp5hcx7zssa9xha",
        "value": 1847
      },
      "scriptsig": "",
      "scriptsig_asm": "",
      "witness": [
        "24e207cb63f84f8ce3c0f94969ac2bf85816389d2c7cc571815bd6ce34db113267fd20dceb0375661fc81db5f34d50e4323bbc49ed5fd8c34495a83bf3e19eb8",
        "20246ed34fe13b0d17be27a5feca46c97fa96993a99de526c54bc4ee9c3ef26384ac0063036f726401010a746578742f706c61696e00357b2270223a226272632d3230222c226f70223a226d696e74222c227469636b223a22423d5443222c22616d74223a2231303030227d68",
        "c0246ed34fe13b0d17be27a5feca46c97fa96993a99de526c54bc4ee9c3ef26384"
      ],
      "is_coinbase": false,
      "sequence": 4294967293
    }
  ],
  "vout": [
    {
      "scriptpubkey": "0014bc6a03e1d822b95ef8a89a90ea92ba12d12610e2",
      "scriptpubkey_asm": "OP_0 OP_PUSHBYTES_20 bc6a03e1d822b95ef8a89a90ea92ba12d12610e2",
      "scriptpubkey_type": "v0_p2wpkh",
      "scriptpubkey_address": "bc1qh34q8cwcy2u4a79gn2gw4y46ztgjvy8zzdvt45",
      "value": 294
    }
  ],
  "size": 294,
  "weight": 540,
  "fee": 1553,
  "status": {
    "confirmed": true,
    "block_height": 834464,
    "block_hash": "0000000000000000000177a0869a911a2b65c9bdcd5a8bcb02b68f305bee848e",
    "block_time": 1710308296
  },
  "hex": "0200000000010130bcabd45fc73ee133b9a9116aa6a9e7882457c81a712e92292592fd0109da670900000000fdffffff012601000000000000160014bc6a03e1d822b95ef8a89a90ea92ba12d12610e2034024e207cb63f84f8ce3c0f94969ac2bf85816389d2c7cc571815bd6ce34db113267fd20dceb0375661fc81db5f34d50e4323bbc49ed5fd8c34495a83bf3e19eb86d20246ed34fe13b0d17be27a5feca46c97fa96993a99de526c54bc4ee9c3ef26384ac0063036f726401010a746578742f706c61696e00357b2270223a226272632d3230222c226f70223a226d696e74222c227469636b223a22423d5443222c22616d74223a2231303030227d6821c0246ed34fe13b0d17be27a5feca46c97fa96993a99de526c54bc4ee9c3ef2638400000000"
}