{
  "txid": "e327fd40729b51de6da9b132d5f0a17d0809e2f3841b6d4d706558c348f517c0",
  "version": 1,
  "locktime": 0,
  "vin": [
    {
      "txid": "4abd51ff19da5aa448bb33b464de8a1502c9aec0bdc025a2b3d83fe71240719e",
      "vout": 29,
      "prevout": {
        "scriptpubkey": "a9140a29a0167155793cd097dbb833b8c292a008419a87",
        "scriptpubkey_asm": "OP_HASH160 OP_PUSHBYTES_20 0a29a0167155793cd097dbb833b8c292a008419a OP_EQUAL",
        "scriptpubkey_type": "p2sh",
        "scriptpubkey_address": "32ckYeASfgK3ApWRohypB7jdnoJ9R7bPjz",
        "value": 200000
      },
      "scriptsig": "1600143b00a7152b2d69d48f8996bb146ddcd43de74f79",
      "scriptsig_asm": "OP_PUSHBYTES_22 00143b00a7152b2d69d48f8996bb146ddcd43de74f79",
      "witness": [
        "3045022100b13a9bb7b36e938975f798b0634ef9dc984f430c715a5816aeac6664f66d99a6022001918b9b96351932fe86fa7bcb7400af2508ea7de8e8047f0bed3faaed3e4c3001",
        "02f544e61aa80deab87019bbc0ab6c17d33f9c4fa6050c15b546dc38337de64209"
      ],
      "is_coinbase": false,
      "sequence": 4294967295,
      "inner_redeemscript_asm": "OP_0 OP_PUSHBYTES_20 3b00a7152b2d69d48f8996bb146ddcd43de74f79"
    }
  ],
  "vout": [
    {
      "scriptpubkey": "00143552e730b66aa45640033386b5ac25d78f9c04af",
      "scriptpubkey_asm": "OP_0 OP_PUSHBYTES_20 3552e730b66aa45640033386b5ac25d78f9c04af",
      "scriptpubkey_type": "v0_p2wpkh",
      "scriptpubkey_address": "bc1qx4fwwv9kd2j9vsqrxwrtttp9678ecp90enq0lh",
      "value": 9733
    },
    {
      "scriptpubkey": "00147d7994765a5d6022606ea8a4814b31e65e3a2249",
      "scriptpubkey_asm": "OP_0 OP_PUSHBYTES_20 7d7994765a5d6022606ea8a4814b31e65e3a2249",
      "scriptpubkey_type": "v0_p2wpkh",
      "scriptpubkey_address": "bc1q04uegaj6t4szycrw4zjgzje3ue0r5gjfx94c26",
      "value": 18492
    },
    {
      "scriptpubkey": "00143ce5a3b20f715b1372b159eec29d0568daee815a",
      "scriptpubkey_asm": "OP_0 OP_PUSHBYTES_20 3ce5a3b20f715b1372b159eec29d0568daee815a",
      "scriptpubkey_type": "v0_p2wpkh",
      "scriptpubkey_address": "bc1q8nj68vs0w9d3xu43t8hv98g9drdwaq26cv3efy",
      "value": 166425
    },
    {
      "scriptpubkey": "a9145454edad786f0053fd5ab4caba0260cffa90fa1787",
      "scriptpubkey_asm": "OP_HASH160 OP_PUSHBYTES_20 5454edad786f0053fd5ab4caba0260cffa90fa17 OP_EQUAL",
      "scriptpubkey_type": "p2sh",
      "scriptpubkey_address": "39NvRb4ntoiWSUveRo4QCYvgwX49FZ6Ju4",
      "value": 2000
    }
  ],
  "size": 309,
  "weight": 906,
  "fee": 3350,
  "status": {
    "confirmed": true,
    "block_height": 834638,
    "block_hash": "000000000000000000025f742c626208ac87e0b7d15054abb4a19ca2d735a54e",
    "block_time": 1710405325
  },
  "hex": "010000000001019e714012e73fd8b3a225c0bdc0aec902158ade64b433bb48a45ada19ff51bd4a1d000000171600143b00a7152b2d69d48f8996bb146ddcd43de74f79ffffffff0405260000000000001600143552e730b66aa45640033386b5ac25d78f9c04af3c480000000000001600147d7994765a5d6022606ea8a4814b31e65e3a2249198a0200000000001600143ce5a3b20f715b1372b159eec29d0568daee815ad00700000000000017a9145454edad786f0053fd5ab4caba0260cffa90fa178702483045022100b13a9bb7b36e938975f798b0634ef9dc984f430c715a5816aeac6664f66d99a6022001918b9b96351932fe86fa7bcb7400af2508ea7de8e8047f0bed3faaed3e4c30012102f544e61aa80deab87019bbc0ab6c17d33f9c4fa6050c15b546dc38337de6420900000000"
}