{
  "txid": "e342a575a594054f4e9a05bc728ef4be2aa3e9eecc15120048e965c1b217bed8",
  "version": 2,
  "locktime": 0,
  "vin": [
    {
      "txid": "b3003b644192c80183fa799619a3d8f2a16407d1eca863aa21101172302c1ee1",
      "vout": 5,
      "prevout": {
        "scriptpubkey": "a9148093b41fd42ba37ee7d0ce72dc0baa69c402924c87",
        "scriptpubkey_asm": "OP_HASH160 OP_PUSHBYTES_20 8093b41fd42ba37ee7d0ce72dc0baa69c402924c OP_EQUAL",
        "scriptpubkey_type": "p2sh",
        "scriptpubkey_address": "3DQsMizbDirZPDNutgKZUSKtKo4NtKcq67",
        "value": 114014
      },
      "scriptsig": "160014da039f943142c4172caf8aac414e723cf831402c",
      "scriptsig_asm": "OP_PUSHBYTES_22 0014da039f943142c4172caf8aac414e723cf831402c",
      "witness": [
        "304402205b29ddf5a67b518c1d98bf4cbbeeda9045ed11dd199fbd87987061a2473f98c802207c7faa336e5af524b89e75ad12578edd577b64ff7433b51bfb17ff6d679e3ac901",
        "031c4bb9e2561bf26461398eec53ff6f7c0ee2fa445687bf8c2d05c0b7b40d8d94"
      ],
      "is_coinbase": false,
      "sequence": 4294967295,
      "inner_redeemscript_asm": "OP_0 OP_PUSHBYTES_20 da039f943142c4172caf8aac414e723cf831402c"
    }
  ],
  "vout": [
    {
      "scriptpubkey": "a91473e86a727f58e668e7379415a39989bce467867587",
      "scriptpubkey_asm": "OP_HASH160 OP_PUSHBYTES_20 73e86a727f58e668e7379415a39989bce4678675 OP_EQUAL",
      "scriptpubkey_type": "p2sh",
      "scriptpubkey_address": "3CFt48wq8uX9E6RhNVHbEYSdJdauXKvEHn",
      "value": 1275
    },
    {
      "scriptpubkey": "001401237337efd84c969ce2c22f9b6ebd23b5763125",
      "scriptpubkey_asm": "OP_0 OP_PUSHBYTES_20 01237337efd84c969ce2c22f9b6ebd23b5763125",
      "scriptpubkey_type": "v0_p2wpkh",
      "scriptpubkey_address": "bc1qqy3hxdl0mpxfd88zcghekm4ayw6hvvf9w8zq8l",
      "value": 110768
    }
  ],
  "size": 246,
  "weight": 657,
  "fee": 1971,
  "status": {
    "confirmed": true,
    "block_height": 834460,
    "block_hash": "00000000000000000000484a79b643b2524bbce82e5d8a442013fa5b8905ed98",
    "block_time": 1710307468
  },
  "hex": "02000000000101e11e2c3072111021aa63a8ecd10764a1f2d8a3199679fa8301c89241643b00b30500000017160014da039f943142c4172caf8aac414e723cf831402cffffffff02fb0400000000000017a91473e86a727f58e668e7379415a39989bce467867587b0b001000000000016001401237337efd84c969ce2c22f9b6ebd23b57631250247304402205b29ddf5a67b518c1d98bf4cbbeeda9045ed11dd199fbd87987061a2473f98c802207c7faa336e5af524b89e75ad12578edd577b64ff7433b51bfb17ff6d679e3ac90121031c4bb9e2561bf26461398eec53ff6f7c0ee2fa445687bf8c2d05c0b7b40d8d9400000000"
}