{
  "txid": "e344457a5b6c0f0dc4bfe08575ce068ec628d60163c5209e3059c3a60a176f6f",
  "version": 2,
  "locktime": 0,
  "vin": [
    {
      "txid": "016e931734e443da8c5fe96a4009b6bd04db93e673dde07f1b465009f81ed1c9",
      "vout": 1,
      "prevout": {
        "scriptpubkey": "00144f6eae56bfce242ab33d6fb573719fdb7ebd6184",
        "scriptpubkey_asm": "OP_0 OP_PUSHBYTES_20 4f6eae56bfce242ab33d6fb573719fdb7ebd6184",
        "scriptpubkey_type": "v0_p2wpkh",
        "scriptpubkey_address": "bc1qfah2u44lecjz4vead76hxuvlmdlt6cvycv85q0",
        "value": 1050242
      },
      "scriptsig": "",
      "scriptsig_asm": "",
      "witness": [
        "304402203ae773f6aa7d83dc0de276f176c2ca535712b6ba2bdf757ce939b67168e7f1e5022064a0de2caf6b4c35ccfd7e4fd35911520db5a797679d4916fc393536b807dcf601",
        "0371e681b46b7522d9616d305f47e54b0c204e7efd617f7d1feaf8032c0655e9b6"
      ],
      "is_coinbase": false,
      "sequence": 4294967294
    }
  ],
  "vout": [
    {
      "scriptpubkey": "0014951f57a50aed28bf6bf9dfab7dd26d4b6bef4180",
      "scriptpubkey_asm": "OP_0 OP_PUSHBYTES_20 951f57a50aed28bf6bf9dfab7dd26d4b6bef4180",
      "scriptpubkey_type": "v0_p2wpkh",
      "scriptpubkey_address": "bc1qj5040fg2a55t76lem74hm5ndfd477svqzat63f",
      "value": 1009745
    },
    {
      "scriptpubkey": "76a9146f559dcb7c4c1b7f5b720096533a953dd787223d88ac",
      "scriptpubkey_asm": "OP_DUP OP_HASH160 OP_PUSHBYTES_20 6f559dcb7c4c1b7f5b720096533a953dd787223d OP_EQUALVERIFY OP_CHECKSIG",
      "scriptpubkey_type": "p2pkh",
      "scriptpubkey_address": "1B9ga2PfJUY2eho8mTnLCsC6i6bkh5TQYE",
      "value": 38625
    }
  ],
  "size": 225,
  "weight": 573,
  "fee": 1872,
  "status": {
    "confirmed": true,
    "block_height": 834460,
    "block_hash": "00000000000000000000484a79b643b2524bbce82e5d8a442013fa5b8905ed98",
    "block_time": 1710307468
  },
  "hex": "02000000000101c9d11ef80950461b7fe0dd73e693db04bdb609406ae95f8cda43e43417936e010100000000feffffff0251680f0000000000160014951f57a50aed28bf6bf9dfab7dd26d4b6bef4180e1960000000000001976a9146f559dcb7c4c1b7f5b720096533a953dd787223d88ac0247304402203ae773f6aa7d83dc0de276f176c2ca535712b6ba2bdf757ce939b67168e7f1e5022064a0de2caf6b4c35ccfd7e4fd35911520db5a797679d4916fc393536b807dcf601210371e681b46b7522d9616d305f47e54b0c204e7efd617f7d1feaf8032c0655e9b600000000"
}