{
  "txid": "e348393795da7f918a54285d8545c694b9bc8b7cf97eada8262a2f6608d04509",
  "version": 1,
  "locktime": 0,
  "vin": [
    {
      "txid": "c407063932c9e76f333233b03383a564a925bcdcb185fa299c1766f5304c5b02",
      "vout": 1,
      "prevout": {
        "scriptpubkey": "00148a97c8d2855dd94ae5645da520dfb8893fca556a",
        "scriptpubkey_asm": "OP_0 OP_PUSHBYTES_20 8a97c8d2855dd94ae5645da520dfb8893fca556a",
        "scriptpubkey_type": "v0_p2wpkh",
        "scriptpubkey_address": "bc1q32tu3559thv54etytkjjphac3ylu54t2wu43sk",
        "value": 687849
      },
      "scriptsig": "",
      "scriptsig_asm": "",
      "witness": [
        "3044022061730c4e152e4d5b284a10e5ed3340a6c8fcd385be77ad8111dbb9fedc5ba6e0022027c74aa14d13f9a14b8f82b645829c5e3c80ed3c4df5fc84a9889046c0467b1d01",
        "0260d07f11d0e39934f9ffd02ccd4212867da7a5bb17b139f5daf39f001c7b2c02"
      ],
      "is_coinbase": false,
      "sequence": 4294967295
    }
  ],
  "vout": [
    {
      "scriptpubkey": "0014710b5d7821c85e23c1bb13693c44cb5bc88e3caa",
      "scriptpubkey_asm": "OP_0 OP_PUSHBYTES_20 710b5d7821c85e23c1bb13693c44cb5bc88e3caa",
      "scriptpubkey_type": "v0_p2wpkh",
      "scriptpubkey_address": "bc1qwy9467ppep0z8sdmzd5nc3xtt0ygu092tmuz5l",
      "value": 160000
    },
    {
      "scriptpubkey": "00148a97c8d2855dd94ae5645da520dfb8893fca556a",
      "scriptpubkey_asm": "OP_0 OP_PUSHBYTES_20 8a97c8d2855dd94ae5645da520dfb8893fca556a",
      "scriptpubkey_type": "v0_p2wpkh",
      "scriptpubkey_address": "bc1q32tu3559thv54etytkjjphac3ylu54t2wu43sk",
      "value": 524747
    },
    {
      "scriptpubkey": "6a403d3a4253432e424e423a3078343231366335316431653735324345614238313738464538663534383065393962433064633236423a302f312f303a74693a3730",
      "scriptpubkey_asm": "OP_RETURN OP_PUSHBYTES_64 3d3a4253432e424e423a3078343231366335316431653735324345614238313738464538663534383065393962433064633236423a302f312f303a74693a3730",
      "scriptpubkey_type": "op_return",
      "value": 0
    }
  ],
  "size": 297,
  "weight": 861,
  "fee": 3102,
  "status": {
    "confirmed": true,
    "block_height": 834460,
    "block_hash": "00000000000000000000484a79b643b2524bbce82e5d8a442013fa5b8905ed98",
    "block_time": 1710307468
  },
  "hex": "01000000000101025b4c30f566179c29fa85b1dcbc25a964a58333b03332336fe7c932390607c40100000000ffffffff030071020000000000160014710b5d7821c85e23c1bb13693c44cb5bc88e3caacb010800000000001600148a97c8d2855dd94ae5645da520dfb8893fca556a0000000000000000426a403d3a4253432e424e423a3078343231366335316431653735324345614238313738464538663534383065393962433064633236423a302f312f303a74693a373002473044022061730c4e152e4d5b284a10e5ed3340a6c8fcd385be77ad8111dbb9fedc5ba6e0022027c74aa14d13f9a14b8f82b645829c5e3c80ed3c4df5fc84a9889046c0467b1d01210260d07f11d0e39934f9ffd02ccd4212867da7a5bb17b139f5daf39f001c7b2c0200000000"
}