{
  "txid": "e34cc4735c87aab7078ea8d6d3c32ec9cc6cdbbd6a0856d22e58b0418e095e63",
  "version": 2,
  "locktime": 834458,
  "vin": [
    {
      "txid": "8f0ae4774da0af6f6f8282d019873008aa33c1bcb7a02e9fe9702819e6834de4",
      "vout": 1,
      "prevout": {
        "scriptpubkey": "0014fbc4165a86be07e2c539aa24a5610074d0d98b42",
        "scriptpubkey_asm": "OP_0 OP_PUSHBYTES_20 fbc4165a86be07e2c539aa24a5610074d0d98b42",
        "scriptpubkey_type": "v0_p2wpkh",
        "scriptpubkey_address": "bc1ql0zpvk5xhcr793fe4gj22cgqwngdnz6z2qyfew",
        "value": 69194209
      },
      "scriptsig": "",
      "scriptsig_asm": "",
      "witness": [
        "3044022066442279d66338c8ac8ef80a5383ecd6a05a0e6b6460baf693c2b791c96864dc022040f07753856892fa2115a345f9d61b55cdda5a23de7d62a1df5a37a13ce7da9401",
        "03ac51600ee96c29ed052f6787fb18080f34f29ad032c9a171ead26fa7c5b00207"
      ],
      "is_coinbase": false,
      "sequence": 4294967293
    }
  ],
  "vout": [
    {
      "scriptpubkey": "0014ff251d1eadd646d8b71b67e120514c268f0ad65a",
      "scriptpubkey_asm": "OP_0 OP_PUSHBYTES_20 ff251d1eadd646d8b71b67e120514c268f0ad65a",
      "scriptpubkey_type": "v0_p2wpkh",
      "scriptpubkey_address": "bc1qluj3684d6erd3dcmvlsjq52vy68s44j6p030r7",
      "value": 68803121
    },
    {
      "scriptpubkey": "00146a9e929cae6d3c9711896eae7dad99ee03cb744c",
      "scriptpubkey_asm": "OP_0 OP_PUSHBYTES_20 6a9e929cae6d3c9711896eae7dad99ee03cb744c",
      "scriptpubkey_type": "v0_p2wpkh",
      "scriptpubkey_address": "bc1qd20f989wd57fwyvfd6h8mtveacpukazvw9hg09",
      "value": 389100
    }
  ],
  "size": 222,
  "weight": 561,
  "fee": 1988,
  "status": {
    "confirmed": true,
    "block_height": 834460,
    "block_hash": "00000000000000000000484a79b643b2524bbce82e5d8a442013fa5b8905ed98",
    "block_time": 1710307468
  },
  "hex": "02000000000101e44d83e6192870e99f2ea0b7bcc133aa08308719d082826f6fafa04d77e40a8f0100000000fdffffff0231da190400000000160014ff251d1eadd646d8b71b67e120514c268f0ad65aecef0500000000001600146a9e929cae6d3c9711896eae7dad99ee03cb744c02473044022066442279d66338c8ac8ef80a5383ecd6a05a0e6b6460baf693c2b791c96864dc022040f07753856892fa2115a345f9d61b55cdda5a23de7d62a1df5a37a13ce7da94012103ac51600ee96c29ed052f6787fb18080f34f29ad032c9a171ead26fa7c5b002079abb0c00"
}