{
  "txid": "e353c3a1cf90d8302d94052e3d902592a105928e4299c6b940d707020600f5fb",
  "version": 2,
  "locktime": 834458,
  "vin": [
    {
      "txid": "9c8e13377c3214f3cf5f907f35b77f2f3b4e182388e77b1a6e7aad7455d8b55a",
      "vout": 0,
      "prevout": {
        "scriptpubkey": "001485b8a8e1f590c8bc40d884c8d434a201f1558b12",
        "scriptpubkey_asm": "OP_0 OP_PUSHBYTES_20 85b8a8e1f590c8bc40d884c8d434a201f1558b12",
        "scriptpubkey_type": "v0_p2wpkh",
        "scriptpubkey_address": "bc1qsku23c04jrytcsxcsnydgd9zq8c4tzcjr67znt",
        "value": 17500
      },
      "scriptsig": "",
      "scriptsig_asm": "",
      "witness": [
        "30440220572d2a394f1ddf7d205e139d5d9b2b2c4b45ccd53ed67e4d18f284ce5745a0aa022058f14b9bf2fcdb30ae9659683b2fc03e5f4d24d40686173f319ef0498cd949d201",
        "02e7035513c0c67d686a6ba2a8b3200118183258568732a393182e461245dd5556"
      ],
      "is_coinbase": false,
      "sequence": 4294967293
    }
  ],
  "vout": [
    {
      "scriptpubkey": "a914651fec07d422f109ebfb6ba14230aae98520b3e787",
      "scriptpubkey_asm": "OP_HASH160 OP_PUSHBYTES_20 651fec07d422f109ebfb6ba14230aae98520b3e7 OP_EQUAL",
      "scriptpubkey_type": "p2sh",
      "scriptpubkey_address": "3AuiQu24jCNtQLi7biDRfQRev5SD2RorrD",
      "value": 16279
    }
  ],
  "size": 192,
  "weight": 441,
  "fee": 1221,
  "status": {
    "confirmed": true,
    "block_height": 834464,
    "block_hash": "0000000000000000000177a0869a911a2b65c9bdcd5a8bcb02b68f305bee848e",
    "block_time": 1710308296
  },
  "hex": "020000000001015ab5d85574ad7a6e1a7be78823184e3b2f7fb7357f905fcff314327c37138e9c0000000000fdffffff01973f00000000000017a914651fec07d422f109ebfb6ba14230aae98520b3e787024730440220572d2a394f1ddf7d205e139d5d9b2b2c4b45ccd53ed67e4d18f284ce5745a0aa022058f14b9bf2fcdb30ae9659683b2fc03e5f4d24d40686173f319ef0498cd949d2012102e7035513c0c67d686a6ba2a8b3200118183258568732a393182e461245dd55569abb0c00"
}