{
  "txid": "e37e6c0e8f05c2af030a18c95ce5cb17f72ff719a6c020020373535109b11daf",
  "version": 2,
  "locktime": 0,
  "vin": [
    {
      "txid": "ae3f8a02fe9c346909d2d2f76a282b5ebb13c1f91303f50c372882e6710d7b8b",
      "vout": 8,
      "prevout": {
        "scriptpubkey": "0014ca30b6888f7c65721015ecda8e4ae50d1245b902",
        "scriptpubkey_asm": "OP_0 OP_PUSHBYTES_20 ca30b6888f7c65721015ecda8e4ae50d1245b902",
        "scriptpubkey_type": "v0_p2wpkh",
        "scriptpubkey_address": "bc1qegctdzy003jhyyq4andgujh9p5fytwgz0tc4gr",
        "value": 656750
      },
      "scriptsig": "",
      "scriptsig_asm": "",
      "witness": [
        "3045022100e43aa683b0ab092ac899eb9d6978cb6649e1afbb77239d7043a66f868427f1db02201c3d3889a5807b502081d95a64654ad759fb73543ddf5ba82f8f33e3458ffdd701",
        "03dc830ce0b33dbc914600559bcf908868b3520105daccb50f301486a4c753d0bd"
      ],
      "is_coinbase": false,
      "sequence": 4294967295
    },
    {
      "txid": "25598ba8b947054af14d8d55f394710cc8f458a5d8e3e28bb49046c0e9648c3a",
      "vout": 6,
      "prevout": {
        "scriptpubkey": "0014ca30b6888f7c65721015ecda8e4ae50d1245b902",
        "scriptpubkey_asm": "OP_0 OP_PUSHBYTES_20 ca30b6888f7c65721015ecda8e4ae50d1245b902",
        "scriptpubkey_type": "v0_p2wpkh",
        "scriptpubkey_address": "bc1qegctdzy003jhyyq4andgujh9p5fytwgz0tc4gr",
        "value": 85520
      },
      "scriptsig": "",
      "scriptsig_asm": "",
      "witness": [
        "3045022100926c10d4c0942dbbdbfe155262fa1a7ca50ea81b389484eb21bdcc6bbe96bb84022011c6395948af9b020395be96332180931b026ff478531a9dee707012117491a701",
        "03dc830ce0b33dbc914600559bcf908868b3520105daccb50f301486a4c753d0bd"
      ],
      "is_coinbase": false,
      "sequence": 4294967295
    },
    {
      "txid": "726a75418584bf8c9e1a26e65914bf611a34841fd348497c72a6195d126a4834",
      "vout": 6,
      "prevout": {
        "scriptpubkey": "0014ca30b6888f7c65721015ecda8e4ae50d1245b902",
        "scriptpubkey_asm": "OP_0 OP_PUSHBYTES_20 ca30b6888f7c65721015ecda8e4ae50d1245b902",
        "scriptpubkey_type": "v0_p2wpkh",
        "scriptpubkey_address": "bc1qegctdzy003jhyyq4andgujh9p5fytwgz0tc4gr",
        "value": 80880
      },
      "scriptsig": "",
      "scriptsig_asm": "",
      "witness": [
        "30440220120fe70bf255709b0855fec540a175f211387ec2eee36ea14fe58be1e13d9e0c0220389b6caeedc01963250bc7a8d9e15a8b552a8b708f9967a55ae2a709f21c7ffd01",
        "03dc830ce0b33dbc914600559bcf908868b3520105daccb50f301486a4c753d0bd"
      ],
      "is_coinbase": false,
      "sequence": 4294967295
    },
    {
      "txid": "25598ba8b947054af14d8d55f394710cc8f458a5d8e3e28bb49046c0e9648c3a",
      "vout": 0,
      "prevout": {
        "scriptpubkey": "0014ca30b6888f7c65721015ecda8e4ae50d1245b902",
        "scriptpubkey_asm": "OP_0 OP_PUSHBYTES_20 ca30b6888f7c65721015ecda8e4ae50d1245b902",
        "scriptpubkey_type": "v0_p2wpkh",
        "scriptpubkey_address": "bc1qegctdzy003jhyyq4andgujh9p5fytwgz0tc4gr",
        "value": 1200
      },
      "scriptsig": "",
      "scriptsig_asm": "",
      "witness": [
        "30450221008917988cf8a88e17702fc307e136dcb2ed7cca188f466cc3840b0c558c4f1a230220416e3d6984fd94b76b8c7d80a17d538c6edb9f10248cd2b34a322bd16b43517c01",
        "03dc830ce0b33dbc914600559bcf908868b3520105daccb50f301486a4c753d0bd"
      ],
      "is_coinbase": false,
      "sequence": 4294967295
    },
    {
      "txid": "726a75418584bf8c9e1a26e65914bf611a34841fd348497c72a6195d126a4834",
      "vout": 0,
      "prevout": {
        "scriptpubkey": "0014ca30b6888f7c65721015ecda8e4ae50d1245b902",
        "scriptpubkey_asm": "OP_0 OP_PUSHBYTES_20 ca30b6888f7c65721015ecda8e4ae50d1245b902",
        "scriptpubkey_type": "v0_p2wpkh",
        "scriptpubkey_address": "bc1qegctdzy003jhyyq4andgujh9p5fytwgz0tc4gr",
        "value": 1200
      },
      "scriptsig": "",
      "scriptsig_asm": "",
      "witness": [
        "304502210082b8d532c41c23b0610136848ada56d4d9dc30920a29177a50b1dcbb60d8b69a02202ac3b57fd36600970bee1b3b18edca20373c3a9ece5137e963640a62ea90c18501",
        "03dc830ce0b33dbc914600559bcf908868b3520105daccb50f301486a4c753d0bd"
      ],
      "is_coinbase": false,
      "sequence": 4294967295
    },
    {
      "txid": "f9902a96914d73e876cca5d9f4778d9bfc6b31757ef14c233e893e367d076a8d",
      "vout": 7,
      "prevout": {
        "scriptpubkey": "0014ca30b6888f7c65721015ecda8e4ae50d1245b902",
        "scriptpubkey_asm": "OP_0 OP_PUSHBYTES_20 ca30b6888f7c65721015ecda8e4ae50d1245b902",
        "scriptpubkey_type": "v0_p2wpkh",
        "scriptpubkey_address": "bc1qegctdzy003jhyyq4andgujh9p5fytwgz0tc4gr",
        "value": 600
      },
      "scriptsig": "",
      "scriptsig_asm": "",
      "witness": [
        "3044022077576080906782457124ab343661fe1544efb32f2cc47ab81061b52c2caaac5d0220735ed81574e3517b75d8934adb3ed92242ea8d1243961f68980e65e0e5c0a66801",
        "03dc830ce0b33dbc914600559bcf908868b3520105daccb50f301486a4c753d0bd"
      ],
      "is_coinbase": false,
      "sequence": 4294967295
    }
  ],
  "vout": [
    {
      "scriptpubkey": "5120dac28eae703d932a7858d37ecb398796fbe56e899b70a25841cbcc38e1aefb93",
      "scriptpubkey_asm": "OP_PUSHNUM_1 OP_PUSHBYTES_32 dac28eae703d932a7858d37ecb398796fbe56e899b70a25841cbcc38e1aefb93",
      "scriptpubkey_type": "v1_p2tr",
      "scriptpubkey_address": "bc1pmtpgatns8kfj57zc6dlvkwv8jma72m5fndc2ykzpe0xr3cdwlwfs0q9xp2",
      "value": 818278
    }
  ],
  "size": 947,
  "weight": 1844,
  "fee": 7872,
  "status": {
    "confirmed": true,
    "block_height": 834552,
    "block_hash": "00000000000000000001dd0468a70c94f619251d286585cff57aeb4bd9ede330",
    "block_time": 1710355598
  },
  "hex": "020000000001068b7b0d71e68228370cf50313f9c113bb5e2b286af7d2d20969349cfe028a3fae0800000000ffffffff3a8c64e9c04690b48be2e3d8a558f4c80c7194f3558d4df14a0547b9a88b59250600000000ffffffff34486a125d19a6727c4948d31f84341a61bf1459e6261a9e8cbf848541756a720600000000ffffffff3a8c64e9c04690b48be2e3d8a558f4c80c7194f3558d4df14a0547b9a88b59250000000000ffffffff34486a125d19a6727c4948d31f84341a61bf1459e6261a9e8cbf848541756a720000000000ffffffff8d6a077d363e893e234cf17e75316bfc9b8d77f4d9a5cc76e8734d91962a90f90700000000ffffffff01667c0c0000000000225120dac28eae703d932a7858d37ecb398796fbe56e899b70a25841cbcc38e1aefb9302483045022100e43aa683b0ab092ac899eb9d6978cb6649e1afbb77239d7043a66f868427f1db02201c3d3889a5807b502081d95a64654ad759fb73543ddf5ba82f8f33e3458ffdd7012103dc830ce0b33dbc914600559bcf908868b3520105daccb50f301486a4c753d0bd02483045022100926c10d4c0942dbbdbfe155262fa1a7ca50ea81b389484eb21bdcc6bbe96bb84022011c6395948af9b020395be96332180931b026ff478531a9dee707012117491a7012103dc830ce0b33dbc914600559bcf908868b3520105daccb50f301486a4c753d0bd024730440220120fe70bf255709b0855fec540a175f211387ec2eee36ea14fe58be1e13d9e0c0220389b6caeedc01963250bc7a8d9e15a8b552a8b708f9967a55ae2a709f21c7ffd012103dc830ce0b33dbc914600559bcf908868b3520105daccb50f301486a4c753d0bd024830450221008917988cf8a88e17702fc307e136dcb2ed7cca188f466cc3840b0c558c4f1a230220416e3d6984fd94b76b8c7d80a17d538c6edb9f10248cd2b34a322bd16b43517c012103dc830ce0b33dbc914600559bcf908868b3520105daccb50f301486a4c753d0bd0248304502210082b8d532c41c23b0610136848ada56d4d9dc30920a29177a50b1dcbb60d8b69a02202ac3b57fd36600970bee1b3b18edca20373c3a9ece5137e963640a62ea90c185012103dc830ce0b33dbc914600559bcf908868b3520105daccb50f301486a4c753d0bd02473044022077576080906782457124ab343661fe1544efb32f2cc47ab81061b52c2caaac5d0220735ed81574e3517b75d8934adb3ed92242ea8d1243961f68980e65e0e5c0a668012103dc830ce0b33dbc914600559bcf908868b3520105daccb50f301486a4c753d0bd00000000"
}