{
  "txid": "e3871a516b19b9cdcec4809476d6b6a90adad54b9325755d01ad207976574ad0",
  "version": 2,
  "locktime": 0,
  "vin": [
    {
      "txid": "acc3ba00869acb582a3f2904ce3a11dd3779350ce234063fc7d0959246213364",
      "vout": 262,
      "prevout": {
        "scriptpubkey": "5120a71c029f3f54b9cf6a864be17c22bb36683101ca85ef2fcd1bfc2df06d060aea",
        "scriptpubkey_asm": "OP_PUSHNUM_1 OP_PUSHBYTES_32 a71c029f3f54b9cf6a864be17c22bb36683101ca85ef2fcd1bfc2df06d060aea",
        "scriptpubkey_type": "v1_p2tr",
        "scriptpubkey_address": "bc1p5uwq98el2juu765xf0shcg4mxe5rzqw2shhjlngmlsklqmgxpt4qx4ezg7",
        "value": 1806
      },
      "scriptsig": "",
      "scriptsig_asm": "",
      "witness": [
        "c5d24e145a2677529fa6b1e548b7aabfd1edf99b290e117b36c212a3aaf02f90d252e7b12f824eebf5c59a76e51d37d0386f831f030f197e58aec52436da88ce",
        "205e938df69f75973c753e84bd592bc34784df51c2f9c19370352af962ba65c933ac0063036f726401010a746578742f706c61696e00357b2270223a226272632d3230222c226f70223a226d696e74222c227469636b223a22646f6765222c22616d74223a2234323030227d68",
        "c15e938df69f75973c753e84bd592bc34784df51c2f9c19370352af962ba65c933"
      ],
      "is_coinbase": false,
      "sequence": 4261412863
    }
  ],
  "vout": [
    {
      "scriptpubkey": "00147a665de7a370f4c9b372ab1fae587500a5bcbdb4",
      "scriptpubkey_asm": "OP_0 OP_PUSHBYTES_20 7a665de7a370f4c9b372ab1fae587500a5bcbdb4",
      "scriptpubkey_type": "v0_p2wpkh",
      "scriptpubkey_address": "bc1q0fn9mearwr6vnvmj4v06ukr4qzjme0d565dzcx",
      "value": 294
    }
  ],
  "size": 294,
  "weight": 540,
  "fee": 1512,
  "status": {
    "confirmed": true,
    "block_height": 834460,
    "block_hash": "00000000000000000000484a79b643b2524bbce82e5d8a442013fa5b8905ed98",
    "block_time": 1710307468
  },
  "hex": "02000000000101643321469295d0c73f0634e20c357937dd113ace04293f2a58cb9a8600bac3ac0601000000fffffffd0126010000000000001600147a665de7a370f4c9b372ab1fae587500a5bcbdb40340c5d24e145a2677529fa6b1e548b7aabfd1edf99b290e117b36c212a3aaf02f90d252e7b12f824eebf5c59a76e51d37d0386f831f030f197e58aec52436da88ce6d205e938df69f75973c753e84bd592bc34784df51c2f9c19370352af962ba65c933ac0063036f726401010a746578742f706c61696e00357b2270223a226272632d3230222c226f70223a226d696e74222c227469636b223a22646f6765222c22616d74223a2234323030227d6821c15e938df69f75973c753e84bd592bc34784df51c2f9c19370352af962ba65c93300000000"
}