{
  "txid": "e3b709f7dfd355c4bcfe4c3641c90a9abeb464184a91cce8a21ce21090affb6a",
  "version": 1,
  "locktime": 0,
  "vin": [
    {
      "txid": "57b806a8b824fb494fbc426b09948a96bc2de3ead5635b7b6515e9552957bbe4",
      "vout": 178,
      "prevout": {
        "scriptpubkey": "0014298f6e3f1a5662b5bec40074c7ef577b21cfff47",
        "scriptpubkey_asm": "OP_0 OP_PUSHBYTES_20 298f6e3f1a5662b5bec40074c7ef577b21cfff47",
        "scriptpubkey_type": "v0_p2wpkh",
        "scriptpubkey_address": "bc1q9x8ku0c62e3tt0kyqp6v0m6h0vsull68540207",
        "value": 36862
      },
      "scriptsig": "",
      "scriptsig_asm": "",
      "witness": [
        "304502210082a7b0305d68750c1a099f56a6b81181ecf5c06db8cda67d8b09321a12c2b543022016170a0b8d4127cc0c97aa46d0011b452a0bc89528206b97da1920af6d5116ac01",
        "027f9eb18469c6b86437303cd5d276468c48f906afab9a9de8c51a17fb23c33551"
      ],
      "is_coinbase": false,
      "sequence": 4294967293
    },
    {
      "txid": "2c1a6cc418df2e61d1df6c098eecdf9f7588e6730b1f5a44bd06b8b1bda6ea40",
      "vout": 1,
      "prevout": {
        "scriptpubkey": "001438591a502f9587e94d132ddf1a689d03402b5ea8",
        "scriptpubkey_asm": "OP_0 OP_PUSHBYTES_20 38591a502f9587e94d132ddf1a689d03402b5ea8",
        "scriptpubkey_type": "v0_p2wpkh",
        "scriptpubkey_address": "bc1q8pv355p0jkr7jngn9h0356yaqdqzkh4g4q0f5a",
        "value": 36422
      },
      "scriptsig": "",
      "scriptsig_asm": "",
      "witness": [
        "3045022100e8cfbb5755074a815e46fea14e76161dfa7f9ef111a48a167458d5ca184a8da102202cfebf76f4f87f0d06b211cbfee7f7f593055aeedc459b75830d7f77a7e0522f01",
        "021b9d7a8f5a534303b06749787f0ffcc6a979aa8653753ee88f342e54c4529608"
      ],
      "is_coinbase": false,
      "sequence": 4294967293
    },
    {
      "txid": "d15398dabf3d36c7a5751df1b6cca9fe12ed5f51b06c8826a97b5d04eb2d9ba8",
      "vout": 14,
      "prevout": {
        "scriptpubkey": "001468935315d1d5bb5ebf937083fe0f4ca19ec49dc4",
        "scriptpubkey_asm": "OP_0 OP_PUSHBYTES_20 68935315d1d5bb5ebf937083fe0f4ca19ec49dc4",
        "scriptpubkey_type": "v0_p2wpkh",
        "scriptpubkey_address": "bc1qdzf4x9w36ka4a0unwzplur6v5x0vf8wyvklz96",
        "value": 36420
      },
      "scriptsig": "",
      "scriptsig_asm": "",
      "witness": [
        "304402207fc0cf609d623f8d6d4dbf64d1bd132d87b444efcb53da181e9fbbae41f1d907022040471a187253c1b26022e6bf2d2e9cb65b3ff0b28636435f762bcc892c5f568401",
        "027ee45373c8f4b379626406da87e2c48617b274da3d0e869b6dc64e8548e5b72d"
      ],
      "is_coinbase": false,
      "sequence": 4294967293
    },
    {
      "txid": "646857f916044f58725c8307d1aae0104d6a2c25386588734c426b17194c7d69",
      "vout": 77,
      "prevout": {
        "scriptpubkey": "001407046a7ebb1ed2c50484a83a6bf74251c4a6985d",
        "scriptpubkey_asm": "OP_0 OP_PUSHBYTES_20 07046a7ebb1ed2c50484a83a6bf74251c4a6985d",
        "scriptpubkey_type": "v0_p2wpkh",
        "scriptpubkey_address": "bc1qquzx5l4mrmfv2pyy4qaxha6z28z2dxza8hfpn2",
        "value": 35983
      },
      "scriptsig": "",
      "scriptsig_asm": "",
      "witness": [
        "3044022047af5b63e76a555d558e41ad6fc3dae7bea950c139cb51a87f07bf48d9bb410b02203c965bf3011c9204ec83122d6298a20b01d791261ab977cbfad2c1a5b8cbcbd301",
        "02761d5964cc1aa6b1507a8e3cd8735ef384bf96034d9ea551724e00428b932882"
      ],
      "is_coinbase": false,
      "sequence": 4294967293
    }
  ],
  "vout": [
    {
      "scriptpubkey": "0014b9816f6e39fb3a80565404c7468b38833ddf7ea0",
      "scriptpubkey_asm": "OP_0 OP_PUSHBYTES_20 b9816f6e39fb3a80565404c7468b38833ddf7ea0",
      "scriptpubkey_type": "v0_p2wpkh",
      "scriptpubkey_address": "bc1qhxqk7m3elvagq4j5qnr5dzecsv7a7l4q7qmqwk",
      "value": 136207
    }
  ],
  "size": 637,
  "weight": 1252,
  "fee": 9480,
  "status": {
    "confirmed": true,
    "block_height": 834638,
    "block_hash": "000000000000000000025f742c626208ac87e0b7d15054abb4a19ca2d735a54e",
    "block_time": 1710405325
  },
  "hex": "01000000000104e4bb572955e915657b5b63d5eae32dbc968a94096b42bc4f49fb24b8a806b857b200000000fdffffff40eaa6bdb1b806bd445a1f0b73e688759fdfec8e096cdfd1612edf18c46c1a2c0100000000fdffffffa89b2deb045d7ba926886cb0515fed12fea9ccb6f11d75a5c7363dbfda9853d10e00000000fdffffff697d4c19176b424c73886538252c6a4d10e0aad107835c72584f0416f95768644d00000000fdffffff010f14020000000000160014b9816f6e39fb3a80565404c7468b38833ddf7ea00248304502210082a7b0305d68750c1a099f56a6b81181ecf5c06db8cda67d8b09321a12c2b543022016170a0b8d4127cc0c97aa46d0011b452a0bc89528206b97da1920af6d5116ac0121027f9eb18469c6b86437303cd5d276468c48f906afab9a9de8c51a17fb23c3355102483045022100e8cfbb5755074a815e46fea14e76161dfa7f9ef111a48a167458d5ca184a8da102202cfebf76f4f87f0d06b211cbfee7f7f593055aeedc459b75830d7f77a7e0522f0121021b9d7a8f5a534303b06749787f0ffcc6a979aa8653753ee88f342e54c45296080247304402207fc0cf609d623f8d6d4dbf64d1bd132d87b444efcb53da181e9fbbae41f1d907022040471a187253c1b26022e6bf2d2e9cb65b3ff0b28636435f762bcc892c5f56840121027ee45373c8f4b379626406da87e2c48617b274da3d0e869b6dc64e8548e5b72d02473044022047af5b63e76a555d558e41ad6fc3dae7bea950c139cb51a87f07bf48d9bb410b02203c965bf3011c9204ec83122d6298a20b01d791261ab977cbfad2c1a5b8cbcbd3012102761d5964cc1aa6b1507a8e3cd8735ef384bf96034d9ea551724e00428b93288200000000"
}