{
  "txid": "e3bf127d37b2e7c9f68e1fbce1e2677dd9a3f08f9770a587b701c26a4234c2f4",
  "version": 2,
  "locktime": 0,
  "vin": [
    {
      "txid": "b13bb5512a4904c28a6b7957b88edf574e8cb23551fc1dcfe22d6b239df42cf4",
      "vout": 50,
      "prevout": {
        "scriptpubkey": "51207efa4301aa6ab5db41ee1928a9f47bb9c8da92f69bc8fd1415efc57431992e37",
        "scriptpubkey_asm": "OP_PUSHNUM_1 OP_PUSHBYTES_32 7efa4301aa6ab5db41ee1928a9f47bb9c8da92f69bc8fd1415efc57431992e37",
        "scriptpubkey_type": "v1_p2tr",
        "scriptpubkey_address": "bc1p0mayxqd2d26aks0wry52narmh8yd4yhkn0y069q4alzhgvve9cms6gltva",
        "value": 2575
      },
      "scriptsig": "",
      "scriptsig_asm": "",
      "witness": [
        "9322456cd26c344dd5bb64756fad7c36e86a083e57e38ba420f3db3c646419afde8eca5df239fb0469a081ff0da8509656857762ee9887609c4d604f153ac68a",
        "20b6efb73a81afb39fe047966c3a160b9bd0a6aee4490c916bce06cb6f06b41ca0ac0063036f726401010a746578742f706c61696e00367b2270223a226272632d3230222c226f70223a226d696e74222c227469636b223a2261616161222c22616d74223a223130303030227d68",
        "c0b6efb73a81afb39fe047966c3a160b9bd0a6aee4490c916bce06cb6f06b41ca0"
      ],
      "is_coinbase": false,
      "sequence": 4261412863
    }
  ],
  "vout": [
    {
      "scriptpubkey": "0014ce0b5aa0dac72397a8aa5a85d90a2cfb46f0f630",
      "scriptpubkey_asm": "OP_0 OP_PUSHBYTES_20 ce0b5aa0dac72397a8aa5a85d90a2cfb46f0f630",
      "scriptpubkey_type": "v0_p2wpkh",
      "scriptpubkey_address": "bc1qec944gx6cu3e0292t2zajz3vldr0pa3sh356d9",
      "value": 546
    }
  ],
  "size": 295,
  "weight": 541,
  "fee": 2029,
  "status": {
    "confirmed": true,
    "block_height": 834464,
    "block_hash": "0000000000000000000177a0869a911a2b65c9bdcd5a8bcb02b68f305bee848e",
    "block_time": 1710308296
  },
  "hex": "02000000000101f42cf49d236b2de2cf1dfc5135b28c4e57df8eb857796b8ac204492a51b53bb13200000000fffffffd012202000000000000160014ce0b5aa0dac72397a8aa5a85d90a2cfb46f0f63003409322456cd26c344dd5bb64756fad7c36e86a083e57e38ba420f3db3c646419afde8eca5df239fb0469a081ff0da8509656857762ee9887609c4d604f153ac68a6e20b6efb73a81afb39fe047966c3a160b9bd0a6aee4490c916bce06cb6f06b41ca0ac0063036f726401010a746578742f706c61696e00367b2270223a226272632d3230222c226f70223a226d696e74222c227469636b223a2261616161222c22616d74223a223130303030227d6821c0b6efb73a81afb39fe047966c3a160b9bd0a6aee4490c916bce06cb6f06b41ca000000000"
}