{
  "txid": "e3c0fc5c04d6dd20a50e1ce0339296dff9d50c639e76e1fddd5adf002956b565",
  "version": 2,
  "locktime": 0,
  "vin": [
    {
      "txid": "de349c0fd76a6bde4fcdd3fb777eb59236ca33a42a4ab34a528a0cbdca55384d",
      "vout": 0,
      "prevout": {
        "scriptpubkey": "00144267e420bbd0a362af431714de234499bdfcbbb8",
        "scriptpubkey_asm": "OP_0 OP_PUSHBYTES_20 4267e420bbd0a362af431714de234499bdfcbbb8",
        "scriptpubkey_type": "v0_p2wpkh",
        "scriptpubkey_address": "bc1qgfn7gg9m6z3k9t6rzu2dug6ynx7lewacewsu2l",
        "value": 250380
      },
      "scriptsig": "",
      "scriptsig_asm": "",
      "witness": [
        "30440220425b3ded821993469228f93db5a38164eadc2c90d20579a750be4bf9e599852702200265e351e9b0fbb7acd0cf3a4b24a07cbf2a1d71422e6ad6914957573212483e01",
        "02e0758574a198d20ec299e318ac390a0eb90d8bdb8ee8388beaacde499c832867"
      ],
      "is_coinbase": false,
      "sequence": 4294967295
    }
  ],
  "vout": [
    {
      "scriptpubkey": "001424809bb776df23779d7a484d3a6052849bce902e",
      "scriptpubkey_asm": "OP_0 OP_PUSHBYTES_20 24809bb776df23779d7a484d3a6052849bce902e",
      "scriptpubkey_type": "v0_p2wpkh",
      "scriptpubkey_address": "bc1qyjqfhdmkmu3h08t6fpxn5czjsjduaypwwk25pw",
      "value": 249069
    }
  ],
  "size": 191,
  "weight": 437,
  "fee": 1311,
  "status": {
    "confirmed": true,
    "block_height": 834460,
    "block_hash": "00000000000000000000484a79b643b2524bbce82e5d8a442013fa5b8905ed98",
    "block_time": 1710307468
  },
  "hex": "020000000001014d3855cabd0c8a524ab34a2aa433ca3692b57e77fbd3cd4fde6b6ad70f9c34de0000000000ffffffff01edcc03000000000016001424809bb776df23779d7a484d3a6052849bce902e024730440220425b3ded821993469228f93db5a38164eadc2c90d20579a750be4bf9e599852702200265e351e9b0fbb7acd0cf3a4b24a07cbf2a1d71422e6ad6914957573212483e012102e0758574a198d20ec299e318ac390a0eb90d8bdb8ee8388beaacde499c83286700000000"
}