{
  "txid": "e3e3efe45babf86d2a23dc93592c1e707963c604615c3eb5b5e9cb7b6f13cca9",
  "version": 2,
  "locktime": 0,
  "vin": [
    {
      "txid": "16fd8522e6aa9171c97571b7f14cda309c75fc34293c2989da0634522d9dbc0e",
      "vout": 1,
      "prevout": {
        "scriptpubkey": "76a91490504e17325ff5d28087b8806469bd0bf138e4de88ac",
        "scriptpubkey_asm": "OP_DUP OP_HASH160 OP_PUSHBYTES_20 90504e17325ff5d28087b8806469bd0bf138e4de OP_EQUALVERIFY OP_CHECKSIG",
        "scriptpubkey_type": "p2pkh",
        "scriptpubkey_address": "1EA4WKJwpFhT3Q3YnSnmFwxrvrYn8PHz4Q",
        "value": 92197
      },
      "scriptsig": "47304402207847f282b1615ee7bdd9d801d6ed452992d7f1e5ac2087338ae9bab6801defbd022002bd8be48ebfffdd1e9ea434a64f6d2ff60825996ffc57b67203b2de56d509270121023c0987317d2b4a041d706d9a5acd70e99c0f4003915b4619d8ee1582da79aa8f",
      "scriptsig_asm": "OP_PUSHBYTES_71 304402207847f282b1615ee7bdd9d801d6ed452992d7f1e5ac2087338ae9bab6801defbd022002bd8be48ebfffdd1e9ea434a64f6d2ff60825996ffc57b67203b2de56d5092701 OP_PUSHBYTES_33 023c0987317d2b4a041d706d9a5acd70e99c0f4003915b4619d8ee1582da79aa8f",
      "is_coinbase": false,
      "sequence": 4294967293
    }
  ],
  "vout": [
    {
      "scriptpubkey": "a91462fe4706ebcc0f0385ed26298e692cff225974e487",
      "scriptpubkey_asm": "OP_HASH160 OP_PUSHBYTES_20 62fe4706ebcc0f0385ed26298e692cff225974e4 OP_EQUAL",
      "scriptpubkey_type": "p2sh",
      "scriptpubkey_address": "3AiSkrFpKMiM6eeNWPUT58pW9ZdkCs9XiP",
      "value": 2812
    },
    {
      "scriptpubkey": "76a91490504e17325ff5d28087b8806469bd0bf138e4de88ac",
      "scriptpubkey_asm": "OP_DUP OP_HASH160 OP_PUSHBYTES_20 90504e17325ff5d28087b8806469bd0bf138e4de OP_EQUALVERIFY OP_CHECKSIG",
      "scriptpubkey_type": "p2pkh",
      "scriptpubkey_address": "1EA4WKJwpFhT3Q3YnSnmFwxrvrYn8PHz4Q",
      "value": 63600
    }
  ],
  "size": 223,
  "weight": 892,
  "fee": 25785,
  "status": {
    "confirmed": true,
    "block_height": 834638,
    "block_hash": "000000000000000000025f742c626208ac87e0b7d15054abb4a19ca2d735a54e",
    "block_time": 1710405325
  },
  "hex": "02000000010ebc9d2d523406da89293c2934fc759c30da4cf1b77175c97191aae62285fd16010000006a47304402207847f282b1615ee7bdd9d801d6ed452992d7f1e5ac2087338ae9bab6801defbd022002bd8be48ebfffdd1e9ea434a64f6d2ff60825996ffc57b67203b2de56d509270121023c0987317d2b4a041d706d9a5acd70e99c0f4003915b4619d8ee1582da79aa8ffdffffff02fc0a00000000000017a91462fe4706ebcc0f0385ed26298e692cff225974e48770f80000000000001976a91490504e17325ff5d28087b8806469bd0bf138e4de88ac00000000"
}