{
  "txid": "e409e3d99ce2007ae1beb5621584caeaacf84d8388dd01ad0fe2b17524b79551",
  "version": 1,
  "locktime": 0,
  "vin": [
    {
      "txid": "e09e03d2f8c380440752d1241742ceb50d1987b8fd07722787307c5087f59ee8",
      "vout": 0,
      "prevout": {
        "scriptpubkey": "512073e52fea74dcf1057c4280a69c3a584b6bf7290c6b33aa3e18d11e275d166c84",
        "scriptpubkey_asm": "OP_PUSHNUM_1 OP_PUSHBYTES_32 73e52fea74dcf1057c4280a69c3a584b6bf7290c6b33aa3e18d11e275d166c84",
        "scriptpubkey_type": "v1_p2tr",
        "scriptpubkey_address": "bc1pw0jjl6n5mncs2lzzsznfcwjcfd4lw2gvdve650sc6y0zwhgkdjzqq7xwm7",
        "value": 2856
      },
      "scriptsig": "",
      "scriptsig_asm": "",
      "witness": [
        "0b81a209870f3e055bd35548c7d1bf2779e584835825916ef601d11662d2d7276199879bff44a268d75fba5c820c32a6d483ab335ffe10fb671f8a1f2b72dcc483",
        "20be11f1d0580232188e877ef283eb5a1efd4e9e5290a2633605d666f59ad3fff2ac00630461746f6d03646d742da16461726773a36b6d696e745f7469636b657264646f6765656e6f6e63651a0081b6066474696d651a65f1357a68",
        "c0be11f1d0580232188e877ef283eb5a1efd4e9e5290a2633605d666f59ad3fff2"
      ],
      "is_coinbase": false,
      "sequence": 4294967293
    }
  ],
  "vout": [
    {
      "scriptpubkey": "51208fe1767885d17c27b305545e70dcb21ed67996322ce6c15c4380a9ea247b0039",
      "scriptpubkey_asm": "OP_PUSHNUM_1 OP_PUSHBYTES_32 8fe1767885d17c27b305545e70dcb21ed67996322ce6c15c4380a9ea247b0039",
      "scriptpubkey_type": "v1_p2tr",
      "scriptpubkey_address": "bc1p3lshv7y9697z0vc92308ph9jrmt8n93j9nnvzhzrsz575frmqqus9g2c7p",
      "value": 1000
    }
  ],
  "size": 290,
  "weight": 572,
  "fee": 1856,
  "status": {
    "confirmed": true,
    "block_height": 834460,
    "block_hash": "00000000000000000000484a79b643b2524bbce82e5d8a442013fa5b8905ed98",
    "block_time": 1710307468
  },
  "hex": "01000000000101e89ef587507c3087277207fdb887190db5ce421724d152074480c3f8d2039ee00000000000fdffffff01e8030000000000002251208fe1767885d17c27b305545e70dcb21ed67996322ce6c15c4380a9ea247b003903410b81a209870f3e055bd35548c7d1bf2779e584835825916ef601d11662d2d7276199879bff44a268d75fba5c820c32a6d483ab335ffe10fb671f8a1f2b72dcc4835c20be11f1d0580232188e877ef283eb5a1efd4e9e5290a2633605d666f59ad3fff2ac00630461746f6d03646d742da16461726773a36b6d696e745f7469636b657264646f6765656e6f6e63651a0081b6066474696d651a65f1357a6821c0be11f1d0580232188e877ef283eb5a1efd4e9e5290a2633605d666f59ad3fff200000000"
}