{
  "txid": "e4177c52c8d3b74a0175d941604f5e63f4f086b54019efdd1e7d2d41acf7fd14",
  "version": 2,
  "locktime": 0,
  "vin": [
    {
      "txid": "acc3ba00869acb582a3f2904ce3a11dd3779350ce234063fc7d0959246213364",
      "vout": 145,
      "prevout": {
        "scriptpubkey": "512047a1dc591a04fc6e7e7ad5c0beb186a5c1f58ee28761fd02d04aff8865e262a2",
        "scriptpubkey_asm": "OP_PUSHNUM_1 OP_PUSHBYTES_32 47a1dc591a04fc6e7e7ad5c0beb186a5c1f58ee28761fd02d04aff8865e262a2",
        "scriptpubkey_type": "v1_p2tr",
        "scriptpubkey_address": "bc1pg7sackg6qn7xuln66hqtavvx5hqltrhzsasl6qksftlcse0zv23q33nsap",
        "value": 1806
      },
      "scriptsig": "",
      "scriptsig_asm": "",
      "witness": [
        "551ab1526be299090e57df6590490046b3509ffd088ab7ce1d4ad852e04aa2d3265e0b09f6ed80fdb1be1e74eb9ee672553b28eada693b1fcd5a3c8632523eb4",
        "201b22b4d665101eca8f89f9199654b74ed19586b4cba1428376af9d748db75b37ac0063036f726401010a746578742f706c61696e00357b2270223a226272632d3230222c226f70223a226d696e74222c227469636b223a22646f6765222c22616d74223a2234323030227d68",
        "c01b22b4d665101eca8f89f9199654b74ed19586b4cba1428376af9d748db75b37"
      ],
      "is_coinbase": false,
      "sequence": 4261412863
    }
  ],
  "vout": [
    {
      "scriptpubkey": "00147a665de7a370f4c9b372ab1fae587500a5bcbdb4",
      "scriptpubkey_asm": "OP_0 OP_PUSHBYTES_20 7a665de7a370f4c9b372ab1fae587500a5bcbdb4",
      "scriptpubkey_type": "v0_p2wpkh",
      "scriptpubkey_address": "bc1q0fn9mearwr6vnvmj4v06ukr4qzjme0d565dzcx",
      "value": 294
    }
  ],
  "size": 294,
  "weight": 540,
  "fee": 1512,
  "status": {
    "confirmed": true,
    "block_height": 834460,
    "block_hash": "00000000000000000000484a79b643b2524bbce82e5d8a442013fa5b8905ed98",
    "block_time": 1710307468
  },
  "hex": "02000000000101643321469295d0c73f0634e20c357937dd113ace04293f2a58cb9a8600bac3ac9100000000fffffffd0126010000000000001600147a665de7a370f4c9b372ab1fae587500a5bcbdb40340551ab1526be299090e57df6590490046b3509ffd088ab7ce1d4ad852e04aa2d3265e0b09f6ed80fdb1be1e74eb9ee672553b28eada693b1fcd5a3c8632523eb46d201b22b4d665101eca8f89f9199654b74ed19586b4cba1428376af9d748db75b37ac0063036f726401010a746578742f706c61696e00357b2270223a226272632d3230222c226f70223a226d696e74222c227469636b223a22646f6765222c22616d74223a2234323030227d6821c01b22b4d665101eca8f89f9199654b74ed19586b4cba1428376af9d748db75b3700000000"
}