{
  "txid": "e41855740cf3aa23299d8693f1117f7fa9fb469b482885f787d008e5469f0338",
  "version": 2,
  "locktime": 0,
  "vin": [
    {
      "txid": "f6a8a4df165dac7454821cc1ae1a7198244648401ab49192ccff9ccac47d5d3f",
      "vout": 36,
      "prevout": {
        "scriptpubkey": "00142a1b393fe80a23befc8706ea372041641add39db",
        "scriptpubkey_asm": "OP_0 OP_PUSHBYTES_20 2a1b393fe80a23befc8706ea372041641add39db",
        "scriptpubkey_type": "v0_p2wpkh",
        "scriptpubkey_address": "bc1q9gdnj0lgpg3maly8qm4rwgzpvsdd6wwm9aa653",
        "value": 76000
      },
      "scriptsig": "",
      "scriptsig_asm": "",
      "witness": [
        "304402201460f78065addbad429a4f5aaa94873cb034117e848efee686a90c6cc7fd993802205d634a896732b4b918e6a72a5aa6840760667034f4568cc1db8584dc68c7cd4601",
        "03e5c5a0ceba84a4c213d830c4fa0f472cb663bab1d2df0f452e13104e75b0fe00"
      ],
      "is_coinbase": false,
      "sequence": 4294967293
    }
  ],
  "vout": [
    {
      "scriptpubkey": "0014dc3db7317fbe2d9daaa07ac82a83a23769c26a3b",
      "scriptpubkey_asm": "OP_0 OP_PUSHBYTES_20 dc3db7317fbe2d9daaa07ac82a83a23769c26a3b",
      "scriptpubkey_type": "v0_p2wpkh",
      "scriptpubkey_address": "bc1qms7mwvtlhckem24q0tyz4qazxa5uy63mhpzv0x",
      "value": 8162
    },
    {
      "scriptpubkey": "00142a1b393fe80a23befc8706ea372041641add39db",
      "scriptpubkey_asm": "OP_0 OP_PUSHBYTES_20 2a1b393fe80a23befc8706ea372041641add39db",
      "scriptpubkey_type": "v0_p2wpkh",
      "scriptpubkey_address": "bc1q9gdnj0lgpg3maly8qm4rwgzpvsdd6wwm9aa653",
      "value": 66308
    }
  ],
  "size": 222,
  "weight": 561,
  "fee": 1530,
  "status": {
    "confirmed": true,
    "block_height": 834464,
    "block_hash": "0000000000000000000177a0869a911a2b65c9bdcd5a8bcb02b68f305bee848e",
    "block_time": 1710308296
  },
  "hex": "020000000001013f5d7dc4ca9cffcc9291b41a4048462498711aaec11c825474ac5d16dfa4a8f62400000000fdffffff02e21f000000000000160014dc3db7317fbe2d9daaa07ac82a83a23769c26a3b04030100000000001600142a1b393fe80a23befc8706ea372041641add39db0247304402201460f78065addbad429a4f5aaa94873cb034117e848efee686a90c6cc7fd993802205d634a896732b4b918e6a72a5aa6840760667034f4568cc1db8584dc68c7cd46012103e5c5a0ceba84a4c213d830c4fa0f472cb663bab1d2df0f452e13104e75b0fe0000000000"
}