{
  "txid": "e442b167157b5a028dee9b2fb427411f6d5fb185e956d16644f90a64f42d14a5",
  "version": 2,
  "locktime": 0,
  "vin": [
    {
      "txid": "32cb971a995a80e108eb6e99577a10e2cd6dc796bed60fb997f01521bbe855ba",
      "vout": 24,
      "prevout": {
        "scriptpubkey": "76a914bcf300aed50a830e37c7fa3a45925b63be8b7aff88ac",
        "scriptpubkey_asm": "OP_DUP OP_HASH160 OP_PUSHBYTES_20 bcf300aed50a830e37c7fa3a45925b63be8b7aff OP_EQUALVERIFY OP_CHECKSIG",
        "scriptpubkey_type": "p2pkh",
        "scriptpubkey_address": "1JE59BkveKFHT81zK3EynPnrCzFkF4ka2e",
        "value": 3970046
      },
      "scriptsig": "483045022100a7ef98e9443a52af83b6ae4c112e88feeb3d8765a6132c7d2e8293ae9507772502202405974d10de0d56e815a798c91d1293e6e310b2a1ca1bae8df9adb672ad0aad0121029ba1c7b3a825659179fbda4699ce1a6f825a77255f8efd6b50514671f9fbd2d1",
      "scriptsig_asm": "OP_PUSHBYTES_72 3045022100a7ef98e9443a52af83b6ae4c112e88feeb3d8765a6132c7d2e8293ae9507772502202405974d10de0d56e815a798c91d1293e6e310b2a1ca1bae8df9adb672ad0aad01 OP_PUSHBYTES_33 029ba1c7b3a825659179fbda4699ce1a6f825a77255f8efd6b50514671f9fbd2d1",
      "is_coinbase": false,
      "sequence": 4294967293
    },
    {
      "txid": "d063d469be14f803df1b51de4349cbe8a18e69ebf9557a677395b4ce985af885",
      "vout": 5,
      "prevout": {
        "scriptpubkey": "76a914bcf300aed50a830e37c7fa3a45925b63be8b7aff88ac",
        "scriptpubkey_asm": "OP_DUP OP_HASH160 OP_PUSHBYTES_20 bcf300aed50a830e37c7fa3a45925b63be8b7aff OP_EQUALVERIFY OP_CHECKSIG",
        "scriptpubkey_type": "p2pkh",
        "scriptpubkey_address": "1JE59BkveKFHT81zK3EynPnrCzFkF4ka2e",
        "value": 1004737
      },
      "scriptsig": "473044022001208ba011536ffac4b9ed9d15ae6b486f13d2a2eaa6c7542de89ebab380aa560220129953eb6d14ea6d7535471e59c6a39e6e4f17e746f098435f680a83ce1315ae0121029ba1c7b3a825659179fbda4699ce1a6f825a77255f8efd6b50514671f9fbd2d1",
      "scriptsig_asm": "OP_PUSHBYTES_71 3044022001208ba011536ffac4b9ed9d15ae6b486f13d2a2eaa6c7542de89ebab380aa560220129953eb6d14ea6d7535471e59c6a39e6e4f17e746f098435f680a83ce1315ae01 OP_PUSHBYTES_33 029ba1c7b3a825659179fbda4699ce1a6f825a77255f8efd6b50514671f9fbd2d1",
      "is_coinbase": false,
      "sequence": 4294967293
    }
  ],
  "vout": [
    {
      "scriptpubkey": "76a9140f792b66e28aeff979106e6dd48473d1563b9f4b88ac",
      "scriptpubkey_asm": "OP_DUP OP_HASH160 OP_PUSHBYTES_20 0f792b66e28aeff979106e6dd48473d1563b9f4b OP_EQUALVERIFY OP_CHECKSIG",
      "scriptpubkey_type": "p2pkh",
      "scriptpubkey_address": "12QpHtJnSp9c9ZJVY49jWPMifV6vzpyEEu",
      "value": 500000
    },
    {
      "scriptpubkey": "76a914bcf300aed50a830e37c7fa3a45925b63be8b7aff88ac",
      "scriptpubkey_asm": "OP_DUP OP_HASH160 OP_PUSHBYTES_20 bcf300aed50a830e37c7fa3a45925b63be8b7aff OP_EQUALVERIFY OP_CHECKSIG",
      "scriptpubkey_type": "p2pkh",
      "scriptpubkey_address": "1JE59BkveKFHT81zK3EynPnrCzFkF4ka2e",
      "value": 4470727
    }
  ],
  "size": 373,
  "weight": 1492,
  "fee": 4056,
  "status": {
    "confirmed": true,
    "block_height": 834464,
    "block_hash": "0000000000000000000177a0869a911a2b65c9bdcd5a8bcb02b68f305bee848e",
    "block_time": 1710308296
  },
  "hex": "0200000002ba55e8bb2115f097b90fd6be96c76dcde2107a57996eeb08e1805a991a97cb32180000006b483045022100a7ef98e9443a52af83b6ae4c112e88feeb3d8765a6132c7d2e8293ae9507772502202405974d10de0d56e815a798c91d1293e6e310b2a1ca1bae8df9adb672ad0aad0121029ba1c7b3a825659179fbda4699ce1a6f825a77255f8efd6b50514671f9fbd2d1fdffffff85f85a98ceb49573677a55f9eb698ea1e8cb4943de511bdf03f814be69d463d0050000006a473044022001208ba011536ffac4b9ed9d15ae6b486f13d2a2eaa6c7542de89ebab380aa560220129953eb6d14ea6d7535471e59c6a39e6e4f17e746f098435f680a83ce1315ae0121029ba1c7b3a825659179fbda4699ce1a6f825a77255f8efd6b50514671f9fbd2d1fdffffff0220a10700000000001976a9140f792b66e28aeff979106e6dd48473d1563b9f4b88acc7374400000000001976a914bcf300aed50a830e37c7fa3a45925b63be8b7aff88ac00000000"
}