{
  "txid": "e4446d9caa9e7af06db07bf83e81b96c8e783c48d0653664f47043e0387c8be2",
  "version": 1,
  "locktime": 0,
  "vin": [
    {
      "txid": "022e724f35d7b11944d902ece10fdea9cc67ef9bf24721e8c3691c5f4a2c0505",
      "vout": 1,
      "prevout": {
        "scriptpubkey": "0014e6ce5b622a282af6ab47956af3cffaa83fba99d5",
        "scriptpubkey_asm": "OP_0 OP_PUSHBYTES_20 e6ce5b622a282af6ab47956af3cffaa83fba99d5",
        "scriptpubkey_type": "v0_p2wpkh",
        "scriptpubkey_address": "bc1qum89kc329q40d268j4408nl64qlm4xw4a88lpz",
        "value": 4084259
      },
      "scriptsig": "",
      "scriptsig_asm": "",
      "witness": [
        "3045022100b21bc7107efd6ee766e97521a85e6cf2725ee3946fd1c321d8d5ff51f5bf7aa70220544ff1ebed2a8c2578c60feb9c4c40f30ceb0f14c4a8fd0ea3ed65e165b3222b01",
        "031a626d835f1a72cf740bcc6d7f71fa2b90478d08845213ec5800fa38192651a4"
      ],
      "is_coinbase": false,
      "sequence": 4294967295
    }
  ],
  "vout": [
    {
      "scriptpubkey": "a9143f146fae673ce7340081749af78efe1ca6ed813787",
      "scriptpubkey_asm": "OP_HASH160 OP_PUSHBYTES_20 3f146fae673ce7340081749af78efe1ca6ed8137 OP_EQUAL",
      "scriptpubkey_type": "p2sh",
      "scriptpubkey_address": "37SYyZimNo3ftydYbiFUWbLJq9f43U1uF5",
      "value": 681676
    },
    {
      "scriptpubkey": "0014e6ce5b622a282af6ab47956af3cffaa83fba99d5",
      "scriptpubkey_asm": "OP_0 OP_PUSHBYTES_20 e6ce5b622a282af6ab47956af3cffaa83fba99d5",
      "scriptpubkey_type": "v0_p2wpkh",
      "scriptpubkey_address": "bc1qum89kc329q40d268j4408nl64qlm4xw4a88lpz",
      "value": 3398749
    }
  ],
  "size": 224,
  "weight": 566,
  "fee": 3834,
  "status": {
    "confirmed": true,
    "block_height": 834638,
    "block_hash": "000000000000000000025f742c626208ac87e0b7d15054abb4a19ca2d735a54e",
    "block_time": 1710405325
  },
  "hex": "0100000000010105052c4a5f1c69c3e82147f29bef67cca9de0fe1ec02d94419b1d7354f722e020100000000ffffffff02cc660a000000000017a9143f146fae673ce7340081749af78efe1ca6ed8137875ddc330000000000160014e6ce5b622a282af6ab47956af3cffaa83fba99d502483045022100b21bc7107efd6ee766e97521a85e6cf2725ee3946fd1c321d8d5ff51f5bf7aa70220544ff1ebed2a8c2578c60feb9c4c40f30ceb0f14c4a8fd0ea3ed65e165b3222b0121031a626d835f1a72cf740bcc6d7f71fa2b90478d08845213ec5800fa38192651a400000000"
}