{
  "txid": "e44ba2671ef3ecc2237df2f7e6be07e85da67596717204e8a86a1bc0683f9b4b",
  "version": 2,
  "locktime": 0,
  "vin": [
    {
      "txid": "476f4b2dc266902500d8fb66e43d5312d2f1b49ecc39f4db6264b36bd0ef445d",
      "vout": 1,
      "prevout": {
        "scriptpubkey": "a91427314e09dd3f8adb282113d1610c9d49d68a217e87",
        "scriptpubkey_asm": "OP_HASH160 OP_PUSHBYTES_20 27314e09dd3f8adb282113d1610c9d49d68a217e OP_EQUAL",
        "scriptpubkey_type": "p2sh",
        "scriptpubkey_address": "35GFLnW9XykT6Fmy91pHGi8sZZCZf62Xnx",
        "value": 215678
      },
      "scriptsig": "160014b98a5a0f86c6dba93e3c7286ae1608b695cb31de",
      "scriptsig_asm": "OP_PUSHBYTES_22 0014b98a5a0f86c6dba93e3c7286ae1608b695cb31de",
      "witness": [
        "3045022100e14f03a5461ba3180ff549bf54fde9ccd82c0b83c8c088bba6e6670b96b5119502202de3949a0950e6c0c8536c206c5bbb19fdebd3fcb7bd83a6fc027cf2d921ff5701",
        "038c3ae7c1ea8d59a58caedbf6452563dde4921830972abaf4ddb6319ad00dd618"
      ],
      "is_coinbase": false,
      "sequence": 4294967295,
      "inner_redeemscript_asm": "OP_0 OP_PUSHBYTES_20 b98a5a0f86c6dba93e3c7286ae1608b695cb31de"
    }
  ],
  "vout": [
    {
      "scriptpubkey": "76a914f61fdf427203052e073f5afc8e1bdc8ed092d91788ac",
      "scriptpubkey_asm": "OP_DUP OP_HASH160 OP_PUSHBYTES_20 f61fdf427203052e073f5afc8e1bdc8ed092d917 OP_EQUALVERIFY OP_CHECKSIG",
      "scriptpubkey_type": "p2pkh",
      "scriptpubkey_address": "1PSPQhnNrCqMR9eWSh8csrE929Yo7sQeLB",
      "value": 213213
    }
  ],
  "size": 218,
  "weight": 542,
  "fee": 2465,
  "status": {
    "confirmed": true,
    "block_height": 834638,
    "block_hash": "000000000000000000025f742c626208ac87e0b7d15054abb4a19ca2d735a54e",
    "block_time": 1710405325
  },
  "hex": "020000000001015d44efd06bb36462dbf439cc9eb4f1d212533de466fbd800259066c22d4b6f470100000017160014b98a5a0f86c6dba93e3c7286ae1608b695cb31deffffffff01dd400300000000001976a914f61fdf427203052e073f5afc8e1bdc8ed092d91788ac02483045022100e14f03a5461ba3180ff549bf54fde9ccd82c0b83c8c088bba6e6670b96b5119502202de3949a0950e6c0c8536c206c5bbb19fdebd3fcb7bd83a6fc027cf2d921ff570121038c3ae7c1ea8d59a58caedbf6452563dde4921830972abaf4ddb6319ad00dd61800000000"
}