{
  "txid": "e456805a23d26556943cfeee6e4e579144ed0213e3c8fe6b7c65d4be9fd26811",
  "version": 2,
  "locktime": 0,
  "vin": [
    {
      "txid": "7d944ac50a9be29c235c16cd6e5c4b6e647a1518e177a21314b9b526c4600041",
      "vout": 0,
      "prevout": {
        "scriptpubkey": "001425ee14df03a8fd2b20a2c43189e4c31dc62960c1",
        "scriptpubkey_asm": "OP_0 OP_PUSHBYTES_20 25ee14df03a8fd2b20a2c43189e4c31dc62960c1",
        "scriptpubkey_type": "v0_p2wpkh",
        "scriptpubkey_address": "bc1qyhhpfhcr4r7jkg9zcsccnexrrhrzjcxp3nyfwu",
        "value": 404809
      },
      "scriptsig": "",
      "scriptsig_asm": "",
      "witness": [
        "30440220388d1f7b7826ef36c6bc486b72955f3af1b6328ccb5794e124f0110533a150b5022027d0696f2263388420ff79fb430a674479a7510927e8dadf1e9b2473754d27d901",
        "025d15e68bc9e8bb5847e8495ff90db23243c229cd92a206b554d345aa544be905"
      ],
      "is_coinbase": false,
      "sequence": 4294967293
    }
  ],
  "vout": [
    {
      "scriptpubkey": "0014cca4a225b2ebd0e679784fcf3e90753b4efbc76a",
      "scriptpubkey_asm": "OP_0 OP_PUSHBYTES_20 cca4a225b2ebd0e679784fcf3e90753b4efbc76a",
      "scriptpubkey_type": "v0_p2wpkh",
      "scriptpubkey_address": "bc1qejj2yfdja0gwv7tcfl8nayr48d80h3m2g05mdl",
      "value": 6052
    },
    {
      "scriptpubkey": "00149a64f043c52cf8cace5ba802c485f91dbda4013d",
      "scriptpubkey_asm": "OP_0 OP_PUSHBYTES_20 9a64f043c52cf8cace5ba802c485f91dbda4013d",
      "scriptpubkey_type": "v0_p2wpkh",
      "scriptpubkey_address": "bc1qnfj0qs799nuv4njm4qpvfp0erk76gqfa64kyql",
      "value": 5032
    },
    {
      "scriptpubkey": "0014658982102ddb303253f442eb41253e162e9200b9",
      "scriptpubkey_asm": "OP_0 OP_PUSHBYTES_20 658982102ddb303253f442eb41253e162e9200b9",
      "scriptpubkey_type": "v0_p2wpkh",
      "scriptpubkey_address": "bc1qvkycyypdmvcry5l5gt45zff7zchfyq9ezjkl3s",
      "value": 391827
    }
  ],
  "size": 253,
  "weight": 685,
  "fee": 1898,
  "status": {
    "confirmed": true,
    "block_height": 834460,
    "block_hash": "00000000000000000000484a79b643b2524bbce82e5d8a442013fa5b8905ed98",
    "block_time": 1710307468
  },
  "hex": "02000000000101410060c426b5b91413a277e118157a646e4b5c6ecd165c239ce29b0ac54a947d0000000000fdffffff03a417000000000000160014cca4a225b2ebd0e679784fcf3e90753b4efbc76aa8130000000000001600149a64f043c52cf8cace5ba802c485f91dbda4013d93fa050000000000160014658982102ddb303253f442eb41253e162e9200b9024730440220388d1f7b7826ef36c6bc486b72955f3af1b6328ccb5794e124f0110533a150b5022027d0696f2263388420ff79fb430a674479a7510927e8dadf1e9b2473754d27d90121025d15e68bc9e8bb5847e8495ff90db23243c229cd92a206b554d345aa544be90500000000"
}