{
  "txid": "e46899cd78a3adfcb03bca7f51d588b55c08066f18e0a0a0d462d73afb58b0e9",
  "version": 2,
  "locktime": 834550,
  "vin": [
    {
      "txid": "1ecef506a4b8fe067743999410a38e81ba8a74079a99d4464f73b1779ba26e26",
      "vout": 0,
      "prevout": {
        "scriptpubkey": "76a91474b26846810a8273fedf1147646cf3d9dbbbb83588ac",
        "scriptpubkey_asm": "OP_DUP OP_HASH160 OP_PUSHBYTES_20 74b26846810a8273fedf1147646cf3d9dbbbb835 OP_EQUALVERIFY OP_CHECKSIG",
        "scriptpubkey_type": "p2pkh",
        "scriptpubkey_address": "1Be37DDbgPU3HukktpQ8sqadKExNzCV2JJ",
        "value": 31074
      },
      "scriptsig": "4730440220550ea7573b219eae8d222ec42648c1349e5a91aa63dc7dc12d41eb0e6fcbdfe8022004823c42cc491139645743c6491151e3e35047080850567315b66abf43720a54012103c2a0020ab6a45d6513d68cea6b7dc1e8c150ad53621a04b71499260f262a8390",
      "scriptsig_asm": "OP_PUSHBYTES_71 30440220550ea7573b219eae8d222ec42648c1349e5a91aa63dc7dc12d41eb0e6fcbdfe8022004823c42cc491139645743c6491151e3e35047080850567315b66abf43720a5401 OP_PUSHBYTES_33 03c2a0020ab6a45d6513d68cea6b7dc1e8c150ad53621a04b71499260f262a8390",
      "is_coinbase": false,
      "sequence": 4294967293
    }
  ],
  "vout": [
    {
      "scriptpubkey": "00142dbb87b4c9d1029ec80ee5b8a5209f69dcfbbbe2",
      "scriptpubkey_asm": "OP_0 OP_PUSHBYTES_20 2dbb87b4c9d1029ec80ee5b8a5209f69dcfbbbe2",
      "scriptpubkey_type": "v0_p2wpkh",
      "scriptpubkey_address": "bc1q9kac0dxf6ypfajqwuku22gyld8w0hwlzn3y5uw",
      "value": 7000
    },
    {
      "scriptpubkey": "76a91474b26846810a8273fedf1147646cf3d9dbbbb83588ac",
      "scriptpubkey_asm": "OP_DUP OP_HASH160 OP_PUSHBYTES_20 74b26846810a8273fedf1147646cf3d9dbbbb835 OP_EQUALVERIFY OP_CHECKSIG",
      "scriptpubkey_type": "p2pkh",
      "scriptpubkey_address": "1Be37DDbgPU3HukktpQ8sqadKExNzCV2JJ",
      "value": 20700
    }
  ],
  "size": 222,
  "weight": 888,
  "fee": 3374,
  "status": {
    "confirmed": true,
    "block_height": 834552,
    "block_hash": "00000000000000000001dd0468a70c94f619251d286585cff57aeb4bd9ede330",
    "block_time": 1710355598
  },
  "hex": "0200000001266ea29b77b1734f46d4999a07748aba818ea3109499437706feb8a406f5ce1e000000006a4730440220550ea7573b219eae8d222ec42648c1349e5a91aa63dc7dc12d41eb0e6fcbdfe8022004823c42cc491139645743c6491151e3e35047080850567315b66abf43720a54012103c2a0020ab6a45d6513d68cea6b7dc1e8c150ad53621a04b71499260f262a8390fdffffff02581b0000000000001600142dbb87b4c9d1029ec80ee5b8a5209f69dcfbbbe2dc500000000000001976a91474b26846810a8273fedf1147646cf3d9dbbbb83588acf6bb0c00"
}