{
  "txid": "e475b8b813803365d0434f1cce9de3b9606435b1b766d78612cbf218249a82b9",
  "version": 2,
  "locktime": 0,
  "vin": [
    {
      "txid": "addece2b7148f3eec5501d217eaecc1bedcc92cc8daa762e6ea22a55296ce5f0",
      "vout": 3,
      "prevout": {
        "scriptpubkey": "512024d3ace42131f3728cfed65e06a2288fafc3e472ea1772029bb3d9ff02068f85",
        "scriptpubkey_asm": "OP_PUSHNUM_1 OP_PUSHBYTES_32 24d3ace42131f3728cfed65e06a2288fafc3e472ea1772029bb3d9ff02068f85",
        "scriptpubkey_type": "v1_p2tr",
        "scriptpubkey_address": "bc1pynf6eeppx8eh9r876e0qdg3g37hu8erjagthyq5mk0vl7qsx37zsvyn5q4",
        "value": 3186
      },
      "scriptsig": "",
      "scriptsig_asm": "",
      "witness": [
        "ccb4d368745d0413815657e1427927626b041e61acab21e1f518dd171fb2c35abbd5177c302ce57493d649e039a811e526915d85917054287ce9b09cbee50a3c",
        "20611d65967f2d47ad15474f2b09db31c59bbc448fc90e8ec63b164753b266d118ac0063036f726401011e6170706c69636174696f6e2f6a736f6e3b636861727365743d7574662d38004cbf7b2270223a22706f772d3230222c226f70223a226d696e74222c227469636b223a2250455045222c22616d74223a2231303030222c22736f6c7574696f6e223a22504550453a6263317175723539363576617439393072726574303464657977386b6661743337756a676636737872303a303030303030303030303030303030303030303139393431613561653132383937363539383134343239323533333030353762306461393666336465613163353a3339373634303531313034227d68",
        "c1e183e6acc47e68e82f80645eb93989e5b065f5d320bfc36879234135be4580e3"
      ],
      "is_coinbase": false,
      "sequence": 4294967295
    }
  ],
  "vout": [
    {
      "scriptpubkey": "0014e0e85d519d594af18f2b7d5b9238f64f571f7248",
      "scriptpubkey_asm": "OP_0 OP_PUSHBYTES_20 e0e85d519d594af18f2b7d5b9238f64f571f7248",
      "scriptpubkey_type": "v0_p2wpkh",
      "scriptpubkey_address": "bc1qur5965vat990rret04deyw8kfat37ujgf6sxr0",
      "value": 546
    }
  ],
  "size": 455,
  "weight": 701,
  "fee": 2640,
  "status": {
    "confirmed": true,
    "block_height": 834460,
    "block_hash": "00000000000000000000484a79b643b2524bbce82e5d8a442013fa5b8905ed98",
    "block_time": 1710307468
  },
  "hex": "02000000000101f0e56c29552aa26e2e76aa8dcc92cced1bccae7e211d50c5eef348712bcedead0300000000ffffffff012202000000000000160014e0e85d519d594af18f2b7d5b9238f64f571f72480340ccb4d368745d0413815657e1427927626b041e61acab21e1f518dd171fb2c35abbd5177c302ce57493d649e039a811e526915d85917054287ce9b09cbee50a3cfd0c0120611d65967f2d47ad15474f2b09db31c59bbc448fc90e8ec63b164753b266d118ac0063036f726401011e6170706c69636174696f6e2f6a736f6e3b636861727365743d7574662d38004cbf7b2270223a22706f772d3230222c226f70223a226d696e74222c227469636b223a2250455045222c22616d74223a2231303030222c22736f6c7574696f6e223a22504550453a6263317175723539363576617439393072726574303464657977386b6661743337756a676636737872303a303030303030303030303030303030303030303139393431613561653132383937363539383134343239323533333030353762306461393666336465613163353a3339373634303531313034227d6821c1e183e6acc47e68e82f80645eb93989e5b065f5d320bfc36879234135be4580e300000000"
}