{
  "txid": "e4879a2d1430baf8bea6f80e62fb48d7b9eec09e583c72a3bf7a5876e450d787",
  "version": 2,
  "locktime": 0,
  "vin": [
    {
      "txid": "f152544dfd2b23a1bd57d6a1db0d0f6b396b5ab80e50dd5b1a63da97b3efda12",
      "vout": 24,
      "prevout": {
        "scriptpubkey": "512093490c6ee6605983228bf3380709cd165911f6b3e65cc551ce13428f1a643caf",
        "scriptpubkey_asm": "OP_PUSHNUM_1 OP_PUSHBYTES_32 93490c6ee6605983228bf3380709cd165911f6b3e65cc551ce13428f1a643caf",
        "scriptpubkey_type": "v1_p2tr",
        "scriptpubkey_address": "bc1pjdyscmhxvpvcxg5t7vuqwzwdzev3ra4nuewv25wwzdpg7xny8jhsn720pk",
        "value": 146970
      },
      "scriptsig": "",
      "scriptsig_asm": "",
      "witness": [
        "8a0a452f42eaab358dc1f060052fabe5b751b70d14efa94b5202784d7f5537c06776d9500172dffe2af3d90fab21e4acfe7faaa79c1c5c6ca39bd37152bbf4d8"
      ],
      "is_coinbase": false,
      "sequence": 4294967295
    },
    {
      "txid": "f152544dfd2b23a1bd57d6a1db0d0f6b396b5ab80e50dd5b1a63da97b3efda12",
      "vout": 0,
      "prevout": {
        "scriptpubkey": "512093490c6ee6605983228bf3380709cd165911f6b3e65cc551ce13428f1a643caf",
        "scriptpubkey_asm": "OP_PUSHNUM_1 OP_PUSHBYTES_32 93490c6ee6605983228bf3380709cd165911f6b3e65cc551ce13428f1a643caf",
        "scriptpubkey_type": "v1_p2tr",
        "scriptpubkey_address": "bc1pjdyscmhxvpvcxg5t7vuqwzwdzev3ra4nuewv25wwzdpg7xny8jhsn720pk",
        "value": 4800
      },
      "scriptsig": "",
      "scriptsig_asm": "",
      "witness": [
        "efbf3ef3475bb7821cf38b59680fed79f9cc67e494cb459ebde9454fdfccb2a22f41744c6aee5762cb433852e0329ca42b85f10d671b148c270f66b99c4d4203"
      ],
      "is_coinbase": false,
      "sequence": 4294967295
    },
    {
      "txid": "f152544dfd2b23a1bd57d6a1db0d0f6b396b5ab80e50dd5b1a63da97b3efda12",
      "vout": 23,
      "prevout": {
        "scriptpubkey": "512093490c6ee6605983228bf3380709cd165911f6b3e65cc551ce13428f1a643caf",
        "scriptpubkey_asm": "OP_PUSHNUM_1 OP_PUSHBYTES_32 93490c6ee6605983228bf3380709cd165911f6b3e65cc551ce13428f1a643caf",
        "scriptpubkey_type": "v1_p2tr",
        "scriptpubkey_address": "bc1pjdyscmhxvpvcxg5t7vuqwzwdzev3ra4nuewv25wwzdpg7xny8jhsn720pk",
        "value": 600
      },
      "scriptsig": "",
      "scriptsig_asm": "",
      "witness": [
        "833c9743c31080e9ad311f3546e607ebb96753833d56b79bcae82008915d4969c13a052ee632040b65a20b8b3992f62834552b417c053392a00ff4231e35ed8f"
      ],
      "is_coinbase": false,
      "sequence": 4294967295
    },
    {
      "txid": "f152544dfd2b23a1bd57d6a1db0d0f6b396b5ab80e50dd5b1a63da97b3efda12",
      "vout": 22,
      "prevout": {
        "scriptpubkey": "512093490c6ee6605983228bf3380709cd165911f6b3e65cc551ce13428f1a643caf",
        "scriptpubkey_asm": "OP_PUSHNUM_1 OP_PUSHBYTES_32 93490c6ee6605983228bf3380709cd165911f6b3e65cc551ce13428f1a643caf",
        "scriptpubkey_type": "v1_p2tr",
        "scriptpubkey_address": "bc1pjdyscmhxvpvcxg5t7vuqwzwdzev3ra4nuewv25wwzdpg7xny8jhsn720pk",
        "value": 600
      },
      "scriptsig": "",
      "scriptsig_asm": "",
      "witness": [
        "7d7a8e739f20d9de0d19a7910a2e8afe40b69fc7fd37ece9363fccd0de0ffa6056233d826997cd08a6064116274659bf85a226393cb595f6488dae7e03e1befe"
      ],
      "is_coinbase": false,
      "sequence": 4294967295
    },
    {
      "txid": "f152544dfd2b23a1bd57d6a1db0d0f6b396b5ab80e50dd5b1a63da97b3efda12",
      "vout": 21,
      "prevout": {
        "scriptpubkey": "512093490c6ee6605983228bf3380709cd165911f6b3e65cc551ce13428f1a643caf",
        "scriptpubkey_asm": "OP_PUSHNUM_1 OP_PUSHBYTES_32 93490c6ee6605983228bf3380709cd165911f6b3e65cc551ce13428f1a643caf",
        "scriptpubkey_type": "v1_p2tr",
        "scriptpubkey_address": "bc1pjdyscmhxvpvcxg5t7vuqwzwdzev3ra4nuewv25wwzdpg7xny8jhsn720pk",
        "value": 600
      },
      "scriptsig": "",
      "scriptsig_asm": "",
      "witness": [
        "9c8f58d71e0b01e39a153d07b4341ca0ba14615f2ea76f069834fbb9d87f990cd931dc88a055d854a1cdc634823c892cb3f185e1e907deb0942d4a86636e03c2"
      ],
      "is_coinbase": false,
      "sequence": 4294967295
    },
    {
      "txid": "f152544dfd2b23a1bd57d6a1db0d0f6b396b5ab80e50dd5b1a63da97b3efda12",
      "vout": 20,
      "prevout": {
        "scriptpubkey": "512093490c6ee6605983228bf3380709cd165911f6b3e65cc551ce13428f1a643caf",
        "scriptpubkey_asm": "OP_PUSHNUM_1 OP_PUSHBYTES_32 93490c6ee6605983228bf3380709cd165911f6b3e65cc551ce13428f1a643caf",
        "scriptpubkey_type": "v1_p2tr",
        "scriptpubkey_address": "bc1pjdyscmhxvpvcxg5t7vuqwzwdzev3ra4nuewv25wwzdpg7xny8jhsn720pk",
        "value": 600
      },
      "scriptsig": "",
      "scriptsig_asm": "",
      "witness": [
        "29a7d1be385db929d2449191fea3bc6ba0e60121840a878d1f1ec205345cfd64fb11593408ed8722a7a8c651dba206a8e9f7b1740fb6f113448ea1adc4014dcd"
      ],
      "is_coinbase": false,
      "sequence": 4294967295
    },
    {
      "txid": "f152544dfd2b23a1bd57d6a1db0d0f6b396b5ab80e50dd5b1a63da97b3efda12",
      "vout": 19,
      "prevout": {
        "scriptpubkey": "512093490c6ee6605983228bf3380709cd165911f6b3e65cc551ce13428f1a643caf",
        "scriptpubkey_asm": "OP_PUSHNUM_1 OP_PUSHBYTES_32 93490c6ee6605983228bf3380709cd165911f6b3e65cc551ce13428f1a643caf",
        "scriptpubkey_type": "v1_p2tr",
        "scriptpubkey_address": "bc1pjdyscmhxvpvcxg5t7vuqwzwdzev3ra4nuewv25wwzdpg7xny8jhsn720pk",
        "value": 600
      },
      "scriptsig": "",
      "scriptsig_asm": "",
      "witness": [
        "0d762b2bd00bd5bd084deef8624ea570a33679398b7d5169ea503e8b4c18d0dff984eecb5e4c3419efc1100b9011ccece07ea8a48a3972d54133eacec88ea709"
      ],
      "is_coinbase": false,
      "sequence": 4294967295
    },
    {
      "txid": "f152544dfd2b23a1bd57d6a1db0d0f6b396b5ab80e50dd5b1a63da97b3efda12",
      "vout": 18,
      "prevout": {
        "scriptpubkey": "512093490c6ee6605983228bf3380709cd165911f6b3e65cc551ce13428f1a643caf",
        "scriptpubkey_asm": "OP_PUSHNUM_1 OP_PUSHBYTES_32 93490c6ee6605983228bf3380709cd165911f6b3e65cc551ce13428f1a643caf",
        "scriptpubkey_type": "v1_p2tr",
        "scriptpubkey_address": "bc1pjdyscmhxvpvcxg5t7vuqwzwdzev3ra4nuewv25wwzdpg7xny8jhsn720pk",
        "value": 600
      },
      "scriptsig": "",
      "scriptsig_asm": "",
      "witness": [
        "9ddd989c7e4076a7c446683db43d6fcf57c5773bd5b587f567eb8e36079b82101547212a41fe4909ba81d5c74d5c7778cc7e4101305fa96570f6f8ca92ea659e"
      ],
      "is_coinbase": false,
      "sequence": 4294967295
    },
    {
      "txid": "f152544dfd2b23a1bd57d6a1db0d0f6b396b5ab80e50dd5b1a63da97b3efda12",
      "vout": 17,
      "prevout": {
        "scriptpubkey": "512093490c6ee6605983228bf3380709cd165911f6b3e65cc551ce13428f1a643caf",
        "scriptpubkey_asm": "OP_PUSHNUM_1 OP_PUSHBYTES_32 93490c6ee6605983228bf3380709cd165911f6b3e65cc551ce13428f1a643caf",
        "scriptpubkey_type": "v1_p2tr",
        "scriptpubkey_address": "bc1pjdyscmhxvpvcxg5t7vuqwzwdzev3ra4nuewv25wwzdpg7xny8jhsn720pk",
        "value": 600
      },
      "scriptsig": "",
      "scriptsig_asm": "",
      "witness": [
        "b1a9bb373ac8bd7c28dadb63d3bf895685baa5261048a9ee2d86edd03b697a60a382727b6a24e87b3e4a4a56c403ae1540ebddbae7aa6405c4d9976f6c7296f5"
      ],
      "is_coinbase": false,
      "sequence": 4294967295
    },
    {
      "txid": "f152544dfd2b23a1bd57d6a1db0d0f6b396b5ab80e50dd5b1a63da97b3efda12",
      "vout": 16,
      "prevout": {
        "scriptpubkey": "512093490c6ee6605983228bf3380709cd165911f6b3e65cc551ce13428f1a643caf",
        "scriptpubkey_asm": "OP_PUSHNUM_1 OP_PUSHBYTES_32 93490c6ee6605983228bf3380709cd165911f6b3e65cc551ce13428f1a643caf",
        "scriptpubkey_type": "v1_p2tr",
        "scriptpubkey_address": "bc1pjdyscmhxvpvcxg5t7vuqwzwdzev3ra4nuewv25wwzdpg7xny8jhsn720pk",
        "value": 600
      },
      "scriptsig": "",
      "scriptsig_asm": "",
      "witness": [
        "9939ed9da552d1967d8305e37275754ee08f0442b3321646f2eb90291eee9cd593421bf274497d4e7854d806bb8cc53d0d0f33eccc5438ef6c9b9c00b1c2f4b5"
      ],
      "is_coinbase": false,
      "sequence": 4294967295
    },
    {
      "txid": "1e83e5741f0333256ceae4500806b542e5818f4068866f15d0ff6fbaf7b95953",
      "vout": 9,
      "prevout": {
        "scriptpubkey": "512093490c6ee6605983228bf3380709cd165911f6b3e65cc551ce13428f1a643caf",
        "scriptpubkey_asm": "OP_PUSHNUM_1 OP_PUSHBYTES_32 93490c6ee6605983228bf3380709cd165911f6b3e65cc551ce13428f1a643caf",
        "scriptpubkey_type": "v1_p2tr",
        "scriptpubkey_address": "bc1pjdyscmhxvpvcxg5t7vuqwzwdzev3ra4nuewv25wwzdpg7xny8jhsn720pk",
        "value": 600
      },
      "scriptsig": "",
      "scriptsig_asm": "",
      "witness": [
        "b1afdeeb470f3238b5f09daaedb69441505c14a9c8a0911b4748e30bfc5bdc5e06644c47d3a56dc85d1c605e1d3eedb1a9390ee34936b8a556d604bc56c5ba03"
      ],
      "is_coinbase": false,
      "sequence": 4294967295
    },
    {
      "txid": "1e83e5741f0333256ceae4500806b542e5818f4068866f15d0ff6fbaf7b95953",
      "vout": 8,
      "prevout": {
        "scriptpubkey": "512093490c6ee6605983228bf3380709cd165911f6b3e65cc551ce13428f1a643caf",
        "scriptpubkey_asm": "OP_PUSHNUM_1 OP_PUSHBYTES_32 93490c6ee6605983228bf3380709cd165911f6b3e65cc551ce13428f1a643caf",
        "scriptpubkey_type": "v1_p2tr",
        "scriptpubkey_address": "bc1pjdyscmhxvpvcxg5t7vuqwzwdzev3ra4nuewv25wwzdpg7xny8jhsn720pk",
        "value": 600
      },
      "scriptsig": "",
      "scriptsig_asm": "",
      "witness": [
        "ff53511475d31dff38b71767436c8ea14f071a508491118c4b9459e8216e816094d6b819e4348f52b48a478afd3bb6fd9fd20fa5fc095447bc603391800fb029"
      ],
      "is_coinbase": false,
      "sequence": 4294967295
    }
  ],
  "vout": [
    {
      "scriptpubkey": "a9148a7f018eb20405da268994605c21579a64b0f20787",
      "scriptpubkey_asm": "OP_HASH160 OP_PUSHBYTES_20 8a7f018eb20405da268994605c21579a64b0f207 OP_EQUAL",
      "scriptpubkey_type": "p2sh",
      "scriptpubkey_address": "3EKKKZ542SykE8CWh7yrxrwuWRBySEpkQr",
      "value": 148241
    }
  ],
  "size": 1328,
  "weight": 2930,
  "fee": 9529,
  "status": {
    "confirmed": true,
    "block_height": 834460,
    "block_hash": "00000000000000000000484a79b643b2524bbce82e5d8a442013fa5b8905ed98",
    "block_time": 1710307468
  },
  "hex": "0200000000010c12daefb397da631a5bdd500eb85a6b396b0f0ddba1d657bda1232bfd4d5452f11800000000ffffffff12daefb397da631a5bdd500eb85a6b396b0f0ddba1d657bda1232bfd4d5452f10000000000ffffffff12daefb397da631a5bdd500eb85a6b396b0f0ddba1d657bda1232bfd4d5452f11700000000ffffffff12daefb397da631a5bdd500eb85a6b396b0f0ddba1d657bda1232bfd4d5452f11600000000ffffffff12daefb397da631a5bdd500eb85a6b396b0f0ddba1d657bda1232bfd4d5452f11500000000ffffffff12daefb397da631a5bdd500eb85a6b396b0f0ddba1d657bda1232bfd4d5452f11400000000ffffffff12daefb397da631a5bdd500eb85a6b396b0f0ddba1d657bda1232bfd4d5452f11300000000ffffffff12daefb397da631a5bdd500eb85a6b396b0f0ddba1d657bda1232bfd4d5452f11200000000ffffffff12daefb397da631a5bdd500eb85a6b396b0f0ddba1d657bda1232bfd4d5452f11100000000ffffffff12daefb397da631a5bdd500eb85a6b396b0f0ddba1d657bda1232bfd4d5452f11000000000ffffffff5359b9f7ba6fffd0156f8668408f81e542b5060850e4ea6c2533031f74e5831e0900000000ffffffff5359b9f7ba6fffd0156f8668408f81e542b5060850e4ea6c2533031f74e5831e0800000000ffffffff01114302000000000017a9148a7f018eb20405da268994605c21579a64b0f2078701408a0a452f42eaab358dc1f060052fabe5b751b70d14efa94b5202784d7f5537c06776d9500172dffe2af3d90fab21e4acfe7faaa79c1c5c6ca39bd37152bbf4d80140efbf3ef3475bb7821cf38b59680fed79f9cc67e494cb459ebde9454fdfccb2a22f41744c6aee5762cb433852e0329ca42b85f10d671b148c270f66b99c4d42030140833c9743c31080e9ad311f3546e607ebb96753833d56b79bcae82008915d4969c13a052ee632040b65a20b8b3992f62834552b417c053392a00ff4231e35ed8f01407d7a8e739f20d9de0d19a7910a2e8afe40b69fc7fd37ece9363fccd0de0ffa6056233d826997cd08a6064116274659bf85a226393cb595f6488dae7e03e1befe01409c8f58d71e0b01e39a153d07b4341ca0ba14615f2ea76f069834fbb9d87f990cd931dc88a055d854a1cdc634823c892cb3f185e1e907deb0942d4a86636e03c2014029a7d1be385db929d2449191fea3bc6ba0e60121840a878d1f1ec205345cfd64fb11593408ed8722a7a8c651dba206a8e9f7b1740fb6f113448ea1adc4014dcd01400d762b2bd00bd5bd084deef8624ea570a33679398b7d5169ea503e8b4c18d0dff984eecb5e4c3419efc1100b9011ccece07ea8a48a3972d54133eacec88ea70901409ddd989c7e4076a7c446683db43d6fcf57c5773bd5b587f567eb8e36079b82101547212a41fe4909ba81d5c74d5c7778cc7e4101305fa96570f6f8ca92ea659e0140b1a9bb373ac8bd7c28dadb63d3bf895685baa5261048a9ee2d86edd03b697a60a382727b6a24e87b3e4a4a56c403ae1540ebddbae7aa6405c4d9976f6c7296f501409939ed9da552d1967d8305e37275754ee08f0442b3321646f2eb90291eee9cd593421bf274497d4e7854d806bb8cc53d0d0f33eccc5438ef6c9b9c00b1c2f4b50140b1afdeeb470f3238b5f09daaedb69441505c14a9c8a0911b4748e30bfc5bdc5e06644c47d3a56dc85d1c605e1d3eedb1a9390ee34936b8a556d604bc56c5ba030140ff53511475d31dff38b71767436c8ea14f071a508491118c4b9459e8216e816094d6b819e4348f52b48a478afd3bb6fd9fd20fa5fc095447bc603391800fb02900000000"
}