{
  "txid": "e48dc617781f06f79f66ed8493f45a983cc542377cea520341f64e326cb9dfe3",
  "version": 2,
  "locktime": 0,
  "vin": [
    {
      "txid": "683daa4f14967b0d5a9216eb019146531c26f282f06bc8bd2dbcacaa80ddf158",
      "vout": 3,
      "prevout": {
        "scriptpubkey": "5120f6777fccec289a1b03a9861821c4edabb98e72bb1bffd07bf25f934ad689424b",
        "scriptpubkey_asm": "OP_PUSHNUM_1 OP_PUSHBYTES_32 f6777fccec289a1b03a9861821c4edabb98e72bb1bffd07bf25f934ad689424b",
        "scriptpubkey_type": "v1_p2tr",
        "scriptpubkey_address": "bc1p7emhln8v9zdpkqafscvzr38d4wucuu4mr0laq7ljt7f5445fgf9swrfus8",
        "value": 600
      },
      "scriptsig": "",
      "scriptsig_asm": "",
      "witness": [
        "036d8f6680b349c0527424ff0cd64d16325f44bb595126f6594130c8bce7a24283fd796b29e146c8b68e0b6e0226d8295e18f14dccd56ac6336deaf54e8cceeb"
      ],
      "is_coinbase": false,
      "sequence": 4294967295
    },
    {
      "txid": "683daa4f14967b0d5a9216eb019146531c26f282f06bc8bd2dbcacaa80ddf158",
      "vout": 4,
      "prevout": {
        "scriptpubkey": "5120f6777fccec289a1b03a9861821c4edabb98e72bb1bffd07bf25f934ad689424b",
        "scriptpubkey_asm": "OP_PUSHNUM_1 OP_PUSHBYTES_32 f6777fccec289a1b03a9861821c4edabb98e72bb1bffd07bf25f934ad689424b",
        "scriptpubkey_type": "v1_p2tr",
        "scriptpubkey_address": "bc1p7emhln8v9zdpkqafscvzr38d4wucuu4mr0laq7ljt7f5445fgf9swrfus8",
        "value": 600
      },
      "scriptsig": "",
      "scriptsig_asm": "",
      "witness": [
        "63b8caaedde4961198972a9e87fe03c08fd0b5c47dd8a7cdcfd514e0f83a013e4586745facab91f29467a0a3bd9a6393b77bb0dfb9d3e2c57dc99b1d1e7c34f1"
      ],
      "is_coinbase": false,
      "sequence": 4294967295
    },
    {
      "txid": "a6ccc754874a5992f93415cec11066643ba832f891355985cd4fddf96a08dcfe",
      "vout": 0,
      "prevout": {
        "scriptpubkey": "51206a32fce175d25fa9e3f541df12107d9f36c66bdc67e4e3d49c2486a22fec9e57",
        "scriptpubkey_asm": "OP_PUSHNUM_1 OP_PUSHBYTES_32 6a32fce175d25fa9e3f541df12107d9f36c66bdc67e4e3d49c2486a22fec9e57",
        "scriptpubkey_type": "v1_p2tr",
        "scriptpubkey_address": "bc1pdge0ect46f06ncl4g803yyranumvv67uvljw84yuyjr2ytlvnetsutfx47",
        "value": 546
      },
      "scriptsig": "",
      "scriptsig_asm": "",
      "witness": [
        "eef8966fd117d64a9495cc6fcbfc87ca2677167273b5e56efdcfd4e74fba797b8f4f3c2e5b4fed915aa0691b746c6ae779a26f61574b77519d94173ea0d4507583"
      ],
      "is_coinbase": false,
      "sequence": 4294967295
    },
    {
      "txid": "affd983f1fc4b83cad3065318203a1d30d56254db3460d22ea325934e5e95938",
      "vout": 1,
      "prevout": {
        "scriptpubkey": "5120f6777fccec289a1b03a9861821c4edabb98e72bb1bffd07bf25f934ad689424b",
        "scriptpubkey_asm": "OP_PUSHNUM_1 OP_PUSHBYTES_32 f6777fccec289a1b03a9861821c4edabb98e72bb1bffd07bf25f934ad689424b",
        "scriptpubkey_type": "v1_p2tr",
        "scriptpubkey_address": "bc1p7emhln8v9zdpkqafscvzr38d4wucuu4mr0laq7ljt7f5445fgf9swrfus8",
        "value": 2617420
      },
      "scriptsig": "",
      "scriptsig_asm": "",
      "witness": [
        "927756c4176a004f5d5ca4681242e966772103c3d3b913c1018ae7b5ae3c6a6622fd235e58d9509e0e66c97921ffb309971c75bd8652884a516ad70d5eecd706"
      ],
      "is_coinbase": false,
      "sequence": 4294967295
    }
  ],
  "vout": [
    {
      "scriptpubkey": "5120f6777fccec289a1b03a9861821c4edabb98e72bb1bffd07bf25f934ad689424b",
      "scriptpubkey_asm": "OP_PUSHNUM_1 OP_PUSHBYTES_32 f6777fccec289a1b03a9861821c4edabb98e72bb1bffd07bf25f934ad689424b",
      "scriptpubkey_type": "v1_p2tr",
      "scriptpubkey_address": "bc1p7emhln8v9zdpkqafscvzr38d4wucuu4mr0laq7ljt7f5445fgf9swrfus8",
      "value": 1200
    },
    {
      "scriptpubkey": "5120f6777fccec289a1b03a9861821c4edabb98e72bb1bffd07bf25f934ad689424b",
      "scriptpubkey_asm": "OP_PUSHNUM_1 OP_PUSHBYTES_32 f6777fccec289a1b03a9861821c4edabb98e72bb1bffd07bf25f934ad689424b",
      "scriptpubkey_type": "v1_p2tr",
      "scriptpubkey_address": "bc1p7emhln8v9zdpkqafscvzr38d4wucuu4mr0laq7ljt7f5445fgf9swrfus8",
      "value": 546
    },
    {
      "scriptpubkey": "51206a32fce175d25fa9e3f541df12107d9f36c66bdc67e4e3d49c2486a22fec9e57",
      "scriptpubkey_asm": "OP_PUSHNUM_1 OP_PUSHBYTES_32 6a32fce175d25fa9e3f541df12107d9f36c66bdc67e4e3d49c2486a22fec9e57",
      "scriptpubkey_type": "v1_p2tr",
      "scriptpubkey_address": "bc1pdge0ect46f06ncl4g803yyranumvv67uvljw84yuyjr2ytlvnetsutfx47",
      "value": 1560000
    },
    {
      "scriptpubkey": "5120f6777fccec289a1b03a9861821c4edabb98e72bb1bffd07bf25f934ad689424b",
      "scriptpubkey_asm": "OP_PUSHNUM_1 OP_PUSHBYTES_32 f6777fccec289a1b03a9861821c4edabb98e72bb1bffd07bf25f934ad689424b",
      "scriptpubkey_type": "v1_p2tr",
      "scriptpubkey_address": "bc1p7emhln8v9zdpkqafscvzr38d4wucuu4mr0laq7ljt7f5445fgf9swrfus8",
      "value": 600
    },
    {
      "scriptpubkey": "5120f6777fccec289a1b03a9861821c4edabb98e72bb1bffd07bf25f934ad689424b",
      "scriptpubkey_asm": "OP_PUSHNUM_1 OP_PUSHBYTES_32 f6777fccec289a1b03a9861821c4edabb98e72bb1bffd07bf25f934ad689424b",
      "scriptpubkey_type": "v1_p2tr",
      "scriptpubkey_address": "bc1p7emhln8v9zdpkqafscvzr38d4wucuu4mr0laq7ljt7f5445fgf9swrfus8",
      "value": 600
    },
    {
      "scriptpubkey": "5120f6777fccec289a1b03a9861821c4edabb98e72bb1bffd07bf25f934ad689424b",
      "scriptpubkey_asm": "OP_PUSHNUM_1 OP_PUSHBYTES_32 f6777fccec289a1b03a9861821c4edabb98e72bb1bffd07bf25f934ad689424b",
      "scriptpubkey_type": "v1_p2tr",
      "scriptpubkey_address": "bc1p7emhln8v9zdpkqafscvzr38d4wucuu4mr0laq7ljt7f5445fgf9swrfus8",
      "value": 1048236
    }
  ],
  "size": 699,
  "weight": 1995,
  "fee": 7984,
  "status": {
    "confirmed": true,
    "block_height": 834638,
    "block_hash": "000000000000000000025f742c626208ac87e0b7d15054abb4a19ca2d735a54e",
    "block_time": 1710405325
  },
  "hex": "0200000000010458f1dd80aaacbc2dbdc86bf082f2261c53469101eb16925a0d7b96144faa3d680300000000ffffffff58f1dd80aaacbc2dbdc86bf082f2261c53469101eb16925a0d7b96144faa3d680400000000fffffffffedc086af9dd4fcd85593591f832a83b646610c1ce1534f992594a8754c7cca60000000000ffffffff3859e9e5345932ea220d46b34d25560dd3a10382316530ad3cb8c41f3f98fdaf0100000000ffffffff06b004000000000000225120f6777fccec289a1b03a9861821c4edabb98e72bb1bffd07bf25f934ad689424b2202000000000000225120f6777fccec289a1b03a9861821c4edabb98e72bb1bffd07bf25f934ad689424bc0cd1700000000002251206a32fce175d25fa9e3f541df12107d9f36c66bdc67e4e3d49c2486a22fec9e575802000000000000225120f6777fccec289a1b03a9861821c4edabb98e72bb1bffd07bf25f934ad689424b5802000000000000225120f6777fccec289a1b03a9861821c4edabb98e72bb1bffd07bf25f934ad689424bacfe0f0000000000225120f6777fccec289a1b03a9861821c4edabb98e72bb1bffd07bf25f934ad689424b0140036d8f6680b349c0527424ff0cd64d16325f44bb595126f6594130c8bce7a24283fd796b29e146c8b68e0b6e0226d8295e18f14dccd56ac6336deaf54e8cceeb014063b8caaedde4961198972a9e87fe03c08fd0b5c47dd8a7cdcfd514e0f83a013e4586745facab91f29467a0a3bd9a6393b77bb0dfb9d3e2c57dc99b1d1e7c34f10141eef8966fd117d64a9495cc6fcbfc87ca2677167273b5e56efdcfd4e74fba797b8f4f3c2e5b4fed915aa0691b746c6ae779a26f61574b77519d94173ea0d45075830140927756c4176a004f5d5ca4681242e966772103c3d3b913c1018ae7b5ae3c6a6622fd235e58d9509e0e66c97921ffb309971c75bd8652884a516ad70d5eecd70600000000"
}