{
  "txid": "e499c7f1374cc9b3557263842ba22c3db1059ac1c28b138a813899353f03f29c",
  "version": 2,
  "locktime": 0,
  "vin": [
    {
      "txid": "9b7462d3cb14dd29c7605f6e6a3f4ef14b3d5fdea216604a06e825ce7f9b300b",
      "vout": 1,
      "prevout": {
        "scriptpubkey": "001418910fc943783c7a4f02180705bd2c5f347723c5",
        "scriptpubkey_asm": "OP_0 OP_PUSHBYTES_20 18910fc943783c7a4f02180705bd2c5f347723c5",
        "scriptpubkey_type": "v0_p2wpkh",
        "scriptpubkey_address": "bc1qrzgslj2r0q785nczrqrst0fvtu68wg79zuu48d",
        "value": 10955486
      },
      "scriptsig": "",
      "scriptsig_asm": "",
      "witness": [
        "3045022100ab58955eb4fee13f2de05fa3874d4c7cd99a191367ec6d616e42ef6ebfe2ceb9022061f3f07b42f6320354739a6ad3a797aedf2966bb9bd30d82a24a10cbaae496cd01",
        "03538a9662ac97e37c9ecb20cbabff87c982845713711275be407d5e3c6e133f03"
      ],
      "is_coinbase": false,
      "sequence": 0
    },
    {
      "txid": "79a239fbaf347eb52d1f6d4af072728597e4fb11151bd51f06aa64b00b9ec6be",
      "vout": 0,
      "prevout": {
        "scriptpubkey": "00149408873d428ec4edb2093499811e2cc254a6af33",
        "scriptpubkey_asm": "OP_0 OP_PUSHBYTES_20 9408873d428ec4edb2093499811e2cc254a6af33",
        "scriptpubkey_type": "v0_p2wpkh",
        "scriptpubkey_address": "bc1qjsygw02z3mzwmvsfxjvcz83vcf22dten4a4jsm",
        "value": 30000000
      },
      "scriptsig": "",
      "scriptsig_asm": "",
      "witness": [
        "30450221008ad628231cb43b4199137e7995499745fc8936ec32afedd657819e5a4ca4c82a02203193d20e75ef7a37fc0cedc1994539b3b0814e27a0fea91e8fa5014de8e18db201",
        "030b8221d94dfaf47b19928b1caa923f9738690fd82f4c1f2b17e2450269d023ef"
      ],
      "is_coinbase": false,
      "sequence": 0
    }
  ],
  "vout": [
    {
      "scriptpubkey": "00141f3ce30f32cd95cd38a2e81f675bfd64e5847a26",
      "scriptpubkey_asm": "OP_0 OP_PUSHBYTES_20 1f3ce30f32cd95cd38a2e81f675bfd64e5847a26",
      "scriptpubkey_type": "v0_p2wpkh",
      "scriptpubkey_address": "bc1qru7wxrejek2u6w9zaq0kwklavnjcg73x2jwmxr",
      "value": 40932880
    }
  ],
  "size": 341,
  "weight": 710,
  "fee": 22606,
  "status": {
    "confirmed": true,
    "block_height": 834638,
    "block_hash": "000000000000000000025f742c626208ac87e0b7d15054abb4a19ca2d735a54e",
    "block_time": 1710405325
  },
  "hex": "020000000001020b309b7fce25e8064a6016a2de5f3d4bf14e3f6a6e5f60c729dd14cbd362749b010000000000000000bec69e0bb064aa061fd51b1511fbe497857272f04a6d1f2db57e34affb39a2790000000000000000000110967002000000001600141f3ce30f32cd95cd38a2e81f675bfd64e5847a2602483045022100ab58955eb4fee13f2de05fa3874d4c7cd99a191367ec6d616e42ef6ebfe2ceb9022061f3f07b42f6320354739a6ad3a797aedf2966bb9bd30d82a24a10cbaae496cd012103538a9662ac97e37c9ecb20cbabff87c982845713711275be407d5e3c6e133f03024830450221008ad628231cb43b4199137e7995499745fc8936ec32afedd657819e5a4ca4c82a02203193d20e75ef7a37fc0cedc1994539b3b0814e27a0fea91e8fa5014de8e18db20121030b8221d94dfaf47b19928b1caa923f9738690fd82f4c1f2b17e2450269d023ef00000000"
}