{
  "txid": "e49e348e0f948e807c7a8edb3618ec36ec1c6134bf88494f21d676d91c2b2f68",
  "version": 1,
  "locktime": 0,
  "vin": [
    {
      "txid": "4bd22bf83c347281d6b45d215adc247d61cc823391206bfaebe27ad87d1d6959",
      "vout": 1,
      "prevout": {
        "scriptpubkey": "00142068db0937eabdc0a72ad8820614eb0c0d47acd9",
        "scriptpubkey_asm": "OP_0 OP_PUSHBYTES_20 2068db0937eabdc0a72ad8820614eb0c0d47acd9",
        "scriptpubkey_type": "v0_p2wpkh",
        "scriptpubkey_address": "bc1qyp5dkzfha27upfe2mzpqv98tpsx50txehwuwgk",
        "value": 100081
      },
      "scriptsig": "",
      "scriptsig_asm": "",
      "witness": [
        "304502210092b84595b7abf4d9195865c3daf2ac534e7ff8b7d889f0f463af8786825fa9f3022025024b06946d7917835d62f2715b6b037ca24baa0d8caf36986d31899d6247b501",
        "02bb6f2def5c799b7d722b78477be9214d6e91db70a845f070cc406220e487a830"
      ],
      "is_coinbase": false,
      "sequence": 4294967295
    },
    {
      "txid": "b66f348a52c1203f2f011e6e6136431820a8b835bf30030d28d6b6a1f15821c6",
      "vout": 6,
      "prevout": {
        "scriptpubkey": "0014ceda43f6bfb5e5863481a047d55321a5faf6b36a",
        "scriptpubkey_asm": "OP_0 OP_PUSHBYTES_20 ceda43f6bfb5e5863481a047d55321a5faf6b36a",
        "scriptpubkey_type": "v0_p2wpkh",
        "scriptpubkey_address": "bc1qemdy8a4lkhjcvdyp5pra25ep5ha0dvm2vzu7p9",
        "value": 85005
      },
      "scriptsig": "",
      "scriptsig_asm": "",
      "witness": [
        "304402205cd6e3ade04375eb70f36ecaeb121c9c97130aa274bb6c71e9ebd6bb3ca46d9a0220758a0a7754481d6bcecde6677f9bc828cde110058b8ab0b1b7bd4a9dad74644a01",
        "027e64bbdd002d74059e53dad4c05958caff192148071e27d79ef32085785549d5"
      ],
      "is_coinbase": false,
      "sequence": 4294967295
    }
  ],
  "vout": [
    {
      "scriptpubkey": "001467f8f5ae282f0596bb3c15d13f7ff275c7470053",
      "scriptpubkey_asm": "OP_0 OP_PUSHBYTES_20 67f8f5ae282f0596bb3c15d13f7ff275c7470053",
      "scriptpubkey_type": "v0_p2wpkh",
      "scriptpubkey_address": "bc1qvlu0tt3g9uzedweuzhgn7lljwhr5wqznnl2ag5",
      "value": 182026
    }
  ],
  "size": 340,
  "weight": 709,
  "fee": 3060,
  "status": {
    "confirmed": true,
    "block_height": 834638,
    "block_hash": "000000000000000000025f742c626208ac87e0b7d15054abb4a19ca2d735a54e",
    "block_time": 1710405325
  },
  "hex": "0100000000010259691d7dd87ae2ebfa6b20913382cc617d24dc5a215db4d68172343cf82bd24b0100000000ffffffffc62158f1a1b6d6280d0330bf35b8a820184336616e1e012f3f20c1528a346fb60600000000ffffffff010ac702000000000016001467f8f5ae282f0596bb3c15d13f7ff275c74700530248304502210092b84595b7abf4d9195865c3daf2ac534e7ff8b7d889f0f463af8786825fa9f3022025024b06946d7917835d62f2715b6b037ca24baa0d8caf36986d31899d6247b5012102bb6f2def5c799b7d722b78477be9214d6e91db70a845f070cc406220e487a8300247304402205cd6e3ade04375eb70f36ecaeb121c9c97130aa274bb6c71e9ebd6bb3ca46d9a0220758a0a7754481d6bcecde6677f9bc828cde110058b8ab0b1b7bd4a9dad74644a0121027e64bbdd002d74059e53dad4c05958caff192148071e27d79ef32085785549d500000000"
}