{
  "txid": "e4a1b1f85ba8d3bdb77397e30055fc02f18a4affa2f8baeb7c377ccc0cc2d244",
  "version": 2,
  "locktime": 0,
  "vin": [
    {
      "txid": "03c35b1f0176f795b1065174e989445650bd7d94a1ee4fb2a15c9e96d2bb84ac",
      "vout": 0,
      "prevout": {
        "scriptpubkey": "76a914f8ed3c51f7bb5c6622dec405b9154d6dd3e7f6f688ac",
        "scriptpubkey_asm": "OP_DUP OP_HASH160 OP_PUSHBYTES_20 f8ed3c51f7bb5c6622dec405b9154d6dd3e7f6f6 OP_EQUALVERIFY OP_CHECKSIG",
        "scriptpubkey_type": "p2pkh",
        "scriptpubkey_address": "1PhCmzfU4mN5MjE6P9vhH65QSwjQADeZPK",
        "value": 4144
      },
      "scriptsig": "483045022100bb7948660dbe7d0a09f1c51a4045d86a86fa9350fff0d1b0c15a5bcc9a3118a402207c6cf40167e98bca7693bbba0f77f12f5cc5a3a4761a1340acb345716d980bbc012102fae372eafb9c42f33608bb87ae4b9f8a75a8cec412790e5420a628a7198f82d6",
      "scriptsig_asm": "OP_PUSHBYTES_72 3045022100bb7948660dbe7d0a09f1c51a4045d86a86fa9350fff0d1b0c15a5bcc9a3118a402207c6cf40167e98bca7693bbba0f77f12f5cc5a3a4761a1340acb345716d980bbc01 OP_PUSHBYTES_33 02fae372eafb9c42f33608bb87ae4b9f8a75a8cec412790e5420a628a7198f82d6",
      "is_coinbase": false,
      "sequence": 4294967295
    },
    {
      "txid": "cc07b8f2773a26336adb8edcc304ee7275d1f5876861e85a30ab9af19d748a7c",
      "vout": 0,
      "prevout": {
        "scriptpubkey": "76a914f8ed3c51f7bb5c6622dec405b9154d6dd3e7f6f688ac",
        "scriptpubkey_asm": "OP_DUP OP_HASH160 OP_PUSHBYTES_20 f8ed3c51f7bb5c6622dec405b9154d6dd3e7f6f6 OP_EQUALVERIFY OP_CHECKSIG",
        "scriptpubkey_type": "p2pkh",
        "scriptpubkey_address": "1PhCmzfU4mN5MjE6P9vhH65QSwjQADeZPK",
        "value": 4325
      },
      "scriptsig": "47304402204e2730acd75ca7157b7670c4fdfc4f6cc334b04148255a0f3b6b92151826f075022031a60b1ee82d8d4992efd25e3301c38f99c0175dab090c5048c20829c616aa06012102fae372eafb9c42f33608bb87ae4b9f8a75a8cec412790e5420a628a7198f82d6",
      "scriptsig_asm": "OP_PUSHBYTES_71 304402204e2730acd75ca7157b7670c4fdfc4f6cc334b04148255a0f3b6b92151826f075022031a60b1ee82d8d4992efd25e3301c38f99c0175dab090c5048c20829c616aa0601 OP_PUSHBYTES_33 02fae372eafb9c42f33608bb87ae4b9f8a75a8cec412790e5420a628a7198f82d6",
      "is_coinbase": false,
      "sequence": 4294967295
    }
  ],
  "vout": [
    {
      "scriptpubkey": "0014877286f4bcd69ba4e7a0b2c28a4468e436d1901d",
      "scriptpubkey_asm": "OP_0 OP_PUSHBYTES_20 877286f4bcd69ba4e7a0b2c28a4468e436d1901d",
      "scriptpubkey_type": "v0_p2wpkh",
      "scriptpubkey_address": "bc1qsaegda9u66d6feaqktpg53rgusmdryqasspy6l",
      "value": 3369
    }
  ],
  "size": 336,
  "weight": 1344,
  "fee": 5100,
  "status": {
    "confirmed": true,
    "block_height": 834638,
    "block_hash": "000000000000000000025f742c626208ac87e0b7d15054abb4a19ca2d735a54e",
    "block_time": 1710405325
  },
  "hex": "0200000002ac84bbd2969e5ca1b24feea1947dbd50564489e9745106b195f776011f5bc303000000006b483045022100bb7948660dbe7d0a09f1c51a4045d86a86fa9350fff0d1b0c15a5bcc9a3118a402207c6cf40167e98bca7693bbba0f77f12f5cc5a3a4761a1340acb345716d980bbc012102fae372eafb9c42f33608bb87ae4b9f8a75a8cec412790e5420a628a7198f82d6ffffffff7c8a749df19aab305ae8616887f5d17572ee04c3dc8edb6a33263a77f2b807cc000000006a47304402204e2730acd75ca7157b7670c4fdfc4f6cc334b04148255a0f3b6b92151826f075022031a60b1ee82d8d4992efd25e3301c38f99c0175dab090c5048c20829c616aa06012102fae372eafb9c42f33608bb87ae4b9f8a75a8cec412790e5420a628a7198f82d6ffffffff01290d000000000000160014877286f4bcd69ba4e7a0b2c28a4468e436d1901d00000000"
}