{
  "txid": "e4cb79d5604c8e65d3e7b79969c269203e3b75ba3fc2d0d8216fd0acfa76b3c4",
  "version": 1,
  "locktime": 0,
  "vin": [
    {
      "txid": "ad479c2b2518741725ea7ecfd44bf86fa7aaa49ac2550627f0b97e7d4deb0b87",
      "vout": 1,
      "prevout": {
        "scriptpubkey": "00140fda52b548b9a2b75fa280697163b96e743c4a76",
        "scriptpubkey_asm": "OP_0 OP_PUSHBYTES_20 0fda52b548b9a2b75fa280697163b96e743c4a76",
        "scriptpubkey_type": "v0_p2wpkh",
        "scriptpubkey_address": "bc1qpld99d2ghx3twhazsp5hzcaede6rcjnky2u39t",
        "value": 101675
      },
      "scriptsig": "",
      "scriptsig_asm": "",
      "witness": [
        "3044022018b21b5389fc009045aa00b4d828289932859aa6104ecdc065ab6eb52d8e2c4502207070ef7c9c18b92f0edbe0032aa02a80ac4023a38acc000480fb05e6cb3480be01",
        "030aa0603a086f89fd7fa405ded84170fc3cf959f27d89d85778711739be83963d"
      ],
      "is_coinbase": false,
      "sequence": 4294967295
    },
    {
      "txid": "cdc017eba7f3d22e52d5d409dbf9f9a0a762311e370ba5116dbe562e43b8c0ae",
      "vout": 20,
      "prevout": {
        "scriptpubkey": "0014215595257fe014669bddc5ea135958319db7a24c",
        "scriptpubkey_asm": "OP_0 OP_PUSHBYTES_20 215595257fe014669bddc5ea135958319db7a24c",
        "scriptpubkey_type": "v0_p2wpkh",
        "scriptpubkey_address": "bc1qy92e2ftluq2xdx7ach4pxk2cxxwm0gjvsvsuvr",
        "value": 293951
      },
      "scriptsig": "",
      "scriptsig_asm": "",
      "witness": [
        "3045022100d1717a0ec5f06b18673a19ee154b0c226eebc49bfede9fa86848c0e10fb9dec1022010db68fe9a347387bbc34165aaa33a2cf69efd5ccc0d3bd311707611f99b78b601",
        "03f7557787c509411b9398f040599ef661ee0a09b949b3e1902e103446c16b514f"
      ],
      "is_coinbase": false,
      "sequence": 4294967295
    }
  ],
  "vout": [
    {
      "scriptpubkey": "76a91474d321155571b18938c823ac9b67d660b418fe8188ac",
      "scriptpubkey_asm": "OP_DUP OP_HASH160 OP_PUSHBYTES_20 74d321155571b18938c823ac9b67d660b418fe81 OP_EQUALVERIFY OP_CHECKSIG",
      "scriptpubkey_type": "p2pkh",
      "scriptpubkey_address": "1BeiJmaKjhsxrFnhNTxCjVKCL7Prirogm9",
      "value": 278052
    },
    {
      "scriptpubkey": "0014f4cf1ef055bb432c6e835caf71fb6fcc5c772f4a",
      "scriptpubkey_asm": "OP_0 OP_PUSHBYTES_20 f4cf1ef055bb432c6e835caf71fb6fcc5c772f4a",
      "scriptpubkey_type": "v0_p2wpkh",
      "scriptpubkey_address": "bc1q7n83auz4hdpjcm5rtjhhr7m0e3w8wt62qczure",
      "value": 112100
    }
  ],
  "size": 374,
  "weight": 845,
  "fee": 5474,
  "status": {
    "confirmed": true,
    "block_height": 834638,
    "block_hash": "000000000000000000025f742c626208ac87e0b7d15054abb4a19ca2d735a54e",
    "block_time": 1710405325
  },
  "hex": "01000000000102870beb4d7d7eb9f0270655c29aa4aaa76ff84bd4cf7eea25177418252b9c47ad0100000000ffffffffaec0b8432e56be6d11a50b371e3162a7a0f9f9db09d4d5522ed2f3a7eb17c0cd1400000000ffffffff02243e0400000000001976a91474d321155571b18938c823ac9b67d660b418fe8188ace4b5010000000000160014f4cf1ef055bb432c6e835caf71fb6fcc5c772f4a02473044022018b21b5389fc009045aa00b4d828289932859aa6104ecdc065ab6eb52d8e2c4502207070ef7c9c18b92f0edbe0032aa02a80ac4023a38acc000480fb05e6cb3480be0121030aa0603a086f89fd7fa405ded84170fc3cf959f27d89d85778711739be83963d02483045022100d1717a0ec5f06b18673a19ee154b0c226eebc49bfede9fa86848c0e10fb9dec1022010db68fe9a347387bbc34165aaa33a2cf69efd5ccc0d3bd311707611f99b78b6012103f7557787c509411b9398f040599ef661ee0a09b949b3e1902e103446c16b514f00000000"
}