{
  "txid": "e4cc146d80927fb85e975684236915db7c7e71d5ad0e05b595d03527909f8b15",
  "version": 2,
  "locktime": 834572,
  "vin": [
    {
      "txid": "1ebf06dc3502618dcc522e84177a717906b1c4d7b4f05a8d5699903a4a641c3c",
      "vout": 0,
      "prevout": {
        "scriptpubkey": "00142acdf54e451ef5c9999d18718883da6df70e54a1",
        "scriptpubkey_asm": "OP_0 OP_PUSHBYTES_20 2acdf54e451ef5c9999d18718883da6df70e54a1",
        "scriptpubkey_type": "v0_p2wpkh",
        "scriptpubkey_address": "bc1q9txl2nj9rm6unxvarpcc3q76dhmsu49psjcnnq",
        "value": 3340000
      },
      "scriptsig": "",
      "scriptsig_asm": "",
      "witness": [
        "304402203798b759ac2e8c31d919ae41c7b7ce31f67c7c8d0791664211ac863b2f50b280022035f0e9ce0fd988e676d6dc435f3e234c2734c6be1bb6deb9133ed54d4bdbedde01",
        "0332e6a974de10972797eabccfa27b0b61fef95ef980dd36a16ec31551936e9ff9"
      ],
      "is_coinbase": false,
      "sequence": 4294967293
    }
  ],
  "vout": [
    {
      "scriptpubkey": "00141adc86e2f143e895a78a032f7fe8fa3cf4405fef",
      "scriptpubkey_asm": "OP_0 OP_PUSHBYTES_20 1adc86e2f143e895a78a032f7fe8fa3cf4405fef",
      "scriptpubkey_type": "v0_p2wpkh",
      "scriptpubkey_address": "bc1qrtwgdch3g05ftfu2qvhhl6868n6yqhl04975sl",
      "value": 53927
    },
    {
      "scriptpubkey": "00142acdf54e451ef5c9999d18718883da6df70e54a1",
      "scriptpubkey_asm": "OP_0 OP_PUSHBYTES_20 2acdf54e451ef5c9999d18718883da6df70e54a1",
      "scriptpubkey_type": "v0_p2wpkh",
      "scriptpubkey_address": "bc1q9txl2nj9rm6unxvarpcc3q76dhmsu49psjcnnq",
      "value": 3280363
    }
  ],
  "size": 222,
  "weight": 561,
  "fee": 5710,
  "status": {
    "confirmed": true,
    "block_height": 834638,
    "block_hash": "000000000000000000025f742c626208ac87e0b7d15054abb4a19ca2d735a54e",
    "block_time": 1710405325
  },
  "hex": "020000000001013c1c644a3a9099568d5af0b4d7c4b10679717a17842e52cc8d610235dc06bf1e0000000000fdffffff02a7d20000000000001600141adc86e2f143e895a78a032f7fe8fa3cf4405fefeb0d3200000000001600142acdf54e451ef5c9999d18718883da6df70e54a10247304402203798b759ac2e8c31d919ae41c7b7ce31f67c7c8d0791664211ac863b2f50b280022035f0e9ce0fd988e676d6dc435f3e234c2734c6be1bb6deb9133ed54d4bdbedde01210332e6a974de10972797eabccfa27b0b61fef95ef980dd36a16ec31551936e9ff90cbc0c00"
}