{
  "txid": "e4d5068088736e7997c79ac0e6e7db42193f6a5cb890bf09ee770f87413a4106",
  "version": 2,
  "locktime": 0,
  "vin": [
    {
      "txid": "e054c137725b7a5d163dade8f5cd68c0927a2e8b00d920927dab9a7ba934ce5f",
      "vout": 7,
      "prevout": {
        "scriptpubkey": "51203ad30de6e13f0321591ad3f9619bca88f2d6043084a69fcfcb608d78489e8345",
        "scriptpubkey_asm": "OP_PUSHNUM_1 OP_PUSHBYTES_32 3ad30de6e13f0321591ad3f9619bca88f2d6043084a69fcfcb608d78489e8345",
        "scriptpubkey_type": "v1_p2tr",
        "scriptpubkey_address": "bc1p8tfsmehp8upjzkg660ukrx723redvppssjnfln7tvzxhsjy7sdzsgvtfzv",
        "value": 2658
      },
      "scriptsig": "",
      "scriptsig_asm": "",
      "witness": [
        "546be8f796b476e70a4ae4f44693ef5d8c7ec0ab65e74e74f5a413597c67dbb5a8c9de6b615e83e4043c1014f20d818422864c9fa4da255802a5aa921f0c29cb",
        "2001b0e760eff909c2a028fe3f6e7e2a801bbcd28b370cb4f46ebb34c54801804fac0063036f726401011e6170706c69636174696f6e2f6a736f6e3b636861727365743d7574662d38004cbf7b2270223a22706f772d3230222c226f70223a226d696e74222c227469636b223a2250455045222c22616d74223a2231303030222c22736f6c7574696f6e223a22504550453a6263317139736a36303977756e7468646a636d7a746a796379766475616e653071716b78726e773932653a303030303030303030303030303030303030303139393431613561653132383937363539383134343239323533333030353762306461393666336465613163353a3632313536393630363135227d68",
        "c0a0e509a599b6542378e5ac7959d344a1bebc95ec9899fd4ccf1904beefe3f047"
      ],
      "is_coinbase": false,
      "sequence": 4294967295
    }
  ],
  "vout": [
    {
      "scriptpubkey": "00142c25a795dc9aeed963625c898231bcecf2f002c6",
      "scriptpubkey_asm": "OP_0 OP_PUSHBYTES_20 2c25a795dc9aeed963625c898231bcecf2f002c6",
      "scriptpubkey_type": "v0_p2wpkh",
      "scriptpubkey_address": "bc1q9sj609wunthdjcmztjycyvduane0qqkxrnw92e",
      "value": 546
    }
  ],
  "size": 455,
  "weight": 701,
  "fee": 2112,
  "status": {
    "confirmed": true,
    "block_height": 834460,
    "block_hash": "00000000000000000000484a79b643b2524bbce82e5d8a442013fa5b8905ed98",
    "block_time": 1710307468
  },
  "hex": "020000000001015fce34a97b9aab7d9220d9008b2e7a92c068cdf5e8ad3d165d7a5b7237c154e00700000000ffffffff0122020000000000001600142c25a795dc9aeed963625c898231bcecf2f002c60340546be8f796b476e70a4ae4f44693ef5d8c7ec0ab65e74e74f5a413597c67dbb5a8c9de6b615e83e4043c1014f20d818422864c9fa4da255802a5aa921f0c29cbfd0c012001b0e760eff909c2a028fe3f6e7e2a801bbcd28b370cb4f46ebb34c54801804fac0063036f726401011e6170706c69636174696f6e2f6a736f6e3b636861727365743d7574662d38004cbf7b2270223a22706f772d3230222c226f70223a226d696e74222c227469636b223a2250455045222c22616d74223a2231303030222c22736f6c7574696f6e223a22504550453a6263317139736a36303977756e7468646a636d7a746a796379766475616e653071716b78726e773932653a303030303030303030303030303030303030303139393431613561653132383937363539383134343239323533333030353762306461393666336465613163353a3632313536393630363135227d6821c0a0e509a599b6542378e5ac7959d344a1bebc95ec9899fd4ccf1904beefe3f04700000000"
}