{
  "txid": "e4da38d2727bb850780d37ae7967bf70794099f3e98a53f8f41c7267b68e8e6a",
  "version": 2,
  "locktime": 834168,
  "vin": [
    {
      "txid": "5989e9a1e0ca6acd5b8b19d4056f70857c3a9d5fb38fb03a22d24cd56be8f466",
      "vout": 0,
      "prevout": {
        "scriptpubkey": "0014a2edf9a56eaa0530af502164346b65e8cf89adad",
        "scriptpubkey_asm": "OP_0 OP_PUSHBYTES_20 a2edf9a56eaa0530af502164346b65e8cf89adad",
        "scriptpubkey_type": "v0_p2wpkh",
        "scriptpubkey_address": "bc1q5tklnftw4gznpt6sy9jrg6m9ar8cntddz0tjy5",
        "value": 3409
      },
      "scriptsig": "",
      "scriptsig_asm": "",
      "witness": [
        "304402203c5a349dfd74195f755a9a6e672d0c92951cc3941538265e92634fadf9b956bd02207aa0e67f7e312e796f511382d3ac56cde5fce5c12b6d220c56e24997a50b939601",
        "0387f27cd29b6b2527fdd7bd75a865a67baa2f968612413f3dbcf4f28026876abb"
      ],
      "is_coinbase": false,
      "sequence": 4294967293
    },
    {
      "txid": "686641a2816d97ab554c69c93165563c323bd745ebb6d022b6e6695a5fdc9a3c",
      "vout": 0,
      "prevout": {
        "scriptpubkey": "0014a2edf9a56eaa0530af502164346b65e8cf89adad",
        "scriptpubkey_asm": "OP_0 OP_PUSHBYTES_20 a2edf9a56eaa0530af502164346b65e8cf89adad",
        "scriptpubkey_type": "v0_p2wpkh",
        "scriptpubkey_address": "bc1q5tklnftw4gznpt6sy9jrg6m9ar8cntddz0tjy5",
        "value": 52415
      },
      "scriptsig": "",
      "scriptsig_asm": "",
      "witness": [
        "3044022074705116356a38ae9b79f0ecb533bf04c8585eeae51a417a388362839e650e8a02205eb760f6c127b66dc2a07843297ebeb9cacf3d54a0d20f7db230a187d6c01a8f01",
        "0387f27cd29b6b2527fdd7bd75a865a67baa2f968612413f3dbcf4f28026876abb"
      ],
      "is_coinbase": false,
      "sequence": 4294967293
    }
  ],
  "vout": [
    {
      "scriptpubkey": "a91412e4f6e7d6229de041b9becbaffb182fdd0ceb0c87",
      "scriptpubkey_asm": "OP_HASH160 OP_PUSHBYTES_20 12e4f6e7d6229de041b9becbaffb182fdd0ceb0c OP_EQUAL",
      "scriptpubkey_type": "p2sh",
      "scriptpubkey_address": "33QvNj8yiwXCLAvh5kY4NyigbrXaA2hQPv",
      "value": 53900
    }
  ],
  "size": 340,
  "weight": 712,
  "fee": 1924,
  "status": {
    "confirmed": true,
    "block_height": 834464,
    "block_hash": "0000000000000000000177a0869a911a2b65c9bdcd5a8bcb02b68f305bee848e",
    "block_time": 1710308296
  },
  "hex": "0200000000010266f4e86bd54cd2223ab08fb35f9d3a7c85706f05d4198b5bcd6acae0a1e989590000000000fdffffff3c9adc5f5a69e6b622d0b6eb45d73b323c566531c9694c55ab976d81a24166680000000000fdffffff018cd200000000000017a91412e4f6e7d6229de041b9becbaffb182fdd0ceb0c870247304402203c5a349dfd74195f755a9a6e672d0c92951cc3941538265e92634fadf9b956bd02207aa0e67f7e312e796f511382d3ac56cde5fce5c12b6d220c56e24997a50b939601210387f27cd29b6b2527fdd7bd75a865a67baa2f968612413f3dbcf4f28026876abb02473044022074705116356a38ae9b79f0ecb533bf04c8585eeae51a417a388362839e650e8a02205eb760f6c127b66dc2a07843297ebeb9cacf3d54a0d20f7db230a187d6c01a8f01210387f27cd29b6b2527fdd7bd75a865a67baa2f968612413f3dbcf4f28026876abb78ba0c00"
}