{
  "txid": "e4db2d84306a2ca488ebe1d8099bc0f5d355571e0643c02eb7030b4afa2aa971",
  "version": 1,
  "locktime": 0,
  "vin": [
    {
      "txid": "c0bfed04919d5f9591eab67e723d37bf78b06279bcc01efb971a9cd99460f9e2",
      "vout": 1,
      "prevout": {
        "scriptpubkey": "76a9143f41884dda2604ddb09fe015da88d6345b91369b88ac",
        "scriptpubkey_asm": "OP_DUP OP_HASH160 OP_PUSHBYTES_20 3f41884dda2604ddb09fe015da88d6345b91369b OP_EQUALVERIFY OP_CHECKSIG",
        "scriptpubkey_type": "p2pkh",
        "scriptpubkey_address": "16mU5MpSAXMSF7gnmYxEzBY5vWyQeQaS43",
        "value": 72045507415
      },
      "scriptsig": "483045022100bfa227baae7f67e9077b8f35d57d378d8f98e30d593f98d1ab5b152ba3fa41b00220200d07f3279b0c4b9147bb5ff91a3b70b97ffdbbd58ae29b907c3ab58e87e55801210278f837d426608340ed98f6502f5b93569391b2fe6a6f0a8e1bafe7612db6b47d",
      "scriptsig_asm": "OP_PUSHBYTES_72 3045022100bfa227baae7f67e9077b8f35d57d378d8f98e30d593f98d1ab5b152ba3fa41b00220200d07f3279b0c4b9147bb5ff91a3b70b97ffdbbd58ae29b907c3ab58e87e55801 OP_PUSHBYTES_33 0278f837d426608340ed98f6502f5b93569391b2fe6a6f0a8e1bafe7612db6b47d",
      "is_coinbase": false,
      "sequence": 4294967295
    }
  ],
  "vout": [
    {
      "scriptpubkey": "76a914394c3c7981e757c245362187703b4e812c6652fc88ac",
      "scriptpubkey_asm": "OP_DUP OP_HASH160 OP_PUSHBYTES_20 394c3c7981e757c245362187703b4e812c6652fc OP_EQUALVERIFY OP_CHECKSIG",
      "scriptpubkey_type": "p2pkh",
      "scriptpubkey_address": "16DxqvPCMrEyBvuMDxkc9Lgk4jYmCRbqaE",
      "value": 399000000
    },
    {
      "scriptpubkey": "76a9143f41884dda2604ddb09fe015da88d6345b91369b88ac",
      "scriptpubkey_asm": "OP_DUP OP_HASH160 OP_PUSHBYTES_20 3f41884dda2604ddb09fe015da88d6345b91369b OP_EQUALVERIFY OP_CHECKSIG",
      "scriptpubkey_type": "p2pkh",
      "scriptpubkey_address": "16mU5MpSAXMSF7gnmYxEzBY5vWyQeQaS43",
      "value": 71646495574
    }
  ],
  "size": 226,
  "weight": 904,
  "fee": 11841,
  "status": {
    "confirmed": true,
    "block_height": 834638,
    "block_hash": "000000000000000000025f742c626208ac87e0b7d15054abb4a19ca2d735a54e",
    "block_time": 1710405325
  },
  "hex": "0100000001e2f96094d99c1a97fb1ec0bc7962b078bf373d727eb6ea91955f9d9104edbfc0010000006b483045022100bfa227baae7f67e9077b8f35d57d378d8f98e30d593f98d1ab5b152ba3fa41b00220200d07f3279b0c4b9147bb5ff91a3b70b97ffdbbd58ae29b907c3ab58e87e55801210278f837d426608340ed98f6502f5b93569391b2fe6a6f0a8e1bafe7612db6b47dffffffff02c041c817000000001976a914394c3c7981e757c245362187703b4e812c6652fc88ac56c376ae100000001976a9143f41884dda2604ddb09fe015da88d6345b91369b88ac00000000"
}