{
  "txid": "e4e0b5e1999ddf993f60bf13c1bc0d8d7f36821c0ee933f295d9696b79a11b02",
  "version": 2,
  "locktime": 0,
  "vin": [
    {
      "txid": "786850dd22606b7ecffc10fd195df211b6111b7a66be29d35e1cce400e81161b",
      "vout": 5,
      "prevout": {
        "scriptpubkey": "51209e01b553a9fe6beeea8385deb62ca26dd6e130c6037bd93475e29fcce193cb0a",
        "scriptpubkey_asm": "OP_PUSHNUM_1 OP_PUSHBYTES_32 9e01b553a9fe6beeea8385deb62ca26dd6e130c6037bd93475e29fcce193cb0a",
        "scriptpubkey_type": "v1_p2tr",
        "scriptpubkey_address": "bc1pncqm25afle47a65rsh0tvt9zdhtwzvxxqdaajdr4u20uecvnev9qumvt2j",
        "value": 81156
      },
      "scriptsig": "",
      "scriptsig_asm": "",
      "witness": [
        "85cb8e93eab880fa4ace605cfcea5c7691f14e6455c89a1fe063cd2cd9b0845f676d94d386b9cc564f6ff5d74199fdfba4e807ea7d12f9b0a8006ac7b5ca60d5"
      ],
      "is_coinbase": false,
      "sequence": 2147483649
    }
  ],
  "vout": [
    {
      "scriptpubkey": "5120948137bef079e9948ced5f0a3b289144d1cfcd8107f1140e45463895bd14f23d",
      "scriptpubkey_asm": "OP_PUSHNUM_1 OP_PUSHBYTES_32 948137bef079e9948ced5f0a3b289144d1cfcd8107f1140e45463895bd14f23d",
      "scriptpubkey_type": "v1_p2tr",
      "scriptpubkey_address": "bc1pjjqn00hs085efr8dtu9rk2y3gngulnvpqlc3grj9gcuft0g57g7sgnhhc2",
      "value": 78000
    }
  ],
  "size": 162,
  "weight": 444,
  "fee": 3156,
  "status": {
    "confirmed": true,
    "block_height": 834638,
    "block_hash": "000000000000000000025f742c626208ac87e0b7d15054abb4a19ca2d735a54e",
    "block_time": 1710405325
  },
  "hex": "020000000001011b16810e40ce1c5ed329be667a1b11b611f25d19fd10fccf7e6b6022dd50687805000000000100008001b030010000000000225120948137bef079e9948ced5f0a3b289144d1cfcd8107f1140e45463895bd14f23d014085cb8e93eab880fa4ace605cfcea5c7691f14e6455c89a1fe063cd2cd9b0845f676d94d386b9cc564f6ff5d74199fdfba4e807ea7d12f9b0a8006ac7b5ca60d500000000"
}