{
  "txid": "e4e717b41ccd44bcfcb4b8b955ea847bd5f674ec89b2ec88ae3cd795ca1dc2dc",
  "version": 2,
  "locktime": 0,
  "vin": [
    {
      "txid": "a03039a1b827b971835c42b5994035715da1035e6864f121fcc56f07673a7e4c",
      "vout": 0,
      "prevout": {
        "scriptpubkey": "001421384cb60e399442584e9de593ab79f5d87a50ca",
        "scriptpubkey_asm": "OP_0 OP_PUSHBYTES_20 21384cb60e399442584e9de593ab79f5d87a50ca",
        "scriptpubkey_type": "v0_p2wpkh",
        "scriptpubkey_address": "bc1qyyuyedsw8x2yykzwnhje82me7hv855x20fuxtk",
        "value": 82730315
      },
      "scriptsig": "",
      "scriptsig_asm": "",
      "witness": [
        "304402207e4801fc5755a206ed6282d072ff397c20803a2376b5de5d8233b06b05d5e4d60220439cc81992fa639788412c90954b304dcbf06b2e313ae477a1e4cecce7a442c101",
        "0289404c5d22bf6aac909f80da80e3d91b6bf9c342f2b70e0d44ef4b362eab5da0"
      ],
      "is_coinbase": false,
      "sequence": 4294967295
    }
  ],
  "vout": [
    {
      "scriptpubkey": "0020f62cfb585c3fc682ea2f963e5fef0f1fd51c244cb77b70944249fd7698bc4287",
      "scriptpubkey_asm": "OP_0 OP_PUSHBYTES_32 f62cfb585c3fc682ea2f963e5fef0f1fd51c244cb77b70944249fd7698bc4287",
      "scriptpubkey_type": "v0_p2wsh",
      "scriptpubkey_address": "bc1q7ck0kkzu8lrg9630jcl9lmc0rl23cfzvkaahp9zzf87hdx9ug2rsxt6er6",
      "value": 16770000
    },
    {
      "scriptpubkey": "0014af4ac5ea37faf0ba4e196d06a882fc2e81f2c38b",
      "scriptpubkey_asm": "OP_0 OP_PUSHBYTES_20 af4ac5ea37faf0ba4e196d06a882fc2e81f2c38b",
      "scriptpubkey_type": "v0_p2wpkh",
      "scriptpubkey_address": "bc1q4a9vt63hltct5nsed5r23qhu96ql9sut8zh9rm",
      "value": 65958769
    }
  ],
  "size": 234,
  "weight": 609,
  "fee": 1546,
  "status": {
    "confirmed": true,
    "block_height": 834638,
    "block_hash": "000000000000000000025f742c626208ac87e0b7d15054abb4a19ca2d735a54e",
    "block_time": 1710405325
  },
  "hex": "020000000001014c7e3a67076fc5fc21f164685e03a15d71354099b5425c8371b927b8a13930a00000000000ffffffff02d0e3ff0000000000220020f62cfb585c3fc682ea2f963e5fef0f1fd51c244cb77b70944249fd7698bc42877173ee0300000000160014af4ac5ea37faf0ba4e196d06a882fc2e81f2c38b0247304402207e4801fc5755a206ed6282d072ff397c20803a2376b5de5d8233b06b05d5e4d60220439cc81992fa639788412c90954b304dcbf06b2e313ae477a1e4cecce7a442c101210289404c5d22bf6aac909f80da80e3d91b6bf9c342f2b70e0d44ef4b362eab5da000000000"
}