{
  "txid": "e4f69d3b7a8a5c2966381efeb2055708ce462937b73f4bc362a5f7c286333f12",
  "version": 1,
  "locktime": 0,
  "vin": [
    {
      "txid": "31fc4acfbb13770f4c61dc0d752eaaecdc06cf9ec1334ac609e76cf632f40241",
      "vout": 35,
      "prevout": {
        "scriptpubkey": "00144b8feeea50562d73bc63d6f8457033e3b205e976",
        "scriptpubkey_asm": "OP_0 OP_PUSHBYTES_20 4b8feeea50562d73bc63d6f8457033e3b205e976",
        "scriptpubkey_type": "v0_p2wpkh",
        "scriptpubkey_address": "bc1qfw87a6js2ckh80rr6muy2upnuweqt6tk23uw35",
        "value": 24070
      },
      "scriptsig": "",
      "scriptsig_asm": "",
      "witness": [
        "304402201ec526d8582b6744c1fe913a07f44ba2f1732739775b3e1d48ebe8f65653330302207a66f4c2a981d91e0043659b8669902406e749c95e5f8fa5149b8e37be95b13a01",
        "033fb0b16ed5c070988ad3b88a7b6657c8958ff4c7e9b0ba528a3a962d0b22307c"
      ],
      "is_coinbase": false,
      "sequence": 4294967293
    },
    {
      "txid": "31fc4acfbb13770f4c61dc0d752eaaecdc06cf9ec1334ac609e76cf632f40241",
      "vout": 50,
      "prevout": {
        "scriptpubkey": "0014cbaafdcd755a67ffc8d1634b989cb7e598251fdb",
        "scriptpubkey_asm": "OP_0 OP_PUSHBYTES_20 cbaafdcd755a67ffc8d1634b989cb7e598251fdb",
        "scriptpubkey_type": "v0_p2wpkh",
        "scriptpubkey_address": "bc1qew40mnt4tfnlljx3vd9e389hukvz287m0l294u",
        "value": 24069
      },
      "scriptsig": "",
      "scriptsig_asm": "",
      "witness": [
        "30440220290a30f96f3c084602d925b4624e03873644721e2b47a027d57d21b31490a8a70220526ef318748e3865b105b8c84bb035e2c67d5c20809a37e9bf2d39eed7f9561801",
        "023d6c034cfa55608c9b06ea98031afd1cb34b0660a26683c2aa7979b6b59c9a13"
      ],
      "is_coinbase": false,
      "sequence": 4294967293
    },
    {
      "txid": "1d5cdaf99d3e7e1032e235febaa0fa1a0295c47419e595aa981fce88621ec360",
      "vout": 51,
      "prevout": {
        "scriptpubkey": "0014937c328a463747fcaf1f3c30c8240750c06b2a91",
        "scriptpubkey_asm": "OP_0 OP_PUSHBYTES_20 937c328a463747fcaf1f3c30c8240750c06b2a91",
        "scriptpubkey_type": "v0_p2wpkh",
        "scriptpubkey_address": "bc1qjd7r9zjxxarletcl8scvsfq82rqxk253pat2u3",
        "value": 24064
      },
      "scriptsig": "",
      "scriptsig_asm": "",
      "witness": [
        "3045022100862bd472d94572275385d30d382407bbb6887c104965aca00f2a9b4b4c780b8a022026c59865ccd13c5021d6894666602c9f1ed106487f04f55f66f8696cfa56c38301",
        "0203da1f7279185e3f362279b64d5b33b5c4fdc1306b282ec5749953ccfdadd28a"
      ],
      "is_coinbase": false,
      "sequence": 4294967293
    },
    {
      "txid": "bcda30dc5c73b018ee5817886e3ba92ec1fde5fc3c7c3aeeac1abc64dcec55c0",
      "vout": 64,
      "prevout": {
        "scriptpubkey": "00142a7c2ab0edbe41d61cbbc962e80f416744265b7f",
        "scriptpubkey_asm": "OP_0 OP_PUSHBYTES_20 2a7c2ab0edbe41d61cbbc962e80f416744265b7f",
        "scriptpubkey_type": "v0_p2wpkh",
        "scriptpubkey_address": "bc1q9f7z4v8dheqav89me93wsr6pvazzvkml6npay3",
        "value": 24063
      },
      "scriptsig": "",
      "scriptsig_asm": "",
      "witness": [
        "3044022056eaa56c5cfd52d306ed6a79d83d00bbf50566b52064681f57c7b187cea7e85402200dea191540c40e361d9504e6e92524f19972e96433fc6380426a439ff87c49d201",
        "02d01fd972775355142b7ccdfed765b78ea2ad17f3b48485c9a0239a05a56ed52a"
      ],
      "is_coinbase": false,
      "sequence": 4294967293
    },
    {
      "txid": "1bb7469a00e4c50618e102533ad0c5b4bedf6fd724397f79036a168a9ca48150",
      "vout": 6,
      "prevout": {
        "scriptpubkey": "001490a4506dd27b3e88073ebbcd705ee186a39b6e11",
        "scriptpubkey_asm": "OP_0 OP_PUSHBYTES_20 90a4506dd27b3e88073ebbcd705ee186a39b6e11",
        "scriptpubkey_type": "v0_p2wpkh",
        "scriptpubkey_address": "bc1qjzj9qmwj0vlgspe7h0xhqhhps63ekms3qjfxkv",
        "value": 24060
      },
      "scriptsig": "",
      "scriptsig_asm": "",
      "witness": [
        "304402202155cbe5addd60075e8872f3384e52fd50e42fcde68d2c4f9509ecf096954da302206befe66a349e6f545a9b5b9e36d9b8161aca55c26580f1396d1c52e84226951f01",
        "03302c937ce281d9724e69b26fcecce038ec9ad2c8b6f17fb42b02c9282f2c5c15"
      ],
      "is_coinbase": false,
      "sequence": 4294967293
    }
  ],
  "vout": [
    {
      "scriptpubkey": "0014bac9783910a3ea79cc1f96db45776baea2f48092",
      "scriptpubkey_asm": "OP_0 OP_PUSHBYTES_20 bac9783910a3ea79cc1f96db45776baea2f48092",
      "scriptpubkey_type": "v0_p2wpkh",
      "scriptpubkey_address": "bc1qhtyhswgs5048nnqljmd52amt4630fqyj2rw86q",
      "value": 108806
    }
  ],
  "size": 784,
  "weight": 1522,
  "fee": 11520,
  "status": {
    "confirmed": true,
    "block_height": 834638,
    "block_hash": "000000000000000000025f742c626208ac87e0b7d15054abb4a19ca2d735a54e",
    "block_time": 1710405325
  },
  "hex": "010000000001054102f432f66ce709c64a33c19ecf06dcecaa2e750ddc614c0f7713bbcf4afc312300000000fdffffff4102f432f66ce709c64a33c19ecf06dcecaa2e750ddc614c0f7713bbcf4afc313200000000fdffffff60c31e6288ce1f98aa95e51974c495021afaa0bafe35e232107e3e9df9da5c1d3300000000fdffffffc055ecdc64bc1aacee3a7c3cfce5fdc12ea93b6e881758ee18b0735cdc30dabc4000000000fdffffff5081a49c8a166a03797f3924d76fdfbeb4c5d03a5302e11806c5e4009a46b71b0600000000fdffffff0106a9010000000000160014bac9783910a3ea79cc1f96db45776baea2f480920247304402201ec526d8582b6744c1fe913a07f44ba2f1732739775b3e1d48ebe8f65653330302207a66f4c2a981d91e0043659b8669902406e749c95e5f8fa5149b8e37be95b13a0121033fb0b16ed5c070988ad3b88a7b6657c8958ff4c7e9b0ba528a3a962d0b22307c024730440220290a30f96f3c084602d925b4624e03873644721e2b47a027d57d21b31490a8a70220526ef318748e3865b105b8c84bb035e2c67d5c20809a37e9bf2d39eed7f956180121023d6c034cfa55608c9b06ea98031afd1cb34b0660a26683c2aa7979b6b59c9a1302483045022100862bd472d94572275385d30d382407bbb6887c104965aca00f2a9b4b4c780b8a022026c59865ccd13c5021d6894666602c9f1ed106487f04f55f66f8696cfa56c38301210203da1f7279185e3f362279b64d5b33b5c4fdc1306b282ec5749953ccfdadd28a02473044022056eaa56c5cfd52d306ed6a79d83d00bbf50566b52064681f57c7b187cea7e85402200dea191540c40e361d9504e6e92524f19972e96433fc6380426a439ff87c49d2012102d01fd972775355142b7ccdfed765b78ea2ad17f3b48485c9a0239a05a56ed52a0247304402202155cbe5addd60075e8872f3384e52fd50e42fcde68d2c4f9509ecf096954da302206befe66a349e6f545a9b5b9e36d9b8161aca55c26580f1396d1c52e84226951f012103302c937ce281d9724e69b26fcecce038ec9ad2c8b6f17fb42b02c9282f2c5c1500000000"
}