{
  "txid": "e507c3d2a935b33265e3c93b1801b3189c2d6105fc81993815f137743616acf4",
  "version": 2,
  "locktime": 0,
  "vin": [
    {
      "txid": "6b72c32e64104eccc67e3071708798f73f8cc05b336840fa3f4cbc7395d8202e",
      "vout": 0,
      "prevout": {
        "scriptpubkey": "512052032e5bfed4fab711cf61e898d5f63a0d91d64c4314a0b11377d720b2afa00a",
        "scriptpubkey_asm": "OP_PUSHNUM_1 OP_PUSHBYTES_32 52032e5bfed4fab711cf61e898d5f63a0d91d64c4314a0b11377d720b2afa00a",
        "scriptpubkey_type": "v1_p2tr",
        "scriptpubkey_address": "bc1p2gpjukl76natwyw0v85f340k8gxer4jvgv22pvgnwltjpv405q9qsl8l60",
        "value": 2826
      },
      "scriptsig": "",
      "scriptsig_asm": "",
      "witness": [
        "d7975c22c1285b0ecc8db98ba244796d59b26502b221bc4dfa88b36bc6f919fb5d26999f7c3c787312765ed0c1bef80b4b6d337801de40db8cc8b536dd560c94",
        "2069ee0ecde05ede761613b370e773b54a0cee565883f1c59656cb7e37f96f00d8ac0063036f7264010118746578742f706c61696e3b636861727365743d7574662d38003a7b2270223a226272632d3230222c226f70223a227472616e73666572222c227469636b223a2244657044222c22616d74223a223530303030227d68",
        "c169ee0ecde05ede761613b370e773b54a0cee565883f1c59656cb7e37f96f00d8"
      ],
      "is_coinbase": false,
      "sequence": 4294967293
    }
  ],
  "vout": [
    {
      "scriptpubkey": "51207a5d9e63c1881daa6c1e41c92f477d0eba9587e0ff6ecb36ab3a6ba508a2d14b",
      "scriptpubkey_asm": "OP_PUSHNUM_1 OP_PUSHBYTES_32 7a5d9e63c1881daa6c1e41c92f477d0eba9587e0ff6ecb36ab3a6ba508a2d14b",
      "scriptpubkey_type": "v1_p2tr",
      "scriptpubkey_address": "bc1p0fweuc7p3qw65mq7g8yj73map6aftplqlahvkd4t8f462z9z699s0v92qk",
      "value": 546
    }
  ],
  "size": 325,
  "weight": 607,
  "fee": 2280,
  "status": {
    "confirmed": true,
    "block_height": 834460,
    "block_hash": "00000000000000000000484a79b643b2524bbce82e5d8a442013fa5b8905ed98",
    "block_time": 1710307468
  },
  "hex": "020000000001012e20d89573bc4c3ffa4068335bc08c3ff798877071307ec6cc4e10642ec3726b0000000000fdffffff0122020000000000002251207a5d9e63c1881daa6c1e41c92f477d0eba9587e0ff6ecb36ab3a6ba508a2d14b0340d7975c22c1285b0ecc8db98ba244796d59b26502b221bc4dfa88b36bc6f919fb5d26999f7c3c787312765ed0c1bef80b4b6d337801de40db8cc8b536dd560c94802069ee0ecde05ede761613b370e773b54a0cee565883f1c59656cb7e37f96f00d8ac0063036f7264010118746578742f706c61696e3b636861727365743d7574662d38003a7b2270223a226272632d3230222c226f70223a227472616e73666572222c227469636b223a2244657044222c22616d74223a223530303030227d6821c169ee0ecde05ede761613b370e773b54a0cee565883f1c59656cb7e37f96f00d800000000"
}