{
  "txid": "e516e6427dcaab45ccc0704c8046b878a11bdc0a86967ee40f01320b161a8d58",
  "version": 2,
  "locktime": 834550,
  "vin": [
    {
      "txid": "067e773ffacf4cefe650a3b9c6c2840e1c731f629a9cbc8c564cace5dffd0946",
      "vout": 3,
      "prevout": {
        "scriptpubkey": "76a914de53d988001854b22d54b8a9c1d596dfa0a3873e88ac",
        "scriptpubkey_asm": "OP_DUP OP_HASH160 OP_PUSHBYTES_20 de53d988001854b22d54b8a9c1d596dfa0a3873e OP_EQUALVERIFY OP_CHECKSIG",
        "scriptpubkey_type": "p2pkh",
        "scriptpubkey_address": "1MGZTZwBaixWrk7ysgdEjLnGcfvAiGzhu1",
        "value": 2837100
      },
      "scriptsig": "4730440220538a0d33b615e1b7b601e60f06c5e35ca9f20832c02a5c66047381e76c08fb7c02206dd8ca51ab55d1ff2b469a8dc6d9671cd200e861507f241f9effd54583098f31012103649a51bc47e4a9aa88d201be1199d872ecf2ce0d7b3c8e12b3edf085aae329a9",
      "scriptsig_asm": "OP_PUSHBYTES_71 30440220538a0d33b615e1b7b601e60f06c5e35ca9f20832c02a5c66047381e76c08fb7c02206dd8ca51ab55d1ff2b469a8dc6d9671cd200e861507f241f9effd54583098f3101 OP_PUSHBYTES_33 03649a51bc47e4a9aa88d201be1199d872ecf2ce0d7b3c8e12b3edf085aae329a9",
      "is_coinbase": false,
      "sequence": 4294967293
    }
  ],
  "vout": [
    {
      "scriptpubkey": "0014c7dee301cc36aec476cd932979c245bd1e4df9ca",
      "scriptpubkey_asm": "OP_0 OP_PUSHBYTES_20 c7dee301cc36aec476cd932979c245bd1e4df9ca",
      "scriptpubkey_type": "v0_p2wpkh",
      "scriptpubkey_address": "bc1qcl0wxqwvx6hvgakdjv5hnsj9h50ym7w27kn2ky",
      "value": 1366459
    },
    {
      "scriptpubkey": "76a91420c7a47e835242b340708a851fc1efde66bd330388ac",
      "scriptpubkey_asm": "OP_DUP OP_HASH160 OP_PUSHBYTES_20 20c7a47e835242b340708a851fc1efde66bd3303 OP_EQUALVERIFY OP_CHECKSIG",
      "scriptpubkey_type": "p2pkh",
      "scriptpubkey_address": "13zKnYhT723eJnVHPnnen1gwE4S1zedjNr",
      "value": 1467742
    }
  ],
  "size": 222,
  "weight": 888,
  "fee": 2899,
  "status": {
    "confirmed": true,
    "block_height": 834552,
    "block_hash": "00000000000000000001dd0468a70c94f619251d286585cff57aeb4bd9ede330",
    "block_time": 1710355598
  },
  "hex": "02000000014609fddfe5ac4c568cbc9c9a621f731c0e84c2c6b9a350e6ef4ccffa3f777e06030000006a4730440220538a0d33b615e1b7b601e60f06c5e35ca9f20832c02a5c66047381e76c08fb7c02206dd8ca51ab55d1ff2b469a8dc6d9671cd200e861507f241f9effd54583098f31012103649a51bc47e4a9aa88d201be1199d872ecf2ce0d7b3c8e12b3edf085aae329a9fdffffff02bbd9140000000000160014c7dee301cc36aec476cd932979c245bd1e4df9ca5e651600000000001976a91420c7a47e835242b340708a851fc1efde66bd330388acf6bb0c00"
}