{
  "txid": "e51cbe6271c5e60d69f81019e9bfe11d65f3ff458f812e55d256b22e7b27cc31",
  "version": 2,
  "locktime": 0,
  "vin": [
    {
      "txid": "83f2d609a0a82ed97661fa276b1cce7843a6400c225ebba5447f12e2ba0bf906",
      "vout": 43,
      "prevout": {
        "scriptpubkey": "00144d6d7dc472230acfe36e8cf614450d7eb1234b46",
        "scriptpubkey_asm": "OP_0 OP_PUSHBYTES_20 4d6d7dc472230acfe36e8cf614450d7eb1234b46",
        "scriptpubkey_type": "v0_p2wpkh",
        "scriptpubkey_address": "bc1qf4khm3rjyv9vlcmw3nmpg3gd06cjxj6x08chxe",
        "value": 434476
      },
      "scriptsig": "",
      "scriptsig_asm": "",
      "witness": [
        "3044022068de84678748f991aac4a45afc9844649d37b8c923cc995481f9bac20127b6a502205a045cf2193c81351036a8fa7612ff29ed3e564de19bfb297914e6ae9ac48a7501",
        "026e0c42c150164d104e87b11e12982aeab6485574fb1ade6ed624cea78704a1f4"
      ],
      "is_coinbase": false,
      "sequence": 4294967293
    }
  ],
  "vout": [
    {
      "scriptpubkey": "76a914a0b66ba59d657d6bf5e5b466ad08a6e543bdc2fd88ac",
      "scriptpubkey_asm": "OP_DUP OP_HASH160 OP_PUSHBYTES_20 a0b66ba59d657d6bf5e5b466ad08a6e543bdc2fd OP_EQUALVERIFY OP_CHECKSIG",
      "scriptpubkey_type": "p2pkh",
      "scriptpubkey_address": "1FemeVV8jS9fhozqkYfmp6y7tx5HDN5EG1",
      "value": 433256
    }
  ],
  "size": 194,
  "weight": 449,
  "fee": 1220,
  "status": {
    "confirmed": true,
    "block_height": 834464,
    "block_hash": "0000000000000000000177a0869a911a2b65c9bdcd5a8bcb02b68f305bee848e",
    "block_time": 1710308296
  },
  "hex": "0200000000010106f90bbae2127f44a5bb5e220c40a64378ce1c6b27fa6176d92ea8a009d6f2832b00000000fdffffff01689c0600000000001976a914a0b66ba59d657d6bf5e5b466ad08a6e543bdc2fd88ac02473044022068de84678748f991aac4a45afc9844649d37b8c923cc995481f9bac20127b6a502205a045cf2193c81351036a8fa7612ff29ed3e564de19bfb297914e6ae9ac48a750121026e0c42c150164d104e87b11e12982aeab6485574fb1ade6ed624cea78704a1f400000000"
}