{
  "txid": "e51d71d2873dabf714e6d8d86b13b57ec7fb9bcd52b2ecb586b0732b6f51127b",
  "version": 2,
  "locktime": 0,
  "vin": [
    {
      "txid": "5b8d944d728a42409d6f4ee71ba11fd8a22cd418c4864dca14168bf35ceef950",
      "vout": 0,
      "prevout": {
        "scriptpubkey": "a914532474c9fab1eee3f90fa5f5e3fd49c96c33f45287",
        "scriptpubkey_asm": "OP_HASH160 OP_PUSHBYTES_20 532474c9fab1eee3f90fa5f5e3fd49c96c33f452 OP_EQUAL",
        "scriptpubkey_type": "p2sh",
        "scriptpubkey_address": "39GdgVDgX2MagjofSCi7DY3TJ55qzqhX2P",
        "value": 9100000
      },
      "scriptsig": "1600149ecde5fa5497d2a8bccd626906d0300dbfb07e04",
      "scriptsig_asm": "OP_PUSHBYTES_22 00149ecde5fa5497d2a8bccd626906d0300dbfb07e04",
      "witness": [
        "3044022004e9c9530e8ac98a94d2ef76338db96b7d48d5799ff6ceae44f535303ad78f090220556679b2e258a74ee0bf80017cfac327bf14198a4bf2859a41d41d0ed46e257c01",
        "022c94fa0a18c52b71ed1ff65aa37da936d98f212425694b0fcd771c35d4dd74ff"
      ],
      "is_coinbase": false,
      "sequence": 4294967295,
      "inner_redeemscript_asm": "OP_0 OP_PUSHBYTES_20 9ecde5fa5497d2a8bccd626906d0300dbfb07e04"
    }
  ],
  "vout": [
    {
      "scriptpubkey": "a914532474c9fab1eee3f90fa5f5e3fd49c96c33f45287",
      "scriptpubkey_asm": "OP_HASH160 OP_PUSHBYTES_20 532474c9fab1eee3f90fa5f5e3fd49c96c33f452 OP_EQUAL",
      "scriptpubkey_type": "p2sh",
      "scriptpubkey_address": "39GdgVDgX2MagjofSCi7DY3TJ55qzqhX2P",
      "value": 600
    },
    {
      "scriptpubkey": "a914532474c9fab1eee3f90fa5f5e3fd49c96c33f45287",
      "scriptpubkey_asm": "OP_HASH160 OP_PUSHBYTES_20 532474c9fab1eee3f90fa5f5e3fd49c96c33f452 OP_EQUAL",
      "scriptpubkey_type": "p2sh",
      "scriptpubkey_address": "39GdgVDgX2MagjofSCi7DY3TJ55qzqhX2P",
      "value": 600
    },
    {
      "scriptpubkey": "a914532474c9fab1eee3f90fa5f5e3fd49c96c33f45287",
      "scriptpubkey_asm": "OP_HASH160 OP_PUSHBYTES_20 532474c9fab1eee3f90fa5f5e3fd49c96c33f452 OP_EQUAL",
      "scriptpubkey_type": "p2sh",
      "scriptpubkey_address": "39GdgVDgX2MagjofSCi7DY3TJ55qzqhX2P",
      "value": 600
    },
    {
      "scriptpubkey": "a914532474c9fab1eee3f90fa5f5e3fd49c96c33f45287",
      "scriptpubkey_asm": "OP_HASH160 OP_PUSHBYTES_20 532474c9fab1eee3f90fa5f5e3fd49c96c33f452 OP_EQUAL",
      "scriptpubkey_type": "p2sh",
      "scriptpubkey_address": "39GdgVDgX2MagjofSCi7DY3TJ55qzqhX2P",
      "value": 600
    },
    {
      "scriptpubkey": "a914532474c9fab1eee3f90fa5f5e3fd49c96c33f45287",
      "scriptpubkey_asm": "OP_HASH160 OP_PUSHBYTES_20 532474c9fab1eee3f90fa5f5e3fd49c96c33f452 OP_EQUAL",
      "scriptpubkey_type": "p2sh",
      "scriptpubkey_address": "39GdgVDgX2MagjofSCi7DY3TJ55qzqhX2P",
      "value": 600
    },
    {
      "scriptpubkey": "a914532474c9fab1eee3f90fa5f5e3fd49c96c33f45287",
      "scriptpubkey_asm": "OP_HASH160 OP_PUSHBYTES_20 532474c9fab1eee3f90fa5f5e3fd49c96c33f452 OP_EQUAL",
      "scriptpubkey_type": "p2sh",
      "scriptpubkey_address": "39GdgVDgX2MagjofSCi7DY3TJ55qzqhX2P",
      "value": 600
    },
    {
      "scriptpubkey": "a914532474c9fab1eee3f90fa5f5e3fd49c96c33f45287",
      "scriptpubkey_asm": "OP_HASH160 OP_PUSHBYTES_20 532474c9fab1eee3f90fa5f5e3fd49c96c33f452 OP_EQUAL",
      "scriptpubkey_type": "p2sh",
      "scriptpubkey_address": "39GdgVDgX2MagjofSCi7DY3TJ55qzqhX2P",
      "value": 600
    },
    {
      "scriptpubkey": "a914532474c9fab1eee3f90fa5f5e3fd49c96c33f45287",
      "scriptpubkey_asm": "OP_HASH160 OP_PUSHBYTES_20 532474c9fab1eee3f90fa5f5e3fd49c96c33f452 OP_EQUAL",
      "scriptpubkey_type": "p2sh",
      "scriptpubkey_address": "39GdgVDgX2MagjofSCi7DY3TJ55qzqhX2P",
      "value": 600
    },
    {
      "scriptpubkey": "a914532474c9fab1eee3f90fa5f5e3fd49c96c33f45287",
      "scriptpubkey_asm": "OP_HASH160 OP_PUSHBYTES_20 532474c9fab1eee3f90fa5f5e3fd49c96c33f452 OP_EQUAL",
      "scriptpubkey_type": "p2sh",
      "scriptpubkey_address": "39GdgVDgX2MagjofSCi7DY3TJ55qzqhX2P",
      "value": 600
    },
    {
      "scriptpubkey": "a914532474c9fab1eee3f90fa5f5e3fd49c96c33f45287",
      "scriptpubkey_asm": "OP_HASH160 OP_PUSHBYTES_20 532474c9fab1eee3f90fa5f5e3fd49c96c33f452 OP_EQUAL",
      "scriptpubkey_type": "p2sh",
      "scriptpubkey_address": "39GdgVDgX2MagjofSCi7DY3TJ55qzqhX2P",
      "value": 600
    },
    {
      "scriptpubkey": "a914532474c9fab1eee3f90fa5f5e3fd49c96c33f45287",
      "scriptpubkey_asm": "OP_HASH160 OP_PUSHBYTES_20 532474c9fab1eee3f90fa5f5e3fd49c96c33f452 OP_EQUAL",
      "scriptpubkey_type": "p2sh",
      "scriptpubkey_address": "39GdgVDgX2MagjofSCi7DY3TJ55qzqhX2P",
      "value": 9086736
    }
  ],
  "size": 535,
  "weight": 1813,
  "fee": 7264,
  "status": {
    "confirmed": true,
    "block_height": 834638,
    "block_hash": "000000000000000000025f742c626208ac87e0b7d15054abb4a19ca2d735a54e",
    "block_time": 1710405325
  },
  "hex": "0200000000010150f9ee5cf38b1614ca4d86c418d42ca2d81fa11be74e6f9d40428a724d948d5b00000000171600149ecde5fa5497d2a8bccd626906d0300dbfb07e04ffffffff0b580200000000000017a914532474c9fab1eee3f90fa5f5e3fd49c96c33f45287580200000000000017a914532474c9fab1eee3f90fa5f5e3fd49c96c33f45287580200000000000017a914532474c9fab1eee3f90fa5f5e3fd49c96c33f45287580200000000000017a914532474c9fab1eee3f90fa5f5e3fd49c96c33f45287580200000000000017a914532474c9fab1eee3f90fa5f5e3fd49c96c33f45287580200000000000017a914532474c9fab1eee3f90fa5f5e3fd49c96c33f45287580200000000000017a914532474c9fab1eee3f90fa5f5e3fd49c96c33f45287580200000000000017a914532474c9fab1eee3f90fa5f5e3fd49c96c33f45287580200000000000017a914532474c9fab1eee3f90fa5f5e3fd49c96c33f45287580200000000000017a914532474c9fab1eee3f90fa5f5e3fd49c96c33f4528710a78a000000000017a914532474c9fab1eee3f90fa5f5e3fd49c96c33f4528702473044022004e9c9530e8ac98a94d2ef76338db96b7d48d5799ff6ceae44f535303ad78f090220556679b2e258a74ee0bf80017cfac327bf14198a4bf2859a41d41d0ed46e257c0121022c94fa0a18c52b71ed1ff65aa37da936d98f212425694b0fcd771c35d4dd74ff00000000"
}