{
  "txid": "e51ef88f3ac585d5a776f026977dc229c81e68b360f8cef21dcbec48844f90ec",
  "version": 1,
  "locktime": 0,
  "vin": [
    {
      "txid": "e90d0346c5c20c81803d3e8276fc32df712b230e4e190c34439bedb60001cfe2",
      "vout": 1,
      "prevout": {
        "scriptpubkey": "0014c55d2ba0cc68d1c09c65abb370777d9ecc79a171",
        "scriptpubkey_asm": "OP_0 OP_PUSHBYTES_20 c55d2ba0cc68d1c09c65abb370777d9ecc79a171",
        "scriptpubkey_type": "v0_p2wpkh",
        "scriptpubkey_address": "bc1qc4wjhgxvdrgup8r94wehqamanmx8ngt3drrrfx",
        "value": 59984550
      },
      "scriptsig": "",
      "scriptsig_asm": "",
      "witness": [
        "30450221009b12cf3e244bc7a3025470893f45eba8a8d82961d1a0f18afe74905790c9ff12022038a813c45137424390e35340a28910910d3c9543e04472399619d08064d2ed4401",
        "02523e4f963af105f7ed344f77051daec33c0984510fec06c2ccb62e86b90fd4a1"
      ],
      "is_coinbase": false,
      "sequence": 4294967293
    }
  ],
  "vout": [
    {
      "scriptpubkey": "0014786830c66c523e2a39b7dd95606412d6431de765",
      "scriptpubkey_asm": "OP_0 OP_PUSHBYTES_20 786830c66c523e2a39b7dd95606412d6431de765",
      "scriptpubkey_type": "v0_p2wpkh",
      "scriptpubkey_address": "bc1q0p5rp3nv2glz5wdhmk2kqeqj6ep3mem9g37dar",
      "value": 20000000
    },
    {
      "scriptpubkey": "0014d18402fc0ccd68606bce53dd4f154d6d5543aeaa",
      "scriptpubkey_asm": "OP_0 OP_PUSHBYTES_20 d18402fc0ccd68606bce53dd4f154d6d5543aeaa",
      "scriptpubkey_type": "v0_p2wpkh",
      "scriptpubkey_address": "bc1q6xzq9lqve45xq67w20w5792dd4258t42n3hn8s",
      "value": 39981448
    }
  ],
  "size": 223,
  "weight": 562,
  "fee": 3102,
  "status": {
    "confirmed": true,
    "block_height": 834638,
    "block_hash": "000000000000000000025f742c626208ac87e0b7d15054abb4a19ca2d735a54e",
    "block_time": 1710405325
  },
  "hex": "01000000000101e2cf0100b6ed9b43340c194e0e232b71df32fc76823e3d80810cc2c546030de90100000000fdffffff02002d310100000000160014786830c66c523e2a39b7dd95606412d6431de7658811620200000000160014d18402fc0ccd68606bce53dd4f154d6d5543aeaa024830450221009b12cf3e244bc7a3025470893f45eba8a8d82961d1a0f18afe74905790c9ff12022038a813c45137424390e35340a28910910d3c9543e04472399619d08064d2ed44012102523e4f963af105f7ed344f77051daec33c0984510fec06c2ccb62e86b90fd4a100000000"
}