{
  "txid": "e52984bb6962c7885407710b5850f2adca1c803830a8c9ea1c44e412be9696b3",
  "version": 2,
  "locktime": 0,
  "vin": [
    {
      "txid": "399bbf3f7f37f6fd87ba6b34aa49f6c505eb2793cf93741af9eae56a76d59d98",
      "vout": 6,
      "prevout": {
        "scriptpubkey": "0014f0a5eacd3945a90ffc3d165b44e204a48bcac88d",
        "scriptpubkey_asm": "OP_0 OP_PUSHBYTES_20 f0a5eacd3945a90ffc3d165b44e204a48bcac88d",
        "scriptpubkey_type": "v0_p2wpkh",
        "scriptpubkey_address": "bc1q7zj74nfegk5sllpazed5fcsy5j9u4jydzlna6w",
        "value": 4133129
      },
      "scriptsig": "",
      "scriptsig_asm": "",
      "witness": [
        "3044022068039522818e1d4f6f67f2d2b60c6500311c03146f220357fb5fd70cba2559bb02206d18523fb419a1bac37d4abe6dbbf4201f8dc3304c1c9047f9cc26d02bfb181101",
        "033b6f16e914e4a3efe34e9f84e2e1fd7761c63d386f877e5a089b33343cf3c525"
      ],
      "is_coinbase": false,
      "sequence": 0
    },
    {
      "txid": "c7e74531302fe20c82f020312f3c6884d65e011d80e8e796954090e52529dc8e",
      "vout": 1,
      "prevout": {
        "scriptpubkey": "0014b6bbd2631fc815a0bccbce4943c531dc705dcac1",
        "scriptpubkey_asm": "OP_0 OP_PUSHBYTES_20 b6bbd2631fc815a0bccbce4943c531dc705dcac1",
        "scriptpubkey_type": "v0_p2wpkh",
        "scriptpubkey_address": "bc1qk6aayccleq26p0xteey583f3m3c9mjkpyjec2h",
        "value": 3163414
      },
      "scriptsig": "",
      "scriptsig_asm": "",
      "witness": [
        "30440220231caa4f9cf43ecafa5fca98edd449141837c96f0ed8d97cd94a3a7b5d8713ff0220391b85ce167cedb5f4e73fdbb7d46590ae8f2b7efde9919ad4bfc2a14e8f472501",
        "03c53aba6bcd027decc57d8b14740d5664fc2a77878ce0e34ef28e382898d225cf"
      ],
      "is_coinbase": false,
      "sequence": 0
    },
    {
      "txid": "95498838b592dd04b741e779fe15bcda8d9f4c793a89ad5cff6a0aee4db2f2ce",
      "vout": 9,
      "prevout": {
        "scriptpubkey": "00140ac3eac61040dcd4840e44ed045afdbc10800ed8",
        "scriptpubkey_asm": "OP_0 OP_PUSHBYTES_20 0ac3eac61040dcd4840e44ed045afdbc10800ed8",
        "scriptpubkey_type": "v0_p2wpkh",
        "scriptpubkey_address": "bc1qptp743ssgrwdfpqwgnksgkhahsggqrkcgqpdvx",
        "value": 12284572
      },
      "scriptsig": "",
      "scriptsig_asm": "",
      "witness": [
        "3045022100e2c97df7985c31282ccff7fe1d488580d111bdf7e22aadec462025d38801720302203576193195533529132c7beae06a2473ef593915e5e61d140d7c7fbebfe6e44501",
        "03c42f8d8d90e5ea786f2500e0a8b3cbabe2027f3c6dbce5943a9e78aaf753ea7c"
      ],
      "is_coinbase": false,
      "sequence": 0
    }
  ],
  "vout": [
    {
      "scriptpubkey": "76a91400c63a51a9aa75ed9ca3733202c1961eabc963dc88ac",
      "scriptpubkey_asm": "OP_DUP OP_HASH160 OP_PUSHBYTES_20 00c63a51a9aa75ed9ca3733202c1961eabc963dc OP_EQUALVERIFY OP_CHECKSIG",
      "scriptpubkey_type": "p2pkh",
      "scriptpubkey_address": "1156U7Mh1CcPfjKoPX4hoFwYvqbEMvhEgD",
      "value": 10000000
    },
    {
      "scriptpubkey": "0014a687021c62512b8f46d049ec50dab19b18266c96",
      "scriptpubkey_asm": "OP_0 OP_PUSHBYTES_20 a687021c62512b8f46d049ec50dab19b18266c96",
      "scriptpubkey_type": "v0_p2wpkh",
      "scriptpubkey_address": "bc1q56rsy8rz2y4c73ksf8k9pk43nvvzvmyktva2t6",
      "value": 9573541
    }
  ],
  "size": 522,
  "weight": 1116,
  "fee": 7574,
  "status": {
    "confirmed": true,
    "block_height": 834638,
    "block_hash": "000000000000000000025f742c626208ac87e0b7d15054abb4a19ca2d735a54e",
    "block_time": 1710405325
  },
  "hex": "02000000000103989dd5766ae5eaf91a7493cf9327eb05c5f649aa346bba87fdf6377f3fbf9b390600000000000000008edc2925e590409596e7e8801d015ed684683c2f3120f0820ce22f303145e7c7010000000000000000cef2b24dee0a6aff5cad893a794c9f8ddabc15fe79e741b704dd92b5388849950900000000000000000280969800000000001976a91400c63a51a9aa75ed9ca3733202c1961eabc963dc88aca514920000000000160014a687021c62512b8f46d049ec50dab19b18266c9602473044022068039522818e1d4f6f67f2d2b60c6500311c03146f220357fb5fd70cba2559bb02206d18523fb419a1bac37d4abe6dbbf4201f8dc3304c1c9047f9cc26d02bfb18110121033b6f16e914e4a3efe34e9f84e2e1fd7761c63d386f877e5a089b33343cf3c525024730440220231caa4f9cf43ecafa5fca98edd449141837c96f0ed8d97cd94a3a7b5d8713ff0220391b85ce167cedb5f4e73fdbb7d46590ae8f2b7efde9919ad4bfc2a14e8f4725012103c53aba6bcd027decc57d8b14740d5664fc2a77878ce0e34ef28e382898d225cf02483045022100e2c97df7985c31282ccff7fe1d488580d111bdf7e22aadec462025d38801720302203576193195533529132c7beae06a2473ef593915e5e61d140d7c7fbebfe6e445012103c42f8d8d90e5ea786f2500e0a8b3cbabe2027f3c6dbce5943a9e78aaf753ea7c00000000"
}