{
  "txid": "e5329febeeb98b3d69aa8be4c757c6dc6f4be14f0e51bdb816a76cc95a894cb8",
  "version": 2,
  "locktime": 0,
  "vin": [
    {
      "txid": "7abd8bbcf4a02a04a73ad6939bb07b92418431c1b052bf2bf89bc09e1ee09690",
      "vout": 0,
      "prevout": {
        "scriptpubkey": "5120f84dc1e979a15df82d841d395402c65724f76aa951ec0c3eb02bb025b9064d03",
        "scriptpubkey_asm": "OP_PUSHNUM_1 OP_PUSHBYTES_32 f84dc1e979a15df82d841d395402c65724f76aa951ec0c3eb02bb025b9064d03",
        "scriptpubkey_type": "v1_p2tr",
        "scriptpubkey_address": "bc1plpxur6te59wlstvyr5u4gqkx2uj0w64f28kqc04s9wcztwgxf5ps57yxmx",
        "value": 26699
      },
      "scriptsig": "",
      "scriptsig_asm": "",
      "witness": [
        "eb1ab70ce834090670129d254e4bcb54e335724ef87bd2f7cf33c7bc06f67faf5b612add7ecb7909b5897989366b77c520fe580d3e017f116a0005d8a36ade34",
        "20f2d00e1cce0b839d2e197679cac7a15152ec244338032c7767f72c1332d49a65ac0063036f7264010109696d6167652f706e67004dde0189504e470d0a1a0a0000000d494844520000011800000118040300000075a0f4bf0000002d504c54452e6a42c6bdb71a453b000000ff7b00fff0edc42c36781f2c7bcf5c015f01dbe0e7002900fe979b009d00ed525980a3bb8e0000016c4944415478daeddc516dc3301440d150288552288551288552188551188551188551188561a8e28f5889ece94dcf51a3eedcaf2869f5ce576d596da7970335c1c0c0c0c0c0c0c0c0c0c0c0c0c0c0c0c0c0c0c0c01c0a730906030303033306f333f73557c7dd96606060606076c15447b90a386060606060c660aaa35c051c3030303030694c77d223960318181898ff87b9ad7bd891080c0c0cccd3622e8383818181818181818181393aa6d535d8a9110c0c0c0c4c0633058381818181496fc8dfe7ead5e75cdd63779fc2c0c0c0c0a431df4b2d4cf7690bd35a366060606060029befb7a5ee36bcbe0406060606663426701ad2c59c1bc1c0c0c0c0b46e6ede57869c83c1c0c0c0c00cc4fca9e187d23030303030303030303030303030304f8c69754a040303030313c55c1365803030303030dd49bf7f3103060606066617ccc7ba32fd755df727d2303030303019cce6a3bf4cdffc7771b90703030303b3f372000303030393c5dc014c497ad5ebd9834a0000000049454e44ae426082680063036f726401011e6170706c69636174696f6e2f6a736f6e3b636861727365743d7574662d38004d4e017b2270223a22766f7264222c2276223a312c227479223a22696e7363222c22636f6c223a2232343930616533353961306139323966616465616339303633646434366361613433653231363339333763363539646262616366333565343431656238643863222c22696964223a224d7574616e7420784d6f6e6b6573222c227075626c223a2231455337623370636a527a4667796969714c7278484b546e43686535364c4a485937222c226e6f6e6365223a313030332c226d696e746572223a2262633171687734797079737432786b667a61723630666435636a74686a37376166676c726c3268356835222c22736967223a2247322f71593857484a4b65423847533853456c753731696a6b38424271686d50536f6f397a753267316676594330656d597553524f2b566c6f79377a3156556a687347583868305169557073556c4d49484b7448564f4d3d227d68",
        "c1f2d00e1cce0b839d2e197679cac7a15152ec244338032c7767f72c1332d49a65675a92934efa5e4869b2432a3e00abfc6819367af43949c2edc693b32d23ac05"
      ],
      "is_coinbase": false,
      "sequence": 4294967293
    }
  ],
  "vout": [
    {
      "scriptpubkey": "0014bbaa40920b51ac91747a7a5b4c497797bdd4a3e3",
      "scriptpubkey_asm": "OP_0 OP_PUSHBYTES_20 bbaa40920b51ac91747a7a5b4c497797bdd4a3e3",
      "scriptpubkey_type": "v0_p2wpkh",
      "scriptpubkey_address": "bc1qhw4ypyst2xkfzar60fd5cjthj77afglrl2h5h5",
      "value": 1000
    },
    {
      "scriptpubkey": "5120f4d3a74cb882d6df5a942aae15d724bad39222e79b62335fa7cdf54bc030f415",
      "scriptpubkey_asm": "OP_PUSHNUM_1 OP_PUSHBYTES_32 f4d3a74cb882d6df5a942aae15d724bad39222e79b62335fa7cdf54bc030f415",
      "scriptpubkey_type": "v1_p2tr",
      "scriptpubkey_address": "bc1p7nf6wn9csttd7k5592hpt4eyhtfeygh8nd3rxha8eh65hsps7s2s00yhus",
      "value": 17712
    },
    {
      "scriptpubkey": "51200705a5767db892e98125775049b1a13dd9ecdc8aea0df413cabbee683e871012",
      "scriptpubkey_asm": "OP_PUSHNUM_1 OP_PUSHBYTES_32 0705a5767db892e98125775049b1a13dd9ecdc8aea0df413cabbee683e871012",
      "scriptpubkey_type": "v1_p2tr",
      "scriptpubkey_address": "bc1pquz62anahzfwnqf9wagynvdp8hv7ehy2agxlgy72h0hxs058zqfqk8ksyq",
      "value": 3246
    }
  ],
  "size": 1218,
  "weight": 1722,
  "fee": 4741,
  "status": {
    "confirmed": true,
    "block_height": 834464,
    "block_hash": "0000000000000000000177a0869a911a2b65c9bdcd5a8bcb02b68f305bee848e",
    "block_time": 1710308296
  },
  "hex": "020000000001019096e01e9ec09bf82bbf52b0c1318441927bb09b93d63aa7042aa0f4bc8bbd7a0000000000fdffffff03e803000000000000160014bbaa40920b51ac91747a7a5b4c497797bdd4a3e33045000000000000225120f4d3a74cb882d6df5a942aae15d724bad39222e79b62335fa7cdf54bc030f415ae0c0000000000002251200705a5767db892e98125775049b1a13dd9ecdc8aea0df413cabbee683e8710120340eb1ab70ce834090670129d254e4bcb54e335724ef87bd2f7cf33c7bc06f67faf5b612add7ecb7909b5897989366b77c520fe580d3e017f116a0005d8a36ade34fd910320f2d00e1cce0b839d2e197679cac7a15152ec244338032c7767f72c1332d49a65ac0063036f7264010109696d6167652f706e67004dde0189504e470d0a1a0a0000000d494844520000011800000118040300000075a0f4bf0000002d504c54452e6a42c6bdb71a453b000000ff7b00fff0edc42c36781f2c7bcf5c015f01dbe0e7002900fe979b009d00ed525980a3bb8e0000016c4944415478daeddc516dc3301440d150288552288551288552188551188551188551188561a8e28f5889ece94dcf51a3eedcaf2869f5ce576d596da7970335c1c0c0c0c0c0c0c0c0c0c0c0c0c0c0c0c0c0c0c0c01c0a730906030303033306f333f73557c7dd96606060606076c15447b90a386060606060c660aaa35c051c3030303030694c77d223960318181898ff87b9ad7bd891080c0c0cccd3622e8383818181818181818181393aa6d535d8a9110c0c0c0c4c0633058381818181496fc8dfe7ead5e75cdd63779fc2c0c0c0c0a431df4b2d4cf7690bd35a366060606060029befb7a5ee36bcbe0406060606663426701ad2c59c1bc1c0c0c0c0b46e6ede57869c83c1c0c0c0c00cc4fca9e187d23030303030303030303030303030304f8c69754a040303030313c55c1365803030303030dd49bf7f3103060606066617ccc7ba32fd755df727d2303030303019cce6a3bf4cdffc7771b90703030303b3f372000303030393c5dc014c497ad5ebd9834a0000000049454e44ae426082680063036f726401011e6170706c69636174696f6e2f6a736f6e3b636861727365743d7574662d38004d4e017b2270223a22766f7264222c2276223a312c227479223a22696e7363222c22636f6c223a2232343930616533353961306139323966616465616339303633646434366361613433653231363339333763363539646262616366333565343431656238643863222c22696964223a224d7574616e7420784d6f6e6b6573222c227075626c223a2231455337623370636a527a4667796969714c7278484b546e43686535364c4a485937222c226e6f6e6365223a313030332c226d696e746572223a2262633171687734797079737432786b667a61723630666435636a74686a37376166676c726c3268356835222c22736967223a2247322f71593857484a4b65423847533853456c753731696a6b38424271686d50536f6f397a753267316676594330656d597553524f2b566c6f79377a3156556a687347583868305169557073556c4d49484b7448564f4d3d227d6841c1f2d00e1cce0b839d2e197679cac7a15152ec244338032c7767f72c1332d49a65675a92934efa5e4869b2432a3e00abfc6819367af43949c2edc693b32d23ac0500000000"
}