{
  "txid": "e532475b7f95c8cf5e25dad22baa2b987d89c43a5de50f7793fdcf19030e564c",
  "version": 1,
  "locktime": 0,
  "vin": [
    {
      "txid": "ac450c9d0578048b22b4dc4469f61f8ae992a88ca3513f024cf32668c6417f6f",
      "vout": 157,
      "prevout": {
        "scriptpubkey": "00141dee31a02dea9b17cd6963b8014cf98a005ca9d2",
        "scriptpubkey_asm": "OP_0 OP_PUSHBYTES_20 1dee31a02dea9b17cd6963b8014cf98a005ca9d2",
        "scriptpubkey_type": "v0_p2wpkh",
        "scriptpubkey_address": "bc1qrhhrrgpda2d30ntfvwuqzn8e3gq9e2wjpapddc",
        "value": 11045
      },
      "scriptsig": "",
      "scriptsig_asm": "",
      "witness": [
        "30440220158a89544b82cd1583c468700b73a0f2a549cc1626123845dd3207901f9ef43602205d79308b4115a7145c3b9af4483c1f9b55471f5e0c56a0fd8e77af45d6a1967401",
        "03e4daa63f8cefe0820bc112adbc4d6e7102997719b89d79bafe8ba25d957c5fb9"
      ],
      "is_coinbase": false,
      "sequence": 4294967295
    }
  ],
  "vout": [
    {
      "scriptpubkey": "00145f0d5abce705de97498e7a80e4bcb12d6be771b4",
      "scriptpubkey_asm": "OP_0 OP_PUSHBYTES_20 5f0d5abce705de97498e7a80e4bcb12d6be771b4",
      "scriptpubkey_type": "v0_p2wpkh",
      "scriptpubkey_address": "bc1qtux44088qh0fwjvw02qwf0939447wud5tws46v",
      "value": 8075
    }
  ],
  "size": 191,
  "weight": 437,
  "fee": 2970,
  "status": {
    "confirmed": true,
    "block_height": 834638,
    "block_hash": "000000000000000000025f742c626208ac87e0b7d15054abb4a19ca2d735a54e",
    "block_time": 1710405325
  },
  "hex": "010000000001016f7f41c66826f34c023f51a38ca892e98a1ff66944dcb4228b0478059d0c45ac9d00000000ffffffff018b1f0000000000001600145f0d5abce705de97498e7a80e4bcb12d6be771b4024730440220158a89544b82cd1583c468700b73a0f2a549cc1626123845dd3207901f9ef43602205d79308b4115a7145c3b9af4483c1f9b55471f5e0c56a0fd8e77af45d6a19674012103e4daa63f8cefe0820bc112adbc4d6e7102997719b89d79bafe8ba25d957c5fb900000000"
}