{
  "txid": "e535597cf230f8f59f386034232f56439ef518cacf3e564d98d3ad81c878756e",
  "version": 2,
  "locktime": 0,
  "vin": [
    {
      "txid": "7f735dee44dad54064155a9fd1c9faee9f90b021c2304fce916bca72598eb06c",
      "vout": 3,
      "prevout": {
        "scriptpubkey": "0014704a87ea6e6696249e6adbab289353623848cba3",
        "scriptpubkey_asm": "OP_0 OP_PUSHBYTES_20 704a87ea6e6696249e6adbab289353623848cba3",
        "scriptpubkey_type": "v0_p2wpkh",
        "scriptpubkey_address": "bc1qwp9g06nwv6tzf8n2mw4j3y6nvguy3jarjsrh44",
        "value": 992711
      },
      "scriptsig": "",
      "scriptsig_asm": "",
      "witness": [
        "3045022100ecc56edd8b68d4969ef559739949658a66c3f38e02b22c28592f5bdd55a28e2202205eb63b18ba4510da7a1ade8d457c16734c4de7d25297b84da50efc7b84a3d26901",
        "031705ad3fbd1369f62e1abfebe0a85d3797818445fb762979e3ccb2c26f19412e"
      ],
      "is_coinbase": false,
      "sequence": 4294967295
    }
  ],
  "vout": [
    {
      "scriptpubkey": "0014831e4c592acedcda67137db14c8250d810f45965",
      "scriptpubkey_asm": "OP_0 OP_PUSHBYTES_20 831e4c592acedcda67137db14c8250d810f45965",
      "scriptpubkey_type": "v0_p2wpkh",
      "scriptpubkey_address": "bc1qsv0yckf2emwd5ecn0kc5eqjsmqg0gkt90qkyns",
      "value": 989660
    }
  ],
  "size": 192,
  "weight": 438,
  "fee": 3051,
  "status": {
    "confirmed": true,
    "block_height": 834464,
    "block_hash": "0000000000000000000177a0869a911a2b65c9bdcd5a8bcb02b68f305bee848e",
    "block_time": 1710308296
  },
  "hex": "020000000001016cb08e5972ca6b91ce4f30c221b0909feefac9d19f5a156440d5da44ee5d737f0300000000ffffffff01dc190f0000000000160014831e4c592acedcda67137db14c8250d810f4596502483045022100ecc56edd8b68d4969ef559739949658a66c3f38e02b22c28592f5bdd55a28e2202205eb63b18ba4510da7a1ade8d457c16734c4de7d25297b84da50efc7b84a3d2690121031705ad3fbd1369f62e1abfebe0a85d3797818445fb762979e3ccb2c26f19412e00000000"
}