{
  "txid": "e537711d6bac1ecef536176e2ca96f0e1f49d2d97e5c7e59598bf6dbceb394f3",
  "version": 2,
  "locktime": 834543,
  "vin": [
    {
      "txid": "4a7ab5877768f1d3a93d1238a048d588d89af51b7fcce794d9c5a1e6c6b48e97",
      "vout": 1,
      "prevout": {
        "scriptpubkey": "0014168e26ffd971366b69336b0cb327028745be281e",
        "scriptpubkey_asm": "OP_0 OP_PUSHBYTES_20 168e26ffd971366b69336b0cb327028745be281e",
        "scriptpubkey_type": "v0_p2wpkh",
        "scriptpubkey_address": "bc1qz68zdl7ewymxk6fndvxtxfczsazmu2q7tjm3tp",
        "value": 60095
      },
      "scriptsig": "",
      "scriptsig_asm": "",
      "witness": [
        "3044022072dc89b8d7e797338c3558732eba3e899a28008c76e0d2231e5333279ddfe8c802202f5f79f0ce2631d0620a40fecc974dce79ea8daf35ad8a62ab0b40075d4515d501",
        "030137b4d747e4c8fd3ab2048f904e6193fb9f2428dc2cbcc6afd6e5803aa31913"
      ],
      "is_coinbase": false,
      "sequence": 4294967294
    },
    {
      "txid": "f817fddf7c6de44b8d57fc1a01321967621d0e7f65713495a5c100cb253370bb",
      "vout": 140,
      "prevout": {
        "scriptpubkey": "001453b94af73571ae353adb366c251c662331351c57",
        "scriptpubkey_asm": "OP_0 OP_PUSHBYTES_20 53b94af73571ae353adb366c251c662331351c57",
        "scriptpubkey_type": "v0_p2wpkh",
        "scriptpubkey_address": "bc1q2wu54ae4wxhr2wkmxekz28rxyvcn28zhntyl8p",
        "value": 150000
      },
      "scriptsig": "",
      "scriptsig_asm": "",
      "witness": [
        "30440220409dc512f119fc716a757704671ff9734a2dbe5fb8ca0499ded4e1bee27de575022001d4f6c578aed4ba01d7cd9be4d003266350822e66b3a61be9a372b62185e12d01",
        "03f13a690b51afc8177011cf915bd289140491030bd128432026ed8653a678502c"
      ],
      "is_coinbase": false,
      "sequence": 4294967294
    }
  ],
  "vout": [
    {
      "scriptpubkey": "00144023d40e862f7898162130f24934d27c0e8a75ec",
      "scriptpubkey_asm": "OP_0 OP_PUSHBYTES_20 4023d40e862f7898162130f24934d27c0e8a75ec",
      "scriptpubkey_type": "v0_p2wpkh",
      "scriptpubkey_address": "bc1qgq3agr5x9aufs93pxreyjdxj0s8g5a0v9pc0v8",
      "value": 204300
    }
  ],
  "size": 339,
  "weight": 708,
  "fee": 5795,
  "status": {
    "confirmed": true,
    "block_height": 834638,
    "block_hash": "000000000000000000025f742c626208ac87e0b7d15054abb4a19ca2d735a54e",
    "block_time": 1710405325
  },
  "hex": "02000000000102978eb4c6e6a1c5d994e7cc7f1bf59ad888d548a038123da9d3f1687787b57a4a0100000000feffffffbb703325cb00c1a5953471657f0e1d62671932011afc578d4be46d7cdffd17f88c00000000feffffff010c1e0300000000001600144023d40e862f7898162130f24934d27c0e8a75ec02473044022072dc89b8d7e797338c3558732eba3e899a28008c76e0d2231e5333279ddfe8c802202f5f79f0ce2631d0620a40fecc974dce79ea8daf35ad8a62ab0b40075d4515d50121030137b4d747e4c8fd3ab2048f904e6193fb9f2428dc2cbcc6afd6e5803aa31913024730440220409dc512f119fc716a757704671ff9734a2dbe5fb8ca0499ded4e1bee27de575022001d4f6c578aed4ba01d7cd9be4d003266350822e66b3a61be9a372b62185e12d012103f13a690b51afc8177011cf915bd289140491030bd128432026ed8653a678502cefbb0c00"
}