{
  "txid": "e53ee61f7ff01098ebfa819ebd06d0cc76c8f7b79b0dc1382fdb35375b5f2be6",
  "version": 2,
  "locktime": 834206,
  "vin": [
    {
      "txid": "52366de026d6cdc5e11fe744a66f6ecb6dab74d81bddad651ea194466f1d5467",
      "vout": 0,
      "prevout": {
        "scriptpubkey": "001468b09270a7b83e872a402c6f70e5e1bfb8067850",
        "scriptpubkey_asm": "OP_0 OP_PUSHBYTES_20 68b09270a7b83e872a402c6f70e5e1bfb8067850",
        "scriptpubkey_type": "v0_p2wpkh",
        "scriptpubkey_address": "bc1qdzcfyu98hqlgw2jq93hhpe0ph7uqv7zswj85xm",
        "value": 11619
      },
      "scriptsig": "",
      "scriptsig_asm": "",
      "witness": [
        "30440220423aaea80a47065b1e5c860ee619752f2f33697999ae146cbaf8ce0f450a56b402201a670dce371d43465ef71d877029ea2ea1544827c388181f5a6c6f96c86c00f601",
        "031ad2ef525f7e7b4b12f30e47909e278df066f69127102e51b53492c6f6b2516f"
      ],
      "is_coinbase": false,
      "sequence": 4294967293
    }
  ],
  "vout": [
    {
      "scriptpubkey": "0014b719e2bf071f3aca16fbe28f8b0b03ed98eeb6be",
      "scriptpubkey_asm": "OP_0 OP_PUSHBYTES_20 b719e2bf071f3aca16fbe28f8b0b03ed98eeb6be",
      "scriptpubkey_type": "v0_p2wpkh",
      "scriptpubkey_address": "bc1qkuv790c8ruav59hmu28ckzcrakvwad47uv4kqw",
      "value": 10409
    }
  ],
  "size": 191,
  "weight": 437,
  "fee": 1210,
  "status": {
    "confirmed": true,
    "block_height": 834464,
    "block_hash": "0000000000000000000177a0869a911a2b65c9bdcd5a8bcb02b68f305bee848e",
    "block_time": 1710308296
  },
  "hex": "0200000000010167541d6f4694a11e65addd1bd874ab6dcb6e6fa644e71fe1c5cdd626e06d36520000000000fdffffff01a928000000000000160014b719e2bf071f3aca16fbe28f8b0b03ed98eeb6be024730440220423aaea80a47065b1e5c860ee619752f2f33697999ae146cbaf8ce0f450a56b402201a670dce371d43465ef71d877029ea2ea1544827c388181f5a6c6f96c86c00f60121031ad2ef525f7e7b4b12f30e47909e278df066f69127102e51b53492c6f6b2516f9eba0c00"
}