{
  "txid": "e53f5793517a0f950040fb771eda852275d7430afdba83e21a41ca49682bd39e",
  "version": 1,
  "locktime": 0,
  "vin": [
    {
      "txid": "4c505db1ae4ca02017e4cf54b1a18bd0f8892edb7a0317f1609915f896d0729c",
      "vout": 20,
      "prevout": {
        "scriptpubkey": "00141912248cc88ba59fd08567f255d6e128695a1cb9",
        "scriptpubkey_asm": "OP_0 OP_PUSHBYTES_20 1912248cc88ba59fd08567f255d6e128695a1cb9",
        "scriptpubkey_type": "v0_p2wpkh",
        "scriptpubkey_address": "bc1qryfzfrxg3wjel5y9vle9t4hp9p54589e3yc49f",
        "value": 48000
      },
      "scriptsig": "",
      "scriptsig_asm": "",
      "witness": [
        "3045022100c201ed5195567c6c97bc937368bf01033da22e505c18fdf0b5368078e835d61102204fa5dd0aba4158e802942ce84e89931748b217ff0a040defd0eb026c34aa2ace01",
        "0398bf55af6dc79b969d3e4eafb1be0cd70f177996350eecfeed306d614ec7b299"
      ],
      "is_coinbase": false,
      "sequence": 0
    },
    {
      "txid": "26a62df88da397c9d573c9e21c956016e8d3eea1bafa713d09032c64da5e4649",
      "vout": 1,
      "prevout": {
        "scriptpubkey": "0014b07047e19aa61484d291271254cb50bb38b4fe5d",
        "scriptpubkey_asm": "OP_0 OP_PUSHBYTES_20 b07047e19aa61484d291271254cb50bb38b4fe5d",
        "scriptpubkey_type": "v0_p2wpkh",
        "scriptpubkey_address": "bc1qkpcy0cv65c2gf553yuf9fj6shvutfljaq6tsl4",
        "value": 9754000
      },
      "scriptsig": "",
      "scriptsig_asm": "",
      "witness": [
        "3045022100be22697beb724fb4328def0781acf2bcef996cea427d0f689e0990fd7414ef7c02203e34afc7c3558bb339dd2b82b92be209c153e98f2c37d2eb22922342591e0bd901",
        "028b3ca462513e6e2f8a1640ef8950786382110f6600b4cb86ffe0e09c08e12756"
      ],
      "is_coinbase": false,
      "sequence": 0
    },
    {
      "txid": "dba0edd7fd27149d56c424475605f2d1d383c79ea4eaa30d5093016db21be988",
      "vout": 1,
      "prevout": {
        "scriptpubkey": "00141c03d6c8d80b97a4b26df22d14736444a2b49b91",
        "scriptpubkey_asm": "OP_0 OP_PUSHBYTES_20 1c03d6c8d80b97a4b26df22d14736444a2b49b91",
        "scriptpubkey_type": "v0_p2wpkh",
        "scriptpubkey_address": "bc1qrspadjxcpwt6fvnd7gk3gumygj3tfxu3np62lc",
        "value": 994887
      },
      "scriptsig": "",
      "scriptsig_asm": "",
      "witness": [
        "3045022100a848ace670ccc1d07282118a5dc89c0fd5184fb4942f488e90d22afae58f253602203b719c73ab8de75ec6960c563867a874c542bb87bc4b4f3b085d6c75d90bd9f101",
        "031601d6f4fbdea463694d41d8af71bd6077684bb6e7657edbc27291b76e36292a"
      ],
      "is_coinbase": false,
      "sequence": 0
    }
  ],
  "vout": [
    {
      "scriptpubkey": "a9140b0717e7463a07fcf6a4fbf9ff793817c81dd18b87",
      "scriptpubkey_asm": "OP_HASH160 OP_PUSHBYTES_20 0b0717e7463a07fcf6a4fbf9ff793817c81dd18b OP_EQUAL",
      "scriptpubkey_type": "p2sh",
      "scriptpubkey_address": "32hKrWY7UeGW4PH2ebmVU7uK6JRG4U4S6X",
      "value": 10791900
    }
  ],
  "size": 491,
  "weight": 986,
  "fee": 4987,
  "status": {
    "confirmed": true,
    "block_height": 834552,
    "block_hash": "00000000000000000001dd0468a70c94f619251d286585cff57aeb4bd9ede330",
    "block_time": 1710355598
  },
  "hex": "010000000001039c72d096f8159960f117037adb2e89f8d08ba1b154cfe41720a04caeb15d504c14000000000000000049465eda642c03093d71fabaa1eed3e81660951ce2c973d5c997a38df82da62601000000000000000088e91bb26d0193500da3eaa49ec783d3d1f205564724c4569d1427fdd7eda0db01000000000000000001dcaba4000000000017a9140b0717e7463a07fcf6a4fbf9ff793817c81dd18b8702483045022100c201ed5195567c6c97bc937368bf01033da22e505c18fdf0b5368078e835d61102204fa5dd0aba4158e802942ce84e89931748b217ff0a040defd0eb026c34aa2ace01210398bf55af6dc79b969d3e4eafb1be0cd70f177996350eecfeed306d614ec7b29902483045022100be22697beb724fb4328def0781acf2bcef996cea427d0f689e0990fd7414ef7c02203e34afc7c3558bb339dd2b82b92be209c153e98f2c37d2eb22922342591e0bd90121028b3ca462513e6e2f8a1640ef8950786382110f6600b4cb86ffe0e09c08e1275602483045022100a848ace670ccc1d07282118a5dc89c0fd5184fb4942f488e90d22afae58f253602203b719c73ab8de75ec6960c563867a874c542bb87bc4b4f3b085d6c75d90bd9f10121031601d6f4fbdea463694d41d8af71bd6077684bb6e7657edbc27291b76e36292a00000000"
}