{
  "txid": "e5475fa306f96418265f79674ff58bd5b4690bed88805f6ac4bec0dd488613d0",
  "version": 2,
  "locktime": 834637,
  "vin": [
    {
      "txid": "b74e33932733bdf0738930c2b37fcb582baf5ea99b999ee4edac8127e980eea3",
      "vout": 1,
      "prevout": {
        "scriptpubkey": "0014804a5ce623f11106704f76a4dba841e513636dcc",
        "scriptpubkey_asm": "OP_0 OP_PUSHBYTES_20 804a5ce623f11106704f76a4dba841e513636dcc",
        "scriptpubkey_type": "v0_p2wpkh",
        "scriptpubkey_address": "bc1qsp99ee3r7ygsvuz0w6jdh2zpu5fkxmwvhav9xz",
        "value": 256323688
      },
      "scriptsig": "",
      "scriptsig_asm": "",
      "witness": [
        "3044022000f559c96d0af93775cf25cd1d49b2d439cbd469274a58a067dc561d62960e4002204c47b91d463b7d153385d9f92c881b927bfc99bcd39f6d3257a50578440d4ccf01",
        "02b9965412bf2e875dccd583da1ef786e408715f32648d7c9944f9b136fda0035c"
      ],
      "is_coinbase": false,
      "sequence": 4294967294
    }
  ],
  "vout": [
    {
      "scriptpubkey": "001445167072ac94403043526653722341e4cb85fc56",
      "scriptpubkey_asm": "OP_0 OP_PUSHBYTES_20 45167072ac94403043526653722341e4cb85fc56",
      "scriptpubkey_type": "v0_p2wpkh",
      "scriptpubkey_address": "bc1qg5t8qu4vj3qrqs6jvefhyg6pun9ctlzkspcry2",
      "value": 1583100
    },
    {
      "scriptpubkey": "001424dd97e48eea86c13ed067a8db4d9c16f4bd65f3",
      "scriptpubkey_asm": "OP_0 OP_PUSHBYTES_20 24dd97e48eea86c13ed067a8db4d9c16f4bd65f3",
      "scriptpubkey_type": "v0_p2wpkh",
      "scriptpubkey_address": "bc1qynwe0eywa2rvz0ksv75dknvuzm6t6e0ny9vwwl",
      "value": 254737132
    }
  ],
  "size": 222,
  "weight": 561,
  "fee": 3456,
  "status": {
    "confirmed": true,
    "block_height": 834638,
    "block_hash": "000000000000000000025f742c626208ac87e0b7d15054abb4a19ca2d735a54e",
    "block_time": 1710405325
  },
  "hex": "02000000000101a3ee80e92781acede49e999ba95eaf2b58cb7fb3c2308973f0bd332793334eb70100000000feffffff02fc2718000000000016001445167072ac94403043526653722341e4cb85fc56ecfa2e0f0000000016001424dd97e48eea86c13ed067a8db4d9c16f4bd65f302473044022000f559c96d0af93775cf25cd1d49b2d439cbd469274a58a067dc561d62960e4002204c47b91d463b7d153385d9f92c881b927bfc99bcd39f6d3257a50578440d4ccf012102b9965412bf2e875dccd583da1ef786e408715f32648d7c9944f9b136fda0035c4dbc0c00"
}