{
  "txid": "e54edbd3902c01f154112001a51ac5c6b1847bc8e80279abb2f51fc1f827c5e6",
  "version": 1,
  "locktime": 0,
  "vin": [
    {
      "txid": "039432ea449cd3eeac0dce126ea8419576e353fdc7f0d6d4da687f80278588e9",
      "vout": 21,
      "prevout": {
        "scriptpubkey": "76a914436c4be783b05021866c341a5248aebed2dda49688ac",
        "scriptpubkey_asm": "OP_DUP OP_HASH160 OP_PUSHBYTES_20 436c4be783b05021866c341a5248aebed2dda496 OP_EQUALVERIFY OP_CHECKSIG",
        "scriptpubkey_type": "p2pkh",
        "scriptpubkey_address": "179W1RgH2acneQFurBnwDvkDPtrM7xPyFz",
        "value": 84022
      },
      "scriptsig": "483045022100a90764200d9e1c4e9854c61f138fb810061b13fc9210a4d226932493cedaafca02200bd30841a880a2aa2dee4e8dab7568edc54b28250fc583fd854d8982313f253501210240186b93c5395c17121f94577c206716306b6e1bc0e2a66c4086960a88a317da",
      "scriptsig_asm": "OP_PUSHBYTES_72 3045022100a90764200d9e1c4e9854c61f138fb810061b13fc9210a4d226932493cedaafca02200bd30841a880a2aa2dee4e8dab7568edc54b28250fc583fd854d8982313f253501 OP_PUSHBYTES_33 0240186b93c5395c17121f94577c206716306b6e1bc0e2a66c4086960a88a317da",
      "is_coinbase": false,
      "sequence": 4294967295
    }
  ],
  "vout": [
    {
      "scriptpubkey": "0014e83d4fa5df4a6641701b8f3650bce7ff7ed2daa6",
      "scriptpubkey_asm": "OP_0 OP_PUSHBYTES_20 e83d4fa5df4a6641701b8f3650bce7ff7ed2daa6",
      "scriptpubkey_type": "v0_p2wpkh",
      "scriptpubkey_address": "bc1qaq75lfwlffnyzuqm3um9p088lald9k4xmqxdj2",
      "value": 81943
    }
  ],
  "size": 189,
  "weight": 756,
  "fee": 2079,
  "status": {
    "confirmed": true,
    "block_height": 834464,
    "block_hash": "0000000000000000000177a0869a911a2b65c9bdcd5a8bcb02b68f305bee848e",
    "block_time": 1710308296
  },
  "hex": "0100000001e9888527807f68dad4d6f0c7fd53e3769541a86e12ce0daceed39c44ea329403150000006b483045022100a90764200d9e1c4e9854c61f138fb810061b13fc9210a4d226932493cedaafca02200bd30841a880a2aa2dee4e8dab7568edc54b28250fc583fd854d8982313f253501210240186b93c5395c17121f94577c206716306b6e1bc0e2a66c4086960a88a317daffffffff011740010000000000160014e83d4fa5df4a6641701b8f3650bce7ff7ed2daa600000000"
}