{
  "txid": "e5576849d5981f76d3b1d19184110c8991132115dbf1e780e7df0a7241df5a8d",
  "version": 1,
  "locktime": 0,
  "vin": [
    {
      "txid": "7d554da481bf06440271e30eccd03dde68de50f22de53d90f9d5e10780188b66",
      "vout": 1,
      "prevout": {
        "scriptpubkey": "0014628084ba2371fece6ac0719ad71ef112b9c659c6",
        "scriptpubkey_asm": "OP_0 OP_PUSHBYTES_20 628084ba2371fece6ac0719ad71ef112b9c659c6",
        "scriptpubkey_type": "v0_p2wpkh",
        "scriptpubkey_address": "bc1qv2qgfw3rw8lvu6kqwxddw8h3z2uuvkwx8ueam5",
        "value": 142170
      },
      "scriptsig": "",
      "scriptsig_asm": "",
      "witness": [
        "3045022100f57e8ad3bf1e94d09ae58b70c6541eed07c91b3b059c5dd364062786f1c1d2be02205ac822ecf4e541a92da24058cbf1f6165e205109a98afeda8f8b12ef964f886401",
        "03a2661ae32ab90e5056aeac1d92d333cd76ac05d37089b91e80f87b8ab5b91ff0"
      ],
      "is_coinbase": false,
      "sequence": 4294967295
    }
  ],
  "vout": [
    {
      "scriptpubkey": "76a914159cbcd8753b2ff31768e18be5a8a488c74c192688ac",
      "scriptpubkey_asm": "OP_DUP OP_HASH160 OP_PUSHBYTES_20 159cbcd8753b2ff31768e18be5a8a488c74c1926 OP_EQUALVERIFY OP_CHECKSIG",
      "scriptpubkey_type": "p2pkh",
      "scriptpubkey_address": "12yGxMVEBH2w4kUxsibTvEhiffK6Ba3fXf",
      "value": 139119
    }
  ],
  "size": 195,
  "weight": 450,
  "fee": 3051,
  "status": {
    "confirmed": true,
    "block_height": 834638,
    "block_hash": "000000000000000000025f742c626208ac87e0b7d15054abb4a19ca2d735a54e",
    "block_time": 1710405325
  },
  "hex": "01000000000101668b188007e1d5f9903de52df250de68de3dd0cc0ee371024406bf81a44d557d0100000000ffffffff016f1f0200000000001976a914159cbcd8753b2ff31768e18be5a8a488c74c192688ac02483045022100f57e8ad3bf1e94d09ae58b70c6541eed07c91b3b059c5dd364062786f1c1d2be02205ac822ecf4e541a92da24058cbf1f6165e205109a98afeda8f8b12ef964f8864012103a2661ae32ab90e5056aeac1d92d333cd76ac05d37089b91e80f87b8ab5b91ff000000000"
}