{
  "txid": "e56188a1ac89937ae99571ddefcdaf0bd0f05fe5d83c6c44da735a1e8520de25",
  "version": 2,
  "locktime": 0,
  "vin": [
    {
      "txid": "e835c4d922fbed17c48b3bb466ba1ffc020ede84c1303bdb67ca1f883dd615bb",
      "vout": 2,
      "prevout": {
        "scriptpubkey": "5120e2ae177a97ef48998883d5aa1b536b20e32f45f2669208cfd4673f2293aa1ae8",
        "scriptpubkey_asm": "OP_PUSHNUM_1 OP_PUSHBYTES_32 e2ae177a97ef48998883d5aa1b536b20e32f45f2669208cfd4673f2293aa1ae8",
        "scriptpubkey_type": "v1_p2tr",
        "scriptpubkey_address": "bc1pu2hpw75haayfnzyr6k4pk5mtyr3j730jv6fq3n75vulj9ya2rt5qp4gv2w",
        "value": 3248
      },
      "scriptsig": "",
      "scriptsig_asm": "",
      "witness": [
        "b4baf2ae03ee140cfa74892acb73482a1dc50deb091ccd6ee7cbfcae9a92d6a494680420b57945532ba5544c2538514cee5054c2deb1f1d9b0341a52f6b59aa1",
        "2032ac2080c2c6895d80eac15205ed21a5b780fac8f08014f2cb84fa479283e3eeac0063036f726401011e6170706c69636174696f6e2f6a736f6e3b636861727365743d7574662d38004cd37b2270223a22706f772d3230222c226f70223a226d696e74222c227469636b223a2250455045222c22616d74223a2231303030222c22736f6c7574696f6e223a22504550453a626331703378336875706e76383064666366666c34333367327a3776713378706c63673364666d79716365336d6c6d6e78397767753872717265763032653a303030303030303030303030303030303030303139393431613561653132383937363539383134343239323533333030353762306461393666336465613163353a3134363137323438383739227d68",
        "c0bf69a78b1b6433fca38fda21525e43a6c565682ca08e513a8f66feb668723930"
      ],
      "is_coinbase": false,
      "sequence": 4294967295
    }
  ],
  "vout": [
    {
      "scriptpubkey": "512089a37e066c3bda9c253fac62850bcc044c1fe1116a76406331dff73315c8e1c6",
      "scriptpubkey_asm": "OP_PUSHNUM_1 OP_PUSHBYTES_32 89a37e066c3bda9c253fac62850bcc044c1fe1116a76406331dff73315c8e1c6",
      "scriptpubkey_type": "v1_p2tr",
      "scriptpubkey_address": "bc1p3x3hupnv80dfcffl433g2z7vq3xplcg3dfmyqce3mlmnx9wgu8rqrev02e",
      "value": 546
    }
  ],
  "size": 487,
  "weight": 769,
  "fee": 2702,
  "status": {
    "confirmed": true,
    "block_height": 834460,
    "block_hash": "00000000000000000000484a79b643b2524bbce82e5d8a442013fa5b8905ed98",
    "block_time": 1710307468
  },
  "hex": "02000000000101bb15d63d881fca67db3b30c184de0e02fc1fba66b43b8bc417edfb22d9c435e80200000000ffffffff01220200000000000022512089a37e066c3bda9c253fac62850bcc044c1fe1116a76406331dff73315c8e1c60340b4baf2ae03ee140cfa74892acb73482a1dc50deb091ccd6ee7cbfcae9a92d6a494680420b57945532ba5544c2538514cee5054c2deb1f1d9b0341a52f6b59aa1fd20012032ac2080c2c6895d80eac15205ed21a5b780fac8f08014f2cb84fa479283e3eeac0063036f726401011e6170706c69636174696f6e2f6a736f6e3b636861727365743d7574662d38004cd37b2270223a22706f772d3230222c226f70223a226d696e74222c227469636b223a2250455045222c22616d74223a2231303030222c22736f6c7574696f6e223a22504550453a626331703378336875706e76383064666366666c34333367327a3776713378706c63673364666d79716365336d6c6d6e78397767753872717265763032653a303030303030303030303030303030303030303139393431613561653132383937363539383134343239323533333030353762306461393666336465613163353a3134363137323438383739227d6821c0bf69a78b1b6433fca38fda21525e43a6c565682ca08e513a8f66feb66872393000000000"
}