{
  "txid": "e56cb6f41c6991c63da50b9b5138ff31fc96ef5b23b16e69791abb9b66dcfc50",
  "version": 2,
  "locktime": 0,
  "vin": [
    {
      "txid": "0eddf93f24b2d392cda3aed855586f759c118678ab0fdf1339c1a2f0871fef42",
      "vout": 5,
      "prevout": {
        "scriptpubkey": "5120b95f04a088b04bc6b9e6bc288afc8c06c79f1c521b6db41f28cf6c22b922a793",
        "scriptpubkey_asm": "OP_PUSHNUM_1 OP_PUSHBYTES_32 b95f04a088b04bc6b9e6bc288afc8c06c79f1c521b6db41f28cf6c22b922a793",
        "scriptpubkey_type": "v1_p2tr",
        "scriptpubkey_address": "bc1ph90sfgygkp9udw0xhs5g4lyvqmre78zjrdkmg8egeakz9wfz57fselnck5",
        "value": 2821
      },
      "scriptsig": "",
      "scriptsig_asm": "",
      "witness": [
        "4e7fa940584459c1c4e1f2d925e9948a02ec6a91f9a412df61911ae21f495c768280d474c87ea425f5fb072b1f3edc77770d0261958e0d7d1a4e40e02453d906",
        "20fa9ebc3827cbd43b41500757f099fe699c37c426d86909c33863e12e387959c7ac0063036f726401011e6170706c69636174696f6e2f6a736f6e3b636861727365743d7574662d38004cbe7b2270223a22706f772d3230222c226f70223a226d696e74222c227469636b223a2250455045222c22616d74223a2231303030222c22736f6c7574696f6e223a22504550453a6263317172713238376168727578703271783033726774706379666a327261786e306175667a646a717a3a303030303030303030303030303030303030303139393431613561653132383937363539383134343239323533333030353762306461393666336465613163353a38333134333231373939227d68",
        "c0f26df831a413724db8123fd1cb518d6560252685500a3c204e36c4bb2a2cc255"
      ],
      "is_coinbase": false,
      "sequence": 4294967295
    }
  ],
  "vout": [
    {
      "scriptpubkey": "001418147f76e3e182a019f11a161c113250fa69bfbc",
      "scriptpubkey_asm": "OP_0 OP_PUSHBYTES_20 18147f76e3e182a019f11a161c113250fa69bfbc",
      "scriptpubkey_type": "v0_p2wpkh",
      "scriptpubkey_address": "bc1qrq287ahruxp2qx03rgtpcyfj2raxn0aufzdjqz",
      "value": 546
    }
  ],
  "size": 454,
  "weight": 700,
  "fee": 2275,
  "status": {
    "confirmed": true,
    "block_height": 834460,
    "block_hash": "00000000000000000000484a79b643b2524bbce82e5d8a442013fa5b8905ed98",
    "block_time": 1710307468
  },
  "hex": "0200000000010142ef1f87f0a2c13913df0fab7886119c756f5855d8aea3cd92d3b2243ff9dd0e0500000000ffffffff01220200000000000016001418147f76e3e182a019f11a161c113250fa69bfbc03404e7fa940584459c1c4e1f2d925e9948a02ec6a91f9a412df61911ae21f495c768280d474c87ea425f5fb072b1f3edc77770d0261958e0d7d1a4e40e02453d906fd0b0120fa9ebc3827cbd43b41500757f099fe699c37c426d86909c33863e12e387959c7ac0063036f726401011e6170706c69636174696f6e2f6a736f6e3b636861727365743d7574662d38004cbe7b2270223a22706f772d3230222c226f70223a226d696e74222c227469636b223a2250455045222c22616d74223a2231303030222c22736f6c7574696f6e223a22504550453a6263317172713238376168727578703271783033726774706379666a327261786e306175667a646a717a3a303030303030303030303030303030303030303139393431613561653132383937363539383134343239323533333030353762306461393666336465613163353a38333134333231373939227d6821c0f26df831a413724db8123fd1cb518d6560252685500a3c204e36c4bb2a2cc25500000000"
}