{
  "txid": "e56f84a239477a1c74e5980f1076d86d47609447354dddebd8ca00337b2e5cc7",
  "version": 2,
  "locktime": 834354,
  "vin": [
    {
      "txid": "4bba76fba3e34ef57702888467eb2ec58968d3ad533ec5464d534eaaf3198644",
      "vout": 0,
      "prevout": {
        "scriptpubkey": "001491c36e7fdd50f0d333d2a837f7ed64f208de3535",
        "scriptpubkey_asm": "OP_0 OP_PUSHBYTES_20 91c36e7fdd50f0d333d2a837f7ed64f208de3535",
        "scriptpubkey_type": "v0_p2wpkh",
        "scriptpubkey_address": "bc1qj8pkul7a2rcdxv7j4qml0mty7gydudf45wcr6l",
        "value": 15990
      },
      "scriptsig": "",
      "scriptsig_asm": "",
      "witness": [
        "304402204f196d9a715398530af26cac3e08f07df1b9e0a656771cd16f2b412139377b40022025f2c1cfb2f050e139c15d518f287d6641619e51fc8ecdf056bf34755a8989df01",
        "020fca13e85230ca34ceaa7d8e1bbad6d2fe94bc85c83a511ef13dca093bc69b55"
      ],
      "is_coinbase": false,
      "sequence": 4294967293
    }
  ],
  "vout": [
    {
      "scriptpubkey": "0014bad88b13d8a08e80a7d22c1bf70c3a1627dfabf5",
      "scriptpubkey_asm": "OP_0 OP_PUSHBYTES_20 bad88b13d8a08e80a7d22c1bf70c3a1627dfabf5",
      "scriptpubkey_type": "v0_p2wpkh",
      "scriptpubkey_address": "bc1qhtvgky7c5z8gpf7j9sdlwrp6zcnal2l4792f39",
      "value": 15148
    }
  ],
  "size": 191,
  "weight": 437,
  "fee": 842,
  "status": {
    "confirmed": true,
    "block_height": 834464,
    "block_hash": "0000000000000000000177a0869a911a2b65c9bdcd5a8bcb02b68f305bee848e",
    "block_time": 1710308296
  },
  "hex": "02000000000101448619f3aa4e534d46c53e53add36889c52eeb6784880277f54ee3a3fb76ba4b0000000000fdffffff012c3b000000000000160014bad88b13d8a08e80a7d22c1bf70c3a1627dfabf50247304402204f196d9a715398530af26cac3e08f07df1b9e0a656771cd16f2b412139377b40022025f2c1cfb2f050e139c15d518f287d6641619e51fc8ecdf056bf34755a8989df0121020fca13e85230ca34ceaa7d8e1bbad6d2fe94bc85c83a511ef13dca093bc69b5532bb0c00"
}