{
  "txid": "e574b31645ff906cdd8c7231b52ae3b7c57ef35fb42b00d6efc454b898945322",
  "version": 2,
  "locktime": 834637,
  "vin": [
    {
      "txid": "755f357d70a1801c406f4278ddf493e23d407eae666a7141246716a85f301809",
      "vout": 1,
      "prevout": {
        "scriptpubkey": "00144223d606848af41dc96ea7e59f6e03c54c3c11f5",
        "scriptpubkey_asm": "OP_0 OP_PUSHBYTES_20 4223d606848af41dc96ea7e59f6e03c54c3c11f5",
        "scriptpubkey_type": "v0_p2wpkh",
        "scriptpubkey_address": "bc1qgg3avp5y3t6pmjtw5lje7msrc4xrcy04zqu7zr",
        "value": 2122411
      },
      "scriptsig": "",
      "scriptsig_asm": "",
      "witness": [
        "30440220379622876aea04145f856a36a9ef49fee929b273bebdb233e3e3d90d99bb81bb022026880a3a3e334e70e5e3c38f92737171efbc07bfed201e9b3b7326ae7ca4960901",
        "0331151db8d0dd09c0aab2b03551a978575dbe672222e3eade93b6a0e759b784be"
      ],
      "is_coinbase": false,
      "sequence": 4294967294
    }
  ],
  "vout": [
    {
      "scriptpubkey": "a914598051db9ca6cc8dbfd850647f30195280ef882587",
      "scriptpubkey_asm": "OP_HASH160 OP_PUSHBYTES_20 598051db9ca6cc8dbfd850647f30195280ef8825 OP_EQUAL",
      "scriptpubkey_type": "p2sh",
      "scriptpubkey_address": "39rFnRsmNBbGS6b42rTsuuB91bgFMKEWjd",
      "value": 471780
    },
    {
      "scriptpubkey": "001465b1b3a4623aeaa9462ad344b1826674b1de664d",
      "scriptpubkey_asm": "OP_0 OP_PUSHBYTES_20 65b1b3a4623aeaa9462ad344b1826674b1de664d",
      "scriptpubkey_type": "v0_p2wpkh",
      "scriptpubkey_address": "bc1qvkcm8frz8t42j3326dztrqnxwjcauejdyz2mmn",
      "value": 1643530
    }
  ],
  "size": 223,
  "weight": 565,
  "fee": 7101,
  "status": {
    "confirmed": true,
    "block_height": 834638,
    "block_hash": "000000000000000000025f742c626208ac87e0b7d15054abb4a19ca2d735a54e",
    "block_time": 1710405325
  },
  "hex": "020000000001010918305fa816672441716a66ae7e403de293f4dd78426f401c80a1707d355f750100000000feffffff02e43207000000000017a914598051db9ca6cc8dbfd850647f30195280ef8825870a1419000000000016001465b1b3a4623aeaa9462ad344b1826674b1de664d024730440220379622876aea04145f856a36a9ef49fee929b273bebdb233e3e3d90d99bb81bb022026880a3a3e334e70e5e3c38f92737171efbc07bfed201e9b3b7326ae7ca4960901210331151db8d0dd09c0aab2b03551a978575dbe672222e3eade93b6a0e759b784be4dbc0c00"
}