{
  "txid": "e57cfe4df777bbe26d3c5464de1fae5bd31e334f200f69becd9e4a75306e3911",
  "version": 2,
  "locktime": 0,
  "vin": [
    {
      "txid": "659b82bf51c32df260f3e3563d90fcbcb0098209af4d18020ca9e1a619ccc8c8",
      "vout": 0,
      "prevout": {
        "scriptpubkey": "5120b7f2e834352a83fc1a9dd32ffe1b247439da25c2088dd302e464707e94468c16",
        "scriptpubkey_asm": "OP_PUSHNUM_1 OP_PUSHBYTES_32 b7f2e834352a83fc1a9dd32ffe1b247439da25c2088dd302e464707e94468c16",
        "scriptpubkey_type": "v1_p2tr",
        "scriptpubkey_address": "bc1pklewsdp492plcx5a6vhluxeywsua5fwzpzxaxqhyv3c8a9zx3stqx2nh3a",
        "value": 1931
      },
      "scriptsig": "",
      "scriptsig_asm": "",
      "witness": [
        "0f8bcb7e5d87bd841b02ac2110589ee1a080e2a4445cec20bd7d69c46c934eb21e89c4ef4285745dc719a60a1efef200846be418423a3eff5d4765f8af9cd181",
        "208a8a3559da1183a8f2bcb122d3a98fe6da3c243a2dcca5a2fdeacf605d2f3d3fac0063036f726401010a746578742f706c61696e00367b2270223a226272632d3230222c226f70223a226d696e74222c227469636b223a2261616161222c22616d74223a223130303030227d68",
        "c08a8a3559da1183a8f2bcb122d3a98fe6da3c243a2dcca5a2fdeacf605d2f3d3f"
      ],
      "is_coinbase": false,
      "sequence": 4261412863
    }
  ],
  "vout": [
    {
      "scriptpubkey": "0014be9f0c070a9b1bd40f5fcb06fba89738d936ceb6",
      "scriptpubkey_asm": "OP_0 OP_PUSHBYTES_20 be9f0c070a9b1bd40f5fcb06fba89738d936ceb6",
      "scriptpubkey_type": "v0_p2wpkh",
      "scriptpubkey_address": "bc1qh60scpc2nvdagr6levr0h2yh8rvndn4k4v5s9g",
      "value": 294
    }
  ],
  "size": 295,
  "weight": 541,
  "fee": 1637,
  "status": {
    "confirmed": true,
    "block_height": 834460,
    "block_hash": "00000000000000000000484a79b643b2524bbce82e5d8a442013fa5b8905ed98",
    "block_time": 1710307468
  },
  "hex": "02000000000101c8c8cc19a6e1a90c02184daf098209b0bcfc903d56e3f360f22dc351bf829b650000000000fffffffd012601000000000000160014be9f0c070a9b1bd40f5fcb06fba89738d936ceb603400f8bcb7e5d87bd841b02ac2110589ee1a080e2a4445cec20bd7d69c46c934eb21e89c4ef4285745dc719a60a1efef200846be418423a3eff5d4765f8af9cd1816e208a8a3559da1183a8f2bcb122d3a98fe6da3c243a2dcca5a2fdeacf605d2f3d3fac0063036f726401010a746578742f706c61696e00367b2270223a226272632d3230222c226f70223a226d696e74222c227469636b223a2261616161222c22616d74223a223130303030227d6821c08a8a3559da1183a8f2bcb122d3a98fe6da3c243a2dcca5a2fdeacf605d2f3d3f00000000"
}