{
  "txid": "e580c56a0d3a5b2596037a667c7d17aa6ffbffdf80c26a9fa30433217bc01487",
  "version": 2,
  "locktime": 0,
  "vin": [
    {
      "txid": "2e2f975f654a55d6fa9c172cf860e0e61eac82011a19f7096ccf891fb03384f2",
      "vout": 0,
      "prevout": {
        "scriptpubkey": "0014f607123f62a27dd88f984001efab40ee07999ed7",
        "scriptpubkey_asm": "OP_0 OP_PUSHBYTES_20 f607123f62a27dd88f984001efab40ee07999ed7",
        "scriptpubkey_type": "v0_p2wpkh",
        "scriptpubkey_address": "bc1q7cr3y0mz5f7a3rucgqq7l26qacren8khfdc8v5",
        "value": 301464
      },
      "scriptsig": "",
      "scriptsig_asm": "",
      "witness": [
        "304402207e48da2bffed676667d5235cfd4e3fb3d65ce67d7f831f540f059b3440cbaddb022054b0fc1c89631e9a59563902e18c7e75d5735c7e70b32a02bdfe207516bc9df901",
        "036d9b64212e70e0fc6a2ab5c407fe0c855884abe5bc25750b9636dff1eb93f11e"
      ],
      "is_coinbase": false,
      "sequence": 4294967293
    }
  ],
  "vout": [
    {
      "scriptpubkey": "76a914793676d3581b6892da784cf5e89f8e5a042f16cf88ac",
      "scriptpubkey_asm": "OP_DUP OP_HASH160 OP_PUSHBYTES_20 793676d3581b6892da784cf5e89f8e5a042f16cf OP_EQUALVERIFY OP_CHECKSIG",
      "scriptpubkey_type": "p2pkh",
      "scriptpubkey_address": "1C3v1SyUift7zFNLdedLYxg5Yu6qeT621T",
      "value": 300244
    }
  ],
  "size": 194,
  "weight": 449,
  "fee": 1220,
  "status": {
    "confirmed": true,
    "block_height": 834464,
    "block_hash": "0000000000000000000177a0869a911a2b65c9bdcd5a8bcb02b68f305bee848e",
    "block_time": 1710308296
  },
  "hex": "02000000000101f28433b01f89cf6c09f7191a0182ac1ee6e060f82c179cfad6554a655f972f2e0000000000fdffffff01d4940400000000001976a914793676d3581b6892da784cf5e89f8e5a042f16cf88ac0247304402207e48da2bffed676667d5235cfd4e3fb3d65ce67d7f831f540f059b3440cbaddb022054b0fc1c89631e9a59563902e18c7e75d5735c7e70b32a02bdfe207516bc9df90121036d9b64212e70e0fc6a2ab5c407fe0c855884abe5bc25750b9636dff1eb93f11e00000000"
}