{
  "txid": "e58eadcd82d81dbc545fade9104d6925a89f599a4366f9403b773115d88cca07",
  "version": 2,
  "locktime": 0,
  "vin": [
    {
      "txid": "2637ce7822380e3e510cebdd66419abde8037f0130da7e662c030a3c333f9c1d",
      "vout": 0,
      "prevout": {
        "scriptpubkey": "00143e9914ca0d8ca20cfb4d72a675b600dcd012ef5f",
        "scriptpubkey_asm": "OP_0 OP_PUSHBYTES_20 3e9914ca0d8ca20cfb4d72a675b600dcd012ef5f",
        "scriptpubkey_type": "v0_p2wpkh",
        "scriptpubkey_address": "bc1q86v3fjsd3j3qe76dw2n8tdsqmngp9m6lew2ya7",
        "value": 178556
      },
      "scriptsig": "",
      "scriptsig_asm": "",
      "witness": [
        "3045022100c5cfbd81a870caece39bfec8e21bd9d0ce02cc70817533bf08761ccf165645a902204ceb13806e2071c09684db009e708e0bd467b2086d50820182b46ab714a169e701",
        "032d966fc480a6263a58567cca24b2f689c2691c3b399e9725eca9d60894837efa"
      ],
      "is_coinbase": false,
      "sequence": 4294967293
    }
  ],
  "vout": [
    {
      "scriptpubkey": "0014fc9b91b8409f62c18711caf9172b3cb21d9f9d53",
      "scriptpubkey_asm": "OP_0 OP_PUSHBYTES_20 fc9b91b8409f62c18711caf9172b3cb21d9f9d53",
      "scriptpubkey_type": "v0_p2wpkh",
      "scriptpubkey_address": "bc1qljderwzqna3vrpc3etu3w2eukgwel82nds553u",
      "value": 6838
    },
    {
      "scriptpubkey": "001461a825f37ba839d75ce22f5d5efec3a67b8118ac",
      "scriptpubkey_asm": "OP_0 OP_PUSHBYTES_20 61a825f37ba839d75ce22f5d5efec3a67b8118ac",
      "scriptpubkey_type": "v0_p2wpkh",
      "scriptpubkey_address": "bc1qvx5ztumm4quawh8z9aw4alkr5eaczx9v0ws3d5",
      "value": 169468
    }
  ],
  "size": 223,
  "weight": 562,
  "fee": 2250,
  "status": {
    "confirmed": true,
    "block_height": 834552,
    "block_hash": "00000000000000000001dd0468a70c94f619251d286585cff57aeb4bd9ede330",
    "block_time": 1710355598
  },
  "hex": "020000000001011d9c3f333c0a032c667eda30017f03e8bd9a4166ddeb0c513e0e382278ce37260000000000fdffffff02b61a000000000000160014fc9b91b8409f62c18711caf9172b3cb21d9f9d53fc9502000000000016001461a825f37ba839d75ce22f5d5efec3a67b8118ac02483045022100c5cfbd81a870caece39bfec8e21bd9d0ce02cc70817533bf08761ccf165645a902204ceb13806e2071c09684db009e708e0bd467b2086d50820182b46ab714a169e70121032d966fc480a6263a58567cca24b2f689c2691c3b399e9725eca9d60894837efa00000000"
}