{
  "txid": "e5979ced382113007772ef580bd6592f04095cf371045f8ed740a310c520e314",
  "version": 2,
  "locktime": 0,
  "vin": [
    {
      "txid": "acc3ba00869acb582a3f2904ce3a11dd3779350ce234063fc7d0959246213364",
      "vout": 187,
      "prevout": {
        "scriptpubkey": "51200ef785a7d54f5fa0b2169b84aeb397136c37ba874caa54d66230198784cf5f14",
        "scriptpubkey_asm": "OP_PUSHNUM_1 OP_PUSHBYTES_32 0ef785a7d54f5fa0b2169b84aeb397136c37ba874caa54d66230198784cf5f14",
        "scriptpubkey_type": "v1_p2tr",
        "scriptpubkey_address": "bc1ppmmctf74fa06pvsknwz2avuhzdkr0w58fj49f4nzxqvc0px0tu2qtgy8lv",
        "value": 1806
      },
      "scriptsig": "",
      "scriptsig_asm": "",
      "witness": [
        "d7fabc368986bb0a9f738ad8f8f2a9f88fbfe1d23be658fe21da31317d463eb344c58e7416d1056157c6019def312d3a7b2b9afa0b9a64b58c0eb438419743a7",
        "209fbb6eab879519560fe64b25dfc27aca6a8eeea7b896a968afdbff410aea267eac0063036f726401010a746578742f706c61696e00357b2270223a226272632d3230222c226f70223a226d696e74222c227469636b223a22646f6765222c22616d74223a2234323030227d68",
        "c09fbb6eab879519560fe64b25dfc27aca6a8eeea7b896a968afdbff410aea267e"
      ],
      "is_coinbase": false,
      "sequence": 4261412863
    }
  ],
  "vout": [
    {
      "scriptpubkey": "00147a665de7a370f4c9b372ab1fae587500a5bcbdb4",
      "scriptpubkey_asm": "OP_0 OP_PUSHBYTES_20 7a665de7a370f4c9b372ab1fae587500a5bcbdb4",
      "scriptpubkey_type": "v0_p2wpkh",
      "scriptpubkey_address": "bc1q0fn9mearwr6vnvmj4v06ukr4qzjme0d565dzcx",
      "value": 294
    }
  ],
  "size": 294,
  "weight": 540,
  "fee": 1512,
  "status": {
    "confirmed": true,
    "block_height": 834460,
    "block_hash": "00000000000000000000484a79b643b2524bbce82e5d8a442013fa5b8905ed98",
    "block_time": 1710307468
  },
  "hex": "02000000000101643321469295d0c73f0634e20c357937dd113ace04293f2a58cb9a8600bac3acbb00000000fffffffd0126010000000000001600147a665de7a370f4c9b372ab1fae587500a5bcbdb40340d7fabc368986bb0a9f738ad8f8f2a9f88fbfe1d23be658fe21da31317d463eb344c58e7416d1056157c6019def312d3a7b2b9afa0b9a64b58c0eb438419743a76d209fbb6eab879519560fe64b25dfc27aca6a8eeea7b896a968afdbff410aea267eac0063036f726401010a746578742f706c61696e00357b2270223a226272632d3230222c226f70223a226d696e74222c227469636b223a22646f6765222c22616d74223a2234323030227d6821c09fbb6eab879519560fe64b25dfc27aca6a8eeea7b896a968afdbff410aea267e00000000"
}