{
  "txid": "e59bebf466bcfa540d475fb9503b4a75aa40cba89b903b32350212b5b653eb09",
  "version": 1,
  "locktime": 834637,
  "vin": [
    {
      "txid": "d56c0d91af28440ca03385404b60e6c4e7641727a36bfdc9c7b830ac7da43520",
      "vout": 1,
      "prevout": {
        "scriptpubkey": "0020ff23350d854c20edafffc55ab76a31c97f796a969c013996f774e1761f436294",
        "scriptpubkey_asm": "OP_0 OP_PUSHBYTES_32 ff23350d854c20edafffc55ab76a31c97f796a969c013996f774e1761f436294",
        "scriptpubkey_type": "v0_p2wsh",
        "scriptpubkey_address": "bc1qlu3n2rv9fsswmtllc4dtw633e9lhj65knsqnn9hhwnshv86rv22q38xdvr",
        "value": 5385613
      },
      "scriptsig": "",
      "scriptsig_asm": "",
      "witness": [
        "",
        "30450221009a5bf5457b28179a68bc6157b957d1c3b237dc291aabebf65e7300dfe566966a0220293e5f7bea21279ad4e96a104aca40d2b07d10a71419a4d09395fe185476756d01",
        "3044022032f9a27ec9ef6f242ea926a57247e0cc267c335186ffe5aa394f8bb497a43f8a02203cad521d91b2398ce6b8a755888c935828a79b01bf56e40c138802980e70419101",
        "522102fecb1357ed666a42e4bd0e4b021105b12f4ed702623895250c63867b8bdf1c0c21034073ad5fa6fb414c637fda84a21030e18b1e516b208b099778c71c82dc062dd12102a0afd9f5573829d011c46d06ed7fd5fe56ebc1db914fddc9e68d0586bb7b01d253ae"
      ],
      "is_coinbase": false,
      "sequence": 4294967295,
      "inner_witnessscript_asm": "OP_PUSHNUM_2 OP_PUSHBYTES_33 02fecb1357ed666a42e4bd0e4b021105b12f4ed702623895250c63867b8bdf1c0c OP_PUSHBYTES_33 034073ad5fa6fb414c637fda84a21030e18b1e516b208b099778c71c82dc062dd1 OP_PUSHBYTES_33 02a0afd9f5573829d011c46d06ed7fd5fe56ebc1db914fddc9e68d0586bb7b01d2 OP_PUSHNUM_3 OP_CHECKMULTISIG"
    }
  ],
  "vout": [
    {
      "scriptpubkey": "0014f4647893d2648fc1fcade884755df8e6bae14766",
      "scriptpubkey_asm": "OP_0 OP_PUSHBYTES_20 f4647893d2648fc1fcade884755df8e6bae14766",
      "scriptpubkey_type": "v0_p2wpkh",
      "scriptpubkey_address": "bc1q73j83y7jvj8url9dazz82h0cu6awz3mx2j70n8",
      "value": 202900
    },
    {
      "scriptpubkey": "0020dc36fd17cdcc2b44691b2685edccd1865a18d493bfeef33998492cc7c517a258",
      "scriptpubkey_asm": "OP_0 OP_PUSHBYTES_32 dc36fd17cdcc2b44691b2685edccd1865a18d493bfeef33998492cc7c517a258",
      "scriptpubkey_type": "v0_p2wsh",
      "scriptpubkey_address": "bc1qmsm0697des45g6gmy6z7mnx3sedp34ynhlh0xwvcfykv03gh5fvqnexgts",
      "value": 5179754
    }
  ],
  "size": 380,
  "weight": 755,
  "fee": 2959,
  "status": {
    "confirmed": true,
    "block_height": 834638,
    "block_hash": "000000000000000000025f742c626208ac87e0b7d15054abb4a19ca2d735a54e",
    "block_time": 1710405325
  },
  "hex": "010000000001012035a47dac30b8c7c9fd6ba3271764e7c4e6604b408533a00c4428af910d6cd50100000000ffffffff029418030000000000160014f4647893d2648fc1fcade884755df8e6bae147666a094f0000000000220020dc36fd17cdcc2b44691b2685edccd1865a18d493bfeef33998492cc7c517a25804004830450221009a5bf5457b28179a68bc6157b957d1c3b237dc291aabebf65e7300dfe566966a0220293e5f7bea21279ad4e96a104aca40d2b07d10a71419a4d09395fe185476756d01473044022032f9a27ec9ef6f242ea926a57247e0cc267c335186ffe5aa394f8bb497a43f8a02203cad521d91b2398ce6b8a755888c935828a79b01bf56e40c138802980e7041910169522102fecb1357ed666a42e4bd0e4b021105b12f4ed702623895250c63867b8bdf1c0c21034073ad5fa6fb414c637fda84a21030e18b1e516b208b099778c71c82dc062dd12102a0afd9f5573829d011c46d06ed7fd5fe56ebc1db914fddc9e68d0586bb7b01d253ae4dbc0c00"
}