{
  "txid": "e5a8658b0d25cba6b4b0e02149531c400880f8e753f9c141de54358fd9c5d860",
  "version": 2,
  "locktime": 834579,
  "vin": [
    {
      "txid": "d0bf9885bee623beb37b6cccd41917325cf7a9f2e068c6ec09c2d630f830b865",
      "vout": 1,
      "prevout": {
        "scriptpubkey": "001444a954b9d3172349103222781ac531acf542e4ba",
        "scriptpubkey_asm": "OP_0 OP_PUSHBYTES_20 44a954b9d3172349103222781ac531acf542e4ba",
        "scriptpubkey_type": "v0_p2wpkh",
        "scriptpubkey_address": "bc1qgj54fwwnzu35jypjyfup43f34n659e96sct2c2",
        "value": 1713459
      },
      "scriptsig": "",
      "scriptsig_asm": "",
      "witness": [
        "3044022070207f012332ca4881030fd8174bc33510d0f6bf6c33810b3cd7a513baae2433022004f585ac48cb9d1b91e36633d34316aa95c0736673fbaca05015ad889dcc612901",
        "03d97f526ce9a901c5172a03ee8439a264890ae1491f237b70d928b4e71b528f47"
      ],
      "is_coinbase": false,
      "sequence": 4294967293
    }
  ],
  "vout": [
    {
      "scriptpubkey": "00144bb425b092d456cf1b3dffa925f445061e35eaa9",
      "scriptpubkey_asm": "OP_0 OP_PUSHBYTES_20 4bb425b092d456cf1b3dffa925f445061e35eaa9",
      "scriptpubkey_type": "v0_p2wpkh",
      "scriptpubkey_address": "bc1qfw6ztvyj63tv7xeal75jtaz9qc0rt64fsn4czj",
      "value": 42587
    },
    {
      "scriptpubkey": "0014b8a130c60e8d95bd978054dfb3c231e864198f04",
      "scriptpubkey_asm": "OP_0 OP_PUSHBYTES_20 b8a130c60e8d95bd978054dfb3c231e864198f04",
      "scriptpubkey_type": "v0_p2wpkh",
      "scriptpubkey_address": "bc1qhzsnp3sw3k2mm9uq2n0m8s33apjpnrcyr44426",
      "value": 1661002
    }
  ],
  "size": 222,
  "weight": 561,
  "fee": 9870,
  "status": {
    "confirmed": true,
    "block_height": 834638,
    "block_hash": "000000000000000000025f742c626208ac87e0b7d15054abb4a19ca2d735a54e",
    "block_time": 1710405325
  },
  "hex": "0200000000010165b830f830d6c209ecc668e0f2a9f75c321719d4cc6c7bb3be23e6be8598bfd00100000000fdffffff025ba60000000000001600144bb425b092d456cf1b3dffa925f445061e35eaa94a58190000000000160014b8a130c60e8d95bd978054dfb3c231e864198f0402473044022070207f012332ca4881030fd8174bc33510d0f6bf6c33810b3cd7a513baae2433022004f585ac48cb9d1b91e36633d34316aa95c0736673fbaca05015ad889dcc6129012103d97f526ce9a901c5172a03ee8439a264890ae1491f237b70d928b4e71b528f4713bc0c00"
}