{
  "txid": "e5afe4c710bb28310e2f744e469a9c516f280f570cd06e75c9c4f122db979f68",
  "version": 2,
  "locktime": 0,
  "vin": [
    {
      "txid": "acc3ba00869acb582a3f2904ce3a11dd3779350ce234063fc7d0959246213364",
      "vout": 102,
      "prevout": {
        "scriptpubkey": "51206bc9ee67ed19c03655c71cb4b69a79f2eeb4e3bff95c47489ff32c0ac9ac209e",
        "scriptpubkey_asm": "OP_PUSHNUM_1 OP_PUSHBYTES_32 6bc9ee67ed19c03655c71cb4b69a79f2eeb4e3bff95c47489ff32c0ac9ac209e",
        "scriptpubkey_type": "v1_p2tr",
        "scriptpubkey_address": "bc1pd0y7ueldr8qrv4w8rj6tdxne7thtfcall9wywjyl7vkq4jdvyz0qzcrcyk",
        "value": 1806
      },
      "scriptsig": "",
      "scriptsig_asm": "",
      "witness": [
        "013455e88c8371764e0bc413379825f70e61deac825d3ebe3439e79023ea66109c4985f77f6e43e901a22056d9b051c62ba1b480219469193b332a0475819c49",
        "205052be7f93280594a51a05ae4f5a06df45872753c77e5b8526020beb220a0827ac0063036f726401010a746578742f706c61696e00357b2270223a226272632d3230222c226f70223a226d696e74222c227469636b223a22646f6765222c22616d74223a2234323030227d68",
        "c15052be7f93280594a51a05ae4f5a06df45872753c77e5b8526020beb220a0827"
      ],
      "is_coinbase": false,
      "sequence": 4261412863
    }
  ],
  "vout": [
    {
      "scriptpubkey": "00147a665de7a370f4c9b372ab1fae587500a5bcbdb4",
      "scriptpubkey_asm": "OP_0 OP_PUSHBYTES_20 7a665de7a370f4c9b372ab1fae587500a5bcbdb4",
      "scriptpubkey_type": "v0_p2wpkh",
      "scriptpubkey_address": "bc1q0fn9mearwr6vnvmj4v06ukr4qzjme0d565dzcx",
      "value": 294
    }
  ],
  "size": 294,
  "weight": 540,
  "fee": 1512,
  "status": {
    "confirmed": true,
    "block_height": 834460,
    "block_hash": "00000000000000000000484a79b643b2524bbce82e5d8a442013fa5b8905ed98",
    "block_time": 1710307468
  },
  "hex": "02000000000101643321469295d0c73f0634e20c357937dd113ace04293f2a58cb9a8600bac3ac6600000000fffffffd0126010000000000001600147a665de7a370f4c9b372ab1fae587500a5bcbdb40340013455e88c8371764e0bc413379825f70e61deac825d3ebe3439e79023ea66109c4985f77f6e43e901a22056d9b051c62ba1b480219469193b332a0475819c496d205052be7f93280594a51a05ae4f5a06df45872753c77e5b8526020beb220a0827ac0063036f726401010a746578742f706c61696e00357b2270223a226272632d3230222c226f70223a226d696e74222c227469636b223a22646f6765222c22616d74223a2234323030227d6821c15052be7f93280594a51a05ae4f5a06df45872753c77e5b8526020beb220a082700000000"
}