{
  "txid": "e5b9466fd3be35d969f4620fbc02fb8d5259b3246f5ca759153276a5b82570bc",
  "version": 2,
  "locktime": 0,
  "vin": [
    {
      "txid": "16accbf8946cd5cc6c578e9bedda6d6521007ce3ec2a805754c074a0daca343a",
      "vout": 52,
      "prevout": {
        "scriptpubkey": "001425a42096d76fc6eb41896a400d5ba6080f4c35d4",
        "scriptpubkey_asm": "OP_0 OP_PUSHBYTES_20 25a42096d76fc6eb41896a400d5ba6080f4c35d4",
        "scriptpubkey_type": "v0_p2wpkh",
        "scriptpubkey_address": "bc1qykjzp9khdlrwksvfdfqq6kaxpq85cdw5tvqg59",
        "value": 180000
      },
      "scriptsig": "",
      "scriptsig_asm": "",
      "witness": [
        "3045022100daefd30546517ef5b24ffb66ba93f1bc0f58bb882dc807f9649048f86af2d641022016abe5cf4e18c7bcae678f3861c44ddcdd752c4ff93a15772b7eb1ddcbd8f0bb01",
        "03d83fdc7fc670b9d21ba8c914f607dfaf73a039acedd95638f9bf1eae6d7cb21d"
      ],
      "is_coinbase": false,
      "sequence": 4294967295
    },
    {
      "txid": "eda8362d5bc0667ef34222146bfa484ecc8a0adb840fd4b5cb9247d213ce96df",
      "vout": 52,
      "prevout": {
        "scriptpubkey": "001425a42096d76fc6eb41896a400d5ba6080f4c35d4",
        "scriptpubkey_asm": "OP_0 OP_PUSHBYTES_20 25a42096d76fc6eb41896a400d5ba6080f4c35d4",
        "scriptpubkey_type": "v0_p2wpkh",
        "scriptpubkey_address": "bc1qykjzp9khdlrwksvfdfqq6kaxpq85cdw5tvqg59",
        "value": 17440623
      },
      "scriptsig": "",
      "scriptsig_asm": "",
      "witness": [
        "304402201838d5611b6aa6906facbc6570f3bffc90b3616ad16a0e9bc5a6874580e20d4e022040aa1189a610558d15481b0f030fc421b137000978aa24818b24148b90a51dcc01",
        "03d83fdc7fc670b9d21ba8c914f607dfaf73a039acedd95638f9bf1eae6d7cb21d"
      ],
      "is_coinbase": false,
      "sequence": 4294967295
    }
  ],
  "vout": [
    {
      "scriptpubkey": "001491dca9d7967ff8da7a8d953ba56d0dc3957824e0",
      "scriptpubkey_asm": "OP_0 OP_PUSHBYTES_20 91dca9d7967ff8da7a8d953ba56d0dc3957824e0",
      "scriptpubkey_type": "v0_p2wpkh",
      "scriptpubkey_address": "bc1qj8w2n4uk0lud575dj5a62mgdcw2hsf8q2hkmt2",
      "value": 4000000
    },
    {
      "scriptpubkey": "0014f38a178ac8f73f1ca5f80105a1361634e11dcc25",
      "scriptpubkey_asm": "OP_0 OP_PUSHBYTES_20 f38a178ac8f73f1ca5f80105a1361634e11dcc25",
      "scriptpubkey_type": "v0_p2wpkh",
      "scriptpubkey_address": "bc1q7w9p0zkg7ul3ef0cqyz6zdskxns3mnp9s8m0mj",
      "value": 13616897
    }
  ],
  "size": 371,
  "weight": 833,
  "fee": 3726,
  "status": {
    "confirmed": true,
    "block_height": 834638,
    "block_hash": "000000000000000000025f742c626208ac87e0b7d15054abb4a19ca2d735a54e",
    "block_time": 1710405325
  },
  "hex": "020000000001023a34cadaa074c05457802aece37c0021656ddaed9b8e576cccd56c94f8cbac163400000000ffffffffdf96ce13d24792cbb5d40f84db0a8acc4e48fa6b142242f37e66c05b2d36a8ed3400000000ffffffff0200093d000000000016001491dca9d7967ff8da7a8d953ba56d0dc3957824e001c7cf0000000000160014f38a178ac8f73f1ca5f80105a1361634e11dcc2502483045022100daefd30546517ef5b24ffb66ba93f1bc0f58bb882dc807f9649048f86af2d641022016abe5cf4e18c7bcae678f3861c44ddcdd752c4ff93a15772b7eb1ddcbd8f0bb012103d83fdc7fc670b9d21ba8c914f607dfaf73a039acedd95638f9bf1eae6d7cb21d0247304402201838d5611b6aa6906facbc6570f3bffc90b3616ad16a0e9bc5a6874580e20d4e022040aa1189a610558d15481b0f030fc421b137000978aa24818b24148b90a51dcc012103d83fdc7fc670b9d21ba8c914f607dfaf73a039acedd95638f9bf1eae6d7cb21d00000000"
}