{
  "txid": "e5c0a41f3cd0a84ffb9453018fa0fb4f97b730bb6c59ff330739f171810e75eb",
  "version": 2,
  "locktime": 0,
  "vin": [
    {
      "txid": "218f735afc5a7fd541a907605d4bd01f47140076f15577fd357bbf96a02b7c8b",
      "vout": 47,
      "prevout": {
        "scriptpubkey": "0014dbd7bd7f9384fa261bcbcbbd3db450264708dd8d",
        "scriptpubkey_asm": "OP_0 OP_PUSHBYTES_20 dbd7bd7f9384fa261bcbcbbd3db450264708dd8d",
        "scriptpubkey_type": "v0_p2wpkh",
        "scriptpubkey_address": "bc1qm0tm6lunsnazvx7tew7nmdzsyers3hvdrhmplq",
        "value": 320181
      },
      "scriptsig": "",
      "scriptsig_asm": "",
      "witness": [
        "3045022100ef8d0bfa7adbc2c483622349e49eb9f0a05723a4da80e7c4d9d0706a9669b93402206f6560f96d5b2b9651863488a8bea2463a06354e1b0d990c2c7924c5292df43801",
        "0344014cd5f53fb857991ccfa765baac9d37d87db4eadae9ac7fd9272c7c0c0b12"
      ],
      "is_coinbase": false,
      "sequence": 4294967295
    }
  ],
  "vout": [
    {
      "scriptpubkey": "a9145ed05ce7eccc42db4d795019321e3b623661e02a87",
      "scriptpubkey_asm": "OP_HASH160 OP_PUSHBYTES_20 5ed05ce7eccc42db4d795019321e3b623661e02a OP_EQUAL",
      "scriptpubkey_type": "p2sh",
      "scriptpubkey_address": "3ALM3tGyNdUGeJWgTSeVtUe3BDXTKH9HLq",
      "value": 10158
    },
    {
      "scriptpubkey": "00145beb01d47587c84c8b1b7646054aa32a0b944283",
      "scriptpubkey_asm": "OP_0 OP_PUSHBYTES_20 5beb01d47587c84c8b1b7646054aa32a0b944283",
      "scriptpubkey_type": "v0_p2wpkh",
      "scriptpubkey_address": "bc1qt04sr4r4slyyezcmwerq2j4r9g9egs5rxz4dt4",
      "value": 309174
    }
  ],
  "size": 224,
  "weight": 566,
  "fee": 849,
  "status": {
    "confirmed": true,
    "block_height": 834638,
    "block_hash": "000000000000000000025f742c626208ac87e0b7d15054abb4a19ca2d735a54e",
    "block_time": 1710405325
  },
  "hex": "020000000001018b7c2ba096bf7b35fd7755f1760014471fd04b5d6007a941d57f5afc5a738f212f00000000ffffffff02ae2700000000000017a9145ed05ce7eccc42db4d795019321e3b623661e02a87b6b70400000000001600145beb01d47587c84c8b1b7646054aa32a0b94428302483045022100ef8d0bfa7adbc2c483622349e49eb9f0a05723a4da80e7c4d9d0706a9669b93402206f6560f96d5b2b9651863488a8bea2463a06354e1b0d990c2c7924c5292df43801210344014cd5f53fb857991ccfa765baac9d37d87db4eadae9ac7fd9272c7c0c0b1200000000"
}