{
  "txid": "e5c5c5120822c99307966363f6f025c229130f5fcbc0a06f58b5f15b7d78fdac",
  "version": 2,
  "locktime": 0,
  "vin": [
    {
      "txid": "b0c051e09b83e3b3c3d7dccbcc23b57fd1a98f6714265d5dec0a5dc74af8a8ac",
      "vout": 0,
      "prevout": {
        "scriptpubkey": "51206784428fa19bd44ec64d9608927a2d61daa1c149f62d0f0f86a3e554d1b3f7f4",
        "scriptpubkey_asm": "OP_PUSHNUM_1 OP_PUSHBYTES_32 6784428fa19bd44ec64d9608927a2d61daa1c149f62d0f0f86a3e554d1b3f7f4",
        "scriptpubkey_type": "v1_p2tr",
        "scriptpubkey_address": "bc1pv7zy9rapn02ya3jdjcyfy73dv8d2rs2f7cks7rux50j4f5dn7l6qlspx48",
        "value": 2946
      },
      "scriptsig": "",
      "scriptsig_asm": "",
      "witness": [
        "1be1e62ff5bbbc91ea0eb9dbc7e471fdd97fcf8b123cc8bf34f23bfaaa3ace553ef8ddab61645ae760961d560d33146291621c33df6ffa44a7837357a837efe0",
        "200915018513fbb2986e6f949906d10a2a25d10b1536110e858c5ca78e4ec23aacac0063036f72640101106170706c69636174696f6e2f6a736f6e00387b2270223a226272632d3230222c226f70223a227472616e73666572222c227469636b223a22314f6e38222c22616d74223a22313332227d68",
        "c00915018513fbb2986e6f949906d10a2a25d10b1536110e858c5ca78e4ec23aac"
      ],
      "is_coinbase": false,
      "sequence": 4294967293
    }
  ],
  "vout": [
    {
      "scriptpubkey": "51204b3def6b7bdf9758a317f5eafc03b3a744cc6bb7dad731af7edbfbb555c2be75",
      "scriptpubkey_asm": "OP_PUSHNUM_1 OP_PUSHBYTES_32 4b3def6b7bdf9758a317f5eafc03b3a744cc6bb7dad731af7edbfbb555c2be75",
      "scriptpubkey_type": "v1_p2tr",
      "scriptpubkey_address": "bc1pfv7776mmm7t43gch7h40cqan5azvc6ahmttnrtm7m0am24wzhe6smdt3m6",
      "value": 546
    }
  ],
  "size": 315,
  "weight": 597,
  "fee": 2400,
  "status": {
    "confirmed": true,
    "block_height": 834460,
    "block_hash": "00000000000000000000484a79b643b2524bbce82e5d8a442013fa5b8905ed98",
    "block_time": 1710307468
  },
  "hex": "02000000000101aca8f84ac75d0aec5d5d2614678fa9d17fb523cccbdcd7c3b3e3839be051c0b00000000000fdffffff0122020000000000002251204b3def6b7bdf9758a317f5eafc03b3a744cc6bb7dad731af7edbfbb555c2be7503401be1e62ff5bbbc91ea0eb9dbc7e471fdd97fcf8b123cc8bf34f23bfaaa3ace553ef8ddab61645ae760961d560d33146291621c33df6ffa44a7837357a837efe076200915018513fbb2986e6f949906d10a2a25d10b1536110e858c5ca78e4ec23aacac0063036f72640101106170706c69636174696f6e2f6a736f6e00387b2270223a226272632d3230222c226f70223a227472616e73666572222c227469636b223a22314f6e38222c22616d74223a22313332227d6821c00915018513fbb2986e6f949906d10a2a25d10b1536110e858c5ca78e4ec23aac00000000"
}