{
  "txid": "e5d023499f6206102e6a4e4ab2462f50bb9dc93e67962bbb5c5e5a2f1686f9db",
  "version": 1,
  "locktime": 0,
  "vin": [
    {
      "txid": "5374b3db0a4f199f500535e40445c76e9e0b106493c1c339d21b004caa13fa81",
      "vout": 0,
      "prevout": {
        "scriptpubkey": "51208200a5b47b2965b6cd5aa8955e64c4323a2140adcf16cf3ddb4e0edc7511ae96",
        "scriptpubkey_asm": "OP_PUSHNUM_1 OP_PUSHBYTES_32 8200a5b47b2965b6cd5aa8955e64c4323a2140adcf16cf3ddb4e0edc7511ae96",
        "scriptpubkey_type": "v1_p2tr",
        "scriptpubkey_address": "bc1psgq2tdrm99jmdn264z24uexyxgazzs9deutv70wmfc8dcag346tqa5sx9z",
        "value": 2196
      },
      "scriptsig": "",
      "scriptsig_asm": "",
      "witness": [
        "c3de3edb640c9a52cf701134d19479609e8881f805764db8b181348c57590695eeb5adeaf2e2bf0fa0a94edaabcd72f599e8cb03805d434e1796eeafe9d370be",
        "2075f89f3a20f132f773af20f57088705671c47ed79ba6079733fd9ced72cf09ebac0063036f726401010a746578742f706c61696e003e7b2270223a226272632d3230222c226f70223a227472616e73666572222c227469636b223a2253415453222c22616d74223a22323030303030303030227d68",
        "c175f89f3a20f132f773af20f57088705671c47ed79ba6079733fd9ced72cf09eb"
      ],
      "is_coinbase": false,
      "sequence": 4294967293
    }
  ],
  "vout": [
    {
      "scriptpubkey": "51208fbb31a145d71862f6c5648edf4e4434046706eb64c2985b0a6ba63af0e3ea9a",
      "scriptpubkey_asm": "OP_PUSHNUM_1 OP_PUSHBYTES_32 8fbb31a145d71862f6c5648edf4e4434046706eb64c2985b0a6ba63af0e3ea9a",
      "scriptpubkey_type": "v1_p2tr",
      "scriptpubkey_address": "bc1p37anrg296uvx9ak9vj8d7njyxszxwphtvnpfskc2dwnr4u8ra2dqc54a5x",
      "value": 546
    }
  ],
  "size": 315,
  "weight": 597,
  "fee": 1650,
  "status": {
    "confirmed": true,
    "block_height": 834464,
    "block_hash": "0000000000000000000177a0869a911a2b65c9bdcd5a8bcb02b68f305bee848e",
    "block_time": 1710308296
  },
  "hex": "0100000000010181fa13aa4c001bd239c3c19364100b9e6ec74504e43505509f194f0adbb374530000000000fdffffff0122020000000000002251208fbb31a145d71862f6c5648edf4e4434046706eb64c2985b0a6ba63af0e3ea9a0340c3de3edb640c9a52cf701134d19479609e8881f805764db8b181348c57590695eeb5adeaf2e2bf0fa0a94edaabcd72f599e8cb03805d434e1796eeafe9d370be762075f89f3a20f132f773af20f57088705671c47ed79ba6079733fd9ced72cf09ebac0063036f726401010a746578742f706c61696e003e7b2270223a226272632d3230222c226f70223a227472616e73666572222c227469636b223a2253415453222c22616d74223a22323030303030303030227d6821c175f89f3a20f132f773af20f57088705671c47ed79ba6079733fd9ced72cf09eb00000000"
}