{
  "txid": "e5ed29fa002d202a7fa263f641f632ed51ef433f679bd8780de0b98e99020a20",
  "version": 2,
  "locktime": 0,
  "vin": [
    {
      "txid": "0ff20afdcd0cf31251ce54b30ddd225643174e82e6288d3bca3d06236597fb2d",
      "vout": 20,
      "prevout": {
        "scriptpubkey": "0014b1756bed48b77a33512b15602220648b3077bf56",
        "scriptpubkey_asm": "OP_0 OP_PUSHBYTES_20 b1756bed48b77a33512b15602220648b3077bf56",
        "scriptpubkey_type": "v0_p2wpkh",
        "scriptpubkey_address": "bc1qk96khm2gkaarx5ftz4szygry3vc8006k0dsq09",
        "value": 2853000
      },
      "scriptsig": "",
      "scriptsig_asm": "",
      "witness": [
        "30450221008a9cc155d581c2bdbc670db43f39f7704962845e11a9f12be4d0f7e72e20cf8002203a6f1d0c300c41393dd2c4d6403a45289e82b41566fe69e092b350f820f5a1c001",
        "0284517679ee47b0229246f9d736a43f1f26630a70d6b0daa058307202a58ee3b3"
      ],
      "is_coinbase": false,
      "sequence": 0
    }
  ],
  "vout": [
    {
      "scriptpubkey": "76a914d346f891aee86bc6eea3fd7b73935eb88e1345a888ac",
      "scriptpubkey_asm": "OP_DUP OP_HASH160 OP_PUSHBYTES_20 d346f891aee86bc6eea3fd7b73935eb88e1345a8 OP_EQUALVERIFY OP_CHECKSIG",
      "scriptpubkey_type": "p2pkh",
      "scriptpubkey_address": "1LG8bdJRMAiv7jxsTG9kqtD7FNUcPT4Hr9",
      "value": 2850966
    }
  ],
  "size": 195,
  "weight": 450,
  "fee": 2034,
  "status": {
    "confirmed": true,
    "block_height": 834638,
    "block_hash": "000000000000000000025f742c626208ac87e0b7d15054abb4a19ca2d735a54e",
    "block_time": 1710405325
  },
  "hex": "020000000001012dfb976523063dca3b8d28e6824e17435622dd0db354ce5112f30ccdfd0af20f1400000000000000000196802b00000000001976a914d346f891aee86bc6eea3fd7b73935eb88e1345a888ac024830450221008a9cc155d581c2bdbc670db43f39f7704962845e11a9f12be4d0f7e72e20cf8002203a6f1d0c300c41393dd2c4d6403a45289e82b41566fe69e092b350f820f5a1c001210284517679ee47b0229246f9d736a43f1f26630a70d6b0daa058307202a58ee3b300000000"
}