{
  "txid": "e5fdcf01c5582c4b7537e57a0217676c062a67967a5679258f85fa990f1422ca",
  "version": 2,
  "locktime": 0,
  "vin": [
    {
      "txid": "12fe58804e9d061a699c82bf621db2a7ea6639dcfa94d259c4b01bfcf95b061a",
      "vout": 12,
      "prevout": {
        "scriptpubkey": "5120e4a49d94cf64077a909abed90fab729be12c618108ccb206fbcac40872d75559",
        "scriptpubkey_asm": "OP_PUSHNUM_1 OP_PUSHBYTES_32 e4a49d94cf64077a909abed90fab729be12c618108ccb206fbcac40872d75559",
        "scriptpubkey_type": "v1_p2tr",
        "scriptpubkey_address": "bc1pujjfm9x0vsrh4yy6hmvsl2mjn0sjccvpprxtyphmetzqsukh24vsrm5xsv",
        "value": 2471
      },
      "scriptsig": "",
      "scriptsig_asm": "",
      "witness": [
        "2c03e9ddae779deec104d92771ccb5ac879194a0768cfd2e0b28047c4040b36caba0c1b35151a6696d2a5bf66bf6ab7f0ec51a3399772222a6d2286ee7610701",
        "2076a71b55cbac3aa7d50cddb47dfb0f0702dc8e82f49a07e111fe0adae6cf5df6ac0063036f7264010118746578742f706c61696e3b636861727365743d7574662d38004c947b2270223a2022746170222c20226f70223a2022646d742d6d696e74222c2022646570223a2022366134396139343839376531373435326133633236363131363036323132346331346137333566623335353737303866313533623139666364376238376538336930222c20227469636b223a2022f09f92b0f09f90b8f09f92b0222c2022626c6b223a2022313330303539227d68",
        "c0f3c76533aefc774b0707ddcd1b4941606fa49e3564f0a84ef66fd28168e942d9"
      ],
      "is_coinbase": false,
      "sequence": 4294967295
    }
  ],
  "vout": [
    {
      "scriptpubkey": "51206995824a071ac4f752d81f89304c314d5fe918d3c4d9b534d336bc01090fa188",
      "scriptpubkey_asm": "OP_PUSHNUM_1 OP_PUSHBYTES_32 6995824a071ac4f752d81f89304c314d5fe918d3c4d9b534d336bc01090fa188",
      "scriptpubkey_type": "v1_p2tr",
      "scriptpubkey_address": "bc1pdx2cyjs8rtz0w5kcr7ynqnp3f407jxxncnvm2dxnx67qzzg05xyqy837q4",
      "value": 546
    }
  ],
  "size": 416,
  "weight": 698,
  "fee": 1925,
  "status": {
    "confirmed": true,
    "block_height": 834464,
    "block_hash": "0000000000000000000177a0869a911a2b65c9bdcd5a8bcb02b68f305bee848e",
    "block_time": 1710308296
  },
  "hex": "020000000001011a065bf9fc1bb0c459d294fadc3966eaa7b21d62bf829c691a069d4e8058fe120c00000000ffffffff0122020000000000002251206995824a071ac4f752d81f89304c314d5fe918d3c4d9b534d336bc01090fa18803402c03e9ddae779deec104d92771ccb5ac879194a0768cfd2e0b28047c4040b36caba0c1b35151a6696d2a5bf66bf6ab7f0ec51a3399772222a6d2286ee7610701db2076a71b55cbac3aa7d50cddb47dfb0f0702dc8e82f49a07e111fe0adae6cf5df6ac0063036f7264010118746578742f706c61696e3b636861727365743d7574662d38004c947b2270223a2022746170222c20226f70223a2022646d742d6d696e74222c2022646570223a2022366134396139343839376531373435326133633236363131363036323132346331346137333566623335353737303866313533623139666364376238376538336930222c20227469636b223a2022f09f92b0f09f90b8f09f92b0222c2022626c6b223a2022313330303539227d6821c0f3c76533aefc774b0707ddcd1b4941606fa49e3564f0a84ef66fd28168e942d900000000"
}