{
  "txid": "e60d01f1eeee2dbec06ec3a8d448424ca93ea4dcefc453871fc404580cc03558",
  "version": 2,
  "locktime": 0,
  "vin": [
    {
      "txid": "f46668d945c05529b6b4dc3017214cb7f71148a81f0f5d442fa457ca1e278136",
      "vout": 0,
      "prevout": {
        "scriptpubkey": "5120914e1eeb18b193f82b31ef9312438a4a947717cbb66c11e55745bcb879337195",
        "scriptpubkey_asm": "OP_PUSHNUM_1 OP_PUSHBYTES_32 914e1eeb18b193f82b31ef9312438a4a947717cbb66c11e55745bcb879337195",
        "scriptpubkey_type": "v1_p2tr",
        "scriptpubkey_address": "bc1pj98pa6cckxfls2e3a7f3ysu2f228w97tkekpre2hgk7ts7fnwx2syf87xg",
        "value": 52000
      },
      "scriptsig": "",
      "scriptsig_asm": "",
      "witness": [
        "7ac2705a8335e0cd5d2ef952edc08e67c92625efc0333b069ec2bc75cb7bb296078819b0775a8e0909e160d463478eb2e6e4a9d1aa9bf60754c60040c0d8a209",
        "2040e79f525dabe886964aecc89d71b2e2afcce86cf14ed4e0f365f304f369ccf5ac0063036f726401011e6170706c69636174696f6e2f6a736f6e3b636861727365743d7574662d38004cb77b2270223a22706f772d3230222c226f70223a226d696e74222c227469636b223a2250455045222c22616d74223a2231303030222c22736f6c7574696f6e223a22504550453a3351345a614567486177466561585773437a6d775a743766465543593771377759703a303030303030303030303030303030303030303139393431613561653132383937363539383134343239323533333030353762306461393666336465613163353a3234313232363235343039227d68",
        "c18db7ab6533b96c0773861c29df1705bf8b1dfa6577ecaa232ec7cdccd60ed417"
      ],
      "is_coinbase": false,
      "sequence": 4294967293
    }
  ],
  "vout": [
    {
      "scriptpubkey": "a914f565ec243898a586d6342e6d91e39b804127827787",
      "scriptpubkey_asm": "OP_HASH160 OP_PUSHBYTES_20 f565ec243898a586d6342e6d91e39b8041278277 OP_EQUAL",
      "scriptpubkey_type": "p2sh",
      "scriptpubkey_address": "3Q4ZaEgHawFeaXWsCzmwZt7fFUCY7q7wYp",
      "value": 546
    },
    {
      "scriptpubkey": "51207c7ecf900351048a16271b054d4b6a6bb55199889030ab4d326d71e19a320cc2",
      "scriptpubkey_asm": "OP_PUSHNUM_1 OP_PUSHBYTES_32 7c7ecf900351048a16271b054d4b6a6bb55199889030ab4d326d71e19a320cc2",
      "scriptpubkey_type": "v1_p2tr",
      "scriptpubkey_address": "bc1p03lvlyqr2yzg5938rvz56jm2dw64rxvgjqc2knfjd4c7rx3jpnpqf3ssmh",
      "value": 2646
    },
    {
      "scriptpubkey": "51206a4b76b41e8b2825968463a7bac6552d479e51a5aac4ecdb18d44447e8eb7a71",
      "scriptpubkey_asm": "OP_PUSHNUM_1 OP_PUSHBYTES_32 6a4b76b41e8b2825968463a7bac6552d479e51a5aac4ecdb18d44447e8eb7a71",
      "scriptpubkey_type": "v1_p2tr",
      "scriptpubkey_address": "bc1pdf9hddq73v5zt95yvwnm43j494reu5d94tzwekcc63zy068t0fcst7c04t",
      "value": 2634
    },
    {
      "scriptpubkey": "5120199470284499e676f3ea52331edccf300a0aaec617e24c8ad3a72d1f46bd7a61",
      "scriptpubkey_asm": "OP_PUSHNUM_1 OP_PUSHBYTES_32 199470284499e676f3ea52331edccf300a0aaec617e24c8ad3a72d1f46bd7a61",
      "scriptpubkey_type": "v1_p2tr",
      "scriptpubkey_address": "bc1prx28q2zyn8n8dul22ge3ahx0xq9q4tkxzl3yezkn5uk3734a0fssmjlp39",
      "value": 2646
    },
    {
      "scriptpubkey": "512003b3831ab0dc35d6af58914671aaf2d775c09e4bdc32882a27e418f01e34d9b4",
      "scriptpubkey_asm": "OP_PUSHNUM_1 OP_PUSHBYTES_32 03b3831ab0dc35d6af58914671aaf2d775c09e4bdc32882a27e418f01e34d9b4",
      "scriptpubkey_type": "v1_p2tr",
      "scriptpubkey_address": "bc1pqwecxx4sms6adt6cj9r8r2hj6a6up8jtmsegs238usv0q835mx6qn58xae",
      "value": 2646
    },
    {
      "scriptpubkey": "51208e8ff2c0ac901f115ba54e7ec8a044b7cac32cc31870d10a2c4c81cfe7b99bce",
      "scriptpubkey_asm": "OP_PUSHNUM_1 OP_PUSHBYTES_32 8e8ff2c0ac901f115ba54e7ec8a044b7cac32cc31870d10a2c4c81cfe7b99bce",
      "scriptpubkey_type": "v1_p2tr",
      "scriptpubkey_address": "bc1p368l9s9vjq03zka9felv3gzykl9vxtxrrpcdzz3vfjquleaen08qql3pum",
      "value": 2646
    },
    {
      "scriptpubkey": "51206a22ddb10dbb3a83197b1ff39ca29e8847681f331c644d31b7eead15cf36bdb0",
      "scriptpubkey_asm": "OP_PUSHNUM_1 OP_PUSHBYTES_32 6a22ddb10dbb3a83197b1ff39ca29e8847681f331c644d31b7eead15cf36bdb0",
      "scriptpubkey_type": "v1_p2tr",
      "scriptpubkey_address": "bc1pdg3dmvgdhvagxxtmrleeeg573prks8enr3jy6vdha6k3tnekhkcqlc5etz",
      "value": 2634
    },
    {
      "scriptpubkey": "51200677065c6097f306d7d3e1f3102f265476422be05190aa3b5d81ce85e3ef5310",
      "scriptpubkey_asm": "OP_PUSHNUM_1 OP_PUSHBYTES_32 0677065c6097f306d7d3e1f3102f265476422be05190aa3b5d81ce85e3ef5310",
      "scriptpubkey_type": "v1_p2tr",
      "scriptpubkey_address": "bc1pqemsvhrqjlesd47nu8e3qtex23myy2lq2xg25w6as88gtcl02vgqnhf498",
      "value": 2646
    },
    {
      "scriptpubkey": "5120c6594254c812052785d1beffbd16295a76f08bf515ac1c60cb24d4529a507c87",
      "scriptpubkey_asm": "OP_PUSHNUM_1 OP_PUSHBYTES_32 c6594254c812052785d1beffbd16295a76f08bf515ac1c60cb24d4529a507c87",
      "scriptpubkey_type": "v1_p2tr",
      "scriptpubkey_address": "bc1pcev5y4xgzgzj0pw3hmlm693ftfm0pzl4zkkpccxtyn299xjs0jrsrepmnu",
      "value": 2646
    },
    {
      "scriptpubkey": "5120141c6da87fffdffca625617ebfa23fab87cc60fd1b8d977f8739acc5ba65da1e",
      "scriptpubkey_asm": "OP_PUSHNUM_1 OP_PUSHBYTES_32 141c6da87fffdffca625617ebfa23fab87cc60fd1b8d977f8739acc5ba65da1e",
      "scriptpubkey_type": "v1_p2tr",
      "scriptpubkey_address": "bc1pzswxm2rlll0lef39v9ltlg3l4wrucc8arwxewlu88xkvtwn9mg0q34qg66",
      "value": 2646
    },
    {
      "scriptpubkey": "0014056d283d77183b688fc093dfd5983c0c7a9efc68",
      "scriptpubkey_asm": "OP_0 OP_PUSHBYTES_20 056d283d77183b688fc093dfd5983c0c7a9efc68",
      "scriptpubkey_type": "v0_p2wpkh",
      "scriptpubkey_address": "bc1qq4kjs0thrqak3r7qj00atxpup3afalrgd4et7w",
      "value": 20548
    }
  ],
  "size": 866,
  "weight": 2369,
  "fee": 7116,
  "status": {
    "confirmed": true,
    "block_height": 834460,
    "block_hash": "00000000000000000000484a79b643b2524bbce82e5d8a442013fa5b8905ed98",
    "block_time": 1710307468
  },
  "hex": "020000000001013681271eca57a42f445d0f1fa84811f7b74c211730dcb4b62955c045d96866f40000000000fdffffff0b220200000000000017a914f565ec243898a586d6342e6d91e39b804127827787560a0000000000002251207c7ecf900351048a16271b054d4b6a6bb55199889030ab4d326d71e19a320cc24a0a0000000000002251206a4b76b41e8b2825968463a7bac6552d479e51a5aac4ecdb18d44447e8eb7a71560a000000000000225120199470284499e676f3ea52331edccf300a0aaec617e24c8ad3a72d1f46bd7a61560a00000000000022512003b3831ab0dc35d6af58914671aaf2d775c09e4bdc32882a27e418f01e34d9b4560a0000000000002251208e8ff2c0ac901f115ba54e7ec8a044b7cac32cc31870d10a2c4c81cfe7b99bce4a0a0000000000002251206a22ddb10dbb3a83197b1ff39ca29e8847681f331c644d31b7eead15cf36bdb0560a0000000000002251200677065c6097f306d7d3e1f3102f265476422be05190aa3b5d81ce85e3ef5310560a000000000000225120c6594254c812052785d1beffbd16295a76f08bf515ac1c60cb24d4529a507c87560a000000000000225120141c6da87fffdffca625617ebfa23fab87cc60fd1b8d977f8739acc5ba65da1e4450000000000000160014056d283d77183b688fc093dfd5983c0c7a9efc6803407ac2705a8335e0cd5d2ef952edc08e67c92625efc0333b069ec2bc75cb7bb296078819b0775a8e0909e160d463478eb2e6e4a9d1aa9bf60754c60040c0d8a209fd04012040e79f525dabe886964aecc89d71b2e2afcce86cf14ed4e0f365f304f369ccf5ac0063036f726401011e6170706c69636174696f6e2f6a736f6e3b636861727365743d7574662d38004cb77b2270223a22706f772d3230222c226f70223a226d696e74222c227469636b223a2250455045222c22616d74223a2231303030222c22736f6c7574696f6e223a22504550453a3351345a614567486177466561585773437a6d775a743766465543593771377759703a303030303030303030303030303030303030303139393431613561653132383937363539383134343239323533333030353762306461393666336465613163353a3234313232363235343039227d6821c18db7ab6533b96c0773861c29df1705bf8b1dfa6577ecaa232ec7cdccd60ed41700000000"
}