{
  "txid": "e611412545b9f7a1ef0feb6b4d2a0824f51e654445cba2247f0e8d7b08118cc2",
  "version": 1,
  "locktime": 0,
  "vin": [
    {
      "txid": "58a914422b5c46b3073ebccb9acb6ef26f303a0d38a647647c4eeaace029a613",
      "vout": 1,
      "prevout": {
        "scriptpubkey": "001423e6ce893a4e07e17ad9f5f11fbf099da860daab",
        "scriptpubkey_asm": "OP_0 OP_PUSHBYTES_20 23e6ce893a4e07e17ad9f5f11fbf099da860daab",
        "scriptpubkey_type": "v0_p2wpkh",
        "scriptpubkey_address": "bc1qy0nvazf6fcr7z7ke7hc3l0cfnk5xpk4twaf8p9",
        "value": 64984
      },
      "scriptsig": "",
      "scriptsig_asm": "",
      "witness": [
        "304402203892ad51566a29510003a439442f5b895003aa3dcbc6114451617003004306550220283e8b613c451379bc40826ec5f3e8d6dfc4583a4abe4a126563ce827d76cc3d01",
        "0206d15c5513a49ba2047ba5f5f3189837c203d356a08f4403a38b76077cdf6951"
      ],
      "is_coinbase": false,
      "sequence": 4294967295
    }
  ],
  "vout": [
    {
      "scriptpubkey": "a9141def633563c400e1f1d99b33d833d302486e9f9287",
      "scriptpubkey_asm": "OP_HASH160 OP_PUSHBYTES_20 1def633563c400e1f1d99b33d833d302486e9f92 OP_EQUAL",
      "scriptpubkey_type": "p2sh",
      "scriptpubkey_address": "34RJJ3X7qjUvG1sWcWAZvc8wEPePDZaEXs",
      "value": 62111
    }
  ],
  "size": 192,
  "weight": 441,
  "fee": 2873,
  "status": {
    "confirmed": true,
    "block_height": 834552,
    "block_hash": "00000000000000000001dd0468a70c94f619251d286585cff57aeb4bd9ede330",
    "block_time": 1710355598
  },
  "hex": "0100000000010113a629e0acea4e7c6447a6380d3a306ff26ecb9acbbc3e07b3465c2b4214a9580100000000ffffffff019ff200000000000017a9141def633563c400e1f1d99b33d833d302486e9f92870247304402203892ad51566a29510003a439442f5b895003aa3dcbc6114451617003004306550220283e8b613c451379bc40826ec5f3e8d6dfc4583a4abe4a126563ce827d76cc3d01210206d15c5513a49ba2047ba5f5f3189837c203d356a08f4403a38b76077cdf695100000000"
}