{
  "txid": "e62129c818eac960cb7629680dc576d6896b01a4ea407609e9b7254a2abadda4",
  "version": 2,
  "locktime": 0,
  "vin": [
    {
      "txid": "87e88b7f39cd58653cb299163c5fa60508793826b38ac20d4d5b1a756bc59f3b",
      "vout": 4,
      "prevout": {
        "scriptpubkey": "512029f2983c1985d4f9313693c60d890086560126e106f89188f52db950ef9b9f90",
        "scriptpubkey_asm": "OP_PUSHNUM_1 OP_PUSHBYTES_32 29f2983c1985d4f9313693c60d890086560126e106f89188f52db950ef9b9f90",
        "scriptpubkey_type": "v1_p2tr",
        "scriptpubkey_address": "bc1p98efs0qesh20jvfkj0rqmzgqsetqzfhpqmufrz849ku4pmumn7gq0jux65",
        "value": 10000
      },
      "scriptsig": "",
      "scriptsig_asm": "",
      "witness": [
        "56794575d4139f13eee00d220397e4fac525aea672dc2aceef415aeee064666428d9efc3ff67f66d7644ff6e05786eb77e0232162b241952d00dc3303f43ad4c"
      ],
      "is_coinbase": false,
      "sequence": 4294967295
    },
    {
      "txid": "87e88b7f39cd58653cb299163c5fa60508793826b38ac20d4d5b1a756bc59f3b",
      "vout": 0,
      "prevout": {
        "scriptpubkey": "0014942d5066cfecdf1df9b05e8c11f795e006c0f7bd",
        "scriptpubkey_asm": "OP_0 OP_PUSHBYTES_20 942d5066cfecdf1df9b05e8c11f795e006c0f7bd",
        "scriptpubkey_type": "v0_p2wpkh",
        "scriptpubkey_address": "bc1qjsk4qek0an03m7dst6xprau4uqrvpaaagkqdsc",
        "value": 12600
      },
      "scriptsig": "",
      "scriptsig_asm": "",
      "witness": [
        "304402203272d3313d1c30e06b18fc6b69141b7ff3656d4aab8fe9436225564aa7a9af7b0220478b1ee3b7c628f3ce9dff3d6761bf1538449f8a9517cb052c28599400555b6c01",
        "0282cf973a9a711f1944d5092ac87a1877c3c75161f17de23a7fdc30875cca0887"
      ],
      "is_coinbase": false,
      "sequence": 4294967295
    }
  ],
  "vout": [
    {
      "scriptpubkey": "001466e83ba777f925b4e2873f22521212a269a0df06",
      "scriptpubkey_asm": "OP_0 OP_PUSHBYTES_20 66e83ba777f925b4e2873f22521212a269a0df06",
      "scriptpubkey_type": "v0_p2wpkh",
      "scriptpubkey_address": "bc1qvm5rhfmhlyjmfc588u39yysj5f56phcxm64hdm",
      "value": 10000
    },
    {
      "scriptpubkey": "0014942d5066cfecdf1df9b05e8c11f795e006c0f7bd",
      "scriptpubkey_asm": "OP_0 OP_PUSHBYTES_20 942d5066cfecdf1df9b05e8c11f795e006c0f7bd",
      "scriptpubkey_type": "v0_p2wpkh",
      "scriptpubkey_address": "bc1qjsk4qek0an03m7dst6xprau4uqrvpaaagkqdsc",
      "value": 10823
    }
  ],
  "size": 329,
  "weight": 791,
  "fee": 1777,
  "status": {
    "confirmed": true,
    "block_height": 834464,
    "block_hash": "0000000000000000000177a0869a911a2b65c9bdcd5a8bcb02b68f305bee848e",
    "block_time": 1710308296
  },
  "hex": "020000000001023b9fc56b751a5b4d0dc28ab32638790805a65f3c1699b23c6558cd397f8be8870400000000ffffffff3b9fc56b751a5b4d0dc28ab32638790805a65f3c1699b23c6558cd397f8be8870000000000ffffffff02102700000000000016001466e83ba777f925b4e2873f22521212a269a0df06472a000000000000160014942d5066cfecdf1df9b05e8c11f795e006c0f7bd014056794575d4139f13eee00d220397e4fac525aea672dc2aceef415aeee064666428d9efc3ff67f66d7644ff6e05786eb77e0232162b241952d00dc3303f43ad4c0247304402203272d3313d1c30e06b18fc6b69141b7ff3656d4aab8fe9436225564aa7a9af7b0220478b1ee3b7c628f3ce9dff3d6761bf1538449f8a9517cb052c28599400555b6c01210282cf973a9a711f1944d5092ac87a1877c3c75161f17de23a7fdc30875cca088700000000"
}