{
  "txid": "e6278fae46b87933a015183d6a9f7375e79c3c9d53f507edf53be779bdc0cdd2",
  "version": 2,
  "locktime": 0,
  "vin": [
    {
      "txid": "3f69fae8ca9bdd774ca5294e86509449f431bb44e2206cae9f7f495b7952d9e2",
      "vout": 21,
      "prevout": {
        "scriptpubkey": "512031aeaa8223769f462e83575ead6652576b558726b6b1541385525ab8c0d96bbb",
        "scriptpubkey_asm": "OP_PUSHNUM_1 OP_PUSHBYTES_32 31aeaa8223769f462e83575ead6652576b558726b6b1541385525ab8c0d96bbb",
        "scriptpubkey_type": "v1_p2tr",
        "scriptpubkey_address": "bc1pxxh24q3rw605vt5r2a026ejj2a44tpexk6c4gyu92fdt3sxedwashvsza0",
        "value": 2996
      },
      "scriptsig": "",
      "scriptsig_asm": "",
      "witness": [
        "5ac5be7fd684b6323a622dbbe68c80dd2ba584c52cb131595c7dbf645bb508cfd538c71d316e3a7146460a58c56e43b17093d643ae22c415bc8f95ed2d146436",
        "2019ba170548544a3c44e84b093095b33819616e50d9743fcaac29052e1eec3a76ac0063036f726401011e6170706c69636174696f6e2f6a736f6e3b636861727365743d7574662d38004cb77b2270223a22706f772d3230222c226f70223a226d696e74222c227469636b223a2250455045222c22616d74223a2231303030222c22736f6c7574696f6e223a22504550453a334d524d3246744a42504c46315958564766504d33656556746675364446734762623a303030303030303030303030303030303030303139393431613561653132383937363539383134343239323533333030353762306461393666336465613163353a3136393738383333393530227d68",
        "c06b70a06f37e9fa1ff7e7bec8bd1210228b25051d0c17b5264cdd8c73b544f454"
      ],
      "is_coinbase": false,
      "sequence": 4294967295
    }
  ],
  "vout": [
    {
      "scriptpubkey": "a914d86bcd8c487ad519e95c6557e7463d579cce14a287",
      "scriptpubkey_asm": "OP_HASH160 OP_PUSHBYTES_20 d86bcd8c487ad519e95c6557e7463d579cce14a2 OP_EQUAL",
      "scriptpubkey_type": "p2sh",
      "scriptpubkey_address": "3MRM2FtJBPLF1YXVGfPM3eeVtfu6DFsGbb",
      "value": 546
    }
  ],
  "size": 448,
  "weight": 697,
  "fee": 2450,
  "status": {
    "confirmed": true,
    "block_height": 834460,
    "block_hash": "00000000000000000000484a79b643b2524bbce82e5d8a442013fa5b8905ed98",
    "block_time": 1710307468
  },
  "hex": "02000000000101e2d952795b497f9fae6c20e244bb31f4499450864e29a54c77dd9bcae8fa693f1500000000ffffffff01220200000000000017a914d86bcd8c487ad519e95c6557e7463d579cce14a28703405ac5be7fd684b6323a622dbbe68c80dd2ba584c52cb131595c7dbf645bb508cfd538c71d316e3a7146460a58c56e43b17093d643ae22c415bc8f95ed2d146436fd04012019ba170548544a3c44e84b093095b33819616e50d9743fcaac29052e1eec3a76ac0063036f726401011e6170706c69636174696f6e2f6a736f6e3b636861727365743d7574662d38004cb77b2270223a22706f772d3230222c226f70223a226d696e74222c227469636b223a2250455045222c22616d74223a2231303030222c22736f6c7574696f6e223a22504550453a334d524d3246744a42504c46315958564766504d33656556746675364446734762623a303030303030303030303030303030303030303139393431613561653132383937363539383134343239323533333030353762306461393666336465613163353a3136393738383333393530227d6821c06b70a06f37e9fa1ff7e7bec8bd1210228b25051d0c17b5264cdd8c73b544f45400000000"
}