{
  "txid": "e63d96eae142df3f42cfe1aaa0873093dfefeacd60936bb10543e7d394da43ef",
  "version": 2,
  "locktime": 0,
  "vin": [
    {
      "txid": "5a783ef98d4ee4575ebaca024138aef3455642bc44aa85e663ff16ad0fb95ae0",
      "vout": 13,
      "prevout": {
        "scriptpubkey": "51205ca8f28b5c54a04401be9f726797c2e23c4da5c48d86db8107e841386e770bb0",
        "scriptpubkey_asm": "OP_PUSHNUM_1 OP_PUSHBYTES_32 5ca8f28b5c54a04401be9f726797c2e23c4da5c48d86db8107e841386e770bb0",
        "scriptpubkey_type": "v1_p2tr",
        "scriptpubkey_address": "bc1ptj509z6u2jsygqd7naex097zug7ymfwy3krdhqg8apqnsmnhpwcqhvexng",
        "value": 4501935156
      },
      "scriptsig": "",
      "scriptsig_asm": "",
      "witness": [
        "741efa46aacc928ebc0abfda88eb6a93faf7e83e3bc49c68bfb15cbdfe0713e372deaac39afcf912174389e3237e0b12f6400ffb66619d0b8f6d406d67fc54a601"
      ],
      "is_coinbase": false,
      "sequence": 4294967293
    }
  ],
  "vout": [
    {
      "scriptpubkey": "a91489fd119ade393af1916d625a04d77b4633b2a43387",
      "scriptpubkey_asm": "OP_HASH160 OP_PUSHBYTES_20 89fd119ade393af1916d625a04d77b4633b2a433 OP_EQUAL",
      "scriptpubkey_type": "p2sh",
      "scriptpubkey_address": "3EGdfMJbhPCnxN44SKNZ94AVt9wwULd67S",
      "value": 742563794
    },
    {
      "scriptpubkey": "5120c6e88d4de0733ce3ba3c12c76bae6dd7fa7542a77a5ea889e0c318410e9e3bad",
      "scriptpubkey_asm": "OP_PUSHNUM_1 OP_PUSHBYTES_32 c6e88d4de0733ce3ba3c12c76bae6dd7fa7542a77a5ea889e0c318410e9e3bad",
      "scriptpubkey_type": "v1_p2tr",
      "scriptpubkey_address": "bc1pcm5g6n0qwv7w8w3uztrkhtnd6la82s480f023z0qcvvyzr578wksr20vyn",
      "value": 546
    },
    {
      "scriptpubkey": "a91489fd119ade393af1916d625a04d77b4633b2a43387",
      "scriptpubkey_asm": "OP_HASH160 OP_PUSHBYTES_20 89fd119ade393af1916d625a04d77b4633b2a433 OP_EQUAL",
      "scriptpubkey_type": "p2sh",
      "scriptpubkey_address": "3EGdfMJbhPCnxN44SKNZ94AVt9wwULd67S",
      "value": 357900001
    },
    {
      "scriptpubkey": "5120c6e88d4de0733ce3ba3c12c76bae6dd7fa7542a77a5ea889e0c318410e9e3bad",
      "scriptpubkey_asm": "OP_PUSHNUM_1 OP_PUSHBYTES_32 c6e88d4de0733ce3ba3c12c76bae6dd7fa7542a77a5ea889e0c318410e9e3bad",
      "scriptpubkey_type": "v1_p2tr",
      "scriptpubkey_address": "bc1pcm5g6n0qwv7w8w3uztrkhtnd6la82s480f023z0qcvvyzr578wksr20vyn",
      "value": 546
    },
    {
      "scriptpubkey": "a91489fd119ade393af1916d625a04d77b4633b2a43387",
      "scriptpubkey_asm": "OP_HASH160 OP_PUSHBYTES_20 89fd119ade393af1916d625a04d77b4633b2a433 OP_EQUAL",
      "scriptpubkey_type": "p2sh",
      "scriptpubkey_address": "3EGdfMJbhPCnxN44SKNZ94AVt9wwULd67S",
      "value": 58316356
    },
    {
      "scriptpubkey": "5120c6e88d4de0733ce3ba3c12c76bae6dd7fa7542a77a5ea889e0c318410e9e3bad",
      "scriptpubkey_asm": "OP_PUSHNUM_1 OP_PUSHBYTES_32 c6e88d4de0733ce3ba3c12c76bae6dd7fa7542a77a5ea889e0c318410e9e3bad",
      "scriptpubkey_type": "v1_p2tr",
      "scriptpubkey_address": "bc1pcm5g6n0qwv7w8w3uztrkhtnd6la82s480f023z0qcvvyzr578wksr20vyn",
      "value": 546
    },
    {
      "scriptpubkey": "a91489fd119ade393af1916d625a04d77b4633b2a43387",
      "scriptpubkey_asm": "OP_HASH160 OP_PUSHBYTES_20 89fd119ade393af1916d625a04d77b4633b2a433 OP_EQUAL",
      "scriptpubkey_type": "p2sh",
      "scriptpubkey_address": "3EGdfMJbhPCnxN44SKNZ94AVt9wwULd67S",
      "value": 59621143
    },
    {
      "scriptpubkey": "512069c551dc476c3510d5dc2afdedab5ccc2a29778a37709ccb63f148189bb501fb",
      "scriptpubkey_asm": "OP_PUSHNUM_1 OP_PUSHBYTES_32 69c551dc476c3510d5dc2afdedab5ccc2a29778a37709ccb63f148189bb501fb",
      "scriptpubkey_type": "v1_p2tr",
      "scriptpubkey_address": "bc1pd8z4rhz8ds63p4wu9t77m26ues4zjau2xacfejmr79yp3xa4q8as4jwk0u",
      "value": 546
    },
    {
      "scriptpubkey": "a91489fd119ade393af1916d625a04d77b4633b2a43387",
      "scriptpubkey_asm": "OP_HASH160 OP_PUSHBYTES_20 89fd119ade393af1916d625a04d77b4633b2a433 OP_EQUAL",
      "scriptpubkey_type": "p2sh",
      "scriptpubkey_address": "3EGdfMJbhPCnxN44SKNZ94AVt9wwULd67S",
      "value": 477231728
    },
    {
      "scriptpubkey": "5120c6e88d4de0733ce3ba3c12c76bae6dd7fa7542a77a5ea889e0c318410e9e3bad",
      "scriptpubkey_asm": "OP_PUSHNUM_1 OP_PUSHBYTES_32 c6e88d4de0733ce3ba3c12c76bae6dd7fa7542a77a5ea889e0c318410e9e3bad",
      "scriptpubkey_type": "v1_p2tr",
      "scriptpubkey_address": "bc1pcm5g6n0qwv7w8w3uztrkhtnd6la82s480f023z0qcvvyzr578wksr20vyn",
      "value": 546
    },
    {
      "scriptpubkey": "a91489fd119ade393af1916d625a04d77b4633b2a43387",
      "scriptpubkey_asm": "OP_HASH160 OP_PUSHBYTES_20 89fd119ade393af1916d625a04d77b4633b2a433 OP_EQUAL",
      "scriptpubkey_type": "p2sh",
      "scriptpubkey_address": "3EGdfMJbhPCnxN44SKNZ94AVt9wwULd67S",
      "value": 244856710
    },
    {
      "scriptpubkey": "5120c6e88d4de0733ce3ba3c12c76bae6dd7fa7542a77a5ea889e0c318410e9e3bad",
      "scriptpubkey_asm": "OP_PUSHNUM_1 OP_PUSHBYTES_32 c6e88d4de0733ce3ba3c12c76bae6dd7fa7542a77a5ea889e0c318410e9e3bad",
      "scriptpubkey_type": "v1_p2tr",
      "scriptpubkey_address": "bc1pcm5g6n0qwv7w8w3uztrkhtnd6la82s480f023z0qcvvyzr578wksr20vyn",
      "value": 241141
    },
    {
      "scriptpubkey": "a91489fd119ade393af1916d625a04d77b4633b2a43387",
      "scriptpubkey_asm": "OP_HASH160 OP_PUSHBYTES_20 89fd119ade393af1916d625a04d77b4633b2a433 OP_EQUAL",
      "scriptpubkey_type": "p2sh",
      "scriptpubkey_address": "3EGdfMJbhPCnxN44SKNZ94AVt9wwULd67S",
      "value": 55227890
    },
    {
      "scriptpubkey": "5120c6e88d4de0733ce3ba3c12c76bae6dd7fa7542a77a5ea889e0c318410e9e3bad",
      "scriptpubkey_asm": "OP_PUSHNUM_1 OP_PUSHBYTES_32 c6e88d4de0733ce3ba3c12c76bae6dd7fa7542a77a5ea889e0c318410e9e3bad",
      "scriptpubkey_type": "v1_p2tr",
      "scriptpubkey_address": "bc1pcm5g6n0qwv7w8w3uztrkhtnd6la82s480f023z0qcvvyzr578wksr20vyn",
      "value": 546
    },
    {
      "scriptpubkey": "a91489fd119ade393af1916d625a04d77b4633b2a43387",
      "scriptpubkey_asm": "OP_HASH160 OP_PUSHBYTES_20 89fd119ade393af1916d625a04d77b4633b2a433 OP_EQUAL",
      "scriptpubkey_type": "p2sh",
      "scriptpubkey_address": "3EGdfMJbhPCnxN44SKNZ94AVt9wwULd67S",
      "value": 1447250135
    },
    {
      "scriptpubkey": "5120c6e88d4de0733ce3ba3c12c76bae6dd7fa7542a77a5ea889e0c318410e9e3bad",
      "scriptpubkey_asm": "OP_PUSHNUM_1 OP_PUSHBYTES_32 c6e88d4de0733ce3ba3c12c76bae6dd7fa7542a77a5ea889e0c318410e9e3bad",
      "scriptpubkey_type": "v1_p2tr",
      "scriptpubkey_address": "bc1pcm5g6n0qwv7w8w3uztrkhtnd6la82s480f023z0qcvvyzr578wksr20vyn",
      "value": 546
    },
    {
      "scriptpubkey": "a91489fd119ade393af1916d625a04d77b4633b2a43387",
      "scriptpubkey_asm": "OP_HASH160 OP_PUSHBYTES_20 89fd119ade393af1916d625a04d77b4633b2a433 OP_EQUAL",
      "scriptpubkey_type": "p2sh",
      "scriptpubkey_address": "3EGdfMJbhPCnxN44SKNZ94AVt9wwULd67S",
      "value": 9999454
    },
    {
      "scriptpubkey": "5120c6e88d4de0733ce3ba3c12c76bae6dd7fa7542a77a5ea889e0c318410e9e3bad",
      "scriptpubkey_asm": "OP_PUSHNUM_1 OP_PUSHBYTES_32 c6e88d4de0733ce3ba3c12c76bae6dd7fa7542a77a5ea889e0c318410e9e3bad",
      "scriptpubkey_type": "v1_p2tr",
      "scriptpubkey_address": "bc1pcm5g6n0qwv7w8w3uztrkhtnd6la82s480f023z0qcvvyzr578wksr20vyn",
      "value": 546
    },
    {
      "scriptpubkey": "a91489fd119ade393af1916d625a04d77b4633b2a43387",
      "scriptpubkey_asm": "OP_HASH160 OP_PUSHBYTES_20 89fd119ade393af1916d625a04d77b4633b2a433 OP_EQUAL",
      "scriptpubkey_type": "p2sh",
      "scriptpubkey_address": "3EGdfMJbhPCnxN44SKNZ94AVt9wwULd67S",
      "value": 316358904
    },
    {
      "scriptpubkey": "5120c6e88d4de0733ce3ba3c12c76bae6dd7fa7542a77a5ea889e0c318410e9e3bad",
      "scriptpubkey_asm": "OP_PUSHNUM_1 OP_PUSHBYTES_32 c6e88d4de0733ce3ba3c12c76bae6dd7fa7542a77a5ea889e0c318410e9e3bad",
      "scriptpubkey_type": "v1_p2tr",
      "scriptpubkey_address": "bc1pcm5g6n0qwv7w8w3uztrkhtnd6la82s480f023z0qcvvyzr578wksr20vyn",
      "value": 546
    },
    {
      "scriptpubkey": "a91489fd119ade393af1916d625a04d77b4633b2a43387",
      "scriptpubkey_asm": "OP_HASH160 OP_PUSHBYTES_20 89fd119ade393af1916d625a04d77b4633b2a433 OP_EQUAL",
      "scriptpubkey_type": "p2sh",
      "scriptpubkey_address": "3EGdfMJbhPCnxN44SKNZ94AVt9wwULd67S",
      "value": 9999454
    },
    {
      "scriptpubkey": "5120c6e88d4de0733ce3ba3c12c76bae6dd7fa7542a77a5ea889e0c318410e9e3bad",
      "scriptpubkey_asm": "OP_PUSHNUM_1 OP_PUSHBYTES_32 c6e88d4de0733ce3ba3c12c76bae6dd7fa7542a77a5ea889e0c318410e9e3bad",
      "scriptpubkey_type": "v1_p2tr",
      "scriptpubkey_address": "bc1pcm5g6n0qwv7w8w3uztrkhtnd6la82s480f023z0qcvvyzr578wksr20vyn",
      "value": 546
    },
    {
      "scriptpubkey": "a91489fd119ade393af1916d625a04d77b4633b2a43387",
      "scriptpubkey_asm": "OP_HASH160 OP_PUSHBYTES_20 89fd119ade393af1916d625a04d77b4633b2a433 OP_EQUAL",
      "scriptpubkey_type": "p2sh",
      "scriptpubkey_address": "3EGdfMJbhPCnxN44SKNZ94AVt9wwULd67S",
      "value": 722349018
    }
  ],
  "size": 977,
  "weight": 3701,
  "fee": 13968,
  "status": {
    "confirmed": true,
    "block_height": 834638,
    "block_hash": "000000000000000000025f742c626208ac87e0b7d15054abb4a19ca2d735a54e",
    "block_time": 1710405325
  },
  "hex": "02000000000101e05ab90fad16ff63e685aa44bc425645f3ae384102caba5e57e44e8df93e785a0d00000000fdffffff17d29f422c0000000017a91489fd119ade393af1916d625a04d77b4633b2a433872202000000000000225120c6e88d4de0733ce3ba3c12c76bae6dd7fa7542a77a5ea889e0c318410e9e3bade11e55150000000017a91489fd119ade393af1916d625a04d77b4633b2a433872202000000000000225120c6e88d4de0733ce3ba3c12c76bae6dd7fa7542a77a5ea889e0c318410e9e3bad44d679030000000017a91489fd119ade393af1916d625a04d77b4633b2a433872202000000000000225120c6e88d4de0733ce3ba3c12c76bae6dd7fa7542a77a5ea889e0c318410e9e3bad17bf8d030000000017a91489fd119ade393af1916d625a04d77b4633b2a43387220200000000000022512069c551dc476c3510d5dc2afdedab5ccc2a29778a37709ccb63f148189bb501fb70fa711c0000000017a91489fd119ade393af1916d625a04d77b4633b2a433872202000000000000225120c6e88d4de0733ce3ba3c12c76bae6dd7fa7542a77a5ea889e0c318410e9e3bad8637980e0000000017a91489fd119ade393af1916d625a04d77b4633b2a43387f5ad030000000000225120c6e88d4de0733ce3ba3c12c76bae6dd7fa7542a77a5ea889e0c318410e9e3badf2b54a030000000017a91489fd119ade393af1916d625a04d77b4633b2a433872202000000000000225120c6e88d4de0733ce3ba3c12c76bae6dd7fa7542a77a5ea889e0c318410e9e3badd74843560000000017a91489fd119ade393af1916d625a04d77b4633b2a433872202000000000000225120c6e88d4de0733ce3ba3c12c76bae6dd7fa7542a77a5ea889e0c318410e9e3bad5e9498000000000017a91489fd119ade393af1916d625a04d77b4633b2a433872202000000000000225120c6e88d4de0733ce3ba3c12c76bae6dd7fa7542a77a5ea889e0c318410e9e3badf840db120000000017a91489fd119ade393af1916d625a04d77b4633b2a433872202000000000000225120c6e88d4de0733ce3ba3c12c76bae6dd7fa7542a77a5ea889e0c318410e9e3bad5e9498000000000017a91489fd119ade393af1916d625a04d77b4633b2a433872202000000000000225120c6e88d4de0733ce3ba3c12c76bae6dd7fa7542a77a5ea889e0c318410e9e3badda2b0e2b0000000017a91489fd119ade393af1916d625a04d77b4633b2a433870141741efa46aacc928ebc0abfda88eb6a93faf7e83e3bc49c68bfb15cbdfe0713e372deaac39afcf912174389e3237e0b12f6400ffb66619d0b8f6d406d67fc54a60100000000"
}