{
  "txid": "e656b3bf51eba4fdc1af18f67df16206f6690f6dfcc8dfb3a37aad1e3d80aa41",
  "version": 2,
  "locktime": 0,
  "vin": [
    {
      "txid": "8486ecb4df0880316dd6e82b3971b4df187aff23765bc3a47f8d78bb53aa273c",
      "vout": 75,
      "prevout": {
        "scriptpubkey": "5120773f1525777783847949d3d0ffa1c7c68348b06901db2ef73f16a3f3a354a345",
        "scriptpubkey_asm": "OP_PUSHNUM_1 OP_PUSHBYTES_32 773f1525777783847949d3d0ffa1c7c68348b06901db2ef73f16a3f3a354a345",
        "scriptpubkey_type": "v1_p2tr",
        "scriptpubkey_address": "bc1pwul32fthw7pcg72f60g0lgw8c6p53vrfq8djaaelz63l8g655dzsw2l7d0",
        "value": 2575
      },
      "scriptsig": "",
      "scriptsig_asm": "",
      "witness": [
        "70ef9026dce698474bbc8d72d5f488f131fb095528cbfe92ebb329cb759a93557d8fd9ed8e839009ab1e10a455968bb219bcbae4ce45e0fab4d4454e55d8ae9b",
        "209c93d37d48b5b79bc4edce65966e175cc2c38af6ab05a468dac9bb5de4575dbdac0063036f726401010a746578742f706c61696e00367b2270223a226272632d3230222c226f70223a226d696e74222c227469636b223a2261616161222c22616d74223a223130303030227d68",
        "c09c93d37d48b5b79bc4edce65966e175cc2c38af6ab05a468dac9bb5de4575dbd"
      ],
      "is_coinbase": false,
      "sequence": 4261412863
    }
  ],
  "vout": [
    {
      "scriptpubkey": "0014ddd7ef12ea6f78edcc1e8e7afa12c01ab59f3339",
      "scriptpubkey_asm": "OP_0 OP_PUSHBYTES_20 ddd7ef12ea6f78edcc1e8e7afa12c01ab59f3339",
      "scriptpubkey_type": "v0_p2wpkh",
      "scriptpubkey_address": "bc1qmht77yh2dauwmnq73ea05ykqr26e7veea8spz6",
      "value": 546
    }
  ],
  "size": 295,
  "weight": 541,
  "fee": 2029,
  "status": {
    "confirmed": true,
    "block_height": 834460,
    "block_hash": "00000000000000000000484a79b643b2524bbce82e5d8a442013fa5b8905ed98",
    "block_time": 1710307468
  },
  "hex": "020000000001013c27aa53bb788d7fa4c35b7623ff7a18dfb471392be8d66d318008dfb4ec86844b00000000fffffffd012202000000000000160014ddd7ef12ea6f78edcc1e8e7afa12c01ab59f3339034070ef9026dce698474bbc8d72d5f488f131fb095528cbfe92ebb329cb759a93557d8fd9ed8e839009ab1e10a455968bb219bcbae4ce45e0fab4d4454e55d8ae9b6e209c93d37d48b5b79bc4edce65966e175cc2c38af6ab05a468dac9bb5de4575dbdac0063036f726401010a746578742f706c61696e00367b2270223a226272632d3230222c226f70223a226d696e74222c227469636b223a2261616161222c22616d74223a223130303030227d6821c09c93d37d48b5b79bc4edce65966e175cc2c38af6ab05a468dac9bb5de4575dbd00000000"
}