{
  "txid": "e676273e11d0e82fcb4eec39a01622a331a6f3a47a56dd088b85afdee0984e97",
  "version": 2,
  "locktime": 834637,
  "vin": [
    {
      "txid": "b4b514628964571ae3156063684301660ca057a92e7d322ad1ae4d619805b8b7",
      "vout": 0,
      "prevout": {
        "scriptpubkey": "a914189835951a111d1f314e301d6ec919a60e17b0b887",
        "scriptpubkey_asm": "OP_HASH160 OP_PUSHBYTES_20 189835951a111d1f314e301d6ec919a60e17b0b8 OP_EQUAL",
        "scriptpubkey_type": "p2sh",
        "scriptpubkey_address": "33w4UqRXduz8FhZSsp2pEMtTyJpwDjF5Nc",
        "value": 206318595
      },
      "scriptsig": "160014fdbec935bcaa8e3c1de1b3b7335a874068e615f3",
      "scriptsig_asm": "OP_PUSHBYTES_22 0014fdbec935bcaa8e3c1de1b3b7335a874068e615f3",
      "witness": [
        "3044022070600337dc492f900a0742ccc818e0e342dd6c5116bf95efa95d68e96bb35f730220198ae257531a700a5b82879b735792153548ebd37e6d47f6978b252cbc82a27101",
        "02504d86376eff53266c0638dc822a9975e0cdfa8f86ae18d6c79f38d7771325c9"
      ],
      "is_coinbase": false,
      "sequence": 4294967293,
      "inner_redeemscript_asm": "OP_0 OP_PUSHBYTES_20 fdbec935bcaa8e3c1de1b3b7335a874068e615f3"
    }
  ],
  "vout": [
    {
      "scriptpubkey": "0014bb95b261f1e79e303a3398e8784bfb14701532a7",
      "scriptpubkey_asm": "OP_0 OP_PUSHBYTES_20 bb95b261f1e79e303a3398e8784bfb14701532a7",
      "scriptpubkey_type": "v0_p2wpkh",
      "scriptpubkey_address": "bc1qhw2myc03u70rqw3nnr58sjlmz3cp2v487sqxxj",
      "value": 129384
    },
    {
      "scriptpubkey": "001483567651d1fe5914f0b041a5d8f63cf6193ff5e5",
      "scriptpubkey_asm": "OP_0 OP_PUSHBYTES_20 83567651d1fe5914f0b041a5d8f63cf6193ff5e5",
      "scriptpubkey_type": "v0_p2wpkh",
      "scriptpubkey_address": "bc1qsdt8v5w3lev3fu9sgxja3a3u7cvnla09makskr",
      "value": 205768738
    },
    {
      "scriptpubkey": "0014f26976d141166926f54753bfc357c80fc4ba4ede",
      "scriptpubkey_asm": "OP_0 OP_PUSHBYTES_20 f26976d141166926f54753bfc357c80fc4ba4ede",
      "scriptpubkey_type": "v0_p2wpkh",
      "scriptpubkey_address": "bc1q7f5hd52pze5jda282wlux47gplzt5nk7xz75pj",
      "value": 415209
    }
  ],
  "size": 276,
  "weight": 777,
  "fee": 5264,
  "status": {
    "confirmed": true,
    "block_height": 834638,
    "block_hash": "000000000000000000025f742c626208ac87e0b7d15054abb4a19ca2d735a54e",
    "block_time": 1710405325
  },
  "hex": "02000000000101b7b80598614daed12a327d2ea957a00c66014368636015e31a5764896214b5b40000000017160014fdbec935bcaa8e3c1de1b3b7335a874068e615f3fdffffff0368f9010000000000160014bb95b261f1e79e303a3398e8784bfb14701532a722c8430c0000000016001483567651d1fe5914f0b041a5d8f63cf6193ff5e5e955060000000000160014f26976d141166926f54753bfc357c80fc4ba4ede02473044022070600337dc492f900a0742ccc818e0e342dd6c5116bf95efa95d68e96bb35f730220198ae257531a700a5b82879b735792153548ebd37e6d47f6978b252cbc82a271012102504d86376eff53266c0638dc822a9975e0cdfa8f86ae18d6c79f38d7771325c94dbc0c00"
}