{
  "txid": "e68ab8d8d03dbbe90d70959a901677c765e5a0217681a70720ead4c92e69f905",
  "version": 2,
  "locktime": 0,
  "vin": [
    {
      "txid": "29c6d1dadf49ea7ac8d1ed671d0db1ded769cb773003d8c5afee1961f59687ae",
      "vout": 5,
      "prevout": {
        "scriptpubkey": "0014194cf04aafeabba9560d64b9b68bd16b0ada731e",
        "scriptpubkey_asm": "OP_0 OP_PUSHBYTES_20 194cf04aafeabba9560d64b9b68bd16b0ada731e",
        "scriptpubkey_type": "v0_p2wpkh",
        "scriptpubkey_address": "bc1qr9x0qj40a2a6j4sdvjumdz73dv9d5uc7qwlrhc",
        "value": 88000
      },
      "scriptsig": "",
      "scriptsig_asm": "",
      "witness": [
        "30440220038066f37145b55fc846c41f62777ccf53d00f79178ff0951bb30258fdf7892f02202b1ad623a39b85f0a3011befc271b7e56dcf53b31199a4617ea6f2c778a756dc01",
        "0205c0cc57c59035631d370756785a37429d2a9357fed5be638c3481ccb596721d"
      ],
      "is_coinbase": false,
      "sequence": 4294967295
    },
    {
      "txid": "c348c0298f0ead57066a8358d5ebf08080aecbd9fa5bda3ff7771c704e2a601f",
      "vout": 8,
      "prevout": {
        "scriptpubkey": "0014ef29042b26cbe1abf100dd55375e6bef7968580e",
        "scriptpubkey_asm": "OP_0 OP_PUSHBYTES_20 ef29042b26cbe1abf100dd55375e6bef7968580e",
        "scriptpubkey_type": "v0_p2wpkh",
        "scriptpubkey_address": "bc1qau5sg2exe0s6hugqm42nwhntaaukskqwud36yg",
        "value": 1835299
      },
      "scriptsig": "",
      "scriptsig_asm": "",
      "witness": [
        "3044022021fb15351c962fe4a4fbeb1f6d483698d2443925b8d83b530b0f8239f79a9ede0220207883bf73ad4651e2a9e2cdaa95dc79d7e94b1e1689aafedd8e3679c8014d6401",
        "025c98e445d21fa418992775815ffe162259fe2c9a271b21769accce12073ed38a"
      ],
      "is_coinbase": false,
      "sequence": 4294967295
    }
  ],
  "vout": [
    {
      "scriptpubkey": "a914dab47ec69737255c7ad724f9c841f838532ce26287",
      "scriptpubkey_asm": "OP_HASH160 OP_PUSHBYTES_20 dab47ec69737255c7ad724f9c841f838532ce262 OP_EQUAL",
      "scriptpubkey_type": "p2sh",
      "scriptpubkey_address": "3MdRTPbUGNv7GddZ3aDRNMCXJhcYo33BQP",
      "value": 1000000
    },
    {
      "scriptpubkey": "0014ef105364a537ce8dd7e5aa2882def8a613777a5c",
      "scriptpubkey_asm": "OP_0 OP_PUSHBYTES_20 ef105364a537ce8dd7e5aa2882def8a613777a5c",
      "scriptpubkey_type": "v0_p2wpkh",
      "scriptpubkey_address": "bc1qaug9xe99xl8gm4l94g5g9hhc5cfhw7juy3svsj",
      "value": 919537
    }
  ],
  "size": 371,
  "weight": 836,
  "fee": 3762,
  "status": {
    "confirmed": true,
    "block_height": 834638,
    "block_hash": "000000000000000000025f742c626208ac87e0b7d15054abb4a19ca2d735a54e",
    "block_time": 1710405325
  },
  "hex": "02000000000102ae8796f56119eeafc5d8033077cb69d7deb10d1d67edd1c87aea49dfdad1c6290500000000ffffffff1f602a4e701c77f73fda5bfad9cbae8080f0ebd558836a0657ad0e8f29c048c30800000000ffffffff0240420f000000000017a914dab47ec69737255c7ad724f9c841f838532ce26287f1070e0000000000160014ef105364a537ce8dd7e5aa2882def8a613777a5c024730440220038066f37145b55fc846c41f62777ccf53d00f79178ff0951bb30258fdf7892f02202b1ad623a39b85f0a3011befc271b7e56dcf53b31199a4617ea6f2c778a756dc01210205c0cc57c59035631d370756785a37429d2a9357fed5be638c3481ccb596721d02473044022021fb15351c962fe4a4fbeb1f6d483698d2443925b8d83b530b0f8239f79a9ede0220207883bf73ad4651e2a9e2cdaa95dc79d7e94b1e1689aafedd8e3679c8014d640121025c98e445d21fa418992775815ffe162259fe2c9a271b21769accce12073ed38a00000000"
}