{
  "txid": "e692b87d8548ee34eeb7f85ea524efa90abf8036b1729a5bd655b6cd9f52bad8",
  "version": 1,
  "locktime": 0,
  "vin": [
    {
      "txid": "8888888b23b9dba320e95ffb0f8fb1780fda383fdefd5761106f1692d1f2df00",
      "vout": 0,
      "prevout": {
        "scriptpubkey": "512012ecda67b6f01a6fb701b9f7787a1d0ee1ad9fa0ede374b546b3fd8ba227ca87",
        "scriptpubkey_asm": "OP_PUSHNUM_1 OP_PUSHBYTES_32 12ecda67b6f01a6fb701b9f7787a1d0ee1ad9fa0ede374b546b3fd8ba227ca87",
        "scriptpubkey_type": "v1_p2tr",
        "scriptpubkey_address": "bc1pztkd5eak7qdxldcph8mhs7sapms6m8aqah3hfd2xk07chg38e2rsxtxkug",
        "value": 11704
      },
      "scriptsig": "",
      "scriptsig_asm": "",
      "witness": [
        "e9b4530c7b0c6a80ef0e4996547106b4bc325c378ff5318082a614192c3375cdde12191e25aa3f2dc97b52622b9d4c2332ebf393b1e3debd2409247c8eedbf63",
        "20c939a6c99941b6d3b54ce120ec99b1597a9557352a600150e097bc361ea60299ac00630461746f6d03646d7442a16461726773a46474696d651a65dc026f656e6f6e6365190b9d68626974776f726b6369383838383838382e316b6d696e745f7469636b657268696e66696e69747968",
        "c1c939a6c99941b6d3b54ce120ec99b1597a9557352a600150e097bc361ea60299"
      ],
      "is_coinbase": false,
      "sequence": 1
    }
  ],
  "vout": [
    {
      "scriptpubkey": "5120b510c4cbbd9adad0840a5f50b2fbc7bb1d8231996d5f115e52bb89456507f42a",
      "scriptpubkey_asm": "OP_PUSHNUM_1 OP_PUSHBYTES_32 b510c4cbbd9adad0840a5f50b2fbc7bb1d8231996d5f115e52bb89456507f42a",
      "scriptpubkey_type": "v1_p2tr",
      "scriptpubkey_address": "bc1pk5gvfjaantddppq2tagt9778hvwcyvved403zhjjhwy52eg87s4qdwylgf",
      "value": 9999
    }
  ],
  "size": 310,
  "weight": 592,
  "fee": 1705,
  "status": {
    "confirmed": true,
    "block_height": 834464,
    "block_hash": "0000000000000000000177a0869a911a2b65c9bdcd5a8bcb02b68f305bee848e",
    "block_time": 1710308296
  },
  "hex": "0100000000010100dff2d192166f106157fdde3f38da0f78b18f0ffb5fe920a3dbb9238b888888000000000001000000010f27000000000000225120b510c4cbbd9adad0840a5f50b2fbc7bb1d8231996d5f115e52bb89456507f42a0340e9b4530c7b0c6a80ef0e4996547106b4bc325c378ff5318082a614192c3375cdde12191e25aa3f2dc97b52622b9d4c2332ebf393b1e3debd2409247c8eedbf637120c939a6c99941b6d3b54ce120ec99b1597a9557352a600150e097bc361ea60299ac00630461746f6d03646d7442a16461726773a46474696d651a65dc026f656e6f6e6365190b9d68626974776f726b6369383838383838382e316b6d696e745f7469636b657268696e66696e6974796821c1c939a6c99941b6d3b54ce120ec99b1597a9557352a600150e097bc361ea6029900000000"
}