{
  "txid": "e6994ca594a1fc4a2cd1052cde7558b0f7211f251f2ca4db34a79e3649e3f7f7",
  "version": 2,
  "locktime": 0,
  "vin": [
    {
      "txid": "36b60dedf8b9f5fe1d513bdb9823535ab5cddc4d0ab9c7ce0c5be125f8c1f997",
      "vout": 1,
      "prevout": {
        "scriptpubkey": "5120e92c614c2549bbc168f64af3f6066f003bd810c54ba889532985e0b259a1a781",
        "scriptpubkey_asm": "OP_PUSHNUM_1 OP_PUSHBYTES_32 e92c614c2549bbc168f64af3f6066f003bd810c54ba889532985e0b259a1a781",
        "scriptpubkey_type": "v1_p2tr",
        "scriptpubkey_address": "bc1paykxznp9fxauz68kftelvpn0qqaasyx9fw5gj5efshstykdp57qsesfyy9",
        "value": 35336
      },
      "scriptsig": "",
      "scriptsig_asm": "",
      "witness": [
        "af4f441550f82bfe998e6c0a638977fd7b737067dc28c39eaf13963ebdf6c4e94eb575e1f1a3d9aa1fa4da801054a37f7e1919104613491192e32b8e8f5b8fa9"
      ],
      "is_coinbase": false,
      "sequence": 4294967293
    }
  ],
  "vout": [
    {
      "scriptpubkey": "512003cd6c401b0a030e7cb358a4fbc15c49d8c137e3ab467a5647bb31d602a6d6b5",
      "scriptpubkey_asm": "OP_PUSHNUM_1 OP_PUSHBYTES_32 03cd6c401b0a030e7cb358a4fbc15c49d8c137e3ab467a5647bb31d602a6d6b5",
      "scriptpubkey_type": "v1_p2tr",
      "scriptpubkey_address": "bc1pq0xkcsqmpgpsul9ntzj0hs2uf8vvzdlr4dr854j8hvcavq4x666s93jesu",
      "value": 4880
    },
    {
      "scriptpubkey": "5120a2dd1c20dbfe19dbacb3d9615ce85841cf2077b3e9067b5d7f0e6c581ee50dcf",
      "scriptpubkey_asm": "OP_PUSHNUM_1 OP_PUSHBYTES_32 a2dd1c20dbfe19dbacb3d9615ce85841cf2077b3e9067b5d7f0e6c581ee50dcf",
      "scriptpubkey_type": "v1_p2tr",
      "scriptpubkey_address": "bc1p5tw3cgxmlcvaht9nm9s4e6zcg88jqaanayr8khtlpek9s8h9ph8sn007hn",
      "value": 28762
    }
  ],
  "size": 205,
  "weight": 616,
  "fee": 1694,
  "status": {
    "confirmed": true,
    "block_height": 834464,
    "block_hash": "0000000000000000000177a0869a911a2b65c9bdcd5a8bcb02b68f305bee848e",
    "block_time": 1710308296
  },
  "hex": "0200000000010197f9c1f825e15b0ccec7b90a4ddccdb55a532398db3b511dfef5b9f8ed0db6360100000000fdffffff02101300000000000022512003cd6c401b0a030e7cb358a4fbc15c49d8c137e3ab467a5647bb31d602a6d6b55a70000000000000225120a2dd1c20dbfe19dbacb3d9615ce85841cf2077b3e9067b5d7f0e6c581ee50dcf0140af4f441550f82bfe998e6c0a638977fd7b737067dc28c39eaf13963ebdf6c4e94eb575e1f1a3d9aa1fa4da801054a37f7e1919104613491192e32b8e8f5b8fa900000000"
}