{
  "txid": "e69f50be8108372585f78c066336d52dc072b7cfac5be6193baaeefaf5916356",
  "version": 1,
  "locktime": 0,
  "vin": [
    {
      "txid": "8a6c07830888ce4f7796e1af4c91bbbd9ac2d61d5ca0bad85fc6876c3101242a",
      "vout": 1119,
      "prevout": {
        "scriptpubkey": "76a914877c968068248d31d6428acbb10fc0e3bc11ae4988ac",
        "scriptpubkey_asm": "OP_DUP OP_HASH160 OP_PUSHBYTES_20 877c968068248d31d6428acbb10fc0e3bc11ae49 OP_EQUALVERIFY OP_CHECKSIG",
        "scriptpubkey_type": "p2pkh",
        "scriptpubkey_address": "1DMPUR8DQT4puxceT7WydCRFoVEAyusTVX",
        "value": 656832
      },
      "scriptsig": "483045022100c5fd2ad58d2c45caf0b70690634a9e414e12a01f971f7fac2ba37a3961e0a0e3022011ac5bdd4713995ae8018a9f10725094574605199d40cff07b765fed428bb2eb012102cb943e0b6016d32f6b8284e6572daa2f9fecba3f9211104ab864272513fe0d62",
      "scriptsig_asm": "OP_PUSHBYTES_72 3045022100c5fd2ad58d2c45caf0b70690634a9e414e12a01f971f7fac2ba37a3961e0a0e3022011ac5bdd4713995ae8018a9f10725094574605199d40cff07b765fed428bb2eb01 OP_PUSHBYTES_33 02cb943e0b6016d32f6b8284e6572daa2f9fecba3f9211104ab864272513fe0d62",
      "is_coinbase": false,
      "sequence": 4294967295
    }
  ],
  "vout": [
    {
      "scriptpubkey": "76a9140f111171196d08e17dda2d396f08a39088372c2c88ac",
      "scriptpubkey_asm": "OP_DUP OP_HASH160 OP_PUSHBYTES_20 0f111171196d08e17dda2d396f08a39088372c2c OP_EQUALVERIFY OP_CHECKSIG",
      "scriptpubkey_type": "p2pkh",
      "scriptpubkey_address": "12NfanwVAXCZLypg1BpJfaCcebcXYBMrSk",
      "value": 186959
    },
    {
      "scriptpubkey": "001413ca19993bb3087607ba8f702575bb1a22cfe75a",
      "scriptpubkey_asm": "OP_0 OP_PUSHBYTES_20 13ca19993bb3087607ba8f702575bb1a22cfe75a",
      "scriptpubkey_type": "v0_p2wpkh",
      "scriptpubkey_address": "bc1qz09pnxfmkvy8vpa63acz2admrg3vle66n3tqft",
      "value": 466558
    }
  ],
  "size": 223,
  "weight": 892,
  "fee": 3315,
  "status": {
    "confirmed": true,
    "block_height": 834638,
    "block_hash": "000000000000000000025f742c626208ac87e0b7d15054abb4a19ca2d735a54e",
    "block_time": 1710405325
  },
  "hex": "01000000012a2401316c87c65fd8baa05c1dd6c29abdbb914cafe196774fce880883076c8a5f0400006b483045022100c5fd2ad58d2c45caf0b70690634a9e414e12a01f971f7fac2ba37a3961e0a0e3022011ac5bdd4713995ae8018a9f10725094574605199d40cff07b765fed428bb2eb012102cb943e0b6016d32f6b8284e6572daa2f9fecba3f9211104ab864272513fe0d62ffffffff024fda0200000000001976a9140f111171196d08e17dda2d396f08a39088372c2c88ac7e1e07000000000016001413ca19993bb3087607ba8f702575bb1a22cfe75a00000000"
}