{
  "txid": "e6a3feb44f25b7ea4f796fd9f0715d05ae8ae4afe666afed6e1906782da15289",
  "version": 1,
  "locktime": 0,
  "vin": [
    {
      "txid": "a648ba6b5876e44bd1c4a6117f7a25b8086b393c7871825f0891e0d6971c8ee2",
      "vout": 60,
      "prevout": {
        "scriptpubkey": "a9142ce90697a177408a9b2633780bca8633655074bd87",
        "scriptpubkey_asm": "OP_HASH160 OP_PUSHBYTES_20 2ce90697a177408a9b2633780bca8633655074bd OP_EQUAL",
        "scriptpubkey_type": "p2sh",
        "scriptpubkey_address": "35nUotzsoXstZ7kvr49PADKy4e8EWyW6pv",
        "value": 21755
      },
      "scriptsig": "160014cd833f81e6ea72e9e9aacf8fd2725c1a8677a959",
      "scriptsig_asm": "OP_PUSHBYTES_22 0014cd833f81e6ea72e9e9aacf8fd2725c1a8677a959",
      "witness": [
        "3045022100d4df8e90fe4edc5b179aa56ce54063b756715a67b43d3ebea9949c2c19d5139102201a3b8b76a7480ab2b2b766ce0316ed4eac11e5e58932ed04e3efe81a6f16ee8b01",
        "0375f0df85461fb371ff2823b3f3b8527519fe35aaaeb5a47e33f9498cd653534b"
      ],
      "is_coinbase": false,
      "sequence": 4294967295,
      "inner_redeemscript_asm": "OP_0 OP_PUSHBYTES_20 cd833f81e6ea72e9e9aacf8fd2725c1a8677a959"
    }
  ],
  "vout": [
    {
      "scriptpubkey": "001469e2edf9f37fc18f780a62f8f59facb82d86c44e",
      "scriptpubkey_asm": "OP_0 OP_PUSHBYTES_20 69e2edf9f37fc18f780a62f8f59facb82d86c44e",
      "scriptpubkey_type": "v0_p2wpkh",
      "scriptpubkey_address": "bc1qd83wm70n0lqc77q2vtu0t8avhqkcd3zwl3nsl7",
      "value": 18349
    },
    {
      "scriptpubkey": "a9145454edad786f0053fd5ab4caba0260cffa90fa1787",
      "scriptpubkey_asm": "OP_HASH160 OP_PUSHBYTES_20 5454edad786f0053fd5ab4caba0260cffa90fa17 OP_EQUAL",
      "scriptpubkey_type": "p2sh",
      "scriptpubkey_address": "39NvRb4ntoiWSUveRo4QCYvgwX49FZ6Ju4",
      "value": 546
    }
  ],
  "size": 247,
  "weight": 658,
  "fee": 2860,
  "status": {
    "confirmed": true,
    "block_height": 834460,
    "block_hash": "00000000000000000000484a79b643b2524bbce82e5d8a442013fa5b8905ed98",
    "block_time": 1710307468
  },
  "hex": "01000000000101e28e1c97d6e091085f8271783c396b08b8257a7f11a6c4d14be476586bba48a63c00000017160014cd833f81e6ea72e9e9aacf8fd2725c1a8677a959ffffffff02ad4700000000000016001469e2edf9f37fc18f780a62f8f59facb82d86c44e220200000000000017a9145454edad786f0053fd5ab4caba0260cffa90fa178702483045022100d4df8e90fe4edc5b179aa56ce54063b756715a67b43d3ebea9949c2c19d5139102201a3b8b76a7480ab2b2b766ce0316ed4eac11e5e58932ed04e3efe81a6f16ee8b01210375f0df85461fb371ff2823b3f3b8527519fe35aaaeb5a47e33f9498cd653534b00000000"
}