{
  "txid": "e6a8e262ddca89616873e66bcb0b7d8357975f613bc30f580b9bbd59eb203748",
  "version": 2,
  "locktime": 0,
  "vin": [
    {
      "txid": "1a2d2c8c7fc42eddef6a0af24f58ab36c9fad312d3e21833216d6e78abccd262",
      "vout": 6,
      "prevout": {
        "scriptpubkey": "00149c477159161000d9922282bf95809890b518f720",
        "scriptpubkey_asm": "OP_0 OP_PUSHBYTES_20 9c477159161000d9922282bf95809890b518f720",
        "scriptpubkey_type": "v0_p2wpkh",
        "scriptpubkey_address": "bc1qn3rhzkgkzqqdny3zs2letqycjz633aeq3un2g6",
        "value": 67670
      },
      "scriptsig": "",
      "scriptsig_asm": "",
      "witness": [
        "3045022100bc73d5e53c44410a5cc03bcbf60803cce726bfab1916eb30996f8795b91c20e002203c14c87b98a991c4e60651a92378af066dfd565c397f4b34dbb3720046a75e7701",
        "0282f2a2a5607c6cc47368363e4b3b5738537c6d4631b767a9968d332a9cca37cb"
      ],
      "is_coinbase": false,
      "sequence": 4294967295
    }
  ],
  "vout": [
    {
      "scriptpubkey": "a914daefc6974fcae79ccae898f6a66da41d8474c8a787",
      "scriptpubkey_asm": "OP_HASH160 OP_PUSHBYTES_20 daefc6974fcae79ccae898f6a66da41d8474c8a7 OP_EQUAL",
      "scriptpubkey_type": "p2sh",
      "scriptpubkey_address": "3MeeUGq1SqAwgpVzSAft11XsoBbHvUZHbz",
      "value": 9228
    },
    {
      "scriptpubkey": "00149c477159161000d9922282bf95809890b518f720",
      "scriptpubkey_asm": "OP_0 OP_PUSHBYTES_20 9c477159161000d9922282bf95809890b518f720",
      "scriptpubkey_type": "v0_p2wpkh",
      "scriptpubkey_address": "bc1qn3rhzkgkzqqdny3zs2letqycjz633aeq3un2g6",
      "value": 56312
    }
  ],
  "size": 224,
  "weight": 566,
  "fee": 2130,
  "status": {
    "confirmed": true,
    "block_height": 834460,
    "block_hash": "00000000000000000000484a79b643b2524bbce82e5d8a442013fa5b8905ed98",
    "block_time": 1710307468
  },
  "hex": "0200000000010162d2ccab786e6d213318e2d312d3fac936ab584ff20a6aefdd2ec47f8c2c2d1a0600000000ffffffff020c2400000000000017a914daefc6974fcae79ccae898f6a66da41d8474c8a787f8db0000000000001600149c477159161000d9922282bf95809890b518f72002483045022100bc73d5e53c44410a5cc03bcbf60803cce726bfab1916eb30996f8795b91c20e002203c14c87b98a991c4e60651a92378af066dfd565c397f4b34dbb3720046a75e7701210282f2a2a5607c6cc47368363e4b3b5738537c6d4631b767a9968d332a9cca37cb00000000"
}