{
  "txid": "e6afba12b462921cbe7c47280a7058bef1b510e2714bbd2108ab4d371a035da6",
  "version": 2,
  "locktime": 0,
  "vin": [
    {
      "txid": "9f3c861dcb2ccbe23cf03c9d32f1e17186b42bc48c34471c0c6cd6b3c0a1109d",
      "vout": 6,
      "prevout": {
        "scriptpubkey": "5120c87666374d225bd91ebc67189eade4f4aa0f26886c7f75e5e7de6d2372389cc6",
        "scriptpubkey_asm": "OP_PUSHNUM_1 OP_PUSHBYTES_32 c87666374d225bd91ebc67189eade4f4aa0f26886c7f75e5e7de6d2372389cc6",
        "scriptpubkey_type": "v1_p2tr",
        "scriptpubkey_address": "bc1pepmxvd6dyfdaj84uvuvfat0y7j4q7f5gd3lhte08mekjxu3cnnrq9w93cl",
        "value": 10457759
      },
      "scriptsig": "",
      "scriptsig_asm": "",
      "witness": [
        "5f30a25d49c1db6d5be330cc519a9983918c8eb000fb4eb44d5ef4059a4598fa502cf9030f7b61a17292f05b5013f5e42d6d8cddc51be8478e9a0a828e702188"
      ],
      "is_coinbase": false,
      "sequence": 4294967295
    }
  ],
  "vout": [
    {
      "scriptpubkey": "00141509e646dfc07d2995ee950f790942be8104b7ba",
      "scriptpubkey_asm": "OP_0 OP_PUSHBYTES_20 1509e646dfc07d2995ee950f790942be8104b7ba",
      "scriptpubkey_type": "v0_p2wpkh",
      "scriptpubkey_address": "bc1qz5y7v3klcp7jn90wj58hjz2zh6qsfda6kjuk6w",
      "value": 39229
    },
    {
      "scriptpubkey": "5120c87666374d225bd91ebc67189eade4f4aa0f26886c7f75e5e7de6d2372389cc6",
      "scriptpubkey_asm": "OP_PUSHNUM_1 OP_PUSHBYTES_32 c87666374d225bd91ebc67189eade4f4aa0f26886c7f75e5e7de6d2372389cc6",
      "scriptpubkey_type": "v1_p2tr",
      "scriptpubkey_address": "bc1pepmxvd6dyfdaj84uvuvfat0y7j4q7f5gd3lhte08mekjxu3cnnrq9w93cl",
      "value": 10416385
    }
  ],
  "size": 193,
  "weight": 568,
  "fee": 2145,
  "status": {
    "confirmed": true,
    "block_height": 834638,
    "block_hash": "000000000000000000025f742c626208ac87e0b7d15054abb4a19ca2d735a54e",
    "block_time": 1710405325
  },
  "hex": "020000000001019d10a1c0b3d66c0c1c47348cc42bb48671e1f1329d3cf03ce2cb2ccb1d863c9f0600000000ffffffff023d990000000000001600141509e646dfc07d2995ee950f790942be8104b7ba01f19e0000000000225120c87666374d225bd91ebc67189eade4f4aa0f26886c7f75e5e7de6d2372389cc601405f30a25d49c1db6d5be330cc519a9983918c8eb000fb4eb44d5ef4059a4598fa502cf9030f7b61a17292f05b5013f5e42d6d8cddc51be8478e9a0a828e70218800000000"
}