{
  "txid": "e6c4f35ce3bdf932519de9c9056b196fa84d1aa9860824b177e89a9010b04ea0",
  "version": 2,
  "locktime": 834637,
  "vin": [
    {
      "txid": "aa437628638cb98163f14fc91b2029b24aa19303fde63e9c33a509c1a9a7b62a",
      "vout": 0,
      "prevout": {
        "scriptpubkey": "00146b16c5d8edbc9616472cbb0fda4f2306543bd77e",
        "scriptpubkey_asm": "OP_0 OP_PUSHBYTES_20 6b16c5d8edbc9616472cbb0fda4f2306543bd77e",
        "scriptpubkey_type": "v0_p2wpkh",
        "scriptpubkey_address": "bc1qdvtvtk8dhjtpv3evhv8a5nerqe2rh4m7hq7sy7",
        "value": 266814970
      },
      "scriptsig": "",
      "scriptsig_asm": "",
      "witness": [
        "30440220417e1ac086630941cf850a85747fef2448a83e002bc58bb452f7eb3bbd7a1f0c022048a6c2a466733143b55b8bbed839143cb921a024bcd5d9f7e61595a65ed8fcdd01",
        "03fef35cfce97389e69dc634872caa70b2cace44ab2f5ee37b85ca9ab079c7dcc2"
      ],
      "is_coinbase": false,
      "sequence": 4294967294
    }
  ],
  "vout": [
    {
      "scriptpubkey": "0014419b32db24f8c2c485a15377e18bdf33a92bba10",
      "scriptpubkey_asm": "OP_0 OP_PUSHBYTES_20 419b32db24f8c2c485a15377e18bdf33a92bba10",
      "scriptpubkey_type": "v0_p2wpkh",
      "scriptpubkey_address": "bc1qgxdn9keylrpvfpdp2dm7rz7lxw5jhwsszt603p",
      "value": 265298290
    },
    {
      "scriptpubkey": "a9145ca7286e8136ca6c11794157ae1e9598be8752e187",
      "scriptpubkey_asm": "OP_HASH160 OP_PUSHBYTES_20 5ca7286e8136ca6c11794157ae1e9598be8752e1 OP_EQUAL",
      "scriptpubkey_type": "p2sh",
      "scriptpubkey_address": "3A8vLXeP9wxamr5pZRA4WxtPsgySuVyp5h",
      "value": 1513200
    }
  ],
  "size": 223,
  "weight": 565,
  "fee": 3480,
  "status": {
    "confirmed": true,
    "block_height": 834638,
    "block_hash": "000000000000000000025f742c626208ac87e0b7d15054abb4a19ca2d735a54e",
    "block_time": 1710405325
  },
  "hex": "020000000001012ab6a7a9c109a5339c3ee6fd0393a14ab229201bc94ff16381b98c63287643aa0000000000feffffff027221d00f00000000160014419b32db24f8c2c485a15377e18bdf33a92bba10f01617000000000017a9145ca7286e8136ca6c11794157ae1e9598be8752e187024730440220417e1ac086630941cf850a85747fef2448a83e002bc58bb452f7eb3bbd7a1f0c022048a6c2a466733143b55b8bbed839143cb921a024bcd5d9f7e61595a65ed8fcdd012103fef35cfce97389e69dc634872caa70b2cace44ab2f5ee37b85ca9ab079c7dcc24dbc0c00"
}