{
  "txid": "e6c76721288387593d4cfa26aaaaf0a969334082b4d0f294f8935c829f727659",
  "version": 2,
  "locktime": 0,
  "vin": [
    {
      "txid": "382cc189a7e318aa22486e29dd459a05d0fabe44fe01ca8368b14aa0809b1093",
      "vout": 3,
      "prevout": {
        "scriptpubkey": "001418b463dbe04129c389c8ca6760a1eabb42a97e06",
        "scriptpubkey_asm": "OP_0 OP_PUSHBYTES_20 18b463dbe04129c389c8ca6760a1eabb42a97e06",
        "scriptpubkey_type": "v0_p2wpkh",
        "scriptpubkey_address": "bc1qrz6x8klqgy5u8zwgefnkpg02hdp2jlsxykkda8",
        "value": 533177
      },
      "scriptsig": "",
      "scriptsig_asm": "",
      "witness": [
        "30440220375e13828c054b84be1f3b00c32e4406c924ee71d65fc92535470c0398b2137b022038ccad9f443f1f0812ae25e4bf2ba36c5e5a53470b6b83869a7d1fdac8ab677a01",
        "03014b1077f19e54a9a35096c538caf02946b99203f37f6053be4accbf0b3f4e12"
      ],
      "is_coinbase": false,
      "sequence": 4294967295
    }
  ],
  "vout": [
    {
      "scriptpubkey": "001418b463dbe04129c389c8ca6760a1eabb42a97e06",
      "scriptpubkey_asm": "OP_0 OP_PUSHBYTES_20 18b463dbe04129c389c8ca6760a1eabb42a97e06",
      "scriptpubkey_type": "v0_p2wpkh",
      "scriptpubkey_address": "bc1qrz6x8klqgy5u8zwgefnkpg02hdp2jlsxykkda8",
      "value": 600
    },
    {
      "scriptpubkey": "001418b463dbe04129c389c8ca6760a1eabb42a97e06",
      "scriptpubkey_asm": "OP_0 OP_PUSHBYTES_20 18b463dbe04129c389c8ca6760a1eabb42a97e06",
      "scriptpubkey_type": "v0_p2wpkh",
      "scriptpubkey_address": "bc1qrz6x8klqgy5u8zwgefnkpg02hdp2jlsxykkda8",
      "value": 600
    },
    {
      "scriptpubkey": "001418b463dbe04129c389c8ca6760a1eabb42a97e06",
      "scriptpubkey_asm": "OP_0 OP_PUSHBYTES_20 18b463dbe04129c389c8ca6760a1eabb42a97e06",
      "scriptpubkey_type": "v0_p2wpkh",
      "scriptpubkey_address": "bc1qrz6x8klqgy5u8zwgefnkpg02hdp2jlsxykkda8",
      "value": 600
    },
    {
      "scriptpubkey": "001418b463dbe04129c389c8ca6760a1eabb42a97e06",
      "scriptpubkey_asm": "OP_0 OP_PUSHBYTES_20 18b463dbe04129c389c8ca6760a1eabb42a97e06",
      "scriptpubkey_type": "v0_p2wpkh",
      "scriptpubkey_address": "bc1qrz6x8klqgy5u8zwgefnkpg02hdp2jlsxykkda8",
      "value": 600
    },
    {
      "scriptpubkey": "001418b463dbe04129c389c8ca6760a1eabb42a97e06",
      "scriptpubkey_asm": "OP_0 OP_PUSHBYTES_20 18b463dbe04129c389c8ca6760a1eabb42a97e06",
      "scriptpubkey_type": "v0_p2wpkh",
      "scriptpubkey_address": "bc1qrz6x8klqgy5u8zwgefnkpg02hdp2jlsxykkda8",
      "value": 600
    },
    {
      "scriptpubkey": "001418b463dbe04129c389c8ca6760a1eabb42a97e06",
      "scriptpubkey_asm": "OP_0 OP_PUSHBYTES_20 18b463dbe04129c389c8ca6760a1eabb42a97e06",
      "scriptpubkey_type": "v0_p2wpkh",
      "scriptpubkey_address": "bc1qrz6x8klqgy5u8zwgefnkpg02hdp2jlsxykkda8",
      "value": 600
    },
    {
      "scriptpubkey": "001418b463dbe04129c389c8ca6760a1eabb42a97e06",
      "scriptpubkey_asm": "OP_0 OP_PUSHBYTES_20 18b463dbe04129c389c8ca6760a1eabb42a97e06",
      "scriptpubkey_type": "v0_p2wpkh",
      "scriptpubkey_address": "bc1qrz6x8klqgy5u8zwgefnkpg02hdp2jlsxykkda8",
      "value": 600
    },
    {
      "scriptpubkey": "001418b463dbe04129c389c8ca6760a1eabb42a97e06",
      "scriptpubkey_asm": "OP_0 OP_PUSHBYTES_20 18b463dbe04129c389c8ca6760a1eabb42a97e06",
      "scriptpubkey_type": "v0_p2wpkh",
      "scriptpubkey_address": "bc1qrz6x8klqgy5u8zwgefnkpg02hdp2jlsxykkda8",
      "value": 600
    },
    {
      "scriptpubkey": "001418b463dbe04129c389c8ca6760a1eabb42a97e06",
      "scriptpubkey_asm": "OP_0 OP_PUSHBYTES_20 18b463dbe04129c389c8ca6760a1eabb42a97e06",
      "scriptpubkey_type": "v0_p2wpkh",
      "scriptpubkey_address": "bc1qrz6x8klqgy5u8zwgefnkpg02hdp2jlsxykkda8",
      "value": 600
    },
    {
      "scriptpubkey": "001418b463dbe04129c389c8ca6760a1eabb42a97e06",
      "scriptpubkey_asm": "OP_0 OP_PUSHBYTES_20 18b463dbe04129c389c8ca6760a1eabb42a97e06",
      "scriptpubkey_type": "v0_p2wpkh",
      "scriptpubkey_address": "bc1qrz6x8klqgy5u8zwgefnkpg02hdp2jlsxykkda8",
      "value": 600
    },
    {
      "scriptpubkey": "001418b463dbe04129c389c8ca6760a1eabb42a97e06",
      "scriptpubkey_asm": "OP_0 OP_PUSHBYTES_20 18b463dbe04129c389c8ca6760a1eabb42a97e06",
      "scriptpubkey_type": "v0_p2wpkh",
      "scriptpubkey_address": "bc1qrz6x8klqgy5u8zwgefnkpg02hdp2jlsxykkda8",
      "value": 520877
    }
  ],
  "size": 501,
  "weight": 1677,
  "fee": 6300,
  "status": {
    "confirmed": true,
    "block_height": 834638,
    "block_hash": "000000000000000000025f742c626208ac87e0b7d15054abb4a19ca2d735a54e",
    "block_time": 1710405325
  },
  "hex": "0200000000010193109b80a04ab16883ca01fe44befad0059a45dd296e4822aa18e3a789c12c380300000000ffffffff0b580200000000000016001418b463dbe04129c389c8ca6760a1eabb42a97e06580200000000000016001418b463dbe04129c389c8ca6760a1eabb42a97e06580200000000000016001418b463dbe04129c389c8ca6760a1eabb42a97e06580200000000000016001418b463dbe04129c389c8ca6760a1eabb42a97e06580200000000000016001418b463dbe04129c389c8ca6760a1eabb42a97e06580200000000000016001418b463dbe04129c389c8ca6760a1eabb42a97e06580200000000000016001418b463dbe04129c389c8ca6760a1eabb42a97e06580200000000000016001418b463dbe04129c389c8ca6760a1eabb42a97e06580200000000000016001418b463dbe04129c389c8ca6760a1eabb42a97e06580200000000000016001418b463dbe04129c389c8ca6760a1eabb42a97e06adf207000000000016001418b463dbe04129c389c8ca6760a1eabb42a97e06024730440220375e13828c054b84be1f3b00c32e4406c924ee71d65fc92535470c0398b2137b022038ccad9f443f1f0812ae25e4bf2ba36c5e5a53470b6b83869a7d1fdac8ab677a012103014b1077f19e54a9a35096c538caf02946b99203f37f6053be4accbf0b3f4e1200000000"
}