{
  "txid": "e6cb992e4fe329059f559e294d4524caf4a426bbec513396f8d63bdd30bdc1b4",
  "version": 2,
  "locktime": 0,
  "vin": [
    {
      "txid": "acc3ba00869acb582a3f2904ce3a11dd3779350ce234063fc7d0959246213364",
      "vout": 112,
      "prevout": {
        "scriptpubkey": "5120d61b2044d74df2d04e982287bb824e4f3ddd385cfd1d856e3bab3e5a489311a7",
        "scriptpubkey_asm": "OP_PUSHNUM_1 OP_PUSHBYTES_32 d61b2044d74df2d04e982287bb824e4f3ddd385cfd1d856e3bab3e5a489311a7",
        "scriptpubkey_type": "v1_p2tr",
        "scriptpubkey_address": "bc1p6cdjq3xhfhedqn5cy2rmhqjwfu7a6wzul5wc2m3m4vl95jynzxnsr5mpd8",
        "value": 1806
      },
      "scriptsig": "",
      "scriptsig_asm": "",
      "witness": [
        "f0e3b77d24a7dd5ca68520db0bd556b4fd1bbdbe66c1e1c843463991e6bf6452e7612da1a62b641f6d2edf808e483b766bc756ed58d709d19a85117683a97dea",
        "209c782c0492a56c271ab9403ed484ff5f2206f8a5e0f4a87e9fa0fe3d8d4c0ed9ac0063036f726401010a746578742f706c61696e00357b2270223a226272632d3230222c226f70223a226d696e74222c227469636b223a22646f6765222c22616d74223a2234323030227d68",
        "c19c782c0492a56c271ab9403ed484ff5f2206f8a5e0f4a87e9fa0fe3d8d4c0ed9"
      ],
      "is_coinbase": false,
      "sequence": 4261412863
    }
  ],
  "vout": [
    {
      "scriptpubkey": "00147a665de7a370f4c9b372ab1fae587500a5bcbdb4",
      "scriptpubkey_asm": "OP_0 OP_PUSHBYTES_20 7a665de7a370f4c9b372ab1fae587500a5bcbdb4",
      "scriptpubkey_type": "v0_p2wpkh",
      "scriptpubkey_address": "bc1q0fn9mearwr6vnvmj4v06ukr4qzjme0d565dzcx",
      "value": 294
    }
  ],
  "size": 294,
  "weight": 540,
  "fee": 1512,
  "status": {
    "confirmed": true,
    "block_height": 834460,
    "block_hash": "00000000000000000000484a79b643b2524bbce82e5d8a442013fa5b8905ed98",
    "block_time": 1710307468
  },
  "hex": "02000000000101643321469295d0c73f0634e20c357937dd113ace04293f2a58cb9a8600bac3ac7000000000fffffffd0126010000000000001600147a665de7a370f4c9b372ab1fae587500a5bcbdb40340f0e3b77d24a7dd5ca68520db0bd556b4fd1bbdbe66c1e1c843463991e6bf6452e7612da1a62b641f6d2edf808e483b766bc756ed58d709d19a85117683a97dea6d209c782c0492a56c271ab9403ed484ff5f2206f8a5e0f4a87e9fa0fe3d8d4c0ed9ac0063036f726401010a746578742f706c61696e00357b2270223a226272632d3230222c226f70223a226d696e74222c227469636b223a22646f6765222c22616d74223a2234323030227d6821c19c782c0492a56c271ab9403ed484ff5f2206f8a5e0f4a87e9fa0fe3d8d4c0ed900000000"
}