{
  "txid": "e6d009e7aeb59b85ef01b64b71f6d34972e2918f487b87356952bbba365e8515",
  "version": 1,
  "locktime": 0,
  "vin": [
    {
      "txid": "b7f7d6b6ce5c0fc6de1d46a44a157767ebd3dba91ade3b4b8408c16f62cabd12",
      "vout": 5,
      "prevout": {
        "scriptpubkey": "a914d768aab4c85c4be8461c20461a7a76c09891d66d87",
        "scriptpubkey_asm": "OP_HASH160 OP_PUSHBYTES_20 d768aab4c85c4be8461c20461a7a76c09891d66d OP_EQUAL",
        "scriptpubkey_type": "p2sh",
        "scriptpubkey_address": "3MKzbAZ34qZt8pGpgM4CxVUnwjANEDFQcm",
        "value": 7459977
      },
      "scriptsig": "16001416b22f28207bd7c7a785a6f796ac0afb8cd7dfeb",
      "scriptsig_asm": "OP_PUSHBYTES_22 001416b22f28207bd7c7a785a6f796ac0afb8cd7dfeb",
      "witness": [
        "304402202787632e9c839e42523edc1dca9291e343612b87171bba218e523085ff5f4eb40220012bbe1b839dc1a47149d2e915381a0cf7eae0971b71cc5d921ccb5d2b1ae2f301",
        "03657cc41f5e124e16a54104ea241a050834dee45a1eea6058f9a2366e8230069a"
      ],
      "is_coinbase": false,
      "sequence": 4294967295,
      "inner_redeemscript_asm": "OP_0 OP_PUSHBYTES_20 16b22f28207bd7c7a785a6f796ac0afb8cd7dfeb"
    }
  ],
  "vout": [
    {
      "scriptpubkey": "0020530136d9e888b30672f718e803e873cc16042b68fa6289583943e117c99f3192",
      "scriptpubkey_asm": "OP_0 OP_PUSHBYTES_32 530136d9e888b30672f718e803e873cc16042b68fa6289583943e117c99f3192",
      "scriptpubkey_type": "v0_p2wsh",
      "scriptpubkey_address": "bc1q2vqndk0g3zesvuhhrr5q86rnestqg2mglf3gjkpeg0s30jvlxxfq3dmvwg",
      "value": 100319
    },
    {
      "scriptpubkey": "0014d92c1ef2744026af788ce16094d96b9075c0e9be",
      "scriptpubkey_asm": "OP_0 OP_PUSHBYTES_20 d92c1ef2744026af788ce16094d96b9075c0e9be",
      "scriptpubkey_type": "v0_p2wpkh",
      "scriptpubkey_address": "bc1qmykpaun5gqn277yvu9sffkttjp6up6d7g6hpda",
      "value": 415717
    },
    {
      "scriptpubkey": "00146884001edcbf0c43dee01acb6c513f175382a24a",
      "scriptpubkey_asm": "OP_0 OP_PUSHBYTES_20 6884001edcbf0c43dee01acb6c513f175382a24a",
      "scriptpubkey_type": "v0_p2wpkh",
      "scriptpubkey_address": "bc1qdzzqq8kuhuxy8hhqrt9kc5flzafc9gj2x2adqm",
      "value": 278041
    },
    {
      "scriptpubkey": "0014593720ddc074712ba77e43c277bc8ccd5c83506d",
      "scriptpubkey_asm": "OP_0 OP_PUSHBYTES_20 593720ddc074712ba77e43c277bc8ccd5c83506d",
      "scriptpubkey_type": "v0_p2wpkh",
      "scriptpubkey_address": "bc1qtymjphwqw3cjhfm7g0p800yve4wgx5rd9s020y",
      "value": 162420
    },
    {
      "scriptpubkey": "a914aeccd138d4bb5e4995f43f8d8d78fab87ca1fbde87",
      "scriptpubkey_asm": "OP_HASH160 OP_PUSHBYTES_20 aeccd138d4bb5e4995f43f8d8d78fab87ca1fbde OP_EQUAL",
      "scriptpubkey_type": "p2sh",
      "scriptpubkey_address": "3HdGrskkDprAsSS6JLzXiegU7cm8aEyxcr",
      "value": 1664314
    },
    {
      "scriptpubkey": "00141533a421de4f9999b0f40accd86a8dee2d305df6",
      "scriptpubkey_asm": "OP_0 OP_PUSHBYTES_20 1533a421de4f9999b0f40accd86a8dee2d305df6",
      "scriptpubkey_type": "v0_p2wpkh",
      "scriptpubkey_address": "bc1qz5e6ggw7f7venv85ptxds65dacknqh0k223a29",
      "value": 1479057
    },
    {
      "scriptpubkey": "0014cf9495304425706991024fa4e88d4c23521bd1d2",
      "scriptpubkey_asm": "OP_0 OP_PUSHBYTES_20 cf9495304425706991024fa4e88d4c23521bd1d2",
      "scriptpubkey_type": "v0_p2wpkh",
      "scriptpubkey_address": "bc1qe72f2vzyy4cxnygzf7jw3r2vydfph5wjjmgf89",
      "value": 76214
    },
    {
      "scriptpubkey": "0014967d1d8b0d3c328047b29116cd3d360ec7c2710d",
      "scriptpubkey_asm": "OP_0 OP_PUSHBYTES_20 967d1d8b0d3c328047b29116cd3d360ec7c2710d",
      "scriptpubkey_type": "v0_p2wpkh",
      "scriptpubkey_address": "bc1qje73mzcd8segq3ajjytv60fkpmruyugdte8hle",
      "value": 83146
    },
    {
      "scriptpubkey": "00146063947f89d3bfa4ce377b34eb422c6710a98e2f",
      "scriptpubkey_asm": "OP_0 OP_PUSHBYTES_20 6063947f89d3bfa4ce377b34eb422c6710a98e2f",
      "scriptpubkey_type": "v0_p2wpkh",
      "scriptpubkey_address": "bc1qvp3egluf6wl6fn3h0v6wks3vvug2nr30p6y5h2",
      "value": 76513
    },
    {
      "scriptpubkey": "a914d3500d3afcb5a2452600e7bd50bdf53ba1a627ca87",
      "scriptpubkey_asm": "OP_HASH160 OP_PUSHBYTES_20 d3500d3afcb5a2452600e7bd50bdf53ba1a627ca OP_EQUAL",
      "scriptpubkey_type": "p2sh",
      "scriptpubkey_address": "3LxLQ7EaQKizQM7Umhjc4TfSN4E8tQeEur",
      "value": 54820
    },
    {
      "scriptpubkey": "00144681b1ce3e77429b4cba90bbc022ba3b3540547c",
      "scriptpubkey_asm": "OP_0 OP_PUSHBYTES_20 4681b1ce3e77429b4cba90bbc022ba3b3540547c",
      "scriptpubkey_type": "v0_p2wpkh",
      "scriptpubkey_address": "bc1qg6qmrn37wapfkn96jzauqg468v65q4ru52mrum",
      "value": 58570
    },
    {
      "scriptpubkey": "0014c1412572dc5777548061c919328189595df4ce0e",
      "scriptpubkey_asm": "OP_0 OP_PUSHBYTES_20 c1412572dc5777548061c919328189595df4ce0e",
      "scriptpubkey_type": "v0_p2wpkh",
      "scriptpubkey_address": "bc1qc9qj2uku2am4fqrpeyvn9qvft9wlfnswg5n243",
      "value": 106701
    },
    {
      "scriptpubkey": "0014417d3cc46e3eb75441e33ebf6b4696ab1cd4ae0e",
      "scriptpubkey_asm": "OP_0 OP_PUSHBYTES_20 417d3cc46e3eb75441e33ebf6b4696ab1cd4ae0e",
      "scriptpubkey_type": "v0_p2wpkh",
      "scriptpubkey_address": "bc1qg97ne3rw86m4gs0r86lkk35k4vwdftsw0asypp",
      "value": 28453
    },
    {
      "scriptpubkey": "0014dfc3b7414e395dc93e5f804acd25ae0f6e3fd613",
      "scriptpubkey_asm": "OP_0 OP_PUSHBYTES_20 dfc3b7414e395dc93e5f804acd25ae0f6e3fd613",
      "scriptpubkey_type": "v0_p2wpkh",
      "scriptpubkey_address": "bc1qmlpmws2w89wuj0jlsp9v6fdwpahrl4sndvyl8l",
      "value": 193471
    },
    {
      "scriptpubkey": "a91489c97b6b5239c1a82c109eee98080b365f69196c87",
      "scriptpubkey_asm": "OP_HASH160 OP_PUSHBYTES_20 89c97b6b5239c1a82c109eee98080b365f69196c OP_EQUAL",
      "scriptpubkey_type": "p2sh",
      "scriptpubkey_address": "3EFZs3fKyTvu6oGBCVzNyp8wdEEKpgCy8j",
      "value": 399820
    },
    {
      "scriptpubkey": "001480df846d97aae7a53c0a71cc5386ad11775beccf",
      "scriptpubkey_asm": "OP_0 OP_PUSHBYTES_20 80df846d97aae7a53c0a71cc5386ad11775beccf",
      "scriptpubkey_type": "v0_p2wpkh",
      "scriptpubkey_address": "bc1qsr0cgmvh4tn620q2w8x98p4dz9m4hmx0kqut8a",
      "value": 260414
    },
    {
      "scriptpubkey": "00147e2d1d160f4eeb1c2e25206404a4bfa3e9a2978f",
      "scriptpubkey_asm": "OP_0 OP_PUSHBYTES_20 7e2d1d160f4eeb1c2e25206404a4bfa3e9a2978f",
      "scriptpubkey_type": "v0_p2wpkh",
      "scriptpubkey_address": "bc1q0ck369s0fm43ct39ypjqff9l505699u0tn0058",
      "value": 335067
    },
    {
      "scriptpubkey": "0014339fb5d3583a408173023462f574a450fbefb75e",
      "scriptpubkey_asm": "OP_0 OP_PUSHBYTES_20 339fb5d3583a408173023462f574a450fbefb75e",
      "scriptpubkey_type": "v0_p2wpkh",
      "scriptpubkey_address": "bc1qxw0mt56c8fqgzuczx3302a9y2ra7ld67vrr3h5",
      "value": 99916
    },
    {
      "scriptpubkey": "0014fa86cd1d84ce0b68c8172a34d0f93a0571508fc5",
      "scriptpubkey_asm": "OP_0 OP_PUSHBYTES_20 fa86cd1d84ce0b68c8172a34d0f93a0571508fc5",
      "scriptpubkey_type": "v0_p2wpkh",
      "scriptpubkey_address": "bc1ql2rv68vyec9k3jqh9g6dp7f6q4c4pr799phqfd",
      "value": 1261185
    },
    {
      "scriptpubkey": "00208be2332fde06b24b9897b232c0a47ba71cb9b44fedf6c5b6cd9278ab29706444",
      "scriptpubkey_asm": "OP_0 OP_PUSHBYTES_32 8be2332fde06b24b9897b232c0a47ba71cb9b44fedf6c5b6cd9278ab29706444",
      "scriptpubkey_type": "v0_p2wsh",
      "scriptpubkey_address": "bc1q303rxt77q6eyhxyhkgevpfrm5uwtndz0ahmvtdkdjfu2k2tsv3zqjjdtgs",
      "value": 11939
    },
    {
      "scriptpubkey": "0014b7552f1fd5d26b0a1e57e3370f39b28f50ccfc2b",
      "scriptpubkey_asm": "OP_0 OP_PUSHBYTES_20 b7552f1fd5d26b0a1e57e3370f39b28f50ccfc2b",
      "scriptpubkey_type": "v0_p2wpkh",
      "scriptpubkey_address": "bc1qka2j78746f4s58jhuvms7wdj3agvelptc5jnr8",
      "value": 292820
    }
  ],
  "size": 861,
  "weight": 3117,
  "fee": 21060,
  "status": {
    "confirmed": true,
    "block_height": 834460,
    "block_hash": "00000000000000000000484a79b643b2524bbce82e5d8a442013fa5b8905ed98",
    "block_time": 1710307468
  },
  "hex": "0100000000010112bdca626fc108844b3bde1aa9dbd3eb6777154aa4461ddec60f5cceb6d6f7b7050000001716001416b22f28207bd7c7a785a6f796ac0afb8cd7dfebffffffff15df87010000000000220020530136d9e888b30672f718e803e873cc16042b68fa6289583943e117c99f3192e557060000000000160014d92c1ef2744026af788ce16094d96b9075c0e9be193e0400000000001600146884001edcbf0c43dee01acb6c513f175382a24a747a020000000000160014593720ddc074712ba77e43c277bc8ccd5c83506d3a6519000000000017a914aeccd138d4bb5e4995f43f8d8d78fab87ca1fbde8791911600000000001600141533a421de4f9999b0f40accd86a8dee2d305df6b629010000000000160014cf9495304425706991024fa4e88d4c23521bd1d2ca44010000000000160014967d1d8b0d3c328047b29116cd3d360ec7c2710de12a0100000000001600146063947f89d3bfa4ce377b34eb422c6710a98e2f24d600000000000017a914d3500d3afcb5a2452600e7bd50bdf53ba1a627ca87cae40000000000001600144681b1ce3e77429b4cba90bbc022ba3b3540547ccda0010000000000160014c1412572dc5777548061c919328189595df4ce0e256f000000000000160014417d3cc46e3eb75441e33ebf6b4696ab1cd4ae0ebff3020000000000160014dfc3b7414e395dc93e5f804acd25ae0f6e3fd613cc1906000000000017a91489c97b6b5239c1a82c109eee98080b365f69196c873ef903000000000016001480df846d97aae7a53c0a71cc5386ad11775beccfdb1c0500000000001600147e2d1d160f4eeb1c2e25206404a4bfa3e9a2978f4c86010000000000160014339fb5d3583a408173023462f574a450fbefb75e813e130000000000160014fa86cd1d84ce0b68c8172a34d0f93a0571508fc5a32e0000000000002200208be2332fde06b24b9897b232c0a47ba71cb9b44fedf6c5b6cd9278ab29706444d477040000000000160014b7552f1fd5d26b0a1e57e3370f39b28f50ccfc2b0247304402202787632e9c839e42523edc1dca9291e343612b87171bba218e523085ff5f4eb40220012bbe1b839dc1a47149d2e915381a0cf7eae0971b71cc5d921ccb5d2b1ae2f3012103657cc41f5e124e16a54104ea241a050834dee45a1eea6058f9a2366e8230069a00000000"
}