{
  "txid": "e6d2a99f5a493ee6ffff83763628685bfe5a379d7887076d1885ba2c4f63c35c",
  "version": 2,
  "locktime": 0,
  "vin": [
    {
      "txid": "97186a66ee8c0cd81ab92ae83b579793177c021349424b5c77e9dbbfe560fc68",
      "vout": 1,
      "prevout": {
        "scriptpubkey": "51209faa5843b315c1c455535f95d394aa8d1861256e42de7dce2b6f288a8769383f",
        "scriptpubkey_asm": "OP_PUSHNUM_1 OP_PUSHBYTES_32 9faa5843b315c1c455535f95d394aa8d1861256e42de7dce2b6f288a8769383f",
        "scriptpubkey_type": "v1_p2tr",
        "scriptpubkey_address": "bc1pn749ssanzhqug42nt72a899235vxzftwgt08mn3tdu5g4pmf8qlsh7r5qg",
        "value": 179050
      },
      "scriptsig": "",
      "scriptsig_asm": "",
      "witness": [
        "dc4db8335ba922a8f383cf5804932fa1ab545abbb2d74849aabf1788e783137b03e7a88140605c060b39df8b3b04f03210a33a064a0a84665157c1cf6c289718"
      ],
      "is_coinbase": false,
      "sequence": 4294967293
    }
  ],
  "vout": [
    {
      "scriptpubkey": "512086f1295be330ffcc3da2cd6beb4d4b1bb47b4f657ab8b7da0744ccf9ec989fd6",
      "scriptpubkey_asm": "OP_PUSHNUM_1 OP_PUSHBYTES_32 86f1295be330ffcc3da2cd6beb4d4b1bb47b4f657ab8b7da0744ccf9ec989fd6",
      "scriptpubkey_type": "v1_p2tr",
      "scriptpubkey_address": "bc1psmcjjklrxrluc0dze447kn2trw68knm902ut0ks8gnx0nmycnltqzu8k0f",
      "value": 3130
    },
    {
      "scriptpubkey": "51209faa5843b315c1c455535f95d394aa8d1861256e42de7dce2b6f288a8769383f",
      "scriptpubkey_asm": "OP_PUSHNUM_1 OP_PUSHBYTES_32 9faa5843b315c1c455535f95d394aa8d1861256e42de7dce2b6f288a8769383f",
      "scriptpubkey_type": "v1_p2tr",
      "scriptpubkey_address": "bc1pn749ssanzhqug42nt72a899235vxzftwgt08mn3tdu5g4pmf8qlsh7r5qg",
      "value": 173302
    }
  ],
  "size": 205,
  "weight": 616,
  "fee": 2618,
  "status": {
    "confirmed": true,
    "block_height": 834638,
    "block_hash": "000000000000000000025f742c626208ac87e0b7d15054abb4a19ca2d735a54e",
    "block_time": 1710405325
  },
  "hex": "0200000000010168fc60e5bfdbe9775c4b424913027c179397573be82ab91ad80c8cee666a18970100000000fdffffff023a0c00000000000022512086f1295be330ffcc3da2cd6beb4d4b1bb47b4f657ab8b7da0744ccf9ec989fd6f6a40200000000002251209faa5843b315c1c455535f95d394aa8d1861256e42de7dce2b6f288a8769383f0140dc4db8335ba922a8f383cf5804932fa1ab545abbb2d74849aabf1788e783137b03e7a88140605c060b39df8b3b04f03210a33a064a0a84665157c1cf6c28971800000000"
}