{
  "txid": "e6d6d088eb9a5ff76f5a0a6f3e6193608c3e59a69ab9b734e3554428cddd0eae",
  "version": 2,
  "locktime": 0,
  "vin": [
    {
      "txid": "767b85b0f4eb55d9a6d1459a63dfbe482298357d737b9e295b18b22f05951948",
      "vout": 0,
      "prevout": {
        "scriptpubkey": "5120912427ce7dcceb7c0667ed947b2df25e6ffff94e77c0c3cbd9d9f477b5800cef",
        "scriptpubkey_asm": "OP_PUSHNUM_1 OP_PUSHBYTES_32 912427ce7dcceb7c0667ed947b2df25e6ffff94e77c0c3cbd9d9f477b5800cef",
        "scriptpubkey_type": "v1_p2tr",
        "scriptpubkey_address": "bc1pjyjz0nnaen4hcpn8ak28kt0jtehll72wwlqv8j7em8680dvqpnhskt2nny",
        "value": 2962
      },
      "scriptsig": "",
      "scriptsig_asm": "",
      "witness": [
        "d001b1081d9d44ef6b509752f61f02015b7317bb5095829a48dce0e45332fff8f204d21706ce6fd1459f7ebfdd707d8b86cad5f58a69ee66dfba57ce5cc25566",
        "2077768bcc221b1ff940ab76217d79ffe2540b90f27092db53862edb280e9e8e72ac0063036f7264010118746578742f706c61696e3b636861727365743d7574662d3800377b2270223a226272632d3230222c226f70223a227472616e73666572222c227469636b223a22736f6c73222c22616d74223a223230227d68",
        "c077768bcc221b1ff940ab76217d79ffe2540b90f27092db53862edb280e9e8e72"
      ],
      "is_coinbase": false,
      "sequence": 4294967293
    }
  ],
  "vout": [
    {
      "scriptpubkey": "512044676717c3d1ade859d2ca1ef30a4f8db891096a9789d4fac4547fb7acc374fa",
      "scriptpubkey_asm": "OP_PUSHNUM_1 OP_PUSHBYTES_32 44676717c3d1ade859d2ca1ef30a4f8db891096a9789d4fac4547fb7acc374fa",
      "scriptpubkey_type": "v1_p2tr",
      "scriptpubkey_address": "bc1pg3nkw97r6xk7skwjeg00xzj03kufzzt2j7yaf7ky23lm0txrwnaqk2dtur",
      "value": 546
    }
  ],
  "size": 322,
  "weight": 604,
  "fee": 2416,
  "status": {
    "confirmed": true,
    "block_height": 834638,
    "block_hash": "000000000000000000025f742c626208ac87e0b7d15054abb4a19ca2d735a54e",
    "block_time": 1710405325
  },
  "hex": "02000000000101481995052fb2185b299e7b737d35982248bedf639a45d1a6d955ebf4b0857b760000000000fdffffff01220200000000000022512044676717c3d1ade859d2ca1ef30a4f8db891096a9789d4fac4547fb7acc374fa0340d001b1081d9d44ef6b509752f61f02015b7317bb5095829a48dce0e45332fff8f204d21706ce6fd1459f7ebfdd707d8b86cad5f58a69ee66dfba57ce5cc255667d2077768bcc221b1ff940ab76217d79ffe2540b90f27092db53862edb280e9e8e72ac0063036f7264010118746578742f706c61696e3b636861727365743d7574662d3800377b2270223a226272632d3230222c226f70223a227472616e73666572222c227469636b223a22736f6c73222c22616d74223a223230227d6821c077768bcc221b1ff940ab76217d79ffe2540b90f27092db53862edb280e9e8e7200000000"
}