{
  "txid": "e6d870ecd3e78026506da94b80411048053758e2f8f248061b553bfe15e76392",
  "version": 2,
  "locktime": 833939,
  "vin": [
    {
      "txid": "53c9dc45d595872588ff760afc92dc0330305f1d41d8bc9c1d36ab953463f3b5",
      "vout": 7,
      "prevout": {
        "scriptpubkey": "001474012f5d88748d4a49655612d13e42afd513333c",
        "scriptpubkey_asm": "OP_0 OP_PUSHBYTES_20 74012f5d88748d4a49655612d13e42afd513333c",
        "scriptpubkey_type": "v0_p2wpkh",
        "scriptpubkey_address": "bc1qwsqj7hvgwjx55jt92cfdz0jz4l23xveuddsd23",
        "value": 131732112
      },
      "scriptsig": "",
      "scriptsig_asm": "",
      "witness": [
        "30440220394aa62070d5a94101153671b337a526d5cf9863a11c148cc48fc66bdd0d930502207dd525b61ab3f4696ec019340f7ddf031953a8f70e1a6173ae9e74229e4e81fe01",
        "0277e50b2ff0d89f1c050b1638819fd4c6050c1acf88ab577a51a0a24841e46cbc"
      ],
      "is_coinbase": false,
      "sequence": 4294967293
    }
  ],
  "vout": [
    {
      "scriptpubkey": "76a914a4f49f90878b902a35f91106fff89cf2b396ef1488ac",
      "scriptpubkey_asm": "OP_DUP OP_HASH160 OP_PUSHBYTES_20 a4f49f90878b902a35f91106fff89cf2b396ef14 OP_EQUALVERIFY OP_CHECKSIG",
      "scriptpubkey_type": "p2pkh",
      "scriptpubkey_address": "1G3CsBjHK19dE36VgQKBXGCj9ZC8r4HBz3",
      "value": 3514776
    },
    {
      "scriptpubkey": "00148f8a158eb0085a510986b1427a1beef14dcf11e2",
      "scriptpubkey_asm": "OP_0 OP_PUSHBYTES_20 8f8a158eb0085a510986b1427a1beef14dcf11e2",
      "scriptpubkey_type": "v0_p2wpkh",
      "scriptpubkey_address": "bc1q379ptr4sppd9zzvxk9p85xlw79xu7y0zvj068d",
      "value": 127350299
    },
    {
      "scriptpubkey": "0014e3293eaad0266de54c74f97e6aff7ff941eba68b",
      "scriptpubkey_asm": "OP_0 OP_PUSHBYTES_20 e3293eaad0266de54c74f97e6aff7ff941eba68b",
      "scriptpubkey_type": "v0_p2wpkh",
      "scriptpubkey_address": "bc1quv5na2ksyek72nr5l9lx4lmll9q7hf5tgrp48y",
      "value": 116975
    },
    {
      "scriptpubkey": "0014aaa60c2980f1fa971b8e0420f7684d42dea8c8d9",
      "scriptpubkey_asm": "OP_0 OP_PUSHBYTES_20 aaa60c2980f1fa971b8e0420f7684d42dea8c8d9",
      "scriptpubkey_type": "v0_p2wpkh",
      "scriptpubkey_address": "bc1q42nqc2vq78afwxuwqss0w6zdgt023jxeduzvy0",
      "value": 632660
    },
    {
      "scriptpubkey": "001466a2a51999bf9e771964177b9eee75c69c20c411",
      "scriptpubkey_asm": "OP_0 OP_PUSHBYTES_20 66a2a51999bf9e771964177b9eee75c69c20c411",
      "scriptpubkey_type": "v0_p2wpkh",
      "scriptpubkey_address": "bc1qv6322xveh708wxtyzaaeamn4c6wzp3q3xdx5fw",
      "value": 117165
    }
  ],
  "size": 318,
  "weight": 945,
  "fee": 237,
  "status": {
    "confirmed": true,
    "block_height": 834464,
    "block_hash": "0000000000000000000177a0869a911a2b65c9bdcd5a8bcb02b68f305bee848e",
    "block_time": 1710308296
  },
  "hex": "02000000000101b5f3633495ab361d9cbcd8411d5f303003dc92fc0a76ff88258795d545dcc9530700000000fdffffff0598a13500000000001976a914a4f49f90878b902a35f91106fff89cf2b396ef1488ac1b369707000000001600148f8a158eb0085a510986b1427a1beef14dcf11e2efc8010000000000160014e3293eaad0266de54c74f97e6aff7ff941eba68b54a7090000000000160014aaa60c2980f1fa971b8e0420f7684d42dea8c8d9adc901000000000016001466a2a51999bf9e771964177b9eee75c69c20c411024730440220394aa62070d5a94101153671b337a526d5cf9863a11c148cc48fc66bdd0d930502207dd525b61ab3f4696ec019340f7ddf031953a8f70e1a6173ae9e74229e4e81fe01210277e50b2ff0d89f1c050b1638819fd4c6050c1acf88ab577a51a0a24841e46cbc93b90c00"
}