{
  "txid": "e6dadf2527a69744447b12927ca0a3161e819398a7bfa5f08bf3ed20c0b6d014",
  "version": 1,
  "locktime": 0,
  "vin": [
    {
      "txid": "a7a75a7a238d5cb4f5372c0125c8736beba594cc3d5aa3a7bfad40497a959dea",
      "vout": 0,
      "prevout": {
        "scriptpubkey": "0014d3e9eaee11ea90b285ba8e36b56c297b84096e04",
        "scriptpubkey_asm": "OP_0 OP_PUSHBYTES_20 d3e9eaee11ea90b285ba8e36b56c297b84096e04",
        "scriptpubkey_type": "v0_p2wpkh",
        "scriptpubkey_address": "bc1q60574ms3a2gt9pd63cmt2mpf0wzqjmsyf0udxy",
        "value": 429442
      },
      "scriptsig": "",
      "scriptsig_asm": "",
      "witness": [
        "3045022100f6261d900e037387e0e989b221f4e04701274ce89c3393a51396eabfa9d111f002205acdf79539df3ff29fb8b47e2d4e0f96ff3caf3941f6eb15af89f5396a22f61301",
        "02e0ed3657e1528b8025c147e7a6ff42019e72af18962fefd376f1708b46102b2d"
      ],
      "is_coinbase": false,
      "sequence": 4294967295
    }
  ],
  "vout": [
    {
      "scriptpubkey": "00141836aac1a0d5919f8a0c9ec567eef25f5e0b45d3",
      "scriptpubkey_asm": "OP_0 OP_PUSHBYTES_20 1836aac1a0d5919f8a0c9ec567eef25f5e0b45d3",
      "scriptpubkey_type": "v0_p2wpkh",
      "scriptpubkey_address": "bc1qrqm24sdq6kgelzsvnmzk0mhjta0qk3wne0s8a7",
      "value": 426957
    }
  ],
  "size": 192,
  "weight": 438,
  "fee": 2485,
  "status": {
    "confirmed": true,
    "block_height": 834638,
    "block_hash": "000000000000000000025f742c626208ac87e0b7d15054abb4a19ca2d735a54e",
    "block_time": 1710405325
  },
  "hex": "01000000000101ea9d957a4940adbfa7a35a3dcc94a5eb6b73c825012c37f5b45c8d237a5aa7a70000000000ffffffff01cd830600000000001600141836aac1a0d5919f8a0c9ec567eef25f5e0b45d302483045022100f6261d900e037387e0e989b221f4e04701274ce89c3393a51396eabfa9d111f002205acdf79539df3ff29fb8b47e2d4e0f96ff3caf3941f6eb15af89f5396a22f613012102e0ed3657e1528b8025c147e7a6ff42019e72af18962fefd376f1708b46102b2d00000000"
}