{
  "txid": "e6e4f77c612c736e2ddb7312b14bd86fcf867c9d8e822d27160ff152f5555005",
  "version": 2,
  "locktime": 0,
  "vin": [
    {
      "txid": "228d2afe434eb9801066d4e581052c9e958690ab38ca1b97c9b3b0665623dd70",
      "vout": 1,
      "prevout": {
        "scriptpubkey": "0014a2f59d5bd7f1c116eae2e5ad6ffef9994b24b2a3",
        "scriptpubkey_asm": "OP_0 OP_PUSHBYTES_20 a2f59d5bd7f1c116eae2e5ad6ffef9994b24b2a3",
        "scriptpubkey_type": "v0_p2wpkh",
        "scriptpubkey_address": "bc1q5t6e6k7h78q3d6hzukkkllhen99jfv4ruga2mr",
        "value": 69203
      },
      "scriptsig": "",
      "scriptsig_asm": "",
      "witness": [
        "3045022100ae80cc5e04f7c52916ac47e80a6f9e639fbd34b80d11b9908f5f3ad1053123710220156794e4e46bd9b9977918e3e2290330e597f801c1f64b2c5cb86f40bed954cd01",
        "02cc6bb376bcbb401a0591f0e529c02f6d4e22e450350ba566175fb1e076408bdf"
      ],
      "is_coinbase": false,
      "sequence": 4294967295
    }
  ],
  "vout": [
    {
      "scriptpubkey": "a914376612501a02b3358ca355467bd94f5944a3e82787",
      "scriptpubkey_asm": "OP_HASH160 OP_PUSHBYTES_20 376612501a02b3358ca355467bd94f5944a3e827 OP_EQUAL",
      "scriptpubkey_type": "p2sh",
      "scriptpubkey_address": "36jwN9bU6uJAd1e88iBxug18h1d4UE8985",
      "value": 27791
    },
    {
      "scriptpubkey": "0014bcb6bcaa24932618b33c9061455404c346d183d6",
      "scriptpubkey_asm": "OP_0 OP_PUSHBYTES_20 bcb6bcaa24932618b33c9061455404c346d183d6",
      "scriptpubkey_type": "v0_p2wpkh",
      "scriptpubkey_address": "bc1qhjmte23yjvnp3veujps524qycdrdrq7kjzvdyd",
      "value": 39875
    }
  ],
  "size": 224,
  "weight": 566,
  "fee": 1537,
  "status": {
    "confirmed": true,
    "block_height": 834464,
    "block_hash": "0000000000000000000177a0869a911a2b65c9bdcd5a8bcb02b68f305bee848e",
    "block_time": 1710308296
  },
  "hex": "0200000000010170dd235666b0b3c9971bca38ab9086959e2c0581e5d4661080b94e43fe2a8d220100000000ffffffff028f6c00000000000017a914376612501a02b3358ca355467bd94f5944a3e82787c39b000000000000160014bcb6bcaa24932618b33c9061455404c346d183d602483045022100ae80cc5e04f7c52916ac47e80a6f9e639fbd34b80d11b9908f5f3ad1053123710220156794e4e46bd9b9977918e3e2290330e597f801c1f64b2c5cb86f40bed954cd012102cc6bb376bcbb401a0591f0e529c02f6d4e22e450350ba566175fb1e076408bdf00000000"
}