{
  "txid": "e6ec62dbe25df93e888ba02f65a9e28b085064a656613b58c473dd5c2df13ce1",
  "version": 2,
  "locktime": 0,
  "vin": [
    {
      "txid": "841048007940b7292426db1810ae8d3f44bff8bed1929484eca18065d57e2e5b",
      "vout": 0,
      "prevout": {
        "scriptpubkey": "51205a73d3a12fa77836288c084b762e476bff3a4ba6310b28b2ebeae9cbfa11d174",
        "scriptpubkey_asm": "OP_PUSHNUM_1 OP_PUSHBYTES_32 5a73d3a12fa77836288c084b762e476bff3a4ba6310b28b2ebeae9cbfa11d174",
        "scriptpubkey_type": "v1_p2tr",
        "scriptpubkey_address": "bc1ptfea8gf05aurv2yvpp9hvtj8d0ln5jaxxy9j3vhtat5uh7s3696q0pj5q2",
        "value": 51422
      },
      "scriptsig": "",
      "scriptsig_asm": "",
      "witness": [
        "fea2a42c3278fc06c983f99d5cba50385fb3c558fa10ea1204463bb9e98fd040bfa7cd67a111eee114cdc1cc880743772f40b31585e4257618596c5051c6fdad",
        "20f2d00e1cce0b839d2e197679cac7a15152ec244338032c7767f72c1332d49a65ac0063036f7264010109696d6167652f706e67004db60189504e470d0a1a0a0000000d4948445200000020000000200806000000737a7af400000006624b474400ff00ff00ffa0bda7930000016b494441545885ed96b16ac33010867f95424a2083bc154a4b7047bf40c890bd5b5e28431e228fd12d7bfb00d93cda4b28b4102a0d8640a6ebe0da516c6cddb549ddc13f185bb2d0ff71ba93a4d208840e75d5a5790fd003f400ff02e05a32388cfd63d24806c08e401803c6181051ebc381140314e68d3a6c0100d65a186344105e00d75c6b9d9b7d1b96df83fbe37f4004c15e82d21c280d1bc70924ae02bb1fc15aeb05e18a55054110fcdaa849ac08cce66b8c571936c904b49b825e07a005f079f7085a206fefa6d824138c571966f3f57900c21820fad97d855b92ac08bc3c3fd5fad412f8784ba096bcf14d52be2bd949148a7adf8ff0eee4c5ad31b5ec574ab176456f04d2289fac4d7a981d4b54600e30aba0802022e0b0851e66d06e6e389b91c49c0de04add3c80884aa0ea5b2af646e42e45db5b7a1a8a22209d9ca3ce2f249d038893502277274ca37a1bf8830854f3268d4efb3a590237121707a81e48d5b6f72cb8b4be0089d7a329a450a8e20000000049454e44ae426082680063036f726401011e6170706c69636174696f6e2f6a736f6e3b636861727365743d7574662d38004d67017b2270223a22766f7264222c2276223a312c227479223a22696e7363222c22636f6c223a2233346530363736386230636362346536643861326337343162663031666463396637373235643761366430343436326663323530656661313737376361376337222c22696964223a2253696c6b20536b756c6c205363686f6f6c204f47222c227075626c223a2231455337623370636a527a4667796969714c7278484b546e43686535364c4a485937222c226e6f6e6365223a3132362c226d696e746572223a2262633170686673747364397979727161716e71683263756630327136386372326a73667366746534327164767765637a38727a7170746b736e6e71357863222c22736967223a22484547343541566332506e7037496c58377533416c7578557a646f4b68414e6b4356424631672b5744754258574e64435a546d31377966685179513241374631746353764f576a71336a643175745364567a79396f634d3d227d68",
        "c0f2d00e1cce0b839d2e197679cac7a15152ec244338032c7767f72c1332d49a65675a92934efa5e4869b2432a3e00abfc6819367af43949c2edc693b32d23ac05"
      ],
      "is_coinbase": false,
      "sequence": 4294967293
    }
  ],
  "vout": [
    {
      "scriptpubkey": "5120ba60b834a420c1d04c17563897a81a3e06a941304af35501ac7670238c400aed",
      "scriptpubkey_asm": "OP_PUSHNUM_1 OP_PUSHBYTES_32 ba60b834a420c1d04c17563897a81a3e06a941304af35501ac7670238c400aed",
      "scriptpubkey_type": "v1_p2tr",
      "scriptpubkey_address": "bc1phfstsd9yyrqaqnqh2cuf02q68cr2jsfsfte42qdvwecz8rzqptksnnq5xc",
      "value": 1000
    },
    {
      "scriptpubkey": "a91436731fe2e21ec7dc84af3e3989e0a269b4df613f87",
      "scriptpubkey_asm": "OP_HASH160 OP_PUSHBYTES_20 36731fe2e21ec7dc84af3e3989e0a269b4df613f OP_EQUAL",
      "scriptpubkey_type": "p2sh",
      "scriptpubkey_address": "36evKtydBCAXM4jRSKSnXSxAuMrBU2sxRB",
      "value": 42798
    },
    {
      "scriptpubkey": "51200705a5767db892e98125775049b1a13dd9ecdc8aea0df413cabbee683e871012",
      "scriptpubkey_asm": "OP_PUSHNUM_1 OP_PUSHBYTES_32 0705a5767db892e98125775049b1a13dd9ecdc8aea0df413cabbee683e871012",
      "scriptpubkey_type": "v1_p2tr",
      "scriptpubkey_address": "bc1pquz62anahzfwnqf9wagynvdp8hv7ehy2agxlgy72h0hxs058zqfqk8ksyq",
      "value": 2916
    }
  ],
  "size": 1204,
  "weight": 1711,
  "fee": 4708,
  "status": {
    "confirmed": true,
    "block_height": 834464,
    "block_hash": "0000000000000000000177a0869a911a2b65c9bdcd5a8bcb02b68f305bee848e",
    "block_time": 1710308296
  },
  "hex": "020000000001015b2e7ed56580a1ec849492d1bef8bf443f8dae1018db262429b74079004810840000000000fdffffff03e803000000000000225120ba60b834a420c1d04c17563897a81a3e06a941304af35501ac7670238c400aed2ea700000000000017a91436731fe2e21ec7dc84af3e3989e0a269b4df613f87640b0000000000002251200705a5767db892e98125775049b1a13dd9ecdc8aea0df413cabbee683e8710120340fea2a42c3278fc06c983f99d5cba50385fb3c558fa10ea1204463bb9e98fd040bfa7cd67a111eee114cdc1cc880743772f40b31585e4257618596c5051c6fdadfd820320f2d00e1cce0b839d2e197679cac7a15152ec244338032c7767f72c1332d49a65ac0063036f7264010109696d6167652f706e67004db60189504e470d0a1a0a0000000d4948445200000020000000200806000000737a7af400000006624b474400ff00ff00ffa0bda7930000016b494441545885ed96b16ac33010867f95424a2083bc154a4b7047bf40c890bd5b5e28431e228fd12d7bfb00d93cda4b28b4102a0d8640a6ebe0da516c6cddb549ddc13f185bb2d0ff71ba93a4d208840e75d5a5790fd003f400ff02e05a32388cfd63d24806c08e401803c6181051ebc381140314e68d3a6c0100d65a186344105e00d75c6b9d9b7d1b96df83fbe37f4004c15e82d21c280d1bc70924ae02bb1fc15aeb05e18a55054110fcdaa849ac08cce66b8c571936c904b49b825e07a005f079f7085a206fefa6d824138c571966f3f57900c21820fad97d855b92ac08bc3c3fd5fad412f8784ba096bcf14d52be2bd949148a7adf8ff0eee4c5ad31b5ec574ab176456f04d2289fac4d7a981d4b54600e30aba0802022e0b0851e66d06e6e389b91c49c0de04add3c80884aa0ea5b2af646e42e45db5b7a1a8a22209d9ca3ce2f249d038893502277274ca37a1bf8830854f3268d4efb3a590237121707a81e48d5b6f72cb8b4be0089d7a329a450a8e20000000049454e44ae426082680063036f726401011e6170706c69636174696f6e2f6a736f6e3b636861727365743d7574662d38004d67017b2270223a22766f7264222c2276223a312c227479223a22696e7363222c22636f6c223a2233346530363736386230636362346536643861326337343162663031666463396637373235643761366430343436326663323530656661313737376361376337222c22696964223a2253696c6b20536b756c6c205363686f6f6c204f47222c227075626c223a2231455337623370636a527a4667796969714c7278484b546e43686535364c4a485937222c226e6f6e6365223a3132362c226d696e746572223a2262633170686673747364397979727161716e71683263756630327136386372326a73667366746534327164767765637a38727a7170746b736e6e71357863222c22736967223a22484547343541566332506e7037496c58377533416c7578557a646f4b68414e6b4356424631672b5744754258574e64435a546d31377966685179513241374631746353764f576a71336a643175745364567a79396f634d3d227d6841c0f2d00e1cce0b839d2e197679cac7a15152ec244338032c7767f72c1332d49a65675a92934efa5e4869b2432a3e00abfc6819367af43949c2edc693b32d23ac0500000000"
}