{
  "txid": "e6fc148621c47f1de74d21b96ba4387b5238235b63d975837471518b092ac0a9",
  "version": 2,
  "locktime": 0,
  "vin": [
    {
      "txid": "db62a18ca041349736b8a744ed1c040a60daefea86b77b49fbe281ae4b244669",
      "vout": 0,
      "prevout": {
        "scriptpubkey": "51205b82158f27e4580131f4cfbb16a6a96cdc4856d651c56f42cb943122a40db9d1",
        "scriptpubkey_asm": "OP_PUSHNUM_1 OP_PUSHBYTES_32 5b82158f27e4580131f4cfbb16a6a96cdc4856d651c56f42cb943122a40db9d1",
        "scriptpubkey_type": "v1_p2tr",
        "scriptpubkey_address": "bc1ptwpptre8u3vqzv05e7a3df4fdnwys4kk28zk7sktjscj9fqdh8gsv7l9hq",
        "value": 5000
      },
      "scriptsig": "",
      "scriptsig_asm": "",
      "witness": [
        "c28b45ad734b33343cdd8fcf3b030c6b6734baa65841504a4fc78bb8c78305a2feaf189fdc247a6de9218b13ca27d82e88231e64432a08be9308a0a0d8a744b701"
      ],
      "is_coinbase": false,
      "sequence": 4294967295
    }
  ],
  "vout": [
    {
      "scriptpubkey": "00143919d928e617770c9b365142cb95d85743baba29",
      "scriptpubkey_asm": "OP_0 OP_PUSHBYTES_20 3919d928e617770c9b365142cb95d85743baba29",
      "scriptpubkey_type": "v0_p2wpkh",
      "scriptpubkey_address": "bc1q8yvaj28xzamsexek29pvh9wc2apm4w3fu7zfkh",
      "value": 3792
    }
  ],
  "size": 151,
  "weight": 397,
  "fee": 1208,
  "status": {
    "confirmed": true,
    "block_height": 834552,
    "block_hash": "00000000000000000001dd0468a70c94f619251d286585cff57aeb4bd9ede330",
    "block_time": 1710355598
  },
  "hex": "020000000001016946244bae81e2fb497bb786eaefda600a041ced44a7b836973441a08ca162db0000000000ffffffff01d00e0000000000001600143919d928e617770c9b365142cb95d85743baba290141c28b45ad734b33343cdd8fcf3b030c6b6734baa65841504a4fc78bb8c78305a2feaf189fdc247a6de9218b13ca27d82e88231e64432a08be9308a0a0d8a744b70100000000"
}