{
  "txid": "e70e7a182eb3d7ca9fc62a2bad33611f93c221720a04d432821dd0b3da5469e0",
  "version": 2,
  "locktime": 0,
  "vin": [
    {
      "txid": "1b5395f2469737192d1e63cfad3a83c6735310367a356a553dbadbba1c02f25b",
      "vout": 23,
      "prevout": {
        "scriptpubkey": "512011ced2bf37d1c300ebd93e957482689bb2c691b375395a8d87244b27d9da7c5c",
        "scriptpubkey_asm": "OP_PUSHNUM_1 OP_PUSHBYTES_32 11ced2bf37d1c300ebd93e957482689bb2c691b375395a8d87244b27d9da7c5c",
        "scriptpubkey_type": "v1_p2tr",
        "scriptpubkey_address": "bc1pz88d90eh68psp67e862hfqngnwevdydnw5u44rv8y39j0kw603wqyvq9vl",
        "value": 1823
      },
      "scriptsig": "",
      "scriptsig_asm": "",
      "witness": [
        "97bbe5e500a60df251cbb358a78af818511f3e1d55e60a8546f1a72af47645219c2a04ed9b399bc5190419e57ecb8aff9fd772595624cfa807da439b5e5514fa",
        "20da1bcad8fe45c355f7f8cd13bf170fb76312f425679fbd0e3d62aad3044eb067ac0063036f7264010118746578742f706c61696e3b636861727365743d7574662d3800367b2270223a226272632d3230222c226f70223a226d696e74222c227469636b223a22f09fa9b8222c22616d74223a223130303030227d68",
        "c1da1bcad8fe45c355f7f8cd13bf170fb76312f425679fbd0e3d62aad3044eb067"
      ],
      "is_coinbase": false,
      "sequence": 4294967293
    }
  ],
  "vout": [
    {
      "scriptpubkey": "0014606aea6bcae8843bfa542b3231f709d8e8c47366",
      "scriptpubkey_asm": "OP_0 OP_PUSHBYTES_20 606aea6bcae8843bfa542b3231f709d8e8c47366",
      "scriptpubkey_type": "v0_p2wpkh",
      "scriptpubkey_address": "bc1qvp4w5672azzrh7j59verracfmr5vgumxtld8pd",
      "value": 294
    }
  ],
  "size": 309,
  "weight": 555,
  "fee": 1529,
  "status": {
    "confirmed": true,
    "block_height": 834464,
    "block_hash": "0000000000000000000177a0869a911a2b65c9bdcd5a8bcb02b68f305bee848e",
    "block_time": 1710308296
  },
  "hex": "020000000001015bf2021cbadbba3d556a357a36105373c6833aadcf631e2d19379746f295531b1700000000fdffffff012601000000000000160014606aea6bcae8843bfa542b3231f709d8e8c47366034097bbe5e500a60df251cbb358a78af818511f3e1d55e60a8546f1a72af47645219c2a04ed9b399bc5190419e57ecb8aff9fd772595624cfa807da439b5e5514fa7c20da1bcad8fe45c355f7f8cd13bf170fb76312f425679fbd0e3d62aad3044eb067ac0063036f7264010118746578742f706c61696e3b636861727365743d7574662d3800367b2270223a226272632d3230222c226f70223a226d696e74222c227469636b223a22f09fa9b8222c22616d74223a223130303030227d6821c1da1bcad8fe45c355f7f8cd13bf170fb76312f425679fbd0e3d62aad3044eb06700000000"
}