{
  "txid": "e719e9b11201beaa1d8d0b8d65ad070dfdb921c43e224283b09eb09352421352",
  "version": 2,
  "locktime": 0,
  "vin": [
    {
      "txid": "015af6c8ca24ff8a59abc9454c4d96b0c49aa61830e9c5c239a2450b10445897",
      "vout": 0,
      "prevout": {
        "scriptpubkey": "0014d70707723a88744d29246fae088d85e6656650d3",
        "scriptpubkey_asm": "OP_0 OP_PUSHBYTES_20 d70707723a88744d29246fae088d85e6656650d3",
        "scriptpubkey_type": "v0_p2wpkh",
        "scriptpubkey_address": "bc1q6urswu363p6y62fyd7hq3rv9uejkv5xnxtjfzc",
        "value": 550000
      },
      "scriptsig": "",
      "scriptsig_asm": "",
      "witness": [
        "3045022100e515affe0cabbde212e323cc95414aa3fda944fcd35286e4ccf300cc8ac55ab70220136e24f7d5871311c9fdf5645065b2f0406db82ac124bc2c0af1afe71543bc6301",
        "03bf0dc50f1577d9cf81c62d06589dfdcd92673503e13511136a7e9bdc4d98d07d"
      ],
      "is_coinbase": false,
      "sequence": 4294967293
    }
  ],
  "vout": [
    {
      "scriptpubkey": "0014e3ad65e66f4faf51429f2d93da0e796243660c11",
      "scriptpubkey_asm": "OP_0 OP_PUSHBYTES_20 e3ad65e66f4faf51429f2d93da0e796243660c11",
      "scriptpubkey_type": "v0_p2wpkh",
      "scriptpubkey_address": "bc1quwkkten0f7h4zs5l9kfa5rnevfpkvrq3un840y",
      "value": 27929
    },
    {
      "scriptpubkey": "0014d70707723a88744d29246fae088d85e6656650d3",
      "scriptpubkey_asm": "OP_0 OP_PUSHBYTES_20 d70707723a88744d29246fae088d85e6656650d3",
      "scriptpubkey_type": "v0_p2wpkh",
      "scriptpubkey_address": "bc1q6urswu363p6y62fyd7hq3rv9uejkv5xnxtjfzc",
      "value": 520541
    }
  ],
  "size": 223,
  "weight": 562,
  "fee": 1530,
  "status": {
    "confirmed": true,
    "block_height": 834464,
    "block_hash": "0000000000000000000177a0869a911a2b65c9bdcd5a8bcb02b68f305bee848e",
    "block_time": 1710308296
  },
  "hex": "02000000000101975844100b45a239c2c5e93018a69ac4b0964d4c45c9ab598aff24cac8f65a010000000000fdffffff02196d000000000000160014e3ad65e66f4faf51429f2d93da0e796243660c115df1070000000000160014d70707723a88744d29246fae088d85e6656650d302483045022100e515affe0cabbde212e323cc95414aa3fda944fcd35286e4ccf300cc8ac55ab70220136e24f7d5871311c9fdf5645065b2f0406db82ac124bc2c0af1afe71543bc63012103bf0dc50f1577d9cf81c62d06589dfdcd92673503e13511136a7e9bdc4d98d07d00000000"
}