{
  "txid": "e7213208762ad15b3d801bb0027c01fcbcb0ae0cd083d2b364f44cbb64b7bc0e",
  "version": 1,
  "locktime": 0,
  "vin": [
    {
      "txid": "9e8b9fa84b386700b3a088f92a7e848a224bf7d5d22a8982e2aef2756f9d014d",
      "vout": 1,
      "prevout": {
        "scriptpubkey": "0014aa37af8b59bd66f4566251087844ddb2a09b053a",
        "scriptpubkey_asm": "OP_0 OP_PUSHBYTES_20 aa37af8b59bd66f4566251087844ddb2a09b053a",
        "scriptpubkey_type": "v0_p2wpkh",
        "scriptpubkey_address": "bc1q4gm6lz6eh4n0g4nz2yy8s3xak2sfkpf68n2vhj",
        "value": 113734
      },
      "scriptsig": "",
      "scriptsig_asm": "",
      "witness": [
        "3045022100e070788965eb0c4978670a314c0f50dca6c5b279685a762df4ec8566770d7904022025cb3498c86ef0544dc6455ccbce76e0ea078167f8cfceb0e23d32e3f8aa9a3401",
        "037d338e238a6d02626fbe3234deb421e8457f6423ce547041f8a90e14b30fa047"
      ],
      "is_coinbase": false,
      "sequence": 4294967295
    }
  ],
  "vout": [
    {
      "scriptpubkey": "76a9142beb84204e6b94bfeeaf21dd62481ed1f84c5c4f88ac",
      "scriptpubkey_asm": "OP_DUP OP_HASH160 OP_PUSHBYTES_20 2beb84204e6b94bfeeaf21dd62481ed1f84c5c4f OP_EQUALVERIFY OP_CHECKSIG",
      "scriptpubkey_type": "p2pkh",
      "scriptpubkey_address": "151ECCLY9XbuoEceNU4CQSBxr1NrP77M56",
      "value": 55440
    },
    {
      "scriptpubkey": "0014cf45b9962c12d6dca51835b820368f687e135140",
      "scriptpubkey_asm": "OP_0 OP_PUSHBYTES_20 cf45b9962c12d6dca51835b820368f687e135140",
      "scriptpubkey_type": "v0_p2wpkh",
      "scriptpubkey_address": "bc1qeazmn93vzttdefgcxkuzqd50dplpx52qmcer83",
      "value": 55153
    }
  ],
  "size": 226,
  "weight": 574,
  "fee": 3141,
  "status": {
    "confirmed": true,
    "block_height": 834460,
    "block_hash": "00000000000000000000484a79b643b2524bbce82e5d8a442013fa5b8905ed98",
    "block_time": 1710307468
  },
  "hex": "010000000001014d019d6f75f2aee282892ad2d5f74b228a847e2af988a0b30067384ba89f8b9e0100000000ffffffff0290d80000000000001976a9142beb84204e6b94bfeeaf21dd62481ed1f84c5c4f88ac71d7000000000000160014cf45b9962c12d6dca51835b820368f687e13514002483045022100e070788965eb0c4978670a314c0f50dca6c5b279685a762df4ec8566770d7904022025cb3498c86ef0544dc6455ccbce76e0ea078167f8cfceb0e23d32e3f8aa9a340121037d338e238a6d02626fbe3234deb421e8457f6423ce547041f8a90e14b30fa04700000000"
}