{
  "txid": "e7232f32fa782b767d541f379282c189e8e60b7a26c8a0d998acbad1dee93068",
  "version": 2,
  "locktime": 834458,
  "vin": [
    {
      "txid": "f2945173282427a34e8b268d28a6806d928dc1c9ab614647818234722fa84f86",
      "vout": 0,
      "prevout": {
        "scriptpubkey": "00146f670be6f1ba3a8e11e698f446f70391c3d8a794",
        "scriptpubkey_asm": "OP_0 OP_PUSHBYTES_20 6f670be6f1ba3a8e11e698f446f70391c3d8a794",
        "scriptpubkey_type": "v0_p2wpkh",
        "scriptpubkey_address": "bc1qdansheh3hgaguy0xnr6ydacrj8pa3fu5dw8afv",
        "value": 98327
      },
      "scriptsig": "",
      "scriptsig_asm": "",
      "witness": [
        "304402204fd80bac616536709eed5e53e688acc32d8dfb442b86455c90b49251c86348c80220038d83e308bad60c33845dc9658a4a575eecc3208c837eebcccd581149587b5901",
        "02d42f58af8163550dde42fddd4e404f473c6e2afbd710488a5bbdd3a55137d1cb"
      ],
      "is_coinbase": false,
      "sequence": 4294967293
    },
    {
      "txid": "3e322b20d39953b97cc430e9891afd5894146545f1554c6e02b996e1080ae8b8",
      "vout": 0,
      "prevout": {
        "scriptpubkey": "00146f670be6f1ba3a8e11e698f446f70391c3d8a794",
        "scriptpubkey_asm": "OP_0 OP_PUSHBYTES_20 6f670be6f1ba3a8e11e698f446f70391c3d8a794",
        "scriptpubkey_type": "v0_p2wpkh",
        "scriptpubkey_address": "bc1qdansheh3hgaguy0xnr6ydacrj8pa3fu5dw8afv",
        "value": 901338
      },
      "scriptsig": "",
      "scriptsig_asm": "",
      "witness": [
        "3044022075c24ad5aa43e598e08691d64a7955a28ae4d88ce4e2e315a653840c06ac48ae022042d37cad3aa0d19ca25a1d039a8841fb509fc394011891583d48170fbc12cc1e01",
        "02d42f58af8163550dde42fddd4e404f473c6e2afbd710488a5bbdd3a55137d1cb"
      ],
      "is_coinbase": false,
      "sequence": 4294967293
    },
    {
      "txid": "ab90f4ac55a348f3d919749acbb19c782f45d6c406b00e5af09a0dfdd1ece77e",
      "vout": 0,
      "prevout": {
        "scriptpubkey": "00146f670be6f1ba3a8e11e698f446f70391c3d8a794",
        "scriptpubkey_asm": "OP_0 OP_PUSHBYTES_20 6f670be6f1ba3a8e11e698f446f70391c3d8a794",
        "scriptpubkey_type": "v0_p2wpkh",
        "scriptpubkey_address": "bc1qdansheh3hgaguy0xnr6ydacrj8pa3fu5dw8afv",
        "value": 1970317
      },
      "scriptsig": "",
      "scriptsig_asm": "",
      "witness": [
        "3043021f213332050441d4f502692daf1d875c02be264fce975da5dfff5c95b563145c022056082211c6f171efbf2326886cc13567a9930008c6289b0b5971b78eb953d76101",
        "02d42f58af8163550dde42fddd4e404f473c6e2afbd710488a5bbdd3a55137d1cb"
      ],
      "is_coinbase": false,
      "sequence": 4294967293
    },
    {
      "txid": "ea724e930e6e7612fcdc52cb4be0cd5561414bfcf11707d40339745a53bd39e1",
      "vout": 0,
      "prevout": {
        "scriptpubkey": "00146f670be6f1ba3a8e11e698f446f70391c3d8a794",
        "scriptpubkey_asm": "OP_0 OP_PUSHBYTES_20 6f670be6f1ba3a8e11e698f446f70391c3d8a794",
        "scriptpubkey_type": "v0_p2wpkh",
        "scriptpubkey_address": "bc1qdansheh3hgaguy0xnr6ydacrj8pa3fu5dw8afv",
        "value": 2643138
      },
      "scriptsig": "",
      "scriptsig_asm": "",
      "witness": [
        "3044022078f1e4f739e9e13c6e6c3c9c97535510daddc59d18c0c074cbe47cd1b2aa815702207d2dc813ff15483ea4c48908be135692055ccd3dee694a42018747840b710aad01",
        "02d42f58af8163550dde42fddd4e404f473c6e2afbd710488a5bbdd3a55137d1cb"
      ],
      "is_coinbase": false,
      "sequence": 4294967293
    },
    {
      "txid": "0fcac542f9cf56255d9588e5b4adb4181e4fed9f23d86d67448a1f889f40ca8d",
      "vout": 0,
      "prevout": {
        "scriptpubkey": "00142502d934dedc5fc09b5a570223af8333021778c5",
        "scriptpubkey_asm": "OP_0 OP_PUSHBYTES_20 2502d934dedc5fc09b5a570223af8333021778c5",
        "scriptpubkey_type": "v0_p2wpkh",
        "scriptpubkey_address": "bc1qy5pdjdx7m30upx662upz8turxvppw7x9z2tqwt",
        "value": 97310
      },
      "scriptsig": "",
      "scriptsig_asm": "",
      "witness": [
        "30440220405abda29e71a53a5e369cb690d1d6b70ee4ba1160d3ebb8e5beca97a8148deb022062026f48c4acd31228a43b62d3ac46ca5a2dba62dc1a5bdf28a8184c5b3c145401",
        "027f6903a2c057ac7e315cfdbf170884e970d259d9868e3441787a40d62c3aef61"
      ],
      "is_coinbase": false,
      "sequence": 4294967293
    },
    {
      "txid": "1ce0e26942e649b40db881f3bed9a109dd367d5e8588e8aef5d6a11f7c4f15db",
      "vout": 0,
      "prevout": {
        "scriptpubkey": "0014c891101e81fd53a3238aee673f3a00c8a0357e97",
        "scriptpubkey_asm": "OP_0 OP_PUSHBYTES_20 c891101e81fd53a3238aee673f3a00c8a0357e97",
        "scriptpubkey_type": "v0_p2wpkh",
        "scriptpubkey_address": "bc1qezg3q85pl4f6xgu2aenn7wsqezsr2l5hhp5eml",
        "value": 432534
      },
      "scriptsig": "",
      "scriptsig_asm": "",
      "witness": [
        "30440220497c98eabf4caaadd09bec8a9109c5cd49d24d707d7bdec2203c93e778c7c2f202200933a1d3cc535643279182ecdafc275eb2a6298fab8753b1b321cffe326056c201",
        "03ba4ef7526827bbd28e5cb7ca9a1754fb14b6ec3c80d27801f00f39fbffaa5803"
      ],
      "is_coinbase": false,
      "sequence": 4294967293
    },
    {
      "txid": "49851b92a21fab0e96388bd640f247ce71585041bca4f6a954f881229e225299",
      "vout": 0,
      "prevout": {
        "scriptpubkey": "00146f670be6f1ba3a8e11e698f446f70391c3d8a794",
        "scriptpubkey_asm": "OP_0 OP_PUSHBYTES_20 6f670be6f1ba3a8e11e698f446f70391c3d8a794",
        "scriptpubkey_type": "v0_p2wpkh",
        "scriptpubkey_address": "bc1qdansheh3hgaguy0xnr6ydacrj8pa3fu5dw8afv",
        "value": 420839
      },
      "scriptsig": "",
      "scriptsig_asm": "",
      "witness": [
        "304402206942dbc77f6d30d2c87dfea8168ee96011fb401eb9b7c97800ffb55a44d16ccd022052725dbaa341459fd9bbf542566ba541e690d823ccd6a02465bcfa6f6822aa0101",
        "02d42f58af8163550dde42fddd4e404f473c6e2afbd710488a5bbdd3a55137d1cb"
      ],
      "is_coinbase": false,
      "sequence": 4294967293
    },
    {
      "txid": "1b02ba3d4573f0ddd71ed6643e6ff9c0532350ef5806ff8dc0124d4b417b8087",
      "vout": 0,
      "prevout": {
        "scriptpubkey": "00146f670be6f1ba3a8e11e698f446f70391c3d8a794",
        "scriptpubkey_asm": "OP_0 OP_PUSHBYTES_20 6f670be6f1ba3a8e11e698f446f70391c3d8a794",
        "scriptpubkey_type": "v0_p2wpkh",
        "scriptpubkey_address": "bc1qdansheh3hgaguy0xnr6ydacrj8pa3fu5dw8afv",
        "value": 3143923
      },
      "scriptsig": "",
      "scriptsig_asm": "",
      "witness": [
        "304402207eb3bd7ed3b8f49f6a3d35aa4b1de5c6c2e9957fd4a5ffebe068cfeeea562dd30220160ad0243b3eb167f423addbc09f468e02ec9eb7c7eea15744ae4777d8e5dcc101",
        "02d42f58af8163550dde42fddd4e404f473c6e2afbd710488a5bbdd3a55137d1cb"
      ],
      "is_coinbase": false,
      "sequence": 4294967293
    }
  ],
  "vout": [
    {
      "scriptpubkey": "001465c00777d41426198ec2884a0e83607ade1bfb56",
      "scriptpubkey_asm": "OP_0 OP_PUSHBYTES_20 65c00777d41426198ec2884a0e83607ade1bfb56",
      "scriptpubkey_type": "v0_p2wpkh",
      "scriptpubkey_address": "bc1qvhqqwa75zsnpnrkz3p9qaqmq0t0ph76klmatve",
      "value": 9700000
    }
  ],
  "size": 1226,
  "weight": 2333,
  "fee": 7726,
  "status": {
    "confirmed": true,
    "block_height": 834460,
    "block_hash": "00000000000000000000484a79b643b2524bbce82e5d8a442013fa5b8905ed98",
    "block_time": 1710307468
  },
  "hex": "02000000000108864fa82f72348281474661abc9c18d926d80a6288d268b4ea3272428735194f20000000000fdffffffb8e80a08e196b9026e4c55f14565149458fd1a89e930c47cb95399d3202b323e0000000000fdffffff7ee7ecd1fd0d9af05a0eb006c4d6452f789cb1cb9a7419d9f348a355acf490ab0000000000fdffffffe139bd535a743903d40717f1fc4b416155cde04bcb52dcfc12766e0e934e72ea0000000000fdffffff8dca409f881f8a44676dd8239fed4f1e18b4adb4e588955d2556cff942c5ca0f0000000000fdffffffdb154f7c1fa1d6f5aee888855e7d36dd09a1d9bef381b80db449e64269e2e01c0000000000fdffffff9952229e2281f854a9f6a4bc41505871ce47f240d68b38960eab1fa2921b85490000000000fdffffff87807b414b4d12c08dff0658ef502353c0f96f3e64d61ed7ddf073453dba021b0000000000fdffffff01a00294000000000016001465c00777d41426198ec2884a0e83607ade1bfb560247304402204fd80bac616536709eed5e53e688acc32d8dfb442b86455c90b49251c86348c80220038d83e308bad60c33845dc9658a4a575eecc3208c837eebcccd581149587b59012102d42f58af8163550dde42fddd4e404f473c6e2afbd710488a5bbdd3a55137d1cb02473044022075c24ad5aa43e598e08691d64a7955a28ae4d88ce4e2e315a653840c06ac48ae022042d37cad3aa0d19ca25a1d039a8841fb509fc394011891583d48170fbc12cc1e012102d42f58af8163550dde42fddd4e404f473c6e2afbd710488a5bbdd3a55137d1cb02463043021f213332050441d4f502692daf1d875c02be264fce975da5dfff5c95b563145c022056082211c6f171efbf2326886cc13567a9930008c6289b0b5971b78eb953d761012102d42f58af8163550dde42fddd4e404f473c6e2afbd710488a5bbdd3a55137d1cb02473044022078f1e4f739e9e13c6e6c3c9c97535510daddc59d18c0c074cbe47cd1b2aa815702207d2dc813ff15483ea4c48908be135692055ccd3dee694a42018747840b710aad012102d42f58af8163550dde42fddd4e404f473c6e2afbd710488a5bbdd3a55137d1cb024730440220405abda29e71a53a5e369cb690d1d6b70ee4ba1160d3ebb8e5beca97a8148deb022062026f48c4acd31228a43b62d3ac46ca5a2dba62dc1a5bdf28a8184c5b3c14540121027f6903a2c057ac7e315cfdbf170884e970d259d9868e3441787a40d62c3aef61024730440220497c98eabf4caaadd09bec8a9109c5cd49d24d707d7bdec2203c93e778c7c2f202200933a1d3cc535643279182ecdafc275eb2a6298fab8753b1b321cffe326056c2012103ba4ef7526827bbd28e5cb7ca9a1754fb14b6ec3c80d27801f00f39fbffaa58030247304402206942dbc77f6d30d2c87dfea8168ee96011fb401eb9b7c97800ffb55a44d16ccd022052725dbaa341459fd9bbf542566ba541e690d823ccd6a02465bcfa6f6822aa01012102d42f58af8163550dde42fddd4e404f473c6e2afbd710488a5bbdd3a55137d1cb0247304402207eb3bd7ed3b8f49f6a3d35aa4b1de5c6c2e9957fd4a5ffebe068cfeeea562dd30220160ad0243b3eb167f423addbc09f468e02ec9eb7c7eea15744ae4777d8e5dcc1012102d42f58af8163550dde42fddd4e404f473c6e2afbd710488a5bbdd3a55137d1cb9abb0c00"
}