{
  "txid": "e742f5f10160fd112c54b1b839f59f889d01b79ae2701743fe9dce504dafd77c",
  "version": 2,
  "locktime": 0,
  "vin": [
    {
      "txid": "81650da469fdf5c5a7396c40ee88db113d95ed17859003f75de17bb1f2b69724",
      "vout": 2,
      "prevout": {
        "scriptpubkey": "a9142ca65870e8d1031686bd2a3967886a500674a15a87",
        "scriptpubkey_asm": "OP_HASH160 OP_PUSHBYTES_20 2ca65870e8d1031686bd2a3967886a500674a15a OP_EQUAL",
        "scriptpubkey_type": "p2sh",
        "scriptpubkey_address": "35m6vsSBJ5JaDhNvMsg7SYib6HNsu1ruKP",
        "value": 101000
      },
      "scriptsig": "1600141c7249bfabc81f1d90fb3c3e08acdbdc792505d5",
      "scriptsig_asm": "OP_PUSHBYTES_22 00141c7249bfabc81f1d90fb3c3e08acdbdc792505d5",
      "witness": [
        "3044022031a7290e4edc6496cb92b0aa5189b01d3b1e60761302eef29d88c1095ddec7970220108464387408e48dfb0f95aaef0f3fc74c44200ee6389769520018315ff085f401",
        "026ea6587abdf89dfc67522cdaef55a0aae83f005d7486eca37410a17f9c362fa8"
      ],
      "is_coinbase": false,
      "sequence": 4294967293,
      "inner_redeemscript_asm": "OP_0 OP_PUSHBYTES_20 1c7249bfabc81f1d90fb3c3e08acdbdc792505d5"
    }
  ],
  "vout": [
    {
      "scriptpubkey": "a9142ca65870e8d1031686bd2a3967886a500674a15a87",
      "scriptpubkey_asm": "OP_HASH160 OP_PUSHBYTES_20 2ca65870e8d1031686bd2a3967886a500674a15a OP_EQUAL",
      "scriptpubkey_type": "p2sh",
      "scriptpubkey_address": "35m6vsSBJ5JaDhNvMsg7SYib6HNsu1ruKP",
      "value": 600
    },
    {
      "scriptpubkey": "a9142ca65870e8d1031686bd2a3967886a500674a15a87",
      "scriptpubkey_asm": "OP_HASH160 OP_PUSHBYTES_20 2ca65870e8d1031686bd2a3967886a500674a15a OP_EQUAL",
      "scriptpubkey_type": "p2sh",
      "scriptpubkey_address": "35m6vsSBJ5JaDhNvMsg7SYib6HNsu1ruKP",
      "value": 600
    },
    {
      "scriptpubkey": "a9142ca65870e8d1031686bd2a3967886a500674a15a87",
      "scriptpubkey_asm": "OP_HASH160 OP_PUSHBYTES_20 2ca65870e8d1031686bd2a3967886a500674a15a OP_EQUAL",
      "scriptpubkey_type": "p2sh",
      "scriptpubkey_address": "35m6vsSBJ5JaDhNvMsg7SYib6HNsu1ruKP",
      "value": 97633
    }
  ],
  "size": 279,
  "weight": 789,
  "fee": 2167,
  "status": {
    "confirmed": true,
    "block_height": 834464,
    "block_hash": "0000000000000000000177a0869a911a2b65c9bdcd5a8bcb02b68f305bee848e",
    "block_time": 1710308296
  },
  "hex": "020000000001012497b6f2b17be15df703908517ed953d11db88ee406c39a7c5f5fd69a40d658102000000171600141c7249bfabc81f1d90fb3c3e08acdbdc792505d5fdffffff03580200000000000017a9142ca65870e8d1031686bd2a3967886a500674a15a87580200000000000017a9142ca65870e8d1031686bd2a3967886a500674a15a87617d01000000000017a9142ca65870e8d1031686bd2a3967886a500674a15a8702473044022031a7290e4edc6496cb92b0aa5189b01d3b1e60761302eef29d88c1095ddec7970220108464387408e48dfb0f95aaef0f3fc74c44200ee6389769520018315ff085f40121026ea6587abdf89dfc67522cdaef55a0aae83f005d7486eca37410a17f9c362fa800000000"
}