{
  "txid": "e76fc7b7910c28fd8d9e354d8fe60fef8008e34ec617c2ca0ebd58b6c844ab3d",
  "version": 1,
  "locktime": 0,
  "vin": [
    {
      "txid": "a2288459fb85ba2b6c78eafb25d788b1bcf5f0602efdbb61190ddcd5b59aa603",
      "vout": 1,
      "prevout": {
        "scriptpubkey": "76a9148652051b759f8f065527a3c2a904770d6b49b0e688ac",
        "scriptpubkey_asm": "OP_DUP OP_HASH160 OP_PUSHBYTES_20 8652051b759f8f065527a3c2a904770d6b49b0e6 OP_EQUALVERIFY OP_CHECKSIG",
        "scriptpubkey_type": "p2pkh",
        "scriptpubkey_address": "1DFDoYyfWKZ9UrnrNUPj7EP9Baqb2eujhD",
        "value": 1021990
      },
      "scriptsig": "47304402200f01367729da913c3b83656c1f6bd62e6c540c8b5c6240ee66f45d92f2606c6502207b624653fac962073705171931368ebd747de36a4c15ecf473a88480bb9c659a012103e75dea20b993e420a21273748bea6506396533ae01503639bcb86d15bd5206b0",
      "scriptsig_asm": "OP_PUSHBYTES_71 304402200f01367729da913c3b83656c1f6bd62e6c540c8b5c6240ee66f45d92f2606c6502207b624653fac962073705171931368ebd747de36a4c15ecf473a88480bb9c659a01 OP_PUSHBYTES_33 03e75dea20b993e420a21273748bea6506396533ae01503639bcb86d15bd5206b0",
      "is_coinbase": false,
      "sequence": 4294967295
    }
  ],
  "vout": [
    {
      "scriptpubkey": "a9143a529942b03d88eeecd3846ee935d39ddf160c9387",
      "scriptpubkey_asm": "OP_HASH160 OP_PUSHBYTES_20 3a529942b03d88eeecd3846ee935d39ddf160c93 OP_EQUAL",
      "scriptpubkey_type": "p2sh",
      "scriptpubkey_address": "371Q4j5pntuJFtaumrh9NdW1MpHUgRpnYy",
      "value": 408765
    },
    {
      "scriptpubkey": "76a914cdeebe7c625fd86eb27d8d50752e582874fb2cd188ac",
      "scriptpubkey_asm": "OP_DUP OP_HASH160 OP_PUSHBYTES_20 cdeebe7c625fd86eb27d8d50752e582874fb2cd1 OP_EQUALVERIFY OP_CHECKSIG",
      "scriptpubkey_type": "p2pkh",
      "scriptpubkey_address": "1KmsXZCNZEEWKZqkRgMDvoME14dMCidSPy",
      "value": 605161
    }
  ],
  "size": 223,
  "weight": 892,
  "fee": 8064,
  "status": {
    "confirmed": true,
    "block_height": 834638,
    "block_hash": "000000000000000000025f742c626208ac87e0b7d15054abb4a19ca2d735a54e",
    "block_time": 1710405325
  },
  "hex": "010000000103a69ab5d5dc0d1961bbfd2e60f0f5bcb188d725fbea786c2bba85fb598428a2010000006a47304402200f01367729da913c3b83656c1f6bd62e6c540c8b5c6240ee66f45d92f2606c6502207b624653fac962073705171931368ebd747de36a4c15ecf473a88480bb9c659a012103e75dea20b993e420a21273748bea6506396533ae01503639bcb86d15bd5206b0ffffffff02bd3c06000000000017a9143a529942b03d88eeecd3846ee935d39ddf160c9387e93b0900000000001976a914cdeebe7c625fd86eb27d8d50752e582874fb2cd188ac00000000"
}