{
  "txid": "e7862066cab5d95d5353146a2a7b0ea692ca9f27c661dcc4034fec17b72587f0",
  "version": 1,
  "locktime": 0,
  "vin": [
    {
      "txid": "3e93b9527fe1592e643891451f16b57fbcebbfd96a0e7d9f9fbefe2ee340b32a",
      "vout": 0,
      "prevout": {
        "scriptpubkey": "002090fd9cd51e33119acf3a0e7ea32758e87773cb4f78e699741f41f445f90aaabe",
        "scriptpubkey_asm": "OP_0 OP_PUSHBYTES_32 90fd9cd51e33119acf3a0e7ea32758e87773cb4f78e699741f41f445f90aaabe",
        "scriptpubkey_type": "v0_p2wsh",
        "scriptpubkey_address": "bc1qjr7ee4g7xvge4ne6pel2xf6capmh8j600rnfjaqlg86yt7g242lqa6kheh",
        "value": 6891
      },
      "scriptsig": "",
      "scriptsig_asm": "",
      "witness": [
        "b56d162d5a87e628b9382ae1c3436190da08d358b2502d1cc3b98ced7b9a1fd0",
        "3045022100e097799c8efb4217c651d51029e5ee94b4684a8770577329efee9302a852c191022069958021a8f2f19ea8fbb5989ff65f46057fd73811cfe42db4121c0c862984d801",
        "3044022038e06987da105bbc5f4d1fdbf8cc4680ab1eff20a5784a8841b6f33e632042990220369904f5706aecfb3ba016c7e4a2784faef876312fbe54e636093a376d27f76401",
        "2103c8e1924dc7be143682770a2db69c038ef1b850b3b298ad76f26043e39c01060eac6476a91488e17c611fb88dc53f4c32b4680bfd092068040f88ad03b0b20cb167210215b08323e405c246801d1b8abfb302880a5b07b300481e515c5066d29be8b82dad82012088a914d45c9559e4df8eade816a2751c034aa0f63608768768"
      ],
      "is_coinbase": false,
      "sequence": 4294967295,
      "inner_witnessscript_asm": "OP_PUSHBYTES_33 03c8e1924dc7be143682770a2db69c038ef1b850b3b298ad76f26043e39c01060e OP_CHECKSIG OP_NOTIF OP_DUP OP_HASH160 OP_PUSHBYTES_20 88e17c611fb88dc53f4c32b4680bfd092068040f OP_EQUALVERIFY OP_CHECKSIGVERIFY OP_PUSHBYTES_3 b0b20c OP_CLTV OP_ELSE OP_PUSHBYTES_33 0215b08323e405c246801d1b8abfb302880a5b07b300481e515c5066d29be8b82d OP_CHECKSIGVERIFY OP_SIZE OP_PUSHBYTES_1 20 OP_EQUALVERIFY OP_HASH160 OP_PUSHBYTES_20 d45c9559e4df8eade816a2751c034aa0f6360876 OP_EQUAL OP_ENDIF"
    }
  ],
  "vout": [
    {
      "scriptpubkey": "5120837fc0b1013824b0c82458d5b3fc6afa78696af252c91af0758ec563388d3e86",
      "scriptpubkey_asm": "OP_PUSHNUM_1 OP_PUSHBYTES_32 837fc0b1013824b0c82458d5b3fc6afa78696af252c91af0758ec563388d3e86",
      "scriptpubkey_type": "v1_p2tr",
      "scriptpubkey_address": "bc1psdlupvgp8qjtpjpytr2m8lr2lfuxj6hj2ty34ur43mzkxwyd86rqxdqwef",
      "value": 5000
    }
  ],
  "size": 406,
  "weight": 688,
  "fee": 1891,
  "status": {
    "confirmed": true,
    "block_height": 834464,
    "block_hash": "0000000000000000000177a0869a911a2b65c9bdcd5a8bcb02b68f305bee848e",
    "block_time": 1710308296
  },
  "hex": "010000000001012ab340e32efebe9f9f7d0e6ad9bfebbc7fb5161f459138642e59e17f52b9933e0000000000ffffffff018813000000000000225120837fc0b1013824b0c82458d5b3fc6afa78696af252c91af0758ec563388d3e860420b56d162d5a87e628b9382ae1c3436190da08d358b2502d1cc3b98ced7b9a1fd0483045022100e097799c8efb4217c651d51029e5ee94b4684a8770577329efee9302a852c191022069958021a8f2f19ea8fbb5989ff65f46057fd73811cfe42db4121c0c862984d801473044022038e06987da105bbc5f4d1fdbf8cc4680ab1eff20a5784a8841b6f33e632042990220369904f5706aecfb3ba016c7e4a2784faef876312fbe54e636093a376d27f76401822103c8e1924dc7be143682770a2db69c038ef1b850b3b298ad76f26043e39c01060eac6476a91488e17c611fb88dc53f4c32b4680bfd092068040f88ad03b0b20cb167210215b08323e405c246801d1b8abfb302880a5b07b300481e515c5066d29be8b82dad82012088a914d45c9559e4df8eade816a2751c034aa0f6360876876800000000"
}