{
  "txid": "e7901fea9d74c2754e870f75ea0f387a0d4715065f09ca404cd5c0cbaf7308bf",
  "version": 2,
  "locktime": 834637,
  "vin": [
    {
      "txid": "3a35e33a2db66fc468e46a0ae92875c7e7b81672607e25d2cde75991f659f487",
      "vout": 11,
      "prevout": {
        "scriptpubkey": "00141eff65ef2da5857c3a3d75937f60927fc000f7ed",
        "scriptpubkey_asm": "OP_0 OP_PUSHBYTES_20 1eff65ef2da5857c3a3d75937f60927fc000f7ed",
        "scriptpubkey_type": "v0_p2wpkh",
        "scriptpubkey_address": "bc1qrmlktmed5kzhcw3awkfh7cyj0lqqpald6pc8lp",
        "value": 189424
      },
      "scriptsig": "",
      "scriptsig_asm": "",
      "witness": [
        "304402200a10ef9d9607e3efe247cde969ae03cd8361a0683c57796332d659807abf8aa2022004d948aed991a7ac5cfb371a6b57be4d5f264927fa8c279e8c8db96be793661801",
        "0203fdb0669c387bfa41adcd8f4b87774cf51b7d6638b6f857463ee31088d46539"
      ],
      "is_coinbase": false,
      "sequence": 4294967293
    }
  ],
  "vout": [
    {
      "scriptpubkey": "001438a3ba700f983b6d2715c66b85079fcccb115994",
      "scriptpubkey_asm": "OP_0 OP_PUSHBYTES_20 38a3ba700f983b6d2715c66b85079fcccb115994",
      "scriptpubkey_type": "v0_p2wpkh",
      "scriptpubkey_address": "bc1q8z3m5uq0nqak6fc4ce4c2pulen93zkv5pewsfj",
      "value": 11500
    },
    {
      "scriptpubkey": "00142de8c4cc30de4651cbbedf415c2269e670216a06",
      "scriptpubkey_asm": "OP_0 OP_PUSHBYTES_20 2de8c4cc30de4651cbbedf415c2269e670216a06",
      "scriptpubkey_type": "v0_p2wpkh",
      "scriptpubkey_address": "bc1q9h5vfnpsmer9rja7maq4cgnfueczz6sx2dqkqs",
      "value": 168000
    }
  ],
  "size": 222,
  "weight": 561,
  "fee": 9924,
  "status": {
    "confirmed": true,
    "block_height": 834638,
    "block_hash": "000000000000000000025f742c626208ac87e0b7d15054abb4a19ca2d735a54e",
    "block_time": 1710405325
  },
  "hex": "0200000000010187f459f69159e7cdd2257e607216b8e7c77528e90a6ae468c46fb62d3ae3353a0b00000000fdffffff02ec2c00000000000016001438a3ba700f983b6d2715c66b85079fcccb11599440900200000000001600142de8c4cc30de4651cbbedf415c2269e670216a060247304402200a10ef9d9607e3efe247cde969ae03cd8361a0683c57796332d659807abf8aa2022004d948aed991a7ac5cfb371a6b57be4d5f264927fa8c279e8c8db96be793661801210203fdb0669c387bfa41adcd8f4b87774cf51b7d6638b6f857463ee31088d465394dbc0c00"
}