{
  "txid": "e7954d745123cf5e6706f09c277de720a0c8aa43aac1802a53d0921aab03848f",
  "version": 1,
  "locktime": 0,
  "vin": [
    {
      "txid": "f4fbd4bd7bfc2524647269efa169bd0bedcedcf3d61d77a721601fb3038b8a90",
      "vout": 1,
      "prevout": {
        "scriptpubkey": "0014abb2fb3272f09f9c6e9f5b9d151edbdb22922469",
        "scriptpubkey_asm": "OP_0 OP_PUSHBYTES_20 abb2fb3272f09f9c6e9f5b9d151edbdb22922469",
        "scriptpubkey_type": "v0_p2wpkh",
        "scriptpubkey_address": "bc1q4we0kvnj7z0ecm5ltww328kmmv3fyfrfsxm3un",
        "value": 7335848
      },
      "scriptsig": "",
      "scriptsig_asm": "",
      "witness": [
        "3045022100bbaec3cb05095e5636868a3b0e070d63688f0044a88b4ca95d4ffdc112c4f39b02202611df2071dbd7bb66c9e993735104da933f876ef1341532da6ced6033d182f301",
        "02e9028baad5513d77d4142fbb9c6cb1db62f63722b2a1d8feadde554bdcac2282"
      ],
      "is_coinbase": false,
      "sequence": 4294967295
    }
  ],
  "vout": [
    {
      "scriptpubkey": "0014711172330635ed183410203567e6bd471ea57538",
      "scriptpubkey_asm": "OP_0 OP_PUSHBYTES_20 711172330635ed183410203567e6bd471ea57538",
      "scriptpubkey_type": "v0_p2wpkh",
      "scriptpubkey_address": "bc1qwyghyvcxxhk3sdqsyq6k0e4agu022afckkgalm",
      "value": 1499300
    },
    {
      "scriptpubkey": "001430f9a2c30ef801385f225bb7baeb51b69212c37a",
      "scriptpubkey_asm": "OP_0 OP_PUSHBYTES_20 30f9a2c30ef801385f225bb7baeb51b69212c37a",
      "scriptpubkey_type": "v0_p2wpkh",
      "scriptpubkey_address": "bc1qxru69scwlqqnsheztwmm4663k6fp9sm6s3y77m",
      "value": 5834451
    }
  ],
  "size": 223,
  "weight": 562,
  "fee": 2097,
  "status": {
    "confirmed": true,
    "block_height": 834638,
    "block_hash": "000000000000000000025f742c626208ac87e0b7d15054abb4a19ca2d735a54e",
    "block_time": 1710405325
  },
  "hex": "01000000000101908a8b03b31f6021a7771dd6f3dcceed0bbd69a1ef6972642425fc7bbdd4fbf40100000000ffffffff02a4e0160000000000160014711172330635ed183410203567e6bd471ea57538d30659000000000016001430f9a2c30ef801385f225bb7baeb51b69212c37a02483045022100bbaec3cb05095e5636868a3b0e070d63688f0044a88b4ca95d4ffdc112c4f39b02202611df2071dbd7bb66c9e993735104da933f876ef1341532da6ced6033d182f3012102e9028baad5513d77d4142fbb9c6cb1db62f63722b2a1d8feadde554bdcac228200000000"
}