{
  "txid": "e7afaa3577d559b05eaf5db73ab7925f9ec68b72efc59d4a85456d006d2727ac",
  "version": 1,
  "locktime": 834637,
  "vin": [
    {
      "txid": "f50b1b0f36efd3dd3f61d0e039ec4abca6ec02511e2b8ebcade483dac95e8c20",
      "vout": 0,
      "prevout": {
        "scriptpubkey": "0014a7a0db698ddf54abc2fa1d21a0dd8060f26984ed",
        "scriptpubkey_asm": "OP_0 OP_PUSHBYTES_20 a7a0db698ddf54abc2fa1d21a0dd8060f26984ed",
        "scriptpubkey_type": "v0_p2wpkh",
        "scriptpubkey_address": "bc1q57sdk6vdma22hsh6r5s6phvqvrexnp8dylq33a",
        "value": 1840844
      },
      "scriptsig": "",
      "scriptsig_asm": "",
      "witness": [
        "304402205fdc733d47784bf4e7ea8bcb22a7207db4286d93ff8ad1cede885d7f17ac839702207b86f7309e5157fdf5c43179282c7cef797d4fe1b1874f790dd92419a1ccee5901",
        "030f3ec54da4d5f5ed14713eef535cfcc57599ef7a32756cedc7e04c184b82ff59"
      ],
      "is_coinbase": false,
      "sequence": 4294967293
    }
  ],
  "vout": [
    {
      "scriptpubkey": "00149727207d1633c81474b4bc509f7bf339f526796e",
      "scriptpubkey_asm": "OP_0 OP_PUSHBYTES_20 9727207d1633c81474b4bc509f7bf339f526796e",
      "scriptpubkey_type": "v0_p2wpkh",
      "scriptpubkey_address": "bc1qjunjqlgkx0ypga95h3gf77ln886jv7tw89zvdz",
      "value": 760000
    },
    {
      "scriptpubkey": "0014dcddd72a0c51dc6e36019074247351dafea5d10c",
      "scriptpubkey_asm": "OP_0 OP_PUSHBYTES_20 dcddd72a0c51dc6e36019074247351dafea5d10c",
      "scriptpubkey_type": "v0_p2wpkh",
      "scriptpubkey_address": "bc1qmnwaw2sv28wxudspjp6zgu63mtl2t5gvx4e68e",
      "value": 1077011
    }
  ],
  "size": 222,
  "weight": 561,
  "fee": 3833,
  "status": {
    "confirmed": true,
    "block_height": 834638,
    "block_hash": "000000000000000000025f742c626208ac87e0b7d15054abb4a19ca2d735a54e",
    "block_time": 1710405325
  },
  "hex": "01000000000101208c5ec9da83e4adbc8e2b1e5102eca6bc4aec39e0d0613fddd3ef360f1b0bf50000000000fdffffff02c0980b00000000001600149727207d1633c81474b4bc509f7bf339f526796e136f100000000000160014dcddd72a0c51dc6e36019074247351dafea5d10c0247304402205fdc733d47784bf4e7ea8bcb22a7207db4286d93ff8ad1cede885d7f17ac839702207b86f7309e5157fdf5c43179282c7cef797d4fe1b1874f790dd92419a1ccee590121030f3ec54da4d5f5ed14713eef535cfcc57599ef7a32756cedc7e04c184b82ff594dbc0c00"
}