{
  "txid": "e7bf7acbc5660c6c536de5420c69f61c47390046cface36c0b2fead9e5758aec",
  "version": 2,
  "locktime": 0,
  "vin": [
    {
      "txid": "10611b92c750d44ff351bad6f2cbbbcc863c51306304b3f77495882c423a4510",
      "vout": 1,
      "prevout": {
        "scriptpubkey": "001439b964e5595a2558bca5791ec5f31b72d0d1bbbf",
        "scriptpubkey_asm": "OP_0 OP_PUSHBYTES_20 39b964e5595a2558bca5791ec5f31b72d0d1bbbf",
        "scriptpubkey_type": "v0_p2wpkh",
        "scriptpubkey_address": "bc1q8xukfe2etgj430990y0vtucmwtgdrwalx24wlj",
        "value": 307351
      },
      "scriptsig": "",
      "scriptsig_asm": "",
      "witness": [
        "3045022100802ba409602ad26c5e72815cfd9717da4dc1414900d1e14455f4c44161caacc602204ee43d1657e309a68be3b5be55814faa80c9494451d428fe77a63c44c4f6254a01",
        "03cd9a9a474037b775ad2918f1567487bd46748016b66c13d8b39ca12e53355759"
      ],
      "is_coinbase": false,
      "sequence": 4294967295
    }
  ],
  "vout": [
    {
      "scriptpubkey": "00140b9715f12bdeff00b828ba9ffe50c368c197e6eb",
      "scriptpubkey_asm": "OP_0 OP_PUSHBYTES_20 0b9715f12bdeff00b828ba9ffe50c368c197e6eb",
      "scriptpubkey_type": "v0_p2wpkh",
      "scriptpubkey_address": "bc1qpwt3tuftmmlspwpgh20lu5xrdrqe0ehtpxw7mg",
      "value": 23939
    },
    {
      "scriptpubkey": "0014cd4f732c7ebd7d668454c6d6604de9720cd14e3a",
      "scriptpubkey_asm": "OP_0 OP_PUSHBYTES_20 cd4f732c7ebd7d668454c6d6604de9720cd14e3a",
      "scriptpubkey_type": "v0_p2wpkh",
      "scriptpubkey_address": "bc1qe48hxtr7h47kdpz5cmtxqn0fwgxdzn36gqxwyx",
      "value": 281874
    }
  ],
  "size": 223,
  "weight": 562,
  "fee": 1538,
  "status": {
    "confirmed": true,
    "block_height": 834464,
    "block_hash": "0000000000000000000177a0869a911a2b65c9bdcd5a8bcb02b68f305bee848e",
    "block_time": 1710308296
  },
  "hex": "0200000000010110453a422c889574f7b3046330513c86ccbbcbf2d6ba51f34fd450c7921b61100100000000ffffffff02835d0000000000001600140b9715f12bdeff00b828ba9ffe50c368c197e6eb124d040000000000160014cd4f732c7ebd7d668454c6d6604de9720cd14e3a02483045022100802ba409602ad26c5e72815cfd9717da4dc1414900d1e14455f4c44161caacc602204ee43d1657e309a68be3b5be55814faa80c9494451d428fe77a63c44c4f6254a012103cd9a9a474037b775ad2918f1567487bd46748016b66c13d8b39ca12e5335575900000000"
}