{
  "txid": "e7cf4cf38ff099de63b7ddd97ed77fefd48703a11b18dee3ea145bc774e8b9c5",
  "version": 1,
  "locktime": 0,
  "vin": [
    {
      "txid": "3cbcbf14be745a3094dbdf5248740f1a095da9b4172821de1ff8897d3a804d88",
      "vout": 1,
      "prevout": {
        "scriptpubkey": "51209d6dbbf9bad17d0135e06ea56ec304df985f9f9bc809fa52ae6789a0947e0300",
        "scriptpubkey_asm": "OP_PUSHNUM_1 OP_PUSHBYTES_32 9d6dbbf9bad17d0135e06ea56ec304df985f9f9bc809fa52ae6789a0947e0300",
        "scriptpubkey_type": "v1_p2tr",
        "scriptpubkey_address": "bc1pn4kmh7d6697szd0qd6jkascym7v9l8umeqyl554wv7y6p9r7qvqquzkndh",
        "value": 371593
      },
      "scriptsig": "",
      "scriptsig_asm": "",
      "witness": [
        "3696cd0db393e00ba8c2cdd78c22191ed53635a073416bc4c2481cd2914c2e0817da970aa7de9633db997a40871ce27e717c95b88a2a7340c0ff6d3148825f87"
      ],
      "is_coinbase": false,
      "sequence": 0
    }
  ],
  "vout": [
    {
      "scriptpubkey": "5120e715f2fe81c3f045a353bfd6b6165e723da41a56709e01eadff2fd8304da09a8",
      "scriptpubkey_asm": "OP_PUSHNUM_1 OP_PUSHBYTES_32 e715f2fe81c3f045a353bfd6b6165e723da41a56709e01eadff2fd8304da09a8",
      "scriptpubkey_type": "v1_p2tr",
      "scriptpubkey_address": "bc1puu2l9l5pc0cytg6nhlttv9j7wg76gxjkwz0qr6kl7t7cxpx6px5qank294",
      "value": 2710
    },
    {
      "scriptpubkey": "51209d6dbbf9bad17d0135e06ea56ec304df985f9f9bc809fa52ae6789a0947e0300",
      "scriptpubkey_asm": "OP_PUSHNUM_1 OP_PUSHBYTES_32 9d6dbbf9bad17d0135e06ea56ec304df985f9f9bc809fa52ae6789a0947e0300",
      "scriptpubkey_type": "v1_p2tr",
      "scriptpubkey_address": "bc1pn4kmh7d6697szd0qd6jkascym7v9l8umeqyl554wv7y6p9r7qvqquzkndh",
      "value": 367035
    }
  ],
  "size": 205,
  "weight": 616,
  "fee": 1848,
  "status": {
    "confirmed": true,
    "block_height": 834460,
    "block_hash": "00000000000000000000484a79b643b2524bbce82e5d8a442013fa5b8905ed98",
    "block_time": 1710307468
  },
  "hex": "01000000000101884d803a7d89f81fde212817b4a95d091a0f744852dfdb94305a74be14bfbc3c01000000000000000002960a000000000000225120e715f2fe81c3f045a353bfd6b6165e723da41a56709e01eadff2fd8304da09a8bb990500000000002251209d6dbbf9bad17d0135e06ea56ec304df985f9f9bc809fa52ae6789a0947e030001403696cd0db393e00ba8c2cdd78c22191ed53635a073416bc4c2481cd2914c2e0817da970aa7de9633db997a40871ce27e717c95b88a2a7340c0ff6d3148825f8700000000"
}