{
  "txid": "e7d4b67dfbf18e54c3371c8d01d724653d0d898132ced1a7eb20076d94da667b",
  "version": 1,
  "locktime": 0,
  "vin": [
    {
      "txid": "813047cf7a50e0897c65425fad4567a3878b117e1134cc7f97428dd0dbd36451",
      "vout": 5,
      "prevout": {
        "scriptpubkey": "0014ea469c3758b2a2a9f47f9b8d46cfaba400b1c01d",
        "scriptpubkey_asm": "OP_0 OP_PUSHBYTES_20 ea469c3758b2a2a9f47f9b8d46cfaba400b1c01d",
        "scriptpubkey_type": "v0_p2wpkh",
        "scriptpubkey_address": "bc1qafrfcd6ck232narlnwx5dnat5sqtrsqasfw5h7",
        "value": 4526887
      },
      "scriptsig": "",
      "scriptsig_asm": "",
      "witness": [
        "304402204bf4f853af3734b672f1a15711c80fcbda93c21e0dd384d584a6aee805974bbb02200186b65529b31709d32760ae8f3c1ebbee49a581217d560e9ff9a0c5d8aef79a01",
        "021f2419d6357fff7b51953c4bc03040c09cc404e9e4004baf2cc34c0b6f18935e"
      ],
      "is_coinbase": false,
      "sequence": 4294967295
    },
    {
      "txid": "20f2d99253d00d9cc1053d95279c4986f9374ff841562609296a09b91fd1755e",
      "vout": 2,
      "prevout": {
        "scriptpubkey": "0014ea469c3758b2a2a9f47f9b8d46cfaba400b1c01d",
        "scriptpubkey_asm": "OP_0 OP_PUSHBYTES_20 ea469c3758b2a2a9f47f9b8d46cfaba400b1c01d",
        "scriptpubkey_type": "v0_p2wpkh",
        "scriptpubkey_address": "bc1qafrfcd6ck232narlnwx5dnat5sqtrsqasfw5h7",
        "value": 116012
      },
      "scriptsig": "",
      "scriptsig_asm": "",
      "witness": [
        "30450221008268a34fc97f9e181b74cda85f9e62121072d1ea0cd41e2e497d7253e37382a3022025041c53152070b452d5ec02569eee9b21c9944d7f47545b5b3904383afd02d401",
        "021f2419d6357fff7b51953c4bc03040c09cc404e9e4004baf2cc34c0b6f18935e"
      ],
      "is_coinbase": false,
      "sequence": 4294967295
    },
    {
      "txid": "646ed240d250ecf29d6c57827ee32f920a228334a8708e98fcb0fd97bb23cf26",
      "vout": 1,
      "prevout": {
        "scriptpubkey": "0014ea469c3758b2a2a9f47f9b8d46cfaba400b1c01d",
        "scriptpubkey_asm": "OP_0 OP_PUSHBYTES_20 ea469c3758b2a2a9f47f9b8d46cfaba400b1c01d",
        "scriptpubkey_type": "v0_p2wpkh",
        "scriptpubkey_address": "bc1qafrfcd6ck232narlnwx5dnat5sqtrsqasfw5h7",
        "value": 35220213
      },
      "scriptsig": "",
      "scriptsig_asm": "",
      "witness": [
        "3045022100c600a3580e753b359acfc7e02048d27ced013ca01660febc555a6c5c6262321d022061ba70ec57bd38f587587551595ace0834bb69f21c1315ab58293d58310857e001",
        "021f2419d6357fff7b51953c4bc03040c09cc404e9e4004baf2cc34c0b6f18935e"
      ],
      "is_coinbase": false,
      "sequence": 4294967295
    }
  ],
  "vout": [
    {
      "scriptpubkey": "76a9145c6c4dd1ba8607d3aa303fb457098a7f029d986988ac",
      "scriptpubkey_asm": "OP_DUP OP_HASH160 OP_PUSHBYTES_20 5c6c4dd1ba8607d3aa303fb457098a7f029d9869 OP_EQUALVERIFY OP_CHECKSIG",
      "scriptpubkey_type": "p2pkh",
      "scriptpubkey_address": "19RgujyZymuN42iVDzSLpVxjDXiVkMBd4o",
      "value": 39856389
    }
  ],
  "size": 492,
  "weight": 993,
  "fee": 6723,
  "status": {
    "confirmed": true,
    "block_height": 834638,
    "block_hash": "000000000000000000025f742c626208ac87e0b7d15054abb4a19ca2d735a54e",
    "block_time": 1710405325
  },
  "hex": "010000000001035164d3dbd08d42977fcc34117e118b87a36745ad5f42657c89e0507acf4730810500000000ffffffff5e75d11fb9096a2909265641f84f37f986499c27953d05c19c0dd05392d9f2200200000000ffffffff26cf23bb97fdb0fc988e70a83483220a922fe37e82576c9df2ec50d240d26e640100000000ffffffff0105296002000000001976a9145c6c4dd1ba8607d3aa303fb457098a7f029d986988ac0247304402204bf4f853af3734b672f1a15711c80fcbda93c21e0dd384d584a6aee805974bbb02200186b65529b31709d32760ae8f3c1ebbee49a581217d560e9ff9a0c5d8aef79a0121021f2419d6357fff7b51953c4bc03040c09cc404e9e4004baf2cc34c0b6f18935e024830450221008268a34fc97f9e181b74cda85f9e62121072d1ea0cd41e2e497d7253e37382a3022025041c53152070b452d5ec02569eee9b21c9944d7f47545b5b3904383afd02d40121021f2419d6357fff7b51953c4bc03040c09cc404e9e4004baf2cc34c0b6f18935e02483045022100c600a3580e753b359acfc7e02048d27ced013ca01660febc555a6c5c6262321d022061ba70ec57bd38f587587551595ace0834bb69f21c1315ab58293d58310857e00121021f2419d6357fff7b51953c4bc03040c09cc404e9e4004baf2cc34c0b6f18935e00000000"
}