{
  "txid": "e7d60a722a19dfde71d86727ab8208ad8f3cb0c9596e981950d04cc94d309242",
  "version": 2,
  "locktime": 0,
  "vin": [
    {
      "txid": "3c5ee73c05ad97c3b3de5f1fd6e9d6cb7830ef363e0a410242d00f7580945e7c",
      "vout": 0,
      "prevout": {
        "scriptpubkey": "0020a7568610804dc15d27f1dd2d27a01da63bb96fe3b7e40fab8c26c3c8eab7c8bb",
        "scriptpubkey_asm": "OP_0 OP_PUSHBYTES_32 a7568610804dc15d27f1dd2d27a01da63bb96fe3b7e40fab8c26c3c8eab7c8bb",
        "scriptpubkey_type": "v0_p2wsh",
        "scriptpubkey_address": "bc1q5atgvyyqfhq46fl3m5kj0gqa5camjmlrkljql2uvympu364hezasjsu77t",
        "value": 20202323
      },
      "scriptsig": "",
      "scriptsig_asm": "",
      "witness": [
        "",
        "3045022100e17935c7c925a95b917df096f25d6f885b233a3091c7df401e484d5c7d509dda022063c02261f3c5ddf276c3b5d4649fb25feb7fd89580b5811cbc43ca72bdd1f49901",
        "3045022100df29a8f797a7b08eb5242e1bcba777e8886b751e558123151c9e3c3e5e979d7e0220284f46b63014c0e07df85f64e6448acf1e17c648a9f5aa011fff23f197e3120601",
        "52210296e6feb3c788cbbe99fa2d5f511dc15d2a7c10942e22974e1443a8af10b2e7a52102fd4d000563ffa73916a342edf20209de1e730a3d56889fb577b54dca33f796c452ae"
      ],
      "is_coinbase": false,
      "sequence": 4294967295,
      "inner_witnessscript_asm": "OP_PUSHNUM_2 OP_PUSHBYTES_33 0296e6feb3c788cbbe99fa2d5f511dc15d2a7c10942e22974e1443a8af10b2e7a5 OP_PUSHBYTES_33 02fd4d000563ffa73916a342edf20209de1e730a3d56889fb577b54dca33f796c4 OP_PUSHNUM_2 OP_CHECKMULTISIG"
    }
  ],
  "vout": [
    {
      "scriptpubkey": "0014bd0fc534557d1b8ad145b1b1cf929d74bf3f264d",
      "scriptpubkey_asm": "OP_0 OP_PUSHBYTES_20 bd0fc534557d1b8ad145b1b1cf929d74bf3f264d",
      "scriptpubkey_type": "v0_p2wpkh",
      "scriptpubkey_address": "bc1qh58u2dz405dc4529kxculy5awjln7fjdx3w7nj",
      "value": 218793
    },
    {
      "scriptpubkey": "001449fbe147b1f401798afa5697659940e17facfc45",
      "scriptpubkey_asm": "OP_0 OP_PUSHBYTES_20 49fbe147b1f401798afa5697659940e17facfc45",
      "scriptpubkey_type": "v0_p2wpkh",
      "scriptpubkey_address": "bc1qf8a7z3a37sqhnzh626tktx2qu9l6elz9sc2lem",
      "value": 19981673
    }
  ],
  "size": 335,
  "weight": 674,
  "fee": 1857,
  "status": {
    "confirmed": true,
    "block_height": 834464,
    "block_hash": "0000000000000000000177a0869a911a2b65c9bdcd5a8bcb02b68f305bee848e",
    "block_time": 1710308296
  },
  "hex": "020000000001017c5e9480750fd04202410a3e36ef3078cbd6e9d61f5fdeb3c397ad053ce75e3c0000000000ffffffff02a956030000000000160014bd0fc534557d1b8ad145b1b1cf929d74bf3f264d69e530010000000016001449fbe147b1f401798afa5697659940e17facfc450400483045022100e17935c7c925a95b917df096f25d6f885b233a3091c7df401e484d5c7d509dda022063c02261f3c5ddf276c3b5d4649fb25feb7fd89580b5811cbc43ca72bdd1f49901483045022100df29a8f797a7b08eb5242e1bcba777e8886b751e558123151c9e3c3e5e979d7e0220284f46b63014c0e07df85f64e6448acf1e17c648a9f5aa011fff23f197e31206014752210296e6feb3c788cbbe99fa2d5f511dc15d2a7c10942e22974e1443a8af10b2e7a52102fd4d000563ffa73916a342edf20209de1e730a3d56889fb577b54dca33f796c452ae00000000"
}