{
  "txid": "e7dc61bbbd052464c6445e53ed94ae16153ca782b23af58e24c143b6d478b54e",
  "version": 2,
  "locktime": 0,
  "vin": [
    {
      "txid": "4ead1c5ffe02e4d45ea88c27fd5bde9455692d8600f0c4691ffd8131da7c7e71",
      "vout": 1,
      "prevout": {
        "scriptpubkey": "512099785cec106a4f53b5f0128152c8e600a984aced525a64135c355833e2a847ab",
        "scriptpubkey_asm": "OP_PUSHNUM_1 OP_PUSHBYTES_32 99785cec106a4f53b5f0128152c8e600a984aced525a64135c355833e2a847ab",
        "scriptpubkey_type": "v1_p2tr",
        "scriptpubkey_address": "bc1pn9u9emqsdf848d0sz2q49j8xqz5cft8d2fdxgy6ux4vr8c4gg74sfxnkua",
        "value": 142707
      },
      "scriptsig": "",
      "scriptsig_asm": "",
      "witness": [
        "2bfa06734d908097ae1941125aa706b550c584b981a1f18932ba701e38d987d465a8883a145477d9c925fff23049cfbad14220e6f09d96e56b9dad9f864afbe5"
      ],
      "is_coinbase": false,
      "sequence": 2147483649
    }
  ],
  "vout": [
    {
      "scriptpubkey": "001439b8b633de1f67ed54d00dab15f426d884a314b9",
      "scriptpubkey_asm": "OP_0 OP_PUSHBYTES_20 39b8b633de1f67ed54d00dab15f426d884a314b9",
      "scriptpubkey_type": "v0_p2wpkh",
      "scriptpubkey_address": "bc1q8xutvv77ran764xspk43tapxmzz2x99eax6vg5",
      "value": 50000
    },
    {
      "scriptpubkey": "512099785cec106a4f53b5f0128152c8e600a984aced525a64135c355833e2a847ab",
      "scriptpubkey_asm": "OP_PUSHNUM_1 OP_PUSHBYTES_32 99785cec106a4f53b5f0128152c8e600a984aced525a64135c355833e2a847ab",
      "scriptpubkey_type": "v1_p2tr",
      "scriptpubkey_address": "bc1pn9u9emqsdf848d0sz2q49j8xqz5cft8d2fdxgy6ux4vr8c4gg74sfxnkua",
      "value": 90435
    }
  ],
  "size": 193,
  "weight": 568,
  "fee": 2272,
  "status": {
    "confirmed": true,
    "block_height": 834638,
    "block_hash": "000000000000000000025f742c626208ac87e0b7d15054abb4a19ca2d735a54e",
    "block_time": 1710405325
  },
  "hex": "02000000000101717e7cda3181fd1f69c4f000862d695594de5bfd278ca85ed4e402fe5f1cad4e0100000000010000800250c300000000000016001439b8b633de1f67ed54d00dab15f426d884a314b9436101000000000022512099785cec106a4f53b5f0128152c8e600a984aced525a64135c355833e2a847ab01402bfa06734d908097ae1941125aa706b550c584b981a1f18932ba701e38d987d465a8883a145477d9c925fff23049cfbad14220e6f09d96e56b9dad9f864afbe500000000"
}