{
  "txid": "e7deb5cfbae743d68bc230350e0075d5b309605343d3b16e0f8b84b52e98ea28",
  "version": 2,
  "locktime": 834637,
  "vin": [
    {
      "txid": "f0b202b25b63b3c3a8a65524710423d0287cfbf52dae58ef2005c9e914dc9798",
      "vout": 2,
      "prevout": {
        "scriptpubkey": "0014491ac6deaebe4dc0485a395b635e2fb643a18c2c",
        "scriptpubkey_asm": "OP_0 OP_PUSHBYTES_20 491ac6deaebe4dc0485a395b635e2fb643a18c2c",
        "scriptpubkey_type": "v0_p2wpkh",
        "scriptpubkey_address": "bc1qfydvdh4whexuqjz689dkxh30kep6rrpvs8fm38",
        "value": 1300000
      },
      "scriptsig": "",
      "scriptsig_asm": "",
      "witness": [
        "304402202114f64d48729514f42bd70b7516331ab0adb45ccda43e1c8a7f1e6ad155a838022031424b921d0d3c70697328fcb327569a9f2432cc847dd7067ea2678f228f4d1401",
        "02e14fcaa60ad3c26056a5a14798bd954dc69c17a02c18aa982c2a0b29f7377510"
      ],
      "is_coinbase": false,
      "sequence": 4294967293
    }
  ],
  "vout": [
    {
      "scriptpubkey": "0014764352192cccddbe8b55e386bc25095ffccf469b",
      "scriptpubkey_asm": "OP_0 OP_PUSHBYTES_20 764352192cccddbe8b55e386bc25095ffccf469b",
      "scriptpubkey_type": "v0_p2wpkh",
      "scriptpubkey_address": "bc1qwep4yxfvenwmaz64uwrtcfgftl7v735mx74zmr",
      "value": 447031
    },
    {
      "scriptpubkey": "0014ff855303c6dc3f2a82fbc3345bc117afc254d3f8",
      "scriptpubkey_asm": "OP_0 OP_PUSHBYTES_20 ff855303c6dc3f2a82fbc3345bc117afc254d3f8",
      "scriptpubkey_type": "v0_p2wpkh",
      "scriptpubkey_address": "bc1ql7z4xq7xmslj4qhmcv69hsgh4lp9f5lc252328",
      "value": 848739
    }
  ],
  "size": 222,
  "weight": 561,
  "fee": 4230,
  "status": {
    "confirmed": true,
    "block_height": 834638,
    "block_hash": "000000000000000000025f742c626208ac87e0b7d15054abb4a19ca2d735a54e",
    "block_time": 1710405325
  },
  "hex": "020000000001019897dc14e9c90520ef58ae2df5fb7c28d02304712455a6a8c3b3635bb202b2f00200000000fdffffff0237d2060000000000160014764352192cccddbe8b55e386bc25095ffccf469b63f30c0000000000160014ff855303c6dc3f2a82fbc3345bc117afc254d3f80247304402202114f64d48729514f42bd70b7516331ab0adb45ccda43e1c8a7f1e6ad155a838022031424b921d0d3c70697328fcb327569a9f2432cc847dd7067ea2678f228f4d14012102e14fcaa60ad3c26056a5a14798bd954dc69c17a02c18aa982c2a0b29f73775104dbc0c00"
}