{
  "txid": "e7e3c6160851e8b7bbac99ca699cea7858093ad4643a33d75ae8faf91f835bd7",
  "version": 2,
  "locktime": 0,
  "vin": [
    {
      "txid": "9ddf316d6a44fe08e8e443a22cabc09d91c5763b932982fce0d6234194e14b40",
      "vout": 1,
      "prevout": {
        "scriptpubkey": "0014f2505fbdf3d74d72277383bec4c17eb87fdafa55",
        "scriptpubkey_asm": "OP_0 OP_PUSHBYTES_20 f2505fbdf3d74d72277383bec4c17eb87fdafa55",
        "scriptpubkey_type": "v0_p2wpkh",
        "scriptpubkey_address": "bc1q7fg9l00n6axhyfmnswlvfst7hpla47j4ntmyr6",
        "value": 2239420
      },
      "scriptsig": "",
      "scriptsig_asm": "",
      "witness": [
        "3045022100dc1bafd31e9ddc550c996153cb05f1a7f5fa6081a2600cc09d1b333f1784f435022002b88f9792c361947a7a3ef724a17ec956a93368683da83e47ec8b69e019fdf701",
        "0343f58f7822ce88ab5fd2c9174684419f22a4f4fc330180aa7d90c1e828d89a9a"
      ],
      "is_coinbase": false,
      "sequence": 4294967295
    }
  ],
  "vout": [
    {
      "scriptpubkey": "001469b1b0fd6d1fa367795b3a8ccdce9c5979442c05",
      "scriptpubkey_asm": "OP_0 OP_PUSHBYTES_20 69b1b0fd6d1fa367795b3a8ccdce9c5979442c05",
      "scriptpubkey_type": "v0_p2wpkh",
      "scriptpubkey_address": "bc1qdxcmpltdr73kw72m82xvmn5ut9u5gtq92kkd9v",
      "value": 653146
    },
    {
      "scriptpubkey": "0014f7e4b2c8203cb21c9113600f83778043a89b50ed",
      "scriptpubkey_asm": "OP_0 OP_PUSHBYTES_20 f7e4b2c8203cb21c9113600f83778043a89b50ed",
      "scriptpubkey_type": "v0_p2wpkh",
      "scriptpubkey_address": "bc1q7ljt9jpq8jepeygnvq8cxauqgw5fk58dld75p9",
      "value": 1582640
    }
  ],
  "size": 223,
  "weight": 562,
  "fee": 3634,
  "status": {
    "confirmed": true,
    "block_height": 834638,
    "block_hash": "000000000000000000025f742c626208ac87e0b7d15054abb4a19ca2d735a54e",
    "block_time": 1710405325
  },
  "hex": "02000000000101404be1944123d6e0fc8229933b76c5919dc0ab2ca243e4e808fe446a6d31df9d0100000000ffffffff025af709000000000016001469b1b0fd6d1fa367795b3a8ccdce9c5979442c053026180000000000160014f7e4b2c8203cb21c9113600f83778043a89b50ed02483045022100dc1bafd31e9ddc550c996153cb05f1a7f5fa6081a2600cc09d1b333f1784f435022002b88f9792c361947a7a3ef724a17ec956a93368683da83e47ec8b69e019fdf701210343f58f7822ce88ab5fd2c9174684419f22a4f4fc330180aa7d90c1e828d89a9a00000000"
}