{
  "txid": "e7fef00187178f880b6b258d9cf24d4ea626ff8722b33beaad11d4c7fb95abdf",
  "version": 2,
  "locktime": 0,
  "vin": [
    {
      "txid": "f8dfab5ffe986f8b46b2ed8e78eedb0bfdb96b4a3d226c5478e62e63f4671265",
      "vout": 2,
      "prevout": {
        "scriptpubkey": "5120491806c7b5d7420b77cf7940a0d089de6885d1f6eae8ac71ff11f08d7834e202",
        "scriptpubkey_asm": "OP_PUSHNUM_1 OP_PUSHBYTES_32 491806c7b5d7420b77cf7940a0d089de6885d1f6eae8ac71ff11f08d7834e202",
        "scriptpubkey_type": "v1_p2tr",
        "scriptpubkey_address": "bc1pfyvqd3a46apqka7009q2p5yfme5gt50kat52cu0lz8cg67p5ugpqae2wg0",
        "value": 600
      },
      "scriptsig": "",
      "scriptsig_asm": "",
      "witness": [
        "d4326351ff39a36a6ebdc25e834fecb8c03f3728d8c77b53ef01c9d3c2f4282f6328226da27e63c6a2a1267f10d434192e2cb3f4535ccb4d514c028c4c4580b5"
      ],
      "is_coinbase": false,
      "sequence": 4294967295
    },
    {
      "txid": "f8dfab5ffe986f8b46b2ed8e78eedb0bfdb96b4a3d226c5478e62e63f4671265",
      "vout": 6,
      "prevout": {
        "scriptpubkey": "5120491806c7b5d7420b77cf7940a0d089de6885d1f6eae8ac71ff11f08d7834e202",
        "scriptpubkey_asm": "OP_PUSHNUM_1 OP_PUSHBYTES_32 491806c7b5d7420b77cf7940a0d089de6885d1f6eae8ac71ff11f08d7834e202",
        "scriptpubkey_type": "v1_p2tr",
        "scriptpubkey_address": "bc1pfyvqd3a46apqka7009q2p5yfme5gt50kat52cu0lz8cg67p5ugpqae2wg0",
        "value": 600
      },
      "scriptsig": "",
      "scriptsig_asm": "",
      "witness": [
        "9153f0591700f66db79a6e718e7a89d02c28d843381caa3812ceada65147e8bcd952d75c8b1f20cea936dec4b629e6b282fdba755a0eba695227e70a465718af"
      ],
      "is_coinbase": false,
      "sequence": 4294967295
    },
    {
      "txid": "b610b19c69bb2512f2785494678d9544a6c1495ac3072671e4eb28a9c3ef8535",
      "vout": 1,
      "prevout": {
        "scriptpubkey": "5120a9691fc901dd81307f7f16f475e5d01f4deee117440966e2570605f6a4f6801a",
        "scriptpubkey_asm": "OP_PUSHNUM_1 OP_PUSHBYTES_32 a9691fc901dd81307f7f16f475e5d01f4deee117440966e2570605f6a4f6801a",
        "scriptpubkey_type": "v1_p2tr",
        "scriptpubkey_address": "bc1p4953ljgpmkqnqlmlzm68tewsrax7acghgsykdcjhqczldf8ksqdqena0dz",
        "value": 10000
      },
      "scriptsig": "",
      "scriptsig_asm": "",
      "witness": [
        "3ad2a3891fb71138f14bb4ff7970479a52df8da518f56781f2d9070fe7c4c8236bbd39989f5f689d12f86b4a47ae0c50eef100a83d9c5fdf189187f80c3cd5e783"
      ],
      "is_coinbase": false,
      "sequence": 4294967295
    },
    {
      "txid": "f8dfab5ffe986f8b46b2ed8e78eedb0bfdb96b4a3d226c5478e62e63f4671265",
      "vout": 10,
      "prevout": {
        "scriptpubkey": "5120491806c7b5d7420b77cf7940a0d089de6885d1f6eae8ac71ff11f08d7834e202",
        "scriptpubkey_asm": "OP_PUSHNUM_1 OP_PUSHBYTES_32 491806c7b5d7420b77cf7940a0d089de6885d1f6eae8ac71ff11f08d7834e202",
        "scriptpubkey_type": "v1_p2tr",
        "scriptpubkey_address": "bc1pfyvqd3a46apqka7009q2p5yfme5gt50kat52cu0lz8cg67p5ugpqae2wg0",
        "value": 666954
      },
      "scriptsig": "",
      "scriptsig_asm": "",
      "witness": [
        "c0fac43dfbd8e4f74cea0b5ef77fb7cf273fc6ddf894a3328428b8cac93ea17459ec18820c3214d14493b6c84dd6710145ab2d6ab68fc096473a9a241d9771f0"
      ],
      "is_coinbase": false,
      "sequence": 4294967295
    }
  ],
  "vout": [
    {
      "scriptpubkey": "5120491806c7b5d7420b77cf7940a0d089de6885d1f6eae8ac71ff11f08d7834e202",
      "scriptpubkey_asm": "OP_PUSHNUM_1 OP_PUSHBYTES_32 491806c7b5d7420b77cf7940a0d089de6885d1f6eae8ac71ff11f08d7834e202",
      "scriptpubkey_type": "v1_p2tr",
      "scriptpubkey_address": "bc1pfyvqd3a46apqka7009q2p5yfme5gt50kat52cu0lz8cg67p5ugpqae2wg0",
      "value": 1200
    },
    {
      "scriptpubkey": "5120491806c7b5d7420b77cf7940a0d089de6885d1f6eae8ac71ff11f08d7834e202",
      "scriptpubkey_asm": "OP_PUSHNUM_1 OP_PUSHBYTES_32 491806c7b5d7420b77cf7940a0d089de6885d1f6eae8ac71ff11f08d7834e202",
      "scriptpubkey_type": "v1_p2tr",
      "scriptpubkey_address": "bc1pfyvqd3a46apqka7009q2p5yfme5gt50kat52cu0lz8cg67p5ugpqae2wg0",
      "value": 10000
    },
    {
      "scriptpubkey": "5120a9691fc901dd81307f7f16f475e5d01f4deee117440966e2570605f6a4f6801a",
      "scriptpubkey_asm": "OP_PUSHNUM_1 OP_PUSHBYTES_32 a9691fc901dd81307f7f16f475e5d01f4deee117440966e2570605f6a4f6801a",
      "scriptpubkey_type": "v1_p2tr",
      "scriptpubkey_address": "bc1p4953ljgpmkqnqlmlzm68tewsrax7acghgsykdcjhqczldf8ksqdqena0dz",
      "value": 597050
    },
    {
      "scriptpubkey": "a914ea6b832a05c6ca578baa3836f3f25553d41068a587",
      "scriptpubkey_asm": "OP_HASH160 OP_PUSHBYTES_20 ea6b832a05c6ca578baa3836f3f25553d41068a5 OP_EQUAL",
      "scriptpubkey_type": "p2sh",
      "scriptpubkey_address": "3P4WqXDbSLRhzo2H6MT6YFbvBKBDPLbVtQ",
      "value": 14750
    },
    {
      "scriptpubkey": "5120491806c7b5d7420b77cf7940a0d089de6885d1f6eae8ac71ff11f08d7834e202",
      "scriptpubkey_asm": "OP_PUSHNUM_1 OP_PUSHBYTES_32 491806c7b5d7420b77cf7940a0d089de6885d1f6eae8ac71ff11f08d7834e202",
      "scriptpubkey_type": "v1_p2tr",
      "scriptpubkey_address": "bc1pfyvqd3a46apqka7009q2p5yfme5gt50kat52cu0lz8cg67p5ugpqae2wg0",
      "value": 600
    },
    {
      "scriptpubkey": "5120491806c7b5d7420b77cf7940a0d089de6885d1f6eae8ac71ff11f08d7834e202",
      "scriptpubkey_asm": "OP_PUSHNUM_1 OP_PUSHBYTES_32 491806c7b5d7420b77cf7940a0d089de6885d1f6eae8ac71ff11f08d7834e202",
      "scriptpubkey_type": "v1_p2tr",
      "scriptpubkey_address": "bc1pfyvqd3a46apqka7009q2p5yfme5gt50kat52cu0lz8cg67p5ugpqae2wg0",
      "value": 600
    },
    {
      "scriptpubkey": "5120491806c7b5d7420b77cf7940a0d089de6885d1f6eae8ac71ff11f08d7834e202",
      "scriptpubkey_asm": "OP_PUSHNUM_1 OP_PUSHBYTES_32 491806c7b5d7420b77cf7940a0d089de6885d1f6eae8ac71ff11f08d7834e202",
      "scriptpubkey_type": "v1_p2tr",
      "scriptpubkey_address": "bc1pfyvqd3a46apqka7009q2p5yfme5gt50kat52cu0lz8cg67p5ugpqae2wg0",
      "value": 44910
    }
  ],
  "size": 731,
  "weight": 2123,
  "fee": 9044,
  "status": {
    "confirmed": true,
    "block_height": 834638,
    "block_hash": "000000000000000000025f742c626208ac87e0b7d15054abb4a19ca2d735a54e",
    "block_time": 1710405325
  },
  "hex": "02000000000104651267f4632ee678546c223d4a6bb9fd0bdbee788eedb2468b6f98fe5fabdff80200000000ffffffff651267f4632ee678546c223d4a6bb9fd0bdbee788eedb2468b6f98fe5fabdff80600000000ffffffff3585efc3a928ebe4712607c35a49c1a644958d67945478f21225bb699cb110b60100000000ffffffff651267f4632ee678546c223d4a6bb9fd0bdbee788eedb2468b6f98fe5fabdff80a00000000ffffffff07b004000000000000225120491806c7b5d7420b77cf7940a0d089de6885d1f6eae8ac71ff11f08d7834e2021027000000000000225120491806c7b5d7420b77cf7940a0d089de6885d1f6eae8ac71ff11f08d7834e2023a1c090000000000225120a9691fc901dd81307f7f16f475e5d01f4deee117440966e2570605f6a4f6801a9e3900000000000017a914ea6b832a05c6ca578baa3836f3f25553d41068a5875802000000000000225120491806c7b5d7420b77cf7940a0d089de6885d1f6eae8ac71ff11f08d7834e2025802000000000000225120491806c7b5d7420b77cf7940a0d089de6885d1f6eae8ac71ff11f08d7834e2026eaf000000000000225120491806c7b5d7420b77cf7940a0d089de6885d1f6eae8ac71ff11f08d7834e2020140d4326351ff39a36a6ebdc25e834fecb8c03f3728d8c77b53ef01c9d3c2f4282f6328226da27e63c6a2a1267f10d434192e2cb3f4535ccb4d514c028c4c4580b501409153f0591700f66db79a6e718e7a89d02c28d843381caa3812ceada65147e8bcd952d75c8b1f20cea936dec4b629e6b282fdba755a0eba695227e70a465718af01413ad2a3891fb71138f14bb4ff7970479a52df8da518f56781f2d9070fe7c4c8236bbd39989f5f689d12f86b4a47ae0c50eef100a83d9c5fdf189187f80c3cd5e7830140c0fac43dfbd8e4f74cea0b5ef77fb7cf273fc6ddf894a3328428b8cac93ea17459ec18820c3214d14493b6c84dd6710145ab2d6ab68fc096473a9a241d9771f000000000"
}