{
  "txid": "e804db92ce9e9b3ab55b0baa9190ebfd73156d970111fc592e90cb76282d5486",
  "version": 2,
  "locktime": 0,
  "vin": [
    {
      "txid": "6bf3829335d994850b610a8046c228b854c378ebf2975c393fb61837cdf171cd",
      "vout": 2,
      "prevout": {
        "scriptpubkey": "0014a5932950a797034a782fbae098ea5cd31b8c2c7b",
        "scriptpubkey_asm": "OP_0 OP_PUSHBYTES_20 a5932950a797034a782fbae098ea5cd31b8c2c7b",
        "scriptpubkey_type": "v0_p2wpkh",
        "scriptpubkey_address": "bc1q5kfjj598jup557p0htsf36ju6vdcctrmka4cqv",
        "value": 696761
      },
      "scriptsig": "",
      "scriptsig_asm": "",
      "witness": [
        "304402205e0e7d7395f1e4eed4f41daee931c44037aabcd401faa916041218a773234c8f02206b8b5afacdc18e3619cdb4fb0c523877b986adc7737a5788bf7dfe2b32eb1f9501",
        "02eed0c98a1b1825c16b3de1d574ad201deba0b2712b6dc90fb90941ccf2fd53c7"
      ],
      "is_coinbase": false,
      "sequence": 4294967293
    }
  ],
  "vout": [
    {
      "scriptpubkey": "00142b6d183e4125207afc965fc73300e8b634bf2794",
      "scriptpubkey_asm": "OP_0 OP_PUSHBYTES_20 2b6d183e4125207afc965fc73300e8b634bf2794",
      "scriptpubkey_type": "v0_p2wpkh",
      "scriptpubkey_address": "bc1q9dk3s0jpy5s84lyktlrnxq8gkc6t7fu5lzuaxv",
      "value": 104992
    },
    {
      "scriptpubkey": "0014a5932950a797034a782fbae098ea5cd31b8c2c7b",
      "scriptpubkey_asm": "OP_0 OP_PUSHBYTES_20 a5932950a797034a782fbae098ea5cd31b8c2c7b",
      "scriptpubkey_type": "v0_p2wpkh",
      "scriptpubkey_address": "bc1q5kfjj598jup557p0htsf36ju6vdcctrmka4cqv",
      "value": 590239
    }
  ],
  "size": 222,
  "weight": 561,
  "fee": 1530,
  "status": {
    "confirmed": true,
    "block_height": 834464,
    "block_hash": "0000000000000000000177a0869a911a2b65c9bdcd5a8bcb02b68f305bee848e",
    "block_time": 1710308296
  },
  "hex": "02000000000101cd71f1cd3718b63f395c97f2eb78c354b828c246800a610b8594d9359382f36b0200000000fdffffff02209a0100000000001600142b6d183e4125207afc965fc73300e8b634bf27949f01090000000000160014a5932950a797034a782fbae098ea5cd31b8c2c7b0247304402205e0e7d7395f1e4eed4f41daee931c44037aabcd401faa916041218a773234c8f02206b8b5afacdc18e3619cdb4fb0c523877b986adc7737a5788bf7dfe2b32eb1f95012102eed0c98a1b1825c16b3de1d574ad201deba0b2712b6dc90fb90941ccf2fd53c700000000"
}