{
  "txid": "e809ced51d8913022e7d949ab42dced250e121e309b118320dc3d2b46b210c43",
  "version": 2,
  "locktime": 0,
  "vin": [
    {
      "txid": "621e415b6cb6e207cecde6c8125e9f209cede18e40aa241da392ae315d40db51",
      "vout": 4,
      "prevout": {
        "scriptpubkey": "00144d77242cea1e7a7b7fb61596a6f321aac0a1e01e",
        "scriptpubkey_asm": "OP_0 OP_PUSHBYTES_20 4d77242cea1e7a7b7fb61596a6f321aac0a1e01e",
        "scriptpubkey_type": "v0_p2wpkh",
        "scriptpubkey_address": "bc1qf4mjgt82rea8klakzkt2duep4tq2rcq7wd93se",
        "value": 77000
      },
      "scriptsig": "",
      "scriptsig_asm": "",
      "witness": [
        "3044022052f0c5928e98a976de907bed6629553ca4defe47d01323e4de5eaf01b290a011022008fd71b8b729b02724db28195c663b21dfffd5d8e594d9a00379230029a5728f01",
        "0364ac8c938550330c9df260786a6b18bc47b967c09cae9a4ffbc043560c4ce538"
      ],
      "is_coinbase": false,
      "sequence": 4294967295
    }
  ],
  "vout": [
    {
      "scriptpubkey": "0014d6651e29c92039989ca4f58099970e557212c8ad",
      "scriptpubkey_asm": "OP_0 OP_PUSHBYTES_20 d6651e29c92039989ca4f58099970e557212c8ad",
      "scriptpubkey_type": "v0_p2wpkh",
      "scriptpubkey_address": "bc1q6ej3u2wfyque389y7kqfn9cw24ep9j9d02zdl8",
      "value": 74949
    }
  ],
  "size": 191,
  "weight": 437,
  "fee": 2051,
  "status": {
    "confirmed": true,
    "block_height": 834638,
    "block_hash": "000000000000000000025f742c626208ac87e0b7d15054abb4a19ca2d735a54e",
    "block_time": 1710405325
  },
  "hex": "0200000000010151db405d31ae92a31d24aa408ee1ed9c209f5e12c8e6cdce07e2b66c5b411e620400000000ffffffff01c524010000000000160014d6651e29c92039989ca4f58099970e557212c8ad02473044022052f0c5928e98a976de907bed6629553ca4defe47d01323e4de5eaf01b290a011022008fd71b8b729b02724db28195c663b21dfffd5d8e594d9a00379230029a5728f01210364ac8c938550330c9df260786a6b18bc47b967c09cae9a4ffbc043560c4ce53800000000"
}