{
  "txid": "e81f8eedd954de2f654c3f52711eb14ef1cd595c3d242eea6c3bb4b8e5518137",
  "version": 2,
  "locktime": 0,
  "vin": [
    {
      "txid": "5c3864e3e852ec96346d84fbc3195b536ef1db1891f28d4b48dba69c282b1a0d",
      "vout": 16,
      "prevout": {
        "scriptpubkey": "512001d7efc7260c4df8f5ddb7c9695e78196737e64ab15999766f7aeab27224be1b",
        "scriptpubkey_asm": "OP_PUSHNUM_1 OP_PUSHBYTES_32 01d7efc7260c4df8f5ddb7c9695e78196737e64ab15999766f7aeab27224be1b",
        "scriptpubkey_type": "v1_p2tr",
        "scriptpubkey_address": "bc1pq8t7l3exp3xl3awaklykjhncr9nn0ej2k9vejan00t4tyu3yhcdsmurtxa",
        "value": 3055
      },
      "scriptsig": "",
      "scriptsig_asm": "",
      "witness": [
        "9eee502984de5a69aa8b729746e6cb31c04eb618f7344d3fa7dfa6db3cb6eff6016617b12fbe4342358822ebbce1e7869c62e445709993e5bb113f5b79f86755",
        "2050333a3410c10d806fe65cc5a2b4aad9f7ddcac0057ca3c0637d8830dfa13a72ac0063036f726401011e6170706c69636174696f6e2f6a736f6e3b636861727365743d7574662d38004cd37b2270223a22706f772d3230222c226f70223a226d696e74222c227469636b223a2250455045222c22616d74223a2231303030222c22736f6c7574696f6e223a22504550453a626331703237796d68736b396a36716e706b7367767973363471356663717670646465716a6832716a796c6330793861667138663261727375637776796b3a303030303030303030303030303030303030303139393431613561653132383937363539383134343239323533333030353762306461393666336465613163353a3634323334383735343531227d68",
        "c129e6ca6c8c5ab61eaab81da0d3884f0ac7596b050aac6663ac46dee308a1dbc8"
      ],
      "is_coinbase": false,
      "sequence": 4294967295
    }
  ],
  "vout": [
    {
      "scriptpubkey": "51205789bbc2c5968130da086121aa8289c01816b72095d40913f8790fd480e95747",
      "scriptpubkey_asm": "OP_PUSHNUM_1 OP_PUSHBYTES_32 5789bbc2c5968130da086121aa8289c01816b72095d40913f8790fd480e95747",
      "scriptpubkey_type": "v1_p2tr",
      "scriptpubkey_address": "bc1p27ymhsk9j6qnpksgvys64q5fcqvpddeqjh2qjylc0y8afq8f2arsucwvyk",
      "value": 546
    }
  ],
  "size": 487,
  "weight": 769,
  "fee": 2509,
  "status": {
    "confirmed": true,
    "block_height": 834460,
    "block_hash": "00000000000000000000484a79b643b2524bbce82e5d8a442013fa5b8905ed98",
    "block_time": 1710307468
  },
  "hex": "020000000001010d1a2b289ca6db484b8df29118dbf16e535b19c3fb846d3496ec52e8e364385c1000000000ffffffff0122020000000000002251205789bbc2c5968130da086121aa8289c01816b72095d40913f8790fd480e9574703409eee502984de5a69aa8b729746e6cb31c04eb618f7344d3fa7dfa6db3cb6eff6016617b12fbe4342358822ebbce1e7869c62e445709993e5bb113f5b79f86755fd20012050333a3410c10d806fe65cc5a2b4aad9f7ddcac0057ca3c0637d8830dfa13a72ac0063036f726401011e6170706c69636174696f6e2f6a736f6e3b636861727365743d7574662d38004cd37b2270223a22706f772d3230222c226f70223a226d696e74222c227469636b223a2250455045222c22616d74223a2231303030222c22736f6c7574696f6e223a22504550453a626331703237796d68736b396a36716e706b7367767973363471356663717670646465716a6832716a796c6330793861667138663261727375637776796b3a303030303030303030303030303030303030303139393431613561653132383937363539383134343239323533333030353762306461393666336465613163353a3634323334383735343531227d6821c129e6ca6c8c5ab61eaab81da0d3884f0ac7596b050aac6663ac46dee308a1dbc800000000"
}