{
  "txid": "e820ffe1e2a62a41c1dfc0bbd53a644e72eb2c5a70626e51e2487b9bac893646",
  "version": 2,
  "locktime": 0,
  "vin": [
    {
      "txid": "4514bcf7f58de58a5cb7e571496bf9a1efe2fce4780d87a61c01bae94fc72af6",
      "vout": 1,
      "prevout": {
        "scriptpubkey": "0014d96bfee515766beea4d87758aa7014ac0b80b56e",
        "scriptpubkey_asm": "OP_0 OP_PUSHBYTES_20 d96bfee515766beea4d87758aa7014ac0b80b56e",
        "scriptpubkey_type": "v0_p2wpkh",
        "scriptpubkey_address": "bc1qm94laeg4we47afxcwav25uq54s9cpdtwf8mn7y",
        "value": 8225
      },
      "scriptsig": "",
      "scriptsig_asm": "",
      "witness": [
        "3045022100c9e5de84da169e0ba3b760c7c15783fa9914c98a1bdfff66022381dd10cdd1bd0220113fd44fba86c201b17eb71f3a4a27e3e62d68618ed3f5cb9474ef50cbe8df5501",
        "0253cbeb165d4ecd750c3b297aea19de3503d37cd585b8c2de3b95ff1ab61efd5c"
      ],
      "is_coinbase": false,
      "sequence": 4294967293
    }
  ],
  "vout": [
    {
      "scriptpubkey": "76a914de693df9f079a8fa7afe8bbf33f95a50cf5c03a288ac",
      "scriptpubkey_asm": "OP_DUP OP_HASH160 OP_PUSHBYTES_20 de693df9f079a8fa7afe8bbf33f95a50cf5c03a2 OP_EQUALVERIFY OP_CHECKSIG",
      "scriptpubkey_type": "p2pkh",
      "scriptpubkey_address": "1MH15wFP5kUC45T1cqNQuBi2nNPqe2uCZa",
      "value": 6994
    }
  ],
  "size": 195,
  "weight": 450,
  "fee": 1231,
  "status": {
    "confirmed": true,
    "block_height": 834464,
    "block_hash": "0000000000000000000177a0869a911a2b65c9bdcd5a8bcb02b68f305bee848e",
    "block_time": 1710308296
  },
  "hex": "02000000000101f62ac74fe9ba011ca6870d78e4fce2efa1f96b4971e5b75c8ae58df5f7bc14450100000000fdffffff01521b0000000000001976a914de693df9f079a8fa7afe8bbf33f95a50cf5c03a288ac02483045022100c9e5de84da169e0ba3b760c7c15783fa9914c98a1bdfff66022381dd10cdd1bd0220113fd44fba86c201b17eb71f3a4a27e3e62d68618ed3f5cb9474ef50cbe8df5501210253cbeb165d4ecd750c3b297aea19de3503d37cd585b8c2de3b95ff1ab61efd5c00000000"
}