{
  "txid": "e82ab2c79a7bd896e0e87fbcdf0b57d341b763a29a97340a7677dec853e0f36d",
  "version": 2,
  "locktime": 0,
  "vin": [
    {
      "txid": "89d5d85cc435eac6031a322cdf84c458bbc958ed4a911b062027a1d26be5f545",
      "vout": 0,
      "prevout": {
        "scriptpubkey": "5120a4cf18e45fb85949087a4a15f28d4600a9b953bf353ac9785fdcdfd20fad867f",
        "scriptpubkey_asm": "OP_PUSHNUM_1 OP_PUSHBYTES_32 a4cf18e45fb85949087a4a15f28d4600a9b953bf353ac9785fdcdfd20fad867f",
        "scriptpubkey_type": "v1_p2tr",
        "scriptpubkey_address": "bc1p5n833ezlhpv5jzr6fg2l9r2xqz5mj5alx5avj7zlmn0ayradsels0ue69y",
        "value": 35353
      },
      "scriptsig": "",
      "scriptsig_asm": "",
      "witness": [
        "51029def8bf2074fe150d136490ff5adadccc29a23d3b4db730c94fe57bf37a377fb473882971008410ed9964627d42324b97e0b66b3f98f3fcce459cd715dc2",
        "202838cc5e0697a53fa73fdee91735c00d067ed4d89b558bb2c61caba202a81f3cac0063036f7264010109746578742f68746d6c004c6b3c73637269707420683d2232333722207372633d222f636f6e74656e742f393565613330386438313937653063383064633736656530343635636532356362336635376336316539373863666437356163326564366163306336346636396930223e3c2f7363726970743e680063036f7264010109746578742f68746d6c0102022202004c6b3c73637269707420683d2232333822207372633d222f636f6e74656e742f393565613330386438313937653063383064633736656530343635636532356362336635376336316539373863666437356163326564366163306336346636396930223e3c2f7363726970743e680063036f7264010109746578742f68746d6c0102024404004c6b3c73637269707420683d2232333922207372633d222f636f6e74656e742f393565613330386438313937653063383064633736656530343635636532356362336635376336316539373863666437356163326564366163306336346636396930223e3c2f7363726970743e680063036f7264010109746578742f68746d6c0102026606004c6b3c73637269707420683d2232343022207372633d222f636f6e74656e742f393565613330386438313937653063383064633736656530343635636532356362336635376336316539373863666437356163326564366163306336346636396930223e3c2f7363726970743e680063036f7264010109746578742f68746d6c0102028808004c6b3c73637269707420683d2232343122207372633d222f636f6e74656e742f393565613330386438313937653063383064633736656530343635636532356362336635376336316539373863666437356163326564366163306336346636396930223e3c2f7363726970743e680063036f7264010109746578742f68746d6c010202aa0a004c6b3c73637269707420683d2232343222207372633d222f636f6e74656e742f393565613330386438313937653063383064633736656530343635636532356362336635376336316539373863666437356163326564366163306336346636396930223e3c2f7363726970743e680063036f7264010109746578742f68746d6c010202cc0c004c6b3c73637269707420683d2232343322207372633d222f636f6e74656e742f393565613330386438313937653063383064633736656530343635636532356362336635376336316539373863666437356163326564366163306336346636396930223e3c2f7363726970743e680063036f7264010109746578742f68746d6c010202ee0e004c6b3c73637269707420683d2232343422207372633d222f636f6e74656e742f393565613330386438313937653063383064633736656530343635636532356362336635376336316539373863666437356163326564366163306336346636396930223e3c2f7363726970743e680063036f7264010109746578742f68746d6c0102021011004c6b3c73637269707420683d2232343522207372633d222f636f6e74656e742f393565613330386438313937653063383064633736656530343635636532356362336635376336316539373863666437356163326564366163306336346636396930223e3c2f7363726970743e680063036f7264010109746578742f68746d6c0102023213004c6b3c73637269707420683d2232343622207372633d222f636f6e74656e742f393565613330386438313937653063383064633736656530343635636532356362336635376336316539373863666437356163326564366163306336346636396930223e3c2f7363726970743e68",
        "c12838cc5e0697a53fa73fdee91735c00d067ed4d89b558bb2c61caba202a81f3c"
      ],
      "is_coinbase": false,
      "sequence": 4294967293
    }
  ],
  "vout": [
    {
      "scriptpubkey": "00149725b3cfddf6435270921cd31786a73dd43eb91c",
      "scriptpubkey_asm": "OP_0 OP_PUSHBYTES_20 9725b3cfddf6435270921cd31786a73dd43eb91c",
      "scriptpubkey_type": "v0_p2wpkh",
      "scriptpubkey_address": "bc1qjujm8n7a7ep4yuyjrnf30p488h2rawguxcg8ny",
      "value": 546
    },
    {
      "scriptpubkey": "00149725b3cfddf6435270921cd31786a73dd43eb91c",
      "scriptpubkey_asm": "OP_0 OP_PUSHBYTES_20 9725b3cfddf6435270921cd31786a73dd43eb91c",
      "scriptpubkey_type": "v0_p2wpkh",
      "scriptpubkey_address": "bc1qjujm8n7a7ep4yuyjrnf30p488h2rawguxcg8ny",
      "value": 546
    },
    {
      "scriptpubkey": "00149725b3cfddf6435270921cd31786a73dd43eb91c",
      "scriptpubkey_asm": "OP_0 OP_PUSHBYTES_20 9725b3cfddf6435270921cd31786a73dd43eb91c",
      "scriptpubkey_type": "v0_p2wpkh",
      "scriptpubkey_address": "bc1qjujm8n7a7ep4yuyjrnf30p488h2rawguxcg8ny",
      "value": 546
    },
    {
      "scriptpubkey": "00149725b3cfddf6435270921cd31786a73dd43eb91c",
      "scriptpubkey_asm": "OP_0 OP_PUSHBYTES_20 9725b3cfddf6435270921cd31786a73dd43eb91c",
      "scriptpubkey_type": "v0_p2wpkh",
      "scriptpubkey_address": "bc1qjujm8n7a7ep4yuyjrnf30p488h2rawguxcg8ny",
      "value": 546
    },
    {
      "scriptpubkey": "00149725b3cfddf6435270921cd31786a73dd43eb91c",
      "scriptpubkey_asm": "OP_0 OP_PUSHBYTES_20 9725b3cfddf6435270921cd31786a73dd43eb91c",
      "scriptpubkey_type": "v0_p2wpkh",
      "scriptpubkey_address": "bc1qjujm8n7a7ep4yuyjrnf30p488h2rawguxcg8ny",
      "value": 546
    },
    {
      "scriptpubkey": "00149725b3cfddf6435270921cd31786a73dd43eb91c",
      "scriptpubkey_asm": "OP_0 OP_PUSHBYTES_20 9725b3cfddf6435270921cd31786a73dd43eb91c",
      "scriptpubkey_type": "v0_p2wpkh",
      "scriptpubkey_address": "bc1qjujm8n7a7ep4yuyjrnf30p488h2rawguxcg8ny",
      "value": 546
    },
    {
      "scriptpubkey": "00149725b3cfddf6435270921cd31786a73dd43eb91c",
      "scriptpubkey_asm": "OP_0 OP_PUSHBYTES_20 9725b3cfddf6435270921cd31786a73dd43eb91c",
      "scriptpubkey_type": "v0_p2wpkh",
      "scriptpubkey_address": "bc1qjujm8n7a7ep4yuyjrnf30p488h2rawguxcg8ny",
      "value": 546
    },
    {
      "scriptpubkey": "00149725b3cfddf6435270921cd31786a73dd43eb91c",
      "scriptpubkey_asm": "OP_0 OP_PUSHBYTES_20 9725b3cfddf6435270921cd31786a73dd43eb91c",
      "scriptpubkey_type": "v0_p2wpkh",
      "scriptpubkey_address": "bc1qjujm8n7a7ep4yuyjrnf30p488h2rawguxcg8ny",
      "value": 546
    },
    {
      "scriptpubkey": "00149725b3cfddf6435270921cd31786a73dd43eb91c",
      "scriptpubkey_asm": "OP_0 OP_PUSHBYTES_20 9725b3cfddf6435270921cd31786a73dd43eb91c",
      "scriptpubkey_type": "v0_p2wpkh",
      "scriptpubkey_address": "bc1qjujm8n7a7ep4yuyjrnf30p488h2rawguxcg8ny",
      "value": 546
    },
    {
      "scriptpubkey": "00149725b3cfddf6435270921cd31786a73dd43eb91c",
      "scriptpubkey_asm": "OP_0 OP_PUSHBYTES_20 9725b3cfddf6435270921cd31786a73dd43eb91c",
      "scriptpubkey_type": "v0_p2wpkh",
      "scriptpubkey_address": "bc1qjujm8n7a7ep4yuyjrnf30p488h2rawguxcg8ny",
      "value": 546
    },
    {
      "scriptpubkey": "00143f80b77fc3256e325670ec6ee54d475979f46a10",
      "scriptpubkey_asm": "OP_0 OP_PUSHBYTES_20 3f80b77fc3256e325670ec6ee54d475979f46a10",
      "scriptpubkey_type": "v0_p2wpkh",
      "scriptpubkey_address": "bc1q87qtwl7ry4hry4nsa3hw2n28t9ulg6ss67x829",
      "value": 20000
    }
  ],
  "size": 1866,
  "weight": 3042,
  "fee": 9893,
  "status": {
    "confirmed": true,
    "block_height": 834460,
    "block_hash": "00000000000000000000484a79b643b2524bbce82e5d8a442013fa5b8905ed98",
    "block_time": 1710307468
  },
  "hex": "0200000000010145f5e56bd2a12720061b914aed58c9bb58c484df2c321a03c6ea35c45cd8d5890000000000fdffffff0b22020000000000001600149725b3cfddf6435270921cd31786a73dd43eb91c22020000000000001600149725b3cfddf6435270921cd31786a73dd43eb91c22020000000000001600149725b3cfddf6435270921cd31786a73dd43eb91c22020000000000001600149725b3cfddf6435270921cd31786a73dd43eb91c22020000000000001600149725b3cfddf6435270921cd31786a73dd43eb91c22020000000000001600149725b3cfddf6435270921cd31786a73dd43eb91c22020000000000001600149725b3cfddf6435270921cd31786a73dd43eb91c22020000000000001600149725b3cfddf6435270921cd31786a73dd43eb91c22020000000000001600149725b3cfddf6435270921cd31786a73dd43eb91c22020000000000001600149725b3cfddf6435270921cd31786a73dd43eb91c204e0000000000001600143f80b77fc3256e325670ec6ee54d475979f46a10034051029def8bf2074fe150d136490ff5adadccc29a23d3b4db730c94fe57bf37a377fb473882971008410ed9964627d42324b97e0b66b3f98f3fcce459cd715dc2fd5905202838cc5e0697a53fa73fdee91735c00d067ed4d89b558bb2c61caba202a81f3cac0063036f7264010109746578742f68746d6c004c6b3c73637269707420683d2232333722207372633d222f636f6e74656e742f393565613330386438313937653063383064633736656530343635636532356362336635376336316539373863666437356163326564366163306336346636396930223e3c2f7363726970743e680063036f7264010109746578742f68746d6c0102022202004c6b3c73637269707420683d2232333822207372633d222f636f6e74656e742f393565613330386438313937653063383064633736656530343635636532356362336635376336316539373863666437356163326564366163306336346636396930223e3c2f7363726970743e680063036f7264010109746578742f68746d6c0102024404004c6b3c73637269707420683d2232333922207372633d222f636f6e74656e742f393565613330386438313937653063383064633736656530343635636532356362336635376336316539373863666437356163326564366163306336346636396930223e3c2f7363726970743e680063036f7264010109746578742f68746d6c0102026606004c6b3c73637269707420683d2232343022207372633d222f636f6e74656e742f393565613330386438313937653063383064633736656530343635636532356362336635376336316539373863666437356163326564366163306336346636396930223e3c2f7363726970743e680063036f7264010109746578742f68746d6c0102028808004c6b3c73637269707420683d2232343122207372633d222f636f6e74656e742f393565613330386438313937653063383064633736656530343635636532356362336635376336316539373863666437356163326564366163306336346636396930223e3c2f7363726970743e680063036f7264010109746578742f68746d6c010202aa0a004c6b3c73637269707420683d2232343222207372633d222f636f6e74656e742f393565613330386438313937653063383064633736656530343635636532356362336635376336316539373863666437356163326564366163306336346636396930223e3c2f7363726970743e680063036f7264010109746578742f68746d6c010202cc0c004c6b3c73637269707420683d2232343322207372633d222f636f6e74656e742f393565613330386438313937653063383064633736656530343635636532356362336635376336316539373863666437356163326564366163306336346636396930223e3c2f7363726970743e680063036f7264010109746578742f68746d6c010202ee0e004c6b3c73637269707420683d2232343422207372633d222f636f6e74656e742f393565613330386438313937653063383064633736656530343635636532356362336635376336316539373863666437356163326564366163306336346636396930223e3c2f7363726970743e680063036f7264010109746578742f68746d6c0102021011004c6b3c73637269707420683d2232343522207372633d222f636f6e74656e742f393565613330386438313937653063383064633736656530343635636532356362336635376336316539373863666437356163326564366163306336346636396930223e3c2f7363726970743e680063036f7264010109746578742f68746d6c0102023213004c6b3c73637269707420683d2232343622207372633d222f636f6e74656e742f393565613330386438313937653063383064633736656530343635636532356362336635376336316539373863666437356163326564366163306336346636396930223e3c2f7363726970743e6821c12838cc5e0697a53fa73fdee91735c00d067ed4d89b558bb2c61caba202a81f3c00000000"
}