{
  "txid": "e8330020ab969cc3b8e1aa1b4e5ab8d21aee185ff21cc30e2aba586fca93f7e0",
  "version": 1,
  "locktime": 0,
  "vin": [
    {
      "txid": "5f18024dfa292433876039674dcc25d715c340ed3d22881efbed8ceec045882a",
      "vout": 1,
      "prevout": {
        "scriptpubkey": "76a9141b6d8fb358b724661a47e9ce136da6d9f4253a4d88ac",
        "scriptpubkey_asm": "OP_DUP OP_HASH160 OP_PUSHBYTES_20 1b6d8fb358b724661a47e9ce136da6d9f4253a4d OP_EQUALVERIFY OP_CHECKSIG",
        "scriptpubkey_type": "p2pkh",
        "scriptpubkey_address": "13W2Vdn9Va91iBAN17oZwneDJ9YQwwMb32",
        "value": 577805
      },
      "scriptsig": "483045022100d0d41144d89714ebb78b77689a20ca9e25696db3c917bd944495f7cb240a8f08022022d84f1ba253d4c0a9342fe070ff822682bf1b72fe02223401435251326c2835012103a3224d640ac6eb81b659830be0c4dfa3ef8af5142f739047cf171189e73c5077",
      "scriptsig_asm": "OP_PUSHBYTES_72 3045022100d0d41144d89714ebb78b77689a20ca9e25696db3c917bd944495f7cb240a8f08022022d84f1ba253d4c0a9342fe070ff822682bf1b72fe02223401435251326c283501 OP_PUSHBYTES_33 03a3224d640ac6eb81b659830be0c4dfa3ef8af5142f739047cf171189e73c5077",
      "is_coinbase": false,
      "sequence": 4294967295
    },
    {
      "txid": "ff9a5d3eaa945ff17da6815dc2e20ded582a2e4221c72889a75c4d278a1e120f",
      "vout": 0,
      "prevout": {
        "scriptpubkey": "76a9141b6d8fb358b724661a47e9ce136da6d9f4253a4d88ac",
        "scriptpubkey_asm": "OP_DUP OP_HASH160 OP_PUSHBYTES_20 1b6d8fb358b724661a47e9ce136da6d9f4253a4d OP_EQUALVERIFY OP_CHECKSIG",
        "scriptpubkey_type": "p2pkh",
        "scriptpubkey_address": "13W2Vdn9Va91iBAN17oZwneDJ9YQwwMb32",
        "value": 1484849
      },
      "scriptsig": "473044022078ca45baa8500238dfe68b588bebfb75d347b5b07164907f2cb52c3a9adf6284022076c885ab666eb4166705f1b4a1dd2a4418df7f99a940e22c579b04b4e7b64a06012103a3224d640ac6eb81b659830be0c4dfa3ef8af5142f739047cf171189e73c5077",
      "scriptsig_asm": "OP_PUSHBYTES_71 3044022078ca45baa8500238dfe68b588bebfb75d347b5b07164907f2cb52c3a9adf6284022076c885ab666eb4166705f1b4a1dd2a4418df7f99a940e22c579b04b4e7b64a0601 OP_PUSHBYTES_33 03a3224d640ac6eb81b659830be0c4dfa3ef8af5142f739047cf171189e73c5077",
      "is_coinbase": false,
      "sequence": 4294967295
    }
  ],
  "vout": [
    {
      "scriptpubkey": "a9145db7737eae6dccb78285c7b5ad03603c6d0f6edb87",
      "scriptpubkey_asm": "OP_HASH160 OP_PUSHBYTES_20 5db7737eae6dccb78285c7b5ad03603c6d0f6edb OP_EQUAL",
      "scriptpubkey_type": "p2sh",
      "scriptpubkey_address": "3AEYXnyUT9J8Xrv9WxpckKFVr7d76wNmiq",
      "value": 1377808
    },
    {
      "scriptpubkey": "76a9141b6d8fb358b724661a47e9ce136da6d9f4253a4d88ac",
      "scriptpubkey_asm": "OP_DUP OP_HASH160 OP_PUSHBYTES_20 1b6d8fb358b724661a47e9ce136da6d9f4253a4d OP_EQUALVERIFY OP_CHECKSIG",
      "scriptpubkey_type": "p2pkh",
      "scriptpubkey_address": "13W2Vdn9Va91iBAN17oZwneDJ9YQwwMb32",
      "value": 669586
    },
    {
      "scriptpubkey": "a914ec8577fa035f60c29c10bf0f9f1c2938356fb05587",
      "scriptpubkey_asm": "OP_HASH160 OP_PUSHBYTES_20 ec8577fa035f60c29c10bf0f9f1c2938356fb055 OP_EQUAL",
      "scriptpubkey_type": "p2sh",
      "scriptpubkey_address": "3PFdHP2yBefVpsKxZMtTMMYBCveukBG46t",
      "value": 9185
    }
  ],
  "size": 403,
  "weight": 1612,
  "fee": 6075,
  "status": {
    "confirmed": true,
    "block_height": 834638,
    "block_hash": "000000000000000000025f742c626208ac87e0b7d15054abb4a19ca2d735a54e",
    "block_time": 1710405325
  },
  "hex": "01000000022a8845c0ee8cedfb1e88223ded40c315d725cc4d67396087332429fa4d02185f010000006b483045022100d0d41144d89714ebb78b77689a20ca9e25696db3c917bd944495f7cb240a8f08022022d84f1ba253d4c0a9342fe070ff822682bf1b72fe02223401435251326c2835012103a3224d640ac6eb81b659830be0c4dfa3ef8af5142f739047cf171189e73c5077ffffffff0f121e8a274d5ca78928c721422e2a58ed0de2c25d81a67df15f94aa3e5d9aff000000006a473044022078ca45baa8500238dfe68b588bebfb75d347b5b07164907f2cb52c3a9adf6284022076c885ab666eb4166705f1b4a1dd2a4418df7f99a940e22c579b04b4e7b64a06012103a3224d640ac6eb81b659830be0c4dfa3ef8af5142f739047cf171189e73c5077ffffffff03100615000000000017a9145db7737eae6dccb78285c7b5ad03603c6d0f6edb8792370a00000000001976a9141b6d8fb358b724661a47e9ce136da6d9f4253a4d88ace12300000000000017a914ec8577fa035f60c29c10bf0f9f1c2938356fb0558700000000"
}