{
  "txid": "e835c4d922fbed17c48b3bb466ba1ffc020ede84c1303bdb67ca1f883dd615bb",
  "version": 2,
  "locktime": 0,
  "vin": [
    {
      "txid": "ee276d2dc2a8ce1e9dfa50104c66efea41a893e3980409741fa3c149dd41ea40",
      "vout": 0,
      "prevout": {
        "scriptpubkey": "512048381d1bebbb70e8bb2dcf8650003c95c6e8d8edb777e2f54e90f07951063621",
        "scriptpubkey_asm": "OP_PUSHNUM_1 OP_PUSHBYTES_32 48381d1bebbb70e8bb2dcf8650003c95c6e8d8edb777e2f54e90f07951063621",
        "scriptpubkey_type": "v1_p2tr",
        "scriptpubkey_address": "bc1pfqup6xlthdcw3wede7r9qqpujhrw3k8dkam79a2wjrc8j5gxxcss5xzug9",
        "value": 169000
      },
      "scriptsig": "",
      "scriptsig_asm": "",
      "witness": [
        "357c3acc8a2d1adc684826ecf9262e778fd28ac72ccdca58c5bc3eab597de7ac042c2ebe6b28021ccb10e6d533cac11b9a4b4dac8943ea400e47342edfa6aa5f",
        "2056dfbb8519668271df8afc95b3af43cff17314bd326a1f95a2393534e10a534bac0063036f726401011e6170706c69636174696f6e2f6a736f6e3b636861727365743d7574662d38004cd37b2270223a22706f772d3230222c226f70223a226d696e74222c227469636b223a2250455045222c22616d74223a2231303030222c22736f6c7574696f6e223a22504550453a626331703378336875706e76383064666366666c34333367327a3776713378706c63673364666d79716365336d6c6d6e78397767753872717265763032653a303030303030303030303030303030303030303139393431613561653132383937363539383134343239323533333030353762306461393666336465613163353a3330323930383733313930227d68",
        "c1bf69a78b1b6433fca38fda21525e43a6c565682ca08e513a8f66feb668723930"
      ],
      "is_coinbase": false,
      "sequence": 4294967293
    }
  ],
  "vout": [
    {
      "scriptpubkey": "512089a37e066c3bda9c253fac62850bcc044c1fe1116a76406331dff73315c8e1c6",
      "scriptpubkey_asm": "OP_PUSHNUM_1 OP_PUSHBYTES_32 89a37e066c3bda9c253fac62850bcc044c1fe1116a76406331dff73315c8e1c6",
      "scriptpubkey_type": "v1_p2tr",
      "scriptpubkey_address": "bc1p3x3hupnv80dfcffl433g2z7vq3xplcg3dfmyqce3mlmnx9wgu8rqrev02e",
      "value": 546
    },
    {
      "scriptpubkey": "5120b3a6d850453ea6dc52828423c9263c5d037808e8f52248d65bb1866fe9729848",
      "scriptpubkey_asm": "OP_PUSHNUM_1 OP_PUSHBYTES_32 b3a6d850453ea6dc52828423c9263c5d037808e8f52248d65bb1866fe9729848",
      "scriptpubkey_type": "v1_p2tr",
      "scriptpubkey_address": "bc1pkwnds5z986ndc55zss3ujf3ut5phsz8g753y34jmkxrxl6tjnpyqqjudy5",
      "value": 3248
    },
    {
      "scriptpubkey": "5120e2ae177a97ef48998883d5aa1b536b20e32f45f2669208cfd4673f2293aa1ae8",
      "scriptpubkey_asm": "OP_PUSHNUM_1 OP_PUSHBYTES_32 e2ae177a97ef48998883d5aa1b536b20e32f45f2669208cfd4673f2293aa1ae8",
      "scriptpubkey_type": "v1_p2tr",
      "scriptpubkey_address": "bc1pu2hpw75haayfnzyr6k4pk5mtyr3j730jv6fq3n75vulj9ya2rt5qp4gv2w",
      "value": 3248
    },
    {
      "scriptpubkey": "51201e9a095a29b05dce004975b2a13c259f8e3bffcd209ec2e1225349ae9eb447fa",
      "scriptpubkey_asm": "OP_PUSHNUM_1 OP_PUSHBYTES_32 1e9a095a29b05dce004975b2a13c259f8e3bffcd209ec2e1225349ae9eb447fa",
      "scriptpubkey_type": "v1_p2tr",
      "scriptpubkey_address": "bc1pr6dqjk3fkpwuuqzfwke2z0p9n78rhl7dyz0v9cfz2dy6a845glaq3m6t54",
      "value": 3248
    },
    {
      "scriptpubkey": "5120e29f95f0c86af7c38cabe98274501677c80d6addadaaac540d031e3b28ea35b9",
      "scriptpubkey_asm": "OP_PUSHNUM_1 OP_PUSHBYTES_32 e29f95f0c86af7c38cabe98274501677c80d6addadaaac540d031e3b28ea35b9",
      "scriptpubkey_type": "v1_p2tr",
      "scriptpubkey_address": "bc1pu20etuxgdtmu8r9taxp8g5qkwlyq66ka4k42c4qdqv0rk282xkusfvnvp3",
      "value": 3248
    },
    {
      "scriptpubkey": "5120fa51192a4be5575fb27917daac2797fa9ec3a919aa4dc6d58d802c4436530c16",
      "scriptpubkey_asm": "OP_PUSHNUM_1 OP_PUSHBYTES_32 fa51192a4be5575fb27917daac2797fa9ec3a919aa4dc6d58d802c4436530c16",
      "scriptpubkey_type": "v1_p2tr",
      "scriptpubkey_address": "bc1plfg3j2jtu4t4lvnezld2cfuhl20v82ge4fxud4vdsqkygdjnpstqcdrrav",
      "value": 3248
    },
    {
      "scriptpubkey": "51206069e4a70e107d85748998a9857c1b98460202bffedddd9f230c1e75d1d1d116",
      "scriptpubkey_asm": "OP_PUSHNUM_1 OP_PUSHBYTES_32 6069e4a70e107d85748998a9857c1b98460202bffedddd9f230c1e75d1d1d116",
      "scriptpubkey_type": "v1_p2tr",
      "scriptpubkey_address": "bc1pvp57ffcwzp7c2ayfnz5c2lqmnprqyq4llmwam8erps08t5w36ytqhyuhv3",
      "value": 3248
    },
    {
      "scriptpubkey": "5120e3df6c466c3f20cecca4da710143ca57826259c411831777cf48e4c6550866a0",
      "scriptpubkey_asm": "OP_PUSHNUM_1 OP_PUSHBYTES_32 e3df6c466c3f20cecca4da710143ca57826259c411831777cf48e4c6550866a0",
      "scriptpubkey_type": "v1_p2tr",
      "scriptpubkey_address": "bc1pu00kc3nv8usvan9ymfcszs7227pxykwyzxp3wa70frjvv4ggv6sqdnz0x8",
      "value": 3248
    },
    {
      "scriptpubkey": "51204ef24f8c538b15e98d71b797b78eb586bb2d3dae045558421881b4e1cb8a04e7",
      "scriptpubkey_asm": "OP_PUSHNUM_1 OP_PUSHBYTES_32 4ef24f8c538b15e98d71b797b78eb586bb2d3dae045558421881b4e1cb8a04e7",
      "scriptpubkey_type": "v1_p2tr",
      "scriptpubkey_address": "bc1pfmeylrzn3v27nrt3k7tm0r44s6aj60dwq324ssscsx6wrju2qnnsc3p0zd",
      "value": 3234
    },
    {
      "scriptpubkey": "51203cc2dc969c985430b6005ba951bd0f432201b4e6c24e094d1368349dd47a9156",
      "scriptpubkey_asm": "OP_PUSHNUM_1 OP_PUSHBYTES_32 3cc2dc969c985430b6005ba951bd0f432201b4e6c24e094d1368349dd47a9156",
      "scriptpubkey_type": "v1_p2tr",
      "scriptpubkey_address": "bc1p8npde95unp2rpdsqtw54r0g0gv3qrd8xcf8qjngndq6fm4r6j9tqdeuz3l",
      "value": 3248
    },
    {
      "scriptpubkey": "5120e084226e120a410f59ff426e57e355698c442bd8a81af8fb7dbcf6f7ff5aa82b",
      "scriptpubkey_asm": "OP_PUSHNUM_1 OP_PUSHBYTES_32 e084226e120a410f59ff426e57e355698c442bd8a81af8fb7dbcf6f7ff5aa82b",
      "scriptpubkey_type": "v1_p2tr",
      "scriptpubkey_address": "bc1puzzzymsjpfqs7k0lgfh90c64dxxyg27c4qd037mahnm00l664q4s4f4z9t",
      "value": 3248
    },
    {
      "scriptpubkey": "5120b76701ebe3e1c45b8c757f324859622d8e33a148cf493f3161a1d6f1d676e6e4",
      "scriptpubkey_asm": "OP_PUSHNUM_1 OP_PUSHBYTES_32 b76701ebe3e1c45b8c757f324859622d8e33a148cf493f3161a1d6f1d676e6e4",
      "scriptpubkey_type": "v1_p2tr",
      "scriptpubkey_address": "bc1pkansr6lru8z9hrr40ueysktz9k8r8g2geayn7vtp58t0r4nkumjq9y6xdw",
      "value": 3248
    },
    {
      "scriptpubkey": "5120588f52685fa74e71b86c1a256691625ff65eddd50f40ae581d6a0440b31175be",
      "scriptpubkey_asm": "OP_PUSHNUM_1 OP_PUSHBYTES_32 588f52685fa74e71b86c1a256691625ff65eddd50f40ae581d6a0440b31175be",
      "scriptpubkey_type": "v1_p2tr",
      "scriptpubkey_address": "bc1ptz84y6zl5a88rwrvrgjkdytztlm9ahw4paq2ukqadgzypvc3wklqspzmw7",
      "value": 3248
    },
    {
      "scriptpubkey": "5120add932594bbe26f957afc25598be54ddadaaeb0dc19938a18b2913d79704884a",
      "scriptpubkey_asm": "OP_PUSHNUM_1 OP_PUSHBYTES_32 add932594bbe26f957afc25598be54ddadaaeb0dc19938a18b2913d79704884a",
      "scriptpubkey_type": "v1_p2tr",
      "scriptpubkey_address": "bc1p4hvnyk2thcn0j4a0cf2e30j5mkk646cdcxvn3gvt9yfa09cy3p9qnae7mm",
      "value": 3234
    },
    {
      "scriptpubkey": "5120334df8c296c7b901d94f64dace04d5a99800f212c90180a2b08fff00f016d4f4",
      "scriptpubkey_asm": "OP_PUSHNUM_1 OP_PUSHBYTES_32 334df8c296c7b901d94f64dace04d5a99800f212c90180a2b08fff00f016d4f4",
      "scriptpubkey_type": "v1_p2tr",
      "scriptpubkey_address": "bc1pxdxl3s5kc7usrk20vndvupx44xvqpusjeyqcpg4s3llspuqk6n6q6c97fy",
      "value": 3248
    },
    {
      "scriptpubkey": "51200a433fcd8aab3d9a1d2a296ae04c13bfc9af34213026c2f8e45e3d329de33f63",
      "scriptpubkey_asm": "OP_PUSHNUM_1 OP_PUSHBYTES_32 0a433fcd8aab3d9a1d2a296ae04c13bfc9af34213026c2f8e45e3d329de33f63",
      "scriptpubkey_type": "v1_p2tr",
      "scriptpubkey_address": "bc1ppfpnlnv24v7e58f2994wqnqnhly67dppxqnv978ytc7n980r8a3suy96ph",
      "value": 3248
    },
    {
      "scriptpubkey": "5120daba40ec8017c825ba8c5cfabd30df52af163e167b3257d9a22c65ae9126e953",
      "scriptpubkey_asm": "OP_PUSHNUM_1 OP_PUSHBYTES_32 daba40ec8017c825ba8c5cfabd30df52af163e167b3257d9a22c65ae9126e953",
      "scriptpubkey_type": "v1_p2tr",
      "scriptpubkey_address": "bc1pm2aypmyqzlyztw5vtnat6vxl22h3v0sk0ve90kdz93j6ayfxa9fsynx8vw",
      "value": 3248
    },
    {
      "scriptpubkey": "5120c848dee5c8a08ff5c89900f278f7bc3dc2d30980e8d2f6a2675ea0c2976ae513",
      "scriptpubkey_asm": "OP_PUSHNUM_1 OP_PUSHBYTES_32 c848dee5c8a08ff5c89900f278f7bc3dc2d30980e8d2f6a2675ea0c2976ae513",
      "scriptpubkey_type": "v1_p2tr",
      "scriptpubkey_address": "bc1pepydaewg5z8ltjyeqre83aau8hpdxzvqarf0dgn8t6sv99m2u5fsp3t4ds",
      "value": 3248
    },
    {
      "scriptpubkey": "5120c248df01ceb28ac2554aa7b2cd4ec46b5fbf71aa0520b2285106885dfd15c9bd",
      "scriptpubkey_asm": "OP_PUSHNUM_1 OP_PUSHBYTES_32 c248df01ceb28ac2554aa7b2cd4ec46b5fbf71aa0520b2285106885dfd15c9bd",
      "scriptpubkey_type": "v1_p2tr",
      "scriptpubkey_address": "bc1pcfyd7qwwk29vy42257ev6nkydd0m7ud2q5sty2z3q6y9mlg4ex7sxpvrux",
      "value": 3248
    },
    {
      "scriptpubkey": "5120c6c670b21d8f737ed054ade69bcdb1784583a6b19aaab444c2ce4ae8cf690b47",
      "scriptpubkey_asm": "OP_PUSHNUM_1 OP_PUSHBYTES_32 c6c670b21d8f737ed054ade69bcdb1784583a6b19aaab444c2ce4ae8cf690b47",
      "scriptpubkey_type": "v1_p2tr",
      "scriptpubkey_address": "bc1pcmr8pvsa3aeha5z54hnfhnd30pzc8f43n24tg3xzee9w3nmfpdrs6p2exg",
      "value": 3248
    },
    {
      "scriptpubkey": "51209ff43aea5d116856124e69f5801bf75c76a8ea7e651ebe52c96b2dece5206dc7",
      "scriptpubkey_asm": "OP_PUSHNUM_1 OP_PUSHBYTES_32 9ff43aea5d116856124e69f5801bf75c76a8ea7e651ebe52c96b2dece5206dc7",
      "scriptpubkey_type": "v1_p2tr",
      "scriptpubkey_address": "bc1pnl6r46jaz959vyjwd86cqxlht3m236n7v50tu5kfdvk7eefqdhrsz0n4sr",
      "value": 3248
    },
    {
      "scriptpubkey": "5120a5d7a1cac572c02b608d629d26300655300bbb5de8e16c0b4fe6880d6c0b3563",
      "scriptpubkey_asm": "OP_PUSHNUM_1 OP_PUSHBYTES_32 a5d7a1cac572c02b608d629d26300655300bbb5de8e16c0b4fe6880d6c0b3563",
      "scriptpubkey_type": "v1_p2tr",
      "scriptpubkey_address": "bc1p5ht6rjk9wtqzkcydv2wjvvqx25cqhw6aarskcz60u6yq6mqtx43sneu5uj",
      "value": 3248
    },
    {
      "scriptpubkey": "5120c4c7874512562f81af1994cb5aceab3fb1241e66038bb03641d145eeabc45f5c",
      "scriptpubkey_asm": "OP_PUSHNUM_1 OP_PUSHBYTES_32 c4c7874512562f81af1994cb5aceab3fb1241e66038bb03641d145eeabc45f5c",
      "scriptpubkey_type": "v1_p2tr",
      "scriptpubkey_address": "bc1pcnrcw3gj2chcrtcejn944n4t87cjg8nxqw9mqdjp69z7a27ytawqyq4zdp",
      "value": 3248
    },
    {
      "scriptpubkey": "51206e0577f061409012fa9abfbdce470288ed5873f556d8a344016d4f896f1dcbdb",
      "scriptpubkey_asm": "OP_PUSHNUM_1 OP_PUSHBYTES_32 6e0577f061409012fa9abfbdce470288ed5873f556d8a344016d4f896f1dcbdb",
      "scriptpubkey_type": "v1_p2tr",
      "scriptpubkey_address": "bc1pdczh0urpgzgp9756h77uu3cz3rk4sul42mv2x3qpd48cjmcae0dsdy3c20",
      "value": 3248
    },
    {
      "scriptpubkey": "5120df050650314ad7e6c0eeecd998af7390f268f73237d860159d252a01337895b5",
      "scriptpubkey_asm": "OP_PUSHNUM_1 OP_PUSHBYTES_32 df050650314ad7e6c0eeecd998af7390f268f73237d860159d252a01337895b5",
      "scriptpubkey_type": "v1_p2tr",
      "scriptpubkey_address": "bc1pmuzsv5p3ftt7ds8wanve3tmnjrex3aejxlvxq9vay54qzvmcjk6s6ewcl0",
      "value": 3248
    },
    {
      "scriptpubkey": "512083d587946a23e45b1292753136df82deb4048a8eea7db4c3911862e87a27e803",
      "scriptpubkey_asm": "OP_PUSHNUM_1 OP_PUSHBYTES_32 83d587946a23e45b1292753136df82deb4048a8eea7db4c3911862e87a27e803",
      "scriptpubkey_type": "v1_p2tr",
      "scriptpubkey_address": "bc1ps02c09r2y0j9ky5jw5cndhuzm66qfz5waf7mfsu3rp3ws738aqpspkge8e",
      "value": 3248
    },
    {
      "scriptpubkey": "5120ffd2b1876722c5973ef699c112cddca9c327cd4f75c1fdccec7f8db4f304d2ec",
      "scriptpubkey_asm": "OP_PUSHNUM_1 OP_PUSHBYTES_32 ffd2b1876722c5973ef699c112cddca9c327cd4f75c1fdccec7f8db4f304d2ec",
      "scriptpubkey_type": "v1_p2tr",
      "scriptpubkey_address": "bc1pllftrpm8ytzew0hkn8q39nwu48pj0n20whqlmn8v07xmfucy6tkqx0eyh2",
      "value": 3248
    },
    {
      "scriptpubkey": "512066fad37cd412f68edac9bb07d8c47438b85fd4f45f831c30a01ee1e2e17d1d2f",
      "scriptpubkey_asm": "OP_PUSHNUM_1 OP_PUSHBYTES_32 66fad37cd412f68edac9bb07d8c47438b85fd4f45f831c30a01ee1e2e17d1d2f",
      "scriptpubkey_type": "v1_p2tr",
      "scriptpubkey_address": "bc1pvmadxlx5ztmgakkfhvra33r58zu9l485t7p3cv9qrms79ctar5hsdmyk0w",
      "value": 3248
    },
    {
      "scriptpubkey": "51201f8a4a023e0cf859a78d401dbe503913eeffcfc326e6ba31f458a933210fbbe6",
      "scriptpubkey_asm": "OP_PUSHNUM_1 OP_PUSHBYTES_32 1f8a4a023e0cf859a78d401dbe503913eeffcfc326e6ba31f458a933210fbbe6",
      "scriptpubkey_type": "v1_p2tr",
      "scriptpubkey_address": "bc1pr79y5q37pnu9nfudgqwmu5pez0h0ln7rymnt5v05tz5nxgg0h0nq9mnw9v",
      "value": 3248
    },
    {
      "scriptpubkey": "5120cd0f27c5ac0356819d88a1e887688e573f05f91dd01e9f517cc540e737e156a8",
      "scriptpubkey_asm": "OP_PUSHNUM_1 OP_PUSHBYTES_32 cd0f27c5ac0356819d88a1e887688e573f05f91dd01e9f517cc540e737e156a8",
      "scriptpubkey_type": "v1_p2tr",
      "scriptpubkey_address": "bc1pe58j03dvqdtgr8vg585gw6yw2ulst7ga6q0f75tuc4qwwdlp265qhztdr0",
      "value": 3234
    },
    {
      "scriptpubkey": "0014305697b2a9ef9a734cbe28f12ad4381b6079cdf2",
      "scriptpubkey_asm": "OP_0 OP_PUSHBYTES_20 305697b2a9ef9a734cbe28f12ad4381b6079cdf2",
      "scriptpubkey_type": "v0_p2wpkh",
      "scriptpubkey_address": "bc1qxptf0v4fa7d8xn979rcj44pcrds8nn0j5ca3dq",
      "value": 53710
    }
  ],
  "size": 1765,
  "weight": 5881,
  "fee": 20594,
  "status": {
    "confirmed": true,
    "block_height": 834460,
    "block_hash": "00000000000000000000484a79b643b2524bbce82e5d8a442013fa5b8905ed98",
    "block_time": 1710307468
  },
  "hex": "0200000000010140ea41dd49c1a31f74090498e393a841eaef664c1050fa9d1ecea8c22d6d27ee0000000000fdffffff1f220200000000000022512089a37e066c3bda9c253fac62850bcc044c1fe1116a76406331dff73315c8e1c6b00c000000000000225120b3a6d850453ea6dc52828423c9263c5d037808e8f52248d65bb1866fe9729848b00c000000000000225120e2ae177a97ef48998883d5aa1b536b20e32f45f2669208cfd4673f2293aa1ae8b00c0000000000002251201e9a095a29b05dce004975b2a13c259f8e3bffcd209ec2e1225349ae9eb447fab00c000000000000225120e29f95f0c86af7c38cabe98274501677c80d6addadaaac540d031e3b28ea35b9b00c000000000000225120fa51192a4be5575fb27917daac2797fa9ec3a919aa4dc6d58d802c4436530c16b00c0000000000002251206069e4a70e107d85748998a9857c1b98460202bffedddd9f230c1e75d1d1d116b00c000000000000225120e3df6c466c3f20cecca4da710143ca57826259c411831777cf48e4c6550866a0a20c0000000000002251204ef24f8c538b15e98d71b797b78eb586bb2d3dae045558421881b4e1cb8a04e7b00c0000000000002251203cc2dc969c985430b6005ba951bd0f432201b4e6c24e094d1368349dd47a9156b00c000000000000225120e084226e120a410f59ff426e57e355698c442bd8a81af8fb7dbcf6f7ff5aa82bb00c000000000000225120b76701ebe3e1c45b8c757f324859622d8e33a148cf493f3161a1d6f1d676e6e4b00c000000000000225120588f52685fa74e71b86c1a256691625ff65eddd50f40ae581d6a0440b31175bea20c000000000000225120add932594bbe26f957afc25598be54ddadaaeb0dc19938a18b2913d79704884ab00c000000000000225120334df8c296c7b901d94f64dace04d5a99800f212c90180a2b08fff00f016d4f4b00c0000000000002251200a433fcd8aab3d9a1d2a296ae04c13bfc9af34213026c2f8e45e3d329de33f63b00c000000000000225120daba40ec8017c825ba8c5cfabd30df52af163e167b3257d9a22c65ae9126e953b00c000000000000225120c848dee5c8a08ff5c89900f278f7bc3dc2d30980e8d2f6a2675ea0c2976ae513b00c000000000000225120c248df01ceb28ac2554aa7b2cd4ec46b5fbf71aa0520b2285106885dfd15c9bdb00c000000000000225120c6c670b21d8f737ed054ade69bcdb1784583a6b19aaab444c2ce4ae8cf690b47b00c0000000000002251209ff43aea5d116856124e69f5801bf75c76a8ea7e651ebe52c96b2dece5206dc7b00c000000000000225120a5d7a1cac572c02b608d629d26300655300bbb5de8e16c0b4fe6880d6c0b3563b00c000000000000225120c4c7874512562f81af1994cb5aceab3fb1241e66038bb03641d145eeabc45f5cb00c0000000000002251206e0577f061409012fa9abfbdce470288ed5873f556d8a344016d4f896f1dcbdbb00c000000000000225120df050650314ad7e6c0eeecd998af7390f268f73237d860159d252a01337895b5b00c00000000000022512083d587946a23e45b1292753136df82deb4048a8eea7db4c3911862e87a27e803b00c000000000000225120ffd2b1876722c5973ef699c112cddca9c327cd4f75c1fdccec7f8db4f304d2ecb00c00000000000022512066fad37cd412f68edac9bb07d8c47438b85fd4f45f831c30a01ee1e2e17d1d2fb00c0000000000002251201f8a4a023e0cf859a78d401dbe503913eeffcfc326e6ba31f458a933210fbbe6a20c000000000000225120cd0f27c5ac0356819d88a1e887688e573f05f91dd01e9f517cc540e737e156a8ced1000000000000160014305697b2a9ef9a734cbe28f12ad4381b6079cdf20340357c3acc8a2d1adc684826ecf9262e778fd28ac72ccdca58c5bc3eab597de7ac042c2ebe6b28021ccb10e6d533cac11b9a4b4dac8943ea400e47342edfa6aa5ffd20012056dfbb8519668271df8afc95b3af43cff17314bd326a1f95a2393534e10a534bac0063036f726401011e6170706c69636174696f6e2f6a736f6e3b636861727365743d7574662d38004cd37b2270223a22706f772d3230222c226f70223a226d696e74222c227469636b223a2250455045222c22616d74223a2231303030222c22736f6c7574696f6e223a22504550453a626331703378336875706e76383064666366666c34333367327a3776713378706c63673364666d79716365336d6c6d6e78397767753872717265763032653a303030303030303030303030303030303030303139393431613561653132383937363539383134343239323533333030353762306461393666336465613163353a3330323930383733313930227d6821c1bf69a78b1b6433fca38fda21525e43a6c565682ca08e513a8f66feb66872393000000000"
}