{
  "txid": "e8396e868c8f1b39599a5194d2e20e7f6fe7f7b61612f6ea95a924e7862b2bc3",
  "version": 2,
  "locktime": 0,
  "vin": [
    {
      "txid": "90bff056b891ee2b77453c8613feb124698d5cd0d7571082c72e2bb005a1a795",
      "vout": 64,
      "prevout": {
        "scriptpubkey": "512006e10184ceff11fdb27518ea09b2193f50585dff754ae25bacef98a2cc9b920f",
        "scriptpubkey_asm": "OP_PUSHNUM_1 OP_PUSHBYTES_32 06e10184ceff11fdb27518ea09b2193f50585dff754ae25bacef98a2cc9b920f",
        "scriptpubkey_type": "v1_p2tr",
        "scriptpubkey_address": "bc1pqmssrpxwluglmvn4rr4qnvse8ag9sh0lw49wykava7v29nymjg8sqnv00g",
        "value": 10000
      },
      "scriptsig": "",
      "scriptsig_asm": "",
      "witness": [
        "cc080ca76c7b0641f8d69a3f8739d19d1bac88c9d9c3ef1e56d3aa4938fc1858a764737aca66b86da222e45b44a3fcad08381f97bf8846e85e88591a957889a1"
      ],
      "is_coinbase": false,
      "sequence": 4294967293
    },
    {
      "txid": "aa40c5a61dde4676853f38d284aa66e924d4d063dd23a63eb779278afaa3c504",
      "vout": 1,
      "prevout": {
        "scriptpubkey": "a91444b2c2c599dbfdb9dcccbcd155780466a17265a187",
        "scriptpubkey_asm": "OP_HASH160 OP_PUSHBYTES_20 44b2c2c599dbfdb9dcccbcd155780466a17265a1 OP_EQUAL",
        "scriptpubkey_type": "p2sh",
        "scriptpubkey_address": "37xG27EVCwe8TKsutGC2dNYPR2aMRTUtd7",
        "value": 203028
      },
      "scriptsig": "1600140f1c83b7ea9e7fefd2b10aac8c680ede85e3d50f",
      "scriptsig_asm": "OP_PUSHBYTES_22 00140f1c83b7ea9e7fefd2b10aac8c680ede85e3d50f",
      "witness": [
        "3045022100dde2da94f7e3255b43d83dd0afc0375776e0c2054ed69f899852bff85dd08e1002202ec4dff43b0060d9a40a0141f3202174dcb3592c6e103b6d03e42ae0f05180ef01",
        "032efcd4fd0e251037171e8052c58a15ae55f8f959e13948555586147ebe7aa623"
      ],
      "is_coinbase": false,
      "sequence": 4294967293,
      "inner_redeemscript_asm": "OP_0 OP_PUSHBYTES_20 0f1c83b7ea9e7fefd2b10aac8c680ede85e3d50f"
    }
  ],
  "vout": [
    {
      "scriptpubkey": "51207626d14b1403cd6fc869f694f93e680dfa7de4d596498f4446626eb853d724ac",
      "scriptpubkey_asm": "OP_PUSHNUM_1 OP_PUSHBYTES_32 7626d14b1403cd6fc869f694f93e680dfa7de4d596498f4446626eb853d724ac",
      "scriptpubkey_type": "v1_p2tr",
      "scriptpubkey_address": "bc1pwcndzjc5q0xkljrf7620j0ngpha8mex4jeyc73zxvfhts57hyjkqsmj3c0",
      "value": 10000
    },
    {
      "scriptpubkey": "a91444b2c2c599dbfdb9dcccbcd155780466a17265a187",
      "scriptpubkey_asm": "OP_HASH160 OP_PUSHBYTES_20 44b2c2c599dbfdb9dcccbcd155780466a17265a1 OP_EQUAL",
      "scriptpubkey_type": "p2sh",
      "scriptpubkey_address": "37xG27EVCwe8TKsutGC2dNYPR2aMRTUtd7",
      "value": 201159
    }
  ],
  "size": 366,
  "weight": 936,
  "fee": 1869,
  "status": {
    "confirmed": true,
    "block_height": 834464,
    "block_hash": "0000000000000000000177a0869a911a2b65c9bdcd5a8bcb02b68f305bee848e",
    "block_time": 1710308296
  },
  "hex": "0200000000010295a7a105b02b2ec7821057d7d05c8d6924b1fe13863c45772bee91b856f0bf904000000000fdffffff04c5a3fa8a2779b73ea623dd63d0d424e966aa84d2383f857646de1da6c540aa01000000171600140f1c83b7ea9e7fefd2b10aac8c680ede85e3d50ffdffffff0210270000000000002251207626d14b1403cd6fc869f694f93e680dfa7de4d596498f4446626eb853d724acc71103000000000017a91444b2c2c599dbfdb9dcccbcd155780466a17265a1870140cc080ca76c7b0641f8d69a3f8739d19d1bac88c9d9c3ef1e56d3aa4938fc1858a764737aca66b86da222e45b44a3fcad08381f97bf8846e85e88591a957889a102483045022100dde2da94f7e3255b43d83dd0afc0375776e0c2054ed69f899852bff85dd08e1002202ec4dff43b0060d9a40a0141f3202174dcb3592c6e103b6d03e42ae0f05180ef0121032efcd4fd0e251037171e8052c58a15ae55f8f959e13948555586147ebe7aa62300000000"
}