{
  "txid": "e846a28d93f56652b27e8b994a0af7bbdf7adaae2d5fdd6c3c70a508b5d07dd6",
  "version": 1,
  "locktime": 0,
  "vin": [
    {
      "txid": "848aa6cdca4c86e19cb59db91c6e92b90ad1941d6da2c7056f6e5937551ccbf1",
      "vout": 0,
      "prevout": {
        "scriptpubkey": "76a914eaab539f94996aa8a31345adc57031848b2b57ea88ac",
        "scriptpubkey_asm": "OP_DUP OP_HASH160 OP_PUSHBYTES_20 eaab539f94996aa8a31345adc57031848b2b57ea OP_EQUALVERIFY OP_CHECKSIG",
        "scriptpubkey_type": "p2pkh",
        "scriptpubkey_address": "1NPpMsdUbT8E2fX1qzFxV3dU1ecTjwe7SD",
        "value": 1000000000
      },
      "scriptsig": "483045022100c4a9616dad480bd3ff3a157a6b13ed0afa2f6255b4de822cf9fa72c135f6e4a102200eb0957b90d5bf1c547785e3987ef9c9b6b8e6a079e92ddfad27d3a6cf8ce9090121035a3dc1ea80476580903d994a9e4f7e250412e03927a0bd68c1e8c44e0b173865",
      "scriptsig_asm": "OP_PUSHBYTES_72 3045022100c4a9616dad480bd3ff3a157a6b13ed0afa2f6255b4de822cf9fa72c135f6e4a102200eb0957b90d5bf1c547785e3987ef9c9b6b8e6a079e92ddfad27d3a6cf8ce90901 OP_PUSHBYTES_33 035a3dc1ea80476580903d994a9e4f7e250412e03927a0bd68c1e8c44e0b173865",
      "is_coinbase": false,
      "sequence": 4294967295
    },
    {
      "txid": "83c6d367d44974ca84312f3ed64bd57cfb44682ddfae49021c2e380615c75270",
      "vout": 1,
      "prevout": {
        "scriptpubkey": "0014f7052f9bc27916ec254518aa31fb080ff248883a",
        "scriptpubkey_asm": "OP_0 OP_PUSHBYTES_20 f7052f9bc27916ec254518aa31fb080ff248883a",
        "scriptpubkey_type": "v0_p2wpkh",
        "scriptpubkey_address": "bc1q7uzjlx7z0ytwcf29rz4rr7cgpley3zp62mpry9",
        "value": 1623361048
      },
      "scriptsig": "",
      "scriptsig_asm": "",
      "witness": [
        "3044022037e9bf41a560f7506d368a945deab36c7b83733181e07ac84a0297c8b85a683f022026b74030b978bc3c286620fe7d71bfc4ebb34eb5655e3c62023cb5d71927d57901",
        "03015f99a5077a35004f7257644a9f26cec29b7c0d73c7166c065d8af2f99c5762"
      ],
      "is_coinbase": false,
      "sequence": 4294967295
    },
    {
      "txid": "d1361428b78f9fc36995843888abcf1d1e6c837518509be1591b01b1b79d6ed5",
      "vout": 1,
      "prevout": {
        "scriptpubkey": "0014f7052f9bc27916ec254518aa31fb080ff248883a",
        "scriptpubkey_asm": "OP_0 OP_PUSHBYTES_20 f7052f9bc27916ec254518aa31fb080ff248883a",
        "scriptpubkey_type": "v0_p2wpkh",
        "scriptpubkey_address": "bc1q7uzjlx7z0ytwcf29rz4rr7cgpley3zp62mpry9",
        "value": 6228595597
      },
      "scriptsig": "",
      "scriptsig_asm": "",
      "witness": [
        "3045022100da65086a4a9cbad12bc6f4e39e3c4717e1f0166d16e9e0170700dbba34761065022073c4951c9551c588bba6c5dee01feee1b1caffba6c618fb74d7847bd898170a101",
        "03015f99a5077a35004f7257644a9f26cec29b7c0d73c7166c065d8af2f99c5762"
      ],
      "is_coinbase": false,
      "sequence": 4294967295
    }
  ],
  "vout": [
    {
      "scriptpubkey": "00144f516b4202bedfbf1bc6c4453fdaedc761917202",
      "scriptpubkey_asm": "OP_0 OP_PUSHBYTES_20 4f516b4202bedfbf1bc6c4453fdaedc761917202",
      "scriptpubkey_type": "v0_p2wpkh",
      "scriptpubkey_address": "bc1qfagkksszhm0m7x7xc3znlkhdcasezusz3g89yn",
      "value": 2900000000
    },
    {
      "scriptpubkey": "0014f7052f9bc27916ec254518aa31fb080ff248883a",
      "scriptpubkey_asm": "OP_0 OP_PUSHBYTES_20 f7052f9bc27916ec254518aa31fb080ff248883a",
      "scriptpubkey_type": "v0_p2wpkh",
      "scriptpubkey_address": "bc1q7uzjlx7z0ytwcf29rz4rr7cgpley3zp62mpry9",
      "value": 5951950183
    }
  ],
  "size": 520,
  "weight": 1426,
  "fee": 6462,
  "status": {
    "confirmed": true,
    "block_height": 834638,
    "block_hash": "000000000000000000025f742c626208ac87e0b7d15054abb4a19ca2d735a54e",
    "block_time": 1710405325
  },
  "hex": "01000000000103f1cb1c5537596e6f05c7a26d1d94d10ab9926e1cb99db59ce1864ccacda68a84000000006b483045022100c4a9616dad480bd3ff3a157a6b13ed0afa2f6255b4de822cf9fa72c135f6e4a102200eb0957b90d5bf1c547785e3987ef9c9b6b8e6a079e92ddfad27d3a6cf8ce9090121035a3dc1ea80476580903d994a9e4f7e250412e03927a0bd68c1e8c44e0b173865ffffffff7052c71506382e1c0249aedf2d6844fb7cd54bd63e2f3184ca7449d467d3c6830100000000ffffffffd56e9db7b1011b59e19b501875836c1e1dcfab8838849569c39f8fb7281436d10100000000ffffffff02007ddaac000000001600144f516b4202bedfbf1bc6c4453fdaedc761917202678dc36201000000160014f7052f9bc27916ec254518aa31fb080ff248883a0002473044022037e9bf41a560f7506d368a945deab36c7b83733181e07ac84a0297c8b85a683f022026b74030b978bc3c286620fe7d71bfc4ebb34eb5655e3c62023cb5d71927d579012103015f99a5077a35004f7257644a9f26cec29b7c0d73c7166c065d8af2f99c576202483045022100da65086a4a9cbad12bc6f4e39e3c4717e1f0166d16e9e0170700dbba34761065022073c4951c9551c588bba6c5dee01feee1b1caffba6c618fb74d7847bd898170a1012103015f99a5077a35004f7257644a9f26cec29b7c0d73c7166c065d8af2f99c576200000000"
}