{
  "txid": "e87429659187d346236bf1e487866e6a1a0765195aba3ba6e9d9b5fe4fd7ecdb",
  "version": 2,
  "locktime": 0,
  "vin": [
    {
      "txid": "f08f4b88c096083cd96a75498d4bb91236e4e84fe0965508c8b8a2432c2ad5eb",
      "vout": 17,
      "prevout": {
        "scriptpubkey": "512020577c513e13e74e2cf3d66fdd8d0693f5e80c017a3a570aec1886dae1ec01ce",
        "scriptpubkey_asm": "OP_PUSHNUM_1 OP_PUSHBYTES_32 20577c513e13e74e2cf3d66fdd8d0693f5e80c017a3a570aec1886dae1ec01ce",
        "scriptpubkey_type": "v1_p2tr",
        "scriptpubkey_address": "bc1pypthc5f7z0n5ut8n6ehamrgxj067srqp0ga9wzhvrzrd4c0vq88q0y407s",
        "value": 1859
      },
      "scriptsig": "",
      "scriptsig_asm": "",
      "witness": [
        "c379f5292069b581af5fade230bc709de86ba0833689a8cfba789b69c1c85054a9a1a8fbfee6f9a2cd9831f250ba4e56e6aaafe3d269ee875048b1ad4e2f2829",
        "202a5c099b16248aa55e55b12d37eb39d60f61901fe5551772fce2687891c2b0fdac0063036f7264010118746578742f706c61696e3b636861727365743d7574662d3800357b2270223a226272632d3230222c226f70223a226d696e74222c227469636b223a22646f6765222c22616d74223a2234323030227d68",
        "c0a1b8f27720bdb58312407ff108aa0a8a79eb6ade7272753df37ca3add73a736a"
      ],
      "is_coinbase": false,
      "sequence": 4294967295
    }
  ],
  "vout": [
    {
      "scriptpubkey": "00149e8548cc69df89adefb3c19ee6963818466a179d",
      "scriptpubkey_asm": "OP_0 OP_PUSHBYTES_20 9e8548cc69df89adefb3c19ee6963818466a179d",
      "scriptpubkey_type": "v0_p2wpkh",
      "scriptpubkey_address": "bc1qn6z53nrfm7y6mmancx0wd93crprx59uau9ymz7",
      "value": 330
    }
  ],
  "size": 308,
  "weight": 554,
  "fee": 1529,
  "status": {
    "confirmed": true,
    "block_height": 834464,
    "block_hash": "0000000000000000000177a0869a911a2b65c9bdcd5a8bcb02b68f305bee848e",
    "block_time": 1710308296
  },
  "hex": "02000000000101ebd52a2c43a2b8c8085596e04fe8e43612b94b8d49756ad93c0896c0884b8ff01100000000ffffffff014a010000000000001600149e8548cc69df89adefb3c19ee6963818466a179d0340c379f5292069b581af5fade230bc709de86ba0833689a8cfba789b69c1c85054a9a1a8fbfee6f9a2cd9831f250ba4e56e6aaafe3d269ee875048b1ad4e2f28297b202a5c099b16248aa55e55b12d37eb39d60f61901fe5551772fce2687891c2b0fdac0063036f7264010118746578742f706c61696e3b636861727365743d7574662d3800357b2270223a226272632d3230222c226f70223a226d696e74222c227469636b223a22646f6765222c22616d74223a2234323030227d6821c0a1b8f27720bdb58312407ff108aa0a8a79eb6ade7272753df37ca3add73a736a00000000"
}