{
  "txid": "e8767a2d0201007cc3f195d20d509de95b9aa6a1bcc8ca0240ea2f7618af4f88",
  "version": 2,
  "locktime": 0,
  "vin": [
    {
      "txid": "12848a1f84ad552475e874cce291926f292412de23b7537898e98c7370f2e86c",
      "vout": 22,
      "prevout": {
        "scriptpubkey": "512040c00f419d01c604377a572be02d86afb9411d3f2c3a43dd2c5c7d2ec64f3e80",
        "scriptpubkey_asm": "OP_PUSHNUM_1 OP_PUSHBYTES_32 40c00f419d01c604377a572be02d86afb9411d3f2c3a43dd2c5c7d2ec64f3e80",
        "scriptpubkey_type": "v1_p2tr",
        "scriptpubkey_address": "bc1pgrqq7svaq8rqgdm62u47qtvx47u5z8fl9say8hfvt37ja3j086qqqncfmt",
        "value": 2358
      },
      "scriptsig": "",
      "scriptsig_asm": "",
      "witness": [
        "f4985c350e7372202e4cb6a8c32a5f8e38e17a9d3b0114256c632235a5d4839b9df011d1bea74bf489a94fa4f279fe2dbe754bb1ee652f35bd5f73dffbc06d44",
        "208c331d0ac4f905a873fb16683a0fc52f1d034666fd543907330b38f1085706f7ac0063036f7264010118746578742f706c61696e3b636861727365743d7574662d3800377b2270223a226272632d3230222c226f70223a226d696e74222c227469636b223a22424f424f222c22616d74223a22313030303030227d68",
        "c1507504f881a2548efcb0bd8b5287fd78c473d5bd35b181abdd5c5cd6d10de204"
      ],
      "is_coinbase": false,
      "sequence": 4294967295
    }
  ],
  "vout": [
    {
      "scriptpubkey": "512048d62e6aa4ce9b4b4d760b1dc0c3e46b46d84be76ae456792a664139e7aaa19c",
      "scriptpubkey_asm": "OP_PUSHNUM_1 OP_PUSHBYTES_32 48d62e6aa4ce9b4b4d760b1dc0c3e46b46d84be76ae456792a664139e7aaa19c",
      "scriptpubkey_type": "v1_p2tr",
      "scriptpubkey_address": "bc1pfrtzu64ye6d5kntkpvwupslyddrdsjl8dtj9v7f2veqnnea25xwqu8ycu4",
      "value": 546
    }
  ],
  "size": 322,
  "weight": 604,
  "fee": 1812,
  "status": {
    "confirmed": true,
    "block_height": 834460,
    "block_hash": "00000000000000000000484a79b643b2524bbce82e5d8a442013fa5b8905ed98",
    "block_time": 1710307468
  },
  "hex": "020000000001016ce8f270738ce9987853b723de1224296f9291e2cc74e8752455ad841f8a84121600000000ffffffff01220200000000000022512048d62e6aa4ce9b4b4d760b1dc0c3e46b46d84be76ae456792a664139e7aaa19c0340f4985c350e7372202e4cb6a8c32a5f8e38e17a9d3b0114256c632235a5d4839b9df011d1bea74bf489a94fa4f279fe2dbe754bb1ee652f35bd5f73dffbc06d447d208c331d0ac4f905a873fb16683a0fc52f1d034666fd543907330b38f1085706f7ac0063036f7264010118746578742f706c61696e3b636861727365743d7574662d3800377b2270223a226272632d3230222c226f70223a226d696e74222c227469636b223a22424f424f222c22616d74223a22313030303030227d6821c1507504f881a2548efcb0bd8b5287fd78c473d5bd35b181abdd5c5cd6d10de20400000000"
}