{
  "txid": "e88149bef1cf7f539db9266c2329f1469f128823e45fbc33f2ad7210d3a7203b",
  "version": 2,
  "locktime": 0,
  "vin": [
    {
      "txid": "5cba604b58fe5dc9877b356800aed46afa731c5546ff56b331db6fdc62a12058",
      "vout": 0,
      "prevout": {
        "scriptpubkey": "76a914e1376cc50b6fa4f6684c2c4a1163da9b8cdd34e088ac",
        "scriptpubkey_asm": "OP_DUP OP_HASH160 OP_PUSHBYTES_20 e1376cc50b6fa4f6684c2c4a1163da9b8cdd34e0 OP_EQUALVERIFY OP_CHECKSIG",
        "scriptpubkey_type": "p2pkh",
        "scriptpubkey_address": "1MXqS9i464jWgTHFMmy1UkWd1YLKwr1s7D",
        "value": 115691
      },
      "scriptsig": "47304402201da8ef6113c5535f324e9c580c45e3aa1a15f52de14b593b474bd02d8f971fc502206fc36e4d95b3d490db562e68f8552bba62139af0236609c982f16d1f1edcaf31012103bb4002cc181894a6aabd37b75174ec529b0709a7b2e1a0c25e376c0f1cffbd34",
      "scriptsig_asm": "OP_PUSHBYTES_71 304402201da8ef6113c5535f324e9c580c45e3aa1a15f52de14b593b474bd02d8f971fc502206fc36e4d95b3d490db562e68f8552bba62139af0236609c982f16d1f1edcaf3101 OP_PUSHBYTES_33 03bb4002cc181894a6aabd37b75174ec529b0709a7b2e1a0c25e376c0f1cffbd34",
      "is_coinbase": false,
      "sequence": 4294967295
    }
  ],
  "vout": [
    {
      "scriptpubkey": "76a914b89ba4297ca6b65f4146ea055b217ab09e43069d88ac",
      "scriptpubkey_asm": "OP_DUP OP_HASH160 OP_PUSHBYTES_20 b89ba4297ca6b65f4146ea055b217ab09e43069d OP_EQUALVERIFY OP_CHECKSIG",
      "scriptpubkey_type": "p2pkh",
      "scriptpubkey_address": "1Hq7nSaVYWgpFovUDxLtJEZfarZtACysYc",
      "value": 110904
    }
  ],
  "size": 191,
  "weight": 764,
  "fee": 4787,
  "status": {
    "confirmed": true,
    "block_height": 834464,
    "block_hash": "0000000000000000000177a0869a911a2b65c9bdcd5a8bcb02b68f305bee848e",
    "block_time": 1710308296
  },
  "hex": "02000000015820a162dc6fdb31b356ff46551c73fa6ad4ae0068357b87c95dfe584b60ba5c000000006a47304402201da8ef6113c5535f324e9c580c45e3aa1a15f52de14b593b474bd02d8f971fc502206fc36e4d95b3d490db562e68f8552bba62139af0236609c982f16d1f1edcaf31012103bb4002cc181894a6aabd37b75174ec529b0709a7b2e1a0c25e376c0f1cffbd34ffffffff0138b10100000000001976a914b89ba4297ca6b65f4146ea055b217ab09e43069d88ac00000000"
}