{
  "txid": "e889b04c26ced952e274295c361b8ac091675a74d1676a5476b6b59f3bb863f8",
  "version": 1,
  "locktime": 0,
  "vin": [
    {
      "txid": "bf9d7d8ba8e24eeedcaaabf6bd1fad31a12790b0c9443e8f7e927cb9f43b775c",
      "vout": 4,
      "prevout": {
        "scriptpubkey": "a9144e8f03cf9d81470c53adef204a91bef2d5e129cc87",
        "scriptpubkey_asm": "OP_HASH160 OP_PUSHBYTES_20 4e8f03cf9d81470c53adef204a91bef2d5e129cc OP_EQUAL",
        "scriptpubkey_type": "p2sh",
        "scriptpubkey_address": "38rPxMYg3vd2vL8qoYNxoBdCEaLLemyYLw",
        "value": 90329233
      },
      "scriptsig": "1600141544785bcd981ef925855de4f185b6f6be48f6c2",
      "scriptsig_asm": "OP_PUSHBYTES_22 00141544785bcd981ef925855de4f185b6f6be48f6c2",
      "witness": [
        "304502210087c73f8b0a5e690f05c2cfb6fdea3db5b85a33022ae667b299f6ab4955b53c5e022006749877b5c89970db00ef322eb747b9aa01439c7d70ca99d56163271306350a01",
        "02e69a2c43df0ceb52920efa905434b7e4c1e18f97cb7b66e1153f9d8bfceff2d9"
      ],
      "is_coinbase": false,
      "sequence": 4294967295,
      "inner_redeemscript_asm": "OP_0 OP_PUSHBYTES_20 1544785bcd981ef925855de4f185b6f6be48f6c2"
    }
  ],
  "vout": [
    {
      "scriptpubkey": "a91414b17cadcb2a6bec0c81ad04816e01bb4b13bd0887",
      "scriptpubkey_asm": "OP_HASH160 OP_PUSHBYTES_20 14b17cadcb2a6bec0c81ad04816e01bb4b13bd08 OP_EQUAL",
      "scriptpubkey_type": "p2sh",
      "scriptpubkey_address": "33aS4PseumNC6EDzwUEc9FSgxtre6dqwfY",
      "value": 87877611
    },
    {
      "scriptpubkey": "a9144c8a705916424523824c36a1187bbaf2179e86af87",
      "scriptpubkey_asm": "OP_HASH160 OP_PUSHBYTES_20 4c8a705916424523824c36a1187bbaf2179e86af OP_EQUAL",
      "scriptpubkey_type": "p2sh",
      "scriptpubkey_address": "38fj82K7z1LyztfZEHFPpm2abvG3jVNMz2",
      "value": 144000
    },
    {
      "scriptpubkey": "0014552a2bba88cb6742d2a2cc6e592831562d3d5f8e",
      "scriptpubkey_asm": "OP_0 OP_PUSHBYTES_20 552a2bba88cb6742d2a2cc6e592831562d3d5f8e",
      "scriptpubkey_type": "v0_p2wpkh",
      "scriptpubkey_address": "bc1q254zhw5gedn5954ze3h9j2p32ckn6huwvrncvp",
      "value": 474997
    },
    {
      "scriptpubkey": "0014006ca8cd0b10696abf5bb0d8d3dbab4373de3c80",
      "scriptpubkey_asm": "OP_0 OP_PUSHBYTES_20 006ca8cd0b10696abf5bb0d8d3dbab4373de3c80",
      "scriptpubkey_type": "v0_p2wpkh",
      "scriptpubkey_address": "bc1qqpk23ngtzp5k406mkrvd8katgdeau0yqrwsku7",
      "value": 190926
    },
    {
      "scriptpubkey": "0014c22b9e6d618e12f7c78683c602acef579f4686de",
      "scriptpubkey_asm": "OP_0 OP_PUSHBYTES_20 c22b9e6d618e12f7c78683c602acef579f4686de",
      "scriptpubkey_type": "v0_p2wpkh",
      "scriptpubkey_address": "bc1qcg4eumtp3cf003uxs0rq9t802705dpk72nukcj",
      "value": 525708
    },
    {
      "scriptpubkey": "00146db03aed6595ef8ea9346286bec25e8a2804c69d",
      "scriptpubkey_asm": "OP_0 OP_PUSHBYTES_20 6db03aed6595ef8ea9346286bec25e8a2804c69d",
      "scriptpubkey_type": "v0_p2wpkh",
      "scriptpubkey_address": "bc1qdkcr4mt9jhhca2f5v2rtasj73g5qf35auaehqe",
      "value": 175398
    },
    {
      "scriptpubkey": "00141181c79cc291ed3a2163819e1e868ed833a466bf",
      "scriptpubkey_asm": "OP_0 OP_PUSHBYTES_20 1181c79cc291ed3a2163819e1e868ed833a466bf",
      "scriptpubkey_type": "v0_p2wpkh",
      "scriptpubkey_address": "bc1qzxqu08xzj8kn5gtrsx0pap5wmqe6ge4lt8udhl",
      "value": 86668
    },
    {
      "scriptpubkey": "0014dc16dbff4f11b5a254d9bf96fdc1148c45eba9ed",
      "scriptpubkey_asm": "OP_0 OP_PUSHBYTES_20 dc16dbff4f11b5a254d9bf96fdc1148c45eba9ed",
      "scriptpubkey_type": "v0_p2wpkh",
      "scriptpubkey_address": "bc1qmstdhl60zx66y4xeh7t0msg533z7h20d8sus0k",
      "value": 582522
    },
    {
      "scriptpubkey": "00140246473d4ef6992672b2e06d84cc8b97d2962c8c",
      "scriptpubkey_asm": "OP_0 OP_PUSHBYTES_20 0246473d4ef6992672b2e06d84cc8b97d2962c8c",
      "scriptpubkey_type": "v0_p2wpkh",
      "scriptpubkey_address": "bc1qqfryw02w76vjvu4jupkcfnytjlffvtyvrge595",
      "value": 39441
    },
    {
      "scriptpubkey": "001475cf535bfc332ad1e2a2918fac00c2ff88e49231",
      "scriptpubkey_asm": "OP_0 OP_PUSHBYTES_20 75cf535bfc332ad1e2a2918fac00c2ff88e49231",
      "scriptpubkey_type": "v0_p2wpkh",
      "scriptpubkey_address": "bc1qwh84xkluxv4drc4zjx86cqxzl7ywfy33zwwfw7",
      "value": 21000
    },
    {
      "scriptpubkey": "0014a18cadf372deb26a6ba819d26212f0a56a20bda1",
      "scriptpubkey_asm": "OP_0 OP_PUSHBYTES_20 a18cadf372deb26a6ba819d26212f0a56a20bda1",
      "scriptpubkey_type": "v0_p2wpkh",
      "scriptpubkey_address": "bc1q5xx2mumjm6ex56agr8fxyyhs544zp0dp7pl8fh",
      "value": 196779
    }
  ],
  "size": 527,
  "weight": 1778,
  "fee": 14183,
  "status": {
    "confirmed": true,
    "block_height": 834460,
    "block_hash": "00000000000000000000484a79b643b2524bbce82e5d8a442013fa5b8905ed98",
    "block_time": 1710307468
  },
  "hex": "010000000001015c773bf4b97c927e8f3e44c9b09027a131ad1fbdf6abaadcee4ee2a88b7d9dbf04000000171600141544785bcd981ef925855de4f185b6f6be48f6c2ffffffff0bebe73c050000000017a91414b17cadcb2a6bec0c81ad04816e01bb4b13bd0887803202000000000017a9144c8a705916424523824c36a1187bbaf2179e86af87753f070000000000160014552a2bba88cb6742d2a2cc6e592831562d3d5f8ecee9020000000000160014006ca8cd0b10696abf5bb0d8d3dbab4373de3c808c05080000000000160014c22b9e6d618e12f7c78683c602acef579f4686de26ad0200000000001600146db03aed6595ef8ea9346286bec25e8a2804c69d8c520100000000001600141181c79cc291ed3a2163819e1e868ed833a466bf7ae3080000000000160014dc16dbff4f11b5a254d9bf96fdc1148c45eba9ed119a0000000000001600140246473d4ef6992672b2e06d84cc8b97d2962c8c085200000000000016001475cf535bfc332ad1e2a2918fac00c2ff88e49231ab00030000000000160014a18cadf372deb26a6ba819d26212f0a56a20bda10248304502210087c73f8b0a5e690f05c2cfb6fdea3db5b85a33022ae667b299f6ab4955b53c5e022006749877b5c89970db00ef322eb747b9aa01439c7d70ca99d56163271306350a012102e69a2c43df0ceb52920efa905434b7e4c1e18f97cb7b66e1153f9d8bfceff2d900000000"
}