{
  "txid": "e89caa31fc4edc8bf78c98461103ea56c2d366c13ff35002f3f90693eb36bade",
  "version": 2,
  "locktime": 834637,
  "vin": [
    {
      "txid": "b34374e10f4ff63989d05b7fc40dfd93d8afc2cea1f85848f8040bdc9f57bcb3",
      "vout": 8,
      "prevout": {
        "scriptpubkey": "00144ba7f3399ff9402ed5b6b8557ad9135c87787668",
        "scriptpubkey_asm": "OP_0 OP_PUSHBYTES_20 4ba7f3399ff9402ed5b6b8557ad9135c87787668",
        "scriptpubkey_type": "v0_p2wpkh",
        "scriptpubkey_address": "bc1qfwnlxwvll9qza4dkhp2h4kgntjrhsang0cmcrn",
        "value": 301439
      },
      "scriptsig": "",
      "scriptsig_asm": "",
      "witness": [
        "30440220361778d90e5845b924e2a2a89df07a5bd7087a8960bc89c220d23ff7f828be6f02207800a5ab04734137d4895cb2a03838008b769e08816abb3b4f3d1ad716e0757e01",
        "036dea957d4003582b295461cd15dab9ad87b569097c1ff716f1d248466317da85"
      ],
      "is_coinbase": false,
      "sequence": 4294967294
    },
    {
      "txid": "37eaab01a49b55b01ff7aa089724aca6eccb4a7d61dd6df41836d8b2f2598b98",
      "vout": 154,
      "prevout": {
        "scriptpubkey": "0014238ed3a47c09f3d0f7f09c9879181d159e61b4ba",
        "scriptpubkey_asm": "OP_0 OP_PUSHBYTES_20 238ed3a47c09f3d0f7f09c9879181d159e61b4ba",
        "scriptpubkey_type": "v0_p2wpkh",
        "scriptpubkey_address": "bc1qyw8d8frup8eapalsnjv8jxqazk0xrd96y5eje7",
        "value": 10585
      },
      "scriptsig": "",
      "scriptsig_asm": "",
      "witness": [
        "304402207db79e6933736f0e165e774aa123eca1bc016c0a198645022444cfade5de7621022045317f5d2411ab8e422656e467f4b89012f293ffa6627f8da087d3536163b4b901",
        "02a33efc4762ca1d8195246d4d844dabe1cbf5988d87aa593b97da78d74cb42020"
      ],
      "is_coinbase": false,
      "sequence": 4294967294
    },
    {
      "txid": "4ffb2c260001de79b44fc4c97e21609d29508bd22528f8226dbef4c35c96dbf9",
      "vout": 79,
      "prevout": {
        "scriptpubkey": "0014918b0cb9d3214f901a3095b13e2bc1517a8cb9d8",
        "scriptpubkey_asm": "OP_0 OP_PUSHBYTES_20 918b0cb9d3214f901a3095b13e2bc1517a8cb9d8",
        "scriptpubkey_type": "v0_p2wpkh",
        "scriptpubkey_address": "bc1qjx9sewwny98eqx3sjkcnu27p29agewwcxy5626",
        "value": 76000
      },
      "scriptsig": "",
      "scriptsig_asm": "",
      "witness": [
        "304402206c99c371e8c573d449c6bc154131a5bd76b89b6f528c19c2952ba1b37b72751c022063a46e9e30dbe9f6cf0ca6741d7ad00c3ce3a5c688b521bace066149e15c898e01",
        "032e27e64ce23dda53dda8d2a8e4160b49b91d257d400fa26ddecf459fbee8f38a"
      ],
      "is_coinbase": false,
      "sequence": 4294967294
    }
  ],
  "vout": [
    {
      "scriptpubkey": "a91419533253da9a7c3e02b4fe4e2a391294f69cb02587",
      "scriptpubkey_asm": "OP_HASH160 OP_PUSHBYTES_20 19533253da9a7c3e02b4fe4e2a391294f69cb025 OP_EQUAL",
      "scriptpubkey_type": "p2sh",
      "scriptpubkey_address": "33zvUwUeB3Qhos483oawCvBtShTvkSicZt",
      "value": 381640
    }
  ],
  "size": 488,
  "weight": 983,
  "fee": 6384,
  "status": {
    "confirmed": true,
    "block_height": 834638,
    "block_hash": "000000000000000000025f742c626208ac87e0b7d15054abb4a19ca2d735a54e",
    "block_time": 1710405325
  },
  "hex": "02000000000103b3bc579fdc0b04f84858f8a1cec2afd893fd0dc47f5bd08939f64f0fe17443b30800000000feffffff988b59f2b2d83618f46ddd617d4acbeca6ac249708aaf71fb0559ba401abea379a00000000fefffffff9db965cc3f4be6d22f82825d28b50299d60217ec9c44fb479de0100262cfb4f4f00000000feffffff01c8d205000000000017a91419533253da9a7c3e02b4fe4e2a391294f69cb02587024730440220361778d90e5845b924e2a2a89df07a5bd7087a8960bc89c220d23ff7f828be6f02207800a5ab04734137d4895cb2a03838008b769e08816abb3b4f3d1ad716e0757e0121036dea957d4003582b295461cd15dab9ad87b569097c1ff716f1d248466317da850247304402207db79e6933736f0e165e774aa123eca1bc016c0a198645022444cfade5de7621022045317f5d2411ab8e422656e467f4b89012f293ffa6627f8da087d3536163b4b9012102a33efc4762ca1d8195246d4d844dabe1cbf5988d87aa593b97da78d74cb420200247304402206c99c371e8c573d449c6bc154131a5bd76b89b6f528c19c2952ba1b37b72751c022063a46e9e30dbe9f6cf0ca6741d7ad00c3ce3a5c688b521bace066149e15c898e0121032e27e64ce23dda53dda8d2a8e4160b49b91d257d400fa26ddecf459fbee8f38a4dbc0c00"
}