{
  "txid": "e8a88097a902212e22fe263e797ccdf899247600dfa1cf69ace87ca22bd494dc",
  "version": 1,
  "locktime": 0,
  "vin": [
    {
      "txid": "e203eba2e1b2e5f0a1678ec36d831e2a35b22fe8fa943d923a802a762ea7f1ef",
      "vout": 0,
      "prevout": {
        "scriptpubkey": "76a91471443727ace47d5cc60fa80f403716c49594676888ac",
        "scriptpubkey_asm": "OP_DUP OP_HASH160 OP_PUSHBYTES_20 71443727ace47d5cc60fa80f403716c495946768 OP_EQUALVERIFY OP_CHECKSIG",
        "scriptpubkey_type": "p2pkh",
        "scriptpubkey_address": "1BKu5NRT1HLfHvBVLZg9mtDx6hi7PGtUFD",
        "value": 23700
      },
      "scriptsig": "473044022050d55fc5792255bfe37df17687667fc40aba3ed5b1e5d61b8360cd789f19cf6c02200369ae73853946a7a10f466fd468a380dcf106b6116570d24408efef0f2525b401210388ba6d7f24567b76bf820b191ebfd8e999772244c6f88c9a60659e9e4949dd59",
      "scriptsig_asm": "OP_PUSHBYTES_71 3044022050d55fc5792255bfe37df17687667fc40aba3ed5b1e5d61b8360cd789f19cf6c02200369ae73853946a7a10f466fd468a380dcf106b6116570d24408efef0f2525b401 OP_PUSHBYTES_33 0388ba6d7f24567b76bf820b191ebfd8e999772244c6f88c9a60659e9e4949dd59",
      "is_coinbase": false,
      "sequence": 4294967295
    },
    {
      "txid": "6932e0b0e485d3f5092923571e83c48c48454f7e55ff2d56156b37c102593f58",
      "vout": 1,
      "prevout": {
        "scriptpubkey": "76a9146bc3f9813f9cf3c80949baec5dcd457510a7d3e788ac",
        "scriptpubkey_asm": "OP_DUP OP_HASH160 OP_PUSHBYTES_20 6bc3f9813f9cf3c80949baec5dcd457510a7d3e7 OP_EQUALVERIFY OP_CHECKSIG",
        "scriptpubkey_type": "p2pkh",
        "scriptpubkey_address": "1App55k1pzNcNQP8dgjQrz1Ams31rq3Sbj",
        "value": 223110
      },
      "scriptsig": "4730440220469caa54c20be168408f672df174a89bd23432100a96197eb105104c59baa74202204914e2bd9d2ef2f572027c154d4e29591e6d4e139931a477d148f74afca5f1840121034be1548870c4449c16f4349407cdc1ebc03824e12aeeec2faca7dec9982bba9d",
      "scriptsig_asm": "OP_PUSHBYTES_71 30440220469caa54c20be168408f672df174a89bd23432100a96197eb105104c59baa74202204914e2bd9d2ef2f572027c154d4e29591e6d4e139931a477d148f74afca5f18401 OP_PUSHBYTES_33 034be1548870c4449c16f4349407cdc1ebc03824e12aeeec2faca7dec9982bba9d",
      "is_coinbase": false,
      "sequence": 4294967295
    }
  ],
  "vout": [
    {
      "scriptpubkey": "00146ef0b5f417b4ccb89a478978d80b5d2da2da482c",
      "scriptpubkey_asm": "OP_0 OP_PUSHBYTES_20 6ef0b5f417b4ccb89a478978d80b5d2da2da482c",
      "scriptpubkey_type": "v0_p2wpkh",
      "scriptpubkey_address": "bc1qdmcttaqhknxt3xj839udsz6a9k3d5jpvewp30r",
      "value": 240065
    }
  ],
  "size": 335,
  "weight": 1340,
  "fee": 6745,
  "status": {
    "confirmed": true,
    "block_height": 834638,
    "block_hash": "000000000000000000025f742c626208ac87e0b7d15054abb4a19ca2d735a54e",
    "block_time": 1710405325
  },
  "hex": "0100000002eff1a72e762a803a923d94fae82fb2352a1e836dc38e67a1f0e5b2e1a2eb03e2000000006a473044022050d55fc5792255bfe37df17687667fc40aba3ed5b1e5d61b8360cd789f19cf6c02200369ae73853946a7a10f466fd468a380dcf106b6116570d24408efef0f2525b401210388ba6d7f24567b76bf820b191ebfd8e999772244c6f88c9a60659e9e4949dd59ffffffff583f5902c1376b15562dff557e4f45488cc4831e57232909f5d385e4b0e03269010000006a4730440220469caa54c20be168408f672df174a89bd23432100a96197eb105104c59baa74202204914e2bd9d2ef2f572027c154d4e29591e6d4e139931a477d148f74afca5f1840121034be1548870c4449c16f4349407cdc1ebc03824e12aeeec2faca7dec9982bba9dffffffff01c1a90300000000001600146ef0b5f417b4ccb89a478978d80b5d2da2da482c00000000"
}