{
  "txid": "e8d4d8766642b7ed625c76f03636326cf78f9aa8aa744e49e392507de3335a53",
  "version": 1,
  "locktime": 0,
  "vin": [
    {
      "txid": "3936356e9230e6a29391f90ec157038f12438d13c89fbb5728400a66b93040dd",
      "vout": 1,
      "prevout": {
        "scriptpubkey": "a914425c8d40484e7173e159c50d52ba87cc5dc5704987",
        "scriptpubkey_asm": "OP_HASH160 OP_PUSHBYTES_20 425c8d40484e7173e159c50d52ba87cc5dc57049 OP_EQUAL",
        "scriptpubkey_type": "p2sh",
        "scriptpubkey_address": "37juPp9e8Qxnux5zBvCa81wPaqzuCmfhEs",
        "value": 271807
      },
      "scriptsig": "2200206c154b8e7b1e352f1091fbedb135cc381f6d966daec606502b56a6208ec9dfc5",
      "scriptsig_asm": "OP_PUSHBYTES_34 00206c154b8e7b1e352f1091fbedb135cc381f6d966daec606502b56a6208ec9dfc5",
      "witness": [
        "",
        "304402205b2b5c4f9418fb06da54fb1a04153b63897e7fb2b270cc4114f9c25f20d9917402207f2d31cb7ffdccc24b0af879aa8cbaf24f02bc33e45e6965c065477ad55c0fc301",
        "304402204c1874e27688ec1f1658e81050b5b31867313c845b977b32f811b31491b4fdff02201f3b599c12d4e11cd86a44de36803db34c19e68ea29e87e6be061a843901691901",
        "5221033b467fa775a2120df6a1175bebea5f98b662177c63628f17dd1c47b84cd9702e21033f67b4653f6f60081c649081c5626c1d4bf03f6b9f092a713558d29cdbf649872103bf8edc4967b0c7418c7c897bf72027b7b6d480af8cf704e3628df5c6b7bd507653ae"
      ],
      "is_coinbase": false,
      "sequence": 4294967295,
      "inner_redeemscript_asm": "OP_0 OP_PUSHBYTES_32 6c154b8e7b1e352f1091fbedb135cc381f6d966daec606502b56a6208ec9dfc5",
      "inner_witnessscript_asm": "OP_PUSHNUM_2 OP_PUSHBYTES_33 033b467fa775a2120df6a1175bebea5f98b662177c63628f17dd1c47b84cd9702e OP_PUSHBYTES_33 033f67b4653f6f60081c649081c5626c1d4bf03f6b9f092a713558d29cdbf64987 OP_PUSHBYTES_33 03bf8edc4967b0c7418c7c897bf72027b7b6d480af8cf704e3628df5c6b7bd5076 OP_PUSHNUM_3 OP_CHECKMULTISIG"
    }
  ],
  "vout": [
    {
      "scriptpubkey": "a914425c8d40484e7173e159c50d52ba87cc5dc5704987",
      "scriptpubkey_asm": "OP_HASH160 OP_PUSHBYTES_20 425c8d40484e7173e159c50d52ba87cc5dc57049 OP_EQUAL",
      "scriptpubkey_type": "p2sh",
      "scriptpubkey_address": "37juPp9e8Qxnux5zBvCa81wPaqzuCmfhEs",
      "value": 61227
    },
    {
      "scriptpubkey": "0014818d05fa04cffe71da39bcbd492658fee5f51ab4",
      "scriptpubkey_asm": "OP_0 OP_PUSHBYTES_20 818d05fa04cffe71da39bcbd492658fee5f51ab4",
      "scriptpubkey_type": "v0_p2wpkh",
      "scriptpubkey_address": "bc1qsxxst7syell8rk3ehj75jfjclmjl2x4576z8hq",
      "value": 206300
    }
  ],
  "size": 403,
  "weight": 850,
  "fee": 4280,
  "status": {
    "confirmed": true,
    "block_height": 834638,
    "block_hash": "000000000000000000025f742c626208ac87e0b7d15054abb4a19ca2d735a54e",
    "block_time": 1710405325
  },
  "hex": "01000000000101dd4030b9660a402857bb9fc8138d43128f0357c10ef99193a2e630926e35363901000000232200206c154b8e7b1e352f1091fbedb135cc381f6d966daec606502b56a6208ec9dfc5ffffffff022bef00000000000017a914425c8d40484e7173e159c50d52ba87cc5dc5704987dc25030000000000160014818d05fa04cffe71da39bcbd492658fee5f51ab4040047304402205b2b5c4f9418fb06da54fb1a04153b63897e7fb2b270cc4114f9c25f20d9917402207f2d31cb7ffdccc24b0af879aa8cbaf24f02bc33e45e6965c065477ad55c0fc30147304402204c1874e27688ec1f1658e81050b5b31867313c845b977b32f811b31491b4fdff02201f3b599c12d4e11cd86a44de36803db34c19e68ea29e87e6be061a843901691901695221033b467fa775a2120df6a1175bebea5f98b662177c63628f17dd1c47b84cd9702e21033f67b4653f6f60081c649081c5626c1d4bf03f6b9f092a713558d29cdbf649872103bf8edc4967b0c7418c7c897bf72027b7b6d480af8cf704e3628df5c6b7bd507653ae00000000"
}