{
  "txid": "e8d99b12954b784440332038f60eea00d25a4295e04fb3c42c4648406db356a5",
  "version": 1,
  "locktime": 0,
  "vin": [
    {
      "txid": "1fc87e163bb3382bcb0ca38c9860297bc59e8409c50eaf08440ecec2b93f6afc",
      "vout": 0,
      "prevout": {
        "scriptpubkey": "001420cdb2d47f01bd3dcfa4b3a6ba4939ee406b069c",
        "scriptpubkey_asm": "OP_0 OP_PUSHBYTES_20 20cdb2d47f01bd3dcfa4b3a6ba4939ee406b069c",
        "scriptpubkey_type": "v0_p2wpkh",
        "scriptpubkey_address": "bc1qyrxm94rlqx7nmnaykwnt5jfeaeqxkp5ujv5ny4",
        "value": 2538048
      },
      "scriptsig": "",
      "scriptsig_asm": "",
      "witness": [
        "30440220015eb0391c8906548c57affb88753ce4de1b9f955d84e4b18f30246209de474c02206b54e87fec9a500598f4dc5b8a5625dd8db83ec814d34f4af97cee96f02c91cd01",
        "03339b3c34056d2f3725e42ecce15e549d22418a4c009c5168f5f43a5be2b06f7b"
      ],
      "is_coinbase": false,
      "sequence": 4294967293
    }
  ],
  "vout": [
    {
      "scriptpubkey": "001455ab30dd3a6de3996f92940c37d2e5052dc1dcb3",
      "scriptpubkey_asm": "OP_0 OP_PUSHBYTES_20 55ab30dd3a6de3996f92940c37d2e5052dc1dcb3",
      "scriptpubkey_type": "v0_p2wpkh",
      "scriptpubkey_address": "bc1q2k4nphf6dh3ejmujjsxr05h9q5kurh9nxux3ar",
      "value": 617609
    },
    {
      "scriptpubkey": "00140fe8519d977f370e38f6aac644e6d60c7d1409fd",
      "scriptpubkey_asm": "OP_0 OP_PUSHBYTES_20 0fe8519d977f370e38f6aac644e6d60c7d1409fd",
      "scriptpubkey_type": "v0_p2wpkh",
      "scriptpubkey_address": "bc1qpl59r8vh0umsuw8k4tryfekkp373gz0a9f884t",
      "value": 1918606
    }
  ],
  "size": 222,
  "weight": 561,
  "fee": 1833,
  "status": {
    "confirmed": true,
    "block_height": 834460,
    "block_hash": "00000000000000000000484a79b643b2524bbce82e5d8a442013fa5b8905ed98",
    "block_time": 1710307468
  },
  "hex": "01000000000101fc6a3fb9c2ce0e4408af0ec509849ec57b2960988ca30ccb2b38b33b167ec81f0000000000fdffffff02896c09000000000016001455ab30dd3a6de3996f92940c37d2e5052dc1dcb38e461d00000000001600140fe8519d977f370e38f6aac644e6d60c7d1409fd024730440220015eb0391c8906548c57affb88753ce4de1b9f955d84e4b18f30246209de474c02206b54e87fec9a500598f4dc5b8a5625dd8db83ec814d34f4af97cee96f02c91cd012103339b3c34056d2f3725e42ecce15e549d22418a4c009c5168f5f43a5be2b06f7b00000000"
}