{
  "txid": "e8df671e19136a1f1b82ebb8980589e3c0fe4b97d13623ad45faf06f3169ce0a",
  "version": 1,
  "locktime": 0,
  "vin": [
    {
      "txid": "d2ebc44e19e54513d0667892a326b55651bedf8072b2b22b05ffcfc7ad17a444",
      "vout": 1,
      "prevout": {
        "scriptpubkey": "00146432c8bfc702b0e9385d2f7afc89b389817652de",
        "scriptpubkey_asm": "OP_0 OP_PUSHBYTES_20 6432c8bfc702b0e9385d2f7afc89b389817652de",
        "scriptpubkey_type": "v0_p2wpkh",
        "scriptpubkey_address": "bc1qvsev3078q2cwjwza9aa0ezdn3xqhv5k70w37ml",
        "value": 732882
      },
      "scriptsig": "",
      "scriptsig_asm": "",
      "witness": [
        "3045022100aa6d5b35751550978fd1235fbd136b9470bee8a30ee413a2bea3dfaa69295ea20220056ded6299baa0bda7a00c3802132a4d4209613fc430f28a525a7b293e1b2cd201",
        "025fc7c367b5829bc8bef5f5c54cc342e43de91a013697040feccb831181e0daf0"
      ],
      "is_coinbase": false,
      "sequence": 4294967295
    }
  ],
  "vout": [
    {
      "scriptpubkey": "0014ad8db94c93c15f714d1e1ea3800aac3e5dbebfae",
      "scriptpubkey_asm": "OP_0 OP_PUSHBYTES_20 ad8db94c93c15f714d1e1ea3800aac3e5dbebfae",
      "scriptpubkey_type": "v0_p2wpkh",
      "scriptpubkey_address": "bc1q4kxmjnync90hzng7r63cqz4v8ewma0awl0vhfp",
      "value": 137663
    },
    {
      "scriptpubkey": "0014cfea1d1db47dd565c07406ab36e448e9b3f2fa9d",
      "scriptpubkey_asm": "OP_0 OP_PUSHBYTES_20 cfea1d1db47dd565c07406ab36e448e9b3f2fa9d",
      "scriptpubkey_type": "v0_p2wpkh",
      "scriptpubkey_address": "bc1qel4p68d50h2ktsr5q64ndezgaxel975a4tgq62",
      "value": 591585
    }
  ],
  "size": 223,
  "weight": 562,
  "fee": 3634,
  "status": {
    "confirmed": true,
    "block_height": 834638,
    "block_hash": "000000000000000000025f742c626208ac87e0b7d15054abb4a19ca2d735a54e",
    "block_time": 1710405325
  },
  "hex": "0100000000010144a417adc7cfff052bb2b27280dfbe5156b526a3927866d01345e5194ec4ebd20100000000ffffffff02bf19020000000000160014ad8db94c93c15f714d1e1ea3800aac3e5dbebfaee106090000000000160014cfea1d1db47dd565c07406ab36e448e9b3f2fa9d02483045022100aa6d5b35751550978fd1235fbd136b9470bee8a30ee413a2bea3dfaa69295ea20220056ded6299baa0bda7a00c3802132a4d4209613fc430f28a525a7b293e1b2cd20121025fc7c367b5829bc8bef5f5c54cc342e43de91a013697040feccb831181e0daf000000000"
}