{
  "txid": "e8e634e2b85ced512776e0577b5fc901e3e9a3f28339bc9ded9df7b3c33b8c97",
  "version": 2,
  "locktime": 0,
  "vin": [
    {
      "txid": "c05a6c5c719f93aa6f23ea19334649828f6b461e72de3890b06451c70078b4b9",
      "vout": 0,
      "prevout": {
        "scriptpubkey": "00144d4ee6bd531209eb238029785d78c48dd0d5d02a",
        "scriptpubkey_asm": "OP_0 OP_PUSHBYTES_20 4d4ee6bd531209eb238029785d78c48dd0d5d02a",
        "scriptpubkey_type": "v0_p2wpkh",
        "scriptpubkey_address": "bc1qf48wd02nzgy7kguq99u967xy3hgdt5p27g09se",
        "value": 4940000
      },
      "scriptsig": "",
      "scriptsig_asm": "",
      "witness": [
        "304402204f66dc152b1d8a2459ef8ff6960b207d4d935dcb58d525bc6d9814ddbf33e58c02200d6cdf0b3f515144773699b4ecc2a2e9c98b7db26a9b52be40a27bbdb945bd5301",
        "03868670a63ea356310a0ce1ef4fb49298ccc8c3e29673007215b8fc763e07f49f"
      ],
      "is_coinbase": false,
      "sequence": 4294967295
    }
  ],
  "vout": [
    {
      "scriptpubkey": "00140a3124fe56f58ec21f41fc75716f95069ab0c087",
      "scriptpubkey_asm": "OP_0 OP_PUSHBYTES_20 0a3124fe56f58ec21f41fc75716f95069ab0c087",
      "scriptpubkey_type": "v0_p2wpkh",
      "scriptpubkey_address": "bc1qpgcjfljk7k8vy86pl36hzmu4q6dtpsy8n6nkyt",
      "value": 4500000
    },
    {
      "scriptpubkey": "00144d4ee6bd531209eb238029785d78c48dd0d5d02a",
      "scriptpubkey_asm": "OP_0 OP_PUSHBYTES_20 4d4ee6bd531209eb238029785d78c48dd0d5d02a",
      "scriptpubkey_type": "v0_p2wpkh",
      "scriptpubkey_address": "bc1qf48wd02nzgy7kguq99u967xy3hgdt5p27g09se",
      "value": 437911
    }
  ],
  "size": 222,
  "weight": 561,
  "fee": 2089,
  "status": {
    "confirmed": true,
    "block_height": 834638,
    "block_hash": "000000000000000000025f742c626208ac87e0b7d15054abb4a19ca2d735a54e",
    "block_time": 1710405325
  },
  "hex": "02000000000101b9b47800c75164b09038de721e466b8f8249463319ea236faa939f715c6c5ac00000000000ffffffff0220aa4400000000001600140a3124fe56f58ec21f41fc75716f95069ab0c08797ae0600000000001600144d4ee6bd531209eb238029785d78c48dd0d5d02a0247304402204f66dc152b1d8a2459ef8ff6960b207d4d935dcb58d525bc6d9814ddbf33e58c02200d6cdf0b3f515144773699b4ecc2a2e9c98b7db26a9b52be40a27bbdb945bd53012103868670a63ea356310a0ce1ef4fb49298ccc8c3e29673007215b8fc763e07f49f00000000"
}