{
  "txid": "e8e6d2499c8afba322ed633e63f475e5c9a1ab53fdf55e7ed008c8a1bf769114",
  "version": 2,
  "locktime": 0,
  "vin": [
    {
      "txid": "2521ca3c1a9d405a168fafbec7c72cb25a20f289cd03761ecd61c21ce59a4709",
      "vout": 0,
      "prevout": {
        "scriptpubkey": "5120ce1039e86ac13577cd4326765ba3200b544396098351b2e80f43249242f1df4b",
        "scriptpubkey_asm": "OP_PUSHNUM_1 OP_PUSHBYTES_32 ce1039e86ac13577cd4326765ba3200b544396098351b2e80f43249242f1df4b",
        "scriptpubkey_type": "v1_p2tr",
        "scriptpubkey_address": "bc1pecgrn6r2cy6h0n2ryem9hgeqpd2y89sfsdgm96q0gvjfysh3ma9s5qk0xg",
        "value": 546
      },
      "scriptsig": "",
      "scriptsig_asm": "",
      "witness": [
        "1f183b36875c900e7a430a416159a58d783093551d9579d0cf65dadb85c574ad72807f66b3807a49ed98c55709eb760998e646469685e6e84faa603087328b50"
      ],
      "is_coinbase": false,
      "sequence": 4294967295
    },
    {
      "txid": "8eedba1354f5db4d58b4f0736895b9fb2a936cf99e89aecd854768e1fe96b9e6",
      "vout": 60,
      "prevout": {
        "scriptpubkey": "5120ce1039e86ac13577cd4326765ba3200b544396098351b2e80f43249242f1df4b",
        "scriptpubkey_asm": "OP_PUSHNUM_1 OP_PUSHBYTES_32 ce1039e86ac13577cd4326765ba3200b544396098351b2e80f43249242f1df4b",
        "scriptpubkey_type": "v1_p2tr",
        "scriptpubkey_address": "bc1pecgrn6r2cy6h0n2ryem9hgeqpd2y89sfsdgm96q0gvjfysh3ma9s5qk0xg",
        "value": 83477
      },
      "scriptsig": "",
      "scriptsig_asm": "",
      "witness": [
        "3ddffb9357fac36da73acdb992529e8dd6211da07ac35a25063e9ecd3fb2903de224d49b955bb72825f61d2185b0336b86e62bf7648ca8232692b7acafdb199b"
      ],
      "is_coinbase": false,
      "sequence": 4294967295
    }
  ],
  "vout": [
    {
      "scriptpubkey": "5120b99f9722a6126100cfa6db2c061d8e330d9d40b54842ff3a3844edd57896247a",
      "scriptpubkey_asm": "OP_PUSHNUM_1 OP_PUSHBYTES_32 b99f9722a6126100cfa6db2c061d8e330d9d40b54842ff3a3844edd57896247a",
      "scriptpubkey_type": "v1_p2tr",
      "scriptpubkey_address": "bc1phx0ewg4xzfsspnaxmvkqv8vwxvxe6s94fpp07w3cgnka27yky3aqek8f0g",
      "value": 546
    },
    {
      "scriptpubkey": "5120ce1039e86ac13577cd4326765ba3200b544396098351b2e80f43249242f1df4b",
      "scriptpubkey_asm": "OP_PUSHNUM_1 OP_PUSHBYTES_32 ce1039e86ac13577cd4326765ba3200b544396098351b2e80f43249242f1df4b",
      "scriptpubkey_type": "v1_p2tr",
      "scriptpubkey_address": "bc1pecgrn6r2cy6h0n2ryem9hgeqpd2y89sfsdgm96q0gvjfysh3ma9s5qk0xg",
      "value": 80297
    }
  ],
  "size": 312,
  "weight": 846,
  "fee": 3180,
  "status": {
    "confirmed": true,
    "block_height": 834460,
    "block_hash": "00000000000000000000484a79b643b2524bbce82e5d8a442013fa5b8905ed98",
    "block_time": 1710307468
  },
  "hex": "0200000000010209479ae51cc261cd1e7603cd89f2205ab22cc7c7beaf8f165a409d1a3cca21250000000000ffffffffe6b996fee1684785cdae899ef96c932afbb9956873f0b4584ddbf55413baed8e3c00000000ffffffff022202000000000000225120b99f9722a6126100cfa6db2c061d8e330d9d40b54842ff3a3844edd57896247aa939010000000000225120ce1039e86ac13577cd4326765ba3200b544396098351b2e80f43249242f1df4b01401f183b36875c900e7a430a416159a58d783093551d9579d0cf65dadb85c574ad72807f66b3807a49ed98c55709eb760998e646469685e6e84faa603087328b5001403ddffb9357fac36da73acdb992529e8dd6211da07ac35a25063e9ecd3fb2903de224d49b955bb72825f61d2185b0336b86e62bf7648ca8232692b7acafdb199b00000000"
}