{
  "txid": "e8eb8b5817f4bdb34ff22f224b8ebb70c50319787019643adfdf5900280c0fd5",
  "version": 2,
  "locktime": 0,
  "vin": [
    {
      "txid": "6c6bfc2591a5729815cb072612199d95b6ec7a7f1e020afa4e9253b63f9ccd57",
      "vout": 1,
      "prevout": {
        "scriptpubkey": "00149c9be90576e5482a741109a22407653708ce3671",
        "scriptpubkey_asm": "OP_0 OP_PUSHBYTES_20 9c9be90576e5482a741109a22407653708ce3671",
        "scriptpubkey_type": "v0_p2wpkh",
        "scriptpubkey_address": "bc1qnjd7jptku4yz5aq3px3zgpm9xuyvudn37s20s8",
        "value": 236206
      },
      "scriptsig": "",
      "scriptsig_asm": "",
      "witness": [
        "3045022100e3e4d116bed4c60621fd9541ac6ccb0246fba6647755859fef5e8180fbfe793f022016d6a1a0c35b5d4e1f8fe263e22534ebeab2bdb301a549b1ad611c7f25a0232a01",
        "0376193646695dc69ed657442ec928802dad7b968a0168c14db92ddb47cb5ee4f8"
      ],
      "is_coinbase": false,
      "sequence": 4294967295
    }
  ],
  "vout": [
    {
      "scriptpubkey": "51201e70f6ead169f9face83c89e30cdec9316908e00704573ecd2e0ead3ec380ffe",
      "scriptpubkey_asm": "OP_PUSHNUM_1 OP_PUSHBYTES_32 1e70f6ead169f9face83c89e30cdec9316908e00704573ecd2e0ead3ec380ffe",
      "scriptpubkey_type": "v1_p2tr",
      "scriptpubkey_address": "bc1prec0d6k3d8ul4n5rez0rpn0vjvtfprsqwpzh8mxjur4d8mpcpllqd484n4",
      "value": 4000
    },
    {
      "scriptpubkey": "00149c9be90576e5482a741109a22407653708ce3671",
      "scriptpubkey_asm": "OP_0 OP_PUSHBYTES_20 9c9be90576e5482a741109a22407653708ce3671",
      "scriptpubkey_type": "v0_p2wpkh",
      "scriptpubkey_address": "bc1qnjd7jptku4yz5aq3px3zgpm9xuyvudn37s20s8",
      "value": 230523
    }
  ],
  "size": 235,
  "weight": 610,
  "fee": 1683,
  "status": {
    "confirmed": true,
    "block_height": 834464,
    "block_hash": "0000000000000000000177a0869a911a2b65c9bdcd5a8bcb02b68f305bee848e",
    "block_time": 1710308296
  },
  "hex": "0200000000010157cd9c3fb653924efa0a021e7f7aecb6959d19122607cb159872a59125fc6b6c0100000000ffffffff02a00f0000000000002251201e70f6ead169f9face83c89e30cdec9316908e00704573ecd2e0ead3ec380ffe7b840300000000001600149c9be90576e5482a741109a22407653708ce367102483045022100e3e4d116bed4c60621fd9541ac6ccb0246fba6647755859fef5e8180fbfe793f022016d6a1a0c35b5d4e1f8fe263e22534ebeab2bdb301a549b1ad611c7f25a0232a01210376193646695dc69ed657442ec928802dad7b968a0168c14db92ddb47cb5ee4f800000000"
}