{
  "txid": "e8f453621d9c0cfdbf7e2db81d20438edb164556ec0fda938c10773e8205199c",
  "version": 2,
  "locktime": 0,
  "vin": [
    {
      "txid": "3f69fae8ca9bdd774ca5294e86509449f431bb44e2206cae9f7f495b7952d9e2",
      "vout": 19,
      "prevout": {
        "scriptpubkey": "51201bad74e34274f58ba1b12372bc8bbf4f3ce01bead9e0d9e54e3c675508771da0",
        "scriptpubkey_asm": "OP_PUSHNUM_1 OP_PUSHBYTES_32 1bad74e34274f58ba1b12372bc8bbf4f3ce01bead9e0d9e54e3c675508771da0",
        "scriptpubkey_type": "v1_p2tr",
        "scriptpubkey_address": "bc1prwkhfc6zwn6chgd3ydetezalfu7wqxl2m8sdne2w83n42zrhrksq8faskc",
        "value": 2996
      },
      "scriptsig": "",
      "scriptsig_asm": "",
      "witness": [
        "d663f884b72130b9436a4000937fb3235bec5d5a099732a089becb164eca428bd4f49fa201df2ca946bf9fb348f9bb4100fd163f117eddcc89696610c0457414",
        "2057f222ea4aa9245023e3f5145b88e9f38400f2849116c0bc0dd75de96d56196dac0063036f726401011e6170706c69636174696f6e2f6a736f6e3b636861727365743d7574662d38004cb77b2270223a22706f772d3230222c226f70223a226d696e74222c227469636b223a2250455045222c22616d74223a2231303030222c22736f6c7574696f6e223a22504550453a334d524d3246744a42504c46315958564766504d33656556746675364446734762623a303030303030303030303030303030303030303139393431613561653132383937363539383134343239323533333030353762306461393666336465613163353a3239303835383236373033227d68",
        "c06b70a06f37e9fa1ff7e7bec8bd1210228b25051d0c17b5264cdd8c73b544f454"
      ],
      "is_coinbase": false,
      "sequence": 4294967295
    }
  ],
  "vout": [
    {
      "scriptpubkey": "a914d86bcd8c487ad519e95c6557e7463d579cce14a287",
      "scriptpubkey_asm": "OP_HASH160 OP_PUSHBYTES_20 d86bcd8c487ad519e95c6557e7463d579cce14a2 OP_EQUAL",
      "scriptpubkey_type": "p2sh",
      "scriptpubkey_address": "3MRM2FtJBPLF1YXVGfPM3eeVtfu6DFsGbb",
      "value": 546
    }
  ],
  "size": 448,
  "weight": 697,
  "fee": 2450,
  "status": {
    "confirmed": true,
    "block_height": 834460,
    "block_hash": "00000000000000000000484a79b643b2524bbce82e5d8a442013fa5b8905ed98",
    "block_time": 1710307468
  },
  "hex": "02000000000101e2d952795b497f9fae6c20e244bb31f4499450864e29a54c77dd9bcae8fa693f1300000000ffffffff01220200000000000017a914d86bcd8c487ad519e95c6557e7463d579cce14a2870340d663f884b72130b9436a4000937fb3235bec5d5a099732a089becb164eca428bd4f49fa201df2ca946bf9fb348f9bb4100fd163f117eddcc89696610c0457414fd04012057f222ea4aa9245023e3f5145b88e9f38400f2849116c0bc0dd75de96d56196dac0063036f726401011e6170706c69636174696f6e2f6a736f6e3b636861727365743d7574662d38004cb77b2270223a22706f772d3230222c226f70223a226d696e74222c227469636b223a2250455045222c22616d74223a2231303030222c22736f6c7574696f6e223a22504550453a334d524d3246744a42504c46315958564766504d33656556746675364446734762623a303030303030303030303030303030303030303139393431613561653132383937363539383134343239323533333030353762306461393666336465613163353a3239303835383236373033227d6821c06b70a06f37e9fa1ff7e7bec8bd1210228b25051d0c17b5264cdd8c73b544f45400000000"
}