{
  "txid": "e8fc54f536126d2ff772bb97456894abf57af592186a706130dca4bd733100e0",
  "version": 2,
  "locktime": 0,
  "vin": [
    {
      "txid": "afe89fed965c5f867c9122119ed146fd75c6241ea78370aa2e6536a056fa14a0",
      "vout": 1,
      "prevout": {
        "scriptpubkey": "0014f071fa311720517cb2079e87ac10bd91808b4a46",
        "scriptpubkey_asm": "OP_0 OP_PUSHBYTES_20 f071fa311720517cb2079e87ac10bd91808b4a46",
        "scriptpubkey_type": "v0_p2wpkh",
        "scriptpubkey_address": "bc1q7pcl5vghypghevs8n6r6cy9ajxqgkjjxg2hp9a",
        "value": 17927086
      },
      "scriptsig": "",
      "scriptsig_asm": "",
      "witness": [
        "3045022100b66211726746e7a00c11258693653bcd4453528bf1e6576af148e6088cb98efe022059a882d8fae72bea4fbc6f3a547bc909f699deee039ac125a9d7cdf132c3372601",
        "038844a7e5ba77abc51ac9e9525abf43e6c16488b8c9fb79b00444d333dc7e970c"
      ],
      "is_coinbase": false,
      "sequence": 4294967295
    },
    {
      "txid": "a6e149d0e36adca59b1dd6fd0883f0b3a5b22b7f4c2e9acdd2c8f7dc73b60145",
      "vout": 1,
      "prevout": {
        "scriptpubkey": "0014f071fa311720517cb2079e87ac10bd91808b4a46",
        "scriptpubkey_asm": "OP_0 OP_PUSHBYTES_20 f071fa311720517cb2079e87ac10bd91808b4a46",
        "scriptpubkey_type": "v0_p2wpkh",
        "scriptpubkey_address": "bc1q7pcl5vghypghevs8n6r6cy9ajxqgkjjxg2hp9a",
        "value": 530214
      },
      "scriptsig": "",
      "scriptsig_asm": "",
      "witness": [
        "3044022049bf5543dfc5545c4190f773f57d68ca57cdee52b52ec3764afe34d8c0ae166f0220096b35ed960792f76f118a913b0e5508d7f2851956dc8f3934f29ba1be2721c101",
        "038844a7e5ba77abc51ac9e9525abf43e6c16488b8c9fb79b00444d333dc7e970c"
      ],
      "is_coinbase": false,
      "sequence": 4294967295
    }
  ],
  "vout": [
    {
      "scriptpubkey": "00143b368358b8d929b3c7d2f2504973b08225e305c9",
      "scriptpubkey_asm": "OP_0 OP_PUSHBYTES_20 3b368358b8d929b3c7d2f2504973b08225e305c9",
      "scriptpubkey_type": "v0_p2wpkh",
      "scriptpubkey_address": "bc1q8vmgxk9cmy5m837j7fgyjuassgj7xpwfnh2h9m",
      "value": 18000000
    },
    {
      "scriptpubkey": "0014f071fa311720517cb2079e87ac10bd91808b4a46",
      "scriptpubkey_asm": "OP_0 OP_PUSHBYTES_20 f071fa311720517cb2079e87ac10bd91808b4a46",
      "scriptpubkey_type": "v0_p2wpkh",
      "scriptpubkey_address": "bc1q7pcl5vghypghevs8n6r6cy9ajxqgkjjxg2hp9a",
      "value": 454374
    }
  ],
  "size": 371,
  "weight": 833,
  "fee": 2926,
  "status": {
    "confirmed": true,
    "block_height": 834460,
    "block_hash": "00000000000000000000484a79b643b2524bbce82e5d8a442013fa5b8905ed98",
    "block_time": 1710307468
  },
  "hex": "02000000000102a014fa56a036652eaa7083a71e24c675fd46d19e1122917c865f5c96ed9fe8af0100000000ffffffff4501b673dcf7c8d2cd9a2e4c7f2bb2a5b3f08308fdd61d9ba5dc6ae3d049e1a60100000000ffffffff0280a81201000000001600143b368358b8d929b3c7d2f2504973b08225e305c9e6ee060000000000160014f071fa311720517cb2079e87ac10bd91808b4a4602483045022100b66211726746e7a00c11258693653bcd4453528bf1e6576af148e6088cb98efe022059a882d8fae72bea4fbc6f3a547bc909f699deee039ac125a9d7cdf132c337260121038844a7e5ba77abc51ac9e9525abf43e6c16488b8c9fb79b00444d333dc7e970c02473044022049bf5543dfc5545c4190f773f57d68ca57cdee52b52ec3764afe34d8c0ae166f0220096b35ed960792f76f118a913b0e5508d7f2851956dc8f3934f29ba1be2721c10121038844a7e5ba77abc51ac9e9525abf43e6c16488b8c9fb79b00444d333dc7e970c00000000"
}