{
  "txid": "e90aa508c6cdfdde98c154ff45564b2bdee7269e4a46271711b1223ccb4f97eb",
  "version": 1,
  "locktime": 0,
  "vin": [
    {
      "txid": "f1e7273623bec1479124711109e9e64e0dda6ba4979d5a8cc8b24d560eda7875",
      "vout": 0,
      "prevout": {
        "scriptpubkey": "0020bc9551ddccad5f4339c01a17b532cad24f411d7b5fd0b816f63ff05a246d5cbe",
        "scriptpubkey_asm": "OP_0 OP_PUSHBYTES_32 bc9551ddccad5f4339c01a17b532cad24f411d7b5fd0b816f63ff05a246d5cbe",
        "scriptpubkey_type": "v0_p2wsh",
        "scriptpubkey_address": "bc1qhj24rhwv4405xwwqrgtm2vk26f85z8tmtlgts9hk8lc95frdtjlqq3nu4e",
        "value": 15181
      },
      "scriptsig": "",
      "scriptsig_asm": "",
      "witness": [
        "",
        "3044022051ee4f016d515928f4a981e39a577208e3b627db306eac8c8733e2ce724b5f91022008a53022d4df0b4f36aba37395e4d30cda7db4f0369278194f08117e2859193b01",
        "512103cda78c50d2199d22224de2e839da81ff6af1ea1786a1b896cf4fb43ae4cc3c682103e8f7ac94bcf322e696f49709dc22c87e456d23b85591a5ceb17893a4ff73405352ae"
      ],
      "is_coinbase": false,
      "sequence": 0,
      "inner_witnessscript_asm": "OP_PUSHNUM_1 OP_PUSHBYTES_33 03cda78c50d2199d22224de2e839da81ff6af1ea1786a1b896cf4fb43ae4cc3c68 OP_PUSHBYTES_33 03e8f7ac94bcf322e696f49709dc22c87e456d23b85591a5ceb17893a4ff734053 OP_PUSHNUM_2 OP_CHECKMULTISIG"
    }
  ],
  "vout": [
    {
      "scriptpubkey": "0014675e869be941f4317d910c1579844cf1a10dd11c",
      "scriptpubkey_asm": "OP_0 OP_PUSHBYTES_20 675e869be941f4317d910c1579844cf1a10dd11c",
      "scriptpubkey_type": "v0_p2wpkh",
      "scriptpubkey_address": "bc1qva0gdxlfg86rzlv3ps2hnpzv7xssm5gudsf4cg",
      "value": 13751
    }
  ],
  "size": 230,
  "weight": 476,
  "fee": 1430,
  "status": {
    "confirmed": true,
    "block_height": 834552,
    "block_hash": "00000000000000000001dd0468a70c94f619251d286585cff57aeb4bd9ede330",
    "block_time": 1710355598
  },
  "hex": "010000000001017578da0e564db2c88c5a9d97a46bda0d4ee6e9091171249147c1be233627e7f100000000000000000001b735000000000000160014675e869be941f4317d910c1579844cf1a10dd11c0300473044022051ee4f016d515928f4a981e39a577208e3b627db306eac8c8733e2ce724b5f91022008a53022d4df0b4f36aba37395e4d30cda7db4f0369278194f08117e2859193b0147512103cda78c50d2199d22224de2e839da81ff6af1ea1786a1b896cf4fb43ae4cc3c682103e8f7ac94bcf322e696f49709dc22c87e456d23b85591a5ceb17893a4ff73405352ae00000000"
}