{
  "txid": "e90f47ea0dc21ebae48a352d34ad97e415a601627f292d3f2ef490be17648bd4",
  "version": 2,
  "locktime": 0,
  "vin": [
    {
      "txid": "5f846d283984d01eb9829d816f88218abd33effc15a08222518615da3e5f47c5",
      "vout": 8,
      "prevout": {
        "scriptpubkey": "512089dde36cf0570a12b4bebdeff376e07322eebbd20d73ccdc78d3798f88e50f59",
        "scriptpubkey_asm": "OP_PUSHNUM_1 OP_PUSHBYTES_32 89dde36cf0570a12b4bebdeff376e07322eebbd20d73ccdc78d3798f88e50f59",
        "scriptpubkey_type": "v1_p2tr",
        "scriptpubkey_address": "bc1p38w7xm8s2u9p9d97hhhlxahqwv3waw7jp4euehrc6duclz89pavshc5379",
        "value": 2862
      },
      "scriptsig": "",
      "scriptsig_asm": "",
      "witness": [
        "2328556e4479a6cd90b389f3627687d2c9048ffa1cafa33efe866450c7f9ac18be1a3eadf60a491d7578f706753451245d650fc223389f84e596972041dd4a6a",
        "20fad0e7e07af2d0623ecb8c33b914fdb3e0a14d6d9237d609aade6d05e0c79cbfac0063036f726401011e6170706c69636174696f6e2f6a736f6e3b636861727365743d7574662d38004cd37b2270223a22706f772d3230222c226f70223a226d696e74222c227469636b223a2250455045222c22616d74223a2231303030222c22736f6c7574696f6e223a22504550453a626331706d6c3973653572666b6c3076393075786c7972667871717a366c34797364637172647371683735656c727133396676647164777139777276736e3a303030303030303030303030303030303030303139393431613561653132383937363539383134343239323533333030353762306461393666336465613163353a3231313531323632343032227d68",
        "c13beca27a4fc825f712a8ee0e92a93b2e9ce7496e1e1c5bfb1b103e51f3be77b5"
      ],
      "is_coinbase": false,
      "sequence": 4294967295
    }
  ],
  "vout": [
    {
      "scriptpubkey": "5120dfcb0cd069b7dec2bf86f906930002d7ea4837001b600bfa99f8c112a58d035c",
      "scriptpubkey_asm": "OP_PUSHNUM_1 OP_PUSHBYTES_32 dfcb0cd069b7dec2bf86f906930002d7ea4837001b600bfa99f8c112a58d035c",
      "scriptpubkey_type": "v1_p2tr",
      "scriptpubkey_address": "bc1pml9se5rfkl0v90uxlyrfxqqz6l4ysdcqrdsqh75elrq39fvdqdwq9wrvsn",
      "value": 546
    }
  ],
  "size": 487,
  "weight": 769,
  "fee": 2316,
  "status": {
    "confirmed": true,
    "block_height": 834460,
    "block_hash": "00000000000000000000484a79b643b2524bbce82e5d8a442013fa5b8905ed98",
    "block_time": 1710307468
  },
  "hex": "02000000000101c5475f3eda1586512282a015fcef33bd8a21886f819d82b91ed08439286d845f0800000000ffffffff012202000000000000225120dfcb0cd069b7dec2bf86f906930002d7ea4837001b600bfa99f8c112a58d035c03402328556e4479a6cd90b389f3627687d2c9048ffa1cafa33efe866450c7f9ac18be1a3eadf60a491d7578f706753451245d650fc223389f84e596972041dd4a6afd200120fad0e7e07af2d0623ecb8c33b914fdb3e0a14d6d9237d609aade6d05e0c79cbfac0063036f726401011e6170706c69636174696f6e2f6a736f6e3b636861727365743d7574662d38004cd37b2270223a22706f772d3230222c226f70223a226d696e74222c227469636b223a2250455045222c22616d74223a2231303030222c22736f6c7574696f6e223a22504550453a626331706d6c3973653572666b6c3076393075786c7972667871717a366c34797364637172647371683735656c727133396676647164777139777276736e3a303030303030303030303030303030303030303139393431613561653132383937363539383134343239323533333030353762306461393666336465613163353a3231313531323632343032227d6821c13beca27a4fc825f712a8ee0e92a93b2e9ce7496e1e1c5bfb1b103e51f3be77b500000000"
}