{
  "txid": "e92895fea3a705929e77f06c3384ecd6d30ffe2057a0f5b654d2bdc680e0427c",
  "version": 1,
  "locktime": 0,
  "vin": [
    {
      "txid": "546297a7d24162a3e2747516301079523a1b38ea04667ad672324fb6c95550a3",
      "vout": 0,
      "prevout": {
        "scriptpubkey": "0014963039c5bc95a789f0d79b0e6402b552b901beb9",
        "scriptpubkey_asm": "OP_0 OP_PUSHBYTES_20 963039c5bc95a789f0d79b0e6402b552b901beb9",
        "scriptpubkey_type": "v0_p2wpkh",
        "scriptpubkey_address": "bc1qjccrn3dujkncnuxhnv8xgq4422usr04epehe5k",
        "value": 36005146
      },
      "scriptsig": "",
      "scriptsig_asm": "",
      "witness": [
        "30440220524170294ccb580ce471495d4c5ee4513ee123d78804d706326f4017bdcf4e6002203f543828920aa014894783651f5f6bd64f18c1a37361d839e816e103c9c64b5401",
        "031182cce7244deec232af225fdc0a12afa5cc7a94e80a2227d914e855c0c095cb"
      ],
      "is_coinbase": false,
      "sequence": 4294967295
    }
  ],
  "vout": [
    {
      "scriptpubkey": "76a9147d6a73f70bc93b775ba6516417f2568471ff8e6e88ac",
      "scriptpubkey_asm": "OP_DUP OP_HASH160 OP_PUSHBYTES_20 7d6a73f70bc93b775ba6516417f2568471ff8e6e OP_EQUALVERIFY OP_CHECKSIG",
      "scriptpubkey_type": "p2pkh",
      "scriptpubkey_address": "1CS8zToWygkExtDqzXoGuyC1SXd2b4yjEy",
      "value": 6404736
    },
    {
      "scriptpubkey": "0014667b932ef4cbdb9d101a0c76ece21ab769362e24",
      "scriptpubkey_asm": "OP_0 OP_PUSHBYTES_20 667b932ef4cbdb9d101a0c76ece21ab769362e24",
      "scriptpubkey_type": "v0_p2wpkh",
      "scriptpubkey_address": "bc1qveaexth5e0de6yq6p3mwecs6ka5nvt3yhyyu58",
      "value": 29597170
    }
  ],
  "size": 225,
  "weight": 573,
  "fee": 3240,
  "status": {
    "confirmed": true,
    "block_height": 834638,
    "block_hash": "000000000000000000025f742c626208ac87e0b7d15054abb4a19ca2d735a54e",
    "block_time": 1710405325
  },
  "hex": "01000000000101a35055c9b64f3272d67a6604ea381b3a52791030167574e2a36241d2a79762540000000000ffffffff0280ba6100000000001976a9147d6a73f70bc93b775ba6516417f2568471ff8e6e88acf29dc30100000000160014667b932ef4cbdb9d101a0c76ece21ab769362e24024730440220524170294ccb580ce471495d4c5ee4513ee123d78804d706326f4017bdcf4e6002203f543828920aa014894783651f5f6bd64f18c1a37361d839e816e103c9c64b540121031182cce7244deec232af225fdc0a12afa5cc7a94e80a2227d914e855c0c095cb00000000"
}