{
  "txid": "e93efc232ae23f32afaa98704d4669d3efdc4332463de377c951f542b6232e35",
  "version": 2,
  "locktime": 834442,
  "vin": [
    {
      "txid": "44feb2c01b5f658dcca3044a6c800b1e5d2fbdd8fc6813a7c96cec8a7ed174c5",
      "vout": 0,
      "prevout": {
        "scriptpubkey": "00143af5181429af3eab9dbbefd4b392068b1d7204c5",
        "scriptpubkey_asm": "OP_0 OP_PUSHBYTES_20 3af5181429af3eab9dbbefd4b392068b1d7204c5",
        "scriptpubkey_type": "v0_p2wpkh",
        "scriptpubkey_address": "bc1q8t63s9pf4ul2h8dmal2t8ysx3vwhypx9vqypzt",
        "value": 15000
      },
      "scriptsig": "",
      "scriptsig_asm": "",
      "witness": [
        "3044022004782a32df2c034ad63e61aee0ed457c1dd54a473b0670428c3c44fa8b94a55902207c650e111267596afceb23b9c9392ea9e50ff144479cf25a9c959a068afdea5a01",
        "02066004ab08b3475dcc27b2225b52dab2b1698e21499c77c21ccb1efdc3cf42cd"
      ],
      "is_coinbase": false,
      "sequence": 4294967293
    }
  ],
  "vout": [
    {
      "scriptpubkey": "0014a8fdf6ace1eb5a895c3d09ecb8e6ec4305b77cd7",
      "scriptpubkey_asm": "OP_0 OP_PUSHBYTES_20 a8fdf6ace1eb5a895c3d09ecb8e6ec4305b77cd7",
      "scriptpubkey_type": "v0_p2wpkh",
      "scriptpubkey_address": "bc1q4r7ldt8paddgjhpap8kt3ehvgvzmwlxhaghffs",
      "value": 13756
    }
  ],
  "size": 191,
  "weight": 437,
  "fee": 1244,
  "status": {
    "confirmed": true,
    "block_height": 834460,
    "block_hash": "00000000000000000000484a79b643b2524bbce82e5d8a442013fa5b8905ed98",
    "block_time": 1710307468
  },
  "hex": "02000000000101c574d17e8aec6cc9a71368fcd8bd2f5d1e0b806c4a04a3cc8d655f1bc0b2fe440000000000fdffffff01bc35000000000000160014a8fdf6ace1eb5a895c3d09ecb8e6ec4305b77cd702473044022004782a32df2c034ad63e61aee0ed457c1dd54a473b0670428c3c44fa8b94a55902207c650e111267596afceb23b9c9392ea9e50ff144479cf25a9c959a068afdea5a012102066004ab08b3475dcc27b2225b52dab2b1698e21499c77c21ccb1efdc3cf42cd8abb0c00"
}