{
  "txid": "e9467294d53fb9ae4b82ab5ea704aed0ec989b7fdaeef89134bcab30ed3bfa8e",
  "version": 2,
  "locktime": 0,
  "vin": [
    {
      "txid": "9493b0a5b8c4269ab126acceedf16a4279183f9424fa1eba10a9a8f7cc1c29b1",
      "vout": 1,
      "prevout": {
        "scriptpubkey": "00144d3987d14ddc23a97325aeb47f246ac24dab8a36",
        "scriptpubkey_asm": "OP_0 OP_PUSHBYTES_20 4d3987d14ddc23a97325aeb47f246ac24dab8a36",
        "scriptpubkey_type": "v0_p2wpkh",
        "scriptpubkey_address": "bc1qf5uc052dms36jue946687fr2cfx6hz3kry9eyn",
        "value": 2456047
      },
      "scriptsig": "",
      "scriptsig_asm": "",
      "witness": [
        "3045022100c69d3418a981cab51dee296b17b49e273008f2405c2223203220c417fd795490022009f8de6174b63d7597c95155f117777ef7f58e4f4e324dd6068d09d47bb3685d01",
        "0213c7d614915659fe81bec7cc18b25926a7a63ed8cd4d14a1ec6fdc7422212f05"
      ],
      "is_coinbase": false,
      "sequence": 4294967295
    }
  ],
  "vout": [
    {
      "scriptpubkey": "0014f4e3657f9d3046d0f45c70bb8710185251499c2b",
      "scriptpubkey_asm": "OP_0 OP_PUSHBYTES_20 f4e3657f9d3046d0f45c70bb8710185251499c2b",
      "scriptpubkey_type": "v0_p2wpkh",
      "scriptpubkey_address": "bc1q7n3k2luaxprdpazuwzacwyqc2fg5n8pt7shzdx",
      "value": 2454298
    }
  ],
  "size": 192,
  "weight": 438,
  "fee": 1749,
  "status": {
    "confirmed": true,
    "block_height": 834638,
    "block_hash": "000000000000000000025f742c626208ac87e0b7d15054abb4a19ca2d735a54e",
    "block_time": 1710405325
  },
  "hex": "02000000000101b1291cccf7a8a910ba1efa24943f1879426af1edceac26b19a26c4b8a5b093940100000000ffffffff011a73250000000000160014f4e3657f9d3046d0f45c70bb8710185251499c2b02483045022100c69d3418a981cab51dee296b17b49e273008f2405c2223203220c417fd795490022009f8de6174b63d7597c95155f117777ef7f58e4f4e324dd6068d09d47bb3685d01210213c7d614915659fe81bec7cc18b25926a7a63ed8cd4d14a1ec6fdc7422212f0500000000"
}