{
  "txid": "e94fe8611b35caa09bc22bd45a9c11b60639ae91098d58df3c4fe637846f94c9",
  "version": 2,
  "locktime": 0,
  "vin": [
    {
      "txid": "aea8f49fcdbf06eeea5ee554e64c1b8082314b382359fda1959f54ccb2dc1576",
      "vout": 1,
      "prevout": {
        "scriptpubkey": "0014be9f0c070a9b1bd40f5fcb06fba89738d936ceb6",
        "scriptpubkey_asm": "OP_0 OP_PUSHBYTES_20 be9f0c070a9b1bd40f5fcb06fba89738d936ceb6",
        "scriptpubkey_type": "v0_p2wpkh",
        "scriptpubkey_address": "bc1qh60scpc2nvdagr6levr0h2yh8rvndn4k4v5s9g",
        "value": 691159
      },
      "scriptsig": "",
      "scriptsig_asm": "",
      "witness": [
        "3044022050a3e4f56a3e3d09fbeedc8afc03e01a31f394a3da8a999bd1ee258e63bf03c302201e181da1e337c274b3fcfe67119cc6106c3862159dcc1e0efa801ebd3080a6e201",
        "02218dd64e755318b9d490ebf5f2db6a520dd0735b22e019c9329df57694c8051c"
      ],
      "is_coinbase": false,
      "sequence": 4294967295
    }
  ],
  "vout": [
    {
      "scriptpubkey": "51204bc2436bbaaeba72d5fbe885c8a441e53a4903584811728f1f4efe85afc3a8a9",
      "scriptpubkey_asm": "OP_PUSHNUM_1 OP_PUSHBYTES_32 4bc2436bbaaeba72d5fbe885c8a441e53a4903584811728f1f4efe85afc3a8a9",
      "scriptpubkey_type": "v1_p2tr",
      "scriptpubkey_address": "bc1pf0pyx6a646a8940mazzu3fzpu5ayjq6cfqgh9rclfmlgtt7r4z5san0j3m",
      "value": 255700
    },
    {
      "scriptpubkey": "0014be9f0c070a9b1bd40f5fcb06fba89738d936ceb6",
      "scriptpubkey_asm": "OP_0 OP_PUSHBYTES_20 be9f0c070a9b1bd40f5fcb06fba89738d936ceb6",
      "scriptpubkey_type": "v0_p2wpkh",
      "scriptpubkey_address": "bc1qh60scpc2nvdagr6levr0h2yh8rvndn4k4v5s9g",
      "value": 433470
    }
  ],
  "size": 234,
  "weight": 609,
  "fee": 1989,
  "status": {
    "confirmed": true,
    "block_height": 834460,
    "block_hash": "00000000000000000000484a79b643b2524bbce82e5d8a442013fa5b8905ed98",
    "block_time": 1710307468
  },
  "hex": "020000000001017615dcb2cc549f95a1fd5923384b3182801b4ce654e55eeaee06bfcd9ff4a8ae0100000000ffffffff02d4e60300000000002251204bc2436bbaaeba72d5fbe885c8a441e53a4903584811728f1f4efe85afc3a8a93e9d060000000000160014be9f0c070a9b1bd40f5fcb06fba89738d936ceb602473044022050a3e4f56a3e3d09fbeedc8afc03e01a31f394a3da8a999bd1ee258e63bf03c302201e181da1e337c274b3fcfe67119cc6106c3862159dcc1e0efa801ebd3080a6e2012102218dd64e755318b9d490ebf5f2db6a520dd0735b22e019c9329df57694c8051c00000000"
}