{
  "txid": "e9628ded332b0ff209a7fef10147fe7145d81ec72330838acdb166d571e6d377",
  "version": 1,
  "locktime": 0,
  "vin": [
    {
      "txid": "888888888cbd57f3a45be3c64e05dfc7a23f1fcbbe2e487f51e2a4cde40c875d",
      "vout": 0,
      "prevout": {
        "scriptpubkey": "512082648e90a2c703e260808bfeded998329947abf5b76e49c33bfd613e9aabb4df",
        "scriptpubkey_asm": "OP_PUSHNUM_1 OP_PUSHBYTES_32 82648e90a2c703e260808bfeded998329947abf5b76e49c33bfd613e9aabb4df",
        "scriptpubkey_type": "v1_p2tr",
        "scriptpubkey_address": "bc1psfjgay9zcup7ycyq30ldakvcx2v502l4kahynseml4snax4tkn0s2hlpve",
        "value": 12071
      },
      "scriptsig": "",
      "scriptsig_asm": "",
      "witness": [
        "a4185a77735faf31327df2d73a897ac68bbe496751735c2ea5bfa5f4e8578035a748b2cdefd01dc0d2d3172ad2f17e2802076ade176688e0c5399b3ea70604f3",
        "20964ac4b39c9655d5bed1908c028e5b13bdcc67f011169207c5b2bcfd1aaffa8cac00630461746f6d03646d7446a16461726773a46474696d651a65f137ab656e6f6e63651a0001000068626974776f726b636b3838383838383838382e386b6d696e745f7469636b657268696e66696e69747968",
        "c1964ac4b39c9655d5bed1908c028e5b13bdcc67f011169207c5b2bcfd1aaffa8c"
      ],
      "is_coinbase": false,
      "sequence": 4294967295
    }
  ],
  "vout": [
    {
      "scriptpubkey": "5120c9778f0f7116a0fa90e759ca54b375f5c38d7db5875a2860af8354d65a8671e2",
      "scriptpubkey_asm": "OP_PUSHNUM_1 OP_PUSHBYTES_32 c9778f0f7116a0fa90e759ca54b375f5c38d7db5875a2860af8354d65a8671e2",
      "scriptpubkey_type": "v1_p2tr",
      "scriptpubkey_address": "bc1pe9mc7rm3z6s04y88t899fvm47hpc6ld4sadzsc90sd2dvk5xw83qeh2mmm",
      "value": 9999
    }
  ],
  "size": 314,
  "weight": 596,
  "fee": 2072,
  "status": {
    "confirmed": true,
    "block_height": 834460,
    "block_hash": "00000000000000000000484a79b643b2524bbce82e5d8a442013fa5b8905ed98",
    "block_time": 1710307468
  },
  "hex": "010000000001015d870ce4cda4e2517f482ebecb1f3fa2c7df054ec6e35ba4f357bd8c888888880000000000ffffffff010f27000000000000225120c9778f0f7116a0fa90e759ca54b375f5c38d7db5875a2860af8354d65a8671e20340a4185a77735faf31327df2d73a897ac68bbe496751735c2ea5bfa5f4e8578035a748b2cdefd01dc0d2d3172ad2f17e2802076ade176688e0c5399b3ea70604f37520964ac4b39c9655d5bed1908c028e5b13bdcc67f011169207c5b2bcfd1aaffa8cac00630461746f6d03646d7446a16461726773a46474696d651a65f137ab656e6f6e63651a0001000068626974776f726b636b3838383838383838382e386b6d696e745f7469636b657268696e66696e6974796821c1964ac4b39c9655d5bed1908c028e5b13bdcc67f011169207c5b2bcfd1aaffa8c00000000"
}