{
  "txid": "e96255df0710ff341f22447357f154fa7c133c6166c02a93a583e8655ed71f59",
  "version": 2,
  "locktime": 0,
  "vin": [
    {
      "txid": "9c10b007d2133e013cafef64d1faa7fec4afc4908ff78aa73222c05d55f4b3b4",
      "vout": 19,
      "prevout": {
        "scriptpubkey": "512053b784973fce6c780341422aca24114367f5e9e6ee7e082154c6b9117e554bfb",
        "scriptpubkey_asm": "OP_PUSHNUM_1 OP_PUSHBYTES_32 53b784973fce6c780341422aca24114367f5e9e6ee7e082154c6b9117e554bfb",
        "scriptpubkey_type": "v1_p2tr",
        "scriptpubkey_address": "bc1p2wmcf9eleek8sq6pgg4v5fq3gdnlt60xaelqsg25c6u3zlj4f0ashpuvwz",
        "value": 3248
      },
      "scriptsig": "",
      "scriptsig_asm": "",
      "witness": [
        "ecd9d2136d6ac728359d0a18a1050db25b503fc4f9e3e8185d667f901f6f060290915d2998495e6730d3747855a7767741af0d041609bc3e1a936cc8bd81de45",
        "2041d4b88e6fe926d24dcbdde1387dbe4d7670f33bb4771ea913ac3bcd210f2193ac0063036f726401011e6170706c69636174696f6e2f6a736f6e3b636861727365743d7574662d38004cd37b2270223a22706f772d3230222c226f70223a226d696e74222c227469636b223a2250455045222c22616d74223a2231303030222c22736f6c7574696f6e223a22504550453a62633170636a65387233733875656e746d64767a6e34777337786d3836367879707535756139357371796877756835616d61677565367a73707a733637713a303030303030303030303030303030303030303139393431613561653132383937363539383134343239323533333030353762306461393666336465613163353a3133333132353635323539227d68",
        "c13e1a296467c00ef4aae3d2c5b2725c238a71cd400892ce19de6d969e3f5bb91e"
      ],
      "is_coinbase": false,
      "sequence": 4294967295
    }
  ],
  "vout": [
    {
      "scriptpubkey": "5120c4b271c607e666bdb5829d5d0f1b67d68c40f29ce9690012eee5e9ddf51cce85",
      "scriptpubkey_asm": "OP_PUSHNUM_1 OP_PUSHBYTES_32 c4b271c607e666bdb5829d5d0f1b67d68c40f29ce9690012eee5e9ddf51cce85",
      "scriptpubkey_type": "v1_p2tr",
      "scriptpubkey_address": "bc1pcje8r3s8uentmdvzn4ws7xm866xypu5ua95sqyhwuh5amague6zspzs67q",
      "value": 546
    }
  ],
  "size": 487,
  "weight": 769,
  "fee": 2702,
  "status": {
    "confirmed": true,
    "block_height": 834460,
    "block_hash": "00000000000000000000484a79b643b2524bbce82e5d8a442013fa5b8905ed98",
    "block_time": 1710307468
  },
  "hex": "02000000000101b4b3f4555dc02232a78af78f90c4afc4fea7fad164efaf3c013e13d207b0109c1300000000ffffffff012202000000000000225120c4b271c607e666bdb5829d5d0f1b67d68c40f29ce9690012eee5e9ddf51cce850340ecd9d2136d6ac728359d0a18a1050db25b503fc4f9e3e8185d667f901f6f060290915d2998495e6730d3747855a7767741af0d041609bc3e1a936cc8bd81de45fd20012041d4b88e6fe926d24dcbdde1387dbe4d7670f33bb4771ea913ac3bcd210f2193ac0063036f726401011e6170706c69636174696f6e2f6a736f6e3b636861727365743d7574662d38004cd37b2270223a22706f772d3230222c226f70223a226d696e74222c227469636b223a2250455045222c22616d74223a2231303030222c22736f6c7574696f6e223a22504550453a62633170636a65387233733875656e746d64767a6e34777337786d3836367879707535756139357371796877756835616d61677565367a73707a733637713a303030303030303030303030303030303030303139393431613561653132383937363539383134343239323533333030353762306461393666336465613163353a3133333132353635323539227d6821c13e1a296467c00ef4aae3d2c5b2725c238a71cd400892ce19de6d969e3f5bb91e00000000"
}