{
  "txid": "e9630738257e18af8aae0e5de9a0fd93a01d3018377b72a2ba72443c987570a5",
  "version": 1,
  "locktime": 0,
  "vin": [
    {
      "txid": "76318f0502ef634bb8cb77b43536691d18b544be2dc9ff42372a8cdce7821363",
      "vout": 17,
      "prevout": {
        "scriptpubkey": "00144daaadeab4851d02ac4a8fa356243b123803c989",
        "scriptpubkey_asm": "OP_0 OP_PUSHBYTES_20 4daaadeab4851d02ac4a8fa356243b123803c989",
        "scriptpubkey_type": "v0_p2wpkh",
        "scriptpubkey_address": "bc1qfk42m645s5ws9tz23734vfpmzguq8jvfsjz2nq",
        "value": 553752
      },
      "scriptsig": "",
      "scriptsig_asm": "",
      "witness": [
        "3045022100b692081152338fac83e355493b310d609958a520fddffd970f91cea554e851cb02206011bc1d820bd4b2d7bab3fae07ea5df17ad9bf70f1cfe8e3b80d6d36aa1b63a01",
        "03528180786e029c5444ca6458ca3c49eed31c82c31f65a0344c7220f6c840717d"
      ],
      "is_coinbase": false,
      "sequence": 4294967295
    }
  ],
  "vout": [
    {
      "scriptpubkey": "a9146ba95db0281cefc1a7df8d108401bf73ff34b22c87",
      "scriptpubkey_asm": "OP_HASH160 OP_PUSHBYTES_20 6ba95db0281cefc1a7df8d108401bf73ff34b22c OP_EQUAL",
      "scriptpubkey_type": "p2sh",
      "scriptpubkey_address": "3BWH7piLiwzGH8zomwoYtT8W7wJutpS631",
      "value": 10000
    },
    {
      "scriptpubkey": "5120f667fb71545e9b6994f47808e306f8a1c871d3d01645cc4d362ce7ae40e7ea15",
      "scriptpubkey_asm": "OP_PUSHNUM_1 OP_PUSHBYTES_32 f667fb71545e9b6994f47808e306f8a1c871d3d01645cc4d362ce7ae40e7ea15",
      "scriptpubkey_type": "v1_p2tr",
      "scriptpubkey_address": "bc1p7enlku25t6dkn9850qywxphc58y8r57szezucnfk9nn6us88ag2s7nkj9s",
      "value": 542058
    }
  ],
  "size": 236,
  "weight": 614,
  "fee": 1694,
  "status": {
    "confirmed": true,
    "block_height": 834464,
    "block_hash": "0000000000000000000177a0869a911a2b65c9bdcd5a8bcb02b68f305bee848e",
    "block_time": 1710308296
  },
  "hex": "01000000000101631382e7dc8c2a3742ffc92dbe44b5181d693635b477cbb84b63ef02058f31761100000000ffffffff02102700000000000017a9146ba95db0281cefc1a7df8d108401bf73ff34b22c876a45080000000000225120f667fb71545e9b6994f47808e306f8a1c871d3d01645cc4d362ce7ae40e7ea1502483045022100b692081152338fac83e355493b310d609958a520fddffd970f91cea554e851cb02206011bc1d820bd4b2d7bab3fae07ea5df17ad9bf70f1cfe8e3b80d6d36aa1b63a012103528180786e029c5444ca6458ca3c49eed31c82c31f65a0344c7220f6c840717d00000000"
}