{
  "txid": "e96afee7b926ba56e1be566c6225945f88a0a2cb968b6700e79763385fb89f10",
  "version": 1,
  "locktime": 0,
  "vin": [
    {
      "txid": "d01298c4be29f3ed1f9bdbcf733e7c5cd205eab57fddadef86ba2af7b5e74b7d",
      "vout": 0,
      "prevout": {
        "scriptpubkey": "00146d11f6234b46baf7ba8583f5026a4d58d66a7b69",
        "scriptpubkey_asm": "OP_0 OP_PUSHBYTES_20 6d11f6234b46baf7ba8583f5026a4d58d66a7b69",
        "scriptpubkey_type": "v0_p2wpkh",
        "scriptpubkey_address": "bc1qd5glvg6tg6a00w59s06sy6jdtrtx57mf5pfxez",
        "value": 689519
      },
      "scriptsig": "",
      "scriptsig_asm": "",
      "witness": [
        "304402201a1bfdd1dfcfb874283feba7c3fda26d82eb0f0b946ff717ebac25404445071202202cf6d5e519aa43a0a843595cd2f22485d4301c6623518e11d1680359e7d8abab01",
        "033aed60cfa935212f2afc1d2be287d747ad6e21929b3c72fca90a0f5c0f493462"
      ],
      "is_coinbase": false,
      "sequence": 4294967293
    }
  ],
  "vout": [
    {
      "scriptpubkey": "001418d31a52b69f9d4312b718a8c132119023e0b996",
      "scriptpubkey_asm": "OP_0 OP_PUSHBYTES_20 18d31a52b69f9d4312b718a8c132119023e0b996",
      "scriptpubkey_type": "v0_p2wpkh",
      "scriptpubkey_address": "bc1qrrf3554kn7w5xy4hrz5vzvs3jq37pwvk260ums",
      "value": 687979
    }
  ],
  "size": 191,
  "weight": 437,
  "fee": 1540,
  "status": {
    "confirmed": true,
    "block_height": 834638,
    "block_hash": "000000000000000000025f742c626208ac87e0b7d15054abb4a19ca2d735a54e",
    "block_time": 1710405325
  },
  "hex": "010000000001017d4be7b5f72aba86efaddd7fb5ea05d25c7c3e73cfdb9b1fedf329bec49812d00000000000fdffffff016b7f0a000000000016001418d31a52b69f9d4312b718a8c132119023e0b9960247304402201a1bfdd1dfcfb874283feba7c3fda26d82eb0f0b946ff717ebac25404445071202202cf6d5e519aa43a0a843595cd2f22485d4301c6623518e11d1680359e7d8abab0121033aed60cfa935212f2afc1d2be287d747ad6e21929b3c72fca90a0f5c0f49346200000000"
}