{
  "txid": "e97e360e51cfa9ee2fa7720c8d660faf5246a4fbb0c8d52c84e0af76b7be02c6",
  "version": 1,
  "locktime": 0,
  "vin": [
    {
      "txid": "135475a221682c3cde2fe750b2d37aab29576b3597c1aa450f9f0ce97b0714ca",
      "vout": 1,
      "prevout": {
        "scriptpubkey": "0014dfbe26719c1dde89ebc9f433cc40f7dd5995a1bb",
        "scriptpubkey_asm": "OP_0 OP_PUSHBYTES_20 dfbe26719c1dde89ebc9f433cc40f7dd5995a1bb",
        "scriptpubkey_type": "v0_p2wpkh",
        "scriptpubkey_address": "bc1qm7lzvuvurh0gn67f7seucs8hm4vetgdmwu4k4x",
        "value": 209852
      },
      "scriptsig": "",
      "scriptsig_asm": "",
      "witness": [
        "3045022100e23a6ba958eb66f57463043e46abaddc82ef44d5940db94d1c77e6db1eb0b0c202207dc56d71391326d9e251fde084364978feab375a49ff7de2cc3b2023161e4cf601",
        "03122a99eced1343470d27bfab9549793711f1c97816d977f09caaa2ee9a1807d2"
      ],
      "is_coinbase": false,
      "sequence": 4294967295
    }
  ],
  "vout": [
    {
      "scriptpubkey": "a914701e2528403ee5ddf57efd4c1a74f4c4a43bee2c87",
      "scriptpubkey_asm": "OP_HASH160 OP_PUSHBYTES_20 701e2528403ee5ddf57efd4c1a74f4c4a43bee2c OP_EQUAL",
      "scriptpubkey_type": "p2sh",
      "scriptpubkey_address": "3BuqiYs5Ju6qGdqGNqqqdqK4Rdic3Tirrm",
      "value": 68047
    },
    {
      "scriptpubkey": "0014dfbe26719c1dde89ebc9f433cc40f7dd5995a1bb",
      "scriptpubkey_asm": "OP_0 OP_PUSHBYTES_20 dfbe26719c1dde89ebc9f433cc40f7dd5995a1bb",
      "scriptpubkey_type": "v0_p2wpkh",
      "scriptpubkey_address": "bc1qm7lzvuvurh0gn67f7seucs8hm4vetgdmwu4k4x",
      "value": 137971
    }
  ],
  "size": 224,
  "weight": 566,
  "fee": 3834,
  "status": {
    "confirmed": true,
    "block_height": 834638,
    "block_hash": "000000000000000000025f742c626208ac87e0b7d15054abb4a19ca2d735a54e",
    "block_time": 1710405325
  },
  "hex": "01000000000101ca14077be90c9f0f45aac197356b5729ab7ad3b250e72fde3c2c6821a27554130100000000ffffffff02cf0901000000000017a914701e2528403ee5ddf57efd4c1a74f4c4a43bee2c87f31a020000000000160014dfbe26719c1dde89ebc9f433cc40f7dd5995a1bb02483045022100e23a6ba958eb66f57463043e46abaddc82ef44d5940db94d1c77e6db1eb0b0c202207dc56d71391326d9e251fde084364978feab375a49ff7de2cc3b2023161e4cf6012103122a99eced1343470d27bfab9549793711f1c97816d977f09caaa2ee9a1807d200000000"
}