{
  "txid": "e98e3e9f81cbc3d9e748e65ddeb3d001721efe02893412c151430943179d5620",
  "version": 2,
  "locktime": 0,
  "vin": [
    {
      "txid": "d98a7db3ed34c2fa7b0d72a17da9da49e4623e7928769ed659fd0cf68822fa13",
      "vout": 0,
      "prevout": {
        "scriptpubkey": "512069b09322c025b9f0d82ff5c5122bd80aa53d2e48667c51800fa5bfff897bb306",
        "scriptpubkey_asm": "OP_PUSHNUM_1 OP_PUSHBYTES_32 69b09322c025b9f0d82ff5c5122bd80aa53d2e48667c51800fa5bfff897bb306",
        "scriptpubkey_type": "v1_p2tr",
        "scriptpubkey_address": "bc1pdxcfxgkqykulpkp07hz3y27cp2jn6tjgve79rqq05klllztmkvrqmvpy5d",
        "value": 2946
      },
      "scriptsig": "",
      "scriptsig_asm": "",
      "witness": [
        "e4e2914c833227d498e97d094d05c70741a1c3b2d238b13a8652128791f65b2b3e450d5b151aaa696e726862bcb63e197e51d55c383ff72ce09fc784b1a570b4",
        "20b6a5ac5e30dcd9d51b4320345f9bbf56c4885f7020986f15f13816cbf84b29d7ac0063036f72640101106170706c69636174696f6e2f6a736f6e00387b2270223a226272632d3230222c226f70223a227472616e73666572222c227469636b223a2254534858222c22616d74223a22343330227d68",
        "c0b6a5ac5e30dcd9d51b4320345f9bbf56c4885f7020986f15f13816cbf84b29d7"
      ],
      "is_coinbase": false,
      "sequence": 4294967293
    }
  ],
  "vout": [
    {
      "scriptpubkey": "51204b3def6b7bdf9758a317f5eafc03b3a744cc6bb7dad731af7edbfbb555c2be75",
      "scriptpubkey_asm": "OP_PUSHNUM_1 OP_PUSHBYTES_32 4b3def6b7bdf9758a317f5eafc03b3a744cc6bb7dad731af7edbfbb555c2be75",
      "scriptpubkey_type": "v1_p2tr",
      "scriptpubkey_address": "bc1pfv7776mmm7t43gch7h40cqan5azvc6ahmttnrtm7m0am24wzhe6smdt3m6",
      "value": 546
    }
  ],
  "size": 315,
  "weight": 597,
  "fee": 2400,
  "status": {
    "confirmed": true,
    "block_height": 834552,
    "block_hash": "00000000000000000001dd0468a70c94f619251d286585cff57aeb4bd9ede330",
    "block_time": 1710355598
  },
  "hex": "0200000000010113fa2288f60cfd59d69e7628793e62e449daa97da1720d7bfac234edb37d8ad90000000000fdffffff0122020000000000002251204b3def6b7bdf9758a317f5eafc03b3a744cc6bb7dad731af7edbfbb555c2be750340e4e2914c833227d498e97d094d05c70741a1c3b2d238b13a8652128791f65b2b3e450d5b151aaa696e726862bcb63e197e51d55c383ff72ce09fc784b1a570b47620b6a5ac5e30dcd9d51b4320345f9bbf56c4885f7020986f15f13816cbf84b29d7ac0063036f72640101106170706c69636174696f6e2f6a736f6e00387b2270223a226272632d3230222c226f70223a227472616e73666572222c227469636b223a2254534858222c22616d74223a22343330227d6821c0b6a5ac5e30dcd9d51b4320345f9bbf56c4885f7020986f15f13816cbf84b29d700000000"
}