{
  "txid": "e99a3eceb12cad45beb08064eda2587f35d9283e04f1c7167cb5a660bbcd40e2",
  "version": 2,
  "locktime": 0,
  "vin": [
    {
      "txid": "4ee77778659dcfe8d7a4e15882fc6193f4f3d5f6607624e256337b44c2280af5",
      "vout": 31,
      "prevout": {
        "scriptpubkey": "5120b593c534fed47170e9c52feeff3f6840606434527c8353ad21bcce6bbb7fca4a",
        "scriptpubkey_asm": "OP_PUSHNUM_1 OP_PUSHBYTES_32 b593c534fed47170e9c52feeff3f6840606434527c8353ad21bcce6bbb7fca4a",
        "scriptpubkey_type": "v1_p2tr",
        "scriptpubkey_address": "bc1pkkfu2d8763chp6w99lh070mggpsxgdzj0jp48tfphn8xhwmlef9qpcupzx",
        "value": 2075
      },
      "scriptsig": "",
      "scriptsig_asm": "",
      "witness": [
        "196a01182505d22f770a3e4556817ed660ba3d72333d8046f1cf039c3299a1c0089b8ac2898df39258e854797ed23ec89935887ae82a66736f7a4ebabd6e507c",
        "20a82bbe631ed36760b66c936193442a28cc1916f6a587c4f628f95df610c9df3dac0063036f7264010118746578742f706c61696e3b636861727365743d7574662d3800357b2270223a224252432d313030222c226f70223a226d696e74222c227469636b223a22696e73222c22616d74223a2231303030227d68",
        "c1c50eac15d7d7889f5ad84f80015e8a209129aeea937c37fa4b8bc0f9be289730"
      ],
      "is_coinbase": false,
      "sequence": 4294967295
    }
  ],
  "vout": [
    {
      "scriptpubkey": "00143e2325412b554cacdd163a93a42204c4707f8851",
      "scriptpubkey_asm": "OP_0 OP_PUSHBYTES_20 3e2325412b554cacdd163a93a42204c4707f8851",
      "scriptpubkey_type": "v0_p2wpkh",
      "scriptpubkey_address": "bc1q8c3j2sft24x2ehgk82f6ggsyc3c8lzz3yw9wsu",
      "value": 546
    }
  ],
  "size": 308,
  "weight": 554,
  "fee": 1529,
  "status": {
    "confirmed": true,
    "block_height": 834464,
    "block_hash": "0000000000000000000177a0869a911a2b65c9bdcd5a8bcb02b68f305bee848e",
    "block_time": 1710308296
  },
  "hex": "02000000000101f50a28c2447b3356e2247660f6d5f3f49361fc8258e1a4d7e8cf9d657877e74e1f00000000ffffffff0122020000000000001600143e2325412b554cacdd163a93a42204c4707f88510340196a01182505d22f770a3e4556817ed660ba3d72333d8046f1cf039c3299a1c0089b8ac2898df39258e854797ed23ec89935887ae82a66736f7a4ebabd6e507c7b20a82bbe631ed36760b66c936193442a28cc1916f6a587c4f628f95df610c9df3dac0063036f7264010118746578742f706c61696e3b636861727365743d7574662d3800357b2270223a224252432d313030222c226f70223a226d696e74222c227469636b223a22696e73222c22616d74223a2231303030227d6821c1c50eac15d7d7889f5ad84f80015e8a209129aeea937c37fa4b8bc0f9be28973000000000"
}