{
  "txid": "e99cf8bba2fdf8ce10eae783454521c68c5265525f9c77bc40de4a690820486d",
  "version": 2,
  "locktime": 0,
  "vin": [
    {
      "txid": "fc89c552e4e86f10809e576924197bd058d495fc7316897ae99f3c6d34dcd493",
      "vout": 3,
      "prevout": {
        "scriptpubkey": "5120d409a39d5f0b450fe4c411e49d5402eb563c60b6bd5b7774e42477d832ce71e2",
        "scriptpubkey_asm": "OP_PUSHNUM_1 OP_PUSHBYTES_32 d409a39d5f0b450fe4c411e49d5402eb563c60b6bd5b7774e42477d832ce71e2",
        "scriptpubkey_type": "v1_p2tr",
        "scriptpubkey_address": "bc1p6sy6882lpdzslexyz8jf64qzadtrcc9kh4dhwa8yy3masvkww83qlqh3t9",
        "value": 2658
      },
      "scriptsig": "",
      "scriptsig_asm": "",
      "witness": [
        "e7e4f0348996b0ee771bd60cdc782675e5133241123fabd87599c1533989771cdf3952739ce4111a4ff67fb8707c2e9b4f3b72b4e402ebe0916f0ca5d3e7f0da",
        "20fc993d6e1462091ecccfb253ba66bcb7bd2ac7823a2a3d6658cd654c1d4d393bac0063036f726401011e6170706c69636174696f6e2f6a736f6e3b636861727365743d7574662d38004cbf7b2270223a22706f772d3230222c226f70223a226d696e74222c227469636b223a2250455045222c22616d74223a2231303030222c22736f6c7574696f6e223a22504550453a6263317171633839726a7563797a776c77786d7761646c7763797139353668726e726b6a6833637361723a303030303030303030303030303030303030303139393431613561653132383937363539383134343239323533333030353762306461393666336465613163353a3333323332383937343233227d68",
        "c0def3a919f167a22fa6dfb9fa98ee16800d5a99e15fd4f4bd107d87271701c38a"
      ],
      "is_coinbase": false,
      "sequence": 4294967295
    }
  ],
  "vout": [
    {
      "scriptpubkey": "0014060e51cb98209df71b6eeb7eec1005a6ae398ed2",
      "scriptpubkey_asm": "OP_0 OP_PUSHBYTES_20 060e51cb98209df71b6eeb7eec1005a6ae398ed2",
      "scriptpubkey_type": "v0_p2wpkh",
      "scriptpubkey_address": "bc1qqc89rjucyzwlwxmwadlwcyq956hrnrkjh3csar",
      "value": 546
    }
  ],
  "size": 455,
  "weight": 701,
  "fee": 2112,
  "status": {
    "confirmed": true,
    "block_height": 834460,
    "block_hash": "00000000000000000000484a79b643b2524bbce82e5d8a442013fa5b8905ed98",
    "block_time": 1710307468
  },
  "hex": "0200000000010193d4dc346d3c9fe97a891673fc95d458d07b192469579e80106fe8e452c589fc0300000000ffffffff012202000000000000160014060e51cb98209df71b6eeb7eec1005a6ae398ed20340e7e4f0348996b0ee771bd60cdc782675e5133241123fabd87599c1533989771cdf3952739ce4111a4ff67fb8707c2e9b4f3b72b4e402ebe0916f0ca5d3e7f0dafd0c0120fc993d6e1462091ecccfb253ba66bcb7bd2ac7823a2a3d6658cd654c1d4d393bac0063036f726401011e6170706c69636174696f6e2f6a736f6e3b636861727365743d7574662d38004cbf7b2270223a22706f772d3230222c226f70223a226d696e74222c227469636b223a2250455045222c22616d74223a2231303030222c22736f6c7574696f6e223a22504550453a6263317171633839726a7563797a776c77786d7761646c7763797139353668726e726b6a6833637361723a303030303030303030303030303030303030303139393431613561653132383937363539383134343239323533333030353762306461393666336465613163353a3333323332383937343233227d6821c0def3a919f167a22fa6dfb9fa98ee16800d5a99e15fd4f4bd107d87271701c38a00000000"
}