{
  "txid": "e9a4487734fb9e8c064504cf71e0ffe53020d97a3cf8f19b9678e8a3e0cebae6",
  "version": 1,
  "locktime": 0,
  "vin": [
    {
      "txid": "f3e6a4b6c4b74d3e06dc33178c0ede1517a7a7b4bd84ee1b71c99720ec43d50b",
      "vout": 1,
      "prevout": {
        "scriptpubkey": "0014c8e74e772f568d0cde369a4415b6dc5fd4422278",
        "scriptpubkey_asm": "OP_0 OP_PUSHBYTES_20 c8e74e772f568d0cde369a4415b6dc5fd4422278",
        "scriptpubkey_type": "v0_p2wpkh",
        "scriptpubkey_address": "bc1qern5uae026xseh3knfzptdkutl2yygnc0jgw6x",
        "value": 4407697
      },
      "scriptsig": "",
      "scriptsig_asm": "",
      "witness": [
        "3044022062a763cbdf5045bcbdf9c70c2e286ad6da68f07067ce4b1768fe634ea6cbc21902201341b46e3b8684400194df8f369be7864463a0530f5e8035696c18544f721c1001",
        "03aba8226eaddb95be2d2a621bde91071f86189fce989bc669b8a83cfa16cd1c96"
      ],
      "is_coinbase": false,
      "sequence": 4294967295
    }
  ],
  "vout": [
    {
      "scriptpubkey": "00149ad65fdbf649321a77ead284fe9e07d4fc59bc7d",
      "scriptpubkey_asm": "OP_0 OP_PUSHBYTES_20 9ad65fdbf649321a77ead284fe9e07d4fc59bc7d",
      "scriptpubkey_type": "v0_p2wpkh",
      "scriptpubkey_address": "bc1qntt9lklkfyep5al262z0a8s86n79n0raedzpjj",
      "value": 75000
    },
    {
      "scriptpubkey": "0014c8e74e772f568d0cde369a4415b6dc5fd4422278",
      "scriptpubkey_asm": "OP_0 OP_PUSHBYTES_20 c8e74e772f568d0cde369a4415b6dc5fd4422278",
      "scriptpubkey_type": "v0_p2wpkh",
      "scriptpubkey_address": "bc1qern5uae026xseh3knfzptdkutl2yygnc0jgw6x",
      "value": 4328890
    }
  ],
  "size": 222,
  "weight": 561,
  "fee": 3807,
  "status": {
    "confirmed": true,
    "block_height": 834638,
    "block_hash": "000000000000000000025f742c626208ac87e0b7d15054abb4a19ca2d735a54e",
    "block_time": 1710405325
  },
  "hex": "010000000001010bd543ec2097c9711bee84bdb4a7a71715de0e8c1733dc063e4db7c4b6a4e6f30100000000ffffffff02f8240100000000001600149ad65fdbf649321a77ead284fe9e07d4fc59bc7dba0d420000000000160014c8e74e772f568d0cde369a4415b6dc5fd442227802473044022062a763cbdf5045bcbdf9c70c2e286ad6da68f07067ce4b1768fe634ea6cbc21902201341b46e3b8684400194df8f369be7864463a0530f5e8035696c18544f721c10012103aba8226eaddb95be2d2a621bde91071f86189fce989bc669b8a83cfa16cd1c9600000000"
}