{
  "txid": "e9ad7580e9c06c3376aa72aa47c101dbea978d333fb1c85ac923d54e779edab5",
  "version": 2,
  "locktime": 0,
  "vin": [
    {
      "txid": "718fc4cceca2dc07eb0544f314b2569963be2bd17ee20c1bb1b9950794f8edc9",
      "vout": 2,
      "prevout": {
        "scriptpubkey": "00147782e4daa4ce71ea2b712ac59ee75875297ff8b5",
        "scriptpubkey_asm": "OP_0 OP_PUSHBYTES_20 7782e4daa4ce71ea2b712ac59ee75875297ff8b5",
        "scriptpubkey_type": "v0_p2wpkh",
        "scriptpubkey_address": "bc1qw7pwfk4yeec752m39tzeae6cw55hl794w4qry8",
        "value": 1311703
      },
      "scriptsig": "",
      "scriptsig_asm": "",
      "witness": [
        "3044022034d68189613eb95a61c65017c2e9315dc2056e88ddddce8764654e3d39c4763302203bb02b31afaa7022a27b0d1a1c4027a7eb20de2d5ee4920d4ef8021d3f61887d01",
        "037039aa185a7a50bc46805445a0cc372696978a38082585f96015c9aafda497bf"
      ],
      "is_coinbase": false,
      "sequence": 4294967295
    },
    {
      "txid": "2986568b6e1e73f320eb4d4b234fc7448d80a30de350043dad71e0850ce3745c",
      "vout": 166,
      "prevout": {
        "scriptpubkey": "00147782e4daa4ce71ea2b712ac59ee75875297ff8b5",
        "scriptpubkey_asm": "OP_0 OP_PUSHBYTES_20 7782e4daa4ce71ea2b712ac59ee75875297ff8b5",
        "scriptpubkey_type": "v0_p2wpkh",
        "scriptpubkey_address": "bc1qw7pwfk4yeec752m39tzeae6cw55hl794w4qry8",
        "value": 61464
      },
      "scriptsig": "",
      "scriptsig_asm": "",
      "witness": [
        "3044022031eebc709ced0c481a27abc75a1fd2b60dc3e6bb7398ec3f3e73c39c054f10cc022068fa9efd93644ddf4a39ba6be5a181b4cabb9175f67ec2fc1a564d14a32ef66201",
        "037039aa185a7a50bc46805445a0cc372696978a38082585f96015c9aafda497bf"
      ],
      "is_coinbase": false,
      "sequence": 4294967295
    }
  ],
  "vout": [
    {
      "scriptpubkey": "76a9149f2a4b0ea733d99019f46d4b8105b79da6bc73a688ac",
      "scriptpubkey_asm": "OP_DUP OP_HASH160 OP_PUSHBYTES_20 9f2a4b0ea733d99019f46d4b8105b79da6bc73a6 OP_EQUALVERIFY OP_CHECKSIG",
      "scriptpubkey_type": "p2pkh",
      "scriptpubkey_address": "1FWb75r62LYPSg6CRUfFdkzFsAhLk7C7GQ",
      "value": 1368280
    }
  ],
  "size": 342,
  "weight": 720,
  "fee": 4887,
  "status": {
    "confirmed": true,
    "block_height": 834552,
    "block_hash": "00000000000000000001dd0468a70c94f619251d286585cff57aeb4bd9ede330",
    "block_time": 1710355598
  },
  "hex": "02000000000102c9edf8940795b9b11b0ce27ed12bbe639956b214f34405eb07dca2ecccc48f710200000000ffffffff5c74e30c85e071ad3d0450e30da3808d44c74f234b4deb20f3731e6e8b568629a600000000ffffffff01d8e01400000000001976a9149f2a4b0ea733d99019f46d4b8105b79da6bc73a688ac02473044022034d68189613eb95a61c65017c2e9315dc2056e88ddddce8764654e3d39c4763302203bb02b31afaa7022a27b0d1a1c4027a7eb20de2d5ee4920d4ef8021d3f61887d0121037039aa185a7a50bc46805445a0cc372696978a38082585f96015c9aafda497bf02473044022031eebc709ced0c481a27abc75a1fd2b60dc3e6bb7398ec3f3e73c39c054f10cc022068fa9efd93644ddf4a39ba6be5a181b4cabb9175f67ec2fc1a564d14a32ef6620121037039aa185a7a50bc46805445a0cc372696978a38082585f96015c9aafda497bf00000000"
}