{
  "txid": "e9b0f421e0d030e575a0833ab352d2307190ff2520c52982384486408579f37a",
  "version": 1,
  "locktime": 0,
  "vin": [
    {
      "txid": "2bf0094a2ef3bdea4277d329adf8bd664de95beccb1539a8973b36c2fd893f7d",
      "vout": 160,
      "prevout": {
        "scriptpubkey": "0014945e9ea6935b8e74f433edebc1527b11955a6154",
        "scriptpubkey_asm": "OP_0 OP_PUSHBYTES_20 945e9ea6935b8e74f433edebc1527b11955a6154",
        "scriptpubkey_type": "v0_p2wpkh",
        "scriptpubkey_address": "bc1qj30faf5ntw88fapnah4uz5nmzx245c25clerw6",
        "value": 21842
      },
      "scriptsig": "",
      "scriptsig_asm": "",
      "witness": [
        "30440220587dad9785cfdffbc35d81bd48f85501d6f7037eb7dc04dd6ef6b893bc2731a902203f7a5274f693a5aca2d25a938765b367629821ec60087855f37e91f427953e6a01",
        "0397d0f6734fb0693320aa6cfd5b0bd8b84362de60079f75ee4160b7342322108c"
      ],
      "is_coinbase": false,
      "sequence": 4294967295
    }
  ],
  "vout": [
    {
      "scriptpubkey": "001411daad6983e7590e46641c53e81807065b3a12d8",
      "scriptpubkey_asm": "OP_0 OP_PUSHBYTES_20 11daad6983e7590e46641c53e81807065b3a12d8",
      "scriptpubkey_type": "v0_p2wpkh",
      "scriptpubkey_address": "bc1qz8d266vruavsu3nyr3f7sxq8qedn5ykcx8xpdd",
      "value": 18872
    }
  ],
  "size": 191,
  "weight": 437,
  "fee": 2970,
  "status": {
    "confirmed": true,
    "block_height": 834638,
    "block_hash": "000000000000000000025f742c626208ac87e0b7d15054abb4a19ca2d735a54e",
    "block_time": 1710405325
  },
  "hex": "010000000001017d3f89fdc2363b97a83915cbec5be94d66bdf8ad29d37742eabdf32e4a09f02ba000000000ffffffff01b84900000000000016001411daad6983e7590e46641c53e81807065b3a12d8024730440220587dad9785cfdffbc35d81bd48f85501d6f7037eb7dc04dd6ef6b893bc2731a902203f7a5274f693a5aca2d25a938765b367629821ec60087855f37e91f427953e6a01210397d0f6734fb0693320aa6cfd5b0bd8b84362de60079f75ee4160b7342322108c00000000"
}