{
  "txid": "e9caff48830c878acd3c9334c83a81be8eb81ef638a3336d5a9e847e711f5920",
  "version": 2,
  "locktime": 0,
  "vin": [
    {
      "txid": "2f566bf00c5714d37b583fd9bf8931da1fb4271b3369b493d711cf702298d1c7",
      "vout": 5,
      "prevout": {
        "scriptpubkey": "001450c4acab8fcff83721db97459f4afba1a53c487b",
        "scriptpubkey_asm": "OP_0 OP_PUSHBYTES_20 50c4acab8fcff83721db97459f4afba1a53c487b",
        "scriptpubkey_type": "v0_p2wpkh",
        "scriptpubkey_address": "bc1q2rz2e2u0elurwgwmjaze7jhm5xjncjrmwljedp",
        "value": 220740
      },
      "scriptsig": "",
      "scriptsig_asm": "",
      "witness": [
        "304402201b377f0a17a9bd133e0ab0eaec60753016ca1b50514c66cf3246e935fa20fd8d02201e3cec26e06360bfb934dcec2bf0ccb8ea90bcdc3199aaa0fa6b39450d1842de01",
        "02db2c5b22a2e19ee029a4e6e62570dc81265d5449a08dbdbf2bfa9f8ebfdccdfa"
      ],
      "is_coinbase": false,
      "sequence": 4294967293
    }
  ],
  "vout": [
    {
      "scriptpubkey": "0014abe09e80b48c91ad754cc2485f8cc59b15768c14",
      "scriptpubkey_asm": "OP_0 OP_PUSHBYTES_20 abe09e80b48c91ad754cc2485f8cc59b15768c14",
      "scriptpubkey_type": "v0_p2wpkh",
      "scriptpubkey_address": "bc1q40sfaq953jg66a2vcfy9lrx9nv2hdrq5rsy06n",
      "value": 3300
    },
    {
      "scriptpubkey": "00146469aed76d01be49562db6b36ccf82b75a15bbba",
      "scriptpubkey_asm": "OP_0 OP_PUSHBYTES_20 6469aed76d01be49562db6b36ccf82b75a15bbba",
      "scriptpubkey_type": "v0_p2wpkh",
      "scriptpubkey_address": "bc1qv356a4mdqxlyj43dk6ekenuzkadptwa6ujc3pr",
      "value": 2313
    },
    {
      "scriptpubkey": "001412449f8400ff38f6d343470373f41260576bb878",
      "scriptpubkey_asm": "OP_0 OP_PUSHBYTES_20 12449f8400ff38f6d343470373f41260576bb878",
      "scriptpubkey_type": "v0_p2wpkh",
      "scriptpubkey_address": "bc1qzfzflpqqluu0d56rguph8aqjvptkhwrcgegup0",
      "value": 213229
    }
  ],
  "size": 253,
  "weight": 685,
  "fee": 1898,
  "status": {
    "confirmed": true,
    "block_height": 834460,
    "block_hash": "00000000000000000000484a79b643b2524bbce82e5d8a442013fa5b8905ed98",
    "block_time": 1710307468
  },
  "hex": "02000000000101c7d1982270cf11d793b469331b27b41fda3189bfd93f587bd314570cf06b562f0500000000fdffffff03e40c000000000000160014abe09e80b48c91ad754cc2485f8cc59b15768c1409090000000000001600146469aed76d01be49562db6b36ccf82b75a15bbbaed4003000000000016001412449f8400ff38f6d343470373f41260576bb8780247304402201b377f0a17a9bd133e0ab0eaec60753016ca1b50514c66cf3246e935fa20fd8d02201e3cec26e06360bfb934dcec2bf0ccb8ea90bcdc3199aaa0fa6b39450d1842de012102db2c5b22a2e19ee029a4e6e62570dc81265d5449a08dbdbf2bfa9f8ebfdccdfa00000000"
}