{
  "txid": "e9d134237b7315d4ecc6431e1964b5e1f46403139ee4f4a986ad6c44ec794016",
  "version": 1,
  "locktime": 0,
  "vin": [
    {
      "txid": "d8c55050cd1133aaee0768e4d3cff8b65b8f1f9f87d76ebdb09041ed93236959",
      "vout": 7,
      "prevout": {
        "scriptpubkey": "a914e39f3e8aac37cf712bd65ae854c3888a9242468887",
        "scriptpubkey_asm": "OP_HASH160 OP_PUSHBYTES_20 e39f3e8aac37cf712bd65ae854c3888a92424688 OP_EQUAL",
        "scriptpubkey_type": "p2sh",
        "scriptpubkey_address": "3NSa5aSknNkZzw4M8iiXRcW1sjid8quXdt",
        "value": 79730341
      },
      "scriptsig": "1600142277d7263999a2f530efd926d6d595ef7b027c3d",
      "scriptsig_asm": "OP_PUSHBYTES_22 00142277d7263999a2f530efd926d6d595ef7b027c3d",
      "witness": [
        "3045022100b6a8851b209125b2605cdd0af4996b871cb686f8964c83b94b7193979832467302201663b4250b13204d46ad2301f1bdc8e4c95ce742592283745867cac98ef1db8401",
        "0246f7ec596547e4f87f29aa1650f59fd9772bb964a75c82cdec80074c767b7926"
      ],
      "is_coinbase": false,
      "sequence": 4294967293,
      "inner_redeemscript_asm": "OP_0 OP_PUSHBYTES_20 2277d7263999a2f530efd926d6d595ef7b027c3d"
    }
  ],
  "vout": [
    {
      "scriptpubkey": "0014564f4b0a57ad37ad43d229474658ac5bc9a037a9",
      "scriptpubkey_asm": "OP_0 OP_PUSHBYTES_20 564f4b0a57ad37ad43d229474658ac5bc9a037a9",
      "scriptpubkey_type": "v0_p2wpkh",
      "scriptpubkey_address": "bc1q2e85kzjh45m66s7j99r5vk9vt0y6qdafh2qvz7",
      "value": 91168
    },
    {
      "scriptpubkey": "0014ec85401e7d986617891d23e197a8fc5e190e3b47",
      "scriptpubkey_asm": "OP_0 OP_PUSHBYTES_20 ec85401e7d986617891d23e197a8fc5e190e3b47",
      "scriptpubkey_type": "v0_p2wpkh",
      "scriptpubkey_address": "bc1qajz5q8nanpnp0zgay0se028utcvsuw68ksvmpk",
      "value": 83143
    },
    {
      "scriptpubkey": "00143a9cc6c4329a2f57fa1b0bee1e71e346252ff01b",
      "scriptpubkey_asm": "OP_0 OP_PUSHBYTES_20 3a9cc6c4329a2f57fa1b0bee1e71e346252ff01b",
      "scriptpubkey_type": "v0_p2wpkh",
      "scriptpubkey_address": "bc1q82wvd3pjngh407smp0hpuu0rgcjjluqm0su4a6",
      "value": 367107
    },
    {
      "scriptpubkey": "76a91446f1e0f1ed88a446af8dc4f49a8007adc736408788ac",
      "scriptpubkey_asm": "OP_DUP OP_HASH160 OP_PUSHBYTES_20 46f1e0f1ed88a446af8dc4f49a8007adc7364087 OP_EQUALVERIFY OP_CHECKSIG",
      "scriptpubkey_type": "p2pkh",
      "scriptpubkey_address": "17U84TM5rbzYSEFPVm7rmWMfvM83P2abv3",
      "value": 410263
    },
    {
      "scriptpubkey": "00145c10d3de6d3b1188d3f5913173dd88808f4e592a",
      "scriptpubkey_asm": "OP_0 OP_PUSHBYTES_20 5c10d3de6d3b1188d3f5913173dd88808f4e592a",
      "scriptpubkey_type": "v0_p2wpkh",
      "scriptpubkey_address": "bc1qtsgd8hnd8vgc35l4jych8hvgsz85ukf2kykdzw",
      "value": 195159
    },
    {
      "scriptpubkey": "76a914c16f88c4e5519397c5420d84b0e74da986c4056588ac",
      "scriptpubkey_asm": "OP_DUP OP_HASH160 OP_PUSHBYTES_20 c16f88c4e5519397c5420d84b0e74da986c40565 OP_EQUALVERIFY OP_CHECKSIG",
      "scriptpubkey_type": "p2pkh",
      "scriptpubkey_address": "1Jdo2ZRtv1EnXgoGbUn3PgxrFp3YjrZrME",
      "value": 1918400
    },
    {
      "scriptpubkey": "001461bfc77eba3fb10366de0f7c7228fc4ff4d9b264",
      "scriptpubkey_asm": "OP_0 OP_PUSHBYTES_20 61bfc77eba3fb10366de0f7c7228fc4ff4d9b264",
      "scriptpubkey_type": "v0_p2wpkh",
      "scriptpubkey_address": "bc1qvxluwl4687csxek7pa78y28ufl6dnvny5qsdus",
      "value": 100000
    },
    {
      "scriptpubkey": "76a9144b248b272f0118eb711bb32da088e4c9c39623b188ac",
      "scriptpubkey_asm": "OP_DUP OP_HASH160 OP_PUSHBYTES_20 4b248b272f0118eb711bb32da088e4c9c39623b1 OP_EQUALVERIFY OP_CHECKSIG",
      "scriptpubkey_type": "p2pkh",
      "scriptpubkey_address": "17rKTUmhe4FSDUdTNTFuTo3BJYaZNzaV6w",
      "value": 34282731
    },
    {
      "scriptpubkey": "a914e39f3e8aac37cf712bd65ae854c3888a9242468887",
      "scriptpubkey_asm": "OP_HASH160 OP_PUSHBYTES_20 e39f3e8aac37cf712bd65ae854c3888a92424688 OP_EQUAL",
      "scriptpubkey_type": "p2sh",
      "scriptpubkey_address": "3NSa5aSknNkZzw4M8iiXRcW1sjid8quXdt",
      "value": 42271346
    }
  ],
  "size": 473,
  "weight": 1562,
  "fee": 11024,
  "status": {
    "confirmed": true,
    "block_height": 834638,
    "block_hash": "000000000000000000025f742c626208ac87e0b7d15054abb4a19ca2d735a54e",
    "block_time": 1710405325
  },
  "hex": "0100000000010159692393ed4190b0bd6ed7879f1f8f5bb6f8cfd3e46807eeaa3311cd5050c5d807000000171600142277d7263999a2f530efd926d6d595ef7b027c3dfdffffff092064010000000000160014564f4b0a57ad37ad43d229474658ac5bc9a037a9c744010000000000160014ec85401e7d986617891d23e197a8fc5e190e3b47039a0500000000001600143a9cc6c4329a2f57fa1b0bee1e71e346252ff01b97420600000000001976a91446f1e0f1ed88a446af8dc4f49a8007adc736408788ac57fa0200000000001600145c10d3de6d3b1188d3f5913173dd88808f4e592ac0451d00000000001976a914c16f88c4e5519397c5420d84b0e74da986c4056588aca08601000000000016001461bfc77eba3fb10366de0f7c7228fc4ff4d9b264eb1c0b02000000001976a9144b248b272f0118eb711bb32da088e4c9c39623b188ac720285020000000017a914e39f3e8aac37cf712bd65ae854c3888a924246888702483045022100b6a8851b209125b2605cdd0af4996b871cb686f8964c83b94b7193979832467302201663b4250b13204d46ad2301f1bdc8e4c95ce742592283745867cac98ef1db8401210246f7ec596547e4f87f29aa1650f59fd9772bb964a75c82cdec80074c767b792600000000"
}