{
  "txid": "ea08ba81bd20d58666e7bcf48f7ecc575d8ecd3c631f892c1848b622e4bf6cf8",
  "version": 2,
  "locktime": 0,
  "vin": [
    {
      "txid": "acc3ba00869acb582a3f2904ce3a11dd3779350ce234063fc7d0959246213364",
      "vout": 173,
      "prevout": {
        "scriptpubkey": "5120d0235a6bad468b6bc671e5db45c2ec11baa16e26849b2bce893b25ebe9148498",
        "scriptpubkey_asm": "OP_PUSHNUM_1 OP_PUSHBYTES_32 d0235a6bad468b6bc671e5db45c2ec11baa16e26849b2bce893b25ebe9148498",
        "scriptpubkey_type": "v1_p2tr",
        "scriptpubkey_address": "bc1p6q3456adg69kh3n3uhd5tshvzxa2zm3xsjdjhn5f8vj7h6g5sjvq2yv79n",
        "value": 1806
      },
      "scriptsig": "",
      "scriptsig_asm": "",
      "witness": [
        "69a7096e9b1479427f185805e1f7b225e23175f606076d522a7a872f3f54920a74329b06713acea50693ae8574495910808bd201aafd59ae5b77a096b0dee99a",
        "20dc0f48a7e44a8e038e864fcb1ccf0bf1e51463a89c7eeca7a1ed8164981f2e53ac0063036f726401010a746578742f706c61696e00357b2270223a226272632d3230222c226f70223a226d696e74222c227469636b223a22646f6765222c22616d74223a2234323030227d68",
        "c1dc0f48a7e44a8e038e864fcb1ccf0bf1e51463a89c7eeca7a1ed8164981f2e53"
      ],
      "is_coinbase": false,
      "sequence": 4261412863
    }
  ],
  "vout": [
    {
      "scriptpubkey": "00147a665de7a370f4c9b372ab1fae587500a5bcbdb4",
      "scriptpubkey_asm": "OP_0 OP_PUSHBYTES_20 7a665de7a370f4c9b372ab1fae587500a5bcbdb4",
      "scriptpubkey_type": "v0_p2wpkh",
      "scriptpubkey_address": "bc1q0fn9mearwr6vnvmj4v06ukr4qzjme0d565dzcx",
      "value": 294
    }
  ],
  "size": 294,
  "weight": 540,
  "fee": 1512,
  "status": {
    "confirmed": true,
    "block_height": 834460,
    "block_hash": "00000000000000000000484a79b643b2524bbce82e5d8a442013fa5b8905ed98",
    "block_time": 1710307468
  },
  "hex": "02000000000101643321469295d0c73f0634e20c357937dd113ace04293f2a58cb9a8600bac3acad00000000fffffffd0126010000000000001600147a665de7a370f4c9b372ab1fae587500a5bcbdb4034069a7096e9b1479427f185805e1f7b225e23175f606076d522a7a872f3f54920a74329b06713acea50693ae8574495910808bd201aafd59ae5b77a096b0dee99a6d20dc0f48a7e44a8e038e864fcb1ccf0bf1e51463a89c7eeca7a1ed8164981f2e53ac0063036f726401010a746578742f706c61696e00357b2270223a226272632d3230222c226f70223a226d696e74222c227469636b223a22646f6765222c22616d74223a2234323030227d6821c1dc0f48a7e44a8e038e864fcb1ccf0bf1e51463a89c7eeca7a1ed8164981f2e5300000000"
}