{
  "txid": "ea1a2c226edbd132f7ff4768fc4e43eb7f78719676e26dd57d187817dd53b853",
  "version": 2,
  "locktime": 0,
  "vin": [
    {
      "txid": "3806fae6f5d7ba9749316607a8a548470c15cce6e2f5ce912052e591326f5b80",
      "vout": 1,
      "prevout": {
        "scriptpubkey": "00147fc19346a44ce610b95e03fc0aec898bc351f856",
        "scriptpubkey_asm": "OP_0 OP_PUSHBYTES_20 7fc19346a44ce610b95e03fc0aec898bc351f856",
        "scriptpubkey_type": "v0_p2wpkh",
        "scriptpubkey_address": "bc1q0lqex34yfnnppw27q07q4myf30p4r7zkxp5gz0",
        "value": 284314
      },
      "scriptsig": "",
      "scriptsig_asm": "",
      "witness": [
        "304402201fc48fd2f7cf48424880a83db1f2d85af7d04ba8b1ae88a5f267821784f867bc022032427a4060e40a600b4b149a0996317e6fe60b961cefa0980113e8424028f48801",
        "03b1480622a85e2b191fd1813f211a347fd5890c7b9461bdf0689ef4e5f2a8f562"
      ],
      "is_coinbase": false,
      "sequence": 4294967295
    }
  ],
  "vout": [
    {
      "scriptpubkey": "76a9142bb727268d9c596759ea6f29800d378b8506fd8e88ac",
      "scriptpubkey_asm": "OP_DUP OP_HASH160 OP_PUSHBYTES_20 2bb727268d9c596759ea6f29800d378b8506fd8e OP_EQUALVERIFY OP_CHECKSIG",
      "scriptpubkey_type": "p2pkh",
      "scriptpubkey_address": "14z9TwNpgVA7fru3xmCduZAhDwXrVb9gjh",
      "value": 54399
    },
    {
      "scriptpubkey": "00147fc19346a44ce610b95e03fc0aec898bc351f856",
      "scriptpubkey_asm": "OP_0 OP_PUSHBYTES_20 7fc19346a44ce610b95e03fc0aec898bc351f856",
      "scriptpubkey_type": "v0_p2wpkh",
      "scriptpubkey_address": "bc1q0lqex34yfnnppw27q07q4myf30p4r7zkxp5gz0",
      "value": 227183
    }
  ],
  "size": 225,
  "weight": 573,
  "fee": 2732,
  "status": {
    "confirmed": true,
    "block_height": 834638,
    "block_hash": "000000000000000000025f742c626208ac87e0b7d15054abb4a19ca2d735a54e",
    "block_time": 1710405325
  },
  "hex": "02000000000101805b6f3291e5522091cef5e2e6cc150c4748a5a80766314997bad7f5e6fa06380100000000ffffffff027fd40000000000001976a9142bb727268d9c596759ea6f29800d378b8506fd8e88ac6f770300000000001600147fc19346a44ce610b95e03fc0aec898bc351f8560247304402201fc48fd2f7cf48424880a83db1f2d85af7d04ba8b1ae88a5f267821784f867bc022032427a4060e40a600b4b149a0996317e6fe60b961cefa0980113e8424028f488012103b1480622a85e2b191fd1813f211a347fd5890c7b9461bdf0689ef4e5f2a8f56200000000"
}