{
  "txid": "ea1d2213b5a65c2e44dc1d25fa9d35f9aef977ab2047c581a8c4691a71cd2b0b",
  "version": 2,
  "locktime": 0,
  "vin": [
    {
      "txid": "641f7f12e63796372eee673e700dc87c4ddf45326a640e0747a85c5259e77345",
      "vout": 3,
      "prevout": {
        "scriptpubkey": "51204926ab5092bc75a339a2e66b1497a8bca9d11d1f806d5f39fbe6f1fcf89fcec5",
        "scriptpubkey_asm": "OP_PUSHNUM_1 OP_PUSHBYTES_32 4926ab5092bc75a339a2e66b1497a8bca9d11d1f806d5f39fbe6f1fcf89fcec5",
        "scriptpubkey_type": "v1_p2tr",
        "scriptpubkey_address": "bc1pfyn2k5yjh366xwdzue43f9aghj5az8glspk47w0mumcle7ylemzsdg8qgy",
        "value": 109382
      },
      "scriptsig": "",
      "scriptsig_asm": "",
      "witness": [
        "e22d7a5129eb408b67232f20bd0365a407a48e5e506b05f79f090d16dc4b1232e153acc30be3c5a869bcc958eb57ecac155422e9cb190719742f9c45e5b2791e"
      ],
      "is_coinbase": false,
      "sequence": 4294967293
    }
  ],
  "vout": [
    {
      "scriptpubkey": "5120061e9fec33172f230c1dfa1a7f8fb06e2ad5fa39018c14baf1440462aec19add",
      "scriptpubkey_asm": "OP_PUSHNUM_1 OP_PUSHBYTES_32 061e9fec33172f230c1dfa1a7f8fb06e2ad5fa39018c14baf1440462aec19add",
      "scriptpubkey_type": "v1_p2tr",
      "scriptpubkey_address": "bc1pqc0flmpnzuhjxrqalgd8lrasdc4dt73eqxxpfwh3gszx9tkpntwshpwfd0",
      "value": 18390
    },
    {
      "scriptpubkey": "a9140231a59aa5b81c9a379b6e218da09a5baee2813e87",
      "scriptpubkey_asm": "OP_HASH160 OP_PUSHBYTES_20 0231a59aa5b81c9a379b6e218da09a5baee2813e OP_EQUAL",
      "scriptpubkey_type": "p2sh",
      "scriptpubkey_address": "31tckTH5yZuSN35FEhP9ufeJLtfMLPYjMZ",
      "value": 70200
    },
    {
      "scriptpubkey": "a914bac6519736144c7704e729b7ca98e047b8424ef487",
      "scriptpubkey_asm": "OP_HASH160 OP_PUSHBYTES_20 bac6519736144c7704e729b7ca98e047b8424ef4 OP_EQUAL",
      "scriptpubkey_type": "p2sh",
      "scriptpubkey_address": "3JibBeerFCN5NgxkUk5mjdMwwBYL3H6Kof",
      "value": 18167
    }
  ],
  "size": 226,
  "weight": 700,
  "fee": 2625,
  "status": {
    "confirmed": true,
    "block_height": 834460,
    "block_hash": "00000000000000000000484a79b643b2524bbce82e5d8a442013fa5b8905ed98",
    "block_time": 1710307468
  },
  "hex": "020000000001014573e759525ca847070e646a3245df4d7cc80d703e67ee2e379637e6127f1f640300000000fdffffff03d647000000000000225120061e9fec33172f230c1dfa1a7f8fb06e2ad5fa39018c14baf1440462aec19add381201000000000017a9140231a59aa5b81c9a379b6e218da09a5baee2813e87f74600000000000017a914bac6519736144c7704e729b7ca98e047b8424ef4870140e22d7a5129eb408b67232f20bd0365a407a48e5e506b05f79f090d16dc4b1232e153acc30be3c5a869bcc958eb57ecac155422e9cb190719742f9c45e5b2791e00000000"
}