{
  "txid": "ea491e45833a13d64e46e6d210e32d8a7f115e0fe8d1b2e387e6586d3048c1e4",
  "version": 1,
  "locktime": 0,
  "vin": [
    {
      "txid": "9431c1d027143fceb3fac12a761d058f66c3087b0fdd37808fa46c5dd3e79243",
      "vout": 0,
      "prevout": {
        "scriptpubkey": "5120570a76b1c16f318099c6a5038e37f2bfe0d6f99b4df4fa511776325ef38f235c",
        "scriptpubkey_asm": "OP_PUSHNUM_1 OP_PUSHBYTES_32 570a76b1c16f318099c6a5038e37f2bfe0d6f99b4df4fa511776325ef38f235c",
        "scriptpubkey_type": "v1_p2tr",
        "scriptpubkey_address": "bc1p2u98dvwpduccpxwx55pcudljhlsdd7vmfh6055ghwce9auu0ydwqywldxs",
        "value": 6060
      },
      "scriptsig": "",
      "scriptsig_asm": "",
      "witness": [
        "4b4b8778e3a53808fdea566856a36774cea86769ca65ef17343ab1591081a7ab2854153912347005cdcb6cc8d1e2d4c44ea94c6aa338d53511428a08a67bfa8601"
      ],
      "is_coinbase": false,
      "sequence": 4294967295
    }
  ],
  "vout": [
    {
      "scriptpubkey": "5120af08b355aed1d086f1036b099214918a84168a15d3002225949e1443c9711241",
      "scriptpubkey_asm": "OP_PUSHNUM_1 OP_PUSHBYTES_32 af08b355aed1d086f1036b099214918a84168a15d3002225949e1443c9711241",
      "scriptpubkey_type": "v1_p2tr",
      "scriptpubkey_address": "bc1p4uytx4dw68ggdugrdvyey9y332zpdzs46vqzyfv5nc2y8jt3zfqscqvazv",
      "value": 3417
    },
    {
      "scriptpubkey": "0014a4f931d55316efe02e5ce5e0dcc3e5136b37cc54",
      "scriptpubkey_asm": "OP_0 OP_PUSHBYTES_20 a4f931d55316efe02e5ce5e0dcc3e5136b37cc54",
      "scriptpubkey_type": "v0_p2wpkh",
      "scriptpubkey_address": "bc1q5nunr42nzmh7qtjuuhsdesl9zd4n0nz5lyfqcv",
      "value": 1083
    }
  ],
  "size": 194,
  "weight": 569,
  "fee": 1560,
  "status": {
    "confirmed": true,
    "block_height": 834464,
    "block_hash": "0000000000000000000177a0869a911a2b65c9bdcd5a8bcb02b68f305bee848e",
    "block_time": 1710308296
  },
  "hex": "010000000001014392e7d35d6ca48f8037dd0f7b08c3668f051d762ac1fab3ce3f1427d0c131940000000000ffffffff02590d000000000000225120af08b355aed1d086f1036b099214918a84168a15d3002225949e1443c97112413b04000000000000160014a4f931d55316efe02e5ce5e0dcc3e5136b37cc5401414b4b8778e3a53808fdea566856a36774cea86769ca65ef17343ab1591081a7ab2854153912347005cdcb6cc8d1e2d4c44ea94c6aa338d53511428a08a67bfa860100000000"
}