{
  "txid": "ea547b1a2d1aa673ec287e733e998599891f364d96f914fec389984c3c6e71af",
  "version": 2,
  "locktime": 0,
  "vin": [
    {
      "txid": "98062b445bc90f58d4833fabc564e791da426d6cade3e1be256546ab7829d00b",
      "vout": 0,
      "prevout": {
        "scriptpubkey": "5120febdf4909374993871ae521abed0298585816fee7232038001d9a02ca064e84f",
        "scriptpubkey_asm": "OP_PUSHNUM_1 OP_PUSHBYTES_32 febdf4909374993871ae521abed0298585816fee7232038001d9a02ca064e84f",
        "scriptpubkey_type": "v1_p2tr",
        "scriptpubkey_address": "bc1pl67lfyynwjvnsudw2gdta5pfskzczmlwwgeq8qqpmxszegryap8scm59jz",
        "value": 19441
      },
      "scriptsig": "",
      "scriptsig_asm": "",
      "witness": [
        "18f691c7f129c7f432210cd148aa66a539a670fc425235700ca465eec1e0a6bb0204f6458727affab28784aa3389a0d12f9880d54a5b27559d4b67d6ebbb91aa",
        "20f2d00e1cce0b839d2e197679cac7a15152ec244338032c7767f72c1332d49a65ac0063036f7264010109696d6167652f706e67004d080289504e470d0a1a0a0000000d4948445200000080000000800806000000c33e61cb000000097048597300000b1200000b1201d2dd7efc000005ef4944415478daed9d3d8b245514866b758d675db17ba0d001c1569409c60d16641261839dc0c4f10f289874e20f50a1c1ffd0a181d9828d82c16cd0b0c922ac307430a06e07c2b2344cd7e247c70623b8b7025f389c5bfd5975eb799343ddaaaea9aab9ef73cf3d55d57d2dcbb2ab0cb5562f7009e800880e80e800880e80e800880e80daa4ebad3df3db21bee66cf734c447100041801639ffdd57432c1b9e25490208401288e800881ca02dfaf38be7f1e6b7fcf32100caae656d7b1ee0b62cc7d601b234eb0110801c20f1f97d399f5f5acfaa11e33b0880c80176e8f8a73b3e2eeb781e4100040136a88f2349f0a6d1feb6d1fe5b88bf84f852c5e3aaf9ac0102300b4844b1d9f73f21e6cfc3d5a701855f87f677feeff8abafc2fa4568ff913a00820009682fc43b217e63e402e5fa519a970102300b68d9bd80f742fc48daff0af16563b9d4971000910334582fcafcfead10e7217e2fdb7f12e2637200040112d0ebc6d8ff93b1fd63673d044010a0492a2b7a4f9cedde17e7ff0e01100468a0fab23c0df1406603af84f847889d106f6e980083107369ff0c02a02d289d4a60df683f0a7126ed0f43dc132294fa21c4bbd23e5cf3f19e48fb87e4002809020c2ab6afdb49962e657912e24d08027d697f23c49ee404c58a44d0e33d97fd0e21006a24013c279eaf9904dedf2b9dfe81b4ff2aeb27e2f05c7286c2c8256e857816e95ccbf9b941a42104408d20405f1c3231b653a79e2d3996eadfdb1747ab734f9c1c409d77642cabf60d920c23097029fbb174b65922400008b0a15940df185bf70d474e22f7db31c6ced2f917c6fc3d569ef333231728cfe35e88638758e7465de2f3ed381f02a0ff747d63ce3f329c75223dfc28329b9f39ce2fc7fcc58ac7df89dc6eea90ad6fcc1e1ec8768571be7f330b408d248035a64e0d329463a656dc6e89b3bc6cdf1aa3f3359fcfcc59ee1963be3a7e2ab9827ebe800028090258596ccf1853ad3a41ec987cbc2112a8d36f48f67e1c5927883d8f3104408d24c050b260d5d859ee89137a8e537ace76968333830c85b4cf22cf5bc7ec73a3dd73f831044049e400de7c7aec7c6ee890612cb1244e5909ec461ec7ac62bb771eab66f183ed760008d07235e799c081e390920073637d37925085b1be889ce5dc31ea1a0fb73bb6430054933ac0ba09e0a92b24388cccda3387201d23c788cd6dc6f5bcac10000224aa4371ba12a1e31040d77bceb71c7f5cefcb0401980524f61d41def308f325f7db8d9c05344c10000224f66ea0f5cce0c499dfcf23eb06d67b020308809805ec509abdcf8cec5dc960bd096491e442b62f751ae208022008b0435d1863f9dc70ae276bfb228dcb05012040221ac94d08026c205bd2b955eb04f3668efd1000259a03aceae8aafb5d34fbf240000890987e0ef186b4ef8973bb4b3a3e13e78f21006ab0d2bd1ba88e7d52713f07cee70e8424430880c8016aa4c38af58352a786d3adfd36bc220801204062b2eee295ba8824c2a9e1fcdcc93d861000310bd861f6ef11409f13f06af8a792ed7bdf5256348b0410801ca0652a229daf3941dfc8fa73890d9b1540000880a2a4f71078220841803a8ff13a46cfc4c955353266055402110468020962e7fd9ef45bc8f5fbffa8042208b00b59bfeab5ae315aef0dccd2b86c100002345c03c9f673636c5e555d71feaabf1f0801100458457d71bc3536affbcd9dc2d83f39008200dbd4dc707eb121e7ebbd8086bf1308015022b3807b46fbbaded829e7ff0b89890802b45ccd7b26b0efe402eb7a5347effa793981f7bb0435ad1b400072809a383af6fbf93bc6f2a6efcb770c027496fc7c4dde238000e4003bca010691db95f7f1bd37734add377202efd7c027ced89e47febdc38ad761c7ef11400072801d67f19e16ce18afcebc2b8e9e4a5c55d6dfb3be69943a008200cb48dfe29d1a63b4e5cc8ef1f9aae459c8e7f78c9cc4fa05d20e044010600979bff63597e8d50d7416b01f791c97b2ac637d6cbdc23b0f0880da5107b06aecab8e9579e476fb4beeffd2593f5bd2f12308805a4500258125eb2e5b1ee9c48b9a5ef19a3d41040120404d9e07384ddb69d401100425401000d101101d00d101101d00d540ff02898353046c6ced8b0000000049454e44ae426082680063036f726401011e6170706c69636174696f6e2f6a736f6e3b636861727365743d7574662d38004d61017b2270223a22766f7264222c2276223a312c227479223a22696e7363222c22636f6c223a2232386636653261633234346563653261393834356631626434626563356665626639616530393266393632653865356434626535333238343266623466616634222c22696964223a224f7264692041726d79204d656e222c227075626c223a2231455337623370636a527a4667796969714c7278484b546e43686535364c4a485937222c226e6f6e6365223a343236332c226d696e746572223a226263317033687779346d363532307a707339796e79397166336a756e6b306d6664353578756a36777163666b766c323572347037746d7871616c79703935222c22736967223a22472f47714b34575a656f2f334f425a3466316f506342324439775539764749506c335655564b67796e4f655653492f3632736e78546f6e48307535594652744765704179416379485a466f4157545a7a6d656568374c673d227d68",
        "c0f2d00e1cce0b839d2e197679cac7a15152ec244338032c7767f72c1332d49a65675a92934efa5e4869b2432a3e00abfc6819367af43949c2edc693b32d23ac05"
      ],
      "is_coinbase": false,
      "sequence": 4294967293
    }
  ],
  "vout": [
    {
      "scriptpubkey": "51208ddc4aef5453c4181493214098cb93b3f696d286e4b4e0613667d541d43e5ecc",
      "scriptpubkey_asm": "OP_PUSHNUM_1 OP_PUSHBYTES_32 8ddc4aef5453c4181493214098cb93b3f696d286e4b4e0613667d541d43e5ecc",
      "scriptpubkey_type": "v1_p2tr",
      "scriptpubkey_address": "bc1p3hwy4m6520zps9yny9qf3junk0mfd55xuj6wqcfkvl25r4p7tmxqalyp95",
      "value": 1000
    },
    {
      "scriptpubkey": "51205cb904dc38be4352e47edf3b611d3868854fcab832b9d82f9075282b8cac5ab7",
      "scriptpubkey_asm": "OP_PUSHNUM_1 OP_PUSHBYTES_32 5cb904dc38be4352e47edf3b611d3868854fcab832b9d82f9075282b8cac5ab7",
      "scriptpubkey_type": "v1_p2tr",
      "scriptpubkey_address": "bc1ptjusfhpchep49er7muakz8fcdzz5lj4cx2uastusw55zhr9vt2msk5y7x5",
      "value": 7205
    },
    {
      "scriptpubkey": "51200705a5767db892e98125775049b1a13dd9ecdc8aea0df413cabbee683e871012",
      "scriptpubkey_asm": "OP_PUSHNUM_1 OP_PUSHBYTES_32 0705a5767db892e98125775049b1a13dd9ecdc8aea0df413cabbee683e871012",
      "scriptpubkey_type": "v1_p2tr",
      "scriptpubkey_address": "bc1pquz62anahzfwnqf9wagynvdp8hv7ehy2agxlgy72h0hxs058zqfqk8ksyq",
      "value": 3217
    }
  ],
  "size": 2375,
  "weight": 2915,
  "fee": 8019,
  "status": {
    "confirmed": true,
    "block_height": 834464,
    "block_hash": "0000000000000000000177a0869a911a2b65c9bdcd5a8bcb02b68f305bee848e",
    "block_time": 1710308296
  },
  "hex": "020000000001010bd02978ab466525bee1e3ad6c6d42da91e764c5ab3f83d4580fc95b442b06980000000000fdffffff03e8030000000000002251208ddc4aef5453c4181493214098cb93b3f696d286e4b4e0613667d541d43e5ecc251c0000000000002251205cb904dc38be4352e47edf3b611d3868854fcab832b9d82f9075282b8cac5ab7910c0000000000002251200705a5767db892e98125775049b1a13dd9ecdc8aea0df413cabbee683e871012034018f691c7f129c7f432210cd148aa66a539a670fc425235700ca465eec1e0a6bb0204f6458727affab28784aa3389a0d12f9880d54a5b27559d4b67d6ebbb91aafd0a0820f2d00e1cce0b839d2e197679cac7a15152ec244338032c7767f72c1332d49a65ac0063036f7264010109696d6167652f706e67004d080289504e470d0a1a0a0000000d4948445200000080000000800806000000c33e61cb000000097048597300000b1200000b1201d2dd7efc000005ef4944415478daed9d3d8b245514866b758d675db17ba0d001c1569409c60d16641261839dc0c4f10f289874e20f50a1c1ffd0a181d9828d82c16cd0b0c922ac307430a06e07c2b2344cd7e247c70623b8b7025f389c5bfd5975eb799343ddaaaea9aab9ef73cf3d55d57d2dcbb2ab0cb5562f7009e800880e80e800880e80e800880e80daa4ebad3df3db21bee66cf734c447100041801639ffdd57432c1b9e25490208401288e800881ca02dfaf38be7f1e6b7fcf32100caae656d7b1ee0b62cc7d601b234eb0110801c20f1f97d399f5f5acfaa11e33b0880c80176e8f8a73b3e2eeb781e4100040136a88f2349f0a6d1feb6d1fe5b88bf84f852c5e3aaf9ac0102300b4844b1d9f73f21e6cfc3d5a701855f87f677feeff8abafc2fa4568ff913a00820009682fc43b217e63e402e5fa519a970102300b68d9bd80f742fc48daff0af16563b9d4971000910334582fcafcfead10e7217e2fdb7f12e2637200040112d0ebc6d8ff93b1fd63673d044010a0492a2b7a4f9cedde17e7ff0e01100468a0fab23c0df1406603af84f847889d106f6e980083107369ff0c02a02d289d4a60df683f0a7126ed0f43dc132294fa21c4bbd23e5cf3f19e48fb87e4002809020c2ab6afdb49962e657912e24d08027d697f23c49ee404c58a44d0e33d97fd0e21006a24013c279eaf9904dedf2b9dfe81b4ff2aeb27e2f05c7286c2c8256e857816e95ccbf9b941a42104408d20405f1c3231b653a79e2d3996eadfdb1747ab734f9c1c409d77642cabf60d920c23097029fbb174b65922400008b0a15940df185bf70d474e22f7db31c6ced2f917c6fc3d569ef333231728cfe35e88638758e7465de2f3ed381f02a0ff747d63ce3f329c75223dfc28329b9f39ce2fc7fcc58ac7df89dc6eea90ad6fcc1e1ec8768571be7f330b408d248035a64e0d329463a656dc6e89b3bc6cdf1aa3f3359fcfcc59ee1963be3a7e2ab9827ebe800028090258596ccf1853ad3a41ec987cbc2112a8d36f48f67e1c5927883d8f3104408d24c050b260d5d859ee89137a8e537ace76968333830c85b4cf22cf5bc7ec73a3dd73f831044049e400de7c7aec7c6ee890612cb1244e5909ec461ec7ac62bb771eab66f183ed760008d07235e799c081e390920073637d37925085b1be889ce5dc31ea1a0fb73bb6430054933ac0ba09e0a92b24388cccda3387201d23c788cd6dc6f5bcac10000224aa4371ba12a1e31040d77bceb71c7f5cefcb0401980524f61d41def308f325f7db8d9c05344c10000224f66ea0f5cce0c499dfcf23eb06d67b020308809805ec509abdcf8cec5dc960bd096491e442b62f751ae208022008b0435d1863f9dc70ae276bfb228dcb05012040221ac94d08026c205bd2b955eb04f3668efd1000259a03aceae8aafb5d34fbf240000890987e0ef186b4ef8973bb4b3a3e13e78f21006ab0d2bd1ba88e7d52713f07cee70e8424430880c8016aa4c38af58352a786d3adfd36bc220801204062b2eee295ba8824c2a9e1fcdcc93d861000310bd861f6ef11409f13f06af8a792ed7bdf5256348b0410801ca0652a229daf3941dfc8fa73890d9b1540000880a2a4f71078220841803a8ff13a46cfc4c955353266055402110468020962e7fd9ef45bc8f5fbffa8042208b00b59bfeab5ae315aef0dccd2b86c100002345c03c9f673636c5e555d71feaabf1f0801100458457d71bc3536affbcd9dc2d83f39008200dbd4dc707eb121e7ebbd8086bf1308015022b3807b46fbbaded829e7ff0b89890802b45ccd7b26b0efe402eb7a5347effa793981f7bb0435ad1b400072809a383af6fbf93bc6f2a6efcb770c027496fc7c4dde238000e4003bca010691db95f7f1bd37734add377202efd7c027ced89e47febdc38ad761c7ef11400072801d67f19e16ce18afcebc2b8e9e4a5c55d6dfb3be69943a008200cb48dfe29d1a63b4e5cc8ef1f9aae459c8e7f78c9cc4fa05d20e044010600979bff63597e8d50d7416b01f791c97b2ac637d6cbdc23b0f0880da5107b06aecab8e9579e476fb4beeffd2593f5bd2f12308805a4500258125eb2e5b1ee9c48b9a5ef19a3d41040120404d9e07384ddb69d401100425401000d101101d00d101101d00d540ff02898353046c6ced8b0000000049454e44ae426082680063036f726401011e6170706c69636174696f6e2f6a736f6e3b636861727365743d7574662d38004d61017b2270223a22766f7264222c2276223a312c227479223a22696e7363222c22636f6c223a2232386636653261633234346563653261393834356631626434626563356665626639616530393266393632653865356434626535333238343266623466616634222c22696964223a224f7264692041726d79204d656e222c227075626c223a2231455337623370636a527a4667796969714c7278484b546e43686535364c4a485937222c226e6f6e6365223a343236332c226d696e746572223a226263317033687779346d363532307a707339796e79397166336a756e6b306d6664353578756a36777163666b766c323572347037746d7871616c79703935222c22736967223a22472f47714b34575a656f2f334f425a3466316f506342324439775539764749506c335655564b67796e4f655653492f3632736e78546f6e48307535594652744765704179416379485a466f4157545a7a6d656568374c673d227d6841c0f2d00e1cce0b839d2e197679cac7a15152ec244338032c7767f72c1332d49a65675a92934efa5e4869b2432a3e00abfc6819367af43949c2edc693b32d23ac0500000000"
}