{
  "txid": "ea57b6b06cf20acfe8dc444cb8a5684efb0a2699ce91f213fdf85784d8d9f9f8",
  "version": 1,
  "locktime": 0,
  "vin": [
    {
      "txid": "8d51a5edbcef605d626a45aa5b521891af8a89f239093ef3eb24fac9e8cf59be",
      "vout": 0,
      "prevout": {
        "scriptpubkey": "0014685f7860bf58d735ce22b41573d4359df8c874d6",
        "scriptpubkey_asm": "OP_0 OP_PUSHBYTES_20 685f7860bf58d735ce22b41573d4359df8c874d6",
        "scriptpubkey_type": "v0_p2wpkh",
        "scriptpubkey_address": "bc1qdp0hsc9ltrtntn3zks2h84p4nhuvsaxkp8vczh",
        "value": 420214
      },
      "scriptsig": "",
      "scriptsig_asm": "",
      "witness": [
        "3044022013d012bb1bc1d6bac9e68ab034d70ecfaf3e28af034b63e28417ed2c579707e7022041e660276dfff77cdfb57fed899ee5f0e8a99a78714265939e6e0218fad47a3101",
        "02cb312ca2eaf3e5e9fdad663e964b54aedf64da28d7ea6e97ef9fa9ba4d66e648"
      ],
      "is_coinbase": false,
      "sequence": 4294967295
    }
  ],
  "vout": [
    {
      "scriptpubkey": "001479eeecae43a04ba2478e4153d4bd594d9f32742f",
      "scriptpubkey_asm": "OP_0 OP_PUSHBYTES_20 79eeecae43a04ba2478e4153d4bd594d9f32742f",
      "scriptpubkey_type": "v0_p2wpkh",
      "scriptpubkey_address": "bc1q08hwetjr5p96y3uwg9faf02efk0nyap0hrsvsp",
      "value": 418124
    }
  ],
  "size": 191,
  "weight": 437,
  "fee": 2090,
  "status": {
    "confirmed": true,
    "block_height": 834638,
    "block_hash": "000000000000000000025f742c626208ac87e0b7d15054abb4a19ca2d735a54e",
    "block_time": 1710405325
  },
  "hex": "01000000000101be59cfe8c9fa24ebf33e0939f2898aaf9118525baa456a625d60efbceda5518d0000000000ffffffff014c6106000000000016001479eeecae43a04ba2478e4153d4bd594d9f32742f02473044022013d012bb1bc1d6bac9e68ab034d70ecfaf3e28af034b63e28417ed2c579707e7022041e660276dfff77cdfb57fed899ee5f0e8a99a78714265939e6e0218fad47a31012102cb312ca2eaf3e5e9fdad663e964b54aedf64da28d7ea6e97ef9fa9ba4d66e64800000000"
}