{
  "txid": "ea58f66533b297b91dab622c8ee7692834b40b7a2ceb1e932f34e4882bd02d33",
  "version": 2,
  "locktime": 0,
  "vin": [
    {
      "txid": "d2060236d4a18c1e0fdd799ffb0e6b0ad6325de964fab54a2e8b4a323b147fe1",
      "vout": 5,
      "prevout": {
        "scriptpubkey": "0014404223233e6a2c86e7b4a70a81160f0a865ee8d9",
        "scriptpubkey_asm": "OP_0 OP_PUSHBYTES_20 404223233e6a2c86e7b4a70a81160f0a865ee8d9",
        "scriptpubkey_type": "v0_p2wpkh",
        "scriptpubkey_address": "bc1qgppzxge7dgkgdea55u9gz9s0p2r9a6xenx2jzx",
        "value": 20273908
      },
      "scriptsig": "",
      "scriptsig_asm": "",
      "witness": [
        "3045022100974d9b29c27cd46ae0898c1fec07e0fe91ae75f8fc9a98304709089d6e325171022020e97dca720319e142ffb0adcc5dc9c812511c227ad9eb052f31943328e56af401",
        "03ac473b9c3cba7fc564e8e4600f9c819c6442f3fe34f692048119eac299c05641"
      ],
      "is_coinbase": false,
      "sequence": 0
    }
  ],
  "vout": [
    {
      "scriptpubkey": "0014e223ad5d94259decbc7ca0e5d4a97be4ea992180",
      "scriptpubkey_asm": "OP_0 OP_PUSHBYTES_20 e223ad5d94259decbc7ca0e5d4a97be4ea992180",
      "scriptpubkey_type": "v0_p2wpkh",
      "scriptpubkey_address": "bc1qug366hv5ykw7e0ru5rjaf2tmun4fjgvqfvlxas",
      "value": 6000000
    },
    {
      "scriptpubkey": "0014245bf9c8c39775b2fad2fb3e056dd03fdc4b1a45",
      "scriptpubkey_asm": "OP_0 OP_PUSHBYTES_20 245bf9c8c39775b2fad2fb3e056dd03fdc4b1a45",
      "scriptpubkey_type": "v0_p2wpkh",
      "scriptpubkey_address": "bc1qy3dlnjxrja6m97kjlvlq2mws8lwykxj9228adh",
      "value": 14271397
    }
  ],
  "size": 223,
  "weight": 562,
  "fee": 2511,
  "status": {
    "confirmed": true,
    "block_height": 834638,
    "block_hash": "000000000000000000025f742c626208ac87e0b7d15054abb4a19ca2d735a54e",
    "block_time": 1710405325
  },
  "hex": "02000000000101e17f143b324a8b2e4ab5fa64e95d32d60a6b0efb9f79dd0f1e8ca1d4360206d205000000000000000002808d5b0000000000160014e223ad5d94259decbc7ca0e5d4a97be4ea992180a5c3d90000000000160014245bf9c8c39775b2fad2fb3e056dd03fdc4b1a4502483045022100974d9b29c27cd46ae0898c1fec07e0fe91ae75f8fc9a98304709089d6e325171022020e97dca720319e142ffb0adcc5dc9c812511c227ad9eb052f31943328e56af4012103ac473b9c3cba7fc564e8e4600f9c819c6442f3fe34f692048119eac299c0564100000000"
}