{
  "txid": "ea636ce4d7bcf68a9781e1dc0da61f3f1d54424ebc78eab1437f85300c0c9b3e",
  "version": 1,
  "locktime": 0,
  "vin": [
    {
      "txid": "e5318b46f2c71d345db6b144407ca69c94d263b512ecb4500907731d4b4b802a",
      "vout": 0,
      "prevout": {
        "scriptpubkey": "0014c19cbe07501f69926fc39fb564311184ff745439",
        "scriptpubkey_asm": "OP_0 OP_PUSHBYTES_20 c19cbe07501f69926fc39fb564311184ff745439",
        "scriptpubkey_type": "v0_p2wpkh",
        "scriptpubkey_address": "bc1qcxwtup6sra5eym7rn76kgvg3snlhg4peaznvzy",
        "value": 546
      },
      "scriptsig": "",
      "scriptsig_asm": "",
      "witness": [
        "3045022100f05be6dab2e6a48fecf4cd73fd117d06992c481afa89940890eaea7843f4676c02207c4c186bd926ba1c6be17f687673c776a26eda54ff825fbfc56a564b31b5997301",
        "02d9bd7702fc177121eb022dba07948b43f5de7ba4b116efec8da8771af76583e5"
      ],
      "is_coinbase": false,
      "sequence": 4294967293
    },
    {
      "txid": "6e72171102658126c13f0f1b476b27f466afd9e07761dc4554233381e33a2729",
      "vout": 1,
      "prevout": {
        "scriptpubkey": "0014c19cbe07501f69926fc39fb564311184ff745439",
        "scriptpubkey_asm": "OP_0 OP_PUSHBYTES_20 c19cbe07501f69926fc39fb564311184ff745439",
        "scriptpubkey_type": "v0_p2wpkh",
        "scriptpubkey_address": "bc1qcxwtup6sra5eym7rn76kgvg3snlhg4peaznvzy",
        "value": 168698
      },
      "scriptsig": "",
      "scriptsig_asm": "",
      "witness": [
        "304402200ffbb49f9e2411b0aceeb71448131c6bff1135b1cb9317096fb13642ea8fddca022061e74f4b690bf3fd7acfc5653c74ece865b1424618dfa532b160181321ca668c01",
        "02d9bd7702fc177121eb022dba07948b43f5de7ba4b116efec8da8771af76583e5"
      ],
      "is_coinbase": false,
      "sequence": 4294967293
    }
  ],
  "vout": [
    {
      "scriptpubkey": "0014a97e298d7303a078418d6e74fc90fb8e1a2f4495",
      "scriptpubkey_asm": "OP_0 OP_PUSHBYTES_20 a97e298d7303a078418d6e74fc90fb8e1a2f4495",
      "scriptpubkey_type": "v0_p2wpkh",
      "scriptpubkey_address": "bc1q49lznrtnqws8ssvdde60ey8m3cdz73y4peyc3w",
      "value": 546
    },
    {
      "scriptpubkey": "0014c19cbe07501f69926fc39fb564311184ff745439",
      "scriptpubkey_asm": "OP_0 OP_PUSHBYTES_20 c19cbe07501f69926fc39fb564311184ff745439",
      "scriptpubkey_type": "v0_p2wpkh",
      "scriptpubkey_address": "bc1qcxwtup6sra5eym7rn76kgvg3snlhg4peaznvzy",
      "value": 165942
    }
  ],
  "size": 371,
  "weight": 833,
  "fee": 2756,
  "status": {
    "confirmed": true,
    "block_height": 834460,
    "block_hash": "00000000000000000000484a79b643b2524bbce82e5d8a442013fa5b8905ed98",
    "block_time": 1710307468
  },
  "hex": "010000000001022a804b4b1d73070950b4ec12b563d2949ca67c4044b1b65d341dc7f2468b31e50000000000fdffffff29273ae38133235445dc6177e0d9af66f4276b471b0f3fc1268165021117726e0100000000fdffffff022202000000000000160014a97e298d7303a078418d6e74fc90fb8e1a2f44953688020000000000160014c19cbe07501f69926fc39fb564311184ff74543902483045022100f05be6dab2e6a48fecf4cd73fd117d06992c481afa89940890eaea7843f4676c02207c4c186bd926ba1c6be17f687673c776a26eda54ff825fbfc56a564b31b59973012102d9bd7702fc177121eb022dba07948b43f5de7ba4b116efec8da8771af76583e50247304402200ffbb49f9e2411b0aceeb71448131c6bff1135b1cb9317096fb13642ea8fddca022061e74f4b690bf3fd7acfc5653c74ece865b1424618dfa532b160181321ca668c012102d9bd7702fc177121eb022dba07948b43f5de7ba4b116efec8da8771af76583e500000000"
}