{
  "txid": "ea79c2ae945c08f5c45c526928d9ae05b297b272121a590e465a36c3039690ca",
  "version": 2,
  "locktime": 834637,
  "vin": [
    {
      "txid": "6a0b23695c15a3268dff5714f1fb588bcf581ae20d459e6ebaec24727e44fea1",
      "vout": 16,
      "prevout": {
        "scriptpubkey": "0014192379412a12e01914b74d7c15b60e873998c7b0",
        "scriptpubkey_asm": "OP_0 OP_PUSHBYTES_20 192379412a12e01914b74d7c15b60e873998c7b0",
        "scriptpubkey_type": "v0_p2wpkh",
        "scriptpubkey_address": "bc1qry3hjsf2ztspj99hf47ptdswsuue33as2g4v0h",
        "value": 133663
      },
      "scriptsig": "",
      "scriptsig_asm": "",
      "witness": [
        "304402207669a0f3e12dc15cf99cc6933cc6a50441339be66b1ae2fecfca6c6544a50fc5022026a212764ecc23fb1d86a3e270aefe79321449967358fe9252987013f9e8b05101",
        "03edd0404d2f0a486674279f9fd89d8f5d8cefbec6c4915ed4dc6a895fa072b982"
      ],
      "is_coinbase": false,
      "sequence": 4294967294
    },
    {
      "txid": "726016b8ec8d4cbba70857a0c642b891e8193e2b823d235a6219799e1a8f341d",
      "vout": 0,
      "prevout": {
        "scriptpubkey": "00140625c7e4194727dc8536c28beaf69ab98c1fb0b7",
        "scriptpubkey_asm": "OP_0 OP_PUSHBYTES_20 0625c7e4194727dc8536c28beaf69ab98c1fb0b7",
        "scriptpubkey_type": "v0_p2wpkh",
        "scriptpubkey_address": "bc1qqcju0eqegunaepfkc2974a56hxxplv9hv3tfld",
        "value": 1677
      },
      "scriptsig": "",
      "scriptsig_asm": "",
      "witness": [
        "304402206cc7d8488680071c476f88a69e3cbd8915b2c4914cb79be0e05d1510f877d6c90220647f842094494fb7c8bb6ededc24315326b0262292155e8e21f49d19b6e8b18401",
        "02e653365c07ba7e8ba9786dbeb52236c7f50aa3ce47c89f100a4a4b7f2fe250a0"
      ],
      "is_coinbase": false,
      "sequence": 4294967294
    },
    {
      "txid": "3e6e405416eb779fe2e745d48bde829cddfdf6926d6dd9c47b5ad85acfafecc6",
      "vout": 1,
      "prevout": {
        "scriptpubkey": "001499d655e07724183c0dd1fe99ca1764acd7117643",
        "scriptpubkey_asm": "OP_0 OP_PUSHBYTES_20 99d655e07724183c0dd1fe99ca1764acd7117643",
        "scriptpubkey_type": "v0_p2wpkh",
        "scriptpubkey_address": "bc1qn8t9tcrhysvrcrw3l6vu59my4nt3zajrwrjmah",
        "value": 1004700
      },
      "scriptsig": "",
      "scriptsig_asm": "",
      "witness": [
        "30440220358c045f1d5b5650f3c1f0b45cc4f5f9773193da0f54dfbccff9d5885fa11a0c022064e9069918cb76d9391cde0f5433aa18552aea2a952cde4357eb5905ced792e601",
        "026bad847fd0826777e9d96f10d2ad36111b4df09a310dcba2c181c3e65eb7d2cb"
      ],
      "is_coinbase": false,
      "sequence": 4294967294
    }
  ],
  "vout": [
    {
      "scriptpubkey": "001493ace6e1c0f8dd3884a52e791869adc678087ab8",
      "scriptpubkey_asm": "OP_0 OP_PUSHBYTES_20 93ace6e1c0f8dd3884a52e791869adc678087ab8",
      "scriptpubkey_type": "v0_p2wpkh",
      "scriptpubkey_address": "bc1qjwkwdcwqlrwn3p999eu3s6ddceuqs74ckmvqrj",
      "value": 1104163
    },
    {
      "scriptpubkey": "76a914129f25594035fecd0d433799f3d3010c6879893888ac",
      "scriptpubkey_asm": "OP_DUP OP_HASH160 OP_PUSHBYTES_20 129f25594035fecd0d433799f3d3010c68798938 OP_EQUALVERIFY OP_CHECKSIG",
      "scriptpubkey_type": "p2pkh",
      "scriptpubkey_address": "12hTp712CiZYEffQAgtfPMkQ2mw2vBxwh4",
      "value": 27215
    }
  ],
  "size": 521,
  "weight": 1115,
  "fee": 8662,
  "status": {
    "confirmed": true,
    "block_height": 834638,
    "block_hash": "000000000000000000025f742c626208ac87e0b7d15054abb4a19ca2d735a54e",
    "block_time": 1710405325
  },
  "hex": "02000000000103a1fe447e7224ecba6e9e450de21a58cf8b58fbf11457ff8d26a3155c69230b6a1000000000feffffff1d348f1a9e7919625a233d822b3e19e891b842c6a05708a7bb4c8decb81660720000000000feffffffc6ecafcf5ad85a7bc4d96d6d92f6fddd9c82de8bd445e7e29f77eb1654406e3e0100000000feffffff0223d910000000000016001493ace6e1c0f8dd3884a52e791869adc678087ab84f6a0000000000001976a914129f25594035fecd0d433799f3d3010c6879893888ac0247304402207669a0f3e12dc15cf99cc6933cc6a50441339be66b1ae2fecfca6c6544a50fc5022026a212764ecc23fb1d86a3e270aefe79321449967358fe9252987013f9e8b051012103edd0404d2f0a486674279f9fd89d8f5d8cefbec6c4915ed4dc6a895fa072b9820247304402206cc7d8488680071c476f88a69e3cbd8915b2c4914cb79be0e05d1510f877d6c90220647f842094494fb7c8bb6ededc24315326b0262292155e8e21f49d19b6e8b184012102e653365c07ba7e8ba9786dbeb52236c7f50aa3ce47c89f100a4a4b7f2fe250a0024730440220358c045f1d5b5650f3c1f0b45cc4f5f9773193da0f54dfbccff9d5885fa11a0c022064e9069918cb76d9391cde0f5433aa18552aea2a952cde4357eb5905ced792e60121026bad847fd0826777e9d96f10d2ad36111b4df09a310dcba2c181c3e65eb7d2cb4dbc0c00"
}