{
  "txid": "ea7b142483ddf0f065469fb386afa9a91a74aacaf3fc57a85facd78abfae5708",
  "version": 2,
  "locktime": 0,
  "vin": [
    {
      "txid": "2beebb1b6de5a861d9e9f86585dfe42f8a9218d714dad446f3e638c567d175b8",
      "vout": 4,
      "prevout": {
        "scriptpubkey": "5120a03601bfb03ca24dd3764529a1f23008846f07d30be9bf92f4344f1f2d6619fa",
        "scriptpubkey_asm": "OP_PUSHNUM_1 OP_PUSHBYTES_32 a03601bfb03ca24dd3764529a1f23008846f07d30be9bf92f4344f1f2d6619fa",
        "scriptpubkey_type": "v1_p2tr",
        "scriptpubkey_address": "bc1p5qmqr0as8j3ym5mkg556ru3spzzx7p7np05mlyh5x3837ttxr8aqsprml7",
        "value": 2610
      },
      "scriptsig": "",
      "scriptsig_asm": "",
      "witness": [
        "b3fbf061ac916290e2d38b8f92524686e8401b2df032bbc463569f525bf6e5ab0125361b10c1b839d4938ea3db1ab4a217e209a4021460785889857f2edf95d5",
        "20160c3f47e32b36b9085a9e79f55212ad769dd2bd9815927addec2956af2f65b0ac0063036f7264010118746578742f706c61696e3b636861727365743d7574662d3800387b2270223a226272632d3230222c226f70223a227472616e73666572222c227469636b223a2244654169222c22616d74223a22323030227d68",
        "c1160c3f47e32b36b9085a9e79f55212ad769dd2bd9815927addec2956af2f65b0"
      ],
      "is_coinbase": false,
      "sequence": 4294967293
    }
  ],
  "vout": [
    {
      "scriptpubkey": "51208bed5c265173625f676224931a6f1eccb92e85a9a4b233db772eeb257bb4d9c2",
      "scriptpubkey_asm": "OP_PUSHNUM_1 OP_PUSHBYTES_32 8bed5c265173625f676224931a6f1eccb92e85a9a4b233db772eeb257bb4d9c2",
      "scriptpubkey_type": "v1_p2tr",
      "scriptpubkey_address": "bc1p30k4cfj3wd397emzyjf35mc7ejujapdf5jer8kmh9m4j27a5m8pqwnwmlj",
      "value": 330
    }
  ],
  "size": 323,
  "weight": 605,
  "fee": 2280,
  "status": {
    "confirmed": true,
    "block_height": 834638,
    "block_hash": "000000000000000000025f742c626208ac87e0b7d15054abb4a19ca2d735a54e",
    "block_time": 1710405325
  },
  "hex": "02000000000101b875d167c538e6f346d4da14d718928a2fe4df8565f8e9d961a8e56d1bbbee2b0400000000fdffffff014a010000000000002251208bed5c265173625f676224931a6f1eccb92e85a9a4b233db772eeb257bb4d9c20340b3fbf061ac916290e2d38b8f92524686e8401b2df032bbc463569f525bf6e5ab0125361b10c1b839d4938ea3db1ab4a217e209a4021460785889857f2edf95d57e20160c3f47e32b36b9085a9e79f55212ad769dd2bd9815927addec2956af2f65b0ac0063036f7264010118746578742f706c61696e3b636861727365743d7574662d3800387b2270223a226272632d3230222c226f70223a227472616e73666572222c227469636b223a2244654169222c22616d74223a22323030227d6821c1160c3f47e32b36b9085a9e79f55212ad769dd2bd9815927addec2956af2f65b000000000"
}