{
  "txid": "ea84bc8af5740c0623e3a55383eb667e0aa45e7f72ce2e22eac1f4ebd4dab4b9",
  "version": 2,
  "locktime": 0,
  "vin": [
    {
      "txid": "3b0ce9596ba6d7348b6d2cd54fd366a6d830171d7e7a419dd6e649eaafe07c15",
      "vout": 0,
      "prevout": {
        "scriptpubkey": "512097dd5a89b447f1cf691a1a7c4d782a4f7ec97f63d21d5a22e3628e46ff85cbd9",
        "scriptpubkey_asm": "OP_PUSHNUM_1 OP_PUSHBYTES_32 97dd5a89b447f1cf691a1a7c4d782a4f7ec97f63d21d5a22e3628e46ff85cbd9",
        "scriptpubkey_type": "v1_p2tr",
        "scriptpubkey_address": "bc1pjlw44zd5glcu76g6rf7y67p2falvjlmr6gw45ghrv28ydlu9e0vslnj2tf",
        "value": 2218
      },
      "scriptsig": "",
      "scriptsig_asm": "",
      "witness": [
        "ce0aecc63ab11e5df83417cf97d59737921feb6d3de63994b9653a457d5bd19faeffc70dae889ed12af3088a1741c429da52fa52348a98b7db365ee30cbdbeac",
        "20045f668e4a0517fabf8db91005846fb4846041d3eba48d3a8e536f705897c3d0ac0063036f7264010118746578742f706c61696e3b636861727365743d7574662d38003a7b2270223a226272632d3230222c226f70223a227472616e73666572222c227469636b223a224c696263222c22616d74223a223530303030227d68",
        "c0045f668e4a0517fabf8db91005846fb4846041d3eba48d3a8e536f705897c3d0"
      ],
      "is_coinbase": false,
      "sequence": 4294967293
    }
  ],
  "vout": [
    {
      "scriptpubkey": "5120e5c93a059d28b3d82807b2bdd6decf11c1e8a2d617c7e11e49e4658c28cae65d",
      "scriptpubkey_asm": "OP_PUSHNUM_1 OP_PUSHBYTES_32 e5c93a059d28b3d82807b2bdd6decf11c1e8a2d617c7e11e49e4658c28cae65d",
      "scriptpubkey_type": "v1_p2tr",
      "scriptpubkey_address": "bc1puhyn5pva9zeas2q8k27adhk0z8q73gkkzlr7z8jfu3jcc2x2uews6vw345",
      "value": 546
    }
  ],
  "size": 325,
  "weight": 607,
  "fee": 1672,
  "status": {
    "confirmed": true,
    "block_height": 834464,
    "block_hash": "0000000000000000000177a0869a911a2b65c9bdcd5a8bcb02b68f305bee848e",
    "block_time": 1710308296
  },
  "hex": "02000000000101157ce0afea49e6d69d417a7e1d1730d8a666d34fd52c6d8b34d7a66b59e90c3b0000000000fdffffff012202000000000000225120e5c93a059d28b3d82807b2bdd6decf11c1e8a2d617c7e11e49e4658c28cae65d0340ce0aecc63ab11e5df83417cf97d59737921feb6d3de63994b9653a457d5bd19faeffc70dae889ed12af3088a1741c429da52fa52348a98b7db365ee30cbdbeac8020045f668e4a0517fabf8db91005846fb4846041d3eba48d3a8e536f705897c3d0ac0063036f7264010118746578742f706c61696e3b636861727365743d7574662d38003a7b2270223a226272632d3230222c226f70223a227472616e73666572222c227469636b223a224c696263222c22616d74223a223530303030227d6821c0045f668e4a0517fabf8db91005846fb4846041d3eba48d3a8e536f705897c3d000000000"
}