{
  "txid": "ea86c6b375cd3479c40b6308c5afbf4ea799216a638f39ed1695332f35e1fa34",
  "version": 2,
  "locktime": 0,
  "vin": [
    {
      "txid": "acc3ba00869acb582a3f2904ce3a11dd3779350ce234063fc7d0959246213364",
      "vout": 263,
      "prevout": {
        "scriptpubkey": "5120c635ac074caf601e4fb1d381f2483152696717e91001c3fbb3854d10a8661381",
        "scriptpubkey_asm": "OP_PUSHNUM_1 OP_PUSHBYTES_32 c635ac074caf601e4fb1d381f2483152696717e91001c3fbb3854d10a8661381",
        "scriptpubkey_type": "v1_p2tr",
        "scriptpubkey_address": "bc1pcc66cp6v4aspuna36wqlyjp32f5kw9lfzqqu87ans4x3p2rxzwqs7c77dj",
        "value": 1806
      },
      "scriptsig": "",
      "scriptsig_asm": "",
      "witness": [
        "889ec4e3f3484a3482f6a5c05668ac5ba88bba7873d72d7bfc85f7ebdaa4e9d0d939642e40c97a5d05e370ebf7e5388e1430d86e4b2f703036d451edaefb6fe3",
        "201eecd29208cf6ef6ed770697eb17db69dd56305210e75eb28a0dc5cc03b97cecac0063036f726401010a746578742f706c61696e00357b2270223a226272632d3230222c226f70223a226d696e74222c227469636b223a22646f6765222c22616d74223a2234323030227d68",
        "c11eecd29208cf6ef6ed770697eb17db69dd56305210e75eb28a0dc5cc03b97cec"
      ],
      "is_coinbase": false,
      "sequence": 4261412863
    }
  ],
  "vout": [
    {
      "scriptpubkey": "00147a665de7a370f4c9b372ab1fae587500a5bcbdb4",
      "scriptpubkey_asm": "OP_0 OP_PUSHBYTES_20 7a665de7a370f4c9b372ab1fae587500a5bcbdb4",
      "scriptpubkey_type": "v0_p2wpkh",
      "scriptpubkey_address": "bc1q0fn9mearwr6vnvmj4v06ukr4qzjme0d565dzcx",
      "value": 294
    }
  ],
  "size": 294,
  "weight": 540,
  "fee": 1512,
  "status": {
    "confirmed": true,
    "block_height": 834460,
    "block_hash": "00000000000000000000484a79b643b2524bbce82e5d8a442013fa5b8905ed98",
    "block_time": 1710307468
  },
  "hex": "02000000000101643321469295d0c73f0634e20c357937dd113ace04293f2a58cb9a8600bac3ac0701000000fffffffd0126010000000000001600147a665de7a370f4c9b372ab1fae587500a5bcbdb40340889ec4e3f3484a3482f6a5c05668ac5ba88bba7873d72d7bfc85f7ebdaa4e9d0d939642e40c97a5d05e370ebf7e5388e1430d86e4b2f703036d451edaefb6fe36d201eecd29208cf6ef6ed770697eb17db69dd56305210e75eb28a0dc5cc03b97cecac0063036f726401010a746578742f706c61696e00357b2270223a226272632d3230222c226f70223a226d696e74222c227469636b223a22646f6765222c22616d74223a2234323030227d6821c11eecd29208cf6ef6ed770697eb17db69dd56305210e75eb28a0dc5cc03b97cec00000000"
}