{
  "txid": "ea9daad58c1604d34363e41da7b8a54ae3d7f174c3e94fe07486212a23111d8f",
  "version": 2,
  "locktime": 0,
  "vin": [
    {
      "txid": "ee6f6e75bc7692dbef704aecb0a5ff34bc1280efa94f2b7103601182dd0a341a",
      "vout": 2,
      "prevout": {
        "scriptpubkey": "5120c4d6f33b3dabdff90cff99278d6a4d6b57f5307195b4b2e41397c3c02ef49d96",
        "scriptpubkey_asm": "OP_PUSHNUM_1 OP_PUSHBYTES_32 c4d6f33b3dabdff90cff99278d6a4d6b57f5307195b4b2e41397c3c02ef49d96",
        "scriptpubkey_type": "v1_p2tr",
        "scriptpubkey_address": "bc1pcnt0xwea400ljr8lnync66jdddtl2vr3jk6t9eqnjlpuqth5nktqs05r3w",
        "value": 2250000
      },
      "scriptsig": "",
      "scriptsig_asm": "",
      "witness": [
        "a7253a532171937c45511ec50930a27d2029fa274a71b13b8d524fc0f71217e4d9be520d1a764ca6f0a1a2f741f5534e2f73c75359243185e621ee7b40ee11f7"
      ],
      "is_coinbase": false,
      "sequence": 4294967293
    }
  ],
  "vout": [
    {
      "scriptpubkey": "5120b913e1d5d14c638982390efe1961c1e27045edaebb427587a3764240be903f8e",
      "scriptpubkey_asm": "OP_PUSHNUM_1 OP_PUSHBYTES_32 b913e1d5d14c638982390efe1961c1e27045edaebb427587a3764240be903f8e",
      "scriptpubkey_type": "v1_p2tr",
      "scriptpubkey_address": "bc1phyf7r4w3f33cnq3epmlpjcwpufcytmdwhdp8tparwepyp05s878qk9wkkd",
      "value": 2856
    },
    {
      "scriptpubkey": "5120c4d6f33b3dabdff90cff99278d6a4d6b57f5307195b4b2e41397c3c02ef49d96",
      "scriptpubkey_asm": "OP_PUSHNUM_1 OP_PUSHBYTES_32 c4d6f33b3dabdff90cff99278d6a4d6b57f5307195b4b2e41397c3c02ef49d96",
      "scriptpubkey_type": "v1_p2tr",
      "scriptpubkey_address": "bc1pcnt0xwea400ljr8lnync66jdddtl2vr3jk6t9eqnjlpuqth5nktqs05r3w",
      "value": 2244834
    }
  ],
  "size": 205,
  "weight": 616,
  "fee": 2310,
  "status": {
    "confirmed": true,
    "block_height": 834460,
    "block_hash": "00000000000000000000484a79b643b2524bbce82e5d8a442013fa5b8905ed98",
    "block_time": 1710307468
  },
  "hex": "020000000001011a340add82116003712b4fa9ef8012bc34ffa5b0ec4a70efdb9276bc756e6fee0200000000fdffffff02280b000000000000225120b913e1d5d14c638982390efe1961c1e27045edaebb427587a3764240be903f8ee240220000000000225120c4d6f33b3dabdff90cff99278d6a4d6b57f5307195b4b2e41397c3c02ef49d960140a7253a532171937c45511ec50930a27d2029fa274a71b13b8d524fc0f71217e4d9be520d1a764ca6f0a1a2f741f5534e2f73c75359243185e621ee7b40ee11f700000000"
}