{
  "txid": "eaa600a87b48bd3657c05984102b2b721cdcd8ae8d9d5b3bd224aa9d5cea4169",
  "version": 1,
  "locktime": 0,
  "vin": [
    {
      "txid": "7d36a397d9d2545c6d5607cac49fa9d5b1bf7e653af640e09046303be316eb0a",
      "vout": 3,
      "prevout": {
        "scriptpubkey": "00143b11b6c6d415dee34f56ef71f45d6448c5e13dd4",
        "scriptpubkey_asm": "OP_0 OP_PUSHBYTES_20 3b11b6c6d415dee34f56ef71f45d6448c5e13dd4",
        "scriptpubkey_type": "v0_p2wpkh",
        "scriptpubkey_address": "bc1q8vgmd3k5zh0wxn6kaaclghtyfrz7z0w55rrduv",
        "value": 2263724
      },
      "scriptsig": "",
      "scriptsig_asm": "",
      "witness": [
        "3044022009562a038936590df2d1b035adb2ec6fb1c129e4752ad6167d4f3b129ceb491502205c12448841c794ebd87fd4e793350bfd0c03d35fff46ef5cecdb9a8a5b4585fa01",
        "0373d53c9118789b4464cef47bacebf78985906134821a0d0f383dfcc88f520133"
      ],
      "is_coinbase": false,
      "sequence": 4294967295
    },
    {
      "txid": "c4558d63b75b959719b4dd6fb7e28f87edfcc986d90e888c8dfbd49a02a11892",
      "vout": 28,
      "prevout": {
        "scriptpubkey": "00143b11b6c6d415dee34f56ef71f45d6448c5e13dd4",
        "scriptpubkey_asm": "OP_0 OP_PUSHBYTES_20 3b11b6c6d415dee34f56ef71f45d6448c5e13dd4",
        "scriptpubkey_type": "v0_p2wpkh",
        "scriptpubkey_address": "bc1q8vgmd3k5zh0wxn6kaaclghtyfrz7z0w55rrduv",
        "value": 26331
      },
      "scriptsig": "",
      "scriptsig_asm": "",
      "witness": [
        "304402202fdc6b093354f404a9082420a8f999bce2d5ef41e97be53e5d207a178c38cfb6022047899587baad9282e3806961081f1c14e37c5ab766eef561a8b8d360dea2ff0d01",
        "0373d53c9118789b4464cef47bacebf78985906134821a0d0f383dfcc88f520133"
      ],
      "is_coinbase": false,
      "sequence": 4294967295
    },
    {
      "txid": "3b0c2a12c756c409240d3cdf75f0011baffc58f7b294934154f663d2476ef71f",
      "vout": 209,
      "prevout": {
        "scriptpubkey": "00143b11b6c6d415dee34f56ef71f45d6448c5e13dd4",
        "scriptpubkey_asm": "OP_0 OP_PUSHBYTES_20 3b11b6c6d415dee34f56ef71f45d6448c5e13dd4",
        "scriptpubkey_type": "v0_p2wpkh",
        "scriptpubkey_address": "bc1q8vgmd3k5zh0wxn6kaaclghtyfrz7z0w55rrduv",
        "value": 2414763
      },
      "scriptsig": "",
      "scriptsig_asm": "",
      "witness": [
        "3045022100fead9cba11abe1936d4c98c0b4596abd455efa0e242c52465b939a635c074623022045f48aab24408725059d101b869de68f4090018eb75eb9e09a465a3a5b431e1a01",
        "0373d53c9118789b4464cef47bacebf78985906134821a0d0f383dfcc88f520133"
      ],
      "is_coinbase": false,
      "sequence": 4294967295
    },
    {
      "txid": "71278159e1dbda7f7ab3329ae1a69eac6a12155e43ed330fc6dde024c42b30ff",
      "vout": 78,
      "prevout": {
        "scriptpubkey": "00143b11b6c6d415dee34f56ef71f45d6448c5e13dd4",
        "scriptpubkey_asm": "OP_0 OP_PUSHBYTES_20 3b11b6c6d415dee34f56ef71f45d6448c5e13dd4",
        "scriptpubkey_type": "v0_p2wpkh",
        "scriptpubkey_address": "bc1q8vgmd3k5zh0wxn6kaaclghtyfrz7z0w55rrduv",
        "value": 395435
      },
      "scriptsig": "",
      "scriptsig_asm": "",
      "witness": [
        "3044022039aac9e75eae1e9ded40b8bcf093b2a8a42bcf3d7a4592e073bae63cdfc7fc13022021b1d1aad114e2c98cbb4486633caf2fe53119344f6bf7b137fadbc80469cf5601",
        "0373d53c9118789b4464cef47bacebf78985906134821a0d0f383dfcc88f520133"
      ],
      "is_coinbase": false,
      "sequence": 4294967295
    },
    {
      "txid": "879a5373fee61b66a7fb9f8b94debb4087e1fc114e2f2444739260a65cfc9991",
      "vout": 47,
      "prevout": {
        "scriptpubkey": "00143b11b6c6d415dee34f56ef71f45d6448c5e13dd4",
        "scriptpubkey_asm": "OP_0 OP_PUSHBYTES_20 3b11b6c6d415dee34f56ef71f45d6448c5e13dd4",
        "scriptpubkey_type": "v0_p2wpkh",
        "scriptpubkey_address": "bc1q8vgmd3k5zh0wxn6kaaclghtyfrz7z0w55rrduv",
        "value": 3190633
      },
      "scriptsig": "",
      "scriptsig_asm": "",
      "witness": [
        "304502210092c4ce9d4e0523a458fd401f221aa868286e0ff49c2cda851685d651552e370a02205e78c59dc2e4ed6341e3626b93f3c9ae1b0967753852e045371144b63dd12a1d01",
        "0373d53c9118789b4464cef47bacebf78985906134821a0d0f383dfcc88f520133"
      ],
      "is_coinbase": false,
      "sequence": 4294967295
    },
    {
      "txid": "0732e7ad7a4aa4fe93865e859d46ac19f76f8d5e995da5b0ecb4ae259a31a6c7",
      "vout": 71,
      "prevout": {
        "scriptpubkey": "00143b11b6c6d415dee34f56ef71f45d6448c5e13dd4",
        "scriptpubkey_asm": "OP_0 OP_PUSHBYTES_20 3b11b6c6d415dee34f56ef71f45d6448c5e13dd4",
        "scriptpubkey_type": "v0_p2wpkh",
        "scriptpubkey_address": "bc1q8vgmd3k5zh0wxn6kaaclghtyfrz7z0w55rrduv",
        "value": 2825051
      },
      "scriptsig": "",
      "scriptsig_asm": "",
      "witness": [
        "30450221009e77c0bd141ae6b649077b0d7826010d352b029d6b032545078bb1503351bed7022042005b14fbc8789c5c78a8a12f03201c9cab1a9d551918018b930ff56017f2be01",
        "0373d53c9118789b4464cef47bacebf78985906134821a0d0f383dfcc88f520133"
      ],
      "is_coinbase": false,
      "sequence": 4294967295
    }
  ],
  "vout": [
    {
      "scriptpubkey": "00142bb41719052eb7a4c42b8cdc6b333610b2761553",
      "scriptpubkey_asm": "OP_0 OP_PUSHBYTES_20 2bb41719052eb7a4c42b8cdc6b333610b2761553",
      "scriptpubkey_type": "v0_p2wpkh",
      "scriptpubkey_address": "bc1q9w6pwxg996m6f3pt3nwxkvekzze8v92nr3s0x0",
      "value": 11103733
    }
  ],
  "size": 934,
  "weight": 1795,
  "fee": 12204,
  "status": {
    "confirmed": true,
    "block_height": 834460,
    "block_hash": "00000000000000000000484a79b643b2524bbce82e5d8a442013fa5b8905ed98",
    "block_time": 1710307468
  },
  "hex": "010000000001060aeb16e33b304690e040f63a657ebfb1d5a99fc4ca07566d5c54d2d997a3367d0300000000ffffffff9218a1029ad4fb8d8c880ed986c9fced878fe2b76fddb41997955bb7638d55c41c00000000ffffffff1ff76e47d263f654419394b2f758fcaf1b01f075df3c0d2409c456c7122a0c3bd100000000ffffffffff302bc424e0ddc60f33ed435e15126aac9ea6e19a32b37a7fdadbe1598127714e00000000ffffffff9199fc5ca660927344242f4e11fce18740bbde948b9ffba7661be6fe73539a872f00000000ffffffffc7a6319a25aeb4ecb0a55d995e8d6ff719ac469d855e8693fea44a7aade732074700000000ffffffff01f56da900000000001600142bb41719052eb7a4c42b8cdc6b333610b276155302473044022009562a038936590df2d1b035adb2ec6fb1c129e4752ad6167d4f3b129ceb491502205c12448841c794ebd87fd4e793350bfd0c03d35fff46ef5cecdb9a8a5b4585fa01210373d53c9118789b4464cef47bacebf78985906134821a0d0f383dfcc88f5201330247304402202fdc6b093354f404a9082420a8f999bce2d5ef41e97be53e5d207a178c38cfb6022047899587baad9282e3806961081f1c14e37c5ab766eef561a8b8d360dea2ff0d01210373d53c9118789b4464cef47bacebf78985906134821a0d0f383dfcc88f52013302483045022100fead9cba11abe1936d4c98c0b4596abd455efa0e242c52465b939a635c074623022045f48aab24408725059d101b869de68f4090018eb75eb9e09a465a3a5b431e1a01210373d53c9118789b4464cef47bacebf78985906134821a0d0f383dfcc88f52013302473044022039aac9e75eae1e9ded40b8bcf093b2a8a42bcf3d7a4592e073bae63cdfc7fc13022021b1d1aad114e2c98cbb4486633caf2fe53119344f6bf7b137fadbc80469cf5601210373d53c9118789b4464cef47bacebf78985906134821a0d0f383dfcc88f5201330248304502210092c4ce9d4e0523a458fd401f221aa868286e0ff49c2cda851685d651552e370a02205e78c59dc2e4ed6341e3626b93f3c9ae1b0967753852e045371144b63dd12a1d01210373d53c9118789b4464cef47bacebf78985906134821a0d0f383dfcc88f520133024830450221009e77c0bd141ae6b649077b0d7826010d352b029d6b032545078bb1503351bed7022042005b14fbc8789c5c78a8a12f03201c9cab1a9d551918018b930ff56017f2be01210373d53c9118789b4464cef47bacebf78985906134821a0d0f383dfcc88f52013300000000"
}