{
  "txid": "eaa7d0979cabbf027cb0410f6562c7b037e918299d628dc9aa11f0ee246bc3e0",
  "version": 2,
  "locktime": 0,
  "vin": [
    {
      "txid": "8596567be0c02d1ec3f41d43eb47ef61ffd0b043cb0e0380e99c92d839ef6dad",
      "vout": 1,
      "prevout": {
        "scriptpubkey": "5120876c6ea559cf41a527a1a96ff218de7eaefbc27b930a89091beab583628b2089",
        "scriptpubkey_asm": "OP_PUSHNUM_1 OP_PUSHBYTES_32 876c6ea559cf41a527a1a96ff218de7eaefbc27b930a89091beab583628b2089",
        "scriptpubkey_type": "v1_p2tr",
        "scriptpubkey_address": "bc1psakxaf2eeaq62fap49hlyxx706h0hsnmjv9gjzgma26cxc5tyzysl5j8l4",
        "value": 1111
      },
      "scriptsig": "",
      "scriptsig_asm": "",
      "witness": [
        "0e637d7ad5b059584669ee943c367dec88d1e55d271c822e3d105d9041713c89b98b38371f1c2157c51142bd730ca429345a8c0beb9c30faf83cfb3680585111"
      ],
      "is_coinbase": false,
      "sequence": 4294967293
    },
    {
      "txid": "d3875a92dccd98387b0b4d5253ba2a7d50f1b118f00fe15fed35cfb709443182",
      "vout": 1,
      "prevout": {
        "scriptpubkey": "a9145693fef912e69c12baabb9ee0a9bb4780e90d60487",
        "scriptpubkey_asm": "OP_HASH160 OP_PUSHBYTES_20 5693fef912e69c12baabb9ee0a9bb4780e90d604 OP_EQUAL",
        "scriptpubkey_type": "p2sh",
        "scriptpubkey_address": "39aoKyx2oUBniardUnjkHWeG1ev8ZKhrHP",
        "value": 380577
      },
      "scriptsig": "1600149518dad072cf8985dcc3db2e40feca00246b5d4f",
      "scriptsig_asm": "OP_PUSHBYTES_22 00149518dad072cf8985dcc3db2e40feca00246b5d4f",
      "witness": [
        "3045022100bb5e3276961b565e358f21542d5b2e3fbf8502906b11cf385b79ab0aec993eec02205e5ddddc2e446cc9bfb7ea5e6d4ed393d3520dee647376933bebe3830a334ced01",
        "03b25966716e174b1211dbaaaa8e985c0bcd8da38e2691c4cd8ee84fb5336c7c1f"
      ],
      "is_coinbase": false,
      "sequence": 4294967293,
      "inner_redeemscript_asm": "OP_0 OP_PUSHBYTES_20 9518dad072cf8985dcc3db2e40feca00246b5d4f"
    }
  ],
  "vout": [
    {
      "scriptpubkey": "5120148bb0453f4ca683564afa17434cbc8d8392ba2496eb1627fe12eef649eb7b61",
      "scriptpubkey_asm": "OP_PUSHNUM_1 OP_PUSHBYTES_32 148bb0453f4ca683564afa17434cbc8d8392ba2496eb1627fe12eef649eb7b61",
      "scriptpubkey_type": "v1_p2tr",
      "scriptpubkey_address": "bc1pzj9mq3flfjngx4j2lgt5xn9u3kpe9w3yjm43vfl7zth0vj0t0dssgln8xp",
      "value": 1111
    },
    {
      "scriptpubkey": "a9145693fef912e69c12baabb9ee0a9bb4780e90d60487",
      "scriptpubkey_asm": "OP_HASH160 OP_PUSHBYTES_20 5693fef912e69c12baabb9ee0a9bb4780e90d604 OP_EQUAL",
      "scriptpubkey_type": "p2sh",
      "scriptpubkey_address": "39aoKyx2oUBniardUnjkHWeG1ev8ZKhrHP",
      "value": 376305
    }
  ],
  "size": 366,
  "weight": 936,
  "fee": 4272,
  "status": {
    "confirmed": true,
    "block_height": 834638,
    "block_hash": "000000000000000000025f742c626208ac87e0b7d15054abb4a19ca2d735a54e",
    "block_time": 1710405325
  },
  "hex": "02000000000102ad6def39d8929ce980030ecb43b0d0ff61ef47eb431df4c31e2dc0e07b5696850100000000fdffffff82314409b7cf35ed5fe10ff018b1f1507d2aba53524d0b7b3898cddc925a87d301000000171600149518dad072cf8985dcc3db2e40feca00246b5d4ffdffffff025704000000000000225120148bb0453f4ca683564afa17434cbc8d8392ba2496eb1627fe12eef649eb7b61f1bd05000000000017a9145693fef912e69c12baabb9ee0a9bb4780e90d6048701400e637d7ad5b059584669ee943c367dec88d1e55d271c822e3d105d9041713c89b98b38371f1c2157c51142bd730ca429345a8c0beb9c30faf83cfb368058511102483045022100bb5e3276961b565e358f21542d5b2e3fbf8502906b11cf385b79ab0aec993eec02205e5ddddc2e446cc9bfb7ea5e6d4ed393d3520dee647376933bebe3830a334ced012103b25966716e174b1211dbaaaa8e985c0bcd8da38e2691c4cd8ee84fb5336c7c1f00000000"
}