{
  "txid": "eab7705256b7477a31133d1431c377fe4af604a9efa18a5ccc69599697eeb8d9",
  "version": 2,
  "locktime": 0,
  "vin": [
    {
      "txid": "b13bb5512a4904c28a6b7957b88edf574e8cb23551fc1dcfe22d6b239df42cf4",
      "vout": 17,
      "prevout": {
        "scriptpubkey": "5120cd1ec951a8a27e244583c0fa3ef86dc96d9720caf8a143ccd4368393125b1203",
        "scriptpubkey_asm": "OP_PUSHNUM_1 OP_PUSHBYTES_32 cd1ec951a8a27e244583c0fa3ef86dc96d9720caf8a143ccd4368393125b1203",
        "scriptpubkey_type": "v1_p2tr",
        "scriptpubkey_address": "bc1pe50vj5dg5flzg3vrcrara7rde9kewgx2lzs58nx5x6pexyjmzgpst0ey5d",
        "value": 2575
      },
      "scriptsig": "",
      "scriptsig_asm": "",
      "witness": [
        "341e371fe9942fe1b652a8edbf47eb74e8984929135b5a478e93b8457561f785ff4b5ae924cb92a09b358ce8b041424eadd0a1782d168a568838bf3f8351627a",
        "205c3d163821a9d4c34fc4fbc5ce8a572f11d1be5ccb035437a27cd7ccc7b1af2dac0063036f726401010a746578742f706c61696e00367b2270223a226272632d3230222c226f70223a226d696e74222c227469636b223a2261616161222c22616d74223a223130303030227d68",
        "c05c3d163821a9d4c34fc4fbc5ce8a572f11d1be5ccb035437a27cd7ccc7b1af2d"
      ],
      "is_coinbase": false,
      "sequence": 4261412863
    }
  ],
  "vout": [
    {
      "scriptpubkey": "0014ce0b5aa0dac72397a8aa5a85d90a2cfb46f0f630",
      "scriptpubkey_asm": "OP_0 OP_PUSHBYTES_20 ce0b5aa0dac72397a8aa5a85d90a2cfb46f0f630",
      "scriptpubkey_type": "v0_p2wpkh",
      "scriptpubkey_address": "bc1qec944gx6cu3e0292t2zajz3vldr0pa3sh356d9",
      "value": 546
    }
  ],
  "size": 295,
  "weight": 541,
  "fee": 2029,
  "status": {
    "confirmed": true,
    "block_height": 834464,
    "block_hash": "0000000000000000000177a0869a911a2b65c9bdcd5a8bcb02b68f305bee848e",
    "block_time": 1710308296
  },
  "hex": "02000000000101f42cf49d236b2de2cf1dfc5135b28c4e57df8eb857796b8ac204492a51b53bb11100000000fffffffd012202000000000000160014ce0b5aa0dac72397a8aa5a85d90a2cfb46f0f6300340341e371fe9942fe1b652a8edbf47eb74e8984929135b5a478e93b8457561f785ff4b5ae924cb92a09b358ce8b041424eadd0a1782d168a568838bf3f8351627a6e205c3d163821a9d4c34fc4fbc5ce8a572f11d1be5ccb035437a27cd7ccc7b1af2dac0063036f726401010a746578742f706c61696e00367b2270223a226272632d3230222c226f70223a226d696e74222c227469636b223a2261616161222c22616d74223a223130303030227d6821c05c3d163821a9d4c34fc4fbc5ce8a572f11d1be5ccb035437a27cd7ccc7b1af2d00000000"
}