{
  "txid": "ead3e78b4953c756f537bb450eb35083e0c77140776b32059c9e9af1e80255c6",
  "version": 2,
  "locktime": 0,
  "vin": [
    {
      "txid": "ce7afafa44295404233b5a320c7dbda56fe8f55359b0b5e74536289bd60627a7",
      "vout": 4,
      "prevout": {
        "scriptpubkey": "5120da80605f2890450c8b051ad1111ed33b1d945a38e49d454c154b597e48b5b7af",
        "scriptpubkey_asm": "OP_PUSHNUM_1 OP_PUSHBYTES_32 da80605f2890450c8b051ad1111ed33b1d945a38e49d454c154b597e48b5b7af",
        "scriptpubkey_type": "v1_p2tr",
        "scriptpubkey_address": "bc1pm2qxqhegjpzsezc9rtg3z8kn8vwegk3cujw52nq4fdvhuj94k7hsgajhch",
        "value": 600
      },
      "scriptsig": "",
      "scriptsig_asm": "",
      "witness": [
        "b3259bc4b479441fe583dd8da03a4fc4f316b49ddb1a40184bb445721ea13f2462fc489db9018e9c127a1cbc34f1e807545b50b08e94597008d2221cffaec91c"
      ],
      "is_coinbase": false,
      "sequence": 4294967295
    },
    {
      "txid": "ce7afafa44295404233b5a320c7dbda56fe8f55359b0b5e74536289bd60627a7",
      "vout": 3,
      "prevout": {
        "scriptpubkey": "5120da80605f2890450c8b051ad1111ed33b1d945a38e49d454c154b597e48b5b7af",
        "scriptpubkey_asm": "OP_PUSHNUM_1 OP_PUSHBYTES_32 da80605f2890450c8b051ad1111ed33b1d945a38e49d454c154b597e48b5b7af",
        "scriptpubkey_type": "v1_p2tr",
        "scriptpubkey_address": "bc1pm2qxqhegjpzsezc9rtg3z8kn8vwegk3cujw52nq4fdvhuj94k7hsgajhch",
        "value": 600
      },
      "scriptsig": "",
      "scriptsig_asm": "",
      "witness": [
        "d6bcc2fe285353c9f36e4c23db6cf5ab552be05c75d82471117738c6a814bd96db39e2c7869245a2be91549dc53fa4dd68d4a94ec35ef31b63a1505e7d21b0f2"
      ],
      "is_coinbase": false,
      "sequence": 4294967295
    },
    {
      "txid": "a622087434410c91317fb6d9d2f0240ffd11985007899e62085ac9b065e3fd41",
      "vout": 0,
      "prevout": {
        "scriptpubkey": "0014a02e9656503fb127cdc35c8f5faf6017184afe4d",
        "scriptpubkey_asm": "OP_0 OP_PUSHBYTES_20 a02e9656503fb127cdc35c8f5faf6017184afe4d",
        "scriptpubkey_type": "v0_p2wpkh",
        "scriptpubkey_address": "bc1q5qhfv4js87cj0nwrtj84ltmqzuvy4ljdlgvj75",
        "value": 546
      },
      "scriptsig": "",
      "scriptsig_asm": "",
      "witness": [
        "30450221008ac83b61c1cb85dbb37d4d030df9b0be467449789bb45458651283116791e02e02202fbc2d949eda59906ae607e5454a3b404e20e44cc9e3c78349438beb22aa568e83",
        "0269fbd9bccb11ae6f821f3e645001ebffa366d6f91eb1ef3126d9e2af8785bc51"
      ],
      "is_coinbase": false,
      "sequence": 4294967295
    },
    {
      "txid": "22504a739d846e8a7b42211ac63504648703e5b8264c07acdc0e9d7ff2b7eb38",
      "vout": 1,
      "prevout": {
        "scriptpubkey": "5120da80605f2890450c8b051ad1111ed33b1d945a38e49d454c154b597e48b5b7af",
        "scriptpubkey_asm": "OP_PUSHNUM_1 OP_PUSHBYTES_32 da80605f2890450c8b051ad1111ed33b1d945a38e49d454c154b597e48b5b7af",
        "scriptpubkey_type": "v1_p2tr",
        "scriptpubkey_address": "bc1pm2qxqhegjpzsezc9rtg3z8kn8vwegk3cujw52nq4fdvhuj94k7hsgajhch",
        "value": 94594
      },
      "scriptsig": "",
      "scriptsig_asm": "",
      "witness": [
        "f337df8d366d12492a3610267c059efa045326cf41f016643b03e83a1acb13cb823a856e2b8834394ea3889c690887f9eb267292e3847365a4f8df0cfbb81b5a"
      ],
      "is_coinbase": false,
      "sequence": 4294967295
    }
  ],
  "vout": [
    {
      "scriptpubkey": "5120da80605f2890450c8b051ad1111ed33b1d945a38e49d454c154b597e48b5b7af",
      "scriptpubkey_asm": "OP_PUSHNUM_1 OP_PUSHBYTES_32 da80605f2890450c8b051ad1111ed33b1d945a38e49d454c154b597e48b5b7af",
      "scriptpubkey_type": "v1_p2tr",
      "scriptpubkey_address": "bc1pm2qxqhegjpzsezc9rtg3z8kn8vwegk3cujw52nq4fdvhuj94k7hsgajhch",
      "value": 1200
    },
    {
      "scriptpubkey": "5120da80605f2890450c8b051ad1111ed33b1d945a38e49d454c154b597e48b5b7af",
      "scriptpubkey_asm": "OP_PUSHNUM_1 OP_PUSHBYTES_32 da80605f2890450c8b051ad1111ed33b1d945a38e49d454c154b597e48b5b7af",
      "scriptpubkey_type": "v1_p2tr",
      "scriptpubkey_address": "bc1pm2qxqhegjpzsezc9rtg3z8kn8vwegk3cujw52nq4fdvhuj94k7hsgajhch",
      "value": 546
    },
    {
      "scriptpubkey": "0014a02e9656503fb127cdc35c8f5faf6017184afe4d",
      "scriptpubkey_asm": "OP_0 OP_PUSHBYTES_20 a02e9656503fb127cdc35c8f5faf6017184afe4d",
      "scriptpubkey_type": "v0_p2wpkh",
      "scriptpubkey_address": "bc1q5qhfv4js87cj0nwrtj84ltmqzuvy4ljdlgvj75",
      "value": 74000
    },
    {
      "scriptpubkey": "5120da80605f2890450c8b051ad1111ed33b1d945a38e49d454c154b597e48b5b7af",
      "scriptpubkey_asm": "OP_PUSHNUM_1 OP_PUSHBYTES_32 da80605f2890450c8b051ad1111ed33b1d945a38e49d454c154b597e48b5b7af",
      "scriptpubkey_type": "v1_p2tr",
      "scriptpubkey_address": "bc1pm2qxqhegjpzsezc9rtg3z8kn8vwegk3cujw52nq4fdvhuj94k7hsgajhch",
      "value": 600
    },
    {
      "scriptpubkey": "5120da80605f2890450c8b051ad1111ed33b1d945a38e49d454c154b597e48b5b7af",
      "scriptpubkey_asm": "OP_PUSHNUM_1 OP_PUSHBYTES_32 da80605f2890450c8b051ad1111ed33b1d945a38e49d454c154b597e48b5b7af",
      "scriptpubkey_type": "v1_p2tr",
      "scriptpubkey_address": "bc1pm2qxqhegjpzsezc9rtg3z8kn8vwegk3cujw52nq4fdvhuj94k7hsgajhch",
      "value": 600
    },
    {
      "scriptpubkey": "5120da80605f2890450c8b051ad1111ed33b1d945a38e49d454c154b597e48b5b7af",
      "scriptpubkey_asm": "OP_PUSHNUM_1 OP_PUSHBYTES_32 da80605f2890450c8b051ad1111ed33b1d945a38e49d454c154b597e48b5b7af",
      "scriptpubkey_type": "v1_p2tr",
      "scriptpubkey_address": "bc1pm2qxqhegjpzsezc9rtg3z8kn8vwegk3cujw52nq4fdvhuj94k7hsgajhch",
      "value": 13927
    }
  ],
  "size": 728,
  "weight": 1988,
  "fee": 5467,
  "status": {
    "confirmed": true,
    "block_height": 834464,
    "block_hash": "0000000000000000000177a0869a911a2b65c9bdcd5a8bcb02b68f305bee848e",
    "block_time": 1710308296
  },
  "hex": "02000000000104a72706d69b283645e7b5b05953f5e86fa5bd7d0c325a3b2304542944fafa7ace0400000000ffffffffa72706d69b283645e7b5b05953f5e86fa5bd7d0c325a3b2304542944fafa7ace0300000000ffffffff41fde365b0c95a08629e8907509811fd0f24f0d2d9b67f31910c4134740822a60000000000ffffffff38ebb7f27f9d0edcac074c26b8e50387640435c61a21427b8a6e849d734a50220100000000ffffffff06b004000000000000225120da80605f2890450c8b051ad1111ed33b1d945a38e49d454c154b597e48b5b7af2202000000000000225120da80605f2890450c8b051ad1111ed33b1d945a38e49d454c154b597e48b5b7af1021010000000000160014a02e9656503fb127cdc35c8f5faf6017184afe4d5802000000000000225120da80605f2890450c8b051ad1111ed33b1d945a38e49d454c154b597e48b5b7af5802000000000000225120da80605f2890450c8b051ad1111ed33b1d945a38e49d454c154b597e48b5b7af6736000000000000225120da80605f2890450c8b051ad1111ed33b1d945a38e49d454c154b597e48b5b7af0140b3259bc4b479441fe583dd8da03a4fc4f316b49ddb1a40184bb445721ea13f2462fc489db9018e9c127a1cbc34f1e807545b50b08e94597008d2221cffaec91c0140d6bcc2fe285353c9f36e4c23db6cf5ab552be05c75d82471117738c6a814bd96db39e2c7869245a2be91549dc53fa4dd68d4a94ec35ef31b63a1505e7d21b0f2024830450221008ac83b61c1cb85dbb37d4d030df9b0be467449789bb45458651283116791e02e02202fbc2d949eda59906ae607e5454a3b404e20e44cc9e3c78349438beb22aa568e83210269fbd9bccb11ae6f821f3e645001ebffa366d6f91eb1ef3126d9e2af8785bc510140f337df8d366d12492a3610267c059efa045326cf41f016643b03e83a1acb13cb823a856e2b8834394ea3889c690887f9eb267292e3847365a4f8df0cfbb81b5a00000000"
}