{
  "txid": "eb050bfe81c9b0b8c22134fb8baff5ee3430150c91bda2752ab58e4700e8fe8a",
  "version": 2,
  "locktime": 0,
  "vin": [
    {
      "txid": "2cfc89ab1aef9c99ea3981e4c1e7106316e705994462123d2ae13fc55ef8a9f0",
      "vout": 0,
      "prevout": {
        "scriptpubkey": "5120d4923c515f070ed7cec679729cc1ae85d94f29ab30b57b646c3d2b019537b86d",
        "scriptpubkey_asm": "OP_PUSHNUM_1 OP_PUSHBYTES_32 d4923c515f070ed7cec679729cc1ae85d94f29ab30b57b646c3d2b019537b86d",
        "scriptpubkey_type": "v1_p2tr",
        "scriptpubkey_address": "bc1p6jfrc52lqu8d0nkx09efesdwshv572dtxz6hkerv854sr9fhhpksutpuwc",
        "value": 1000
      },
      "scriptsig": "",
      "scriptsig_asm": "",
      "witness": [
        "f15f65e8891d6778e2ba0770346c67a05d81e62617f114d76ce6918bf4b7f1f8cd13587c5cf4ff01cb330cf442ac31b8b7a7c3628ec4ce55a48026278796efc6"
      ],
      "is_coinbase": false,
      "sequence": 4294967295
    },
    {
      "txid": "73d73120cb90bcea2cfd5704c8bb68f30cf7e602e1b05a32d75b1623e98be162",
      "vout": 0,
      "prevout": {
        "scriptpubkey": "5120d4923c515f070ed7cec679729cc1ae85d94f29ab30b57b646c3d2b019537b86d",
        "scriptpubkey_asm": "OP_PUSHNUM_1 OP_PUSHBYTES_32 d4923c515f070ed7cec679729cc1ae85d94f29ab30b57b646c3d2b019537b86d",
        "scriptpubkey_type": "v1_p2tr",
        "scriptpubkey_address": "bc1p6jfrc52lqu8d0nkx09efesdwshv572dtxz6hkerv854sr9fhhpksutpuwc",
        "value": 118596
      },
      "scriptsig": "",
      "scriptsig_asm": "",
      "witness": [
        "50982c194d4bcc166545ed6e69eb4b1f8c3a506a9e4c64794fe0bc47fc629b6093d9da9da7d757dea4b697995753aa9e557bf1d1b2afa335e49c538b3cb5289d"
      ],
      "is_coinbase": false,
      "sequence": 4294967295
    }
  ],
  "vout": [
    {
      "scriptpubkey": "5120f21221ccb9fd9aebd4d373de8ec8d2f025247a65631a64613042d3a65fbd7924",
      "scriptpubkey_asm": "OP_PUSHNUM_1 OP_PUSHBYTES_32 f21221ccb9fd9aebd4d373de8ec8d2f025247a65631a64613042d3a65fbd7924",
      "scriptpubkey_type": "v1_p2tr",
      "scriptpubkey_address": "bc1p7gfzrn9elkdwh4xnw00gajxj7qjjg7n9vvdxgcfsgtf6vhaa0yjq6y998c",
      "value": 1000
    },
    {
      "scriptpubkey": "5120d4923c515f070ed7cec679729cc1ae85d94f29ab30b57b646c3d2b019537b86d",
      "scriptpubkey_asm": "OP_PUSHNUM_1 OP_PUSHBYTES_32 d4923c515f070ed7cec679729cc1ae85d94f29ab30b57b646c3d2b019537b86d",
      "scriptpubkey_type": "v1_p2tr",
      "scriptpubkey_address": "bc1p6jfrc52lqu8d0nkx09efesdwshv572dtxz6hkerv854sr9fhhpksutpuwc",
      "value": 115614
    }
  ],
  "size": 312,
  "weight": 846,
  "fee": 2982,
  "status": {
    "confirmed": true,
    "block_height": 834638,
    "block_hash": "000000000000000000025f742c626208ac87e0b7d15054abb4a19ca2d735a54e",
    "block_time": 1710405325
  },
  "hex": "02000000000102f0a9f85ec53fe12a3d1262449905e7166310e7c1e48139ea999cef1aab89fc2c0000000000ffffffff62e18be923165bd7325ab0e102e6f70cf368bbc80457fd2ceabc90cb2031d7730000000000ffffffff02e803000000000000225120f21221ccb9fd9aebd4d373de8ec8d2f025247a65631a64613042d3a65fbd79249ec3010000000000225120d4923c515f070ed7cec679729cc1ae85d94f29ab30b57b646c3d2b019537b86d0140f15f65e8891d6778e2ba0770346c67a05d81e62617f114d76ce6918bf4b7f1f8cd13587c5cf4ff01cb330cf442ac31b8b7a7c3628ec4ce55a48026278796efc6014050982c194d4bcc166545ed6e69eb4b1f8c3a506a9e4c64794fe0bc47fc629b6093d9da9da7d757dea4b697995753aa9e557bf1d1b2afa335e49c538b3cb5289d00000000"
}