{
  "txid": "eb07951cc13ab614cf97023b8bca33c1360847cb107351413236a3f5724745a4",
  "version": 1,
  "locktime": 0,
  "vin": [
    {
      "txid": "03722c3391afbd3f6ce48326b2a58516047dc090cb90082612efb890f39bc542",
      "vout": 0,
      "prevout": {
        "scriptpubkey": "001413d2e564a83087d037000b933e7fbca1e6fa001e",
        "scriptpubkey_asm": "OP_0 OP_PUSHBYTES_20 13d2e564a83087d037000b933e7fbca1e6fa001e",
        "scriptpubkey_type": "v0_p2wpkh",
        "scriptpubkey_address": "bc1qz0fw2e9gxzraqdcqpwfnulau58n05qq7j8409w",
        "value": 4557
      },
      "scriptsig": "",
      "scriptsig_asm": "",
      "witness": [
        "3045022100992c35f9b90f816e76059041eb7c745c9d80bb11e2da1fa08db6c8c59f7eba1002202c8e318e68e4ca85046b59fb799554b9bec291c4b0a2d278dce72aa3e97e586101",
        "024da446df2df6d6e4f6987e6f39e70c45c97c3e143e01ab7bde0089fe6e69c212"
      ],
      "is_coinbase": false,
      "sequence": 4294967295
    },
    {
      "txid": "03722c3391afbd3f6ce48326b2a58516047dc090cb90082612efb890f39bc542",
      "vout": 1,
      "prevout": {
        "scriptpubkey": "0014d551389e99263c6ae99e39fb3bf809a1a50e228d",
        "scriptpubkey_asm": "OP_0 OP_PUSHBYTES_20 d551389e99263c6ae99e39fb3bf809a1a50e228d",
        "scriptpubkey_type": "v0_p2wpkh",
        "scriptpubkey_address": "bc1q64gn385eyc7x46v788anh7qf5xjsug5dy4ytgl",
        "value": 7000
      },
      "scriptsig": "",
      "scriptsig_asm": "",
      "witness": [
        "304402207021bec0e3e751d8fdf33c43603328832b7325a40eb28cc49f05c483f87e67960220371d47a41ba0bd5173ffcdff036800f89ed586d479c28765aa024a1294dd543201",
        "03e5769ee782907207d54df93e43aae6a43492b56ef7c49928dac6eb97fabad11f"
      ],
      "is_coinbase": false,
      "sequence": 4294967295
    },
    {
      "txid": "1f0b7ccc3ecbce4ecda4a23fec5cf0475831cf54b166888cd8531358377841b4",
      "vout": 0,
      "prevout": {
        "scriptpubkey": "a91456b8609f715d2b30d0f3f567f1d454b4a2e865c687",
        "scriptpubkey_asm": "OP_HASH160 OP_PUSHBYTES_20 56b8609f715d2b30d0f3f567f1d454b4a2e865c6 OP_EQUAL",
        "scriptpubkey_type": "p2sh",
        "scriptpubkey_address": "39bYuovQZrXwkL5h7pNi9MiBPwWNtMDotR",
        "value": 10436
      },
      "scriptsig": "160014e67cc0ce284a029fe2abf7170ed658ef3ae93549",
      "scriptsig_asm": "OP_PUSHBYTES_22 0014e67cc0ce284a029fe2abf7170ed658ef3ae93549",
      "witness": [
        "3044022024988512f93bbc0658a10868a44d841978c3eacca595e0eba35b15197f39fbf2022049b9240f99c19156040cf9929df0005b6d1e2aefe7f96fa9a6703cbfb9defb6b01",
        "03632334df244725b9e0033b85ab1222c36990e06a2d797eec7bf729cd40f50c9f"
      ],
      "is_coinbase": false,
      "sequence": 4294967295,
      "inner_redeemscript_asm": "OP_0 OP_PUSHBYTES_20 e67cc0ce284a029fe2abf7170ed658ef3ae93549"
    },
    {
      "txid": "45bc8f6ee0e45fceaea2132415650420048d7dee8905023f8551195b98b7ea48",
      "vout": 0,
      "prevout": {
        "scriptpubkey": "001444bc9d183cf1d0bf5e0e13925b71e31fa1d531db",
        "scriptpubkey_asm": "OP_0 OP_PUSHBYTES_20 44bc9d183cf1d0bf5e0e13925b71e31fa1d531db",
        "scriptpubkey_type": "v0_p2wpkh",
        "scriptpubkey_address": "bc1qgj7f6xpu78gt7hswzwf9ku0rr7sa2vwmcx5eef",
        "value": 6346
      },
      "scriptsig": "",
      "scriptsig_asm": "",
      "witness": [
        "304402201c19987998f987f0cf8e49bb6937b520ba32540a711df727e3fd058b733d92a3022064f0996303bad4d1eb3203674d8078e55f3af07ddc2803fd5f12a8b77f1f747a01",
        "024e80a483ab4eabc7eaa59b8e95f0720b9caddc148bc18ae02eef042a9e383f79"
      ],
      "is_coinbase": false,
      "sequence": 4294967295
    },
    {
      "txid": "597b1f6b5998a46746763db0cec3afe057f872a267430043a333e54a1e0c9e1b",
      "vout": 0,
      "prevout": {
        "scriptpubkey": "00149fe6b3b9937aa98cd6901ee38a0e6283693933f6",
        "scriptpubkey_asm": "OP_0 OP_PUSHBYTES_20 9fe6b3b9937aa98cd6901ee38a0e6283693933f6",
        "scriptpubkey_type": "v0_p2wpkh",
        "scriptpubkey_address": "bc1qnlnt8wvn025ce45srm3c5rnzsd5njvlkas7w9u",
        "value": 4176
      },
      "scriptsig": "",
      "scriptsig_asm": "",
      "witness": [
        "304402200c0776f2c6f5a53ccdb1b02c34d2f34ebda4d93b0e831869c63d6c1846f433c9022021323255e1d509cc7f7933f4c96b7fa11c62d4f2ac0db2f94329b239fb03c10a01",
        "033bb174ebb9edfb976dfe7aa82bac41fe53a33086d75e77c325f0d4baa55bb1fb"
      ],
      "is_coinbase": false,
      "sequence": 4294967295
    },
    {
      "txid": "790792691e657706794a22041ca6c9c67d8ae61d71d76d63a2f5d2e2f19f627c",
      "vout": 0,
      "prevout": {
        "scriptpubkey": "00147daa4ecdbeb4783ada3b367d6c3d4b8b283c5ee2",
        "scriptpubkey_asm": "OP_0 OP_PUSHBYTES_20 7daa4ecdbeb4783ada3b367d6c3d4b8b283c5ee2",
        "scriptpubkey_type": "v0_p2wpkh",
        "scriptpubkey_address": "bc1q0k4yand7k3ur4k3mxe7kc02t3v5rchhze7f59r",
        "value": 5118
      },
      "scriptsig": "",
      "scriptsig_asm": "",
      "witness": [
        "304402200ecfa4b4c93c6e4e0b64f23f5128140a8dfbfdbf1a6be28fc94f0e1f03da39d902206c24810874d8e586572917e3e36745aabd92d65fbc995969d688f0384652c30401",
        "02a018264b798d95ee7e086acec10aae45dda03e09f9a26cc0caa6290239b1cef6"
      ],
      "is_coinbase": false,
      "sequence": 4294967295
    },
    {
      "txid": "874b4ce6ab1ef7e0ae08616344aded09de362b186986924d8aa18ad8ffae21b6",
      "vout": 0,
      "prevout": {
        "scriptpubkey": "0014296b45ae9f0754b7c9f108e0a05b9239d5899d49",
        "scriptpubkey_asm": "OP_0 OP_PUSHBYTES_20 296b45ae9f0754b7c9f108e0a05b9239d5899d49",
        "scriptpubkey_type": "v0_p2wpkh",
        "scriptpubkey_address": "bc1q9945tt5lqa2t0j03prs2qkuj882cn82f4hetau",
        "value": 4327
      },
      "scriptsig": "",
      "scriptsig_asm": "",
      "witness": [
        "3045022100de74ebf8a0b707ca8d8b1f2e57b1ca0f7fbee6242d5a7a8f2dfbadcf3436eb6602202d8e614d258ae9b6c0a2415646951afaa5df71c4772b00f9148bacfaaa92e4aa01",
        "02ff25faed70cc91495037a8fb8cac9eb119b98d580e3f90503e5a91f69df095d7"
      ],
      "is_coinbase": false,
      "sequence": 4294967295
    },
    {
      "txid": "c425e85748065588498ebe263d487cb5ed05d02b90114d30340e88f1bf3c9fea",
      "vout": 0,
      "prevout": {
        "scriptpubkey": "001488f8faf0c3a4aead9f80daf50102f1e5a612e39a",
        "scriptpubkey_asm": "OP_0 OP_PUSHBYTES_20 88f8faf0c3a4aead9f80daf50102f1e5a612e39a",
        "scriptpubkey_type": "v0_p2wpkh",
        "scriptpubkey_address": "bc1q3ru04uxr5jh2m8uqmt6szqh3uknp9cu6wu4ld7",
        "value": 6740
      },
      "scriptsig": "",
      "scriptsig_asm": "",
      "witness": [
        "304402200cba46977bba603aa04ff8c121f6cc3b8d9d7b5167ffddb14edd8877acd3b3d402207492aace41f6642a233911d54c076b4e40e243d655b026cfbbdc6a045639656001",
        "023171cc96f99b1815e617095b22a5a2460fd9740d5102c111a782b7c6053d6919"
      ],
      "is_coinbase": false,
      "sequence": 4294967295
    },
    {
      "txid": "f1aa574003e882e9996f29cd47935007362e9291df41634b729919ee06aa2851",
      "vout": 0,
      "prevout": {
        "scriptpubkey": "a914a142e09c88a39b8aff1f9a4acc3b7a2bbc1d3de087",
        "scriptpubkey_asm": "OP_HASH160 OP_PUSHBYTES_20 a142e09c88a39b8aff1f9a4acc3b7a2bbc1d3de0 OP_EQUAL",
        "scriptpubkey_type": "p2sh",
        "scriptpubkey_address": "3GPgq9hmoWf2BuSbJiSojsw7J9YM4AfUd6",
        "value": 21679
      },
      "scriptsig": "160014f2daeb9b19df58fb0557ea615aba6e79fdcb85dd",
      "scriptsig_asm": "OP_PUSHBYTES_22 0014f2daeb9b19df58fb0557ea615aba6e79fdcb85dd",
      "witness": [
        "304402204893c96a7c83892b178749fd661b4136ab80796472848288aa31015c3d5bef5202204c26d20738ac145f19311130ff1b43ace8a7e16cf9344f6585bc0138d11b075701",
        "035208c9023d42f86e7e5cb2f7b2c0343b96e9755aa08f932ec9d8db86ea9a1dbb"
      ],
      "is_coinbase": false,
      "sequence": 4294967295,
      "inner_redeemscript_asm": "OP_0 OP_PUSHBYTES_20 f2daeb9b19df58fb0557ea615aba6e79fdcb85dd"
    },
    {
      "txid": "f1aa574003e882e9996f29cd47935007362e9291df41634b729919ee06aa2851",
      "vout": 3,
      "prevout": {
        "scriptpubkey": "a91422110982e27b9430d5567696cdc228d38618350387",
        "scriptpubkey_asm": "OP_HASH160 OP_PUSHBYTES_20 22110982e27b9430d5567696cdc228d386183503 OP_EQUAL",
        "scriptpubkey_type": "p2sh",
        "scriptpubkey_address": "34o9JpzBKRcHWQoEq4iSDxRz9FnCusNz2i",
        "value": 93107
      },
      "scriptsig": "16001466817650f6820c8ab7cf7f5982c01d80d47e658d",
      "scriptsig_asm": "OP_PUSHBYTES_22 001466817650f6820c8ab7cf7f5982c01d80d47e658d",
      "witness": [
        "3045022100bc186d4bae47f4484c0462dbc0a4682198f7bcfcb733f19402bcc4edfa238a1302207c01627ba07c31d0a5db76aac5296d5924cceb624766d24b3ad10e90ef0bc2ae01",
        "021eebf9a8f7df6acde124a2060916e399f70e6628aa751697ded48762c2c9a963"
      ],
      "is_coinbase": false,
      "sequence": 4294967295,
      "inner_redeemscript_asm": "OP_0 OP_PUSHBYTES_20 66817650f6820c8ab7cf7f5982c01d80d47e658d"
    },
    {
      "txid": "f345dc7200bdc46e0793acb73705a33dea159d39a9f0a3775ea81cf7bcbe708b",
      "vout": 0,
      "prevout": {
        "scriptpubkey": "001444f1d18003354cfc57558b7e17a8ddf3f922f4bd",
        "scriptpubkey_asm": "OP_0 OP_PUSHBYTES_20 44f1d18003354cfc57558b7e17a8ddf3f922f4bd",
        "scriptpubkey_type": "v0_p2wpkh",
        "scriptpubkey_address": "bc1qgncarqqrx4x0c4643dlp02xa70uj9a9afa9983",
        "value": 6942
      },
      "scriptsig": "",
      "scriptsig_asm": "",
      "witness": [
        "3045022100963d5b76ee62000a82bf63f976e09e8e556f4ae86c5f637a6f723c4b6af82d8c02203e0e0532ed2140b5c89085c37325013b03ff9c8e122560f2b70f6ab526f5a96a01",
        "03ca681c5cfc4c7f839962cf63aaa81480dbe33894510c043bfc02c360020138c0"
      ],
      "is_coinbase": false,
      "sequence": 4294967295
    },
    {
      "txid": "fab40dd9e2d3ffd18b6b56047bef8ed64b7541fe1dff3225d6e9a05bc0f64154",
      "vout": 0,
      "prevout": {
        "scriptpubkey": "0014de1b8e0c686ca1cead282c34f220ad4cdd7aac30",
        "scriptpubkey_asm": "OP_0 OP_PUSHBYTES_20 de1b8e0c686ca1cead282c34f220ad4cdd7aac30",
        "scriptpubkey_type": "v0_p2wpkh",
        "scriptpubkey_address": "bc1qmcdcurrgdjsuatfg9s60yg9dfnwh4tps7d57mc",
        "value": 5182
      },
      "scriptsig": "",
      "scriptsig_asm": "",
      "witness": [
        "3044022041c5414be9523d72d6dcda218159646212d5fb03ddb4c2affdaa0e429d20b930022011c406c8c9e3f2e47a51b54accee640824eaf56ddf7d1603f950f6b3f49a3f6501",
        "0231a71d900daf3edf69c1633e3262a36c45fdeee77942737e6b99662f2ad02f0a"
      ],
      "is_coinbase": false,
      "sequence": 4294967295
    }
  ],
  "vout": [
    {
      "scriptpubkey": "0014c1de0072035496065742725660e72df13fdab14a",
      "scriptpubkey_asm": "OP_0 OP_PUSHBYTES_20 c1de0072035496065742725660e72df13fdab14a",
      "scriptpubkey_type": "v0_p2wpkh",
      "scriptpubkey_address": "bc1qc80qqusr2jtqv46zwftxpeed7yla4v22kumdnz",
      "value": 895
    },
    {
      "scriptpubkey": "51205d37e0eaaa44dd78428d0baf1a14f74b2d2e0d8fd80f2bca2d3ca7d1cc72d2a4",
      "scriptpubkey_asm": "OP_PUSHNUM_1 OP_PUSHBYTES_32 5d37e0eaaa44dd78428d0baf1a14f74b2d2e0d8fd80f2bca2d3ca7d1cc72d2a4",
      "scriptpubkey_type": "v1_p2tr",
      "scriptpubkey_address": "bc1pt5m7p642gnwhss5dpwh3598hfvkjurv0mq8jhj3d8jnarnrj62jqt3wdyu",
      "value": 160000
    }
  ],
  "size": 1935,
  "weight": 3870,
  "fee": 14715,
  "status": {
    "confirmed": true,
    "block_height": 834460,
    "block_hash": "00000000000000000000484a79b643b2524bbce82e5d8a442013fa5b8905ed98",
    "block_time": 1710307468
  },
  "hex": "0100000000010c42c59bf390b8ef12260890cb90c07d041685a5b22683e46c3fbdaf91332c72030000000000ffffffff42c59bf390b8ef12260890cb90c07d041685a5b22683e46c3fbdaf91332c72030100000000ffffffffb4417837581353d88c8866b154cf315847f05cec3fa2a4cd4ececb3ecc7c0b1f0000000017160014e67cc0ce284a029fe2abf7170ed658ef3ae93549ffffffff48eab7985b1951853f020589ee7d8d04200465152413a2aece5fe4e06e8fbc450000000000ffffffff1b9e0c1e4ae533a343004367a272f857e0afc3ceb03d764667a498596b1f7b590000000000ffffffff7c629ff1e2d2f5a2636dd7711de68a7dc6c9a61c04224a790677651e699207790000000000ffffffffb621aeffd88aa18a4d928669182b36de09edad44636108aee0f71eabe64c4b870000000000ffffffffea9f3cbff1880e34304d11902bd005edb57c483d26be8e498855064857e825c40000000000ffffffff5128aa06ee1999724b6341df91922e3607509347cd296f99e982e8034057aaf10000000017160014f2daeb9b19df58fb0557ea615aba6e79fdcb85ddffffffff5128aa06ee1999724b6341df91922e3607509347cd296f99e982e8034057aaf1030000001716001466817650f6820c8ab7cf7f5982c01d80d47e658dffffffff8b70bebcf71ca85e77a3f0a9399d15ea3da30537b7ac93076ec4bd0072dc45f30000000000ffffffff5441f6c05ba0e9d62532ff1dfe41754bd68eef7b04566b8bd1ffd3e2d90db4fa0000000000ffffffff027f03000000000000160014c1de0072035496065742725660e72df13fdab14a00710200000000002251205d37e0eaaa44dd78428d0baf1a14f74b2d2e0d8fd80f2bca2d3ca7d1cc72d2a402483045022100992c35f9b90f816e76059041eb7c745c9d80bb11e2da1fa08db6c8c59f7eba1002202c8e318e68e4ca85046b59fb799554b9bec291c4b0a2d278dce72aa3e97e58610121024da446df2df6d6e4f6987e6f39e70c45c97c3e143e01ab7bde0089fe6e69c2120247304402207021bec0e3e751d8fdf33c43603328832b7325a40eb28cc49f05c483f87e67960220371d47a41ba0bd5173ffcdff036800f89ed586d479c28765aa024a1294dd5432012103e5769ee782907207d54df93e43aae6a43492b56ef7c49928dac6eb97fabad11f02473044022024988512f93bbc0658a10868a44d841978c3eacca595e0eba35b15197f39fbf2022049b9240f99c19156040cf9929df0005b6d1e2aefe7f96fa9a6703cbfb9defb6b012103632334df244725b9e0033b85ab1222c36990e06a2d797eec7bf729cd40f50c9f0247304402201c19987998f987f0cf8e49bb6937b520ba32540a711df727e3fd058b733d92a3022064f0996303bad4d1eb3203674d8078e55f3af07ddc2803fd5f12a8b77f1f747a0121024e80a483ab4eabc7eaa59b8e95f0720b9caddc148bc18ae02eef042a9e383f790247304402200c0776f2c6f5a53ccdb1b02c34d2f34ebda4d93b0e831869c63d6c1846f433c9022021323255e1d509cc7f7933f4c96b7fa11c62d4f2ac0db2f94329b239fb03c10a0121033bb174ebb9edfb976dfe7aa82bac41fe53a33086d75e77c325f0d4baa55bb1fb0247304402200ecfa4b4c93c6e4e0b64f23f5128140a8dfbfdbf1a6be28fc94f0e1f03da39d902206c24810874d8e586572917e3e36745aabd92d65fbc995969d688f0384652c304012102a018264b798d95ee7e086acec10aae45dda03e09f9a26cc0caa6290239b1cef602483045022100de74ebf8a0b707ca8d8b1f2e57b1ca0f7fbee6242d5a7a8f2dfbadcf3436eb6602202d8e614d258ae9b6c0a2415646951afaa5df71c4772b00f9148bacfaaa92e4aa012102ff25faed70cc91495037a8fb8cac9eb119b98d580e3f90503e5a91f69df095d70247304402200cba46977bba603aa04ff8c121f6cc3b8d9d7b5167ffddb14edd8877acd3b3d402207492aace41f6642a233911d54c076b4e40e243d655b026cfbbdc6a04563965600121023171cc96f99b1815e617095b22a5a2460fd9740d5102c111a782b7c6053d69190247304402204893c96a7c83892b178749fd661b4136ab80796472848288aa31015c3d5bef5202204c26d20738ac145f19311130ff1b43ace8a7e16cf9344f6585bc0138d11b07570121035208c9023d42f86e7e5cb2f7b2c0343b96e9755aa08f932ec9d8db86ea9a1dbb02483045022100bc186d4bae47f4484c0462dbc0a4682198f7bcfcb733f19402bcc4edfa238a1302207c01627ba07c31d0a5db76aac5296d5924cceb624766d24b3ad10e90ef0bc2ae0121021eebf9a8f7df6acde124a2060916e399f70e6628aa751697ded48762c2c9a96302483045022100963d5b76ee62000a82bf63f976e09e8e556f4ae86c5f637a6f723c4b6af82d8c02203e0e0532ed2140b5c89085c37325013b03ff9c8e122560f2b70f6ab526f5a96a012103ca681c5cfc4c7f839962cf63aaa81480dbe33894510c043bfc02c360020138c002473044022041c5414be9523d72d6dcda218159646212d5fb03ddb4c2affdaa0e429d20b930022011c406c8c9e3f2e47a51b54accee640824eaf56ddf7d1603f950f6b3f49a3f6501210231a71d900daf3edf69c1633e3262a36c45fdeee77942737e6b99662f2ad02f0a00000000"
}