{
  "txid": "eb0aa8996c12396c005ec1b90889e20cf7dfa05e1b4ed8838132b75066da7c11",
  "version": 2,
  "locktime": 0,
  "vin": [
    {
      "txid": "8acd0c6bdf1ef0bf160323f166da58dbc4df8478788b5eb1bb3394eeff9c5e86",
      "vout": 141,
      "prevout": {
        "scriptpubkey": "0014542abf5871475ca6056a4c95ff5716fb281d3e66",
        "scriptpubkey_asm": "OP_0 OP_PUSHBYTES_20 542abf5871475ca6056a4c95ff5716fb281d3e66",
        "scriptpubkey_type": "v0_p2wpkh",
        "scriptpubkey_address": "bc1q2s4t7kr3gaw2vpt2fj2l74cklv5p60nx7t00z9",
        "value": 187168
      },
      "scriptsig": "",
      "scriptsig_asm": "",
      "witness": [
        "304402207edc411b895106d1dbca13e8f65f102d64bce343d5b8e51ce387b279318e9b4a022077eb9a7979e9d5ea54bce790eb5d21eff9e747d4ba04688851cfadda1a0462f501",
        "03853d482ac3e609106b5c3d71ad7dfd836c3db8622b358bf32f29f9d07e38004a"
      ],
      "is_coinbase": false,
      "sequence": 4294967293
    }
  ],
  "vout": [
    {
      "scriptpubkey": "0014542abf5871475ca6056a4c95ff5716fb281d3e66",
      "scriptpubkey_asm": "OP_0 OP_PUSHBYTES_20 542abf5871475ca6056a4c95ff5716fb281d3e66",
      "scriptpubkey_type": "v0_p2wpkh",
      "scriptpubkey_address": "bc1q2s4t7kr3gaw2vpt2fj2l74cklv5p60nx7t00z9",
      "value": 178719
    },
    {
      "scriptpubkey": "00144bd1a17c702300019fc184aa41cffa5007349349",
      "scriptpubkey_asm": "OP_0 OP_PUSHBYTES_20 4bd1a17c702300019fc184aa41cffa5007349349",
      "scriptpubkey_type": "v0_p2wpkh",
      "scriptpubkey_address": "bc1qf0g6zlrsyvqqr87psj4yrnl62qrnfy6fzppjje",
      "value": 6919
    }
  ],
  "size": 222,
  "weight": 561,
  "fee": 1530,
  "status": {
    "confirmed": true,
    "block_height": 834464,
    "block_hash": "0000000000000000000177a0869a911a2b65c9bdcd5a8bcb02b68f305bee848e",
    "block_time": 1710308296
  },
  "hex": "02000000000101865e9cffee9433bbb15e8b787884dfc4db58da66f1230316bff01edf6b0ccd8a8d00000000fdffffff021fba020000000000160014542abf5871475ca6056a4c95ff5716fb281d3e66071b0000000000001600144bd1a17c702300019fc184aa41cffa50073493490247304402207edc411b895106d1dbca13e8f65f102d64bce343d5b8e51ce387b279318e9b4a022077eb9a7979e9d5ea54bce790eb5d21eff9e747d4ba04688851cfadda1a0462f5012103853d482ac3e609106b5c3d71ad7dfd836c3db8622b358bf32f29f9d07e38004a00000000"
}