{
  "txid": "eb20dd7c5433acebd6e1cd3d8193feae63e19312c0b08558151f20e6cb1868f7",
  "version": 1,
  "locktime": 0,
  "vin": [
    {
      "txid": "8888888888bff446b3884b85d830f0b5cc5b6a596780f6f3f2ed4d82e226ad93",
      "vout": 0,
      "prevout": {
        "scriptpubkey": "512058a07bad9a8546eac4b809050e401f6882de6e83b884576224496c1f51f29e86",
        "scriptpubkey_asm": "OP_PUSHNUM_1 OP_PUSHBYTES_32 58a07bad9a8546eac4b809050e401f6882de6e83b884576224496c1f51f29e86",
        "scriptpubkey_type": "v1_p2tr",
        "scriptpubkey_address": "bc1ptzs8htv6s4rw439cpyzsusqldzpdum5rhzz9wc3yf9kp750jn6rqlmfy00",
        "value": 12071
      },
      "scriptsig": "",
      "scriptsig_asm": "",
      "witness": [
        "02d3ccf369fd75dd1dd5e60c27b3c8526333f45e64f7d4f46e4ed360ac2ed4fa711091ce0c4ae216372e71800e5c0a125a9295f2621a866480e489c38d8818f5",
        "20964ac4b39c9655d5bed1908c028e5b13bdcc67f011169207c5b2bcfd1aaffa8cac00630461746f6d03646d7446a16461726773a46474696d651a65f1378f656e6f6e63651a0001000068626974776f726b636b3838383838383838382e386b6d696e745f7469636b657268696e66696e69747968",
        "c0964ac4b39c9655d5bed1908c028e5b13bdcc67f011169207c5b2bcfd1aaffa8c"
      ],
      "is_coinbase": false,
      "sequence": 4294967295
    }
  ],
  "vout": [
    {
      "scriptpubkey": "5120c9778f0f7116a0fa90e759ca54b375f5c38d7db5875a2860af8354d65a8671e2",
      "scriptpubkey_asm": "OP_PUSHNUM_1 OP_PUSHBYTES_32 c9778f0f7116a0fa90e759ca54b375f5c38d7db5875a2860af8354d65a8671e2",
      "scriptpubkey_type": "v1_p2tr",
      "scriptpubkey_address": "bc1pe9mc7rm3z6s04y88t899fvm47hpc6ld4sadzsc90sd2dvk5xw83qeh2mmm",
      "value": 9999
    }
  ],
  "size": 314,
  "weight": 596,
  "fee": 2072,
  "status": {
    "confirmed": true,
    "block_height": 834460,
    "block_hash": "00000000000000000000484a79b643b2524bbce82e5d8a442013fa5b8905ed98",
    "block_time": 1710307468
  },
  "hex": "0100000000010193ad26e2824dedf2f3f68067596a5bccb5f030d8854b88b346f4bf88888888880000000000ffffffff010f27000000000000225120c9778f0f7116a0fa90e759ca54b375f5c38d7db5875a2860af8354d65a8671e2034002d3ccf369fd75dd1dd5e60c27b3c8526333f45e64f7d4f46e4ed360ac2ed4fa711091ce0c4ae216372e71800e5c0a125a9295f2621a866480e489c38d8818f57520964ac4b39c9655d5bed1908c028e5b13bdcc67f011169207c5b2bcfd1aaffa8cac00630461746f6d03646d7446a16461726773a46474696d651a65f1378f656e6f6e63651a0001000068626974776f726b636b3838383838383838382e386b6d696e745f7469636b657268696e66696e6974796821c0964ac4b39c9655d5bed1908c028e5b13bdcc67f011169207c5b2bcfd1aaffa8c00000000"
}