{
  "txid": "eb3e29a4eb5af8387f80fb1bfd7799af6418c1243d8f637035cc6278a35d2747",
  "version": 1,
  "locktime": 0,
  "vin": [
    {
      "txid": "6f27cbabab16e59331a0dd436f9cc985f4a0eafa6db5ce2a3ba45b7c4d55d04a",
      "vout": 0,
      "prevout": {
        "scriptpubkey": "0014f3ed8caf384ccd307db7ff9fff07fe077be5fc1a",
        "scriptpubkey_asm": "OP_0 OP_PUSHBYTES_20 f3ed8caf384ccd307db7ff9fff07fe077be5fc1a",
        "scriptpubkey_type": "v0_p2wpkh",
        "scriptpubkey_address": "bc1q70kcetecfnxnqldhl70l7pl7qaa7tlq6874t7d",
        "value": 274224
      },
      "scriptsig": "",
      "scriptsig_asm": "",
      "witness": [
        "304402200f0e50435578fc17d7c5096634c1bcb7ef2cbf2ac786b10d3ba13a64312471970220533b09a928f59c1262958c68a774e483d9798eb34d9827858fd8bef4eaf714e001",
        "02f37e7a48c45aa342a1a672f72444cd834f827b7d8eca7a0c5cb4d0712b533afe"
      ],
      "is_coinbase": false,
      "sequence": 4294967295
    },
    {
      "txid": "e06fef6107ca1256d520b9901f09a11424302969e6abbe88dca6f9909693fd62",
      "vout": 0,
      "prevout": {
        "scriptpubkey": "00149366466f24c5cf2f717a922baed8e6555496bda9",
        "scriptpubkey_asm": "OP_0 OP_PUSHBYTES_20 9366466f24c5cf2f717a922baed8e6555496bda9",
        "scriptpubkey_type": "v0_p2wpkh",
        "scriptpubkey_address": "bc1qjdnyvmeych8j7ut6jg46ak8x242fd0dfdw3nn4",
        "value": 409299
      },
      "scriptsig": "",
      "scriptsig_asm": "",
      "witness": [
        "3045022100bd2b6c7f070270df32e76da3f3446dc7ae0ea28d21080be5280ec951146c946302205d956f419a1bbf2a3050870bbd1859a774399719604ec7e93b7f797cc5fc00bd01",
        "032fa6532a71633390fdd93ce91f086c7fee3f37751ef6577d0e7fa251c606c02a"
      ],
      "is_coinbase": false,
      "sequence": 4294967295
    }
  ],
  "vout": [
    {
      "scriptpubkey": "00146d3110a6b9e6e020de2df699535339ab70c7521b",
      "scriptpubkey_asm": "OP_0 OP_PUSHBYTES_20 6d3110a6b9e6e020de2df699535339ab70c7521b",
      "scriptpubkey_type": "v0_p2wpkh",
      "scriptpubkey_address": "bc1qd5c3pf4eumszph3d76v4x5ee4dcvw5smsle3l9",
      "value": 679983
    }
  ],
  "size": 340,
  "weight": 709,
  "fee": 3540,
  "status": {
    "confirmed": true,
    "block_height": 834638,
    "block_hash": "000000000000000000025f742c626208ac87e0b7d15054abb4a19ca2d735a54e",
    "block_time": 1710405325
  },
  "hex": "010000000001024ad0554d7c5ba43b2aceb56dfaeaa0f485c99c6f43dda03193e516ababcb276f0000000000ffffffff62fd939690f9a6dc88beabe66929302414a1091f90b920d55612ca0761ef6fe00000000000ffffffff012f600a00000000001600146d3110a6b9e6e020de2df699535339ab70c7521b0247304402200f0e50435578fc17d7c5096634c1bcb7ef2cbf2ac786b10d3ba13a64312471970220533b09a928f59c1262958c68a774e483d9798eb34d9827858fd8bef4eaf714e0012102f37e7a48c45aa342a1a672f72444cd834f827b7d8eca7a0c5cb4d0712b533afe02483045022100bd2b6c7f070270df32e76da3f3446dc7ae0ea28d21080be5280ec951146c946302205d956f419a1bbf2a3050870bbd1859a774399719604ec7e93b7f797cc5fc00bd0121032fa6532a71633390fdd93ce91f086c7fee3f37751ef6577d0e7fa251c606c02a00000000"
}