{
  "txid": "eb3f8d9ed92b6b80c750aa909ac172774c006ac0170f41e3afa2b58ade0e6eb6",
  "version": 2,
  "locktime": 0,
  "vin": [
    {
      "txid": "0ba06e999b7d04c0f40828169cff0d768db9b27a64504f39cf6cf0bb8360d64e",
      "vout": 54,
      "prevout": {
        "scriptpubkey": "001423973370dedf74c6f71a97a6255c7797a567c0a4",
        "scriptpubkey_asm": "OP_0 OP_PUSHBYTES_20 23973370dedf74c6f71a97a6255c7797a567c0a4",
        "scriptpubkey_type": "v0_p2wpkh",
        "scriptpubkey_address": "bc1qywtnxux7ma6vdac6j7nz2hrhj7jk0s9yd7tx86",
        "value": 62255813
      },
      "scriptsig": "",
      "scriptsig_asm": "",
      "witness": [
        "3044022036ff0450014aa7e8669721d798c24f840b8a63b6ca4030e499dea50cfcc3cadd022067c484b9c6554efc302de7bb00a44f2d5ddaccf9b06fa82759c7046e4fe2fc1001",
        "034a259e539ec1436917785201b06c24bef286de616f46c1ddf05f535674d342e0"
      ],
      "is_coinbase": false,
      "sequence": 4294967293
    }
  ],
  "vout": [
    {
      "scriptpubkey": "0014609e182a46e549e2a06dc1403977740169f5e983",
      "scriptpubkey_asm": "OP_0 OP_PUSHBYTES_20 609e182a46e549e2a06dc1403977740169f5e983",
      "scriptpubkey_type": "v0_p2wpkh",
      "scriptpubkey_address": "bc1qvz0ps2jxu4y79grdc9qrjam5q95lt6vru6089c",
      "value": 62237921
    }
  ],
  "size": 191,
  "weight": 437,
  "fee": 17892,
  "status": {
    "confirmed": true,
    "block_height": 834638,
    "block_hash": "000000000000000000025f742c626208ac87e0b7d15054abb4a19ca2d735a54e",
    "block_time": 1710405325
  },
  "hex": "020000000001014ed66083bbf06ccf394f50647ab2b98d760dff9c162808f4c0047d9b996ea00b3600000000fdffffff01e1acb50300000000160014609e182a46e549e2a06dc1403977740169f5e98302473044022036ff0450014aa7e8669721d798c24f840b8a63b6ca4030e499dea50cfcc3cadd022067c484b9c6554efc302de7bb00a44f2d5ddaccf9b06fa82759c7046e4fe2fc100121034a259e539ec1436917785201b06c24bef286de616f46c1ddf05f535674d342e000000000"
}