{
  "txid": "eb4b8630b93508da9c197c0fffde911f871b8a2c4abcca773c96878686de8300",
  "version": 2,
  "locktime": 0,
  "vin": [
    {
      "txid": "37e9078cd7a626caa7b5e8173307cc09e26dbd54f64b05c8de11563edf957b45",
      "vout": 18,
      "prevout": {
        "scriptpubkey": "00144eec4a220c16338908c5e0320918526719f3afdd",
        "scriptpubkey_asm": "OP_0 OP_PUSHBYTES_20 4eec4a220c16338908c5e0320918526719f3afdd",
        "scriptpubkey_type": "v0_p2wpkh",
        "scriptpubkey_address": "bc1qfmky5gsvzcecjzx9uqeqjxzjvuvl8t7ae5rms0",
        "value": 76178
      },
      "scriptsig": "",
      "scriptsig_asm": "",
      "witness": [
        "30450221008d4df5783f88f01b2f8cefed9999d6a278c5ab66939afd159c19661da96ab08602202754fbc2f26ab8f262c8316a026525cb689f4a9b508396b2bd197b60fde4fb1201",
        "0305305c576b5ff79288668f5d48bdc2c06caed80336dde4b59e3c59b8ff6602fe"
      ],
      "is_coinbase": false,
      "sequence": 4294967295
    }
  ],
  "vout": [
    {
      "scriptpubkey": "a9145db48ce1cf63126d796d2639b776ecf04793141087",
      "scriptpubkey_asm": "OP_HASH160 OP_PUSHBYTES_20 5db48ce1cf63126d796d2639b776ecf047931410 OP_EQUAL",
      "scriptpubkey_type": "p2sh",
      "scriptpubkey_address": "3AEV4EtEL6TCn9JRXnWeNjkJ9fSyBexVeJ",
      "value": 74512
    }
  ],
  "size": 193,
  "weight": 442,
  "fee": 1666,
  "status": {
    "confirmed": true,
    "block_height": 834460,
    "block_hash": "00000000000000000000484a79b643b2524bbce82e5d8a442013fa5b8905ed98",
    "block_time": 1710307468
  },
  "hex": "02000000000101457b95df3e5611dec8054bf654bd6de209cc073317e8b5a7ca26a6d78c07e9371200000000ffffffff01102301000000000017a9145db48ce1cf63126d796d2639b776ecf04793141087024830450221008d4df5783f88f01b2f8cefed9999d6a278c5ab66939afd159c19661da96ab08602202754fbc2f26ab8f262c8316a026525cb689f4a9b508396b2bd197b60fde4fb1201210305305c576b5ff79288668f5d48bdc2c06caed80336dde4b59e3c59b8ff6602fe00000000"
}