{
  "txid": "eb6a5bf60f77d656d6205509c2611f69bec685d147b5e5538d4d03fda578d3de",
  "version": 2,
  "locktime": 834637,
  "vin": [
    {
      "txid": "89e1a2dc4491c787b59afc4fcce6683038bea98fb0a7e1db598c5eb775c20085",
      "vout": 1,
      "prevout": {
        "scriptpubkey": "0014fd725ac58a916f63888f9f444e168cd4dea235d9",
        "scriptpubkey_asm": "OP_0 OP_PUSHBYTES_20 fd725ac58a916f63888f9f444e168cd4dea235d9",
        "scriptpubkey_type": "v0_p2wpkh",
        "scriptpubkey_address": "bc1ql4e943v2j9hk8zy0nazyu95v6n02ydwenus37j",
        "value": 263365180
      },
      "scriptsig": "",
      "scriptsig_asm": "",
      "witness": [
        "30440220511166610a16340f7cced591f06f26c810082c4398e08330487c7f1a8e7cef250220222dff85c607f20bac508da86de7166b9fd45ec4a666ea7c899d71ac1b0e757a01",
        "033264bc6a55c50302becada49a91e087afd1ed585c7a04090721ef895de99f01f"
      ],
      "is_coinbase": false,
      "sequence": 4294967294
    }
  ],
  "vout": [
    {
      "scriptpubkey": "0014294fc664680636b2b636e05a7a86a0607ce017ab",
      "scriptpubkey_asm": "OP_0 OP_PUSHBYTES_20 294fc664680636b2b636e05a7a86a0607ce017ab",
      "scriptpubkey_type": "v0_p2wpkh",
      "scriptpubkey_address": "bc1q998uvergqcmt9d3kupd84p4qvp7wq9atvstmfj",
      "value": 3026700
    },
    {
      "scriptpubkey": "0014981a520addbea3df49aa166816a5e725e96e62d5",
      "scriptpubkey_asm": "OP_0 OP_PUSHBYTES_20 981a520addbea3df49aa166816a5e725e96e62d5",
      "scriptpubkey_type": "v0_p2wpkh",
      "scriptpubkey_address": "bc1qnqd9yzkah63a7jd2ze5pdf08yh5kuck47sm2ef",
      "value": 260335024
    }
  ],
  "size": 222,
  "weight": 561,
  "fee": 3456,
  "status": {
    "confirmed": true,
    "block_height": 834638,
    "block_hash": "000000000000000000025f742c626208ac87e0b7d15054abb4a19ca2d735a54e",
    "block_time": 1710405325
  },
  "hex": "020000000001018500c275b75e8c59dbe1a7b08fa9be383068e6cc4ffc9ab587c79144dca2e1890100000000feffffff020c2f2e0000000000160014294fc664680636b2b636e05a7a86a0607ce017abb065840f00000000160014981a520addbea3df49aa166816a5e725e96e62d5024730440220511166610a16340f7cced591f06f26c810082c4398e08330487c7f1a8e7cef250220222dff85c607f20bac508da86de7166b9fd45ec4a666ea7c899d71ac1b0e757a0121033264bc6a55c50302becada49a91e087afd1ed585c7a04090721ef895de99f01f4dbc0c00"
}