{
  "txid": "eb7092dac401b4574fe51762dda03960e86697abed02544ac5b6e64eb1b4bd2a",
  "version": 2,
  "locktime": 834637,
  "vin": [
    {
      "txid": "804a44a209281028eb22d24206830c24e825a5288dde21d7b107cfa25df3367b",
      "vout": 1,
      "prevout": {
        "scriptpubkey": "001448088e7bc7ae3d6c54a7f17bf2dbbb3606b0d930",
        "scriptpubkey_asm": "OP_0 OP_PUSHBYTES_20 48088e7bc7ae3d6c54a7f17bf2dbbb3606b0d930",
        "scriptpubkey_type": "v0_p2wpkh",
        "scriptpubkey_address": "bc1qfqygu7784c7kc49879al9kamxcrtpkfs6uzwrc",
        "value": 198362399
      },
      "scriptsig": "",
      "scriptsig_asm": "",
      "witness": [
        "30440220130dbc3be486dd62f9cc4c3285216f09737e974272d20ab91cb04754d2db52fe02205ca2d0d22871dba75b93c5af636f4389ffbdf41b035a7cbd05d5ed85e2f1d1e501",
        "035ac78b5a6fadd2a2b09555f129f298148809e696e91993472874151abfff6e7c"
      ],
      "is_coinbase": false,
      "sequence": 4294967293
    }
  ],
  "vout": [
    {
      "scriptpubkey": "00148cc0a163c49bad758b09dd50e34c569055aa54e0",
      "scriptpubkey_asm": "OP_0 OP_PUSHBYTES_20 8cc0a163c49bad758b09dd50e34c569055aa54e0",
      "scriptpubkey_type": "v0_p2wpkh",
      "scriptpubkey_address": "bc1q3nq2zc7ynwkhtzcfm4gwxnzkjp26548qqg4vmd",
      "value": 1500183
    },
    {
      "scriptpubkey": "001415c2098511d3ec0fc994e5dc2c6e6de718a72e20",
      "scriptpubkey_asm": "OP_0 OP_PUSHBYTES_20 15c2098511d3ec0fc994e5dc2c6e6de718a72e20",
      "scriptpubkey_type": "v0_p2wpkh",
      "scriptpubkey_address": "bc1qzhpqnpg360kqljv5uhwzcmnduuv2wt3qqllx5t",
      "value": 196858409
    }
  ],
  "size": 222,
  "weight": 561,
  "fee": 3807,
  "status": {
    "confirmed": true,
    "block_height": 834638,
    "block_hash": "000000000000000000025f742c626208ac87e0b7d15054abb4a19ca2d735a54e",
    "block_time": 1710405325
  },
  "hex": "020000000001017b36f35da2cf07b1d721de8d28a525e8240c830642d222eb28102809a2444a800100000000fdffffff0217e41600000000001600148cc0a163c49bad758b09dd50e34c569055aa54e029d2bb0b0000000016001415c2098511d3ec0fc994e5dc2c6e6de718a72e20024730440220130dbc3be486dd62f9cc4c3285216f09737e974272d20ab91cb04754d2db52fe02205ca2d0d22871dba75b93c5af636f4389ffbdf41b035a7cbd05d5ed85e2f1d1e50121035ac78b5a6fadd2a2b09555f129f298148809e696e91993472874151abfff6e7c4dbc0c00"
}