{
  "txid": "eb9c004efa23db44c0e5bb2f82e72473d1d61bac19490d16a94d2cbd5cffad99",
  "version": 2,
  "locktime": 0,
  "vin": [
    {
      "txid": "0eddf93f24b2d392cda3aed855586f759c118678ab0fdf1339c1a2f0871fef42",
      "vout": 6,
      "prevout": {
        "scriptpubkey": "5120014a68891cfebcd106724b0c1640f432d8a03b7ae040797126301e34558acf0f",
        "scriptpubkey_asm": "OP_PUSHNUM_1 OP_PUSHBYTES_32 014a68891cfebcd106724b0c1640f432d8a03b7ae040797126301e34558acf0f",
        "scriptpubkey_type": "v1_p2tr",
        "scriptpubkey_address": "bc1pq99x3zgul67dzpnjfvxpvs85xtv2qwm6upq8jufxxq0rg4v2eu8sczl7mh",
        "value": 2834
      },
      "scriptsig": "",
      "scriptsig_asm": "",
      "witness": [
        "0cb6646a4c0cf1095433c3f3a70e0fc03ff3a98dd8a6b2a7e57e1581da91f5a304de71872ac3338437c9180e382c469fd6d901d48a2648f119f90544dc7197b2",
        "20331cb23545110c942f601f769d9dbfccca4c17ce6aeeb9838c1594c0748d46abac0063036f726401011e6170706c69636174696f6e2f6a736f6e3b636861727365743d7574662d38004cbf7b2270223a22706f772d3230222c226f70223a226d696e74222c227469636b223a2250455045222c22616d74223a2231303030222c22736f6c7574696f6e223a22504550453a6263317172713238376168727578703271783033726774706379666a327261786e306175667a646a717a3a303030303030303030303030303030303030303139393431613561653132383937363539383134343239323533333030353762306461393666336465613163353a3339383339363633343332227d68",
        "c1f26df831a413724db8123fd1cb518d6560252685500a3c204e36c4bb2a2cc255"
      ],
      "is_coinbase": false,
      "sequence": 4294967295
    }
  ],
  "vout": [
    {
      "scriptpubkey": "001418147f76e3e182a019f11a161c113250fa69bfbc",
      "scriptpubkey_asm": "OP_0 OP_PUSHBYTES_20 18147f76e3e182a019f11a161c113250fa69bfbc",
      "scriptpubkey_type": "v0_p2wpkh",
      "scriptpubkey_address": "bc1qrq287ahruxp2qx03rgtpcyfj2raxn0aufzdjqz",
      "value": 546
    }
  ],
  "size": 455,
  "weight": 701,
  "fee": 2288,
  "status": {
    "confirmed": true,
    "block_height": 834460,
    "block_hash": "00000000000000000000484a79b643b2524bbce82e5d8a442013fa5b8905ed98",
    "block_time": 1710307468
  },
  "hex": "0200000000010142ef1f87f0a2c13913df0fab7886119c756f5855d8aea3cd92d3b2243ff9dd0e0600000000ffffffff01220200000000000016001418147f76e3e182a019f11a161c113250fa69bfbc03400cb6646a4c0cf1095433c3f3a70e0fc03ff3a98dd8a6b2a7e57e1581da91f5a304de71872ac3338437c9180e382c469fd6d901d48a2648f119f90544dc7197b2fd0c0120331cb23545110c942f601f769d9dbfccca4c17ce6aeeb9838c1594c0748d46abac0063036f726401011e6170706c69636174696f6e2f6a736f6e3b636861727365743d7574662d38004cbf7b2270223a22706f772d3230222c226f70223a226d696e74222c227469636b223a2250455045222c22616d74223a2231303030222c22736f6c7574696f6e223a22504550453a6263317172713238376168727578703271783033726774706379666a327261786e306175667a646a717a3a303030303030303030303030303030303030303139393431613561653132383937363539383134343239323533333030353762306461393666336465613163353a3339383339363633343332227d6821c1f26df831a413724db8123fd1cb518d6560252685500a3c204e36c4bb2a2cc25500000000"
}