{
  "txid": "eba5693b48342a6fcd7be9393c343d2ae2841ca22d0bf131fac48eb44aa2e32d",
  "version": 1,
  "locktime": 0,
  "vin": [
    {
      "txid": "8888888889204e3e7549e06d77b4161d5d01aec23ddd86c803717f18f0023c85",
      "vout": 0,
      "prevout": {
        "scriptpubkey": "51203be66ccbad9cb6167a5bac2f65c8d0d615178b648d70a92d9e6eddf4c22a7e6a",
        "scriptpubkey_asm": "OP_PUSHNUM_1 OP_PUSHBYTES_32 3be66ccbad9cb6167a5bac2f65c8d0d615178b648d70a92d9e6eddf4c22a7e6a",
        "scriptpubkey_type": "v1_p2tr",
        "scriptpubkey_address": "bc1p80nxejadnjmpv7jm4shktjxs6c230zmy34c2jtv7dmwlfs320e4qnesw9k",
        "value": 12071
      },
      "scriptsig": "",
      "scriptsig_asm": "",
      "witness": [
        "78a77d7a85ce1450d5ffc1324cf39aa2c464b0db8c409767c0313df58e86809c0e11f8eb1d177bbb84bd0be06dccb3aec94cc737ba1ded51cd88ad28a38374ae",
        "20964ac4b39c9655d5bed1908c028e5b13bdcc67f011169207c5b2bcfd1aaffa8cac00630461746f6d03646d7446a16461726773a46474696d651a65f13381656e6f6e63651a0001000368626974776f726b636b3838383838383838382e386b6d696e745f7469636b657268696e66696e69747968",
        "c1964ac4b39c9655d5bed1908c028e5b13bdcc67f011169207c5b2bcfd1aaffa8c"
      ],
      "is_coinbase": false,
      "sequence": 4294967295
    }
  ],
  "vout": [
    {
      "scriptpubkey": "5120c9778f0f7116a0fa90e759ca54b375f5c38d7db5875a2860af8354d65a8671e2",
      "scriptpubkey_asm": "OP_PUSHNUM_1 OP_PUSHBYTES_32 c9778f0f7116a0fa90e759ca54b375f5c38d7db5875a2860af8354d65a8671e2",
      "scriptpubkey_type": "v1_p2tr",
      "scriptpubkey_address": "bc1pe9mc7rm3z6s04y88t899fvm47hpc6ld4sadzsc90sd2dvk5xw83qeh2mmm",
      "value": 9999
    }
  ],
  "size": 314,
  "weight": 596,
  "fee": 2072,
  "status": {
    "confirmed": true,
    "block_height": 834460,
    "block_hash": "00000000000000000000484a79b643b2524bbce82e5d8a442013fa5b8905ed98",
    "block_time": 1710307468
  },
  "hex": "01000000000101853c02f0187f7103c886dd3dc2ae015d1d16b4776de049753e4e2089888888880000000000ffffffff010f27000000000000225120c9778f0f7116a0fa90e759ca54b375f5c38d7db5875a2860af8354d65a8671e2034078a77d7a85ce1450d5ffc1324cf39aa2c464b0db8c409767c0313df58e86809c0e11f8eb1d177bbb84bd0be06dccb3aec94cc737ba1ded51cd88ad28a38374ae7520964ac4b39c9655d5bed1908c028e5b13bdcc67f011169207c5b2bcfd1aaffa8cac00630461746f6d03646d7446a16461726773a46474696d651a65f13381656e6f6e63651a0001000368626974776f726b636b3838383838383838382e386b6d696e745f7469636b657268696e66696e6974796821c1964ac4b39c9655d5bed1908c028e5b13bdcc67f011169207c5b2bcfd1aaffa8c00000000"
}