{
  "txid": "eba7f466218e028f629e28075aa12a44cec9c473b547ddce58e72f6aef2f139b",
  "version": 2,
  "locktime": 0,
  "vin": [
    {
      "txid": "652cebd30cc43b8301bed1d84aed9a23bf7a746c443ba7930bc970c33e303496",
      "vout": 0,
      "prevout": {
        "scriptpubkey": "5120ad2f454063c07edc0f20890ac09e93c284f3adf33ab068d2de3fb64d82478d37",
        "scriptpubkey_asm": "OP_PUSHNUM_1 OP_PUSHBYTES_32 ad2f454063c07edc0f20890ac09e93c284f3adf33ab068d2de3fb64d82478d37",
        "scriptpubkey_type": "v1_p2tr",
        "scriptpubkey_address": "bc1p45h52srrcpldcreq3y9vp85nc2z08t0n82cx35k787mymqj835mskywupp",
        "value": 546
      },
      "scriptsig": "",
      "scriptsig_asm": "",
      "witness": [
        "a03a1bf4aa5efad0859c8d87753ae5ea4df1f1bd1bfc309974cf9b2c29816ba930f6a16269a67a6628f08cf81b25e07a52a2498441336f2245d3015ed3110af5"
      ],
      "is_coinbase": false,
      "sequence": 2147483649
    },
    {
      "txid": "6208d72b3acb338051ed797b7d7e8b59b2643adc93b65087e53a2be664d92700",
      "vout": 1,
      "prevout": {
        "scriptpubkey": "5120ad2f454063c07edc0f20890ac09e93c284f3adf33ab068d2de3fb64d82478d37",
        "scriptpubkey_asm": "OP_PUSHNUM_1 OP_PUSHBYTES_32 ad2f454063c07edc0f20890ac09e93c284f3adf33ab068d2de3fb64d82478d37",
        "scriptpubkey_type": "v1_p2tr",
        "scriptpubkey_address": "bc1p45h52srrcpldcreq3y9vp85nc2z08t0n82cx35k787mymqj835mskywupp",
        "value": 244978
      },
      "scriptsig": "",
      "scriptsig_asm": "",
      "witness": [
        "aecd8ca2a0b97587cf84430656cef3f274d41623e448515b8129fca0d4dee0667888d5f089c1403628737780172e7bb3784c3ecda14b14891e773ecf1db4b447"
      ],
      "is_coinbase": false,
      "sequence": 2147483649
    }
  ],
  "vout": [
    {
      "scriptpubkey": "51207d4c8111cbf2c8323a9d9f0b121902280b3d1bf1839cf5a642991794a064572f",
      "scriptpubkey_asm": "OP_PUSHNUM_1 OP_PUSHBYTES_32 7d4c8111cbf2c8323a9d9f0b121902280b3d1bf1839cf5a642991794a064572f",
      "scriptpubkey_type": "v1_p2tr",
      "scriptpubkey_address": "bc1p04xgzywt7tyryw5anu93yxgz9q9n6xl3sww0tfjznytefgry2uhssq2fxa",
      "value": 546
    },
    {
      "scriptpubkey": "5120ad2f454063c07edc0f20890ac09e93c284f3adf33ab068d2de3fb64d82478d37",
      "scriptpubkey_asm": "OP_PUSHNUM_1 OP_PUSHBYTES_32 ad2f454063c07edc0f20890ac09e93c284f3adf33ab068d2de3fb64d82478d37",
      "scriptpubkey_type": "v1_p2tr",
      "scriptpubkey_address": "bc1p45h52srrcpldcreq3y9vp85nc2z08t0n82cx35k787mymqj835mskywupp",
      "value": 241391
    }
  ],
  "size": 312,
  "weight": 846,
  "fee": 3587,
  "status": {
    "confirmed": true,
    "block_height": 834638,
    "block_hash": "000000000000000000025f742c626208ac87e0b7d15054abb4a19ca2d735a54e",
    "block_time": 1710405325
  },
  "hex": "020000000001029634303ec370c90b93a73b446c747abf239aed4ad8d1be01833bc40cd3eb2c650000000000010000800027d964e62b3ae58750b693dc3a64b2598b7e7d7b79ed518033cb3a2bd708620100000000010000800222020000000000002251207d4c8111cbf2c8323a9d9f0b121902280b3d1bf1839cf5a642991794a064572fefae030000000000225120ad2f454063c07edc0f20890ac09e93c284f3adf33ab068d2de3fb64d82478d370140a03a1bf4aa5efad0859c8d87753ae5ea4df1f1bd1bfc309974cf9b2c29816ba930f6a16269a67a6628f08cf81b25e07a52a2498441336f2245d3015ed3110af50140aecd8ca2a0b97587cf84430656cef3f274d41623e448515b8129fca0d4dee0667888d5f089c1403628737780172e7bb3784c3ecda14b14891e773ecf1db4b44700000000"
}