{
  "txid": "ebae7fd743805f3d838d84ee13243bec5348d0f43d74cdc54c7440ecacd9e4c7",
  "version": 2,
  "locktime": 0,
  "vin": [
    {
      "txid": "1a516bec4ff0b77e462dbb992276c2ba4e659c0d2a79602ea5bb76a5a4d65454",
      "vout": 3,
      "prevout": {
        "scriptpubkey": "51202d071a3b480cd9b47db94593e4592074b81d5edaec2e007722cfb1058d63912e",
        "scriptpubkey_asm": "OP_PUSHNUM_1 OP_PUSHBYTES_32 2d071a3b480cd9b47db94593e4592074b81d5edaec2e007722cfb1058d63912e",
        "scriptpubkey_type": "v1_p2tr",
        "scriptpubkey_address": "bc1p95r35w6gpnvmgldegkf7gkfqwjup6hk6ashqqaeze7cstrtrjyhqnjkr68",
        "value": 582031
      },
      "scriptsig": "",
      "scriptsig_asm": "",
      "witness": [
        "e89cc97fe80467ecb83e99d686fd151acd2c3cdc512d4dfad2eae5fd2e21af20845343529dd31a59d6d9343f52c97628dff79c2eb85ed884d0f475841cde9748"
      ],
      "is_coinbase": false,
      "sequence": 4294967295
    },
    {
      "txid": "45e384a8d0428fc29a593d692c2d0ac7e01deee373b65d4a29f9d7a09a5cf680",
      "vout": 0,
      "prevout": {
        "scriptpubkey": "001498e44f85d38486b28bfc804c364b854586ab7ac7",
        "scriptpubkey_asm": "OP_0 OP_PUSHBYTES_20 98e44f85d38486b28bfc804c364b854586ab7ac7",
        "scriptpubkey_type": "v0_p2wpkh",
        "scriptpubkey_address": "bc1qnrjylpwnsjrt9zluspxrvju9gkr2k7k8g0rdv9",
        "value": 100000
      },
      "scriptsig": "",
      "scriptsig_asm": "",
      "witness": [
        "304402207f1a2b1e84923ea207d25f5058e24611807773021936363f36c14da67e7a225f0220490e1917b86075207277abe849e209f9bb8780368addc495ceaa9a635ece6e9d83",
        "039265d33e9ff3cda18723b9c3589ab6aba4e749d9efc61b680a0579622c6d8dba"
      ],
      "is_coinbase": false,
      "sequence": 4294967295
    }
  ],
  "vout": [
    {
      "scriptpubkey": "51202d071a3b480cd9b47db94593e4592074b81d5edaec2e007722cfb1058d63912e",
      "scriptpubkey_asm": "OP_PUSHNUM_1 OP_PUSHBYTES_32 2d071a3b480cd9b47db94593e4592074b81d5edaec2e007722cfb1058d63912e",
      "scriptpubkey_type": "v1_p2tr",
      "scriptpubkey_address": "bc1p95r35w6gpnvmgldegkf7gkfqwjup6hk6ashqqaeze7cstrtrjyhqnjkr68",
      "value": 100000
    },
    {
      "scriptpubkey": "001498e44f85d38486b28bfc804c364b854586ab7ac7",
      "scriptpubkey_asm": "OP_0 OP_PUSHBYTES_20 98e44f85d38486b28bfc804c364b854586ab7ac7",
      "scriptpubkey_type": "v0_p2wpkh",
      "scriptpubkey_address": "bc1qnrjylpwnsjrt9zluspxrvju9gkr2k7k8g0rdv9",
      "value": 100899
    },
    {
      "scriptpubkey": "0014e5cb2de82fd4c136218c67a310fde879344c1bef",
      "scriptpubkey_asm": "OP_0 OP_PUSHBYTES_20 e5cb2de82fd4c136218c67a310fde879344c1bef",
      "scriptpubkey_type": "v0_p2wpkh",
      "scriptpubkey_address": "bc1quh9jm6p06nqnvgvvv733pl0g0y6ycxl0aas2t4",
      "value": 2017
    },
    {
      "scriptpubkey": "51202d071a3b480cd9b47db94593e4592074b81d5edaec2e007722cfb1058d63912e",
      "scriptpubkey_asm": "OP_PUSHNUM_1 OP_PUSHBYTES_32 2d071a3b480cd9b47db94593e4592074b81d5edaec2e007722cfb1058d63912e",
      "scriptpubkey_type": "v1_p2tr",
      "scriptpubkey_address": "bc1p95r35w6gpnvmgldegkf7gkfqwjup6hk6ashqqaeze7cstrtrjyhqnjkr68",
      "value": 475471
    }
  ],
  "size": 415,
  "weight": 1135,
  "fee": 3644,
  "status": {
    "confirmed": true,
    "block_height": 834460,
    "block_hash": "00000000000000000000484a79b643b2524bbce82e5d8a442013fa5b8905ed98",
    "block_time": 1710307468
  },
  "hex": "020000000001025454d6a4a576bba52e60792a0d9c654ebac2762299bb2d467eb7f04fec6b511a0300000000ffffffff80f65c9aa0d7f9294a5db673e3ee1de0c70a2d2c693d599ac28f42d0a884e3450000000000ffffffff04a0860100000000002251202d071a3b480cd9b47db94593e4592074b81d5edaec2e007722cfb1058d63912e238a01000000000016001498e44f85d38486b28bfc804c364b854586ab7ac7e107000000000000160014e5cb2de82fd4c136218c67a310fde879344c1bef4f410700000000002251202d071a3b480cd9b47db94593e4592074b81d5edaec2e007722cfb1058d63912e0140e89cc97fe80467ecb83e99d686fd151acd2c3cdc512d4dfad2eae5fd2e21af20845343529dd31a59d6d9343f52c97628dff79c2eb85ed884d0f475841cde97480247304402207f1a2b1e84923ea207d25f5058e24611807773021936363f36c14da67e7a225f0220490e1917b86075207277abe849e209f9bb8780368addc495ceaa9a635ece6e9d8321039265d33e9ff3cda18723b9c3589ab6aba4e749d9efc61b680a0579622c6d8dba00000000"
}