{
  "txid": "ebc4619508fb6428255da96960695c6214bf3764ed388b90e58ab453d65d68c0",
  "version": 2,
  "locktime": 0,
  "vin": [
    {
      "txid": "aba710672677001f78b97f098abf4637164fe51c111de845f58e5b88a2d2610a",
      "vout": 0,
      "prevout": {
        "scriptpubkey": "5120576ba2da90b2c34774422d638529eef3ebcca62f2b0dfcbe2c1fef491e765dee",
        "scriptpubkey_asm": "OP_PUSHNUM_1 OP_PUSHBYTES_32 576ba2da90b2c34774422d638529eef3ebcca62f2b0dfcbe2c1fef491e765dee",
        "scriptpubkey_type": "v1_p2tr",
        "scriptpubkey_address": "bc1p2a469k5sktp5wazz943c220w704uef309vxle03vrlh5j8nkthhq5am3f0",
        "value": 21656
      },
      "scriptsig": "",
      "scriptsig_asm": "",
      "witness": [
        "7ee5f56377f04fd78c3d567abbb2972a55fe9eac96717e6a53ae7310dc838e41bd752706f52627cf2482c676e83373012160ff53e5dff3ef0b0ff7271a8d7dad",
        "20f2d00e1cce0b839d2e197679cac7a15152ec244338032c7767f72c1332d49a65ac0063036f7264010109696d6167652f706e67004d080289504e470d0a1a0a0000000d4948445200000118000001180803000000b05019be000000017352474200aece1ce90000000467414d410000b18f0bfc61050000016e504c5445ff7b00fe8805fbb700f99801fc8e14febc3bffd400ffe000ffde00f9ab08ffa323ffeb64ffe75dfaae2efedd56ffe013fee953ffe329ffe63bffe644ffde0afcc902ec8e24f8ea74fdc745ef6f00ed8a10f7f081f07e10fdea67ef7902f57a07f5d76bef7100f4bb4befa800efa500f8c94eb86d11999114bbaf4a8fa14491a144685314173b1b1c3e1d726c4ceea9a81c531f2357231f552267611e1f401eeea8a5f1aaa7235824525e34c07b728d765f65794a254422916d2a373417601e09b18b56f0cf95efce94f2d196a58b6700000029301bdbbd88f2ba725f1d09dfc18a654a12541a081a1916c3a879f5d4a6e16b0157240a0a04021e0e02d5d2ccf7f6f2fdf0e3ffffffe4e4e42d1702f79247ef9a6ed47b4d943c06eaa3910f200f465235f5e6cd918a64dca799eda7a4702d10ca9653bb9b60b4925ac7954fba9a5fe9c88f3c4e2ebb8e84c8a86d894d34c7a86ee7e8e96579625e1c07edc39aa4690e49521a20431f214b204134146dc77418000000097048597300000ec300000ec301c76fa8640000071349444154785eeddd695f13571cc571c2a65810ab88802d345ab762e20a62509642c18dba405bd42ed48d6a69a9b5a27df79d24676e6e984d08027b32831d921973be0ff3bfc0cc8ff968969bd01251f6f9cde96dde6c3e1b0b7836792156ef2fc72ab7358c138a8bc2100a43280ca13084c2100a43280ca13044ec61de3b60646bc230391cab91bb8c91ad09c3e0506d18d914a608239bc21461645398228c6c0a5384914d618a30b2294c1146368529c2c896ce3063e301639317714a21e2be839773c0c8127f98e1db53ff6e375178125098c01985c2c3001b263657985cf050a6d60a0e6bc1f8f187d9ba70653b1cfbae7286b98f6bb6c27df5e6eb13a621228771fd7ba7300a53a2301e852114865018426188e60be338e37718d99a304ce0a0233f886cba2b46618a148650184261088521148650184261088521148650184261088521148650184261888f274cc45d0c517d2c61464ebe8d660b3b17c2bcc3a1da30b2b996e5a682461f39388ef9e4084ea8ee4603bfa5ba18c58f4faec684c9298c9bc2100a43280ca130442ac2448333aa8251158caa60646b5c98a1fe68ae4f44b3857b66368c6c1b68e1d5c022cfedd180b738ccba1b79b9fe2a4eeb9b6f6e6ef77c26f033d62bf7ea17ee4ffbebeee1a092c00b13afcd3778986314c3045485f1d7298cc214294c89c2100a43280ca13084c2100a43280ca13084c2100a43280ca13084c2100a43280cf1e161a615c663c2e436ae1a97f00cb8a570d7f8c7e8c7c1efa6c687597b8a8f6c187fba86d74c2acefefd83f1dab7fa0807bf4d08029b921006fb81c6bc30b8d1c8d961567d0aa330250ae35118850185211486883bcc770e8fb103c386f3894de2c3e022595d7d8d0bc7b3f80adfa5e265dcfb7c158650184261088521148650184261088521bc30d8611a0f2f4c80170653a32a0c9ec02b3e83871b0d2f8cffb45dbdc3bcf8ebcf58153683d631b3144c988df93f607e23186672c5f8d5a84798cc8daf63f67b102696d9279506d70cdc60c94de0c4c3a4204c247356985a7213c18bc3496108852114865018426188a486998d08cb771006271e26a9616e2d4683e53b08f39b0362d85e2432ccecadb58568e6e7ca5f1135cce5a9e70ef3cf9e6ef73899611617be8966e761f0b640dbf4d5713cec34cefddc7c61f018dda6300a43290ca13084c2100d0c33574bf934182c9a9bbb153d0ccce3c4c3342cccc8f57c0d85bb7832d1e96e01cbf2f9259c789835accfaffd12cdc34685c93ec4213b2dade2e967a795a839fe8765857153184261088521148650184261088521148658c6b37655ae8e9fdbaee9c23cfcc9e1c7c701b16f164f7a98fb38ceba53184261088521148650184261088521b277966b985af9de873797d95616967c0f701e61b07c6969f941248d0bd372afa676e3063e61c1328bbd1d8b8bdf46bd760af882c5c29d9aa6cec26d1c6672b95e7fc26ea0d99dbc7c82af98c1e341620aaf9ea4e033c36bbd30f7012fb8cdb81e3557280ca13084c2100a43a4294d08028cd98a1aa42b86d97198d98fe7bfebeb93b55cc3fdb13013583f59c0e7751113d83e93823097cee3cfd2395cbc7025226f69c9f93cdeee47f8ef0c4c439858ff3ae0c53c5ef72014865018426108852114865018426188a60d733e8f5d0a44fe2c3e9d35f9614e9df92a46674e9fa8e9f42938891f9f5c039fc4eae0de9af6f85af1e393abbe617c0a43280ca13084c2100a43280c91a630dd071c30b339d775636887e975e8c32c4d610ef605f53aca1cc2acca210cad30bd07ba833ec530556170ccb63e5718ccaab8c298abc8a2300a53a6300a53a2301e85a9a6306e994685c9e00092253380a71a4f9c3087df91f1b5b51a8e300358e5ad3b8e55adad8e309dd82febe9320e63b8b7f3b02f518932fb711e968e41dff097c77d8e7503592cb3d739aebbc3c3583698adac33618c3d9dc90f932db34eb8cb19c6171a06eb6a86d9ab30450aa330650aa330250ae351188fc210ee30beb0305866ad236120e561f61ff3750ce13e7f66a8e6ba63669deb11571f16792aeb5af7605a91f830478efabe18c1af7a70c4b1ee73ac3a7af4c8675836987584e935dff0c810960d0ea63e4cf9df86f030e575d9d03058a6301e8529521885299d87c27814c6131a0686c3c2f8c2c2f8d218a6b28be1509b11759d338cd183bf44dcdf9fc67bbe9553aad8b557092c0a53a4300a53a6300a53a2301e85f1280c6185c176caee6ed7aecd3ec7ce4bf7ae4cd84d0cbb0f76fadcbb3631ec44154f52c3f46047427b0feecf56d987a1c5b9ce7c173c85e969c3d6de2a5d1866ba9025b961f6e1a6967db8c1d6dd8ea1c5b5aef25d2a32d65561b461d8d2861b5210a60737d8620fd385a1c26ca3300a53a6300a53a2301e85f1280ca13084c2100a43280ca13084c2100a43280ca130447dc2e053976c5618dc92b0f72b7518e6d4db714315c7413bd7390266f0e6b72ae6a94d6b9aa4302222222222222222222222222222222222222222222222222222223bd3d2f21f7686b89af97536ee0000000049454e44ae426082680063036f726401011e6170706c69636174696f6e2f6a736f6e3b636861727365743d7574662d38004d69017b2270223a22766f7264222c2276223a312c227479223a22696e7363222c22636f6c223a2261643262353365623665333264663466633139386133626262306662663638666637336432666432323832323163313136373630306533316337613163343836222c22696964223a22557073696465646f776e204e6f64654d6f6e6b6573222c227075626c223a2231455337623370636a527a4667796969714c7278484b546e43686535364c4a485937222c226e6f6e6365223a353932312c226d696e746572223a2262633170396e6870633578646563363961397a707a7563396a77773674647579367a70336d716e363477716379786d7474686b7672667a7132673330336e222c22736967223a22484d6f5a6e47703475524162505a5056745347304e397a48493364787a575149316b7376437063506945594745672b306d4f365a485933724e3076354d57454d4554474447457a6a506161356553585a4b384d61444a6b3d227d68",
        "c1f2d00e1cce0b839d2e197679cac7a15152ec244338032c7767f72c1332d49a65675a92934efa5e4869b2432a3e00abfc6819367af43949c2edc693b32d23ac05"
      ],
      "is_coinbase": false,
      "sequence": 4294967293
    }
  ],
  "vout": [
    {
      "scriptpubkey": "51202cee1c50cdce345e944117305939da5b784d0831d827aab81821b6b5decc1a44",
      "scriptpubkey_asm": "OP_PUSHNUM_1 OP_PUSHBYTES_32 2cee1c50cdce345e944117305939da5b784d0831d827aab81821b6b5decc1a44",
      "scriptpubkey_type": "v1_p2tr",
      "scriptpubkey_address": "bc1p9nhpc5xdec69a9zpzuc9jww6tduy6zp3mqn64wqcyxmtthkvrfzq2g303n",
      "value": 1000
    },
    {
      "scriptpubkey": "5120f62171bf126320eed697da59179bb0a31c00c0460a1a69c591c3c0d0f8f5038f",
      "scriptpubkey_asm": "OP_PUSHNUM_1 OP_PUSHBYTES_32 f62171bf126320eed697da59179bb0a31c00c0460a1a69c591c3c0d0f8f5038f",
      "scriptpubkey_type": "v1_p2tr",
      "scriptpubkey_address": "bc1p7cshr0cjvvswa45hmfv30xas5vwqpszxpgdxn3v3c0qdp784qw8szjtge2",
      "value": 7656
    },
    {
      "scriptpubkey": "51200705a5767db892e98125775049b1a13dd9ecdc8aea0df413cabbee683e871012",
      "scriptpubkey_asm": "OP_PUSHNUM_1 OP_PUSHBYTES_32 0705a5767db892e98125775049b1a13dd9ecdc8aea0df413cabbee683e871012",
      "scriptpubkey_type": "v1_p2tr",
      "scriptpubkey_address": "bc1pquz62anahzfwnqf9wagynvdp8hv7ehy2agxlgy72h0hxs058zqfqk8ksyq",
      "value": 3023
    }
  ],
  "size": 3086,
  "weight": 3626,
  "fee": 9977,
  "status": {
    "confirmed": true,
    "block_height": 834464,
    "block_hash": "0000000000000000000177a0869a911a2b65c9bdcd5a8bcb02b68f305bee848e",
    "block_time": 1710308296
  },
  "hex": "020000000001010a61d2a2885b8ef545e81d111ce54f163746bf8a097fb9781f0077266710a7ab0000000000fdffffff03e8030000000000002251202cee1c50cdce345e944117305939da5b784d0831d827aab81821b6b5decc1a44e81d000000000000225120f62171bf126320eed697da59179bb0a31c00c0460a1a69c591c3c0d0f8f5038fcf0b0000000000002251200705a5767db892e98125775049b1a13dd9ecdc8aea0df413cabbee683e87101203407ee5f56377f04fd78c3d567abbb2972a55fe9eac96717e6a53ae7310dc838e41bd752706f52627cf2482c676e83373012160ff53e5dff3ef0b0ff7271a8d7dadfdd10a20f2d00e1cce0b839d2e197679cac7a15152ec244338032c7767f72c1332d49a65ac0063036f7264010109696d6167652f706e67004d080289504e470d0a1a0a0000000d4948445200000118000001180803000000b05019be000000017352474200aece1ce90000000467414d410000b18f0bfc61050000016e504c5445ff7b00fe8805fbb700f99801fc8e14febc3bffd400ffe000ffde00f9ab08ffa323ffeb64ffe75dfaae2efedd56ffe013fee953ffe329ffe63bffe644ffde0afcc902ec8e24f8ea74fdc745ef6f00ed8a10f7f081f07e10fdea67ef7902f57a07f5d76bef7100f4bb4befa800efa500f8c94eb86d11999114bbaf4a8fa14491a144685314173b1b1c3e1d726c4ceea9a81c531f2357231f552267611e1f401eeea8a5f1aaa7235824525e34c07b728d765f65794a254422916d2a373417601e09b18b56f0cf95efce94f2d196a58b6700000029301bdbbd88f2ba725f1d09dfc18a654a12541a081a1916c3a879f5d4a6e16b0157240a0a04021e0e02d5d2ccf7f6f2fdf0e3ffffffe4e4e42d1702f79247ef9a6ed47b4d943c06eaa3910f200f465235f5e6cd918a64dca799eda7a4702d10ca9653bb9b60b4925ac7954fba9a5fe9c88f3c4e2ebb8e84c8a86d894d34c7a86ee7e8e96579625e1c07edc39aa4690e49521a20431f214b204134146dc77418000000097048597300000ec300000ec301c76fa8640000071349444154785eeddd695f13571cc571c2a65810ab88802d345ab762e20a62509642c18dba405bd42ed48d6a69a9b5a27df79d24676e6e984d08027b32831d921973be0ff3bfc0cc8ff968969bd01251f6f9cde96dde6c3e1b0b7836792156ef2fc72ab7358c138a8bc2100a43280ca13084c2100a43280ca13044ec61de3b60646bc230391cab91bb8c91ad09c3e0506d18d914a608239bc21461645398228c6c0a5384914d618a30b2294c1146368529c2c896ce3063e301639317714a21e2be839773c0c8127f98e1db53ff6e375178125098c01985c2c3001b263657985cf050a6d60a0e6bc1f8f187d9ba70653b1cfbae7286b98f6bb6c27df5e6eb13a621228771fd7ba7300a53a2301e852114865018426188e60be338e37718d99a304ce0a0233f886cba2b46618a148650184261088521148650184261088521148650184261088521148650184261888f274cc45d0c517d2c61464ebe8d660b3b17c2bcc3a1da30b2b996e5a682461f39388ef9e4084ea8ee4603bfa5ba18c58f4faec684c9298c9bc2100a43280ca130442ac2448333aa8251158caa60646b5c98a1fe68ae4f44b3857b66368c6c1b68e1d5c022cfedd180b738ccba1b79b9fe2a4eeb9b6f6e6ef77c26f033d62bf7ea17ee4ffbebeee1a092c00b13afcd3778986314c3045485f1d7298cc214294c89c2100a43280ca13084c2100a43280ca13084c2100a43280ca13084c2100a43280cf1e161a615c663c2e436ae1a97f00cb8a570d7f8c7e8c7c1efa6c687597b8a8f6c187fba86d74c2acefefd83f1dab7fa0807bf4d08029b921006fb81c6bc30b8d1c8d961567d0aa330250ae35118850185211486883bcc770e8fb103c386f3894de2c3e022595d7d8d0bc7b3f80adfa5e265dcfb7c158650184261088521148650184261088521bc30d8611a0f2f4c80170653a32a0c9ec02b3e83871b0d2f8cffb45dbdc3bcf8ebcf58153683d631b3144c988df93f607e23186672c5f8d5a84798cc8daf63f67b102696d9279506d70cdc60c94de0c4c3a4204c247356985a7213c18bc3496108852114865018426188a486998d08cb771006271e26a9616e2d4683e53b08f39b0362d85e2432ccecadb58568e6e7ca5f1135cce5a9e70ef3cf9e6ef73899611617be8966e761f0b640dbf4d5713cec34cefddc7c61f018dda6300a43290ca13084c2100d0c33574bf934182c9a9bbb153d0ccce3c4c3342cccc8f57c0d85bb7832d1e96e01cbf2f9259c789835accfaffd12cdc34685c93ec4213b2dade2e967a795a839fe8765857153184261088521148650184261088521148658c6b37655ae8e9fdbaee9c23cfcc9e1c7c701b16f164f7a98fb38ceba53184261088521148650184261088521b277966b985af9de873797d95616967c0f701e61b07c6969f941248d0bd372afa676e3063e61c1328bbd1d8b8bdf46bd760af882c5c29d9aa6cec26d1c6672b95e7fc26ea0d99dbc7c82af98c1e341620aaf9ea4e033c36bbd30f7012fb8cdb81e3557280ca13084c2100a43a4294d08028cd98a1aa42b86d97198d98fe7bfebeb93b55cc3fdb13013583f59c0e7751113d83e93823097cee3cfd2395cbc7025226f69c9f93cdeee47f8ef0c4c439858ff3ae0c53c5ef72014865018426108852114865018426188a60d733e8f5d0a44fe2c3e9d35f9614e9df92a46674e9fa8e9f42938891f9f5c039fc4eae0de9af6f85af1e393abbe617c0a43280ca13084c2100a43280c91a630dd071c30b339d775636887e975e8c32c4d610ef605f53aca1cc2acca210cad30bd07ba833ec530556170ccb63e5718ccaab8c298abc8a2300a53a6300a53a2301e85a9a6306e994685c9e00092253380a71a4f9c3087df91f1b5b51a8e300358e5ad3b8e55adad8e309dd82febe9320e63b8b7f3b02f518932fb711e968e41dff097c77d8e7503592cb3d739aebbc3c3583698adac33618c3d9dc90f932db34eb8cb19c6171a06eb6a86d9ab30450aa330650aa330250ae351188fc210ee30beb0305866ad236120e561f61ff3750ce13e7f66a8e6ba63669deb11571f16792aeb5af7605a91f830478efabe18c1af7a70c4b1ee73ac3a7af4c8675836987584e935dff0c810960d0ea63e4cf9df86f030e575d9d03058a6301e8529521885299d87c27814c6131a0686c3c2f8c2c2f8d218a6b28be1509b11759d338cd183bf44dcdf9fc67bbe9553aad8b557092c0a53a4300a53a6300a53a2301e85f1280c6185c176caee6ed7aecd3ec7ce4bf7ae4cd84d0cbb0f76fadcbb3631ec44154f52c3f46047427b0feecf56d987a1c5b9ce7c173c85e969c3d6de2a5d1866ba9025b961f6e1a6967db8c1d6dd8ea1c5b5aef25d2a32d65561b461d8d2861b5210a60737d8620fd385a1c26ca3300a53a6300a53a2301e85f1280ca13084c2100a43280ca13084c2100a43280ca130447dc2e053976c5618dc92b0f72b7518e6d4db714315c7413bd7390266f0e6b72ae6a94d6b9aa4302222222222222222222222222222222222222222222222222222223bd3d2f21f7686b89af97536ee0000000049454e44ae426082680063036f726401011e6170706c69636174696f6e2f6a736f6e3b636861727365743d7574662d38004d69017b2270223a22766f7264222c2276223a312c227479223a22696e7363222c22636f6c223a2261643262353365623665333264663466633139386133626262306662663638666637336432666432323832323163313136373630306533316337613163343836222c22696964223a22557073696465646f776e204e6f64654d6f6e6b6573222c227075626c223a2231455337623370636a527a4667796969714c7278484b546e43686535364c4a485937222c226e6f6e6365223a353932312c226d696e746572223a2262633170396e6870633578646563363961397a707a7563396a77773674647579367a70336d716e363477716379786d7474686b7672667a7132673330336e222c22736967223a22484d6f5a6e47703475524162505a5056745347304e397a48493364787a575149316b7376437063506945594745672b306d4f365a485933724e3076354d57454d4554474447457a6a506161356553585a4b384d61444a6b3d227d6841c1f2d00e1cce0b839d2e197679cac7a15152ec244338032c7767f72c1332d49a65675a92934efa5e4869b2432a3e00abfc6819367af43949c2edc693b32d23ac0500000000"
}