{
  "txid": "ebcb831312463f4d2661a000367c3e887485003bc9c90673028e8381f0c4eb22",
  "version": 1,
  "locktime": 0,
  "vin": [
    {
      "txid": "57c9a7af660333e451a3b3d246b7cfc1b6739f942e17dc5115fb73d3638c389f",
      "vout": 31,
      "prevout": {
        "scriptpubkey": "0014db7b1bb49480d5e45539f1711239088e36164fe2",
        "scriptpubkey_asm": "OP_0 OP_PUSHBYTES_20 db7b1bb49480d5e45539f1711239088e36164fe2",
        "scriptpubkey_type": "v0_p2wpkh",
        "scriptpubkey_address": "bc1qmda3hdy5sr27g4fe79c3ywgg3cmpvnlznp5cch",
        "value": 231024
      },
      "scriptsig": "",
      "scriptsig_asm": "",
      "witness": [
        "3045022100caf26dc6ffed1c4624518efda78e11c0720bb9d6deda14bf6bf3c85610da940602207e6b15022491ce8452d32a44618cf092153b79a4fce30768412d04f3edd5736d01",
        "02b1c1d90fdecfcf59eff9840dc5c0ca717779b994cc04663534ec8af5758a3b6d"
      ],
      "is_coinbase": false,
      "sequence": 4294967295
    }
  ],
  "vout": [
    {
      "scriptpubkey": "001436409952981676c04e1b3b66ff8ca3842939387d",
      "scriptpubkey_asm": "OP_0 OP_PUSHBYTES_20 36409952981676c04e1b3b66ff8ca3842939387d",
      "scriptpubkey_type": "v0_p2wpkh",
      "scriptpubkey_address": "bc1qxeqfj55czemvqnsm8dn0lr9rss5njwraknsavn",
      "value": 228054
    }
  ],
  "size": 192,
  "weight": 438,
  "fee": 2970,
  "status": {
    "confirmed": true,
    "block_height": 834638,
    "block_hash": "000000000000000000025f742c626208ac87e0b7d15054abb4a19ca2d735a54e",
    "block_time": 1710405325
  },
  "hex": "010000000001019f388c63d373fb1551dc172e949f73b6c1cfb746d2b3a351e4330366afa7c9571f00000000ffffffff01d67a03000000000016001436409952981676c04e1b3b66ff8ca3842939387d02483045022100caf26dc6ffed1c4624518efda78e11c0720bb9d6deda14bf6bf3c85610da940602207e6b15022491ce8452d32a44618cf092153b79a4fce30768412d04f3edd5736d012102b1c1d90fdecfcf59eff9840dc5c0ca717779b994cc04663534ec8af5758a3b6d00000000"
}