{
  "txid": "ebde966b607e1781e6009096cee041690482c3cbf99c775a1eb06fd31c52914b",
  "version": 1,
  "locktime": 0,
  "vin": [
    {
      "txid": "327b93d02df1ada68e8cb0c8dad371714b13ce5a76532eb26c8be0c2a08a1815",
      "vout": 55,
      "prevout": {
        "scriptpubkey": "76a9140b6606325771663d10ca6fcd109a90b5eaea6de988ac",
        "scriptpubkey_asm": "OP_DUP OP_HASH160 OP_PUSHBYTES_20 0b6606325771663d10ca6fcd109a90b5eaea6de9 OP_EQUALVERIFY OP_CHECKSIG",
        "scriptpubkey_type": "p2pkh",
        "scriptpubkey_address": "123Gespbb4aajpP3aN8U218MHS13mcnfZm",
        "value": 128249
      },
      "scriptsig": "47304402202c31662db969bbeb98e3a759583833a85f76de94253d3bcd1e551b38e49bff380220071d7b4a47a6ec28f2fa191aa606c32506bd1c8b0b89482c965870717145cc6b012103dcca5888d13c228273a25f0cf4ae28b058c6a8ae981e84cdfa972e8e9eea68ce",
      "scriptsig_asm": "OP_PUSHBYTES_71 304402202c31662db969bbeb98e3a759583833a85f76de94253d3bcd1e551b38e49bff380220071d7b4a47a6ec28f2fa191aa606c32506bd1c8b0b89482c965870717145cc6b01 OP_PUSHBYTES_33 03dcca5888d13c228273a25f0cf4ae28b058c6a8ae981e84cdfa972e8e9eea68ce",
      "is_coinbase": false,
      "sequence": 4294967295
    }
  ],
  "vout": [
    {
      "scriptpubkey": "0014247d590ac5ecee26c76bac6a5f53c47568debcc8",
      "scriptpubkey_asm": "OP_0 OP_PUSHBYTES_20 247d590ac5ecee26c76bac6a5f53c47568debcc8",
      "scriptpubkey_type": "v0_p2wpkh",
      "scriptpubkey_address": "bc1qy374jzk9anhzd3mt4349757yw45da0xglylw56",
      "value": 125189
    }
  ],
  "size": 188,
  "weight": 752,
  "fee": 3060,
  "status": {
    "confirmed": true,
    "block_height": 834638,
    "block_hash": "000000000000000000025f742c626208ac87e0b7d15054abb4a19ca2d735a54e",
    "block_time": 1710405325
  },
  "hex": "010000000115188aa0c2e08b6cb22e53765ace134b7171d3dac8b08c8ea6adf12dd0937b32370000006a47304402202c31662db969bbeb98e3a759583833a85f76de94253d3bcd1e551b38e49bff380220071d7b4a47a6ec28f2fa191aa606c32506bd1c8b0b89482c965870717145cc6b012103dcca5888d13c228273a25f0cf4ae28b058c6a8ae981e84cdfa972e8e9eea68ceffffffff0105e9010000000000160014247d590ac5ecee26c76bac6a5f53c47568debcc800000000"
}