{
  "txid": "ebe946365a6135afb1904c3ff84fe5094f8d01a003500ff08dc9cd47e0923ee1",
  "version": 2,
  "locktime": 834637,
  "vin": [
    {
      "txid": "6b7069e25d71a496a9793ef1788d2dfaafd0eec1940b7eb2ec4dcc53c48018a1",
      "vout": 1,
      "prevout": {
        "scriptpubkey": "76a9144420db8c0fb7ccaca7d815c073ff5b947a3ec99988ac",
        "scriptpubkey_asm": "OP_DUP OP_HASH160 OP_PUSHBYTES_20 4420db8c0fb7ccaca7d815c073ff5b947a3ec999 OP_EQUALVERIFY OP_CHECKSIG",
        "scriptpubkey_type": "p2pkh",
        "scriptpubkey_address": "17DEK2o7w9Y9x9wS2nkge7a9C6sVp259tz",
        "value": 30159434
      },
      "scriptsig": "47304402204382a5ed93068d5eca45b13be6f89ec7c136a4a54a3da85235990ce1db6166c802201e79deabd51cdb7a5c429007352f1710a3f8db25159e52da0aea770feda8bc350121024bb5ff7a1ae7427cdae8a66afa327799ba89f326cdcb4c8ae1816a8d49c8ba6f",
      "scriptsig_asm": "OP_PUSHBYTES_71 304402204382a5ed93068d5eca45b13be6f89ec7c136a4a54a3da85235990ce1db6166c802201e79deabd51cdb7a5c429007352f1710a3f8db25159e52da0aea770feda8bc3501 OP_PUSHBYTES_33 024bb5ff7a1ae7427cdae8a66afa327799ba89f326cdcb4c8ae1816a8d49c8ba6f",
      "is_coinbase": false,
      "sequence": 4294967294
    }
  ],
  "vout": [
    {
      "scriptpubkey": "76a9144420db8c0fb7ccaca7d815c073ff5b947a3ec99988ac",
      "scriptpubkey_asm": "OP_DUP OP_HASH160 OP_PUSHBYTES_20 4420db8c0fb7ccaca7d815c073ff5b947a3ec999 OP_EQUALVERIFY OP_CHECKSIG",
      "scriptpubkey_type": "p2pkh",
      "scriptpubkey_address": "17DEK2o7w9Y9x9wS2nkge7a9C6sVp259tz",
      "value": 30154826
    },
    {
      "scriptpubkey": "6a146f6d6e69000000000000003a000000012a05f200",
      "scriptpubkey_asm": "OP_RETURN OP_PUSHBYTES_20 6f6d6e69000000000000003a000000012a05f200",
      "scriptpubkey_type": "op_return",
      "value": 0
    },
    {
      "scriptpubkey": "76a914952581eb02ebcc883ca752c1b1f4a63e54fb6f2b88ac",
      "scriptpubkey_asm": "OP_DUP OP_HASH160 OP_PUSHBYTES_20 952581eb02ebcc883ca752c1b1f4a63e54fb6f2b OP_EQUALVERIFY OP_CHECKSIG",
      "scriptpubkey_type": "p2pkh",
      "scriptpubkey_address": "1EbcceeAvwYbwg2WBVzRh7gZWPfi35boEA",
      "value": 546
    }
  ],
  "size": 256,
  "weight": 1024,
  "fee": 4062,
  "status": {
    "confirmed": true,
    "block_height": 834638,
    "block_hash": "000000000000000000025f742c626208ac87e0b7d15054abb4a19ca2d735a54e",
    "block_time": 1710405325
  },
  "hex": "0200000001a11880c453cc4decb27e0b94c1eed0affa2d8d78f13e79a996a4715de269706b010000006a47304402204382a5ed93068d5eca45b13be6f89ec7c136a4a54a3da85235990ce1db6166c802201e79deabd51cdb7a5c429007352f1710a3f8db25159e52da0aea770feda8bc350121024bb5ff7a1ae7427cdae8a66afa327799ba89f326cdcb4c8ae1816a8d49c8ba6ffeffffff034a20cc01000000001976a9144420db8c0fb7ccaca7d815c073ff5b947a3ec99988ac0000000000000000166a146f6d6e69000000000000003a000000012a05f20022020000000000001976a914952581eb02ebcc883ca752c1b1f4a63e54fb6f2b88ac4dbc0c00"
}