{
  "txid": "ec033859d8eefd57e5cde2422d604c50bd33b07973d899f20a228ecfa6f62725",
  "version": 2,
  "locktime": 0,
  "vin": [
    {
      "txid": "b449021edb705ed01a87c9f8cc351776504f79181803f0749cb518eb487c084d",
      "vout": 1,
      "prevout": {
        "scriptpubkey": "00140bc840b42d0e20d39ea127a75d72f7f533ed20f2",
        "scriptpubkey_asm": "OP_0 OP_PUSHBYTES_20 0bc840b42d0e20d39ea127a75d72f7f533ed20f2",
        "scriptpubkey_type": "v0_p2wpkh",
        "scriptpubkey_address": "bc1qp0yypdpdpcsd884py7n46uhh75e76g8j07pmj4",
        "value": 154379
      },
      "scriptsig": "",
      "scriptsig_asm": "",
      "witness": [
        "3044022059e478d180b5714cd6055720fa06013f54e6284b8e26128b88383f6fac49368c0220679e3e63e25b54d7d985b6b8fbcc1529a8a9e62fd1063cb2fe6e7738a64dd99701",
        "02503bb6f721065da215aa905aece1bda8e41614d0900c916cc738671c9145a392"
      ],
      "is_coinbase": false,
      "sequence": 4294967295
    }
  ],
  "vout": [
    {
      "scriptpubkey": "001427b369df7aeb8d87f34db8d8f4a9bda65b9495a7",
      "scriptpubkey_asm": "OP_0 OP_PUSHBYTES_20 27b369df7aeb8d87f34db8d8f4a9bda65b9495a7",
      "scriptpubkey_type": "v0_p2wpkh",
      "scriptpubkey_address": "bc1qy7eknhm6awxc0u6dhrv0f2da5edef9d8yecagq",
      "value": 8000
    },
    {
      "scriptpubkey": "001409468d27c3db96eabbee9055c11046bfae039516",
      "scriptpubkey_asm": "OP_0 OP_PUSHBYTES_20 09468d27c3db96eabbee9055c11046bfae039516",
      "scriptpubkey_type": "v0_p2wpkh",
      "scriptpubkey_address": "bc1qp9rg6f7rmwtw4wlwjp2uzyzxh7hq89gkjgk9gj",
      "value": 144555
    }
  ],
  "size": 222,
  "weight": 561,
  "fee": 1824,
  "status": {
    "confirmed": true,
    "block_height": 834460,
    "block_hash": "00000000000000000000484a79b643b2524bbce82e5d8a442013fa5b8905ed98",
    "block_time": 1710307468
  },
  "hex": "020000000001014d087c48eb18b59c74f0031818794f50761735ccf8c9871ad05e70db1e0249b40100000000ffffffff02401f00000000000016001427b369df7aeb8d87f34db8d8f4a9bda65b9495a7ab3402000000000016001409468d27c3db96eabbee9055c11046bfae03951602473044022059e478d180b5714cd6055720fa06013f54e6284b8e26128b88383f6fac49368c0220679e3e63e25b54d7d985b6b8fbcc1529a8a9e62fd1063cb2fe6e7738a64dd997012102503bb6f721065da215aa905aece1bda8e41614d0900c916cc738671c9145a39200000000"
}