{
  "txid": "ec15cc1674e7a9d565d941132971ac7db252f684fb4fd4066427444a01fda5ec",
  "version": 1,
  "locktime": 0,
  "vin": [
    {
      "txid": "b395584b66fe00a83e5d85d4e25f5a2f16963b4e812d4539ef4b5071529880a5",
      "vout": 318,
      "prevout": {
        "scriptpubkey": "00147c5a799f179bfc18ca41c100927f1f52d77c20a5",
        "scriptpubkey_asm": "OP_0 OP_PUSHBYTES_20 7c5a799f179bfc18ca41c100927f1f52d77c20a5",
        "scriptpubkey_type": "v0_p2wpkh",
        "scriptpubkey_address": "bc1q03d8n8chn07p3jjpcyqfylcl2tthcg99nd5u3s",
        "value": 1228470
      },
      "scriptsig": "",
      "scriptsig_asm": "",
      "witness": [
        "30440220039a4570983d49635b53ca66e564efab4d99921b79437cee5b03c35d9070af46022064d74cb7426067053423c4af0a7d85c32974599f9cccd1cebaaffd3338afe89c01",
        "03fa11f82adc7d33e72d8b44e367ebd6b9359a39889fdbb0f4845d94de571ce397"
      ],
      "is_coinbase": false,
      "sequence": 4294967295
    }
  ],
  "vout": [
    {
      "scriptpubkey": "001488c78e1a83a51623a8140d2a92359281b9e4fc0e",
      "scriptpubkey_asm": "OP_0 OP_PUSHBYTES_20 88c78e1a83a51623a8140d2a92359281b9e4fc0e",
      "scriptpubkey_type": "v0_p2wpkh",
      "scriptpubkey_address": "bc1q3rrcux5r55tz82q5p54fydvjsxu7flqwyczs9d",
      "value": 1226805
    }
  ],
  "size": 191,
  "weight": 437,
  "fee": 1665,
  "status": {
    "confirmed": true,
    "block_height": 834638,
    "block_hash": "000000000000000000025f742c626208ac87e0b7d15054abb4a19ca2d735a54e",
    "block_time": 1710405325
  },
  "hex": "01000000000101a580985271504bef39452d814e3b96162f5a5fe2d4855d3ea800fe664b5895b33e01000000ffffffff0135b812000000000016001488c78e1a83a51623a8140d2a92359281b9e4fc0e024730440220039a4570983d49635b53ca66e564efab4d99921b79437cee5b03c35d9070af46022064d74cb7426067053423c4af0a7d85c32974599f9cccd1cebaaffd3338afe89c012103fa11f82adc7d33e72d8b44e367ebd6b9359a39889fdbb0f4845d94de571ce39700000000"
}