{
  "txid": "ec18981430b410417f6ab2b0550daa0a2e24ad9a2c23f80003638a1d16592ee5",
  "version": 2,
  "locktime": 0,
  "vin": [
    {
      "txid": "acc3ba00869acb582a3f2904ce3a11dd3779350ce234063fc7d0959246213364",
      "vout": 98,
      "prevout": {
        "scriptpubkey": "51201ec54c90aafae0afa72ea8f4cd439d09b25777378869e6a0245d6a277e65cc5d",
        "scriptpubkey_asm": "OP_PUSHNUM_1 OP_PUSHBYTES_32 1ec54c90aafae0afa72ea8f4cd439d09b25777378869e6a0245d6a277e65cc5d",
        "scriptpubkey_type": "v1_p2tr",
        "scriptpubkey_address": "bc1prmz5ey92lts2lfew4r6v6suapxe9waeh3p57dgpyt44zwln9e3wsj3ja5r",
        "value": 1806
      },
      "scriptsig": "",
      "scriptsig_asm": "",
      "witness": [
        "a1f19c2a5c6ce2f4dc818b4ea7c37adfa6ce7873fe790b0b2537f83119f4acdbc41bcb5e88f386e588249484c770fd4859185c90ecc9c6e9c66be6bb2ac60b28",
        "2030349da3c679ccd090b8580b2401b3bb2d8f1aecb9254ebc801207089c1e87caac0063036f726401010a746578742f706c61696e00357b2270223a226272632d3230222c226f70223a226d696e74222c227469636b223a22646f6765222c22616d74223a2234323030227d68",
        "c030349da3c679ccd090b8580b2401b3bb2d8f1aecb9254ebc801207089c1e87ca"
      ],
      "is_coinbase": false,
      "sequence": 4261412863
    }
  ],
  "vout": [
    {
      "scriptpubkey": "00147a665de7a370f4c9b372ab1fae587500a5bcbdb4",
      "scriptpubkey_asm": "OP_0 OP_PUSHBYTES_20 7a665de7a370f4c9b372ab1fae587500a5bcbdb4",
      "scriptpubkey_type": "v0_p2wpkh",
      "scriptpubkey_address": "bc1q0fn9mearwr6vnvmj4v06ukr4qzjme0d565dzcx",
      "value": 294
    }
  ],
  "size": 294,
  "weight": 540,
  "fee": 1512,
  "status": {
    "confirmed": true,
    "block_height": 834460,
    "block_hash": "00000000000000000000484a79b643b2524bbce82e5d8a442013fa5b8905ed98",
    "block_time": 1710307468
  },
  "hex": "02000000000101643321469295d0c73f0634e20c357937dd113ace04293f2a58cb9a8600bac3ac6200000000fffffffd0126010000000000001600147a665de7a370f4c9b372ab1fae587500a5bcbdb40340a1f19c2a5c6ce2f4dc818b4ea7c37adfa6ce7873fe790b0b2537f83119f4acdbc41bcb5e88f386e588249484c770fd4859185c90ecc9c6e9c66be6bb2ac60b286d2030349da3c679ccd090b8580b2401b3bb2d8f1aecb9254ebc801207089c1e87caac0063036f726401010a746578742f706c61696e00357b2270223a226272632d3230222c226f70223a226d696e74222c227469636b223a22646f6765222c22616d74223a2234323030227d6821c030349da3c679ccd090b8580b2401b3bb2d8f1aecb9254ebc801207089c1e87ca00000000"
}