{
  "txid": "ec24d9a807416ea69bdf6103e8c003aad17c35784b1b2b2f82272c10a01382cf",
  "version": 2,
  "locktime": 0,
  "vin": [
    {
      "txid": "42c943a3ea687add974e2a7d6718d762cc3df21fc857196890b6a17724ca443f",
      "vout": 0,
      "prevout": {
        "scriptpubkey": "001437345e9aa7fda0bbe661f20a4edfa9c1bed2a8be",
        "scriptpubkey_asm": "OP_0 OP_PUSHBYTES_20 37345e9aa7fda0bbe661f20a4edfa9c1bed2a8be",
        "scriptpubkey_type": "v0_p2wpkh",
        "scriptpubkey_address": "bc1qxu69ax48lksthenp7g9yahafcxld92975j3ws0",
        "value": 99690
      },
      "scriptsig": "",
      "scriptsig_asm": "",
      "witness": [
        "3045022100b7068c4f9e9530d0762709262249fe1d45ff65914d1da53014f1c94afe1b3f3d022062c1a1cdf10cf08868d6a577e51d2cf6bdb596825adde271fd8d927a51daf00b01",
        "03f3dd32a3ee0a003b67d2a9301ce8c22f0f1e61d34ced7c744bd7f3a49606ba10"
      ],
      "is_coinbase": false,
      "sequence": 4294967295
    },
    {
      "txid": "2b334ca377d8fb8fab632cece9a69a084f57190205d47673beacaed23d0a1390",
      "vout": 0,
      "prevout": {
        "scriptpubkey": "001437345e9aa7fda0bbe661f20a4edfa9c1bed2a8be",
        "scriptpubkey_asm": "OP_0 OP_PUSHBYTES_20 37345e9aa7fda0bbe661f20a4edfa9c1bed2a8be",
        "scriptpubkey_type": "v0_p2wpkh",
        "scriptpubkey_address": "bc1qxu69ax48lksthenp7g9yahafcxld92975j3ws0",
        "value": 22122
      },
      "scriptsig": "",
      "scriptsig_asm": "",
      "witness": [
        "304402206a3ad89c3b9225be5b616f138599943a7526f9d33de102ca6741a19091d78d7502204674718fa506b84f1bf3c2665172eb79efbefcffcfc105b91755a30a0269c94d01",
        "03f3dd32a3ee0a003b67d2a9301ce8c22f0f1e61d34ced7c744bd7f3a49606ba10"
      ],
      "is_coinbase": false,
      "sequence": 4294967295
    },
    {
      "txid": "1cd5a1bdd8fbfa56058c6cbdc1db270ea6d658f5b9fa107b44b45991305fffc4",
      "vout": 0,
      "prevout": {
        "scriptpubkey": "001437345e9aa7fda0bbe661f20a4edfa9c1bed2a8be",
        "scriptpubkey_asm": "OP_0 OP_PUSHBYTES_20 37345e9aa7fda0bbe661f20a4edfa9c1bed2a8be",
        "scriptpubkey_type": "v0_p2wpkh",
        "scriptpubkey_address": "bc1qxu69ax48lksthenp7g9yahafcxld92975j3ws0",
        "value": 270000
      },
      "scriptsig": "",
      "scriptsig_asm": "",
      "witness": [
        "3045022100d70caaa2a718fbf0cb6482530ad5db70efc099a4418ee2797c811f14e67b553002207e66a4448df1d619d1ebd6cc2f6799357492658e594f25255fc880a6c714406401",
        "03f3dd32a3ee0a003b67d2a9301ce8c22f0f1e61d34ced7c744bd7f3a49606ba10"
      ],
      "is_coinbase": false,
      "sequence": 4294967295
    },
    {
      "txid": "e555b0e85a462d2da098e4dc2b4d457f760b251dea53b74bac495ca0d68d5585",
      "vout": 0,
      "prevout": {
        "scriptpubkey": "001437345e9aa7fda0bbe661f20a4edfa9c1bed2a8be",
        "scriptpubkey_asm": "OP_0 OP_PUSHBYTES_20 37345e9aa7fda0bbe661f20a4edfa9c1bed2a8be",
        "scriptpubkey_type": "v0_p2wpkh",
        "scriptpubkey_address": "bc1qxu69ax48lksthenp7g9yahafcxld92975j3ws0",
        "value": 503600
      },
      "scriptsig": "",
      "scriptsig_asm": "",
      "witness": [
        "3045022100810899eff68ba0d5c43ef1c0e1a6028f0334a5f1d9d6c9be376d91565e5213d3022055d9491c51315a74af1291d38bc35907b3762956deac69c40432e5db3ac0317301",
        "03f3dd32a3ee0a003b67d2a9301ce8c22f0f1e61d34ced7c744bd7f3a49606ba10"
      ],
      "is_coinbase": false,
      "sequence": 4294967295
    },
    {
      "txid": "08d1b97d2eec2c6214067c7a52494548f767120698882dd063b9077bce6439a6",
      "vout": 0,
      "prevout": {
        "scriptpubkey": "001437345e9aa7fda0bbe661f20a4edfa9c1bed2a8be",
        "scriptpubkey_asm": "OP_0 OP_PUSHBYTES_20 37345e9aa7fda0bbe661f20a4edfa9c1bed2a8be",
        "scriptpubkey_type": "v0_p2wpkh",
        "scriptpubkey_address": "bc1qxu69ax48lksthenp7g9yahafcxld92975j3ws0",
        "value": 52477
      },
      "scriptsig": "",
      "scriptsig_asm": "",
      "witness": [
        "304402200d0502187e3dc919d6356a1ba858b8130c59804f0d8e293bd3caa2bd23151eaf022045625f6e9403797310f9049ac32fdb538ad0a38980011fbc4e17c98520be183101",
        "03f3dd32a3ee0a003b67d2a9301ce8c22f0f1e61d34ced7c744bd7f3a49606ba10"
      ],
      "is_coinbase": false,
      "sequence": 4294967295
    },
    {
      "txid": "fc56af8888d731edd0d90223311fc23e656056e97f4665a37bff9543df21f69d",
      "vout": 0,
      "prevout": {
        "scriptpubkey": "001437345e9aa7fda0bbe661f20a4edfa9c1bed2a8be",
        "scriptpubkey_asm": "OP_0 OP_PUSHBYTES_20 37345e9aa7fda0bbe661f20a4edfa9c1bed2a8be",
        "scriptpubkey_type": "v0_p2wpkh",
        "scriptpubkey_address": "bc1qxu69ax48lksthenp7g9yahafcxld92975j3ws0",
        "value": 49000
      },
      "scriptsig": "",
      "scriptsig_asm": "",
      "witness": [
        "30450221009cf582cafe7132886d0294b47684f9dff93e1e4f9b95c592945b59faebb8dd64022041344feb2a5cd686a4e9e15967a2af5eb2feac255586b299130e2446903f105f01",
        "03f3dd32a3ee0a003b67d2a9301ce8c22f0f1e61d34ced7c744bd7f3a49606ba10"
      ],
      "is_coinbase": false,
      "sequence": 4294967295
    }
  ],
  "vout": [
    {
      "scriptpubkey": "00146f28ea5540a21348e9e1eb6ff6fef99da9841466",
      "scriptpubkey_asm": "OP_0 OP_PUSHBYTES_20 6f28ea5540a21348e9e1eb6ff6fef99da9841466",
      "scriptpubkey_type": "v0_p2wpkh",
      "scriptpubkey_address": "bc1qdu5w542q5gf5360padhldlhenk5cg9rxn2v9zp",
      "value": 498760
    },
    {
      "scriptpubkey": "001437345e9aa7fda0bbe661f20a4edfa9c1bed2a8be",
      "scriptpubkey_asm": "OP_0 OP_PUSHBYTES_20 37345e9aa7fda0bbe661f20a4edfa9c1bed2a8be",
      "scriptpubkey_type": "v0_p2wpkh",
      "scriptpubkey_address": "bc1qxu69ax48lksthenp7g9yahafcxld92975j3ws0",
      "value": 487236
    }
  ],
  "size": 966,
  "weight": 1920,
  "fee": 10893,
  "status": {
    "confirmed": true,
    "block_height": 834460,
    "block_hash": "00000000000000000000484a79b643b2524bbce82e5d8a442013fa5b8905ed98",
    "block_time": 1710307468
  },
  "hex": "020000000001063f44ca2477a1b690681957c81ff23dcc62d718677d2a4e97dd7a68eaa343c9420000000000ffffffff90130a3dd2aeacbe7376d4050219574f089aa6e9ec2c63ab8ffbd877a34c332b0000000000ffffffffc4ff5f309159b4447b10fab9f558d6a60e27dbc1bd6c8c0556fafbd8bda1d51c0000000000ffffffff85558dd6a05c49ac4bb753ea1d250b767f454d2bdce498a02d2d465ae8b055e50000000000ffffffffa63964ce7b07b963d02d8898061267f7484549527a7c0614622cec2e7db9d1080000000000ffffffff9df621df4395ff7ba365467fe95660653ec21f312302d9d0ed31d78888af56fc0000000000ffffffff02489c0700000000001600146f28ea5540a21348e9e1eb6ff6fef99da9841466446f07000000000016001437345e9aa7fda0bbe661f20a4edfa9c1bed2a8be02483045022100b7068c4f9e9530d0762709262249fe1d45ff65914d1da53014f1c94afe1b3f3d022062c1a1cdf10cf08868d6a577e51d2cf6bdb596825adde271fd8d927a51daf00b012103f3dd32a3ee0a003b67d2a9301ce8c22f0f1e61d34ced7c744bd7f3a49606ba100247304402206a3ad89c3b9225be5b616f138599943a7526f9d33de102ca6741a19091d78d7502204674718fa506b84f1bf3c2665172eb79efbefcffcfc105b91755a30a0269c94d012103f3dd32a3ee0a003b67d2a9301ce8c22f0f1e61d34ced7c744bd7f3a49606ba1002483045022100d70caaa2a718fbf0cb6482530ad5db70efc099a4418ee2797c811f14e67b553002207e66a4448df1d619d1ebd6cc2f6799357492658e594f25255fc880a6c7144064012103f3dd32a3ee0a003b67d2a9301ce8c22f0f1e61d34ced7c744bd7f3a49606ba1002483045022100810899eff68ba0d5c43ef1c0e1a6028f0334a5f1d9d6c9be376d91565e5213d3022055d9491c51315a74af1291d38bc35907b3762956deac69c40432e5db3ac03173012103f3dd32a3ee0a003b67d2a9301ce8c22f0f1e61d34ced7c744bd7f3a49606ba100247304402200d0502187e3dc919d6356a1ba858b8130c59804f0d8e293bd3caa2bd23151eaf022045625f6e9403797310f9049ac32fdb538ad0a38980011fbc4e17c98520be1831012103f3dd32a3ee0a003b67d2a9301ce8c22f0f1e61d34ced7c744bd7f3a49606ba10024830450221009cf582cafe7132886d0294b47684f9dff93e1e4f9b95c592945b59faebb8dd64022041344feb2a5cd686a4e9e15967a2af5eb2feac255586b299130e2446903f105f012103f3dd32a3ee0a003b67d2a9301ce8c22f0f1e61d34ced7c744bd7f3a49606ba1000000000"
}