{
  "txid": "ec36f3792241887786a9bfbe8980870436d88ad76a64bf40b67a08ec36076153",
  "version": 2,
  "locktime": 834462,
  "vin": [
    {
      "txid": "ca4250a3ce0a5803f658ac0756da398ae956f68073399d7abc9d3192fafd83d4",
      "vout": 1,
      "prevout": {
        "scriptpubkey": "0014c582f86a7f68716f0b68cd5f509ac60e26904b4d",
        "scriptpubkey_asm": "OP_0 OP_PUSHBYTES_20 c582f86a7f68716f0b68cd5f509ac60e26904b4d",
        "scriptpubkey_type": "v0_p2wpkh",
        "scriptpubkey_address": "bc1qckp0s6nldpck7zmge404pxkxpcnfqj6d8sgejq",
        "value": 3386400
      },
      "scriptsig": "",
      "scriptsig_asm": "",
      "witness": [
        "304402203f73bc779f3915eaebc4eaf448b39271566e6b90b80147254765179ca71d5b7502202962d8eb1b9c7c874175ba5fd9052d79a7d826d3273c9a2b2f5caa34b0264a0b01",
        "0331d962cd89cb4dc269316afdeae2f02cea57549b62a7f4e65334f8a5afdefb03"
      ],
      "is_coinbase": false,
      "sequence": 4294967293
    }
  ],
  "vout": [
    {
      "scriptpubkey": "0014b3567edbbab3c0272bb2fd84f9873fb647e3926a",
      "scriptpubkey_asm": "OP_0 OP_PUSHBYTES_20 b3567edbbab3c0272bb2fd84f9873fb647e3926a",
      "scriptpubkey_type": "v0_p2wpkh",
      "scriptpubkey_address": "bc1qkdt8aka6k0qzw2ajlkz0npelker78yn2d6aedk",
      "value": 992000
    },
    {
      "scriptpubkey": "00146f742fa4c7fb1434fe7c631849046b0d3592ff0e",
      "scriptpubkey_asm": "OP_0 OP_PUSHBYTES_20 6f742fa4c7fb1434fe7c631849046b0d3592ff0e",
      "scriptpubkey_type": "v0_p2wpkh",
      "scriptpubkey_address": "bc1qda6zlfx8lv2rflnuvvvyjprtp56e9lcwsu83re",
      "value": 2390500
    }
  ],
  "size": 222,
  "weight": 561,
  "fee": 3900,
  "status": {
    "confirmed": true,
    "block_height": 834464,
    "block_hash": "0000000000000000000177a0869a911a2b65c9bdcd5a8bcb02b68f305bee848e",
    "block_time": 1710308296
  },
  "hex": "02000000000101d483fdfa92319dbc7a9d397380f656e98a39da5607ac58f603580acea35042ca0100000000fdffffff0200230f0000000000160014b3567edbbab3c0272bb2fd84f9873fb647e3926ae4792400000000001600146f742fa4c7fb1434fe7c631849046b0d3592ff0e0247304402203f73bc779f3915eaebc4eaf448b39271566e6b90b80147254765179ca71d5b7502202962d8eb1b9c7c874175ba5fd9052d79a7d826d3273c9a2b2f5caa34b0264a0b01210331d962cd89cb4dc269316afdeae2f02cea57549b62a7f4e65334f8a5afdefb039ebb0c00"
}