{
  "txid": "ec379d256b8492c14ba9156bc64a31826f3f4c680f4d9dcf1b14b590fd272abe",
  "version": 1,
  "locktime": 0,
  "vin": [
    {
      "txid": "6e45447413d4587e1d635532f419ceca6eb49b5b6e85b68aeaef4acb68ca6c11",
      "vout": 3,
      "prevout": {
        "scriptpubkey": "00140003488558fc3dd0675ea6aa062bff4b1926adc3",
        "scriptpubkey_asm": "OP_0 OP_PUSHBYTES_20 0003488558fc3dd0675ea6aa062bff4b1926adc3",
        "scriptpubkey_type": "v0_p2wpkh",
        "scriptpubkey_address": "bc1qqqp53p2cls7aqe67564qv2llfvvjdtwrqu3jnu",
        "value": 24762863
      },
      "scriptsig": "",
      "scriptsig_asm": "",
      "witness": [
        "3045022100e0fdc26691ff7cf893dac9cee8c4abe55a9b7ba7d90cb321a5c49e59cd996f7e02201e8cb0a122c5e172d7c179c9ffcf8574cb3b1e643082310cef92c128378a9d1b01",
        "03207338e3fa7caed2385b71a2851eca022360acb7b889dd51f06be269924d7d92"
      ],
      "is_coinbase": false,
      "sequence": 4294967295
    }
  ],
  "vout": [
    {
      "scriptpubkey": "0014fec7852ce984849823ba439f8f7fc8f1ab3dc1f4",
      "scriptpubkey_asm": "OP_0 OP_PUSHBYTES_20 fec7852ce984849823ba439f8f7fc8f1ab3dc1f4",
      "scriptpubkey_type": "v0_p2wpkh",
      "scriptpubkey_address": "bc1qlmrc2t8fsjzfsga6gw0c7l7g7x4nms05d9yprm",
      "value": 124821
    },
    {
      "scriptpubkey": "76a9144c38e5a0ac2f30d00078e7e7e9754d3eb3e21ddb88ac",
      "scriptpubkey_asm": "OP_DUP OP_HASH160 OP_PUSHBYTES_20 4c38e5a0ac2f30d00078e7e7e9754d3eb3e21ddb OP_EQUALVERIFY OP_CHECKSIG",
      "scriptpubkey_type": "p2pkh",
      "scriptpubkey_address": "17x2WrM4TkRxKe2mAhRRJ61p6AP75E27Fd",
      "value": 136180
    },
    {
      "scriptpubkey": "76a91498ef8e69d8ce5d025e8e52cfbc2be3cdadf0bd0588ac",
      "scriptpubkey_asm": "OP_DUP OP_HASH160 OP_PUSHBYTES_20 98ef8e69d8ce5d025e8e52cfbc2be3cdadf0bd05 OP_EQUALVERIFY OP_CHECKSIG",
      "scriptpubkey_type": "p2pkh",
      "scriptpubkey_address": "1Ewegpfy9aUZoUv39it9he7de6aHwLFUtk",
      "value": 637055
    },
    {
      "scriptpubkey": "a9140647fbe1686495e964b60b92fb2a095a83d74e0187",
      "scriptpubkey_asm": "OP_HASH160 OP_PUSHBYTES_20 0647fbe1686495e964b60b92fb2a095a83d74e01 OP_EQUAL",
      "scriptpubkey_type": "p2sh",
      "scriptpubkey_address": "32GEDDy18hQ1MaPnjoZXjcMTGTjNYVeMVn",
      "value": 285392
    },
    {
      "scriptpubkey": "0014825191d488c89fbe7be29959086c7e8372ae0d49",
      "scriptpubkey_asm": "OP_0 OP_PUSHBYTES_20 825191d488c89fbe7be29959086c7e8372ae0d49",
      "scriptpubkey_type": "v0_p2wpkh",
      "scriptpubkey_address": "bc1qsfger4ygez0mu7lzn9vssmr7sde2ur2fqtgkvk",
      "value": 2542003
    },
    {
      "scriptpubkey": "00146f65800527177975f804912e29d52ca67f66de4f",
      "scriptpubkey_asm": "OP_0 OP_PUSHBYTES_20 6f65800527177975f804912e29d52ca67f66de4f",
      "scriptpubkey_type": "v0_p2wpkh",
      "scriptpubkey_address": "bc1qdajcqpf8zauht7qyjyhzn4fv5elkdhj046h63p",
      "value": 240968
    },
    {
      "scriptpubkey": "00140003488558fc3dd0675ea6aa062bff4b1926adc3",
      "scriptpubkey_asm": "OP_0 OP_PUSHBYTES_20 0003488558fc3dd0675ea6aa062bff4b1926adc3",
      "scriptpubkey_type": "v0_p2wpkh",
      "scriptpubkey_address": "bc1qqqp53p2cls7aqe67564qv2llfvvjdtwrqu3jnu",
      "value": 20791354
    }
  ],
  "size": 385,
  "weight": 1210,
  "fee": 5090,
  "status": {
    "confirmed": true,
    "block_height": 834638,
    "block_hash": "000000000000000000025f742c626208ac87e0b7d15054abb4a19ca2d735a54e",
    "block_time": 1710405325
  },
  "hex": "01000000000101116cca68cb4aefea8ab6856e5b9bb46ecace19f43255631d7e58d4137444456e0300000000ffffffff0795e7010000000000160014fec7852ce984849823ba439f8f7fc8f1ab3dc1f4f4130200000000001976a9144c38e5a0ac2f30d00078e7e7e9754d3eb3e21ddb88ac7fb80900000000001976a91498ef8e69d8ce5d025e8e52cfbc2be3cdadf0bd0588acd05a04000000000017a9140647fbe1686495e964b60b92fb2a095a83d74e0187b3c9260000000000160014825191d488c89fbe7be29959086c7e8372ae0d4948ad0300000000001600146f65800527177975f804912e29d52ca67f66de4f3a403d01000000001600140003488558fc3dd0675ea6aa062bff4b1926adc302483045022100e0fdc26691ff7cf893dac9cee8c4abe55a9b7ba7d90cb321a5c49e59cd996f7e02201e8cb0a122c5e172d7c179c9ffcf8574cb3b1e643082310cef92c128378a9d1b012103207338e3fa7caed2385b71a2851eca022360acb7b889dd51f06be269924d7d9200000000"
}