{
  "txid": "ec4552c85106e0284254b8b8e62ca7a8c07a415cd868df056ff3c7dc3b76c802",
  "version": 1,
  "locktime": 0,
  "vin": [
    {
      "txid": "683428a09fa939561f1b005e485fede93c5a2edffc75d507b8951134c02e8b07",
      "vout": 22,
      "prevout": {
        "scriptpubkey": "512097239c64a5e1dae69dadca2567b491830fac72a24e786073f43b86e7b9afb043",
        "scriptpubkey_asm": "OP_PUSHNUM_1 OP_PUSHBYTES_32 97239c64a5e1dae69dadca2567b491830fac72a24e786073f43b86e7b9afb043",
        "scriptpubkey_type": "v1_p2tr",
        "scriptpubkey_address": "bc1pju3ece99u8dwd8ddegjk0dy3sv86cu4zfeuxqul58wrw0wd0kppsx9ha4u",
        "value": 70792239
      },
      "scriptsig": "",
      "scriptsig_asm": "",
      "witness": [
        "b30c15b9b3c2384f4f028bd4df4c3122408956ee399e5a74039daeed00ae2a957ae00e11ca45a3546b5a341c71b8785c7f5e77dd33f173e2727ee6ae082058de"
      ],
      "is_coinbase": false,
      "sequence": 4294967295
    }
  ],
  "vout": [
    {
      "scriptpubkey": "001488a8fe20c23625c6ed22ba20ba755d194a827c75",
      "scriptpubkey_asm": "OP_0 OP_PUSHBYTES_20 88a8fe20c23625c6ed22ba20ba755d194a827c75",
      "scriptpubkey_type": "v0_p2wpkh",
      "scriptpubkey_address": "bc1q3z50ugxzxcjudmfzhgst5a2ar99gylr4azuw7l",
      "value": 109891
    },
    {
      "scriptpubkey": "00140316206044879d005640f3f32c1813f22486c860",
      "scriptpubkey_asm": "OP_0 OP_PUSHBYTES_20 0316206044879d005640f3f32c1813f22486c860",
      "scriptpubkey_type": "v0_p2wpkh",
      "scriptpubkey_address": "bc1qqvtzqczys7wsq4jq70ejcxqn7gjgdjrqde20vd",
      "value": 134546
    },
    {
      "scriptpubkey": "76a914a3774e897bcda0bb1f2c680934f28daa974c9c8788ac",
      "scriptpubkey_asm": "OP_DUP OP_HASH160 OP_PUSHBYTES_20 a3774e897bcda0bb1f2c680934f28daa974c9c87 OP_EQUALVERIFY OP_CHECKSIG",
      "scriptpubkey_type": "p2pkh",
      "scriptpubkey_address": "1FuL4rFUMJfszvAvQSsArJSUTYjw1bNH9A",
      "value": 149620
    },
    {
      "scriptpubkey": "0014a7c68c567cd5ffc5a2c3747a117a84ad401afd21",
      "scriptpubkey_asm": "OP_0 OP_PUSHBYTES_20 a7c68c567cd5ffc5a2c3747a117a84ad401afd21",
      "scriptpubkey_type": "v0_p2wpkh",
      "scriptpubkey_address": "bc1q5lrgc4nu6hlutgkrw3apz75y44qp4lfpl7dsk2",
      "value": 159313
    },
    {
      "scriptpubkey": "0014cdad419e4157623c51fef3bf9b9c1c7c1ce062fa",
      "scriptpubkey_asm": "OP_0 OP_PUSHBYTES_20 cdad419e4157623c51fef3bf9b9c1c7c1ce062fa",
      "scriptpubkey_type": "v0_p2wpkh",
      "scriptpubkey_address": "bc1qekk5r8jp2a3rc5077wleh8qu0swwqch6ak3uma",
      "value": 199237
    },
    {
      "scriptpubkey": "a914e52e7b17336cfadb5cc43e3f2ab570247126ca1187",
      "scriptpubkey_asm": "OP_HASH160 OP_PUSHBYTES_20 e52e7b17336cfadb5cc43e3f2ab570247126ca11 OP_EQUAL",
      "scriptpubkey_type": "p2sh",
      "scriptpubkey_address": "3NapM1wnkj16vszaJ4vEME1ezxZwe6A1cd",
      "value": 200000
    },
    {
      "scriptpubkey": "a91418525cef3ee98b832f3d3ecc77efcd77628ba6b887",
      "scriptpubkey_asm": "OP_HASH160 OP_PUSHBYTES_20 18525cef3ee98b832f3d3ecc77efcd77628ba6b8 OP_EQUAL",
      "scriptpubkey_type": "p2sh",
      "scriptpubkey_address": "33ucoq9qBtHf39dSnmx75LMG7Ad1HMeKas",
      "value": 299149
    },
    {
      "scriptpubkey": "76a914dc009b538e400018a5768b222e830709bff324d388ac",
      "scriptpubkey_asm": "OP_DUP OP_HASH160 OP_PUSHBYTES_20 dc009b538e400018a5768b222e830709bff324d3 OP_EQUALVERIFY OP_CHECKSIG",
      "scriptpubkey_type": "p2pkh",
      "scriptpubkey_address": "1M4GPMszFAqUnvFT8LJ2J3nJoRcMrzCQcA",
      "value": 438311
    },
    {
      "scriptpubkey": "76a914735c41be7269b434a4ceffcc7429273f9d29f1b588ac",
      "scriptpubkey_asm": "OP_DUP OP_HASH160 OP_PUSHBYTES_20 735c41be7269b434a4ceffcc7429273f9d29f1b5 OP_EQUALVERIFY OP_CHECKSIG",
      "scriptpubkey_type": "p2pkh",
      "scriptpubkey_address": "1BWyEBDhh9KH2gRuskGZdALHUztrEYHR55",
      "value": 544000
    },
    {
      "scriptpubkey": "0014cf0aeebde15bfc4ccd517d8c4e8634a2b69c4149",
      "scriptpubkey_asm": "OP_0 OP_PUSHBYTES_20 cf0aeebde15bfc4ccd517d8c4e8634a2b69c4149",
      "scriptpubkey_type": "v0_p2wpkh",
      "scriptpubkey_address": "bc1qeu9wa00pt07yen230kxyap3552mfcs2f5mas6g",
      "value": 996352
    },
    {
      "scriptpubkey": "5120179104db2360b48a7afffdf99084a3d97e6905c9d98579e3305fc9931f646cd9",
      "scriptpubkey_asm": "OP_PUSHNUM_1 OP_PUSHBYTES_32 179104db2360b48a7afffdf99084a3d97e6905c9d98579e3305fc9931f646cd9",
      "scriptpubkey_type": "v1_p2tr",
      "scriptpubkey_address": "bc1pz7gsfkervz6g57hllhuepp9rm9lxjpwfmxzhncestlyex8mydnvsgrl73v",
      "value": 67552467
    }
  ],
  "size": 483,
  "weight": 1728,
  "fee": 9353,
  "status": {
    "confirmed": true,
    "block_height": 834638,
    "block_hash": "000000000000000000025f742c626208ac87e0b7d15054abb4a19ca2d735a54e",
    "block_time": 1710405325
  },
  "hex": "01000000000101078b2ec0341195b807d575fcdf2e5a3ce9ed5f485e001b1f5639a99fa02834681600000000ffffffff0b43ad01000000000016001488a8fe20c23625c6ed22ba20ba755d194a827c75920d0200000000001600140316206044879d005640f3f32c1813f22486c86074480200000000001976a914a3774e897bcda0bb1f2c680934f28daa974c9c8788ac516e020000000000160014a7c68c567cd5ffc5a2c3747a117a84ad401afd21450a030000000000160014cdad419e4157623c51fef3bf9b9c1c7c1ce062fa400d03000000000017a914e52e7b17336cfadb5cc43e3f2ab570247126ca11878d9004000000000017a91418525cef3ee98b832f3d3ecc77efcd77628ba6b88727b00600000000001976a914dc009b538e400018a5768b222e830709bff324d388ac004d0800000000001976a914735c41be7269b434a4ceffcc7429273f9d29f1b588ac00340f0000000000160014cf0aeebde15bfc4ccd517d8c4e8634a2b69c4149d3c4060400000000225120179104db2360b48a7afffdf99084a3d97e6905c9d98579e3305fc9931f646cd90140b30c15b9b3c2384f4f028bd4df4c3122408956ee399e5a74039daeed00ae2a957ae00e11ca45a3546b5a341c71b8785c7f5e77dd33f173e2727ee6ae082058de00000000"
}