{
  "txid": "ec456aadeb12bb8d7d55f40536c4bc4ee435cf09c763a31dda594c964885f7f9",
  "version": 2,
  "locktime": 0,
  "vin": [
    {
      "txid": "abdcbb8bcefa0f088373ceda41a70fe1aeaa3823b969e1169e2a29269068d8dc",
      "vout": 19,
      "prevout": {
        "scriptpubkey": "5120d7d80dc6d84060adfcd7b59de049f6b13d46e30507c84e8a7408745b419efae4",
        "scriptpubkey_asm": "OP_PUSHNUM_1 OP_PUSHBYTES_32 d7d80dc6d84060adfcd7b59de049f6b13d46e30507c84e8a7408745b419efae4",
        "scriptpubkey_type": "v1_p2tr",
        "scriptpubkey_address": "bc1p6lvqm3kcgps2mlxhkkw7qj0kky75dcc9qlyyazn5pp69ksv7ltjqu3cxs8",
        "value": 2522
      },
      "scriptsig": "",
      "scriptsig_asm": "",
      "witness": [
        "774cccf5c6875670792a98ec3906987b690303e00b18ce9b3edc3b9047f33bb4dbd48bcecb824903a0a88593d934d18b99d06142a277387aca79ddfa02a8bbaf",
        "204f8b9ae32baca4a5ae4a9bfe270507a01923b86546705cf942c2abc6c3fc8433ac0063036f7264010118746578742f706c61696e3b636861727365743d7574662d3800387b2270223a226272632d3230222c226f70223a227472616e73666572222c227469636b223a226f726e6a222c22616d74223a22313030227d68",
        "c025dced391475af84759664675c16f5ed581b243a944241d7ee258c8cfb80c9db"
      ],
      "is_coinbase": false,
      "sequence": 4294967295
    }
  ],
  "vout": [
    {
      "scriptpubkey": "512060e7b9d91ee3091b65165528563dba11a47299520ea2fc67070ec6ac303fc05d",
      "scriptpubkey_asm": "OP_PUSHNUM_1 OP_PUSHBYTES_32 60e7b9d91ee3091b65165528563dba11a47299520ea2fc67070ec6ac303fc05d",
      "scriptpubkey_type": "v1_p2tr",
      "scriptpubkey_address": "bc1pvrnmnkg7uvy3kegk2559v0d6zxj89x2jp630cec8pmr2cvplcpwsn3pn79",
      "value": 546
    }
  ],
  "size": 323,
  "weight": 605,
  "fee": 1976,
  "status": {
    "confirmed": true,
    "block_height": 834460,
    "block_hash": "00000000000000000000484a79b643b2524bbce82e5d8a442013fa5b8905ed98",
    "block_time": 1710307468
  },
  "hex": "02000000000101dcd8689026292a9e16e169b92338aaaee10fa741dace7383080fface8bbbdcab1300000000ffffffff01220200000000000022512060e7b9d91ee3091b65165528563dba11a47299520ea2fc67070ec6ac303fc05d0340774cccf5c6875670792a98ec3906987b690303e00b18ce9b3edc3b9047f33bb4dbd48bcecb824903a0a88593d934d18b99d06142a277387aca79ddfa02a8bbaf7e204f8b9ae32baca4a5ae4a9bfe270507a01923b86546705cf942c2abc6c3fc8433ac0063036f7264010118746578742f706c61696e3b636861727365743d7574662d3800387b2270223a226272632d3230222c226f70223a227472616e73666572222c227469636b223a226f726e6a222c22616d74223a22313030227d6821c025dced391475af84759664675c16f5ed581b243a944241d7ee258c8cfb80c9db00000000"
}