{
  "txid": "ec5a0c6fa495873497640c0065e754632064fa04f145481fb2e039ba7493f5e5",
  "version": 2,
  "locktime": 0,
  "vin": [
    {
      "txid": "e054c137725b7a5d163dade8f5cd68c0927a2e8b00d920927dab9a7ba934ce5f",
      "vout": 11,
      "prevout": {
        "scriptpubkey": "5120995176c30ef8ba2b35513865800eda3a1dd906d429bc650dec5583e878ea94a1",
        "scriptpubkey_asm": "OP_PUSHNUM_1 OP_PUSHBYTES_32 995176c30ef8ba2b35513865800eda3a1dd906d429bc650dec5583e878ea94a1",
        "scriptpubkey_type": "v1_p2tr",
        "scriptpubkey_address": "bc1pn9ghdscwlzazkd238pjcqrk68gwajpk59x7x2r0v2kp7s782jjssfmfzdg",
        "value": 2658
      },
      "scriptsig": "",
      "scriptsig_asm": "",
      "witness": [
        "0268e84f1500348ca71eb5596e81f9ef66d0398ec779657f76e18b476a7745e7266546b45f802d2a5cfe7bc5910f0eda9c90c8176a0b06e8050ff748abe4922a",
        "20ee06fd0e12ebc9e5ae4eb53bb2d5e46162eb9a6d42ee84ab41f4196f9bc4b4ceac0063036f726401011e6170706c69636174696f6e2f6a736f6e3b636861727365743d7574662d38004cbf7b2270223a22706f772d3230222c226f70223a226d696e74222c227469636b223a2250455045222c22616d74223a2231303030222c22736f6c7574696f6e223a22504550453a6263317139736a36303977756e7468646a636d7a746a796379766475616e653071716b78726e773932653a303030303030303030303030303030303030303139393431613561653132383937363539383134343239323533333030353762306461393666336465613163353a3432373739343831333538227d68",
        "c1a0e509a599b6542378e5ac7959d344a1bebc95ec9899fd4ccf1904beefe3f047"
      ],
      "is_coinbase": false,
      "sequence": 4294967295
    }
  ],
  "vout": [
    {
      "scriptpubkey": "00142c25a795dc9aeed963625c898231bcecf2f002c6",
      "scriptpubkey_asm": "OP_0 OP_PUSHBYTES_20 2c25a795dc9aeed963625c898231bcecf2f002c6",
      "scriptpubkey_type": "v0_p2wpkh",
      "scriptpubkey_address": "bc1q9sj609wunthdjcmztjycyvduane0qqkxrnw92e",
      "value": 546
    }
  ],
  "size": 455,
  "weight": 701,
  "fee": 2112,
  "status": {
    "confirmed": true,
    "block_height": 834460,
    "block_hash": "00000000000000000000484a79b643b2524bbce82e5d8a442013fa5b8905ed98",
    "block_time": 1710307468
  },
  "hex": "020000000001015fce34a97b9aab7d9220d9008b2e7a92c068cdf5e8ad3d165d7a5b7237c154e00b00000000ffffffff0122020000000000001600142c25a795dc9aeed963625c898231bcecf2f002c603400268e84f1500348ca71eb5596e81f9ef66d0398ec779657f76e18b476a7745e7266546b45f802d2a5cfe7bc5910f0eda9c90c8176a0b06e8050ff748abe4922afd0c0120ee06fd0e12ebc9e5ae4eb53bb2d5e46162eb9a6d42ee84ab41f4196f9bc4b4ceac0063036f726401011e6170706c69636174696f6e2f6a736f6e3b636861727365743d7574662d38004cbf7b2270223a22706f772d3230222c226f70223a226d696e74222c227469636b223a2250455045222c22616d74223a2231303030222c22736f6c7574696f6e223a22504550453a6263317139736a36303977756e7468646a636d7a746a796379766475616e653071716b78726e773932653a303030303030303030303030303030303030303139393431613561653132383937363539383134343239323533333030353762306461393666336465613163353a3432373739343831333538227d6821c1a0e509a599b6542378e5ac7959d344a1bebc95ec9899fd4ccf1904beefe3f04700000000"
}