{
  "txid": "ec6618e71efbb71e50ac23ce8356bc5a9708d3f6362a7354c0993f72549d8c97",
  "version": 1,
  "locktime": 0,
  "vin": [
    {
      "txid": "ac235bcfe412fe1e434d3b1c03e1e88ca91f1a0fd132008084eb941589f5bac8",
      "vout": 22,
      "prevout": {
        "scriptpubkey": "51207d4e030cc7cb74ee91f83b4cc630a1b4f23ce1752ccb3514da3679e9769bf9bc",
        "scriptpubkey_asm": "OP_PUSHNUM_1 OP_PUSHBYTES_32 7d4e030cc7cb74ee91f83b4cc630a1b4f23ce1752ccb3514da3679e9769bf9bc",
        "scriptpubkey_type": "v1_p2tr",
        "scriptpubkey_address": "bc1p048qxrx8ed6way0c8dxvvv9pknerect49n9n29x6xeu7ja5mlx7qt3dr6l",
        "value": 14000
      },
      "scriptsig": "",
      "scriptsig_asm": "",
      "witness": [
        "df446ef9cc9ac2d9ad76565a64e4492fc172913e393e917a3d302da826b63142e307fc013d44428ac63feebaf57c0422e8701feda8e5063722bb1e6d990768a8"
      ],
      "is_coinbase": false,
      "sequence": 4294967293
    }
  ],
  "vout": [
    {
      "scriptpubkey": "5120a3e6d966d3ff2b47349b29e4899378054bedd24a1d0515800eb0e6f4cd5bd431",
      "scriptpubkey_asm": "OP_PUSHNUM_1 OP_PUSHBYTES_32 a3e6d966d3ff2b47349b29e4899378054bedd24a1d0515800eb0e6f4cd5bd431",
      "scriptpubkey_type": "v1_p2tr",
      "scriptpubkey_address": "bc1p50ndjeknlu45wdym98jgnymcq497m5j2r5z3tqqwkrn0fn2m6scsc9l79q",
      "value": 2346
    },
    {
      "scriptpubkey": "5120f667578b85bed256c7fcb9f2cda488d5281e52ca42e7dd4bc21e95149562f09f",
      "scriptpubkey_asm": "OP_PUSHNUM_1 OP_PUSHBYTES_32 f667578b85bed256c7fcb9f2cda488d5281e52ca42e7dd4bc21e95149562f09f",
      "scriptpubkey_type": "v1_p2tr",
      "scriptpubkey_address": "bc1p7en40zu9hmf9d3luh8evmfyg655pu5k2gtna6j7zr623f9tz7z0stfnwav",
      "value": 2113
    },
    {
      "scriptpubkey": "51207d4e030cc7cb74ee91f83b4cc630a1b4f23ce1752ccb3514da3679e9769bf9bc",
      "scriptpubkey_asm": "OP_PUSHNUM_1 OP_PUSHBYTES_32 7d4e030cc7cb74ee91f83b4cc630a1b4f23ce1752ccb3514da3679e9769bf9bc",
      "scriptpubkey_type": "v1_p2tr",
      "scriptpubkey_address": "bc1p048qxrx8ed6way0c8dxvvv9pknerect49n9n29x6xeu7ja5mlx7qt3dr6l",
      "value": 7165
    }
  ],
  "size": 248,
  "weight": 788,
  "fee": 2376,
  "status": {
    "confirmed": true,
    "block_height": 834460,
    "block_hash": "00000000000000000000484a79b643b2524bbce82e5d8a442013fa5b8905ed98",
    "block_time": 1710307468
  },
  "hex": "01000000000101c8baf5891594eb84800032d10f1a1fa98ce8e1031c3b4d431efe12e4cf5b23ac1600000000fdffffff032a09000000000000225120a3e6d966d3ff2b47349b29e4899378054bedd24a1d0515800eb0e6f4cd5bd4314108000000000000225120f667578b85bed256c7fcb9f2cda488d5281e52ca42e7dd4bc21e95149562f09ffd1b0000000000002251207d4e030cc7cb74ee91f83b4cc630a1b4f23ce1752ccb3514da3679e9769bf9bc0140df446ef9cc9ac2d9ad76565a64e4492fc172913e393e917a3d302da826b63142e307fc013d44428ac63feebaf57c0422e8701feda8e5063722bb1e6d990768a800000000"
}