{
  "txid": "ec6a92468759cecaa854e9b0155d4a94e52c897fe96607d592218664d1165a11",
  "version": 2,
  "locktime": 0,
  "vin": [
    {
      "txid": "dd22f521e6b397ccbfa26db055bfdccf33ed784065b27f2ecd8cbe249d1b5551",
      "vout": 1,
      "prevout": {
        "scriptpubkey": "76a91454d5055b2fa5209ca3932a20adac71061f897fb588ac",
        "scriptpubkey_asm": "OP_DUP OP_HASH160 OP_PUSHBYTES_20 54d5055b2fa5209ca3932a20adac71061f897fb5 OP_EQUALVERIFY OP_CHECKSIG",
        "scriptpubkey_type": "p2pkh",
        "scriptpubkey_address": "18jYx4tBV4MCBMm8RhQNzwp1cmkTKPmQL5",
        "value": 422003
      },
      "scriptsig": "483045022100f3c36b9795ac94a6a62a317c8d444c2405dd3d60f93ad8645d7eb671e666581402202da08108017570514024845e6c274ef6fab68543514039b68778e65e59305b0b0121027b3f2e6529e4efcb1e94d00414838a6e72db1095e95e3a1274b47b3f7dde993c",
      "scriptsig_asm": "OP_PUSHBYTES_72 3045022100f3c36b9795ac94a6a62a317c8d444c2405dd3d60f93ad8645d7eb671e666581402202da08108017570514024845e6c274ef6fab68543514039b68778e65e59305b0b01 OP_PUSHBYTES_33 027b3f2e6529e4efcb1e94d00414838a6e72db1095e95e3a1274b47b3f7dde993c",
      "is_coinbase": false,
      "sequence": 4294967293
    }
  ],
  "vout": [
    {
      "scriptpubkey": "a91484a8676123b8626c01a3658b2d83c526e755784287",
      "scriptpubkey_asm": "OP_HASH160 OP_PUSHBYTES_20 84a8676123b8626c01a3658b2d83c526e7557842 OP_EQUAL",
      "scriptpubkey_type": "p2sh",
      "scriptpubkey_address": "3DnSrmWusJPZQsqLpvM7KnCEbsoUS3NQ2t",
      "value": 396218
    }
  ],
  "size": 190,
  "weight": 760,
  "fee": 25785,
  "status": {
    "confirmed": true,
    "block_height": 834638,
    "block_hash": "000000000000000000025f742c626208ac87e0b7d15054abb4a19ca2d735a54e",
    "block_time": 1710405325
  },
  "hex": "020000000151551b9d24be8ccd2e7fb2654078ed33cfdcbf55b06da2bfcc97b3e621f522dd010000006b483045022100f3c36b9795ac94a6a62a317c8d444c2405dd3d60f93ad8645d7eb671e666581402202da08108017570514024845e6c274ef6fab68543514039b68778e65e59305b0b0121027b3f2e6529e4efcb1e94d00414838a6e72db1095e95e3a1274b47b3f7dde993cfdffffff01ba0b06000000000017a91484a8676123b8626c01a3658b2d83c526e75578428700000000"
}