{
  "txid": "ec7286cd86bd479efc98d8af58b5b3c13bd5b4733266485cfb72016797409355",
  "version": 2,
  "locktime": 0,
  "vin": [
    {
      "txid": "426f08fbaaacdc4b13cb6f428c89487358ea4dac9ed7948a96cfaa3f67ad9d67",
      "vout": 27,
      "prevout": {
        "scriptpubkey": "5120f949a8732ec65c380f8c38a80cf78efba93f545725397fab41d93705e97b6f7b",
        "scriptpubkey_asm": "OP_PUSHNUM_1 OP_PUSHBYTES_32 f949a8732ec65c380f8c38a80cf78efba93f545725397fab41d93705e97b6f7b",
        "scriptpubkey_type": "v1_p2tr",
        "scriptpubkey_address": "bc1pl9y6suewcewrsruv8z5qeauwlw5n74zhy5uhl26pmymst6tmdaasffvak0",
        "value": 4599
      },
      "scriptsig": "",
      "scriptsig_asm": "",
      "witness": [
        "e97dbbc3bf542ebf678b01f808eed4129768ccccfa58a31bf997b0af245410b9cc88ea8f91a64ae930ebfdab8c02f8b2b6a00e1e376e853a1816cb725bde9db3",
        "2062a0260723265c6d4ab545d6bcf4db2c538814165c3d46cfa4d284a12231246bac0063036f726401011e6170706c69636174696f6e2f6a736f6e3b636861727365743d7574662d38004cd37b2270223a22706f772d3230222c226f70223a226d696e74222c227469636b223a2250455045222c22616d74223a2231303030222c22736f6c7574696f6e223a22504550453a62633170636a65387233733875656e746d64767a6e34777337786d3836367879707535756139357371796877756835616d61677565367a73707a733637713a303030303030303030303030303030303030303139393431613561653132383937363539383134343239323533333030353762306461393666336465613163353a3230303739323636393633227d68",
        "c0039ed2fd528e891a28907036b81ec900320c2b9f26f0b27e7e5cfd0fc9102a4d"
      ],
      "is_coinbase": false,
      "sequence": 4294967295
    }
  ],
  "vout": [
    {
      "scriptpubkey": "5120c4b271c607e666bdb5829d5d0f1b67d68c40f29ce9690012eee5e9ddf51cce85",
      "scriptpubkey_asm": "OP_PUSHNUM_1 OP_PUSHBYTES_32 c4b271c607e666bdb5829d5d0f1b67d68c40f29ce9690012eee5e9ddf51cce85",
      "scriptpubkey_type": "v1_p2tr",
      "scriptpubkey_address": "bc1pcje8r3s8uentmdvzn4ws7xm866xypu5ua95sqyhwuh5amague6zspzs67q",
      "value": 546
    }
  ],
  "size": 487,
  "weight": 769,
  "fee": 4053,
  "status": {
    "confirmed": true,
    "block_height": 834460,
    "block_hash": "00000000000000000000484a79b643b2524bbce82e5d8a442013fa5b8905ed98",
    "block_time": 1710307468
  },
  "hex": "02000000000101679dad673faacf968a94d79eac4dea587348898c426fcb134bdcacaafb086f421b00000000ffffffff012202000000000000225120c4b271c607e666bdb5829d5d0f1b67d68c40f29ce9690012eee5e9ddf51cce850340e97dbbc3bf542ebf678b01f808eed4129768ccccfa58a31bf997b0af245410b9cc88ea8f91a64ae930ebfdab8c02f8b2b6a00e1e376e853a1816cb725bde9db3fd20012062a0260723265c6d4ab545d6bcf4db2c538814165c3d46cfa4d284a12231246bac0063036f726401011e6170706c69636174696f6e2f6a736f6e3b636861727365743d7574662d38004cd37b2270223a22706f772d3230222c226f70223a226d696e74222c227469636b223a2250455045222c22616d74223a2231303030222c22736f6c7574696f6e223a22504550453a62633170636a65387233733875656e746d64767a6e34777337786d3836367879707535756139357371796877756835616d61677565367a73707a733637713a303030303030303030303030303030303030303139393431613561653132383937363539383134343239323533333030353762306461393666336465613163353a3230303739323636393633227d6821c0039ed2fd528e891a28907036b81ec900320c2b9f26f0b27e7e5cfd0fc9102a4d00000000"
}