{
  "txid": "ec73dcebc2611661337ca3e445102cd4acad6af11ff12c584921f0cdd5c308bc",
  "version": 1,
  "locktime": 0,
  "vin": [
    {
      "txid": "2f7dce7585d95f5d2ee21d412924a7ab1c27e0b8e2df61d640a4e479866cdce4",
      "vout": 5,
      "prevout": {
        "scriptpubkey": "a914e78c97c180950159f7c4af07d55bd95672257ccf87",
        "scriptpubkey_asm": "OP_HASH160 OP_PUSHBYTES_20 e78c97c180950159f7c4af07d55bd95672257ccf OP_EQUAL",
        "scriptpubkey_type": "p2sh",
        "scriptpubkey_address": "3NoLSR3QnQYyhe6fVzHPJvdBjpm2mqZPXN",
        "value": 314120
      },
      "scriptsig": "160014ea0e165131f284888178436453488b29b5ddccb4",
      "scriptsig_asm": "OP_PUSHBYTES_22 0014ea0e165131f284888178436453488b29b5ddccb4",
      "witness": [
        "304402206c9a682e8c6c0b99f66120e0d6da6cdc1c8afba6f9100a20d1b231f6fe7b456602204ad9c52fee112fa2a68aceb0fa26ec50a16248ee40c1eced50dabcec92a3197401",
        "0238d80d3731ecedeede449b06e958e66781d2f06b01c9cbd0e1c12fcf5517f579"
      ],
      "is_coinbase": false,
      "sequence": 4294967295,
      "inner_redeemscript_asm": "OP_0 OP_PUSHBYTES_20 ea0e165131f284888178436453488b29b5ddccb4"
    }
  ],
  "vout": [
    {
      "scriptpubkey": "a914d940e4b19e1f3d1e344dc0931964d23476e88b4487",
      "scriptpubkey_asm": "OP_HASH160 OP_PUSHBYTES_20 d940e4b19e1f3d1e344dc0931964d23476e88b44 OP_EQUAL",
      "scriptpubkey_type": "p2sh",
      "scriptpubkey_address": "3MVkJ3DDqzknFZd6St4yepZm6NUjWmRBrT",
      "value": 3141
    },
    {
      "scriptpubkey": "0014ab80e9b0dfe054068956bf30d353b8e4d7ee4bc5",
      "scriptpubkey_asm": "OP_0 OP_PUSHBYTES_20 ab80e9b0dfe054068956bf30d353b8e4d7ee4bc5",
      "scriptpubkey_type": "v0_p2wpkh",
      "scriptpubkey_address": "bc1q4wqwnvxlup2qdz2khucdx5acunt7uj792rltsa",
      "value": 308753
    }
  ],
  "size": 246,
  "weight": 657,
  "fee": 2226,
  "status": {
    "confirmed": true,
    "block_height": 834460,
    "block_hash": "00000000000000000000484a79b643b2524bbce82e5d8a442013fa5b8905ed98",
    "block_time": 1710307468
  },
  "hex": "01000000000101e4dc6c8679e4a440d661dfe2b8e0271caba72429411de22e5d5fd98575ce7d2f0500000017160014ea0e165131f284888178436453488b29b5ddccb4ffffffff02450c00000000000017a914d940e4b19e1f3d1e344dc0931964d23476e88b448711b6040000000000160014ab80e9b0dfe054068956bf30d353b8e4d7ee4bc50247304402206c9a682e8c6c0b99f66120e0d6da6cdc1c8afba6f9100a20d1b231f6fe7b456602204ad9c52fee112fa2a68aceb0fa26ec50a16248ee40c1eced50dabcec92a3197401210238d80d3731ecedeede449b06e958e66781d2f06b01c9cbd0e1c12fcf5517f57900000000"
}