{
  "txid": "ec7b6d6d02fbbbebed36ca87f7ccabdda72cd9268bb47250eeb253a2f5873943",
  "version": 2,
  "locktime": 0,
  "vin": [
    {
      "txid": "828b1b7ddb8c10b707cb34569ea34f398d82862dc470b7fb2fc6bd98b26f4a50",
      "vout": 0,
      "prevout": {
        "scriptpubkey": "5120ce1039e86ac13577cd4326765ba3200b544396098351b2e80f43249242f1df4b",
        "scriptpubkey_asm": "OP_PUSHNUM_1 OP_PUSHBYTES_32 ce1039e86ac13577cd4326765ba3200b544396098351b2e80f43249242f1df4b",
        "scriptpubkey_type": "v1_p2tr",
        "scriptpubkey_address": "bc1pecgrn6r2cy6h0n2ryem9hgeqpd2y89sfsdgm96q0gvjfysh3ma9s5qk0xg",
        "value": 546
      },
      "scriptsig": "",
      "scriptsig_asm": "",
      "witness": [
        "a54c9cbcfebd0bf6d01cd84dadaafc71e042f7ee8c211be25d041918d7644228add74045b48e3f5cfc7d86b94a05d83031f2cb602e9c8d52d7acf81a5da4f72b"
      ],
      "is_coinbase": false,
      "sequence": 4294967295
    },
    {
      "txid": "6afdb674c5acc1dfaa30c879d9138ab16ca644337221c4f0d7bb0bfc6d8816d0",
      "vout": 1,
      "prevout": {
        "scriptpubkey": "5120ce1039e86ac13577cd4326765ba3200b544396098351b2e80f43249242f1df4b",
        "scriptpubkey_asm": "OP_PUSHNUM_1 OP_PUSHBYTES_32 ce1039e86ac13577cd4326765ba3200b544396098351b2e80f43249242f1df4b",
        "scriptpubkey_type": "v1_p2tr",
        "scriptpubkey_address": "bc1pecgrn6r2cy6h0n2ryem9hgeqpd2y89sfsdgm96q0gvjfysh3ma9s5qk0xg",
        "value": 48275
      },
      "scriptsig": "",
      "scriptsig_asm": "",
      "witness": [
        "9ebf4bcee6bb3933ba04c02d31b02aecefcc6e7963dbba2d7dffe3b364eef04fe75058b6fc3a4c42f6b9572b0d6499bd2de703adcf8d772f715b49795eddc0aa"
      ],
      "is_coinbase": false,
      "sequence": 4294967295
    }
  ],
  "vout": [
    {
      "scriptpubkey": "51209f798cefff83921c611a575e4f70fca6c5c40c9df5fd590d91e4404f6d3fddcd",
      "scriptpubkey_asm": "OP_PUSHNUM_1 OP_PUSHBYTES_32 9f798cefff83921c611a575e4f70fca6c5c40c9df5fd590d91e4404f6d3fddcd",
      "scriptpubkey_type": "v1_p2tr",
      "scriptpubkey_address": "bc1pnaucemllswfpccg62a0y7u8u5mzugrya7h74jrv3u3qy7mflmhxs68fqd2",
      "value": 546
    },
    {
      "scriptpubkey": "5120ce1039e86ac13577cd4326765ba3200b544396098351b2e80f43249242f1df4b",
      "scriptpubkey_asm": "OP_PUSHNUM_1 OP_PUSHBYTES_32 ce1039e86ac13577cd4326765ba3200b544396098351b2e80f43249242f1df4b",
      "scriptpubkey_type": "v1_p2tr",
      "scriptpubkey_address": "bc1pecgrn6r2cy6h0n2ryem9hgeqpd2y89sfsdgm96q0gvjfysh3ma9s5qk0xg",
      "value": 45095
    }
  ],
  "size": 312,
  "weight": 846,
  "fee": 3180,
  "status": {
    "confirmed": true,
    "block_height": 834460,
    "block_hash": "00000000000000000000484a79b643b2524bbce82e5d8a442013fa5b8905ed98",
    "block_time": 1710307468
  },
  "hex": "02000000000102504a6fb298bdc62ffbb770c42d86828d394fa39e5634cb07b7108cdb7d1b8b820000000000ffffffffd016886dfc0bbbd7f0c421723344a66cb18a13d979c830aadfc1acc574b6fd6a0100000000ffffffff0222020000000000002251209f798cefff83921c611a575e4f70fca6c5c40c9df5fd590d91e4404f6d3fddcd27b0000000000000225120ce1039e86ac13577cd4326765ba3200b544396098351b2e80f43249242f1df4b0140a54c9cbcfebd0bf6d01cd84dadaafc71e042f7ee8c211be25d041918d7644228add74045b48e3f5cfc7d86b94a05d83031f2cb602e9c8d52d7acf81a5da4f72b01409ebf4bcee6bb3933ba04c02d31b02aecefcc6e7963dbba2d7dffe3b364eef04fe75058b6fc3a4c42f6b9572b0d6499bd2de703adcf8d772f715b49795eddc0aa00000000"
}