{
  "txid": "ec7c3f7409cd0151c00c44d756ab583fe5fed84f8814db603cd3fda6b3bf3cba",
  "version": 1,
  "locktime": 0,
  "vin": [
    {
      "txid": "81b3b214a11d78d72f44384710db6c0669b0389b8a3ff57483c9ae0bfb48a0cd",
      "vout": 0,
      "prevout": {
        "scriptpubkey": "0020cb04434d4f67c40ae019b92f9bcb43baa3825e002f360cef2cc890488387ba0c",
        "scriptpubkey_asm": "OP_0 OP_PUSHBYTES_32 cb04434d4f67c40ae019b92f9bcb43baa3825e002f360cef2cc890488387ba0c",
        "scriptpubkey_type": "v0_p2wsh",
        "scriptpubkey_address": "bc1qevzyxn20vlzq4cqehyhehj6rh23cyhsq9umqemevezgy3qu8hgxq78qfj8",
        "value": 546
      },
      "scriptsig": "",
      "scriptsig_asm": "",
      "witness": [
        "",
        "304402202fddca40362dbfdb39ebda4e9e8e07bf290d57e812a3e63d3cafeb3409e73956022040596dc70c4418a9caf278e8ae9b57360faab9a5d9a1369a9a821801cabcaab701",
        "304402202804af9406887b4cc486e1bae26bbc55b42c5ebb58b872f01469d9777f2d76e202205fa54b5f954b8f6bfc88722c40f6544b25a0d4c0c5899061a81389f19db8c85e01",
        "522103d7409b3f1ab81699f532bc4b89b09dde698b7560b7d2a969f7aa313408f7b826210263a7b9ea4de6f8ee522ce5410bfb575482ebcba343a6f529490d5fcd237f0efe2103c9784e45eb28a7f55442e7cea73bbca221da5e20201ee22b5558001b8b8e052553ae"
      ],
      "is_coinbase": false,
      "sequence": 4294967295,
      "inner_witnessscript_asm": "OP_PUSHNUM_2 OP_PUSHBYTES_33 03d7409b3f1ab81699f532bc4b89b09dde698b7560b7d2a969f7aa313408f7b826 OP_PUSHBYTES_33 0263a7b9ea4de6f8ee522ce5410bfb575482ebcba343a6f529490d5fcd237f0efe OP_PUSHBYTES_33 03c9784e45eb28a7f55442e7cea73bbca221da5e20201ee22b5558001b8b8e0525 OP_PUSHNUM_3 OP_CHECKMULTISIG"
    },
    {
      "txid": "0148e193612353cacd8a06b1be5c6755d7a9b0a9c005bc2df25195fbbac6be72",
      "vout": 0,
      "prevout": {
        "scriptpubkey": "00203adf3235a9d4d90e336cb434fc853390f0c7cfbe49d228af2b30524be2e36dd5",
        "scriptpubkey_asm": "OP_0 OP_PUSHBYTES_32 3adf3235a9d4d90e336cb434fc853390f0c7cfbe49d228af2b30524be2e36dd5",
        "scriptpubkey_type": "v0_p2wsh",
        "scriptpubkey_address": "bc1q8t0nyddf6nvsuvmvks60epfnjrcv0na7f8fz3tetxpfyhchrdh2sppy2k6",
        "value": 100000
      },
      "scriptsig": "",
      "scriptsig_asm": "",
      "witness": [
        "",
        "3044022047c342e4cff92010e900cb80e9f051d4450a9e8d90dd6ba865caa680a9d1463b022019a1d1423ff561cf429187c82c7ff640f3d43be83aaca1c792521b98477208b301",
        "3044022044896b371adf274ebcb4d29a68a58f5696e7c5a79a46ae04c9e1ffe9b60b470f02201e93db2203be1061882aab2c060a159f8170610956ac07f15bd53e7a69e4013101",
        "5221030e574ee6700d5add0fd6248768d952af7f4ac831f92dab1079659fccf3dc81fa2102fffb3b052e74af1e99fda850c56c508804e1e16310c0482486fad3de832bc5d321039f8947252f7bec80299fc17e5327b39ffd647acedc6b5fe02118f9c17818e30c53ae"
      ],
      "is_coinbase": false,
      "sequence": 4294967295,
      "inner_witnessscript_asm": "OP_PUSHNUM_2 OP_PUSHBYTES_33 030e574ee6700d5add0fd6248768d952af7f4ac831f92dab1079659fccf3dc81fa OP_PUSHBYTES_33 02fffb3b052e74af1e99fda850c56c508804e1e16310c0482486fad3de832bc5d3 OP_PUSHBYTES_33 039f8947252f7bec80299fc17e5327b39ffd647acedc6b5fe02118f9c17818e30c OP_PUSHNUM_3 OP_CHECKMULTISIG"
    }
  ],
  "vout": [
    {
      "scriptpubkey": "76a914234f39022fa4372c0e41f484a8f80644094fc75088ac",
      "scriptpubkey_asm": "OP_DUP OP_HASH160 OP_PUSHBYTES_20 234f39022fa4372c0e41f484a8f80644094fc750 OP_EQUALVERIFY OP_CHECKSIG",
      "scriptpubkey_type": "p2pkh",
      "scriptpubkey_address": "14DhZCn2JSwXswvPsciFzRJUH4n9TapYSB",
      "value": 546
    },
    {
      "scriptpubkey": "00200d906c99283f6ef93d29b45198b6a1e8faa28cfc419eac5fcdecbb181f95557c",
      "scriptpubkey_asm": "OP_0 OP_PUSHBYTES_32 0d906c99283f6ef93d29b45198b6a1e8faa28cfc419eac5fcdecbb181f95557c",
      "scriptpubkey_type": "v0_p2wsh",
      "scriptpubkey_address": "bc1qpkgxexfg8ah0j0ffk3ge3d4para29r8ugx02ch7daja3s8u4247qw2d2jq",
      "value": 78880
    }
  ],
  "size": 675,
  "weight": 1182,
  "fee": 21120,
  "status": {
    "confirmed": true,
    "block_height": 834460,
    "block_hash": "00000000000000000000484a79b643b2524bbce82e5d8a442013fa5b8905ed98",
    "block_time": 1710307468
  },
  "hex": "01000000000102cda048fb0baec98374f53f8a9b38b069066cdb104738442fd7781da114b2b3810000000000ffffffff72bec6bafb9551f22dbc05c0a9b0a9d755675cbeb1068acdca53236193e148010000000000ffffffff0222020000000000001976a914234f39022fa4372c0e41f484a8f80644094fc75088ac20340100000000002200200d906c99283f6ef93d29b45198b6a1e8faa28cfc419eac5fcdecbb181f95557c040047304402202fddca40362dbfdb39ebda4e9e8e07bf290d57e812a3e63d3cafeb3409e73956022040596dc70c4418a9caf278e8ae9b57360faab9a5d9a1369a9a821801cabcaab70147304402202804af9406887b4cc486e1bae26bbc55b42c5ebb58b872f01469d9777f2d76e202205fa54b5f954b8f6bfc88722c40f6544b25a0d4c0c5899061a81389f19db8c85e0169522103d7409b3f1ab81699f532bc4b89b09dde698b7560b7d2a969f7aa313408f7b826210263a7b9ea4de6f8ee522ce5410bfb575482ebcba343a6f529490d5fcd237f0efe2103c9784e45eb28a7f55442e7cea73bbca221da5e20201ee22b5558001b8b8e052553ae0400473044022047c342e4cff92010e900cb80e9f051d4450a9e8d90dd6ba865caa680a9d1463b022019a1d1423ff561cf429187c82c7ff640f3d43be83aaca1c792521b98477208b301473044022044896b371adf274ebcb4d29a68a58f5696e7c5a79a46ae04c9e1ffe9b60b470f02201e93db2203be1061882aab2c060a159f8170610956ac07f15bd53e7a69e4013101695221030e574ee6700d5add0fd6248768d952af7f4ac831f92dab1079659fccf3dc81fa2102fffb3b052e74af1e99fda850c56c508804e1e16310c0482486fad3de832bc5d321039f8947252f7bec80299fc17e5327b39ffd647acedc6b5fe02118f9c17818e30c53ae00000000"
}