{
  "txid": "ec8850d6175fd6abe7b3f06f32ecae3295d5d54b9276c0162b2e81f54cccefc3",
  "version": 2,
  "locktime": 0,
  "vin": [
    {
      "txid": "4ee77778659dcfe8d7a4e15882fc6193f4f3d5f6607624e256337b44c2280af5",
      "vout": 10,
      "prevout": {
        "scriptpubkey": "5120615af7ce119b6192a942826c427df5c752d4358257dc55a9a712bf4c2539acb3",
        "scriptpubkey_asm": "OP_PUSHNUM_1 OP_PUSHBYTES_32 615af7ce119b6192a942826c427df5c752d4358257dc55a9a712bf4c2539acb3",
        "scriptpubkey_type": "v1_p2tr",
        "scriptpubkey_address": "bc1pv9d00ns3ndse922zsfkyyl04cafdgdvz2lw9t2d8z2l5cffe4jes9mfh9r",
        "value": 2075
      },
      "scriptsig": "",
      "scriptsig_asm": "",
      "witness": [
        "6cf8e64e22953f691e238f31783c880f7ebea58ecc5bc4b8bb9cfd8d7826e7e825f93971e5177ef59f0b83ae6c0ad341ec72d76138d951ed45ce4f335abf2712",
        "2055eb8fb27f3c69401ca7592f022bdef98b2846e982992692a9833e225834c477ac0063036f7264010118746578742f706c61696e3b636861727365743d7574662d3800357b2270223a224252432d313030222c226f70223a226d696e74222c227469636b223a22696e73222c22616d74223a2231303030227d68",
        "c1c50eac15d7d7889f5ad84f80015e8a209129aeea937c37fa4b8bc0f9be289730"
      ],
      "is_coinbase": false,
      "sequence": 4294967295
    }
  ],
  "vout": [
    {
      "scriptpubkey": "00143e2325412b554cacdd163a93a42204c4707f8851",
      "scriptpubkey_asm": "OP_0 OP_PUSHBYTES_20 3e2325412b554cacdd163a93a42204c4707f8851",
      "scriptpubkey_type": "v0_p2wpkh",
      "scriptpubkey_address": "bc1q8c3j2sft24x2ehgk82f6ggsyc3c8lzz3yw9wsu",
      "value": 546
    }
  ],
  "size": 308,
  "weight": 554,
  "fee": 1529,
  "status": {
    "confirmed": true,
    "block_height": 834464,
    "block_hash": "0000000000000000000177a0869a911a2b65c9bdcd5a8bcb02b68f305bee848e",
    "block_time": 1710308296
  },
  "hex": "02000000000101f50a28c2447b3356e2247660f6d5f3f49361fc8258e1a4d7e8cf9d657877e74e0a00000000ffffffff0122020000000000001600143e2325412b554cacdd163a93a42204c4707f885103406cf8e64e22953f691e238f31783c880f7ebea58ecc5bc4b8bb9cfd8d7826e7e825f93971e5177ef59f0b83ae6c0ad341ec72d76138d951ed45ce4f335abf27127b2055eb8fb27f3c69401ca7592f022bdef98b2846e982992692a9833e225834c477ac0063036f7264010118746578742f706c61696e3b636861727365743d7574662d3800357b2270223a224252432d313030222c226f70223a226d696e74222c227469636b223a22696e73222c22616d74223a2231303030227d6821c1c50eac15d7d7889f5ad84f80015e8a209129aeea937c37fa4b8bc0f9be28973000000000"
}