{
  "txid": "ec89952759c2db1bb7ad63f54e218cc20b5251f1d20784028c89f92cecbc7eee",
  "version": 2,
  "locktime": 0,
  "vin": [
    {
      "txid": "d18ed70056c00a6cd5de0ccb10b1ae8f7dd5250f9d0f22c727aba826d03302c8",
      "vout": 23,
      "prevout": {
        "scriptpubkey": "51201ec3358efc31a391c5159376f8acc9d3367acfee3c6d5fcaf0f71f646473f23b",
        "scriptpubkey_asm": "OP_PUSHNUM_1 OP_PUSHBYTES_32 1ec3358efc31a391c5159376f8acc9d3367acfee3c6d5fcaf0f71f646473f23b",
        "scriptpubkey_type": "v1_p2tr",
        "scriptpubkey_address": "bc1prmpntrhuxx3er3g4jdm03txf6vm84nlw83k4ljhs7u0kgern7gasfjrqeu",
        "value": 3010
      },
      "scriptsig": "",
      "scriptsig_asm": "",
      "witness": [
        "f94a4fb2f56a2401fc97ff1a1fb709fe70de0da4593c43b69d3a98cf9430fef5552fc0fe5f0fd0b347fa2782aad7741bf8adaf05310f08fda16d7598ed184734",
        "20032eb2a02900f63e8ab7e0ac40b29bebad62fe8835a440d12a33d200b94632dfac0063036f726401011e6170706c69636174696f6e2f6a736f6e3b636861727365743d7574662d38004cbf7b2270223a22706f772d3230222c226f70223a226d696e74222c227469636b223a2250455045222c22616d74223a2231303030222c22736f6c7574696f6e223a22504550453a6263317168337833756334707a796478716436757776376e3732676874787a33753937306564663078613a303030303030303030303030303030303030303139393431613561653132383937363539383134343239323533333030353762306461393666336465613163353a3331303438303938303938227d68",
        "c1e5c6b8d70510d88b341fcdd9a2aa08913e89d9e736480c530fde3fe13419cdab"
      ],
      "is_coinbase": false,
      "sequence": 4294967295
    }
  ],
  "vout": [
    {
      "scriptpubkey": "0014bc4d1e62a1111a60375c733d3f291759851e17cf",
      "scriptpubkey_asm": "OP_0 OP_PUSHBYTES_20 bc4d1e62a1111a60375c733d3f291759851e17cf",
      "scriptpubkey_type": "v0_p2wpkh",
      "scriptpubkey_address": "bc1qh3x3uc4pzydxqd6uwv7n72ghtxz3u970edf0xa",
      "value": 546
    }
  ],
  "size": 455,
  "weight": 701,
  "fee": 2464,
  "status": {
    "confirmed": true,
    "block_height": 834460,
    "block_hash": "00000000000000000000484a79b643b2524bbce82e5d8a442013fa5b8905ed98",
    "block_time": 1710307468
  },
  "hex": "02000000000101c80233d026a8ab27c7220f9d0f25d57d8faeb110cb0cded56c0ac05600d78ed11700000000ffffffff012202000000000000160014bc4d1e62a1111a60375c733d3f291759851e17cf0340f94a4fb2f56a2401fc97ff1a1fb709fe70de0da4593c43b69d3a98cf9430fef5552fc0fe5f0fd0b347fa2782aad7741bf8adaf05310f08fda16d7598ed184734fd0c0120032eb2a02900f63e8ab7e0ac40b29bebad62fe8835a440d12a33d200b94632dfac0063036f726401011e6170706c69636174696f6e2f6a736f6e3b636861727365743d7574662d38004cbf7b2270223a22706f772d3230222c226f70223a226d696e74222c227469636b223a2250455045222c22616d74223a2231303030222c22736f6c7574696f6e223a22504550453a6263317168337833756334707a796478716436757776376e3732676874787a33753937306564663078613a303030303030303030303030303030303030303139393431613561653132383937363539383134343239323533333030353762306461393666336465613163353a3331303438303938303938227d6821c1e5c6b8d70510d88b341fcdd9a2aa08913e89d9e736480c530fde3fe13419cdab00000000"
}