{
  "txid": "ec89c40bf72cc34ecdc6f387b431f9ed0a8f1a5e9b831c908dd7be9e93254733",
  "version": 2,
  "locktime": 821447,
  "vin": [
    {
      "txid": "69194efb22fb4264267ea3c3d692baf7aec6634397d02ff34f31c7a9761ce4d1",
      "vout": 1,
      "prevout": {
        "scriptpubkey": "76a9143c4c8e1607d431de264b053a08be7411ebd2fd6188ac",
        "scriptpubkey_asm": "OP_DUP OP_HASH160 OP_PUSHBYTES_20 3c4c8e1607d431de264b053a08be7411ebd2fd61 OP_EQUALVERIFY OP_CHECKSIG",
        "scriptpubkey_type": "p2pkh",
        "scriptpubkey_address": "16VqFeUYj7N8zr2vE7f1TZtqy2pZxNbh6X",
        "value": 6272574743
      },
      "scriptsig": "473044022036a2f6adea27ea0bb58feae45ac4ca622b56dd49840caf333fc64cda0b5709fb022009081f03bab17af561cc7e4ecf06a698d6887e09a6f36cd7ea2ffeeab9e6712e012103cf6724bf16f82de112dfb7aef59bf31f7c5b4789d221fe1127f8181c7fc97cf7",
      "scriptsig_asm": "OP_PUSHBYTES_71 3044022036a2f6adea27ea0bb58feae45ac4ca622b56dd49840caf333fc64cda0b5709fb022009081f03bab17af561cc7e4ecf06a698d6887e09a6f36cd7ea2ffeeab9e6712e01 OP_PUSHBYTES_33 03cf6724bf16f82de112dfb7aef59bf31f7c5b4789d221fe1127f8181c7fc97cf7",
      "is_coinbase": false,
      "sequence": 4294967294
    }
  ],
  "vout": [
    {
      "scriptpubkey": "76a914414e9426fa01c20e893a75a6e05d238716db995888ac",
      "scriptpubkey_asm": "OP_DUP OP_HASH160 OP_PUSHBYTES_20 414e9426fa01c20e893a75a6e05d238716db9958 OP_EQUALVERIFY OP_CHECKSIG",
      "scriptpubkey_type": "p2pkh",
      "scriptpubkey_address": "16xK4DRNLTDmdEeBvqdzD1MC47RcoSnDF5",
      "value": 5872573673
    },
    {
      "scriptpubkey": "a91445f96143d0fc7a0aa8131e4e7960b1b7352327a387",
      "scriptpubkey_asm": "OP_HASH160 OP_PUSHBYTES_20 45f96143d0fc7a0aa8131e4e7960b1b7352327a3 OP_EQUAL",
      "scriptpubkey_type": "p2sh",
      "scriptpubkey_address": "3851J15PvNJFAwL6ozqTZqq4YiHBbDvWH3",
      "value": 400000000
    }
  ],
  "size": 223,
  "weight": 892,
  "fee": 1070,
  "status": {
    "confirmed": true,
    "block_height": 834464,
    "block_hash": "0000000000000000000177a0869a911a2b65c9bdcd5a8bcb02b68f305bee848e",
    "block_time": 1710308296
  },
  "hex": "0200000001d1e41c76a9c7314ff32fd0974363c6aef7ba92d6c3a37e266442fb22fb4e1969010000006a473044022036a2f6adea27ea0bb58feae45ac4ca622b56dd49840caf333fc64cda0b5709fb022009081f03bab17af561cc7e4ecf06a698d6887e09a6f36cd7ea2ffeeab9e6712e012103cf6724bf16f82de112dfb7aef59bf31f7c5b4789d221fe1127f8181c7fc97cf7feffffff02e95c085e010000001976a914414e9426fa01c20e893a75a6e05d238716db995888ac0084d7170000000017a91445f96143d0fc7a0aa8131e4e7960b1b7352327a387c7880c00"
}