{
  "txid": "ec89ce698fbdbd8d16b906ee2c41cd73a7a615b3675fe8fd7cb176ccbe202b14",
  "version": 2,
  "locktime": 0,
  "vin": [
    {
      "txid": "2ceab35263aaae5fef0c7ed925fa021c906c835202da8aa665534a72a4fad619",
      "vout": 0,
      "prevout": {
        "scriptpubkey": "0014062e65d7005eedbfe7f9cdc572c3f3be5be2e9bb",
        "scriptpubkey_asm": "OP_0 OP_PUSHBYTES_20 062e65d7005eedbfe7f9cdc572c3f3be5be2e9bb",
        "scriptpubkey_type": "v0_p2wpkh",
        "scriptpubkey_address": "bc1qqchxt4cqtmkmleleehzh9slnhed796dmehc2r6",
        "value": 366088
      },
      "scriptsig": "",
      "scriptsig_asm": "",
      "witness": [
        "3045022100e0207799a09e4ed27fc7b7538fbea341dd2dcc94f81910c157ef53673d7ed588022040ed966592d9f55eca7e9173357158c8c415e5e7b4a9da2ae20193fc07c8a4dd01",
        "027d2baaafb9a8ce6ec813b35c6f6b105a2c69aa80e2750879222233102cf0c0bf"
      ],
      "is_coinbase": false,
      "sequence": 4294967295
    },
    {
      "txid": "d11d3b14a8d8d5979dc6645a3e12dfb3718452b906a000944c6f8e6212e8426d",
      "vout": 2,
      "prevout": {
        "scriptpubkey": "001446d787ff665963f3941c8b56c7dec406c0133ce3",
        "scriptpubkey_asm": "OP_0 OP_PUSHBYTES_20 46d787ff665963f3941c8b56c7dec406c0133ce3",
        "scriptpubkey_type": "v0_p2wpkh",
        "scriptpubkey_address": "bc1qgmtc0lmxt93l89qu3dtv0hkyqmqpx08rc4y06e",
        "value": 1433524
      },
      "scriptsig": "",
      "scriptsig_asm": "",
      "witness": [
        "3044022049bc3eba403ce93ee7da354814ba13ef57f7c32c719b255428262cf5c03ea9f902201a4416921bb141c95270532fe743e0a2492eff4f016104cbd3ad2bb81b2e557e01",
        "0259860c29f789f8cedbb172874f42027997bf70b88dc85181b83584780527e764"
      ],
      "is_coinbase": false,
      "sequence": 4294967295
    },
    {
      "txid": "c60040362021cfb399c0437843df6151cbfbb3ef158ecda6016a45108c47ee80",
      "vout": 0,
      "prevout": {
        "scriptpubkey": "00141eaa800075f61461e30088cc747b70721d6ccc70",
        "scriptpubkey_asm": "OP_0 OP_PUSHBYTES_20 1eaa800075f61461e30088cc747b70721d6ccc70",
        "scriptpubkey_type": "v0_p2wpkh",
        "scriptpubkey_address": "bc1qr64gqqr47c2xrccq3rx8g7mswgwkenrs8558c7",
        "value": 1399840
      },
      "scriptsig": "",
      "scriptsig_asm": "",
      "witness": [
        "304402202630b324d05e274658981157a6c7a059fea83afdaecbb69c18e9d4c6020464be0220445883c69904558dcb559a535355f35b8879d334cecac568ea323dddeefd2a2301",
        "02c0aacc1c0096df3485d8c15354ec03195d84afb9f94da3cdeb166e1463769704"
      ],
      "is_coinbase": false,
      "sequence": 4294967295
    }
  ],
  "vout": [
    {
      "scriptpubkey": "a9144953192e50b73c683728b0fbfa0f25784fab8de187",
      "scriptpubkey_asm": "OP_HASH160 OP_PUSHBYTES_20 4953192e50b73c683728b0fbfa0f25784fab8de1 OP_EQUAL",
      "scriptpubkey_type": "p2sh",
      "scriptpubkey_address": "38NioKgLR95trum14Ce1gpk914MGeJx54x",
      "value": 3008781
    },
    {
      "scriptpubkey": "0014898d33b1b34f298a3e3cd8eacc7245fd8a32dd92",
      "scriptpubkey_asm": "OP_0 OP_PUSHBYTES_20 898d33b1b34f298a3e3cd8eacc7245fd8a32dd92",
      "scriptpubkey_type": "v0_p2wpkh",
      "scriptpubkey_address": "bc1q3xxn8vdnfu5c503umr4vcuj9lk9r9hvjzz7ysr",
      "value": 185799
    }
  ],
  "size": 520,
  "weight": 1108,
  "fee": 4872,
  "status": {
    "confirmed": true,
    "block_height": 834638,
    "block_hash": "000000000000000000025f742c626208ac87e0b7d15054abb4a19ca2d735a54e",
    "block_time": 1710405325
  },
  "hex": "0200000000010319d6faa4724a5365a68ada0252836c901c02fa25d97e0cef5faeaa6352b3ea2c0000000000ffffffff6d42e812628e6f4c9400a006b9528471b3df123e5a64c69d97d5d8a8143b1dd10200000000ffffffff80ee478c10456a01a6cd8e15efb3fbcb5161df437843c099b3cf2120364000c60000000000ffffffff020de92d000000000017a9144953192e50b73c683728b0fbfa0f25784fab8de187c7d5020000000000160014898d33b1b34f298a3e3cd8eacc7245fd8a32dd9202483045022100e0207799a09e4ed27fc7b7538fbea341dd2dcc94f81910c157ef53673d7ed588022040ed966592d9f55eca7e9173357158c8c415e5e7b4a9da2ae20193fc07c8a4dd0121027d2baaafb9a8ce6ec813b35c6f6b105a2c69aa80e2750879222233102cf0c0bf02473044022049bc3eba403ce93ee7da354814ba13ef57f7c32c719b255428262cf5c03ea9f902201a4416921bb141c95270532fe743e0a2492eff4f016104cbd3ad2bb81b2e557e01210259860c29f789f8cedbb172874f42027997bf70b88dc85181b83584780527e7640247304402202630b324d05e274658981157a6c7a059fea83afdaecbb69c18e9d4c6020464be0220445883c69904558dcb559a535355f35b8879d334cecac568ea323dddeefd2a23012102c0aacc1c0096df3485d8c15354ec03195d84afb9f94da3cdeb166e146376970400000000"
}