{
  "txid": "ec8e91a3180c8d0ca9f4524c27ee9241e737c1638d086bf75c62dcc31bd3695c",
  "version": 1,
  "locktime": 0,
  "vin": [
    {
      "txid": "cc0aec256975ddd5d5b562ab180ba88a5d34d48a023ad62a2fa4c3ac0b660d2a",
      "vout": 1,
      "prevout": {
        "scriptpubkey": "001469147adde5b14f7486c796d385ce94421fe70daf",
        "scriptpubkey_asm": "OP_0 OP_PUSHBYTES_20 69147adde5b14f7486c796d385ce94421fe70daf",
        "scriptpubkey_type": "v0_p2wpkh",
        "scriptpubkey_address": "bc1qdy284h09k98hfpk8jmfctn55gg07wrd0lwdam7",
        "value": 371539
      },
      "scriptsig": "",
      "scriptsig_asm": "",
      "witness": [
        "304402205abc5bc2b5fdd2ad06f87f241333ce19b573cff286b992d7d4838c74f9b2aaa002201ea9e92439a2896861335eaadf1ab580e618dfc8f9a8819ad4b8f2f3ea96b3a301",
        "0337f4acfb3dec6bb07313d71425ceaf092ab4d02f5034c33159d62f08ec923972"
      ],
      "is_coinbase": false,
      "sequence": 0
    }
  ],
  "vout": [
    {
      "scriptpubkey": "a914bbcbb97cc064f78563fc219a9c93b82a30702f8987",
      "scriptpubkey_asm": "OP_HASH160 OP_PUSHBYTES_20 bbcbb97cc064f78563fc219a9c93b82a30702f89 OP_EQUAL",
      "scriptpubkey_type": "p2sh",
      "scriptpubkey_address": "3JozLSrf2fE5ghY6mNW2dpGCB3KqDyADNT",
      "value": 20449
    },
    {
      "scriptpubkey": "0014047e44a8a78ab19e4fcc101c879c6ba4a0d90efd",
      "scriptpubkey_asm": "OP_0 OP_PUSHBYTES_20 047e44a8a78ab19e4fcc101c879c6ba4a0d90efd",
      "scriptpubkey_type": "v0_p2wpkh",
      "scriptpubkey_address": "bc1qq3lyf29832ceun7vzqwg08rt5jsdjrhalx0clc",
      "value": 347269
    }
  ],
  "size": 223,
  "weight": 565,
  "fee": 3821,
  "status": {
    "confirmed": true,
    "block_height": 834638,
    "block_hash": "000000000000000000025f742c626208ac87e0b7d15054abb4a19ca2d735a54e",
    "block_time": 1710405325
  },
  "hex": "010000000001012a0d660bacc3a42f2ad63a028ad4345d8aa80b18ab62b5d5d5dd756925ec0acc01000000000000000002e14f00000000000017a914bbcbb97cc064f78563fc219a9c93b82a30702f8987854c050000000000160014047e44a8a78ab19e4fcc101c879c6ba4a0d90efd0247304402205abc5bc2b5fdd2ad06f87f241333ce19b573cff286b992d7d4838c74f9b2aaa002201ea9e92439a2896861335eaadf1ab580e618dfc8f9a8819ad4b8f2f3ea96b3a301210337f4acfb3dec6bb07313d71425ceaf092ab4d02f5034c33159d62f08ec92397200000000"
}