{
  "txid": "ec90cbd0bbb52f34035e7f026612f188faac34da94edaf546a13b8fc6355d39c",
  "version": 2,
  "locktime": 0,
  "vin": [
    {
      "txid": "bfe19019da841e81cd808923b842e832df6a937fb789d7e620f2701d7249db69",
      "vout": 0,
      "prevout": {
        "scriptpubkey": "51200a39130c34e07380f6f942631c03b6daf23cc1f7ee22512c35fc5d62744e6f24",
        "scriptpubkey_asm": "OP_PUSHNUM_1 OP_PUSHBYTES_32 0a39130c34e07380f6f942631c03b6daf23cc1f7ee22512c35fc5d62744e6f24",
        "scriptpubkey_type": "v1_p2tr",
        "scriptpubkey_address": "bc1ppgu3xrp5upecpahegf33cqakmteres0hac39ztp4l3wkyazwdujq59fg3d",
        "value": 546
      },
      "scriptsig": "",
      "scriptsig_asm": "",
      "witness": [
        "56ab05227d663e75110051ab8e6d4d77bf446df21aa3896f1ad77de7db82924aa055b19f27cc07bc53171752d314aac3fac8bcbba258c4a479c08eefd33769bf"
      ],
      "is_coinbase": false,
      "sequence": 4294967295
    },
    {
      "txid": "f8115a1b958fe276baa599d951a8bb118f6317c3c5550000aee5487a5eb8a8bc",
      "vout": 1,
      "prevout": {
        "scriptpubkey": "51200a39130c34e07380f6f942631c03b6daf23cc1f7ee22512c35fc5d62744e6f24",
        "scriptpubkey_asm": "OP_PUSHNUM_1 OP_PUSHBYTES_32 0a39130c34e07380f6f942631c03b6daf23cc1f7ee22512c35fc5d62744e6f24",
        "scriptpubkey_type": "v1_p2tr",
        "scriptpubkey_address": "bc1ppgu3xrp5upecpahegf33cqakmteres0hac39ztp4l3wkyazwdujq59fg3d",
        "value": 249129
      },
      "scriptsig": "",
      "scriptsig_asm": "",
      "witness": [
        "321558296ad2f5d0f00aab7ec8757eb3ae553aa21fcdd9806613ef06b97efecd63ec1a21f74f71d56b055f8ec3424a1e484a4c58b0da3dd5d87544b9989b35bb"
      ],
      "is_coinbase": false,
      "sequence": 4294967295
    }
  ],
  "vout": [
    {
      "scriptpubkey": "512043cc7c888147d7fb618c5bab5ef08ed83ab370e0d94cbe077ee185383de38053",
      "scriptpubkey_asm": "OP_PUSHNUM_1 OP_PUSHBYTES_32 43cc7c888147d7fb618c5bab5ef08ed83ab370e0d94cbe077ee185383de38053",
      "scriptpubkey_type": "v1_p2tr",
      "scriptpubkey_address": "bc1pg0x8ezypgltlkcvvtw44auywmqatxu8qm9xtupm7uxzns00rspfsfp7xlf",
      "value": 546
    },
    {
      "scriptpubkey": "51200a39130c34e07380f6f942631c03b6daf23cc1f7ee22512c35fc5d62744e6f24",
      "scriptpubkey_asm": "OP_PUSHNUM_1 OP_PUSHBYTES_32 0a39130c34e07380f6f942631c03b6daf23cc1f7ee22512c35fc5d62744e6f24",
      "scriptpubkey_type": "v1_p2tr",
      "scriptpubkey_address": "bc1ppgu3xrp5upecpahegf33cqakmteres0hac39ztp4l3wkyazwdujq59fg3d",
      "value": 246161
    }
  ],
  "size": 312,
  "weight": 846,
  "fee": 2968,
  "status": {
    "confirmed": true,
    "block_height": 834552,
    "block_hash": "00000000000000000001dd0468a70c94f619251d286585cff57aeb4bd9ede330",
    "block_time": 1710355598
  },
  "hex": "0200000000010269db49721d70f220e6d789b77f936adf32e842b8238980cd811e84da1990e1bf0000000000ffffffffbca8b85e7a48e5ae000055c5c317638f11bba851d999a5ba76e28f951b5a11f80100000000ffffffff02220200000000000022512043cc7c888147d7fb618c5bab5ef08ed83ab370e0d94cbe077ee185383de3805391c10300000000002251200a39130c34e07380f6f942631c03b6daf23cc1f7ee22512c35fc5d62744e6f24014056ab05227d663e75110051ab8e6d4d77bf446df21aa3896f1ad77de7db82924aa055b19f27cc07bc53171752d314aac3fac8bcbba258c4a479c08eefd33769bf0140321558296ad2f5d0f00aab7ec8757eb3ae553aa21fcdd9806613ef06b97efecd63ec1a21f74f71d56b055f8ec3424a1e484a4c58b0da3dd5d87544b9989b35bb00000000"
}