{
  "txid": "ecb4f12693b70c6f51d52ab3d4642308462da25786bcbb3d0fa44ad759dd47e4",
  "version": 2,
  "locktime": 0,
  "vin": [
    {
      "txid": "d0f1a4438d726509ff285049ae94aaafe9fa371f107b3caec26e2816cd65274a",
      "vout": 6,
      "prevout": {
        "scriptpubkey": "51203a94fd5bc650b4bf903185bf791dd7916de9575fd5153621fb0e4e480430218c",
        "scriptpubkey_asm": "OP_PUSHNUM_1 OP_PUSHBYTES_32 3a94fd5bc650b4bf903185bf791dd7916de9575fd5153621fb0e4e480430218c",
        "scriptpubkey_type": "v1_p2tr",
        "scriptpubkey_address": "bc1p82206k7x2z6tlyp3sklhj8whj9k7j46l652nvg0mpe8ysppsyxxqu3mxqm",
        "value": 24130
      },
      "scriptsig": "",
      "scriptsig_asm": "",
      "witness": [
        "d2258a6457d0da727a0f53b8e4376a4ff466e8dc1b1fc68895e7f89d8c2ee3822c99c6f905565b0bdb624627b773d4dafa0dd488c4ec8657412348686e79bb3e"
      ],
      "is_coinbase": false,
      "sequence": 4294967295
    }
  ],
  "vout": [
    {
      "scriptpubkey": "512066851279a50d9dfa5c31b7d87e2a24b7bebe87c213098ac0bf6ba6d289f3a60c",
      "scriptpubkey_asm": "OP_PUSHNUM_1 OP_PUSHBYTES_32 66851279a50d9dfa5c31b7d87e2a24b7bebe87c213098ac0bf6ba6d289f3a60c",
      "scriptpubkey_type": "v1_p2tr",
      "scriptpubkey_address": "bc1pv6z3y7d9pkwl5hp3klv8u23yk7ltap7zzvyc4s9ldwnd9z0n5cxquyjmst",
      "value": 5000
    },
    {
      "scriptpubkey": "51203a94fd5bc650b4bf903185bf791dd7916de9575fd5153621fb0e4e480430218c",
      "scriptpubkey_asm": "OP_PUSHNUM_1 OP_PUSHBYTES_32 3a94fd5bc650b4bf903185bf791dd7916de9575fd5153621fb0e4e480430218c",
      "scriptpubkey_type": "v1_p2tr",
      "scriptpubkey_address": "bc1p82206k7x2z6tlyp3sklhj8whj9k7j46l652nvg0mpe8ysppsyxxqu3mxqm",
      "value": 16820
    }
  ],
  "size": 205,
  "weight": 616,
  "fee": 2310,
  "status": {
    "confirmed": true,
    "block_height": 834460,
    "block_hash": "00000000000000000000484a79b643b2524bbce82e5d8a442013fa5b8905ed98",
    "block_time": 1710307468
  },
  "hex": "020000000001014a2765cd16286ec2ae3c7b101f37fae9afaa94ae495028ff0965728d43a4f1d00600000000ffffffff02881300000000000022512066851279a50d9dfa5c31b7d87e2a24b7bebe87c213098ac0bf6ba6d289f3a60cb4410000000000002251203a94fd5bc650b4bf903185bf791dd7916de9575fd5153621fb0e4e480430218c0140d2258a6457d0da727a0f53b8e4376a4ff466e8dc1b1fc68895e7f89d8c2ee3822c99c6f905565b0bdb624627b773d4dafa0dd488c4ec8657412348686e79bb3e00000000"
}