{
  "txid": "ecc619c9d1dad94414049c3ad951d244ea9b29e6d3b099e756dc26495653757d",
  "version": 2,
  "locktime": 0,
  "vin": [
    {
      "txid": "20271647c42ef3bc01693ac4fa670e102d9f10e3050c47e12fd287546876acd8",
      "vout": 0,
      "prevout": {
        "scriptpubkey": "5120378289a52ae36923138079e624148b8f39ef56aa087593cbf3fe28327a32a4b0",
        "scriptpubkey_asm": "OP_PUSHNUM_1 OP_PUSHBYTES_32 378289a52ae36923138079e624148b8f39ef56aa087593cbf3fe28327a32a4b0",
        "scriptpubkey_type": "v1_p2tr",
        "scriptpubkey_address": "bc1px7pgnff2ud5jxyuq08nzg9yt3uu77442pp6e8jlnlc5ry73j5jcq9pvnz0",
        "value": 546
      },
      "scriptsig": "",
      "scriptsig_asm": "",
      "witness": [
        "3c5d4678ec8949a49250b805a93f765fd8935403f53a05ba0c8e981f3e514da684e9c4c2984c2bc1eff66be83e3fa181b78bda45210123dfe67e504b966fc343"
      ],
      "is_coinbase": false,
      "sequence": 4294967293
    },
    {
      "txid": "0174210ec08a6799ce0130afe6e596d438a67402a12d6b181759e5c2c05644a9",
      "vout": 0,
      "prevout": {
        "scriptpubkey": "5120378289a52ae36923138079e624148b8f39ef56aa087593cbf3fe28327a32a4b0",
        "scriptpubkey_asm": "OP_PUSHNUM_1 OP_PUSHBYTES_32 378289a52ae36923138079e624148b8f39ef56aa087593cbf3fe28327a32a4b0",
        "scriptpubkey_type": "v1_p2tr",
        "scriptpubkey_address": "bc1px7pgnff2ud5jxyuq08nzg9yt3uu77442pp6e8jlnlc5ry73j5jcq9pvnz0",
        "value": 41000
      },
      "scriptsig": "",
      "scriptsig_asm": "",
      "witness": [
        "760ea7f4f83f44fd89a0de08906432d7bc018a95b6bcc923039f4b7d19c220c17213f1bd7e172d1b01d8bec6a25d3273e9b44ac1b3e43175dde99916cd91cfb5"
      ],
      "is_coinbase": false,
      "sequence": 4294967293
    }
  ],
  "vout": [
    {
      "scriptpubkey": "0014c6e54fdb9bc93049c69f362241c5568a45cc9fc4",
      "scriptpubkey_asm": "OP_0 OP_PUSHBYTES_20 c6e54fdb9bc93049c69f362241c5568a45cc9fc4",
      "scriptpubkey_type": "v0_p2wpkh",
      "scriptpubkey_address": "bc1qcmj5lkumeycyn35lxc3yr32k3fzue87yrjrna6",
      "value": 546
    },
    {
      "scriptpubkey": "0014fb7a185fc47428a9992c09f70c6add47a5c19223",
      "scriptpubkey_asm": "OP_0 OP_PUSHBYTES_20 fb7a185fc47428a9992c09f70c6add47a5c19223",
      "scriptpubkey_type": "v0_p2wpkh",
      "scriptpubkey_address": "bc1qldapsh7yws52nxfvp8msc6kag7jury3rxrw4dm",
      "value": 30000
    },
    {
      "scriptpubkey": "5120378289a52ae36923138079e624148b8f39ef56aa087593cbf3fe28327a32a4b0",
      "scriptpubkey_asm": "OP_PUSHNUM_1 OP_PUSHBYTES_32 378289a52ae36923138079e624148b8f39ef56aa087593cbf3fe28327a32a4b0",
      "scriptpubkey_type": "v1_p2tr",
      "scriptpubkey_address": "bc1px7pgnff2ud5jxyuq08nzg9yt3uu77442pp6e8jlnlc5ry73j5jcq9pvnz0",
      "value": 5319
    }
  ],
  "size": 331,
  "weight": 922,
  "fee": 5681,
  "status": {
    "confirmed": true,
    "block_height": 834638,
    "block_hash": "000000000000000000025f742c626208ac87e0b7d15054abb4a19ca2d735a54e",
    "block_time": 1710405325
  },
  "hex": "02000000000102d8ac76685487d22fe1470c05e3109f2d100e67fac43a6901bcf32ec4471627200000000000fdffffffa94456c0c2e55917186b2da10274a638d496e5e6af3001ce99678ac00e2174010000000000fdffffff032202000000000000160014c6e54fdb9bc93049c69f362241c5568a45cc9fc43075000000000000160014fb7a185fc47428a9992c09f70c6add47a5c19223c714000000000000225120378289a52ae36923138079e624148b8f39ef56aa087593cbf3fe28327a32a4b001403c5d4678ec8949a49250b805a93f765fd8935403f53a05ba0c8e981f3e514da684e9c4c2984c2bc1eff66be83e3fa181b78bda45210123dfe67e504b966fc3430140760ea7f4f83f44fd89a0de08906432d7bc018a95b6bcc923039f4b7d19c220c17213f1bd7e172d1b01d8bec6a25d3273e9b44ac1b3e43175dde99916cd91cfb500000000"
}