{
  "txid": "ecca381fd85cccf1a7b195e45a11e616b5361739e056f05918e6c4ed1a9906db",
  "version": 1,
  "locktime": 0,
  "vin": [
    {
      "txid": "77a1ea4efb12574319ee59484ed2977c80319d586d984646f515b53267fa81ca",
      "vout": 2,
      "prevout": {
        "scriptpubkey": "a914e38883e0deaa5ad20c3a895eb9fb98e197c2c2cc87",
        "scriptpubkey_asm": "OP_HASH160 OP_PUSHBYTES_20 e38883e0deaa5ad20c3a895eb9fb98e197c2c2cc OP_EQUAL",
        "scriptpubkey_type": "p2sh",
        "scriptpubkey_address": "3NS6rKzD8yLk8699ekatrH2Q4KhsqUFmPm",
        "value": 1699237
      },
      "scriptsig": "160014ee1f83b2d962a13fd04248316931edeb36b75e82",
      "scriptsig_asm": "OP_PUSHBYTES_22 0014ee1f83b2d962a13fd04248316931edeb36b75e82",
      "witness": [
        "3045022100bf4dc4d395c133ca39bff5dc277a17c4c0cfb2bdd6f2cafae492e72de6e9c05b02200cc13ceb492a43adda96a0072328b5f8dbf2810a9d5e6e76c41ca9f1170c6e1601",
        "0338602dccecdde36cfb1fa2ae5f946d432b69a7ec01e3c4cd94e2acb7fd413cb8"
      ],
      "is_coinbase": false,
      "sequence": 4294967293,
      "inner_redeemscript_asm": "OP_0 OP_PUSHBYTES_20 ee1f83b2d962a13fd04248316931edeb36b75e82"
    }
  ],
  "vout": [
    {
      "scriptpubkey": "5120db2ac4225e31d14a1dcc2e750d0b06921e290dc2b94829ba485a3f9540b8ceb4",
      "scriptpubkey_asm": "OP_PUSHNUM_1 OP_PUSHBYTES_32 db2ac4225e31d14a1dcc2e750d0b06921e290dc2b94829ba485a3f9540b8ceb4",
      "scriptpubkey_type": "v1_p2tr",
      "scriptpubkey_address": "bc1pmv4vggj7x8g558wv9e6s6zcxjg0zjrwzh9yznwjgtgle2s9ce66q0c8qgx",
      "value": 3085
    },
    {
      "scriptpubkey": "5120f667578b85bed256c7fcb9f2cda488d5281e52ca42e7dd4bc21e95149562f09f",
      "scriptpubkey_asm": "OP_PUSHNUM_1 OP_PUSHBYTES_32 f667578b85bed256c7fcb9f2cda488d5281e52ca42e7dd4bc21e95149562f09f",
      "scriptpubkey_type": "v1_p2tr",
      "scriptpubkey_address": "bc1p7en40zu9hmf9d3luh8evmfyg655pu5k2gtna6j7zr623f9tz7z0stfnwav",
      "value": 2150
    },
    {
      "scriptpubkey": "a914e38883e0deaa5ad20c3a895eb9fb98e197c2c2cc87",
      "scriptpubkey_asm": "OP_HASH160 OP_PUSHBYTES_20 e38883e0deaa5ad20c3a895eb9fb98e197c2c2cc OP_EQUAL",
      "scriptpubkey_type": "p2sh",
      "scriptpubkey_address": "3NS6rKzD8yLk8699ekatrH2Q4KhsqUFmPm",
      "value": 1690702
    }
  ],
  "size": 302,
  "weight": 878,
  "fee": 3300,
  "status": {
    "confirmed": true,
    "block_height": 834638,
    "block_hash": "000000000000000000025f742c626208ac87e0b7d15054abb4a19ca2d735a54e",
    "block_time": 1710405325
  },
  "hex": "01000000000101ca81fa6732b515f54646986d589d31807c97d24e4859ee19435712fb4eeaa1770200000017160014ee1f83b2d962a13fd04248316931edeb36b75e82fdffffff030d0c000000000000225120db2ac4225e31d14a1dcc2e750d0b06921e290dc2b94829ba485a3f9540b8ceb46608000000000000225120f667578b85bed256c7fcb9f2cda488d5281e52ca42e7dd4bc21e95149562f09f4ecc19000000000017a914e38883e0deaa5ad20c3a895eb9fb98e197c2c2cc8702483045022100bf4dc4d395c133ca39bff5dc277a17c4c0cfb2bdd6f2cafae492e72de6e9c05b02200cc13ceb492a43adda96a0072328b5f8dbf2810a9d5e6e76c41ca9f1170c6e1601210338602dccecdde36cfb1fa2ae5f946d432b69a7ec01e3c4cd94e2acb7fd413cb800000000"
}