{
  "txid": "eccc616bccda53868b317cc2574238e06f132e1d2e8b7545ea36fc7fb6968506",
  "version": 1,
  "locktime": 0,
  "vin": [
    {
      "txid": "afbbbb571645d42e856a29750f6f629e734497b3b0d78cb9858ecf4acb27927a",
      "vout": 1,
      "prevout": {
        "scriptpubkey": "00144938e5f25d806b4a0d5c735b7c090d4021dc9ac8",
        "scriptpubkey_asm": "OP_0 OP_PUSHBYTES_20 4938e5f25d806b4a0d5c735b7c090d4021dc9ac8",
        "scriptpubkey_type": "v0_p2wpkh",
        "scriptpubkey_address": "bc1qfyuwtujasp455r2uwddhczgdgqsaexkghmd62u",
        "value": 393188
      },
      "scriptsig": "",
      "scriptsig_asm": "",
      "witness": [
        "304402206422e077a6ba6dd48661eea2d7365e2fc55843e58128b809453f76ca92b9c85e02200117426672b38f773f5b5d487e7b110b0f2ef9e430818361c306828df320e90501",
        "03025b6e1cf08e378352689c74f27c23d93938586dbfd8e59cfd75c7d8e5549560"
      ],
      "is_coinbase": false,
      "sequence": 4294967295
    }
  ],
  "vout": [
    {
      "scriptpubkey": "00143f4d42f666ff0ef78b8c34ef7097886485daadec",
      "scriptpubkey_asm": "OP_0 OP_PUSHBYTES_20 3f4d42f666ff0ef78b8c34ef7097886485daadec",
      "scriptpubkey_type": "v0_p2wpkh",
      "scriptpubkey_address": "bc1q8ax59anxlu800zuvxnhhp9ugvjza4t0vqlups0",
      "value": 390218
    }
  ],
  "size": 191,
  "weight": 437,
  "fee": 2970,
  "status": {
    "confirmed": true,
    "block_height": 834638,
    "block_hash": "000000000000000000025f742c626208ac87e0b7d15054abb4a19ca2d735a54e",
    "block_time": 1710405325
  },
  "hex": "010000000001017a9227cb4acf8e85b98cd7b0b39744739e626f0f75296a852ed4451657bbbbaf0100000000ffffffff014af40500000000001600143f4d42f666ff0ef78b8c34ef7097886485daadec0247304402206422e077a6ba6dd48661eea2d7365e2fc55843e58128b809453f76ca92b9c85e02200117426672b38f773f5b5d487e7b110b0f2ef9e430818361c306828df320e905012103025b6e1cf08e378352689c74f27c23d93938586dbfd8e59cfd75c7d8e554956000000000"
}