{
  "txid": "ecd6e7105c0abc459e93bd13da37d31266559b1408e8646ee65d792382c54e78",
  "version": 2,
  "locktime": 834637,
  "vin": [
    {
      "txid": "e83f5ced029563c566c0b87c015677926be192ea3dd9a7fc688d7e40425aa691",
      "vout": 1,
      "prevout": {
        "scriptpubkey": "a91472dc7304ceceab37e8653e8595447d9da696e43d87",
        "scriptpubkey_asm": "OP_HASH160 OP_PUSHBYTES_20 72dc7304ceceab37e8653e8595447d9da696e43d OP_EQUAL",
        "scriptpubkey_type": "p2sh",
        "scriptpubkey_address": "3CAM3VpjQniK1dU9qQwQcYKgS88m1jMssL",
        "value": 590980
      },
      "scriptsig": "1600147f448d506a235b3f5fc62ae3c584879c0939c2fb",
      "scriptsig_asm": "OP_PUSHBYTES_22 00147f448d506a235b3f5fc62ae3c584879c0939c2fb",
      "witness": [
        "304402200953d97d35eeac7e552bacec51f904b008a445488d2d63b1df34c1897b62916102202fe96652ac392647b20559dd733d194c373088f4da5f27d33c723e4b2755394b01",
        "02bd0e8c483f34e3a4c040e2123d92efa9b1a0a6608074f6baead81eb60a48de90"
      ],
      "is_coinbase": false,
      "sequence": 4294967293,
      "inner_redeemscript_asm": "OP_0 OP_PUSHBYTES_20 7f448d506a235b3f5fc62ae3c584879c0939c2fb"
    }
  ],
  "vout": [
    {
      "scriptpubkey": "a914b3d8a6485c7b97bccd347fb838c0fa1285ab5b1787",
      "scriptpubkey_asm": "OP_HASH160 OP_PUSHBYTES_20 b3d8a6485c7b97bccd347fb838c0fa1285ab5b17 OP_EQUAL",
      "scriptpubkey_type": "p2sh",
      "scriptpubkey_address": "3J5xQxNPXQhieQxMrcP3pYXSnED25spcSN",
      "value": 58548
    },
    {
      "scriptpubkey": "a914b056ce0fe258951b1346d51d28415d61024e535487",
      "scriptpubkey_asm": "OP_HASH160 OP_PUSHBYTES_20 b056ce0fe258951b1346d51d28415d61024e5354 OP_EQUAL",
      "scriptpubkey_type": "p2sh",
      "scriptpubkey_address": "3HmQqconHdqLTz5L8SsxVEJy7yxUZ6HyhF",
      "value": 529788
    }
  ],
  "size": 247,
  "weight": 661,
  "fee": 2644,
  "status": {
    "confirmed": true,
    "block_height": 834638,
    "block_hash": "000000000000000000025f742c626208ac87e0b7d15054abb4a19ca2d735a54e",
    "block_time": 1710405325
  },
  "hex": "0200000000010191a65a42407e8d68fca7d93dea92e16b927756017cb8c066c5639502ed5c3fe801000000171600147f448d506a235b3f5fc62ae3c584879c0939c2fbfdffffff02b4e400000000000017a914b3d8a6485c7b97bccd347fb838c0fa1285ab5b17877c1508000000000017a914b056ce0fe258951b1346d51d28415d61024e5354870247304402200953d97d35eeac7e552bacec51f904b008a445488d2d63b1df34c1897b62916102202fe96652ac392647b20559dd733d194c373088f4da5f27d33c723e4b2755394b012102bd0e8c483f34e3a4c040e2123d92efa9b1a0a6608074f6baead81eb60a48de904dbc0c00"
}