{
  "txid": "ece104f0b952dae0a2eba0a757ac135eea1de09dcb1fcf7a41b0a575ef561659",
  "version": 1,
  "locktime": 0,
  "vin": [
    {
      "txid": "1806321062d60955674fd2384f41a0fe57cd08ed0475458d7ae910f3639d7a12",
      "vout": 0,
      "prevout": {
        "scriptpubkey": "0014c061135c681de8e5e1e077fe42dde5f0993af3ad",
        "scriptpubkey_asm": "OP_0 OP_PUSHBYTES_20 c061135c681de8e5e1e077fe42dde5f0993af3ad",
        "scriptpubkey_type": "v0_p2wpkh",
        "scriptpubkey_address": "bc1qcps3xhrgrh5wtc0qwlly9h097zvn4uad5uej2w",
        "value": 68850
      },
      "scriptsig": "",
      "scriptsig_asm": "",
      "witness": [
        "304402200f8794a2eb40db147477240bfa38daeca6bc773b9256424f8a03836480a78e590220747bdc4384b7483304c1aba77401923b9c7451fa0d58ccad914adda867685b1d01",
        "03a7cf56032eefd32f2d008b48516d1757fb03bb988ef2baebe85d26a7ac15247d"
      ],
      "is_coinbase": false,
      "sequence": 4294967295
    }
  ],
  "vout": [
    {
      "scriptpubkey": "00145dec435d44413a51c9d307ed4b601c5be120a431",
      "scriptpubkey_asm": "OP_0 OP_PUSHBYTES_20 5dec435d44413a51c9d307ed4b601c5be120a431",
      "scriptpubkey_type": "v0_p2wpkh",
      "scriptpubkey_address": "bc1qthkyxh2ygya9rjwnqlk5kcqut0sjpfp3sj4e5u",
      "value": 65880
    }
  ],
  "size": 191,
  "weight": 437,
  "fee": 2970,
  "status": {
    "confirmed": true,
    "block_height": 834638,
    "block_hash": "000000000000000000025f742c626208ac87e0b7d15054abb4a19ca2d735a54e",
    "block_time": 1710405325
  },
  "hex": "01000000000101127a9d63f310e97a8d457504ed08cd57fea0414f38d24f675509d662103206180000000000ffffffff0158010100000000001600145dec435d44413a51c9d307ed4b601c5be120a4310247304402200f8794a2eb40db147477240bfa38daeca6bc773b9256424f8a03836480a78e590220747bdc4384b7483304c1aba77401923b9c7451fa0d58ccad914adda867685b1d012103a7cf56032eefd32f2d008b48516d1757fb03bb988ef2baebe85d26a7ac15247d00000000"
}