{
  "txid": "ece239ce85e1173f39960b09751b00bbe089d59353ae7f3666f5ea22879dfc1a",
  "version": 2,
  "locktime": 0,
  "vin": [
    {
      "txid": "a21c141e50d64afbc46f289f2573c049859bfb3f29e12ca33babc64a850d7c7d",
      "vout": 1,
      "prevout": {
        "scriptpubkey": "5120754a37b51ed9348bfd489b85d6a7399aaa58a0aec1c40f66314794cc15622c8b",
        "scriptpubkey_asm": "OP_PUSHNUM_1 OP_PUSHBYTES_32 754a37b51ed9348bfd489b85d6a7399aaa58a0aec1c40f66314794cc15622c8b",
        "scriptpubkey_type": "v1_p2tr",
        "scriptpubkey_address": "bc1pw49r0dg7my6ghl2gnwzadfeen2493g9wc8zq7e33g72vc9tz9j9scvr55g",
        "value": 115550
      },
      "scriptsig": "",
      "scriptsig_asm": "",
      "witness": [
        "f9cd4b38d2dfc3998880790215ba094ee26333051fe9c8dde687d259470e1afe6fc3a7142fafb608f5dd53f9ea57a340a7bff2dbab8a47351e2c721526a701b7"
      ],
      "is_coinbase": false,
      "sequence": 4294967295
    },
    {
      "txid": "bf2786c783368fb37ed14c9e1244e1ea2282cf43abb28e0ca203e8a18f932f7e",
      "vout": 1,
      "prevout": {
        "scriptpubkey": "5120754a37b51ed9348bfd489b85d6a7399aaa58a0aec1c40f66314794cc15622c8b",
        "scriptpubkey_asm": "OP_PUSHNUM_1 OP_PUSHBYTES_32 754a37b51ed9348bfd489b85d6a7399aaa58a0aec1c40f66314794cc15622c8b",
        "scriptpubkey_type": "v1_p2tr",
        "scriptpubkey_address": "bc1pw49r0dg7my6ghl2gnwzadfeen2493g9wc8zq7e33g72vc9tz9j9scvr55g",
        "value": 84574
      },
      "scriptsig": "",
      "scriptsig_asm": "",
      "witness": [
        "c3b5427f33630441754fead9f1b887f355c2426637a078f73b89c62792bb1553c7b3845f6fc22c96b950c7c21bd4b3a334484a63fc89d17c14c35c0e793234fa"
      ],
      "is_coinbase": false,
      "sequence": 4294967295
    }
  ],
  "vout": [
    {
      "scriptpubkey": "512091458ac69f497b5a757ddb3e14e370913b95fc8f3bf7355f8f210fe20306d991",
      "scriptpubkey_asm": "OP_PUSHNUM_1 OP_PUSHBYTES_32 91458ac69f497b5a757ddb3e14e370913b95fc8f3bf7355f8f210fe20306d991",
      "scriptpubkey_type": "v1_p2tr",
      "scriptpubkey_address": "bc1pj9zc435lf9a45atamvlpfcmsjyaetly080mn2hu0yy87yqcxmxgs86tnts",
      "value": 120000
    },
    {
      "scriptpubkey": "5120754a37b51ed9348bfd489b85d6a7399aaa58a0aec1c40f66314794cc15622c8b",
      "scriptpubkey_asm": "OP_PUSHNUM_1 OP_PUSHBYTES_32 754a37b51ed9348bfd489b85d6a7399aaa58a0aec1c40f66314794cc15622c8b",
      "scriptpubkey_type": "v1_p2tr",
      "scriptpubkey_address": "bc1pw49r0dg7my6ghl2gnwzadfeen2493g9wc8zq7e33g72vc9tz9j9scvr55g",
      "value": 76951
    }
  ],
  "size": 312,
  "weight": 846,
  "fee": 3173,
  "status": {
    "confirmed": true,
    "block_height": 834460,
    "block_hash": "00000000000000000000484a79b643b2524bbce82e5d8a442013fa5b8905ed98",
    "block_time": 1710307468
  },
  "hex": "020000000001027d7c0d854ac6ab3ba32ce1293ffb9b8549c073259f286fc4fb4ad6501e141ca20100000000ffffffff7e2f938fa1e803a20c8eb2ab43cf8222eae144129e4cd17eb38f3683c78627bf0100000000ffffffff02c0d401000000000022512091458ac69f497b5a757ddb3e14e370913b95fc8f3bf7355f8f210fe20306d991972c010000000000225120754a37b51ed9348bfd489b85d6a7399aaa58a0aec1c40f66314794cc15622c8b0140f9cd4b38d2dfc3998880790215ba094ee26333051fe9c8dde687d259470e1afe6fc3a7142fafb608f5dd53f9ea57a340a7bff2dbab8a47351e2c721526a701b70140c3b5427f33630441754fead9f1b887f355c2426637a078f73b89c62792bb1553c7b3845f6fc22c96b950c7c21bd4b3a334484a63fc89d17c14c35c0e793234fa00000000"
}