{
  "txid": "ece39cd8aee2a62caa3e9268f94c5b3d281512387ca7afcddd251e06f950f668",
  "version": 2,
  "locktime": 0,
  "vin": [
    {
      "txid": "53569b7f37e6237de242b721146fd85b98e649210ac73efaa855b6f0bf1838d3",
      "vout": 8,
      "prevout": {
        "scriptpubkey": "a914eaaaf4167c10e245643e21e66c2db211b434163787",
        "scriptpubkey_asm": "OP_HASH160 OP_PUSHBYTES_20 eaaaf4167c10e245643e21e66c2db211b4341637 OP_EQUAL",
        "scriptpubkey_type": "p2sh",
        "scriptpubkey_address": "3P5pqVDS6EjP2tRPZKrbqXNh68bTiogmws",
        "value": 600
      },
      "scriptsig": "1600140522e42e7c2b40828c5367e7e52f090894000566",
      "scriptsig_asm": "OP_PUSHBYTES_22 00140522e42e7c2b40828c5367e7e52f090894000566",
      "witness": [
        "3044022077650f223bcc0234304f9e25a18a717bce6970e2ddb2fcf98685437b2885613d0220474053c1219661ff456bff708fc5afd951ad8ea5e555a2c88647e4ca65422c9801",
        "039e1586446363eb213cecc5eb615a63b17cee443fa65b134d839d2b7f41ad7056"
      ],
      "is_coinbase": false,
      "sequence": 4294967295,
      "inner_redeemscript_asm": "OP_0 OP_PUSHBYTES_20 0522e42e7c2b40828c5367e7e52f090894000566"
    },
    {
      "txid": "53569b7f37e6237de242b721146fd85b98e649210ac73efaa855b6f0bf1838d3",
      "vout": 10,
      "prevout": {
        "scriptpubkey": "a914eaaaf4167c10e245643e21e66c2db211b434163787",
        "scriptpubkey_asm": "OP_HASH160 OP_PUSHBYTES_20 eaaaf4167c10e245643e21e66c2db211b4341637 OP_EQUAL",
        "scriptpubkey_type": "p2sh",
        "scriptpubkey_address": "3P5pqVDS6EjP2tRPZKrbqXNh68bTiogmws",
        "value": 600
      },
      "scriptsig": "1600140522e42e7c2b40828c5367e7e52f090894000566",
      "scriptsig_asm": "OP_PUSHBYTES_22 00140522e42e7c2b40828c5367e7e52f090894000566",
      "witness": [
        "3045022100da2297d84ebf47acbd2e1de91a904b85690a21666a12fad589c2abd535510af602202180f950034dd485c6ea346699319df5e10f76557dd6dbbc5cb450689308baf601",
        "039e1586446363eb213cecc5eb615a63b17cee443fa65b134d839d2b7f41ad7056"
      ],
      "is_coinbase": false,
      "sequence": 4294967295,
      "inner_redeemscript_asm": "OP_0 OP_PUSHBYTES_20 0522e42e7c2b40828c5367e7e52f090894000566"
    },
    {
      "txid": "f83385f6b979eff053add4088501048a3a4f7eef2dd41ab6f4b2b827e6156c08",
      "vout": 0,
      "prevout": {
        "scriptpubkey": "5120f53979267383cde4af84bc5de2fa2c6f05b710eccabdad542d1d769a0a4c9a5b",
        "scriptpubkey_asm": "OP_PUSHNUM_1 OP_PUSHBYTES_32 f53979267383cde4af84bc5de2fa2c6f05b710eccabdad542d1d769a0a4c9a5b",
        "scriptpubkey_type": "v1_p2tr",
        "scriptpubkey_address": "bc1p75uhjfnns0x7ftuyh3w7973vduzmwy8ve27664pdr4mf5zjvnfdskze8mh",
        "value": 546
      },
      "scriptsig": "",
      "scriptsig_asm": "",
      "witness": [
        "58de812728977bc6378adcde2a57952957a7e91c5212f3873882145a88276cd4a10d21bc87501d41054a188814fd8928f6c28bbd1a139c8f2f8a7ff0f39502af83"
      ],
      "is_coinbase": false,
      "sequence": 4294967295
    },
    {
      "txid": "468d812bf6adaa83f56f6f12a94a36ed4a1bfbbeffdf439dd19eb7af727f58ce",
      "vout": 2,
      "prevout": {
        "scriptpubkey": "a914eaaaf4167c10e245643e21e66c2db211b434163787",
        "scriptpubkey_asm": "OP_HASH160 OP_PUSHBYTES_20 eaaaf4167c10e245643e21e66c2db211b4341637 OP_EQUAL",
        "scriptpubkey_type": "p2sh",
        "scriptpubkey_address": "3P5pqVDS6EjP2tRPZKrbqXNh68bTiogmws",
        "value": 438800
      },
      "scriptsig": "1600140522e42e7c2b40828c5367e7e52f090894000566",
      "scriptsig_asm": "OP_PUSHBYTES_22 00140522e42e7c2b40828c5367e7e52f090894000566",
      "witness": [
        "3045022100f49ad9e0e783cd0fa470860755ec6c2185a0faa3c79b8e751cd643cb62aae7a802205688058300afa41d8a63259cca4e091b4a379212a3552c3b9eb2aac2d503fa1d01",
        "039e1586446363eb213cecc5eb615a63b17cee443fa65b134d839d2b7f41ad7056"
      ],
      "is_coinbase": false,
      "sequence": 4294967295,
      "inner_redeemscript_asm": "OP_0 OP_PUSHBYTES_20 0522e42e7c2b40828c5367e7e52f090894000566"
    },
    {
      "txid": "5d17aca990eed0a1b13d813d6c9d349c50e0f6a4e03ced25b2d5a4f6a9e30091",
      "vout": 2,
      "prevout": {
        "scriptpubkey": "a914eaaaf4167c10e245643e21e66c2db211b434163787",
        "scriptpubkey_asm": "OP_HASH160 OP_PUSHBYTES_20 eaaaf4167c10e245643e21e66c2db211b4341637 OP_EQUAL",
        "scriptpubkey_type": "p2sh",
        "scriptpubkey_address": "3P5pqVDS6EjP2tRPZKrbqXNh68bTiogmws",
        "value": 416910
      },
      "scriptsig": "1600140522e42e7c2b40828c5367e7e52f090894000566",
      "scriptsig_asm": "OP_PUSHBYTES_22 00140522e42e7c2b40828c5367e7e52f090894000566",
      "witness": [
        "304402206c55685fa8612a6fc616d005e47760e2965c6428f0c6b0991b655add49df882902201b904a990b384f287de1d6bfc34c56cd53e6af0955c662cf9e4be4c219200b8301",
        "039e1586446363eb213cecc5eb615a63b17cee443fa65b134d839d2b7f41ad7056"
      ],
      "is_coinbase": false,
      "sequence": 4294967295,
      "inner_redeemscript_asm": "OP_0 OP_PUSHBYTES_20 0522e42e7c2b40828c5367e7e52f090894000566"
    },
    {
      "txid": "fd62e089a2a3ffa0bf83a6f1c23cf51666112e3595141cf4742a38e931a8b107",
      "vout": 2,
      "prevout": {
        "scriptpubkey": "a914eaaaf4167c10e245643e21e66c2db211b434163787",
        "scriptpubkey_asm": "OP_HASH160 OP_PUSHBYTES_20 eaaaf4167c10e245643e21e66c2db211b4341637 OP_EQUAL",
        "scriptpubkey_type": "p2sh",
        "scriptpubkey_address": "3P5pqVDS6EjP2tRPZKrbqXNh68bTiogmws",
        "value": 408950
      },
      "scriptsig": "1600140522e42e7c2b40828c5367e7e52f090894000566",
      "scriptsig_asm": "OP_PUSHBYTES_22 00140522e42e7c2b40828c5367e7e52f090894000566",
      "witness": [
        "3045022100b68daa307ab553b56269b9dab878b3f79844c4796407d4908bf24f64dd2b7ba30220246f2ed8e9ccec684e58a4d655432fe48cfbd8665d1760263611f31e6510bdfd01",
        "039e1586446363eb213cecc5eb615a63b17cee443fa65b134d839d2b7f41ad7056"
      ],
      "is_coinbase": false,
      "sequence": 4294967295,
      "inner_redeemscript_asm": "OP_0 OP_PUSHBYTES_20 0522e42e7c2b40828c5367e7e52f090894000566"
    },
    {
      "txid": "382a5011f6594f808c32692ecc89b5737eccbbcce6acbc80603049867a6824e4",
      "vout": 2,
      "prevout": {
        "scriptpubkey": "a914eaaaf4167c10e245643e21e66c2db211b434163787",
        "scriptpubkey_asm": "OP_HASH160 OP_PUSHBYTES_20 eaaaf4167c10e245643e21e66c2db211b4341637 OP_EQUAL",
        "scriptpubkey_type": "p2sh",
        "scriptpubkey_address": "3P5pqVDS6EjP2tRPZKrbqXNh68bTiogmws",
        "value": 387060
      },
      "scriptsig": "1600140522e42e7c2b40828c5367e7e52f090894000566",
      "scriptsig_asm": "OP_PUSHBYTES_22 00140522e42e7c2b40828c5367e7e52f090894000566",
      "witness": [
        "304402203e869f5d8f65526e6441f0ae09b6823ef1006aaf211f5dc2e444e737d8ee923d02204713c79c9585957914db049675f64b62a21b390116d712562ab4b4eff766ba3301",
        "039e1586446363eb213cecc5eb615a63b17cee443fa65b134d839d2b7f41ad7056"
      ],
      "is_coinbase": false,
      "sequence": 4294967295,
      "inner_redeemscript_asm": "OP_0 OP_PUSHBYTES_20 0522e42e7c2b40828c5367e7e52f090894000566"
    },
    {
      "txid": "bc0263a2606c71a9eeb5a550c114fe470fcb90a4a4948be1412a1bc0dd7b0e02",
      "vout": 2,
      "prevout": {
        "scriptpubkey": "a914eaaaf4167c10e245643e21e66c2db211b434163787",
        "scriptpubkey_asm": "OP_HASH160 OP_PUSHBYTES_20 eaaaf4167c10e245643e21e66c2db211b4341637 OP_EQUAL",
        "scriptpubkey_type": "p2sh",
        "scriptpubkey_address": "3P5pqVDS6EjP2tRPZKrbqXNh68bTiogmws",
        "value": 387060
      },
      "scriptsig": "1600140522e42e7c2b40828c5367e7e52f090894000566",
      "scriptsig_asm": "OP_PUSHBYTES_22 00140522e42e7c2b40828c5367e7e52f090894000566",
      "witness": [
        "3045022100ed04a15979b9e0abbf30a991cf2739ba00fe8d1458a23d8241b5d2d9d7a5baf202201fdf071378797409cc9277144a1f68efdce541a47187017d6b0d25fd9ae8194601",
        "039e1586446363eb213cecc5eb615a63b17cee443fa65b134d839d2b7f41ad7056"
      ],
      "is_coinbase": false,
      "sequence": 4294967295,
      "inner_redeemscript_asm": "OP_0 OP_PUSHBYTES_20 0522e42e7c2b40828c5367e7e52f090894000566"
    },
    {
      "txid": "42890ffbebc2cd44ed5fe550085b0b37453b981302a5b6a3693fb6700848caa2",
      "vout": 2,
      "prevout": {
        "scriptpubkey": "a914eaaaf4167c10e245643e21e66c2db211b434163787",
        "scriptpubkey_asm": "OP_HASH160 OP_PUSHBYTES_20 eaaaf4167c10e245643e21e66c2db211b4341637 OP_EQUAL",
        "scriptpubkey_type": "p2sh",
        "scriptpubkey_address": "3P5pqVDS6EjP2tRPZKrbqXNh68bTiogmws",
        "value": 363180
      },
      "scriptsig": "1600140522e42e7c2b40828c5367e7e52f090894000566",
      "scriptsig_asm": "OP_PUSHBYTES_22 00140522e42e7c2b40828c5367e7e52f090894000566",
      "witness": [
        "3045022100a06b7f19920ce97fa4ec8db0511e49b29605d55e0afc569ac1bffbc33be7dbb5022032a412b1084dab21e66655e39de69a49830da5f083fcb39fa1390c0ddbd9d46001",
        "039e1586446363eb213cecc5eb615a63b17cee443fa65b134d839d2b7f41ad7056"
      ],
      "is_coinbase": false,
      "sequence": 4294967295,
      "inner_redeemscript_asm": "OP_0 OP_PUSHBYTES_20 0522e42e7c2b40828c5367e7e52f090894000566"
    }
  ],
  "vout": [
    {
      "scriptpubkey": "a914eaaaf4167c10e245643e21e66c2db211b434163787",
      "scriptpubkey_asm": "OP_HASH160 OP_PUSHBYTES_20 eaaaf4167c10e245643e21e66c2db211b4341637 OP_EQUAL",
      "scriptpubkey_type": "p2sh",
      "scriptpubkey_address": "3P5pqVDS6EjP2tRPZKrbqXNh68bTiogmws",
      "value": 1200
    },
    {
      "scriptpubkey": "5120d327c47eacf250fcb686234c42413ae3d77ada72a547d4225c206b1b7bfa0453",
      "scriptpubkey_asm": "OP_PUSHNUM_1 OP_PUSHBYTES_32 d327c47eacf250fcb686234c42413ae3d77ada72a547d4225c206b1b7bfa0453",
      "scriptpubkey_type": "v1_p2tr",
      "scriptpubkey_address": "bc1p6vnugl4v7fg0ed5xydxyysf6u0th4knj54raggjuyp43k7l6q3fs2s88ss",
      "value": 546
    },
    {
      "scriptpubkey": "a914666259625fdfab78d3a9b63cacc434f47dc74e1587",
      "scriptpubkey_asm": "OP_HASH160 OP_PUSHBYTES_20 666259625fdfab78d3a9b63cacc434f47dc74e15 OP_EQUAL",
      "scriptpubkey_type": "p2sh",
      "scriptpubkey_address": "3B2NfXgBZFZeTPmLtL5VN1yequp1e9HzHz",
      "value": 1990546
    },
    {
      "scriptpubkey": "a914ea6b832a05c6ca578baa3836f3f25553d41068a587",
      "scriptpubkey_asm": "OP_HASH160 OP_PUSHBYTES_20 ea6b832a05c6ca578baa3836f3f25553d41068a5 OP_EQUAL",
      "scriptpubkey_type": "p2sh",
      "scriptpubkey_address": "3P4WqXDbSLRhzo2H6MT6YFbvBKBDPLbVtQ",
      "value": 50000
    },
    {
      "scriptpubkey": "a914eaaaf4167c10e245643e21e66c2db211b434163787",
      "scriptpubkey_asm": "OP_HASH160 OP_PUSHBYTES_20 eaaaf4167c10e245643e21e66c2db211b4341637 OP_EQUAL",
      "scriptpubkey_type": "p2sh",
      "scriptpubkey_address": "3P5pqVDS6EjP2tRPZKrbqXNh68bTiogmws",
      "value": 600
    },
    {
      "scriptpubkey": "a914eaaaf4167c10e245643e21e66c2db211b434163787",
      "scriptpubkey_asm": "OP_HASH160 OP_PUSHBYTES_20 eaaaf4167c10e245643e21e66c2db211b4341637 OP_EQUAL",
      "scriptpubkey_type": "p2sh",
      "scriptpubkey_address": "3P5pqVDS6EjP2tRPZKrbqXNh68bTiogmws",
      "value": 600
    },
    {
      "scriptpubkey": "a914eaaaf4167c10e245643e21e66c2db211b434163787",
      "scriptpubkey_asm": "OP_HASH160 OP_PUSHBYTES_20 eaaaf4167c10e245643e21e66c2db211b4341637 OP_EQUAL",
      "scriptpubkey_type": "p2sh",
      "scriptpubkey_address": "3P5pqVDS6EjP2tRPZKrbqXNh68bTiogmws",
      "value": 344734
    }
  ],
  "size": 1728,
  "weight": 4122,
  "fee": 15480,
  "status": {
    "confirmed": true,
    "block_height": 834638,
    "block_hash": "000000000000000000025f742c626208ac87e0b7d15054abb4a19ca2d735a54e",
    "block_time": 1710405325
  },
  "hex": "02000000000109d33818bff0b655a8fa3ec70a2149e6985bd86f1421b742e27d23e6377f9b565308000000171600140522e42e7c2b40828c5367e7e52f090894000566ffffffffd33818bff0b655a8fa3ec70a2149e6985bd86f1421b742e27d23e6377f9b56530a000000171600140522e42e7c2b40828c5367e7e52f090894000566ffffffff086c15e627b8b2f4b61ad42def7e4f3a8a04018508d4ad53f0ef79b9f68533f80000000000ffffffffce587f72afb79ed19d43dfffbefb1b4aed364aa9126f6ff583aaadf62b818d4602000000171600140522e42e7c2b40828c5367e7e52f090894000566ffffffff9100e3a9f6a4d5b225ed3ce0a4f6e0509c349d6c3d813db1a1d0ee90a9ac175d02000000171600140522e42e7c2b40828c5367e7e52f090894000566ffffffff07b1a831e9382a74f41c1495352e116616f53cc2f1a683bfa0ffa3a289e062fd02000000171600140522e42e7c2b40828c5367e7e52f090894000566ffffffffe424687a8649306080bcace6ccbbcc7e73b589cc2e69328c804f59f611502a3802000000171600140522e42e7c2b40828c5367e7e52f090894000566ffffffff020e7bddc01b2a41e18b94a4a490cb0f47fe14c150a5b5eea9716c60a26302bc02000000171600140522e42e7c2b40828c5367e7e52f090894000566ffffffffa2ca480870b63f69a3b6a50213983b45370b5b0850e55fed44cdc2ebfb0f894202000000171600140522e42e7c2b40828c5367e7e52f090894000566ffffffff07b00400000000000017a914eaaaf4167c10e245643e21e66c2db211b4341637872202000000000000225120d327c47eacf250fcb686234c42413ae3d77ada72a547d4225c206b1b7bfa0453925f1e000000000017a914666259625fdfab78d3a9b63cacc434f47dc74e158750c300000000000017a914ea6b832a05c6ca578baa3836f3f25553d41068a587580200000000000017a914eaaaf4167c10e245643e21e66c2db211b434163787580200000000000017a914eaaaf4167c10e245643e21e66c2db211b4341637879e4205000000000017a914eaaaf4167c10e245643e21e66c2db211b43416378702473044022077650f223bcc0234304f9e25a18a717bce6970e2ddb2fcf98685437b2885613d0220474053c1219661ff456bff708fc5afd951ad8ea5e555a2c88647e4ca65422c980121039e1586446363eb213cecc5eb615a63b17cee443fa65b134d839d2b7f41ad705602483045022100da2297d84ebf47acbd2e1de91a904b85690a21666a12fad589c2abd535510af602202180f950034dd485c6ea346699319df5e10f76557dd6dbbc5cb450689308baf60121039e1586446363eb213cecc5eb615a63b17cee443fa65b134d839d2b7f41ad7056014158de812728977bc6378adcde2a57952957a7e91c5212f3873882145a88276cd4a10d21bc87501d41054a188814fd8928f6c28bbd1a139c8f2f8a7ff0f39502af8302483045022100f49ad9e0e783cd0fa470860755ec6c2185a0faa3c79b8e751cd643cb62aae7a802205688058300afa41d8a63259cca4e091b4a379212a3552c3b9eb2aac2d503fa1d0121039e1586446363eb213cecc5eb615a63b17cee443fa65b134d839d2b7f41ad70560247304402206c55685fa8612a6fc616d005e47760e2965c6428f0c6b0991b655add49df882902201b904a990b384f287de1d6bfc34c56cd53e6af0955c662cf9e4be4c219200b830121039e1586446363eb213cecc5eb615a63b17cee443fa65b134d839d2b7f41ad705602483045022100b68daa307ab553b56269b9dab878b3f79844c4796407d4908bf24f64dd2b7ba30220246f2ed8e9ccec684e58a4d655432fe48cfbd8665d1760263611f31e6510bdfd0121039e1586446363eb213cecc5eb615a63b17cee443fa65b134d839d2b7f41ad70560247304402203e869f5d8f65526e6441f0ae09b6823ef1006aaf211f5dc2e444e737d8ee923d02204713c79c9585957914db049675f64b62a21b390116d712562ab4b4eff766ba330121039e1586446363eb213cecc5eb615a63b17cee443fa65b134d839d2b7f41ad705602483045022100ed04a15979b9e0abbf30a991cf2739ba00fe8d1458a23d8241b5d2d9d7a5baf202201fdf071378797409cc9277144a1f68efdce541a47187017d6b0d25fd9ae819460121039e1586446363eb213cecc5eb615a63b17cee443fa65b134d839d2b7f41ad705602483045022100a06b7f19920ce97fa4ec8db0511e49b29605d55e0afc569ac1bffbc33be7dbb5022032a412b1084dab21e66655e39de69a49830da5f083fcb39fa1390c0ddbd9d4600121039e1586446363eb213cecc5eb615a63b17cee443fa65b134d839d2b7f41ad705600000000"
}