{
  "txid": "ece578abc2d8e38d8f892387e00d449d5849b5559d3c498d94448ec1d2d4087c",
  "version": 2,
  "locktime": 834458,
  "vin": [
    {
      "txid": "84b049479add53c5da72ba37f289bc05b69f5ead38246e775e4052e86b31a6b5",
      "vout": 1,
      "prevout": {
        "scriptpubkey": "76a9141dcc9ab8b31e45b6df3d45adf5d6a0bad4b2e72f88ac",
        "scriptpubkey_asm": "OP_DUP OP_HASH160 OP_PUSHBYTES_20 1dcc9ab8b31e45b6df3d45adf5d6a0bad4b2e72f OP_EQUALVERIFY OP_CHECKSIG",
        "scriptpubkey_type": "p2pkh",
        "scriptpubkey_address": "13iZhj2qtSG7RyktEwnTj1f9g4CTDS9CrX",
        "value": 234962
      },
      "scriptsig": "473044022016aac2b29f82cfea2de3aa6bcd364fe1b85003f868cc42109f8007dffd6f491d02206318b1022834211424456406b7dabd801b8a456a3d33232601e1f0fff75aa18d01210379791c596d1198102e11fa56ad408f918397f6ba993d6b838541be7bc4a9f6b7",
      "scriptsig_asm": "OP_PUSHBYTES_71 3044022016aac2b29f82cfea2de3aa6bcd364fe1b85003f868cc42109f8007dffd6f491d02206318b1022834211424456406b7dabd801b8a456a3d33232601e1f0fff75aa18d01 OP_PUSHBYTES_33 0379791c596d1198102e11fa56ad408f918397f6ba993d6b838541be7bc4a9f6b7",
      "is_coinbase": false,
      "sequence": 4294967293
    },
    {
      "txid": "fc804882c44f04b295030e7dfd40bb9efcda4bcac08e44268ba7abd1865aa697",
      "vout": 0,
      "prevout": {
        "scriptpubkey": "76a914f41fb1d28a725375e448153ebd94e58c18fdd5d688ac",
        "scriptpubkey_asm": "OP_DUP OP_HASH160 OP_PUSHBYTES_20 f41fb1d28a725375e448153ebd94e58c18fdd5d6 OP_EQUALVERIFY OP_CHECKSIG",
        "scriptpubkey_type": "p2pkh",
        "scriptpubkey_address": "1PFoqzGSCc6ZNLeRaeYsuG6LLx8KrnrzMy",
        "value": 272295
      },
      "scriptsig": "47304402204ae869026a4c7757d0f99a3a5a2769fd997056397290d33a94832e903383a801022043575f130ba57e373729fa04d4acd4d4cc6d02a779c4f7eb3c4bafdb5b9ecbbf012103704d4be13db28168e19565375eb36dce91d97d38fe482f90758029f07713cbc8",
      "scriptsig_asm": "OP_PUSHBYTES_71 304402204ae869026a4c7757d0f99a3a5a2769fd997056397290d33a94832e903383a801022043575f130ba57e373729fa04d4acd4d4cc6d02a779c4f7eb3c4bafdb5b9ecbbf01 OP_PUSHBYTES_33 03704d4be13db28168e19565375eb36dce91d97d38fe482f90758029f07713cbc8",
      "is_coinbase": false,
      "sequence": 4294967293
    },
    {
      "txid": "55b3dc545b25d9c7ab369501cc75ac9a03df452c442971dba6cbb734cbda7728",
      "vout": 0,
      "prevout": {
        "scriptpubkey": "76a9146857bdd88b0135dffb7a483d91f13cf5c7159a2988ac",
        "scriptpubkey_asm": "OP_DUP OP_HASH160 OP_PUSHBYTES_20 6857bdd88b0135dffb7a483d91f13cf5c7159a29 OP_EQUALVERIFY OP_CHECKSIG",
        "scriptpubkey_type": "p2pkh",
        "scriptpubkey_address": "1AWiPLsVh6VsfXEEjtM8LJB2odyQqnvc34",
        "value": 3400000
      },
      "scriptsig": "473044022028111d3907c5352bdb4398e62eeeb2e51f4fb3595536dc7461dca171efcd90900220443098637887276614bcabbc8401dd65b90f0b5298e9bc88fa756df7680adb540121039019762c6a61df648dbdfab07fa584dd6c9f978a711619900b7b8e1063994e25",
      "scriptsig_asm": "OP_PUSHBYTES_71 3044022028111d3907c5352bdb4398e62eeeb2e51f4fb3595536dc7461dca171efcd90900220443098637887276614bcabbc8401dd65b90f0b5298e9bc88fa756df7680adb5401 OP_PUSHBYTES_33 039019762c6a61df648dbdfab07fa584dd6c9f978a711619900b7b8e1063994e25",
      "is_coinbase": false,
      "sequence": 4294967293
    }
  ],
  "vout": [
    {
      "scriptpubkey": "76a91443d113d1eb394a27eecf79b646b7d92382f34e4e88ac",
      "scriptpubkey_asm": "OP_DUP OP_HASH160 OP_PUSHBYTES_20 43d113d1eb394a27eecf79b646b7d92382f34e4e OP_EQUALVERIFY OP_CHECKSIG",
      "scriptpubkey_type": "p2pkh",
      "scriptpubkey_address": "17BajonM6XVSBEdPw5pmVAPd1f8ZbqtDoT",
      "value": 829574
    },
    {
      "scriptpubkey": "0014a69dd401675ab2547b8fc893223238947876486c",
      "scriptpubkey_asm": "OP_0 OP_PUSHBYTES_20 a69dd401675ab2547b8fc893223238947876486c",
      "scriptpubkey_type": "v0_p2wpkh",
      "scriptpubkey_address": "bc1q56wagqt8t2e9g7u0ezfjyv3cj3u8vjrv3y78yw",
      "value": 3049303
    }
  ],
  "size": 516,
  "weight": 2064,
  "fee": 28380,
  "status": {
    "confirmed": true,
    "block_height": 834460,
    "block_hash": "00000000000000000000484a79b643b2524bbce82e5d8a442013fa5b8905ed98",
    "block_time": 1710307468
  },
  "hex": "0200000003b5a6316be852405e776e2438ad5e9fb605bc89f237ba72dac553dd9a4749b084010000006a473044022016aac2b29f82cfea2de3aa6bcd364fe1b85003f868cc42109f8007dffd6f491d02206318b1022834211424456406b7dabd801b8a456a3d33232601e1f0fff75aa18d01210379791c596d1198102e11fa56ad408f918397f6ba993d6b838541be7bc4a9f6b7fdffffff97a65a86d1aba78b26448ec0ca4bdafc9ebb40fd7d0e0395b2044fc4824880fc000000006a47304402204ae869026a4c7757d0f99a3a5a2769fd997056397290d33a94832e903383a801022043575f130ba57e373729fa04d4acd4d4cc6d02a779c4f7eb3c4bafdb5b9ecbbf012103704d4be13db28168e19565375eb36dce91d97d38fe482f90758029f07713cbc8fdffffff2877dacb34b7cba6db7129442c45df039aac75cc019536abc7d9255b54dcb355000000006a473044022028111d3907c5352bdb4398e62eeeb2e51f4fb3595536dc7461dca171efcd90900220443098637887276614bcabbc8401dd65b90f0b5298e9bc88fa756df7680adb540121039019762c6a61df648dbdfab07fa584dd6c9f978a711619900b7b8e1063994e25fdffffff0286a80c00000000001976a91443d113d1eb394a27eecf79b646b7d92382f34e4e88ac57872e0000000000160014a69dd401675ab2547b8fc893223238947876486c9abb0c00"
}