{
  "txid": "ecf54d6cc0a9d13e004f52b439dcdbe1ce4135ceef597d302946740f69196ad1",
  "version": 2,
  "locktime": 833153,
  "vin": [
    {
      "txid": "b4d8b3315520cc74e45db78d02623a92619db358a8813ff6feee86d6512ba0d6",
      "vout": 0,
      "prevout": {
        "scriptpubkey": "0014245e1c120eadc37a87878f6a0cd57376b7d457ae",
        "scriptpubkey_asm": "OP_0 OP_PUSHBYTES_20 245e1c120eadc37a87878f6a0cd57376b7d457ae",
        "scriptpubkey_type": "v0_p2wpkh",
        "scriptpubkey_address": "bc1qy30pcysw4hph4pu83a4qe4tnw6mag4awqffysk",
        "value": 75000
      },
      "scriptsig": "",
      "scriptsig_asm": "",
      "witness": [
        "304402206f022a0ee7daf1dd3af91df3078ffd15943d23bf7f1b99a0808a86d6938acd2f022064eeb7f4ed5c0c409a66dc7d2e38fd99d3b73464955d51225d4d2033bc67ddd701",
        "0375a5659ddb3ce8cfaf77796071775213382c2a10242ef8578461a068ddaddc44"
      ],
      "is_coinbase": false,
      "sequence": 4294967293
    }
  ],
  "vout": [
    {
      "scriptpubkey": "00148f17ebbe25d7a19192c6025ed85752f3d385fee3",
      "scriptpubkey_asm": "OP_0 OP_PUSHBYTES_20 8f17ebbe25d7a19192c6025ed85752f3d385fee3",
      "scriptpubkey_type": "v0_p2wpkh",
      "scriptpubkey_address": "bc1q3ut7h03967serykxqf0ds46j70fctlhrqelcyt",
      "value": 73799
    }
  ],
  "size": 191,
  "weight": 437,
  "fee": 1201,
  "status": {
    "confirmed": true,
    "block_height": 834464,
    "block_hash": "0000000000000000000177a0869a911a2b65c9bdcd5a8bcb02b68f305bee848e",
    "block_time": 1710308296
  },
  "hex": "02000000000101d6a02b51d686eefef63f81a858b39d61923a62028db75de474cc205531b3d8b40000000000fdffffff0147200100000000001600148f17ebbe25d7a19192c6025ed85752f3d385fee30247304402206f022a0ee7daf1dd3af91df3078ffd15943d23bf7f1b99a0808a86d6938acd2f022064eeb7f4ed5c0c409a66dc7d2e38fd99d3b73464955d51225d4d2033bc67ddd701210375a5659ddb3ce8cfaf77796071775213382c2a10242ef8578461a068ddaddc4481b60c00"
}