{
  "txid": "ed04834fdaf8d436f3749ca77af0dd96384c19f3ac8dfdfe3b0c68ff66bebd53",
  "version": 1,
  "locktime": 0,
  "vin": [
    {
      "txid": "1240d97948c9949909704dbb5386b5086dc7e25b72116ca698c9d11afbb4ea1a",
      "vout": 0,
      "prevout": {
        "scriptpubkey": "512048425592e69162a7bd3e0b28c1d4c408397c3fff4aefc5a85dc7a6fc0d48be98",
        "scriptpubkey_asm": "OP_PUSHNUM_1 OP_PUSHBYTES_32 48425592e69162a7bd3e0b28c1d4c408397c3fff4aefc5a85dc7a6fc0d48be98",
        "scriptpubkey_type": "v1_p2tr",
        "scriptpubkey_address": "bc1pfpp9tyhxj93200f7pv5vr4xypquhc0llfthut2zac7n0cr2gh6vqt2m07m",
        "value": 2889
      },
      "scriptsig": "",
      "scriptsig_asm": "",
      "witness": [
        "7b5adbd35704f200dee14d68db1dc1911d87eea45abcf95574200b3725a5e03117f82efa12311b80401043a5f9f5c2db53d2c52832ea890634f43e1dcf3d5d82",
        "20dfa7325ed77fab28d796d113dcead29a7490c58aaa244f71cf02d52f6b761081ac00630461746f6d03646d7437a16461726773a46474696d651a65ee50de656e6f6e63650068626974776f726b6364313234306b6d696e745f7469636b657264766d707868",
        "c1dfa7325ed77fab28d796d113dcead29a7490c58aaa244f71cf02d52f6b761081"
      ],
      "is_coinbase": false,
      "sequence": 0
    }
  ],
  "vout": [
    {
      "scriptpubkey": "5120a1e3352d215c371d7181ba45cba88085be161f72f0fb432c6eb5c59fa438eb97",
      "scriptpubkey_asm": "OP_PUSHNUM_1 OP_PUSHBYTES_32 a1e3352d215c371d7181ba45cba88085be161f72f0fb432c6eb5c59fa438eb97",
      "scriptpubkey_type": "v1_p2tr",
      "scriptpubkey_address": "bc1p583n2tfptsm36uvphfzuh2yqsklpv8mj7ra5xtrwkhzelfpcawtswnzule",
      "value": 1000
    }
  ],
  "size": 299,
  "weight": 581,
  "fee": 1889,
  "status": {
    "confirmed": true,
    "block_height": 834464,
    "block_hash": "0000000000000000000177a0869a911a2b65c9bdcd5a8bcb02b68f305bee848e",
    "block_time": 1710308296
  },
  "hex": "010000000001011aeab4fb1ad1c998a66c11725be2c76d08b58653bb4d70099994c94879d9401200000000000000000001e803000000000000225120a1e3352d215c371d7181ba45cba88085be161f72f0fb432c6eb5c59fa438eb9703407b5adbd35704f200dee14d68db1dc1911d87eea45abcf95574200b3725a5e03117f82efa12311b80401043a5f9f5c2db53d2c52832ea890634f43e1dcf3d5d826620dfa7325ed77fab28d796d113dcead29a7490c58aaa244f71cf02d52f6b761081ac00630461746f6d03646d7437a16461726773a46474696d651a65ee50de656e6f6e63650068626974776f726b6364313234306b6d696e745f7469636b657264766d70786821c1dfa7325ed77fab28d796d113dcead29a7490c58aaa244f71cf02d52f6b76108100000000"
}