{
  "txid": "ed0be19865bae18ccaae9ade6ad0e5a6029965dd2ebc92457fc7572fca24900c",
  "version": 2,
  "locktime": 0,
  "vin": [
    {
      "txid": "8486ecb4df0880316dd6e82b3971b4df187aff23765bc3a47f8d78bb53aa273c",
      "vout": 100,
      "prevout": {
        "scriptpubkey": "5120d113ec5a018d98a1e619cee10e7dcc63a7c2a5d0ede4bb82874fc46436392eaf",
        "scriptpubkey_asm": "OP_PUSHNUM_1 OP_PUSHBYTES_32 d113ec5a018d98a1e619cee10e7dcc63a7c2a5d0ede4bb82874fc46436392eaf",
        "scriptpubkey_type": "v1_p2tr",
        "scriptpubkey_address": "bc1p6yf7cksp3kv2reseemssulwvvwnu9fwsahjthq58flzxgd3e96hsq0e578",
        "value": 2575
      },
      "scriptsig": "",
      "scriptsig_asm": "",
      "witness": [
        "9fb9205c617832283ae6e97bb5d606f0154c32aa882b14a0be4049b378d7b3f831c8c11baef89512d1e6dc4dc86281fa290720273bfdd9ae62039a6234def0f4",
        "20d227a174c23217fec7b14ddea002b7ac7d7d1f0ced17447e49df6d0857ba2cdcac0063036f726401010a746578742f706c61696e00367b2270223a226272632d3230222c226f70223a226d696e74222c227469636b223a2261616161222c22616d74223a223130303030227d68",
        "c1d227a174c23217fec7b14ddea002b7ac7d7d1f0ced17447e49df6d0857ba2cdc"
      ],
      "is_coinbase": false,
      "sequence": 4261412863
    }
  ],
  "vout": [
    {
      "scriptpubkey": "0014ddd7ef12ea6f78edcc1e8e7afa12c01ab59f3339",
      "scriptpubkey_asm": "OP_0 OP_PUSHBYTES_20 ddd7ef12ea6f78edcc1e8e7afa12c01ab59f3339",
      "scriptpubkey_type": "v0_p2wpkh",
      "scriptpubkey_address": "bc1qmht77yh2dauwmnq73ea05ykqr26e7veea8spz6",
      "value": 546
    }
  ],
  "size": 295,
  "weight": 541,
  "fee": 2029,
  "status": {
    "confirmed": true,
    "block_height": 834460,
    "block_hash": "00000000000000000000484a79b643b2524bbce82e5d8a442013fa5b8905ed98",
    "block_time": 1710307468
  },
  "hex": "020000000001013c27aa53bb788d7fa4c35b7623ff7a18dfb471392be8d66d318008dfb4ec86846400000000fffffffd012202000000000000160014ddd7ef12ea6f78edcc1e8e7afa12c01ab59f333903409fb9205c617832283ae6e97bb5d606f0154c32aa882b14a0be4049b378d7b3f831c8c11baef89512d1e6dc4dc86281fa290720273bfdd9ae62039a6234def0f46e20d227a174c23217fec7b14ddea002b7ac7d7d1f0ced17447e49df6d0857ba2cdcac0063036f726401010a746578742f706c61696e00367b2270223a226272632d3230222c226f70223a226d696e74222c227469636b223a2261616161222c22616d74223a223130303030227d6821c1d227a174c23217fec7b14ddea002b7ac7d7d1f0ced17447e49df6d0857ba2cdc00000000"
}