{
  "txid": "ed0da9ea9849d55b25ca6b7074d217aaf442f4bf2a7613b1a1c9b4c3ac07587d",
  "version": 1,
  "locktime": 0,
  "vin": [
    {
      "txid": "52843b7b5bec224a66f48219a964367fdf90ddc392d9089fe8ab0b038f7a00ad",
      "vout": 0,
      "prevout": {
        "scriptpubkey": "512022a7034ce7766079ca4e6f4f9e26058d05ab26d1646a818314a76747d85f00a0",
        "scriptpubkey_asm": "OP_PUSHNUM_1 OP_PUSHBYTES_32 22a7034ce7766079ca4e6f4f9e26058d05ab26d1646a818314a76747d85f00a0",
        "scriptpubkey_type": "v1_p2tr",
        "scriptpubkey_address": "bc1py2nsxn88wes8njjwda8eufs935z6kfk3v34grqc55an50kzlqzsqmc4220",
        "value": 3198
      },
      "scriptsig": "",
      "scriptsig_asm": "",
      "witness": [
        "8c2a229e7131b972947d17610db4c579d5c563e158fdcccbe9fd091cfdcb7b21ed7cda23bfc3c459b2d2f74e495a0deba189314dc2c1fdb8c9d7579782b632de83",
        "20be11f1d0580232188e877ef283eb5a1efd4e9e5290a2633605d666f59ad3fff2ac00630461746f6d036e66743ca16461726773a468626974776f726b6364353238346d726571756573745f7265616c6d63e69d8e656e6f6e63651a006911136474696d651a65f1377668",
        "c1be11f1d0580232188e877ef283eb5a1efd4e9e5290a2633605d666f59ad3fff2"
      ],
      "is_coinbase": false,
      "sequence": 4294967293
    }
  ],
  "vout": [
    {
      "scriptpubkey": "51209d6dbbf9bad17d0135e06ea56ec304df985f9f9bc809fa52ae6789a0947e0300",
      "scriptpubkey_asm": "OP_PUSHNUM_1 OP_PUSHBYTES_32 9d6dbbf9bad17d0135e06ea56ec304df985f9f9bc809fa52ae6789a0947e0300",
      "scriptpubkey_type": "v1_p2tr",
      "scriptpubkey_address": "bc1pn4kmh7d6697szd0qd6jkascym7v9l8umeqyl554wv7y6p9r7qvqquzkndh",
      "value": 1000
    }
  ],
  "size": 305,
  "weight": 587,
  "fee": 2198,
  "status": {
    "confirmed": true,
    "block_height": 834460,
    "block_hash": "00000000000000000000484a79b643b2524bbce82e5d8a442013fa5b8905ed98",
    "block_time": 1710307468
  },
  "hex": "01000000000101ad007a8f030babe89f08d992c3dd90df7f3664a91982f4664a22ec5b7b3b84520000000000fdffffff01e8030000000000002251209d6dbbf9bad17d0135e06ea56ec304df985f9f9bc809fa52ae6789a0947e030003418c2a229e7131b972947d17610db4c579d5c563e158fdcccbe9fd091cfdcb7b21ed7cda23bfc3c459b2d2f74e495a0deba189314dc2c1fdb8c9d7579782b632de836b20be11f1d0580232188e877ef283eb5a1efd4e9e5290a2633605d666f59ad3fff2ac00630461746f6d036e66743ca16461726773a468626974776f726b6364353238346d726571756573745f7265616c6d63e69d8e656e6f6e63651a006911136474696d651a65f137766821c1be11f1d0580232188e877ef283eb5a1efd4e9e5290a2633605d666f59ad3fff200000000"
}