{
  "txid": "ed178aebd26b682900e990bf47e155bba9d9da9c7b8102748a5251b85113cf8a",
  "version": 1,
  "locktime": 0,
  "vin": [
    {
      "txid": "9114c067b641f291fce66a1001c0b9a68ddb90f40eee916324d1110b5907663f",
      "vout": 0,
      "prevout": {
        "scriptpubkey": "0014ce910a7dd56a2a1722bdf80bdaa64bf24d3b48dd",
        "scriptpubkey_asm": "OP_0 OP_PUSHBYTES_20 ce910a7dd56a2a1722bdf80bdaa64bf24d3b48dd",
        "scriptpubkey_type": "v0_p2wpkh",
        "scriptpubkey_address": "bc1qe6gs5lw4dg4pwg4alq9a4fjt7fxnkjxav332r3",
        "value": 2800000
      },
      "scriptsig": "",
      "scriptsig_asm": "",
      "witness": [
        "3045022100dfe4bdcdf3a30b21b4b8eb7be408aa85bb50f627b14185cd42a2fe0f5610375f02200d3c8fee02dc1b016c97c63130d62335d28452a547bb61c21695f7a58d27990d01",
        "03e69b8b9202f91a15ae93759dd5798089544c1dd5320c9ead77700a759b388047"
      ],
      "is_coinbase": false,
      "sequence": 4294967295
    }
  ],
  "vout": [
    {
      "scriptpubkey": "0014abe2b4a2155f90b35b93d7ade518b03542846fe9",
      "scriptpubkey_asm": "OP_0 OP_PUSHBYTES_20 abe2b4a2155f90b35b93d7ade518b03542846fe9",
      "scriptpubkey_type": "v0_p2wpkh",
      "scriptpubkey_address": "bc1q403tfgs4t7gtxkun67k72x9sx4pggmlfxp2le6",
      "value": 1230000
    },
    {
      "scriptpubkey": "0014fc9bb8c9f0684b4e665d3ac373562c04f09a8b78",
      "scriptpubkey_asm": "OP_0 OP_PUSHBYTES_20 fc9bb8c9f0684b4e665d3ac373562c04f09a8b78",
      "scriptpubkey_type": "v0_p2wpkh",
      "scriptpubkey_address": "bc1qljdm3j0sdp95ueja8tphx43vqncf4zmc7h6eur",
      "value": 1567744
    }
  ],
  "size": 223,
  "weight": 562,
  "fee": 2256,
  "status": {
    "confirmed": true,
    "block_height": 834464,
    "block_hash": "0000000000000000000177a0869a911a2b65c9bdcd5a8bcb02b68f305bee848e",
    "block_time": 1710308296
  },
  "hex": "010000000001013f6607590b11d1246391ee0ef490db8da6b9c001106ae6fc91f241b667c014910000000000ffffffff02b0c4120000000000160014abe2b4a2155f90b35b93d7ade518b03542846fe900ec170000000000160014fc9bb8c9f0684b4e665d3ac373562c04f09a8b7802483045022100dfe4bdcdf3a30b21b4b8eb7be408aa85bb50f627b14185cd42a2fe0f5610375f02200d3c8fee02dc1b016c97c63130d62335d28452a547bb61c21695f7a58d27990d012103e69b8b9202f91a15ae93759dd5798089544c1dd5320c9ead77700a759b38804700000000"
}