{
  "txid": "ed1a896d53c1f83c97cf26993d4342bfa7c692aaadeaa0b181c6edbcb0dc9d7c",
  "version": 2,
  "locktime": 0,
  "vin": [
    {
      "txid": "2a4bee1edf023b5f999eb98e4b3fa06692bcb15315c427621f31e63f3cd1d56b",
      "vout": 1,
      "prevout": {
        "scriptpubkey": "51200c2cc30f4c1e19f945276316259b15f009f0b706c5ce45e2fe2197f6fc23f473",
        "scriptpubkey_asm": "OP_PUSHNUM_1 OP_PUSHBYTES_32 0c2cc30f4c1e19f945276316259b15f009f0b706c5ce45e2fe2197f6fc23f473",
        "scriptpubkey_type": "v1_p2tr",
        "scriptpubkey_address": "bc1ppskvxr6vrcvlj3f8vvtztxc47qylpdcxch8ytch7yxtldlpr73esx8vfms",
        "value": 23348
      },
      "scriptsig": "",
      "scriptsig_asm": "",
      "witness": [
        "a9ab1d8cdb2e9894bc85e6d681645720470697a704956913f9741bebcedd690a4affc6cd5f3c221d38d787d1aa78c37cc8a016837901a7deb228794ef932f4fb"
      ],
      "is_coinbase": false,
      "sequence": 4294967293
    }
  ],
  "vout": [
    {
      "scriptpubkey": "5120a556220d75294c8e132dc87f96c430e6424dadf3c54e0bfcde3f9cfd2920c532",
      "scriptpubkey_asm": "OP_PUSHNUM_1 OP_PUSHBYTES_32 a556220d75294c8e132dc87f96c430e6424dadf3c54e0bfcde3f9cfd2920c532",
      "scriptpubkey_type": "v1_p2tr",
      "scriptpubkey_address": "bc1p54tzyrt499xguyedepled3psuepymt0nc48qhlx787w062fqc5eqtq8ypj",
      "value": 3846
    },
    {
      "scriptpubkey": "5120e8e269708aed947d9d503a9dccc62c883206bf2e6979bdefb003724789301cd4",
      "scriptpubkey_asm": "OP_PUSHNUM_1 OP_PUSHBYTES_32 e8e269708aed947d9d503a9dccc62c883206bf2e6979bdefb003724789301cd4",
      "scriptpubkey_type": "v1_p2tr",
      "scriptpubkey_address": "bc1par3xjuy2ak28m82s82wue33v3qeqd0ewd9ummmasqdey0zfsrn2q4s7nde",
      "value": 16114
    }
  ],
  "size": 205,
  "weight": 616,
  "fee": 3388,
  "status": {
    "confirmed": true,
    "block_height": 834460,
    "block_hash": "00000000000000000000484a79b643b2524bbce82e5d8a442013fa5b8905ed98",
    "block_time": 1710307468
  },
  "hex": "020000000001016bd5d13c3fe6311f6227c41553b1bc9266a03f4b8eb99e995f3b02df1eee4b2a0100000000fdffffff02060f000000000000225120a556220d75294c8e132dc87f96c430e6424dadf3c54e0bfcde3f9cfd2920c532f23e000000000000225120e8e269708aed947d9d503a9dccc62c883206bf2e6979bdefb003724789301cd40140a9ab1d8cdb2e9894bc85e6d681645720470697a704956913f9741bebcedd690a4affc6cd5f3c221d38d787d1aa78c37cc8a016837901a7deb228794ef932f4fb00000000"
}