{
  "txid": "ed47d52b140e51ff466a4a193d4d4d27946479b48f9db2802c3840709108d0dc",
  "version": 2,
  "locktime": 0,
  "vin": [
    {
      "txid": "863e5d574179e5854f01fa8536cbf5d579c75ea3e4f0c9b3f29eb2ef93e43e25",
      "vout": 1,
      "prevout": {
        "scriptpubkey": "5120a8a52c81dec73e0cbd794dc04f23d32215f3518b50f71ba9410b1100e5f31991",
        "scriptpubkey_asm": "OP_PUSHNUM_1 OP_PUSHBYTES_32 a8a52c81dec73e0cbd794dc04f23d32215f3518b50f71ba9410b1100e5f31991",
        "scriptpubkey_type": "v1_p2tr",
        "scriptpubkey_address": "bc1p4zjjeqw7culqe0tefhqy7g7nyg2lx5vt2rm3h22ppvgspe0nrxgsyqu2tu",
        "value": 137586
      },
      "scriptsig": "",
      "scriptsig_asm": "",
      "witness": [
        "b39a04a4165baa98317f3befe42b582f7353376a4f4b24c63400e27778f40b681a058c600c823cb384b63bf001f64a056c63750b222c6b925b6b1905d3e123b9"
      ],
      "is_coinbase": false,
      "sequence": 4294967295
    }
  ],
  "vout": [
    {
      "scriptpubkey": "5120900ca425cb23f8f32e6da65340731dd4a9d0e96f893097f26b470a5d19c58596",
      "scriptpubkey_asm": "OP_PUSHNUM_1 OP_PUSHBYTES_32 900ca425cb23f8f32e6da65340731dd4a9d0e96f893097f26b470a5d19c58596",
      "scriptpubkey_type": "v1_p2tr",
      "scriptpubkey_address": "bc1pjqx2gfwty0u0xtnd5ef5quca6j5ap6t03ycf0untgu996xw9sktqu4ysf3",
      "value": 55760
    },
    {
      "scriptpubkey": "5120a8a52c81dec73e0cbd794dc04f23d32215f3518b50f71ba9410b1100e5f31991",
      "scriptpubkey_asm": "OP_PUSHNUM_1 OP_PUSHBYTES_32 a8a52c81dec73e0cbd794dc04f23d32215f3518b50f71ba9410b1100e5f31991",
      "scriptpubkey_type": "v1_p2tr",
      "scriptpubkey_address": "bc1p4zjjeqw7culqe0tefhqy7g7nyg2lx5vt2rm3h22ppvgspe0nrxgsyqu2tu",
      "value": 79824
    }
  ],
  "size": 205,
  "weight": 616,
  "fee": 2002,
  "status": {
    "confirmed": true,
    "block_height": 834460,
    "block_hash": "00000000000000000000484a79b643b2524bbce82e5d8a442013fa5b8905ed98",
    "block_time": 1710307468
  },
  "hex": "02000000000101253ee493efb29ef2b3c9f0e4a35ec779d5f5cb3685fa014f85e57941575d3e860100000000ffffffff02d0d9000000000000225120900ca425cb23f8f32e6da65340731dd4a9d0e96f893097f26b470a5d19c58596d037010000000000225120a8a52c81dec73e0cbd794dc04f23d32215f3518b50f71ba9410b1100e5f319910140b39a04a4165baa98317f3befe42b582f7353376a4f4b24c63400e27778f40b681a058c600c823cb384b63bf001f64a056c63750b222c6b925b6b1905d3e123b900000000"
}