{
  "txid": "ed51a553f501e5aa5a8bc4610b0630cebcf3f57fd6986db450732e201a7109e4",
  "version": 2,
  "locktime": 0,
  "vin": [
    {
      "txid": "4c5946366b7ddb91d806389e772e42322b5f5f890319d0424e18c44bd21e8cb1",
      "vout": 15,
      "prevout": {
        "scriptpubkey": "76a914adfb8786f19039b78a78a999e04d68348d0571be88ac",
        "scriptpubkey_asm": "OP_DUP OP_HASH160 OP_PUSHBYTES_20 adfb8786f19039b78a78a999e04d68348d0571be OP_EQUALVERIFY OP_CHECKSIG",
        "scriptpubkey_type": "p2pkh",
        "scriptpubkey_address": "1GrwDkr33gT6LuumniYjKEGjTLhsL5kmqC",
        "value": 10060216404
      },
      "scriptsig": "47304402200f3621fdd5f1349a677320e751bde19826836be99ae040029a0d83d070a4b1c9022024a38f71b9a20ab55d19a30f47315f134524a20e471a16029d8997f1a4a8304201210201973a41bb610e199a1fbb208398fbacc732c3658d132dbf9f3a394bedc9a7b5",
      "scriptsig_asm": "OP_PUSHBYTES_71 304402200f3621fdd5f1349a677320e751bde19826836be99ae040029a0d83d070a4b1c9022024a38f71b9a20ab55d19a30f47315f134524a20e471a16029d8997f1a4a8304201 OP_PUSHBYTES_33 0201973a41bb610e199a1fbb208398fbacc732c3658d132dbf9f3a394bedc9a7b5",
      "is_coinbase": false,
      "sequence": 4294967295
    }
  ],
  "vout": [
    {
      "scriptpubkey": "a9147534725ac9311c0dc3c2fdec382a4f36340e743f87",
      "scriptpubkey_asm": "OP_HASH160 OP_PUSHBYTES_20 7534725ac9311c0dc3c2fdec382a4f36340e743f OP_EQUAL",
      "scriptpubkey_type": "p2sh",
      "scriptpubkey_address": "3CNjp3kwBdRdhMYn844xHUZHwH8DCAAY9s",
      "value": 8896910
    },
    {
      "scriptpubkey": "a91443e1f348759fb524b1d9a7df3b594b31351e7df987",
      "scriptpubkey_asm": "OP_HASH160 OP_PUSHBYTES_20 43e1f348759fb524b1d9a7df3b594b31351e7df9 OP_EQUAL",
      "scriptpubkey_type": "p2sh",
      "scriptpubkey_address": "37swshZauGHGTRdiHRQUcNh76sDgChH7Kc",
      "value": 223000000
    },
    {
      "scriptpubkey": "00149636e0377e16fda31da473d2e66ca1b6ace21468",
      "scriptpubkey_asm": "OP_0 OP_PUSHBYTES_20 9636e0377e16fda31da473d2e66ca1b6ace21468",
      "scriptpubkey_type": "v0_p2wpkh",
      "scriptpubkey_address": "bc1qjcmwqdm7zm76x8dyw0fwvm9pk6kwy9rgtvncm3",
      "value": 280195
    },
    {
      "scriptpubkey": "76a914d8a8035e797df5ba84bbabe2d2fb33fb58e0057488ac",
      "scriptpubkey_asm": "OP_DUP OP_HASH160 OP_PUSHBYTES_20 d8a8035e797df5ba84bbabe2d2fb33fb58e00574 OP_EQUALVERIFY OP_CHECKSIG",
      "scriptpubkey_type": "p2pkh",
      "scriptpubkey_address": "1LkaECGybyyKsbuYWNZh4UwTQzEC1fSJ54",
      "value": 470000
    },
    {
      "scriptpubkey": "a914457f3ef86e8d3e28791ff002362327bfd46cf22e87",
      "scriptpubkey_asm": "OP_HASH160 OP_PUSHBYTES_20 457f3ef86e8d3e28791ff002362327bfd46cf22e OP_EQUAL",
      "scriptpubkey_type": "p2sh",
      "scriptpubkey_address": "382Uyz7sssR9JAPEABQVavtPNf6MnMuvUM",
      "value": 113939
    },
    {
      "scriptpubkey": "a9143ef3bd0f343f1831f7203cc22bdea11208cb901a87",
      "scriptpubkey_asm": "OP_HASH160 OP_PUSHBYTES_20 3ef3bd0f343f1831f7203cc22bdea11208cb901a OP_EQUAL",
      "scriptpubkey_type": "p2sh",
      "scriptpubkey_address": "37Rsogk5KZLxmu1yMQ2TFssvF6LtYzaPa7",
      "value": 8431131
    },
    {
      "scriptpubkey": "001412490140f1f0f46ada5e40bbb762812963859213",
      "scriptpubkey_asm": "OP_0 OP_PUSHBYTES_20 12490140f1f0f46ada5e40bbb762812963859213",
      "scriptpubkey_type": "v0_p2wpkh",
      "scriptpubkey_address": "bc1qzfyszs837r6x4kj7gzamwc5p993ctysn89j525",
      "value": 585837
    },
    {
      "scriptpubkey": "a9146d043c40a30a5ab360f281ddbb12424cc9df9b2687",
      "scriptpubkey_asm": "OP_HASH160 OP_PUSHBYTES_20 6d043c40a30a5ab360f281ddbb12424cc9df9b26 OP_EQUAL",
      "scriptpubkey_type": "p2sh",
      "scriptpubkey_address": "3BdSejNSzADoqxoFCGcNbhMpJWaV5iFgQP",
      "value": 82164
    },
    {
      "scriptpubkey": "a914404e38cff36a2b5c2b4f68cafbd2e6a5a79448e287",
      "scriptpubkey_asm": "OP_HASH160 OP_PUSHBYTES_20 404e38cff36a2b5c2b4f68cafbd2e6a5a79448e2 OP_EQUAL",
      "scriptpubkey_type": "p2sh",
      "scriptpubkey_address": "37Z2smvgyH8vgdtWPK4cfMUERBM2PHiX3L",
      "value": 810022
    },
    {
      "scriptpubkey": "0014b4abb6a180d4a0981603cb0c2afec72faf1251ac",
      "scriptpubkey_asm": "OP_0 OP_PUSHBYTES_20 b4abb6a180d4a0981603cb0c2afec72faf1251ac",
      "scriptpubkey_type": "v0_p2wpkh",
      "scriptpubkey_address": "bc1qkj4mdgvq6jsfs9srevxz4lk897h3y5dv5zsmz0",
      "value": 108436
    },
    {
      "scriptpubkey": "00140e50bbc18e518d18ac48bae1c240f7d2b84a2f5a",
      "scriptpubkey_asm": "OP_0 OP_PUSHBYTES_20 0e50bbc18e518d18ac48bae1c240f7d2b84a2f5a",
      "scriptpubkey_type": "v0_p2wpkh",
      "scriptpubkey_address": "bc1qpegthsvw2xx33tzghtsuys8h62uy5t665yvj45",
      "value": 170705
    },
    {
      "scriptpubkey": "00149531894eb39add57de24ff5c4b0b71e50c3d0113",
      "scriptpubkey_asm": "OP_0 OP_PUSHBYTES_20 9531894eb39add57de24ff5c4b0b71e50c3d0113",
      "scriptpubkey_type": "v0_p2wpkh",
      "scriptpubkey_address": "bc1qj5ccjn4nntw40h3ylawykzm3u5xr6qgnn06my8",
      "value": 374000
    },
    {
      "scriptpubkey": "a9144650a093f13d50882164d6bf78f20059bfa5699187",
      "scriptpubkey_asm": "OP_HASH160 OP_PUSHBYTES_20 4650a093f13d50882164d6bf78f20059bfa56991 OP_EQUAL",
      "scriptpubkey_type": "p2sh",
      "scriptpubkey_address": "386op3xykFZo4cw3DAT7Y1RUfvaUZ6AuVR",
      "value": 1384000
    },
    {
      "scriptpubkey": "76a914adfb8786f19039b78a78a999e04d68348d0571be88ac",
      "scriptpubkey_asm": "OP_DUP OP_HASH160 OP_PUSHBYTES_20 adfb8786f19039b78a78a999e04d68348d0571be OP_EQUALVERIFY OP_CHECKSIG",
      "scriptpubkey_type": "p2pkh",
      "scriptpubkey_address": "1GrwDkr33gT6LuumniYjKEGjTLhsL5kmqC",
      "value": 9815487885
    }
  ],
  "size": 604,
  "weight": 2416,
  "fee": 21180,
  "status": {
    "confirmed": true,
    "block_height": 834638,
    "block_hash": "000000000000000000025f742c626208ac87e0b7d15054abb4a19ca2d735a54e",
    "block_time": 1710405325
  },
  "hex": "0200000001b18c1ed24bc4184e42d01903895f5f2b32422e779e3806d891db7d6b3646594c0f0000006a47304402200f3621fdd5f1349a677320e751bde19826836be99ae040029a0d83d070a4b1c9022024a38f71b9a20ab55d19a30f47315f134524a20e471a16029d8997f1a4a8304201210201973a41bb610e199a1fbb208398fbacc732c3658d132dbf9f3a394bedc9a7b5ffffffff0e8ec187000000000017a9147534725ac9311c0dc3c2fdec382a4f36340e743f87c0b54a0d0000000017a91443e1f348759fb524b1d9a7df3b594b31351e7df98783460400000000001600149636e0377e16fda31da473d2e66ca1b6ace21468f02b0700000000001976a914d8a8035e797df5ba84bbabe2d2fb33fb58e0057488ac13bd01000000000017a914457f3ef86e8d3e28791ff002362327bfd46cf22e871ba680000000000017a9143ef3bd0f343f1831f7203cc22bdea11208cb901a876df008000000000016001412490140f1f0f46ada5e40bbb762812963859213f44001000000000017a9146d043c40a30a5ab360f281ddbb12424cc9df9b2687265c0c000000000017a914404e38cff36a2b5c2b4f68cafbd2e6a5a79448e28794a7010000000000160014b4abb6a180d4a0981603cb0c2afec72faf1251acd19a0200000000001600140e50bbc18e518d18ac48bae1c240f7d2b84a2f5af0b40500000000001600149531894eb39add57de24ff5c4b0b71e50c3d0113401e15000000000017a9144650a093f13d50882164d6bf78f20059bfa56991878d750c49020000001976a914adfb8786f19039b78a78a999e04d68348d0571be88ac00000000"
}