{
  "txid": "ed7077a3989b0a72c4687d0ca057043da823b59d954139e8b872cde65bc3d2c6",
  "version": 2,
  "locktime": 0,
  "vin": [
    {
      "txid": "63ae3f28afd5d0a929109d69e6dd14c64a5f88e60465d97a08caa06060e15e8f",
      "vout": 24,
      "prevout": {
        "scriptpubkey": "51207521e7e1ad89a2de438b41a200edb7af3f6b01068d98d8079b55c11cee59669e",
        "scriptpubkey_asm": "OP_PUSHNUM_1 OP_PUSHBYTES_32 7521e7e1ad89a2de438b41a200edb7af3f6b01068d98d8079b55c11cee59669e",
        "scriptpubkey_type": "v1_p2tr",
        "scriptpubkey_address": "bc1pw5s70cdd3x3dusutgx3qpmdh4ulkkqgx3kvdspum2hq3emjev60qma2ywg",
        "value": 3055
      },
      "scriptsig": "",
      "scriptsig_asm": "",
      "witness": [
        "6f6e423919ef3db418ba78ee1f010ac56eb33cf3b254ef271e27b67537ae2dba70dfa95b2a083d1f5797910602e9390977bc2fdd6a173c7c907fdf9f63c6306b",
        "20001358e6d2f1e6cd5b2dc08d0932e8671124c1aa27a404d857e4678f6058f08dac0063036f726401011e6170706c69636174696f6e2f6a736f6e3b636861727365743d7574662d38004cd37b2270223a22706f772d3230222c226f70223a226d696e74222c227469636b223a2250455045222c22616d74223a2231303030222c22736f6c7574696f6e223a22504550453a626331706a39356d676c663836377961396a32756368377a34647836793635746736373330676e7661796b706b6c77793335757667376a73773033676d713a303030303030303030303030303030303030303139393431613561653132383937363539383134343239323533333030353762306461393666336465613163353a3339363336303030343535227d68",
        "c0ffe2b6185dd514800047a24f9c3d628916daef0b23d9f98ab4cda2a0457a18d1"
      ],
      "is_coinbase": false,
      "sequence": 4294967295
    }
  ],
  "vout": [
    {
      "scriptpubkey": "51209169b47d27d789d2c95cc5fc2ab4da26a8b46bd17a26ce92c1b7dc48d38c47a5",
      "scriptpubkey_asm": "OP_PUSHNUM_1 OP_PUSHBYTES_32 9169b47d27d789d2c95cc5fc2ab4da26a8b46bd17a26ce92c1b7dc48d38c47a5",
      "scriptpubkey_type": "v1_p2tr",
      "scriptpubkey_address": "bc1pj95mglf867ya9j2uch7z4dx6y65tg6730gnvaykpklwy35uvg7jsw03gmq",
      "value": 546
    }
  ],
  "size": 487,
  "weight": 769,
  "fee": 2509,
  "status": {
    "confirmed": true,
    "block_height": 834460,
    "block_hash": "00000000000000000000484a79b643b2524bbce82e5d8a442013fa5b8905ed98",
    "block_time": 1710307468
  },
  "hex": "020000000001018f5ee16060a0ca087ad96504e6885f4ac614dde6699d1029a9d0d5af283fae631800000000ffffffff0122020000000000002251209169b47d27d789d2c95cc5fc2ab4da26a8b46bd17a26ce92c1b7dc48d38c47a503406f6e423919ef3db418ba78ee1f010ac56eb33cf3b254ef271e27b67537ae2dba70dfa95b2a083d1f5797910602e9390977bc2fdd6a173c7c907fdf9f63c6306bfd200120001358e6d2f1e6cd5b2dc08d0932e8671124c1aa27a404d857e4678f6058f08dac0063036f726401011e6170706c69636174696f6e2f6a736f6e3b636861727365743d7574662d38004cd37b2270223a22706f772d3230222c226f70223a226d696e74222c227469636b223a2250455045222c22616d74223a2231303030222c22736f6c7574696f6e223a22504550453a626331706a39356d676c663836377961396a32756368377a34647836793635746736373330676e7661796b706b6c77793335757667376a73773033676d713a303030303030303030303030303030303030303139393431613561653132383937363539383134343239323533333030353762306461393666336465613163353a3339363336303030343535227d6821c0ffe2b6185dd514800047a24f9c3d628916daef0b23d9f98ab4cda2a0457a18d100000000"
}