{
  "txid": "ed8b98fcbdba093c32619cc68481c7511f0e80c1eca5c6da2dfef7fa0afa2663",
  "version": 1,
  "locktime": 0,
  "vin": [
    {
      "txid": "1401819f344f8d709bec7bcf6ed868a9365f32e1f6b40b8d64476ae10178eab8",
      "vout": 1,
      "prevout": {
        "scriptpubkey": "51209d6dbbf9bad17d0135e06ea56ec304df985f9f9bc809fa52ae6789a0947e0300",
        "scriptpubkey_asm": "OP_PUSHNUM_1 OP_PUSHBYTES_32 9d6dbbf9bad17d0135e06ea56ec304df985f9f9bc809fa52ae6789a0947e0300",
        "scriptpubkey_type": "v1_p2tr",
        "scriptpubkey_address": "bc1pn4kmh7d6697szd0qd6jkascym7v9l8umeqyl554wv7y6p9r7qvqquzkndh",
        "value": 232190
      },
      "scriptsig": "",
      "scriptsig_asm": "",
      "witness": [
        "cfb68f50b9ad90ff5e5cd0b1c175c7c7f3fee572cd37ed8fc21aff72b7638a3054bc636f46b701a3f134716bf7f9ff366fb8d638bb780e0c44fc851121bf00ec"
      ],
      "is_coinbase": false,
      "sequence": 0
    }
  ],
  "vout": [
    {
      "scriptpubkey": "512060f3cac9176b75f490860e77a243ff8a3622fdbacbc300d1e077641b80d9f1cc",
      "scriptpubkey_asm": "OP_PUSHNUM_1 OP_PUSHBYTES_32 60f3cac9176b75f490860e77a243ff8a3622fdbacbc300d1e077641b80d9f1cc",
      "scriptpubkey_type": "v1_p2tr",
      "scriptpubkey_address": "bc1pvreu4jghdd6lfyyxpem6ysll3gmz9ld6e0psp50qwajphqxe78xqyxhhxl",
      "value": 2710
    },
    {
      "scriptpubkey": "51209d6dbbf9bad17d0135e06ea56ec304df985f9f9bc809fa52ae6789a0947e0300",
      "scriptpubkey_asm": "OP_PUSHNUM_1 OP_PUSHBYTES_32 9d6dbbf9bad17d0135e06ea56ec304df985f9f9bc809fa52ae6789a0947e0300",
      "scriptpubkey_type": "v1_p2tr",
      "scriptpubkey_address": "bc1pn4kmh7d6697szd0qd6jkascym7v9l8umeqyl554wv7y6p9r7qvqquzkndh",
      "value": 227632
    }
  ],
  "size": 205,
  "weight": 616,
  "fee": 1848,
  "status": {
    "confirmed": true,
    "block_height": 834464,
    "block_hash": "0000000000000000000177a0869a911a2b65c9bdcd5a8bcb02b68f305bee848e",
    "block_time": 1710308296
  },
  "hex": "01000000000101b8ea7801e16a47648d0bb4f6e1325f36a968d86ecf7bec9b708d4f349f81011401000000000000000002960a00000000000022512060f3cac9176b75f490860e77a243ff8a3622fdbacbc300d1e077641b80d9f1cc30790300000000002251209d6dbbf9bad17d0135e06ea56ec304df985f9f9bc809fa52ae6789a0947e03000140cfb68f50b9ad90ff5e5cd0b1c175c7c7f3fee572cd37ed8fc21aff72b7638a3054bc636f46b701a3f134716bf7f9ff366fb8d638bb780e0c44fc851121bf00ec00000000"
}