{
  "txid": "ed8c4e7cae43bfce7c0fb1b5651c34110a08d7ea51a96d5cdd8a21d6dd9478fe",
  "version": 1,
  "locktime": 0,
  "vin": [
    {
      "txid": "8e65bfc12fbc8faf81cf08104d51298143ea94e41e7dea040399e1be9b21a294",
      "vout": 1,
      "prevout": {
        "scriptpubkey": "76a9149a19e8918ee66b10735dbb6a8ea6c341c2232bc388ac",
        "scriptpubkey_asm": "OP_DUP OP_HASH160 OP_PUSHBYTES_20 9a19e8918ee66b10735dbb6a8ea6c341c2232bc3 OP_EQUALVERIFY OP_CHECKSIG",
        "scriptpubkey_type": "p2pkh",
        "scriptpubkey_address": "1F3p6hFexGfEiRjSEESgK79YBzsb4MzVWJ",
        "value": 10550
      },
      "scriptsig": "483045022100d820a206e49f12fbb2a3e997c476945a188a1de375f9ffc85680ea470eb8ff6102207a8ca634c0cd3563a8ba5c68a954d992954539fefb39cccda3e42b69f8c3963101210346a257a4f5966bd90ba9887fb1513e09b62dc25930e606a86fa1d459ef3e8d47",
      "scriptsig_asm": "OP_PUSHBYTES_72 3045022100d820a206e49f12fbb2a3e997c476945a188a1de375f9ffc85680ea470eb8ff6102207a8ca634c0cd3563a8ba5c68a954d992954539fefb39cccda3e42b69f8c3963101 OP_PUSHBYTES_33 0346a257a4f5966bd90ba9887fb1513e09b62dc25930e606a86fa1d459ef3e8d47",
      "is_coinbase": false,
      "sequence": 4294967295
    },
    {
      "txid": "482d9b039b90e0aad1ffbef97dc7286e7bd4fe98ded12db025e37aa1db9fc5b0",
      "vout": 1,
      "prevout": {
        "scriptpubkey": "76a91496379c6d7907dcdc02fb3da8b9b562f6b3c75fb688ac",
        "scriptpubkey_asm": "OP_DUP OP_HASH160 OP_PUSHBYTES_20 96379c6d7907dcdc02fb3da8b9b562f6b3c75fb6 OP_EQUALVERIFY OP_CHECKSIG",
        "scriptpubkey_type": "p2pkh",
        "scriptpubkey_address": "1EhGyhUC4AhvBqxW1GJjAHmvjtZYm3rahL",
        "value": 12556
      },
      "scriptsig": "483045022100e105fd22263700b252550ecf9c692bc03f452ee94ca1d9b3b1487a262aaf229402204e5a61bf286a6faf631fc22813567d8bf6024d744e52b402d054367f912c79b80121039e80becc1ba6351edf703bdc8e6712c14293e003339e18c956f230996b958a9f",
      "scriptsig_asm": "OP_PUSHBYTES_72 3045022100e105fd22263700b252550ecf9c692bc03f452ee94ca1d9b3b1487a262aaf229402204e5a61bf286a6faf631fc22813567d8bf6024d744e52b402d054367f912c79b801 OP_PUSHBYTES_33 039e80becc1ba6351edf703bdc8e6712c14293e003339e18c956f230996b958a9f",
      "is_coinbase": false,
      "sequence": 4294967295
    },
    {
      "txid": "d250467053ff6ca5eb7d5a037b68c9d773b72bd75c6a404f1f77f1a8f566b332",
      "vout": 1,
      "prevout": {
        "scriptpubkey": "76a914dc4124a02470e76e899e0894141de688df68bf3a88ac",
        "scriptpubkey_asm": "OP_DUP OP_HASH160 OP_PUSHBYTES_20 dc4124a02470e76e899e0894141de688df68bf3a OP_EQUALVERIFY OP_CHECKSIG",
        "scriptpubkey_type": "p2pkh",
        "scriptpubkey_address": "1M5bhRW7VxBmQ3UmtNUddn2XsUgYCAmzBt",
        "value": 18258
      },
      "scriptsig": "48304502210080db6c765f985f7365db6c2c1786f2326bc7e0a62614073a05077ace81c3630902202ebb17a04078c1a7ab08cbecf838a4b4bbc2c2c1f8b1a5cafc0316180331c0d3012102670e54e437eb7d940770eaf39f3cf9ae0e66bab40e256219b6c4e153aedc73f7",
      "scriptsig_asm": "OP_PUSHBYTES_72 304502210080db6c765f985f7365db6c2c1786f2326bc7e0a62614073a05077ace81c3630902202ebb17a04078c1a7ab08cbecf838a4b4bbc2c2c1f8b1a5cafc0316180331c0d301 OP_PUSHBYTES_33 02670e54e437eb7d940770eaf39f3cf9ae0e66bab40e256219b6c4e153aedc73f7",
      "is_coinbase": false,
      "sequence": 4294967295
    },
    {
      "txid": "20bc0d944ef636ec29430211f57f1e50d76c67b40da3ba2778a3549392dccd64",
      "vout": 1,
      "prevout": {
        "scriptpubkey": "76a9142f522d51738aa0873333f2c2b65c91a1b5ed782588ac",
        "scriptpubkey_asm": "OP_DUP OP_HASH160 OP_PUSHBYTES_20 2f522d51738aa0873333f2c2b65c91a1b5ed7825 OP_EQUALVERIFY OP_CHECKSIG",
        "scriptpubkey_type": "p2pkh",
        "scriptpubkey_address": "15KDCmzfevFK1zyiQ1iF1joA1X1XzjcHbE",
        "value": 30580
      },
      "scriptsig": "47304402206ebcaee44ad8e810009f89997fdba19a28897a4df3e076482ce2a4b2375f702402206c778cb8cccec98d8b6569fca91de141fe6501d342f39dd807ef38a180a7f56301210358ec5ce36e8a4bf59a3f21b9cb192dd2b00dcfaa73762e614abefbbc5d702a0f",
      "scriptsig_asm": "OP_PUSHBYTES_71 304402206ebcaee44ad8e810009f89997fdba19a28897a4df3e076482ce2a4b2375f702402206c778cb8cccec98d8b6569fca91de141fe6501d342f39dd807ef38a180a7f56301 OP_PUSHBYTES_33 0358ec5ce36e8a4bf59a3f21b9cb192dd2b00dcfaa73762e614abefbbc5d702a0f",
      "is_coinbase": false,
      "sequence": 4294967295
    }
  ],
  "vout": [
    {
      "scriptpubkey": "a914e64c4ff46949c46804eeb52869004eafbb95967d87",
      "scriptpubkey_asm": "OP_HASH160 OP_PUSHBYTES_20 e64c4ff46949c46804eeb52869004eafbb95967d OP_EQUAL",
      "scriptpubkey_type": "p2sh",
      "scriptpubkey_address": "3NgikwMQxuxqwgfs8BD4ZSeJ8VWcBmVTJQ",
      "value": 57597
    },
    {
      "scriptpubkey": "76a9146810315aa4110753854ad762afabc10cfb69ca2a88ac",
      "scriptpubkey_asm": "OP_DUP OP_HASH160 OP_PUSHBYTES_20 6810315aa4110753854ad762afabc10cfb69ca2a OP_EQUALVERIFY OP_CHECKSIG",
      "scriptpubkey_type": "p2pkh",
      "scriptpubkey_address": "1AVEg3cga1NVTgUaZoxCyHQfLezoGnTJRg",
      "value": 947
    }
  ],
  "size": 667,
  "weight": 2668,
  "fee": 13400,
  "status": {
    "confirmed": true,
    "block_height": 834638,
    "block_hash": "000000000000000000025f742c626208ac87e0b7d15054abb4a19ca2d735a54e",
    "block_time": 1710405325
  },
  "hex": "010000000494a2219bbee1990304ea7d1ee494ea438129514d1008cf81af8fbc2fc1bf658e010000006b483045022100d820a206e49f12fbb2a3e997c476945a188a1de375f9ffc85680ea470eb8ff6102207a8ca634c0cd3563a8ba5c68a954d992954539fefb39cccda3e42b69f8c3963101210346a257a4f5966bd90ba9887fb1513e09b62dc25930e606a86fa1d459ef3e8d47ffffffffb0c59fdba17ae325b02dd1de98fed47b6e28c77df9beffd1aae0909b039b2d48010000006b483045022100e105fd22263700b252550ecf9c692bc03f452ee94ca1d9b3b1487a262aaf229402204e5a61bf286a6faf631fc22813567d8bf6024d744e52b402d054367f912c79b80121039e80becc1ba6351edf703bdc8e6712c14293e003339e18c956f230996b958a9fffffffff32b366f5a8f1771f4f406a5cd72bb773d7c9687b035a7deba56cff53704650d2010000006b48304502210080db6c765f985f7365db6c2c1786f2326bc7e0a62614073a05077ace81c3630902202ebb17a04078c1a7ab08cbecf838a4b4bbc2c2c1f8b1a5cafc0316180331c0d3012102670e54e437eb7d940770eaf39f3cf9ae0e66bab40e256219b6c4e153aedc73f7ffffffff64cddc929354a37827baa30db4676cd7501e7ff511024329ec36f64e940dbc20010000006a47304402206ebcaee44ad8e810009f89997fdba19a28897a4df3e076482ce2a4b2375f702402206c778cb8cccec98d8b6569fca91de141fe6501d342f39dd807ef38a180a7f56301210358ec5ce36e8a4bf59a3f21b9cb192dd2b00dcfaa73762e614abefbbc5d702a0fffffffff02fde000000000000017a914e64c4ff46949c46804eeb52869004eafbb95967d87b3030000000000001976a9146810315aa4110753854ad762afabc10cfb69ca2a88ac00000000"
}