{
  "txid": "ed8dddbae3333dcf0faf8bf676f9d65ab3573231b18d28922e089003618da116",
  "version": 2,
  "locktime": 0,
  "vin": [
    {
      "txid": "cbe0ae6a6a0c3b2d4ca108eb14099fe914444bc6b467ba01ea2e66725feb0ff5",
      "vout": 5,
      "prevout": {
        "scriptpubkey": "0014f63fedf47b51b4033e4f1f3829b20a611f64ad54",
        "scriptpubkey_asm": "OP_0 OP_PUSHBYTES_20 f63fedf47b51b4033e4f1f3829b20a611f64ad54",
        "scriptpubkey_type": "v0_p2wpkh",
        "scriptpubkey_address": "bc1q7cl7marm2x6qx0j0ruuznvs2vy0kft25ss7hmy",
        "value": 52886765
      },
      "scriptsig": "",
      "scriptsig_asm": "",
      "witness": [
        "3044022050d93f694c33cf524acca3bb1f44d645c914f175ae93500f2c1ef53f02821b22022015e80e1ffa454b7656cd6d722c3111634fb9dea75802d8342ea25dfe85bfdf6b01",
        "0284f87178f434481aedcc40af50ac394795569e9c6a8271dde090129a97d32ca9"
      ],
      "is_coinbase": false,
      "sequence": 4294967293
    }
  ],
  "vout": [
    {
      "scriptpubkey": "00147b50bc317701dba3e230448d568004bb21297161",
      "scriptpubkey_asm": "OP_0 OP_PUSHBYTES_20 7b50bc317701dba3e230448d568004bb21297161",
      "scriptpubkey_type": "v0_p2wpkh",
      "scriptpubkey_address": "bc1q0dgtcvthq8d68c3sgjx4dqqyhvsjjutpk4kz0d",
      "value": 52878620
    }
  ],
  "size": 191,
  "weight": 437,
  "fee": 8145,
  "status": {
    "confirmed": true,
    "block_height": 834638,
    "block_hash": "000000000000000000025f742c626208ac87e0b7d15054abb4a19ca2d735a54e",
    "block_time": 1710405325
  },
  "hex": "02000000000101f50feb5f72662eea01ba67b4c64b4414e99f0914eb08a14c2d3b0c6a6aaee0cb0500000000fdffffff011cdd2603000000001600147b50bc317701dba3e230448d568004bb2129716102473044022050d93f694c33cf524acca3bb1f44d645c914f175ae93500f2c1ef53f02821b22022015e80e1ffa454b7656cd6d722c3111634fb9dea75802d8342ea25dfe85bfdf6b01210284f87178f434481aedcc40af50ac394795569e9c6a8271dde090129a97d32ca900000000"
}