{
  "txid": "ed9ca5fc5045a44e274302e345f3b4320d42d98502afb313dbc7afb45c5f171f",
  "version": 2,
  "locktime": 832745,
  "vin": [
    {
      "txid": "ee41629da0e29b02e18de252d977bf456de1d301157d3c8a9cbe25964aea534c",
      "vout": 0,
      "prevout": {
        "scriptpubkey": "001415e811294ba1f413f6acb5efe650fdc5d6a42e95",
        "scriptpubkey_asm": "OP_0 OP_PUSHBYTES_20 15e811294ba1f413f6acb5efe650fdc5d6a42e95",
        "scriptpubkey_type": "v0_p2wpkh",
        "scriptpubkey_address": "bc1qzh5pz22t586p8a4vkhh7v58acht2gt54ql9dyu",
        "value": 492782
      },
      "scriptsig": "",
      "scriptsig_asm": "",
      "witness": [
        "3044022012a61f3c34a06847b51b5c8dc4c20717d96999c620bd478f23f90ef76f78d2580220781a6bcb56f188fdeb8aee97a753680cd2a0e5d73ce44e7ce3136a0c04d5998c01",
        "0364cd07380db83cae370dd43d79bb5f4ef03599d3681f519d10b7e04a21573bf3"
      ],
      "is_coinbase": false,
      "sequence": 4294967293
    },
    {
      "txid": "3ca74d1a3bf9881645dec9b9620a301f96b650b38f57eff25642ef811a1dd182",
      "vout": 1,
      "prevout": {
        "scriptpubkey": "51201178c35bdf56958a9522e51d167d27b3791a4696b5466283264edbf3679507fb",
        "scriptpubkey_asm": "OP_PUSHNUM_1 OP_PUSHBYTES_32 1178c35bdf56958a9522e51d167d27b3791a4696b5466283264edbf3679507fb",
        "scriptpubkey_type": "v1_p2tr",
        "scriptpubkey_address": "bc1pz9uvxk7l262c49fzu5w3vlf8kdu3535kk4rx9qexfmdlxeu4qlas95d6t7",
        "value": 26605
      },
      "scriptsig": "",
      "scriptsig_asm": "",
      "witness": [
        "55582b1752895baea62dac8cacb910139b02caf42c92c2b72695f2a4f801498e628b86dc40076af95ee1ab3482c5cf56a59c646a0d746832a2c52a7a32d6eb9a"
      ],
      "is_coinbase": false,
      "sequence": 4294967293
    },
    {
      "txid": "51acb9deaaf51fed1490d285e57db7e628108891a682efb8da176fdfb758a7d8",
      "vout": 1,
      "prevout": {
        "scriptpubkey": "5120f5455f409854333f608f3e873049bcf4e068ef4a4c784625e311a73772a4c2fe",
        "scriptpubkey_asm": "OP_PUSHNUM_1 OP_PUSHBYTES_32 f5455f409854333f608f3e873049bcf4e068ef4a4c784625e311a73772a4c2fe",
        "scriptpubkey_type": "v1_p2tr",
        "scriptpubkey_address": "bc1p74z47syc2sen7cy086rnqjdu7nsx3m62f3uyvf0rzxnnwu4yctlq8exp0z",
        "value": 2986
      },
      "scriptsig": "",
      "scriptsig_asm": "",
      "witness": [
        "e461c334badfe11783c91f9bc6396d598f8b86d6a0dec0a97349c75f0f4008c106c4e03dcedb48629cf7266e5f60742ec8a6c53723fd1f4abd821aeba6ac14df"
      ],
      "is_coinbase": false,
      "sequence": 4294967293
    },
    {
      "txid": "76f161bd2d3a9ed77b3b1f4893b37162b333619a9b0cc01e3b88b6779859c960",
      "vout": 1,
      "prevout": {
        "scriptpubkey": "5120f79d619bb338e4b0a4f639ee4ef6dedbf429a34a04b43dc90115654bed64d71a",
        "scriptpubkey_asm": "OP_PUSHNUM_1 OP_PUSHBYTES_32 f79d619bb338e4b0a4f639ee4ef6dedbf429a34a04b43dc90115654bed64d71a",
        "scriptpubkey_type": "v1_p2tr",
        "scriptpubkey_address": "bc1p77wkrxan8rjtpf8k88hyaak7m06zng62qj6rmjgpz4j5hmty6udqeg6m0k",
        "value": 2653
      },
      "scriptsig": "",
      "scriptsig_asm": "",
      "witness": [
        "da9b3712fa215057ac9a3d7448a6b9531fe359be2a3c26328903f105e4c57c49573fdad976092361aedcbe0a3f36762bc1ccfdf7ab638fc29b42cdde96db0f1d"
      ],
      "is_coinbase": false,
      "sequence": 4294967293
    },
    {
      "txid": "19540bbc81579c632e73a587b7a5976eb66bd079c7c64efbd423b75bafddb2bb",
      "vout": 1,
      "prevout": {
        "scriptpubkey": "512070950e040e41174ff7f5eb00f491bd431e87e1710a9962712a2bfe58e9520585",
        "scriptpubkey_asm": "OP_PUSHNUM_1 OP_PUSHBYTES_32 70950e040e41174ff7f5eb00f491bd431e87e1710a9962712a2bfe58e9520585",
        "scriptpubkey_type": "v1_p2tr",
        "scriptpubkey_address": "bc1pwz2supqwgyt5lal4avq0fydagv0g0ct3p2vkyuf290l9362jqkzszrjmju",
        "value": 1654
      },
      "scriptsig": "",
      "scriptsig_asm": "",
      "witness": [
        "11576888ad6b13cea4bf6e03623581db08abc9944170c2910dc4ef5c5ca86d92d41419ce14ef0d813f2860df40f580c9f2831e83925652e7437118f480072b7f"
      ],
      "is_coinbase": false,
      "sequence": 4294967293
    },
    {
      "txid": "66b658522fb9b80a745b86e21afd7c4006639073f46c94023beda740a8ddea64",
      "vout": 0,
      "prevout": {
        "scriptpubkey": "00147a3c97cd15719efbfd3c98e809e2ced305f123e0",
        "scriptpubkey_asm": "OP_0 OP_PUSHBYTES_20 7a3c97cd15719efbfd3c98e809e2ced305f123e0",
        "scriptpubkey_type": "v0_p2wpkh",
        "scriptpubkey_address": "bc1q0g7f0ng4wx00hlfunr5qnckw6vzlzglq6g9x83",
        "value": 585610
      },
      "scriptsig": "",
      "scriptsig_asm": "",
      "witness": [
        "30440220026e2f831845f81d4813296b8c613fcaff9028e58d161bfed076dc04e09e097f0220165326ed8554415ebc3c3ffcf1ff337bb714c7853f1c1cdd13bc0c4107a22aa101",
        "03acf3018a662b089336503b4672e6de395519cda0b78ebcfcb31b2f75d191d91c"
      ],
      "is_coinbase": false,
      "sequence": 4294967293
    }
  ],
  "vout": [
    {
      "scriptpubkey": "0020c6d0f112c50b21fc2679b6be9b239187323803262291005840d751d76c37350b",
      "scriptpubkey_asm": "OP_0 OP_PUSHBYTES_32 c6d0f112c50b21fc2679b6be9b239187323803262291005840d751d76c37350b",
      "scriptpubkey_type": "v0_p2wsh",
      "scriptpubkey_address": "bc1qcmg0zyk9pvslcfnek6lfkgu3suersqexy2gsqkzq6agawmphx59syre8f0",
      "value": 1077670
    },
    {
      "scriptpubkey": "51209c20205f4f2f10bad78daed6fdbe2491da94f9824dad4f931d9eac5e76d82fa7",
      "scriptpubkey_asm": "OP_PUSHNUM_1 OP_PUSHBYTES_32 9c20205f4f2f10bad78daed6fdbe2491da94f9824dad4f931d9eac5e76d82fa7",
      "scriptpubkey_type": "v1_p2tr",
      "scriptpubkey_address": "bc1pnsszqh609ugt44ud4mt0m03yj8dff7vzfkk5lycan6k9uakc97nsv6d8pv",
      "value": 29568
    }
  ],
  "size": 822,
  "weight": 1848,
  "fee": 5052,
  "status": {
    "confirmed": true,
    "block_height": 834464,
    "block_hash": "0000000000000000000177a0869a911a2b65c9bdcd5a8bcb02b68f305bee848e",
    "block_time": 1710308296
  },
  "hex": "020000000001064c53ea4a9625be9c8a3c7d1501d3e16d45bf77d952e28de1029be2a09d6241ee0000000000fdffffff82d11d1a81ef4256f2ef578fb350b6961f300a62b9c9de451688f93b1a4da73c0100000000fdffffffd8a758b7df6f17dab8ef82a691881028e6b77de585d29014ed1ff5aadeb9ac510100000000fdffffff60c9599877b6883b1ec00c9b9a6133b36271b393481f3b7bd79e3a2dbd61f1760100000000fdffffffbbb2ddaf5bb723d4fb4ec6c779d06bb66e97a5b787a5732e639c5781bc0b54190100000000fdffffff64eadda840a7ed3b02946cf473906306407cfd1ae2865b740ab8b92f5258b6660000000000fdffffff02a671100000000000220020c6d0f112c50b21fc2679b6be9b239187323803262291005840d751d76c37350b80730000000000002251209c20205f4f2f10bad78daed6fdbe2491da94f9824dad4f931d9eac5e76d82fa702473044022012a61f3c34a06847b51b5c8dc4c20717d96999c620bd478f23f90ef76f78d2580220781a6bcb56f188fdeb8aee97a753680cd2a0e5d73ce44e7ce3136a0c04d5998c01210364cd07380db83cae370dd43d79bb5f4ef03599d3681f519d10b7e04a21573bf3014055582b1752895baea62dac8cacb910139b02caf42c92c2b72695f2a4f801498e628b86dc40076af95ee1ab3482c5cf56a59c646a0d746832a2c52a7a32d6eb9a0140e461c334badfe11783c91f9bc6396d598f8b86d6a0dec0a97349c75f0f4008c106c4e03dcedb48629cf7266e5f60742ec8a6c53723fd1f4abd821aeba6ac14df0140da9b3712fa215057ac9a3d7448a6b9531fe359be2a3c26328903f105e4c57c49573fdad976092361aedcbe0a3f36762bc1ccfdf7ab638fc29b42cdde96db0f1d014011576888ad6b13cea4bf6e03623581db08abc9944170c2910dc4ef5c5ca86d92d41419ce14ef0d813f2860df40f580c9f2831e83925652e7437118f480072b7f024730440220026e2f831845f81d4813296b8c613fcaff9028e58d161bfed076dc04e09e097f0220165326ed8554415ebc3c3ffcf1ff337bb714c7853f1c1cdd13bc0c4107a22aa1012103acf3018a662b089336503b4672e6de395519cda0b78ebcfcb31b2f75d191d91ce9b40c00"
}