{
  "txid": "ed9f5648ad024995113b031b7e7e28f14bb8a8b158ab623e1bfa47369ab6549c",
  "version": 2,
  "locktime": 0,
  "vin": [
    {
      "txid": "196c6bc5c3f145a6d48c2953237dd2e51d559f62bb4c2799e4a53c10f3f90711",
      "vout": 13,
      "prevout": {
        "scriptpubkey": "00144292c303c5d5dd01000c1c2ac3f8c32a59011cf9",
        "scriptpubkey_asm": "OP_0 OP_PUSHBYTES_20 4292c303c5d5dd01000c1c2ac3f8c32a59011cf9",
        "scriptpubkey_type": "v0_p2wpkh",
        "scriptpubkey_address": "bc1qg2fvxq796hwszqqvrs4v87xr9fvsz88etkyttk",
        "value": 48158
      },
      "scriptsig": "",
      "scriptsig_asm": "",
      "witness": [
        "304402204cc4d53e6684c30d5c480f3323d31a4fade45ab3b55be72025f65f959ac06e4b02202fabbcefa7079cc52acc293fcac88e484265f9c9aa6bcd52bee0b750883c464a01",
        "022d3d303593cccc024a8ed26a6ecdb31efb8915e83c2be0759379e2135df9bd7b"
      ],
      "is_coinbase": false,
      "sequence": 4294967293
    }
  ],
  "vout": [
    {
      "scriptpubkey": "001415ac0cb2265663b327c93de55118302ae142e3ef",
      "scriptpubkey_asm": "OP_0 OP_PUSHBYTES_20 15ac0cb2265663b327c93de55118302ae142e3ef",
      "scriptpubkey_type": "v0_p2wpkh",
      "scriptpubkey_address": "bc1qzkkqev3x2e3mxf7f8hj4zxps9ts59cl0guhn85",
      "value": 27720
    },
    {
      "scriptpubkey": "0014e4fa958e2e7c3203c05cb5bfa644ffc30ab56fda",
      "scriptpubkey_asm": "OP_0 OP_PUSHBYTES_20 e4fa958e2e7c3203c05cb5bfa644ffc30ab56fda",
      "scriptpubkey_type": "v0_p2wpkh",
      "scriptpubkey_address": "bc1qunaftr3w0seq8szukkl6v38lcv9t2m760j2y24",
      "value": 15974
    }
  ],
  "size": 222,
  "weight": 561,
  "fee": 4464,
  "status": {
    "confirmed": true,
    "block_height": 834464,
    "block_hash": "0000000000000000000177a0869a911a2b65c9bdcd5a8bcb02b68f305bee848e",
    "block_time": 1710308296
  },
  "hex": "020000000001011107f9f3103ca5e499274cbb629f551de5d27d2353298cd4a645f1c3c56b6c190d00000000fdffffff02486c00000000000016001415ac0cb2265663b327c93de55118302ae142e3ef663e000000000000160014e4fa958e2e7c3203c05cb5bfa644ffc30ab56fda0247304402204cc4d53e6684c30d5c480f3323d31a4fade45ab3b55be72025f65f959ac06e4b02202fabbcefa7079cc52acc293fcac88e484265f9c9aa6bcd52bee0b750883c464a0121022d3d303593cccc024a8ed26a6ecdb31efb8915e83c2be0759379e2135df9bd7b00000000"
}