{
  "txid": "eda102f79c40e83233a35b4fe49949873c68c1cee341bdfbdcca0fa88feec616",
  "version": 2,
  "locktime": 834637,
  "vin": [
    {
      "txid": "f9aad1ea05c831257237739bca965bb9fa7730034d0c5bd5a48d611796606489",
      "vout": 0,
      "prevout": {
        "scriptpubkey": "001436eff1768d1febb5b19ac7f1b75a47af68aaa1a5",
        "scriptpubkey_asm": "OP_0 OP_PUSHBYTES_20 36eff1768d1febb5b19ac7f1b75a47af68aaa1a5",
        "scriptpubkey_type": "v0_p2wpkh",
        "scriptpubkey_address": "bc1qxmhlza5drl4mtvv6clcmwkj84a524gd9nvpgzf",
        "value": 66630
      },
      "scriptsig": "",
      "scriptsig_asm": "",
      "witness": [
        "304402205676f719420e16879a8f4def1d02264f114d07d52a9398f1b3dda3983434992502201a6204e975c973c089fecaddda1f3335b563e5ac9bda2a03e07e119c6624d2da01",
        "03bec1f44fac86c026b2a839aa6f99f9ccc9e3af3a4c181e1a2b8c081570f1689b"
      ],
      "is_coinbase": false,
      "sequence": 4294967293
    }
  ],
  "vout": [
    {
      "scriptpubkey": "00142e68a7914583fe7a87676c52593c1b7b46f9d8f7",
      "scriptpubkey_asm": "OP_0 OP_PUSHBYTES_20 2e68a7914583fe7a87676c52593c1b7b46f9d8f7",
      "scriptpubkey_type": "v0_p2wpkh",
      "scriptpubkey_address": "bc1q9e520y29s0l84pm8d3f9j0qm0dr0nk8h5v5qse",
      "value": 3918
    },
    {
      "scriptpubkey": "00149b510254455e087640b136f5e260281f1d552af9",
      "scriptpubkey_asm": "OP_0 OP_PUSHBYTES_20 9b510254455e087640b136f5e260281f1d552af9",
      "scriptpubkey_type": "v0_p2wpkh",
      "scriptpubkey_address": "bc1qndgsy4z9tcy8vs93xm67ycpgruw422he2krdae",
      "value": 58905
    }
  ],
  "size": 222,
  "weight": 561,
  "fee": 3807,
  "status": {
    "confirmed": true,
    "block_height": 834638,
    "block_hash": "000000000000000000025f742c626208ac87e0b7d15054abb4a19ca2d735a54e",
    "block_time": 1710405325
  },
  "hex": "020000000001018964609617618da4d55b0c4d033077fab95b96ca9b7337722531c805ead1aaf90000000000fdffffff024e0f0000000000001600142e68a7914583fe7a87676c52593c1b7b46f9d8f719e60000000000001600149b510254455e087640b136f5e260281f1d552af90247304402205676f719420e16879a8f4def1d02264f114d07d52a9398f1b3dda3983434992502201a6204e975c973c089fecaddda1f3335b563e5ac9bda2a03e07e119c6624d2da012103bec1f44fac86c026b2a839aa6f99f9ccc9e3af3a4c181e1a2b8c081570f1689b4dbc0c00"
}