{
  "txid": "edab9275c3ae912b54ec5e56b43011a23684ca729608bd0c6a2a485ef39db699",
  "version": 2,
  "locktime": 0,
  "vin": [
    {
      "txid": "67f36b577f65933ae94ea7b2e64f7f34989c0f069ea1b89ff2a1502b2a0f0e7b",
      "vout": 1,
      "prevout": {
        "scriptpubkey": "001404b9d4bc1332ac4e61808483ef67dcd76b23264d",
        "scriptpubkey_asm": "OP_0 OP_PUSHBYTES_20 04b9d4bc1332ac4e61808483ef67dcd76b23264d",
        "scriptpubkey_type": "v0_p2wpkh",
        "scriptpubkey_address": "bc1qqjuaf0qnx2kyucvqsjp77e7u6a4jxfjd3sl79u",
        "value": 25000
      },
      "scriptsig": "",
      "scriptsig_asm": "",
      "witness": [
        "304402206d6f8fb9326127f8d7d5f8c2e1fae1dd947ccb39bb804ef709fe52ecffdc64350220089b297d67ba580da08d9becd842058f219a89b892ab6fd6bc950409c32ce8e301",
        "0226a347c55aaff5acb0a71975237e1f636807b0592607640f6723fb23f630230a"
      ],
      "is_coinbase": false,
      "sequence": 4294967295
    },
    {
      "txid": "32b0d33973855a717c3a18883a650d5765cac5141082be77b1f5519dec342b09",
      "vout": 0,
      "prevout": {
        "scriptpubkey": "001404b9d4bc1332ac4e61808483ef67dcd76b23264d",
        "scriptpubkey_asm": "OP_0 OP_PUSHBYTES_20 04b9d4bc1332ac4e61808483ef67dcd76b23264d",
        "scriptpubkey_type": "v0_p2wpkh",
        "scriptpubkey_address": "bc1qqjuaf0qnx2kyucvqsjp77e7u6a4jxfjd3sl79u",
        "value": 25000
      },
      "scriptsig": "",
      "scriptsig_asm": "",
      "witness": [
        "30440220401fb2b223a5aa06dc54f2b219d9e519a0170ca3b80b3364e41a6d32899d2039022030ce22139bd616dba76758cac230152a07f748931ca0b848cbfd85116522476a01",
        "0226a347c55aaff5acb0a71975237e1f636807b0592607640f6723fb23f630230a"
      ],
      "is_coinbase": false,
      "sequence": 4294967295
    },
    {
      "txid": "5672fd2ccd459047136767f1e1bb33b267eff3dd0e55832407a5b0c24459a649",
      "vout": 1,
      "prevout": {
        "scriptpubkey": "001404b9d4bc1332ac4e61808483ef67dcd76b23264d",
        "scriptpubkey_asm": "OP_0 OP_PUSHBYTES_20 04b9d4bc1332ac4e61808483ef67dcd76b23264d",
        "scriptpubkey_type": "v0_p2wpkh",
        "scriptpubkey_address": "bc1qqjuaf0qnx2kyucvqsjp77e7u6a4jxfjd3sl79u",
        "value": 25000
      },
      "scriptsig": "",
      "scriptsig_asm": "",
      "witness": [
        "3045022100d55d4ce3dbdfa532ddb3e695e0c7511b5528fb92deb00a90d5bc80e7c0c486f20220784b2adcb507cbed9d7f561038b6dc1dd98566ae65b2dc6ccf20ed7f55f7467a01",
        "0226a347c55aaff5acb0a71975237e1f636807b0592607640f6723fb23f630230a"
      ],
      "is_coinbase": false,
      "sequence": 4294967295
    },
    {
      "txid": "70f7c66769e818b0a679d40f6de6ddae4db58e2fc380e1ff1da3adb339de25cd",
      "vout": 1,
      "prevout": {
        "scriptpubkey": "001404b9d4bc1332ac4e61808483ef67dcd76b23264d",
        "scriptpubkey_asm": "OP_0 OP_PUSHBYTES_20 04b9d4bc1332ac4e61808483ef67dcd76b23264d",
        "scriptpubkey_type": "v0_p2wpkh",
        "scriptpubkey_address": "bc1qqjuaf0qnx2kyucvqsjp77e7u6a4jxfjd3sl79u",
        "value": 25000
      },
      "scriptsig": "",
      "scriptsig_asm": "",
      "witness": [
        "3045022100edd1fb23937ced5ed2be7b6b974dc5eb59def78fa0afff30ff2b640d663bb77702203df0ab0f80c9d01e47eb581c49213038b75ba79e55b300f32a71086edf4d5f9f01",
        "0226a347c55aaff5acb0a71975237e1f636807b0592607640f6723fb23f630230a"
      ],
      "is_coinbase": false,
      "sequence": 4294967295
    },
    {
      "txid": "84419beecd026615bde1d86656fa57951c798816e18d700aa264772701dbc3de",
      "vout": 3,
      "prevout": {
        "scriptpubkey": "001404b9d4bc1332ac4e61808483ef67dcd76b23264d",
        "scriptpubkey_asm": "OP_0 OP_PUSHBYTES_20 04b9d4bc1332ac4e61808483ef67dcd76b23264d",
        "scriptpubkey_type": "v0_p2wpkh",
        "scriptpubkey_address": "bc1qqjuaf0qnx2kyucvqsjp77e7u6a4jxfjd3sl79u",
        "value": 25000
      },
      "scriptsig": "",
      "scriptsig_asm": "",
      "witness": [
        "3045022100e36f050089a1f8f333c74280a723f13c8f05dd47ff55a9604a21c75c4d4ac86902202e3756e4b6a8c87e192c607d4e141d932fa989dac6abedfaa2b27b4a204e817a01",
        "0226a347c55aaff5acb0a71975237e1f636807b0592607640f6723fb23f630230a"
      ],
      "is_coinbase": false,
      "sequence": 4294967295
    }
  ],
  "vout": [
    {
      "scriptpubkey": "0014419854753506f2b3e771860f36eb919d89cc890f",
      "scriptpubkey_asm": "OP_0 OP_PUSHBYTES_20 419854753506f2b3e771860f36eb919d89cc890f",
      "scriptpubkey_type": "v0_p2wpkh",
      "scriptpubkey_address": "bc1qgxv9gaf4qmet8em3sc8nd6u3nkyuezg0cg9p36",
      "value": 2222
    },
    {
      "scriptpubkey": "0014c3da1e98f377468b1dc302483d79507b75b62ce2",
      "scriptpubkey_asm": "OP_0 OP_PUSHBYTES_20 c3da1e98f377468b1dc302483d79507b75b62ce2",
      "scriptpubkey_type": "v0_p2wpkh",
      "scriptpubkey_address": "bc1qc0dpax8nwargk8wrqfyr672s0d6mvt8z0zj95y",
      "value": 117216
    }
  ],
  "size": 817,
  "weight": 1648,
  "fee": 5562,
  "status": {
    "confirmed": true,
    "block_height": 834460,
    "block_hash": "00000000000000000000484a79b643b2524bbce82e5d8a442013fa5b8905ed98",
    "block_time": 1710307468
  },
  "hex": "020000000001057b0e0f2a2b50a1f29fb8a19e060f9c98347f4fe6b2a74ee93a93657f576bf3670100000000ffffffff092b34ec9d51f5b177be821014c5ca65570d653a88183a7c715a857339d3b0320000000000ffffffff49a65944c2b0a5072483550eddf3ef67b233bbe1f1676713479045cd2cfd72560100000000ffffffffcd25de39b3ada31dffe180c32f8eb54daedde66d0fd479a6b018e86967c6f7700100000000ffffffffdec3db01277764a20a708de11688791c9557fa5666d8e1bd156602cdee9b41840300000000ffffffff02ae08000000000000160014419854753506f2b3e771860f36eb919d89cc890fe0c9010000000000160014c3da1e98f377468b1dc302483d79507b75b62ce20247304402206d6f8fb9326127f8d7d5f8c2e1fae1dd947ccb39bb804ef709fe52ecffdc64350220089b297d67ba580da08d9becd842058f219a89b892ab6fd6bc950409c32ce8e301210226a347c55aaff5acb0a71975237e1f636807b0592607640f6723fb23f630230a024730440220401fb2b223a5aa06dc54f2b219d9e519a0170ca3b80b3364e41a6d32899d2039022030ce22139bd616dba76758cac230152a07f748931ca0b848cbfd85116522476a01210226a347c55aaff5acb0a71975237e1f636807b0592607640f6723fb23f630230a02483045022100d55d4ce3dbdfa532ddb3e695e0c7511b5528fb92deb00a90d5bc80e7c0c486f20220784b2adcb507cbed9d7f561038b6dc1dd98566ae65b2dc6ccf20ed7f55f7467a01210226a347c55aaff5acb0a71975237e1f636807b0592607640f6723fb23f630230a02483045022100edd1fb23937ced5ed2be7b6b974dc5eb59def78fa0afff30ff2b640d663bb77702203df0ab0f80c9d01e47eb581c49213038b75ba79e55b300f32a71086edf4d5f9f01210226a347c55aaff5acb0a71975237e1f636807b0592607640f6723fb23f630230a02483045022100e36f050089a1f8f333c74280a723f13c8f05dd47ff55a9604a21c75c4d4ac86902202e3756e4b6a8c87e192c607d4e141d932fa989dac6abedfaa2b27b4a204e817a01210226a347c55aaff5acb0a71975237e1f636807b0592607640f6723fb23f630230a00000000"
}