{
  "txid": "edc0031eb1565e74bb09937a24e85186af30f05e9d43705045a9c05bbb36944a",
  "version": 1,
  "locktime": 0,
  "vin": [
    {
      "txid": "0000bfd81efaae6b07e01f166af03dbd6dc61e5ff3c8d84a2f33eecbf3bdc7ef",
      "vout": 0,
      "prevout": {
        "scriptpubkey": "5120f9cc348f70a1ce6e6858bc6e22bf8c87142b9b029e17e9dfc23914fe03324eb8",
        "scriptpubkey_asm": "OP_PUSHNUM_1 OP_PUSHBYTES_32 f9cc348f70a1ce6e6858bc6e22bf8c87142b9b029e17e9dfc23914fe03324eb8",
        "scriptpubkey_type": "v1_p2tr",
        "scriptpubkey_address": "bc1pl8xrfrms588xu6zch3hz90uvsu2zhxcznct7nh7z8y20uqejf6uqeauqhn",
        "value": 2615
      },
      "scriptsig": "",
      "scriptsig_asm": "",
      "witness": [
        "b9943819de1f898b77255c40876bf6e85b5ffbb95ff477926d6d348392202a5859ecdd7159a39c0286ff70b4e96b6387c71b327270969b7cfa4a6a764e9593b9",
        "20555a90a8aba1149417ec9f84a6e1864bbdfa20b9b22a105bbdf62d9cf85738cfac00630461746f6d03646d743ba16461726773a46474696d651a65ea67b4656e6f6e636519148a68626974776f726b6364303030306b6d696e745f7469636b65726670686f746f6e68",
        "c1555a90a8aba1149417ec9f84a6e1864bbdfa20b9b22a105bbdf62d9cf85738cf"
      ],
      "is_coinbase": false,
      "sequence": 1
    }
  ],
  "vout": [
    {
      "scriptpubkey": "0014ef704957e06434b8c7be3e623289710e0436a277",
      "scriptpubkey_asm": "OP_0 OP_PUSHBYTES_20 ef704957e06434b8c7be3e623289710e0436a277",
      "scriptpubkey_type": "v0_p2wpkh",
      "scriptpubkey_address": "bc1qaacyj4lqvs6t33a78e3r9zt3pczrdgnhxdmg56",
      "value": 1000
    }
  ],
  "size": 291,
  "weight": 537,
  "fee": 1615,
  "status": {
    "confirmed": true,
    "block_height": 834464,
    "block_hash": "0000000000000000000177a0869a911a2b65c9bdcd5a8bcb02b68f305bee848e",
    "block_time": 1710308296
  },
  "hex": "01000000000101efc7bdf3cbee332f4ad8c8f35f1ec66dbd3df06a161fe0076baefa1ed8bf000000000000000100000001e803000000000000160014ef704957e06434b8c7be3e623289710e0436a2770340b9943819de1f898b77255c40876bf6e85b5ffbb95ff477926d6d348392202a5859ecdd7159a39c0286ff70b4e96b6387c71b327270969b7cfa4a6a764e9593b96a20555a90a8aba1149417ec9f84a6e1864bbdfa20b9b22a105bbdf62d9cf85738cfac00630461746f6d03646d743ba16461726773a46474696d651a65ea67b4656e6f6e636519148a68626974776f726b6364303030306b6d696e745f7469636b65726670686f746f6e6821c1555a90a8aba1149417ec9f84a6e1864bbdfa20b9b22a105bbdf62d9cf85738cf00000000"
}