{
  "txid": "edcfb88d8cf82c494e673af0fa740c067639abb90e34a6c206d25c5d4d9ec064",
  "version": 2,
  "locktime": 0,
  "vin": [
    {
      "txid": "c408dc3e715747d8566d94473a2111f0c3c18e14ad13ef405996584d7851a66d",
      "vout": 1,
      "prevout": {
        "scriptpubkey": "00145a73cc23f450a1516db223398f46f72d46908c21",
        "scriptpubkey_asm": "OP_0 OP_PUSHBYTES_20 5a73cc23f450a1516db223398f46f72d46908c21",
        "scriptpubkey_type": "v0_p2wpkh",
        "scriptpubkey_address": "bc1qtfeucgl52zs4zmdjyvuc73hh94rfprppp45wh0",
        "value": 1849514
      },
      "scriptsig": "",
      "scriptsig_asm": "",
      "witness": [
        "3044022005cb9034b8e2230655464c144c4ec1e9f8222fe8dc9a4da435975eb99451206a022072112aa0bc71b8fd592d4a8c8df59af46c1e077c7720c97e7756b43cc136efb501",
        "037207cd7a533ce42f9c11bfbe97c7c2c9f629545a8a4e3f878fc31ea292fa204a"
      ],
      "is_coinbase": false,
      "sequence": 4294967295
    }
  ],
  "vout": [
    {
      "scriptpubkey": "0014b28ebd04107106f70f0434bf8b4d0cb335dbb964",
      "scriptpubkey_asm": "OP_0 OP_PUSHBYTES_20 b28ebd04107106f70f0434bf8b4d0cb335dbb964",
      "scriptpubkey_type": "v0_p2wpkh",
      "scriptpubkey_address": "bc1qk28t6pqswyr0wrcyxjlckngvkv6ahwtywx8zep",
      "value": 100778
    },
    {
      "scriptpubkey": "0014f09779d2e346180f80f10560e7d6de9d98c91359",
      "scriptpubkey_asm": "OP_0 OP_PUSHBYTES_20 f09779d2e346180f80f10560e7d6de9d98c91359",
      "scriptpubkey_type": "v0_p2wpkh",
      "scriptpubkey_address": "bc1q7zthn5hrgcvqlq83q4sw04k7nkvvjy6en9cg6v",
      "value": 1746639
    }
  ],
  "size": 222,
  "weight": 561,
  "fee": 2097,
  "status": {
    "confirmed": true,
    "block_height": 834638,
    "block_hash": "000000000000000000025f742c626208ac87e0b7d15054abb4a19ca2d735a54e",
    "block_time": 1710405325
  },
  "hex": "020000000001016da651784d58965940ef13ad148ec1c3f011213a47946d56d84757713edc08c40100000000ffffffff02aa89010000000000160014b28ebd04107106f70f0434bf8b4d0cb335dbb964cfa61a0000000000160014f09779d2e346180f80f10560e7d6de9d98c9135902473044022005cb9034b8e2230655464c144c4ec1e9f8222fe8dc9a4da435975eb99451206a022072112aa0bc71b8fd592d4a8c8df59af46c1e077c7720c97e7756b43cc136efb50121037207cd7a533ce42f9c11bfbe97c7c2c9f629545a8a4e3f878fc31ea292fa204a00000000"
}