{
  "txid": "ede7be5d4753a25139d6b6ff033cbdf0e43b729733cb09a6a3b44472ad27bdab",
  "version": 1,
  "locktime": 0,
  "vin": [
    {
      "txid": "aa6109f3cea8a458438de069af49cf8bde43db9f746f78fd5d4cac8e94b46e3c",
      "vout": 1,
      "prevout": {
        "scriptpubkey": "0014421b8f0182ae2ab26e9297718f92f82805a48ba2",
        "scriptpubkey_asm": "OP_0 OP_PUSHBYTES_20 421b8f0182ae2ab26e9297718f92f82805a48ba2",
        "scriptpubkey_type": "v0_p2wpkh",
        "scriptpubkey_address": "bc1qggdc7qvz4c4tym5jjacclyhc9qz6fzazsqje0d",
        "value": 2993846
      },
      "scriptsig": "",
      "scriptsig_asm": "",
      "witness": [
        "3045022100da9befe31774321233b2315e9c5077679131274b9900966e45e8ac0c1c0391970220355144dcc40269048bb704c46d9864e47f631792f0b9e28ff380075a52818a5c01",
        "02ddde52e4b72358ff888c056b2c0d7c3e47361e82e79d9202b1b011141d417192"
      ],
      "is_coinbase": false,
      "sequence": 4294967295
    }
  ],
  "vout": [
    {
      "scriptpubkey": "00148e56a5479728f7786a6a8fc7cc0f3535cea91b52",
      "scriptpubkey_asm": "OP_0 OP_PUSHBYTES_20 8e56a5479728f7786a6a8fc7cc0f3535cea91b52",
      "scriptpubkey_type": "v0_p2wpkh",
      "scriptpubkey_address": "bc1q3et223uh9rmhs6n23lrucre4xh82jx6jnukpcl",
      "value": 83000
    },
    {
      "scriptpubkey": "0014421b8f0182ae2ab26e9297718f92f82805a48ba2",
      "scriptpubkey_asm": "OP_0 OP_PUSHBYTES_20 421b8f0182ae2ab26e9297718f92f82805a48ba2",
      "scriptpubkey_type": "v0_p2wpkh",
      "scriptpubkey_address": "bc1qggdc7qvz4c4tym5jjacclyhc9qz6fzazsqje0d",
      "value": 2896746
    }
  ],
  "size": 223,
  "weight": 562,
  "fee": 14100,
  "status": {
    "confirmed": true,
    "block_height": 834638,
    "block_hash": "000000000000000000025f742c626208ac87e0b7d15054abb4a19ca2d735a54e",
    "block_time": 1710405325
  },
  "hex": "010000000001013c6eb4948eac4c5dfd786f749fdb43de8bcf49af69e08d4358a4a8cef30961aa0100000000ffffffff0238440100000000001600148e56a5479728f7786a6a8fc7cc0f3535cea91b526a332c0000000000160014421b8f0182ae2ab26e9297718f92f82805a48ba202483045022100da9befe31774321233b2315e9c5077679131274b9900966e45e8ac0c1c0391970220355144dcc40269048bb704c46d9864e47f631792f0b9e28ff380075a52818a5c012102ddde52e4b72358ff888c056b2c0d7c3e47361e82e79d9202b1b011141d41719200000000"
}