{
  "txid": "edf1a5813fd40fbb31f60dd590090017e6debef9f494a388948d6335bac41585",
  "version": 2,
  "locktime": 0,
  "vin": [
    {
      "txid": "78e4ad6f958e8b33711eca19dae8c476396345442262e17d2df86b0394dc8e35",
      "vout": 3,
      "prevout": {
        "scriptpubkey": "0014e27725ff317aa4f2011157028b93d04ae48fe2fe",
        "scriptpubkey_asm": "OP_0 OP_PUSHBYTES_20 e27725ff317aa4f2011157028b93d04ae48fe2fe",
        "scriptpubkey_type": "v0_p2wpkh",
        "scriptpubkey_address": "bc1qufmjtle302j0yqg32upghy7sftjglch7umur40",
        "value": 181631
      },
      "scriptsig": "",
      "scriptsig_asm": "",
      "witness": [
        "30440220260442939daa5426853d8ad616165c041d2327edd78f59cf6beb5b10d85d51ae0220722d7131d62cf4869e60c7b7e81c1134bf8d49e4f3cf55d5a5ecbf9afe38af9201",
        "02fb4fee8b08d2fb0fdc68e7452dbf082aa64adb92275eb73782bfdbec4f128d68"
      ],
      "is_coinbase": false,
      "sequence": 4294967295
    }
  ],
  "vout": [
    {
      "scriptpubkey": "00145efd30dc1221e98c5d1d30aa74f88debb6a82e8e",
      "scriptpubkey_asm": "OP_0 OP_PUSHBYTES_20 5efd30dc1221e98c5d1d30aa74f88debb6a82e8e",
      "scriptpubkey_type": "v0_p2wpkh",
      "scriptpubkey_address": "bc1qtm7nphqjy85cchgaxz48f7ydawm2st5wzd95ec",
      "value": 333
    },
    {
      "scriptpubkey": "51210311d0a7ffc61adf586e152b3e47b9933497a3c192da501cd9e063229baddd62912102b8b58e08f22cbd1304f6550016002f1b2bc2b14006b35e305aac0df0299924522102020202020202020202020202020202020202020202020202020202020202020253ae",
      "scriptpubkey_asm": "OP_PUSHNUM_1 OP_PUSHBYTES_33 0311d0a7ffc61adf586e152b3e47b9933497a3c192da501cd9e063229baddd6291 OP_PUSHBYTES_33 02b8b58e08f22cbd1304f6550016002f1b2bc2b14006b35e305aac0df029992452 OP_PUSHBYTES_33 020202020202020202020202020202020202020202020202020202020202020202 OP_PUSHNUM_3 OP_CHECKMULTISIG",
      "scriptpubkey_type": "unknown",
      "value": 801
    },
    {
      "scriptpubkey": "512102d264d1d9ee258f65038f9b471c440d98a9c8c7c269632a2bd5916ad45e409906210289c77dbbd1aef586ba14d15f9b8a7ad32b4ae441ad8709269f337e1320a5d6942102020202020202020202020202020202020202020202020202020202020202020253ae",
      "scriptpubkey_asm": "OP_PUSHNUM_1 OP_PUSHBYTES_33 02d264d1d9ee258f65038f9b471c440d98a9c8c7c269632a2bd5916ad45e409906 OP_PUSHBYTES_33 0289c77dbbd1aef586ba14d15f9b8a7ad32b4ae441ad8709269f337e1320a5d694 OP_PUSHBYTES_33 020202020202020202020202020202020202020202020202020202020202020202 OP_PUSHNUM_3 OP_CHECKMULTISIG",
      "scriptpubkey_type": "unknown",
      "value": 801
    },
    {
      "scriptpubkey": "0014e27725ff317aa4f2011157028b93d04ae48fe2fe",
      "scriptpubkey_asm": "OP_0 OP_PUSHBYTES_20 e27725ff317aa4f2011157028b93d04ae48fe2fe",
      "scriptpubkey_type": "v0_p2wpkh",
      "scriptpubkey_address": "bc1qufmjtle302j0yqg32upghy7sftjglch7umur40",
      "value": 163482
    }
  ],
  "size": 450,
  "weight": 1473,
  "fee": 16214,
  "status": {
    "confirmed": true,
    "block_height": 834638,
    "block_hash": "000000000000000000025f742c626208ac87e0b7d15054abb4a19ca2d735a54e",
    "block_time": 1710405325
  },
  "hex": "02000000000101358edc94036bf82d7de162224445633976c4e8da19ca1e71338b8e956fade4780300000000ffffffff044d010000000000001600145efd30dc1221e98c5d1d30aa74f88debb6a82e8e21030000000000006951210311d0a7ffc61adf586e152b3e47b9933497a3c192da501cd9e063229baddd62912102b8b58e08f22cbd1304f6550016002f1b2bc2b14006b35e305aac0df0299924522102020202020202020202020202020202020202020202020202020202020202020253ae210300000000000069512102d264d1d9ee258f65038f9b471c440d98a9c8c7c269632a2bd5916ad45e409906210289c77dbbd1aef586ba14d15f9b8a7ad32b4ae441ad8709269f337e1320a5d6942102020202020202020202020202020202020202020202020202020202020202020253ae9a7e020000000000160014e27725ff317aa4f2011157028b93d04ae48fe2fe024730440220260442939daa5426853d8ad616165c041d2327edd78f59cf6beb5b10d85d51ae0220722d7131d62cf4869e60c7b7e81c1134bf8d49e4f3cf55d5a5ecbf9afe38af92012102fb4fee8b08d2fb0fdc68e7452dbf082aa64adb92275eb73782bfdbec4f128d6800000000"
}