{
  "txid": "edf6637fa0a2d95568c8e67527e4cf15be07080ecda9bf51cfb9beb759c74f13",
  "version": 2,
  "locktime": 0,
  "vin": [
    {
      "txid": "5606b8ac2cac919e269c623f8dcba2125320d6f460d8af86de397ecd05e3840f",
      "vout": 3,
      "prevout": {
        "scriptpubkey": "51206d1d356c6b056ce50a64b3362982e036279990cf55f397f63d20bcd3f51ff266",
        "scriptpubkey_asm": "OP_PUSHNUM_1 OP_PUSHBYTES_32 6d1d356c6b056ce50a64b3362982e036279990cf55f397f63d20bcd3f51ff266",
        "scriptpubkey_type": "v1_p2tr",
        "scriptpubkey_address": "bc1pd5wn2mrtq4kw2znykvmznqhqxcnenyx02hee0a3ayz7d8agl7fnq3udxq2",
        "value": 3426
      },
      "scriptsig": "",
      "scriptsig_asm": "",
      "witness": [
        "83fa4edfb9349c0659ee4c6ea2d1c8b9dfbde2a74818291677301bbf58c663e505368c3d17aa23ec5f5243e82e89eb61ff04868daa98b8f915d62854d7a535a6",
        "20fdfead66ff3a45c9758c444c4be6e0f64bc12a5c1538c644ea13c2eec0fcca7aac0063036f726401011e6170706c69636174696f6e2f6a736f6e3b636861727365743d7574662d38004ccf7b2270223a22706f772d3230222c226f70223a226d696e74222c227469636b223a2250554e4b222c22616d74223a2231222c22736f6c7574696f6e223a2250554e4b3a6263317079326c633774336c746371643470656833653670703839386a3635763778726d736d7a6e7a366b397a63356a66303578366877717a7167336e793a303030303030303030303030303030303030303164363332346233346661396639643231623835373366623937656538666534396465643439313934373962643a37303539303633343232227d68",
        "c10012eef0dd5686971201ee0affa8d24f6230a970f914fa050cfc5fbfb49107dd"
      ],
      "is_coinbase": false,
      "sequence": 4294967295
    }
  ],
  "vout": [
    {
      "scriptpubkey": "512022bf8f2e3f5e00da87378e74109ca796a8cf187b86c5316ac5162924be86d5dc",
      "scriptpubkey_asm": "OP_PUSHNUM_1 OP_PUSHBYTES_32 22bf8f2e3f5e00da87378e74109ca796a8cf187b86c5316ac5162924be86d5dc",
      "scriptpubkey_type": "v1_p2tr",
      "scriptpubkey_address": "bc1py2lc7t3ltcqd4peh3e6pp898j65v7xrmsmznz6k9zc5jf05x6hwqzqg3ny",
      "value": 546
    }
  ],
  "size": 483,
  "weight": 765,
  "fee": 2880,
  "status": {
    "confirmed": true,
    "block_height": 834638,
    "block_hash": "000000000000000000025f742c626208ac87e0b7d15054abb4a19ca2d735a54e",
    "block_time": 1710405325
  },
  "hex": "020000000001010f84e305cd7e39de86afd860f4d6205312a2cb8d3f629c269e91ac2cacb806560300000000ffffffff01220200000000000022512022bf8f2e3f5e00da87378e74109ca796a8cf187b86c5316ac5162924be86d5dc034083fa4edfb9349c0659ee4c6ea2d1c8b9dfbde2a74818291677301bbf58c663e505368c3d17aa23ec5f5243e82e89eb61ff04868daa98b8f915d62854d7a535a6fd1c0120fdfead66ff3a45c9758c444c4be6e0f64bc12a5c1538c644ea13c2eec0fcca7aac0063036f726401011e6170706c69636174696f6e2f6a736f6e3b636861727365743d7574662d38004ccf7b2270223a22706f772d3230222c226f70223a226d696e74222c227469636b223a2250554e4b222c22616d74223a2231222c22736f6c7574696f6e223a2250554e4b3a6263317079326c633774336c746371643470656833653670703839386a3635763778726d736d7a6e7a366b397a63356a66303578366877717a7167336e793a303030303030303030303030303030303030303164363332346233346661396639643231623835373366623937656538666534396465643439313934373962643a37303539303633343232227d6821c10012eef0dd5686971201ee0affa8d24f6230a970f914fa050cfc5fbfb49107dd00000000"
}