{
  "txid": "ee1090a4c597e3f5feca0e4516753b0266a5552f34336579540c6f9c8d863caa",
  "version": 2,
  "locktime": 0,
  "vin": [
    {
      "txid": "bab9f2b8739bba5cc73e4f69634bfb0b7cf3132e35571324f21f9e5235fa937f",
      "vout": 1,
      "prevout": {
        "scriptpubkey": "a91452a0f1d00ca90a5c4a6da0050cf8e6bbdeb2c15a87",
        "scriptpubkey_asm": "OP_HASH160 OP_PUSHBYTES_20 52a0f1d00ca90a5c4a6da0050cf8e6bbdeb2c15a OP_EQUAL",
        "scriptpubkey_type": "p2sh",
        "scriptpubkey_address": "39Dv8u7jMcA6iBDMdoMuwNhQTdBSF8zcHh",
        "value": 858512
      },
      "scriptsig": "160014ab008300d32c27e5ad2934a35bd018c330bf6723",
      "scriptsig_asm": "OP_PUSHBYTES_22 0014ab008300d32c27e5ad2934a35bd018c330bf6723",
      "witness": [
        "304402206be8c106b8e7466bcd649c32e70b9cc8d3787624fe3e6f0d23907f58ee3a52f702206e86002e5eae3d6441fd339bb77095b817a0f882ef385420aa3dbdf951a561e701",
        "02882be99fae30a55cce375e70a0198d03bdc38ad1d21a058a573a1289f4493eff"
      ],
      "is_coinbase": false,
      "sequence": 4294967293,
      "inner_redeemscript_asm": "OP_0 OP_PUSHBYTES_20 ab008300d32c27e5ad2934a35bd018c330bf6723"
    }
  ],
  "vout": [
    {
      "scriptpubkey": "a914d2c83303f620fb915fb2af7164a0acd3cc5cd13087",
      "scriptpubkey_asm": "OP_HASH160 OP_PUSHBYTES_20 d2c83303f620fb915fb2af7164a0acd3cc5cd130 OP_EQUAL",
      "scriptpubkey_type": "p2sh",
      "scriptpubkey_address": "3LuXevC91wGhdzRWrJapYGUtMUTpRXe6sH",
      "value": 580876
    },
    {
      "scriptpubkey": "a914c6f72d4aa2b5c365abbeef9e15e9b7d46f2f8e3387",
      "scriptpubkey_asm": "OP_HASH160 OP_PUSHBYTES_20 c6f72d4aa2b5c365abbeef9e15e9b7d46f2f8e33 OP_EQUAL",
      "scriptpubkey_type": "p2sh",
      "scriptpubkey_address": "3Kq3pgNf8pVVSCYkWtwW4aijx9e56a7qA7",
      "value": 274316
    }
  ],
  "size": 247,
  "weight": 661,
  "fee": 3320,
  "status": {
    "confirmed": true,
    "block_height": 834638,
    "block_hash": "000000000000000000025f742c626208ac87e0b7d15054abb4a19ca2d735a54e",
    "block_time": 1710405325
  },
  "hex": "020000000001017f93fa35529e1ff2241357352e13f37c0bfb4b63694f3ec75cba9b73b8f2b9ba0100000017160014ab008300d32c27e5ad2934a35bd018c330bf6723fdffffff020cdd08000000000017a914d2c83303f620fb915fb2af7164a0acd3cc5cd130878c2f04000000000017a914c6f72d4aa2b5c365abbeef9e15e9b7d46f2f8e33870247304402206be8c106b8e7466bcd649c32e70b9cc8d3787624fe3e6f0d23907f58ee3a52f702206e86002e5eae3d6441fd339bb77095b817a0f882ef385420aa3dbdf951a561e7012102882be99fae30a55cce375e70a0198d03bdc38ad1d21a058a573a1289f4493eff00000000"
}