{
  "txid": "ee1bf839d511d2b0de3b07a837d1175316a7f94ef0528d3f8dc94cca211620db",
  "version": 1,
  "locktime": 0,
  "vin": [
    {
      "txid": "0af85d9cd09016655d48754670b8e0b5d6c84b91f5fbe135d2da1dcb7ef7c4ea",
      "vout": 0,
      "prevout": {
        "scriptpubkey": "76a91410400b89d4e5cc3f9f450d7744bc0838ef12bb1888ac",
        "scriptpubkey_asm": "OP_DUP OP_HASH160 OP_PUSHBYTES_20 10400b89d4e5cc3f9f450d7744bc0838ef12bb18 OP_EQUALVERIFY OP_CHECKSIG",
        "scriptpubkey_type": "p2pkh",
        "scriptpubkey_address": "12UvXzwHHVhvCQQAfhtTGGdMFLHS5g53Sa",
        "value": 8810747
      },
      "scriptsig": "483045022100e2af3c0457b7d2292f96e9ce85cd224a5c1d21667a731bc13edfb0ba77cd1a4f02206b3c8f23bcca3fa23c0dd427b22c104fb65ad8b73a2f6a3128ad0eaf84316ed3012103a386c2e3356e3f55922adc3a2b8721555b2cbfc7d2a09881064cc0637517d831",
      "scriptsig_asm": "OP_PUSHBYTES_72 3045022100e2af3c0457b7d2292f96e9ce85cd224a5c1d21667a731bc13edfb0ba77cd1a4f02206b3c8f23bcca3fa23c0dd427b22c104fb65ad8b73a2f6a3128ad0eaf84316ed301 OP_PUSHBYTES_33 03a386c2e3356e3f55922adc3a2b8721555b2cbfc7d2a09881064cc0637517d831",
      "is_coinbase": false,
      "sequence": 4294967295
    }
  ],
  "vout": [
    {
      "scriptpubkey": "76a914cc9d1e35f115861ac61ea2520ee3eed6af46b71288ac",
      "scriptpubkey_asm": "OP_DUP OP_HASH160 OP_PUSHBYTES_20 cc9d1e35f115861ac61ea2520ee3eed6af46b712 OP_EQUALVERIFY OP_CHECKSIG",
      "scriptpubkey_type": "p2pkh",
      "scriptpubkey_address": "1Keu4tHL81QcoiDriX1DC4otAGBwriAqsi",
      "value": 5229331
    },
    {
      "scriptpubkey": "a914bafd42fde108c1fb109b6fb0d33f1d48ef5b8b4987",
      "scriptpubkey_asm": "OP_HASH160 OP_PUSHBYTES_20 bafd42fde108c1fb109b6fb0d33f1d48ef5b8b49 OP_EQUAL",
      "scriptpubkey_type": "p2sh",
      "scriptpubkey_address": "3Jjj19vaythCuWDFYaynQrwxXA7sSj3ePh",
      "value": 3575974
    }
  ],
  "size": 224,
  "weight": 896,
  "fee": 5442,
  "status": {
    "confirmed": true,
    "block_height": 834638,
    "block_hash": "000000000000000000025f742c626208ac87e0b7d15054abb4a19ca2d735a54e",
    "block_time": 1710405325
  },
  "hex": "0100000001eac4f77ecb1ddad235e1fbf5914bc8d6b5e0b8704675485d651690d09c5df80a000000006b483045022100e2af3c0457b7d2292f96e9ce85cd224a5c1d21667a731bc13edfb0ba77cd1a4f02206b3c8f23bcca3fa23c0dd427b22c104fb65ad8b73a2f6a3128ad0eaf84316ed3012103a386c2e3356e3f55922adc3a2b8721555b2cbfc7d2a09881064cc0637517d831ffffffff0213cb4f00000000001976a914cc9d1e35f115861ac61ea2520ee3eed6af46b71288aca69036000000000017a914bafd42fde108c1fb109b6fb0d33f1d48ef5b8b498700000000"
}