{
  "txid": "ee276d2dc2a8ce1e9dfa50104c66efea41a893e3980409741fa3c149dd41ea40",
  "version": 2,
  "locktime": 0,
  "vin": [
    {
      "txid": "0c2216991abdea878b7e33ca91b385e35ff513809a6ba3f34c1cc76c1fc67831",
      "vout": 1,
      "prevout": {
        "scriptpubkey": "512089a37e066c3bda9c253fac62850bcc044c1fe1116a76406331dff73315c8e1c6",
        "scriptpubkey_asm": "OP_PUSHNUM_1 OP_PUSHBYTES_32 89a37e066c3bda9c253fac62850bcc044c1fe1116a76406331dff73315c8e1c6",
        "scriptpubkey_type": "v1_p2tr",
        "scriptpubkey_address": "bc1p3x3hupnv80dfcffl433g2z7vq3xplcg3dfmyqce3mlmnx9wgu8rqrev02e",
        "value": 1057507
      },
      "scriptsig": "",
      "scriptsig_asm": "",
      "witness": [
        "d463089d85b1fdaa93a7edf985944cb7a876a7518e82067a6a9a157ac976b24736a582f2d1ba2e712c75eaadcc4ae1396d1f246ba32428222306b1750ecd6c5d"
      ],
      "is_coinbase": false,
      "sequence": 4294967295
    }
  ],
  "vout": [
    {
      "scriptpubkey": "512048381d1bebbb70e8bb2dcf8650003c95c6e8d8edb777e2f54e90f07951063621",
      "scriptpubkey_asm": "OP_PUSHNUM_1 OP_PUSHBYTES_32 48381d1bebbb70e8bb2dcf8650003c95c6e8d8edb777e2f54e90f07951063621",
      "scriptpubkey_type": "v1_p2tr",
      "scriptpubkey_address": "bc1pfqup6xlthdcw3wede7r9qqpujhrw3k8dkam79a2wjrc8j5gxxcss5xzug9",
      "value": 169000
    },
    {
      "scriptpubkey": "512089a37e066c3bda9c253fac62850bcc044c1fe1116a76406331dff73315c8e1c6",
      "scriptpubkey_asm": "OP_PUSHNUM_1 OP_PUSHBYTES_32 89a37e066c3bda9c253fac62850bcc044c1fe1116a76406331dff73315c8e1c6",
      "scriptpubkey_type": "v1_p2tr",
      "scriptpubkey_address": "bc1p3x3hupnv80dfcffl433g2z7vq3xplcg3dfmyqce3mlmnx9wgu8rqrev02e",
      "value": 886505
    }
  ],
  "size": 205,
  "weight": 616,
  "fee": 2002,
  "status": {
    "confirmed": true,
    "block_height": 834460,
    "block_hash": "00000000000000000000484a79b643b2524bbce82e5d8a442013fa5b8905ed98",
    "block_time": 1710307468
  },
  "hex": "020000000001013178c61f6cc71c4cf3a36b9a8013f55fe385b391ca337e8b87eabd1a9916220c0100000000ffffffff02289402000000000022512048381d1bebbb70e8bb2dcf8650003c95c6e8d8edb777e2f54e90f07951063621e9860d000000000022512089a37e066c3bda9c253fac62850bcc044c1fe1116a76406331dff73315c8e1c60140d463089d85b1fdaa93a7edf985944cb7a876a7518e82067a6a9a157ac976b24736a582f2d1ba2e712c75eaadcc4ae1396d1f246ba32428222306b1750ecd6c5d00000000"
}