{
  "txid": "ee4751da17607f9802f355f7c5b2df169660c9eccc8157bdee610f78aed6df35",
  "version": 2,
  "locktime": 0,
  "vin": [
    {
      "txid": "e835c4d922fbed17c48b3bb466ba1ffc020ede84c1303bdb67ca1f883dd615bb",
      "vout": 6,
      "prevout": {
        "scriptpubkey": "51206069e4a70e107d85748998a9857c1b98460202bffedddd9f230c1e75d1d1d116",
        "scriptpubkey_asm": "OP_PUSHNUM_1 OP_PUSHBYTES_32 6069e4a70e107d85748998a9857c1b98460202bffedddd9f230c1e75d1d1d116",
        "scriptpubkey_type": "v1_p2tr",
        "scriptpubkey_address": "bc1pvp57ffcwzp7c2ayfnz5c2lqmnprqyq4llmwam8erps08t5w36ytqhyuhv3",
        "value": 3248
      },
      "scriptsig": "",
      "scriptsig_asm": "",
      "witness": [
        "f52f554ee6d47b4422d14d8af8da59f756ad3c23947037364713d87bd4e0277d3d0b97b9893e6be85cc7254e9b6a03023e359efa665fa203414953b2621e6bfe",
        "20af654686cc26ea900b7a750008a9294676fe6c52d745fd72cc14b05d9037fd9fac0063036f726401011e6170706c69636174696f6e2f6a736f6e3b636861727365743d7574662d38004cd37b2270223a22706f772d3230222c226f70223a226d696e74222c227469636b223a2250455045222c22616d74223a2231303030222c22736f6c7574696f6e223a22504550453a626331703378336875706e76383064666366666c34333367327a3776713378706c63673364666d79716365336d6c6d6e78397767753872717265763032653a303030303030303030303030303030303030303139393431613561653132383937363539383134343239323533333030353762306461393666336465613163353a3232353032353539333536227d68",
        "c1bf69a78b1b6433fca38fda21525e43a6c565682ca08e513a8f66feb668723930"
      ],
      "is_coinbase": false,
      "sequence": 4294967295
    }
  ],
  "vout": [
    {
      "scriptpubkey": "512089a37e066c3bda9c253fac62850bcc044c1fe1116a76406331dff73315c8e1c6",
      "scriptpubkey_asm": "OP_PUSHNUM_1 OP_PUSHBYTES_32 89a37e066c3bda9c253fac62850bcc044c1fe1116a76406331dff73315c8e1c6",
      "scriptpubkey_type": "v1_p2tr",
      "scriptpubkey_address": "bc1p3x3hupnv80dfcffl433g2z7vq3xplcg3dfmyqce3mlmnx9wgu8rqrev02e",
      "value": 546
    }
  ],
  "size": 487,
  "weight": 769,
  "fee": 2702,
  "status": {
    "confirmed": true,
    "block_height": 834460,
    "block_hash": "00000000000000000000484a79b643b2524bbce82e5d8a442013fa5b8905ed98",
    "block_time": 1710307468
  },
  "hex": "02000000000101bb15d63d881fca67db3b30c184de0e02fc1fba66b43b8bc417edfb22d9c435e80600000000ffffffff01220200000000000022512089a37e066c3bda9c253fac62850bcc044c1fe1116a76406331dff73315c8e1c60340f52f554ee6d47b4422d14d8af8da59f756ad3c23947037364713d87bd4e0277d3d0b97b9893e6be85cc7254e9b6a03023e359efa665fa203414953b2621e6bfefd200120af654686cc26ea900b7a750008a9294676fe6c52d745fd72cc14b05d9037fd9fac0063036f726401011e6170706c69636174696f6e2f6a736f6e3b636861727365743d7574662d38004cd37b2270223a22706f772d3230222c226f70223a226d696e74222c227469636b223a2250455045222c22616d74223a2231303030222c22736f6c7574696f6e223a22504550453a626331703378336875706e76383064666366666c34333367327a3776713378706c63673364666d79716365336d6c6d6e78397767753872717265763032653a303030303030303030303030303030303030303139393431613561653132383937363539383134343239323533333030353762306461393666336465613163353a3232353032353539333536227d6821c1bf69a78b1b6433fca38fda21525e43a6c565682ca08e513a8f66feb66872393000000000"
}