{
  "txid": "ee48a1882eac5be7d687e96f26a3bf727f43f9efdf5fc9ccf42e6f08e6738071",
  "version": 2,
  "locktime": 0,
  "vin": [
    {
      "txid": "c5dee7394aedeaf98f1544cc80e8eea804597b7b83fcf9923552cad15672d007",
      "vout": 5,
      "prevout": {
        "scriptpubkey": "5120eff7c65a413483f29630920b569afffa5fdf917f92d55533ac9abd66798abaee",
        "scriptpubkey_asm": "OP_PUSHNUM_1 OP_PUSHBYTES_32 eff7c65a413483f29630920b569afffa5fdf917f92d55533ac9abd66798abaee",
        "scriptpubkey_type": "v1_p2tr",
        "scriptpubkey_address": "bc1palmuvkjpxjpl993sjg94dxhllf0alytljt242vavn27kv7v2hthqevummd",
        "value": 600
      },
      "scriptsig": "",
      "scriptsig_asm": "",
      "witness": [
        "a5d818f6a247540ceb5965cf60ef3abc6c6e06ca8ccbe97acecec80ba1e1b5053f776454cba4ebc4a9ace22b12c5739a89828992cabac0b6a53f27a8c917b538"
      ],
      "is_coinbase": false,
      "sequence": 4294967295
    },
    {
      "txid": "c5dee7394aedeaf98f1544cc80e8eea804597b7b83fcf9923552cad15672d007",
      "vout": 4,
      "prevout": {
        "scriptpubkey": "5120eff7c65a413483f29630920b569afffa5fdf917f92d55533ac9abd66798abaee",
        "scriptpubkey_asm": "OP_PUSHNUM_1 OP_PUSHBYTES_32 eff7c65a413483f29630920b569afffa5fdf917f92d55533ac9abd66798abaee",
        "scriptpubkey_type": "v1_p2tr",
        "scriptpubkey_address": "bc1palmuvkjpxjpl993sjg94dxhllf0alytljt242vavn27kv7v2hthqevummd",
        "value": 600
      },
      "scriptsig": "",
      "scriptsig_asm": "",
      "witness": [
        "6615e79b5b709e35acbffb56ed9315ea1fd437fc4268eb574794d269115f0d25f6275e5600bedb35413730d35ca3b328b6e77040ac64aa33adc30a43e4ace811"
      ],
      "is_coinbase": false,
      "sequence": 4294967295
    },
    {
      "txid": "1ab30ad7f0cb8cfabee9c1cb0cec9c122977913e65fbd17c2bf3e7b4acd528cc",
      "vout": 0,
      "prevout": {
        "scriptpubkey": "51203570f1e66a7d2e9e4b3739d32b013dd1439d5cfb1461fd7b6d4b6855e0dc96fc",
        "scriptpubkey_asm": "OP_PUSHNUM_1 OP_PUSHBYTES_32 3570f1e66a7d2e9e4b3739d32b013dd1439d5cfb1461fd7b6d4b6855e0dc96fc",
        "scriptpubkey_type": "v1_p2tr",
        "scriptpubkey_address": "bc1px4c0ren205hfujeh88fjkqfa69pe6h8mz3sl67mdfd59tcxujm7qpqya9q",
        "value": 546
      },
      "scriptsig": "",
      "scriptsig_asm": "",
      "witness": [
        "d2d66918340f2df98040a1902361ac418128b3f7986b06bc2c3ba062ee409afd8f35b12b1770e2e25bd315f29e98c39fe94161a9f7b1dee91932ee0e6c705e7283"
      ],
      "is_coinbase": false,
      "sequence": 4294967295
    },
    {
      "txid": "911d4b4b8340c4d70866ef1412e8b212cee18b68d672c6393f241c21f5c37447",
      "vout": 1,
      "prevout": {
        "scriptpubkey": "5120eff7c65a413483f29630920b569afffa5fdf917f92d55533ac9abd66798abaee",
        "scriptpubkey_asm": "OP_PUSHNUM_1 OP_PUSHBYTES_32 eff7c65a413483f29630920b569afffa5fdf917f92d55533ac9abd66798abaee",
        "scriptpubkey_type": "v1_p2tr",
        "scriptpubkey_address": "bc1palmuvkjpxjpl993sjg94dxhllf0alytljt242vavn27kv7v2hthqevummd",
        "value": 68696
      },
      "scriptsig": "",
      "scriptsig_asm": "",
      "witness": [
        "656311b6329f11e6b053ffebba0e26c2c369bfa2c212317ea4120d4c30b09ce50a02884d3eb31f560212de0fb53cac3143e11c107db2419d402ecf2c9f78c600"
      ],
      "is_coinbase": false,
      "sequence": 4294967295
    }
  ],
  "vout": [
    {
      "scriptpubkey": "5120eff7c65a413483f29630920b569afffa5fdf917f92d55533ac9abd66798abaee",
      "scriptpubkey_asm": "OP_PUSHNUM_1 OP_PUSHBYTES_32 eff7c65a413483f29630920b569afffa5fdf917f92d55533ac9abd66798abaee",
      "scriptpubkey_type": "v1_p2tr",
      "scriptpubkey_address": "bc1palmuvkjpxjpl993sjg94dxhllf0alytljt242vavn27kv7v2hthqevummd",
      "value": 1200
    },
    {
      "scriptpubkey": "5120eff7c65a413483f29630920b569afffa5fdf917f92d55533ac9abd66798abaee",
      "scriptpubkey_asm": "OP_PUSHNUM_1 OP_PUSHBYTES_32 eff7c65a413483f29630920b569afffa5fdf917f92d55533ac9abd66798abaee",
      "scriptpubkey_type": "v1_p2tr",
      "scriptpubkey_address": "bc1palmuvkjpxjpl993sjg94dxhllf0alytljt242vavn27kv7v2hthqevummd",
      "value": 546
    },
    {
      "scriptpubkey": "51203570f1e66a7d2e9e4b3739d32b013dd1439d5cfb1461fd7b6d4b6855e0dc96fc",
      "scriptpubkey_asm": "OP_PUSHNUM_1 OP_PUSHBYTES_32 3570f1e66a7d2e9e4b3739d32b013dd1439d5cfb1461fd7b6d4b6855e0dc96fc",
      "scriptpubkey_type": "v1_p2tr",
      "scriptpubkey_address": "bc1px4c0ren205hfujeh88fjkqfa69pe6h8mz3sl67mdfd59tcxujm7qpqya9q",
      "value": 59700
    },
    {
      "scriptpubkey": "5120080ed232d2aff2f63d956576db394f477df7f0a9bb4ee5b75ec36f1d1b43c5d7",
      "scriptpubkey_asm": "OP_PUSHNUM_1 OP_PUSHBYTES_32 080ed232d2aff2f63d956576db394f477df7f0a9bb4ee5b75ec36f1d1b43c5d7",
      "scriptpubkey_type": "v1_p2tr",
      "scriptpubkey_address": "bc1ppq8dyvkj4le0v0v4v4mdkw20ga7l0u9fhd8wtd67cdh36x6rchtsudyat9",
      "value": 1500
    },
    {
      "scriptpubkey": "5120eff7c65a413483f29630920b569afffa5fdf917f92d55533ac9abd66798abaee",
      "scriptpubkey_asm": "OP_PUSHNUM_1 OP_PUSHBYTES_32 eff7c65a413483f29630920b569afffa5fdf917f92d55533ac9abd66798abaee",
      "scriptpubkey_type": "v1_p2tr",
      "scriptpubkey_address": "bc1palmuvkjpxjpl993sjg94dxhllf0alytljt242vavn27kv7v2hthqevummd",
      "value": 2024
    }
  ],
  "size": 656,
  "weight": 1823,
  "fee": 5472,
  "status": {
    "confirmed": true,
    "block_height": 834460,
    "block_hash": "00000000000000000000484a79b643b2524bbce82e5d8a442013fa5b8905ed98",
    "block_time": 1710307468
  },
  "hex": "0200000000010407d07256d1ca523592f9fc837b7b5904a8eee880cc44158ff9eaed4a39e7dec50500000000ffffffff07d07256d1ca523592f9fc837b7b5904a8eee880cc44158ff9eaed4a39e7dec50400000000ffffffffcc28d5acb4e7f32b7cd1fb653e917729129cec0ccbc1e9befa8ccbf0d70ab31a0000000000ffffffff4774c3f5211c243f39c672d6688be1ce12b2e81214ef6608d7c440834b4b1d910100000000ffffffff05b004000000000000225120eff7c65a413483f29630920b569afffa5fdf917f92d55533ac9abd66798abaee2202000000000000225120eff7c65a413483f29630920b569afffa5fdf917f92d55533ac9abd66798abaee34e90000000000002251203570f1e66a7d2e9e4b3739d32b013dd1439d5cfb1461fd7b6d4b6855e0dc96fcdc05000000000000225120080ed232d2aff2f63d956576db394f477df7f0a9bb4ee5b75ec36f1d1b43c5d7e807000000000000225120eff7c65a413483f29630920b569afffa5fdf917f92d55533ac9abd66798abaee0140a5d818f6a247540ceb5965cf60ef3abc6c6e06ca8ccbe97acecec80ba1e1b5053f776454cba4ebc4a9ace22b12c5739a89828992cabac0b6a53f27a8c917b53801406615e79b5b709e35acbffb56ed9315ea1fd437fc4268eb574794d269115f0d25f6275e5600bedb35413730d35ca3b328b6e77040ac64aa33adc30a43e4ace8110141d2d66918340f2df98040a1902361ac418128b3f7986b06bc2c3ba062ee409afd8f35b12b1770e2e25bd315f29e98c39fe94161a9f7b1dee91932ee0e6c705e72830140656311b6329f11e6b053ffebba0e26c2c369bfa2c212317ea4120d4c30b09ce50a02884d3eb31f560212de0fb53cac3143e11c107db2419d402ecf2c9f78c60000000000"
}