{
  "txid": "ee4ad1afce4141b78ac310def0f73e2c0320332e5475fccb9ddf5adb1170204a",
  "version": 2,
  "locktime": 834637,
  "vin": [
    {
      "txid": "83a90201f4d1175929a72a6bcf7bf32ebace434f2576d92fded8064c4418f39f",
      "vout": 0,
      "prevout": {
        "scriptpubkey": "001434b0404f3b3a1250930d642f3570f41ec1a00368",
        "scriptpubkey_asm": "OP_0 OP_PUSHBYTES_20 34b0404f3b3a1250930d642f3570f41ec1a00368",
        "scriptpubkey_type": "v0_p2wpkh",
        "scriptpubkey_address": "bc1qxjcyqnem8gf9pycdvshn2u85rmq6qqmgc89xcd",
        "value": 89032980
      },
      "scriptsig": "",
      "scriptsig_asm": "",
      "witness": [
        "304402205144dedfb8c41a1872021f7bdbaf85a5f116458fbdc9ae226c0a58f87cea956a022006dd720e562f296964eb603c0fe02ce713e4b20d213ee7b3d00e8827bd2fcdf801",
        "029a8fa47a877fffe69835f63477e9cf6d129207a9e22902ab7d3fbcdb6658a997"
      ],
      "is_coinbase": false,
      "sequence": 4294967294
    }
  ],
  "vout": [
    {
      "scriptpubkey": "0014ea966830da7e2ca9afaec58c203f70b049534456",
      "scriptpubkey_asm": "OP_0 OP_PUSHBYTES_20 ea966830da7e2ca9afaec58c203f70b049534456",
      "scriptpubkey_type": "v0_p2wpkh",
      "scriptpubkey_address": "bc1qa2txsvx60ck2ntawckxzq0mskpy4x3zkjvzgny",
      "value": 84525212
    },
    {
      "scriptpubkey": "a9146ca800488249a2da6c46d7a023788b292bb5d7a487",
      "scriptpubkey_asm": "OP_HASH160 OP_PUSHBYTES_20 6ca800488249a2da6c46d7a023788b292bb5d7a4 OP_EQUAL",
      "scriptpubkey_type": "p2sh",
      "scriptpubkey_address": "3BbYABZhjz2gxbh8GwLGyJNU66SrCKthW1",
      "value": 4503935
    }
  ],
  "size": 223,
  "weight": 565,
  "fee": 3833,
  "status": {
    "confirmed": true,
    "block_height": 834638,
    "block_hash": "000000000000000000025f742c626208ac87e0b7d15054abb4a19ca2d735a54e",
    "block_time": 1710405325
  },
  "hex": "020000000001019ff318444c06d8de2fd976254f43ceba2ef37bcf6b2aa7295917d1f40102a9830000000000feffffff029cc0090500000000160014ea966830da7e2ca9afaec58c203f70b0495344567fb944000000000017a9146ca800488249a2da6c46d7a023788b292bb5d7a4870247304402205144dedfb8c41a1872021f7bdbaf85a5f116458fbdc9ae226c0a58f87cea956a022006dd720e562f296964eb603c0fe02ce713e4b20d213ee7b3d00e8827bd2fcdf80121029a8fa47a877fffe69835f63477e9cf6d129207a9e22902ab7d3fbcdb6658a9974dbc0c00"
}