{
  "txid": "ee4c7f9350d3afc86a8393067845f7a0121f8e2726caed7add44b7d981289287",
  "version": 1,
  "locktime": 0,
  "vin": [
    {
      "txid": "ee921961209071ca7e424fbe84a1bbfc915783984ff1c72ce2790e03095b6159",
      "vout": 1,
      "prevout": {
        "scriptpubkey": "76a914b4f5da167e8c381ec01f3a709b0adbe9883ec6d288ac",
        "scriptpubkey_asm": "OP_DUP OP_HASH160 OP_PUSHBYTES_20 b4f5da167e8c381ec01f3a709b0adbe9883ec6d2 OP_EQUALVERIFY OP_CHECKSIG",
        "scriptpubkey_type": "p2pkh",
        "scriptpubkey_address": "1HVq9cvWe4gtmJqeztBr2vrxSPWFjef8tQ",
        "value": 13200000
      },
      "scriptsig": "47304402202f61222a0ecf47e12893c3d78d0ac26459d0501aed3a66f8f39fec6f48041763022071a1808aab0bdc3571b536347b5e9fed8ba94d896e32c456a49fcfab027545d0012102f68b502d46b5781044b8e337bd263d047c1214790aa3fa4f5aec82445e80c279",
      "scriptsig_asm": "OP_PUSHBYTES_71 304402202f61222a0ecf47e12893c3d78d0ac26459d0501aed3a66f8f39fec6f48041763022071a1808aab0bdc3571b536347b5e9fed8ba94d896e32c456a49fcfab027545d001 OP_PUSHBYTES_33 02f68b502d46b5781044b8e337bd263d047c1214790aa3fa4f5aec82445e80c279",
      "is_coinbase": false,
      "sequence": 4294967295
    }
  ],
  "vout": [
    {
      "scriptpubkey": "a9141bbee20ad10baabc72e0a8be6ba0d893434d2ea887",
      "scriptpubkey_asm": "OP_HASH160 OP_PUSHBYTES_20 1bbee20ad10baabc72e0a8be6ba0d893434d2ea8 OP_EQUAL",
      "scriptpubkey_type": "p2sh",
      "scriptpubkey_address": "34DiqWExrAXXTrEP7G3wiPUyS4bdkeYaj4",
      "value": 48228
    },
    {
      "scriptpubkey": "00140d7b4a861b7158a10772bb04aeeb25ff9c8b3938",
      "scriptpubkey_asm": "OP_0 OP_PUSHBYTES_20 0d7b4a861b7158a10772bb04aeeb25ff9c8b3938",
      "scriptpubkey_type": "v0_p2wpkh",
      "scriptpubkey_address": "bc1qp4a54psmw9v2zpmjhvz2a6e9l7wgkwfcs7xuer",
      "value": 13148561
    }
  ],
  "size": 220,
  "weight": 880,
  "fee": 3211,
  "status": {
    "confirmed": true,
    "block_height": 834638,
    "block_hash": "000000000000000000025f742c626208ac87e0b7d15054abb4a19ca2d735a54e",
    "block_time": 1710405325
  },
  "hex": "010000000159615b09030e79e22cc7f14f98835791fcbba184be4f427eca719020611992ee010000006a47304402202f61222a0ecf47e12893c3d78d0ac26459d0501aed3a66f8f39fec6f48041763022071a1808aab0bdc3571b536347b5e9fed8ba94d896e32c456a49fcfab027545d0012102f68b502d46b5781044b8e337bd263d047c1214790aa3fa4f5aec82445e80c279ffffffff0264bc00000000000017a9141bbee20ad10baabc72e0a8be6ba0d893434d2ea88791a1c800000000001600140d7b4a861b7158a10772bb04aeeb25ff9c8b393800000000"
}