{
  "txid": "ee5ee9952e61530a3932fee71d30e8cd39b8854708b042490507b7e1f8372ebf",
  "version": 2,
  "locktime": 0,
  "vin": [
    {
      "txid": "5be9539feb6c45a0d5ae93da7090bf56ecfdc0e5a9073b52f8c2a3d0d4c63b6b",
      "vout": 1,
      "prevout": {
        "scriptpubkey": "0014644eeef341fc8eb0cf75aef3a26d7a00a82409e3",
        "scriptpubkey_asm": "OP_0 OP_PUSHBYTES_20 644eeef341fc8eb0cf75aef3a26d7a00a82409e3",
        "scriptpubkey_type": "v0_p2wpkh",
        "scriptpubkey_address": "bc1qv38wau6plj8tpnm44me6ymt6qz5zgz0rv6jqg6",
        "value": 161996572
      },
      "scriptsig": "",
      "scriptsig_asm": "",
      "witness": [
        "30440220589b3052b4c2881308977a6e5ce5ebcfa98f36cb24606f711d829f974717a58f0220739dd7a60a76d834ccb4aa7bcfdf799704a80d16b3413945b05810657930492601",
        "0336e747faca7d5f7708c4d1208309160b9b14b4fc20f202f6bee16e12432dbc23"
      ],
      "is_coinbase": false,
      "sequence": 4294967295
    }
  ],
  "vout": [
    {
      "scriptpubkey": "0020fdc83444d281dfb894957c9c18a8870ae77d4eeb196a5bfdeac336a024df1a5a",
      "scriptpubkey_asm": "OP_0 OP_PUSHBYTES_32 fdc83444d281dfb894957c9c18a8870ae77d4eeb196a5bfdeac336a024df1a5a",
      "scriptpubkey_type": "v0_p2wsh",
      "scriptpubkey_address": "bc1qlhyrg3xjs80m39y40jwp32y8ptnh6nhtr949hl02cvm2qfxlrfdqevx9nv",
      "value": 1034847
    },
    {
      "scriptpubkey": "0014224bab1597738224a57ddf7427588532780d2d19",
      "scriptpubkey_asm": "OP_0 OP_PUSHBYTES_20 224bab1597738224a57ddf7427588532780d2d19",
      "scriptpubkey_type": "v0_p2wpkh",
      "scriptpubkey_address": "bc1qyf96k9vhwwpzfftama6zwky9xfuq6tgelk6d9v",
      "value": 160959448
    }
  ],
  "size": 234,
  "weight": 609,
  "fee": 2277,
  "status": {
    "confirmed": true,
    "block_height": 834638,
    "block_hash": "000000000000000000025f742c626208ac87e0b7d15054abb4a19ca2d735a54e",
    "block_time": 1710405325
  },
  "hex": "020000000001016b3bc6d4d0a3c2f8523b07a9e5c0fdec56bf9070da93aed5a0456ceb9f53e95b0100000000ffffffff025fca0f0000000000220020fdc83444d281dfb894957c9c18a8870ae77d4eeb196a5bfdeac336a024df1a5ad80b980900000000160014224bab1597738224a57ddf7427588532780d2d19024730440220589b3052b4c2881308977a6e5ce5ebcfa98f36cb24606f711d829f974717a58f0220739dd7a60a76d834ccb4aa7bcfdf799704a80d16b3413945b05810657930492601210336e747faca7d5f7708c4d1208309160b9b14b4fc20f202f6bee16e12432dbc2300000000"
}