{
  "txid": "ee6845b61efdf0e7cb4aef0998b116e57e294c72b72c4629846b743311d3030c",
  "version": 2,
  "locktime": 0,
  "vin": [
    {
      "txid": "cff18b4559633437c6b86c4dda97cfb257bbb38034c432a508417c66c18b6b72",
      "vout": 25,
      "prevout": {
        "scriptpubkey": "5120c596ff1911d1ccd889570d4b9a478d788fdb95d59f3eb3e708e8a04f60eea75b",
        "scriptpubkey_asm": "OP_PUSHNUM_1 OP_PUSHBYTES_32 c596ff1911d1ccd889570d4b9a478d788fdb95d59f3eb3e708e8a04f60eea75b",
        "scriptpubkey_type": "v1_p2tr",
        "scriptpubkey_address": "bc1pckt07xg368xd3z2hp49e53ud0z8ah9w4nult8ecgazsy7c8w5adsva395j",
        "value": 3618
      },
      "scriptsig": "",
      "scriptsig_asm": "",
      "witness": [
        "e8cd926cfe520d2312b9e45004e3add29a48a9dd4245e546b91076e6f40db5e17fea96a71f1be13d62c1dbbc7927818e5eaa1697348fb70b8e6168156ea8f1e2",
        "20f77e450cdefe94da7fb69fc9bfc20142eb43056f7abedd873957ddf7bd4249cfac0063036f726401011e6170706c69636174696f6e2f6a736f6e3b636861727365743d7574662d38004cd27b2270223a22706f772d3230222c226f70223a226d696e74222c227469636b223a2250455045222c22616d74223a2231303030222c22736f6c7574696f6e223a22504550453a6263317077687170676e37766634707478386574387339353863796b6a6338306130393377387733716d6d6737726c39717177616c6a37733339766c36733a303030303030303030303030303030303030303139393431613561653132383937363539383134343239323533333030353762306461393666336465613163353a31303339363439333736227d68",
        "c0260555bf4608a4bfce181158d7f81c023e0988279add2c55cd9091c8ce8f4140"
      ],
      "is_coinbase": false,
      "sequence": 4294967295
    }
  ],
  "vout": [
    {
      "scriptpubkey": "512075c0144fcc4d42b31f2b3c0b43e096960efebcb171dd106f68f0fe5001ddfcbd",
      "scriptpubkey_asm": "OP_PUSHNUM_1 OP_PUSHBYTES_32 75c0144fcc4d42b31f2b3c0b43e096960efebcb171dd106f68f0fe5001ddfcbd",
      "scriptpubkey_type": "v1_p2tr",
      "scriptpubkey_address": "bc1pwhqpgn7vf4ptx8et8s958cykjc80a093w8w3qmmg7rl9qqwalj7s39vl6s",
      "value": 546
    }
  ],
  "size": 486,
  "weight": 768,
  "fee": 3072,
  "status": {
    "confirmed": true,
    "block_height": 834460,
    "block_hash": "00000000000000000000484a79b643b2524bbce82e5d8a442013fa5b8905ed98",
    "block_time": 1710307468
  },
  "hex": "02000000000101726b8bc1667c4108a532c43480b3bb57b2cf97da4d6cb8c637346359458bf1cf1900000000ffffffff01220200000000000022512075c0144fcc4d42b31f2b3c0b43e096960efebcb171dd106f68f0fe5001ddfcbd0340e8cd926cfe520d2312b9e45004e3add29a48a9dd4245e546b91076e6f40db5e17fea96a71f1be13d62c1dbbc7927818e5eaa1697348fb70b8e6168156ea8f1e2fd1f0120f77e450cdefe94da7fb69fc9bfc20142eb43056f7abedd873957ddf7bd4249cfac0063036f726401011e6170706c69636174696f6e2f6a736f6e3b636861727365743d7574662d38004cd27b2270223a22706f772d3230222c226f70223a226d696e74222c227469636b223a2250455045222c22616d74223a2231303030222c22736f6c7574696f6e223a22504550453a6263317077687170676e37766634707478386574387339353863796b6a6338306130393377387733716d6d6737726c39717177616c6a37733339766c36733a303030303030303030303030303030303030303139393431613561653132383937363539383134343239323533333030353762306461393666336465613163353a31303339363439333736227d6821c0260555bf4608a4bfce181158d7f81c023e0988279add2c55cd9091c8ce8f414000000000"
}