{
  "txid": "ee6adb001486f606e9a194c99a62cf8cf822a557d99808136f278d01538f57e5",
  "version": 2,
  "locktime": 0,
  "vin": [
    {
      "txid": "827222dfb15cd981db3a21b420f704883b44ff9bf471b67780507500b9bb0472",
      "vout": 0,
      "prevout": {
        "scriptpubkey": "5120cc6289a551330cbaf093f425e64052e868a4df3f8217b9c5ccf9d445a2f41983",
        "scriptpubkey_asm": "OP_PUSHNUM_1 OP_PUSHBYTES_32 cc6289a551330cbaf093f425e64052e868a4df3f8217b9c5ccf9d445a2f41983",
        "scriptpubkey_type": "v1_p2tr",
        "scriptpubkey_address": "bc1pe33gnf23xvxt4uyn7sj7vszjap52fhelsgtmn3wvl82ytgh5rxps5kz79y",
        "value": 9490
      },
      "scriptsig": "",
      "scriptsig_asm": "",
      "witness": [
        "205a42028f58260a0530ea57d5edd601d938b0507f2dc1bb60c4698793c9ab02e234ac9b3e6131483adfbb538b5232ab533910270d82a03b250893ae13ef8441",
        "20377332f375671d9eea535bafbc89eea82ea470d34a9113b413d336bc472d48edac0063036f7264010118746578742f706c61696e3b636861727365743d7574662d38004c867b2270223a22746170222c226f70223a22646d742d6d696e74222c22646570223a22636266353434323730663765353761376535393430623639653062663631343039623131313835633035336165376365653935633763393236343430363933346930222c227469636b223a2243756c74425443222c22626c6b223a22313233353833227d680063036f72640102022202010118746578742f706c61696e3b636861727365743d7574662d38004c867b2270223a22746170222c226f70223a22646d742d6d696e74222c22646570223a22636266353434323730663765353761376535393430623639653062663631343039623131313835633035336165376365653935633763393236343430363933346930222c227469636b223a2243756c74425443222c22626c6b223a22383239303134227d680063036f72640102024404010118746578742f706c61696e3b636861727365743d7574662d38004c867b2270223a22746170222c226f70223a22646d742d6d696e74222c22646570223a22636266353434323730663765353761376535393430623639653062663631343039623131313835633035336165376365653935633763393236343430363933346930222c227469636b223a2243756c74425443222c22626c6b223a22383330353630227d680063036f72640102026606010118746578742f706c61696e3b636861727365743d7574662d38004c867b2270223a22746170222c226f70223a22646d742d6d696e74222c22646570223a22636266353434323730663765353761376535393430623639653062663631343039623131313835633035336165376365653935633763393236343430363933346930222c227469636b223a2243756c74425443222c22626c6b223a22313233333031227d680063036f72640102028808010118746578742f706c61696e3b636861727365743d7574662d38004c867b2270223a22746170222c226f70223a22646d742d6d696e74222c22646570223a22636266353434323730663765353761376535393430623639653062663631343039623131313835633035336165376365653935633763393236343430363933346930222c227469636b223a2243756c74425443222c22626c6b223a22313234313235227d68",
        "c1377332f375671d9eea535bafbc89eea82ea470d34a9113b413d336bc472d48ed"
      ],
      "is_coinbase": false,
      "sequence": 4294967295
    }
  ],
  "vout": [
    {
      "scriptpubkey": "5120c0b7a32269f3940d1aecccbdca1f34733da0924f6b1b71b0e4010f8d3c095606",
      "scriptpubkey_asm": "OP_PUSHNUM_1 OP_PUSHBYTES_32 c0b7a32269f3940d1aecccbdca1f34733da0924f6b1b71b0e4010f8d3c095606",
      "scriptpubkey_type": "v1_p2tr",
      "scriptpubkey_address": "bc1pczm6xgnf7w2q6xhvej7u58e5wv76pyj0dvdhrv8yqy8c60qf2crq923kf7",
      "value": 546
    },
    {
      "scriptpubkey": "5120c0b7a32269f3940d1aecccbdca1f34733da0924f6b1b71b0e4010f8d3c095606",
      "scriptpubkey_asm": "OP_PUSHNUM_1 OP_PUSHBYTES_32 c0b7a32269f3940d1aecccbdca1f34733da0924f6b1b71b0e4010f8d3c095606",
      "scriptpubkey_type": "v1_p2tr",
      "scriptpubkey_address": "bc1pczm6xgnf7w2q6xhvej7u58e5wv76pyj0dvdhrv8yqy8c60qf2crq923kf7",
      "value": 546
    },
    {
      "scriptpubkey": "5120c0b7a32269f3940d1aecccbdca1f34733da0924f6b1b71b0e4010f8d3c095606",
      "scriptpubkey_asm": "OP_PUSHNUM_1 OP_PUSHBYTES_32 c0b7a32269f3940d1aecccbdca1f34733da0924f6b1b71b0e4010f8d3c095606",
      "scriptpubkey_type": "v1_p2tr",
      "scriptpubkey_address": "bc1pczm6xgnf7w2q6xhvej7u58e5wv76pyj0dvdhrv8yqy8c60qf2crq923kf7",
      "value": 546
    },
    {
      "scriptpubkey": "5120c0b7a32269f3940d1aecccbdca1f34733da0924f6b1b71b0e4010f8d3c095606",
      "scriptpubkey_asm": "OP_PUSHNUM_1 OP_PUSHBYTES_32 c0b7a32269f3940d1aecccbdca1f34733da0924f6b1b71b0e4010f8d3c095606",
      "scriptpubkey_type": "v1_p2tr",
      "scriptpubkey_address": "bc1pczm6xgnf7w2q6xhvej7u58e5wv76pyj0dvdhrv8yqy8c60qf2crq923kf7",
      "value": 546
    },
    {
      "scriptpubkey": "5120c0b7a32269f3940d1aecccbdca1f34733da0924f6b1b71b0e4010f8d3c095606",
      "scriptpubkey_asm": "OP_PUSHNUM_1 OP_PUSHBYTES_32 c0b7a32269f3940d1aecccbdca1f34733da0924f6b1b71b0e4010f8d3c095606",
      "scriptpubkey_type": "v1_p2tr",
      "scriptpubkey_address": "bc1pczm6xgnf7w2q6xhvej7u58e5wv76pyj0dvdhrv8yqy8c60qf2crq923kf7",
      "value": 546
    }
  ],
  "size": 1280,
  "weight": 2078,
  "fee": 6760,
  "status": {
    "confirmed": true,
    "block_height": 834464,
    "block_hash": "0000000000000000000177a0869a911a2b65c9bdcd5a8bcb02b68f305bee848e",
    "block_time": 1710308296
  },
  "hex": "020000000001017204bbb90075508077b671f49bff443b8804f720b4213adb81d95cb1df2272820000000000ffffffff052202000000000000225120c0b7a32269f3940d1aecccbdca1f34733da0924f6b1b71b0e4010f8d3c0956062202000000000000225120c0b7a32269f3940d1aecccbdca1f34733da0924f6b1b71b0e4010f8d3c0956062202000000000000225120c0b7a32269f3940d1aecccbdca1f34733da0924f6b1b71b0e4010f8d3c0956062202000000000000225120c0b7a32269f3940d1aecccbdca1f34733da0924f6b1b71b0e4010f8d3c0956062202000000000000225120c0b7a32269f3940d1aecccbdca1f34733da0924f6b1b71b0e4010f8d3c0956060340205a42028f58260a0530ea57d5edd601d938b0507f2dc1bb60c4698793c9ab02e234ac9b3e6131483adfbb538b5232ab533910270d82a03b250893ae13ef8441fd8d0320377332f375671d9eea535bafbc89eea82ea470d34a9113b413d336bc472d48edac0063036f7264010118746578742f706c61696e3b636861727365743d7574662d38004c867b2270223a22746170222c226f70223a22646d742d6d696e74222c22646570223a22636266353434323730663765353761376535393430623639653062663631343039623131313835633035336165376365653935633763393236343430363933346930222c227469636b223a2243756c74425443222c22626c6b223a22313233353833227d680063036f72640102022202010118746578742f706c61696e3b636861727365743d7574662d38004c867b2270223a22746170222c226f70223a22646d742d6d696e74222c22646570223a22636266353434323730663765353761376535393430623639653062663631343039623131313835633035336165376365653935633763393236343430363933346930222c227469636b223a2243756c74425443222c22626c6b223a22383239303134227d680063036f72640102024404010118746578742f706c61696e3b636861727365743d7574662d38004c867b2270223a22746170222c226f70223a22646d742d6d696e74222c22646570223a22636266353434323730663765353761376535393430623639653062663631343039623131313835633035336165376365653935633763393236343430363933346930222c227469636b223a2243756c74425443222c22626c6b223a22383330353630227d680063036f72640102026606010118746578742f706c61696e3b636861727365743d7574662d38004c867b2270223a22746170222c226f70223a22646d742d6d696e74222c22646570223a22636266353434323730663765353761376535393430623639653062663631343039623131313835633035336165376365653935633763393236343430363933346930222c227469636b223a2243756c74425443222c22626c6b223a22313233333031227d680063036f72640102028808010118746578742f706c61696e3b636861727365743d7574662d38004c867b2270223a22746170222c226f70223a22646d742d6d696e74222c22646570223a22636266353434323730663765353761376535393430623639653062663631343039623131313835633035336165376365653935633763393236343430363933346930222c227469636b223a2243756c74425443222c22626c6b223a22313234313235227d6821c1377332f375671d9eea535bafbc89eea82ea470d34a9113b413d336bc472d48ed00000000"
}