{
  "txid": "ee6a429c7954d2990d127a7e430aae39a36a0c6993de496e32d8c2e3afc2d8f3",
  "version": 2,
  "locktime": 834462,
  "vin": [
    {
      "txid": "06ed996bd95aeab2100e45ce861f8f444671948ebb7d38f85a73d83913c57fd0",
      "vout": 0,
      "prevout": {
        "scriptpubkey": "001428f79b9af8b49cc4240b939c27e0e2b218927e20",
        "scriptpubkey_asm": "OP_0 OP_PUSHBYTES_20 28f79b9af8b49cc4240b939c27e0e2b218927e20",
        "scriptpubkey_type": "v0_p2wpkh",
        "scriptpubkey_address": "bc1q9rmehxhckjwvgfqtjwwz0c8zkgvfyl3quh9tfe",
        "value": 111498
      },
      "scriptsig": "",
      "scriptsig_asm": "",
      "witness": [
        "3044022009ee75f4a748a196ccd4ebfa56c0bda6db3cc98ad054d329c3c27305d1751ccb02201efb8af43d2a517de756dac0ff9cf45b9003d7366c61dc36a85412b8804f8f3501",
        "0309b0be3644b0390caf130cb76e956f406d69b4f9f70c8ecb03778e4a8387025b"
      ],
      "is_coinbase": false,
      "sequence": 4294967293
    },
    {
      "txid": "0c74f3ca831175950596d29ca06aef8c4d2b4d89147fb5d620f445fe97e70c2d",
      "vout": 3,
      "prevout": {
        "scriptpubkey": "001495c62bccc670605eabbac3e8e3c469409da7edcc",
        "scriptpubkey_asm": "OP_0 OP_PUSHBYTES_20 95c62bccc670605eabbac3e8e3c469409da7edcc",
        "scriptpubkey_type": "v0_p2wpkh",
        "scriptpubkey_address": "bc1qjhrzhnxxwps9a2a6c05w83rfgzw60mwvs76hwk",
        "value": 207399
      },
      "scriptsig": "",
      "scriptsig_asm": "",
      "witness": [
        "304402206dbc2f7cd414f6d984c7e56bb1071f2f49faddc14d6e7ad5af2fe358974a772d02201555c08affb5879e0d91ddf369f422b66ea508d276d4ce93f23fe0209154f1ce01",
        "03dab2716f7e8e9b45c6143256117d0a3cbc658cd5656abb573154d7e719c051bb"
      ],
      "is_coinbase": false,
      "sequence": 4294967293
    },
    {
      "txid": "0e537d32dc4e096f3a5efe65c1b5490a5c05daeabe5bcacf7b7b058c172f006a",
      "vout": 1,
      "prevout": {
        "scriptpubkey": "0014cd0df393a20dac4870dd6b574b8052640554a84c",
        "scriptpubkey_asm": "OP_0 OP_PUSHBYTES_20 cd0df393a20dac4870dd6b574b8052640554a84c",
        "scriptpubkey_type": "v0_p2wpkh",
        "scriptpubkey_address": "bc1qe5xl8yazpkkysuxaddt5hqzjvsz4f2zvk5vvx5",
        "value": 110685
      },
      "scriptsig": "",
      "scriptsig_asm": "",
      "witness": [
        "304402204233f72c7c10fd9fb44e82d5a2c7529ba99b26d3cdc24cc99b7b2c00154f776802207421bd66443adc4c17b490e16bd1824c35274de698017bad963e41aa8725f23b01",
        "02f3dfee81facec7126ca335aeab7b57f69ea3b222487c8604417dbeb150b5fa6a"
      ],
      "is_coinbase": false,
      "sequence": 4294967293
    },
    {
      "txid": "180c76e1471a83bb1823f0e4ff7d6954fca9468ad45929715a85035cecffc734",
      "vout": 1,
      "prevout": {
        "scriptpubkey": "00142ac42fce22906d7a23a585e681b25b61d5857a69",
        "scriptpubkey_asm": "OP_0 OP_PUSHBYTES_20 2ac42fce22906d7a23a585e681b25b61d5857a69",
        "scriptpubkey_type": "v0_p2wpkh",
        "scriptpubkey_address": "bc1q9tzzln3zjpkh5ga9shngrvjmv82c27nf4wk7s6",
        "value": 167159
      },
      "scriptsig": "",
      "scriptsig_asm": "",
      "witness": [
        "304402202357f0a84687eaf7efc4b4227a9f418a09fd4c8507a4c159c3b186a495406cb9022043d2e628e7a7099a18a78175ad771f765138a2b57e120ecac4b8c56a7947e1db01",
        "03abf41c7f0d58a5e0e716e0c3dc59b05f25ffeb788f3aa487ba8f4ada86ddf728"
      ],
      "is_coinbase": false,
      "sequence": 4294967293
    },
    {
      "txid": "3af08218b1a9f93ba44ba80cd6205ad78d553c75769f8cc23445a731f35501ce",
      "vout": 1,
      "prevout": {
        "scriptpubkey": "001421d030fc7bddee37e29e6b6b931b2894ed02d3d2",
        "scriptpubkey_asm": "OP_0 OP_PUSHBYTES_20 21d030fc7bddee37e29e6b6b931b2894ed02d3d2",
        "scriptpubkey_type": "v0_p2wpkh",
        "scriptpubkey_address": "bc1qy8grplrmmhhr0c57dd4exxegjnks957j5vvzsp",
        "value": 399025
      },
      "scriptsig": "",
      "scriptsig_asm": "",
      "witness": [
        "304402206ac03fb8cce8ca7fae25cd101ca9e79e7df179a8a3ada3780610c1c2a03c7a6602207d6c2156e9a38ece21cebbb21e0bdfc5101c1aea3ac5806bf4508074cdc8d11601",
        "02bf1ec8c77c1016622ccb8b7404f732a49a41a1484e4311213e9805c981a38d9f"
      ],
      "is_coinbase": false,
      "sequence": 4294967293
    },
    {
      "txid": "43f8bf170720fd914d58ae9061aa3bbded7f35e6b3f2c0b43cceedc5fe844ef7",
      "vout": 0,
      "prevout": {
        "scriptpubkey": "00140dfca4d40d23c51bd8f52810b5ccd5db3ef8124c",
        "scriptpubkey_asm": "OP_0 OP_PUSHBYTES_20 0dfca4d40d23c51bd8f52810b5ccd5db3ef8124c",
        "scriptpubkey_type": "v0_p2wpkh",
        "scriptpubkey_address": "bc1qph72f4qdy0z3hk849qgttnx4mvl0syjvj3qm3e",
        "value": 96927
      },
      "scriptsig": "",
      "scriptsig_asm": "",
      "witness": [
        "3044022028a1b5b97dc442280fcb51ee03fe05b5f78e8e4faa91e102943be4c0271ae56702202329c79c2740dcd697f515bdbab8ef755a3e2244698c9396a7e3cde820c562d701",
        "03b142fd7c1d2e538a97634390e6e4d964f6de1dc72e260d6d93e9cf28b38da677"
      ],
      "is_coinbase": false,
      "sequence": 4294967293
    },
    {
      "txid": "5fd42410b2044da6cf7b023bd5ed0d581e75df38352e2b595974b847d969c9de",
      "vout": 2,
      "prevout": {
        "scriptpubkey": "0014c420d23503e012e04206e2e7d7dc8f92fe6025f1",
        "scriptpubkey_asm": "OP_0 OP_PUSHBYTES_20 c420d23503e012e04206e2e7d7dc8f92fe6025f1",
        "scriptpubkey_type": "v0_p2wpkh",
        "scriptpubkey_address": "bc1qcssdydgruqfwqssxutna0hy0jtlxqf03k8qvk8",
        "value": 97283
      },
      "scriptsig": "",
      "scriptsig_asm": "",
      "witness": [
        "304402202ab570c26852f0f3f3e52da3b0c9ff7911c507732496749111c56f90e514980f02206f01fe248867e49f2627b1083cdf39df19047630e056daf91fef24d8bc44a54901",
        "02673c6f7452f501cb68fb9939cccedd814a9a58ad948b4258cfb76881053d104c"
      ],
      "is_coinbase": false,
      "sequence": 4294967293
    },
    {
      "txid": "6546cd313bce5253b7cc2ac5edcdb2d13be4195f0ca3f7c74f712532e28cec5a",
      "vout": 0,
      "prevout": {
        "scriptpubkey": "00148859892c76e8790e249adf8e7dc61d8bcf696115",
        "scriptpubkey_asm": "OP_0 OP_PUSHBYTES_20 8859892c76e8790e249adf8e7dc61d8bcf696115",
        "scriptpubkey_type": "v0_p2wpkh",
        "scriptpubkey_address": "bc1q3pvcjtrkapusufy6m788m3sa308kjcg48f0cts",
        "value": 123859
      },
      "scriptsig": "",
      "scriptsig_asm": "",
      "witness": [
        "30440220776e3e9eeed3e8bb52cdf1f566410521b731716d8b37cd7dfe62fbf11ac2cd8202205d2e1ecedb04f2b14d883a20eca8bd0c1ad74a07a7dbdf355f201fd2b359a1d501",
        "03a2af28d3641e7071d0171308a28e213b44ad68338490ee6188f621ccdaf374c4"
      ],
      "is_coinbase": false,
      "sequence": 4294967293
    },
    {
      "txid": "69971e11c7dfff10b2ab8e9fe0a00eb29a7e3d646c76c27b9dd1626a571356b5",
      "vout": 1,
      "prevout": {
        "scriptpubkey": "0014e7c7faa10818d8500f7694f6289d601b2fd67749",
        "scriptpubkey_asm": "OP_0 OP_PUSHBYTES_20 e7c7faa10818d8500f7694f6289d601b2fd67749",
        "scriptpubkey_type": "v0_p2wpkh",
        "scriptpubkey_address": "bc1qulrl4gggrrv9qrmkjnmz38tqrvhava6fqqaf9g",
        "value": 134907
      },
      "scriptsig": "",
      "scriptsig_asm": "",
      "witness": [
        "304402204116278dc4156badbe51cafe846b8a113463d6d2d0a398f3397c621a404f0eaf02203004c34483f298658d409832873ebd46f1d76c92ffc6564e892e849992cea05301",
        "023b0751a7abc7033f84e67880d96557ce3566c7b18402da34b2a24776775d14da"
      ],
      "is_coinbase": false,
      "sequence": 4294967293
    },
    {
      "txid": "848bf99c2c0dd3ce8d447737e8575d0ec86daa1e0ccdc3731f7208f8fe317a9b",
      "vout": 0,
      "prevout": {
        "scriptpubkey": "0014b713be650f3443c6bd94ec0d51de531dfd68c184",
        "scriptpubkey_asm": "OP_0 OP_PUSHBYTES_20 b713be650f3443c6bd94ec0d51de531dfd68c184",
        "scriptpubkey_type": "v0_p2wpkh",
        "scriptpubkey_address": "bc1qkufmueg0x3pud0v5asx4rhjnrh7k3svylt4rwy",
        "value": 280708
      },
      "scriptsig": "",
      "scriptsig_asm": "",
      "witness": [
        "3044022012c30cb87b7dfd4cd92fb876177895a617438294e22a1f447378c0205d6c3473022023b0e5fa2f69f45b784415cc07680465bbdf0f479516497f0efd75bdd03902bd01",
        "02bd07c5b0a849feb6d28ae78f755a63d7257efe745728bb3bd8d6d7772aad1630"
      ],
      "is_coinbase": false,
      "sequence": 4294967293
    },
    {
      "txid": "8c9f2ef058df5960ae0c833b62a0a6156c6f2f123cd60982f2fd26099ed6ae40",
      "vout": 0,
      "prevout": {
        "scriptpubkey": "001465822381414f27187e935cfb48d4fef445602e72",
        "scriptpubkey_asm": "OP_0 OP_PUSHBYTES_20 65822381414f27187e935cfb48d4fef445602e72",
        "scriptpubkey_type": "v0_p2wpkh",
        "scriptpubkey_address": "bc1qvkpz8q2pfun3sl5ntna5348773zkqtnjuvgdle",
        "value": 111000
      },
      "scriptsig": "",
      "scriptsig_asm": "",
      "witness": [
        "30440220629d38863c4ab07aeea9ce460cb04723d4eb22c81ab4c22020dad52847932acb02207a780d79a9e5e5418fdaba116775631f5260d8ea009375843fdaab99621a338801",
        "026bcfd10f52f9f942b069e36dea71687670ecbe7f171882d8da57834dd32b36a2"
      ],
      "is_coinbase": false,
      "sequence": 4294967293
    },
    {
      "txid": "979ea61a4ade8bd97933afd0303ff48c318b1fa54ff5062f419559ef65195310",
      "vout": 0,
      "prevout": {
        "scriptpubkey": "00141bd3c46f7ca069e015fff8905e14a738c4127bd1",
        "scriptpubkey_asm": "OP_0 OP_PUSHBYTES_20 1bd3c46f7ca069e015fff8905e14a738c4127bd1",
        "scriptpubkey_type": "v0_p2wpkh",
        "scriptpubkey_address": "bc1qr0fugmmu5p57q90llzg9u9988rzpy7733qp4sj",
        "value": 111000
      },
      "scriptsig": "",
      "scriptsig_asm": "",
      "witness": [
        "304402200d2bbc94c0c130e2c7986aba1dbb2e0d617f9ce6d965ca612e76f221c6c899a90220565c265057a4ba835ab5d86f710e5e1ea0657fa03b0df6b8582a8a0efd45daeb01",
        "03d1438cd983232053da29f46a336de9500cd9014174de130b0c84f735d691f7cc"
      ],
      "is_coinbase": false,
      "sequence": 4294967293
    },
    {
      "txid": "999fc8ddce3dab14b072fdf789f38a8803a0042afd8fb9ac6cc8a2363a1cbb82",
      "vout": 13,
      "prevout": {
        "scriptpubkey": "0014392d7509df0c3dec0a2be583b4011cf291f0cb26",
        "scriptpubkey_asm": "OP_0 OP_PUSHBYTES_20 392d7509df0c3dec0a2be583b4011cf291f0cb26",
        "scriptpubkey_type": "v0_p2wpkh",
        "scriptpubkey_address": "bc1q8ykh2zwlps77cz3tukpmgqgu72glpjexxl5l8n",
        "value": 133924
      },
      "scriptsig": "",
      "scriptsig_asm": "",
      "witness": [
        "304402201ee41027b93ca6c651b0699526963420130bb85d7224de91c146d89b6b59d89a02206a23cb36aa1dc1b1b5c9032df3d5eebb1399e846f474d7d4b74670db88d68bda01",
        "02e1172039dabd75dca2f8d106a2e5cc1dd2fe42edc37b5f254db6d8378960753c"
      ],
      "is_coinbase": false,
      "sequence": 4294967293
    },
    {
      "txid": "a12a1795ea4fbd3e71432c1497919255aab10331e4a5585f5434be1c360f9562",
      "vout": 0,
      "prevout": {
        "scriptpubkey": "00147b324a0231480dd493b38a3891ed077ef91746d7",
        "scriptpubkey_asm": "OP_0 OP_PUSHBYTES_20 7b324a0231480dd493b38a3891ed077ef91746d7",
        "scriptpubkey_type": "v0_p2wpkh",
        "scriptpubkey_address": "bc1q0vey5q33fqxafyan3gufrmg80mu3w3khuqv6ls",
        "value": 108282
      },
      "scriptsig": "",
      "scriptsig_asm": "",
      "witness": [
        "3044022079e4827c0de61baf4b2153aa5f8194af02bb229c3ba1aac4ccfdcca9e0eb3df10220099dba574307a6cf43e5f23c28b1a7c904147512b9c925bbe1b396491e94660101",
        "03f3e0f405417f0c7fbe3e97bf74707bd4dc4c6564487ff4039d1da97c90a9f18d"
      ],
      "is_coinbase": false,
      "sequence": 4294967293
    },
    {
      "txid": "acf50ea556259cef74facc31e730ffd6bf55e10019c670b69060fed171c3d9cb",
      "vout": 1,
      "prevout": {
        "scriptpubkey": "001470edbeea650ead098df47464d234b2cfa172788d",
        "scriptpubkey_asm": "OP_0 OP_PUSHBYTES_20 70edbeea650ead098df47464d234b2cfa172788d",
        "scriptpubkey_type": "v0_p2wpkh",
        "scriptpubkey_address": "bc1qwrkma6n9p6ksnr05w3jdyd9je7shy7ydryxgfe",
        "value": 465400
      },
      "scriptsig": "",
      "scriptsig_asm": "",
      "witness": [
        "30440220222d9add4eb3140b630c36bceaa8cc46ce483e7d33571712eb240f08ea04f4b6022026c590d0972a05a948564d64f518d8046d0a11afdaaac73adb1f76012f9a51e701",
        "035d2e412b2be34a006fba2f38bbd295bd3003d34654520dc985bfa7ab968f8651"
      ],
      "is_coinbase": false,
      "sequence": 4294967293
    },
    {
      "txid": "b3a57b7a91403d900ca51104fb9e67acdae32b6d0c0f3ed7598bcf1acd80f9e3",
      "vout": 1,
      "prevout": {
        "scriptpubkey": "0014c6ba6f209e39ec903f1e3aa6777ec2a9758e162c",
        "scriptpubkey_asm": "OP_0 OP_PUSHBYTES_20 c6ba6f209e39ec903f1e3aa6777ec2a9758e162c",
        "scriptpubkey_type": "v0_p2wpkh",
        "scriptpubkey_address": "bc1qc6ax7gy788kfq0c782n8wlkz496cu93vxkun95",
        "value": 103844
      },
      "scriptsig": "",
      "scriptsig_asm": "",
      "witness": [
        "30440220603c48ca02d31b105b950e44117ca5cce7dc894f58e443e22c1b72c17b3d071c02203e021fbcece707c43f33fa438edc4f8b1f9c05123831984c224e973cc290c9e401",
        "0206e77db039f567803c672efe9a916b1fc332e8ebb4ffa9de3e5f5a32bb1239fd"
      ],
      "is_coinbase": false,
      "sequence": 4294967293
    },
    {
      "txid": "c5406e4969772e681a57bd97959f719978a57d11058935ba24465771c70d882e",
      "vout": 0,
      "prevout": {
        "scriptpubkey": "0014adf467519ca227e190896f53a929dd088f601c74",
        "scriptpubkey_asm": "OP_0 OP_PUSHBYTES_20 adf467519ca227e190896f53a929dd088f601c74",
        "scriptpubkey_type": "v0_p2wpkh",
        "scriptpubkey_address": "bc1q4h6xw5vu5gn7ryyfdaf6j2wapz8kq8r5wdcvem",
        "value": 102086
      },
      "scriptsig": "",
      "scriptsig_asm": "",
      "witness": [
        "3044022007d5f357bec5179523e9b0b17556a573e63a4f4aa28ff640a1f91a357756198e022016587dc1d1363f4109b2a14e7fc17e530a79ac1f757a7a4e4691bd12bfaab67201",
        "02dc37062fa08299b81d1f76452ac2fedb73b495e1d737857c47f7a48e3195a7d7"
      ],
      "is_coinbase": false,
      "sequence": 4294967293
    },
    {
      "txid": "c92821e49254ffff16f00997bcfe500de51513a5fd780fd90b6ae01ab6f23524",
      "vout": 0,
      "prevout": {
        "scriptpubkey": "0014972efb3850dd97228e67afbacbc239a30f41522e",
        "scriptpubkey_asm": "OP_0 OP_PUSHBYTES_20 972efb3850dd97228e67afbacbc239a30f41522e",
        "scriptpubkey_type": "v0_p2wpkh",
        "scriptpubkey_address": "bc1qjuh0kwzsmktj9rn847avhs3e5v85z53wnw3wm9",
        "value": 109022
      },
      "scriptsig": "",
      "scriptsig_asm": "",
      "witness": [
        "304402203d7bd8fca383f049340c883f400b47ed618e91f885fe2f12754a95fcfbcaa7210220212d14095dadc78b6d8cffc5ac606f7762bcb6cb937d1d6cfb90e242e92e74db01",
        "03b1e3c45404310ba5eb0bf4019daa082cfb744cd724d35559ec1baf831bebdd9f"
      ],
      "is_coinbase": false,
      "sequence": 4294967293
    },
    {
      "txid": "d7ba6e66e37345b9ed8de1481fd67c43b8585e82455235568d5274dd0969c947",
      "vout": 1,
      "prevout": {
        "scriptpubkey": "0014b50d1473390ea502c6bf1b10cf708e4ae5a1b713",
        "scriptpubkey_asm": "OP_0 OP_PUSHBYTES_20 b50d1473390ea502c6bf1b10cf708e4ae5a1b713",
        "scriptpubkey_type": "v0_p2wpkh",
        "scriptpubkey_address": "bc1qk5x3gueep6js934lrvgv7uywftj6rdcn092ka2",
        "value": 147654
      },
      "scriptsig": "",
      "scriptsig_asm": "",
      "witness": [
        "304402205d936b266d6735eeb08643cc9cad48bd5c8eca06517a734f7f99318d9c72430302204f170c531a50a3d5b8a666bf39e7ec0a0a1ac309ed5daaaca9eea8fdc5a20b7301",
        "03f3e6d471e44a2c54acc81ed12fd64cb07b690e83c0b60dec63f4296dfdb118e9"
      ],
      "is_coinbase": false,
      "sequence": 4294967293
    },
    {
      "txid": "dc2d44242b628e08b074c666237afae4993660f523d82c26f3e0ed6efcb134fb",
      "vout": 0,
      "prevout": {
        "scriptpubkey": "00143f8af199d747edb2a59cf49cd254d51ddba4cdaf",
        "scriptpubkey_asm": "OP_0 OP_PUSHBYTES_20 3f8af199d747edb2a59cf49cd254d51ddba4cdaf",
        "scriptpubkey_type": "v0_p2wpkh",
        "scriptpubkey_address": "bc1q8790rxwhglkm9fvu7jwdy4x4rhd6fnd0ranqxk",
        "value": 104365
      },
      "scriptsig": "",
      "scriptsig_asm": "",
      "witness": [
        "30440220480a83ea4eaf36a90a19ac5895b620e73ce857847f1273cf1afe82981794eaef022064608f645630f9c0312a25d0ad068179538967ddf85d3349d54e5faad2335b2501",
        "030706178ee41f604cad9be7295308223534c291eacec14a57cf862aa5af394598"
      ],
      "is_coinbase": false,
      "sequence": 4294967293
    },
    {
      "txid": "df5ab48ca46aa95152257b60b9d6d4042314d2c87c23682125057fe147767c0d",
      "vout": 17,
      "prevout": {
        "scriptpubkey": "0014320f1e075b3fd788a06c745155c79a6e969c60f3",
        "scriptpubkey_asm": "OP_0 OP_PUSHBYTES_20 320f1e075b3fd788a06c745155c79a6e969c60f3",
        "scriptpubkey_type": "v0_p2wpkh",
        "scriptpubkey_address": "bc1qxg83up6m8ltc3grvw3g4t3u6d6tfcc8n8h5w8m",
        "value": 107506
      },
      "scriptsig": "",
      "scriptsig_asm": "",
      "witness": [
        "3044022045d03e93e672c512b07d994cd087783c1b263f6169eb5e7c18c4e8692c1cfd9d02201e52995b287d35538cbe534dff62d54e2a83e689bc1f2cdc4d10cc2d9acabe6501",
        "037f83a3f2319a14e64a56f8cf0293c0d4d46521d4407ae804eca4063909893ac6"
      ],
      "is_coinbase": false,
      "sequence": 4294967293
    },
    {
      "txid": "e0fa291217dfe045096eda2e51ba8c6127b80f183fd9d5bd542a78f9c70df059",
      "vout": 1,
      "prevout": {
        "scriptpubkey": "0014e50af5d0ad6ece1763cbbd3e8938412b94676da4",
        "scriptpubkey_asm": "OP_0 OP_PUSHBYTES_20 e50af5d0ad6ece1763cbbd3e8938412b94676da4",
        "scriptpubkey_type": "v0_p2wpkh",
        "scriptpubkey_address": "bc1qu590t59ddm8pwc7th5lgjwzp9w2xwmdyy2uh63",
        "value": 325827
      },
      "scriptsig": "",
      "scriptsig_asm": "",
      "witness": [
        "304402206f4d9bfc7bf2fabcdf23d132ba3d9f563b4d54865595429ba3fed3635126f22102205d8dffe0eb44316372bc4ac29f35d36d5d23ed3127d039215c142555cf5c6b1101",
        "03d85fad65f10153a7b9cc31af60f63ca14536b66eb248f1fd382043ecfc0371a5"
      ],
      "is_coinbase": false,
      "sequence": 4294967293
    },
    {
      "txid": "eafe02d653d4cf1f0435d9c0d9a1ad6110488aba076bc3fc0d55f58ee8abe221",
      "vout": 20,
      "prevout": {
        "scriptpubkey": "00140cc176bd05f7f828c39a37dfa9129853c766f280",
        "scriptpubkey_asm": "OP_0 OP_PUSHBYTES_20 0cc176bd05f7f828c39a37dfa9129853c766f280",
        "scriptpubkey_type": "v0_p2wpkh",
        "scriptpubkey_address": "bc1qpnqhd0g97luz3su6xl06jy5c20rkdu5qcw6z7t",
        "value": 96248
      },
      "scriptsig": "",
      "scriptsig_asm": "",
      "witness": [
        "3044022064259ae6cf361cfb06f6ccadb2e057aa6e82af0b098c5002dc0be4665a63647802202adf49d2a9a8b6079e8a8917739ea844503645d26af983bad4db357f7fd4cd8101",
        "02af9d415f29b152e06f1312b3add22717c55c72d633b726dd77a770cc9192388f"
      ],
      "is_coinbase": false,
      "sequence": 4294967293
    },
    {
      "txid": "ee07c05a8ad34efe4682c229b5b321975806576c30973ace313cf6d51eb3c122",
      "vout": 0,
      "prevout": {
        "scriptpubkey": "001405dfc3f160df283ff2ff55ead136c64cb9faa524",
        "scriptpubkey_asm": "OP_0 OP_PUSHBYTES_20 05dfc3f160df283ff2ff55ead136c64cb9faa524",
        "scriptpubkey_type": "v0_p2wpkh",
        "scriptpubkey_address": "bc1qqh0u8utqmu5rluhl2h4dzdkxfjul4ffyvtusyh",
        "value": 145367
      },
      "scriptsig": "",
      "scriptsig_asm": "",
      "witness": [
        "304402205bea0b6501c5ae1712cf5a14faad0e63b9d1c1ef5a7238d00249ea8b8941e013022037eb5e279463ccb6779d6bc2d0eef8a472aa711b4df06d5bd2f3bef1492f838801",
        "028ccb2414da1c839e71ab5ebac797e6345b66bfad4a3d7eba6feaecd8f6562dae"
      ],
      "is_coinbase": false,
      "sequence": 4294967293
    },
    {
      "txid": "fc4ec9e056ce683c298c396af03923361d5a1052e1f304c1d04c057383923c0f",
      "vout": 1,
      "prevout": {
        "scriptpubkey": "0014c631290319130a4cea654d842e7df6f151066015",
        "scriptpubkey_asm": "OP_0 OP_PUSHBYTES_20 c631290319130a4cea654d842e7df6f151066015",
        "scriptpubkey_type": "v0_p2wpkh",
        "scriptpubkey_address": "bc1qcccjjqcezv9ye6n9fkzzul0k79gsvcq4ldvtjn",
        "value": 282744
      },
      "scriptsig": "",
      "scriptsig_asm": "",
      "witness": [
        "304402202ca36c5d603dc3a879fc77ac934e64c1c605de3a6ccc9360bbe37fd2f1623cc0022001a20363130c99b59d6e5cb22322cbc8786e9c7599fa9a8c1be760047c55157c01",
        "0261cf9a6bbf09e8a5b238025bc991fde264e7eb873c105b28db9af4fb64929165"
      ],
      "is_coinbase": false,
      "sequence": 4294967293
    }
  ],
  "vout": [
    {
      "scriptpubkey": "0014d2c7b812bca73fe3540e16ff6ded6cae0c42bb41",
      "scriptpubkey_asm": "OP_0 OP_PUSHBYTES_20 d2c7b812bca73fe3540e16ff6ded6cae0c42bb41",
      "scriptpubkey_type": "v0_p2wpkh",
      "scriptpubkey_address": "bc1q6trmsy4u5ul7x4qwzmlkmmtv4cxy9w6pmy9faz",
      "value": 4134597
    }
  ],
  "size": 3743,
  "weight": 6941,
  "fee": 49122,
  "status": {
    "confirmed": true,
    "block_height": 834464,
    "block_hash": "0000000000000000000177a0869a911a2b65c9bdcd5a8bcb02b68f305bee848e",
    "block_time": 1710308296
  },
  "hex": "02000000000119d07fc51339d8735af8387dbb8e947146448f1f86ce450e10b2ea5ad96b99ed060000000000fdffffff2d0ce797fe45f420d6b57f14894d2b4d8cef6aa09cd2960595751183caf3740c0300000000fdffffff6a002f178c057b7bcfca5bbeeada055c0a49b5c165fe5e3a6f094edc327d530e0100000000fdffffff34c7ffec5c03855a712959d48a46a9fc54697dffe4f02318bb831a47e1760c180100000000fdffffffce0155f331a74534c28c9f76753c558dd75a20d60ca84ba43bf9a9b11882f03a0100000000fdfffffff74e84fec5edce3cb4c0f2b3e6357fedbd3baa6190ae584d91fd200717bff8430000000000fdffffffdec969d947b87459592b2e3538df751e580dedd53b027bcfa64d04b21024d45f0200000000fdffffff5aec8ce23225714fc7f7a30c5f19e43bd1b2cdedc52accb75352ce3b31cd46650000000000fdffffffb55613576a62d19d7bc2766c643d7e9ab20ea0e09f8eabb210ffdfc7111e97690100000000fdffffff9b7a31fef808721f73c3cd0c1eaa6dc80e5d57e83777448dced30d2c9cf98b840000000000fdffffff40aed69e0926fdf28209d63c122f6f6c15a6a0623b830cae6059df58f02e9f8c0000000000fdffffff10531965ef5995412f06f54fa51f8b318cf43f30d0af3379d98bde4a1aa69e970000000000fdffffff82bb1c3a36a2c86cacb98ffd2a04a003888af389f7fd72b014ab3dceddc89f990d00000000fdffffff62950f361cbe34545f58a5e43103b1aa55929197142c43713ebd4fea95172aa10000000000fdffffffcbd9c371d1fe6090b670c61900e155bfd6ff30e731ccfa74ef9c2556a50ef5ac0100000000fdffffffe3f980cd1acf8b59d73e0f0c6d2be3daac679efb0411a50c903d40917a7ba5b30100000000fdffffff2e880dc771574624ba358905117da57899719f9597bd571a682e7769496e40c50000000000fdffffff2435f2b61ae06a0bd90f78fda51315e50d50febc9709f016ffff5492e42128c90000000000fdffffff47c96909dd74528d56355245825e58b8437cd61f48e18dedb94573e3666ebad70100000000fdfffffffb34b1fc6eede0f3262cd823f5603699e4fa7a2366c674b0088e622b24442ddc0000000000fdffffff0d7c7647e17f05252168237cc8d2142304d4d6b9607b255251a96aa48cb45adf1100000000fdffffff59f00dc7f9782a54bdd5d93f180fb827618cba512eda6e0945e0df171229fae00100000000fdffffff21e2abe88ef5550dfcc36b07ba8a481061ada1d9c0d935041fcfd453d602feea1400000000fdffffff22c1b31ed5f63c31ce3a97306c5706589721b3b529c28246fe4ed38a5ac007ee0000000000fdffffff0f3c928373054cd0c104f3e152105a1d362339f06a398c293c68ce56e0c94efc0100000000fdffffff01c5163f0000000000160014d2c7b812bca73fe3540e16ff6ded6cae0c42bb4102473044022009ee75f4a748a196ccd4ebfa56c0bda6db3cc98ad054d329c3c27305d1751ccb02201efb8af43d2a517de756dac0ff9cf45b9003d7366c61dc36a85412b8804f8f3501210309b0be3644b0390caf130cb76e956f406d69b4f9f70c8ecb03778e4a8387025b0247304402206dbc2f7cd414f6d984c7e56bb1071f2f49faddc14d6e7ad5af2fe358974a772d02201555c08affb5879e0d91ddf369f422b66ea508d276d4ce93f23fe0209154f1ce012103dab2716f7e8e9b45c6143256117d0a3cbc658cd5656abb573154d7e719c051bb0247304402204233f72c7c10fd9fb44e82d5a2c7529ba99b26d3cdc24cc99b7b2c00154f776802207421bd66443adc4c17b490e16bd1824c35274de698017bad963e41aa8725f23b012102f3dfee81facec7126ca335aeab7b57f69ea3b222487c8604417dbeb150b5fa6a0247304402202357f0a84687eaf7efc4b4227a9f418a09fd4c8507a4c159c3b186a495406cb9022043d2e628e7a7099a18a78175ad771f765138a2b57e120ecac4b8c56a7947e1db012103abf41c7f0d58a5e0e716e0c3dc59b05f25ffeb788f3aa487ba8f4ada86ddf7280247304402206ac03fb8cce8ca7fae25cd101ca9e79e7df179a8a3ada3780610c1c2a03c7a6602207d6c2156e9a38ece21cebbb21e0bdfc5101c1aea3ac5806bf4508074cdc8d116012102bf1ec8c77c1016622ccb8b7404f732a49a41a1484e4311213e9805c981a38d9f02473044022028a1b5b97dc442280fcb51ee03fe05b5f78e8e4faa91e102943be4c0271ae56702202329c79c2740dcd697f515bdbab8ef755a3e2244698c9396a7e3cde820c562d7012103b142fd7c1d2e538a97634390e6e4d964f6de1dc72e260d6d93e9cf28b38da6770247304402202ab570c26852f0f3f3e52da3b0c9ff7911c507732496749111c56f90e514980f02206f01fe248867e49f2627b1083cdf39df19047630e056daf91fef24d8bc44a549012102673c6f7452f501cb68fb9939cccedd814a9a58ad948b4258cfb76881053d104c024730440220776e3e9eeed3e8bb52cdf1f566410521b731716d8b37cd7dfe62fbf11ac2cd8202205d2e1ecedb04f2b14d883a20eca8bd0c1ad74a07a7dbdf355f201fd2b359a1d5012103a2af28d3641e7071d0171308a28e213b44ad68338490ee6188f621ccdaf374c40247304402204116278dc4156badbe51cafe846b8a113463d6d2d0a398f3397c621a404f0eaf02203004c34483f298658d409832873ebd46f1d76c92ffc6564e892e849992cea0530121023b0751a7abc7033f84e67880d96557ce3566c7b18402da34b2a24776775d14da02473044022012c30cb87b7dfd4cd92fb876177895a617438294e22a1f447378c0205d6c3473022023b0e5fa2f69f45b784415cc07680465bbdf0f479516497f0efd75bdd03902bd012102bd07c5b0a849feb6d28ae78f755a63d7257efe745728bb3bd8d6d7772aad1630024730440220629d38863c4ab07aeea9ce460cb04723d4eb22c81ab4c22020dad52847932acb02207a780d79a9e5e5418fdaba116775631f5260d8ea009375843fdaab99621a33880121026bcfd10f52f9f942b069e36dea71687670ecbe7f171882d8da57834dd32b36a20247304402200d2bbc94c0c130e2c7986aba1dbb2e0d617f9ce6d965ca612e76f221c6c899a90220565c265057a4ba835ab5d86f710e5e1ea0657fa03b0df6b8582a8a0efd45daeb012103d1438cd983232053da29f46a336de9500cd9014174de130b0c84f735d691f7cc0247304402201ee41027b93ca6c651b0699526963420130bb85d7224de91c146d89b6b59d89a02206a23cb36aa1dc1b1b5c9032df3d5eebb1399e846f474d7d4b74670db88d68bda012102e1172039dabd75dca2f8d106a2e5cc1dd2fe42edc37b5f254db6d8378960753c02473044022079e4827c0de61baf4b2153aa5f8194af02bb229c3ba1aac4ccfdcca9e0eb3df10220099dba574307a6cf43e5f23c28b1a7c904147512b9c925bbe1b396491e946601012103f3e0f405417f0c7fbe3e97bf74707bd4dc4c6564487ff4039d1da97c90a9f18d024730440220222d9add4eb3140b630c36bceaa8cc46ce483e7d33571712eb240f08ea04f4b6022026c590d0972a05a948564d64f518d8046d0a11afdaaac73adb1f76012f9a51e70121035d2e412b2be34a006fba2f38bbd295bd3003d34654520dc985bfa7ab968f8651024730440220603c48ca02d31b105b950e44117ca5cce7dc894f58e443e22c1b72c17b3d071c02203e021fbcece707c43f33fa438edc4f8b1f9c05123831984c224e973cc290c9e401210206e77db039f567803c672efe9a916b1fc332e8ebb4ffa9de3e5f5a32bb1239fd02473044022007d5f357bec5179523e9b0b17556a573e63a4f4aa28ff640a1f91a357756198e022016587dc1d1363f4109b2a14e7fc17e530a79ac1f757a7a4e4691bd12bfaab672012102dc37062fa08299b81d1f76452ac2fedb73b495e1d737857c47f7a48e3195a7d70247304402203d7bd8fca383f049340c883f400b47ed618e91f885fe2f12754a95fcfbcaa7210220212d14095dadc78b6d8cffc5ac606f7762bcb6cb937d1d6cfb90e242e92e74db012103b1e3c45404310ba5eb0bf4019daa082cfb744cd724d35559ec1baf831bebdd9f0247304402205d936b266d6735eeb08643cc9cad48bd5c8eca06517a734f7f99318d9c72430302204f170c531a50a3d5b8a666bf39e7ec0a0a1ac309ed5daaaca9eea8fdc5a20b73012103f3e6d471e44a2c54acc81ed12fd64cb07b690e83c0b60dec63f4296dfdb118e9024730440220480a83ea4eaf36a90a19ac5895b620e73ce857847f1273cf1afe82981794eaef022064608f645630f9c0312a25d0ad068179538967ddf85d3349d54e5faad2335b250121030706178ee41f604cad9be7295308223534c291eacec14a57cf862aa5af39459802473044022045d03e93e672c512b07d994cd087783c1b263f6169eb5e7c18c4e8692c1cfd9d02201e52995b287d35538cbe534dff62d54e2a83e689bc1f2cdc4d10cc2d9acabe650121037f83a3f2319a14e64a56f8cf0293c0d4d46521d4407ae804eca4063909893ac60247304402206f4d9bfc7bf2fabcdf23d132ba3d9f563b4d54865595429ba3fed3635126f22102205d8dffe0eb44316372bc4ac29f35d36d5d23ed3127d039215c142555cf5c6b11012103d85fad65f10153a7b9cc31af60f63ca14536b66eb248f1fd382043ecfc0371a502473044022064259ae6cf361cfb06f6ccadb2e057aa6e82af0b098c5002dc0be4665a63647802202adf49d2a9a8b6079e8a8917739ea844503645d26af983bad4db357f7fd4cd81012102af9d415f29b152e06f1312b3add22717c55c72d633b726dd77a770cc9192388f0247304402205bea0b6501c5ae1712cf5a14faad0e63b9d1c1ef5a7238d00249ea8b8941e013022037eb5e279463ccb6779d6bc2d0eef8a472aa711b4df06d5bd2f3bef1492f83880121028ccb2414da1c839e71ab5ebac797e6345b66bfad4a3d7eba6feaecd8f6562dae0247304402202ca36c5d603dc3a879fc77ac934e64c1c605de3a6ccc9360bbe37fd2f1623cc0022001a20363130c99b59d6e5cb22322cbc8786e9c7599fa9a8c1be760047c55157c01210261cf9a6bbf09e8a5b238025bc991fde264e7eb873c105b28db9af4fb649291659ebb0c00"
}