{
  "txid": "ee80a3b899c5019df6aec80214bca901edf7d6baa83e4e74c7d254bde9f41297",
  "version": 1,
  "locktime": 0,
  "vin": [
    {
      "txid": "49204e02ce7497119f8725555f86279e49fdca9dd8a7e220907ce9b42e1ce2f1",
      "vout": 0,
      "prevout": {
        "scriptpubkey": "76a9144fd769d8f7a28a5e3c25bb12a18bdda799b61bba88ac",
        "scriptpubkey_asm": "OP_DUP OP_HASH160 OP_PUSHBYTES_20 4fd769d8f7a28a5e3c25bb12a18bdda799b61bba OP_EQUALVERIFY OP_CHECKSIG",
        "scriptpubkey_type": "p2pkh",
        "scriptpubkey_address": "18HASLzVWT3RhiUaym8PNBavmDHXobJ2Ud",
        "value": 7067279
      },
      "scriptsig": "483045022100d5b8e8b259819a8eac0095598ba77d2ff5cfc06d70991896a407cf563cfe19f30220047c27bf0ce6f8f249b337559339cef4633f0ef16299e1ddd863008131239cfd012102f81a46e5943a9f985b5a45978c082c57e258b059d2555bfafad69d249f1839ce",
      "scriptsig_asm": "OP_PUSHBYTES_72 3045022100d5b8e8b259819a8eac0095598ba77d2ff5cfc06d70991896a407cf563cfe19f30220047c27bf0ce6f8f249b337559339cef4633f0ef16299e1ddd863008131239cfd01 OP_PUSHBYTES_33 02f81a46e5943a9f985b5a45978c082c57e258b059d2555bfafad69d249f1839ce",
      "is_coinbase": false,
      "sequence": 4294967295
    }
  ],
  "vout": [
    {
      "scriptpubkey": "76a914108d03c9ab2cea0d0dea4b5225bbf30e3312b08688ac",
      "scriptpubkey_asm": "OP_DUP OP_HASH160 OP_PUSHBYTES_20 108d03c9ab2cea0d0dea4b5225bbf30e3312b086 OP_EQUALVERIFY OP_CHECKSIG",
      "scriptpubkey_type": "p2pkh",
      "scriptpubkey_address": "12WWjx3hiCAW3Qaoquqvko2fH6oA9VGoE2",
      "value": 6362162
    },
    {
      "scriptpubkey": "a914375a2e578897ba46dbc8b586e4619737cf348dce87",
      "scriptpubkey_asm": "OP_HASH160 OP_PUSHBYTES_20 375a2e578897ba46dbc8b586e4619737cf348dce OP_EQUAL",
      "scriptpubkey_type": "p2sh",
      "scriptpubkey_address": "36jh7ytudMiBJN41AKH1xfoUerdCXfzigT",
      "value": 701981
    }
  ],
  "size": 224,
  "weight": 896,
  "fee": 3136,
  "status": {
    "confirmed": true,
    "block_height": 834460,
    "block_hash": "00000000000000000000484a79b643b2524bbce82e5d8a442013fa5b8905ed98",
    "block_time": 1710307468
  },
  "hex": "0100000001f1e21c2eb4e97c9020e2a7d89dcafd499e27865f5525879f119774ce024e2049000000006b483045022100d5b8e8b259819a8eac0095598ba77d2ff5cfc06d70991896a407cf563cfe19f30220047c27bf0ce6f8f249b337559339cef4633f0ef16299e1ddd863008131239cfd012102f81a46e5943a9f985b5a45978c082c57e258b059d2555bfafad69d249f1839ceffffffff0232146100000000001976a914108d03c9ab2cea0d0dea4b5225bbf30e3312b08688ac1db60a000000000017a914375a2e578897ba46dbc8b586e4619737cf348dce8700000000"
}