{
  "txid": "ee967636de2477ea0410a16c7526509f2902d52ed1cce379f64256f0f3549d50",
  "version": 1,
  "locktime": 0,
  "vin": [
    {
      "txid": "c992c7f1978847963838f37fbea858d42e3fa4e24f94250e77ce9878817b6e27",
      "vout": 0,
      "prevout": {
        "scriptpubkey": "51200f04bccb7feeebf3b772d143239901caa336e2a5081758574623b17081eec682",
        "scriptpubkey_asm": "OP_PUSHNUM_1 OP_PUSHBYTES_32 0f04bccb7feeebf3b772d143239901caa336e2a5081758574623b17081eec682",
        "scriptpubkey_type": "v1_p2tr",
        "scriptpubkey_address": "bc1ppuztejmlam4l8dmj69pj8xgpe23ndc49pqt4s46xywchpq0wc6pqh5mc6a",
        "value": 2568
      },
      "scriptsig": "",
      "scriptsig_asm": "",
      "witness": [
        "6cde294ad8c2086fc2cdfa06cfb06086f2ab9c9f76a785681b3edbb195616eda38877ef66ce55593083033edbba7bc1ce0b90746f2aa5bc8c95ff00b3a2120d883",
        "20be11f1d0580232188e877ef283eb5a1efd4e9e5290a2633605d666f59ad3fff2ac00630461746f6d03646d742ca16461726773a36b6d696e745f7469636b657263627463656e6f6e63651a0031b9596474696d651a65ef26eb68",
        "c1be11f1d0580232188e877ef283eb5a1efd4e9e5290a2633605d666f59ad3fff2"
      ],
      "is_coinbase": false,
      "sequence": 4294967293
    }
  ],
  "vout": [
    {
      "scriptpubkey": "51209d6dbbf9bad17d0135e06ea56ec304df985f9f9bc809fa52ae6789a0947e0300",
      "scriptpubkey_asm": "OP_PUSHNUM_1 OP_PUSHBYTES_32 9d6dbbf9bad17d0135e06ea56ec304df985f9f9bc809fa52ae6789a0947e0300",
      "scriptpubkey_type": "v1_p2tr",
      "scriptpubkey_address": "bc1pn4kmh7d6697szd0qd6jkascym7v9l8umeqyl554wv7y6p9r7qvqquzkndh",
      "value": 1000
    }
  ],
  "size": 289,
  "weight": 571,
  "fee": 1568,
  "status": {
    "confirmed": true,
    "block_height": 834464,
    "block_hash": "0000000000000000000177a0869a911a2b65c9bdcd5a8bcb02b68f305bee848e",
    "block_time": 1710308296
  },
  "hex": "01000000000101276e7b817898ce770e25944fe2a43f2ed458a8be7ff3383896478897f1c792c90000000000fdffffff01e8030000000000002251209d6dbbf9bad17d0135e06ea56ec304df985f9f9bc809fa52ae6789a0947e030003416cde294ad8c2086fc2cdfa06cfb06086f2ab9c9f76a785681b3edbb195616eda38877ef66ce55593083033edbba7bc1ce0b90746f2aa5bc8c95ff00b3a2120d8835b20be11f1d0580232188e877ef283eb5a1efd4e9e5290a2633605d666f59ad3fff2ac00630461746f6d03646d742ca16461726773a36b6d696e745f7469636b657263627463656e6f6e63651a0031b9596474696d651a65ef26eb6821c1be11f1d0580232188e877ef283eb5a1efd4e9e5290a2633605d666f59ad3fff200000000"
}