{
  "txid": "ee967c6d8d73bcc91e49c269d94f96eaa8eea5dceb2a1457c0bd1987682fc5ca",
  "version": 2,
  "locktime": 0,
  "vin": [
    {
      "txid": "4b47e9a29f1da5e6741409c07927b6ba1f2b240072230b697f7dbc230b536e55",
      "vout": 31,
      "prevout": {
        "scriptpubkey": "0014d721ab0133b67c1cb5e3140e14da0ee0ba0ed705",
        "scriptpubkey_asm": "OP_0 OP_PUSHBYTES_20 d721ab0133b67c1cb5e3140e14da0ee0ba0ed705",
        "scriptpubkey_type": "v0_p2wpkh",
        "scriptpubkey_address": "bc1q6us6kqfnke7ped0rzs8pfkswuzaqa4c9lgvws5",
        "value": 534428
      },
      "scriptsig": "",
      "scriptsig_asm": "",
      "witness": [
        "3045022100c9a7c773e39726e603a69accbe5e474e5eb74216f3d17393055a73d117f5042002204ac80044eb05024fad6ab1e9868e2ac946956fd4f99954c06fb88d94b03bacff01",
        "024513c785aaf56571b9c638ce155df075b291566228b28bc205c68151be90b789"
      ],
      "is_coinbase": false,
      "sequence": 4294967293
    }
  ],
  "vout": [
    {
      "scriptpubkey": "76a9147a0022469570c6ee6985ef523cef05589746231188ac",
      "scriptpubkey_asm": "OP_DUP OP_HASH160 OP_PUSHBYTES_20 7a0022469570c6ee6985ef523cef055897462311 OP_EQUALVERIFY OP_CHECKSIG",
      "scriptpubkey_type": "p2pkh",
      "scriptpubkey_address": "1C85bhxPA5L2sFJ8gdiozWZ1BatZmHKLAz",
      "value": 532519
    }
  ],
  "size": 195,
  "weight": 450,
  "fee": 1909,
  "status": {
    "confirmed": true,
    "block_height": 834638,
    "block_hash": "000000000000000000025f742c626208ac87e0b7d15054abb4a19ca2d735a54e",
    "block_time": 1710405325
  },
  "hex": "02000000000101556e530b23bc7d7f690b237200242b1fbab62779c0091474e6a51d9fa2e9474b1f00000000fdffffff0127200800000000001976a9147a0022469570c6ee6985ef523cef05589746231188ac02483045022100c9a7c773e39726e603a69accbe5e474e5eb74216f3d17393055a73d117f5042002204ac80044eb05024fad6ab1e9868e2ac946956fd4f99954c06fb88d94b03bacff0121024513c785aaf56571b9c638ce155df075b291566228b28bc205c68151be90b78900000000"
}