{
  "txid": "eeaa8016aca0c26808e8b409b3c2c04572e121f7fab8f02dcd6b39abc7894fa8",
  "version": 1,
  "locktime": 0,
  "vin": [
    {
      "txid": "cba5a7d5a96414eda0c45700b2e18e646634ecf9a9d115457dc7e816cb750846",
      "vout": 1,
      "prevout": {
        "scriptpubkey": "0014305035964d51fd6c24e5d2ec190e61b88924773b",
        "scriptpubkey_asm": "OP_0 OP_PUSHBYTES_20 305035964d51fd6c24e5d2ec190e61b88924773b",
        "scriptpubkey_type": "v0_p2wpkh",
        "scriptpubkey_address": "bc1qxpgrt9jd287kcf896tkpjrnphzyjgaemvgm654",
        "value": 6376
      },
      "scriptsig": "",
      "scriptsig_asm": "",
      "witness": [
        "3045022100ad3fe5e1f6b5c79d102541397bee2e8685c40907cb954dbb6d2fe647c39b0c9402202a56a8c360defa4cf4d1c2bfbe4f05eb59693bc56f50c7ba60207165907ff3dd01",
        "0215281f20a26ebc1352091ad98c77931d82e0acc8aa69fcea7dbdb3d7ca2c1c0d"
      ],
      "is_coinbase": false,
      "sequence": 4294967295
    },
    {
      "txid": "d9937ce035a59ba7629b8f4ef0ef854a52481bb615955dbd5368b59b3d8f01a3",
      "vout": 0,
      "prevout": {
        "scriptpubkey": "001403245442d562b04da7f0bbf17255cc3e2a97fc44",
        "scriptpubkey_asm": "OP_0 OP_PUSHBYTES_20 03245442d562b04da7f0bbf17255cc3e2a97fc44",
        "scriptpubkey_type": "v0_p2wpkh",
        "scriptpubkey_address": "bc1qqvj9gsk4v2cymflsh0chy4wv8c4f0lzy8pyyye",
        "value": 382935
      },
      "scriptsig": "",
      "scriptsig_asm": "",
      "witness": [
        "3045022100ea902cb8e7279ae2ec49e04154406c032446d8184dcbd48129ff79ef33a7c43202203f84565f717c7f4eac544316084517e3d9fc6af310b77706d2b50897080ed14401",
        "0323997bcfd4fad9f720fa4362a4f2503e27577e8ec622166d9ddc77f0d53a89b5"
      ],
      "is_coinbase": false,
      "sequence": 4294967295
    }
  ],
  "vout": [
    {
      "scriptpubkey": "00141dbfcc8782edd8af47d10275080bf98e82de0ef1",
      "scriptpubkey_asm": "OP_0 OP_PUSHBYTES_20 1dbfcc8782edd8af47d10275080bf98e82de0ef1",
      "scriptpubkey_type": "v0_p2wpkh",
      "scriptpubkey_address": "bc1qrkluepuzahv27373qf6sszle36pdurh3gvsmjd",
      "value": 383238
    },
    {
      "scriptpubkey": "0014b3d4d5d71e9cade844431c80a47ad22ccceb26aa",
      "scriptpubkey_asm": "OP_0 OP_PUSHBYTES_20 b3d4d5d71e9cade844431c80a47ad22ccceb26aa",
      "scriptpubkey_type": "v0_p2wpkh",
      "scriptpubkey_address": "bc1qk02dt4c7njk7s3zrrjq2g7kj9nxwkf422ermez",
      "value": 2959
    }
  ],
  "size": 372,
  "weight": 834,
  "fee": 3114,
  "status": {
    "confirmed": true,
    "block_height": 834638,
    "block_hash": "000000000000000000025f742c626208ac87e0b7d15054abb4a19ca2d735a54e",
    "block_time": 1710405325
  },
  "hex": "01000000000102460875cb16e8c77d4515d1a9f9ec3466648ee1b20057c4a0ed1464a9d5a7a5cb0100000000ffffffffa3018f3d9bb56853bd5d9515b61b48524a85eff04e8f9b62a79ba535e07c93d90000000000ffffffff0206d90500000000001600141dbfcc8782edd8af47d10275080bf98e82de0ef18f0b000000000000160014b3d4d5d71e9cade844431c80a47ad22ccceb26aa02483045022100ad3fe5e1f6b5c79d102541397bee2e8685c40907cb954dbb6d2fe647c39b0c9402202a56a8c360defa4cf4d1c2bfbe4f05eb59693bc56f50c7ba60207165907ff3dd01210215281f20a26ebc1352091ad98c77931d82e0acc8aa69fcea7dbdb3d7ca2c1c0d02483045022100ea902cb8e7279ae2ec49e04154406c032446d8184dcbd48129ff79ef33a7c43202203f84565f717c7f4eac544316084517e3d9fc6af310b77706d2b50897080ed14401210323997bcfd4fad9f720fa4362a4f2503e27577e8ec622166d9ddc77f0d53a89b500000000"
}