{
  "txid": "eeaf5c3424b727d3847fbb4556bd96b7f985d57b6626c066d8af1c07308eb694",
  "version": 2,
  "locktime": 0,
  "vin": [
    {
      "txid": "482795f360bd19bd4eef8c9edfe8bf0d80a58aee68e0ebfc49ae28c7f6b7fcff",
      "vout": 19,
      "prevout": {
        "scriptpubkey": "a914ed3583e193ddc4423f553977e3e5f726a86dbff787",
        "scriptpubkey_asm": "OP_HASH160 OP_PUSHBYTES_20 ed3583e193ddc4423f553977e3e5f726a86dbff7 OP_EQUAL",
        "scriptpubkey_type": "p2sh",
        "scriptpubkey_address": "3PKGBJi3aBW79jiwerntFzNJvZVNwZ4pyf",
        "value": 1368184
      },
      "scriptsig": "16001497fb867d44cd39c6d8ba993223bfcd2d9ac33a8a",
      "scriptsig_asm": "OP_PUSHBYTES_22 001497fb867d44cd39c6d8ba993223bfcd2d9ac33a8a",
      "witness": [
        "3045022100f6f87f262f973f8d6f201af69e7fa897e255beb4e07a30d53cf127f937cabfae022060616737cae8625d242a21044ae2ecae01acfb146fb167115e4fc509924370e501",
        "036167aea99cf83701a82a9b0b66fd7707ca469b91b202f8ce12311ca9eaf174d9"
      ],
      "is_coinbase": false,
      "sequence": 4294967295,
      "inner_redeemscript_asm": "OP_0 OP_PUSHBYTES_20 97fb867d44cd39c6d8ba993223bfcd2d9ac33a8a"
    },
    {
      "txid": "7f0baf4ee590ad5b8d785279b32d33878a743e1152e8f9915d46709b3cbf3587",
      "vout": 96,
      "prevout": {
        "scriptpubkey": "a914ed3583e193ddc4423f553977e3e5f726a86dbff787",
        "scriptpubkey_asm": "OP_HASH160 OP_PUSHBYTES_20 ed3583e193ddc4423f553977e3e5f726a86dbff7 OP_EQUAL",
        "scriptpubkey_type": "p2sh",
        "scriptpubkey_address": "3PKGBJi3aBW79jiwerntFzNJvZVNwZ4pyf",
        "value": 1187338
      },
      "scriptsig": "16001497fb867d44cd39c6d8ba993223bfcd2d9ac33a8a",
      "scriptsig_asm": "OP_PUSHBYTES_22 001497fb867d44cd39c6d8ba993223bfcd2d9ac33a8a",
      "witness": [
        "3045022100d6286290f827e48346743e42d9cb7b7b6f03fed3de26af1f6460c17def7647cd02207294f613f732d6d5686d988dd62f9c7ad8d5815e29e96194f639b0079cd7efd201",
        "036167aea99cf83701a82a9b0b66fd7707ca469b91b202f8ce12311ca9eaf174d9"
      ],
      "is_coinbase": false,
      "sequence": 4294967295,
      "inner_redeemscript_asm": "OP_0 OP_PUSHBYTES_20 97fb867d44cd39c6d8ba993223bfcd2d9ac33a8a"
    },
    {
      "txid": "e70f5b68641fd776cf98ee0c4a63c48bd27cbdfacc516d3b2c7f152d4b11231b",
      "vout": 30,
      "prevout": {
        "scriptpubkey": "a914ed3583e193ddc4423f553977e3e5f726a86dbff787",
        "scriptpubkey_asm": "OP_HASH160 OP_PUSHBYTES_20 ed3583e193ddc4423f553977e3e5f726a86dbff7 OP_EQUAL",
        "scriptpubkey_type": "p2sh",
        "scriptpubkey_address": "3PKGBJi3aBW79jiwerntFzNJvZVNwZ4pyf",
        "value": 601633
      },
      "scriptsig": "16001497fb867d44cd39c6d8ba993223bfcd2d9ac33a8a",
      "scriptsig_asm": "OP_PUSHBYTES_22 001497fb867d44cd39c6d8ba993223bfcd2d9ac33a8a",
      "witness": [
        "3045022100aa8a616182032a1be29b31fa30b0d8fd5c361d5c111fbbbd760298fb8c51c6ca02206018d23514683fc023a125c2855d60401fa0a5a23560b8be06081f564a8e93af01",
        "036167aea99cf83701a82a9b0b66fd7707ca469b91b202f8ce12311ca9eaf174d9"
      ],
      "is_coinbase": false,
      "sequence": 4294967295,
      "inner_redeemscript_asm": "OP_0 OP_PUSHBYTES_20 97fb867d44cd39c6d8ba993223bfcd2d9ac33a8a"
    },
    {
      "txid": "b957fef4a4cf4915179c73549f8eb0fddeb8fbd08f026a8e28446111ed3ef507",
      "vout": 178,
      "prevout": {
        "scriptpubkey": "a914ed3583e193ddc4423f553977e3e5f726a86dbff787",
        "scriptpubkey_asm": "OP_HASH160 OP_PUSHBYTES_20 ed3583e193ddc4423f553977e3e5f726a86dbff7 OP_EQUAL",
        "scriptpubkey_type": "p2sh",
        "scriptpubkey_address": "3PKGBJi3aBW79jiwerntFzNJvZVNwZ4pyf",
        "value": 267734
      },
      "scriptsig": "16001497fb867d44cd39c6d8ba993223bfcd2d9ac33a8a",
      "scriptsig_asm": "OP_PUSHBYTES_22 001497fb867d44cd39c6d8ba993223bfcd2d9ac33a8a",
      "witness": [
        "30440220438fef2b7d35ad2d5a96a38fae559c6037fdb3fdbe8ff1e0100e7a75a9080e7702203173afa581b1b8e3ce3de61f99251f436857a244daeeee532ccd7573ece2c72a01",
        "036167aea99cf83701a82a9b0b66fd7707ca469b91b202f8ce12311ca9eaf174d9"
      ],
      "is_coinbase": false,
      "sequence": 4294967295,
      "inner_redeemscript_asm": "OP_0 OP_PUSHBYTES_20 97fb867d44cd39c6d8ba993223bfcd2d9ac33a8a"
    },
    {
      "txid": "308726a3568bafedc5119241b4f7fcbde1505a90e29c52eba49f3bc1dbbedb19",
      "vout": 133,
      "prevout": {
        "scriptpubkey": "a914ed3583e193ddc4423f553977e3e5f726a86dbff787",
        "scriptpubkey_asm": "OP_HASH160 OP_PUSHBYTES_20 ed3583e193ddc4423f553977e3e5f726a86dbff7 OP_EQUAL",
        "scriptpubkey_type": "p2sh",
        "scriptpubkey_address": "3PKGBJi3aBW79jiwerntFzNJvZVNwZ4pyf",
        "value": 265999
      },
      "scriptsig": "16001497fb867d44cd39c6d8ba993223bfcd2d9ac33a8a",
      "scriptsig_asm": "OP_PUSHBYTES_22 001497fb867d44cd39c6d8ba993223bfcd2d9ac33a8a",
      "witness": [
        "3045022100f649647dfabfdda87588ccf2f9c828f3dfbda80218888ee584e2918398a4222e022012a7de0975f3d5401a185b34fe38cd4d00a90bca72d43b9c466b34a9c4540f2501",
        "036167aea99cf83701a82a9b0b66fd7707ca469b91b202f8ce12311ca9eaf174d9"
      ],
      "is_coinbase": false,
      "sequence": 4294967295,
      "inner_redeemscript_asm": "OP_0 OP_PUSHBYTES_20 97fb867d44cd39c6d8ba993223bfcd2d9ac33a8a"
    },
    {
      "txid": "8f34c89d07f1f724596a7695bcb487179a5ebd052778f180cab3544f2a36b3c6",
      "vout": 89,
      "prevout": {
        "scriptpubkey": "a914ed3583e193ddc4423f553977e3e5f726a86dbff787",
        "scriptpubkey_asm": "OP_HASH160 OP_PUSHBYTES_20 ed3583e193ddc4423f553977e3e5f726a86dbff7 OP_EQUAL",
        "scriptpubkey_type": "p2sh",
        "scriptpubkey_address": "3PKGBJi3aBW79jiwerntFzNJvZVNwZ4pyf",
        "value": 231800
      },
      "scriptsig": "16001497fb867d44cd39c6d8ba993223bfcd2d9ac33a8a",
      "scriptsig_asm": "OP_PUSHBYTES_22 001497fb867d44cd39c6d8ba993223bfcd2d9ac33a8a",
      "witness": [
        "3044022071ebb814d270a16695c4f10395da4a9553f169bac10a2ba782ddb1cd2b95a44f02206ee6f3442c0eba272d186902b1d0b7f5bf7cbccba258e504f541c56db53245a701",
        "036167aea99cf83701a82a9b0b66fd7707ca469b91b202f8ce12311ca9eaf174d9"
      ],
      "is_coinbase": false,
      "sequence": 4294967295,
      "inner_redeemscript_asm": "OP_0 OP_PUSHBYTES_20 97fb867d44cd39c6d8ba993223bfcd2d9ac33a8a"
    }
  ],
  "vout": [
    {
      "scriptpubkey": "a914e1e60daf4db79d69e37e8f718d494590b587ec0887",
      "scriptpubkey_asm": "OP_HASH160 OP_PUSHBYTES_20 e1e60daf4db79d69e37e8f718d494590b587ec08 OP_EQUAL",
      "scriptpubkey_type": "p2sh",
      "scriptpubkey_address": "3NHTZ6kWhhiKfVVfHejsAB7d6YRFMRFesh",
      "value": 3913883
    }
  ],
  "size": 1074,
  "weight": 2352,
  "fee": 8805,
  "status": {
    "confirmed": true,
    "block_height": 834638,
    "block_hash": "000000000000000000025f742c626208ac87e0b7d15054abb4a19ca2d735a54e",
    "block_time": 1710405325
  },
  "hex": "02000000000106fffcb7f6c728ae49fcebe068ee8aa5800dbfe8df9e8cef4ebd19bd60f3952748130000001716001497fb867d44cd39c6d8ba993223bfcd2d9ac33a8affffffff8735bf3c9b70465d91f9e852113e748a87332db37952788d5bad90e54eaf0b7f600000001716001497fb867d44cd39c6d8ba993223bfcd2d9ac33a8affffffff1b23114b2d157f2c3b6d51ccfabd7cd28bc4634a0cee98cf76d71f64685b0fe71e0000001716001497fb867d44cd39c6d8ba993223bfcd2d9ac33a8affffffff07f53eed116144288e6a028fd0fbb8defdb08e9f54739c171549cfa4f4fe57b9b20000001716001497fb867d44cd39c6d8ba993223bfcd2d9ac33a8affffffff19dbbedbc13b9fa4eb529ce2905a50e1bdfcf7b4419211c5edaf8b56a3268730850000001716001497fb867d44cd39c6d8ba993223bfcd2d9ac33a8affffffffc6b3362a4f54b3ca80f1782705bd5e9a1787b4bc95766a5924f7f1079dc8348f590000001716001497fb867d44cd39c6d8ba993223bfcd2d9ac33a8affffffff019bb83b000000000017a914e1e60daf4db79d69e37e8f718d494590b587ec088702483045022100f6f87f262f973f8d6f201af69e7fa897e255beb4e07a30d53cf127f937cabfae022060616737cae8625d242a21044ae2ecae01acfb146fb167115e4fc509924370e50121036167aea99cf83701a82a9b0b66fd7707ca469b91b202f8ce12311ca9eaf174d902483045022100d6286290f827e48346743e42d9cb7b7b6f03fed3de26af1f6460c17def7647cd02207294f613f732d6d5686d988dd62f9c7ad8d5815e29e96194f639b0079cd7efd20121036167aea99cf83701a82a9b0b66fd7707ca469b91b202f8ce12311ca9eaf174d902483045022100aa8a616182032a1be29b31fa30b0d8fd5c361d5c111fbbbd760298fb8c51c6ca02206018d23514683fc023a125c2855d60401fa0a5a23560b8be06081f564a8e93af0121036167aea99cf83701a82a9b0b66fd7707ca469b91b202f8ce12311ca9eaf174d9024730440220438fef2b7d35ad2d5a96a38fae559c6037fdb3fdbe8ff1e0100e7a75a9080e7702203173afa581b1b8e3ce3de61f99251f436857a244daeeee532ccd7573ece2c72a0121036167aea99cf83701a82a9b0b66fd7707ca469b91b202f8ce12311ca9eaf174d902483045022100f649647dfabfdda87588ccf2f9c828f3dfbda80218888ee584e2918398a4222e022012a7de0975f3d5401a185b34fe38cd4d00a90bca72d43b9c466b34a9c4540f250121036167aea99cf83701a82a9b0b66fd7707ca469b91b202f8ce12311ca9eaf174d902473044022071ebb814d270a16695c4f10395da4a9553f169bac10a2ba782ddb1cd2b95a44f02206ee6f3442c0eba272d186902b1d0b7f5bf7cbccba258e504f541c56db53245a70121036167aea99cf83701a82a9b0b66fd7707ca469b91b202f8ce12311ca9eaf174d900000000"
}