{
  "txid": "eeb00996a4acc6d9e23d49272da68a6a0089e98e0503e4b383616ec40df8c152",
  "version": 1,
  "locktime": 0,
  "vin": [
    {
      "txid": "baa8aa8487c0e714a3fe0e5ca68d7d46c5c13c09a827b3a0ea88254ec7a3c942",
      "vout": 17,
      "prevout": {
        "scriptpubkey": "0014d004b2dd1676b920272c9d7c9570b515a487f127",
        "scriptpubkey_asm": "OP_0 OP_PUSHBYTES_20 d004b2dd1676b920272c9d7c9570b515a487f127",
        "scriptpubkey_type": "v0_p2wpkh",
        "scriptpubkey_address": "bc1q6qzt9hgkw6ujqfevn47f2u94zkjg0uf8szessl",
        "value": 1202225
      },
      "scriptsig": "",
      "scriptsig_asm": "",
      "witness": [
        "3045022100a905a6c3298db472255f045d421c8071596ac1d2d4b09e433e9ff3aef4a4f02702201c7f1327943ce34e37654f304b4f7c3ce561fef7f39ffb417cc43fbc9333355101",
        "0259ff19215cfa097bdb95ec5a5516f90514263bf527fd8bcb1b1f767326152597"
      ],
      "is_coinbase": false,
      "sequence": 4294967295
    }
  ],
  "vout": [
    {
      "scriptpubkey": "76a914b43c572e47691300eb5a18edbe43fe8c2276034d88ac",
      "scriptpubkey_asm": "OP_DUP OP_HASH160 OP_PUSHBYTES_20 b43c572e47691300eb5a18edbe43fe8c2276034d OP_EQUALVERIFY OP_CHECKSIG",
      "scriptpubkey_type": "p2pkh",
      "scriptpubkey_address": "1HRzv4jayXcazytky2hieK41n1Yp1EkVvZ",
      "value": 355910
    },
    {
      "scriptpubkey": "00142bc7326849838f16bc2e2eba68166e96a961fd58",
      "scriptpubkey_asm": "OP_0 OP_PUSHBYTES_20 2bc7326849838f16bc2e2eba68166e96a961fd58",
      "scriptpubkey_type": "v0_p2wpkh",
      "scriptpubkey_address": "bc1q90rny6zfsw83d0pw96axs9nwj65krl2cnepnqn",
      "value": 844110
    }
  ],
  "size": 226,
  "weight": 574,
  "fee": 2205,
  "status": {
    "confirmed": true,
    "block_height": 834460,
    "block_hash": "00000000000000000000484a79b643b2524bbce82e5d8a442013fa5b8905ed98",
    "block_time": 1710307468
  },
  "hex": "0100000000010142c9a3c74e2588eaa0b327a8093cc1c5467d8da65c0efea314e7c08784aaa8ba1100000000ffffffff02466e0500000000001976a914b43c572e47691300eb5a18edbe43fe8c2276034d88ac4ee10c00000000001600142bc7326849838f16bc2e2eba68166e96a961fd5802483045022100a905a6c3298db472255f045d421c8071596ac1d2d4b09e433e9ff3aef4a4f02702201c7f1327943ce34e37654f304b4f7c3ce561fef7f39ffb417cc43fbc9333355101210259ff19215cfa097bdb95ec5a5516f90514263bf527fd8bcb1b1f76732615259700000000"
}