{
  "txid": "eeb2c0c2b94144cfdacb3cb7ec7d072542eeef13052258f2f4642e2c2008f6d3",
  "version": 2,
  "locktime": 0,
  "vin": [
    {
      "txid": "60d1f65b7c56509489e319ef01f230d989aed738b9d00e9cc081314c3f87bdba",
      "vout": 2,
      "prevout": {
        "scriptpubkey": "512030714921b8642feab51d4a5fc88000479fe9cbb1d7da78019563a6a04729c89e",
        "scriptpubkey_asm": "OP_PUSHNUM_1 OP_PUSHBYTES_32 30714921b8642feab51d4a5fc88000479fe9cbb1d7da78019563a6a04729c89e",
        "scriptpubkey_type": "v1_p2tr",
        "scriptpubkey_address": "bc1pxpc5jgdcvsh74dgaff0u3qqqg707nja36ld8sqv4vwn2q3efez0qxrdft0",
        "value": 2622
      },
      "scriptsig": "",
      "scriptsig_asm": "",
      "witness": [
        "1d12841876d0a8cc39f4f29a924f58b88672527920e8da1259981356c4cc4d010354724d1f96435e1656c9e1a285ee10912b6ff75d78d716c3e54050b6cfbfb2",
        "20d8e9b8e4a359220c1e3c5a92a292b113b9cf4eb7645bb01dddadeacd6718ae28ac0063036f7264010118746578742f706c61696e3b636861727365743d7574662d38004c867b2270223a22746170222c226f70223a22646d742d6d696e74222c22646570223a22333962373532343338626533613435326464623731376230613635346233313662316164343661383139656234343831383933626337313331663738396539616930222c227469636b223a226e61746f776c73222c22626c6b223a22373037333133227d68",
        "c0d8e9b8e4a359220c1e3c5a92a292b113b9cf4eb7645bb01dddadeacd6718ae2826d0a8b06f590ef5d91238537512236f6e351b0506fb1c5135f5dd2910707c0b"
      ],
      "is_coinbase": false,
      "sequence": 4294967293
    }
  ],
  "vout": [
    {
      "scriptpubkey": "00148f116826799e30a71623494ca5cb50a7397e23cd",
      "scriptpubkey_asm": "OP_0 OP_PUSHBYTES_20 8f116826799e30a71623494ca5cb50a7397e23cd",
      "scriptpubkey_type": "v0_p2wpkh",
      "scriptpubkey_address": "bc1q3ugksfnencc2w93rf9x2tj6s5uuhug7d7qa0v0",
      "value": 546
    }
  ],
  "size": 422,
  "weight": 668,
  "fee": 2076,
  "status": {
    "confirmed": true,
    "block_height": 834460,
    "block_hash": "00000000000000000000484a79b643b2524bbce82e5d8a442013fa5b8905ed98",
    "block_time": 1710307468
  },
  "hex": "02000000000101babd873f4c3181c09c0ed0b938d7ae89d930f201ef19e3899450567c5bf6d1600200000000fdffffff0122020000000000001600148f116826799e30a71623494ca5cb50a7397e23cd03401d12841876d0a8cc39f4f29a924f58b88672527920e8da1259981356c4cc4d010354724d1f96435e1656c9e1a285ee10912b6ff75d78d716c3e54050b6cfbfb2cd20d8e9b8e4a359220c1e3c5a92a292b113b9cf4eb7645bb01dddadeacd6718ae28ac0063036f7264010118746578742f706c61696e3b636861727365743d7574662d38004c867b2270223a22746170222c226f70223a22646d742d6d696e74222c22646570223a22333962373532343338626533613435326464623731376230613635346233313662316164343661383139656234343831383933626337313331663738396539616930222c227469636b223a226e61746f776c73222c22626c6b223a22373037333133227d6841c0d8e9b8e4a359220c1e3c5a92a292b113b9cf4eb7645bb01dddadeacd6718ae2826d0a8b06f590ef5d91238537512236f6e351b0506fb1c5135f5dd2910707c0b00000000"
}