{
  "txid": "eeb2f90835be6a78b974e5604c1bbbdfafac2975ccf860dc6e29096a92a49629",
  "version": 2,
  "locktime": 0,
  "vin": [
    {
      "txid": "4ec75bc934da27bd34f45b6ba301404ba0d686381e37f46e37b305c37a10be35",
      "vout": 0,
      "prevout": {
        "scriptpubkey": "5120b657f1f0818d09709fbe23397f205d1e211e7e8e34a9d3a6d025efa7d3ec988b",
        "scriptpubkey_asm": "OP_PUSHNUM_1 OP_PUSHBYTES_32 b657f1f0818d09709fbe23397f205d1e211e7e8e34a9d3a6d025efa7d3ec988b",
        "scriptpubkey_type": "v1_p2tr",
        "scriptpubkey_address": "bc1pketlruyp35yhp8a7yvuh7gzarcs3ul5wxj5a8fksyhh605lvnz9sd22yre",
        "value": 3759
      },
      "scriptsig": "",
      "scriptsig_asm": "",
      "witness": [
        "5cb1e763c822e2bfa1facc894d9d5105b3aaf0c3f74de7023bc4f53a4fff53c854da5bd37ef652b7e935e41a2af579eaf610135c2109493ec3f146a7f873b591",
        "20f0e5d4b4c0f3f4ead1fd2e0dbd35fa741d7891e9d36625abb1fe5f5879986b96ac0063036f7264010118746578742f706c61696e3b636861727365743d7574662d38003d7b2270223a226272632d3230222c226f70223a227472616e73666572222c227469636b223a226c69676f222c22616d74223a223233303030303030227d68",
        "c1f0e5d4b4c0f3f4ead1fd2e0dbd35fa741d7891e9d36625abb1fe5f5879986b96"
      ],
      "is_coinbase": false,
      "sequence": 4294967293
    }
  ],
  "vout": [
    {
      "scriptpubkey": "5120bdb85409696713e03bddaf74ed4fc33055b10abe08142f21987d4f57fe517595",
      "scriptpubkey_asm": "OP_PUSHNUM_1 OP_PUSHBYTES_32 bdb85409696713e03bddaf74ed4fc33055b10abe08142f21987d4f57fe517595",
      "scriptpubkey_type": "v1_p2tr",
      "scriptpubkey_address": "bc1phku9gztfvuf7qw7a4a6w6n7rxp2mzz47pq2z7gvc04840lj3wk2setq5gf",
      "value": 546
    }
  ],
  "size": 328,
  "weight": 610,
  "fee": 3213,
  "status": {
    "confirmed": true,
    "block_height": 834460,
    "block_hash": "00000000000000000000484a79b643b2524bbce82e5d8a442013fa5b8905ed98",
    "block_time": 1710307468
  },
  "hex": "0200000000010135be107ac305b3376ef4371e3886d6a04b4001a36b5bf434bd27da34c95bc74e0000000000fdffffff012202000000000000225120bdb85409696713e03bddaf74ed4fc33055b10abe08142f21987d4f57fe51759503405cb1e763c822e2bfa1facc894d9d5105b3aaf0c3f74de7023bc4f53a4fff53c854da5bd37ef652b7e935e41a2af579eaf610135c2109493ec3f146a7f873b5918320f0e5d4b4c0f3f4ead1fd2e0dbd35fa741d7891e9d36625abb1fe5f5879986b96ac0063036f7264010118746578742f706c61696e3b636861727365743d7574662d38003d7b2270223a226272632d3230222c226f70223a227472616e73666572222c227469636b223a226c69676f222c22616d74223a223233303030303030227d6821c1f0e5d4b4c0f3f4ead1fd2e0dbd35fa741d7891e9d36625abb1fe5f5879986b9600000000"
}