{
  "txid": "eec17afc7e1d454a29dfc9b1c33287fcceeaed8745df8947f3938031e357b95b",
  "version": 2,
  "locktime": 834637,
  "vin": [
    {
      "txid": "975258d2c45a91a46b28f7edb3bcdabc9ce7a5c646f0bc1e76ff66d558df8be2",
      "vout": 1,
      "prevout": {
        "scriptpubkey": "0014223b6a16f03d4671cdfb416ff01c376ed43196b4",
        "scriptpubkey_asm": "OP_0 OP_PUSHBYTES_20 223b6a16f03d4671cdfb416ff01c376ed43196b4",
        "scriptpubkey_type": "v0_p2wpkh",
        "scriptpubkey_address": "bc1qygak59hs84r8rn0mg9hlq8phdm2rr945mrlaqt",
        "value": 237988100
      },
      "scriptsig": "",
      "scriptsig_asm": "",
      "witness": [
        "304402204a0591b74d91970a4da00a44d818966d390183a68059cadaac134c4b0615b32f02201be5da91e3100bd08a4dc6f4b0e72a4f29a788a0258eefa6e199c9cbf59bb10401",
        "023024b4a593de007f0bef47319f33a50637d090d32d03a3b5c376cdcb838e9d22"
      ],
      "is_coinbase": false,
      "sequence": 4294967293
    }
  ],
  "vout": [
    {
      "scriptpubkey": "a9145d6c961bae4ef4cc6a5d0808b735216e56b5416a87",
      "scriptpubkey_asm": "OP_HASH160 OP_PUSHBYTES_20 5d6c961bae4ef4cc6a5d0808b735216e56b5416a OP_EQUAL",
      "scriptpubkey_type": "p2sh",
      "scriptpubkey_address": "3ACzr6YzkXSScLkQCLvRLhukGtUbqAhcF7",
      "value": 84000000
    },
    {
      "scriptpubkey": "0014af79094d8e42d2288829adf8e3b5f458ebbe37f4",
      "scriptpubkey_asm": "OP_0 OP_PUSHBYTES_20 af79094d8e42d2288829adf8e3b5f458ebbe37f4",
      "scriptpubkey_type": "v0_p2wpkh",
      "scriptpubkey_address": "bc1q4ausjnvwgtfz3zpf4huw8d05tr4mudl5a9l4t6",
      "value": 153983800
    }
  ],
  "size": 223,
  "weight": 565,
  "fee": 4300,
  "status": {
    "confirmed": true,
    "block_height": 834638,
    "block_hash": "000000000000000000025f742c626208ac87e0b7d15054abb4a19ca2d735a54e",
    "block_time": 1710405325
  },
  "hex": "02000000000101e28bdf58d566ff761ebcf046c6a5e79cbcdabcb3edf7286ba4915ac4d25852970100000000fdffffff0200bd01050000000017a9145d6c961bae4ef4cc6a5d0808b735216e56b5416a87389b2d0900000000160014af79094d8e42d2288829adf8e3b5f458ebbe37f40247304402204a0591b74d91970a4da00a44d818966d390183a68059cadaac134c4b0615b32f02201be5da91e3100bd08a4dc6f4b0e72a4f29a788a0258eefa6e199c9cbf59bb1040121023024b4a593de007f0bef47319f33a50637d090d32d03a3b5c376cdcb838e9d224dbc0c00"
}