{
  "txid": "eef1f2d9d4f7cbaec3e50738aa2f25f75bcbe7ae80885129cf26dd61fcd2d684",
  "version": 2,
  "locktime": 834404,
  "vin": [
    {
      "txid": "83e3188dae1a015a0d2abbef89479a8456b343a5acc6c1a8bf1abd29651c53d5",
      "vout": 2,
      "prevout": {
        "scriptpubkey": "00142f44a9590815024112493a94fa9b4bdcba25e7bf",
        "scriptpubkey_asm": "OP_0 OP_PUSHBYTES_20 2f44a9590815024112493a94fa9b4bdcba25e7bf",
        "scriptpubkey_type": "v0_p2wpkh",
        "scriptpubkey_address": "bc1q9az2jkggz5pyzyjf82204x6tmjaztealqlr5vp",
        "value": 33892
      },
      "scriptsig": "",
      "scriptsig_asm": "",
      "witness": [
        "3044022055f773395676c3c644e0cc9e489b135349dd90932eb1ac21f7acfcf5953a2757022035782a6327d6a1a1a79e6f6e6c034e9e700094d6d93806f682456643087a070401",
        "0384e1d994e3fffd4660ef86677e070667c83d45aa3e656edccc7ca03b4a0ffb7e"
      ],
      "is_coinbase": false,
      "sequence": 4294967293
    },
    {
      "txid": "51f8063b28685d1368cba0c93e933695779d8ef7cbc8d338e5cdd61d12c6014b",
      "vout": 1,
      "prevout": {
        "scriptpubkey": "0014b32ea651616d20845fda295492a2b5c0ee49b37b",
        "scriptpubkey_asm": "OP_0 OP_PUSHBYTES_20 b32ea651616d20845fda295492a2b5c0ee49b37b",
        "scriptpubkey_type": "v0_p2wpkh",
        "scriptpubkey_address": "bc1qkvh2v5tpd5sggh76992f9g44crhynvmmqkd4z8",
        "value": 1002958
      },
      "scriptsig": "",
      "scriptsig_asm": "",
      "witness": [
        "3044022051f2e4fdeb56eb39d81efdc6f9493ba26d62604ea1c2db816f47412c695e511302205461638339ad1a765776f2dbe3eeb63fa53afbf5145b305ab2bdce57ab0d13cc01",
        "03ee04ec9082b0f49d1e22d8e5a27cdd89e381ce2439d6d99b08aa68f471719749"
      ],
      "is_coinbase": false,
      "sequence": 4294967293
    }
  ],
  "vout": [
    {
      "scriptpubkey": "00142c40e7db847f054d27de954dd159f15fab7bb3a1",
      "scriptpubkey_asm": "OP_0 OP_PUSHBYTES_20 2c40e7db847f054d27de954dd159f15fab7bb3a1",
      "scriptpubkey_type": "v0_p2wpkh",
      "scriptpubkey_address": "bc1q93qw0kuy0uz56f77j4xazk03t74hhvap9c7n43",
      "value": 995931
    },
    {
      "scriptpubkey": "00143c682ba476c3db3f052ca5540fcfb877169848fa",
      "scriptpubkey_asm": "OP_0 OP_PUSHBYTES_20 3c682ba476c3db3f052ca5540fcfb877169848fa",
      "scriptpubkey_type": "v0_p2wpkh",
      "scriptpubkey_address": "bc1q835zhfrkc0dn7pfv542qlnacwutfsj867xwj8z",
      "value": 35845
    }
  ],
  "size": 370,
  "weight": 832,
  "fee": 5074,
  "status": {
    "confirmed": true,
    "block_height": 834460,
    "block_hash": "00000000000000000000484a79b643b2524bbce82e5d8a442013fa5b8905ed98",
    "block_time": 1710307468
  },
  "hex": "02000000000102d5531c6529bd1abfa8c1c6aca543b356849a4789efbb2a0d5a011aae8d18e3830200000000fdffffff4b01c6121dd6cde538d3c8cbf78e9d779536933ec9a0cb68135d68283b06f8510100000000fdffffff025b320f00000000001600142c40e7db847f054d27de954dd159f15fab7bb3a1058c0000000000001600143c682ba476c3db3f052ca5540fcfb877169848fa02473044022055f773395676c3c644e0cc9e489b135349dd90932eb1ac21f7acfcf5953a2757022035782a6327d6a1a1a79e6f6e6c034e9e700094d6d93806f682456643087a070401210384e1d994e3fffd4660ef86677e070667c83d45aa3e656edccc7ca03b4a0ffb7e02473044022051f2e4fdeb56eb39d81efdc6f9493ba26d62604ea1c2db816f47412c695e511302205461638339ad1a765776f2dbe3eeb63fa53afbf5145b305ab2bdce57ab0d13cc012103ee04ec9082b0f49d1e22d8e5a27cdd89e381ce2439d6d99b08aa68f47171974964bb0c00"
}