{
  "txid": "eeff905bc1556d393129ca90c28416c18925229b7d8c6087e44ff78a9ae9a164",
  "version": 2,
  "locktime": 0,
  "vin": [
    {
      "txid": "d46da67b49665a2ae7da51b2dfc68d83abf243ec0701413a2e16767213e66a81",
      "vout": 1,
      "prevout": {
        "scriptpubkey": "5120f098b52ae1ab8d5be1061669cb655ed651b5e7e7b081100d1e4f2530473f3430",
        "scriptpubkey_asm": "OP_PUSHNUM_1 OP_PUSHBYTES_32 f098b52ae1ab8d5be1061669cb655ed651b5e7e7b081100d1e4f2530473f3430",
        "scriptpubkey_type": "v1_p2tr",
        "scriptpubkey_address": "bc1p7zvt22hp4wx4hcgxze5uke276egmtel8kzq3qrg7fujnq3elxscqcmf746",
        "value": 140338
      },
      "scriptsig": "",
      "scriptsig_asm": "",
      "witness": [
        "c37143c2c0e043ec0730f26c21a9877a69496f723983b2ea4b79153bae4d5ab96e6f88212f6baa504b22f2ea0d11719de18d66d231b603163f3296587e51cb38"
      ],
      "is_coinbase": false,
      "sequence": 4294967293
    }
  ],
  "vout": [
    {
      "scriptpubkey": "51201679eea8264082e571de60fc96f97b9b8d6507c2b3c1e1f9a27250e6c48f79e6",
      "scriptpubkey_asm": "OP_PUSHNUM_1 OP_PUSHBYTES_32 1679eea8264082e571de60fc96f97b9b8d6507c2b3c1e1f9a27250e6c48f79e6",
      "scriptpubkey_type": "v1_p2tr",
      "scriptpubkey_address": "bc1pzeu7a2pxgzpw2uw7vr7fd7tmnwxk2p7zk0q7r7dzwfgwd3y008nqnu0gue",
      "value": 3282
    },
    {
      "scriptpubkey": "5120f098b52ae1ab8d5be1061669cb655ed651b5e7e7b081100d1e4f2530473f3430",
      "scriptpubkey_asm": "OP_PUSHNUM_1 OP_PUSHBYTES_32 f098b52ae1ab8d5be1061669cb655ed651b5e7e7b081100d1e4f2530473f3430",
      "scriptpubkey_type": "v1_p2tr",
      "scriptpubkey_address": "bc1p7zvt22hp4wx4hcgxze5uke276egmtel8kzq3qrg7fujnq3elxscqcmf746",
      "value": 134284
    }
  ],
  "size": 205,
  "weight": 616,
  "fee": 2772,
  "status": {
    "confirmed": true,
    "block_height": 834638,
    "block_hash": "000000000000000000025f742c626208ac87e0b7d15054abb4a19ca2d735a54e",
    "block_time": 1710405325
  },
  "hex": "02000000000101816ae6137276162e3a410107ec43f2ab838dc6dfb251dae72a5a66497ba66dd40100000000fdffffff02d20c0000000000002251201679eea8264082e571de60fc96f97b9b8d6507c2b3c1e1f9a27250e6c48f79e68c0c020000000000225120f098b52ae1ab8d5be1061669cb655ed651b5e7e7b081100d1e4f2530473f34300140c37143c2c0e043ec0730f26c21a9877a69496f723983b2ea4b79153bae4d5ab96e6f88212f6baa504b22f2ea0d11719de18d66d231b603163f3296587e51cb3800000000"
}