{
  "txid": "ef106b9797feb8d7b7ec94037e6ceffde96e4c7f05c86d28d525331154a34996",
  "version": 2,
  "locktime": 834458,
  "vin": [
    {
      "txid": "0b2a83eda895580fcc35035178db700ee22fbe3d211dcca75be24dccfd9dba4d",
      "vout": 0,
      "prevout": {
        "scriptpubkey": "0014036258927a8ee599dab01a9f1386414a6d62ff59",
        "scriptpubkey_asm": "OP_0 OP_PUSHBYTES_20 036258927a8ee599dab01a9f1386414a6d62ff59",
        "scriptpubkey_type": "v0_p2wpkh",
        "scriptpubkey_address": "bc1qqd393yn63mjenk4sr2038pjpffkk9l6e38jlmc",
        "value": 608
      },
      "scriptsig": "",
      "scriptsig_asm": "",
      "witness": [
        "3044022069394a3b3afd09abe4267038c52a5226bf47086402d5ec6ce4494931342fd37b022071fe05aa070db70b19ee7141a59f1c7f07d7692c31ac5afcd37108ad89632d0801",
        "03da4f48d5533a002edf16deb982ccceea29c2e169104c56022d2e9a287fbceb4d"
      ],
      "is_coinbase": false,
      "sequence": 4294967293
    },
    {
      "txid": "0b2a83eda895580fcc35035178db700ee22fbe3d211dcca75be24dccfd9dba4d",
      "vout": 2,
      "prevout": {
        "scriptpubkey": "0014036258927a8ee599dab01a9f1386414a6d62ff59",
        "scriptpubkey_asm": "OP_0 OP_PUSHBYTES_20 036258927a8ee599dab01a9f1386414a6d62ff59",
        "scriptpubkey_type": "v0_p2wpkh",
        "scriptpubkey_address": "bc1qqd393yn63mjenk4sr2038pjpffkk9l6e38jlmc",
        "value": 668169
      },
      "scriptsig": "",
      "scriptsig_asm": "",
      "witness": [
        "304402200b24546c24363dae7359babae0ddbf796374139dc33c107adba78e238d7fefeb022001525d2165655b67f71619a9a9fae4aa95167eddacbf6a896c6f79834cb27dc701",
        "03da4f48d5533a002edf16deb982ccceea29c2e169104c56022d2e9a287fbceb4d"
      ],
      "is_coinbase": false,
      "sequence": 4294967293
    }
  ],
  "vout": [
    {
      "scriptpubkey": "0014036258927a8ee599dab01a9f1386414a6d62ff59",
      "scriptpubkey_asm": "OP_0 OP_PUSHBYTES_20 036258927a8ee599dab01a9f1386414a6d62ff59",
      "scriptpubkey_type": "v0_p2wpkh",
      "scriptpubkey_address": "bc1qqd393yn63mjenk4sr2038pjpffkk9l6e38jlmc",
      "value": 607
    },
    {
      "scriptpubkey": "0014036258927a8ee599dab01a9f1386414a6d62ff59",
      "scriptpubkey_asm": "OP_0 OP_PUSHBYTES_20 036258927a8ee599dab01a9f1386414a6d62ff59",
      "scriptpubkey_type": "v0_p2wpkh",
      "scriptpubkey_address": "bc1qqd393yn63mjenk4sr2038pjpffkk9l6e38jlmc",
      "value": 546
    },
    {
      "scriptpubkey": "0014036258927a8ee599dab01a9f1386414a6d62ff59",
      "scriptpubkey_asm": "OP_0 OP_PUSHBYTES_20 036258927a8ee599dab01a9f1386414a6d62ff59",
      "scriptpubkey_type": "v0_p2wpkh",
      "scriptpubkey_address": "bc1qqd393yn63mjenk4sr2038pjpffkk9l6e38jlmc",
      "value": 664279
    }
  ],
  "size": 401,
  "weight": 956,
  "fee": 3345,
  "status": {
    "confirmed": true,
    "block_height": 834460,
    "block_hash": "00000000000000000000484a79b643b2524bbce82e5d8a442013fa5b8905ed98",
    "block_time": 1710307468
  },
  "hex": "020000000001024dba9dfdcc4de25ba7cc1d213dbe2fe20e70db78510335cc0f5895a8ed832a0b0000000000fdffffff4dba9dfdcc4de25ba7cc1d213dbe2fe20e70db78510335cc0f5895a8ed832a0b0200000000fdffffff035f02000000000000160014036258927a8ee599dab01a9f1386414a6d62ff592202000000000000160014036258927a8ee599dab01a9f1386414a6d62ff59d7220a0000000000160014036258927a8ee599dab01a9f1386414a6d62ff5902473044022069394a3b3afd09abe4267038c52a5226bf47086402d5ec6ce4494931342fd37b022071fe05aa070db70b19ee7141a59f1c7f07d7692c31ac5afcd37108ad89632d08012103da4f48d5533a002edf16deb982ccceea29c2e169104c56022d2e9a287fbceb4d0247304402200b24546c24363dae7359babae0ddbf796374139dc33c107adba78e238d7fefeb022001525d2165655b67f71619a9a9fae4aa95167eddacbf6a896c6f79834cb27dc7012103da4f48d5533a002edf16deb982ccceea29c2e169104c56022d2e9a287fbceb4d9abb0c00"
}