{
  "txid": "ef200b36c2008e9699130d073a87ab0444c5a5982ae22818065f4651cf82bbab",
  "version": 2,
  "locktime": 0,
  "vin": [
    {
      "txid": "1fba67ce9100df40f19ccb4d4062893b3c27987b9cbecf76311cbe554527e39b",
      "vout": 2,
      "prevout": {
        "scriptpubkey": "a9149cd03e792c7004be9aa5005d46653f28268416db87",
        "scriptpubkey_asm": "OP_HASH160 OP_PUSHBYTES_20 9cd03e792c7004be9aa5005d46653f28268416db OP_EQUAL",
        "scriptpubkey_type": "p2sh",
        "scriptpubkey_address": "3FzAoX2s7GhrZUZR4WXs1CvTKUGd7Ze6YM",
        "value": 1380629466
      },
      "scriptsig": "004730440220223ab514db7dc474fb3f4734f26fa8ba45cb7f5086972b9ffad31fa0548a15b9022043f38bec2672ddfc8bea2bb22637897b65a893fe27970fb0147c01bc7ee3d1540147304402206e7353155483343dbed44808d8ea48f643ee015e257797a22d4712e02e2cf3d702204824ba9a16398823b1f50ef1643ecef5daf1a5723bd1f7a241c9557743747a6b014c6952210395f33d5a959556ba6b57298066baf468c2e5ab3cc58ddaf7166f057fae1655a7210246aae217f1102dde12a7e77203f7114de07f0068cfb1a3d825fff4ca2266737621028ace79c534a3b5c482b6cc446ea20d757e88c516ec054ae31c7a47863864904853ae",
      "scriptsig_asm": "OP_0 OP_PUSHBYTES_71 30440220223ab514db7dc474fb3f4734f26fa8ba45cb7f5086972b9ffad31fa0548a15b9022043f38bec2672ddfc8bea2bb22637897b65a893fe27970fb0147c01bc7ee3d15401 OP_PUSHBYTES_71 304402206e7353155483343dbed44808d8ea48f643ee015e257797a22d4712e02e2cf3d702204824ba9a16398823b1f50ef1643ecef5daf1a5723bd1f7a241c9557743747a6b01 OP_PUSHDATA1 52210395f33d5a959556ba6b57298066baf468c2e5ab3cc58ddaf7166f057fae1655a7210246aae217f1102dde12a7e77203f7114de07f0068cfb1a3d825fff4ca2266737621028ace79c534a3b5c482b6cc446ea20d757e88c516ec054ae31c7a47863864904853ae",
      "is_coinbase": false,
      "sequence": 4294967295,
      "inner_redeemscript_asm": "OP_PUSHNUM_2 OP_PUSHBYTES_33 0395f33d5a959556ba6b57298066baf468c2e5ab3cc58ddaf7166f057fae1655a7 OP_PUSHBYTES_33 0246aae217f1102dde12a7e77203f7114de07f0068cfb1a3d825fff4ca22667376 OP_PUSHBYTES_33 028ace79c534a3b5c482b6cc446ea20d757e88c516ec054ae31c7a478638649048 OP_PUSHNUM_3 OP_CHECKMULTISIG"
    },
    {
      "txid": "e33a5b1a6e658904b783deb7ba64cb2e7987f2d6cd5bd24d223a0a71d038b288",
      "vout": 3,
      "prevout": {
        "scriptpubkey": "a9149cd03e792c7004be9aa5005d46653f28268416db87",
        "scriptpubkey_asm": "OP_HASH160 OP_PUSHBYTES_20 9cd03e792c7004be9aa5005d46653f28268416db OP_EQUAL",
        "scriptpubkey_type": "p2sh",
        "scriptpubkey_address": "3FzAoX2s7GhrZUZR4WXs1CvTKUGd7Ze6YM",
        "value": 1337178870
      },
      "scriptsig": "00483045022100be8371f6121556e1297303c328ebc987655c5ea0026e8613db0b627351ebde8d02200ed2d522a2107656736a8b28b4e5706a837e4fec5f750b2a8ebbbe416b34b154014730440220388acbdeecc2b7344199a08592a32d5b3714569a90c8f1c9e383a70c1929253102200865cad74e1c76dde824ced51d60dfff80be1df8f3009c8e188946686ec046d2014c6952210395f33d5a959556ba6b57298066baf468c2e5ab3cc58ddaf7166f057fae1655a7210246aae217f1102dde12a7e77203f7114de07f0068cfb1a3d825fff4ca2266737621028ace79c534a3b5c482b6cc446ea20d757e88c516ec054ae31c7a47863864904853ae",
      "scriptsig_asm": "OP_0 OP_PUSHBYTES_72 3045022100be8371f6121556e1297303c328ebc987655c5ea0026e8613db0b627351ebde8d02200ed2d522a2107656736a8b28b4e5706a837e4fec5f750b2a8ebbbe416b34b15401 OP_PUSHBYTES_71 30440220388acbdeecc2b7344199a08592a32d5b3714569a90c8f1c9e383a70c1929253102200865cad74e1c76dde824ced51d60dfff80be1df8f3009c8e188946686ec046d201 OP_PUSHDATA1 52210395f33d5a959556ba6b57298066baf468c2e5ab3cc58ddaf7166f057fae1655a7210246aae217f1102dde12a7e77203f7114de07f0068cfb1a3d825fff4ca2266737621028ace79c534a3b5c482b6cc446ea20d757e88c516ec054ae31c7a47863864904853ae",
      "is_coinbase": false,
      "sequence": 4294967295,
      "inner_redeemscript_asm": "OP_PUSHNUM_2 OP_PUSHBYTES_33 0395f33d5a959556ba6b57298066baf468c2e5ab3cc58ddaf7166f057fae1655a7 OP_PUSHBYTES_33 0246aae217f1102dde12a7e77203f7114de07f0068cfb1a3d825fff4ca22667376 OP_PUSHBYTES_33 028ace79c534a3b5c482b6cc446ea20d757e88c516ec054ae31c7a478638649048 OP_PUSHNUM_3 OP_CHECKMULTISIG"
    }
  ],
  "vout": [
    {
      "scriptpubkey": "76a91400fae4774da408bfd5c483e5b44cc7a8c7ce93d288ac",
      "scriptpubkey_asm": "OP_DUP OP_HASH160 OP_PUSHBYTES_20 00fae4774da408bfd5c483e5b44cc7a8c7ce93d2 OP_EQUALVERIFY OP_CHECKSIG",
      "scriptpubkey_type": "p2pkh",
      "scriptpubkey_address": "116BZK8yqkKS9YQ7SGfKGJ92oZcnymEWq5",
      "value": 1603221518
    },
    {
      "scriptpubkey": "76a914251f99100ab56057b1944aa5300a67670a290ffc88ac",
      "scriptpubkey_asm": "OP_DUP OP_HASH160 OP_PUSHBYTES_20 251f99100ab56057b1944aa5300a67670a290ffc OP_EQUALVERIFY OP_CHECKSIG",
      "scriptpubkey_type": "p2pkh",
      "scriptpubkey_address": "14PHrZPPFgzusKLAThaAs7jsk7o66de428",
      "value": 916810
    },
    {
      "scriptpubkey": "a9149cd03e792c7004be9aa5005d46653f28268416db87",
      "scriptpubkey_asm": "OP_HASH160 OP_PUSHBYTES_20 9cd03e792c7004be9aa5005d46653f28268416db OP_EQUAL",
      "scriptpubkey_type": "p2sh",
      "scriptpubkey_address": "3FzAoX2s7GhrZUZR4WXs1CvTKUGd7Ze6YM",
      "value": 1113656311
    }
  ],
  "size": 699,
  "weight": 2796,
  "fee": 13697,
  "status": {
    "confirmed": true,
    "block_height": 834638,
    "block_hash": "000000000000000000025f742c626208ac87e0b7d15054abb4a19ca2d735a54e",
    "block_time": 1710405325
  },
  "hex": "02000000029be3274555be1c3176cfbe9c7b98273c3b8962404dcb9cf140df0091ce67ba1f02000000fc004730440220223ab514db7dc474fb3f4734f26fa8ba45cb7f5086972b9ffad31fa0548a15b9022043f38bec2672ddfc8bea2bb22637897b65a893fe27970fb0147c01bc7ee3d1540147304402206e7353155483343dbed44808d8ea48f643ee015e257797a22d4712e02e2cf3d702204824ba9a16398823b1f50ef1643ecef5daf1a5723bd1f7a241c9557743747a6b014c6952210395f33d5a959556ba6b57298066baf468c2e5ab3cc58ddaf7166f057fae1655a7210246aae217f1102dde12a7e77203f7114de07f0068cfb1a3d825fff4ca2266737621028ace79c534a3b5c482b6cc446ea20d757e88c516ec054ae31c7a47863864904853aeffffffff88b238d0710a3a224dd25bcdd6f287792ecb64bab7de83b70489656e1a5b3ae303000000fdfd0000483045022100be8371f6121556e1297303c328ebc987655c5ea0026e8613db0b627351ebde8d02200ed2d522a2107656736a8b28b4e5706a837e4fec5f750b2a8ebbbe416b34b154014730440220388acbdeecc2b7344199a08592a32d5b3714569a90c8f1c9e383a70c1929253102200865cad74e1c76dde824ced51d60dfff80be1df8f3009c8e188946686ec046d2014c6952210395f33d5a959556ba6b57298066baf468c2e5ab3cc58ddaf7166f057fae1655a7210246aae217f1102dde12a7e77203f7114de07f0068cfb1a3d825fff4ca2266737621028ace79c534a3b5c482b6cc446ea20d757e88c516ec054ae31c7a47863864904853aeffffffff030e388f5f000000001976a91400fae4774da408bfd5c483e5b44cc7a8c7ce93d288ac4afd0d00000000001976a914251f99100ab56057b1944aa5300a67670a290ffc88acf70b61420000000017a9149cd03e792c7004be9aa5005d46653f28268416db8700000000"
}