{
  "txid": "ef20b902c3198281a247fadf84811e1b34aebe512969ec7f396974bbc1b27c8f",
  "version": 2,
  "locktime": 0,
  "vin": [
    {
      "txid": "d5e15f122b193ad4a62b5fa55ad2b68caa8e47a731bc59919fa32dc3508a4f56",
      "vout": 0,
      "prevout": {
        "scriptpubkey": "0014e954e6a80df46786ac7037d36eddf058911092c8",
        "scriptpubkey_asm": "OP_0 OP_PUSHBYTES_20 e954e6a80df46786ac7037d36eddf058911092c8",
        "scriptpubkey_type": "v0_p2wpkh",
        "scriptpubkey_address": "bc1qa92wd2qd73ncdtrsxlfkah0stzg3pykgh9kf92",
        "value": 2681
      },
      "scriptsig": "",
      "scriptsig_asm": "",
      "witness": [
        "304502210085cb174b980b57923ed0a14aa3eafbd9ac58f79c7faa20909bd212f076b0c0f902200de9c35370ff4fac2a9d8338066d547158a30fd87276d8237e45ba8cb8875e4a01",
        "0351ec02b3e7ba7e2a5097e38fa075363c1a677f5d2383b31923fa9f2ad59160d4"
      ],
      "is_coinbase": false,
      "sequence": 4294967295
    }
  ],
  "vout": [
    {
      "scriptpubkey": "0014c02d693d25286334975b9691295fb290c63d3cf4",
      "scriptpubkey_asm": "OP_0 OP_PUSHBYTES_20 c02d693d25286334975b9691295fb290c63d3cf4",
      "scriptpubkey_type": "v0_p2wpkh",
      "scriptpubkey_address": "bc1qcqkkj0f99p3nf96mj6gjjhajjrrr6085q2hpxw",
      "value": 1490
    }
  ],
  "size": 192,
  "weight": 438,
  "fee": 1191,
  "status": {
    "confirmed": true,
    "block_height": 834464,
    "block_hash": "0000000000000000000177a0869a911a2b65c9bdcd5a8bcb02b68f305bee848e",
    "block_time": 1710308296
  },
  "hex": "02000000000101564f8a50c32da39f9159bc31a7478eaa8cb6d25aa55f2ba6d43a192b125fe1d50000000000ffffffff01d205000000000000160014c02d693d25286334975b9691295fb290c63d3cf40248304502210085cb174b980b57923ed0a14aa3eafbd9ac58f79c7faa20909bd212f076b0c0f902200de9c35370ff4fac2a9d8338066d547158a30fd87276d8237e45ba8cb8875e4a01210351ec02b3e7ba7e2a5097e38fa075363c1a677f5d2383b31923fa9f2ad59160d400000000"
}