{
  "txid": "ef6361f61adf5132341fb6400efd09c351009b43916825ead376766114b2d50f",
  "version": 2,
  "locktime": 834458,
  "vin": [
    {
      "txid": "a225841fcd38a7345848a227c9050e7d730a13bc4e5b7ca3f89ede4628bd1aea",
      "vout": 0,
      "prevout": {
        "scriptpubkey": "0014fa28b4ac7eb918ca491247218a8c2b8fa6e36e2d",
        "scriptpubkey_asm": "OP_0 OP_PUSHBYTES_20 fa28b4ac7eb918ca491247218a8c2b8fa6e36e2d",
        "scriptpubkey_type": "v0_p2wpkh",
        "scriptpubkey_address": "bc1qlg5tftr7hyvv5jgjgusc4rpt37nwxm3dguqr00",
        "value": 649
      },
      "scriptsig": "",
      "scriptsig_asm": "",
      "witness": [
        "304402206c997ee5fded94979f99324e670d7af4a1bd4e6061745c8cf3d05c691a13e5d4022000b8721bd5e013e8132a30e132bc9eac8e661eaaf50fe24751deec0a7d993b6701",
        "037329ec91214229b0e241813cba7c1720b05b4a54746911a847efa76fd294be4f"
      ],
      "is_coinbase": false,
      "sequence": 4294967293
    },
    {
      "txid": "a225841fcd38a7345848a227c9050e7d730a13bc4e5b7ca3f89ede4628bd1aea",
      "vout": 2,
      "prevout": {
        "scriptpubkey": "0014fa28b4ac7eb918ca491247218a8c2b8fa6e36e2d",
        "scriptpubkey_asm": "OP_0 OP_PUSHBYTES_20 fa28b4ac7eb918ca491247218a8c2b8fa6e36e2d",
        "scriptpubkey_type": "v0_p2wpkh",
        "scriptpubkey_address": "bc1qlg5tftr7hyvv5jgjgusc4rpt37nwxm3dguqr00",
        "value": 656499
      },
      "scriptsig": "",
      "scriptsig_asm": "",
      "witness": [
        "304402202d00331ee0c6c49d51a43334315f06e2fd7c6a015586dba85435c4831b1a2ced022056ea8e9666082d6ff9cf5453b20dbd401e3ae07d9c061f48c34ba9b3ac6dc45901",
        "037329ec91214229b0e241813cba7c1720b05b4a54746911a847efa76fd294be4f"
      ],
      "is_coinbase": false,
      "sequence": 4294967293
    }
  ],
  "vout": [
    {
      "scriptpubkey": "0014fa28b4ac7eb918ca491247218a8c2b8fa6e36e2d",
      "scriptpubkey_asm": "OP_0 OP_PUSHBYTES_20 fa28b4ac7eb918ca491247218a8c2b8fa6e36e2d",
      "scriptpubkey_type": "v0_p2wpkh",
      "scriptpubkey_address": "bc1qlg5tftr7hyvv5jgjgusc4rpt37nwxm3dguqr00",
      "value": 648
    },
    {
      "scriptpubkey": "0014d721227fd9b0029c24b05f50dcc3ef9114e976d7",
      "scriptpubkey_asm": "OP_0 OP_PUSHBYTES_20 d721227fd9b0029c24b05f50dcc3ef9114e976d7",
      "scriptpubkey_type": "v0_p2wpkh",
      "scriptpubkey_address": "bc1q6usjyl7ekqpfcf9stagdesl0jy2wjakh09z97m",
      "value": 546
    },
    {
      "scriptpubkey": "0014fa28b4ac7eb918ca491247218a8c2b8fa6e36e2d",
      "scriptpubkey_asm": "OP_0 OP_PUSHBYTES_20 fa28b4ac7eb918ca491247218a8c2b8fa6e36e2d",
      "scriptpubkey_type": "v0_p2wpkh",
      "scriptpubkey_address": "bc1qlg5tftr7hyvv5jgjgusc4rpt37nwxm3dguqr00",
      "value": 652369
    }
  ],
  "size": 401,
  "weight": 956,
  "fee": 3585,
  "status": {
    "confirmed": true,
    "block_height": 834460,
    "block_hash": "00000000000000000000484a79b643b2524bbce82e5d8a442013fa5b8905ed98",
    "block_time": 1710307468
  },
  "hex": "02000000000102ea1abd2846de9ef8a37c5b4ebc130a737d0e05c927a2485834a738cd1f8425a20000000000fdffffffea1abd2846de9ef8a37c5b4ebc130a737d0e05c927a2485834a738cd1f8425a20200000000fdffffff038802000000000000160014fa28b4ac7eb918ca491247218a8c2b8fa6e36e2d2202000000000000160014d721227fd9b0029c24b05f50dcc3ef9114e976d751f4090000000000160014fa28b4ac7eb918ca491247218a8c2b8fa6e36e2d0247304402206c997ee5fded94979f99324e670d7af4a1bd4e6061745c8cf3d05c691a13e5d4022000b8721bd5e013e8132a30e132bc9eac8e661eaaf50fe24751deec0a7d993b670121037329ec91214229b0e241813cba7c1720b05b4a54746911a847efa76fd294be4f0247304402202d00331ee0c6c49d51a43334315f06e2fd7c6a015586dba85435c4831b1a2ced022056ea8e9666082d6ff9cf5453b20dbd401e3ae07d9c061f48c34ba9b3ac6dc4590121037329ec91214229b0e241813cba7c1720b05b4a54746911a847efa76fd294be4f9abb0c00"
}