{
  "txid": "ef7fe6c934e5a8d152ff060257fd756512b8fd12f452cc0230e33e4504eea593",
  "version": 2,
  "locktime": 0,
  "vin": [
    {
      "txid": "8486ecb4df0880316dd6e82b3971b4df187aff23765bc3a47f8d78bb53aa273c",
      "vout": 74,
      "prevout": {
        "scriptpubkey": "51205d4409c520f22b50d11c3c0df8891bb4be6d85d7f210d69c4eb0677d846ce1be",
        "scriptpubkey_asm": "OP_PUSHNUM_1 OP_PUSHBYTES_32 5d4409c520f22b50d11c3c0df8891bb4be6d85d7f210d69c4eb0677d846ce1be",
        "scriptpubkey_type": "v1_p2tr",
        "scriptpubkey_address": "bc1pt4zqn3fq7g44p5gu8sxl3zgmkjlxmpwh7ggdd8zwkpnhmprvuxlqey0xkl",
        "value": 2575
      },
      "scriptsig": "",
      "scriptsig_asm": "",
      "witness": [
        "bcb0d61944b51274a08aabba9a6ceb15408d0854b8eb25d9d16a75160dc2195245a3111ebaee974f1250a8404c6df2afb78f0852962500538148da09275506bb",
        "2025376e56c725b812772e7935ed82d33916de182cbded136f5735c692420fa5afac0063036f726401010a746578742f706c61696e00367b2270223a226272632d3230222c226f70223a226d696e74222c227469636b223a2261616161222c22616d74223a223130303030227d68",
        "c025376e56c725b812772e7935ed82d33916de182cbded136f5735c692420fa5af"
      ],
      "is_coinbase": false,
      "sequence": 4261412863
    }
  ],
  "vout": [
    {
      "scriptpubkey": "0014ddd7ef12ea6f78edcc1e8e7afa12c01ab59f3339",
      "scriptpubkey_asm": "OP_0 OP_PUSHBYTES_20 ddd7ef12ea6f78edcc1e8e7afa12c01ab59f3339",
      "scriptpubkey_type": "v0_p2wpkh",
      "scriptpubkey_address": "bc1qmht77yh2dauwmnq73ea05ykqr26e7veea8spz6",
      "value": 546
    }
  ],
  "size": 295,
  "weight": 541,
  "fee": 2029,
  "status": {
    "confirmed": true,
    "block_height": 834460,
    "block_hash": "00000000000000000000484a79b643b2524bbce82e5d8a442013fa5b8905ed98",
    "block_time": 1710307468
  },
  "hex": "020000000001013c27aa53bb788d7fa4c35b7623ff7a18dfb471392be8d66d318008dfb4ec86844a00000000fffffffd012202000000000000160014ddd7ef12ea6f78edcc1e8e7afa12c01ab59f33390340bcb0d61944b51274a08aabba9a6ceb15408d0854b8eb25d9d16a75160dc2195245a3111ebaee974f1250a8404c6df2afb78f0852962500538148da09275506bb6e2025376e56c725b812772e7935ed82d33916de182cbded136f5735c692420fa5afac0063036f726401010a746578742f706c61696e00367b2270223a226272632d3230222c226f70223a226d696e74222c227469636b223a2261616161222c22616d74223a223130303030227d6821c025376e56c725b812772e7935ed82d33916de182cbded136f5735c692420fa5af00000000"
}