{
  "txid": "ef8e677a14b480f7d9212f157af45a99573a86b52184c97877d1962afb9c91d4",
  "version": 2,
  "locktime": 0,
  "vin": [
    {
      "txid": "c3c0ca289d406beaf5bc599e55fd7571040b894ee255acfbc3dcbb12b1f27841",
      "vout": 0,
      "prevout": {
        "scriptpubkey": "51203efd62b05801f2012c710fc2554de37829053c28a7593f11ac7783937eb6d4a3",
        "scriptpubkey_asm": "OP_PUSHNUM_1 OP_PUSHBYTES_32 3efd62b05801f2012c710fc2554de37829053c28a7593f11ac7783937eb6d4a3",
        "scriptpubkey_type": "v1_p2tr",
        "scriptpubkey_address": "bc1p8m7k9vzcq8eqztr3plp92n0r0q5s20pg5avn7ydvw7pexl4k6j3sya3jmm",
        "value": 26506
      },
      "scriptsig": "",
      "scriptsig_asm": "",
      "witness": [
        "8a13fec56314e28183fa6de4074bee3f7955c545312e32fbf57344b0f3343537ea266848a6c0cdcbf20f125e6bf4c39a1eb209e69cf260f1de4f6c0ba665b31c",
        "20f2d00e1cce0b839d2e197679cac7a15152ec244338032c7767f72c1332d49a65ac0063036f7264010109696d6167652f706e67004d9b0189504e470d0a1a0a0000000d494844520000011800000118040300000075a0f4bf00000024504c5445fbe609bb9b60630001ff7b009c0303f8ac00efcf94351428c42c36ed5259fff000000000c1144231000001324944415478daeddcc109833018805157700557700557e80aaed015ba4257e80a2e57cc21a1f21b84501acafb6ec684bc6310e23077d400030303030303030303030303030303330f17bb05c1c0c0c0c0c0c0c0c0c0c0c0c0c0c0c0c0c0c0c0c0c0c0c0c0c0c0c0c0c0c0c0c0c0c0c0c0c0c0c0c0c0c0fc16b3e4eeb925680a82818181818181818181e91db3ed3d3e7beebd72e9f130252d838181818169c1a4ed224cda0e06060606e6cb98b26769cb1d5e941511660d82818181818906d78660606060607ac28c413030303030d1e0d8100c0c0c0c4c4f98a68fd23030303030303030303030303030307f8c899a1a8281818181b98a591aaab3cae53e18181818980b98e84ef4e93d6918181818989e306572fd900e03030303737adaaeff210806060606a6134c448081818181c9bd012d448fdd2720d66f0000000049454e44ae426082680063036f726401011e6170706c69636174696f6e2f6a736f6e3b636861727365743d7574662d38004d46017b2270223a22766f7264222c2276223a312c227479223a22696e7363222c22636f6c223a2232343930616533353961306139323966616465616339303633646434366361613433653231363339333763363539646262616366333565343431656238643863222c22696964223a224d7574616e7420784d6f6e6b6573222c227075626c223a2231455337623370636a527a4667796969714c7278484b546e43686535364c4a485937222c226e6f6e6365223a323138332c226d696e746572223a22334e734d4c716255474b387a54314b734a6a4453416777626b324438437867714438222c22736967223a22473157687374623347553479326134756233346734596b307a474e796946516a76592f72475749794d664c5a4a6359324d41414a68507667447578343566386c3578516862727a38536a4c5a4d332b544179364a724e633d227d68",
        "c0f2d00e1cce0b839d2e197679cac7a15152ec244338032c7767f72c1332d49a65675a92934efa5e4869b2432a3e00abfc6819367af43949c2edc693b32d23ac05"
      ],
      "is_coinbase": false,
      "sequence": 4294967293
    }
  ],
  "vout": [
    {
      "scriptpubkey": "a914e84f02da0f7a21fcd287c6bed0f9f9e3b3ef1dce87",
      "scriptpubkey_asm": "OP_HASH160 OP_PUSHBYTES_20 e84f02da0f7a21fcd287c6bed0f9f9e3b3ef1dce OP_EQUAL",
      "scriptpubkey_type": "p2sh",
      "scriptpubkey_address": "3NsMLqbUGK8zT1KsJjDSAgwbk2D8CxgqD8",
      "value": 1000
    },
    {
      "scriptpubkey": "5120f4d3a74cb882d6df5a942aae15d724bad39222e79b62335fa7cdf54bc030f415",
      "scriptpubkey_asm": "OP_PUSHNUM_1 OP_PUSHBYTES_32 f4d3a74cb882d6df5a942aae15d724bad39222e79b62335fa7cdf54bc030f415",
      "scriptpubkey_type": "v1_p2tr",
      "scriptpubkey_address": "bc1p7nf6wn9csttd7k5592hpt4eyhtfeygh8nd3rxha8eh65hsps7s2s00yhus",
      "value": 17713
    },
    {
      "scriptpubkey": "51200705a5767db892e98125775049b1a13dd9ecdc8aea0df413cabbee683e871012",
      "scriptpubkey_asm": "OP_PUSHNUM_1 OP_PUSHBYTES_32 0705a5767db892e98125775049b1a13dd9ecdc8aea0df413cabbee683e871012",
      "scriptpubkey_type": "v1_p2tr",
      "scriptpubkey_address": "bc1pquz62anahzfwnqf9wagynvdp8hv7ehy2agxlgy72h0hxs058zqfqk8ksyq",
      "value": 3250
    }
  ],
  "size": 1144,
  "weight": 1651,
  "fee": 4543,
  "status": {
    "confirmed": true,
    "block_height": 834464,
    "block_hash": "0000000000000000000177a0869a911a2b65c9bdcd5a8bcb02b68f305bee848e",
    "block_time": 1710308296
  },
  "hex": "020000000001014178f2b112bbdcc3fbac55e24e890b047175fd559e59bcf5ea6b409d28cac0c30000000000fdffffff03e80300000000000017a914e84f02da0f7a21fcd287c6bed0f9f9e3b3ef1dce873145000000000000225120f4d3a74cb882d6df5a942aae15d724bad39222e79b62335fa7cdf54bc030f415b20c0000000000002251200705a5767db892e98125775049b1a13dd9ecdc8aea0df413cabbee683e87101203408a13fec56314e28183fa6de4074bee3f7955c545312e32fbf57344b0f3343537ea266848a6c0cdcbf20f125e6bf4c39a1eb209e69cf260f1de4f6c0ba665b31cfd460320f2d00e1cce0b839d2e197679cac7a15152ec244338032c7767f72c1332d49a65ac0063036f7264010109696d6167652f706e67004d9b0189504e470d0a1a0a0000000d494844520000011800000118040300000075a0f4bf00000024504c5445fbe609bb9b60630001ff7b009c0303f8ac00efcf94351428c42c36ed5259fff000000000c1144231000001324944415478daeddcc109833018805157700557700557e80aaed015ba4257e80a2e57cc21a1f21b84501acafb6ec684bc6310e23077d400030303030303030303030303030303330f17bb05c1c0c0c0c0c0c0c0c0c0c0c0c0c0c0c0c0c0c0c0c0c0c0c0c0c0c0c0c0c0c0c0c0c0c0c0c0c0c0c0c0c0c0fc16b3e4eeb925680a82818181818181818181e91db3ed3d3e7beebd72e9f130252d838181818169c1a4ed224cda0e06060606e6cb98b26769cb1d5e941511660d82818181818906d78660606060607ac28c413030303030d1e0d8100c0c0c0c4c4f98a68fd23030303030303030303030303030307f8c899a1a8281818181b98a591aaab3cae53e18181818980b98e84ef4e93d6918181818989e306572fd900e03030303737adaaeff210806060606a6134c448081818181c9bd012d448fdd2720d66f0000000049454e44ae426082680063036f726401011e6170706c69636174696f6e2f6a736f6e3b636861727365743d7574662d38004d46017b2270223a22766f7264222c2276223a312c227479223a22696e7363222c22636f6c223a2232343930616533353961306139323966616465616339303633646434366361613433653231363339333763363539646262616366333565343431656238643863222c22696964223a224d7574616e7420784d6f6e6b6573222c227075626c223a2231455337623370636a527a4667796969714c7278484b546e43686535364c4a485937222c226e6f6e6365223a323138332c226d696e746572223a22334e734d4c716255474b387a54314b734a6a4453416777626b324438437867714438222c22736967223a22473157687374623347553479326134756233346734596b307a474e796946516a76592f72475749794d664c5a4a6359324d41414a68507667447578343566386c3578516862727a38536a4c5a4d332b544179364a724e633d227d6841c0f2d00e1cce0b839d2e197679cac7a15152ec244338032c7767f72c1332d49a65675a92934efa5e4869b2432a3e00abfc6819367af43949c2edc693b32d23ac0500000000"
}