{
  "txid": "ef9349f17fd065412a4c66ddb92e821772b764546cf47ca79c3b4505a69842d5",
  "version": 2,
  "locktime": 0,
  "vin": [
    {
      "txid": "b5d531be510cddb14792f535cc259a2a52652623e608a3411435e97db7b5e0ca",
      "vout": 6,
      "prevout": {
        "scriptpubkey": "51202fb639dbbadc9f0097e9cb3dc1e26ef4a7c4f5e357e6d5b40b78591b9c1b24f3",
        "scriptpubkey_asm": "OP_PUSHNUM_1 OP_PUSHBYTES_32 2fb639dbbadc9f0097e9cb3dc1e26ef4a7c4f5e357e6d5b40b78591b9c1b24f3",
        "scriptpubkey_type": "v1_p2tr",
        "scriptpubkey_address": "bc1p97mrnka6mj0sp9lfev7urcnw7jnufa0r2lndtdqt0pv3h8qmyness7t6jn",
        "value": 600
      },
      "scriptsig": "",
      "scriptsig_asm": "",
      "witness": [
        "d4035e5f92827ac7746ca18949c2d6c075edba170c2d059d25d0acaddb9b3565845095166eddc8d958bfca9ebcf842f2fe057711349c6da595dec3e2bcdf3a53"
      ],
      "is_coinbase": false,
      "sequence": 4294967293
    },
    {
      "txid": "1c04401183cabe252880aed3f8508d2842c17bf138593b2a5618f41b34d23807",
      "vout": 0,
      "prevout": {
        "scriptpubkey": "51202fb639dbbadc9f0097e9cb3dc1e26ef4a7c4f5e357e6d5b40b78591b9c1b24f3",
        "scriptpubkey_asm": "OP_PUSHNUM_1 OP_PUSHBYTES_32 2fb639dbbadc9f0097e9cb3dc1e26ef4a7c4f5e357e6d5b40b78591b9c1b24f3",
        "scriptpubkey_type": "v1_p2tr",
        "scriptpubkey_address": "bc1p97mrnka6mj0sp9lfev7urcnw7jnufa0r2lndtdqt0pv3h8qmyness7t6jn",
        "value": 2500
      },
      "scriptsig": "",
      "scriptsig_asm": "",
      "witness": [
        "5764fbb7285eeec1d0d98e5a3cce82f0cc850130c95c7a1a2f0a2ca41eb53f5750f569f099ff889d770d9b84334099de20df997f511210a010c51ef835693abc"
      ],
      "is_coinbase": false,
      "sequence": 4294967293
    },
    {
      "txid": "1c04401183cabe252880aed3f8508d2842c17bf138593b2a5618f41b34d23807",
      "vout": 5,
      "prevout": {
        "scriptpubkey": "51202fb639dbbadc9f0097e9cb3dc1e26ef4a7c4f5e357e6d5b40b78591b9c1b24f3",
        "scriptpubkey_asm": "OP_PUSHNUM_1 OP_PUSHBYTES_32 2fb639dbbadc9f0097e9cb3dc1e26ef4a7c4f5e357e6d5b40b78591b9c1b24f3",
        "scriptpubkey_type": "v1_p2tr",
        "scriptpubkey_address": "bc1p97mrnka6mj0sp9lfev7urcnw7jnufa0r2lndtdqt0pv3h8qmyness7t6jn",
        "value": 1956058
      },
      "scriptsig": "",
      "scriptsig_asm": "",
      "witness": [
        "b54affeda111542c5bfe791ac1e344a48bdf33c937d3d10ca98623f91d6c4fa33ea49008ecacd4528ee5e8a0c12a6e2e73b1267de60d50551cd217ac39b059e0"
      ],
      "is_coinbase": false,
      "sequence": 4294967293
    }
  ],
  "vout": [
    {
      "scriptpubkey": "51202fb639dbbadc9f0097e9cb3dc1e26ef4a7c4f5e357e6d5b40b78591b9c1b24f3",
      "scriptpubkey_asm": "OP_PUSHNUM_1 OP_PUSHBYTES_32 2fb639dbbadc9f0097e9cb3dc1e26ef4a7c4f5e357e6d5b40b78591b9c1b24f3",
      "scriptpubkey_type": "v1_p2tr",
      "scriptpubkey_address": "bc1p97mrnka6mj0sp9lfev7urcnw7jnufa0r2lndtdqt0pv3h8qmyness7t6jn",
      "value": 1100
    },
    {
      "scriptpubkey": "5120d1454c5d69ac328ccae03a1843ae0887c708d7c6788ac1ccf32196174364d420",
      "scriptpubkey_asm": "OP_PUSHNUM_1 OP_PUSHBYTES_32 d1454c5d69ac328ccae03a1843ae0887c708d7c6788ac1ccf32196174364d420",
      "scriptpubkey_type": "v1_p2tr",
      "scriptpubkey_address": "bc1p69z5chtf4segejhq8gvy8tsgslrs347x0z9vrn8nyxtpwsmy6ssqw3fya0",
      "value": 546
    },
    {
      "scriptpubkey": "51202fb639dbbadc9f0097e9cb3dc1e26ef4a7c4f5e357e6d5b40b78591b9c1b24f3",
      "scriptpubkey_asm": "OP_PUSHNUM_1 OP_PUSHBYTES_32 2fb639dbbadc9f0097e9cb3dc1e26ef4a7c4f5e357e6d5b40b78591b9c1b24f3",
      "scriptpubkey_type": "v1_p2tr",
      "scriptpubkey_address": "bc1p97mrnka6mj0sp9lfev7urcnw7jnufa0r2lndtdqt0pv3h8qmyness7t6jn",
      "value": 1454
    },
    {
      "scriptpubkey": "5120d1454c5d69ac328ccae03a1843ae0887c708d7c6788ac1ccf32196174364d420",
      "scriptpubkey_asm": "OP_PUSHNUM_1 OP_PUSHBYTES_32 d1454c5d69ac328ccae03a1843ae0887c708d7c6788ac1ccf32196174364d420",
      "scriptpubkey_type": "v1_p2tr",
      "scriptpubkey_address": "bc1p69z5chtf4segejhq8gvy8tsgslrs347x0z9vrn8nyxtpwsmy6ssqw3fya0",
      "value": 96334
    },
    {
      "scriptpubkey": "a9145557ab47280bb58ce14da86c2cf591640ced70ad87",
      "scriptpubkey_asm": "OP_HASH160 OP_PUSHBYTES_20 5557ab47280bb58ce14da86c2cf591640ced70ad OP_EQUAL",
      "scriptpubkey_type": "p2sh",
      "scriptpubkey_address": "39UGPCfuCqx6xB9oHYHSbsbzN4ooJC9b7z",
      "value": 20536
    },
    {
      "scriptpubkey": "51202fb639dbbadc9f0097e9cb3dc1e26ef4a7c4f5e357e6d5b40b78591b9c1b24f3",
      "scriptpubkey_asm": "OP_PUSHNUM_1 OP_PUSHBYTES_32 2fb639dbbadc9f0097e9cb3dc1e26ef4a7c4f5e357e6d5b40b78591b9c1b24f3",
      "scriptpubkey_type": "v1_p2tr",
      "scriptpubkey_address": "bc1p97mrnka6mj0sp9lfev7urcnw7jnufa0r2lndtdqt0pv3h8qmyness7t6jn",
      "value": 1833154
    }
  ],
  "size": 580,
  "weight": 1720,
  "fee": 6034,
  "status": {
    "confirmed": true,
    "block_height": 834460,
    "block_hash": "00000000000000000000484a79b643b2524bbce82e5d8a442013fa5b8905ed98",
    "block_time": 1710307468
  },
  "hex": "02000000000103cae0b5b77de9351441a308e6232665522a9a25cc35f59247b1dd0c51be31d5b50600000000fdffffff0738d2341bf418562a3b5938f17bc142288d50f8d3ae802825beca831140041c0000000000fdffffff0738d2341bf418562a3b5938f17bc142288d50f8d3ae802825beca831140041c0500000000fdffffff064c040000000000002251202fb639dbbadc9f0097e9cb3dc1e26ef4a7c4f5e357e6d5b40b78591b9c1b24f32202000000000000225120d1454c5d69ac328ccae03a1843ae0887c708d7c6788ac1ccf32196174364d420ae050000000000002251202fb639dbbadc9f0097e9cb3dc1e26ef4a7c4f5e357e6d5b40b78591b9c1b24f34e78010000000000225120d1454c5d69ac328ccae03a1843ae0887c708d7c6788ac1ccf32196174364d420385000000000000017a9145557ab47280bb58ce14da86c2cf591640ced70ad87c2f81b00000000002251202fb639dbbadc9f0097e9cb3dc1e26ef4a7c4f5e357e6d5b40b78591b9c1b24f30140d4035e5f92827ac7746ca18949c2d6c075edba170c2d059d25d0acaddb9b3565845095166eddc8d958bfca9ebcf842f2fe057711349c6da595dec3e2bcdf3a5301405764fbb7285eeec1d0d98e5a3cce82f0cc850130c95c7a1a2f0a2ca41eb53f5750f569f099ff889d770d9b84334099de20df997f511210a010c51ef835693abc0140b54affeda111542c5bfe791ac1e344a48bdf33c937d3d10ca98623f91d6c4fa33ea49008ecacd4528ee5e8a0c12a6e2e73b1267de60d50551cd217ac39b059e000000000"
}