{
  "txid": "ef98897bb26beebecf5cbbf0864fb4aff755c4eb8c478e23e51ce80528b3d275",
  "version": 2,
  "locktime": 0,
  "vin": [
    {
      "txid": "cda26ac03723cb825dbcc3f18b275923ca374c848535a49249034bd9d7ec054f",
      "vout": 4,
      "prevout": {
        "scriptpubkey": "51207b3e9154bc647e34d867f397008705814c104d28f705512959b5b2f71220546e",
        "scriptpubkey_asm": "OP_PUSHNUM_1 OP_PUSHBYTES_32 7b3e9154bc647e34d867f397008705814c104d28f705512959b5b2f71220546e",
        "scriptpubkey_type": "v1_p2tr",
        "scriptpubkey_address": "bc1p0vlfz49uv3lrfkr87wtsppc9s9xpqnfg7uz4z22ekke0wy3q23hqkzrztm",
        "value": 600
      },
      "scriptsig": "",
      "scriptsig_asm": "",
      "witness": [
        "4bca73fd1d71f79d2c52985b7fbf4201d87df466ccdfe48fee60e3c94f13daccf8381acd0764ba67a9b91da30a2856fb9e0e7d7ed223145027d9a5f202632a3b"
      ],
      "is_coinbase": false,
      "sequence": 4294967295
    },
    {
      "txid": "cda26ac03723cb825dbcc3f18b275923ca374c848535a49249034bd9d7ec054f",
      "vout": 3,
      "prevout": {
        "scriptpubkey": "51207b3e9154bc647e34d867f397008705814c104d28f705512959b5b2f71220546e",
        "scriptpubkey_asm": "OP_PUSHNUM_1 OP_PUSHBYTES_32 7b3e9154bc647e34d867f397008705814c104d28f705512959b5b2f71220546e",
        "scriptpubkey_type": "v1_p2tr",
        "scriptpubkey_address": "bc1p0vlfz49uv3lrfkr87wtsppc9s9xpqnfg7uz4z22ekke0wy3q23hqkzrztm",
        "value": 600
      },
      "scriptsig": "",
      "scriptsig_asm": "",
      "witness": [
        "fdeba7792a52b635b23597f0b583f35bd5d7e3a56c4b6b26f4c5b072ea75d9ba21eb65ed35f168af1c1557ab3b25134970834c252bea0d69124a7fe147f6fa7a"
      ],
      "is_coinbase": false,
      "sequence": 4294967295
    },
    {
      "txid": "2392fe29e509deaab452214a524ae8db38face49f668176b00ac11dd2711e2bf",
      "vout": 0,
      "prevout": {
        "scriptpubkey": "5120fbdee715f5e5d3909e3774972b0d4615accf7a11c4928fff7839e3fd6942851f",
        "scriptpubkey_asm": "OP_PUSHNUM_1 OP_PUSHBYTES_32 fbdee715f5e5d3909e3774972b0d4615accf7a11c4928fff7839e3fd6942851f",
        "scriptpubkey_type": "v1_p2tr",
        "scriptpubkey_address": "bc1pl00ww904uhfep83hwjtjkr2xzkkv77s3cjfgllmc883l662zs50sylhts4",
        "value": 546
      },
      "scriptsig": "",
      "scriptsig_asm": "",
      "witness": [
        "6e21b7117422483c10c7938119e9e5cd0c86924d195ae4df5cbe708337770ba31cac075db1feed42c41d5adf86154b8cc740ccce6f429a31120ecc2e548ecb9a83"
      ],
      "is_coinbase": false,
      "sequence": 4294967295
    },
    {
      "txid": "b47a27cb186fcfaf674014513d06f900ca7796a19d3ba6826e5900c10bedd7e5",
      "vout": 1,
      "prevout": {
        "scriptpubkey": "51207b3e9154bc647e34d867f397008705814c104d28f705512959b5b2f71220546e",
        "scriptpubkey_asm": "OP_PUSHNUM_1 OP_PUSHBYTES_32 7b3e9154bc647e34d867f397008705814c104d28f705512959b5b2f71220546e",
        "scriptpubkey_type": "v1_p2tr",
        "scriptpubkey_address": "bc1p0vlfz49uv3lrfkr87wtsppc9s9xpqnfg7uz4z22ekke0wy3q23hqkzrztm",
        "value": 68503
      },
      "scriptsig": "",
      "scriptsig_asm": "",
      "witness": [
        "e1bdb9745d5d7c13db6a1157217baa5b4668273446a736bc75f4622376862a7bb01819b0a08cc1ce1f374ea6427d8e76bae3fc1874ee20994383017944ee28b3"
      ],
      "is_coinbase": false,
      "sequence": 4294967295
    }
  ],
  "vout": [
    {
      "scriptpubkey": "51207b3e9154bc647e34d867f397008705814c104d28f705512959b5b2f71220546e",
      "scriptpubkey_asm": "OP_PUSHNUM_1 OP_PUSHBYTES_32 7b3e9154bc647e34d867f397008705814c104d28f705512959b5b2f71220546e",
      "scriptpubkey_type": "v1_p2tr",
      "scriptpubkey_address": "bc1p0vlfz49uv3lrfkr87wtsppc9s9xpqnfg7uz4z22ekke0wy3q23hqkzrztm",
      "value": 1200
    },
    {
      "scriptpubkey": "51207b3e9154bc647e34d867f397008705814c104d28f705512959b5b2f71220546e",
      "scriptpubkey_asm": "OP_PUSHNUM_1 OP_PUSHBYTES_32 7b3e9154bc647e34d867f397008705814c104d28f705512959b5b2f71220546e",
      "scriptpubkey_type": "v1_p2tr",
      "scriptpubkey_address": "bc1p0vlfz49uv3lrfkr87wtsppc9s9xpqnfg7uz4z22ekke0wy3q23hqkzrztm",
      "value": 546
    },
    {
      "scriptpubkey": "5120fbdee715f5e5d3909e3774972b0d4615accf7a11c4928fff7839e3fd6942851f",
      "scriptpubkey_asm": "OP_PUSHNUM_1 OP_PUSHBYTES_32 fbdee715f5e5d3909e3774972b0d4615accf7a11c4928fff7839e3fd6942851f",
      "scriptpubkey_type": "v1_p2tr",
      "scriptpubkey_address": "bc1pl00ww904uhfep83hwjtjkr2xzkkv77s3cjfgllmc883l662zs50sylhts4",
      "value": 35800
    },
    {
      "scriptpubkey": "51207b3e9154bc647e34d867f397008705814c104d28f705512959b5b2f71220546e",
      "scriptpubkey_asm": "OP_PUSHNUM_1 OP_PUSHBYTES_32 7b3e9154bc647e34d867f397008705814c104d28f705512959b5b2f71220546e",
      "scriptpubkey_type": "v1_p2tr",
      "scriptpubkey_address": "bc1p0vlfz49uv3lrfkr87wtsppc9s9xpqnfg7uz4z22ekke0wy3q23hqkzrztm",
      "value": 600
    },
    {
      "scriptpubkey": "51207b3e9154bc647e34d867f397008705814c104d28f705512959b5b2f71220546e",
      "scriptpubkey_asm": "OP_PUSHNUM_1 OP_PUSHBYTES_32 7b3e9154bc647e34d867f397008705814c104d28f705512959b5b2f71220546e",
      "scriptpubkey_type": "v1_p2tr",
      "scriptpubkey_address": "bc1p0vlfz49uv3lrfkr87wtsppc9s9xpqnfg7uz4z22ekke0wy3q23hqkzrztm",
      "value": 600
    },
    {
      "scriptpubkey": "51207b3e9154bc647e34d867f397008705814c104d28f705512959b5b2f71220546e",
      "scriptpubkey_asm": "OP_PUSHNUM_1 OP_PUSHBYTES_32 7b3e9154bc647e34d867f397008705814c104d28f705512959b5b2f71220546e",
      "scriptpubkey_type": "v1_p2tr",
      "scriptpubkey_address": "bc1p0vlfz49uv3lrfkr87wtsppc9s9xpqnfg7uz4z22ekke0wy3q23hqkzrztm",
      "value": 23020
    }
  ],
  "size": 699,
  "weight": 1995,
  "fee": 8483,
  "status": {
    "confirmed": true,
    "block_height": 834638,
    "block_hash": "000000000000000000025f742c626208ac87e0b7d15054abb4a19ca2d735a54e",
    "block_time": 1710405325
  },
  "hex": "020000000001044f05ecd7d94b034992a43585844c37ca2359278bf1c3bc5d82cb2337c06aa2cd0400000000ffffffff4f05ecd7d94b034992a43585844c37ca2359278bf1c3bc5d82cb2337c06aa2cd0300000000ffffffffbfe21127dd11ac006b1768f649cefa38dbe84a524a2152b4aade09e529fe92230000000000ffffffffe5d7ed0bc100596e82a63b9da19677ca00f9063d51144067afcf6f18cb277ab40100000000ffffffff06b0040000000000002251207b3e9154bc647e34d867f397008705814c104d28f705512959b5b2f71220546e22020000000000002251207b3e9154bc647e34d867f397008705814c104d28f705512959b5b2f71220546ed88b000000000000225120fbdee715f5e5d3909e3774972b0d4615accf7a11c4928fff7839e3fd6942851f58020000000000002251207b3e9154bc647e34d867f397008705814c104d28f705512959b5b2f71220546e58020000000000002251207b3e9154bc647e34d867f397008705814c104d28f705512959b5b2f71220546eec590000000000002251207b3e9154bc647e34d867f397008705814c104d28f705512959b5b2f71220546e01404bca73fd1d71f79d2c52985b7fbf4201d87df466ccdfe48fee60e3c94f13daccf8381acd0764ba67a9b91da30a2856fb9e0e7d7ed223145027d9a5f202632a3b0140fdeba7792a52b635b23597f0b583f35bd5d7e3a56c4b6b26f4c5b072ea75d9ba21eb65ed35f168af1c1557ab3b25134970834c252bea0d69124a7fe147f6fa7a01416e21b7117422483c10c7938119e9e5cd0c86924d195ae4df5cbe708337770ba31cac075db1feed42c41d5adf86154b8cc740ccce6f429a31120ecc2e548ecb9a830140e1bdb9745d5d7c13db6a1157217baa5b4668273446a736bc75f4622376862a7bb01819b0a08cc1ce1f374ea6427d8e76bae3fc1874ee20994383017944ee28b300000000"
}