{
  "txid": "efae6869c74dfa9c6410f7a9294f7cca8af33edbc6e3536f95deb43e2b26efb6",
  "version": 1,
  "locktime": 0,
  "vin": [
    {
      "txid": "e14fe568603f1c6519018363a545870a187a3de8c50a7c4c6ae8fedd6d88a979",
      "vout": 1,
      "prevout": {
        "scriptpubkey": "0014c967d413af5b1376136b3c332765bfe59c0af5e5",
        "scriptpubkey_asm": "OP_0 OP_PUSHBYTES_20 c967d413af5b1376136b3c332765bfe59c0af5e5",
        "scriptpubkey_type": "v0_p2wpkh",
        "scriptpubkey_address": "bc1qe9nagya0tvfhvymt8sejwedlukwq4a094h6ht9",
        "value": 23148660
      },
      "scriptsig": "",
      "scriptsig_asm": "",
      "witness": [
        "3045022100bbc715621f4e03c0fa94e19859a98de6d3d87dfe2b6459a317406d515a6da12602203e421871569d56877af7daca5be9311cab859963aee1ce27d5cef9a373f8200501",
        "029dd17fd23c1f221cd5acd8b397ab610aff84e485e5cb5af26772aa54db7a6883"
      ],
      "is_coinbase": false,
      "sequence": 4294967295
    }
  ],
  "vout": [
    {
      "scriptpubkey": "0014ffc6379861b8a48bb6bab39635708a296e6f2ec1",
      "scriptpubkey_asm": "OP_0 OP_PUSHBYTES_20 ffc6379861b8a48bb6bab39635708a296e6f2ec1",
      "scriptpubkey_type": "v0_p2wpkh",
      "scriptpubkey_address": "bc1qllrr0xrphzjghd46kwtr2uy299hx7tkpjjheyx",
      "value": 17434
    },
    {
      "scriptpubkey": "0014c967d413af5b1376136b3c332765bfe59c0af5e5",
      "scriptpubkey_asm": "OP_0 OP_PUSHBYTES_20 c967d413af5b1376136b3c332765bfe59c0af5e5",
      "scriptpubkey_type": "v0_p2wpkh",
      "scriptpubkey_address": "bc1qe9nagya0tvfhvymt8sejwedlukwq4a094h6ht9",
      "value": 23129196
    }
  ],
  "size": 223,
  "weight": 562,
  "fee": 2030,
  "status": {
    "confirmed": true,
    "block_height": 834460,
    "block_hash": "00000000000000000000484a79b643b2524bbce82e5d8a442013fa5b8905ed98",
    "block_time": 1710307468
  },
  "hex": "0100000000010179a9886dddfee86a4c7c0ac5e83d7a180a8745a563830119651c3f6068e54fe10100000000ffffffff021a44000000000000160014ffc6379861b8a48bb6bab39635708a296e6f2ec16cec600100000000160014c967d413af5b1376136b3c332765bfe59c0af5e502483045022100bbc715621f4e03c0fa94e19859a98de6d3d87dfe2b6459a317406d515a6da12602203e421871569d56877af7daca5be9311cab859963aee1ce27d5cef9a373f820050121029dd17fd23c1f221cd5acd8b397ab610aff84e485e5cb5af26772aa54db7a688300000000"
}