{
  "txid": "efc2568c6026f0d1e843e812035551eff424ac7c419dd26a2f9d5c8d7abb5a0a",
  "version": 1,
  "locktime": 0,
  "vin": [
    {
      "txid": "43b12d5f8dafe8857f5e7afdfa6a6f05bbbf9614313735366085c246df99c518",
      "vout": 1,
      "prevout": {
        "scriptpubkey": "a9147374db0100a102988d46660689e63b4167ca94c487",
        "scriptpubkey_asm": "OP_HASH160 OP_PUSHBYTES_20 7374db0100a102988d46660689e63b4167ca94c4 OP_EQUAL",
        "scriptpubkey_type": "p2sh",
        "scriptpubkey_address": "3CDVcsADFYiZjyRGPyYP5Q2ZA8s1YpDtzy",
        "value": 4126800
      },
      "scriptsig": "1600144e051102e0c2da9a8cbb79f0bac718b735e9bee5",
      "scriptsig_asm": "OP_PUSHBYTES_22 00144e051102e0c2da9a8cbb79f0bac718b735e9bee5",
      "witness": [
        "30450221008f7bd09847ec47df71682a815a1c38aa9e60e9d1125fa6d03d50d7f0bd46aa2402201475fb0bdc22831f44a35c05776a390cc759f537955086b492f86f8964eb4be301",
        "03df1e5d2b0f203a6a60dda05c9b3f625e4925e98a2ca31b620488ee1e54630178"
      ],
      "is_coinbase": false,
      "sequence": 4294967295,
      "inner_redeemscript_asm": "OP_0 OP_PUSHBYTES_20 4e051102e0c2da9a8cbb79f0bac718b735e9bee5"
    }
  ],
  "vout": [
    {
      "scriptpubkey": "a914dba7773d65a9548201eae3d46346bb865818797687",
      "scriptpubkey_asm": "OP_HASH160 OP_PUSHBYTES_20 dba7773d65a9548201eae3d46346bb8658187976 OP_EQUAL",
      "scriptpubkey_type": "p2sh",
      "scriptpubkey_address": "3MiSXHFfqFbs55BxQ1bVMHy7itmskyzy1o",
      "value": 27520
    },
    {
      "scriptpubkey": "00145df65fd1fe658dde2602fe113b6476193866552a",
      "scriptpubkey_asm": "OP_0 OP_PUSHBYTES_20 5df65fd1fe658dde2602fe113b6476193866552a",
      "scriptpubkey_type": "v0_p2wpkh",
      "scriptpubkey_address": "bc1qthm9l507vkxaufszlcgnkerkryuxv4f2fg8stx",
      "value": 68152
    },
    {
      "scriptpubkey": "0014d44e81e48f782bcc22cd71e0e907248eb8e94582",
      "scriptpubkey_asm": "OP_0 OP_PUSHBYTES_20 d44e81e48f782bcc22cd71e0e907248eb8e94582",
      "scriptpubkey_type": "v0_p2wpkh",
      "scriptpubkey_address": "bc1q638grey00q4ucgkdw8swjpey36uwj3vzg9dfl2",
      "value": 16354
    },
    {
      "scriptpubkey": "001453ce156bc4ec873c8b3b11685b8d0f20f5627330",
      "scriptpubkey_asm": "OP_0 OP_PUSHBYTES_20 53ce156bc4ec873c8b3b11685b8d0f20f5627330",
      "scriptpubkey_type": "v0_p2wpkh",
      "scriptpubkey_address": "bc1q208p267yajrnezemz959hrg0yr6kyuesrre7v9",
      "value": 50203
    },
    {
      "scriptpubkey": "00148d9d1faad6f6425759cd29f2cd4389f489de6c41",
      "scriptpubkey_asm": "OP_0 OP_PUSHBYTES_20 8d9d1faad6f6425759cd29f2cd4389f489de6c41",
      "scriptpubkey_type": "v0_p2wpkh",
      "scriptpubkey_address": "bc1q3kw3l2kk7ep9wkwd98ev6suf7jyaumzptpmjmz",
      "value": 100000
    },
    {
      "scriptpubkey": "001473b5cf1359d3441832ecea8688c4bb56590491ea",
      "scriptpubkey_asm": "OP_0 OP_PUSHBYTES_20 73b5cf1359d3441832ecea8688c4bb56590491ea",
      "scriptpubkey_type": "v0_p2wpkh",
      "scriptpubkey_address": "bc1qww6u7y6e6dzpsvhva2rg339m2evsfy02gh7fuu",
      "value": 63812
    },
    {
      "scriptpubkey": "0014e260a07b5720c93ed071355d4c24de87e329816b",
      "scriptpubkey_asm": "OP_0 OP_PUSHBYTES_20 e260a07b5720c93ed071355d4c24de87e329816b",
      "scriptpubkey_type": "v0_p2wpkh",
      "scriptpubkey_address": "bc1qufs2q76hyryna5r3x4w5cfx7sl3jnqtt8yda8q",
      "value": 149901
    },
    {
      "scriptpubkey": "0014cebcda06b34c5a09d9dd39c8d4839ad6718eb699",
      "scriptpubkey_asm": "OP_0 OP_PUSHBYTES_20 cebcda06b34c5a09d9dd39c8d4839ad6718eb699",
      "scriptpubkey_type": "v0_p2wpkh",
      "scriptpubkey_address": "bc1qe67d5p4nf3dqnkwa88ydfqu66eccad5eaesswp",
      "value": 640712
    },
    {
      "scriptpubkey": "001491ee5f8f3f42efeee4b53301dac83170d1851710",
      "scriptpubkey_asm": "OP_0 OP_PUSHBYTES_20 91ee5f8f3f42efeee4b53301dac83170d1851710",
      "scriptpubkey_type": "v0_p2wpkh",
      "scriptpubkey_address": "bc1qj8h9lrelgth7ae94xvqa4jp3wrgc29cscyryla",
      "value": 166575
    },
    {
      "scriptpubkey": "a9143c55a48bdec8ca46719fd38cc67a5adc9cbb1ab787",
      "scriptpubkey_asm": "OP_HASH160 OP_PUSHBYTES_20 3c55a48bdec8ca46719fd38cc67a5adc9cbb1ab7 OP_EQUAL",
      "scriptpubkey_type": "p2sh",
      "scriptpubkey_address": "37C34cjD6onvtsSArwhYerwdf18b5ZvLkz",
      "value": 156713
    },
    {
      "scriptpubkey": "0014b94cfa2b0a52b265d7c8ad72e9e3f9dd1faa400b",
      "scriptpubkey_asm": "OP_0 OP_PUSHBYTES_20 b94cfa2b0a52b265d7c8ad72e9e3f9dd1faa400b",
      "scriptpubkey_type": "v0_p2wpkh",
      "scriptpubkey_address": "bc1qh9x052c222ext47g44ewnclem5065sqt8addkz",
      "value": 29682
    },
    {
      "scriptpubkey": "0014d481853f56625b940a300c15c49a778a29d538f7",
      "scriptpubkey_asm": "OP_0 OP_PUSHBYTES_20 d481853f56625b940a300c15c49a778a29d538f7",
      "scriptpubkey_type": "v0_p2wpkh",
      "scriptpubkey_address": "bc1q6jqc206kvfdegz3sps2ufxnh3g5a2w8h09sjd7",
      "value": 1359582
    },
    {
      "scriptpubkey": "001420a69c65813049435a3150dd7772bef116df807a",
      "scriptpubkey_asm": "OP_0 OP_PUSHBYTES_20 20a69c65813049435a3150dd7772bef116df807a",
      "scriptpubkey_type": "v0_p2wpkh",
      "scriptpubkey_address": "bc1qyznfcevpxpy5xk332rwhwu477ytdlqr6m8j7hs",
      "value": 402475
    },
    {
      "scriptpubkey": "001444f09b5dc8a971ea42df70cbae571f56a6f8a6c4",
      "scriptpubkey_asm": "OP_0 OP_PUSHBYTES_20 44f09b5dc8a971ea42df70cbae571f56a6f8a6c4",
      "scriptpubkey_type": "v0_p2wpkh",
      "scriptpubkey_address": "bc1qgncfkhwg49c75sklwr96u4cl26n03fkyv54j7m",
      "value": 136274
    },
    {
      "scriptpubkey": "76a9149afbc791ca3defe1efe8b3abe21c05c0c9d1c28e88ac",
      "scriptpubkey_asm": "OP_DUP OP_HASH160 OP_PUSHBYTES_20 9afbc791ca3defe1efe8b3abe21c05c0c9d1c28e OP_EQUALVERIFY OP_CHECKSIG",
      "scriptpubkey_type": "p2pkh",
      "scriptpubkey_address": "1F8UgVbPeGarx7U7WcUgYs2y6zqQvquAgV",
      "value": 110915
    },
    {
      "scriptpubkey": "0014c59388008ba41057b80fa9256a38ec3c46fd69a9",
      "scriptpubkey_asm": "OP_0 OP_PUSHBYTES_20 c59388008ba41057b80fa9256a38ec3c46fd69a9",
      "scriptpubkey_type": "v0_p2wpkh",
      "scriptpubkey_address": "bc1qckfcsqyt5sg90wq04yjk5w8v83r066dfgld7w0",
      "value": 535415
    },
    {
      "scriptpubkey": "001458da61cf2ef7b478871743d2633351c89f5f9d8a",
      "scriptpubkey_asm": "OP_0 OP_PUSHBYTES_20 58da61cf2ef7b478871743d2633351c89f5f9d8a",
      "scriptpubkey_type": "v0_p2wpkh",
      "scriptpubkey_address": "bc1qtrdxrnew77683pchg0fxxv63ez04l8v2q6uddk",
      "value": 95401
    }
  ],
  "size": 716,
  "weight": 2534,
  "fee": 17114,
  "status": {
    "confirmed": true,
    "block_height": 834638,
    "block_hash": "000000000000000000025f742c626208ac87e0b7d15054abb4a19ca2d735a54e",
    "block_time": 1710405325
  },
  "hex": "0100000000010118c599df46c28560363537311496bfbb056f6afafd7a5e7f85e8af8d5f2db14301000000171600144e051102e0c2da9a8cbb79f0bac718b735e9bee5ffffffff11806b00000000000017a914dba7773d65a9548201eae3d46346bb865818797687380a0100000000001600145df65fd1fe658dde2602fe113b6476193866552ae23f000000000000160014d44e81e48f782bcc22cd71e0e907248eb8e945821bc400000000000016001453ce156bc4ec873c8b3b11685b8d0f20f5627330a0860100000000001600148d9d1faad6f6425759cd29f2cd4389f489de6c4144f900000000000016001473b5cf1359d3441832ecea8688c4bb56590491ea8d49020000000000160014e260a07b5720c93ed071355d4c24de87e329816bc8c6090000000000160014cebcda06b34c5a09d9dd39c8d4839ad6718eb699af8a02000000000016001491ee5f8f3f42efeee4b53301dac83170d1851710296402000000000017a9143c55a48bdec8ca46719fd38cc67a5adc9cbb1ab787f273000000000000160014b94cfa2b0a52b265d7c8ad72e9e3f9dd1faa400bdebe140000000000160014d481853f56625b940a300c15c49a778a29d538f72b2406000000000016001420a69c65813049435a3150dd7772bef116df807a521402000000000016001444f09b5dc8a971ea42df70cbae571f56a6f8a6c443b10100000000001976a9149afbc791ca3defe1efe8b3abe21c05c0c9d1c28e88ac772b080000000000160014c59388008ba41057b80fa9256a38ec3c46fd69a9a97401000000000016001458da61cf2ef7b478871743d2633351c89f5f9d8a024830450221008f7bd09847ec47df71682a815a1c38aa9e60e9d1125fa6d03d50d7f0bd46aa2402201475fb0bdc22831f44a35c05776a390cc759f537955086b492f86f8964eb4be3012103df1e5d2b0f203a6a60dda05c9b3f625e4925e98a2ca31b620488ee1e5463017800000000"
}