{
  "txid": "efd7ffafabb07c548fcfeb9f0eb862233828c466fb584e1e3dff21ef2316d56f",
  "version": 2,
  "locktime": 0,
  "vin": [
    {
      "txid": "7cde8edc2fec10780629a4dfeeed7d14041fc20788aff761d0cc939dfdbc7c83",
      "vout": 1,
      "prevout": {
        "scriptpubkey": "00144ac5d32eef8f65d03103f30f14c3c603420c7585",
        "scriptpubkey_asm": "OP_0 OP_PUSHBYTES_20 4ac5d32eef8f65d03103f30f14c3c603420c7585",
        "scriptpubkey_type": "v0_p2wpkh",
        "scriptpubkey_address": "bc1qftzaxth03ajaqvgr7v83fs7xqdpqcav9jas9pg",
        "value": 1305612
      },
      "scriptsig": "",
      "scriptsig_asm": "",
      "witness": [
        "30440220068e0ac482aa886edf2a31ee23d548f27c259e4df21e4cbacb0a296fe9a70dee0220550c98ad8a1350b1181c2f7f64dcf449b07ffda9d1009dfd2294212a433ad0f201",
        "0318a29cc1cff47a697769562814f8158f76a14278227b50da48b091207697f4d3"
      ],
      "is_coinbase": false,
      "sequence": 0
    }
  ],
  "vout": [
    {
      "scriptpubkey": "0014592dbc22e89f617be2a728db663f8ea1e1a87b81",
      "scriptpubkey_asm": "OP_0 OP_PUSHBYTES_20 592dbc22e89f617be2a728db663f8ea1e1a87b81",
      "scriptpubkey_type": "v0_p2wpkh",
      "scriptpubkey_address": "bc1qtykmcghgnashhc489rdkv0uw58s6s7uptttawn",
      "value": 1303632
    }
  ],
  "size": 191,
  "weight": 437,
  "fee": 1980,
  "status": {
    "confirmed": true,
    "block_height": 834638,
    "block_hash": "000000000000000000025f742c626208ac87e0b7d15054abb4a19ca2d735a54e",
    "block_time": 1710405325
  },
  "hex": "02000000000101837cbcfd9d93ccd061f7af8807c21f04147dedeedfa429067810ec2fdc8ede7c0100000000000000000150e4130000000000160014592dbc22e89f617be2a728db663f8ea1e1a87b81024730440220068e0ac482aa886edf2a31ee23d548f27c259e4df21e4cbacb0a296fe9a70dee0220550c98ad8a1350b1181c2f7f64dcf449b07ffda9d1009dfd2294212a433ad0f201210318a29cc1cff47a697769562814f8158f76a14278227b50da48b091207697f4d300000000"
}