{
  "txid": "eff5a7de30fd63106979278777865c9b3a07aa7699ece648e5609e707df2dc81",
  "version": 2,
  "locktime": 0,
  "vin": [
    {
      "txid": "df0246dca43cfe7a60c113e160d75cd93cb17a4abca3ce0eeb9f40048ec1d536",
      "vout": 0,
      "prevout": {
        "scriptpubkey": "5120e55642f7ff92082c8aabcee6c0db26ad0423ed5574a169d5fea30f8fd67f02bc",
        "scriptpubkey_asm": "OP_PUSHNUM_1 OP_PUSHBYTES_32 e55642f7ff92082c8aabcee6c0db26ad0423ed5574a169d5fea30f8fd67f02bc",
        "scriptpubkey_type": "v1_p2tr",
        "scriptpubkey_address": "bc1pu4ty9alljgyzez4temnvpkex45zz8m24wjskn4075v8cl4nlq27qjz5euy",
        "value": 2166
      },
      "scriptsig": "",
      "scriptsig_asm": "",
      "witness": [
        "40769431c2a9b6cb741585623b997a2dd979f38cc1129711fdc85dd6d42dc968bc7966cb82e829575072fc8afb0bbfb5876e7829a4eb1f3a68a41269465e6189",
        "2026d7c6ccdbdc76b0052029906ba571014c92a56cfaba33d827cac2e8550de265ac0063036f7264010118746578742f706c61696e3b636861727365743d7574662d38003f7b2270223a20226272632d3230222c20226f70223a20226d696e74222c20227469636b223a202241495a47222c2022616d74223a202232313030303030227d68",
        "c126d7c6ccdbdc76b0052029906ba571014c92a56cfaba33d827cac2e8550de265"
      ],
      "is_coinbase": false,
      "sequence": 4294967293
    }
  ],
  "vout": [
    {
      "scriptpubkey": "5120c117f9bc6e53b9e12c2de53309efcc2e7872a7a3ffc72e25a49743e913067347",
      "scriptpubkey_asm": "OP_PUSHNUM_1 OP_PUSHBYTES_32 c117f9bc6e53b9e12c2de53309efcc2e7872a7a3ffc72e25a49743e913067347",
      "scriptpubkey_type": "v1_p2tr",
      "scriptpubkey_address": "bc1pcytln0rw2wu7ztpdu5esnm7v9eu89farllrjufdyjap7jycxwdrs86mlr5",
      "value": 330
    }
  ],
  "size": 330,
  "weight": 612,
  "fee": 1836,
  "status": {
    "confirmed": true,
    "block_height": 834460,
    "block_hash": "00000000000000000000484a79b643b2524bbce82e5d8a442013fa5b8905ed98",
    "block_time": 1710307468
  },
  "hex": "0200000000010136d5c18e04409feb0ecea3bc4a7ab13cd95cd760e113c1607afe3ca4dc4602df0000000000fdffffff014a01000000000000225120c117f9bc6e53b9e12c2de53309efcc2e7872a7a3ffc72e25a49743e913067347034040769431c2a9b6cb741585623b997a2dd979f38cc1129711fdc85dd6d42dc968bc7966cb82e829575072fc8afb0bbfb5876e7829a4eb1f3a68a41269465e6189852026d7c6ccdbdc76b0052029906ba571014c92a56cfaba33d827cac2e8550de265ac0063036f7264010118746578742f706c61696e3b636861727365743d7574662d38003f7b2270223a20226272632d3230222c20226f70223a20226d696e74222c20227469636b223a202241495a47222c2022616d74223a202232313030303030227d6821c126d7c6ccdbdc76b0052029906ba571014c92a56cfaba33d827cac2e8550de26500000000"
}