{
  "txid": "f01605ef7805d33875e54cf0e00ec4da251065f1b289733096c66df19241afd9",
  "version": 1,
  "locktime": 0,
  "vin": [
    {
      "txid": "8888888c0130d2ea730d7225c6574ef09ce37502286a90ca8c573d857725c7db",
      "vout": 0,
      "prevout": {
        "scriptpubkey": "5120fd6c6718fa6fe5fce31b04fcf2e37ee76649080a896ca08a40e50f281f76aa3a",
        "scriptpubkey_asm": "OP_PUSHNUM_1 OP_PUSHBYTES_32 fd6c6718fa6fe5fce31b04fcf2e37ee76649080a896ca08a40e50f281f76aa3a",
        "scriptpubkey_type": "v1_p2tr",
        "scriptpubkey_address": "bc1pl4kxwx86dljleccmqn709cm7uanyjzq239k2pzjqu58js8mk4gaqe85par",
        "value": 11627
      },
      "scriptsig": "",
      "scriptsig_asm": "",
      "witness": [
        "44ef7ce3b3bcb9a101baea68efaadd7e54bd3eb178db4dc0297968fb64427298c37341ffb4fe9917643a0702fb57e74873d555c3d9b7556b777e4e2223157cc583",
        "20930d4ffacedaeeda983fbe6875a3f39bad4c323e8346d8dda5652f8cfd9db2eaac00630461746f6d03646d7442a16461726773a468626974776f726b6367383838383838386b6d696e745f7469636b657268696e66696e697479656e6f6e63651a0062e94e6474696d651a65dc630d68",
        "c0930d4ffacedaeeda983fbe6875a3f39bad4c323e8346d8dda5652f8cfd9db2ea"
      ],
      "is_coinbase": false,
      "sequence": 4294967293
    }
  ],
  "vout": [
    {
      "scriptpubkey": "5120bf94882e5d0c036449dc3f1782adc8fe707e6d03ea0ecdd97e048b8da94a44b1",
      "scriptpubkey_asm": "OP_PUSHNUM_1 OP_PUSHBYTES_32 bf94882e5d0c036449dc3f1782adc8fe707e6d03ea0ecdd97e048b8da94a44b1",
      "scriptpubkey_type": "v1_p2tr",
      "scriptpubkey_address": "bc1ph72gstjapspkgjwu8utc9twglec8umgrag8vmkt7qj9cm222gjcsurlt3p",
      "value": 9999
    }
  ],
  "size": 311,
  "weight": 593,
  "fee": 1628,
  "status": {
    "confirmed": true,
    "block_height": 834464,
    "block_hash": "0000000000000000000177a0869a911a2b65c9bdcd5a8bcb02b68f305bee848e",
    "block_time": 1710308296
  },
  "hex": "01000000000101dbc72577853d578cca906a280275e39cf04e57c625720d73ead230018c8888880000000000fdffffff010f27000000000000225120bf94882e5d0c036449dc3f1782adc8fe707e6d03ea0ecdd97e048b8da94a44b1034144ef7ce3b3bcb9a101baea68efaadd7e54bd3eb178db4dc0297968fb64427298c37341ffb4fe9917643a0702fb57e74873d555c3d9b7556b777e4e2223157cc5837120930d4ffacedaeeda983fbe6875a3f39bad4c323e8346d8dda5652f8cfd9db2eaac00630461746f6d03646d7442a16461726773a468626974776f726b6367383838383838386b6d696e745f7469636b657268696e66696e697479656e6f6e63651a0062e94e6474696d651a65dc630d6821c0930d4ffacedaeeda983fbe6875a3f39bad4c323e8346d8dda5652f8cfd9db2ea00000000"
}