{
  "txid": "f01ad807f854a6930c0300298648b2912b524ca6b7ddff12f8b8a16c6dc7f133",
  "version": 1,
  "locktime": 0,
  "vin": [
    {
      "txid": "6583033dcdeec8fd559b45901605e94b9237ece6abbbffb50221ac70f49d0704",
      "vout": 1,
      "prevout": {
        "scriptpubkey": "a9146a5969bde384b949d388c4a8a192dca35fd4dc7f87",
        "scriptpubkey_asm": "OP_HASH160 OP_PUSHBYTES_20 6a5969bde384b949d388c4a8a192dca35fd4dc7f OP_EQUAL",
        "scriptpubkey_type": "p2sh",
        "scriptpubkey_address": "3BPLfQUuYNqqYVpKdKgGSdwvwh2K13c39H",
        "value": 79030708
      },
      "scriptsig": "1600140ca257ff20f32979673db7423d803db362638ecd",
      "scriptsig_asm": "OP_PUSHBYTES_22 00140ca257ff20f32979673db7423d803db362638ecd",
      "witness": [
        "304402203543d96fb9a4bdc905af6f134e9b83e75b3bfa266f43e740906678dfab63be6b022007bb6987c84786914839ce67263e5d0863a0d955394463410ac707fd257ea00901",
        "03aac353f8707e3f853609f9c52e8a3afbeed679474d204c375b353ca82f730260"
      ],
      "is_coinbase": false,
      "sequence": 0,
      "inner_redeemscript_asm": "OP_0 OP_PUSHBYTES_20 0ca257ff20f32979673db7423d803db362638ecd"
    },
    {
      "txid": "d53737282d12c083458c9c0909f26186761e19608473026adfb18150813f7076",
      "vout": 0,
      "prevout": {
        "scriptpubkey": "a9146a5969bde384b949d388c4a8a192dca35fd4dc7f87",
        "scriptpubkey_asm": "OP_HASH160 OP_PUSHBYTES_20 6a5969bde384b949d388c4a8a192dca35fd4dc7f OP_EQUAL",
        "scriptpubkey_type": "p2sh",
        "scriptpubkey_address": "3BPLfQUuYNqqYVpKdKgGSdwvwh2K13c39H",
        "value": 2787435523
      },
      "scriptsig": "1600140ca257ff20f32979673db7423d803db362638ecd",
      "scriptsig_asm": "OP_PUSHBYTES_22 00140ca257ff20f32979673db7423d803db362638ecd",
      "witness": [
        "3045022100b9fc37faf217da9e8072908105da57a0daaeea99cc02f810058c8124acac280d02201c84bbca98ea6d46b0d57618bdf946734f331aad4d32ee967406938cfb0cdba101",
        "03aac353f8707e3f853609f9c52e8a3afbeed679474d204c375b353ca82f730260"
      ],
      "is_coinbase": false,
      "sequence": 0,
      "inner_redeemscript_asm": "OP_0 OP_PUSHBYTES_20 0ca257ff20f32979673db7423d803db362638ecd"
    }
  ],
  "vout": [
    {
      "scriptpubkey": "76a9144b9cf38717a54772ff71ed5d40733db417a18d4e88ac",
      "scriptpubkey_asm": "OP_DUP OP_HASH160 OP_PUSHBYTES_20 4b9cf38717a54772ff71ed5d40733db417a18d4e OP_EQUALVERIFY OP_CHECKSIG",
      "scriptpubkey_type": "p2pkh",
      "scriptpubkey_address": "17tohZ6eZApcua3SeRQcbXMiQCCW5aYn34",
      "value": 2787435523
    },
    {
      "scriptpubkey": "a9146a5969bde384b949d388c4a8a192dca35fd4dc7f87",
      "scriptpubkey_asm": "OP_HASH160 OP_PUSHBYTES_20 6a5969bde384b949d388c4a8a192dca35fd4dc7f OP_EQUAL",
      "scriptpubkey_type": "p2sh",
      "scriptpubkey_address": "3BPLfQUuYNqqYVpKdKgGSdwvwh2K13c39H",
      "value": 79023948
    }
  ],
  "size": 421,
  "weight": 1033,
  "fee": 6760,
  "status": {
    "confirmed": true,
    "block_height": 834638,
    "block_hash": "000000000000000000025f742c626208ac87e0b7d15054abb4a19ca2d735a54e",
    "block_time": 1710405325
  },
  "hex": "0100000000010204079df470ac2102b5ffbbabe6ec37924be9051690459b55fdc8eecd3d03836501000000171600140ca257ff20f32979673db7423d803db362638ecd0000000076703f815081b1df6a02738460191e768661f209099c8c4583c0122d283737d500000000171600140ca257ff20f32979673db7423d803db362638ecd000000000203e424a6000000001976a9144b9cf38717a54772ff71ed5d40733db417a18d4e88ac4ccfb5040000000017a9146a5969bde384b949d388c4a8a192dca35fd4dc7f870247304402203543d96fb9a4bdc905af6f134e9b83e75b3bfa266f43e740906678dfab63be6b022007bb6987c84786914839ce67263e5d0863a0d955394463410ac707fd257ea009012103aac353f8707e3f853609f9c52e8a3afbeed679474d204c375b353ca82f73026002483045022100b9fc37faf217da9e8072908105da57a0daaeea99cc02f810058c8124acac280d02201c84bbca98ea6d46b0d57618bdf946734f331aad4d32ee967406938cfb0cdba1012103aac353f8707e3f853609f9c52e8a3afbeed679474d204c375b353ca82f73026000000000"
}