{
  "txid": "f02486d56b084ff316697f4e148b32e640e60b47eb747b3adc29d8ce0939ef61",
  "version": 2,
  "locktime": 834637,
  "vin": [
    {
      "txid": "fe81800cb6c1b80096941ab3ba21f9d2204387e515aa8f3da8421f8a4f8931c1",
      "vout": 0,
      "prevout": {
        "scriptpubkey": "0014d5ffb5ddab20c033ec0e1028fb0ec6d827b567ea",
        "scriptpubkey_asm": "OP_0 OP_PUSHBYTES_20 d5ffb5ddab20c033ec0e1028fb0ec6d827b567ea",
        "scriptpubkey_type": "v0_p2wpkh",
        "scriptpubkey_address": "bc1q6hlmthdtyrqr8mqwzq50krkxmqnm2el2mu7xap",
        "value": 2817921
      },
      "scriptsig": "",
      "scriptsig_asm": "",
      "witness": [
        "304402200a805d4545cf845788ed0a7e67d5fd1cc6f75f32b55e8c871adbbd0c7969177e0220482e6a570b829bdbfd0abd0256e4bc6670519c2c917cc5e3ccce830cd6bde32401",
        "029de2f968f188f8b4dfdb54105d3866447d3acefc55d7a204fa2ded56cdb282c5"
      ],
      "is_coinbase": false,
      "sequence": 4294967293
    }
  ],
  "vout": [
    {
      "scriptpubkey": "0014318895d86c9f5899a6ad792dae7ec88f11a93133",
      "scriptpubkey_asm": "OP_0 OP_PUSHBYTES_20 318895d86c9f5899a6ad792dae7ec88f11a93133",
      "scriptpubkey_type": "v0_p2wpkh",
      "scriptpubkey_address": "bc1qxxyftkrvnavfnf4d0yk6ulkg3ug6jvfn0tqgt4",
      "value": 19350
    },
    {
      "scriptpubkey": "001406a595156e59a33e9ee738f18218d322e0221f4c",
      "scriptpubkey_asm": "OP_0 OP_PUSHBYTES_20 06a595156e59a33e9ee738f18218d322e0221f4c",
      "scriptpubkey_type": "v0_p2wpkh",
      "scriptpubkey_address": "bc1qq6je29twtx3na8h88rccyxxnytszy86vd536uv",
      "value": 2796325
    }
  ],
  "size": 222,
  "weight": 561,
  "fee": 2246,
  "status": {
    "confirmed": true,
    "block_height": 834638,
    "block_hash": "000000000000000000025f742c626208ac87e0b7d15054abb4a19ca2d735a54e",
    "block_time": 1710405325
  },
  "hex": "02000000000101c131894f8a1f42a83d8faa15e5874320d2f921bab31a949600b8c1b60c8081fe0000000000fdffffff02964b000000000000160014318895d86c9f5899a6ad792dae7ec88f11a9313325ab2a000000000016001406a595156e59a33e9ee738f18218d322e0221f4c0247304402200a805d4545cf845788ed0a7e67d5fd1cc6f75f32b55e8c871adbbd0c7969177e0220482e6a570b829bdbfd0abd0256e4bc6670519c2c917cc5e3ccce830cd6bde3240121029de2f968f188f8b4dfdb54105d3866447d3acefc55d7a204fa2ded56cdb282c54dbc0c00"
}