{
  "txid": "f039b89e14fc759425e8c3762d48b4fea7f9d01cf4ccaf2275479ac0ab05bef4",
  "version": 1,
  "locktime": 0,
  "vin": [
    {
      "txid": "d469180799a6cbbdf54001fc041b1b2fdc4e24bcf1f19d1a60bd20a87b9537f3",
      "vout": 0,
      "prevout": {
        "scriptpubkey": "00209b693e590a4df2d010dd6089c6b3cbbe74edb500c0c75ffd7932f4158cfa56cb",
        "scriptpubkey_asm": "OP_0 OP_PUSHBYTES_32 9b693e590a4df2d010dd6089c6b3cbbe74edb500c0c75ffd7932f4158cfa56cb",
        "scriptpubkey_type": "v0_p2wsh",
        "scriptpubkey_address": "bc1qnd5nukg2fhedqyxavzyudv7the6wmdgqcrr4lltext6ptr862m9s6l2vdh",
        "value": 69738
      },
      "scriptsig": "",
      "scriptsig_asm": "",
      "witness": [
        "8b72660d059b7911ea2e5179b49ad287a8c4b6ccd8e6eb35f406298fe110b854",
        "304402205e01d5b5e6443905c1f53205304025d8efa4700792a22f36d340f2ae7968c075022034ef8a769c854ed3a78a17bcdecc6b68176c4c52e1922905e739fefbefec80c101",
        "30440220566a58bd048d6c7d1ed963c1baa4757b9e788496cc4bfc62c1891104547c5f2a022024b4b3cccf30e077ed53c2ab6bef3681c06c4bb1614499c66186c3d96eb565ae01",
        "2103b6ac1120582761a415be5f2e9d58d877e9f46bab38fc772216ca50a12234e708ac6476a91450f8ce13f561688cc510d8009a2003ec4aa457b288ad03dbbb0cb16721029249fd1f855d266488faa8eb21b3b22816d601817811f17f119a9f2c24119868ad82012088a914be34856e4485f53eb1584ad052f2090b587770f38768"
      ],
      "is_coinbase": false,
      "sequence": 4294967295,
      "inner_witnessscript_asm": "OP_PUSHBYTES_33 03b6ac1120582761a415be5f2e9d58d877e9f46bab38fc772216ca50a12234e708 OP_CHECKSIG OP_NOTIF OP_DUP OP_HASH160 OP_PUSHBYTES_20 50f8ce13f561688cc510d8009a2003ec4aa457b2 OP_EQUALVERIFY OP_CHECKSIGVERIFY OP_PUSHBYTES_3 dbbb0c OP_CLTV OP_ELSE OP_PUSHBYTES_33 029249fd1f855d266488faa8eb21b3b22816d601817811f17f119a9f2c24119868 OP_CHECKSIGVERIFY OP_SIZE OP_PUSHBYTES_1 20 OP_EQUALVERIFY OP_HASH160 OP_PUSHBYTES_20 be34856e4485f53eb1584ad052f2090b587770f3 OP_EQUAL OP_ENDIF"
    }
  ],
  "vout": [
    {
      "scriptpubkey": "5120c261c079976f8721ed5a053ef52e23b6ca1bf381e45b73b6faf7ecb60595f375",
      "scriptpubkey_asm": "OP_PUSHNUM_1 OP_PUSHBYTES_32 c261c079976f8721ed5a053ef52e23b6ca1bf381e45b73b6faf7ecb60595f375",
      "scriptpubkey_type": "v1_p2tr",
      "scriptpubkey_address": "bc1pcfsuq7vhd7rjrm26q5l02t3rkm9phuupu3dh8dh67lktvpv47d6s3x7t5y",
      "value": 67455
    }
  ],
  "size": 405,
  "weight": 687,
  "fee": 2283,
  "status": {
    "confirmed": true,
    "block_height": 834460,
    "block_hash": "00000000000000000000484a79b643b2524bbce82e5d8a442013fa5b8905ed98",
    "block_time": 1710307468
  },
  "hex": "01000000000101f337957ba820bd601a9df1f1bc244edc2f1b1b04fc0140f5bdcba699071869d40000000000ffffffff017f07010000000000225120c261c079976f8721ed5a053ef52e23b6ca1bf381e45b73b6faf7ecb60595f37504208b72660d059b7911ea2e5179b49ad287a8c4b6ccd8e6eb35f406298fe110b85447304402205e01d5b5e6443905c1f53205304025d8efa4700792a22f36d340f2ae7968c075022034ef8a769c854ed3a78a17bcdecc6b68176c4c52e1922905e739fefbefec80c1014730440220566a58bd048d6c7d1ed963c1baa4757b9e788496cc4bfc62c1891104547c5f2a022024b4b3cccf30e077ed53c2ab6bef3681c06c4bb1614499c66186c3d96eb565ae01822103b6ac1120582761a415be5f2e9d58d877e9f46bab38fc772216ca50a12234e708ac6476a91450f8ce13f561688cc510d8009a2003ec4aa457b288ad03dbbb0cb16721029249fd1f855d266488faa8eb21b3b22816d601817811f17f119a9f2c24119868ad82012088a914be34856e4485f53eb1584ad052f2090b587770f3876800000000"
}