{
  "txid": "f042eb6320bb69942c5541e5acd8f64565ea956366d5bcfff90a807277233754",
  "version": 2,
  "locktime": 0,
  "vin": [
    {
      "txid": "72324c1b301ea88f7dbdd274a9ddcb757cf0a402ac533eb4b735513038f6987c",
      "vout": 1,
      "prevout": {
        "scriptpubkey": "00144ef02cc9c532c50c1c58656660ee6e52a5ea14cb",
        "scriptpubkey_asm": "OP_0 OP_PUSHBYTES_20 4ef02cc9c532c50c1c58656660ee6e52a5ea14cb",
        "scriptpubkey_type": "v0_p2wpkh",
        "scriptpubkey_address": "bc1qfmczejw9xtzsc8zcv4nxpmnw22j759xtzk6st4",
        "value": 4320000
      },
      "scriptsig": "",
      "scriptsig_asm": "",
      "witness": [
        "30440220781f539df267988dd53c45e9866233cc1755e6af7d6289d36bd9dd99681647b802202a79a1f266fafbc657b2b2b7a83447ed87578a588a9206e64f1f1acadfd6d89f01",
        "03da824f125f2a9d604b3e9ffa2a9850066014f5403002b4c52df05b2cd85deaee"
      ],
      "is_coinbase": false,
      "sequence": 4294967295
    }
  ],
  "vout": [
    {
      "scriptpubkey": "00142e170701a8aae72471a7c8ac6628a7decd0101e9",
      "scriptpubkey_asm": "OP_0 OP_PUSHBYTES_20 2e170701a8aae72471a7c8ac6628a7decd0101e9",
      "scriptpubkey_type": "v0_p2wpkh",
      "scriptpubkey_address": "bc1q9ctswqdg4tnjgud8ezkxv298mmxszq0fsyqyex",
      "value": 826708
    },
    {
      "scriptpubkey": "001438acfec1c1b70fc4546ea757b1771b5993e46bab",
      "scriptpubkey_asm": "OP_0 OP_PUSHBYTES_20 38acfec1c1b70fc4546ea757b1771b5993e46bab",
      "scriptpubkey_type": "v0_p2wpkh",
      "scriptpubkey_address": "bc1q8zk0aswpku8ug4rw5atmzacmtxf7g6atldnnyf",
      "value": 3491195
    }
  ],
  "size": 222,
  "weight": 561,
  "fee": 2097,
  "status": {
    "confirmed": true,
    "block_height": 834638,
    "block_hash": "000000000000000000025f742c626208ac87e0b7d15054abb4a19ca2d735a54e",
    "block_time": 1710405325
  },
  "hex": "020000000001017c98f638305135b7b43e53ac02a4f07c75cbdda974d2bd7d8fa81e301b4c32720100000000ffffffff02549d0c00000000001600142e170701a8aae72471a7c8ac6628a7decd0101e97b4535000000000016001438acfec1c1b70fc4546ea757b1771b5993e46bab024730440220781f539df267988dd53c45e9866233cc1755e6af7d6289d36bd9dd99681647b802202a79a1f266fafbc657b2b2b7a83447ed87578a588a9206e64f1f1acadfd6d89f012103da824f125f2a9d604b3e9ffa2a9850066014f5403002b4c52df05b2cd85deaee00000000"
}