{
  "txid": "f05c213f692e0b291c10a6adac7ea9baf4a1ffbd9442599535fff09cf278cf66",
  "version": 2,
  "locktime": 0,
  "vin": [
    {
      "txid": "6254a585f1d30e89be7bd71bd35295d26c0ca8016889196cf139e5c615d7db80",
      "vout": 0,
      "prevout": {
        "scriptpubkey": "001469e6da26ff49c53dce5af7f08e71fc77cb1889e9",
        "scriptpubkey_asm": "OP_0 OP_PUSHBYTES_20 69e6da26ff49c53dce5af7f08e71fc77cb1889e9",
        "scriptpubkey_type": "v0_p2wpkh",
        "scriptpubkey_address": "bc1qd8nd5fhlf8znmnj67lcguu0uwl933z0fcgyn6t",
        "value": 20000
      },
      "scriptsig": "",
      "scriptsig_asm": "",
      "witness": [
        "3045022100fd9f214364088690e239447b810fa0ffbdd69d02a9493ff5a50ecaabad3856f502203ef4af760fb0e8a4f370c8486e67dac30188a29430728944f7703fd69b46a58e01",
        "030c40f07eca878744202338e27d858344ca251e7bc74adb328160f937fdf24942"
      ],
      "is_coinbase": false,
      "sequence": 4294967295
    }
  ],
  "vout": [
    {
      "scriptpubkey": "0014161ee977b5df4c254fb63926a59c21d8997a1721",
      "scriptpubkey_asm": "OP_0 OP_PUSHBYTES_20 161ee977b5df4c254fb63926a59c21d8997a1721",
      "scriptpubkey_type": "v0_p2wpkh",
      "scriptpubkey_address": "bc1qzc0wjaa4maxz2nak8yn2t8ppmzvh59epp6333w",
      "value": 18768
    }
  ],
  "size": 192,
  "weight": 438,
  "fee": 1232,
  "status": {
    "confirmed": true,
    "block_height": 834460,
    "block_hash": "00000000000000000000484a79b643b2524bbce82e5d8a442013fa5b8905ed98",
    "block_time": 1710307468
  },
  "hex": "0200000000010180dbd715c6e539f16c19896801a80c6cd29552d31bd77bbe890ed3f185a554620000000000ffffffff015049000000000000160014161ee977b5df4c254fb63926a59c21d8997a172102483045022100fd9f214364088690e239447b810fa0ffbdd69d02a9493ff5a50ecaabad3856f502203ef4af760fb0e8a4f370c8486e67dac30188a29430728944f7703fd69b46a58e0121030c40f07eca878744202338e27d858344ca251e7bc74adb328160f937fdf2494200000000"
}