{
  "txid": "f062a7f5c9b7488a22933254a5e0a54d3f994a658987c82aa9bfc832e938053d",
  "version": 1,
  "locktime": 0,
  "vin": [
    {
      "txid": "80a4638e0d2ba4b2910639c944dfaaa649a608122bc6c9b075c818923b42bdbb",
      "vout": 0,
      "prevout": {
        "scriptpubkey": "a914b4866d73883ed92c5a6b4ec069cfd4122f738e3b87",
        "scriptpubkey_asm": "OP_HASH160 OP_PUSHBYTES_20 b4866d73883ed92c5a6b4ec069cfd4122f738e3b OP_EQUAL",
        "scriptpubkey_type": "p2sh",
        "scriptpubkey_address": "3J9YbGC7QiWu6t5HQvyq9nk9J8ZmGWZrr2",
        "value": 9573707
      },
      "scriptsig": "1600148700769d609a88a7fb63a4ae22d8b3d0b0e7d535",
      "scriptsig_asm": "OP_PUSHBYTES_22 00148700769d609a88a7fb63a4ae22d8b3d0b0e7d535",
      "witness": [
        "304502210087cade99866babc910d75576b8ddc0af8e3b50dd4985fae5a66effbe20fbd13102204139eae313306fd1cd4814c28a7993b44bb951c68feb6a27f36d609726025bf201",
        "03ea19bd1fc04e00711ed3cff0d060c586c1eaa26f2000211f5332b8ef82dbe962"
      ],
      "is_coinbase": false,
      "sequence": 4294967293,
      "inner_redeemscript_asm": "OP_0 OP_PUSHBYTES_20 8700769d609a88a7fb63a4ae22d8b3d0b0e7d535"
    }
  ],
  "vout": [
    {
      "scriptpubkey": "001405460f3d27e3dc3ee588f7a06b2ea07e15190dcc",
      "scriptpubkey_asm": "OP_0 OP_PUSHBYTES_20 05460f3d27e3dc3ee588f7a06b2ea07e15190dcc",
      "scriptpubkey_type": "v0_p2wpkh",
      "scriptpubkey_address": "bc1qq4rq70f8u0wraevg77sxkt4q0c23jrwv5vsd5k",
      "value": 100000
    },
    {
      "scriptpubkey": "a9146dea20e377765312e0ad8e476ad83ddd06bae84d87",
      "scriptpubkey_asm": "OP_HASH160 OP_PUSHBYTES_20 6dea20e377765312e0ad8e476ad83ddd06bae84d OP_EQUAL",
      "scriptpubkey_type": "p2sh",
      "scriptpubkey_address": "3BiC3z4VibRkjRDoCWAJPchXgPLHaTtZkf",
      "value": 9471727
    }
  ],
  "size": 247,
  "weight": 658,
  "fee": 1980,
  "status": {
    "confirmed": true,
    "block_height": 834460,
    "block_hash": "00000000000000000000484a79b643b2524bbce82e5d8a442013fa5b8905ed98",
    "block_time": 1710307468
  },
  "hex": "01000000000101bbbd423b9218c875b0c9c62b1208a649a6aadf44c9390691b2a42b0d8e63a48000000000171600148700769d609a88a7fb63a4ae22d8b3d0b0e7d535fdffffff02a08601000000000016001405460f3d27e3dc3ee588f7a06b2ea07e15190dccef8690000000000017a9146dea20e377765312e0ad8e476ad83ddd06bae84d870248304502210087cade99866babc910d75576b8ddc0af8e3b50dd4985fae5a66effbe20fbd13102204139eae313306fd1cd4814c28a7993b44bb951c68feb6a27f36d609726025bf2012103ea19bd1fc04e00711ed3cff0d060c586c1eaa26f2000211f5332b8ef82dbe96200000000"
}