{
  "txid": "f06f753521a12846778d9433cc283977687b418651519bcedd858f45557cd0db",
  "version": 2,
  "locktime": 0,
  "vin": [
    {
      "txid": "67b9f087ebe0d5a3ea85f514628d56d55ae5cb0cb8c05c65cc2318d47b00444d",
      "vout": 7,
      "prevout": {
        "scriptpubkey": "0014bb452d3dabef60d5ae44fdcf333120f6f13a7603",
        "scriptpubkey_asm": "OP_0 OP_PUSHBYTES_20 bb452d3dabef60d5ae44fdcf333120f6f13a7603",
        "scriptpubkey_type": "v0_p2wpkh",
        "scriptpubkey_address": "bc1qhdzj60dtaasdttjylh8nxvfq7mcn5asrnffm22",
        "value": 993300
      },
      "scriptsig": "",
      "scriptsig_asm": "",
      "witness": [
        "30450221009ca8a88333b8d4637d21079bc20fbd6de3fc344414c03f0f829410837ec6b3eb022037e9b48108c506728995bc7f69751a903bc16fcb597832b3eea0f0dee1ed0fec01",
        "03358dfe02312e2db4f66bc3de96280831fdb05c0b9be64de8fa013f1302917887"
      ],
      "is_coinbase": false,
      "sequence": 4294967295
    }
  ],
  "vout": [
    {
      "scriptpubkey": "0014406649214e14906bc82390c5dcd07cf98e2af4f2",
      "scriptpubkey_asm": "OP_0 OP_PUSHBYTES_20 406649214e14906bc82390c5dcd07cf98e2af4f2",
      "scriptpubkey_type": "v0_p2wpkh",
      "scriptpubkey_address": "bc1qgpnyjg2wzjgxhjprjrzae5rulx8z4a8j2cg2v7",
      "value": 991250
    }
  ],
  "size": 192,
  "weight": 438,
  "fee": 2050,
  "status": {
    "confirmed": true,
    "block_height": 834638,
    "block_hash": "000000000000000000025f742c626208ac87e0b7d15054abb4a19ca2d735a54e",
    "block_time": 1710405325
  },
  "hex": "020000000001014d44007bd41823cc655cc0b80ccbe55ad5568d6214f585eaa3d5e0eb87f0b9670700000000ffffffff0112200f0000000000160014406649214e14906bc82390c5dcd07cf98e2af4f2024830450221009ca8a88333b8d4637d21079bc20fbd6de3fc344414c03f0f829410837ec6b3eb022037e9b48108c506728995bc7f69751a903bc16fcb597832b3eea0f0dee1ed0fec012103358dfe02312e2db4f66bc3de96280831fdb05c0b9be64de8fa013f130291788700000000"
}