{
  "txid": "f0741304e5194adda43fb73aeab2495c749e4d30b04cac2ba3f288032fae5eb2",
  "version": 2,
  "locktime": 0,
  "vin": [
    {
      "txid": "acc3ba00869acb582a3f2904ce3a11dd3779350ce234063fc7d0959246213364",
      "vout": 94,
      "prevout": {
        "scriptpubkey": "51205970b89c5bef0510aa5e8ef4ba91e26dc4c543af13397473706a4504228616f1",
        "scriptpubkey_asm": "OP_PUSHNUM_1 OP_PUSHBYTES_32 5970b89c5bef0510aa5e8ef4ba91e26dc4c543af13397473706a4504228616f1",
        "scriptpubkey_type": "v1_p2tr",
        "scriptpubkey_address": "bc1pt9ct38zmauz3p2j73m6t4y0zdhzv2sa0zvuhgumsdfzsgg5xzmcsujn6ls",
        "value": 1806
      },
      "scriptsig": "",
      "scriptsig_asm": "",
      "witness": [
        "84c9768bb77c673d77ca51f1efceca2784421f8c2884884b4cd7a7c12dace4afbbd7761482e1455f4d8df91aa51d026e27f9d3af0712ea59ffdbc44e077c1c51",
        "209b1e48d1523d0a5ac2302353b1c0b5a569b2613c35986fc8a371bcd8f809d817ac0063036f726401010a746578742f706c61696e00357b2270223a226272632d3230222c226f70223a226d696e74222c227469636b223a22646f6765222c22616d74223a2234323030227d68",
        "c19b1e48d1523d0a5ac2302353b1c0b5a569b2613c35986fc8a371bcd8f809d817"
      ],
      "is_coinbase": false,
      "sequence": 4261412863
    }
  ],
  "vout": [
    {
      "scriptpubkey": "00147a665de7a370f4c9b372ab1fae587500a5bcbdb4",
      "scriptpubkey_asm": "OP_0 OP_PUSHBYTES_20 7a665de7a370f4c9b372ab1fae587500a5bcbdb4",
      "scriptpubkey_type": "v0_p2wpkh",
      "scriptpubkey_address": "bc1q0fn9mearwr6vnvmj4v06ukr4qzjme0d565dzcx",
      "value": 294
    }
  ],
  "size": 294,
  "weight": 540,
  "fee": 1512,
  "status": {
    "confirmed": true,
    "block_height": 834460,
    "block_hash": "00000000000000000000484a79b643b2524bbce82e5d8a442013fa5b8905ed98",
    "block_time": 1710307468
  },
  "hex": "02000000000101643321469295d0c73f0634e20c357937dd113ace04293f2a58cb9a8600bac3ac5e00000000fffffffd0126010000000000001600147a665de7a370f4c9b372ab1fae587500a5bcbdb4034084c9768bb77c673d77ca51f1efceca2784421f8c2884884b4cd7a7c12dace4afbbd7761482e1455f4d8df91aa51d026e27f9d3af0712ea59ffdbc44e077c1c516d209b1e48d1523d0a5ac2302353b1c0b5a569b2613c35986fc8a371bcd8f809d817ac0063036f726401010a746578742f706c61696e00357b2270223a226272632d3230222c226f70223a226d696e74222c227469636b223a22646f6765222c22616d74223a2234323030227d6821c19b1e48d1523d0a5ac2302353b1c0b5a569b2613c35986fc8a371bcd8f809d81700000000"
}