{
  "txid": "f080e33f6c5dae599da7e10b8b2c14b328a9af3f1092f2699373c8de5a4c0e74",
  "version": 2,
  "locktime": 0,
  "vin": [
    {
      "txid": "3f3892df496e1b34c01b3c326864294b3767b0bdb1f117fbffda41f48b8979ca",
      "vout": 1,
      "prevout": {
        "scriptpubkey": "5120b0a9a893b844d03abd8ab9ed4a5034ddf149e3d18077d1dce91b3e1507829459",
        "scriptpubkey_asm": "OP_PUSHNUM_1 OP_PUSHBYTES_32 b0a9a893b844d03abd8ab9ed4a5034ddf149e3d18077d1dce91b3e1507829459",
        "scriptpubkey_type": "v1_p2tr",
        "scriptpubkey_address": "bc1pkz563yacgngr40v2h8k555p5mhc5nc73spmarh8frvlp2puzj3vsfe2xxm",
        "value": 2509
      },
      "scriptsig": "",
      "scriptsig_asm": "",
      "witness": [
        "c5775a91ae74e7d567a5e5695bd283591eb51797e3e39c4cf3691e12ebbc6502077d7be5104f558ed743b08046f4217641bada32ea591ec965c86be381ce89e5",
        "20807eecd9f68b0bba2af080f55f6e90d2ff6e4bc6a2b9d5c18035be92361cbefbac0063036f7264010118746578742f706c61696e3b636861727365743d7574662d3800357b2270223a224252432d313030222c226f70223a226d696e74222c227469636b223a22696e73222c22616d74223a2231303030227d68",
        "c0807eecd9f68b0bba2af080f55f6e90d2ff6e4bc6a2b9d5c18035be92361cbefb"
      ],
      "is_coinbase": false,
      "sequence": 4294967293
    }
  ],
  "vout": [
    {
      "scriptpubkey": "5120587658643214cea8bdeda9f58ebb634470db567fff306e1ab97afe76be4e99bf",
      "scriptpubkey_asm": "OP_PUSHNUM_1 OP_PUSHBYTES_32 587658643214cea8bdeda9f58ebb634470db567fff306e1ab97afe76be4e99bf",
      "scriptpubkey_type": "v1_p2tr",
      "scriptpubkey_address": "bc1ptpm9sepjzn82300d486cawmrg3cdk4nllucxux4e0tl8d0jwnxlsrmxpea",
      "value": 546
    }
  ],
  "size": 320,
  "weight": 602,
  "fee": 1963,
  "status": {
    "confirmed": true,
    "block_height": 834552,
    "block_hash": "00000000000000000001dd0468a70c94f619251d286585cff57aeb4bd9ede330",
    "block_time": 1710355598
  },
  "hex": "02000000000101ca79898bf441dafffb17f1b1bdb067374b296468323c1bc0341b6e49df92383f0100000000fdffffff012202000000000000225120587658643214cea8bdeda9f58ebb634470db567fff306e1ab97afe76be4e99bf0340c5775a91ae74e7d567a5e5695bd283591eb51797e3e39c4cf3691e12ebbc6502077d7be5104f558ed743b08046f4217641bada32ea591ec965c86be381ce89e57b20807eecd9f68b0bba2af080f55f6e90d2ff6e4bc6a2b9d5c18035be92361cbefbac0063036f7264010118746578742f706c61696e3b636861727365743d7574662d3800357b2270223a224252432d313030222c226f70223a226d696e74222c227469636b223a22696e73222c22616d74223a2231303030227d6821c0807eecd9f68b0bba2af080f55f6e90d2ff6e4bc6a2b9d5c18035be92361cbefb00000000"
}