{
  "txid": "f0824c0d9f0edaf1ce22fef31266908d8f655dbb7f6ad6445081eb6aaea42dad",
  "version": 2,
  "locktime": 0,
  "vin": [
    {
      "txid": "61e0431973e4c1375cf66c46ab44aa27f9a9b8ba6b49f76293d593b993382237",
      "vout": 0,
      "prevout": {
        "scriptpubkey": "a914cfae8e15c563ffb213020bab1ee6f3c59b26239487",
        "scriptpubkey_asm": "OP_HASH160 OP_PUSHBYTES_20 cfae8e15c563ffb213020bab1ee6f3c59b262394 OP_EQUAL",
        "scriptpubkey_type": "p2sh",
        "scriptpubkey_address": "3Ld8uYjsNSYaCvzzggw9SK87RmTvXfLNYw",
        "value": 24990900
      },
      "scriptsig": "160014afa6b2ec3638882661d8696bdca6fd6a76dae5cb",
      "scriptsig_asm": "OP_PUSHBYTES_22 0014afa6b2ec3638882661d8696bdca6fd6a76dae5cb",
      "witness": [
        "304402205a7649ff42a6918e6621ab6ae164c432fec724173685004875c068ade889c2080220458e251708581591a93725c45605619fd84b71e0cfaeea60e5947385b295366101",
        "036cdc37692061c52435dd699961ef45629995502feff91d66e84c7dbb094ad65b"
      ],
      "is_coinbase": false,
      "sequence": 4294967295,
      "inner_redeemscript_asm": "OP_0 OP_PUSHBYTES_20 afa6b2ec3638882661d8696bdca6fd6a76dae5cb"
    },
    {
      "txid": "4e8948b27eac3e04fd76682a3422df3614f951882b2b59d38f266aecb0dbecfe",
      "vout": 0,
      "prevout": {
        "scriptpubkey": "a914442bcf6bdb3066601c8e1ee00f3161926e269a8087",
        "scriptpubkey_asm": "OP_HASH160 OP_PUSHBYTES_20 442bcf6bdb3066601c8e1ee00f3161926e269a80 OP_EQUAL",
        "scriptpubkey_type": "p2sh",
        "scriptpubkey_address": "37uUMaRNifEz4UHabfwhkLWtZthFvvJCwy",
        "value": 16680026
      },
      "scriptsig": "1600149fe39bacaa5b3b3c294c9f439d57b1a8abd4f49f",
      "scriptsig_asm": "OP_PUSHBYTES_22 00149fe39bacaa5b3b3c294c9f439d57b1a8abd4f49f",
      "witness": [
        "304402200d717848592e9bfcdf0d8b545dc3b515ff88ef942faad856279daccc6db289680220349bc8b7aca0e191f36d6bf4a4962a10e267605acda21c2a6c8d464de0fdc64301",
        "039d2a40db935bd0cd304676a5044dfa7ccabd9a930490927cc1b85f1fa723934a"
      ],
      "is_coinbase": false,
      "sequence": 4294967295,
      "inner_redeemscript_asm": "OP_0 OP_PUSHBYTES_20 9fe39bacaa5b3b3c294c9f439d57b1a8abd4f49f"
    },
    {
      "txid": "ac7ebba32b9afa85ef41dc0543e91e33cd077b4502216d0fa43493dd74b8015e",
      "vout": 0,
      "prevout": {
        "scriptpubkey": "a914b1f4a9b0f5ea19f1403c100398c85a748412101d87",
        "scriptpubkey_asm": "OP_HASH160 OP_PUSHBYTES_20 b1f4a9b0f5ea19f1403c100398c85a748412101d OP_EQUAL",
        "scriptpubkey_type": "p2sh",
        "scriptpubkey_address": "3HuxcyGnMNBM4FJKVoSieovBLw7VGFK5FP",
        "value": 13918278
      },
      "scriptsig": "1600147238d84b2d8bbc869e1baa204e72c0583c4aa245",
      "scriptsig_asm": "OP_PUSHBYTES_22 00147238d84b2d8bbc869e1baa204e72c0583c4aa245",
      "witness": [
        "304402201a2250698dff51d19bafd81e16e61f077fad41b6ff98058a1f64836d7fd3725d02202c539daef686c40f0945daa264141a7144dc89f1a5c26c3c66d6ce72a3e499bf01",
        "02b449da165bcbf40f598e338604fecd5837f0df052e9761a288586bc8ad82fc4a"
      ],
      "is_coinbase": false,
      "sequence": 4294967295,
      "inner_redeemscript_asm": "OP_0 OP_PUSHBYTES_20 7238d84b2d8bbc869e1baa204e72c0583c4aa245"
    },
    {
      "txid": "9d2929b005fbfdef94f8fba5520ab4dc83aea07b03ff8d70a20cf44ed1dad5cd",
      "vout": 1,
      "prevout": {
        "scriptpubkey": "0014c5e4bf4101101d68db9b07f057b3cc641c3b40a5",
        "scriptpubkey_asm": "OP_0 OP_PUSHBYTES_20 c5e4bf4101101d68db9b07f057b3cc641c3b40a5",
        "scriptpubkey_type": "v0_p2wpkh",
        "scriptpubkey_address": "bc1qchjt7sgpzqwk3kumqlc90v7vvswrks997j5evf",
        "value": 9164875
      },
      "scriptsig": "",
      "scriptsig_asm": "",
      "witness": [
        "304402204f7599ed40c219a09053b0f527fe9f7d97c2be34ac487366c5e81bdb9c07318402201290ea476c0af1774c733fb4ff7721bae47ff345d71f112ea3d38a735272a74d01",
        "0348ad2a400b6d4f42bc9b00bfd26ef6ca09059e69a268fab5f4febd4e8e6f4016"
      ],
      "is_coinbase": false,
      "sequence": 4294967295
    },
    {
      "txid": "e00ce667fbbbf014b25960a59b89f8bfb4d350bab3f5637afd814acfe81f1736",
      "vout": 0,
      "prevout": {
        "scriptpubkey": "a914d50d1545c8c8b3443efbe6d581eb458ada63cb8087",
        "scriptpubkey_asm": "OP_HASH160 OP_PUSHBYTES_20 d50d1545c8c8b3443efbe6d581eb458ada63cb80 OP_EQUAL",
        "scriptpubkey_type": "p2sh",
        "scriptpubkey_address": "3M7XXS59hF6XbLFw4W2B3Rk3kwWK46MPLM",
        "value": 9000000
      },
      "scriptsig": "160014257cea85b170347500dd6e6b226a9cfbf3c50925",
      "scriptsig_asm": "OP_PUSHBYTES_22 0014257cea85b170347500dd6e6b226a9cfbf3c50925",
      "witness": [
        "3044022058fad98f2d3fb69e0a70d77ea100d98bbedef1dcbf698d2a154da45909fb39a5022069528371a77f9faa4392f3ad5ee3af9bcaa4ad945b9a2305a1f334ec6abc3d2d01",
        "02ded63aacdc137e8d579c4246c0840e9b7e2b45546a2f477599e08a2d2b121374"
      ],
      "is_coinbase": false,
      "sequence": 4294967295,
      "inner_redeemscript_asm": "OP_0 OP_PUSHBYTES_20 257cea85b170347500dd6e6b226a9cfbf3c50925"
    },
    {
      "txid": "9102c3abb9e2ca67769f6477a3b08d99da6bafb97ed7ab1e5b422ad97f3ec219",
      "vout": 0,
      "prevout": {
        "scriptpubkey": "a914af56c0564bf5e1902271594a5fbfe3f06abfa39e87",
        "scriptpubkey_asm": "OP_HASH160 OP_PUSHBYTES_20 af56c0564bf5e1902271594a5fbfe3f06abfa39e OP_EQUAL",
        "scriptpubkey_type": "p2sh",
        "scriptpubkey_address": "3Hg86hdDcoziXRFhHVbcJdsAqcp35KsjW7",
        "value": 8000000
      },
      "scriptsig": "16001439138a189fd544a41ef7c2f1087e056913426e30",
      "scriptsig_asm": "OP_PUSHBYTES_22 001439138a189fd544a41ef7c2f1087e056913426e30",
      "witness": [
        "30440220014fca8298fda01cdf0b4c23b16db9713d370827e9cf15ae544477d1ecaf867f0220219e1e85508e9497d81030054fc8235f7912fccedc692673e4161fedf096430d01",
        "03832fd1064a3bef3881e3d3f0f7933e2c8a110d3556f78f0af8db0dc1a5623825"
      ],
      "is_coinbase": false,
      "sequence": 4294967295,
      "inner_redeemscript_asm": "OP_0 OP_PUSHBYTES_20 39138a189fd544a41ef7c2f1087e056913426e30"
    },
    {
      "txid": "2740c1006b3e45874f1cc196eac40a5d8f49451dde4f5a144e1e80bd6c86e62b",
      "vout": 0,
      "prevout": {
        "scriptpubkey": "a9140f95abd674bcc44c6d5f16a202f474ae281d6bcc87",
        "scriptpubkey_asm": "OP_HASH160 OP_PUSHBYTES_20 0f95abd674bcc44c6d5f16a202f474ae281d6bcc OP_EQUAL",
        "scriptpubkey_type": "p2sh",
        "scriptpubkey_address": "337RMm7StZ7wftjvHm6KWAG1GhULtgucNH",
        "value": 7286702
      },
      "scriptsig": "160014c5a8e81b3fe0f4d8622fa3166e71871e026a3d67",
      "scriptsig_asm": "OP_PUSHBYTES_22 0014c5a8e81b3fe0f4d8622fa3166e71871e026a3d67",
      "witness": [
        "304402206ef70fb685ead41023722e97c867985a25fc74439a51ce57a2dd6fc7c959f82b022054442f38f713642f33b83a3ec89cc834dd9e4c3d92273f3c6e252460576e347301",
        "02a909a97ebec846c6fc81402b8a6f151159cc9ed44cc2f05b6fbc7888a5515d94"
      ],
      "is_coinbase": false,
      "sequence": 4294967295,
      "inner_redeemscript_asm": "OP_0 OP_PUSHBYTES_20 c5a8e81b3fe0f4d8622fa3166e71871e026a3d67"
    },
    {
      "txid": "7f7f5d79eef16c5575ee91febcbe3d6c9a11f6a321cde480362bf4a6f0f41632",
      "vout": 0,
      "prevout": {
        "scriptpubkey": "a914f13e30729369fd24ff3aa8d5ff23a59814e3cfcd87",
        "scriptpubkey_asm": "OP_HASH160 OP_PUSHBYTES_20 f13e30729369fd24ff3aa8d5ff23a59814e3cfcd OP_EQUAL",
        "scriptpubkey_type": "p2sh",
        "scriptpubkey_address": "3PgbGm1aHjx782Lg93dyjM6hF7h9oqwYRv",
        "value": 7233289
      },
      "scriptsig": "160014aa731dda32cc91d0ac2f04a5000c14a66f5b0e73",
      "scriptsig_asm": "OP_PUSHBYTES_22 0014aa731dda32cc91d0ac2f04a5000c14a66f5b0e73",
      "witness": [
        "304402200b2babfc5002a1eee53e143732f93d245c019aeef1b1ae15a7d3bec8a3be2f76022025ff9226615799c8f29c98e6a4f21c5d15035e794858ac2b49541f3b1697148301",
        "038615e2eedbec33bd352c156ef50247b81457a420786f9b6769bf5e366ae00f22"
      ],
      "is_coinbase": false,
      "sequence": 4294967295,
      "inner_redeemscript_asm": "OP_0 OP_PUSHBYTES_20 aa731dda32cc91d0ac2f04a5000c14a66f5b0e73"
    },
    {
      "txid": "1070f58d3e19445a970e5162aa27a1689aa5179e0814672ed9adb96bf459a9a5",
      "vout": 0,
      "prevout": {
        "scriptpubkey": "a91463b0ce65d79b128087d31308fe1562e00f3b91aa87",
        "scriptpubkey_asm": "OP_HASH160 OP_PUSHBYTES_20 63b0ce65d79b128087d31308fe1562e00f3b91aa OP_EQUAL",
        "scriptpubkey_type": "p2sh",
        "scriptpubkey_address": "3An8dFLVP4t2tibjcNXRZyur5qjpyw2C18",
        "value": 7226042
      },
      "scriptsig": "1600144652dbc22c6c0eabcda5f86b7c33cab0ea61a7c1",
      "scriptsig_asm": "OP_PUSHBYTES_22 00144652dbc22c6c0eabcda5f86b7c33cab0ea61a7c1",
      "witness": [
        "3044022032f0697b11cace0f073e7f5f0adfe05133050d7e4861aa3cce0298d12e1c5c090220588ef598fae69ef11dd6bf5d95b653a16f13da2babbeecfa38be74c622f5059201",
        "027e77c3e3fc9525fba4e4dae521853e0297f4996f774329f5eb5e669d236ea923"
      ],
      "is_coinbase": false,
      "sequence": 4294967295,
      "inner_redeemscript_asm": "OP_0 OP_PUSHBYTES_20 4652dbc22c6c0eabcda5f86b7c33cab0ea61a7c1"
    },
    {
      "txid": "b900609049daa00202c22456c051481492d56f513950218187a64e0068b1bc47",
      "vout": 0,
      "prevout": {
        "scriptpubkey": "a91450abf820a81fdefb48578cfb89ac4a8cd81b290a87",
        "scriptpubkey_asm": "OP_HASH160 OP_PUSHBYTES_20 50abf820a81fdefb48578cfb89ac4a8cd81b290a OP_EQUAL",
        "scriptpubkey_type": "p2sh",
        "scriptpubkey_address": "393ZzXHjgEcsJkV7LzTuCtkS7n89AV2xnU",
        "value": 7195045
      },
      "scriptsig": "1600145d0b32cce18b18bb038085451c49fa73efc61c0a",
      "scriptsig_asm": "OP_PUSHBYTES_22 00145d0b32cce18b18bb038085451c49fa73efc61c0a",
      "witness": [
        "304402201f698ab93d8f77f288d21a4588a9da50243ef0adb64c9e046b9e2225646f60be022045496c6e054acf30483e0ee25dcd1e3bfb4eb4be375917d6d9e928f3457079f401",
        "03e2539bcd682a99f71e3b6e0471a3dc496a05a4b1a069f10d2d35732a1e209be2"
      ],
      "is_coinbase": false,
      "sequence": 4294967295,
      "inner_redeemscript_asm": "OP_0 OP_PUSHBYTES_20 5d0b32cce18b18bb038085451c49fa73efc61c0a"
    },
    {
      "txid": "618d23180642e49e50285128e9a0c595b2f7027a2f6f3f24bc6adce93e0ad982",
      "vout": 0,
      "prevout": {
        "scriptpubkey": "a91474f6390f519a4cead6255fa39e908d37f720023587",
        "scriptpubkey_asm": "OP_HASH160 OP_PUSHBYTES_20 74f6390f519a4cead6255fa39e908d37f7200235 OP_EQUAL",
        "scriptpubkey_type": "p2sh",
        "scriptpubkey_address": "3CMTGfNZvxesywYRE4hVruWouj6tsjixo6",
        "value": 662618
      },
      "scriptsig": "16001464a2c7e6252cb5aae9051e0ebbc90557067a71ea",
      "scriptsig_asm": "OP_PUSHBYTES_22 001464a2c7e6252cb5aae9051e0ebbc90557067a71ea",
      "witness": [
        "304402206be01a0176f60cd6daa6c7a82534027ecf6838e8518d3aa19132aa7009f7de1702206937050bca0ed6e6f8f527106b169083bc2a59d151989b28ef8340ded70ef7e701",
        "024a796b2eb1a8cfde705bdbe886398bded5903fa8553be36fd4c84657c6835dbc"
      ],
      "is_coinbase": false,
      "sequence": 4294967295,
      "inner_redeemscript_asm": "OP_0 OP_PUSHBYTES_20 64a2c7e6252cb5aae9051e0ebbc90557067a71ea"
    },
    {
      "txid": "c9245a992a5dbb470c0df0a2aecb46e0aaf90c80ce3aa0b67f615985ce0d704e",
      "vout": 1,
      "prevout": {
        "scriptpubkey": "00143945ee57762bbd69a3f8d95b5130afa7d56743b2",
        "scriptpubkey_asm": "OP_0 OP_PUSHBYTES_20 3945ee57762bbd69a3f8d95b5130afa7d56743b2",
        "scriptpubkey_type": "v0_p2wpkh",
        "scriptpubkey_address": "bc1q89z7u4mk9w7knglcm9d4zv905l2kwsajdw5ns0",
        "value": 20423
      },
      "scriptsig": "",
      "scriptsig_asm": "",
      "witness": [
        "304402207b9188a3b4f3b4b6e77c4e3e9d7e40600067fb09fe966589a7c3c164f7ba456c022014a8883135c531e3221eda5e4aa4e18d2d298136f4cd60e53bf39feb2f5331a501",
        "02920c12d815e220aaa14203ae35fb0e05f29cc9831c3931a0f3f6705b1980d431"
      ],
      "is_coinbase": false,
      "sequence": 4294967295
    },
    {
      "txid": "85cf2f2ada42fc05087b1aab226e5a8469833789a25fb2fa3424aa4ce8bbe2d6",
      "vout": 0,
      "prevout": {
        "scriptpubkey": "a914db8033124b333fc372ef6e1078f0a806e39fb74c87",
        "scriptpubkey_asm": "OP_HASH160 OP_PUSHBYTES_20 db8033124b333fc372ef6e1078f0a806e39fb74c OP_EQUAL",
        "scriptpubkey_type": "p2sh",
        "scriptpubkey_address": "3MhdV1eF2K4WQxxhsKRUwN9KfpTEPfGGh4",
        "value": 29352
      },
      "scriptsig": "16001447cbd4779db476e0a69a6fc25b02571b9cfb577e",
      "scriptsig_asm": "OP_PUSHBYTES_22 001447cbd4779db476e0a69a6fc25b02571b9cfb577e",
      "witness": [
        "30440220249cb6bf085c5bc37cabee9175bbf326a304b7448c3cde07aa34427499e9f6660220598299419b7d25d41411f35c09eabd3c459c7311c175a076a167a6d882d3724401",
        "03a00a331546ce346c401557bd4a7eab9c670da77f99493a45a09f69b5c76495df"
      ],
      "is_coinbase": false,
      "sequence": 4294967295,
      "inner_redeemscript_asm": "OP_0 OP_PUSHBYTES_20 47cbd4779db476e0a69a6fc25b02571b9cfb577e"
    }
  ],
  "vout": [
    {
      "scriptpubkey": "00140a48fccb7543ff017430d1abaabcc7f34a7dd265",
      "scriptpubkey_asm": "OP_0 OP_PUSHBYTES_20 0a48fccb7543ff017430d1abaabcc7f34a7dd265",
      "scriptpubkey_type": "v0_p2wpkh",
      "scriptpubkey_address": "bc1qpfy0ejm4g0lszaps6x4640x87d98m5n9v3hl0n",
      "value": 111363955
    },
    {
      "scriptpubkey": "0014c272daf664a349d204e00065ae98bcdbcbe633c9",
      "scriptpubkey_asm": "OP_0 OP_PUSHBYTES_20 c272daf664a349d204e00065ae98bcdbcbe633c9",
      "scriptpubkey_type": "v0_p2wpkh",
      "scriptpubkey_address": "bc1qcfed4any5dyayp8qqpj6ax9um097vv7fyf6n45",
      "value": 10448
    }
  ],
  "size": 2251,
  "weight": 4825,
  "fee": 33147,
  "status": {
    "confirmed": true,
    "block_height": 834464,
    "block_hash": "0000000000000000000177a0869a911a2b65c9bdcd5a8bcb02b68f305bee848e",
    "block_time": 1710308296
  },
  "hex": "0200000000010d37223893b993d59362f7496bbab8a9f927aa44ab466cf65c37c1e4731943e0610000000017160014afa6b2ec3638882661d8696bdca6fd6a76dae5cbfffffffffeecdbb0ec6a268fd3592b2b8851f91436df22342a6876fd043eac7eb248894e00000000171600149fe39bacaa5b3b3c294c9f439d57b1a8abd4f49fffffffff5e01b874dd9334a40f6d2102457b07cd331ee94305dc41ef85fa9a2ba3bb7eac00000000171600147238d84b2d8bbc869e1baa204e72c0583c4aa245ffffffffcdd5dad14ef40ca2708dff037ba0ae83dcb40a52a5fbf894effdfb05b029299d0100000000ffffffff36171fe8cf4a81fd7a63f5b3ba50d3b4bff8899ba56059b214f0bbfb67e60ce00000000017160014257cea85b170347500dd6e6b226a9cfbf3c50925ffffffff19c23e7fd92a425b1eabd77eb9af6bda998db0a377649f7667cae2b9abc30291000000001716001439138a189fd544a41ef7c2f1087e056913426e30ffffffff2be6866cbd801e4e145a4fde1d45498f5d0ac4ea96c11c4f87453e6b00c140270000000017160014c5a8e81b3fe0f4d8622fa3166e71871e026a3d67ffffffff3216f4f0a6f42b3680e4cd21a3f6119a6c3dbebcfe91ee75556cf1ee795d7f7f0000000017160014aa731dda32cc91d0ac2f04a5000c14a66f5b0e73ffffffffa5a959f46bb9add92e6714089e17a59a68a127aa62510e975a44193e8df5701000000000171600144652dbc22c6c0eabcda5f86b7c33cab0ea61a7c1ffffffff47bcb168004ea68781215039516fd592144851c05624c20202a0da49906000b900000000171600145d0b32cce18b18bb038085451c49fa73efc61c0affffffff82d90a3ee9dc6abc243f6f2f7a02f7b295c5a0e9285128509ee4420618238d61000000001716001464a2c7e6252cb5aae9051e0ebbc90557067a71eaffffffff4e700dce8559617fb6a03ace800cf9aae046cbaea2f00d0c47bb5d2a995a24c90100000000ffffffffd6e2bbe84caa2434fab25fa289378369845a6e22ab1a7b0805fc42da2a2fcf85000000001716001447cbd4779db476e0a69a6fc25b02571b9cfb577effffffff027347a306000000001600140a48fccb7543ff017430d1abaabcc7f34a7dd265d028000000000000160014c272daf664a349d204e00065ae98bcdbcbe633c90247304402205a7649ff42a6918e6621ab6ae164c432fec724173685004875c068ade889c2080220458e251708581591a93725c45605619fd84b71e0cfaeea60e5947385b29536610121036cdc37692061c52435dd699961ef45629995502feff91d66e84c7dbb094ad65b0247304402200d717848592e9bfcdf0d8b545dc3b515ff88ef942faad856279daccc6db289680220349bc8b7aca0e191f36d6bf4a4962a10e267605acda21c2a6c8d464de0fdc6430121039d2a40db935bd0cd304676a5044dfa7ccabd9a930490927cc1b85f1fa723934a0247304402201a2250698dff51d19bafd81e16e61f077fad41b6ff98058a1f64836d7fd3725d02202c539daef686c40f0945daa264141a7144dc89f1a5c26c3c66d6ce72a3e499bf012102b449da165bcbf40f598e338604fecd5837f0df052e9761a288586bc8ad82fc4a0247304402204f7599ed40c219a09053b0f527fe9f7d97c2be34ac487366c5e81bdb9c07318402201290ea476c0af1774c733fb4ff7721bae47ff345d71f112ea3d38a735272a74d01210348ad2a400b6d4f42bc9b00bfd26ef6ca09059e69a268fab5f4febd4e8e6f401602473044022058fad98f2d3fb69e0a70d77ea100d98bbedef1dcbf698d2a154da45909fb39a5022069528371a77f9faa4392f3ad5ee3af9bcaa4ad945b9a2305a1f334ec6abc3d2d012102ded63aacdc137e8d579c4246c0840e9b7e2b45546a2f477599e08a2d2b121374024730440220014fca8298fda01cdf0b4c23b16db9713d370827e9cf15ae544477d1ecaf867f0220219e1e85508e9497d81030054fc8235f7912fccedc692673e4161fedf096430d012103832fd1064a3bef3881e3d3f0f7933e2c8a110d3556f78f0af8db0dc1a56238250247304402206ef70fb685ead41023722e97c867985a25fc74439a51ce57a2dd6fc7c959f82b022054442f38f713642f33b83a3ec89cc834dd9e4c3d92273f3c6e252460576e3473012102a909a97ebec846c6fc81402b8a6f151159cc9ed44cc2f05b6fbc7888a5515d940247304402200b2babfc5002a1eee53e143732f93d245c019aeef1b1ae15a7d3bec8a3be2f76022025ff9226615799c8f29c98e6a4f21c5d15035e794858ac2b49541f3b169714830121038615e2eedbec33bd352c156ef50247b81457a420786f9b6769bf5e366ae00f2202473044022032f0697b11cace0f073e7f5f0adfe05133050d7e4861aa3cce0298d12e1c5c090220588ef598fae69ef11dd6bf5d95b653a16f13da2babbeecfa38be74c622f505920121027e77c3e3fc9525fba4e4dae521853e0297f4996f774329f5eb5e669d236ea9230247304402201f698ab93d8f77f288d21a4588a9da50243ef0adb64c9e046b9e2225646f60be022045496c6e054acf30483e0ee25dcd1e3bfb4eb4be375917d6d9e928f3457079f4012103e2539bcd682a99f71e3b6e0471a3dc496a05a4b1a069f10d2d35732a1e209be20247304402206be01a0176f60cd6daa6c7a82534027ecf6838e8518d3aa19132aa7009f7de1702206937050bca0ed6e6f8f527106b169083bc2a59d151989b28ef8340ded70ef7e70121024a796b2eb1a8cfde705bdbe886398bded5903fa8553be36fd4c84657c6835dbc0247304402207b9188a3b4f3b4b6e77c4e3e9d7e40600067fb09fe966589a7c3c164f7ba456c022014a8883135c531e3221eda5e4aa4e18d2d298136f4cd60e53bf39feb2f5331a5012102920c12d815e220aaa14203ae35fb0e05f29cc9831c3931a0f3f6705b1980d431024730440220249cb6bf085c5bc37cabee9175bbf326a304b7448c3cde07aa34427499e9f6660220598299419b7d25d41411f35c09eabd3c459c7311c175a076a167a6d882d37244012103a00a331546ce346c401557bd4a7eab9c670da77f99493a45a09f69b5c76495df00000000"
}