{
  "txid": "f09360d3782e0deb53ebcaa8532fa1db2de664c7e2476176fc40bce84481a8c6",
  "version": 1,
  "locktime": 0,
  "vin": [
    {
      "txid": "0057fbc61656dfeaf9c468727faac57212a07e5497e6a42f823f1afb343cee77",
      "vout": 1,
      "prevout": {
        "scriptpubkey": "0014ae46ef1d2dcb37689ea236db02d4e2a0e689c73a",
        "scriptpubkey_asm": "OP_0 OP_PUSHBYTES_20 ae46ef1d2dcb37689ea236db02d4e2a0e689c73a",
        "scriptpubkey_type": "v0_p2wpkh",
        "scriptpubkey_address": "bc1q4erw78fdevmk384zxmds948z5rngn3e63yckjd",
        "value": 107593
      },
      "scriptsig": "",
      "scriptsig_asm": "",
      "witness": [
        "30440220674f2691ab66e1ea81b0a3e68e708fbd2a931590fe4d64c04ab802aa76e16387022045c056adc7c56568cd0f230c1abd85b0af65f815920fa26765303239f4dce5b001",
        "0240d62628f7c7b75423c8b16ac1e8b99a40cffdf43946746bd12a5398035b4a3b"
      ],
      "is_coinbase": false,
      "sequence": 4294967295
    }
  ],
  "vout": [
    {
      "scriptpubkey": "76a9141de02504d27d4c774ed0341a4fa9b0c2ca86265288ac",
      "scriptpubkey_asm": "OP_DUP OP_HASH160 OP_PUSHBYTES_20 1de02504d27d4c774ed0341a4fa9b0c2ca862652 OP_EQUALVERIFY OP_CHECKSIG",
      "scriptpubkey_type": "p2pkh",
      "scriptpubkey_address": "13iy7QPYcqCdXxXjBPe1NfiqfH43JpJS3v",
      "value": 54370
    },
    {
      "scriptpubkey": "0014ae46ef1d2dcb37689ea236db02d4e2a0e689c73a",
      "scriptpubkey_asm": "OP_0 OP_PUSHBYTES_20 ae46ef1d2dcb37689ea236db02d4e2a0e689c73a",
      "scriptpubkey_type": "v0_p2wpkh",
      "scriptpubkey_address": "bc1q4erw78fdevmk384zxmds948z5rngn3e63yckjd",
      "value": 49335
    }
  ],
  "size": 225,
  "weight": 573,
  "fee": 3888,
  "status": {
    "confirmed": true,
    "block_height": 834638,
    "block_hash": "000000000000000000025f742c626208ac87e0b7d15054abb4a19ca2d735a54e",
    "block_time": 1710405325
  },
  "hex": "0100000000010177ee3c34fb1a3f822fa4e697547ea01272c5aa7f7268c4f9eadf5616c6fb57000100000000ffffffff0262d40000000000001976a9141de02504d27d4c774ed0341a4fa9b0c2ca86265288acb7c0000000000000160014ae46ef1d2dcb37689ea236db02d4e2a0e689c73a024730440220674f2691ab66e1ea81b0a3e68e708fbd2a931590fe4d64c04ab802aa76e16387022045c056adc7c56568cd0f230c1abd85b0af65f815920fa26765303239f4dce5b001210240d62628f7c7b75423c8b16ac1e8b99a40cffdf43946746bd12a5398035b4a3b00000000"
}