{
  "txid": "f0a9b97a66cca15db4f67b3fc02cc9a30d346adc0182a1a25cebb6a60d04a7c0",
  "version": 2,
  "locktime": 0,
  "vin": [
    {
      "txid": "484108d01a740a8eda31cea5cd44918253a2accc0bfe6082ac77f12eaefff451",
      "vout": 17,
      "prevout": {
        "scriptpubkey": "00145dc31b3c4a53bb565ab631dec74d251896a92b1b",
        "scriptpubkey_asm": "OP_0 OP_PUSHBYTES_20 5dc31b3c4a53bb565ab631dec74d251896a92b1b",
        "scriptpubkey_type": "v0_p2wpkh",
        "scriptpubkey_address": "bc1qthp3k0z22wa4vk4kx80vwnf9rzt2j2cmd2amww",
        "value": 63000
      },
      "scriptsig": "",
      "scriptsig_asm": "",
      "witness": [
        "3045022100a06a0484384f9a90fb3cece939d6c74ac6a721f0fb3f63f666548cb5131a7d70022001365fae7598f8f6a6e344ce9762a2733496c072d98df685d77b3affb329413001",
        "0315cae1741d4113f338c165852d8a97dc12de53d66107507524f55fecc1cacecf"
      ],
      "is_coinbase": false,
      "sequence": 4294967295
    }
  ],
  "vout": [
    {
      "scriptpubkey": "00142ba460fc22ed0a1c5c4c054649d5e1cb2ade3be8",
      "scriptpubkey_asm": "OP_0 OP_PUSHBYTES_20 2ba460fc22ed0a1c5c4c054649d5e1cb2ade3be8",
      "scriptpubkey_type": "v0_p2wpkh",
      "scriptpubkey_address": "bc1q9wjxplpza59pchzvq4ryn40pev4duwlg0kda3l",
      "value": 58502
    }
  ],
  "size": 192,
  "weight": 438,
  "fee": 4498,
  "status": {
    "confirmed": true,
    "block_height": 834638,
    "block_hash": "000000000000000000025f742c626208ac87e0b7d15054abb4a19ca2d735a54e",
    "block_time": 1710405325
  },
  "hex": "0200000000010151f4ffae2ef177ac8260fe0bccaca253829144cda5ce31da8e0a741ad00841481100000000ffffffff0186e40000000000001600142ba460fc22ed0a1c5c4c054649d5e1cb2ade3be802483045022100a06a0484384f9a90fb3cece939d6c74ac6a721f0fb3f63f666548cb5131a7d70022001365fae7598f8f6a6e344ce9762a2733496c072d98df685d77b3affb329413001210315cae1741d4113f338c165852d8a97dc12de53d66107507524f55fecc1cacecf00000000"
}