{
  "txid": "f0acd6ef6f67edd92fd0e560919e44661216d8c961fd201c50ea512ca102635e",
  "version": 2,
  "locktime": 0,
  "vin": [
    {
      "txid": "83a1cbc03657b05946ebd0e2dc183d9db80e8c21ebcf1972617c863458fb5b94",
      "vout": 1,
      "prevout": {
        "scriptpubkey": "00145b180a74058ac6e4d18d6199cdb9ce20231d2c97",
        "scriptpubkey_asm": "OP_0 OP_PUSHBYTES_20 5b180a74058ac6e4d18d6199cdb9ce20231d2c97",
        "scriptpubkey_type": "v0_p2wpkh",
        "scriptpubkey_address": "bc1qtvvq5aq93trwf5vdvxvumwwwyq336tyhcqc767",
        "value": 211539
      },
      "scriptsig": "",
      "scriptsig_asm": "",
      "witness": [
        "3044022045923b7e27e722eadee22f21c2ee0f7f2bc4d5fc9babc4ae55f73647d174d7a4022034168deaf3d08c80229b0b0594e8d4b427913296d62b3f1d972161534231895301",
        "0342bb425ed8e3996d4e133a47abdc19c1e87c2bfcd478d0722b64de32a9a5d4ea"
      ],
      "is_coinbase": false,
      "sequence": 4294967293
    },
    {
      "txid": "925cacf24eac93853b8f9952273dbd34b489713670abcd7e18c82f02f4291a17",
      "vout": 0,
      "prevout": {
        "scriptpubkey": "0014e301a592b2cb33d37eff5113a8eb8db2faff3e8b",
        "scriptpubkey_asm": "OP_0 OP_PUSHBYTES_20 e301a592b2cb33d37eff5113a8eb8db2faff3e8b",
        "scriptpubkey_type": "v0_p2wpkh",
        "scriptpubkey_address": "bc1quvq6ty4jeveaxlhl2yf636udkta0705t06vgjj",
        "value": 414187
      },
      "scriptsig": "",
      "scriptsig_asm": "",
      "witness": [
        "3044022004062dc8accecf24498d2f04f37f5690181cd94afbaa1e61ca7cf4dbff5ee1c20220056cc3862753e8bcd454d3b878c1f058c581575ce8b73481bde4f3cc63716fbb01",
        "02a2df30772409eb86e36146b223a2516d5022a1f0fe07c59d5ffae4bd0070562e"
      ],
      "is_coinbase": false,
      "sequence": 4294967293
    }
  ],
  "vout": [
    {
      "scriptpubkey": "0014cd431bea23b6f809a8459185f4657959ac2e0ceb",
      "scriptpubkey_asm": "OP_0 OP_PUSHBYTES_20 cd431bea23b6f809a8459185f4657959ac2e0ceb",
      "scriptpubkey_type": "v0_p2wpkh",
      "scriptpubkey_address": "bc1qe4p3h63rkmuqn2z9jxzlgetetxkzur8thh852y",
      "value": 173526
    },
    {
      "scriptpubkey": "0014e5604a48f2046956f4e9570925268c9a117999ba",
      "scriptpubkey_asm": "OP_0 OP_PUSHBYTES_20 e5604a48f2046956f4e9570925268c9a117999ba",
      "scriptpubkey_type": "v0_p2wpkh",
      "scriptpubkey_address": "bc1qu4sy5j8jq354da8f2uyj2f5vngghnxd6753h4m",
      "value": 446805
    }
  ],
  "size": 370,
  "weight": 832,
  "fee": 5395,
  "status": {
    "confirmed": true,
    "block_height": 834638,
    "block_hash": "000000000000000000025f742c626208ac87e0b7d15054abb4a19ca2d735a54e",
    "block_time": 1710405325
  },
  "hex": "02000000000102945bfb5834867c617219cfeb218c0eb89d3d18dce2d0eb4659b05736c0cba1830100000000fdffffff171a29f4022fc8187ecdab70367189b434bd3d2752998f3b8593ac4ef2ac5c920000000000fdffffff02d6a5020000000000160014cd431bea23b6f809a8459185f4657959ac2e0ceb55d1060000000000160014e5604a48f2046956f4e9570925268c9a117999ba02473044022045923b7e27e722eadee22f21c2ee0f7f2bc4d5fc9babc4ae55f73647d174d7a4022034168deaf3d08c80229b0b0594e8d4b427913296d62b3f1d972161534231895301210342bb425ed8e3996d4e133a47abdc19c1e87c2bfcd478d0722b64de32a9a5d4ea02473044022004062dc8accecf24498d2f04f37f5690181cd94afbaa1e61ca7cf4dbff5ee1c20220056cc3862753e8bcd454d3b878c1f058c581575ce8b73481bde4f3cc63716fbb012102a2df30772409eb86e36146b223a2516d5022a1f0fe07c59d5ffae4bd0070562e00000000"
}