{
  "txid": "f0c008f4116c32a5b6a849ef9b14488b29490bdef348237b773bc266e433fbbb",
  "version": 2,
  "locktime": 0,
  "vin": [
    {
      "txid": "c1a35e40d1234454233c4d2599bf94a455ac42119e70067555856ad2778560ca",
      "vout": 9,
      "prevout": {
        "scriptpubkey": "a914957b4fec08f11b078668ef5ca6e0cbf13a45ab5887",
        "scriptpubkey_asm": "OP_HASH160 OP_PUSHBYTES_20 957b4fec08f11b078668ef5ca6e0cbf13a45ab58 OP_EQUAL",
        "scriptpubkey_type": "p2sh",
        "scriptpubkey_address": "3FKQL1RFPnBU2wsRDyGkv7h4c51YDCWPHL",
        "value": 600
      },
      "scriptsig": "1600144ea29a7dcffcd2b4cb4bfedc47defe62dd5e06bb",
      "scriptsig_asm": "OP_PUSHBYTES_22 00144ea29a7dcffcd2b4cb4bfedc47defe62dd5e06bb",
      "witness": [
        "3044022053cbad7938266d4a8bcbb6f224daa978d2454be122c8bc05e37b5fe45b1414dc022036f466ac3ef36bede24e110bdc6c0a9e80e77ee2b580ef42ceb813b257af5bab01",
        "03a86482d711bba1cb28b191973d77598fe574273e1c34a9a956857342b43b42cb"
      ],
      "is_coinbase": false,
      "sequence": 4294967295,
      "inner_redeemscript_asm": "OP_0 OP_PUSHBYTES_20 4ea29a7dcffcd2b4cb4bfedc47defe62dd5e06bb"
    },
    {
      "txid": "99c3dfe0865c6fef7e117a7f924998a1d2572d838c5b65ffe6520d7190bfc4b3",
      "vout": 4,
      "prevout": {
        "scriptpubkey": "a914957b4fec08f11b078668ef5ca6e0cbf13a45ab5887",
        "scriptpubkey_asm": "OP_HASH160 OP_PUSHBYTES_20 957b4fec08f11b078668ef5ca6e0cbf13a45ab58 OP_EQUAL",
        "scriptpubkey_type": "p2sh",
        "scriptpubkey_address": "3FKQL1RFPnBU2wsRDyGkv7h4c51YDCWPHL",
        "value": 600
      },
      "scriptsig": "1600144ea29a7dcffcd2b4cb4bfedc47defe62dd5e06bb",
      "scriptsig_asm": "OP_PUSHBYTES_22 00144ea29a7dcffcd2b4cb4bfedc47defe62dd5e06bb",
      "witness": [
        "3045022100e26a58524b18ee36e52079c7e746233314d3d9d8b26595bae6b0b89e53e31c4602201e59fcb612c7a0008ae961d0d69756b0cca7660ab25d4d270be230e2fa1bc90401",
        "03a86482d711bba1cb28b191973d77598fe574273e1c34a9a956857342b43b42cb"
      ],
      "is_coinbase": false,
      "sequence": 4294967295,
      "inner_redeemscript_asm": "OP_0 OP_PUSHBYTES_20 4ea29a7dcffcd2b4cb4bfedc47defe62dd5e06bb"
    },
    {
      "txid": "4a795ee3677ab56c1378e44470ce681d9602b7ee85b21417aaf2db1ad8c43a7c",
      "vout": 1,
      "prevout": {
        "scriptpubkey": "5120dfb87d35aa9848fc94db592dacd40e438e9a4087a7a7287520c43d39c0eafc6f",
        "scriptpubkey_asm": "OP_PUSHNUM_1 OP_PUSHBYTES_32 dfb87d35aa9848fc94db592dacd40e438e9a4087a7a7287520c43d39c0eafc6f",
        "scriptpubkey_type": "v1_p2tr",
        "scriptpubkey_address": "bc1pm7u86dd2npy0e9xmtyk6e4qwgw8f5sy857njsafqcs7nns82l3hswfkv5q",
        "value": 546
      },
      "scriptsig": "",
      "scriptsig_asm": "",
      "witness": [
        "e9685295f284f24683a94dc0ad94d7d060b40d7150c62f72b04d3d821814fe9f17d526debf10df840f70d0c9cd52418783b55d40b75f26a4f49b54d1bb4af9c583"
      ],
      "is_coinbase": false,
      "sequence": 4294967295
    },
    {
      "txid": "99c3dfe0865c6fef7e117a7f924998a1d2572d838c5b65ffe6520d7190bfc4b3",
      "vout": 6,
      "prevout": {
        "scriptpubkey": "a914957b4fec08f11b078668ef5ca6e0cbf13a45ab5887",
        "scriptpubkey_asm": "OP_HASH160 OP_PUSHBYTES_20 957b4fec08f11b078668ef5ca6e0cbf13a45ab58 OP_EQUAL",
        "scriptpubkey_type": "p2sh",
        "scriptpubkey_address": "3FKQL1RFPnBU2wsRDyGkv7h4c51YDCWPHL",
        "value": 8185233
      },
      "scriptsig": "1600144ea29a7dcffcd2b4cb4bfedc47defe62dd5e06bb",
      "scriptsig_asm": "OP_PUSHBYTES_22 00144ea29a7dcffcd2b4cb4bfedc47defe62dd5e06bb",
      "witness": [
        "3045022100d6ce98a39514fd2379b913b7b0337c998cbb70a26422f7bb4ff5add1b7e583d902205381218658c38d200c0dc1f2d22e9f02d2613fa69d9fe73394846b727aa9a24701",
        "03a86482d711bba1cb28b191973d77598fe574273e1c34a9a956857342b43b42cb"
      ],
      "is_coinbase": false,
      "sequence": 4294967295,
      "inner_redeemscript_asm": "OP_0 OP_PUSHBYTES_20 4ea29a7dcffcd2b4cb4bfedc47defe62dd5e06bb"
    }
  ],
  "vout": [
    {
      "scriptpubkey": "a914957b4fec08f11b078668ef5ca6e0cbf13a45ab5887",
      "scriptpubkey_asm": "OP_HASH160 OP_PUSHBYTES_20 957b4fec08f11b078668ef5ca6e0cbf13a45ab58 OP_EQUAL",
      "scriptpubkey_type": "p2sh",
      "scriptpubkey_address": "3FKQL1RFPnBU2wsRDyGkv7h4c51YDCWPHL",
      "value": 1200
    },
    {
      "scriptpubkey": "5120cc0970fb977be31e86a322a8e6c88501937fe8ed4c1b0a5a7eb203671924f5e7",
      "scriptpubkey_asm": "OP_PUSHNUM_1 OP_PUSHBYTES_32 cc0970fb977be31e86a322a8e6c88501937fe8ed4c1b0a5a7eb203671924f5e7",
      "scriptpubkey_type": "v1_p2tr",
      "scriptpubkey_address": "bc1pesyhp7uh0033ap4ry25wdjy9qxfhl68dfsds5kn7kgpkwxfy7hnsx2sueq",
      "value": 546
    },
    {
      "scriptpubkey": "a9144603d2eb603ac4e4b4c8236ab1df45b48d49f2df87",
      "scriptpubkey_asm": "OP_HASH160 OP_PUSHBYTES_20 4603d2eb603ac4e4b4c8236ab1df45b48d49f2df OP_EQUAL",
      "scriptpubkey_type": "p2sh",
      "scriptpubkey_address": "385DofKBfQKdUSSb8gAbdGgwLw9QQPsc6T",
      "value": 268201
    },
    {
      "scriptpubkey": "a914ea6b832a05c6ca578baa3836f3f25553d41068a587",
      "scriptpubkey_asm": "OP_HASH160 OP_PUSHBYTES_20 ea6b832a05c6ca578baa3836f3f25553d41068a5 OP_EQUAL",
      "scriptpubkey_type": "p2sh",
      "scriptpubkey_address": "3P4WqXDbSLRhzo2H6MT6YFbvBKBDPLbVtQ",
      "value": 6725
    },
    {
      "scriptpubkey": "a914957b4fec08f11b078668ef5ca6e0cbf13a45ab5887",
      "scriptpubkey_asm": "OP_HASH160 OP_PUSHBYTES_20 957b4fec08f11b078668ef5ca6e0cbf13a45ab58 OP_EQUAL",
      "scriptpubkey_type": "p2sh",
      "scriptpubkey_address": "3FKQL1RFPnBU2wsRDyGkv7h4c51YDCWPHL",
      "value": 600
    },
    {
      "scriptpubkey": "a914957b4fec08f11b078668ef5ca6e0cbf13a45ab5887",
      "scriptpubkey_asm": "OP_HASH160 OP_PUSHBYTES_20 957b4fec08f11b078668ef5ca6e0cbf13a45ab58 OP_EQUAL",
      "scriptpubkey_type": "p2sh",
      "scriptpubkey_address": "3FKQL1RFPnBU2wsRDyGkv7h4c51YDCWPHL",
      "value": 600
    },
    {
      "scriptpubkey": "a914957b4fec08f11b078668ef5ca6e0cbf13a45ab5887",
      "scriptpubkey_asm": "OP_HASH160 OP_PUSHBYTES_20 957b4fec08f11b078668ef5ca6e0cbf13a45ab58 OP_EQUAL",
      "scriptpubkey_type": "p2sh",
      "scriptpubkey_address": "3FKQL1RFPnBU2wsRDyGkv7h4c51YDCWPHL",
      "value": 7899298
    }
  ],
  "size": 870,
  "weight": 2304,
  "fee": 9809,
  "status": {
    "confirmed": true,
    "block_height": 834638,
    "block_hash": "000000000000000000025f742c626208ac87e0b7d15054abb4a19ca2d735a54e",
    "block_time": 1710405325
  },
  "hex": "02000000000104ca608577d26a85557506709e1142ac55a494bf99254d3c23544423d1405ea3c109000000171600144ea29a7dcffcd2b4cb4bfedc47defe62dd5e06bbffffffffb3c4bf90710d52e6ff655b8c832d57d2a19849927f7a117eef6f5c86e0dfc39904000000171600144ea29a7dcffcd2b4cb4bfedc47defe62dd5e06bbffffffff7c3ac4d81adbf2aa1714b285eeb702961d68ce7044e478136cb57a67e35e794a0100000000ffffffffb3c4bf90710d52e6ff655b8c832d57d2a19849927f7a117eef6f5c86e0dfc39906000000171600144ea29a7dcffcd2b4cb4bfedc47defe62dd5e06bbffffffff07b00400000000000017a914957b4fec08f11b078668ef5ca6e0cbf13a45ab58872202000000000000225120cc0970fb977be31e86a322a8e6c88501937fe8ed4c1b0a5a7eb203671924f5e7a91704000000000017a9144603d2eb603ac4e4b4c8236ab1df45b48d49f2df87451a00000000000017a914ea6b832a05c6ca578baa3836f3f25553d41068a587580200000000000017a914957b4fec08f11b078668ef5ca6e0cbf13a45ab5887580200000000000017a914957b4fec08f11b078668ef5ca6e0cbf13a45ab5887a28878000000000017a914957b4fec08f11b078668ef5ca6e0cbf13a45ab588702473044022053cbad7938266d4a8bcbb6f224daa978d2454be122c8bc05e37b5fe45b1414dc022036f466ac3ef36bede24e110bdc6c0a9e80e77ee2b580ef42ceb813b257af5bab012103a86482d711bba1cb28b191973d77598fe574273e1c34a9a956857342b43b42cb02483045022100e26a58524b18ee36e52079c7e746233314d3d9d8b26595bae6b0b89e53e31c4602201e59fcb612c7a0008ae961d0d69756b0cca7660ab25d4d270be230e2fa1bc904012103a86482d711bba1cb28b191973d77598fe574273e1c34a9a956857342b43b42cb0141e9685295f284f24683a94dc0ad94d7d060b40d7150c62f72b04d3d821814fe9f17d526debf10df840f70d0c9cd52418783b55d40b75f26a4f49b54d1bb4af9c58302483045022100d6ce98a39514fd2379b913b7b0337c998cbb70a26422f7bb4ff5add1b7e583d902205381218658c38d200c0dc1f2d22e9f02d2613fa69d9fe73394846b727aa9a247012103a86482d711bba1cb28b191973d77598fe574273e1c34a9a956857342b43b42cb00000000"
}