{
  "txid": "f0c4d4594c70cfe64e2a0f3d8ccd8140799ae1405bcd9e9319943021f132ce4b",
  "version": 2,
  "locktime": 0,
  "vin": [
    {
      "txid": "1d1d446f4a85ce88c260d5ed08ce00de18797a41304fb9bf05655e69ae9e3715",
      "vout": 0,
      "prevout": {
        "scriptpubkey": "5120b143bb529028e85160880dd5c4f1dd8e6d55355d77524a362a7f99106ea6ebad",
        "scriptpubkey_asm": "OP_PUSHNUM_1 OP_PUSHBYTES_32 b143bb529028e85160880dd5c4f1dd8e6d55355d77524a362a7f99106ea6ebad",
        "scriptpubkey_type": "v1_p2tr",
        "scriptpubkey_address": "bc1pk9pmk55s9r59zcygph2ufuwa3ek42d2awafy5d3207v3qm4xawksjsur25",
        "value": 973272
      },
      "scriptsig": "",
      "scriptsig_asm": "",
      "witness": [
        "455fb4e6e98c8dde1c118e9772704d108d9b6582484db09cc9f36628afba4ca17f92ffc72f7adee14de752adca2ec1cd010af1a37db16955b8b6d5311e4cf359"
      ],
      "is_coinbase": false,
      "sequence": 4294967295
    }
  ],
  "vout": [
    {
      "scriptpubkey": "5120b143bb529028e85160880dd5c4f1dd8e6d55355d77524a362a7f99106ea6ebad",
      "scriptpubkey_asm": "OP_PUSHNUM_1 OP_PUSHBYTES_32 b143bb529028e85160880dd5c4f1dd8e6d55355d77524a362a7f99106ea6ebad",
      "scriptpubkey_type": "v1_p2tr",
      "scriptpubkey_address": "bc1pk9pmk55s9r59zcygph2ufuwa3ek42d2awafy5d3207v3qm4xawksjsur25",
      "value": 600
    },
    {
      "scriptpubkey": "5120b143bb529028e85160880dd5c4f1dd8e6d55355d77524a362a7f99106ea6ebad",
      "scriptpubkey_asm": "OP_PUSHNUM_1 OP_PUSHBYTES_32 b143bb529028e85160880dd5c4f1dd8e6d55355d77524a362a7f99106ea6ebad",
      "scriptpubkey_type": "v1_p2tr",
      "scriptpubkey_address": "bc1pk9pmk55s9r59zcygph2ufuwa3ek42d2awafy5d3207v3qm4xawksjsur25",
      "value": 970037
    }
  ],
  "size": 205,
  "weight": 616,
  "fee": 2635,
  "status": {
    "confirmed": true,
    "block_height": 834638,
    "block_hash": "000000000000000000025f742c626208ac87e0b7d15054abb4a19ca2d735a54e",
    "block_time": 1710405325
  },
  "hex": "0200000000010115379eae695e6505bfb94f30417a7918de00ce08edd560c288ce854a6f441d1d0000000000ffffffff025802000000000000225120b143bb529028e85160880dd5c4f1dd8e6d55355d77524a362a7f99106ea6ebad35cd0e0000000000225120b143bb529028e85160880dd5c4f1dd8e6d55355d77524a362a7f99106ea6ebad0140455fb4e6e98c8dde1c118e9772704d108d9b6582484db09cc9f36628afba4ca17f92ffc72f7adee14de752adca2ec1cd010af1a37db16955b8b6d5311e4cf35900000000"
}