{
  "txid": "f0f6e3d2dd7b31430d6ebab279b45a9b2668dfc090e4f7fd1e9eb1eeb8d46d03",
  "version": 2,
  "locktime": 0,
  "vin": [
    {
      "txid": "acc3ba00869acb582a3f2904ce3a11dd3779350ce234063fc7d0959246213364",
      "vout": 95,
      "prevout": {
        "scriptpubkey": "5120effc7e406d83ee01b4055b88d87d1822bb4416972f9141afcdfa5ef296c4de1c",
        "scriptpubkey_asm": "OP_PUSHNUM_1 OP_PUSHBYTES_32 effc7e406d83ee01b4055b88d87d1822bb4416972f9141afcdfa5ef296c4de1c",
        "scriptpubkey_type": "v1_p2tr",
        "scriptpubkey_address": "bc1pal78usrds0hqrdq9twydslgcy2a5g95h97g5rt7dlf0099kymcwqzj33al",
        "value": 1806
      },
      "scriptsig": "",
      "scriptsig_asm": "",
      "witness": [
        "525a4203d83a1d937c6b5ac455bdccb8319f6b013a2ca8088108abc4a5c5c0f38d901ea67d933d5c78f5286d6efa3a43aaa8d28e91a8a91ff8e6d981141cee11",
        "208d418f7f5749bf26121e1a332eba40a21eba0b42c92f7130fa236c42867f0279ac0063036f726401010a746578742f706c61696e00357b2270223a226272632d3230222c226f70223a226d696e74222c227469636b223a22646f6765222c22616d74223a2234323030227d68",
        "c18d418f7f5749bf26121e1a332eba40a21eba0b42c92f7130fa236c42867f0279"
      ],
      "is_coinbase": false,
      "sequence": 4261412863
    }
  ],
  "vout": [
    {
      "scriptpubkey": "00147a665de7a370f4c9b372ab1fae587500a5bcbdb4",
      "scriptpubkey_asm": "OP_0 OP_PUSHBYTES_20 7a665de7a370f4c9b372ab1fae587500a5bcbdb4",
      "scriptpubkey_type": "v0_p2wpkh",
      "scriptpubkey_address": "bc1q0fn9mearwr6vnvmj4v06ukr4qzjme0d565dzcx",
      "value": 294
    }
  ],
  "size": 294,
  "weight": 540,
  "fee": 1512,
  "status": {
    "confirmed": true,
    "block_height": 834460,
    "block_hash": "00000000000000000000484a79b643b2524bbce82e5d8a442013fa5b8905ed98",
    "block_time": 1710307468
  },
  "hex": "02000000000101643321469295d0c73f0634e20c357937dd113ace04293f2a58cb9a8600bac3ac5f00000000fffffffd0126010000000000001600147a665de7a370f4c9b372ab1fae587500a5bcbdb40340525a4203d83a1d937c6b5ac455bdccb8319f6b013a2ca8088108abc4a5c5c0f38d901ea67d933d5c78f5286d6efa3a43aaa8d28e91a8a91ff8e6d981141cee116d208d418f7f5749bf26121e1a332eba40a21eba0b42c92f7130fa236c42867f0279ac0063036f726401010a746578742f706c61696e00357b2270223a226272632d3230222c226f70223a226d696e74222c227469636b223a22646f6765222c22616d74223a2234323030227d6821c18d418f7f5749bf26121e1a332eba40a21eba0b42c92f7130fa236c42867f027900000000"
}