{
  "txid": "f0fdbfc57e4bbba5b108025953edae824830e0ae489328d103c2096f0165561a",
  "version": 1,
  "locktime": 0,
  "vin": [
    {
      "txid": "1bc8002544e147674eb3924055b133dbd332f0f5745458ae0a375ba45dbe46a1",
      "vout": 0,
      "prevout": {
        "scriptpubkey": "00147956fcd77525deea0f8ec40ce41a0127e4c228c3",
        "scriptpubkey_asm": "OP_0 OP_PUSHBYTES_20 7956fcd77525deea0f8ec40ce41a0127e4c228c3",
        "scriptpubkey_type": "v0_p2wpkh",
        "scriptpubkey_address": "bc1q09t0e4m4yh0w5ruwcsxwgxspyljvy2xrfrudgf",
        "value": 7081800
      },
      "scriptsig": "",
      "scriptsig_asm": "",
      "witness": [
        "3045022100aa172a7c77148b8a512273de9e1ae75190479769b8b2747896f563267a02f5d2022071085990b6586c2ba6d9b9a0b4def0515ec821a416649d99573dcae27ca50e4a01",
        "0361675af6f5594e9675081a43a021bee1f38c991d55f963ef751a3e6b47b277b0"
      ],
      "is_coinbase": false,
      "sequence": 4294967295
    }
  ],
  "vout": [
    {
      "scriptpubkey": "0014fc6137520ca458435828b4d8b07d86a07c06c36e",
      "scriptpubkey_asm": "OP_0 OP_PUSHBYTES_20 fc6137520ca458435828b4d8b07d86a07c06c36e",
      "scriptpubkey_type": "v0_p2wpkh",
      "scriptpubkey_address": "bc1ql3snw5sv53vyxkpgknvtqlvx5p7qdsmw3lc204",
      "value": 7078830
    }
  ],
  "size": 192,
  "weight": 438,
  "fee": 2970,
  "status": {
    "confirmed": true,
    "block_height": 834638,
    "block_hash": "000000000000000000025f742c626208ac87e0b7d15054abb4a19ca2d735a54e",
    "block_time": 1710405325
  },
  "hex": "01000000000101a146be5da45b370aae585474f5f032d3db33b1554092b34e6747e1442500c81b0000000000ffffffff01ae036c0000000000160014fc6137520ca458435828b4d8b07d86a07c06c36e02483045022100aa172a7c77148b8a512273de9e1ae75190479769b8b2747896f563267a02f5d2022071085990b6586c2ba6d9b9a0b4def0515ec821a416649d99573dcae27ca50e4a01210361675af6f5594e9675081a43a021bee1f38c991d55f963ef751a3e6b47b277b000000000"
}