{
  "txid": "f109b76ac6f1ef52e2d0ca3e1c408a74643729cf41e294f87f1bbb285055296b",
  "version": 2,
  "locktime": 0,
  "vin": [
    {
      "txid": "d0c8bf00b2efeed4352b3a9f8461ed79e8ad6754e227d268f3dac358e9de3035",
      "vout": 13,
      "prevout": {
        "scriptpubkey": "512060b47e9026375962bd326d5239060c3e9283d8febd0ebaeb96b966b598a4e1b0",
        "scriptpubkey_asm": "OP_PUSHNUM_1 OP_PUSHBYTES_32 60b47e9026375962bd326d5239060c3e9283d8febd0ebaeb96b966b598a4e1b0",
        "scriptpubkey_type": "v1_p2tr",
        "scriptpubkey_address": "bc1pvz68aypxxavk90fjd4frjpsv86fg8k87h58t46ukh9nttx9yuxcqan5s4h",
        "value": 1711
      },
      "scriptsig": "",
      "scriptsig_asm": "",
      "witness": [
        "02",
        "750063036f726401010a746578742f706c61696e00367b2270223a226272632d3230222c226f70223a226d696e74222c227469636b223a2261616161222c22616d74223a223130303030227d6851",
        "c1bea10d7f6fea428670f03f8b2cbd278c74d11ac4f6080549a7965e2f9a29094c"
      ],
      "is_coinbase": false,
      "sequence": 4294967295
    }
  ],
  "vout": [
    {
      "scriptpubkey": "0014a40897ac0756778584e7dbe457cca54abc6daf4c",
      "scriptpubkey_asm": "OP_0 OP_PUSHBYTES_20 a40897ac0756778584e7dbe457cca54abc6daf4c",
      "scriptpubkey_type": "v0_p2wpkh",
      "scriptpubkey_address": "bc1q5syf0tq82emctp88m0j90n99f27xmt6v2f79lx",
      "value": 294
    }
  ],
  "size": 200,
  "weight": 446,
  "fee": 1417,
  "status": {
    "confirmed": true,
    "block_height": 834460,
    "block_hash": "00000000000000000000484a79b643b2524bbce82e5d8a442013fa5b8905ed98",
    "block_time": 1710307468
  },
  "hex": "020000000001013530dee958c3daf368d227e25467ade879ed61849f3a2b35d4eeefb200bfc8d00d00000000ffffffff012601000000000000160014a40897ac0756778584e7dbe457cca54abc6daf4c0301024e750063036f726401010a746578742f706c61696e00367b2270223a226272632d3230222c226f70223a226d696e74222c227469636b223a2261616161222c22616d74223a223130303030227d685121c1bea10d7f6fea428670f03f8b2cbd278c74d11ac4f6080549a7965e2f9a29094c00000000"
}