{
  "txid": "f1159e6bf0904cc092d0ddf098dce395ef760f3ccd8a41c475d8ec42080fdbc8",
  "version": 1,
  "locktime": 0,
  "vin": [
    {
      "txid": "4e0d4497a33352491fb17887b11631fc09d799fd8a198ea07ec415a5613cb34b",
      "vout": 0,
      "prevout": {
        "scriptpubkey": "00143d9338932f75052ef3175da9356696f748fcbbd1",
        "scriptpubkey_asm": "OP_0 OP_PUSHBYTES_20 3d9338932f75052ef3175da9356696f748fcbbd1",
        "scriptpubkey_type": "v0_p2wpkh",
        "scriptpubkey_address": "bc1q8kfn3ye0w5zjauchtk5n2e5k7ay0ew73jurag0",
        "value": 11777000
      },
      "scriptsig": "",
      "scriptsig_asm": "",
      "witness": [
        "3045022100970ee41234c45718902951cda0a23e43cfd30f6ce839a5a5269af49a680e9d5302201abe26fa002804396879263a6013010143c1ff3bb0675db00d444628af2f696b01",
        "036ddc30c39ec2c75b98c79f46e1108b9aa5951e20612640ad5f31003b0d21241a"
      ],
      "is_coinbase": false,
      "sequence": 4294967293
    }
  ],
  "vout": [
    {
      "scriptpubkey": "00140df28b5714f1be409a8595b8ad89a61047e45a2e",
      "scriptpubkey_asm": "OP_0 OP_PUSHBYTES_20 0df28b5714f1be409a8595b8ad89a61047e45a2e",
      "scriptpubkey_type": "v0_p2wpkh",
      "scriptpubkey_address": "bc1qphegk4c57xlypx59jku2mzdxzpr7gk3w2g69lv",
      "value": 4474180
    },
    {
      "scriptpubkey": "0014a6af417c8724638ac3f75801a51e8775e7c03ae8",
      "scriptpubkey_asm": "OP_0 OP_PUSHBYTES_20 a6af417c8724638ac3f75801a51e8775e7c03ae8",
      "scriptpubkey_type": "v0_p2wpkh",
      "scriptpubkey_address": "bc1q56h5zly8y33c4slhtqq62858whnuqwhg3fn4wj",
      "value": 7300000
    }
  ],
  "size": 223,
  "weight": 562,
  "fee": 2820,
  "status": {
    "confirmed": true,
    "block_height": 834638,
    "block_hash": "000000000000000000025f742c626208ac87e0b7d15054abb4a19ca2d735a54e",
    "block_time": 1710405325
  },
  "hex": "010000000001014bb33c61a515c47ea08e198afd99d709fc3116b18778b11f495233a397440d4e0000000000fdffffff0244454400000000001600140df28b5714f1be409a8595b8ad89a61047e45a2ea0636f0000000000160014a6af417c8724638ac3f75801a51e8775e7c03ae802483045022100970ee41234c45718902951cda0a23e43cfd30f6ce839a5a5269af49a680e9d5302201abe26fa002804396879263a6013010143c1ff3bb0675db00d444628af2f696b0121036ddc30c39ec2c75b98c79f46e1108b9aa5951e20612640ad5f31003b0d21241a00000000"
}