{
  "txid": "f11d3ca9f33bc0c029aa718f1736e0ee854dd41b3cf0e23a03400955989e3f43",
  "version": 2,
  "locktime": 0,
  "vin": [
    {
      "txid": "212375e5d86442c91200ea5b641ecb84f164ebde9e9697977830b3f12d5f2a72",
      "vout": 0,
      "prevout": {
        "scriptpubkey": "0014f6bded5c7cc368b0725ac4e0d5f440565aedbf1f",
        "scriptpubkey_asm": "OP_0 OP_PUSHBYTES_20 f6bded5c7cc368b0725ac4e0d5f440565aedbf1f",
        "scriptpubkey_type": "v0_p2wpkh",
        "scriptpubkey_address": "bc1q76776hrucd5tquj6cnsdtazq2edwm0cl25wu0y",
        "value": 204596
      },
      "scriptsig": "",
      "scriptsig_asm": "",
      "witness": [
        "304402206000e6dcb8376e05a3920f79d1ba1fe967d74f24624999ab75cf545f841295eb02203547e30bbba351ab92253f2236592fc91a0afeb7e11c95722ebd2c8702192caa01",
        "02b8637f79c02441ef025d2c83143597ea2d32bbe160fbe6d2bbd195e2705871b2"
      ],
      "is_coinbase": false,
      "sequence": 4294967293
    }
  ],
  "vout": [
    {
      "scriptpubkey": "0014f6bded5c7cc368b0725ac4e0d5f440565aedbf1f",
      "scriptpubkey_asm": "OP_0 OP_PUSHBYTES_20 f6bded5c7cc368b0725ac4e0d5f440565aedbf1f",
      "scriptpubkey_type": "v0_p2wpkh",
      "scriptpubkey_address": "bc1q76776hrucd5tquj6cnsdtazq2edwm0cl25wu0y",
      "value": 66196
    },
    {
      "scriptpubkey": "a91449667ab96b20f2a0f0711e5eff742bb227126eb987",
      "scriptpubkey_asm": "OP_HASH160 OP_PUSHBYTES_20 49667ab96b20f2a0f0711e5eff742bb227126eb9 OP_EQUAL",
      "scriptpubkey_type": "p2sh",
      "scriptpubkey_address": "38P81wVZqhn3MrZm1RPRwh5P68XtovWL5J",
      "value": 136163
    }
  ],
  "size": 223,
  "weight": 565,
  "fee": 2237,
  "status": {
    "confirmed": true,
    "block_height": 834638,
    "block_hash": "000000000000000000025f742c626208ac87e0b7d15054abb4a19ca2d735a54e",
    "block_time": 1710405325
  },
  "hex": "02000000000101722a5f2df1b330789797969edeeb64f184cb1e645bea0012c94264d8e57523210000000000fdffffff029402010000000000160014f6bded5c7cc368b0725ac4e0d5f440565aedbf1fe31302000000000017a91449667ab96b20f2a0f0711e5eff742bb227126eb9870247304402206000e6dcb8376e05a3920f79d1ba1fe967d74f24624999ab75cf545f841295eb02203547e30bbba351ab92253f2236592fc91a0afeb7e11c95722ebd2c8702192caa012102b8637f79c02441ef025d2c83143597ea2d32bbe160fbe6d2bbd195e2705871b200000000"
}