{
  "txid": "f12a5a9cb7cfbb24de1951d225b6e052cc926361ef890eb28d6a986416398e45",
  "version": 1,
  "locktime": 0,
  "vin": [
    {
      "txid": "e78867cf65ade884fed5a4e520ea068fcd4ae26087865774f3dfd65e509a051a",
      "vout": 1,
      "prevout": {
        "scriptpubkey": "001497c50a10331fe5fdc0de2fad2d097110fa19feba",
        "scriptpubkey_asm": "OP_0 OP_PUSHBYTES_20 97c50a10331fe5fdc0de2fad2d097110fa19feba",
        "scriptpubkey_type": "v0_p2wpkh",
        "scriptpubkey_address": "bc1qjlzs5ypnrljlmsx797kj6zt3zrapnl464uj4ja",
        "value": 290507
      },
      "scriptsig": "",
      "scriptsig_asm": "",
      "witness": [
        "3045022100ced894371e450f1563544d616d99e065406a189a14b8d4fce2de9bc402ec56c002207e2b5735a2d63d754baafbb67454feef9959e9eeb3bac9a0a17331db9eec3b5301",
        "0363f99b8abb0fd5f49709977918f4e1f2ae4ff1c214558fbae422c37ea25e9da1"
      ],
      "is_coinbase": false,
      "sequence": 4294967295
    }
  ],
  "vout": [
    {
      "scriptpubkey": "0014e55ff79454f929ffc14fbfb8d1c516456b011d6a",
      "scriptpubkey_asm": "OP_0 OP_PUSHBYTES_20 e55ff79454f929ffc14fbfb8d1c516456b011d6a",
      "scriptpubkey_type": "v0_p2wpkh",
      "scriptpubkey_address": "bc1qu40l09z5ly5lls20h7udr3gkg44sz8t20auqpd",
      "value": 68000
    },
    {
      "scriptpubkey": "0014cfa4d16bb722aeec25dc95df4e6e81b7a73f0ea6",
      "scriptpubkey_asm": "OP_0 OP_PUSHBYTES_20 cfa4d16bb722aeec25dc95df4e6e81b7a73f0ea6",
      "scriptpubkey_type": "v0_p2wpkh",
      "scriptpubkey_address": "bc1qe7jdz6ahy2hwcfwujh05um5pk7nn7r4xh8kh9s",
      "value": 220410
    }
  ],
  "size": 223,
  "weight": 562,
  "fee": 2097,
  "status": {
    "confirmed": true,
    "block_height": 834638,
    "block_hash": "000000000000000000025f742c626208ac87e0b7d15054abb4a19ca2d735a54e",
    "block_time": 1710405325
  },
  "hex": "010000000001011a059a505ed6dff37457868760e24acd8f06ea20e5a4d5fe84e8ad65cf6788e70100000000ffffffff02a009010000000000160014e55ff79454f929ffc14fbfb8d1c516456b011d6afa5c030000000000160014cfa4d16bb722aeec25dc95df4e6e81b7a73f0ea602483045022100ced894371e450f1563544d616d99e065406a189a14b8d4fce2de9bc402ec56c002207e2b5735a2d63d754baafbb67454feef9959e9eeb3bac9a0a17331db9eec3b5301210363f99b8abb0fd5f49709977918f4e1f2ae4ff1c214558fbae422c37ea25e9da100000000"
}