{
  "txid": "f12fcc9d8b0f8544e8e45094100c678d32d842fe91c29a9f0f6e187ef7192a1f",
  "version": 2,
  "locktime": 0,
  "vin": [
    {
      "txid": "74745e71254d87466a8fc6d25e2169924c84577c7d633ac1589e2ea62532e11f",
      "vout": 1,
      "prevout": {
        "scriptpubkey": "512035c95c3f024c6a7f8dc9ecb9eb36d5a2abd5504232f5d893c23fe0e7d5f53e8a",
        "scriptpubkey_asm": "OP_PUSHNUM_1 OP_PUSHBYTES_32 35c95c3f024c6a7f8dc9ecb9eb36d5a2abd5504232f5d893c23fe0e7d5f53e8a",
        "scriptpubkey_type": "v1_p2tr",
        "scriptpubkey_address": "bc1pxhy4c0czf348lrwfaju7kdk4524a25zzxt6a3y7z8lsw0404869qddg8aw",
        "value": 967760
      },
      "scriptsig": "",
      "scriptsig_asm": "",
      "witness": [
        "3a1d87c111df95d5cf8bc9a4a43d9ef33acb20f26be9b4998208cf936ce965f3c786abb0e457bbc9ea5626d2e60b8ba8f4f26a77535396ca12585dd590f79997"
      ],
      "is_coinbase": false,
      "sequence": 4294967295
    }
  ],
  "vout": [
    {
      "scriptpubkey": "5120b105c64be2ec31f8d1f808574d4aba3d30eb7fa4e58147cce36c168e79fd8d4b",
      "scriptpubkey_asm": "OP_PUSHNUM_1 OP_PUSHBYTES_32 b105c64be2ec31f8d1f808574d4aba3d30eb7fa4e58147cce36c168e79fd8d4b",
      "scriptpubkey_type": "v1_p2tr",
      "scriptpubkey_address": "bc1pkyzuvjlzascl350cppt56j4685cwklayukq50n8rdstgu70a349s9rvch8",
      "value": 5000
    },
    {
      "scriptpubkey": "512035c95c3f024c6a7f8dc9ecb9eb36d5a2abd5504232f5d893c23fe0e7d5f53e8a",
      "scriptpubkey_asm": "OP_PUSHNUM_1 OP_PUSHBYTES_32 35c95c3f024c6a7f8dc9ecb9eb36d5a2abd5504232f5d893c23fe0e7d5f53e8a",
      "scriptpubkey_type": "v1_p2tr",
      "scriptpubkey_address": "bc1pxhy4c0czf348lrwfaju7kdk4524a25zzxt6a3y7z8lsw0404869qddg8aw",
      "value": 959680
    }
  ],
  "size": 205,
  "weight": 616,
  "fee": 3080,
  "status": {
    "confirmed": true,
    "block_height": 834638,
    "block_hash": "000000000000000000025f742c626208ac87e0b7d15054abb4a19ca2d735a54e",
    "block_time": 1710405325
  },
  "hex": "020000000001011fe13225a62e9e58c13a637d7c57844c9269215ed2c68f6a46874d25715e74740100000000ffffffff028813000000000000225120b105c64be2ec31f8d1f808574d4aba3d30eb7fa4e58147cce36c168e79fd8d4bc0a40e000000000022512035c95c3f024c6a7f8dc9ecb9eb36d5a2abd5504232f5d893c23fe0e7d5f53e8a01403a1d87c111df95d5cf8bc9a4a43d9ef33acb20f26be9b4998208cf936ce965f3c786abb0e457bbc9ea5626d2e60b8ba8f4f26a77535396ca12585dd590f7999700000000"
}