{
  "txid": "f13eb362c038ee2cd7ec96e50f97ca9a948d087b69fe9da064d2aa519889e976",
  "version": 1,
  "locktime": 0,
  "vin": [
    {
      "txid": "b401a7cc8be32c7bb442af11e8706e5158a7ed55296a3c8d2daa76b3f1e86206",
      "vout": 0,
      "prevout": {
        "scriptpubkey": "00146b2613121e33dc010f6d46a0f2be512487ab7e18",
        "scriptpubkey_asm": "OP_0 OP_PUSHBYTES_20 6b2613121e33dc010f6d46a0f2be512487ab7e18",
        "scriptpubkey_type": "v0_p2wpkh",
        "scriptpubkey_address": "bc1qdvnpxys7x0wqzrmdg6s090j3yjr6klscc76mml",
        "value": 700710
      },
      "scriptsig": "",
      "scriptsig_asm": "",
      "witness": [
        "304402207b1e3c5ef8ffab48f03707c9d67898f99342e71209f3f50aa4ecfe1e8f6406bd02205df0718c78ede4e4e9313094efc0f1e04739fb710db6e8c2212f4ef1246fe31601",
        "0276c49638025a1fe90524f8a527e4282009ec83e3413406649b032e87e83206c3"
      ],
      "is_coinbase": false,
      "sequence": 4294967295
    }
  ],
  "vout": [
    {
      "scriptpubkey": "a914d722050b3cf0a946d76f66d8dd20466f9cd7292587",
      "scriptpubkey_asm": "OP_HASH160 OP_PUSHBYTES_20 d722050b3cf0a946d76f66d8dd20466f9cd72925 OP_EQUAL",
      "scriptpubkey_type": "p2sh",
      "scriptpubkey_address": "3MJXxWyiy7Qp6ZC67V9GDaz6K8yesavKZq",
      "value": 697713
    }
  ],
  "size": 192,
  "weight": 441,
  "fee": 2997,
  "status": {
    "confirmed": true,
    "block_height": 834638,
    "block_hash": "000000000000000000025f742c626208ac87e0b7d15054abb4a19ca2d735a54e",
    "block_time": 1710405325
  },
  "hex": "010000000001010662e8f1b376aa2d8d3c6a2955eda758516e70e811af42b47b2ce38bcca701b40000000000ffffffff0171a50a000000000017a914d722050b3cf0a946d76f66d8dd20466f9cd72925870247304402207b1e3c5ef8ffab48f03707c9d67898f99342e71209f3f50aa4ecfe1e8f6406bd02205df0718c78ede4e4e9313094efc0f1e04739fb710db6e8c2212f4ef1246fe31601210276c49638025a1fe90524f8a527e4282009ec83e3413406649b032e87e83206c300000000"
}