{
  "txid": "f150324921e7f086290f507a9c15b4a119993b3b5c294bc43c40c7da94acecd4",
  "version": 1,
  "locktime": 0,
  "vin": [
    {
      "txid": "30d2e7e5df122e52acf624d83307b8daf9ee92f67cf5e573a6f883351d607cff",
      "vout": 27,
      "prevout": {
        "scriptpubkey": "0014087cda3a730edbd8768f03c94257b216962f71ae",
        "scriptpubkey_asm": "OP_0 OP_PUSHBYTES_20 087cda3a730edbd8768f03c94257b216962f71ae",
        "scriptpubkey_type": "v0_p2wpkh",
        "scriptpubkey_address": "bc1qpp7d5wnnpmdasa50q0y5y4ajz6tz7udw9l8vjh",
        "value": 77527
      },
      "scriptsig": "",
      "scriptsig_asm": "",
      "witness": [
        "304402206c01cafdc3d43de90516a5a1541142a19eea6d1d2bbb5172258ecdf9779675a502207ad7d4d6692daf6243898543d530cc2a3da4fdc71bd571f1e228866d53c1759301",
        "02772cd2ded9f96730f11226e4327ea1e8a83a791b647b0105949a7dc61258406f"
      ],
      "is_coinbase": false,
      "sequence": 4294967295
    }
  ],
  "vout": [
    {
      "scriptpubkey": "76a91426ba3937dfb70a55cb6ef998d4408bfb16053b0988ac",
      "scriptpubkey_asm": "OP_DUP OP_HASH160 OP_PUSHBYTES_20 26ba3937dfb70a55cb6ef998d4408bfb16053b09 OP_EQUALVERIFY OP_CHECKSIG",
      "scriptpubkey_type": "p2pkh",
      "scriptpubkey_address": "14XmmKtwbP8byQtkn9h8oFpgKbeHDqeb2e",
      "value": 74476
    }
  ],
  "size": 194,
  "weight": 449,
  "fee": 3051,
  "status": {
    "confirmed": true,
    "block_height": 834638,
    "block_hash": "000000000000000000025f742c626208ac87e0b7d15054abb4a19ca2d735a54e",
    "block_time": 1710405325
  },
  "hex": "01000000000101ff7c601d3583f8a673e5f57cf692eef9dab80733d824f6ac522e12dfe5e7d2301b00000000ffffffff01ec220100000000001976a91426ba3937dfb70a55cb6ef998d4408bfb16053b0988ac0247304402206c01cafdc3d43de90516a5a1541142a19eea6d1d2bbb5172258ecdf9779675a502207ad7d4d6692daf6243898543d530cc2a3da4fdc71bd571f1e228866d53c17593012102772cd2ded9f96730f11226e4327ea1e8a83a791b647b0105949a7dc61258406f00000000"
}