{
  "txid": "f1526dabef35d633231945a9bf0fbb91407df2b800fa0ec5de9d9f98998fe26a",
  "version": 1,
  "locktime": 0,
  "vin": [
    {
      "txid": "fb5769de6732f49245f331488d969d72b046face8eea093ea98506a3601b0414",
      "vout": 3,
      "prevout": {
        "scriptpubkey": "00144341af702ea15e5c2f7b8ae95106d5360479e374",
        "scriptpubkey_asm": "OP_0 OP_PUSHBYTES_20 4341af702ea15e5c2f7b8ae95106d5360479e374",
        "scriptpubkey_type": "v0_p2wpkh",
        "scriptpubkey_address": "bc1qgdq67upw5909ctmm3t54zpk4xcz8ncm5ggafcr",
        "value": 30983862
      },
      "scriptsig": "",
      "scriptsig_asm": "",
      "witness": [
        "30450221009871f656d50791356f088fbd721e35ca53d7d90ef69c3c693839253096021d9c02200846ee46053e918f44ee6c1c57af4ebcb7008d6dce06bb3e1b8941511d3dd91b01",
        "026b7da7e93af51ba7f78e02ab9aef00747f989a51cd9aef4855c980a50840c970"
      ],
      "is_coinbase": false,
      "sequence": 4294967293
    }
  ],
  "vout": [
    {
      "scriptpubkey": "6a4c5058325b7fffaf470935b87557b25d414c3696268f089cc58c69b88072d2b1df2e944c41e6279038e214cdf48b8b1fbfcf38a89e24bf0f4ab2513921b2bb4b6265f675c5000cbb9e0023000cabd500084b",
      "scriptpubkey_asm": "OP_RETURN OP_PUSHDATA1 58325b7fffaf470935b87557b25d414c3696268f089cc58c69b88072d2b1df2e944c41e6279038e214cdf48b8b1fbfcf38a89e24bf0f4ab2513921b2bb4b6265f675c5000cbb9e0023000cabd500084b",
      "scriptpubkey_type": "op_return",
      "value": 0
    },
    {
      "scriptpubkey": "a914a8c5719e4f293813161b9b22950781412b741c6387",
      "scriptpubkey_asm": "OP_HASH160 OP_PUSHBYTES_20 a8c5719e4f293813161b9b22950781412b741c63 OP_EQUAL",
      "scriptpubkey_type": "p2sh",
      "scriptpubkey_address": "3H5PyQeV1wnxTHSVWq8gPSNeGPkULx89WU",
      "value": 1000
    },
    {
      "scriptpubkey": "a914fec64275de22c35d07e3a8700fec014aeb47712587",
      "scriptpubkey_asm": "OP_HASH160 OP_PUSHBYTES_20 fec64275de22c35d07e3a8700fec014aeb477125 OP_EQUAL",
      "scriptpubkey_type": "p2sh",
      "scriptpubkey_address": "3Qv94b484MujcxPoMoWSFg61EjQZfKrK52",
      "value": 1000
    },
    {
      "scriptpubkey": "00144341af702ea15e5c2f7b8ae95106d5360479e374",
      "scriptpubkey_asm": "OP_0 OP_PUSHBYTES_20 4341af702ea15e5c2f7b8ae95106d5360479e374",
      "scriptpubkey_type": "v0_p2wpkh",
      "scriptpubkey_address": "bc1qgdq67upw5909ctmm3t54zpk4xcz8ncm5ggafcr",
      "value": 30976961
    }
  ],
  "size": 348,
  "weight": 1062,
  "fee": 4901,
  "status": {
    "confirmed": true,
    "block_height": 834464,
    "block_hash": "0000000000000000000177a0869a911a2b65c9bdcd5a8bcb02b68f305bee848e",
    "block_time": 1710308296
  },
  "hex": "0100000000010114041b60a30685a93e09ea8ecefa46b0729d968d4831f34592f43267de6957fb0300000000fdffffff040000000000000000536a4c5058325b7fffaf470935b87557b25d414c3696268f089cc58c69b88072d2b1df2e944c41e6279038e214cdf48b8b1fbfcf38a89e24bf0f4ab2513921b2bb4b6265f675c5000cbb9e0023000cabd500084be80300000000000017a914a8c5719e4f293813161b9b22950781412b741c6387e80300000000000017a914fec64275de22c35d07e3a8700fec014aeb47712587c1abd801000000001600144341af702ea15e5c2f7b8ae95106d5360479e374024830450221009871f656d50791356f088fbd721e35ca53d7d90ef69c3c693839253096021d9c02200846ee46053e918f44ee6c1c57af4ebcb7008d6dce06bb3e1b8941511d3dd91b0121026b7da7e93af51ba7f78e02ab9aef00747f989a51cd9aef4855c980a50840c97000000000"
}