{
  "txid": "f1831a16365de3675f4bc483e68efe71bc77b944bde5f1078102cdcedfe6a24c",
  "version": 2,
  "locktime": 834458,
  "vin": [
    {
      "txid": "390daedb9515294a4ed5255447b266738473793b53549b68c5618d32a6e2555b",
      "vout": 1,
      "prevout": {
        "scriptpubkey": "00147e93a5c249241cd0f047405b38edc1db3e496368",
        "scriptpubkey_asm": "OP_0 OP_PUSHBYTES_20 7e93a5c249241cd0f047405b38edc1db3e496368",
        "scriptpubkey_type": "v0_p2wpkh",
        "scriptpubkey_address": "bc1q06f6tsjfyswdpuz8gpdn3mwpmvlyjcmgkzlhvw",
        "value": 2260407
      },
      "scriptsig": "",
      "scriptsig_asm": "",
      "witness": [
        "3044022074875b59097b2ea7aedaed2f73506ae860630f136b4a8de3e22348f671d3b0990220537146db70e1b9826d0506def4e762b4aa15d64dccf38b4a4c91b1b9815c3e2101",
        "03833baae8123b2ec5019532f28e2ccda0efbce15270ed70c587e707b1d1740e6f"
      ],
      "is_coinbase": false,
      "sequence": 4294967293
    }
  ],
  "vout": [
    {
      "scriptpubkey": "0014a23a8b9241719c3a12fb99f968a19d9940db9802",
      "scriptpubkey_asm": "OP_0 OP_PUSHBYTES_20 a23a8b9241719c3a12fb99f968a19d9940db9802",
      "scriptpubkey_type": "v0_p2wpkh",
      "scriptpubkey_address": "bc1q5gaghyjpwxwr5yhmn8uk3gvan9qdhxqz8pvvz9",
      "value": 1000000
    },
    {
      "scriptpubkey": "0014aec29011f4e43dd23fb772bb81420facdf999389",
      "scriptpubkey_asm": "OP_0 OP_PUSHBYTES_20 aec29011f4e43dd23fb772bb81420facdf999389",
      "scriptpubkey_type": "v0_p2wpkh",
      "scriptpubkey_address": "bc1q4mpfqy05us7ay0ahw2aczss04n0enyufs79sfu",
      "value": 1258304
    }
  ],
  "size": 222,
  "weight": 561,
  "fee": 2103,
  "status": {
    "confirmed": true,
    "block_height": 834460,
    "block_hash": "00000000000000000000484a79b643b2524bbce82e5d8a442013fa5b8905ed98",
    "block_time": 1710307468
  },
  "hex": "020000000001015b55e2a6328d61c5689b54533b7973847366b2475425d54e4a291595dbae0d390100000000fdffffff0240420f0000000000160014a23a8b9241719c3a12fb99f968a19d9940db98024033130000000000160014aec29011f4e43dd23fb772bb81420facdf99938902473044022074875b59097b2ea7aedaed2f73506ae860630f136b4a8de3e22348f671d3b0990220537146db70e1b9826d0506def4e762b4aa15d64dccf38b4a4c91b1b9815c3e21012103833baae8123b2ec5019532f28e2ccda0efbce15270ed70c587e707b1d1740e6f9abb0c00"
}