{
  "txid": "f1ae6b8a1e3ae6a8746d867ac44807b86dc72889f415eb543bbe6018bf2c6dde",
  "version": 2,
  "locktime": 0,
  "vin": [
    {
      "txid": "b6da0847c470dfca6257805657cd95976dcd9a2ff34f6f12682731eda8da39c6",
      "vout": 0,
      "prevout": {
        "scriptpubkey": "5120557771d6e3f88f0d08e075662727acd413fb0313518966b95e8e9086fd53e218",
        "scriptpubkey_asm": "OP_PUSHNUM_1 OP_PUSHBYTES_32 557771d6e3f88f0d08e075662727acd413fb0313518966b95e8e9086fd53e218",
        "scriptpubkey_type": "v1_p2tr",
        "scriptpubkey_address": "bc1p24mhr4hrlz8s6z8qw4nzwfav6sflkqcn2xykdw2736ggdl2nugvqqcl72x",
        "value": 22000
      },
      "scriptsig": "",
      "scriptsig_asm": "",
      "witness": [
        "9279fea8553877dabe1c6b42ad70ae3d44ba547399fc475a6cf9be12be83269c41d6d1a8af412d28c633417c5c38a8b5d4e63ed35b77a9f40395f8fba8c3b76f01"
      ],
      "is_coinbase": false,
      "sequence": 4294967295
    }
  ],
  "vout": [
    {
      "scriptpubkey": "76a9147c5ec5ab456d74048638c307d5d8e779f6ef5f4988ac",
      "scriptpubkey_asm": "OP_DUP OP_HASH160 OP_PUSHBYTES_20 7c5ec5ab456d74048638c307d5d8e779f6ef5f49 OP_EQUALVERIFY OP_CHECKSIG",
      "scriptpubkey_type": "p2pkh",
      "scriptpubkey_address": "1CLcKfvKY8XgsfCJKy1CZaHv2KkSCqsxHD",
      "value": 19690
    }
  ],
  "size": 154,
  "weight": 409,
  "fee": 2310,
  "status": {
    "confirmed": true,
    "block_height": 834638,
    "block_hash": "000000000000000000025f742c626208ac87e0b7d15054abb4a19ca2d735a54e",
    "block_time": 1710405325
  },
  "hex": "02000000000101c639daa8ed312768126f4ff32f9acd6d9795cd5756805762cadf70c44708dab60000000000ffffffff01ea4c0000000000001976a9147c5ec5ab456d74048638c307d5d8e779f6ef5f4988ac01419279fea8553877dabe1c6b42ad70ae3d44ba547399fc475a6cf9be12be83269c41d6d1a8af412d28c633417c5c38a8b5d4e63ed35b77a9f40395f8fba8c3b76f0100000000"
}