{
  "txid": "f1ae9980b1f4eaa7e0cd8c0c1f0ccb112661d86bfdb39f0bbe997288f7b5d144",
  "version": 2,
  "locktime": 0,
  "vin": [
    {
      "txid": "66ac8ed1b069d805017f2bc0cf483c17169c89c344b6f5ae4927f6ed6f4545bd",
      "vout": 1,
      "prevout": {
        "scriptpubkey": "00147c5d14cd297f7f6080442fc0f95f6a95164d10e6",
        "scriptpubkey_asm": "OP_0 OP_PUSHBYTES_20 7c5d14cd297f7f6080442fc0f95f6a95164d10e6",
        "scriptpubkey_type": "v0_p2wpkh",
        "scriptpubkey_address": "bc1q03w3fnff0alkpqzy9lq0jhm2j5ty6y8xaycvsx",
        "value": 100000000
      },
      "scriptsig": "",
      "scriptsig_asm": "",
      "witness": [
        "30440220492507a68ffe2102b56823f77bc04ffa96d350720fce5cbba2be963c8f5ee99202200f93ee08768d1d4c3ec48b4fe59108bb47415ee275ee579026ca923e465d73e601",
        "0311d5ea38e7bbdfa6b45afad808428d98b9ee5ddf29dc2336501cdb6a27c38ef6"
      ],
      "is_coinbase": false,
      "sequence": 4294967295
    },
    {
      "txid": "bcd8d5f9c1548fb9e4956de0b5d99995c5494b56230609515857093ec08936b0",
      "vout": 1,
      "prevout": {
        "scriptpubkey": "00147c5d14cd297f7f6080442fc0f95f6a95164d10e6",
        "scriptpubkey_asm": "OP_0 OP_PUSHBYTES_20 7c5d14cd297f7f6080442fc0f95f6a95164d10e6",
        "scriptpubkey_type": "v0_p2wpkh",
        "scriptpubkey_address": "bc1q03w3fnff0alkpqzy9lq0jhm2j5ty6y8xaycvsx",
        "value": 877382
      },
      "scriptsig": "",
      "scriptsig_asm": "",
      "witness": [
        "30440220412c2e3624630e4c95eefc81f3a8fb2bb625902faf745e3749255ec02560d2f002207d55d6df3ba999bd4768fbabda40e9ab9b9e90bee0f1d448c96f46e5ec7099a601",
        "0311d5ea38e7bbdfa6b45afad808428d98b9ee5ddf29dc2336501cdb6a27c38ef6"
      ],
      "is_coinbase": false,
      "sequence": 4294967295
    }
  ],
  "vout": [
    {
      "scriptpubkey": "76a91412700f3eafd063b2bd8f4431801b0ede5be26e3588ac",
      "scriptpubkey_asm": "OP_DUP OP_HASH160 OP_PUSHBYTES_20 12700f3eafd063b2bd8f4431801b0ede5be26e35 OP_EQUALVERIFY OP_CHECKSIG",
      "scriptpubkey_type": "p2pkh",
      "scriptpubkey_address": "12gVQVFGLiuGkkJWP3P2qB8hMi2iWHXYZF",
      "value": 35000000
    },
    {
      "scriptpubkey": "00147c5d14cd297f7f6080442fc0f95f6a95164d10e6",
      "scriptpubkey_asm": "OP_0 OP_PUSHBYTES_20 7c5d14cd297f7f6080442fc0f95f6a95164d10e6",
      "scriptpubkey_type": "v0_p2wpkh",
      "scriptpubkey_address": "bc1q03w3fnff0alkpqzy9lq0jhm2j5ty6y8xaycvsx",
      "value": 65874043
    }
  ],
  "size": 373,
  "weight": 844,
  "fee": 3339,
  "status": {
    "confirmed": true,
    "block_height": 834638,
    "block_hash": "000000000000000000025f742c626208ac87e0b7d15054abb4a19ca2d735a54e",
    "block_time": 1710405325
  },
  "hex": "02000000000102bd45456fedf62749aef5b644c3899c16173c48cfc02b7f0105d869b0d18eac660100000000ffffffffb03689c03e09575851090623564b49c59599d9b5e06d95e4b98f54c1f9d5d8bc0100000000ffffffff02c00e1602000000001976a91412700f3eafd063b2bd8f4431801b0ede5be26e3588ac7b28ed03000000001600147c5d14cd297f7f6080442fc0f95f6a95164d10e6024730440220492507a68ffe2102b56823f77bc04ffa96d350720fce5cbba2be963c8f5ee99202200f93ee08768d1d4c3ec48b4fe59108bb47415ee275ee579026ca923e465d73e601210311d5ea38e7bbdfa6b45afad808428d98b9ee5ddf29dc2336501cdb6a27c38ef6024730440220412c2e3624630e4c95eefc81f3a8fb2bb625902faf745e3749255ec02560d2f002207d55d6df3ba999bd4768fbabda40e9ab9b9e90bee0f1d448c96f46e5ec7099a601210311d5ea38e7bbdfa6b45afad808428d98b9ee5ddf29dc2336501cdb6a27c38ef600000000"
}