{
  "txid": "f1af545a774451ba62ed459c669e692778a200baa8993a3e4bce5f0d1c5b2d8b",
  "version": 1,
  "locktime": 0,
  "vin": [
    {
      "txid": "6d351060b4b4bcb319c18fe7b88fb5d9b6cd481e1fb9d62fb7ed3ec9f8132c46",
      "vout": 7,
      "prevout": {
        "scriptpubkey": "001442f1a8717c1edf1fc1299fcc2c0ef80d762c8163",
        "scriptpubkey_asm": "OP_0 OP_PUSHBYTES_20 42f1a8717c1edf1fc1299fcc2c0ef80d762c8163",
        "scriptpubkey_type": "v0_p2wpkh",
        "scriptpubkey_address": "bc1qgtc6suturm03lsffnlxzcrhcp4mzeqtrfaeqnn",
        "value": 103932
      },
      "scriptsig": "",
      "scriptsig_asm": "",
      "witness": [
        "30450221008ebd713c4ccac0f1273c969e599f1d421150f251b00e2fc26b2258866214e4fe022053197e7cb632463ce06e0be04196543000088462946cf8f877d1a564a98c0eac01",
        "0216d94ba63717ed58531676fe0ea57db3ed88ae6e828c99d14a9a7ea6f9dc48fc"
      ],
      "is_coinbase": false,
      "sequence": 4294967295
    },
    {
      "txid": "7b8afba7911e784399113f85685ed3882dd7b9954ffbe719ee1153020efd3c79",
      "vout": 24,
      "prevout": {
        "scriptpubkey": "0014dd0034ab685ed1801f12ac8da6189f416e7357e2",
        "scriptpubkey_asm": "OP_0 OP_PUSHBYTES_20 dd0034ab685ed1801f12ac8da6189f416e7357e2",
        "scriptpubkey_type": "v0_p2wpkh",
        "scriptpubkey_address": "bc1qm5qrf2mgtmgcq8cj4jx6vxylg9h8x4lzuw5x77",
        "value": 103412
      },
      "scriptsig": "",
      "scriptsig_asm": "",
      "witness": [
        "3045022100f174be5ee1563872b34eac3acc6900b7236e049ac7b76fb46ccbf0ecc285d1990220744f59f74a5c66d4f9cb4676eaba495b178e25ece3d891eb628f3220625490d501",
        "024912ec1255cb6a2747984998563212118bc23aa8c1642bee4987a48eb7e19a09"
      ],
      "is_coinbase": false,
      "sequence": 4294967295
    },
    {
      "txid": "96dcd2f3ba03b47bdb2f92ac8023f24a00334578f195a773a67f606b0379cc6e",
      "vout": 3,
      "prevout": {
        "scriptpubkey": "00147ec498e9ad3fe9d396f3e5829530ddf5a2d641f6",
        "scriptpubkey_asm": "OP_0 OP_PUSHBYTES_20 7ec498e9ad3fe9d396f3e5829530ddf5a2d641f6",
        "scriptpubkey_type": "v0_p2wpkh",
        "scriptpubkey_address": "bc1q0mzf36dd8l5a89hnukpf2vxa7k3dvs0ky8xmw2",
        "value": 100000
      },
      "scriptsig": "",
      "scriptsig_asm": "",
      "witness": [
        "30450221008a7a8526d6a5c737510d846ac4c240a72e6ea9bec29780c3a8499d3c1c6baa7f02202354077aba8ffabf3fdb2b840450d137f0a346d00a06a177b37c540229ac07ab01",
        "03f3145a617b63e7cefdf299ab408b431133f162c63d765094019b8aadcf42c14a"
      ],
      "is_coinbase": false,
      "sequence": 4294967295
    },
    {
      "txid": "987c2d7b4698fb1de2f6fab77b1b52b76166244d01a9927b1cfe60011206c7e5",
      "vout": 4,
      "prevout": {
        "scriptpubkey": "0014ea30d28c8c338b709ffdd20e628c4c6a468322ee",
        "scriptpubkey_asm": "OP_0 OP_PUSHBYTES_20 ea30d28c8c338b709ffdd20e628c4c6a468322ee",
        "scriptpubkey_type": "v0_p2wpkh",
        "scriptpubkey_address": "bc1qagcd9ryvxw9hp8la6g8x9rzvdfrgxghwqf6x2k",
        "value": 100000
      },
      "scriptsig": "",
      "scriptsig_asm": "",
      "witness": [
        "3045022100f8e3c374b39135e486b58513db245d1b0bce423e49960bbd7017efc9cd8ab6e602201222c8ffa7fc9b796c0f92310d0cde8c7230657952e07d188d655af3e77ed84401",
        "0223fcd8240a617b4ab5e24573103b9db829fd5f316e3d25d6e713f542cace45ef"
      ],
      "is_coinbase": false,
      "sequence": 4294967295
    },
    {
      "txid": "cbb98777f4385bcb302d1d0218181653e9ca5068a96f91cb79d74e88d190c8ad",
      "vout": 4,
      "prevout": {
        "scriptpubkey": "0014bebc9357147426d30b38cc1b254b461391fab374",
        "scriptpubkey_asm": "OP_0 OP_PUSHBYTES_20 bebc9357147426d30b38cc1b254b461391fab374",
        "scriptpubkey_type": "v0_p2wpkh",
        "scriptpubkey_address": "bc1qh67fx4c5wsndxzecesdj2j6xzwgl4vm5n6647h",
        "value": 100000
      },
      "scriptsig": "",
      "scriptsig_asm": "",
      "witness": [
        "3045022100d58695a8097a5c26df46233a78d85c469e03cd1325adc714ebbd7fe979a17c6402203fe547d582876339e2e5b88c5d5ab2969fa15f7752c936c1483c3a35b85fd8e501",
        "03857706944879f2194e2652b8909516b55dd2b2ad2f3d4325fb452f5b7e4d29e0"
      ],
      "is_coinbase": false,
      "sequence": 4294967295
    }
  ],
  "vout": [
    {
      "scriptpubkey": "00142eddb58f2f845a19888af44044914e9c590016d9",
      "scriptpubkey_asm": "OP_0 OP_PUSHBYTES_20 2eddb58f2f845a19888af44044914e9c590016d9",
      "scriptpubkey_type": "v0_p2wpkh",
      "scriptpubkey_address": "bc1q9mwmtre0s3dpnzy273qyfy2wn3vsq9ke4rfmnd",
      "value": 100000
    },
    {
      "scriptpubkey": "001430614f06fd0b5fac8feab786ae169537109dd6c0",
      "scriptpubkey_asm": "OP_0 OP_PUSHBYTES_20 30614f06fd0b5fac8feab786ae169537109dd6c0",
      "scriptpubkey_type": "v0_p2wpkh",
      "scriptpubkey_address": "bc1qxps57phapd06erl2k7r2u954xugfm4kqncrpcc",
      "value": 100000
    },
    {
      "scriptpubkey": "001462f17515c7650840482006dd811fd1da99ef6c83",
      "scriptpubkey_asm": "OP_0 OP_PUSHBYTES_20 62f17515c7650840482006dd811fd1da99ef6c83",
      "scriptpubkey_type": "v0_p2wpkh",
      "scriptpubkey_address": "bc1qvtch29w8v5yyqjpqqmwcz873m2v77myr25nlnr",
      "value": 100000
    },
    {
      "scriptpubkey": "001469887d9d5c7e689b7825e285fa214ef5cfd0f1e7",
      "scriptpubkey_asm": "OP_0 OP_PUSHBYTES_20 69887d9d5c7e689b7825e285fa214ef5cfd0f1e7",
      "scriptpubkey_type": "v0_p2wpkh",
      "scriptpubkey_address": "bc1qdxy8m82u0e5fk7p9u2zl5g2w7h8apu08uyuyu2",
      "value": 100000
    },
    {
      "scriptpubkey": "0014ce2f1c64c1e4c8f5ec2e14fdcd6fd8ad3bb4241d",
      "scriptpubkey_asm": "OP_0 OP_PUSHBYTES_20 ce2f1c64c1e4c8f5ec2e14fdcd6fd8ad3bb4241d",
      "scriptpubkey_type": "v0_p2wpkh",
      "scriptpubkey_address": "bc1qech3cexpuny0tmpwzn7u6m7c45amgfqajd7600",
      "value": 100000
    }
  ],
  "size": 912,
  "weight": 2022,
  "fee": 7344,
  "status": {
    "confirmed": true,
    "block_height": 834638,
    "block_hash": "000000000000000000025f742c626208ac87e0b7d15054abb4a19ca2d735a54e",
    "block_time": 1710405325
  },
  "hex": "01000000000105462c13f8c93eedb72fd6b91f1e48cdb6d9b58fb8e78fc119b3bcb4b46010356d0700000000ffffffff793cfd0e025311ee19e7fb4f95b9d72d88d35e68853f119943781e91a7fb8a7b1800000000ffffffff6ecc79036b607fa673a795f1784533004af22380ac922fdb7bb403baf3d2dc960300000000ffffffffe5c706120160fe1c7b92a9014d246661b7521b7bb7faf6e21dfb98467b2d7c980400000000ffffffffadc890d1884ed779cb916fa96850cae953161818021d2d30cb5b38f47787b9cb0400000000ffffffff05a0860100000000001600142eddb58f2f845a19888af44044914e9c590016d9a08601000000000016001430614f06fd0b5fac8feab786ae169537109dd6c0a08601000000000016001462f17515c7650840482006dd811fd1da99ef6c83a08601000000000016001469887d9d5c7e689b7825e285fa214ef5cfd0f1e7a086010000000000160014ce2f1c64c1e4c8f5ec2e14fdcd6fd8ad3bb4241d024830450221008ebd713c4ccac0f1273c969e599f1d421150f251b00e2fc26b2258866214e4fe022053197e7cb632463ce06e0be04196543000088462946cf8f877d1a564a98c0eac01210216d94ba63717ed58531676fe0ea57db3ed88ae6e828c99d14a9a7ea6f9dc48fc02483045022100f174be5ee1563872b34eac3acc6900b7236e049ac7b76fb46ccbf0ecc285d1990220744f59f74a5c66d4f9cb4676eaba495b178e25ece3d891eb628f3220625490d50121024912ec1255cb6a2747984998563212118bc23aa8c1642bee4987a48eb7e19a09024830450221008a7a8526d6a5c737510d846ac4c240a72e6ea9bec29780c3a8499d3c1c6baa7f02202354077aba8ffabf3fdb2b840450d137f0a346d00a06a177b37c540229ac07ab012103f3145a617b63e7cefdf299ab408b431133f162c63d765094019b8aadcf42c14a02483045022100f8e3c374b39135e486b58513db245d1b0bce423e49960bbd7017efc9cd8ab6e602201222c8ffa7fc9b796c0f92310d0cde8c7230657952e07d188d655af3e77ed84401210223fcd8240a617b4ab5e24573103b9db829fd5f316e3d25d6e713f542cace45ef02483045022100d58695a8097a5c26df46233a78d85c469e03cd1325adc714ebbd7fe979a17c6402203fe547d582876339e2e5b88c5d5ab2969fa15f7752c936c1483c3a35b85fd8e5012103857706944879f2194e2652b8909516b55dd2b2ad2f3d4325fb452f5b7e4d29e000000000"
}