{
  "txid": "f1b800d77abd1d48ff1a091494dab0cefdbcf8f839b81b15787db45e78af5d4a",
  "version": 1,
  "locktime": 0,
  "vin": [
    {
      "txid": "5ef398cc07eb167b28560e33409c7c5492069ac38f5b0c6ae24331e74c26bda0",
      "vout": 0,
      "prevout": {
        "scriptpubkey": "5120c8433b2c51996f57148e1f875ab3bce7943c05b5e4a24bbcf2c882ec635d4f5e",
        "scriptpubkey_asm": "OP_PUSHNUM_1 OP_PUSHBYTES_32 c8433b2c51996f57148e1f875ab3bce7943c05b5e4a24bbcf2c882ec635d4f5e",
        "scriptpubkey_type": "v1_p2tr",
        "scriptpubkey_address": "bc1peppnktz3n9h4w9ywr7r44vauu72rcpd4uj3yh08jezpwcc6afa0qe2t9gy",
        "value": 2721
      },
      "scriptsig": "",
      "scriptsig_asm": "",
      "witness": [
        "5f932a84d47f51980607f26ca20178e6f273cb0e15c9d232e3c2f5f8c09c1bf61ab7c669c459571c37db1293b466934590886e250cb80dcbd2ecff0838471ac4",
        "20bb0543170d1752bfb0d173724effdc58a708c53d5154e56364e6cb19fd993a73ac0063036f7264010118746578742f706c61696e3b636861727365743d7574662d38003b7b2270223a226272632d3230222c226f70223a227472616e73666572222c227469636b223a224d574343222c22616d74223a22323130383030227d68",
        "c1bb0543170d1752bfb0d173724effdc58a708c53d5154e56364e6cb19fd993a73"
      ],
      "is_coinbase": false,
      "sequence": 4294967293
    }
  ],
  "vout": [
    {
      "scriptpubkey": "00144639af50cc9b5fcc4fc09644c0140078b2d2356c",
      "scriptpubkey_asm": "OP_0 OP_PUSHBYTES_20 4639af50cc9b5fcc4fc09644c0140078b2d2356c",
      "scriptpubkey_type": "v0_p2wpkh",
      "scriptpubkey_address": "bc1qgcu675xvnd0ucn7qjezvq9qq0zedydtv07pqxg",
      "value": 546
    }
  ],
  "size": 314,
  "weight": 560,
  "fee": 2175,
  "status": {
    "confirmed": true,
    "block_height": 834638,
    "block_hash": "000000000000000000025f742c626208ac87e0b7d15054abb4a19ca2d735a54e",
    "block_time": 1710405325
  },
  "hex": "01000000000101a0bd264ce73143e26a0c5b8fc39a0692547c9c40330e56287b16eb07cc98f35e0000000000fdffffff0122020000000000001600144639af50cc9b5fcc4fc09644c0140078b2d2356c03405f932a84d47f51980607f26ca20178e6f273cb0e15c9d232e3c2f5f8c09c1bf61ab7c669c459571c37db1293b466934590886e250cb80dcbd2ecff0838471ac48120bb0543170d1752bfb0d173724effdc58a708c53d5154e56364e6cb19fd993a73ac0063036f7264010118746578742f706c61696e3b636861727365743d7574662d38003b7b2270223a226272632d3230222c226f70223a227472616e73666572222c227469636b223a224d574343222c22616d74223a22323130383030227d6821c1bb0543170d1752bfb0d173724effdc58a708c53d5154e56364e6cb19fd993a7300000000"
}