{
  "txid": "f1b994fc964f19fe34bc07b9be1a0f5a9fd93bbe41264b643a63b1186f1850bf",
  "version": 1,
  "locktime": 0,
  "vin": [
    {
      "txid": "f05216f7a1645ecbe1c79833c0f3e7c304a0eedec59af14a0516ea136da0d046",
      "vout": 1,
      "prevout": {
        "scriptpubkey": "0014b1d3cb2d18e2ea54a07bea004a50897957005e04",
        "scriptpubkey_asm": "OP_0 OP_PUSHBYTES_20 b1d3cb2d18e2ea54a07bea004a50897957005e04",
        "scriptpubkey_type": "v0_p2wpkh",
        "scriptpubkey_address": "bc1qk8fuktgcut49fgrmagqy55yf09tsqhsyz0q9h6",
        "value": 45957
      },
      "scriptsig": "",
      "scriptsig_asm": "",
      "witness": [
        "30440220620ba0f6a0a558d729e3452df947755eefe8501e2324f37ae4573d4b70e6095002206a30f22026e8bbbe50fcff930fe32b1fb8a6723cfe8bdc96e46e1bae7b1a141501",
        "034a997386065cf87428dc7ac2309b3a6665c19e6297c4c41543d67ea871661760"
      ],
      "is_coinbase": false,
      "sequence": 4294967295
    },
    {
      "txid": "27ecb4fc263669493bf38574c7a250b5e4b8fa1c3f36c7106f53932ff9546fa0",
      "vout": 0,
      "prevout": {
        "scriptpubkey": "0014b1d3cb2d18e2ea54a07bea004a50897957005e04",
        "scriptpubkey_asm": "OP_0 OP_PUSHBYTES_20 b1d3cb2d18e2ea54a07bea004a50897957005e04",
        "scriptpubkey_type": "v0_p2wpkh",
        "scriptpubkey_address": "bc1qk8fuktgcut49fgrmagqy55yf09tsqhsyz0q9h6",
        "value": 75000
      },
      "scriptsig": "",
      "scriptsig_asm": "",
      "witness": [
        "3045022100809d4acd2c5e4c0e5f9bb01617bfe869d1133181d5db07cf56b89eda901e16bc022041d534afd95504f095fa12dc154e9e00adc6550a53fc1bd7970780894fcac42001",
        "034a997386065cf87428dc7ac2309b3a6665c19e6297c4c41543d67ea871661760"
      ],
      "is_coinbase": false,
      "sequence": 4294967295
    },
    {
      "txid": "9cd136f922f0b3511440abfb8da955cb143e874eade3b7c1270b244ba765c665",
      "vout": 1,
      "prevout": {
        "scriptpubkey": "0014b1d3cb2d18e2ea54a07bea004a50897957005e04",
        "scriptpubkey_asm": "OP_0 OP_PUSHBYTES_20 b1d3cb2d18e2ea54a07bea004a50897957005e04",
        "scriptpubkey_type": "v0_p2wpkh",
        "scriptpubkey_address": "bc1qk8fuktgcut49fgrmagqy55yf09tsqhsyz0q9h6",
        "value": 1169604
      },
      "scriptsig": "",
      "scriptsig_asm": "",
      "witness": [
        "3045022100c1f61c6454f0fd9e43536203d42fbf59524bff1da7ab72b72aa8f6647dfa575d022028ab277fa827216b22692dc014fab8657c1aae7bcdaab9f5d1be24ece4647d1e01",
        "034a997386065cf87428dc7ac2309b3a6665c19e6297c4c41543d67ea871661760"
      ],
      "is_coinbase": false,
      "sequence": 4294967295
    }
  ],
  "vout": [
    {
      "scriptpubkey": "00144f4fbf15308a00f0f3328ac6808978f660913bd3",
      "scriptpubkey_asm": "OP_0 OP_PUSHBYTES_20 4f4fbf15308a00f0f3328ac6808978f660913bd3",
      "scriptpubkey_type": "v0_p2wpkh",
      "scriptpubkey_address": "bc1qfa8m79fs3gq0puej3trgpztc7esfzw7nuwteks",
      "value": 1262125
    },
    {
      "scriptpubkey": "0014b1d3cb2d18e2ea54a07bea004a50897957005e04",
      "scriptpubkey_asm": "OP_0 OP_PUSHBYTES_20 b1d3cb2d18e2ea54a07bea004a50897957005e04",
      "scriptpubkey_type": "v0_p2wpkh",
      "scriptpubkey_address": "bc1qk8fuktgcut49fgrmagqy55yf09tsqhsyz0q9h6",
      "value": 20957
    }
  ],
  "size": 520,
  "weight": 1105,
  "fee": 7479,
  "status": {
    "confirmed": true,
    "block_height": 834638,
    "block_hash": "000000000000000000025f742c626208ac87e0b7d15054abb4a19ca2d735a54e",
    "block_time": 1710405325
  },
  "hex": "0100000000010346d0a06d13ea16054af19ac5deeea004c3e7f3c03398c7e1cb5e64a1f71652f00100000000ffffffffa06f54f92f93536f10c7363f1cfab8e4b550a2c77485f33b49693626fcb4ec270000000000ffffffff65c665a74b240b27c1b7e3ad4e873e14cb55a98dfbab401451b3f022f936d19c0100000000ffffffff022d421300000000001600144f4fbf15308a00f0f3328ac6808978f660913bd3dd51000000000000160014b1d3cb2d18e2ea54a07bea004a50897957005e04024730440220620ba0f6a0a558d729e3452df947755eefe8501e2324f37ae4573d4b70e6095002206a30f22026e8bbbe50fcff930fe32b1fb8a6723cfe8bdc96e46e1bae7b1a14150121034a997386065cf87428dc7ac2309b3a6665c19e6297c4c41543d67ea87166176002483045022100809d4acd2c5e4c0e5f9bb01617bfe869d1133181d5db07cf56b89eda901e16bc022041d534afd95504f095fa12dc154e9e00adc6550a53fc1bd7970780894fcac4200121034a997386065cf87428dc7ac2309b3a6665c19e6297c4c41543d67ea87166176002483045022100c1f61c6454f0fd9e43536203d42fbf59524bff1da7ab72b72aa8f6647dfa575d022028ab277fa827216b22692dc014fab8657c1aae7bcdaab9f5d1be24ece4647d1e0121034a997386065cf87428dc7ac2309b3a6665c19e6297c4c41543d67ea87166176000000000"
}