{
  "txid": "f1ba5cb76908dbf6b73ea6195d12f780a14bb6ef64a369bc1b1f4e0c783d68f9",
  "version": 2,
  "locktime": 0,
  "vin": [
    {
      "txid": "acc3ba00869acb582a3f2904ce3a11dd3779350ce234063fc7d0959246213364",
      "vout": 231,
      "prevout": {
        "scriptpubkey": "5120875dd3b5d031ea182ff8960faebc31c8f37cea07a6ab9e2ee9aa0b5dd4ca5b16",
        "scriptpubkey_asm": "OP_PUSHNUM_1 OP_PUSHBYTES_32 875dd3b5d031ea182ff8960faebc31c8f37cea07a6ab9e2ee9aa0b5dd4ca5b16",
        "scriptpubkey_type": "v1_p2tr",
        "scriptpubkey_address": "bc1psawa8dwsx84pstlcjc86a0p3erehe6s8564euthf4g94m4x2tvtq4c9h9z",
        "value": 1806
      },
      "scriptsig": "",
      "scriptsig_asm": "",
      "witness": [
        "9186a6305fb384c4a3d4571509f6bf0cbe182cb38afd19c9028f27de1c182a09ceab4577fc4046b846f195ea7329a9b093e4f422ab2e5f4e20b217e0c7fa5300",
        "200be4e1daccca562aa66a5df9289b15e0ba385dd23038db5c47e316ff8f59d090ac0063036f726401010a746578742f706c61696e00357b2270223a226272632d3230222c226f70223a226d696e74222c227469636b223a22646f6765222c22616d74223a2234323030227d68",
        "c10be4e1daccca562aa66a5df9289b15e0ba385dd23038db5c47e316ff8f59d090"
      ],
      "is_coinbase": false,
      "sequence": 4261412863
    }
  ],
  "vout": [
    {
      "scriptpubkey": "00147a665de7a370f4c9b372ab1fae587500a5bcbdb4",
      "scriptpubkey_asm": "OP_0 OP_PUSHBYTES_20 7a665de7a370f4c9b372ab1fae587500a5bcbdb4",
      "scriptpubkey_type": "v0_p2wpkh",
      "scriptpubkey_address": "bc1q0fn9mearwr6vnvmj4v06ukr4qzjme0d565dzcx",
      "value": 294
    }
  ],
  "size": 294,
  "weight": 540,
  "fee": 1512,
  "status": {
    "confirmed": true,
    "block_height": 834460,
    "block_hash": "00000000000000000000484a79b643b2524bbce82e5d8a442013fa5b8905ed98",
    "block_time": 1710307468
  },
  "hex": "02000000000101643321469295d0c73f0634e20c357937dd113ace04293f2a58cb9a8600bac3ace700000000fffffffd0126010000000000001600147a665de7a370f4c9b372ab1fae587500a5bcbdb403409186a6305fb384c4a3d4571509f6bf0cbe182cb38afd19c9028f27de1c182a09ceab4577fc4046b846f195ea7329a9b093e4f422ab2e5f4e20b217e0c7fa53006d200be4e1daccca562aa66a5df9289b15e0ba385dd23038db5c47e316ff8f59d090ac0063036f726401010a746578742f706c61696e00357b2270223a226272632d3230222c226f70223a226d696e74222c227469636b223a22646f6765222c22616d74223a2234323030227d6821c10be4e1daccca562aa66a5df9289b15e0ba385dd23038db5c47e316ff8f59d09000000000"
}