{
  "txid": "f1ca5bc567dda66d6931647245ad0329469f8d33b94df6d7a53fbea584dd7794",
  "version": 2,
  "locktime": 0,
  "vin": [
    {
      "txid": "b13bb5512a4904c28a6b7957b88edf574e8cb23551fc1dcfe22d6b239df42cf4",
      "vout": 65,
      "prevout": {
        "scriptpubkey": "5120f672e0627d8e814c23662e754d7e39559b8bc38aafbb681bf3c12c9984b95f9f",
        "scriptpubkey_asm": "OP_PUSHNUM_1 OP_PUSHBYTES_32 f672e0627d8e814c23662e754d7e39559b8bc38aafbb681bf3c12c9984b95f9f",
        "scriptpubkey_type": "v1_p2tr",
        "scriptpubkey_address": "bc1p7eewqcna36q5cgmx9e656l3e2kdchsu247aksxlncykfnp9et70s2u02e9",
        "value": 2575
      },
      "scriptsig": "",
      "scriptsig_asm": "",
      "witness": [
        "71da501a647ffc7018a1a6e85936f391df311776e096b9f139f5c13de4d723a7bfc294aebba18c27321d7e441b35c1edbbb2221cfd67a4b22a66d37a21f9a44d",
        "200e3240497e53d0acd2d0d4541a872a398f7997e18e4e749ababdc22c303dce72ac0063036f726401010a746578742f706c61696e00367b2270223a226272632d3230222c226f70223a226d696e74222c227469636b223a2261616161222c22616d74223a223130303030227d68",
        "c00e3240497e53d0acd2d0d4541a872a398f7997e18e4e749ababdc22c303dce72"
      ],
      "is_coinbase": false,
      "sequence": 4261412863
    }
  ],
  "vout": [
    {
      "scriptpubkey": "0014ce0b5aa0dac72397a8aa5a85d90a2cfb46f0f630",
      "scriptpubkey_asm": "OP_0 OP_PUSHBYTES_20 ce0b5aa0dac72397a8aa5a85d90a2cfb46f0f630",
      "scriptpubkey_type": "v0_p2wpkh",
      "scriptpubkey_address": "bc1qec944gx6cu3e0292t2zajz3vldr0pa3sh356d9",
      "value": 546
    }
  ],
  "size": 295,
  "weight": 541,
  "fee": 2029,
  "status": {
    "confirmed": true,
    "block_height": 834464,
    "block_hash": "0000000000000000000177a0869a911a2b65c9bdcd5a8bcb02b68f305bee848e",
    "block_time": 1710308296
  },
  "hex": "02000000000101f42cf49d236b2de2cf1dfc5135b28c4e57df8eb857796b8ac204492a51b53bb14100000000fffffffd012202000000000000160014ce0b5aa0dac72397a8aa5a85d90a2cfb46f0f630034071da501a647ffc7018a1a6e85936f391df311776e096b9f139f5c13de4d723a7bfc294aebba18c27321d7e441b35c1edbbb2221cfd67a4b22a66d37a21f9a44d6e200e3240497e53d0acd2d0d4541a872a398f7997e18e4e749ababdc22c303dce72ac0063036f726401010a746578742f706c61696e00367b2270223a226272632d3230222c226f70223a226d696e74222c227469636b223a2261616161222c22616d74223a223130303030227d6821c00e3240497e53d0acd2d0d4541a872a398f7997e18e4e749ababdc22c303dce7200000000"
}