{
  "txid": "f1cf56620b7a13dc05b172695aefa999f520aad96512c49995aae18fd2b6e9d0",
  "version": 2,
  "locktime": 0,
  "vin": [
    {
      "txid": "2efcf339abb586390eed72b07840a9bd8dec21c96cc0f7e7cbc44725f4d04b84",
      "vout": 0,
      "prevout": {
        "scriptpubkey": "76a914a7c43c8140fae4c7afed2fe04798ed0dc99be60d88ac",
        "scriptpubkey_asm": "OP_DUP OP_HASH160 OP_PUSHBYTES_20 a7c43c8140fae4c7afed2fe04798ed0dc99be60d OP_EQUALVERIFY OP_CHECKSIG",
        "scriptpubkey_type": "p2pkh",
        "scriptpubkey_address": "1GJ4vn1sS3mMmC4KcRbmt9my78hHQd33xm",
        "value": 100000
      },
      "scriptsig": "47304402202c27606fd510eefaa11ba53daf9c3c180279c781a1cac68ea2f1ed9f5b73d57c022062a9275207b439d3e8d1f88e838bf776cf4f729599f4f87eb63a9926dc60201e012102a4db71a8e2d9f1e69e48bbdc8de6350832933ca0e97ed4fec7155e34e22bfc0e",
      "scriptsig_asm": "OP_PUSHBYTES_71 304402202c27606fd510eefaa11ba53daf9c3c180279c781a1cac68ea2f1ed9f5b73d57c022062a9275207b439d3e8d1f88e838bf776cf4f729599f4f87eb63a9926dc60201e01 OP_PUSHBYTES_33 02a4db71a8e2d9f1e69e48bbdc8de6350832933ca0e97ed4fec7155e34e22bfc0e",
      "is_coinbase": false,
      "sequence": 4294967295
    },
    {
      "txid": "d5fdd281f552c0a6cc40713d64a978f199ae25abb471f978f0f9e623b997b242",
      "vout": 0,
      "prevout": {
        "scriptpubkey": "76a914bfe6905f0780fc3d45b6c414669f82c3e67d283888ac",
        "scriptpubkey_asm": "OP_DUP OP_HASH160 OP_PUSHBYTES_20 bfe6905f0780fc3d45b6c414669f82c3e67d2838 OP_EQUALVERIFY OP_CHECKSIG",
        "scriptpubkey_type": "p2pkh",
        "scriptpubkey_address": "1JVgGWDTyy24XrBqmakEkD3kbakHUAfkkd",
        "value": 69000
      },
      "scriptsig": "483045022100c06543f9d03f2d9f058fde952caf1b91a999f84a1f3d6489eccc5ac85d80c697022075b8b95a9a9b0a617d779c3c2fd584ee2531d819480994810bf557848edb9ede012103a94e04aa4634e1a4a1bd71102cf5d7d6f097ccae4f26f73448523b29a355c5ae",
      "scriptsig_asm": "OP_PUSHBYTES_72 3045022100c06543f9d03f2d9f058fde952caf1b91a999f84a1f3d6489eccc5ac85d80c697022075b8b95a9a9b0a617d779c3c2fd584ee2531d819480994810bf557848edb9ede01 OP_PUSHBYTES_33 03a94e04aa4634e1a4a1bd71102cf5d7d6f097ccae4f26f73448523b29a355c5ae",
      "is_coinbase": false,
      "sequence": 4294967295
    }
  ],
  "vout": [
    {
      "scriptpubkey": "0014d732bdc1175381b98b10801d44435d097603def6",
      "scriptpubkey_asm": "OP_0 OP_PUSHBYTES_20 d732bdc1175381b98b10801d44435d097603def6",
      "scriptpubkey_type": "v0_p2wpkh",
      "scriptpubkey_address": "bc1q6uetmsgh2wqmnzcssqw5gs6ap9mq8hhk7c59gp",
      "value": 165320
    }
  ],
  "size": 336,
  "weight": 1344,
  "fee": 3680,
  "status": {
    "confirmed": true,
    "block_height": 834464,
    "block_hash": "0000000000000000000177a0869a911a2b65c9bdcd5a8bcb02b68f305bee848e",
    "block_time": 1710308296
  },
  "hex": "0200000002844bd0f42547c4cbe7f7c06cc921ec8dbda94078b072ed0e3986b5ab39f3fc2e000000006a47304402202c27606fd510eefaa11ba53daf9c3c180279c781a1cac68ea2f1ed9f5b73d57c022062a9275207b439d3e8d1f88e838bf776cf4f729599f4f87eb63a9926dc60201e012102a4db71a8e2d9f1e69e48bbdc8de6350832933ca0e97ed4fec7155e34e22bfc0effffffff42b297b923e6f9f078f971b4ab25ae99f178a9643d7140cca6c052f581d2fdd5000000006b483045022100c06543f9d03f2d9f058fde952caf1b91a999f84a1f3d6489eccc5ac85d80c697022075b8b95a9a9b0a617d779c3c2fd584ee2531d819480994810bf557848edb9ede012103a94e04aa4634e1a4a1bd71102cf5d7d6f097ccae4f26f73448523b29a355c5aeffffffff01c885020000000000160014d732bdc1175381b98b10801d44435d097603def600000000"
}