{
  "txid": "f1e653cde750a5a6fcaee3543e97f2de221d3a66f51024fc7831afb3de635ead",
  "version": 2,
  "locktime": 0,
  "vin": [
    {
      "txid": "63a16dd10ccfe313d8aa2df1d9c7aa81127598497a4abd787f0e0d972927c004",
      "vout": 43,
      "prevout": {
        "scriptpubkey": "00148bbade266a3bcabf3f6b64a3da2daf8e426f4caa",
        "scriptpubkey_asm": "OP_0 OP_PUSHBYTES_20 8bbade266a3bcabf3f6b64a3da2daf8e426f4caa",
        "scriptpubkey_type": "v0_p2wpkh",
        "scriptpubkey_address": "bc1q3wadufn2809t70mtvj3a5td03epx7n92lrqvsz",
        "value": 9180
      },
      "scriptsig": "",
      "scriptsig_asm": "",
      "witness": [
        "304502210093ecf0da7f005cb287df295d75c4103f41fa2723f74c849ca21861e9dfe00fb702205da2f9de53d3618ea73a60a33326c19f311784cdf0e12d13b75a05a5544e228a01",
        "023bc8e957a24b9d19805232df19765ecb0799d1d922b6fee1213145354b4892ea"
      ],
      "is_coinbase": false,
      "sequence": 4294967293
    }
  ],
  "vout": [
    {
      "scriptpubkey": "76a914ad5dd685ade874664cfd3b552aec103624b48ba388ac",
      "scriptpubkey_asm": "OP_DUP OP_HASH160 OP_PUSHBYTES_20 ad5dd685ade874664cfd3b552aec103624b48ba3 OP_EQUALVERIFY OP_CHECKSIG",
      "scriptpubkey_type": "p2pkh",
      "scriptpubkey_address": "1GogKAVSdfuu53EiUM3ktz9GTvdwfrLYq4",
      "value": 7960
    }
  ],
  "size": 195,
  "weight": 450,
  "fee": 1220,
  "status": {
    "confirmed": true,
    "block_height": 834464,
    "block_hash": "0000000000000000000177a0869a911a2b65c9bdcd5a8bcb02b68f305bee848e",
    "block_time": 1710308296
  },
  "hex": "0200000000010104c02729970d0e7f78bd4a7a4998751281aac7d9f12daad813e3cf0cd16da1632b00000000fdffffff01181f0000000000001976a914ad5dd685ade874664cfd3b552aec103624b48ba388ac0248304502210093ecf0da7f005cb287df295d75c4103f41fa2723f74c849ca21861e9dfe00fb702205da2f9de53d3618ea73a60a33326c19f311784cdf0e12d13b75a05a5544e228a0121023bc8e957a24b9d19805232df19765ecb0799d1d922b6fee1213145354b4892ea00000000"
}