{
  "txid": "f1ed307454b5e56cf88555e5f8db1f3b179d772c12913cc92b8cd13cbf5e0aa6",
  "version": 1,
  "locktime": 0,
  "vin": [
    {
      "txid": "590460a562a155f196f497b5af4892b71e75a9ad6bae61832d36cbce7cf51a80",
      "vout": 63,
      "prevout": {
        "scriptpubkey": "001414b128e9ffda26bdaf1bb5f645235befa05cad74",
        "scriptpubkey_asm": "OP_0 OP_PUSHBYTES_20 14b128e9ffda26bdaf1bb5f645235befa05cad74",
        "scriptpubkey_type": "v0_p2wpkh",
        "scriptpubkey_address": "bc1qzjcj360lmgntmtcmkhmy2g6ma7s9ett5qr95ts",
        "value": 1324367
      },
      "scriptsig": "",
      "scriptsig_asm": "",
      "witness": [
        "3044022007a069186f97a483c1b25341cd2faa6c4f5727d1ede1775df43d6c4842a0551602202c992ccb11fc221989760bed0387a138db1d7c934f7f35832f75a74370fbcf7401",
        "03b1fbce9bede56adf18a18d29ee45fcd31daf8504c943111afa6cd08c75d4d3dd"
      ],
      "is_coinbase": false,
      "sequence": 4294967295
    }
  ],
  "vout": [
    {
      "scriptpubkey": "76a914736ea01dc803c7cd0de8fe612b4959c7c91e4b6888ac",
      "scriptpubkey_asm": "OP_DUP OP_HASH160 OP_PUSHBYTES_20 736ea01dc803c7cd0de8fe612b4959c7c91e4b68 OP_EQUALVERIFY OP_CHECKSIG",
      "scriptpubkey_type": "p2pkh",
      "scriptpubkey_address": "1BXMETCw9ke87LSW5rmH1KpQqJCFqguKvj",
      "value": 34075
    },
    {
      "scriptpubkey": "0014954664d4cb4f10de32da4ac1f1dae04c44ad316e",
      "scriptpubkey_asm": "OP_0 OP_PUSHBYTES_20 954664d4cb4f10de32da4ac1f1dae04c44ad316e",
      "scriptpubkey_type": "v0_p2wpkh",
      "scriptpubkey_address": "bc1qj4rxf4xtfugduvk6ftqlrkhqf3z26vtwqcxmtr",
      "value": 1288150
    }
  ],
  "size": 225,
  "weight": 573,
  "fee": 2142,
  "status": {
    "confirmed": true,
    "block_height": 834638,
    "block_hash": "000000000000000000025f742c626208ac87e0b7d15054abb4a19ca2d735a54e",
    "block_time": 1710405325
  },
  "hex": "01000000000101801af57ccecb362d8361ae6bada9751eb79248afb597f496f155a162a56004593f00000000ffffffff021b850000000000001976a914736ea01dc803c7cd0de8fe612b4959c7c91e4b6888acd6a7130000000000160014954664d4cb4f10de32da4ac1f1dae04c44ad316e02473044022007a069186f97a483c1b25341cd2faa6c4f5727d1ede1775df43d6c4842a0551602202c992ccb11fc221989760bed0387a138db1d7c934f7f35832f75a74370fbcf74012103b1fbce9bede56adf18a18d29ee45fcd31daf8504c943111afa6cd08c75d4d3dd00000000"
}