{
  "txid": "f1f5b8ac2522bede838ddbd30f403daaa718fa1717a427a4a55df5f13bced40c",
  "version": 1,
  "locktime": 0,
  "vin": [
    {
      "txid": "00000964b698b728022e6d180add7b2c060676e522ab2907f06198af7b2d0b99",
      "vout": 0,
      "prevout": {
        "scriptpubkey": "5120a15e30586a58e86361659c3aa59f6f1441af61e969aa49b8195bd13e55edf759",
        "scriptpubkey_asm": "OP_PUSHNUM_1 OP_PUSHBYTES_32 a15e30586a58e86361659c3aa59f6f1441af61e969aa49b8195bd13e55edf759",
        "scriptpubkey_type": "v1_p2tr",
        "scriptpubkey_address": "bc1p590rqkr2tr5xxct9nsa2t8m0z3q67c0fdx4ynwqet0gnu40d7avsevzhhk",
        "value": 3624
      },
      "scriptsig": "",
      "scriptsig_asm": "",
      "witness": [
        "a8fb0a16ebe65eb41a4fed7cb7edc0d5a933288a0f640970be4eef1331ee5b3f67e670eb6a40712a1888357ed28a4f022f9ea6edd26c936b0a6d44eb03da3efc",
        "20dfa7325ed77fab28d796d113dcead29a7490c58aaa244f71cf02d52f6b761081ac00630461746f6d03646d7439a16461726773a46474696d651a65ec613e656e6f6e63650068626974776f726b6364303030306b6d696e745f7469636b65726670686f746f6e68",
        "c0dfa7325ed77fab28d796d113dcead29a7490c58aaa244f71cf02d52f6b761081"
      ],
      "is_coinbase": false,
      "sequence": 0
    }
  ],
  "vout": [
    {
      "scriptpubkey": "5120fecd0eb21b6c0ca30276c9cc31cbf97569e48ccf15a7f502ee5ba948e2f316fd",
      "scriptpubkey_asm": "OP_PUSHNUM_1 OP_PUSHBYTES_32 fecd0eb21b6c0ca30276c9cc31cbf97569e48ccf15a7f502ee5ba948e2f316fd",
      "scriptpubkey_type": "v1_p2tr",
      "scriptpubkey_address": "bc1plmxsavsmdsx2xqnke8xrrjlew457frx0zknl2qhwtw553chnzm7sxcmn3g",
      "value": 1000
    }
  ],
  "size": 301,
  "weight": 583,
  "fee": 2624,
  "status": {
    "confirmed": true,
    "block_height": 834464,
    "block_hash": "0000000000000000000177a0869a911a2b65c9bdcd5a8bcb02b68f305bee848e",
    "block_time": 1710308296
  },
  "hex": "01000000000101990b2d7baf9861f00729ab22e57606062c7bdd0a186d2e0228b798b66409000000000000000000000001e803000000000000225120fecd0eb21b6c0ca30276c9cc31cbf97569e48ccf15a7f502ee5ba948e2f316fd0340a8fb0a16ebe65eb41a4fed7cb7edc0d5a933288a0f640970be4eef1331ee5b3f67e670eb6a40712a1888357ed28a4f022f9ea6edd26c936b0a6d44eb03da3efc6820dfa7325ed77fab28d796d113dcead29a7490c58aaa244f71cf02d52f6b761081ac00630461746f6d03646d7439a16461726773a46474696d651a65ec613e656e6f6e63650068626974776f726b6364303030306b6d696e745f7469636b65726670686f746f6e6821c0dfa7325ed77fab28d796d113dcead29a7490c58aaa244f71cf02d52f6b76108100000000"
}