{
  "txid": "f1fb488cd36ea89df94208ff27c2389662a2543d6e560633c872f8e2b4636e6c",
  "version": 2,
  "locktime": 0,
  "vin": [
    {
      "txid": "acc3ba00869acb582a3f2904ce3a11dd3779350ce234063fc7d0959246213364",
      "vout": 275,
      "prevout": {
        "scriptpubkey": "5120884c9d59f0e1fc0bd0ffdd548b3ca6f62e4325a01c91e7fb8444e35324c13636",
        "scriptpubkey_asm": "OP_PUSHNUM_1 OP_PUSHBYTES_32 884c9d59f0e1fc0bd0ffdd548b3ca6f62e4325a01c91e7fb8444e35324c13636",
        "scriptpubkey_type": "v1_p2tr",
        "scriptpubkey_address": "bc1p3pxf6k0su87qh58lm42gk09x7chyxfdqrjg707uygn34xfxpxcmqczrf20",
        "value": 1806
      },
      "scriptsig": "",
      "scriptsig_asm": "",
      "witness": [
        "9287bd6dd23fef4bfa1ba34ff57d316ee1550afec72932494c1baf658264916f2b2cdf1daa513e3d41a35a09a505813740e9967af9d2a034127484eb464c4712",
        "20e468ed8d48cf8b60a8728a5f4ae70ff2f11a0f9a17a5bf3104eff389ec4af684ac0063036f726401010a746578742f706c61696e00357b2270223a226272632d3230222c226f70223a226d696e74222c227469636b223a22646f6765222c22616d74223a2234323030227d68",
        "c1e468ed8d48cf8b60a8728a5f4ae70ff2f11a0f9a17a5bf3104eff389ec4af684"
      ],
      "is_coinbase": false,
      "sequence": 4261412863
    }
  ],
  "vout": [
    {
      "scriptpubkey": "00147a665de7a370f4c9b372ab1fae587500a5bcbdb4",
      "scriptpubkey_asm": "OP_0 OP_PUSHBYTES_20 7a665de7a370f4c9b372ab1fae587500a5bcbdb4",
      "scriptpubkey_type": "v0_p2wpkh",
      "scriptpubkey_address": "bc1q0fn9mearwr6vnvmj4v06ukr4qzjme0d565dzcx",
      "value": 294
    }
  ],
  "size": 294,
  "weight": 540,
  "fee": 1512,
  "status": {
    "confirmed": true,
    "block_height": 834460,
    "block_hash": "00000000000000000000484a79b643b2524bbce82e5d8a442013fa5b8905ed98",
    "block_time": 1710307468
  },
  "hex": "02000000000101643321469295d0c73f0634e20c357937dd113ace04293f2a58cb9a8600bac3ac1301000000fffffffd0126010000000000001600147a665de7a370f4c9b372ab1fae587500a5bcbdb403409287bd6dd23fef4bfa1ba34ff57d316ee1550afec72932494c1baf658264916f2b2cdf1daa513e3d41a35a09a505813740e9967af9d2a034127484eb464c47126d20e468ed8d48cf8b60a8728a5f4ae70ff2f11a0f9a17a5bf3104eff389ec4af684ac0063036f726401010a746578742f706c61696e00357b2270223a226272632d3230222c226f70223a226d696e74222c227469636b223a22646f6765222c22616d74223a2234323030227d6821c1e468ed8d48cf8b60a8728a5f4ae70ff2f11a0f9a17a5bf3104eff389ec4af68400000000"
}