{
  "txid": "f1ffdf37774a4ed93a9f0e4ff0acdd890039732d2dc41fedc9ac87ec72fe4e59",
  "version": 1,
  "locktime": 0,
  "vin": [
    {
      "txid": "13acdf9658dec1eef643d6ed0f4cc897322c68e5c0607bf65aa54c18e54d250b",
      "vout": 1,
      "prevout": {
        "scriptpubkey": "001468f3ac66776d3df13c2966927305d29bdd8aba84",
        "scriptpubkey_asm": "OP_0 OP_PUSHBYTES_20 68f3ac66776d3df13c2966927305d29bdd8aba84",
        "scriptpubkey_type": "v0_p2wpkh",
        "scriptpubkey_address": "bc1qdre6cenhd57lz0pfv6f8xpwjn0wc4w5yt4tnv9",
        "value": 2525
      },
      "scriptsig": "",
      "scriptsig_asm": "",
      "witness": [
        "30450221008acede4fe1ca1e4b0cf942746264110b44fc7c7cf4cb663e22cadc321b708e9302203161fd60a9b50af758c386b95180ace1195446d2f9635505930461c6eae57a6d01",
        "0317031fb21fb1ce8c7d29b0d5edcc99329739153866b88a57ef8756eb16274af5"
      ],
      "is_coinbase": false,
      "sequence": 4294967295
    },
    {
      "txid": "46c20d75a077e4ffdd3b4a7c9385c448824317727fbe64818534119c17458a56",
      "vout": 7,
      "prevout": {
        "scriptpubkey": "76a91472f074093638121d7f3c50aa78ef6ec81ac615a788ac",
        "scriptpubkey_asm": "OP_DUP OP_HASH160 OP_PUSHBYTES_20 72f074093638121d7f3c50aa78ef6ec81ac615a7 OP_EQUALVERIFY OP_CHECKSIG",
        "scriptpubkey_type": "p2pkh",
        "scriptpubkey_address": "1BUk5rZNsDKKBGWrvMgSaPQFFmFyNJBVVn",
        "value": 346372
      },
      "scriptsig": "4830450221008dd923d0ae27f2cadcf533957798aa34946461076a72349b4e90908dfd75c3b702207ed042e36f13c5d486cde0cf86192f36224068faee612a85b812c1c771a230a50121025db06d4eff2439daf989cd15bcf46eea5bf5a7fe29fba278c8c9b4c69bd88bf3",
      "scriptsig_asm": "OP_PUSHBYTES_72 30450221008dd923d0ae27f2cadcf533957798aa34946461076a72349b4e90908dfd75c3b702207ed042e36f13c5d486cde0cf86192f36224068faee612a85b812c1c771a230a501 OP_PUSHBYTES_33 025db06d4eff2439daf989cd15bcf46eea5bf5a7fe29fba278c8c9b4c69bd88bf3",
      "is_coinbase": false,
      "sequence": 4294967295
    }
  ],
  "vout": [
    {
      "scriptpubkey": "76a914fc01d30688b424794ba10d8bb4927c17245b227b88ac",
      "scriptpubkey_asm": "OP_DUP OP_HASH160 OP_PUSHBYTES_20 fc01d30688b424794ba10d8bb4927c17245b227b OP_EQUALVERIFY OP_CHECKSIG",
      "scriptpubkey_type": "p2pkh",
      "scriptpubkey_address": "1PyVU6dkzMgqMgcjYLd9DD9wGqXeaihsk9",
      "value": 339750
    }
  ],
  "size": 344,
  "weight": 1043,
  "fee": 9147,
  "status": {
    "confirmed": true,
    "block_height": 834638,
    "block_hash": "000000000000000000025f742c626208ac87e0b7d15054abb4a19ca2d735a54e",
    "block_time": 1710405325
  },
  "hex": "010000000001020b254de5184ca55af67b60c0e5682c3297c84c0fedd643f6eec1de5896dfac130100000000ffffffff568a45179c1134858164be7f7217438248c485937c4a3bddffe477a0750dc246070000006b4830450221008dd923d0ae27f2cadcf533957798aa34946461076a72349b4e90908dfd75c3b702207ed042e36f13c5d486cde0cf86192f36224068faee612a85b812c1c771a230a50121025db06d4eff2439daf989cd15bcf46eea5bf5a7fe29fba278c8c9b4c69bd88bf3ffffffff01262f0500000000001976a914fc01d30688b424794ba10d8bb4927c17245b227b88ac024830450221008acede4fe1ca1e4b0cf942746264110b44fc7c7cf4cb663e22cadc321b708e9302203161fd60a9b50af758c386b95180ace1195446d2f9635505930461c6eae57a6d01210317031fb21fb1ce8c7d29b0d5edcc99329739153866b88a57ef8756eb16274af50000000000"
}