{
  "txid": "f21102e542fd69d236eeef717817e9b3adc914bee13004e9772077d25b28ade5",
  "version": 1,
  "locktime": 0,
  "vin": [
    {
      "txid": "888888888807490330da04c861c8599c7bead7f1a0a801caac1089f12cb8ec3c",
      "vout": 0,
      "prevout": {
        "scriptpubkey": "51205b5e0e3ad66966071645317a14b1f359f728b5a43f37bcf921e7d85de1efc67c",
        "scriptpubkey_asm": "OP_PUSHNUM_1 OP_PUSHBYTES_32 5b5e0e3ad66966071645317a14b1f359f728b5a43f37bcf921e7d85de1efc67c",
        "scriptpubkey_type": "v1_p2tr",
        "scriptpubkey_address": "bc1ptd0quwkkd9nqw9j9x9apfv0nt8mj3ddy8umme7fpulv9mc00ce7qfvjy75",
        "value": 11923
      },
      "scriptsig": "",
      "scriptsig_asm": "",
      "witness": [
        "6f02fb052e8e0443dc1d395ef0aa8f60f164e7f0736101b9f200a294e10857585fdc35bd417dc5e992072d3a92250ce172cb5e39d9647e51deccf53a9ec664c0",
        "202b2a0fbe98b5c561ac05931839b1bfbcf3df415309a9da719ae7dfcdf092dabbac00630461746f6d03646d7446a16461726773a46474696d651a65f13740656e6f6e63651a0001000168626974776f726b636b3838383838383838382e386b6d696e745f7469636b657268696e66696e69747968",
        "c02b2a0fbe98b5c561ac05931839b1bfbcf3df415309a9da719ae7dfcdf092dabb"
      ],
      "is_coinbase": false,
      "sequence": 4294967295
    }
  ],
  "vout": [
    {
      "scriptpubkey": "5120ee5d73a166b5fcf6fb0e22e1428770d9455bcd536c28912b437450303ef41201",
      "scriptpubkey_asm": "OP_PUSHNUM_1 OP_PUSHBYTES_32 ee5d73a166b5fcf6fb0e22e1428770d9455bcd536c28912b437450303ef41201",
      "scriptpubkey_type": "v1_p2tr",
      "scriptpubkey_address": "bc1paewh8gtxkh70d7cwyts59pmsm9z4hn2nds5fz26rw3grq0h5zgqsmngref",
      "value": 9999
    }
  ],
  "size": 314,
  "weight": 596,
  "fee": 1924,
  "status": {
    "confirmed": true,
    "block_height": 834460,
    "block_hash": "00000000000000000000484a79b643b2524bbce82e5d8a442013fa5b8905ed98",
    "block_time": 1710307468
  },
  "hex": "010000000001013cecb82cf18910acca01a8a0f1d7ea7b9c59c861c804da3003490788888888880000000000ffffffff010f27000000000000225120ee5d73a166b5fcf6fb0e22e1428770d9455bcd536c28912b437450303ef4120103406f02fb052e8e0443dc1d395ef0aa8f60f164e7f0736101b9f200a294e10857585fdc35bd417dc5e992072d3a92250ce172cb5e39d9647e51deccf53a9ec664c075202b2a0fbe98b5c561ac05931839b1bfbcf3df415309a9da719ae7dfcdf092dabbac00630461746f6d03646d7446a16461726773a46474696d651a65f13740656e6f6e63651a0001000168626974776f726b636b3838383838383838382e386b6d696e745f7469636b657268696e66696e6974796821c02b2a0fbe98b5c561ac05931839b1bfbcf3df415309a9da719ae7dfcdf092dabb00000000"
}