{
  "txid": "f21e8fc26bcce5dc36e0705ced70c738d1b0db8d7a6d6b64de4c07a08cf11de1",
  "version": 2,
  "locktime": 0,
  "vin": [
    {
      "txid": "fb734ca210817bb37966ef62d61635f01e59b943838945708ce527906a28f7c8",
      "vout": 1,
      "prevout": {
        "scriptpubkey": "001485755d5e7c0d5f654388982af445c7a3618141e3",
        "scriptpubkey_asm": "OP_0 OP_PUSHBYTES_20 85755d5e7c0d5f654388982af445c7a3618141e3",
        "scriptpubkey_type": "v0_p2wpkh",
        "scriptpubkey_address": "bc1qs4646hnup40k2sugnq40g3w85dsczs0r66que6",
        "value": 167021225
      },
      "scriptsig": "",
      "scriptsig_asm": "",
      "witness": [
        "3044022042a306c2288991652fd07285b607c82b511d70c2d4e24e21fdbcbef13e85645d02205c771601a45d19f4b784bc442f9174b135b9a5513a1d91a3102f25380b521d3a01",
        "03f4bf801ccd020fabb95c829bc21d87ff5d6037618b55b2e6659d015eb1a6d3f6"
      ],
      "is_coinbase": false,
      "sequence": 4294967295
    }
  ],
  "vout": [
    {
      "scriptpubkey": "a9148711f28984d69e0f2fe011a1291796031658647e87",
      "scriptpubkey_asm": "OP_HASH160 OP_PUSHBYTES_20 8711f28984d69e0f2fe011a1291796031658647e OP_EQUAL",
      "scriptpubkey_type": "p2sh",
      "scriptpubkey_address": "3E1CeSz7eiWFEyWxZwaXcLhHNmPaHrTozF",
      "value": 1379299
    },
    {
      "scriptpubkey": "00142b3b6832f1969c694622b7445d3330f8be75fce2",
      "scriptpubkey_asm": "OP_0 OP_PUSHBYTES_20 2b3b6832f1969c694622b7445d3330f8be75fce2",
      "scriptpubkey_type": "v0_p2wpkh",
      "scriptpubkey_address": "bc1q9vaksvh3j6wxj33zkaz96veslzl8tl8zyyhe4v",
      "value": 165639814
    }
  ],
  "size": 223,
  "weight": 565,
  "fee": 2112,
  "status": {
    "confirmed": true,
    "block_height": 834638,
    "block_hash": "000000000000000000025f742c626208ac87e0b7d15054abb4a19ca2d735a54e",
    "block_time": 1710405325
  },
  "hex": "02000000000101c8f7286a9027e58c7045898343b9591ef03516d662ef6679b37b8110a24c73fb0100000000ffffffff02e30b15000000000017a9148711f28984d69e0f2fe011a1291796031658647e878676df09000000001600142b3b6832f1969c694622b7445d3330f8be75fce202473044022042a306c2288991652fd07285b607c82b511d70c2d4e24e21fdbcbef13e85645d02205c771601a45d19f4b784bc442f9174b135b9a5513a1d91a3102f25380b521d3a012103f4bf801ccd020fabb95c829bc21d87ff5d6037618b55b2e6659d015eb1a6d3f600000000"
}