{
  "txid": "f24151851321890a0b51dd5e377817878b8ec8dae936cdd38b82d22c17778a31",
  "version": 2,
  "locktime": 0,
  "vin": [
    {
      "txid": "d4ba957a577fe3492db53df7353ac1e1a448d79d301d11ab9e310c196a6c3f5e",
      "vout": 6,
      "prevout": {
        "scriptpubkey": "a914362fa88b04ecf4adfb86f7c99476deb4e50a3d7e87",
        "scriptpubkey_asm": "OP_HASH160 OP_PUSHBYTES_20 362fa88b04ecf4adfb86f7c99476deb4e50a3d7e OP_EQUAL",
        "scriptpubkey_type": "p2sh",
        "scriptpubkey_address": "36dXWGHJeVfCD4WocWA4A4CcJZ6zSVqPWM",
        "value": 600
      },
      "scriptsig": "16001415923d0d3cbc473e53120d5671c0dc2a6da5ae87",
      "scriptsig_asm": "OP_PUSHBYTES_22 001415923d0d3cbc473e53120d5671c0dc2a6da5ae87",
      "witness": [
        "3044022058159c08f8d21041f76b2a09d4df2d971ccfe807fa997820fe062f18dda14b98022020ef8b4bf778fdfe96a4696c154abbc00e484acd52e609e2ac58b64d8fc967e901",
        "02df403cc9f7fc3754d7390b02001861110f3b714f8267b4b8758987ee2d0113c5"
      ],
      "is_coinbase": false,
      "sequence": 2147483649,
      "inner_redeemscript_asm": "OP_0 OP_PUSHBYTES_20 15923d0d3cbc473e53120d5671c0dc2a6da5ae87"
    },
    {
      "txid": "3c5256474d586362acb0357f7be8332765c4589f87fa911d23f32d554170f5ad",
      "vout": 4,
      "prevout": {
        "scriptpubkey": "a914362fa88b04ecf4adfb86f7c99476deb4e50a3d7e87",
        "scriptpubkey_asm": "OP_HASH160 OP_PUSHBYTES_20 362fa88b04ecf4adfb86f7c99476deb4e50a3d7e OP_EQUAL",
        "scriptpubkey_type": "p2sh",
        "scriptpubkey_address": "36dXWGHJeVfCD4WocWA4A4CcJZ6zSVqPWM",
        "value": 600
      },
      "scriptsig": "16001415923d0d3cbc473e53120d5671c0dc2a6da5ae87",
      "scriptsig_asm": "OP_PUSHBYTES_22 001415923d0d3cbc473e53120d5671c0dc2a6da5ae87",
      "witness": [
        "30450221008724c19d38e5df5a286b21b2ba406789e10486b2c848a8c54cdec6231f596be402203209f8ab1fb12549f27eb58b4ff8bdf80f60300a595da0d1a7d981a460b0e96d01",
        "02df403cc9f7fc3754d7390b02001861110f3b714f8267b4b8758987ee2d0113c5"
      ],
      "is_coinbase": false,
      "sequence": 2147483649,
      "inner_redeemscript_asm": "OP_0 OP_PUSHBYTES_20 15923d0d3cbc473e53120d5671c0dc2a6da5ae87"
    },
    {
      "txid": "bf01aa3e30581ad995d8f23a01e9eaa0dfab63eae313f23763a2e85274ffde22",
      "vout": 0,
      "prevout": {
        "scriptpubkey": "5120c3d34951519b65550f353a7d5feafe387930b7336032ee0f427555250d44bbe6",
        "scriptpubkey_asm": "OP_PUSHNUM_1 OP_PUSHBYTES_32 c3d34951519b65550f353a7d5feafe387930b7336032ee0f427555250d44bbe6",
        "scriptpubkey_type": "v1_p2tr",
        "scriptpubkey_address": "bc1pc0f5j523ndj42re48f74l6h78punpdenvqewur6zw42j2r2yh0nqwlx3y3",
        "value": 546
      },
      "scriptsig": "",
      "scriptsig_asm": "",
      "witness": [
        "b0e69a558f7050e19ced939496ebe84d5e0a48c9741b295a0023107a15b3684ea4b3a79de1adf9c651b9b204e8ec085f4dba9dddccab4cf6c3bafb6c876890af83"
      ],
      "is_coinbase": false,
      "sequence": 4294967295
    },
    {
      "txid": "78beac64408a0cc2a617e68442b208ad078b6fda400ddec81655d0e222c63de2",
      "vout": 1,
      "prevout": {
        "scriptpubkey": "a914362fa88b04ecf4adfb86f7c99476deb4e50a3d7e87",
        "scriptpubkey_asm": "OP_HASH160 OP_PUSHBYTES_20 362fa88b04ecf4adfb86f7c99476deb4e50a3d7e OP_EQUAL",
        "scriptpubkey_type": "p2sh",
        "scriptpubkey_address": "36dXWGHJeVfCD4WocWA4A4CcJZ6zSVqPWM",
        "value": 97929
      },
      "scriptsig": "16001415923d0d3cbc473e53120d5671c0dc2a6da5ae87",
      "scriptsig_asm": "OP_PUSHBYTES_22 001415923d0d3cbc473e53120d5671c0dc2a6da5ae87",
      "witness": [
        "3044022000836e6d64115415019128dced6318bbce95b1874fbbe1e53fa8b6135caeed3d02203730b8405fa39197edf03be2b2900706d443a2cab002c5d7c2de5ba9de6d1cb601",
        "02df403cc9f7fc3754d7390b02001861110f3b714f8267b4b8758987ee2d0113c5"
      ],
      "is_coinbase": false,
      "sequence": 2147483649,
      "inner_redeemscript_asm": "OP_0 OP_PUSHBYTES_20 15923d0d3cbc473e53120d5671c0dc2a6da5ae87"
    },
    {
      "txid": "d888356b3e4fa52a58449278d82e844dad8dc0693aa196f6e4f0d0c165d68ab5",
      "vout": 5,
      "prevout": {
        "scriptpubkey": "a914362fa88b04ecf4adfb86f7c99476deb4e50a3d7e87",
        "scriptpubkey_asm": "OP_HASH160 OP_PUSHBYTES_20 362fa88b04ecf4adfb86f7c99476deb4e50a3d7e OP_EQUAL",
        "scriptpubkey_type": "p2sh",
        "scriptpubkey_address": "36dXWGHJeVfCD4WocWA4A4CcJZ6zSVqPWM",
        "value": 8024
      },
      "scriptsig": "16001415923d0d3cbc473e53120d5671c0dc2a6da5ae87",
      "scriptsig_asm": "OP_PUSHBYTES_22 001415923d0d3cbc473e53120d5671c0dc2a6da5ae87",
      "witness": [
        "30440220734d2b6a05e773172df460ee6a8d806e9343f99b2a6a84d80b77b68cf722beda022035965a8c34543e1b042c38b6a1150a2df18d4ab98f722e51794e97d9943eb1e901",
        "02df403cc9f7fc3754d7390b02001861110f3b714f8267b4b8758987ee2d0113c5"
      ],
      "is_coinbase": false,
      "sequence": 2147483649,
      "inner_redeemscript_asm": "OP_0 OP_PUSHBYTES_20 15923d0d3cbc473e53120d5671c0dc2a6da5ae87"
    },
    {
      "txid": "d5954697e45547b4eea18cc7f54ee96f11f5aa257ddfbbcebf4cadc5c77b077e",
      "vout": 1,
      "prevout": {
        "scriptpubkey": "a914362fa88b04ecf4adfb86f7c99476deb4e50a3d7e87",
        "scriptpubkey_asm": "OP_HASH160 OP_PUSHBYTES_20 362fa88b04ecf4adfb86f7c99476deb4e50a3d7e OP_EQUAL",
        "scriptpubkey_type": "p2sh",
        "scriptpubkey_address": "36dXWGHJeVfCD4WocWA4A4CcJZ6zSVqPWM",
        "value": 4540
      },
      "scriptsig": "16001415923d0d3cbc473e53120d5671c0dc2a6da5ae87",
      "scriptsig_asm": "OP_PUSHBYTES_22 001415923d0d3cbc473e53120d5671c0dc2a6da5ae87",
      "witness": [
        "3044022057e436e299a9e3a76844fa25c1764557e55013c68c12b2fe2d9e8c6e1b76a625022061690e7cb56d4d7ff6866fd0444e830df9dfb92babf7a0d5d7dc2b94a2099ac901",
        "02df403cc9f7fc3754d7390b02001861110f3b714f8267b4b8758987ee2d0113c5"
      ],
      "is_coinbase": false,
      "sequence": 2147483649,
      "inner_redeemscript_asm": "OP_0 OP_PUSHBYTES_20 15923d0d3cbc473e53120d5671c0dc2a6da5ae87"
    },
    {
      "txid": "d4ba957a577fe3492db53df7353ac1e1a448d79d301d11ab9e310c196a6c3f5e",
      "vout": 0,
      "prevout": {
        "scriptpubkey": "a914362fa88b04ecf4adfb86f7c99476deb4e50a3d7e87",
        "scriptpubkey_asm": "OP_HASH160 OP_PUSHBYTES_20 362fa88b04ecf4adfb86f7c99476deb4e50a3d7e OP_EQUAL",
        "scriptpubkey_type": "p2sh",
        "scriptpubkey_address": "36dXWGHJeVfCD4WocWA4A4CcJZ6zSVqPWM",
        "value": 1800
      },
      "scriptsig": "16001415923d0d3cbc473e53120d5671c0dc2a6da5ae87",
      "scriptsig_asm": "OP_PUSHBYTES_22 001415923d0d3cbc473e53120d5671c0dc2a6da5ae87",
      "witness": [
        "3045022100e594a79da2dc81655de990b2d1981f6aeb0cb707a6a0d9f28853177ce347a5f702201708fa210628f4bce7215736e29609e1cf98e7fa364fd3c5f887a9dcf51dd24f01",
        "02df403cc9f7fc3754d7390b02001861110f3b714f8267b4b8758987ee2d0113c5"
      ],
      "is_coinbase": false,
      "sequence": 2147483649,
      "inner_redeemscript_asm": "OP_0 OP_PUSHBYTES_20 15923d0d3cbc473e53120d5671c0dc2a6da5ae87"
    },
    {
      "txid": "ba6a0b6f87da3181a0631224364f12044b4418e4e38dd1e27a23bf937e293a91",
      "vout": 0,
      "prevout": {
        "scriptpubkey": "a914362fa88b04ecf4adfb86f7c99476deb4e50a3d7e87",
        "scriptpubkey_asm": "OP_HASH160 OP_PUSHBYTES_20 362fa88b04ecf4adfb86f7c99476deb4e50a3d7e OP_EQUAL",
        "scriptpubkey_type": "p2sh",
        "scriptpubkey_address": "36dXWGHJeVfCD4WocWA4A4CcJZ6zSVqPWM",
        "value": 1200
      },
      "scriptsig": "16001415923d0d3cbc473e53120d5671c0dc2a6da5ae87",
      "scriptsig_asm": "OP_PUSHBYTES_22 001415923d0d3cbc473e53120d5671c0dc2a6da5ae87",
      "witness": [
        "3045022100b44ababd1d0dfcef5c7ab1eae36ff7deb0e920b22d77b9314d582f759532ae5c02206800be4add4014b948302424dd4ec8280f10e723a3bc22d6bdef8389d8b2dd6d01",
        "02df403cc9f7fc3754d7390b02001861110f3b714f8267b4b8758987ee2d0113c5"
      ],
      "is_coinbase": false,
      "sequence": 2147483649,
      "inner_redeemscript_asm": "OP_0 OP_PUSHBYTES_20 15923d0d3cbc473e53120d5671c0dc2a6da5ae87"
    },
    {
      "txid": "96e36e8e88d8fa9d2343a8b6594f9688bf18c56a290a8da867f3ee4fc4fff811",
      "vout": 0,
      "prevout": {
        "scriptpubkey": "a914362fa88b04ecf4adfb86f7c99476deb4e50a3d7e87",
        "scriptpubkey_asm": "OP_HASH160 OP_PUSHBYTES_20 362fa88b04ecf4adfb86f7c99476deb4e50a3d7e OP_EQUAL",
        "scriptpubkey_type": "p2sh",
        "scriptpubkey_address": "36dXWGHJeVfCD4WocWA4A4CcJZ6zSVqPWM",
        "value": 1200
      },
      "scriptsig": "16001415923d0d3cbc473e53120d5671c0dc2a6da5ae87",
      "scriptsig_asm": "OP_PUSHBYTES_22 001415923d0d3cbc473e53120d5671c0dc2a6da5ae87",
      "witness": [
        "3044022050814a71f2bba7a55cf8a60c28eb6ab0e8119697038cd1d7c4ef2e3484940589022040b56ed64d30bfa5e51aa674b6f25f281c7dff2a0caf88419f4af34d68895c2a01",
        "02df403cc9f7fc3754d7390b02001861110f3b714f8267b4b8758987ee2d0113c5"
      ],
      "is_coinbase": false,
      "sequence": 2147483649,
      "inner_redeemscript_asm": "OP_0 OP_PUSHBYTES_20 15923d0d3cbc473e53120d5671c0dc2a6da5ae87"
    },
    {
      "txid": "d888356b3e4fa52a58449278d82e844dad8dc0693aa196f6e4f0d0c165d68ab5",
      "vout": 0,
      "prevout": {
        "scriptpubkey": "a914362fa88b04ecf4adfb86f7c99476deb4e50a3d7e87",
        "scriptpubkey_asm": "OP_HASH160 OP_PUSHBYTES_20 362fa88b04ecf4adfb86f7c99476deb4e50a3d7e OP_EQUAL",
        "scriptpubkey_type": "p2sh",
        "scriptpubkey_address": "36dXWGHJeVfCD4WocWA4A4CcJZ6zSVqPWM",
        "value": 1200
      },
      "scriptsig": "16001415923d0d3cbc473e53120d5671c0dc2a6da5ae87",
      "scriptsig_asm": "OP_PUSHBYTES_22 001415923d0d3cbc473e53120d5671c0dc2a6da5ae87",
      "witness": [
        "3045022100f31094e9697ad3042f105242c963bfae5de7d3c7beb828000778e8a946a38d8302202b8e729dfc380d2369e7627ee74c032fe378093906978fc8023bc8eabd0da79901",
        "02df403cc9f7fc3754d7390b02001861110f3b714f8267b4b8758987ee2d0113c5"
      ],
      "is_coinbase": false,
      "sequence": 2147483649,
      "inner_redeemscript_asm": "OP_0 OP_PUSHBYTES_20 15923d0d3cbc473e53120d5671c0dc2a6da5ae87"
    },
    {
      "txid": "9ebab1fdb93108dff88da9b1be5d6f26cae370a630e09b63a5f7aad88b3b3656",
      "vout": 0,
      "prevout": {
        "scriptpubkey": "a914362fa88b04ecf4adfb86f7c99476deb4e50a3d7e87",
        "scriptpubkey_asm": "OP_HASH160 OP_PUSHBYTES_20 362fa88b04ecf4adfb86f7c99476deb4e50a3d7e OP_EQUAL",
        "scriptpubkey_type": "p2sh",
        "scriptpubkey_address": "36dXWGHJeVfCD4WocWA4A4CcJZ6zSVqPWM",
        "value": 1200
      },
      "scriptsig": "16001415923d0d3cbc473e53120d5671c0dc2a6da5ae87",
      "scriptsig_asm": "OP_PUSHBYTES_22 001415923d0d3cbc473e53120d5671c0dc2a6da5ae87",
      "witness": [
        "304402202195a1372fbcd22e9743eae7c74fdb6400e85536035b167a2b6f4658683c08c7022035f9ac97a97f655cf2591e52dfd479d51ddfacf8f0855318acbf70bf7d21d47e01",
        "02df403cc9f7fc3754d7390b02001861110f3b714f8267b4b8758987ee2d0113c5"
      ],
      "is_coinbase": false,
      "sequence": 2147483649,
      "inner_redeemscript_asm": "OP_0 OP_PUSHBYTES_20 15923d0d3cbc473e53120d5671c0dc2a6da5ae87"
    },
    {
      "txid": "3c5256474d586362acb0357f7be8332765c4589f87fa911d23f32d554170f5ad",
      "vout": 0,
      "prevout": {
        "scriptpubkey": "a914362fa88b04ecf4adfb86f7c99476deb4e50a3d7e87",
        "scriptpubkey_asm": "OP_HASH160 OP_PUSHBYTES_20 362fa88b04ecf4adfb86f7c99476deb4e50a3d7e OP_EQUAL",
        "scriptpubkey_type": "p2sh",
        "scriptpubkey_address": "36dXWGHJeVfCD4WocWA4A4CcJZ6zSVqPWM",
        "value": 1200
      },
      "scriptsig": "16001415923d0d3cbc473e53120d5671c0dc2a6da5ae87",
      "scriptsig_asm": "OP_PUSHBYTES_22 001415923d0d3cbc473e53120d5671c0dc2a6da5ae87",
      "witness": [
        "30450221009f18d6b2e2ac8b1d9f3c195e603f366343ff1a33dc58cd3aaad09aba22f49f6602207f26ab7b724ca4254aca1c2b0dd6dbc658fa27a07b253cd076bbc66a25b388f001",
        "02df403cc9f7fc3754d7390b02001861110f3b714f8267b4b8758987ee2d0113c5"
      ],
      "is_coinbase": false,
      "sequence": 2147483649,
      "inner_redeemscript_asm": "OP_0 OP_PUSHBYTES_20 15923d0d3cbc473e53120d5671c0dc2a6da5ae87"
    },
    {
      "txid": "689ae639183432385f5d60420e76619075373288d34b68f9cd131981423d657c",
      "vout": 0,
      "prevout": {
        "scriptpubkey": "a914362fa88b04ecf4adfb86f7c99476deb4e50a3d7e87",
        "scriptpubkey_asm": "OP_HASH160 OP_PUSHBYTES_20 362fa88b04ecf4adfb86f7c99476deb4e50a3d7e OP_EQUAL",
        "scriptpubkey_type": "p2sh",
        "scriptpubkey_address": "36dXWGHJeVfCD4WocWA4A4CcJZ6zSVqPWM",
        "value": 1200
      },
      "scriptsig": "16001415923d0d3cbc473e53120d5671c0dc2a6da5ae87",
      "scriptsig_asm": "OP_PUSHBYTES_22 001415923d0d3cbc473e53120d5671c0dc2a6da5ae87",
      "witness": [
        "30450221009b857290e1ed7e102395a60920449a9c52255cd9230a0ac17c006525153571370220269f53c5434c08e6a87b991f001cd5b99312fff6aca312edab92122a05aec9f801",
        "02df403cc9f7fc3754d7390b02001861110f3b714f8267b4b8758987ee2d0113c5"
      ],
      "is_coinbase": false,
      "sequence": 2147483649,
      "inner_redeemscript_asm": "OP_0 OP_PUSHBYTES_20 15923d0d3cbc473e53120d5671c0dc2a6da5ae87"
    },
    {
      "txid": "b07a761674fdf26c10fa07ce0866296bcb028d1790577387544942aaac305bdc",
      "vout": 0,
      "prevout": {
        "scriptpubkey": "a914362fa88b04ecf4adfb86f7c99476deb4e50a3d7e87",
        "scriptpubkey_asm": "OP_HASH160 OP_PUSHBYTES_20 362fa88b04ecf4adfb86f7c99476deb4e50a3d7e OP_EQUAL",
        "scriptpubkey_type": "p2sh",
        "scriptpubkey_address": "36dXWGHJeVfCD4WocWA4A4CcJZ6zSVqPWM",
        "value": 1200
      },
      "scriptsig": "16001415923d0d3cbc473e53120d5671c0dc2a6da5ae87",
      "scriptsig_asm": "OP_PUSHBYTES_22 001415923d0d3cbc473e53120d5671c0dc2a6da5ae87",
      "witness": [
        "30440220628da49b963caeb01907691485abfafa4c33d298b224976fa5552f24348c95c6022008b36d9ad49f6cacb2ca3b911eb72bf7dfd632b1fa22eafc1ceb2d9063d935b301",
        "02df403cc9f7fc3754d7390b02001861110f3b714f8267b4b8758987ee2d0113c5"
      ],
      "is_coinbase": false,
      "sequence": 2147483649,
      "inner_redeemscript_asm": "OP_0 OP_PUSHBYTES_20 15923d0d3cbc473e53120d5671c0dc2a6da5ae87"
    },
    {
      "txid": "ae9ef5fbc7e2cc647a6c684ced950159f119ccea382f7c78c7da811cb6a17631",
      "vout": 0,
      "prevout": {
        "scriptpubkey": "a914362fa88b04ecf4adfb86f7c99476deb4e50a3d7e87",
        "scriptpubkey_asm": "OP_HASH160 OP_PUSHBYTES_20 362fa88b04ecf4adfb86f7c99476deb4e50a3d7e OP_EQUAL",
        "scriptpubkey_type": "p2sh",
        "scriptpubkey_address": "36dXWGHJeVfCD4WocWA4A4CcJZ6zSVqPWM",
        "value": 1200
      },
      "scriptsig": "16001415923d0d3cbc473e53120d5671c0dc2a6da5ae87",
      "scriptsig_asm": "OP_PUSHBYTES_22 001415923d0d3cbc473e53120d5671c0dc2a6da5ae87",
      "witness": [
        "3045022100b6b7d3a7519a94c7c3bddd13382575ddd8c5ebf588d3f9b8a465d386f6d7c8a4022057eea2cbae4f5137c742580530428639745057b811c5b41a14c8a48ee376535f01",
        "02df403cc9f7fc3754d7390b02001861110f3b714f8267b4b8758987ee2d0113c5"
      ],
      "is_coinbase": false,
      "sequence": 2147483649,
      "inner_redeemscript_asm": "OP_0 OP_PUSHBYTES_20 15923d0d3cbc473e53120d5671c0dc2a6da5ae87"
    },
    {
      "txid": "c883d6230db20a2e6f3704332bc315e3675767bb7e6aa154843bdbad452ff2e1",
      "vout": 0,
      "prevout": {
        "scriptpubkey": "a914362fa88b04ecf4adfb86f7c99476deb4e50a3d7e87",
        "scriptpubkey_asm": "OP_HASH160 OP_PUSHBYTES_20 362fa88b04ecf4adfb86f7c99476deb4e50a3d7e OP_EQUAL",
        "scriptpubkey_type": "p2sh",
        "scriptpubkey_address": "36dXWGHJeVfCD4WocWA4A4CcJZ6zSVqPWM",
        "value": 1200
      },
      "scriptsig": "16001415923d0d3cbc473e53120d5671c0dc2a6da5ae87",
      "scriptsig_asm": "OP_PUSHBYTES_22 001415923d0d3cbc473e53120d5671c0dc2a6da5ae87",
      "witness": [
        "30440220460c9bcf097fc8ffabcac953d075b5122a240dc4d60e70c3afe9230fb56fa2bc02204d269f638c974d5136ff3e5e075e3b1b671f8b1cd6301910016363f61597869101",
        "02df403cc9f7fc3754d7390b02001861110f3b714f8267b4b8758987ee2d0113c5"
      ],
      "is_coinbase": false,
      "sequence": 2147483649,
      "inner_redeemscript_asm": "OP_0 OP_PUSHBYTES_20 15923d0d3cbc473e53120d5671c0dc2a6da5ae87"
    },
    {
      "txid": "0a351069f9772143dc2fd830981061f535be9fa34f97f5756d00d5330cf6fbb6",
      "vout": 5,
      "prevout": {
        "scriptpubkey": "a914362fa88b04ecf4adfb86f7c99476deb4e50a3d7e87",
        "scriptpubkey_asm": "OP_HASH160 OP_PUSHBYTES_20 362fa88b04ecf4adfb86f7c99476deb4e50a3d7e OP_EQUAL",
        "scriptpubkey_type": "p2sh",
        "scriptpubkey_address": "36dXWGHJeVfCD4WocWA4A4CcJZ6zSVqPWM",
        "value": 868915
      },
      "scriptsig": "16001415923d0d3cbc473e53120d5671c0dc2a6da5ae87",
      "scriptsig_asm": "OP_PUSHBYTES_22 001415923d0d3cbc473e53120d5671c0dc2a6da5ae87",
      "witness": [
        "304402202d5dba265470261e54b63cffd6a91567c48ada7cc353571999eecae845dd277a02201b0334f04c18de4ef1092b6bf51236c56cdd315b024a46bc7fb030d58854187501",
        "02df403cc9f7fc3754d7390b02001861110f3b714f8267b4b8758987ee2d0113c5"
      ],
      "is_coinbase": false,
      "sequence": 2147483649,
      "inner_redeemscript_asm": "OP_0 OP_PUSHBYTES_20 15923d0d3cbc473e53120d5671c0dc2a6da5ae87"
    }
  ],
  "vout": [
    {
      "scriptpubkey": "a914362fa88b04ecf4adfb86f7c99476deb4e50a3d7e87",
      "scriptpubkey_asm": "OP_HASH160 OP_PUSHBYTES_20 362fa88b04ecf4adfb86f7c99476deb4e50a3d7e OP_EQUAL",
      "scriptpubkey_type": "p2sh",
      "scriptpubkey_address": "36dXWGHJeVfCD4WocWA4A4CcJZ6zSVqPWM",
      "value": 1200
    },
    {
      "scriptpubkey": "a914362fa88b04ecf4adfb86f7c99476deb4e50a3d7e87",
      "scriptpubkey_asm": "OP_HASH160 OP_PUSHBYTES_20 362fa88b04ecf4adfb86f7c99476deb4e50a3d7e OP_EQUAL",
      "scriptpubkey_type": "p2sh",
      "scriptpubkey_address": "36dXWGHJeVfCD4WocWA4A4CcJZ6zSVqPWM",
      "value": 546
    },
    {
      "scriptpubkey": "5120c3d34951519b65550f353a7d5feafe387930b7336032ee0f427555250d44bbe6",
      "scriptpubkey_asm": "OP_PUSHNUM_1 OP_PUSHBYTES_32 c3d34951519b65550f353a7d5feafe387930b7336032ee0f427555250d44bbe6",
      "scriptpubkey_type": "v1_p2tr",
      "scriptpubkey_address": "bc1pc0f5j523ndj42re48f74l6h78punpdenvqewur6zw42j2r2yh0nqwlx3y3",
      "value": 650000
    },
    {
      "scriptpubkey": "a914362fa88b04ecf4adfb86f7c99476deb4e50a3d7e87",
      "scriptpubkey_asm": "OP_HASH160 OP_PUSHBYTES_20 362fa88b04ecf4adfb86f7c99476deb4e50a3d7e OP_EQUAL",
      "scriptpubkey_type": "p2sh",
      "scriptpubkey_address": "36dXWGHJeVfCD4WocWA4A4CcJZ6zSVqPWM",
      "value": 600
    },
    {
      "scriptpubkey": "a914362fa88b04ecf4adfb86f7c99476deb4e50a3d7e87",
      "scriptpubkey_asm": "OP_HASH160 OP_PUSHBYTES_20 362fa88b04ecf4adfb86f7c99476deb4e50a3d7e OP_EQUAL",
      "scriptpubkey_type": "p2sh",
      "scriptpubkey_address": "36dXWGHJeVfCD4WocWA4A4CcJZ6zSVqPWM",
      "value": 600
    },
    {
      "scriptpubkey": "a914362fa88b04ecf4adfb86f7c99476deb4e50a3d7e87",
      "scriptpubkey_asm": "OP_HASH160 OP_PUSHBYTES_20 362fa88b04ecf4adfb86f7c99476deb4e50a3d7e OP_EQUAL",
      "scriptpubkey_type": "p2sh",
      "scriptpubkey_address": "36dXWGHJeVfCD4WocWA4A4CcJZ6zSVqPWM",
      "value": 325283
    }
  ],
  "size": 3066,
  "weight": 6900,
  "fee": 15525,
  "status": {
    "confirmed": true,
    "block_height": 834464,
    "block_hash": "0000000000000000000177a0869a911a2b65c9bdcd5a8bcb02b68f305bee848e",
    "block_time": 1710308296
  },
  "hex": "020000000001115e3f6c6a190c319eab111d309dd748a4e1c13a35f73db52d49e37f577a95bad4060000001716001415923d0d3cbc473e53120d5671c0dc2a6da5ae8701000080adf57041552df3231d91fa879f58c4652733e87b7f35b0ac6263584d4756523c040000001716001415923d0d3cbc473e53120d5671c0dc2a6da5ae870100008022deff7452e8a26337f213e3ea63abdfa0eae9013af2d895d91a58303eaa01bf0000000000ffffffffe23dc622e2d05516c8de0d40da6f8b07ad08b24284e617a6c20c8a4064acbe78010000001716001415923d0d3cbc473e53120d5671c0dc2a6da5ae8701000080b58ad665c1d0f0e4f696a13a69c08dad4d842ed8789244582aa54f3e6b3588d8050000001716001415923d0d3cbc473e53120d5671c0dc2a6da5ae87010000807e077bc7c5ad4cbfcebbdf7d25aaf5116fe94ef5c78ca1eeb44755e4974695d5010000001716001415923d0d3cbc473e53120d5671c0dc2a6da5ae87010000805e3f6c6a190c319eab111d309dd748a4e1c13a35f73db52d49e37f577a95bad4000000001716001415923d0d3cbc473e53120d5671c0dc2a6da5ae8701000080913a297e93bf237ae2d18de3e418444b04124f36241263a08131da876f0b6aba000000001716001415923d0d3cbc473e53120d5671c0dc2a6da5ae870100008011f8ffc44feef367a88d0a296ac518bf88964f59b6a843239dfad8888e6ee396000000001716001415923d0d3cbc473e53120d5671c0dc2a6da5ae8701000080b58ad665c1d0f0e4f696a13a69c08dad4d842ed8789244582aa54f3e6b3588d8000000001716001415923d0d3cbc473e53120d5671c0dc2a6da5ae870100008056363b8bd8aaf7a5639be030a670e3ca266f5dbeb1a98df8df0831b9fdb1ba9e000000001716001415923d0d3cbc473e53120d5671c0dc2a6da5ae8701000080adf57041552df3231d91fa879f58c4652733e87b7f35b0ac6263584d4756523c000000001716001415923d0d3cbc473e53120d5671c0dc2a6da5ae87010000807c653d42811913cdf9684bd3883237759061760e42605d5f3832341839e69a68000000001716001415923d0d3cbc473e53120d5671c0dc2a6da5ae8701000080dc5b30acaa42495487735790178d02cb6b296608ce07fa106cf2fd7416767ab0000000001716001415923d0d3cbc473e53120d5671c0dc2a6da5ae87010000803176a1b61c81dac7787c2f38eacc19f1590195ed4c686c7a64cce2c7fbf59eae000000001716001415923d0d3cbc473e53120d5671c0dc2a6da5ae8701000080e1f22f45addb3b8454a16a7ebb675767e315c32b3304376f2e0ab20d23d683c8000000001716001415923d0d3cbc473e53120d5671c0dc2a6da5ae8701000080b6fbf60c33d5006d75f5974fa39fbe35f561109830d82fdc432177f96910350a050000001716001415923d0d3cbc473e53120d5671c0dc2a6da5ae870100008006b00400000000000017a914362fa88b04ecf4adfb86f7c99476deb4e50a3d7e87220200000000000017a914362fa88b04ecf4adfb86f7c99476deb4e50a3d7e8710eb090000000000225120c3d34951519b65550f353a7d5feafe387930b7336032ee0f427555250d44bbe6580200000000000017a914362fa88b04ecf4adfb86f7c99476deb4e50a3d7e87580200000000000017a914362fa88b04ecf4adfb86f7c99476deb4e50a3d7e87a3f604000000000017a914362fa88b04ecf4adfb86f7c99476deb4e50a3d7e8702473044022058159c08f8d21041f76b2a09d4df2d971ccfe807fa997820fe062f18dda14b98022020ef8b4bf778fdfe96a4696c154abbc00e484acd52e609e2ac58b64d8fc967e9012102df403cc9f7fc3754d7390b02001861110f3b714f8267b4b8758987ee2d0113c5024830450221008724c19d38e5df5a286b21b2ba406789e10486b2c848a8c54cdec6231f596be402203209f8ab1fb12549f27eb58b4ff8bdf80f60300a595da0d1a7d981a460b0e96d012102df403cc9f7fc3754d7390b02001861110f3b714f8267b4b8758987ee2d0113c50141b0e69a558f7050e19ced939496ebe84d5e0a48c9741b295a0023107a15b3684ea4b3a79de1adf9c651b9b204e8ec085f4dba9dddccab4cf6c3bafb6c876890af8302473044022000836e6d64115415019128dced6318bbce95b1874fbbe1e53fa8b6135caeed3d02203730b8405fa39197edf03be2b2900706d443a2cab002c5d7c2de5ba9de6d1cb6012102df403cc9f7fc3754d7390b02001861110f3b714f8267b4b8758987ee2d0113c5024730440220734d2b6a05e773172df460ee6a8d806e9343f99b2a6a84d80b77b68cf722beda022035965a8c34543e1b042c38b6a1150a2df18d4ab98f722e51794e97d9943eb1e9012102df403cc9f7fc3754d7390b02001861110f3b714f8267b4b8758987ee2d0113c502473044022057e436e299a9e3a76844fa25c1764557e55013c68c12b2fe2d9e8c6e1b76a625022061690e7cb56d4d7ff6866fd0444e830df9dfb92babf7a0d5d7dc2b94a2099ac9012102df403cc9f7fc3754d7390b02001861110f3b714f8267b4b8758987ee2d0113c502483045022100e594a79da2dc81655de990b2d1981f6aeb0cb707a6a0d9f28853177ce347a5f702201708fa210628f4bce7215736e29609e1cf98e7fa364fd3c5f887a9dcf51dd24f012102df403cc9f7fc3754d7390b02001861110f3b714f8267b4b8758987ee2d0113c502483045022100b44ababd1d0dfcef5c7ab1eae36ff7deb0e920b22d77b9314d582f759532ae5c02206800be4add4014b948302424dd4ec8280f10e723a3bc22d6bdef8389d8b2dd6d012102df403cc9f7fc3754d7390b02001861110f3b714f8267b4b8758987ee2d0113c502473044022050814a71f2bba7a55cf8a60c28eb6ab0e8119697038cd1d7c4ef2e3484940589022040b56ed64d30bfa5e51aa674b6f25f281c7dff2a0caf88419f4af34d68895c2a012102df403cc9f7fc3754d7390b02001861110f3b714f8267b4b8758987ee2d0113c502483045022100f31094e9697ad3042f105242c963bfae5de7d3c7beb828000778e8a946a38d8302202b8e729dfc380d2369e7627ee74c032fe378093906978fc8023bc8eabd0da799012102df403cc9f7fc3754d7390b02001861110f3b714f8267b4b8758987ee2d0113c50247304402202195a1372fbcd22e9743eae7c74fdb6400e85536035b167a2b6f4658683c08c7022035f9ac97a97f655cf2591e52dfd479d51ddfacf8f0855318acbf70bf7d21d47e012102df403cc9f7fc3754d7390b02001861110f3b714f8267b4b8758987ee2d0113c5024830450221009f18d6b2e2ac8b1d9f3c195e603f366343ff1a33dc58cd3aaad09aba22f49f6602207f26ab7b724ca4254aca1c2b0dd6dbc658fa27a07b253cd076bbc66a25b388f0012102df403cc9f7fc3754d7390b02001861110f3b714f8267b4b8758987ee2d0113c5024830450221009b857290e1ed7e102395a60920449a9c52255cd9230a0ac17c006525153571370220269f53c5434c08e6a87b991f001cd5b99312fff6aca312edab92122a05aec9f8012102df403cc9f7fc3754d7390b02001861110f3b714f8267b4b8758987ee2d0113c5024730440220628da49b963caeb01907691485abfafa4c33d298b224976fa5552f24348c95c6022008b36d9ad49f6cacb2ca3b911eb72bf7dfd632b1fa22eafc1ceb2d9063d935b3012102df403cc9f7fc3754d7390b02001861110f3b714f8267b4b8758987ee2d0113c502483045022100b6b7d3a7519a94c7c3bddd13382575ddd8c5ebf588d3f9b8a465d386f6d7c8a4022057eea2cbae4f5137c742580530428639745057b811c5b41a14c8a48ee376535f012102df403cc9f7fc3754d7390b02001861110f3b714f8267b4b8758987ee2d0113c5024730440220460c9bcf097fc8ffabcac953d075b5122a240dc4d60e70c3afe9230fb56fa2bc02204d269f638c974d5136ff3e5e075e3b1b671f8b1cd6301910016363f615978691012102df403cc9f7fc3754d7390b02001861110f3b714f8267b4b8758987ee2d0113c50247304402202d5dba265470261e54b63cffd6a91567c48ada7cc353571999eecae845dd277a02201b0334f04c18de4ef1092b6bf51236c56cdd315b024a46bc7fb030d588541875012102df403cc9f7fc3754d7390b02001861110f3b714f8267b4b8758987ee2d0113c500000000"
}