{
  "txid": "f24a966f093207d23fa00d96d5bf534059b3a6bfabb411b4c3848d3e9f99f97b",
  "version": 2,
  "locktime": 834637,
  "vin": [
    {
      "txid": "bded32b86abf33a8a87171222990c521cf65c881a42080b631e34b0b6123a4ec",
      "vout": 23,
      "prevout": {
        "scriptpubkey": "00146ff5895782ed90cedec67eee7f265439948d7c4f",
        "scriptpubkey_asm": "OP_0 OP_PUSHBYTES_20 6ff5895782ed90cedec67eee7f265439948d7c4f",
        "scriptpubkey_type": "v0_p2wpkh",
        "scriptpubkey_address": "bc1qdl6cj4uzakgvahkx0mh87fj58x2g6lz00p2gy4",
        "value": 82075
      },
      "scriptsig": "",
      "scriptsig_asm": "",
      "witness": [
        "30440220763ec3742cc31bf174a58090532e6341c152a4401afb759e36cc6603fb8b26040220364d58782a8dee9268ae35ad0ad46c81f88a1513bb9aecf74e8df81ce9f4503601",
        "03f6e5676df5f1c213266765c65699d3184820534533e7ecd3e865e97614454c9b"
      ],
      "is_coinbase": false,
      "sequence": 4294967294
    }
  ],
  "vout": [
    {
      "scriptpubkey": "001437aba3c86a4c993887251350285bc356fcd49303",
      "scriptpubkey_asm": "OP_0 OP_PUSHBYTES_20 37aba3c86a4c993887251350285bc356fcd49303",
      "scriptpubkey_type": "v0_p2wpkh",
      "scriptpubkey_address": "bc1qx7468jr2fjvn3pe9zdgzsk7r2m7dfycrfaq3uj",
      "value": 79054
    }
  ],
  "size": 191,
  "weight": 437,
  "fee": 3021,
  "status": {
    "confirmed": true,
    "block_height": 834638,
    "block_hash": "000000000000000000025f742c626208ac87e0b7d15054abb4a19ca2d735a54e",
    "block_time": 1710405325
  },
  "hex": "02000000000101eca423610b4be331b68020a481c865cf21c59029227171a8a833bf6ab832edbd1700000000feffffff01ce3401000000000016001437aba3c86a4c993887251350285bc356fcd49303024730440220763ec3742cc31bf174a58090532e6341c152a4401afb759e36cc6603fb8b26040220364d58782a8dee9268ae35ad0ad46c81f88a1513bb9aecf74e8df81ce9f45036012103f6e5676df5f1c213266765c65699d3184820534533e7ecd3e865e97614454c9b4dbc0c00"
}