{
  "txid": "f2584170829e025e4682e9225cd63ae8b81674dd234f0dfed03f709f0dbad9b8",
  "version": 2,
  "locktime": 834637,
  "vin": [
    {
      "txid": "dfbe33121c223233c241bc67a7325c1c2cf62fa78a19c7a9e4d453aedb7ea34e",
      "vout": 1,
      "prevout": {
        "scriptpubkey": "0014a522de1eee4c26f513df7faf0c605b7808077846",
        "scriptpubkey_asm": "OP_0 OP_PUSHBYTES_20 a522de1eee4c26f513df7faf0c605b7808077846",
        "scriptpubkey_type": "v0_p2wpkh",
        "scriptpubkey_address": "bc1q553du8hwfsn02y7l07hscczm0qyqw7zxhqt93u",
        "value": 159089509
      },
      "scriptsig": "",
      "scriptsig_asm": "",
      "witness": [
        "304402202bdf4d09a392132189e14356373e3c15abd99c2b53592aa0ed848704c6455caf02206dde4f9969d8a99dc67cad779cee42833af16af31c0dfdb7545aff56fc4de94601",
        "03c28f6fc0fe416e90657a988afdd7eaaa30a239d40d38a3ce3861fad14248abbf"
      ],
      "is_coinbase": false,
      "sequence": 4294967293
    }
  ],
  "vout": [
    {
      "scriptpubkey": "a914adc4d7936c9148c6ad6604e197a0266221d330ad87",
      "scriptpubkey_asm": "OP_HASH160 OP_PUSHBYTES_20 adc4d7936c9148c6ad6604e197a0266221d330ad OP_EQUAL",
      "scriptpubkey_type": "p2sh",
      "scriptpubkey_address": "3HXpdZN9ZH85weUMM5DiWBWibit2bh7tD6",
      "value": 1910134
    },
    {
      "scriptpubkey": "0014bbf9bdbe391e855696ba5389af973502402dc8f3",
      "scriptpubkey_asm": "OP_0 OP_PUSHBYTES_20 bbf9bdbe391e855696ba5389af973502402dc8f3",
      "scriptpubkey_type": "v0_p2wpkh",
      "scriptpubkey_address": "bc1qh0umm03er6z4d9462wy6l9e4qfqzmj8nyc5m9z",
      "value": 157175541
    }
  ],
  "size": 223,
  "weight": 565,
  "fee": 3834,
  "status": {
    "confirmed": true,
    "block_height": 834638,
    "block_hash": "000000000000000000025f742c626208ac87e0b7d15054abb4a19ca2d735a54e",
    "block_time": 1710405325
  },
  "hex": "020000000001014ea37edbae53d4e4a9c7198aa72ff62c1c5c32a767bc41c23332221c1233bedf0100000000fdffffff0276251d000000000017a914adc4d7936c9148c6ad6604e197a0266221d330ad87f54e5e0900000000160014bbf9bdbe391e855696ba5389af973502402dc8f30247304402202bdf4d09a392132189e14356373e3c15abd99c2b53592aa0ed848704c6455caf02206dde4f9969d8a99dc67cad779cee42833af16af31c0dfdb7545aff56fc4de946012103c28f6fc0fe416e90657a988afdd7eaaa30a239d40d38a3ce3861fad14248abbf4dbc0c00"
}