{
  "txid": "f25ccee0fa4a91d275179ef2761f0a7e79b0b561b0a8020d890ccd8e85e7e57d",
  "version": 1,
  "locktime": 0,
  "vin": [
    {
      "txid": "e83f306e52bae1e663805a102dc0a3d86038ef38b99b9301b9e3cb9fc1f66639",
      "vout": 1,
      "prevout": {
        "scriptpubkey": "0014f16d75e48dca004d68758b56c598b93394439534",
        "scriptpubkey_asm": "OP_0 OP_PUSHBYTES_20 f16d75e48dca004d68758b56c598b93394439534",
        "scriptpubkey_type": "v0_p2wpkh",
        "scriptpubkey_address": "bc1q79khteydegqy66r43dtvtx9exw2y89f5mser6j",
        "value": 40000
      },
      "scriptsig": "",
      "scriptsig_asm": "",
      "witness": [
        "30450221009a91c308f423a35b8ebcc4f90a19e0b91cf3f360c6ed142ee4a77bce8ea2838e022022506c87aff650d3134a63d0d074ddbbf381da33df730f0dab810fea36a2c8bc01",
        "03473fa79e3cf560c5a1205e189c1c7a0a90294ee5adb8994749258962a16e763d"
      ],
      "is_coinbase": false,
      "sequence": 4294967295
    }
  ],
  "vout": [
    {
      "scriptpubkey": "0014d5d9f1ad630b9b1a2f2ca35e82c3249931a8075d",
      "scriptpubkey_asm": "OP_0 OP_PUSHBYTES_20 d5d9f1ad630b9b1a2f2ca35e82c3249931a8075d",
      "scriptpubkey_type": "v0_p2wpkh",
      "scriptpubkey_address": "bc1q6hvlrttrpwd35tev5d0g9seynyc6sp6aqvqcpr",
      "value": 37030
    }
  ],
  "size": 192,
  "weight": 438,
  "fee": 2970,
  "status": {
    "confirmed": true,
    "block_height": 834638,
    "block_hash": "000000000000000000025f742c626208ac87e0b7d15054abb4a19ca2d735a54e",
    "block_time": 1710405325
  },
  "hex": "010000000001013966f6c19fcbe3b901939bb938ef3860d8a3c02d105a8063e6e1ba526e303fe80100000000ffffffff01a690000000000000160014d5d9f1ad630b9b1a2f2ca35e82c3249931a8075d024830450221009a91c308f423a35b8ebcc4f90a19e0b91cf3f360c6ed142ee4a77bce8ea2838e022022506c87aff650d3134a63d0d074ddbbf381da33df730f0dab810fea36a2c8bc012103473fa79e3cf560c5a1205e189c1c7a0a90294ee5adb8994749258962a16e763d00000000"
}