{
  "txid": "f25f01f2117268e17ae1d9adf475424c872c49d09723aea986bf5709960cfc94",
  "version": 2,
  "locktime": 834458,
  "vin": [
    {
      "txid": "7044fd2e468ba290df422211014ff7ca66371ab6b1d1fab58f78d140cb46b17b",
      "vout": 1,
      "prevout": {
        "scriptpubkey": "76a914acf680d2a91da7a143e95e92575ae0a75281532988ac",
        "scriptpubkey_asm": "OP_DUP OP_HASH160 OP_PUSHBYTES_20 acf680d2a91da7a143e95e92575ae0a752815329 OP_EQUALVERIFY OP_CHECKSIG",
        "scriptpubkey_type": "p2pkh",
        "scriptpubkey_address": "1GmYXLdVLWueySc8tdeAJ56WRfN3dEZjpj",
        "value": 14165
      },
      "scriptsig": "473044022054a536c79a05988d7b15715cac49fcdf2a19b5e782e9c4b097ea54f2c1c170ef02201f36a3f90dce817cab97f81dc4f8b1d050a9fa5a4a0eb63592541e4b1b8d081a012102ab8ae3e764e1fe0fe76c780fc1a416bf18defc3404f14dfa8ea58993bd74fb6c",
      "scriptsig_asm": "OP_PUSHBYTES_71 3044022054a536c79a05988d7b15715cac49fcdf2a19b5e782e9c4b097ea54f2c1c170ef02201f36a3f90dce817cab97f81dc4f8b1d050a9fa5a4a0eb63592541e4b1b8d081a01 OP_PUSHBYTES_33 02ab8ae3e764e1fe0fe76c780fc1a416bf18defc3404f14dfa8ea58993bd74fb6c",
      "is_coinbase": false,
      "sequence": 4294967293
    }
  ],
  "vout": [
    {
      "scriptpubkey": "76a914f029c8e201233269292d0744e008ce61993fbe0488ac",
      "scriptpubkey_asm": "OP_DUP OP_HASH160 OP_PUSHBYTES_20 f029c8e201233269292d0744e008ce61993fbe04 OP_EQUALVERIFY OP_CHECKSIG",
      "scriptpubkey_type": "p2pkh",
      "scriptpubkey_address": "1NtsEHt74kp518Vmx6y9xtBPbhNPYunsRb",
      "value": 8789
    }
  ],
  "size": 191,
  "weight": 764,
  "fee": 5376,
  "status": {
    "confirmed": true,
    "block_height": 834460,
    "block_hash": "00000000000000000000484a79b643b2524bbce82e5d8a442013fa5b8905ed98",
    "block_time": 1710307468
  },
  "hex": "02000000017bb146cb40d1788fb5fad1b1b61a3766caf74f01112242df90a28b462efd4470010000006a473044022054a536c79a05988d7b15715cac49fcdf2a19b5e782e9c4b097ea54f2c1c170ef02201f36a3f90dce817cab97f81dc4f8b1d050a9fa5a4a0eb63592541e4b1b8d081a012102ab8ae3e764e1fe0fe76c780fc1a416bf18defc3404f14dfa8ea58993bd74fb6cfdffffff0155220000000000001976a914f029c8e201233269292d0744e008ce61993fbe0488ac9abb0c00"
}