{
  "txid": "f26034f06b1990dc66ec551bc4eeceb9bacac5359d774a582597eaaeab47a0a2",
  "version": 2,
  "locktime": 0,
  "vin": [
    {
      "txid": "70b8e953a33e69cd3d4ddd5399c20f0218cd8aa89f5675481dd051c65be730ba",
      "vout": 0,
      "prevout": {
        "scriptpubkey": "5120d7b0161160dc8ce46dfbf55c602ffeef5ed4ebcadebbe077918819b0aa1b73e6",
        "scriptpubkey_asm": "OP_PUSHNUM_1 OP_PUSHBYTES_32 d7b0161160dc8ce46dfbf55c602ffeef5ed4ebcadebbe077918819b0aa1b73e6",
        "scriptpubkey_type": "v1_p2tr",
        "scriptpubkey_address": "bc1p67cpvytqmjxwgm0m74wxqtl7aa0df672m6a7qau33qvmp2smw0nqrgxc8d",
        "value": 546
      },
      "scriptsig": "",
      "scriptsig_asm": "",
      "witness": [
        "3ed75944a436d26d591a88cb2b79dc679a9c7d1ea5b7439bc1ccd1639c2555fcf8c5e4fc0f5c5166c97bbffc6b74f5d874de50a46f62d39a9d44a7af6bee2fc1"
      ],
      "is_coinbase": false,
      "sequence": 2147483649
    },
    {
      "txid": "27b358a5f44f57f09cf7ac7fde3c0a5b531dd9d6e023f847744d00911ae0e681",
      "vout": 1,
      "prevout": {
        "scriptpubkey": "5120d7b0161160dc8ce46dfbf55c602ffeef5ed4ebcadebbe077918819b0aa1b73e6",
        "scriptpubkey_asm": "OP_PUSHNUM_1 OP_PUSHBYTES_32 d7b0161160dc8ce46dfbf55c602ffeef5ed4ebcadebbe077918819b0aa1b73e6",
        "scriptpubkey_type": "v1_p2tr",
        "scriptpubkey_address": "bc1p67cpvytqmjxwgm0m74wxqtl7aa0df672m6a7qau33qvmp2smw0nqrgxc8d",
        "value": 1808061
      },
      "scriptsig": "",
      "scriptsig_asm": "",
      "witness": [
        "acf4f0488aaf13e2d5604efd13a31ed4bf835193b9e18d65242681da4fdfd574ee133ce84de7f35d5a8150ed391770ef9010159814e078dca975660ff30cfb29"
      ],
      "is_coinbase": false,
      "sequence": 2147483649
    }
  ],
  "vout": [
    {
      "scriptpubkey": "5120d7b0161160dc8ce46dfbf55c602ffeef5ed4ebcadebbe077918819b0aa1b73e6",
      "scriptpubkey_asm": "OP_PUSHNUM_1 OP_PUSHBYTES_32 d7b0161160dc8ce46dfbf55c602ffeef5ed4ebcadebbe077918819b0aa1b73e6",
      "scriptpubkey_type": "v1_p2tr",
      "scriptpubkey_address": "bc1p67cpvytqmjxwgm0m74wxqtl7aa0df672m6a7qau33qvmp2smw0nqrgxc8d",
      "value": 546
    },
    {
      "scriptpubkey": "5120d7b0161160dc8ce46dfbf55c602ffeef5ed4ebcadebbe077918819b0aa1b73e6",
      "scriptpubkey_asm": "OP_PUSHNUM_1 OP_PUSHBYTES_32 d7b0161160dc8ce46dfbf55c602ffeef5ed4ebcadebbe077918819b0aa1b73e6",
      "scriptpubkey_type": "v1_p2tr",
      "scriptpubkey_address": "bc1p67cpvytqmjxwgm0m74wxqtl7aa0df672m6a7qau33qvmp2smw0nqrgxc8d",
      "value": 1805740
    }
  ],
  "size": 312,
  "weight": 846,
  "fee": 2321,
  "status": {
    "confirmed": true,
    "block_height": 834464,
    "block_hash": "0000000000000000000177a0869a911a2b65c9bdcd5a8bcb02b68f305bee848e",
    "block_time": 1710308296
  },
  "hex": "02000000000102ba30e75bc651d01d4875569fa88acd18020fc29953dd4d3dcd693ea353e9b87000000000000100008081e6e01a91004d7447f823e0d6d91d535b0a3cde7facf79cf0574ff4a558b327010000000001000080022202000000000000225120d7b0161160dc8ce46dfbf55c602ffeef5ed4ebcadebbe077918819b0aa1b73e6ac8d1b0000000000225120d7b0161160dc8ce46dfbf55c602ffeef5ed4ebcadebbe077918819b0aa1b73e601403ed75944a436d26d591a88cb2b79dc679a9c7d1ea5b7439bc1ccd1639c2555fcf8c5e4fc0f5c5166c97bbffc6b74f5d874de50a46f62d39a9d44a7af6bee2fc10140acf4f0488aaf13e2d5604efd13a31ed4bf835193b9e18d65242681da4fdfd574ee133ce84de7f35d5a8150ed391770ef9010159814e078dca975660ff30cfb2900000000"
}