{
  "txid": "f261ca135c20e9a10dc4959e52e36dcd44e9bfab35a66eb0ddeb7d493e35d2c3",
  "version": 1,
  "locktime": 834637,
  "vin": [
    {
      "txid": "647bc64441e2f93fab0a53013a07a9eaf97b2f19033675e075eacd1935d09f37",
      "vout": 0,
      "prevout": {
        "scriptpubkey": "00147c04d44e538bf7098227a2a72c1e10cc69ee3bc0",
        "scriptpubkey_asm": "OP_0 OP_PUSHBYTES_20 7c04d44e538bf7098227a2a72c1e10cc69ee3bc0",
        "scriptpubkey_type": "v0_p2wpkh",
        "scriptpubkey_address": "bc1q0szdgnjn30msnq3852njc8sse357uw7qxxxj4p",
        "value": 283632013
      },
      "scriptsig": "",
      "scriptsig_asm": "",
      "witness": [
        "304402204010aaf7cff9606579f42a0ac72204b3c6455e959e3dbed5392eebd120f0e723022062dde8148f291f36fcba2d47a55bcfcebdbc5a9bd362b6c7c6e5af6ce45a467601",
        "023978d724351021708e3263c183a25da4455c38c0cd483e19fa98d36f4a1752d1"
      ],
      "is_coinbase": false,
      "sequence": 4294967293
    }
  ],
  "vout": [
    {
      "scriptpubkey": "00145c1e9c33747070609ed2610a374eea857e427e68",
      "scriptpubkey_asm": "OP_0 OP_PUSHBYTES_20 5c1e9c33747070609ed2610a374eea857e427e68",
      "scriptpubkey_type": "v0_p2wpkh",
      "scriptpubkey_address": "bc1qts0fcvm5wpcxp8kjvy9rwnh2s4lyylngnnn3sj",
      "value": 283518355
    },
    {
      "scriptpubkey": "76a914bf08007ddd87edbca6a6a5b5c8afc1aa7992e96e88ac",
      "scriptpubkey_asm": "OP_DUP OP_HASH160 OP_PUSHBYTES_20 bf08007ddd87edbca6a6a5b5c8afc1aa7992e96e OP_EQUALVERIFY OP_CHECKSIG",
      "scriptpubkey_type": "p2pkh",
      "scriptpubkey_address": "1JR5ed86D6Z5bkfXg1WYkUfm4osGRdrA5i",
      "value": 105882
    }
  ],
  "size": 225,
  "weight": 573,
  "fee": 7776,
  "status": {
    "confirmed": true,
    "block_height": 834638,
    "block_hash": "000000000000000000025f742c626208ac87e0b7d15054abb4a19ca2d735a54e",
    "block_time": 1710405325
  },
  "hex": "01000000000101379fd03519cdea75e0753603192f7bf9eaa9073a01530aab3ff9e24144c67b640000000000fdffffff029325e610000000001600145c1e9c33747070609ed2610a374eea857e427e689a9d0100000000001976a914bf08007ddd87edbca6a6a5b5c8afc1aa7992e96e88ac0247304402204010aaf7cff9606579f42a0ac72204b3c6455e959e3dbed5392eebd120f0e723022062dde8148f291f36fcba2d47a55bcfcebdbc5a9bd362b6c7c6e5af6ce45a46760121023978d724351021708e3263c183a25da4455c38c0cd483e19fa98d36f4a1752d14dbc0c00"
}