{
  "txid": "f263e84d61556213c34f07caa5535ce74a8228ced78f63629378dcbd6b29d2c4",
  "version": 2,
  "locktime": 0,
  "vin": [
    {
      "txid": "b31c28ff5bc89139f3e7fdc1eec6f7bb68ff308ee7112075b220b2907a7975e2",
      "vout": 11,
      "prevout": {
        "scriptpubkey": "51207201c5afddf815e836d0355de7e740a0c796e2e5fb5c73bd3b98ee79ba0b0007",
        "scriptpubkey_asm": "OP_PUSHNUM_1 OP_PUSHBYTES_32 7201c5afddf815e836d0355de7e740a0c796e2e5fb5c73bd3b98ee79ba0b0007",
        "scriptpubkey_type": "v1_p2tr",
        "scriptpubkey_address": "bc1pwgqutt7alq27sdksx4w70e6q5rredch9ldw880fmnrh8nwstqqrs2jsadt",
        "value": 600
      },
      "scriptsig": "",
      "scriptsig_asm": "",
      "witness": [
        "79bd4f0d5a46ac14632fba83bba2969682da5d07d3ca6be9a5d5739848c0636e096014495ba8fd4000d2a06e3a4f887eebc28da149bc6bec2c6fb7f594348050"
      ],
      "is_coinbase": false,
      "sequence": 4294967295
    },
    {
      "txid": "d1ac8a88d1a21335d424b26de3071feeb54e9d84d5bf4d141a7a2280d15b1e75",
      "vout": 4,
      "prevout": {
        "scriptpubkey": "51207201c5afddf815e836d0355de7e740a0c796e2e5fb5c73bd3b98ee79ba0b0007",
        "scriptpubkey_asm": "OP_PUSHNUM_1 OP_PUSHBYTES_32 7201c5afddf815e836d0355de7e740a0c796e2e5fb5c73bd3b98ee79ba0b0007",
        "scriptpubkey_type": "v1_p2tr",
        "scriptpubkey_address": "bc1pwgqutt7alq27sdksx4w70e6q5rredch9ldw880fmnrh8nwstqqrs2jsadt",
        "value": 600
      },
      "scriptsig": "",
      "scriptsig_asm": "",
      "witness": [
        "53f0e637d25166e5d43277fc794fd1dbc560fc5ddeaa28f5ba324243d4a8560e06ffcfa867aa81f1f207bcec922b7c9a6092e55d6a4c247f126b9a483a0178e4"
      ],
      "is_coinbase": false,
      "sequence": 4294967295
    },
    {
      "txid": "09531bedad50e178ef0ce6dcb3cabb205fdeee0262fae733766a7d2d3c5fda8b",
      "vout": 1,
      "prevout": {
        "scriptpubkey": "51200731361c2a16ecc0b212d650887eb1062627bb2a3aef6ce4161201946659cb57",
        "scriptpubkey_asm": "OP_PUSHNUM_1 OP_PUSHBYTES_32 0731361c2a16ecc0b212d650887eb1062627bb2a3aef6ce4161201946659cb57",
        "scriptpubkey_type": "v1_p2tr",
        "scriptpubkey_address": "bc1pqucnv8p2zmkvpvsj6eggsl43qcnz0we28thkeeqkzgqegejeedtsry02nv",
        "value": 500
      },
      "scriptsig": "",
      "scriptsig_asm": "",
      "witness": [
        "e800778e525c9d75e463bab4f906abac0b8df5b93583d4e94262f46cccf7dfd5344532a2b586e056757e30dff22e12f87eca363cc8e9d6e3515f7525f13bee5483"
      ],
      "is_coinbase": false,
      "sequence": 4294967295
    },
    {
      "txid": "a47d6ad2376c5dd43845ddde6c2705cdf0eddc587070f954bcccf35ebbf981da",
      "vout": 6,
      "prevout": {
        "scriptpubkey": "51207201c5afddf815e836d0355de7e740a0c796e2e5fb5c73bd3b98ee79ba0b0007",
        "scriptpubkey_asm": "OP_PUSHNUM_1 OP_PUSHBYTES_32 7201c5afddf815e836d0355de7e740a0c796e2e5fb5c73bd3b98ee79ba0b0007",
        "scriptpubkey_type": "v1_p2tr",
        "scriptpubkey_address": "bc1pwgqutt7alq27sdksx4w70e6q5rredch9ldw880fmnrh8nwstqqrs2jsadt",
        "value": 98776
      },
      "scriptsig": "",
      "scriptsig_asm": "",
      "witness": [
        "0a0e46f69718d0c67ae8a7db095c871b22f8278e96f5ebab247e7a31556ec592fbf9d7055595609fc7e56b53302509b21222026b5eed17eb15b36212f1a1b608"
      ],
      "is_coinbase": false,
      "sequence": 4294967295
    },
    {
      "txid": "20aa63bf812d11c216f565555e4df4264b7a6e56a5a19d1a1736450b066b2bf0",
      "vout": 5,
      "prevout": {
        "scriptpubkey": "51207201c5afddf815e836d0355de7e740a0c796e2e5fb5c73bd3b98ee79ba0b0007",
        "scriptpubkey_asm": "OP_PUSHNUM_1 OP_PUSHBYTES_32 7201c5afddf815e836d0355de7e740a0c796e2e5fb5c73bd3b98ee79ba0b0007",
        "scriptpubkey_type": "v1_p2tr",
        "scriptpubkey_address": "bc1pwgqutt7alq27sdksx4w70e6q5rredch9ldw880fmnrh8nwstqqrs2jsadt",
        "value": 88361
      },
      "scriptsig": "",
      "scriptsig_asm": "",
      "witness": [
        "ba5c9df8f3a981f9f07ca9af9fa0bc06f6836a056736a1aeab855fe03ef5b5a63d8d8b84aba7447cf3d8075e50abcac427a71562ad997e281536ce8cdbde9c7c"
      ],
      "is_coinbase": false,
      "sequence": 4294967295
    },
    {
      "txid": "d1ac8a88d1a21335d424b26de3071feeb54e9d84d5bf4d141a7a2280d15b1e75",
      "vout": 6,
      "prevout": {
        "scriptpubkey": "51207201c5afddf815e836d0355de7e740a0c796e2e5fb5c73bd3b98ee79ba0b0007",
        "scriptpubkey_asm": "OP_PUSHNUM_1 OP_PUSHBYTES_32 7201c5afddf815e836d0355de7e740a0c796e2e5fb5c73bd3b98ee79ba0b0007",
        "scriptpubkey_type": "v1_p2tr",
        "scriptpubkey_address": "bc1pwgqutt7alq27sdksx4w70e6q5rredch9ldw880fmnrh8nwstqqrs2jsadt",
        "value": 83410
      },
      "scriptsig": "",
      "scriptsig_asm": "",
      "witness": [
        "4a5726b82a145f77db051d688a15402c0741fa7a2f70c30ca8ad30ad4e1b6ea398cb5ac9add3ea545b80e5f5766e3aa316cd644f13aebee159b204ee93c18e2f"
      ],
      "is_coinbase": false,
      "sequence": 4294967295
    }
  ],
  "vout": [
    {
      "scriptpubkey": "51207201c5afddf815e836d0355de7e740a0c796e2e5fb5c73bd3b98ee79ba0b0007",
      "scriptpubkey_asm": "OP_PUSHNUM_1 OP_PUSHBYTES_32 7201c5afddf815e836d0355de7e740a0c796e2e5fb5c73bd3b98ee79ba0b0007",
      "scriptpubkey_type": "v1_p2tr",
      "scriptpubkey_address": "bc1pwgqutt7alq27sdksx4w70e6q5rredch9ldw880fmnrh8nwstqqrs2jsadt",
      "value": 1200
    },
    {
      "scriptpubkey": "51207201c5afddf815e836d0355de7e740a0c796e2e5fb5c73bd3b98ee79ba0b0007",
      "scriptpubkey_asm": "OP_PUSHNUM_1 OP_PUSHBYTES_32 7201c5afddf815e836d0355de7e740a0c796e2e5fb5c73bd3b98ee79ba0b0007",
      "scriptpubkey_type": "v1_p2tr",
      "scriptpubkey_address": "bc1pwgqutt7alq27sdksx4w70e6q5rredch9ldw880fmnrh8nwstqqrs2jsadt",
      "value": 500
    },
    {
      "scriptpubkey": "51200731361c2a16ecc0b212d650887eb1062627bb2a3aef6ce4161201946659cb57",
      "scriptpubkey_asm": "OP_PUSHNUM_1 OP_PUSHBYTES_32 0731361c2a16ecc0b212d650887eb1062627bb2a3aef6ce4161201946659cb57",
      "scriptpubkey_type": "v1_p2tr",
      "scriptpubkey_address": "bc1pqucnv8p2zmkvpvsj6eggsl43qcnz0we28thkeeqkzgqegejeedtsry02nv",
      "value": 189550
    },
    {
      "scriptpubkey": "a914ea6b832a05c6ca578baa3836f3f25553d41068a587",
      "scriptpubkey_asm": "OP_HASH160 OP_PUSHBYTES_20 ea6b832a05c6ca578baa3836f3f25553d41068a5 OP_EQUAL",
      "scriptpubkey_type": "p2sh",
      "scriptpubkey_address": "3P4WqXDbSLRhzo2H6MT6YFbvBKBDPLbVtQ",
      "value": 4750
    },
    {
      "scriptpubkey": "51207201c5afddf815e836d0355de7e740a0c796e2e5fb5c73bd3b98ee79ba0b0007",
      "scriptpubkey_asm": "OP_PUSHNUM_1 OP_PUSHBYTES_32 7201c5afddf815e836d0355de7e740a0c796e2e5fb5c73bd3b98ee79ba0b0007",
      "scriptpubkey_type": "v1_p2tr",
      "scriptpubkey_address": "bc1pwgqutt7alq27sdksx4w70e6q5rredch9ldw880fmnrh8nwstqqrs2jsadt",
      "value": 600
    },
    {
      "scriptpubkey": "51207201c5afddf815e836d0355de7e740a0c796e2e5fb5c73bd3b98ee79ba0b0007",
      "scriptpubkey_asm": "OP_PUSHNUM_1 OP_PUSHBYTES_32 7201c5afddf815e836d0355de7e740a0c796e2e5fb5c73bd3b98ee79ba0b0007",
      "scriptpubkey_type": "v1_p2tr",
      "scriptpubkey_address": "bc1pwgqutt7alq27sdksx4w70e6q5rredch9ldw880fmnrh8nwstqqrs2jsadt",
      "value": 600
    },
    {
      "scriptpubkey": "51207201c5afddf815e836d0355de7e740a0c796e2e5fb5c73bd3b98ee79ba0b0007",
      "scriptpubkey_asm": "OP_PUSHNUM_1 OP_PUSHBYTES_32 7201c5afddf815e836d0355de7e740a0c796e2e5fb5c73bd3b98ee79ba0b0007",
      "scriptpubkey_type": "v1_p2tr",
      "scriptpubkey_address": "bc1pwgqutt7alq27sdksx4w70e6q5rredch9ldw880fmnrh8nwstqqrs2jsadt",
      "value": 64695
    }
  ],
  "size": 945,
  "weight": 2583,
  "fee": 10352,
  "status": {
    "confirmed": true,
    "block_height": 834638,
    "block_hash": "000000000000000000025f742c626208ac87e0b7d15054abb4a19ca2d735a54e",
    "block_time": 1710405325
  },
  "hex": "02000000000106e275797a90b220b2752011e78e30ff68bbf7c6eec1fde7f33991c85bff281cb30b00000000ffffffff751e5bd180227a1a144dbfd5849d4eb5ee1f07e36db224d43513a2d1888aacd10400000000ffffffff8bda5f3c2d7d6a7633e7fa6202eede5f20bbcab3dce60cef78e150aded1b53090100000000ffffffffda81f9bb5ef3ccbc54f9707058dcedf0cd05276cdedd4538d45d6c37d26a7da40600000000fffffffff02b6b060b4536171a9da1a5566e7a4b26f44d5e5565f516c2112d81bf63aa200500000000ffffffff751e5bd180227a1a144dbfd5849d4eb5ee1f07e36db224d43513a2d1888aacd10600000000ffffffff07b0040000000000002251207201c5afddf815e836d0355de7e740a0c796e2e5fb5c73bd3b98ee79ba0b0007f4010000000000002251207201c5afddf815e836d0355de7e740a0c796e2e5fb5c73bd3b98ee79ba0b00076ee40200000000002251200731361c2a16ecc0b212d650887eb1062627bb2a3aef6ce4161201946659cb578e1200000000000017a914ea6b832a05c6ca578baa3836f3f25553d41068a58758020000000000002251207201c5afddf815e836d0355de7e740a0c796e2e5fb5c73bd3b98ee79ba0b000758020000000000002251207201c5afddf815e836d0355de7e740a0c796e2e5fb5c73bd3b98ee79ba0b0007b7fc0000000000002251207201c5afddf815e836d0355de7e740a0c796e2e5fb5c73bd3b98ee79ba0b0007014079bd4f0d5a46ac14632fba83bba2969682da5d07d3ca6be9a5d5739848c0636e096014495ba8fd4000d2a06e3a4f887eebc28da149bc6bec2c6fb7f594348050014053f0e637d25166e5d43277fc794fd1dbc560fc5ddeaa28f5ba324243d4a8560e06ffcfa867aa81f1f207bcec922b7c9a6092e55d6a4c247f126b9a483a0178e40141e800778e525c9d75e463bab4f906abac0b8df5b93583d4e94262f46cccf7dfd5344532a2b586e056757e30dff22e12f87eca363cc8e9d6e3515f7525f13bee548301400a0e46f69718d0c67ae8a7db095c871b22f8278e96f5ebab247e7a31556ec592fbf9d7055595609fc7e56b53302509b21222026b5eed17eb15b36212f1a1b6080140ba5c9df8f3a981f9f07ca9af9fa0bc06f6836a056736a1aeab855fe03ef5b5a63d8d8b84aba7447cf3d8075e50abcac427a71562ad997e281536ce8cdbde9c7c01404a5726b82a145f77db051d688a15402c0741fa7a2f70c30ca8ad30ad4e1b6ea398cb5ac9add3ea545b80e5f5766e3aa316cd644f13aebee159b204ee93c18e2f00000000"
}