{
  "txid": "f27c6b23682a6912ddb3c0bd0547b920774d0ccd12e87d654f575b233e8555e3",
  "version": 2,
  "locktime": 0,
  "vin": [
    {
      "txid": "e054c137725b7a5d163dade8f5cd68c0927a2e8b00d920927dab9a7ba934ce5f",
      "vout": 5,
      "prevout": {
        "scriptpubkey": "512003ff33f280b48df72cc7225a28b913098e200561300932cfb5235ba01c2b3307",
        "scriptpubkey_asm": "OP_PUSHNUM_1 OP_PUSHBYTES_32 03ff33f280b48df72cc7225a28b913098e200561300932cfb5235ba01c2b3307",
        "scriptpubkey_type": "v1_p2tr",
        "scriptpubkey_address": "bc1pq0ln8u5qkjxlwtx8yfdz3wgnpx8zqptpxqyn9na4ydd6q8ptxvrshaqqnq",
        "value": 2658
      },
      "scriptsig": "",
      "scriptsig_asm": "",
      "witness": [
        "b0270e2fb8d76a951765f0ec13c3b85cf5863d0d9d187b93f007c8777c57e6ccb26e828c37c6bbf2915b5142157a115f2d8f26e8bbdbf6192333e0c4374b6d78",
        "2077b57878ad108de03cff364a85f444e3e2306787765145c49d6523f3144eaa59ac0063036f726401011e6170706c69636174696f6e2f6a736f6e3b636861727365743d7574662d38004cbf7b2270223a22706f772d3230222c226f70223a226d696e74222c227469636b223a2250455045222c22616d74223a2231303030222c22736f6c7574696f6e223a22504550453a6263317139736a36303977756e7468646a636d7a746a796379766475616e653071716b78726e773932653a303030303030303030303030303030303030303139393431613561653132383937363539383134343239323533333030353762306461393666336465613163353a3331393539303037373433227d68",
        "c1a0e509a599b6542378e5ac7959d344a1bebc95ec9899fd4ccf1904beefe3f047"
      ],
      "is_coinbase": false,
      "sequence": 4294967295
    }
  ],
  "vout": [
    {
      "scriptpubkey": "00142c25a795dc9aeed963625c898231bcecf2f002c6",
      "scriptpubkey_asm": "OP_0 OP_PUSHBYTES_20 2c25a795dc9aeed963625c898231bcecf2f002c6",
      "scriptpubkey_type": "v0_p2wpkh",
      "scriptpubkey_address": "bc1q9sj609wunthdjcmztjycyvduane0qqkxrnw92e",
      "value": 546
    }
  ],
  "size": 455,
  "weight": 701,
  "fee": 2112,
  "status": {
    "confirmed": true,
    "block_height": 834460,
    "block_hash": "00000000000000000000484a79b643b2524bbce82e5d8a442013fa5b8905ed98",
    "block_time": 1710307468
  },
  "hex": "020000000001015fce34a97b9aab7d9220d9008b2e7a92c068cdf5e8ad3d165d7a5b7237c154e00500000000ffffffff0122020000000000001600142c25a795dc9aeed963625c898231bcecf2f002c60340b0270e2fb8d76a951765f0ec13c3b85cf5863d0d9d187b93f007c8777c57e6ccb26e828c37c6bbf2915b5142157a115f2d8f26e8bbdbf6192333e0c4374b6d78fd0c012077b57878ad108de03cff364a85f444e3e2306787765145c49d6523f3144eaa59ac0063036f726401011e6170706c69636174696f6e2f6a736f6e3b636861727365743d7574662d38004cbf7b2270223a22706f772d3230222c226f70223a226d696e74222c227469636b223a2250455045222c22616d74223a2231303030222c22736f6c7574696f6e223a22504550453a6263317139736a36303977756e7468646a636d7a746a796379766475616e653071716b78726e773932653a303030303030303030303030303030303030303139393431613561653132383937363539383134343239323533333030353762306461393666336465613163353a3331393539303037373433227d6821c1a0e509a599b6542378e5ac7959d344a1bebc95ec9899fd4ccf1904beefe3f04700000000"
}