{
  "txid": "f28b7b76ad7dc71cbb56172b330a2fa36f04106518b86f9ad5e197208000b650",
  "version": 1,
  "locktime": 0,
  "vin": [
    {
      "txid": "51b7e354b1899709f27331f0e6ec87256308afb236f056640c2bd7f08e954f7a",
      "vout": 0,
      "prevout": {
        "scriptpubkey": "5120bf569fa46fe41ad29979396933922624ff7469cd4fa5cefdeedf22d624a7f81e",
        "scriptpubkey_asm": "OP_PUSHNUM_1 OP_PUSHBYTES_32 bf569fa46fe41ad29979396933922624ff7469cd4fa5cefdeedf22d624a7f81e",
        "scriptpubkey_type": "v1_p2tr",
        "scriptpubkey_address": "bc1phatflfr0usdd9xte895n8y3xynlhg6wdf7jual0wmu3dvf98lq0qlkm8mt",
        "value": 2522
      },
      "scriptsig": "",
      "scriptsig_asm": "",
      "witness": [
        "77e7c77179149d0a8c0cbec34e598a83b7c2c4c122bddb99ea168e73b3a1ee566819e871279748152e870a976fc67750de48c45f1d599737f6baedb7ae46e275",
        "20de6ed6179d149789aa8684dfe23acf8c929a5a5f9f255fa3e719b54688bf9ce8ac0063036f7264010118746578742f706c61696e3b636861727365743d7574662d3800397b2270223a226272632d3230222c226f70223a227472616e73666572222c227469636b223a22696e6473222c22616d74223a2231303030227d68",
        "c0de6ed6179d149789aa8684dfe23acf8c929a5a5f9f255fa3e719b54688bf9ce8"
      ],
      "is_coinbase": false,
      "sequence": 4294967285
    }
  ],
  "vout": [
    {
      "scriptpubkey": "51208550621ad0904834eb980451ecaffa2b3ad1cd0f0a18f37a6c2bd0b8598239a0",
      "scriptpubkey_asm": "OP_PUSHNUM_1 OP_PUSHBYTES_32 8550621ad0904834eb980451ecaffa2b3ad1cd0f0a18f37a6c2bd0b8598239a0",
      "scriptpubkey_type": "v1_p2tr",
      "scriptpubkey_address": "bc1ps4gxyxksjpyrf6ucq3g7etl69vadrng0pgv0x7nv90gtskvz8xsqxh042x",
      "value": 546
    }
  ],
  "size": 324,
  "weight": 606,
  "fee": 1976,
  "status": {
    "confirmed": true,
    "block_height": 834460,
    "block_hash": "00000000000000000000484a79b643b2524bbce82e5d8a442013fa5b8905ed98",
    "block_time": 1710307468
  },
  "hex": "010000000001017a4f958ef0d72b0c6456f036b2af08632587ece6f03173f2099789b154e3b7510000000000f5ffffff0122020000000000002251208550621ad0904834eb980451ecaffa2b3ad1cd0f0a18f37a6c2bd0b8598239a0034077e7c77179149d0a8c0cbec34e598a83b7c2c4c122bddb99ea168e73b3a1ee566819e871279748152e870a976fc67750de48c45f1d599737f6baedb7ae46e2757f20de6ed6179d149789aa8684dfe23acf8c929a5a5f9f255fa3e719b54688bf9ce8ac0063036f7264010118746578742f706c61696e3b636861727365743d7574662d3800397b2270223a226272632d3230222c226f70223a227472616e73666572222c227469636b223a22696e6473222c22616d74223a2231303030227d6821c0de6ed6179d149789aa8684dfe23acf8c929a5a5f9f255fa3e719b54688bf9ce800000000"
}