{
  "txid": "f292af7a55e82a8eb47233239ca4eaad78c82f823516257e71ad3cb8a12256e6",
  "version": 2,
  "locktime": 0,
  "vin": [
    {
      "txid": "525e24f73b59819906f8d7359083353deb8647e5a8c9f2433503464c97039102",
      "vout": 1,
      "prevout": {
        "scriptpubkey": "0014497197dca73ac1193eeb17a224e9e216140b63de",
        "scriptpubkey_asm": "OP_0 OP_PUSHBYTES_20 497197dca73ac1193eeb17a224e9e216140b63de",
        "scriptpubkey_type": "v0_p2wpkh",
        "scriptpubkey_address": "bc1qf9ce0h988tq3j0htz73zf60zzc2qkc7789ldva",
        "value": 172634
      },
      "scriptsig": "",
      "scriptsig_asm": "",
      "witness": [
        "3045022100e6834e7104cac6878e5edfaaaaa07ad1a45f6f4c47ff56715a6679322498ae5e02203e13b99a866c2bab99a1e10ea5fd9d25bc57dbb08c0822fb56a7096d8611e9c801",
        "02d37a8ec34aaa37ff7cf54fe4a30d81d76344c44a14c9d8a5debec202b042c4ac"
      ],
      "is_coinbase": false,
      "sequence": 4294967295
    }
  ],
  "vout": [
    {
      "scriptpubkey": "6a2a827b00aec92a5145066e046db41ae3a9f8eee1335af5793590ec7a9e1d5f44ebf7a51e20fedc4fcc4b1b",
      "scriptpubkey_asm": "OP_RETURN OP_PUSHBYTES_42 827b00aec92a5145066e046db41ae3a9f8eee1335af5793590ec7a9e1d5f44ebf7a51e20fedc4fcc4b1b",
      "scriptpubkey_type": "op_return",
      "value": 0
    },
    {
      "scriptpubkey": "0014497197dca73ac1193eeb17a224e9e216140b63de",
      "scriptpubkey_asm": "OP_0 OP_PUSHBYTES_20 497197dca73ac1193eeb17a224e9e216140b63de",
      "scriptpubkey_type": "v0_p2wpkh",
      "scriptpubkey_address": "bc1qf9ce0h988tq3j0htz73zf60zzc2qkc7789ldva",
      "value": 170429
    }
  ],
  "size": 245,
  "weight": 650,
  "fee": 2205,
  "status": {
    "confirmed": true,
    "block_height": 834460,
    "block_hash": "00000000000000000000484a79b643b2524bbce82e5d8a442013fa5b8905ed98",
    "block_time": 1710307468
  },
  "hex": "02000000000101029103974c46033543f2c9a8e54786eb3d35839035d7f8069981593bf7245e520100000000ffffffff0200000000000000002c6a2a827b00aec92a5145066e046db41ae3a9f8eee1335af5793590ec7a9e1d5f44ebf7a51e20fedc4fcc4b1bbd99020000000000160014497197dca73ac1193eeb17a224e9e216140b63de02483045022100e6834e7104cac6878e5edfaaaaa07ad1a45f6f4c47ff56715a6679322498ae5e02203e13b99a866c2bab99a1e10ea5fd9d25bc57dbb08c0822fb56a7096d8611e9c8012102d37a8ec34aaa37ff7cf54fe4a30d81d76344c44a14c9d8a5debec202b042c4ac00000000"
}