{
  "txid": "f2933541b288fe96a9b2f93873fe0890cbfd03df9f7a227d2d620d292d965b58",
  "version": 2,
  "locktime": 834637,
  "vin": [
    {
      "txid": "1abc92c595dc56217c1794957d78ab5cf40909f4d1bfd92783a04fdf2d59e8b3",
      "vout": 1,
      "prevout": {
        "scriptpubkey": "00141159741ce0704c03c85417f9340a986d545e4077",
        "scriptpubkey_asm": "OP_0 OP_PUSHBYTES_20 1159741ce0704c03c85417f9340a986d545e4077",
        "scriptpubkey_type": "v0_p2wpkh",
        "scriptpubkey_address": "bc1qz9vhg88qwpxq8jz5zlungz5cd429usrh7nfmx3",
        "value": 4282245
      },
      "scriptsig": "",
      "scriptsig_asm": "",
      "witness": [
        "304402201ab16a5deb9a66cde615ff048078d4a24a024b73fc2227cbcace6d8b17b1d90f022048e15415d961d5ba0cf794e48f53a3b57d480d2119ce52c0b4ccc2ecf430386001",
        "0202f7eff329d48ee9fcf31707d61935e00f26f9ac5129340688aca79250613820"
      ],
      "is_coinbase": false,
      "sequence": 4294967293
    }
  ],
  "vout": [
    {
      "scriptpubkey": "00140f18e18533650c12ede9ccc82c2c91b50d87b6da",
      "scriptpubkey_asm": "OP_0 OP_PUSHBYTES_20 0f18e18533650c12ede9ccc82c2c91b50d87b6da",
      "scriptpubkey_type": "v0_p2wpkh",
      "scriptpubkey_address": "bc1qpuvwrpfnv5xp9m0fenyzcty3k5xc0dk69jwszg",
      "value": 1560000
    },
    {
      "scriptpubkey": "00144afd160ba5ab59e1e37c8c2264108b0197c0ec4c",
      "scriptpubkey_asm": "OP_0 OP_PUSHBYTES_20 4afd160ba5ab59e1e37c8c2264108b0197c0ec4c",
      "scriptpubkey_type": "v0_p2wpkh",
      "scriptpubkey_address": "bc1qft73vza94dv7rcmu3s3xgyytqxtupmzve9y4l9",
      "value": 2716500
    }
  ],
  "size": 222,
  "weight": 561,
  "fee": 5745,
  "status": {
    "confirmed": true,
    "block_height": 834638,
    "block_hash": "000000000000000000025f742c626208ac87e0b7d15054abb4a19ca2d735a54e",
    "block_time": 1710405325
  },
  "hex": "02000000000101b3e8592ddf4fa08327d9bfd1f40909f45cab787d9594177c2156dc95c592bc1a0100000000fdffffff02c0cd1700000000001600140f18e18533650c12ede9ccc82c2c91b50d87b6da54732900000000001600144afd160ba5ab59e1e37c8c2264108b0197c0ec4c0247304402201ab16a5deb9a66cde615ff048078d4a24a024b73fc2227cbcace6d8b17b1d90f022048e15415d961d5ba0cf794e48f53a3b57d480d2119ce52c0b4ccc2ecf430386001210202f7eff329d48ee9fcf31707d61935e00f26f9ac5129340688aca792506138204dbc0c00"
}