{
  "txid": "f29d78e11b4969f83bc4c3d1a9242187a38afd67181fcabcf366bae5d464c6e6",
  "version": 2,
  "locktime": 0,
  "vin": [
    {
      "txid": "30befed588ef70f635ea5ffa034519b3cb0a31ce93da4f78be1fe55677d3294d",
      "vout": 0,
      "prevout": {
        "scriptpubkey": "51204f229f5c3539b978b91c84b60683a870793641895b67c74a99a6f5857dc13544",
        "scriptpubkey_asm": "OP_PUSHNUM_1 OP_PUSHBYTES_32 4f229f5c3539b978b91c84b60683a870793641895b67c74a99a6f5857dc13544",
        "scriptpubkey_type": "v1_p2tr",
        "scriptpubkey_address": "bc1pfu3f7hp48xuh3wgusjmqdqagwpunvsvftdnuwj5e5m6c2lwpx4zqv7t63q",
        "value": 2978
      },
      "scriptsig": "",
      "scriptsig_asm": "",
      "witness": [
        "3132f57ede85e427bd16ed9546042f6f97ff93c3093df271fdcfa108aef2bbe5f36c30755dcb16c994843cf1b8a422aa1ae70c0c32f1ac30c5838d82e3212b75",
        "203cfb7e3e84e23cc3825806364bcbc44471838c6e53fb2236636c11d09c8d468cac0063036f7264010118746578742f706c61696e3b636861727365743d7574662d3800387b2270223a226272632d3230222c226f70223a227472616e73666572222c227469636b223a22696e7363222c22616d74223a22313030227d68",
        "c13cfb7e3e84e23cc3825806364bcbc44471838c6e53fb2236636c11d09c8d468c"
      ],
      "is_coinbase": false,
      "sequence": 4294967293
    }
  ],
  "vout": [
    {
      "scriptpubkey": "51209ef5a6cad3011c84c53d5a581ddc2e74bb850c410174808b77a6b42bd9389845",
      "scriptpubkey_asm": "OP_PUSHNUM_1 OP_PUSHBYTES_32 9ef5a6cad3011c84c53d5a581ddc2e74bb850c410174808b77a6b42bd9389845",
      "scriptpubkey_type": "v1_p2tr",
      "scriptpubkey_address": "bc1pnm66djknqywgf3fatfvpmhpwwjac2rzpq96gpzmh566zhkfcnpzsugd23w",
      "value": 546
    }
  ],
  "size": 323,
  "weight": 605,
  "fee": 2432,
  "status": {
    "confirmed": true,
    "block_height": 834460,
    "block_hash": "00000000000000000000484a79b643b2524bbce82e5d8a442013fa5b8905ed98",
    "block_time": 1710307468
  },
  "hex": "020000000001014d29d37756e51fbe784fda93ce310acbb3194503fa5fea35f670ef88d5febe300000000000fdffffff0122020000000000002251209ef5a6cad3011c84c53d5a581ddc2e74bb850c410174808b77a6b42bd938984503403132f57ede85e427bd16ed9546042f6f97ff93c3093df271fdcfa108aef2bbe5f36c30755dcb16c994843cf1b8a422aa1ae70c0c32f1ac30c5838d82e3212b757e203cfb7e3e84e23cc3825806364bcbc44471838c6e53fb2236636c11d09c8d468cac0063036f7264010118746578742f706c61696e3b636861727365743d7574662d3800387b2270223a226272632d3230222c226f70223a227472616e73666572222c227469636b223a22696e7363222c22616d74223a22313030227d6821c13cfb7e3e84e23cc3825806364bcbc44471838c6e53fb2236636c11d09c8d468c00000000"
}