{
  "txid": "f2aa5cc77ac7e6e8f0d98e174a57c0ac7969523aaf7e9b2514acb3222f99a84c",
  "version": 1,
  "locktime": 0,
  "vin": [
    {
      "txid": "fe7dd4ae43ec8e18614f4b718d9f18e2de73198805d0ba4a75919c0bda242279",
      "vout": 3,
      "prevout": {
        "scriptpubkey": "a914a376d3334f482ff1a67d83217f84d21c81575e0287",
        "scriptpubkey_asm": "OP_HASH160 OP_PUSHBYTES_20 a376d3334f482ff1a67d83217f84d21c81575e02 OP_EQUAL",
        "scriptpubkey_type": "p2sh",
        "scriptpubkey_address": "3GbLQvCJBdqxiSbehqSUvtD6k1xJYbDLFi",
        "value": 430000
      },
      "scriptsig": "1600144d09dede9a45dfd99d7979bdc3f323688b839b78",
      "scriptsig_asm": "OP_PUSHBYTES_22 00144d09dede9a45dfd99d7979bdc3f323688b839b78",
      "witness": [
        "304402201d5dc6f87cfa7d505e76b30eafa7e31e8562b9590a907c6496f0f63a73beca00022051744789c870ddc55bd8714fe88789f27ca618f851f4ae23e09866a999ec383601",
        "02851cad69ea2b4e6934e2ab3aaeb5e79eb5d338e873efaac09f5ee86dd74f1395"
      ],
      "is_coinbase": false,
      "sequence": 4294967280,
      "inner_redeemscript_asm": "OP_0 OP_PUSHBYTES_20 4d09dede9a45dfd99d7979bdc3f323688b839b78"
    },
    {
      "txid": "96e9d7d2b648a457a98edd8382611bacd86381c62a0c720cf7f169716584f768",
      "vout": 0,
      "prevout": {
        "scriptpubkey": "a914f467da24e33f95d0e4af17ff60099c804390aae787",
        "scriptpubkey_asm": "OP_HASH160 OP_PUSHBYTES_20 f467da24e33f95d0e4af17ff60099c804390aae7 OP_EQUAL",
        "scriptpubkey_type": "p2sh",
        "scriptpubkey_address": "3PyKD84W77P9PkDbVTKBk3HZrcezHD2unN",
        "value": 532002
      },
      "scriptsig": "16001482b019e986627dff8c2a3739c00d6e7c6a80f98e",
      "scriptsig_asm": "OP_PUSHBYTES_22 001482b019e986627dff8c2a3739c00d6e7c6a80f98e",
      "witness": [
        "3045022100b6e7310b36b28190fb75b84705ca0052d824f26913b70e0d8c799d3068d2f3dd022009bd0dfabffb631d3bb4fa83fcff890ec995c213d5fd6f2c7e1a4751a384a6c601",
        "03704ea2cb0e95f4ebf7583cdc2c030e0a7e0058b3b7a4e5d3eb4c5b78c2f4f83c"
      ],
      "is_coinbase": false,
      "sequence": 4294967280,
      "inner_redeemscript_asm": "OP_0 OP_PUSHBYTES_20 82b019e986627dff8c2a3739c00d6e7c6a80f98e"
    },
    {
      "txid": "63d5995cb97b732c521ca06b8080073f61ccaa9158e51217ec68a73321ee1b8f",
      "vout": 0,
      "prevout": {
        "scriptpubkey": "a9148210bb19058de7476101fac2bbd2595ec03358ad87",
        "scriptpubkey_asm": "OP_HASH160 OP_PUSHBYTES_20 8210bb19058de7476101fac2bbd2595ec03358ad OP_EQUAL",
        "scriptpubkey_type": "p2sh",
        "scriptpubkey_address": "3DYjoxj2HfNqZV2qUFFVTu4HFJ4oPKPUxo",
        "value": 1500000
      },
      "scriptsig": "16001418de8917e1536d07e820b23c0043b05a56726503",
      "scriptsig_asm": "OP_PUSHBYTES_22 001418de8917e1536d07e820b23c0043b05a56726503",
      "witness": [
        "304402204ccb7f9691937b19734710b12b86577d8bba03298ad2ceb8789f0776e935b08b02205555115f30b4792408e4b63295fb825ce7945fd351c67d258d47b80936d5611901",
        "02b5a055edec5a497ebebb646eef1fcdeb8501a837293b62d54df345f4ae31b40f"
      ],
      "is_coinbase": false,
      "sequence": 4294967280,
      "inner_redeemscript_asm": "OP_0 OP_PUSHBYTES_20 18de8917e1536d07e820b23c0043b05a56726503"
    },
    {
      "txid": "34f81e406211aff7ee9458a76b9fac0811964632078425553cd0b30bbd48e1fd",
      "vout": 0,
      "prevout": {
        "scriptpubkey": "a914adb1c2dfdd749188d8f0e926cc59e6e4f90da74087",
        "scriptpubkey_asm": "OP_HASH160 OP_PUSHBYTES_20 adb1c2dfdd749188d8f0e926cc59e6e4f90da740 OP_EQUAL",
        "scriptpubkey_type": "p2sh",
        "scriptpubkey_address": "3HXRmoBgU8c4L59vWaTC3FWN6MPmkgeLxB",
        "value": 30000
      },
      "scriptsig": "160014d768af7c07a218ecc8a8b80705dd379f4d4af8e2",
      "scriptsig_asm": "OP_PUSHBYTES_22 0014d768af7c07a218ecc8a8b80705dd379f4d4af8e2",
      "witness": [
        "3044022037ccffa314372d5f5c2683b0a522b25d09bc3b5869678e90513106eadc15841f02207cd89ef288348408ddde79cb5fbcdfecd2d14ef82a146de5250fb9f7ad1d32e301",
        "03a5db3635b650ea21741ee4f544190223094feb38bdfaa25cd9ae3d78f7c4025e"
      ],
      "is_coinbase": false,
      "sequence": 4294967280,
      "inner_redeemscript_asm": "OP_0 OP_PUSHBYTES_20 d768af7c07a218ecc8a8b80705dd379f4d4af8e2"
    },
    {
      "txid": "fe7dd4ae43ec8e18614f4b718d9f18e2de73198805d0ba4a75919c0bda242279",
      "vout": 4,
      "prevout": {
        "scriptpubkey": "a914a851e5638bf7c8a075b29b8af409b89a8a322fb887",
        "scriptpubkey_asm": "OP_HASH160 OP_PUSHBYTES_20 a851e5638bf7c8a075b29b8af409b89a8a322fb8 OP_EQUAL",
        "scriptpubkey_type": "p2sh",
        "scriptpubkey_address": "3H31Z1T9bvzoJjyZkErcnAj36En73fhdY9",
        "value": 575170
      },
      "scriptsig": "160014e1d3f9d194bdb53f24de6a8911115f0460afddcf",
      "scriptsig_asm": "OP_PUSHBYTES_22 0014e1d3f9d194bdb53f24de6a8911115f0460afddcf",
      "witness": [
        "304402206e0d3c8cc535136b4666af7dd044268a81e4c372ea9d92942ca314e616a0b0ee0220381c6dddc92486a0e02fd1e3b93e762f4b719f818ddee4fcabbf3962d848a8c201",
        "0303a151449273bd3cc7c1b32f39d96cf78840961d426fedc85e3ccdc2b3b4d221"
      ],
      "is_coinbase": false,
      "sequence": 4294967280,
      "inner_redeemscript_asm": "OP_0 OP_PUSHBYTES_20 e1d3f9d194bdb53f24de6a8911115f0460afddcf"
    },
    {
      "txid": "4fa2c047e13d9bd715f45ebd0b48dea36498cd0618eb496e406f4d8c62762a16",
      "vout": 0,
      "prevout": {
        "scriptpubkey": "a914c760d74d3a75d9867d1b31a64b06c010368dec2087",
        "scriptpubkey_asm": "OP_HASH160 OP_PUSHBYTES_20 c760d74d3a75d9867d1b31a64b06c010368dec20 OP_EQUAL",
        "scriptpubkey_type": "p2sh",
        "scriptpubkey_address": "3KsEQMGHXNonKuHhSBjMNPduFagh7TvSvo",
        "value": 45000
      },
      "scriptsig": "1600142afaa7b4de494a770901b3300e4994c171244a76",
      "scriptsig_asm": "OP_PUSHBYTES_22 00142afaa7b4de494a770901b3300e4994c171244a76",
      "witness": [
        "3044022008a5bcce879feaaa87bc6ec6239b0f82ba8739ef4a4ad7d5ecedfe14bb60baa80220612045804f4ed775cc362b3d43b139954e31b82e423bdfe289e924b8b49eebf501",
        "030d0650d0b22e59b21fb02acd177f0b37b653c4bd3defb13d686040fa3f1147bf"
      ],
      "is_coinbase": false,
      "sequence": 4294967280,
      "inner_redeemscript_asm": "OP_0 OP_PUSHBYTES_20 2afaa7b4de494a770901b3300e4994c171244a76"
    }
  ],
  "vout": [
    {
      "scriptpubkey": "a914423877331b30a905240c7e1f2adee4ebaa47c5f687",
      "scriptpubkey_asm": "OP_HASH160 OP_PUSHBYTES_20 423877331b30a905240c7e1f2adee4ebaa47c5f6 OP_EQUAL",
      "scriptpubkey_type": "p2sh",
      "scriptpubkey_address": "37jAAWEdJ9D9mXybRobcveioxSkt7Lkwog",
      "value": 3087434
    }
  ],
  "size": 1071,
  "weight": 2349,
  "fee": 24738,
  "status": {
    "confirmed": true,
    "block_height": 834638,
    "block_hash": "000000000000000000025f742c626208ac87e0b7d15054abb4a19ca2d735a54e",
    "block_time": 1710405325
  },
  "hex": "01000000000106792224da0b9c91754abad005881973dee2189f8d714b4f61188eec43aed47dfe03000000171600144d09dede9a45dfd99d7979bdc3f323688b839b78f0ffffff68f784657169f1f70c720c2ac68163d8ac1b618283dd8ea957a448b6d2d7e996000000001716001482b019e986627dff8c2a3739c00d6e7c6a80f98ef0ffffff8f1bee2133a768ec1712e55891aacc613f0780806ba01c522c737bb95c99d563000000001716001418de8917e1536d07e820b23c0043b05a56726503f0fffffffde148bd0bb3d03c552584073246961108ac9f6ba75894eef7af1162401ef8340000000017160014d768af7c07a218ecc8a8b80705dd379f4d4af8e2f0ffffff792224da0b9c91754abad005881973dee2189f8d714b4f61188eec43aed47dfe0400000017160014e1d3f9d194bdb53f24de6a8911115f0460afddcff0ffffff162a76628c4d6f406e49eb1806cd9864a3de480bbd5ef415d79b3de147c0a24f00000000171600142afaa7b4de494a770901b3300e4994c171244a76f0ffffff014a1c2f000000000017a914423877331b30a905240c7e1f2adee4ebaa47c5f6870247304402201d5dc6f87cfa7d505e76b30eafa7e31e8562b9590a907c6496f0f63a73beca00022051744789c870ddc55bd8714fe88789f27ca618f851f4ae23e09866a999ec3836012102851cad69ea2b4e6934e2ab3aaeb5e79eb5d338e873efaac09f5ee86dd74f139502483045022100b6e7310b36b28190fb75b84705ca0052d824f26913b70e0d8c799d3068d2f3dd022009bd0dfabffb631d3bb4fa83fcff890ec995c213d5fd6f2c7e1a4751a384a6c6012103704ea2cb0e95f4ebf7583cdc2c030e0a7e0058b3b7a4e5d3eb4c5b78c2f4f83c0247304402204ccb7f9691937b19734710b12b86577d8bba03298ad2ceb8789f0776e935b08b02205555115f30b4792408e4b63295fb825ce7945fd351c67d258d47b80936d56119012102b5a055edec5a497ebebb646eef1fcdeb8501a837293b62d54df345f4ae31b40f02473044022037ccffa314372d5f5c2683b0a522b25d09bc3b5869678e90513106eadc15841f02207cd89ef288348408ddde79cb5fbcdfecd2d14ef82a146de5250fb9f7ad1d32e3012103a5db3635b650ea21741ee4f544190223094feb38bdfaa25cd9ae3d78f7c4025e0247304402206e0d3c8cc535136b4666af7dd044268a81e4c372ea9d92942ca314e616a0b0ee0220381c6dddc92486a0e02fd1e3b93e762f4b719f818ddee4fcabbf3962d848a8c201210303a151449273bd3cc7c1b32f39d96cf78840961d426fedc85e3ccdc2b3b4d22102473044022008a5bcce879feaaa87bc6ec6239b0f82ba8739ef4a4ad7d5ecedfe14bb60baa80220612045804f4ed775cc362b3d43b139954e31b82e423bdfe289e924b8b49eebf50121030d0650d0b22e59b21fb02acd177f0b37b653c4bd3defb13d686040fa3f1147bf00000000"
}