{
  "txid": "f2acf0f4fa4c8b6c22b94033a45f3ce8160ec9aa1eaecfd86cf9a414525659ba",
  "version": 2,
  "locktime": 0,
  "vin": [
    {
      "txid": "6e9bc2dc3d2d35c62ff110268b8108fc7684bac05ade5fff51d1f517cf4891a4",
      "vout": 0,
      "prevout": {
        "scriptpubkey": "76a9149e8bd784175c5fc2e2045eb69d5ba2d1792f813388ac",
        "scriptpubkey_asm": "OP_DUP OP_HASH160 OP_PUSHBYTES_20 9e8bd784175c5fc2e2045eb69d5ba2d1792f8133 OP_EQUALVERIFY OP_CHECKSIG",
        "scriptpubkey_type": "p2pkh",
        "scriptpubkey_address": "1FTKHh8euD1Z2wwPpb3YwVgmThoBTbSqxb",
        "value": 1133093
      },
      "scriptsig": "47304402204ed40cf0c2dd03c1cbf469e12433da11f6ed21a705295fdb19a47a9d3480b3ec022076aace8d5e22ebbfc8d15628e5033af021f392de8217503b9bc47ff30f0f3c59012103c6217cad83fb35e462082838520aac00992992a11e4ef80b9424731374584a5e",
      "scriptsig_asm": "OP_PUSHBYTES_71 304402204ed40cf0c2dd03c1cbf469e12433da11f6ed21a705295fdb19a47a9d3480b3ec022076aace8d5e22ebbfc8d15628e5033af021f392de8217503b9bc47ff30f0f3c5901 OP_PUSHBYTES_33 03c6217cad83fb35e462082838520aac00992992a11e4ef80b9424731374584a5e",
      "is_coinbase": false,
      "sequence": 4294967295
    }
  ],
  "vout": [
    {
      "scriptpubkey": "a914cfdb6d9328b56e9817dd3839b4e3878c1adf65ed87",
      "scriptpubkey_asm": "OP_HASH160 OP_PUSHBYTES_20 cfdb6d9328b56e9817dd3839b4e3878c1adf65ed OP_EQUAL",
      "scriptpubkey_type": "p2sh",
      "scriptpubkey_address": "3Le4fNwyucD4qFs9dWNm8j6GPE6KpgjAtC",
      "value": 1124644
    }
  ],
  "size": 189,
  "weight": 756,
  "fee": 8449,
  "status": {
    "confirmed": true,
    "block_height": 834460,
    "block_hash": "00000000000000000000484a79b643b2524bbce82e5d8a442013fa5b8905ed98",
    "block_time": 1710307468
  },
  "hex": "0200000001a49148cf17f5d151ff5fde5ac0ba8476fc08818b2610f12fc6352d3ddcc29b6e000000006a47304402204ed40cf0c2dd03c1cbf469e12433da11f6ed21a705295fdb19a47a9d3480b3ec022076aace8d5e22ebbfc8d15628e5033af021f392de8217503b9bc47ff30f0f3c59012103c6217cad83fb35e462082838520aac00992992a11e4ef80b9424731374584a5effffffff01242911000000000017a914cfdb6d9328b56e9817dd3839b4e3878c1adf65ed8700000000"
}