{
  "txid": "f2adb41a5e5dde999750d6571a51af3c6a75db7d167decf10a25d53565d78d83",
  "version": 1,
  "locktime": 0,
  "vin": [
    {
      "txid": "41098f46441f58a7943ccfcc75ffbd399664129532d3e92d71462ed1998f353e",
      "vout": 1,
      "prevout": {
        "scriptpubkey": "00149a5cf45acfa00df89f70fe345be34cc6abbb408e",
        "scriptpubkey_asm": "OP_0 OP_PUSHBYTES_20 9a5cf45acfa00df89f70fe345be34cc6abbb408e",
        "scriptpubkey_type": "v0_p2wpkh",
        "scriptpubkey_address": "bc1qnfw0gkk05qxl38mslc69hc6vc64mksyw6zzxhg",
        "value": 52784145
      },
      "scriptsig": "",
      "scriptsig_asm": "",
      "witness": [
        "304402200b4ea99907e5e4f0d6d1a904f34b575477bfef9aeef46c81b22c5a11dd807f190220510e5112ae67c4be333661c5e74a9c1cc31944fd36ef1e602ccabbb5d03d6cff01",
        "03782c80595775eb1b564ee6b136075f90824c5f102c15884546ea590f3636584f"
      ],
      "is_coinbase": false,
      "sequence": 4294967295
    }
  ],
  "vout": [
    {
      "scriptpubkey": "0014e85005cbff83f6672b3e007b1f29c6ea4bd50265",
      "scriptpubkey_asm": "OP_0 OP_PUSHBYTES_20 e85005cbff83f6672b3e007b1f29c6ea4bd50265",
      "scriptpubkey_type": "v0_p2wpkh",
      "scriptpubkey_address": "bc1qapgqtjlls0mxw2e7qpa372wxaf9a2qn9xp0vnh",
      "value": 79208
    },
    {
      "scriptpubkey": "0020c72180f6d83ee59b14732eff1367a77d9c1ced8e430f7318b9cac4a94ad4f853",
      "scriptpubkey_asm": "OP_0 OP_PUSHBYTES_32 c72180f6d83ee59b14732eff1367a77d9c1ced8e430f7318b9cac4a94ad4f853",
      "scriptpubkey_type": "v0_p2wsh",
      "scriptpubkey_address": "bc1qcuscpakc8mjek9rn9ml3xea80kwpemvwgv8hxx9eetz2jjk5lpfsejdra9",
      "value": 323185
    },
    {
      "scriptpubkey": "001432f13d967d9f450ffebe71a25b324b47f4980b61",
      "scriptpubkey_asm": "OP_0 OP_PUSHBYTES_20 32f13d967d9f450ffebe71a25b324b47f4980b61",
      "scriptpubkey_type": "v0_p2wpkh",
      "scriptpubkey_address": "bc1qxtcnm9nanazsll47wx39kvjtgl6fszmp8tv0j4",
      "value": 1375794
    },
    {
      "scriptpubkey": "76a914c5cafc7b6675a1e866321925f81e54187a4afe8e88ac",
      "scriptpubkey_asm": "OP_DUP OP_HASH160 OP_PUSHBYTES_20 c5cafc7b6675a1e866321925f81e54187a4afe8e OP_EQUALVERIFY OP_CHECKSIG",
      "scriptpubkey_type": "p2pkh",
      "scriptpubkey_address": "1K2qHXLYBigZe51r2MJb1bzR3yZtYDgM7z",
      "value": 1302112
    },
    {
      "scriptpubkey": "001464223ea1dcd2ccfa7e293729195440271e14c69e",
      "scriptpubkey_asm": "OP_0 OP_PUSHBYTES_20 64223ea1dcd2ccfa7e293729195440271e14c69e",
      "scriptpubkey_type": "v0_p2wpkh",
      "scriptpubkey_address": "bc1qvs3ragwu6tx05l3fxu53j4zqyu0pf357wse692",
      "value": 176336
    },
    {
      "scriptpubkey": "0020c72180f6d83ee59b14732eff1367a77d9c1ced8e430f7318b9cac4a94ad4f853",
      "scriptpubkey_asm": "OP_0 OP_PUSHBYTES_32 c72180f6d83ee59b14732eff1367a77d9c1ced8e430f7318b9cac4a94ad4f853",
      "scriptpubkey_type": "v0_p2wsh",
      "scriptpubkey_address": "bc1qcuscpakc8mjek9rn9ml3xea80kwpemvwgv8hxx9eetz2jjk5lpfsejdra9",
      "value": 241793
    },
    {
      "scriptpubkey": "76a914c5cafc7b6675a1e866321925f81e54187a4afe8e88ac",
      "scriptpubkey_asm": "OP_DUP OP_HASH160 OP_PUSHBYTES_20 c5cafc7b6675a1e866321925f81e54187a4afe8e OP_EQUALVERIFY OP_CHECKSIG",
      "scriptpubkey_type": "p2pkh",
      "scriptpubkey_address": "1K2qHXLYBigZe51r2MJb1bzR3yZtYDgM7z",
      "value": 430165
    },
    {
      "scriptpubkey": "001434ac7277e8f112e8c7e850588fc4c87c5b7953e9",
      "scriptpubkey_asm": "OP_0 OP_PUSHBYTES_20 34ac7277e8f112e8c7e850588fc4c87c5b7953e9",
      "scriptpubkey_type": "v0_p2wpkh",
      "scriptpubkey_address": "bc1qxjk8yalg7yfw33lg2pvgl3xg03dhj5lfpm4h0e",
      "value": 134329
    },
    {
      "scriptpubkey": "00149a5cf45acfa00df89f70fe345be34cc6abbb408e",
      "scriptpubkey_asm": "OP_0 OP_PUSHBYTES_20 9a5cf45acfa00df89f70fe345be34cc6abbb408e",
      "scriptpubkey_type": "v0_p2wpkh",
      "scriptpubkey_address": "bc1qnfw0gkk05qxl38mslc69hc6vc64mksyw6zzxhg",
      "value": 48715170
    }
  ],
  "size": 469,
  "weight": 1549,
  "fee": 6053,
  "status": {
    "confirmed": true,
    "block_height": 834638,
    "block_hash": "000000000000000000025f742c626208ac87e0b7d15054abb4a19ca2d735a54e",
    "block_time": 1710405325
  },
  "hex": "010000000001013e358f99d12e46712de9d3329512649639bdff75cccf3c94a7581f44468f09410100000000ffffffff096835010000000000160014e85005cbff83f6672b3e007b1f29c6ea4bd5026571ee040000000000220020c72180f6d83ee59b14732eff1367a77d9c1ced8e430f7318b9cac4a94ad4f85332fe14000000000016001432f13d967d9f450ffebe71a25b324b47f4980b6160de1300000000001976a914c5cafc7b6675a1e866321925f81e54187a4afe8e88acd0b002000000000016001464223ea1dcd2ccfa7e293729195440271e14c69e81b0030000000000220020c72180f6d83ee59b14732eff1367a77d9c1ced8e430f7318b9cac4a94ad4f85355900600000000001976a914c5cafc7b6675a1e866321925f81e54187a4afe8e88acb90c02000000000016001434ac7277e8f112e8c7e850588fc4c87c5b7953e9a255e702000000001600149a5cf45acfa00df89f70fe345be34cc6abbb408e0247304402200b4ea99907e5e4f0d6d1a904f34b575477bfef9aeef46c81b22c5a11dd807f190220510e5112ae67c4be333661c5e74a9c1cc31944fd36ef1e602ccabbb5d03d6cff012103782c80595775eb1b564ee6b136075f90824c5f102c15884546ea590f3636584f00000000"
}