{
  "txid": "f2bb39ef4c826a60505ec938470b9af73d0836ae5128ef1f7f086d226cb81238",
  "version": 2,
  "locktime": 834626,
  "vin": [
    {
      "txid": "7be00a0205822856dd539ee1fb37f8e9351440af98336726fe3836cda6689c48",
      "vout": 1,
      "prevout": {
        "scriptpubkey": "0014f897b4d150c9c09ec1eb7ad2eaad217648ffc503",
        "scriptpubkey_asm": "OP_0 OP_PUSHBYTES_20 f897b4d150c9c09ec1eb7ad2eaad217648ffc503",
        "scriptpubkey_type": "v0_p2wpkh",
        "scriptpubkey_address": "bc1qlztmf52se8qfas0t0tfw4tfpwey0l3grm8dt4k",
        "value": 377779
      },
      "scriptsig": "",
      "scriptsig_asm": "",
      "witness": [
        "304402206044b64e48de472894e68064030e9cacdb61e63683a764a2ac05a5555b902a54022008996ee6335ed0f1c45ce4a80c8851527013291338f5a55b258a41e42fd74c5e01",
        "027df5cae9e921c3c98a981187b264c9ff8c066967f3a43b1947d8b9076948520d"
      ],
      "is_coinbase": false,
      "sequence": 4294967293
    }
  ],
  "vout": [
    {
      "scriptpubkey": "00145ad08484b71c80e67e29ac64db6686c47d96d78b",
      "scriptpubkey_asm": "OP_0 OP_PUSHBYTES_20 5ad08484b71c80e67e29ac64db6686c47d96d78b",
      "scriptpubkey_type": "v0_p2wpkh",
      "scriptpubkey_address": "bc1qttggfp9hrjqwvl3f43jdke5xc37ed4uthkx7wr",
      "value": 74185
    },
    {
      "scriptpubkey": "00143ed026a5728d758550859a4f8d1a9f7dcf0b601b",
      "scriptpubkey_asm": "OP_0 OP_PUSHBYTES_20 3ed026a5728d758550859a4f8d1a9f7dcf0b601b",
      "scriptpubkey_type": "v0_p2wpkh",
      "scriptpubkey_address": "bc1q8mgzdftj346c25y9nf8c6x5l0h8skcqmd4vsf6",
      "value": 301352
    }
  ],
  "size": 222,
  "weight": 561,
  "fee": 2242,
  "status": {
    "confirmed": true,
    "block_height": 834638,
    "block_hash": "000000000000000000025f742c626208ac87e0b7d15054abb4a19ca2d735a54e",
    "block_time": 1710405325
  },
  "hex": "02000000000101489c68a6cd3638fe26673398af401435e9f837fbe19e53dd56288205020ae07b0100000000fdffffff02c9210100000000001600145ad08484b71c80e67e29ac64db6686c47d96d78b28990400000000001600143ed026a5728d758550859a4f8d1a9f7dcf0b601b0247304402206044b64e48de472894e68064030e9cacdb61e63683a764a2ac05a5555b902a54022008996ee6335ed0f1c45ce4a80c8851527013291338f5a55b258a41e42fd74c5e0121027df5cae9e921c3c98a981187b264c9ff8c066967f3a43b1947d8b9076948520d42bc0c00"
}