{
  "txid": "f2c058b4eae46402ca11d3ee717125c87f469e125f14cdfd776fba2b93f5a4e9",
  "version": 2,
  "locktime": 834637,
  "vin": [
    {
      "txid": "bc1668cef466a908957ab5b2dbd31a9d402095994601df950b4e008359d04c36",
      "vout": 156,
      "prevout": {
        "scriptpubkey": "00143f2fc0d83d25c71623698ed33efbcecba389577c",
        "scriptpubkey_asm": "OP_0 OP_PUSHBYTES_20 3f2fc0d83d25c71623698ed33efbcecba389577c",
        "scriptpubkey_type": "v0_p2wpkh",
        "scriptpubkey_address": "bc1q8uhupkpayhr3vgmf3mfna77wew3cj4mufd6fv3",
        "value": 139233
      },
      "scriptsig": "",
      "scriptsig_asm": "",
      "witness": [
        "304402205c10ffe0f2f76392db70142fa11bc2de8ffc5407a2d31e0adec71c5d6fec744602207abf61d824a5e8f1fa8ba5e78f9c2140eba0582a67736c4488ddf2826091645e01",
        "02c927af3d501ecbd2d82a3ab83dd2dd68429d44332edb78576b751d77d12778c4"
      ],
      "is_coinbase": false,
      "sequence": 4294967294
    },
    {
      "txid": "159bfd0e7335153f74f892bcf59bc1be9ccdb58a43a3427f2978843233bec93a",
      "vout": 31,
      "prevout": {
        "scriptpubkey": "001422fd2c0a09662302bf9c3a68efa00d9d5a3d7cd1",
        "scriptpubkey_asm": "OP_0 OP_PUSHBYTES_20 22fd2c0a09662302bf9c3a68efa00d9d5a3d7cd1",
        "scriptpubkey_type": "v0_p2wpkh",
        "scriptpubkey_address": "bc1qyt7jczsfvc3s90uu8f5wlgqdn4dr6lx3wvdsc2",
        "value": 29107
      },
      "scriptsig": "",
      "scriptsig_asm": "",
      "witness": [
        "304402205ad59091705865f7d6701722ecac8e75bd50d662a3c594362c7ea905f67904f9022001fd01cf430b76ff02d8220bb29804322b39a9e5fa491f67a6eb85a8e86930ef01",
        "0392588ea3eea7cc8755f338f2d1e1405a626cbed2c486319a45dc55c7e02396b8"
      ],
      "is_coinbase": false,
      "sequence": 4294967294
    },
    {
      "txid": "3a8bcd105437e15991ae7887b1fc06c1a53049ac2595141b4a957c5495c57a88",
      "vout": 52,
      "prevout": {
        "scriptpubkey": "001458e3f6afb83f72ad4a505b9817c426ccf211980c",
        "scriptpubkey_asm": "OP_0 OP_PUSHBYTES_20 58e3f6afb83f72ad4a505b9817c426ccf211980c",
        "scriptpubkey_type": "v0_p2wpkh",
        "scriptpubkey_address": "bc1qtr3ldtac8ae26jjstwvp03pxeneprxqvzmy33l",
        "value": 271836
      },
      "scriptsig": "",
      "scriptsig_asm": "",
      "witness": [
        "3044022048c88d01a1f7fe7f428b9f5568adadde335f01ba839f4115165dff3afeae43a902200f4907114e3044daa33ac90e381efe13289c5e336030f19f96129791ac56d76901",
        "02666440645d02b234d320dbe85e92c00724459454a8729969a87b315938ffc1f5"
      ],
      "is_coinbase": false,
      "sequence": 4294967294
    },
    {
      "txid": "2c2d99efba6594ecebab749094ccc6252d0bb9642d928dedf9510d5cb3560280",
      "vout": 4,
      "prevout": {
        "scriptpubkey": "001443d34184314d3667c73565651fba48745018f1a6",
        "scriptpubkey_asm": "OP_0 OP_PUSHBYTES_20 43d34184314d3667c73565651fba48745018f1a6",
        "scriptpubkey_type": "v0_p2wpkh",
        "scriptpubkey_address": "bc1qg0f5rpp3f5mx03e4v4j3lwjgw3gp3udx3n7v43",
        "value": 139165
      },
      "scriptsig": "",
      "scriptsig_asm": "",
      "witness": [
        "3044022024bc191040c4ddab9370031a05ce132f5f80d83e78f8109c13c1deec3ea45b0c0220781c65047de88ac121f74d0f150b686be7e1b6efbd5d0d6623ce95c6a06d784801",
        "03ae1f2efafe293ba438b56569ac845d4d968b587315f3bb7c3d58421350d856eb"
      ],
      "is_coinbase": false,
      "sequence": 4294967294
    },
    {
      "txid": "49d44aa737eb34792599f61cf36cb5c6c1faf244977d046b4cf5bc2bfee4b824",
      "vout": 47,
      "prevout": {
        "scriptpubkey": "0014a0ca8c4c61731d17a1355e75cc6b50ce071728b9",
        "scriptpubkey_asm": "OP_0 OP_PUSHBYTES_20 a0ca8c4c61731d17a1355e75cc6b50ce071728b9",
        "scriptpubkey_type": "v0_p2wpkh",
        "scriptpubkey_address": "bc1q5r9gcnrpwvw30gf4te6uc66secr3w29erezkrd",
        "value": 139290
      },
      "scriptsig": "",
      "scriptsig_asm": "",
      "witness": [
        "3044022057e9081d329dd15b05cdbb8de16a609270af9057c66ec175c2e1f723c5702fb702204a877063760af07380b98fa7d112ff3e4d15026aba1edf523cfdabc28b2312cb01",
        "0339f10c942ae0c73d9fbf82be26159637657da5e76553a5359312b093b8fd25f6"
      ],
      "is_coinbase": false,
      "sequence": 4294967294
    }
  ],
  "vout": [
    {
      "scriptpubkey": "0014d3f76d2ffdf65c6961b71a2e2abaef029934d1c9",
      "scriptpubkey_asm": "OP_0 OP_PUSHBYTES_20 d3f76d2ffdf65c6961b71a2e2abaef029934d1c9",
      "scriptpubkey_type": "v0_p2wpkh",
      "scriptpubkey_address": "bc1q60mk6tla7ewxjcdhrghz4wh0q2vnf5wfpz30s3",
      "value": 708760
    }
  ],
  "size": 783,
  "weight": 1521,
  "fee": 9871,
  "status": {
    "confirmed": true,
    "block_height": 834638,
    "block_hash": "000000000000000000025f742c626208ac87e0b7d15054abb4a19ca2d735a54e",
    "block_time": 1710405325
  },
  "hex": "02000000000105364cd05983004e0b95df0146999520409d1ad3dbb2b57a9508a966f4ce6816bc9c00000000feffffff3ac9be33328478297f42a3438ab5cd9cbec19bf5bc92f8743f1535730efd9b151f00000000feffffff887ac595547c954a1b149525ac4930a5c106fcb18778ae9159e1375410cd8b3a3400000000feffffff800256b35c0d51f9ed8d922d64b90b2d25c6cc949074abebec9465baef992d2c0400000000feffffff24b8e4fe2bbcf54c6b047d9744f2fac1c6b56cf31cf699257934eb37a74ad4492f00000000feffffff0198d00a0000000000160014d3f76d2ffdf65c6961b71a2e2abaef029934d1c90247304402205c10ffe0f2f76392db70142fa11bc2de8ffc5407a2d31e0adec71c5d6fec744602207abf61d824a5e8f1fa8ba5e78f9c2140eba0582a67736c4488ddf2826091645e012102c927af3d501ecbd2d82a3ab83dd2dd68429d44332edb78576b751d77d12778c40247304402205ad59091705865f7d6701722ecac8e75bd50d662a3c594362c7ea905f67904f9022001fd01cf430b76ff02d8220bb29804322b39a9e5fa491f67a6eb85a8e86930ef01210392588ea3eea7cc8755f338f2d1e1405a626cbed2c486319a45dc55c7e02396b802473044022048c88d01a1f7fe7f428b9f5568adadde335f01ba839f4115165dff3afeae43a902200f4907114e3044daa33ac90e381efe13289c5e336030f19f96129791ac56d769012102666440645d02b234d320dbe85e92c00724459454a8729969a87b315938ffc1f502473044022024bc191040c4ddab9370031a05ce132f5f80d83e78f8109c13c1deec3ea45b0c0220781c65047de88ac121f74d0f150b686be7e1b6efbd5d0d6623ce95c6a06d7848012103ae1f2efafe293ba438b56569ac845d4d968b587315f3bb7c3d58421350d856eb02473044022057e9081d329dd15b05cdbb8de16a609270af9057c66ec175c2e1f723c5702fb702204a877063760af07380b98fa7d112ff3e4d15026aba1edf523cfdabc28b2312cb01210339f10c942ae0c73d9fbf82be26159637657da5e76553a5359312b093b8fd25f64dbc0c00"
}