{
  "txid": "f2c4aeb351f5329685c54e80796cde77547d0eb0b500e07a02477b6219b026fe",
  "version": 2,
  "locktime": 0,
  "vin": [
    {
      "txid": "573166c074d1f9d97e74b7e445ae9eee4071bb54005e0e28be99fe4fa5597b23",
      "vout": 25,
      "prevout": {
        "scriptpubkey": "5120a8048cc6d21180f6acbb1fa4747b9d7476b0c01755ba002d68fb10f41d5e61b0",
        "scriptpubkey_asm": "OP_PUSHNUM_1 OP_PUSHBYTES_32 a8048cc6d21180f6acbb1fa4747b9d7476b0c01755ba002d68fb10f41d5e61b0",
        "scriptpubkey_type": "v1_p2tr",
        "scriptpubkey_address": "bc1p4qzge3kjzxq0dt9mr7j8g7uaw3mtpsqh2kaqqttglvg0g827vxcqppw7vd",
        "value": 3055
      },
      "scriptsig": "",
      "scriptsig_asm": "",
      "witness": [
        "6296d9ecb8e792a8e46bb4703b331bd7d4ab4b4997f82c40267aa5da2222628c5e2261fd768215608e3d650dbc7f09369f0647902b5fdfa148414252eafa4cdc",
        "20406128c337390f7344fca4bd92b5849a5f76a97de311687af24aa7e3317cf099ac0063036f726401011e6170706c69636174696f6e2f6a736f6e3b636861727365743d7574662d38004cd37b2270223a22706f772d3230222c226f70223a226d696e74222c227469636b223a2250455045222c22616d74223a2231303030222c22736f6c7574696f6e223a22504550453a6263317070376e727a37746333726c6d6d72373773676a6b6b7561677073323971776830617261393430777a616878666b6d6e61687770717877667139703a303030303030303030303030303030303030303139393431613561653132383937363539383134343239323533333030353762306461393666336465613163353a3138393730343039313839227d68",
        "c1f1b4027b27384657c547a9d6289f3be45ec463ffc50ccbf57ef9c2d60d2b0f32"
      ],
      "is_coinbase": false,
      "sequence": 4294967295
    }
  ],
  "vout": [
    {
      "scriptpubkey": "51200fa631797888ffbd8fde82256b73a80c14503aefe8fa5abdc2edcc9b6e7dbb82",
      "scriptpubkey_asm": "OP_PUSHNUM_1 OP_PUSHBYTES_32 0fa631797888ffbd8fde82256b73a80c14503aefe8fa5abdc2edcc9b6e7dbb82",
      "scriptpubkey_type": "v1_p2tr",
      "scriptpubkey_address": "bc1pp7nrz7tc3rlmmr77sgjkkuagps29qwh0ara940wzahxfkmnahwpqxwfq9p",
      "value": 546
    }
  ],
  "size": 487,
  "weight": 769,
  "fee": 2509,
  "status": {
    "confirmed": true,
    "block_height": 834460,
    "block_hash": "00000000000000000000484a79b643b2524bbce82e5d8a442013fa5b8905ed98",
    "block_time": 1710307468
  },
  "hex": "02000000000101237b59a54ffe99be280e5e0054bb7140ee9eae45e4b7747ed9f9d174c06631571900000000ffffffff0122020000000000002251200fa631797888ffbd8fde82256b73a80c14503aefe8fa5abdc2edcc9b6e7dbb8203406296d9ecb8e792a8e46bb4703b331bd7d4ab4b4997f82c40267aa5da2222628c5e2261fd768215608e3d650dbc7f09369f0647902b5fdfa148414252eafa4cdcfd200120406128c337390f7344fca4bd92b5849a5f76a97de311687af24aa7e3317cf099ac0063036f726401011e6170706c69636174696f6e2f6a736f6e3b636861727365743d7574662d38004cd37b2270223a22706f772d3230222c226f70223a226d696e74222c227469636b223a2250455045222c22616d74223a2231303030222c22736f6c7574696f6e223a22504550453a6263317070376e727a37746333726c6d6d72373773676a6b6b7561677073323971776830617261393430777a616878666b6d6e61687770717877667139703a303030303030303030303030303030303030303139393431613561653132383937363539383134343239323533333030353762306461393666336465613163353a3138393730343039313839227d6821c1f1b4027b27384657c547a9d6289f3be45ec463ffc50ccbf57ef9c2d60d2b0f3200000000"
}