{
  "txid": "f2cced87d8f89e172229c1bab7650b87124a8f7493eb9d76c7ea49d056a07b2d",
  "version": 1,
  "locktime": 0,
  "vin": [
    {
      "txid": "8242101f9bd09461d4a8071eff46bd5c2853e3e4b1109ebc295703fc45bce8d3",
      "vout": 1,
      "prevout": {
        "scriptpubkey": "001448721845d8d8ad552aecdd259053f9fcc1f10a72",
        "scriptpubkey_asm": "OP_0 OP_PUSHBYTES_20 48721845d8d8ad552aecdd259053f9fcc1f10a72",
        "scriptpubkey_type": "v0_p2wpkh",
        "scriptpubkey_address": "bc1qfpeps3wcmzk422hvm5jeq5lelnqlzznjwyfy69",
        "value": 5102742271
      },
      "scriptsig": "",
      "scriptsig_asm": "",
      "witness": [
        "3045022100f98c486b5d45b2be3de85fef631c61ef36e953a27064f33630c36e0193b0eff40220704bd31877a995d56f1c5da430d9944bb6bbaddf733c6675e9679f48ddf087c801",
        "02dc8683704adb6dbea6d1e0bb392ab45b57dcc9c5f919b7d59389fdd9fb096f25"
      ],
      "is_coinbase": false,
      "sequence": 4294967295
    }
  ],
  "vout": [
    {
      "scriptpubkey": "0014bed2123d213810c99a9d37071a9c8cc3f504ab24",
      "scriptpubkey_asm": "OP_0 OP_PUSHBYTES_20 bed2123d213810c99a9d37071a9c8cc3f504ab24",
      "scriptpubkey_type": "v0_p2wpkh",
      "scriptpubkey_address": "bc1qhmfpy0fp8qgvnx5axur348yvc06sf2eyvmfa68",
      "value": 4200
    },
    {
      "scriptpubkey": "001448721845d8d8ad552aecdd259053f9fcc1f10a72",
      "scriptpubkey_asm": "OP_0 OP_PUSHBYTES_20 48721845d8d8ad552aecdd259053f9fcc1f10a72",
      "scriptpubkey_type": "v0_p2wpkh",
      "scriptpubkey_address": "bc1qfpeps3wcmzk422hvm5jeq5lelnqlzznjwyfy69",
      "value": 5102735364
    }
  ],
  "size": 223,
  "weight": 562,
  "fee": 2707,
  "status": {
    "confirmed": true,
    "block_height": 834638,
    "block_hash": "000000000000000000025f742c626208ac87e0b7d15054abb4a19ca2d735a54e",
    "block_time": 1710405325
  },
  "hex": "01000000000101d3e8bc45fc035729bc9e10b1e4e353285cbd46ff1e07a8d46194d09b1f1042820100000000ffffffff026810000000000000160014bed2123d213810c99a9d37071a9c8cc3f504ab24049025300100000016001448721845d8d8ad552aecdd259053f9fcc1f10a7202483045022100f98c486b5d45b2be3de85fef631c61ef36e953a27064f33630c36e0193b0eff40220704bd31877a995d56f1c5da430d9944bb6bbaddf733c6675e9679f48ddf087c8012102dc8683704adb6dbea6d1e0bb392ab45b57dcc9c5f919b7d59389fdd9fb096f2500000000"
}