{
  "txid": "f2de32e39ca853add28011ef802f336e546789ea8abb093c44d0b79e2783315a",
  "version": 1,
  "locktime": 0,
  "vin": [
    {
      "txid": "5490c8f8648cb9b5fe72daa7198b8fb79702e5277e39026cfacbe047a55b5cba",
      "vout": 1,
      "prevout": {
        "scriptpubkey": "0020701a8d401c84fb13e6baf169d59684e17abd9fa216c8cc5b9fc63d622ff8c58d",
        "scriptpubkey_asm": "OP_0 OP_PUSHBYTES_32 701a8d401c84fb13e6baf169d59684e17abd9fa216c8cc5b9fc63d622ff8c58d",
        "scriptpubkey_type": "v0_p2wsh",
        "scriptpubkey_address": "bc1qwqdg6squsna38e46795at95yu9atm8azzmyvckulcc7kytlcckxswvvzej",
        "value": 2434986
      },
      "scriptsig": "",
      "scriptsig_asm": "",
      "witness": [
        "",
        "3044022015cabcad3b4f0b9a06ef8c3734da4eded69c2b2bf7ff2afb94433eaea73a4b1b02206972552b023a307c056d4dc9bbd2c1ccc92d90909afcbe5010d8a61e14e76ea901",
        "304402207dffbd4428289a0cfa1eca03202a0acb6eb235f2d9c2b46900f81f045fe8ae2d0220388f7976eedc98c30e560dff4d9ea752164ac6271d53fc3e58c436b341fd9cba01",
        "52210375e00eb72e29da82b89367947f29ef34afb75e8654f6ea368e0acdfd92976b7c2103a1b26313f430c4b15bb1fdce663207659d8cac749a0e53d70eff01874496feff2103c96d495bfdd5ba4145e3e046fee45e84a8a48ad05bd8dbb395c011a32cf9f88053ae"
      ],
      "is_coinbase": false,
      "sequence": 4294967295,
      "inner_witnessscript_asm": "OP_PUSHNUM_2 OP_PUSHBYTES_33 0375e00eb72e29da82b89367947f29ef34afb75e8654f6ea368e0acdfd92976b7c OP_PUSHBYTES_33 03a1b26313f430c4b15bb1fdce663207659d8cac749a0e53d70eff01874496feff OP_PUSHBYTES_33 03c96d495bfdd5ba4145e3e046fee45e84a8a48ad05bd8dbb395c011a32cf9f880 OP_PUSHNUM_3 OP_CHECKMULTISIG"
    },
    {
      "txid": "e030a1e9122a189e16726d8837c636244d1e6261e28dfe16b6c83dd5d7efd2b3",
      "vout": 1,
      "prevout": {
        "scriptpubkey": "0020701a8d401c84fb13e6baf169d59684e17abd9fa216c8cc5b9fc63d622ff8c58d",
        "scriptpubkey_asm": "OP_0 OP_PUSHBYTES_32 701a8d401c84fb13e6baf169d59684e17abd9fa216c8cc5b9fc63d622ff8c58d",
        "scriptpubkey_type": "v0_p2wsh",
        "scriptpubkey_address": "bc1qwqdg6squsna38e46795at95yu9atm8azzmyvckulcc7kytlcckxswvvzej",
        "value": 1378820
      },
      "scriptsig": "",
      "scriptsig_asm": "",
      "witness": [
        "",
        "3044022052e26672b57abe8d38f39ce08b8d2625ab91e65ffd0ca2fb6779c264e1351930022027777aa89c899ef68fbe6465793e5714ecbd325084fe53f0bddfdd91713a9f8d01",
        "304402207a509bc4c602e16d86100f587d554be41ebdd42dd19fb98a934de8bba1a2bb740220501a1b7562c6b7db2d891b6bd5376027c328842691903c3c9492d8d7cbe29f8801",
        "52210375e00eb72e29da82b89367947f29ef34afb75e8654f6ea368e0acdfd92976b7c2103a1b26313f430c4b15bb1fdce663207659d8cac749a0e53d70eff01874496feff2103c96d495bfdd5ba4145e3e046fee45e84a8a48ad05bd8dbb395c011a32cf9f88053ae"
      ],
      "is_coinbase": false,
      "sequence": 4294967295,
      "inner_witnessscript_asm": "OP_PUSHNUM_2 OP_PUSHBYTES_33 0375e00eb72e29da82b89367947f29ef34afb75e8654f6ea368e0acdfd92976b7c OP_PUSHBYTES_33 03a1b26313f430c4b15bb1fdce663207659d8cac749a0e53d70eff01874496feff OP_PUSHBYTES_33 03c96d495bfdd5ba4145e3e046fee45e84a8a48ad05bd8dbb395c011a32cf9f880 OP_PUSHNUM_3 OP_CHECKMULTISIG"
    },
    {
      "txid": "3eca3ab873031c57c50952b8b430c9037f2c0d1fe08df7e104cc2edee116895d",
      "vout": 1,
      "prevout": {
        "scriptpubkey": "0020701a8d401c84fb13e6baf169d59684e17abd9fa216c8cc5b9fc63d622ff8c58d",
        "scriptpubkey_asm": "OP_0 OP_PUSHBYTES_32 701a8d401c84fb13e6baf169d59684e17abd9fa216c8cc5b9fc63d622ff8c58d",
        "scriptpubkey_type": "v0_p2wsh",
        "scriptpubkey_address": "bc1qwqdg6squsna38e46795at95yu9atm8azzmyvckulcc7kytlcckxswvvzej",
        "value": 998127
      },
      "scriptsig": "",
      "scriptsig_asm": "",
      "witness": [
        "",
        "30440220048b31ecacc26d89c766a8dea0445ba865dfcec2f931533693c47b37e2122d550220197a9b1bc337ce85c065211ecf677235648d2b715b3c74699ebde1642f3bff9201",
        "304402200394c2a749d885a974b95a7fe038c7cb1d74cede50141cec39dcb20226e6acda0220639130f3bb474dd4f9a45f9ba610fd8658285a72447b74fe03f1df03f4e1d7fc01",
        "52210375e00eb72e29da82b89367947f29ef34afb75e8654f6ea368e0acdfd92976b7c2103a1b26313f430c4b15bb1fdce663207659d8cac749a0e53d70eff01874496feff2103c96d495bfdd5ba4145e3e046fee45e84a8a48ad05bd8dbb395c011a32cf9f88053ae"
      ],
      "is_coinbase": false,
      "sequence": 4294967295,
      "inner_witnessscript_asm": "OP_PUSHNUM_2 OP_PUSHBYTES_33 0375e00eb72e29da82b89367947f29ef34afb75e8654f6ea368e0acdfd92976b7c OP_PUSHBYTES_33 03a1b26313f430c4b15bb1fdce663207659d8cac749a0e53d70eff01874496feff OP_PUSHBYTES_33 03c96d495bfdd5ba4145e3e046fee45e84a8a48ad05bd8dbb395c011a32cf9f880 OP_PUSHNUM_3 OP_CHECKMULTISIG"
    },
    {
      "txid": "ff0903206e0e7287da8f0d4c720df1acf96f7978fba6e22c43d80217aba51c43",
      "vout": 1,
      "prevout": {
        "scriptpubkey": "0020701a8d401c84fb13e6baf169d59684e17abd9fa216c8cc5b9fc63d622ff8c58d",
        "scriptpubkey_asm": "OP_0 OP_PUSHBYTES_32 701a8d401c84fb13e6baf169d59684e17abd9fa216c8cc5b9fc63d622ff8c58d",
        "scriptpubkey_type": "v0_p2wsh",
        "scriptpubkey_address": "bc1qwqdg6squsna38e46795at95yu9atm8azzmyvckulcc7kytlcckxswvvzej",
        "value": 417801
      },
      "scriptsig": "",
      "scriptsig_asm": "",
      "witness": [
        "",
        "304402203073a3c4ad82d832e5fbc15aea81301b9428ba68e1536ed5033f18e0b332a0450220680b4a68e63178efc4e14ed1c4a399b7bce09ce1ccd2d5f4a1eb8350b4e1334701",
        "3044022035634ef58935a1c28a4db1949a6c8de6f8f12da9bbcd341461f05c5679e3dc0002203e23430b1ee99bc232a13c18598abf178b96339bcf9d706cc3f759cc8705e94701",
        "52210375e00eb72e29da82b89367947f29ef34afb75e8654f6ea368e0acdfd92976b7c2103a1b26313f430c4b15bb1fdce663207659d8cac749a0e53d70eff01874496feff2103c96d495bfdd5ba4145e3e046fee45e84a8a48ad05bd8dbb395c011a32cf9f88053ae"
      ],
      "is_coinbase": false,
      "sequence": 4294967295,
      "inner_witnessscript_asm": "OP_PUSHNUM_2 OP_PUSHBYTES_33 0375e00eb72e29da82b89367947f29ef34afb75e8654f6ea368e0acdfd92976b7c OP_PUSHBYTES_33 03a1b26313f430c4b15bb1fdce663207659d8cac749a0e53d70eff01874496feff OP_PUSHBYTES_33 03c96d495bfdd5ba4145e3e046fee45e84a8a48ad05bd8dbb395c011a32cf9f880 OP_PUSHNUM_3 OP_CHECKMULTISIG"
    },
    {
      "txid": "946a6feec7b689fa91f1e677388a47545ccb5ce10bbfe4186ddaceec51c0d880",
      "vout": 1,
      "prevout": {
        "scriptpubkey": "0020701a8d401c84fb13e6baf169d59684e17abd9fa216c8cc5b9fc63d622ff8c58d",
        "scriptpubkey_asm": "OP_0 OP_PUSHBYTES_32 701a8d401c84fb13e6baf169d59684e17abd9fa216c8cc5b9fc63d622ff8c58d",
        "scriptpubkey_type": "v0_p2wsh",
        "scriptpubkey_address": "bc1qwqdg6squsna38e46795at95yu9atm8azzmyvckulcc7kytlcckxswvvzej",
        "value": 374800
      },
      "scriptsig": "",
      "scriptsig_asm": "",
      "witness": [
        "",
        "304402207f4fd7ea587e8fba0b8ab33a88bb2ef9396eca798214e337d548143a939129ad02206fec28ad8cd4b35b27504739a509c69dc9e02ce9bc1aae5d1574ce51762f83a501",
        "304402206399aa19b5ced8021a9967e9a04be29ab9ac10680dfb590042ccb73f2356a93a0220231bea2f1d6681fca4b31cc321b61887fd4159bb86cb520ea74a36935ed7e25e01",
        "52210375e00eb72e29da82b89367947f29ef34afb75e8654f6ea368e0acdfd92976b7c2103a1b26313f430c4b15bb1fdce663207659d8cac749a0e53d70eff01874496feff2103c96d495bfdd5ba4145e3e046fee45e84a8a48ad05bd8dbb395c011a32cf9f88053ae"
      ],
      "is_coinbase": false,
      "sequence": 4294967295,
      "inner_witnessscript_asm": "OP_PUSHNUM_2 OP_PUSHBYTES_33 0375e00eb72e29da82b89367947f29ef34afb75e8654f6ea368e0acdfd92976b7c OP_PUSHBYTES_33 03a1b26313f430c4b15bb1fdce663207659d8cac749a0e53d70eff01874496feff OP_PUSHBYTES_33 03c96d495bfdd5ba4145e3e046fee45e84a8a48ad05bd8dbb395c011a32cf9f880 OP_PUSHNUM_3 OP_CHECKMULTISIG"
    }
  ],
  "vout": [
    {
      "scriptpubkey": "76a914521c94b608dc8357a9cf15a651b6d4ca4f64d88e88ac",
      "scriptpubkey_asm": "OP_DUP OP_HASH160 OP_PUSHBYTES_20 521c94b608dc8357a9cf15a651b6d4ca4f64d88e OP_EQUALVERIFY OP_CHECKSIG",
      "scriptpubkey_type": "p2pkh",
      "scriptpubkey_address": "18VAeZq6tNSqPZBPU2SXYsVxhJCUGbt86p",
      "value": 5300000
    },
    {
      "scriptpubkey": "0020701a8d401c84fb13e6baf169d59684e17abd9fa216c8cc5b9fc63d622ff8c58d",
      "scriptpubkey_asm": "OP_0 OP_PUSHBYTES_32 701a8d401c84fb13e6baf169d59684e17abd9fa216c8cc5b9fc63d622ff8c58d",
      "scriptpubkey_type": "v0_p2wsh",
      "scriptpubkey_address": "bc1qwqdg6squsna38e46795at95yu9atm8azzmyvckulcc7kytlcckxswvvzej",
      "value": 211814
    }
  ],
  "size": 1554,
  "weight": 2430,
  "fee": 92720,
  "status": {
    "confirmed": true,
    "block_height": 834638,
    "block_hash": "000000000000000000025f742c626208ac87e0b7d15054abb4a19ca2d735a54e",
    "block_time": 1710405325
  },
  "hex": "01000000000105ba5c5ba547e0cbfa6c02397e27e50297b78f8b19a7da72feb5b98c64f8c890540100000000ffffffffb3d2efd7d53dc8b616fe8de261621e4d2436c637886d72169e182a12e9a130e00100000000ffffffff5d8916e1de2ecc04e1f78de01f0d2c7f03c930b4b85209c5571c0373b83aca3e0100000000ffffffff431ca5ab1702d8432ce2a6fb78796ff9acf10d724c0d8fda87720e6e200309ff0100000000ffffffff80d8c051ecceda6d18e4bf0be15ccb5c54478a3877e6f191fa89b6c7ee6f6a940100000000ffffffff0220df5000000000001976a914521c94b608dc8357a9cf15a651b6d4ca4f64d88e88ac663b030000000000220020701a8d401c84fb13e6baf169d59684e17abd9fa216c8cc5b9fc63d622ff8c58d0400473044022015cabcad3b4f0b9a06ef8c3734da4eded69c2b2bf7ff2afb94433eaea73a4b1b02206972552b023a307c056d4dc9bbd2c1ccc92d90909afcbe5010d8a61e14e76ea90147304402207dffbd4428289a0cfa1eca03202a0acb6eb235f2d9c2b46900f81f045fe8ae2d0220388f7976eedc98c30e560dff4d9ea752164ac6271d53fc3e58c436b341fd9cba016952210375e00eb72e29da82b89367947f29ef34afb75e8654f6ea368e0acdfd92976b7c2103a1b26313f430c4b15bb1fdce663207659d8cac749a0e53d70eff01874496feff2103c96d495bfdd5ba4145e3e046fee45e84a8a48ad05bd8dbb395c011a32cf9f88053ae0400473044022052e26672b57abe8d38f39ce08b8d2625ab91e65ffd0ca2fb6779c264e1351930022027777aa89c899ef68fbe6465793e5714ecbd325084fe53f0bddfdd91713a9f8d0147304402207a509bc4c602e16d86100f587d554be41ebdd42dd19fb98a934de8bba1a2bb740220501a1b7562c6b7db2d891b6bd5376027c328842691903c3c9492d8d7cbe29f88016952210375e00eb72e29da82b89367947f29ef34afb75e8654f6ea368e0acdfd92976b7c2103a1b26313f430c4b15bb1fdce663207659d8cac749a0e53d70eff01874496feff2103c96d495bfdd5ba4145e3e046fee45e84a8a48ad05bd8dbb395c011a32cf9f88053ae04004730440220048b31ecacc26d89c766a8dea0445ba865dfcec2f931533693c47b37e2122d550220197a9b1bc337ce85c065211ecf677235648d2b715b3c74699ebde1642f3bff920147304402200394c2a749d885a974b95a7fe038c7cb1d74cede50141cec39dcb20226e6acda0220639130f3bb474dd4f9a45f9ba610fd8658285a72447b74fe03f1df03f4e1d7fc016952210375e00eb72e29da82b89367947f29ef34afb75e8654f6ea368e0acdfd92976b7c2103a1b26313f430c4b15bb1fdce663207659d8cac749a0e53d70eff01874496feff2103c96d495bfdd5ba4145e3e046fee45e84a8a48ad05bd8dbb395c011a32cf9f88053ae040047304402203073a3c4ad82d832e5fbc15aea81301b9428ba68e1536ed5033f18e0b332a0450220680b4a68e63178efc4e14ed1c4a399b7bce09ce1ccd2d5f4a1eb8350b4e1334701473044022035634ef58935a1c28a4db1949a6c8de6f8f12da9bbcd341461f05c5679e3dc0002203e23430b1ee99bc232a13c18598abf178b96339bcf9d706cc3f759cc8705e947016952210375e00eb72e29da82b89367947f29ef34afb75e8654f6ea368e0acdfd92976b7c2103a1b26313f430c4b15bb1fdce663207659d8cac749a0e53d70eff01874496feff2103c96d495bfdd5ba4145e3e046fee45e84a8a48ad05bd8dbb395c011a32cf9f88053ae040047304402207f4fd7ea587e8fba0b8ab33a88bb2ef9396eca798214e337d548143a939129ad02206fec28ad8cd4b35b27504739a509c69dc9e02ce9bc1aae5d1574ce51762f83a50147304402206399aa19b5ced8021a9967e9a04be29ab9ac10680dfb590042ccb73f2356a93a0220231bea2f1d6681fca4b31cc321b61887fd4159bb86cb520ea74a36935ed7e25e016952210375e00eb72e29da82b89367947f29ef34afb75e8654f6ea368e0acdfd92976b7c2103a1b26313f430c4b15bb1fdce663207659d8cac749a0e53d70eff01874496feff2103c96d495bfdd5ba4145e3e046fee45e84a8a48ad05bd8dbb395c011a32cf9f88053ae00000000"
}