{
  "txid": "f30782dc627110812424f991f5d6df1ca14af401a6cc1896addafd74815ca502",
  "version": 2,
  "locktime": 0,
  "vin": [
    {
      "txid": "06d8d702cb769a21f49fdbfcbd70618fbdd80c94e50e81b1886994360b25e067",
      "vout": 4,
      "prevout": {
        "scriptpubkey": "51204026fcbff21c72b3806de130cc23c488418a05c81f604fe2bb0cafe781467138",
        "scriptpubkey_asm": "OP_PUSHNUM_1 OP_PUSHBYTES_32 4026fcbff21c72b3806de130cc23c488418a05c81f604fe2bb0cafe781467138",
        "scriptpubkey_type": "v1_p2tr",
        "scriptpubkey_address": "bc1pgqn0e0ljr3et8qrduycvcg7y3pqc5pwgrasylc4mpjh70q2xwyuqfqql9n",
        "value": 600
      },
      "scriptsig": "",
      "scriptsig_asm": "",
      "witness": [
        "cab21402e80d296b30243de0e7088b814fffc7eb23219715f5eba384ff0fa28aa7466f1e728c561b5fe46a008399bde1eeadb907b10a718eff2f57500b51cfb2"
      ],
      "is_coinbase": false,
      "sequence": 4294967295
    },
    {
      "txid": "d13d1b0282a9dbaaa7ae0a35d38644f12c2182bdd01a67e248b628384b5b37ab",
      "vout": 5,
      "prevout": {
        "scriptpubkey": "51204026fcbff21c72b3806de130cc23c488418a05c81f604fe2bb0cafe781467138",
        "scriptpubkey_asm": "OP_PUSHNUM_1 OP_PUSHBYTES_32 4026fcbff21c72b3806de130cc23c488418a05c81f604fe2bb0cafe781467138",
        "scriptpubkey_type": "v1_p2tr",
        "scriptpubkey_address": "bc1pgqn0e0ljr3et8qrduycvcg7y3pqc5pwgrasylc4mpjh70q2xwyuqfqql9n",
        "value": 600
      },
      "scriptsig": "",
      "scriptsig_asm": "",
      "witness": [
        "61e590097f83240c16a476f3095518d741563aa13da42a9a59d0648da34a99e070d5c353f5fa89f898b6828c5a4ab742d43d804821449d04602430b40661ea6a"
      ],
      "is_coinbase": false,
      "sequence": 4294967295
    },
    {
      "txid": "3d98fcb8852e74c34bd9068678b21379b7c0b5b8887d48d152b9a8eb91945bca",
      "vout": 5,
      "prevout": {
        "scriptpubkey": "51204026fcbff21c72b3806de130cc23c488418a05c81f604fe2bb0cafe781467138",
        "scriptpubkey_asm": "OP_PUSHNUM_1 OP_PUSHBYTES_32 4026fcbff21c72b3806de130cc23c488418a05c81f604fe2bb0cafe781467138",
        "scriptpubkey_type": "v1_p2tr",
        "scriptpubkey_address": "bc1pgqn0e0ljr3et8qrduycvcg7y3pqc5pwgrasylc4mpjh70q2xwyuqfqql9n",
        "value": 600
      },
      "scriptsig": "",
      "scriptsig_asm": "",
      "witness": [
        "12d4cb473d6a764beb39c75988ae730bd1f19297cd017b4c5d849fe4dc830bece91a208b2c29970266eb7c7a3f73b2061a1ddc871085549168e51de3da3b4e59"
      ],
      "is_coinbase": false,
      "sequence": 4294967295
    },
    {
      "txid": "6d59d9ed44ca8a283dba39dac7b6881d11418d34586cbe139a5b88fa30566e5d",
      "vout": 0,
      "prevout": {
        "scriptpubkey": "512019a468f9f20b5790e8e0c72d6fb725488c2bcd2460ca1a47bab69121efc7a82e",
        "scriptpubkey_asm": "OP_PUSHNUM_1 OP_PUSHBYTES_32 19a468f9f20b5790e8e0c72d6fb725488c2bcd2460ca1a47bab69121efc7a82e",
        "scriptpubkey_type": "v1_p2tr",
        "scriptpubkey_address": "bc1prxjx370jpdtep68qcukklde9fzxzhnfyvr9p53a6k6gjrm784qhqkdulm7",
        "value": 1000
      },
      "scriptsig": "",
      "scriptsig_asm": "",
      "witness": [
        "9b218f92a72a7c1b6e3c80112008d36b8d6433e07efdb0aed65497ea2bfbf83ded9311390d5279ce2161730403f065e930d60bc76d2a012eaff688f60255ee7483"
      ],
      "is_coinbase": false,
      "sequence": 4294967295
    },
    {
      "txid": "8400112a8a7acd195db428910d636c331588e8f7e3267c8e0e203042a7060ae6",
      "vout": 0,
      "prevout": {
        "scriptpubkey": "5120fb8c454eb0d66d06b5689dc9845addcb45c09adb75e4557869a636d9ec74554c",
        "scriptpubkey_asm": "OP_PUSHNUM_1 OP_PUSHBYTES_32 fb8c454eb0d66d06b5689dc9845addcb45c09adb75e4557869a636d9ec74554c",
        "scriptpubkey_type": "v1_p2tr",
        "scriptpubkey_address": "bc1plwxy2n4s6eksddtgnhycgkkaedzupxkmwhj927rf5cmdnmr524xqv4qwd0",
        "value": 1000
      },
      "scriptsig": "",
      "scriptsig_asm": "",
      "witness": [
        "368b81b3416456806002fa3846be7c4a6d9977ce7b9efb4593d823e55ea5efa44773378ec6926e133045d4da5c9f488536f4bda82ea576bda65fdcfd7959466183"
      ],
      "is_coinbase": false,
      "sequence": 4294967295
    },
    {
      "txid": "d13d1b0282a9dbaaa7ae0a35d38644f12c2182bdd01a67e248b628384b5b37ab",
      "vout": 6,
      "prevout": {
        "scriptpubkey": "51204026fcbff21c72b3806de130cc23c488418a05c81f604fe2bb0cafe781467138",
        "scriptpubkey_asm": "OP_PUSHNUM_1 OP_PUSHBYTES_32 4026fcbff21c72b3806de130cc23c488418a05c81f604fe2bb0cafe781467138",
        "scriptpubkey_type": "v1_p2tr",
        "scriptpubkey_address": "bc1pgqn0e0ljr3et8qrduycvcg7y3pqc5pwgrasylc4mpjh70q2xwyuqfqql9n",
        "value": 2500407
      },
      "scriptsig": "",
      "scriptsig_asm": "",
      "witness": [
        "796baac90e64412ea69ba1e75a736f4e28fa10d77134e5ca254a633b7a35d75f6da0500c3c89e3186cba590c3186e8a8b036b69eb77f577912b60b85693ce146"
      ],
      "is_coinbase": false,
      "sequence": 4294967295
    }
  ],
  "vout": [
    {
      "scriptpubkey": "51204026fcbff21c72b3806de130cc23c488418a05c81f604fe2bb0cafe781467138",
      "scriptpubkey_asm": "OP_PUSHNUM_1 OP_PUSHBYTES_32 4026fcbff21c72b3806de130cc23c488418a05c81f604fe2bb0cafe781467138",
      "scriptpubkey_type": "v1_p2tr",
      "scriptpubkey_address": "bc1pgqn0e0ljr3et8qrduycvcg7y3pqc5pwgrasylc4mpjh70q2xwyuqfqql9n",
      "value": 1800
    },
    {
      "scriptpubkey": "51204026fcbff21c72b3806de130cc23c488418a05c81f604fe2bb0cafe781467138",
      "scriptpubkey_asm": "OP_PUSHNUM_1 OP_PUSHBYTES_32 4026fcbff21c72b3806de130cc23c488418a05c81f604fe2bb0cafe781467138",
      "scriptpubkey_type": "v1_p2tr",
      "scriptpubkey_address": "bc1pgqn0e0ljr3et8qrduycvcg7y3pqc5pwgrasylc4mpjh70q2xwyuqfqql9n",
      "value": 1000
    },
    {
      "scriptpubkey": "51204026fcbff21c72b3806de130cc23c488418a05c81f604fe2bb0cafe781467138",
      "scriptpubkey_asm": "OP_PUSHNUM_1 OP_PUSHBYTES_32 4026fcbff21c72b3806de130cc23c488418a05c81f604fe2bb0cafe781467138",
      "scriptpubkey_type": "v1_p2tr",
      "scriptpubkey_address": "bc1pgqn0e0ljr3et8qrduycvcg7y3pqc5pwgrasylc4mpjh70q2xwyuqfqql9n",
      "value": 1000
    },
    {
      "scriptpubkey": "a9148edd9ad780185e515c1b80fb90adb5c47ffc3ac287",
      "scriptpubkey_asm": "OP_HASH160 OP_PUSHBYTES_20 8edd9ad780185e515c1b80fb90adb5c47ffc3ac2 OP_EQUAL",
      "scriptpubkey_type": "p2sh",
      "scriptpubkey_address": "3EiRMA9v6ZJQwU5vGsExY3jCtC3AmbNBkB",
      "value": 26472
    },
    {
      "scriptpubkey": "5120fb8c454eb0d66d06b5689dc9845addcb45c09adb75e4557869a636d9ec74554c",
      "scriptpubkey_asm": "OP_PUSHNUM_1 OP_PUSHBYTES_32 fb8c454eb0d66d06b5689dc9845addcb45c09adb75e4557869a636d9ec74554c",
      "scriptpubkey_type": "v1_p2tr",
      "scriptpubkey_address": "bc1plwxy2n4s6eksddtgnhycgkkaedzupxkmwhj927rf5cmdnmr524xqv4qwd0",
      "value": 29855
    },
    {
      "scriptpubkey": "a914ea6b832a05c6ca578baa3836f3f25553d41068a587",
      "scriptpubkey_asm": "OP_HASH160 OP_PUSHBYTES_20 ea6b832a05c6ca578baa3836f3f25553d41068a5 OP_EQUAL",
      "scriptpubkey_type": "p2sh",
      "scriptpubkey_address": "3P4WqXDbSLRhzo2H6MT6YFbvBKBDPLbVtQ",
      "value": 1365
    },
    {
      "scriptpubkey": "51204026fcbff21c72b3806de130cc23c488418a05c81f604fe2bb0cafe781467138",
      "scriptpubkey_asm": "OP_PUSHNUM_1 OP_PUSHBYTES_32 4026fcbff21c72b3806de130cc23c488418a05c81f604fe2bb0cafe781467138",
      "scriptpubkey_type": "v1_p2tr",
      "scriptpubkey_address": "bc1pgqn0e0ljr3et8qrduycvcg7y3pqc5pwgrasylc4mpjh70q2xwyuqfqql9n",
      "value": 600
    },
    {
      "scriptpubkey": "51204026fcbff21c72b3806de130cc23c488418a05c81f604fe2bb0cafe781467138",
      "scriptpubkey_asm": "OP_PUSHNUM_1 OP_PUSHBYTES_32 4026fcbff21c72b3806de130cc23c488418a05c81f604fe2bb0cafe781467138",
      "scriptpubkey_type": "v1_p2tr",
      "scriptpubkey_address": "bc1pgqn0e0ljr3et8qrduycvcg7y3pqc5pwgrasylc4mpjh70q2xwyuqfqql9n",
      "value": 600
    },
    {
      "scriptpubkey": "51204026fcbff21c72b3806de130cc23c488418a05c81f604fe2bb0cafe781467138",
      "scriptpubkey_asm": "OP_PUSHNUM_1 OP_PUSHBYTES_32 4026fcbff21c72b3806de130cc23c488418a05c81f604fe2bb0cafe781467138",
      "scriptpubkey_type": "v1_p2tr",
      "scriptpubkey_address": "bc1pgqn0e0ljr3et8qrduycvcg7y3pqc5pwgrasylc4mpjh70q2xwyuqfqql9n",
      "value": 600
    },
    {
      "scriptpubkey": "51204026fcbff21c72b3806de130cc23c488418a05c81f604fe2bb0cafe781467138",
      "scriptpubkey_asm": "OP_PUSHNUM_1 OP_PUSHBYTES_32 4026fcbff21c72b3806de130cc23c488418a05c81f604fe2bb0cafe781467138",
      "scriptpubkey_type": "v1_p2tr",
      "scriptpubkey_address": "bc1pgqn0e0ljr3et8qrduycvcg7y3pqc5pwgrasylc4mpjh70q2xwyuqfqql9n",
      "value": 2427145
    }
  ],
  "size": 1064,
  "weight": 3056,
  "fee": 13770,
  "status": {
    "confirmed": true,
    "block_height": 834638,
    "block_hash": "000000000000000000025f742c626208ac87e0b7d15054abb4a19ca2d735a54e",
    "block_time": 1710405325
  },
  "hex": "0200000000010667e0250b36946988b1810ee5940cd8bd8f6170bdfcdb9ff4219a76cb02d7d8060400000000ffffffffab375b4b3828b648e2671ad0bd82212cf14486d3350aaea7aadba982021b3dd10500000000ffffffffca5b9491eba8b952d1487d88b8b5c0b77913b2788606d94bc3742e85b8fc983d0500000000ffffffff5d6e5630fa885b9a13be6c58348d41111d88b6c7da39ba3d288aca44edd9596d0000000000ffffffffe60a06a74230200e8e7c26e3f7e88815336c630d9128b45d19cd7a8a2a1100840000000000ffffffffab375b4b3828b648e2671ad0bd82212cf14486d3350aaea7aadba982021b3dd10600000000ffffffff0a08070000000000002251204026fcbff21c72b3806de130cc23c488418a05c81f604fe2bb0cafe781467138e8030000000000002251204026fcbff21c72b3806de130cc23c488418a05c81f604fe2bb0cafe781467138e8030000000000002251204026fcbff21c72b3806de130cc23c488418a05c81f604fe2bb0cafe781467138686700000000000017a9148edd9ad780185e515c1b80fb90adb5c47ffc3ac2879f74000000000000225120fb8c454eb0d66d06b5689dc9845addcb45c09adb75e4557869a636d9ec74554c550500000000000017a914ea6b832a05c6ca578baa3836f3f25553d41068a58758020000000000002251204026fcbff21c72b3806de130cc23c488418a05c81f604fe2bb0cafe78146713858020000000000002251204026fcbff21c72b3806de130cc23c488418a05c81f604fe2bb0cafe78146713858020000000000002251204026fcbff21c72b3806de130cc23c488418a05c81f604fe2bb0cafe78146713809092500000000002251204026fcbff21c72b3806de130cc23c488418a05c81f604fe2bb0cafe7814671380140cab21402e80d296b30243de0e7088b814fffc7eb23219715f5eba384ff0fa28aa7466f1e728c561b5fe46a008399bde1eeadb907b10a718eff2f57500b51cfb2014061e590097f83240c16a476f3095518d741563aa13da42a9a59d0648da34a99e070d5c353f5fa89f898b6828c5a4ab742d43d804821449d04602430b40661ea6a014012d4cb473d6a764beb39c75988ae730bd1f19297cd017b4c5d849fe4dc830bece91a208b2c29970266eb7c7a3f73b2061a1ddc871085549168e51de3da3b4e5901419b218f92a72a7c1b6e3c80112008d36b8d6433e07efdb0aed65497ea2bfbf83ded9311390d5279ce2161730403f065e930d60bc76d2a012eaff688f60255ee74830141368b81b3416456806002fa3846be7c4a6d9977ce7b9efb4593d823e55ea5efa44773378ec6926e133045d4da5c9f488536f4bda82ea576bda65fdcfd79594661830140796baac90e64412ea69ba1e75a736f4e28fa10d77134e5ca254a633b7a35d75f6da0500c3c89e3186cba590c3186e8a8b036b69eb77f577912b60b85693ce14600000000"
}