{
  "txid": "f3091d0577b5201deaf460a40d636720308f7e74a2d8eeeb2be2fa5f97cfbb73",
  "version": 1,
  "locktime": 0,
  "vin": [
    {
      "txid": "0f7bffe19d162b363965ae440d3ad04da38464f7beeee376938644f437250efd",
      "vout": 0,
      "prevout": {
        "scriptpubkey": "001445e08dc65cfbf43ef8858c75dabbd4c9dcb55db6",
        "scriptpubkey_asm": "OP_0 OP_PUSHBYTES_20 45e08dc65cfbf43ef8858c75dabbd4c9dcb55db6",
        "scriptpubkey_type": "v0_p2wpkh",
        "scriptpubkey_address": "bc1qghsgm3jul06ra7y9336a4w75e8wt2hdkr07n2k",
        "value": 52338550
      },
      "scriptsig": "",
      "scriptsig_asm": "",
      "witness": [
        "3045022100dc0d0cb6f221cfee1925729b0c2a21c56bfc061c9f6caab373187d0edb38a56402207f2cd1c5d7059d485f12a9df4b34f6bc378a7f6391856e993e7d103b1d33fd9b01",
        "02359a65c7c103046f96d1be3ed07a6e28b6f87ad19e948d4ebaa69dc29bd48ec5"
      ],
      "is_coinbase": false,
      "sequence": 4294967293
    }
  ],
  "vout": [
    {
      "scriptpubkey": "001420d1bcc466eb467cd3eee26482d9b01a4931fb82",
      "scriptpubkey_asm": "OP_0 OP_PUSHBYTES_20 20d1bcc466eb467cd3eee26482d9b01a4931fb82",
      "scriptpubkey_type": "v0_p2wpkh",
      "scriptpubkey_address": "bc1qyrgme3rxadr8e5lwufjg9kdsrfynr7uznw9lex",
      "value": 10000
    },
    {
      "scriptpubkey": "00140c11ca1874be042bf2957df39cb284b7068a85a8",
      "scriptpubkey_asm": "OP_0 OP_PUSHBYTES_20 0c11ca1874be042bf2957df39cb284b7068a85a8",
      "scriptpubkey_type": "v0_p2wpkh",
      "scriptpubkey_address": "bc1qpsgu5xr5hczzhu540heeev5ykurg4pdgaccl0e",
      "value": 52326717
    }
  ],
  "size": 223,
  "weight": 562,
  "fee": 1833,
  "status": {
    "confirmed": true,
    "block_height": 834460,
    "block_hash": "00000000000000000000484a79b643b2524bbce82e5d8a442013fa5b8905ed98",
    "block_time": 1710307468
  },
  "hex": "01000000000101fd0e2537f444869376e3eebef76484a34dd03a0d44ae6539362b169de1ff7b0f0000000000fdffffff02102700000000000016001420d1bcc466eb467cd3eee26482d9b01a4931fb823d711e03000000001600140c11ca1874be042bf2957df39cb284b7068a85a802483045022100dc0d0cb6f221cfee1925729b0c2a21c56bfc061c9f6caab373187d0edb38a56402207f2cd1c5d7059d485f12a9df4b34f6bc378a7f6391856e993e7d103b1d33fd9b012102359a65c7c103046f96d1be3ed07a6e28b6f87ad19e948d4ebaa69dc29bd48ec500000000"
}