{
  "txid": "f32b5e08ed44312dd4dc87eebc7b57f1fd43cd74aeddee5424fda8caa4a1b072",
  "version": 2,
  "locktime": 0,
  "vin": [
    {
      "txid": "51ba7f6a58a4da1d56dc56504fe2199c2904889c1426b02023abca1c7e235190",
      "vout": 3,
      "prevout": {
        "scriptpubkey": "76a91409b4a2eb60eec7299fe40bfae11a6be5694a78b988ac",
        "scriptpubkey_asm": "OP_DUP OP_HASH160 OP_PUSHBYTES_20 09b4a2eb60eec7299fe40bfae11a6be5694a78b9 OP_EQUALVERIFY OP_CHECKSIG",
        "scriptpubkey_type": "p2pkh",
        "scriptpubkey_address": "1tKUZhq59HEk5uywLMiYwjSkjDjPDykMW",
        "value": 246819
      },
      "scriptsig": "483045022100d29c1445f8a9c0e5c7a008e170e14f52cafe4aa6c9995abb336fdb900ebaefc402202ac2759897270849278f784c54b20234320955ae5647eb5d3d50b4268f52d3430121020319792beafa6f836e4f6382ea47844595f9e40c00e05ae3d940a5afd9ae8029",
      "scriptsig_asm": "OP_PUSHBYTES_72 3045022100d29c1445f8a9c0e5c7a008e170e14f52cafe4aa6c9995abb336fdb900ebaefc402202ac2759897270849278f784c54b20234320955ae5647eb5d3d50b4268f52d34301 OP_PUSHBYTES_33 020319792beafa6f836e4f6382ea47844595f9e40c00e05ae3d940a5afd9ae8029",
      "is_coinbase": false,
      "sequence": 4294967293
    },
    {
      "txid": "5adf7e78ded6f934316b3265f8f3e9de0503037e4a908e208e8785746f7eb614",
      "vout": 3,
      "prevout": {
        "scriptpubkey": "76a91409b4a2eb60eec7299fe40bfae11a6be5694a78b988ac",
        "scriptpubkey_asm": "OP_DUP OP_HASH160 OP_PUSHBYTES_20 09b4a2eb60eec7299fe40bfae11a6be5694a78b9 OP_EQUALVERIFY OP_CHECKSIG",
        "scriptpubkey_type": "p2pkh",
        "scriptpubkey_address": "1tKUZhq59HEk5uywLMiYwjSkjDjPDykMW",
        "value": 65048
      },
      "scriptsig": "473044022054af829c1898fe469ad95588824af68a8659e6c1cbcb9d0bd62dee57a9b8988202206170e9e9f623e6c3681646c64631f5bb9dd174da5f9bbaf37d5563262a0684890121020319792beafa6f836e4f6382ea47844595f9e40c00e05ae3d940a5afd9ae8029",
      "scriptsig_asm": "OP_PUSHBYTES_71 3044022054af829c1898fe469ad95588824af68a8659e6c1cbcb9d0bd62dee57a9b8988202206170e9e9f623e6c3681646c64631f5bb9dd174da5f9bbaf37d5563262a06848901 OP_PUSHBYTES_33 020319792beafa6f836e4f6382ea47844595f9e40c00e05ae3d940a5afd9ae8029",
      "is_coinbase": false,
      "sequence": 4294967293
    }
  ],
  "vout": [
    {
      "scriptpubkey": "0014f8459027637f3d6da7fc6a02101326c680837425",
      "scriptpubkey_asm": "OP_0 OP_PUSHBYTES_20 f8459027637f3d6da7fc6a02101326c680837425",
      "scriptpubkey_type": "v0_p2wpkh",
      "scriptpubkey_address": "bc1qlpzeqfmr0u7kmfludgppqyexc6qgxap956ds2t",
      "value": 300375
    }
  ],
  "size": 336,
  "weight": 1344,
  "fee": 11492,
  "status": {
    "confirmed": true,
    "block_height": 834638,
    "block_hash": "000000000000000000025f742c626208ac87e0b7d15054abb4a19ca2d735a54e",
    "block_time": 1710405325
  },
  "hex": "02000000029051237e1ccaab2320b026149c8804299c19e24f5056dc561ddaa4586a7fba51030000006b483045022100d29c1445f8a9c0e5c7a008e170e14f52cafe4aa6c9995abb336fdb900ebaefc402202ac2759897270849278f784c54b20234320955ae5647eb5d3d50b4268f52d3430121020319792beafa6f836e4f6382ea47844595f9e40c00e05ae3d940a5afd9ae8029fdffffff14b67e6f7485878e208e904a7e030305dee9f3f865326b3134f9d6de787edf5a030000006a473044022054af829c1898fe469ad95588824af68a8659e6c1cbcb9d0bd62dee57a9b8988202206170e9e9f623e6c3681646c64631f5bb9dd174da5f9bbaf37d5563262a0684890121020319792beafa6f836e4f6382ea47844595f9e40c00e05ae3d940a5afd9ae8029fdffffff015795040000000000160014f8459027637f3d6da7fc6a02101326c68083742500000000"
}