{
  "txid": "f338ef264d9e2889cef554c3b0535d2f04d4d63028a5b31326c774b523099a6a",
  "version": 1,
  "locktime": 0,
  "vin": [
    {
      "txid": "a9da27139eaddd5d4910f9ba4ded34da57e3da1c2afcfb8b89d9ce949c4b82ea",
      "vout": 0,
      "prevout": {
        "scriptpubkey": "76a9142393e48f6fb8055b9ad022c8e40d266a28d418b288ac",
        "scriptpubkey_asm": "OP_DUP OP_HASH160 OP_PUSHBYTES_20 2393e48f6fb8055b9ad022c8e40d266a28d418b2 OP_EQUALVERIFY OP_CHECKSIG",
        "scriptpubkey_type": "p2pkh",
        "scriptpubkey_address": "14F7pVEwvoJ22CC1zapsnXD36AcibQQJAK",
        "value": 1974442
      },
      "scriptsig": "483045022100e42da79399ffbbb9dc097bbd09aa50433745a2ff201d3c02800ef79760f9a7c1022000dc266c005748c5f72d1448a5ff1f075d2cf078b90ff19d603bf1b156ff638e0121022bca2a883483f533aa44c567a26b222acfe68e03a5dbada1785cbe79b047d2ff",
      "scriptsig_asm": "OP_PUSHBYTES_72 3045022100e42da79399ffbbb9dc097bbd09aa50433745a2ff201d3c02800ef79760f9a7c1022000dc266c005748c5f72d1448a5ff1f075d2cf078b90ff19d603bf1b156ff638e01 OP_PUSHBYTES_33 022bca2a883483f533aa44c567a26b222acfe68e03a5dbada1785cbe79b047d2ff",
      "is_coinbase": false,
      "sequence": 4294967295
    }
  ],
  "vout": [
    {
      "scriptpubkey": "76a914ac83b7f30a5692e3841edd7da1f35da6e79a498988ac",
      "scriptpubkey_asm": "OP_DUP OP_HASH160 OP_PUSHBYTES_20 ac83b7f30a5692e3841edd7da1f35da6e79a4989 OP_EQUALVERIFY OP_CHECKSIG",
      "scriptpubkey_type": "p2pkh",
      "scriptpubkey_address": "1GjB1xhQbEaMo7UnskheGFBhcbigmiG87Z",
      "value": 1931097
    },
    {
      "scriptpubkey": "0014d3f673eda6ebcc28ffba44ee843df3ebbfbd31c2",
      "scriptpubkey_asm": "OP_0 OP_PUSHBYTES_20 d3f673eda6ebcc28ffba44ee843df3ebbfbd31c2",
      "scriptpubkey_type": "v0_p2wpkh",
      "scriptpubkey_address": "bc1q60m88mdxa0xz3la6gnhgg00nawlm6vwz8rxhac",
      "value": 40000
    }
  ],
  "size": 223,
  "weight": 892,
  "fee": 3345,
  "status": {
    "confirmed": true,
    "block_height": 834460,
    "block_hash": "00000000000000000000484a79b643b2524bbce82e5d8a442013fa5b8905ed98",
    "block_time": 1710307468
  },
  "hex": "0100000001ea824b9c94ced9898bfbfc2a1cdae357da34ed4dbaf910495dddad9e1327daa9000000006b483045022100e42da79399ffbbb9dc097bbd09aa50433745a2ff201d3c02800ef79760f9a7c1022000dc266c005748c5f72d1448a5ff1f075d2cf078b90ff19d603bf1b156ff638e0121022bca2a883483f533aa44c567a26b222acfe68e03a5dbada1785cbe79b047d2ffffffffff0259771d00000000001976a914ac83b7f30a5692e3841edd7da1f35da6e79a498988ac409c000000000000160014d3f673eda6ebcc28ffba44ee843df3ebbfbd31c200000000"
}