{
  "txid": "f348935fdc5e0dbf9a922209b8c57a9c5258b572156f9e51b8b1a5292ffb2bf2",
  "version": 2,
  "locktime": 0,
  "vin": [
    {
      "txid": "b2c922a2c2e722b6eef1db947ec90fefe602e899058dacbd4d4059cc27ab2266",
      "vout": 455,
      "prevout": {
        "scriptpubkey": "0014aa55e8076fc98f328175aed84c3acc1e737d7b9c",
        "scriptpubkey_asm": "OP_0 OP_PUSHBYTES_20 aa55e8076fc98f328175aed84c3acc1e737d7b9c",
        "scriptpubkey_type": "v0_p2wpkh",
        "scriptpubkey_address": "bc1q4f27spm0ex8n9qt44mvycwkvreeh67uuufjsj4",
        "value": 122027
      },
      "scriptsig": "",
      "scriptsig_asm": "",
      "witness": [
        "3045022100c810ead48b51c3ccb58785ce3b6faf7cae606b3831b58804a900380c6c9b5c880220623a4e8a83ae9bd4bfcd433ead91a675054693a5819769d9c727e77b4ba7e0e001",
        "03099e5840811c66c10e962dcc07f1cc8a1b008c225f66c249b6403f57e687c35d"
      ],
      "is_coinbase": false,
      "sequence": 4294967295
    }
  ],
  "vout": [
    {
      "scriptpubkey": "a914e52349100eacd4da7f9faa896d8da2eb9c49764f87",
      "scriptpubkey_asm": "OP_HASH160 OP_PUSHBYTES_20 e52349100eacd4da7f9faa896d8da2eb9c49764f OP_EQUAL",
      "scriptpubkey_type": "p2sh",
      "scriptpubkey_address": "3Naaw9PzAab3QnmKKNxGMwCadhRjrN12yJ",
      "value": 120489
    }
  ],
  "size": 193,
  "weight": 442,
  "fee": 1538,
  "status": {
    "confirmed": true,
    "block_height": 834460,
    "block_hash": "00000000000000000000484a79b643b2524bbce82e5d8a442013fa5b8905ed98",
    "block_time": 1710307468
  },
  "hex": "020000000001016622ab27cc59404dbdac8d0599e802e6ef0fc97e94dbf1eeb622e7c2a222c9b2c701000000ffffffff01a9d601000000000017a914e52349100eacd4da7f9faa896d8da2eb9c49764f8702483045022100c810ead48b51c3ccb58785ce3b6faf7cae606b3831b58804a900380c6c9b5c880220623a4e8a83ae9bd4bfcd433ead91a675054693a5819769d9c727e77b4ba7e0e0012103099e5840811c66c10e962dcc07f1cc8a1b008c225f66c249b6403f57e687c35d00000000"
}