{
  "txid": "f34b2aefe1c19bc24688576d3e0a49c80fb529accf23e15f11eafdcd0b9180ce",
  "version": 2,
  "locktime": 0,
  "vin": [
    {
      "txid": "e7709171a1c2912460fde06c64bf508f8bd45bdf30e6543c5ae2ccccfe8e9f56",
      "vout": 1,
      "prevout": {
        "scriptpubkey": "00144ce120ec1ca86ae1175fa3607d4ef2809c0859f5",
        "scriptpubkey_asm": "OP_0 OP_PUSHBYTES_20 4ce120ec1ca86ae1175fa3607d4ef2809c0859f5",
        "scriptpubkey_type": "v0_p2wpkh",
        "scriptpubkey_address": "bc1qfnsjpmqu4p4wz96l5ds86nhjszwqsk04quluvp",
        "value": 1685402
      },
      "scriptsig": "",
      "scriptsig_asm": "",
      "witness": [
        "3044022001b08a9faf42adadb25872d81686d9a5a419858b677821613dc3f0a9748e660d0220687365d1aaf03c0af985529d9c991f2961ba03176ee81b33bb0c1ff7e187c13801",
        "02ecdbc6277ceb4a4b0c75be7b436c4e5de276af422cd9c50665077bda29974ef1"
      ],
      "is_coinbase": false,
      "sequence": 4294967295
    }
  ],
  "vout": [
    {
      "scriptpubkey": "00143cfe36111b3d7b67b57e3fdbe3805a83104267fd",
      "scriptpubkey_asm": "OP_0 OP_PUSHBYTES_20 3cfe36111b3d7b67b57e3fdbe3805a83104267fd",
      "scriptpubkey_type": "v0_p2wpkh",
      "scriptpubkey_address": "bc1q8nlrvygm84ak0dt78ld78qz6svgyyelasxpdcf",
      "value": 68114
    },
    {
      "scriptpubkey": "0014f8ecf02c7dbace0ab8c346fbfdb499a2cda7188a",
      "scriptpubkey_asm": "OP_0 OP_PUSHBYTES_20 f8ecf02c7dbace0ab8c346fbfdb499a2cda7188a",
      "scriptpubkey_type": "v0_p2wpkh",
      "scriptpubkey_address": "bc1qlrk0qtraht8q4wxrgmalmdye5tx6wxy2dvkquk",
      "value": 1614460
    }
  ],
  "size": 222,
  "weight": 561,
  "fee": 2828,
  "status": {
    "confirmed": true,
    "block_height": 834638,
    "block_hash": "000000000000000000025f742c626208ac87e0b7d15054abb4a19ca2d735a54e",
    "block_time": 1710405325
  },
  "hex": "02000000000101569f8efecccce25a3c54e630df5bd48b8f50bf646ce0fd602491c2a1719170e70100000000ffffffff02120a0100000000001600143cfe36111b3d7b67b57e3fdbe3805a83104267fd7ca2180000000000160014f8ecf02c7dbace0ab8c346fbfdb499a2cda7188a02473044022001b08a9faf42adadb25872d81686d9a5a419858b677821613dc3f0a9748e660d0220687365d1aaf03c0af985529d9c991f2961ba03176ee81b33bb0c1ff7e187c138012102ecdbc6277ceb4a4b0c75be7b436c4e5de276af422cd9c50665077bda29974ef100000000"
}