{
  "txid": "f35ec75fdc77f1b7e6ccca702bf66dd787e6c3165d4037cf2943c59e5fe63839",
  "version": 2,
  "locktime": 0,
  "vin": [
    {
      "txid": "426f08fbaaacdc4b13cb6f428c89487358ea4dac9ed7948a96cfaa3f67ad9d67",
      "vout": 34,
      "prevout": {
        "scriptpubkey": "51200aa06e9aecedeac81b5867416c16b5865b9b39a31af33ac579820f445966497e",
        "scriptpubkey_asm": "OP_PUSHNUM_1 OP_PUSHBYTES_32 0aa06e9aecedeac81b5867416c16b5865b9b39a31af33ac579820f445966497e",
        "scriptpubkey_type": "v1_p2tr",
        "scriptpubkey_address": "bc1pp2sxaxhvah4vsx6cvaqkc944sedekwdrrten43tesg85gktxf9lqrslysx",
        "value": 4599
      },
      "scriptsig": "",
      "scriptsig_asm": "",
      "witness": [
        "767dbbd1a6d7063081d16ac9b9aa308561f47b07fcf115a531f2be3eb436137ccc822a3b0e31cf6cbc9090c56643e4bfb133c96bb3798ee59bb700182be766ae",
        "209aefaee15f421d64bf18ed19da0185b9e67769c8946e0e2f8a9511f5461cf15fac0063036f726401011e6170706c69636174696f6e2f6a736f6e3b636861727365743d7574662d38004cd37b2270223a22706f772d3230222c226f70223a226d696e74222c227469636b223a2250455045222c22616d74223a2231303030222c22736f6c7574696f6e223a22504550453a62633170636a65387233733875656e746d64767a6e34777337786d3836367879707535756139357371796877756835616d61677565367a73707a733637713a303030303030303030303030303030303030303139393431613561653132383937363539383134343239323533333030353762306461393666336465613163353a3632353032333930383731227d68",
        "c1039ed2fd528e891a28907036b81ec900320c2b9f26f0b27e7e5cfd0fc9102a4d"
      ],
      "is_coinbase": false,
      "sequence": 4294967295
    }
  ],
  "vout": [
    {
      "scriptpubkey": "5120c4b271c607e666bdb5829d5d0f1b67d68c40f29ce9690012eee5e9ddf51cce85",
      "scriptpubkey_asm": "OP_PUSHNUM_1 OP_PUSHBYTES_32 c4b271c607e666bdb5829d5d0f1b67d68c40f29ce9690012eee5e9ddf51cce85",
      "scriptpubkey_type": "v1_p2tr",
      "scriptpubkey_address": "bc1pcje8r3s8uentmdvzn4ws7xm866xypu5ua95sqyhwuh5amague6zspzs67q",
      "value": 546
    }
  ],
  "size": 487,
  "weight": 769,
  "fee": 4053,
  "status": {
    "confirmed": true,
    "block_height": 834460,
    "block_hash": "00000000000000000000484a79b643b2524bbce82e5d8a442013fa5b8905ed98",
    "block_time": 1710307468
  },
  "hex": "02000000000101679dad673faacf968a94d79eac4dea587348898c426fcb134bdcacaafb086f422200000000ffffffff012202000000000000225120c4b271c607e666bdb5829d5d0f1b67d68c40f29ce9690012eee5e9ddf51cce850340767dbbd1a6d7063081d16ac9b9aa308561f47b07fcf115a531f2be3eb436137ccc822a3b0e31cf6cbc9090c56643e4bfb133c96bb3798ee59bb700182be766aefd2001209aefaee15f421d64bf18ed19da0185b9e67769c8946e0e2f8a9511f5461cf15fac0063036f726401011e6170706c69636174696f6e2f6a736f6e3b636861727365743d7574662d38004cd37b2270223a22706f772d3230222c226f70223a226d696e74222c227469636b223a2250455045222c22616d74223a2231303030222c22736f6c7574696f6e223a22504550453a62633170636a65387233733875656e746d64767a6e34777337786d3836367879707535756139357371796877756835616d61677565367a73707a733637713a303030303030303030303030303030303030303139393431613561653132383937363539383134343239323533333030353762306461393666336465613163353a3632353032333930383731227d6821c1039ed2fd528e891a28907036b81ec900320c2b9f26f0b27e7e5cfd0fc9102a4d00000000"
}