{
  "txid": "f366961a77955c9bd8ec42a120a97b0e798417b53517e31d0eaf7e8259de4e72",
  "version": 1,
  "locktime": 0,
  "vin": [
    {
      "txid": "6cdc19f4b80cab56ccdc8e895da0a74c776ed14f64c4cc202b10204736924b02",
      "vout": 34,
      "prevout": {
        "scriptpubkey": "001400cc6054e5dd1a6441e4e59ad4546994ae9e107f",
        "scriptpubkey_asm": "OP_0 OP_PUSHBYTES_20 00cc6054e5dd1a6441e4e59ad4546994ae9e107f",
        "scriptpubkey_type": "v0_p2wpkh",
        "scriptpubkey_address": "bc1qqrxxq489m5dxgs0yukddg4rfjjhfuyrln4ezkh",
        "value": 5080000
      },
      "scriptsig": "",
      "scriptsig_asm": "",
      "witness": [
        "30450221008bb65cb03b58cc52d2c0d0d985b6eec7749ad740bd74d34fa07fa27e39f9133b022040ca7e15ce7ba562a147f8a725302c722e5300fe1dedad8421c1c85616aa627701",
        "028b91d1c91702d95f272df5f16891431bc099f8637f9e5a4d5744fc882e8973e0"
      ],
      "is_coinbase": false,
      "sequence": 4294967295
    }
  ],
  "vout": [
    {
      "scriptpubkey": "a914e68c02aa0395edfc2c57bfa7c6424b4e88b7a52787",
      "scriptpubkey_asm": "OP_HASH160 OP_PUSHBYTES_20 e68c02aa0395edfc2c57bfa7c6424b4e88b7a527 OP_EQUAL",
      "scriptpubkey_type": "p2sh",
      "scriptpubkey_address": "3Ni34kwMVTkbe8Tk1UwDuSwosc4zyDGuWb",
      "value": 1000000
    },
    {
      "scriptpubkey": "001400cc6054e5dd1a6441e4e59ad4546994ae9e107f",
      "scriptpubkey_asm": "OP_0 OP_PUSHBYTES_20 00cc6054e5dd1a6441e4e59ad4546994ae9e107f",
      "scriptpubkey_type": "v0_p2wpkh",
      "scriptpubkey_address": "bc1qqrxxq489m5dxgs0yukddg4rfjjhfuyrln4ezkh",
      "value": 4077180
    }
  ],
  "size": 224,
  "weight": 566,
  "fee": 2820,
  "status": {
    "confirmed": true,
    "block_height": 834638,
    "block_hash": "000000000000000000025f742c626208ac87e0b7d15054abb4a19ca2d735a54e",
    "block_time": 1710405325
  },
  "hex": "01000000000101024b92364720102b20ccc4644fd16e774ca7a05d898edccc56ab0cb8f419dc6c2200000000ffffffff0240420f000000000017a914e68c02aa0395edfc2c57bfa7c6424b4e88b7a527877c363e000000000016001400cc6054e5dd1a6441e4e59ad4546994ae9e107f024830450221008bb65cb03b58cc52d2c0d0d985b6eec7749ad740bd74d34fa07fa27e39f9133b022040ca7e15ce7ba562a147f8a725302c722e5300fe1dedad8421c1c85616aa62770121028b91d1c91702d95f272df5f16891431bc099f8637f9e5a4d5744fc882e8973e000000000"
}