{
  "txid": "f37a9bb55b4da0a3cf77c36c860d750513091e3367263149f433686fe9e12211",
  "version": 1,
  "locktime": 0,
  "vin": [
    {
      "txid": "1d5e6d9f793d1121a075bab2c1b21a6f2e9b668a1047ca7a88d22eea803ebdc3",
      "vout": 0,
      "prevout": {
        "scriptpubkey": "5120ad3134a1302e225fce2cbeef52863b4cdc36de05f352cb980eac3c9685fb6018",
        "scriptpubkey_asm": "OP_PUSHNUM_1 OP_PUSHBYTES_32 ad3134a1302e225fce2cbeef52863b4cdc36de05f352cb980eac3c9685fb6018",
        "scriptpubkey_type": "v1_p2tr",
        "scriptpubkey_address": "bc1p45cnfgfs9c39ln3vhmh49p3mfnwrdhs97dfvhxqw4s7fdp0mvqvq9p2lcy",
        "value": 2713
      },
      "scriptsig": "",
      "scriptsig_asm": "",
      "witness": [
        "ddaecc752ca9b8b11413e3aa497d892b18ba079fb8a18f4c1c230681297047640bf5589be5b437344ed9402b29eb7d5f4c339bf6acbbe162cfb002cd7f8202d583",
        "20be11f1d0580232188e877ef283eb5a1efd4e9e5290a2633605d666f59ad3fff2ac00630461746f6d03646d742da16461726773a36b6d696e745f7469636b657264646f6765656e6f6e63651a009493a66474696d651a65f10d2d68",
        "c1be11f1d0580232188e877ef283eb5a1efd4e9e5290a2633605d666f59ad3fff2"
      ],
      "is_coinbase": false,
      "sequence": 4294967293
    }
  ],
  "vout": [
    {
      "scriptpubkey": "51202cf3cfe57a56e55f9d66b8c9313e1283f273548520643be2519b18235a4815e8",
      "scriptpubkey_asm": "OP_PUSHNUM_1 OP_PUSHBYTES_32 2cf3cfe57a56e55f9d66b8c9313e1283f273548520643be2519b18235a4815e8",
      "scriptpubkey_type": "v1_p2tr",
      "scriptpubkey_address": "bc1p9neulet62mj4l8txhrynz0sjs0e8x4y9ypjrhcj3nvvzxkjgzh5qsrxgx5",
      "value": 1000
    }
  ],
  "size": 290,
  "weight": 572,
  "fee": 1713,
  "status": {
    "confirmed": true,
    "block_height": 834460,
    "block_hash": "00000000000000000000484a79b643b2524bbce82e5d8a442013fa5b8905ed98",
    "block_time": 1710307468
  },
  "hex": "01000000000101c3bd3e80ea2ed2887aca47108a669b2e6f1ab2c1b2ba75a021113d799f6d5e1d0000000000fdffffff01e8030000000000002251202cf3cfe57a56e55f9d66b8c9313e1283f273548520643be2519b18235a4815e80341ddaecc752ca9b8b11413e3aa497d892b18ba079fb8a18f4c1c230681297047640bf5589be5b437344ed9402b29eb7d5f4c339bf6acbbe162cfb002cd7f8202d5835c20be11f1d0580232188e877ef283eb5a1efd4e9e5290a2633605d666f59ad3fff2ac00630461746f6d03646d742da16461726773a36b6d696e745f7469636b657264646f6765656e6f6e63651a009493a66474696d651a65f10d2d6821c1be11f1d0580232188e877ef283eb5a1efd4e9e5290a2633605d666f59ad3fff200000000"
}