{
  "txid": "f383dde4a5cbf91f95007914815e41d08ca41c891219b49e3ab7a77d0bff878b",
  "version": 2,
  "locktime": 0,
  "vin": [
    {
      "txid": "b13bb5512a4904c28a6b7957b88edf574e8cb23551fc1dcfe22d6b239df42cf4",
      "vout": 79,
      "prevout": {
        "scriptpubkey": "51207bacd884a26330c3ba990d3c3fe42040091e23d1bb31b9e6a5aea7dbe50a8b3a",
        "scriptpubkey_asm": "OP_PUSHNUM_1 OP_PUSHBYTES_32 7bacd884a26330c3ba990d3c3fe42040091e23d1bb31b9e6a5aea7dbe50a8b3a",
        "scriptpubkey_type": "v1_p2tr",
        "scriptpubkey_address": "bc1p0wkd3p9zvvcv8w5ep57rlepqgqy3ug73hvcmne4946naheg23vaq0a9xcz",
        "value": 2575
      },
      "scriptsig": "",
      "scriptsig_asm": "",
      "witness": [
        "369a39264055b3a13134350d64afe595a032a90611c0a3178fb7292a3dd0ca34e0d4579208e393a60515029dc682bd542b7eae4eda0dd643468e50dc3eec6d08",
        "20523b19418cf5d17246a7622db1abc749f9c3179274cba4904ddf97c68e962eacac0063036f726401010a746578742f706c61696e00367b2270223a226272632d3230222c226f70223a226d696e74222c227469636b223a2261616161222c22616d74223a223130303030227d68",
        "c1523b19418cf5d17246a7622db1abc749f9c3179274cba4904ddf97c68e962eac"
      ],
      "is_coinbase": false,
      "sequence": 4261412863
    }
  ],
  "vout": [
    {
      "scriptpubkey": "0014ce0b5aa0dac72397a8aa5a85d90a2cfb46f0f630",
      "scriptpubkey_asm": "OP_0 OP_PUSHBYTES_20 ce0b5aa0dac72397a8aa5a85d90a2cfb46f0f630",
      "scriptpubkey_type": "v0_p2wpkh",
      "scriptpubkey_address": "bc1qec944gx6cu3e0292t2zajz3vldr0pa3sh356d9",
      "value": 546
    }
  ],
  "size": 295,
  "weight": 541,
  "fee": 2029,
  "status": {
    "confirmed": true,
    "block_height": 834464,
    "block_hash": "0000000000000000000177a0869a911a2b65c9bdcd5a8bcb02b68f305bee848e",
    "block_time": 1710308296
  },
  "hex": "02000000000101f42cf49d236b2de2cf1dfc5135b28c4e57df8eb857796b8ac204492a51b53bb14f00000000fffffffd012202000000000000160014ce0b5aa0dac72397a8aa5a85d90a2cfb46f0f6300340369a39264055b3a13134350d64afe595a032a90611c0a3178fb7292a3dd0ca34e0d4579208e393a60515029dc682bd542b7eae4eda0dd643468e50dc3eec6d086e20523b19418cf5d17246a7622db1abc749f9c3179274cba4904ddf97c68e962eacac0063036f726401010a746578742f706c61696e00367b2270223a226272632d3230222c226f70223a226d696e74222c227469636b223a2261616161222c22616d74223a223130303030227d6821c1523b19418cf5d17246a7622db1abc749f9c3179274cba4904ddf97c68e962eac00000000"
}