{
  "txid": "f391707cd506589a73d10a6dd2dc1d9e30208ec4ece130a91181a4927c57d051",
  "version": 2,
  "locktime": 0,
  "vin": [
    {
      "txid": "0297933275e9b87a592b5fe50eac2574def18b5ac071aa88b863986e7db5e3d6",
      "vout": 5,
      "prevout": {
        "scriptpubkey": "5120dc5c62c29ce06cebb8cb747892eb5ca8e4a259c9c2ebba67ec89230e6795e9fe",
        "scriptpubkey_asm": "OP_PUSHNUM_1 OP_PUSHBYTES_32 dc5c62c29ce06cebb8cb747892eb5ca8e4a259c9c2ebba67ec89230e6795e9fe",
        "scriptpubkey_type": "v1_p2tr",
        "scriptpubkey_address": "bc1pm3wx9s5uupkwhwxtw3uf966u4rj2ykwfct4m5elv3y3sueu4a8lqw7th8e",
        "value": 3186
      },
      "scriptsig": "",
      "scriptsig_asm": "",
      "witness": [
        "83f3cbbaab16191e65dcd1dd8340bef533fd0b849440cc1e0954bb6bbc268bcda6b99677cd6551c5ea0cf533764d03d9f521625579d6c87b29dc211e8e329189",
        "209cbe3f4185e10131a049e3f4a96833878324dbd455fed9b06adab53884f07ba5ac0063036f726401011e6170706c69636174696f6e2f6a736f6e3b636861727365743d7574662d38004cbf7b2270223a22706f772d3230222c226f70223a226d696e74222c227469636b223a2250455045222c22616d74223a2231303030222c22736f6c7574696f6e223a22504550453a6263317171633839726a7563797a776c77786d7761646c7763797139353668726e726b6a6833637361723a303030303030303030303030303030303030303139393431613561653132383937363539383134343239323533333030353762306461393666336465613163353a3432333139373038353331227d68",
        "c1ebc23c5cb62efa16bafbb201dcb9689a89d3be5df33e83929d6fd8751a90bb42"
      ],
      "is_coinbase": false,
      "sequence": 4294967295
    }
  ],
  "vout": [
    {
      "scriptpubkey": "0014060e51cb98209df71b6eeb7eec1005a6ae398ed2",
      "scriptpubkey_asm": "OP_0 OP_PUSHBYTES_20 060e51cb98209df71b6eeb7eec1005a6ae398ed2",
      "scriptpubkey_type": "v0_p2wpkh",
      "scriptpubkey_address": "bc1qqc89rjucyzwlwxmwadlwcyq956hrnrkjh3csar",
      "value": 546
    }
  ],
  "size": 455,
  "weight": 701,
  "fee": 2640,
  "status": {
    "confirmed": true,
    "block_height": 834460,
    "block_hash": "00000000000000000000484a79b643b2524bbce82e5d8a442013fa5b8905ed98",
    "block_time": 1710307468
  },
  "hex": "02000000000101d6e3b57d6e9863b888aa71c05a8bf1de7425ac0ee55f2b597ab8e975329397020500000000ffffffff012202000000000000160014060e51cb98209df71b6eeb7eec1005a6ae398ed2034083f3cbbaab16191e65dcd1dd8340bef533fd0b849440cc1e0954bb6bbc268bcda6b99677cd6551c5ea0cf533764d03d9f521625579d6c87b29dc211e8e329189fd0c01209cbe3f4185e10131a049e3f4a96833878324dbd455fed9b06adab53884f07ba5ac0063036f726401011e6170706c69636174696f6e2f6a736f6e3b636861727365743d7574662d38004cbf7b2270223a22706f772d3230222c226f70223a226d696e74222c227469636b223a2250455045222c22616d74223a2231303030222c22736f6c7574696f6e223a22504550453a6263317171633839726a7563797a776c77786d7761646c7763797139353668726e726b6a6833637361723a303030303030303030303030303030303030303139393431613561653132383937363539383134343239323533333030353762306461393666336465613163353a3432333139373038353331227d6821c1ebc23c5cb62efa16bafbb201dcb9689a89d3be5df33e83929d6fd8751a90bb4200000000"
}