{
  "txid": "f39163564331cec9c05688788e25096cd95ab495038c6bb203244a2175dbe08a",
  "version": 2,
  "locktime": 0,
  "vin": [
    {
      "txid": "770ffb37e0f670700615146c5ec613db7f9da1de007682599d9435a9728ceebf",
      "vout": 1,
      "prevout": {
        "scriptpubkey": "5120c60425970363581ee1e5cffa330602515ae8d41164e14fc5af640a62b09a1b4b",
        "scriptpubkey_asm": "OP_PUSHNUM_1 OP_PUSHBYTES_32 c60425970363581ee1e5cffa330602515ae8d41164e14fc5af640a62b09a1b4b",
        "scriptpubkey_type": "v1_p2tr",
        "scriptpubkey_address": "bc1pcczzt9crvdvpac09elarxpsz29dw34q3vns5l3d0vs9x9vy6rd9snzx8as",
        "value": 7302
      },
      "scriptsig": "",
      "scriptsig_asm": "",
      "witness": [
        "e6587b72a948bbeeb5966fd56d6ada11b670d83e9f490d789747d988f01be327d3c5d950ef0df98c8024ecb102681064297ae30e13358c491df20035cfd8b1b8"
      ],
      "is_coinbase": false,
      "sequence": 4294967293
    }
  ],
  "vout": [
    {
      "scriptpubkey": "512020c98fea35bda5b9b98ef30e307e8ab39b971e0be4a8f31bcd49a0a3645faac9",
      "scriptpubkey_asm": "OP_PUSHNUM_1 OP_PUSHBYTES_32 20c98fea35bda5b9b98ef30e307e8ab39b971e0be4a8f31bcd49a0a3645faac9",
      "scriptpubkey_type": "v1_p2tr",
      "scriptpubkey_address": "bc1pyrycl634hkjmnwvw7v8rql52kwdew8stuj50xx7dfxs2xezl4tysw6ymgt",
      "value": 2994
    },
    {
      "scriptpubkey": "5120c60425970363581ee1e5cffa330602515ae8d41164e14fc5af640a62b09a1b4b",
      "scriptpubkey_asm": "OP_PUSHNUM_1 OP_PUSHBYTES_32 c60425970363581ee1e5cffa330602515ae8d41164e14fc5af640a62b09a1b4b",
      "scriptpubkey_type": "v1_p2tr",
      "scriptpubkey_address": "bc1pcczzt9crvdvpac09elarxpsz29dw34q3vns5l3d0vs9x9vy6rd9snzx8as",
      "value": 1844
    }
  ],
  "size": 205,
  "weight": 616,
  "fee": 2464,
  "status": {
    "confirmed": true,
    "block_height": 834638,
    "block_hash": "000000000000000000025f742c626208ac87e0b7d15054abb4a19ca2d735a54e",
    "block_time": 1710405325
  },
  "hex": "02000000000101bfee8c72a935949d59827600dea19d7fdb13c65e6c1415067070f6e037fb0f770100000000fdffffff02b20b00000000000022512020c98fea35bda5b9b98ef30e307e8ab39b971e0be4a8f31bcd49a0a3645faac93407000000000000225120c60425970363581ee1e5cffa330602515ae8d41164e14fc5af640a62b09a1b4b0140e6587b72a948bbeeb5966fd56d6ada11b670d83e9f490d789747d988f01be327d3c5d950ef0df98c8024ecb102681064297ae30e13358c491df20035cfd8b1b800000000"
}