{
  "txid": "f3a446155bdb4a832471647f6c970cc058128e14a7602ad03bb96304d0764c09",
  "version": 2,
  "locktime": 0,
  "vin": [
    {
      "txid": "acc3ba00869acb582a3f2904ce3a11dd3779350ce234063fc7d0959246213364",
      "vout": 31,
      "prevout": {
        "scriptpubkey": "512084b369aff243653b3687373dad68229c252bb87d99714e67d4c0037e66021500",
        "scriptpubkey_asm": "OP_PUSHNUM_1 OP_PUSHBYTES_32 84b369aff243653b3687373dad68229c252bb87d99714e67d4c0037e66021500",
        "scriptpubkey_type": "v1_p2tr",
        "scriptpubkey_address": "bc1psjekntljgdjnkd58xu7666pznsjjhwran9c5ue75cqphueszz5qqvdj3me",
        "value": 1806
      },
      "scriptsig": "",
      "scriptsig_asm": "",
      "witness": [
        "cbe70c6b9fa8d04609fc00a4536f20f3cc04bfe0fb766793eef6b211a1e8abcc2190210e8907b9c47e7b660aa5c5d3cc07d6de8f90bb27c4ad25ad920db86be7",
        "20bbe6af45813e16ce27f7d49657ee1e8cca877295f28104e0ef5526b6e621dcefac0063036f726401010a746578742f706c61696e00357b2270223a226272632d3230222c226f70223a226d696e74222c227469636b223a22646f6765222c22616d74223a2234323030227d68",
        "c1bbe6af45813e16ce27f7d49657ee1e8cca877295f28104e0ef5526b6e621dcef"
      ],
      "is_coinbase": false,
      "sequence": 4261412863
    }
  ],
  "vout": [
    {
      "scriptpubkey": "00147a665de7a370f4c9b372ab1fae587500a5bcbdb4",
      "scriptpubkey_asm": "OP_0 OP_PUSHBYTES_20 7a665de7a370f4c9b372ab1fae587500a5bcbdb4",
      "scriptpubkey_type": "v0_p2wpkh",
      "scriptpubkey_address": "bc1q0fn9mearwr6vnvmj4v06ukr4qzjme0d565dzcx",
      "value": 294
    }
  ],
  "size": 294,
  "weight": 540,
  "fee": 1512,
  "status": {
    "confirmed": true,
    "block_height": 834460,
    "block_hash": "00000000000000000000484a79b643b2524bbce82e5d8a442013fa5b8905ed98",
    "block_time": 1710307468
  },
  "hex": "02000000000101643321469295d0c73f0634e20c357937dd113ace04293f2a58cb9a8600bac3ac1f00000000fffffffd0126010000000000001600147a665de7a370f4c9b372ab1fae587500a5bcbdb40340cbe70c6b9fa8d04609fc00a4536f20f3cc04bfe0fb766793eef6b211a1e8abcc2190210e8907b9c47e7b660aa5c5d3cc07d6de8f90bb27c4ad25ad920db86be76d20bbe6af45813e16ce27f7d49657ee1e8cca877295f28104e0ef5526b6e621dcefac0063036f726401010a746578742f706c61696e00357b2270223a226272632d3230222c226f70223a226d696e74222c227469636b223a22646f6765222c22616d74223a2234323030227d6821c1bbe6af45813e16ce27f7d49657ee1e8cca877295f28104e0ef5526b6e621dcef00000000"
}