{
  "txid": "f3ad74ad35bfcaa5a1337ccb412f3dd75e28f14f94b2996aeae07ffd7bb8afb5",
  "version": 2,
  "locktime": 0,
  "vin": [
    {
      "txid": "a8f52f5a44ef217928eef879108571f8d703acdd919270846a5a6685410b77bc",
      "vout": 0,
      "prevout": {
        "scriptpubkey": "5120ab4b493cf43a09a64229bda7f3c0d0ae80de6dac3a5ce3bb1331807f6205ff6e",
        "scriptpubkey_asm": "OP_PUSHNUM_1 OP_PUSHBYTES_32 ab4b493cf43a09a64229bda7f3c0d0ae80de6dac3a5ce3bb1331807f6205ff6e",
        "scriptpubkey_type": "v1_p2tr",
        "scriptpubkey_address": "bc1p4d95j0858gy6vs3fhknl8sxs46qdumdv8fww8wcnxxq87cs9lahqutmwup",
        "value": 20677
      },
      "scriptsig": "",
      "scriptsig_asm": "",
      "witness": [
        "64a0df03d049bf5cf5caac0877e172571ba1bec4ad9fd01b2862c034d016f2026abfb556c4f0c3c5d86134a3bece1acb1b1db363fbacf0aa845994ac440cc49f",
        "20f2d00e1cce0b839d2e197679cac7a15152ec244338032c7767f72c1332d49a65ac0063036f7264010109696d6167652f706e67004d080289504e470d0a1a0a0000000d4948445200000118000001180803000000b05019be000000017352474200aece1ce90000000467414d410000b18f0bfc61050000014d504c5445ff7b00ef7000af3605982f00e26800d15001ed6e00f46900d33400e55400f675066b07005700005b0000ae4802b30100b80a00e04900bd13007a0901ac0100870000a401008b0100861d00e06e13d3a157d1964d722914c03f45f1880ef6e677f8f482ca2900f7f080d16c15f1cc75efb54dc73802e77c00f3b23ef0aa00efa800efa400c61f00a22167c22d71d93579e25c67f0558ae943d0f65ae2ff6bf9ff6af1f170b2e943cdf36dd0fa8bd3ed94aaefce94efce98f3b76aedd095f2d094f2d298d2b68b611c5516100e01042c1d207b1d229d03074a2d1600000000000778000878000ba2070d9000010c050a6b010bac020cb8020ee1020dd0ecd1980310ff000efda6588077674b78696d786c91786eaf796fc9e4c68bc7954fbb9b60da60a9ce778dc7a96dc8a86dbb9b5fe38827e75a97da5facf66454ed4da9ee4cd6f253dcff7463ff7a11ff6dc6733a54ca000000097048597300000ec300000ec301c76fa864000005cd49444154785eedddeb5b14651cc6f15d0e8b1c521015c5002195c00e8aa6a5521692e754cc0e5a6a659995feff2f7b807b6667ae9d9b19bc466656be9f97f3fc6699e7eb5e02bbb3da28e8d5ebcf2a71f642b95ebed286ca4d08024218833006610cc2188431086310c6208c4118833006610cc2188431086310c6208c4118833006610cc2188431086310c6208c4118833006610cc2188431086310c6208c4118833006610cc2188431086310c6208c4118833006610cc2188431086310c6208cf1eaf5395deace2a39cc52e9611aff1574fedf52fda31de579f97741dacece3bb3a44bdd514b67f4e5eb8b3006610cc2188431086310c6d87561a6ff2ce6f48b67657aa19de7a830cc93a7cf0b795aaae7bf69e7392a0d5305c2188431086310c6208c4118833006610cc2188431086310c6208c4118833006610cc2188431086310c6208c4118833006610cc2188431086310c6281ce62fdd6c914bdb294fbdc35c78a613f23cd176ca4318833006610cc2188431086310c6208c51f476d692d53fcce41f55f8bdf661a6972f55e2a2369ea7c2309775a93bea4bc264238c4118833006610cc21884310863140e73fed76296a7b5a1b2d43ecca52f0b39befbc2144218833006610cc2188431de4298e357beaac095da87199afa29f2e8974e8f1f75f859e3298f359f90716ae2e41fb5f13c9585695ebf11b9f3f0870ef76e47eedc946b1a4ffaee41c7b90fd77462704ba7debc795527dcf8461bcf538f301d52616e6d32613a24c34408131026204c40988030eb089344188330c6d6611e561fe6b25ea2dbdaf76f35cc9a3cb817d3ce82adc3dcd7a96b6bf77566f25c9df9464d080261968b39a1fd942611e6aeb671fbae0e840ddfd1a1bc30edb978f9aa0e043af30dc25477cb3c610cc2188431086310c6208cb18d309bde288cceddfe2b7855865991ebd7be95d5151dbcbeb2aa43c1aa5cdb5c4bd34c102fc70f17e8d4d5d5ab5a5ca97d9846ab2f7224a603810e04935f97aae0bb041586296ab9dcb759dea130a5be3157f40d37c2188431086310c6208cb1ebc214fd584e1784b9f845a93ed7ce73744198f3e5fe277867b5f31c8431086310c6208c4118833006610cc218bb2eccb9b34bc5d43fcce94f4bf5c9c7c54ce9cbd7d7ecbe524d8cbc57c448afbe7c7d951d463bcf4118833006610cc218843108637455980319b494a2a5142da5c20c67d15a378539349121a34ce6dc212d26c20c1f52b4a4712d765598839d32c3682d252b4cd6d38d3084d94418c26c204c409834c218ed30fa9124252b8c9652b60e331a3ba8c591dea188aea31e86663f8a8ceae2f7cdf6c7e6237dfbb598b05f4381a682386f3bcc78ff604443416ff402dff0e1486f5317550703718eb6d966647e71414e658469cf354f696c61e1a4169361fa34959cdb1bbff23912196ee9a2ea6060ab0db7e64f2d4a669896e6c28635b6b8981346538b0bf133a68d30016102c2ac230c61361026204c4018233b4c4bf2c24472c374cc756598fe13910fa723f31973273515682ac8f895e07d0d051a0aba31cc07c7223343d11f752b636e6a4e63ed4d7901b9562b2bcc8cc68ecd4c6baad5ecca307391e343d15f23996166343617c244739961343617c2688e300161d6e70843980d840908136486d137d7f56fc3da467698f6b7eb698d359b996134969cebc630539391a37a4937c87809b44753a9b9f8f112618e6a6c72f2c858e470178629fcf6c9841693b6fbf649c2bb13466b298421cc06c2048409086310c6a82e4cf7fc1ca3db10464733ef6248dca81039a0a594035a1c9dd06dabc3c3e359776d1ed4627c5f6b7dc38c0dc81e5d7bd2be412d268c692d257e94f6bf19d63fae04493d5aecdbab2cf50d33a8438d311d481a1dd062c2a0d652e24769eb6b3f29daf66ab1d1af0384d94418c26c220c61361026204c4018833006610cc2188431086310c6208c4118833006618cc4e795de62187d202929114647eaf579a5a13db178eb833a90921166404b291973ad9ede4efd5a6cf4e9406f6f4f9d3ee10600000000000000000000000000000000000000c0f6341aff038aedb3dea19e29df0000000049454e44ae426082680063036f726401011e6170706c69636174696f6e2f6a736f6e3b636861727365743d7574662d38004d69017b2270223a22766f7264222c2276223a312c227479223a22696e7363222c22636f6c223a2261643262353365623665333264663466633139386133626262306662663638666637336432666432323832323163313136373630306533316337613163343836222c22696964223a22557073696465646f776e204e6f64654d6f6e6b6573222c227075626c223a2231455337623370636a527a4667796969714c7278484b546e43686535364c4a485937222c226e6f6e6365223a393237362c226d696e746572223a2262633170396e6870633578646563363961397a707a7563396a77773674647579367a70336d716e363477716379786d7474686b7672667a7132673330336e222c22736967223a224845743368444e635861654562374e75574e476d6c4637344a4362645a337838686f366d666c794e36683175576e534c41693477524c46537a45356b30416e6c492f48526c314442752b73757a6e75706f6c30474c4a303d227d68",
        "c0f2d00e1cce0b839d2e197679cac7a15152ec244338032c7767f72c1332d49a65675a92934efa5e4869b2432a3e00abfc6819367af43949c2edc693b32d23ac05"
      ],
      "is_coinbase": false,
      "sequence": 4294967293
    }
  ],
  "vout": [
    {
      "scriptpubkey": "51202cee1c50cdce345e944117305939da5b784d0831d827aab81821b6b5decc1a44",
      "scriptpubkey_asm": "OP_PUSHNUM_1 OP_PUSHBYTES_32 2cee1c50cdce345e944117305939da5b784d0831d827aab81821b6b5decc1a44",
      "scriptpubkey_type": "v1_p2tr",
      "scriptpubkey_address": "bc1p9nhpc5xdec69a9zpzuc9jww6tduy6zp3mqn64wqcyxmtthkvrfzq2g303n",
      "value": 1000
    },
    {
      "scriptpubkey": "5120f62171bf126320eed697da59179bb0a31c00c0460a1a69c591c3c0d0f8f5038f",
      "scriptpubkey_asm": "OP_PUSHNUM_1 OP_PUSHBYTES_32 f62171bf126320eed697da59179bb0a31c00c0460a1a69c591c3c0d0f8f5038f",
      "scriptpubkey_type": "v1_p2tr",
      "scriptpubkey_address": "bc1p7cshr0cjvvswa45hmfv30xas5vwqpszxpgdxn3v3c0qdp784qw8szjtge2",
      "value": 7658
    },
    {
      "scriptpubkey": "51200705a5767db892e98125775049b1a13dd9ecdc8aea0df413cabbee683e871012",
      "scriptpubkey_asm": "OP_PUSHNUM_1 OP_PUSHBYTES_32 0705a5767db892e98125775049b1a13dd9ecdc8aea0df413cabbee683e871012",
      "scriptpubkey_type": "v1_p2tr",
      "scriptpubkey_address": "bc1pquz62anahzfwnqf9wagynvdp8hv7ehy2agxlgy72h0hxs058zqfqk8ksyq",
      "value": 3032
    }
  ],
  "size": 2725,
  "weight": 3265,
  "fee": 8987,
  "status": {
    "confirmed": true,
    "block_height": 834464,
    "block_hash": "0000000000000000000177a0869a911a2b65c9bdcd5a8bcb02b68f305bee848e",
    "block_time": 1710308296
  },
  "hex": "02000000000101bc770b4185665a6a84709291ddac03d7f871851079f8ee287921ef445a2ff5a80000000000fdffffff03e8030000000000002251202cee1c50cdce345e944117305939da5b784d0831d827aab81821b6b5decc1a44ea1d000000000000225120f62171bf126320eed697da59179bb0a31c00c0460a1a69c591c3c0d0f8f5038fd80b0000000000002251200705a5767db892e98125775049b1a13dd9ecdc8aea0df413cabbee683e871012034064a0df03d049bf5cf5caac0877e172571ba1bec4ad9fd01b2862c034d016f2026abfb556c4f0c3c5d86134a3bece1acb1b1db363fbacf0aa845994ac440cc49ffd680920f2d00e1cce0b839d2e197679cac7a15152ec244338032c7767f72c1332d49a65ac0063036f7264010109696d6167652f706e67004d080289504e470d0a1a0a0000000d4948445200000118000001180803000000b05019be000000017352474200aece1ce90000000467414d410000b18f0bfc61050000014d504c5445ff7b00ef7000af3605982f00e26800d15001ed6e00f46900d33400e55400f675066b07005700005b0000ae4802b30100b80a00e04900bd13007a0901ac0100870000a401008b0100861d00e06e13d3a157d1964d722914c03f45f1880ef6e677f8f482ca2900f7f080d16c15f1cc75efb54dc73802e77c00f3b23ef0aa00efa800efa400c61f00a22167c22d71d93579e25c67f0558ae943d0f65ae2ff6bf9ff6af1f170b2e943cdf36dd0fa8bd3ed94aaefce94efce98f3b76aedd095f2d094f2d298d2b68b611c5516100e01042c1d207b1d229d03074a2d1600000000000778000878000ba2070d9000010c050a6b010bac020cb8020ee1020dd0ecd1980310ff000efda6588077674b78696d786c91786eaf796fc9e4c68bc7954fbb9b60da60a9ce778dc7a96dc8a86dbb9b5fe38827e75a97da5facf66454ed4da9ee4cd6f253dcff7463ff7a11ff6dc6733a54ca000000097048597300000ec300000ec301c76fa864000005cd49444154785eedddeb5b14651cc6f15d0e8b1c521015c5002195c00e8aa6a5521692e754cc0e5a6a659995feff2f7b807b6667ae9d9b19bc466656be9f97f3fc6699e7eb5e02bbb3da28e8d5ebcf2a71f642b95ebed286ca4d08024218833006610cc2188431086310c6208c4118833006610cc2188431086310c6208c4118833006610cc2188431086310c6208c4118833006610cc2188431086310c6208c4118833006610cc2188431086310c6208c4118833006610cc2188431086310c6208cf1eaf5395deace2a39cc52e9611aff1574fedf52fda31de579f97741dacece3bb3a44bdd514b67f4e5eb8b3006610cc2188431086310c6d87561a6ff2ce6f48b67657aa19de7a830cc93a7cf0b795aaae7bf69e7392a0d5305c2188431086310c6208c4118833006610cc2188431086310c6208c4118833006610cc2188431086310c6208c4118833006610cc2188431086310c6281ce62fdd6c914bdb294fbdc35c78a613f23cd176ca4318833006610cc2188431086310c6208c51f476d692d53fcce41f55f8bdf661a6972f55e2a2369ea7c2309775a93bea4bc264238c4118833006610cc21884310863140e73fed76296a7b5a1b2d43ecca52f0b39befbc2144218833006610cc2188431de4298e357beaac095da87199afa29f2e8974e8f1f75f859e3298f359f90716ae2e41fb5f13c9585695ebf11b9f3f0870ef76e47eedc946b1a4ffaee41c7b90fd77462704ba7debc795527dcf8461bcf538f301d52616e6d32613a24c34408131026204c40988030eb089344188330c6d6611e561fe6b25ea2dbdaf76f35cc9a3cb817d3ce82adc3dcd7a96b6bf77566f25c9df9464d080261968b39a1fd942611e6aeb671fbae0e840ddfd1a1bc30edb978f9aa0e043af30dc25477cb3c610cc2188431086310c6208cb18d309bde288cceddfe2b7855865991ebd7be95d5151dbcbeb2aa43c1aa5cdb5c4bd34c102fc70f17e8d4d5d5ab5a5ca97d9846ab2f7224a603810e04935f97aae0bb041586296ab9dcb759dea130a5be3157f40d37c2188431086310c6208cb1ebc214fd584e1784b9f845a93ed7ce73744198f3e5fe277867b5f31c8431086310c6208c4118833006610cc218bb2eccb9b34bc5d43fcce94f4bf5c9c7c54ce9cbd7d7ecbe524d8cbc57c448afbe7c7d951d463bcf4118833006610cc218843108637455980319b494a2a5142da5c20c67d15a378539349121a34ce6dc212d26c20c1f52b4a4712d765598839d32c3682d252b4cd6d38d3084d94418c26c204c409834c218ed30fa9124252b8c9652b60e331a3ba8c591dea188aea31e86663f8a8ceae2f7cdf6c7e6237dfbb598b05f4381a682386f3bcc78ff604443416ff402dff0e1486f5317550703718eb6d966647e71414e658469cf354f696c61e1a4169361fa34959cdb1bbff23912196ee9a2ea6060ab0db7e64f2d4a669896e6c28635b6b8981346538b0bf133a68d30016102c2ac230c61361026204c4018233b4c4bf2c24472c374cc756598fe13910fa723f31973273515682ac8f895e07d0d051a0aba31cc07c7223343d11f752b636e6a4e63ed4d7901b9562b2bcc8cc68ecd4c6baad5ecca307391e343d15f23996166343617c244739961343617c2688e300161d6e70843980d840908136486d137d7f56fc3da467698f6b7eb698d359b996134969cebc630539391a37a4937c87809b44753a9b9f8f112618e6a6c72f2c858e470178629fcf6c9841693b6fbf649c2bb13466b298421cc06c2048409086310c6a82e4cf7fc1ca3db10464733ef6248dca81039a0a594035a1c9dd06dabc3c3e359776d1ed4627c5f6b7dc38c0dc81e5d7bd2be412d268c692d257e94f6bf19d63fae04493d5aecdbab2cf50d33a8438d311d481a1dd062c2a0d652e24769eb6b3f29daf66ab1d1af0384d94418c26c220c61361026204c4018833006610cc2188431086310c6208c4118833006618cc4e795de62187d202929114647eaf579a5a13db178eb833a90921166404b291973ad9ede4efd5a6cf4e9406f6f4f9d3ee10600000000000000000000000000000000000000c0f6341aff038aedb3dea19e29df0000000049454e44ae426082680063036f726401011e6170706c69636174696f6e2f6a736f6e3b636861727365743d7574662d38004d69017b2270223a22766f7264222c2276223a312c227479223a22696e7363222c22636f6c223a2261643262353365623665333264663466633139386133626262306662663638666637336432666432323832323163313136373630306533316337613163343836222c22696964223a22557073696465646f776e204e6f64654d6f6e6b6573222c227075626c223a2231455337623370636a527a4667796969714c7278484b546e43686535364c4a485937222c226e6f6e6365223a393237362c226d696e746572223a2262633170396e6870633578646563363961397a707a7563396a77773674647579367a70336d716e363477716379786d7474686b7672667a7132673330336e222c22736967223a224845743368444e635861654562374e75574e476d6c4637344a4362645a337838686f366d666c794e36683175576e534c41693477524c46537a45356b30416e6c492f48526c314442752b73757a6e75706f6c30474c4a303d227d6841c0f2d00e1cce0b839d2e197679cac7a15152ec244338032c7767f72c1332d49a65675a92934efa5e4869b2432a3e00abfc6819367af43949c2edc693b32d23ac0500000000"
}