{
  "txid": "f3c46438a6f7a1954efb43a5a46860db9addc9f8b304af2dd50deaf7e8fea095",
  "version": 2,
  "locktime": 0,
  "vin": [
    {
      "txid": "1673a387fe3e956faec4af03e3feeab5b356976ded6bcb57e523b0ee3cf91a33",
      "vout": 1,
      "prevout": {
        "scriptpubkey": "51207a4fb82dbacb78ac2a1e16d5518347ec7526e84353b2e23bd263c9fe6f2f8f90",
        "scriptpubkey_asm": "OP_PUSHNUM_1 OP_PUSHBYTES_32 7a4fb82dbacb78ac2a1e16d5518347ec7526e84353b2e23bd263c9fe6f2f8f90",
        "scriptpubkey_type": "v1_p2tr",
        "scriptpubkey_address": "bc1p0f8mstd6edu2c2s7zm24rq68a36jd6zr2wewyw7jv0ylume037gq953z5k",
        "value": 600
      },
      "scriptsig": "",
      "scriptsig_asm": "",
      "witness": [
        "8b97471268ffa3cc085722506c47abe7eae16dda6dde20e339809170a6e71412d9d32317241d9ebc901bc19490cfa7836d69790cb23b3773e8104f749211285301"
      ],
      "is_coinbase": false,
      "sequence": 4294967295
    },
    {
      "txid": "1673a387fe3e956faec4af03e3feeab5b356976ded6bcb57e523b0ee3cf91a33",
      "vout": 0,
      "prevout": {
        "scriptpubkey": "51207a4fb82dbacb78ac2a1e16d5518347ec7526e84353b2e23bd263c9fe6f2f8f90",
        "scriptpubkey_asm": "OP_PUSHNUM_1 OP_PUSHBYTES_32 7a4fb82dbacb78ac2a1e16d5518347ec7526e84353b2e23bd263c9fe6f2f8f90",
        "scriptpubkey_type": "v1_p2tr",
        "scriptpubkey_address": "bc1p0f8mstd6edu2c2s7zm24rq68a36jd6zr2wewyw7jv0ylume037gq953z5k",
        "value": 600
      },
      "scriptsig": "",
      "scriptsig_asm": "",
      "witness": [
        "2b7c470d79097361c66350a1fd95b2988b48bd83229d985dc34164ce88ba6a156980e00bf9047bf3a68553d7bf5aa7a1e551cfd20974ebc251ada0a8b5bb784c01"
      ],
      "is_coinbase": false,
      "sequence": 4294967295
    },
    {
      "txid": "cedb984ae7e3d2425549d81eaa24fd1503837d44fab36a95df121493947d5238",
      "vout": 1,
      "prevout": {
        "scriptpubkey": "5120e72ef158230987f0c084c5c2d02f9f2679c12c9f061e4dc91330dc8faee216ac",
        "scriptpubkey_asm": "OP_PUSHNUM_1 OP_PUSHBYTES_32 e72ef158230987f0c084c5c2d02f9f2679c12c9f061e4dc91330dc8faee216ac",
        "scriptpubkey_type": "v1_p2tr",
        "scriptpubkey_address": "bc1puuh0zkprpxrlpsyychpdqtulyeuuztylqc0ymjgnxrwglthzz6kqvtrwz6",
        "value": 546
      },
      "scriptsig": "",
      "scriptsig_asm": "",
      "witness": [
        "0c856497b0c5c924d48963b9321c99974b8d35c472ef138ee78d7c16180a068bb0d2990133dbf98bf1584e46ed0a65e974ba83a8f17923bd54e8df60a045839383"
      ],
      "is_coinbase": false,
      "sequence": 4294967295
    },
    {
      "txid": "1673a387fe3e956faec4af03e3feeab5b356976ded6bcb57e523b0ee3cf91a33",
      "vout": 2,
      "prevout": {
        "scriptpubkey": "51207a4fb82dbacb78ac2a1e16d5518347ec7526e84353b2e23bd263c9fe6f2f8f90",
        "scriptpubkey_asm": "OP_PUSHNUM_1 OP_PUSHBYTES_32 7a4fb82dbacb78ac2a1e16d5518347ec7526e84353b2e23bd263c9fe6f2f8f90",
        "scriptpubkey_type": "v1_p2tr",
        "scriptpubkey_address": "bc1p0f8mstd6edu2c2s7zm24rq68a36jd6zr2wewyw7jv0ylume037gq953z5k",
        "value": 775845
      },
      "scriptsig": "",
      "scriptsig_asm": "",
      "witness": [
        "a54769d5fa2963be73f624dc5d21f065fa69213a2061e308f0bbd57d30ece080624cea811d1db85504b2ae1a8e2b46ee31eb5282343a82e60b2280b6ffc5f46c01"
      ],
      "is_coinbase": false,
      "sequence": 4294967295
    }
  ],
  "vout": [
    {
      "scriptpubkey": "51207a4fb82dbacb78ac2a1e16d5518347ec7526e84353b2e23bd263c9fe6f2f8f90",
      "scriptpubkey_asm": "OP_PUSHNUM_1 OP_PUSHBYTES_32 7a4fb82dbacb78ac2a1e16d5518347ec7526e84353b2e23bd263c9fe6f2f8f90",
      "scriptpubkey_type": "v1_p2tr",
      "scriptpubkey_address": "bc1p0f8mstd6edu2c2s7zm24rq68a36jd6zr2wewyw7jv0ylume037gq953z5k",
      "value": 1200
    },
    {
      "scriptpubkey": "51207a4fb82dbacb78ac2a1e16d5518347ec7526e84353b2e23bd263c9fe6f2f8f90",
      "scriptpubkey_asm": "OP_PUSHNUM_1 OP_PUSHBYTES_32 7a4fb82dbacb78ac2a1e16d5518347ec7526e84353b2e23bd263c9fe6f2f8f90",
      "scriptpubkey_type": "v1_p2tr",
      "scriptpubkey_address": "bc1p0f8mstd6edu2c2s7zm24rq68a36jd6zr2wewyw7jv0ylume037gq953z5k",
      "value": 546
    },
    {
      "scriptpubkey": "5120e72ef158230987f0c084c5c2d02f9f2679c12c9f061e4dc91330dc8faee216ac",
      "scriptpubkey_asm": "OP_PUSHNUM_1 OP_PUSHBYTES_32 e72ef158230987f0c084c5c2d02f9f2679c12c9f061e4dc91330dc8faee216ac",
      "scriptpubkey_type": "v1_p2tr",
      "scriptpubkey_address": "bc1puuh0zkprpxrlpsyychpdqtulyeuuztylqc0ymjgnxrwglthzz6kqvtrwz6",
      "value": 372000
    },
    {
      "scriptpubkey": "51207a4fb82dbacb78ac2a1e16d5518347ec7526e84353b2e23bd263c9fe6f2f8f90",
      "scriptpubkey_asm": "OP_PUSHNUM_1 OP_PUSHBYTES_32 7a4fb82dbacb78ac2a1e16d5518347ec7526e84353b2e23bd263c9fe6f2f8f90",
      "scriptpubkey_type": "v1_p2tr",
      "scriptpubkey_address": "bc1p0f8mstd6edu2c2s7zm24rq68a36jd6zr2wewyw7jv0ylume037gq953z5k",
      "value": 600
    },
    {
      "scriptpubkey": "51207a4fb82dbacb78ac2a1e16d5518347ec7526e84353b2e23bd263c9fe6f2f8f90",
      "scriptpubkey_asm": "OP_PUSHNUM_1 OP_PUSHBYTES_32 7a4fb82dbacb78ac2a1e16d5518347ec7526e84353b2e23bd263c9fe6f2f8f90",
      "scriptpubkey_type": "v1_p2tr",
      "scriptpubkey_address": "bc1p0f8mstd6edu2c2s7zm24rq68a36jd6zr2wewyw7jv0ylume037gq953z5k",
      "value": 600
    },
    {
      "scriptpubkey": "51207a4fb82dbacb78ac2a1e16d5518347ec7526e84353b2e23bd263c9fe6f2f8f90",
      "scriptpubkey_asm": "OP_PUSHNUM_1 OP_PUSHBYTES_32 7a4fb82dbacb78ac2a1e16d5518347ec7526e84353b2e23bd263c9fe6f2f8f90",
      "scriptpubkey_type": "v1_p2tr",
      "scriptpubkey_address": "bc1p0f8mstd6edu2c2s7zm24rq68a36jd6zr2wewyw7jv0ylume037gq953z5k",
      "value": 395413
    }
  ],
  "size": 702,
  "weight": 1998,
  "fee": 7232,
  "status": {
    "confirmed": true,
    "block_height": 834460,
    "block_hash": "00000000000000000000484a79b643b2524bbce82e5d8a442013fa5b8905ed98",
    "block_time": 1710307468
  },
  "hex": "02000000000104331af93ceeb023e557cb6bed6d9756b3b5eafee303afc4ae6f953efe87a373160100000000ffffffff331af93ceeb023e557cb6bed6d9756b3b5eafee303afc4ae6f953efe87a373160000000000ffffffff38527d94931412df956ab3fa447d830315fd24aa1ed8495542d2e3e74a98dbce0100000000ffffffff331af93ceeb023e557cb6bed6d9756b3b5eafee303afc4ae6f953efe87a373160200000000ffffffff06b0040000000000002251207a4fb82dbacb78ac2a1e16d5518347ec7526e84353b2e23bd263c9fe6f2f8f9022020000000000002251207a4fb82dbacb78ac2a1e16d5518347ec7526e84353b2e23bd263c9fe6f2f8f9020ad050000000000225120e72ef158230987f0c084c5c2d02f9f2679c12c9f061e4dc91330dc8faee216ac58020000000000002251207a4fb82dbacb78ac2a1e16d5518347ec7526e84353b2e23bd263c9fe6f2f8f9058020000000000002251207a4fb82dbacb78ac2a1e16d5518347ec7526e84353b2e23bd263c9fe6f2f8f9095080600000000002251207a4fb82dbacb78ac2a1e16d5518347ec7526e84353b2e23bd263c9fe6f2f8f9001418b97471268ffa3cc085722506c47abe7eae16dda6dde20e339809170a6e71412d9d32317241d9ebc901bc19490cfa7836d69790cb23b3773e8104f74921128530101412b7c470d79097361c66350a1fd95b2988b48bd83229d985dc34164ce88ba6a156980e00bf9047bf3a68553d7bf5aa7a1e551cfd20974ebc251ada0a8b5bb784c0101410c856497b0c5c924d48963b9321c99974b8d35c472ef138ee78d7c16180a068bb0d2990133dbf98bf1584e46ed0a65e974ba83a8f17923bd54e8df60a0458393830141a54769d5fa2963be73f624dc5d21f065fa69213a2061e308f0bbd57d30ece080624cea811d1db85504b2ae1a8e2b46ee31eb5282343a82e60b2280b6ffc5f46c0100000000"
}