{
  "txid": "f3d221c5086b88e12afffd8e1a3da0769afc6dbbdc4f376eefc485cee2a9ce34",
  "version": 2,
  "locktime": 0,
  "vin": [
    {
      "txid": "f432064452af66634fdbaa49b0bb262dd1464cf18fb58a0898f9152351df32df",
      "vout": 1,
      "prevout": {
        "scriptpubkey": "00149c0a9f112688c85fcb4417b05c8dec775e4cab36",
        "scriptpubkey_asm": "OP_0 OP_PUSHBYTES_20 9c0a9f112688c85fcb4417b05c8dec775e4cab36",
        "scriptpubkey_type": "v0_p2wpkh",
        "scriptpubkey_address": "bc1qns9f7yfx3ry9lj6yz7c9er0vwa0ye2eklpzqfw",
        "value": 19860454
      },
      "scriptsig": "",
      "scriptsig_asm": "",
      "witness": [
        "30440220662c0564a77f3646413910fe7708bb4848e97719472c5aa094f4efb69445b63202206c0d74a4af0549b0523891529ee325c1c519b3caf7eeca358d35428ebdb98c0c01",
        "02616129debb96ad4f83f00ad5ef5d16ffd7878e7f5dcfb1b193451680631635ee"
      ],
      "is_coinbase": false,
      "sequence": 4294967293
    }
  ],
  "vout": [
    {
      "scriptpubkey": "a914156d924b9888113d9ceb0fc0d77dfcc749866f6c87",
      "scriptpubkey_asm": "OP_HASH160 OP_PUSHBYTES_20 156d924b9888113d9ceb0fc0d77dfcc749866f6c OP_EQUAL",
      "scriptpubkey_type": "p2sh",
      "scriptpubkey_address": "33eKNjMjYybYe9qGBLDpu4NsKdrQSQoV6o",
      "value": 46178
    },
    {
      "scriptpubkey": "00149c0a9f112688c85fcb4417b05c8dec775e4cab36",
      "scriptpubkey_asm": "OP_0 OP_PUSHBYTES_20 9c0a9f112688c85fcb4417b05c8dec775e4cab36",
      "scriptpubkey_type": "v0_p2wpkh",
      "scriptpubkey_address": "bc1qns9f7yfx3ry9lj6yz7c9er0vwa0ye2eklpzqfw",
      "value": 19811720
    }
  ],
  "size": 223,
  "weight": 565,
  "fee": 2556,
  "status": {
    "confirmed": true,
    "block_height": 834638,
    "block_hash": "000000000000000000025f742c626208ac87e0b7d15054abb4a19ca2d735a54e",
    "block_time": 1710405325
  },
  "hex": "02000000000101df32df512315f998088ab58ff14c46d12d26bbb049aadb4f6366af52440632f40100000000fdffffff0262b400000000000017a914156d924b9888113d9ceb0fc0d77dfcc749866f6c87884d2e01000000001600149c0a9f112688c85fcb4417b05c8dec775e4cab36024730440220662c0564a77f3646413910fe7708bb4848e97719472c5aa094f4efb69445b63202206c0d74a4af0549b0523891529ee325c1c519b3caf7eeca358d35428ebdb98c0c012102616129debb96ad4f83f00ad5ef5d16ffd7878e7f5dcfb1b193451680631635ee00000000"
}