{
  "txid": "f3d3d75973a0646d8b93fd27f4dc58c0f27800502dc773186fb3a28aeb53ec64",
  "version": 2,
  "locktime": 0,
  "vin": [
    {
      "txid": "426f08fbaaacdc4b13cb6f428c89487358ea4dac9ed7948a96cfaa3f67ad9d67",
      "vout": 35,
      "prevout": {
        "scriptpubkey": "5120b1122557287b08c1414f42d28b6b77630ad93c13dcf555dd75529ee5b6325f92",
        "scriptpubkey_asm": "OP_PUSHNUM_1 OP_PUSHBYTES_32 b1122557287b08c1414f42d28b6b77630ad93c13dcf555dd75529ee5b6325f92",
        "scriptpubkey_type": "v1_p2tr",
        "scriptpubkey_address": "bc1pkyfz24eg0vyvzs20gtfgk6mhvv9dj0qnmn64tht4220wtd3jt7fqd0mdp0",
        "value": 4599
      },
      "scriptsig": "",
      "scriptsig_asm": "",
      "witness": [
        "0332a7e09454f05f3d27dd1cb2126a9bd04c46a32714773faf1f7b57154f223b9890027b0f86601330607a83e1692b8d88a4775c1506a39cf3b0af9ce1d981c2",
        "209fadd75a74097cfde0f935ddc343208efd7bf5bbc3b00950827b216a176e1d76ac0063036f726401011e6170706c69636174696f6e2f6a736f6e3b636861727365743d7574662d38004cd37b2270223a22706f772d3230222c226f70223a226d696e74222c227469636b223a2250455045222c22616d74223a2231303030222c22736f6c7574696f6e223a22504550453a62633170636a65387233733875656e746d64767a6e34777337786d3836367879707535756139357371796877756835616d61677565367a73707a733637713a303030303030303030303030303030303030303139393431613561653132383937363539383134343239323533333030353762306461393666336465613163353a3238363331383236353032227d68",
        "c1039ed2fd528e891a28907036b81ec900320c2b9f26f0b27e7e5cfd0fc9102a4d"
      ],
      "is_coinbase": false,
      "sequence": 4294967295
    }
  ],
  "vout": [
    {
      "scriptpubkey": "5120c4b271c607e666bdb5829d5d0f1b67d68c40f29ce9690012eee5e9ddf51cce85",
      "scriptpubkey_asm": "OP_PUSHNUM_1 OP_PUSHBYTES_32 c4b271c607e666bdb5829d5d0f1b67d68c40f29ce9690012eee5e9ddf51cce85",
      "scriptpubkey_type": "v1_p2tr",
      "scriptpubkey_address": "bc1pcje8r3s8uentmdvzn4ws7xm866xypu5ua95sqyhwuh5amague6zspzs67q",
      "value": 546
    }
  ],
  "size": 487,
  "weight": 769,
  "fee": 4053,
  "status": {
    "confirmed": true,
    "block_height": 834460,
    "block_hash": "00000000000000000000484a79b643b2524bbce82e5d8a442013fa5b8905ed98",
    "block_time": 1710307468
  },
  "hex": "02000000000101679dad673faacf968a94d79eac4dea587348898c426fcb134bdcacaafb086f422300000000ffffffff012202000000000000225120c4b271c607e666bdb5829d5d0f1b67d68c40f29ce9690012eee5e9ddf51cce8503400332a7e09454f05f3d27dd1cb2126a9bd04c46a32714773faf1f7b57154f223b9890027b0f86601330607a83e1692b8d88a4775c1506a39cf3b0af9ce1d981c2fd2001209fadd75a74097cfde0f935ddc343208efd7bf5bbc3b00950827b216a176e1d76ac0063036f726401011e6170706c69636174696f6e2f6a736f6e3b636861727365743d7574662d38004cd37b2270223a22706f772d3230222c226f70223a226d696e74222c227469636b223a2250455045222c22616d74223a2231303030222c22736f6c7574696f6e223a22504550453a62633170636a65387233733875656e746d64767a6e34777337786d3836367879707535756139357371796877756835616d61677565367a73707a733637713a303030303030303030303030303030303030303139393431613561653132383937363539383134343239323533333030353762306461393666336465613163353a3238363331383236353032227d6821c1039ed2fd528e891a28907036b81ec900320c2b9f26f0b27e7e5cfd0fc9102a4d00000000"
}