{
  "txid": "f3e83c448489faab14a6d5b58de0feb4ab398863113e46234b8397ab8428bd39",
  "version": 2,
  "locktime": 0,
  "vin": [
    {
      "txid": "e3c611d02300cbd2e70b12b64c417e211c9e312ac426a6df87f763ac90076b62",
      "vout": 0,
      "prevout": {
        "scriptpubkey": "5120ce1039e86ac13577cd4326765ba3200b544396098351b2e80f43249242f1df4b",
        "scriptpubkey_asm": "OP_PUSHNUM_1 OP_PUSHBYTES_32 ce1039e86ac13577cd4326765ba3200b544396098351b2e80f43249242f1df4b",
        "scriptpubkey_type": "v1_p2tr",
        "scriptpubkey_address": "bc1pecgrn6r2cy6h0n2ryem9hgeqpd2y89sfsdgm96q0gvjfysh3ma9s5qk0xg",
        "value": 546
      },
      "scriptsig": "",
      "scriptsig_asm": "",
      "witness": [
        "32dd5a507eef8259024b0df32a35b4e96d06b716a603fbd7664ee6ed70170737e4a86663d181be97b3a284698fbb5e7dffb5f6e6978dc3ac28d70bed8713c1f4"
      ],
      "is_coinbase": false,
      "sequence": 4294967295
    },
    {
      "txid": "97f76ec97efcc942b172142455f3b20f10742c6d8a6011037657a1d5d5eb4ea4",
      "vout": 1,
      "prevout": {
        "scriptpubkey": "5120ce1039e86ac13577cd4326765ba3200b544396098351b2e80f43249242f1df4b",
        "scriptpubkey_asm": "OP_PUSHNUM_1 OP_PUSHBYTES_32 ce1039e86ac13577cd4326765ba3200b544396098351b2e80f43249242f1df4b",
        "scriptpubkey_type": "v1_p2tr",
        "scriptpubkey_address": "bc1pecgrn6r2cy6h0n2ryem9hgeqpd2y89sfsdgm96q0gvjfysh3ma9s5qk0xg",
        "value": 41915
      },
      "scriptsig": "",
      "scriptsig_asm": "",
      "witness": [
        "4f9729ebbb73d0838b5547d05d5f7fbb030f6bd146fef0a8f7b7b29a4f0ebc4a42a1f71f7b947d1544fb9d18c43320ede6707e8d376db6e754533c63d1a8b38c"
      ],
      "is_coinbase": false,
      "sequence": 4294967295
    }
  ],
  "vout": [
    {
      "scriptpubkey": "512056c91d60bde13ced44821835e0b073398160f0137fd6fb47277c7c1732393502",
      "scriptpubkey_asm": "OP_PUSHNUM_1 OP_PUSHBYTES_32 56c91d60bde13ced44821835e0b073398160f0137fd6fb47277c7c1732393502",
      "scriptpubkey_type": "v1_p2tr",
      "scriptpubkey_address": "bc1p2my36c9auy7w63yzrq67pvrn8xqkpuqn0lt0k3e8037pwv3ex5pqjjl7ne",
      "value": 546
    },
    {
      "scriptpubkey": "5120ce1039e86ac13577cd4326765ba3200b544396098351b2e80f43249242f1df4b",
      "scriptpubkey_asm": "OP_PUSHNUM_1 OP_PUSHBYTES_32 ce1039e86ac13577cd4326765ba3200b544396098351b2e80f43249242f1df4b",
      "scriptpubkey_type": "v1_p2tr",
      "scriptpubkey_address": "bc1pecgrn6r2cy6h0n2ryem9hgeqpd2y89sfsdgm96q0gvjfysh3ma9s5qk0xg",
      "value": 38735
    }
  ],
  "size": 312,
  "weight": 846,
  "fee": 3180,
  "status": {
    "confirmed": true,
    "block_height": 834460,
    "block_hash": "00000000000000000000484a79b643b2524bbce82e5d8a442013fa5b8905ed98",
    "block_time": 1710307468
  },
  "hex": "02000000000102626b0790ac63f787dfa626c42a319e1c217e414cb6120be7d2cb0023d011c6e30000000000ffffffffa44eebd5d5a157760311608a6d2c74100fb2f355241472b142c9fc7ec96ef7970100000000ffffffff02220200000000000022512056c91d60bde13ced44821835e0b073398160f0137fd6fb47277c7c17323935024f97000000000000225120ce1039e86ac13577cd4326765ba3200b544396098351b2e80f43249242f1df4b014032dd5a507eef8259024b0df32a35b4e96d06b716a603fbd7664ee6ed70170737e4a86663d181be97b3a284698fbb5e7dffb5f6e6978dc3ac28d70bed8713c1f401404f9729ebbb73d0838b5547d05d5f7fbb030f6bd146fef0a8f7b7b29a4f0ebc4a42a1f71f7b947d1544fb9d18c43320ede6707e8d376db6e754533c63d1a8b38c00000000"
}