{
  "txid": "f3f8b6d2a2b56bd5cd2a6bd1a49ae88b49fd7bc3c7c54b6913847eeaf3968d53",
  "version": 2,
  "locktime": 0,
  "vin": [
    {
      "txid": "d7f3c2bae988237ba72b375a340219abe796f135718844d6a135743e75c5c9a6",
      "vout": 0,
      "prevout": {
        "scriptpubkey": "0014c8165331294f7b4611399acdb171b46ead63280e",
        "scriptpubkey_asm": "OP_0 OP_PUSHBYTES_20 c8165331294f7b4611399acdb171b46ead63280e",
        "scriptpubkey_type": "v0_p2wpkh",
        "scriptpubkey_address": "bc1qeqt9xvfffaa5vyfentxmzud5d6kkx2qwpy49we",
        "value": 2000000
      },
      "scriptsig": "",
      "scriptsig_asm": "",
      "witness": [
        "304402200601147c9e1ee79254bfc9ac11a64463846fa1c5e92743cb6b98d7f0e255bf8b02207c64fc00031254ca7caf0b8e57d345c5e51cf478bd2190c2f5d867956d7395a601",
        "027b3249ed10a5254ef1e79a14fb0957520dcf08fc70f94ee995f8ce185d5ab850"
      ],
      "is_coinbase": false,
      "sequence": 4294967295
    },
    {
      "txid": "7094760e2202e4bc377392a270a28098dd488d05b174e5560ea014583b6a9f75",
      "vout": 8,
      "prevout": {
        "scriptpubkey": "0014c8165331294f7b4611399acdb171b46ead63280e",
        "scriptpubkey_asm": "OP_0 OP_PUSHBYTES_20 c8165331294f7b4611399acdb171b46ead63280e",
        "scriptpubkey_type": "v0_p2wpkh",
        "scriptpubkey_address": "bc1qeqt9xvfffaa5vyfentxmzud5d6kkx2qwpy49we",
        "value": 2038805
      },
      "scriptsig": "",
      "scriptsig_asm": "",
      "witness": [
        "30450221009fc0d9ee8fb44f41ae0072194e9f16057c093ed84e5f197233244e289ec83f7e02206670a00fd677940e2d9d4279d4cdd952a48c2f586bbd1cebc6ac5514a82e1f4b01",
        "027b3249ed10a5254ef1e79a14fb0957520dcf08fc70f94ee995f8ce185d5ab850"
      ],
      "is_coinbase": false,
      "sequence": 4294967295
    },
    {
      "txid": "296b6b6967a20bda1d95602049154679ec971a73fb7ed4b82803b3e4d2ddd5b9",
      "vout": 0,
      "prevout": {
        "scriptpubkey": "0014c8165331294f7b4611399acdb171b46ead63280e",
        "scriptpubkey_asm": "OP_0 OP_PUSHBYTES_20 c8165331294f7b4611399acdb171b46ead63280e",
        "scriptpubkey_type": "v0_p2wpkh",
        "scriptpubkey_address": "bc1qeqt9xvfffaa5vyfentxmzud5d6kkx2qwpy49we",
        "value": 6090000
      },
      "scriptsig": "",
      "scriptsig_asm": "",
      "witness": [
        "304402205256086907becf1a6258d860f1e5d6b9f4a1e77c0a92285a96946bde5036832902204aa3e51a8a27720a5358a0a2c9a0f6fd3b8557faaab64e808d5785215b08f6f601",
        "027b3249ed10a5254ef1e79a14fb0957520dcf08fc70f94ee995f8ce185d5ab850"
      ],
      "is_coinbase": false,
      "sequence": 4294967295
    }
  ],
  "vout": [
    {
      "scriptpubkey": "0014c8165331294f7b4611399acdb171b46ead63280e",
      "scriptpubkey_asm": "OP_0 OP_PUSHBYTES_20 c8165331294f7b4611399acdb171b46ead63280e",
      "scriptpubkey_type": "v0_p2wpkh",
      "scriptpubkey_address": "bc1qeqt9xvfffaa5vyfentxmzud5d6kkx2qwpy49we",
      "value": 1863601
    },
    {
      "scriptpubkey": "0014d45e6cf681031d791b3f17a2dacece393cbfbeea",
      "scriptpubkey_asm": "OP_0 OP_PUSHBYTES_20 d45e6cf681031d791b3f17a2dacece393cbfbeea",
      "scriptpubkey_type": "v0_p2wpkh",
      "scriptpubkey_address": "bc1q630xea5pqvwhjxelz73d4nkw8y7tl0h2j67aju",
      "value": 8260914
    }
  ],
  "size": 519,
  "weight": 1104,
  "fee": 4290,
  "status": {
    "confirmed": true,
    "block_height": 834638,
    "block_hash": "000000000000000000025f742c626208ac87e0b7d15054abb4a19ca2d735a54e",
    "block_time": 1710405325
  },
  "hex": "02000000000103a6c9c5753e7435a1d644887135f196e7ab1902345a372ba77b2388e9bac2f3d70000000000ffffffff759f6a3b5814a00e56e574b1058d48dd9880a270a2927337bce402220e7694700800000000ffffffffb9d5ddd2e4b30328b8d47efb731a97ec794615492060951dda0ba267696b6b290000000000ffffffff02b16f1c0000000000160014c8165331294f7b4611399acdb171b46ead63280e320d7e0000000000160014d45e6cf681031d791b3f17a2dacece393cbfbeea0247304402200601147c9e1ee79254bfc9ac11a64463846fa1c5e92743cb6b98d7f0e255bf8b02207c64fc00031254ca7caf0b8e57d345c5e51cf478bd2190c2f5d867956d7395a60121027b3249ed10a5254ef1e79a14fb0957520dcf08fc70f94ee995f8ce185d5ab850024830450221009fc0d9ee8fb44f41ae0072194e9f16057c093ed84e5f197233244e289ec83f7e02206670a00fd677940e2d9d4279d4cdd952a48c2f586bbd1cebc6ac5514a82e1f4b0121027b3249ed10a5254ef1e79a14fb0957520dcf08fc70f94ee995f8ce185d5ab8500247304402205256086907becf1a6258d860f1e5d6b9f4a1e77c0a92285a96946bde5036832902204aa3e51a8a27720a5358a0a2c9a0f6fd3b8557faaab64e808d5785215b08f6f60121027b3249ed10a5254ef1e79a14fb0957520dcf08fc70f94ee995f8ce185d5ab85000000000"
}