{
  "txid": "f4332146c23b1c2dcbfeae99b119acb8502b44956ec1a5872a0b29ac6e37ee2d",
  "version": 1,
  "locktime": 0,
  "vin": [
    {
      "txid": "441ae721c08a0df9069d77ccb2c39b9758204540514975473495c60df9e3406f",
      "vout": 3,
      "prevout": {
        "scriptpubkey": "0014a61146cd00ce9ca607a3116e43f36b0493ad23b4",
        "scriptpubkey_asm": "OP_0 OP_PUSHBYTES_20 a61146cd00ce9ca607a3116e43f36b0493ad23b4",
        "scriptpubkey_type": "v0_p2wpkh",
        "scriptpubkey_address": "bc1q5cg5dngqe6w2vparz9hy8umtqjf66ga589s3x6",
        "value": 109420
      },
      "scriptsig": "",
      "scriptsig_asm": "",
      "witness": [
        "304402201fa5955cb5b6a49f7ba8b912419c02c0290eec391de758b768394bdb37c6fea902202b7e38a39d49e801a3fd4275253fc874a1c81440f296451264450e42a3884ffa01",
        "0369a2d11d312e442307d02159f155e4bf6a90ccfe5c9d31e9c764db3481e05be9"
      ],
      "is_coinbase": false,
      "sequence": 4294967295
    },
    {
      "txid": "8773725e7f0291f5c11c684ba7b015406bc97d27011553cfaad32b35295afaf9",
      "vout": 0,
      "prevout": {
        "scriptpubkey": "001432e2b2427586ba5e7a6aed76ce16385bcb476bd1",
        "scriptpubkey_asm": "OP_0 OP_PUSHBYTES_20 32e2b2427586ba5e7a6aed76ce16385bcb476bd1",
        "scriptpubkey_type": "v0_p2wpkh",
        "scriptpubkey_address": "bc1qxt3tysn4s6a9u7n2a4mvu93ct095w67399jzdr",
        "value": 119852
      },
      "scriptsig": "",
      "scriptsig_asm": "",
      "witness": [
        "30440220317d5ef594f18ee77fa14935a6ddbdf9bab095ae12a09bb06ac9bb3906baf1c802207a495532fc834fade1bd0fcbf633b327c3906190a183513cc3bac8258756d81101",
        "03632738020e8271e0ace68ec891010be13302cfedff79fb56484bea1c7dd222c7"
      ],
      "is_coinbase": false,
      "sequence": 4294967295
    },
    {
      "txid": "5c485eb202120217786dfaf6e08dc47be58dddcf2b0f7b1ea06b34483303b6c2",
      "vout": 0,
      "prevout": {
        "scriptpubkey": "0014b583ade6a62beec7ee027b114e03a2ee12a0ce8f",
        "scriptpubkey_asm": "OP_0 OP_PUSHBYTES_20 b583ade6a62beec7ee027b114e03a2ee12a0ce8f",
        "scriptpubkey_type": "v0_p2wpkh",
        "scriptpubkey_address": "bc1qkkp6me4x90hv0msz0vg5uqazacf2pn50pgq4hk",
        "value": 127909
      },
      "scriptsig": "",
      "scriptsig_asm": "",
      "witness": [
        "30440220017e22a98e598baa6c11b2c892a2c6563e92c1ea29cfad28abacbb0dc8e8dee1022077544769c83947e994b73617a19585c4b3837a15be124b3f580e51690122902001",
        "023f3237f042be8cc559bd75f5ddbfb27565d501298a11179574acb4ee225c3d43"
      ],
      "is_coinbase": false,
      "sequence": 4294967295
    },
    {
      "txid": "c8e844534c4756c21ef68511092a2c78216fc32411f6d3127ac62bd650ff5816",
      "vout": 0,
      "prevout": {
        "scriptpubkey": "00147f4f3776f49d05d2f1b76726db319915c32f1a58",
        "scriptpubkey_asm": "OP_0 OP_PUSHBYTES_20 7f4f3776f49d05d2f1b76726db319915c32f1a58",
        "scriptpubkey_type": "v0_p2wpkh",
        "scriptpubkey_address": "bc1q0a8nwah5n5za9udhvundkvvezhpj7xjc4yq7j3",
        "value": 128600
      },
      "scriptsig": "",
      "scriptsig_asm": "",
      "witness": [
        "3045022100ab80893e20c07095770fa5f281dcf3bbb5a75b6c3a2cf5fe4a125846b04fe6cd02206ee833f7ed174616295a5f16e84cf1106297736364f592b3b5046866fc20764e01",
        "0207d2ce0cc0bbb6103f024d1d067f3c141a21a90e5db3e1a30b7fdfe3407dde3d"
      ],
      "is_coinbase": false,
      "sequence": 4294967295
    },
    {
      "txid": "e279a4e7f4c3abcb410e6f37174d65e22ed7e8283fa9da9a1d81341473556277",
      "vout": 23,
      "prevout": {
        "scriptpubkey": "001481ae507fe6817e8bd98c292b0bdd54d2ff548e30",
        "scriptpubkey_asm": "OP_0 OP_PUSHBYTES_20 81ae507fe6817e8bd98c292b0bdd54d2ff548e30",
        "scriptpubkey_type": "v0_p2wpkh",
        "scriptpubkey_address": "bc1qsxh9qllxs9lghkvv9y4shh256tl4fr3saeckem",
        "value": 130143
      },
      "scriptsig": "",
      "scriptsig_asm": "",
      "witness": [
        "304402204bc5996bdd605e7cdd95ab22505944cb896c318f3aad5f9a2d9647781a347d500220213d5f8b6c2a71dbe34e568b532f358d871c4be2d10dcd482aa4ef7ed5d8885b01",
        "03e7fad42a26ad9b4f3e33401cefacf56fbeb4fe63654fcb7a8689e0cb22c9cc23"
      ],
      "is_coinbase": false,
      "sequence": 4294967295
    },
    {
      "txid": "6b2122361e9dbc0a3b2eb20ab259378380217a25373ac7e8d7dcf7c6bdea3ad0",
      "vout": 25,
      "prevout": {
        "scriptpubkey": "0014796d66c41d5672e261fedc99fc8810f63a456745",
        "scriptpubkey_asm": "OP_0 OP_PUSHBYTES_20 796d66c41d5672e261fedc99fc8810f63a456745",
        "scriptpubkey_type": "v0_p2wpkh",
        "scriptpubkey_address": "bc1q09kkd3qa2eewyc07mjvlezqs7cay2e699cj8pc",
        "value": 130274
      },
      "scriptsig": "",
      "scriptsig_asm": "",
      "witness": [
        "304402206c3b8c7d85ae99faba679f427709084804b1cb8afb78567a3e300a77f97b915e022068e87a6c7e0b4c7b5555d2c0d23dc297b2941d87be1b42b2539ee5465f96557c01",
        "03e23defd2a57c1663292f27beae90884b389f270f2b30f54859380d4b426b5239"
      ],
      "is_coinbase": false,
      "sequence": 4294967295
    },
    {
      "txid": "ae2e164c2934f0fe7462e1c75a81920e775da811cff9543affcc7dc5097bd0bc",
      "vout": 10,
      "prevout": {
        "scriptpubkey": "00144c10b7412fdc7a2bd139503f543ffbabd504cea6",
        "scriptpubkey_asm": "OP_0 OP_PUSHBYTES_20 4c10b7412fdc7a2bd139503f543ffbabd504cea6",
        "scriptpubkey_type": "v0_p2wpkh",
        "scriptpubkey_address": "bc1qfsgtwsf0m3azh5fe2ql4g0lm402sfn4xrgjpad",
        "value": 273000
      },
      "scriptsig": "",
      "scriptsig_asm": "",
      "witness": [
        "3045022100f23969dd3ff997146db755b05d1de4a4840d989f09c42a7658e8951ec723cdcd022068a8fb25bbd9e9f3977f20f957239e065a660d67d192cbd92f91358efd292f4601",
        "02006b245d9535e485f2c9f11da58f8235e5cb124383455208cca9b12c39e206fb"
      ],
      "is_coinbase": false,
      "sequence": 4294967295
    }
  ],
  "vout": [
    {
      "scriptpubkey": "a91421e13a2f71a23699fbee386064e5886250b530c587",
      "scriptpubkey_asm": "OP_HASH160 OP_PUSHBYTES_20 21e13a2f71a23699fbee386064e5886250b530c5 OP_EQUAL",
      "scriptpubkey_type": "p2sh",
      "scriptpubkey_address": "34nA2wVeJwMGsyGstMfTtQDDJzR7pYRJdi",
      "value": 1000000
    },
    {
      "scriptpubkey": "0014c115a883b77c5526b820f2a88ce4d6e34b3cfd98",
      "scriptpubkey_asm": "OP_0 OP_PUSHBYTES_20 c115a883b77c5526b820f2a88ce4d6e34b3cfd98",
      "scriptpubkey_type": "v0_p2wpkh",
      "scriptpubkey_address": "bc1qcy263qah032jdwpq725geexkud9nelvcchud0c",
      "value": 11264
    }
  ],
  "size": 1113,
  "weight": 2193,
  "fee": 7934,
  "status": {
    "confirmed": true,
    "block_height": 834638,
    "block_hash": "000000000000000000025f742c626208ac87e0b7d15054abb4a19ca2d735a54e",
    "block_time": 1710405325
  },
  "hex": "010000000001076f40e3f90dc695344775495140452058979bc3b2cc779d06f90d8ac021e71a440300000000fffffffff9fa5a29352bd3aacf531501277dc96b4015b0a74b681cc1f591027f5e7273870000000000ffffffffc2b6033348346ba01e7b0f2bcfdd8de57bc48de0f6fa6d7817021202b25e485c0000000000ffffffff1658ff50d62bc67a12d3f61124c36f21782c2a091185f61ec256474c5344e8c80000000000ffffffff776255731434811d9adaa93f28e8d72ee2654d17376f0e41cbabc3f4e7a479e21700000000ffffffffd03aeabdc6f7dcd7e8c73a37257a2180833759b20ab22e3b0abc9d1e3622216b1900000000ffffffffbcd07b09c57dccff3a54f9cf11a85d770e92815ac7e16274fef034294c162eae0a00000000ffffffff0240420f000000000017a91421e13a2f71a23699fbee386064e5886250b530c587002c000000000000160014c115a883b77c5526b820f2a88ce4d6e34b3cfd980247304402201fa5955cb5b6a49f7ba8b912419c02c0290eec391de758b768394bdb37c6fea902202b7e38a39d49e801a3fd4275253fc874a1c81440f296451264450e42a3884ffa01210369a2d11d312e442307d02159f155e4bf6a90ccfe5c9d31e9c764db3481e05be9024730440220317d5ef594f18ee77fa14935a6ddbdf9bab095ae12a09bb06ac9bb3906baf1c802207a495532fc834fade1bd0fcbf633b327c3906190a183513cc3bac8258756d811012103632738020e8271e0ace68ec891010be13302cfedff79fb56484bea1c7dd222c7024730440220017e22a98e598baa6c11b2c892a2c6563e92c1ea29cfad28abacbb0dc8e8dee1022077544769c83947e994b73617a19585c4b3837a15be124b3f580e5169012290200121023f3237f042be8cc559bd75f5ddbfb27565d501298a11179574acb4ee225c3d4302483045022100ab80893e20c07095770fa5f281dcf3bbb5a75b6c3a2cf5fe4a125846b04fe6cd02206ee833f7ed174616295a5f16e84cf1106297736364f592b3b5046866fc20764e01210207d2ce0cc0bbb6103f024d1d067f3c141a21a90e5db3e1a30b7fdfe3407dde3d0247304402204bc5996bdd605e7cdd95ab22505944cb896c318f3aad5f9a2d9647781a347d500220213d5f8b6c2a71dbe34e568b532f358d871c4be2d10dcd482aa4ef7ed5d8885b012103e7fad42a26ad9b4f3e33401cefacf56fbeb4fe63654fcb7a8689e0cb22c9cc230247304402206c3b8c7d85ae99faba679f427709084804b1cb8afb78567a3e300a77f97b915e022068e87a6c7e0b4c7b5555d2c0d23dc297b2941d87be1b42b2539ee5465f96557c012103e23defd2a57c1663292f27beae90884b389f270f2b30f54859380d4b426b523902483045022100f23969dd3ff997146db755b05d1de4a4840d989f09c42a7658e8951ec723cdcd022068a8fb25bbd9e9f3977f20f957239e065a660d67d192cbd92f91358efd292f46012102006b245d9535e485f2c9f11da58f8235e5cb124383455208cca9b12c39e206fb00000000"
}