{
  "txid": "f441b2351a64a7831d87fbd74210fd2afb0d775bfe4d1efe0033714bc35719c5",
  "version": 2,
  "locktime": 0,
  "vin": [
    {
      "txid": "5c3864e3e852ec96346d84fbc3195b536ef1db1891f28d4b48dba69c282b1a0d",
      "vout": 12,
      "prevout": {
        "scriptpubkey": "5120e5487643b9d654fbd326f4c0f2dbebf6a5f3224c747f68ea9ced156e002d7fb6",
        "scriptpubkey_asm": "OP_PUSHNUM_1 OP_PUSHBYTES_32 e5487643b9d654fbd326f4c0f2dbebf6a5f3224c747f68ea9ced156e002d7fb6",
        "scriptpubkey_type": "v1_p2tr",
        "scriptpubkey_address": "bc1pu4y8vsae6e20h5ex7nq09klt76jlxgjvw3lk365ua52kuqpd07mqvtul6w",
        "value": 3055
      },
      "scriptsig": "",
      "scriptsig_asm": "",
      "witness": [
        "dff7a07e68f20c852d63751a03da620e02a5f7f6395568e8f833d27e576c83ff39766e8b64767a1b1570accc5fb56619b2c22341dad29a265df9eeefc326ed2b",
        "209fe832aa34e1531d5bba3e876c9ded4851d144e866f41b3f16a12ee58c56480eac0063036f726401011e6170706c69636174696f6e2f6a736f6e3b636861727365743d7574662d38004cd37b2270223a22706f772d3230222c226f70223a226d696e74222c227469636b223a2250455045222c22616d74223a2231303030222c22736f6c7574696f6e223a22504550453a626331703237796d68736b396a36716e706b7367767973363471356663717670646465716a6832716a796c6330793861667138663261727375637776796b3a303030303030303030303030303030303030303139393431613561653132383937363539383134343239323533333030353762306461393666336465613163353a3533323334383233393337227d68",
        "c029e6ca6c8c5ab61eaab81da0d3884f0ac7596b050aac6663ac46dee308a1dbc8"
      ],
      "is_coinbase": false,
      "sequence": 4294967295
    }
  ],
  "vout": [
    {
      "scriptpubkey": "51205789bbc2c5968130da086121aa8289c01816b72095d40913f8790fd480e95747",
      "scriptpubkey_asm": "OP_PUSHNUM_1 OP_PUSHBYTES_32 5789bbc2c5968130da086121aa8289c01816b72095d40913f8790fd480e95747",
      "scriptpubkey_type": "v1_p2tr",
      "scriptpubkey_address": "bc1p27ymhsk9j6qnpksgvys64q5fcqvpddeqjh2qjylc0y8afq8f2arsucwvyk",
      "value": 546
    }
  ],
  "size": 487,
  "weight": 769,
  "fee": 2509,
  "status": {
    "confirmed": true,
    "block_height": 834460,
    "block_hash": "00000000000000000000484a79b643b2524bbce82e5d8a442013fa5b8905ed98",
    "block_time": 1710307468
  },
  "hex": "020000000001010d1a2b289ca6db484b8df29118dbf16e535b19c3fb846d3496ec52e8e364385c0c00000000ffffffff0122020000000000002251205789bbc2c5968130da086121aa8289c01816b72095d40913f8790fd480e957470340dff7a07e68f20c852d63751a03da620e02a5f7f6395568e8f833d27e576c83ff39766e8b64767a1b1570accc5fb56619b2c22341dad29a265df9eeefc326ed2bfd2001209fe832aa34e1531d5bba3e876c9ded4851d144e866f41b3f16a12ee58c56480eac0063036f726401011e6170706c69636174696f6e2f6a736f6e3b636861727365743d7574662d38004cd37b2270223a22706f772d3230222c226f70223a226d696e74222c227469636b223a2250455045222c22616d74223a2231303030222c22736f6c7574696f6e223a22504550453a626331703237796d68736b396a36716e706b7367767973363471356663717670646465716a6832716a796c6330793861667138663261727375637776796b3a303030303030303030303030303030303030303139393431613561653132383937363539383134343239323533333030353762306461393666336465613163353a3533323334383233393337227d6821c029e6ca6c8c5ab61eaab81da0d3884f0ac7596b050aac6663ac46dee308a1dbc800000000"
}