{
  "txid": "f44569e87e7355f040e813fb63b7cbd7a3353eb7d1f251a60537cfd129a0709c",
  "version": 2,
  "locktime": 0,
  "vin": [
    {
      "txid": "ca49732a8789b812361e997512b66bc3787f1e3ff39f5f0d8b845e09438043f6",
      "vout": 13,
      "prevout": {
        "scriptpubkey": "512058e1c403070b0c23b5d92212d739278b6310ff351cc75d20831d85278a36f6ed",
        "scriptpubkey_asm": "OP_PUSHNUM_1 OP_PUSHBYTES_32 58e1c403070b0c23b5d92212d739278b6310ff351cc75d20831d85278a36f6ed",
        "scriptpubkey_type": "v1_p2tr",
        "scriptpubkey_address": "bc1ptrsugqc8pvxz8dweygfdwwf83d33ple4rnr46gyrrkzj0z3k7mks2ujkvr",
        "value": 2066
      },
      "scriptsig": "",
      "scriptsig_asm": "",
      "witness": [
        "9bb5fc88a224c6d996bb292b8c869db96f8e5b12e9a071e8b773410d4cc640a060ccfd83f33f40be6a0df15e38f5df5b00ddef3f66df21483516d389409a0679",
        "2007d8dd0bba2e4fb352d32de6fca3a72b8ba892f039f7a218b0e660c673e088f4ac0063036f726401010a746578742f706c61696e00367b2270223a226272632d3230222c226f70223a226d696e74222c227469636b223a2261616161222c22616d74223a223130303030227d68",
        "c007d8dd0bba2e4fb352d32de6fca3a72b8ba892f039f7a218b0e660c673e088f4"
      ],
      "is_coinbase": false,
      "sequence": 4261412863
    }
  ],
  "vout": [
    {
      "scriptpubkey": "0014b12a255b419b46c01324705abea5fd2949f55051",
      "scriptpubkey_asm": "OP_0 OP_PUSHBYTES_20 b12a255b419b46c01324705abea5fd2949f55051",
      "scriptpubkey_type": "v0_p2wpkh",
      "scriptpubkey_address": "bc1qky4z2k6pndrvqyeywpdtaf0a99yl25z3zp84r6",
      "value": 294
    }
  ],
  "size": 295,
  "weight": 541,
  "fee": 1772,
  "status": {
    "confirmed": true,
    "block_height": 834460,
    "block_hash": "00000000000000000000484a79b643b2524bbce82e5d8a442013fa5b8905ed98",
    "block_time": 1710307468
  },
  "hex": "02000000000101f6438043095e848b0d5f9ff33f1e7f78c36bb61275991e3612b889872a7349ca0d00000000fffffffd012601000000000000160014b12a255b419b46c01324705abea5fd2949f5505103409bb5fc88a224c6d996bb292b8c869db96f8e5b12e9a071e8b773410d4cc640a060ccfd83f33f40be6a0df15e38f5df5b00ddef3f66df21483516d389409a06796e2007d8dd0bba2e4fb352d32de6fca3a72b8ba892f039f7a218b0e660c673e088f4ac0063036f726401010a746578742f706c61696e00367b2270223a226272632d3230222c226f70223a226d696e74222c227469636b223a2261616161222c22616d74223a223130303030227d6821c007d8dd0bba2e4fb352d32de6fca3a72b8ba892f039f7a218b0e660c673e088f400000000"
}