{
  "txid": "f45b6b9a7416aa5aa83b0f033bedb4bd248b9fe7f7f04085f582c5d64639e53b",
  "version": 2,
  "locktime": 0,
  "vin": [
    {
      "txid": "945ba8d4ae757dce36cd5e5b9cb282a5396c6e6972016ea5d78f63b2e8fe9e52",
      "vout": 6,
      "prevout": {
        "scriptpubkey": "51208df629be147d53d7e83c59d000264e8f8078bf42a781f66b05c38ab4d05ecce4",
        "scriptpubkey_asm": "OP_PUSHNUM_1 OP_PUSHBYTES_32 8df629be147d53d7e83c59d000264e8f8078bf42a781f66b05c38ab4d05ecce4",
        "scriptpubkey_type": "v1_p2tr",
        "scriptpubkey_address": "bc1p3hmzn0s504fa06put8gqqfjw37q8306z57qlv6c9cw9tf5z7enjq9rwcxn",
        "value": 2862
      },
      "scriptsig": "",
      "scriptsig_asm": "",
      "witness": [
        "05300b9f5b5e0b0da57fc39b5192cb9f05217f56db105936cc7b02cd95783092489c4ac0d8f65966068156343cf2bb99ec5c0a08ff183bbf0a2528089e5f53a8",
        "20a76d27aa60782f5372eda3d06ed86daf3f7ccd9110809a5f76be04ec72f899e4ac0063036f726401011e6170706c69636174696f6e2f6a736f6e3b636861727365743d7574662d38004cd37b2270223a22706f772d3230222c226f70223a226d696e74222c227469636b223a2250455045222c22616d74223a2231303030222c22736f6c7574696f6e223a22504550453a62633170367a67656779647861737432786571616535763930396434396a323636786e707a6178776634386336786b736871703766797a717734733761663a303030303030303030303030303030303030303139393431613561653132383937363539383134343239323533333030353762306461393666336465613163353a3138363634353338303935227d68",
        "c15067337a99a00666fd957e65b5c212a7b30f6b410af3fccba2d4635da920c85e"
      ],
      "is_coinbase": false,
      "sequence": 4294967295
    }
  ],
  "vout": [
    {
      "scriptpubkey": "5120d0919411a6ec16a3641dcd185795b52c95ad1a61174ce4d4f8d1ad0b803e4904",
      "scriptpubkey_asm": "OP_PUSHNUM_1 OP_PUSHBYTES_32 d0919411a6ec16a3641dcd185795b52c95ad1a61174ce4d4f8d1ad0b803e4904",
      "scriptpubkey_type": "v1_p2tr",
      "scriptpubkey_address": "bc1p6zgegydxast2xeqae5v909d49j266xnpzaxwf48c6xkshqp7fyzqw4s7af",
      "value": 546
    }
  ],
  "size": 487,
  "weight": 769,
  "fee": 2316,
  "status": {
    "confirmed": true,
    "block_height": 834460,
    "block_hash": "00000000000000000000484a79b643b2524bbce82e5d8a442013fa5b8905ed98",
    "block_time": 1710307468
  },
  "hex": "02000000000101529efee8b2638fd7a56e0172696e6c39a582b29c5b5ecd36ce7d75aed4a85b940600000000ffffffff012202000000000000225120d0919411a6ec16a3641dcd185795b52c95ad1a61174ce4d4f8d1ad0b803e4904034005300b9f5b5e0b0da57fc39b5192cb9f05217f56db105936cc7b02cd95783092489c4ac0d8f65966068156343cf2bb99ec5c0a08ff183bbf0a2528089e5f53a8fd200120a76d27aa60782f5372eda3d06ed86daf3f7ccd9110809a5f76be04ec72f899e4ac0063036f726401011e6170706c69636174696f6e2f6a736f6e3b636861727365743d7574662d38004cd37b2270223a22706f772d3230222c226f70223a226d696e74222c227469636b223a2250455045222c22616d74223a2231303030222c22736f6c7574696f6e223a22504550453a62633170367a67656779647861737432786571616535763930396434396a323636786e707a6178776634386336786b736871703766797a717734733761663a303030303030303030303030303030303030303139393431613561653132383937363539383134343239323533333030353762306461393666336465613163353a3138363634353338303935227d6821c15067337a99a00666fd957e65b5c212a7b30f6b410af3fccba2d4635da920c85e00000000"
}