{
  "txid": "f45fee4be7211dbabaed325167e6ae7eca8c7dcacc8cc9dd331fe15aa9ddb363",
  "version": 2,
  "locktime": 0,
  "vin": [
    {
      "txid": "267e9c9effd0c916fcf4a95dd0b71cdceb0eb83843d37ce591bc8aa78233764e",
      "vout": 0,
      "prevout": {
        "scriptpubkey": "76a9148ba1b70ac178be51bc02951ad6ffcfe4360a2a3588ac",
        "scriptpubkey_asm": "OP_DUP OP_HASH160 OP_PUSHBYTES_20 8ba1b70ac178be51bc02951ad6ffcfe4360a2a35 OP_EQUALVERIFY OP_CHECKSIG",
        "scriptpubkey_type": "p2pkh",
        "scriptpubkey_address": "1DjJepa1hWwXpJi35ScZw5qydyJ7QJPxBi",
        "value": 10001
      },
      "scriptsig": "483045022100cb76de3e63174757e04628f7793a4f79bc8fb5dd82e4354f0d75161aaf6096d902203b36ae8cae799849077a5926b9ecc854e85f5f202c5b6e370b97302d342ef343012102a917c144312a32cedd8d0283c9371653109c486f4cc17e603b64f9f249c61b6d",
      "scriptsig_asm": "OP_PUSHBYTES_72 3045022100cb76de3e63174757e04628f7793a4f79bc8fb5dd82e4354f0d75161aaf6096d902203b36ae8cae799849077a5926b9ecc854e85f5f202c5b6e370b97302d342ef34301 OP_PUSHBYTES_33 02a917c144312a32cedd8d0283c9371653109c486f4cc17e603b64f9f249c61b6d",
      "is_coinbase": false,
      "sequence": 4294967295
    },
    {
      "txid": "43ba532e5ca7605f2372e41a6a987d1cbbb157fa5b08a0dc7c32eb282432ed6f",
      "vout": 1,
      "prevout": {
        "scriptpubkey": "76a9144a706bde4d447924cf276bcead34c375bef8b60e88ac",
        "scriptpubkey_asm": "OP_DUP OP_HASH160 OP_PUSHBYTES_20 4a706bde4d447924cf276bcead34c375bef8b60e OP_EQUALVERIFY OP_CHECKSIG",
        "scriptpubkey_type": "p2pkh",
        "scriptpubkey_address": "17nbgNNmNi24cHk8ANhwpcXXsj9aAyqNRp",
        "value": 5353
      },
      "scriptsig": "483045022100e7a2b58b303e50e685c36124e4dbf8ecf50003dbbf4a9fd5c6fb87def8d53f1802201bb6673febb171030ba81b7c1af21f4d33e6256ac0da3a0974bfa2e7a8fb4a5101210277740efcf23699d8e1fc1485644742cdc2163afd6b09493d3feec6f4fcb93f5e",
      "scriptsig_asm": "OP_PUSHBYTES_72 3045022100e7a2b58b303e50e685c36124e4dbf8ecf50003dbbf4a9fd5c6fb87def8d53f1802201bb6673febb171030ba81b7c1af21f4d33e6256ac0da3a0974bfa2e7a8fb4a5101 OP_PUSHBYTES_33 0277740efcf23699d8e1fc1485644742cdc2163afd6b09493d3feec6f4fcb93f5e",
      "is_coinbase": false,
      "sequence": 4294967295
    },
    {
      "txid": "5de997ba604555aba92ce3d7160d9443f7824d65b6f69a5d55c5b83cd2742dea",
      "vout": 0,
      "prevout": {
        "scriptpubkey": "76a9148ba1b70ac178be51bc02951ad6ffcfe4360a2a3588ac",
        "scriptpubkey_asm": "OP_DUP OP_HASH160 OP_PUSHBYTES_20 8ba1b70ac178be51bc02951ad6ffcfe4360a2a35 OP_EQUALVERIFY OP_CHECKSIG",
        "scriptpubkey_type": "p2pkh",
        "scriptpubkey_address": "1DjJepa1hWwXpJi35ScZw5qydyJ7QJPxBi",
        "value": 20000
      },
      "scriptsig": "47304402205d8c3c903da6ec53c040f53db68ea02b14cbab8ad7f817f2c65881623811fdea02205a1c58d3827cd84d213795c129a7c2e42ec686e9279963c1d991318bf5ff5b4a012102a917c144312a32cedd8d0283c9371653109c486f4cc17e603b64f9f249c61b6d",
      "scriptsig_asm": "OP_PUSHBYTES_71 304402205d8c3c903da6ec53c040f53db68ea02b14cbab8ad7f817f2c65881623811fdea02205a1c58d3827cd84d213795c129a7c2e42ec686e9279963c1d991318bf5ff5b4a01 OP_PUSHBYTES_33 02a917c144312a32cedd8d0283c9371653109c486f4cc17e603b64f9f249c61b6d",
      "is_coinbase": false,
      "sequence": 4294967295
    },
    {
      "txid": "61704e9df6ea73260335b84d0e4e641517a204672f02f87850e3bb4f077b5cf3",
      "vout": 0,
      "prevout": {
        "scriptpubkey": "76a9148ba1b70ac178be51bc02951ad6ffcfe4360a2a3588ac",
        "scriptpubkey_asm": "OP_DUP OP_HASH160 OP_PUSHBYTES_20 8ba1b70ac178be51bc02951ad6ffcfe4360a2a35 OP_EQUALVERIFY OP_CHECKSIG",
        "scriptpubkey_type": "p2pkh",
        "scriptpubkey_address": "1DjJepa1hWwXpJi35ScZw5qydyJ7QJPxBi",
        "value": 10000
      },
      "scriptsig": "4730440220473fca4dad858b69883ecf5dc6ae879c61e36a2c9040b08821f8e7f036ead0d3022037a5b9e5d56c62e124b809926ebe7f4038b9e8b60d5775d41282b4534e3acc12012102a917c144312a32cedd8d0283c9371653109c486f4cc17e603b64f9f249c61b6d",
      "scriptsig_asm": "OP_PUSHBYTES_71 30440220473fca4dad858b69883ecf5dc6ae879c61e36a2c9040b08821f8e7f036ead0d3022037a5b9e5d56c62e124b809926ebe7f4038b9e8b60d5775d41282b4534e3acc1201 OP_PUSHBYTES_33 02a917c144312a32cedd8d0283c9371653109c486f4cc17e603b64f9f249c61b6d",
      "is_coinbase": false,
      "sequence": 4294967295
    },
    {
      "txid": "630de4e6573dab5659d389cfc8a607b42e7454fad1416187c9449c72ad3fdf5e",
      "vout": 0,
      "prevout": {
        "scriptpubkey": "76a9148ba1b70ac178be51bc02951ad6ffcfe4360a2a3588ac",
        "scriptpubkey_asm": "OP_DUP OP_HASH160 OP_PUSHBYTES_20 8ba1b70ac178be51bc02951ad6ffcfe4360a2a35 OP_EQUALVERIFY OP_CHECKSIG",
        "scriptpubkey_type": "p2pkh",
        "scriptpubkey_address": "1DjJepa1hWwXpJi35ScZw5qydyJ7QJPxBi",
        "value": 7500
      },
      "scriptsig": "47304402206743541f79a84cd87e11b851813751588a71e74202bbb2e883ced6bb3d3711bc02207d199013c27b9dfcd26ef4a617ac14593fe18c3553721d7db81951716081c90f012102a917c144312a32cedd8d0283c9371653109c486f4cc17e603b64f9f249c61b6d",
      "scriptsig_asm": "OP_PUSHBYTES_71 304402206743541f79a84cd87e11b851813751588a71e74202bbb2e883ced6bb3d3711bc02207d199013c27b9dfcd26ef4a617ac14593fe18c3553721d7db81951716081c90f01 OP_PUSHBYTES_33 02a917c144312a32cedd8d0283c9371653109c486f4cc17e603b64f9f249c61b6d",
      "is_coinbase": false,
      "sequence": 4294967295
    },
    {
      "txid": "6543efb99faee48d81787f7aba41c49041f9bd6a8ac6d98cfc0b1a61d6abce51",
      "vout": 0,
      "prevout": {
        "scriptpubkey": "76a9148ba1b70ac178be51bc02951ad6ffcfe4360a2a3588ac",
        "scriptpubkey_asm": "OP_DUP OP_HASH160 OP_PUSHBYTES_20 8ba1b70ac178be51bc02951ad6ffcfe4360a2a35 OP_EQUALVERIFY OP_CHECKSIG",
        "scriptpubkey_type": "p2pkh",
        "scriptpubkey_address": "1DjJepa1hWwXpJi35ScZw5qydyJ7QJPxBi",
        "value": 21185
      },
      "scriptsig": "473044022042a20a8341f28ca57b1d792baac845a466a547a63f728c6ca98733769280a5d90220009c63564f3b6c0138c578e5c9dc53a0f3e62896d629d9e8dc4629bd80c287d6012102a917c144312a32cedd8d0283c9371653109c486f4cc17e603b64f9f249c61b6d",
      "scriptsig_asm": "OP_PUSHBYTES_71 3044022042a20a8341f28ca57b1d792baac845a466a547a63f728c6ca98733769280a5d90220009c63564f3b6c0138c578e5c9dc53a0f3e62896d629d9e8dc4629bd80c287d601 OP_PUSHBYTES_33 02a917c144312a32cedd8d0283c9371653109c486f4cc17e603b64f9f249c61b6d",
      "is_coinbase": false,
      "sequence": 4294967295
    },
    {
      "txid": "73118ff971f3ab547400a51456eb1e6cfcb87c56bf2094da6df36c2573590e37",
      "vout": 0,
      "prevout": {
        "scriptpubkey": "76a9148ba1b70ac178be51bc02951ad6ffcfe4360a2a3588ac",
        "scriptpubkey_asm": "OP_DUP OP_HASH160 OP_PUSHBYTES_20 8ba1b70ac178be51bc02951ad6ffcfe4360a2a35 OP_EQUALVERIFY OP_CHECKSIG",
        "scriptpubkey_type": "p2pkh",
        "scriptpubkey_address": "1DjJepa1hWwXpJi35ScZw5qydyJ7QJPxBi",
        "value": 20000
      },
      "scriptsig": "483045022100ce7617c6650b3086d2b7c4c639988909d32261cc1fc4a67dfee91bc731c37f2e022055b90e89aec1e08bcd91845b8c8aa6c62397735d74e450b7263ea33df9d915e2012102a917c144312a32cedd8d0283c9371653109c486f4cc17e603b64f9f249c61b6d",
      "scriptsig_asm": "OP_PUSHBYTES_72 3045022100ce7617c6650b3086d2b7c4c639988909d32261cc1fc4a67dfee91bc731c37f2e022055b90e89aec1e08bcd91845b8c8aa6c62397735d74e450b7263ea33df9d915e201 OP_PUSHBYTES_33 02a917c144312a32cedd8d0283c9371653109c486f4cc17e603b64f9f249c61b6d",
      "is_coinbase": false,
      "sequence": 4294967295
    },
    {
      "txid": "883de2a8cedc64f0fc3eca341e6f03e68dc7439990adf96be31042c8b85455bb",
      "vout": 0,
      "prevout": {
        "scriptpubkey": "76a9148ba1b70ac178be51bc02951ad6ffcfe4360a2a3588ac",
        "scriptpubkey_asm": "OP_DUP OP_HASH160 OP_PUSHBYTES_20 8ba1b70ac178be51bc02951ad6ffcfe4360a2a35 OP_EQUALVERIFY OP_CHECKSIG",
        "scriptpubkey_type": "p2pkh",
        "scriptpubkey_address": "1DjJepa1hWwXpJi35ScZw5qydyJ7QJPxBi",
        "value": 51413
      },
      "scriptsig": "483045022100a899c8e3caac1d85264e4a640a1b8967d025068045e676873be727b5ec40ae550220267de38e83965c18b9292933626cc2d0b5ed9249db9b1f40d0124e95324b5c10012102a917c144312a32cedd8d0283c9371653109c486f4cc17e603b64f9f249c61b6d",
      "scriptsig_asm": "OP_PUSHBYTES_72 3045022100a899c8e3caac1d85264e4a640a1b8967d025068045e676873be727b5ec40ae550220267de38e83965c18b9292933626cc2d0b5ed9249db9b1f40d0124e95324b5c1001 OP_PUSHBYTES_33 02a917c144312a32cedd8d0283c9371653109c486f4cc17e603b64f9f249c61b6d",
      "is_coinbase": false,
      "sequence": 4294967295
    },
    {
      "txid": "9832fb8a3359cb9fc8d9e3bb0e01e2cfe320b69645c035777b38221607abdac1",
      "vout": 0,
      "prevout": {
        "scriptpubkey": "76a9148ba1b70ac178be51bc02951ad6ffcfe4360a2a3588ac",
        "scriptpubkey_asm": "OP_DUP OP_HASH160 OP_PUSHBYTES_20 8ba1b70ac178be51bc02951ad6ffcfe4360a2a35 OP_EQUALVERIFY OP_CHECKSIG",
        "scriptpubkey_type": "p2pkh",
        "scriptpubkey_address": "1DjJepa1hWwXpJi35ScZw5qydyJ7QJPxBi",
        "value": 23507
      },
      "scriptsig": "483045022100de4ff37e8b4beb226737d8b8b80bbd68c7a94cd99196eb6486d48a317941b1490220281e53a6f7bb8cca48bf1663febbbaa3bea40dfc85a9bc2523b4371f5e3da18a012102a917c144312a32cedd8d0283c9371653109c486f4cc17e603b64f9f249c61b6d",
      "scriptsig_asm": "OP_PUSHBYTES_72 3045022100de4ff37e8b4beb226737d8b8b80bbd68c7a94cd99196eb6486d48a317941b1490220281e53a6f7bb8cca48bf1663febbbaa3bea40dfc85a9bc2523b4371f5e3da18a01 OP_PUSHBYTES_33 02a917c144312a32cedd8d0283c9371653109c486f4cc17e603b64f9f249c61b6d",
      "is_coinbase": false,
      "sequence": 4294967295
    },
    {
      "txid": "9e06b01d9956556dd85f6578cda2a6871ed64618d414030ed58e5968495647f2",
      "vout": 0,
      "prevout": {
        "scriptpubkey": "76a9148ba1b70ac178be51bc02951ad6ffcfe4360a2a3588ac",
        "scriptpubkey_asm": "OP_DUP OP_HASH160 OP_PUSHBYTES_20 8ba1b70ac178be51bc02951ad6ffcfe4360a2a35 OP_EQUALVERIFY OP_CHECKSIG",
        "scriptpubkey_type": "p2pkh",
        "scriptpubkey_address": "1DjJepa1hWwXpJi35ScZw5qydyJ7QJPxBi",
        "value": 14000
      },
      "scriptsig": "47304402204b2ab60b773cb6703caf5ec6bcb4951f9f3f476b73982ca8de6e58ec3a6faa3f02206be01460044cc49d78e0b6e4f0222e43414f444bb9e95666657510220b624ec9012102a917c144312a32cedd8d0283c9371653109c486f4cc17e603b64f9f249c61b6d",
      "scriptsig_asm": "OP_PUSHBYTES_71 304402204b2ab60b773cb6703caf5ec6bcb4951f9f3f476b73982ca8de6e58ec3a6faa3f02206be01460044cc49d78e0b6e4f0222e43414f444bb9e95666657510220b624ec901 OP_PUSHBYTES_33 02a917c144312a32cedd8d0283c9371653109c486f4cc17e603b64f9f249c61b6d",
      "is_coinbase": false,
      "sequence": 4294967295
    },
    {
      "txid": "c8626385ba781c605fb98d06c266fc34209fa8aeb2c93eb096772310c89c1984",
      "vout": 0,
      "prevout": {
        "scriptpubkey": "76a9148ba1b70ac178be51bc02951ad6ffcfe4360a2a3588ac",
        "scriptpubkey_asm": "OP_DUP OP_HASH160 OP_PUSHBYTES_20 8ba1b70ac178be51bc02951ad6ffcfe4360a2a35 OP_EQUALVERIFY OP_CHECKSIG",
        "scriptpubkey_type": "p2pkh",
        "scriptpubkey_address": "1DjJepa1hWwXpJi35ScZw5qydyJ7QJPxBi",
        "value": 10000
      },
      "scriptsig": "483045022100d5a87833c4a857e8c80538c4d78577dd7e724d5752682d03ced6636e925bd2d8022004cc9b363500ac7375a2ecc681b54138c5f7aa5bd21796b6546c4f9b273c6761012102a917c144312a32cedd8d0283c9371653109c486f4cc17e603b64f9f249c61b6d",
      "scriptsig_asm": "OP_PUSHBYTES_72 3045022100d5a87833c4a857e8c80538c4d78577dd7e724d5752682d03ced6636e925bd2d8022004cc9b363500ac7375a2ecc681b54138c5f7aa5bd21796b6546c4f9b273c676101 OP_PUSHBYTES_33 02a917c144312a32cedd8d0283c9371653109c486f4cc17e603b64f9f249c61b6d",
      "is_coinbase": false,
      "sequence": 4294967295
    },
    {
      "txid": "e5ac55c3cf4b0f124dfcb736c33e374009b57bef519f4d3374009c312863fd73",
      "vout": 1,
      "prevout": {
        "scriptpubkey": "76a9148ba1b70ac178be51bc02951ad6ffcfe4360a2a3588ac",
        "scriptpubkey_asm": "OP_DUP OP_HASH160 OP_PUSHBYTES_20 8ba1b70ac178be51bc02951ad6ffcfe4360a2a35 OP_EQUALVERIFY OP_CHECKSIG",
        "scriptpubkey_type": "p2pkh",
        "scriptpubkey_address": "1DjJepa1hWwXpJi35ScZw5qydyJ7QJPxBi",
        "value": 10512
      },
      "scriptsig": "47304402202e5df80586eaed33bed7b2416ff11952ca09e43c21ae8786baa9627fe0be5060022028665f0dc8668b7543859e4aee7e912d9147118c5b6e9722524ea6c3d1fa81a5012102a917c144312a32cedd8d0283c9371653109c486f4cc17e603b64f9f249c61b6d",
      "scriptsig_asm": "OP_PUSHBYTES_71 304402202e5df80586eaed33bed7b2416ff11952ca09e43c21ae8786baa9627fe0be5060022028665f0dc8668b7543859e4aee7e912d9147118c5b6e9722524ea6c3d1fa81a501 OP_PUSHBYTES_33 02a917c144312a32cedd8d0283c9371653109c486f4cc17e603b64f9f249c61b6d",
      "is_coinbase": false,
      "sequence": 4294967295
    },
    {
      "txid": "f6e193604963abca3caf207e58f1de1fba7c25bede08d6d97530ee52a1e8ed97",
      "vout": 0,
      "prevout": {
        "scriptpubkey": "76a9148ba1b70ac178be51bc02951ad6ffcfe4360a2a3588ac",
        "scriptpubkey_asm": "OP_DUP OP_HASH160 OP_PUSHBYTES_20 8ba1b70ac178be51bc02951ad6ffcfe4360a2a35 OP_EQUALVERIFY OP_CHECKSIG",
        "scriptpubkey_type": "p2pkh",
        "scriptpubkey_address": "1DjJepa1hWwXpJi35ScZw5qydyJ7QJPxBi",
        "value": 6600
      },
      "scriptsig": "483045022100bc968845b89f438bd36489c476a4463849a7f9ebeac6f282b4bc813cfaad26a602206d1ab2463fdf27f488fca522f61bb7aac2d26bece390e4723207ac34292138b4012102a917c144312a32cedd8d0283c9371653109c486f4cc17e603b64f9f249c61b6d",
      "scriptsig_asm": "OP_PUSHBYTES_72 3045022100bc968845b89f438bd36489c476a4463849a7f9ebeac6f282b4bc813cfaad26a602206d1ab2463fdf27f488fca522f61bb7aac2d26bece390e4723207ac34292138b401 OP_PUSHBYTES_33 02a917c144312a32cedd8d0283c9371653109c486f4cc17e603b64f9f249c61b6d",
      "is_coinbase": false,
      "sequence": 4294967295
    }
  ],
  "vout": [
    {
      "scriptpubkey": "76a9148ba1b70ac178be51bc02951ad6ffcfe4360a2a3588ac",
      "scriptpubkey_asm": "OP_DUP OP_HASH160 OP_PUSHBYTES_20 8ba1b70ac178be51bc02951ad6ffcfe4360a2a35 OP_EQUALVERIFY OP_CHECKSIG",
      "scriptpubkey_type": "p2pkh",
      "scriptpubkey_address": "1DjJepa1hWwXpJi35ScZw5qydyJ7QJPxBi",
      "value": 190391
    }
  ],
  "size": 1962,
  "weight": 7848,
  "fee": 19680,
  "status": {
    "confirmed": true,
    "block_height": 834464,
    "block_hash": "0000000000000000000177a0869a911a2b65c9bdcd5a8bcb02b68f305bee848e",
    "block_time": 1710308296
  },
  "hex": "020000000d4e763382a78abc91e57cd34338b80eebdc1cb7d05da9f4fc16c9d0ff9e9c7e26000000006b483045022100cb76de3e63174757e04628f7793a4f79bc8fb5dd82e4354f0d75161aaf6096d902203b36ae8cae799849077a5926b9ecc854e85f5f202c5b6e370b97302d342ef343012102a917c144312a32cedd8d0283c9371653109c486f4cc17e603b64f9f249c61b6dffffffff6fed322428eb327cdca0085bfa57b1bb1c7d986a1ae472235f60a75c2e53ba43010000006b483045022100e7a2b58b303e50e685c36124e4dbf8ecf50003dbbf4a9fd5c6fb87def8d53f1802201bb6673febb171030ba81b7c1af21f4d33e6256ac0da3a0974bfa2e7a8fb4a5101210277740efcf23699d8e1fc1485644742cdc2163afd6b09493d3feec6f4fcb93f5effffffffea2d74d23cb8c5555d9af6b6654d82f743940d16d7e32ca9ab554560ba97e95d000000006a47304402205d8c3c903da6ec53c040f53db68ea02b14cbab8ad7f817f2c65881623811fdea02205a1c58d3827cd84d213795c129a7c2e42ec686e9279963c1d991318bf5ff5b4a012102a917c144312a32cedd8d0283c9371653109c486f4cc17e603b64f9f249c61b6dfffffffff35c7b074fbbe35078f8022f6704a21715644e0e4db835032673eaf69d4e7061000000006a4730440220473fca4dad858b69883ecf5dc6ae879c61e36a2c9040b08821f8e7f036ead0d3022037a5b9e5d56c62e124b809926ebe7f4038b9e8b60d5775d41282b4534e3acc12012102a917c144312a32cedd8d0283c9371653109c486f4cc17e603b64f9f249c61b6dffffffff5edf3fad729c44c9876141d1fa54742eb407a6c8cf89d35956ab3d57e6e40d63000000006a47304402206743541f79a84cd87e11b851813751588a71e74202bbb2e883ced6bb3d3711bc02207d199013c27b9dfcd26ef4a617ac14593fe18c3553721d7db81951716081c90f012102a917c144312a32cedd8d0283c9371653109c486f4cc17e603b64f9f249c61b6dffffffff51ceabd6611a0bfc8cd9c68a6abdf94190c441ba7a7f78818de4ae9fb9ef4365000000006a473044022042a20a8341f28ca57b1d792baac845a466a547a63f728c6ca98733769280a5d90220009c63564f3b6c0138c578e5c9dc53a0f3e62896d629d9e8dc4629bd80c287d6012102a917c144312a32cedd8d0283c9371653109c486f4cc17e603b64f9f249c61b6dffffffff370e5973256cf36dda9420bf567cb8fc6c1eeb5614a5007454abf371f98f1173000000006b483045022100ce7617c6650b3086d2b7c4c639988909d32261cc1fc4a67dfee91bc731c37f2e022055b90e89aec1e08bcd91845b8c8aa6c62397735d74e450b7263ea33df9d915e2012102a917c144312a32cedd8d0283c9371653109c486f4cc17e603b64f9f249c61b6dffffffffbb5554b8c84210e36bf9ad909943c78de6036f1e34ca3efcf064dccea8e23d88000000006b483045022100a899c8e3caac1d85264e4a640a1b8967d025068045e676873be727b5ec40ae550220267de38e83965c18b9292933626cc2d0b5ed9249db9b1f40d0124e95324b5c10012102a917c144312a32cedd8d0283c9371653109c486f4cc17e603b64f9f249c61b6dffffffffc1daab071622387b7735c04596b620e3cfe2010ebbe3d9c89fcb59338afb3298000000006b483045022100de4ff37e8b4beb226737d8b8b80bbd68c7a94cd99196eb6486d48a317941b1490220281e53a6f7bb8cca48bf1663febbbaa3bea40dfc85a9bc2523b4371f5e3da18a012102a917c144312a32cedd8d0283c9371653109c486f4cc17e603b64f9f249c61b6dfffffffff247564968598ed50e0314d41846d61e87a6a2cd78655fd86d5556991db0069e000000006a47304402204b2ab60b773cb6703caf5ec6bcb4951f9f3f476b73982ca8de6e58ec3a6faa3f02206be01460044cc49d78e0b6e4f0222e43414f444bb9e95666657510220b624ec9012102a917c144312a32cedd8d0283c9371653109c486f4cc17e603b64f9f249c61b6dffffffff84199cc810237796b03ec9b2aea89f2034fc66c2068db95f601c78ba856362c8000000006b483045022100d5a87833c4a857e8c80538c4d78577dd7e724d5752682d03ced6636e925bd2d8022004cc9b363500ac7375a2ecc681b54138c5f7aa5bd21796b6546c4f9b273c6761012102a917c144312a32cedd8d0283c9371653109c486f4cc17e603b64f9f249c61b6dffffffff73fd6328319c0074334d9f51ef7bb50940373ec336b7fc4d120f4bcfc355ace5010000006a47304402202e5df80586eaed33bed7b2416ff11952ca09e43c21ae8786baa9627fe0be5060022028665f0dc8668b7543859e4aee7e912d9147118c5b6e9722524ea6c3d1fa81a5012102a917c144312a32cedd8d0283c9371653109c486f4cc17e603b64f9f249c61b6dffffffff97ede8a152ee3075d9d608debe257cba1fdef1587e20af3ccaab63496093e1f6000000006b483045022100bc968845b89f438bd36489c476a4463849a7f9ebeac6f282b4bc813cfaad26a602206d1ab2463fdf27f488fca522f61bb7aac2d26bece390e4723207ac34292138b4012102a917c144312a32cedd8d0283c9371653109c486f4cc17e603b64f9f249c61b6dffffffff01b7e70200000000001976a9148ba1b70ac178be51bc02951ad6ffcfe4360a2a3588ac00000000"
}