{
  "txid": "f4637d5fe3c34c72cca183e3850bf96d2bc0d69bc2943c70dbd9eac34f039b24",
  "version": 1,
  "locktime": 0,
  "vin": [
    {
      "txid": "4ffdb9fa59bafdef6cd4777a435168a21fdbf844201ba2802d8f9fcd44837bb0",
      "vout": 0,
      "prevout": {
        "scriptpubkey": "00203bdf7611c1d23961b11cb33f3d231584823284a16bd09ea4133c56673ed0241f",
        "scriptpubkey_asm": "OP_0 OP_PUSHBYTES_32 3bdf7611c1d23961b11cb33f3d231584823284a16bd09ea4133c56673ed0241f",
        "scriptpubkey_type": "v0_p2wsh",
        "scriptpubkey_address": "bc1q800hvywp6gukrvgukvln6gc4sjpr9p9pd0gfafqn83txw0ksys0s3cve82",
        "value": 505210
      },
      "scriptsig": "",
      "scriptsig_asm": "",
      "witness": [
        "",
        "3044022029834689a0071239c86bba3d17f3f954e6e496b18f2209bee773a55e532b88e302201c028759600a8f0449c279a86b5d02c31085201d1631cf82020dd689c46d681601",
        "304402207ee40c7a946547464c156da2c205c5c1fe11b120c3b6db81b90bc44ea22bfeb1022063c23b821d40442186eb1e4815bcd671cb86ca5e932aafe1b643da2ee72bc22e01",
        "52210257a69bcae7e58aea5d313a8d4209018d1f05e47aca1c14e972b11ea8237cc82621021942422b2128982918dbbc02fb8bd7ad66cef2bb89866991fd92aec54bd7c8e352ae"
      ],
      "is_coinbase": false,
      "sequence": 4294967295,
      "inner_witnessscript_asm": "OP_PUSHNUM_2 OP_PUSHBYTES_33 0257a69bcae7e58aea5d313a8d4209018d1f05e47aca1c14e972b11ea8237cc826 OP_PUSHBYTES_33 021942422b2128982918dbbc02fb8bd7ad66cef2bb89866991fd92aec54bd7c8e3 OP_PUSHNUM_2 OP_CHECKMULTISIG"
    },
    {
      "txid": "cc42d7b07fd20464eee316cba3c6806f569dfab69fc9cb2b1b286fd22d3b6f26",
      "vout": 0,
      "prevout": {
        "scriptpubkey": "00200211b33d35fb8e521b0b6730300542921c66591d08d5e6da47c058141d75a752",
        "scriptpubkey_asm": "OP_0 OP_PUSHBYTES_32 0211b33d35fb8e521b0b6730300542921c66591d08d5e6da47c058141d75a752",
        "scriptpubkey_type": "v0_p2wsh",
        "scriptpubkey_address": "bc1qqggmx0f4lw89yxctvucrqp2zjgwxvkgapr27dkj8cpvpg8t45afqs5lsau",
        "value": 504973
      },
      "scriptsig": "",
      "scriptsig_asm": "",
      "witness": [
        "",
        "3045022100bcfe1a27198fed3f39bada8f93792d32305c54bf3cf97e357c98c82ead0c9bd002207deb21f5c852700ef9323b0530513362375cd40610a5a6900940413f9cc577b701",
        "304402207f1a5318b8ebef0ac9effdd28e5ab79c7be4e46435f80d99f5a68c6fe844800c02201bcaaea436b48e9bff1e892b4e71dd1a0af934b5baa639c1d1d16e73f253d85201",
        "5221023ac3d1152097fe46d5cc0d3a13e81785105bfa05b9592a31aa5193b668b1c26b2103b4175b10f069a5b06c92f74ff7c2a9635641fc03638d8ddad547412ed23905de52ae"
      ],
      "is_coinbase": false,
      "sequence": 4294967295,
      "inner_witnessscript_asm": "OP_PUSHNUM_2 OP_PUSHBYTES_33 023ac3d1152097fe46d5cc0d3a13e81785105bfa05b9592a31aa5193b668b1c26b OP_PUSHBYTES_33 03b4175b10f069a5b06c92f74ff7c2a9635641fc03638d8ddad547412ed23905de OP_PUSHNUM_2 OP_CHECKMULTISIG"
    }
  ],
  "vout": [
    {
      "scriptpubkey": "0020e72ad24882040826ccd26595a43a6a1fcdd93e9ec318415dc0e928d3b1cdf92f",
      "scriptpubkey_asm": "OP_0 OP_PUSHBYTES_32 e72ad24882040826ccd26595a43a6a1fcdd93e9ec318415dc0e928d3b1cdf92f",
      "scriptpubkey_type": "v0_p2wsh",
      "scriptpubkey_address": "bc1quu4dyjyzqsyzdnxjvk26gwn2rlxaj057cvvyzhwqay5d8vwdlyhsjxjtpt",
      "value": 324266
    },
    {
      "scriptpubkey": "76a9141707784a7c5efce7d1e228ecb0cab21a3a7d108c88ac",
      "scriptpubkey_asm": "OP_DUP OP_HASH160 OP_PUSHBYTES_20 1707784a7c5efce7d1e228ecb0cab21a3a7d108c OP_EQUALVERIFY OP_CHECKSIG",
      "scriptpubkey_type": "p2pkh",
      "scriptpubkey_address": "136mVRsssBCsZPpgscosryaSkgFyp547gN",
      "value": 681038
    }
  ],
  "size": 608,
  "weight": 1115,
  "fee": 4879,
  "status": {
    "confirmed": true,
    "block_height": 834638,
    "block_hash": "000000000000000000025f742c626208ac87e0b7d15054abb4a19ca2d735a54e",
    "block_time": 1710405325
  },
  "hex": "01000000000102b07b8344cd9f8f2d80a21b2044f8db1fa26851437a77d46ceffdba59fab9fd4f0000000000ffffffff266f3b2dd26f281b2bcbc99fb6fa9d566f80c6a3cb16e3ee6404d27fb0d742cc0000000000ffffffff02aaf2040000000000220020e72ad24882040826ccd26595a43a6a1fcdd93e9ec318415dc0e928d3b1cdf92f4e640a00000000001976a9141707784a7c5efce7d1e228ecb0cab21a3a7d108c88ac0400473044022029834689a0071239c86bba3d17f3f954e6e496b18f2209bee773a55e532b88e302201c028759600a8f0449c279a86b5d02c31085201d1631cf82020dd689c46d68160147304402207ee40c7a946547464c156da2c205c5c1fe11b120c3b6db81b90bc44ea22bfeb1022063c23b821d40442186eb1e4815bcd671cb86ca5e932aafe1b643da2ee72bc22e014752210257a69bcae7e58aea5d313a8d4209018d1f05e47aca1c14e972b11ea8237cc82621021942422b2128982918dbbc02fb8bd7ad66cef2bb89866991fd92aec54bd7c8e352ae0400483045022100bcfe1a27198fed3f39bada8f93792d32305c54bf3cf97e357c98c82ead0c9bd002207deb21f5c852700ef9323b0530513362375cd40610a5a6900940413f9cc577b70147304402207f1a5318b8ebef0ac9effdd28e5ab79c7be4e46435f80d99f5a68c6fe844800c02201bcaaea436b48e9bff1e892b4e71dd1a0af934b5baa639c1d1d16e73f253d85201475221023ac3d1152097fe46d5cc0d3a13e81785105bfa05b9592a31aa5193b668b1c26b2103b4175b10f069a5b06c92f74ff7c2a9635641fc03638d8ddad547412ed23905de52ae00000000"
}