{
  "txid": "f46ab1cba429a76ecc3d22749f7b4012fd40f1c6dfa92a0b13ae91dd3ebf60f9",
  "version": 2,
  "locktime": 0,
  "vin": [
    {
      "txid": "acc3ba00869acb582a3f2904ce3a11dd3779350ce234063fc7d0959246213364",
      "vout": 218,
      "prevout": {
        "scriptpubkey": "512067edeb6bf3b8f91c606eeaca4a0167c869dbc5b1d27845426fe27874ff82635e",
        "scriptpubkey_asm": "OP_PUSHNUM_1 OP_PUSHBYTES_32 67edeb6bf3b8f91c606eeaca4a0167c869dbc5b1d27845426fe27874ff82635e",
        "scriptpubkey_type": "v1_p2tr",
        "scriptpubkey_address": "bc1pvlk7k6lnhru3ccrwat9y5qt8ep5ah3d36fuy2sn0ufu8fluzvd0q35k3kh",
        "value": 1806
      },
      "scriptsig": "",
      "scriptsig_asm": "",
      "witness": [
        "6403aafe40d057a7cb327550290d837d839579e6cca24022718cb37ba88cfc319c7f256f7d277bbac25c2599484813ec7e89d7608acf5e929302c418f40a8561",
        "20ad41fee49fbcd9a3d4411c5ec5871bc543431d32e9b7d9123674b6d73c7e2182ac0063036f726401010a746578742f706c61696e00357b2270223a226272632d3230222c226f70223a226d696e74222c227469636b223a22646f6765222c22616d74223a2234323030227d68",
        "c1ad41fee49fbcd9a3d4411c5ec5871bc543431d32e9b7d9123674b6d73c7e2182"
      ],
      "is_coinbase": false,
      "sequence": 4261412863
    }
  ],
  "vout": [
    {
      "scriptpubkey": "00147a665de7a370f4c9b372ab1fae587500a5bcbdb4",
      "scriptpubkey_asm": "OP_0 OP_PUSHBYTES_20 7a665de7a370f4c9b372ab1fae587500a5bcbdb4",
      "scriptpubkey_type": "v0_p2wpkh",
      "scriptpubkey_address": "bc1q0fn9mearwr6vnvmj4v06ukr4qzjme0d565dzcx",
      "value": 294
    }
  ],
  "size": 294,
  "weight": 540,
  "fee": 1512,
  "status": {
    "confirmed": true,
    "block_height": 834460,
    "block_hash": "00000000000000000000484a79b643b2524bbce82e5d8a442013fa5b8905ed98",
    "block_time": 1710307468
  },
  "hex": "02000000000101643321469295d0c73f0634e20c357937dd113ace04293f2a58cb9a8600bac3acda00000000fffffffd0126010000000000001600147a665de7a370f4c9b372ab1fae587500a5bcbdb403406403aafe40d057a7cb327550290d837d839579e6cca24022718cb37ba88cfc319c7f256f7d277bbac25c2599484813ec7e89d7608acf5e929302c418f40a85616d20ad41fee49fbcd9a3d4411c5ec5871bc543431d32e9b7d9123674b6d73c7e2182ac0063036f726401010a746578742f706c61696e00357b2270223a226272632d3230222c226f70223a226d696e74222c227469636b223a22646f6765222c22616d74223a2234323030227d6821c1ad41fee49fbcd9a3d4411c5ec5871bc543431d32e9b7d9123674b6d73c7e218200000000"
}