{
  "txid": "f47105345c8e1695e51e7762fb69e5b4fc118aab4a287832e2b9643aef5ddb78",
  "version": 2,
  "locktime": 0,
  "vin": [
    {
      "txid": "6b1d1c441edffd4aaba80873699a36ddcbe0722e65596b5e183ddaef1bf9b958",
      "vout": 0,
      "prevout": {
        "scriptpubkey": "0014552c37e1dcbfd4d22ce9d36afc78ece5aa8dad2a",
        "scriptpubkey_asm": "OP_0 OP_PUSHBYTES_20 552c37e1dcbfd4d22ce9d36afc78ece5aa8dad2a",
        "scriptpubkey_type": "v0_p2wpkh",
        "scriptpubkey_address": "bc1q25kr0cwuhl2dyt8f6d40c78vuk4gmtf2xt393e",
        "value": 54073
      },
      "scriptsig": "",
      "scriptsig_asm": "",
      "witness": [
        "30440220609c7d1ecdee5c46b26ac8d76eb057936aedd406e2c43baa003ee2982d23eb2a0220596b575da71babb231e338682b846b04a9e5b9ce157d0df4899c482907e472f101",
        "022f4490b9c265e690e21df3aabf4eadd795c5f25dd4e0ca0ac5666ae7dc192c47"
      ],
      "is_coinbase": false,
      "sequence": 4294967293
    },
    {
      "txid": "318f835222c39406a854e52c8182c41f254c1dc28c94c35d67c0d908e705bae8",
      "vout": 0,
      "prevout": {
        "scriptpubkey": "0014552c37e1dcbfd4d22ce9d36afc78ece5aa8dad2a",
        "scriptpubkey_asm": "OP_0 OP_PUSHBYTES_20 552c37e1dcbfd4d22ce9d36afc78ece5aa8dad2a",
        "scriptpubkey_type": "v0_p2wpkh",
        "scriptpubkey_address": "bc1q25kr0cwuhl2dyt8f6d40c78vuk4gmtf2xt393e",
        "value": 129694
      },
      "scriptsig": "",
      "scriptsig_asm": "",
      "witness": [
        "3044022065ef81ea54dc595cf41b0e3931e4504b6c389b6b5d0cdc79d84d0a93ae19d5e402200814db8cfe8bfd387bc51455e2443f83000362f17fe2ae44d6f65459530f8d1601",
        "022f4490b9c265e690e21df3aabf4eadd795c5f25dd4e0ca0ac5666ae7dc192c47"
      ],
      "is_coinbase": false,
      "sequence": 4294967293
    }
  ],
  "vout": [
    {
      "scriptpubkey": "0014c650bc9b278078d8bd9e05d3f76b5310234bc0dc",
      "scriptpubkey_asm": "OP_0 OP_PUSHBYTES_20 c650bc9b278078d8bd9e05d3f76b5310234bc0dc",
      "scriptpubkey_type": "v0_p2wpkh",
      "scriptpubkey_address": "bc1qcegtexe8spud30v7qhflw66nzq35hsxucaqeql",
      "value": 2747
    },
    {
      "scriptpubkey": "0014e444cc862a0a4193d5571fb29c27199255609f74",
      "scriptpubkey_asm": "OP_0 OP_PUSHBYTES_20 e444cc862a0a4193d5571fb29c27199255609f74",
      "scriptpubkey_type": "v0_p2wpkh",
      "scriptpubkey_address": "bc1qu3zvep32pfqe842hr7efcfcejf2kp8m5rg3r3r",
      "value": 1391
    },
    {
      "scriptpubkey": "00144ae460b86d32d3fcff95be141b5b0982e6a2e635",
      "scriptpubkey_asm": "OP_0 OP_PUSHBYTES_20 4ae460b86d32d3fcff95be141b5b0982e6a2e635",
      "scriptpubkey_type": "v0_p2wpkh",
      "scriptpubkey_address": "bc1qftjxpwrdxtflelu4hc2pkkcfstn29e34h5y925",
      "value": 176981
    }
  ],
  "size": 401,
  "weight": 956,
  "fee": 2648,
  "status": {
    "confirmed": true,
    "block_height": 834460,
    "block_hash": "00000000000000000000484a79b643b2524bbce82e5d8a442013fa5b8905ed98",
    "block_time": 1710307468
  },
  "hex": "0200000000010258b9f91befda3d185e6b59652e72e0cbdd369a697308a8ab4afddf1e441c1d6b0000000000fdffffffe8ba05e708d9c0675dc3948cc21d4c251fc482812ce554a80694c32252838f310000000000fdffffff03bb0a000000000000160014c650bc9b278078d8bd9e05d3f76b5310234bc0dc6f05000000000000160014e444cc862a0a4193d5571fb29c27199255609f7455b30200000000001600144ae460b86d32d3fcff95be141b5b0982e6a2e635024730440220609c7d1ecdee5c46b26ac8d76eb057936aedd406e2c43baa003ee2982d23eb2a0220596b575da71babb231e338682b846b04a9e5b9ce157d0df4899c482907e472f10121022f4490b9c265e690e21df3aabf4eadd795c5f25dd4e0ca0ac5666ae7dc192c4702473044022065ef81ea54dc595cf41b0e3931e4504b6c389b6b5d0cdc79d84d0a93ae19d5e402200814db8cfe8bfd387bc51455e2443f83000362f17fe2ae44d6f65459530f8d160121022f4490b9c265e690e21df3aabf4eadd795c5f25dd4e0ca0ac5666ae7dc192c4700000000"
}