{
  "txid": "f478a47f421523436909af12d19f36fc8717bb9d99c1e17760e503bc99ed1825",
  "version": 2,
  "locktime": 0,
  "vin": [
    {
      "txid": "9fb3a3e27be81b4304300fcae5a7c341571f0cbbc5590da72420c82c54cf3482",
      "vout": 1,
      "prevout": {
        "scriptpubkey": "0014074382000e04ac6ae9168880580bc70cb9b455e2",
        "scriptpubkey_asm": "OP_0 OP_PUSHBYTES_20 074382000e04ac6ae9168880580bc70cb9b455e2",
        "scriptpubkey_type": "v0_p2wpkh",
        "scriptpubkey_address": "bc1qqapcyqqwqjkx46gk3zq9sz78pjumg40zaqxp0t",
        "value": 30963
      },
      "scriptsig": "",
      "scriptsig_asm": "",
      "witness": [
        "3044022054b7364e848893135b19ac8e97d1fc7a83e296fb399afb854cdcfc4ffa044961022005b9a3639562dd780bc80d2d5b41f60acc19bac5c3ad868c3a4ce26b5f5acc7901",
        "027ba6d0caf28573ec2858f0e508f8d9402bcb2938015e25cea61ca001991bbfd5"
      ],
      "is_coinbase": false,
      "sequence": 4294967295
    }
  ],
  "vout": [
    {
      "scriptpubkey": "6a2ab675f168ba0de2c8f07ffc98c153df964ee7c3d91628ad3455442da379d95f5ae9aaff7a8ccd186596c8",
      "scriptpubkey_asm": "OP_RETURN OP_PUSHBYTES_42 b675f168ba0de2c8f07ffc98c153df964ee7c3d91628ad3455442da379d95f5ae9aaff7a8ccd186596c8",
      "scriptpubkey_type": "op_return",
      "value": 0
    },
    {
      "scriptpubkey": "0014074382000e04ac6ae9168880580bc70cb9b455e2",
      "scriptpubkey_asm": "OP_0 OP_PUSHBYTES_20 074382000e04ac6ae9168880580bc70cb9b455e2",
      "scriptpubkey_type": "v0_p2wpkh",
      "scriptpubkey_address": "bc1qqapcyqqwqjkx46gk3zq9sz78pjumg40zaqxp0t",
      "value": 29252
    }
  ],
  "size": 244,
  "weight": 649,
  "fee": 1711,
  "status": {
    "confirmed": true,
    "block_height": 834464,
    "block_hash": "0000000000000000000177a0869a911a2b65c9bdcd5a8bcb02b68f305bee848e",
    "block_time": 1710308296
  },
  "hex": "020000000001018234cf542cc82024a70d59c5bb0c1f5741c3a7e5ca0f3004431be87be2a3b39f0100000000ffffffff0200000000000000002c6a2ab675f168ba0de2c8f07ffc98c153df964ee7c3d91628ad3455442da379d95f5ae9aaff7a8ccd186596c84472000000000000160014074382000e04ac6ae9168880580bc70cb9b455e202473044022054b7364e848893135b19ac8e97d1fc7a83e296fb399afb854cdcfc4ffa044961022005b9a3639562dd780bc80d2d5b41f60acc19bac5c3ad868c3a4ce26b5f5acc790121027ba6d0caf28573ec2858f0e508f8d9402bcb2938015e25cea61ca001991bbfd500000000"
}