{
  "txid": "f4886352cc49a8aadaa77022f051c560a0fc461cedf3a429e4fae07346fbf746",
  "version": 1,
  "locktime": 0,
  "vin": [
    {
      "txid": "e30363d7b84dc9ff3b2926324dcc4ad40d20326f8cc39775f6cc2b30d223982c",
      "vout": 0,
      "prevout": {
        "scriptpubkey": "76a914070fd7f673a6b8e0bf617f79201566a6655da67b88ac",
        "scriptpubkey_asm": "OP_DUP OP_HASH160 OP_PUSHBYTES_20 070fd7f673a6b8e0bf617f79201566a6655da67b OP_EQUALVERIFY OP_CHECKSIG",
        "scriptpubkey_type": "p2pkh",
        "scriptpubkey_address": "1eLiBCBnSwGkPSzTqomCjZg5P3v2ohMTt",
        "value": 3040000
      },
      "scriptsig": "473044022067ab515332c0494bd3bf0ef4cf403f09e8596cf8b081d84b2d33e0c9d22ec205022002e8df29a176e59902dd025e637da228dae4a099e7dc2efc2114b0b23dda6155012102fcd077894a07f0b5aea4bfe66fd5e6d0c6c5c2a051b2b7914bfc89c9c932d286",
      "scriptsig_asm": "OP_PUSHBYTES_71 3044022067ab515332c0494bd3bf0ef4cf403f09e8596cf8b081d84b2d33e0c9d22ec205022002e8df29a176e59902dd025e637da228dae4a099e7dc2efc2114b0b23dda615501 OP_PUSHBYTES_33 02fcd077894a07f0b5aea4bfe66fd5e6d0c6c5c2a051b2b7914bfc89c9c932d286",
      "is_coinbase": false,
      "sequence": 4294967293
    }
  ],
  "vout": [
    {
      "scriptpubkey": "0014d72c0b982cc903ef022131ea7b0177f22f700e5e",
      "scriptpubkey_asm": "OP_0 OP_PUSHBYTES_20 d72c0b982cc903ef022131ea7b0177f22f700e5e",
      "scriptpubkey_type": "v0_p2wpkh",
      "scriptpubkey_address": "bc1q6ukqhxpveyp77q3px848kqth7ghhqrj70w2px3",
      "value": 3034240
    }
  ],
  "size": 188,
  "weight": 752,
  "fee": 5760,
  "status": {
    "confirmed": true,
    "block_height": 834460,
    "block_hash": "00000000000000000000484a79b643b2524bbce82e5d8a442013fa5b8905ed98",
    "block_time": 1710307468
  },
  "hex": "01000000012c9823d2302bccf67597c38c6f32200dd44acc4d3226293bffc94db8d76303e3000000006a473044022067ab515332c0494bd3bf0ef4cf403f09e8596cf8b081d84b2d33e0c9d22ec205022002e8df29a176e59902dd025e637da228dae4a099e7dc2efc2114b0b23dda6155012102fcd077894a07f0b5aea4bfe66fd5e6d0c6c5c2a051b2b7914bfc89c9c932d286fdffffff01804c2e0000000000160014d72c0b982cc903ef022131ea7b0177f22f700e5e00000000"
}