{
  "txid": "f49a5944783af38ec7f91503bc49d5d1df7b8ba5fc1f72bf80703058d967855c",
  "version": 2,
  "locktime": 0,
  "vin": [
    {
      "txid": "be899c34cdd26133f829ada10f1ec4d87544991e649e923fc40917f9d91c5d06",
      "vout": 1,
      "prevout": {
        "scriptpubkey": "a91491c50f8a6bd5fdb13ec443a29c35393bcf4460f087",
        "scriptpubkey_asm": "OP_HASH160 OP_PUSHBYTES_20 91c50f8a6bd5fdb13ec443a29c35393bcf4460f0 OP_EQUAL",
        "scriptpubkey_type": "p2sh",
        "scriptpubkey_address": "3EymyNpe5KVifau68mD7RGRBp8m8ui7ej8",
        "value": 830649
      },
      "scriptsig": "16001407a6faefd0a65252a3ea3b0598105570fc880d07",
      "scriptsig_asm": "OP_PUSHBYTES_22 001407a6faefd0a65252a3ea3b0598105570fc880d07",
      "witness": [
        "3045022100e0ec0bd2513e529daa02ce7a5c1d507771bde7af0db0fcb577e496b26fd4b5d5022022a94acb9fbe82fe033619be5a286d0b42834bdecb25639e050b6542bdd8c2ca01",
        "034778ba7960596897d986186e35bb6c7775018df166cc4c1ccca443ca67ba3ee7"
      ],
      "is_coinbase": false,
      "sequence": 4294967295,
      "inner_redeemscript_asm": "OP_0 OP_PUSHBYTES_20 07a6faefd0a65252a3ea3b0598105570fc880d07"
    }
  ],
  "vout": [
    {
      "scriptpubkey": "a9148d6ee119188c6b71ab4ef074e9b43aa4f6b2b82b87",
      "scriptpubkey_asm": "OP_HASH160 OP_PUSHBYTES_20 8d6ee119188c6b71ab4ef074e9b43aa4f6b2b82b OP_EQUAL",
      "scriptpubkey_type": "p2sh",
      "scriptpubkey_address": "3Ear2cuej5WSVj1VAXUir28RFBVZQTmedD",
      "value": 828619
    }
  ],
  "size": 216,
  "weight": 534,
  "fee": 2030,
  "status": {
    "confirmed": true,
    "block_height": 834464,
    "block_hash": "0000000000000000000177a0869a911a2b65c9bdcd5a8bcb02b68f305bee848e",
    "block_time": 1710308296
  },
  "hex": "02000000000101065d1cd9f91709c43f929e641e994475d8c41e0fa1ad29f83361d2cd349c89be010000001716001407a6faefd0a65252a3ea3b0598105570fc880d07ffffffff01cba40c000000000017a9148d6ee119188c6b71ab4ef074e9b43aa4f6b2b82b8702483045022100e0ec0bd2513e529daa02ce7a5c1d507771bde7af0db0fcb577e496b26fd4b5d5022022a94acb9fbe82fe033619be5a286d0b42834bdecb25639e050b6542bdd8c2ca0121034778ba7960596897d986186e35bb6c7775018df166cc4c1ccca443ca67ba3ee700000000"
}