{
  "txid": "f4be74d783dd07a06a09c00a65ce237689ecbb9ce9c80c8c73ca75bcb2cbcfca",
  "version": 2,
  "locktime": 0,
  "vin": [
    {
      "txid": "8cd1fbb07e89762345771d3c1f3106eb24aecbe8af0edb6e2bf40d74c993eae2",
      "vout": 1,
      "prevout": {
        "scriptpubkey": "512007c8867392a8c2a3a2a2c777bd71bf9b310fd7922d43e6363450559fdd13020a",
        "scriptpubkey_asm": "OP_PUSHNUM_1 OP_PUSHBYTES_32 07c8867392a8c2a3a2a2c777bd71bf9b310fd7922d43e6363450559fdd13020a",
        "scriptpubkey_type": "v1_p2tr",
        "scriptpubkey_address": "bc1pqlygvuuj4rp28g4zcamm6udlnvcsl4uj94p7vd352p2elhgnqg9q2xr8tl",
        "value": 377950
      },
      "scriptsig": "",
      "scriptsig_asm": "",
      "witness": [
        "363833fd134d8a07f3521405c2b95805ff2fa5706ca6e752a72b4b7b2518bd09250646dff605e212e42097412a7126152f66725b128f0f8f74b280118b0feb42"
      ],
      "is_coinbase": false,
      "sequence": 4294967295
    },
    {
      "txid": "ad897e2808a753c32ddbf330a25c5a47515fa321c89177e0c0b098f492451124",
      "vout": 1,
      "prevout": {
        "scriptpubkey": "512007c8867392a8c2a3a2a2c777bd71bf9b310fd7922d43e6363450559fdd13020a",
        "scriptpubkey_asm": "OP_PUSHNUM_1 OP_PUSHBYTES_32 07c8867392a8c2a3a2a2c777bd71bf9b310fd7922d43e6363450559fdd13020a",
        "scriptpubkey_type": "v1_p2tr",
        "scriptpubkey_address": "bc1pqlygvuuj4rp28g4zcamm6udlnvcsl4uj94p7vd352p2elhgnqg9q2xr8tl",
        "value": 377950
      },
      "scriptsig": "",
      "scriptsig_asm": "",
      "witness": [
        "ddccc431c5f74c29f6193f87050e6214b6202bc809f9cb43eb19153021fc6a7f7ffbb8abd6f9604040321b50fb343f05485ee3b218e7ef2eeaab0d371c88aba5"
      ],
      "is_coinbase": false,
      "sequence": 4294967295
    }
  ],
  "vout": [
    {
      "scriptpubkey": "51205c4f772acb6b78b26a523248c253f210223d0271f3a05ddee5107bc35d6d9703",
      "scriptpubkey_asm": "OP_PUSHNUM_1 OP_PUSHBYTES_32 5c4f772acb6b78b26a523248c253f210223d0271f3a05ddee5107bc35d6d9703",
      "scriptpubkey_type": "v1_p2tr",
      "scriptpubkey_address": "bc1pt38hw2ktdduty6jjxfyvy5ljzq3r6qn37ws9mhh9zpauxhtdjupsf3un53",
      "value": 500000
    },
    {
      "scriptpubkey": "512007c8867392a8c2a3a2a2c777bd71bf9b310fd7922d43e6363450559fdd13020a",
      "scriptpubkey_asm": "OP_PUSHNUM_1 OP_PUSHBYTES_32 07c8867392a8c2a3a2a2c777bd71bf9b310fd7922d43e6363450559fdd13020a",
      "scriptpubkey_type": "v1_p2tr",
      "scriptpubkey_address": "bc1pqlygvuuj4rp28g4zcamm6udlnvcsl4uj94p7vd352p2elhgnqg9q2xr8tl",
      "value": 252939
    }
  ],
  "size": 312,
  "weight": 846,
  "fee": 2961,
  "status": {
    "confirmed": true,
    "block_height": 834460,
    "block_hash": "00000000000000000000484a79b643b2524bbce82e5d8a442013fa5b8905ed98",
    "block_time": 1710307468
  },
  "hex": "02000000000102e2ea93c9740df42b6edb0eafe8cbae24eb06311f3c1d77452376897eb0fbd18c0100000000ffffffff24114592f498b0c0e07791c821a35f51475a5ca230f3db2dc353a708287e89ad0100000000ffffffff0220a10700000000002251205c4f772acb6b78b26a523248c253f210223d0271f3a05ddee5107bc35d6d97030bdc03000000000022512007c8867392a8c2a3a2a2c777bd71bf9b310fd7922d43e6363450559fdd13020a0140363833fd134d8a07f3521405c2b95805ff2fa5706ca6e752a72b4b7b2518bd09250646dff605e212e42097412a7126152f66725b128f0f8f74b280118b0feb420140ddccc431c5f74c29f6193f87050e6214b6202bc809f9cb43eb19153021fc6a7f7ffbb8abd6f9604040321b50fb343f05485ee3b218e7ef2eeaab0d371c88aba500000000"
}