{
  "txid": "f4c0760415b05394cc84d78b116d57fef6c5c0c879805c4d0a436d652e03f819",
  "version": 2,
  "locktime": 0,
  "vin": [
    {
      "txid": "659b82bf51c32df260f3e3563d90fcbcb0098209af4d18020ca9e1a619ccc8c8",
      "vout": 6,
      "prevout": {
        "scriptpubkey": "51201ffe06daa50dce12dc79f71886ed164c96038caf11b8c07e22c012c8e7066442",
        "scriptpubkey_asm": "OP_PUSHNUM_1 OP_PUSHBYTES_32 1ffe06daa50dce12dc79f71886ed164c96038caf11b8c07e22c012c8e7066442",
        "scriptpubkey_type": "v1_p2tr",
        "scriptpubkey_address": "bc1prllqdk49ph8p9hre7uvgdmgkfjtq8r90zxuvql3zcqfv3ecxv3pq9rm5zh",
        "value": 1931
      },
      "scriptsig": "",
      "scriptsig_asm": "",
      "witness": [
        "6614b80399aa811f2efe1bc2c90c84c2b4b2edf01a30cdcc099604ecc936eeebe74160ff032e52149419396e816b59ed5531107e3c9d9bb9aecb95ff47ef02ae",
        "2061083a1a831d98090d41175aa6c7a7b83cf3513a7f00673c4b7af41fea74fc9eac0063036f726401010a746578742f706c61696e00367b2270223a226272632d3230222c226f70223a226d696e74222c227469636b223a2261616161222c22616d74223a223130303030227d68",
        "c061083a1a831d98090d41175aa6c7a7b83cf3513a7f00673c4b7af41fea74fc9e"
      ],
      "is_coinbase": false,
      "sequence": 4261412863
    }
  ],
  "vout": [
    {
      "scriptpubkey": "0014be9f0c070a9b1bd40f5fcb06fba89738d936ceb6",
      "scriptpubkey_asm": "OP_0 OP_PUSHBYTES_20 be9f0c070a9b1bd40f5fcb06fba89738d936ceb6",
      "scriptpubkey_type": "v0_p2wpkh",
      "scriptpubkey_address": "bc1qh60scpc2nvdagr6levr0h2yh8rvndn4k4v5s9g",
      "value": 294
    }
  ],
  "size": 295,
  "weight": 541,
  "fee": 1637,
  "status": {
    "confirmed": true,
    "block_height": 834460,
    "block_hash": "00000000000000000000484a79b643b2524bbce82e5d8a442013fa5b8905ed98",
    "block_time": 1710307468
  },
  "hex": "02000000000101c8c8cc19a6e1a90c02184daf098209b0bcfc903d56e3f360f22dc351bf829b650600000000fffffffd012601000000000000160014be9f0c070a9b1bd40f5fcb06fba89738d936ceb603406614b80399aa811f2efe1bc2c90c84c2b4b2edf01a30cdcc099604ecc936eeebe74160ff032e52149419396e816b59ed5531107e3c9d9bb9aecb95ff47ef02ae6e2061083a1a831d98090d41175aa6c7a7b83cf3513a7f00673c4b7af41fea74fc9eac0063036f726401010a746578742f706c61696e00367b2270223a226272632d3230222c226f70223a226d696e74222c227469636b223a2261616161222c22616d74223a223130303030227d6821c061083a1a831d98090d41175aa6c7a7b83cf3513a7f00673c4b7af41fea74fc9e00000000"
}