{
  "txid": "f4d4cd8a5648cff82d744daf68c8cfea3471ab0da17b25de1b7386a134ec392f",
  "version": 2,
  "locktime": 0,
  "vin": [
    {
      "txid": "b13bb5512a4904c28a6b7957b88edf574e8cb23551fc1dcfe22d6b239df42cf4",
      "vout": 89,
      "prevout": {
        "scriptpubkey": "5120117874caa811c15c7076421de5dbadbc9c579c32b905a9573b478d9731bb3248",
        "scriptpubkey_asm": "OP_PUSHNUM_1 OP_PUSHBYTES_32 117874caa811c15c7076421de5dbadbc9c579c32b905a9573b478d9731bb3248",
        "scriptpubkey_type": "v1_p2tr",
        "scriptpubkey_address": "bc1pz9u8fj4gz8q4curkggw7tkadhjw908pjhyz6j4emg7xewvdmxfyq5qqq47",
        "value": 2575
      },
      "scriptsig": "",
      "scriptsig_asm": "",
      "witness": [
        "132068ff239619cb52ab5ad3e195f57c1d98e8046c961c50b5adf1ef1a5a330162944ef8a48693aef841a3cd216eb5412a211b57e16f3fa704fed6f8ccffb2a2",
        "2035ea515e40b076743bf109c9fd8771f680e15c83c50031927c10a63b7199d640ac0063036f726401010a746578742f706c61696e00367b2270223a226272632d3230222c226f70223a226d696e74222c227469636b223a2261616161222c22616d74223a223130303030227d68",
        "c135ea515e40b076743bf109c9fd8771f680e15c83c50031927c10a63b7199d640"
      ],
      "is_coinbase": false,
      "sequence": 4261412863
    }
  ],
  "vout": [
    {
      "scriptpubkey": "0014ce0b5aa0dac72397a8aa5a85d90a2cfb46f0f630",
      "scriptpubkey_asm": "OP_0 OP_PUSHBYTES_20 ce0b5aa0dac72397a8aa5a85d90a2cfb46f0f630",
      "scriptpubkey_type": "v0_p2wpkh",
      "scriptpubkey_address": "bc1qec944gx6cu3e0292t2zajz3vldr0pa3sh356d9",
      "value": 546
    }
  ],
  "size": 295,
  "weight": 541,
  "fee": 2029,
  "status": {
    "confirmed": true,
    "block_height": 834464,
    "block_hash": "0000000000000000000177a0869a911a2b65c9bdcd5a8bcb02b68f305bee848e",
    "block_time": 1710308296
  },
  "hex": "02000000000101f42cf49d236b2de2cf1dfc5135b28c4e57df8eb857796b8ac204492a51b53bb15900000000fffffffd012202000000000000160014ce0b5aa0dac72397a8aa5a85d90a2cfb46f0f6300340132068ff239619cb52ab5ad3e195f57c1d98e8046c961c50b5adf1ef1a5a330162944ef8a48693aef841a3cd216eb5412a211b57e16f3fa704fed6f8ccffb2a26e2035ea515e40b076743bf109c9fd8771f680e15c83c50031927c10a63b7199d640ac0063036f726401010a746578742f706c61696e00367b2270223a226272632d3230222c226f70223a226d696e74222c227469636b223a2261616161222c22616d74223a223130303030227d6821c135ea515e40b076743bf109c9fd8771f680e15c83c50031927c10a63b7199d64000000000"
}