{
  "txid": "f4dfee86be991393c624a01df5a7521ffced29857759662a305e991d0940acf2",
  "version": 1,
  "locktime": 0,
  "vin": [
    {
      "txid": "88636e66e0d266dcdc7520cb8fc311bf6087bc34d1f6005a6d2f6c85854e0aea",
      "vout": 0,
      "prevout": {
        "scriptpubkey": "51209fcc490c88aae8b556bbeb78315e34e9bd622a3c31af3698c0afa4631aba7a8f",
        "scriptpubkey_asm": "OP_PUSHNUM_1 OP_PUSHBYTES_32 9fcc490c88aae8b556bbeb78315e34e9bd622a3c31af3698c0afa4631aba7a8f",
        "scriptpubkey_type": "v1_p2tr",
        "scriptpubkey_address": "bc1pnlxyjryg4t5t244madurzh35ax7ky23uxxhndxxq47jxxx46028sa08rmx",
        "value": 2764
      },
      "scriptsig": "",
      "scriptsig_asm": "",
      "witness": [
        "c2115031dfb224fd2ea84f24f8b44ed3b43a56eaa80a0a7e188511d07cd56f5fa9f0a4f4f7b9c2d4551c0aaf5e4afb6bab48a13ba6a1c0ab26251f5caae7c6fd83",
        "20be11f1d0580232188e877ef283eb5a1efd4e9e5290a2633605d666f59ad3fff2ac00630461746f6d036e66743ea16461726773a468626974776f726b6364383836336d726571756573745f7265616c6d657565737463656e6f6e63651a0052424b6474696d651a65f10f8e68",
        "c0be11f1d0580232188e877ef283eb5a1efd4e9e5290a2633605d666f59ad3fff2"
      ],
      "is_coinbase": false,
      "sequence": 4294967293
    }
  ],
  "vout": [
    {
      "scriptpubkey": "51209d6dbbf9bad17d0135e06ea56ec304df985f9f9bc809fa52ae6789a0947e0300",
      "scriptpubkey_asm": "OP_PUSHNUM_1 OP_PUSHBYTES_32 9d6dbbf9bad17d0135e06ea56ec304df985f9f9bc809fa52ae6789a0947e0300",
      "scriptpubkey_type": "v1_p2tr",
      "scriptpubkey_address": "bc1pn4kmh7d6697szd0qd6jkascym7v9l8umeqyl554wv7y6p9r7qvqquzkndh",
      "value": 1000
    }
  ],
  "size": 307,
  "weight": 589,
  "fee": 1764,
  "status": {
    "confirmed": true,
    "block_height": 834460,
    "block_hash": "00000000000000000000484a79b643b2524bbce82e5d8a442013fa5b8905ed98",
    "block_time": 1710307468
  },
  "hex": "01000000000101ea0a4e85856c2f6d5a00f6d134bc8760bf11c38fcb2075dcdc66d2e0666e63880000000000fdffffff01e8030000000000002251209d6dbbf9bad17d0135e06ea56ec304df985f9f9bc809fa52ae6789a0947e03000341c2115031dfb224fd2ea84f24f8b44ed3b43a56eaa80a0a7e188511d07cd56f5fa9f0a4f4f7b9c2d4551c0aaf5e4afb6bab48a13ba6a1c0ab26251f5caae7c6fd836d20be11f1d0580232188e877ef283eb5a1efd4e9e5290a2633605d666f59ad3fff2ac00630461746f6d036e66743ea16461726773a468626974776f726b6364383836336d726571756573745f7265616c6d657565737463656e6f6e63651a0052424b6474696d651a65f10f8e6821c0be11f1d0580232188e877ef283eb5a1efd4e9e5290a2633605d666f59ad3fff200000000"
}