{
  "txid": "f4e2406276e8efb0f3040909b6d77214783576050ae3ff5dc0bfea80151c9b50",
  "version": 2,
  "locktime": 0,
  "vin": [
    {
      "txid": "39dfedea1f573ed3d848a30afb525c41abddb167c4c2fc5e7723e0c67eb83b13",
      "vout": 0,
      "prevout": {
        "scriptpubkey": "5120efd419c4dd2b5ea32e4fea20c41c7d75bc4c6cc389a7316c5a868574da3ab6e6",
        "scriptpubkey_asm": "OP_PUSHNUM_1 OP_PUSHBYTES_32 efd419c4dd2b5ea32e4fea20c41c7d75bc4c6cc389a7316c5a868574da3ab6e6",
        "scriptpubkey_type": "v1_p2tr",
        "scriptpubkey_address": "bc1pal2pn3xa9d02xtj0agsvg8rawk7ycmxr3xnnzmz6s6zhfk36kmnq6fuph4",
        "value": 2826
      },
      "scriptsig": "",
      "scriptsig_asm": "",
      "witness": [
        "6e99df3e0746bf2d3307ed8cd1c820fa5d0be88d7bd12406d8c49fd186754aa87f807dd0bf15bb2db4104145e8d1833bb12ad4fbd4d771355d11a0679676a73e",
        "209df88d902b09b40fe1351fcb5ea764a195e7eaa6761f94d682d960422772b726ac0063036f7264010118746578742f706c61696e3b636861727365743d7574662d38003a7b2270223a226272632d3230222c226f70223a227472616e73666572222c227469636b223a2252534b20222c22616d74223a223130303030227d68",
        "c09df88d902b09b40fe1351fcb5ea764a195e7eaa6761f94d682d960422772b726"
      ],
      "is_coinbase": false,
      "sequence": 4294967293
    }
  ],
  "vout": [
    {
      "scriptpubkey": "512061950f2a8e4f4c9a2805c8a0d0863939f0baaa3cf30f736d47f5bb09b8bd4b48",
      "scriptpubkey_asm": "OP_PUSHNUM_1 OP_PUSHBYTES_32 61950f2a8e4f4c9a2805c8a0d0863939f0baaa3cf30f736d47f5bb09b8bd4b48",
      "scriptpubkey_type": "v1_p2tr",
      "scriptpubkey_address": "bc1pvx2s725wfaxf52q9ezsdpp3e88ct423u7v8hxm287kasnw9afdyq37lecs",
      "value": 546
    }
  ],
  "size": 325,
  "weight": 607,
  "fee": 2280,
  "status": {
    "confirmed": true,
    "block_height": 834460,
    "block_hash": "00000000000000000000484a79b643b2524bbce82e5d8a442013fa5b8905ed98",
    "block_time": 1710307468
  },
  "hex": "02000000000101133bb87ec6e023775efcc2c467b1ddab415c52fb0aa348d8d33e571feaeddf390000000000fdffffff01220200000000000022512061950f2a8e4f4c9a2805c8a0d0863939f0baaa3cf30f736d47f5bb09b8bd4b4803406e99df3e0746bf2d3307ed8cd1c820fa5d0be88d7bd12406d8c49fd186754aa87f807dd0bf15bb2db4104145e8d1833bb12ad4fbd4d771355d11a0679676a73e80209df88d902b09b40fe1351fcb5ea764a195e7eaa6761f94d682d960422772b726ac0063036f7264010118746578742f706c61696e3b636861727365743d7574662d38003a7b2270223a226272632d3230222c226f70223a227472616e73666572222c227469636b223a2252534b20222c22616d74223a223130303030227d6821c09df88d902b09b40fe1351fcb5ea764a195e7eaa6761f94d682d960422772b72600000000"
}