{
  "txid": "f4e445d5489a045450ba8ce0026399bc305a141e67586f5be70aaed16440c0c8",
  "version": 2,
  "locktime": 0,
  "vin": [
    {
      "txid": "26a573e355cbf0bd591a0ad2e82f22f20b68ecf6e9dd5185a12b59deb0feeb98",
      "vout": 1,
      "prevout": {
        "scriptpubkey": "a914f9fcfab1966eb11c53879f6421d0d876cee0dcd187",
        "scriptpubkey_asm": "OP_HASH160 OP_PUSHBYTES_20 f9fcfab1966eb11c53879f6421d0d876cee0dcd1 OP_EQUAL",
        "scriptpubkey_type": "p2sh",
        "scriptpubkey_address": "3QUqEcmaa5XnqyCSr4ZBVX8YGBzWWk64Vu",
        "value": 39632415
      },
      "scriptsig": "160014f5998c7c498a622392ca814ba8cf2c708fff74ee",
      "scriptsig_asm": "OP_PUSHBYTES_22 0014f5998c7c498a622392ca814ba8cf2c708fff74ee",
      "witness": [
        "3044022020a2d6fb0c7b8c05045120520ad5a15a7467e4ff1807a414977678c496f69801022073839a356c29a1642c217207295f48bd7049539453b7115a6671e99c76fb38ab01",
        "02799c73b93139532fbc1022cc7e3178966a397452d76b6bf7948787b0206e2aab"
      ],
      "is_coinbase": false,
      "sequence": 4294967293,
      "inner_redeemscript_asm": "OP_0 OP_PUSHBYTES_20 f5998c7c498a622392ca814ba8cf2c708fff74ee"
    }
  ],
  "vout": [
    {
      "scriptpubkey": "76a91419e9c286742ca96fef04e2a34b68b0bf6efed1f288ac",
      "scriptpubkey_asm": "OP_DUP OP_HASH160 OP_PUSHBYTES_20 19e9c286742ca96fef04e2a34b68b0bf6efed1f2 OP_EQUALVERIFY OP_CHECKSIG",
      "scriptpubkey_type": "p2pkh",
      "scriptpubkey_address": "13N1viX9YdC4YTQ5kZ8pGnbHFZqouHJq2q",
      "value": 30000000
    },
    {
      "scriptpubkey": "a914f9fcfab1966eb11c53879f6421d0d876cee0dcd187",
      "scriptpubkey_asm": "OP_HASH160 OP_PUSHBYTES_20 f9fcfab1966eb11c53879f6421d0d876cee0dcd1 OP_EQUAL",
      "scriptpubkey_type": "p2sh",
      "scriptpubkey_address": "3QUqEcmaa5XnqyCSr4ZBVX8YGBzWWk64Vu",
      "value": 9612415
    }
  ],
  "size": 249,
  "weight": 669,
  "fee": 20000,
  "status": {
    "confirmed": true,
    "block_height": 834638,
    "block_hash": "000000000000000000025f742c626208ac87e0b7d15054abb4a19ca2d735a54e",
    "block_time": 1710405325
  },
  "hex": "0200000000010198ebfeb0de592ba18551dde9f6ec680bf2222fe8d20a1a59bdf0cb55e373a5260100000017160014f5998c7c498a622392ca814ba8cf2c708fff74eefdffffff0280c3c901000000001976a91419e9c286742ca96fef04e2a34b68b0bf6efed1f288ac7fac92000000000017a914f9fcfab1966eb11c53879f6421d0d876cee0dcd18702473044022020a2d6fb0c7b8c05045120520ad5a15a7467e4ff1807a414977678c496f69801022073839a356c29a1642c217207295f48bd7049539453b7115a6671e99c76fb38ab012102799c73b93139532fbc1022cc7e3178966a397452d76b6bf7948787b0206e2aab00000000"
}