{
  "txid": "f4e8459577e7008ec0445f378de02310c1a460473d63f7223cdc29c1cd944486",
  "version": 1,
  "locktime": 0,
  "vin": [
    {
      "txid": "b9d94f8b9175afde08b3b03b06b58ef4a4b4c9a48c83057fbfebe81bb5dfaef9",
      "vout": 1,
      "prevout": {
        "scriptpubkey": "001452a147a74db9f30e81afec71e61c973cfe21989c",
        "scriptpubkey_asm": "OP_0 OP_PUSHBYTES_20 52a147a74db9f30e81afec71e61c973cfe21989c",
        "scriptpubkey_type": "v0_p2wpkh",
        "scriptpubkey_address": "bc1q22s50f6dh8esaqd0a3c7v8yh8nlzrxyuff5vx5",
        "value": 1734752
      },
      "scriptsig": "",
      "scriptsig_asm": "",
      "witness": [
        "3044022078590617bbc8d99bd19212eab2c7cb83e4db89753951ce2195488eab6e46e80d022075b355ecaf388100c79c33056bfa92cc1f13c3143973191e9dfa93b0d14d8ee601",
        "02d03c2c7c8315dcd600f71997589e38a28121c4f97361a4f8f71e126591ad613e"
      ],
      "is_coinbase": false,
      "sequence": 4294967295
    }
  ],
  "vout": [
    {
      "scriptpubkey": "0014ff87ce6642ec5dd5daa290f504d1fb7b42eb5604",
      "scriptpubkey_asm": "OP_0 OP_PUSHBYTES_20 ff87ce6642ec5dd5daa290f504d1fb7b42eb5604",
      "scriptpubkey_type": "v0_p2wpkh",
      "scriptpubkey_address": "bc1ql7ruuejza3watk4zjr6sf50m0dpwk4syfxn3nv",
      "value": 1635343
    },
    {
      "scriptpubkey": "001452a147a74db9f30e81afec71e61c973cfe21989c",
      "scriptpubkey_asm": "OP_0 OP_PUSHBYTES_20 52a147a74db9f30e81afec71e61c973cfe21989c",
      "scriptpubkey_type": "v0_p2wpkh",
      "scriptpubkey_address": "bc1q22s50f6dh8esaqd0a3c7v8yh8nlzrxyuff5vx5",
      "value": 95602
    }
  ],
  "size": 222,
  "weight": 561,
  "fee": 3807,
  "status": {
    "confirmed": true,
    "block_height": 834638,
    "block_hash": "000000000000000000025f742c626208ac87e0b7d15054abb4a19ca2d735a54e",
    "block_time": 1710405325
  },
  "hex": "01000000000101f9aedfb51be8ebbf7f05838ca4c9b4a4f48eb5063bb0b308deaf75918b4fd9b90100000000ffffffff020ff4180000000000160014ff87ce6642ec5dd5daa290f504d1fb7b42eb5604727501000000000016001452a147a74db9f30e81afec71e61c973cfe21989c02473044022078590617bbc8d99bd19212eab2c7cb83e4db89753951ce2195488eab6e46e80d022075b355ecaf388100c79c33056bfa92cc1f13c3143973191e9dfa93b0d14d8ee6012102d03c2c7c8315dcd600f71997589e38a28121c4f97361a4f8f71e126591ad613e00000000"
}