{
  "txid": "f4edc71b67244d399f438e09846610b90329696a319a75911b0df550f6d1d0df",
  "version": 1,
  "locktime": 0,
  "vin": [
    {
      "txid": "ac235bcfe412fe1e434d3b1c03e1e88ca91f1a0fd132008084eb941589f5bac8",
      "vout": 7,
      "prevout": {
        "scriptpubkey": "51203856638d6f810ace5bd405c0f10ccf73abad89da96129ae8ed6e4199b50024df",
        "scriptpubkey_asm": "OP_PUSHNUM_1 OP_PUSHBYTES_32 3856638d6f810ace5bd405c0f10ccf73abad89da96129ae8ed6e4199b50024df",
        "scriptpubkey_type": "v1_p2tr",
        "scriptpubkey_address": "bc1p8ptx8rt0sy9vuk75qhq0zrx0ww46mzw6jcff468ddeqendgqyn0s6mhrzu",
        "value": 14000
      },
      "scriptsig": "",
      "scriptsig_asm": "",
      "witness": [
        "4feee83368bc17145c0f1b7a9b9bafa9663d22d75296cbaca339071a299498d7905f52b954662280ff727e3d28a4b50ae59d3285e9a82f9eaa798422d83b37b6"
      ],
      "is_coinbase": false,
      "sequence": 4294967293
    }
  ],
  "vout": [
    {
      "scriptpubkey": "5120159a61dcdb5300ce5deac200a68299190cdcda9fce85dff528937fc4aba0a032",
      "scriptpubkey_asm": "OP_PUSHNUM_1 OP_PUSHBYTES_32 159a61dcdb5300ce5deac200a68299190cdcda9fce85dff528937fc4aba0a032",
      "scriptpubkey_type": "v1_p2tr",
      "scriptpubkey_address": "bc1pzkdxrhxm2vqvuh02cgq2dq5eryxdek5le6zalafgjdluf2aq5qeqqgt7zx",
      "value": 2346
    },
    {
      "scriptpubkey": "5120f667578b85bed256c7fcb9f2cda488d5281e52ca42e7dd4bc21e95149562f09f",
      "scriptpubkey_asm": "OP_PUSHNUM_1 OP_PUSHBYTES_32 f667578b85bed256c7fcb9f2cda488d5281e52ca42e7dd4bc21e95149562f09f",
      "scriptpubkey_type": "v1_p2tr",
      "scriptpubkey_address": "bc1p7en40zu9hmf9d3luh8evmfyg655pu5k2gtna6j7zr623f9tz7z0stfnwav",
      "value": 2113
    },
    {
      "scriptpubkey": "51203856638d6f810ace5bd405c0f10ccf73abad89da96129ae8ed6e4199b50024df",
      "scriptpubkey_asm": "OP_PUSHNUM_1 OP_PUSHBYTES_32 3856638d6f810ace5bd405c0f10ccf73abad89da96129ae8ed6e4199b50024df",
      "scriptpubkey_type": "v1_p2tr",
      "scriptpubkey_address": "bc1p8ptx8rt0sy9vuk75qhq0zrx0ww46mzw6jcff468ddeqendgqyn0s6mhrzu",
      "value": 7165
    }
  ],
  "size": 248,
  "weight": 788,
  "fee": 2376,
  "status": {
    "confirmed": true,
    "block_height": 834460,
    "block_hash": "00000000000000000000484a79b643b2524bbce82e5d8a442013fa5b8905ed98",
    "block_time": 1710307468
  },
  "hex": "01000000000101c8baf5891594eb84800032d10f1a1fa98ce8e1031c3b4d431efe12e4cf5b23ac0700000000fdffffff032a09000000000000225120159a61dcdb5300ce5deac200a68299190cdcda9fce85dff528937fc4aba0a0324108000000000000225120f667578b85bed256c7fcb9f2cda488d5281e52ca42e7dd4bc21e95149562f09ffd1b0000000000002251203856638d6f810ace5bd405c0f10ccf73abad89da96129ae8ed6e4199b50024df01404feee83368bc17145c0f1b7a9b9bafa9663d22d75296cbaca339071a299498d7905f52b954662280ff727e3d28a4b50ae59d3285e9a82f9eaa798422d83b37b600000000"
}