{
  "txid": "f4f842eb867148c875473020426bad302cb6d53a2a511cfb98548aa0de351994",
  "version": 2,
  "locktime": 0,
  "vin": [
    {
      "txid": "2ec25ee34c2be0ea030d957490297923cce7c8834df26b801638c63e9e17b691",
      "vout": 1,
      "prevout": {
        "scriptpubkey": "00149c0a9f112688c85fcb4417b05c8dec775e4cab36",
        "scriptpubkey_asm": "OP_0 OP_PUSHBYTES_20 9c0a9f112688c85fcb4417b05c8dec775e4cab36",
        "scriptpubkey_type": "v0_p2wpkh",
        "scriptpubkey_address": "bc1qns9f7yfx3ry9lj6yz7c9er0vwa0ye2eklpzqfw",
        "value": 206047802
      },
      "scriptsig": "",
      "scriptsig_asm": "",
      "witness": [
        "304402206cf97a6b74f5a052f34f392d736859b37ab46ed6f1b3cb80ec8076c3775a6bd902204dbe16bcaaf872faade831c7a0889035a0fde393f128150bafd1b777d5e7312a01",
        "02616129debb96ad4f83f00ad5ef5d16ffd7878e7f5dcfb1b193451680631635ee"
      ],
      "is_coinbase": false,
      "sequence": 4294967293
    }
  ],
  "vout": [
    {
      "scriptpubkey": "a914ac7d1328210039418941898afaa5aa3358ba678087",
      "scriptpubkey_asm": "OP_HASH160 OP_PUSHBYTES_20 ac7d1328210039418941898afaa5aa3358ba6780 OP_EQUAL",
      "scriptpubkey_type": "p2sh",
      "scriptpubkey_address": "3HR3ytatW5Zpty7K4cDqTdXuEp1sG6djUk",
      "value": 201168
    },
    {
      "scriptpubkey": "00149c0a9f112688c85fcb4417b05c8dec775e4cab36",
      "scriptpubkey_asm": "OP_0 OP_PUSHBYTES_20 9c0a9f112688c85fcb4417b05c8dec775e4cab36",
      "scriptpubkey_type": "v0_p2wpkh",
      "scriptpubkey_address": "bc1qns9f7yfx3ry9lj6yz7c9er0vwa0ye2eklpzqfw",
      "value": 205845072
    }
  ],
  "size": 223,
  "weight": 565,
  "fee": 1562,
  "status": {
    "confirmed": true,
    "block_height": 834638,
    "block_hash": "000000000000000000025f742c626208ac87e0b7d15054abb4a19ca2d735a54e",
    "block_time": 1710405325
  },
  "hex": "0200000000010191b6179e3ec63816806bf24d83c8e7cc2379299074950d03eae02b4ce35ec22e0100000000fdffffff02d01103000000000017a914ac7d1328210039418941898afaa5aa3358ba67808750f2440c000000001600149c0a9f112688c85fcb4417b05c8dec775e4cab360247304402206cf97a6b74f5a052f34f392d736859b37ab46ed6f1b3cb80ec8076c3775a6bd902204dbe16bcaaf872faade831c7a0889035a0fde393f128150bafd1b777d5e7312a012102616129debb96ad4f83f00ad5ef5d16ffd7878e7f5dcfb1b193451680631635ee00000000"
}