{
  "txid": "f4fa780b5cac206fbae4fad8c9a44772f467a94d1bea453846717d9e0de81bb0",
  "version": 2,
  "locktime": 0,
  "vin": [
    {
      "txid": "3c5d098f49b56b4e17f69e3931b436f68638fa1ae7750f4b984e8a1f9e202970",
      "vout": 0,
      "prevout": {
        "scriptpubkey": "5120ad2f454063c07edc0f20890ac09e93c284f3adf33ab068d2de3fb64d82478d37",
        "scriptpubkey_asm": "OP_PUSHNUM_1 OP_PUSHBYTES_32 ad2f454063c07edc0f20890ac09e93c284f3adf33ab068d2de3fb64d82478d37",
        "scriptpubkey_type": "v1_p2tr",
        "scriptpubkey_address": "bc1p45h52srrcpldcreq3y9vp85nc2z08t0n82cx35k787mymqj835mskywupp",
        "value": 546
      },
      "scriptsig": "",
      "scriptsig_asm": "",
      "witness": [
        "4a02a877e8a92bfb353d08201f7c66bd82b1e953e73a95a52d64102b6f02010d406865df0edc201308224e0a4cd08ddf9eac5b5f50ee21683d363b3a0a213967"
      ],
      "is_coinbase": false,
      "sequence": 2147483649
    },
    {
      "txid": "99740cf66bd137702abb7733e09aa57bb88190f1935f4259e00f174e65daf151",
      "vout": 1,
      "prevout": {
        "scriptpubkey": "5120ad2f454063c07edc0f20890ac09e93c284f3adf33ab068d2de3fb64d82478d37",
        "scriptpubkey_asm": "OP_PUSHNUM_1 OP_PUSHBYTES_32 ad2f454063c07edc0f20890ac09e93c284f3adf33ab068d2de3fb64d82478d37",
        "scriptpubkey_type": "v1_p2tr",
        "scriptpubkey_address": "bc1p45h52srrcpldcreq3y9vp85nc2z08t0n82cx35k787mymqj835mskywupp",
        "value": 251833
      },
      "scriptsig": "",
      "scriptsig_asm": "",
      "witness": [
        "1be6b052ec93a8328de837ec83c519fccfbc9d20156b28b029698ec4bb95ff711155884f06d76fd1f771b9feb22efd610104e0b5a75d79ecb7014cbb69396cc5"
      ],
      "is_coinbase": false,
      "sequence": 2147483649
    }
  ],
  "vout": [
    {
      "scriptpubkey": "51209f2a398cffcca432822c3de259af843e97d7e597cee5d8488701f961195415dc",
      "scriptpubkey_asm": "OP_PUSHNUM_1 OP_PUSHBYTES_32 9f2a398cffcca432822c3de259af843e97d7e597cee5d8488701f961195415dc",
      "scriptpubkey_type": "v1_p2tr",
      "scriptpubkey_address": "bc1pnu4rnr8lejjr9q3v8h39ntuy86ta0evhemjasjy8q8ukzx25zhwqxwrdhf",
      "value": 546
    },
    {
      "scriptpubkey": "5120ad2f454063c07edc0f20890ac09e93c284f3adf33ab068d2de3fb64d82478d37",
      "scriptpubkey_asm": "OP_PUSHNUM_1 OP_PUSHBYTES_32 ad2f454063c07edc0f20890ac09e93c284f3adf33ab068d2de3fb64d82478d37",
      "scriptpubkey_type": "v1_p2tr",
      "scriptpubkey_address": "bc1p45h52srrcpldcreq3y9vp85nc2z08t0n82cx35k787mymqj835mskywupp",
      "value": 248457
    }
  ],
  "size": 312,
  "weight": 846,
  "fee": 3376,
  "status": {
    "confirmed": true,
    "block_height": 834638,
    "block_hash": "000000000000000000025f742c626208ac87e0b7d15054abb4a19ca2d735a54e",
    "block_time": 1710405325
  },
  "hex": "020000000001027029209e1f8a4e984b0f75e71afa3886f636b431399ef6174e6bb5498f095d3c00000000000100008051f1da654e170fe059425f93f19081b87ba59ae03377bb2a7037d16bf60c74990100000000010000800222020000000000002251209f2a398cffcca432822c3de259af843e97d7e597cee5d8488701f961195415dc89ca030000000000225120ad2f454063c07edc0f20890ac09e93c284f3adf33ab068d2de3fb64d82478d3701404a02a877e8a92bfb353d08201f7c66bd82b1e953e73a95a52d64102b6f02010d406865df0edc201308224e0a4cd08ddf9eac5b5f50ee21683d363b3a0a21396701401be6b052ec93a8328de837ec83c519fccfbc9d20156b28b029698ec4bb95ff711155884f06d76fd1f771b9feb22efd610104e0b5a75d79ecb7014cbb69396cc500000000"
}