{
  "txid": "f4fc1c3d765ed81d4c7a3926364d5c65f9ceae3c8665d01d4d66d99515ff94b2",
  "version": 1,
  "locktime": 0,
  "vin": [
    {
      "txid": "002378a439309602191e76d57eaa1886b531ee31bfec5a78fe97d618112e3ab5",
      "vout": 2,
      "prevout": {
        "scriptpubkey": "001467c1b3b842a64187f773550af9e47d678bd68774",
        "scriptpubkey_asm": "OP_0 OP_PUSHBYTES_20 67c1b3b842a64187f773550af9e47d678bd68774",
        "scriptpubkey_type": "v0_p2wpkh",
        "scriptpubkey_address": "bc1qvlqm8wzz5eqc0amn2590nerav79adpm5d7n5l5",
        "value": 84539
      },
      "scriptsig": "",
      "scriptsig_asm": "",
      "witness": [
        "304402207f7ff01fcd1f9f2dd8b48761cb917ee818bb33137697719cad6155e5101b5684022055992986ebf8e85f9333e821550812e1708712f6ce5f2508d8868396184f184901",
        "023adb3345d1e0bebce877b0a69dcbfbffb5c3ec177d1760d16f3d95dd45593d74"
      ],
      "is_coinbase": false,
      "sequence": 4294967295
    },
    {
      "txid": "401f26105dee5e59a78518eafa96ba73f1cdbca4bc0fe73ded7bd09546e7128d",
      "vout": 14,
      "prevout": {
        "scriptpubkey": "001467c1b3b842a64187f773550af9e47d678bd68774",
        "scriptpubkey_asm": "OP_0 OP_PUSHBYTES_20 67c1b3b842a64187f773550af9e47d678bd68774",
        "scriptpubkey_type": "v0_p2wpkh",
        "scriptpubkey_address": "bc1qvlqm8wzz5eqc0amn2590nerav79adpm5d7n5l5",
        "value": 892695
      },
      "scriptsig": "",
      "scriptsig_asm": "",
      "witness": [
        "304402207acb84e95a3c248c73762f607134659852721e555660666fdce46dd496f5a46602207b65b26db2ebce0573a1b188ae9329ca9b5d3f5e85824578bdbfac0450032db601",
        "023adb3345d1e0bebce877b0a69dcbfbffb5c3ec177d1760d16f3d95dd45593d74"
      ],
      "is_coinbase": false,
      "sequence": 4294967295
    }
  ],
  "vout": [
    {
      "scriptpubkey": "a9143159ac50318bb9a5212daecce503dad220f91f6487",
      "scriptpubkey_asm": "OP_HASH160 OP_PUSHBYTES_20 3159ac50318bb9a5212daecce503dad220f91f64 OP_EQUAL",
      "scriptpubkey_type": "p2sh",
      "scriptpubkey_address": "36BxTYFMz6uPGeh8Etb3zUDXcX55ffau3d",
      "value": 972401
    }
  ],
  "size": 340,
  "weight": 712,
  "fee": 4833,
  "status": {
    "confirmed": true,
    "block_height": 834638,
    "block_hash": "000000000000000000025f742c626208ac87e0b7d15054abb4a19ca2d735a54e",
    "block_time": 1710405325
  },
  "hex": "01000000000102b53a2e1118d697fe785aecbf31ee31b58618aa7ed5761e1902963039a47823000200000000ffffffff8d12e74695d07bed3de70fbca4bccdf173ba96faea1885a7595eee5d10261f400e00000000ffffffff0171d60e000000000017a9143159ac50318bb9a5212daecce503dad220f91f64870247304402207f7ff01fcd1f9f2dd8b48761cb917ee818bb33137697719cad6155e5101b5684022055992986ebf8e85f9333e821550812e1708712f6ce5f2508d8868396184f18490121023adb3345d1e0bebce877b0a69dcbfbffb5c3ec177d1760d16f3d95dd45593d740247304402207acb84e95a3c248c73762f607134659852721e555660666fdce46dd496f5a46602207b65b26db2ebce0573a1b188ae9329ca9b5d3f5e85824578bdbfac0450032db60121023adb3345d1e0bebce877b0a69dcbfbffb5c3ec177d1760d16f3d95dd45593d7400000000"
}