{
  "txid": "f51119d7b4a3f6c79f0efcbbeda584f1ab39591fd8e13a342c463d289e10b481",
  "version": 1,
  "locktime": 0,
  "vin": [
    {
      "txid": "40631a9255cc0c83260499831cc7c812432e91e407e3734b0fe00a66d46369d2",
      "vout": 0,
      "prevout": {
        "scriptpubkey": "0014265a768768fe6d6475bedfa89fd898bed4871321",
        "scriptpubkey_asm": "OP_0 OP_PUSHBYTES_20 265a768768fe6d6475bedfa89fd898bed4871321",
        "scriptpubkey_type": "v0_p2wpkh",
        "scriptpubkey_address": "bc1qyed8dpmglekkgad7m75flkychm2gwyep77gvvr",
        "value": 8580610
      },
      "scriptsig": "",
      "scriptsig_asm": "",
      "witness": [
        "3044022027200ed5ccf47f87ac1183201b54fed531ae8cc73d0e69264c28fdc5e1689e86022046b19a2d31e7fe406b6d737f8dc9b0bd9e71913faec548d169c44fa0756206a501",
        "021a1070922e03a2774dcad66686bfffabf71bf822a9a8cf68244f0fd8bef3b840"
      ],
      "is_coinbase": false,
      "sequence": 4294967295
    }
  ],
  "vout": [
    {
      "scriptpubkey": "0014e7b00e3d7bb7d0e55a6efa1b0c8d0fc49b774f37",
      "scriptpubkey_asm": "OP_0 OP_PUSHBYTES_20 e7b00e3d7bb7d0e55a6efa1b0c8d0fc49b774f37",
      "scriptpubkey_type": "v0_p2wpkh",
      "scriptpubkey_address": "bc1qu7cqu0tmklgw2knwlgdserg0cjdhwneh295tyn",
      "value": 8577640
    }
  ],
  "size": 191,
  "weight": 437,
  "fee": 2970,
  "status": {
    "confirmed": true,
    "block_height": 834638,
    "block_hash": "000000000000000000025f742c626208ac87e0b7d15054abb4a19ca2d735a54e",
    "block_time": 1710405325
  },
  "hex": "01000000000101d26963d4660ae00f4b73e307e4912e4312c8c71c83990426830ccc55921a63400000000000ffffffff0168e2820000000000160014e7b00e3d7bb7d0e55a6efa1b0c8d0fc49b774f3702473044022027200ed5ccf47f87ac1183201b54fed531ae8cc73d0e69264c28fdc5e1689e86022046b19a2d31e7fe406b6d737f8dc9b0bd9e71913faec548d169c44fa0756206a50121021a1070922e03a2774dcad66686bfffabf71bf822a9a8cf68244f0fd8bef3b84000000000"
}