{
  "txid": "f517f52f1703e44e4aabb501023bcb662ed64c7bf6ef144ae388e6090750d713",
  "version": 2,
  "locktime": 0,
  "vin": [
    {
      "txid": "cebb2b33be79fd27c1838190c443976e0d08ba615077853fa2606f8dc9ecc2a0",
      "vout": 0,
      "prevout": {
        "scriptpubkey": "001487858a9649713cafbf31922dc10b932feccbfc1a",
        "scriptpubkey_asm": "OP_0 OP_PUSHBYTES_20 87858a9649713cafbf31922dc10b932feccbfc1a",
        "scriptpubkey_type": "v0_p2wpkh",
        "scriptpubkey_address": "bc1qs7zc49jfwy72l0e3jgkuzzun9lkvhlq67n2mv5",
        "value": 5023
      },
      "scriptsig": "",
      "scriptsig_asm": "",
      "witness": [
        "3044022003aeb47ee6eb69906a014f46c782dfcdcaba3d5102839168a140490e1411819702206136b6624a864500677d35d24fed4a9cbaab6b9a10d37f651a7d8f74eb0231ad01",
        "033558de52b4e594d0de4f8ff176a1ed4425cf15d8686ab4c749d33389ad9b937f"
      ],
      "is_coinbase": false,
      "sequence": 4294967295
    }
  ],
  "vout": [
    {
      "scriptpubkey": "76a91496975949fa662f820c368fe40c755aac0cd6ccb988ac",
      "scriptpubkey_asm": "OP_DUP OP_HASH160 OP_PUSHBYTES_20 96975949fa662f820c368fe40c755aac0cd6ccb9 OP_EQUALVERIFY OP_CHECKSIG",
      "scriptpubkey_type": "p2pkh",
      "scriptpubkey_address": "1EjFfg1JtAxf1eALS9ZsQRSLKdbbKEUvGy",
      "value": 3785
    }
  ],
  "size": 194,
  "weight": 449,
  "fee": 1238,
  "status": {
    "confirmed": true,
    "block_height": 834464,
    "block_hash": "0000000000000000000177a0869a911a2b65c9bdcd5a8bcb02b68f305bee848e",
    "block_time": 1710308296
  },
  "hex": "02000000000101a0c2ecc98d6f60a23f85775061ba080d6e9743c4908183c127fd79be332bbbce0000000000ffffffff01c90e0000000000001976a91496975949fa662f820c368fe40c755aac0cd6ccb988ac02473044022003aeb47ee6eb69906a014f46c782dfcdcaba3d5102839168a140490e1411819702206136b6624a864500677d35d24fed4a9cbaab6b9a10d37f651a7d8f74eb0231ad0121033558de52b4e594d0de4f8ff176a1ed4425cf15d8686ab4c749d33389ad9b937f00000000"
}