{
  "txid": "f51a2c88523a07e0df9abcedbce12e768359a02704093ab088176f9e64880317",
  "version": 1,
  "locktime": 0,
  "vin": [
    {
      "txid": "fde7bfc1e6957d96d8ec105c52de08e8bd0631934488638c3e6e5351c50ba4fe",
      "vout": 1,
      "prevout": {
        "scriptpubkey": "00149838d97ab7e0c7e8e163f66e1bab5971ff8cd0b6",
        "scriptpubkey_asm": "OP_0 OP_PUSHBYTES_20 9838d97ab7e0c7e8e163f66e1bab5971ff8cd0b6",
        "scriptpubkey_type": "v0_p2wpkh",
        "scriptpubkey_address": "bc1qnqudj74hurr73ctr7ehph26ew8lce59ky0vnd2",
        "value": 236424
      },
      "scriptsig": "",
      "scriptsig_asm": "",
      "witness": [
        "304402205ae573d11319f0bf697cb6ccfd05d92d38e39f13e7de6cfd741afaba5bd25ca902204c1892ecd9b83fdccb12605cd63242454ddda51aa7636d358a7dcdd30673aa5101",
        "03429486cfefc47cff002a54a528b1e267d81a5e145d5217555ca2b14bb3925126"
      ],
      "is_coinbase": false,
      "sequence": 4294967293
    }
  ],
  "vout": [
    {
      "scriptpubkey": "0014b228813adc13d9ef5612e179799fa9df730d7c6a",
      "scriptpubkey_asm": "OP_0 OP_PUSHBYTES_20 b228813adc13d9ef5612e179799fa9df730d7c6a",
      "scriptpubkey_type": "v0_p2wpkh",
      "scriptpubkey_address": "bc1qkg5gzwkuz0v774sju9uhn8afmaes6lr270e9n8",
      "value": 142000
    },
    {
      "scriptpubkey": "00149838d97ab7e0c7e8e163f66e1bab5971ff8cd0b6",
      "scriptpubkey_asm": "OP_0 OP_PUSHBYTES_20 9838d97ab7e0c7e8e163f66e1bab5971ff8cd0b6",
      "scriptpubkey_type": "v0_p2wpkh",
      "scriptpubkey_address": "bc1qnqudj74hurr73ctr7ehph26ew8lce59ky0vnd2",
      "value": 91421
    }
  ],
  "size": 222,
  "weight": 561,
  "fee": 3003,
  "status": {
    "confirmed": true,
    "block_height": 834460,
    "block_hash": "00000000000000000000484a79b643b2524bbce82e5d8a442013fa5b8905ed98",
    "block_time": 1710307468
  },
  "hex": "01000000000101fea40bc551536e3e8c638844933106bde808de525c10ecd8967d95e6c1bfe7fd0100000000fdffffff02b02a020000000000160014b228813adc13d9ef5612e179799fa9df730d7c6a1d650100000000001600149838d97ab7e0c7e8e163f66e1bab5971ff8cd0b60247304402205ae573d11319f0bf697cb6ccfd05d92d38e39f13e7de6cfd741afaba5bd25ca902204c1892ecd9b83fdccb12605cd63242454ddda51aa7636d358a7dcdd30673aa51012103429486cfefc47cff002a54a528b1e267d81a5e145d5217555ca2b14bb392512600000000"
}