{
  "txid": "f52866f0531169d3e0e995bc6f4e076024a7150152b02e5a5402f09a524f6bf6",
  "version": 1,
  "locktime": 0,
  "vin": [
    {
      "txid": "2c8d9f03709be0b19dd6dee059e702aecf4e5a542ce3f976ea0561782066a12a",
      "vout": 0,
      "prevout": {
        "scriptpubkey": "00145116f030be62cc2b3b47bb25a589b872ab6ac24e",
        "scriptpubkey_asm": "OP_0 OP_PUSHBYTES_20 5116f030be62cc2b3b47bb25a589b872ab6ac24e",
        "scriptpubkey_type": "v0_p2wpkh",
        "scriptpubkey_address": "bc1q2yt0qv97vtxzkw68hvj6tzdcw24k4sjwah7m2y",
        "value": 507294
      },
      "scriptsig": "",
      "scriptsig_asm": "",
      "witness": [
        "304402200966e54c1eee1737c2f30d80f95ff04a52e4ad86c20e382da972642ab1f5a31002202ad51eace8a0d17a738df15a905eb6a04caccfe842d3752d93d295ca14ccc72d01",
        "0265b983ce45c409bebe6d7002557ae557e36bd23ec4776a58667d02bcb4bc04b0"
      ],
      "is_coinbase": false,
      "sequence": 4294967293
    },
    {
      "txid": "68521660dadf2f2e630a4d9d468d8b8815f3b55d4c828119afbd5a6a45b4345a",
      "vout": 35,
      "prevout": {
        "scriptpubkey": "0014b165b7a1c81fa8aa2dd82fb46655012885b98f05",
        "scriptpubkey_asm": "OP_0 OP_PUSHBYTES_20 b165b7a1c81fa8aa2dd82fb46655012885b98f05",
        "scriptpubkey_type": "v0_p2wpkh",
        "scriptpubkey_address": "bc1qk9jm0gwgr7525twc976xv4gp9zzmnrc9gyszju",
        "value": 394241
      },
      "scriptsig": "",
      "scriptsig_asm": "",
      "witness": [
        "30450221009f514a1378565853bc99d2144f4768ef1b09550365c52c8782559cda890d290d0220448e44d370cc52f160926e769f4fc8465ac973a7ab5f895fc4f18d16f2be55f501",
        "02a17a6a3d75be609fd2d2f5a783b048e2e80beac3ff1dc553f0be7312668d9b30"
      ],
      "is_coinbase": false,
      "sequence": 4294967293
    },
    {
      "txid": "78a8a6e0bc1aab9e909987eb030aeaf3dabbddf7876c0f0c9957ccd5660f2342",
      "vout": 53,
      "prevout": {
        "scriptpubkey": "0014eab39caa2215a06dc5eb8fe8e5254e1f19db1d38",
        "scriptpubkey_asm": "OP_0 OP_PUSHBYTES_20 eab39caa2215a06dc5eb8fe8e5254e1f19db1d38",
        "scriptpubkey_type": "v0_p2wpkh",
        "scriptpubkey_address": "bc1qa2eee23zzksxm30t3l5w2f2wruvak8fcj3ww38",
        "value": 393563
      },
      "scriptsig": "",
      "scriptsig_asm": "",
      "witness": [
        "3044022044a135ef7290b551b64fad6664909b6b1dd21b1edd5a721ef1d4a18fed35e06002207b2dab7b136eeef5c1e3fb7cca4e18e02f16c8e35da312abb84691b93415c7ee01",
        "02d39bd023c8fe686cf1134cef33d39ea2c4f659655a99aafa55bc718dd98e1745"
      ],
      "is_coinbase": false,
      "sequence": 4294967293
    },
    {
      "txid": "602055a7c3f010137a51115cce8acf04b099f9975faa8b69bcc494b6d25448e2",
      "vout": 35,
      "prevout": {
        "scriptpubkey": "0014931d3897e310b26e1428bbab2c61f16b3061d18c",
        "scriptpubkey_asm": "OP_0 OP_PUSHBYTES_20 931d3897e310b26e1428bbab2c61f16b3061d18c",
        "scriptpubkey_type": "v0_p2wpkh",
        "scriptpubkey_address": "bc1qjvwn39lrzzexu9pghw4jcc03dvcxr5vvrlfdyg",
        "value": 391334
      },
      "scriptsig": "",
      "scriptsig_asm": "",
      "witness": [
        "304402203392bee23cbf0511da3d284072939084d2416172bad5a3c884b7f654db3f666702205ddc67c152a0c6ed0a73b407e973bfbabb6e22df5a72f917cc325eec6483de1401",
        "034594adfee9d15c36b347212221b504bd28470f3393b0d83877ed3c964f27a3a2"
      ],
      "is_coinbase": false,
      "sequence": 4294967293
    },
    {
      "txid": "a66beb4bafe898400d94b2d310ae16f7d3a50de0f55c8607331a046391d9854c",
      "vout": 8,
      "prevout": {
        "scriptpubkey": "001451e36e49ffd48c5eba0536dd19eb3e239cb25b77",
        "scriptpubkey_asm": "OP_0 OP_PUSHBYTES_20 51e36e49ffd48c5eba0536dd19eb3e239cb25b77",
        "scriptpubkey_type": "v0_p2wpkh",
        "scriptpubkey_address": "bc1q283kuj0l6jx9aws9xmw3n6e7ywwtykmhgkguwj",
        "value": 390817
      },
      "scriptsig": "",
      "scriptsig_asm": "",
      "witness": [
        "304402204e74fffc23ddd33dfba99155418338f4698be036e833f35fa769490582b7a9d9022079ba8e68ac310dfce4ba54e990b9f4eabc4ffd658f732fe815ebc99ee787524301",
        "036e7cd7069b03e11e0e01123cd4677ef0227b8579e0ca04715ef132ff9db0b39b"
      ],
      "is_coinbase": false,
      "sequence": 4294967293
    },
    {
      "txid": "2dfc37a4c5335722e61e566b80fe31c516832b2c6edb9d64055ba3e76ffbf16c",
      "vout": 137,
      "prevout": {
        "scriptpubkey": "00143c3dfb8f0bc86f6c7d5f5090f098af67e5836516",
        "scriptpubkey_asm": "OP_0 OP_PUSHBYTES_20 3c3dfb8f0bc86f6c7d5f5090f098af67e5836516",
        "scriptpubkey_type": "v0_p2wpkh",
        "scriptpubkey_address": "bc1q8s7lhrctephkcl2l2zg0px90vljcxegkrv2g9n",
        "value": 390349
      },
      "scriptsig": "",
      "scriptsig_asm": "",
      "witness": [
        "3045022100941514e1bb34d8137b7ea337210f3566940e160d3dada964c4e3bd76c5be84b302203f8b669f65dfe8d054ec2eccf5bfc4c980fa7188e29e9a8adef05fd9bb88f53401",
        "03dfbb1871eb0f6b3131f29ca3bfb6a53186335b6d612cd58c25832b219968dab3"
      ],
      "is_coinbase": false,
      "sequence": 4294967293
    },
    {
      "txid": "aca64518ddc50c9ab5764523a1089e2054a80ab3c1fb4acfc3d1b537d26f5133",
      "vout": 77,
      "prevout": {
        "scriptpubkey": "0014bf4888cfec1c7514a77d596b6bfd3fd8d577e396",
        "scriptpubkey_asm": "OP_0 OP_PUSHBYTES_20 bf4888cfec1c7514a77d596b6bfd3fd8d577e396",
        "scriptpubkey_type": "v0_p2wpkh",
        "scriptpubkey_address": "bc1qhayg3nlvr363ffmat94khlflmr2h0cuk7k3hqh",
        "value": 274462
      },
      "scriptsig": "",
      "scriptsig_asm": "",
      "witness": [
        "304402201c20c9f1a6138db007c965d156f9bcd814457d352a14d7131225894b608844d602200351106b3379673427892b816d3f975f8e6b912cc1d8bbb3e0ce3eee7248de7001",
        "0368334eaf257d5ce63156ab46953c3d91ace0626649e033692bf5195391a9602d"
      ],
      "is_coinbase": false,
      "sequence": 4294967293
    }
  ],
  "vout": [
    {
      "scriptpubkey": "0014db3dbfff6e3d55b0d43f5c491f368e2f6eb99482",
      "scriptpubkey_asm": "OP_0 OP_PUSHBYTES_20 db3dbfff6e3d55b0d43f5c491f368e2f6eb99482",
      "scriptpubkey_type": "v0_p2wpkh",
      "scriptpubkey_address": "bc1qmv7mllmw842mp4plt3y37d5w9ahtn9yz3xcew3",
      "value": 2726460
    }
  ],
  "size": 1081,
  "weight": 2065,
  "fee": 15600,
  "status": {
    "confirmed": true,
    "block_height": 834638,
    "block_hash": "000000000000000000025f742c626208ac87e0b7d15054abb4a19ca2d735a54e",
    "block_time": 1710405325
  },
  "hex": "010000000001072aa16620786105ea76f9e32c545a4ecfae02e759e0ded69db1e09b70039f8d2c0000000000fdffffff5a34b4456a5abdaf1981824c5db5f315888b8d469d4d0a632e2fdfda601652682300000000fdffffff42230f66d5cc57990c0f6c87f7ddbbdaf3ea0a03eb8799909eab1abce0a6a8783500000000fdffffffe24854d2b694c4bc698baa5f97f999b004cf8ace5c11517a1310f0c3a75520602300000000fdffffff4c85d99163041a3307865cf5e00da5d3f716ae10d3b2940d4098e8af4beb6ba60800000000fdffffff6cf1fb6fe7a35b05649ddb6e2c2b8316c531fe806b561ee6225733c5a437fc2d8900000000fdffffff33516fd237b5d1c3cf4afbc1b30aa854209e08a1234576b59a0cc5dd1845a6ac4d00000000fdffffff013c9a290000000000160014db3dbfff6e3d55b0d43f5c491f368e2f6eb994820247304402200966e54c1eee1737c2f30d80f95ff04a52e4ad86c20e382da972642ab1f5a31002202ad51eace8a0d17a738df15a905eb6a04caccfe842d3752d93d295ca14ccc72d01210265b983ce45c409bebe6d7002557ae557e36bd23ec4776a58667d02bcb4bc04b0024830450221009f514a1378565853bc99d2144f4768ef1b09550365c52c8782559cda890d290d0220448e44d370cc52f160926e769f4fc8465ac973a7ab5f895fc4f18d16f2be55f5012102a17a6a3d75be609fd2d2f5a783b048e2e80beac3ff1dc553f0be7312668d9b3002473044022044a135ef7290b551b64fad6664909b6b1dd21b1edd5a721ef1d4a18fed35e06002207b2dab7b136eeef5c1e3fb7cca4e18e02f16c8e35da312abb84691b93415c7ee012102d39bd023c8fe686cf1134cef33d39ea2c4f659655a99aafa55bc718dd98e17450247304402203392bee23cbf0511da3d284072939084d2416172bad5a3c884b7f654db3f666702205ddc67c152a0c6ed0a73b407e973bfbabb6e22df5a72f917cc325eec6483de140121034594adfee9d15c36b347212221b504bd28470f3393b0d83877ed3c964f27a3a20247304402204e74fffc23ddd33dfba99155418338f4698be036e833f35fa769490582b7a9d9022079ba8e68ac310dfce4ba54e990b9f4eabc4ffd658f732fe815ebc99ee78752430121036e7cd7069b03e11e0e01123cd4677ef0227b8579e0ca04715ef132ff9db0b39b02483045022100941514e1bb34d8137b7ea337210f3566940e160d3dada964c4e3bd76c5be84b302203f8b669f65dfe8d054ec2eccf5bfc4c980fa7188e29e9a8adef05fd9bb88f534012103dfbb1871eb0f6b3131f29ca3bfb6a53186335b6d612cd58c25832b219968dab30247304402201c20c9f1a6138db007c965d156f9bcd814457d352a14d7131225894b608844d602200351106b3379673427892b816d3f975f8e6b912cc1d8bbb3e0ce3eee7248de7001210368334eaf257d5ce63156ab46953c3d91ace0626649e033692bf5195391a9602d00000000"
}