{
  "txid": "f52db83345c2e8bbb2b5f448c574cc8e3da572f59981cafce3310b16c3c4e9ef",
  "version": 2,
  "locktime": 834418,
  "vin": [
    {
      "txid": "9d02d30aff791985251d9a1fbb92a06518ad11fbac8c55994a80ce3a09c9baf5",
      "vout": 34,
      "prevout": {
        "scriptpubkey": "00141a4d45880754cf015efb94c60c20c73f9bebd6b5",
        "scriptpubkey_asm": "OP_0 OP_PUSHBYTES_20 1a4d45880754cf015efb94c60c20c73f9bebd6b5",
        "scriptpubkey_type": "v0_p2wpkh",
        "scriptpubkey_address": "bc1qrfx5tzq82n8szhhmjnrqcgx887d7h444gann2h",
        "value": 187054
      },
      "scriptsig": "",
      "scriptsig_asm": "",
      "witness": [
        "304402201a6f150cb1cf910167c400a8d4cd6306155f9a2b0200bf22be8cf606811322c602206903b9dbe97f8d34474146d736633c3be729701f37c6cbec90bc01801178617b01",
        "03e8cc3c55daa8e49838b0ec9ed6e713de46b33f6c586a1c9d3f9ee861525869c5"
      ],
      "is_coinbase": false,
      "sequence": 4294967293
    }
  ],
  "vout": [
    {
      "scriptpubkey": "0014edd5d942f9a2cc564ccc89bb79e35a7454b82efd",
      "scriptpubkey_asm": "OP_0 OP_PUSHBYTES_20 edd5d942f9a2cc564ccc89bb79e35a7454b82efd",
      "scriptpubkey_type": "v0_p2wpkh",
      "scriptpubkey_address": "bc1qah2ajshe5tx9vnxv3xahnc66w32tsthae6fc0h",
      "value": 2831
    },
    {
      "scriptpubkey": "00147f4f8adc70b8d03482b3b89e090c7ad91cbb9b1d",
      "scriptpubkey_asm": "OP_0 OP_PUSHBYTES_20 7f4f8adc70b8d03482b3b89e090c7ad91cbb9b1d",
      "scriptpubkey_type": "v0_p2wpkh",
      "scriptpubkey_address": "bc1q0a8c4hrshrgrfq4nhz0qjrr6mywthxcapceayu",
      "value": 182672
    }
  ],
  "size": 222,
  "weight": 561,
  "fee": 1551,
  "status": {
    "confirmed": true,
    "block_height": 834464,
    "block_hash": "0000000000000000000177a0869a911a2b65c9bdcd5a8bcb02b68f305bee848e",
    "block_time": 1710308296
  },
  "hex": "02000000000101f5bac9093ace804a99558cacfb11ad1865a092bb1f9a1d25851979ff0ad3029d2200000000fdffffff020f0b000000000000160014edd5d942f9a2cc564ccc89bb79e35a7454b82efd90c90200000000001600147f4f8adc70b8d03482b3b89e090c7ad91cbb9b1d0247304402201a6f150cb1cf910167c400a8d4cd6306155f9a2b0200bf22be8cf606811322c602206903b9dbe97f8d34474146d736633c3be729701f37c6cbec90bc01801178617b012103e8cc3c55daa8e49838b0ec9ed6e713de46b33f6c586a1c9d3f9ee861525869c572bb0c00"
}