{
  "txid": "f52f6fdfc0b7cc8c49e9ba70889a7c45f64cc9ed1fe3b978f6cb6a7d72c3c3c5",
  "version": 1,
  "locktime": 0,
  "vin": [
    {
      "txid": "b7be2cbe9ba62c6119d4d28b99aec89ca67117721885ae55d3719baa4d872102",
      "vout": 0,
      "prevout": {
        "scriptpubkey": "0014d5dcc8240d2a3de4a040eb03f8e84339061a84e4",
        "scriptpubkey_asm": "OP_0 OP_PUSHBYTES_20 d5dcc8240d2a3de4a040eb03f8e84339061a84e4",
        "scriptpubkey_type": "v0_p2wpkh",
        "scriptpubkey_address": "bc1q6hwvsfqd9g77fgzqavpl36zr8yrp4p8ykdt3r8",
        "value": 99990211
      },
      "scriptsig": "",
      "scriptsig_asm": "",
      "witness": [
        "304402204d9cec6bbd5a99ac2187e791fecbc680b891d29db80596cd4e21915fc12c01f1022000a7e44f8262119252f0df29392f46a9ff9cc420df4428eb9e00228a74f8932001",
        "039aa7260cf6f8551a6f6d589ca83c4f345f708da279ad180561ef2eb4ae5a275d"
      ],
      "is_coinbase": false,
      "sequence": 4294967293
    }
  ],
  "vout": [
    {
      "scriptpubkey": "001416ff23ad6bcaa58aa6132ccf2475221d2c93dea2",
      "scriptpubkey_asm": "OP_0 OP_PUSHBYTES_20 16ff23ad6bcaa58aa6132ccf2475221d2c93dea2",
      "scriptpubkey_type": "v0_p2wpkh",
      "scriptpubkey_address": "bc1qzmlj8ttte2jc4fsn9n8jgafzr5kf8h4zq9y66p",
      "value": 10000000
    },
    {
      "scriptpubkey": "001400b7d15f4bd21c68febba62e39794ef1991da07e",
      "scriptpubkey_asm": "OP_0 OP_PUSHBYTES_20 00b7d15f4bd21c68febba62e39794ef1991da07e",
      "scriptpubkey_type": "v0_p2wpkh",
      "scriptpubkey_address": "bc1qqzmazh6t6gwx3l4m5chrj72w7xv3mgr77fl4fg",
      "value": 89988519
    }
  ],
  "size": 222,
  "weight": 561,
  "fee": 1692,
  "status": {
    "confirmed": true,
    "block_height": 834460,
    "block_hash": "00000000000000000000484a79b643b2524bbce82e5d8a442013fa5b8905ed98",
    "block_time": 1710307468
  },
  "hex": "010000000001010221874daa9b71d355ae8518721771a69cc8ae998bd2d419612ca69bbe2cbeb70000000000fdffffff02809698000000000016001416ff23ad6bcaa58aa6132ccf2475221d2c93dea2a71d5d050000000016001400b7d15f4bd21c68febba62e39794ef1991da07e0247304402204d9cec6bbd5a99ac2187e791fecbc680b891d29db80596cd4e21915fc12c01f1022000a7e44f8262119252f0df29392f46a9ff9cc420df4428eb9e00228a74f893200121039aa7260cf6f8551a6f6d589ca83c4f345f708da279ad180561ef2eb4ae5a275d00000000"
}