{
  "txid": "f5539ce72c56d47df642b3079d91819639677214ba3febdc5e0d7a6ee411c98c",
  "version": 2,
  "locktime": 0,
  "vin": [
    {
      "txid": "db2f75a85f998bac1232f10db58486d22ec9dca7eb74ec701d0c3109420db333",
      "vout": 1,
      "prevout": {
        "scriptpubkey": "a91476ed074bd093e07efe0cff187ecc87fca1057c8b87",
        "scriptpubkey_asm": "OP_HASH160 OP_PUSHBYTES_20 76ed074bd093e07efe0cff187ecc87fca1057c8b OP_EQUAL",
        "scriptpubkey_type": "p2sh",
        "scriptpubkey_address": "3CXqcD4Gn6nk9e9rGyEH1aAhJGzcj6Ur3B",
        "value": 1048327
      },
      "scriptsig": "160014332ee0a0dc546fc319a59e7fa37813a65feda70f",
      "scriptsig_asm": "OP_PUSHBYTES_22 0014332ee0a0dc546fc319a59e7fa37813a65feda70f",
      "witness": [
        "3045022100e133b0857d0b0637b68488a7691b7e1e5129cfc9633a0f7126548d6976af79b5022053a272a7ab426bccfbd5213b73bfbbd7d8a7129004e2a7b9a53af1e0b63639da01",
        "0366dd3c1eb9e6bc34f1f7c66b5841acf7b9d1e21c90009bee7125c18ec9996336"
      ],
      "is_coinbase": false,
      "sequence": 4294967293,
      "inner_redeemscript_asm": "OP_0 OP_PUSHBYTES_20 332ee0a0dc546fc319a59e7fa37813a65feda70f"
    }
  ],
  "vout": [
    {
      "scriptpubkey": "a9149c3b1e247dc0c9e4111039a7cab3f3cf1e54bf9587",
      "scriptpubkey_asm": "OP_HASH160 OP_PUSHBYTES_20 9c3b1e247dc0c9e4111039a7cab3f3cf1e54bf95 OP_EQUAL",
      "scriptpubkey_type": "p2sh",
      "scriptpubkey_address": "3Fw6A3QAPXu6cFkYQicyvEU12AngX2JZnc",
      "value": 247839
    },
    {
      "scriptpubkey": "a91476ed074bd093e07efe0cff187ecc87fca1057c8b87",
      "scriptpubkey_asm": "OP_HASH160 OP_PUSHBYTES_20 76ed074bd093e07efe0cff187ecc87fca1057c8b OP_EQUAL",
      "scriptpubkey_type": "p2sh",
      "scriptpubkey_address": "3CXqcD4Gn6nk9e9rGyEH1aAhJGzcj6Ur3B",
      "value": 798164
    }
  ],
  "size": 248,
  "weight": 662,
  "fee": 2324,
  "status": {
    "confirmed": true,
    "block_height": 834638,
    "block_hash": "000000000000000000025f742c626208ac87e0b7d15054abb4a19ca2d735a54e",
    "block_time": 1710405325
  },
  "hex": "0200000000010133b30d4209310c1d70ec74eba7dcc92ed28684b50df13212ac8b995fa8752fdb0100000017160014332ee0a0dc546fc319a59e7fa37813a65feda70ffdffffff021fc803000000000017a9149c3b1e247dc0c9e4111039a7cab3f3cf1e54bf9587d42d0c000000000017a91476ed074bd093e07efe0cff187ecc87fca1057c8b8702483045022100e133b0857d0b0637b68488a7691b7e1e5129cfc9633a0f7126548d6976af79b5022053a272a7ab426bccfbd5213b73bfbbd7d8a7129004e2a7b9a53af1e0b63639da01210366dd3c1eb9e6bc34f1f7c66b5841acf7b9d1e21c90009bee7125c18ec999633600000000"
}