{
  "txid": "f561dd555e9726ed474a1f5cb1dbcaceb70496264f485d77372771d9504c2e77",
  "version": 2,
  "locktime": 834462,
  "vin": [
    {
      "txid": "20288fd650524b6ce3c45522c412664ceb382bc78b0d72c65e964d7e0a168606",
      "vout": 0,
      "prevout": {
        "scriptpubkey": "0014ca729ef08ae19b85187860acba8815e24c3f32b1",
        "scriptpubkey_asm": "OP_0 OP_PUSHBYTES_20 ca729ef08ae19b85187860acba8815e24c3f32b1",
        "scriptpubkey_type": "v0_p2wpkh",
        "scriptpubkey_address": "bc1qefefauy2uxdc2xrcvzkt4zq4ufxr7v43ayz8af",
        "value": 177326688
      },
      "scriptsig": "",
      "scriptsig_asm": "",
      "witness": [
        "30440220674306e4c4f4fbb3a95f3cf4023b670d7a513885658ec9e5a4314ac4cc5bd9d702204122ca0e0608368f284261dfa72a4f091ffbef26bc9d379affd6694fd4b80fa901",
        "023509acd6c18d0d88b34db202ba98287bd3f9fd6853c89f25a6ab2c07cd022900"
      ],
      "is_coinbase": false,
      "sequence": 4294967294
    }
  ],
  "vout": [
    {
      "scriptpubkey": "0014732dd5ddd4ac87c164321813a5b9f143dcdc901a",
      "scriptpubkey_asm": "OP_0 OP_PUSHBYTES_20 732dd5ddd4ac87c164321813a5b9f143dcdc901a",
      "scriptpubkey_type": "v0_p2wpkh",
      "scriptpubkey_address": "bc1qwvkathw54jruzepjrqf6tw03g0wdeyq6r6p4p3",
      "value": 176343279
    },
    {
      "scriptpubkey": "0014dc2401a2c8bc21f172fd66df6b0696e41ab9269f",
      "scriptpubkey_asm": "OP_0 OP_PUSHBYTES_20 dc2401a2c8bc21f172fd66df6b0696e41ab9269f",
      "scriptpubkey_type": "v0_p2wpkh",
      "scriptpubkey_address": "bc1qmsjqrgkghsslzuhavm0kkp5kusdtjf5lashhtj",
      "value": 980300
    }
  ],
  "size": 222,
  "weight": 561,
  "fee": 3109,
  "status": {
    "confirmed": true,
    "block_height": 834464,
    "block_hash": "0000000000000000000177a0869a911a2b65c9bdcd5a8bcb02b68f305bee848e",
    "block_time": 1710308296
  },
  "hex": "020000000001010686160a7e4d965ec6720d8bc72b38eb4c6612c42255c4e36c4b5250d68f28200000000000feffffff02efc8820a00000000160014732dd5ddd4ac87c164321813a5b9f143dcdc901a4cf50e0000000000160014dc2401a2c8bc21f172fd66df6b0696e41ab9269f024730440220674306e4c4f4fbb3a95f3cf4023b670d7a513885658ec9e5a4314ac4cc5bd9d702204122ca0e0608368f284261dfa72a4f091ffbef26bc9d379affd6694fd4b80fa90121023509acd6c18d0d88b34db202ba98287bd3f9fd6853c89f25a6ab2c07cd0229009ebb0c00"
}