{
  "txid": "f5625f8964ede138f4c0c8617062b96406bdc8db6101e4ef70a780a8c0440ca0",
  "version": 2,
  "locktime": 0,
  "vin": [
    {
      "txid": "2ec861de74f4ee19bb41c910c8cd041538f2ad94a92729115e72c7b6159441b7",
      "vout": 4,
      "prevout": {
        "scriptpubkey": "51200cdb1ba1082d4616bc9426b9799bcbfb88a6a41b83180a89c8035d41c8bb3f95",
        "scriptpubkey_asm": "OP_PUSHNUM_1 OP_PUSHBYTES_32 0cdb1ba1082d4616bc9426b9799bcbfb88a6a41b83180a89c8035d41c8bb3f95",
        "scriptpubkey_type": "v1_p2tr",
        "scriptpubkey_address": "bc1ppnd3hggg94rpd0y5y6uhnx7tlwy2dfqmsvvq4zwgqdw5rj9m872sy3pfp5",
        "value": 2862
      },
      "scriptsig": "",
      "scriptsig_asm": "",
      "witness": [
        "9e8cc230c95b923e389e3becf1b7655fb0585b525e61cd35e2d540563b21bd7dbb3db0f38691e77bd80c779c1ebacbaae05d8ec24b73b7ca98f86d8ce8ca943a",
        "20c4eac93d89ee6fedd2aac47b04441d7711c3a7295fc192d1bfe0e0430eb1b69bac0063036f726401011e6170706c69636174696f6e2f6a736f6e3b636861727365743d7574662d38004cd37b2270223a22706f772d3230222c226f70223a226d696e74222c227469636b223a2250455045222c22616d74223a2231303030222c22736f6c7574696f6e223a22504550453a62633170746e776d6a6c6e30347468677938776d3632347175746a357163736676646a7179343676366b67747337656e6330797367633871666d646135723a303030303030303030303030303030303030303139393431613561653132383937363539383134343239323533333030353762306461393666336465613163353a3430383639323437333732227d68",
        "c1b3bc6f424055c5ec6ac1dc8b207f1ba18c4db693056bc938ea6425d8b7a62268"
      ],
      "is_coinbase": false,
      "sequence": 4294967295
    }
  ],
  "vout": [
    {
      "scriptpubkey": "51205cddb97e6faaee821ddbd2aa0e2e5406209636402574cd590b87b33c3c90460e",
      "scriptpubkey_asm": "OP_PUSHNUM_1 OP_PUSHBYTES_32 5cddb97e6faaee821ddbd2aa0e2e5406209636402574cd590b87b33c3c90460e",
      "scriptpubkey_type": "v1_p2tr",
      "scriptpubkey_address": "bc1ptnwmjln04thgy8wm624qutj5qcsfvdjqy46v6kgts7enc0ysgc8qfmda5r",
      "value": 546
    }
  ],
  "size": 487,
  "weight": 769,
  "fee": 2316,
  "status": {
    "confirmed": true,
    "block_height": 834460,
    "block_hash": "00000000000000000000484a79b643b2524bbce82e5d8a442013fa5b8905ed98",
    "block_time": 1710307468
  },
  "hex": "02000000000101b7419415b6c7725e112927a994adf2381504cdc810c941bb19eef474de61c82e0400000000ffffffff0122020000000000002251205cddb97e6faaee821ddbd2aa0e2e5406209636402574cd590b87b33c3c90460e03409e8cc230c95b923e389e3becf1b7655fb0585b525e61cd35e2d540563b21bd7dbb3db0f38691e77bd80c779c1ebacbaae05d8ec24b73b7ca98f86d8ce8ca943afd200120c4eac93d89ee6fedd2aac47b04441d7711c3a7295fc192d1bfe0e0430eb1b69bac0063036f726401011e6170706c69636174696f6e2f6a736f6e3b636861727365743d7574662d38004cd37b2270223a22706f772d3230222c226f70223a226d696e74222c227469636b223a2250455045222c22616d74223a2231303030222c22736f6c7574696f6e223a22504550453a62633170746e776d6a6c6e30347468677938776d3632347175746a357163736676646a7179343676366b67747337656e6330797367633871666d646135723a303030303030303030303030303030303030303139393431613561653132383937363539383134343239323533333030353762306461393666336465613163353a3430383639323437333732227d6821c1b3bc6f424055c5ec6ac1dc8b207f1ba18c4db693056bc938ea6425d8b7a6226800000000"
}