{
  "txid": "f56b82a660b624ad4600cc25955e8df9b1c88c041427ed9df1ec4232b3c4ebf5",
  "version": 2,
  "locktime": 0,
  "vin": [
    {
      "txid": "8486ecb4df0880316dd6e82b3971b4df187aff23765bc3a47f8d78bb53aa273c",
      "vout": 109,
      "prevout": {
        "scriptpubkey": "5120502c26b2a866269469ab6c27e3eae4cdcea0b65e45e646e0c55176b172265aa1",
        "scriptpubkey_asm": "OP_PUSHNUM_1 OP_PUSHBYTES_32 502c26b2a866269469ab6c27e3eae4cdcea0b65e45e646e0c55176b172265aa1",
        "scriptpubkey_type": "v1_p2tr",
        "scriptpubkey_address": "bc1p2qkzdv4gvcnfg6dtdsn786hyeh82pdj7ghnydcx929mtzu3xt2ssan0r2h",
        "value": 2575
      },
      "scriptsig": "",
      "scriptsig_asm": "",
      "witness": [
        "95875097e0ba3282e06eee93069672b3a109f1f5fee5bef5dfe99b00363eb2b085143c0dcac004495adeb65f1c1a37c153b967d6cf280046b12854f702fbc076",
        "20efcd8d5b5af43b62cbbb63faac503920333b7fdb9eb95ed246fbe8a90db8bbc0ac0063036f726401010a746578742f706c61696e00367b2270223a226272632d3230222c226f70223a226d696e74222c227469636b223a2261616161222c22616d74223a223130303030227d68",
        "c0efcd8d5b5af43b62cbbb63faac503920333b7fdb9eb95ed246fbe8a90db8bbc0"
      ],
      "is_coinbase": false,
      "sequence": 4261412863
    }
  ],
  "vout": [
    {
      "scriptpubkey": "0014ddd7ef12ea6f78edcc1e8e7afa12c01ab59f3339",
      "scriptpubkey_asm": "OP_0 OP_PUSHBYTES_20 ddd7ef12ea6f78edcc1e8e7afa12c01ab59f3339",
      "scriptpubkey_type": "v0_p2wpkh",
      "scriptpubkey_address": "bc1qmht77yh2dauwmnq73ea05ykqr26e7veea8spz6",
      "value": 546
    }
  ],
  "size": 295,
  "weight": 541,
  "fee": 2029,
  "status": {
    "confirmed": true,
    "block_height": 834460,
    "block_hash": "00000000000000000000484a79b643b2524bbce82e5d8a442013fa5b8905ed98",
    "block_time": 1710307468
  },
  "hex": "020000000001013c27aa53bb788d7fa4c35b7623ff7a18dfb471392be8d66d318008dfb4ec86846d00000000fffffffd012202000000000000160014ddd7ef12ea6f78edcc1e8e7afa12c01ab59f3339034095875097e0ba3282e06eee93069672b3a109f1f5fee5bef5dfe99b00363eb2b085143c0dcac004495adeb65f1c1a37c153b967d6cf280046b12854f702fbc0766e20efcd8d5b5af43b62cbbb63faac503920333b7fdb9eb95ed246fbe8a90db8bbc0ac0063036f726401010a746578742f706c61696e00367b2270223a226272632d3230222c226f70223a226d696e74222c227469636b223a2261616161222c22616d74223a223130303030227d6821c0efcd8d5b5af43b62cbbb63faac503920333b7fdb9eb95ed246fbe8a90db8bbc000000000"
}