{
  "txid": "f583068e73ad075a95a67209a974603d61a347ee1081f455816df99e4876a5f8",
  "version": 1,
  "locktime": 0,
  "vin": [
    {
      "txid": "49b3fed0e3d389bbc7da4db0b3b0aa52e65377f6c7f4db9804f7d5be54a654d5",
      "vout": 1,
      "prevout": {
        "scriptpubkey": "76a9145d9b8ebd1bc041f8101b7a4931832a12f48c6d0588ac",
        "scriptpubkey_asm": "OP_DUP OP_HASH160 OP_PUSHBYTES_20 5d9b8ebd1bc041f8101b7a4931832a12f48c6d05 OP_EQUALVERIFY OP_CHECKSIG",
        "scriptpubkey_type": "p2pkh",
        "scriptpubkey_address": "19XxCArWFn1H4EzKtJWnYdpRa4w3saJNbi",
        "value": 55095
      },
      "scriptsig": "47304402205f1fb20c6de1a8f372ec7d135bc62661415105d2e04435912e1ac1b0f24e12b4022036ee2e2b4d0d498c1deb5b800ec8a973f9155cfb5fac43a939faab04fb4728e80121027fb50761a0d95f905ee68e71337d861154f9b9ee4a41c001710099efd09189a1",
      "scriptsig_asm": "OP_PUSHBYTES_71 304402205f1fb20c6de1a8f372ec7d135bc62661415105d2e04435912e1ac1b0f24e12b4022036ee2e2b4d0d498c1deb5b800ec8a973f9155cfb5fac43a939faab04fb4728e801 OP_PUSHBYTES_33 027fb50761a0d95f905ee68e71337d861154f9b9ee4a41c001710099efd09189a1",
      "is_coinbase": false,
      "sequence": 4294967295
    },
    {
      "txid": "62485d67eb4e186cbe47ea603d3d03821c9d7407cc38faf7f822a4622dfbaea4",
      "vout": 5,
      "prevout": {
        "scriptpubkey": "76a9145d9b8ebd1bc041f8101b7a4931832a12f48c6d0588ac",
        "scriptpubkey_asm": "OP_DUP OP_HASH160 OP_PUSHBYTES_20 5d9b8ebd1bc041f8101b7a4931832a12f48c6d05 OP_EQUALVERIFY OP_CHECKSIG",
        "scriptpubkey_type": "p2pkh",
        "scriptpubkey_address": "19XxCArWFn1H4EzKtJWnYdpRa4w3saJNbi",
        "value": 1000
      },
      "scriptsig": "483045022100a22ce06d1f8000cfe3e10d7324fd5f4577c803277899a7547a3b8ad64ad5238c022030b38a4acdf7e16021377a66b3498fa22548e199cfd331d56d4cc0bf5b4f2fae0121027fb50761a0d95f905ee68e71337d861154f9b9ee4a41c001710099efd09189a1",
      "scriptsig_asm": "OP_PUSHBYTES_72 3045022100a22ce06d1f8000cfe3e10d7324fd5f4577c803277899a7547a3b8ad64ad5238c022030b38a4acdf7e16021377a66b3498fa22548e199cfd331d56d4cc0bf5b4f2fae01 OP_PUSHBYTES_33 027fb50761a0d95f905ee68e71337d861154f9b9ee4a41c001710099efd09189a1",
      "is_coinbase": false,
      "sequence": 4294967295
    },
    {
      "txid": "b3f501a64e15caacfe3f40c1882014586fa11cfdb10214b343b821b357360813",
      "vout": 9,
      "prevout": {
        "scriptpubkey": "76a9145d9b8ebd1bc041f8101b7a4931832a12f48c6d0588ac",
        "scriptpubkey_asm": "OP_DUP OP_HASH160 OP_PUSHBYTES_20 5d9b8ebd1bc041f8101b7a4931832a12f48c6d05 OP_EQUALVERIFY OP_CHECKSIG",
        "scriptpubkey_type": "p2pkh",
        "scriptpubkey_address": "19XxCArWFn1H4EzKtJWnYdpRa4w3saJNbi",
        "value": 700
      },
      "scriptsig": "473044022041ee52520514d46636526bac96fa73c1f9b571cdf8e71bb9fcf5c70619a3f9e9022063639c992d67f351b26a4eb92e2e5996eca5d92b224f1587ed8293211092f5710121027fb50761a0d95f905ee68e71337d861154f9b9ee4a41c001710099efd09189a1",
      "scriptsig_asm": "OP_PUSHBYTES_71 3044022041ee52520514d46636526bac96fa73c1f9b571cdf8e71bb9fcf5c70619a3f9e9022063639c992d67f351b26a4eb92e2e5996eca5d92b224f1587ed8293211092f57101 OP_PUSHBYTES_33 027fb50761a0d95f905ee68e71337d861154f9b9ee4a41c001710099efd09189a1",
      "is_coinbase": false,
      "sequence": 4294967295
    },
    {
      "txid": "b0f27aeb0a7c3bc6c278cb6e13149bc12102c8b884825682fa7a44ebcdada397",
      "vout": 1,
      "prevout": {
        "scriptpubkey": "76a9145d9b8ebd1bc041f8101b7a4931832a12f48c6d0588ac",
        "scriptpubkey_asm": "OP_DUP OP_HASH160 OP_PUSHBYTES_20 5d9b8ebd1bc041f8101b7a4931832a12f48c6d05 OP_EQUALVERIFY OP_CHECKSIG",
        "scriptpubkey_type": "p2pkh",
        "scriptpubkey_address": "19XxCArWFn1H4EzKtJWnYdpRa4w3saJNbi",
        "value": 204725
      },
      "scriptsig": "47304402203045fd5493e819d91807e6767e0a805c1aa2bb7f5f52307bed4cd863a498ca1a02206b5918db4e73fe773420c51b9cad23b83e89b0fa0b9f03dd59233c3967e8e0930121027fb50761a0d95f905ee68e71337d861154f9b9ee4a41c001710099efd09189a1",
      "scriptsig_asm": "OP_PUSHBYTES_71 304402203045fd5493e819d91807e6767e0a805c1aa2bb7f5f52307bed4cd863a498ca1a02206b5918db4e73fe773420c51b9cad23b83e89b0fa0b9f03dd59233c3967e8e09301 OP_PUSHBYTES_33 027fb50761a0d95f905ee68e71337d861154f9b9ee4a41c001710099efd09189a1",
      "is_coinbase": false,
      "sequence": 4294967295
    },
    {
      "txid": "a57c26dab548bc179212b93da6b533c08eede4777fb8dcd10e83f46b44b21a19",
      "vout": 2,
      "prevout": {
        "scriptpubkey": "76a9145d9b8ebd1bc041f8101b7a4931832a12f48c6d0588ac",
        "scriptpubkey_asm": "OP_DUP OP_HASH160 OP_PUSHBYTES_20 5d9b8ebd1bc041f8101b7a4931832a12f48c6d05 OP_EQUALVERIFY OP_CHECKSIG",
        "scriptpubkey_type": "p2pkh",
        "scriptpubkey_address": "19XxCArWFn1H4EzKtJWnYdpRa4w3saJNbi",
        "value": 1300
      },
      "scriptsig": "483045022100fb0d1078ad6fbb11904301dbc4c665157d97e041c5432f43603b3cd04230728202207d594be5804d0114a29a5523c82c9c4d2005241b066e1adc1e7beedcc26e76010121027fb50761a0d95f905ee68e71337d861154f9b9ee4a41c001710099efd09189a1",
      "scriptsig_asm": "OP_PUSHBYTES_72 3045022100fb0d1078ad6fbb11904301dbc4c665157d97e041c5432f43603b3cd04230728202207d594be5804d0114a29a5523c82c9c4d2005241b066e1adc1e7beedcc26e760101 OP_PUSHBYTES_33 027fb50761a0d95f905ee68e71337d861154f9b9ee4a41c001710099efd09189a1",
      "is_coinbase": false,
      "sequence": 4294967295
    },
    {
      "txid": "0c8558b563c07da8aa89bf91d8c7c91a6b3359ade5330731e509fa14441d70f1",
      "vout": 2,
      "prevout": {
        "scriptpubkey": "76a9145d9b8ebd1bc041f8101b7a4931832a12f48c6d0588ac",
        "scriptpubkey_asm": "OP_DUP OP_HASH160 OP_PUSHBYTES_20 5d9b8ebd1bc041f8101b7a4931832a12f48c6d05 OP_EQUALVERIFY OP_CHECKSIG",
        "scriptpubkey_type": "p2pkh",
        "scriptpubkey_address": "19XxCArWFn1H4EzKtJWnYdpRa4w3saJNbi",
        "value": 1200
      },
      "scriptsig": "4730440220066395858491f6337611f585216cd41ce23318d127f23d4036b67ca14aca0416022032449e2ae50b221669ec592f111fc3cd734d2f981aa3e549de1549a8520604a00121027fb50761a0d95f905ee68e71337d861154f9b9ee4a41c001710099efd09189a1",
      "scriptsig_asm": "OP_PUSHBYTES_71 30440220066395858491f6337611f585216cd41ce23318d127f23d4036b67ca14aca0416022032449e2ae50b221669ec592f111fc3cd734d2f981aa3e549de1549a8520604a001 OP_PUSHBYTES_33 027fb50761a0d95f905ee68e71337d861154f9b9ee4a41c001710099efd09189a1",
      "is_coinbase": false,
      "sequence": 4294967295
    }
  ],
  "vout": [
    {
      "scriptpubkey": "a9141e5c4b86ae872004f134c92755e4f38de0d9eee487",
      "scriptpubkey_asm": "OP_HASH160 OP_PUSHBYTES_20 1e5c4b86ae872004f134c92755e4f38de0d9eee4 OP_EQUAL",
      "scriptpubkey_type": "p2sh",
      "scriptpubkey_address": "34TYm4yXooxfU9zuHe2WkSaUUDjvn9WbuR",
      "value": 243324
    },
    {
      "scriptpubkey": "a914ec8577fa035f60c29c10bf0f9f1c2938356fb05587",
      "scriptpubkey_asm": "OP_HASH160 OP_PUSHBYTES_20 ec8577fa035f60c29c10bf0f9f1c2938356fb055 OP_EQUAL",
      "scriptpubkey_type": "p2sh",
      "scriptpubkey_address": "3PFdHP2yBefVpsKxZMtTMMYBCveukBG46t",
      "value": 10195
    }
  ],
  "size": 958,
  "weight": 3832,
  "fee": 10501,
  "status": {
    "confirmed": true,
    "block_height": 834464,
    "block_hash": "0000000000000000000177a0869a911a2b65c9bdcd5a8bcb02b68f305bee848e",
    "block_time": 1710308296
  },
  "hex": "0100000006d554a654bed5f70498dbf4c7f67753e652aab0b3b04ddac7bb89d3e3d0feb349010000006a47304402205f1fb20c6de1a8f372ec7d135bc62661415105d2e04435912e1ac1b0f24e12b4022036ee2e2b4d0d498c1deb5b800ec8a973f9155cfb5fac43a939faab04fb4728e80121027fb50761a0d95f905ee68e71337d861154f9b9ee4a41c001710099efd09189a1ffffffffa4aefb2d62a422f8f7fa38cc07749d1c82033d3d60ea47be6c184eeb675d4862050000006b483045022100a22ce06d1f8000cfe3e10d7324fd5f4577c803277899a7547a3b8ad64ad5238c022030b38a4acdf7e16021377a66b3498fa22548e199cfd331d56d4cc0bf5b4f2fae0121027fb50761a0d95f905ee68e71337d861154f9b9ee4a41c001710099efd09189a1ffffffff13083657b321b843b31402b1fd1ca16f58142088c1403ffeacca154ea601f5b3090000006a473044022041ee52520514d46636526bac96fa73c1f9b571cdf8e71bb9fcf5c70619a3f9e9022063639c992d67f351b26a4eb92e2e5996eca5d92b224f1587ed8293211092f5710121027fb50761a0d95f905ee68e71337d861154f9b9ee4a41c001710099efd09189a1ffffffff97a3adcdeb447afa82568284b8c80221c19b14136ecb78c2c63b7c0aeb7af2b0010000006a47304402203045fd5493e819d91807e6767e0a805c1aa2bb7f5f52307bed4cd863a498ca1a02206b5918db4e73fe773420c51b9cad23b83e89b0fa0b9f03dd59233c3967e8e0930121027fb50761a0d95f905ee68e71337d861154f9b9ee4a41c001710099efd09189a1ffffffff191ab2446bf4830ed1dcb87f77e4ed8ec033b5a63db9129217bc48b5da267ca5020000006b483045022100fb0d1078ad6fbb11904301dbc4c665157d97e041c5432f43603b3cd04230728202207d594be5804d0114a29a5523c82c9c4d2005241b066e1adc1e7beedcc26e76010121027fb50761a0d95f905ee68e71337d861154f9b9ee4a41c001710099efd09189a1fffffffff1701d4414fa09e5310733e5ad59336b1ac9c7d891bf89aaa87dc063b558850c020000006a4730440220066395858491f6337611f585216cd41ce23318d127f23d4036b67ca14aca0416022032449e2ae50b221669ec592f111fc3cd734d2f981aa3e549de1549a8520604a00121027fb50761a0d95f905ee68e71337d861154f9b9ee4a41c001710099efd09189a1ffffffff027cb603000000000017a9141e5c4b86ae872004f134c92755e4f38de0d9eee487d32700000000000017a914ec8577fa035f60c29c10bf0f9f1c2938356fb0558700000000"
}