{
  "txid": "f59aff6c192159047d7e64bd2bc62f425752d0a37a35a2b708289b4d419ad773",
  "version": 1,
  "locktime": 0,
  "vin": [
    {
      "txid": "f7c4840964cd5ac195e8f58707aa4ca451128b9a32c32564c29195f0f1b8853c",
      "vout": 1,
      "prevout": {
        "scriptpubkey": "00140a64fe09cf089b2e368741274bf1dcd9a633a9ba",
        "scriptpubkey_asm": "OP_0 OP_PUSHBYTES_20 0a64fe09cf089b2e368741274bf1dcd9a633a9ba",
        "scriptpubkey_type": "v0_p2wpkh",
        "scriptpubkey_address": "bc1qpfj0uzw0pzdjud58gyn5huwumxnr82d6nzaput",
        "value": 319847
      },
      "scriptsig": "",
      "scriptsig_asm": "",
      "witness": [
        "304402206174355390fa2d6e3cebc227aa91fd2f7d00625db0baef33720b54d322194d71022033860660e032c4a9abbed0a70ce79447da598ac1710a2d0dcaa69811ae87415d01",
        "034d698c3cbeec4e1fa37a9d4f5411fd6c41d3165eb97a781d331418043dfcd983"
      ],
      "is_coinbase": false,
      "sequence": 4294967295
    }
  ],
  "vout": [
    {
      "scriptpubkey": "a91413659a506794e6fe0317c699f16f8579e389379487",
      "scriptpubkey_asm": "OP_HASH160 OP_PUSHBYTES_20 13659a506794e6fe0317c699f16f8579e3893794 OP_EQUAL",
      "scriptpubkey_type": "p2sh",
      "scriptpubkey_address": "33TaUg3vRS5q4BE3Ddh3pTGqm6vum78i5q",
      "value": 150000
    },
    {
      "scriptpubkey": "0014822a8b13579a95ef8cff38c2fb2e1069994b3dbf",
      "scriptpubkey_asm": "OP_0 OP_PUSHBYTES_20 822a8b13579a95ef8cff38c2fb2e1069994b3dbf",
      "scriptpubkey_type": "v0_p2wpkh",
      "scriptpubkey_address": "bc1qsg4gky6hn227lr8l8rp0ktssdxv5k0dlufevp9",
      "value": 168143
    }
  ],
  "size": 223,
  "weight": 565,
  "fee": 1704,
  "status": {
    "confirmed": true,
    "block_height": 834460,
    "block_hash": "00000000000000000000484a79b643b2524bbce82e5d8a442013fa5b8905ed98",
    "block_time": 1710307468
  },
  "hex": "010000000001013c85b8f1f09591c26425c3329a8b1251a44caa0787f5e895c15acd640984c4f70100000000ffffffff02f04902000000000017a91413659a506794e6fe0317c699f16f8579e389379487cf90020000000000160014822a8b13579a95ef8cff38c2fb2e1069994b3dbf0247304402206174355390fa2d6e3cebc227aa91fd2f7d00625db0baef33720b54d322194d71022033860660e032c4a9abbed0a70ce79447da598ac1710a2d0dcaa69811ae87415d0121034d698c3cbeec4e1fa37a9d4f5411fd6c41d3165eb97a781d331418043dfcd98300000000"
}