{
  "txid": "f5ae995b6b91f3f406a8fb25e8f0e4c7a9303298115a5755434576bfc1770b32",
  "version": 2,
  "locktime": 0,
  "vin": [
    {
      "txid": "8bb0611bed8947b3fdb1e2447d01aae17e1165cd56a154d81e13d45a390c3447",
      "vout": 4,
      "prevout": {
        "scriptpubkey": "0014b7c97e794134e223320361ddbd5ff4b7f8bc888e",
        "scriptpubkey_asm": "OP_0 OP_PUSHBYTES_20 b7c97e794134e223320361ddbd5ff4b7f8bc888e",
        "scriptpubkey_type": "v0_p2wpkh",
        "scriptpubkey_address": "bc1qklyhu72pxn3zxvsrv8wm6hl5klutezywcujmma",
        "value": 1547241
      },
      "scriptsig": "",
      "scriptsig_asm": "",
      "witness": [
        "3044022059c53d5560a36aa5a29990938eeef127f78bc9343cce30a62f53cd2d6e5fd247022043cf05fd287b4221fbb1f894960ffb1604a26435b88088297b2ddba8f28b333c01",
        "02b33ab0a64462696e39065c18c6fcfc15f3c08b4b8f16d16d181846652bcaa0d2"
      ],
      "is_coinbase": false,
      "sequence": 4294967295
    }
  ],
  "vout": [
    {
      "scriptpubkey": "0014b7c97e794134e223320361ddbd5ff4b7f8bc888e",
      "scriptpubkey_asm": "OP_0 OP_PUSHBYTES_20 b7c97e794134e223320361ddbd5ff4b7f8bc888e",
      "scriptpubkey_type": "v0_p2wpkh",
      "scriptpubkey_address": "bc1qklyhu72pxn3zxvsrv8wm6hl5klutezywcujmma",
      "value": 808
    },
    {
      "scriptpubkey": "512103f692b7b99e3a55d5804f1bfa4b028150376cc967986e6e116685515ec6a733bd2102e85f63ac796bd809be82b3f10cdf6ada72cd8574940f5ed7ef83375e7f0fe19d2102020202020202020202020202020202020202020202020202020202020202020253ae",
      "scriptpubkey_asm": "OP_PUSHNUM_1 OP_PUSHBYTES_33 03f692b7b99e3a55d5804f1bfa4b028150376cc967986e6e116685515ec6a733bd OP_PUSHBYTES_33 02e85f63ac796bd809be82b3f10cdf6ada72cd8574940f5ed7ef83375e7f0fe19d OP_PUSHBYTES_33 020202020202020202020202020202020202020202020202020202020202020202 OP_PUSHNUM_3 OP_CHECKMULTISIG",
      "scriptpubkey_type": "unknown",
      "value": 809
    },
    {
      "scriptpubkey": "5121030f773aebfc587c27cf8023417caae15d8e0d2f4a1453008c5d5f05e3fc6dd3bd21033a33b7355953c49c423c2ee1e5e52a335cb64e5d955495371c497f362db146862102020202020202020202020202020202020202020202020202020202020202020253ae",
      "scriptpubkey_asm": "OP_PUSHNUM_1 OP_PUSHBYTES_33 030f773aebfc587c27cf8023417caae15d8e0d2f4a1453008c5d5f05e3fc6dd3bd OP_PUSHBYTES_33 033a33b7355953c49c423c2ee1e5e52a335cb64e5d955495371c497f362db14686 OP_PUSHBYTES_33 020202020202020202020202020202020202020202020202020202020202020202 OP_PUSHNUM_3 OP_CHECKMULTISIG",
      "scriptpubkey_type": "unknown",
      "value": 809
    },
    {
      "scriptpubkey": "001420123e4942db45c3c5971b141304c3ff6f5c06c7",
      "scriptpubkey_asm": "OP_0 OP_PUSHBYTES_20 20123e4942db45c3c5971b141304c3ff6f5c06c7",
      "scriptpubkey_type": "v0_p2wpkh",
      "scriptpubkey_address": "bc1qyqfruj2zmdzu83vhrv2pxpxrlah4cpk88c9zvd",
      "value": 12000
    },
    {
      "scriptpubkey": "0014b7c97e794134e223320361ddbd5ff4b7f8bc888e",
      "scriptpubkey_asm": "OP_0 OP_PUSHBYTES_20 b7c97e794134e223320361ddbd5ff4b7f8bc888e",
      "scriptpubkey_type": "v0_p2wpkh",
      "scriptpubkey_address": "bc1qklyhu72pxn3zxvsrv8wm6hl5klutezywcujmma",
      "value": 1521704
    }
  ],
  "size": 481,
  "weight": 1597,
  "fee": 11111,
  "status": {
    "confirmed": true,
    "block_height": 834638,
    "block_hash": "000000000000000000025f742c626208ac87e0b7d15054abb4a19ca2d735a54e",
    "block_time": 1710405325
  },
  "hex": "0200000000010147340c395ad4131ed854a156cd65117ee1aa017d44e2b1fdb34789ed1b61b08b0400000000ffffffff052803000000000000160014b7c97e794134e223320361ddbd5ff4b7f8bc888e290300000000000069512103f692b7b99e3a55d5804f1bfa4b028150376cc967986e6e116685515ec6a733bd2102e85f63ac796bd809be82b3f10cdf6ada72cd8574940f5ed7ef83375e7f0fe19d2102020202020202020202020202020202020202020202020202020202020202020253ae2903000000000000695121030f773aebfc587c27cf8023417caae15d8e0d2f4a1453008c5d5f05e3fc6dd3bd21033a33b7355953c49c423c2ee1e5e52a335cb64e5d955495371c497f362db146862102020202020202020202020202020202020202020202020202020202020202020253aee02e00000000000016001420123e4942db45c3c5971b141304c3ff6f5c06c72838170000000000160014b7c97e794134e223320361ddbd5ff4b7f8bc888e02473044022059c53d5560a36aa5a29990938eeef127f78bc9343cce30a62f53cd2d6e5fd247022043cf05fd287b4221fbb1f894960ffb1604a26435b88088297b2ddba8f28b333c012102b33ab0a64462696e39065c18c6fcfc15f3c08b4b8f16d16d181846652bcaa0d200000000"
}