{
  "txid": "f5ae2bb44eb210b5918f0b5149053607221ef2e39ff757997e8b9df7c676c40b",
  "version": 1,
  "locktime": 0,
  "vin": [
    {
      "txid": "4364fd029afd3433b653d201313332421c9252473e69f38821a24de7f2f7507b",
      "vout": 0,
      "prevout": {
        "scriptpubkey": "0014eda28749c33bd53e09f0e292e7f8144a1b69a745",
        "scriptpubkey_asm": "OP_0 OP_PUSHBYTES_20 eda28749c33bd53e09f0e292e7f8144a1b69a745",
        "scriptpubkey_type": "v0_p2wpkh",
        "scriptpubkey_address": "bc1qak3gwjwr802nuz0su2fw07q5fgdknf69fl2r6j",
        "value": 30000000
      },
      "scriptsig": "",
      "scriptsig_asm": "",
      "witness": [
        "30440220781706202f39f05b326a70d0924fb18e04bbb3aae4e93cf2169fa7ce62ff47070220285f5eaaea46bb93ac5158b776e7cb59970e2b77854783996eb5f532cfebc9f401",
        "02c179737275c3cddfc8bd55d83427be0cdd36339514359af01322f32f23bc9c1c"
      ],
      "is_coinbase": false,
      "sequence": 0
    }
  ],
  "vout": [
    {
      "scriptpubkey": "00148ee9e4faf33cd51a716fa83febada579625b89fd",
      "scriptpubkey_asm": "OP_0 OP_PUSHBYTES_20 8ee9e4faf33cd51a716fa83febada579625b89fd",
      "scriptpubkey_type": "v0_p2wpkh",
      "scriptpubkey_address": "bc1q3m57f7hn8n235ut04ql7htd90939hz0adr0wgh",
      "value": 1387783
    },
    {
      "scriptpubkey": "00144376bd9db8a6bda6479210cb465fe2951090db08",
      "scriptpubkey_asm": "OP_0 OP_PUSHBYTES_20 4376bd9db8a6bda6479210cb465fe2951090db08",
      "scriptpubkey_type": "v0_p2wpkh",
      "scriptpubkey_address": "bc1qgdmtm8dc5676v3ujzr95vhlzj5gfpkcgkcmyxp",
      "value": 28605242
    }
  ],
  "size": 222,
  "weight": 561,
  "fee": 6975,
  "status": {
    "confirmed": true,
    "block_height": 834638,
    "block_hash": "000000000000000000025f742c626208ac87e0b7d15054abb4a19ca2d735a54e",
    "block_time": 1710405325
  },
  "hex": "010000000001017b50f7f2e74da22188f3693e4752921c4232333101d253b63334fd9a02fd644300000000000000000002072d1500000000001600148ee9e4faf33cd51a716fa83febada579625b89fd3a7bb401000000001600144376bd9db8a6bda6479210cb465fe2951090db08024730440220781706202f39f05b326a70d0924fb18e04bbb3aae4e93cf2169fa7ce62ff47070220285f5eaaea46bb93ac5158b776e7cb59970e2b77854783996eb5f532cfebc9f4012102c179737275c3cddfc8bd55d83427be0cdd36339514359af01322f32f23bc9c1c00000000"
}