{
  "txid": "f5b639eb8813deed223214a7b8bd8184f020e50e6c83e74fc6f1eb8e6eb59745",
  "version": 2,
  "locktime": 0,
  "vin": [
    {
      "txid": "8c52e8db1805b941480e0c08bc44651079adcc7dc4034d84f737b8c2c28c5a88",
      "vout": 0,
      "prevout": {
        "scriptpubkey": "512073857b0eb143dc4820ddbe2c34d1e86db072bf598a3131b7fd9e0f05eacbb5e1",
        "scriptpubkey_asm": "OP_PUSHNUM_1 OP_PUSHBYTES_32 73857b0eb143dc4820ddbe2c34d1e86db072bf598a3131b7fd9e0f05eacbb5e1",
        "scriptpubkey_type": "v1_p2tr",
        "scriptpubkey_address": "bc1pwwzhkr43g0wysgxahckrf50gdkc8906e3gcnrdlanc8st6ktkhss5sfw62",
        "value": 18375
      },
      "scriptsig": "",
      "scriptsig_asm": "",
      "witness": [
        "914736dd4e1cc15de2dc2a76032577f8b4c0a23fb20e13ae6403b9a8f63e7b582d1ca368175d494099e4ec4033981416879cceac3004f0f8a12223111bcb0e0f",
        "20a484b87822f4669442b6ea25dfa4aa5a44ed23a5dec8357a2d158668760bc0a5ac0063036f7264010109696d6167652f706e67004d080289504e470d0a1a0a0000000d49484452000001f4000001f40803000000fc082fb800000081504c54453b56ac3330333e3b3e010001304587050505eed6d75b8697fbeff1dec9c8b9690cffc4025984971e201f3954acfff8fa38373ad6d0cff5e9ea538092f8c843dac8c7fff359ac820b4f555aa69fa1e3d0ce4e6c977f79787394a2334377364f90b9c2cac17c2eb56102d7bbafcca21dd1b84d5b501ea89457e1cbcaf3cd6e718293cb41e21c000000097048597300000b1300000b1301009a9c1800000f7649444154789ced9d0d7fa24617475582b20d2262d2c74453b7dd4db7edf7ff80cf4f376b804179991766b8e7986cda2446c3f17fefc04c60b60271ccc67e02e01ea40b04e90241ba40902e10a40b04e90241ba40902e10a40b04e90241ba40902e10a40b04e90241ba40902e90494a4f57a93d5669ba0a9c494a5fd9d492ae826792d249ba48e9b36c96d9e14079f758ba1d32a47b0ad2a59677927e13a4f783f2ee2b24fd3e24bd1f24dd5748fa7d487a3f48baaf90748da45f2617029c5f40ba4e794fc39c5f40ba56d2777b922eaca7235da0742fcbfbf939b52e74b035cb36cb0e5d9659acfc26c4815c872764f3d87b2bde6db001d2577e91ae56bb431bb666d3b3d9acf5b1fddb64e11f9c4957ab430737d6a4676ddf81744bd2671e9392f491a45b0a7ad6fac8245d60d233928e741f09742037f3968ca423dd4748ba614d080248ba0d28efda9074c390741b90746d48ba6148ba0d48ba3624dd3024dd9fa437dd23336259f9a14cb8f415dae90420bda59f97bc34cc9d646dfeba7eb22eddf3d5359e95f76e9bc28df4ac71aaaefd95d2e97718759dc52cc4f3860c29efc71f750eeda16d5a92d37aa74ebf02492f493f9c147a0b6e74f1e3b1ceb1dddf77e54effb5dfa903232fa9f22de9a70785c19bd686f4636b75eff4d4905e967e50a5376cc501e5dd91f459b7a786f456e906f6ad9c490f61b7ceb7f28e740720fd3624dd0924dd0924fd3624dd0924dd0924fd3624dd0924dd0924fd3624dd0924dd0924fd3624ddcdbca9a02372ed583b54eb32e9a9b1091737d26736a51bd95efe4beff0eade354dadda4b7a2b03e6d33b4a4f8524bd7185449d0777d27f1c6bfca7602de9e32eb4702bfd610886cafbf73a8f0abfd779ff5f1d337f259d8d3bfd1a847413493f2afe1e47933ef6420ba48f91f40e90f48925bd0b4837b00d91fe09e5bd0449370e03b93e50de0d6c43cafb2794f7129477e350defb407937b00d29ef9f50de4b50de8d43799f7c796f9848e5d8fbc4a55f2efe8274a373eec65e04f67a7ac3336496ad3b996a260d21e9f55377ec9a9648489c5a9d6ad20777703bd2b3599745144fbf3f3d55de9fdedf9fde2f7c7c7877255d3dcbd1ec80f4be1bf1c7539dc70e28777298f43a3ba43b91fe349e74e51720e9d34f7a1da4f787a4cb1bc891f432484d0802bf073dbd1724dd30f4f401db8cd1fb2794f7bb307a9757de9f902e4ffa23d2e5497f42ba3ce98f489727fd09e9e349afcf320e39df3b490f6b974d3148d2a72e5d3945c9a0a41fdfeb3c0ea8efce1651489f5a5518245dfdd4610876aee0d701a49bb92edb20c6b28e744397dd1c00490fa8bc074f464f9f892343fa4c1c19d267e2c8903e134786f4993832a4cfc491217d268e0ce9337164489f892343fa4c1c19d2bd39246e09658208e94d1b695a6448af4fb87834f9650be5f7915ede1f4ef5dbe4a467b34c5930245cbafa2a989ef493f24b22bdca04937e423a497f20e9245d077aba9750dedba1a7f782a47b094927e917d865abc27ebac0f24e4f17289da40b944ed2054a27e902a5937481d24fc6fe12d917987069e5bcd06476fbf6f3efd36f7f4319f538c9bd9f5c7a8cf23dea3fe6f2f0ca679a1e8d8333c692def6e52b834f5e60bcd4043ab5ba3b1c0ea7cafbb0ab354128d22f57113bbf95de5d76f9f039d52fcfe5ff25ba1a2e1de77468173ea7f62d3ae16bad0ae5a46cc10092ae80f4ded22d9940baaf205d2027922e8f13d2e57142ba3c4e4897c709e9f238215d1e27a4cbe38474799c902e8f13d2e5719a8a74e5941a7fb4f2f0f087044e2a13919ea6bbf26d97eef2751b0ffbef7594eb2ebdffaddc6d1116fb7457db38979527e14b6ff81dba483f2ad7cdfa5d41959e2f4222df77db5e6126bdb62aa053d2d58ba54d08024d517aaa3289a4d74907267d9ad257ee40ba0f205d68795f9174cabbe4f2fe074997277dfd37e5dd3448f7017a3a49b70d49f701924ed26d43d27d80a49374db90747f275c5a193a1187746fa4affadf244b7f9ac0b1779784285d6580f4fcfc5df3d2fb7a9e8fc762df9bc37e2729e946a4cfa3388e4aef711ccf03638ff4bed2e3a8421c8d2f3deff30fd207243dbe88bede222f92dedd38d2074aaff2213d1fe73defffe2a0bc0f921e976fa3273deff97d483796f4f975a3bafe788dfcfdb72b48d7ede9f147d24734de03cabbe9a4cfdd1bffd5dcbbfabe40d227d0d3cf7c54f07befecb2d919bdcf3ffba7ab8fa587ee444ed2f5f7d3e372d287355a0dd47db6bb9de02794770ba3f7f908a3b872736ff84879b7d2d3f3ba71fbc21bea4adbab83d1bb95d17b3e77426504f1abc977b907e57dc04909e6f77a7a6d135b1cc4dd94dc7c9fca3707dad3d3c5dac4d4eaf7cb7c7885d688ad5b46ef2ee3fe49d7ac875bde57e9db4b07fe6de5eff32cd900e21b49afea76d2d46b4767da477cc14adfbd2d5f97af6d6c153635f697a9d1ea4c6907e335ee1d9cb124bca198dcdf75a8dc2154e9ff3cb7f3a5ce73912445f9b66f30d87a8b6e24bd6cc16585bf3b9a6f2454e9afaad276b64552a1309df4bceadbde20eea6edebfe78e53ea5af9eff1fe986929ecf1df229b341bcf24c94ce2f4afab395a4c7e59eaef65e2b1f9b5e061d3e254e4d0802fab3b9a4c73766d99a8d1b179edf6927370bc0b5ee8b926e3de9f90d4766b93d7caf6b565f01bffe439474db496fc2d220eed623ddf8dfead7906eb0a7e77d1c0da77e7046a9ea8d3b71a56786745349cf5b25191cc55547e3952f969bf78d3e204aba83d1fbbcaa4869a79a1f5b0ffad4a3ddf83551d2adf7f4bc617bdbdc81ff15f85b634865582f70f46ee7885cdc7018b661db1b1cc435e5bdcf6b0be926933eb73c88abb6f21b0f5179a934eedf8b926eb1a7e71fb78af6eb273ffed1fe78d57e7d28e5d04c7d4f4d1d5ae4b2a477e9e9fd89bd58f7de07f1d2f589e27cbe388e45ff3351ecf707c9494f5eb7cf26d86e5f9371d82c77034e2fb51bbadda7d0d3936463e4965cdec792ee9049243d7c9643921ee429c5907e85a4cb4cba43a6d1d383678974926e9710934e79d704e95e4079a7a75b86a47b0149a7a75b86a47b0149a7a75b86a47b0149a7a75b86a47b0149a7a75b86a47b0149a7a75b86a47b0149a7a75b86a47b0149a7a75b86a47b0149a7a75b86a47b0149a7a75b86a47b0149a7a75b86a47b0149a7a74f3de943389fe47d0a14979bc65fad9eff703540e983483653a390f3b76ce9ea65d0b93a5e26c7dbb0d38f0498f474b55b9f4fae6f01fdf30e3572b916802f448b104f4a6051ba0422a4cb2342ba3c22a4cb23ca537aba34a239d2c511215d1e11d2e511215d1e11d2e511215d1e11d2e511215d1e916be9c34d08021e4c81091791d2757e6be1446ea59f17eaec0c90eed6d100ba5c7eabe15e66b674d4fee81dae1b1566d2dfbe1a61afcb8db5358b7c9157589899b98f16fd9fd27ea160e4c944b9e34514bb37234bc392e77f0650babccead1f7cacbfbab67b33d25f5a2ff3a2ae7ffbfa755bb9197a32d1def172a9dddb791967a17b2b9ebff45e0afbe5bc1ab6b4a2b450df8a64bfad634c7ad1bec8b5fa7c96ca73395f482e48e9462e6c540cbab04387f3bd1fbf8e26bda87f4295be44ba8d93fc1fc74c7a0da41b487afb355c0aa44fadbc0796f40d4997273d413ad2b70ce486249d9e2e6f972db0f2bea1bccb939e201de95b7afa90a4d3d32fd0d3fd2def1bca3be57d4b796720371859e5bd434fdf37ccb219e1c5d0e85d1f61d23becb2bd281bfab89ed7c8fbb358b72fa2507f49e5b914c7759dfe415fc748afa2aa31b2d26733e4a55ed45ea3e77515afcb32afcbedb0358624bd75dbab4b7792016f36b89c522cedf7f6f3a398f2dedad3c363793979e04565dafa76bdd1d3436613c4b9617d1fc885c612e948b74b88499f664f774888d229ef9a20dd0b483a49b74c8849a7a70b944e4fd704e95e404f27e9960931e9f47481d2e9e99a20dd0be8e924dd3221269d9e2e503a3d5d13a47b013d9da45b26c4a4d3d3054aa7a76b82742fa0a79374cb8498747aba40e9f4744d90ee05f474926e9910934e4f17289d9eae09d2bd809e4ed22d1362d24d0802e9e902a5d3d33541ba17d0d349ba65424c3a3d5da0747aba2648f7027a3a49b74c8849a7a70b944e4fd704e95e404f27e9960931e9f47481d2e9e99a20dd0be8e924ddd7a45fce77aff75ed0d3434bba09e8e921494fdfbe1a61c8388e81dc28d2cf579530c06af7f63a64f8cee87d94a49bb13e543afbe9239577ddc7fdf953487a483ddd0c94f75f209d9e6e9910934e4f17289dd1bb2648f7027a3a49b74c8849a7a70b944e4fd704e95e404f27e9960931e9f47481d2e9e99a20dd0be8e98e927edcbbe2a575e930d21df5f479e48ae3a6ed1923dd51d27357ce63a4cb931e215d9ef418e9def4f4dc9574924ed29b602037b5f21e51dee9e90d90747aba65041f86cd5d557746ef02a547f47479d263a4eb4b673f5d137aba7d48ba27e5bd480a7aba04e945e92d394b8f1d414ff7a3a71749b18e5c81f451925e6c5ee68bbcc2e2c519dbd6e7c711392bd28f4afe928d33903e4ed28f515c1b5317497139ad99831bd2c7e8e90d498fcd1ce23103e5dd4d798f912ea0bc235dd81139a4872e9d9e2e503a49d704e95ec0e89da45b26c4a4d3d3054aa7a76b82742fa0a79374cb08eae9ea848b3f907437498f0cacbfe9f8d60ed2ad487f89d7358a21caed4ca723dd86745314df86d0fe7349ba859e6e8ae56f7ff5e73756ce049df4e59fbff5e74fa4072efdafdeceff427ac8d28b0dd203da4f37c592a48f249df22ef0881cd235417a0f4d0802e8e906a0a7ff8283339477cb50de7bc1e85ddc40ae603f7d34e9eca76b4279ef05e55d5c794f902e4f7a414f1f4d3a3d5d137a7a2fe8e9e2ca7b827479d20b7afa68d2e9e99ad0d37b414f1757de13a4cb935ed0d347934e4fd7849ede0b7abab8f29e205d9ef4829e3e9a747aba26f4f45ed0d3c595f704e9f2a417f4f4d1a4d3d335a1a7f7829e2eaebc27489727bda0a78f269d9eae093dbd17f47471e53d41ba3ce9053d7d34e9f4744de8e9bda0a78b2bef09d2e5492fe8e9a349a7a76b424fef053d5d5c794f902e4f7a414f1f4d3a3d5d137a7a2fe8e9e2ca7b8274a41b3bc9ffa6d8ad1c1260797ffeb62c8a91de5eff1cc2a6b84ff2f696badceec1497ffee7dbb7d7e58557e7ff2e5fec2472b75bb9b41e64d23f0c38e7f52c3db5c0caa9f3f0a43f7fb926dd3d85a5a4bb751e9ef4d1933e0182933ecda4bb2538e9245da074922e503a4917289da40b944ed2054a27e902a5937481d249ba40e9245da074922e503a4917289da40b944ed2054a27e902a5937481d249ba40e9245da074922e503a4917289da40b944ed2054a27e902a5937481d249ba40e9245da074922e503a4917289da40b944ed2054a27e902a5937481d249ba40e9245da074922e503a4917289da40b944ed2054a27e902a5937481d249ba40e9245da074922e503a4917289da40b944ed2054a27e902a5937481d249ba40e9245da474aeecb0d2e4ff6e88e81140f10e9c9b0000000049454e44ae42608268",
        "c1a484b87822f4669442b6ea25dfa4aa5a44ed23a5dec8357a2d158668760bc0a5"
      ],
      "is_coinbase": false,
      "sequence": 4294967293
    }
  ],
  "vout": [
    {
      "scriptpubkey": "512092d0c4be49414c8ce960e04bd67b94f223e9ce71227bcb9ae8584d3d87f33a1e",
      "scriptpubkey_asm": "OP_PUSHNUM_1 OP_PUSHBYTES_32 92d0c4be49414c8ce960e04bd67b94f223e9ce71227bcb9ae8584d3d87f33a1e",
      "scriptpubkey_type": "v1_p2tr",
      "scriptpubkey_address": "bc1pjtgvf0jfg9xge6tqup9av7u57g37nnn3yfauhxhgtpxnmpln8g0qek58d9",
      "value": 600
    }
  ],
  "size": 4455,
  "weight": 4737,
  "fee": 17775,
  "status": {
    "confirmed": true,
    "block_height": 834460,
    "block_hash": "00000000000000000000484a79b643b2524bbce82e5d8a442013fa5b8905ed98",
    "block_time": 1710307468
  },
  "hex": "02000000000101885a8cc2c2b837f7844d03c47dccad79106544bc080c0e4841b90518dbe8528c0000000000fdffffff01580200000000000022512092d0c4be49414c8ce960e04bd67b94f223e9ce71227bcb9ae8584d3d87f33a1e0340914736dd4e1cc15de2dc2a76032577f8b4c0a23fb20e13ae6403b9a8f63e7b582d1ca368175d494099e4ec4033981416879cceac3004f0f8a12223111bcb0e0ffda01020a484b87822f4669442b6ea25dfa4aa5a44ed23a5dec8357a2d158668760bc0a5ac0063036f7264010109696d6167652f706e67004d080289504e470d0a1a0a0000000d49484452000001f4000001f40803000000fc082fb800000081504c54453b56ac3330333e3b3e010001304587050505eed6d75b8697fbeff1dec9c8b9690cffc4025984971e201f3954acfff8fa38373ad6d0cff5e9ea538092f8c843dac8c7fff359ac820b4f555aa69fa1e3d0ce4e6c977f79787394a2334377364f90b9c2cac17c2eb56102d7bbafcca21dd1b84d5b501ea89457e1cbcaf3cd6e718293cb41e21c000000097048597300000b1300000b1301009a9c1800000f7649444154789ced9d0d7fa24617475582b20d2262d2c74453b7dd4db7edf7ff80cf4f376b804179991766b8e7986cda2446c3f17fefc04c60b60271ccc67e02e01ea40b04e90241ba40902e10a40b04e90241ba40902e10a40b04e90241ba40902e10a40b04e90241ba40902e90494a4f57a93d5669ba0a9c494a5fd9d492ae826792d249ba48e9b36c96d9e14079f758ba1d32a47b0ad2a59677927e13a4f783f2ee2b24fd3e24bd1f24dd5748fa7d487a3f48baaf90748da45f2617029c5f40ba4e794fc39c5f40ba56d2777b922eaca7235da0742fcbfbf939b52e74b035cb36cb0e5d9659acfc26c4815c872764f3d87b2bde6db001d2577e91ae56bb431bb666d3b3d9acf5b1fddb64e11f9c4957ab430737d6a4676ddf81744bd2671e9392f491a45b0a7ad6fac8245d60d233928e741f09742037f3968ca423dd4748ba614d080248ba0d28efda9074c390741b90746d48ba6148ba0d48ba3624dd3024dd9fa437dd23336259f9a14cb8f415dae90420bda59f97bc34cc9d646dfeba7eb22eddf3d5359e95f76e9bc28df4ac71aaaefd95d2e97718759dc52cc4f3860c29efc71f750eeda16d5a92d37aa74ebf02492f493f9c147a0b6e74f1e3b1ceb1dddf77e54effb5dfa903232fa9f22de9a70785c19bd686f4636b75eff4d4905e967e50a5376cc501e5dd91f459b7a786f456e906f6ad9c490f61b7ceb7f28e740720fd3624dd0924dd0924fd3624dd0924dd0924fd3624dd0924dd0924fd3624dd0924dd0924fd3624ddcdbca9a02372ed583b54eb32e9a9b1091737d26736a51bd95efe4beff0eade354dadda4b7a2b03e6d33b4a4f8524bd7185449d0777d27f1c6bfca7602de9e32eb4702bfd610886cafbf73a8f0abfd779ff5f1d337f259d8d3bfd1a847413493f2afe1e47933ef6420ba48f91f40e90f48925bd0b4837b00d91fe09e5bd0449370e03b93e50de0d6c43cafb2794f7129477e350defb407937b00d29ef9f50de4b50de8d43799f7c796f9848e5d8fbc4a55f2efe8274a373eec65e04f67a7ac3336496ad3b996a260d21e9f55377ec9a9648489c5a9d6ad20777703bd2b3599745144fbf3f3d55de9fdedf9fde2f7c7c7877255d3dcbd1ec80f4be1bf1c7539dc70e28777298f43a3ba43b91fe349e74e51720e9d34f7a1da4f787a4cb1bc891f432484d0802bf073dbd1724dd30f4f401db8cd1fb2794f7bb307a9757de9f902e4ffa23d2e5497f42ba3ce98f489727fd09e9e349afcf320e39df3b490f6b974d3148d2a72e5d3945c9a0a41fdfeb3c0ea8efce1651489f5a5518245dfdd4610876aee0d701a49bb92edb20c6b28e744397dd1c00490fa8bc074f464f9f892343fa4c1c19d267e2c8903e134786f4993832a4cfc491217d268e0ce9337164489f892343fa4c1c19d2bd39246e09658208e94d1b695a6448af4fb87834f9650be5f7915ede1f4ef5dbe4a467b34c5930245cbafa2a989ef493f24b22bdca04937e423a497f20e9245d077aba9750dedba1a7f782a47b094927e917d865abc27ebac0f24e4f17289da40b944ed2054a27e902a5937481d24fc6fe12d917987069e5bcd06476fbf6f3efd36f7f4319f538c9bd9f5c7a8cf23dea3fe6f2f0ca679a1e8d8333c692def6e52b834f5e60bcd4043ab5ba3b1c0ea7cafbb0ab354128d22f57113bbf95de5d76f9f039d52fcfe5ff25ba1a2e1de77468173ea7f62d3ae16bad0ae5a46cc10092ae80f4ded22d9940baaf205d2027922e8f13d2e57142ba3c4e4897c709e9f238215d1e27a4cbe38474799c902e8f13d2e5719a8a74e5941a7fb4f2f0f087044e2a13919ea6bbf26d97eef2751b0ffbef7594eb2ebdffaddc6d1116fb7457db38979527e14b6ff81dba483f2ad7cdfa5d41959e2f4222df77db5e6126bdb62aa053d2d58ba54d08024d517aaa3289a4d74907267d9ad257ee40ba0f205d68795f9174cabbe4f2fe074997277dfd37e5dd3448f7017a3a49b70d49f701924ed26d43d27d80a49374db90747f275c5a193a1187746fa4affadf244b7f9ac0b1779784285d6580f4fcfc5df3d2fb7a9e8fc762df9bc37e2729e946a4cfa3388e4aef711ccf03638ff4bed2e3a8421c8d2f3deff30fd207243dbe88bede222f92dedd38d2074aaff2213d1fe73defffe2a0bc0f921e976fa3273deff97d483796f4f975a3bafe788dfcfdb72b48d7ede9f147d24734de03cabbe9a4cfdd1bffd5dcbbfabe40d227d0d3cf7c54f07befecb2d919bdcf3ffba7ab8fa587ee444ed2f5f7d3e372d287355a0dd47db6bb9de02794770ba3f7f908a3b872736ff84879b7d2d3f3ba71fbc21bea4adbab83d1bb95d17b3e77426504f1abc977b907e57dc04909e6f77a7a6d135b1cc4dd94dc7c9fca3707dad3d3c5dac4d4eaf7cb7c7885d688ad5b46ef2ee3fe49d7ac875bde57e9db4b07fe6de5eff32cd900e21b49afea76d2d46b4767da477cc14adfbd2d5f97af6d6c153635f697a9d1ea4c6907e335ee1d9cb124bca198dcdf75a8dc2154e9ff3cb7f3a5ce73912445f9b66f30d87a8b6e24bd6cc16585bf3b9a6f2454e9afaad276b64552a1309df4bceadbde20eea6edebfe78e53ea5af9eff1fe986929ecf1df229b341bcf24c94ce2f4afab395a4c7e59eaef65e2b1f9b5e061d3e254e4d0802fab3b9a4c73766d99a8d1b179edf6927370bc0b5ee8b926e3de9f90d4766b93d7caf6b565f01bffe439474db496fc2d220eed623ddf8dfead7906eb0a7e77d1c0da77e7046a9ea8d3b71a56786745349cf5b25191cc55547e3952f969bf78d3e204aba83d1fbbcaa4869a79a1f5b0ffad4a3ddf83551d2adf7f4bc617bdbdc81ff15f85b634865582f70f46ee7885cdc7018b661db1b1cc435e5bdcf6b0be926933eb73c88abb6f21b0f5179a934eedf8b926eb1a7e71fb78af6eb273ffed1fe78d57e7d28e5d04c7d4f4d1d5ae4b2a477e9e9fd89bd58f7de07f1d2f589e27cbe388e45ff3351ecf707c9494f5eb7cf26d86e5f9371d82c77034e2fb51bbadda7d0d3936463e4965cdec792ee9049243d7c9643921ee429c5907e85a4cb4cba43a6d1d383678974926e9710934e79d704e95e4079a7a75b86a47b0149a7a75b86a47b0149a7a75b86a47b0149a7a75b86a47b0149a7a75b86a47b0149a7a75b86a47b0149a7a75b86a47b0149a7a75b86a47b0149a7a75b86a47b0149a7a75b86a47b0149a7a75b86a47b0149a7a74f3de943389fe47d0a14979bc65fad9eff703540e983483653a390f3b76ce9ea65d0b93a5e26c7dbb0d38f0498f474b55b9f4fae6f01fdf30e3572b916802f448b104f4a6051ba0422a4cb2342ba3c22a4cb23ca537aba34a239d2c511215d1e11d2e511215d1e11d2e511215d1e11d2e511215d1e916be9c34d08021e4c81091791d2757e6be1446ea59f17eaec0c90eed6d100ba5c7eabe15e66b674d4fee81dae1b1566d2dfbe1a61afcb8db5358b7c9157589899b98f16fd9fd27ea160e4c944b9e34514bb37234bc392e77f0650babccead1f7cacbfbab67b33d25f5a2ff3a2ae7ffbfa755bb9197a32d1def172a9dddb791967a17b2b9ebff45e0afbe5bc1ab6b4a2b450df8a64bfad634c7ad1bec8b5fa7c96ca73395f482e48e9462e6c540cbab04387f3bd1fbf8e26bda87f4295be44ba8d93fc1fc74c7a0da41b487afb355c0aa44fadbc0796f40d4997273d413ad2b70ce486249d9e2e6f972db0f2bea1bccb939e201de95b7afa90a4d3d32fd0d3fd2def1bca3be57d4b796720371859e5bd434fdf37ccb219e1c5d0e85d1f61d23becb2bd281bfab89ed7c8fbb358b72fa2507f49e5b914c7759dfe415fc748afa2aa31b2d26733e4a55ed45ea3e77515afcb32afcbedb0358624bd75dbab4b7792016f36b89c522cedf7f6f3a398f2dedad3c363793979e04565dafa76bdd1d3436613c4b9617d1fc885c612e948b74b88499f664f774888d229ef9a20dd0b483a49b74c8849a7a70b944e4fd704e95e404f27e9960931e9f47481d2e9e99a20dd0be8e924dd3221269d9e2e503a3d5d13a47b013d9da45b26c4a4d3d3054aa7a76b82742fa0a79374cb8498747aba40e9f4744d90ee05f474926e9910934e4f17289d9eae09d2bd809e4ed22d1362d24d0802e9e902a5d3d33541ba17d0d349ba65424c3a3d5da0747aba2648f7027a3a49b74c8849a7a70b944e4fd704e95e404f27e9960931e9f47481d2e9e99a20dd0be8e924ddd7a45fce77aff75ed0d3434bba09e8e921494fdfbe1a61c8388e81dc28d2cf579530c06af7f63a64f8cee87d94a49bb13e543afbe9239577ddc7fdf953487a483ddd0c94f75f209d9e6e9910934e4f17289dd1bb2648f7027a3a49b74c8849a7a70b944e4fd704e95e404f27e9960931e9f47481d2e9e99a20dd0be8e98e927edcbbe2a575e930d21df5f479e48ae3a6ed1923dd51d27357ce63a4cb931e215d9ef418e9def4f4dc9574924ed29b602037b5f21e51dee9e90d90747aba65041f86cd5d557746ef02a547f47479d263a4eb4b673f5d137aba7d48ba27e5bd480a7aba04e945e92d394b8f1d414ff7a3a71749b18e5c81f451925e6c5ee68bbcc2e2c519dbd6e7c711392bd28f4afe928d33903e4ed28f515c1b5317497139ad99831bd2c7e8e90d498fcd1ce23103e5dd4d798f912ea0bc235dd81139a4872e9d9e2e503a49d704e95ec0e89da45b26c4a4d3d3054aa7a76b82742fa0a79374cb08eae9ea848b3f907437498f0cacbfe9f8d60ed2ad487f89d7358a21caed4ca723dd86745314df86d0fe7349ba859e6e8ae56f7ff5e73756ce049df4e59fbff5e74fa4072efdafdeceff427ac8d28b0dd203da4f37c592a48f249df22ef0881cd235417a0f4d0802e8e906a0a7ff8283339477cb50de7bc1e85ddc40ae603f7d34e9eca76b4279ef05e55d5c794f902e4f7a414f1f4d3a3d5d137a7a2fe8e9e2ca7b827479d20b7afa68d2e9e99ad0d37b414f1757de13a4cb935ed0d347934e4fd7849ede0b7abab8f29e205d9ef4829e3e9a747aba26f4f45ed0d3c595f704e9f2a417f4f4d1a4d3d335a1a7f7829e2eaebc27489727bda0a78f269d9eae093dbd17f47471e53d41ba3ce9053d7d34e9f4744de8e9bda0a78b2bef09d2e5492fe8e9a349a7a76b424fef053d5d5c794f902e4f7a414f1f4d3a3d5d137a7a2fe8e9e2ca7b8274a41b3bc9ffa6d8ad1c1260797ffeb62c8a91de5eff1cc2a6b84ff2f696badceec1497ffee7dbb7d7e58557e7ff2e5fec2472b75bb9b41e64d23f0c38e7f52c3db5c0caa9f3f0a43f7fb926dd3d85a5a4bb751e9ef4d1933e0182933ecda4bb2538e9245da074922e503a4917289da40b944ed2054a27e902a5937481d249ba40e9245da074922e503a4917289da40b944ed2054a27e902a5937481d249ba40e9245da074922e503a4917289da40b944ed2054a27e902a5937481d249ba40e9245da074922e503a4917289da40b944ed2054a27e902a5937481d249ba40e9245da074922e503a4917289da40b944ed2054a27e902a5937481d249ba40e9245da074922e503a4917289da40b944ed2054a27e902a5937481d249ba40e9245da474aeecb0d2e4ff6e88e81140f10e9c9b0000000049454e44ae4260826821c1a484b87822f4669442b6ea25dfa4aa5a44ed23a5dec8357a2d158668760bc0a500000000"
}