{
  "txid": "f5b817445c2df1d76d7f57729ddfd3002c4cbb2c9310d580f0646297fbd40a23",
  "version": 2,
  "locktime": 0,
  "vin": [
    {
      "txid": "be5b5b0132a7d6b98759360f2c7c033a87df4707bf5c3630e50dcb6f272cc392",
      "vout": 1,
      "prevout": {
        "scriptpubkey": "00142f57721c5588d9a0f075bb093f8c2c2bf8466781",
        "scriptpubkey_asm": "OP_0 OP_PUSHBYTES_20 2f57721c5588d9a0f075bb093f8c2c2bf8466781",
        "scriptpubkey_type": "v0_p2wpkh",
        "scriptpubkey_address": "bc1q9athy8z43rv6pur4hvynlrpv90uyveupprgstu",
        "value": 50294944
      },
      "scriptsig": "",
      "scriptsig_asm": "",
      "witness": [
        "3045022100ab4b2fcef94951a55b01aafecbe8bc8a4409116121f1656d0ca61d5e7c1f190c022019aac9da0edaf47218967a974b73ff4683b756d7d6df925f2fa7362afefd17c701",
        "0283cc7caa3e828c3a84945f8b6769978a7027638a343757fc96e5b56fc2e3ac49"
      ],
      "is_coinbase": false,
      "sequence": 4294967293
    }
  ],
  "vout": [
    {
      "scriptpubkey": "a91424381e6b9c7cd15821d5a33a06211a87229aea1f87",
      "scriptpubkey_asm": "OP_HASH160 OP_PUSHBYTES_20 24381e6b9c7cd15821d5a33a06211a87229aea1f OP_EQUAL",
      "scriptpubkey_type": "p2sh",
      "scriptpubkey_address": "34zXUeuFpevVNajDpqf6KAZtX5SWNMSBTR",
      "value": 8711513
    },
    {
      "scriptpubkey": "00140f413645623f9519ba87324bacd9a9c96150ffc5",
      "scriptpubkey_asm": "OP_0 OP_PUSHBYTES_20 0f413645623f9519ba87324bacd9a9c96150ffc5",
      "scriptpubkey_type": "v0_p2wpkh",
      "scriptpubkey_address": "bc1qpaqnv3tz8723nw58xf96ekdfe9s4pl7994dlqy",
      "value": 41578936
    }
  ],
  "size": 224,
  "weight": 566,
  "fee": 4495,
  "status": {
    "confirmed": true,
    "block_height": 834638,
    "block_hash": "000000000000000000025f742c626208ac87e0b7d15054abb4a19ca2d735a54e",
    "block_time": 1710405325
  },
  "hex": "0200000000010192c32c276fcb0de530365cbf0747df873a037c2c0f365987b9d6a732015b5bbe0100000000fdffffff0259ed84000000000017a91424381e6b9c7cd15821d5a33a06211a87229aea1f87b8717a02000000001600140f413645623f9519ba87324bacd9a9c96150ffc502483045022100ab4b2fcef94951a55b01aafecbe8bc8a4409116121f1656d0ca61d5e7c1f190c022019aac9da0edaf47218967a974b73ff4683b756d7d6df925f2fa7362afefd17c701210283cc7caa3e828c3a84945f8b6769978a7027638a343757fc96e5b56fc2e3ac4900000000"
}