{
  "txid": "f5ba1c0bc4941433c992bfb928588e7d104edaf9e80b216ccd10fec231baec28",
  "version": 2,
  "locktime": 834637,
  "vin": [
    {
      "txid": "16337e29f4c003ae1c44e5613743794127e6ea1d7c92c6b950624b0171a475b7",
      "vout": 0,
      "prevout": {
        "scriptpubkey": "0014a77ca701bacd9046884dfc0f864786881de976af",
        "scriptpubkey_asm": "OP_0 OP_PUSHBYTES_20 a77ca701bacd9046884dfc0f864786881de976af",
        "scriptpubkey_type": "v0_p2wpkh",
        "scriptpubkey_address": "bc1q5a72wqd6ekgydzzdls8cv3ux3qw7ja40vt50xj",
        "value": 162047
      },
      "scriptsig": "",
      "scriptsig_asm": "",
      "witness": [
        "3044022060526e942f31898eae414cbdaf7a5ed4c8b866636a4440dabaf7a50068aafe48022076252405c66e7e61ecb7d660c1564dadf09ab03d1feb2afc057778e633e8e00001",
        "02e024c1ce965e8ca85dda5a1ca90f243d805e108a0f94e81ce46bd5f83a09dcac"
      ],
      "is_coinbase": false,
      "sequence": 4294967293
    },
    {
      "txid": "aa3a304ab3e24b7b8d04e7e3c4f669163ef5e055b7019b4f9537c518008ddfe3",
      "vout": 1,
      "prevout": {
        "scriptpubkey": "00146d3f1475cb61b00d9efce99a8aee969967530da5",
        "scriptpubkey_asm": "OP_0 OP_PUSHBYTES_20 6d3f1475cb61b00d9efce99a8aee969967530da5",
        "scriptpubkey_type": "v0_p2wpkh",
        "scriptpubkey_address": "bc1qd5l3gawtvxcqm8huaxdg4m5kn9n4xrd94ujquh",
        "value": 6054660
      },
      "scriptsig": "",
      "scriptsig_asm": "",
      "witness": [
        "304402207f40f130fc3fdafc36205a6149a2aee8ac83ab18f71180a057c6c1b22e55d6e2022067f0d2339686ddd1756a2639f8613b8093c82770ec155f83a5c219b29fe50b7c01",
        "02ed802ee78af35d8a37ff97ebf5c57e69c956c90a34d24fa818ba495e6143fb82"
      ],
      "is_coinbase": false,
      "sequence": 4294967293
    }
  ],
  "vout": [
    {
      "scriptpubkey": "a9141d2c2e218194a27bcafad0bb256c0fd72e87e5cf87",
      "scriptpubkey_asm": "OP_HASH160 OP_PUSHBYTES_20 1d2c2e218194a27bcafad0bb256c0fd72e87e5cf OP_EQUAL",
      "scriptpubkey_type": "p2sh",
      "scriptpubkey_address": "34MGSoQMLEypAhDU2bfBiQYeLt8RxdrW1A",
      "value": 5811520
    },
    {
      "scriptpubkey": "a914aecb8cadfe9d55689cd42753b6734805dde8e11687",
      "scriptpubkey_asm": "OP_HASH160 OP_PUSHBYTES_20 aecb8cadfe9d55689cd42753b6734805dde8e116 OP_EQUAL",
      "scriptpubkey_type": "p2sh",
      "scriptpubkey_address": "3HdFLnrxQD7VKfa3PwnW2MgefWu4s1PKxd",
      "value": 399307
    }
  ],
  "size": 372,
  "weight": 840,
  "fee": 5880,
  "status": {
    "confirmed": true,
    "block_height": 834638,
    "block_hash": "000000000000000000025f742c626208ac87e0b7d15054abb4a19ca2d735a54e",
    "block_time": 1710405325
  },
  "hex": "02000000000102b775a471014b6250b9c6927c1deae6274179433761e5441cae03c0f4297e33160000000000fdffffffe3df8d0018c537954f9b01b755e0f53e1669f6c4e3e7048d7b4be2b34a303aaa0100000000fdffffff0240ad58000000000017a9141d2c2e218194a27bcafad0bb256c0fd72e87e5cf87cb1706000000000017a914aecb8cadfe9d55689cd42753b6734805dde8e1168702473044022060526e942f31898eae414cbdaf7a5ed4c8b866636a4440dabaf7a50068aafe48022076252405c66e7e61ecb7d660c1564dadf09ab03d1feb2afc057778e633e8e000012102e024c1ce965e8ca85dda5a1ca90f243d805e108a0f94e81ce46bd5f83a09dcac0247304402207f40f130fc3fdafc36205a6149a2aee8ac83ab18f71180a057c6c1b22e55d6e2022067f0d2339686ddd1756a2639f8613b8093c82770ec155f83a5c219b29fe50b7c012102ed802ee78af35d8a37ff97ebf5c57e69c956c90a34d24fa818ba495e6143fb824dbc0c00"
}