{
  "txid": "f5c31d6cd985bfa0751b50cb32a9ade2f42e62188cbf57a9fca22096c2c475ad",
  "version": 2,
  "locktime": 0,
  "vin": [
    {
      "txid": "78289f1850314fee55704d44ebad81ec1ed9d29294307cd099251ee62dd12527",
      "vout": 40,
      "prevout": {
        "scriptpubkey": "0014e5785dbca0f549f4b11cd5d357984664d6b75fed",
        "scriptpubkey_asm": "OP_0 OP_PUSHBYTES_20 e5785dbca0f549f4b11cd5d357984664d6b75fed",
        "scriptpubkey_type": "v0_p2wpkh",
        "scriptpubkey_address": "bc1qu4u9m09q74ylfvgu6hf40xzxvnttwhldged5g9",
        "value": 13489
      },
      "scriptsig": "",
      "scriptsig_asm": "",
      "witness": [
        "3045022100d70a2be73805a6daf54168ee6d37da2b02b8fd666f6a19c8f7c1ed87bf1b9f9b02205c8a294ad3df8b352ca1a290e290977cccf1aeff79e4e588128677188ac654a701",
        "021e196a488d2db5f4b40cd50831dac10feeaa66265e6be1dd474cf169e0be2209"
      ],
      "is_coinbase": false,
      "sequence": 4294967293
    }
  ],
  "vout": [
    {
      "scriptpubkey": "a914d9bad499ff67b80dd56b96f0c1fadaff066cd66587",
      "scriptpubkey_asm": "OP_HASH160 OP_PUSHBYTES_20 d9bad499ff67b80dd56b96f0c1fadaff066cd665 OP_EQUAL",
      "scriptpubkey_type": "p2sh",
      "scriptpubkey_address": "3MYGNNzJpouVr3EkLEffpo9V1gtrBWpJWa",
      "value": 12273
    }
  ],
  "size": 193,
  "weight": 442,
  "fee": 1216,
  "status": {
    "confirmed": true,
    "block_height": 834464,
    "block_hash": "0000000000000000000177a0869a911a2b65c9bdcd5a8bcb02b68f305bee848e",
    "block_time": 1710308296
  },
  "hex": "020000000001012725d12de61e2599d07c309492d2d91eec81adeb444d7055ee4f3150189f28782800000000fdffffff01f12f00000000000017a914d9bad499ff67b80dd56b96f0c1fadaff066cd6658702483045022100d70a2be73805a6daf54168ee6d37da2b02b8fd666f6a19c8f7c1ed87bf1b9f9b02205c8a294ad3df8b352ca1a290e290977cccf1aeff79e4e588128677188ac654a70121021e196a488d2db5f4b40cd50831dac10feeaa66265e6be1dd474cf169e0be220900000000"
}