{
  "txid": "f5c76bdac030ae05b9946295c24ad60e22e0f608f0b9114cc7e60a282725ab9c",
  "version": 1,
  "locktime": 0,
  "vin": [
    {
      "txid": "888888888e93519d0c3f2fdf397cc1e747954f2abaa0581f02ac58a64c738d9c",
      "vout": 0,
      "prevout": {
        "scriptpubkey": "5120d49b5f5a32b44a8d38986b5ccea167b304653ccd9633d0be842fbade94b59f7f",
        "scriptpubkey_asm": "OP_PUSHNUM_1 OP_PUSHBYTES_32 d49b5f5a32b44a8d38986b5ccea167b304653ccd9633d0be842fbade94b59f7f",
        "scriptpubkey_type": "v1_p2tr",
        "scriptpubkey_address": "bc1p6jd47k3jk39g6wycddwvagt8kvzx20xdjceap05y97ada994nalslppuvj",
        "value": 11923
      },
      "scriptsig": "",
      "scriptsig_asm": "",
      "witness": [
        "6c43de90eceb993173a21833e64a29a0055ab21cc8e6c57b21961aedaa5550dee346c2039dd9fc8b5457e52f1cbe4d732f8dc096ab6a419265acdf2a746bbc8e",
        "208543a29c44df2275486422e1310220c0484578e9d0cb9122c1ba01f3cbecd78cac00630461746f6d03646d7446a16461726773a46474696d651a65f134c8656e6f6e63651a0001000968626974776f726b636b3838383838383838382e386b6d696e745f7469636b657268696e66696e69747968",
        "c08543a29c44df2275486422e1310220c0484578e9d0cb9122c1ba01f3cbecd78c"
      ],
      "is_coinbase": false,
      "sequence": 4294967295
    }
  ],
  "vout": [
    {
      "scriptpubkey": "5120ee5d73a166b5fcf6fb0e22e1428770d9455bcd536c28912b437450303ef41201",
      "scriptpubkey_asm": "OP_PUSHNUM_1 OP_PUSHBYTES_32 ee5d73a166b5fcf6fb0e22e1428770d9455bcd536c28912b437450303ef41201",
      "scriptpubkey_type": "v1_p2tr",
      "scriptpubkey_address": "bc1paewh8gtxkh70d7cwyts59pmsm9z4hn2nds5fz26rw3grq0h5zgqsmngref",
      "value": 9999
    }
  ],
  "size": 314,
  "weight": 596,
  "fee": 1924,
  "status": {
    "confirmed": true,
    "block_height": 834460,
    "block_hash": "00000000000000000000484a79b643b2524bbce82e5d8a442013fa5b8905ed98",
    "block_time": 1710307468
  },
  "hex": "010000000001019c8d734ca658ac021f58a0ba2a4f9547e7c17c39df2f3f0c9d51938e888888880000000000ffffffff010f27000000000000225120ee5d73a166b5fcf6fb0e22e1428770d9455bcd536c28912b437450303ef4120103406c43de90eceb993173a21833e64a29a0055ab21cc8e6c57b21961aedaa5550dee346c2039dd9fc8b5457e52f1cbe4d732f8dc096ab6a419265acdf2a746bbc8e75208543a29c44df2275486422e1310220c0484578e9d0cb9122c1ba01f3cbecd78cac00630461746f6d03646d7446a16461726773a46474696d651a65f134c8656e6f6e63651a0001000968626974776f726b636b3838383838383838382e386b6d696e745f7469636b657268696e66696e6974796821c08543a29c44df2275486422e1310220c0484578e9d0cb9122c1ba01f3cbecd78c00000000"
}