{
  "txid": "f5c9838df3b8999b87fb1a59c7b65292cdbf4adca57dabd365121b17faf5d814",
  "version": 2,
  "locktime": 832408,
  "vin": [
    {
      "txid": "422b73a3b6617212157f5b4265b2122f87b3e0d08eb1df624ed65f7abb1b79c1",
      "vout": 0,
      "prevout": {
        "scriptpubkey": "00144d3d5c3472d99aaf2d27c74312acb01ff9ce6da2",
        "scriptpubkey_asm": "OP_0 OP_PUSHBYTES_20 4d3d5c3472d99aaf2d27c74312acb01ff9ce6da2",
        "scriptpubkey_type": "v0_p2wpkh",
        "scriptpubkey_address": "bc1qf574cdrjmxd27tf8cap39t9srluuumdzjrnd0l",
        "value": 8250
      },
      "scriptsig": "",
      "scriptsig_asm": "",
      "witness": [
        "30440220314a88b179ec8546a5b78ddc309dd52308169cc1bbf2db0f521d0bf9bfaa788d02204dbccc5a78c1fdcc05499f41f8082f20987f45e62bbbfd13599fee442f8cdd3001",
        "020cad5a5efb08cc845d34211b5249725cc4502cf96a26bddbb48cb133752a89bd"
      ],
      "is_coinbase": false,
      "sequence": 4294967294
    }
  ],
  "vout": [
    {
      "scriptpubkey": "00146e42ee10ebfcd4671085c9a740d79580fe42049d",
      "scriptpubkey_asm": "OP_0 OP_PUSHBYTES_20 6e42ee10ebfcd4671085c9a740d79580fe42049d",
      "scriptpubkey_type": "v0_p2wpkh",
      "scriptpubkey_address": "bc1qdepwuy8tln2xwyy9exn5p4u4srlyypyasl3g79",
      "value": 546
    },
    {
      "scriptpubkey": "0014d2a027531da586cffda8de7c8ed3860e354d21ae",
      "scriptpubkey_asm": "OP_0 OP_PUSHBYTES_20 d2a027531da586cffda8de7c8ed3860e354d21ae",
      "scriptpubkey_type": "v0_p2wpkh",
      "scriptpubkey_address": "bc1q62szw5ca5krvlldgme7ga5uxpc656gdwuh6peg",
      "value": 546
    },
    {
      "scriptpubkey": "001454127e14d76a83cbeb1f0baaa30ca6b9228f8665",
      "scriptpubkey_asm": "OP_0 OP_PUSHBYTES_20 54127e14d76a83cbeb1f0baaa30ca6b9228f8665",
      "scriptpubkey_type": "v0_p2wpkh",
      "scriptpubkey_address": "bc1q2sf8u9xhd2puh6clpw42xr9xhy3glpn99c8e4x",
      "value": 546
    },
    {
      "scriptpubkey": "0014319715cd59eb0d14040ab2d0d58d4600bf070515",
      "scriptpubkey_asm": "OP_0 OP_PUSHBYTES_20 319715cd59eb0d14040ab2d0d58d4600bf070515",
      "scriptpubkey_type": "v0_p2wpkh",
      "scriptpubkey_address": "bc1qxxt3tn2eavx3gpq2ktgdtr2xqzlswpg4t0hvrt",
      "value": 546
    },
    {
      "scriptpubkey": "00140ad51e400452b857eea8d40521590a658cff98b8",
      "scriptpubkey_asm": "OP_0 OP_PUSHBYTES_20 0ad51e400452b857eea8d40521590a658cff98b8",
      "scriptpubkey_type": "v0_p2wpkh",
      "scriptpubkey_address": "bc1qpt23usqy22u90m4g6szjzkg2vkx0lx9clsgg0t",
      "value": 546
    },
    {
      "scriptpubkey": "00141727f0b29e69c2e4db2518e22db34199dcc3a6b9",
      "scriptpubkey_asm": "OP_0 OP_PUSHBYTES_20 1727f0b29e69c2e4db2518e22db34199dcc3a6b9",
      "scriptpubkey_type": "v0_p2wpkh",
      "scriptpubkey_address": "bc1qzunlpv57d8pwfke9rr3zmv6pn8wv8f4ez4cwqy",
      "value": 2598
    }
  ],
  "size": 346,
  "weight": 1057,
  "fee": 2922,
  "status": {
    "confirmed": true,
    "block_height": 834464,
    "block_hash": "0000000000000000000177a0869a911a2b65c9bdcd5a8bcb02b68f305bee848e",
    "block_time": 1710308296
  },
  "hex": "02000000000101c1791bbb7a5fd64e62dfb18ed0e0b3872f12b265425b7f15127261b6a3732b420000000000feffffff0622020000000000001600146e42ee10ebfcd4671085c9a740d79580fe42049d2202000000000000160014d2a027531da586cffda8de7c8ed3860e354d21ae220200000000000016001454127e14d76a83cbeb1f0baaa30ca6b9228f86652202000000000000160014319715cd59eb0d14040ab2d0d58d4600bf07051522020000000000001600140ad51e400452b857eea8d40521590a658cff98b8260a0000000000001600141727f0b29e69c2e4db2518e22db34199dcc3a6b9024730440220314a88b179ec8546a5b78ddc309dd52308169cc1bbf2db0f521d0bf9bfaa788d02204dbccc5a78c1fdcc05499f41f8082f20987f45e62bbbfd13599fee442f8cdd300121020cad5a5efb08cc845d34211b5249725cc4502cf96a26bddbb48cb133752a89bd98b30c00"
}