{
  "txid": "f5e70e311d6e2e0157e887f52ddff6fb507f0940f6a4453a10a6a5fdf62aac53",
  "version": 2,
  "locktime": 0,
  "vin": [
    {
      "txid": "792f983a590a8d5ba69d4a7336ec5a60cab8673300fca523ad1c2d09e994afec",
      "vout": 0,
      "prevout": {
        "scriptpubkey": "5120b142eb4633cf791a7e01b938b352a739c2fb0affb663fe1d866e4700920673bd",
        "scriptpubkey_asm": "OP_PUSHNUM_1 OP_PUSHBYTES_32 b142eb4633cf791a7e01b938b352a739c2fb0affb663fe1d866e4700920673bd",
        "scriptpubkey_type": "v1_p2tr",
        "scriptpubkey_address": "bc1pk9pwk33neau35lsphyutx54888p0kzhlke3lu8vxderspysxww7sef2xlg",
        "value": 5000
      },
      "scriptsig": "",
      "scriptsig_asm": "",
      "witness": [
        "10252c6a6d45ec95e5185adb05fe60b0f833ff44e2facad98a4d45d61f33c4b4203cd72604a10df61be92b050d3e6315a8b273d5a67b5c7eef7f061865d5737a01"
      ],
      "is_coinbase": false,
      "sequence": 4294967295
    }
  ],
  "vout": [
    {
      "scriptpubkey": "76a914afbc586159ab1a7ae76a345ba9225a5dd5b18c0e88ac",
      "scriptpubkey_asm": "OP_DUP OP_HASH160 OP_PUSHBYTES_20 afbc586159ab1a7ae76a345ba9225a5dd5b18c0e OP_EQUALVERIFY OP_CHECKSIG",
      "scriptpubkey_type": "p2pkh",
      "scriptpubkey_address": "1H2Ct2Yq8mgnq9HSi5gFzPNhEo1FgDLRyy",
      "value": 3768
    }
  ],
  "size": 154,
  "weight": 409,
  "fee": 1232,
  "status": {
    "confirmed": true,
    "block_height": 834460,
    "block_hash": "00000000000000000000484a79b643b2524bbce82e5d8a442013fa5b8905ed98",
    "block_time": 1710307468
  },
  "hex": "02000000000101ecaf94e9092d1cad23a5fc003367b8ca605aec36734a9da65b8d0a593a982f790000000000ffffffff01b80e0000000000001976a914afbc586159ab1a7ae76a345ba9225a5dd5b18c0e88ac014110252c6a6d45ec95e5185adb05fe60b0f833ff44e2facad98a4d45d61f33c4b4203cd72604a10df61be92b050d3e6315a8b273d5a67b5c7eef7f061865d5737a0100000000"
}