{
  "txid": "f6184c9f5a5c919956ac39d4ad05118dd219446b056dd0dcae51730bbaacff4e",
  "version": 1,
  "locktime": 0,
  "vin": [
    {
      "txid": "ca56987a615eda7f01242b37ee0ec8cd884a932a4722679eaf09388bbf68cdef",
      "vout": 17,
      "prevout": {
        "scriptpubkey": "76a914465c585d94a6010d549e34fb4c47f897b5c3f67288ac",
        "scriptpubkey_asm": "OP_DUP OP_HASH160 OP_PUSHBYTES_20 465c585d94a6010d549e34fb4c47f897b5c3f672 OP_EQUALVERIFY OP_CHECKSIG",
        "scriptpubkey_type": "p2pkh",
        "scriptpubkey_address": "17R2vgeYwP8ut5Vm8fTj2xzGBMKahENVXU",
        "value": 2804573
      },
      "scriptsig": "483045022100f17b50778f60dc2aa00db33af4fd81c7a75f222cab9018eff9b7cd5177443225022070ec97309ed17e5edbb83a2df0d634ef9c4b3869a0f6e2f5436c1df3451d25a3012102b40302a6df422907b26f2ac811f773bc2d51cf92f6bbf68bcaf032df9e9eec62",
      "scriptsig_asm": "OP_PUSHBYTES_72 3045022100f17b50778f60dc2aa00db33af4fd81c7a75f222cab9018eff9b7cd5177443225022070ec97309ed17e5edbb83a2df0d634ef9c4b3869a0f6e2f5436c1df3451d25a301 OP_PUSHBYTES_33 02b40302a6df422907b26f2ac811f773bc2d51cf92f6bbf68bcaf032df9e9eec62",
      "is_coinbase": false,
      "sequence": 4294967295
    },
    {
      "txid": "b78854539f52d7bb8e9f9167d578882b53f95c9ccdf864f68d04abe0c9d8a65e",
      "vout": 0,
      "prevout": {
        "scriptpubkey": "76a91459fc498ddc87abd825e0a42b519936262b9d041188ac",
        "scriptpubkey_asm": "OP_DUP OP_HASH160 OP_PUSHBYTES_20 59fc498ddc87abd825e0a42b519936262b9d0411 OP_EQUALVERIFY OP_CHECKSIG",
        "scriptpubkey_type": "p2pkh",
        "scriptpubkey_address": "19CoNJbChPBMHyGoWRpzsYHShU9gqtxggw",
        "value": 2928986
      },
      "scriptsig": "473044022043467d0c82e6e243af95a8178742882683fbaf9f973272c13ab16a6727c0a97602206b635601982ce791f35db38e8921a13f06853b0b43ce51f6933bc2571dfbe0ec012103ab6d38cce09cba0340c86c9ab07cbd7382e82419ba050759002a4f86b3f4a3f3",
      "scriptsig_asm": "OP_PUSHBYTES_71 3044022043467d0c82e6e243af95a8178742882683fbaf9f973272c13ab16a6727c0a97602206b635601982ce791f35db38e8921a13f06853b0b43ce51f6933bc2571dfbe0ec01 OP_PUSHBYTES_33 03ab6d38cce09cba0340c86c9ab07cbd7382e82419ba050759002a4f86b3f4a3f3",
      "is_coinbase": false,
      "sequence": 4294967295
    }
  ],
  "vout": [
    {
      "scriptpubkey": "a9145398d95ae63efd50fed237cfb0010f52045008d487",
      "scriptpubkey_asm": "OP_HASH160 OP_PUSHBYTES_20 5398d95ae63efd50fed237cfb0010f52045008d4 OP_EQUAL",
      "scriptpubkey_type": "p2sh",
      "scriptpubkey_address": "39K37bx3wBiAaL9CnzcL4KjVV2DPAw6gTd",
      "value": 2991800
    },
    {
      "scriptpubkey": "76a9143f372b534e1e7f08f11c5c69e3a6ee76a9844ab188ac",
      "scriptpubkey_asm": "OP_DUP OP_HASH160 OP_PUSHBYTES_20 3f372b534e1e7f08f11c5c69e3a6ee76a9844ab1 OP_EQUALVERIFY OP_CHECKSIG",
      "scriptpubkey_type": "p2pkh",
      "scriptpubkey_address": "16mFfK4EGzoKnXog8K19uJuLa88hvkAp3k",
      "value": 2735435
    }
  ],
  "size": 371,
  "weight": 1484,
  "fee": 6324,
  "status": {
    "confirmed": true,
    "block_height": 834552,
    "block_hash": "00000000000000000001dd0468a70c94f619251d286585cff57aeb4bd9ede330",
    "block_time": 1710355598
  },
  "hex": "0100000002efcd68bf8b3809af9e6722472a934a88cdc80eee372b24017fda5e617a9856ca110000006b483045022100f17b50778f60dc2aa00db33af4fd81c7a75f222cab9018eff9b7cd5177443225022070ec97309ed17e5edbb83a2df0d634ef9c4b3869a0f6e2f5436c1df3451d25a3012102b40302a6df422907b26f2ac811f773bc2d51cf92f6bbf68bcaf032df9e9eec62ffffffff5ea6d8c9e0ab048df664f8cd9c5cf9532b8878d567919f8ebbd7529f535488b7000000006a473044022043467d0c82e6e243af95a8178742882683fbaf9f973272c13ab16a6727c0a97602206b635601982ce791f35db38e8921a13f06853b0b43ce51f6933bc2571dfbe0ec012103ab6d38cce09cba0340c86c9ab07cbd7382e82419ba050759002a4f86b3f4a3f3ffffffff02b8a62d000000000017a9145398d95ae63efd50fed237cfb0010f52045008d4874bbd2900000000001976a9143f372b534e1e7f08f11c5c69e3a6ee76a9844ab188ac00000000"
}