{
  "txid": "f624a8c2eb499d68ad12a297c642be16f95f1be9d74e037c681675b2d31bcb3b",
  "version": 1,
  "locktime": 0,
  "vin": [
    {
      "txid": "0e6bf4362c82704555d7cbaea71369d763ae682dc55abf9fcaf8a44b399193da",
      "vout": 0,
      "prevout": {
        "scriptpubkey": "a9140ca5eeb7ccf40738aa8eaba3954a8330d2129d7187",
        "scriptpubkey_asm": "OP_HASH160 OP_PUSHBYTES_20 0ca5eeb7ccf40738aa8eaba3954a8330d2129d71 OP_EQUAL",
        "scriptpubkey_type": "p2sh",
        "scriptpubkey_address": "32qtp382bpidAtD6wPErWRBhFxrvuJQcwm",
        "value": 279415
      },
      "scriptsig": "2200207b5f2056c962486f44774d20ea4462b81fb716f3d7cc86fd6b112633f301dcca",
      "scriptsig_asm": "OP_PUSHBYTES_34 00207b5f2056c962486f44774d20ea4462b81fb716f3d7cc86fd6b112633f301dcca",
      "witness": [
        "",
        "3044022029ac841b727422939ca21f1c3f554d25973bd7c57ada4e5c484370534bec524f0220675c6c35a5d19a051829e43af08db0fc6aae5af0afc0187774dbe39990ce295001",
        "304402205f81acfd5fc9f40292c5873a3f3a14f2cbca6062625a50dd025476f9b35093dc02200c5760ffa6131bf938176d95e900b53b4045c0e6f18daa1442ca9874864c2ed501",
        "5221036049622db978c3028fc60237fc7f47fc7e883f03b446798172d59b007f4f5e3621022ce1aad322a2a6012996ff109aabdc16ec611b3d454426d3799bca6cb6af4ea052ae"
      ],
      "is_coinbase": false,
      "sequence": 4294967295,
      "inner_redeemscript_asm": "OP_0 OP_PUSHBYTES_32 7b5f2056c962486f44774d20ea4462b81fb716f3d7cc86fd6b112633f301dcca",
      "inner_witnessscript_asm": "OP_PUSHNUM_2 OP_PUSHBYTES_33 036049622db978c3028fc60237fc7f47fc7e883f03b446798172d59b007f4f5e36 OP_PUSHBYTES_33 022ce1aad322a2a6012996ff109aabdc16ec611b3d454426d3799bca6cb6af4ea0 OP_PUSHNUM_2 OP_CHECKMULTISIG"
    }
  ],
  "vout": [
    {
      "scriptpubkey": "a91419e8f3ab2e4f11526b08f170b381924a3272489887",
      "scriptpubkey_asm": "OP_HASH160 OP_PUSHBYTES_20 19e8f3ab2e4f11526b08f170b381924a32724898 OP_EQUAL",
      "scriptpubkey_type": "p2sh",
      "scriptpubkey_address": "3441t7i4drGbhfyBGdbqnqzV11gKushN1c",
      "value": 273975
    }
  ],
  "size": 338,
  "weight": 692,
  "fee": 5440,
  "status": {
    "confirmed": true,
    "block_height": 834638,
    "block_hash": "000000000000000000025f742c626208ac87e0b7d15054abb4a19ca2d735a54e",
    "block_time": 1710405325
  },
  "hex": "01000000000101da9391394ba4f8ca9fbf5ac52d68ae63d76913a7aecbd7554570822c36f46b0e00000000232200207b5f2056c962486f44774d20ea4462b81fb716f3d7cc86fd6b112633f301dccaffffffff01372e04000000000017a91419e8f3ab2e4f11526b08f170b381924a32724898870400473044022029ac841b727422939ca21f1c3f554d25973bd7c57ada4e5c484370534bec524f0220675c6c35a5d19a051829e43af08db0fc6aae5af0afc0187774dbe39990ce29500147304402205f81acfd5fc9f40292c5873a3f3a14f2cbca6062625a50dd025476f9b35093dc02200c5760ffa6131bf938176d95e900b53b4045c0e6f18daa1442ca9874864c2ed501475221036049622db978c3028fc60237fc7f47fc7e883f03b446798172d59b007f4f5e3621022ce1aad322a2a6012996ff109aabdc16ec611b3d454426d3799bca6cb6af4ea052ae00000000"
}