{
  "txid": "f64c1fcefd25b899e5da280fe0d8f048edd51e92c036205b7f52ab03c0feca12",
  "version": 2,
  "locktime": 0,
  "vin": [
    {
      "txid": "126afb8b81557adacbfcdb0d3f29aa1ca4c213841615a2b34d75449c730b6cb4",
      "vout": 1,
      "prevout": {
        "scriptpubkey": "00147ca8e03ed3d9ececdf5a0106c2f640977a132f8e",
        "scriptpubkey_asm": "OP_0 OP_PUSHBYTES_20 7ca8e03ed3d9ececdf5a0106c2f640977a132f8e",
        "scriptpubkey_type": "v0_p2wpkh",
        "scriptpubkey_address": "bc1q0j5wq0knm8kweh66qyrv9ajqjaapxtuwa42ctk",
        "value": 25816
      },
      "scriptsig": "",
      "scriptsig_asm": "",
      "witness": [
        "3045022100866c850d64f4560ddc97b8fd8e2449867fe4fed27dfb360a28fea7662201ec5002201305419184c13fb2fd9bafd8d9745323c021738ddea8014e8cb40a9b0f5c549801",
        "0208abed48ca5b58ad3fe448b1c3940d29e142fcbf18c1b00d7b62a0a70ee0c12b"
      ],
      "is_coinbase": false,
      "sequence": 4294967295
    }
  ],
  "vout": [
    {
      "scriptpubkey": "6a2af991adcd54f70cf44c96fb2659b3566dc8d96ca41518e81ad3eef27ab8f03083d9d66170e27d5cdc3add",
      "scriptpubkey_asm": "OP_RETURN OP_PUSHBYTES_42 f991adcd54f70cf44c96fb2659b3566dc8d96ca41518e81ad3eef27ab8f03083d9d66170e27d5cdc3add",
      "scriptpubkey_type": "op_return",
      "value": 0
    },
    {
      "scriptpubkey": "00147ca8e03ed3d9ececdf5a0106c2f640977a132f8e",
      "scriptpubkey_asm": "OP_0 OP_PUSHBYTES_20 7ca8e03ed3d9ececdf5a0106c2f640977a132f8e",
      "scriptpubkey_type": "v0_p2wpkh",
      "scriptpubkey_address": "bc1q0j5wq0knm8kweh66qyrv9ajqjaapxtuwa42ctk",
      "value": 24105
    }
  ],
  "size": 245,
  "weight": 650,
  "fee": 1711,
  "status": {
    "confirmed": true,
    "block_height": 834464,
    "block_hash": "0000000000000000000177a0869a911a2b65c9bdcd5a8bcb02b68f305bee848e",
    "block_time": 1710308296
  },
  "hex": "02000000000101b46c0b739c44754db3a215168413c2a41caa293f0ddbfccbda7a55818bfb6a120100000000ffffffff0200000000000000002c6a2af991adcd54f70cf44c96fb2659b3566dc8d96ca41518e81ad3eef27ab8f03083d9d66170e27d5cdc3add295e0000000000001600147ca8e03ed3d9ececdf5a0106c2f640977a132f8e02483045022100866c850d64f4560ddc97b8fd8e2449867fe4fed27dfb360a28fea7662201ec5002201305419184c13fb2fd9bafd8d9745323c021738ddea8014e8cb40a9b0f5c549801210208abed48ca5b58ad3fe448b1c3940d29e142fcbf18c1b00d7b62a0a70ee0c12b00000000"
}