{
  "txid": "f652a8c9af4391f7b6eb4216107db16cdffb9a60ad55f9ed432930b3db265461",
  "version": 1,
  "locktime": 0,
  "vin": [
    {
      "txid": "0000053c6a6bb8b2c5abda8e9eaf219f6ff8c277a7609c7cced9fd7435d79523",
      "vout": 0,
      "prevout": {
        "scriptpubkey": "51206b2d73ee23ee619d07cb8a9a770514e479bd6e7d5b53b1f2f2338fb13824ad70",
        "scriptpubkey_asm": "OP_PUSHNUM_1 OP_PUSHBYTES_32 6b2d73ee23ee619d07cb8a9a770514e479bd6e7d5b53b1f2f2338fb13824ad70",
        "scriptpubkey_type": "v1_p2tr",
        "scriptpubkey_address": "bc1pdvkh8m3raese6p7t32d8wpg5u3um6mnatdfmruhjxw8mzwpy44cqg8s2hj",
        "value": 2604
      },
      "scriptsig": "",
      "scriptsig_asm": "",
      "witness": [
        "8427e4e1ef6c0d1fdbd42081a3e3ae4b2462c46b6d1d370408df1af1458c3a8c73511fd0426759c0da83e59480a674e2d74cb490d75664d4b7a14347bc7d283c",
        "20f9983658b606ee8b41511bf170489038ac1b9352aae4e12a262311681be7520aac00630461746f6d03646d7439a16461726773a46474696d651a65ee8d79656e6f6e63650068626974776f726b6364303030306b6d696e745f7469636b65726670686f746f6e68",
        "c1f9983658b606ee8b41511bf170489038ac1b9352aae4e12a262311681be7520a"
      ],
      "is_coinbase": false,
      "sequence": 4294967295
    }
  ],
  "vout": [
    {
      "scriptpubkey": "51208f061ba3e4ef39170b28313a12719ea740a8fd898b39f633ede9d787319e3680",
      "scriptpubkey_asm": "OP_PUSHNUM_1 OP_PUSHBYTES_32 8f061ba3e4ef39170b28313a12719ea740a8fd898b39f633ede9d787319e3680",
      "scriptpubkey_type": "v1_p2tr",
      "scriptpubkey_address": "bc1p3urphglyauu3wzegxyapyuv75aq23lvf3vulvvlda8tcwvv7x6qq33mkjl",
      "value": 1000
    }
  ],
  "size": 301,
  "weight": 583,
  "fee": 1604,
  "status": {
    "confirmed": true,
    "block_height": 834464,
    "block_hash": "0000000000000000000177a0869a911a2b65c9bdcd5a8bcb02b68f305bee848e",
    "block_time": 1710308296
  },
  "hex": "010000000001012395d73574fdd9ce7c9c60a777c2f86f9f21af9e8edaabc5b2b86b6a3c0500000000000000ffffffff01e8030000000000002251208f061ba3e4ef39170b28313a12719ea740a8fd898b39f633ede9d787319e368003408427e4e1ef6c0d1fdbd42081a3e3ae4b2462c46b6d1d370408df1af1458c3a8c73511fd0426759c0da83e59480a674e2d74cb490d75664d4b7a14347bc7d283c6820f9983658b606ee8b41511bf170489038ac1b9352aae4e12a262311681be7520aac00630461746f6d03646d7439a16461726773a46474696d651a65ee8d79656e6f6e63650068626974776f726b6364303030306b6d696e745f7469636b65726670686f746f6e6821c1f9983658b606ee8b41511bf170489038ac1b9352aae4e12a262311681be7520a00000000"
}