{
  "txid": "f6688172613d08ffc52e324f13d1609fc2e28f9ccf3b3a427b740e4ca9163d2d",
  "version": 2,
  "locktime": 0,
  "vin": [
    {
      "txid": "f602ce27f84faa44e71ea1dfbdae3239305e7597af49f8e4187bda4c70d0816b",
      "vout": 1,
      "prevout": {
        "scriptpubkey": "a914c1a53f42ae60684fa42cc7c97210709070189f4487",
        "scriptpubkey_asm": "OP_HASH160 OP_PUSHBYTES_20 c1a53f42ae60684fa42cc7c97210709070189f44 OP_EQUAL",
        "scriptpubkey_type": "p2sh",
        "scriptpubkey_address": "3KLvJ8w8hBi3qpTKUg5GgUbEFGwzkfTUTG",
        "value": 5851298
      },
      "scriptsig": "160014e5950b318964ead2f432a3e474c06b43f650ef28",
      "scriptsig_asm": "OP_PUSHBYTES_22 0014e5950b318964ead2f432a3e474c06b43f650ef28",
      "witness": [
        "3045022100c606ed3e4e2bb49abbd6626b1a639215fcd5143a18211b18b0c267220ed8dae702207ebf3dcc1b92986e5b0455a048b3432d6d84651d7d7144732cf6295020e18fbc01",
        "0232a88479c560984ff209b52cf3014369d56e7776b4175ff74994b3428dbaeea3"
      ],
      "is_coinbase": false,
      "sequence": 4294967293,
      "inner_redeemscript_asm": "OP_0 OP_PUSHBYTES_20 e5950b318964ead2f432a3e474c06b43f650ef28"
    },
    {
      "txid": "da4bc1e36b0b553f62d6a976a3fa0b243219d38a958a4604f21e9aaa42c59f89",
      "vout": 0,
      "prevout": {
        "scriptpubkey": "a914c1a53f42ae60684fa42cc7c97210709070189f4487",
        "scriptpubkey_asm": "OP_HASH160 OP_PUSHBYTES_20 c1a53f42ae60684fa42cc7c97210709070189f44 OP_EQUAL",
        "scriptpubkey_type": "p2sh",
        "scriptpubkey_address": "3KLvJ8w8hBi3qpTKUg5GgUbEFGwzkfTUTG",
        "value": 2000000
      },
      "scriptsig": "160014e5950b318964ead2f432a3e474c06b43f650ef28",
      "scriptsig_asm": "OP_PUSHBYTES_22 0014e5950b318964ead2f432a3e474c06b43f650ef28",
      "witness": [
        "3044022034829f2bb73a0ac345e3f87e7ecdd861e9e7a18c1d12fb496ee5991e678bc3600220222fee5f399b7a150d0bee90b511d70781c62f277b5874cdc332a1628da4850501",
        "0232a88479c560984ff209b52cf3014369d56e7776b4175ff74994b3428dbaeea3"
      ],
      "is_coinbase": false,
      "sequence": 4294967293,
      "inner_redeemscript_asm": "OP_0 OP_PUSHBYTES_20 e5950b318964ead2f432a3e474c06b43f650ef28"
    },
    {
      "txid": "d9163714f61638c574d76cbf8f7141a3c3c23572512ddad3e63183276760f33d",
      "vout": 0,
      "prevout": {
        "scriptpubkey": "a914c1a53f42ae60684fa42cc7c97210709070189f4487",
        "scriptpubkey_asm": "OP_HASH160 OP_PUSHBYTES_20 c1a53f42ae60684fa42cc7c97210709070189f44 OP_EQUAL",
        "scriptpubkey_type": "p2sh",
        "scriptpubkey_address": "3KLvJ8w8hBi3qpTKUg5GgUbEFGwzkfTUTG",
        "value": 2000000
      },
      "scriptsig": "160014e5950b318964ead2f432a3e474c06b43f650ef28",
      "scriptsig_asm": "OP_PUSHBYTES_22 0014e5950b318964ead2f432a3e474c06b43f650ef28",
      "witness": [
        "3045022100aa4c8538944f9edb6f0c4a028268723c4cebab6c9d518be00ab7372337b7c2e40220447f4d04481c44270ff8215dec6914504f87a8ddbb9a1cee0b004fe36ff868a501",
        "0232a88479c560984ff209b52cf3014369d56e7776b4175ff74994b3428dbaeea3"
      ],
      "is_coinbase": false,
      "sequence": 4294967293,
      "inner_redeemscript_asm": "OP_0 OP_PUSHBYTES_20 e5950b318964ead2f432a3e474c06b43f650ef28"
    },
    {
      "txid": "64164d236363fd0a11f0e1a7269f0e6bc92a4fba75fb319f62d7451e814a54d3",
      "vout": 1,
      "prevout": {
        "scriptpubkey": "a914c1a53f42ae60684fa42cc7c97210709070189f4487",
        "scriptpubkey_asm": "OP_HASH160 OP_PUSHBYTES_20 c1a53f42ae60684fa42cc7c97210709070189f44 OP_EQUAL",
        "scriptpubkey_type": "p2sh",
        "scriptpubkey_address": "3KLvJ8w8hBi3qpTKUg5GgUbEFGwzkfTUTG",
        "value": 1036452
      },
      "scriptsig": "160014e5950b318964ead2f432a3e474c06b43f650ef28",
      "scriptsig_asm": "OP_PUSHBYTES_22 0014e5950b318964ead2f432a3e474c06b43f650ef28",
      "witness": [
        "3044022043a15dcfd65e8a321dea9c9ce4ac9646c4ff8eb5aa972b4f5023d289475286fd02207af9e12e7a2ec0fc9cd2baf9198cf3393857380f33ccc3728fc82976b0d5144001",
        "0232a88479c560984ff209b52cf3014369d56e7776b4175ff74994b3428dbaeea3"
      ],
      "is_coinbase": false,
      "sequence": 4294967293,
      "inner_redeemscript_asm": "OP_0 OP_PUSHBYTES_20 e5950b318964ead2f432a3e474c06b43f650ef28"
    }
  ],
  "vout": [
    {
      "scriptpubkey": "512029aa42b0b2902ab8e7af9d9bb81ff1f1369874bd569afb9c67583c2c53a6381d",
      "scriptpubkey_asm": "OP_PUSHNUM_1 OP_PUSHBYTES_32 29aa42b0b2902ab8e7af9d9bb81ff1f1369874bd569afb9c67583c2c53a6381d",
      "scriptpubkey_type": "v1_p2tr",
      "scriptpubkey_address": "bc1p9x4y9v9jjq4t3ea0nkdms8l37ymfsa9a26d0h8r8tq7zc5ax8qwske03mv",
      "value": 10000000
    },
    {
      "scriptpubkey": "a914c1a53f42ae60684fa42cc7c97210709070189f4487",
      "scriptpubkey_asm": "OP_HASH160 OP_PUSHBYTES_20 c1a53f42ae60684fa42cc7c97210709070189f44 OP_EQUAL",
      "scriptpubkey_type": "p2sh",
      "scriptpubkey_address": "3KLvJ8w8hBi3qpTKUg5GgUbEFGwzkfTUTG",
      "value": 879200
    }
  ],
  "size": 773,
  "weight": 1796,
  "fee": 8550,
  "status": {
    "confirmed": true,
    "block_height": 834638,
    "block_hash": "000000000000000000025f742c626208ac87e0b7d15054abb4a19ca2d735a54e",
    "block_time": 1710405325
  },
  "hex": "020000000001046b81d0704cda7b18e4f849af97755e303932aebddfa11ee744aa4ff827ce02f60100000017160014e5950b318964ead2f432a3e474c06b43f650ef28fdffffff899fc542aa9a1ef204468a958ad31932240bfaa376a9d6623f550b6be3c14bda0000000017160014e5950b318964ead2f432a3e474c06b43f650ef28fdffffff3df36067278331e6d3da2d517235c2c3a341718fbf6cd774c53816f6143716d90000000017160014e5950b318964ead2f432a3e474c06b43f650ef28fdffffffd3544a811e45d7629f31fb75ba4f2ac96b0e9f26a7e1f0110afd6363234d16640100000017160014e5950b318964ead2f432a3e474c06b43f650ef28fdffffff02809698000000000022512029aa42b0b2902ab8e7af9d9bb81ff1f1369874bd569afb9c67583c2c53a6381d606a0d000000000017a914c1a53f42ae60684fa42cc7c97210709070189f448702483045022100c606ed3e4e2bb49abbd6626b1a639215fcd5143a18211b18b0c267220ed8dae702207ebf3dcc1b92986e5b0455a048b3432d6d84651d7d7144732cf6295020e18fbc01210232a88479c560984ff209b52cf3014369d56e7776b4175ff74994b3428dbaeea302473044022034829f2bb73a0ac345e3f87e7ecdd861e9e7a18c1d12fb496ee5991e678bc3600220222fee5f399b7a150d0bee90b511d70781c62f277b5874cdc332a1628da4850501210232a88479c560984ff209b52cf3014369d56e7776b4175ff74994b3428dbaeea302483045022100aa4c8538944f9edb6f0c4a028268723c4cebab6c9d518be00ab7372337b7c2e40220447f4d04481c44270ff8215dec6914504f87a8ddbb9a1cee0b004fe36ff868a501210232a88479c560984ff209b52cf3014369d56e7776b4175ff74994b3428dbaeea302473044022043a15dcfd65e8a321dea9c9ce4ac9646c4ff8eb5aa972b4f5023d289475286fd02207af9e12e7a2ec0fc9cd2baf9198cf3393857380f33ccc3728fc82976b0d5144001210232a88479c560984ff209b52cf3014369d56e7776b4175ff74994b3428dbaeea300000000"
}