{
  "txid": "f67a518f790b12caea7eb0f80d85798c9032fe177396289c8f5ee068b40df854",
  "version": 1,
  "locktime": 0,
  "vin": [
    {
      "txid": "3258184b083a521cf8f11dcffb8cd2758f49a3d0a0591b42147147634ad0bd44",
      "vout": 1,
      "prevout": {
        "scriptpubkey": "0014bd07f3570799b6ee33c6715011ba043aff7975af",
        "scriptpubkey_asm": "OP_0 OP_PUSHBYTES_20 bd07f3570799b6ee33c6715011ba043aff7975af",
        "scriptpubkey_type": "v0_p2wpkh",
        "scriptpubkey_address": "bc1qh5rlx4c8nxmwuv7xw9gprwsy8tlhjad0h3m37v",
        "value": 2839103
      },
      "scriptsig": "",
      "scriptsig_asm": "",
      "witness": [
        "3044022026c79a60991f30f0901ded6800445c3e20f6a8c7473c57059dea976042418966022023301ef04619c44f503707f4953aa8c9e030a2a2311ceb2767f2cb1b10ab1e2601",
        "03e8128107c71d9f68059a5705f2dc2bed643c947b9b5025b502e338f8323b00d1"
      ],
      "is_coinbase": false,
      "sequence": 4294967295
    }
  ],
  "vout": [
    {
      "scriptpubkey": "0014c07b868cf1c7c3888368dc6634000a64ee821283",
      "scriptpubkey_asm": "OP_0 OP_PUSHBYTES_20 c07b868cf1c7c3888368dc6634000a64ee821283",
      "scriptpubkey_type": "v0_p2wpkh",
      "scriptpubkey_address": "bc1qcpacdr83clpc3qmgm3nrgqq2vnhgyy5ra2qmxn",
      "value": 1994200
    },
    {
      "scriptpubkey": "0014bd07f3570799b6ee33c6715011ba043aff7975af",
      "scriptpubkey_asm": "OP_0 OP_PUSHBYTES_20 bd07f3570799b6ee33c6715011ba043aff7975af",
      "scriptpubkey_type": "v0_p2wpkh",
      "scriptpubkey_address": "bc1qh5rlx4c8nxmwuv7xw9gprwsy8tlhjad0h3m37v",
      "value": 841096
    }
  ],
  "size": 222,
  "weight": 561,
  "fee": 3807,
  "status": {
    "confirmed": true,
    "block_height": 834638,
    "block_hash": "000000000000000000025f742c626208ac87e0b7d15054abb4a19ca2d735a54e",
    "block_time": 1710405325
  },
  "hex": "0100000000010144bdd04a63477114421b59a0d0a3498f75d28cfbcf1df1f81c523a084b1858320100000000ffffffff02d86d1e0000000000160014c07b868cf1c7c3888368dc6634000a64ee82128388d50c0000000000160014bd07f3570799b6ee33c6715011ba043aff7975af02473044022026c79a60991f30f0901ded6800445c3e20f6a8c7473c57059dea976042418966022023301ef04619c44f503707f4953aa8c9e030a2a2311ceb2767f2cb1b10ab1e26012103e8128107c71d9f68059a5705f2dc2bed643c947b9b5025b502e338f8323b00d100000000"
}