{
  "txid": "f67aabadecbe6dc46b1897f2045b8f06999b7442cf047abcf901d5ca778adef9",
  "version": 2,
  "locktime": 0,
  "vin": [
    {
      "txid": "638b3bf7136ac82c53f6913606d68ced1863a26f6eab118ba5939b73d523ee2f",
      "vout": 0,
      "prevout": {
        "scriptpubkey": "00148f41cd0682a79689dc870f375b4ef4c2479e23b6",
        "scriptpubkey_asm": "OP_0 OP_PUSHBYTES_20 8f41cd0682a79689dc870f375b4ef4c2479e23b6",
        "scriptpubkey_type": "v0_p2wpkh",
        "scriptpubkey_address": "bc1q3aqu6p5z57tgnhy8pum4knh5cfreugakjp3xlf",
        "value": 885890
      },
      "scriptsig": "",
      "scriptsig_asm": "",
      "witness": [
        "3045022100a76069d4c73998c6b2643a7127e7e2a1d4eb3000d9fd9d034ac2c104b9b768a602203fc93aecf19a801fa06d5062ad8386359b491e5461f0fca68d57cc346437f92601",
        "03d07732c456bf62faeccd64c8881f90339d0ce2eff1c725c641c626b9cdcd0c1b"
      ],
      "is_coinbase": false,
      "sequence": 4294967295
    },
    {
      "txid": "af36d5a4a90ba8cabc979ae64a5ecf6d9e0d7bf5d75dfda71b4999301c18a858",
      "vout": 0,
      "prevout": {
        "scriptpubkey": "76a9149de4d7d0945211bcf4d8b452a3670d2ef3d04cd588ac",
        "scriptpubkey_asm": "OP_DUP OP_HASH160 OP_PUSHBYTES_20 9de4d7d0945211bcf4d8b452a3670d2ef3d04cd5 OP_EQUALVERIFY OP_CHECKSIG",
        "scriptpubkey_type": "p2pkh",
        "scriptpubkey_address": "1FPsEQkuKpmq1J5TRuvDszTFgFvqFGpXZN",
        "value": 5574
      },
      "scriptsig": "48304502210096282f0bcfe66b0f16b54bea10546977a32965e2c4e3e00a691d7bbc422a807d02207f89aaf9ab219942d4d57787a97f63d625584a0cf4b55d651b145a680de3267801210279d854e0b775cf3251819ecbf06f43990162edbe85f9c752bdde833321ab028e",
      "scriptsig_asm": "OP_PUSHBYTES_72 304502210096282f0bcfe66b0f16b54bea10546977a32965e2c4e3e00a691d7bbc422a807d02207f89aaf9ab219942d4d57787a97f63d625584a0cf4b55d651b145a680de3267801 OP_PUSHBYTES_33 0279d854e0b775cf3251819ecbf06f43990162edbe85f9c752bdde833321ab028e",
      "is_coinbase": false,
      "sequence": 4294967295
    }
  ],
  "vout": [
    {
      "scriptpubkey": "0014762db38a8182ee31f475142e5a54e5032183a5ef",
      "scriptpubkey_asm": "OP_0 OP_PUSHBYTES_20 762db38a8182ee31f475142e5a54e5032183a5ef",
      "scriptpubkey_type": "v0_p2wpkh",
      "scriptpubkey_address": "bc1qwckm8z5psthrrar4zsh95489qvsc8f00vu9zzd",
      "value": 884600
    }
  ],
  "size": 341,
  "weight": 1031,
  "fee": 6864,
  "status": {
    "confirmed": true,
    "block_height": 834638,
    "block_hash": "000000000000000000025f742c626208ac87e0b7d15054abb4a19ca2d735a54e",
    "block_time": 1710405325
  },
  "hex": "020000000001022fee23d5739b93a58b11ab6e6fa26318ed8cd6063691f6532cc86a13f73b8b630000000000ffffffff58a8181c3099491ba7fd5dd7f57b0d9e6dcf5e4ae69a97bccaa80ba9a4d536af000000006b48304502210096282f0bcfe66b0f16b54bea10546977a32965e2c4e3e00a691d7bbc422a807d02207f89aaf9ab219942d4d57787a97f63d625584a0cf4b55d651b145a680de3267801210279d854e0b775cf3251819ecbf06f43990162edbe85f9c752bdde833321ab028effffffff01787f0d0000000000160014762db38a8182ee31f475142e5a54e5032183a5ef02483045022100a76069d4c73998c6b2643a7127e7e2a1d4eb3000d9fd9d034ac2c104b9b768a602203fc93aecf19a801fa06d5062ad8386359b491e5461f0fca68d57cc346437f926012103d07732c456bf62faeccd64c8881f90339d0ce2eff1c725c641c626b9cdcd0c1b0000000000"
}