{
  "txid": "f67d7fba4561f0a4e49260a060d37b1e10d10a6440e463c0c2d69cbc7ec0ecb9",
  "version": 1,
  "locktime": 0,
  "vin": [
    {
      "txid": "888888888b7220610b10fc614fc5766650192701331bd3156bb08e0fb7884316",
      "vout": 0,
      "prevout": {
        "scriptpubkey": "5120a555faf2888dce5eebd9f001c71d73dc9f2560fc1289741fdf39331518145139",
        "scriptpubkey_asm": "OP_PUSHNUM_1 OP_PUSHBYTES_32 a555faf2888dce5eebd9f001c71d73dc9f2560fc1289741fdf39331518145139",
        "scriptpubkey_type": "v1_p2tr",
        "scriptpubkey_address": "bc1p542l4u5g3h89a67e7qquw8tnmj0j2c8uz2yhg87l8ye32xq52yusn68qye",
        "value": 11627
      },
      "scriptsig": "",
      "scriptsig_asm": "",
      "witness": [
        "68c81394d838ecee94ab3e03928747f7d39c66bf60b4db5a50b65f598d1f46b9400cd93b32cbdb7e1dbab36f9f1fa22d300df25c59ed0f1109e75682b8957011",
        "2013a939ea1940d8c5201bfe1926963ae16aa1fbaefc90a6b00388399ce0b4657cac00630461746f6d03646d7446a16461726773a46474696d651a65ef0ab7656e6f6e63651a0001001568626974776f726b636b3838383838383838382e376b6d696e745f7469636b657268696e66696e69747968",
        "c013a939ea1940d8c5201bfe1926963ae16aa1fbaefc90a6b00388399ce0b4657c"
      ],
      "is_coinbase": false,
      "sequence": 4294967295
    }
  ],
  "vout": [
    {
      "scriptpubkey": "51205a263ceb749a9db19b79bdaab5c1862ca038177143914ee1a994d2591cdf79a7",
      "scriptpubkey_asm": "OP_PUSHNUM_1 OP_PUSHBYTES_32 5a263ceb749a9db19b79bdaab5c1862ca038177143914ee1a994d2591cdf79a7",
      "scriptpubkey_type": "v1_p2tr",
      "scriptpubkey_address": "bc1ptgnre6m5n2wmrxmehk4ttsvx9jsrs9m3gwg5acdfjnf9j8xl0xnsmagkgl",
      "value": 9999
    }
  ],
  "size": 314,
  "weight": 596,
  "fee": 1628,
  "status": {
    "confirmed": true,
    "block_height": 834464,
    "block_hash": "0000000000000000000177a0869a911a2b65c9bdcd5a8bcb02b68f305bee848e",
    "block_time": 1710308296
  },
  "hex": "01000000000101164388b70f8eb06b15d31b33012719506676c54f61fc100b6120728b888888880000000000ffffffff010f270000000000002251205a263ceb749a9db19b79bdaab5c1862ca038177143914ee1a994d2591cdf79a7034068c81394d838ecee94ab3e03928747f7d39c66bf60b4db5a50b65f598d1f46b9400cd93b32cbdb7e1dbab36f9f1fa22d300df25c59ed0f1109e75682b8957011752013a939ea1940d8c5201bfe1926963ae16aa1fbaefc90a6b00388399ce0b4657cac00630461746f6d03646d7446a16461726773a46474696d651a65ef0ab7656e6f6e63651a0001001568626974776f726b636b3838383838383838382e376b6d696e745f7469636b657268696e66696e6974796821c013a939ea1940d8c5201bfe1926963ae16aa1fbaefc90a6b00388399ce0b4657c00000000"
}