{
  "txid": "f67d44949634b892b2fe38c36b8991e94c808d67b818cc3203df3a65070b63b7",
  "version": 2,
  "locktime": 0,
  "vin": [
    {
      "txid": "abdcbb8bcefa0f088373ceda41a70fe1aeaa3823b969e1169e2a29269068d8dc",
      "vout": 17,
      "prevout": {
        "scriptpubkey": "512073261000c8d8769171ee37379480e6bded9c4c0005be2efffeae0b91c9613b7a",
        "scriptpubkey_asm": "OP_PUSHNUM_1 OP_PUSHBYTES_32 73261000c8d8769171ee37379480e6bded9c4c0005be2efffeae0b91c9613b7a",
        "scriptpubkey_type": "v1_p2tr",
        "scriptpubkey_address": "bc1pwvnpqqxgmpmfzu0wxumefq8xhhkecnqqqklzall74c9erjtp8daqgky2le",
        "value": 2522
      },
      "scriptsig": "",
      "scriptsig_asm": "",
      "witness": [
        "faad40735c146d7aa7601955be6226bc80164862a05f612ba13383361c087df2797e9ca5292a66c48ab3b1c8692fc07df051fb320eace6e4edb86c9b85520f43",
        "20947e605e880812e950706fcb11a98154708016bbb95903f29f4d8a447d23390fac0063036f7264010118746578742f706c61696e3b636861727365743d7574662d3800387b2270223a226272632d3230222c226f70223a227472616e73666572222c227469636b223a226f726e6a222c22616d74223a22313030227d68",
        "c125dced391475af84759664675c16f5ed581b243a944241d7ee258c8cfb80c9db"
      ],
      "is_coinbase": false,
      "sequence": 4294967295
    }
  ],
  "vout": [
    {
      "scriptpubkey": "512060e7b9d91ee3091b65165528563dba11a47299520ea2fc67070ec6ac303fc05d",
      "scriptpubkey_asm": "OP_PUSHNUM_1 OP_PUSHBYTES_32 60e7b9d91ee3091b65165528563dba11a47299520ea2fc67070ec6ac303fc05d",
      "scriptpubkey_type": "v1_p2tr",
      "scriptpubkey_address": "bc1pvrnmnkg7uvy3kegk2559v0d6zxj89x2jp630cec8pmr2cvplcpwsn3pn79",
      "value": 546
    }
  ],
  "size": 323,
  "weight": 605,
  "fee": 1976,
  "status": {
    "confirmed": true,
    "block_height": 834460,
    "block_hash": "00000000000000000000484a79b643b2524bbce82e5d8a442013fa5b8905ed98",
    "block_time": 1710307468
  },
  "hex": "02000000000101dcd8689026292a9e16e169b92338aaaee10fa741dace7383080fface8bbbdcab1100000000ffffffff01220200000000000022512060e7b9d91ee3091b65165528563dba11a47299520ea2fc67070ec6ac303fc05d0340faad40735c146d7aa7601955be6226bc80164862a05f612ba13383361c087df2797e9ca5292a66c48ab3b1c8692fc07df051fb320eace6e4edb86c9b85520f437e20947e605e880812e950706fcb11a98154708016bbb95903f29f4d8a447d23390fac0063036f7264010118746578742f706c61696e3b636861727365743d7574662d3800387b2270223a226272632d3230222c226f70223a227472616e73666572222c227469636b223a226f726e6a222c22616d74223a22313030227d6821c125dced391475af84759664675c16f5ed581b243a944241d7ee258c8cfb80c9db00000000"
}