{
  "txid": "f689b3c7cdc235dcac0e033631bafbf61960557a09268c86eaaf74432433bc0c",
  "version": 2,
  "locktime": 0,
  "vin": [
    {
      "txid": "9d2228bb6336bf94af634925871b886becbe4bab9abc64f29f271e09d651ebef",
      "vout": 2,
      "prevout": {
        "scriptpubkey": "51205506ea41bfe56bf9ab31310fef18c0b309e18bf117db8542ebd1c3df27bf8c5c",
        "scriptpubkey_asm": "OP_PUSHNUM_1 OP_PUSHBYTES_32 5506ea41bfe56bf9ab31310fef18c0b309e18bf117db8542ebd1c3df27bf8c5c",
        "scriptpubkey_type": "v1_p2tr",
        "scriptpubkey_address": "bc1p25rw5sdlu44ln2e3xy877xxqkvy7rzl3zldc2sht68pa7fal33wq6h5nz9",
        "value": 213760
      },
      "scriptsig": "",
      "scriptsig_asm": "",
      "witness": [
        "c55697829b91355b864ef7830ed9f2aecc8b2e4ed7b96dbc013b5b588e4895a4097672cf8e3ff2768ce060d0e78859601bde87a9afa816e517cffa5210c6bd8b"
      ],
      "is_coinbase": false,
      "sequence": 2147483649
    }
  ],
  "vout": [
    {
      "scriptpubkey": "5120d4941624a60a2d26a71307cae4d6a107831b9233a2276f786bb65c175ad1d5b5",
      "scriptpubkey_asm": "OP_PUSHNUM_1 OP_PUSHBYTES_32 d4941624a60a2d26a71307cae4d6a107831b9233a2276f786bb65c175ad1d5b5",
      "scriptpubkey_type": "v1_p2tr",
      "scriptpubkey_address": "bc1p6j2pvf9xpgkjdfcnql9wf44pq7p3hy3n5gnk77rtkewpwkk36k6swpj3ax",
      "value": 210219
    },
    {
      "scriptpubkey": "51205506ea41bfe56bf9ab31310fef18c0b309e18bf117db8542ebd1c3df27bf8c5c",
      "scriptpubkey_asm": "OP_PUSHNUM_1 OP_PUSHBYTES_32 5506ea41bfe56bf9ab31310fef18c0b309e18bf117db8542ebd1c3df27bf8c5c",
      "scriptpubkey_type": "v1_p2tr",
      "scriptpubkey_address": "bc1p25rw5sdlu44ln2e3xy877xxqkvy7rzl3zldc2sht68pa7fal33wq6h5nz9",
      "value": 1876
    }
  ],
  "size": 205,
  "weight": 616,
  "fee": 1665,
  "status": {
    "confirmed": true,
    "block_height": 834464,
    "block_hash": "0000000000000000000177a0869a911a2b65c9bdcd5a8bcb02b68f305bee848e",
    "block_time": 1710308296
  },
  "hex": "02000000000101efeb51d6091e279ff264bc9aab4bbeec6b881b87254963af94bf3663bb28229d020000000001000080022b35030000000000225120d4941624a60a2d26a71307cae4d6a107831b9233a2276f786bb65c175ad1d5b554070000000000002251205506ea41bfe56bf9ab31310fef18c0b309e18bf117db8542ebd1c3df27bf8c5c0140c55697829b91355b864ef7830ed9f2aecc8b2e4ed7b96dbc013b5b588e4895a4097672cf8e3ff2768ce060d0e78859601bde87a9afa816e517cffa5210c6bd8b00000000"
}