{
  "txid": "f69001c11497e4cb71e3237bf27046559ca194e1b888efbb213bdc773e8ecbb1",
  "version": 2,
  "locktime": 0,
  "vin": [
    {
      "txid": "9424c6e6c6b625ee3269707f5c63e652d3e1b6378321309d071462175d81d0c4",
      "vout": 5,
      "prevout": {
        "scriptpubkey": "5120d8b61d8759b635109b2755efa79bd3b56a86c66519c6c6c3a41506f483225dfe",
        "scriptpubkey_asm": "OP_PUSHNUM_1 OP_PUSHBYTES_32 d8b61d8759b635109b2755efa79bd3b56a86c66519c6c6c3a41506f483225dfe",
        "scriptpubkey_type": "v1_p2tr",
        "scriptpubkey_address": "bc1pmzmpmp6ekc63pxe82hh60x7nk44gd3n9r8rvdsayz5r0fqezthlqpktvdz",
        "value": 600
      },
      "scriptsig": "",
      "scriptsig_asm": "",
      "witness": [
        "ba025d5806c5fc570a6592a3b5c0a61fcc435ff2dc6f425cbef65e4d214e9920723b013df6ba872792abe204e276a9b3654ca67ff0e1e2b7dd35f96a91a335a1"
      ],
      "is_coinbase": false,
      "sequence": 4294967295
    },
    {
      "txid": "89e25de53b22d6f4c20ec214e20eef1ca14f0e62f17cbc2ac54e8fd5ad4bb7d5",
      "vout": 5,
      "prevout": {
        "scriptpubkey": "5120d8b61d8759b635109b2755efa79bd3b56a86c66519c6c6c3a41506f483225dfe",
        "scriptpubkey_asm": "OP_PUSHNUM_1 OP_PUSHBYTES_32 d8b61d8759b635109b2755efa79bd3b56a86c66519c6c6c3a41506f483225dfe",
        "scriptpubkey_type": "v1_p2tr",
        "scriptpubkey_address": "bc1pmzmpmp6ekc63pxe82hh60x7nk44gd3n9r8rvdsayz5r0fqezthlqpktvdz",
        "value": 600
      },
      "scriptsig": "",
      "scriptsig_asm": "",
      "witness": [
        "f7e6a0d148ad73c7a0e59c09f4959461991af13108d8bbee5dcb3aac63fa8827494e2f5e6b6f21f928fe0b2f8dd1b31b80811a740d2236e99cb34d5b8f714a14"
      ],
      "is_coinbase": false,
      "sequence": 4294967295
    },
    {
      "txid": "0e68bc2d5b9105cff283b23f3f78e4039ef58da6ccd80a5e8f1e87b7fa6868d5",
      "vout": 0,
      "prevout": {
        "scriptpubkey": "0014d486661d245caf09050de7e5c0381cbd3234bb40",
        "scriptpubkey_asm": "OP_0 OP_PUSHBYTES_20 d486661d245caf09050de7e5c0381cbd3234bb40",
        "scriptpubkey_type": "v0_p2wpkh",
        "scriptpubkey_address": "bc1q6jrxv8fytjhsjpgduljuqwquh5erfw6q2tnmgn",
        "value": 546
      },
      "scriptsig": "",
      "scriptsig_asm": "",
      "witness": [
        "30440220641c79abda76b76bfe8227747ef270932fa6c904ff6e843728c87d368b610f0802200e900d0cdd315e5383deb534a56be7a9a1c89563085ffc1468ed407407fce7f483",
        "03b75f9d7f1698056c00466f58ecc025000bcbb7c45f1fef4d90d196201b6fee54"
      ],
      "is_coinbase": false,
      "sequence": 4294967295
    },
    {
      "txid": "dea171704c6e3896487e8f13d96a1c1334abf0ba6d313f0f06f2f5188d588f5f",
      "vout": 2,
      "prevout": {
        "scriptpubkey": "5120d8b61d8759b635109b2755efa79bd3b56a86c66519c6c6c3a41506f483225dfe",
        "scriptpubkey_asm": "OP_PUSHNUM_1 OP_PUSHBYTES_32 d8b61d8759b635109b2755efa79bd3b56a86c66519c6c6c3a41506f483225dfe",
        "scriptpubkey_type": "v1_p2tr",
        "scriptpubkey_address": "bc1pmzmpmp6ekc63pxe82hh60x7nk44gd3n9r8rvdsayz5r0fqezthlqpktvdz",
        "value": 940000
      },
      "scriptsig": "",
      "scriptsig_asm": "",
      "witness": [
        "98e795b15803d7a93e2aabaae2aee1281c7adebc863f1179099918decee65658f06d4d8d5019b78d2cc9250c521498f456740c92895c7d072261b8aa8ba482cc"
      ],
      "is_coinbase": false,
      "sequence": 4294967295
    }
  ],
  "vout": [
    {
      "scriptpubkey": "5120d8b61d8759b635109b2755efa79bd3b56a86c66519c6c6c3a41506f483225dfe",
      "scriptpubkey_asm": "OP_PUSHNUM_1 OP_PUSHBYTES_32 d8b61d8759b635109b2755efa79bd3b56a86c66519c6c6c3a41506f483225dfe",
      "scriptpubkey_type": "v1_p2tr",
      "scriptpubkey_address": "bc1pmzmpmp6ekc63pxe82hh60x7nk44gd3n9r8rvdsayz5r0fqezthlqpktvdz",
      "value": 1200
    },
    {
      "scriptpubkey": "5120d8b61d8759b635109b2755efa79bd3b56a86c66519c6c6c3a41506f483225dfe",
      "scriptpubkey_asm": "OP_PUSHNUM_1 OP_PUSHBYTES_32 d8b61d8759b635109b2755efa79bd3b56a86c66519c6c6c3a41506f483225dfe",
      "scriptpubkey_type": "v1_p2tr",
      "scriptpubkey_address": "bc1pmzmpmp6ekc63pxe82hh60x7nk44gd3n9r8rvdsayz5r0fqezthlqpktvdz",
      "value": 546
    },
    {
      "scriptpubkey": "0014d486661d245caf09050de7e5c0381cbd3234bb40",
      "scriptpubkey_asm": "OP_0 OP_PUSHBYTES_20 d486661d245caf09050de7e5c0381cbd3234bb40",
      "scriptpubkey_type": "v0_p2wpkh",
      "scriptpubkey_address": "bc1q6jrxv8fytjhsjpgduljuqwquh5erfw6q2tnmgn",
      "value": 484500
    },
    {
      "scriptpubkey": "5120d8b61d8759b635109b2755efa79bd3b56a86c66519c6c6c3a41506f483225dfe",
      "scriptpubkey_asm": "OP_PUSHNUM_1 OP_PUSHBYTES_32 d8b61d8759b635109b2755efa79bd3b56a86c66519c6c6c3a41506f483225dfe",
      "scriptpubkey_type": "v1_p2tr",
      "scriptpubkey_address": "bc1pmzmpmp6ekc63pxe82hh60x7nk44gd3n9r8rvdsayz5r0fqezthlqpktvdz",
      "value": 600
    },
    {
      "scriptpubkey": "5120d8b61d8759b635109b2755efa79bd3b56a86c66519c6c6c3a41506f483225dfe",
      "scriptpubkey_asm": "OP_PUSHNUM_1 OP_PUSHBYTES_32 d8b61d8759b635109b2755efa79bd3b56a86c66519c6c6c3a41506f483225dfe",
      "scriptpubkey_type": "v1_p2tr",
      "scriptpubkey_address": "bc1pmzmpmp6ekc63pxe82hh60x7nk44gd3n9r8rvdsayz5r0fqezthlqpktvdz",
      "value": 600
    },
    {
      "scriptpubkey": "5120d8b61d8759b635109b2755efa79bd3b56a86c66519c6c6c3a41506f483225dfe",
      "scriptpubkey_asm": "OP_PUSHNUM_1 OP_PUSHBYTES_32 d8b61d8759b635109b2755efa79bd3b56a86c66519c6c6c3a41506f483225dfe",
      "scriptpubkey_type": "v1_p2tr",
      "scriptpubkey_address": "bc1pmzmpmp6ekc63pxe82hh60x7nk44gd3n9r8rvdsayz5r0fqezthlqpktvdz",
      "value": 448833
    }
  ],
  "size": 727,
  "weight": 1987,
  "fee": 5467,
  "status": {
    "confirmed": true,
    "block_height": 834464,
    "block_hash": "0000000000000000000177a0869a911a2b65c9bdcd5a8bcb02b68f305bee848e",
    "block_time": 1710308296
  },
  "hex": "02000000000104c4d0815d176214079d30218337b6e1d352e6635c7f706932ee25b6c6e6c624940500000000ffffffffd5b74badd58f4ec52abc7cf1620e4fa11cef0ee214c20ec2f4d6223be55de2890500000000ffffffffd56868fab7871e8f5e0ad8cca68df59e03e4783f3fb283f2cf05915b2dbc680e0000000000ffffffff5f8f588d18f5f2060f3f316dbaf0ab34131c6ad9138f7e4896386e4c7071a1de0200000000ffffffff06b004000000000000225120d8b61d8759b635109b2755efa79bd3b56a86c66519c6c6c3a41506f483225dfe2202000000000000225120d8b61d8759b635109b2755efa79bd3b56a86c66519c6c6c3a41506f483225dfe9464070000000000160014d486661d245caf09050de7e5c0381cbd3234bb405802000000000000225120d8b61d8759b635109b2755efa79bd3b56a86c66519c6c6c3a41506f483225dfe5802000000000000225120d8b61d8759b635109b2755efa79bd3b56a86c66519c6c6c3a41506f483225dfe41d9060000000000225120d8b61d8759b635109b2755efa79bd3b56a86c66519c6c6c3a41506f483225dfe0140ba025d5806c5fc570a6592a3b5c0a61fcc435ff2dc6f425cbef65e4d214e9920723b013df6ba872792abe204e276a9b3654ca67ff0e1e2b7dd35f96a91a335a10140f7e6a0d148ad73c7a0e59c09f4959461991af13108d8bbee5dcb3aac63fa8827494e2f5e6b6f21f928fe0b2f8dd1b31b80811a740d2236e99cb34d5b8f714a14024730440220641c79abda76b76bfe8227747ef270932fa6c904ff6e843728c87d368b610f0802200e900d0cdd315e5383deb534a56be7a9a1c89563085ffc1468ed407407fce7f4832103b75f9d7f1698056c00466f58ecc025000bcbb7c45f1fef4d90d196201b6fee54014098e795b15803d7a93e2aabaae2aee1281c7adebc863f1179099918decee65658f06d4d8d5019b78d2cc9250c521498f456740c92895c7d072261b8aa8ba482cc00000000"
}