{
  "txid": "f69f1db424770f4c0968895cce8e672dc25e987d402138ba4887b083ab821247",
  "version": 1,
  "locktime": 0,
  "vin": [
    {
      "txid": "810c46d0236a5c914358b5862d82ec8caef03ee78ff11bce5543c3eb8bf96b48",
      "vout": 2,
      "prevout": {
        "scriptpubkey": "0014ba15a420cb07bf62aeaa904613c4b7fcf116dd69",
        "scriptpubkey_asm": "OP_0 OP_PUSHBYTES_20 ba15a420cb07bf62aeaa904613c4b7fcf116dd69",
        "scriptpubkey_type": "v0_p2wpkh",
        "scriptpubkey_address": "bc1qhg26ggxtq7lk9t42jprp839hlnc3dhtfa6t8r6",
        "value": 100000
      },
      "scriptsig": "",
      "scriptsig_asm": "",
      "witness": [
        "3045022100c1cf8c57b73f91e4c3e4f3fbb1abec12f56336853e27280965577066b5b4049102207631ad9d7415a87f7e6bea74c5e576bec675b55b4b4cea86f1316d86b83290b901",
        "028d9c489ac4300a00a5e9a0fa3b880ad3c401a9b1e141408ba8eb88f4ad533ec5"
      ],
      "is_coinbase": false,
      "sequence": 4294967295
    }
  ],
  "vout": [
    {
      "scriptpubkey": "5120c8e4d2ba09348b6cf4ecf3a5c76bcc305ca00aa10f89ca4f43de0d56104d804c",
      "scriptpubkey_asm": "OP_PUSHNUM_1 OP_PUSHBYTES_32 c8e4d2ba09348b6cf4ecf3a5c76bcc305ca00aa10f89ca4f43de0d56104d804c",
      "scriptpubkey_type": "v1_p2tr",
      "scriptpubkey_address": "bc1perjd9wsfxj9kea8v7wjuw67vxpw2qz4pp7yu5n6rmcx4vyzdspxq3paqkw",
      "value": 97438
    }
  ],
  "size": 204,
  "weight": 486,
  "fee": 2562,
  "status": {
    "confirmed": true,
    "block_height": 834638,
    "block_hash": "000000000000000000025f742c626208ac87e0b7d15054abb4a19ca2d735a54e",
    "block_time": 1710405325
  },
  "hex": "01000000000101486bf98bebc34355ce1bf18fe73ef0ae8cec822d86b55843915c6a23d0460c810200000000ffffffff019e7c010000000000225120c8e4d2ba09348b6cf4ecf3a5c76bcc305ca00aa10f89ca4f43de0d56104d804c02483045022100c1cf8c57b73f91e4c3e4f3fbb1abec12f56336853e27280965577066b5b4049102207631ad9d7415a87f7e6bea74c5e576bec675b55b4b4cea86f1316d86b83290b90121028d9c489ac4300a00a5e9a0fa3b880ad3c401a9b1e141408ba8eb88f4ad533ec500000000"
}