{
  "txid": "f6b5c4a9424fff38f6dcd4d1f60b5f0feba7dbebf6b901d40e1907e0fe79ccdf",
  "version": 2,
  "locktime": 834628,
  "vin": [
    {
      "txid": "b935bfbd37db1723740fe6f076e5bbf53ebbc1052888396723dfe8e2543dea40",
      "vout": 1,
      "prevout": {
        "scriptpubkey": "00143606635920d63fe8131339c57dbb935f42a61460",
        "scriptpubkey_asm": "OP_0 OP_PUSHBYTES_20 3606635920d63fe8131339c57dbb935f42a61460",
        "scriptpubkey_type": "v0_p2wpkh",
        "scriptpubkey_address": "bc1qxcrxxkfq6cl7sycn88zhmwuntap2v9rq56enq2",
        "value": 253990274
      },
      "scriptsig": "",
      "scriptsig_asm": "",
      "witness": [
        "304402200f156850e110c690605d7e8002d3a526c51d2e51a31f5f8ccdb88e72de628cd50220679322cdea03ca02e1a67eca18e747f9f2da8f26b431d5cfa1eabe456b03985d01",
        "030e461125840c8d430db42b57bb05307f897738263706009ba721432b73376b80"
      ],
      "is_coinbase": false,
      "sequence": 4294967294
    }
  ],
  "vout": [
    {
      "scriptpubkey": "a914fc264fd800867b7130a2eea13eee6cd928427b0187",
      "scriptpubkey_asm": "OP_HASH160 OP_PUSHBYTES_20 fc264fd800867b7130a2eea13eee6cd928427b01 OP_EQUAL",
      "scriptpubkey_type": "p2sh",
      "scriptpubkey_address": "3QgG6qn1NpsMBH6uGrGcQGgKqP8qXmECeF",
      "value": 687500
    },
    {
      "scriptpubkey": "001473f821c90c564b842961a8285b762bb5eaa120a4",
      "scriptpubkey_asm": "OP_0 OP_PUSHBYTES_20 73f821c90c564b842961a8285b762bb5eaa120a4",
      "scriptpubkey_type": "v0_p2wpkh",
      "scriptpubkey_address": "bc1qw0uzrjgv2e9cg2tp4q59ka3tkh42zg9y6y48ce",
      "value": 253299294
    }
  ],
  "size": 223,
  "weight": 565,
  "fee": 3480,
  "status": {
    "confirmed": true,
    "block_height": 834638,
    "block_hash": "000000000000000000025f742c626208ac87e0b7d15054abb4a19ca2d735a54e",
    "block_time": 1710405325
  },
  "hex": "0200000000010140ea3d54e2e8df236739882805c1bb3ef5bbe576f0e60f742317db37bdbf35b90100000000feffffff028c7d0a000000000017a914fc264fd800867b7130a2eea13eee6cd928427b01875e0a190f0000000016001473f821c90c564b842961a8285b762bb5eaa120a40247304402200f156850e110c690605d7e8002d3a526c51d2e51a31f5f8ccdb88e72de628cd50220679322cdea03ca02e1a67eca18e747f9f2da8f26b431d5cfa1eabe456b03985d0121030e461125840c8d430db42b57bb05307f897738263706009ba721432b73376b8044bc0c00"
}