{
  "txid": "f6c7562189db87447d9e7c1cf4bcb11d8d0cf1ecc13bf1a2b959074cf11f4415",
  "version": 2,
  "locktime": 537045929,
  "vin": [
    {
      "txid": "e7afb6aacbac3014aef85d3a9403fd5b8f3f3c65fb3afcf922cd3260aa410a2b",
      "vout": 1,
      "prevout": {
        "scriptpubkey": "00205d0ea519dd49d841e143c6e70f77fe17ba903d1ef1e12a3b80119e1f679dece7",
        "scriptpubkey_asm": "OP_0 OP_PUSHBYTES_32 5d0ea519dd49d841e143c6e70f77fe17ba903d1ef1e12a3b80119e1f679dece7",
        "scriptpubkey_type": "v0_p2wsh",
        "scriptpubkey_address": "bc1qt5822xwaf8vyrc2rcmns7al7z7afq0g778sj5wuqzx0p7euaannskpyfvn",
        "value": 15000000
      },
      "scriptsig": "",
      "scriptsig_asm": "",
      "witness": [
        "",
        "3045022100fc1adea3eeb8ad18b461c74c9e830d26288d13428e5ee1c72bfef8c9b275b15602204dac39560ca84716a3febd9dd9a41330efc7d6e9e7400afac64950aa81a8564f01",
        "30440220167b6d79cf44a4333889f12d0ae34a39b7addbe94d1fd7bad7c2cfbd6a5c7007022001030b82a463739d1bb37f7fcbcc0c48d58ecc6694975498e5f73a7eb8ed072e01",
        "52210393e9fd62b55bf8069b902751553181b66dfb04c90ceecb86754c02c5be0dfd522103cc749fc57df5a500283b8c42350c8c6bc414eaf622717499d64df88d287a09b952ae"
      ],
      "is_coinbase": false,
      "sequence": 2158337782,
      "inner_witnessscript_asm": "OP_PUSHNUM_2 OP_PUSHBYTES_33 0393e9fd62b55bf8069b902751553181b66dfb04c90ceecb86754c02c5be0dfd52 OP_PUSHBYTES_33 03cc749fc57df5a500283b8c42350c8c6bc414eaf622717499d64df88d287a09b9 OP_PUSHNUM_2 OP_CHECKMULTISIG"
    }
  ],
  "vout": [
    {
      "scriptpubkey": "00203096b78a0944f8364f748dce6cf5d7ea89f4d90ee76aa4378817f85e43531d2a",
      "scriptpubkey_asm": "OP_0 OP_PUSHBYTES_32 3096b78a0944f8364f748dce6cf5d7ea89f4d90ee76aa4378817f85e43531d2a",
      "scriptpubkey_type": "v0_p2wsh",
      "scriptpubkey_address": "bc1qxztt0zsfgnurvnm53h8xeawha2ylfkgwua42gdugzlu9us6nr54qqsgnwm",
      "value": 330
    },
    {
      "scriptpubkey": "0020d4fa9f5a09334ff6ce5336e387f613b8d38b5a45058ca652a4f04440eef6d66e",
      "scriptpubkey_asm": "OP_0 OP_PUSHBYTES_32 d4fa9f5a09334ff6ce5336e387f613b8d38b5a45058ca652a4f04440eef6d66e",
      "scriptpubkey_type": "v0_p2wsh",
      "scriptpubkey_address": "bc1q6naf7ksfxd8ldnjnxm3c0asnhrfckkj9qkx2v54y7pzypmhk6ehqmfjywd",
      "value": 330
    },
    {
      "scriptpubkey": "0020765a985f778fcf15e9b0b4ca614b8e299c895af7bc6a4aeb4fadceb269e6bff9",
      "scriptpubkey_asm": "OP_0 OP_PUSHBYTES_32 765a985f778fcf15e9b0b4ca614b8e299c895af7bc6a4aeb4fadceb269e6bff9",
      "scriptpubkey_type": "v0_p2wsh",
      "scriptpubkey_address": "bc1qwedfshmh3l83t6dskn9xzjuw9xwgjkhhh34y46604h8ty60xhluscxn4w4",
      "value": 7206810
    },
    {
      "scriptpubkey": "0020d540fee21a916478767de4c79d5aaa259c085b1e7f2dc53d2e2b8e278def1946",
      "scriptpubkey_asm": "OP_0 OP_PUSHBYTES_32 d540fee21a916478767de4c79d5aaa259c085b1e7f2dc53d2e2b8e278def1946",
      "scriptpubkey_type": "v0_p2wsh",
      "scriptpubkey_address": "bc1q64q0acs6j9j8sanaunre6k42ykwqskc70uku20fw9w8z0r00r9rq7wxnre",
      "value": 7789504
    }
  ],
  "size": 444,
  "weight": 1113,
  "fee": 3026,
  "status": {
    "confirmed": true,
    "block_height": 834464,
    "block_hash": "0000000000000000000177a0869a911a2b65c9bdcd5a8bcb02b68f305bee848e",
    "block_time": 1710308296
  },
  "hex": "020000000001012b0a41aa6032cd22f9fc3afb653c3f8f5bfd03943a5df8ae1430accbaab6afe70100000000f69ea580044a010000000000002200203096b78a0944f8364f748dce6cf5d7ea89f4d90ee76aa4378817f85e43531d2a4a01000000000000220020d4fa9f5a09334ff6ce5336e387f613b8d38b5a45058ca652a4f04440eef6d66e9af76d0000000000220020765a985f778fcf15e9b0b4ca614b8e299c895af7bc6a4aeb4fadceb269e6bff9c0db760000000000220020d540fee21a916478767de4c79d5aaa259c085b1e7f2dc53d2e2b8e278def19460400483045022100fc1adea3eeb8ad18b461c74c9e830d26288d13428e5ee1c72bfef8c9b275b15602204dac39560ca84716a3febd9dd9a41330efc7d6e9e7400afac64950aa81a8564f014730440220167b6d79cf44a4333889f12d0ae34a39b7addbe94d1fd7bad7c2cfbd6a5c7007022001030b82a463739d1bb37f7fcbcc0c48d58ecc6694975498e5f73a7eb8ed072e014752210393e9fd62b55bf8069b902751553181b66dfb04c90ceecb86754c02c5be0dfd522103cc749fc57df5a500283b8c42350c8c6bc414eaf622717499d64df88d287a09b952aea9ab0220"
}