{
  "txid": "f6c8576710217355c82c12e3a474a0ab7424845fd97461db0a865a763e7bcdd5",
  "version": 2,
  "locktime": 0,
  "vin": [
    {
      "txid": "37fc03985e2ef9ed5fe0dfdfe744d9a4f1f95cad8cd60edfbf36e1043ad095ae",
      "vout": 0,
      "prevout": {
        "scriptpubkey": "001480f17a8173275d9cba05088ac3ff2bb0e6245e32",
        "scriptpubkey_asm": "OP_0 OP_PUSHBYTES_20 80f17a8173275d9cba05088ac3ff2bb0e6245e32",
        "scriptpubkey_type": "v0_p2wpkh",
        "scriptpubkey_address": "bc1qsrch4qtnyaweews9pz9v8letkrnzgh3j2zjdn4",
        "value": 1114521
      },
      "scriptsig": "",
      "scriptsig_asm": "",
      "witness": [
        "3044022030858cf21d488970eb68daf2e3b4837d89d8b866c9c5e9ed13452fde3e1abf50022036a6c0c931ac410ebe08c431adde2c0c7fca7799fdb046172ca93b4408fc409401",
        "031d4b8da3769096f2eb96005267e625870c03b3b303f5db2b28148091af1e3ddb"
      ],
      "is_coinbase": false,
      "sequence": 4294967295
    }
  ],
  "vout": [
    {
      "scriptpubkey": "76a9140863c2e86305acea69141f6ab8777569783e4deb88ac",
      "scriptpubkey_asm": "OP_DUP OP_HASH160 OP_PUSHBYTES_20 0863c2e86305acea69141f6ab8777569783e4deb OP_EQUALVERIFY OP_CHECKSIG",
      "scriptpubkey_type": "p2pkh",
      "scriptpubkey_address": "1mMv5NTtsWPRNpXLZGKgsHooXVL8kbRcU",
      "value": 32000
    },
    {
      "scriptpubkey": "001480f17a8173275d9cba05088ac3ff2bb0e6245e32",
      "scriptpubkey_asm": "OP_0 OP_PUSHBYTES_20 80f17a8173275d9cba05088ac3ff2bb0e6245e32",
      "scriptpubkey_type": "v0_p2wpkh",
      "scriptpubkey_address": "bc1qsrch4qtnyaweews9pz9v8letkrnzgh3j2zjdn4",
      "value": 1079789
    }
  ],
  "size": 225,
  "weight": 573,
  "fee": 2732,
  "status": {
    "confirmed": true,
    "block_height": 834638,
    "block_hash": "000000000000000000025f742c626208ac87e0b7d15054abb4a19ca2d735a54e",
    "block_time": 1710405325
  },
  "hex": "02000000000101ae95d03a04e136bfdf0ed68cad5cf9f1a4d944e7dfdfe05fedf92e5e9803fc370000000000ffffffff02007d0000000000001976a9140863c2e86305acea69141f6ab8777569783e4deb88aced7910000000000016001480f17a8173275d9cba05088ac3ff2bb0e6245e3202473044022030858cf21d488970eb68daf2e3b4837d89d8b866c9c5e9ed13452fde3e1abf50022036a6c0c931ac410ebe08c431adde2c0c7fca7799fdb046172ca93b4408fc40940121031d4b8da3769096f2eb96005267e625870c03b3b303f5db2b28148091af1e3ddb00000000"
}