{
  "txid": "f6c9d4369d1665b4dece6bb7835dd714d2ca26c42c62e59e8865ca95245b4844",
  "version": 2,
  "locktime": 0,
  "vin": [
    {
      "txid": "b13bb5512a4904c28a6b7957b88edf574e8cb23551fc1dcfe22d6b239df42cf4",
      "vout": 30,
      "prevout": {
        "scriptpubkey": "512016c8873d44a3f9a7fe620ca15f708a1345aa866177deac649ff30c39495a879a",
        "scriptpubkey_asm": "OP_PUSHNUM_1 OP_PUSHBYTES_32 16c8873d44a3f9a7fe620ca15f708a1345aa866177deac649ff30c39495a879a",
        "scriptpubkey_type": "v1_p2tr",
        "scriptpubkey_address": "bc1pzmygw02y50u60lnzpjs47uy2zdz64pnpwl02ceyl7vxrjj26s7dq0kjka5",
        "value": 2575
      },
      "scriptsig": "",
      "scriptsig_asm": "",
      "witness": [
        "fdc2cfeffbe92cb0460dc9f3e480cfe19b4593c708796da292da00d3787896e13372ead298987786e32150658463c1468aeb6312c374eb3a2fb0bc4df58d701e",
        "208ed96658f54159e75f4adab3657d048ddca3faeab8a1276633946642b1e9e4a4ac0063036f726401010a746578742f706c61696e00367b2270223a226272632d3230222c226f70223a226d696e74222c227469636b223a2261616161222c22616d74223a223130303030227d68",
        "c08ed96658f54159e75f4adab3657d048ddca3faeab8a1276633946642b1e9e4a4"
      ],
      "is_coinbase": false,
      "sequence": 4261412863
    }
  ],
  "vout": [
    {
      "scriptpubkey": "0014ce0b5aa0dac72397a8aa5a85d90a2cfb46f0f630",
      "scriptpubkey_asm": "OP_0 OP_PUSHBYTES_20 ce0b5aa0dac72397a8aa5a85d90a2cfb46f0f630",
      "scriptpubkey_type": "v0_p2wpkh",
      "scriptpubkey_address": "bc1qec944gx6cu3e0292t2zajz3vldr0pa3sh356d9",
      "value": 546
    }
  ],
  "size": 295,
  "weight": 541,
  "fee": 2029,
  "status": {
    "confirmed": true,
    "block_height": 834464,
    "block_hash": "0000000000000000000177a0869a911a2b65c9bdcd5a8bcb02b68f305bee848e",
    "block_time": 1710308296
  },
  "hex": "02000000000101f42cf49d236b2de2cf1dfc5135b28c4e57df8eb857796b8ac204492a51b53bb11e00000000fffffffd012202000000000000160014ce0b5aa0dac72397a8aa5a85d90a2cfb46f0f6300340fdc2cfeffbe92cb0460dc9f3e480cfe19b4593c708796da292da00d3787896e13372ead298987786e32150658463c1468aeb6312c374eb3a2fb0bc4df58d701e6e208ed96658f54159e75f4adab3657d048ddca3faeab8a1276633946642b1e9e4a4ac0063036f726401010a746578742f706c61696e00367b2270223a226272632d3230222c226f70223a226d696e74222c227469636b223a2261616161222c22616d74223a223130303030227d6821c08ed96658f54159e75f4adab3657d048ddca3faeab8a1276633946642b1e9e4a400000000"
}