{
  "txid": "f6e99477cc73a2ead882c02771a456ea6e96f72f5ece5ea165cd43b6eae7985c",
  "version": 2,
  "locktime": 0,
  "vin": [
    {
      "txid": "14e2167695fd53b97ae50c0a70e65ac4ef7ad1480621c0c13d9d798945a5d5dc",
      "vout": 12,
      "prevout": {
        "scriptpubkey": "51202a5217915999e5f46a59a83d0a12dc7d32abddfff4e7496679ae3562fcddb349",
        "scriptpubkey_asm": "OP_PUSHNUM_1 OP_PUSHBYTES_32 2a5217915999e5f46a59a83d0a12dc7d32abddfff4e7496679ae3562fcddb349",
        "scriptpubkey_type": "v1_p2tr",
        "scriptpubkey_address": "bc1p9ffp0y2en8jlg6je4q7s5yku05e2hh0l7nn5jene4c6k9lxakdysp8un85",
        "value": 2862
      },
      "scriptsig": "",
      "scriptsig_asm": "",
      "witness": [
        "36b6cdecb7682cee24e1508e28b8b6b399ed2e0329cc8e783c321ab5c2d8e3f4118598315709f41c6f9b2db1fa4fafac98d6b0749f5f1c47d7b8c83da1cb9e4a",
        "2092d684519a4b7d5bcc04e8794e261e29e1fc03143f6d3e11dfe30c6a5ffe7bb5ac0063036f726401011e6170706c69636174696f6e2f6a736f6e3b636861727365743d7574662d38004cd37b2270223a22706f772d3230222c226f70223a226d696e74222c227469636b223a2250455045222c22616d74223a2231303030222c22736f6c7574696f6e223a22504550453a62633170673935386e6b7a747678347271756e78676d747a6c35666e70666b633330776a323770777367396e6c706a786b796e64793671737376386c6b303a303030303030303030303030303030303030303139393431613561653132383937363539383134343239323533333030353762306461393666336465613163353a3533333133313030353730227d68",
        "c1631b34e489e80d4fba35164e5ad52a60d66865df7d7db84d2adbf53ec13ca2a1"
      ],
      "is_coinbase": false,
      "sequence": 4294967295
    }
  ],
  "vout": [
    {
      "scriptpubkey": "5120416879d84b61aa30726646d62fd1330a6d88bdd25782e820b3f8646b126d2681",
      "scriptpubkey_asm": "OP_PUSHNUM_1 OP_PUSHBYTES_32 416879d84b61aa30726646d62fd1330a6d88bdd25782e820b3f8646b126d2681",
      "scriptpubkey_type": "v1_p2tr",
      "scriptpubkey_address": "bc1pg958nkztvx4rqunxgmtzl5fnpfkc30wj27pwsg9nlpjxkyndy6qssv8lk0",
      "value": 546
    }
  ],
  "size": 487,
  "weight": 769,
  "fee": 2316,
  "status": {
    "confirmed": true,
    "block_height": 834460,
    "block_hash": "00000000000000000000484a79b643b2524bbce82e5d8a442013fa5b8905ed98",
    "block_time": 1710307468
  },
  "hex": "02000000000101dcd5a54589799d3dc1c0210648d17aefc45ae6700a0ce57ab953fd957616e2140c00000000ffffffff012202000000000000225120416879d84b61aa30726646d62fd1330a6d88bdd25782e820b3f8646b126d2681034036b6cdecb7682cee24e1508e28b8b6b399ed2e0329cc8e783c321ab5c2d8e3f4118598315709f41c6f9b2db1fa4fafac98d6b0749f5f1c47d7b8c83da1cb9e4afd20012092d684519a4b7d5bcc04e8794e261e29e1fc03143f6d3e11dfe30c6a5ffe7bb5ac0063036f726401011e6170706c69636174696f6e2f6a736f6e3b636861727365743d7574662d38004cd37b2270223a22706f772d3230222c226f70223a226d696e74222c227469636b223a2250455045222c22616d74223a2231303030222c22736f6c7574696f6e223a22504550453a62633170673935386e6b7a747678347271756e78676d747a6c35666e70666b633330776a323770777367396e6c706a786b796e64793671737376386c6b303a303030303030303030303030303030303030303139393431613561653132383937363539383134343239323533333030353762306461393666336465613163353a3533333133313030353730227d6821c1631b34e489e80d4fba35164e5ad52a60d66865df7d7db84d2adbf53ec13ca2a100000000"
}