{
  "txid": "f6f320848b6d7a76630decc2673e2efb110bce2378f2d5d13fdb48ba884c1fa6",
  "version": 2,
  "locktime": 0,
  "vin": [
    {
      "txid": "465898693ba6bd836776c3c86405ab201e1a5deb554786223328a5aa41bb2191",
      "vout": 1,
      "prevout": {
        "scriptpubkey": "5120741849754951a3a040397f79e01cb02552f4bf9ff95368707e7f3a8a24de1eb5",
        "scriptpubkey_asm": "OP_PUSHNUM_1 OP_PUSHBYTES_32 741849754951a3a040397f79e01cb02552f4bf9ff95368707e7f3a8a24de1eb5",
        "scriptpubkey_type": "v1_p2tr",
        "scriptpubkey_address": "bc1pwsvyja2f2x36qspe0au7q89sy4f0f0ull9fksur70uag5fx7r66sj0ecqf",
        "value": 38352774
      },
      "scriptsig": "",
      "scriptsig_asm": "",
      "witness": [
        "f4670b839faba8a49d1371541ece649cb33185d1cddb238272629f8ecc74488d0f5197f1885ee1c5d27d4824ac674eec4924dc097c3e696a3a12bc2d856c2dc7",
        "2088225c0158a85208c9f0a93d3b724953f164a056121b81a87f88ab0a666cbff1ac0063036f726401010a746578742f706c61696e000d3833343436342e6269746d617068",
        "c188225c0158a85208c9f0a93d3b724953f164a056121b81a87f88ab0a666cbff1"
      ],
      "is_coinbase": false,
      "sequence": 4261412863
    }
  ],
  "vout": [
    {
      "scriptpubkey": "0014463d3fb48cc0b5c0493b098f364bc2beab5309eb",
      "scriptpubkey_asm": "OP_0 OP_PUSHBYTES_20 463d3fb48cc0b5c0493b098f364bc2beab5309eb",
      "scriptpubkey_type": "v0_p2wpkh",
      "scriptpubkey_address": "bc1qgc7nldyvcz6uqjfmpx8nvj7zh644xz0tj8k9xp",
      "value": 294
    },
    {
      "scriptpubkey": "5120301e2a0e5ca23aa36af780f2b22186cf126e2893dd139746c68d511a7fbe1cd9",
      "scriptpubkey_asm": "OP_PUSHNUM_1 OP_PUSHBYTES_32 301e2a0e5ca23aa36af780f2b22186cf126e2893dd139746c68d511a7fbe1cd9",
      "scriptpubkey_type": "v1_p2tr",
      "scriptpubkey_address": "bc1pxq0z5rju5ga2x6hhsretygvxeufxu2ynm5few3kx34g35la7rnvs9z5jfw",
      "value": 38345760
    }
  ],
  "size": 297,
  "weight": 672,
  "fee": 6720,
  "status": {
    "confirmed": true,
    "block_height": 834464,
    "block_hash": "0000000000000000000177a0869a911a2b65c9bdcd5a8bcb02b68f305bee848e",
    "block_time": 1710308296
  },
  "hex": "020000000001019121bb41aaa5283322864755eb5d1a1e20ab0564c8c3766783bda63b699858460100000000fffffffd022601000000000000160014463d3fb48cc0b5c0493b098f364bc2beab5309eb201c490200000000225120301e2a0e5ca23aa36af780f2b22186cf126e2893dd139746c68d511a7fbe1cd90340f4670b839faba8a49d1371541ece649cb33185d1cddb238272629f8ecc74488d0f5197f1885ee1c5d27d4824ac674eec4924dc097c3e696a3a12bc2d856c2dc7452088225c0158a85208c9f0a93d3b724953f164a056121b81a87f88ab0a666cbff1ac0063036f726401010a746578742f706c61696e000d3833343436342e6269746d61706821c188225c0158a85208c9f0a93d3b724953f164a056121b81a87f88ab0a666cbff100000000"
}