{
  "txid": "f6f858dcec7528418257dceb1ba1b76242854aeffd4af8c48c95496071458a13",
  "version": 2,
  "locktime": 0,
  "vin": [
    {
      "txid": "e18765de896abbaf0e08a941c7575c88b194c5bdd7e814e0ab40c15a33e78267",
      "vout": 3,
      "prevout": {
        "scriptpubkey": "5120900ca425cb23f8f32e6da65340731dd4a9d0e96f893097f26b470a5d19c58596",
        "scriptpubkey_asm": "OP_PUSHNUM_1 OP_PUSHBYTES_32 900ca425cb23f8f32e6da65340731dd4a9d0e96f893097f26b470a5d19c58596",
        "scriptpubkey_type": "v1_p2tr",
        "scriptpubkey_address": "bc1pjqx2gfwty0u0xtnd5ef5quca6j5ap6t03ycf0untgu996xw9sktqu4ysf3",
        "value": 2755
      },
      "scriptsig": "",
      "scriptsig_asm": "",
      "witness": [
        "1c3d58c2df803f95c11438cff0fb6af12320160b7879ac7735924a490097b55956b549e7f5831df2aaa5b6f7f9e9148ac06de20f9ad739342b980497a25760f7",
        "20adf97e57d7687f3d81c12e2072a6120fd713ab8d1e4f3c5022f7040900dc9700ac0063036f726401010a746578742f706c61696e00367b2270223a226272632d3230222c227469636b223a2261616161222c226f70223a226d696e74222c22616d74223a223130303030227d68",
        "c0adf97e57d7687f3d81c12e2072a6120fd713ab8d1e4f3c5022f7040900dc9700"
      ],
      "is_coinbase": false,
      "sequence": 4294967293
    }
  ],
  "vout": [
    {
      "scriptpubkey": "5120a8a52c81dec73e0cbd794dc04f23d32215f3518b50f71ba9410b1100e5f31991",
      "scriptpubkey_asm": "OP_PUSHNUM_1 OP_PUSHBYTES_32 a8a52c81dec73e0cbd794dc04f23d32215f3518b50f71ba9410b1100e5f31991",
      "scriptpubkey_type": "v1_p2tr",
      "scriptpubkey_address": "bc1p4zjjeqw7culqe0tefhqy7g7nyg2lx5vt2rm3h22ppvgspe0nrxgsyqu2tu",
      "value": 546
    }
  ],
  "size": 307,
  "weight": 589,
  "fee": 2209,
  "status": {
    "confirmed": true,
    "block_height": 834460,
    "block_hash": "00000000000000000000484a79b643b2524bbce82e5d8a442013fa5b8905ed98",
    "block_time": 1710307468
  },
  "hex": "020000000001016782e7335ac140abe014e8d7bdc594b1885c57c741a9080eafbb6a89de6587e10300000000fdffffff012202000000000000225120a8a52c81dec73e0cbd794dc04f23d32215f3518b50f71ba9410b1100e5f3199103401c3d58c2df803f95c11438cff0fb6af12320160b7879ac7735924a490097b55956b549e7f5831df2aaa5b6f7f9e9148ac06de20f9ad739342b980497a25760f76e20adf97e57d7687f3d81c12e2072a6120fd713ab8d1e4f3c5022f7040900dc9700ac0063036f726401010a746578742f706c61696e00367b2270223a226272632d3230222c227469636b223a2261616161222c226f70223a226d696e74222c22616d74223a223130303030227d6821c0adf97e57d7687f3d81c12e2072a6120fd713ab8d1e4f3c5022f7040900dc970000000000"
}