{
  "txid": "f72124836a446d30325251979447bf01e31c7549b2edff61591f74c8d495e0f6",
  "version": 2,
  "locktime": 0,
  "vin": [
    {
      "txid": "f5cd4ace9c5766ed070cbf4e5bdcac5b920b7d16573d6bd0491abf225cccbf25",
      "vout": 0,
      "prevout": {
        "scriptpubkey": "51207371ed58f9251a3f11c21ee2a98f10928ab6b575b599c9c0aaf4d3028199245d",
        "scriptpubkey_asm": "OP_PUSHNUM_1 OP_PUSHBYTES_32 7371ed58f9251a3f11c21ee2a98f10928ab6b575b599c9c0aaf4d3028199245d",
        "scriptpubkey_type": "v1_p2tr",
        "scriptpubkey_address": "bc1pwdc76k8ey5dr7ywzrm32nrcsj29tddt4kkvuns927nfs9qvey3wsz8s8zt",
        "value": 13332
      },
      "scriptsig": "",
      "scriptsig_asm": "",
      "witness": [
        "3ea8b296edc51a4ba214c61b568313486235ec463d2a568b1531fc9c8497eaaa9341fc5501885f21d2cfff908c2840ce4a39ba1750937d67e5b51cf35ca995d2",
        "20d9d5fe36d8803db8128f86b63dcb9890b6e01a52445f96828580ea1e1972a312ac0063036f7264010109696d6167652f706e67004d080289504e470d0a1a0a0000000d4948445200000200000002000803000000c3a624c80000000467414d410000b18f0bfc610500000180504c5445aa7f424d237e28183c411c69504f545c1c153c1c6054381d916d0bbdbcb9582b8d563a824b2578e1582e160d2330174d140a02544675383733986e02221005515765241c072d2a2913090f5b6a6d251936331c50582690492179df002ceec37cffc03debeae68d8c88bf8302af3a00bd6340f5e5be430300a95636760e00eca3004b4b47cdfff87d5801d68a00ffc4002b1100371d00d75b00ea7f00b66700ffed9bf08f00feb800b7a200c3fff5feea69e261005d97545c875df2de22ffff005b3a8a5b7b64140019b9fef20101005c5c765c5e755c7e63ffffff5b2d915bb746aefeef2a1b4053f9d25c6e6c4ac9692a1b4133f8c940d580a4fdec5c8d5a5d9e501a0d243cda895b2c9125f2b95dad479afde934f8ca37de92493706fca90324f3bb5b3d8817061e52f9d28ffce55c4c7f56bd524fc45e23193346ce74fff2c285fce27bfbdf71fbdc58238f48217550228266fad9321c4d391e5a2cebaa411f6831e49e28efb25cfad521f6c228f7c63df8cc47f9cf1c1429a87c04f9c12004e7aed30000001b74524e53bfe2e0d1c5c3e7d0e8f2f7f3dbfdcdc9feecfef9f7e6f0fde5fec3ce20fb2100000e114944415478daeddde7b324551d066004054440a2840f0650a2247759714104254d08028bac22596409c2022a60000445fe75fb47f5b1ba9a0ee77498994b3fef17eececece9d99f7a1aaebf40967fd78243f2bccaf32f3ebc2fc3e337fc8cc9f0af3e7c2fc25337fcdccdf0af3afcc9c05000000000000000000000000000000c0a6002c5d6c69c14b175b5af05ac5e616bc56b1296f8c04000000000000000000000000000000806d0158abd8dc82d72af6ab3e80f34661fed31300000000000000000000000000000000b60d60e9019cb5266aec7b00a7b4e0a50770c68aedcbbf5b0100000000000080ad01b8a7ce2f1a395d270740d7bf6fbf0e0000000000000000000000000000000000000000000000000000001c0280a3be2143e94d9e7671ef36727f9d5460d7cd9ea17fdff73a91a52772e416dc97dfd501000000000000000000000000000000605b00e6167c280b357227731eaf938ab9bf23cd819cf6004d0ea02e00bb2ab65d705f3ead03000000000000000000000000000000c0b600ec6ba2c65a8b3573176db621740dda744dd0c801d4056057c5a6bc5ce7d39100000000000000000000000000000000b02d004765c3c5b5365e9c3a41630850b3f4b50afe34339f8c04000000000000000000000000000000806d0138944d97d7da7cf93723993a51230740b3d89733935bf0278579b5270000000000000000401980d28b3b00000000000000387400476500a7b4e0b516622c5d6c69d1af66e6c53a1fb70200004d08020000000000007c19c03d8df46d08dd0c000000000000001c2500bb3a3c79eac1096305afb9d142298025276ae416fc622b1f67e69f750000000000000000802f17df752054da10ea649d2e08000000000000000000007301a46273077c00000000000000000000000000000000006008c0be0a4e1335f675b3a7bda162335d00da87439eec4813406eb163292db65df05800000000000000000000000000000000d81680b50670962e78ea868b638b36bb0669ba36803a9991f4dc9ca2d72e36e5a39100000000000000000000000000000000b02d006b159b5bf05ac5e61e9cd83551636823e8bed29b99b250a3b4e08f160a00000000000000000000000000000000db06507a80e25a052f7570e2d40316a2bce38d9ccec82e0770a6e68fad00000000000000000000000000000000b02d00730f58d8f7e14a4b1da0d8b5016329807d16db57705f9eaf030000000000000000e41db274a8177700000000000000500a606ec1fb3e3c79ea010bfb5a88b176b1ed82fbf2741d00000000000000d81a8057eafc77cf01000000000000807d01985bf0d4891afb1ec03914004b17db2e782c0000000000000000000000000000000000b08b0d19a62cd458f200450000000000000000000000000000000000d82280b18d18e66cb85852ec9207289694fbf99ed3f59e962cf89d9100000000000000000000000000000000b02d00bbd87031a7d8d24d080283148716687e1500cc2d3637000000000000000000000000000000006c1bc03e07704a36676a6e9ed057f8e747345d28962afc542b000000000000000000000000000000006c0bc0dc82972e76caa6cb00f417dc97337500000000000000000000000000000000d81680a50e579a7ac8120079004e15e64c6600000000000000600e80be029a855e5567e839390086267c7efe150900000000000000ec02c09a0b317200941e9cb8750067160e00000000000000000000000000000000db02b0c48d9bbe529a05f601283d3061ab00a616fcd64800000000000000606ed95d057401c8f9b000000000000000000000870ae0b19e3c54e7fe569606900a9c0b01000000000000000000000000000000806d0398ba10b30f402aae04c0d081895b05d02e2e77a0a79d275a01000000000000000000000000000000605b003e2accd205941e9c785400b4b33480dc82db79a9150000000000000000000000000000000000680ee0ac3d21a3eb759a85b70f443874007d99fb9d3c91999732f36c1d00000000000000000000000000000000b605606c53a6b52764941e92b87500a5058f05000000000000000000000000000000806d0178be30001c2d00f78d040000000000000000000000000000000000bab2d6c28caed7393590ad1e18515a6cca33757ede1300000000000000c80550b26033e7c3b52ff2fa1affaa960d00000000000000fb02f04d080274614a0667723edca9b100f0454a8b6de7d13a0fb602000000000000000000000000000000c0b601bc33216b00f8ff8987007c91677af268619e6a05000000000000000000000000000000806d0178676686266a4efdb04761c2e7bb2ba6ebf34f2db82f0fd7010000000000000000000000000000000080c1851a050b3601580ec0538549053f321200000000000000000000000000000000b605e05466ce14e4503672caf9b2a74ed2282df5a63a17d5f9519dd2b2738b4d797324000000000000000000000000000000006c0bc099c2bc951100fa01a4e21384aeefe8e181e416dbce6b3d01000000000000000000000000000000000000f60b200a1e42706d9db3eac4cf63001ee809000000000000002c09a014c53e3367a26a49a2fcf3aa7ca3956b27e4a13a3fad724795f8f9d22a000000000000003007c05b0be7893a00dc7453141e65dd5ae59b3db9aeca4323b9bdce5d752eac920676fa8a7ebcce0bad000000000000000000eb01888bbfababdc56e5962aa7ab0c0d3ac5736e6fe596466eae724995abeb346fee00000000000000402e80b9c5e6668b00ceaf1300e262edf22a77d4395ee5e68edc5325fe6df3a22fca3e5125205c5fe5e23a5d45bf3092f75a0100000000000080b501bc549867ebdc3792f6214a7d872797008c4395d362cc6b5a197a9df6448e74e3262efea2f4b8791325261c5faf927b03e8c63af17a0f0c4d08020400000000000000e60258bbd8dc3c5398be83144a00343764686fb8300620265fa462e3e22fca8f0bb73479232e04a3c478ce0faabc96996f37920675128ec71b792f331fd4010000000000000000960310833451721af849e5078418108af263f247098066c96920280d14a53f5f5005000000000000007201ecabe0a58acd3d38b104c0d0868b43af939e9306809a377fe2e7b8a9d3bc008c3c9e99545c949c8abfa14aa0baa44e9a20f2b52a1f6406000000000000000e1dc08399b9a627a9b8cb337265472ead935ee7fc8ec485582a39013859e5b12a69c147ba004c89b22e2cc83955e277dc59256e2c05a280109b50c48293cbaa9c5307000000000000008600ec6a00272665c405ca7732724595a1c7af6a64ecb5ae1ac96533f34a4762b0274a8a1b41dfab9200dc3a31edc5a131793426950680bbabc484d1586c12bf2730c4f714cf8b8bd173abbc3f1000000000000000d80580b4b1d1587e52251641361f8bc194783cbed0b8e049173edfafd2f73af177f19cbb574c2c24b9a3956355d204ce287ece7b888bc8db5af9619de6a2d1f8bcf1dcf8f9ba3af1dc3469a40f02000000000000db05b0ab091a3148135fc8893af1864f74243e407cb8f812bb1e0f04270672bace8909393690f47e8f8d249e13efb109205da81d9b98bef7796f9df87df1e7f8dcf13ee36230fe47893fc70569bc8f984cfa61470000000000000060574d080200d29b8e0f726f4f62a0233e54fbf174f173ef40da5fce52c979cdf49ee33dc6cd9af8bc7193282e14138c25937e67429f2e7e63802a7e7f0c0845f17101f8614f00000000000000a0b4e0470b139332e20bb92b2377d6c979fcce8572c502b9a491b431447351683cdebed175f584a40da59aa547aeaf939ed775e1f78f5600000000000000601700ae5c309716e65b85b92033cd059771d3257df9ed852181211e8b43232e6aa46fb2e6d0248e34c894369e3e5e274d1819bae80300000000000080a500cc5db0d14e5a8cf9f048de2cccd8810ab9072c8c6dbc9820b43788489b432404dfad3305402a3a4d10696e1491267f000000000000000000870120fe1b933863e1485c2426045300a40d2353f169e2e78719010000000000008004606ec1edcd98e6165b5a707b43c5a58a1d2ab86bc3c5666273862828368b4e1b4aa501a1742054fc5d2c5c797f24a9b88b1b498f25084305f7e5ef75000000000000000080e500a4340f8d4a9336d262ceb8402c9910922681c4a49273ebe45ce401000000000000401f80d282c7b2d6004ee9c10a738b2d297a6c00a7eb00c9b800bca127b19834903427bf36277fa649a7e92270a8e0b1000000000000000000eb018892620027067f6262c8ed03c939d022169fc60053ba1904000000000000005300e416fb4866d62eb6f490a5358bcdb989d34cba18bcb127695389b1c4c5640c24a549a1f14dd501ba7d05ff76240000000000000000c0fa00e206ceb50b244148934d6360e8ec2a000000000000005002a03d5033b7d8d282d72a36b7e0258a2d5988913b51632867d739af4efcfc644fde1e090000000000000000707400449ecc0c00000000000000f401282dba7400274dc0d8d7004e69d1fb2e36b7e03490f376663eeb0900000000000000000000000000000000db0230b5e0dc0d16d61ac059abd8a91b2d2c3d80935bf0673303000000000000000000000000000000c0b6004c2d78ed62730b3e94091abb1ec0999be7ea0000000000000000000000000000000000c0216cb8785401a482e72ed800000000000000000000000000000000008035001cd2c10abb5cb0b156b18756f05800000000000000000000000000000000d81680ad6fc8d03e4061a962d72af8b9c2bc3e1200000000000000000000000000000000b60560ad62730bded5048ddc1c95019cd7170a00000000000000000000000000000000db067054365e5cabd8a332803335bf6c05000000000000000000000000000000806d0138f485188a9d57f05800000000000000000000000000000000d81680b9051fca048dad0de02c15000000000000000000000000000000003605e07f96c91f1fec51b0590000000049454e44ae42608268",
        "c0d9d5fe36d8803db8128f86b63dcb9890b6e01a52445f96828580ea1e1972a312"
      ],
      "is_coinbase": false,
      "sequence": 4294967293
    }
  ],
  "vout": [
    {
      "scriptpubkey": "5120a8ab65bf1cf1533de3ca032937893240c1e4da8dcb26c15c8cff6fb9d28f9687",
      "scriptpubkey_asm": "OP_PUSHNUM_1 OP_PUSHBYTES_32 a8ab65bf1cf1533de3ca032937893240c1e4da8dcb26c15c8cff6fb9d28f9687",
      "scriptpubkey_type": "v1_p2tr",
      "scriptpubkey_address": "bc1p4z4kt0cu79fnmc72qv5n0zfjgrq7fk5devnvzhyvlahmn550j6rs9enamj",
      "value": 550
    }
  ],
  "size": 4386,
  "weight": 4668,
  "fee": 12782,
  "status": {
    "confirmed": true,
    "block_height": 834464,
    "block_hash": "0000000000000000000177a0869a911a2b65c9bdcd5a8bcb02b68f305bee848e",
    "block_time": 1710308296
  },
  "hex": "0200000000010125bfcc5c22bf1a49d06b3d57167d0b925bacdc5b4ebf0c07ed66579cce4acdf50000000000fdffffff012602000000000000225120a8ab65bf1cf1533de3ca032937893240c1e4da8dcb26c15c8cff6fb9d28f968703403ea8b296edc51a4ba214c61b568313486235ec463d2a568b1531fc9c8497eaaa9341fc5501885f21d2cfff908c2840ce4a39ba1750937d67e5b51cf35ca995d2fd5b1020d9d5fe36d8803db8128f86b63dcb9890b6e01a52445f96828580ea1e1972a312ac0063036f7264010109696d6167652f706e67004d080289504e470d0a1a0a0000000d4948445200000200000002000803000000c3a624c80000000467414d410000b18f0bfc610500000180504c5445aa7f424d237e28183c411c69504f545c1c153c1c6054381d916d0bbdbcb9582b8d563a824b2578e1582e160d2330174d140a02544675383733986e02221005515765241c072d2a2913090f5b6a6d251936331c50582690492179df002ceec37cffc03debeae68d8c88bf8302af3a00bd6340f5e5be430300a95636760e00eca3004b4b47cdfff87d5801d68a00ffc4002b1100371d00d75b00ea7f00b66700ffed9bf08f00feb800b7a200c3fff5feea69e261005d97545c875df2de22ffff005b3a8a5b7b64140019b9fef20101005c5c765c5e755c7e63ffffff5b2d915bb746aefeef2a1b4053f9d25c6e6c4ac9692a1b4133f8c940d580a4fdec5c8d5a5d9e501a0d243cda895b2c9125f2b95dad479afde934f8ca37de92493706fca90324f3bb5b3d8817061e52f9d28ffce55c4c7f56bd524fc45e23193346ce74fff2c285fce27bfbdf71fbdc58238f48217550228266fad9321c4d391e5a2cebaa411f6831e49e28efb25cfad521f6c228f7c63df8cc47f9cf1c1429a87c04f9c12004e7aed30000001b74524e53bfe2e0d1c5c3e7d0e8f2f7f3dbfdcdc9feecfef9f7e6f0fde5fec3ce20fb2100000e114944415478daeddde7b324551d066004054440a2840f0650a2247759714104254d08028bac22596409c2022a60000445fe75fb47f5b1ba9a0ee77498994b3fef17eececece9d99f7a1aaebf40967fd78243f2bccaf32f3ebc2fc3e337fc8cc9f0af3e7c2fc25337fcdccdf0af3afcc9c05000000000000000000000000000000c0a6002c5d6c69c14b175b5af05ac5e616bc56b1296f8c04000000000000000000000000000000806d0158abd8dc82d72af6ab3e80f34661fed31300000000000000000000000000000000b60d60e9019cb5266aec7b00a7b4e0a50770c68aedcbbf5b0100000000000080ad01b8a7ce2f1a395d270740d7bf6fbf0e0000000000000000000000000000000000000000000000000000001c0280a3be2143e94d9e7671ef36727f9d5460d7cd9ea17fdff73a91a52772e416dc97dfd501000000000000000000000000000000605b00e6167c280b357227731eaf938ab9bf23cd819cf6004d0ea02e00bb2ab65d705f3ead03000000000000000000000000000000c0b600ec6ba2c65a8b3573176db621740dda744dd0c801d4056057c5a6bc5ce7d39100000000000000000000000000000000b02d004765c3c5b5365e9c3a41630850b3f4b50afe34339f8c04000000000000000000000000000000806d0138944d97d7da7cf93723993a51230740b3d89733935bf0278579b5270000000000000000401980d28b3b00000000000000387400476500a7b4e0b516622c5d6c69d1af66e6c53a1fb70200004d08020000000000007c19c03d8df46d08dd0c000000000000001c2500bb3a3c79eac1096305afb9d142298025276ae416fc622b1f67e69f750000000000000000802f17df752054da10ea649d2e08000000000000000000007301a46273077c00000000000000000000000000000000006008c0be0a4e1335f675b3a7bda162335d00da87439eec4813406eb163292db65df05800000000000000000000000000000000d81680b50670962e78ea868b638b36bb0669ba36803a9991f4dc9ca2d72e36e5a39100000000000000000000000000000000b02d006b159b5bf05ac5e61e9cd83551636823e8bed29b99b250a3b4e08f160a00000000000000000000000000000000db06507a80e25a052f7570e2d40316a2bce38d9ccec82e0770a6e68fad00000000000000000000000000000000b02d00730f58d8f7e14a4b1da0d8b5016329807d16db57705f9eaf030000000000000000e41db274a8177700000000000000500a606ec1fb3e3c79ea010bfb5a88b176b1ed82fbf2741d00000000000000d81a8057eafc77cf01000000000000807d01985bf0d4891afb1ec03914004b17db2e782c0000000000000000000000000000000000b08b0d19a62cd458f200450000000000000000000000000000000000d82280b18d18e66cb85852ec9207289694fbf99ed3f59e962cf89d9100000000000000000000000000000000b02d00bbd87031a7d8d24d080283148716687e1500cc2d3637000000000000000000000000000000006c1bc03e07704a36676a6e9ed057f8e747345d28962afc542b000000000000000000000000000000006c0bc0dc82972e76caa6cb00f417dc97337500000000000000000000000000000000d81680a50e579a7ac8120079004e15e64c6600000000000000600e80be029a855e5567e839390086267c7efe150900000000000000ec02c09a0b317200941e9cb8750067160e00000000000000000000000000000000db02b0c48d9bbe529a05f601283d3061ab00a616fcd64800000000000000606ed95d057401c8f9b000000000000000000000870ae0b19e3c54e7fe569606900a9c0b01000000000000000000000000000000806d0398ba10b30f402aae04c0d081895b05d02e2e77a0a79d275a01000000000000000000000000000000605b003e2accd205941e9c785400b4b33480dc82db79a9150000000000000000000000000000000000680ee0ac3d21a3eb759a85b70f443874007d99fb9d3c91999732f36c1d00000000000000000000000000000000b605606c53a6b52764941e92b87500a5058f05000000000000000000000000000000806d0178be30001c2d00f78d040000000000000000000000000000000000bab2d6c28caed7393590ad1e18515a6cca33757ede1300000000000000c80550b26033e7c3b52ff2fa1affaa960d00000000000000fb02f04d080274614a0667723edca9b100f0454a8b6de7d13a0fb602000000000000000000000000000000c0b601bc33216b00f8ff8987007c91677af268619e6a05000000000000000000000000000000806d0178676686266a4efdb04761c2e7bb2ba6ebf34f2db82f0fd7010000000000000000000000000000000080c1851a050b3601580ec0538549053f321200000000000000000000000000000000b605e05466ce14e4503672caf9b2a74ed2282df5a63a17d5f9519dd2b2738b4d797324000000000000000000000000000000006c0bc099c2bc951100fa01a4e21384aeefe8e181e416dbce6b3d01000000000000000000000000000000000000f60b200a1e42706d9db3eac4cf63001ee809000000000000002c09a014c53e3367a26a49a2fcf3aa7ca3956b27e4a13a3fad724795f8f9d22a000000000000003007c05b0be7893a00dc7453141e65dd5ae59b3db9aeca4323b9bdce5d752eac920676fa8a7ebcce0bad000000000000000000eb01888bbfababdc56e5962aa7ab0c0d3ac5736e6fe596466eae724995abeb346fee00000000000000402e80b9c5e6668b00ceaf1300e262edf22a77d4395ee5e68edc5325fe6df3a22fca3e5125205c5fe5e23a5d45bf3092f75a0100000000000080b501bc549867ebdc3792f6214a7d872797008c4395d362cc6b5a197a9df6448e74e3262efea2f4b8791325261c5faf927b03e8c63af17a0f0c4d08020400000000000000e60258bbd8dc3c5398be83144a00343764686fb8300620265fa462e3e22fca8f0bb73479232e04a3c478ce0faabc96996f37920675128ec71b792f331fd4010000000000000000960310833451721af849e5078418108af263f247098066c96920280d14a53f5f5005000000000000007201ecabe0a58acd3d38b104c0d0868b43af939e9306809a377fe2e7b8a9d3bc008c3c9e99545c949c8abfa14aa0baa44e9a20f2b52a1f6406000000000000000e1dc08399b9a627a9b8cb337265472ead935ee7fc8ec485582a39013859e5b12a69c147ba004c89b22e2cc83955e277dc59256e2c05a280109b50c48293cbaa9c5307000000000000008600ec6a00272665c405ca7732724595a1c7af6a64ecb5ae1ac96533f34a4762b0274a8a1b41dfab9200dc3a31edc5a131793426950680bbabc484d1586c12bf2730c4f714cf8b8bd173abbc3f1000000000000000d80580b4b1d1587e52251641361f8bc194783cbed0b8e049173edfafd2f73af177f19cbb574c2c24b9a3956355d204ce287ece7b888bc8db5af9619de6a2d1f8bcf1dcf8f9ba3af1dc3469a40f02000000000000db05b0ab091a3148135fc8893af1864f74243e407cb8f812bb1e0f04270672bace8909393690f47e8f8d249e13efb109205da81d9b98bef7796f9df87df1e7f8dcf13ee36230fe47893fc70569bc8f984cfa61470000000000000060574d080200d29b8e0f726f4f62a0233e54fbf174f173ef40da5fce52c979cdf49ee33dc6cd9af8bc7193282e14138c25937e67429f2e7e63802a7e7f0c0845f17101f8614f00000000000000a0b4e0470b139332e20bb92b2377d6c979fcce8572c502b9a491b431447351683cdebed175f584a40da59aa547aeaf939ed775e1f78f5600000000000000601700ae5c309716e65b85b92033cd059771d3257df9ed852181211e8b43232e6aa46fb2e6d0248e34c894369e3e5e274d1819bae80300000000000080a500cc5db0d14e5a8cf9f048de2cccd8810ab9072c8c6dbc9820b43788489b432404dfad3305402a3a4d10696e1491267f000000000000000000870120fe1b933863e1485c2426045300a40d2353f169e2e78719010000000000008004606ec1edcd98e6165b5a707b43c5a58a1d2ab86bc3c5666273862828368b4e1b4aa501a1742054fc5d2c5c797f24a9b88b1b498f25084305f7e5ef75000000000000000080e500a4340f8d4a9336d262ceb8402c9910922681c4a49273ebe45ce401000000000000401f80d282c7b2d6004ee9c10a738b2d297a6c00a7eb00c9b800bca127b19834903427bf36277fa649a7e92270a8e0b1000000000000000000eb018892620027067f6262c8ed03c939d022169fc60053ba1904000000000000005300e416fb4866d62eb6f490a5358bcdb989d34cba18bcb127695389b1c4c5640c24a549a1f14dd501ba7d05ff76240000000000000000c0fa00e206ceb50b244148934d6360e8ec2a000000000000005002a03d5033b7d8d282d72a36b7e0258a2d5988913b51632867d739af4efcfc644fde1e090000000000000000707400449ecc0c00000000000000f401282dba7400274dc0d8d7004e69d1fb2e36b7e03490f376663eeb0900000000000000000000000000000000db0230b5e0dc0d16d61ac059abd8a91b2d2c3d80935bf0673303000000000000000000000000000000c0b6004c2d78ed62730b3e94091abb1ec0999be7ea0000000000000000000000000000000000c0216cb8785401a482e72ed800000000000000000000000000000000008035001cd2c10abb5cb0b156b18756f05800000000000000000000000000000000d81680ad6fc8d03e4061a962d72af8b9c2bc3e1200000000000000000000000000000000b60560ad62730bded5048ddc1c95019cd7170a00000000000000000000000000000000db067054365e5cabd8a332803335bf6c05000000000000000000000000000000806d0138f485188a9d57f05800000000000000000000000000000000d81680b9051fca048dad0de02c15000000000000000000000000000000003605e07f96c91f1fec51b0590000000049454e44ae4260826821c0d9d5fe36d8803db8128f86b63dcb9890b6e01a52445f96828580ea1e1972a31200000000"
}