{
  "txid": "f723aa596c0a174051b62b633c88f3b1c21b4ab0d604561031a01b68efd8f700",
  "version": 2,
  "locktime": 0,
  "vin": [
    {
      "txid": "8486ecb4df0880316dd6e82b3971b4df187aff23765bc3a47f8d78bb53aa273c",
      "vout": 129,
      "prevout": {
        "scriptpubkey": "512096ba17a5d83c685ab347fbd33dc468e37286d1fadc1a30c18b8ec775bc8484ef",
        "scriptpubkey_asm": "OP_PUSHNUM_1 OP_PUSHBYTES_32 96ba17a5d83c685ab347fbd33dc468e37286d1fadc1a30c18b8ec775bc8484ef",
        "scriptpubkey_type": "v1_p2tr",
        "scriptpubkey_address": "bc1pj6ap0fwc83594v68l0fnm3rgudegd506msdrpsvt3mrht0yysnhsf9p7f5",
        "value": 2575
      },
      "scriptsig": "",
      "scriptsig_asm": "",
      "witness": [
        "b746de233f6058fb36e3ba7321f3aef03637fa82f10237b31b97f95faeab4ee5a475bf08a453ad61a0fca44121050fa4c8ef2dd2dfbf983da39f3967fd5b75d9",
        "206852bcad32ca1bea6111a75d0933a4bf4a6ce9a37980fb2f87a34785e2361615ac0063036f726401010a746578742f706c61696e00367b2270223a226272632d3230222c226f70223a226d696e74222c227469636b223a2261616161222c22616d74223a223130303030227d68",
        "c16852bcad32ca1bea6111a75d0933a4bf4a6ce9a37980fb2f87a34785e2361615"
      ],
      "is_coinbase": false,
      "sequence": 4261412863
    }
  ],
  "vout": [
    {
      "scriptpubkey": "0014ddd7ef12ea6f78edcc1e8e7afa12c01ab59f3339",
      "scriptpubkey_asm": "OP_0 OP_PUSHBYTES_20 ddd7ef12ea6f78edcc1e8e7afa12c01ab59f3339",
      "scriptpubkey_type": "v0_p2wpkh",
      "scriptpubkey_address": "bc1qmht77yh2dauwmnq73ea05ykqr26e7veea8spz6",
      "value": 546
    }
  ],
  "size": 295,
  "weight": 541,
  "fee": 2029,
  "status": {
    "confirmed": true,
    "block_height": 834460,
    "block_hash": "00000000000000000000484a79b643b2524bbce82e5d8a442013fa5b8905ed98",
    "block_time": 1710307468
  },
  "hex": "020000000001013c27aa53bb788d7fa4c35b7623ff7a18dfb471392be8d66d318008dfb4ec86848100000000fffffffd012202000000000000160014ddd7ef12ea6f78edcc1e8e7afa12c01ab59f33390340b746de233f6058fb36e3ba7321f3aef03637fa82f10237b31b97f95faeab4ee5a475bf08a453ad61a0fca44121050fa4c8ef2dd2dfbf983da39f3967fd5b75d96e206852bcad32ca1bea6111a75d0933a4bf4a6ce9a37980fb2f87a34785e2361615ac0063036f726401010a746578742f706c61696e00367b2270223a226272632d3230222c226f70223a226d696e74222c227469636b223a2261616161222c22616d74223a223130303030227d6821c16852bcad32ca1bea6111a75d0933a4bf4a6ce9a37980fb2f87a34785e236161500000000"
}