{
  "txid": "f733baceb57ec43f38a18dba735039c67a40983091bb87afd6ae307cba6e3b9e",
  "version": 2,
  "locktime": 0,
  "vin": [
    {
      "txid": "731b7a70c1f70bb644b84e1f1beafc757aacf9d93df0f7cdbfcb76060b805182",
      "vout": 0,
      "prevout": {
        "scriptpubkey": "5120f238279216b708adf12974c9b71b939aefa144fbde63e663f4bb5028763d4370",
        "scriptpubkey_asm": "OP_PUSHNUM_1 OP_PUSHBYTES_32 f238279216b708adf12974c9b71b939aefa144fbde63e663f4bb5028763d4370",
        "scriptpubkey_type": "v1_p2tr",
        "scriptpubkey_address": "bc1p7guz0yskkuy2muffwnymwxunnth6z38mme37vcl5hdgzsa3agdcq7whkep",
        "value": 19504
      },
      "scriptsig": "",
      "scriptsig_asm": "",
      "witness": [
        "dd91d4bc0c00386fc1ca4ff77e40a559c2005a036253351c2bcf2da9c20d8360cacbbcc853fe58a5ee1c2a87f4863778a6bf6f7faa2f7c07863b7fa9d160432f",
        "20f2d00e1cce0b839d2e197679cac7a15152ec244338032c7767f72c1332d49a65ac0063036f7264010109696d6167652f706e67004d080289504e470d0a1a0a0000000d4948445200000118000001180803000000b05019be000000017352474200aece1ce90000000467414d410000b18f0bfc610500000150504c5445ff7b00e56600d85900ed5c00f65d00ae2f00811100901400c81b00f02200e72000d71c00ea2100da1d00e43b007f0f008f14009531006c0f00721000b41800e01e00c138005c0c00610e007b1100a21700a71a009d1500490a005328000000000f00001a0800310f00f8750193693d635e5c69615b92675bb7776bd18477af8576807877cb8377d04900d9a87cc9c0bac8bfbae8ddd9fff3f0f9cba4d9a77bc6beb9c6bdb7e8dbd7fff0ede4d5c4fae5d0f0ce93d9c5a6efce94edd096f3b364f2d096f1d4a1d2b583ebce9bf2bf79ff8513ed7100e6e0dafdf9f214120f1a191633291ed5d1caffefe0fff1e2e4e2e1ffffff5b5a59d1d1d1eda454d0b196fc800cf0c07aecd198f8e8caf7e6c976664978674af2d298e4c68bca9852bb9b60c2b29bc7954fc0a984c8a86dbfa983bb9a5fe38827c8954ec4b6a6cfa372e9851ff58e2fe8964bddd2cdffab62ffdbc3b77b6933000000097048597300000ec300000ec301c76fa8640000045249444154785eeddded5714651880f1d51251a2103012cc520c12cade5cd3404d43cc97b2128dac542aa9ecedffff16e7749fceae33d7cc733a4f3bb372fd3ef2dc9c99fbdafd00ec1eb693e8ea5fef9f6bc28767b34d0802ea6edc8d8572310c300c300c300c300c300c300c300c300c300c300c300c300c300c300c300c300c300c300c300c300c300c300c300c300c300c300c300c300c300c300c300c300c300c300c300c300c300c300c300c300c300c300c300c300c300c300c300c687d986e9aec613a77fe4cb3fa4756b762ef1add8ddfd3fc16eb0cde996edceb4075cfc4e5dbcb30c030c030c030c030c030e074fc2495492c5ea7c1304fb69fa4d8fef55156bfc4e6351a0cf3f3c3c7491e66f5f887d8bc468361b6e25607cb30c030c030c030c030c030c030c030c030c030c030c030c030c030c030c030c030c030c030c030c030c030c030c030c030c030c030c0302039cc95ed44b14e3e2d0ff328bea1ce56ac938f618061806180618061806180618061c056e2db5933fb2936afd16098073f36a2f5cf98bb6b171ab11a9bd7d87561560c53ce30c030c030c030c030c030207b9807b14f362d0f7376f5fb346bb9ffe945ebc35cb898e4deee0b93c430c030c030c030c030e07f0873efbb8f2bc475410c81182ad7fa30f327ef7f8bee2f5edefc066dae2e567def528c95da3c1f8bd7692cccfa89d72adcb8fd4585afaec758a92f63aadced58bc8e6180618061806180618061806180618061c06afc85aec6d7bb2d4c77e3529a3bb14f366d0fd3d85be60d030c030c030c030c030c030c03d68f1daf70f3fce79f85739f16dcba79835d5f88a972d7624d0802f31acd85e9acefa9b07ef55f6b970b3eb95229a6ca25be4ad060985497e2d7b55ef13a49b995182a95fabad29086f9ef0c030c030c030c030c039ea5301763a72c9ea1302b1f6595f86e872108f341de0fc14bfc703bc300c300c300c300c300c300c300c380a10893d57bef9678a7e8745c7ee0e6f7be9d667161f9290bcb6f9daab0b433f09485e5a5383cf5e6628985370a4ec67d0edcfcbed924474b5e6639be3f0e4b4dc6549fc9389c1d9979a560e6f598ea712cee73e052c3cce60e13317a19668761fa19c630c830c030c030c030c030c030c030c030c030c030c03060e8c3cca5290b7334b62c333715537da6e6e2782262f46a55984ebc71b5d6a1230513a355a663aacf741c8ecec5177a4dbd5a74286eb3bd5e8e87bac7f45885f1d198ea333a1ea7d323454726e3a9d36328c3ccfdb324280f1387638961660cb3c3303b0cd3cf30864186018601860186018601860186018601860186018601bb264cf10fbcd9c3448d1ec31066ba68bcc2e1b118ea3376384ecbc28c4c4d16b43fcc8bf150f7187fe140858331d5e7601c1e189dd85f30117d7abcb42f2edf5e860186018601860186018601860186018601860186018601860186018601860186018601b9c3448c3e51a357fbc33c9fd7737bd3ec89cb4b9224499224499224499224499224499224499224499224b547a7f33702de7d54e66423c40000000049454e44ae42600182680063036f726401011e6170706c69636174696f6e2f6a736f6e3b636861727365743d7574662d38004d68017b2270223a22766f7264222c2276223a312c227479223a22696e7363222c22636f6c223a2261643262353365623665333264663466633139386133626262306662663638666637336432666432323832323163313136373630306533316337613163343836222c22696964223a22557073696465646f776e204e6f64654d6f6e6b6573222c227075626c223a2231455337623370636a527a4667796969714c7278484b546e43686535364c4a485937222c226e6f6e6365223a3236382c226d696e746572223a2262633170393263387838733230327432303474397835396e646772723537636b36656e71326361706a653074657664706d703376763661716d6a6d336c77222c22736967223a22484a6b4848487936714d71766d376143413757637962722f516d4d7958744c2b6b5830596a4d68367047746a5349767561754e414b5456586c3571466b7a334835636f68742b59554b3247444c6732454673472b4630493d227d68",
        "c0f2d00e1cce0b839d2e197679cac7a15152ec244338032c7767f72c1332d49a65675a92934efa5e4869b2432a3e00abfc6819367af43949c2edc693b32d23ac05"
      ],
      "is_coinbase": false,
      "sequence": 4294967293
    }
  ],
  "vout": [
    {
      "scriptpubkey": "51202ab0731e0a7a96a7d565350b36a063a7b16d6660563a1965ebcb1a1d862c66ba",
      "scriptpubkey_asm": "OP_PUSHNUM_1 OP_PUSHBYTES_32 2ab0731e0a7a96a7d565350b36a063a7b16d6660563a1965ebcb1a1d862c66ba",
      "scriptpubkey_type": "v1_p2tr",
      "scriptpubkey_address": "bc1p92c8x8s202t204t9x59ndgrr57ck6enq2capje0tevdpmp3vv6aqmjm3lw",
      "value": 1000
    },
    {
      "scriptpubkey": "5120f62171bf126320eed697da59179bb0a31c00c0460a1a69c591c3c0d0f8f5038f",
      "scriptpubkey_asm": "OP_PUSHNUM_1 OP_PUSHBYTES_32 f62171bf126320eed697da59179bb0a31c00c0460a1a69c591c3c0d0f8f5038f",
      "scriptpubkey_type": "v1_p2tr",
      "scriptpubkey_address": "bc1p7cshr0cjvvswa45hmfv30xas5vwqpszxpgdxn3v3c0qdp784qw8szjtge2",
      "value": 7633
    },
    {
      "scriptpubkey": "51200705a5767db892e98125775049b1a13dd9ecdc8aea0df413cabbee683e871012",
      "scriptpubkey_asm": "OP_PUSHNUM_1 OP_PUSHBYTES_32 0705a5767db892e98125775049b1a13dd9ecdc8aea0df413cabbee683e871012",
      "scriptpubkey_type": "v1_p2tr",
      "scriptpubkey_address": "bc1pquz62anahzfwnqf9wagynvdp8hv7ehy2agxlgy72h0hxs058zqfqk8ksyq",
      "value": 2929
    }
  ],
  "size": 2346,
  "weight": 2886,
  "fee": 7942,
  "status": {
    "confirmed": true,
    "block_height": 834464,
    "block_hash": "0000000000000000000177a0869a911a2b65c9bdcd5a8bcb02b68f305bee848e",
    "block_time": 1710308296
  },
  "hex": "020000000001018251800b0676cbbfcdf7f03dd9f9ac7a75fcea1b1f4eb844b60bf7c1707a1b730000000000fdffffff03e8030000000000002251202ab0731e0a7a96a7d565350b36a063a7b16d6660563a1965ebcb1a1d862c66bad11d000000000000225120f62171bf126320eed697da59179bb0a31c00c0460a1a69c591c3c0d0f8f5038f710b0000000000002251200705a5767db892e98125775049b1a13dd9ecdc8aea0df413cabbee683e8710120340dd91d4bc0c00386fc1ca4ff77e40a559c2005a036253351c2bcf2da9c20d8360cacbbcc853fe58a5ee1c2a87f4863778a6bf6f7faa2f7c07863b7fa9d160432ffded0720f2d00e1cce0b839d2e197679cac7a15152ec244338032c7767f72c1332d49a65ac0063036f7264010109696d6167652f706e67004d080289504e470d0a1a0a0000000d4948445200000118000001180803000000b05019be000000017352474200aece1ce90000000467414d410000b18f0bfc610500000150504c5445ff7b00e56600d85900ed5c00f65d00ae2f00811100901400c81b00f02200e72000d71c00ea2100da1d00e43b007f0f008f14009531006c0f00721000b41800e01e00c138005c0c00610e007b1100a21700a71a009d1500490a005328000000000f00001a0800310f00f8750193693d635e5c69615b92675bb7776bd18477af8576807877cb8377d04900d9a87cc9c0bac8bfbae8ddd9fff3f0f9cba4d9a77bc6beb9c6bdb7e8dbd7fff0ede4d5c4fae5d0f0ce93d9c5a6efce94edd096f3b364f2d096f1d4a1d2b583ebce9bf2bf79ff8513ed7100e6e0dafdf9f214120f1a191633291ed5d1caffefe0fff1e2e4e2e1ffffff5b5a59d1d1d1eda454d0b196fc800cf0c07aecd198f8e8caf7e6c976664978674af2d298e4c68bca9852bb9b60c2b29bc7954fc0a984c8a86dbfa983bb9a5fe38827c8954ec4b6a6cfa372e9851ff58e2fe8964bddd2cdffab62ffdbc3b77b6933000000097048597300000ec300000ec301c76fa8640000045249444154785eeddded5714651880f1d51251a2103012cc520c12cade5cd3404d43cc97b2128dac542aa9ecedffff16e7749fceae33d7cc733a4f3bb372fd3ef2dc9c99fbdafd00ec1eb693e8ea5fef9f6bc28767b34d0802ea6edc8d8572310c300c300c300c300c300c300c300c300c300c300c300c300c300c300c300c300c300c300c300c300c300c300c300c300c300c300c300c300c300c300c300c300c300c300c300c300c300c300c300c300c300c300c300c300c300c300c300c687d986e9aec613a77fe4cb3fa4756b762ef1add8ddfd3fc16eb0cde996edceb4075cfc4e5dbcb30c030c030c030c030c030e074fc2495492c5ea7c1304fb69fa4d8fef55156bfc4e6351a0cf3f3c3c7491e66f5f887d8bc468361b6e25607cb30c030c030c030c030c030c030c030c030c030c030c030c030c030c030c030c030c030c030c030c030c030c030c030c030c030c030c0302039cc95ed44b14e3e2d0ff328bea1ce56ac938f618061806180618061806180618061c056e2db5933fb2936afd16098073f36a2f5cf98bb6b171ab11a9bd7d87561560c53ce30c030c030c030c030c030207b9807b14f362d0f7376f5fb346bb9ffe945ebc35cb898e4deee0b93c430c030c030c030c030e07f0873efbb8f2bc475410c81182ad7fa30f327ef7f8bee2f5edefc066dae2e567def528c95da3c1f8bd7692cccfa89d72adcb8fd4585afaec758a92f63aadced58bc8e6180618061806180618061806180618061c06afc85aec6d7bb2d4c77e3529a3bb14f366d0fd3d85be60d030c030c030c030c030c030c03d68f1daf70f3fce79f85739f16dcba79835d5f88a972d7624d0802f31acd85e9acefa9b07ef55f6b970b3eb95229a6ca25be4ad060985497e2d7b55ef13a49b995182a95fabad29086f9ef0c030c030c030c030c039ea5301763a72c9ea1302b1f6595f86e872108f341de0fc14bfc703bc300c300c300c300c300c300c300c380a10893d57bef9678a7e8745c7ee0e6f7be9d667161f9290bcb6f9daab0b433f09485e5a5383cf5e6628985370a4ec67d0edcfcbed924474b5e6639be3f0e4b4dc6549fc9389c1d9979a560e6f598ea712cee73e052c3cce60e13317a19668761fa19c630c830c030c030c030c030c030c030c030c030c030c03060e8c3cca5290b7334b62c333715537da6e6e2782262f46a55984ebc71b5d6a1230513a355a663aacf741c8ecec5177a4dbd5a74286eb3bd5e8e87bac7f45885f1d198ea333a1ea7d323454726e3a9d36328c3ccfdb324280f1387638961660cb3c3303b0cd3cf30864186018601860186018601860186018601860186018601bb264cf10fbcd9c3448d1ec31066ba68bcc2e1b118ea3376384ecbc28c4c4d16b43fcc8bf150f7187fe140858331d5e7601c1e189dd85f30117d7abcb42f2edf5e860186018601860186018601860186018601860186018601860186018601860186018601b9c3448c3e51a357fbc33c9fd7737bd3ec89cb4b9224499224499224499224499224499224499224499224b547a7f33702de7d54e66423c40000000049454e44ae42600182680063036f726401011e6170706c69636174696f6e2f6a736f6e3b636861727365743d7574662d38004d68017b2270223a22766f7264222c2276223a312c227479223a22696e7363222c22636f6c223a2261643262353365623665333264663466633139386133626262306662663638666637336432666432323832323163313136373630306533316337613163343836222c22696964223a22557073696465646f776e204e6f64654d6f6e6b6573222c227075626c223a2231455337623370636a527a4667796969714c7278484b546e43686535364c4a485937222c226e6f6e6365223a3236382c226d696e746572223a2262633170393263387838733230327432303474397835396e646772723537636b36656e71326361706a653074657664706d703376763661716d6a6d336c77222c22736967223a22484a6b4848487936714d71766d376143413757637962722f516d4d7958744c2b6b5830596a4d68367047746a5349767561754e414b5456586c3571466b7a334835636f68742b59554b3247444c6732454673472b4630493d227d6841c0f2d00e1cce0b839d2e197679cac7a15152ec244338032c7767f72c1332d49a65675a92934efa5e4869b2432a3e00abfc6819367af43949c2edc693b32d23ac0500000000"
}