{
  "txid": "f76c2690fe2a61749face27bf143e74a4d334fd201a91c579e96c6388354b544",
  "version": 2,
  "locktime": 0,
  "vin": [
    {
      "txid": "4f3836c12fd1c9fd8d4522b0916dde72494b89cd0908dd4d91bdebecd98c1be2",
      "vout": 0,
      "prevout": {
        "scriptpubkey": "512095cdc92066ba85b1cfc0e60f08ce06d12a27b43036cf5fc233832519f2b9884d",
        "scriptpubkey_asm": "OP_PUSHNUM_1 OP_PUSHBYTES_32 95cdc92066ba85b1cfc0e60f08ce06d12a27b43036cf5fc233832519f2b9884d",
        "scriptpubkey_type": "v1_p2tr",
        "scriptpubkey_address": "bc1pjhxujgrxh2zmrn7quc8s3nsx6y4z0dpsxm84ls3nsvj3nu4e3pxscv9d6s",
        "value": 2856
      },
      "scriptsig": "",
      "scriptsig_asm": "",
      "witness": [
        "53ef725e4fb0d33648c02be7ba3583307824608d5d9b800f349c88f31f1245f8efed98c302b76ed168ab17f301684135492fc636f9d0962035049ec68affa49e",
        "20a218c8c617ceac6ddaf7cad1d74c33079533c3d67bad4c37035684b51a40e6c5ac0063036f7264010118746578742f706c61696e3b636861727365743d7574662d3800407b2270223a226272632d3230222c226f70223a227472616e73666572222c227469636b223a2273617478222c22616d74223a223630303030303030303030227d68",
        "c0a218c8c617ceac6ddaf7cad1d74c33079533c3d67bad4c37035684b51a40e6c5"
      ],
      "is_coinbase": false,
      "sequence": 4294967293
    }
  ],
  "vout": [
    {
      "scriptpubkey": "51209a73204aa6636c0ce234e97fbdab17a4c96daf041142d2e74262a9baf94e6cad",
      "scriptpubkey_asm": "OP_PUSHNUM_1 OP_PUSHBYTES_32 9a73204aa6636c0ce234e97fbdab17a4c96daf041142d2e74262a9baf94e6cad",
      "scriptpubkey_type": "v1_p2tr",
      "scriptpubkey_address": "bc1pnfejqj4xvdkqec35a9lmm2ch5nykmtcyz9pd9e6zv25m472wdjksvkm2sq",
      "value": 546
    }
  ],
  "size": 331,
  "weight": 613,
  "fee": 2310,
  "status": {
    "confirmed": true,
    "block_height": 834638,
    "block_hash": "000000000000000000025f742c626208ac87e0b7d15054abb4a19ca2d735a54e",
    "block_time": 1710405325
  },
  "hex": "02000000000101e21b8cd9ecebbd914ddd0809cd894b4972de6d91b022458dfdc9d12fc136384f0000000000fdffffff0122020000000000002251209a73204aa6636c0ce234e97fbdab17a4c96daf041142d2e74262a9baf94e6cad034053ef725e4fb0d33648c02be7ba3583307824608d5d9b800f349c88f31f1245f8efed98c302b76ed168ab17f301684135492fc636f9d0962035049ec68affa49e8620a218c8c617ceac6ddaf7cad1d74c33079533c3d67bad4c37035684b51a40e6c5ac0063036f7264010118746578742f706c61696e3b636861727365743d7574662d3800407b2270223a226272632d3230222c226f70223a227472616e73666572222c227469636b223a2273617478222c22616d74223a223630303030303030303030227d6821c0a218c8c617ceac6ddaf7cad1d74c33079533c3d67bad4c37035684b51a40e6c500000000"
}