{
  "txid": "f771abcc6c86ffe5a7d52ae1426e4f3350061a12434b265a220cb3b9bfac781d",
  "version": 2,
  "locktime": 834637,
  "vin": [
    {
      "txid": "133f18f98e56c2b303cc4230703f79114abe65b52867288cfdf005b7ab2c25a7",
      "vout": 0,
      "prevout": {
        "scriptpubkey": "001416df63bd00e3c946590143e67503101f1a33f7c8",
        "scriptpubkey_asm": "OP_0 OP_PUSHBYTES_20 16df63bd00e3c946590143e67503101f1a33f7c8",
        "scriptpubkey_type": "v0_p2wpkh",
        "scriptpubkey_address": "bc1qzm0k80gqu0y5vkgpg0n82qcsrudr8a7gt6c3a0",
        "value": 1371919
      },
      "scriptsig": "",
      "scriptsig_asm": "",
      "witness": [
        "3044022041759f1faae15298aa010ecf1cc59e2ec42f91affbdc4af1501cc3207ed59a1302207a46f156fef32b6eae1c2b8854b224dc32239b8ede32d17ffec1b5232a66306701",
        "02842335f39a2fbd5fba54688c497a5882a85fdc217f4dde958616dc33ecd7d8de"
      ],
      "is_coinbase": false,
      "sequence": 4294967294
    },
    {
      "txid": "19030b2277c6b90ae1f54f5747f092b41cdff4ad75c34d963e73ae9ac76f1142",
      "vout": 0,
      "prevout": {
        "scriptpubkey": "0014c6bd8f19b33df2b75ed701de7b96853a8cc7cf59",
        "scriptpubkey_asm": "OP_0 OP_PUSHBYTES_20 c6bd8f19b33df2b75ed701de7b96853a8cc7cf59",
        "scriptpubkey_type": "v0_p2wpkh",
        "scriptpubkey_address": "bc1qc67c7xdn8hetwhkhq808h95982xv0n6esqr233",
        "value": 345421
      },
      "scriptsig": "",
      "scriptsig_asm": "",
      "witness": [
        "30440220282eed9ed2aa0102e412f9dfe1b50414cc156644e2d44ee5e9144cfef8966f7f02200604aef787d3c656c5e171b3a011bcb9c565351c5c0d93210785d6514ce52ca401",
        "027cae30791dbe6e15e4ede60f148d5c81e62c6eae70aa78313287068dd81cccde"
      ],
      "is_coinbase": false,
      "sequence": 4294967294
    },
    {
      "txid": "cc27094dae369f47a2fd5b58c5260b01a48b23eb266a3b59e92595e56703237f",
      "vout": 0,
      "prevout": {
        "scriptpubkey": "0014ba9beac2a257902a901d46b1ff6acf4675248778",
        "scriptpubkey_asm": "OP_0 OP_PUSHBYTES_20 ba9beac2a257902a901d46b1ff6acf4675248778",
        "scriptpubkey_type": "v0_p2wpkh",
        "scriptpubkey_address": "bc1qh2d74s4z27gz4yqag6cl76k0ge6jfpmct7zz9e",
        "value": 127718
      },
      "scriptsig": "",
      "scriptsig_asm": "",
      "witness": [
        "3044022063427263b2d62f994434c3850ca7c25b098fbcb389d82095e8f85a4923a8947e02204035f81d051373b8408b56e20eb52b0e6a9d4b9be49dafe42ac3e3f8eac9695a01",
        "02439289c2df02067c8689476f1cbb2e5fae176e381462d71fe111a479defab7d9"
      ],
      "is_coinbase": false,
      "sequence": 4294967294
    }
  ],
  "vout": [
    {
      "scriptpubkey": "a914d58eda7e7ab260ac8b4689e80aec99fc382a19d687",
      "scriptpubkey_asm": "OP_HASH160 OP_PUSHBYTES_20 d58eda7e7ab260ac8b4689e80aec99fc382a19d6 OP_EQUAL",
      "scriptpubkey_type": "p2sh",
      "scriptpubkey_address": "3MACz3B5QKhFWH2t3joiQ36jmytbRhexrD",
      "value": 1837350
    }
  ],
  "size": 488,
  "weight": 983,
  "fee": 7708,
  "status": {
    "confirmed": true,
    "block_height": 834638,
    "block_hash": "000000000000000000025f742c626208ac87e0b7d15054abb4a19ca2d735a54e",
    "block_time": 1710405325
  },
  "hex": "02000000000103a7252cabb705f0fd8c286728b565be4a11793f703042cc03b3c2568ef9183f130000000000feffffff42116fc79aae733e964dc375adf4df1cb492f047574ff5e10ab9c677220b03190000000000feffffff7f230367e59525e9593b6a26eb238ba4010b26c5585bfda2479f36ae4d0927cc0000000000feffffff0126091c000000000017a914d58eda7e7ab260ac8b4689e80aec99fc382a19d68702473044022041759f1faae15298aa010ecf1cc59e2ec42f91affbdc4af1501cc3207ed59a1302207a46f156fef32b6eae1c2b8854b224dc32239b8ede32d17ffec1b5232a663067012102842335f39a2fbd5fba54688c497a5882a85fdc217f4dde958616dc33ecd7d8de024730440220282eed9ed2aa0102e412f9dfe1b50414cc156644e2d44ee5e9144cfef8966f7f02200604aef787d3c656c5e171b3a011bcb9c565351c5c0d93210785d6514ce52ca40121027cae30791dbe6e15e4ede60f148d5c81e62c6eae70aa78313287068dd81cccde02473044022063427263b2d62f994434c3850ca7c25b098fbcb389d82095e8f85a4923a8947e02204035f81d051373b8408b56e20eb52b0e6a9d4b9be49dafe42ac3e3f8eac9695a012102439289c2df02067c8689476f1cbb2e5fae176e381462d71fe111a479defab7d94dbc0c00"
}