{
  "txid": "f7717f073832af434ed4623dc485c325694e53a1eb443739276518c78ad32248",
  "version": 1,
  "locktime": 0,
  "vin": [
    {
      "txid": "fe346b17b50fe6bef59e820ddd7cf74ed8e731a9ed742790261a83f41c8b4916",
      "vout": 1,
      "prevout": {
        "scriptpubkey": "00147f4d5392f51024dfba638fc2d214760c65e2abcc",
        "scriptpubkey_asm": "OP_0 OP_PUSHBYTES_20 7f4d5392f51024dfba638fc2d214760c65e2abcc",
        "scriptpubkey_type": "v0_p2wpkh",
        "scriptpubkey_address": "bc1q0ax48yh4zqjdlwnr3lpdy9rkp3j7927v75ku9g",
        "value": 273259
      },
      "scriptsig": "",
      "scriptsig_asm": "",
      "witness": [
        "3045022100e2d8fafc228b00d6dc1e2c4334cb4ca72a4c9e7381f5277e33c0bd60ccdc6eb5022057ba6d82ba75dc3ecca79abfac39fa828f4930e34039451f8e029bd8ca63868101",
        "03f6700d0af6e6d138afa9b2edfb0da25c4556310d9086f01ef7356d3ee6e6285c"
      ],
      "is_coinbase": false,
      "sequence": 4294967293
    }
  ],
  "vout": [
    {
      "scriptpubkey": "001402ab8837f626dfab739953980f0a873aa83aa179",
      "scriptpubkey_asm": "OP_0 OP_PUSHBYTES_20 02ab8837f626dfab739953980f0a873aa83aa179",
      "scriptpubkey_type": "v0_p2wpkh",
      "scriptpubkey_address": "bc1qq24csdlkym06kuue2wvq7z58825r4gtekg69fa",
      "value": 188166
    },
    {
      "scriptpubkey": "a914e53a02f4ace3fdb3d189609f124ed92a8409947487",
      "scriptpubkey_asm": "OP_HASH160 OP_PUSHBYTES_20 e53a02f4ace3fdb3d189609f124ed92a84099474 OP_EQUAL",
      "scriptpubkey_type": "p2sh",
      "scriptpubkey_address": "3Nb4ABjGcaex26uBt8QZkkqU9XnxEXJxJ6",
      "value": 81685
    }
  ],
  "size": 224,
  "weight": 566,
  "fee": 3408,
  "status": {
    "confirmed": true,
    "block_height": 834638,
    "block_hash": "000000000000000000025f742c626208ac87e0b7d15054abb4a19ca2d735a54e",
    "block_time": 1710405325
  },
  "hex": "0100000000010116498b1cf4831a26902774eda931e7d84ef77cdd0d829ef5bee60fb5176b34fe0100000000fdffffff0206df02000000000016001402ab8837f626dfab739953980f0a873aa83aa179153f01000000000017a914e53a02f4ace3fdb3d189609f124ed92a840994748702483045022100e2d8fafc228b00d6dc1e2c4334cb4ca72a4c9e7381f5277e33c0bd60ccdc6eb5022057ba6d82ba75dc3ecca79abfac39fa828f4930e34039451f8e029bd8ca638681012103f6700d0af6e6d138afa9b2edfb0da25c4556310d9086f01ef7356d3ee6e6285c00000000"
}