{
  "txid": "f78506452b9582c177fefd3e3b3d08d247f6bb163f01e5827fba55e11e1dc153",
  "version": 2,
  "locktime": 0,
  "vin": [
    {
      "txid": "c10e48caeee8756d57fbce0e4f26c1d08bb9f0d4a35c2d26269682da8df04dac",
      "vout": 53,
      "prevout": {
        "scriptpubkey": "512069af91f5e50c3b870d4b288a8a74ff0d3da1d2c6a798676baa7f069bea20b792",
        "scriptpubkey_asm": "OP_PUSHNUM_1 OP_PUSHBYTES_32 69af91f5e50c3b870d4b288a8a74ff0d3da1d2c6a798676baa7f069bea20b792",
        "scriptpubkey_type": "v1_p2tr",
        "scriptpubkey_address": "bc1pdxhera09psacwr2t9z9g5a8lp576r5kx57vxw6a20urfh63qk7fqx95l6x",
        "value": 3634
      },
      "scriptsig": "",
      "scriptsig_asm": "",
      "witness": [
        "a42b0954971caf8442a4ddaa7d1512653b7a37ab966b8fff85ee83f376cef8c1d9c5e9cb99827d3a84dc27420ff05204d39251a1aa884c2e9a13c603dde561d9",
        "20ac58803fe33d2a770b183d9ef5fa38cbaadbbb1fa7aee7803b6ceb169f2e6203ac0063036f726401011e6170706c69636174696f6e2f6a736f6e3b636861727365743d7574662d38004cd37b2270223a22706f772d3230222c226f70223a226d696e74222c227469636b223a2250455045222c22616d74223a2231303030222c22736f6c7574696f6e223a22504550453a6263317071336e67663775716e73667434706d37357236397371616c6c30637068747278677773757a6d657864356c337039333566366d713666337664383a303030303030303030303030303030303030303139393431613561653132383937363539383134343239323533333030353762306461393666336465613163353a3630363731353831393531227d68",
        "c0406c0f2a67700582b42f36a71eb03478d57ba1acdc179ee1ec758acb282de3fd"
      ],
      "is_coinbase": false,
      "sequence": 4294967295
    }
  ],
  "vout": [
    {
      "scriptpubkey": "5120046684fb809c12ba877ea0f45803bffbf01bac6643a1c16f266d3f1096344eb6",
      "scriptpubkey_asm": "OP_PUSHNUM_1 OP_PUSHBYTES_32 046684fb809c12ba877ea0f45803bffbf01bac6643a1c16f266d3f1096344eb6",
      "scriptpubkey_type": "v1_p2tr",
      "scriptpubkey_address": "bc1pq3ngf7uqnsft4pm75r69sqall0cphtrxgwsuzmexd5l3p935f6mq6f3vd8",
      "value": 546
    }
  ],
  "size": 487,
  "weight": 769,
  "fee": 3088,
  "status": {
    "confirmed": true,
    "block_height": 834460,
    "block_hash": "00000000000000000000484a79b643b2524bbce82e5d8a442013fa5b8905ed98",
    "block_time": 1710307468
  },
  "hex": "02000000000101ac4df08dda829626262d5ca3d4f0b98bd0c1264f0ecefb576d75e8eeca480ec13500000000ffffffff012202000000000000225120046684fb809c12ba877ea0f45803bffbf01bac6643a1c16f266d3f1096344eb60340a42b0954971caf8442a4ddaa7d1512653b7a37ab966b8fff85ee83f376cef8c1d9c5e9cb99827d3a84dc27420ff05204d39251a1aa884c2e9a13c603dde561d9fd200120ac58803fe33d2a770b183d9ef5fa38cbaadbbb1fa7aee7803b6ceb169f2e6203ac0063036f726401011e6170706c69636174696f6e2f6a736f6e3b636861727365743d7574662d38004cd37b2270223a22706f772d3230222c226f70223a226d696e74222c227469636b223a2250455045222c22616d74223a2231303030222c22736f6c7574696f6e223a22504550453a6263317071336e67663775716e73667434706d37357236397371616c6c30637068747278677773757a6d657864356c337039333566366d713666337664383a303030303030303030303030303030303030303139393431613561653132383937363539383134343239323533333030353762306461393666336465613163353a3630363731353831393531227d6821c0406c0f2a67700582b42f36a71eb03478d57ba1acdc179ee1ec758acb282de3fd00000000"
}