{
  "txid": "f78c827099a5ebc612c5961ea844a23193229463ee792212a836585e28872856",
  "version": 2,
  "locktime": 0,
  "vin": [
    {
      "txid": "73efe1ff6aa9a5a829d2a9f5d64dbaa2170a49df284cd3a01f3075eef7aa59c7",
      "vout": 1,
      "prevout": {
        "scriptpubkey": "76a9141317af5248c2cc58eb7646b1be842d9066be7ce388ac",
        "scriptpubkey_asm": "OP_DUP OP_HASH160 OP_PUSHBYTES_20 1317af5248c2cc58eb7646b1be842d9066be7ce3 OP_EQUALVERIFY OP_CHECKSIG",
        "scriptpubkey_type": "p2pkh",
        "scriptpubkey_address": "12jxDJDy5z6zDBXBKHUxesHgyKrdvu7oS9",
        "value": 16360883
      },
      "scriptsig": "4830450221009b94a75599d7842da44f79655d4609c19cabe72cf78e3aacd68c832bcb72a6fd0220339ed8af5b82864b65bd84740e91ce29a671dc903a87bea37b711bb5921e8d230121032fe7c40af4302c902226813a199b14490fc01ce6ddd3733c7a384903d52c7899",
      "scriptsig_asm": "OP_PUSHBYTES_72 30450221009b94a75599d7842da44f79655d4609c19cabe72cf78e3aacd68c832bcb72a6fd0220339ed8af5b82864b65bd84740e91ce29a671dc903a87bea37b711bb5921e8d2301 OP_PUSHBYTES_33 032fe7c40af4302c902226813a199b14490fc01ce6ddd3733c7a384903d52c7899",
      "is_coinbase": false,
      "sequence": 4294967295
    }
  ],
  "vout": [
    {
      "scriptpubkey": "76a9149860d8979fbdf96ea01bdb4efc3263f2e20c339c88ac",
      "scriptpubkey_asm": "OP_DUP OP_HASH160 OP_PUSHBYTES_20 9860d8979fbdf96ea01bdb4efc3263f2e20c339c OP_EQUALVERIFY OP_CHECKSIG",
      "scriptpubkey_type": "p2pkh",
      "scriptpubkey_address": "1Ethj9AHEFwYryVvzFyg1kkLtgY5pdZoZ6",
      "value": 5088582
    },
    {
      "scriptpubkey": "0014c7b0d945c6e15d931f06ba5c25a20ddb08df7d61",
      "scriptpubkey_asm": "OP_0 OP_PUSHBYTES_20 c7b0d945c6e15d931f06ba5c25a20ddb08df7d61",
      "scriptpubkey_type": "v0_p2wpkh",
      "scriptpubkey_address": "bc1qc7cdj3wxu9wex8cxhfwztgsdmvyd7ltpfr636l",
      "value": 11266503
    }
  ],
  "size": 223,
  "weight": 892,
  "fee": 5798,
  "status": {
    "confirmed": true,
    "block_height": 834638,
    "block_hash": "000000000000000000025f742c626208ac87e0b7d15054abb4a19ca2d735a54e",
    "block_time": 1710405325
  },
  "hex": "0200000001c759aaf7ee75301fa0d34c28df490a17a2ba4dd6f5a9d229a8a5a96affe1ef73010000006b4830450221009b94a75599d7842da44f79655d4609c19cabe72cf78e3aacd68c832bcb72a6fd0220339ed8af5b82864b65bd84740e91ce29a671dc903a87bea37b711bb5921e8d230121032fe7c40af4302c902226813a199b14490fc01ce6ddd3733c7a384903d52c7899ffffffff0246a54d00000000001976a9149860d8979fbdf96ea01bdb4efc3263f2e20c339c88acc7e9ab0000000000160014c7b0d945c6e15d931f06ba5c25a20ddb08df7d6100000000"
}