{
  "txid": "f791cf14638b9f654f96bbafe52ceea831e2556bea9de2033e5e67aedb4c2c0b",
  "version": 2,
  "locktime": 0,
  "vin": [
    {
      "txid": "4a6ac2918912368d5e82d6d0427b980b9e36e49e6b384a2a8b11949e2cc74db2",
      "vout": 0,
      "prevout": {
        "scriptpubkey": "512093dc3f599c23498365af8b1f47de79c79da7615cafe29d5be57d6ca5b1d97332",
        "scriptpubkey_asm": "OP_PUSHNUM_1 OP_PUSHBYTES_32 93dc3f599c23498365af8b1f47de79c79da7615cafe29d5be57d6ca5b1d97332",
        "scriptpubkey_type": "v1_p2tr",
        "scriptpubkey_address": "bc1pj0wr7kvuydycxed03v050hnec7w6wc2u4l3f6kl904k2tvwewveq94ep85",
        "value": 17895
      },
      "scriptsig": "",
      "scriptsig_asm": "",
      "witness": [
        "0956b9e6af56804eee443cf40e4ebb9164a500be939af21e928b31f97dda0e94984ca614947e5e5489bbcca57de29f907e341cf02034f3086e10059e109f3164",
        "20542b55c933e022d886cf6b8c6200fc0f97e08ee3eaffa07f7be26c797c576414ac0063036f7264010109696d6167652f706e67004d080289504e470d0a1a0a0000000d494844520000025800000258080300000089b868ee00000033504c5445bd895aa87a4f5039229f9f9fb9690cc2c2c28c65400000005b8697a17345252a28bb7c3bf8f1f1354e5874837f4c6f7ebdbbb9be7374d0000000097048597300000b1300000b1301009a9c1800000f4549444154789ceddd8b56dbd8164451394d60dbbe86fcffd7dec1cbbc04483e2ed551694d920c771a1cc55ad95b381086020406c59d02840509c28204614182b020415890202c48101624080b12840509c28204614182b020415890202c48101624080b12840509c28204614182b020415890202c4810568f1e4ed3559f08ab47a7bbe91eaa4b84d5a3136181b04631b17a74626281b04631b17a74626281b04631b17a74626281b04631b17a74626281b04631b17a74626281b04631b17a74626281b01a26d661d26be15a4e5b99589d1e7cacd356c2c2b24e8405c21ac5c4ead1898935f3013b4cf6e0fde505bffa0c84a57bc04ede5fde7b497c6262c91e30c29a88f70a096b3226d64c4cac69086b26c29a86b06622ac69086b26c29a86b06622ac69086b26c29a86b06622ac69086b26c29a86b06622ac69086b26c29a86b06622ac69086b26c29a86b06622ac69086b26c29a86b06622ac69086b26c29a86b06622ac69086b26c2ba7e58fd7d2a88e1d3bfe63c60d3297ef9d18f243fdddd1da6bd9cbc8f53f911d6bcb016fa4d08025490873184153cb18c9f63f420784474985884254158842541588425415884254158842541588425415884254158842541588425415884254158842541588425415884254158842541588425415884254158849510d6e4af0c31fda325f908d2afcaafd7afa57337c3aa3f34f941f167ad832fe34258eeb0ee16534b22ac7184d588b0084b82b0084b82b0084b82b0084b82b0084b82b0084b82b0084b82b0084b82b0084b82b0084b82b0084b82b0084b82b0084b82b0084b82b0084b82b0084b82b0084b82b0088bb0667c2cf7f8e7034d7ef3d17fc0ffa1f163de1fdaeeb3592d2975621d167bf383e4f7a4504b222cc292202cc292202cc292202cc292202cc292202cc292202cc292202cc292202cc292202cc292202cc292202cc292202cc292202cc292202cc292202cc292202cc292202cc292202cc29220ac2ec33ab47d698ac369eca59644585d86556d5fc3a2fc088bb024088bb024088bb024088bb024088bb024088bb024088bb024088bb024088bb024088bb024088bb024088bb024088bb024088bb024088bb024088bb024088bb024088bb024088bb0b614d68c8fefbebb3b8d58eecd47df7e54eb7d4e7f73f7e9eb37ac05bf1048a2f223ac44e5475889ca8fb012951f61252a3fc24a547e8495a8fc082b51f91156a2f223ac44e5475889ca8fb012951f61252a3fc24a547e8495a8fc082b51f91156a2f223ac44e54758894d0802ca8fb012951f61252a3fc24a547e8495a8fc082b51f91156a2f223ac44e5475889ca8fb012951f61252a3fc24a547e8495a8fc082b51f91156a2f223ac44e5475889ca8fb012951f61252a3fc24a547e8495a8fc082b51f91156a2f223ac44e5475889ca8fb012951f61252a3fc24a547e8495a8fc082b51f91156a2f223ac44e5475889ca8fb012951f61252a3fc24a547e8495a8fc082b51f91156a2f223ac44e5475889ca8fb012951f61252a3fc24a547e8495a8fc082b51f91156a2f223ac44eeaa082b54f931b112951f61252a3fc24a547e8495a8fc082b51f91156a2f223ac44e5475889ca8fb012951f61252a3fc24a547e8495a8fc082b51f91156a2f223ac44e5475889ca8fb012955fa761d5ed9f36b7bba9ee56e3cfe4df93fbec2587354c75b71a7f26ff9edc678fb0084ba587b8c730b1be6262119604611196046111960461119604611196046111960461119604611196046111960461119604611196046111960461119604611196046111960461119604611196046111960461ad2aace51ca637d478f8e5d7c3318c21ac16eeb347588b3a30b1fc98582ddc678f89b5a80313cb8f89d5c27df698588b3a30b1fc98582ddc678f89b5a80313cb8f89d5c27df698588b3a30b1fc98582ddc678f89b5a80313cb8f89d5c27df698588b3a30b1fc98582ddc678f89b5a80313cb8f89d5c27df698588b3a30b1fc98582ddc678f4d080289b5a83f4c2cbfc489b51cf7d96362852abf1e8e610c13ab85fbec1156a8f2ebe118c630b15ab8cf1e61852abf1e8e610c13ab85fbec1156a8f2ebe118c630b15ab8cf1e61852abf1e8e610c13ab85fbec1156a8f2ebe118c630b15ab8cf1e61852abf1e8e610c13ab85fbec1156a8f2ebe118c630b15ab8cf1e61852abf1e8e610c13ab85fbec1156a8f2ebe118c630b15ab8cf1e610dc370bb98a1cd72079a1cd67ebfdf35d8ef3b3c5f0361f9ed5b11d6e5c22716617dd4500a6111d6f7088b89356e6873bb986b9c4056e172e76b202c3faeb18c7f02ae71029958cb9dafa1cd72074a583cdd20415884254158842541588425415884254158842541588425415884254158842541588425415884951dd6fdf55ff84be82fb617d620b05c5873bedcc54287e43ed04ec2ba1f04da1e993967f130dd6dcbe777ec768d0fc97207da49582b9f5884f5c5159a20acf961ed2f78d93d7e325be39fb5650eb4a3b036b50af7f7bbddeefea26fbbc6876491037d7ab34ec262154e342c19d6c5f684b5a66bacfd6ac2ea67626d6a153e27b29f7de351e343223fd0f3917612d6c656e1fdfee972e4f162e4e982e4971bbba73778bad5f890a80ff4f9aaec31ae2b344158176d980bfec192bd65155ef62fab7412d6c656e1975e7ebcb17ff7538d0fc90207faf26327616d6b15be3c27f5f2fd79d9fd70e3fefcc3d2615d72a02faf7c8526086beef94d08027abd1079b98279f6c38ddddb285836ac7907fa94d4cb535fbd84b5e955f8783af6dfded89d192ede671ce8fbd7ea27ac6dadc2f7b5fc7a697cbf7ffdc1f03cd6f403dd3f1fe3d9159a20ac0b06c1f3d5cbf325ef7993ecbfbbf166e1b0261ee8f927ce7f007a096b6babf0c35fc27dbc3879bbb1fb70f5f23c101a1f12f5813eebe81a8b55f8e14ffed366d9bdde3cbfb3d5d12afc72a0e79f78d988576882b02e7edef1f56c8c5c00bfd8f7f104e9ef07fafa7f3bfb2b9d8dadc2f7efbdbfcbe6e51dfb0fa7f17eff76056f9958bf1fe8f375fbfbe4781ecb758d35c97ee4d6c2615dae9389b5f26bac199fbdd276ba768d0fc98c03bd6f738526588591ca8f8995a8fc082b51f9f15e61a2f26362252a3fc24a547eacc244e5c7c44a547e8495a8fc588589ca8f8995a8fc082b51f9b10a13951f132b51f91156a2f26315262a3f2656a2f223ac44e5c72a4c547e4cac44e5475889ca8f5598a8fc985889ca8fb012951fab3051f931b112951f61252a3f5661a2f26362252a3fc24a547eacc244e5c7c44a547e8495a8fc588589ca8f8995a8fc082b51f9b10a13951f132b51f91156a2f26315262a3f2656a2f223ac44e5c72a4c547e4cac44e5475889ca8f5598a8fc985889ca8fb012951fab3051f931b112951f61252a3f5661a2f26362252a3fc24a547eacc244e5c7c44a547e8495a8fc588589ca8f8995a8fc082b51f9b10a13951f134d08022b51f91156a2f2bbc631dc0bec5b0d5b567e3d1cc318c26ae13e7b8415aafc7a3886314cac16eeb34758a1caaf876318c3c46ae13e7b8415aafc7a3886314cac16eeb34758a1caaf876318c3c46ae13e7b8415aafc7a3886314cac16eeb34758a1caaf876318c3c46ae13e7b8415aafc7a3886314cac16eeb34758a1caaf876318c3c46ae13e7b8415aafc7a3886314cac16eeb34758df3a2e6550fcf2f7eeac9858df8675b39041f2abfbcbea616af6b80a09ab11618dbb59cac0c45ad4b627d6d07aafac42c21ac33556ecc4ba59ca40589b0a8b8bf7465cbcf718d6d07aaf5c63f53ab16e963248b226ac5ec3621536621512960461f5b80a87d67b65157e8755d884b0086b0c17efb113eb662903616d2a2c9ec76ac4c57b8f611d5bef956bac5e27d6cd5206c2da54584cac46acc21ec31a5aef9555d8ebc4ba59ca20c99ab07a0d6bf2a9fde6d36c96721c3f50c222ac4684b5ae8975b39289358c1f2913abd7b0d6b20a0726d6ba26d66ac21a9858ab0aeb662d611d096b556131b11af104e9cac33a32b15635b156b30a07c25a55584cac46acc295873530b15635b156b30a8f84b5aab098588d58852b0febc8c45ad5c45acd2a1c086b556131b11ab10a571ed6c0c45ad5c45acd2a3c12d6aac26262356215ae3cac23136b55136b35ab7020ac5585c5c46ac42a242c09c25af92a3cb20a6761154e445884254158eb0a8b55d8886bac4d08023983806bacc9088bb024088b552841584c2c09c2222c09c262154a1016134b82b0084b82b058851284c5c492202cc292202c56a1046131b124088bb024088b552841584c2c09c2222c09c262154a1016134b82b0084b82b058851284c5c492202cc292202c56a1046131b124088bb024088b552841584c2c09c2222c09c262154a1016134b82b0084b82b058851284c5c492202cc292202c56a1046131b124088bb024088b552841584c2c09c2222c09c262154a1016134b82b0084b82b058851284c5c492202cc292202c56a1046131b124088bb024088b552841584c2c09c2222c09c262154a1016134b82b0084b82b058851284c5c492480deb7637ec76c3c52fbbe3cd44c739f7ba7bffc3758c1ce8fee6de7dfa62c3babddded8e4fdf2ef97e7cba31ddc4bbad2d090d6b7f7b5952af35beddfafdfbd4bbded596044fac0bd33ac732352d26d686c2dadfce18251f2a3947f536b8ae30b1768f3fd496848675f1c43a57f0f1bfda27d6ee48589b9e589f13bbcac43a32b17ae19b589f97e21526d623de2b4c9958174cab7797559fc657dbc43a3edf5b6d49ee35d6458bf03593cfe38b8935576858974cacf7ab6ff2c49af094c4eeb5d0da92d0b02e78e6fd6d60cd9858e7ba7ebdeb1def15c64cac6997489f2e843e3de5306573fe3e088f4caca889752e64e6c4fa98da6fd7573fcfb53326d61627d6874bac4f1bece731f7f36bed5ee74d9a0115d75831136bea3b751f96d9a7ff78fa89df27d64faf75c6c4dadcc4fa38a43e4dac9fefe4fde5d80fd7574726d636afb1c62fabde92f8a9c9b718bf9f568f985841136bf25fe47db9acfa10c64f59bd7f77f2dbebab23132b6a62fd58c5a7b1f27e62bd7f1e6bdafb7ce3aff5496d49fa35564f6a4b7a0d6bf75fa3bffffe3d7dfbede5fced9297c76fff1bf3eff1ff9cbfbfa82d490debdfdfa58c86f5774c6d496a58ff1196576a584c2c33c262154aa486c52a344b0d8b55684658ac4289d4b0588566a961b10acd088b5528911a16abd02c352c56a11961b10a2552c362159aa586c52a34232c56a1446a58ac42b3d4b058856684c52a94480d8b5568961ad63fef87b78faa2d21ac19086bbad4b024ab90b0a64b0d8b556846584c2c89d4b0588566a961b10acd088b5528911a16abd02c352c56a11961b10a2552c362159aa586c52a34232c56a1446a58ac42b3d4b058856684c52a94480d8b5568961a16abd08cb0588512a961b10acd52c362159a1116ab5022352c56a1596a58acc2f29ec0ff032cf208aa05af861d0000000049454e44ae42608268",
        "c0542b55c933e022d886cf6b8c6200fc0f97e08ee3eaffa07f7be26c797c576414"
      ],
      "is_coinbase": false,
      "sequence": 4294967293
    }
  ],
  "vout": [
    {
      "scriptpubkey": "512092d0c4be49414c8ce960e04bd67b94f223e9ce71227bcb9ae8584d3d87f33a1e",
      "scriptpubkey_asm": "OP_PUSHNUM_1 OP_PUSHBYTES_32 92d0c4be49414c8ce960e04bd67b94f223e9ce71227bcb9ae8584d3d87f33a1e",
      "scriptpubkey_type": "v1_p2tr",
      "scriptpubkey_address": "bc1pjtgvf0jfg9xge6tqup9av7u57g37nnn3yfauhxhgtpxnmpln8g0qek58d9",
      "value": 600
    }
  ],
  "size": 4327,
  "weight": 4609,
  "fee": 17295,
  "status": {
    "confirmed": true,
    "block_height": 834460,
    "block_hash": "00000000000000000000484a79b643b2524bbce82e5d8a442013fa5b8905ed98",
    "block_time": 1710307468
  },
  "hex": "02000000000101b24dc72c9e94118b2a4a386b9ee4369e0b987b42d0d6825e8d36128991c26a4a0000000000fdffffff01580200000000000022512092d0c4be49414c8ce960e04bd67b94f223e9ce71227bcb9ae8584d3d87f33a1e03400956b9e6af56804eee443cf40e4ebb9164a500be939af21e928b31f97dda0e94984ca614947e5e5489bbcca57de29f907e341cf02034f3086e10059e109f3164fd201020542b55c933e022d886cf6b8c6200fc0f97e08ee3eaffa07f7be26c797c576414ac0063036f7264010109696d6167652f706e67004d080289504e470d0a1a0a0000000d494844520000025800000258080300000089b868ee00000033504c5445bd895aa87a4f5039229f9f9fb9690cc2c2c28c65400000005b8697a17345252a28bb7c3bf8f1f1354e5874837f4c6f7ebdbbb9be7374d0000000097048597300000b1300000b1301009a9c1800000f4549444154789ceddd8b56dbd8164451394d60dbbe86fcffd7dec1cbbc04483e2ed551694d920c771a1cc55ad95b381086020406c59d02840509c28204614182b020415890202c48101624080b12840509c28204614182b020415890202c48101624080b12840509c28204614182b020415890202c4810568f1e4ed3559f08ab47a7bbe91eaa4b84d5a3136181b04631b17a74626281b04631b17a74626281b04631b17a74626281b04631b17a74626281b04631b17a74626281b04631b17a74626281b01a26d661d26be15a4e5b99589d1e7cacd356c2c2b24e8405c21ac5c4ead1898935f3013b4cf6e0fde505bffa0c84a57bc04ede5fde7b497c6262c91e30c29a88f70a096b3226d64c4cac69086b26c29a86b06622ac69086b26c29a86b06622ac69086b26c29a86b06622ac69086b26c29a86b06622ac69086b26c29a86b06622ac69086b26c29a86b06622ac69086b26c29a86b06622ac69086b26c29a86b06622ac69086b26c2ba7e58fd7d2a88e1d3bfe63c60d3297ef9d18f243fdddd1da6bd9cbc8f53f911d6bcb016fa4d08025490873184153cb18c9f63f420784474985884254158842541588425415884254158842541588425415884254158842541588425415884254158842541588425415884254158842541588425415884254158849510d6e4af0c31fda325f908d2afcaafd7afa57337c3aa3f34f941f167ad832fe34258eeb0ee16534b22ac7184d588b0084b82b0084b82b0084b82b0084b82b0084b82b0084b82b0084b82b0084b82b0084b82b0084b82b0084b82b0084b82b0084b82b0084b82b0084b82b0084b82b0084b82b0088bb0667c2cf7f8e7034d7ef3d17fc0ffa1f163de1fdaeeb3592d2975621d167bf383e4f7a4504b222cc292202cc292202cc292202cc292202cc292202cc292202cc292202cc292202cc292202cc292202cc292202cc292202cc292202cc292202cc292202cc292202cc292202cc292202cc29220ac2ec33ab47d698ac369eca59644585d86556d5fc3a2fc088bb024088bb024088bb024088bb024088bb024088bb024088bb024088bb024088bb024088bb024088bb024088bb024088bb024088bb024088bb024088bb024088bb024088bb024088bb0b614d68c8fefbebb3b8d58eecd47df7e54eb7d4e7f73f7e9eb37ac05bf1048a2f223ac44e5475889ca8fb012951f61252a3fc24a547e8495a8fc082b51f91156a2f223ac44e5475889ca8fb012951f61252a3fc24a547e8495a8fc082b51f91156a2f223ac44e54758894d0802ca8fb012951f61252a3fc24a547e8495a8fc082b51f91156a2f223ac44e5475889ca8fb012951f61252a3fc24a547e8495a8fc082b51f91156a2f223ac44e5475889ca8fb012951f61252a3fc24a547e8495a8fc082b51f91156a2f223ac44e5475889ca8fb012951f61252a3fc24a547e8495a8fc082b51f91156a2f223ac44e5475889ca8fb012951f61252a3fc24a547e8495a8fc082b51f91156a2f223ac44e5475889ca8fb012951f61252a3fc24a547e8495a8fc082b51f91156a2f223ac44eeaa082b54f931b112951f61252a3fc24a547e8495a8fc082b51f91156a2f223ac44e5475889ca8fb012951f61252a3fc24a547e8495a8fc082b51f91156a2f223ac44e5475889ca8fb012955fa761d5ed9f36b7bba9ee56e3cfe4df93fbec2587354c75b71a7f26ff9edc678fb0084ba587b8c730b1be6262119604611196046111960461119604611196046111960461119604611196046111960461119604611196046111960461119604611196046111960461119604611196046111960461ad2aace51ca637d478f8e5d7c3318c21ac16eeb347588b3a30b1fc98582ddc678f89b5a80313cb8f89d5c27df698588b3a30b1fc98582ddc678f89b5a80313cb8f89d5c27df698588b3a30b1fc98582ddc678f89b5a80313cb8f89d5c27df698588b3a30b1fc98582ddc678f89b5a80313cb8f89d5c27df698588b3a30b1fc98582ddc678f4d080289b5a83f4c2cbfc489b51cf7d96362852abf1e8e610c13ab85fbec1156a8f2ebe118c630b15ab8cf1e61852abf1e8e610c13ab85fbec1156a8f2ebe118c630b15ab8cf1e61852abf1e8e610c13ab85fbec1156a8f2ebe118c630b15ab8cf1e61852abf1e8e610c13ab85fbec1156a8f2ebe118c630b15ab8cf1e61852abf1e8e610c13ab85fbec1156a8f2ebe118c630b15ab8cf1e610dc370bb98a1cd72079a1cd67ebfdf35d8ef3b3c5f0361f9ed5b11d6e5c22716617dd4500a6111d6f7088b89356e6873bb986b9c4056e172e76b202c3faeb18c7f02ae71029958cb9dafa1cd72074a583cdd20415884254158842541588425415884254158842541588425415884254158842541588425415884951dd6fdf55ff84be82fb617d620b05c5873bedcc54287e43ed04ec2ba1f04da1e993967f130dd6dcbe777ec768d0fc97207da49582b9f5884f5c5159a20acf961ed2f78d93d7e325be39fb5650eb4a3b036b50af7f7bbddeefea26fbbc6876491037d7ab34ec262154e342c19d6c5f684b5a66bacfd6ac2ea67626d6a153e27b29f7de351e343223fd0f3917612d6c656e1fdfee972e4f162e4e982e4971bbba73778bad5f890a80ff4f9aaec31ae2b344158176d980bfec192bd65155ef62fab7412d6c656e1975e7ebcb17ff7538d0fc90207faf26327616d6b15be3c27f5f2fd79d9fd70e3fefcc3d2615d72a02faf7c8526086beef94d08027abd1079b98279f6c38ddddb285836ac7907fa94d4cb535fbd84b5e955f8783af6dfded89d192ede671ce8fbd7ea27ac6dadc2f7b5fc7a697cbf7ffdc1f03cd6f403dd3f1fe3d9159a20ac0b06c1f3d5cbf325ef7993ecbfbbf166e1b0261ee8f927ce7f007a096b6babf0c35fc27dbc3879bbb1fb70f5f23c101a1f12f5813eebe81a8b55f8e14ffed366d9bdde3cbfb3d5d12afc72a0e79f78d988576882b02e7edef1f56c8c5c00bfd8f7f104e9ef07fafa7f3bfb2b9d8dadc2f7efbdbfcbe6e51dfb0fa7f17eff76056f9958bf1fe8f375fbfbe4781ecb758d35c97ee4d6c2615dae9389b5f26bac199fbdd276ba768d0fc98c03bd6f738526588591ca8f8995a8fc082b51f9f15e61a2f26362252a3fc24a547eacc244e5c7c44a547e8495a8fc588589ca8f8995a8fc082b51f9b10a13951f132b51f91156a2f26315262a3f2656a2f223ac44e5c72a4c547e4cac44e5475889ca8f5598a8fc985889ca8fb012951fab3051f931b112951f61252a3f5661a2f26362252a3fc24a547eacc244e5c7c44a547e8495a8fc588589ca8f8995a8fc082b51f9b10a13951f132b51f91156a2f26315262a3f2656a2f223ac44e5c72a4c547e4cac44e5475889ca8f5598a8fc985889ca8fb012951fab3051f931b112951f61252a3f5661a2f26362252a3fc24a547eacc244e5c7c44a547e8495a8fc588589ca8f8995a8fc082b51f9b10a13951f134d08022b51f91156a2f2bbc631dc0bec5b0d5b567e3d1cc318c26ae13e7b8415aafc7a3886314cac16eeb34758a1caaf876318c3c46ae13e7b8415aafc7a3886314cac16eeb34758a1caaf876318c3c46ae13e7b8415aafc7a3886314cac16eeb34758a1caaf876318c3c46ae13e7b8415aafc7a3886314cac16eeb34758a1caaf876318c3c46ae13e7b8415aafc7a3886314cac16eeb34758df3a2e6550fcf2f7eeac9858df8675b39041f2abfbcbea616af6b80a09ab11618dbb59cac0c45ad4b627d6d07aafac42c21ac33556ecc4ba59ca40589b0a8b8bf7465cbcf718d6d07aaf5c63f53ab16e963248b226ac5ec3621536621512960461f5b80a87d67b65157e8755d884b0086b0c17efb113eb662903616d2a2c9ec76ac4c57b8f611d5bef956bac5e27d6cd5206c2da54584cac46acc21ec31a5aef9555d8ebc4ba59ca20c99ab07a0d6bf2a9fde6d36c96721c3f50c222ac4684b5ae8975b39289358c1f2913abd7b0d6b20a0726d6ba26d66ac21a9858ab0aeb662d611d096b556131b11af104e9cac33a32b15635b156b30a07c25a55584cac46acc295873530b15635b156b30a8f84b5aab098588d58852b0febc8c45ad5c45acd2a1c086b556131b11ab10a571ed6c0c45ad5c45acd2a3c12d6aac26262356215ae3cac23136b55136b35ab7020ac5585c5c46ac42a242c09c25af92a3cb20a6761154e445884254158eb0a8b55d8886bac4d08023983806bacc9088bb024088b552841584c2c09c2222c09c262154a1016134b82b0084b82b058851284c5c492202cc292202c56a1046131b124088bb024088b552841584c2c09c2222c09c262154a1016134b82b0084b82b058851284c5c492202cc292202c56a1046131b124088bb024088b552841584c2c09c2222c09c262154a1016134b82b0084b82b058851284c5c492202cc292202c56a1046131b124088bb024088b552841584c2c09c2222c09c262154a1016134b82b0084b82b058851284c5c492202cc292202c56a1046131b124088bb024088b552841584c2c09c2222c09c262154a1016134b82b0084b82b058851284c5c492480deb7637ec76c3c52fbbe3cd44c739f7ba7bffc3758c1ce8fee6de7dfa62c3babddded8e4fdf2ef97e7cba31ddc4bbad2d090d6b7f7b5952af35beddfafdfbd4bbded596044fac0bd33ac732352d26d686c2dadfce18251f2a3947f536b8ae30b1768f3fd496848675f1c43a57f0f1bfda27d6ee48589b9e589f13bbcac43a32b17ae19b589f97e21526d623de2b4c9958174cab7797559fc657dbc43a3edf5b6d49ee35d6458bf03593cfe38b8935576858974cacf7ab6ff2c49af094c4eeb5d0da92d0b02e78e6fd6d60cd9858e7ba7ebdeb1def15c64cac6997489f2e843e3de5306573fe3e088f4caca889752e64e6c4fa98da6fd7573fcfb53326d61627d6874bac4f1bece731f7f36bed5ee74d9a0115d75831136bea3b751f96d9a7ff78fa89df27d64faf75c6c4dadcc4fa38a43e4dac9fefe4fde5d80fd7574726d636afb1c62fabde92f8a9c9b718bf9f568f985841136bf25fe47db9acfa10c64f59bd7f77f2dbebab23132b6a62fd58c5a7b1f27e62bd7f1e6bdafb7ce3aff5496d49fa35564f6a4b7a0d6bf75fa3bffffe3d7dfbede5fced9297c76fff1bf3eff1ff9cbfbfa82d490debdfdfa58c86f5774c6d496a58ff1196576a584c2c33c262154aa486c52a344b0d8b55684658ac4289d4b0588566a961b10acd088b5528911a16abd02c352c56a11961b10a2552c362159aa586c52a34232c56a1446a58ac42b3d4b058856684c52a94480d8b5568961ad63fef87b78faa2d21ac19086bbad4b024ab90b0a64b0d8b556846584c2c89d4b0588566a961b10acd088b5528911a16abd02c352c56a11961b10a2552c362159aa586c52a34232c56a1446a58ac42b3d4b058856684c52a94480d8b5568961a16abd08cb0588512a961b10acd52c362159a1116ab5022352c56a1596a58acc2f29ec0ff032cf208aa05af861d0000000049454e44ae4260826821c0542b55c933e022d886cf6b8c6200fc0f97e08ee3eaffa07f7be26c797c57641400000000"
}