{
  "txid": "f79b4fe3a18afd5a9c83575e35841a250449e50dcd385b5d752e2f3f7d6b825c",
  "version": 2,
  "locktime": 0,
  "vin": [
    {
      "txid": "acc3ba00869acb582a3f2904ce3a11dd3779350ce234063fc7d0959246213364",
      "vout": 53,
      "prevout": {
        "scriptpubkey": "51203cd7992e88c49a7ea0d1d7977a47bca3a91f1f880fed5785d0a331d9b841bc1f",
        "scriptpubkey_asm": "OP_PUSHNUM_1 OP_PUSHBYTES_32 3cd7992e88c49a7ea0d1d7977a47bca3a91f1f880fed5785d0a331d9b841bc1f",
        "scriptpubkey_type": "v1_p2tr",
        "scriptpubkey_address": "bc1p8ntejt5gcjd8agx367th53au5w5378ugplk40pws5vcanwzphs0sjjwah3",
        "value": 1806
      },
      "scriptsig": "",
      "scriptsig_asm": "",
      "witness": [
        "5ebb499cf2bc4aa5270f2375e8bb71e075e1fab9a8ab0f1d2293a5d0242d321fa29ebaa0dcfd2a471219ce6f22d6a1ef5cb6a96918aa4dc0f101f95d428dd504",
        "209e195d2e320a70948c2d87542932e02d70af1dc5133201e9e4919c36ef9c5e65ac0063036f726401010a746578742f706c61696e00357b2270223a226272632d3230222c226f70223a226d696e74222c227469636b223a22646f6765222c22616d74223a2234323030227d68",
        "c19e195d2e320a70948c2d87542932e02d70af1dc5133201e9e4919c36ef9c5e65"
      ],
      "is_coinbase": false,
      "sequence": 4261412863
    }
  ],
  "vout": [
    {
      "scriptpubkey": "00147a665de7a370f4c9b372ab1fae587500a5bcbdb4",
      "scriptpubkey_asm": "OP_0 OP_PUSHBYTES_20 7a665de7a370f4c9b372ab1fae587500a5bcbdb4",
      "scriptpubkey_type": "v0_p2wpkh",
      "scriptpubkey_address": "bc1q0fn9mearwr6vnvmj4v06ukr4qzjme0d565dzcx",
      "value": 294
    }
  ],
  "size": 294,
  "weight": 540,
  "fee": 1512,
  "status": {
    "confirmed": true,
    "block_height": 834460,
    "block_hash": "00000000000000000000484a79b643b2524bbce82e5d8a442013fa5b8905ed98",
    "block_time": 1710307468
  },
  "hex": "02000000000101643321469295d0c73f0634e20c357937dd113ace04293f2a58cb9a8600bac3ac3500000000fffffffd0126010000000000001600147a665de7a370f4c9b372ab1fae587500a5bcbdb403405ebb499cf2bc4aa5270f2375e8bb71e075e1fab9a8ab0f1d2293a5d0242d321fa29ebaa0dcfd2a471219ce6f22d6a1ef5cb6a96918aa4dc0f101f95d428dd5046d209e195d2e320a70948c2d87542932e02d70af1dc5133201e9e4919c36ef9c5e65ac0063036f726401010a746578742f706c61696e00357b2270223a226272632d3230222c226f70223a226d696e74222c227469636b223a22646f6765222c22616d74223a2234323030227d6821c19e195d2e320a70948c2d87542932e02d70af1dc5133201e9e4919c36ef9c5e6500000000"
}