{
  "txid": "f79d033c5fc61f44f2f43bb85233e75ab3804f5e459dd29b0dbce34f1d8723e0",
  "version": 2,
  "locktime": 0,
  "vin": [
    {
      "txid": "8486ecb4df0880316dd6e82b3971b4df187aff23765bc3a47f8d78bb53aa273c",
      "vout": 98,
      "prevout": {
        "scriptpubkey": "51208b75d31fee0201a15c25cc3509be80fc438b35397c09aa451d4a9f1ac459f0bd",
        "scriptpubkey_asm": "OP_PUSHNUM_1 OP_PUSHBYTES_32 8b75d31fee0201a15c25cc3509be80fc438b35397c09aa451d4a9f1ac459f0bd",
        "scriptpubkey_type": "v1_p2tr",
        "scriptpubkey_address": "bc1p3d6ax8lwqgq6zhp9es6sn05ql3pckdfe0sy653gaf20343ze7z7sz9esu8",
        "value": 2575
      },
      "scriptsig": "",
      "scriptsig_asm": "",
      "witness": [
        "c24a2d341a963802c944bd7da116ece11dc8af525b4b890c244e7d34b713541ab507358e376f2bdaa07cbafb501786ec5f84efdc91b53e1a3477aa62b532ff62",
        "20250be6cc49e33bf07ba4ab2aaa6f8499e6b1c0a27f340d9fd30ecd3adc794f14ac0063036f726401010a746578742f706c61696e00367b2270223a226272632d3230222c226f70223a226d696e74222c227469636b223a2261616161222c22616d74223a223130303030227d68",
        "c0250be6cc49e33bf07ba4ab2aaa6f8499e6b1c0a27f340d9fd30ecd3adc794f14"
      ],
      "is_coinbase": false,
      "sequence": 4261412863
    }
  ],
  "vout": [
    {
      "scriptpubkey": "0014ddd7ef12ea6f78edcc1e8e7afa12c01ab59f3339",
      "scriptpubkey_asm": "OP_0 OP_PUSHBYTES_20 ddd7ef12ea6f78edcc1e8e7afa12c01ab59f3339",
      "scriptpubkey_type": "v0_p2wpkh",
      "scriptpubkey_address": "bc1qmht77yh2dauwmnq73ea05ykqr26e7veea8spz6",
      "value": 546
    }
  ],
  "size": 295,
  "weight": 541,
  "fee": 2029,
  "status": {
    "confirmed": true,
    "block_height": 834460,
    "block_hash": "00000000000000000000484a79b643b2524bbce82e5d8a442013fa5b8905ed98",
    "block_time": 1710307468
  },
  "hex": "020000000001013c27aa53bb788d7fa4c35b7623ff7a18dfb471392be8d66d318008dfb4ec86846200000000fffffffd012202000000000000160014ddd7ef12ea6f78edcc1e8e7afa12c01ab59f33390340c24a2d341a963802c944bd7da116ece11dc8af525b4b890c244e7d34b713541ab507358e376f2bdaa07cbafb501786ec5f84efdc91b53e1a3477aa62b532ff626e20250be6cc49e33bf07ba4ab2aaa6f8499e6b1c0a27f340d9fd30ecd3adc794f14ac0063036f726401010a746578742f706c61696e00367b2270223a226272632d3230222c226f70223a226d696e74222c227469636b223a2261616161222c22616d74223a223130303030227d6821c0250be6cc49e33bf07ba4ab2aaa6f8499e6b1c0a27f340d9fd30ecd3adc794f1400000000"
}