{
  "txid": "f7a19a04950cd2de96dcb6d40804b6aa7b93d13ee45ffa89d1aa6b0112f5b0ff",
  "version": 2,
  "locktime": 0,
  "vin": [
    {
      "txid": "326e3c0a56cb53c0a421167e448d6dad758ed4ba99cdd53d4a939e2c7a7d038a",
      "vout": 4,
      "prevout": {
        "scriptpubkey": "001407a5829cf12279234451367130889d951cd29860",
        "scriptpubkey_asm": "OP_0 OP_PUSHBYTES_20 07a5829cf12279234451367130889d951cd29860",
        "scriptpubkey_type": "v0_p2wpkh",
        "scriptpubkey_address": "bc1qq7jc9883yfujx3z3xecnpzyaj5wd9xrq4xx2pw",
        "value": 198743
      },
      "scriptsig": "",
      "scriptsig_asm": "",
      "witness": [
        "30450221009d4317e2873c0e3d5cb9642d0ca249d3b25ab5c849a25ba243df31cd5527e82002204b2c70e11c913b1acb44cdb31f6f5a741b4e3fa0ecb998430c8cb7c54c243d9f01",
        "020667df3cb15334629389bf045df2ed30b1e248db1f39ad4976f5b4c8be7a502b"
      ],
      "is_coinbase": false,
      "sequence": 4294967293
    }
  ],
  "vout": [
    {
      "scriptpubkey": "0014c4667b5138d7f6826bf5a6d69574f476bc7a037a",
      "scriptpubkey_asm": "OP_0 OP_PUSHBYTES_20 c4667b5138d7f6826bf5a6d69574f476bc7a037a",
      "scriptpubkey_type": "v0_p2wpkh",
      "scriptpubkey_address": "bc1qc3n8k5fc6lmgy6l45mtf2a85w6785qm68dmk2l",
      "value": 14888
    },
    {
      "scriptpubkey": "00149b4a90f25d9bf2d079ae5f9ab406deb0f9ba1954",
      "scriptpubkey_asm": "OP_0 OP_PUSHBYTES_20 9b4a90f25d9bf2d079ae5f9ab406deb0f9ba1954",
      "scriptpubkey_type": "v0_p2wpkh",
      "scriptpubkey_address": "bc1qnd9fpujan0edq7dwt7dtgpk7krum5x25k8ah2g",
      "value": 179391
    }
  ],
  "size": 223,
  "weight": 562,
  "fee": 4464,
  "status": {
    "confirmed": true,
    "block_height": 834638,
    "block_hash": "000000000000000000025f742c626208ac87e0b7d15054abb4a19ca2d735a54e",
    "block_time": 1710405325
  },
  "hex": "020000000001018a037d7a2c9e934a3dd5cd99bad48e75ad6d8d447e1621a4c053cb560a3c6e320400000000fdffffff02283a000000000000160014c4667b5138d7f6826bf5a6d69574f476bc7a037abfbc0200000000001600149b4a90f25d9bf2d079ae5f9ab406deb0f9ba1954024830450221009d4317e2873c0e3d5cb9642d0ca249d3b25ab5c849a25ba243df31cd5527e82002204b2c70e11c913b1acb44cdb31f6f5a741b4e3fa0ecb998430c8cb7c54c243d9f0121020667df3cb15334629389bf045df2ed30b1e248db1f39ad4976f5b4c8be7a502b00000000"
}