{
  "txid": "f7a23de4e7d6d45938d52cd1d5bec8509bf283a60f3845deedd77a3ab9acd3ff",
  "version": 1,
  "locktime": 0,
  "vin": [
    {
      "txid": "47e3afb2b39c9dce1a9cdd9ae370fff97cd125fd1617728ff0d5223fe6b6af92",
      "vout": 1,
      "prevout": {
        "scriptpubkey": "0014c5b87406ff0f33b8ee149b3d8b7e74ed7b81cf2f",
        "scriptpubkey_asm": "OP_0 OP_PUSHBYTES_20 c5b87406ff0f33b8ee149b3d8b7e74ed7b81cf2f",
        "scriptpubkey_type": "v0_p2wpkh",
        "scriptpubkey_address": "bc1qcku8gphlpuem3ms5nv7ckln5a4acrne0zz0t4g",
        "value": 3132799
      },
      "scriptsig": "",
      "scriptsig_asm": "",
      "witness": [
        "3045022100af7dd75578aef303b23631d9728fc059ea043324f0ff4111e64f68d734dbaf550220441ce09a0746482c6ed5807b25de5f0407159334cb0aae5f2f380400b82dc1fa01",
        "02ce3812cdc536f739274a8f4456045e8d7ec3d4a7312cd2c223a431c291936a27"
      ],
      "is_coinbase": false,
      "sequence": 4294967293
    }
  ],
  "vout": [
    {
      "scriptpubkey": "0014c3543aff5054c13e3620058a7e8d97f209a5e3ed",
      "scriptpubkey_asm": "OP_0 OP_PUSHBYTES_20 c3543aff5054c13e3620058a7e8d97f209a5e3ed",
      "scriptpubkey_type": "v0_p2wpkh",
      "scriptpubkey_address": "bc1qcd2r4l6s2nqnud3qqk98arvh7gy6tcldy8xhl8",
      "value": 296102
    },
    {
      "scriptpubkey": "0014bcdb3859099a12dfd1d6edf5ed571acf78340804",
      "scriptpubkey_asm": "OP_0 OP_PUSHBYTES_20 bcdb3859099a12dfd1d6edf5ed571acf78340804",
      "scriptpubkey_type": "v0_p2wpkh",
      "scriptpubkey_address": "bc1qhndnskgfngfdl5wkah6764c6eaurgzqy9nu7lv",
      "value": 2834723
    }
  ],
  "size": 223,
  "weight": 562,
  "fee": 1974,
  "status": {
    "confirmed": true,
    "block_height": 834460,
    "block_hash": "00000000000000000000484a79b643b2524bbce82e5d8a442013fa5b8905ed98",
    "block_time": 1710307468
  },
  "hex": "0100000000010192afb6e63f22d5f08f721716fd25d17cf9ff70e39add9c1ace9d9cb3b2afe3470100000000fdffffff02a684040000000000160014c3543aff5054c13e3620058a7e8d97f209a5e3ed23412b0000000000160014bcdb3859099a12dfd1d6edf5ed571acf7834080402483045022100af7dd75578aef303b23631d9728fc059ea043324f0ff4111e64f68d734dbaf550220441ce09a0746482c6ed5807b25de5f0407159334cb0aae5f2f380400b82dc1fa012102ce3812cdc536f739274a8f4456045e8d7ec3d4a7312cd2c223a431c291936a2700000000"
}