{
  "txid": "f7a6a7d4f3cca0b9a28de0745d567c0f76a0d197e6e0e9cf038f88d894dbc42e",
  "version": 1,
  "locktime": 0,
  "vin": [
    {
      "txid": "cbe0ae6a6a0c3b2d4ca108eb14099fe914444bc6b467ba01ea2e66725feb0ff5",
      "vout": 35,
      "prevout": {
        "scriptpubkey": "76a91441b6c954e287d2a9b8902fb812283455ad40802b88ac",
        "scriptpubkey_asm": "OP_DUP OP_HASH160 OP_PUSHBYTES_20 41b6c954e287d2a9b8902fb812283455ad40802b OP_EQUALVERIFY OP_CHECKSIG",
        "scriptpubkey_type": "p2pkh",
        "scriptpubkey_address": "16zTthGYj1ynugKadKs8MFQCwzu8T3hvu8",
        "value": 97105
      },
      "scriptsig": "483045022100d0a463e057bfcc29fe5d79079ebce011b53169d51b7a3bbfa30179cdf374e4b302200ab301c588ba437960fe8006cb9409cdfff541b9dcb6eb747a17883536ff1dbc012102a28ba2180188660cfff786965b0bd990857bc6976d29d0a0830d3db1f06e735d",
      "scriptsig_asm": "OP_PUSHBYTES_72 3045022100d0a463e057bfcc29fe5d79079ebce011b53169d51b7a3bbfa30179cdf374e4b302200ab301c588ba437960fe8006cb9409cdfff541b9dcb6eb747a17883536ff1dbc01 OP_PUSHBYTES_33 02a28ba2180188660cfff786965b0bd990857bc6976d29d0a0830d3db1f06e735d",
      "is_coinbase": false,
      "sequence": 4294967295
    }
  ],
  "vout": [
    {
      "scriptpubkey": "0014fb8994dc493157876df95cbdab1a03d96f346af9",
      "scriptpubkey_asm": "OP_0 OP_PUSHBYTES_20 fb8994dc493157876df95cbdab1a03d96f346af9",
      "scriptpubkey_type": "v0_p2wpkh",
      "scriptpubkey_address": "bc1qlwyefhzfx9tcwm0etj76kxsrm9hng6hel7c30t",
      "value": 90679
    }
  ],
  "size": 189,
  "weight": 756,
  "fee": 6426,
  "status": {
    "confirmed": true,
    "block_height": 834638,
    "block_hash": "000000000000000000025f742c626208ac87e0b7d15054abb4a19ca2d735a54e",
    "block_time": 1710405325
  },
  "hex": "0100000001f50feb5f72662eea01ba67b4c64b4414e99f0914eb08a14c2d3b0c6a6aaee0cb230000006b483045022100d0a463e057bfcc29fe5d79079ebce011b53169d51b7a3bbfa30179cdf374e4b302200ab301c588ba437960fe8006cb9409cdfff541b9dcb6eb747a17883536ff1dbc012102a28ba2180188660cfff786965b0bd990857bc6976d29d0a0830d3db1f06e735dffffffff013762010000000000160014fb8994dc493157876df95cbdab1a03d96f346af900000000"
}