{
  "txid": "f7b32993e5661554730f5deee7004594c4539ef21afae7741584bb46a6fd20ac",
  "version": 2,
  "locktime": 834637,
  "vin": [
    {
      "txid": "2e9a9e68941169901e70a6cae5c6e5c838cc8ce124cd7d1f9befb7ae0a5443c7",
      "vout": 4,
      "prevout": {
        "scriptpubkey": "001473e04dfcde79fc1e3a0548f39fc0594c2752102e",
        "scriptpubkey_asm": "OP_0 OP_PUSHBYTES_20 73e04dfcde79fc1e3a0548f39fc0594c2752102e",
        "scriptpubkey_type": "v0_p2wpkh",
        "scriptpubkey_address": "bc1qw0symlx7087puws9freelszefsn4yypwmffzxd",
        "value": 6892248
      },
      "scriptsig": "",
      "scriptsig_asm": "",
      "witness": [
        "30440220721650dc8dd8fd8bfcadf3318c1049c16cac33f52e8cdb0ae7704b2e97585a83022030954cdcb2f85307c54c01f17873607f811f8c7a0698727a4c9d0f2a527c390601",
        "03406d2074178e0093c70ae42abdd55a6cef8352fa0ade4fb95cd7315374f0b4ea"
      ],
      "is_coinbase": false,
      "sequence": 4294967294
    },
    {
      "txid": "00583cb650727e4406aff7d9c0242e70e205b42a8eb97e2d2d63dd34f6bc653f",
      "vout": 0,
      "prevout": {
        "scriptpubkey": "00141277b99adece26c3f9a65b9af1b7964fe732f039",
        "scriptpubkey_asm": "OP_0 OP_PUSHBYTES_20 1277b99adece26c3f9a65b9af1b7964fe732f039",
        "scriptpubkey_type": "v0_p2wpkh",
        "scriptpubkey_address": "bc1qzfmmnxk7ecnv87dxtwd0rdukflnn9upe5mnuv8",
        "value": 789030
      },
      "scriptsig": "",
      "scriptsig_asm": "",
      "witness": [
        "3044022075adb7898a7972086083452f2606aa8b43e35a3e535cf42f43764756d4f8557b022064868f1b4f2d1ca804a36d267f41cd2ba86075e478cd569537c4059a04846c6b01",
        "03ac737ba0bb72697a3a9f77327164207bfc6162a5446ff676dcd068094915a95c"
      ],
      "is_coinbase": false,
      "sequence": 4294967294
    },
    {
      "txid": "b1ff40d4c72bd7e00c6a6c7bdbd3b6360310371f1f2b96da1f89c6d16776d662",
      "vout": 143,
      "prevout": {
        "scriptpubkey": "0014cc67bae7692253a26a5b9b55bda43b12a8508347",
        "scriptpubkey_asm": "OP_0 OP_PUSHBYTES_20 cc67bae7692253a26a5b9b55bda43b12a8508347",
        "scriptpubkey_type": "v0_p2wpkh",
        "scriptpubkey_address": "bc1qe3nm4emfyff6y6jmnd2mmfpmz259pq68lc65s0",
        "value": 128360
      },
      "scriptsig": "",
      "scriptsig_asm": "",
      "witness": [
        "30440220741fab8649de2b63ea59615b16180753b97531584dc9d44634aa7d53e3d140c1022062c1d67f0782669463d750912f1eb48d4391e33b18938929a9dd2b3a49fdf3cb01",
        "028da77339c1e1c7de5f00bdd552a043e435eedade0b6c83def40b8ac56156d563"
      ],
      "is_coinbase": false,
      "sequence": 4294967294
    },
    {
      "txid": "767157ef16002b664a217cd3a95bb8f841861c67f9d697625bfb0fac1994db93",
      "vout": 0,
      "prevout": {
        "scriptpubkey": "00141277b99adece26c3f9a65b9af1b7964fe732f039",
        "scriptpubkey_asm": "OP_0 OP_PUSHBYTES_20 1277b99adece26c3f9a65b9af1b7964fe732f039",
        "scriptpubkey_type": "v0_p2wpkh",
        "scriptpubkey_address": "bc1qzfmmnxk7ecnv87dxtwd0rdukflnn9upe5mnuv8",
        "value": 653030
      },
      "scriptsig": "",
      "scriptsig_asm": "",
      "witness": [
        "304402207897cff0faaa1a640a107051387c07d663dcc4697de807580b6f38de1852fbf5022055eeee3ed591952d2efa4d06e6ffc5d805e2e7a138f2049c9187802f99facd7401",
        "03ac737ba0bb72697a3a9f77327164207bfc6162a5446ff676dcd068094915a95c"
      ],
      "is_coinbase": false,
      "sequence": 4294967294
    },
    {
      "txid": "683428a09fa939561f1b005e485fede93c5a2edffc75d507b8951134c02e8b07",
      "vout": 10,
      "prevout": {
        "scriptpubkey": "0014103dbd274f432570f8304615fe7c453bd0b4ff1b",
        "scriptpubkey_asm": "OP_0 OP_PUSHBYTES_20 103dbd274f432570f8304615fe7c453bd0b4ff1b",
        "scriptpubkey_type": "v0_p2wpkh",
        "scriptpubkey_address": "bc1qzq7m6f60gvjhp7psgc2lulz980gtflcmj4vc4f",
        "value": 502869
      },
      "scriptsig": "",
      "scriptsig_asm": "",
      "witness": [
        "304402203ace04dbc700d105e904a4204c2a884feca77e884ee77c7d46f1235c996089620220132bdd14539834e6200f08d35af07e553c9d17915fc7907c83dd4405849702f701",
        "038cde5b3b1d48dd0b69a2d38664c44bf0dde0e8ec9cd798d93bd9803500ddaa56"
      ],
      "is_coinbase": false,
      "sequence": 4294967294
    },
    {
      "txid": "959b4875d7b983f4b04b2d0dedddbaa8c19d83c4106000db6c4852dc7fd1d128",
      "vout": 131,
      "prevout": {
        "scriptpubkey": "00148cc3e3349fda10c0889198884fd05a2796e867e2",
        "scriptpubkey_asm": "OP_0 OP_PUSHBYTES_20 8cc3e3349fda10c0889198884fd05a2796e867e2",
        "scriptpubkey_type": "v0_p2wpkh",
        "scriptpubkey_address": "bc1q3np7xdylmggvpzy3nzyyl5z6y7twselzxy5knj",
        "value": 34917
      },
      "scriptsig": "",
      "scriptsig_asm": "",
      "witness": [
        "3044022050c9ce519a2c6426e0943c2f5093bec1f1232c23e5bc22e9a38a37e359b81317022027964cd15a9ab8464f2d955f66ff2a10799046c6090e7dfa4523ecc9c357aec801",
        "03f095af1806dda93e238821b4892a562f2a46911d34faae9833ee46ae47ebd80c"
      ],
      "is_coinbase": false,
      "sequence": 4294967294
    },
    {
      "txid": "23ea49f723d0bfcfcf933c6914e5a3f92e4fca0a90a2799f2f8bf7fa3bfd28d8",
      "vout": 91,
      "prevout": {
        "scriptpubkey": "00147bea6af0259609abb13aa03269b57fdc9cd0d7e4",
        "scriptpubkey_asm": "OP_0 OP_PUSHBYTES_20 7bea6af0259609abb13aa03269b57fdc9cd0d7e4",
        "scriptpubkey_type": "v0_p2wpkh",
        "scriptpubkey_address": "bc1q004x4up9jcy6hvf65qexndtlmjwdp4lygqq0de",
        "value": 716340
      },
      "scriptsig": "",
      "scriptsig_asm": "",
      "witness": [
        "3044022016a2018118c0ab13161349477eb33604d5daa0ea9bdae7b1081936bf33c4beef022028897bbfebce8aff7e96bd5774b0c72687548f23df489ea4551179aef0fe0ed001",
        "025a5c36e46cffd27ea018bc2b7cd3ac6105dd3d5bed7e793f04047bbc45a7e381"
      ],
      "is_coinbase": false,
      "sequence": 4294967294
    },
    {
      "txid": "4148b8348d26cc99dd0f588f0d9f0e471e7aefa7f3063def95d7893e757426f2",
      "vout": 3,
      "prevout": {
        "scriptpubkey": "0014ae2886d297e4f269eedf442d89eb86bea25b7192",
        "scriptpubkey_asm": "OP_0 OP_PUSHBYTES_20 ae2886d297e4f269eedf442d89eb86bea25b7192",
        "scriptpubkey_type": "v0_p2wpkh",
        "scriptpubkey_address": "bc1q4c5gd55hunexnmklgskcn6uxh639kuvjesel0k",
        "value": 516443
      },
      "scriptsig": "",
      "scriptsig_asm": "",
      "witness": [
        "304402201683fb1167f85d77142ab19f9742839c8e2d260c7f68e84cf864f459b85e4f33022020107b4663dc244a8a34c4a80e6362288bfcd9d4a69b6ff7b195e5a564b9b17701",
        "0367bc481c7e8858fd8b74945e10eb7d35e2b978ebaf71e7901ab83dde095987d7"
      ],
      "is_coinbase": false,
      "sequence": 4294967294
    }
  ],
  "vout": [
    {
      "scriptpubkey": "a9142b994b08a59e920c09cde8b90a01ca83c3f8c16387",
      "scriptpubkey_asm": "OP_HASH160 OP_PUSHBYTES_20 2b994b08a59e920c09cde8b90a01ca83c3f8c163 OP_EQUAL",
      "scriptpubkey_type": "p2sh",
      "scriptpubkey_address": "35fYcnR2oeFRZwZJVDfZpdbQHMNxk4eFSY",
      "value": 10215000
    }
  ],
  "size": 1228,
  "weight": 2338,
  "fee": 18237,
  "status": {
    "confirmed": true,
    "block_height": 834638,
    "block_hash": "000000000000000000025f742c626208ac87e0b7d15054abb4a19ca2d735a54e",
    "block_time": 1710405325
  },
  "hex": "02000000000108c743540aaeb7ef9b1f7dcd24e18ccc38c8e5c6e5caa6701e90691194689e9a2e0400000000feffffff3f65bcf634dd632d2d7eb98e2ab405e2702e24c0d9f7af06447e7250b63c58000000000000feffffff62d67667d1c6891fda962b1f1f37100336b6d3db7b6c6a0ce0d72bc7d440ffb18f00000000feffffff93db9419ac0ffb5b6297d6f9671c8641f8b85ba9d37c214a662b0016ef5771760000000000feffffff078b2ec0341195b807d575fcdf2e5a3ce9ed5f485e001b1f5639a99fa02834680a00000000feffffff28d1d17fdc52486cdb006010c4839dc1a8badded0d2d4bb0f483b9d775489b958300000000feffffffd828fd3bfaf78b2f9f79a2900aca4f2ef9a3e514693c93cfcfbfd023f749ea235b00000000fefffffff22674753e89d795ef3d06f3a7ef7a1e470e9f0d8f580fdd99cc268d34b848410300000000feffffff0158de9b000000000017a9142b994b08a59e920c09cde8b90a01ca83c3f8c16387024730440220721650dc8dd8fd8bfcadf3318c1049c16cac33f52e8cdb0ae7704b2e97585a83022030954cdcb2f85307c54c01f17873607f811f8c7a0698727a4c9d0f2a527c3906012103406d2074178e0093c70ae42abdd55a6cef8352fa0ade4fb95cd7315374f0b4ea02473044022075adb7898a7972086083452f2606aa8b43e35a3e535cf42f43764756d4f8557b022064868f1b4f2d1ca804a36d267f41cd2ba86075e478cd569537c4059a04846c6b012103ac737ba0bb72697a3a9f77327164207bfc6162a5446ff676dcd068094915a95c024730440220741fab8649de2b63ea59615b16180753b97531584dc9d44634aa7d53e3d140c1022062c1d67f0782669463d750912f1eb48d4391e33b18938929a9dd2b3a49fdf3cb0121028da77339c1e1c7de5f00bdd552a043e435eedade0b6c83def40b8ac56156d5630247304402207897cff0faaa1a640a107051387c07d663dcc4697de807580b6f38de1852fbf5022055eeee3ed591952d2efa4d06e6ffc5d805e2e7a138f2049c9187802f99facd74012103ac737ba0bb72697a3a9f77327164207bfc6162a5446ff676dcd068094915a95c0247304402203ace04dbc700d105e904a4204c2a884feca77e884ee77c7d46f1235c996089620220132bdd14539834e6200f08d35af07e553c9d17915fc7907c83dd4405849702f70121038cde5b3b1d48dd0b69a2d38664c44bf0dde0e8ec9cd798d93bd9803500ddaa5602473044022050c9ce519a2c6426e0943c2f5093bec1f1232c23e5bc22e9a38a37e359b81317022027964cd15a9ab8464f2d955f66ff2a10799046c6090e7dfa4523ecc9c357aec8012103f095af1806dda93e238821b4892a562f2a46911d34faae9833ee46ae47ebd80c02473044022016a2018118c0ab13161349477eb33604d5daa0ea9bdae7b1081936bf33c4beef022028897bbfebce8aff7e96bd5774b0c72687548f23df489ea4551179aef0fe0ed00121025a5c36e46cffd27ea018bc2b7cd3ac6105dd3d5bed7e793f04047bbc45a7e3810247304402201683fb1167f85d77142ab19f9742839c8e2d260c7f68e84cf864f459b85e4f33022020107b4663dc244a8a34c4a80e6362288bfcd9d4a69b6ff7b195e5a564b9b17701210367bc481c7e8858fd8b74945e10eb7d35e2b978ebaf71e7901ab83dde095987d74dbc0c00"
}