{
  "txid": "f7db71aea6516a2c2eca3fcc20a0bfddeec3659ac0696e61beb72b5df7635e87",
  "version": 2,
  "locktime": 0,
  "vin": [
    {
      "txid": "24a914e5141c45e11d3cc88a34adc69b9d479278f0c71f07c604d39ad1168493",
      "vout": 1,
      "prevout": {
        "scriptpubkey": "76a9145a833e0a3bfd27429b0925f1ab1237f8a8b7655488ac",
        "scriptpubkey_asm": "OP_DUP OP_HASH160 OP_PUSHBYTES_20 5a833e0a3bfd27429b0925f1ab1237f8a8b76554 OP_EQUALVERIFY OP_CHECKSIG",
        "scriptpubkey_type": "p2pkh",
        "scriptpubkey_address": "19Fb39GqoyuePDJkwdL6rRTgFcs6j88M6x",
        "value": 82891
      },
      "scriptsig": "4830450221008863885f727d7727e5dae3f9dce56e9679671858bc4bbdf894095fc88f47ce55022028f19d0b1fd06f3c375f47871c9a67493b08cb03bfda7240dd97c08b68e5a1a9012103e35841fba89127e729f5e16a0482f89951834391759785f26810fc601e3a7b0e",
      "scriptsig_asm": "OP_PUSHBYTES_72 30450221008863885f727d7727e5dae3f9dce56e9679671858bc4bbdf894095fc88f47ce55022028f19d0b1fd06f3c375f47871c9a67493b08cb03bfda7240dd97c08b68e5a1a901 OP_PUSHBYTES_33 03e35841fba89127e729f5e16a0482f89951834391759785f26810fc601e3a7b0e",
      "is_coinbase": false,
      "sequence": 4294967293
    },
    {
      "txid": "562fbbe9845dc387ce9e9d4d13adf1f98e6c3bd642c58883e01fa1a07a57a9c7",
      "vout": 0,
      "prevout": {
        "scriptpubkey": "76a914324c59280a771723d88b7f094498779d94fba26f88ac",
        "scriptpubkey_asm": "OP_DUP OP_HASH160 OP_PUSHBYTES_20 324c59280a771723d88b7f094498779d94fba26f OP_EQUALVERIFY OP_CHECKSIG",
        "scriptpubkey_type": "p2pkh",
        "scriptpubkey_address": "15axFN1CG4MUKSE4UXWSgBhc98Yoac9Xdv",
        "value": 1409650
      },
      "scriptsig": "47304402204a6eed94268ad8904603227e4957bcb228fe9f24d30fc4b1d4e75ad304be27b1022045d1a8f024d3c59f3e67711a65356cc86f862f23c6e12420874456adb8ca61d801210373e7c2dcb61f0590abe9a31768d90f4311bf69d54850b8049052b6e4d1fbf352",
      "scriptsig_asm": "OP_PUSHBYTES_71 304402204a6eed94268ad8904603227e4957bcb228fe9f24d30fc4b1d4e75ad304be27b1022045d1a8f024d3c59f3e67711a65356cc86f862f23c6e12420874456adb8ca61d801 OP_PUSHBYTES_33 0373e7c2dcb61f0590abe9a31768d90f4311bf69d54850b8049052b6e4d1fbf352",
      "is_coinbase": false,
      "sequence": 4294967293
    },
    {
      "txid": "a1d9bbba8eb6a50409033cde6631394f45a4742a1bee03df6a4d3b3f968638c3",
      "vout": 1,
      "prevout": {
        "scriptpubkey": "76a914e0985a6eb1b0f48f579ccd7bf29a5fdcd389577c88ac",
        "scriptpubkey_asm": "OP_DUP OP_HASH160 OP_PUSHBYTES_20 e0985a6eb1b0f48f579ccd7bf29a5fdcd389577c OP_EQUALVERIFY OP_CHECKSIG",
        "scriptpubkey_type": "p2pkh",
        "scriptpubkey_address": "1MUYsfFbgF2f8e7ttaLeZFLoo4RF1xkbzk",
        "value": 33718
      },
      "scriptsig": "4730440220384e924f93ad383ee8f685dd838bdc5120773ef4c9776ff8eea525ae61379b5702201908078f7dcb0ebb3d549e886aa70bb847624de8a8f6c8c3c69c576e03925683012102574ec23cccfc7ac246ade8f7eeac1802def64ea080cdee3e82080cb5ee5fbc34",
      "scriptsig_asm": "OP_PUSHBYTES_71 30440220384e924f93ad383ee8f685dd838bdc5120773ef4c9776ff8eea525ae61379b5702201908078f7dcb0ebb3d549e886aa70bb847624de8a8f6c8c3c69c576e0392568301 OP_PUSHBYTES_33 02574ec23cccfc7ac246ade8f7eeac1802def64ea080cdee3e82080cb5ee5fbc34",
      "is_coinbase": false,
      "sequence": 4294967293
    },
    {
      "txid": "208a28c56ff127afde14af30aa0f475f8099f54cc8e4ec451d1c047a0d1cea8a",
      "vout": 72,
      "prevout": {
        "scriptpubkey": "76a914324c59280a771723d88b7f094498779d94fba26f88ac",
        "scriptpubkey_asm": "OP_DUP OP_HASH160 OP_PUSHBYTES_20 324c59280a771723d88b7f094498779d94fba26f OP_EQUALVERIFY OP_CHECKSIG",
        "scriptpubkey_type": "p2pkh",
        "scriptpubkey_address": "15axFN1CG4MUKSE4UXWSgBhc98Yoac9Xdv",
        "value": 459746
      },
      "scriptsig": "473044022025261617648ac25110a2dfc4a1a2f92582e28b237d3cd5523e6bc69f8118814e02207a133e686c6646dd8af147abd8e128989a8d3d5724cde5d2f4cf6b15e32e68f901210373e7c2dcb61f0590abe9a31768d90f4311bf69d54850b8049052b6e4d1fbf352",
      "scriptsig_asm": "OP_PUSHBYTES_71 3044022025261617648ac25110a2dfc4a1a2f92582e28b237d3cd5523e6bc69f8118814e02207a133e686c6646dd8af147abd8e128989a8d3d5724cde5d2f4cf6b15e32e68f901 OP_PUSHBYTES_33 0373e7c2dcb61f0590abe9a31768d90f4311bf69d54850b8049052b6e4d1fbf352",
      "is_coinbase": false,
      "sequence": 4294967293
    }
  ],
  "vout": [
    {
      "scriptpubkey": "76a9143c44d698f0a39b7bf0f742ac422130018c27319388ac",
      "scriptpubkey_asm": "OP_DUP OP_HASH160 OP_PUSHBYTES_20 3c44d698f0a39b7bf0f742ac422130018c273193 OP_EQUALVERIFY OP_CHECKSIG",
      "scriptpubkey_type": "p2pkh",
      "scriptpubkey_address": "16Vg1UepA9e7VWmEENiqrA8q4t3TKR8eMB",
      "value": 1977471
    }
  ],
  "size": 633,
  "weight": 2532,
  "fee": 8534,
  "status": {
    "confirmed": true,
    "block_height": 834460,
    "block_hash": "00000000000000000000484a79b643b2524bbce82e5d8a442013fa5b8905ed98",
    "block_time": 1710307468
  },
  "hex": "0200000004938416d19ad304c6071fc7f07892479d9bc6ad348ac83c1de1451c14e514a924010000006b4830450221008863885f727d7727e5dae3f9dce56e9679671858bc4bbdf894095fc88f47ce55022028f19d0b1fd06f3c375f47871c9a67493b08cb03bfda7240dd97c08b68e5a1a9012103e35841fba89127e729f5e16a0482f89951834391759785f26810fc601e3a7b0efdffffffc7a9577aa0a11fe08388c542d63b6c8ef9f1ad134d9d9ece87c35d84e9bb2f56000000006a47304402204a6eed94268ad8904603227e4957bcb228fe9f24d30fc4b1d4e75ad304be27b1022045d1a8f024d3c59f3e67711a65356cc86f862f23c6e12420874456adb8ca61d801210373e7c2dcb61f0590abe9a31768d90f4311bf69d54850b8049052b6e4d1fbf352fdffffffc33886963f3b4d6adf03ee1b2a74a4454f393166de3c030904a5b68ebabbd9a1010000006a4730440220384e924f93ad383ee8f685dd838bdc5120773ef4c9776ff8eea525ae61379b5702201908078f7dcb0ebb3d549e886aa70bb847624de8a8f6c8c3c69c576e03925683012102574ec23cccfc7ac246ade8f7eeac1802def64ea080cdee3e82080cb5ee5fbc34fdffffff8aea1c0d7a041c1d45ece4c84cf599805f470faa30af14deaf27f16fc5288a20480000006a473044022025261617648ac25110a2dfc4a1a2f92582e28b237d3cd5523e6bc69f8118814e02207a133e686c6646dd8af147abd8e128989a8d3d5724cde5d2f4cf6b15e32e68f901210373e7c2dcb61f0590abe9a31768d90f4311bf69d54850b8049052b6e4d1fbf352fdffffff017f2c1e00000000001976a9143c44d698f0a39b7bf0f742ac422130018c27319388ac00000000"
}