{
  "txid": "f7ee1d9857f23adb6df9fd8217beb528bdc0691f0011cdc5da4b9c98e3415cb2",
  "version": 2,
  "locktime": 0,
  "vin": [
    {
      "txid": "db27efe8f39b95ee07f273c2ecb63388f5cdc22781bb184a9f78f23980944909",
      "vout": 0,
      "prevout": {
        "scriptpubkey": "512022d26a6ef62b6888a5467f487b60fca1c513ff904b2a4b3ffdf3449d42d8e2e0",
        "scriptpubkey_asm": "OP_PUSHNUM_1 OP_PUSHBYTES_32 22d26a6ef62b6888a5467f487b60fca1c513ff904b2a4b3ffdf3449d42d8e2e0",
        "scriptpubkey_type": "v1_p2tr",
        "scriptpubkey_address": "bc1pytfx5mhk9d5g3f2x0ay8kc8u58z38lusfv4yk0la7dzf6skcutsqeeztgs",
        "value": 27000
      },
      "scriptsig": "",
      "scriptsig_asm": "",
      "witness": [
        "d9eeb832aa3d6bb43ad0dea47e7a523135fa3599f048648c79529da8235dae6339afdd08ff7a8e82cc00b18ea694752beb3c92c1bb11c7c5a81eb870c0044bd9",
        "20e732c77b65dacdeab3cac9cf3e83d95eb36a7f964c5513301e77c0e4547dba54ac0063036f726401011e6170706c69636174696f6e2f6a736f6e3b636861727365743d7574662d38004cd37b2270223a22706f772d3230222c226f70223a226d696e74222c227469636b223a2250455045222c22616d74223a2231303030222c22736f6c7574696f6e223a22504550453a626331707136676b767964716164703375666734666865777770757771743730716b37396d6c6b6d37706b356a38657967363870796632716379703832633a303030303030303030303030303030303030303139393431613561653132383937363539383134343239323533333030353762306461393666336465613163353a3538353135333130313833227d68",
        "c09c5626bdc3533ba8aa729d0f30d751dd071a8b8f6bd9e78daf679d343f12d20e"
      ],
      "is_coinbase": false,
      "sequence": 4294967293
    }
  ],
  "vout": [
    {
      "scriptpubkey": "512006916611a0eb431e25154df2e7078e02fcf05bc5dfedbf06d491f24468e12254",
      "scriptpubkey_asm": "OP_PUSHNUM_1 OP_PUSHBYTES_32 06916611a0eb431e25154df2e7078e02fcf05bc5dfedbf06d491f24468e12254",
      "scriptpubkey_type": "v1_p2tr",
      "scriptpubkey_address": "bc1pq6gkvydqadp3ufg4fhewwpuwqt70qk79mlkm7pk5j8eyg68pyf2qcyp82c",
      "value": 546
    },
    {
      "scriptpubkey": "5120b48656f7b8c1803b9b1f22a127569b197689d875eac0ea27f026db59efad0a10",
      "scriptpubkey_asm": "OP_PUSHNUM_1 OP_PUSHBYTES_32 b48656f7b8c1803b9b1f22a127569b197689d875eac0ea27f026db59efad0a10",
      "scriptpubkey_type": "v1_p2tr",
      "scriptpubkey_address": "bc1pkjr9daaccxqrhxcly2sjw45mr9mgnkr4atqw5flsymd4nmadpggqfd33mn",
      "value": 2862
    },
    {
      "scriptpubkey": "512007c17f3e6e43960b79dd0743f30a21006d276658b58a1a780dffca6ad7a37fe1",
      "scriptpubkey_asm": "OP_PUSHNUM_1 OP_PUSHBYTES_32 07c17f3e6e43960b79dd0743f30a21006d276658b58a1a780dffca6ad7a37fe1",
      "scriptpubkey_type": "v1_p2tr",
      "scriptpubkey_address": "bc1pqlqh70nwgwtqk7waqaplxz3pqpkjwejckk9p57qdll9x44ar0lssdywvkf",
      "value": 2850
    },
    {
      "scriptpubkey": "51204e1bd1f4a775ef30605273101588576d4d58854994adebb581f470cc9330f2e7",
      "scriptpubkey_asm": "OP_PUSHNUM_1 OP_PUSHBYTES_32 4e1bd1f4a775ef30605273101588576d4d58854994adebb581f470cc9330f2e7",
      "scriptpubkey_type": "v1_p2tr",
      "scriptpubkey_address": "bc1pfcdara98whhnqczjwvgptzzhd4x43p2fjjk7hdvp73cveyes7tnsy2fa3s",
      "value": 2862
    },
    {
      "scriptpubkey": "51207b968f84243a067d4db7970d793974271d841c53d9d30401813ff0d21e9888f1",
      "scriptpubkey_asm": "OP_PUSHNUM_1 OP_PUSHBYTES_32 7b968f84243a067d4db7970d793974271d841c53d9d30401813ff0d21e9888f1",
      "scriptpubkey_type": "v1_p2tr",
      "scriptpubkey_address": "bc1p0wtglppy8gr86ndhjuxhjwt5yuwcg8znm8fsgqvp8lcdy85c3rcshpk8s4",
      "value": 2862
    },
    {
      "scriptpubkey": "00144243255563cca0ee2edf8493d13eb8be0f186ce7",
      "scriptpubkey_asm": "OP_0 OP_PUSHBYTES_20 4243255563cca0ee2edf8493d13eb8be0f186ce7",
      "scriptpubkey_type": "v0_p2wpkh",
      "scriptpubkey_address": "bc1qgfpj24trejswutklsjfaz04chc83sm88je7xrg",
      "value": 10266
    }
  ],
  "size": 690,
  "weight": 1581,
  "fee": 4752,
  "status": {
    "confirmed": true,
    "block_height": 834460,
    "block_hash": "00000000000000000000484a79b643b2524bbce82e5d8a442013fa5b8905ed98",
    "block_time": 1710307468
  },
  "hex": "020000000001010949948039f2789f4a18bb8127c2cdf58833b6ecc273f207ee959bf3e8ef27db0000000000fdffffff06220200000000000022512006916611a0eb431e25154df2e7078e02fcf05bc5dfedbf06d491f24468e122542e0b000000000000225120b48656f7b8c1803b9b1f22a127569b197689d875eac0ea27f026db59efad0a10220b00000000000022512007c17f3e6e43960b79dd0743f30a21006d276658b58a1a780dffca6ad7a37fe12e0b0000000000002251204e1bd1f4a775ef30605273101588576d4d58854994adebb581f470cc9330f2e72e0b0000000000002251207b968f84243a067d4db7970d793974271d841c53d9d30401813ff0d21e9888f11a280000000000001600144243255563cca0ee2edf8493d13eb8be0f186ce70340d9eeb832aa3d6bb43ad0dea47e7a523135fa3599f048648c79529da8235dae6339afdd08ff7a8e82cc00b18ea694752beb3c92c1bb11c7c5a81eb870c0044bd9fd200120e732c77b65dacdeab3cac9cf3e83d95eb36a7f964c5513301e77c0e4547dba54ac0063036f726401011e6170706c69636174696f6e2f6a736f6e3b636861727365743d7574662d38004cd37b2270223a22706f772d3230222c226f70223a226d696e74222c227469636b223a2250455045222c22616d74223a2231303030222c22736f6c7574696f6e223a22504550453a626331707136676b767964716164703375666734666865777770757771743730716b37396d6c6b6d37706b356a38657967363870796632716379703832633a303030303030303030303030303030303030303139393431613561653132383937363539383134343239323533333030353762306461393666336465613163353a3538353135333130313833227d6821c09c5626bdc3533ba8aa729d0f30d751dd071a8b8f6bd9e78daf679d343f12d20e00000000"
}