{
  "txid": "f802785b2d0a170b2fe5081469792bf2daa1904688bfc0518a4e70511b641713",
  "version": 1,
  "locktime": 0,
  "vin": [
    {
      "txid": "a62a1dd31befa1df1d86b3b5a4d99f5d175367fb4a3784af64bccd2ac3937e3e",
      "vout": 0,
      "prevout": {
        "scriptpubkey": "5120dbddd3d221f165bfb977d2498f568b9b80dcce90fddd83ab6a9d5c1ccf842190",
        "scriptpubkey_asm": "OP_PUSHNUM_1 OP_PUSHBYTES_32 dbddd3d221f165bfb977d2498f568b9b80dcce90fddd83ab6a9d5c1ccf842190",
        "scriptpubkey_type": "v1_p2tr",
        "scriptpubkey_address": "bc1pm0wa853p79jmlwth6fyc745tnwqden5slhwc82m2n4wpenuyyxgqcl5u7u",
        "value": 13996
      },
      "scriptsig": "",
      "scriptsig_asm": "",
      "witness": [
        "cf1c4e5b75d9fe9a6e13080b5aef3df9cdaf0aef6346d88c1ad9456a70042f79505dc8ca2fbf0501c4ce71d38fac3be7f8957ac94e5b32743825fe88685185b0",
        "20bc4fb41b4354cc630567dc331356b372538c1d958e06034b871a07f9039572bfac0063036f7264010118746578742f706c61696e3b636861727365743d7574662d3800407b2270223a226272632d3230222c226f70223a227472616e73666572222c227469636b223a2273617473222c22616d74223a223333313939393832343630227d68",
        "c0bc4fb41b4354cc630567dc331356b372538c1d958e06034b871a07f9039572bf"
      ],
      "is_coinbase": false,
      "sequence": 4294967293
    }
  ],
  "vout": [
    {
      "scriptpubkey": "0014bf1916dc33dbdd65f60d8b1f65eb35e8120835fc",
      "scriptpubkey_asm": "OP_0 OP_PUSHBYTES_20 bf1916dc33dbdd65f60d8b1f65eb35e8120835fc",
      "scriptpubkey_type": "v0_p2wpkh",
      "scriptpubkey_address": "bc1qhuv3dhpnm0wktasd3v0kt6e4aqfqsd0uhfdu7d",
      "value": 6846
    }
  ],
  "size": 319,
  "weight": 565,
  "fee": 7150,
  "status": {
    "confirmed": true,
    "block_height": 834638,
    "block_hash": "000000000000000000025f742c626208ac87e0b7d15054abb4a19ca2d735a54e",
    "block_time": 1710405325
  },
  "hex": "010000000001013e7e93c32acdbc64af84374afb6753175d9fd9a4b5b3861ddfa1ef1bd31d2aa60000000000fdffffff01be1a000000000000160014bf1916dc33dbdd65f60d8b1f65eb35e8120835fc0340cf1c4e5b75d9fe9a6e13080b5aef3df9cdaf0aef6346d88c1ad9456a70042f79505dc8ca2fbf0501c4ce71d38fac3be7f8957ac94e5b32743825fe88685185b08620bc4fb41b4354cc630567dc331356b372538c1d958e06034b871a07f9039572bfac0063036f7264010118746578742f706c61696e3b636861727365743d7574662d3800407b2270223a226272632d3230222c226f70223a227472616e73666572222c227469636b223a2273617473222c22616d74223a223333313939393832343630227d6821c0bc4fb41b4354cc630567dc331356b372538c1d958e06034b871a07f9039572bf00000000"
}