{
  "txid": "f8115a1b958fe276baa599d951a8bb118f6317c3c5550000aee5487a5eb8a8bc",
  "version": 2,
  "locktime": 0,
  "vin": [
    {
      "txid": "a742fe99abeff075cd9bfbabc3e5fc62e081573da6ecf715590d05ba643a7fd6",
      "vout": 0,
      "prevout": {
        "scriptpubkey": "51200a39130c34e07380f6f942631c03b6daf23cc1f7ee22512c35fc5d62744e6f24",
        "scriptpubkey_asm": "OP_PUSHNUM_1 OP_PUSHBYTES_32 0a39130c34e07380f6f942631c03b6daf23cc1f7ee22512c35fc5d62744e6f24",
        "scriptpubkey_type": "v1_p2tr",
        "scriptpubkey_address": "bc1ppgu3xrp5upecpahegf33cqakmteres0hac39ztp4l3wkyazwdujq59fg3d",
        "value": 546
      },
      "scriptsig": "",
      "scriptsig_asm": "",
      "witness": [
        "117558e4aa94b3327d4f2155918db844159325a0c384c588c3964a7be35f00be8413d761f8b48df7ee8968c636b91cf721bbfaf96255cb4ae62fc1e93875268f"
      ],
      "is_coinbase": false,
      "sequence": 4294967295
    },
    {
      "txid": "167221f2bb37dd7a46052f9ac09580b4b5b3dcab69850489dafeb8dec7f3548f",
      "vout": 1,
      "prevout": {
        "scriptpubkey": "51200a39130c34e07380f6f942631c03b6daf23cc1f7ee22512c35fc5d62744e6f24",
        "scriptpubkey_asm": "OP_PUSHNUM_1 OP_PUSHBYTES_32 0a39130c34e07380f6f942631c03b6daf23cc1f7ee22512c35fc5d62744e6f24",
        "scriptpubkey_type": "v1_p2tr",
        "scriptpubkey_address": "bc1ppgu3xrp5upecpahegf33cqakmteres0hac39ztp4l3wkyazwdujq59fg3d",
        "value": 251885
      },
      "scriptsig": "",
      "scriptsig_asm": "",
      "witness": [
        "98b8046407b9bfe0b309eca0539021e5795e32b5e8a354891a22634867c690251fe699b54ddae0b4d1e3d3de20c0019af8023f001194bde6e1f62ad6e32c8a15"
      ],
      "is_coinbase": false,
      "sequence": 4294967295
    }
  ],
  "vout": [
    {
      "scriptpubkey": "51204415742a6cf7c8df3c796081f4c3dc78f7aac804db37694afbe8de33d5958803",
      "scriptpubkey_asm": "OP_PUSHNUM_1 OP_PUSHBYTES_32 4415742a6cf7c8df3c796081f4c3dc78f7aac804db37694afbe8de33d5958803",
      "scriptpubkey_type": "v1_p2tr",
      "scriptpubkey_address": "bc1pgs2hg2nv7lyd70revzqlfs7u0rm64jqymvmkjjhmar0r84v43qps5x6gd2",
      "value": 546
    },
    {
      "scriptpubkey": "51200a39130c34e07380f6f942631c03b6daf23cc1f7ee22512c35fc5d62744e6f24",
      "scriptpubkey_asm": "OP_PUSHNUM_1 OP_PUSHBYTES_32 0a39130c34e07380f6f942631c03b6daf23cc1f7ee22512c35fc5d62744e6f24",
      "scriptpubkey_type": "v1_p2tr",
      "scriptpubkey_address": "bc1ppgu3xrp5upecpahegf33cqakmteres0hac39ztp4l3wkyazwdujq59fg3d",
      "value": 249129
    }
  ],
  "size": 312,
  "weight": 846,
  "fee": 2756,
  "status": {
    "confirmed": true,
    "block_height": 834552,
    "block_hash": "00000000000000000001dd0468a70c94f619251d286585cff57aeb4bd9ede330",
    "block_time": 1710355598
  },
  "hex": "02000000000102d67f3a64ba050d5915f7eca63d5781e062fce5c3abfb9bcd75f0efab99fe42a70000000000ffffffff8f54f3c7deb8feda89048569abdcb3b5b48095c09a2f05467add37bbf22172160100000000ffffffff0222020000000000002251204415742a6cf7c8df3c796081f4c3dc78f7aac804db37694afbe8de33d595880329cd0300000000002251200a39130c34e07380f6f942631c03b6daf23cc1f7ee22512c35fc5d62744e6f240140117558e4aa94b3327d4f2155918db844159325a0c384c588c3964a7be35f00be8413d761f8b48df7ee8968c636b91cf721bbfaf96255cb4ae62fc1e93875268f014098b8046407b9bfe0b309eca0539021e5795e32b5e8a354891a22634867c690251fe699b54ddae0b4d1e3d3de20c0019af8023f001194bde6e1f62ad6e32c8a1500000000"
}