{
  "txid": "f818642c0ce3294fa440a0d581a4527b8e2e0e70e3f47cd721c0c3e100743d0b",
  "version": 2,
  "locktime": 834459,
  "vin": [
    {
      "txid": "880528793a6907546eafa7e388887cfa559bc74cd33f69b1d95706ed7c88b792",
      "vout": 1,
      "prevout": {
        "scriptpubkey": "5120b306d00325682db855d15bf93cc7d42c4ba4163306a298a3bc7af6fbeff12dbe",
        "scriptpubkey_asm": "OP_PUSHNUM_1 OP_PUSHBYTES_32 b306d00325682db855d15bf93cc7d42c4ba4163306a298a3bc7af6fbeff12dbe",
        "scriptpubkey_type": "v1_p2tr",
        "scriptpubkey_address": "bc1pkvrdqqe9dqkms4w3t0une3759396g93nq63f3gau0tm0hml39klqwklspj",
        "value": 46559289
      },
      "scriptsig": "",
      "scriptsig_asm": "",
      "witness": [
        "0b5ce9f08acb8a520cdc947b8544af515ca9ed43e2b64e77baedf4c76befdb1e1f0a92c02cfa034ea0ebf0993c14328982222e1b2088e6b8711cf69fa4e69ead"
      ],
      "is_coinbase": false,
      "sequence": 4294967293
    }
  ],
  "vout": [
    {
      "scriptpubkey": "0020bf800f12c411cde0c2bf5fa455bf1c2963182c1ff16560458bb31fe6e3350cf6",
      "scriptpubkey_asm": "OP_0 OP_PUSHBYTES_32 bf800f12c411cde0c2bf5fa455bf1c2963182c1ff16560458bb31fe6e3350cf6",
      "scriptpubkey_type": "v0_p2wsh",
      "scriptpubkey_address": "bc1qh7qq7ykyz8x7ps4lt7j9t0cu9933stql79jkq3vtkv07dce4pnmqrn58kj",
      "value": 172456
    },
    {
      "scriptpubkey": "5120d053c290371148dd75f82b8e8b40aa43c2f5df274062e8775d2ca4831c42f7a1",
      "scriptpubkey_asm": "OP_PUSHNUM_1 OP_PUSHBYTES_32 d053c290371148dd75f82b8e8b40aa43c2f5df274062e8775d2ca4831c42f7a1",
      "scriptpubkey_type": "v1_p2tr",
      "scriptpubkey_address": "bc1p6pfu9yphz9yd6a0c9w8gks92g0p0the8gp3wsa6a9jjgx8zz77ss4cm4ye",
      "value": 46384862
    }
  ],
  "size": 205,
  "weight": 616,
  "fee": 1971,
  "status": {
    "confirmed": true,
    "block_height": 834460,
    "block_hash": "00000000000000000000484a79b643b2524bbce82e5d8a442013fa5b8905ed98",
    "block_time": 1710307468
  },
  "hex": "0200000000010192b7887ced0657d9b1693fd34cc79b55fa7c8888e3a7af6e5407693a792805880100000000fdffffff02a8a1020000000000220020bf800f12c411cde0c2bf5fa455bf1c2963182c1ff16560458bb31fe6e3350cf6dec6c30200000000225120d053c290371148dd75f82b8e8b40aa43c2f5df274062e8775d2ca4831c42f7a101400b5ce9f08acb8a520cdc947b8544af515ca9ed43e2b64e77baedf4c76befdb1e1f0a92c02cfa034ea0ebf0993c14328982222e1b2088e6b8711cf69fa4e69ead9bbb0c00"
}