{
  "txid": "f824e7342eabb60dea659908b2260d74af16e1dcb0cba75242578eb1e1f008ba",
  "version": 1,
  "locktime": 0,
  "vin": [
    {
      "txid": "b7d49cabd2a58119daf7a8bade9b8dce8061721d8462a99b7b2faebd576b1516",
      "vout": 0,
      "prevout": {
        "scriptpubkey": "0014c7735c89d0fae14d247d2ad260771732bde0282f",
        "scriptpubkey_asm": "OP_0 OP_PUSHBYTES_20 c7735c89d0fae14d247d2ad260771732bde0282f",
        "scriptpubkey_type": "v0_p2wpkh",
        "scriptpubkey_address": "bc1qcae4ezwslts56fra9tfxqachx277q2p0jhzsra",
        "value": 404762
      },
      "scriptsig": "",
      "scriptsig_asm": "",
      "witness": [
        "30440220642a663307972df92b9d41f4ef5f3bc9efd3686fb652ab18fb9b05cb4884d4320220187041d3979bb118b9948e66c3ff05a4e91dc5d465a3df761e20116fba75603901",
        "0246c8ffe2ed69171721ebced66ed3f173e9034a70120c54228f22ffc3415c22c4"
      ],
      "is_coinbase": false,
      "sequence": 4294967295
    }
  ],
  "vout": [
    {
      "scriptpubkey": "76a9149fd7dade3cdf357560283be04d5e6bf06047c8d888ac",
      "scriptpubkey_asm": "OP_DUP OP_HASH160 OP_PUSHBYTES_20 9fd7dade3cdf357560283be04d5e6bf06047c8d8 OP_EQUALVERIFY OP_CHECKSIG",
      "scriptpubkey_type": "p2pkh",
      "scriptpubkey_address": "1FaB2NEhdbyEn63vwSQoAYEh11Y4QLJvPb",
      "value": 401711
    }
  ],
  "size": 194,
  "weight": 449,
  "fee": 3051,
  "status": {
    "confirmed": true,
    "block_height": 834638,
    "block_hash": "000000000000000000025f742c626208ac87e0b7d15054abb4a19ca2d735a54e",
    "block_time": 1710405325
  },
  "hex": "0100000000010116156b57bdae2f7b9ba962841d726180ce8d9bdebaa8f7da1981a5d2ab9cd4b70000000000ffffffff012f210600000000001976a9149fd7dade3cdf357560283be04d5e6bf06047c8d888ac024730440220642a663307972df92b9d41f4ef5f3bc9efd3686fb652ab18fb9b05cb4884d4320220187041d3979bb118b9948e66c3ff05a4e91dc5d465a3df761e20116fba75603901210246c8ffe2ed69171721ebced66ed3f173e9034a70120c54228f22ffc3415c22c400000000"
}