{
  "txid": "f830f31e0a2a69c205583041674cd291a26a135616b14c72d7885a333936f60e",
  "version": 2,
  "locktime": 0,
  "vin": [
    {
      "txid": "951f2d31e87e77447bde049b36ca200ca1fbcfa2d7c6a56f399ab8bb7958bac2",
      "vout": 1,
      "prevout": {
        "scriptpubkey": "0014e95eff3506de11d1267c75bec95e5c52d437a5e4",
        "scriptpubkey_asm": "OP_0 OP_PUSHBYTES_20 e95eff3506de11d1267c75bec95e5c52d437a5e4",
        "scriptpubkey_type": "v0_p2wpkh",
        "scriptpubkey_address": "bc1qa9007dgxmcgazfnuwklvjhju2t2r0f0ylqymew",
        "value": 1853948
      },
      "scriptsig": "",
      "scriptsig_asm": "",
      "witness": [
        "3045022100a51858b14276197a50426786a3967020c493f42b123f5986895d3199a64c29cf02203c8e36540a1aac4585293a0df8c9927a7f648b3a3b5fe01f3eac9ec44b4cfca501",
        "02144f47a31bf56de4ec1567acacd3bdcd96441150df9f5181e5ee95f2d81c0af5"
      ],
      "is_coinbase": false,
      "sequence": 4294967295
    }
  ],
  "vout": [
    {
      "scriptpubkey": "0014ed8fc52d6886621c9f3b677bd49da89c60087686",
      "scriptpubkey_asm": "OP_0 OP_PUSHBYTES_20 ed8fc52d6886621c9f3b677bd49da89c60087686",
      "scriptpubkey_type": "v0_p2wpkh",
      "scriptpubkey_address": "bc1qak8u2ttgse3pe8emvaaaf8dgn3sqsa5x5mycm2",
      "value": 90000
    },
    {
      "scriptpubkey": "0014ef0df26879c8b054759db5635e930f79d1a4e491",
      "scriptpubkey_asm": "OP_0 OP_PUSHBYTES_20 ef0df26879c8b054759db5635e930f79d1a4e491",
      "scriptpubkey_type": "v0_p2wpkh",
      "scriptpubkey_address": "bc1qauxly6reezc9gavak434ayc008g6fey3vvfvyu",
      "value": 1761851
    }
  ],
  "size": 223,
  "weight": 562,
  "fee": 2097,
  "status": {
    "confirmed": true,
    "block_height": 834638,
    "block_hash": "000000000000000000025f742c626208ac87e0b7d15054abb4a19ca2d735a54e",
    "block_time": 1710405325
  },
  "hex": "02000000000101c2ba5879bbb89a396fa5c6d7a2cffba10c20ca369b04de7b44777ee8312d1f950100000000ffffffff02905f010000000000160014ed8fc52d6886621c9f3b677bd49da89c600876863be21a0000000000160014ef0df26879c8b054759db5635e930f79d1a4e49102483045022100a51858b14276197a50426786a3967020c493f42b123f5986895d3199a64c29cf02203c8e36540a1aac4585293a0df8c9927a7f648b3a3b5fe01f3eac9ec44b4cfca5012102144f47a31bf56de4ec1567acacd3bdcd96441150df9f5181e5ee95f2d81c0af500000000"
}