{
  "txid": "f8388f594f92679931b90fcd0111aa94b6d1a97bc277d543b841dee3d0dcb29c",
  "version": 1,
  "locktime": 0,
  "vin": [
    {
      "txid": "1d523aefb412d6c1923c4520cf514dd4187bccf78e2b10bcc9432456be782c51",
      "vout": 1,
      "prevout": {
        "scriptpubkey": "76a91483a7e1f18e8815358313fd3909529ed45ea8b50288ac",
        "scriptpubkey_asm": "OP_DUP OP_HASH160 OP_PUSHBYTES_20 83a7e1f18e8815358313fd3909529ed45ea8b502 OP_EQUALVERIFY OP_CHECKSIG",
        "scriptpubkey_type": "p2pkh",
        "scriptpubkey_address": "1D18dpNeitkSbBi4YJEhZohYCW7Jg3N5vX",
        "value": 386377
      },
      "scriptsig": "483045022100a7895aec4bd9d2fb80755345eeb120830365833d9421515aa5e9c7ca7b62d3220220433639cae17adaade183b8c54c38d5993c831baa958d367f7586d000399d037b0121027090352a6800059e5e932a1f7b4a40d24fc37d10b9e2f83669b5dda5d445fe32",
      "scriptsig_asm": "OP_PUSHBYTES_72 3045022100a7895aec4bd9d2fb80755345eeb120830365833d9421515aa5e9c7ca7b62d3220220433639cae17adaade183b8c54c38d5993c831baa958d367f7586d000399d037b01 OP_PUSHBYTES_33 027090352a6800059e5e932a1f7b4a40d24fc37d10b9e2f83669b5dda5d445fe32",
      "is_coinbase": false,
      "sequence": 4294967295
    }
  ],
  "vout": [
    {
      "scriptpubkey": "a914f4dbc4044150395278eacf64022367b805a31d7687",
      "scriptpubkey_asm": "OP_HASH160 OP_PUSHBYTES_20 f4dbc4044150395278eacf64022367b805a31d76 OP_EQUAL",
      "scriptpubkey_type": "p2sh",
      "scriptpubkey_address": "3Q1i4wNNxXeF9ZQmKWyQj51L4e81fkxyMd",
      "value": 108976
    },
    {
      "scriptpubkey": "76a914a1e52d51ff621b829864811ae3bdf3998ea5829988ac",
      "scriptpubkey_asm": "OP_DUP OP_HASH160 OP_PUSHBYTES_20 a1e52d51ff621b829864811ae3bdf3998ea58299 OP_EQUALVERIFY OP_CHECKSIG",
      "scriptpubkey_type": "p2pkh",
      "scriptpubkey_address": "1Fm2LPH1Rg1yHQ2n4BqMvL3gv3wJtoKRU7",
      "value": 274937
    }
  ],
  "size": 224,
  "weight": 896,
  "fee": 2464,
  "status": {
    "confirmed": true,
    "block_height": 834638,
    "block_hash": "000000000000000000025f742c626208ac87e0b7d15054abb4a19ca2d735a54e",
    "block_time": 1710405325
  },
  "hex": "0100000001512c78be562443c9bc102b8ef7cc7b18d44d51cf20453c92c1d612b4ef3a521d010000006b483045022100a7895aec4bd9d2fb80755345eeb120830365833d9421515aa5e9c7ca7b62d3220220433639cae17adaade183b8c54c38d5993c831baa958d367f7586d000399d037b0121027090352a6800059e5e932a1f7b4a40d24fc37d10b9e2f83669b5dda5d445fe32ffffffff02b0a901000000000017a914f4dbc4044150395278eacf64022367b805a31d7687f9310400000000001976a914a1e52d51ff621b829864811ae3bdf3998ea5829988ac00000000"
}