{
  "txid": "f8438c7a53b0eb1d1b198d7acf540cec9db7aaee3a274f892d1f2bd522738b29",
  "version": 1,
  "locktime": 0,
  "vin": [
    {
      "txid": "29e33f021722bf79d7486c6ca130cb25db5bb432b1808ccaf39f07d652f8cb67",
      "vout": 2,
      "prevout": {
        "scriptpubkey": "0014abbda61838e92879febab41ebd262b02b7e4ec0d",
        "scriptpubkey_asm": "OP_0 OP_PUSHBYTES_20 abbda61838e92879febab41ebd262b02b7e4ec0d",
        "scriptpubkey_type": "v0_p2wpkh",
        "scriptpubkey_address": "bc1q4w76vxpcay58nl46ks0t6f3tq2m7fmqdxgj04p",
        "value": 110000
      },
      "scriptsig": "",
      "scriptsig_asm": "",
      "witness": [
        "304502210082ea4ed13d69db4f058329df6aada029918a561204acf67db9407a764e32820c022035b10f63db68f3ea86be598628fd862014d1b74ed79cd2f93e5ed435cd928f2401",
        "03b668b761ed9a34407710258d6c6aa3d8a70313669711c64df31d0769ecebf8c6"
      ],
      "is_coinbase": false,
      "sequence": 4294967295
    },
    {
      "txid": "e20a45af1e1402a6c26dd0238b3dc817cfdac65c2cf696a5ff2c04c1f0f91823",
      "vout": 0,
      "prevout": {
        "scriptpubkey": "00140ffd8dce853110d21224f43d52b6ac06250a98a7",
        "scriptpubkey_asm": "OP_0 OP_PUSHBYTES_20 0ffd8dce853110d21224f43d52b6ac06250a98a7",
        "scriptpubkey_type": "v0_p2wpkh",
        "scriptpubkey_address": "bc1qpl7cmn59xygdyy3y7s749d4vqcjs4x984xkufz",
        "value": 133481
      },
      "scriptsig": "",
      "scriptsig_asm": "",
      "witness": [
        "3044022011b6bb4f03807b3ffad967e0307a232fee36764c838636b0f4dab70cdcf7a63002206be7f4a2d01ebb2dbea41327a9975e90f2e534c015fcb15aec7cf17a792b2bee01",
        "03f499bb6cbcf43f2a135fb0ff3dd81bd19c6f7d7f8245dbbc910e6e2eae6ea82b"
      ],
      "is_coinbase": false,
      "sequence": 4294967295
    }
  ],
  "vout": [
    {
      "scriptpubkey": "00147545c605532d97c269771c60e8392a7798bc8b85",
      "scriptpubkey_asm": "OP_0 OP_PUSHBYTES_20 7545c605532d97c269771c60e8392a7798bc8b85",
      "scriptpubkey_type": "v0_p2wpkh",
      "scriptpubkey_address": "bc1qw4zuvp2n9ktuy6thr3swswf2w7vtezu9tm303w",
      "value": 8025
    },
    {
      "scriptpubkey": "0014245c225eb6821e6b8ab9c4468039511fa5c71476",
      "scriptpubkey_asm": "OP_0 OP_PUSHBYTES_20 245c225eb6821e6b8ab9c4468039511fa5c71476",
      "scriptpubkey_type": "v0_p2wpkh",
      "scriptpubkey_address": "bc1qy3wzyh4ksg0xhz4ec3rgqw23r7juw9rkzhgkax",
      "value": 231700
    }
  ],
  "size": 371,
  "weight": 833,
  "fee": 3756,
  "status": {
    "confirmed": true,
    "block_height": 834638,
    "block_hash": "000000000000000000025f742c626208ac87e0b7d15054abb4a19ca2d735a54e",
    "block_time": 1710405325
  },
  "hex": "0100000000010267cbf852d6079ff3ca8c80b132b45bdb25cb30a16c6c48d779bf2217023fe3290200000000ffffffff2318f9f0c1042cffa596f62c5cc6dacf17c83d8b23d06dc2a602141eaf450ae20000000000ffffffff02591f0000000000001600147545c605532d97c269771c60e8392a7798bc8b851489030000000000160014245c225eb6821e6b8ab9c4468039511fa5c714760248304502210082ea4ed13d69db4f058329df6aada029918a561204acf67db9407a764e32820c022035b10f63db68f3ea86be598628fd862014d1b74ed79cd2f93e5ed435cd928f24012103b668b761ed9a34407710258d6c6aa3d8a70313669711c64df31d0769ecebf8c602473044022011b6bb4f03807b3ffad967e0307a232fee36764c838636b0f4dab70cdcf7a63002206be7f4a2d01ebb2dbea41327a9975e90f2e534c015fcb15aec7cf17a792b2bee012103f499bb6cbcf43f2a135fb0ff3dd81bd19c6f7d7f8245dbbc910e6e2eae6ea82b00000000"
}