{
  "txid": "f848e6676ceba21d1228b9d94675757599498be931c92de90b8ec3be3a694cb7",
  "version": 2,
  "locktime": 0,
  "vin": [
    {
      "txid": "b9f357d83cb3c7e1a11f861540f2ef8f0eb87871f723f91f9a708db0db1bcabf",
      "vout": 22,
      "prevout": {
        "scriptpubkey": "51201fb16995cada8cc0bb8264bb38b8ab84730956e6bbc9576edb5dacae42e4a643",
        "scriptpubkey_asm": "OP_PUSHNUM_1 OP_PUSHBYTES_32 1fb16995cada8cc0bb8264bb38b8ab84730956e6bbc9576edb5dacae42e4a643",
        "scriptpubkey_type": "v1_p2tr",
        "scriptpubkey_address": "bc1pr7ckn9w2m2xvpwuzvjan3w9ts3esj4hxh0y4wmkmtkk2ushy5epsspv4w2",
        "value": 2862
      },
      "scriptsig": "",
      "scriptsig_asm": "",
      "witness": [
        "5e69010be1f68240b85b4a99264640dfdbb7f0755225b2679e9736e12c674cd18bd38046011a12f131a4383bc15c4015f0d090c8d13a8e25137bc99dcd25bea6",
        "206e69376d9bff11e8ad7ed843a1314fd498c9397e5b156e5854d81ba65469ca68ac0063036f726401011e6170706c69636174696f6e2f6a736f6e3b636861727365743d7574662d38004cd37b2270223a22706f772d3230222c226f70223a226d696e74222c227469636b223a2250455045222c22616d74223a2231303030222c22736f6c7574696f6e223a22504550453a62633170646c6a6d747a783365646e716e7572366332786c6c3277726472787a636e72373270333874636a6b736476306b726c67643268737a3279767a6c3a303030303030303030303030303030303030303139393431613561653132383937363539383134343239323533333030353762306461393666336465613163353a3236363032333739363430227d68",
        "c196123be632ec23e42a1daadb49c59b3ad8ca39108d2d31b6eff3b52b525d1622"
      ],
      "is_coinbase": false,
      "sequence": 4294967295
    }
  ],
  "vout": [
    {
      "scriptpubkey": "51206fe5b588d1cb6609f07ac28dffa9c368cc2c4c7e506275e2568358fb0fe86aaf",
      "scriptpubkey_asm": "OP_PUSHNUM_1 OP_PUSHBYTES_32 6fe5b588d1cb6609f07ac28dffa9c368cc2c4c7e506275e2568358fb0fe86aaf",
      "scriptpubkey_type": "v1_p2tr",
      "scriptpubkey_address": "bc1pdljmtzx3ednqnur6c2xll2wrdrxzcnr72p38tcjksdv0krlgd2hsz2yvzl",
      "value": 546
    }
  ],
  "size": 487,
  "weight": 769,
  "fee": 2316,
  "status": {
    "confirmed": true,
    "block_height": 834460,
    "block_hash": "00000000000000000000484a79b643b2524bbce82e5d8a442013fa5b8905ed98",
    "block_time": 1710307468
  },
  "hex": "02000000000101bfca1bdbb08d709a1ff923f77178b80e8feff24015861fa1e1c7b33cd857f3b91600000000ffffffff0122020000000000002251206fe5b588d1cb6609f07ac28dffa9c368cc2c4c7e506275e2568358fb0fe86aaf03405e69010be1f68240b85b4a99264640dfdbb7f0755225b2679e9736e12c674cd18bd38046011a12f131a4383bc15c4015f0d090c8d13a8e25137bc99dcd25bea6fd2001206e69376d9bff11e8ad7ed843a1314fd498c9397e5b156e5854d81ba65469ca68ac0063036f726401011e6170706c69636174696f6e2f6a736f6e3b636861727365743d7574662d38004cd37b2270223a22706f772d3230222c226f70223a226d696e74222c227469636b223a2250455045222c22616d74223a2231303030222c22736f6c7574696f6e223a22504550453a62633170646c6a6d747a783365646e716e7572366332786c6c3277726472787a636e72373270333874636a6b736476306b726c67643268737a3279767a6c3a303030303030303030303030303030303030303139393431613561653132383937363539383134343239323533333030353762306461393666336465613163353a3236363032333739363430227d6821c196123be632ec23e42a1daadb49c59b3ad8ca39108d2d31b6eff3b52b525d162200000000"
}