{
  "txid": "f856e86a2540108a701347a8dde122cc0b178777c72ebb36a8818a1e8f86f6cb",
  "version": 2,
  "locktime": 0,
  "vin": [
    {
      "txid": "1e972fee06484069d9224539b01decdd0932bbd59e6185a381b2279378c35286",
      "vout": 0,
      "prevout": {
        "scriptpubkey": "51206e89618afee45baadc008eee58d3218d49d53059fa4ac056eb6e83ea867aae2f",
        "scriptpubkey_asm": "OP_PUSHNUM_1 OP_PUSHBYTES_32 6e89618afee45baadc008eee58d3218d49d53059fa4ac056eb6e83ea867aae2f",
        "scriptpubkey_type": "v1_p2tr",
        "scriptpubkey_address": "bc1pd6ykrzh7u3d64hqq3mh935ep34ya2vzelf9vq4htd6p74pn64chs9rm5yx",
        "value": 546
      },
      "scriptsig": "",
      "scriptsig_asm": "",
      "witness": [
        "7fac3b8deb597c35aaccb282c1bf5a64a5cb868fc748ad7914e6d1f08e7008372866c340eb1f648932c91be351a8e65c4417c24ca43a9ce90a7cf5c95dd6414e"
      ],
      "is_coinbase": false,
      "sequence": 2147483649
    },
    {
      "txid": "1e972fee06484069d9224539b01decdd0932bbd59e6185a381b2279378c35286",
      "vout": 1,
      "prevout": {
        "scriptpubkey": "51206e89618afee45baadc008eee58d3218d49d53059fa4ac056eb6e83ea867aae2f",
        "scriptpubkey_asm": "OP_PUSHNUM_1 OP_PUSHBYTES_32 6e89618afee45baadc008eee58d3218d49d53059fa4ac056eb6e83ea867aae2f",
        "scriptpubkey_type": "v1_p2tr",
        "scriptpubkey_address": "bc1pd6ykrzh7u3d64hqq3mh935ep34ya2vzelf9vq4htd6p74pn64chs9rm5yx",
        "value": 81738
      },
      "scriptsig": "",
      "scriptsig_asm": "",
      "witness": [
        "4ccbd90559e0130aa74936c72df76584285dd6454be1e1dd3dc5743072a969d09d2cbc3bb531ae1850935fd4c854850762d52b671c1f78fdd0ecdef43394c1ca"
      ],
      "is_coinbase": false,
      "sequence": 2147483649
    }
  ],
  "vout": [
    {
      "scriptpubkey": "51206e89618afee45baadc008eee58d3218d49d53059fa4ac056eb6e83ea867aae2f",
      "scriptpubkey_asm": "OP_PUSHNUM_1 OP_PUSHBYTES_32 6e89618afee45baadc008eee58d3218d49d53059fa4ac056eb6e83ea867aae2f",
      "scriptpubkey_type": "v1_p2tr",
      "scriptpubkey_address": "bc1pd6ykrzh7u3d64hqq3mh935ep34ya2vzelf9vq4htd6p74pn64chs9rm5yx",
      "value": 546
    },
    {
      "scriptpubkey": "51206e89618afee45baadc008eee58d3218d49d53059fa4ac056eb6e83ea867aae2f",
      "scriptpubkey_asm": "OP_PUSHNUM_1 OP_PUSHBYTES_32 6e89618afee45baadc008eee58d3218d49d53059fa4ac056eb6e83ea867aae2f",
      "scriptpubkey_type": "v1_p2tr",
      "scriptpubkey_address": "bc1pd6ykrzh7u3d64hqq3mh935ep34ya2vzelf9vq4htd6p74pn64chs9rm5yx",
      "value": 78151
    }
  ],
  "size": 312,
  "weight": 846,
  "fee": 3587,
  "status": {
    "confirmed": true,
    "block_height": 834638,
    "block_hash": "000000000000000000025f742c626208ac87e0b7d15054abb4a19ca2d735a54e",
    "block_time": 1710405325
  },
  "hex": "020000000001028652c3789327b281a385619ed5bb3209ddec1db0394522d969404806ee2f971e0000000000010000808652c3789327b281a385619ed5bb3209ddec1db0394522d969404806ee2f971e0100000000010000800222020000000000002251206e89618afee45baadc008eee58d3218d49d53059fa4ac056eb6e83ea867aae2f47310100000000002251206e89618afee45baadc008eee58d3218d49d53059fa4ac056eb6e83ea867aae2f01407fac3b8deb597c35aaccb282c1bf5a64a5cb868fc748ad7914e6d1f08e7008372866c340eb1f648932c91be351a8e65c4417c24ca43a9ce90a7cf5c95dd6414e01404ccbd90559e0130aa74936c72df76584285dd6454be1e1dd3dc5743072a969d09d2cbc3bb531ae1850935fd4c854850762d52b671c1f78fdd0ecdef43394c1ca00000000"
}