{
  "txid": "f86d0d2bda62648678d25146ff40cf13674ffcc1302da6146e109e6e6915c79a",
  "version": 1,
  "locktime": 0,
  "vin": [
    {
      "txid": "9fd94c4688e627d4d5a41fd7674b61bb4ea7d9b9735d62d4f71e145eab1dd401",
      "vout": 1,
      "prevout": {
        "scriptpubkey": "00148a2b42d5a4feb224c3bf6fdd777799e2e8a63898",
        "scriptpubkey_asm": "OP_0 OP_PUSHBYTES_20 8a2b42d5a4feb224c3bf6fdd777799e2e8a63898",
        "scriptpubkey_type": "v0_p2wpkh",
        "scriptpubkey_address": "bc1q3g4594dyl6ezfsaldlwhwaueut52vwyctsalkd",
        "value": 794254651
      },
      "scriptsig": "",
      "scriptsig_asm": "",
      "witness": [
        "3044022073c4a1f1f75c60e56a5572c6df83ff90bf3311047f4740f812ab52830b26fc5602205e8f3b07d82d175c0ccc3ccb39e9d6ed2a0178a9af9dc77364fdafe80ea857cc01",
        "0370e7ffb3cf944cd72266125a2ca47e64cc29598f882b929cb2ab5714a29459be"
      ],
      "is_coinbase": false,
      "sequence": 4261412863
    }
  ],
  "vout": [
    {
      "scriptpubkey": "001451147a3a21f5886d8622342ad4b61dab2018bff5",
      "scriptpubkey_asm": "OP_0 OP_PUSHBYTES_20 51147a3a21f5886d8622342ad4b61dab2018bff5",
      "scriptpubkey_type": "v0_p2wpkh",
      "scriptpubkey_address": "bc1q2y285w3p7kyxmp3zxs4dfdsa4vsp30l42veew4",
      "value": 27889
    },
    {
      "scriptpubkey": "00148a2b42d5a4feb224c3bf6fdd777799e2e8a63898",
      "scriptpubkey_asm": "OP_0 OP_PUSHBYTES_20 8a2b42d5a4feb224c3bf6fdd777799e2e8a63898",
      "scriptpubkey_type": "v0_p2wpkh",
      "scriptpubkey_address": "bc1q3g4594dyl6ezfsaldlwhwaueut52vwyctsalkd",
      "value": 794223038
    }
  ],
  "size": 222,
  "weight": 561,
  "fee": 3724,
  "status": {
    "confirmed": true,
    "block_height": 834638,
    "block_hash": "000000000000000000025f742c626208ac87e0b7d15054abb4a19ca2d735a54e",
    "block_time": 1710405325
  },
  "hex": "0100000000010101d41dab5e141ef7d4625d73b9d9a74ebb614b67d71fa4d5d427e688464cd99f0100000000fffffffd02f16c00000000000016001451147a3a21f5886d8622342ad4b61dab2018bff5bee1562f000000001600148a2b42d5a4feb224c3bf6fdd777799e2e8a6389802473044022073c4a1f1f75c60e56a5572c6df83ff90bf3311047f4740f812ab52830b26fc5602205e8f3b07d82d175c0ccc3ccb39e9d6ed2a0178a9af9dc77364fdafe80ea857cc01210370e7ffb3cf944cd72266125a2ca47e64cc29598f882b929cb2ab5714a29459be00000000"
}