{
  "txid": "f8783e0f2d218808b07c3ddb3e1f2408511cbd13e4135c2a0f09cfcd6c14fb42",
  "version": 1,
  "locktime": 0,
  "vin": [
    {
      "txid": "920bb16943b935f4bfb0f17f860fe745b0f0b952c0cc71a3bdcba01bfabe47b8",
      "vout": 0,
      "prevout": {
        "scriptpubkey": "51205cf7a1ff3d18ad4df8c4fbf60c8e08078d37e277be23a35a7d5913fb87f83952",
        "scriptpubkey_asm": "OP_PUSHNUM_1 OP_PUSHBYTES_32 5cf7a1ff3d18ad4df8c4fbf60c8e08078d37e277be23a35a7d5913fb87f83952",
        "scriptpubkey_type": "v1_p2tr",
        "scriptpubkey_address": "bc1ptnm6rlearzk5m7xyl0mqersgq7xn0cnhhc36xknatyflhplc89fq58c2dm",
        "value": 2346
      },
      "scriptsig": "",
      "scriptsig_asm": "",
      "witness": [
        "54adba7e921da8d86f786f35fd26fb03fdc6caeedefac775492177fed4b476325311f77c337a2f189a08cee13617e993e0520f7cd060ccceb6f49fcc97f028bd",
        "202a434f3010dd61addd794cbc0b50191bd09a9fedaeb30e9642f0daef35765660ac0063036f726401010a746578742f706c61696e003e7b2270223a226272632d3230222c226f70223a227472616e73666572222c227469636b223a2253415453222c22616d74223a22313030303030303030227d68",
        "c12a434f3010dd61addd794cbc0b50191bd09a9fedaeb30e9642f0daef35765660"
      ],
      "is_coinbase": false,
      "sequence": 4294967293
    }
  ],
  "vout": [
    {
      "scriptpubkey": "512051eb6921418373517a8c73f65fe73ab3025d3eac430a4511800dd5427c532f4f",
      "scriptpubkey_asm": "OP_PUSHNUM_1 OP_PUSHBYTES_32 51eb6921418373517a8c73f65fe73ab3025d3eac430a4511800dd5427c532f4f",
      "scriptpubkey_type": "v1_p2tr",
      "scriptpubkey_address": "bc1p284kjg2psde4z75vw0m9lee6kvp9604vgv9y2yvqph25ylzn9a8sug0qcf",
      "value": 546
    }
  ],
  "size": 315,
  "weight": 597,
  "fee": 1800,
  "status": {
    "confirmed": true,
    "block_height": 834460,
    "block_hash": "00000000000000000000484a79b643b2524bbce82e5d8a442013fa5b8905ed98",
    "block_time": 1710307468
  },
  "hex": "01000000000101b847befa1ba0cbbda371ccc052b9f0b045e70f867ff1b0bff435b94369b10b920000000000fdffffff01220200000000000022512051eb6921418373517a8c73f65fe73ab3025d3eac430a4511800dd5427c532f4f034054adba7e921da8d86f786f35fd26fb03fdc6caeedefac775492177fed4b476325311f77c337a2f189a08cee13617e993e0520f7cd060ccceb6f49fcc97f028bd76202a434f3010dd61addd794cbc0b50191bd09a9fedaeb30e9642f0daef35765660ac0063036f726401010a746578742f706c61696e003e7b2270223a226272632d3230222c226f70223a227472616e73666572222c227469636b223a2253415453222c22616d74223a22313030303030303030227d6821c12a434f3010dd61addd794cbc0b50191bd09a9fedaeb30e9642f0daef3576566000000000"
}