{
  "txid": "f8796c1ebde047d419a7db968d2638805ee52b40907ae451437aa0a9513b4ae0",
  "version": 2,
  "locktime": 0,
  "vin": [
    {
      "txid": "21967e8290c8aad8fde53d4f56cbfdf14c1f8f5bbf9b3e16d810678ca1e2d7b9",
      "vout": 1,
      "prevout": {
        "scriptpubkey": "a9147f39c7bd8b4da351f4d2b782262c7d4ceaf36ecd87",
        "scriptpubkey_asm": "OP_HASH160 OP_PUSHBYTES_20 7f39c7bd8b4da351f4d2b782262c7d4ceaf36ecd OP_EQUAL",
        "scriptpubkey_type": "p2sh",
        "scriptpubkey_address": "3DHixYhgf3BsKknhMsb7V8Q27gmwBjbaoY",
        "value": 858959
      },
      "scriptsig": "16001422b33fd00a9d50f3f1422320dfbd6953babf02ed",
      "scriptsig_asm": "OP_PUSHBYTES_22 001422b33fd00a9d50f3f1422320dfbd6953babf02ed",
      "witness": [
        "3045022100d7835ce73df27d4a07f8c18c2f5f93933921d0895bca6dafa3defb4217eb0186022054fe4eb7f51ba41218aafed0c453db1c8a31a1cb93fdb313fccf37fe63d915b601",
        "024f718962ca64f2802bb53ba5dd0a7ade5494f8e90716c8709565bd726eb6e8b4"
      ],
      "is_coinbase": false,
      "sequence": 4294967295,
      "inner_redeemscript_asm": "OP_0 OP_PUSHBYTES_20 22b33fd00a9d50f3f1422320dfbd6953babf02ed"
    }
  ],
  "vout": [
    {
      "scriptpubkey": "76a914ce0097f4fec58074b559d263342ffb68d6d223fc88ac",
      "scriptpubkey_asm": "OP_DUP OP_HASH160 OP_PUSHBYTES_20 ce0097f4fec58074b559d263342ffb68d6d223fc OP_EQUALVERIFY OP_CHECKSIG",
      "scriptpubkey_type": "p2pkh",
      "scriptpubkey_address": "1KnEum5DE2ojQBK7upD6eX7RDRFuifLriQ",
      "value": 6800
    },
    {
      "scriptpubkey": "a9144d9f4aec82b236b393f07e8f1f0acdc40ac0124687",
      "scriptpubkey_asm": "OP_HASH160 OP_PUSHBYTES_20 4d9f4aec82b236b393f07e8f1f0acdc40ac01246 OP_EQUAL",
      "scriptpubkey_type": "p2sh",
      "scriptpubkey_address": "38mSnASPHZowLFWefUshrssraScpaEwYiC",
      "value": 849150
    }
  ],
  "size": 250,
  "weight": 670,
  "fee": 3009,
  "status": {
    "confirmed": true,
    "block_height": 834638,
    "block_hash": "000000000000000000025f742c626208ac87e0b7d15054abb4a19ca2d735a54e",
    "block_time": 1710405325
  },
  "hex": "02000000000101b9d7e2a18c6710d8163e9bbf5b8f1f4cf1fdcb564f3de5fdd8aac890827e9621010000001716001422b33fd00a9d50f3f1422320dfbd6953babf02edffffffff02901a0000000000001976a914ce0097f4fec58074b559d263342ffb68d6d223fc88acfef40c000000000017a9144d9f4aec82b236b393f07e8f1f0acdc40ac012468702483045022100d7835ce73df27d4a07f8c18c2f5f93933921d0895bca6dafa3defb4217eb0186022054fe4eb7f51ba41218aafed0c453db1c8a31a1cb93fdb313fccf37fe63d915b60121024f718962ca64f2802bb53ba5dd0a7ade5494f8e90716c8709565bd726eb6e8b400000000"
}