{
  "txid": "f884d287e8c5c00cddc714bdc2367b15de83bfddd0577e016c94e8c51cf654b8",
  "version": 2,
  "locktime": 0,
  "vin": [
    {
      "txid": "949ce3dda78032b8b6e8ad91f425263da633bbc6672fc5a52bb035bd2ff548ac",
      "vout": 3,
      "prevout": {
        "scriptpubkey": "00146664bce0672316d0190773c779ebdfc0b937b5ae",
        "scriptpubkey_asm": "OP_0 OP_PUSHBYTES_20 6664bce0672316d0190773c779ebdfc0b937b5ae",
        "scriptpubkey_type": "v0_p2wpkh",
        "scriptpubkey_address": "bc1qvejtecr8yvtdqxg8w0rhn67lczun0ddwm2numd",
        "value": 1849396
      },
      "scriptsig": "",
      "scriptsig_asm": "",
      "witness": [
        "3045022100f07ea979a3d54988ddbfd11efc05a6d888578ec4e85d53390017bbd0b48fbaf1022046e947eb3d59c57fcb8a32becd6ca74487819a5333057e8479139c8165fc8a4001",
        "031ef66481d5fece55ea10a3629b0dd0e8fd4eb4e5e9a986c68fd24ac70de69a47"
      ],
      "is_coinbase": false,
      "sequence": 0
    },
    {
      "txid": "2c3a8f4f9a00297f6091293049f8ecbc2924b869b02d89af1c68c067a115c921",
      "vout": 3,
      "prevout": {
        "scriptpubkey": "00146664bce0672316d0190773c779ebdfc0b937b5ae",
        "scriptpubkey_asm": "OP_0 OP_PUSHBYTES_20 6664bce0672316d0190773c779ebdfc0b937b5ae",
        "scriptpubkey_type": "v0_p2wpkh",
        "scriptpubkey_address": "bc1qvejtecr8yvtdqxg8w0rhn67lczun0ddwm2numd",
        "value": 1751396
      },
      "scriptsig": "",
      "scriptsig_asm": "",
      "witness": [
        "3044022067fc6e7bf87d1e25cce8aed562f99380f5bf8faf7f4bc5d8ea20bafbd85a0e24022005c97d2a3a0350e35a6f1bf5084a7771bea99ea0d770489c69273798ca6e6f9101",
        "031ef66481d5fece55ea10a3629b0dd0e8fd4eb4e5e9a986c68fd24ac70de69a47"
      ],
      "is_coinbase": false,
      "sequence": 0
    }
  ],
  "vout": [
    {
      "scriptpubkey": "76a914faa3aa030683589c84fd2122b0f6e21acca1dd5a88ac",
      "scriptpubkey_asm": "OP_DUP OP_HASH160 OP_PUSHBYTES_20 faa3aa030683589c84fd2122b0f6e21acca1dd5a OP_EQUALVERIFY OP_CHECKSIG",
      "scriptpubkey_type": "p2pkh",
      "scriptpubkey_address": "1PrFzYGyfNQugCu4dtJuY5ZroYfuFzCqEv",
      "value": 3500000
    },
    {
      "scriptpubkey": "00146664bce0672316d0190773c779ebdfc0b937b5ae",
      "scriptpubkey_asm": "OP_0 OP_PUSHBYTES_20 6664bce0672316d0190773c779ebdfc0b937b5ae",
      "scriptpubkey_type": "v0_p2wpkh",
      "scriptpubkey_address": "bc1qvejtecr8yvtdqxg8w0rhn67lczun0ddwm2numd",
      "value": 97149
    }
  ],
  "size": 374,
  "weight": 845,
  "fee": 3643,
  "status": {
    "confirmed": true,
    "block_height": 834638,
    "block_hash": "000000000000000000025f742c626208ac87e0b7d15054abb4a19ca2d735a54e",
    "block_time": 1710405325
  },
  "hex": "02000000000102ac48f52fbd35b02ba5c52f67c6bb33a63d2625f491ade8b6b83280a7dde39c9403000000000000000021c915a167c0681caf892db069b82429bcecf849302991607f29009a4f8f3a2c03000000000000000002e0673500000000001976a914faa3aa030683589c84fd2122b0f6e21acca1dd5a88ac7d7b0100000000001600146664bce0672316d0190773c779ebdfc0b937b5ae02483045022100f07ea979a3d54988ddbfd11efc05a6d888578ec4e85d53390017bbd0b48fbaf1022046e947eb3d59c57fcb8a32becd6ca74487819a5333057e8479139c8165fc8a400121031ef66481d5fece55ea10a3629b0dd0e8fd4eb4e5e9a986c68fd24ac70de69a4702473044022067fc6e7bf87d1e25cce8aed562f99380f5bf8faf7f4bc5d8ea20bafbd85a0e24022005c97d2a3a0350e35a6f1bf5084a7771bea99ea0d770489c69273798ca6e6f910121031ef66481d5fece55ea10a3629b0dd0e8fd4eb4e5e9a986c68fd24ac70de69a4700000000"
}