{
  "txid": "f886079b5e515474b04d7ac6150f80041edf3a30b5cadd8672df9e81e52f455c",
  "version": 1,
  "locktime": 0,
  "vin": [
    {
      "txid": "dc7b22c2400680fda44b570da2d0f27f0a4261f84d49417890b331df5a52b89d",
      "vout": 7,
      "prevout": {
        "scriptpubkey": "00148872fc79b28cff4f7afc08141fb74edbd5004b77",
        "scriptpubkey_asm": "OP_0 OP_PUSHBYTES_20 8872fc79b28cff4f7afc08141fb74edbd5004b77",
        "scriptpubkey_type": "v0_p2wpkh",
        "scriptpubkey_address": "bc1q3pe0c7dj3nl577hupq2pld6wm02sqjmh9dqu3a",
        "value": 29005
      },
      "scriptsig": "",
      "scriptsig_asm": "",
      "witness": [
        "30440220779aaf3717be87457c9ae872e863c6d2df4e2cb8ef61fde89a7edc116d85f49c02202f442cf3d870be364a97c6bb0c1e67106c024a4a529decf4105274f362e697e501",
        "02cef9a4985305f9e7a708b774633c460cccd6b28f91c7665749b56bdeb0a1af7d"
      ],
      "is_coinbase": false,
      "sequence": 4294967293
    },
    {
      "txid": "832cd43b4284485b50e6ab0ac9c04df757d823a7714ebd00ce8cfb870b25a912",
      "vout": 198,
      "prevout": {
        "scriptpubkey": "00144b5d1d56995087827d10d9919590d2bd0582a714",
        "scriptpubkey_asm": "OP_0 OP_PUSHBYTES_20 4b5d1d56995087827d10d9919590d2bd0582a714",
        "scriptpubkey_type": "v0_p2wpkh",
        "scriptpubkey_address": "bc1qfdw3645e2zrcylgsmxgetyxjh5zc9fc55urrc7",
        "value": 28997
      },
      "scriptsig": "",
      "scriptsig_asm": "",
      "witness": [
        "3045022100b54c400245e7cc18cc8bc94b8c26d68c6840368770358d27d05ae103cf5cd44502204947caf24d3250182da7e4fe61dd9d3b20076f58b57ccc671ac92f0341c8607601",
        "0300d71c4d03e9b16307e6d06bc6a33eef4b4d8de1b3c248bb46de10f17a604b2c"
      ],
      "is_coinbase": false,
      "sequence": 4294967293
    },
    {
      "txid": "679b50a15a9a6c47c7104652ef3599993b5baf29f52024bda6e1c11b7ccecf25",
      "vout": 170,
      "prevout": {
        "scriptpubkey": "0014f81aa3b1335f175d9c7108cbd97911f06e68cfc1",
        "scriptpubkey_asm": "OP_0 OP_PUSHBYTES_20 f81aa3b1335f175d9c7108cbd97911f06e68cfc1",
        "scriptpubkey_type": "v0_p2wpkh",
        "scriptpubkey_address": "bc1qlqd28vfntut4m8r3pr9aj7g37phx3n7pumgpjp",
        "value": 28996
      },
      "scriptsig": "",
      "scriptsig_asm": "",
      "witness": [
        "3045022100a82b67e968f4f56941c8f3d3a70b04285ecea64fdc26f6e787ba7a60c7b07f5502206fa1e97ee95a05eb10486642abb7cbf0d74d31d541531c351a7bf9a18d0f8cd601",
        "02e826f0f8587aa652ccfba2b4ef1ca4a7bd2eb6980867c0363a33109a6fc0bc32"
      ],
      "is_coinbase": false,
      "sequence": 4294967293
    }
  ],
  "vout": [
    {
      "scriptpubkey": "00147abf3502e566e153214aa7f2c8670a02eadcd4cc",
      "scriptpubkey_asm": "OP_0 OP_PUSHBYTES_20 7abf3502e566e153214aa7f2c8670a02eadcd4cc",
      "scriptpubkey_type": "v0_p2wpkh",
      "scriptpubkey_address": "bc1q02ln2qh9vms4xg225levsec2qt4de4xvx3mthd",
      "value": 79558
    }
  ],
  "size": 489,
  "weight": 981,
  "fee": 7440,
  "status": {
    "confirmed": true,
    "block_height": 834638,
    "block_hash": "000000000000000000025f742c626208ac87e0b7d15054abb4a19ca2d735a54e",
    "block_time": 1710405325
  },
  "hex": "010000000001039db8525adf31b3907841494df861420a7ff2d0a20d574ba4fd800640c2227bdc0700000000fdffffff12a9250b87fb8cce00bd4e71a723d857f74dc0c90aabe6505b4884423bd42c83c600000000fdffffff25cfce7c1bc1e1a6bd2420f529af5b3b999935ef524610c7476c9a5aa1509b67aa00000000fdffffff01c6360100000000001600147abf3502e566e153214aa7f2c8670a02eadcd4cc024730440220779aaf3717be87457c9ae872e863c6d2df4e2cb8ef61fde89a7edc116d85f49c02202f442cf3d870be364a97c6bb0c1e67106c024a4a529decf4105274f362e697e5012102cef9a4985305f9e7a708b774633c460cccd6b28f91c7665749b56bdeb0a1af7d02483045022100b54c400245e7cc18cc8bc94b8c26d68c6840368770358d27d05ae103cf5cd44502204947caf24d3250182da7e4fe61dd9d3b20076f58b57ccc671ac92f0341c8607601210300d71c4d03e9b16307e6d06bc6a33eef4b4d8de1b3c248bb46de10f17a604b2c02483045022100a82b67e968f4f56941c8f3d3a70b04285ecea64fdc26f6e787ba7a60c7b07f5502206fa1e97ee95a05eb10486642abb7cbf0d74d31d541531c351a7bf9a18d0f8cd6012102e826f0f8587aa652ccfba2b4ef1ca4a7bd2eb6980867c0363a33109a6fc0bc3200000000"
}