{
  "txid": "f893d36a99e2e7c7258af907966964270e2c7d9505cd9b0192a880946f94846b",
  "version": 2,
  "locktime": 0,
  "vin": [
    {
      "txid": "38ece97c1bebf78fa7298d1f39f943f8db34a6f0616e470300642ac0b5c29c1a",
      "vout": 1,
      "prevout": {
        "scriptpubkey": "0014f6cea09b53dfe7116ec6109089c69873e87d262f",
        "scriptpubkey_asm": "OP_0 OP_PUSHBYTES_20 f6cea09b53dfe7116ec6109089c69873e87d262f",
        "scriptpubkey_type": "v0_p2wpkh",
        "scriptpubkey_address": "bc1q7m82px6nmln3zmkxzzggn35cw0586f304jzmex",
        "value": 196748418
      },
      "scriptsig": "",
      "scriptsig_asm": "",
      "witness": [
        "3045022100b09421474e6729dc0a39684a25e0c465dbd755c03a3c6d8ce6f548e10af2d3b602207484fe019441c3b414fbd39e11e7e70fc6028135c0ab5e254df0d280151e745801",
        "033a1cc814a202f1967fcebdc4678252ac260d056763c1750c0aa4f58e92cf0c43"
      ],
      "is_coinbase": false,
      "sequence": 4294967295
    }
  ],
  "vout": [
    {
      "scriptpubkey": "0014b38556081376838b19dd3de7342d72911ee3b4f0",
      "scriptpubkey_asm": "OP_0 OP_PUSHBYTES_20 b38556081376838b19dd3de7342d72911ee3b4f0",
      "scriptpubkey_type": "v0_p2wpkh",
      "scriptpubkey_address": "bc1qkwz4vzqnw6pckxwa8hnngttjjy0w8d8s6e2zyf",
      "value": 50000000
    },
    {
      "scriptpubkey": "0014dba3810127bcb09be9fb84125298ace94d54f2f5",
      "scriptpubkey_asm": "OP_0 OP_PUSHBYTES_20 dba3810127bcb09be9fb84125298ace94d54f2f5",
      "scriptpubkey_type": "v0_p2wpkh",
      "scriptpubkey_address": "bc1qmw3czqf8hjcfh60mssf99x9va9x4fuh4sk32kd",
      "value": 146745907
    }
  ],
  "size": 223,
  "weight": 562,
  "fee": 2511,
  "status": {
    "confirmed": true,
    "block_height": 834638,
    "block_hash": "000000000000000000025f742c626208ac87e0b7d15054abb4a19ca2d735a54e",
    "block_time": 1710405325
  },
  "hex": "020000000001011a9cc2b5c02a640003476e61f0a634dbf843f9391f8d29a78ff7eb1b7ce9ec380100000000ffffffff0280f0fa0200000000160014b38556081376838b19dd3de7342d72911ee3b4f0332abf0800000000160014dba3810127bcb09be9fb84125298ace94d54f2f502483045022100b09421474e6729dc0a39684a25e0c465dbd755c03a3c6d8ce6f548e10af2d3b602207484fe019441c3b414fbd39e11e7e70fc6028135c0ab5e254df0d280151e74580121033a1cc814a202f1967fcebdc4678252ac260d056763c1750c0aa4f58e92cf0c4300000000"
}