{
  "txid": "f89b2a5849c961c420c17819571c34982427b9a05c5ede886df502643418eab3",
  "version": 2,
  "locktime": 0,
  "vin": [
    {
      "txid": "bdc808809abf5ea4d352aedfb451334f84c3826055e76caef4281d6e8f9be3be",
      "vout": 149,
      "prevout": {
        "scriptpubkey": "0014c92e983bdde75774131c1e057e4fb9c557a995e6",
        "scriptpubkey_asm": "OP_0 OP_PUSHBYTES_20 c92e983bdde75774131c1e057e4fb9c557a995e6",
        "scriptpubkey_type": "v0_p2wpkh",
        "scriptpubkey_address": "bc1qeyhfsw7auathgycurczhunaec4t6n90xz34ka0",
        "value": 150684
      },
      "scriptsig": "",
      "scriptsig_asm": "",
      "witness": [
        "3044022077952e8d14a9e3f03689114ac87e26c7350f689261483070dee307d1d7d07b8502206322e6b207b063dec7c5dca80b03857efde2bf908b2426c8cb6644d2a2847bb301",
        "0295ad96759b4d5e227ac1c43ffe12d4b8c8aa6d0596f00adf31739086a954160e"
      ],
      "is_coinbase": false,
      "sequence": 4294967295
    }
  ],
  "vout": [
    {
      "scriptpubkey": "76a914aeac494a1aec3013425e65549d0646eb5f73e2a888ac",
      "scriptpubkey_asm": "OP_DUP OP_HASH160 OP_PUSHBYTES_20 aeac494a1aec3013425e65549d0646eb5f73e2a8 OP_EQUALVERIFY OP_CHECKSIG",
      "scriptpubkey_type": "p2pkh",
      "scriptpubkey_address": "1Gvay3J8M5GkjSVSSx81cUVKrgtLnbPNQC",
      "value": 148378
    }
  ],
  "size": 194,
  "weight": 449,
  "fee": 2306,
  "status": {
    "confirmed": true,
    "block_height": 834638,
    "block_hash": "000000000000000000025f742c626208ac87e0b7d15054abb4a19ca2d735a54e",
    "block_time": 1710405325
  },
  "hex": "02000000000101bee39b8f6e1d28f4ae6ce7556082c3844f3351b4dfae52d3a45ebf9a8008c8bd9500000000ffffffff019a430200000000001976a914aeac494a1aec3013425e65549d0646eb5f73e2a888ac02473044022077952e8d14a9e3f03689114ac87e26c7350f689261483070dee307d1d7d07b8502206322e6b207b063dec7c5dca80b03857efde2bf908b2426c8cb6644d2a2847bb301210295ad96759b4d5e227ac1c43ffe12d4b8c8aa6d0596f00adf31739086a954160e00000000"
}