{
  "txid": "f8a07aed132481f0938ad9712373c71134fe8f334e26ad08f4546b0560624258",
  "version": 2,
  "locktime": 0,
  "vin": [
    {
      "txid": "8c6eb49c8345d211eb5d7eaa109f63d9a696baab723ba2da06e559167b70076d",
      "vout": 8,
      "prevout": {
        "scriptpubkey": "51207a31300834f7c8e99673d7b0ea7147a30e7992344c70e3869c9500feebb41085",
        "scriptpubkey_asm": "OP_PUSHNUM_1 OP_PUSHBYTES_32 7a31300834f7c8e99673d7b0ea7147a30e7992344c70e3869c9500feebb41085",
        "scriptpubkey_type": "v1_p2tr",
        "scriptpubkey_address": "bc1p0gcnqzp57lywn9nn67cw5u285v88ny35f3cw8p5uj5q0a6a5zzzskqccj9",
        "value": 1962
      },
      "scriptsig": "",
      "scriptsig_asm": "",
      "witness": [
        "eb44a9cf7316decfe02f9277ff2e540f75a8a8053a787d23bfe7e1f1e62e04965a4cbf7bd624665263df24acf4c0f1d5c0cdfac370635bf33060ae9006bf977e",
        "2024f14b181a0f77d670b063836b8942eaafb9714de6ee5bcf9b5ecfaeb76446d1ac0063036f7264010118746578742f706c61696e3b636861727365743d7574662d3800367b2270223a226272632d3230222c226f70223a226d696e74222c227469636b223a2261616161222c22616d74223a223130303030227d68",
        "c024f14b181a0f77d670b063836b8942eaafb9714de6ee5bcf9b5ecfaeb76446d1"
      ],
      "is_coinbase": false,
      "sequence": 4294967293
    }
  ],
  "vout": [
    {
      "scriptpubkey": "0014858ccaca6c4e482f629fdbcc5539e695d8673ea2",
      "scriptpubkey_asm": "OP_0 OP_PUSHBYTES_20 858ccaca6c4e482f629fdbcc5539e695d8673ea2",
      "scriptpubkey_type": "v0_p2wpkh",
      "scriptpubkey_address": "bc1qskxv4jnvfeyz7c5lm0x92w0xjhvxw04zpzg6gn",
      "value": 294
    }
  ],
  "size": 309,
  "weight": 555,
  "fee": 1668,
  "status": {
    "confirmed": true,
    "block_height": 834460,
    "block_hash": "00000000000000000000484a79b643b2524bbce82e5d8a442013fa5b8905ed98",
    "block_time": 1710307468
  },
  "hex": "020000000001016d07707b1659e506daa23b72abba96a6d9639f10aa7e5deb11d245839cb46e8c0800000000fdffffff012601000000000000160014858ccaca6c4e482f629fdbcc5539e695d8673ea20340eb44a9cf7316decfe02f9277ff2e540f75a8a8053a787d23bfe7e1f1e62e04965a4cbf7bd624665263df24acf4c0f1d5c0cdfac370635bf33060ae9006bf977e7c2024f14b181a0f77d670b063836b8942eaafb9714de6ee5bcf9b5ecfaeb76446d1ac0063036f7264010118746578742f706c61696e3b636861727365743d7574662d3800367b2270223a226272632d3230222c226f70223a226d696e74222c227469636b223a2261616161222c22616d74223a223130303030227d6821c024f14b181a0f77d670b063836b8942eaafb9714de6ee5bcf9b5ecfaeb76446d100000000"
}