{
  "txid": "f8a3d909308e8edf7667c10c52e52c9fd90074366dcf4023daa4c33a49227aec",
  "version": 2,
  "locktime": 0,
  "vin": [
    {
      "txid": "b13bb5512a4904c28a6b7957b88edf574e8cb23551fc1dcfe22d6b239df42cf4",
      "vout": 24,
      "prevout": {
        "scriptpubkey": "51208bd2c0dc1bab82ae7cffef95fc1f3539045b5cd2e9d83ce7f61c94acc0f32b19",
        "scriptpubkey_asm": "OP_PUSHNUM_1 OP_PUSHBYTES_32 8bd2c0dc1bab82ae7cffef95fc1f3539045b5cd2e9d83ce7f61c94acc0f32b19",
        "scriptpubkey_type": "v1_p2tr",
        "scriptpubkey_address": "bc1p30fvphqm4wp2ul8la72lc8e48yz9khxja8vreelkrj22es8n9vvsg30j3m",
        "value": 2575
      },
      "scriptsig": "",
      "scriptsig_asm": "",
      "witness": [
        "e5602ebb56961e92c97c8448d772f3be60dac8d37447ffe59d460ff14cffcd22f6829db5de2c91182d5bb01d373cbfa49347ef06d027bd45dea142f62b4d7460",
        "2055aa155ab01d60becd8278773a6ef770d524a7e30c008a556ad638b9eac67eb5ac0063036f726401010a746578742f706c61696e00367b2270223a226272632d3230222c226f70223a226d696e74222c227469636b223a2261616161222c22616d74223a223130303030227d68",
        "c055aa155ab01d60becd8278773a6ef770d524a7e30c008a556ad638b9eac67eb5"
      ],
      "is_coinbase": false,
      "sequence": 4261412863
    }
  ],
  "vout": [
    {
      "scriptpubkey": "0014ce0b5aa0dac72397a8aa5a85d90a2cfb46f0f630",
      "scriptpubkey_asm": "OP_0 OP_PUSHBYTES_20 ce0b5aa0dac72397a8aa5a85d90a2cfb46f0f630",
      "scriptpubkey_type": "v0_p2wpkh",
      "scriptpubkey_address": "bc1qec944gx6cu3e0292t2zajz3vldr0pa3sh356d9",
      "value": 546
    }
  ],
  "size": 295,
  "weight": 541,
  "fee": 2029,
  "status": {
    "confirmed": true,
    "block_height": 834464,
    "block_hash": "0000000000000000000177a0869a911a2b65c9bdcd5a8bcb02b68f305bee848e",
    "block_time": 1710308296
  },
  "hex": "02000000000101f42cf49d236b2de2cf1dfc5135b28c4e57df8eb857796b8ac204492a51b53bb11800000000fffffffd012202000000000000160014ce0b5aa0dac72397a8aa5a85d90a2cfb46f0f6300340e5602ebb56961e92c97c8448d772f3be60dac8d37447ffe59d460ff14cffcd22f6829db5de2c91182d5bb01d373cbfa49347ef06d027bd45dea142f62b4d74606e2055aa155ab01d60becd8278773a6ef770d524a7e30c008a556ad638b9eac67eb5ac0063036f726401010a746578742f706c61696e00367b2270223a226272632d3230222c226f70223a226d696e74222c227469636b223a2261616161222c22616d74223a223130303030227d6821c055aa155ab01d60becd8278773a6ef770d524a7e30c008a556ad638b9eac67eb500000000"
}