{
  "txid": "f8c8f8db9c402362dd6b5332e81debdd0e4ce83ae4224238496d9fdab730b245",
  "version": 1,
  "locktime": 0,
  "vin": [
    {
      "txid": "c8de513fd815fa0a9da5cd26851926217b5402443165c3158e82c50e41b0cba1",
      "vout": 85,
      "prevout": {
        "scriptpubkey": "0014a8ff758ffabd7e120d05a95b49f3c128f160989f",
        "scriptpubkey_asm": "OP_0 OP_PUSHBYTES_20 a8ff758ffabd7e120d05a95b49f3c128f160989f",
        "scriptpubkey_type": "v0_p2wpkh",
        "scriptpubkey_address": "bc1q4rlhtrl6h4lpyrg949d5nu7p9rckpxylkstx8v",
        "value": 61190
      },
      "scriptsig": "",
      "scriptsig_asm": "",
      "witness": [
        "30440220636345c42d64e1249a13a182c69fd7280a6cd3ac9a645fe1f14ef4dd1b66156102200aaf130718a5c675cb42b3115bb863be4b0c6689b5b53961d162c4682a063de701",
        "03859e73ab0ccb8000f19e2a6ecc978f9760ce0aeac2897caec726ea1adc200de0"
      ],
      "is_coinbase": false,
      "sequence": 4294967295
    }
  ],
  "vout": [
    {
      "scriptpubkey": "a914e9557983e3e69265dd2b9ec626da8c73b021e47787",
      "scriptpubkey_asm": "OP_HASH160 OP_PUSHBYTES_20 e9557983e3e69265dd2b9ec626da8c73b021e477 OP_EQUAL",
      "scriptpubkey_type": "p2sh",
      "scriptpubkey_address": "3Nxmm8AY4udFTJYhVsAE9D8v6SJh6bw3mX",
      "value": 27800
    },
    {
      "scriptpubkey": "001405ae3f4989ff73adf22fc7972ba9a0bf1cd004a3",
      "scriptpubkey_asm": "OP_0 OP_PUSHBYTES_20 05ae3f4989ff73adf22fc7972ba9a0bf1cd004a3",
      "scriptpubkey_type": "v0_p2wpkh",
      "scriptpubkey_address": "bc1qqkhr7jvflae6mu30c7tjh2dqhuwdqp9r4yjjle",
      "value": 30856
    }
  ],
  "size": 223,
  "weight": 565,
  "fee": 2534,
  "status": {
    "confirmed": true,
    "block_height": 834552,
    "block_hash": "00000000000000000001dd0468a70c94f619251d286585cff57aeb4bd9ede330",
    "block_time": 1710355598
  },
  "hex": "01000000000101a1cbb0410ec5828e15c365314402547b2126198526cda59d0afa15d83f51dec85500000000ffffffff02986c00000000000017a914e9557983e3e69265dd2b9ec626da8c73b021e47787887800000000000016001405ae3f4989ff73adf22fc7972ba9a0bf1cd004a3024730440220636345c42d64e1249a13a182c69fd7280a6cd3ac9a645fe1f14ef4dd1b66156102200aaf130718a5c675cb42b3115bb863be4b0c6689b5b53961d162c4682a063de7012103859e73ab0ccb8000f19e2a6ecc978f9760ce0aeac2897caec726ea1adc200de000000000"
}