{
  "txid": "f8cd1682a37f06cd5b3963a9203c51fbfa1aebb8f82c2c4ec9b30787b1dd9048",
  "version": 1,
  "locktime": 0,
  "vin": [
    {
      "txid": "ccd08f7682ba03f4f5976dc760830884f7062c2601bc8e1def267ed06b067267",
      "vout": 1,
      "prevout": {
        "scriptpubkey": "00146f83ed606976406d58b2673a3b6594027944da41",
        "scriptpubkey_asm": "OP_0 OP_PUSHBYTES_20 6f83ed606976406d58b2673a3b6594027944da41",
        "scriptpubkey_type": "v0_p2wpkh",
        "scriptpubkey_address": "bc1qd7p76crfweqx6k9jvuarkev5qfu5fkjp2py9le",
        "value": 83563
      },
      "scriptsig": "",
      "scriptsig_asm": "",
      "witness": [
        "3045022100b17505871fb0f64913674654b33100124b2d45b7ebe7a7e1f44f5a0f7604790e02207725733cde7167693211523821ae5e07154da138a6e16bc8f1576e36181441b301",
        "03b71c5d941d1371c8bde8be3eb97dd4390e057d0bb784a9dcd5946a32bf436a30"
      ],
      "is_coinbase": false,
      "sequence": 0
    },
    {
      "txid": "164ded8e2d615d353893c48b700a6857f03d5196c5f21b388841e5428066ea67",
      "vout": 1,
      "prevout": {
        "scriptpubkey": "00146f83ed606976406d58b2673a3b6594027944da41",
        "scriptpubkey_asm": "OP_0 OP_PUSHBYTES_20 6f83ed606976406d58b2673a3b6594027944da41",
        "scriptpubkey_type": "v0_p2wpkh",
        "scriptpubkey_address": "bc1qd7p76crfweqx6k9jvuarkev5qfu5fkjp2py9le",
        "value": 15181170
      },
      "scriptsig": "",
      "scriptsig_asm": "",
      "witness": [
        "3044022050322577420d22157ebd0d1bd9807a73cf8e54d88ecb262e3f4ef0ac34a9851402207f141e1ee8a4eb10af36fd6d1e208ce0f40bec5bf73ed9a8a2b528948a744da801",
        "03b71c5d941d1371c8bde8be3eb97dd4390e057d0bb784a9dcd5946a32bf436a30"
      ],
      "is_coinbase": false,
      "sequence": 0
    },
    {
      "txid": "67f3229888d333d2995fb92a9e4bb60ec98fb0a001900ed28fedccae46d1a977",
      "vout": 1,
      "prevout": {
        "scriptpubkey": "00146f83ed606976406d58b2673a3b6594027944da41",
        "scriptpubkey_asm": "OP_0 OP_PUSHBYTES_20 6f83ed606976406d58b2673a3b6594027944da41",
        "scriptpubkey_type": "v0_p2wpkh",
        "scriptpubkey_address": "bc1qd7p76crfweqx6k9jvuarkev5qfu5fkjp2py9le",
        "value": 39132
      },
      "scriptsig": "",
      "scriptsig_asm": "",
      "witness": [
        "304402205fda32a726891f54cbb0447ce6959bb5c8e609b032ff1bbd6aaaee0a66bd3bd702201afcfd9366b7c69944e98b4e9c33ac431b13e97d34902e8b90b5fad22442170301",
        "03b71c5d941d1371c8bde8be3eb97dd4390e057d0bb784a9dcd5946a32bf436a30"
      ],
      "is_coinbase": false,
      "sequence": 0
    },
    {
      "txid": "4dd5e3652ce17dcdca6239efc9b9f60f046567c3752dbc37dd1518faaf4393b6",
      "vout": 1,
      "prevout": {
        "scriptpubkey": "00146f83ed606976406d58b2673a3b6594027944da41",
        "scriptpubkey_asm": "OP_0 OP_PUSHBYTES_20 6f83ed606976406d58b2673a3b6594027944da41",
        "scriptpubkey_type": "v0_p2wpkh",
        "scriptpubkey_address": "bc1qd7p76crfweqx6k9jvuarkev5qfu5fkjp2py9le",
        "value": 26040
      },
      "scriptsig": "",
      "scriptsig_asm": "",
      "witness": [
        "304402200874f96fd4fa3550ea27225794b0671fd10fda9b1ea5127c0862aecec05da5b302201cf7c50424d1f05310e8419ad37a002c954829a5b4f3ab957fb974e2f60a276901",
        "03b71c5d941d1371c8bde8be3eb97dd4390e057d0bb784a9dcd5946a32bf436a30"
      ],
      "is_coinbase": false,
      "sequence": 0
    }
  ],
  "vout": [
    {
      "scriptpubkey": "76a91440fe662c79cb0bc1bad76c2579487740d9ad6c4f88ac",
      "scriptpubkey_asm": "OP_DUP OP_HASH160 OP_PUSHBYTES_20 40fe662c79cb0bc1bad76c2579487740d9ad6c4f OP_EQUALVERIFY OP_CHECKSIG",
      "scriptpubkey_type": "p2pkh",
      "scriptpubkey_address": "16vf1EnLwuBBhyt82AKey23fTUe7haxTL8",
      "value": 15321346
    }
  ],
  "size": 639,
  "weight": 1263,
  "fee": 8559,
  "status": {
    "confirmed": true,
    "block_height": 834638,
    "block_hash": "000000000000000000025f742c626208ac87e0b7d15054abb4a19ca2d735a54e",
    "block_time": 1710405325
  },
  "hex": "010000000001046772066bd07e26ef1d8ebc01262c06f784088360c76d97f5f403ba82768fd0cc01000000000000000067ea668042e54188381bf2c596513df057680a708bc49338355d612d8eed4d1601000000000000000077a9d146aecced8fd20e9001a0b08fc90eb64b9e2ab95f99d233d3889822f367010000000000000000b69343affa1815dd37bc2d75c36765040ff6b9c9ef3962cacd7de12c65e3d54d0100000000000000000102c9e900000000001976a91440fe662c79cb0bc1bad76c2579487740d9ad6c4f88ac02483045022100b17505871fb0f64913674654b33100124b2d45b7ebe7a7e1f44f5a0f7604790e02207725733cde7167693211523821ae5e07154da138a6e16bc8f1576e36181441b3012103b71c5d941d1371c8bde8be3eb97dd4390e057d0bb784a9dcd5946a32bf436a3002473044022050322577420d22157ebd0d1bd9807a73cf8e54d88ecb262e3f4ef0ac34a9851402207f141e1ee8a4eb10af36fd6d1e208ce0f40bec5bf73ed9a8a2b528948a744da8012103b71c5d941d1371c8bde8be3eb97dd4390e057d0bb784a9dcd5946a32bf436a300247304402205fda32a726891f54cbb0447ce6959bb5c8e609b032ff1bbd6aaaee0a66bd3bd702201afcfd9366b7c69944e98b4e9c33ac431b13e97d34902e8b90b5fad224421703012103b71c5d941d1371c8bde8be3eb97dd4390e057d0bb784a9dcd5946a32bf436a300247304402200874f96fd4fa3550ea27225794b0671fd10fda9b1ea5127c0862aecec05da5b302201cf7c50424d1f05310e8419ad37a002c954829a5b4f3ab957fb974e2f60a2769012103b71c5d941d1371c8bde8be3eb97dd4390e057d0bb784a9dcd5946a32bf436a3000000000"
}