{
  "txid": "f8cebe6bb3a258aa633f2df0408a6370e7f85959271d9881f466725907d060d2",
  "version": 2,
  "locktime": 0,
  "vin": [
    {
      "txid": "e38f0c03b9ac8d4dada0ba3ab0131995e928e56fb77476a41536a5a9701bbcd4",
      "vout": 0,
      "prevout": {
        "scriptpubkey": "5120f868fa6aa6171090d6ded660452ecf21dca7544210ca2e566a23f8085fe5b0c0",
        "scriptpubkey_asm": "OP_PUSHNUM_1 OP_PUSHBYTES_32 f868fa6aa6171090d6ded660452ecf21dca7544210ca2e566a23f8085fe5b0c0",
        "scriptpubkey_type": "v1_p2tr",
        "scriptpubkey_address": "bc1plp50564xzugfp4k76esy2tk0y8w2w4zzzr9zu4n2y0uqshl9krqqpgszpg",
        "value": 19325
      },
      "scriptsig": "",
      "scriptsig_asm": "",
      "witness": [
        "f4965a77573f357d953a9dda006b8046a1fbef7c9db128b929550b42c4d9841d127278555d4e1d97295fea235f828075ee8e7af55c5c027bb02b3dd66e071329",
        "20f2d00e1cce0b839d2e197679cac7a15152ec244338032c7767f72c1332d49a65ac0063036f7264010109696d6167652f706e67004d080289504e470d0a1a0a0000000d4948445200000118000001180803000000b05019be000000017352474200aece1ce90000000467414d410000b18f0bfc610500000144504c5445ff7b00f57a08ce6b0ff07503da6f0b554635433e3aaf61183c3c3c3846493a384a45384aa55c26147dbf0b8cdc1145fc200cdc1f0edc5a03fda30bdcc221cdd029aa7a5029363a3e009dff1904ff1602ffb900ffb700ffa75911b9600d2929292628293636365f46dc6145dbcb43dcca42e05138218cbac0f3ce93efce94edce9af3bb734f3822f2d19600a9fcf0d4a2d3b683f38718e9700e0bdcc600f3e795fbf0fdf9f26262621a19162d2922d2d1d01e0f0147220000ffe4ffffff575757000000ebe6e12e1701f7e7caa1917477674a8770598de2b500ffde384a3b01fc5876cc64c9a76ec8a86dd2a0590bdc2d00ff276ec44abb9b60bb9a5fc7954f00ff2aafc92fe88f20e9592fe93f3bddce29ffed25ff5c00ff3c13ff132aff0f2afff025b75f0ec36c2d4e37226d6d6d7e6b60ee5e0db91a2a866f5ab6404c93444b4b4b4bd9fadad1000000097048597300000ec300000ec301c76fa8640000039349444154785eedddd7771347184071c9425403a19892046c7ac718021893605a0c2934637a4de8e1ff7f470fdf3af6d1dcf5e0b3462b737fcfa39dfdeed3ee599d338d4ccda9b73d31b93acf9ee12c23c75b3150550c030c030c030c030c030c034d08020c030c030c030c030c030c030c030c030c030c030c030c030c035261ce7f4ef8ef53a67fbb0cbe8b0bcfd197612663b7793ebcccf3e27997f786e9300c300c300c300c300c300c300c300c300c300c300c300c300c300c300c300c300c300c300c300c300c300c300c300c300c300c5836613ec69dce31393c12fbcd1aa97b9837558769c43f12e6d995f024065f4822ccf3b8ec3c0f0b33ed6890d48eed17f24f8cf3edbd88c117920a9330f6baf0b42cccf66db17d7d551de65930cc7c8601860186018601cb28ccab987c015f1be6595dc38c3dcaf3f8499ec7a7b33c8ac7bb8eb230abdbbbf30cc4389569ce4cdfef81e97b0f0a77fe88064999af04c3072b7f579a99ee898ac32cc14ba461d20c030c030c030c030c030c030c030c030c030c030c030c030c030c030c030c030c030c030c030c030c030c030c030c030c030c030c030c030c030c030c030c030c030c030c030c033a61e21fa6dfd4f4bdbb85ba86b97dab17fefeebcf59f50c3376ec482f1cbe71b370664d3448fafec2fc5630cc5c86018601860186018601860186018601860186018601860186018601fd10e644999803c422108b92ea1fa639f57b89a9d16b25464b7f7b3d56a59d8d2cb50dd3ba7ab9c4f8954b2526c66359d264ac4a330c300c300c300c300c300c300c300c300c300c300c300c300c300c300c300c300c300ca87f985f2f96b83071aec4c485f1124d3e01e76355dad95f0a350dd368ad28717a6cd6b1d12e474f958a5549270e9d2c6ca869985ca9ef4ff19d242dd6a41d3eb4a3b01cc32c9e618061806180618061c0720a733466aa44d561aa3f9720dbd081fd59f6edcdb16f6f645954985d717cc51c959f64916de8e79fb26cfe31cbc6c8b2a830bbe39e6a213fccce1c86018601860186018601860186018601d96146ba19a623797af18ab8a75ae84d983e3827d230c030c030c030c030c030c03060686bd8526ef3a61c3f6cdc5058ff7f9876b7c1d8bebe9a85c175a5d6665a332baa74ba0cb4ba3463fb3eb02ac6a85ebb568ffa5fcd30c030c030c030c030c03060d5caa5d2e7615a034ba68f9ee624499224499224499224499224499224499224499224499224499224499224499224499224499224a90f341a5f00ed1e6fbdc1281efb0000000049454e44ae426082680063036f726401011e6170706c69636174696f6e2f6a736f6e3b636861727365743d7574662d38004d68017b2270223a22766f7264222c2276223a312c227479223a22696e7363222c22636f6c223a2261643262353365623665333264663466633139386133626262306662663638666637336432666432323832323163313136373630306533316337613163343836222c22696964223a22557073696465646f776e204e6f64654d6f6e6b6573222c227075626c223a2231455337623370636a527a4667796969714c7278484b546e43686535364c4a485937222c226e6f6e6365223a3633332c226d696e746572223a2262633170396e6870633578646563363961397a707a7563396a77773674647579367a70336d716e363477716379786d7474686b7672667a7132673330336e222c22736967223a2247355747512f5276577238356d364f6e436e4f5238647a4237635034627a37594933322b6837746269477675524e67666f6c51306653643855586a466c644b6f6877734a752b4a784836594c5351586f51424e315777513d227d68",
        "c1f2d00e1cce0b839d2e197679cac7a15152ec244338032c7767f72c1332d49a65675a92934efa5e4869b2432a3e00abfc6819367af43949c2edc693b32d23ac05"
      ],
      "is_coinbase": false,
      "sequence": 4294967293
    }
  ],
  "vout": [
    {
      "scriptpubkey": "51202cee1c50cdce345e944117305939da5b784d0831d827aab81821b6b5decc1a44",
      "scriptpubkey_asm": "OP_PUSHNUM_1 OP_PUSHBYTES_32 2cee1c50cdce345e944117305939da5b784d0831d827aab81821b6b5decc1a44",
      "scriptpubkey_type": "v1_p2tr",
      "scriptpubkey_address": "bc1p9nhpc5xdec69a9zpzuc9jww6tduy6zp3mqn64wqcyxmtthkvrfzq2g303n",
      "value": 1000
    },
    {
      "scriptpubkey": "5120f62171bf126320eed697da59179bb0a31c00c0460a1a69c591c3c0d0f8f5038f",
      "scriptpubkey_asm": "OP_PUSHNUM_1 OP_PUSHBYTES_32 f62171bf126320eed697da59179bb0a31c00c0460a1a69c591c3c0d0f8f5038f",
      "scriptpubkey_type": "v1_p2tr",
      "scriptpubkey_address": "bc1p7cshr0cjvvswa45hmfv30xas5vwqpszxpgdxn3v3c0qdp784qw8szjtge2",
      "value": 7709
    },
    {
      "scriptpubkey": "51200705a5767db892e98125775049b1a13dd9ecdc8aea0df413cabbee683e871012",
      "scriptpubkey_asm": "OP_PUSHNUM_1 OP_PUSHBYTES_32 0705a5767db892e98125775049b1a13dd9ecdc8aea0df413cabbee683e871012",
      "scriptpubkey_type": "v1_p2tr",
      "scriptpubkey_address": "bc1pquz62anahzfwnqf9wagynvdp8hv7ehy2agxlgy72h0hxs058zqfqk8ksyq",
      "value": 3235
    }
  ],
  "size": 2142,
  "weight": 2682,
  "fee": 7381,
  "status": {
    "confirmed": true,
    "block_height": 834464,
    "block_hash": "0000000000000000000177a0869a911a2b65c9bdcd5a8bcb02b68f305bee848e",
    "block_time": 1710308296
  },
  "hex": "02000000000101d4bc1b70a9a53615a47674b76fe528e9951913b03abaa0ad4d8dacb9030c8fe30000000000fdffffff03e8030000000000002251202cee1c50cdce345e944117305939da5b784d0831d827aab81821b6b5decc1a441d1e000000000000225120f62171bf126320eed697da59179bb0a31c00c0460a1a69c591c3c0d0f8f5038fa30c0000000000002251200705a5767db892e98125775049b1a13dd9ecdc8aea0df413cabbee683e8710120340f4965a77573f357d953a9dda006b8046a1fbef7c9db128b929550b42c4d9841d127278555d4e1d97295fea235f828075ee8e7af55c5c027bb02b3dd66e071329fd210720f2d00e1cce0b839d2e197679cac7a15152ec244338032c7767f72c1332d49a65ac0063036f7264010109696d6167652f706e67004d080289504e470d0a1a0a0000000d4948445200000118000001180803000000b05019be000000017352474200aece1ce90000000467414d410000b18f0bfc610500000144504c5445ff7b00f57a08ce6b0ff07503da6f0b554635433e3aaf61183c3c3c3846493a384a45384aa55c26147dbf0b8cdc1145fc200cdc1f0edc5a03fda30bdcc221cdd029aa7a5029363a3e009dff1904ff1602ffb900ffb700ffa75911b9600d2929292628293636365f46dc6145dbcb43dcca42e05138218cbac0f3ce93efce94edce9af3bb734f3822f2d19600a9fcf0d4a2d3b683f38718e9700e0bdcc600f3e795fbf0fdf9f26262621a19162d2922d2d1d01e0f0147220000ffe4ffffff575757000000ebe6e12e1701f7e7caa1917477674a8770598de2b500ffde384a3b01fc5876cc64c9a76ec8a86dd2a0590bdc2d00ff276ec44abb9b60bb9a5fc7954f00ff2aafc92fe88f20e9592fe93f3bddce29ffed25ff5c00ff3c13ff132aff0f2afff025b75f0ec36c2d4e37226d6d6d7e6b60ee5e0db91a2a866f5ab6404c93444b4b4b4bd9fadad1000000097048597300000ec300000ec301c76fa8640000039349444154785eedddd7771347184071c9425403a19892046c7ac718021893605a0c2934637a4de8e1ff7f470fdf3af6d1dcf5e0b3462b737fcfa39dfdeed3ee599d338d4ccda9b73d31b93acf9ee12c23c75b3150550c030c030c030c030c030c034d08020c030c030c030c030c030c030c030c030c030c030c030c030c035261ce7f4ef8ef53a67fbb0cbe8b0bcfd197612663b7793ebcccf3e27997f786e9300c300c300c300c300c300c300c300c300c300c300c300c300c300c300c300c300c300c300c300c300c300c300c300c300c300c5836613ec69dce31393c12fbcd1aa97b9837558769c43f12e6d995f024065f4822ccf3b8ec3c0f0b33ed6890d48eed17f24f8cf3edbd88c117920a9330f6baf0b42cccf66db17d7d551de65930cc7c8601860186018601cb28ccab987c015f1be6595dc38c3dcaf3f8499ec7a7b33c8ac7bb8eb230abdbbbf30cc4389569ce4cdfef81e97b0f0a77fe88064999af04c3072b7f579a99ee898ac32cc14ba461d20c030c030c030c030c030c030c030c030c030c030c030c030c030c030c030c030c030c030c030c030c030c030c030c030c030c030c030c030c030c030c030c030c030c030c030c033a61e21fa6dfd4f4bdbb85ba86b97dab17fefeebcf59f50c3376ec482f1cbe71b370664d3448fafec2fc5630cc5c86018601860186018601860186018601860186018601860186018601fd10e644999803c422108b92ea1fa639f57b89a9d16b25464b7f7b3d56a59d8d2cb50dd3ba7ab9c4f8954b2526c66359d264ac4a330c300c300c300c300c300c300c300c300c300c300c300c300c300c300c300c300c300ca87f985f2f96b83071aec4c485f1124d3e01e76355dad95f0a350dd368ad28717a6cd6b1d12e474f958a5549270e9d2c6ca869985ca9ef4ff19d242dd6a41d3eb4a3b01cc32c9e618061806180618061c0720a733466aa44d561aa3f9720dbd081fd59f6edcdb16f6f645954985d717cc51c959f64916de8e79fb26cfe31cbc6c8b2a830bbe39e6a213fccce1c86018601860186018601860186018601d96146ba19a623797af18ab8a75ae84d983e3827d230c030c030c030c030c030c03060686bd8526ef3a61c3f6cdc5058ff7f9876b7c1d8bebe9a85c175a5d6665a332baa74ba0cb4ba3463fb3eb02ac6a85ebb568ffa5fcd30c030c030c030c030c03060d5caa5d2e7615a034ba68f9ee624499224499224499224499224499224499224499224499224499224499224499224499224499224a90f341a5f00ed1e6fbdc1281efb0000000049454e44ae426082680063036f726401011e6170706c69636174696f6e2f6a736f6e3b636861727365743d7574662d38004d68017b2270223a22766f7264222c2276223a312c227479223a22696e7363222c22636f6c223a2261643262353365623665333264663466633139386133626262306662663638666637336432666432323832323163313136373630306533316337613163343836222c22696964223a22557073696465646f776e204e6f64654d6f6e6b6573222c227075626c223a2231455337623370636a527a4667796969714c7278484b546e43686535364c4a485937222c226e6f6e6365223a3633332c226d696e746572223a2262633170396e6870633578646563363961397a707a7563396a77773674647579367a70336d716e363477716379786d7474686b7672667a7132673330336e222c22736967223a2247355747512f5276577238356d364f6e436e4f5238647a4237635034627a37594933322b6837746269477675524e67666f6c51306653643855586a466c644b6f6877734a752b4a784836594c5351586f51424e315777513d227d6841c1f2d00e1cce0b839d2e197679cac7a15152ec244338032c7767f72c1332d49a65675a92934efa5e4869b2432a3e00abfc6819367af43949c2edc693b32d23ac0500000000"
}