{
  "txid": "f8d40dc6475794d0104b1181bcc6d430866361755c6c9e65b1f851b9b445e612",
  "version": 2,
  "locktime": 0,
  "vin": [
    {
      "txid": "e60d01f1eeee2dbec06ec3a8d448424ca93ea4dcefc453871fc404580cc03558",
      "vout": 6,
      "prevout": {
        "scriptpubkey": "51206a22ddb10dbb3a83197b1ff39ca29e8847681f331c644d31b7eead15cf36bdb0",
        "scriptpubkey_asm": "OP_PUSHNUM_1 OP_PUSHBYTES_32 6a22ddb10dbb3a83197b1ff39ca29e8847681f331c644d31b7eead15cf36bdb0",
        "scriptpubkey_type": "v1_p2tr",
        "scriptpubkey_address": "bc1pdg3dmvgdhvagxxtmrleeeg573prks8enr3jy6vdha6k3tnekhkcqlc5etz",
        "value": 2634
      },
      "scriptsig": "",
      "scriptsig_asm": "",
      "witness": [
        "b72fb1a15142d0952b9adb12e9008875f3081eba1be07a602be79d2ac2a1336ae4d2b25dce9552160e2149bc71b221b5e50b5b896500ab1476717feb014d72e0",
        "2009deff9b1c2de4374b6bf84750881d9e220cdd3bd61f426c7ef8b83631172090ac0063036f726401011e6170706c69636174696f6e2f6a736f6e3b636861727365743d7574662d38004cb67b2270223a22706f772d3230222c226f70223a226d696e74222c227469636b223a2250455045222c22616d74223a2231303030222c22736f6c7574696f6e223a22504550453a3351345a614567486177466561585773437a6d775a743766465543593771377759703a303030303030303030303030303030303030303139393431613561653132383937363539383134343239323533333030353762306461393666336465613163353a32393538363033323032227d68",
        "c08db7ab6533b96c0773861c29df1705bf8b1dfa6577ecaa232ec7cdccd60ed417"
      ],
      "is_coinbase": false,
      "sequence": 4294967295
    }
  ],
  "vout": [
    {
      "scriptpubkey": "a914f565ec243898a586d6342e6d91e39b804127827787",
      "scriptpubkey_asm": "OP_HASH160 OP_PUSHBYTES_20 f565ec243898a586d6342e6d91e39b8041278277 OP_EQUAL",
      "scriptpubkey_type": "p2sh",
      "scriptpubkey_address": "3Q4ZaEgHawFeaXWsCzmwZt7fFUCY7q7wYp",
      "value": 546
    }
  ],
  "size": 447,
  "weight": 696,
  "fee": 2088,
  "status": {
    "confirmed": true,
    "block_height": 834460,
    "block_hash": "00000000000000000000484a79b643b2524bbce82e5d8a442013fa5b8905ed98",
    "block_time": 1710307468
  },
  "hex": "020000000001015835c00c5804c41f8753c4efdca43ea94c4248d4a8c36ec0be2deeeef1010de60600000000ffffffff01220200000000000017a914f565ec243898a586d6342e6d91e39b8041278277870340b72fb1a15142d0952b9adb12e9008875f3081eba1be07a602be79d2ac2a1336ae4d2b25dce9552160e2149bc71b221b5e50b5b896500ab1476717feb014d72e0fd03012009deff9b1c2de4374b6bf84750881d9e220cdd3bd61f426c7ef8b83631172090ac0063036f726401011e6170706c69636174696f6e2f6a736f6e3b636861727365743d7574662d38004cb67b2270223a22706f772d3230222c226f70223a226d696e74222c227469636b223a2250455045222c22616d74223a2231303030222c22736f6c7574696f6e223a22504550453a3351345a614567486177466561585773437a6d775a743766465543593771377759703a303030303030303030303030303030303030303139393431613561653132383937363539383134343239323533333030353762306461393666336465613163353a32393538363033323032227d6821c08db7ab6533b96c0773861c29df1705bf8b1dfa6577ecaa232ec7cdccd60ed41700000000"
}