{
  "txid": "f8f2c826dbe61dc2dfcde6f85d3021437384775a9abc2b2cac871c3465c67c7e",
  "version": 2,
  "locktime": 0,
  "vin": [
    {
      "txid": "3acb519517f2cf150a2e11aa6cf501cc5237d19e1b06d2b6bfa229e1da3bebbc",
      "vout": 0,
      "prevout": {
        "scriptpubkey": "0014f2f46a6a8a378466614505d70a6746bb71a83824",
        "scriptpubkey_asm": "OP_0 OP_PUSHBYTES_20 f2f46a6a8a378466614505d70a6746bb71a83824",
        "scriptpubkey_type": "v0_p2wpkh",
        "scriptpubkey_address": "bc1q7t6x5652x7zxvc29qhts5e6xhdc6swpymmuux7",
        "value": 104898
      },
      "scriptsig": "",
      "scriptsig_asm": "",
      "witness": [
        "304502210091741159a140747e87a6a1c33c7aefbdb37d5d852ab4327722bb24aa7acc0d01022028e476a4e2b4c247ccd2a2c36daeaa4266279007f4f16d9848de56880f0d196b01",
        "023b3bbc117f494dae9db9383198ecf1ae3ba3cbf5c968e712d6315a5ad8bc5665"
      ],
      "is_coinbase": false,
      "sequence": 4294967295
    },
    {
      "txid": "467405c1ab4a3e94afce51a0bfe117a6c3076d50d932f1d99dabe623438d28da",
      "vout": 1,
      "prevout": {
        "scriptpubkey": "0014ff011a70fc200f4d3580b96119bf347d79c3b266",
        "scriptpubkey_asm": "OP_0 OP_PUSHBYTES_20 ff011a70fc200f4d3580b96119bf347d79c3b266",
        "scriptpubkey_type": "v0_p2wpkh",
        "scriptpubkey_address": "bc1qluq35u8uyq856dvqh9s3n0e504uu8vnxnpytu5",
        "value": 245862
      },
      "scriptsig": "",
      "scriptsig_asm": "",
      "witness": [
        "3045022100ae89c3655e59e6174ebec8700304ee90abcc91c253175bd84446fa254dc81a7902202ac54d4e275f2a2cf49b6685de86b3cd741782bffb958f969667dd75679380e801",
        "0259737a86865f71b91ffa9aa96f85df4caf0cbe99bb254c38730e4473401a50fb"
      ],
      "is_coinbase": false,
      "sequence": 4294967295
    },
    {
      "txid": "645def9858a5f318b1a0c6b2dfe362e03ead69aec62d92dec7c4f64a1e0bdf58",
      "vout": 1,
      "prevout": {
        "scriptpubkey": "00146acc34afa48f5f2e94d399bc7612483fcadd4547",
        "scriptpubkey_asm": "OP_0 OP_PUSHBYTES_20 6acc34afa48f5f2e94d399bc7612483fcadd4547",
        "scriptpubkey_type": "v0_p2wpkh",
        "scriptpubkey_address": "bc1qdtxrftay3a0ja9xnnx78vyjg8l9d6328eq7s57",
        "value": 8277017
      },
      "scriptsig": "",
      "scriptsig_asm": "",
      "witness": [
        "3045022100a1c06d286939ed55603a7e1d537ff4b2cdf98f9eeb853f6cbe320ca72937298902204349772da22e7cddad47e8cedca9d7be9a8071231af1a7e2c4f1f0dca338c52501",
        "032899049ac97c29e3452bcb6292d59d99e100343ff94ffbfc64fac5e1b5a09836"
      ],
      "is_coinbase": false,
      "sequence": 4294967295
    },
    {
      "txid": "9d720d2004478687da9ade166a8b67d72c78d3423ffbf96c8eefc14351376133",
      "vout": 0,
      "prevout": {
        "scriptpubkey": "0014fec7727a8c67ec3247dc2fba6f7ecc6171c9dfe0",
        "scriptpubkey_asm": "OP_0 OP_PUSHBYTES_20 fec7727a8c67ec3247dc2fba6f7ecc6171c9dfe0",
        "scriptpubkey_type": "v0_p2wpkh",
        "scriptpubkey_address": "bc1qlmrhy75vvlkry37u97ax7lkvv9cunhlq692aka",
        "value": 232708
      },
      "scriptsig": "",
      "scriptsig_asm": "",
      "witness": [
        "3045022100d8e1c4222b722e0245c33b89c57e1a0e589cc8f016302e215f97141781534c3e02203cc10216c6a9e27ebcb5f6f0afd822e8e4a53cec69594c2d44b29cf0c365b70801",
        "02e7d021a28cd7a7f953b5ab8f7f70802b4b4e49747cd995076dbca6bd6160d936"
      ],
      "is_coinbase": false,
      "sequence": 4294967295
    }
  ],
  "vout": [
    {
      "scriptpubkey": "0014ee13634c28376eaa4a3674232d660a91d33bc5f2",
      "scriptpubkey_asm": "OP_0 OP_PUSHBYTES_20 ee13634c28376eaa4a3674232d660a91d33bc5f2",
      "scriptpubkey_type": "v0_p2wpkh",
      "scriptpubkey_address": "bc1qacfkxnpgxah25j3kws3j6es2j8fnh30jx9za8r",
      "value": 3619687
    },
    {
      "scriptpubkey": "0014265552e1ad35b1982be0e1fcb2fd315f00a88fd2",
      "scriptpubkey_asm": "OP_0 OP_PUSHBYTES_20 265552e1ad35b1982be0e1fcb2fd315f00a88fd2",
      "scriptpubkey_type": "v0_p2wpkh",
      "scriptpubkey_address": "bc1qye249cddxkces2lqu87t9lf3tuq23r7jfh0sdr",
      "value": 5231880
    }
  ],
  "size": 670,
  "weight": 1378,
  "fee": 8918,
  "status": {
    "confirmed": true,
    "block_height": 834638,
    "block_hash": "000000000000000000025f742c626208ac87e0b7d15054abb4a19ca2d735a54e",
    "block_time": 1710405325
  },
  "hex": "02000000000104bceb3bdae129a2bfb6d2061b9ed13752cc01f56caa112e0a15cff2179551cb3a0000000000ffffffffda288d4323e6ab9dd9f132d9506d07c3a617e1bfa051ceaf943e4aabc10574460100000000ffffffff58df0b1e4af6c4c7de922dc6ae69ad3ee062e3dfb2c6a0b118f3a55898ef5d640100000000ffffffff3361375143c1ef8e6cf9fb3f42d3782cd7678b6a16de9ada87864704200d729d0000000000ffffffff02673b370000000000160014ee13634c28376eaa4a3674232d660a91d33bc5f208d54f0000000000160014265552e1ad35b1982be0e1fcb2fd315f00a88fd20248304502210091741159a140747e87a6a1c33c7aefbdb37d5d852ab4327722bb24aa7acc0d01022028e476a4e2b4c247ccd2a2c36daeaa4266279007f4f16d9848de56880f0d196b0121023b3bbc117f494dae9db9383198ecf1ae3ba3cbf5c968e712d6315a5ad8bc566502483045022100ae89c3655e59e6174ebec8700304ee90abcc91c253175bd84446fa254dc81a7902202ac54d4e275f2a2cf49b6685de86b3cd741782bffb958f969667dd75679380e801210259737a86865f71b91ffa9aa96f85df4caf0cbe99bb254c38730e4473401a50fb02483045022100a1c06d286939ed55603a7e1d537ff4b2cdf98f9eeb853f6cbe320ca72937298902204349772da22e7cddad47e8cedca9d7be9a8071231af1a7e2c4f1f0dca338c5250121032899049ac97c29e3452bcb6292d59d99e100343ff94ffbfc64fac5e1b5a0983602483045022100d8e1c4222b722e0245c33b89c57e1a0e589cc8f016302e215f97141781534c3e02203cc10216c6a9e27ebcb5f6f0afd822e8e4a53cec69594c2d44b29cf0c365b708012102e7d021a28cd7a7f953b5ab8f7f70802b4b4e49747cd995076dbca6bd6160d93600000000"
}