{
  "txid": "f90bae8f72f73c98318510548b2d3d7b204b3989efe2c22d49d89f38d579e4da",
  "version": 2,
  "locktime": 0,
  "vin": [
    {
      "txid": "acc3ba00869acb582a3f2904ce3a11dd3779350ce234063fc7d0959246213364",
      "vout": 289,
      "prevout": {
        "scriptpubkey": "51205bc016375d945b55682dc4f6274f69103c08419fc4f4c4855e313aee0f38dee5",
        "scriptpubkey_asm": "OP_PUSHNUM_1 OP_PUSHBYTES_32 5bc016375d945b55682dc4f6274f69103c08419fc4f4c4855e313aee0f38dee5",
        "scriptpubkey_type": "v1_p2tr",
        "scriptpubkey_address": "bc1pt0qpvd6aj3d426pdcnmzwnmfzq7qssvlcn6vfp27xyawurecmmjsvrv942",
        "value": 1806
      },
      "scriptsig": "",
      "scriptsig_asm": "",
      "witness": [
        "fdc78595d7ce97feadde9b900ba93e450167f0cfc335275193d9dc2bd6fe5da86fc0c55bbd99a142e24639fccff53c83a3314fa4c6c7944d6866c8126eee2c92",
        "2025571eb6a4a11748dbbb2cb423e08c736c76f9e64972c9965221a33f6c583e2aac0063036f726401010a746578742f706c61696e00357b2270223a226272632d3230222c226f70223a226d696e74222c227469636b223a22646f6765222c22616d74223a2234323030227d68",
        "c125571eb6a4a11748dbbb2cb423e08c736c76f9e64972c9965221a33f6c583e2a"
      ],
      "is_coinbase": false,
      "sequence": 4261412863
    }
  ],
  "vout": [
    {
      "scriptpubkey": "00147a665de7a370f4c9b372ab1fae587500a5bcbdb4",
      "scriptpubkey_asm": "OP_0 OP_PUSHBYTES_20 7a665de7a370f4c9b372ab1fae587500a5bcbdb4",
      "scriptpubkey_type": "v0_p2wpkh",
      "scriptpubkey_address": "bc1q0fn9mearwr6vnvmj4v06ukr4qzjme0d565dzcx",
      "value": 294
    }
  ],
  "size": 294,
  "weight": 540,
  "fee": 1512,
  "status": {
    "confirmed": true,
    "block_height": 834460,
    "block_hash": "00000000000000000000484a79b643b2524bbce82e5d8a442013fa5b8905ed98",
    "block_time": 1710307468
  },
  "hex": "02000000000101643321469295d0c73f0634e20c357937dd113ace04293f2a58cb9a8600bac3ac2101000000fffffffd0126010000000000001600147a665de7a370f4c9b372ab1fae587500a5bcbdb40340fdc78595d7ce97feadde9b900ba93e450167f0cfc335275193d9dc2bd6fe5da86fc0c55bbd99a142e24639fccff53c83a3314fa4c6c7944d6866c8126eee2c926d2025571eb6a4a11748dbbb2cb423e08c736c76f9e64972c9965221a33f6c583e2aac0063036f726401010a746578742f706c61696e00357b2270223a226272632d3230222c226f70223a226d696e74222c227469636b223a22646f6765222c22616d74223a2234323030227d6821c125571eb6a4a11748dbbb2cb423e08c736c76f9e64972c9965221a33f6c583e2a00000000"
}