{
  "txid": "f911c270502646024c02ad50e01c618c2e0580df3344ff172f6670ae8013749e",
  "version": 2,
  "locktime": 0,
  "vin": [
    {
      "txid": "d0fa3356fb263009d4fc8d7d6ba59963a560baba8da03501fdc411ff26b76ad6",
      "vout": 3,
      "prevout": {
        "scriptpubkey": "001448b7ae792ddae0bd372e29b271a8525694b6cb75",
        "scriptpubkey_asm": "OP_0 OP_PUSHBYTES_20 48b7ae792ddae0bd372e29b271a8525694b6cb75",
        "scriptpubkey_type": "v0_p2wpkh",
        "scriptpubkey_address": "bc1qfzm6u7fdmtst6dew9xe8r2zj262tdjm4mspr6q",
        "value": 3720315
      },
      "scriptsig": "",
      "scriptsig_asm": "",
      "witness": [
        "3044022055b5119a32671bbf39c344a8c13706abf7737846f8aac0de0d71128ce90990e0022060e89f377c14a8c28a049088161ad07423cbeb44bc30bf2504787df9830829bd01",
        "0315a11288cddc3307e895c2e2f0b215180277adeced9225e14f23f412f88c54a6"
      ],
      "is_coinbase": false,
      "sequence": 4294967295
    }
  ],
  "vout": [
    {
      "scriptpubkey": "a9144033be5a536e3922798caa703069729cec8af95687",
      "scriptpubkey_asm": "OP_HASH160 OP_PUSHBYTES_20 4033be5a536e3922798caa703069729cec8af956 OP_EQUAL",
      "scriptpubkey_type": "p2sh",
      "scriptpubkey_address": "37YVA2WfuPZuk7H22MSPQRqvTmtrRL5YH3",
      "value": 3717390
    }
  ],
  "size": 192,
  "weight": 441,
  "fee": 2925,
  "status": {
    "confirmed": true,
    "block_height": 834638,
    "block_hash": "000000000000000000025f742c626208ac87e0b7d15054abb4a19ca2d735a54e",
    "block_time": 1710405325
  },
  "hex": "02000000000101d66ab726ff11c4fd0135a08dbaba60a56399a56b7d8dfcd4093026fb5633fad00300000000ffffffff010eb938000000000017a9144033be5a536e3922798caa703069729cec8af9568702473044022055b5119a32671bbf39c344a8c13706abf7737846f8aac0de0d71128ce90990e0022060e89f377c14a8c28a049088161ad07423cbeb44bc30bf2504787df9830829bd01210315a11288cddc3307e895c2e2f0b215180277adeced9225e14f23f412f88c54a600000000"
}