{
  "txid": "f916591fdced3e6f86599662e46965250d7db1fe3a6bfcae64b23ea1afc10991",
  "version": 2,
  "locktime": 0,
  "vin": [
    {
      "txid": "ff660864b1f9fd38ae92d0686aabd0f18f13c7a035db46ceebf48e7955ff0192",
      "vout": 0,
      "prevout": {
        "scriptpubkey": "5120e49d9a1dc57b5da4b6b8c258d344ecae1aa1305cc214f8fb2221bb5b6daf6c2e",
        "scriptpubkey_asm": "OP_PUSHNUM_1 OP_PUSHBYTES_32 e49d9a1dc57b5da4b6b8c258d344ecae1aa1305cc214f8fb2221bb5b6daf6c2e",
        "scriptpubkey_type": "v1_p2tr",
        "scriptpubkey_address": "bc1pujwe58w90dw6fd4ccfvdx38v4cd2zvzucg2037ezyxa4kmd0dshqtkngnt",
        "value": 546
      },
      "scriptsig": "",
      "scriptsig_asm": "",
      "witness": [
        "cafe20b0f26b960912ac5a61f05bd286aa6f38d5f52eb3c0ab9ed4e8ea7efe5b113bc4f5119305e0d647a7c5a9bb427c98731bfa4971c8f3f504d7565f17e106",
        "204a29472da57564c77ddcd32404b39c8633eba9d614a527d5b7e934e26e9afd12ac",
        "c093674766caa3db9c0f63c4b74f302510c509d6d0ffac9d67214d8f03cb2ed27a8b89d24596d8c1017bb875d2a34ba69eaa13a3314eab7995b8bee7f5a63be13f"
      ],
      "is_coinbase": false,
      "sequence": 4294967295
    },
    {
      "txid": "e6b2f89b56cfeeeaac30fe4c464f3735cb9f0a05f3c7f97c2ba7899ca2b5fffd",
      "vout": 2,
      "prevout": {
        "scriptpubkey": "a914219c3fa26fd690d72cbaaee1186880d5166c4d4487",
        "scriptpubkey_asm": "OP_HASH160 OP_PUSHBYTES_20 219c3fa26fd690d72cbaaee1186880d5166c4d44 OP_EQUAL",
        "scriptpubkey_type": "p2sh",
        "scriptpubkey_address": "34kjQDSUz36So4PCje6ee929hvqvBZtSsX",
        "value": 4733778
      },
      "scriptsig": "16001476e53d81ccf51f336f86b113b8d87203c57b9a1b",
      "scriptsig_asm": "OP_PUSHBYTES_22 001476e53d81ccf51f336f86b113b8d87203c57b9a1b",
      "witness": [
        "3044022008cc2778237ed1460f290dcb8af20a3c7dfc130ae72ab747135cd0c4c7cccb66022042f1e1c7902b959732e7907c394b84d1b02123ddd0bef7a4258480f88811f81b01",
        "03066aa2bb9d2d496c41f83c807f4d82918511148a80a9febcbd4ce602582669ad"
      ],
      "is_coinbase": false,
      "sequence": 4294967295,
      "inner_redeemscript_asm": "OP_0 OP_PUSHBYTES_20 76e53d81ccf51f336f86b113b8d87203c57b9a1b"
    }
  ],
  "vout": [
    {
      "scriptpubkey": "5120b2dac76bbca33d67ed71c20f653d47a1a4cae247a03f3c87b7426706c5672f3e",
      "scriptpubkey_asm": "OP_PUSHNUM_1 OP_PUSHBYTES_32 b2dac76bbca33d67ed71c20f653d47a1a4cae247a03f3c87b7426706c5672f3e",
      "scriptpubkey_type": "v1_p2tr",
      "scriptpubkey_address": "bc1pktdvw6au5v7k0mt3cg8k20285xjv4cj85qlnepahgfnsd3t89ulqd826z3",
      "value": 546
    },
    {
      "scriptpubkey": "a914219c3fa26fd690d72cbaaee1186880d5166c4d4487",
      "scriptpubkey_asm": "OP_HASH160 OP_PUSHBYTES_20 219c3fa26fd690d72cbaaee1186880d5166c4d44 OP_EQUAL",
      "scriptpubkey_type": "p2sh",
      "scriptpubkey_address": "34kjQDSUz36So4PCje6ee929hvqvBZtSsX",
      "value": 4728848
    }
  ],
  "size": 466,
  "weight": 1036,
  "fee": 4930,
  "status": {
    "confirmed": true,
    "block_height": 834638,
    "block_hash": "000000000000000000025f742c626208ac87e0b7d15054abb4a19ca2d735a54e",
    "block_time": 1710405325
  },
  "hex": "020000000001029201ff55798ef4ebce46db35a0c7138ff1d0ab6a68d092ae38fdf9b1640866ff0000000000fffffffffdffb5a29c89a72b7cf9c7f3050a9fcb35374f464cfe30aceaeecf569bf8b2e6020000001716001476e53d81ccf51f336f86b113b8d87203c57b9a1bffffffff022202000000000000225120b2dac76bbca33d67ed71c20f653d47a1a4cae247a03f3c87b7426706c5672f3e102848000000000017a914219c3fa26fd690d72cbaaee1186880d5166c4d44870340cafe20b0f26b960912ac5a61f05bd286aa6f38d5f52eb3c0ab9ed4e8ea7efe5b113bc4f5119305e0d647a7c5a9bb427c98731bfa4971c8f3f504d7565f17e10622204a29472da57564c77ddcd32404b39c8633eba9d614a527d5b7e934e26e9afd12ac41c093674766caa3db9c0f63c4b74f302510c509d6d0ffac9d67214d8f03cb2ed27a8b89d24596d8c1017bb875d2a34ba69eaa13a3314eab7995b8bee7f5a63be13f02473044022008cc2778237ed1460f290dcb8af20a3c7dfc130ae72ab747135cd0c4c7cccb66022042f1e1c7902b959732e7907c394b84d1b02123ddd0bef7a4258480f88811f81b012103066aa2bb9d2d496c41f83c807f4d82918511148a80a9febcbd4ce602582669ad00000000"
}