{
  "txid": "f91cce555b5fb90e14c7b3597073c23f972721bc93047c5bb0dabe57cb9aeff0",
  "version": 1,
  "locktime": 0,
  "vin": [
    {
      "txid": "fac9c643b0425ab8816e2c8a31ead22462daa3d70f4588fc96792c8830cfc303",
      "vout": 0,
      "prevout": {
        "scriptpubkey": "5120026a1e7a7935fb01ddb315530831f1ebf704c19d1dcc8b6ec2a6531b688ca24f",
        "scriptpubkey_asm": "OP_PUSHNUM_1 OP_PUSHBYTES_32 026a1e7a7935fb01ddb315530831f1ebf704c19d1dcc8b6ec2a6531b688ca24f",
        "scriptpubkey_type": "v1_p2tr",
        "scriptpubkey_address": "bc1pqf4pu7nexhasrhdnz4fssv03a0msfsvarhxgkmkz5ef3k6yv5f8sewntzc",
        "value": 2710
      },
      "scriptsig": "",
      "scriptsig_asm": "",
      "witness": [
        "d49201130b68493c8f23c2b86b3be05b53af9f63129107d10cb896e37028e86603558685ea39a05abd20f1fe662a9e3780711cf45ddceef2f4fb91ca8f12194583",
        "20be11f1d0580232188e877ef283eb5a1efd4e9e5290a2633605d666f59ad3fff2ac00630461746f6d03646d742ca16461726773a36b6d696e745f7469636b657263627463656e6f6e63651a0080ad766474696d651a65f10e3568",
        "c1be11f1d0580232188e877ef283eb5a1efd4e9e5290a2633605d666f59ad3fff2"
      ],
      "is_coinbase": false,
      "sequence": 4294967293
    }
  ],
  "vout": [
    {
      "scriptpubkey": "51209d6dbbf9bad17d0135e06ea56ec304df985f9f9bc809fa52ae6789a0947e0300",
      "scriptpubkey_asm": "OP_PUSHNUM_1 OP_PUSHBYTES_32 9d6dbbf9bad17d0135e06ea56ec304df985f9f9bc809fa52ae6789a0947e0300",
      "scriptpubkey_type": "v1_p2tr",
      "scriptpubkey_address": "bc1pn4kmh7d6697szd0qd6jkascym7v9l8umeqyl554wv7y6p9r7qvqquzkndh",
      "value": 1000
    }
  ],
  "size": 289,
  "weight": 571,
  "fee": 1710,
  "status": {
    "confirmed": true,
    "block_height": 834460,
    "block_hash": "00000000000000000000484a79b643b2524bbce82e5d8a442013fa5b8905ed98",
    "block_time": 1710307468
  },
  "hex": "0100000000010103c3cf30882c7996fc88450fd7a3da6224d2ea318a2c6e81b85a42b043c6c9fa0000000000fdffffff01e8030000000000002251209d6dbbf9bad17d0135e06ea56ec304df985f9f9bc809fa52ae6789a0947e03000341d49201130b68493c8f23c2b86b3be05b53af9f63129107d10cb896e37028e86603558685ea39a05abd20f1fe662a9e3780711cf45ddceef2f4fb91ca8f121945835b20be11f1d0580232188e877ef283eb5a1efd4e9e5290a2633605d666f59ad3fff2ac00630461746f6d03646d742ca16461726773a36b6d696e745f7469636b657263627463656e6f6e63651a0080ad766474696d651a65f10e356821c1be11f1d0580232188e877ef283eb5a1efd4e9e5290a2633605d666f59ad3fff200000000"
}