{
  "txid": "f9247545acd45cdb07197ecc547976d007d31305d094a3e61d05e793d918be37",
  "version": 2,
  "locktime": 834637,
  "vin": [
    {
      "txid": "b2dece6d3e17c8bf57e73db6842a5521f06ee65d3091e94a3edddc7ab1a486ed",
      "vout": 0,
      "prevout": {
        "scriptpubkey": "a914175f4135dc5bce8d7daf83c07b1fa29868d69fec87",
        "scriptpubkey_asm": "OP_HASH160 OP_PUSHBYTES_20 175f4135dc5bce8d7daf83c07b1fa29868d69fec OP_EQUAL",
        "scriptpubkey_type": "p2sh",
        "scriptpubkey_address": "33pbaNSFHJwPD5B5P3uUiqkLZz89EU3qWW",
        "value": 1399454
      },
      "scriptsig": "160014649c401a2b5a29ae36824450f4311eeae757bf18",
      "scriptsig_asm": "OP_PUSHBYTES_22 0014649c401a2b5a29ae36824450f4311eeae757bf18",
      "witness": [
        "304402205d974dffea25eeb9a0aa40cf333432df32bfd8fc52ef652128149701e5364a580220085c0145a626f6362704f66872a0b765a1931aeaa657a00e695fb124b12a55e301",
        "021a566b073bfe4759fae6cbe31674aca44f4ae562c9129a416398498fae3644b6"
      ],
      "is_coinbase": false,
      "sequence": 4294967293,
      "inner_redeemscript_asm": "OP_0 OP_PUSHBYTES_20 649c401a2b5a29ae36824450f4311eeae757bf18"
    }
  ],
  "vout": [
    {
      "scriptpubkey": "00146eb38353a5c14d0348f0a132821e4f255917ac60",
      "scriptpubkey_asm": "OP_0 OP_PUSHBYTES_20 6eb38353a5c14d0348f0a132821e4f255917ac60",
      "scriptpubkey_type": "v0_p2wpkh",
      "scriptpubkey_address": "bc1qd6ecx5a9c9xsxj8s5yegy8j0y4v30trq33t3sp",
      "value": 1197690
    },
    {
      "scriptpubkey": "001471bf17dc9830ace76cd7193322034652c7b2f59b",
      "scriptpubkey_asm": "OP_0 OP_PUSHBYTES_20 71bf17dc9830ace76cd7193322034652c7b2f59b",
      "scriptpubkey_type": "v0_p2wpkh",
      "scriptpubkey_address": "bc1qwxl30hycxzkwwmxhryejyq6x2trm9avmdhqdl8",
      "value": 197500
    }
  ],
  "size": 245,
  "weight": 653,
  "fee": 4264,
  "status": {
    "confirmed": true,
    "block_height": 834638,
    "block_hash": "000000000000000000025f742c626208ac87e0b7d15054abb4a19ca2d735a54e",
    "block_time": 1710405325
  },
  "hex": "02000000000101ed86a4b17adcdd3e4ae991305de66ef021552a84b63de757bfc8173e6dcedeb20000000017160014649c401a2b5a29ae36824450f4311eeae757bf18fdffffff027a461200000000001600146eb38353a5c14d0348f0a132821e4f255917ac607c0303000000000016001471bf17dc9830ace76cd7193322034652c7b2f59b0247304402205d974dffea25eeb9a0aa40cf333432df32bfd8fc52ef652128149701e5364a580220085c0145a626f6362704f66872a0b765a1931aeaa657a00e695fb124b12a55e30121021a566b073bfe4759fae6cbe31674aca44f4ae562c9129a416398498fae3644b64dbc0c00"
}