{
  "txid": "f930414c753569d688581c391a5c4e41bb5e43c829ae94a031eb36a7195940ce",
  "version": 2,
  "locktime": 0,
  "vin": [
    {
      "txid": "b363deef8d099f12394c169e26c0b7d211dde7970761687748c0265b44f0d2d5",
      "vout": 26,
      "prevout": {
        "scriptpubkey": "001474f8107f946634192ec1d86321d71189af912297",
        "scriptpubkey_asm": "OP_0 OP_PUSHBYTES_20 74f8107f946634192ec1d86321d71189af912297",
        "scriptpubkey_type": "v0_p2wpkh",
        "scriptpubkey_address": "bc1qwnupqlu5vc6pjtkpmp3jr4c33xhezg5hv8gdgm",
        "value": 1849549
      },
      "scriptsig": "",
      "scriptsig_asm": "",
      "witness": [
        "30440220012b96dee8b2a95f8b506c6a6ba732e1502a7579d24349b8d5bbaabbe30526f20220589d4fdfea6593060dbe21fd9b8227f4651a82ea1611e5493550aaa35919ad1c01",
        "03fc93d06a8d0ef11ed512bd636b756057b23e1696a338f5b9cd9d09a95cb664d9"
      ],
      "is_coinbase": false,
      "sequence": 0
    },
    {
      "txid": "c06fda4906e703b68a14a26ba2c5e299114bc874f8a74c9a12a8b21056cac419",
      "vout": 22,
      "prevout": {
        "scriptpubkey": "0014965edc423d0764bf810139b8d04fcd917bb20416",
        "scriptpubkey_asm": "OP_0 OP_PUSHBYTES_20 965edc423d0764bf810139b8d04fcd917bb20416",
        "scriptpubkey_type": "v0_p2wpkh",
        "scriptpubkey_address": "bc1qje0dcs3aqajtlqgp8xudqn7dj9amypqkh8hty4",
        "value": 7781350
      },
      "scriptsig": "",
      "scriptsig_asm": "",
      "witness": [
        "304402202da7818407c178a7614d87f1c6e5eb6ac46cf300c0842134d810c1dd7fdd7de402204ae30a4540efdc6df3e73d1b977164164ff13619916b80d4858595c9687a251601",
        "0240fcf46512628480ec5eb14b49aa42ec13d3eb9a5b238b3dbdbc1d4c6641a596"
      ],
      "is_coinbase": false,
      "sequence": 0
    },
    {
      "txid": "73fcbcfdcc5bd0f99ece0ee056cd858bdc7d5b984fb9e05a54cd2b247d927382",
      "vout": 0,
      "prevout": {
        "scriptpubkey": "0014f0f4925008e7e28ab77768629b2f3652ad1e1993",
        "scriptpubkey_asm": "OP_0 OP_PUSHBYTES_20 f0f4925008e7e28ab77768629b2f3652ad1e1993",
        "scriptpubkey_type": "v0_p2wpkh",
        "scriptpubkey_address": "bc1q7r6fy5qgul3g4dmhdp3fktek22k3uxvnvzclk4",
        "value": 68794884
      },
      "scriptsig": "",
      "scriptsig_asm": "",
      "witness": [
        "3045022100c4baf2dbaec2996486cd910b9c1d8d91b885089e900dd5740906140f0ac22a1f02207c29e2c2750518b2b70beeb1704a3a4a683df4e02aece5280207947d0058575601",
        "022df5c91b0484bf714f3c5aa6d580b3ff2b0a882778d9bb10fee765462b60a061"
      ],
      "is_coinbase": false,
      "sequence": 0
    },
    {
      "txid": "79d51064864b10ff72a068524b3ba60fb9a7aff4d05fb4f99bd89d19d50b87de",
      "vout": 7,
      "prevout": {
        "scriptpubkey": "00147f98a7cb9270711b02a39b8cc338ccba6e8980d7",
        "scriptpubkey_asm": "OP_0 OP_PUSHBYTES_20 7f98a7cb9270711b02a39b8cc338ccba6e8980d7",
        "scriptpubkey_type": "v0_p2wpkh",
        "scriptpubkey_address": "bc1q07v20jujwpc3kq4rnwxvxwxvhfhgnqxhl6ff8f",
        "value": 2788150
      },
      "scriptsig": "",
      "scriptsig_asm": "",
      "witness": [
        "304402206d9a5b02ea3f3d9637c9af149933ba70d1e95125a09a3f43c1fe151e7a0cdaa802205939126c70717abf732438cd2c3c2c00aaebf001dc379cd152741ab22fcab7c901",
        "035fbcc2dcd8970a93720bb5c952e60d6ebc6a06fa359d25323587a00477461aed"
      ],
      "is_coinbase": false,
      "sequence": 0
    },
    {
      "txid": "37004cf9702e9e2e79c0614fd4da2b12c506bfdb2c51edc593ead714f092884a",
      "vout": 14,
      "prevout": {
        "scriptpubkey": "001481f77cec7db72ed5bcac4d1136b2aad5366ef0ad",
        "scriptpubkey_asm": "OP_0 OP_PUSHBYTES_20 81f77cec7db72ed5bcac4d1136b2aad5366ef0ad",
        "scriptpubkey_type": "v0_p2wpkh",
        "scriptpubkey_address": "bc1qs8mhemrakuhdt09vf5gndv4265mxau9dtmfe8y",
        "value": 19116477
      },
      "scriptsig": "",
      "scriptsig_asm": "",
      "witness": [
        "3045022100d7d949e3f27eb1fc95e6ba3169bcac39b4daa2569194eaf21eed2389c7f4d34c02205f8a871a83b615c350609e0ea5778f658326a3fd993f43942e87c9a2abbc920901",
        "030e8e8303cf568fc5c5999399ccf62c5fd8c3d8f6784b6d4f41bc307cf4416dfc"
      ],
      "is_coinbase": false,
      "sequence": 0
    }
  ],
  "vout": [
    {
      "scriptpubkey": "a914ce020fb36cc405e3d77d8bc7e4a8ced65dd6e71987",
      "scriptpubkey_asm": "OP_HASH160 OP_PUSHBYTES_20 ce020fb36cc405e3d77d8bc7e4a8ced65dd6e719 OP_EQUAL",
      "scriptpubkey_type": "p2sh",
      "scriptpubkey_address": "3LUHbHToqCn9XN98XQGD2AxmVK4CuxdXe4",
      "value": 100323000
    }
  ],
  "size": 786,
  "weight": 1527,
  "fee": 7410,
  "status": {
    "confirmed": true,
    "block_height": 834638,
    "block_hash": "000000000000000000025f742c626208ac87e0b7d15054abb4a19ca2d735a54e",
    "block_time": 1710405325
  },
  "hex": "02000000000105d5d2f0445b26c0487768610797e7dd11d2b7c0269e164c39129f098defde63b31a000000000000000019c4ca5610b2a8129a4ca7f874c84b1199e2c5a26ba2148ab603e70649da6fc01600000000000000008273927d242bcd545ae0b94f985b7ddc8b85cd56e00ece9ef9d05bccfdbcfc73000000000000000000de870bd5199dd89bf9b45fd0f4afa7b90fa63b4b5268a072ff104b866410d5790700000000000000004a8892f014d7ea93c5ed512cdbbf06c5122bdad44f61c0792e9e2e70f94c00370e000000000000000001b8cefa050000000017a914ce020fb36cc405e3d77d8bc7e4a8ced65dd6e71987024730440220012b96dee8b2a95f8b506c6a6ba732e1502a7579d24349b8d5bbaabbe30526f20220589d4fdfea6593060dbe21fd9b8227f4651a82ea1611e5493550aaa35919ad1c012103fc93d06a8d0ef11ed512bd636b756057b23e1696a338f5b9cd9d09a95cb664d90247304402202da7818407c178a7614d87f1c6e5eb6ac46cf300c0842134d810c1dd7fdd7de402204ae30a4540efdc6df3e73d1b977164164ff13619916b80d4858595c9687a251601210240fcf46512628480ec5eb14b49aa42ec13d3eb9a5b238b3dbdbc1d4c6641a59602483045022100c4baf2dbaec2996486cd910b9c1d8d91b885089e900dd5740906140f0ac22a1f02207c29e2c2750518b2b70beeb1704a3a4a683df4e02aece5280207947d005857560121022df5c91b0484bf714f3c5aa6d580b3ff2b0a882778d9bb10fee765462b60a0610247304402206d9a5b02ea3f3d9637c9af149933ba70d1e95125a09a3f43c1fe151e7a0cdaa802205939126c70717abf732438cd2c3c2c00aaebf001dc379cd152741ab22fcab7c90121035fbcc2dcd8970a93720bb5c952e60d6ebc6a06fa359d25323587a00477461aed02483045022100d7d949e3f27eb1fc95e6ba3169bcac39b4daa2569194eaf21eed2389c7f4d34c02205f8a871a83b615c350609e0ea5778f658326a3fd993f43942e87c9a2abbc92090121030e8e8303cf568fc5c5999399ccf62c5fd8c3d8f6784b6d4f41bc307cf4416dfc00000000"
}