{
  "txid": "f932a6f921ea2c1e7d920be5667f963c1dda94b976f1dc0ccaaad5af56750330",
  "version": 1,
  "locktime": 0,
  "vin": [
    {
      "txid": "6e177a0037aee209607782f221b41c4da6de2fcc96a3bfc953ecf96740ea7906",
      "vout": 1,
      "prevout": {
        "scriptpubkey": "00207250d91085a77a4568fa4cfd5bebb59f0b9cb3530f8154cd4fab6d28abd548fe",
        "scriptpubkey_asm": "OP_0 OP_PUSHBYTES_32 7250d91085a77a4568fa4cfd5bebb59f0b9cb3530f8154cd4fab6d28abd548fe",
        "scriptpubkey_type": "v0_p2wsh",
        "scriptpubkey_address": "bc1qwfgdjyy95aay2686fn74h6a4nu9eev6np7q4fn204dkj3274frlqrskvx0",
        "value": 196252989
      },
      "scriptsig": "",
      "scriptsig_asm": "",
      "witness": [
        "",
        "304402202c6b40f64d7fa6d2e0e5f07670c90fe940404202b51c5369b86195e5bcffc21602203359df27e3428378edb64f73a5772ae09236c957753d17be651873a68373249e01",
        "304402201852320a8dd360feb32f0d7b357648442ea27be868e550f4a67fd0cba135c3ed022066d393f44ba98b7caac626579564dad4e1ed3e1c3c11278b3897b4cb5e698f8b01",
        "5221030fac04165b606dea3b8f81ada5eb66ca181d5215c873fcf46623ea7cf8e98b1b2102b7836a2a9d3ff095415383cb23a5f4f1badd75e44adb17537962eafe3ded3b602102f8cb472df1ae03cfa6b65b013add7862c7d3ac3684a8a92a44192faace228aee53ae"
      ],
      "is_coinbase": false,
      "sequence": 4294967295,
      "inner_witnessscript_asm": "OP_PUSHNUM_2 OP_PUSHBYTES_33 030fac04165b606dea3b8f81ada5eb66ca181d5215c873fcf46623ea7cf8e98b1b OP_PUSHBYTES_33 02b7836a2a9d3ff095415383cb23a5f4f1badd75e44adb17537962eafe3ded3b60 OP_PUSHBYTES_33 02f8cb472df1ae03cfa6b65b013add7862c7d3ac3684a8a92a44192faace228aee OP_PUSHNUM_3 OP_CHECKMULTISIG"
    }
  ],
  "vout": [
    {
      "scriptpubkey": "00207250d91085a77a4568fa4cfd5bebb59f0b9cb3530f8154cd4fab6d28abd548fe",
      "scriptpubkey_asm": "OP_0 OP_PUSHBYTES_32 7250d91085a77a4568fa4cfd5bebb59f0b9cb3530f8154cd4fab6d28abd548fe",
      "scriptpubkey_type": "v0_p2wsh",
      "scriptpubkey_address": "bc1qwfgdjyy95aay2686fn74h6a4nu9eev6np7q4fn204dkj3274frlqrskvx0",
      "value": 196234656
    },
    {
      "scriptpubkey": "a91449e81b9dbe24af40b8ebe485c2434ed583ae509a87",
      "scriptpubkey_asm": "OP_HASH160 OP_PUSHBYTES_20 49e81b9dbe24af40b8ebe485c2434ed583ae509a OP_EQUAL",
      "scriptpubkey_type": "p2sh",
      "scriptpubkey_address": "38RoJghdDtL1MTP5E46Fy1Qmx6uFpsLPBM",
      "value": 14175
    }
  ],
  "size": 380,
  "weight": 758,
  "fee": 4158,
  "status": {
    "confirmed": true,
    "block_height": 834638,
    "block_hash": "000000000000000000025f742c626208ac87e0b7d15054abb4a19ca2d735a54e",
    "block_time": 1710405325
  },
  "hex": "010000000001010679ea4067f9ec53c9bfa396cc2fdea64d1cb421f282776009e2ae37007a176e0100000000ffffffff02a04db20b000000002200207250d91085a77a4568fa4cfd5bebb59f0b9cb3530f8154cd4fab6d28abd548fe5f3700000000000017a91449e81b9dbe24af40b8ebe485c2434ed583ae509a87040047304402202c6b40f64d7fa6d2e0e5f07670c90fe940404202b51c5369b86195e5bcffc21602203359df27e3428378edb64f73a5772ae09236c957753d17be651873a68373249e0147304402201852320a8dd360feb32f0d7b357648442ea27be868e550f4a67fd0cba135c3ed022066d393f44ba98b7caac626579564dad4e1ed3e1c3c11278b3897b4cb5e698f8b01695221030fac04165b606dea3b8f81ada5eb66ca181d5215c873fcf46623ea7cf8e98b1b2102b7836a2a9d3ff095415383cb23a5f4f1badd75e44adb17537962eafe3ded3b602102f8cb472df1ae03cfa6b65b013add7862c7d3ac3684a8a92a44192faace228aee53ae00000000"
}