{
  "txid": "f93a88ca79470a5bfb6d6ee27a33cd2579a9392b23c483ef9bb4a61a8db53401",
  "version": 1,
  "locktime": 0,
  "vin": [
    {
      "txid": "50a2144789b9f16ac9bb09ba5bc8a6b43af4c374dfa2ce4375a60261af8593d3",
      "vout": 104,
      "prevout": {
        "scriptpubkey": "0014af1d9cfa50552f64514a5936ebc1d5da25be0e5f",
        "scriptpubkey_asm": "OP_0 OP_PUSHBYTES_20 af1d9cfa50552f64514a5936ebc1d5da25be0e5f",
        "scriptpubkey_type": "v0_p2wpkh",
        "scriptpubkey_address": "bc1q4uwee7js25hkg522tymwhsw4mgjmurjl0lpllk",
        "value": 109886
      },
      "scriptsig": "",
      "scriptsig_asm": "",
      "witness": [
        "30440220304f969c79fda27fde9b236991de85febc5660e71680be475676017b1037ca9e022032734240667bbec3720be1a3e706777ffa1a1a5eed0692bf835aac7f3d41c0d801",
        "0265bcb4bc24a54dbf20b5f4087c2b790a344dc347bdd600f68bed0904d1ff810d"
      ],
      "is_coinbase": false,
      "sequence": 4294967295
    },
    {
      "txid": "324588b8f0eb124022fc66aa8bc3a4d9e2c2c0388d3e336407753886e274b60a",
      "vout": 1446,
      "prevout": {
        "scriptpubkey": "0014af1d9cfa50552f64514a5936ebc1d5da25be0e5f",
        "scriptpubkey_asm": "OP_0 OP_PUSHBYTES_20 af1d9cfa50552f64514a5936ebc1d5da25be0e5f",
        "scriptpubkey_type": "v0_p2wpkh",
        "scriptpubkey_address": "bc1q4uwee7js25hkg522tymwhsw4mgjmurjl0lpllk",
        "value": 163252
      },
      "scriptsig": "",
      "scriptsig_asm": "",
      "witness": [
        "304402206dc31cea20dce9fbc6d6f1b0298c7d44d513f76145f6a0b5541379fe417e2468022062ae8460153db561055f029416a1e65080b1b6bdadf29b5159021697eca9bde501",
        "0265bcb4bc24a54dbf20b5f4087c2b790a344dc347bdd600f68bed0904d1ff810d"
      ],
      "is_coinbase": false,
      "sequence": 4294967295
    }
  ],
  "vout": [
    {
      "scriptpubkey": "00141b74a50f1ca6d358085982b7b1a694b6785cbe3e",
      "scriptpubkey_asm": "OP_0 OP_PUSHBYTES_20 1b74a50f1ca6d358085982b7b1a694b6785cbe3e",
      "scriptpubkey_type": "v0_p2wpkh",
      "scriptpubkey_address": "bc1qrd622rcu5mf4szzes2mmrf55keu9e037mjv79c",
      "value": 268332
    }
  ],
  "size": 339,
  "weight": 708,
  "fee": 4806,
  "status": {
    "confirmed": true,
    "block_height": 834460,
    "block_hash": "00000000000000000000484a79b643b2524bbce82e5d8a442013fa5b8905ed98",
    "block_time": 1710307468
  },
  "hex": "01000000000102d39385af6102a67543cea2df74c3f43ab4a6c85bba09bbc96af1b9894714a2506800000000ffffffff0ab674e28638750764333e8d38c0c2e2d9a4c38baa66fc224012ebf0b8884532a605000000ffffffff012c180400000000001600141b74a50f1ca6d358085982b7b1a694b6785cbe3e024730440220304f969c79fda27fde9b236991de85febc5660e71680be475676017b1037ca9e022032734240667bbec3720be1a3e706777ffa1a1a5eed0692bf835aac7f3d41c0d801210265bcb4bc24a54dbf20b5f4087c2b790a344dc347bdd600f68bed0904d1ff810d0247304402206dc31cea20dce9fbc6d6f1b0298c7d44d513f76145f6a0b5541379fe417e2468022062ae8460153db561055f029416a1e65080b1b6bdadf29b5159021697eca9bde501210265bcb4bc24a54dbf20b5f4087c2b790a344dc347bdd600f68bed0904d1ff810d00000000"
}