{
  "txid": "f94dcd80c9425566f583a4ebdf92b3cc753954aa6c51f610af5523eff63aba90",
  "version": 2,
  "locktime": 0,
  "vin": [
    {
      "txid": "acc3ba00869acb582a3f2904ce3a11dd3779350ce234063fc7d0959246213364",
      "vout": 257,
      "prevout": {
        "scriptpubkey": "5120ec1ed94c99942e3ebe7943317e9ad720ad8ace1bbb9b20dea912043b4b1396b8",
        "scriptpubkey_asm": "OP_PUSHNUM_1 OP_PUSHBYTES_32 ec1ed94c99942e3ebe7943317e9ad720ad8ace1bbb9b20dea912043b4b1396b8",
        "scriptpubkey_type": "v1_p2tr",
        "scriptpubkey_address": "bc1pas0djnyejshra0negvchaxkhyzkc4nsmhwdjph4fzgzrkjcnj6uqjxr2vg",
        "value": 1806
      },
      "scriptsig": "",
      "scriptsig_asm": "",
      "witness": [
        "7a2c24d402a4510d9ba7dfea6e63381cc37f9e116570a27faad8346af25cbb4de95ec527aa21922a062ad5d419092c30baf41356f06eedcf60d4b4637f629973",
        "203c8b5df9c413faf28cd49901cc4e6c21955b117ccb077dee37704445330f1f4bac0063036f726401010a746578742f706c61696e00357b2270223a226272632d3230222c226f70223a226d696e74222c227469636b223a22646f6765222c22616d74223a2234323030227d68",
        "c13c8b5df9c413faf28cd49901cc4e6c21955b117ccb077dee37704445330f1f4b"
      ],
      "is_coinbase": false,
      "sequence": 4261412863
    }
  ],
  "vout": [
    {
      "scriptpubkey": "00147a665de7a370f4c9b372ab1fae587500a5bcbdb4",
      "scriptpubkey_asm": "OP_0 OP_PUSHBYTES_20 7a665de7a370f4c9b372ab1fae587500a5bcbdb4",
      "scriptpubkey_type": "v0_p2wpkh",
      "scriptpubkey_address": "bc1q0fn9mearwr6vnvmj4v06ukr4qzjme0d565dzcx",
      "value": 294
    }
  ],
  "size": 294,
  "weight": 540,
  "fee": 1512,
  "status": {
    "confirmed": true,
    "block_height": 834460,
    "block_hash": "00000000000000000000484a79b643b2524bbce82e5d8a442013fa5b8905ed98",
    "block_time": 1710307468
  },
  "hex": "02000000000101643321469295d0c73f0634e20c357937dd113ace04293f2a58cb9a8600bac3ac0101000000fffffffd0126010000000000001600147a665de7a370f4c9b372ab1fae587500a5bcbdb403407a2c24d402a4510d9ba7dfea6e63381cc37f9e116570a27faad8346af25cbb4de95ec527aa21922a062ad5d419092c30baf41356f06eedcf60d4b4637f6299736d203c8b5df9c413faf28cd49901cc4e6c21955b117ccb077dee37704445330f1f4bac0063036f726401010a746578742f706c61696e00357b2270223a226272632d3230222c226f70223a226d696e74222c227469636b223a22646f6765222c22616d74223a2234323030227d6821c13c8b5df9c413faf28cd49901cc4e6c21955b117ccb077dee37704445330f1f4b00000000"
}