{
  "txid": "f9681766393202342b75ba5ad585411bf0b20edcbd7a161814d24871630c735d",
  "version": 1,
  "locktime": 0,
  "vin": [
    {
      "txid": "6375af38dc645bfa16606c03a881383d70bd1ede0df511a0f9fab7b0273d30c0",
      "vout": 4,
      "prevout": {
        "scriptpubkey": "51208cffe26717280c411fb3786ab9541fb16a5b95b13fd679d5dfeb668ccfe23a22",
        "scriptpubkey_asm": "OP_PUSHNUM_1 OP_PUSHBYTES_32 8cffe26717280c411fb3786ab9541fb16a5b95b13fd679d5dfeb668ccfe23a22",
        "scriptpubkey_type": "v1_p2tr",
        "scriptpubkey_address": "bc1p3nl7yech9qxyz8an0p4tj4qlk949h9d38lt8n4wladngenlz8g3qa734h4",
        "value": 2716
      },
      "scriptsig": "",
      "scriptsig_asm": "",
      "witness": [
        "9644d425899e75eab8d50acb0992edf16702747439e44aff4f0b4530a9f236f15756464ed013ca5bad77bee866d05861e2a35deff5557e18ae140def54e60734",
        "20c1802cf432ad10b6500fdf24fe9b3cceb6b38d65ab7b33891fb671a33953af1bac0063036f72640101116d6f64656c2f676c74662d62696e617279004b2f636f6e74656e742f37633439306234383938343361346533636639613734613661356432646231386330346561376163353566383832316436353061396266643430656562663137693068",
        "c1c1802cf432ad10b6500fdf24fe9b3cceb6b38d65ab7b33891fb671a33953af1b"
      ],
      "is_coinbase": false,
      "sequence": 4294967293
    }
  ],
  "vout": [
    {
      "scriptpubkey": "5120f1768c246d76ff8a45c86e479459158c70d9b33887ba83b7b633606f1b0bb536",
      "scriptpubkey_asm": "OP_PUSHNUM_1 OP_PUSHBYTES_32 f1768c246d76ff8a45c86e479459158c70d9b33887ba83b7b633606f1b0bb536",
      "scriptpubkey_type": "v1_p2tr",
      "scriptpubkey_address": "bc1p79mgcfrdwmlc53wgderegkg433cdnvecs7ag8dakxdsx7xctk5mqnszxzv",
      "value": 546
    }
  ],
  "size": 335,
  "weight": 617,
  "fee": 2170,
  "status": {
    "confirmed": true,
    "block_height": 834460,
    "block_hash": "00000000000000000000484a79b643b2524bbce82e5d8a442013fa5b8905ed98",
    "block_time": 1710307468
  },
  "hex": "01000000000101c0303d27b0b7faf9a011f50dde1ebd703d3881a8036c6016fa5b64dc38af75630400000000fdffffff012202000000000000225120f1768c246d76ff8a45c86e479459158c70d9b33887ba83b7b633606f1b0bb53603409644d425899e75eab8d50acb0992edf16702747439e44aff4f0b4530a9f236f15756464ed013ca5bad77bee866d05861e2a35deff5557e18ae140def54e607348a20c1802cf432ad10b6500fdf24fe9b3cceb6b38d65ab7b33891fb671a33953af1bac0063036f72640101116d6f64656c2f676c74662d62696e617279004b2f636f6e74656e742f3763343930623438393834336134653363663961373461366135643264623138633034656137616335356638383231643635306139626664343065656266313769306821c1c1802cf432ad10b6500fdf24fe9b3cceb6b38d65ab7b33891fb671a33953af1b00000000"
}