{
  "txid": "f968896da3071ad93ce32c5604037321f20d329ed8ee7460e8bc1eb57699cc11",
  "version": 1,
  "locktime": 0,
  "vin": [
    {
      "txid": "b91d7a7a8ae1fd06e5f6bdbab045087fec4797d7dd228437d1216cb4d78e212a",
      "vout": 14,
      "prevout": {
        "scriptpubkey": "76a914ddb7ffd18fd025d681b5de2b82d2d24dbd31638288ac",
        "scriptpubkey_asm": "OP_DUP OP_HASH160 OP_PUSHBYTES_20 ddb7ffd18fd025d681b5de2b82d2d24dbd316382 OP_EQUALVERIFY OP_CHECKSIG",
        "scriptpubkey_type": "p2pkh",
        "scriptpubkey_address": "1MDLktazwnvXXp2YNXgkVi62HJPRgF7gTm",
        "value": 1388941
      },
      "scriptsig": "47304402201f6e9296e322013f90f89433926509a9ff686ce91452679c82c921cf18257c95022027497b1354b4dce14b3e15d2372c69d6323ecfad9cbc0c8bb20d8d8d088fc22001210224c6633127ca04e9b678ae7d106a9828ba2aed9a402eefae69f52fbe7a065699",
      "scriptsig_asm": "OP_PUSHBYTES_71 304402201f6e9296e322013f90f89433926509a9ff686ce91452679c82c921cf18257c95022027497b1354b4dce14b3e15d2372c69d6323ecfad9cbc0c8bb20d8d8d088fc22001 OP_PUSHBYTES_33 0224c6633127ca04e9b678ae7d106a9828ba2aed9a402eefae69f52fbe7a065699",
      "is_coinbase": false,
      "sequence": 4294967295
    }
  ],
  "vout": [
    {
      "scriptpubkey": "76a914a21eb445ab35386ff383eb7ca8d9767127b3309088ac",
      "scriptpubkey_asm": "OP_DUP OP_HASH160 OP_PUSHBYTES_20 a21eb445ab35386ff383eb7ca8d9767127b33090 OP_EQUALVERIFY OP_CHECKSIG",
      "scriptpubkey_type": "p2pkh",
      "scriptpubkey_address": "1FnDFSaEnJykuKJ5ZxFahD3uR4W5Au62Cz",
      "value": 1362191
    },
    {
      "scriptpubkey": "76a9148d98e72dd9e4ea7960e5150dbbc6e90e7f6cc30c88ac",
      "scriptpubkey_asm": "OP_DUP OP_HASH160 OP_PUSHBYTES_20 8d98e72dd9e4ea7960e5150dbbc6e90e7f6cc30c OP_EQUALVERIFY OP_CHECKSIG",
      "scriptpubkey_type": "p2pkh",
      "scriptpubkey_address": "1DuhSwPjcYUpHkgZkrk5omu2TLohD39bYU",
      "value": 19292
    }
  ],
  "size": 225,
  "weight": 900,
  "fee": 7458,
  "status": {
    "confirmed": true,
    "block_height": 834638,
    "block_hash": "000000000000000000025f742c626208ac87e0b7d15054abb4a19ca2d735a54e",
    "block_time": 1710405325
  },
  "hex": "01000000012a218ed7b46c21d1378422ddd79747ec7f0845b0babdf6e506fde18a7a7a1db90e0000006a47304402201f6e9296e322013f90f89433926509a9ff686ce91452679c82c921cf18257c95022027497b1354b4dce14b3e15d2372c69d6323ecfad9cbc0c8bb20d8d8d088fc22001210224c6633127ca04e9b678ae7d106a9828ba2aed9a402eefae69f52fbe7a065699ffffffff020fc91400000000001976a914a21eb445ab35386ff383eb7ca8d9767127b3309088ac5c4b0000000000001976a9148d98e72dd9e4ea7960e5150dbbc6e90e7f6cc30c88ac00000000"
}