{
  "txid": "f96c824868d59d38926f486bc58ea697f57e73a694294e304397000bca02e08e",
  "version": 2,
  "locktime": 0,
  "vin": [
    {
      "txid": "c41b8fa9fd90f17a78f8f5c9bc5e4413f4c2d6c939cf40307132d4524f01fe8c",
      "vout": 1,
      "prevout": {
        "scriptpubkey": "76a914a1e8fe571be07a970a33adc0eac55910809fe43588ac",
        "scriptpubkey_asm": "OP_DUP OP_HASH160 OP_PUSHBYTES_20 a1e8fe571be07a970a33adc0eac55910809fe435 OP_EQUALVERIFY OP_CHECKSIG",
        "scriptpubkey_type": "p2pkh",
        "scriptpubkey_address": "1Fm6uZNFqNg9joXBZQKj4mXXAPNbnCWWih",
        "value": 48906
      },
      "scriptsig": "47304402203eddf4350ba717cbefb894ae2ac2692b3d4ebce64152ca6ccb7bd1e2a051af2302206ddc7e70e296d089cf33ff6c2693f49245980b2caf2c41feda1ba0806a2f4b57012103fed57ef9b1dd94233fd0bfc0857c38d68ac0a094d51cd422eeafc187ce77f2c4",
      "scriptsig_asm": "OP_PUSHBYTES_71 304402203eddf4350ba717cbefb894ae2ac2692b3d4ebce64152ca6ccb7bd1e2a051af2302206ddc7e70e296d089cf33ff6c2693f49245980b2caf2c41feda1ba0806a2f4b5701 OP_PUSHBYTES_33 03fed57ef9b1dd94233fd0bfc0857c38d68ac0a094d51cd422eeafc187ce77f2c4",
      "is_coinbase": false,
      "sequence": 4294967295
    },
    {
      "txid": "6ce828f16274bfd850820b04af94f625ea875e27f79bd05267c1332941cb8775",
      "vout": 17,
      "prevout": {
        "scriptpubkey": "76a914679b0543ccf5d184f8a9903f021018bd98742c8b88ac",
        "scriptpubkey_asm": "OP_DUP OP_HASH160 OP_PUSHBYTES_20 679b0543ccf5d184f8a9903f021018bd98742c8b OP_EQUALVERIFY OP_CHECKSIG",
        "scriptpubkey_type": "p2pkh",
        "scriptpubkey_address": "1ASpJn2PNjYtF6HFbfMhC5sEZySEKrtjbm",
        "value": 605920
      },
      "scriptsig": "483045022100fac91c85847ca402ea59a65affd35adba56d313b86702b1f34b42ce678a1524802206c2057bb4874079de540beb5f71abec2e662d782bcf7b1818ca6b8b6bb9f70c60121037528ff126bb085ae72f7101053adba1ad2012829fd634afd7edf33db3bc8c929",
      "scriptsig_asm": "OP_PUSHBYTES_72 3045022100fac91c85847ca402ea59a65affd35adba56d313b86702b1f34b42ce678a1524802206c2057bb4874079de540beb5f71abec2e662d782bcf7b1818ca6b8b6bb9f70c601 OP_PUSHBYTES_33 037528ff126bb085ae72f7101053adba1ad2012829fd634afd7edf33db3bc8c929",
      "is_coinbase": false,
      "sequence": 4294967295
    }
  ],
  "vout": [
    {
      "scriptpubkey": "a914458a5b5289e590743d4da484472534ab0518921987",
      "scriptpubkey_asm": "OP_HASH160 OP_PUSHBYTES_20 458a5b5289e590743d4da484472534ab05189219 OP_EQUAL",
      "scriptpubkey_type": "p2sh",
      "scriptpubkey_address": "382iHySz4jvZF4Tj8MHaZbYYb2s4FTk1c9",
      "value": 546862
    },
    {
      "scriptpubkey": "76a9144368f5bb6814ccb30edbb593a4243cf9af8790dd88ac",
      "scriptpubkey_asm": "OP_DUP OP_HASH160 OP_PUSHBYTES_20 4368f5bb6814ccb30edbb593a4243cf9af8790dd OP_EQUALVERIFY OP_CHECKSIG",
      "scriptpubkey_type": "p2pkh",
      "scriptpubkey_address": "179S1bSDssM9Y1csYx44Ehzr82tpMDv8sr",
      "value": 95506
    }
  ],
  "size": 371,
  "weight": 1484,
  "fee": 12458,
  "status": {
    "confirmed": true,
    "block_height": 834552,
    "block_hash": "00000000000000000001dd0468a70c94f619251d286585cff57aeb4bd9ede330",
    "block_time": 1710355598
  },
  "hex": "02000000028cfe014f52d432713040cf39c9d6c2f413445ebcc9f5f8787af190fda98f1bc4010000006a47304402203eddf4350ba717cbefb894ae2ac2692b3d4ebce64152ca6ccb7bd1e2a051af2302206ddc7e70e296d089cf33ff6c2693f49245980b2caf2c41feda1ba0806a2f4b57012103fed57ef9b1dd94233fd0bfc0857c38d68ac0a094d51cd422eeafc187ce77f2c4ffffffff7587cb412933c16752d09bf7275e87ea25f694af040b8250d8bf7462f128e86c110000006b483045022100fac91c85847ca402ea59a65affd35adba56d313b86702b1f34b42ce678a1524802206c2057bb4874079de540beb5f71abec2e662d782bcf7b1818ca6b8b6bb9f70c60121037528ff126bb085ae72f7101053adba1ad2012829fd634afd7edf33db3bc8c929ffffffff022e5808000000000017a914458a5b5289e590743d4da484472534ab051892198712750100000000001976a9144368f5bb6814ccb30edbb593a4243cf9af8790dd88ac00000000"
}