{
  "txid": "f972613d7f1e92e7a0134efff684e3d91fe8dd36cc196b60cd449db52142c216",
  "version": 2,
  "locktime": 834457,
  "vin": [
    {
      "txid": "1b871d96b5e892db66e2b0970daca567a99431c8c303059914279da62080a3a8",
      "vout": 2,
      "prevout": {
        "scriptpubkey": "00141595a55daac6f9fe14b64ad6b08c8656434dafbf",
        "scriptpubkey_asm": "OP_0 OP_PUSHBYTES_20 1595a55daac6f9fe14b64ad6b08c8656434dafbf",
        "scriptpubkey_type": "v0_p2wpkh",
        "scriptpubkey_address": "bc1qzk262hd2cmulu99kftttpryx2ep5mtal57558y",
        "value": 2027371
      },
      "scriptsig": "",
      "scriptsig_asm": "",
      "witness": [
        "30450221009177f84d0b0b1f23f336a75efe51ff7094a9034a1ec3f7edab286dbc5445dd3802200ad5257acc97e4cf04319d36861781e1e2b90f17d20cbfdbe782f394a0a6323d01",
        "03dfdefe8d2498a3aae1389191b8b412352efcb8852ab77d8526db095946b243d6"
      ],
      "is_coinbase": false,
      "sequence": 4294967294
    }
  ],
  "vout": [
    {
      "scriptpubkey": "00149f0d09259b808e272e52f2e7b743ffba81f98f4c",
      "scriptpubkey_asm": "OP_0 OP_PUSHBYTES_20 9f0d09259b808e272e52f2e7b743ffba81f98f4c",
      "scriptpubkey_type": "v0_p2wpkh",
      "scriptpubkey_address": "bc1qnuxsjfvmsz8zwtjj7tnmwsllh2qlnr6v8zem5d",
      "value": 1194538
    },
    {
      "scriptpubkey": "0014b409a9465cdaf1dd99fc5dd4f2a4db861ecb5099",
      "scriptpubkey_asm": "OP_0 OP_PUSHBYTES_20 b409a9465cdaf1dd99fc5dd4f2a4db861ecb5099",
      "scriptpubkey_type": "v0_p2wpkh",
      "scriptpubkey_address": "bc1qksy6j3jumtcamx0uth209fxmsc0vk5yew44kjk",
      "value": 831000
    }
  ],
  "size": 223,
  "weight": 562,
  "fee": 1833,
  "status": {
    "confirmed": true,
    "block_height": 834460,
    "block_hash": "00000000000000000000484a79b643b2524bbce82e5d8a442013fa5b8905ed98",
    "block_time": 1710307468
  },
  "hex": "02000000000101a8a38020a69d2714990503c3c83194a967a5ac0d97b0e266db92e8b5961d871b0200000000feffffff022a3a1200000000001600149f0d09259b808e272e52f2e7b743ffba81f98f4c18ae0c0000000000160014b409a9465cdaf1dd99fc5dd4f2a4db861ecb5099024830450221009177f84d0b0b1f23f336a75efe51ff7094a9034a1ec3f7edab286dbc5445dd3802200ad5257acc97e4cf04319d36861781e1e2b90f17d20cbfdbe782f394a0a6323d012103dfdefe8d2498a3aae1389191b8b412352efcb8852ab77d8526db095946b243d699bb0c00"
}