{
  "txid": "f9921cb1d0fbdda2fe9b968b714adf525a9ca42312121d3005baabb5d13d223d",
  "version": 2,
  "locktime": 0,
  "vin": [
    {
      "txid": "1eab0237cc791a8c1d11aad6af139fa7260e198b3e4fbadbc645c4edbdd0e32a",
      "vout": 1,
      "prevout": {
        "scriptpubkey": "a9144dee5e016cd3fef892b9517493be6a8c2e84273e87",
        "scriptpubkey_asm": "OP_HASH160 OP_PUSHBYTES_20 4dee5e016cd3fef892b9517493be6a8c2e84273e OP_EQUAL",
        "scriptpubkey_type": "p2sh",
        "scriptpubkey_address": "38o5WMm5Ruxmw9D33kk9YpoToQBCTmSBn9",
        "value": 22402260
      },
      "scriptsig": "1600143d4c150f741ea85aff3e69eede1c32f6cb457603",
      "scriptsig_asm": "OP_PUSHBYTES_22 00143d4c150f741ea85aff3e69eede1c32f6cb457603",
      "witness": [
        "304402204dfafd72d7dc42a200742306c9dd65c97f72c5b7c7ed43ae2e352122a5452a77022055d15cb79e33d1ec69a080ca508b36f1a000292729f85eaaaa2db431b91e693301",
        "0315e514cc6c0dd1d72de02bb677f90bbaf4306bfd3aace8d4ab0663c5c6a0f382"
      ],
      "is_coinbase": false,
      "sequence": 4294967295,
      "inner_redeemscript_asm": "OP_0 OP_PUSHBYTES_20 3d4c150f741ea85aff3e69eede1c32f6cb457603"
    }
  ],
  "vout": [
    {
      "scriptpubkey": "76a9144a701deb234a0d01435c4b9ef3b93bf5b2fe9f5288ac",
      "scriptpubkey_asm": "OP_DUP OP_HASH160 OP_PUSHBYTES_20 4a701deb234a0d01435c4b9ef3b93bf5b2fe9f52 OP_EQUALVERIFY OP_CHECKSIG",
      "scriptpubkey_type": "p2pkh",
      "scriptpubkey_address": "17nbKDJU86uS3b9yJhcnLqqj4FJ3V8v8QD",
      "value": 136356
    },
    {
      "scriptpubkey": "a9147cbb06c7caa76cfa7f6c965783ef251c5de4403b87",
      "scriptpubkey_asm": "OP_HASH160 OP_PUSHBYTES_20 7cbb06c7caa76cfa7f6c965783ef251c5de4403b OP_EQUAL",
      "scriptpubkey_type": "p2sh",
      "scriptpubkey_address": "3D4XmAAS7dEGUGzJTQhYvtRuYqdS5r5dbP",
      "value": 22261381
    }
  ],
  "size": 249,
  "weight": 669,
  "fee": 4523,
  "status": {
    "confirmed": true,
    "block_height": 834638,
    "block_hash": "000000000000000000025f742c626208ac87e0b7d15054abb4a19ca2d735a54e",
    "block_time": 1710405325
  },
  "hex": "020000000001012ae3d0bdedc445c6dbba4f3e8b190e26a79f13afd6aa111d8c1a79cc3702ab1e01000000171600143d4c150f741ea85aff3e69eede1c32f6cb457603ffffffff02a4140200000000001976a9144a701deb234a0d01435c4b9ef3b93bf5b2fe9f5288ac85ae53010000000017a9147cbb06c7caa76cfa7f6c965783ef251c5de4403b870247304402204dfafd72d7dc42a200742306c9dd65c97f72c5b7c7ed43ae2e352122a5452a77022055d15cb79e33d1ec69a080ca508b36f1a000292729f85eaaaa2db431b91e693301210315e514cc6c0dd1d72de02bb677f90bbaf4306bfd3aace8d4ab0663c5c6a0f38200000000"
}