{
  "txid": "f9a4ca1fe666995e38a11042f528b963f349935d96c650785a0007ac9eb0dbd7",
  "version": 2,
  "locktime": 0,
  "vin": [
    {
      "txid": "15c5eeaf6df9530c967f5127cef5ff73419068d1a27f6f1755a1d906853b3545",
      "vout": 4,
      "prevout": {
        "scriptpubkey": "512060e7b9d91ee3091b65165528563dba11a47299520ea2fc67070ec6ac303fc05d",
        "scriptpubkey_asm": "OP_PUSHNUM_1 OP_PUSHBYTES_32 60e7b9d91ee3091b65165528563dba11a47299520ea2fc67070ec6ac303fc05d",
        "scriptpubkey_type": "v1_p2tr",
        "scriptpubkey_address": "bc1pvrnmnkg7uvy3kegk2559v0d6zxj89x2jp630cec8pmr2cvplcpwsn3pn79",
        "value": 394585
      },
      "scriptsig": "",
      "scriptsig_asm": "",
      "witness": [
        "f8e38f8cf6513174d8ccb0c8a0a9eee72db393af82d7258d30eb15c96686d9d37f306ff8c02c11b1472f77dbc6c3fbc12e5c7e6fdd25376459c538741ba42299"
      ],
      "is_coinbase": false,
      "sequence": 4294967295
    }
  ],
  "vout": [
    {
      "scriptpubkey": "5120e16a905cd4ce4d0992732dd7e7c4fc12adf5aa0b0ea71541e0e4b62a1579818f",
      "scriptpubkey_asm": "OP_PUSHNUM_1 OP_PUSHBYTES_32 e16a905cd4ce4d0992732dd7e7c4fc12adf5aa0b0ea71541e0e4b62a1579818f",
      "scriptpubkey_type": "v1_p2tr",
      "scriptpubkey_address": "bc1pu94fqhx5eexsnynn9ht7038uz2klt2stp6n32s0qujmz59tesx8s83cdzx",
      "value": 142000
    },
    {
      "scriptpubkey": "512060e7b9d91ee3091b65165528563dba11a47299520ea2fc67070ec6ac303fc05d",
      "scriptpubkey_asm": "OP_PUSHNUM_1 OP_PUSHBYTES_32 60e7b9d91ee3091b65165528563dba11a47299520ea2fc67070ec6ac303fc05d",
      "scriptpubkey_type": "v1_p2tr",
      "scriptpubkey_address": "bc1pvrnmnkg7uvy3kegk2559v0d6zxj89x2jp630cec8pmr2cvplcpwsn3pn79",
      "value": 250583
    }
  ],
  "size": 205,
  "weight": 616,
  "fee": 2002,
  "status": {
    "confirmed": true,
    "block_height": 834460,
    "block_hash": "00000000000000000000484a79b643b2524bbce82e5d8a442013fa5b8905ed98",
    "block_time": 1710307468
  },
  "hex": "0200000000010145353b8506d9a155176f7fa2d168904173fff5ce27517f960c53f96dafeec5150400000000ffffffff02b02a020000000000225120e16a905cd4ce4d0992732dd7e7c4fc12adf5aa0b0ea71541e0e4b62a1579818fd7d203000000000022512060e7b9d91ee3091b65165528563dba11a47299520ea2fc67070ec6ac303fc05d0140f8e38f8cf6513174d8ccb0c8a0a9eee72db393af82d7258d30eb15c96686d9d37f306ff8c02c11b1472f77dbc6c3fbc12e5c7e6fdd25376459c538741ba4229900000000"
}