{
  "txid": "f9a809dc8e943e621a01aa87457d384080a0a2f3ca483ae393e1188de29f9286",
  "version": 2,
  "locktime": 0,
  "vin": [
    {
      "txid": "acc3ba00869acb582a3f2904ce3a11dd3779350ce234063fc7d0959246213364",
      "vout": 291,
      "prevout": {
        "scriptpubkey": "5120e634a5e57728341da9c14f0cdbf76ef3f7f02e6bd0cf4e68dfd1acc31165afd1",
        "scriptpubkey_asm": "OP_PUSHNUM_1 OP_PUSHBYTES_32 e634a5e57728341da9c14f0cdbf76ef3f7f02e6bd0cf4e68dfd1acc31165afd1",
        "scriptpubkey_type": "v1_p2tr",
        "scriptpubkey_address": "bc1puc62teth9q6pm2wpfuxdhamw70mlqtnt6r85u6xl6xkvxyt94lgszezfg5",
        "value": 1806
      },
      "scriptsig": "",
      "scriptsig_asm": "",
      "witness": [
        "6ce566c049c5bc5f2ae262f243293efe2818ebf3b1bd04f63d5093addcbf63daeb38890c4d0dc957a6996ffadc522381cd72c7a5d2c588e6205712215d958a17",
        "20a0e632480b19f1b59f158072022014419662023d3cfd27180106329bb78cb0d8ac0063036f726401010a746578742f706c61696e00357b2270223a226272632d3230222c226f70223a226d696e74222c227469636b223a22646f6765222c22616d74223a2234323030227d68",
        "c0a0e632480b19f1b59f158072022014419662023d3cfd27180106329bb78cb0d8"
      ],
      "is_coinbase": false,
      "sequence": 4261412863
    }
  ],
  "vout": [
    {
      "scriptpubkey": "00147a665de7a370f4c9b372ab1fae587500a5bcbdb4",
      "scriptpubkey_asm": "OP_0 OP_PUSHBYTES_20 7a665de7a370f4c9b372ab1fae587500a5bcbdb4",
      "scriptpubkey_type": "v0_p2wpkh",
      "scriptpubkey_address": "bc1q0fn9mearwr6vnvmj4v06ukr4qzjme0d565dzcx",
      "value": 294
    }
  ],
  "size": 294,
  "weight": 540,
  "fee": 1512,
  "status": {
    "confirmed": true,
    "block_height": 834460,
    "block_hash": "00000000000000000000484a79b643b2524bbce82e5d8a442013fa5b8905ed98",
    "block_time": 1710307468
  },
  "hex": "02000000000101643321469295d0c73f0634e20c357937dd113ace04293f2a58cb9a8600bac3ac2301000000fffffffd0126010000000000001600147a665de7a370f4c9b372ab1fae587500a5bcbdb403406ce566c049c5bc5f2ae262f243293efe2818ebf3b1bd04f63d5093addcbf63daeb38890c4d0dc957a6996ffadc522381cd72c7a5d2c588e6205712215d958a176d20a0e632480b19f1b59f158072022014419662023d3cfd27180106329bb78cb0d8ac0063036f726401010a746578742f706c61696e00357b2270223a226272632d3230222c226f70223a226d696e74222c227469636b223a22646f6765222c22616d74223a2234323030227d6821c0a0e632480b19f1b59f158072022014419662023d3cfd27180106329bb78cb0d800000000"
}