{
  "txid": "f9c129d6ee345b631a7987abffd588e043245fe23e2dfde3d7c1fb5ba9bdda34",
  "version": 2,
  "locktime": 0,
  "vin": [
    {
      "txid": "0fa45a4d4c0e916541612d6ad5fa60602581d204e70746a6292961f7939a5b4a",
      "vout": 0,
      "prevout": {
        "scriptpubkey": "51204cba50238b63af6e4de27e253cbf8e004906b2b536f0ac611c6c003865de1af6",
        "scriptpubkey_asm": "OP_PUSHNUM_1 OP_PUSHBYTES_32 4cba50238b63af6e4de27e253cbf8e004906b2b536f0ac611c6c003865de1af6",
        "scriptpubkey_type": "v1_p2tr",
        "scriptpubkey_address": "bc1pfja9qgutvwhkun0z0cjne0uwqpysdv44xmc2ccgudsqrsew7rtmqzlwr7t",
        "value": 3130
      },
      "scriptsig": "",
      "scriptsig_asm": "",
      "witness": [
        "166c410d492b856ad456f6a09ff5c975c968629d1c8005174ea58b93752af042373ad8a9cdd3171f7d0031f210dce554b9b173eb03501c67a7bbc615e77227db",
        "20cb07ce5ffb34a4625b828a3d542449f62f887f90ea4b95dc22f0eb689feb0891ac0063036f7264010118746578742f706c61696e3b636861727365743d7574662d38003a7b2270223a226272632d3230222c226f70223a227472616e73666572222c227469636b223a227844414f222c22616d74223a223130303030227d68",
        "c1cb07ce5ffb34a4625b828a3d542449f62f887f90ea4b95dc22f0eb689feb0891"
      ],
      "is_coinbase": false,
      "sequence": 4294967293
    }
  ],
  "vout": [
    {
      "scriptpubkey": "512038f7e10269a62117da1347a604cd42d33f208f8d7bea0e7a278cf8d8c3588c3c",
      "scriptpubkey_asm": "OP_PUSHNUM_1 OP_PUSHBYTES_32 38f7e10269a62117da1347a604cd42d33f208f8d7bea0e7a278cf8d8c3588c3c",
      "scriptpubkey_type": "v1_p2tr",
      "scriptpubkey_address": "bc1p8rm7zqnf5cs30ksng7nqfn2z6vljprud004qu7383nud3s6c3s7qx8t4tw",
      "value": 546
    }
  ],
  "size": 325,
  "weight": 607,
  "fee": 2584,
  "status": {
    "confirmed": true,
    "block_height": 834638,
    "block_hash": "000000000000000000025f742c626208ac87e0b7d15054abb4a19ca2d735a54e",
    "block_time": 1710405325
  },
  "hex": "020000000001014a5b9a93f7612929a64607e704d281256060fad56a2d614165910e4c4d5aa40f0000000000fdffffff01220200000000000022512038f7e10269a62117da1347a604cd42d33f208f8d7bea0e7a278cf8d8c3588c3c0340166c410d492b856ad456f6a09ff5c975c968629d1c8005174ea58b93752af042373ad8a9cdd3171f7d0031f210dce554b9b173eb03501c67a7bbc615e77227db8020cb07ce5ffb34a4625b828a3d542449f62f887f90ea4b95dc22f0eb689feb0891ac0063036f7264010118746578742f706c61696e3b636861727365743d7574662d38003a7b2270223a226272632d3230222c226f70223a227472616e73666572222c227469636b223a227844414f222c22616d74223a223130303030227d6821c1cb07ce5ffb34a4625b828a3d542449f62f887f90ea4b95dc22f0eb689feb089100000000"
}