{
  "txid": "f9d5e7c99ebe57a7f9afdaabd6cfc281bd5eb1793623045339ec854f5f3a7a23",
  "version": 2,
  "locktime": 0,
  "vin": [
    {
      "txid": "8486ecb4df0880316dd6e82b3971b4df187aff23765bc3a47f8d78bb53aa273c",
      "vout": 90,
      "prevout": {
        "scriptpubkey": "51202ff8e3537a0fa3319f6355c0744f6da0560577ecb3e2d4475d400b2b6e909206",
        "scriptpubkey_asm": "OP_PUSHNUM_1 OP_PUSHBYTES_32 2ff8e3537a0fa3319f6355c0744f6da0560577ecb3e2d4475d400b2b6e909206",
        "scriptpubkey_type": "v1_p2tr",
        "scriptpubkey_address": "bc1p9luwx5m6p73nr8mr2hq8gnmd5ptq2alvk03dg36agq9jkm5sjgrqupf455",
        "value": 2575
      },
      "scriptsig": "",
      "scriptsig_asm": "",
      "witness": [
        "6104d29767e195c10ddce8fe65fcf3591fba8ff7665146e772a2777a2f64709a0c43135d02da26d012f28ec0b8558b3e4d37c633e5ffe84577c8d60cf613b29d",
        "20c0406b02922b63a04ce1c0682139f0517ae70cb2eac7f359d842ec0dafa59d07ac0063036f726401010a746578742f706c61696e00367b2270223a226272632d3230222c226f70223a226d696e74222c227469636b223a2261616161222c22616d74223a223130303030227d68",
        "c0c0406b02922b63a04ce1c0682139f0517ae70cb2eac7f359d842ec0dafa59d07"
      ],
      "is_coinbase": false,
      "sequence": 4261412863
    }
  ],
  "vout": [
    {
      "scriptpubkey": "0014ddd7ef12ea6f78edcc1e8e7afa12c01ab59f3339",
      "scriptpubkey_asm": "OP_0 OP_PUSHBYTES_20 ddd7ef12ea6f78edcc1e8e7afa12c01ab59f3339",
      "scriptpubkey_type": "v0_p2wpkh",
      "scriptpubkey_address": "bc1qmht77yh2dauwmnq73ea05ykqr26e7veea8spz6",
      "value": 546
    }
  ],
  "size": 295,
  "weight": 541,
  "fee": 2029,
  "status": {
    "confirmed": true,
    "block_height": 834460,
    "block_hash": "00000000000000000000484a79b643b2524bbce82e5d8a442013fa5b8905ed98",
    "block_time": 1710307468
  },
  "hex": "020000000001013c27aa53bb788d7fa4c35b7623ff7a18dfb471392be8d66d318008dfb4ec86845a00000000fffffffd012202000000000000160014ddd7ef12ea6f78edcc1e8e7afa12c01ab59f333903406104d29767e195c10ddce8fe65fcf3591fba8ff7665146e772a2777a2f64709a0c43135d02da26d012f28ec0b8558b3e4d37c633e5ffe84577c8d60cf613b29d6e20c0406b02922b63a04ce1c0682139f0517ae70cb2eac7f359d842ec0dafa59d07ac0063036f726401010a746578742f706c61696e00367b2270223a226272632d3230222c226f70223a226d696e74222c227469636b223a2261616161222c22616d74223a223130303030227d6821c0c0406b02922b63a04ce1c0682139f0517ae70cb2eac7f359d842ec0dafa59d0700000000"
}