{
  "txid": "f9e5433b26afe90ec9483f41b8d2213d37cdff6297d285e905bd2c0208558f70",
  "version": 2,
  "locktime": 834637,
  "vin": [
    {
      "txid": "b20751709781ce5f6e53dd0c4ad7bf82e384970621ce3aa2989a81ce5bf69028",
      "vout": 1,
      "prevout": {
        "scriptpubkey": "76a914e00cabf329f81488e1be4e3d2a7803d4e0ff09f088ac",
        "scriptpubkey_asm": "OP_DUP OP_HASH160 OP_PUSHBYTES_20 e00cabf329f81488e1be4e3d2a7803d4e0ff09f0 OP_EQUALVERIFY OP_CHECKSIG",
        "scriptpubkey_type": "p2pkh",
        "scriptpubkey_address": "1MRfYQzjtkf1Bm7MLKpZUsawAAJjrcipgC",
        "value": 1842179
      },
      "scriptsig": "47304402202bd511534ca44f1641fe33ddf6f1fc2cd92c6f98b5878421ad158e27a26b250702207ae53973e55497be65e4c958f9faf1bd5b9adaf6301cb5fa09021391f15e4a7f012103ae6443472c8a47b2cc0a3c3b0fa3c7a877b147990ab82179acb59a511c59265c",
      "scriptsig_asm": "OP_PUSHBYTES_71 304402202bd511534ca44f1641fe33ddf6f1fc2cd92c6f98b5878421ad158e27a26b250702207ae53973e55497be65e4c958f9faf1bd5b9adaf6301cb5fa09021391f15e4a7f01 OP_PUSHBYTES_33 03ae6443472c8a47b2cc0a3c3b0fa3c7a877b147990ab82179acb59a511c59265c",
      "is_coinbase": false,
      "sequence": 4294967293
    }
  ],
  "vout": [
    {
      "scriptpubkey": "76a914a82185e986bfc07358e353fafd8c903e7486c63188ac",
      "scriptpubkey_asm": "OP_DUP OP_HASH160 OP_PUSHBYTES_20 a82185e986bfc07358e353fafd8c903e7486c631 OP_EQUALVERIFY OP_CHECKSIG",
      "scriptpubkey_type": "p2pkh",
      "scriptpubkey_address": "1GKzgTGk9BeMndzXd4wM8TF7cxzrFzQSxn",
      "value": 1200000
    },
    {
      "scriptpubkey": "76a91466f6a65e9d7a6f173ee5b8504e03808d0944979188ac",
      "scriptpubkey_asm": "OP_DUP OP_HASH160 OP_PUSHBYTES_20 66f6a65e9d7a6f173ee5b8504e03808d09449791 OP_EQUALVERIFY OP_CHECKSIG",
      "scriptpubkey_type": "p2pkh",
      "scriptpubkey_address": "1APRQ6rPyCJMjSL4pByQP9vYxdx3FYyb3z",
      "value": 638998
    }
  ],
  "size": 225,
  "weight": 900,
  "fee": 3181,
  "status": {
    "confirmed": true,
    "block_height": 834638,
    "block_hash": "000000000000000000025f742c626208ac87e0b7d15054abb4a19ca2d735a54e",
    "block_time": 1710405325
  },
  "hex": "02000000012890f65bce819a98a23ace21069784e382bfd74a0cdd536e5fce8197705107b2010000006a47304402202bd511534ca44f1641fe33ddf6f1fc2cd92c6f98b5878421ad158e27a26b250702207ae53973e55497be65e4c958f9faf1bd5b9adaf6301cb5fa09021391f15e4a7f012103ae6443472c8a47b2cc0a3c3b0fa3c7a877b147990ab82179acb59a511c59265cfdffffff02804f1200000000001976a914a82185e986bfc07358e353fafd8c903e7486c63188ac16c00900000000001976a91466f6a65e9d7a6f173ee5b8504e03808d0944979188ac4dbc0c00"
}