{
  "txid": "f9eee10b06baec791480b42f74ad28053ae3cc34b4e0db319d18edfde13825cd",
  "version": 2,
  "locktime": 0,
  "vin": [
    {
      "txid": "d0da62180c544722b6e84c691a8e0fd3e8043316bfdd39f47633aeff4f67db03",
      "vout": 22,
      "prevout": {
        "scriptpubkey": "51209c79fc28c5b3e354b584e39e57f9386c9137c1d58ef1644f0fbbd6724046f958",
        "scriptpubkey_asm": "OP_PUSHNUM_1 OP_PUSHBYTES_32 9c79fc28c5b3e354b584e39e57f9386c9137c1d58ef1644f0fbbd6724046f958",
        "scriptpubkey_type": "v1_p2tr",
        "scriptpubkey_address": "bc1pn3ulc2x9k034fdvyuw0907fcdjgn0sw43mckgnc0h0t8yszxl9vqlrq3s3",
        "value": 2142
      },
      "scriptsig": "",
      "scriptsig_asm": "",
      "witness": [
        "62bab9dd1e787f5b4436dc50cf8f9e69233f0c5701a586718fcdb587626187b12df018fbd7c0754b05e502030d6a6dd1b9a2ea523fd69b6590cac7ae3b08174e",
        "205b1557b09c60a335f71e13269244abf7a5e08970d5adb5e1827864f449943c4bac0063036f7264010118746578742f706c61696e3b636861727365743d7574662d3800367b2270223a226272632d3230222c226f70223a226d696e74222c227469636b223a2261616161222c22616d74223a223130303030227d68",
        "c05b1557b09c60a335f71e13269244abf7a5e08970d5adb5e1827864f449943c4b"
      ],
      "is_coinbase": false,
      "sequence": 4294967293
    }
  ],
  "vout": [
    {
      "scriptpubkey": "51201d952fb671d39978a5a666ed3fa304679c3dc3ac57ef50464587f9f178ccac18",
      "scriptpubkey_asm": "OP_PUSHNUM_1 OP_PUSHBYTES_32 1d952fb671d39978a5a666ed3fa304679c3dc3ac57ef50464587f9f178ccac18",
      "scriptpubkey_type": "v1_p2tr",
      "scriptpubkey_address": "bc1prk2jldn36wvh3fdxvmknlgcyv7wrmsav2lh4q3j9slulz7xv4svqqz0nzh",
      "value": 330
    }
  ],
  "size": 321,
  "weight": 603,
  "fee": 1812,
  "status": {
    "confirmed": true,
    "block_height": 834460,
    "block_hash": "00000000000000000000484a79b643b2524bbce82e5d8a442013fa5b8905ed98",
    "block_time": 1710307468
  },
  "hex": "0200000000010103db674fffae3376f439ddbf163304e8d30f8e1a694ce8b62247540c1862dad01600000000fdffffff014a010000000000002251201d952fb671d39978a5a666ed3fa304679c3dc3ac57ef50464587f9f178ccac18034062bab9dd1e787f5b4436dc50cf8f9e69233f0c5701a586718fcdb587626187b12df018fbd7c0754b05e502030d6a6dd1b9a2ea523fd69b6590cac7ae3b08174e7c205b1557b09c60a335f71e13269244abf7a5e08970d5adb5e1827864f449943c4bac0063036f7264010118746578742f706c61696e3b636861727365743d7574662d3800367b2270223a226272632d3230222c226f70223a226d696e74222c227469636b223a2261616161222c22616d74223a223130303030227d6821c05b1557b09c60a335f71e13269244abf7a5e08970d5adb5e1827864f449943c4b00000000"
}