{
  "txid": "fa0f5c3c9f7632620c7bf9c19a86dae5d8f8f9ffa96795cdc2bb9acf3f22603a",
  "version": 1,
  "locktime": 0,
  "vin": [
    {
      "txid": "c1adabbc5f78928714b412421d496835acf63ddd6fef7f334475be390fec52ce",
      "vout": 0,
      "prevout": {
        "scriptpubkey": "76a91497c8e917e7639b2b24b0ce6fc9bd1cfbf273471a88ac",
        "scriptpubkey_asm": "OP_DUP OP_HASH160 OP_PUSHBYTES_20 97c8e917e7639b2b24b0ce6fc9bd1cfbf273471a OP_EQUALVERIFY OP_CHECKSIG",
        "scriptpubkey_type": "p2pkh",
        "scriptpubkey_address": "1EqZiUVwEgKASs9L7i81WhNYuZfvWJ3tsA",
        "value": 1980000
      },
      "scriptsig": "473044022053b6417413d0d0e88c23d5c3eb375c8430c3fd0c350137540ff1a6b93cf86aaa02207516e7e57571eb3d464286392027474eb812455146ebd6fd42528250cedc37a8012103a8ec43c70716788f46b859728518077977b5738ba3615fe0da56157c4599defc",
      "scriptsig_asm": "OP_PUSHBYTES_71 3044022053b6417413d0d0e88c23d5c3eb375c8430c3fd0c350137540ff1a6b93cf86aaa02207516e7e57571eb3d464286392027474eb812455146ebd6fd42528250cedc37a801 OP_PUSHBYTES_33 03a8ec43c70716788f46b859728518077977b5738ba3615fe0da56157c4599defc",
      "is_coinbase": false,
      "sequence": 0
    }
  ],
  "vout": [
    {
      "scriptpubkey": "76a914696f683a21ddd7098485d7ee0b757ce6304d7c4388ac",
      "scriptpubkey_asm": "OP_DUP OP_HASH160 OP_PUSHBYTES_20 696f683a21ddd7098485d7ee0b757ce6304d7c43 OP_EQUALVERIFY OP_CHECKSIG",
      "scriptpubkey_type": "p2pkh",
      "scriptpubkey_address": "1AcVQr4CXMwokHJNAMMDnfbe2iYkTnQzyW",
      "value": 1450000
    },
    {
      "scriptpubkey": "76a914ddb30ce79ec27a4b59d08f8883ab87f70be51cb588ac",
      "scriptpubkey_asm": "OP_DUP OP_HASH160 OP_PUSHBYTES_20 ddb30ce79ec27a4b59d08f8883ab87f70be51cb5 OP_EQUALVERIFY OP_CHECKSIG",
      "scriptpubkey_type": "p2pkh",
      "scriptpubkey_address": "1MDEq32vrQTGG9hzEomTzPhRyesvL5Hfk9",
      "value": 525932
    }
  ],
  "size": 225,
  "weight": 900,
  "fee": 4068,
  "status": {
    "confirmed": true,
    "block_height": 834638,
    "block_hash": "000000000000000000025f742c626208ac87e0b7d15054abb4a19ca2d735a54e",
    "block_time": 1710405325
  },
  "hex": "0100000001ce52ec0f39be7544337fef6fdd3df6ac3568491d4212b4148792785fbcabadc1000000006a473044022053b6417413d0d0e88c23d5c3eb375c8430c3fd0c350137540ff1a6b93cf86aaa02207516e7e57571eb3d464286392027474eb812455146ebd6fd42528250cedc37a8012103a8ec43c70716788f46b859728518077977b5738ba3615fe0da56157c4599defc000000000210201600000000001976a914696f683a21ddd7098485d7ee0b757ce6304d7c4388ac6c060800000000001976a914ddb30ce79ec27a4b59d08f8883ab87f70be51cb588ac00000000"
}