{
  "txid": "fa22bb1781f9eb433a1ae22e1d4249a86d7137f911498b9f91710c66472c31ba",
  "version": 2,
  "locktime": 0,
  "vin": [
    {
      "txid": "229ea4324ee05d5e96d12d5ca9dfbc12a552d6ce1fea8b4f9dfbb3360e021f3f",
      "vout": 0,
      "prevout": {
        "scriptpubkey": "5120c51caa9f301cc0ca72b19bafa9e196de9040166ba9c7a5a63183760729f0d80c",
        "scriptpubkey_asm": "OP_PUSHNUM_1 OP_PUSHBYTES_32 c51caa9f301cc0ca72b19bafa9e196de9040166ba9c7a5a63183760729f0d80c",
        "scriptpubkey_type": "v1_p2tr",
        "scriptpubkey_address": "bc1pc5w248esrnqv5u43nwh6ncvkm6gyq9nt48r6tf33sdmqw20smqxqtjuw9p",
        "value": 546
      },
      "scriptsig": "",
      "scriptsig_asm": "",
      "witness": [
        "db8c7f17674ffb761bd799bce637a5aba5659de7e61daab0ddb85281f3186f602d7b56bf92c59d9a989cab33fe16d4a979cb059f74d19522d926d56da305b090"
      ],
      "is_coinbase": false,
      "sequence": 2147483649
    },
    {
      "txid": "45d22ba891adfd0be2bbb91fc93b0c7460cb101231fe669d400db11d0c439771",
      "vout": 0,
      "prevout": {
        "scriptpubkey": "5120c51caa9f301cc0ca72b19bafa9e196de9040166ba9c7a5a63183760729f0d80c",
        "scriptpubkey_asm": "OP_PUSHNUM_1 OP_PUSHBYTES_32 c51caa9f301cc0ca72b19bafa9e196de9040166ba9c7a5a63183760729f0d80c",
        "scriptpubkey_type": "v1_p2tr",
        "scriptpubkey_address": "bc1pc5w248esrnqv5u43nwh6ncvkm6gyq9nt48r6tf33sdmqw20smqxqtjuw9p",
        "value": 200000
      },
      "scriptsig": "",
      "scriptsig_asm": "",
      "witness": [
        "585c632138ef2d28eccd84e82771992b052624103409e123b32041a3259c28ddcc8ecc76536d1e078749c4ac733f4efd76ebaf3a96c62a4c7f8b2f480b941a3b"
      ],
      "is_coinbase": false,
      "sequence": 2147483649
    }
  ],
  "vout": [
    {
      "scriptpubkey": "5120c51caa9f301cc0ca72b19bafa9e196de9040166ba9c7a5a63183760729f0d80c",
      "scriptpubkey_asm": "OP_PUSHNUM_1 OP_PUSHBYTES_32 c51caa9f301cc0ca72b19bafa9e196de9040166ba9c7a5a63183760729f0d80c",
      "scriptpubkey_type": "v1_p2tr",
      "scriptpubkey_address": "bc1pc5w248esrnqv5u43nwh6ncvkm6gyq9nt48r6tf33sdmqw20smqxqtjuw9p",
      "value": 546
    },
    {
      "scriptpubkey": "5120c51caa9f301cc0ca72b19bafa9e196de9040166ba9c7a5a63183760729f0d80c",
      "scriptpubkey_asm": "OP_PUSHNUM_1 OP_PUSHBYTES_32 c51caa9f301cc0ca72b19bafa9e196de9040166ba9c7a5a63183760729f0d80c",
      "scriptpubkey_type": "v1_p2tr",
      "scriptpubkey_address": "bc1pc5w248esrnqv5u43nwh6ncvkm6gyq9nt48r6tf33sdmqw20smqxqtjuw9p",
      "value": 196835
    }
  ],
  "size": 312,
  "weight": 846,
  "fee": 3165,
  "status": {
    "confirmed": true,
    "block_height": 834460,
    "block_hash": "00000000000000000000484a79b643b2524bbce82e5d8a442013fa5b8905ed98",
    "block_time": 1710307468
  },
  "hex": "020000000001023f1f020e36b3fb9d4f8bea1fced652a512bcdfa95c2dd1965e5de04e32a49e220000000000010000807197430c1db10d409d66fe311210cb60740c3bc91fb9bbe20bfdad91a82bd245000000000001000080022202000000000000225120c51caa9f301cc0ca72b19bafa9e196de9040166ba9c7a5a63183760729f0d80ce300030000000000225120c51caa9f301cc0ca72b19bafa9e196de9040166ba9c7a5a63183760729f0d80c0140db8c7f17674ffb761bd799bce637a5aba5659de7e61daab0ddb85281f3186f602d7b56bf92c59d9a989cab33fe16d4a979cb059f74d19522d926d56da305b0900140585c632138ef2d28eccd84e82771992b052624103409e123b32041a3259c28ddcc8ecc76536d1e078749c4ac733f4efd76ebaf3a96c62a4c7f8b2f480b941a3b00000000"
}