{
  "txid": "fa35790c97843ff87c1f30df70ae076ab34f741d7586dfc24fbb39d4dc18c829",
  "version": 2,
  "locktime": 834637,
  "vin": [
    {
      "txid": "1f48c999fb6a480f1b56b8558d709252f850dd79e42c68fec6ef2273dc7d74c6",
      "vout": 1,
      "prevout": {
        "scriptpubkey": "76a914703f3e72d11fe8244bb294f00ad1c82b21b49d8488ac",
        "scriptpubkey_asm": "OP_DUP OP_HASH160 OP_PUSHBYTES_20 703f3e72d11fe8244bb294f00ad1c82b21b49d84 OP_EQUALVERIFY OP_CHECKSIG",
        "scriptpubkey_type": "p2pkh",
        "scriptpubkey_address": "1BEWSkZDt1YoNnw2xSgEVKJxkVc6EbhdwA",
        "value": 158200
      },
      "scriptsig": "47304402207ae7cd2bc2f16cd1f3a9646cfd62e062e6b5bfc9fffda78715e610290ae5695a02205c3be738fff8c786d490f74173937eb9885c3fd8eef43bdc857df1f189b4a485012103a910da8fc3c47d363810b510edf5cbf15782b622e33362acd7bcb942a2f6da1e",
      "scriptsig_asm": "OP_PUSHBYTES_71 304402207ae7cd2bc2f16cd1f3a9646cfd62e062e6b5bfc9fffda78715e610290ae5695a02205c3be738fff8c786d490f74173937eb9885c3fd8eef43bdc857df1f189b4a48501 OP_PUSHBYTES_33 03a910da8fc3c47d363810b510edf5cbf15782b622e33362acd7bcb942a2f6da1e",
      "is_coinbase": false,
      "sequence": 4294967293
    },
    {
      "txid": "8f3b4ed891cb375715bdaa46ddbdfaea4a91f7f1dea1dc3ea9c915045c2b5cb0",
      "vout": 0,
      "prevout": {
        "scriptpubkey": "76a914688cbcd64c4e9c9084dd7f364cebe8bfed994b3888ac",
        "scriptpubkey_asm": "OP_DUP OP_HASH160 OP_PUSHBYTES_20 688cbcd64c4e9c9084dd7f364cebe8bfed994b38 OP_EQUALVERIFY OP_CHECKSIG",
        "scriptpubkey_type": "p2pkh",
        "scriptpubkey_address": "1AXosaFoDUaTsYf2UJX1Y3PbS3RokpZALr",
        "value": 30600
      },
      "scriptsig": "47304402201daeb604194308b94c9ac7fe7b55927a23eb55a9e5566164d772cd81aeb2613a0220100c1cacf83691a9ef998802a354fac3e20ff717b5a60b4e61d075189eb3c5550121024ef177b898ffb7163b02641d31e00666a481bff1c103e643fbb6eb91319e0de8",
      "scriptsig_asm": "OP_PUSHBYTES_71 304402201daeb604194308b94c9ac7fe7b55927a23eb55a9e5566164d772cd81aeb2613a0220100c1cacf83691a9ef998802a354fac3e20ff717b5a60b4e61d075189eb3c55501 OP_PUSHBYTES_33 024ef177b898ffb7163b02641d31e00666a481bff1c103e643fbb6eb91319e0de8",
      "is_coinbase": false,
      "sequence": 4294967293
    }
  ],
  "vout": [
    {
      "scriptpubkey": "76a914ce21d4399951af1282b8230dae95e7fbd522442688ac",
      "scriptpubkey_asm": "OP_DUP OP_HASH160 OP_PUSHBYTES_20 ce21d4399951af1282b8230dae95e7fbd5224426 OP_EQUALVERIFY OP_CHECKSIG",
      "scriptpubkey_type": "p2pkh",
      "scriptpubkey_address": "1KnvizrU5KSzctDGkNmjenvTBzVstNAmth",
      "value": 10372
    },
    {
      "scriptpubkey": "76a91421dd4603316c29e5dfb2ebc633db71c37330becb88ac",
      "scriptpubkey_asm": "OP_DUP OP_HASH160 OP_PUSHBYTES_20 21dd4603316c29e5dfb2ebc633db71c37330becb OP_EQUALVERIFY OP_CHECKSIG",
      "scriptpubkey_type": "p2pkh",
      "scriptpubkey_address": "1464NgYRyvcj9SuCP5s7SiVexXj5isxvZj",
      "value": 152248
    }
  ],
  "size": 372,
  "weight": 1488,
  "fee": 26180,
  "status": {
    "confirmed": true,
    "block_height": 834638,
    "block_hash": "000000000000000000025f742c626208ac87e0b7d15054abb4a19ca2d735a54e",
    "block_time": 1710405325
  },
  "hex": "0200000002c6747ddc7322efc6fe682ce479dd50f85292708d55b8561b0f486afb99c9481f010000006a47304402207ae7cd2bc2f16cd1f3a9646cfd62e062e6b5bfc9fffda78715e610290ae5695a02205c3be738fff8c786d490f74173937eb9885c3fd8eef43bdc857df1f189b4a485012103a910da8fc3c47d363810b510edf5cbf15782b622e33362acd7bcb942a2f6da1efdffffffb05c2b5c0415c9a93edca1def1f7914aeafabddd46aabd155737cb91d84e3b8f000000006a47304402201daeb604194308b94c9ac7fe7b55927a23eb55a9e5566164d772cd81aeb2613a0220100c1cacf83691a9ef998802a354fac3e20ff717b5a60b4e61d075189eb3c5550121024ef177b898ffb7163b02641d31e00666a481bff1c103e643fbb6eb91319e0de8fdffffff0284280000000000001976a914ce21d4399951af1282b8230dae95e7fbd522442688acb8520200000000001976a91421dd4603316c29e5dfb2ebc633db71c37330becb88ac4dbc0c00"
}