{
  "txid": "fa4592ebe6bcff70d8f0bd2365af32a3713dbb06d7006993c789348ce1992ae1",
  "version": 1,
  "locktime": 0,
  "vin": [
    {
      "txid": "06232ca8d63814c7b0af08ae81b46fc6f56fb269510daa6a511b7b171e1dc353",
      "vout": 0,
      "prevout": {
        "scriptpubkey": "001486f59c4e1907b7f9f8a079921b8d2a1c59386f47",
        "scriptpubkey_asm": "OP_0 OP_PUSHBYTES_20 86f59c4e1907b7f9f8a079921b8d2a1c59386f47",
        "scriptpubkey_type": "v0_p2wpkh",
        "scriptpubkey_address": "bc1qsm6ecnseq7mln79q0xfphrf2r3vnsm68q482hz",
        "value": 410000000
      },
      "scriptsig": "",
      "scriptsig_asm": "",
      "witness": [
        "30440220647a713cacd3a7cc126d347875578580f273d988771fde56e63776336829f79d0220699b74966a12914641ba3936adac5c7fcf7302be6314ac7d5a220fb06e63e41e01",
        "0265d9bb6488b16db5036312e3c45b6507618a6cbdd3f52dd83cd55d02d70cce4c"
      ],
      "is_coinbase": false,
      "sequence": 4294967293
    }
  ],
  "vout": [
    {
      "scriptpubkey": "0014473888b0e569c41cc12fdd59956d3afaa1c9e616",
      "scriptpubkey_asm": "OP_0 OP_PUSHBYTES_20 473888b0e569c41cc12fdd59956d3afaa1c9e616",
      "scriptpubkey_type": "v0_p2wpkh",
      "scriptpubkey_address": "bc1qguug3v89d8zpesf0m4ve2mf6l2sunesk4xjdu4",
      "value": 9997603
    },
    {
      "scriptpubkey": "00148d15a8df3bdbefaa0fdcf4af9dcfffe6961b9f6c",
      "scriptpubkey_asm": "OP_0 OP_PUSHBYTES_20 8d15a8df3bdbefaa0fdcf4af9dcfffe6961b9f6c",
      "scriptpubkey_type": "v0_p2wpkh",
      "scriptpubkey_address": "bc1q35263hemm0h65r7u7jhemnllu6tph8mvq8equw",
      "value": 400000000
    }
  ],
  "size": 222,
  "weight": 561,
  "fee": 2397,
  "status": {
    "confirmed": true,
    "block_height": 834638,
    "block_hash": "000000000000000000025f742c626208ac87e0b7d15054abb4a19ca2d735a54e",
    "block_time": 1710405325
  },
  "hex": "0100000000010153c31d1e177b1b516aaa0d5169b26ff5c66fb481ae08afb0c71438d6a82c23060000000000fdffffff02238d980000000000160014473888b0e569c41cc12fdd59956d3afaa1c9e6160084d717000000001600148d15a8df3bdbefaa0fdcf4af9dcfffe6961b9f6c024730440220647a713cacd3a7cc126d347875578580f273d988771fde56e63776336829f79d0220699b74966a12914641ba3936adac5c7fcf7302be6314ac7d5a220fb06e63e41e01210265d9bb6488b16db5036312e3c45b6507618a6cbdd3f52dd83cd55d02d70cce4c00000000"
}