{
  "txid": "fa54f9885961f057d125692bee1ec510e99de637253f273d33345f5df9ed6dbf",
  "version": 2,
  "locktime": 0,
  "vin": [
    {
      "txid": "65fe8cecebbbde3111798a36e1a9c68e3d5ca21da81d6d0c37ac19c1b6c5f174",
      "vout": 0,
      "prevout": {
        "scriptpubkey": "512047444db99e54ade3d99d2eee2ea4acc36a378110303c72f61be929330940d6ba",
        "scriptpubkey_asm": "OP_PUSHNUM_1 OP_PUSHBYTES_32 47444db99e54ade3d99d2eee2ea4acc36a378110303c72f61be929330940d6ba",
        "scriptpubkey_type": "v1_p2tr",
        "scriptpubkey_address": "bc1pgazymwv72jk78kva9mhzaf9vcd4r0qgsxq789asmay5nxz2q66aqjnlxkm",
        "value": 16995
      },
      "scriptsig": "",
      "scriptsig_asm": "",
      "witness": [
        "8a19c552e45c55519f38e398ab507cdfd7252913f7cbfaf0e95e0a2aac988fb56d8800c341f615f2859e8a5a20b6f20777404022cf69116c5dabac34a8ba2500",
        "20f2d00e1cce0b839d2e197679cac7a15152ec244338032c7767f72c1332d49a65ac0063036f726401010a696d6167652f77656270004da0015249464698010000574542505650384c8c0100002f67c1591057602482daf0a3d0a4e0f04b34456da4c0d1f97183127c600553916c5c83f71047145f0208a0fdfc070078dbfe870291d7134f1980030b0e62db8a9b5ac002166a010b58c0422cd4422d2033f3f378d997f75b22fa0fc96d244712e316e302336b6afa09af434ef75ff75ff7dfcf8d0c438ed1a0436abe30e33b438ed1a0e3693ead30636ca14187d48456c8314e4020526b7d9bd45a99257e0073064b2901c5044829e59c35e890becd15186689fd66e7052c1bcfa094124228a5f07bbc03223e021def6066c4e8002e072d7c2188df2f43bb2b566f8661184b0d3ab027f206162eb4e9009a71158f69248f7c73ec9fcde6125cb8087818d05c6e0f939267df9625318df0351bcb4e628e6760b367401ede9a8d06edbac00730db3481770f37f2c7340c3b15371a740cc55c60aa6de4cf166433eb24e601806bc2a07114f0a51e5fa1f99ee00d2e027e5bc09f5c3d3ab066eef1acfbeff8e556ec30493a9822e7cc0ffb3f619a18e302c31c019309930586790130719a0586c95fa4c30f53a3434ef7df9f1a2f680063036f726401011e6170706c69636174696f6e2f6a736f6e3b636861727365743d7574662d38004d5c017b2270223a22766f7264222c2276223a312c227479223a22696e7363222c22636f6c223a2262326536383734663834383134343735643837663633616365323734643163306330336233633136353639373966343633343931363964393935356265376631222c22696964223a225065706550616c73222c227075626c223a2231455337623370636a527a4667796969714c7278484b546e43686535364c4a485937222c226e6f6e6365223a323839312c226d696e746572223a22626331706a74666466676e78737861776b75706179716b7a72796e613066616b70376563736839666e7479396b6867773366716b356e3873716372376b6d222c22736967223a2248474c5953503761676a376b796f3266484e394e6e69707953412b414144394546446d365331644c6c356c4c42572f5243586851574e7a643958714e58424c46325742453946767971622f76304b4f714936582f4b35773d227d68",
        "c0f2d00e1cce0b839d2e197679cac7a15152ec244338032c7767f72c1332d49a65675a92934efa5e4869b2432a3e00abfc6819367af43949c2edc693b32d23ac05"
      ],
      "is_coinbase": false,
      "sequence": 4294967293
    }
  ],
  "vout": [
    {
      "scriptpubkey": "512092d2d4a26681baeb703d202c21927d7a7b60fb3885ca99ac85b5d0e8a416a4cf",
      "scriptpubkey_asm": "OP_PUSHNUM_1 OP_PUSHBYTES_32 92d2d4a26681baeb703d202c21927d7a7b60fb3885ca99ac85b5d0e8a416a4cf",
      "scriptpubkey_type": "v1_p2tr",
      "scriptpubkey_address": "bc1pjtfdfgnxsxawkupayqkzryna0fakp7ecsh9fnty9khgw3fqk5n8sqcr7km",
      "value": 1000
    },
    {
      "scriptpubkey": "76a91403178d77a7110ee45b649df34555054f379261dd88ac",
      "scriptpubkey_asm": "OP_DUP OP_HASH160 OP_PUSHBYTES_20 03178d77a7110ee45b649df34555054f379261dd OP_EQUALVERIFY OP_CHECKSIG",
      "scriptpubkey_type": "p2pkh",
      "scriptpubkey_address": "1HMF3HFqK9unz6fv9ETtWU3YhJU78schp",
      "value": 8431
    },
    {
      "scriptpubkey": "51200705a5767db892e98125775049b1a13dd9ecdc8aea0df413cabbee683e871012",
      "scriptpubkey_asm": "OP_PUSHNUM_1 OP_PUSHBYTES_32 0705a5767db892e98125775049b1a13dd9ecdc8aea0df413cabbee683e871012",
      "scriptpubkey_type": "v1_p2tr",
      "scriptpubkey_address": "bc1pquz62anahzfwnqf9wagynvdp8hv7ehy2agxlgy72h0hxs058zqfqk8ksyq",
      "value": 2922
    }
  ],
  "size": 1174,
  "weight": 1687,
  "fee": 4642,
  "status": {
    "confirmed": true,
    "block_height": 834464,
    "block_hash": "0000000000000000000177a0869a911a2b65c9bdcd5a8bcb02b68f305bee848e",
    "block_time": 1710308296
  },
  "hex": "0200000000010174f1c5b6c119ac370c6d1da81da25c3d8ec6a9e1368a791131debbebec8cfe650000000000fdffffff03e80300000000000022512092d2d4a26681baeb703d202c21927d7a7b60fb3885ca99ac85b5d0e8a416a4cfef200000000000001976a91403178d77a7110ee45b649df34555054f379261dd88ac6a0b0000000000002251200705a5767db892e98125775049b1a13dd9ecdc8aea0df413cabbee683e87101203408a19c552e45c55519f38e398ab507cdfd7252913f7cbfaf0e95e0a2aac988fb56d8800c341f615f2859e8a5a20b6f20777404022cf69116c5dabac34a8ba2500fd620320f2d00e1cce0b839d2e197679cac7a15152ec244338032c7767f72c1332d49a65ac0063036f726401010a696d6167652f77656270004da0015249464698010000574542505650384c8c0100002f67c1591057602482daf0a3d0a4e0f04b34456da4c0d1f97183127c600553916c5c83f71047145f0208a0fdfc070078dbfe870291d7134f1980030b0e62db8a9b5ac002166a010b58c0422cd4422d2033f3f378d997f75b22fa0fc96d244712e316e302336b6afa09af434ef75ff75ff7dfcf8d0c438ed1a0436abe30e33b438ed1a0e3693ead30636ca14187d48456c8314e4020526b7d9bd45a99257e0073064b2901c5044829e59c35e890becd15186689fd66e7052c1bcfa094124228a5f07bbc03223e021def6066c4e8002e072d7c2188df2f43bb2b566f8661184b0d3ab027f206162eb4e9009a71158f69248f7c73ec9fcde6125cb8087818d05c6e0f939267df9625318df0351bcb4e628e6760b367401ede9a8d06edbac00730db3481770f37f2c7340c3b15371a740cc55c60aa6de4cf166433eb24e601806bc2a07114f0a51e5fa1f99ee00d2e027e5bc09f5c3d3ab066eef1acfbeff8e556ec30493a9822e7cc0ffb3f619a18e302c31c019309930586790130719a0586c95fa4c30f53a3434ef7df9f1a2f680063036f726401011e6170706c69636174696f6e2f6a736f6e3b636861727365743d7574662d38004d5c017b2270223a22766f7264222c2276223a312c227479223a22696e7363222c22636f6c223a2262326536383734663834383134343735643837663633616365323734643163306330336233633136353639373966343633343931363964393935356265376631222c22696964223a225065706550616c73222c227075626c223a2231455337623370636a527a4667796969714c7278484b546e43686535364c4a485937222c226e6f6e6365223a323839312c226d696e746572223a22626331706a74666466676e78737861776b75706179716b7a72796e613066616b70376563736839666e7479396b6867773366716b356e3873716372376b6d222c22736967223a2248474c5953503761676a376b796f3266484e394e6e69707953412b414144394546446d365331644c6c356c4c42572f5243586851574e7a643958714e58424c46325742453946767971622f76304b4f714936582f4b35773d227d6841c0f2d00e1cce0b839d2e197679cac7a15152ec244338032c7767f72c1332d49a65675a92934efa5e4869b2432a3e00abfc6819367af43949c2edc693b32d23ac0500000000"
}