{
  "txid": "fa5daefd99efb53faf9ece241768d6f13c264d9478763626f88fbaeebdeac3ba",
  "version": 2,
  "locktime": 0,
  "vin": [
    {
      "txid": "083e9007968275baa905f9618e1b275ca60195b769f4e4c23457715085f3b690",
      "vout": 1,
      "prevout": {
        "scriptpubkey": "00145c4964bffd4b3c4d983dc8a2b5dd8b56a4ac3c18",
        "scriptpubkey_asm": "OP_0 OP_PUSHBYTES_20 5c4964bffd4b3c4d983dc8a2b5dd8b56a4ac3c18",
        "scriptpubkey_type": "v0_p2wpkh",
        "scriptpubkey_address": "bc1qt3ykf0lafv7ymxpaez3tthvt26j2c0qcne375f",
        "value": 253695
      },
      "scriptsig": "",
      "scriptsig_asm": "",
      "witness": [
        "3044022030a144e0912b124f2a4475cfbca99753ad3a2f605304d6e867c3d5c1b8e03f830220488234418d51efc9fa2108b95c431c7a9a40abcb1f4d1f56db5cee7b6e5e87a701",
        "02d491ed97fa0aa8bc0b2ebd22686c8d17102b85becedfed04d34f7635c6f52237"
      ],
      "is_coinbase": false,
      "sequence": 4294967293
    }
  ],
  "vout": [
    {
      "scriptpubkey": "76a914000000aaaf55fe2c5e943ab5ad6f1c49e806423488ac",
      "scriptpubkey_asm": "OP_DUP OP_HASH160 OP_PUSHBYTES_20 000000aaaf55fe2c5e943ab5ad6f1c49e8064234 OP_EQUALVERIFY OP_CHECKSIG",
      "scriptpubkey_type": "p2pkh",
      "scriptpubkey_address": "1111BVkUDrcfAENUHgaVq1HQ67iEKBZEc",
      "value": 252475
    }
  ],
  "size": 194,
  "weight": 449,
  "fee": 1220,
  "status": {
    "confirmed": true,
    "block_height": 834464,
    "block_hash": "0000000000000000000177a0869a911a2b65c9bdcd5a8bcb02b68f305bee848e",
    "block_time": 1710308296
  },
  "hex": "0200000000010190b6f38550715734c2e4f469b79501a65c271b8e61f905a9ba75829607903e080100000000fdffffff013bda0300000000001976a914000000aaaf55fe2c5e943ab5ad6f1c49e806423488ac02473044022030a144e0912b124f2a4475cfbca99753ad3a2f605304d6e867c3d5c1b8e03f830220488234418d51efc9fa2108b95c431c7a9a40abcb1f4d1f56db5cee7b6e5e87a7012102d491ed97fa0aa8bc0b2ebd22686c8d17102b85becedfed04d34f7635c6f5223700000000"
}