{
  "txid": "fa74194315b653cc88fd6cafaa488589c3059f3467aae5b9ea5608d645a8fd0c",
  "version": 2,
  "locktime": 0,
  "vin": [
    {
      "txid": "e835c4d922fbed17c48b3bb466ba1ffc020ede84c1303bdb67ca1f883dd615bb",
      "vout": 17,
      "prevout": {
        "scriptpubkey": "5120c848dee5c8a08ff5c89900f278f7bc3dc2d30980e8d2f6a2675ea0c2976ae513",
        "scriptpubkey_asm": "OP_PUSHNUM_1 OP_PUSHBYTES_32 c848dee5c8a08ff5c89900f278f7bc3dc2d30980e8d2f6a2675ea0c2976ae513",
        "scriptpubkey_type": "v1_p2tr",
        "scriptpubkey_address": "bc1pepydaewg5z8ltjyeqre83aau8hpdxzvqarf0dgn8t6sv99m2u5fsp3t4ds",
        "value": 3248
      },
      "scriptsig": "",
      "scriptsig_asm": "",
      "witness": [
        "8adf0a723b3b2837d8633b6b34423e6a35c0fb1fb4bbea6b2eec35d35bf32f1304194f259ad8f5055b77e0856bc5e542c1db5582a6bc1b6e9b77640fb8984851",
        "2078e3f0239733897294fe795be315a327f1eb9ef4f3a57e4254c8e5b249720fc8ac0063036f726401011e6170706c69636174696f6e2f6a736f6e3b636861727365743d7574662d38004cd37b2270223a22706f772d3230222c226f70223a226d696e74222c227469636b223a2250455045222c22616d74223a2231303030222c22736f6c7574696f6e223a22504550453a626331703378336875706e76383064666366666c34333367327a3776713378706c63673364666d79716365336d6c6d6e78397767753872717265763032653a303030303030303030303030303030303030303139393431613561653132383937363539383134343239323533333030353762306461393666336465613163353a3238323430393039343930227d68",
        "c0bf69a78b1b6433fca38fda21525e43a6c565682ca08e513a8f66feb668723930"
      ],
      "is_coinbase": false,
      "sequence": 4294967295
    }
  ],
  "vout": [
    {
      "scriptpubkey": "512089a37e066c3bda9c253fac62850bcc044c1fe1116a76406331dff73315c8e1c6",
      "scriptpubkey_asm": "OP_PUSHNUM_1 OP_PUSHBYTES_32 89a37e066c3bda9c253fac62850bcc044c1fe1116a76406331dff73315c8e1c6",
      "scriptpubkey_type": "v1_p2tr",
      "scriptpubkey_address": "bc1p3x3hupnv80dfcffl433g2z7vq3xplcg3dfmyqce3mlmnx9wgu8rqrev02e",
      "value": 546
    }
  ],
  "size": 487,
  "weight": 769,
  "fee": 2702,
  "status": {
    "confirmed": true,
    "block_height": 834460,
    "block_hash": "00000000000000000000484a79b643b2524bbce82e5d8a442013fa5b8905ed98",
    "block_time": 1710307468
  },
  "hex": "02000000000101bb15d63d881fca67db3b30c184de0e02fc1fba66b43b8bc417edfb22d9c435e81100000000ffffffff01220200000000000022512089a37e066c3bda9c253fac62850bcc044c1fe1116a76406331dff73315c8e1c603408adf0a723b3b2837d8633b6b34423e6a35c0fb1fb4bbea6b2eec35d35bf32f1304194f259ad8f5055b77e0856bc5e542c1db5582a6bc1b6e9b77640fb8984851fd20012078e3f0239733897294fe795be315a327f1eb9ef4f3a57e4254c8e5b249720fc8ac0063036f726401011e6170706c69636174696f6e2f6a736f6e3b636861727365743d7574662d38004cd37b2270223a22706f772d3230222c226f70223a226d696e74222c227469636b223a2250455045222c22616d74223a2231303030222c22736f6c7574696f6e223a22504550453a626331703378336875706e76383064666366666c34333367327a3776713378706c63673364666d79716365336d6c6d6e78397767753872717265763032653a303030303030303030303030303030303030303139393431613561653132383937363539383134343239323533333030353762306461393666336465613163353a3238323430393039343930227d6821c0bf69a78b1b6433fca38fda21525e43a6c565682ca08e513a8f66feb66872393000000000"
}