{
  "txid": "fa7536ee10bfeddb39476855fac5b9e095821bbb6f3c5936a857cb9c57fc428b",
  "version": 2,
  "locktime": 0,
  "vin": [
    {
      "txid": "bd92f9f32aaaad18bc9a407ac3d043a1fca91c1c7a2010afa622e074464e6308",
      "vout": 97,
      "prevout": {
        "scriptpubkey": "00141f1fca286fe3bccb0d8f5b5e5df8b16b6b62e265",
        "scriptpubkey_asm": "OP_0 OP_PUSHBYTES_20 1f1fca286fe3bccb0d8f5b5e5df8b16b6b62e265",
        "scriptpubkey_type": "v0_p2wpkh",
        "scriptpubkey_address": "bc1qru0u52r0uw7vkrv0td09m793dd4k9cn9a3vwf6",
        "value": 44043
      },
      "scriptsig": "",
      "scriptsig_asm": "",
      "witness": [
        "30440220169c3fd1dff87953f93a0c17c7ace00d8366dcc181ecac5bbab9b72bd459157f022032980ed9b560805a99918aa72203654976ad09ffa871eb16b51eb9c73592b72601",
        "03da71e1bd4f962402edc4363a82d26bb654b4d24252e19a2e33dfd3ed3c9be5c4"
      ],
      "is_coinbase": false,
      "sequence": 4294967295
    },
    {
      "txid": "bd92f9f32aaaad18bc9a407ac3d043a1fca91c1c7a2010afa622e074464e6308",
      "vout": 111,
      "prevout": {
        "scriptpubkey": "0014bb73ff9d83d1cf41a7662bb36d1f001ec3c0fb83",
        "scriptpubkey_asm": "OP_0 OP_PUSHBYTES_20 bb73ff9d83d1cf41a7662bb36d1f001ec3c0fb83",
        "scriptpubkey_type": "v0_p2wpkh",
        "scriptpubkey_address": "bc1qhdell8vr6885rfmx9wek68cqrmpup7ur9shff8",
        "value": 89718160
      },
      "scriptsig": "",
      "scriptsig_asm": "",
      "witness": [
        "30440220213d996672a459ace0cfa8a1908f70fef8487f3afed8aa149d3f9b1724cd24cc02202f0fdd50f8090596b0e8654969bf0b56afd35f366b9807dbb3eb16b20265942e01",
        "029d92c26f9bd1c2155d1529abf7fb9546c59de5d3071bfa1ff3f1c469891c3764"
      ],
      "is_coinbase": false,
      "sequence": 4294967295
    }
  ],
  "vout": [
    {
      "scriptpubkey": "0014a5bb884ac04c318b66bbab3151edf9833aef00d3",
      "scriptpubkey_asm": "OP_0 OP_PUSHBYTES_20 a5bb884ac04c318b66bbab3151edf9833aef00d3",
      "scriptpubkey_type": "v0_p2wpkh",
      "scriptpubkey_address": "bc1q5kacsjkqfsccke4m4vc4rm0esvaw7qxnq9tqny",
      "value": 100953
    },
    {
      "scriptpubkey": "0014005994e8e0002f27a361863ab788e39db8db8ba7",
      "scriptpubkey_asm": "OP_0 OP_PUSHBYTES_20 005994e8e0002f27a361863ab788e39db8db8ba7",
      "scriptpubkey_type": "v0_p2wpkh",
      "scriptpubkey_address": "bc1qqpvef68qqqhj0gmpscat0z8rnkudhza8jvnjun",
      "value": 25859
    },
    {
      "scriptpubkey": "001496e4c795008425c85adfdf17b0a44ee740d4ad03",
      "scriptpubkey_asm": "OP_0 OP_PUSHBYTES_20 96e4c795008425c85adfdf17b0a44ee740d4ad03",
      "scriptpubkey_type": "v0_p2wpkh",
      "scriptpubkey_address": "bc1qjmjv09gqssjuskklmutmpfzwuaqdftgrhm8gah",
      "value": 61208
    },
    {
      "scriptpubkey": "76a914e25dc7a22ce90af9e72164fee0e18bbbd39edc3588ac",
      "scriptpubkey_asm": "OP_DUP OP_HASH160 OP_PUSHBYTES_20 e25dc7a22ce90af9e72164fee0e18bbbd39edc35 OP_EQUALVERIFY OP_CHECKSIG",
      "scriptpubkey_type": "p2pkh",
      "scriptpubkey_address": "1Mdv4HoWC3wBUGbpPRcGMJee8ziVzs6Kim",
      "value": 14904
    },
    {
      "scriptpubkey": "76a914e84655960963e1bffb23004945a11a1b8c2994d288ac",
      "scriptpubkey_asm": "OP_DUP OP_HASH160 OP_PUSHBYTES_20 e84655960963e1bffb23004945a11a1b8c2994d2 OP_EQUALVERIFY OP_CHECKSIG",
      "scriptpubkey_type": "p2pkh",
      "scriptpubkey_address": "1NBA2RJGsXbZcHYkrDd4vkdVdVnJTqhtXR",
      "value": 289469
    },
    {
      "scriptpubkey": "a9142a3ad015047e5dedde09070b4dcbc43b6e30343687",
      "scriptpubkey_asm": "OP_HASH160 OP_PUSHBYTES_20 2a3ad015047e5dedde09070b4dcbc43b6e303436 OP_EQUAL",
      "scriptpubkey_type": "p2sh",
      "scriptpubkey_address": "35YJkzChYTrRHh9gJnhbFUd5wZgsw8pT9G",
      "value": 80000
    },
    {
      "scriptpubkey": "a914d097117463451c6deba49f8e72dcc25ea3f79d9d87",
      "scriptpubkey_asm": "OP_HASH160 OP_PUSHBYTES_20 d097117463451c6deba49f8e72dcc25ea3f79d9d OP_EQUAL",
      "scriptpubkey_type": "p2sh",
      "scriptpubkey_address": "3LhwSr1W9xmu4DLx7v5eX47kPYNT5aRcWR",
      "value": 115657
    },
    {
      "scriptpubkey": "0014d3e15892e597dc01d9edbab962854b422beadf8a",
      "scriptpubkey_asm": "OP_0 OP_PUSHBYTES_20 d3e15892e597dc01d9edbab962854b422beadf8a",
      "scriptpubkey_type": "v0_p2wpkh",
      "scriptpubkey_address": "bc1q60s43yh9jlwqrk0dh2uk9p2tgg474hu25wp80m",
      "value": 142915
    },
    {
      "scriptpubkey": "0014e87405df5fb3333cbbe210664bad1381b9c78c76",
      "scriptpubkey_asm": "OP_0 OP_PUSHBYTES_20 e87405df5fb3333cbbe210664bad1381b9c78c76",
      "scriptpubkey_type": "v0_p2wpkh",
      "scriptpubkey_address": "bc1qap6qth6lkvenewlzzpnyhtgnsxuu0rrk8cq8tg",
      "value": 136261
    },
    {
      "scriptpubkey": "001468881beca1a9bd1d04acde883c78aabda82b87a4",
      "scriptpubkey_asm": "OP_0 OP_PUSHBYTES_20 68881beca1a9bd1d04acde883c78aabda82b87a4",
      "scriptpubkey_type": "v0_p2wpkh",
      "scriptpubkey_address": "bc1qdzyphm9p4x736p9vm6yrc792hk5zhpayxhv3xp",
      "value": 39048
    },
    {
      "scriptpubkey": "0014fb39ac35c7079784a27d0ea74903eaab4e8e2d23",
      "scriptpubkey_asm": "OP_0 OP_PUSHBYTES_20 fb39ac35c7079784a27d0ea74903eaab4e8e2d23",
      "scriptpubkey_type": "v0_p2wpkh",
      "scriptpubkey_address": "bc1qlvu6cdw8q7tcfgnap6n5jql24d8gutfrdvxghq",
      "value": 72423241
    },
    {
      "scriptpubkey": "0014b39d2c746ebcfb2603c90f2df46c932c5e6c7ef8",
      "scriptpubkey_asm": "OP_0 OP_PUSHBYTES_20 b39d2c746ebcfb2603c90f2df46c932c5e6c7ef8",
      "scriptpubkey_type": "v0_p2wpkh",
      "scriptpubkey_address": "bc1qkwwjcarwhnajvq7fpuklgmyn930xclhcl9xm2p",
      "value": 61243
    },
    {
      "scriptpubkey": "76a914cfd21838b57cb019a3ad3d8f9a697f8aa6631a6f88ac",
      "scriptpubkey_asm": "OP_DUP OP_HASH160 OP_PUSHBYTES_20 cfd21838b57cb019a3ad3d8f9a697f8aa6631a6f OP_EQUALVERIFY OP_CHECKSIG",
      "scriptpubkey_type": "p2pkh",
      "scriptpubkey_address": "1KwrZLeKxzfuWnUVfLDnfZ6towCLREy5dt",
      "value": 107994
    },
    {
      "scriptpubkey": "0014675b6827cc9334da327ab372939b2beb4e870d1a",
      "scriptpubkey_asm": "OP_0 OP_PUSHBYTES_20 675b6827cc9334da327ab372939b2beb4e870d1a",
      "scriptpubkey_type": "v0_p2wpkh",
      "scriptpubkey_address": "bc1qvadksf7vjv6d5vn6kdef8xetad8gwrg60yf5d0",
      "value": 58539
    },
    {
      "scriptpubkey": "a91463b3b63251016b5587aa16980f5fd722421b737e87",
      "scriptpubkey_asm": "OP_HASH160 OP_PUSHBYTES_20 63b3b63251016b5587aa16980f5fd722421b737e OP_EQUAL",
      "scriptpubkey_type": "p2sh",
      "scriptpubkey_address": "3AnC786Y5g9Q84QJDa8hF8VK5XWx7wYD5W",
      "value": 581384
    },
    {
      "scriptpubkey": "001492b62f65074e13de124bedf38bf3164eccdb0a9e",
      "scriptpubkey_asm": "OP_0 OP_PUSHBYTES_20 92b62f65074e13de124bedf38bf3164eccdb0a9e",
      "scriptpubkey_type": "v0_p2wpkh",
      "scriptpubkey_address": "bc1qj2mz7eg8fcfauyjtahechuckfmxdkz57rt2puw",
      "value": 24500
    },
    {
      "scriptpubkey": "a914fff1eb21dcb40a2df57e9ec5e2620b71eb4849f687",
      "scriptpubkey_asm": "OP_HASH160 OP_PUSHBYTES_20 fff1eb21dcb40a2df57e9ec5e2620b71eb4849f6 OP_EQUAL",
      "scriptpubkey_type": "p2sh",
      "scriptpubkey_address": "3R2L3FYVXoepH1EqWNSc2Re5KXEGh9P1MP",
      "value": 126556
    },
    {
      "scriptpubkey": "76a914b8021907b8269d0124f3f665bf0a205341496d8d88ac",
      "scriptpubkey_asm": "OP_DUP OP_HASH160 OP_PUSHBYTES_20 b8021907b8269d0124f3f665bf0a205341496d8d OP_EQUALVERIFY OP_CHECKSIG",
      "scriptpubkey_type": "p2pkh",
      "scriptpubkey_address": "1Hmwr44Fxw5FEYFEdq4hXZHq7iDpGABRWA",
      "value": 34726
    },
    {
      "scriptpubkey": "a9147d46b5b393a822c555c699ccf653d0e425d9553487",
      "scriptpubkey_asm": "OP_HASH160 OP_PUSHBYTES_20 7d46b5b393a822c555c699ccf653d0e425d95534 OP_EQUAL",
      "scriptpubkey_type": "p2sh",
      "scriptpubkey_address": "3D7R6XKehWdZSstZUaEFojYXcU11s3f78B",
      "value": 235487
    },
    {
      "scriptpubkey": "00145d7049a95bda100aaff70164bb5258e70d008d8c",
      "scriptpubkey_asm": "OP_0 OP_PUSHBYTES_20 5d7049a95bda100aaff70164bb5258e70d008d8c",
      "scriptpubkey_type": "v0_p2wpkh",
      "scriptpubkey_address": "bc1qt4cyn22mmggq4tlhq9jtk5jcuuxsprvv6l3mhn",
      "value": 27260
    },
    {
      "scriptpubkey": "0014d3f5c11e49032f61717689fabe2a1ff2f7bc3b4e",
      "scriptpubkey_asm": "OP_0 OP_PUSHBYTES_20 d3f5c11e49032f61717689fabe2a1ff2f7bc3b4e",
      "scriptpubkey_type": "v0_p2wpkh",
      "scriptpubkey_address": "bc1q606uz8jfqvhkzutk38atu2sl7tmmcw6w2q0l9v",
      "value": 61246
    },
    {
      "scriptpubkey": "0014eec543c718910ffa013518b814dab7cdc07688a2",
      "scriptpubkey_asm": "OP_0 OP_PUSHBYTES_20 eec543c718910ffa013518b814dab7cdc07688a2",
      "scriptpubkey_type": "v0_p2wpkh",
      "scriptpubkey_address": "bc1qamz583ccjy8l5qf4rzupfk4hehq8dz9z7y744h",
      "value": 59894
    },
    {
      "scriptpubkey": "00146368a436697a7f96c28dc99bce39fdd97ed415fe",
      "scriptpubkey_asm": "OP_0 OP_PUSHBYTES_20 6368a436697a7f96c28dc99bce39fdd97ed415fe",
      "scriptpubkey_type": "v0_p2wpkh",
      "scriptpubkey_address": "bc1qvd52gdnf0fleds5dexduuw0am9ldg907qjj0fn",
      "value": 72139
    },
    {
      "scriptpubkey": "0014766cdee67f08508b0c241d70a5b90d42d5a45bd1",
      "scriptpubkey_asm": "OP_0 OP_PUSHBYTES_20 766cdee67f08508b0c241d70a5b90d42d5a45bd1",
      "scriptpubkey_type": "v0_p2wpkh",
      "scriptpubkey_address": "bc1qwekdaenlppggkrpyr4c2twgdgt26gk73zz9s98",
      "value": 40824
    },
    {
      "scriptpubkey": "0014a17e033f8ffacd465198ee7d6b30ec4558c41fb8",
      "scriptpubkey_asm": "OP_0 OP_PUSHBYTES_20 a17e033f8ffacd465198ee7d6b30ec4558c41fb8",
      "scriptpubkey_type": "v0_p2wpkh",
      "scriptpubkey_address": "bc1q59lqx0u0ltx5v5vcae7kkv8vg4vvg8acga2lra",
      "value": 61210
    },
    {
      "scriptpubkey": "0014fd74a2679f7655dc7f7dfb9eeeba028ef885b2fd",
      "scriptpubkey_asm": "OP_0 OP_PUSHBYTES_20 fd74a2679f7655dc7f7dfb9eeeba028ef885b2fd",
      "scriptpubkey_type": "v0_p2wpkh",
      "scriptpubkey_address": "bc1ql462yeulwe2aclmalw0wawsz3mugtvha2tdkqk",
      "value": 21541
    },
    {
      "scriptpubkey": "a914381714286ab84b7b4eed1830340d018c8982779187",
      "scriptpubkey_asm": "OP_HASH160 OP_PUSHBYTES_20 381714286ab84b7b4eed1830340d018c89827791 OP_EQUAL",
      "scriptpubkey_type": "p2sh",
      "scriptpubkey_address": "36obQppi4gKj5pCVvTeUFcce46Q94xHrL3",
      "value": 94329
    },
    {
      "scriptpubkey": "0014c32c389c17cdbfbe9df772d8c21f75aece579b7b",
      "scriptpubkey_asm": "OP_0 OP_PUSHBYTES_20 c32c389c17cdbfbe9df772d8c21f75aece579b7b",
      "scriptpubkey_type": "v0_p2wpkh",
      "scriptpubkey_address": "bc1qcvkr38qheklma80hwtvvy8m44m890xmmwd35sj",
      "value": 95284
    },
    {
      "scriptpubkey": "0014c682a0d9c20df2cbe10d9fb04dad5fd4904ba100",
      "scriptpubkey_asm": "OP_0 OP_PUSHBYTES_20 c682a0d9c20df2cbe10d9fb04dad5fd4904ba100",
      "scriptpubkey_type": "v0_p2wpkh",
      "scriptpubkey_address": "bc1qc6p2pkwzphevhcgdn7cymt2l6jgyhggqmgl8y9",
      "value": 306287
    },
    {
      "scriptpubkey": "001475c0ea5fc49b63710754e274224adc3be41e6a9d",
      "scriptpubkey_asm": "OP_0 OP_PUSHBYTES_20 75c0ea5fc49b63710754e274224adc3be41e6a9d",
      "scriptpubkey_type": "v0_p2wpkh",
      "scriptpubkey_address": "bc1qwhqw5h7ynd3hzp65uf6zyjku80jpu65agdskzk",
      "value": 65175
    },
    {
      "scriptpubkey": "76a914e80f00892664e52011575832ea9c3d13b1974f5588ac",
      "scriptpubkey_asm": "OP_DUP OP_HASH160 OP_PUSHBYTES_20 e80f00892664e52011575832ea9c3d13b1974f55 OP_EQUALVERIFY OP_CHECKSIG",
      "scriptpubkey_type": "p2pkh",
      "scriptpubkey_address": "1NA1jsN5aEmhocjKF5Xnt8BSvpgimnv8WU",
      "value": 101264
    },
    {
      "scriptpubkey": "0014cb4eb92cdfa736a49f1264f88a667bb578afbc2b",
      "scriptpubkey_asm": "OP_0 OP_PUSHBYTES_20 cb4eb92cdfa736a49f1264f88a667bb578afbc2b",
      "scriptpubkey_type": "v0_p2wpkh",
      "scriptpubkey_address": "bc1qed8tjtxl5um2f8cjvnug5enmk4u2l0ptn3fsxx",
      "value": 61242
    },
    {
      "scriptpubkey": "0014e611a3afd359b4235aefa7158a67df2e66fe72cd",
      "scriptpubkey_asm": "OP_0 OP_PUSHBYTES_20 e611a3afd359b4235aefa7158a67df2e66fe72cd",
      "scriptpubkey_type": "v0_p2wpkh",
      "scriptpubkey_address": "bc1qucg68t7ntx6zxkh05u2c5e7l9en0uukdn7206k",
      "value": 573839
    },
    {
      "scriptpubkey": "0014201f821e2974592b75a4c435add98fe35c063806",
      "scriptpubkey_asm": "OP_0 OP_PUSHBYTES_20 201f821e2974592b75a4c435add98fe35c063806",
      "scriptpubkey_type": "v0_p2wpkh",
      "scriptpubkey_address": "bc1qyq0cy83fw3vjkadycs66mkv0udwqvwqxve45wn",
      "value": 21510
    },
    {
      "scriptpubkey": "0014de4775635216b99ebe1e98d474228c190139d3f5",
      "scriptpubkey_asm": "OP_0 OP_PUSHBYTES_20 de4775635216b99ebe1e98d474228c190139d3f5",
      "scriptpubkey_type": "v0_p2wpkh",
      "scriptpubkey_address": "bc1qmerh2c6jz6uea0s7nr28gg5vryqnn5l4wpdn9h",
      "value": 24152
    },
    {
      "scriptpubkey": "a9146a22810a6bd94578fef25db29a39334307af878787",
      "scriptpubkey_asm": "OP_HASH160 OP_PUSHBYTES_20 6a22810a6bd94578fef25db29a39334307af8787 OP_EQUAL",
      "scriptpubkey_type": "p2sh",
      "scriptpubkey_address": "3BNCtGAW7VS3g8gghGQ7QbarKhwjWUoHiG",
      "value": 313509
    },
    {
      "scriptpubkey": "0014634dd400f169acc1c1dc336d5edcc890c3f60fdb",
      "scriptpubkey_asm": "OP_0 OP_PUSHBYTES_20 634dd400f169acc1c1dc336d5edcc890c3f60fdb",
      "scriptpubkey_type": "v0_p2wpkh",
      "scriptpubkey_address": "bc1qvdxagq83dxkvrswuxdk4ahxgjrplvr7ma50a52",
      "value": 28136
    },
    {
      "scriptpubkey": "002038cd10680011c3518bcd9ed0b3d8dc475105ffdbd5ec6be793ea19668a07973b",
      "scriptpubkey_asm": "OP_0 OP_PUSHBYTES_32 38cd10680011c3518bcd9ed0b3d8dc475105ffdbd5ec6be793ea19668a07973b",
      "scriptpubkey_type": "v0_p2wsh",
      "scriptpubkey_address": "bc1q8rx3q6qqz8p4rz7dnmgt8kxugagstl7m6hkxheunagvkdzs8juas8yr2qq",
      "value": 13538
    },
    {
      "scriptpubkey": "00141606942dafcd0c03c41788cfb21ec815865b5381",
      "scriptpubkey_asm": "OP_0 OP_PUSHBYTES_20 1606942dafcd0c03c41788cfb21ec815865b5381",
      "scriptpubkey_type": "v0_p2wpkh",
      "scriptpubkey_address": "bc1qzcrfgtd0e5xq83qh3r8my8kgzkr9k5up3pmvyd",
      "value": 32070
    },
    {
      "scriptpubkey": "0014d1ccb6956b79d424f2873e0fec72fef566cdda25",
      "scriptpubkey_asm": "OP_0 OP_PUSHBYTES_20 d1ccb6956b79d424f2873e0fec72fef566cdda25",
      "scriptpubkey_type": "v0_p2wpkh",
      "scriptpubkey_address": "bc1q68xtd9tt082zfu588c87cuh774nvmk39y98dme",
      "value": 21513
    },
    {
      "scriptpubkey": "a914d2d68da083b5fd24480f0fe52c647770cfd5c2cd87",
      "scriptpubkey_asm": "OP_HASH160 OP_PUSHBYTES_20 d2d68da083b5fd24480f0fe52c647770cfd5c2cd OP_EQUAL",
      "scriptpubkey_type": "p2sh",
      "scriptpubkey_address": "3LuprFLL9h9jk2CYESX5iUHJ4K7VXjB1E4",
      "value": 61237
    },
    {
      "scriptpubkey": "a914ea55b30d729910de92df9a40a47a80b097aa865587",
      "scriptpubkey_asm": "OP_HASH160 OP_PUSHBYTES_20 ea55b30d729910de92df9a40a47a80b097aa8655 OP_EQUAL",
      "scriptpubkey_type": "p2sh",
      "scriptpubkey_address": "3P44hw2yKjxpc6roZzAKKq2SMZ82kH22CE",
      "value": 28576
    },
    {
      "scriptpubkey": "a9147da2f43c655f4d25d56051939b436593d3d304f487",
      "scriptpubkey_asm": "OP_HASH160 OP_PUSHBYTES_20 7da2f43c655f4d25d56051939b436593d3d304f4 OP_EQUAL",
      "scriptpubkey_type": "p2sh",
      "scriptpubkey_address": "3D9KbmWVX55AZBcY8aLJnxMEbbGz9VvnW6",
      "value": 475076
    },
    {
      "scriptpubkey": "a914de3d2debb4a4c6838cd0c20166630810b38b675287",
      "scriptpubkey_asm": "OP_HASH160 OP_PUSHBYTES_20 de3d2debb4a4c6838cd0c20166630810b38b6752 OP_EQUAL",
      "scriptpubkey_type": "p2sh",
      "scriptpubkey_address": "3Mx7Dwvew1uNq89PTX1uuRzz8LDmGKTNYq",
      "value": 58155
    },
    {
      "scriptpubkey": "76a914947b269a716c93d25d8af7b6c63d3ba1491dea4988ac",
      "scriptpubkey_asm": "OP_DUP OP_HASH160 OP_PUSHBYTES_20 947b269a716c93d25d8af7b6c63d3ba1491dea49 OP_EQUALVERIFY OP_CHECKSIG",
      "scriptpubkey_type": "p2pkh",
      "scriptpubkey_address": "1EY6Y4NQCYeRqbM6CppvQZ374T4hPKFjCR",
      "value": 162019
    },
    {
      "scriptpubkey": "001423846a124453a53c2fb321850200289c0a15819f",
      "scriptpubkey_asm": "OP_0 OP_PUSHBYTES_20 23846a124453a53c2fb321850200289c0a15819f",
      "scriptpubkey_type": "v0_p2wpkh",
      "scriptpubkey_address": "bc1qywzx5yjy2wjnctanyxzsyqpgns9ptqvl9xh86r",
      "value": 206090
    },
    {
      "scriptpubkey": "00141c2df9298ce25fd2dc408916a352af7fe931f08d",
      "scriptpubkey_asm": "OP_0 OP_PUSHBYTES_20 1c2df9298ce25fd2dc408916a352af7fe931f08d",
      "scriptpubkey_type": "v0_p2wpkh",
      "scriptpubkey_address": "bc1qrsklj2vvuf0a9hzq3yt2x5400l5nruyd5atzx0",
      "value": 151670
    },
    {
      "scriptpubkey": "a91451e5cb3329c4ee171729e79e2ba31e176f7dea2487",
      "scriptpubkey_asm": "OP_HASH160 OP_PUSHBYTES_20 51e5cb3329c4ee171729e79e2ba31e176f7dea24 OP_EQUAL",
      "scriptpubkey_type": "p2sh",
      "scriptpubkey_address": "39A3wRzHLtt3PmBcmLnafP7bgEH4ng4Gk9",
      "value": 20418
    },
    {
      "scriptpubkey": "a914cf07ccc61119f57129dba5efc87f91eb6544336e87",
      "scriptpubkey_asm": "OP_HASH160 OP_PUSHBYTES_20 cf07ccc61119f57129dba5efc87f91eb6544336e OP_EQUAL",
      "scriptpubkey_type": "p2sh",
      "scriptpubkey_address": "3LZh9CVjXUC4brUAKws92yh1MnEJ88paWn",
      "value": 272201
    },
    {
      "scriptpubkey": "a914aa1867295cbe258994e09c4d62caa63e730694c187",
      "scriptpubkey_asm": "OP_HASH160 OP_PUSHBYTES_20 aa1867295cbe258994e09c4d62caa63e730694c1 OP_EQUAL",
      "scriptpubkey_type": "p2sh",
      "scriptpubkey_address": "3HCQ2hkJmrxnEHkhkfCzk827B4giGmH1o9",
      "value": 127421
    },
    {
      "scriptpubkey": "00145e3484ed28cf9b890ff160edc134107b6daba00c",
      "scriptpubkey_asm": "OP_0 OP_PUSHBYTES_20 5e3484ed28cf9b890ff160edc134107b6daba00c",
      "scriptpubkey_type": "v0_p2wpkh",
      "scriptpubkey_address": "bc1qtc6gfmfge7dcjrl3vrkuzdqs0dk6hgqv7486fg",
      "value": 262195
    },
    {
      "scriptpubkey": "76a91480ed1d11ebca17aaa501f06afb4d6dae0310f6d188ac",
      "scriptpubkey_asm": "OP_DUP OP_HASH160 OP_PUSHBYTES_20 80ed1d11ebca17aaa501f06afb4d6dae0310f6d1 OP_EQUALVERIFY OP_CHECKSIG",
      "scriptpubkey_type": "p2pkh",
      "scriptpubkey_address": "1CkhYVb7dG5yVxT68NsUxi6E5qHSynGc5f",
      "value": 859701
    },
    {
      "scriptpubkey": "a9145b137de5661be92d626e54b5cd69c10e6d18866087",
      "scriptpubkey_asm": "OP_HASH160 OP_PUSHBYTES_20 5b137de5661be92d626e54b5cd69c10e6d188660 OP_EQUAL",
      "scriptpubkey_type": "p2sh",
      "scriptpubkey_address": "39zamK7MWETKDrYKj5Dn7h5Tfgh76a3Hh2",
      "value": 41784
    },
    {
      "scriptpubkey": "001485c96bcb2bc9822e412d2ee9fd22f48a2f5c9512",
      "scriptpubkey_asm": "OP_0 OP_PUSHBYTES_20 85c96bcb2bc9822e412d2ee9fd22f48a2f5c9512",
      "scriptpubkey_type": "v0_p2wpkh",
      "scriptpubkey_address": "bc1qshykhjetexpzusfd9m5l6gh53gh4e9gjwd9arl",
      "value": 61247
    },
    {
      "scriptpubkey": "001462894333ffbc4762a3fd2e235b601718fd7e7f6b",
      "scriptpubkey_asm": "OP_0 OP_PUSHBYTES_20 62894333ffbc4762a3fd2e235b601718fd7e7f6b",
      "scriptpubkey_type": "v0_p2wpkh",
      "scriptpubkey_address": "bc1qv2y5xvllh3rk9gla9c34kcqhrr7hulmtpms0m5",
      "value": 269672
    },
    {
      "scriptpubkey": "0014ee1f5343269866b0a941ffb25b3d64a6dad4418b",
      "scriptpubkey_asm": "OP_0 OP_PUSHBYTES_20 ee1f5343269866b0a941ffb25b3d64a6dad4418b",
      "scriptpubkey_type": "v0_p2wpkh",
      "scriptpubkey_address": "bc1qac04xsexnpntp22pl7e9k0ty5mddgsvt3a8gaz",
      "value": 238201
    },
    {
      "scriptpubkey": "a914aa0ddbc06f54003a16373a97c38e858d53f7b58b87",
      "scriptpubkey_asm": "OP_HASH160 OP_PUSHBYTES_20 aa0ddbc06f54003a16373a97c38e858d53f7b58b OP_EQUAL",
      "scriptpubkey_type": "p2sh",
      "scriptpubkey_address": "3HCBQ45Cok5cYecYE9149QoGXcSXKsomXy",
      "value": 190110
    },
    {
      "scriptpubkey": "00146be28d4589c922e59de267f983096ca0993ef139",
      "scriptpubkey_asm": "OP_0 OP_PUSHBYTES_20 6be28d4589c922e59de267f983096ca0993ef139",
      "scriptpubkey_type": "v0_p2wpkh",
      "scriptpubkey_address": "bc1qd03g63vfey3wt80zvlucxztv5zvnaufej3wslc",
      "value": 13907
    },
    {
      "scriptpubkey": "76a914e24a08a6ca0d7cf16f990fb1fa52cfd38bf30d6a88ac",
      "scriptpubkey_asm": "OP_DUP OP_HASH160 OP_PUSHBYTES_20 e24a08a6ca0d7cf16f990fb1fa52cfd38bf30d6a OP_EQUALVERIFY OP_CHECKSIG",
      "scriptpubkey_type": "p2pkh",
      "scriptpubkey_address": "1MdWQK6LXe66U32avYvm1tWtm4MSQWzEET",
      "value": 34746
    },
    {
      "scriptpubkey": "0014988fc8780deccf2c63ab99c141fb7562648d5ea0",
      "scriptpubkey_asm": "OP_0 OP_PUSHBYTES_20 988fc8780deccf2c63ab99c141fb7562648d5ea0",
      "scriptpubkey_type": "v0_p2wpkh",
      "scriptpubkey_address": "bc1qnz8us7qdan8jccatn8q5r7m4vfjg6h4qm38nvq",
      "value": 1325608
    },
    {
      "scriptpubkey": "a914d517e02bba73196b5b9ae072c16e7daec325b51387",
      "scriptpubkey_asm": "OP_HASH160 OP_PUSHBYTES_20 d517e02bba73196b5b9ae072c16e7daec325b513 OP_EQUAL",
      "scriptpubkey_type": "p2sh",
      "scriptpubkey_address": "3M7kTKAocDRrJpyh2PLy9zWTZpx1hRwCnp",
      "value": 103986
    },
    {
      "scriptpubkey": "0014286c92457df3496ffa94d6ff5f6ce07d22a6ed9f",
      "scriptpubkey_asm": "OP_0 OP_PUSHBYTES_20 286c92457df3496ffa94d6ff5f6ce07d22a6ed9f",
      "scriptpubkey_type": "v0_p2wpkh",
      "scriptpubkey_address": "bc1q9pkfy3ta7dykl7556ml47m8q0532dmvlwh5q68",
      "value": 2003950
    },
    {
      "scriptpubkey": "a914944a256d0357653f548803bda2d27d1a27b58c8787",
      "scriptpubkey_asm": "OP_HASH160 OP_PUSHBYTES_20 944a256d0357653f548803bda2d27d1a27b58c87 OP_EQUAL",
      "scriptpubkey_type": "p2sh",
      "scriptpubkey_address": "3FD6khhiunFeGP3yALx9jMNEHyGqLVjm1m",
      "value": 34030
    },
    {
      "scriptpubkey": "00149eb0c27777bd6cf5d05f7415426b215003e1d40a",
      "scriptpubkey_asm": "OP_0 OP_PUSHBYTES_20 9eb0c27777bd6cf5d05f7415426b215003e1d40a",
      "scriptpubkey_type": "v0_p2wpkh",
      "scriptpubkey_address": "bc1qn6cvyamhh4k0t5zlws25y6ep2qp7r4q2v0sp03",
      "value": 553931
    },
    {
      "scriptpubkey": "76a91497a9e2063e83f54b2185ae678c8ca134c85f551988ac",
      "scriptpubkey_asm": "OP_DUP OP_HASH160 OP_PUSHBYTES_20 97a9e2063e83f54b2185ae678c8ca134c85f5519 OP_EQUALVERIFY OP_CHECKSIG",
      "scriptpubkey_type": "p2pkh",
      "scriptpubkey_address": "1EpvYdzRG3z2eSPF2C5LJhNp9ynzfXoK2p",
      "value": 136126
    },
    {
      "scriptpubkey": "00146ab9280b9e85da9ea4a39daec7149fbea0685459",
      "scriptpubkey_asm": "OP_0 OP_PUSHBYTES_20 6ab9280b9e85da9ea4a39daec7149fbea0685459",
      "scriptpubkey_type": "v0_p2wpkh",
      "scriptpubkey_address": "bc1qd2ujszu7shdfaf9rnkhvw9ylh6sxs4zekseafq",
      "value": 54448
    },
    {
      "scriptpubkey": "0014567b2fee55138bd37d6cf6ed878e20ca298466e3",
      "scriptpubkey_asm": "OP_0 OP_PUSHBYTES_20 567b2fee55138bd37d6cf6ed878e20ca298466e3",
      "scriptpubkey_type": "v0_p2wpkh",
      "scriptpubkey_address": "bc1q2eajlmj4zw9axltv7mkc0r3qeg5cgehr99k756",
      "value": 34719
    },
    {
      "scriptpubkey": "76a9142587844b3868ae09b13574c93cf6a76a35d2631288ac",
      "scriptpubkey_asm": "OP_DUP OP_HASH160 OP_PUSHBYTES_20 2587844b3868ae09b13574c93cf6a76a35d26312 OP_EQUALVERIFY OP_CHECKSIG",
      "scriptpubkey_type": "p2pkh",
      "scriptpubkey_address": "14RSLy9vPQeTSYBHyAPT6DsXjn8XMbQnFs",
      "value": 2722090
    },
    {
      "scriptpubkey": "a91407a730e05d39918a865d7a8401b058985f28296087",
      "scriptpubkey_asm": "OP_HASH160 OP_PUSHBYTES_20 07a730e05d39918a865d7a8401b058985f282960 OP_EQUAL",
      "scriptpubkey_type": "p2sh",
      "scriptpubkey_address": "32PUwWrgmQQfSbq5ZVxRK2duDoTHAYU9Tv",
      "value": 63965
    },
    {
      "scriptpubkey": "0014cfff5cbbdd4c638ebe3814444daf4a826308ab0b",
      "scriptpubkey_asm": "OP_0 OP_PUSHBYTES_20 cfff5cbbdd4c638ebe3814444daf4a826308ab0b",
      "scriptpubkey_type": "v0_p2wpkh",
      "scriptpubkey_address": "bc1qell4ew7af33ca03cz3zymt62sf3s32ct7d6fzr",
      "value": 61207
    },
    {
      "scriptpubkey": "0014b01fbae485bd8e02f07d8751cd5cfed55a6121a0",
      "scriptpubkey_asm": "OP_0 OP_PUSHBYTES_20 b01fbae485bd8e02f07d8751cd5cfed55a6121a0",
      "scriptpubkey_type": "v0_p2wpkh",
      "scriptpubkey_address": "bc1qkq0m4ey9hk8q9urasagu6h8764dxzgdqe0tkgj",
      "value": 40053
    },
    {
      "scriptpubkey": "0014990f765bba685f4f0da86614fb7796b58f52832f",
      "scriptpubkey_asm": "OP_0 OP_PUSHBYTES_20 990f765bba685f4f0da86614fb7796b58f52832f",
      "scriptpubkey_type": "v0_p2wpkh",
      "scriptpubkey_address": "bc1qny8hvka6dp057rdgvc20kaukkk849qe0ay2n98",
      "value": 200704
    },
    {
      "scriptpubkey": "a91400c6235e21dbba393212877c2bcee4ce5b7e030287",
      "scriptpubkey_asm": "OP_HASH160 OP_PUSHBYTES_20 00c6235e21dbba393212877c2bcee4ce5b7e0302 OP_EQUAL",
      "scriptpubkey_type": "p2sh",
      "scriptpubkey_address": "31m7HRYzSRVEwoCFMi3N3qRqn7GQXcVnVC",
      "value": 327640
    },
    {
      "scriptpubkey": "a914cbea45b67edf7b8144df9ca4e8effcae865a2c8087",
      "scriptpubkey_asm": "OP_HASH160 OP_PUSHBYTES_20 cbea45b67edf7b8144df9ca4e8effcae865a2c80 OP_EQUAL",
      "scriptpubkey_type": "p2sh",
      "scriptpubkey_address": "3LHDk1bwSw7CYgY9oVqi4tiHFi1Sc5UwB1",
      "value": 1781855
    }
  ],
  "size": 2665,
  "weight": 10012,
  "fee": 27559,
  "status": {
    "confirmed": true,
    "block_height": 834638,
    "block_hash": "000000000000000000025f742c626208ac87e0b7d15054abb4a19ca2d735a54e",
    "block_time": 1710405325
  },
  "hex": "0200000000010208634e4674e022a6af10207a1c1ca9fca143d0c37a409abc18adaa2af3f992bd6100000000ffffffff08634e4674e022a6af10207a1c1ca9fca143d0c37a409abc18adaa2af3f992bd6f00000000ffffffff4a598a010000000000160014a5bb884ac04c318b66bbab3151edf9833aef00d30365000000000000160014005994e8e0002f27a361863ab788e39db8db8ba718ef00000000000016001496e4c795008425c85adfdf17b0a44ee740d4ad03383a0000000000001976a914e25dc7a22ce90af9e72164fee0e18bbbd39edc3588acbd6a0400000000001976a914e84655960963e1bffb23004945a11a1b8c2994d288ac803801000000000017a9142a3ad015047e5dedde09070b4dcbc43b6e30343687c9c301000000000017a914d097117463451c6deba49f8e72dcc25ea3f79d9d87432e020000000000160014d3e15892e597dc01d9edbab962854b422beadf8a4514020000000000160014e87405df5fb3333cbbe210664bad1381b9c78c76889800000000000016001468881beca1a9bd1d04acde883c78aabda82b87a44917510400000000160014fb39ac35c7079784a27d0ea74903eaab4e8e2d233bef000000000000160014b39d2c746ebcfb2603c90f2df46c932c5e6c7ef8daa50100000000001976a914cfd21838b57cb019a3ad3d8f9a697f8aa6631a6f88acabe4000000000000160014675b6827cc9334da327ab372939b2beb4e870d1a08df08000000000017a91463b3b63251016b5587aa16980f5fd722421b737e87b45f00000000000016001492b62f65074e13de124bedf38bf3164eccdb0a9e5cee01000000000017a914fff1eb21dcb40a2df57e9ec5e2620b71eb4849f687a6870000000000001976a914b8021907b8269d0124f3f665bf0a205341496d8d88acdf9703000000000017a9147d46b5b393a822c555c699ccf653d0e425d95534877c6a0000000000001600145d7049a95bda100aaff70164bb5258e70d008d8c3eef000000000000160014d3f5c11e49032f61717689fabe2a1ff2f7bc3b4ef6e9000000000000160014eec543c718910ffa013518b814dab7cdc07688a2cb190100000000001600146368a436697a7f96c28dc99bce39fdd97ed415fe789f000000000000160014766cdee67f08508b0c241d70a5b90d42d5a45bd11aef000000000000160014a17e033f8ffacd465198ee7d6b30ec4558c41fb82554000000000000160014fd74a2679f7655dc7f7dfb9eeeba028ef885b2fd797001000000000017a914381714286ab84b7b4eed1830340d018c89827791873474010000000000160014c32c389c17cdbfbe9df772d8c21f75aece579b7b6fac040000000000160014c682a0d9c20df2cbe10d9fb04dad5fd4904ba10097fe00000000000016001475c0ea5fc49b63710754e274224adc3be41e6a9d908b0100000000001976a914e80f00892664e52011575832ea9c3d13b1974f5588ac3aef000000000000160014cb4eb92cdfa736a49f1264f88a667bb578afbc2b8fc1080000000000160014e611a3afd359b4235aefa7158a67df2e66fe72cd0654000000000000160014201f821e2974592b75a4c435add98fe35c063806585e000000000000160014de4775635216b99ebe1e98d474228c190139d3f5a5c804000000000017a9146a22810a6bd94578fef25db29a39334307af878787e86d000000000000160014634dd400f169acc1c1dc336d5edcc890c3f60fdbe23400000000000022002038cd10680011c3518bcd9ed0b3d8dc475105ffdbd5ec6be793ea19668a07973b467d0000000000001600141606942dafcd0c03c41788cfb21ec815865b53810954000000000000160014d1ccb6956b79d424f2873e0fec72fef566cdda2535ef00000000000017a914d2d68da083b5fd24480f0fe52c647770cfd5c2cd87a06f00000000000017a914ea55b30d729910de92df9a40a47a80b097aa865587c43f07000000000017a9147da2f43c655f4d25d56051939b436593d3d304f4872be300000000000017a914de3d2debb4a4c6838cd0c20166630810b38b675287e3780200000000001976a914947b269a716c93d25d8af7b6c63d3ba1491dea4988ac0a2503000000000016001423846a124453a53c2fb321850200289c0a15819f76500200000000001600141c2df9298ce25fd2dc408916a352af7fe931f08dc24f00000000000017a91451e5cb3329c4ee171729e79e2ba31e176f7dea2487492704000000000017a914cf07ccc61119f57129dba5efc87f91eb6544336e87bdf101000000000017a914aa1867295cbe258994e09c4d62caa63e730694c18733000400000000001600145e3484ed28cf9b890ff160edc134107b6daba00c351e0d00000000001976a91480ed1d11ebca17aaa501f06afb4d6dae0310f6d188ac38a300000000000017a9145b137de5661be92d626e54b5cd69c10e6d188660873fef00000000000016001485c96bcb2bc9822e412d2ee9fd22f48a2f5c9512681d04000000000016001462894333ffbc4762a3fd2e235b601718fd7e7f6b79a2030000000000160014ee1f5343269866b0a941ffb25b3d64a6dad4418b9ee602000000000017a914aa0ddbc06f54003a16373a97c38e858d53f7b58b8753360000000000001600146be28d4589c922e59de267f983096ca0993ef139ba870000000000001976a914e24a08a6ca0d7cf16f990fb1fa52cfd38bf30d6a88ac283a140000000000160014988fc8780deccf2c63ab99c141fb7562648d5ea0329601000000000017a914d517e02bba73196b5b9ae072c16e7daec325b51387ee931e0000000000160014286c92457df3496ffa94d6ff5f6ce07d22a6ed9fee8400000000000017a914944a256d0357653f548803bda2d27d1a27b58c8787cb730800000000001600149eb0c27777bd6cf5d05f7415426b215003e1d40abe130200000000001976a91497a9e2063e83f54b2185ae678c8ca134c85f551988acb0d40000000000001600146ab9280b9e85da9ea4a39daec7149fbea06854599f87000000000000160014567b2fee55138bd37d6cf6ed878e20ca298466e32a892900000000001976a9142587844b3868ae09b13574c93cf6a76a35d2631288acddf900000000000017a91407a730e05d39918a865d7a8401b058985f2829608717ef000000000000160014cfff5cbbdd4c638ebe3814444daf4a826308ab0b759c000000000000160014b01fbae485bd8e02f07d8751cd5cfed55a6121a00010030000000000160014990f765bba685f4f0da86614fb7796b58f52832fd8ff04000000000017a91400c6235e21dbba393212877c2bcee4ce5b7e0302875f301b000000000017a914cbea45b67edf7b8144df9ca4e8effcae865a2c8087024730440220169c3fd1dff87953f93a0c17c7ace00d8366dcc181ecac5bbab9b72bd459157f022032980ed9b560805a99918aa72203654976ad09ffa871eb16b51eb9c73592b726012103da71e1bd4f962402edc4363a82d26bb654b4d24252e19a2e33dfd3ed3c9be5c4024730440220213d996672a459ace0cfa8a1908f70fef8487f3afed8aa149d3f9b1724cd24cc02202f0fdd50f8090596b0e8654969bf0b56afd35f366b9807dbb3eb16b20265942e0121029d92c26f9bd1c2155d1529abf7fb9546c59de5d3071bfa1ff3f1c469891c376400000000"
}