{
  "txid": "fa813f12a0e147f4b5d4a185051b59a781d5f1d1b5e27e878c726258b5fe0b15",
  "version": 2,
  "locktime": 0,
  "vin": [
    {
      "txid": "99b7c996f6b884dc5a1752a58aa22fef6dabc3cdf38e04777cc51dd791b55636",
      "vout": 0,
      "prevout": {
        "scriptpubkey": "51207b9806a9c10d5e39ae09febdd52e3ad5d615398a2b30a5c0ab109bfb5145bc96",
        "scriptpubkey_asm": "OP_PUSHNUM_1 OP_PUSHBYTES_32 7b9806a9c10d5e39ae09febdd52e3ad5d615398a2b30a5c0ab109bfb5145bc96",
        "scriptpubkey_type": "v1_p2tr",
        "scriptpubkey_address": "bc1p0wvqd2wpp40rntsfl67a2t366htp2wv29vc2ts9tzzdlk529hjtqwfjt2m",
        "value": 600
      },
      "scriptsig": "",
      "scriptsig_asm": "",
      "witness": [
        "a096b12bc66fbefbd3c31a84129ed2b8c34ea017c0b995048cc0a1cdcdd23a039b9578ec70ae54d04881b0859191b8123e91c1acbc2abbd2003ebf01fe42beb2"
      ],
      "is_coinbase": false,
      "sequence": 4294967295
    },
    {
      "txid": "99b7c996f6b884dc5a1752a58aa22fef6dabc3cdf38e04777cc51dd791b55636",
      "vout": 1,
      "prevout": {
        "scriptpubkey": "51207b9806a9c10d5e39ae09febdd52e3ad5d615398a2b30a5c0ab109bfb5145bc96",
        "scriptpubkey_asm": "OP_PUSHNUM_1 OP_PUSHBYTES_32 7b9806a9c10d5e39ae09febdd52e3ad5d615398a2b30a5c0ab109bfb5145bc96",
        "scriptpubkey_type": "v1_p2tr",
        "scriptpubkey_address": "bc1p0wvqd2wpp40rntsfl67a2t366htp2wv29vc2ts9tzzdlk529hjtqwfjt2m",
        "value": 600
      },
      "scriptsig": "",
      "scriptsig_asm": "",
      "witness": [
        "621effa290bcb573fe2a5ffe71cccfc54b4a9706a7edf267545d297d3edd7e8aa415349c22b0ae267f0243a4a71ad65d5764e04e1c9f74f4a0eeff717447b636"
      ],
      "is_coinbase": false,
      "sequence": 4294967295
    },
    {
      "txid": "ed8766e04a80987cc0ce543f70a6b264798ad41d3c9d0d34ff268bad9f769301",
      "vout": 0,
      "prevout": {
        "scriptpubkey": "51201708949867be442cb7af076b5d21056fd73449601f668ce184c25d3743425a28",
        "scriptpubkey_asm": "OP_PUSHNUM_1 OP_PUSHBYTES_32 1708949867be442cb7af076b5d21056fd73449601f668ce184c25d3743425a28",
        "scriptpubkey_type": "v1_p2tr",
        "scriptpubkey_address": "bc1pzuyffxr8hezzeda0qa446gg9dltngjtqrangecvycfwnws6ztg5qq38v6y",
        "value": 546
      },
      "scriptsig": "",
      "scriptsig_asm": "",
      "witness": [
        "cc6db33152ef6a94ddf29c9a394b119cb52b12f44139a4ab6c61f91721c38fe6a7e94eba148045a53478dafef374bb2a4cb4c81ca450afb547864cd7d38d3f9783"
      ],
      "is_coinbase": false,
      "sequence": 4294967295
    },
    {
      "txid": "99b7c996f6b884dc5a1752a58aa22fef6dabc3cdf38e04777cc51dd791b55636",
      "vout": 2,
      "prevout": {
        "scriptpubkey": "51207b9806a9c10d5e39ae09febdd52e3ad5d615398a2b30a5c0ab109bfb5145bc96",
        "scriptpubkey_asm": "OP_PUSHNUM_1 OP_PUSHBYTES_32 7b9806a9c10d5e39ae09febdd52e3ad5d615398a2b30a5c0ab109bfb5145bc96",
        "scriptpubkey_type": "v1_p2tr",
        "scriptpubkey_address": "bc1p0wvqd2wpp40rntsfl67a2t366htp2wv29vc2ts9tzzdlk529hjtqwfjt2m",
        "value": 906925
      },
      "scriptsig": "",
      "scriptsig_asm": "",
      "witness": [
        "25f83018b0a7ec5e96816d3b0eebe285e688ea4fcca7287a23654ea3bd0d5c8565314b8497ea007da7f6ec7c87ea99563cf27da5fd950354ad39d3374a05083e"
      ],
      "is_coinbase": false,
      "sequence": 4294967295
    }
  ],
  "vout": [
    {
      "scriptpubkey": "51207b9806a9c10d5e39ae09febdd52e3ad5d615398a2b30a5c0ab109bfb5145bc96",
      "scriptpubkey_asm": "OP_PUSHNUM_1 OP_PUSHBYTES_32 7b9806a9c10d5e39ae09febdd52e3ad5d615398a2b30a5c0ab109bfb5145bc96",
      "scriptpubkey_type": "v1_p2tr",
      "scriptpubkey_address": "bc1p0wvqd2wpp40rntsfl67a2t366htp2wv29vc2ts9tzzdlk529hjtqwfjt2m",
      "value": 1200
    },
    {
      "scriptpubkey": "51207b9806a9c10d5e39ae09febdd52e3ad5d615398a2b30a5c0ab109bfb5145bc96",
      "scriptpubkey_asm": "OP_PUSHNUM_1 OP_PUSHBYTES_32 7b9806a9c10d5e39ae09febdd52e3ad5d615398a2b30a5c0ab109bfb5145bc96",
      "scriptpubkey_type": "v1_p2tr",
      "scriptpubkey_address": "bc1p0wvqd2wpp40rntsfl67a2t366htp2wv29vc2ts9tzzdlk529hjtqwfjt2m",
      "value": 546
    },
    {
      "scriptpubkey": "51201708949867be442cb7af076b5d21056fd73449601f668ce184c25d3743425a28",
      "scriptpubkey_asm": "OP_PUSHNUM_1 OP_PUSHBYTES_32 1708949867be442cb7af076b5d21056fd73449601f668ce184c25d3743425a28",
      "scriptpubkey_type": "v1_p2tr",
      "scriptpubkey_address": "bc1pzuyffxr8hezzeda0qa446gg9dltngjtqrangecvycfwnws6ztg5qq38v6y",
      "value": 817900
    },
    {
      "scriptpubkey": "51207b9806a9c10d5e39ae09febdd52e3ad5d615398a2b30a5c0ab109bfb5145bc96",
      "scriptpubkey_asm": "OP_PUSHNUM_1 OP_PUSHBYTES_32 7b9806a9c10d5e39ae09febdd52e3ad5d615398a2b30a5c0ab109bfb5145bc96",
      "scriptpubkey_type": "v1_p2tr",
      "scriptpubkey_address": "bc1p0wvqd2wpp40rntsfl67a2t366htp2wv29vc2ts9tzzdlk529hjtqwfjt2m",
      "value": 600
    },
    {
      "scriptpubkey": "51207b9806a9c10d5e39ae09febdd52e3ad5d615398a2b30a5c0ab109bfb5145bc96",
      "scriptpubkey_asm": "OP_PUSHNUM_1 OP_PUSHBYTES_32 7b9806a9c10d5e39ae09febdd52e3ad5d615398a2b30a5c0ab109bfb5145bc96",
      "scriptpubkey_type": "v1_p2tr",
      "scriptpubkey_address": "bc1p0wvqd2wpp40rntsfl67a2t366htp2wv29vc2ts9tzzdlk529hjtqwfjt2m",
      "value": 600
    },
    {
      "scriptpubkey": "51207b9806a9c10d5e39ae09febdd52e3ad5d615398a2b30a5c0ab109bfb5145bc96",
      "scriptpubkey_asm": "OP_PUSHNUM_1 OP_PUSHBYTES_32 7b9806a9c10d5e39ae09febdd52e3ad5d615398a2b30a5c0ab109bfb5145bc96",
      "scriptpubkey_type": "v1_p2tr",
      "scriptpubkey_address": "bc1p0wvqd2wpp40rntsfl67a2t366htp2wv29vc2ts9tzzdlk529hjtqwfjt2m",
      "value": 79342
    }
  ],
  "size": 699,
  "weight": 1995,
  "fee": 8483,
  "status": {
    "confirmed": true,
    "block_height": 834638,
    "block_hash": "000000000000000000025f742c626208ac87e0b7d15054abb4a19ca2d735a54e",
    "block_time": 1710405325
  },
  "hex": "020000000001043656b591d71dc57c77048ef3cdc3ab6def2fa28aa552175adc84b8f696c9b7990000000000ffffffff3656b591d71dc57c77048ef3cdc3ab6def2fa28aa552175adc84b8f696c9b7990100000000ffffffff0193769fad8b26ff340d9d3c1dd48a7964b2a6703f54cec07c98804ae06687ed0000000000ffffffff3656b591d71dc57c77048ef3cdc3ab6def2fa28aa552175adc84b8f696c9b7990200000000ffffffff06b0040000000000002251207b9806a9c10d5e39ae09febdd52e3ad5d615398a2b30a5c0ab109bfb5145bc9622020000000000002251207b9806a9c10d5e39ae09febdd52e3ad5d615398a2b30a5c0ab109bfb5145bc96ec7a0c00000000002251201708949867be442cb7af076b5d21056fd73449601f668ce184c25d3743425a2858020000000000002251207b9806a9c10d5e39ae09febdd52e3ad5d615398a2b30a5c0ab109bfb5145bc9658020000000000002251207b9806a9c10d5e39ae09febdd52e3ad5d615398a2b30a5c0ab109bfb5145bc96ee350100000000002251207b9806a9c10d5e39ae09febdd52e3ad5d615398a2b30a5c0ab109bfb5145bc960140a096b12bc66fbefbd3c31a84129ed2b8c34ea017c0b995048cc0a1cdcdd23a039b9578ec70ae54d04881b0859191b8123e91c1acbc2abbd2003ebf01fe42beb20140621effa290bcb573fe2a5ffe71cccfc54b4a9706a7edf267545d297d3edd7e8aa415349c22b0ae267f0243a4a71ad65d5764e04e1c9f74f4a0eeff717447b6360141cc6db33152ef6a94ddf29c9a394b119cb52b12f44139a4ab6c61f91721c38fe6a7e94eba148045a53478dafef374bb2a4cb4c81ca450afb547864cd7d38d3f9783014025f83018b0a7ec5e96816d3b0eebe285e688ea4fcca7287a23654ea3bd0d5c8565314b8497ea007da7f6ec7c87ea99563cf27da5fd950354ad39d3374a05083e00000000"
}