{
  "txid": "fa8f33da78b61a52c8ebe5a56ff66bdb8e4846957270b325469127675ba4c36c",
  "version": 2,
  "locktime": 0,
  "vin": [
    {
      "txid": "43150b956e7da0eedea10dbb226040fdd30522edef4627f40678be82fdec8a2e",
      "vout": 0,
      "prevout": {
        "scriptpubkey": "512013c72b6fe24392b12b00b05a5138e3ab794d6e899a648bed201c7239ec7ea814",
        "scriptpubkey_asm": "OP_PUSHNUM_1 OP_PUSHBYTES_32 13c72b6fe24392b12b00b05a5138e3ab794d6e899a648bed201c7239ec7ea814",
        "scriptpubkey_type": "v1_p2tr",
        "scriptpubkey_address": "bc1pz0rjkmlzgwftz2cqkpd9zw8r4du56m5fnfjghmfqr3ernmr74q2qw3c5v6",
        "value": 546
      },
      "scriptsig": "",
      "scriptsig_asm": "",
      "witness": [
        "d81f4891aacfa88410e6d81c74dfd1a194a53b73d4b9d0e9b12d9fa09e3a197b84bf8fc1663d365716928d65dcfad793ed6f6fb6201649d91f76f1e38020cd58"
      ],
      "is_coinbase": false,
      "sequence": 2147483649
    },
    {
      "txid": "0591e2b91442f671763e6914da879279d8fbdbc4e06fa6b77fd37fbb073b033f",
      "vout": 1,
      "prevout": {
        "scriptpubkey": "512013c72b6fe24392b12b00b05a5138e3ab794d6e899a648bed201c7239ec7ea814",
        "scriptpubkey_asm": "OP_PUSHNUM_1 OP_PUSHBYTES_32 13c72b6fe24392b12b00b05a5138e3ab794d6e899a648bed201c7239ec7ea814",
        "scriptpubkey_type": "v1_p2tr",
        "scriptpubkey_address": "bc1pz0rjkmlzgwftz2cqkpd9zw8r4du56m5fnfjghmfqr3ernmr74q2qw3c5v6",
        "value": 17090
      },
      "scriptsig": "",
      "scriptsig_asm": "",
      "witness": [
        "f2e2e8fc33f92025a178ca486b974f9cf295d9c85565455fcce93a9038e5498c784ced5b53b4ebe73987f660880fa6b36a944766179bd4111987fdf361976245"
      ],
      "is_coinbase": false,
      "sequence": 2147483649
    }
  ],
  "vout": [
    {
      "scriptpubkey": "512058e5d2c7a1597296ea2e6d036b010307097b0f3bb9be66e74e90535eb9ae9800",
      "scriptpubkey_asm": "OP_PUSHNUM_1 OP_PUSHBYTES_32 58e5d2c7a1597296ea2e6d036b010307097b0f3bb9be66e74e90535eb9ae9800",
      "scriptpubkey_type": "v1_p2tr",
      "scriptpubkey_address": "bc1ptrja93apt9efd63wd5pkkqgrquyhkremhxlxde6wjpf4awdwnqqqg6kk4m",
      "value": 546
    },
    {
      "scriptpubkey": "512013c72b6fe24392b12b00b05a5138e3ab794d6e899a648bed201c7239ec7ea814",
      "scriptpubkey_asm": "OP_PUSHNUM_1 OP_PUSHBYTES_32 13c72b6fe24392b12b00b05a5138e3ab794d6e899a648bed201c7239ec7ea814",
      "scriptpubkey_type": "v1_p2tr",
      "scriptpubkey_address": "bc1pz0rjkmlzgwftz2cqkpd9zw8r4du56m5fnfjghmfqr3ernmr74q2qw3c5v6",
      "value": 13925
    }
  ],
  "size": 312,
  "weight": 846,
  "fee": 3165,
  "status": {
    "confirmed": true,
    "block_height": 834460,
    "block_hash": "00000000000000000000484a79b643b2524bbce82e5d8a442013fa5b8905ed98",
    "block_time": 1710307468
  },
  "hex": "020000000001022e8aecfd82be7806f42746efed2205d3fd406022bb0da1deeea07d6e950b15430000000000010000803f033b07bb7fd37fb7a66fe0c4dbfbd8799287da14693e7671f64214b9e2910501000000000100008002220200000000000022512058e5d2c7a1597296ea2e6d036b010307097b0f3bb9be66e74e90535eb9ae9800653600000000000022512013c72b6fe24392b12b00b05a5138e3ab794d6e899a648bed201c7239ec7ea8140140d81f4891aacfa88410e6d81c74dfd1a194a53b73d4b9d0e9b12d9fa09e3a197b84bf8fc1663d365716928d65dcfad793ed6f6fb6201649d91f76f1e38020cd580140f2e2e8fc33f92025a178ca486b974f9cf295d9c85565455fcce93a9038e5498c784ced5b53b4ebe73987f660880fa6b36a944766179bd4111987fdf36197624500000000"
}