{
  "txid": "fa966edcd3ca6c3fecd2e1e520a2e1480ac7b6f41b27a195a128846f3116760f",
  "version": 2,
  "locktime": 0,
  "vin": [
    {
      "txid": "d9b14cab4288db6a361fa92ff4c7c9151fbe331288c83c560f0656fdce46cb3d",
      "vout": 0,
      "prevout": {
        "scriptpubkey": "5120ce1039e86ac13577cd4326765ba3200b544396098351b2e80f43249242f1df4b",
        "scriptpubkey_asm": "OP_PUSHNUM_1 OP_PUSHBYTES_32 ce1039e86ac13577cd4326765ba3200b544396098351b2e80f43249242f1df4b",
        "scriptpubkey_type": "v1_p2tr",
        "scriptpubkey_address": "bc1pecgrn6r2cy6h0n2ryem9hgeqpd2y89sfsdgm96q0gvjfysh3ma9s5qk0xg",
        "value": 546
      },
      "scriptsig": "",
      "scriptsig_asm": "",
      "witness": [
        "7a42acd3b7879f1bf1fa349fe47b574d72705d47015f6c8e227955c98d89e3da5ddef0def23b68ecbba151b3a2eeaec2eba3820fb40add98a83513f4f389efa1"
      ],
      "is_coinbase": false,
      "sequence": 4294967295
    },
    {
      "txid": "f3e83c448489faab14a6d5b58de0feb4ab398863113e46234b8397ab8428bd39",
      "vout": 1,
      "prevout": {
        "scriptpubkey": "5120ce1039e86ac13577cd4326765ba3200b544396098351b2e80f43249242f1df4b",
        "scriptpubkey_asm": "OP_PUSHNUM_1 OP_PUSHBYTES_32 ce1039e86ac13577cd4326765ba3200b544396098351b2e80f43249242f1df4b",
        "scriptpubkey_type": "v1_p2tr",
        "scriptpubkey_address": "bc1pecgrn6r2cy6h0n2ryem9hgeqpd2y89sfsdgm96q0gvjfysh3ma9s5qk0xg",
        "value": 38735
      },
      "scriptsig": "",
      "scriptsig_asm": "",
      "witness": [
        "6489f3947f12e36451cb61ab546dfd8c59414ccba20dd1669d933716ffea58ef90c6ff07f7b77829fb9f706f922510bc36868ed858d3a0541138a144b341a2e1"
      ],
      "is_coinbase": false,
      "sequence": 4294967295
    }
  ],
  "vout": [
    {
      "scriptpubkey": "512047142ead42748eeb51b3dce4e88e604e31b02c415e94c995029400c4280f9a5d",
      "scriptpubkey_asm": "OP_PUSHNUM_1 OP_PUSHBYTES_32 47142ead42748eeb51b3dce4e88e604e31b02c415e94c995029400c4280f9a5d",
      "scriptpubkey_type": "v1_p2tr",
      "scriptpubkey_address": "bc1pgu2zat2zwj8wk5dnmnjw3rnqfccmqtzpt62vn9gzjsqvg2q0nfwsdhchvl",
      "value": 546
    },
    {
      "scriptpubkey": "5120ce1039e86ac13577cd4326765ba3200b544396098351b2e80f43249242f1df4b",
      "scriptpubkey_asm": "OP_PUSHNUM_1 OP_PUSHBYTES_32 ce1039e86ac13577cd4326765ba3200b544396098351b2e80f43249242f1df4b",
      "scriptpubkey_type": "v1_p2tr",
      "scriptpubkey_address": "bc1pecgrn6r2cy6h0n2ryem9hgeqpd2y89sfsdgm96q0gvjfysh3ma9s5qk0xg",
      "value": 35555
    }
  ],
  "size": 312,
  "weight": 846,
  "fee": 3180,
  "status": {
    "confirmed": true,
    "block_height": 834460,
    "block_hash": "00000000000000000000484a79b643b2524bbce82e5d8a442013fa5b8905ed98",
    "block_time": 1710307468
  },
  "hex": "020000000001023dcb46cefd56060f563cc8881233be1f15c9c7f42fa91f366adb8842ab4cb1d90000000000ffffffff39bd2884ab97834b23463e11638839abb4fee08db5d5a614abfa8984443ce8f30100000000ffffffff02220200000000000022512047142ead42748eeb51b3dce4e88e604e31b02c415e94c995029400c4280f9a5de38a000000000000225120ce1039e86ac13577cd4326765ba3200b544396098351b2e80f43249242f1df4b01407a42acd3b7879f1bf1fa349fe47b574d72705d47015f6c8e227955c98d89e3da5ddef0def23b68ecbba151b3a2eeaec2eba3820fb40add98a83513f4f389efa101406489f3947f12e36451cb61ab546dfd8c59414ccba20dd1669d933716ffea58ef90c6ff07f7b77829fb9f706f922510bc36868ed858d3a0541138a144b341a2e100000000"
}