{
  "txid": "fa990f42a285e217fe92b2448cbcdcafadf1301cd630bf909af8d572cc3e712b",
  "version": 2,
  "locktime": 0,
  "vin": [
    {
      "txid": "5fee89fbe0db446c040ef2ca85cd208f245925871f50f63f8ba2889078007037",
      "vout": 1,
      "prevout": {
        "scriptpubkey": "51200eca6351bb1ea8900b7d465ca52d4b2610ec34a30925b10b1a8d9a0e66505d62",
        "scriptpubkey_asm": "OP_PUSHNUM_1 OP_PUSHBYTES_32 0eca6351bb1ea8900b7d465ca52d4b2610ec34a30925b10b1a8d9a0e66505d62",
        "scriptpubkey_type": "v1_p2tr",
        "scriptpubkey_address": "bc1ppm9xx5dmr65fqzmagew22t2tycgwcd9rpyjmzzc63kdquejst43quu88p0",
        "value": 2226
      },
      "scriptsig": "",
      "scriptsig_asm": "",
      "witness": [
        "7837446fe9702428128ec8476924282abcc269962b2db7be97344794cc631fd63a4df2a0525d0bb72f85fbe11cf44427f5f720eb11cf6f2c6a41ef6921e9b262",
        "203fa8e4171be7d1ef67f57a1601f1d0de5e09fe1b348d7b4f1ae76d5646b94a5bac0063036f7264010118746578742f706c61696e3b636861727365743d7574662d38000b706174747966692e62746368",
        "c03fa8e4171be7d1ef67f57a1601f1d0de5e09fe1b348d7b4f1ae76d5646b94a5b"
      ],
      "is_coinbase": false,
      "sequence": 4261412863
    }
  ],
  "vout": [
    {
      "scriptpubkey": "5120ebd8d9b0fa1fd56aeb0d9f90bbc9ab877ff6e586454187d1bcdc4b1ee93f9d67",
      "scriptpubkey_asm": "OP_PUSHNUM_1 OP_PUSHBYTES_32 ebd8d9b0fa1fd56aeb0d9f90bbc9ab877ff6e586454187d1bcdc4b1ee93f9d67",
      "scriptpubkey_type": "v1_p2tr",
      "scriptpubkey_address": "bc1pa0vdnv86rl2k46cdn7gthjdtsalldevxg4qc05dum393a6fln4ns6selas",
      "value": 546
    }
  ],
  "size": 278,
  "weight": 560,
  "fee": 1680,
  "status": {
    "confirmed": true,
    "block_height": 834460,
    "block_hash": "00000000000000000000484a79b643b2524bbce82e5d8a442013fa5b8905ed98",
    "block_time": 1710307468
  },
  "hex": "02000000000101377000789088a28b3ff6501f872559248f20cd85caf20e046c44dbe0fb89ee5f0100000000fffffffd012202000000000000225120ebd8d9b0fa1fd56aeb0d9f90bbc9ab877ff6e586454187d1bcdc4b1ee93f9d6703407837446fe9702428128ec8476924282abcc269962b2db7be97344794cc631fd63a4df2a0525d0bb72f85fbe11cf44427f5f720eb11cf6f2c6a41ef6921e9b26251203fa8e4171be7d1ef67f57a1601f1d0de5e09fe1b348d7b4f1ae76d5646b94a5bac0063036f7264010118746578742f706c61696e3b636861727365743d7574662d38000b706174747966692e6274636821c03fa8e4171be7d1ef67f57a1601f1d0de5e09fe1b348d7b4f1ae76d5646b94a5b00000000"
}