{
  "txid": "faba2d8503b1de51ac1535a75b39bd626a2bff5e6e53974e034876ac89e914a4",
  "version": 2,
  "locktime": 0,
  "vin": [
    {
      "txid": "cfed505204bc289f99aff8b749cab85077e81cca0330bbfa72d64142f15e8ade",
      "vout": 1,
      "prevout": {
        "scriptpubkey": "0014497197dca73ac1193eeb17a224e9e216140b63de",
        "scriptpubkey_asm": "OP_0 OP_PUSHBYTES_20 497197dca73ac1193eeb17a224e9e216140b63de",
        "scriptpubkey_type": "v0_p2wpkh",
        "scriptpubkey_address": "bc1qf9ce0h988tq3j0htz73zf60zzc2qkc7789ldva",
        "value": 180572
      },
      "scriptsig": "",
      "scriptsig_asm": "",
      "witness": [
        "304402207736298b1e6b06c5827d1821110bb67e36daa3dd348b66218e7d93e6af2504b6022029102ce859aac150e2e98806c3647b3c4a9174e29bdc0977a835a5c9bb1d6c4901",
        "02d37a8ec34aaa37ff7cf54fe4a30d81d76344c44a14c9d8a5debec202b042c4ac"
      ],
      "is_coinbase": false,
      "sequence": 4294967295
    }
  ],
  "vout": [
    {
      "scriptpubkey": "6a2a0d11ee09961cb724d38098c854d709d86f79333d0db6e0d07f82034d230f5e99f20c11c45a1ba379c0d3",
      "scriptpubkey_asm": "OP_RETURN OP_PUSHBYTES_42 0d11ee09961cb724d38098c854d709d86f79333d0db6e0d07f82034d230f5e99f20c11c45a1ba379c0d3",
      "scriptpubkey_type": "op_return",
      "value": 0
    },
    {
      "scriptpubkey": "0014497197dca73ac1193eeb17a224e9e216140b63de",
      "scriptpubkey_asm": "OP_0 OP_PUSHBYTES_20 497197dca73ac1193eeb17a224e9e216140b63de",
      "scriptpubkey_type": "v0_p2wpkh",
      "scriptpubkey_address": "bc1qf9ce0h988tq3j0htz73zf60zzc2qkc7789ldva",
      "value": 178661
    }
  ],
  "size": 244,
  "weight": 649,
  "fee": 1911,
  "status": {
    "confirmed": true,
    "block_height": 834460,
    "block_hash": "00000000000000000000484a79b643b2524bbce82e5d8a442013fa5b8905ed98",
    "block_time": 1710307468
  },
  "hex": "02000000000101de8a5ef14241d672fabb3003ca1ce87750b8ca49b7f8af999f28bc045250edcf0100000000ffffffff0200000000000000002c6a2a0d11ee09961cb724d38098c854d709d86f79333d0db6e0d07f82034d230f5e99f20c11c45a1ba379c0d3e5b9020000000000160014497197dca73ac1193eeb17a224e9e216140b63de0247304402207736298b1e6b06c5827d1821110bb67e36daa3dd348b66218e7d93e6af2504b6022029102ce859aac150e2e98806c3647b3c4a9174e29bdc0977a835a5c9bb1d6c49012102d37a8ec34aaa37ff7cf54fe4a30d81d76344c44a14c9d8a5debec202b042c4ac00000000"
}