{
  "txid": "fac0885f02dc598f4605e23cc6c61c970a018f7b79d2987e144a153ab422b6a0",
  "version": 2,
  "locktime": 834637,
  "vin": [
    {
      "txid": "16311b38bbe2670d3a6e323bf44b879a019ba9e73c4bebb6841baf4a28c9b1f4",
      "vout": 161,
      "prevout": {
        "scriptpubkey": "00142ba879a87d1cc6b2d8bc1275cea8fbe991081c7c",
        "scriptpubkey_asm": "OP_0 OP_PUSHBYTES_20 2ba879a87d1cc6b2d8bc1275cea8fbe991081c7c",
        "scriptpubkey_type": "v0_p2wpkh",
        "scriptpubkey_address": "bc1q9w58n2rarnrt9k9uzf6ua28maxgss8ru8seq3t",
        "value": 27286
      },
      "scriptsig": "",
      "scriptsig_asm": "",
      "witness": [
        "30440220109fa165fbc9937cd240b2a8bcbc63d7e581e45d245eba8e4f5b5ab16f3b7db60220752ae1b03c50be906703a425774b486561e39c299a5047832213a8885255608001",
        "02c63b72f5ba7e198c71a3ecb2a1f18b3bc9a24841640578d523dfd317f32829c0"
      ],
      "is_coinbase": false,
      "sequence": 4294967294
    },
    {
      "txid": "372347c4acd0cb3a486776b080092fee017780ff2e864d6330a69c62b694a23d",
      "vout": 0,
      "prevout": {
        "scriptpubkey": "00142dc6410d80e75ede71f585a682afe1c9d071782c",
        "scriptpubkey_asm": "OP_0 OP_PUSHBYTES_20 2dc6410d80e75ede71f585a682afe1c9d071782c",
        "scriptpubkey_type": "v0_p2wpkh",
        "scriptpubkey_address": "bc1q9hryzrvqua0duu04skng9tlpe8g8z7pvfs8e9x",
        "value": 639700
      },
      "scriptsig": "",
      "scriptsig_asm": "",
      "witness": [
        "304402203f543f7b712a7b29ed3c7046352d1d2b4ed21074c0cc3a8c33df6faf5ab0ed6102202adb0bab8727b7eeb3172431046d92655552e633ca27ad382481983878cd731c01",
        "036a766904987b698dfd286350a3d44dfe507b0976aa325aef56b80f3472b3aea7"
      ],
      "is_coinbase": false,
      "sequence": 4294967294
    },
    {
      "txid": "41228efc8e76b85d712a75e60c8ede53a1799a52b703060cabd38b95e86c6cd1",
      "vout": 1,
      "prevout": {
        "scriptpubkey": "00140c634418b28bc9429e5103fda4a52dc4a5999a20",
        "scriptpubkey_asm": "OP_0 OP_PUSHBYTES_20 0c634418b28bc9429e5103fda4a52dc4a5999a20",
        "scriptpubkey_type": "v0_p2wpkh",
        "scriptpubkey_address": "bc1qp335gx9j30y598j3q076fffdcjjenx3qcnthff",
        "value": 3426659
      },
      "scriptsig": "",
      "scriptsig_asm": "",
      "witness": [
        "304402202792bc6de8663d13abfe60b008b28cf8a1d224472bdce4c1cf6912dc8ec660d3022064d8d72993971ff51c4db737a4a9c2acebf324bbe6e5dda8607b38989686066d01",
        "02f308db7dbf8e14ae94adfe2278b64bb8f19052e2e3cd30f99c672020d2be3c9e"
      ],
      "is_coinbase": false,
      "sequence": 4294967294
    }
  ],
  "vout": [
    {
      "scriptpubkey": "00143c21764c2daf615aa6c1a2f35140549dfc7d3e55",
      "scriptpubkey_asm": "OP_0 OP_PUSHBYTES_20 3c21764c2daf615aa6c1a2f35140549dfc7d3e55",
      "scriptpubkey_type": "v0_p2wpkh",
      "scriptpubkey_address": "bc1q8sshvnpd4as44fkp5te4zsz5nh7860j4na5ynv",
      "value": 4086000
    }
  ],
  "size": 487,
  "weight": 979,
  "fee": 7645,
  "status": {
    "confirmed": true,
    "block_height": 834638,
    "block_hash": "000000000000000000025f742c626208ac87e0b7d15054abb4a19ca2d735a54e",
    "block_time": 1710405325
  },
  "hex": "02000000000103f4b1c9284aaf1b84b6eb4b3ce7a99b019a874bf43b326e3a0d67e2bb381b3116a100000000feffffff3da294b6629ca630634d862eff807701ee2f0980b07667483acbd0acc44723370000000000feffffffd16c6ce8958bd3ab0c0603b7529a79a153de8e0ce6752a715db8768efc8e22410100000000feffffff01f0583e00000000001600143c21764c2daf615aa6c1a2f35140549dfc7d3e55024730440220109fa165fbc9937cd240b2a8bcbc63d7e581e45d245eba8e4f5b5ab16f3b7db60220752ae1b03c50be906703a425774b486561e39c299a5047832213a88852556080012102c63b72f5ba7e198c71a3ecb2a1f18b3bc9a24841640578d523dfd317f32829c00247304402203f543f7b712a7b29ed3c7046352d1d2b4ed21074c0cc3a8c33df6faf5ab0ed6102202adb0bab8727b7eeb3172431046d92655552e633ca27ad382481983878cd731c0121036a766904987b698dfd286350a3d44dfe507b0976aa325aef56b80f3472b3aea70247304402202792bc6de8663d13abfe60b008b28cf8a1d224472bdce4c1cf6912dc8ec660d3022064d8d72993971ff51c4db737a4a9c2acebf324bbe6e5dda8607b38989686066d012102f308db7dbf8e14ae94adfe2278b64bb8f19052e2e3cd30f99c672020d2be3c9e4dbc0c00"
}