{
  "txid": "fac85863976a508e52720e25d80ab2c1740c524da9d5918c5c5264eca745d6b6",
  "version": 2,
  "locktime": 0,
  "vin": [
    {
      "txid": "eecc7caaa10605a42e29458d4e146a4c14caeb66b93bc473e1963cd4ba443a4a",
      "vout": 0,
      "prevout": {
        "scriptpubkey": "512009f5bfcdaf3437d8f0d3eba73a051a6afede8a7d5747d2be1204986763626446",
        "scriptpubkey_asm": "OP_PUSHNUM_1 OP_PUSHBYTES_32 09f5bfcdaf3437d8f0d3eba73a051a6afede8a7d5747d2be1204986763626446",
        "scriptpubkey_type": "v1_p2tr",
        "scriptpubkey_address": "bc1pp86mlnd0xsma3uxnawnn5pg6dtldazna2ara90sjqjvxwcmzv3rqyygvgq",
        "value": 4000
      },
      "scriptsig": "",
      "scriptsig_asm": "",
      "witness": [
        "7f613884bfc65ecfecbeebaf2946f6daf82d0a9b582bd51d9d8910662bc0579f6d321b9903bfcb4f93b14aa6dac15da198e4c1a1617ee4ec952a6c2c7078d992",
        "20d997d05f0da930b67e33243a78123e5b93e18096dc678233b7362ea86a11f68dac0063036f7264010118746578742f706c61696e3b636861727365743d7574662d38003e7b2270223a226272632d3230222c226f70223a227472616e73666572222c227469636b223a2273617473222c22616d74223a22333030303030303030227d68",
        "c13f706848ee6e6e4034380e903729a24ea4c450f6ccc027c60d7e96ee0057e1e2"
      ],
      "is_coinbase": false,
      "sequence": 4294967293
    }
  ],
  "vout": [
    {
      "scriptpubkey": "51201eddf0344a33499adeb9459b059b934d19b733f6c5eddcf94bbc463b61a6e4ff",
      "scriptpubkey_asm": "OP_PUSHNUM_1 OP_PUSHBYTES_32 1eddf0344a33499adeb9459b059b934d19b733f6c5eddcf94bbc463b61a6e4ff",
      "scriptpubkey_type": "v1_p2tr",
      "scriptpubkey_address": "bc1prmwlqdz2xdye4h4egkdstxunf5vmwvlkchkae72th3rrkcdxunlsrxgx7c",
      "value": 546
    },
    {
      "scriptpubkey": "00141156bba18c1e460546c87dd6a84a96e98eb8c704",
      "scriptpubkey_asm": "OP_0 OP_PUSHBYTES_20 1156bba18c1e460546c87dd6a84a96e98eb8c704",
      "scriptpubkey_type": "v0_p2wpkh",
      "scriptpubkey_address": "bc1qz9tthgvvrerq23kg0ht2sj5kax8t33cyuhz9jr",
      "value": 1430
    }
  ],
  "size": 360,
  "weight": 735,
  "fee": 2024,
  "status": {
    "confirmed": true,
    "block_height": 834464,
    "block_hash": "0000000000000000000177a0869a911a2b65c9bdcd5a8bcb02b68f305bee848e",
    "block_time": 1710308296
  },
  "hex": "020000000001014a3a44bad43c96e173c43bb966ebca144c6a144e8d45292ea40506a1aa7cccee0000000000fdffffff0222020000000000002251201eddf0344a33499adeb9459b059b934d19b733f6c5eddcf94bbc463b61a6e4ff96050000000000001600141156bba18c1e460546c87dd6a84a96e98eb8c70403407f613884bfc65ecfecbeebaf2946f6daf82d0a9b582bd51d9d8910662bc0579f6d321b9903bfcb4f93b14aa6dac15da198e4c1a1617ee4ec952a6c2c7078d9928420d997d05f0da930b67e33243a78123e5b93e18096dc678233b7362ea86a11f68dac0063036f7264010118746578742f706c61696e3b636861727365743d7574662d38003e7b2270223a226272632d3230222c226f70223a227472616e73666572222c227469636b223a2273617473222c22616d74223a22333030303030303030227d6821c13f706848ee6e6e4034380e903729a24ea4c450f6ccc027c60d7e96ee0057e1e200000000"
}