{
  "txid": "faceb9ac544738ce1d3d7869e15ff79b4dc642bc9691ee785c0c629988a44d6a",
  "version": 2,
  "locktime": 0,
  "vin": [
    {
      "txid": "87578ff4c3a7291d57b752134e7befdcc448dcaf5d462e30c4d43bfc67e0c9e5",
      "vout": 0,
      "prevout": {
        "scriptpubkey": "51203c0c8c9a74fb882bae96b27b2729eb8645bae1d0e1894a5fd3247575cea24671",
        "scriptpubkey_asm": "OP_PUSHNUM_1 OP_PUSHBYTES_32 3c0c8c9a74fb882bae96b27b2729eb8645bae1d0e1894a5fd3247575cea24671",
        "scriptpubkey_type": "v1_p2tr",
        "scriptpubkey_address": "bc1p8sxgexn5lwyzht5kkfajw20tsezm4cwsuxy55h7ny36htn4zgecsgwh6tp",
        "value": 2856
      },
      "scriptsig": "",
      "scriptsig_asm": "",
      "witness": [
        "99ec51e039d722e41e0afddc2cb5724d2acfcf25a819ad650ad4b8e58d2debde756cb28771fcc68c3c90f04e76f6d129e7334fd7e6cf334f09b5b221f268f193",
        "203426a5686de9f8017d82c11c4168b3f672a0640e752250742efe341b62638511ac0063036f7264010118746578742f706c61696e3b636861727365743d7574662d3800407b2270223a226272632d3230222c226f70223a227472616e73666572222c227469636b223a22f09d9b91222c22616d74223a223136383030303030303030227d68",
        "c03426a5686de9f8017d82c11c4168b3f672a0640e752250742efe341b62638511"
      ],
      "is_coinbase": false,
      "sequence": 4294967293
    }
  ],
  "vout": [
    {
      "scriptpubkey": "5120d0f2033f0cc7ea9a5f6c028982b0923d0cbe9738bf88a9d8391ed1bcedf4424a",
      "scriptpubkey_asm": "OP_PUSHNUM_1 OP_PUSHBYTES_32 d0f2033f0cc7ea9a5f6c028982b0923d0cbe9738bf88a9d8391ed1bcedf4424a",
      "scriptpubkey_type": "v1_p2tr",
      "scriptpubkey_address": "bc1p6reqx0cvcl4f5hmvq2yc9vyj85xta9ech7y2nkpermgmem05gf9q46ww2m",
      "value": 546
    }
  ],
  "size": 331,
  "weight": 613,
  "fee": 2310,
  "status": {
    "confirmed": true,
    "block_height": 834638,
    "block_hash": "000000000000000000025f742c626208ac87e0b7d15054abb4a19ca2d735a54e",
    "block_time": 1710405325
  },
  "hex": "02000000000101e5c9e067fc3bd4c4302e465dafdc48c4dcef7b4e1352b7571d29a7c3f48f57870000000000fdffffff012202000000000000225120d0f2033f0cc7ea9a5f6c028982b0923d0cbe9738bf88a9d8391ed1bcedf4424a034099ec51e039d722e41e0afddc2cb5724d2acfcf25a819ad650ad4b8e58d2debde756cb28771fcc68c3c90f04e76f6d129e7334fd7e6cf334f09b5b221f268f19386203426a5686de9f8017d82c11c4168b3f672a0640e752250742efe341b62638511ac0063036f7264010118746578742f706c61696e3b636861727365743d7574662d3800407b2270223a226272632d3230222c226f70223a227472616e73666572222c227469636b223a22f09d9b91222c22616d74223a223136383030303030303030227d6821c03426a5686de9f8017d82c11c4168b3f672a0640e752250742efe341b6263851100000000"
}