{
  "txid": "fae03a1b8eadd2075e249e8ff59ddb3ac07d267b4bc54ef2e8431246c0139c94",
  "version": 2,
  "locktime": 834608,
  "vin": [
    {
      "txid": "eb7092dac401b4574fe51762dda03960e86697abed02544ac5b6e64eb1b4bd2a",
      "vout": 1,
      "prevout": {
        "scriptpubkey": "001415c2098511d3ec0fc994e5dc2c6e6de718a72e20",
        "scriptpubkey_asm": "OP_0 OP_PUSHBYTES_20 15c2098511d3ec0fc994e5dc2c6e6de718a72e20",
        "scriptpubkey_type": "v0_p2wpkh",
        "scriptpubkey_address": "bc1qzhpqnpg360kqljv5uhwzcmnduuv2wt3qqllx5t",
        "value": 196858409
      },
      "scriptsig": "",
      "scriptsig_asm": "",
      "witness": [
        "3044022025b2b50cdbc33bf5633a38102261fa7306eab73ffee0552b7ab7fd47e947ced3022064dc703a1efbc1680bdeb5d2e96701be1bbc5097df3a81cbfccdf6f00ba0095801",
        "023f94f72b5c1f8df980f43be6b4b555c09ca048990abd4aefbeb77a0eebd1e2fe"
      ],
      "is_coinbase": false,
      "sequence": 4294967293
    }
  ],
  "vout": [
    {
      "scriptpubkey": "00143b654b468a7c29366540eeae9ba22cde78a5426b",
      "scriptpubkey_asm": "OP_0 OP_PUSHBYTES_20 3b654b468a7c29366540eeae9ba22cde78a5426b",
      "scriptpubkey_type": "v0_p2wpkh",
      "scriptpubkey_address": "bc1q8dj5k3520s5nve2qa6hfhg3vmeu22sntew72rt",
      "value": 923875
    },
    {
      "scriptpubkey": "00146597bf374d9d96179cbde929c8e902a887686b30",
      "scriptpubkey_asm": "OP_0 OP_PUSHBYTES_20 6597bf374d9d96179cbde929c8e902a887686b30",
      "scriptpubkey_type": "v0_p2wpkh",
      "scriptpubkey_address": "bc1qvktm7d6dnktp089aay5u36gz4zrks6eseauw3w",
      "value": 195930727
    }
  ],
  "size": 222,
  "weight": 561,
  "fee": 3807,
  "status": {
    "confirmed": true,
    "block_height": 834638,
    "block_hash": "000000000000000000025f742c626208ac87e0b7d15054abb4a19ca2d735a54e",
    "block_time": 1710405325
  },
  "hex": "020000000001012abdb4b14ee6b6c54a5402edab9766e86039a0dd6217e54f57b401c4da9270eb0100000000fdffffff02e3180e00000000001600143b654b468a7c29366540eeae9ba22cde78a5426b67aaad0b000000001600146597bf374d9d96179cbde929c8e902a887686b3002473044022025b2b50cdbc33bf5633a38102261fa7306eab73ffee0552b7ab7fd47e947ced3022064dc703a1efbc1680bdeb5d2e96701be1bbc5097df3a81cbfccdf6f00ba009580121023f94f72b5c1f8df980f43be6b4b555c09ca048990abd4aefbeb77a0eebd1e2fe30bc0c00"
}