{
  "txid": "faeecb2339b5b4c93c207953d6e6e9bf519c78e0b618b9cb08474645dbad4b44",
  "version": 2,
  "locktime": 0,
  "vin": [
    {
      "txid": "b800170293eb62d82d971a494d723b31615691d78b379a35589feeafeed9f095",
      "vout": 0,
      "prevout": {
        "scriptpubkey": "512013408fae215e909d22628664127fd79d15d53b90adde68129bad5d9947559539",
        "scriptpubkey_asm": "OP_PUSHNUM_1 OP_PUSHBYTES_32 13408fae215e909d22628664127fd79d15d53b90adde68129bad5d9947559539",
        "scriptpubkey_type": "v1_p2tr",
        "scriptpubkey_address": "bc1pzdqglt3pt6gf6gnzsejpyl7hn52a2wus4h0xsy5m44wej364j5us8syzrd",
        "value": 2856
      },
      "scriptsig": "",
      "scriptsig_asm": "",
      "witness": [
        "ba72b3a570b71a6048d2c303280960939f818fb54256d8b0bf7718ea3519ec19a307b7e3295ccd3a555d577833118df329ab3ddc38d4afc1b31dfa13de117640",
        "20471e3fe379505d9b0c10b150f646ceb1995a8e188903987fcf2af09d4c376bf4ac0063036f7264010118746578742f706c61696e3b636861727365743d7574662d3800417b2270223a226272632d3230222c226f70223a227472616e73666572222c227469636b223a2273617478222c22616d74223a22333339393939393938343136227d68",
        "c1471e3fe379505d9b0c10b150f646ceb1995a8e188903987fcf2af09d4c376bf4"
      ],
      "is_coinbase": false,
      "sequence": 4294967293
    }
  ],
  "vout": [
    {
      "scriptpubkey": "5120a6eb97ba9a97abe97200dbe21db222b92b8f4f118e8fe899c75cc432966d037f",
      "scriptpubkey_asm": "OP_PUSHNUM_1 OP_PUSHBYTES_32 a6eb97ba9a97abe97200dbe21db222b92b8f4f118e8fe899c75cc432966d037f",
      "scriptpubkey_type": "v1_p2tr",
      "scriptpubkey_address": "bc1p5m4e0w56j747jusqm03pmv3zhy4c7nc336873xw8tnzr99ndqdlst9xpve",
      "value": 546
    }
  ],
  "size": 332,
  "weight": 614,
  "fee": 2310,
  "status": {
    "confirmed": true,
    "block_height": 834460,
    "block_hash": "00000000000000000000484a79b643b2524bbce82e5d8a442013fa5b8905ed98",
    "block_time": 1710307468
  },
  "hex": "0200000000010195f0d9eeafee9f58359a378bd7915661313b724d491a972dd862eb93021700b80000000000fdffffff012202000000000000225120a6eb97ba9a97abe97200dbe21db222b92b8f4f118e8fe899c75cc432966d037f0340ba72b3a570b71a6048d2c303280960939f818fb54256d8b0bf7718ea3519ec19a307b7e3295ccd3a555d577833118df329ab3ddc38d4afc1b31dfa13de1176408720471e3fe379505d9b0c10b150f646ceb1995a8e188903987fcf2af09d4c376bf4ac0063036f7264010118746578742f706c61696e3b636861727365743d7574662d3800417b2270223a226272632d3230222c226f70223a227472616e73666572222c227469636b223a2273617478222c22616d74223a22333339393939393938343136227d6821c1471e3fe379505d9b0c10b150f646ceb1995a8e188903987fcf2af09d4c376bf400000000"
}