{
  "txid": "fb011851aea139806392b4f9f2d6233669111d12987fa9139c21f47f8e1241d9",
  "version": 1,
  "locktime": 0,
  "vin": [
    {
      "txid": "8ee34491dd3c754a3a5910892a0c53c811f121ac8f054d466ba2900982a0261f",
      "vout": 0,
      "prevout": {
        "scriptpubkey": "5120025ed1c260e83cefa0a08c9b4d8e7d8c3cdb3fd2d0697a726ee714cb1510f81a",
        "scriptpubkey_asm": "OP_PUSHNUM_1 OP_PUSHBYTES_32 025ed1c260e83cefa0a08c9b4d8e7d8c3cdb3fd2d0697a726ee714cb1510f81a",
        "scriptpubkey_type": "v1_p2tr",
        "scriptpubkey_address": "bc1pqf0drsnqaq7wlg9q3jd5mrna3s7dk07j6p5h5unwuu2vk9gslqdq4u3fa6",
        "value": 803590
      },
      "scriptsig": "",
      "scriptsig_asm": "",
      "witness": [
        "fcc1ff62ace9043afa62c8d0fa65501dfe81c116c68c1c5ca3924468c5939bad5bacc84b9259e7a6956d1de9d1411a5c1e72328d0d4b664e63c59f2f9b5aa68401"
      ],
      "is_coinbase": false,
      "sequence": 4294967295
    }
  ],
  "vout": [
    {
      "scriptpubkey": "51207e727bc625b9ced165a1c956354c76d4b767382130c75b5b307dde8e074bd8f2",
      "scriptpubkey_asm": "OP_PUSHNUM_1 OP_PUSHBYTES_32 7e727bc625b9ced165a1c956354c76d4b767382130c75b5b307dde8e074bd8f2",
      "scriptpubkey_type": "v1_p2tr",
      "scriptpubkey_address": "bc1p0ee8h339h88dzedpe9tr2nrk6jmkwwppxrr4kkes0h0gup6tmreqm55mwm",
      "value": 753992
    },
    {
      "scriptpubkey": "002080d76574ca56c620272d41870c6332f476dd407bf58344b261b1e28efee9c4a3",
      "scriptpubkey_asm": "OP_0 OP_PUSHBYTES_32 80d76574ca56c620272d41870c6332f476dd407bf58344b261b1e28efee9c4a3",
      "scriptpubkey_type": "v0_p2wsh",
      "scriptpubkey_address": "bc1qsrtk2ax22mrzqfedgxrsccej73md6srm7kp5fvnpk83galhfcj3sz24jq5",
      "value": 47931
    }
  ],
  "size": 206,
  "weight": 617,
  "fee": 1667,
  "status": {
    "confirmed": true,
    "block_height": 834464,
    "block_hash": "0000000000000000000177a0869a911a2b65c9bdcd5a8bcb02b68f305bee848e",
    "block_time": 1710308296
  },
  "hex": "010000000001011f26a0820990a26b464d058fac21f111c8530c2a8910593a4a753cdd9144e38e0000000000ffffffff0248810b00000000002251207e727bc625b9ced165a1c956354c76d4b767382130c75b5b307dde8e074bd8f23bbb00000000000022002080d76574ca56c620272d41870c6332f476dd407bf58344b261b1e28efee9c4a30141fcc1ff62ace9043afa62c8d0fa65501dfe81c116c68c1c5ca3924468c5939bad5bacc84b9259e7a6956d1de9d1411a5c1e72328d0d4b664e63c59f2f9b5aa6840100000000"
}