{
  "txid": "fb2338e8d3f4199d6a7c9e09120cdfe3ef0d63d3d61e9efd019f59b224f176b0",
  "version": 1,
  "locktime": 0,
  "vin": [
    {
      "txid": "55ccc3f1f45b65d2a74693a90c42e5502d140f3e14dc873c3ac4c69311fa886a",
      "vout": 0,
      "prevout": {
        "scriptpubkey": "512011401c3800f6af980e2a4b9a9d9723a3b7287c743013c59d9cf852405501979c",
        "scriptpubkey_asm": "OP_PUSHNUM_1 OP_PUSHBYTES_32 11401c3800f6af980e2a4b9a9d9723a3b7287c743013c59d9cf852405501979c",
        "scriptpubkey_type": "v1_p2tr",
        "scriptpubkey_address": "bc1pz9qpcwqq76hesr32fwdfm9er5wmjslr5xqfut8vulpfyq4gpj7wqdk87dt",
        "value": 2425
      },
      "scriptsig": "",
      "scriptsig_asm": "",
      "witness": [
        "f43dfa6ba8b35bf11fc25224b753ae712b9beee2e79013b2427e416c11e86816f56bff84ce33ab42b2933542c47a4b1104799bc817081f7973f4f1d55372042e83",
        "20be11f1d0580232188e877ef283eb5a1efd4e9e5290a2633605d666f59ad3fff2ac00630461746f6d03646d742ca16461726773a36b6d696e745f7469636b657263627463656e6f6e63651a000d71466474696d651a65eae39068",
        "c0be11f1d0580232188e877ef283eb5a1efd4e9e5290a2633605d666f59ad3fff2"
      ],
      "is_coinbase": false,
      "sequence": 4294967293
    }
  ],
  "vout": [
    {
      "scriptpubkey": "0014027bc455b49578636e080eabed6048b02ab3985f",
      "scriptpubkey_asm": "OP_0 OP_PUSHBYTES_20 027bc455b49578636e080eabed6048b02ab3985f",
      "scriptpubkey_type": "v0_p2wpkh",
      "scriptpubkey_address": "bc1qqfaug4d5j4uxxmsgp6476czgkq4t8xzl6u3zjv",
      "value": 1000
    }
  ],
  "size": 277,
  "weight": 523,
  "fee": 1425,
  "status": {
    "confirmed": true,
    "block_height": 834464,
    "block_hash": "0000000000000000000177a0869a911a2b65c9bdcd5a8bcb02b68f305bee848e",
    "block_time": 1710308296
  },
  "hex": "010000000001016a88fa1193c6c43a3c87dc143e0f142d50e5420ca99346a7d2655bf4f1c3cc550000000000fdffffff01e803000000000000160014027bc455b49578636e080eabed6048b02ab3985f0341f43dfa6ba8b35bf11fc25224b753ae712b9beee2e79013b2427e416c11e86816f56bff84ce33ab42b2933542c47a4b1104799bc817081f7973f4f1d55372042e835b20be11f1d0580232188e877ef283eb5a1efd4e9e5290a2633605d666f59ad3fff2ac00630461746f6d03646d742ca16461726773a36b6d696e745f7469636b657263627463656e6f6e63651a000d71466474696d651a65eae3906821c0be11f1d0580232188e877ef283eb5a1efd4e9e5290a2633605d666f59ad3fff200000000"
}