{
  "txid": "fb428bd36aae243e7eb0275147a9078b52086f291428d9f0dac84169b594cb4f",
  "version": 2,
  "locktime": 0,
  "vin": [
    {
      "txid": "fb55b79711be19258885a72f113efb9b44a9aeca5bb5483f090e38759544d15b",
      "vout": 0,
      "prevout": {
        "scriptpubkey": "a914b27ebe199d2c8aaea86a979fc9e6bc28c281ee4287",
        "scriptpubkey_asm": "OP_HASH160 OP_PUSHBYTES_20 b27ebe199d2c8aaea86a979fc9e6bc28c281ee42 OP_EQUAL",
        "scriptpubkey_type": "p2sh",
        "scriptpubkey_address": "3Hxp2vDQ2gbGV5FKApxovsi8uDFQViNizf",
        "value": 195974
      },
      "scriptsig": "160014e155f13a40ebcfdcf60ee298d0dab0dc4b7c7791",
      "scriptsig_asm": "OP_PUSHBYTES_22 0014e155f13a40ebcfdcf60ee298d0dab0dc4b7c7791",
      "witness": [
        "304402200c59b2021c5a369ed5869da1cabdfbebc75b5447a1e065b750c5d8213f30f436022073e7cebd0c4a65307f6ab0179269029ef2af5320f82eeee5f8ba25ba1539e90b01",
        "032ac3981c233b3fee79c7aa4b0d21efda1c9dc4ab7887f27caad575044f546be4"
      ],
      "is_coinbase": false,
      "sequence": 4294967293,
      "inner_redeemscript_asm": "OP_0 OP_PUSHBYTES_20 e155f13a40ebcfdcf60ee298d0dab0dc4b7c7791"
    }
  ],
  "vout": [
    {
      "scriptpubkey": "a914a2a061482ac9136f8753b4640fc5c72d5540c90b87",
      "scriptpubkey_asm": "OP_HASH160 OP_PUSHBYTES_20 a2a061482ac9136f8753b4640fc5c72d5540c90b OP_EQUAL",
      "scriptpubkey_type": "p2sh",
      "scriptpubkey_address": "3GWuX22fzAYTKHKUN5ghnoi1gpWGk9hxVc",
      "value": 177201
    },
    {
      "scriptpubkey": "a914850a407087873cff0b192106b85c41c75faa03da87",
      "scriptpubkey_asm": "OP_HASH160 OP_PUSHBYTES_20 850a407087873cff0b192106b85c41c75faa03da OP_EQUAL",
      "scriptpubkey_type": "p2sh",
      "scriptpubkey_address": "3DpU5MmteHTubJD3yYgk8jY98mzVdxSfpU",
      "value": 5000
    },
    {
      "scriptpubkey": "a914b27ebe199d2c8aaea86a979fc9e6bc28c281ee4287",
      "scriptpubkey_asm": "OP_HASH160 OP_PUSHBYTES_20 b27ebe199d2c8aaea86a979fc9e6bc28c281ee42 OP_EQUAL",
      "scriptpubkey_type": "p2sh",
      "scriptpubkey_address": "3Hxp2vDQ2gbGV5FKApxovsi8uDFQViNizf",
      "value": 8243
    }
  ],
  "size": 279,
  "weight": 789,
  "fee": 5530,
  "status": {
    "confirmed": true,
    "block_height": 834552,
    "block_hash": "00000000000000000001dd0468a70c94f619251d286585cff57aeb4bd9ede330",
    "block_time": 1710355598
  },
  "hex": "020000000001015bd1449575380e093f48b55bcaaea9449bfb3e112fa785882519be1197b755fb0000000017160014e155f13a40ebcfdcf60ee298d0dab0dc4b7c7791fdffffff0331b402000000000017a914a2a061482ac9136f8753b4640fc5c72d5540c90b87881300000000000017a914850a407087873cff0b192106b85c41c75faa03da87332000000000000017a914b27ebe199d2c8aaea86a979fc9e6bc28c281ee42870247304402200c59b2021c5a369ed5869da1cabdfbebc75b5447a1e065b750c5d8213f30f436022073e7cebd0c4a65307f6ab0179269029ef2af5320f82eeee5f8ba25ba1539e90b0121032ac3981c233b3fee79c7aa4b0d21efda1c9dc4ab7887f27caad575044f546be400000000"
}