{
  "txid": "fb6a93a024fee3c14806ea03c7dc494e53c49806ad9a2d27ed008aa63dfade7c",
  "version": 1,
  "locktime": 0,
  "vin": [
    {
      "txid": "d1aae6b51cecec35ed16e25e3287c910293b586bcab80e4524c2a1d1d707e2bb",
      "vout": 0,
      "prevout": {
        "scriptpubkey": "76a9147946be113acc5a5dabceca634aceb948b70e343988ac",
        "scriptpubkey_asm": "OP_DUP OP_HASH160 OP_PUSHBYTES_20 7946be113acc5a5dabceca634aceb948b70e3439 OP_EQUALVERIFY OP_CHECKSIG",
        "scriptpubkey_type": "p2pkh",
        "scriptpubkey_address": "1C4FWV2AemGTpPu8Ei9yLCvkeMUyBbTLDY",
        "value": 25139
      },
      "scriptsig": "47304402200ec676297a57afa15fcb8119226771b9cf6412338009a5c3b547c9708a20dcd40220112b39a7b9652ace6e8a7ba4d2cfcaa4c88b8656c87d7021d8365f886fdee73a012103337a7d427723b1b9b0fe966cf5bbce60129294f5adefe86472710b4fe4ce1bb1",
      "scriptsig_asm": "OP_PUSHBYTES_71 304402200ec676297a57afa15fcb8119226771b9cf6412338009a5c3b547c9708a20dcd40220112b39a7b9652ace6e8a7ba4d2cfcaa4c88b8656c87d7021d8365f886fdee73a01 OP_PUSHBYTES_33 03337a7d427723b1b9b0fe966cf5bbce60129294f5adefe86472710b4fe4ce1bb1",
      "is_coinbase": false,
      "sequence": 4294967295
    }
  ],
  "vout": [
    {
      "scriptpubkey": "00149948bdc615f9d485e130915d02669c93bd88063d",
      "scriptpubkey_asm": "OP_0 OP_PUSHBYTES_20 9948bdc615f9d485e130915d02669c93bd88063d",
      "scriptpubkey_type": "v0_p2wpkh",
      "scriptpubkey_address": "bc1qn9ytm3s4l82gtcfsj9wsye5ujw7csp3ah8vemf",
      "value": 21339
    }
  ],
  "size": 188,
  "weight": 752,
  "fee": 3800,
  "status": {
    "confirmed": true,
    "block_height": 834638,
    "block_hash": "000000000000000000025f742c626208ac87e0b7d15054abb4a19ca2d735a54e",
    "block_time": 1710405325
  },
  "hex": "0100000001bbe207d7d1a1c224450eb8ca6b583b2910c987325ee216ed35ecec1cb5e6aad1000000006a47304402200ec676297a57afa15fcb8119226771b9cf6412338009a5c3b547c9708a20dcd40220112b39a7b9652ace6e8a7ba4d2cfcaa4c88b8656c87d7021d8365f886fdee73a012103337a7d427723b1b9b0fe966cf5bbce60129294f5adefe86472710b4fe4ce1bb1ffffffff015b530000000000001600149948bdc615f9d485e130915d02669c93bd88063d00000000"
}