{
  "txid": "fb734ca210817bb37966ef62d61635f01e59b943838945708ce527906a28f7c8",
  "version": 2,
  "locktime": 0,
  "vin": [
    {
      "txid": "32a76a70b9fd923d295e5d4a9449d53f1477e2abc4fb3e522d9ce478df66823c",
      "vout": 1,
      "prevout": {
        "scriptpubkey": "0014e712aba11fd915dbbeb0e95f88063caa9b91c51c",
        "scriptpubkey_asm": "OP_0 OP_PUSHBYTES_20 e712aba11fd915dbbeb0e95f88063caa9b91c51c",
        "scriptpubkey_type": "v0_p2wpkh",
        "scriptpubkey_address": "bc1quuf2hgglmy2ah04sa90csp3u42der3guewergt",
        "value": 168416041
      },
      "scriptsig": "",
      "scriptsig_asm": "",
      "witness": [
        "3045022100be2d6c109a733466a443c05073ce7c27dae13b1810a977c21e196e382d19745d022013a09b96e24bcc54e40d27cd91c0bbbe5fe7e69ec1d8a817f8a04063019f7a6c01",
        "021ebd53a55dcf796203e2e96913532c979b006de69346be8cbc1b2c0fb5af1499"
      ],
      "is_coinbase": false,
      "sequence": 4294967295
    }
  ],
  "vout": [
    {
      "scriptpubkey": "0014c42d8fd762140ed31ccd359c985bd03f4c2afbd7",
      "scriptpubkey_asm": "OP_0 OP_PUSHBYTES_20 c42d8fd762140ed31ccd359c985bd03f4c2afbd7",
      "scriptpubkey_type": "v0_p2wpkh",
      "scriptpubkey_address": "bc1qcskcl4mzzs8dx8xdxkwfsk7s8axz477hk8wfkg",
      "value": 1392719
    },
    {
      "scriptpubkey": "001485755d5e7c0d5f654388982af445c7a3618141e3",
      "scriptpubkey_asm": "OP_0 OP_PUSHBYTES_20 85755d5e7c0d5f654388982af445c7a3618141e3",
      "scriptpubkey_type": "v0_p2wpkh",
      "scriptpubkey_address": "bc1qs4646hnup40k2sugnq40g3w85dsczs0r66que6",
      "value": 167021225
    }
  ],
  "size": 223,
  "weight": 562,
  "fee": 2097,
  "status": {
    "confirmed": true,
    "block_height": 834638,
    "block_hash": "000000000000000000025f742c626208ac87e0b7d15054abb4a19ca2d735a54e",
    "block_time": 1710405325
  },
  "hex": "020000000001013c8266df78e49c2d523efbc4abe277143fd549944a5d5e293d92fdb9706aa7320100000000ffffffff024f40150000000000160014c42d8fd762140ed31ccd359c985bd03f4c2afbd7a98af4090000000016001485755d5e7c0d5f654388982af445c7a3618141e302483045022100be2d6c109a733466a443c05073ce7c27dae13b1810a977c21e196e382d19745d022013a09b96e24bcc54e40d27cd91c0bbbe5fe7e69ec1d8a817f8a04063019f7a6c0121021ebd53a55dcf796203e2e96913532c979b006de69346be8cbc1b2c0fb5af149900000000"
}