{
  "txid": "fb7ad2d0e085b771138355547e82b771482f952957a14f38f8d5f5eadc3c0d89",
  "version": 2,
  "locktime": 0,
  "vin": [
    {
      "txid": "e1e28bdc4aa0e93aeca34b25aef7b299fe9149c019c819fda211b14c73fda2d9",
      "vout": 1,
      "prevout": {
        "scriptpubkey": "0014c8096bcd95b1bae34237d1d30544641cca8b58c7",
        "scriptpubkey_asm": "OP_0 OP_PUSHBYTES_20 c8096bcd95b1bae34237d1d30544641cca8b58c7",
        "scriptpubkey_type": "v0_p2wpkh",
        "scriptpubkey_address": "bc1qeqykhnv4kxawxs3h68fs23ryrn9gkkx8cn6f5r",
        "value": 37448
      },
      "scriptsig": "",
      "scriptsig_asm": "",
      "witness": [
        "3045022100df9b4ad65ff5b941f872945b570ef4636540be9dd67c8f726b094a2cbf97b433022034389097d947172dfb71044d46b864e6318cc43fcf33c95754dd18577f60a72901",
        "03409605a471e47848abbb4032ea5cadfc6a7c42950d5034aaf9e62fd409eb041e"
      ],
      "is_coinbase": false,
      "sequence": 4294967295
    }
  ],
  "vout": [
    {
      "scriptpubkey": "51208968ba754990d8162d10d7b520c3e022dd19f350c4bff2abe67eec9490d24c24",
      "scriptpubkey_asm": "OP_PUSHNUM_1 OP_PUSHBYTES_32 8968ba754990d8162d10d7b520c3e022dd19f350c4bff2abe67eec9490d24c24",
      "scriptpubkey_type": "v1_p2tr",
      "scriptpubkey_address": "bc1p395t5a2fjrvpvtgs676jpslqytw3nu6scjll92lx0mkffyxjfsjq42e6fh",
      "value": 4000
    },
    {
      "scriptpubkey": "0014c8096bcd95b1bae34237d1d30544641cca8b58c7",
      "scriptpubkey_asm": "OP_0 OP_PUSHBYTES_20 c8096bcd95b1bae34237d1d30544641cca8b58c7",
      "scriptpubkey_type": "v0_p2wpkh",
      "scriptpubkey_address": "bc1qeqykhnv4kxawxs3h68fs23ryrn9gkkx8cn6f5r",
      "value": 31153
    }
  ],
  "size": 235,
  "weight": 610,
  "fee": 2295,
  "status": {
    "confirmed": true,
    "block_height": 834460,
    "block_hash": "00000000000000000000484a79b643b2524bbce82e5d8a442013fa5b8905ed98",
    "block_time": 1710307468
  },
  "hex": "02000000000101d9a2fd734cb111a2fd19c819c04991fe99b2f7ae254ba3ec3ae9a04adc8be2e10100000000ffffffff02a00f0000000000002251208968ba754990d8162d10d7b520c3e022dd19f350c4bff2abe67eec9490d24c24b179000000000000160014c8096bcd95b1bae34237d1d30544641cca8b58c702483045022100df9b4ad65ff5b941f872945b570ef4636540be9dd67c8f726b094a2cbf97b433022034389097d947172dfb71044d46b864e6318cc43fcf33c95754dd18577f60a729012103409605a471e47848abbb4032ea5cadfc6a7c42950d5034aaf9e62fd409eb041e00000000"
}