{
  "txid": "fb8d3554101b708a750b58324997aa98d73c08886517308186af962cacee91dc",
  "version": 2,
  "locktime": 0,
  "vin": [
    {
      "txid": "40ddcc5b574e5f0437234c9d619bb19f80d0e51713ae71c44a6e1111fb155c41",
      "vout": 0,
      "prevout": {
        "scriptpubkey": "a9143d0f9e2c66e15a69cf260bc7d49e904ad1779b0187",
        "scriptpubkey_asm": "OP_HASH160 OP_PUSHBYTES_20 3d0f9e2c66e15a69cf260bc7d49e904ad1779b01 OP_EQUAL",
        "scriptpubkey_type": "p2sh",
        "scriptpubkey_address": "37FsrPneFETgokAAStUfkVzy71cAjm3axa",
        "value": 253526
      },
      "scriptsig": "1600141608f5cce19e5c21afa2a917a59303a41b4f701b",
      "scriptsig_asm": "OP_PUSHBYTES_22 00141608f5cce19e5c21afa2a917a59303a41b4f701b",
      "witness": [
        "3045022100f45ac9f40ae42ec6e24d74ae5c27da6d5eac285c7467373d6869d56f6fe18d2402205c978c4be350a23a05c91802617cc02a7acb8eb1aab7e69b996da92fd1be7aef01",
        "020a79541693610d9e84fa71f49dfc391ec653ae3197c544d22d485c78648806ce"
      ],
      "is_coinbase": false,
      "sequence": 0,
      "inner_redeemscript_asm": "OP_0 OP_PUSHBYTES_20 1608f5cce19e5c21afa2a917a59303a41b4f701b"
    }
  ],
  "vout": [
    {
      "scriptpubkey": "00144ae0684661b18fa8ef5e1dcbb62300036c9de22f",
      "scriptpubkey_asm": "OP_0 OP_PUSHBYTES_20 4ae0684661b18fa8ef5e1dcbb62300036c9de22f",
      "scriptpubkey_type": "v0_p2wpkh",
      "scriptpubkey_address": "bc1qftsxs3npkx863m67rh9mvgcqqdkfmc30u50fza",
      "value": 251150
    }
  ],
  "size": 215,
  "weight": 530,
  "fee": 2376,
  "status": {
    "confirmed": true,
    "block_height": 834638,
    "block_hash": "000000000000000000025f742c626208ac87e0b7d15054abb4a19ca2d735a54e",
    "block_time": 1710405325
  },
  "hex": "02000000000101415c15fb11116e4ac471ae1317e5d0809fb19b619d4c2337045f4e575bccdd4000000000171600141608f5cce19e5c21afa2a917a59303a41b4f701b00000000010ed50300000000001600144ae0684661b18fa8ef5e1dcbb62300036c9de22f02483045022100f45ac9f40ae42ec6e24d74ae5c27da6d5eac285c7467373d6869d56f6fe18d2402205c978c4be350a23a05c91802617cc02a7acb8eb1aab7e69b996da92fd1be7aef0121020a79541693610d9e84fa71f49dfc391ec653ae3197c544d22d485c78648806ce00000000"
}