{
  "txid": "fbbf422016f1e9ecc33873c5981fb28caa39aff1a1801a0affbcb5412ea1c0f7",
  "version": 1,
  "locktime": 0,
  "vin": [
    {
      "txid": "6c1cf298fd93fd4f684412b2e2e54b936a1dfcd34e92679b9436e0ea2952c468",
      "vout": 9,
      "prevout": {
        "scriptpubkey": "00142a8aa34eedbe5c172a31247de419bc90b82c4302",
        "scriptpubkey_asm": "OP_0 OP_PUSHBYTES_20 2a8aa34eedbe5c172a31247de419bc90b82c4302",
        "scriptpubkey_type": "v0_p2wpkh",
        "scriptpubkey_address": "bc1q9292xnhdhewpw233y377gxdujzuzcsczvjncy8",
        "value": 1500000
      },
      "scriptsig": "",
      "scriptsig_asm": "",
      "witness": [
        "3045022100c9288d53bb89adf0073e487ba125ad7aceafa437f280e5f6d50f3923eec6b09302201df94c33feeb7587eb9010ed368efc404aab7f855c1e489f479baa5980e0251201",
        "029efef073f66085ec5bf60122d54af05a3ff27c9a6c4f62b29e02bf6acb0f8ea1"
      ],
      "is_coinbase": false,
      "sequence": 4294967293
    }
  ],
  "vout": [
    {
      "scriptpubkey": "0014d7b3f4793c4cd34ee75e8c445e9e12dbce2f587d",
      "scriptpubkey_asm": "OP_0 OP_PUSHBYTES_20 d7b3f4793c4cd34ee75e8c445e9e12dbce2f587d",
      "scriptpubkey_type": "v0_p2wpkh",
      "scriptpubkey_address": "bc1q67elg7fufnf5ae6733z9a8sjm08z7kra2899dn",
      "value": 1498790
    }
  ],
  "size": 192,
  "weight": 438,
  "fee": 1210,
  "status": {
    "confirmed": true,
    "block_height": 834464,
    "block_hash": "0000000000000000000177a0869a911a2b65c9bdcd5a8bcb02b68f305bee848e",
    "block_time": 1710308296
  },
  "hex": "0100000000010168c45229eae036949b67924ed3fc1d6a934be5e2b21244684ffd93fd98f21c6c0900000000fdffffff01a6de160000000000160014d7b3f4793c4cd34ee75e8c445e9e12dbce2f587d02483045022100c9288d53bb89adf0073e487ba125ad7aceafa437f280e5f6d50f3923eec6b09302201df94c33feeb7587eb9010ed368efc404aab7f855c1e489f479baa5980e025120121029efef073f66085ec5bf60122d54af05a3ff27c9a6c4f62b29e02bf6acb0f8ea100000000"
}