{
  "txid": "fbc2cca7b34ea50cf03fc905b471ec7027fb445e0f457436a9ebe2a5b5bc197d",
  "version": 2,
  "locktime": 0,
  "vin": [
    {
      "txid": "6066ed4dea29286f0112d410be7b0e4912166b00d4cbce40fc10a6e3bc1c2803",
      "vout": 4,
      "prevout": {
        "scriptpubkey": "5120cf88ba6180c77171969641834199b7eb47a777a7b853b67d6ae8dfbeb2ac77b1",
        "scriptpubkey_asm": "OP_PUSHNUM_1 OP_PUSHBYTES_32 cf88ba6180c77171969641834199b7eb47a777a7b853b67d6ae8dfbeb2ac77b1",
        "scriptpubkey_type": "v1_p2tr",
        "scriptpubkey_address": "bc1pe7yt5cvqcachr95kgxp5rxdhadr6waa8hpfmvlt2ar0mav4vw7csu5ngg7",
        "value": 600
      },
      "scriptsig": "",
      "scriptsig_asm": "",
      "witness": [
        "db3aadc59b787cd3c0ffdb5904aeb4956141f4711c065d13c7ae8a04f9fd99acebaedf469a8721c74b844f9577fb761ddb9622160f8508b797c02b8d3c40910801"
      ],
      "is_coinbase": false,
      "sequence": 4294967295
    },
    {
      "txid": "96d6ac4a0e6a82169831095913175ae58d48cc17a17bcc8abc7d911769050e11",
      "vout": 4,
      "prevout": {
        "scriptpubkey": "5120cf88ba6180c77171969641834199b7eb47a777a7b853b67d6ae8dfbeb2ac77b1",
        "scriptpubkey_asm": "OP_PUSHNUM_1 OP_PUSHBYTES_32 cf88ba6180c77171969641834199b7eb47a777a7b853b67d6ae8dfbeb2ac77b1",
        "scriptpubkey_type": "v1_p2tr",
        "scriptpubkey_address": "bc1pe7yt5cvqcachr95kgxp5rxdhadr6waa8hpfmvlt2ar0mav4vw7csu5ngg7",
        "value": 600
      },
      "scriptsig": "",
      "scriptsig_asm": "",
      "witness": [
        "825544d68025fe7c7046d00d9a8f46d93fb5000c9e27a0c376a1b3c90e945334d08e54ff4c6ab4a7911f8ef75a08b708f8453ec87c5922a14118794c8fd67c8701"
      ],
      "is_coinbase": false,
      "sequence": 4294967295
    },
    {
      "txid": "749713015ca5f0772b855c5068bf87b5cdc33a66c4084ccf8278d25114884155",
      "vout": 1,
      "prevout": {
        "scriptpubkey": "512026007c65981b50b8ccd2b903132d6d69735482d0225d3ee93b1c05602e2c8530",
        "scriptpubkey_asm": "OP_PUSHNUM_1 OP_PUSHBYTES_32 26007c65981b50b8ccd2b903132d6d69735482d0225d3ee93b1c05602e2c8530",
        "scriptpubkey_type": "v1_p2tr",
        "scriptpubkey_address": "bc1pycq8cevcrdgt3nxjhyp3xttdd9e4fqksyfwna6fmrszkqt3vs5cq76nzj0",
        "value": 546
      },
      "scriptsig": "",
      "scriptsig_asm": "",
      "witness": [
        "1052a592e93ef7e6fd75c4245b872d88df252ac21354560ceeeed298ff889606fcff30c6748fffd2feaa2782a19e14da8a98b2499384ad093275f5a78399c56283"
      ],
      "is_coinbase": false,
      "sequence": 4294967295
    },
    {
      "txid": "6066ed4dea29286f0112d410be7b0e4912166b00d4cbce40fc10a6e3bc1c2803",
      "vout": 5,
      "prevout": {
        "scriptpubkey": "5120cf88ba6180c77171969641834199b7eb47a777a7b853b67d6ae8dfbeb2ac77b1",
        "scriptpubkey_asm": "OP_PUSHNUM_1 OP_PUSHBYTES_32 cf88ba6180c77171969641834199b7eb47a777a7b853b67d6ae8dfbeb2ac77b1",
        "scriptpubkey_type": "v1_p2tr",
        "scriptpubkey_address": "bc1pe7yt5cvqcachr95kgxp5rxdhadr6waa8hpfmvlt2ar0mav4vw7csu5ngg7",
        "value": 17895368
      },
      "scriptsig": "",
      "scriptsig_asm": "",
      "witness": [
        "1dba9b189aa60d5b01bb193c978fc6374b80aaca6aeb42e77690a68f01a38ca0ac4939874192da0a4945a052465551e371535dc2b4d0ba4ef75681b8a8fc90d901"
      ],
      "is_coinbase": false,
      "sequence": 4294967295
    }
  ],
  "vout": [
    {
      "scriptpubkey": "5120cf88ba6180c77171969641834199b7eb47a777a7b853b67d6ae8dfbeb2ac77b1",
      "scriptpubkey_asm": "OP_PUSHNUM_1 OP_PUSHBYTES_32 cf88ba6180c77171969641834199b7eb47a777a7b853b67d6ae8dfbeb2ac77b1",
      "scriptpubkey_type": "v1_p2tr",
      "scriptpubkey_address": "bc1pe7yt5cvqcachr95kgxp5rxdhadr6waa8hpfmvlt2ar0mav4vw7csu5ngg7",
      "value": 1200
    },
    {
      "scriptpubkey": "5120cf88ba6180c77171969641834199b7eb47a777a7b853b67d6ae8dfbeb2ac77b1",
      "scriptpubkey_asm": "OP_PUSHNUM_1 OP_PUSHBYTES_32 cf88ba6180c77171969641834199b7eb47a777a7b853b67d6ae8dfbeb2ac77b1",
      "scriptpubkey_type": "v1_p2tr",
      "scriptpubkey_address": "bc1pe7yt5cvqcachr95kgxp5rxdhadr6waa8hpfmvlt2ar0mav4vw7csu5ngg7",
      "value": 546
    },
    {
      "scriptpubkey": "512026007c65981b50b8ccd2b903132d6d69735482d0225d3ee93b1c05602e2c8530",
      "scriptpubkey_asm": "OP_PUSHNUM_1 OP_PUSHBYTES_32 26007c65981b50b8ccd2b903132d6d69735482d0225d3ee93b1c05602e2c8530",
      "scriptpubkey_type": "v1_p2tr",
      "scriptpubkey_address": "bc1pycq8cevcrdgt3nxjhyp3xttdd9e4fqksyfwna6fmrszkqt3vs5cq76nzj0",
      "value": 267000
    },
    {
      "scriptpubkey": "5120cf88ba6180c77171969641834199b7eb47a777a7b853b67d6ae8dfbeb2ac77b1",
      "scriptpubkey_asm": "OP_PUSHNUM_1 OP_PUSHBYTES_32 cf88ba6180c77171969641834199b7eb47a777a7b853b67d6ae8dfbeb2ac77b1",
      "scriptpubkey_type": "v1_p2tr",
      "scriptpubkey_address": "bc1pe7yt5cvqcachr95kgxp5rxdhadr6waa8hpfmvlt2ar0mav4vw7csu5ngg7",
      "value": 600
    },
    {
      "scriptpubkey": "5120cf88ba6180c77171969641834199b7eb47a777a7b853b67d6ae8dfbeb2ac77b1",
      "scriptpubkey_asm": "OP_PUSHNUM_1 OP_PUSHBYTES_32 cf88ba6180c77171969641834199b7eb47a777a7b853b67d6ae8dfbeb2ac77b1",
      "scriptpubkey_type": "v1_p2tr",
      "scriptpubkey_address": "bc1pe7yt5cvqcachr95kgxp5rxdhadr6waa8hpfmvlt2ar0mav4vw7csu5ngg7",
      "value": 600
    },
    {
      "scriptpubkey": "5120cf88ba6180c77171969641834199b7eb47a777a7b853b67d6ae8dfbeb2ac77b1",
      "scriptpubkey_asm": "OP_PUSHNUM_1 OP_PUSHBYTES_32 cf88ba6180c77171969641834199b7eb47a777a7b853b67d6ae8dfbeb2ac77b1",
      "scriptpubkey_type": "v1_p2tr",
      "scriptpubkey_address": "bc1pe7yt5cvqcachr95kgxp5rxdhadr6waa8hpfmvlt2ar0mav4vw7csu5ngg7",
      "value": 17618960
    }
  ],
  "size": 702,
  "weight": 1998,
  "fee": 8208,
  "status": {
    "confirmed": true,
    "block_height": 834638,
    "block_hash": "000000000000000000025f742c626208ac87e0b7d15054abb4a19ca2d735a54e",
    "block_time": 1710405325
  },
  "hex": "0200000000010403281cbce3a610fc40cecbd4006b1612490e7bbe10d412016f2829ea4ded66600400000000ffffffff110e056917917dbc8acc7ba117cc488de55a17135909319816826a0e4aacd6960400000000ffffffff5541881451d27882cf4c08c4663ac3cdb587bf68505c852b77f0a55c011397740100000000ffffffff03281cbce3a610fc40cecbd4006b1612490e7bbe10d412016f2829ea4ded66600500000000ffffffff06b004000000000000225120cf88ba6180c77171969641834199b7eb47a777a7b853b67d6ae8dfbeb2ac77b12202000000000000225120cf88ba6180c77171969641834199b7eb47a777a7b853b67d6ae8dfbeb2ac77b1f81204000000000022512026007c65981b50b8ccd2b903132d6d69735482d0225d3ee93b1c05602e2c85305802000000000000225120cf88ba6180c77171969641834199b7eb47a777a7b853b67d6ae8dfbeb2ac77b15802000000000000225120cf88ba6180c77171969641834199b7eb47a777a7b853b67d6ae8dfbeb2ac77b110d80c0100000000225120cf88ba6180c77171969641834199b7eb47a777a7b853b67d6ae8dfbeb2ac77b10141db3aadc59b787cd3c0ffdb5904aeb4956141f4711c065d13c7ae8a04f9fd99acebaedf469a8721c74b844f9577fb761ddb9622160f8508b797c02b8d3c409108010141825544d68025fe7c7046d00d9a8f46d93fb5000c9e27a0c376a1b3c90e945334d08e54ff4c6ab4a7911f8ef75a08b708f8453ec87c5922a14118794c8fd67c870101411052a592e93ef7e6fd75c4245b872d88df252ac21354560ceeeed298ff889606fcff30c6748fffd2feaa2782a19e14da8a98b2499384ad093275f5a78399c5628301411dba9b189aa60d5b01bb193c978fc6374b80aaca6aeb42e77690a68f01a38ca0ac4939874192da0a4945a052465551e371535dc2b4d0ba4ef75681b8a8fc90d90100000000"
}