{
  "txid": "fbcca1ef33984eaad190fb0f481ac0f8c9d2f0baf7718794ef596f74abef2837",
  "version": 1,
  "locktime": 0,
  "vin": [
    {
      "txid": "3b19f6aff963d6fbb82d4a5d98743ec5cfad1a2d515ea4bdb8b69d817db01730",
      "vout": 1,
      "prevout": {
        "scriptpubkey": "76a9144cf014394e1aa81ca0317ad24c3a886040e80da788ac",
        "scriptpubkey_asm": "OP_DUP OP_HASH160 OP_PUSHBYTES_20 4cf014394e1aa81ca0317ad24c3a886040e80da7 OP_EQUALVERIFY OP_CHECKSIG",
        "scriptpubkey_type": "p2pkh",
        "scriptpubkey_address": "181oxZWHCzkmYjewS3HyUtnpFzz8ZBLWnR",
        "value": 3128
      },
      "scriptsig": "473044022100a7e3beccc1ba05981d5d02b9a387fca7dd352e26249b6b98601b90b641c93b1d021f72ace36567e8eeb09ffedda0708efe61a6d29cc928d6dca4cd7ec2540d3025012102e57d639eb8ad9feeda51d951c33feed17c2ad7946c3a7223513fb912a5b2363b",
      "scriptsig_asm": "OP_PUSHBYTES_71 3044022100a7e3beccc1ba05981d5d02b9a387fca7dd352e26249b6b98601b90b641c93b1d021f72ace36567e8eeb09ffedda0708efe61a6d29cc928d6dca4cd7ec2540d302501 OP_PUSHBYTES_33 02e57d639eb8ad9feeda51d951c33feed17c2ad7946c3a7223513fb912a5b2363b",
      "is_coinbase": false,
      "sequence": 4294967295
    },
    {
      "txid": "e3f6ff2090b76bc5d53411af139ed23cd71eb29f05b32ae9a6de54358174555c",
      "vout": 1,
      "prevout": {
        "scriptpubkey": "76a9142afb87ccbb8ed922d0977e148e8514814dc3183f88ac",
        "scriptpubkey_asm": "OP_DUP OP_HASH160 OP_PUSHBYTES_20 2afb87ccbb8ed922d0977e148e8514814dc3183f OP_EQUALVERIFY OP_CHECKSIG",
        "scriptpubkey_type": "p2pkh",
        "scriptpubkey_address": "14vGhhcLqNn6oBciX5DocEgPkoowdKMysc",
        "value": 3133
      },
      "scriptsig": "483045022100beb16bedc98185a15ef1f93d3b515df129ccda6c263044c370041271089ea78a022043fd413870bc7b7d4ade54bd546fbfba9f07e57e31e107a1997078cb51f2b14e0121036d03d7a33160109815bb0604938f923e7366abe955618408282910e3e85ba73a",
      "scriptsig_asm": "OP_PUSHBYTES_72 3045022100beb16bedc98185a15ef1f93d3b515df129ccda6c263044c370041271089ea78a022043fd413870bc7b7d4ade54bd546fbfba9f07e57e31e107a1997078cb51f2b14e01 OP_PUSHBYTES_33 036d03d7a33160109815bb0604938f923e7366abe955618408282910e3e85ba73a",
      "is_coinbase": false,
      "sequence": 4294967295
    },
    {
      "txid": "391005cfddf735517a8113b953c12787240a08856f91d73a894bf486ad3a5a03",
      "vout": 1,
      "prevout": {
        "scriptpubkey": "76a9147eecde002a74c8a89149fed0b04e0a35248ee00a88ac",
        "scriptpubkey_asm": "OP_DUP OP_HASH160 OP_PUSHBYTES_20 7eecde002a74c8a89149fed0b04e0a35248ee00a OP_EQUALVERIFY OP_CHECKSIG",
        "scriptpubkey_type": "p2pkh",
        "scriptpubkey_address": "1Ca7tzWUgUaYJGofZFm5MWzdtMAonMcbLS",
        "value": 3315
      },
      "scriptsig": "483045022100dda9049ed905e44b940f06b493781671a439a60fa603259a8aa5af065288c1b402207087c5b04f55a9694dd903bda93b1a13f76fabc63b0af6ad4744dea52aba296c01210279325550f4beccda7020d3256983bc9fdeba86ed9f25039cb493d1075a987c15",
      "scriptsig_asm": "OP_PUSHBYTES_72 3045022100dda9049ed905e44b940f06b493781671a439a60fa603259a8aa5af065288c1b402207087c5b04f55a9694dd903bda93b1a13f76fabc63b0af6ad4744dea52aba296c01 OP_PUSHBYTES_33 0279325550f4beccda7020d3256983bc9fdeba86ed9f25039cb493d1075a987c15",
      "is_coinbase": false,
      "sequence": 4294967295
    },
    {
      "txid": "8a3e6763192f1b9286c65fc18aed2d52c9ace16a38c7d4a913115a62937089ef",
      "vout": 1,
      "prevout": {
        "scriptpubkey": "76a9140ba984acd014db63c17b03d172536f088bd41c6088ac",
        "scriptpubkey_asm": "OP_DUP OP_HASH160 OP_PUSHBYTES_20 0ba984acd014db63c17b03d172536f088bd41c60 OP_EQUALVERIFY OP_CHECKSIG",
        "scriptpubkey_type": "p2pkh",
        "scriptpubkey_address": "124fWSqXh7m6vtXPR9a57cWayoQ3g8vTy9",
        "value": 4735
      },
      "scriptsig": "483045022100e295f9aedc4673d0abefc35ec5b9387a46453be1278e132045d7aeeb37474d11022039ae4e3070de9cebef749c8afa2cc6e31e055de7ec0c1ebcbff813d0ca9c5d9e012102a8d601a213b8ea896cc5c95664f0f2f06fa6d27de08f2da43a03391b6125f49e",
      "scriptsig_asm": "OP_PUSHBYTES_72 3045022100e295f9aedc4673d0abefc35ec5b9387a46453be1278e132045d7aeeb37474d11022039ae4e3070de9cebef749c8afa2cc6e31e055de7ec0c1ebcbff813d0ca9c5d9e01 OP_PUSHBYTES_33 02a8d601a213b8ea896cc5c95664f0f2f06fa6d27de08f2da43a03391b6125f49e",
      "is_coinbase": false,
      "sequence": 4294967295
    }
  ],
  "vout": [
    {
      "scriptpubkey": "76a914b43d3b50f4afd4ba54760718d0c44dfea627caf488ac",
      "scriptpubkey_asm": "OP_DUP OP_HASH160 OP_PUSHBYTES_20 b43d3b50f4afd4ba54760718d0c44dfea627caf4 OP_EQUALVERIFY OP_CHECKSIG",
      "scriptpubkey_type": "p2pkh",
      "scriptpubkey_address": "1HS1yz1LKc4RcGkbm8NabFDgkwZcwimSZp",
      "value": 7462
    }
  ],
  "size": 635,
  "weight": 2540,
  "fee": 6849,
  "status": {
    "confirmed": true,
    "block_height": 834464,
    "block_hash": "0000000000000000000177a0869a911a2b65c9bdcd5a8bcb02b68f305bee848e",
    "block_time": 1710308296
  },
  "hex": "01000000043017b07d819db6b8bda45e512d1aadcfc53e74985d4a2db8fbd663f9aff6193b010000006a473044022100a7e3beccc1ba05981d5d02b9a387fca7dd352e26249b6b98601b90b641c93b1d021f72ace36567e8eeb09ffedda0708efe61a6d29cc928d6dca4cd7ec2540d3025012102e57d639eb8ad9feeda51d951c33feed17c2ad7946c3a7223513fb912a5b2363bffffffff5c5574813554dea6e92ab3059fb21ed73cd29e13af1134d5c56bb79020fff6e3010000006b483045022100beb16bedc98185a15ef1f93d3b515df129ccda6c263044c370041271089ea78a022043fd413870bc7b7d4ade54bd546fbfba9f07e57e31e107a1997078cb51f2b14e0121036d03d7a33160109815bb0604938f923e7366abe955618408282910e3e85ba73affffffff035a3aad86f44b893ad7916f85080a248727c153b913817a5135f7ddcf051039010000006b483045022100dda9049ed905e44b940f06b493781671a439a60fa603259a8aa5af065288c1b402207087c5b04f55a9694dd903bda93b1a13f76fabc63b0af6ad4744dea52aba296c01210279325550f4beccda7020d3256983bc9fdeba86ed9f25039cb493d1075a987c15ffffffffef897093625a1113a9d4c7386ae1acc9522ded8ac15fc686921b2f1963673e8a010000006b483045022100e295f9aedc4673d0abefc35ec5b9387a46453be1278e132045d7aeeb37474d11022039ae4e3070de9cebef749c8afa2cc6e31e055de7ec0c1ebcbff813d0ca9c5d9e012102a8d601a213b8ea896cc5c95664f0f2f06fa6d27de08f2da43a03391b6125f49effffffff01261d0000000000001976a914b43d3b50f4afd4ba54760718d0c44dfea627caf488ac00000000"
}