{
  "txid": "fbcd48cff010e1755fe69a21337550dd5b58664b63f67a826a3965cbb802d999",
  "version": 2,
  "locktime": 0,
  "vin": [
    {
      "txid": "8a760bf989af434181ff50efe735a1809bc15c33af91d0d759325688a40027cb",
      "vout": 26,
      "prevout": {
        "scriptpubkey": "0014008b50923db6429b722a097506b3d9bad8b3b067",
        "scriptpubkey_asm": "OP_0 OP_PUSHBYTES_20 008b50923db6429b722a097506b3d9bad8b3b067",
        "scriptpubkey_type": "v0_p2wpkh",
        "scriptpubkey_address": "bc1qqz94py3akepfku32p96sdv7ehtvt8vr8rpqu3r",
        "value": 41045
      },
      "scriptsig": "",
      "scriptsig_asm": "",
      "witness": [
        "304402203e260857a7fa49960c7e279547fb1b41c5c196eb1c571a5dbe0162a600f3e25202205dac2065d191b876f199495430fdf464c5021071d7af8cc610e64c0797db1cab01",
        "0203f440bf716b5b956ac6b9aabe923c610657a66abb8fc60620cb3f3c91e77b34"
      ],
      "is_coinbase": false,
      "sequence": 4294967295
    },
    {
      "txid": "71a62c366831b06ed3c19a3865256e7d4d5bd54f5f649b120c5a7eca62649dce",
      "vout": 33,
      "prevout": {
        "scriptpubkey": "001426ed31c96455210641deaad820c149edf86edbc4",
        "scriptpubkey_asm": "OP_0 OP_PUSHBYTES_20 26ed31c96455210641deaad820c149edf86edbc4",
        "scriptpubkey_type": "v0_p2wpkh",
        "scriptpubkey_address": "bc1qymknrjty25ssvsw74tvzps2fahuxak7y47aues",
        "value": 259537
      },
      "scriptsig": "",
      "scriptsig_asm": "",
      "witness": [
        "30450221009de9378f902b232aec7bec8f3c8b0e3fc825a6b1dcc5dcd38afad46287a5a613022025763a598cb796b8c8920c81d49211830bc2e49237584a68b2238702ee126d4f01",
        "034919e474e1f26342521383a321d24146fcaa447562cbacd7c6ec55342b76ee73"
      ],
      "is_coinbase": false,
      "sequence": 4294967295
    },
    {
      "txid": "f4483a21e81c3cad07bc153565d5e79afbddaa155c3851968617e289b23e756f",
      "vout": 100,
      "prevout": {
        "scriptpubkey": "0014a04cf87a97eb948a6cb7eda6a3c1071c3f892a5a",
        "scriptpubkey_asm": "OP_0 OP_PUSHBYTES_20 a04cf87a97eb948a6cb7eda6a3c1071c3f892a5a",
        "scriptpubkey_type": "v0_p2wpkh",
        "scriptpubkey_address": "bc1q5px0s75haw2g5m9hakn28sg8rslcj2j6y79awn",
        "value": 15701
      },
      "scriptsig": "",
      "scriptsig_asm": "",
      "witness": [
        "304502210082c53172969aab89b141ba9ae25ae28d91fdd4f4f0a4b48f84e6899a2e187ffe022016dfddab6cf08da0d5036e3eee29e1d61dc2785cfb01ee1db9c8be52cc61ab1301",
        "03097d7cddc08ed90ebbccc319551ccac952e079bef9c2bf6c2372b9f04024a3ca"
      ],
      "is_coinbase": false,
      "sequence": 4294967295
    },
    {
      "txid": "e0f4c5387f7a15ffa47a105ba5764eaaaeb40cc5003b9df03ce6fc6703b3b69d",
      "vout": 24,
      "prevout": {
        "scriptpubkey": "0014a2eda995f13e57e5d9c1c42d3bd3ae78629c99a5",
        "scriptpubkey_asm": "OP_0 OP_PUSHBYTES_20 a2eda995f13e57e5d9c1c42d3bd3ae78629c99a5",
        "scriptpubkey_type": "v0_p2wpkh",
        "scriptpubkey_address": "bc1q5tk6n9038et7tkwpcsknh5aw0p3fexd9kctp4w",
        "value": 136428
      },
      "scriptsig": "",
      "scriptsig_asm": "",
      "witness": [
        "304402205ad74aa3939f51ee6881e6dae1fbe40845ba50f1361377e1eece3b2edcc53ad60220220c5c5a69ac3a5d7999ba5d9d14789c7e0a617f67cd5770fad1c6df7c8498f701",
        "036d00500381942e36aca3bf6e910301a8067cc192cf7e6e3d1d30e19605f2d3cd"
      ],
      "is_coinbase": false,
      "sequence": 4294967295
    },
    {
      "txid": "8211f4cbd389ed2b12d92bcc1d7380062a488e23bd18696bd475565e08816117",
      "vout": 19,
      "prevout": {
        "scriptpubkey": "0014a2eda995f13e57e5d9c1c42d3bd3ae78629c99a5",
        "scriptpubkey_asm": "OP_0 OP_PUSHBYTES_20 a2eda995f13e57e5d9c1c42d3bd3ae78629c99a5",
        "scriptpubkey_type": "v0_p2wpkh",
        "scriptpubkey_address": "bc1q5tk6n9038et7tkwpcsknh5aw0p3fexd9kctp4w",
        "value": 219673
      },
      "scriptsig": "",
      "scriptsig_asm": "",
      "witness": [
        "30440220687db78b882bd68f2924d4c20edec33ae34f34f04f7f67996b8198e17a7ab6f002204c1ff6d2926f10435a48127213263ffe88c4c496759e2d8c112b458853474e5801",
        "036d00500381942e36aca3bf6e910301a8067cc192cf7e6e3d1d30e19605f2d3cd"
      ],
      "is_coinbase": false,
      "sequence": 4294967295
    },
    {
      "txid": "cbd3e4ba7cdee5b67ffe81a80c698177ce0a3624250d523b1e93e5f01e044e19",
      "vout": 27,
      "prevout": {
        "scriptpubkey": "0014a2eda995f13e57e5d9c1c42d3bd3ae78629c99a5",
        "scriptpubkey_asm": "OP_0 OP_PUSHBYTES_20 a2eda995f13e57e5d9c1c42d3bd3ae78629c99a5",
        "scriptpubkey_type": "v0_p2wpkh",
        "scriptpubkey_address": "bc1q5tk6n9038et7tkwpcsknh5aw0p3fexd9kctp4w",
        "value": 82048
      },
      "scriptsig": "",
      "scriptsig_asm": "",
      "witness": [
        "304402206b2aa83376a3d8158d74e2a854660ca8ed9ddbcfe68bdc516295aff34e99f5ea0220566463804e266e87e83637cfa117db06a524c3e364e20cac9110c80f67b0ae6201",
        "036d00500381942e36aca3bf6e910301a8067cc192cf7e6e3d1d30e19605f2d3cd"
      ],
      "is_coinbase": false,
      "sequence": 4294967295
    },
    {
      "txid": "12ce16a9b4f2daf9a9abd67e6117864b1d39a4fa16fbe51b74481f317557d66e",
      "vout": 25,
      "prevout": {
        "scriptpubkey": "0014646259c93647372b3d240d365dc5c0c010cdbcfb",
        "scriptpubkey_asm": "OP_0 OP_PUSHBYTES_20 646259c93647372b3d240d365dc5c0c010cdbcfb",
        "scriptpubkey_type": "v0_p2wpkh",
        "scriptpubkey_address": "bc1qv339njfkgumjk0fyp5m9m3wqcqgvm08m7ufap0",
        "value": 173201
      },
      "scriptsig": "",
      "scriptsig_asm": "",
      "witness": [
        "3045022100ce5215ee11805260c64df5a1e01fb0eb04446d27b961302181880dc63a28cc1702205291817d347dfcbd381a2a32a194fbec507c3e08063c7c2e2afdb55655d0d07b01",
        "03a149bc418fa85fdffaf2e7299f07a9250f86d6068775cbdb1e49d6a462f212d5"
      ],
      "is_coinbase": false,
      "sequence": 4294967295
    }
  ],
  "vout": [
    {
      "scriptpubkey": "001418a120ce091c25741eb5019c1456eb7e9f930a75",
      "scriptpubkey_asm": "OP_0 OP_PUSHBYTES_20 18a120ce091c25741eb5019c1456eb7e9f930a75",
      "scriptpubkey_type": "v0_p2wpkh",
      "scriptpubkey_address": "bc1qrzsjpnsfrsjhg844qxwpg4ht060exzn4ywfuqf",
      "value": 97299
    },
    {
      "scriptpubkey": "0014665b2d08cdfa283637ccabc6464323d78a12d158",
      "scriptpubkey_asm": "OP_0 OP_PUSHBYTES_20 665b2d08cdfa283637ccabc6464323d78a12d158",
      "scriptpubkey_type": "v0_p2wpkh",
      "scriptpubkey_address": "bc1qvedj6zxdlg5rvd7v40ryvser679p952ckyxym9",
      "value": 818374
    }
  ],
  "size": 1113,
  "weight": 2190,
  "fee": 11960,
  "status": {
    "confirmed": true,
    "block_height": 834638,
    "block_hash": "000000000000000000025f742c626208ac87e0b7d15054abb4a19ca2d735a54e",
    "block_time": 1710405325
  },
  "hex": "02000000000107cb2700a488563259d7d091af335cc19b80a135e7ef50ff814143af89f90b768a1a00000000ffffffffce9d6462ca7e5a0c129b645f4fd55b4d7d6e2565389ac1d36eb03168362ca6712100000000ffffffff6f753eb289e217869651385c15aaddfb9ae7d5653515bc07ad3c1ce8213a48f46400000000ffffffff9db6b30367fce63cf09d3b00c50cb4aeaa4e76a55b107aa4ff157a7f38c5f4e01800000000ffffffff176181085e5675d46b6918bd238e482a0680731dcc2bd9122bed89d3cbf411821300000000ffffffff194e041ef0e5931e3b520d2524360ace7781690ca881fe7fb6e5de7cbae4d3cb1b00000000ffffffff6ed65775311f48741be5fb16faa4391d4b8617617ed6aba9f9daf2b4a916ce121900000000ffffffff02137c01000000000016001418a120ce091c25741eb5019c1456eb7e9f930a75c67c0c0000000000160014665b2d08cdfa283637ccabc6464323d78a12d1580247304402203e260857a7fa49960c7e279547fb1b41c5c196eb1c571a5dbe0162a600f3e25202205dac2065d191b876f199495430fdf464c5021071d7af8cc610e64c0797db1cab01210203f440bf716b5b956ac6b9aabe923c610657a66abb8fc60620cb3f3c91e77b34024830450221009de9378f902b232aec7bec8f3c8b0e3fc825a6b1dcc5dcd38afad46287a5a613022025763a598cb796b8c8920c81d49211830bc2e49237584a68b2238702ee126d4f0121034919e474e1f26342521383a321d24146fcaa447562cbacd7c6ec55342b76ee730248304502210082c53172969aab89b141ba9ae25ae28d91fdd4f4f0a4b48f84e6899a2e187ffe022016dfddab6cf08da0d5036e3eee29e1d61dc2785cfb01ee1db9c8be52cc61ab13012103097d7cddc08ed90ebbccc319551ccac952e079bef9c2bf6c2372b9f04024a3ca0247304402205ad74aa3939f51ee6881e6dae1fbe40845ba50f1361377e1eece3b2edcc53ad60220220c5c5a69ac3a5d7999ba5d9d14789c7e0a617f67cd5770fad1c6df7c8498f70121036d00500381942e36aca3bf6e910301a8067cc192cf7e6e3d1d30e19605f2d3cd024730440220687db78b882bd68f2924d4c20edec33ae34f34f04f7f67996b8198e17a7ab6f002204c1ff6d2926f10435a48127213263ffe88c4c496759e2d8c112b458853474e580121036d00500381942e36aca3bf6e910301a8067cc192cf7e6e3d1d30e19605f2d3cd0247304402206b2aa83376a3d8158d74e2a854660ca8ed9ddbcfe68bdc516295aff34e99f5ea0220566463804e266e87e83637cfa117db06a524c3e364e20cac9110c80f67b0ae620121036d00500381942e36aca3bf6e910301a8067cc192cf7e6e3d1d30e19605f2d3cd02483045022100ce5215ee11805260c64df5a1e01fb0eb04446d27b961302181880dc63a28cc1702205291817d347dfcbd381a2a32a194fbec507c3e08063c7c2e2afdb55655d0d07b012103a149bc418fa85fdffaf2e7299f07a9250f86d6068775cbdb1e49d6a462f212d500000000"
}