{
  "txid": "fbe7bcc698e37418d807168c4d4301a58b9bcd1cfcaf64205d254cf2dc6a76f1",
  "version": 2,
  "locktime": 0,
  "vin": [
    {
      "txid": "bc2a19766c59e13b81410e6ee5322c8f7637be5fbc30ab40b33e746ce3149e75",
      "vout": 0,
      "prevout": {
        "scriptpubkey": "51205e9ba2806aad26f29e13829c3148983782dfcb7c00a466f599a94af5e4f1173a",
        "scriptpubkey_asm": "OP_PUSHNUM_1 OP_PUSHBYTES_32 5e9ba2806aad26f29e13829c3148983782dfcb7c00a466f599a94af5e4f1173a",
        "scriptpubkey_type": "v1_p2tr",
        "scriptpubkey_address": "bc1pt6d69qr245n098sns2wrzjycx7pdljmuqzjxdave4990te83zuaqklurs7",
        "value": 29075
      },
      "scriptsig": "",
      "scriptsig_asm": "",
      "witness": [
        "e856d3e30af21ce840a439fd0329a52cebc4a1a90488dab957061cdf05f43eda34fb53e927765a15bbd18b740bc82642740ed35d07ba8614f42129c8acc8bc17",
        "20f2d00e1cce0b839d2e197679cac7a15152ec244338032c7767f72c1332d49a65ac0063036f7264010109696d6167652f706e67004d080289504e470d0a1a0a0000000d4948445200000118000001180806000000878ee98c000004c149444154789ceddcaf6a5e6700c7f1939136a22a6285b9b9464cb5bd815ec0cc68dc7c477dc4e8e446456dff24be62b05dc1a0d45757645730c84468a06230787705397d217cf79cd37c3efac0fb7bcd97473c3c3b9b27d36602087c317a00f0f91218202330404660808cc000198101320203640406c8080c901118202330404660808cc000198101320203640406c8080c901118202330404660808cc000198101320203640406c8080c901118202330404660808cc000198101320203640406c8080c901118202330404660808cc000198101320203640406c8080c901118202330404660808cc000198101320203640406c8080c901118202330404660808cc000198101320203640406c8080c901118202330404660808cc000198101320203640406c8080c901118202330404660808cc000198101320203640406c8080c901118202330404660808cc000198101320203640406c8080c901118202330404660808cc000198101320203640406c8080c901118202330404660808cc000198101320203640406c8080c901118202330404660808cc000198101320203640406c8080c901118202330404660808cc00099ddd103d6eecec98bd11356edece2ede809b3ce8f7e1f3d61d59c60808cc000198101320203640406c8080c90111820234d080230404660808cc000198101320203640406c8080c901118202330404660808cc00019810132dee4bda2ef6ebd1a3d61d58e2f0e464f20e40403640406c8080c901118202330404660808cc00019810132020364167f93f78f5f36a327cc7a307ac0ca1ddf3c1c3d8190130c901118202330404660808cc000198101320203640406c8080c9059fc4dde6f776f0ef9dd0fbfdeddeabbdd7bf7b7fbeeebe75b7db777e37afddf696fbbcf46f9f1f537a327cc7afafdfbd1136639c100198101320203640406c8080c901118202330404660808cc000999dcd9369d18fde2efd26255773fcd7c1e809b37ef8ea74f484596ef202d796c000198101320203640406c8080c90111820233040466080cce2dfe48591de7cfc77f48455738201320203640406c8080c901118202330404660808cc000198101328bbfc9eb2625ac97130c901118202330404660808cc000198101320203640406c8080c9059fc4d5e18e9dda3d3d11356cd0906c8080c901118202330404660808cc000198101320203640406c8080c901118202330404660808cc000198101320203640406c8080c901118202330404660808cc000198101320203640406c8080c90111820233040466080cceee8019ff2eed1e9e809b3f69f3d1c3d0116cb0906c8080c901118202330404660808cc000198101320203640406c82cfe26eff4f366f48259b74f5e8e9eb06a67176fb7faee4ceafc9fdfe2252bf5d3cee805b39c60808cc000198101320203640406c8080c90111820233040466080cce26ff2def9d24d59a6697fef70f484453a3f1abd609e130c901118202330404660808cc000198101320203640406c8080c9059fc4dde3fff7e3c7ac22c378dff1fdee4bd84377981eb4a60808cc000198101320203640406c8080c9011182023304066f13779dd94659abcc97b196ff202d796c000198101320203640406c8080c901118202330404660808cc000198101320203640406c8080c901118202330404660808cc00019810132ff016bf740c419ef994f0000000049454e44ae426082680063036f726401011e6170706c69636174696f6e2f6a736f6e3b636861727365743d7574662d38004d62017b2270223a22766f7264222c2276223a312c227479223a22696e7363222c22636f6c223a2232343930616533353961306139323966616465616339303633646434366361613433653231363339333763363539646262616366333565343431656238643863222c22696964223a224d7574616e7420784d6f6e6b6573222c227075626c223a2231455337623370636a527a4667796969714c7278484b546e43686535364c4a485937222c226e6f6e6365223a393932322c226d696e746572223a226263317075617263376c6e78686d337a6c6d657a616832616a65793030386c666e78306c3465723670726c786673706c376a676530393471726772756164222c22736967223a2248504d7272494e7763717a64654b35783453455268656b6e31505169687a5159562f6d5974473330416e7244514a49732b2b554732463375736d474f6374623663466533566f3343475a716a6579756a4c4867304235493d227d68",
        "c1f2d00e1cce0b839d2e197679cac7a15152ec244338032c7767f72c1332d49a65675a92934efa5e4869b2432a3e00abfc6819367af43949c2edc693b32d23ac05"
      ],
      "is_coinbase": false,
      "sequence": 4294967293
    }
  ],
  "vout": [
    {
      "scriptpubkey": "5120e7478f7e66bee22fef22edd5d9648f79fe9999ffae47a08fe64c03ff4919796a",
      "scriptpubkey_asm": "OP_PUSHNUM_1 OP_PUSHBYTES_32 e7478f7e66bee22fef22edd5d9648f79fe9999ffae47a08fe64c03ff4919796a",
      "scriptpubkey_type": "v1_p2tr",
      "scriptpubkey_address": "bc1puarc7lnxhm3zlmezah2ajey008lfnx0l4er6prlxfspl7jge094qrgruad",
      "value": 1000
    },
    {
      "scriptpubkey": "5120f4d3a74cb882d6df5a942aae15d724bad39222e79b62335fa7cdf54bc030f415",
      "scriptpubkey_asm": "OP_PUSHNUM_1 OP_PUSHBYTES_32 f4d3a74cb882d6df5a942aae15d724bad39222e79b62335fa7cdf54bc030f415",
      "scriptpubkey_type": "v1_p2tr",
      "scriptpubkey_address": "bc1p7nf6wn9csttd7k5592hpt4eyhtfeygh8nd3rxha8eh65hsps7s2s00yhus",
      "value": 17710
    },
    {
      "scriptpubkey": "51200705a5767db892e98125775049b1a13dd9ecdc8aea0df413cabbee683e871012",
      "scriptpubkey_asm": "OP_PUSHNUM_1 OP_PUSHBYTES_32 0705a5767db892e98125775049b1a13dd9ecdc8aea0df413cabbee683e871012",
      "scriptpubkey_type": "v1_p2tr",
      "scriptpubkey_address": "bc1pquz62anahzfwnqf9wagynvdp8hv7ehy2agxlgy72h0hxs058zqfqk8ksyq",
      "value": 3237
    }
  ],
  "size": 2051,
  "weight": 2591,
  "fee": 7128,
  "status": {
    "confirmed": true,
    "block_height": 834464,
    "block_hash": "0000000000000000000177a0869a911a2b65c9bdcd5a8bcb02b68f305bee848e",
    "block_time": 1710308296
  },
  "hex": "02000000000101759e14e36c743eb340ab30bc5fbe37768f2c32e56e0e41813be1596c76192abc0000000000fdffffff03e803000000000000225120e7478f7e66bee22fef22edd5d9648f79fe9999ffae47a08fe64c03ff4919796a2e45000000000000225120f4d3a74cb882d6df5a942aae15d724bad39222e79b62335fa7cdf54bc030f415a50c0000000000002251200705a5767db892e98125775049b1a13dd9ecdc8aea0df413cabbee683e8710120340e856d3e30af21ce840a439fd0329a52cebc4a1a90488dab957061cdf05f43eda34fb53e927765a15bbd18b740bc82642740ed35d07ba8614f42129c8acc8bc17fdc60620f2d00e1cce0b839d2e197679cac7a15152ec244338032c7767f72c1332d49a65ac0063036f7264010109696d6167652f706e67004d080289504e470d0a1a0a0000000d4948445200000118000001180806000000878ee98c000004c149444154789ceddcaf6a5e6700c7f1939136a22a6285b9b9464cb5bd815ec0cc68dc7c477dc4e8e446456dff24be62b05dc1a0d45757645730c84468a06230787705397d217cf79cd37c3efac0fb7bcd97473c3c3b9b27d36602087c317a00f0f91218202330404660808cc000198101320203640406c8080c901118202330404660808cc000198101320203640406c8080c901118202330404660808cc000198101320203640406c8080c901118202330404660808cc000198101320203640406c8080c901118202330404660808cc000198101320203640406c8080c901118202330404660808cc000198101320203640406c8080c901118202330404660808cc000198101320203640406c8080c901118202330404660808cc000198101320203640406c8080c901118202330404660808cc000198101320203640406c8080c901118202330404660808cc000198101320203640406c8080c901118202330404660808cc000198101320203640406c8080c901118202330404660808cc000198101320203640406c8080c901118202330404660808cc000198101320203640406c8080c901118202330404660808cc00099ddd103d6eecec98bd11356edece2ede809b3ce8f7e1f3d61d59c60808cc000198101320203640406c8080c90111820234d080230404660808cc000198101320203640406c8080c901118202330404660808cc00019810132dee4bda2ef6ebd1a3d61d58e2f0e464f20e40403640406c8080c901118202330404660808cc00019810132020364167f93f78f5f36a327cc7a307ac0ca1ddf3c1c3d8190130c901118202330404660808cc000198101320203640406c8080c9059fc4dde6f776f0ef9dd0fbfdeddeabbdd7bf7b7fbeeebe75b7db777e37afddf696fbbcf46f9f1f537a327cc7afafdfbd1136639c100198101320203640406c8080c901118202330404660808cc000999dcd9369d18fde2efd26255773fcd7c1e809b37ef8ea74f484596ef202d796c000198101320203640406c8080c90111820233040466080cce2dfe48591de7cfc77f48455738201320203640406c8080c901118202330404660808cc000198101328bbfc9eb2625ac97130c901118202330404660808cc000198101320203640406c8080c9059fc4d5e18e9dda3d3d11356cd0906c8080c901118202330404660808cc000198101320203640406c8080c901118202330404660808cc000198101320203640406c8080c901118202330404660808cc000198101320203640406c8080c90111820233040466080cceee8019ff2eed1e9e809b3f69f3d1c3d0116cb0906c8080c901118202330404660808cc000198101320203640406c82cfe26eff4f366f48259b74f5e8e9eb06a67176fb7faee4ceafc9fdfe2252bf5d3cee805b39c60808cc000198101320203640406c8080c90111820233040466080cce26ff2def9d24d59a6697fef70f484453a3f1abd609e130c901118202330404660808cc000198101320203640406c8080c9059fc4dde3fff7e3c7ac22c378dff1fdee4bd84377981eb4a60808cc000198101320203640406c8080c9011182023304066f13779dd94659abcc97b196ff202d796c000198101320203640406c8080c901118202330404660808cc000198101320203640406c8080c901118202330404660808cc00019810132ff016bf740c419ef994f0000000049454e44ae426082680063036f726401011e6170706c69636174696f6e2f6a736f6e3b636861727365743d7574662d38004d62017b2270223a22766f7264222c2276223a312c227479223a22696e7363222c22636f6c223a2232343930616533353961306139323966616465616339303633646434366361613433653231363339333763363539646262616366333565343431656238643863222c22696964223a224d7574616e7420784d6f6e6b6573222c227075626c223a2231455337623370636a527a4667796969714c7278484b546e43686535364c4a485937222c226e6f6e6365223a393932322c226d696e746572223a226263317075617263376c6e78686d337a6c6d657a616832616a65793030386c666e78306c3465723670726c786673706c376a676530393471726772756164222c22736967223a2248504d7272494e7763717a64654b35783453455268656b6e31505169687a5159562f6d5974473330416e7244514a49732b2b554732463375736d474f6374623663466533566f3343475a716a6579756a4c4867304235493d227d6841c1f2d00e1cce0b839d2e197679cac7a15152ec244338032c7767f72c1332d49a65675a92934efa5e4869b2432a3e00abfc6819367af43949c2edc693b32d23ac0500000000"
}