{
  "txid": "fbe71b4ee87040d1713657a57cb25d7b6df042bb9791f251892fb4968afb7f80",
  "version": 2,
  "locktime": 0,
  "vin": [
    {
      "txid": "5aa39da372a6b9841fd8aee5d88e91e84b35f3207c62c3a5d1238a35fb241572",
      "vout": 1,
      "prevout": {
        "scriptpubkey": "001404c02902a1c5f6027095da7860ad3383cbda2c1d",
        "scriptpubkey_asm": "OP_0 OP_PUSHBYTES_20 04c02902a1c5f6027095da7860ad3383cbda2c1d",
        "scriptpubkey_type": "v0_p2wpkh",
        "scriptpubkey_address": "bc1qqnqzjq4pchmqyuy4mfuxptfns09a5tqanh9ac2",
        "value": 38787
      },
      "scriptsig": "",
      "scriptsig_asm": "",
      "witness": [
        "3045022100e4f5bfad0d41158a22a6d5cbbacd850d5657832dad79d3bdec46e4a4c67b406802200510da9846389f7add94ed1621a123ae9ccad890e305c59d4a36b1b93e98e70d01",
        "038d34b647e394e1baef444aebd1bde19cb92578e94afdb747d66f1f1e71112a33"
      ],
      "is_coinbase": false,
      "sequence": 4294967295
    }
  ],
  "vout": [
    {
      "scriptpubkey": "76a9141750d487df3fa034f37ea58c35386f3c58998b3b88ac",
      "scriptpubkey_asm": "OP_DUP OP_HASH160 OP_PUSHBYTES_20 1750d487df3fa034f37ea58c35386f3c58998b3b OP_EQUALVERIFY OP_CHECKSIG",
      "scriptpubkey_type": "p2pkh",
      "scriptpubkey_address": "138HNbNx6anQC57BvHchhdrkZryotovCoM",
      "value": 4825
    },
    {
      "scriptpubkey": "001404c02902a1c5f6027095da7860ad3383cbda2c1d",
      "scriptpubkey_asm": "OP_0 OP_PUSHBYTES_20 04c02902a1c5f6027095da7860ad3383cbda2c1d",
      "scriptpubkey_type": "v0_p2wpkh",
      "scriptpubkey_address": "bc1qqnqzjq4pchmqyuy4mfuxptfns09a5tqanh9ac2",
      "value": 32380
    }
  ],
  "size": 226,
  "weight": 574,
  "fee": 1582,
  "status": {
    "confirmed": true,
    "block_height": 834464,
    "block_hash": "0000000000000000000177a0869a911a2b65c9bdcd5a8bcb02b68f305bee848e",
    "block_time": 1710308296
  },
  "hex": "02000000000101721524fb358a23d1a5c3627c20f3354be8918ed8e5aed81f84b9a672a39da35a0100000000ffffffff02d9120000000000001976a9141750d487df3fa034f37ea58c35386f3c58998b3b88ac7c7e00000000000016001404c02902a1c5f6027095da7860ad3383cbda2c1d02483045022100e4f5bfad0d41158a22a6d5cbbacd850d5657832dad79d3bdec46e4a4c67b406802200510da9846389f7add94ed1621a123ae9ccad890e305c59d4a36b1b93e98e70d0121038d34b647e394e1baef444aebd1bde19cb92578e94afdb747d66f1f1e71112a3300000000"
}