{
  "txid": "fc0b824f2bac595b17d1795d7e413ecdac153182a4fa6b1e89b4256878a083f4",
  "version": 2,
  "locktime": 0,
  "vin": [
    {
      "txid": "54c783a9700e99dade3ce89a26f0a28bf63f13be811d9ec0ebe13bce358a99ad",
      "vout": 1,
      "prevout": {
        "scriptpubkey": "001447262f2c04cd1b7a689bc4f7dfe5a5892be32cf4",
        "scriptpubkey_asm": "OP_0 OP_PUSHBYTES_20 47262f2c04cd1b7a689bc4f7dfe5a5892be32cf4",
        "scriptpubkey_type": "v0_p2wpkh",
        "scriptpubkey_address": "bc1qgunz7tqye5dh56ymcnmaled93y47xt85p2p9r8",
        "value": 1043013
      },
      "scriptsig": "",
      "scriptsig_asm": "",
      "witness": [
        "3044022016f7b84b8c8d32aec611d37687ceb17b4fcba108539b31175e91f2b215a1d12a02205acfa7628b2b8302541936329e7cb7d69419a2b98c0b2b62d364541c3a3db8b501",
        "02afd2a5443215494de7bd4617e6582301a094f8ec5a15ee097839920fd0dd6857"
      ],
      "is_coinbase": false,
      "sequence": 2147483649
    }
  ],
  "vout": [
    {
      "scriptpubkey": "001407fc6de3b67e2135727370c332872e30f4ab4d15",
      "scriptpubkey_asm": "OP_0 OP_PUSHBYTES_20 07fc6de3b67e2135727370c332872e30f4ab4d15",
      "scriptpubkey_type": "v0_p2wpkh",
      "scriptpubkey_address": "bc1qql7xmcak0csn2unnwrpn9pewxr62kng4v4j65s",
      "value": 476936
    },
    {
      "scriptpubkey": "001447262f2c04cd1b7a689bc4f7dfe5a5892be32cf4",
      "scriptpubkey_asm": "OP_0 OP_PUSHBYTES_20 47262f2c04cd1b7a689bc4f7dfe5a5892be32cf4",
      "scriptpubkey_type": "v0_p2wpkh",
      "scriptpubkey_address": "bc1qgunz7tqye5dh56ymcnmaled93y47xt85p2p9r8",
      "value": 563977
    }
  ],
  "size": 222,
  "weight": 561,
  "fee": 2100,
  "status": {
    "confirmed": true,
    "block_height": 834638,
    "block_hash": "000000000000000000025f742c626208ac87e0b7d15054abb4a19ca2d735a54e",
    "block_time": 1710405325
  },
  "hex": "02000000000101ad998a35ce3be1ebc09e1d81be133ff68ba2f0269ae83cdeda990e70a983c75401000000000100008002084707000000000016001407fc6de3b67e2135727370c332872e30f4ab4d15099b08000000000016001447262f2c04cd1b7a689bc4f7dfe5a5892be32cf402473044022016f7b84b8c8d32aec611d37687ceb17b4fcba108539b31175e91f2b215a1d12a02205acfa7628b2b8302541936329e7cb7d69419a2b98c0b2b62d364541c3a3db8b5012102afd2a5443215494de7bd4617e6582301a094f8ec5a15ee097839920fd0dd685700000000"
}