{
  "txid": "fc131477ec248605c2ab6599845a55b3442edbc83394d88f2e7081155ce9898a",
  "version": 2,
  "locktime": 0,
  "vin": [
    {
      "txid": "3907952cc71833a7278fdfbce30401087e6388fbd0327d6eec7b40ad2794ed06",
      "vout": 0,
      "prevout": {
        "scriptpubkey": "512088c154bbe56436e0a9c0ffcbae6936158df4012f4b5a224d020e0fb9a15c9453",
        "scriptpubkey_asm": "OP_PUSHNUM_1 OP_PUSHBYTES_32 88c154bbe56436e0a9c0ffcbae6936158df4012f4b5a224d020e0fb9a15c9453",
        "scriptpubkey_type": "v1_p2tr",
        "scriptpubkey_address": "bc1p3rq4fwl9vsmwp2wqll96u6fkzkxlgqf0fddzyngzpc8mng2uj3fsdvyqwz",
        "value": 546
      },
      "scriptsig": "",
      "scriptsig_asm": "",
      "witness": [
        "3407ef06ed984dce53c017ea68e62233787f0ab08d86eabe5a8a29068afcc16fdc7b199684e5a865ee513fbdeea9fbf3c164934c75c46b5b992a9ef5902075c0"
      ],
      "is_coinbase": false,
      "sequence": 2147483649
    },
    {
      "txid": "6367b1c718a780a3d786b9b63f0244bc3c2d519b42dab7c31b1b138c9146d668",
      "vout": 3,
      "prevout": {
        "scriptpubkey": "512088c154bbe56436e0a9c0ffcbae6936158df4012f4b5a224d020e0fb9a15c9453",
        "scriptpubkey_asm": "OP_PUSHNUM_1 OP_PUSHBYTES_32 88c154bbe56436e0a9c0ffcbae6936158df4012f4b5a224d020e0fb9a15c9453",
        "scriptpubkey_type": "v1_p2tr",
        "scriptpubkey_address": "bc1p3rq4fwl9vsmwp2wqll96u6fkzkxlgqf0fddzyngzpc8mng2uj3fsdvyqwz",
        "value": 1866248
      },
      "scriptsig": "",
      "scriptsig_asm": "",
      "witness": [
        "b99c710892a6394d8e5f3d033193e3d7c837e474f19b598fa1cf7fa5b1526e8383b56117e14644834e651c7c92686b718b9002f71c78041ff9fe797b99014ebb"
      ],
      "is_coinbase": false,
      "sequence": 2147483649
    }
  ],
  "vout": [
    {
      "scriptpubkey": "512088c154bbe56436e0a9c0ffcbae6936158df4012f4b5a224d020e0fb9a15c9453",
      "scriptpubkey_asm": "OP_PUSHNUM_1 OP_PUSHBYTES_32 88c154bbe56436e0a9c0ffcbae6936158df4012f4b5a224d020e0fb9a15c9453",
      "scriptpubkey_type": "v1_p2tr",
      "scriptpubkey_address": "bc1p3rq4fwl9vsmwp2wqll96u6fkzkxlgqf0fddzyngzpc8mng2uj3fsdvyqwz",
      "value": 546
    },
    {
      "scriptpubkey": "512088c154bbe56436e0a9c0ffcbae6936158df4012f4b5a224d020e0fb9a15c9453",
      "scriptpubkey_asm": "OP_PUSHNUM_1 OP_PUSHBYTES_32 88c154bbe56436e0a9c0ffcbae6936158df4012f4b5a224d020e0fb9a15c9453",
      "scriptpubkey_type": "v1_p2tr",
      "scriptpubkey_address": "bc1p3rq4fwl9vsmwp2wqll96u6fkzkxlgqf0fddzyngzpc8mng2uj3fsdvyqwz",
      "value": 1862661
    }
  ],
  "size": 312,
  "weight": 846,
  "fee": 3587,
  "status": {
    "confirmed": true,
    "block_height": 834638,
    "block_hash": "000000000000000000025f742c626208ac87e0b7d15054abb4a19ca2d735a54e",
    "block_time": 1710405325
  },
  "hex": "0200000000010206ed9427ad407bec6e7d32d0fb88637e080104e3bcdf8f27a73318c72c95073900000000000100008068d646918c131b1bc3b7da429b512d3cbc44023fb6b986d7a380a718c7b1676303000000000100008002220200000000000022512088c154bbe56436e0a9c0ffcbae6936158df4012f4b5a224d020e0fb9a15c9453056c1c000000000022512088c154bbe56436e0a9c0ffcbae6936158df4012f4b5a224d020e0fb9a15c945301403407ef06ed984dce53c017ea68e62233787f0ab08d86eabe5a8a29068afcc16fdc7b199684e5a865ee513fbdeea9fbf3c164934c75c46b5b992a9ef5902075c00140b99c710892a6394d8e5f3d033193e3d7c837e474f19b598fa1cf7fa5b1526e8383b56117e14644834e651c7c92686b718b9002f71c78041ff9fe797b99014ebb00000000"
}