{
  "txid": "fc206a8e0afd37e8458953c6a8e35d9820cd233c5b8a4e4f63e10023a37be64b",
  "version": 1,
  "locktime": 0,
  "vin": [
    {
      "txid": "4936faaa9c89113e0655dc50c8678f0db005ea9459e14d04dc2747d640a089b6",
      "vout": 1,
      "prevout": {
        "scriptpubkey": "00144e885d4290508124d3a151876771097472c20b49",
        "scriptpubkey_asm": "OP_0 OP_PUSHBYTES_20 4e885d4290508124d3a151876771097472c20b49",
        "scriptpubkey_type": "v0_p2wpkh",
        "scriptpubkey_address": "bc1qf6y96s5s2zqjf5ap2xrkwugfw3evyz6frq63m9",
        "value": 212421691
      },
      "scriptsig": "",
      "scriptsig_asm": "",
      "witness": [
        "3044022011fd827385911acbf05a834a3b38ea62086054b7e122d337ead1dbea6bbdf6b602204f7f9dadee670684802bf3c935f6e341cf7785e0ce89a0d5072b078740f767e101",
        "03ed74445e27c8d9527f0f642368b8082c35b1b6eaeeadf1973023c4590c0b6203"
      ],
      "is_coinbase": false,
      "sequence": 0
    }
  ],
  "vout": [
    {
      "scriptpubkey": "0014e622478beaeef0370269ab49d7858d12225742e4",
      "scriptpubkey_asm": "OP_0 OP_PUSHBYTES_20 e622478beaeef0370269ab49d7858d12225742e4",
      "scriptpubkey_type": "v0_p2wpkh",
      "scriptpubkey_address": "bc1quc3y0zl2amcrwqnf4dya0pvdzg39wshy3jl7y9",
      "value": 1324083
    },
    {
      "scriptpubkey": "00144e885d4290508124d3a151876771097472c20b49",
      "scriptpubkey_asm": "OP_0 OP_PUSHBYTES_20 4e885d4290508124d3a151876771097472c20b49",
      "scriptpubkey_type": "v0_p2wpkh",
      "scriptpubkey_address": "bc1qf6y96s5s2zqjf5ap2xrkwugfw3evyz6frq63m9",
      "value": 211094224
    }
  ],
  "size": 222,
  "weight": 561,
  "fee": 3384,
  "status": {
    "confirmed": true,
    "block_height": 834638,
    "block_hash": "000000000000000000025f742c626208ac87e0b7d15054abb4a19ca2d735a54e",
    "block_time": 1710405325
  },
  "hex": "01000000000101b689a040d64727dc044de15994ea05b00d8f67c850dc55063e11899caafa3649010000000000000000023334140000000000160014e622478beaeef0370269ab49d7858d12225742e4d00a950c000000001600144e885d4290508124d3a151876771097472c20b4902473044022011fd827385911acbf05a834a3b38ea62086054b7e122d337ead1dbea6bbdf6b602204f7f9dadee670684802bf3c935f6e341cf7785e0ce89a0d5072b078740f767e1012103ed74445e27c8d9527f0f642368b8082c35b1b6eaeeadf1973023c4590c0b620300000000"
}