{
  "txid": "fc392a3a4373eb3b5ec958c0638d48947cf11b0c4632da94e0e36a8993fd5dd9",
  "version": 2,
  "locktime": 834623,
  "vin": [
    {
      "txid": "8780fc607583030db85281a4a450db7c483a2de2f8d9bbd2390f664bc77bcedc",
      "vout": 0,
      "prevout": {
        "scriptpubkey": "00149e09a0c12b40cfc15305d092000d1df9a0a19ad6",
        "scriptpubkey_asm": "OP_0 OP_PUSHBYTES_20 9e09a0c12b40cfc15305d092000d1df9a0a19ad6",
        "scriptpubkey_type": "v0_p2wpkh",
        "scriptpubkey_address": "bc1qncy6psftgr8uz5c96zfqqrgalxs2rxkkc97xgp",
        "value": 107000
      },
      "scriptsig": "",
      "scriptsig_asm": "",
      "witness": [
        "30440220346bd566cbf0b0067acf88dcd8ca52c5385bff162eda10bf63c361924d9b2be0022071a3f9e1e40a213bf9e3014e36395a87719ccb84108db0ff17fe8f5f48b7f71701",
        "025a6e4a9d0aa5afd112236d03795f51ca69d71c5e6542b12fcdb179bf92a8eb1e"
      ],
      "is_coinbase": false,
      "sequence": 4294967293
    }
  ],
  "vout": [
    {
      "scriptpubkey": "0014405f96d1841bb9bea757ea2ed581bc65aa1e1dc3",
      "scriptpubkey_asm": "OP_0 OP_PUSHBYTES_20 405f96d1841bb9bea757ea2ed581bc65aa1e1dc3",
      "scriptpubkey_type": "v0_p2wpkh",
      "scriptpubkey_address": "bc1qgp0ed5vyrwumaf6haghdtqduvk4pu8wr6pygxy",
      "value": 25821
    },
    {
      "scriptpubkey": "001417187c08c11381281845f611f029187150a74490",
      "scriptpubkey_asm": "OP_0 OP_PUSHBYTES_20 17187c08c11381281845f611f029187150a74490",
      "scriptpubkey_type": "v0_p2wpkh",
      "scriptpubkey_address": "bc1qzuv8czxpzwqjsxz97cglq2gcw9g2w3ys3slnpm",
      "value": 75469
    }
  ],
  "size": 222,
  "weight": 561,
  "fee": 5710,
  "status": {
    "confirmed": true,
    "block_height": 834638,
    "block_hash": "000000000000000000025f742c626208ac87e0b7d15054abb4a19ca2d735a54e",
    "block_time": 1710405325
  },
  "hex": "02000000000101dcce7bc74b660f39d2bbd9f8e22d3a487cdb50a4a48152b80d03837560fc80870000000000fdffffff02dd64000000000000160014405f96d1841bb9bea757ea2ed581bc65aa1e1dc3cd2601000000000016001417187c08c11381281845f611f029187150a74490024730440220346bd566cbf0b0067acf88dcd8ca52c5385bff162eda10bf63c361924d9b2be0022071a3f9e1e40a213bf9e3014e36395a87719ccb84108db0ff17fe8f5f48b7f7170121025a6e4a9d0aa5afd112236d03795f51ca69d71c5e6542b12fcdb179bf92a8eb1e3fbc0c00"
}