{
  "txid": "fc3f5e03c024eec3b0963d31af92572dbfc5d0ded79314dee78717b37d4f8cfb",
  "version": 2,
  "locktime": 0,
  "vin": [
    {
      "txid": "537d513c0f95d3937d59eb614fd54bbb83239d6d7567063c872938ea83071fba",
      "vout": 1,
      "prevout": {
        "scriptpubkey": "0014329f0ee2c1f374c4b4def147e8a261c2715dac2a",
        "scriptpubkey_asm": "OP_0 OP_PUSHBYTES_20 329f0ee2c1f374c4b4def147e8a261c2715dac2a",
        "scriptpubkey_type": "v0_p2wpkh",
        "scriptpubkey_address": "bc1qx20sackp7d6vfdx779r73gnpcfc4mtp2k3y4hp",
        "value": 380464
      },
      "scriptsig": "",
      "scriptsig_asm": "",
      "witness": [
        "3045022100ddc2f5a53102570bc07f40aa405bc5779b2b202c81c11a7e6f467ca5f7633fdc022005171810513bcaac78d34684d44feef3c0d0a7936d5be4b94fed598dced5010e01",
        "02a8b3c88c26ac10425ea5e6bb02f2bacc5ac1fb25c2fbc9db450d205728423a0f"
      ],
      "is_coinbase": false,
      "sequence": 4294967295
    }
  ],
  "vout": [
    {
      "scriptpubkey": "001417c494001222b5cf02bcc4c809c5e1f2f4d3ad55",
      "scriptpubkey_asm": "OP_0 OP_PUSHBYTES_20 17c494001222b5cf02bcc4c809c5e1f2f4d3ad55",
      "scriptpubkey_type": "v0_p2wpkh",
      "scriptpubkey_address": "bc1qzlzfgqqjy26u7q4ucnyqn30p7t6d8t24n93wpm",
      "value": 173916
    },
    {
      "scriptpubkey": "0014eb9953e2d7259cf1a8fc7e5f3c7291b509d1a42f",
      "scriptpubkey_asm": "OP_0 OP_PUSHBYTES_20 eb9953e2d7259cf1a8fc7e5f3c7291b509d1a42f",
      "scriptpubkey_type": "v0_p2wpkh",
      "scriptpubkey_address": "bc1qawv48ckhykw0r28u0e0ncu53k5yarfp0wrgqql",
      "value": 204451
    }
  ],
  "size": 223,
  "weight": 562,
  "fee": 2097,
  "status": {
    "confirmed": true,
    "block_height": 834638,
    "block_hash": "000000000000000000025f742c626208ac87e0b7d15054abb4a19ca2d735a54e",
    "block_time": 1710405325
  },
  "hex": "02000000000101ba1f0783ea3829873c0667756d9d2383bb4bd54f61eb597d93d3950f3c517d530100000000ffffffff025ca702000000000016001417c494001222b5cf02bcc4c809c5e1f2f4d3ad55a31e030000000000160014eb9953e2d7259cf1a8fc7e5f3c7291b509d1a42f02483045022100ddc2f5a53102570bc07f40aa405bc5779b2b202c81c11a7e6f467ca5f7633fdc022005171810513bcaac78d34684d44feef3c0d0a7936d5be4b94fed598dced5010e012102a8b3c88c26ac10425ea5e6bb02f2bacc5ac1fb25c2fbc9db450d205728423a0f00000000"
}