{
  "txid": "fc4730f915a2ba9822bcb1916c5402fa30eec3512a21d079b23032351ffb70ac",
  "version": 2,
  "locktime": 0,
  "vin": [
    {
      "txid": "442c6242eb90bb2a394bc00091d78654368ea958778c217b2d186a0a810771d2",
      "vout": 0,
      "prevout": {
        "scriptpubkey": "5120d3f25d3765bee79917f29f0cc692d89f4df2aef9a00855e2d83723edfdf56a88",
        "scriptpubkey_asm": "OP_PUSHNUM_1 OP_PUSHBYTES_32 d3f25d3765bee79917f29f0cc692d89f4df2aef9a00855e2d83723edfdf56a88",
        "scriptpubkey_type": "v1_p2tr",
        "scriptpubkey_address": "bc1p60e96dm9hmnej9ljnuxvdykcnaxl9the5qy9tckcxu37ml04d2yqeeet0z",
        "value": 150000
      },
      "scriptsig": "",
      "scriptsig_asm": "",
      "witness": [
        "42a86dee5ee75dfdac7d1bc5508f572099e523f084a5ca80c3053f5d94bfd2807b9d9595bffe0883550ad6e27f2a0ba6083b36946ac2b55d80d4376f0398fe16"
      ],
      "is_coinbase": false,
      "sequence": 4294967293
    }
  ],
  "vout": [
    {
      "scriptpubkey": "00145f35a124069683ddeb2f1726e9a1173f9340c87e",
      "scriptpubkey_asm": "OP_0 OP_PUSHBYTES_20 5f35a124069683ddeb2f1726e9a1173f9340c87e",
      "scriptpubkey_type": "v0_p2wpkh",
      "scriptpubkey_address": "bc1qtu66zfqxj6pam6e0zunwnggh87f5pjr7vdr5cd",
      "value": 100000
    },
    {
      "scriptpubkey": "0014fb7a185fc47428a9992c09f70c6add47a5c19223",
      "scriptpubkey_asm": "OP_0 OP_PUSHBYTES_20 fb7a185fc47428a9992c09f70c6add47a5c19223",
      "scriptpubkey_type": "v0_p2wpkh",
      "scriptpubkey_address": "bc1qldapsh7yws52nxfvp8msc6kag7jury3rxrw4dm",
      "value": 30000
    },
    {
      "scriptpubkey": "5120d3f25d3765bee79917f29f0cc692d89f4df2aef9a00855e2d83723edfdf56a88",
      "scriptpubkey_asm": "OP_PUSHNUM_1 OP_PUSHBYTES_32 d3f25d3765bee79917f29f0cc692d89f4df2aef9a00855e2d83723edfdf56a88",
      "scriptpubkey_type": "v1_p2tr",
      "scriptpubkey_address": "bc1p60e96dm9hmnej9ljnuxvdykcnaxl9the5qy9tckcxu37ml04d2yqeeet0z",
      "value": 16031
    }
  ],
  "size": 224,
  "weight": 692,
  "fee": 3969,
  "status": {
    "confirmed": true,
    "block_height": 834638,
    "block_hash": "000000000000000000025f742c626208ac87e0b7d15054abb4a19ca2d735a54e",
    "block_time": 1710405325
  },
  "hex": "02000000000101d27107810a6a182d7b218c7758a98e365486d79100c04b392abb90eb42622c440000000000fdffffff03a0860100000000001600145f35a124069683ddeb2f1726e9a1173f9340c87e3075000000000000160014fb7a185fc47428a9992c09f70c6add47a5c192239f3e000000000000225120d3f25d3765bee79917f29f0cc692d89f4df2aef9a00855e2d83723edfdf56a88014042a86dee5ee75dfdac7d1bc5508f572099e523f084a5ca80c3053f5d94bfd2807b9d9595bffe0883550ad6e27f2a0ba6083b36946ac2b55d80d4376f0398fe1600000000"
}