{
  "txid": "fc75eeb010333a7d4cc49e7ca2caa58923b1e1eec3ecd0a8fefb878b2cff45bd",
  "version": 2,
  "locktime": 0,
  "vin": [
    {
      "txid": "528f2c1b0cae1056a1f70d8c0cad7f47a30d75aa875a5db35e0a0474e4e9145e",
      "vout": 0,
      "prevout": {
        "scriptpubkey": "001411b3de97ebde821358ce5c1700330116e5d7303c",
        "scriptpubkey_asm": "OP_0 OP_PUSHBYTES_20 11b3de97ebde821358ce5c1700330116e5d7303c",
        "scriptpubkey_type": "v0_p2wpkh",
        "scriptpubkey_address": "bc1qzxeaa9ltm6ppxkxwtstsqvcpzmjawvpuswcyj9",
        "value": 52132
      },
      "scriptsig": "",
      "scriptsig_asm": "",
      "witness": [
        "3045022100ab6c6a8ab2fe2d29ccab4e03827a944c700b7277b621e9e7ba65c1d13f629b330220307d8cde2762b343fb7ccc7a7d6f699a52f7b61c56301f61144aec47ced4b3fe01",
        "031fde1fc2d5e32d21a3d7870b17def989ec539799c18d5c929c1391acd9aa8247"
      ],
      "is_coinbase": false,
      "sequence": 4294967295
    }
  ],
  "vout": [
    {
      "scriptpubkey": "001454364819747f37606835ec00b4f4cfd7da5dd43e",
      "scriptpubkey_asm": "OP_0 OP_PUSHBYTES_20 54364819747f37606835ec00b4f4cfd7da5dd43e",
      "scriptpubkey_type": "v0_p2wpkh",
      "scriptpubkey_address": "bc1q2smysxt50umkq6p4asqtfax06ld9m4p7xmjmyn",
      "value": 333
    },
    {
      "scriptpubkey": "512103eb2390a97178dd905bfb7207cdb522608817c1c1ef4ff7a41ce840f51f92d2e821030ba1aae3ee211d4f635a58ee790b53308aa61f6498ec77ed703090cffcd9df752102020202020202020202020202020202020202020202020202020202020202020253ae",
      "scriptpubkey_asm": "OP_PUSHNUM_1 OP_PUSHBYTES_33 03eb2390a97178dd905bfb7207cdb522608817c1c1ef4ff7a41ce840f51f92d2e8 OP_PUSHBYTES_33 030ba1aae3ee211d4f635a58ee790b53308aa61f6498ec77ed703090cffcd9df75 OP_PUSHBYTES_33 020202020202020202020202020202020202020202020202020202020202020202 OP_PUSHNUM_3 OP_CHECKMULTISIG",
      "scriptpubkey_type": "unknown",
      "value": 801
    },
    {
      "scriptpubkey": "001411b3de97ebde821358ce5c1700330116e5d7303c",
      "scriptpubkey_asm": "OP_0 OP_PUSHBYTES_20 11b3de97ebde821358ce5c1700330116e5d7303c",
      "scriptpubkey_type": "v0_p2wpkh",
      "scriptpubkey_address": "bc1qzxeaa9ltm6ppxkxwtstsqvcpzmjawvpuswcyj9",
      "value": 45908
    }
  ],
  "size": 337,
  "weight": 1018,
  "fee": 5090,
  "status": {
    "confirmed": true,
    "block_height": 834460,
    "block_hash": "00000000000000000000484a79b643b2524bbce82e5d8a442013fa5b8905ed98",
    "block_time": 1710307468
  },
  "hex": "020000000001015e14e9e474040a5eb35d5a87aa750da3477fad0c8c0df7a15610ae0c1b2c8f520000000000ffffffff034d0100000000000016001454364819747f37606835ec00b4f4cfd7da5dd43e210300000000000069512103eb2390a97178dd905bfb7207cdb522608817c1c1ef4ff7a41ce840f51f92d2e821030ba1aae3ee211d4f635a58ee790b53308aa61f6498ec77ed703090cffcd9df752102020202020202020202020202020202020202020202020202020202020202020253ae54b300000000000016001411b3de97ebde821358ce5c1700330116e5d7303c02483045022100ab6c6a8ab2fe2d29ccab4e03827a944c700b7277b621e9e7ba65c1d13f629b330220307d8cde2762b343fb7ccc7a7d6f699a52f7b61c56301f61144aec47ced4b3fe0121031fde1fc2d5e32d21a3d7870b17def989ec539799c18d5c929c1391acd9aa824700000000"
}