{
  "txid": "fc8237f6d970b1366af7a0ebcccf86613a142bf91f3b81e7d3308f1b9535b6da",
  "version": 1,
  "locktime": 0,
  "vin": [
    {
      "txid": "e0a873aa0fe175ebfced1971f58035efc612fa9d2bd7ba524bddf7acc7636b2d",
      "vout": 1,
      "prevout": {
        "scriptpubkey": "76a91441ba63e81b7c72437ac9add3f0bfae83597c3ad688ac",
        "scriptpubkey_asm": "OP_DUP OP_HASH160 OP_PUSHBYTES_20 41ba63e81b7c72437ac9add3f0bfae83597c3ad6 OP_EQUALVERIFY OP_CHECKSIG",
        "scriptpubkey_type": "p2pkh",
        "scriptpubkey_address": "16zYD6JAxSAc7aTwvGGfxtQMnr6ChkP41o",
        "value": 146059
      },
      "scriptsig": "483045022100f14f1c17ada64b1bb0334b0514c071295e10ce5917833bbf6abae86ba4498c84022056355c9bbfb049365ab035e79eaf6feaf37f863c5ae0227b9a8b6392a68e6829012102d509f80ecfd233d6ad94cd195e8449e5b2838107192a6df571d9d89e570ac270",
      "scriptsig_asm": "OP_PUSHBYTES_72 3045022100f14f1c17ada64b1bb0334b0514c071295e10ce5917833bbf6abae86ba4498c84022056355c9bbfb049365ab035e79eaf6feaf37f863c5ae0227b9a8b6392a68e682901 OP_PUSHBYTES_33 02d509f80ecfd233d6ad94cd195e8449e5b2838107192a6df571d9d89e570ac270",
      "is_coinbase": false,
      "sequence": 4294967295
    }
  ],
  "vout": [
    {
      "scriptpubkey": "a91463806bde0363e147a71966523c50fd165439805587",
      "scriptpubkey_asm": "OP_HASH160 OP_PUSHBYTES_20 63806bde0363e147a71966523c50fd1654398055 OP_EQUAL",
      "scriptpubkey_type": "p2sh",
      "scriptpubkey_address": "3Am8fQaCRgjz9SUhanyMAy42mDpY3dxPs3",
      "value": 29976
    },
    {
      "scriptpubkey": "76a914a95359a964df267f063fff1c7c981905253347b888ac",
      "scriptpubkey_asm": "OP_DUP OP_HASH160 OP_PUSHBYTES_20 a95359a964df267f063fff1c7c981905253347b8 OP_EQUALVERIFY OP_CHECKSIG",
      "scriptpubkey_type": "p2pkh",
      "scriptpubkey_address": "1GSK3hM3WYUU4Q9seXvkPjY4QUGw1zpXDW",
      "value": 109139
    }
  ],
  "size": 224,
  "weight": 896,
  "fee": 6944,
  "status": {
    "confirmed": true,
    "block_height": 834638,
    "block_hash": "000000000000000000025f742c626208ac87e0b7d15054abb4a19ca2d735a54e",
    "block_time": 1710405325
  },
  "hex": "01000000012d6b63c7acf7dd4b52bad72b9dfa12c6ef3580f57119edfceb75e10faa73a8e0010000006b483045022100f14f1c17ada64b1bb0334b0514c071295e10ce5917833bbf6abae86ba4498c84022056355c9bbfb049365ab035e79eaf6feaf37f863c5ae0227b9a8b6392a68e6829012102d509f80ecfd233d6ad94cd195e8449e5b2838107192a6df571d9d89e570ac270ffffffff02187500000000000017a91463806bde0363e147a71966523c50fd16543980558753aa0100000000001976a914a95359a964df267f063fff1c7c981905253347b888ac00000000"
}