{
  "txid": "fc89c552e4e86f10809e576924197bd058d495fc7316897ae99f3c6d34dcd493",
  "version": 2,
  "locktime": 0,
  "vin": [
    {
      "txid": "b195fcd096c5ea15d17956cb36aa9bd8196c4cbcf7e2582681ca953147fd1458",
      "vout": 0,
      "prevout": {
        "scriptpubkey": "5120c690427c309b201611cd0b797953a1a15bdfd035c9ecd03f43e839de74c4d039",
        "scriptpubkey_asm": "OP_PUSHNUM_1 OP_PUSHBYTES_32 c690427c309b201611cd0b797953a1a15bdfd035c9ecd03f43e839de74c4d039",
        "scriptpubkey_type": "v1_p2tr",
        "scriptpubkey_address": "bc1pc6gyylpsnvspvywdpduhj5ap59dal5p4e8kdq06raquauaxy6qusxpkssl",
        "value": 26000
      },
      "scriptsig": "",
      "scriptsig_asm": "",
      "witness": [
        "1b03e58c785274589311b0929d67691554853f9ac5f7b3b824cb8362cee029c14fbffdf45ffbed9145567df5424b02e38589f03edab9fca53cc99f3a44577b07",
        "204b079ac61ec04a6856a89352a21ce42fd2c83913ffdc57e03127f17b10992029ac0063036f726401011e6170706c69636174696f6e2f6a736f6e3b636861727365743d7574662d38004cbf7b2270223a22706f772d3230222c226f70223a226d696e74222c227469636b223a2250455045222c22616d74223a2231303030222c22736f6c7574696f6e223a22504550453a6263317171633839726a7563797a776c77786d7761646c7763797139353668726e726b6a6833637361723a303030303030303030303030303030303030303139393431613561653132383937363539383134343239323533333030353762306461393666336465613163353a3433333538383032353634227d68",
        "c1def3a919f167a22fa6dfb9fa98ee16800d5a99e15fd4f4bd107d87271701c38a"
      ],
      "is_coinbase": false,
      "sequence": 4294967293
    }
  ],
  "vout": [
    {
      "scriptpubkey": "0014060e51cb98209df71b6eeb7eec1005a6ae398ed2",
      "scriptpubkey_asm": "OP_0 OP_PUSHBYTES_20 060e51cb98209df71b6eeb7eec1005a6ae398ed2",
      "scriptpubkey_type": "v0_p2wpkh",
      "scriptpubkey_address": "bc1qqc89rjucyzwlwxmwadlwcyq956hrnrkjh3csar",
      "value": 546
    },
    {
      "scriptpubkey": "5120cd14d15648f0153346221648f4d59288ed3c63bbcd0ad3a3204c0d104f3b8813",
      "scriptpubkey_asm": "OP_PUSHNUM_1 OP_PUSHBYTES_32 cd14d15648f0153346221648f4d59288ed3c63bbcd0ad3a3204c0d104f3b8813",
      "scriptpubkey_type": "v1_p2tr",
      "scriptpubkey_address": "bc1pe52dz4jg7q2nx33zzey0f4vj3rknccame59d8geqfsx3qnem3qfszhyk0w",
      "value": 2658
    },
    {
      "scriptpubkey": "5120ff6e5a9da23d828a70f13c0e8e9ca2edaae646e1008579b1829472330e910a6e",
      "scriptpubkey_asm": "OP_PUSHNUM_1 OP_PUSHBYTES_32 ff6e5a9da23d828a70f13c0e8e9ca2edaae646e1008579b1829472330e910a6e",
      "scriptpubkey_type": "v1_p2tr",
      "scriptpubkey_address": "bc1plah948dz8kpg5u838s8ga89zak4wv3hpqzzhnvvzj3erxr53pfhqh5ljzw",
      "value": 2658
    },
    {
      "scriptpubkey": "5120d409a39d5f0b450fe4c411e49d5402eb563c60b6bd5b7774e42477d832ce71e2",
      "scriptpubkey_asm": "OP_PUSHNUM_1 OP_PUSHBYTES_32 d409a39d5f0b450fe4c411e49d5402eb563c60b6bd5b7774e42477d832ce71e2",
      "scriptpubkey_type": "v1_p2tr",
      "scriptpubkey_address": "bc1p6sy6882lpdzslexyz8jf64qzadtrcc9kh4dhwa8yy3masvkww83qlqh3t9",
      "value": 2658
    },
    {
      "scriptpubkey": "5120dc8ac5bb0f043fe51f15f47e664e5d0f1080fac6dfd5d9ec41c73ee3d6de5551",
      "scriptpubkey_asm": "OP_PUSHNUM_1 OP_PUSHBYTES_32 dc8ac5bb0f043fe51f15f47e664e5d0f1080fac6dfd5d9ec41c73ee3d6de5551",
      "scriptpubkey_type": "v1_p2tr",
      "scriptpubkey_address": "bc1pmj9vtwc0qsl728c473lxvnjapuggp7kxml2anmzpculw84k724gsl87ehv",
      "value": 2658
    },
    {
      "scriptpubkey": "0014e33130022d7e3788a8c4fa00ac778e3f4cb0734b",
      "scriptpubkey_asm": "OP_0 OP_PUSHBYTES_20 e33130022d7e3788a8c4fa00ac778e3f4cb0734b",
      "scriptpubkey_type": "v0_p2wpkh",
      "scriptpubkey_address": "bc1quvcnqq3d0cmc32xylgq2cauw8axtqu6t48yqn7",
      "value": 10274
    }
  ],
  "size": 658,
  "weight": 1513,
  "fee": 4548,
  "status": {
    "confirmed": true,
    "block_height": 834460,
    "block_hash": "00000000000000000000484a79b643b2524bbce82e5d8a442013fa5b8905ed98",
    "block_time": 1710307468
  },
  "hex": "020000000001015814fd473195ca812658e2f7bc4c6c19d89baa36cb5679d115eac596d0fc95b10000000000fdffffff062202000000000000160014060e51cb98209df71b6eeb7eec1005a6ae398ed2620a000000000000225120cd14d15648f0153346221648f4d59288ed3c63bbcd0ad3a3204c0d104f3b8813620a000000000000225120ff6e5a9da23d828a70f13c0e8e9ca2edaae646e1008579b1829472330e910a6e620a000000000000225120d409a39d5f0b450fe4c411e49d5402eb563c60b6bd5b7774e42477d832ce71e2620a000000000000225120dc8ac5bb0f043fe51f15f47e664e5d0f1080fac6dfd5d9ec41c73ee3d6de55512228000000000000160014e33130022d7e3788a8c4fa00ac778e3f4cb0734b03401b03e58c785274589311b0929d67691554853f9ac5f7b3b824cb8362cee029c14fbffdf45ffbed9145567df5424b02e38589f03edab9fca53cc99f3a44577b07fd0c01204b079ac61ec04a6856a89352a21ce42fd2c83913ffdc57e03127f17b10992029ac0063036f726401011e6170706c69636174696f6e2f6a736f6e3b636861727365743d7574662d38004cbf7b2270223a22706f772d3230222c226f70223a226d696e74222c227469636b223a2250455045222c22616d74223a2231303030222c22736f6c7574696f6e223a22504550453a6263317171633839726a7563797a776c77786d7761646c7763797139353668726e726b6a6833637361723a303030303030303030303030303030303030303139393431613561653132383937363539383134343239323533333030353762306461393666336465613163353a3433333538383032353634227d6821c1def3a919f167a22fa6dfb9fa98ee16800d5a99e15fd4f4bd107d87271701c38a00000000"
}