{
  "txid": "fc8b57f8c19299b93d3dd00182b331ecd8020754b009b51a355cd51f686f9d78",
  "version": 2,
  "locktime": 0,
  "vin": [
    {
      "txid": "acc3ba00869acb582a3f2904ce3a11dd3779350ce234063fc7d0959246213364",
      "vout": 217,
      "prevout": {
        "scriptpubkey": "512018b2f1c24a382e037a57d4b339988c87bd2ec3791e21dfe5e9fc593b48316bdd",
        "scriptpubkey_asm": "OP_PUSHNUM_1 OP_PUSHBYTES_32 18b2f1c24a382e037a57d4b339988c87bd2ec3791e21dfe5e9fc593b48316bdd",
        "scriptpubkey_type": "v1_p2tr",
        "scriptpubkey_address": "bc1prze0rsj28qhqx7jh6jennxyvs77jasmercsale0fl3vnkjp3d0ws542wcj",
        "value": 1806
      },
      "scriptsig": "",
      "scriptsig_asm": "",
      "witness": [
        "8bb6499afa528946bf846e1e0584bb1900a212f71333011930227482243543965319ae50df46375eb1d18291ddacd37302572ef670c669d8a4ce7ca70adf143b",
        "201feec21f8b8656c10a245c8e8121899bd04f73b945fa36f26e731d7f93fe96ccac0063036f726401010a746578742f706c61696e00357b2270223a226272632d3230222c226f70223a226d696e74222c227469636b223a22646f6765222c22616d74223a2234323030227d68",
        "c01feec21f8b8656c10a245c8e8121899bd04f73b945fa36f26e731d7f93fe96cc"
      ],
      "is_coinbase": false,
      "sequence": 4261412863
    }
  ],
  "vout": [
    {
      "scriptpubkey": "00147a665de7a370f4c9b372ab1fae587500a5bcbdb4",
      "scriptpubkey_asm": "OP_0 OP_PUSHBYTES_20 7a665de7a370f4c9b372ab1fae587500a5bcbdb4",
      "scriptpubkey_type": "v0_p2wpkh",
      "scriptpubkey_address": "bc1q0fn9mearwr6vnvmj4v06ukr4qzjme0d565dzcx",
      "value": 294
    }
  ],
  "size": 294,
  "weight": 540,
  "fee": 1512,
  "status": {
    "confirmed": true,
    "block_height": 834460,
    "block_hash": "00000000000000000000484a79b643b2524bbce82e5d8a442013fa5b8905ed98",
    "block_time": 1710307468
  },
  "hex": "02000000000101643321469295d0c73f0634e20c357937dd113ace04293f2a58cb9a8600bac3acd900000000fffffffd0126010000000000001600147a665de7a370f4c9b372ab1fae587500a5bcbdb403408bb6499afa528946bf846e1e0584bb1900a212f71333011930227482243543965319ae50df46375eb1d18291ddacd37302572ef670c669d8a4ce7ca70adf143b6d201feec21f8b8656c10a245c8e8121899bd04f73b945fa36f26e731d7f93fe96ccac0063036f726401010a746578742f706c61696e00357b2270223a226272632d3230222c226f70223a226d696e74222c227469636b223a22646f6765222c22616d74223a2234323030227d6821c01feec21f8b8656c10a245c8e8121899bd04f73b945fa36f26e731d7f93fe96cc00000000"
}