{
  "txid": "fc94b65160000d3af4a0ce1e73af86ee39d5e1c2d6f543d1c8a7b5b754332d16",
  "version": 2,
  "locktime": 834637,
  "vin": [
    {
      "txid": "cf6813f7cc194869f946d26e6c381525c832506e5877020928e16ece3bd5fd87",
      "vout": 0,
      "prevout": {
        "scriptpubkey": "001463d39c2accd738e2a72239a4ac239d23a3855f79",
        "scriptpubkey_asm": "OP_0 OP_PUSHBYTES_20 63d39c2accd738e2a72239a4ac239d23a3855f79",
        "scriptpubkey_type": "v0_p2wpkh",
        "scriptpubkey_address": "bc1qv0fec2kv6uuw9fez8xj2cguayw3c2hmeemldeq",
        "value": 24193
      },
      "scriptsig": "",
      "scriptsig_asm": "",
      "witness": [
        "3044022002b55566600c367cc3f40e2be122645fe9916c9400869c57b09f6e517b4fbb1402206e6f31e71f0b8f02457b1965c04a366d0df8302d937a6c7889494e3779401dc401",
        "0342a767aab3b2cdc636a384ce40a021ea1d711c18fc222fda1f2821978196f010"
      ],
      "is_coinbase": false,
      "sequence": 4294967294
    }
  ],
  "vout": [
    {
      "scriptpubkey": "0014a90f4e576f461998dced8cf284d49dda3a4e32fd",
      "scriptpubkey_asm": "OP_0 OP_PUSHBYTES_20 a90f4e576f461998dced8cf284d49dda3a4e32fd",
      "scriptpubkey_type": "v0_p2wpkh",
      "scriptpubkey_address": "bc1q4y85u4m0gcve3h8d3negf4yamgayuvha658aaa",
      "value": 8148
    },
    {
      "scriptpubkey": "0014e0ce8d1809b70d408d00219069fba9bd67c2c5dd",
      "scriptpubkey_asm": "OP_0 OP_PUSHBYTES_20 e0ce8d1809b70d408d00219069fba9bd67c2c5dd",
      "scriptpubkey_type": "v0_p2wpkh",
      "scriptpubkey_address": "bc1qur8g6xqfkux5prgqyxgxn7afh4nu93wanjhzx7",
      "value": 13800
    }
  ],
  "size": 222,
  "weight": 561,
  "fee": 2245,
  "status": {
    "confirmed": true,
    "block_height": 834638,
    "block_hash": "000000000000000000025f742c626208ac87e0b7d15054abb4a19ca2d735a54e",
    "block_time": 1710405325
  },
  "hex": "0200000000010187fdd53bce6ee128090277586e5032c82515386c6ed246f9694819ccf71368cf0000000000feffffff02d41f000000000000160014a90f4e576f461998dced8cf284d49dda3a4e32fde835000000000000160014e0ce8d1809b70d408d00219069fba9bd67c2c5dd02473044022002b55566600c367cc3f40e2be122645fe9916c9400869c57b09f6e517b4fbb1402206e6f31e71f0b8f02457b1965c04a366d0df8302d937a6c7889494e3779401dc401210342a767aab3b2cdc636a384ce40a021ea1d711c18fc222fda1f2821978196f0104dbc0c00"
}