{
  "txid": "fcf954cf99fe5627f8b2cea1fa76d56872a2ba7c5f1666bb8640227263e3e6bd",
  "version": 1,
  "locktime": 0,
  "vin": [
    {
      "txid": "7e1c65ed365b58b54772116c0f36cfc493d6a0294f6b799486d636a1da81446e",
      "vout": 1,
      "prevout": {
        "scriptpubkey": "0014714ad5d5bc3e2492ed3a64c62c4af2454a194394",
        "scriptpubkey_asm": "OP_0 OP_PUSHBYTES_20 714ad5d5bc3e2492ed3a64c62c4af2454a194394",
        "scriptpubkey_type": "v0_p2wpkh",
        "scriptpubkey_address": "bc1qw99dt4du8cjf9mf6vnrzcjhjg49pjsu5e0acjz",
        "value": 43717032
      },
      "scriptsig": "",
      "scriptsig_asm": "",
      "witness": [
        "30440220363a0e9873b181a143361952f101f3f22d11139a5ca1df0253a28ea5bad6f93c022029d0f7ede02d36510e4adb72366f181aee3bd89f6134fbf1d102de28e5a1923e01",
        "03b6ac721cce1f9f51e7f3f81f6acfc386b8d51acd6e5f774fe00132519e4d89e1"
      ],
      "is_coinbase": false,
      "sequence": 4294967295
    },
    {
      "txid": "161f6214d8182b62560556112a6e01e399855196b75f782635d205dbd081d6dd",
      "vout": 1,
      "prevout": {
        "scriptpubkey": "0014a9699bd8c5ae792a5e1c5c697f99af6967f42fcb",
        "scriptpubkey_asm": "OP_0 OP_PUSHBYTES_20 a9699bd8c5ae792a5e1c5c697f99af6967f42fcb",
        "scriptpubkey_type": "v0_p2wpkh",
        "scriptpubkey_address": "bc1q495ehkx94euj5hsut35hlxd0d9nlgt7tgh57um",
        "value": 67374652
      },
      "scriptsig": "",
      "scriptsig_asm": "",
      "witness": [
        "304502210090b594e775e58893bf0aceb66fd70eb1f713565936e76d2dfda716e9ecacb561022022ce65f6b5e832482fd9259931e59389597d4dc1b49bea564f9cb50e3752c6ac01",
        "039c66178766c9a1e2170f54cb5f008fddfa2f1be5d3660bde7d952c7b3341b367"
      ],
      "is_coinbase": false,
      "sequence": 4294967295
    }
  ],
  "vout": [
    {
      "scriptpubkey": "a91441e5bf5c464db9a58ec5027626c1ba6588c95b0a87",
      "scriptpubkey_asm": "OP_HASH160 OP_PUSHBYTES_20 41e5bf5c464db9a58ec5027626c1ba6588c95b0a OP_EQUAL",
      "scriptpubkey_type": "p2sh",
      "scriptpubkey_address": "37hT59bWMg2aLZwN4s3SaQZ7N8y9xMQUWD",
      "value": 111086851
    }
  ],
  "size": 341,
  "weight": 713,
  "fee": 4833,
  "status": {
    "confirmed": true,
    "block_height": 834638,
    "block_hash": "000000000000000000025f742c626208ac87e0b7d15054abb4a19ca2d735a54e",
    "block_time": 1710405325
  },
  "hex": "010000000001026e4481daa136d68694796b4f29a0d693c4cf360f6c117247b5585b36ed651c7e0100000000ffffffffddd681d0db05d23526785fb796518599e3016e2a11560556622b18d814621f160100000000ffffffff01030d9f060000000017a91441e5bf5c464db9a58ec5027626c1ba6588c95b0a87024730440220363a0e9873b181a143361952f101f3f22d11139a5ca1df0253a28ea5bad6f93c022029d0f7ede02d36510e4adb72366f181aee3bd89f6134fbf1d102de28e5a1923e012103b6ac721cce1f9f51e7f3f81f6acfc386b8d51acd6e5f774fe00132519e4d89e10248304502210090b594e775e58893bf0aceb66fd70eb1f713565936e76d2dfda716e9ecacb561022022ce65f6b5e832482fd9259931e59389597d4dc1b49bea564f9cb50e3752c6ac0121039c66178766c9a1e2170f54cb5f008fddfa2f1be5d3660bde7d952c7b3341b36700000000"
}