{
  "txid": "fcfa4fa6034da3f8f5cb9cc774deb4be34c1519f2c129f3383b6532a7522103a",
  "version": 2,
  "locktime": 0,
  "vin": [
    {
      "txid": "d0afbf18dddd4c4e1f9f372833d92e463b8bc5f1cc780088213ee261911bcdb3",
      "vout": 13,
      "prevout": {
        "scriptpubkey": "51203f1fefd9649358a94a1be220c2694059111c49b8075ce6a76af1fb2dceb50ede",
        "scriptpubkey_asm": "OP_PUSHNUM_1 OP_PUSHBYTES_32 3f1fefd9649358a94a1be220c2694059111c49b8075ce6a76af1fb2dceb50ede",
        "scriptpubkey_type": "v1_p2tr",
        "scriptpubkey_address": "bc1p8u07lktyjdv2jjsmugsvy62qtyg3cjdcqawwdfm278ajmn44pm0q70fdum",
        "value": 284803
      },
      "scriptsig": "",
      "scriptsig_asm": "",
      "witness": [
        "7b5bf8fcf384c0ff82aa1d4c327e5e0022d66e50b4183687b86d458b41a007e013aca621cfccac62621bb96cb089ec6ea88211883c5a0215f8213e24b0cfa27a"
      ],
      "is_coinbase": false,
      "sequence": 4294967295
    }
  ],
  "vout": [
    {
      "scriptpubkey": "51203f1fefd9649358a94a1be220c2694059111c49b8075ce6a76af1fb2dceb50ede",
      "scriptpubkey_asm": "OP_PUSHNUM_1 OP_PUSHBYTES_32 3f1fefd9649358a94a1be220c2694059111c49b8075ce6a76af1fb2dceb50ede",
      "scriptpubkey_type": "v1_p2tr",
      "scriptpubkey_address": "bc1p8u07lktyjdv2jjsmugsvy62qtyg3cjdcqawwdfm278ajmn44pm0q70fdum",
      "value": 600
    },
    {
      "scriptpubkey": "51203f1fefd9649358a94a1be220c2694059111c49b8075ce6a76af1fb2dceb50ede",
      "scriptpubkey_asm": "OP_PUSHNUM_1 OP_PUSHBYTES_32 3f1fefd9649358a94a1be220c2694059111c49b8075ce6a76af1fb2dceb50ede",
      "scriptpubkey_type": "v1_p2tr",
      "scriptpubkey_address": "bc1p8u07lktyjdv2jjsmugsvy62qtyg3cjdcqawwdfm278ajmn44pm0q70fdum",
      "value": 600
    },
    {
      "scriptpubkey": "51203f1fefd9649358a94a1be220c2694059111c49b8075ce6a76af1fb2dceb50ede",
      "scriptpubkey_asm": "OP_PUSHNUM_1 OP_PUSHBYTES_32 3f1fefd9649358a94a1be220c2694059111c49b8075ce6a76af1fb2dceb50ede",
      "scriptpubkey_type": "v1_p2tr",
      "scriptpubkey_address": "bc1p8u07lktyjdv2jjsmugsvy62qtyg3cjdcqawwdfm278ajmn44pm0q70fdum",
      "value": 280648
    }
  ],
  "size": 248,
  "weight": 788,
  "fee": 2955,
  "status": {
    "confirmed": true,
    "block_height": 834638,
    "block_hash": "000000000000000000025f742c626208ac87e0b7d15054abb4a19ca2d735a54e",
    "block_time": 1710405325
  },
  "hex": "02000000000101b3cd1b9161e23e21880078ccf1c58b3b462ed93328379f1f4e4cdddd18bfafd00d00000000ffffffff0358020000000000002251203f1fefd9649358a94a1be220c2694059111c49b8075ce6a76af1fb2dceb50ede58020000000000002251203f1fefd9649358a94a1be220c2694059111c49b8075ce6a76af1fb2dceb50ede48480400000000002251203f1fefd9649358a94a1be220c2694059111c49b8075ce6a76af1fb2dceb50ede01407b5bf8fcf384c0ff82aa1d4c327e5e0022d66e50b4183687b86d458b41a007e013aca621cfccac62621bb96cb089ec6ea88211883c5a0215f8213e24b0cfa27a00000000"
}