{
  "txid": "fd0744eddcea5bbae28b65daa28373241ccc009e56854382c16b9d17cf2017c3",
  "version": 1,
  "locktime": 0,
  "vin": [
    {
      "txid": "9f2dfa2dfe1d398d1ee65ab6ef239ef88d043b0c3db764b648679a7acb06a6bf",
      "vout": 1,
      "prevout": {
        "scriptpubkey": "0014506970047601f0d39e4932cf1cacf58a861fd757",
        "scriptpubkey_asm": "OP_0 OP_PUSHBYTES_20 506970047601f0d39e4932cf1cacf58a861fd757",
        "scriptpubkey_type": "v0_p2wpkh",
        "scriptpubkey_address": "bc1q2p5hqprkq8cd88jfxt83et8432rpl46hq2vle2",
        "value": 2613045
      },
      "scriptsig": "",
      "scriptsig_asm": "",
      "witness": [
        "3045022100f5f0794e5ab8ec053d6ceca0098553452be30b3c2e4c8ffa59c5275caae0dbdb02205c925d899a426b7908c5f0271f321f8911c6cf7a71a1413bbf0fbeae28cf763b01",
        "02acf4ae0b9dd8cdf9ad055b0ef55a7e83a06438531bda5938b28fe59127336ccd"
      ],
      "is_coinbase": false,
      "sequence": 4294967295
    }
  ],
  "vout": [
    {
      "scriptpubkey": "001470a5c31f780d109c7acf93a68c695438fdca8f88",
      "scriptpubkey_asm": "OP_0 OP_PUSHBYTES_20 70a5c31f780d109c7acf93a68c695438fdca8f88",
      "scriptpubkey_type": "v0_p2wpkh",
      "scriptpubkey_address": "bc1qwzjux8mcp5gfc7k0jwngc6258r7u4ruguqh4xr",
      "value": 140000
    },
    {
      "scriptpubkey": "0014506970047601f0d39e4932cf1cacf58a861fd757",
      "scriptpubkey_asm": "OP_0 OP_PUSHBYTES_20 506970047601f0d39e4932cf1cacf58a861fd757",
      "scriptpubkey_type": "v0_p2wpkh",
      "scriptpubkey_address": "bc1q2p5hqprkq8cd88jfxt83et8432rpl46hq2vle2",
      "value": 2469238
    }
  ],
  "size": 223,
  "weight": 562,
  "fee": 3807,
  "status": {
    "confirmed": true,
    "block_height": 834638,
    "block_hash": "000000000000000000025f742c626208ac87e0b7d15054abb4a19ca2d735a54e",
    "block_time": 1710405325
  },
  "hex": "01000000000101bfa606cb7a9a6748b664b73d0c3b048df89e23efb65ae61e8d391dfe2dfa2d9f0100000000ffffffff02e02202000000000016001470a5c31f780d109c7acf93a68c695438fdca8f8876ad250000000000160014506970047601f0d39e4932cf1cacf58a861fd75702483045022100f5f0794e5ab8ec053d6ceca0098553452be30b3c2e4c8ffa59c5275caae0dbdb02205c925d899a426b7908c5f0271f321f8911c6cf7a71a1413bbf0fbeae28cf763b012102acf4ae0b9dd8cdf9ad055b0ef55a7e83a06438531bda5938b28fe59127336ccd00000000"
}